PL6.E3A0      #003=Z8ET$DEFERED_SUM_AND_SOURCE File=Z8ET.:Z8A6TSI                SAT 08/09/97 12:45 Page:66
      356        1        /*T***********************************************************/
      357        2        /*T*                                                         */
      358        3        /*T* Copyright (c) Bull HN Information Systems Inc., 1997    */
      359        4        /*T*                                                         */
      360        5        /*T***********************************************************/
      361        6
      362        7        /*M*  Z8ET$DEFERED_SUM_AND_SOUCE---for SUM and SOURCE clause*/
      363        8
      364        9
      365       10        /*P*
      366       11               NAME:  Z8ET$DEFERED_SUM_AND_SOURCE
      367       12             AUTHOR:  Min Lee.
      368       13            PURPOSE:  Wrap up the SUM clause and the SOURCE clause in the
      369       14                      REPORT SECTION of the DATA DIVISION.
      370       15        */
      371       16
      372       17        /*D*
      373       18               NAME:  Z8ET$DEFERED_SUM_AND_SOURCE
      374       19               CALL:  CALL Z8ET$DEFERED_SUM_AND_SOURCE
      375       20              INPUT:  O1COM.REPORT_SOURCE$, O1COM.REPORT_SUM$.
      376       21
      377       22
      378       23
      379       24        DESCRIPTION:  1. Call Z8ET$PROCESS_TREE to create the ETT tree of the
      380       25                         identifiers in the SUM and SOURCE clause .
      381       26                      2. Generates all the ETT and LX_ETT items for the Special
      382       27                         Subtotaling Subroutine, General Subtotaling Subroutine,
      383       28                         Cross Footing/Rolling Forward Subroutine, Sum Counter
      384       29                         Resetting Subroutine.
      385       30                      3. Call Z8ET$CREATE_SUBROUTINES to create all the
      386       31                         subroutines that will be excuted by the RWCS.
      387       32         */
      388       33         %EJECT;
PL6.E3A0      #003=Z8ET$DEFERED_SUM_AND_SOURCE File=Z8ET.:Z8A6TSI                SAT 08/09/97 12:45 Page:67
      389       34
      390       35         Z8ET$DEFERED_SUM_AND_SOURCE: PROC;
      391       36
      392       37
      393       38
      394       39        %EQU PHASE = 1;
      395       40        %INCLUDE Z8A_DEFC;
      396      108        %INCLUDE Z8A_SUPP_MAC;
      397     2508        %INCLUDE Z8A_COMCOM;
      398     3158        %INCLUDE Z8A_ST;
      399     6817        %INCLUDE Z8A_QLT;
      400     6923        %INCLUDE Z8A_LTS;
      401     9000        %INCLUDE Z8A_TYPES;
      402     9174        %INCLUDE Z8A_DNT;
      403     9395        %INCLUDE Z8A_ERR_NUMS;
      404    10159        %INCLUDE Z8A_ILL;
      405    10852        %INCLUDE Z8A_ETT;
      406    11153        %INCLUDE Z8A_MKCN;
      407    11170
      408    11171        %INCLUDE Z8E_STACKS;
      409    13437        %INCLUDE Z8E_WINDOW;
      410    15507        %INCLUDE Z8E_O1COM;
      411    16268        %INCLUDE Z8E_MACROS;
      412    16943        %INCLUDE Z8D_PIC_PARM;
      413    17049        %INCLUDE Z8E_HEAP;
      414    17105        %INCLUDE Z8E_ABSSYN;
      415    17311        %INCLUDE Z8E_STATEMNT;
      416    17380
      417    17381    1   DCL Z8AE$ERROR     ENTRY (12);
      418    17382    1   DCL Z8CO$QUALIFY_VARIABLE ENTRY (2) ALTRET;
      419    17383    1   DCL Z8ET$PROCESS_TREE    ENTRY (1);
      420    17384    1   DCL Z8ED$DISPOSE_ABSSYN_TREE  ENTRY (1);
      421    17385    1   DCL Z8AT$CREATE_TEMPORARY  ENTRY (2);
      422    17386    1   DCL Z8EK$BRANCH    ENTRY (1);
      423    17387    1   DCL Z8ET$CREATE_SUBROUTINES  ENTRY(1);
      424    17388    1   DCL ASSOC_01_LTS$     PTR;
      425    17389    1   DCL I              SBIN WORD;
PL6.E3A0      #003=Z8ET$DEFERED_SUM_AND_SOURCE File=Z8ET.:Z8A6TSI                SAT 08/09/97 12:45 Page:68
      426    17390
      427    17391
      428    17392
      429    17393
      430    17394        %EJECT;
PL6.E3A0      #003=Z8ET$DEFERED_SUM_AND_SOURCE File=Z8ET.:Z8A6TSI                SAT 08/09/97 12:45 Page:69
      431    17395
      432    17396         /*=================*/
      433    17397    1      CREATE_SOURCE_ETT:  PROC;
      434    17398         /*=================*/
      435    17399
      436    17400        /*I*
      437    17401
      438    17402             NAME:  CREATE_SOURCE_ETT
      439    17403
      440    17404          PURPOSE: Process the SOURCE clauses.
      441    17405
      442    17406             CALL: CALL CREATE_SOURCE_ETT.
      443    17407
      444    17408            INPUT: O1COM.REPORT_SOURCE$--Point to a list of DEFERED_IDENTIFIER
      445    17409                   items that contain the SOURCE clauses' informations.
      446    17410          DESCRIPTION: This routine steps through the O1COM.REPORT_SOURCE$
      447    17411                       chain to get the identifier in each SOURCE clause and
      448    17412                       calls Z8ET$PROCESS_TREE to create the ETT tree for it.
      449    17413                       Also to flag it as an error if it is a report item but
      450    17414                       not a sum counter or is a sum counter nit in same report.
      451    17415
      452    17416        */
      453    17417
      454    17418
      455    17419    2      DCL LTS$$           PTR;
      456    17420    2      DCL NEXT$           PTR;
      457    17421    2       DCL SUM_BIT        BIT (1) ALIGNED;
      458    17422    2       DCL ELEM_LTS$      PTR;
      459    17423
      460    17424    2      NEXT$ = O1COM.REPORT_SOURCE$;
      461    17425
      462    17426    3      DO WHILE (NEXT$ ~= ADDR(NIL));
      463    17427
      464    17428    3        LTS$$ = NEXT$ -> DEFERED_IDENTIFIER.ASSOC_VAR_LTS$;
      465    17429    3        O1COM.CURRENT_REPORT_LTS$ = NEXT$ -> DEFERED_IDENTIFIER.ASSOC_REPORT_LTS$;
      466    17430
      467    17431    3        CALL Z8ET$PROCESS_TREE (NEXT$ -> DEFERED_IDENTIFIER.DEFERED_ID$);
PL6.E3A0      #003=Z8ET$DEFERED_SUM_AND_SOURCE File=Z8ET.:Z8A6TSI                SAT 08/09/97 12:45 Page:70
      468    17432
      469    17433    3        LTS$$ -> REPORT_ELEM_LTS.SOURCE_ETT$ =
      470    17434    3                 NEXT$ -> DEFERED_IDENTIFIER.DEFERED_ID$ -> LX_ETT_ITEM.ETT$;
      471    17435
      472    17436    3        IF NOT NEXT$ -> DEFERED_IDENTIFIER.DEFERED_ID$ -> LX_ETT_ITEM.B.ERROR THEN
      473    17437    3          CALL REP_ITEM_CHECK (NEXT$ -> DEFERED_IDENTIFIER.DEFERED_ID$,
      474    17438    3                               SUM_BIT,
      475    17439    3                               ELEM_LTS$,
      476    17440    3                               %E$MUST_SUM_IN_SAME_REPORT);
      477    17441    3        NEXT$ = NEXT$ -> DEFERED_IDENTIFIER.LINK;
      478    17442    3      END;  /* while */
      479    17443
      480    17444    2        CALL Z8ED$DISPOSE_ABSSYN_TREE (O1COM.REPORT_SOURCE$);
      481    17445
      482    17446    2    END CREATE_SOURCE_ETT;
      483    17447         %EJECT;
PL6.E3A0      #003=Z8ET$DEFERED_SUM_AND_SOURCE File=Z8ET.:Z8A6TSI                SAT 08/09/97 12:45 Page:71
      484    17448
      485    17449         /*==============*/
      486    17450    1      REP_ITEM_CHECK: PROC (LX_ETT$, SUM_BIT, ELEM_LTS$, ERR_NUMBER);
      487    17451         /*==============*/
      488    17452
      489    17453        /*I*
      490    17454
      491    17455             NAME:  REPORT_ITEM_CHECK
      492    17456
      493    17457          PURPOSE: Verify a report item in the SOURCE or SUM clause.
      494    17458
      495    17459             CALL: CALL REPORT_ITEM_CHECK(LX_ETT$, SUM_BIT, ELEM_LTS$, ERR_NUMBER)
      496    17460
      497    17461            INPUT: LX_ETT$--ETT tree of the identifier.
      498    17462                   ELEM_LTS$--LTS item associate with the report item.
      499    17463                   ERR_NUMBER-- error number of the error message.
      500    17464           OUTPUT: SUM_BIT--a bit will be set 'on' for a valid sum counter.
      501    17465          DESCRIPTION: If the identifier is a report item but is not a sum
      502    17466                       counter or is a sum counter but not in the same report
      503    17467                       then a error message will be issued.
      504    17468                       If it is a valid sum counter the set the SUM_BIT on.
      505    17469
      506    17470        */
      507    17471
      508    17472
      509    17473    2   DCL LX_ETT$        PTR;
      510    17474    2   DCL SUM_BIT        BIT (1) ALIGNED;
      511    17475    2   DCL ELEM_LTS$      PTR;
      512    17476    2   DCL ST$$           PTR;
      513    17477    2   DCL ERR_NUMBER     UBIN WORD;
      514    17478
      515    17479
      516    17480    2          SUM_BIT = FALSE;
      517    17481
      518    17482               %FISH (TRIAD = LX_ETT$ -> LX_ETT_ITEM.ETT$,
      519    17483                      RTN   = ST$$);
      520    17491
PL6.E3A0      #003=Z8ET$DEFERED_SUM_AND_SOURCE File=Z8ET.:Z8A6TSI                SAT 08/09/97 12:45 Page:72
      521    17492    2          IF ST$$ -> SCALAR.B.REPORT_ITEM THEN
      522    17493    3            DO;
      523    17494    3              IF ST$$ -> SCALAR.B.SUM_COUNTER THEN
      524    17495    4                DO;
      525    17496
      526    17497                       %GET_LTS (@ID     = %REPORT_ELEM_LTS,
      527    17498                                 @ST$    = ST$$,
      528    17499                                 @RETURN$ = ELEM_LTS$);
      529    17542
      530    17543    4                  IF ELEM_LTS$ -> REPORT_ELEM_LTS.SUM_LTS$ -> SUM_LTS.REPORT_LTS$ ~=
      531    17544    4                          O1COM.CURRENT_REPORT_LTS$ THEN
      532    17545    5                    DO;
      533    17546    5                      CALL Z8AE$ERROR (ERR_NUMBER,
      534    17547    5                                       LX_ETT$ -> LX_ETT_ITEM.LINE,
      535    17548    5                                       LX_ETT$ -> LX_ETT_ITEM.COLUMN);
      536    17549    5                    END;
      537    17550    4                  ELSE
      538    17551    4                    SUM_BIT = TRUE;
      539    17552
      540    17553    4                END;
      541    17554
      542    17555    3              ELSE
      543    17556    4                DO;
      544    17557    4                  CALL Z8AE$ERROR (ERR_NUMBER,
      545    17558    4                                   LX_ETT$ -> LX_ETT_ITEM.LINE,
      546    17559    4                                   LX_ETT$ -> LX_ETT_ITEM.COLUMN);
      547    17560    4                END;
      548    17561    3            END;
      549    17562
      550    17563    2    END REP_ITEM_CHECK;
      551    17564         %EJECT;
PL6.E3A0      #003=Z8ET$DEFERED_SUM_AND_SOURCE File=Z8ET.:Z8A6TSI                SAT 08/09/97 12:45 Page:73
      552    17565
      553    17566
      554    17567         /*=================*/
      555    17568    1      CREATE_REPORT_SUM: PROC;
      556    17569         /*=================*/
      557    17570
      558    17571        /*I*
      559    17572
      560    17573             NAME:  CREATE_REPORT_SUM
      561    17574
      562    17575          DESCRIPTION: This routine steps through the O1COM.REPORT_SUM$ list
      563    17576                       which chains all the DEFERED_SUM_CLAUSE_LIST that
      564    17577                       containing the informations of the SUM clauses of a sum
      565    17578                       counter and call PROCESS_SUM to process it and then,
      566    17579                       call GENERATE_SUBS  to generate the run time subroutines.
      567    17580        */
      568    17581
      569    17582
      570    17583    2      DCL NEXT$           PTR;
      571    17584
      572    17585
      573    17586
      574    17587    2        NEXT$ = O1COM.REPORT_SUM$;
      575    17588
      576    17589    3      DO WHILE (NEXT$ ~= ADDR(NIL));
      577    17590
      578    17591    3        O1COM.CURRENT_REPORT_LTS$ = NEXT$ -> DEFERED_SUM_CLAUSE_LIST.ASSOC_REPORT_LTS$;
      579    17592    3        ASSOC_01_LTS$ = NEXT$ -> DEFERED_SUM_CLAUSE_LIST.ASSOC_01_LTS$;
      580    17593
      581    17594    3        CALL PROCESS_SUM (NEXT$ -> DEFERED_SUM_CLAUSE_LIST.SUM_CLAUSE_LIST$,
      582    17595    3                          NEXT$ -> DEFERED_SUM_CLAUSE_LIST.ASSOC_VAR_LTS$);
      583    17596
      584    17597    3        NEXT$ = NEXT$ -> DEFERED_SUM_CLAUSE_LIST.LINK;
      585    17598    3      END; /* while */
      586    17599
      587    17600    2      IF O1COM.REPORT_SUM$ ~= ADDR(NIL) THEN
      588    17601    3        DO;
PL6.E3A0      #003=Z8ET$DEFERED_SUM_AND_SOURCE File=Z8ET.:Z8A6TSI                SAT 08/09/97 12:45 Page:74
      589    17602
      590    17603    3          CALL Z8ED$DISPOSE_ABSSYN_TREE (O1COM.REPORT_SUM$);
      591    17604
      592    17605    3          CALL GENERATE_SUBS;
      593    17606    3        END;
      594    17607
      595    17608
      596    17609    2    END CREATE_REPORT_SUM;
      597    17610         %EJECT;
PL6.E3A0      #003=Z8ET$DEFERED_SUM_AND_SOURCE File=Z8ET.:Z8A6TSI                SAT 08/09/97 12:45 Page:75
      598    17611
      599    17612         /*===========*/
      600    17613    1      PROCESS_SUM: PROC (SUM_LIST$, VAR_LTS$);
      601    17614         /*===========*/
      602    17615
      603    17616        /*I*
      604    17617             NAME:  PROCESS_SUM
      605    17618
      606    17619          DESCRIPTION: This routine calls several modules to generate the
      607    17620                       ETT items that reset or subtotalling the sum counter.
      608    17621        */
      609    17622
      610    17623
      611    17624    2      DCL SUM_LIST$       PTR;
      612    17625    2      DCL VAR_LTS$        PTR;
      613    17626    2      DCL ID_LIST$        PTR;
      614    17627    2      DCL LTS$$           PTR;
      615    17628    2      DCL SUM_CLAUSE$     PTR;
      616    17629    2      DCL ID$$            PTR;
      617    17630
      618    17631
      619    17632
      620    17633    2      IF SUM_LIST$ -> LX_LIST.TAIL$ -> DEFERED_SUM_CLAUSE.B.RESET_ID OR
      621    17634    2         SUM_LIST$ -> LX_LIST.TAIL$ -> DEFERED_SUM_CLAUSE.B.RESET_FINAL THEN
      622    17635
      623    17636    2        CALL PROCESS_RESET (SUM_LIST$ -> LX_LIST.TAIL$,
      624    17637    2                            VAR_LTS$);
      625    17638
      626    17639    2        SUM_CLAUSE$ = SUM_LIST$ -> LX_LIST.HEAD$;
      627    17640
      628    17641    3      DO WHILE (SUM_CLAUSE$ ~= ADDR(NIL));
      629    17642
      630    17643    3        CALL Z8ET$PROCESS_TREE (SUM_CLAUSE$ -> DEFERED_SUM_CLAUSE.DEFERED_ID$);
      631    17644
      632    17645    3        IF SUM_CLAUSE$ -> DEFERED_SUM_CLAUSE.SUM_UPON$ ~= ADDR(NIL) THEN
      633    17646    3           CALL BUILD_SUM_W_UPON (SUM_CLAUSE$, VAR_LTS$);
      634    17647    3        ELSE
PL6.E3A0      #003=Z8ET$DEFERED_SUM_AND_SOURCE File=Z8ET.:Z8A6TSI                SAT 08/09/97 12:45 Page:76
      635    17648    3           CALL BUILD_SUM_N_UPON (SUM_CLAUSE$, VAR_LTS$);
      636    17649
      637    17650    3        SUM_CLAUSE$ = SUM_CLAUSE$ -> DEFERED_SUM_CLAUSE.LINK;
      638    17651    3      END; /* while */
      639    17652
      640    17653    2    END PROCESS_SUM;
      641    17654         %EJECT;
PL6.E3A0      #003=Z8ET$DEFERED_SUM_AND_SOURCE File=Z8ET.:Z8A6TSI                SAT 08/09/97 12:45 Page:77
      642    17655
      643    17656         /*=============*/
      644    17657    1      PROCESS_RESET: PROC (SUM_CLAUSE$, VAR_LTS$);
      645    17658         /*=============*/
      646    17659
      647    17660        /*I*
      648    17661
      649    17662             NAME:  PROCESS_RESET
      650    17663
      651    17664          DESCRIPTION: This routine validate the RESET phrase against the
      652    17665                       CONTROL clause  in RD entry and call SET_SUM_ZERO
      653    17666                       to get a LX_ETT item of the sum counter and then links
      654    17667                       it on the CONTROL_NAME_LTS, at the later time this
      655    17668                       LX_ETT item will be used to generate the sum counter
      656    17669                       resetting routine.
      657    17670        */
      658    17671
      659    17672
      660    17673    2      DCL SUM_CLAUSE$         PTR;
      661    17674    2      DCL VAR_LTS$            PTR;
      662    17675    2      DCL CTR_LTS$            PTR;
      663    17676    2      DCL LX_ETT$             PTR;
      664    17677
      665    17678
      666    17679
      667    17680    2      IF SUM_CLAUSE$ -> DEFERED_SUM_CLAUSE.B.RESET_FINAL THEN
      668    17681    3        DO;
      669    17682    3          IF NOT O1COM.CURRENT_REPORT_LTS$ -> REPORT_LTS.B.CONTROL_FINAL THEN
      670    17683
      671    17684    3            CALL Z8AE$ERROR (%E$ONLY_CONTROL_FINAL_IN_RD,
      672    17685    3                  SUM_CLAUSE$ -> DEFERED_SUM_CLAUSE.SUM_RESET$ -> LX_ITEM.LINE,
      673    17686    3                  SUM_CLAUSE$ -> DEFERED_SUM_CLAUSE.SUM_RESET$ -> LX_ITEM.COLUMN);
      674    17687
      675    17688    3          ELSE
      676    17689    4            DO;
      677    17690    4              CALL SET_SUM_ZERO (VAR_LTS$,
      678    17691    4                                 LX_ETT$);
PL6.E3A0      #003=Z8ET$DEFERED_SUM_AND_SOURCE File=Z8ET.:Z8A6TSI                SAT 08/09/97 12:45 Page:78
      679    17692
      680    17693    4              LX_ETT$ -> LX_ETT_ITEM.LINK = O1COM.CURRENT_REPORT_LTS$
      681    17694    4                  -> REPORT_LTS.CONTROL_FINAL$ -> CONTROL_NAME_LTS.SUM_RESET$;
      682    17695    4              O1COM.CURRENT_REPORT_LTS$ -> REPORT_LTS.CONTROL_FINAL$ ->
      683    17696    4                  CONTROL_NAME_LTS.SUM_RESET$ = LX_ETT$;
      684    17697
      685    17698    4            END;
      686    17699    3        END;
      687    17700    2      ELSE
      688    17701    3        DO;
      689    17702    3          CALL CONTROL_NAME_CHECK (SUM_CLAUSE$ -> DEFERED_SUM_CLAUSE.SUM_RESET$,
      690    17703    3                                   CTR_LTS$)
      691    17704    3            WHENALTRETURN
      692    17705    4              DO;
      693    17706    4                GOTO LAST_STEP;
      694    17707    4              END;
      695    17708
      696    17709    3          CALL SET_SUM_ZERO (VAR_LTS$,
      697    17710    3                             LX_ETT$);
      698    17711
      699    17712    3          LX_ETT$ -> LX_ETT_ITEM.LINK = CTR_LTS$ ->
      700    17713    3                                          CONTROL_NAME_LTS.SUM_RESET$;
      701    17714    3          CTR_LTS$ -> CONTROL_NAME_LTS.SUM_RESET$ = LX_ETT$;
      702    17715    3        END;
      703    17716
      704    17717    2      LAST_STEP:
      705    17718    2        CALL Z8ED$DISPOSE_ABSSYN_TREE(SUM_CLAUSE$ -> DEFERED_SUM_CLAUSE.SUM_RESET$);
      706    17719
      707    17720    2    END PROCESS_RESET;
      708    17721         %EJECT;
PL6.E3A0      #003=Z8ET$DEFERED_SUM_AND_SOURCE File=Z8ET.:Z8A6TSI                SAT 08/09/97 12:45 Page:79
      709    17722
      710    17723         /*============*/
      711    17724    1      SET_SUM_ZERO: PROC (VAR_LTS$, LX_ETT$);
      712    17725         /*============*/
      713    17726
      714    17727        /*I*
      715    17728             NAME:  SET_SUM_ZERO
      716    17729
      717    17730          DESCRIPTION: This routine creates a LX_ETT_ITEM of the sum counter
      718    17731                       and set the bit SUM_LTS.B.RESETED on.
      719    17732        */
      720    17733
      721    17734
      722    17735    2      DCL VAR_LTS$        PTR;
      723    17736    2      DCL LX_ETT$         PTR;
      724    17737
      725    17738
      726    17739
      727    17740           %NEW_HEAP (@POINTER = LX_ETT$);
      728    17745
      729    17746
      730    17747           %INIT_LX_ETT_ITEM (@POINTER = LX_ETT$,
      731    17748                              @TYPE    = %TYD,
      732    17749                              @ETT$    =
             17749                                 VAR_LTS$ -> REPORT_ELEM_LTS.SUM_LTS$ -> SUM_LTS.SUM_ST_ILL$
             17749                                  ,
      733    17750                              @LINE    = VAR_LTS$ -> REPORT_ELEM_LTS.ST$ -> ST.LINE_NO,
      734    17751                              @COLUMN  = 0);
      735    17773
      736    17774    2      VAR_LTS$ -> REPORT_ELEM_LTS.SUM_LTS$ -> SUM_LTS.B.RESETED = TRUE;
      737    17775
      738    17776
      739    17777    2    END SET_SUM_ZERO;
      740    17778         %EJECT;
PL6.E3A0      #003=Z8ET$DEFERED_SUM_AND_SOURCE File=Z8ET.:Z8A6TSI                SAT 08/09/97 12:45 Page:80
      741    17779
      742    17780         /*==================*/
      743    17781    1      CONTROL_NAME_CHECK:  PROC (QUAL_ID$, CTR_LTS$) ALTRET;
      744    17782         /*==================*/
      745    17783
      746    17784        /*I*
      747    17785
      748    17786             NAME:  CONTROL_NAME_CHECK
      749    17787
      750    17788          DESCRIPTION: This routine validate the control name against the
      751    17789                       CONTROL clause  in RD entry and returns the LTS item
      752    17790                       for that control name.
      753    17791        */
      754    17792
      755    17793
      756    17794    2     DCL ST$$              PTR;
      757    17795    2     DCL LTS$$             PTR;
      758    17796    2     DCL QUAL_ID$           PTR;
      759    17797    2     DCL LEN               UBIN HALF UNAL;
      760    17798    2     DCL CTR$              PTR;
      761    17799    2     DCL RSV_WRD#          SBIN WORD;
      762    17800    2     DCL CTR_LTS$          PTR;
      763    17801
      764    17802
      765    17803
      766    17804    2      CALL Z8CO$QUALIFY_VARIABLE (QUAL_ID$, ST$$)
      767    17805    2        WHENALTRETURN
      768    17806    3          DO;
      769    17807    3            IF ST$$ -> SCALAR.B.COMPILER_CREATED THEN
      770    17808    4              DO;
      771    17809    4                ST$$ -> SCALAR.DNT$ -> DNT.ST$ =
      772    17810    4                        ST$$ -> SCALAR.DNT$ -> DNT.ST$ -> ST.NEXT;
      773    17811    4              END;
      774    17812    3            ALTRETURN;
      775    17813    3          END;
      776    17814
      777    17815    2      LTS$$ = O1COM.CURRENT_REPORT_LTS$;
PL6.E3A0      #003=Z8ET$DEFERED_SUM_AND_SOURCE File=Z8ET.:Z8A6TSI                SAT 08/09/97 12:45 Page:81
      778    17816
      779    17817    2      IF LTS$$ -> REPORT_LTS.CONTROL$ = ADDR(NIL) THEN
      780    17818    3        DO;
      781    17819    3          CALL Z8AE$ERROR (%E$NAME_NOT_IN_CONTROL_CLAUSE,
      782    17820    3                           QUAL_ID$ -> LX_LIST.HEAD$ -> LX_ITEM.LINE,
      783    17821    3                           QUAL_ID$ -> LX_LIST.HEAD$ -> LX_ITEM.COLUMN);
      784    17822    3          ALTRETURN;
      785    17823    3        END;
      786    17824
      787    17825    2      IF ST$$ -> SCALAR.B.REPORT_ITEM  THEN
      788    17826    3        DO;
      789    17827    3          CALL Z8AE$ERROR (%E$DCL_IN_REPORT,
      790    17828    3                           QUAL_ID$ -> LX_LIST.HEAD$ -> LX_ITEM.LINE,
      791    17829    3                           QUAL_ID$ -> LX_LIST.HEAD$ -> LX_ITEM.COLUMN);
      792    17830    3          ALTRETURN;
      793    17831    3        END;
      794    17832
      795    17833    2      CTR$ = LTS$$ -> REPORT_LTS.CONTROL$;
      796    17834    2      LEN = CTR$ -> LTS_PTR_ARRAY.N - 3;
      797    17835
      798    17836    3      DO I = 1 TO LEN;
      799    17837    3        IF ST$$ = CTR$ -> LTS_PTR_ARRAY.P$(I) -> CONTROL_NAME_LTS.ST$ THEN
      800    17838    3          GOTO NEXT_STEP;
      801    17839    3      END;
      802    17840    2      CALL Z8AE$ERROR (%E$NAME_NOT_IN_CONTROL_CLAUSE,
      803    17841    2                       QUAL_ID$ -> LX_LIST.HEAD$ -> LX_ITEM.LINE,
      804    17842    2                       QUAL_ID$ -> LX_LIST.HEAD$ -> LX_ITEM.COLUMN);
      805    17843    2      ALTRETURN;
      806    17844
      807    17845    2    NEXT_STEP:
      808    17846    2      CTR_LTS$ = CTR$ -> LTS_PTR_ARRAY.P$(I);
      809    17847
      810    17848    2    END CONTROL_NAME_CHECK;
      811    17849         %EJECT;
PL6.E3A0      #003=Z8ET$DEFERED_SUM_AND_SOURCE File=Z8ET.:Z8A6TSI                SAT 08/09/97 12:45 Page:82
      812    17850
      813    17851         /*================*/
      814    17852    1      BUILD_SUM_W_UPON: PROC (SUM_CLAUSE$, VAR_LTS$);
      815    17853         /*================*/
      816    17854
      817    17855        /*I*
      818    17856
      819    17857             NAME:  BUILD_SUM_W_UPON
      820    17858
      821    17859          DESCRIPTION: This routine validates the UPON phrase and checks
      822    17860                       items in the SUM clause and then an abstract syntax
      823    17861                       tree for a "plus" operation is built that will add
      824    17862                       the items in the SUM clause to the sum counter on
      825    17863                       the run time, in the later time this tree will be
      826    17864                       used to generate the special subtotalling subroutine.
      827    17865        */
      828    17866
      829    17867
      830    17868    2   DCL SUM_CLAUSE$         PTR;
      831    17869    2   DCL VAR_LTS$            PTR;
      832    17870    2   DCL UPON_LTS$          PTR;
      833    17871    2   DCL LX_ETT$            PTR;
      834    17872    2   DCL ST$$               PTR;
      835    17873    2   DCL UPON$$             PTR;
      836    17874    2   DCL HEAP$$             PTR;
      837    17875    2   DCL OP$                PTR;
      838    17876    2   DCL TREE$              PTR;
      839    17877    2   DCL SUM_LX_ETT$        PTR;
      840    17878    2   DCL LINE_NO#           SBIN WORD;
      841    17879
      842    17880
      843    17881    2          LINE_NO# = VAR_LTS$ -> REPORT_ELEM_LTS.ST$ -> ST.LINE_NO;
      844    17882    2          LX_ETT$ = SUM_CLAUSE$ -> DEFERED_SUM_CLAUSE.DEFERED_ID$ -> LX_LIST.HEAD$;
      845    17883
      846    17884    3      DO WHILE (LX_ETT$ ~= ADDR(NIL));
      847    17885
      848    17886    4        DO CASE (LX_ETT$ -> LX_ETT_ITEM.TYPE);
PL6.E3A0      #003=Z8ET$DEFERED_SUM_AND_SOURCE File=Z8ET.:Z8A6TSI                SAT 08/09/97 12:45 Page:83
      849    17887
      850    17888    4          CASE (
      851    17889                     %SET_OF_NUMERIC_TYPES;
      852    17892    4               );
      853    17893
      854    17894                   %FISH (TRIAD = LX_ETT$ -> LX_ETT_ITEM.ETT$,
      855    17895                          RTN   = ST$$);
      856    17903
      857    17904    4              IF ST$$ -> SCALAR.B.REPORT_ITEM THEN
      858    17905
      859    17906    4                CALL Z8AE$ERROR (%E$REP_ITEM_W_UPON,
      860    17907    4                                 LX_ETT$ -> LX_ITEM.LINE,
      861    17908    4                                 LX_ETT$ -> LX_ITEM.COLUMN);
      862    17909
      863    17910    4          CASE (ELSE);
      864    17911
      865    17912    4              CALL Z8AE$ERROR (%E$NUMERIC_TYPE_EXPECTED,
      866    17913    4                               LX_ETT$ -> LX_ITEM.LINE,
      867    17914    4                               LX_ETT$ -> LX_ITEM.COLUMN);
      868    17915
      869    17916    4              LX_ETT$ -> LX_ETT_ITEM.ETT$ = COMCOM.VALUE_0;
      870    17917    4              LX_ETT$ -> LX_ETT_ITEM.TYPE = %TYI;
      871    17918
      872    17919    4        END; /* DO CASE */
      873    17920
      874    17921    3        LX_ETT$ = LX_ETT$ -> LX_ITEM.LINK;
      875    17922
      876    17923    3      END; /* WHILE */
      877    17924
      878    17925    2      UPON$$ = SUM_CLAUSE$ -> DEFERED_SUM_CLAUSE.SUM_UPON$ -> LX_LIST.HEAD$;
      879    17926
      880    17927    3      DO WHILE (UPON$$ ~= ADDR(NIL));
      881    17928
      882    17929    3        CALL Z8CO$QUALIFY_VARIABLE (UPON$$, ST$$);
      883    17930
      884    17931    3        IF ST$$ -> ST.ID ~= %SCALAR OR
      885    17932    3           NOT ST$$ -> SCALAR.B.REPORT_ITEM THEN
PL6.E3A0      #003=Z8ET$DEFERED_SUM_AND_SOURCE File=Z8ET.:Z8A6TSI                SAT 08/09/97 12:45 Page:84
      886    17933    3          UPON_LTS$ = ADDR(NIL);
      887    17934    3        ELSE
      888    17935    3          IF ST$$ -> SCALAR.LTS$ = ADDR(NIL) THEN
      889    17936    3            UPON_LTS$ = ADDR(NIL);
      890    17937    3          ELSE
      891    17938                 %GET_LTS (@ID    = %REPORT_01_LTS,
      892    17939                           @ST$   = ST$$,
      893    17940                           @RETURN$ = UPON_LTS$);
      894    17983
      895    17984    3        IF UPON_LTS$ = ADDR(NIL)  OR
      896    17985    3          UPON_LTS$ -> LTS.ID ~= %REPORT_01_LTS  OR
      897    17986    3          UPON_LTS$ -> REPORT_01_LTS.GROUP_TYPE ~= %TYPE_DETAIL  OR
      898    17987    3          UPON_LTS$ -> REPORT_01_LTS.REPORT_LTS$ ~= O1COM.CURRENT_REPORT_LTS$ THEN
      899    17988    4          DO;
      900    17989
      901    17990    4            CALL Z8AE$ERROR (%E$MUST_BE_DETAIL_GROUP,
      902    17991    4                             UPON$$ -> LX_LIST.HEAD$ -> LX_ITEM.LINE,
      903    17992    4                             UPON$$ -> LX_LIST.HEAD$ -> LX_ITEM.COLUMN);
      904    17993    4          END;
      905    17994    3        ELSE
      906    17995    4          DO;
      907    17996    4            IF UPON$$ -> LX_LIST.LINK = ADDR(NIL) THEN
      908    17997    5              DO;
      909    17998    5                TREE$ = SUM_CLAUSE$ -> DEFERED_SUM_CLAUSE.DEFERED_ID$ -> LX_LIST.HEAD$;
      910    17999
      911    18000                     %INIT_LX_LIST (@POINTER = SUM_CLAUSE$ -> DEFERED_SUM_CLAUSE.DEFERED_ID$
             18000                         );
      912    18010
      913    18011    5              END;
      914    18012    4            ELSE
      915    18013    5              DO;
      916    18014    5                TREE$ = ADDR(NIL);
      917    18015
      918    18016    5                LX_ETT$ = SUM_CLAUSE$ -> DEFERED_SUM_CLAUSE.DEFERED_ID$ -> LX_LIST.
             18016                         HEAD$;
      919    18017
      920    18018    6                DO WHILE (LX_ETT$ ~= ADDR(NIL));
PL6.E3A0      #003=Z8ET$DEFERED_SUM_AND_SOURCE File=Z8ET.:Z8A6TSI                SAT 08/09/97 12:45 Page:85
      921    18019
      922    18020                       %NEW_HEAP (@POINTER = HEAP$$);
      923    18025
      924    18026    6                  HEAP$$ -> LX_ETT_ITEM = LX_ETT$ -> LX_ETT_ITEM;
      925    18027    6                  HEAP$$ -> LX_ETT_ITEM.LINK = TREE$;
      926    18028    6                  TREE$ = HEAP$$;
      927    18029    6                END; /* WHILE */
      928    18030    5              END;  /* DO */
      929    18031
      930    18032    4              HEAP$ = TREE$ -> LX_ETT_ITEM.LINK;
      931    18033    4              TREE$ -> LX_ETT_ITEM.LINK = ADDR(NIL);
      932    18034
      933    18035    5              DO WHILE (HEAP$ ~= ADDR(NIL));
      934    18036
      935    18037                     %NEW (@TEMPLATE = BINARY_OP,
      936    18038                           @POINTER  = OP$);
      937    18048
      938    18049                     %INIT_BINARY_OP (@POINTER = OP$,
      939    18050                                      @BERR    = "HEAP$ -> LX_ITEM.B.ERROR",
      940    18051                                      @LINE    = "HEAP$ -> LX_ITEM.LINE",
      941    18052                                      @COLUMN  = "HEAP$ -> LX_ITEM.COLUMN",
      942    18053                                      @ROP$    = HEAP$,
      943    18054                                      @LOP$    = TREE$,
      944    18055                                      @OP      = %OP_PLUS);
      945    18073
      946    18074    5                TREE$ = HEAP$;
      947    18075    5                HEAP$ = TREE$ -> LX_ITEM.LINK;
      948    18076    5                TREE$ -> LX_ITEM.LINK = ADDR(NIL);
      949    18077    5                TREE$ = OP$;
      950    18078
      951    18079    5              END; /* WHILE */
      952    18080
      953    18081                   %NEW_HEAP (@POINTER = SUM_LX_ETT$);
      954    18086
      955    18087                   %INIT_LX_ETT_ITEM (@POINTER = SUM_LX_ETT$,
      956    18088                                      @TYPE    = %TYD,
      957    18089                      @ETT$ = VAR_LTS$ -> REPORT_ELEM_LTS.SUM_LTS$ -> SUM_LTS.SUM_ST_ILL$,
PL6.E3A0      #003=Z8ET$DEFERED_SUM_AND_SOURCE File=Z8ET.:Z8A6TSI                SAT 08/09/97 12:45 Page:86
      958    18090                                      @LINE    = LINE_NO#,
      959    18091                                      @COLUMN  = 0);
      960    18113
      961    18114                     %NEW (@TEMPLATE = BINARY_OP,
      962    18115                           @POINTER  = OP$);
      963    18125
      964    18126                     %INIT_BINARY_OP (@POINTER = OP$,
      965    18127                                      @LINE    = LINE_NO#,
      966    18128                                      @COLUMN  = 0,
      967    18129                                      @ROP$    = TREE$,
      968    18130                                      @LOP$    = SUM_LX_ETT$,
      969    18131                                      @OP      = %OP_PLUS);
      970    18149
      971    18150    4              OP$ -> BINARY_OP.LINK = UPON_LTS$ -> REPORT_01_LTS.SPECIAL_SUBTOTAL$;
      972    18151    4              UPON_LTS$ -> REPORT_01_LTS.SPECIAL_SUBTOTAL$ = OP$;
      973    18152
      974    18153    4            END; /* DO */
      975    18154
      976    18155    3          UPON$$ = UPON$$ -> LX_LIST.LINK;
      977    18156
      978    18157    3        END;
      979    18158
      980    18159
      981    18160
      982    18161
      983    18162    2    RETURN;
      984    18163    2    END BUILD_SUM_W_UPON;
      985    18164         %EJECT;
PL6.E3A0      #003=Z8ET$DEFERED_SUM_AND_SOURCE File=Z8ET.:Z8A6TSI                SAT 08/09/97 12:45 Page:87
      986    18165
      987    18166         /*================*/
      988    18167    1      BUILD_SUM_N_UPON: PROC (SUM_CLAUSE$, VAR_LTS$);
      989    18168         /*================*/
      990    18169
      991    18170        /*I*
      992    18171
      993    18172             NAME:  BUILD_SUM_N_UPON
      994    18173
      995    18174          DESCRIPTION: This routine validate the items in the SUM clause
      996    18175                       then an abstract syntax tree for a "plus" operation
      997    18176                       is built, in the later tim this tree will be used
      998    18177                       to generate the cross footing/rolling forward
      999    18178                       subroutine or the general subtotalling subroutine.
     1000    18179        */
     1001    18180
     1002    18181
     1003    18182    2   DCL SUM_CLAUSE$         PTR;
     1004    18183    2   DCL VAR_LTS$            PTR;
     1005    18184    2   DCL CTR_LTS$           PTR;
     1006    18185    2   DCL LX_ETT$            PTR;
     1007    18186    2   DCL ST$$               PTR;
     1008    18187    2   DCL SUM_BIT_ON         BIT (1) ALIGNED;
     1009    18188    2   DCL ELEM_LTS$          PTR;
     1010    18189    2   DCL OP$                PTR;
     1011    18190    2   DCL ITEM$              PTR;
     1012    18191    2   DCL SUM_LX_ETT$        PTR;
     1013    18192    2   DCL LINE_NO#           SBIN WORD;
     1014    18193
     1015    18194
     1016    18195    2          LINE_NO# = VAR_LTS$ -> REPORT_ELEM_LTS.ST$ -> ST.LINE_NO;
     1017    18196    2          LX_ETT$ = SUM_CLAUSE$ -> DEFERED_SUM_CLAUSE.DEFERED_ID$ -> LX_LIST.HEAD$;
     1018    18197
     1019    18198    3      DO WHILE (LX_ETT$ ~= ADDR(NIL));
     1020    18199
     1021    18200    4        DO CASE (LX_ETT$ -> LX_ETT_ITEM.TYPE);
     1022    18201
PL6.E3A0      #003=Z8ET$DEFERED_SUM_AND_SOURCE File=Z8ET.:Z8A6TSI                SAT 08/09/97 12:45 Page:88
     1023    18202    4          CASE (
     1024    18203                     %SET_OF_NUMERIC_TYPES;
     1025    18206    4               );
     1026    18207
     1027    18208                   %FISH (TRIAD = LX_ETT$ -> LX_ETT_ITEM.ETT$,
     1028    18209                          RTN   = ST$$);
     1029    18217
     1030    18218    4              CALL  REP_ITEM_CHECK (LX_ETT$,
     1031    18219    4                                    SUM_BIT_ON,
     1032    18220    4                                    ELEM_LTS$,
     1033    18221    4                                    %E$SUM_IN_SAME_REPORT);
     1034    18222
     1035    18223    4              IF SUM_BIT_ON THEN
     1036    18224    5                DO;
     1037    18225    5                  CTR_LTS$ = ELEM_LTS$ -> REPORT_ELEM_LTS.SUM_LTS$ ->
     1038    18226    5                             SUM_LTS.REPORT_01_LTS$ -> REPORT_01_LTS.CONTROL_LTS$;
     1039    18227    5                  IF CTR_LTS$ -> CONTROL_NAME_LTS.LEVEL <
     1040    18228    5                     VAR_LTS$ -> REPORT_ELEM_LTS.SUM_LTS$ -> SUM_LTS.REPORT_01_LTS$ ->
     1041    18229    5                     REPORT_01_LTS.CONTROL_LTS$ -> CONTROL_NAME_LTS.LEVEL THEN
     1042    18230    6                    DO;
     1043    18231    6                      CALL Z8AE$ERROR (%E$EQU_OR_LOWER_LVL_SUM,
     1044    18232    6                                       LX_ETT$ -> LX_ITEM.LINE,
     1045    18233    6                                       LX_ETT$ -> LX_ITEM.COLUMN);
     1046    18234
     1047    18235    6                    END;
     1048    18236    5                END;
     1049    18237
     1050    18238    4          CASE (ELSE);
     1051    18239
     1052    18240    4              CALL Z8AE$ERROR (%E$NUMERIC_TYPE_EXPECTED,
     1053    18241    4                               LX_ETT$ -> LX_ITEM.LINE,
     1054    18242    4                               LX_ETT$ -> LX_ITEM.COLUMN);
     1055    18243
     1056    18244    4              LX_ETT$ -> LX_ETT_ITEM.ETT$ = COMCOM.VALUE_0;
     1057    18245    4              LX_ETT$ -> LX_ETT_ITEM.TYPE = %TYI;
     1058    18246    4              SUM_BIT_ON = FALSE;
     1059    18247
PL6.E3A0      #003=Z8ET$DEFERED_SUM_AND_SOURCE File=Z8ET.:Z8A6TSI                SAT 08/09/97 12:45 Page:89
     1060    18248    4        END; /* DO CASE */
     1061    18249
     1062    18250    3        ITEM$ = LX_ETT$;
     1063    18251    3        LX_ETT$ = ITEM$ -> LX_ITEM.LINK;
     1064    18252    3        ITEM$ -> LX_ITEM.LINK = ADDR(NIL);
     1065    18253
     1066    18254                   %NEW_HEAP (@POINTER = SUM_LX_ETT$);
     1067    18259
     1068    18260                   %INIT_LX_ETT_ITEM (@POINTER = SUM_LX_ETT$,
     1069    18261                                      @TYPE    = %TYD,
     1070    18262                      @ETT$ = VAR_LTS$ -> REPORT_ELEM_LTS.SUM_LTS$ -> SUM_LTS.SUM_ST_ILL$,
     1071    18263                                      @LINE    = LINE_NO#,
     1072    18264                                      @COLUMN  = 0);
     1073    18286
     1074    18287                     %NEW (@TEMPLATE = BINARY_OP,
     1075    18288                           @POINTER  = OP$);
     1076    18298
     1077    18299                     %INIT_BINARY_OP (@POINTER = OP$,
     1078    18300                                      @LINE    = LINE_NO#,
     1079    18301                                      @COLUMN  = 0,
     1080    18302                                      @ROP$    = ITEM$,
     1081    18303                                      @LOP$    = SUM_LX_ETT$,
     1082    18304                                      @OP      = %OP_PLUS);
     1083    18322
     1084    18323    3              IF SUM_BIT_ON THEN
     1085    18324    4                DO;
     1086    18325    4                  OP$ -> BINARY_OP.LINK = CTR_LTS$ -> CONTROL_NAME_LTS.SUM_SUBTOTAL$;
     1087    18326    4                  CTR_LTS$ -> CONTROL_NAME_LTS.SUM_SUBTOTAL$ = OP$;
     1088    18327
     1089    18328    4                END;
     1090    18329    3              ELSE
     1091    18330    4                DO;
     1092    18331    4                  OP$ -> BINARY_OP.LINK = O1COM.CURRENT_REPORT_LTS$ ->
     1093    18332    4                                          REPORT_LTS.GENERAL_SUBTOTAL$;
     1094    18333    4                  O1COM.CURRENT_REPORT_LTS$ -> REPORT_LTS.GENERAL_SUBTOTAL$ = OP$;
     1095    18334    4                END;
     1096    18335    3            END; /* WHILE */
PL6.E3A0      #003=Z8ET$DEFERED_SUM_AND_SOURCE File=Z8ET.:Z8A6TSI                SAT 08/09/97 12:45 Page:90
     1097    18336
     1098    18337               %INIT_LX_LIST (@POINTER = SUM_CLAUSE$ -> DEFERED_SUM_CLAUSE.DEFERED_ID$);
     1099    18347
     1100    18348    2    END BUILD_SUM_N_UPON;
     1101    18349         %EJECT;
PL6.E3A0      #003=Z8ET$DEFERED_SUM_AND_SOURCE File=Z8ET.:Z8A6TSI                SAT 08/09/97 12:45 Page:91
     1102    18350
     1103    18351         /*=============*/
     1104    18352    1      GENERATE_SUBS: PROC;
     1105    18353         /*=============*/
     1106    18354
     1107    18355        /*I*
     1108    18356
     1109    18357             NAME:  GENERATE_SUBS
     1110    18358
     1111    18359          DESCRIPTION: This routine steps through the COMCOM.FILE_LTS_CHAIN$
     1112    18360                       and generates all the run time subroutines for every
     1113    18361                       report on the top of the procedure division. Reason
     1114    18362                       to do that is to solve the problem of phase 1 heap
     1115    18363                       not returned, or else the run time subroutines will be
     1116    18364                       generated on processing the INITIATE statement.
     1117    18365        */
     1118    18366
     1119    18367    2   DCL FILE_LTS$          PTR;
     1120    18368    2   DCL REP_LTS$           PTR;
     1121    18369    2   DCL LABEL$             PTR;
     1122    18370
     1123    18371
     1124    18372
     1125    18373    2          CALL Z8AT$CREATE_TEMPORARY (%PARA, LABEL$);
     1126    18374
     1127    18375    2          CALL Z8EK$BRANCH (LABEL$);
     1128    18376
     1129    18377    2          FILE_LTS$ = COMCOM.FILE_LTS_CHAIN$;
     1130    18378
     1131    18379    3          DO WHILE(FILE_LTS$ ~= ADDR(NIL));
     1132    18380
     1133    18381    3            IF FILE_LTS$ -> FILE_LTS.REPORT$ ~= ADDR(NIL) THEN
     1134    18382    4              DO;
     1135    18383    4                REP_LTS$ = FILE_LTS$ -> FILE_LTS.REPORT$;
     1136    18384
     1137    18385    5                DO WHILE (REP_LTS$ ~= ADDR(NIL));
     1138    18386
PL6.E3A0      #003=Z8ET$DEFERED_SUM_AND_SOURCE File=Z8ET.:Z8A6TSI                SAT 08/09/97 12:45 Page:92
     1139    18387    5                  IF REP_LTS$ -> REPORT_LTS.PAGE_COUNTER$ ~= ADDR(NIL) AND
     1140    18388    5                     NOT REP_LTS$ -> REPORT_LTS.B.REFERENCED THEN
     1141    18389    6                    DO;
     1142    18390    6                      REP_LTS$ -> REPORT_LTS.B.REFERENCED = TRUE;
     1143    18391
     1144    18392    6                      CALL Z8ET$CREATE_SUBROUTINES (REP_LTS$);
     1145    18393    6                    END;
     1146    18394
     1147    18395    5                    REP_LTS$ = REP_LTS$ -> REPORT_LTS.LINK;
     1148    18396
     1149    18397    5                END; /* WHILE */
     1150    18398    4            END;  /* IF */
     1151    18399
     1152    18400    3            FILE_LTS$ = FILE_LTS$ -> FILE_LTS.FILE_LTS_CHAIN$;
     1153    18401    3          END; /* WHILE */
     1154    18402
     1155    18403               %NEW_ILL (@ID     = %DEFLB,
     1156    18404                         @LABEL$ = LABEL$);
     1157    18783
     1158    18784    2    END GENERATE_SUBS;
     1159    18785         %EJECT;
PL6.E3A0      #003=Z8ET$DEFERED_SUM_AND_SOURCE File=Z8ET.:Z8A6TSI                SAT 08/09/97 12:45 Page:93
     1160    18786
     1161    18787         /* main routine */
     1162    18788
     1163    18789    1      CALL CREATE_SOURCE_ETT;
     1164    18790
     1165    18791    1      CALL CREATE_REPORT_SUM;
     1166    18792
     1167    18793    1    END Z8ET$DEFERED_SUM_AND_SOURCE;
     1168    18794         %EOD;

PL6.E3A0      #003=Z8ET$DEFERED_SUM_AND_SOURCE File=Z8ET.:Z8A6TSI                SAT 08/09/97 12:45 Page:94
--  Include file information  --

   Z8E_STATEMNT.:Z8A6TOU  is referenced.
   Z8E_ABSSYN.:Z8A6TOU  cannot be made into a system file and is referenced.
   Z8E_HEAP.:Z8A6TOU  cannot be made into a system file and is referenced.
   Z8D_PIC_PARM.:Z8A6TOU  is referenced.
   Z8E_NEW_ILL.:Z8A6TOU  is referenced.
   Z8E_MACROS.:Z8A6TOU  cannot be made into a system file and is referenced.
   Z8E_O1COM.:Z8A6TOU  cannot be made into a system file and is referenced.
   Z8E_WINDOW.:Z8A6TOU  is referenced.
   Z8A_LEX_SYMB.:Z8A6TOU  cannot be made into a system file and is referenced.
   Z8E_STACKS.:Z8A6TOU  cannot be made into a system file and is referenced.
   Z8A_MKCN.:Z8A6TOU  cannot be made into a system file and is referenced.
   Z8A_ETT.:Z8A6TOU  cannot be made into a system file and is referenced.
   Z8A_ILL.:Z8A6TOU  cannot be made into a system file and is referenced.
   Z8A_ERR_NUMS.:Z8A6TOU  is referenced.
   Z8A_DNT.:Z8A6TOU  cannot be made into a system file and is referenced.
   Z8A_TYPES.:Z8A6TOU  is referenced.
   Z8A_LTS.:Z8A6TOU  cannot be made into a system file and is referenced.
   Z8A_QLT.:Z8A6TOU  cannot be made into a system file and is referenced.
   Z8A_ST.:Z8A6TOU  cannot be made into a system file and is referenced.
   Z8A_COMCOM.:Z8A6TOU  cannot be made into a system file and is referenced.
   X8A_COM_MACS.:X8A6TOU  is referenced.
   Z8A_NAMES.:Z8A6TOU  is referenced.
   Z8A_SUPP_MAC.:Z8A6TOU  is referenced.
   Z8A_DEFC.:Z8A6TOU  cannot be made into a system file and is referenced.
      No diagnostics issued in procedure Z8ET$DEFERED_SUM_AND_SOURCE.

   Procedure Z8ET$DEFERED_SUM_AND_SOURCE requires 1076 words for executable code.
   Procedure Z8ET$DEFERED_SUM_AND_SOURCE requires 40 words of local(AUTO) storage.

PL6.E3A0      #003=Z8ET$DEFERED_SUM_AND_SOURCE File=Z8ET.:Z8A6TSI                SAT 08/09/97 12:45 Page:95

 Object Unit name= Z8ET$DEFERED_SUM_AND_SOURCE                File name= Z8ET.:Z8A6TOU
 UTS= AUG 09 '97 12:45:02.36 SAT                              Compiler= PL-6/E31         Sev=      00
 SharedLib= :SHARED_SYSTEM                                    Alt SharedLib=


    ****  Control sections  ****

 Sect   Type Bound  Init  Size OctSiz  Section name(segment info)
    0  LblCom even  none     1      1  ITERATION
    1  LblCom even  none     1      1  ST$
    2  LblCom even  none     5      5  ST_
    3  LblCom even  none     1      1  QLT$
    4  LblCom even  none     1      1  PREV_01_QLT$
    5  LblCom even  none     5      5  QLT_
    6  LblCom even  none     1      1  LTS$
    7  LblCom even  none     5      5  LTS_
    8  LblCom even  none     1      1  DNT$
    9  LblCom even  none     5      5  DNT_
   10  LblCom even  none     1      1  DNT_BUCKET_NUMBER
   11  LblCom even  none     1      1  DNT_OF_1$
   12  LblCom even  none     1      1  ILL$
   13  LblCom even  none     5      5  ILL_
   14  LblCom even  none     1      1  ETT$
   15  LblCom even  none     1      1  HEAD_ETT$
   16  LblCom even  none   512   1000  ETT_BUCKETS
   17  LblCom even  none     5      5  ETT_
   18  LblCom even  none     2      2  MKCN
   19  LblCom even  none    90    132  LEX_SYMBOL
   20  LblCom even  none     1      1  CURRENT_LEX_SYMBOL$
   21  LblCom even  none    90    132  TEMP_LEX_SYMBOL
   22  LblCom even  none    90    132  TEMP_LEX_SYMBOL2
   23  LblCom even  none     1      1  HEAP$
   24  LblCom even  none     8     10  TEMP_LX_NODE
   25   Proc  even  none  1076   2064  Z8ET$DEFERED_SUM_AND_SOURCE
   26  RoData even  none    36     44  Z8ET$DEFERED_SUM_AND_SOURCE
PL6.E3A0      #003=Z8ET$DEFERED_SUM_AND_SOURCE File=Z8ET.:Z8A6TSI                SAT 08/09/97 12:45 Page:96

    ****  Entry defs  ****

                              Check   Calling
                             calling  sequence
  Sect OctLoc Primary Altret sequence   type   Parms  Name
    25      0   yes            yes      Std        0  Z8ET$DEFERED_SUM_AND_SOURCE

  ****  Entry refs  ****

         Check        Calling
        calling       sequence
Altret sequence SRef   type   Args  Name
         yes           Std       1 Z8ET$PROCESS_TREE
         yes           Std       1 Z8ED$DISPOSE_ABSSYN_TREE
         yes           Std      12 Z8AE$ERROR
         yes           Std       2 Z8ED$NEW_HEAP
 yes     yes           Std       2 Z8CO$QUALIFY_VARIABLE
         yes           Std       2 Z8AT$CREATE_TEMPORARY
         yes           Std       1 Z8EK$BRANCH
         yes           Std       4 Z8AN$NEW_ILL
         yes           Std       1 Z8ET$CREATE_SUBROUTINES
                       nStd      0 X66_AUTO_0
                       nStd      0 X66_ARET

  ****  Data refs  ****

  Flags:  r = read only, s = secondary
Flgs Name                             Flgs Name                             Flgs Name
     COMCOM                           r    LTS_STEP                         r    ILL_STEP
     O1COM                                 HIER_STK_PTR                          HIER_STK
     PAGE_FORMAT                           REP_STK_PTR                           REP_STK
PL6.E3A0      #003=Z8ET$DEFERED_SUM_AND_SOURCE File=Z8ET.:Z8A6TSI                SAT 08/09/97 12:45 Page:97

  ****  Segment refs  ****

  Flags:  r = read only, s = secondary
Flgs Name                             Flgs Name                             Flgs Name
     NULLSID                               ISSID
PL6.E3A0      #003=Z8ET$DEFERED_SUM_AND_SOURCE File=Z8ET.:Z8A6TSI                SAT 08/09/97 12:45 Page:98


      356        1        /*T***********************************************************/
      357        2        /*T*                                                         */
      358        3        /*T* Copyright (c) Bull HN Information Systems Inc., 1997    */
      359        4        /*T*                                                         */
      360        5        /*T***********************************************************/
      361        6
      362        7        /*M*  Z8ET$DEFERED_SUM_AND_SOUCE---for SUM and SOURCE clause*/
      363        8
      364        9
      365       10        /*P*
      366       11               NAME:  Z8ET$DEFERED_SUM_AND_SOURCE
      367       12             AUTHOR:  Min Lee.
      368       13            PURPOSE:  Wrap up the SUM clause and the SOURCE clause in the
      369       14                      REPORT SECTION of the DATA DIVISION.
      370       15        */
      371       16
      372       17        /*D*
      373       18               NAME:  Z8ET$DEFERED_SUM_AND_SOURCE
      374       19               CALL:  CALL Z8ET$DEFERED_SUM_AND_SOURCE
      375       20              INPUT:  O1COM.REPORT_SOURCE$, O1COM.REPORT_SUM$.
      376       21
      377       22
      378       23
      379       24        DESCRIPTION:  1. Call Z8ET$PROCESS_TREE to create the ETT tree of the
      380       25                         identifiers in the SUM and SOURCE clause .
      381       26                      2. Generates all the ETT and LX_ETT items for the Special
      382       27                         Subtotaling Subroutine, General Subtotaling Subroutine,
      383       28                         Cross Footing/Rolling Forward Subroutine, Sum Counter
      384       29                         Resetting Subroutine.
      385       30                      3. Call Z8ET$CREATE_SUBROUTINES to create all the
      386       31                         subroutines that will be excuted by the RWCS.
      387       32         */
      388       33         %EJECT;
PL6.E3A0      #003=Z8ET$DEFERED_SUM_AND_SOURCE File=Z8ET.:Z8A6TSI                SAT 08/09/97 12:45 Page:99
      389       34
      390       35         Z8ET$DEFERED_SUM_AND_SOURCE: PROC;

     35 25 000000   000000 700200 xent  Z8ET$DEFERE* TSX0  ! X66_AUTO_0
        25 000001   000050 000000                    ZERO    40,0
        25 000002   002057 710000 25                 TRA     s:18789

      391       36
      392       37
      393       38
      394       39        %EQU PHASE = 1;
      395       40        %INCLUDE Z8A_DEFC;
      396      108        %INCLUDE Z8A_SUPP_MAC;
      397     2508        %INCLUDE Z8A_COMCOM;
      398     3158        %INCLUDE Z8A_ST;
      399     6817        %INCLUDE Z8A_QLT;
      400     6923        %INCLUDE Z8A_LTS;
      401     9000        %INCLUDE Z8A_TYPES;
      402     9174        %INCLUDE Z8A_DNT;
      403     9395        %INCLUDE Z8A_ERR_NUMS;
      404    10159        %INCLUDE Z8A_ILL;
      405    10852        %INCLUDE Z8A_ETT;
      406    11153        %INCLUDE Z8A_MKCN;
      407    11170
      408    11171        %INCLUDE Z8E_STACKS;
      409    13437        %INCLUDE Z8E_WINDOW;
      410    15507        %INCLUDE Z8E_O1COM;
      411    16268        %INCLUDE Z8E_MACROS;
      412    16943        %INCLUDE Z8D_PIC_PARM;
      413    17049        %INCLUDE Z8E_HEAP;
      414    17105        %INCLUDE Z8E_ABSSYN;
      415    17311        %INCLUDE Z8E_STATEMNT;
      416    17380
      417    17381    1   DCL Z8AE$ERROR     ENTRY (12);
      418    17382    1   DCL Z8CO$QUALIFY_VARIABLE ENTRY (2) ALTRET;
      419    17383    1   DCL Z8ET$PROCESS_TREE    ENTRY (1);
      420    17384    1   DCL Z8ED$DISPOSE_ABSSYN_TREE  ENTRY (1);
PL6.E3A0      #003=Z8ET$DEFERED_SUM_AND_SOURCE File=Z8ET.:Z8A6TSI                SAT 08/09/97 12:45 Page:100
      421    17385    1   DCL Z8AT$CREATE_TEMPORARY  ENTRY (2);
      422    17386    1   DCL Z8EK$BRANCH    ENTRY (1);
      423    17387    1   DCL Z8ET$CREATE_SUBROUTINES  ENTRY(1);
      424    17388    1   DCL ASSOC_01_LTS$     PTR;
      425    17389    1   DCL I              SBIN WORD;
      426    17390
      427    17391
      428    17392
      429    17393
      430    17394        %EJECT;
PL6.E3A0      #003=Z8ET$DEFERED_SUM_AND_SOURCE File=Z8ET.:Z8A6TSI                SAT 08/09/97 12:45 Page:101
      431    17395
      432    17396         /*=================*/
      433    17397    1      CREATE_SOURCE_ETT:  PROC;

  17397 25 000003   200006 741300       CREATE_SOUR* STX1  ! I+2,,AUTO

      434    17398         /*=================*/
      435    17399
      436    17400        /*I*
      437    17401
      438    17402             NAME:  CREATE_SOURCE_ETT
      439    17403
      440    17404          PURPOSE: Process the SOURCE clauses.
      441    17405
      442    17406             CALL: CALL CREATE_SOURCE_ETT.
      443    17407
      444    17408            INPUT: O1COM.REPORT_SOURCE$--Point to a list of DEFERED_IDENTIFIER
      445    17409                   items that contain the SOURCE clauses' informations.
      446    17410          DESCRIPTION: This routine steps through the O1COM.REPORT_SOURCE$
      447    17411                       chain to get the identifier in each SOURCE clause and
      448    17412                       calls Z8ET$PROCESS_TREE to create the ETT tree for it.
      449    17413                       Also to flag it as an error if it is a report item but
      450    17414                       not a sum counter or is a sum counter nit in same report.
      451    17415
      452    17416        */
      453    17417
      454    17418
      455    17419    2      DCL LTS$$           PTR;
      456    17420    2      DCL NEXT$           PTR;
      457    17421    2       DCL SUM_BIT        BIT (1) ALIGNED;
      458    17422    2       DCL ELEM_LTS$      PTR;
      459    17423
      460    17424    2      NEXT$ = O1COM.REPORT_SOURCE$;

  17424 25 000004   000066 236000 xsym               LDQ     O1COM+54
        25 000005   200010 756100                    STQ     NEXT$,,AUTO

PL6.E3A0      #003=Z8ET$DEFERED_SUM_AND_SOURCE File=Z8ET.:Z8A6TSI                SAT 08/09/97 12:45 Page:102
      461    17425
      462    17426    3      DO WHILE (NEXT$ ~= ADDR(NIL));

  17426 25 000006   000052 710000 25                 TRA     s:17442

      463    17427
      464    17428    3        LTS$$ = NEXT$ -> DEFERED_IDENTIFIER.ASSOC_VAR_LTS$;

  17428 25 000007   200010 470500                    LDP0    NEXT$,,AUTO
        25 000010   000002 236100                    LDQ     2,,PR0
        25 000011   200007 756100                    STQ     LTS$$,,AUTO

      465    17429    3        O1COM.CURRENT_REPORT_LTS$ = NEXT$ -> DEFERED_IDENTIFIER.ASSOC_REPORT_LTS$;

  17429 25 000012   000003 236100                    LDQ     3,,PR0
        25 000013   000064 756000 xsym               STQ     O1COM+52

      466    17430
      467    17431    3        CALL Z8ET$PROCESS_TREE (NEXT$ -> DEFERED_IDENTIFIER.DEFERED_ID$);

  17431 25 000014   200010 236100                    LDQ     NEXT$,,AUTO
        25 000015   000001 036003                    ADLQ    1,DU
        25 000016   200042 756100                    STQ     ST$$+1,,AUTO
        25 000017   200042 630500                    EPPR0   ST$$+1,,AUTO
        25 000020   000000 631400 26                 EPPR1   0
        25 000021   000000 701000 xent               TSX1    Z8ET$PROCESS_TREE
        25 000022   000000 011000                    NOP     0

      468    17432
      469    17433    3        LTS$$ -> REPORT_ELEM_LTS.SOURCE_ETT$ =

  17433 25 000023   200010 470500                    LDP0    NEXT$,,AUTO
        25 000024   000001 471500                    LDP1    1,,PR0
        25 000025   100001 236100                    LDQ     1,,PR1
        25 000026   200007 473500                    LDP3    LTS$$,,AUTO
        25 000027   300011 756100                    STQ     9,,PR3

PL6.E3A0      #003=Z8ET$DEFERED_SUM_AND_SOURCE File=Z8ET.:Z8A6TSI                SAT 08/09/97 12:45 Page:103
      470    17434    3                 NEXT$ -> DEFERED_IDENTIFIER.DEFERED_ID$ -> LX_ETT_ITEM.ETT$;
      471    17435
      472    17436    3        IF NOT NEXT$ -> DEFERED_IDENTIFIER.DEFERED_ID$ -> LX_ETT_ITEM.B.ERROR THEN

  17436 25 000030   000001 471500                    LDP1    1,,PR0
        25 000031   100000 236100                    LDQ     0,,PR1
        25 000032   400000 316007                    CANQ    -131072,DL
        25 000033   000047 601000 25                 TNZ     s:17441

      473    17437    3          CALL REP_ITEM_CHECK (NEXT$ -> DEFERED_IDENTIFIER.DEFERED_ID$,

  17437 25 000034   000002 236000 26                 LDQ     2
        25 000035   200040 756100                    STQ     @ELEM_LTS$+1,,AUTO
        25 000036   200012 631500                    EPPR1   ELEM_LTS$,,AUTO
        25 000037   200037 451500                    STP1    @SUM_BIT+1,,AUTO
        25 000040   200011 634500                    EPPR4   SUM_BIT,,AUTO
        25 000041   200036 454500                    STP4    RSV_WRD#+1,,AUTO
        25 000042   200010 236100                    LDQ     NEXT$,,AUTO
        25 000043   000001 036003                    ADLQ    1,DU
        25 000044   200035 756100                    STQ     CTR$+1,,AUTO
        25 000045   000062 701000 25                 TSX1    REP_ITEM_CHECK
        25 000046   000000 011000                    NOP     0

      474    17438    3                               SUM_BIT,
      475    17439    3                               ELEM_LTS$,
      476    17440    3                               %E$MUST_SUM_IN_SAME_REPORT);
      477    17441    3        NEXT$ = NEXT$ -> DEFERED_IDENTIFIER.LINK;

  17441 25 000047   200010 470500                    LDP0    NEXT$,,AUTO
        25 000050   000007 236100                    LDQ     7,,PR0
        25 000051   200010 756100                    STQ     NEXT$,,AUTO

      478    17442    3      END;  /* while */

  17442 25 000052   000003 116000 26                 CMPQ    3
        25 000053   000007 601000 25                 TNZ     s:17428

PL6.E3A0      #003=Z8ET$DEFERED_SUM_AND_SOURCE File=Z8ET.:Z8A6TSI                SAT 08/09/97 12:45 Page:104
      479    17443
      480    17444    2        CALL Z8ED$DISPOSE_ABSSYN_TREE (O1COM.REPORT_SOURCE$);

  17444 25 000054   000004 630400 26                 EPPR0   4
        25 000055   000000 631400 26                 EPPR1   0
        25 000056   000000 701000 xent               TSX1    Z8ED$DISPOSE_ABSSYN_TREE
        25 000057   000000 011000                    NOP     0

      481    17445
      482    17446    2    END CREATE_SOURCE_ETT;

  17446 25 000060   200006 221300                    LDX1  ! I+2,,AUTO
        25 000061   000001 702211                    TSX2  ! 1,X1

      483    17447         %EJECT;
PL6.E3A0      #003=Z8ET$DEFERED_SUM_AND_SOURCE File=Z8ET.:Z8A6TSI                SAT 08/09/97 12:45 Page:105
      484    17448
      485    17449         /*==============*/
      486    17450    1      REP_ITEM_CHECK: PROC (LX_ETT$, SUM_BIT, ELEM_LTS$, ERR_NUMBER);

  17450 25 000062   200034 741300       REP_ITEM_CH* STX1  ! LINE_NO#+1,,AUTO

      487    17451         /*==============*/
      488    17452
      489    17453        /*I*
      490    17454
      491    17455             NAME:  REPORT_ITEM_CHECK
      492    17456
      493    17457          PURPOSE: Verify a report item in the SOURCE or SUM clause.
      494    17458
      495    17459             CALL: CALL REPORT_ITEM_CHECK(LX_ETT$, SUM_BIT, ELEM_LTS$, ERR_NUMBER)
      496    17460
      497    17461            INPUT: LX_ETT$--ETT tree of the identifier.
      498    17462                   ELEM_LTS$--LTS item associate with the report item.
      499    17463                   ERR_NUMBER-- error number of the error message.
      500    17464           OUTPUT: SUM_BIT--a bit will be set 'on' for a valid sum counter.
      501    17465          DESCRIPTION: If the identifier is a report item but is not a sum
      502    17466                       counter or is a sum counter but not in the same report
      503    17467                       then a error message will be issued.
      504    17468                       If it is a valid sum counter the set the SUM_BIT on.
      505    17469
      506    17470        */
      507    17471
      508    17472
      509    17473    2   DCL LX_ETT$        PTR;
      510    17474    2   DCL SUM_BIT        BIT (1) ALIGNED;
      511    17475    2   DCL ELEM_LTS$      PTR;
      512    17476    2   DCL ST$$           PTR;
      513    17477    2   DCL ERR_NUMBER     UBIN WORD;
      514    17478
      515    17479
      516    17480    2          SUM_BIT = FALSE;

PL6.E3A0      #003=Z8ET$DEFERED_SUM_AND_SOURCE File=Z8ET.:Z8A6TSI                SAT 08/09/97 12:45 Page:106
  17480 25 000063   200036 470500                    LDP0    @SUM_BIT,,AUTO
        25 000064   000000 450100                    STZ     0,,PR0

      517    17481
      518    17482               %FISH (TRIAD = LX_ETT$ -> LX_ETT_ITEM.ETT$,
      519    17483                      RTN   = ST$$);

  17485 25 000065   200035 471500                    LDP1    @LX_ETT$,,AUTO
        25 000066   100000 473500                    LDP3    0,,PR1
        25 000067   300001 236100                    LDQ     1,,PR3
        25 000070   200041 756100                    STQ     ST$$,,AUTO

  17486 25 000071   200041 474500                    LDP4    ST$$,,AUTO
        25 000072   400000 220100                    LDX0    0,,PR4
        25 000073   000751 100003                    CMPX0   489,DU
        25 000074   000104 603000 25                 TRC     s:17492

  17487 25 000075   200041 470500                    LDP0    ST$$,,AUTO
        25 000076   000001 236100                    LDQ     1,,PR0
        25 000077   200041 756100                    STQ     ST$$,,AUTO

  17488 25 000100   200041 470500                    LDP0    ST$$,,AUTO
        25 000101   000000 220100                    LDX0    0,,PR0
        25 000102   000751 100003                    CMPX0   489,DU
        25 000103   000075 602000 25                 TNC     s:17487

      520    17491
      521    17492    2          IF ST$$ -> SCALAR.B.REPORT_ITEM THEN

  17492 25 000104   200041 470500                    LDP0    ST$$,,AUTO
        25 000105   000003 236100                    LDQ     3,,PR0
        25 000106   010000 316007                    CANQ    4096,DL
        25 000107   000204 600000 25                 TZE     s:17563

      522    17493    3            DO;

      523    17494    3              IF ST$$ -> SCALAR.B.SUM_COUNTER THEN
PL6.E3A0      #003=Z8ET$DEFERED_SUM_AND_SOURCE File=Z8ET.:Z8A6TSI                SAT 08/09/97 12:45 Page:107

  17494 25 000110   004000 316007                    CANQ    2048,DL
        25 000111   000170 600000 25                 TZE     s:17557

      524    17495    4                DO;

      525    17496
      526    17497                       %GET_LTS (@ID     = %REPORT_ELEM_LTS,
      527    17498                                 @ST$    = ST$$,
      528    17499                                 @RETURN$ = ELEM_LTS$);

  17501 25 000112   000005 236100                    LDQ     5,,PR0
        25 000113   000003 116000 26                 CMPQ    3
        25 000114   000125 600000 25                 TZE     s:17535
        25 000115   000005 471500                    LDP1    5,,PR0
        25 000116   100000 220100                    LDX0    0,,PR1
        25 000117   001105 100003                    CMPX0   581,DU
        25 000120   000125 601000 25                 TNZ     s:17535

  17523 25 000121   100007 236100                    LDQ     7,,PR1
        25 000122   200037 473500                    LDP3    @ELEM_LTS$,,AUTO
        25 000123   300000 756100                    STQ     0,,PR3

  17533 25 000124   000141 710000 25                 TRA     s:17543

  17535 25 000125   000003 116000 26                 CMPQ    3
        25 000126   000136 600000 25                 TZE     s:17539
        25 000127   000005 471500                    LDP1    5,,PR0
        25 000130   100000 220100                    LDX0    0,,PR1
        25 000131   001102 100003                    CMPX0   578,DU
        25 000132   000136 601000 25                 TNZ     s:17539

  17537 25 000133   200037 473500                    LDP3    @ELEM_LTS$,,AUTO
        25 000134   300000 756100                    STQ     0,,PR3
        25 000135   000141 710000 25                 TRA     s:17543

  17539 25 000136   000003 236000 26                 LDQ     3
PL6.E3A0      #003=Z8ET$DEFERED_SUM_AND_SOURCE File=Z8ET.:Z8A6TSI                SAT 08/09/97 12:45 Page:108
        25 000137   200037 471500                    LDP1    @ELEM_LTS$,,AUTO
        25 000140   100000 756100                    STQ     0,,PR1

      529    17542
      530    17543    4                  IF ELEM_LTS$ -> REPORT_ELEM_LTS.SUM_LTS$ -> SUM_LTS.REPORT_LTS$ ~=

  17543 25 000141   200037 471500                    LDP1    @ELEM_LTS$,,AUTO
        25 000142   100000 473500                    LDP3    0,,PR1
        25 000143   300012 474500                    LDP4    10,,PR3
        25 000144   400005 236100                    LDQ     5,,PR4
        25 000145   000064 116000 xsym               CMPQ    O1COM+52
        25 000146   000164 600000 25                 TZE     s:17551

      531    17544    4                          O1COM.CURRENT_REPORT_LTS$ THEN
      532    17545    5                    DO;

      533    17546    5                      CALL Z8AE$ERROR (ERR_NUMBER,

  17546 25 000147   200035 475500                    LDP5    @LX_ETT$,,AUTO
        25 000150   500000 476500                    LDP6    0,,PR5
        25 000151   600006 637500                    EPPR7   6,,PR6
        25 000152   200044 457500                    STP7    ST$$+3,,AUTO
        25 000153   600005 633500                    EPPR3   5,,PR6
        25 000154   200043 453500                    STP3    ST$$+2,,AUTO
        25 000155   200040 236100                    LDQ     @ERR_NUMBER,,AUTO
        25 000156   200042 756100                    STQ     ST$$+1,,AUTO
        25 000157   200042 630500                    EPPR0   ST$$+1,,AUTO
        25 000160   000005 631400 26                 EPPR1   5
        25 000161   000000 701000 xent               TSX1    Z8AE$ERROR
        25 000162   000000 011000                    NOP     0

      534    17547    5                                       LX_ETT$ -> LX_ETT_ITEM.LINE,
      535    17548    5                                       LX_ETT$ -> LX_ETT_ITEM.COLUMN);
      536    17549    5                    END;

  17549 25 000163   000204 710000 25                 TRA     s:17563

PL6.E3A0      #003=Z8ET$DEFERED_SUM_AND_SOURCE File=Z8ET.:Z8A6TSI                SAT 08/09/97 12:45 Page:109
      537    17550    4                  ELSE
      538    17551    4                    SUM_BIT = TRUE;

  17551 25 000164   400000 236003                    LDQ     -131072,DU
        25 000165   200036 475500                    LDP5    @SUM_BIT,,AUTO
        25 000166   500000 756100                    STQ     0,,PR5

      539    17552
      540    17553    4                END;

  17553 25 000167   000204 710000 25                 TRA     s:17563

      541    17554
      542    17555    3              ELSE
      543    17556    4                DO;

      544    17557    4                  CALL Z8AE$ERROR (ERR_NUMBER,

  17557 25 000170   200035 471500                    LDP1    @LX_ETT$,,AUTO
        25 000171   100000 473500                    LDP3    0,,PR1
        25 000172   300006 634500                    EPPR4   6,,PR3
        25 000173   200044 454500                    STP4    ST$$+3,,AUTO
        25 000174   300005 635500                    EPPR5   5,,PR3
        25 000175   200043 455500                    STP5    ST$$+2,,AUTO
        25 000176   200040 236100                    LDQ     @ERR_NUMBER,,AUTO
        25 000177   200042 756100                    STQ     ST$$+1,,AUTO
        25 000200   200042 630500                    EPPR0   ST$$+1,,AUTO
        25 000201   000005 631400 26                 EPPR1   5
        25 000202   000000 701000 xent               TSX1    Z8AE$ERROR
        25 000203   000000 011000                    NOP     0

      545    17558    4                                   LX_ETT$ -> LX_ETT_ITEM.LINE,
      546    17559    4                                   LX_ETT$ -> LX_ETT_ITEM.COLUMN);
      547    17560    4                END;

      548    17561    3            END;

PL6.E3A0      #003=Z8ET$DEFERED_SUM_AND_SOURCE File=Z8ET.:Z8A6TSI                SAT 08/09/97 12:45 Page:110
      549    17562
      550    17563    2    END REP_ITEM_CHECK;

  17563 25 000204   200034 221300                    LDX1  ! LINE_NO#+1,,AUTO
        25 000205   000001 702211                    TSX2  ! 1,X1

      551    17564         %EJECT;
PL6.E3A0      #003=Z8ET$DEFERED_SUM_AND_SOURCE File=Z8ET.:Z8A6TSI                SAT 08/09/97 12:45 Page:111
      552    17565
      553    17566
      554    17567         /*=================*/
      555    17568    1      CREATE_REPORT_SUM: PROC;

  17568 25 000206   200006 741300       CREATE_REPO* STX1  ! I+2,,AUTO

      556    17569         /*=================*/
      557    17570
      558    17571        /*I*
      559    17572
      560    17573             NAME:  CREATE_REPORT_SUM
      561    17574
      562    17575          DESCRIPTION: This routine steps through the O1COM.REPORT_SUM$ list
      563    17576                       which chains all the DEFERED_SUM_CLAUSE_LIST that
      564    17577                       containing the informations of the SUM clauses of a sum
      565    17578                       counter and call PROCESS_SUM to process it and then,
      566    17579                       call GENERATE_SUBS  to generate the run time subroutines.
      567    17580        */
      568    17581
      569    17582
      570    17583    2      DCL NEXT$           PTR;
      571    17584
      572    17585
      573    17586
      574    17587    2        NEXT$ = O1COM.REPORT_SUM$;

  17587 25 000207   000070 236000 xsym               LDQ     O1COM+56
        25 000210   200007 756100                    STQ     NEXT$,,AUTO

      575    17588
      576    17589    3      DO WHILE (NEXT$ ~= ADDR(NIL));

  17589 25 000211   000232 710000 25                 TRA     s:17598

      577    17590
      578    17591    3       O1COM.CURRENT_REPORT_LTS$ = NEXT$ -> DEFERED_SUM_CLAUSE_LIST.ASSOC_REPORT_LTS$;
PL6.E3A0      #003=Z8ET$DEFERED_SUM_AND_SOURCE File=Z8ET.:Z8A6TSI                SAT 08/09/97 12:45 Page:112

  17591 25 000212   200007 470500                    LDP0    NEXT$,,AUTO
        25 000213   000003 236100                    LDQ     3,,PR0
        25 000214   000064 756000 xsym               STQ     O1COM+52

      579    17592    3        ASSOC_01_LTS$ = NEXT$ -> DEFERED_SUM_CLAUSE_LIST.ASSOC_01_LTS$;

  17592 25 000215   000004 236100                    LDQ     4,,PR0
        25 000216   200003 756100                    STQ     ASSOC_01_LTS$,,AUTO

      580    17593
      581    17594    3        CALL PROCESS_SUM (NEXT$ -> DEFERED_SUM_CLAUSE_LIST.SUM_CLAUSE_LIST$,

  17594 25 000217   200007 236100                    LDQ     NEXT$,,AUTO
        25 000220   000002 036003                    ADLQ    2,DU
        25 000221   200012 756100                    STQ     ELEM_LTS$,,AUTO
        25 000222   200007 236100                    LDQ     NEXT$,,AUTO
        25 000223   000001 036003                    ADLQ    1,DU
        25 000224   200011 756100                    STQ     SUM_BIT,,AUTO
        25 000225   000247 701000 25                 TSX1    PROCESS_SUM
        25 000226   000000 011000                    NOP     0

      582    17595    3                          NEXT$ -> DEFERED_SUM_CLAUSE_LIST.ASSOC_VAR_LTS$);
      583    17596
      584    17597    3        NEXT$ = NEXT$ -> DEFERED_SUM_CLAUSE_LIST.LINK;

  17597 25 000227   200007 470500                    LDP0    NEXT$,,AUTO
        25 000230   000007 236100                    LDQ     7,,PR0
        25 000231   200007 756100                    STQ     NEXT$,,AUTO

      585    17598    3      END; /* while */

  17598 25 000232   000003 116000 26                 CMPQ    3
        25 000233   000212 601000 25                 TNZ     s:17591

      586    17599
      587    17600    2      IF O1COM.REPORT_SUM$ ~= ADDR(NIL) THEN
PL6.E3A0      #003=Z8ET$DEFERED_SUM_AND_SOURCE File=Z8ET.:Z8A6TSI                SAT 08/09/97 12:45 Page:113

  17600 25 000234   000070 236000 xsym               LDQ     O1COM+56
        25 000235   000003 116000 26                 CMPQ    3
        25 000236   000245 600000 25                 TZE     s:17609

      588    17601    3        DO;

      589    17602
      590    17603    3          CALL Z8ED$DISPOSE_ABSSYN_TREE (O1COM.REPORT_SUM$);

  17603 25 000237   000006 630400 26                 EPPR0   6
        25 000240   000000 631400 26                 EPPR1   0
        25 000241   000000 701000 xent               TSX1    Z8ED$DISPOSE_ABSSYN_TREE
        25 000242   000000 011000                    NOP     0

      591    17604
      592    17605    3          CALL GENERATE_SUBS;

  17605 25 000243   001756 701000 25                 TSX1    GENERATE_SUBS
        25 000244   000000 011000                    NOP     0

      593    17606    3        END;

      594    17607
      595    17608
      596    17609    2    END CREATE_REPORT_SUM;

  17609 25 000245   200006 221300                    LDX1  ! I+2,,AUTO
        25 000246   000001 702211                    TSX2  ! 1,X1

      597    17610         %EJECT;
PL6.E3A0      #003=Z8ET$DEFERED_SUM_AND_SOURCE File=Z8ET.:Z8A6TSI                SAT 08/09/97 12:45 Page:114
      598    17611
      599    17612         /*===========*/
      600    17613    1      PROCESS_SUM: PROC (SUM_LIST$, VAR_LTS$);

  17613 25 000247   200010 741300       PROCESS_SUM  STX1  ! NEXT$,,AUTO

      601    17614         /*===========*/
      602    17615
      603    17616        /*I*
      604    17617             NAME:  PROCESS_SUM
      605    17618
      606    17619          DESCRIPTION: This routine calls several modules to generate the
      607    17620                       ETT items that reset or subtotalling the sum counter.
      608    17621        */
      609    17622
      610    17623
      611    17624    2      DCL SUM_LIST$       PTR;
      612    17625    2      DCL VAR_LTS$        PTR;
      613    17626    2      DCL ID_LIST$        PTR;
      614    17627    2      DCL LTS$$           PTR;
      615    17628    2      DCL SUM_CLAUSE$     PTR;
      616    17629    2      DCL ID$$            PTR;
      617    17630
      618    17631
      619    17632
      620    17633    2      IF SUM_LIST$ -> LX_LIST.TAIL$ -> DEFERED_SUM_CLAUSE.B.RESET_ID OR

  17633 25 000250   200011 470500                    LDP0    @SUM_LIST$,,AUTO
        25 000251   000000 471500                    LDP1    0,,PR0
        25 000252   100001 473500                    LDP3    1,,PR1
        25 000253   300000 236100                    LDQ     0,,PR3
        25 000254   200000 316007                    CANQ    65536,DL
        25 000255   000260 601000 25                 TNZ     s:17636
        25 000256   100000 316007                    CANQ    32768,DL
        25 000257   000266 600000 25                 TZE     s:17639

      621    17634    2         SUM_LIST$ -> LX_LIST.TAIL$ -> DEFERED_SUM_CLAUSE.B.RESET_FINAL THEN
PL6.E3A0      #003=Z8ET$DEFERED_SUM_AND_SOURCE File=Z8ET.:Z8A6TSI                SAT 08/09/97 12:45 Page:115
      622    17635
      623    17636    2        CALL PROCESS_RESET (SUM_LIST$ -> LX_LIST.TAIL$,

  17636 25 000260   200012 236100                    LDQ     @VAR_LTS$,,AUTO
        25 000261   200022 756100                    STQ     @SUM_CLAUSE$+1,,AUTO
        25 000262   100001 633500                    EPPR3   1,,PR1
        25 000263   200021 453500                    STP3    ID$$+3,,AUTO
        25 000264   000332 701000 25                 TSX1    PROCESS_RESET
        25 000265   000000 011000                    NOP     0

      624    17637    2                            VAR_LTS$);
      625    17638
      626    17639    2        SUM_CLAUSE$ = SUM_LIST$ -> LX_LIST.HEAD$;

  17639 25 000266   200011 470500                    LDP0    @SUM_LIST$,,AUTO
        25 000267   000000 471500                    LDP1    0,,PR0
        25 000270   100004 236100                    LDQ     4,,PR1
        25 000271   200015 756100                    STQ     SUM_CLAUSE$,,AUTO

      627    17640
      628    17641    3      DO WHILE (SUM_CLAUSE$ ~= ADDR(NIL));

  17641 25 000272   000326 710000 25                 TRA     s:17651

      629    17642
      630    17643    3        CALL Z8ET$PROCESS_TREE (SUM_CLAUSE$ -> DEFERED_SUM_CLAUSE.DEFERED_ID$);

  17643 25 000273   200015 236100                    LDQ     SUM_CLAUSE$,,AUTO
        25 000274   000001 036003                    ADLQ    1,DU
        25 000275   200042 756100                    STQ     ST$$+1,,AUTO
        25 000276   200042 630500                    EPPR0   ST$$+1,,AUTO
        25 000277   000000 631400 26                 EPPR1   0
        25 000300   000000 701000 xent               TSX1    Z8ET$PROCESS_TREE
        25 000301   000000 011000                    NOP     0

      631    17644
      632    17645    3        IF SUM_CLAUSE$ -> DEFERED_SUM_CLAUSE.SUM_UPON$ ~= ADDR(NIL) THEN
PL6.E3A0      #003=Z8ET$DEFERED_SUM_AND_SOURCE File=Z8ET.:Z8A6TSI                SAT 08/09/97 12:45 Page:116

  17645 25 000302   200015 470500                    LDP0    SUM_CLAUSE$,,AUTO
        25 000303   000003 236100                    LDQ     3,,PR0
        25 000304   000003 116000 26                 CMPQ    3
        25 000305   000315 600000 25                 TZE     s:17648

      633    17646    3           CALL BUILD_SUM_W_UPON (SUM_CLAUSE$, VAR_LTS$);

  17646 25 000306   200012 236100                    LDQ     @VAR_LTS$,,AUTO
        25 000307   200022 756100                    STQ     @SUM_CLAUSE$+1,,AUTO
        25 000310   200015 631500                    EPPR1   SUM_CLAUSE$,,AUTO
        25 000311   200021 451500                    STP1    ID$$+3,,AUTO
        25 000312   000656 701000 25                 TSX1    BUILD_SUM_W_UPON
        25 000313   000000 011000                    NOP     0
        25 000314   000323 710000 25                 TRA     s:17650

      634    17647    3        ELSE
      635    17648    3           CALL BUILD_SUM_N_UPON (SUM_CLAUSE$, VAR_LTS$);

  17648 25 000315   200012 236100                    LDQ     @VAR_LTS$,,AUTO
        25 000316   200022 756100                    STQ     @SUM_CLAUSE$+1,,AUTO
        25 000317   200015 631500                    EPPR1   SUM_CLAUSE$,,AUTO
        25 000320   200021 451500                    STP1    ID$$+3,,AUTO
        25 000321   001420 701000 25                 TSX1    BUILD_SUM_N_UPON
        25 000322   000000 011000                    NOP     0

      636    17649
      637    17650    3        SUM_CLAUSE$ = SUM_CLAUSE$ -> DEFERED_SUM_CLAUSE.LINK;

  17650 25 000323   200015 470500                    LDP0    SUM_CLAUSE$,,AUTO
        25 000324   000007 236100                    LDQ     7,,PR0
        25 000325   200015 756100                    STQ     SUM_CLAUSE$,,AUTO

      638    17651    3      END; /* while */

  17651 25 000326   000003 116000 26                 CMPQ    3
        25 000327   000273 601000 25                 TNZ     s:17643
PL6.E3A0      #003=Z8ET$DEFERED_SUM_AND_SOURCE File=Z8ET.:Z8A6TSI                SAT 08/09/97 12:45 Page:117

      639    17652
      640    17653    2    END PROCESS_SUM;

  17653 25 000330   200010 221300                    LDX1  ! NEXT$,,AUTO
        25 000331   000001 702211                    TSX2  ! 1,X1

      641    17654         %EJECT;
PL6.E3A0      #003=Z8ET$DEFERED_SUM_AND_SOURCE File=Z8ET.:Z8A6TSI                SAT 08/09/97 12:45 Page:118
      642    17655
      643    17656         /*=============*/
      644    17657    1      PROCESS_RESET: PROC (SUM_CLAUSE$, VAR_LTS$);

  17657 25 000332   200020 741300       PROCESS_RES* STX1  ! ID$$+2,,AUTO

      645    17658         /*=============*/
      646    17659
      647    17660        /*I*
      648    17661
      649    17662             NAME:  PROCESS_RESET
      650    17663
      651    17664          DESCRIPTION: This routine validate the RESET phrase against the
      652    17665                       CONTROL clause  in RD entry and call SET_SUM_ZERO
      653    17666                       to get a LX_ETT item of the sum counter and then links
      654    17667                       it on the CONTROL_NAME_LTS, at the later time this
      655    17668                       LX_ETT item will be used to generate the sum counter
      656    17669                       resetting routine.
      657    17670        */
      658    17671
      659    17672
      660    17673    2      DCL SUM_CLAUSE$         PTR;
      661    17674    2      DCL VAR_LTS$            PTR;
      662    17675    2      DCL CTR_LTS$            PTR;
      663    17676    2      DCL LX_ETT$             PTR;
      664    17677
      665    17678
      666    17679
      667    17680    2      IF SUM_CLAUSE$ -> DEFERED_SUM_CLAUSE.B.RESET_FINAL THEN

  17680 25 000333   200021 470500                    LDP0    @SUM_CLAUSE$,,AUTO
        25 000334   000000 471500                    LDP1    0,,PR0
        25 000335   100000 236100                    LDQ     0,,PR1
        25 000336   100000 316007                    CANQ    32768,DL
        25 000337   000400 600000 25                 TZE     s:17702

      668    17681    3        DO;
PL6.E3A0      #003=Z8ET$DEFERED_SUM_AND_SOURCE File=Z8ET.:Z8A6TSI                SAT 08/09/97 12:45 Page:119

      669    17682    3          IF NOT O1COM.CURRENT_REPORT_LTS$ -> REPORT_LTS.B.CONTROL_FINAL THEN

  17682 25 000340   000064 473400 xsym               LDP3    O1COM+52
        25 000341   300003 236100                    LDQ     3,,PR3
        25 000342   200000 316003                    CANQ    65536,DU
        25 000343   000360 601000 25                 TNZ     s:17690

      670    17683
      671    17684    3            CALL Z8AE$ERROR (%E$ONLY_CONTROL_FINAL_IN_RD,

  17684 25 000344   100004 474500                    LDP4    4,,PR1
        25 000345   400006 635500                    EPPR5   6,,PR4
        25 000346   200044 455500                    STP5    ST$$+3,,AUTO
        25 000347   400005 631500                    EPPR1   5,,PR4
        25 000350   200043 451500                    STP1    ST$$+2,,AUTO
        25 000351   000010 236000 26                 LDQ     8
        25 000352   200042 756100                    STQ     ST$$+1,,AUTO
        25 000353   200042 630500                    EPPR0   ST$$+1,,AUTO
        25 000354   000005 631400 26                 EPPR1   5
        25 000355   000000 701000 xent               TSX1    Z8AE$ERROR
        25 000356   000000 011000                    NOP     0
        25 000357   000425 710000 25                 TRA     LAST_STEP

      672    17685    3                  SUM_CLAUSE$ -> DEFERED_SUM_CLAUSE.SUM_RESET$ -> LX_ITEM.LINE,
      673    17686    3                  SUM_CLAUSE$ -> DEFERED_SUM_CLAUSE.SUM_RESET$ -> LX_ITEM.COLUMN);
      674    17687
      675    17688    3          ELSE
      676    17689    4            DO;

      677    17690    4              CALL SET_SUM_ZERO (VAR_LTS$,

  17690 25 000360   200024 634500                    EPPR4   LX_ETT$,,AUTO
        25 000361   200030 454500                    STP4    ELEM_LTS$+1,,AUTO
        25 000362   200022 236100                    LDQ     @VAR_LTS$,,AUTO
        25 000363   200027 756100                    STQ     SUM_BIT_ON+1,,AUTO
        25 000364   000437 701000 25                 TSX1    SET_SUM_ZERO
PL6.E3A0      #003=Z8ET$DEFERED_SUM_AND_SOURCE File=Z8ET.:Z8A6TSI                SAT 08/09/97 12:45 Page:120
        25 000365   000000 011000                    NOP     0

      678    17691    4                                 LX_ETT$);
      679    17692
      680    17693    4              LX_ETT$ -> LX_ETT_ITEM.LINK = O1COM.CURRENT_REPORT_LTS$

  17693 25 000366   000064 470400 xsym               LDP0    O1COM+52
        25 000367   000006 471500                    LDP1    6,,PR0
        25 000370   100004 236100                    LDQ     4,,PR1
        25 000371   200024 473500                    LDP3    LX_ETT$,,AUTO
        25 000372   300007 756100                    STQ     7,,PR3

      681    17694    4                  -> REPORT_LTS.CONTROL_FINAL$ -> CONTROL_NAME_LTS.SUM_RESET$;
      682    17695    4              O1COM.CURRENT_REPORT_LTS$ -> REPORT_LTS.CONTROL_FINAL$ ->

  17695 25 000373   000064 470400 xsym               LDP0    O1COM+52
        25 000374   000006 471500                    LDP1    6,,PR0
        25 000375   200024 236100                    LDQ     LX_ETT$,,AUTO
        25 000376   100004 756100                    STQ     4,,PR1

      683    17696    4                  CONTROL_NAME_LTS.SUM_RESET$ = LX_ETT$;
      684    17697
      685    17698    4            END;

      686    17699    3        END;

  17699 25 000377   000425 710000 25                 TRA     LAST_STEP

      687    17700    2      ELSE
      688    17701    3        DO;

      689    17702    3          CALL CONTROL_NAME_CHECK (SUM_CLAUSE$ -> DEFERED_SUM_CLAUSE.SUM_RESET$,

  17702 25 000400   200023 633500                    EPPR3   CTR_LTS$,,AUTO
        25 000401   200030 453500                    STP3    ELEM_LTS$+1,,AUTO
        25 000402   100004 634500                    EPPR4   4,,PR1
        25 000403   200027 454500                    STP4    SUM_BIT_ON+1,,AUTO
PL6.E3A0      #003=Z8ET$DEFERED_SUM_AND_SOURCE File=Z8ET.:Z8A6TSI                SAT 08/09/97 12:45 Page:121
        25 000404   000512 701000 25                 TSX1    CONTROL_NAME_CHECK
        25 000405   000407 702000 25                 TSX2    s:17706
        25 000406   000410 710000 25                 TRA     s:17709

      690    17703    3                                   CTR_LTS$)
      691    17704    3            WHENALTRETURN
      692    17705    4              DO;

      693    17706    4                GOTO LAST_STEP;

  17706 25 000407   000425 710000 25                 TRA     LAST_STEP

      694    17707    4              END;
      695    17708
      696    17709    3          CALL SET_SUM_ZERO (VAR_LTS$,

  17709 25 000410   200024 630500                    EPPR0   LX_ETT$,,AUTO
        25 000411   200030 450500                    STP0    ELEM_LTS$+1,,AUTO
        25 000412   200022 236100                    LDQ     @VAR_LTS$,,AUTO
        25 000413   200027 756100                    STQ     SUM_BIT_ON+1,,AUTO
        25 000414   000437 701000 25                 TSX1    SET_SUM_ZERO
        25 000415   000000 011000                    NOP     0

      697    17710    3                             LX_ETT$);
      698    17711
      699    17712    3          LX_ETT$ -> LX_ETT_ITEM.LINK = CTR_LTS$ ->

  17712 25 000416   200023 470500                    LDP0    CTR_LTS$,,AUTO
        25 000417   000004 236100                    LDQ     4,,PR0
        25 000420   200024 471500                    LDP1    LX_ETT$,,AUTO
        25 000421   100007 756100                    STQ     7,,PR1

      700    17713    3                                          CONTROL_NAME_LTS.SUM_RESET$;
      701    17714    3          CTR_LTS$ -> CONTROL_NAME_LTS.SUM_RESET$ = LX_ETT$;

  17714 25 000422   200024 236100                    LDQ     LX_ETT$,,AUTO
        25 000423   200023 470500                    LDP0    CTR_LTS$,,AUTO
PL6.E3A0      #003=Z8ET$DEFERED_SUM_AND_SOURCE File=Z8ET.:Z8A6TSI                SAT 08/09/97 12:45 Page:122
        25 000424   000004 756100                    STQ     4,,PR0

      702    17715    3        END;

      703    17716
      704    17717    2      LAST_STEP:
      705    17718    2        CALL Z8ED$DISPOSE_ABSSYN_TREE(SUM_CLAUSE$ -> DEFERED_SUM_CLAUSE.SUM_RESET$);

  17718 25 000425   200021 470500       LAST_STEP    LDP0    @SUM_CLAUSE$,,AUTO
        25 000426   000000 471500                    LDP1    0,,PR0
        25 000427   100004 633500                    EPPR3   4,,PR1
        25 000430   200042 453500                    STP3    ST$$+1,,AUTO
        25 000431   200042 630500                    EPPR0   ST$$+1,,AUTO
        25 000432   000000 631400 26                 EPPR1   0
        25 000433   000000 701000 xent               TSX1    Z8ED$DISPOSE_ABSSYN_TREE
        25 000434   000000 011000                    NOP     0

      706    17719
      707    17720    2    END PROCESS_RESET;

  17720 25 000435   200020 221300                    LDX1  ! ID$$+2,,AUTO
        25 000436   000001 702211                    TSX2  ! 1,X1

      708    17721         %EJECT;
PL6.E3A0      #003=Z8ET$DEFERED_SUM_AND_SOURCE File=Z8ET.:Z8A6TSI                SAT 08/09/97 12:45 Page:123
      709    17722
      710    17723         /*============*/
      711    17724    1      SET_SUM_ZERO: PROC (VAR_LTS$, LX_ETT$);

  17724 25 000437   200026 741300       SET_SUM_ZERO STX1  ! ST$$+1,,AUTO

      712    17725         /*============*/
      713    17726
      714    17727        /*I*
      715    17728             NAME:  SET_SUM_ZERO
      716    17729
      717    17730          DESCRIPTION: This routine creates a LX_ETT_ITEM of the sum counter
      718    17731                       and set the bit SUM_LTS.B.RESETED on.
      719    17732        */
      720    17733
      721    17734
      722    17735    2      DCL VAR_LTS$        PTR;
      723    17736    2      DCL LX_ETT$         PTR;
      724    17737
      725    17738
      726    17739
      727    17740           %NEW_HEAP (@POINTER = LX_ETT$);

  17742 25 000440   000013 236000 26                 LDQ     11
        25 000441   200030 235100                    LDA     @LX_ETT$,,AUTO
        25 000442   200042 757100                    STAQ    ST$$+1,,AUTO
        25 000443   200042 630500                    EPPR0   ST$$+1,,AUTO
        25 000444   000011 631400 26                 EPPR1   9
        25 000445   000000 701000 xent               TSX1    Z8ED$NEW_HEAP
        25 000446   000000 011000                    NOP     0

      728    17745
      729    17746
      730    17747           %INIT_LX_ETT_ITEM (@POINTER = LX_ETT$,
      731    17748                              @TYPE    = %TYD,
      732    17749                              @ETT$    =
             17749                                VAR_LTS$ -> REPORT_ELEM_LTS.SUM_LTS$ -> SUM_LTS.SUM_ST_ILL$
PL6.E3A0      #003=Z8ET$DEFERED_SUM_AND_SOURCE File=Z8ET.:Z8A6TSI                SAT 08/09/97 12:45 Page:124
             17749                                  ,
      733    17750                              @LINE    = VAR_LTS$ -> REPORT_ELEM_LTS.ST$ -> ST.LINE_NO,
      734    17751                              @COLUMN  = 0);

  17753 25 000447   200030 470500                    LDP0    @LX_ETT$,,AUTO
        25 000450   000000 471500                    LDP1    0,,PR0
        25 000451   000004 220003                    LDX0    4,DU
        25 000452   100000 740100                    STX0    0,,PR1

  17754 25 000453   000000 471500                    LDP1    0,,PR0
        25 000454   000000 221003                    LDX1    0,DU
        25 000455   100000 441100                    SXL1    0,,PR1

  17755 25 000456   000000 471500                    LDP1    0,,PR0
        25 000457   100004 450100                    STZ     4,,PR1

  17756 25 000460   000000 471500                    LDP1    0,,PR0
        25 000461   000003 236000 26                 LDQ     3
        25 000462   100007 756100                    STQ     7,,PR1

  17757 25 000463   000000 471500                    LDP1    0,,PR0
        25 000464   200027 473500                    LDP3    @VAR_LTS$,,AUTO
        25 000465   300000 474500                    LDP4    0,,PR3
        25 000466   400012 475500                    LDP5    10,,PR4
        25 000467   500004 236100                    LDQ     4,,PR5
        25 000470   100001 756100                    STQ     1,,PR1

  17758 25 000471   000000 471500                    LDP1    0,,PR0
        25 000472   000003 236000 26                 LDQ     3
        25 000473   100002 756100                    STQ     2,,PR1

  17760 25 000474   000000 471500                    LDP1    0,,PR0
        25 000475   300000 474500                    LDP4    0,,PR3
        25 000476   400003 475500                    LDP5    3,,PR4
        25 000477   500002 236100                    LDQ     2,,PR5
        25 000500   777777 376007                    ANQ     -1,DL
        25 000501   100005 756100                    STQ     5,,PR1
PL6.E3A0      #003=Z8ET$DEFERED_SUM_AND_SOURCE File=Z8ET.:Z8A6TSI                SAT 08/09/97 12:45 Page:125

  17761 25 000502   000000 471500                    LDP1    0,,PR0
        25 000503   100006 450100                    STZ     6,,PR1

      735    17773
      736    17774    2      VAR_LTS$ -> REPORT_ELEM_LTS.SUM_LTS$ -> SUM_LTS.B.RESETED = TRUE;

  17774 25 000504   300000 471500                    LDP1    0,,PR3
        25 000505   100012 474500                    LDP4    10,,PR1
        25 000506   400000 236007                    LDQ     -131072,DL
        25 000507   400000 256100                    ORSQ    0,,PR4

      737    17775
      738    17776
      739    17777    2    END SET_SUM_ZERO;

  17777 25 000510   200026 221300                    LDX1  ! ST$$+1,,AUTO
        25 000511   000001 702211                    TSX2  ! 1,X1

      740    17778         %EJECT;
PL6.E3A0      #003=Z8ET$DEFERED_SUM_AND_SOURCE File=Z8ET.:Z8A6TSI                SAT 08/09/97 12:45 Page:126
      741    17779
      742    17780         /*==================*/
      743    17781    1      CONTROL_NAME_CHECK:  PROC (QUAL_ID$, CTR_LTS$) ALTRET;

  17781 25 000512   200026 741300       CONTROL_NAM* STX1  ! ST$$+1,,AUTO

      744    17782         /*==================*/
      745    17783
      746    17784        /*I*
      747    17785
      748    17786             NAME:  CONTROL_NAME_CHECK
      749    17787
      750    17788          DESCRIPTION: This routine validate the control name against the
      751    17789                       CONTROL clause  in RD entry and returns the LTS item
      752    17790                       for that control name.
      753    17791        */
      754    17792
      755    17793
      756    17794    2     DCL ST$$              PTR;
      757    17795    2     DCL LTS$$             PTR;
      758    17796    2     DCL QUAL_ID$           PTR;
      759    17797    2     DCL LEN               UBIN HALF UNAL;
      760    17798    2     DCL CTR$              PTR;
      761    17799    2     DCL RSV_WRD#          SBIN WORD;
      762    17800    2     DCL CTR_LTS$          PTR;
      763    17801
      764    17802
      765    17803
      766    17804    2      CALL Z8CO$QUALIFY_VARIABLE (QUAL_ID$, ST$$)

  17804 25 000513   200031 630500                    EPPR0   ST$$,,AUTO
        25 000514   200043 450500                    STP0    ST$$+2,,AUTO
        25 000515   200027 236100                    LDQ     @QUAL_ID$,,AUTO
        25 000516   200042 756100                    STQ     ST$$+1,,AUTO
        25 000517   200042 630500                    EPPR0   ST$$+1,,AUTO
        25 000520   000011 631400 26                 EPPR1   9
        25 000521   000000 701000 xent               TSX1    Z8CO$QUALIFY_VARIABLE
PL6.E3A0      #003=Z8ET$DEFERED_SUM_AND_SOURCE File=Z8ET.:Z8A6TSI                SAT 08/09/97 12:45 Page:127
        25 000522   000524 702000 25                 TSX2    s:17807
        25 000523   000536 710000 25                 TRA     s:17815

      767    17805    2        WHENALTRETURN
      768    17806    3          DO;

      769    17807    3            IF ST$$ -> SCALAR.B.COMPILER_CREATED THEN

  17807 25 000524   200031 470500                    LDP0    ST$$,,AUTO
        25 000525   000003 236100                    LDQ     3,,PR0
        25 000526   100000 316003                    CANQ    32768,DU
        25 000527   000534 600000 25                 TZE     s:17812

      770    17808    4              DO;

      771    17809    4                ST$$ -> SCALAR.DNT$ -> DNT.ST$ =

  17809 25 000530   000006 471500                    LDP1    6,,PR0
        25 000531   100001 473500                    LDP3    1,,PR1
        25 000532   300004 236100                    LDQ     4,,PR3
        25 000533   100001 756100                    STQ     1,,PR1

      772    17810    4                        ST$$ -> SCALAR.DNT$ -> DNT.ST$ -> ST.NEXT;
      773    17811    4              END;

      774    17812    3            ALTRETURN;

  17812 25 000534   200026 221300                    LDX1  ! ST$$+1,,AUTO
        25 000535   000000 702211                    TSX2  ! 0,X1

      775    17813    3          END;
      776    17814
      777    17815    2      LTS$$ = O1COM.CURRENT_REPORT_LTS$;

  17815 25 000536   000064 236000 xsym               LDQ     O1COM+52
        25 000537   200032 756100                    STQ     LTS$$,,AUTO

PL6.E3A0      #003=Z8ET$DEFERED_SUM_AND_SOURCE File=Z8ET.:Z8A6TSI                SAT 08/09/97 12:45 Page:128
      778    17816
      779    17817    2      IF LTS$$ -> REPORT_LTS.CONTROL$ = ADDR(NIL) THEN

  17817 25 000540   200032 470500                    LDP0    LTS$$,,AUTO
        25 000541   000005 236100                    LDQ     5,,PR0
        25 000542   000003 116000 26                 CMPQ    3
        25 000543   000563 601000 25                 TNZ     s:17825

      780    17818    3        DO;

      781    17819    3          CALL Z8AE$ERROR (%E$NAME_NOT_IN_CONTROL_CLAUSE,

  17819 25 000544   200027 471500                    LDP1    @QUAL_ID$,,AUTO
        25 000545   100000 473500                    LDP3    0,,PR1
        25 000546   300004 474500                    LDP4    4,,PR3
        25 000547   400006 635500                    EPPR5   6,,PR4
        25 000550   200044 455500                    STP5    ST$$+3,,AUTO
        25 000551   400005 633500                    EPPR3   5,,PR4
        25 000552   200043 453500                    STP3    ST$$+2,,AUTO
        25 000553   000015 236000 26                 LDQ     13
        25 000554   200042 756100                    STQ     ST$$+1,,AUTO
        25 000555   200042 630500                    EPPR0   ST$$+1,,AUTO
        25 000556   000005 631400 26                 EPPR1   5
        25 000557   000000 701000 xent               TSX1    Z8AE$ERROR
        25 000560   000000 011000                    NOP     0

      782    17820    3                           QUAL_ID$ -> LX_LIST.HEAD$ -> LX_ITEM.LINE,
      783    17821    3                           QUAL_ID$ -> LX_LIST.HEAD$ -> LX_ITEM.COLUMN);
      784    17822    3          ALTRETURN;

  17822 25 000561   200026 221300                    LDX1  ! ST$$+1,,AUTO
        25 000562   000000 702211                    TSX2  ! 0,X1

      785    17823    3        END;
      786    17824
      787    17825    2      IF ST$$ -> SCALAR.B.REPORT_ITEM  THEN

PL6.E3A0      #003=Z8ET$DEFERED_SUM_AND_SOURCE File=Z8ET.:Z8A6TSI                SAT 08/09/97 12:45 Page:129
  17825 25 000563   200031 471500                    LDP1    ST$$,,AUTO
        25 000564   100003 236100                    LDQ     3,,PR1
        25 000565   010000 316007                    CANQ    4096,DL
        25 000566   000606 600000 25                 TZE     s:17833

      788    17826    3        DO;

      789    17827    3          CALL Z8AE$ERROR (%E$DCL_IN_REPORT,

  17827 25 000567   200027 473500                    LDP3    @QUAL_ID$,,AUTO
        25 000570   300000 474500                    LDP4    0,,PR3
        25 000571   400004 475500                    LDP5    4,,PR4
        25 000572   500006 636500                    EPPR6   6,,PR5
        25 000573   200044 456500                    STP6    ST$$+3,,AUTO
        25 000574   500005 634500                    EPPR4   5,,PR5
        25 000575   200043 454500                    STP4    ST$$+2,,AUTO
        25 000576   000017 236000 26                 LDQ     15
        25 000577   200042 756100                    STQ     ST$$+1,,AUTO
        25 000600   200042 630500                    EPPR0   ST$$+1,,AUTO
        25 000601   000005 631400 26                 EPPR1   5
        25 000602   000000 701000 xent               TSX1    Z8AE$ERROR
        25 000603   000000 011000                    NOP     0

      790    17828    3                           QUAL_ID$ -> LX_LIST.HEAD$ -> LX_ITEM.LINE,
      791    17829    3                           QUAL_ID$ -> LX_LIST.HEAD$ -> LX_ITEM.COLUMN);
      792    17830    3          ALTRETURN;

  17830 25 000604   200026 221300                    LDX1  ! ST$$+1,,AUTO
        25 000605   000000 702211                    TSX2  ! 0,X1

      793    17831    3        END;
      794    17832
      795    17833    2      CTR$ = LTS$$ -> REPORT_LTS.CONTROL$;

  17833 25 000606   000005 236100                    LDQ     5,,PR0
        25 000607   200034 756100                    STQ     CTR$,,AUTO

PL6.E3A0      #003=Z8ET$DEFERED_SUM_AND_SOURCE File=Z8ET.:Z8A6TSI                SAT 08/09/97 12:45 Page:130
      796    17834    2      LEN = CTR$ -> LTS_PTR_ARRAY.N - 3;

  17834 25 000610   200034 473500                    LDP3    CTR$,,AUTO
        25 000611   300000 720100                    LXL0    0,,PR3
        25 000612   777775 621010                    EAX1    -3,X0
        25 000613   200033 741100                    STX1    LEN,,AUTO

      797    17835
      798    17836    3      DO I = 1 TO LEN;

  17836 25 000614   000001 235007                    LDA     1,DL
        25 000615   200004 755100                    STA     I,,AUTO
        25 000616   000626 710000 25                 TRA     s:17839+1

      799    17837    3        IF ST$$ = CTR$ -> LTS_PTR_ARRAY.P$(I) -> CONTROL_NAME_LTS.ST$ THEN

  17837 25 000617   200034 470500                    LDP0    CTR$,,AUTO
        25 000620   200004 720100                    LXL0    I,,AUTO
        25 000621   000002 471510                    LDP1    2,X0,PR0
        25 000622   200031 236100                    LDQ     ST$$,,AUTO
        25 000623   100001 116100                    CMPQ    1,,PR1
        25 000624   000651 600000 25                 TZE     NEXT_STEP

      800    17838    3          GOTO NEXT_STEP;
      801    17839    3      END;

  17839 25 000625   200004 054100                    AOS     I,,AUTO
        25 000626   200033 236100                    LDQ     LEN,,AUTO
        25 000627   000022 772000                    QRL     18
        25 000630   200004 116100                    CMPQ    I,,AUTO
        25 000631   000617 605000 25                 TPL     s:17837

      802    17840    2      CALL Z8AE$ERROR (%E$NAME_NOT_IN_CONTROL_CLAUSE,

  17840 25 000632   200027 470500                    LDP0    @QUAL_ID$,,AUTO
        25 000633   000000 471500                    LDP1    0,,PR0
        25 000634   100004 473500                    LDP3    4,,PR1
PL6.E3A0      #003=Z8ET$DEFERED_SUM_AND_SOURCE File=Z8ET.:Z8A6TSI                SAT 08/09/97 12:45 Page:131
        25 000635   300006 634500                    EPPR4   6,,PR3
        25 000636   200044 454500                    STP4    ST$$+3,,AUTO
        25 000637   300005 631500                    EPPR1   5,,PR3
        25 000640   200043 451500                    STP1    ST$$+2,,AUTO
        25 000641   000015 236000 26                 LDQ     13
        25 000642   200042 756100                    STQ     ST$$+1,,AUTO
        25 000643   200042 630500                    EPPR0   ST$$+1,,AUTO
        25 000644   000005 631400 26                 EPPR1   5
        25 000645   000000 701000 xent               TSX1    Z8AE$ERROR
        25 000646   000000 011000                    NOP     0

      803    17841    2                       QUAL_ID$ -> LX_LIST.HEAD$ -> LX_ITEM.LINE,
      804    17842    2                       QUAL_ID$ -> LX_LIST.HEAD$ -> LX_ITEM.COLUMN);
      805    17843    2      ALTRETURN;

  17843 25 000647   200026 221300                    LDX1  ! ST$$+1,,AUTO
        25 000650   000000 702211                    TSX2  ! 0,X1

      806    17844
      807    17845    2    NEXT_STEP:
      808    17846    2      CTR_LTS$ = CTR$ -> LTS_PTR_ARRAY.P$(I);

  17846 25 000651   000002 236110       NEXT_STEP    LDQ     2,X0,PR0
        25 000652   200030 473500                    LDP3    @CTR_LTS$,,AUTO
        25 000653   300000 756100                    STQ     0,,PR3

      809    17847
      810    17848    2    END CONTROL_NAME_CHECK;

  17848 25 000654   200026 221300                    LDX1  ! ST$$+1,,AUTO
        25 000655   000001 702211                    TSX2  ! 1,X1

      811    17849         %EJECT;
PL6.E3A0      #003=Z8ET$DEFERED_SUM_AND_SOURCE File=Z8ET.:Z8A6TSI                SAT 08/09/97 12:45 Page:132
      812    17850
      813    17851         /*================*/
      814    17852    1      BUILD_SUM_W_UPON: PROC (SUM_CLAUSE$, VAR_LTS$);

  17852 25 000656   200020 741300       BUILD_SUM_W* STX1  ! ID$$+2,,AUTO

      815    17853         /*================*/
      816    17854
      817    17855        /*I*
      818    17856
      819    17857             NAME:  BUILD_SUM_W_UPON
      820    17858
      821    17859          DESCRIPTION: This routine validates the UPON phrase and checks
      822    17860                       items in the SUM clause and then an abstract syntax
      823    17861                       tree for a "plus" operation is built that will add
      824    17862                       the items in the SUM clause to the sum counter on
      825    17863                       the run time, in the later time this tree will be
      826    17864                       used to generate the special subtotalling subroutine.
      827    17865        */
      828    17866
      829    17867
      830    17868    2   DCL SUM_CLAUSE$         PTR;
      831    17869    2   DCL VAR_LTS$            PTR;
      832    17870    2   DCL UPON_LTS$          PTR;
      833    17871    2   DCL LX_ETT$            PTR;
      834    17872    2   DCL ST$$               PTR;
      835    17873    2   DCL UPON$$             PTR;
      836    17874    2   DCL HEAP$$             PTR;
      837    17875    2   DCL OP$                PTR;
      838    17876    2   DCL TREE$              PTR;
      839    17877    2   DCL SUM_LX_ETT$        PTR;
      840    17878    2   DCL LINE_NO#           SBIN WORD;
      841    17879
      842    17880
      843    17881    2          LINE_NO# = VAR_LTS$ -> REPORT_ELEM_LTS.ST$ -> ST.LINE_NO;

  17881 25 000657   200022 470500                    LDP0    @VAR_LTS$,,AUTO
PL6.E3A0      #003=Z8ET$DEFERED_SUM_AND_SOURCE File=Z8ET.:Z8A6TSI                SAT 08/09/97 12:45 Page:133
        25 000660   000000 471500                    LDP1    0,,PR0
        25 000661   100003 473500                    LDP3    3,,PR1
        25 000662   300002 236100                    LDQ     2,,PR3
        25 000663   777777 376007                    ANQ     -1,DL
        25 000664   200033 756100                    STQ     LINE_NO#,,AUTO

      844    17882    2          LX_ETT$ = SUM_CLAUSE$ -> DEFERED_SUM_CLAUSE.DEFERED_ID$ -> LX_LIST.HEAD$;

  17882 25 000665   200021 474500                    LDP4    @SUM_CLAUSE$,,AUTO
        25 000666   400000 475500                    LDP5    0,,PR4
        25 000667   500001 476500                    LDP6    1,,PR5
        25 000670   600004 236100                    LDQ     4,,PR6
        25 000671   200024 756100                    STQ     LX_ETT$,,AUTO

      845    17883
      846    17884    3      DO WHILE (LX_ETT$ ~= ADDR(NIL));

  17884 25 000672   001004 710000 25                 TRA     s:17923

      847    17885
      848    17886    4        DO CASE (LX_ETT$ -> LX_ETT_ITEM.TYPE);

  17886 25 000673   200024 470500                    LDP0    LX_ETT$,,AUTO
        25 000674   000004 235100                    LDA     4,,PR0
        25 000675   000024 115007                    CMPA    20,DL
        25 000676   000700 602005 25                 TNC     s:17886+5,AL
        25 000677   000761 710000 25                 TRA     s:17912
        25 000700   000724 710000 25                 TRA     s:17897
        25 000701   000724 710000 25                 TRA     s:17897
        25 000702   000724 710000 25                 TRA     s:17897
        25 000703   000724 710000 25                 TRA     s:17897
        25 000704   000724 710000 25                 TRA     s:17897
        25 000705   000724 710000 25                 TRA     s:17897
        25 000706   000761 710000 25                 TRA     s:17912
        25 000707   000724 710000 25                 TRA     s:17897
        25 000710   000761 710000 25                 TRA     s:17912
        25 000711   000761 710000 25                 TRA     s:17912
PL6.E3A0      #003=Z8ET$DEFERED_SUM_AND_SOURCE File=Z8ET.:Z8A6TSI                SAT 08/09/97 12:45 Page:134
        25 000712   000761 710000 25                 TRA     s:17912
        25 000713   000724 710000 25                 TRA     s:17897
        25 000714   000761 710000 25                 TRA     s:17912
        25 000715   000761 710000 25                 TRA     s:17912
        25 000716   000761 710000 25                 TRA     s:17912
        25 000717   000724 710000 25                 TRA     s:17897
        25 000720   000761 710000 25                 TRA     s:17912
        25 000721   000761 710000 25                 TRA     s:17912
        25 000722   000761 710000 25                 TRA     s:17912
        25 000723   000724 710000 25                 TRA     s:17897

      849    17887
      850    17888    4          CASE (

      851    17889                     %SET_OF_NUMERIC_TYPES;
      852    17892    4               );
      853    17893
      854    17894                   %FISH (TRIAD = LX_ETT$ -> LX_ETT_ITEM.ETT$,
      855    17895                          RTN   = ST$$);

  17897 25 000724   000001 236100                    LDQ     1,,PR0
        25 000725   200025 756100                    STQ     ST$$,,AUTO

  17898 25 000726   200025 471500                    LDP1    ST$$,,AUTO
        25 000727   100000 220100                    LDX0    0,,PR1
        25 000730   000751 100003                    CMPX0   489,DU
        25 000731   000741 603000 25                 TRC     s:17904

  17899 25 000732   200025 470500                    LDP0    ST$$,,AUTO
        25 000733   000001 236100                    LDQ     1,,PR0
        25 000734   200025 756100                    STQ     ST$$,,AUTO

  17900 25 000735   200025 470500                    LDP0    ST$$,,AUTO
        25 000736   000000 220100                    LDX0    0,,PR0
        25 000737   000751 100003                    CMPX0   489,DU
        25 000740   000732 602000 25                 TNC     s:17899

PL6.E3A0      #003=Z8ET$DEFERED_SUM_AND_SOURCE File=Z8ET.:Z8A6TSI                SAT 08/09/97 12:45 Page:135
      856    17903
      857    17904    4              IF ST$$ -> SCALAR.B.REPORT_ITEM THEN

  17904 25 000741   200025 470500                    LDP0    ST$$,,AUTO
        25 000742   000003 236100                    LDQ     3,,PR0
        25 000743   010000 316007                    CANQ    4096,DL
        25 000744   001001 600000 25                 TZE     s:17921

      858    17905
      859    17906    4                CALL Z8AE$ERROR (%E$REP_ITEM_W_UPON,

  17906 25 000745   200024 236100                    LDQ     LX_ETT$,,AUTO
        25 000746   000006 036003                    ADLQ    6,DU
        25 000747   200044 756100                    STQ     ST$$+3,,AUTO
        25 000750   200024 236100                    LDQ     LX_ETT$,,AUTO
        25 000751   000005 036003                    ADLQ    5,DU
        25 000752   000021 235000 26                 LDA     17
        25 000753   200042 757100                    STAQ    ST$$+1,,AUTO
        25 000754   200042 630500                    EPPR0   ST$$+1,,AUTO
        25 000755   000005 631400 26                 EPPR1   5
        25 000756   000000 701000 xent               TSX1    Z8AE$ERROR
        25 000757   000000 011000                    NOP     0
        25 000760   001001 710000 25                 TRA     s:17921

      860    17907    4                                 LX_ETT$ -> LX_ITEM.LINE,
      861    17908    4                                 LX_ETT$ -> LX_ITEM.COLUMN);
      862    17909
      863    17910    4          CASE (ELSE);

      864    17911
      865    17912    4              CALL Z8AE$ERROR (%E$NUMERIC_TYPE_EXPECTED,

  17912 25 000761   200024 236100                    LDQ     LX_ETT$,,AUTO
        25 000762   000006 036003                    ADLQ    6,DU
        25 000763   200044 756100                    STQ     ST$$+3,,AUTO
        25 000764   200024 236100                    LDQ     LX_ETT$,,AUTO
        25 000765   000005 036003                    ADLQ    5,DU
PL6.E3A0      #003=Z8ET$DEFERED_SUM_AND_SOURCE File=Z8ET.:Z8A6TSI                SAT 08/09/97 12:45 Page:136
        25 000766   000023 235000 26                 LDA     19
        25 000767   200042 757100                    STAQ    ST$$+1,,AUTO
        25 000770   200042 630500                    EPPR0   ST$$+1,,AUTO
        25 000771   000005 631400 26                 EPPR1   5
        25 000772   000000 701000 xent               TSX1    Z8AE$ERROR
        25 000773   000000 011000                    NOP     0

      866    17913    4                               LX_ETT$ -> LX_ITEM.LINE,
      867    17914    4                               LX_ETT$ -> LX_ITEM.COLUMN);
      868    17915
      869    17916    4              LX_ETT$ -> LX_ETT_ITEM.ETT$ = COMCOM.VALUE_0;

  17916 25 000774   000124 236000 xsym               LDQ     COMCOM+84
        25 000775   200024 470500                    LDP0    LX_ETT$,,AUTO
        25 000776   000001 756100                    STQ     1,,PR0

      870    17917    4              LX_ETT$ -> LX_ETT_ITEM.TYPE = %TYI;

  17917 25 000777   000001 235007                    LDA     1,DL
        25 001000   000004 755100                    STA     4,,PR0

      871    17918
      872    17919    4        END; /* DO CASE */

      873    17920
      874    17921    3        LX_ETT$ = LX_ETT$ -> LX_ITEM.LINK;

  17921 25 001001   200024 470500                    LDP0    LX_ETT$,,AUTO
        25 001002   000007 236100                    LDQ     7,,PR0
        25 001003   200024 756100                    STQ     LX_ETT$,,AUTO

      875    17922
      876    17923    3      END; /* WHILE */

  17923 25 001004   000003 116000 26                 CMPQ    3
        25 001005   000673 601000 25                 TNZ     s:17886

PL6.E3A0      #003=Z8ET$DEFERED_SUM_AND_SOURCE File=Z8ET.:Z8A6TSI                SAT 08/09/97 12:45 Page:137
      877    17924
      878    17925    2      UPON$$ = SUM_CLAUSE$ -> DEFERED_SUM_CLAUSE.SUM_UPON$ -> LX_LIST.HEAD$;

  17925 25 001006   200021 470500                    LDP0    @SUM_CLAUSE$,,AUTO
        25 001007   000000 471500                    LDP1    0,,PR0
        25 001010   100003 473500                    LDP3    3,,PR1
        25 001011   300004 236100                    LDQ     4,,PR3
        25 001012   200026 756100                    STQ     UPON$$,,AUTO

      879    17926
      880    17927    3      DO WHILE (UPON$$ ~= ADDR(NIL));

  17927 25 001013   001414 710000 25                 TRA     s:18157

      881    17928
      882    17929    3        CALL Z8CO$QUALIFY_VARIABLE (UPON$$, ST$$);

  17929 25 001014   200025 630500                    EPPR0   ST$$,,AUTO
        25 001015   200043 450500                    STP0    ST$$+2,,AUTO
        25 001016   200026 631500                    EPPR1   UPON$$,,AUTO
        25 001017   200042 451500                    STP1    ST$$+1,,AUTO
        25 001020   200042 630500                    EPPR0   ST$$+1,,AUTO
        25 001021   000011 631400 26                 EPPR1   9
        25 001022   000000 701000 xent               TSX1    Z8CO$QUALIFY_VARIABLE
        25 001023   000000 011000                    NOP     0

      883    17930
      884    17931    3        IF ST$$ -> ST.ID ~= %SCALAR OR

  17931 25 001024   200025 470500                    LDP0    ST$$,,AUTO
        25 001025   000000 220100                    LDX0    0,,PR0
        25 001026   000766 100003                    CMPX0   502,DU
        25 001027   001033 601000 25                 TNZ     s:17933
        25 001030   000003 236100                    LDQ     3,,PR0
        25 001031   010000 316007                    CANQ    4096,DL
        25 001032   001036 601000 25                 TNZ     s:17935

PL6.E3A0      #003=Z8ET$DEFERED_SUM_AND_SOURCE File=Z8ET.:Z8A6TSI                SAT 08/09/97 12:45 Page:138
      885    17932    3           NOT ST$$ -> SCALAR.B.REPORT_ITEM THEN
      886    17933    3          UPON_LTS$ = ADDR(NIL);

  17933 25 001033   000003 236000 26                 LDQ     3
        25 001034   200023 756100                    STQ     UPON_LTS$,,AUTO
        25 001035   001066 710000 25                 TRA     s:17984

      887    17934    3        ELSE
      888    17935    3          IF ST$$ -> SCALAR.LTS$ = ADDR(NIL) THEN

  17935 25 001036   000005 236100                    LDQ     5,,PR0
        25 001037   000003 116000 26                 CMPQ    3
        25 001040   001044 601000 25                 TNZ     s:17942

      889    17936    3            UPON_LTS$ = ADDR(NIL);

  17936 25 001041   000003 236000 26                 LDQ     3
        25 001042   200023 756100                    STQ     UPON_LTS$,,AUTO
        25 001043   001066 710000 25                 TRA     s:17984

      890    17937    3          ELSE
      891    17938                 %GET_LTS (@ID    = %REPORT_01_LTS,
      892    17939                           @ST$   = ST$$,
      893    17940                           @RETURN$ = UPON_LTS$);

  17942 25 001044   001054 600000 25                 TZE     s:17976
        25 001045   000005 471500                    LDP1    5,,PR0
        25 001046   100000 221100                    LDX1    0,,PR1
        25 001047   001105 101003                    CMPX1   581,DU
        25 001050   001054 601000 25                 TNZ     s:17976

  17960 25 001051   100007 236100                    LDQ     7,,PR1
        25 001052   200023 756100                    STQ     UPON_LTS$,,AUTO

  17974 25 001053   001066 710000 25                 TRA     s:17984

  17976 25 001054   000003 116000 26                 CMPQ    3
PL6.E3A0      #003=Z8ET$DEFERED_SUM_AND_SOURCE File=Z8ET.:Z8A6TSI                SAT 08/09/97 12:45 Page:139
        25 001055   001064 600000 25                 TZE     s:17980
        25 001056   000005 471500                    LDP1    5,,PR0
        25 001057   100000 221100                    LDX1    0,,PR1
        25 001060   001101 101003                    CMPX1   577,DU
        25 001061   001064 601000 25                 TNZ     s:17980

  17978 25 001062   200023 756100                    STQ     UPON_LTS$,,AUTO
        25 001063   001066 710000 25                 TRA     s:17984

  17980 25 001064   000003 236000 26                 LDQ     3
        25 001065   200023 756100                    STQ     UPON_LTS$,,AUTO

      894    17983
      895    17984    3        IF UPON_LTS$ = ADDR(NIL)  OR

  17984 25 001066   000003 116000 26                 CMPQ    3
        25 001067   001102 600000 25                 TZE     s:17990
        25 001070   200023 471500                    LDP1    UPON_LTS$,,AUTO
        25 001071   100000 221100                    LDX1    0,,PR1
        25 001072   001101 101003                    CMPX1   577,DU
        25 001073   001102 601000 25                 TNZ     s:17990
        25 001074   100010 235100                    LDA     8,,PR1
        25 001075   000005 115007                    CMPA    5,DL
        25 001076   001102 601000 25                 TNZ     s:17990
        25 001077   100015 236100                    LDQ     13,,PR1
        25 001100   000064 116000 xsym               CMPQ    O1COM+52
        25 001101   001117 600000 25                 TZE     s:17996

      896    17985    3          UPON_LTS$ -> LTS.ID ~= %REPORT_01_LTS  OR
      897    17986    3          UPON_LTS$ -> REPORT_01_LTS.GROUP_TYPE ~= %TYPE_DETAIL  OR
      898    17987    3          UPON_LTS$ -> REPORT_01_LTS.REPORT_LTS$ ~= O1COM.CURRENT_REPORT_LTS$ THEN
      899    17988    4          DO;

      900    17989
      901    17990    4            CALL Z8AE$ERROR (%E$MUST_BE_DETAIL_GROUP,

  17990 25 001102   200026 471500                    LDP1    UPON$$,,AUTO
PL6.E3A0      #003=Z8ET$DEFERED_SUM_AND_SOURCE File=Z8ET.:Z8A6TSI                SAT 08/09/97 12:45 Page:140
        25 001103   100004 473500                    LDP3    4,,PR1
        25 001104   300006 634500                    EPPR4   6,,PR3
        25 001105   200044 454500                    STP4    ST$$+3,,AUTO
        25 001106   300005 635500                    EPPR5   5,,PR3
        25 001107   200043 455500                    STP5    ST$$+2,,AUTO
        25 001110   000025 236000 26                 LDQ     21
        25 001111   200042 756100                    STQ     ST$$+1,,AUTO
        25 001112   200042 630500                    EPPR0   ST$$+1,,AUTO
        25 001113   000005 631400 26                 EPPR1   5
        25 001114   000000 701000 xent               TSX1    Z8AE$ERROR
        25 001115   000000 011000                    NOP     0

      902    17991    4                             UPON$$ -> LX_LIST.HEAD$ -> LX_ITEM.LINE,
      903    17992    4                             UPON$$ -> LX_LIST.HEAD$ -> LX_ITEM.COLUMN);
      904    17993    4          END;

  17993 25 001116   001411 710000 25                 TRA     s:18155

      905    17994    3        ELSE
      906    17995    4          DO;

      907    17996    4            IF UPON$$ -> LX_LIST.LINK = ADDR(NIL) THEN

  17996 25 001117   200026 473500                    LDP3    UPON$$,,AUTO
        25 001120   300007 236100                    LDQ     7,,PR3
        25 001121   000003 116000 26                 CMPQ    3
        25 001122   001155 601000 25                 TNZ     s:18014

      908    17997    5              DO;

      909    17998    5               TREE$ = SUM_CLAUSE$ -> DEFERED_SUM_CLAUSE.DEFERED_ID$ -> LX_LIST.HEAD$;

  17998 25 001123   200021 474500                    LDP4    @SUM_CLAUSE$,,AUTO
        25 001124   400000 475500                    LDP5    0,,PR4
        25 001125   500001 476500                    LDP6    1,,PR5
        25 001126   600004 236100                    LDQ     4,,PR6
        25 001127   200031 756100                    STQ     TREE$,,AUTO
PL6.E3A0      #003=Z8ET$DEFERED_SUM_AND_SOURCE File=Z8ET.:Z8A6TSI                SAT 08/09/97 12:45 Page:141

      910    17999
      911    18000                    %INIT_LX_LIST (@POINTER = SUM_CLAUSE$ -> DEFERED_SUM_CLAUSE.DEFERED_ID$
             18000                         );

  18002 25 001130   000002 222003                    LDX2    2,DU
        25 001131   600000 742100                    STX2    0,,PR6

  18003 25 001132   400000 470500                    LDP0    0,,PR4
        25 001133   000001 473500                    LDP3    1,,PR0
        25 001134   000000 220003                    LDX0    0,DU
        25 001135   300000 440100                    SXL0    0,,PR3

  18004 25 001136   400000 470500                    LDP0    0,,PR4
        25 001137   000001 473500                    LDP3    1,,PR0
        25 001140   000003 236000 26                 LDQ     3
        25 001141   300001 756100                    STQ     1,,PR3

  18005 25 001142   400000 470500                    LDP0    0,,PR4
        25 001143   000001 473500                    LDP3    1,,PR0
        25 001144   000003 236000 26                 LDQ     3
        25 001145   300004 756100                    STQ     4,,PR3

  18006 25 001146   400000 470500                    LDP0    0,,PR4
        25 001147   000001 473500                    LDP3    1,,PR0
        25 001150   300007 756100                    STQ     7,,PR3

  18007 25 001151   400000 470500                    LDP0    0,,PR4
        25 001152   000001 473500                    LDP3    1,,PR0
        25 001153   300002 450100                    STZ     2,,PR3

      912    18010
      913    18011    5              END;

  18011 25 001154   001212 710000 25                 TRA     s:18032

      914    18012    4            ELSE
PL6.E3A0      #003=Z8ET$DEFERED_SUM_AND_SOURCE File=Z8ET.:Z8A6TSI                SAT 08/09/97 12:45 Page:142
      915    18013    5              DO;

      916    18014    5                TREE$ = ADDR(NIL);

  18014 25 001155   000003 236000 26                 LDQ     3
        25 001156   200031 756100                    STQ     TREE$,,AUTO

      917    18015
      918    18016    5                LX_ETT$ = SUM_CLAUSE$ -> DEFERED_SUM_CLAUSE.DEFERED_ID$ -> LX_LIST.
             18016                         HEAD$;

  18016 25 001157   200021 474500                    LDP4    @SUM_CLAUSE$,,AUTO
        25 001160   400000 475500                    LDP5    0,,PR4
        25 001161   500001 476500                    LDP6    1,,PR5
        25 001162   600004 236100                    LDQ     4,,PR6
        25 001163   200024 756100                    STQ     LX_ETT$,,AUTO

      919    18017
      920    18018    6                DO WHILE (LX_ETT$ ~= ADDR(NIL));

  18018 25 001164   001207 710000 25                 TRA     s:18029

      921    18019
      922    18020                       %NEW_HEAP (@POINTER = HEAP$$);

  18022 25 001165   000013 236000 26                 LDQ     11
        25 001166   200043 756100                    STQ     ST$$+2,,AUTO
        25 001167   200027 630500                    EPPR0   HEAP$$,,AUTO
        25 001170   200042 450500                    STP0    ST$$+1,,AUTO
        25 001171   200042 630500                    EPPR0   ST$$+1,,AUTO
        25 001172   000011 631400 26                 EPPR1   9
        25 001173   000000 701000 xent               TSX1    Z8ED$NEW_HEAP
        25 001174   000000 011000                    NOP     0

      923    18025
      924    18026    6                  HEAP$$ -> LX_ETT_ITEM = LX_ETT$ -> LX_ETT_ITEM;

PL6.E3A0      #003=Z8ET$DEFERED_SUM_AND_SOURCE File=Z8ET.:Z8A6TSI                SAT 08/09/97 12:45 Page:143
  18026 25 001175   200024 470500                    LDP0    LX_ETT$,,AUTO
        25 001176   200027 471500                    LDP1    HEAP$$,,AUTO
        25 001177   000100 100500                    MLR     fill='000'O
        25 001200   000000 000040                    ADSC9   0,,PR0                   cn=0,n=32
        25 001201   100000 000040                    ADSC9   0,,PR1                   cn=0,n=32

      925    18027    6                  HEAP$$ -> LX_ETT_ITEM.LINK = TREE$;

  18027 25 001202   200031 236100                    LDQ     TREE$,,AUTO
        25 001203   200027 471500                    LDP1    HEAP$$,,AUTO
        25 001204   100007 756100                    STQ     7,,PR1

      926    18028    6                  TREE$ = HEAP$$;

  18028 25 001205   200027 236100                    LDQ     HEAP$$,,AUTO
        25 001206   200031 756100                    STQ     TREE$,,AUTO

      927    18029    6                END; /* WHILE */

  18029 25 001207   200024 236100                    LDQ     LX_ETT$,,AUTO
        25 001210   000003 116000 26                 CMPQ    3
        25 001211   001165 601000 25                 TNZ     s:18022

      928    18030    5              END;  /* DO */

      929    18031
      930    18032    4              HEAP$ = TREE$ -> LX_ETT_ITEM.LINK;

  18032 25 001212   200031 470500                    LDP0    TREE$,,AUTO
        25 001213   000007 236100                    LDQ     7,,PR0
        25 001214   000000 756000 23                 STQ     HEAP$

      931    18033    4              TREE$ -> LX_ETT_ITEM.LINK = ADDR(NIL);

  18033 25 001215   000003 236000 26                 LDQ     3
        25 001216   000007 756100                    STQ     7,,PR0

PL6.E3A0      #003=Z8ET$DEFERED_SUM_AND_SOURCE File=Z8ET.:Z8A6TSI                SAT 08/09/97 12:45 Page:144
      932    18034
      933    18035    5              DO WHILE (HEAP$ ~= ADDR(NIL));

  18035 25 001217   001300 710000 25                 TRA     s:18079

      934    18036
      935    18037                     %NEW (@TEMPLATE = BINARY_OP,
      936    18038                           @POINTER  = OP$);

  18044 25 001220   000013 236000 26                 LDQ     11
        25 001221   200043 756100                    STQ     ST$$+2,,AUTO
        25 001222   200030 630500                    EPPR0   OP$,,AUTO
        25 001223   200042 450500                    STP0    ST$$+1,,AUTO
        25 001224   200042 630500                    EPPR0   ST$$+1,,AUTO
        25 001225   000011 631400 26                 EPPR1   9
        25 001226   000000 701000 xent               TSX1    Z8ED$NEW_HEAP
        25 001227   000000 011000                    NOP     0

      937    18048
      938    18049                     %INIT_BINARY_OP (@POINTER = OP$,
      939    18050                                      @BERR    = "HEAP$ -> LX_ITEM.B.ERROR",
      940    18051                                      @LINE    = "HEAP$ -> LX_ITEM.LINE",
      941    18052                                      @COLUMN  = "HEAP$ -> LX_ITEM.COLUMN",
      942    18053                                      @ROP$    = HEAP$,
      943    18054                                      @LOP$    = TREE$,
      944    18055                                      @OP      = %OP_PLUS);

  18057 25 001230   000005 220003                    LDX0    5,DU
        25 001231   200030 470500                    LDP0    OP$,,AUTO
        25 001232   000000 740100                    STX0    0,,PR0

  18058 25 001233   000000 221003                    LDX1    0,DU
        25 001234   200030 470500                    LDP0    OP$,,AUTO
        25 001235   000000 441100                    SXL1    0,,PR0

  18060 25 001236   200030 470500                    LDP0    OP$,,AUTO
        25 001237   000000 471400 23                 LDP1    HEAP$
PL6.E3A0      #003=Z8ET$DEFERED_SUM_AND_SOURCE File=Z8ET.:Z8A6TSI                SAT 08/09/97 12:45 Page:145
        25 001240   100000 236100                    LDQ     0,,PR1
        25 001241   000000 676100                    ERQ     0,,PR0
        25 001242   400000 376007                    ANQ     -131072,DL
        25 001243   000000 656100                    ERSQ    0,,PR0

  18065 25 001244   000000 470400 23                 LDP0    HEAP$
        25 001245   200030 471500                    LDP1    OP$,,AUTO
        25 001246   000005 235100                    LDA     5,,PR0
        25 001247   100005 755100                    STA     5,,PR1

  18066 25 001250   200030 471500                    LDP1    OP$,,AUTO
        25 001251   000006 235100                    LDA     6,,PR0
        25 001252   100006 755100                    STA     6,,PR1

  18067 25 001253   000000 236000 23                 LDQ     HEAP$
        25 001254   200030 471500                    LDP1    OP$,,AUTO
        25 001255   100002 756100                    STQ     2,,PR1

  18068 25 001256   200031 236100                    LDQ     TREE$,,AUTO
        25 001257   200030 471500                    LDP1    OP$,,AUTO
        25 001260   100001 756100                    STQ     1,,PR1

  18069 25 001261   000020 235007                    LDA     16,DL
        25 001262   200030 471500                    LDP1    OP$,,AUTO
        25 001263   100003 755100                    STA     3,,PR1

  18070 25 001264   000003 236000 26                 LDQ     3
        25 001265   200030 471500                    LDP1    OP$,,AUTO
        25 001266   100007 756100                    STQ     7,,PR1

      945    18073
      946    18074    5                TREE$ = HEAP$;

  18074 25 001267   000000 236000 23                 LDQ     HEAP$
        25 001270   200031 756100                    STQ     TREE$,,AUTO

      947    18075    5                HEAP$ = TREE$ -> LX_ITEM.LINK;
PL6.E3A0      #003=Z8ET$DEFERED_SUM_AND_SOURCE File=Z8ET.:Z8A6TSI                SAT 08/09/97 12:45 Page:146

  18075 25 001271   200031 471500                    LDP1    TREE$,,AUTO
        25 001272   100007 236100                    LDQ     7,,PR1
        25 001273   000000 756000 23                 STQ     HEAP$

      948    18076    5                TREE$ -> LX_ITEM.LINK = ADDR(NIL);

  18076 25 001274   000003 236000 26                 LDQ     3
        25 001275   100007 756100                    STQ     7,,PR1

      949    18077    5                TREE$ = OP$;

  18077 25 001276   200030 236100                    LDQ     OP$,,AUTO
        25 001277   200031 756100                    STQ     TREE$,,AUTO

      950    18078
      951    18079    5              END; /* WHILE */

  18079 25 001300   000000 236000 23                 LDQ     HEAP$
        25 001301   000003 116000 26                 CMPQ    3
        25 001302   001220 601000 25                 TNZ     s:18044

      952    18080
      953    18081                   %NEW_HEAP (@POINTER = SUM_LX_ETT$);

  18083 25 001303   000013 236000 26                 LDQ     11
        25 001304   200043 756100                    STQ     ST$$+2,,AUTO
        25 001305   200032 630500                    EPPR0   SUM_LX_ETT$,,AUTO
        25 001306   200042 450500                    STP0    ST$$+1,,AUTO
        25 001307   200042 630500                    EPPR0   ST$$+1,,AUTO
        25 001310   000011 631400 26                 EPPR1   9
        25 001311   000000 701000 xent               TSX1    Z8ED$NEW_HEAP
        25 001312   000000 011000                    NOP     0

      954    18086
      955    18087                   %INIT_LX_ETT_ITEM (@POINTER = SUM_LX_ETT$,
      956    18088                                      @TYPE    = %TYD,
PL6.E3A0      #003=Z8ET$DEFERED_SUM_AND_SOURCE File=Z8ET.:Z8A6TSI                SAT 08/09/97 12:45 Page:147
      957    18089                      @ETT$ = VAR_LTS$ -> REPORT_ELEM_LTS.SUM_LTS$ -> SUM_LTS.SUM_ST_ILL$,
      958    18090                                      @LINE    = LINE_NO#,
      959    18091                                      @COLUMN  = 0);

  18093 25 001313   000004 220003                    LDX0    4,DU
        25 001314   200032 470500                    LDP0    SUM_LX_ETT$,,AUTO
        25 001315   000000 740100                    STX0    0,,PR0

  18094 25 001316   000000 221003                    LDX1    0,DU
        25 001317   200032 470500                    LDP0    SUM_LX_ETT$,,AUTO
        25 001320   000000 441100                    SXL1    0,,PR0

  18095 25 001321   200032 470500                    LDP0    SUM_LX_ETT$,,AUTO
        25 001322   000004 450100                    STZ     4,,PR0

  18096 25 001323   000003 236000 26                 LDQ     3
        25 001324   200032 470500                    LDP0    SUM_LX_ETT$,,AUTO
        25 001325   000007 756100                    STQ     7,,PR0

  18097 25 001326   200022 470500                    LDP0    @VAR_LTS$,,AUTO
        25 001327   000000 471500                    LDP1    0,,PR0
        25 001330   100012 473500                    LDP3    10,,PR1
        25 001331   300004 236100                    LDQ     4,,PR3
        25 001332   200032 474500                    LDP4    SUM_LX_ETT$,,AUTO
        25 001333   400001 756100                    STQ     1,,PR4

  18098 25 001334   000003 236000 26                 LDQ     3
        25 001335   200032 471500                    LDP1    SUM_LX_ETT$,,AUTO
        25 001336   100002 756100                    STQ     2,,PR1

  18100 25 001337   200033 235100                    LDA     LINE_NO#,,AUTO
        25 001340   200032 471500                    LDP1    SUM_LX_ETT$,,AUTO
        25 001341   100005 755100                    STA     5,,PR1

  18101 25 001342   200032 471500                    LDP1    SUM_LX_ETT$,,AUTO
        25 001343   100006 450100                    STZ     6,,PR1

PL6.E3A0      #003=Z8ET$DEFERED_SUM_AND_SOURCE File=Z8ET.:Z8A6TSI                SAT 08/09/97 12:45 Page:148
      960    18113
      961    18114                     %NEW (@TEMPLATE = BINARY_OP,
      962    18115                           @POINTER  = OP$);

  18121 25 001344   000013 236000 26                 LDQ     11
        25 001345   200043 756100                    STQ     ST$$+2,,AUTO
        25 001346   200030 631500                    EPPR1   OP$,,AUTO
        25 001347   200042 451500                    STP1    ST$$+1,,AUTO
        25 001350   200042 630500                    EPPR0   ST$$+1,,AUTO
        25 001351   000011 631400 26                 EPPR1   9
        25 001352   000000 701000 xent               TSX1    Z8ED$NEW_HEAP
        25 001353   000000 011000                    NOP     0

      963    18125
      964    18126                     %INIT_BINARY_OP (@POINTER = OP$,
      965    18127                                      @LINE    = LINE_NO#,
      966    18128                                      @COLUMN  = 0,
      967    18129                                      @ROP$    = TREE$,
      968    18130                                      @LOP$    = SUM_LX_ETT$,
      969    18131                                      @OP      = %OP_PLUS);

  18133 25 001354   000005 220003                    LDX0    5,DU
        25 001355   200030 470500                    LDP0    OP$,,AUTO
        25 001356   000000 740100                    STX0    0,,PR0

  18134 25 001357   000000 221003                    LDX1    0,DU
        25 001360   200030 470500                    LDP0    OP$,,AUTO
        25 001361   000000 441100                    SXL1    0,,PR0

  18141 25 001362   200033 235100                    LDA     LINE_NO#,,AUTO
        25 001363   200030 470500                    LDP0    OP$,,AUTO
        25 001364   000005 755100                    STA     5,,PR0

  18142 25 001365   200030 470500                    LDP0    OP$,,AUTO
        25 001366   000006 450100                    STZ     6,,PR0

  18143 25 001367   200031 236100                    LDQ     TREE$,,AUTO
PL6.E3A0      #003=Z8ET$DEFERED_SUM_AND_SOURCE File=Z8ET.:Z8A6TSI                SAT 08/09/97 12:45 Page:149
        25 001370   200030 470500                    LDP0    OP$,,AUTO
        25 001371   000002 756100                    STQ     2,,PR0

  18144 25 001372   200032 236100                    LDQ     SUM_LX_ETT$,,AUTO
        25 001373   200030 470500                    LDP0    OP$,,AUTO
        25 001374   000001 756100                    STQ     1,,PR0

  18145 25 001375   000020 236007                    LDQ     16,DL
        25 001376   200030 470500                    LDP0    OP$,,AUTO
        25 001377   000003 756100                    STQ     3,,PR0

  18146 25 001400   000003 236000 26                 LDQ     3
        25 001401   200030 470500                    LDP0    OP$,,AUTO
        25 001402   000007 756100                    STQ     7,,PR0

      970    18149
      971    18150    4              OP$ -> BINARY_OP.LINK = UPON_LTS$ -> REPORT_01_LTS.SPECIAL_SUBTOTAL$;

  18150 25 001403   200023 470500                    LDP0    UPON_LTS$,,AUTO
        25 001404   000016 236100                    LDQ     14,,PR0
        25 001405   200030 471500                    LDP1    OP$,,AUTO
        25 001406   100007 756100                    STQ     7,,PR1

      972    18151    4              UPON_LTS$ -> REPORT_01_LTS.SPECIAL_SUBTOTAL$ = OP$;

  18151 25 001407   200030 236100                    LDQ     OP$,,AUTO
        25 001410   000016 756100                    STQ     14,,PR0

      973    18152
      974    18153    4            END; /* DO */

      975    18154
      976    18155    3          UPON$$ = UPON$$ -> LX_LIST.LINK;

  18155 25 001411   200026 470500                    LDP0    UPON$$,,AUTO
        25 001412   000007 236100                    LDQ     7,,PR0
        25 001413   200026 756100                    STQ     UPON$$,,AUTO
PL6.E3A0      #003=Z8ET$DEFERED_SUM_AND_SOURCE File=Z8ET.:Z8A6TSI                SAT 08/09/97 12:45 Page:150

      977    18156
      978    18157    3        END;

  18157 25 001414   000003 116000 26                 CMPQ    3
        25 001415   001014 601000 25                 TNZ     s:17929

      979    18158
      980    18159
      981    18160
      982    18161
      983    18162    2    RETURN;

  18162 25 001416   200020 221300                    LDX1  ! ID$$+2,,AUTO
        25 001417   000001 702211                    TSX2  ! 1,X1

      984    18163    2    END BUILD_SUM_W_UPON;
      985    18164         %EJECT;
PL6.E3A0      #003=Z8ET$DEFERED_SUM_AND_SOURCE File=Z8ET.:Z8A6TSI                SAT 08/09/97 12:45 Page:151
      986    18165
      987    18166         /*================*/
      988    18167    1      BUILD_SUM_N_UPON: PROC (SUM_CLAUSE$, VAR_LTS$);

  18167 25 001420   200020 741300       BUILD_SUM_N* STX1  ! ID$$+2,,AUTO

      989    18168         /*================*/
      990    18169
      991    18170        /*I*
      992    18171
      993    18172             NAME:  BUILD_SUM_N_UPON
      994    18173
      995    18174          DESCRIPTION: This routine validate the items in the SUM clause
      996    18175                       then an abstract syntax tree for a "plus" operation
      997    18176                       is built, in the later tim this tree will be used
      998    18177                       to generate the cross footing/rolling forward
      999    18178                       subroutine or the general subtotalling subroutine.
     1000    18179        */
     1001    18180
     1002    18181
     1003    18182    2   DCL SUM_CLAUSE$         PTR;
     1004    18183    2   DCL VAR_LTS$            PTR;
     1005    18184    2   DCL CTR_LTS$           PTR;
     1006    18185    2   DCL LX_ETT$            PTR;
     1007    18186    2   DCL ST$$               PTR;
     1008    18187    2   DCL SUM_BIT_ON         BIT (1) ALIGNED;
     1009    18188    2   DCL ELEM_LTS$          PTR;
     1010    18189    2   DCL OP$                PTR;
     1011    18190    2   DCL ITEM$              PTR;
     1012    18191    2   DCL SUM_LX_ETT$        PTR;
     1013    18192    2   DCL LINE_NO#           SBIN WORD;
     1014    18193
     1015    18194
     1016    18195    2          LINE_NO# = VAR_LTS$ -> REPORT_ELEM_LTS.ST$ -> ST.LINE_NO;

  18195 25 001421   200022 470500                    LDP0    @VAR_LTS$,,AUTO
        25 001422   000000 471500                    LDP1    0,,PR0
PL6.E3A0      #003=Z8ET$DEFERED_SUM_AND_SOURCE File=Z8ET.:Z8A6TSI                SAT 08/09/97 12:45 Page:152
        25 001423   100003 473500                    LDP3    3,,PR1
        25 001424   300002 236100                    LDQ     2,,PR3
        25 001425   777777 376007                    ANQ     -1,DL
        25 001426   200033 756100                    STQ     LINE_NO#,,AUTO

     1017    18196    2          LX_ETT$ = SUM_CLAUSE$ -> DEFERED_SUM_CLAUSE.DEFERED_ID$ -> LX_LIST.HEAD$;

  18196 25 001427   200021 474500                    LDP4    @SUM_CLAUSE$,,AUTO
        25 001430   400000 475500                    LDP5    0,,PR4
        25 001431   500001 476500                    LDP6    1,,PR5
        25 001432   600004 236100                    LDQ     4,,PR6
        25 001433   200024 756100                    STQ     LX_ETT$,,AUTO

     1018    18197
     1019    18198    3      DO WHILE (LX_ETT$ ~= ADDR(NIL));

  18198 25 001434   001722 710000 25                 TRA     s:18335

     1020    18199
     1021    18200    4        DO CASE (LX_ETT$ -> LX_ETT_ITEM.TYPE);

  18200 25 001435   200024 470500                    LDP0    LX_ETT$,,AUTO
        25 001436   000004 235100                    LDA     4,,PR0
        25 001437   000024 115007                    CMPA    20,DL
        25 001440   001442 602005 25                 TNC     s:18200+5,AL
        25 001441   001551 710000 25                 TRA     s:18240
        25 001442   001466 710000 25                 TRA     s:18211
        25 001443   001466 710000 25                 TRA     s:18211
        25 001444   001466 710000 25                 TRA     s:18211
        25 001445   001466 710000 25                 TRA     s:18211
        25 001446   001466 710000 25                 TRA     s:18211
        25 001447   001466 710000 25                 TRA     s:18211
        25 001450   001551 710000 25                 TRA     s:18240
        25 001451   001466 710000 25                 TRA     s:18211
        25 001452   001551 710000 25                 TRA     s:18240
        25 001453   001551 710000 25                 TRA     s:18240
        25 001454   001551 710000 25                 TRA     s:18240
PL6.E3A0      #003=Z8ET$DEFERED_SUM_AND_SOURCE File=Z8ET.:Z8A6TSI                SAT 08/09/97 12:45 Page:153
        25 001455   001466 710000 25                 TRA     s:18211
        25 001456   001551 710000 25                 TRA     s:18240
        25 001457   001551 710000 25                 TRA     s:18240
        25 001460   001551 710000 25                 TRA     s:18240
        25 001461   001466 710000 25                 TRA     s:18211
        25 001462   001551 710000 25                 TRA     s:18240
        25 001463   001551 710000 25                 TRA     s:18240
        25 001464   001551 710000 25                 TRA     s:18240
        25 001465   001466 710000 25                 TRA     s:18211

     1022    18201
     1023    18202    4          CASE (

     1024    18203                     %SET_OF_NUMERIC_TYPES;
     1025    18206    4               );
     1026    18207
     1027    18208                   %FISH (TRIAD = LX_ETT$ -> LX_ETT_ITEM.ETT$,
     1028    18209                          RTN   = ST$$);

  18211 25 001466   000001 236100                    LDQ     1,,PR0
        25 001467   200025 756100                    STQ     ST$$,,AUTO

  18212 25 001470   200025 471500                    LDP1    ST$$,,AUTO
        25 001471   100000 220100                    LDX0    0,,PR1
        25 001472   000751 100003                    CMPX0   489,DU
        25 001473   001503 603000 25                 TRC     s:18218

  18213 25 001474   200025 470500                    LDP0    ST$$,,AUTO
        25 001475   000001 236100                    LDQ     1,,PR0
        25 001476   200025 756100                    STQ     ST$$,,AUTO

  18214 25 001477   200025 470500                    LDP0    ST$$,,AUTO
        25 001500   000000 220100                    LDX0    0,,PR0
        25 001501   000751 100003                    CMPX0   489,DU
        25 001502   001474 602000 25                 TNC     s:18213

     1029    18217
PL6.E3A0      #003=Z8ET$DEFERED_SUM_AND_SOURCE File=Z8ET.:Z8A6TSI                SAT 08/09/97 12:45 Page:154
     1030    18218    4              CALL  REP_ITEM_CHECK (LX_ETT$,

  18218 25 001503   000027 236000 26                 LDQ     23
        25 001504   200040 756100                    STQ     @ERR_NUMBER,,AUTO
        25 001505   200027 630500                    EPPR0   ELEM_LTS$,,AUTO
        25 001506   200037 450500                    STP0    @ELEM_LTS$,,AUTO
        25 001507   200026 631500                    EPPR1   SUM_BIT_ON,,AUTO
        25 001510   200036 451500                    STP1    @SUM_BIT,,AUTO
        25 001511   200024 633500                    EPPR3   LX_ETT$,,AUTO
        25 001512   200035 453500                    STP3    RSV_WRD#,,AUTO
        25 001513   000062 701000 25                 TSX1    REP_ITEM_CHECK
        25 001514   000000 011000                    NOP     0

     1031    18219    4                                    SUM_BIT_ON,
     1032    18220    4                                    ELEM_LTS$,
     1033    18221    4                                    %E$SUM_IN_SAME_REPORT);
     1034    18222
     1035    18223    4              IF SUM_BIT_ON THEN

  18223 25 001515   200026 234100                    SZN     SUM_BIT_ON,,AUTO
        25 001516   001573 605000 25                 TPL     s:18250

     1036    18224    5                DO;

     1037    18225    5                  CTR_LTS$ = ELEM_LTS$ -> REPORT_ELEM_LTS.SUM_LTS$ ->

  18225 25 001517   200027 470500                    LDP0    ELEM_LTS$,,AUTO
        25 001520   000012 471500                    LDP1    10,,PR0
        25 001521   100006 473500                    LDP3    6,,PR1
        25 001522   300014 236100                    LDQ     12,,PR3
        25 001523   200023 756100                    STQ     CTR_LTS$,,AUTO

     1038    18226    5                             SUM_LTS.REPORT_01_LTS$ -> REPORT_01_LTS.CONTROL_LTS$;
     1039    18227    5                  IF CTR_LTS$ -> CONTROL_NAME_LTS.LEVEL <

  18227 25 001524   200022 474500                    LDP4    @VAR_LTS$,,AUTO
        25 001525   400000 475500                    LDP5    0,,PR4
PL6.E3A0      #003=Z8ET$DEFERED_SUM_AND_SOURCE File=Z8ET.:Z8A6TSI                SAT 08/09/97 12:45 Page:155
        25 001526   500012 476500                    LDP6    10,,PR5
        25 001527   600006 477500                    LDP7    6,,PR6
        25 001530   700014 470500                    LDP0    12,,PR7
        25 001531   200023 471500                    LDP1    CTR_LTS$,,AUTO
        25 001532   100007 236100                    LDQ     7,,PR1
        25 001533   000007 116100                    CMPQ    7,,PR0
        25 001534   001573 605000 25                 TPL     s:18250

     1040    18228    5                     VAR_LTS$ -> REPORT_ELEM_LTS.SUM_LTS$ -> SUM_LTS.REPORT_01_LTS$ ->
     1041    18229    5                     REPORT_01_LTS.CONTROL_LTS$ -> CONTROL_NAME_LTS.LEVEL THEN
     1042    18230    6                    DO;

     1043    18231    6                      CALL Z8AE$ERROR (%E$EQU_OR_LOWER_LVL_SUM,

  18231 25 001535   200024 236100                    LDQ     LX_ETT$,,AUTO
        25 001536   000006 036003                    ADLQ    6,DU
        25 001537   200044 756100                    STQ     ST$$+3,,AUTO
        25 001540   200024 236100                    LDQ     LX_ETT$,,AUTO
        25 001541   000005 036003                    ADLQ    5,DU
        25 001542   000031 235000 26                 LDA     25
        25 001543   200042 757100                    STAQ    ST$$+1,,AUTO
        25 001544   200042 630500                    EPPR0   ST$$+1,,AUTO
        25 001545   000005 631400 26                 EPPR1   5
        25 001546   000000 701000 xent               TSX1    Z8AE$ERROR
        25 001547   000000 011000                    NOP     0

     1044    18232    6                                       LX_ETT$ -> LX_ITEM.LINE,
     1045    18233    6                                       LX_ETT$ -> LX_ITEM.COLUMN);
     1046    18234
     1047    18235    6                    END;

     1048    18236    5                END;

  18236 25 001550   001573 710000 25                 TRA     s:18250

     1049    18237
     1050    18238    4          CASE (ELSE);
PL6.E3A0      #003=Z8ET$DEFERED_SUM_AND_SOURCE File=Z8ET.:Z8A6TSI                SAT 08/09/97 12:45 Page:156

     1051    18239
     1052    18240    4              CALL Z8AE$ERROR (%E$NUMERIC_TYPE_EXPECTED,

  18240 25 001551   200024 236100                    LDQ     LX_ETT$,,AUTO
        25 001552   000006 036003                    ADLQ    6,DU
        25 001553   200044 756100                    STQ     ST$$+3,,AUTO
        25 001554   200024 236100                    LDQ     LX_ETT$,,AUTO
        25 001555   000005 036003                    ADLQ    5,DU
        25 001556   000023 235000 26                 LDA     19
        25 001557   200042 757100                    STAQ    ST$$+1,,AUTO
        25 001560   200042 630500                    EPPR0   ST$$+1,,AUTO
        25 001561   000005 631400 26                 EPPR1   5
        25 001562   000000 701000 xent               TSX1    Z8AE$ERROR
        25 001563   000000 011000                    NOP     0

     1053    18241    4                               LX_ETT$ -> LX_ITEM.LINE,
     1054    18242    4                               LX_ETT$ -> LX_ITEM.COLUMN);
     1055    18243
     1056    18244    4              LX_ETT$ -> LX_ETT_ITEM.ETT$ = COMCOM.VALUE_0;

  18244 25 001564   000124 236000 xsym               LDQ     COMCOM+84
        25 001565   200024 470500                    LDP0    LX_ETT$,,AUTO
        25 001566   000001 756100                    STQ     1,,PR0

     1057    18245    4              LX_ETT$ -> LX_ETT_ITEM.TYPE = %TYI;

  18245 25 001567   000001 235007                    LDA     1,DL
        25 001570   200024 470500                    LDP0    LX_ETT$,,AUTO
        25 001571   000004 755100                    STA     4,,PR0

     1058    18246    4              SUM_BIT_ON = FALSE;

  18246 25 001572   200026 450100                    STZ     SUM_BIT_ON,,AUTO

     1059    18247
     1060    18248    4        END; /* DO CASE */
PL6.E3A0      #003=Z8ET$DEFERED_SUM_AND_SOURCE File=Z8ET.:Z8A6TSI                SAT 08/09/97 12:45 Page:157

     1061    18249
     1062    18250    3        ITEM$ = LX_ETT$;

  18250 25 001573   200024 236100                    LDQ     LX_ETT$,,AUTO
        25 001574   200031 756100                    STQ     ITEM$,,AUTO

     1063    18251    3        LX_ETT$ = ITEM$ -> LX_ITEM.LINK;

  18251 25 001575   200031 470500                    LDP0    ITEM$,,AUTO
        25 001576   000007 236100                    LDQ     7,,PR0
        25 001577   200024 756100                    STQ     LX_ETT$,,AUTO

     1064    18252    3        ITEM$ -> LX_ITEM.LINK = ADDR(NIL);

  18252 25 001600   000003 236000 26                 LDQ     3
        25 001601   000007 756100                    STQ     7,,PR0

     1065    18253
     1066    18254                   %NEW_HEAP (@POINTER = SUM_LX_ETT$);

  18256 25 001602   000013 236000 26                 LDQ     11
        25 001603   200043 756100                    STQ     ST$$+2,,AUTO
        25 001604   200032 631500                    EPPR1   SUM_LX_ETT$,,AUTO
        25 001605   200042 451500                    STP1    ST$$+1,,AUTO
        25 001606   200042 630500                    EPPR0   ST$$+1,,AUTO
        25 001607   000011 631400 26                 EPPR1   9
        25 001610   000000 701000 xent               TSX1    Z8ED$NEW_HEAP
        25 001611   000000 011000                    NOP     0

     1067    18259
     1068    18260                   %INIT_LX_ETT_ITEM (@POINTER = SUM_LX_ETT$,
     1069    18261                                      @TYPE    = %TYD,
     1070    18262                      @ETT$ = VAR_LTS$ -> REPORT_ELEM_LTS.SUM_LTS$ -> SUM_LTS.SUM_ST_ILL$,
     1071    18263                                      @LINE    = LINE_NO#,
     1072    18264                                      @COLUMN  = 0);

PL6.E3A0      #003=Z8ET$DEFERED_SUM_AND_SOURCE File=Z8ET.:Z8A6TSI                SAT 08/09/97 12:45 Page:158
  18266 25 001612   000004 220003                    LDX0    4,DU
        25 001613   200032 470500                    LDP0    SUM_LX_ETT$,,AUTO
        25 001614   000000 740100                    STX0    0,,PR0

  18267 25 001615   000000 221003                    LDX1    0,DU
        25 001616   200032 470500                    LDP0    SUM_LX_ETT$,,AUTO
        25 001617   000000 441100                    SXL1    0,,PR0

  18268 25 001620   200032 470500                    LDP0    SUM_LX_ETT$,,AUTO
        25 001621   000004 450100                    STZ     4,,PR0

  18269 25 001622   000003 236000 26                 LDQ     3
        25 001623   200032 470500                    LDP0    SUM_LX_ETT$,,AUTO
        25 001624   000007 756100                    STQ     7,,PR0

  18270 25 001625   200022 470500                    LDP0    @VAR_LTS$,,AUTO
        25 001626   000000 471500                    LDP1    0,,PR0
        25 001627   100012 473500                    LDP3    10,,PR1
        25 001630   300004 236100                    LDQ     4,,PR3
        25 001631   200032 474500                    LDP4    SUM_LX_ETT$,,AUTO
        25 001632   400001 756100                    STQ     1,,PR4

  18271 25 001633   000003 236000 26                 LDQ     3
        25 001634   200032 471500                    LDP1    SUM_LX_ETT$,,AUTO
        25 001635   100002 756100                    STQ     2,,PR1

  18273 25 001636   200033 235100                    LDA     LINE_NO#,,AUTO
        25 001637   200032 471500                    LDP1    SUM_LX_ETT$,,AUTO
        25 001640   100005 755100                    STA     5,,PR1

  18274 25 001641   200032 471500                    LDP1    SUM_LX_ETT$,,AUTO
        25 001642   100006 450100                    STZ     6,,PR1

     1073    18286
     1074    18287                     %NEW (@TEMPLATE = BINARY_OP,
     1075    18288                           @POINTER  = OP$);

PL6.E3A0      #003=Z8ET$DEFERED_SUM_AND_SOURCE File=Z8ET.:Z8A6TSI                SAT 08/09/97 12:45 Page:159
  18294 25 001643   000013 236000 26                 LDQ     11
        25 001644   200043 756100                    STQ     ST$$+2,,AUTO
        25 001645   200030 631500                    EPPR1   OP$,,AUTO
        25 001646   200042 451500                    STP1    ST$$+1,,AUTO
        25 001647   200042 630500                    EPPR0   ST$$+1,,AUTO
        25 001650   000011 631400 26                 EPPR1   9
        25 001651   000000 701000 xent               TSX1    Z8ED$NEW_HEAP
        25 001652   000000 011000                    NOP     0

     1076    18298
     1077    18299                     %INIT_BINARY_OP (@POINTER = OP$,
     1078    18300                                      @LINE    = LINE_NO#,
     1079    18301                                      @COLUMN  = 0,
     1080    18302                                      @ROP$    = ITEM$,
     1081    18303                                      @LOP$    = SUM_LX_ETT$,
     1082    18304                                      @OP      = %OP_PLUS);

  18306 25 001653   000005 220003                    LDX0    5,DU
        25 001654   200030 470500                    LDP0    OP$,,AUTO
        25 001655   000000 740100                    STX0    0,,PR0

  18307 25 001656   000000 221003                    LDX1    0,DU
        25 001657   200030 470500                    LDP0    OP$,,AUTO
        25 001660   000000 441100                    SXL1    0,,PR0

  18314 25 001661   200033 235100                    LDA     LINE_NO#,,AUTO
        25 001662   200030 470500                    LDP0    OP$,,AUTO
        25 001663   000005 755100                    STA     5,,PR0

  18315 25 001664   200030 470500                    LDP0    OP$,,AUTO
        25 001665   000006 450100                    STZ     6,,PR0

  18316 25 001666   200031 236100                    LDQ     ITEM$,,AUTO
        25 001667   200030 470500                    LDP0    OP$,,AUTO
        25 001670   000002 756100                    STQ     2,,PR0

  18317 25 001671   200032 236100                    LDQ     SUM_LX_ETT$,,AUTO
PL6.E3A0      #003=Z8ET$DEFERED_SUM_AND_SOURCE File=Z8ET.:Z8A6TSI                SAT 08/09/97 12:45 Page:160
        25 001672   200030 470500                    LDP0    OP$,,AUTO
        25 001673   000001 756100                    STQ     1,,PR0

  18318 25 001674   000020 236007                    LDQ     16,DL
        25 001675   200030 470500                    LDP0    OP$,,AUTO
        25 001676   000003 756100                    STQ     3,,PR0

  18319 25 001677   000003 236000 26                 LDQ     3
        25 001700   200030 470500                    LDP0    OP$,,AUTO
        25 001701   000007 756100                    STQ     7,,PR0

     1083    18322
     1084    18323    3              IF SUM_BIT_ON THEN

  18323 25 001702   200026 234100                    SZN     SUM_BIT_ON,,AUTO
        25 001703   001713 605000 25                 TPL     s:18331

     1085    18324    4                DO;

     1086    18325    4                  OP$ -> BINARY_OP.LINK = CTR_LTS$ -> CONTROL_NAME_LTS.SUM_SUBTOTAL$;

  18325 25 001704   200023 470500                    LDP0    CTR_LTS$,,AUTO
        25 001705   000005 236100                    LDQ     5,,PR0
        25 001706   200030 471500                    LDP1    OP$,,AUTO
        25 001707   100007 756100                    STQ     7,,PR1

     1087    18326    4                  CTR_LTS$ -> CONTROL_NAME_LTS.SUM_SUBTOTAL$ = OP$;

  18326 25 001710   200030 236100                    LDQ     OP$,,AUTO
        25 001711   000005 756100                    STQ     5,,PR0

     1088    18327
     1089    18328    4                END;

  18328 25 001712   001722 710000 25                 TRA     s:18335

     1090    18329    3              ELSE
PL6.E3A0      #003=Z8ET$DEFERED_SUM_AND_SOURCE File=Z8ET.:Z8A6TSI                SAT 08/09/97 12:45 Page:161
     1091    18330    4                DO;

     1092    18331    4                  OP$ -> BINARY_OP.LINK = O1COM.CURRENT_REPORT_LTS$ ->

  18331 25 001713   000064 470400 xsym               LDP0    O1COM+52
        25 001714   000010 236100                    LDQ     8,,PR0
        25 001715   200030 471500                    LDP1    OP$,,AUTO
        25 001716   100007 756100                    STQ     7,,PR1

     1093    18332    4                                          REPORT_LTS.GENERAL_SUBTOTAL$;
     1094    18333    4                  O1COM.CURRENT_REPORT_LTS$ -> REPORT_LTS.GENERAL_SUBTOTAL$ = OP$;

  18333 25 001717   200030 236100                    LDQ     OP$,,AUTO
        25 001720   000064 470400 xsym               LDP0    O1COM+52
        25 001721   000010 756100                    STQ     8,,PR0

     1095    18334    4                END;

     1096    18335    3            END; /* WHILE */

  18335 25 001722   200024 236100                    LDQ     LX_ETT$,,AUTO
        25 001723   000003 116000 26                 CMPQ    3
        25 001724   001435 601000 25                 TNZ     s:18200

     1097    18336
     1098    18337               %INIT_LX_LIST (@POINTER = SUM_CLAUSE$ -> DEFERED_SUM_CLAUSE.DEFERED_ID$);

  18339 25 001725   200021 470500                    LDP0    @SUM_CLAUSE$,,AUTO
        25 001726   000000 471500                    LDP1    0,,PR0
        25 001727   100001 473500                    LDP3    1,,PR1
        25 001730   000002 220003                    LDX0    2,DU
        25 001731   300000 740100                    STX0    0,,PR3

  18340 25 001732   000000 471500                    LDP1    0,,PR0
        25 001733   100001 473500                    LDP3    1,,PR1
        25 001734   000000 221003                    LDX1    0,DU
        25 001735   300000 441100                    SXL1    0,,PR3
PL6.E3A0      #003=Z8ET$DEFERED_SUM_AND_SOURCE File=Z8ET.:Z8A6TSI                SAT 08/09/97 12:45 Page:162

  18341 25 001736   000000 471500                    LDP1    0,,PR0
        25 001737   100001 473500                    LDP3    1,,PR1
        25 001740   000003 236000 26                 LDQ     3
        25 001741   300001 756100                    STQ     1,,PR3

  18342 25 001742   000000 471500                    LDP1    0,,PR0
        25 001743   100001 473500                    LDP3    1,,PR1
        25 001744   000003 236000 26                 LDQ     3
        25 001745   300004 756100                    STQ     4,,PR3

  18343 25 001746   000000 471500                    LDP1    0,,PR0
        25 001747   100001 473500                    LDP3    1,,PR1
        25 001750   300007 756100                    STQ     7,,PR3

  18344 25 001751   000000 471500                    LDP1    0,,PR0
        25 001752   100001 473500                    LDP3    1,,PR1
        25 001753   300002 450100                    STZ     2,,PR3

     1099    18347
     1100    18348    2    END BUILD_SUM_N_UPON;

  18348 25 001754   200020 221300                    LDX1  ! ID$$+2,,AUTO
        25 001755   000001 702211                    TSX2  ! 1,X1

     1101    18349         %EJECT;
PL6.E3A0      #003=Z8ET$DEFERED_SUM_AND_SOURCE File=Z8ET.:Z8A6TSI                SAT 08/09/97 12:45 Page:163
     1102    18350
     1103    18351         /*=============*/
     1104    18352    1      GENERATE_SUBS: PROC;

  18352 25 001756   200010 741300       GENERATE_SU* STX1  ! NEXT$,,AUTO

     1105    18353         /*=============*/
     1106    18354
     1107    18355        /*I*
     1108    18356
     1109    18357             NAME:  GENERATE_SUBS
     1110    18358
     1111    18359          DESCRIPTION: This routine steps through the COMCOM.FILE_LTS_CHAIN$
     1112    18360                       and generates all the run time subroutines for every
     1113    18361                       report on the top of the procedure division. Reason
     1114    18362                       to do that is to solve the problem of phase 1 heap
     1115    18363                       not returned, or else the run time subroutines will be
     1116    18364                       generated on processing the INITIATE statement.
     1117    18365        */
     1118    18366
     1119    18367    2   DCL FILE_LTS$          PTR;
     1120    18368    2   DCL REP_LTS$           PTR;
     1121    18369    2   DCL LABEL$             PTR;
     1122    18370
     1123    18371
     1124    18372
     1125    18373    2          CALL Z8AT$CREATE_TEMPORARY (%PARA, LABEL$);

  18373 25 001757   200013 630500                    EPPR0   LABEL$,,AUTO
        25 001760   200043 450500                    STP0    ST$$+2,,AUTO
        25 001761   000033 236000 26                 LDQ     27
        25 001762   200042 756100                    STQ     ST$$+1,,AUTO
        25 001763   200042 630500                    EPPR0   ST$$+1,,AUTO
        25 001764   000011 631400 26                 EPPR1   9
        25 001765   000000 701000 xent               TSX1    Z8AT$CREATE_TEMPORARY
        25 001766   000000 011000                    NOP     0

PL6.E3A0      #003=Z8ET$DEFERED_SUM_AND_SOURCE File=Z8ET.:Z8A6TSI                SAT 08/09/97 12:45 Page:164
     1126    18374
     1127    18375    2          CALL Z8EK$BRANCH (LABEL$);

  18375 25 001767   200013 630500                    EPPR0   LABEL$,,AUTO
        25 001770   200042 450500                    STP0    ST$$+1,,AUTO
        25 001771   200042 630500                    EPPR0   ST$$+1,,AUTO
        25 001772   000000 631400 26                 EPPR1   0
        25 001773   000000 701000 xent               TSX1    Z8EK$BRANCH
        25 001774   000000 011000                    NOP     0

     1128    18376
     1129    18377    2          FILE_LTS$ = COMCOM.FILE_LTS_CHAIN$;

  18377 25 001775   000434 236000 xsym               LDQ     COMCOM+284
        25 001776   200011 756100                    STQ     FILE_LTS$,,AUTO

     1130    18378
     1131    18379    3          DO WHILE(FILE_LTS$ ~= ADDR(NIL));

  18379 25 001777   002034 710000 25                 TRA     s:18401

     1132    18380
     1133    18381    3            IF FILE_LTS$ -> FILE_LTS.REPORT$ ~= ADDR(NIL) THEN

  18381 25 002000   200011 470500                    LDP0    FILE_LTS$,,AUTO
        25 002001   000040 236100                    LDQ     32,,PR0
        25 002002   000003 116000 26                 CMPQ    3
        25 002003   002031 600000 25                 TZE     s:18400

     1134    18382    4              DO;

     1135    18383    4                REP_LTS$ = FILE_LTS$ -> FILE_LTS.REPORT$;

  18383 25 002004   200012 756100                    STQ     REP_LTS$,,AUTO

     1136    18384
     1137    18385    5                DO WHILE (REP_LTS$ ~= ADDR(NIL));
PL6.E3A0      #003=Z8ET$DEFERED_SUM_AND_SOURCE File=Z8ET.:Z8A6TSI                SAT 08/09/97 12:45 Page:165

  18385 25 002005   002027 710000 25                 TRA     s:18397

     1138    18386
     1139    18387    5                  IF REP_LTS$ -> REPORT_LTS.PAGE_COUNTER$ ~= ADDR(NIL) AND

  18387 25 002006   200012 470500                    LDP0    REP_LTS$,,AUTO
        25 002007   000017 236100                    LDQ     15,,PR0
        25 002010   000003 116000 26                 CMPQ    3
        25 002011   002024 600000 25                 TZE     s:18395
        25 002012   000003 430100                    FSZN    3,,PR0
        25 002013   002024 604000 25                 TMI     s:18395

     1140    18388    5                     NOT REP_LTS$ -> REPORT_LTS.B.REFERENCED THEN
     1141    18389    6                    DO;

     1142    18390    6                      REP_LTS$ -> REPORT_LTS.B.REFERENCED = TRUE;

  18390 25 002014   001000 236003                    LDQ     512,DU
        25 002015   000003 256100                    ORSQ    3,,PR0

     1143    18391
     1144    18392    6                      CALL Z8ET$CREATE_SUBROUTINES (REP_LTS$);

  18392 25 002016   200012 630500                    EPPR0   REP_LTS$,,AUTO
        25 002017   200042 450500                    STP0    ST$$+1,,AUTO
        25 002020   200042 630500                    EPPR0   ST$$+1,,AUTO
        25 002021   000000 631400 26                 EPPR1   0
        25 002022   000000 701000 xent               TSX1    Z8ET$CREATE_SUBROUTINES
        25 002023   000000 011000                    NOP     0

     1145    18393    6                    END;

     1146    18394
     1147    18395    5                    REP_LTS$ = REP_LTS$ -> REPORT_LTS.LINK;

  18395 25 002024   200012 470500                    LDP0    REP_LTS$,,AUTO
PL6.E3A0      #003=Z8ET$DEFERED_SUM_AND_SOURCE File=Z8ET.:Z8A6TSI                SAT 08/09/97 12:45 Page:166
        25 002025   000043 236100                    LDQ     35,,PR0
        25 002026   200012 756100                    STQ     REP_LTS$,,AUTO

     1148    18396
     1149    18397    5                END; /* WHILE */

  18397 25 002027   000003 116000 26                 CMPQ    3
        25 002030   002006 601000 25                 TNZ     s:18387

     1150    18398    4            END;  /* IF */

     1151    18399
     1152    18400    3            FILE_LTS$ = FILE_LTS$ -> FILE_LTS.FILE_LTS_CHAIN$;

  18400 25 002031   200011 470500                    LDP0    FILE_LTS$,,AUTO
        25 002032   000003 236100                    LDQ     3,,PR0
        25 002033   200011 756100                    STQ     FILE_LTS$,,AUTO

     1153    18401    3          END; /* WHILE */

  18401 25 002034   000003 116000 26                 CMPQ    3
        25 002035   002000 601000 25                 TNZ     s:18381

     1154    18402
     1155    18403               %NEW_ILL (@ID     = %DEFLB,
     1156    18404                         @LABEL$ = LABEL$);

  18736 25 002036   000037 236000 26                 LDQ     31
        25 002037   200042 756100                    STQ     ST$$+1,,AUTO
        25 002040   200042 630500                    EPPR0   ST$$+1,,AUTO
        25 002041   200047 450500                    STP0    ST$$+6,,AUTO
        25 002042   000040 236000 26                 LDQ     32
        25 002043   200046 756100                    STQ     ST$$+5,,AUTO
        25 002044   000042 237000 26                 LDAQ    34
        25 002045   200044 757100                    STAQ    ST$$+3,,AUTO
        25 002046   200044 630500                    EPPR0   ST$$+3,,AUTO
        25 002047   000034 631400 26                 EPPR1   28
PL6.E3A0      #003=Z8ET$DEFERED_SUM_AND_SOURCE File=Z8ET.:Z8A6TSI                SAT 08/09/97 12:45 Page:167
        25 002050   000000 701000 xent               TSX1    Z8AN$NEW_ILL
        25 002051   000000 011000                    NOP     0

  18737 25 002052   200013 236100                    LDQ     LABEL$,,AUTO
        25 002053   000000 470400 12                 LDP0    ILL$
        25 002054   000001 756100                    STQ     1,,PR0

     1157    18783
     1158    18784    2    END GENERATE_SUBS;

  18784 25 002055   200010 221300                    LDX1  ! NEXT$,,AUTO
        25 002056   000001 702211                    TSX2  ! 1,X1

     1159    18785         %EJECT;
PL6.E3A0      #003=Z8ET$DEFERED_SUM_AND_SOURCE File=Z8ET.:Z8A6TSI                SAT 08/09/97 12:45 Page:168
     1160    18786
     1161    18787         /* main routine */
     1162    18788
     1163    18789    1      CALL CREATE_SOURCE_ETT;

  18789 25 002057   000003 701000 25                 TSX1    CREATE_SOURCE_ETT
        25 002060   000000 011000                    NOP     0

     1164    18790
     1165    18791    1      CALL CREATE_REPORT_SUM;

  18791 25 002061   000206 701000 25                 TSX1    CREATE_REPORT_SUM
        25 002062   000000 011000                    NOP     0

     1166    18792
     1167    18793    1    END Z8ET$DEFERED_SUM_AND_SOURCE;

  18793 25 002063   000000 702200 xent               TSX2  ! X66_ARET
     1168    18794         %EOD;

PL6.E3A0      #003=Z8ET$DEFERED_SUM_AND_SOURCE File=Z8ET.:Z8A6TSI                SAT 08/09/97 12:45 Page:169
--  Include file information  --

   Z8E_STATEMNT.:Z8A6TOU  is referenced.
   Z8E_ABSSYN.:Z8A6TOU  cannot be made into a system file and is referenced.
   Z8E_HEAP.:Z8A6TOU  cannot be made into a system file and is referenced.
   Z8D_PIC_PARM.:Z8A6TOU  is referenced.
   Z8E_NEW_ILL.:Z8A6TOU  is referenced.
   Z8E_MACROS.:Z8A6TOU  cannot be made into a system file and is referenced.
   Z8E_O1COM.:Z8A6TOU  cannot be made into a system file and is referenced.
   Z8E_WINDOW.:Z8A6TOU  is referenced.
   Z8A_LEX_SYMB.:Z8A6TOU  cannot be made into a system file and is referenced.
   Z8E_STACKS.:Z8A6TOU  cannot be made into a system file and is referenced.
   Z8A_MKCN.:Z8A6TOU  cannot be made into a system file and is referenced.
   Z8A_ETT.:Z8A6TOU  cannot be made into a system file and is referenced.
   Z8A_ILL.:Z8A6TOU  cannot be made into a system file and is referenced.
   Z8A_ERR_NUMS.:Z8A6TOU  is referenced.
   Z8A_DNT.:Z8A6TOU  cannot be made into a system file and is referenced.
   Z8A_TYPES.:Z8A6TOU  is referenced.
   Z8A_LTS.:Z8A6TOU  cannot be made into a system file and is referenced.
   Z8A_QLT.:Z8A6TOU  cannot be made into a system file and is referenced.
   Z8A_ST.:Z8A6TOU  cannot be made into a system file and is referenced.
   Z8A_COMCOM.:Z8A6TOU  cannot be made into a system file and is referenced.
   X8A_COM_MACS.:X8A6TOU  is referenced.
   Z8A_NAMES.:Z8A6TOU  is referenced.
   Z8A_SUPP_MAC.:Z8A6TOU  is referenced.
   Z8A_DEFC.:Z8A6TOU  cannot be made into a system file and is referenced.
      No diagnostics issued in procedure Z8ET$DEFERED_SUM_AND_SOURCE.
PL6.E3A0      #003=Z8ET$DEFERED_SUM_AND_SOURCE File=Z8ET.:Z8A6TSI                SAT 08/09/97 12:45 Page:170

 **** Variables and constants ****

  ****  Section 000 LblCom ITERATION

  ****  Scalars and arrays  ****
OctLoc.c.b A Datatyp(siz) R M Lvl/name                 OctLoc.c.b A Datatyp(siz) R M Lvl/name

     0-0-0/w SBIN              1 ITERATION

  ****  Section 001 LblCom ST$

  ****  Scalars and arrays  ****
OctLoc.c.b A Datatyp(siz) R M Lvl/name                 OctLoc.c.b A Datatyp(siz) R M Lvl/name

     0-0-0/w PTR         r     1 ST$

  ****  Section 002 LblCom ST_

  ****  Scalars and arrays  ****
OctLoc.c.b A Datatyp(siz) R M Lvl/name                 OctLoc.c.b A Datatyp(siz) R M Lvl/name

     0-0-0/w STRC(180)         1 ST_

  ****  Section 003 LblCom QLT$

  ****  Scalars and arrays  ****
OctLoc.c.b A Datatyp(siz) R M Lvl/name                 OctLoc.c.b A Datatyp(siz) R M Lvl/name

     0-0-0/w PTR         r     1 QLT$

  ****  Section 004 LblCom PREV_01_QLT$

  ****  Scalars and arrays  ****
OctLoc.c.b A Datatyp(siz) R M Lvl/name                 OctLoc.c.b A Datatyp(siz) R M Lvl/name

     0-0-0/w PTR               1 PREV_01_QLT$

PL6.E3A0      #003=Z8ET$DEFERED_SUM_AND_SOURCE File=Z8ET.:Z8A6TSI                SAT 08/09/97 12:45 Page:171
  ****  Section 005 LblCom QLT_

  ****  Scalars and arrays  ****
OctLoc.c.b A Datatyp(siz) R M Lvl/name                 OctLoc.c.b A Datatyp(siz) R M Lvl/name

     0-0-0/w STRC(180)         1 QLT_

  ****  Section 006 LblCom LTS$

  ****  Scalars and arrays  ****
OctLoc.c.b A Datatyp(siz) R M Lvl/name                 OctLoc.c.b A Datatyp(siz) R M Lvl/name

     0-0-0/w PTR               1 LONG_ITEM$                 0-0-0/w PTR         r     1 LTS$

  ****  Section 007 LblCom LTS_

  ****  Scalars and arrays  ****
OctLoc.c.b A Datatyp(siz) R M Lvl/name                 OctLoc.c.b A Datatyp(siz) R M Lvl/name

     0-0-0/w STRC(180)         1 LTS_

  ****  Section 008 LblCom DNT$

  ****  Scalars and arrays  ****
OctLoc.c.b A Datatyp(siz) R M Lvl/name                 OctLoc.c.b A Datatyp(siz) R M Lvl/name

     0-0-0/w PTR         r     1 DNT$

  ****  Section 009 LblCom DNT_

  ****  Scalars and arrays  ****
OctLoc.c.b A Datatyp(siz) R M Lvl/name                 OctLoc.c.b A Datatyp(siz) R M Lvl/name

     0-0-0/w STRC(180)         1 DNT_

  ****  Section 010 LblCom DNT_BUCKET_NUMBER

PL6.E3A0      #003=Z8ET$DEFERED_SUM_AND_SOURCE File=Z8ET.:Z8A6TSI                SAT 08/09/97 12:45 Page:172
  ****  Scalars and arrays  ****
OctLoc.c.b A Datatyp(siz) R M Lvl/name                 OctLoc.c.b A Datatyp(siz) R M Lvl/name

     0-0-0/w UBIN              1 DNT_BUCKET_NUMBER

  ****  Section 011 LblCom DNT_OF_1$

  ****  Scalars and arrays  ****
OctLoc.c.b A Datatyp(siz) R M Lvl/name                 OctLoc.c.b A Datatyp(siz) R M Lvl/name

     0-0-0/w PTR               1 DNT_OF_1$

  ****  Section 012 LblCom ILL$

  ****  Scalars and arrays  ****
OctLoc.c.b A Datatyp(siz) R M Lvl/name                 OctLoc.c.b A Datatyp(siz) R M Lvl/name

     0-0-0/w PTR         r     1 ILL$

  ****  Section 013 LblCom ILL_

  ****  Scalars and arrays  ****
OctLoc.c.b A Datatyp(siz) R M Lvl/name                 OctLoc.c.b A Datatyp(siz) R M Lvl/name

     0-0-0/w STRC(180)         1 ILL_

  ****  Section 014 LblCom ETT$

  ****  Scalars and arrays  ****
OctLoc.c.b A Datatyp(siz) R M Lvl/name                 OctLoc.c.b A Datatyp(siz) R M Lvl/name

     0-0-0/w PTR         r     1 ETT$

  ****  Section 015 LblCom HEAD_ETT$

  ****  Scalars and arrays  ****
OctLoc.c.b A Datatyp(siz) R M Lvl/name                 OctLoc.c.b A Datatyp(siz) R M Lvl/name
PL6.E3A0      #003=Z8ET$DEFERED_SUM_AND_SOURCE File=Z8ET.:Z8A6TSI                SAT 08/09/97 12:45 Page:173

     0-0-0/w PTR               1 HEAD_ETT$

  ****  Section 016 LblCom ETT_BUCKETS

  ****  Scalars and arrays  ****
OctLoc.c.b A Datatyp(siz) R M Lvl/name                 OctLoc.c.b A Datatyp(siz) R M Lvl/name

     0-0-0/w PTR               1 ETT_BUCKETS(0:511)

  ****  Section 017 LblCom ETT_

  ****  Scalars and arrays  ****
OctLoc.c.b A Datatyp(siz) R M Lvl/name                 OctLoc.c.b A Datatyp(siz) R M Lvl/name

     0-0-0/w STRC(180)         1 ETT_

  ****  Section 018 LblCom MKCN

  ****  Scalars and arrays  ****
OctLoc.c.b A Datatyp(siz) R M Lvl/name                 OctLoc.c.b A Datatyp(siz) R M Lvl/name

     0-0-0/w STRC(72)          1 MKCN

  ****  Section 019 LblCom LEX_SYMBOL

  ****  Scalars and arrays  ****
OctLoc.c.b A Datatyp(siz) R M Lvl/name                 OctLoc.c.b A Datatyp(siz) R M Lvl/name

     0-0-0/w STRC(3240)  r     1 LEX_SYMBOL                 0-0-0/w STRC(3240)        1 LEX_SYMBOL_WORDS

  ****  Section 020 LblCom CURRENT_LEX_SYMBOL$

  ****  Scalars and arrays  ****
OctLoc.c.b A Datatyp(siz) R M Lvl/name                 OctLoc.c.b A Datatyp(siz) R M Lvl/name

     0-0-0/w PTR         r     1 CURRENT_LEX_SYMBOL$
PL6.E3A0      #003=Z8ET$DEFERED_SUM_AND_SOURCE File=Z8ET.:Z8A6TSI                SAT 08/09/97 12:45 Page:174

  ****  Section 021 LblCom TEMP_LEX_SYMBOL

  ****  Scalars and arrays  ****
OctLoc.c.b A Datatyp(siz) R M Lvl/name                 OctLoc.c.b A Datatyp(siz) R M Lvl/name

     0-0-0/w STRC(3240)        1 TEMP_LEX_SYMBOL

  ****  Section 022 LblCom TEMP_LEX_SYMBOL2

  ****  Scalars and arrays  ****
OctLoc.c.b A Datatyp(siz) R M Lvl/name                 OctLoc.c.b A Datatyp(siz) R M Lvl/name

     0-0-0/w STRC(3240)        1 TEMP_LEX_SYMBOL2

  ****  Section 023 LblCom HEAP$

  ****  Scalars and arrays  ****
OctLoc.c.b A Datatyp(siz) R M Lvl/name                 OctLoc.c.b A Datatyp(siz) R M Lvl/name

     0-0-0/w PTR         r     1 HEAP$

  ****  Section 024 LblCom TEMP_LX_NODE

  ****  Scalars and arrays  ****
OctLoc.c.b A Datatyp(siz) R M Lvl/name                 OctLoc.c.b A Datatyp(siz) R M Lvl/name

     0-0-0/d STRC(288)         1 TEMP_LX_NODE

  ****  Auto variables  ****

  ****  Scalars and arrays  ****
OctLoc.c.b A Datatyp(siz) R M Lvl/name                 OctLoc.c.b A Datatyp(siz) R M Lvl/name

    30-0-0/w PTR         r     1 @CTR_LTS$                 37-0-0/w PTR         r     1 @ELEM_LTS$
    40-0-0/w PTR         r     1 @ERR_NUMBER               35-0-0/w PTR         r     1 @LX_ETT$
    30-0-0/w PTR         r     1 @LX_ETT$                  27-0-0/w PTR         r     1 @QUAL_ID$
PL6.E3A0      #003=Z8ET$DEFERED_SUM_AND_SOURCE File=Z8ET.:Z8A6TSI                SAT 08/09/97 12:45 Page:175
    36-0-0/w PTR         r     1 @SUM_BIT                  21-0-0/w PTR         r     1 @SUM_CLAUSE$
    21-0-0/w PTR         r     1 @SUM_CLAUSE$              21-0-0/w PTR         r     1 @SUM_CLAUSE$
    11-0-0/w PTR         r     1 @SUM_LIST$                12-0-0/w PTR         r     1 @VAR_LTS$
    22-0-0/w PTR         r     1 @VAR_LTS$                 27-0-0/w PTR         r     1 @VAR_LTS$
    22-0-0/w PTR         r     1 @VAR_LTS$                 22-0-0/w PTR         r     1 @VAR_LTS$
     3-0-0/w PTR         r     1 ASSOC_01_LTS$             34-0-0/w PTR         r     1 CTR$
    23-0-0/w PTR         r     1 CTR_LTS$                  *0-0-0/w PTR         r     1 CTR_LTS$
    23-0-0/w PTR         r     1 CTR_LTS$                  12-0-0/w PTR         r     1 ELEM_LTS$
    *0-0-0/w PTR         r     1 ELEM_LTS$                 27-0-0/w PTR         r     1 ELEM_LTS$
    *0-0-0/w UBIN        r     1 ERR_NUMBER                11-0-0/w PTR         r     1 FILE_LTS$
    27-0-0/w PTR         r     1 HEAP$$                     4-0-0/w SBIN        r     1 I
    16-0-0/w PTR               1 ID$$                      13-0-0/w PTR               1 ID_LIST$
    31-0-0/w PTR         r     1 ITEM$                     13-0-0/w PTR         r     1 LABEL$
    33-0-0/b UBIN(18)    r     1 LEN                       33-0-0/w SBIN        r     1 LINE_NO#
    33-0-0/w SBIN        r     1 LINE_NO#                   7-0-0/w PTR         r     1 LTS$$
    14-0-0/w PTR               1 LTS$$                     32-0-0/w PTR         r     1 LTS$$
    *0-0-0/w PTR         r     1 LX_ETT$                   24-0-0/w PTR         r     1 LX_ETT$
    *0-0-0/w PTR         r     1 LX_ETT$                   24-0-0/w PTR         r     1 LX_ETT$
    24-0-0/w PTR         r     1 LX_ETT$                   10-0-0/w PTR         r     1 NEXT$
     7-0-0/w PTR         r     1 NEXT$                     30-0-0/w PTR         r     1 OP$
    30-0-0/w PTR         r     1 OP$                       *0-0-0/w PTR         r     1 QUAL_ID$
    12-0-0/w PTR         r     1 REP_LTS$                  35-0-0/w SBIN              1 RSV_WRD#
    41-0-0/w PTR         r     1 ST$$                      31-0-0/w PTR         r     1 ST$$
    25-0-0/w PTR         r     1 ST$$                      25-0-0/w PTR         r     1 ST$$
    11-0-0/w BIT         r     1 SUM_BIT                   *0-0-0/w BIT         r     1 SUM_BIT
    26-0-0/w BIT         r     1 SUM_BIT_ON                15-0-0/w PTR         r     1 SUM_CLAUSE$
    *0-0-0/w PTR         r     1 SUM_CLAUSE$               *0-0-0/w PTR         r     1 SUM_CLAUSE$
    *0-0-0/w PTR         r     1 SUM_CLAUSE$               *0-0-0/w PTR         r     1 SUM_LIST$
    32-0-0/w PTR         r     1 SUM_LX_ETT$               32-0-0/w PTR         r     1 SUM_LX_ETT$
    31-0-0/w PTR         r     1 TREE$                     26-0-0/w PTR         r     1 UPON$$
    23-0-0/w PTR         r     1 UPON_LTS$                 *0-0-0/w PTR         r     1 VAR_LTS$
    *0-0-0/w PTR         r     1 VAR_LTS$                  *0-0-0/w PTR         r     1 VAR_LTS$
    *0-0-0/w PTR         r     1 VAR_LTS$                  *0-0-0/w PTR         r     1 VAR_LTS$

  ****  SYMREF variables  ****

  ****  Scalars and arrays  ****
PL6.E3A0      #003=Z8ET$DEFERED_SUM_AND_SOURCE File=Z8ET.:Z8A6TSI                SAT 08/09/97 12:45 Page:176
OctLoc.c.b A Datatyp(siz) R M Lvl/name                 OctLoc.c.b A Datatyp(siz) R M Lvl/name

     0-0-0/d STRC(13248) r     1 COMCOM
     0-0-0/w STRC(180)         1 HIER_STK(0:50)
     0-0-0/w SBIN              1 HIER_STK_PTR               0-0-0/w UBIN              1 ILL_STEP(0:144)
     0-0-0/w UBIN              1 LTS_STEP(0:37)
     0-0-0/d STRC(11580) r     1 O1COM                      0-0-0/w STRC(144)         1 PAGE_FORMAT
     0-0-0/w STRC(153)         1 REP_STK(0:50)              0-0-0/w SBIN              1 REP_STK_PTR

  ****  BASED and DCB variables  ****

  ****  Scalars and arrays  ****
OctLoc.c.b A Datatyp(siz) R M Lvl/name                 OctLoc.c.b A Datatyp(siz) R M Lvl/name

     0-0-0/w STRC(108)         1 ACCEPT_DISPLAY             0-0-0/w STRC(288)         1 ADD_STMT
     0-0-0/w STRC(396)         1 ALPHABET                   0-0-0/w STRC(144)         1 ALTER_LTS
     0-0-0/w STRC(3672)        1 ALT_KEY                    0-0-0/w STRC(36864)       1 ARGLIST
     0-0-0/w STRC(396)         1 ARRAY                      0-0-0/w STRC(180)         1 ARRAY_PRESET_LTS
     0-0-0/w ASTR(324)   r     1 BASED_LEX_SYMBOL
     0-0-0/w STRC(360)         1 BASED_LEX_SYMBOL_WORDS
     0-0-0/w STRC(288)         1 BASE_LTS                   0-0-0/w STRC(108)         1 BINARY_ILL
     0-0-0/w STRC(288)   r     1 BINARY_OP                  0-0-0/w STRC(396)         1 BLOCK
     0-0-0/w STRC(144)         1 BRANCH_ILL                 0-0-0/w STRC(144)         1 BT
     0-0-0/w STRC(288)         1 CALL_STMT                  0-0-0/w STRC(216)         1 CCOSU
     0-0-0/w STRC(396)         1 CD                         0-0-0/w STRC(288)         1 CD_LTS
     0-0-0/w CHAR(4096)        1 CHARS                      0-0-0/w STRC(396)         1 CLASS
     0-0-0/w STRC(108)         1 CODED_MOVE                 0-0-0/w STRC(288)         1 COMPUTE_STMT
     0-0-0/w STRC(396)         1 CONDITION                  0-0-0/w STRC(396)         1 CONST
     0-0-0/w STRC(72)          1 CONT                       0-0-0/w STRC(540)   r     1 CONTROL_NAME_LTS
     0-0-0/w STRC(1872)        1 COPY_FILE                  0-0-0/w STRC(396)         1 DB
     0-0-0/w STRC(396)         1 DCB_                       0-0-0/w STRC(288)   r     1 DEFERED_IDENTIFIER
     0-0-0/w STRC(252)         1 DEFERED_ID_TREE            0-0-0/w STRC(288)         1 DEFERED_QUAL_ID
     0-0-0/w STRC(288)   r     1 DEFERED_SUM_CLAUSE
     0-0-0/w STRC(288)   r     1 DEFERED_SUM_CLAUSE_LIST
     0-0-0/w STRC(144)   r     1 DEFLB                      0-0-0/w STRC(288)         1 DELETE_STMT
     0-0-0/w STRC(108)         1 DEPENDING_SIZE             0-0-0/w STRC(5472)        1 DIMS
     0-0-0/w STRC(288)         1 DIVIDE_STMT                0-0-0/w STRC(396)         1 DML_ITEM
PL6.E3A0      #003=Z8ET$DEFERED_SUM_AND_SOURCE File=Z8ET.:Z8A6TSI                SAT 08/09/97 12:45 Page:177
     0-0-0/w STRC(216)         1 DML_REC                    0-0-0/w ASTR(180)   r     1 DNT
     0-0-0/w STRC(144)         1 DOEND                      0-0-0/w STRC(396)         1 DO_N
     0-0-0/w STRC(180)         1 DV4I                       0-0-0/w STRC(180)         1 ENTRY_ILL
     0-0-0/w STRC(180)   r     1 ETT                        0-0-0/w STRC(108)         1 EVALU
     0-0-0/w STRC(73836)       1 EVALUATE                   0-0-0/w STRC(396)         1 FD
     0-0-0/w STRC(1692)  r     1 FILE_LTS                   0-0-0/w STRC(144)         1 GO
     0-0-0/w STRC(180)         1 ILL                        0-0-0/w STRC              1 ILL_NO_OPS
     0-0-0/w STRC(288)         1 ILS_LIST                   0-0-0/w STRC(108)         1 INDEXES
     0-0-0/w STRC(360)         1 INIT_LTS                   0-0-0/w STRC(288)         1 INSPECT_1_STMT
     0-0-0/w STRC(288)         1 INSPECT_2_STMT             0-0-0/w STRC(288)         1 INSPECT_4_STMT
     0-0-0/w STRC(396)         1 INTDEF                     0-0-0/w STRC(180)         1 IO_RESTORE_CHAIN
     0-0-0/w STRC(144)         1 KEY                        0-0-0/w STRC(396)         1 LABEL
     0-0-0/w STRC(288)         1 LA_ITEM                    0-0-0/w STRC(36864)       1 LCNST
     0-0-0/w STRC(108)         1 LINOI                      0-0-0/w STRC(72)          1 LONG
     0-0-0/w STRC        r     1 LTS                        0-0-0/w STRC(360)   r     1 LTSS
     0-0-0/w STRC(36936) r     1 LTS_PTR_ARRAY              0-0-0/w STRC(504)         1 LX_CD_INPUT
     0-0-0/w STRC(324)         1 LX_CD_I_O                  0-0-0/w STRC(396)         1 LX_CD_OUTPUT
     0-0-0/w STRC(288)   r     1 LX_ETT_ITEM                0-0-0/w STRC(288)   r     1 LX_ITEM
     0-0-0/w STRC(288)         1 LX_LARGE                   0-0-0/w STRC(288)   r     1 LX_LIST
     0-0-0/w STRC(1224)        1 LX_REC_DECL                0-0-0/w STRC(864)         1 LX_REPORT_REC
     0-0-0/w STRC(288)         1 LX_TERMINAL                0-0-0/w STRC(72)          1 MFILL
     0-0-0/w STRC(396)         1 MNEMONIC                   0-0-0/w STRC(288)         1 MULTIPLY_STMT
     0-0-0/w STRC(180)         1 MULTI_GO                   0-0-0/w STRC(180)         1 MVEAL
     0-0-0/w STRC(108)         1 MVFIL                      0-0-0/w STRC(72)          1 MVIIS
     0-0-0/w STRC(144)         1 NEL                        0-0-0/w STRC(216)         1 OPEN_LTS
     0-0-0/w STRC(180)         1 OS_CALL                    0-0-0/w STRC(36864)       1 PAGE
     0-0-0/w STRC(396)         1 PARA                       0-0-0/w STRC(216)         1 PFORM
     0-0-0/w STRC(144)         1 PINC                       0-0-0/w STRC(144)         1 PREOFF
     0-0-0/w STRC(108)         1 PRESET                     0-0-0/w STRC(144)         1 PRIME
     0-0-0/w STRC(396)         1 PROC_                      0-0-0/w STRC(396)         1 PROC_DEF
     0-0-0/w STRC(900)         1 PROC_SUPP                  0-0-0/w STRC(144)         1 P_A_PRESET
     0-0-0/w STRC(144)         1 P_P_PRESET                 0-0-0/w STRC(216)         1 QLT
     0-0-0/w STRC(396)         1 RD                         0-0-0/w STRC(288)         1 READ_STMT
     0-0-0/w STRC(216)         1 REF                        0-0-0/w STRC(144)         1 REMEM
     0-0-0/w STRC(108)         1 RENAMES                    0-0-0/w STRC(720)   r     1 REPORT_01_LTS
     0-0-0/w STRC(432)   r     1 REPORT_ELEM_LTS            0-0-0/w STRC(252)         1 REPORT_GRP_LTS
     0-0-0/w STRC(1332)  r     1 REPORT_LTS                 0-0-0/w STRC(288)         1 REWRITE_STMT
PL6.E3A0      #003=Z8ET$DEFERED_SUM_AND_SOURCE File=Z8ET.:Z8A6TSI                SAT 08/09/97 12:45 Page:178
     0-0-0/w STRC(144)         1 RVA_LTS                    0-0-0/w STRC(396)   r     1 SCALAR
     0-0-0/w STRC(144)         1 SCOPE                      0-0-0/w STRC(396)         1 SD
     0-0-0/w STRC(216)         1 SEARCH_                    0-0-0/w STRC(396)         1 SECTION
     0-0-0/w STRC(396)         1 SEGMENT                    0-0-0/w STRC(360)         1 SEGMENT_LTS
     0-0-0/w STRC(396)   r     1 ST                         0-0-0/w STRC(288)         1 START_STMT
     0-0-0/w STRC(72)          1 STP2                       0-0-0/w STRC(252)         1 STRING_STMT
     0-0-0/w STRC(288)         1 SUBTRACT_STMT              0-0-0/w STRC(252)   r     1 SUM_LTS
     0-0-0/w STRC(396)         1 SWITCH                     0-0-0/w STRC(396)         1 SYMBOLIC_CHAR
     0-0-0/w STRC(396)         1 SYMDEF_                    0-0-0/w STRC(396)         1 SYMREF_
     0-0-0/w STRC(396)         1 TEMP                       0-0-0/w STRC(144)         1 TRINARY_ILL
     0-0-0/w STRC(72)          1 UNARY_ILL                  0-0-0/w STRC(288)         1 UNARY_OP
     0-0-0/w STRC(288)         1 UNSTRING_STMT              0-0-0/d STRC(612)         1 USE
     0-0-0/w STRC(216)         1 USER_CALL                  0-0-0/w STRC(252)         1 USE_SUPP
     0-0-0/w STRC(108)         1 VAL                        0-0-0/w STRC(108)         1 VAL_END
     0-0-0/w STRC(396)   r     1 VARIABLE                   0-0-0/w STRC(72)          1 WHEN
     0-0-0/w STRC(288)         1 WRITE_STMT


   Procedure Z8ET$DEFERED_SUM_AND_SOURCE requires 1076 words for executable code.
   Procedure Z8ET$DEFERED_SUM_AND_SOURCE requires 40 words of local(AUTO) storage.

