PL6.E3A0      #010=Z8EU$MAKE_INIT_LTS File=Z8EU.:Z8A6TSI                         SAT 08/09/97 12:59 Page:171
      657        1        /*M*  Z8EU$MAKE_INIT_LTS -- Build tree of INIT_LTS items */
      658        2        /*T***********************************************************/
      659        3        /*T*                                                         */
      660        4        /*T* Copyright (c) Bull HN Information Systems Inc., 1997    */
      661        5        /*T*                                                         */
      662        6        /*T***********************************************************/
      663        7        /*P*
      664        8               NAME:  Z8EU$MAKE_INIT_LTS
      665        9             AUTHOR:  Albert Wigchert
      666       10            PURPOSE:  Build tree of INIT_LTS items for INITIALIZEd identifier.
      667       11        */
      668       12        /*D*
      669       13               NAME:  Z8EU$MAKE_INIT_LTS
      670       14               CALL:  CALL Z8EU$MAKE_INIT_LTS (IDENT_ST$, SUBSCR$, OFF, INIT_LTS$);
      671       15              INPUT:  IDENT_ST$ -- ST item for the identifier.
      672       16                      SUBSCR$ -- ETT item for all subscripts already applied.
      673       17                      OFF -- offset from identifier, to be used with subscripts.
      674       18             OUTPUT:  INIT_LTS$ -- pointer to tree of INIT_LTS items.
      675       19        DESCRIPTION:  Walk the tree of QLT items for a data item and everything
      676       20                      subordinate to it. Generate an INIT_LTS item for each field that
      677       21                      can be initialized separately, combining adjacent fields and
      678       22                      collapsing tables to scalars if possible.
      679       23        */
      680       24        %EJECT;
PL6.E3A0      #010=Z8EU$MAKE_INIT_LTS File=Z8EU.:Z8A6TSI                         SAT 08/09/97 12:59 Page:172
      681       25        Z8EU$MAKE_INIT_LTS: PROC (IDENT_ST$,
      682       26                                  SUBSCR$,
      683       27                                  OFF,
      684       28                                  INIT_LTS$);
      685       29        %SET PHASE = 1;
      686       30        %INCLUDE Z8A_DEFC;
      687       98        %INCLUDE Z8A_SUPP_MAC;
      688     2498        %INCLUDE Z8A_MKCN;
      689     2515        %INCLUDE Z8A_DNT;
      690     2736        %INCLUDE Z8A_ETT;
      691     3037        %INCLUDE Z8A_QLT;
      692     3143        %INCLUDE Z8A_ST;
      693     6802        %INCLUDE Z8A_TYPES;
      694     6976        %INCLUDE Z8A_LTS;
      695     9053    1   DCL IDENT_ST$      PTR;
      696     9054    1   DCL SUBSCR$        PTR;
      697     9055    1   DCL OFF            SBIN;
      698     9056    1   DCL INIT_LTS$      PTR;
      699     9057    1   DCL INDICES$ (0:47) PTR STATIC;
      700     9058    1   DCL LAST_CREATED   SBIN STATIC INIT (-1);
      701     9059    1   DCL LAST_IN_USE    SBIN STATIC INIT (-1);
      702     9060    1   DCL IDENT_QLT$     PTR;
      703     9061    1   DCL IDENT_BASE$    PTR;
      704     9062    1   DCL IDENT_DIM      UBIN;
      705     9063    1   DCL SON_OFF        SBIN;
      706     9064    1   DCL SON_DIM        UBIN;
      707     9065    1   DCL SON_BASE$      PTR;
      708     9066    1   DCL SON_QLT$       PTR;
      709     9067    1   DCL SON_ST$        PTR;
      710     9068    1   DCL SON_LTS$       PTR;
      711     9069    1   DCL PREV_SON_ST$   PTR;
      712     9070    1   DCL PREV_SON_LTS$  PTR;
      713     9071    1   DCL SUBSCR1$       PTR;
      714     9072    1   DCL SUBSCR2$       PTR;
      715     9073    1   DCL DIMS$          PTR;
      716     9074    1   DCL CONST$         PTR;
      717     9075    1   DCL ETT$$          PTR;
PL6.E3A0      #010=Z8EU$MAKE_INIT_LTS File=Z8EU.:Z8A6TSI                         SAT 08/09/97 12:59 Page:173
      718     9076    1   DCL 1 DNA_ROPCON   STATIC,
      719     9077    1         2 *          UBIN HALF HALIGNED INIT (0),
      720     9078    1         2 CN         UBIN (2) UNAL,
      721     9079    1         2 *          BIT (1) INIT ('0'B),
      722     9080    1         2 TA         BIT (2) INIT (%ADSC9),
      723     9081    1         2 *          BIT (7) INIT ('0'B),
      724     9082    1         2 N          UBIN (6) UNAL;
      725     9083    1   DCL 1 DNA_BCD_ROPCON REDEF DNA_ROPCON,
      726     9084    1         2 *          UBIN HALF HALIGNED,
      727     9085    1         2 CN         UBIN (3) UNAL,
      728     9086    1         2 TA         BIT (2),
      729     9087    1         2 *          BIT (13);
      730     9088    1   DCL Z8AC$MAKE_CONST                ENTRY(1);
      731     9089    1   DCL Z8AF$FORME                     ENTRY(4);
      732     9090    1   DCL Z8AF$NEW_BASE                  ENTRY(3);
      733     9091    1   DCL Z8AT$CREATE_TEMP_WITH_BASE     ENTRY(2);
      734     9092        %EJECT;
PL6.E3A0      #010=Z8EU$MAKE_INIT_LTS File=Z8EU.:Z8A6TSI                         SAT 08/09/97 12:59 Page:174
      735     9093    1     IDENT_QLT$ = IDENT_ST$ -> VARIABLE.QLT$;
      736     9094          %GET_LTS (@ID = %DIMS, @ST$ = IDENT_ST$, @RETURN$ = DIMS$);
      737     9137    1     IF DIMS$ = ADDR (NIL) OR IDENT_QLT$ -> QLT.B.OCCURS = FALSE THEN
      738     9138    1       IDENT_DIM = 0;
      739     9139    1     ELSE
      740     9140    1       IDENT_DIM = DIMS$ -> DIMS.D.DIM ((DIMS$ -> DIMS.N - %MIN_DIM_SIZE) / %
              9140                NO_WORDS_PER_DIM);
      741     9141          %NEW_INIT_LTS (@POINTER = INIT_LTS$,
      742     9142                         @SUBSCR$ = SUBSCR$,
      743     9143                         @OFF     = OFF,
      744     9144                         @DIMS    = IDENT_DIM);
      745     9250    1     IF IDENT_ST$ -> VARIABLE.B.ELEMENTARY THEN
      746     9251    2       DO;
      747     9252    2         SON_DIM = 0;
      748     9253    3         DO CASE (IDENT_ST$ -> VARIABLE.TYPE);
      749     9254    3           CASE (%TYC);
      750     9255    3             INIT_LTS$ -> INIT_LTS.BCD = TRUE;
      751     9256    3             IF IDENT_ST$ -> VARIABLE.NDSC.TN = %ADSC9 /* Not overpunched */
      752     9257    3                 AND IDENT_ST$ -> VARIABLE.NDSC.S = %NO_SIGN THEN
      753     9258    3               INIT_LTS$ -> INIT_LTS.MFILLABLE = TRUE;
      754     9259    3           CASE (%TYB);
      755     9260    3             INIT_LTS$ -> INIT_LTS.BCD = TRUE;
      756     9261    3             IF NOT IDENT_ST$ -> VARIABLE.B.SUB_CLASS.EDITED THEN
      757     9262    4               DO;
      758     9263    4                 INIT_LTS$ -> INIT_LTS.MFILLABLE = TRUE;
      759     9264    4                 INIT_LTS$ -> INIT_LTS.FILL = %BITASC ('020'O); /* GBCD space */
      760     9265    4               END;
      761     9266    3           CASE (%TYH, %TYI, %TYJ, %TYK);
      762     9267    3             INIT_LTS$ -> INIT_LTS.MFILLABLE = TRUE;
      763     9268    3           CASE (%TYD);
      764     9269    3             IF IDENT_ST$ -> VARIABLE.NDSC.S = %NO_SIGN THEN
      765     9270    4               DO;
      766     9271    4                 IF IDENT_ST$ -> VARIABLE.NDSC.TN = %NDSC9 THEN
      767     9272    5                   DO;
      768     9273    5                     INIT_LTS$ -> INIT_LTS.MFILLABLE = TRUE;
      769     9274    5                     INIT_LTS$ -> INIT_LTS.FILL = '0';
      770     9275    5                   END;
PL6.E3A0      #010=Z8EU$MAKE_INIT_LTS File=Z8EU.:Z8A6TSI                         SAT 08/09/97 12:59 Page:175
      771     9276    4                 ELSE IF NOT IDENT_QLT$ -> QLT.B.DIGIT THEN
      772     9277    4                   INIT_LTS$ -> INIT_LTS.MFILLABLE = TRUE;
      773     9278    4               END;
      774     9279    3           CASE (%TYF);
      775     9280    3             IF IDENT_ST$ -> VARIABLE.NDSC.TN = %NDSC9 /* Not overpunched */
      776     9281    3                 AND IDENT_ST$ -> VARIABLE.NDSC.S = %NO_SIGN THEN
      777     9282    4               DO;
      778     9283    4                 INIT_LTS$ -> INIT_LTS.MFILLABLE = TRUE;
      779     9284    4                 INIT_LTS$ -> INIT_LTS.FILL = %BITASC ('360'O); /* EBCDIC ZERO */
      780     9285    4               END;
      781     9286    3           CASE (%TYE);
      782     9287    3             IF NOT IDENT_ST$ -> VARIABLE.B.SUB_CLASS.EDITED THEN
      783     9288    4               DO;
      784     9289    4                 INIT_LTS$ -> INIT_LTS.MFILLABLE = TRUE;
      785     9290    4                 INIT_LTS$ -> INIT_LTS.FILL = %BITASC ('100'O); /* EBCDIC space */
      786     9291    4               END;
      787     9292    3           CASE (%TYA);
      788     9293    3             IF NOT IDENT_ST$ -> VARIABLE.B.SUB_CLASS.EDITED THEN
      789     9294    4               DO;
      790     9295    4                 INIT_LTS$ -> INIT_LTS.MFILLABLE = TRUE;
      791     9296    4                 INIT_LTS$ -> INIT_LTS.FILL = ' ';
      792     9297    4               END;
      793     9298    3         END; /* CASE */
      794     9299    2         CALL Z8AF$NEW_BASE (IDENT_ST$, ADDR (NIL), INIT_LTS$ -> INIT_LTS.BASE$);
      795     9300    3         DO CASE (IDENT_ST$ -> VARIABLE.B.CLASS);
      796     9301    3           CASE (%CLASS_POINTER);
      797     9302    3             INIT_LTS$ -> INIT_LTS.LENGTH = 4;
      798     9303    3             INIT_LTS$ -> INIT_LTS.POINTER = TRUE;
      799     9304    3           CASE (%CLASS_NUMERIC);
      800     9305    3             DNA_ROPCON.N = IDENT_ST$ -> VARIABLE.NDSC.N;
      801     9306    3             DNA_ROPCON.CN = IDENT_ST$ -> VARIABLE.ADSC.CN;
      802     9307    3             INIT_LTS$ -> INIT_LTS.LENGTH = IDENT_ST$ -> VARIABLE.NDSC.N;
      803     9308    4             DO CASE (IDENT_ST$ -> VARIABLE.TYPE);
      804     9309    4               CASE (%TYD);
      805     9310    4                 IF IDENT_ST$ -> VARIABLE.NDSC.TN = %NDSC4 THEN
      806     9311    5                   DO;
      807     9312    5                     IF IDENT_ST$ -> VARIABLE.B.DIGIT THEN
PL6.E3A0      #010=Z8EU$MAKE_INIT_LTS File=Z8EU.:Z8A6TSI                         SAT 08/09/97 12:59 Page:176
      808     9313    5                       DNA_ROPCON.TA = %ADSC4;
      809     9314    5                     ELSE
      810     9315    6                       DO;
      811     9316    6                         INIT_LTS$ -> INIT_LTS.LENGTH = (INIT_LTS$ -> INIT_LTS.LENGTH +
              9316                                  2) / 2;
      812     9317    6                         DNA_ROPCON.N = (DNA_ROPCON.N + 1) / 2; /* In units of bytes */
      813     9318    6                       END;
      814     9319    5                   END;
      815     9320    4               CASE (%TYC);
      816     9321    4                 DNA_BCD_ROPCON.CN = IDENT_ST$ -> VARIABLE.NDSC.CN;
      817     9322    4                 DNA_BCD_ROPCON.TA = %ADSC6;
      818     9323    4             END;
      819     9324    3             CALL Z8AF$FORME (%DNA,
      820     9325    3                              INIT_LTS$ -> INIT_LTS.BASE$,
      821     9326    3                              DNA_ROPCON,
      822     9327    3                              INIT_LTS$ -> INIT_LTS.BASE$);
      823     9328                  /* DNA needed for MFILL, move one table element to another, etc. */
      824     9329    3             DNA_ROPCON = '0'B;
      825     9330    3           CASE (ELSE);
      826     9331                  %GET_ADSC_LEN (ST$ = IDENT_ST$, RTN = INIT_LTS$ -> INIT_LTS.LENGTH);
      827     9342    3         END; /* CASE */
      828     9343    2       END; /* ELEMENTARY */
      829     9344    1     ELSE
      830     9345    2       DO; /* GROUP ITEM */
      831     9346    2         SON_QLT$ = IDENT_QLT$ -> QLT.SON; /* Cannot be ADDR (NIL) */
      832     9347    2         PREV_SON_LTS$ = ADDR (NIL);
      833     9348    2         PREV_SON_ST$ = ADDR (NIL);
      834     9349    2         INIT_LTS$ -> INIT_LTS.GROUP = TRUE;
      835     9350              %GET_ADSC_LEN (ST$ = IDENT_ST$, RTN = INIT_LTS$ -> INIT_LTS.LENGTH);
      836     9361    2         IF INIT_LTS$ -> INIT_LTS.DIMS <= 1 OR LAST_IN_USE < 0 THEN
      837     9362    2           SUBSCR1$ = SUBSCR$;
      838     9363    2         ELSE IF SUBSCR$ = ADDR (NIL) THEN
      839     9364    2           SUBSCR1$ = INDICES$ (LAST_IN_USE);
      840     9365    2         ELSE
      841     9366    2           CALL Z8AF$FORME (%ADI, SUBSCR$, INDICES$ (LAST_IN_USE), SUBSCR1$);
      842     9367    3         DO UNTIL SON_QLT$ = ADDR (NIL);
      843     9368    3           SON_DIM = 0;
PL6.E3A0      #010=Z8EU$MAKE_INIT_LTS File=Z8EU.:Z8A6TSI                         SAT 08/09/97 12:59 Page:177
      844     9369    3           SON_ST$ = SON_QLT$ -> QLT.ST$;
      845     9370    3           IF SON_QLT$ -> QLT.B.RENAMES
      846     9371    3               OR SON_ST$ -> ST.ID = %CONDITION
      847     9372    3               OR SON_ST$ -> VARIABLE.B.REDEF_SUB THEN; /* Ignore item */
      848     9373    3           ELSE IF SON_ST$ -> VARIABLE.TYPE = %TYX
      849     9374    3               OR SON_ST$ -> VARIABLE.TYPE = %TYY
      850     9375    3               OR SON_ST$ -> VARIABLE.DNT$ -> DNT.TEXT.NAME = 'FILLER' THEN
      851     9376    4             DO;
      852     9377    4               INIT_LTS$ -> INIT_LTS.FILLER = TRUE; /* Uninitializable field found */
      853     9378    4               INIT_LTS$ -> INIT_LTS.MFILLABLE = FALSE;
      854     9379    4             END;
      855     9380    3           ELSE
      856     9381    4             DO; /* Initializable item */
      857     9382    4               IF SUBSCR1$ = ADDR (NIL) THEN
      858     9383    4                 SUBSCR2$ = SUBSCR1$;
      859     9384    4               ELSE IF SON_ST$ -> VARIABLE.B.DIGIT THEN
      860     9385    4                 CALL Z8AF$FORME (%MPI2, SUBSCR1$, 1, SUBSCR2$);
      861     9386    4               ELSE IF SON_ST$ -> VARIABLE.TYPE = %TYB OR
      862     9387    4                   SON_ST$ -> VARIABLE.TYPE = %TYC THEN
      863     9388    5                 DO;
      864     9389    5                   MKCN.CON = 3;
      865     9390    5                   CALL Z8AC$MAKE_CONST (ETT$$);
      866     9391    5                   CALL Z8AF$FORME (%MPI, SUBSCR1$, ETT$$, SUBSCR2$);
      867     9392    5                   CALL Z8AF$FORME (%DVI2, SUBSCR2$, 1, SUBSCR2$);
      868     9393    5                 END;
      869     9394    4               ELSE
      870     9395    4                 SUBSCR2$ = SUBSCR1$;
      871     9396    4               IF SON_QLT$ -> QLT.B.OCCURS THEN
      872     9397    5                 DO;
      873     9398                        %GET_LTS (@ID = %DIMS, @ST$ = SON_ST$, @RETURN$ = DIMS$);
      874     9441    5                   SON_DIM = DIMS$ -> DIMS.D.DIM ((DIMS$ -> DIMS.N - %MIN_DIM_SIZE) /
      875     9442    5                               %NO_WORDS_PER_DIM);
      876     9443    5                   IF SON_DIM > 1 THEN
      877     9444    6                     DO;
      878     9445    6                       LAST_IN_USE = LAST_IN_USE + 1;
      879     9446    6                       IF LAST_IN_USE > LAST_CREATED THEN
      880     9447    7                         DO;
PL6.E3A0      #010=Z8EU$MAKE_INIT_LTS File=Z8EU.:Z8A6TSI                         SAT 08/09/97 12:59 Page:178
      881     9448    7                           LAST_CREATED = LAST_IN_USE;
      882     9449    7                           CALL Z8AT$CREATE_TEMP_WITH_BASE (%SCALAR, INDICES$ (
              9449                                    LAST_IN_USE));
      883     9450    7                         END;
      884     9451    6                     END; /* SON_DIM > 1 */
      885     9452    5                 END; /* SON_QLT$ -> QLT.B.OCCURS */
      886     9453    4               SON_OFF = OFF;
      887     9454    5               DO CASE (SON_ST$ -> VARIABLE.TYPE);
      888     9455    5                 CASE (%TYD);
      889     9456    5                   IF SON_ST$ -> VARIABLE.NDSC.TN = %NDSC4 THEN
      890     9457    5                     SON_OFF = SON_OFF * 2;
      891     9458    5                 CASE (%TYB, %TYC);
      892     9459    5                   SON_OFF = SON_OFF * 3 / 2;
      893     9460    5                 CASE (%TYI, %TYP, %TYR, %TYQ);
      894     9461    5                   SON_OFF = SON_OFF / 4;
      895     9462    5               END;
      896     9463    4               CALL Z8EU$MAKE_INIT_LTS (SON_ST$, SUBSCR2$, SON_OFF, SON_LTS$);
      897     9464    4               IF NOT SON_LTS$ -> INIT_LTS.GROUP AND SUBSCR2$ ~= ADDR (NIL) THEN
      898     9465    5                 DO CASE (SON_ST$ -> VARIABLE.TYPE);
      899     9466    5                   CASE (%TYD);
      900     9467    5                     IF SON_ST$ -> VARIABLE.NDSC.TN = %NDSC4 AND
      901     9468    5                         NOT SON_ST$ -> VARIABLE.B.DIGIT THEN
      902     9469    5                       CALL Z8AF$FORME (%MPI2, SUBSCR2$, 1, SUBSCR2$);
      903     9470    5                   CASE (%TYI, %TYP, %TYR, %TYQ);
      904     9471    5                     CALL Z8AF$FORME (%DVI2, SUBSCR2$, 2, SUBSCR2$);
      905     9472    5                 END;
      906     9473    4               IF SON_DIM > 1 THEN
      907     9474    5                 DO;
      908     9475    5                   IF SON_LTS$ -> INIT_LTS.MFILLABLE AND
      909     9476    5                       (NOT SON_LTS$ -> INIT_LTS.BCD OR
      910     9477    5                          (MOD (SON_LTS$ -> INIT_LTS.LENGTH, 3) = 0 AND
      911     9478    5                            (SON_ST$ -> VARIABLE.NDSC.CN = 0 OR
      912     9479    5                             SON_ST$ -> VARIABLE.NDSC.CN = 4)) OR
      913     9480    5                        SON_ST$ -> VARIABLE.TYPE = %TYA) THEN
      914     9481    6                     DO;
      915     9482    6                       IF SON_LTS$ -> INIT_LTS.BASE$ -> ETT.ID = %SIZ
      916     9483    6                         THEN SON_BASE$ = SON_LTS$ -> INIT_LTS.BASE$ -> ETT.LOP;
PL6.E3A0      #010=Z8EU$MAKE_INIT_LTS File=Z8EU.:Z8A6TSI                         SAT 08/09/97 12:59 Page:179
      917     9484    6                         ELSE SON_BASE$ = SON_LTS$ -> INIT_LTS.BASE$;
      918     9485    6                       SON_LTS$ -> INIT_LTS.LENGTH = SON_LTS$ -> INIT_LTS.LENGTH *
              9485                                SON_DIM;
      919     9486    6                       SON_LTS$ -> INIT_LTS.DIMS = 0; /* Collapsed to scalar */
      920     9487    6                       SON_LTS$ -> INIT_LTS.GROUP = TRUE;
      921     9488    6                       MKCN.CON = SON_LTS$ -> INIT_LTS.LENGTH;
      922     9489    6                       CALL Z8AC$MAKE_CONST (ETT$$);
      923     9490    6                       CALL Z8AF$FORME (%SIZ, SON_BASE$, ETT$$, SON_LTS$ -> INIT_LTS.
              9490                                BASE$);
      924     9491    6                       SON_LTS$ -> INIT_LTS.SON$ = ADDR (NIL);
      925     9492    6                       SON_LTS$ -> INIT_LTS.SUBSCR$ = SUBSCR1$;
      926     9493    6                     END;
      927     9494    5                   ELSE
      928     9495    6                     DO;
      929     9496    6                       SON_LTS$ -> INIT_LTS.INDEX$ = INDICES$ (LAST_IN_USE);
      930     9497    6                       SON_LTS$ -> INIT_LTS.SUBSCR$ = SUBSCR2$;
      931     9498    6                       SON_LTS$ -> INIT_LTS.SPAN = DIMS$ -> DIMS.D.SPAN
      932     9499    6                           ((DIMS$ -> DIMS.N - %MIN_DIM_SIZE) / %NO_WORDS_PER_DIM);
      933     9500    7                       DO CASE (SON_ST$ -> VARIABLE.TYPE);
      934     9501    7                         CASE (%TYD);
      935     9502    7                           IF SON_ST$ -> VARIABLE.NDSC.TN = %NDSC4 AND
      936     9503    7                               NOT SON_ST$ -> VARIABLE.B.DIGIT THEN
      937     9504    7                             SON_LTS$ -> INIT_LTS.SPAN = SON_LTS$ -> INIT_LTS.SPAN / 2;
      938     9505    7                         CASE (%TYP, %TYR, %TYQ);
      939     9506    7                           SON_LTS$ -> INIT_LTS.SPAN = SON_LTS$ -> INIT_LTS.SPAN * 4;
      940     9507    7                       END;
      941     9508    6                     END;
      942     9509    5                 END; /* SON_DIM > 1 */
      943     9510    4               ELSE
      944     9511    4                 SON_LTS$ -> INIT_LTS.SUBSCR$ = SUBSCR2$;
      945     9512    4               IF SON_LTS$ -> INIT_LTS.BCD THEN
      946     9513    5                 DO;
      947     9514    5                   SON_LTS$ -> INIT_LTS.LENGTH = SON_LTS$ -> INIT_LTS.LENGTH * 3 / 2;
      948     9515    5                   IF SUBSCR$ ~= ADDR (NIL) AND SON_LTS$ -> INIT_LTS.MFILLABLE THEN
      949     9516    6                     DO;
      950     9517    6                       IF SUBSCR2$ -> ETT.ID ~= %DVI2 THEN
      951     9518    7                         DO;
PL6.E3A0      #010=Z8EU$MAKE_INIT_LTS File=Z8EU.:Z8A6TSI                         SAT 08/09/97 12:59 Page:180
      952     9519    7                           MKCN.CON = 3;
      953     9520    7                           CALL Z8AC$MAKE_CONST (ETT$$);
      954     9521    7                           CALL Z8AF$FORME (%MPI, SUBSCR1$, ETT$$, SUBSCR2$);
      955     9522    7                           CALL Z8AF$FORME (%DVI2, SUBSCR2$, 1, SUBSCR2$);
      956     9523    7                         END;
      957     9524    6                       SON_LTS$ -> INIT_LTS.SUBSCR$ = SUBSCR2$; /* BCD units */
      958     9525    6                     END;
      959     9526    5                 END;
      960     9527    4               IF SON_LTS$ -> INIT_LTS.FILLER
      961     9528    4                 THEN INIT_LTS$ -> INIT_LTS.FILLER = TRUE;
      962     9529    4               IF SON_LTS$ -> INIT_LTS.BASE$ ~= ADDR (NIL) THEN
      963     9530    5                 DO;
      964     9531    5                   IF PREV_SON_LTS$ = ADDR (NIL) THEN
      965     9532    6                     DO;
      966     9533    6                       PREV_SON_ST$ = SON_ST$;
      967     9534    6                       PREV_SON_LTS$ = SON_LTS$;
      968     9535    6                       INIT_LTS$ -> INIT_LTS.SON$ = SON_LTS$;
      969     9536    6                       CALL Z8AF$NEW_BASE (IDENT_ST$, ADDR (NIL), INIT_LTS$ -> INIT_LTS
              9536                                .BASE$);
      970     9537    6                       INIT_LTS$ -> INIT_LTS.BCD = SON_LTS$ -> INIT_LTS.BCD;
      971     9538    6                       IF SON_LTS$ -> INIT_LTS.MFILLABLE AND
      972     9539    6                           NOT INIT_LTS$ -> INIT_LTS.FILLER THEN
      973     9540    7                         DO;
      974     9541    7                           INIT_LTS$ -> INIT_LTS.MFILLABLE = TRUE;
      975     9542    7                           INIT_LTS$ -> INIT_LTS.FILL = SON_LTS$ -> INIT_LTS.FILL;
      976     9543    7                         END;
      977     9544    6                     END;
      978     9545    5                   ELSE
      979     9546    6                     DO;
      980     9547    6                       IF NOT SON_LTS$ -> INIT_LTS.BCD THEN
      981     9548    6                         INIT_LTS$ -> INIT_LTS.BCD = FALSE;
      982     9549    6                       IF PREV_SON_LTS$ -> INIT_LTS.MFILLABLE
      983     9550    6                           AND SON_LTS$ -> INIT_LTS.MFILLABLE
      984     9551    6                           AND PREV_SON_LTS$ -> INIT_LTS.FILL = SON_LTS$ -> INIT_LTS.
              9551                                    FILL THEN
      985     9552    7                         DO;
      986     9553    7                           IF (PREV_SON_LTS$ -> INIT_LTS.BCD AND
PL6.E3A0      #010=Z8EU$MAKE_INIT_LTS File=Z8EU.:Z8A6TSI                         SAT 08/09/97 12:59 Page:181
      987     9554    7                               SON_LTS$ -> INIT_LTS.BCD AND
      988     9555    7                               PREV_SON_ST$ -> VARIABLE.SA * 6 + PREV_SON_ST$ ->
              9555                                        VARIABLE.NDSC.CN
      989     9556    7                                 + PREV_SON_LTS$ -> INIT_LTS.LENGTH =
      990     9557    7                                 SON_ST$ -> VARIABLE.SA * 6 + SON_ST$ -> VARIABLE.NDSC.
              9557                                          CN) OR
      991     9558    7                              (NOT PREV_SON_LTS$ -> INIT_LTS.BCD AND
      992     9559    7                               NOT SON_LTS$ -> INIT_LTS.BCD AND
      993     9560    7                               PREV_SON_ST$ -> VARIABLE.SA * 4 + PREV_SON_ST$ ->
              9560                                        VARIABLE.ADSC.CN
      994     9561    7                                 + PREV_SON_LTS$ -> INIT_LTS.LENGTH =
      995     9562    7                                 SON_ST$ -> VARIABLE.SA * 4 + SON_ST$ -> VARIABLE.ADSC.
              9562                                          CN) THEN
      996     9563    8                             DO;
      997     9564    8                               IF PREV_SON_ST$ -> VARIABLE.TYPE = %TYD AND
      998     9565    8                                   PREV_SON_ST$ -> VARIABLE.NDSC.TN = %NDSC4 AND
      999     9566    8                                   NOT PREV_SON_LTS$ -> INIT_LTS.GROUP THEN
     1000     9567    9                                 DO;
     1001     9568    9                                   PREV_SON_LTS$ -> INIT_LTS.OFF = PREV_SON_LTS$ ->
              9568                                            INIT_LTS.OFF / 2;
     1002     9569    9                                   IF PREV_SON_LTS$ -> INIT_LTS.SUBSCR$ ~= ADDR (NIL)
              9569                                            THEN
     1003     9570    9                                     PREV_SON_LTS$ -> INIT_LTS.SUBSCR$ =
     1004     9571    9                                         PREV_SON_LTS$ -> INIT_LTS.SUBSCR$ -> ETT.LOP;
     1005     9572                                        /* Delete MPI2, ropcon = 1 */
     1006     9573    9                                 END; /* Set units from digits back to bytes */
     1007     9574    8                               PREV_SON_LTS$ -> INIT_LTS.LENGTH = PREV_SON_LTS$ ->
              9574                                        INIT_LTS.LENGTH
     1008     9575    8                                 + SON_LTS$ -> INIT_LTS.LENGTH;
     1009     9576    8                               MKCN.CON = PREV_SON_LTS$ -> INIT_LTS.LENGTH;
     1010     9577    8                               PREV_SON_LTS$ -> INIT_LTS.GROUP = TRUE;
     1011     9578    8                               ETT$$ = PREV_SON_LTS$ -> INIT_LTS.BASE$;
     1012     9579    8                               IF ETT$$ -> ETT.ID = %SIZ
     1013     9580    8                                 THEN ETT$$ = ETT$$ -> ETT.LOP;
     1014     9581    8                               CALL Z8AC$MAKE_CONST (CONST$);
     1015     9582    8                               CALL Z8AF$FORME (%SIZ, ETT$$, CONST$, PREV_SON_LTS$ ->
              9582                                        INIT_LTS.BASE$);
PL6.E3A0      #010=Z8EU$MAKE_INIT_LTS File=Z8EU.:Z8A6TSI                         SAT 08/09/97 12:59 Page:182
     1016     9583    8                             END;
     1017     9584    7                           ELSE
     1018     9585    8                             DO; /* Cannot be combined */
     1019     9586    8                               PREV_SON_LTS$ -> INIT_LTS.NEXT$ = SON_LTS$;
     1020     9587    8                               PREV_SON_LTS$ = SON_LTS$;
     1021     9588    8                               PREV_SON_ST$ = SON_ST$;
     1022     9589    8                               INIT_LTS$ -> INIT_LTS.MFILLABLE = FALSE;
     1023     9590    8                             END;
     1024     9591    7                         END; /* Both MFILLABLE, same fill */
     1025     9592    6                       ELSE
     1026     9593    7                         DO;
     1027     9594    7                           PREV_SON_LTS$ -> INIT_LTS.NEXT$ = SON_LTS$;
     1028     9595    7                           PREV_SON_LTS$ = SON_LTS$;
     1029     9596    7                           PREV_SON_ST$ = SON_ST$;
     1030     9597    7                           INIT_LTS$ -> INIT_LTS.MFILLABLE = FALSE;
     1031     9598    7                         END;
     1032     9599    6                     END; /* PREV_SON_LTS$ ~= ADDR (NIL) */
     1033     9600    5                 END; /* SON_LTS$ -> INIT_LTS.BASE$ ~= ADDR (NIL) */
     1034     9601    4               IF SON_DIM > 1 THEN
     1035     9602    4                 LAST_IN_USE = LAST_IN_USE - 1;
     1036     9603    4             END; /* Initializable item */
     1037     9604    3           SON_QLT$ = SON_QLT$ -> QLT.BROTHER;
     1038     9605    3         END; /* UNTIL SON_QLT$ = ADDR (NIL) */
     1039     9606    2         IF INIT_LTS$ -> INIT_LTS.BCD AND
     1040     9607    2             (MOD (INIT_LTS$ -> INIT_LTS.LENGTH, 2) ~= 0 OR
     1041     9608    2              MOD (IDENT_ST$ -> VARIABLE.ADSC.CN, 2) = 1) THEN
     1042     9609    2           INIT_LTS$ -> INIT_LTS.MFILLABLE = FALSE;
     1043     9610    2         IF INIT_LTS$ -> INIT_LTS.MFILLABLE AND NOT INIT_LTS$ -> INIT_LTS.FILLER THEN
     1044     9611    3           DO;
     1045     9612    3             IF INIT_LTS$ -> INIT_LTS.BCD THEN
     1046     9613    3               INIT_LTS$ -> INIT_LTS.SUBSCR$ = PREV_SON_LTS$ -> INIT_LTS.SUBSCR$;
     1047     9614    3             INIT_LTS$ -> INIT_LTS.SON$ = ADDR (NIL);
     1048     9615    3           END;
     1049     9616    2       END; /* GROUP ITEM */
     1050     9617    1   END Z8EU$MAKE_INIT_LTS;

PL6.E3A0      #010=Z8EU$MAKE_INIT_LTS File=Z8EU.:Z8A6TSI                         SAT 08/09/97 12:59 Page:183
--  Include file information  --

   Z8A_LTS.:Z8A6TOU  cannot be made into a system file and is referenced.
   Z8A_TYPES.:Z8A6TOU  is referenced.
   Z8A_ST.:Z8A6TOU  cannot be made into a system file and is referenced.
   Z8A_QLT.:Z8A6TOU  cannot be made into a system file and is referenced.
   Z8A_ETT.:Z8A6TOU  cannot be made into a system file and is referenced.
   Z8A_DNT.:Z8A6TOU  cannot be made into a system file and is referenced.
   Z8A_MKCN.:Z8A6TOU  cannot be made into a system file and is referenced.
   X8A_COM_MACS.:X8A6TOU  is referenced.
   Z8A_NAMES.:Z8A6TOU  is referenced.
   Z8A_SUPP_MAC.:Z8A6TOU  is referenced.
   Z8A_DEFC.:Z8A6TOU  cannot be made into a system file and is referenced.
      No diagnostics issued in procedure Z8EU$MAKE_INIT_LTS.

   Procedure Z8EU$MAKE_INIT_LTS requires 1112 words for executable code.
   Procedure Z8EU$MAKE_INIT_LTS requires 30 words of local(AUTO) storage.

    No errors detected in file Z8EU.:Z8A6TSI    .

PL6.E3A0      #010=Z8EU$MAKE_INIT_LTS File=Z8EU.:Z8A6TSI                         SAT 08/09/97 12:59 Page:184

 Object Unit name= Z8EU$MAKE_INIT_LTS                         File name= Z8EU.:Z8A6TOU
 UTS= AUG 09 '97 12:59:43.32 SAT                              Compiler= PL-6/E31         Sev=      00
 SharedLib= :SHARED_SYSTEM                                    Alt SharedLib=


    ****  Control sections  ****

 Sect   Type Bound  Init  Size OctSiz  Section name(segment info)
    0  LblCom even  none     1      1  ITERATION
    1  LblCom even  none     2      2  MKCN
    2  LblCom even  none     1      1  DNT$
    3  LblCom even  none     5      5  DNT_
    4  LblCom even  none     1      1  DNT_BUCKET_NUMBER
    5  LblCom even  none     1      1  DNT_OF_1$
    6  LblCom even  none     1      1  ETT$
    7  LblCom even  none     1      1  HEAD_ETT$
    8  LblCom even  none   512   1000  ETT_BUCKETS
    9  LblCom even  none     5      5  ETT_
   10  LblCom even  none     1      1  QLT$
   11  LblCom even  none     1      1  PREV_01_QLT$
   12  LblCom even  none     5      5  QLT_
   13  LblCom even  none     1      1  ST$
   14  LblCom even  none     5      5  ST_
   15  LblCom even  none     1      1  LTS$
   16  LblCom even  none     5      5  LTS_
   17   Data  even  none    51     63  Z8EU$MAKE_INIT_LTS
   18  RoData even  UTS      2      2  Z8EU$MAKE_INIT_LTS
   19   Proc  even  none  1112   2130  Z8EU$MAKE_INIT_LTS
   20  RoData even  none    32     40  Z8EU$MAKE_INIT_LTS

    ****  Entry defs  ****

                              Check   Calling
                             calling  sequence
  Sect OctLoc Primary Altret sequence   type   Parms  Name
    19      0   yes            yes      Std        4  Z8EU$MAKE_INIT_LTS
PL6.E3A0      #010=Z8EU$MAKE_INIT_LTS File=Z8EU.:Z8A6TSI                         SAT 08/09/97 12:59 Page:185

  ****  Entry refs  ****

         Check        Calling
        calling       sequence
Altret sequence SRef   type   Args  Name
         yes           Std       1 Z8AR$RESERVER
         yes           Std       3 Z8AF$NEW_BASE
         yes           Std       4 Z8AF$FORME
         yes           Std       2 Z8AT$CREATE_TEMP_WITH_BASE
         yes           Std       1 Z8AC$MAKE_CONST
                       nStd      0 X66_AUTO_4
                       nStd      0 X66_ARET

  ****  Data refs  ****

  Flags:  r = read only, s = secondary
Flgs Name                             Flgs Name                             Flgs Name
r    LTS_STEP

  ****  Segment refs  ****

  Flags:  r = read only, s = secondary
Flgs Name                             Flgs Name                             Flgs Name
     NULLSID                               ISSID
PL6.E3A0      #010=Z8EU$MAKE_INIT_LTS File=Z8EU.:Z8A6TSI                         SAT 08/09/97 12:59 Page:186


      657        1        /*M*  Z8EU$MAKE_INIT_LTS -- Build tree of INIT_LTS items */
      658        2        /*T***********************************************************/
      659        3        /*T*                                                         */
      660        4        /*T* Copyright (c) Bull HN Information Systems Inc., 1997    */
      661        5        /*T*                                                         */
      662        6        /*T***********************************************************/
      663        7        /*P*
      664        8               NAME:  Z8EU$MAKE_INIT_LTS
      665        9             AUTHOR:  Albert Wigchert
      666       10            PURPOSE:  Build tree of INIT_LTS items for INITIALIZEd identifier.
      667       11        */
      668       12        /*D*
      669       13               NAME:  Z8EU$MAKE_INIT_LTS
      670       14               CALL:  CALL Z8EU$MAKE_INIT_LTS (IDENT_ST$, SUBSCR$, OFF, INIT_LTS$);
      671       15              INPUT:  IDENT_ST$ -- ST item for the identifier.
      672       16                      SUBSCR$ -- ETT item for all subscripts already applied.
      673       17                      OFF -- offset from identifier, to be used with subscripts.
      674       18             OUTPUT:  INIT_LTS$ -- pointer to tree of INIT_LTS items.
      675       19        DESCRIPTION:  Walk the tree of QLT items for a data item and everything
      676       20                      subordinate to it. Generate an INIT_LTS item for each field that
      677       21                      can be initialized separately, combining adjacent fields and
      678       22                      collapsing tables to scalars if possible.
      679       23        */
      680       24        %EJECT;
PL6.E3A0      #010=Z8EU$MAKE_INIT_LTS File=Z8EU.:Z8A6TSI                         SAT 08/09/97 12:59 Page:187
      681       25        Z8EU$MAKE_INIT_LTS: PROC (IDENT_ST$,

     25 19 000000   000000 700200 xent  Z8EU$MAKE_I* TSX0  ! X66_AUTO_4
        19 000001   000036 000004                    ZERO    30,4

      682       26                                  SUBSCR$,
      683       27                                  OFF,
      684       28                                  INIT_LTS$);
      685       29        %SET PHASE = 1;
      686       30        %INCLUDE Z8A_DEFC;
      687       98        %INCLUDE Z8A_SUPP_MAC;
      688     2498        %INCLUDE Z8A_MKCN;
      689     2515        %INCLUDE Z8A_DNT;
      690     2736        %INCLUDE Z8A_ETT;
      691     3037        %INCLUDE Z8A_QLT;
      692     3143        %INCLUDE Z8A_ST;
      693     6802        %INCLUDE Z8A_TYPES;
      694     6976        %INCLUDE Z8A_LTS;
      695     9053    1   DCL IDENT_ST$      PTR;
      696     9054    1   DCL SUBSCR$        PTR;
      697     9055    1   DCL OFF            SBIN;
      698     9056    1   DCL INIT_LTS$      PTR;
      699     9057    1   DCL INDICES$ (0:47) PTR STATIC;
      700     9058    1   DCL LAST_CREATED   SBIN STATIC INIT (-1);
      701     9059    1   DCL LAST_IN_USE    SBIN STATIC INIT (-1);
      702     9060    1   DCL IDENT_QLT$     PTR;
      703     9061    1   DCL IDENT_BASE$    PTR;
      704     9062    1   DCL IDENT_DIM      UBIN;
      705     9063    1   DCL SON_OFF        SBIN;
      706     9064    1   DCL SON_DIM        UBIN;
      707     9065    1   DCL SON_BASE$      PTR;
      708     9066    1   DCL SON_QLT$       PTR;
      709     9067    1   DCL SON_ST$        PTR;
      710     9068    1   DCL SON_LTS$       PTR;
      711     9069    1   DCL PREV_SON_ST$   PTR;
      712     9070    1   DCL PREV_SON_LTS$  PTR;
      713     9071    1   DCL SUBSCR1$       PTR;
PL6.E3A0      #010=Z8EU$MAKE_INIT_LTS File=Z8EU.:Z8A6TSI                         SAT 08/09/97 12:59 Page:188
      714     9072    1   DCL SUBSCR2$       PTR;
      715     9073    1   DCL DIMS$          PTR;
      716     9074    1   DCL CONST$         PTR;
      717     9075    1   DCL ETT$$          PTR;
      718     9076    1   DCL 1 DNA_ROPCON   STATIC,
      719     9077    1         2 *          UBIN HALF HALIGNED INIT (0),
      720     9078    1         2 CN         UBIN (2) UNAL,
      721     9079    1         2 *          BIT (1) INIT ('0'B),
      722     9080    1         2 TA         BIT (2) INIT (%ADSC9),
      723     9081    1         2 *          BIT (7) INIT ('0'B),
      724     9082    1         2 N          UBIN (6) UNAL;
      725     9083    1   DCL 1 DNA_BCD_ROPCON REDEF DNA_ROPCON,
      726     9084    1         2 *          UBIN HALF HALIGNED,
      727     9085    1         2 CN         UBIN (3) UNAL,
      728     9086    1         2 TA         BIT (2),
      729     9087    1         2 *          BIT (13);
      730     9088    1   DCL Z8AC$MAKE_CONST                ENTRY(1);
      731     9089    1   DCL Z8AF$FORME                     ENTRY(4);
      732     9090    1   DCL Z8AF$NEW_BASE                  ENTRY(3);
      733     9091    1   DCL Z8AT$CREATE_TEMP_WITH_BASE     ENTRY(2);
      734     9092        %EJECT;
PL6.E3A0      #010=Z8EU$MAKE_INIT_LTS File=Z8EU.:Z8A6TSI                         SAT 08/09/97 12:59 Page:189
      735     9093    1     IDENT_QLT$ = IDENT_ST$ -> VARIABLE.QLT$;

   9093 19 000002   200003 470500                    LDP0    @IDENT_ST$,,AUTO
        19 000003   000000 471500                    LDP1    0,,PR0
        19 000004   100007 236100                    LDQ     7,,PR1
        19 000005   200007 756100                    STQ     IDENT_QLT$,,AUTO

      736     9094          %GET_LTS (@ID = %DIMS, @ST$ = IDENT_ST$, @RETURN$ = DIMS$);

   9096 19 000006   100005 236100                    LDQ     5,,PR1
        19 000007   000000 116000 20                 CMPQ    0
        19 000010   000020 600000 19                 TZE     s:9130
        19 000011   100005 473500                    LDP3    5,,PR1
        19 000012   300000 220100                    LDX0    0,,PR3
        19 000013   001105 100003                    CMPX0   581,DU
        19 000014   000020 601000 19                 TNZ     s:9130

   9100 19 000015   300001 236100                    LDQ     1,,PR3
        19 000016   200024 756100                    STQ     DIMS$,,AUTO

   9128 19 000017   000032 710000 19                 TRA     s:9137

   9130 19 000020   000000 116000 20                 CMPQ    0
        19 000021   000030 600000 19                 TZE     s:9134
        19 000022   100005 473500                    LDP3    5,,PR1
        19 000023   300000 220100                    LDX0    0,,PR3
        19 000024   001104 100003                    CMPX0   580,DU
        19 000025   000030 601000 19                 TNZ     s:9134

   9132 19 000026   200024 756100                    STQ     DIMS$,,AUTO
        19 000027   000032 710000 19                 TRA     s:9137

   9134 19 000030   000000 236000 20                 LDQ     0
        19 000031   200024 756100                    STQ     DIMS$,,AUTO

      737     9137    1     IF DIMS$ = ADDR (NIL) OR IDENT_QLT$ -> QLT.B.OCCURS = FALSE THEN

PL6.E3A0      #010=Z8EU$MAKE_INIT_LTS File=Z8EU.:Z8A6TSI                         SAT 08/09/97 12:59 Page:190
   9137 19 000032   000000 116000 20                 CMPQ    0
        19 000033   000040 600000 19                 TZE     s:9138
        19 000034   200007 473500                    LDP3    IDENT_QLT$,,AUTO
        19 000035   300000 236100                    LDQ     0,,PR3
        19 000036   400000 316007                    CANQ    -131072,DL
        19 000037   000042 601000 19                 TNZ     s:9140

      738     9138    1       IDENT_DIM = 0;

   9138 19 000040   200011 450100                    STZ     IDENT_DIM,,AUTO
        19 000041   000052 710000 19                 TRA     s:9223

      739     9139    1     ELSE
      740     9140    1       IDENT_DIM = DIMS$ -> DIMS.D.DIM ((DIMS$ -> DIMS.N - %MIN_DIM_SIZE) / %
              9140                NO_WORDS_PER_DIM);

   9140 19 000042   200024 474500                    LDP4    DIMS$,,AUTO
        19 000043   400000 236100                    LDQ     0,,PR4
        19 000044   777777 376007                    ANQ     -1,DL
        19 000045   000005 136007                    SBLQ    5,DL
        19 000046   000003 506007                    DIV     3,DL
        19 000047   000003 402007                    MPY     3,DL
        19 000050   400003 235106                    LDA     3,QL,PR4
        19 000051   200011 755100                    STA     IDENT_DIM,,AUTO

      741     9141          %NEW_INIT_LTS (@POINTER = INIT_LTS$,
      742     9142                         @SUBSCR$ = SUBSCR$,
      743     9143                         @OFF     = OFF,
      744     9144                         @DIMS    = IDENT_DIM);

   9223 19 000052   000002 236000 16                 LDQ     LTS_+2
        19 000053   000012 036007                    ADLQ    10,DL
        19 000054   000003 116000 16                 CMPQ    LTS_+3
        19 000055   000066 604000 19                 TMI     s:9225

   9224 19 000056   000002 236000 20                 LDQ     2
        19 000057   200030 756100                    STQ     ETT$$+2,,AUTO
PL6.E3A0      #010=Z8EU$MAKE_INIT_LTS File=Z8EU.:Z8A6TSI                         SAT 08/09/97 12:59 Page:191
        19 000060   200030 631500                    EPPR1   ETT$$+2,,AUTO
        19 000061   200031 451500                    STP1    ETT$$+3,,AUTO
        19 000062   200031 630500                    EPPR0   ETT$$+3,,AUTO
        19 000063   000001 631400 20                 EPPR1   1
        19 000064   000000 701000 xent               TSX1    Z8AR$RESERVER
        19 000065   000000 011000                    NOP     0

   9225 19 000066   000002 236000 16                 LDQ     LTS_+2
        19 000067   000022 736000                    QLS     18
        19 000070   000001 036000 16                 ADLQ    LTS_+1
        19 000071   200006 470500                    LDP0    @INIT_LTS$,,AUTO
        19 000072   000000 756100                    STQ     0,,PR0

   9226 19 000073   000012 236007                    LDQ     10,DL
        19 000074   000002 056000 16                 ASQ     LTS_+2

   9227 19 000075   000000 471500                    LDP1    0,,PR0
        19 000076   001062 220003                    LDX0    562,DU
        19 000077   100000 740100                    STX0    0,,PR1

   9233 19 000100   000000 471500                    LDP1    0,,PR0
        19 000101   000000 236003                    LDQ     0,DU
        19 000102   100000 552110                    STBQ    0,'10'O,PR1

   9234 19 000103   000000 471500                    LDP1    0,,PR0
        19 000104   000003 236000 20                 LDQ     3
        19 000105   100000 356100                    ANSQ    0,,PR1

   9235 19 000106   000000 471500                    LDP1    0,,PR0
        19 000107   000004 236000 20                 LDQ     4
        19 000110   100000 356100                    ANSQ    0,,PR1

   9236 19 000111   000000 471500                    LDP1    0,,PR0
        19 000112   000005 236000 20                 LDQ     5
        19 000113   100000 356100                    ANSQ    0,,PR1

   9237 19 000114   000000 471500                    LDP1    0,,PR0
PL6.E3A0      #010=Z8EU$MAKE_INIT_LTS File=Z8EU.:Z8A6TSI                         SAT 08/09/97 12:59 Page:192
        19 000115   000006 236000 20                 LDQ     6
        19 000116   100000 356100                    ANSQ    0,,PR1

   9238 19 000117   000000 471500                    LDP1    0,,PR0
        19 000120   000007 236000 20                 LDQ     7
        19 000121   100000 356100                    ANSQ    0,,PR1

   9239 19 000122   000000 471500                    LDP1    0,,PR0
        19 000123   000000 236000 20                 LDQ     0
        19 000124   100001 756100                    STQ     1,,PR1

   9240 19 000125   000000 471500                    LDP1    0,,PR0
        19 000126   200005 473500                    LDP3    @OFF,,AUTO
        19 000127   300000 235100                    LDA     0,,PR3
        19 000130   100002 755100                    STA     2,,PR1

   9241 19 000131   000000 471500                    LDP1    0,,PR0
        19 000132   100003 756100                    STQ     3,,PR1

   9242 19 000133   000000 471500                    LDP1    0,,PR0
        19 000134   100004 756100                    STQ     4,,PR1

   9243 19 000135   000000 471500                    LDP1    0,,PR0
        19 000136   100005 450100                    STZ     5,,PR1

   9244 19 000137   000000 471500                    LDP1    0,,PR0
        19 000140   100006 450100                    STZ     6,,PR1

   9245 19 000141   000000 471500                    LDP1    0,,PR0
        19 000142   200011 235100                    LDA     IDENT_DIM,,AUTO
        19 000143   100007 755100                    STA     7,,PR1

   9246 19 000144   000000 471500                    LDP1    0,,PR0
        19 000145   200004 474500                    LDP4    @SUBSCR$,,AUTO
        19 000146   400000 236100                    LDQ     0,,PR4
        19 000147   100010 756100                    STQ     8,,PR1

PL6.E3A0      #010=Z8EU$MAKE_INIT_LTS File=Z8EU.:Z8A6TSI                         SAT 08/09/97 12:59 Page:193
   9247 19 000150   000000 471500                    LDP1    0,,PR0
        19 000151   000000 236000 20                 LDQ     0
        19 000152   100011 756100                    STQ     9,,PR1

      745     9250    1     IF IDENT_ST$ -> VARIABLE.B.ELEMENTARY THEN

   9250 19 000153   200003 471500                    LDP1    @IDENT_ST$,,AUTO
        19 000154   100000 475500                    LDP5    0,,PR1
        19 000155   500003 236100                    LDQ     3,,PR5
        19 000156   010000 316003                    CANQ    4096,DU
        19 000157   000546 600000 19                 TZE     s:9346

      746     9251    2       DO;

      747     9252    2         SON_DIM = 0;

   9252 19 000160   200013 450100                    STZ     SON_DIM,,AUTO

      748     9253    3         DO CASE (IDENT_ST$ -> VARIABLE.TYPE);

   9253 19 000161   500002 221100                    LDX1    2,,PR5
        19 000162   000024 101003                    CMPX1   20,DU
        19 000163   000165 602011 19                 TNC     s:9253+4,X1
        19 000164   000335 710000 19                 TRA     s:9299
        19 000165   000251 710000 19                 TRA     s:9269
        19 000166   000245 710000 19                 TRA     s:9267
        19 000167   000245 710000 19                 TRA     s:9267
        19 000170   000335 710000 19                 TRA     s:9299
        19 000171   000335 710000 19                 TRA     s:9299
        19 000172   000335 710000 19                 TRA     s:9299
        19 000173   000314 710000 19                 TRA     s:9287
        19 000174   000245 710000 19                 TRA     s:9267
        19 000175   000325 710000 19                 TRA     s:9293
        19 000176   000335 710000 19                 TRA     s:9299
        19 000177   000335 710000 19                 TRA     s:9299
        19 000200   000277 710000 19                 TRA     s:9280
        19 000201   000227 710000 19                 TRA     s:9260
PL6.E3A0      #010=Z8EU$MAKE_INIT_LTS File=Z8EU.:Z8A6TSI                         SAT 08/09/97 12:59 Page:194
        19 000202   000335 710000 19                 TRA     s:9299
        19 000203   000335 710000 19                 TRA     s:9299
        19 000204   000245 710000 19                 TRA     s:9267
        19 000205   000335 710000 19                 TRA     s:9299
        19 000206   000335 710000 19                 TRA     s:9299
        19 000207   000335 710000 19                 TRA     s:9299
        19 000210   000211 710000 19                 TRA     s:9255

      749     9254    3           CASE (%TYC);

      750     9255    3             INIT_LTS$ -> INIT_LTS.BCD = TRUE;

   9255 19 000211   000000 476500                    LDP6    0,,PR0
        19 000212   000040 236007                    LDQ     32,DL
        19 000213   600000 256100                    ORSQ    0,,PR6

      751     9256    3             IF IDENT_ST$ -> VARIABLE.NDSC.TN = %ADSC9 /* Not overpunched */

   9256 19 000214   100000 475500                    LDP5    0,,PR1
        19 000215   500001 236100                    LDQ     1,,PR5
        19 000216   040000 316007                    CANQ    16384,DL
        19 000217   000335 601000 19                 TNZ     s:9299
        19 000220   030000 376007                    ANQ     12288,DL
        19 000221   030000 116007                    CMPQ    12288,DL
        19 000222   000335 601000 19                 TNZ     s:9299

      752     9257    3                 AND IDENT_ST$ -> VARIABLE.NDSC.S = %NO_SIGN THEN
      753     9258    3               INIT_LTS$ -> INIT_LTS.MFILLABLE = TRUE;

   9258 19 000223   000000 476500                    LDP6    0,,PR0
        19 000224   000200 236007                    LDQ     128,DL
        19 000225   600000 256100                    ORSQ    0,,PR6
        19 000226   000335 710000 19                 TRA     s:9299

      754     9259    3           CASE (%TYB);

      755     9260    3             INIT_LTS$ -> INIT_LTS.BCD = TRUE;
PL6.E3A0      #010=Z8EU$MAKE_INIT_LTS File=Z8EU.:Z8A6TSI                         SAT 08/09/97 12:59 Page:195

   9260 19 000227   000000 476500                    LDP6    0,,PR0
        19 000230   000040 236007                    LDQ     32,DL
        19 000231   600000 256100                    ORSQ    0,,PR6

      756     9261    3             IF NOT IDENT_ST$ -> VARIABLE.B.SUB_CLASS.EDITED THEN

   9261 19 000232   100000 475500                    LDP5    0,,PR1
        19 000233   500003 236100                    LDQ     3,,PR5
        19 000234   000004 316007                    CANQ    4,DL
        19 000235   000335 601000 19                 TNZ     s:9299

      757     9262    4               DO;

      758     9263    4                 INIT_LTS$ -> INIT_LTS.MFILLABLE = TRUE;

   9263 19 000236   000000 476500                    LDP6    0,,PR0
        19 000237   000200 236007                    LDQ     128,DL
        19 000240   600000 256100                    ORSQ    0,,PR6

      759     9264    4                 INIT_LTS$ -> INIT_LTS.FILL = %BITASC ('020'O); /* GBCD space */

   9264 19 000241   000000 475500                    LDP5    0,,PR0
        19 000242   020000 236007                    LDQ     8192,DL
        19 000243   500000 552110                    STBQ    0,'10'O,PR5

      760     9265    4               END;

   9265 19 000244   000335 710000 19                 TRA     s:9299

      761     9266    3           CASE (%TYH, %TYI, %TYJ, %TYK);

      762     9267    3             INIT_LTS$ -> INIT_LTS.MFILLABLE = TRUE;

   9267 19 000245   000000 476500                    LDP6    0,,PR0
        19 000246   000200 236007                    LDQ     128,DL
        19 000247   600000 256100                    ORSQ    0,,PR6
PL6.E3A0      #010=Z8EU$MAKE_INIT_LTS File=Z8EU.:Z8A6TSI                         SAT 08/09/97 12:59 Page:196
        19 000250   000335 710000 19                 TRA     s:9299

      763     9268    3           CASE (%TYD);

      764     9269    3             IF IDENT_ST$ -> VARIABLE.NDSC.S = %NO_SIGN THEN

   9269 19 000251   500001 236100                    LDQ     1,,PR5
        19 000252   030000 376007                    ANQ     12288,DL
        19 000253   030000 116007                    CMPQ    12288,DL
        19 000254   000335 601000 19                 TNZ     s:9299

      765     9270    4               DO;

      766     9271    4                 IF IDENT_ST$ -> VARIABLE.NDSC.TN = %NDSC9 THEN

   9271 19 000255   500001 236100                    LDQ     1,,PR5
        19 000256   040000 316007                    CANQ    16384,DL
        19 000257   000267 601000 19                 TNZ     s:9276

      767     9272    5                   DO;

      768     9273    5                     INIT_LTS$ -> INIT_LTS.MFILLABLE = TRUE;

   9273 19 000260   000000 476500                    LDP6    0,,PR0
        19 000261   000200 236007                    LDQ     128,DL
        19 000262   600000 256100                    ORSQ    0,,PR6

      769     9274    5                     INIT_LTS$ -> INIT_LTS.FILL = '0';

   9274 19 000263   000000 475500                    LDP5    0,,PR0
        19 000264   060000 236007                    LDQ     24576,DL
        19 000265   500000 552110                    STBQ    0,'10'O,PR5

      770     9275    5                   END;

   9275 19 000266   000335 710000 19                 TRA     s:9299

PL6.E3A0      #010=Z8EU$MAKE_INIT_LTS File=Z8EU.:Z8A6TSI                         SAT 08/09/97 12:59 Page:197
      771     9276    4                 ELSE IF NOT IDENT_QLT$ -> QLT.B.DIGIT THEN

   9276 19 000267   200007 476500                    LDP6    IDENT_QLT$,,AUTO
        19 000270   600000 236100                    LDQ     0,,PR6
        19 000271   100000 316007                    CANQ    32768,DL
        19 000272   000335 601000 19                 TNZ     s:9299

      772     9277    4                   INIT_LTS$ -> INIT_LTS.MFILLABLE = TRUE;

   9277 19 000273   000000 477500                    LDP7    0,,PR0
        19 000274   000200 236007                    LDQ     128,DL
        19 000275   700000 256100                    ORSQ    0,,PR7

      773     9278    4               END;

   9278 19 000276   000335 710000 19                 TRA     s:9299

      774     9279    3           CASE (%TYF);

      775     9280    3             IF IDENT_ST$ -> VARIABLE.NDSC.TN = %NDSC9 /* Not overpunched */

   9280 19 000277   500001 236100                    LDQ     1,,PR5
        19 000300   040000 316007                    CANQ    16384,DL
        19 000301   000335 601000 19                 TNZ     s:9299
        19 000302   030000 376007                    ANQ     12288,DL
        19 000303   030000 116007                    CMPQ    12288,DL
        19 000304   000335 601000 19                 TNZ     s:9299

      776     9281    3                 AND IDENT_ST$ -> VARIABLE.NDSC.S = %NO_SIGN THEN
      777     9282    4               DO;

      778     9283    4                 INIT_LTS$ -> INIT_LTS.MFILLABLE = TRUE;

   9283 19 000305   000000 476500                    LDP6    0,,PR0
        19 000306   000200 236007                    LDQ     128,DL
        19 000307   600000 256100                    ORSQ    0,,PR6

PL6.E3A0      #010=Z8EU$MAKE_INIT_LTS File=Z8EU.:Z8A6TSI                         SAT 08/09/97 12:59 Page:198
      779     9284    4                 INIT_LTS$ -> INIT_LTS.FILL = %BITASC ('360'O); /* EBCDIC ZERO */

   9284 19 000310   000000 475500                    LDP5    0,,PR0
        19 000311   360000 236007                    LDQ     122880,DL
        19 000312   500000 552110                    STBQ    0,'10'O,PR5

      780     9285    4               END;

   9285 19 000313   000335 710000 19                 TRA     s:9299

      781     9286    3           CASE (%TYE);

      782     9287    3             IF NOT IDENT_ST$ -> VARIABLE.B.SUB_CLASS.EDITED THEN

   9287 19 000314   000004 316007                    CANQ    4,DL
        19 000315   000335 601000 19                 TNZ     s:9299

      783     9288    4               DO;

      784     9289    4                 INIT_LTS$ -> INIT_LTS.MFILLABLE = TRUE;

   9289 19 000316   000000 476500                    LDP6    0,,PR0
        19 000317   000200 236007                    LDQ     128,DL
        19 000320   600000 256100                    ORSQ    0,,PR6

      785     9290    4                 INIT_LTS$ -> INIT_LTS.FILL = %BITASC ('100'O); /* EBCDIC space */

   9290 19 000321   000000 475500                    LDP5    0,,PR0
        19 000322   100000 236007                    LDQ     32768,DL
        19 000323   500000 552110                    STBQ    0,'10'O,PR5

      786     9291    4               END;

   9291 19 000324   000335 710000 19                 TRA     s:9299

      787     9292    3           CASE (%TYA);

PL6.E3A0      #010=Z8EU$MAKE_INIT_LTS File=Z8EU.:Z8A6TSI                         SAT 08/09/97 12:59 Page:199
      788     9293    3             IF NOT IDENT_ST$ -> VARIABLE.B.SUB_CLASS.EDITED THEN

   9293 19 000325   000004 316007                    CANQ    4,DL
        19 000326   000335 601000 19                 TNZ     s:9299

      789     9294    4               DO;

      790     9295    4                 INIT_LTS$ -> INIT_LTS.MFILLABLE = TRUE;

   9295 19 000327   000000 476500                    LDP6    0,,PR0
        19 000330   000200 236007                    LDQ     128,DL
        19 000331   600000 256100                    ORSQ    0,,PR6

      791     9296    4                 INIT_LTS$ -> INIT_LTS.FILL = ' ';

   9296 19 000332   000000 475500                    LDP5    0,,PR0
        19 000333   040000 236007                    LDQ     16384,DL
        19 000334   500000 552110                    STBQ    0,'10'O,PR5

      792     9297    4               END;

      793     9298    3         END; /* CASE */

      794     9299    2         CALL Z8AF$NEW_BASE (IDENT_ST$, ADDR (NIL), INIT_LTS$ -> INIT_LTS.BASE$);

   9299 19 000335   000000 475500                    LDP5    0,,PR0
        19 000336   000000 236000 20                 LDQ     0
        19 000337   200030 756100                    STQ     ETT$$+2,,AUTO
        19 000340   500001 636500                    EPPR6   1,,PR5
        19 000341   200033 456500                    STP6    ETT$$+5,,AUTO
        19 000342   200030 635500                    EPPR5   ETT$$+2,,AUTO
        19 000343   200032 455500                    STP5    ETT$$+4,,AUTO
        19 000344   200003 236100                    LDQ     @IDENT_ST$,,AUTO
        19 000345   200031 756100                    STQ     ETT$$+3,,AUTO
        19 000346   200031 630500                    EPPR0   ETT$$+3,,AUTO
        19 000347   000010 631400 20                 EPPR1   8
        19 000350   000000 701000 xent               TSX1    Z8AF$NEW_BASE
PL6.E3A0      #010=Z8EU$MAKE_INIT_LTS File=Z8EU.:Z8A6TSI                         SAT 08/09/97 12:59 Page:200
        19 000351   000000 011000                    NOP     0

      795     9300    3         DO CASE (IDENT_ST$ -> VARIABLE.B.CLASS);

   9300 19 000352   200003 470500                    LDP0    @IDENT_ST$,,AUTO
        19 000353   000000 471500                    LDP1    0,,PR0
        19 000354   100003 720100                    LXL0    3,,PR1
        19 000355   000007 360003                    ANX0    7,DU
        19 000356   000002 100003                    CMPX0   2,DU
        19 000357   000361 602010 19                 TNC     s:9300+7,X0
        19 000360   000516 710000 19                 TRA     s:9333
        19 000361   000363 710000 19                 TRA     s:9302
        19 000362   000373 710000 19                 TRA     s:9305

      796     9301    3           CASE (%CLASS_POINTER);

      797     9302    3             INIT_LTS$ -> INIT_LTS.LENGTH = 4;

   9302 19 000363   200006 473500                    LDP3    @INIT_LTS$,,AUTO
        19 000364   300000 474500                    LDP4    0,,PR3
        19 000365   000004 235007                    LDA     4,DL
        19 000366   400005 755100                    STA     5,,PR4

      798     9303    3             INIT_LTS$ -> INIT_LTS.POINTER = TRUE;

   9303 19 000367   300000 471500                    LDP1    0,,PR3
        19 000370   000020 236007                    LDQ     16,DL
        19 000371   100000 256100                    ORSQ    0,,PR1
        19 000372   002127 710000 19                 TRA     s:9617

      799     9304    3           CASE (%CLASS_NUMERIC);

      800     9305    3             DNA_ROPCON.N = IDENT_ST$ -> VARIABLE.NDSC.N;

   9305 19 000373   100001 236100                    LDQ     1,,PR1
        19 000374   000062 752001 17                 STCQ    DNA_ROPCON,'01'O

PL6.E3A0      #010=Z8EU$MAKE_INIT_LTS File=Z8EU.:Z8A6TSI                         SAT 08/09/97 12:59 Page:201
      801     9306    3             DNA_ROPCON.CN = IDENT_ST$ -> VARIABLE.ADSC.CN;

   9306 19 000375   000000 471500                    LDP1    0,,PR0
        19 000376   100001 236100                    LDQ     1,,PR1
        19 000377   000062 676000 17                 ERQ     DNA_ROPCON
        19 000400   600000 376007                    ANQ     -65536,DL
        19 000401   000062 656000 17                 ERSQ    DNA_ROPCON

      802     9307    3             INIT_LTS$ -> INIT_LTS.LENGTH = IDENT_ST$ -> VARIABLE.NDSC.N;

   9307 19 000402   200006 471500                    LDP1    @INIT_LTS$,,AUTO
        19 000403   100000 473500                    LDP3    0,,PR1
        19 000404   000000 474500                    LDP4    0,,PR0
        19 000405   400001 236100                    LDQ     1,,PR4
        19 000406   000077 376007                    ANQ     63,DL
        19 000407   300005 756100                    STQ     5,,PR3

      803     9308    4             DO CASE (IDENT_ST$ -> VARIABLE.TYPE);

   9308 19 000410   000000 473500                    LDP3    0,,PR0
        19 000411   300002 220100                    LDX0    2,,PR3
        19 000412   000024 100003                    CMPX0   20,DU
        19 000413   000415 602010 19                 TNC     s:9308+5,X0
        19 000414   000477 710000 19                 TRA     s:9324
        19 000415   000441 710000 19                 TRA     s:9310
        19 000416   000477 710000 19                 TRA     s:9324
        19 000417   000477 710000 19                 TRA     s:9324
        19 000420   000477 710000 19                 TRA     s:9324
        19 000421   000477 710000 19                 TRA     s:9324
        19 000422   000477 710000 19                 TRA     s:9324
        19 000423   000477 710000 19                 TRA     s:9324
        19 000424   000477 710000 19                 TRA     s:9324
        19 000425   000477 710000 19                 TRA     s:9324
        19 000426   000477 710000 19                 TRA     s:9324
        19 000427   000477 710000 19                 TRA     s:9324
        19 000430   000477 710000 19                 TRA     s:9324
        19 000431   000477 710000 19                 TRA     s:9324
PL6.E3A0      #010=Z8EU$MAKE_INIT_LTS File=Z8EU.:Z8A6TSI                         SAT 08/09/97 12:59 Page:202
        19 000432   000477 710000 19                 TRA     s:9324
        19 000433   000477 710000 19                 TRA     s:9324
        19 000434   000477 710000 19                 TRA     s:9324
        19 000435   000477 710000 19                 TRA     s:9324
        19 000436   000477 710000 19                 TRA     s:9324
        19 000437   000477 710000 19                 TRA     s:9324
        19 000440   000467 710000 19                 TRA     s:9321

      804     9309    4               CASE (%TYD);

      805     9310    4                 IF IDENT_ST$ -> VARIABLE.NDSC.TN = %NDSC4 THEN

   9310 19 000441   300001 236100                    LDQ     1,,PR3
        19 000442   040000 316007                    CANQ    16384,DL
        19 000443   000477 600000 19                 TZE     s:9324

      806     9311    5                   DO;

      807     9312    5                     IF IDENT_ST$ -> VARIABLE.B.DIGIT THEN

   9312 19 000444   300003 236100                    LDQ     3,,PR3
        19 000445   000200 316007                    CANQ    128,DL
        19 000446   000454 600000 19                 TZE     s:9316

      808     9313    5                       DNA_ROPCON.TA = %ADSC4;

   9313 19 000447   000062 236000 17                 LDQ     DNA_ROPCON
        19 000450   000011 376000 20                 ANQ     9
        19 000451   040000 276007                    ORQ     16384,DL
        19 000452   000062 756000 17                 STQ     DNA_ROPCON
        19 000453   000477 710000 19                 TRA     s:9324

      809     9314    5                     ELSE
      810     9315    6                       DO;

      811     9316    6                        INIT_LTS$ -> INIT_LTS.LENGTH = (INIT_LTS$ -> INIT_LTS.LENGTH +
              9316                                  2) / 2;
PL6.E3A0      #010=Z8EU$MAKE_INIT_LTS File=Z8EU.:Z8A6TSI                         SAT 08/09/97 12:59 Page:203

   9316 19 000454   100000 474500                    LDP4    0,,PR1
        19 000455   400005 236100                    LDQ     5,,PR4
        19 000456   000002 036007                    ADLQ    2,DL
        19 000457   000001 772000                    QRL     1
        19 000460   400005 756100                    STQ     5,,PR4

      812     9317    6                        DNA_ROPCON.N = (DNA_ROPCON.N + 1) / 2; /* In units of bytes */

   9317 19 000461   000062 236000 17                 LDQ     DNA_ROPCON
        19 000462   000077 376007                    ANQ     63,DL
        19 000463   000001 036007                    ADLQ    1,DL
        19 000464   000001 772000                    QRL     1
        19 000465   000062 752001 17                 STCQ    DNA_ROPCON,'01'O

      813     9318    6                       END;

      814     9319    5                   END;

   9319 19 000466   000477 710000 19                 TRA     s:9324

      815     9320    4               CASE (%TYC);

      816     9321    4                 DNA_BCD_ROPCON.CN = IDENT_ST$ -> VARIABLE.NDSC.CN;

   9321 19 000467   300001 236100                    LDQ     1,,PR3
        19 000470   000062 676000 17                 ERQ     DNA_ROPCON
        19 000471   700000 376007                    ANQ     -32768,DL
        19 000472   000062 656000 17                 ERSQ    DNA_ROPCON

      817     9322    4                 DNA_BCD_ROPCON.TA = %ADSC6;

   9322 19 000473   000062 236000 17                 LDQ     DNA_ROPCON
        19 000474   000011 376000 20                 ANQ     9
        19 000475   020000 276007                    ORQ     8192,DL
        19 000476   000062 756000 17                 STQ     DNA_ROPCON

PL6.E3A0      #010=Z8EU$MAKE_INIT_LTS File=Z8EU.:Z8A6TSI                         SAT 08/09/97 12:59 Page:204
      818     9323    4             END;

      819     9324    3             CALL Z8AF$FORME (%DNA,

   9324 19 000477   100000 473500                    LDP3    0,,PR1
        19 000500   300001 634500                    EPPR4   1,,PR3
        19 000501   200033 454500                    STP4    ETT$$+5,,AUTO
        19 000502   000014 236000 20                 LDQ     12
        19 000503   200032 756100                    STQ     ETT$$+4,,AUTO
        19 000504   300001 635500                    EPPR5   1,,PR3
        19 000505   200031 455500                    STP5    ETT$$+3,,AUTO
        19 000506   000015 236000 20                 LDQ     13
        19 000507   200030 756100                    STQ     ETT$$+2,,AUTO
        19 000510   200030 630500                    EPPR0   ETT$$+2,,AUTO
        19 000511   000012 631400 20                 EPPR1   10
        19 000512   000000 701000 xent               TSX1    Z8AF$FORME
        19 000513   000000 011000                    NOP     0

      820     9325    3                              INIT_LTS$ -> INIT_LTS.BASE$,
      821     9326    3                              DNA_ROPCON,
      822     9327    3                              INIT_LTS$ -> INIT_LTS.BASE$);
      823     9328                  /* DNA needed for MFILL, move one table element to another, etc. */
      824     9329    3             DNA_ROPCON = '0'B;

   9329 19 000514   000062 450000 17                 STZ     DNA_ROPCON
        19 000515   002127 710000 19                 TRA     s:9617

      825     9330    3           CASE (ELSE);

      826     9331                  %GET_ADSC_LEN (ST$ = IDENT_ST$, RTN = INIT_LTS$ -> INIT_LTS.LENGTH);

   9333 19 000516   100003 236100                    LDQ     3,,PR1
        19 000517   004000 316003                    CANQ    2048,DU
        19 000520   000540 600000 19                 TZE     s:9339

   9334 19 000521   100005 473500                    LDP3    5,,PR1
        19 000522   300000 221100                    LDX1    0,,PR3
PL6.E3A0      #010=Z8EU$MAKE_INIT_LTS File=Z8EU.:Z8A6TSI                         SAT 08/09/97 12:59 Page:205
        19 000523   001105 101003                    CMPX1   581,DU
        19 000524   000533 601000 19                 TNZ     s:9337

   9335 19 000525   200006 474500                    LDP4    @INIT_LTS$,,AUTO
        19 000526   400000 475500                    LDP5    0,,PR4
        19 000527   300003 476500                    LDP6    3,,PR3
        19 000530   600001 235100                    LDA     1,,PR6
        19 000531   500005 755100                    STA     5,,PR5
        19 000532   002127 710000 19                 TRA     s:9617

   9337 19 000533   200006 474500                    LDP4    @INIT_LTS$,,AUTO
        19 000534   400000 475500                    LDP5    0,,PR4
        19 000535   300001 235100                    LDA     1,,PR3
        19 000536   500005 755100                    STA     5,,PR5
        19 000537   002127 710000 19                 TRA     s:9617

   9339 19 000540   200006 473500                    LDP3    @INIT_LTS$,,AUTO
        19 000541   300000 474500                    LDP4    0,,PR3
        19 000542   100001 236100                    LDQ     1,,PR1
        19 000543   007777 376007                    ANQ     4095,DL
        19 000544   400005 756100                    STQ     5,,PR4

      827     9342    3         END; /* CASE */

      828     9343    2       END; /* ELEMENTARY */

   9343 19 000545   002127 710000 19                 TRA     s:9617

      829     9344    1     ELSE
      830     9345    2       DO; /* GROUP ITEM */

      831     9346    2         SON_QLT$ = IDENT_QLT$ -> QLT.SON; /* Cannot be ADDR (NIL) */

   9346 19 000546   200007 476500                    LDP6    IDENT_QLT$,,AUTO
        19 000547   600003 236100                    LDQ     3,,PR6
        19 000550   200015 756100                    STQ     SON_QLT$,,AUTO

PL6.E3A0      #010=Z8EU$MAKE_INIT_LTS File=Z8EU.:Z8A6TSI                         SAT 08/09/97 12:59 Page:206
      832     9347    2         PREV_SON_LTS$ = ADDR (NIL);

   9347 19 000551   000000 236000 20                 LDQ     0
        19 000552   200021 756100                    STQ     PREV_SON_LTS$,,AUTO

      833     9348    2         PREV_SON_ST$ = ADDR (NIL);

   9348 19 000553   200020 756100                    STQ     PREV_SON_ST$,,AUTO

      834     9349    2         INIT_LTS$ -> INIT_LTS.GROUP = TRUE;

   9349 19 000554   000000 477500                    LDP7    0,,PR0
        19 000555   000100 236007                    LDQ     64,DL
        19 000556   700000 256100                    ORSQ    0,,PR7

      835     9350              %GET_ADSC_LEN (ST$ = IDENT_ST$, RTN = INIT_LTS$ -> INIT_LTS.LENGTH);

   9352 19 000557   100000 475500                    LDP5    0,,PR1
        19 000560   500003 236100                    LDQ     3,,PR5
        19 000561   004000 316003                    CANQ    2048,DU
        19 000562   000606 600000 19                 TZE     s:9358

   9353 19 000563   500005 477500                    LDP7    5,,PR5
        19 000564   700000 221100                    LDX1    0,,PR7
        19 000565   001105 101003                    CMPX1   581,DU
        19 000566   000577 601000 19                 TNZ     s:9356

   9354 19 000567   000000 471500                    LDP1    0,,PR0
        19 000570   200003 475500                    LDP5    @IDENT_ST$,,AUTO
        19 000571   500000 477500                    LDP7    0,,PR5
        19 000572   700005 470500                    LDP0    5,,PR7
        19 000573   000003 473500                    LDP3    3,,PR0
        19 000574   300001 235100                    LDA     1,,PR3
        19 000575   100005 755100                    STA     5,,PR1
        19 000576   000612 710000 19                 TRA     s:9361

   9356 19 000577   000000 471500                    LDP1    0,,PR0
PL6.E3A0      #010=Z8EU$MAKE_INIT_LTS File=Z8EU.:Z8A6TSI                         SAT 08/09/97 12:59 Page:207
        19 000600   200003 475500                    LDP5    @IDENT_ST$,,AUTO
        19 000601   500000 477500                    LDP7    0,,PR5
        19 000602   700005 470500                    LDP0    5,,PR7
        19 000603   000001 235100                    LDA     1,,PR0
        19 000604   100005 755100                    STA     5,,PR1
        19 000605   000612 710000 19                 TRA     s:9361

   9358 19 000606   000000 477500                    LDP7    0,,PR0
        19 000607   500001 236100                    LDQ     1,,PR5
        19 000610   007777 376007                    ANQ     4095,DL
        19 000611   700005 756100                    STQ     5,,PR7

      836     9361    2         IF INIT_LTS$ -> INIT_LTS.DIMS <= 1 OR LAST_IN_USE < 0 THEN

   9361 19 000612   200006 470500                    LDP0    @INIT_LTS$,,AUTO
        19 000613   000000 471500                    LDP1    0,,PR0
        19 000614   100007 235100                    LDA     7,,PR1
        19 000615   000002 115007                    CMPA    2,DL
        19 000616   000621 602000 19                 TNC     s:9362
        19 000617   000061 236000 17                 LDQ     LAST_IN_USE
        19 000620   000624 605000 19                 TPL     s:9363

      837     9362    2           SUBSCR1$ = SUBSCR$;

   9362 19 000621   400000 236100                    LDQ     0,,PR4
        19 000622   200022 756100                    STQ     SUBSCR1$,,AUTO
        19 000623   000647 710000 19                 TRA     s:9368

      838     9363    2         ELSE IF SUBSCR$ = ADDR (NIL) THEN

   9363 19 000624   400000 236100                    LDQ     0,,PR4
        19 000625   000000 116000 20                 CMPQ    0
        19 000626   000633 601000 19                 TNZ     s:9366

      839     9364    2           SUBSCR1$ = INDICES$ (LAST_IN_USE);

   9364 19 000627   000061 721000 17                 LXL1    LAST_IN_USE
PL6.E3A0      #010=Z8EU$MAKE_INIT_LTS File=Z8EU.:Z8A6TSI                         SAT 08/09/97 12:59 Page:208
        19 000630   000000 236011 17                 LDQ     INDICES$,X1
        19 000631   200022 756100                    STQ     SUBSCR1$,,AUTO
        19 000632   000647 710000 19                 TRA     s:9368

      840     9365    2         ELSE
      841     9366    2           CALL Z8AF$FORME (%ADI, SUBSCR$, INDICES$ (LAST_IN_USE), SUBSCR1$);

   9366 19 000633   200022 633500                    EPPR3   SUBSCR1$,,AUTO
        19 000634   200033 453500                    STP3    ETT$$+5,,AUTO
        19 000635   000061 721000 17                 LXL1    LAST_IN_USE
        19 000636   000000 631411 17                 EPPR1   INDICES$,X1
        19 000637   200032 451500                    STP1    ETT$$+4,,AUTO
        19 000640   200004 236100                    LDQ     @SUBSCR$,,AUTO
        19 000641   000017 235000 20                 LDA     15
        19 000642   200030 757100                    STAQ    ETT$$+2,,AUTO
        19 000643   200030 630500                    EPPR0   ETT$$+2,,AUTO
        19 000644   000012 631400 20                 EPPR1   10
        19 000645   000000 701000 xent               TSX1    Z8AF$FORME
        19 000646   000000 011000                    NOP     0

      842     9367    3         DO UNTIL SON_QLT$ = ADDR (NIL);

      843     9368    3           SON_DIM = 0;

   9368 19 000647   200013 450100                    STZ     SON_DIM,,AUTO

      844     9369    3           SON_ST$ = SON_QLT$ -> QLT.ST$;

   9369 19 000650   200015 470500                    LDP0    SON_QLT$,,AUTO
        19 000651   000004 236100                    LDQ     4,,PR0
        19 000652   200016 756100                    STQ     SON_ST$,,AUTO

      845     9370    3           IF SON_QLT$ -> QLT.B.RENAMES

   9370 19 000653   000000 236100                    LDQ     0,,PR0
        19 000654   040000 316007                    CANQ    16384,DL
        19 000655   002062 601000 19                 TNZ     s:9604
PL6.E3A0      #010=Z8EU$MAKE_INIT_LTS File=Z8EU.:Z8A6TSI                         SAT 08/09/97 12:59 Page:209
        19 000656   200016 471500                    LDP1    SON_ST$,,AUTO
        19 000657   100000 220100                    LDX0    0,,PR1
        19 000660   000764 100003                    CMPX0   500,DU
        19 000661   002062 600000 19                 TZE     s:9604
        19 000662   100003 430100                    FSZN    3,,PR1
        19 000663   002062 604000 19                 TMI     s:9604

      846     9371    3               OR SON_ST$ -> ST.ID = %CONDITION
      847     9372    3               OR SON_ST$ -> VARIABLE.B.REDEF_SUB THEN; /* Ignore item */
      848     9373    3           ELSE IF SON_ST$ -> VARIABLE.TYPE = %TYX

   9373 19 000664   100002 221100                    LDX1    2,,PR1
        19 000665   000011 101003                    CMPX1   9,DU
        19 000666   000677 600000 19                 TZE     s:9377
        19 000667   000012 101003                    CMPX1   10,DU
        19 000670   000677 600000 19                 TZE     s:9377
        19 000671   100006 473500                    LDP3    6,,PR1
        19 000672   300004 222100                    LDX2    4,,PR3
        19 000673   040000 106540                    CMPC    fill='040'O
        19 000674   300004 400012                    ADSC9   4,,PR3                   cn=2,n=*X2
        19 000675   000000 000006 18                 ADSC9   0                        cn=0,n=6
        19 000676   000707 601000 19                 TNZ     s:9382

      849     9374    3               OR SON_ST$ -> VARIABLE.TYPE = %TYY
      850     9375    3               OR SON_ST$ -> VARIABLE.DNT$ -> DNT.TEXT.NAME = 'FILLER' THEN
      851     9376    4             DO;

      852     9377    4               INIT_LTS$ -> INIT_LTS.FILLER = TRUE; /* Uninitializable field found */

   9377 19 000677   200006 473500                    LDP3    @INIT_LTS$,,AUTO
        19 000700   300000 474500                    LDP4    0,,PR3
        19 000701   000400 236007                    LDQ     256,DL
        19 000702   400000 256100                    ORSQ    0,,PR4

      853     9378    4               INIT_LTS$ -> INIT_LTS.MFILLABLE = FALSE;

   9378 19 000703   300000 471500                    LDP1    0,,PR3
PL6.E3A0      #010=Z8EU$MAKE_INIT_LTS File=Z8EU.:Z8A6TSI                         SAT 08/09/97 12:59 Page:210
        19 000704   000004 236000 20                 LDQ     4
        19 000705   100000 356100                    ANSQ    0,,PR1

      854     9379    4             END;

   9379 19 000706   002062 710000 19                 TRA     s:9604

      855     9380    3           ELSE
      856     9381    4             DO; /* Initializable item */

      857     9382    4               IF SUBSCR1$ = ADDR (NIL) THEN

   9382 19 000707   200022 236100                    LDQ     SUBSCR1$,,AUTO
        19 000710   000000 116000 20                 CMPQ    0
        19 000711   000714 601000 19                 TNZ     s:9384

      858     9383    4                 SUBSCR2$ = SUBSCR1$;

   9383 19 000712   200023 756100                    STQ     SUBSCR2$,,AUTO
        19 000713   001003 710000 19                 TRA     s:9396

      859     9384    4               ELSE IF SON_ST$ -> VARIABLE.B.DIGIT THEN

   9384 19 000714   100003 236100                    LDQ     3,,PR1
        19 000715   000200 316007                    CANQ    128,DL
        19 000716   000734 600000 19                 TZE     s:9386

      860     9385    4                 CALL Z8AF$FORME (%MPI2, SUBSCR1$, 1, SUBSCR2$);

   9385 19 000717   200023 634500                    EPPR4   SUBSCR2$,,AUTO
        19 000720   200033 454500                    STP4    ETT$$+5,,AUTO
        19 000721   000022 236000 20                 LDQ     18
        19 000722   200032 756100                    STQ     ETT$$+4,,AUTO
        19 000723   200022 633500                    EPPR3   SUBSCR1$,,AUTO
        19 000724   200031 453500                    STP3    ETT$$+3,,AUTO
        19 000725   000023 236000 20                 LDQ     19
        19 000726   200030 756100                    STQ     ETT$$+2,,AUTO
PL6.E3A0      #010=Z8EU$MAKE_INIT_LTS File=Z8EU.:Z8A6TSI                         SAT 08/09/97 12:59 Page:211
        19 000727   200030 630500                    EPPR0   ETT$$+2,,AUTO
        19 000730   000012 631400 20                 EPPR1   10
        19 000731   000000 701000 xent               TSX1    Z8AF$FORME
        19 000732   000000 011000                    NOP     0
        19 000733   001003 710000 19                 TRA     s:9396

      861     9386    4               ELSE IF SON_ST$ -> VARIABLE.TYPE = %TYB OR

   9386 19 000734   000014 101003                    CMPX1   12,DU
        19 000735   000740 600000 19                 TZE     s:9389
        19 000736   000023 101003                    CMPX1   19,DU
        19 000737   001001 601000 19                 TNZ     s:9395

      862     9387    4                   SON_ST$ -> VARIABLE.TYPE = %TYC THEN
      863     9388    5                 DO;

      864     9389    5                   MKCN.CON = 3;

   9389 19 000740   000003 235007                    LDA     3,DL
        19 000741   000000 755000 1                  STA     MKCN

      865     9390    5                   CALL Z8AC$MAKE_CONST (ETT$$);

   9390 19 000742   200026 634500                    EPPR4   ETT$$,,AUTO
        19 000743   200030 454500                    STP4    ETT$$+2,,AUTO
        19 000744   200030 630500                    EPPR0   ETT$$+2,,AUTO
        19 000745   000001 631400 20                 EPPR1   1
        19 000746   000000 701000 xent               TSX1    Z8AC$MAKE_CONST
        19 000747   000000 011000                    NOP     0

      866     9391    5                   CALL Z8AF$FORME (%MPI, SUBSCR1$, ETT$$, SUBSCR2$);

   9391 19 000750   200023 630500                    EPPR0   SUBSCR2$,,AUTO
        19 000751   200033 450500                    STP0    ETT$$+5,,AUTO
        19 000752   200026 631500                    EPPR1   ETT$$,,AUTO
        19 000753   200032 451500                    STP1    ETT$$+4,,AUTO
        19 000754   200022 633500                    EPPR3   SUBSCR1$,,AUTO
PL6.E3A0      #010=Z8EU$MAKE_INIT_LTS File=Z8EU.:Z8A6TSI                         SAT 08/09/97 12:59 Page:212
        19 000755   200031 453500                    STP3    ETT$$+3,,AUTO
        19 000756   000025 236000 20                 LDQ     21
        19 000757   200030 756100                    STQ     ETT$$+2,,AUTO
        19 000760   200030 630500                    EPPR0   ETT$$+2,,AUTO
        19 000761   000012 631400 20                 EPPR1   10
        19 000762   000000 701000 xent               TSX1    Z8AF$FORME
        19 000763   000000 011000                    NOP     0

      867     9392    5                   CALL Z8AF$FORME (%DVI2, SUBSCR2$, 1, SUBSCR2$);

   9392 19 000764   200023 630500                    EPPR0   SUBSCR2$,,AUTO
        19 000765   200033 450500                    STP0    ETT$$+5,,AUTO
        19 000766   000022 236000 20                 LDQ     18
        19 000767   200032 756100                    STQ     ETT$$+4,,AUTO
        19 000770   200023 631500                    EPPR1   SUBSCR2$,,AUTO
        19 000771   200031 451500                    STP1    ETT$$+3,,AUTO
        19 000772   000027 236000 20                 LDQ     23
        19 000773   200030 756100                    STQ     ETT$$+2,,AUTO
        19 000774   200030 630500                    EPPR0   ETT$$+2,,AUTO
        19 000775   000012 631400 20                 EPPR1   10
        19 000776   000000 701000 xent               TSX1    Z8AF$FORME
        19 000777   000000 011000                    NOP     0

      868     9393    5                 END;

   9393 19 001000   001003 710000 19                 TRA     s:9396

      869     9394    4               ELSE
      870     9395    4                 SUBSCR2$ = SUBSCR1$;

   9395 19 001001   200022 236100                    LDQ     SUBSCR1$,,AUTO
        19 001002   200023 756100                    STQ     SUBSCR2$,,AUTO

      871     9396    4               IF SON_QLT$ -> QLT.B.OCCURS THEN

   9396 19 001003   200015 470500                    LDP0    SON_QLT$,,AUTO
        19 001004   000000 236100                    LDQ     0,,PR0
PL6.E3A0      #010=Z8EU$MAKE_INIT_LTS File=Z8EU.:Z8A6TSI                         SAT 08/09/97 12:59 Page:213
        19 001005   400000 316007                    CANQ    -131072,DL
        19 001006   001063 600000 19                 TZE     s:9453

      872     9397    5                 DO;

      873     9398                        %GET_LTS (@ID = %DIMS, @ST$ = SON_ST$, @RETURN$ = DIMS$);

   9400 19 001007   200016 471500                    LDP1    SON_ST$,,AUTO
        19 001010   100005 236100                    LDQ     5,,PR1
        19 001011   000000 116000 20                 CMPQ    0
        19 001012   001022 600000 19                 TZE     s:9434
        19 001013   100005 473500                    LDP3    5,,PR1
        19 001014   300000 220100                    LDX0    0,,PR3
        19 001015   001105 100003                    CMPX0   581,DU
        19 001016   001022 601000 19                 TNZ     s:9434

   9404 19 001017   300001 236100                    LDQ     1,,PR3
        19 001020   200024 756100                    STQ     DIMS$,,AUTO

   9432 19 001021   001034 710000 19                 TRA     s:9441

   9434 19 001022   000000 116000 20                 CMPQ    0
        19 001023   001032 600000 19                 TZE     s:9438
        19 001024   100005 473500                    LDP3    5,,PR1
        19 001025   300000 220100                    LDX0    0,,PR3
        19 001026   001104 100003                    CMPX0   580,DU
        19 001027   001032 601000 19                 TNZ     s:9438

   9436 19 001030   200024 756100                    STQ     DIMS$,,AUTO
        19 001031   001034 710000 19                 TRA     s:9441

   9438 19 001032   000000 236000 20                 LDQ     0
        19 001033   200024 756100                    STQ     DIMS$,,AUTO

      874     9441    5                   SON_DIM = DIMS$ -> DIMS.D.DIM ((DIMS$ -> DIMS.N - %MIN_DIM_SIZE) /

   9441 19 001034   200024 473500                    LDP3    DIMS$,,AUTO
PL6.E3A0      #010=Z8EU$MAKE_INIT_LTS File=Z8EU.:Z8A6TSI                         SAT 08/09/97 12:59 Page:214
        19 001035   300000 236100                    LDQ     0,,PR3
        19 001036   777777 376007                    ANQ     -1,DL
        19 001037   000005 136007                    SBLQ    5,DL
        19 001040   000003 506007                    DIV     3,DL
        19 001041   000003 402007                    MPY     3,DL
        19 001042   300003 235106                    LDA     3,QL,PR3
        19 001043   200013 755100                    STA     SON_DIM,,AUTO

      875     9442    5                               %NO_WORDS_PER_DIM);
      876     9443    5                   IF SON_DIM > 1 THEN

   9443 19 001044   000002 115007                    CMPA    2,DL
        19 001045   001063 602000 19                 TNC     s:9453

      877     9444    6                     DO;

      878     9445    6                       LAST_IN_USE = LAST_IN_USE + 1;

   9445 19 001046   000061 054000 17                 AOS     LAST_IN_USE

      879     9446    6                       IF LAST_IN_USE > LAST_CREATED THEN

   9446 19 001047   000061 236000 17                 LDQ     LAST_IN_USE
        19 001050   000060 116000 17                 CMPQ    LAST_CREATED
        19 001051   001063 604400 19                 TMOZ    s:9453

      880     9447    7                         DO;

      881     9448    7                           LAST_CREATED = LAST_IN_USE;

   9448 19 001052   000060 756000 17                 STQ     LAST_CREATED

      882     9449    7                           CALL Z8AT$CREATE_TEMP_WITH_BASE (%SCALAR, INDICES$ (
              9449                                    LAST_IN_USE));

   9449 19 001053   000000 634406 17                 EPPR4   INDICES$,QL
        19 001054   200031 454500                    STP4    ETT$$+3,,AUTO
PL6.E3A0      #010=Z8EU$MAKE_INIT_LTS File=Z8EU.:Z8A6TSI                         SAT 08/09/97 12:59 Page:215
        19 001055   000032 236000 20                 LDQ     26
        19 001056   200030 756100                    STQ     ETT$$+2,,AUTO
        19 001057   200030 630500                    EPPR0   ETT$$+2,,AUTO
        19 001060   000030 631400 20                 EPPR1   24
        19 001061   000000 701000 xent               TSX1    Z8AT$CREATE_TEMP_WITH_BASE
        19 001062   000000 011000                    NOP     0

      883     9450    7                         END;

      884     9451    6                     END; /* SON_DIM > 1 */

      885     9452    5                 END; /* SON_QLT$ -> QLT.B.OCCURS */

      886     9453    4               SON_OFF = OFF;

   9453 19 001063   200005 470500                    LDP0    @OFF,,AUTO
        19 001064   000000 235100                    LDA     0,,PR0
        19 001065   200012 755100                    STA     SON_OFF,,AUTO

      887     9454    5               DO CASE (SON_ST$ -> VARIABLE.TYPE);

   9454 19 001066   200016 471500                    LDP1    SON_ST$,,AUTO
        19 001067   100002 220100                    LDX0    2,,PR1
        19 001070   000024 100003                    CMPX0   20,DU
        19 001071   001073 602010 19                 TNC     s:9454+5,X0
        19 001072   001135 710000 19                 TRA     s:9463
        19 001073   001117 710000 19                 TRA     s:9456
        19 001074   001132 710000 19                 TRA     s:9461
        19 001075   001135 710000 19                 TRA     s:9463
        19 001076   001135 710000 19                 TRA     s:9463
        19 001077   001132 710000 19                 TRA     s:9461
        19 001100   001132 710000 19                 TRA     s:9461
        19 001101   001135 710000 19                 TRA     s:9463
        19 001102   001135 710000 19                 TRA     s:9463
        19 001103   001135 710000 19                 TRA     s:9463
        19 001104   001135 710000 19                 TRA     s:9463
        19 001105   001135 710000 19                 TRA     s:9463
PL6.E3A0      #010=Z8EU$MAKE_INIT_LTS File=Z8EU.:Z8A6TSI                         SAT 08/09/97 12:59 Page:216
        19 001106   001135 710000 19                 TRA     s:9463
        19 001107   001125 710000 19                 TRA     s:9459
        19 001110   001135 710000 19                 TRA     s:9463
        19 001111   001135 710000 19                 TRA     s:9463
        19 001112   001135 710000 19                 TRA     s:9463
        19 001113   001135 710000 19                 TRA     s:9463
        19 001114   001135 710000 19                 TRA     s:9463
        19 001115   001132 710000 19                 TRA     s:9461
        19 001116   001125 710000 19                 TRA     s:9459

      888     9455    5                 CASE (%TYD);

      889     9456    5                   IF SON_ST$ -> VARIABLE.NDSC.TN = %NDSC4 THEN

   9456 19 001117   100001 236100                    LDQ     1,,PR1
        19 001120   040000 316007                    CANQ    16384,DL
        19 001121   001135 600000 19                 TZE     s:9463

      890     9457    5                     SON_OFF = SON_OFF * 2;

   9457 19 001122   200012 236100                    LDQ     SON_OFF,,AUTO
        19 001123   200012 056100                    ASQ     SON_OFF,,AUTO
        19 001124   001135 710000 19                 TRA     s:9463

      891     9458    5                 CASE (%TYB, %TYC);

      892     9459    5                   SON_OFF = SON_OFF * 3 / 2;

   9459 19 001125   200012 236100                    LDQ     SON_OFF,,AUTO
        19 001126   000003 402007                    MPY     3,DL
        19 001127   000002 506007                    DIV     2,DL
        19 001130   200012 756100                    STQ     SON_OFF,,AUTO
        19 001131   001135 710000 19                 TRA     s:9463

      893     9460    5                 CASE (%TYI, %TYP, %TYR, %TYQ);

      894     9461    5                   SON_OFF = SON_OFF / 4;
PL6.E3A0      #010=Z8EU$MAKE_INIT_LTS File=Z8EU.:Z8A6TSI                         SAT 08/09/97 12:59 Page:217

   9461 19 001132   200012 236100                    LDQ     SON_OFF,,AUTO
        19 001133   000004 506007                    DIV     4,DL
        19 001134   200012 756100                    STQ     SON_OFF,,AUTO

      895     9462    5               END;

      896     9463    4               CALL Z8EU$MAKE_INIT_LTS (SON_ST$, SUBSCR2$, SON_OFF, SON_LTS$);

   9463 19 001135   200017 633500                    EPPR3   SON_LTS$,,AUTO
        19 001136   200033 453500                    STP3    ETT$$+5,,AUTO
        19 001137   200012 634500                    EPPR4   SON_OFF,,AUTO
        19 001140   200032 454500                    STP4    ETT$$+4,,AUTO
        19 001141   200023 635500                    EPPR5   SUBSCR2$,,AUTO
        19 001142   200031 455500                    STP5    ETT$$+3,,AUTO
        19 001143   200016 636500                    EPPR6   SON_ST$,,AUTO
        19 001144   200030 456500                    STP6    ETT$$+2,,AUTO
        19 001145   200030 630500                    EPPR0   ETT$$+2,,AUTO
        19 001146   000012 631400 20                 EPPR1   10
        19 001147   000000 701000 19                 TSX1    s:25
        19 001150   000000 011000                    NOP     0

      897     9464    4               IF NOT SON_LTS$ -> INIT_LTS.GROUP AND SUBSCR2$ ~= ADDR (NIL) THEN

   9464 19 001151   200017 470500                    LDP0    SON_LTS$,,AUTO
        19 001152   000000 236100                    LDQ     0,,PR0
        19 001153   000100 316007                    CANQ    64,DL
        19 001154   001247 601000 19                 TNZ     s:9473
        19 001155   200023 236100                    LDQ     SUBSCR2$,,AUTO
        19 001156   000000 116000 20                 CMPQ    0
        19 001157   001247 600000 19                 TZE     s:9473

      898     9465    5                 DO CASE (SON_ST$ -> VARIABLE.TYPE);

   9465 19 001160   200016 471500                    LDP1    SON_ST$,,AUTO
        19 001161   100002 220100                    LDX0    2,,PR1
        19 001162   000023 100003                    CMPX0   19,DU
PL6.E3A0      #010=Z8EU$MAKE_INIT_LTS File=Z8EU.:Z8A6TSI                         SAT 08/09/97 12:59 Page:218
        19 001163   001165 602010 19                 TNC     s:9465+5,X0
        19 001164   001247 710000 19                 TRA     s:9473
        19 001165   001210 710000 19                 TRA     s:9467
        19 001166   001233 710000 19                 TRA     s:9471
        19 001167   001247 710000 19                 TRA     s:9473
        19 001170   001247 710000 19                 TRA     s:9473
        19 001171   001233 710000 19                 TRA     s:9471
        19 001172   001233 710000 19                 TRA     s:9471
        19 001173   001247 710000 19                 TRA     s:9473
        19 001174   001247 710000 19                 TRA     s:9473
        19 001175   001247 710000 19                 TRA     s:9473
        19 001176   001247 710000 19                 TRA     s:9473
        19 001177   001247 710000 19                 TRA     s:9473
        19 001200   001247 710000 19                 TRA     s:9473
        19 001201   001247 710000 19                 TRA     s:9473
        19 001202   001247 710000 19                 TRA     s:9473
        19 001203   001247 710000 19                 TRA     s:9473
        19 001204   001247 710000 19                 TRA     s:9473
        19 001205   001247 710000 19                 TRA     s:9473
        19 001206   001247 710000 19                 TRA     s:9473
        19 001207   001233 710000 19                 TRA     s:9471

      899     9466    5                   CASE (%TYD);

      900     9467    5                     IF SON_ST$ -> VARIABLE.NDSC.TN = %NDSC4 AND

   9467 19 001210   100001 236100                    LDQ     1,,PR1
        19 001211   040000 316007                    CANQ    16384,DL
        19 001212   001247 600000 19                 TZE     s:9473
        19 001213   100003 236100                    LDQ     3,,PR1
        19 001214   000200 316007                    CANQ    128,DL
        19 001215   001247 601000 19                 TNZ     s:9473

      901     9468    5                         NOT SON_ST$ -> VARIABLE.B.DIGIT THEN
      902     9469    5                       CALL Z8AF$FORME (%MPI2, SUBSCR2$, 1, SUBSCR2$);

   9469 19 001216   200023 633500                    EPPR3   SUBSCR2$,,AUTO
PL6.E3A0      #010=Z8EU$MAKE_INIT_LTS File=Z8EU.:Z8A6TSI                         SAT 08/09/97 12:59 Page:219
        19 001217   200033 453500                    STP3    ETT$$+5,,AUTO
        19 001220   000022 236000 20                 LDQ     18
        19 001221   200032 756100                    STQ     ETT$$+4,,AUTO
        19 001222   200023 634500                    EPPR4   SUBSCR2$,,AUTO
        19 001223   200031 454500                    STP4    ETT$$+3,,AUTO
        19 001224   000023 236000 20                 LDQ     19
        19 001225   200030 756100                    STQ     ETT$$+2,,AUTO
        19 001226   200030 630500                    EPPR0   ETT$$+2,,AUTO
        19 001227   000012 631400 20                 EPPR1   10
        19 001230   000000 701000 xent               TSX1    Z8AF$FORME
        19 001231   000000 011000                    NOP     0
        19 001232   001247 710000 19                 TRA     s:9473

      903     9470    5                   CASE (%TYI, %TYP, %TYR, %TYQ);

      904     9471    5                     CALL Z8AF$FORME (%DVI2, SUBSCR2$, 2, SUBSCR2$);

   9471 19 001233   200023 633500                    EPPR3   SUBSCR2$,,AUTO
        19 001234   200033 453500                    STP3    ETT$$+5,,AUTO
        19 001235   000034 236000 20                 LDQ     28
        19 001236   200032 756100                    STQ     ETT$$+4,,AUTO
        19 001237   200023 634500                    EPPR4   SUBSCR2$,,AUTO
        19 001240   200031 454500                    STP4    ETT$$+3,,AUTO
        19 001241   000027 236000 20                 LDQ     23
        19 001242   200030 756100                    STQ     ETT$$+2,,AUTO
        19 001243   200030 630500                    EPPR0   ETT$$+2,,AUTO
        19 001244   000012 631400 20                 EPPR1   10
        19 001245   000000 701000 xent               TSX1    Z8AF$FORME
        19 001246   000000 011000                    NOP     0

      905     9472    5                 END;

      906     9473    4               IF SON_DIM > 1 THEN

   9473 19 001247   200013 235100                    LDA     SON_DIM,,AUTO
        19 001250   000002 115007                    CMPA    2,DL
        19 001251   001446 602000 19                 TNC     s:9511
PL6.E3A0      #010=Z8EU$MAKE_INIT_LTS File=Z8EU.:Z8A6TSI                         SAT 08/09/97 12:59 Page:220

      907     9474    5                 DO;

      908     9475    5                   IF SON_LTS$ -> INIT_LTS.MFILLABLE AND

   9475 19 001252   200017 470500                    LDP0    SON_LTS$,,AUTO
        19 001253   000000 236100                    LDQ     0,,PR0
        19 001254   000200 316007                    CANQ    128,DL
        19 001255   001357 600000 19                 TZE     s:9496
        19 001256   000040 316007                    CANQ    32,DL
        19 001257   001301 600000 19                 TZE     s:9482
        19 001260   000005 235100                    LDA     5,,PR0
        19 001261   000043 773000                    LRL     35
        19 001262   000003 507007                    DVF     3,DL
        19 001263   000000 116003                    CMPQ    0,DU
        19 001264   001275 601000 19                 TNZ     s:9475+19
        19 001265   200016 471500                    LDP1    SON_ST$,,AUTO
        19 001266   100001 236100                    LDQ     1,,PR1
        19 001267   700000 316007                    CANQ    -32768,DL
        19 001270   001301 600000 19                 TZE     s:9482
        19 001271   100001 236100                    LDQ     1,,PR1
        19 001272   700000 376007                    ANQ     -32768,DL
        19 001273   400000 116007                    CMPQ    -131072,DL
        19 001274   001301 600000 19                 TZE     s:9482
        19 001275   200016 471500                    LDP1    SON_ST$,,AUTO
        19 001276   100002 220100                    LDX0    2,,PR1
        19 001277   000010 100003                    CMPX0   8,DU
        19 001300   001357 601000 19                 TNZ     s:9496

      909     9476    5                       (NOT SON_LTS$ -> INIT_LTS.BCD OR
      910     9477    5                          (MOD (SON_LTS$ -> INIT_LTS.LENGTH, 3) = 0 AND
      911     9478    5                            (SON_ST$ -> VARIABLE.NDSC.CN = 0 OR
      912     9479    5                             SON_ST$ -> VARIABLE.NDSC.CN = 4)) OR
      913     9480    5                        SON_ST$ -> VARIABLE.TYPE = %TYA) THEN
      914     9481    6                     DO;

      915     9482    6                       IF SON_LTS$ -> INIT_LTS.BASE$ -> ETT.ID = %SIZ
PL6.E3A0      #010=Z8EU$MAKE_INIT_LTS File=Z8EU.:Z8A6TSI                         SAT 08/09/97 12:59 Page:221

   9482 19 001301   000001 471500                    LDP1    1,,PR0
        19 001302   100000 220100                    LDX0    0,,PR1
        19 001303   000004 100003                    CMPX0   4,DU
        19 001304   001310 601000 19                 TNZ     s:9484

      916     9483    6                         THEN SON_BASE$ = SON_LTS$ -> INIT_LTS.BASE$ -> ETT.LOP;

   9483 19 001305   100001 236100                    LDQ     1,,PR1
        19 001306   200014 756100                    STQ     SON_BASE$,,AUTO
        19 001307   001312 710000 19                 TRA     s:9485

      917     9484    6                         ELSE SON_BASE$ = SON_LTS$ -> INIT_LTS.BASE$;

   9484 19 001310   000001 236100                    LDQ     1,,PR0
        19 001311   200014 756100                    STQ     SON_BASE$,,AUTO

      918     9485    6                       SON_LTS$ -> INIT_LTS.LENGTH = SON_LTS$ -> INIT_LTS.LENGTH *
              9485                                SON_DIM;

   9485 19 001312   000005 236100                    LDQ     5,,PR0
        19 001313   200013 402100                    MPY     SON_DIM,,AUTO
        19 001314   000005 756100                    STQ     5,,PR0

      919     9486    6                       SON_LTS$ -> INIT_LTS.DIMS = 0; /* Collapsed to scalar */

   9486 19 001315   200017 470500                    LDP0    SON_LTS$,,AUTO
        19 001316   000007 450100                    STZ     7,,PR0

      920     9487    6                       SON_LTS$ -> INIT_LTS.GROUP = TRUE;

   9487 19 001317   200017 470500                    LDP0    SON_LTS$,,AUTO
        19 001320   000100 236007                    LDQ     64,DL
        19 001321   000000 256100                    ORSQ    0,,PR0

      921     9488    6                       MKCN.CON = SON_LTS$ -> INIT_LTS.LENGTH;

PL6.E3A0      #010=Z8EU$MAKE_INIT_LTS File=Z8EU.:Z8A6TSI                         SAT 08/09/97 12:59 Page:222
   9488 19 001322   200017 470500                    LDP0    SON_LTS$,,AUTO
        19 001323   000005 235100                    LDA     5,,PR0
        19 001324   000000 755000 1                  STA     MKCN

      922     9489    6                       CALL Z8AC$MAKE_CONST (ETT$$);

   9489 19 001325   200026 631500                    EPPR1   ETT$$,,AUTO
        19 001326   200030 451500                    STP1    ETT$$+2,,AUTO
        19 001327   200030 630500                    EPPR0   ETT$$+2,,AUTO
        19 001330   000001 631400 20                 EPPR1   1
        19 001331   000000 701000 xent               TSX1    Z8AC$MAKE_CONST
        19 001332   000000 011000                    NOP     0

      923     9490    6                       CALL Z8AF$FORME (%SIZ, SON_BASE$, ETT$$, SON_LTS$ -> INIT_LTS.
              9490                                BASE$);

   9490 19 001333   200017 236100                    LDQ     SON_LTS$,,AUTO
        19 001334   000001 036003                    ADLQ    1,DU
        19 001335   200033 756100                    STQ     ETT$$+5,,AUTO
        19 001336   200026 630500                    EPPR0   ETT$$,,AUTO
        19 001337   200032 450500                    STP0    ETT$$+4,,AUTO
        19 001340   200014 631500                    EPPR1   SON_BASE$,,AUTO
        19 001341   200031 451500                    STP1    ETT$$+3,,AUTO
        19 001342   000036 236000 20                 LDQ     30
        19 001343   200030 756100                    STQ     ETT$$+2,,AUTO
        19 001344   200030 630500                    EPPR0   ETT$$+2,,AUTO
        19 001345   000012 631400 20                 EPPR1   10
        19 001346   000000 701000 xent               TSX1    Z8AF$FORME
        19 001347   000000 011000                    NOP     0

      924     9491    6                       SON_LTS$ -> INIT_LTS.SON$ = ADDR (NIL);

   9491 19 001350   000000 236000 20                 LDQ     0
        19 001351   200017 470500                    LDP0    SON_LTS$,,AUTO
        19 001352   000003 756100                    STQ     3,,PR0

      925     9492    6                       SON_LTS$ -> INIT_LTS.SUBSCR$ = SUBSCR1$;
PL6.E3A0      #010=Z8EU$MAKE_INIT_LTS File=Z8EU.:Z8A6TSI                         SAT 08/09/97 12:59 Page:223

   9492 19 001353   200022 236100                    LDQ     SUBSCR1$,,AUTO
        19 001354   200017 470500                    LDP0    SON_LTS$,,AUTO
        19 001355   000010 756100                    STQ     8,,PR0

      926     9493    6                     END;

   9493 19 001356   001451 710000 19                 TRA     s:9512

      927     9494    5                   ELSE
      928     9495    6                     DO;

      929     9496    6                       SON_LTS$ -> INIT_LTS.INDEX$ = INDICES$ (LAST_IN_USE);

   9496 19 001357   000061 720000 17                 LXL0    LAST_IN_USE
        19 001360   000000 236010 17                 LDQ     INDICES$,X0
        19 001361   000011 756100                    STQ     9,,PR0

      930     9497    6                       SON_LTS$ -> INIT_LTS.SUBSCR$ = SUBSCR2$;

   9497 19 001362   200023 236100                    LDQ     SUBSCR2$,,AUTO
        19 001363   200017 470500                    LDP0    SON_LTS$,,AUTO
        19 001364   000010 756100                    STQ     8,,PR0

      931     9498    6                       SON_LTS$ -> INIT_LTS.SPAN = DIMS$ -> DIMS.D.SPAN

   9498 19 001365   200024 470500                    LDP0    DIMS$,,AUTO
        19 001366   000000 236100                    LDQ     0,,PR0
        19 001367   777777 376007                    ANQ     -1,DL
        19 001370   000005 136007                    SBLQ    5,DL
        19 001371   000003 506007                    DIV     3,DL
        19 001372   000003 402007                    MPY     3,DL
        19 001373   200017 471500                    LDP1    SON_LTS$,,AUTO
        19 001374   000002 235106                    LDA     2,QL,PR0
        19 001375   100006 755100                    STA     6,,PR1

      932     9499    6                           ((DIMS$ -> DIMS.N - %MIN_DIM_SIZE) / %NO_WORDS_PER_DIM);
PL6.E3A0      #010=Z8EU$MAKE_INIT_LTS File=Z8EU.:Z8A6TSI                         SAT 08/09/97 12:59 Page:224
      933     9500    7                       DO CASE (SON_ST$ -> VARIABLE.TYPE);

   9500 19 001376   200016 471500                    LDP1    SON_ST$,,AUTO
        19 001377   100002 221100                    LDX1    2,,PR1
        19 001400   000023 101003                    CMPX1   19,DU
        19 001401   001403 602011 19                 TNC     s:9500+5,X1
        19 001402   001451 710000 19                 TRA     s:9512
        19 001403   001426 710000 19                 TRA     s:9502
        19 001404   001445 710000 19                 TRA     s:9509
        19 001405   001445 710000 19                 TRA     s:9509
        19 001406   001445 710000 19                 TRA     s:9509
        19 001407   001441 710000 19                 TRA     s:9506
        19 001410   001441 710000 19                 TRA     s:9506
        19 001411   001445 710000 19                 TRA     s:9509
        19 001412   001445 710000 19                 TRA     s:9509
        19 001413   001445 710000 19                 TRA     s:9509
        19 001414   001445 710000 19                 TRA     s:9509
        19 001415   001445 710000 19                 TRA     s:9509
        19 001416   001445 710000 19                 TRA     s:9509
        19 001417   001445 710000 19                 TRA     s:9509
        19 001420   001445 710000 19                 TRA     s:9509
        19 001421   001445 710000 19                 TRA     s:9509
        19 001422   001445 710000 19                 TRA     s:9509
        19 001423   001445 710000 19                 TRA     s:9509
        19 001424   001445 710000 19                 TRA     s:9509
        19 001425   001441 710000 19                 TRA     s:9506

      934     9501    7                         CASE (%TYD);

      935     9502    7                           IF SON_ST$ -> VARIABLE.NDSC.TN = %NDSC4 AND

   9502 19 001426   100001 236100                    LDQ     1,,PR1
        19 001427   040000 316007                    CANQ    16384,DL
        19 001430   001451 600000 19                 TZE     s:9512
        19 001431   100003 236100                    LDQ     3,,PR1
        19 001432   000200 316007                    CANQ    128,DL
        19 001433   001451 601000 19                 TNZ     s:9512
PL6.E3A0      #010=Z8EU$MAKE_INIT_LTS File=Z8EU.:Z8A6TSI                         SAT 08/09/97 12:59 Page:225

      936     9503    7                               NOT SON_ST$ -> VARIABLE.B.DIGIT THEN
      937     9504    7                            SON_LTS$ -> INIT_LTS.SPAN = SON_LTS$ -> INIT_LTS.SPAN / 2;

   9504 19 001434   200017 473500                    LDP3    SON_LTS$,,AUTO
        19 001435   300006 236100                    LDQ     6,,PR3
        19 001436   000001 772000                    QRL     1
        19 001437   300006 756100                    STQ     6,,PR3
        19 001440   001451 710000 19                 TRA     s:9512

      938     9505    7                         CASE (%TYP, %TYR, %TYQ);

      939     9506    7                           SON_LTS$ -> INIT_LTS.SPAN = SON_LTS$ -> INIT_LTS.SPAN * 4;

   9506 19 001441   200017 473500                    LDP3    SON_LTS$,,AUTO
        19 001442   300006 235100                    LDA     6,,PR3
        19 001443   000002 735000                    ALS     2
        19 001444   300006 755100                    STA     6,,PR3

      940     9507    7                       END;

      941     9508    6                     END;

      942     9509    5                 END; /* SON_DIM > 1 */

   9509 19 001445   001451 710000 19                 TRA     s:9512

      943     9510    4               ELSE
      944     9511    4                 SON_LTS$ -> INIT_LTS.SUBSCR$ = SUBSCR2$;

   9511 19 001446   200023 236100                    LDQ     SUBSCR2$,,AUTO
        19 001447   200017 470500                    LDP0    SON_LTS$,,AUTO
        19 001450   000010 756100                    STQ     8,,PR0

      945     9512    4               IF SON_LTS$ -> INIT_LTS.BCD THEN

   9512 19 001451   200017 470500                    LDP0    SON_LTS$,,AUTO
PL6.E3A0      #010=Z8EU$MAKE_INIT_LTS File=Z8EU.:Z8A6TSI                         SAT 08/09/97 12:59 Page:226
        19 001452   000000 236100                    LDQ     0,,PR0
        19 001453   000040 316007                    CANQ    32,DL
        19 001454   001540 600000 19                 TZE     s:9527

      946     9513    5                 DO;

      947     9514    5                   SON_LTS$ -> INIT_LTS.LENGTH = SON_LTS$ -> INIT_LTS.LENGTH * 3 / 2;

   9514 19 001455   000005 236100                    LDQ     5,,PR0
        19 001456   000003 402007                    MPY     3,DL
        19 001457   000001 772000                    QRL     1
        19 001460   000005 756100                    STQ     5,,PR0

      948     9515    5                   IF SUBSCR$ ~= ADDR (NIL) AND SON_LTS$ -> INIT_LTS.MFILLABLE THEN

   9515 19 001461   200004 470500                    LDP0    @SUBSCR$,,AUTO
        19 001462   000000 236100                    LDQ     0,,PR0
        19 001463   000000 116000 20                 CMPQ    0
        19 001464   001540 600000 19                 TZE     s:9527
        19 001465   200017 471500                    LDP1    SON_LTS$,,AUTO
        19 001466   100000 236100                    LDQ     0,,PR1
        19 001467   000200 316007                    CANQ    128,DL
        19 001470   001540 600000 19                 TZE     s:9527

      949     9516    6                     DO;

      950     9517    6                       IF SUBSCR2$ -> ETT.ID ~= %DVI2 THEN

   9517 19 001471   200023 473500                    LDP3    SUBSCR2$,,AUTO
        19 001472   300000 220100                    LDX0    0,,PR3
        19 001473   000114 100003                    CMPX0   76,DU
        19 001474   001535 600000 19                 TZE     s:9524

      951     9518    7                         DO;

      952     9519    7                           MKCN.CON = 3;

PL6.E3A0      #010=Z8EU$MAKE_INIT_LTS File=Z8EU.:Z8A6TSI                         SAT 08/09/97 12:59 Page:227
   9519 19 001475   000003 235007                    LDA     3,DL
        19 001476   000000 755000 1                  STA     MKCN

      953     9520    7                           CALL Z8AC$MAKE_CONST (ETT$$);

   9520 19 001477   200026 634500                    EPPR4   ETT$$,,AUTO
        19 001500   200030 454500                    STP4    ETT$$+2,,AUTO
        19 001501   200030 630500                    EPPR0   ETT$$+2,,AUTO
        19 001502   000001 631400 20                 EPPR1   1
        19 001503   000000 701000 xent               TSX1    Z8AC$MAKE_CONST
        19 001504   000000 011000                    NOP     0

      954     9521    7                           CALL Z8AF$FORME (%MPI, SUBSCR1$, ETT$$, SUBSCR2$);

   9521 19 001505   200023 630500                    EPPR0   SUBSCR2$,,AUTO
        19 001506   200033 450500                    STP0    ETT$$+5,,AUTO
        19 001507   200026 631500                    EPPR1   ETT$$,,AUTO
        19 001510   200032 451500                    STP1    ETT$$+4,,AUTO
        19 001511   200022 633500                    EPPR3   SUBSCR1$,,AUTO
        19 001512   200031 453500                    STP3    ETT$$+3,,AUTO
        19 001513   000025 236000 20                 LDQ     21
        19 001514   200030 756100                    STQ     ETT$$+2,,AUTO
        19 001515   200030 630500                    EPPR0   ETT$$+2,,AUTO
        19 001516   000012 631400 20                 EPPR1   10
        19 001517   000000 701000 xent               TSX1    Z8AF$FORME
        19 001520   000000 011000                    NOP     0

      955     9522    7                           CALL Z8AF$FORME (%DVI2, SUBSCR2$, 1, SUBSCR2$);

   9522 19 001521   200023 630500                    EPPR0   SUBSCR2$,,AUTO
        19 001522   200033 450500                    STP0    ETT$$+5,,AUTO
        19 001523   000022 236000 20                 LDQ     18
        19 001524   200032 756100                    STQ     ETT$$+4,,AUTO
        19 001525   200023 631500                    EPPR1   SUBSCR2$,,AUTO
        19 001526   200031 451500                    STP1    ETT$$+3,,AUTO
        19 001527   000027 236000 20                 LDQ     23
        19 001530   200030 756100                    STQ     ETT$$+2,,AUTO
PL6.E3A0      #010=Z8EU$MAKE_INIT_LTS File=Z8EU.:Z8A6TSI                         SAT 08/09/97 12:59 Page:228
        19 001531   200030 630500                    EPPR0   ETT$$+2,,AUTO
        19 001532   000012 631400 20                 EPPR1   10
        19 001533   000000 701000 xent               TSX1    Z8AF$FORME
        19 001534   000000 011000                    NOP     0

      956     9523    7                         END;

      957     9524    6                       SON_LTS$ -> INIT_LTS.SUBSCR$ = SUBSCR2$; /* BCD units */

   9524 19 001535   200023 236100                    LDQ     SUBSCR2$,,AUTO
        19 001536   200017 470500                    LDP0    SON_LTS$,,AUTO
        19 001537   000010 756100                    STQ     8,,PR0

      958     9525    6                     END;

      959     9526    5                 END;

      960     9527    4               IF SON_LTS$ -> INIT_LTS.FILLER

   9527 19 001540   200017 470500                    LDP0    SON_LTS$,,AUTO
        19 001541   000000 236100                    LDQ     0,,PR0
        19 001542   000400 316007                    CANQ    256,DL
        19 001543   001550 600000 19                 TZE     s:9529

      961     9528    4                 THEN INIT_LTS$ -> INIT_LTS.FILLER = TRUE;

   9528 19 001544   200006 471500                    LDP1    @INIT_LTS$,,AUTO
        19 001545   100000 473500                    LDP3    0,,PR1
        19 001546   000400 236007                    LDQ     256,DL
        19 001547   300000 256100                    ORSQ    0,,PR3

      962     9529    4               IF SON_LTS$ -> INIT_LTS.BASE$ ~= ADDR (NIL) THEN

   9529 19 001550   200017 470500                    LDP0    SON_LTS$,,AUTO
        19 001551   000001 236100                    LDQ     1,,PR0
        19 001552   000000 116000 20                 CMPQ    0
        19 001553   002055 600000 19                 TZE     s:9601
PL6.E3A0      #010=Z8EU$MAKE_INIT_LTS File=Z8EU.:Z8A6TSI                         SAT 08/09/97 12:59 Page:229

      963     9530    5                 DO;

      964     9531    5                   IF PREV_SON_LTS$ = ADDR (NIL) THEN

   9531 19 001554   200021 236100                    LDQ     PREV_SON_LTS$,,AUTO
        19 001555   000000 116000 20                 CMPQ    0
        19 001556   001631 601000 19                 TNZ     s:9547

      965     9532    6                     DO;

      966     9533    6                       PREV_SON_ST$ = SON_ST$;

   9533 19 001557   200016 236100                    LDQ     SON_ST$,,AUTO
        19 001560   200020 756100                    STQ     PREV_SON_ST$,,AUTO

      967     9534    6                       PREV_SON_LTS$ = SON_LTS$;

   9534 19 001561   200017 236100                    LDQ     SON_LTS$,,AUTO
        19 001562   200021 756100                    STQ     PREV_SON_LTS$,,AUTO

      968     9535    6                       INIT_LTS$ -> INIT_LTS.SON$ = SON_LTS$;

   9535 19 001563   200006 471500                    LDP1    @INIT_LTS$,,AUTO
        19 001564   100000 473500                    LDP3    0,,PR1
        19 001565   300003 756100                    STQ     3,,PR3

      969     9536    6                      CALL Z8AF$NEW_BASE (IDENT_ST$, ADDR (NIL), INIT_LTS$ -> INIT_LTS
              9536                                .BASE$);

   9536 19 001566   100000 470500                    LDP0    0,,PR1
        19 001567   000000 236000 20                 LDQ     0
        19 001570   200030 756100                    STQ     ETT$$+2,,AUTO
        19 001571   000001 633500                    EPPR3   1,,PR0
        19 001572   200033 453500                    STP3    ETT$$+5,,AUTO
        19 001573   200030 630500                    EPPR0   ETT$$+2,,AUTO
        19 001574   200032 450500                    STP0    ETT$$+4,,AUTO
PL6.E3A0      #010=Z8EU$MAKE_INIT_LTS File=Z8EU.:Z8A6TSI                         SAT 08/09/97 12:59 Page:230
        19 001575   200003 236100                    LDQ     @IDENT_ST$,,AUTO
        19 001576   200031 756100                    STQ     ETT$$+3,,AUTO
        19 001577   200031 630500                    EPPR0   ETT$$+3,,AUTO
        19 001600   000010 631400 20                 EPPR1   8
        19 001601   000000 701000 xent               TSX1    Z8AF$NEW_BASE
        19 001602   000000 011000                    NOP     0

      970     9537    6                       INIT_LTS$ -> INIT_LTS.BCD = SON_LTS$ -> INIT_LTS.BCD;

   9537 19 001603   200006 470500                    LDP0    @INIT_LTS$,,AUTO
        19 001604   000000 471500                    LDP1    0,,PR0
        19 001605   200017 473500                    LDP3    SON_LTS$,,AUTO
        19 001606   300000 236100                    LDQ     0,,PR3
        19 001607   100000 676100                    ERQ     0,,PR1
        19 001610   000040 376007                    ANQ     32,DL
        19 001611   100000 656100                    ERSQ    0,,PR1

      971     9538    6                       IF SON_LTS$ -> INIT_LTS.MFILLABLE AND

   9538 19 001612   200017 471500                    LDP1    SON_LTS$,,AUTO
        19 001613   100000 236100                    LDQ     0,,PR1
        19 001614   000200 316007                    CANQ    128,DL
        19 001615   002055 600000 19                 TZE     s:9601
        19 001616   000000 473500                    LDP3    0,,PR0
        19 001617   300000 236100                    LDQ     0,,PR3
        19 001620   000400 316007                    CANQ    256,DL
        19 001621   002055 601000 19                 TNZ     s:9601

      972     9539    6                           NOT INIT_LTS$ -> INIT_LTS.FILLER THEN
      973     9540    7                         DO;

      974     9541    7                           INIT_LTS$ -> INIT_LTS.MFILLABLE = TRUE;

   9541 19 001622   000200 236007                    LDQ     128,DL
        19 001623   300000 256100                    ORSQ    0,,PR3

      975     9542    7                           INIT_LTS$ -> INIT_LTS.FILL = SON_LTS$ -> INIT_LTS.FILL;
PL6.E3A0      #010=Z8EU$MAKE_INIT_LTS File=Z8EU.:Z8A6TSI                         SAT 08/09/97 12:59 Page:231

   9542 19 001624   000000 471500                    LDP1    0,,PR0
        19 001625   200017 473500                    LDP3    SON_LTS$,,AUTO
        19 001626   300000 236100                    LDQ     0,,PR3
        19 001627   100000 552110                    STBQ    0,'10'O,PR1

      976     9543    7                         END;

      977     9544    6                     END;

   9544 19 001630   002055 710000 19                 TRA     s:9601

      978     9545    5                   ELSE
      979     9546    6                     DO;

      980     9547    6                       IF NOT SON_LTS$ -> INIT_LTS.BCD THEN

   9547 19 001631   000000 236100                    LDQ     0,,PR0
        19 001632   000040 316007                    CANQ    32,DL
        19 001633   001640 601000 19                 TNZ     s:9549

      981     9548    6                         INIT_LTS$ -> INIT_LTS.BCD = FALSE;

   9548 19 001634   200006 471500                    LDP1    @INIT_LTS$,,AUTO
        19 001635   100000 473500                    LDP3    0,,PR1
        19 001636   000006 236000 20                 LDQ     6
        19 001637   300000 356100                    ANSQ    0,,PR3

      982     9549    6                       IF PREV_SON_LTS$ -> INIT_LTS.MFILLABLE

   9549 19 001640   200021 470500                    LDP0    PREV_SON_LTS$,,AUTO
        19 001641   000000 236100                    LDQ     0,,PR0
        19 001642   000200 316007                    CANQ    128,DL
        19 001643   002043 600000 19                 TZE     s:9594
        19 001644   200017 471500                    LDP1    SON_LTS$,,AUTO
        19 001645   100000 236100                    LDQ     0,,PR1
        19 001646   000200 316007                    CANQ    128,DL
PL6.E3A0      #010=Z8EU$MAKE_INIT_LTS File=Z8EU.:Z8A6TSI                         SAT 08/09/97 12:59 Page:232
        19 001647   002043 600000 19                 TZE     s:9594
        19 001650   000000 236100                    LDQ     0,,PR0
        19 001651   100000 676100                    ERQ     0,,PR1
        19 001652   777000 376007                    ANQ     -512,DL
        19 001653   002043 601000 19                 TNZ     s:9594

      983     9550    6                           AND SON_LTS$ -> INIT_LTS.MFILLABLE
      984     9551    6                           AND PREV_SON_LTS$ -> INIT_LTS.FILL = SON_LTS$ -> INIT_LTS.
              9551                                    FILL THEN
      985     9552    7                         DO;

      986     9553    7                           IF (PREV_SON_LTS$ -> INIT_LTS.BCD AND

   9553 19 001654   000000 236100                    LDQ     0,,PR0
        19 001655   000040 316007                    CANQ    32,DL
        19 001656   001710 600000 19                 TZE     s:9553+28
        19 001657   100000 236100                    LDQ     0,,PR1
        19 001660   000040 316007                    CANQ    32,DL
        19 001661   001710 600000 19                 TZE     s:9553+28
        19 001662   200020 473500                    LDP3    PREV_SON_ST$,,AUTO
        19 001663   300001 236100                    LDQ     1,,PR3
        19 001664   000017 772000                    QRL     15
        19 001665   000007 376007                    ANQ     7,DL
        19 001666   200030 756100                    STQ     ETT$$+2,,AUTO
        19 001667   300001 236100                    LDQ     1,,PR3
        19 001670   000022 772000                    QRL     18
        19 001671   000006 402007                    MPY     6,DL
        19 001672   200030 036100                    ADLQ    ETT$$+2,,AUTO
        19 001673   000005 036100                    ADLQ    5,,PR0
        19 001674   200016 474500                    LDP4    SON_ST$,,AUTO
        19 001675   200031 756100                    STQ     ETT$$+3,,AUTO
        19 001676   400001 236100                    LDQ     1,,PR4
        19 001677   000017 772000                    QRL     15
        19 001700   000007 376007                    ANQ     7,DL
        19 001701   200032 756100                    STQ     ETT$$+4,,AUTO
        19 001702   400001 236100                    LDQ     1,,PR4
        19 001703   000022 772000                    QRL     18
PL6.E3A0      #010=Z8EU$MAKE_INIT_LTS File=Z8EU.:Z8A6TSI                         SAT 08/09/97 12:59 Page:233
        19 001704   000006 402007                    MPY     6,DL
        19 001705   200032 036100                    ADLQ    ETT$$+4,,AUTO
        19 001706   200031 116100                    CMPQ    ETT$$+3,,AUTO
        19 001707   001744 600000 19                 TZE     s:9564
        19 001710   000000 236100                    LDQ     0,,PR0
        19 001711   000040 316007                    CANQ    32,DL
        19 001712   002030 601000 19                 TNZ     s:9586
        19 001713   100000 236100                    LDQ     0,,PR1
        19 001714   000040 316007                    CANQ    32,DL
        19 001715   002030 601000 19                 TNZ     s:9586
        19 001716   200020 473500                    LDP3    PREV_SON_ST$,,AUTO
        19 001717   300001 236100                    LDQ     1,,PR3
        19 001720   000020 772000                    QRL     16
        19 001721   000003 376007                    ANQ     3,DL
        19 001722   200033 756100                    STQ     ETT$$+5,,AUTO
        19 001723   300001 236100                    LDQ     1,,PR3
        19 001724   000020 772000                    QRL     16
        19 001725   000037 376000 20                 ANQ     31
        19 001726   200033 036100                    ADLQ    ETT$$+5,,AUTO
        19 001727   000005 036100                    ADLQ    5,,PR0
        19 001730   200016 474500                    LDP4    SON_ST$,,AUTO
        19 001731   200034 756100                    STQ     ETT$$+6,,AUTO
        19 001732   400001 236100                    LDQ     1,,PR4
        19 001733   000020 772000                    QRL     16
        19 001734   000003 376007                    ANQ     3,DL
        19 001735   200035 756100                    STQ     ETT$$+7,,AUTO
        19 001736   400001 236100                    LDQ     1,,PR4
        19 001737   000020 772000                    QRL     16
        19 001740   000037 376000 20                 ANQ     31
        19 001741   200035 036100                    ADLQ    ETT$$+7,,AUTO
        19 001742   200034 116100                    CMPQ    ETT$$+6,,AUTO
        19 001743   002030 601000 19                 TNZ     s:9586

      987     9554    7                               SON_LTS$ -> INIT_LTS.BCD AND
      988     9555    7                               PREV_SON_ST$ -> VARIABLE.SA * 6 + PREV_SON_ST$ ->
              9555                                        VARIABLE.NDSC.CN
      989     9556    7                                 + PREV_SON_LTS$ -> INIT_LTS.LENGTH =
PL6.E3A0      #010=Z8EU$MAKE_INIT_LTS File=Z8EU.:Z8A6TSI                         SAT 08/09/97 12:59 Page:234
      990     9557    7                                SON_ST$ -> VARIABLE.SA * 6 + SON_ST$ -> VARIABLE.NDSC.
              9557                                          CN) OR
      991     9558    7                              (NOT PREV_SON_LTS$ -> INIT_LTS.BCD AND
      992     9559    7                               NOT SON_LTS$ -> INIT_LTS.BCD AND
      993     9560    7                               PREV_SON_ST$ -> VARIABLE.SA * 4 + PREV_SON_ST$ ->
              9560                                        VARIABLE.ADSC.CN
      994     9561    7                                 + PREV_SON_LTS$ -> INIT_LTS.LENGTH =
      995     9562    7                                SON_ST$ -> VARIABLE.SA * 4 + SON_ST$ -> VARIABLE.ADSC.
              9562                                          CN) THEN
      996     9563    8                             DO;

      997     9564    8                               IF PREV_SON_ST$ -> VARIABLE.TYPE = %TYD AND

   9564 19 001744   300002 220100                    LDX0    2,,PR3
        19 001745   001765 601000 19                 TNZ     s:9574
        19 001746   300001 236100                    LDQ     1,,PR3
        19 001747   040000 316007                    CANQ    16384,DL
        19 001750   001765 600000 19                 TZE     s:9574
        19 001751   000000 236100                    LDQ     0,,PR0
        19 001752   000100 316007                    CANQ    64,DL
        19 001753   001765 601000 19                 TNZ     s:9574

      998     9565    8                                   PREV_SON_ST$ -> VARIABLE.NDSC.TN = %NDSC4 AND
      999     9566    8                                   NOT PREV_SON_LTS$ -> INIT_LTS.GROUP THEN
     1000     9567    9                                 DO;

     1001     9568    9                                   PREV_SON_LTS$ -> INIT_LTS.OFF = PREV_SON_LTS$ ->
              9568                                            INIT_LTS.OFF / 2;

   9568 19 001754   000002 236100                    LDQ     2,,PR0
        19 001755   000002 506007                    DIV     2,DL
        19 001756   000002 756100                    STQ     2,,PR0

     1002     9569    9                                   IF PREV_SON_LTS$ -> INIT_LTS.SUBSCR$ ~= ADDR (NIL)
              9569                                            THEN

   9569 19 001757   000010 236100                    LDQ     8,,PR0
PL6.E3A0      #010=Z8EU$MAKE_INIT_LTS File=Z8EU.:Z8A6TSI                         SAT 08/09/97 12:59 Page:235
        19 001760   000000 116000 20                 CMPQ    0
        19 001761   001765 600000 19                 TZE     s:9574

     1003     9570    9                                     PREV_SON_LTS$ -> INIT_LTS.SUBSCR$ =

   9570 19 001762   000010 471500                    LDP1    8,,PR0
        19 001763   100001 236100                    LDQ     1,,PR1
        19 001764   000010 756100                    STQ     8,,PR0

     1004     9571    9                                         PREV_SON_LTS$ -> INIT_LTS.SUBSCR$ -> ETT.LOP;
     1005     9572                                        /* Delete MPI2, ropcon = 1 */
     1006     9573    9                                 END; /* Set units from digits back to bytes */

     1007     9574    8                               PREV_SON_LTS$ -> INIT_LTS.LENGTH = PREV_SON_LTS$ ->
              9574                                        INIT_LTS.LENGTH

   9574 19 001765   200017 471500                    LDP1    SON_LTS$,,AUTO
        19 001766   000005 236100                    LDQ     5,,PR0
        19 001767   100005 036100                    ADLQ    5,,PR1
        19 001770   000005 756100                    STQ     5,,PR0

     1008     9575    8                                 + SON_LTS$ -> INIT_LTS.LENGTH;
     1009     9576    8                               MKCN.CON = PREV_SON_LTS$ -> INIT_LTS.LENGTH;

   9576 19 001771   000000 756000 1                  STQ     MKCN

     1010     9577    8                               PREV_SON_LTS$ -> INIT_LTS.GROUP = TRUE;

   9577 19 001772   000100 236007                    LDQ     64,DL
        19 001773   000000 256100                    ORSQ    0,,PR0

     1011     9578    8                               ETT$$ = PREV_SON_LTS$ -> INIT_LTS.BASE$;

   9578 19 001774   000001 236100                    LDQ     1,,PR0
        19 001775   200026 756100                    STQ     ETT$$,,AUTO

     1012     9579    8                               IF ETT$$ -> ETT.ID = %SIZ
PL6.E3A0      #010=Z8EU$MAKE_INIT_LTS File=Z8EU.:Z8A6TSI                         SAT 08/09/97 12:59 Page:236

   9579 19 001776   200026 471500                    LDP1    ETT$$,,AUTO
        19 001777   100000 220100                    LDX0    0,,PR1
        19 002000   000004 100003                    CMPX0   4,DU
        19 002001   002004 601000 19                 TNZ     s:9581

     1013     9580    8                                 THEN ETT$$ = ETT$$ -> ETT.LOP;

   9580 19 002002   100001 236100                    LDQ     1,,PR1
        19 002003   200026 756100                    STQ     ETT$$,,AUTO

     1014     9581    8                               CALL Z8AC$MAKE_CONST (CONST$);

   9581 19 002004   200025 631500                    EPPR1   CONST$,,AUTO
        19 002005   200030 451500                    STP1    ETT$$+2,,AUTO
        19 002006   200030 630500                    EPPR0   ETT$$+2,,AUTO
        19 002007   000001 631400 20                 EPPR1   1
        19 002010   000000 701000 xent               TSX1    Z8AC$MAKE_CONST
        19 002011   000000 011000                    NOP     0

     1015     9582    8                               CALL Z8AF$FORME (%SIZ, ETT$$, CONST$, PREV_SON_LTS$ ->
              9582                                        INIT_LTS.BASE$);

   9582 19 002012   200021 236100                    LDQ     PREV_SON_LTS$,,AUTO
        19 002013   000001 036003                    ADLQ    1,DU
        19 002014   200033 756100                    STQ     ETT$$+5,,AUTO
        19 002015   200025 630500                    EPPR0   CONST$,,AUTO
        19 002016   200032 450500                    STP0    ETT$$+4,,AUTO
        19 002017   200026 631500                    EPPR1   ETT$$,,AUTO
        19 002020   200031 451500                    STP1    ETT$$+3,,AUTO
        19 002021   000036 236000 20                 LDQ     30
        19 002022   200030 756100                    STQ     ETT$$+2,,AUTO
        19 002023   200030 630500                    EPPR0   ETT$$+2,,AUTO
        19 002024   000012 631400 20                 EPPR1   10
        19 002025   000000 701000 xent               TSX1    Z8AF$FORME
        19 002026   000000 011000                    NOP     0

PL6.E3A0      #010=Z8EU$MAKE_INIT_LTS File=Z8EU.:Z8A6TSI                         SAT 08/09/97 12:59 Page:237
     1016     9583    8                             END;

   9583 19 002027   002055 710000 19                 TRA     s:9601

     1017     9584    7                           ELSE
     1018     9585    8                             DO; /* Cannot be combined */

     1019     9586    8                               PREV_SON_LTS$ -> INIT_LTS.NEXT$ = SON_LTS$;

   9586 19 002030   200017 236100                    LDQ     SON_LTS$,,AUTO
        19 002031   000004 756100                    STQ     4,,PR0

     1020     9587    8                               PREV_SON_LTS$ = SON_LTS$;

   9587 19 002032   200017 236100                    LDQ     SON_LTS$,,AUTO
        19 002033   200021 756100                    STQ     PREV_SON_LTS$,,AUTO

     1021     9588    8                               PREV_SON_ST$ = SON_ST$;

   9588 19 002034   200016 236100                    LDQ     SON_ST$,,AUTO
        19 002035   200020 756100                    STQ     PREV_SON_ST$,,AUTO

     1022     9589    8                               INIT_LTS$ -> INIT_LTS.MFILLABLE = FALSE;

   9589 19 002036   200006 470500                    LDP0    @INIT_LTS$,,AUTO
        19 002037   000000 471500                    LDP1    0,,PR0
        19 002040   000004 236000 20                 LDQ     4
        19 002041   100000 356100                    ANSQ    0,,PR1

     1023     9590    8                             END;

     1024     9591    7                         END; /* Both MFILLABLE, same fill */

   9591 19 002042   002055 710000 19                 TRA     s:9601

     1025     9592    6                       ELSE
     1026     9593    7                         DO;
PL6.E3A0      #010=Z8EU$MAKE_INIT_LTS File=Z8EU.:Z8A6TSI                         SAT 08/09/97 12:59 Page:238

     1027     9594    7                           PREV_SON_LTS$ -> INIT_LTS.NEXT$ = SON_LTS$;

   9594 19 002043   200017 236100                    LDQ     SON_LTS$,,AUTO
        19 002044   000004 756100                    STQ     4,,PR0

     1028     9595    7                           PREV_SON_LTS$ = SON_LTS$;

   9595 19 002045   200017 236100                    LDQ     SON_LTS$,,AUTO
        19 002046   200021 756100                    STQ     PREV_SON_LTS$,,AUTO

     1029     9596    7                           PREV_SON_ST$ = SON_ST$;

   9596 19 002047   200016 236100                    LDQ     SON_ST$,,AUTO
        19 002050   200020 756100                    STQ     PREV_SON_ST$,,AUTO

     1030     9597    7                           INIT_LTS$ -> INIT_LTS.MFILLABLE = FALSE;

   9597 19 002051   200006 470500                    LDP0    @INIT_LTS$,,AUTO
        19 002052   000000 471500                    LDP1    0,,PR0
        19 002053   000004 236000 20                 LDQ     4
        19 002054   100000 356100                    ANSQ    0,,PR1

     1031     9598    7                         END;

     1032     9599    6                     END; /* PREV_SON_LTS$ ~= ADDR (NIL) */

     1033     9600    5                 END; /* SON_LTS$ -> INIT_LTS.BASE$ ~= ADDR (NIL) */

     1034     9601    4               IF SON_DIM > 1 THEN

   9601 19 002055   200013 235100                    LDA     SON_DIM,,AUTO
        19 002056   000002 115007                    CMPA    2,DL
        19 002057   002062 602000 19                 TNC     s:9604

     1035     9602    4                 LAST_IN_USE = LAST_IN_USE - 1;

PL6.E3A0      #010=Z8EU$MAKE_INIT_LTS File=Z8EU.:Z8A6TSI                         SAT 08/09/97 12:59 Page:239
   9602 19 002060   000001 336007                    LCQ     1,DL
        19 002061   000061 056000 17                 ASQ     LAST_IN_USE

     1036     9603    4             END; /* Initializable item */

     1037     9604    3           SON_QLT$ = SON_QLT$ -> QLT.BROTHER;

   9604 19 002062   200015 470500                    LDP0    SON_QLT$,,AUTO
        19 002063   000002 236100                    LDQ     2,,PR0
        19 002064   200015 756100                    STQ     SON_QLT$,,AUTO

     1038     9605    3         END; /* UNTIL SON_QLT$ = ADDR (NIL) */

   9605 19 002065   000000 116000 20                 CMPQ    0
        19 002066   000647 601000 19                 TNZ     s:9368

     1039     9606    2         IF INIT_LTS$ -> INIT_LTS.BCD AND

   9606 19 002067   200006 470500                    LDP0    @INIT_LTS$,,AUTO
        19 002070   000000 471500                    LDP1    0,,PR0
        19 002071   100000 236100                    LDQ     0,,PR1
        19 002072   000040 316007                    CANQ    32,DL
        19 002073   002111 600000 19                 TZE     s:9610
        19 002074   100005 236100                    LDQ     5,,PR1
        19 002075   000001 376007                    ANQ     1,DL
        19 002076   002107 601000 19                 TNZ     s:9609
        19 002077   200003 473500                    LDP3    @IDENT_ST$,,AUTO
        19 002100   300000 474500                    LDP4    0,,PR3
        19 002101   400001 236100                    LDQ     1,,PR4
        19 002102   000020 772000                    QRL     16
        19 002103   000003 376007                    ANQ     3,DL
        19 002104   000001 376007                    ANQ     1,DL
        19 002105   000001 116007                    CMPQ    1,DL
        19 002106   002111 601000 19                 TNZ     s:9610

     1040     9607    2             (MOD (INIT_LTS$ -> INIT_LTS.LENGTH, 2) ~= 0 OR
     1041     9608    2              MOD (IDENT_ST$ -> VARIABLE.ADSC.CN, 2) = 1) THEN
PL6.E3A0      #010=Z8EU$MAKE_INIT_LTS File=Z8EU.:Z8A6TSI                         SAT 08/09/97 12:59 Page:240
     1042     9609    2           INIT_LTS$ -> INIT_LTS.MFILLABLE = FALSE;

   9609 19 002107   000004 236000 20                 LDQ     4
        19 002110   100000 356100                    ANSQ    0,,PR1

     1043     9610    2         IF INIT_LTS$ -> INIT_LTS.MFILLABLE AND NOT INIT_LTS$ -> INIT_LTS.FILLER THEN

   9610 19 002111   000000 471500                    LDP1    0,,PR0
        19 002112   100000 236100                    LDQ     0,,PR1
        19 002113   000200 316007                    CANQ    128,DL
        19 002114   002127 600000 19                 TZE     s:9617
        19 002115   000400 316007                    CANQ    256,DL
        19 002116   002127 601000 19                 TNZ     s:9617

     1044     9611    3           DO;

     1045     9612    3             IF INIT_LTS$ -> INIT_LTS.BCD THEN

   9612 19 002117   000040 316007                    CANQ    32,DL
        19 002120   002124 600000 19                 TZE     s:9614

     1046     9613    3               INIT_LTS$ -> INIT_LTS.SUBSCR$ = PREV_SON_LTS$ -> INIT_LTS.SUBSCR$;

   9613 19 002121   200021 473500                    LDP3    PREV_SON_LTS$,,AUTO
        19 002122   300010 236100                    LDQ     8,,PR3
        19 002123   100010 756100                    STQ     8,,PR1

     1047     9614    3             INIT_LTS$ -> INIT_LTS.SON$ = ADDR (NIL);

   9614 19 002124   000000 471500                    LDP1    0,,PR0
        19 002125   000000 236000 20                 LDQ     0
        19 002126   100003 756100                    STQ     3,,PR1

     1048     9615    3           END;

     1049     9616    2       END; /* GROUP ITEM */

PL6.E3A0      #010=Z8EU$MAKE_INIT_LTS File=Z8EU.:Z8A6TSI                         SAT 08/09/97 12:59 Page:241
     1050     9617    1   END Z8EU$MAKE_INIT_LTS;

   9617 19 002127   000000 702200 xent               TSX2  ! X66_ARET

PL6.E3A0      #010=Z8EU$MAKE_INIT_LTS File=Z8EU.:Z8A6TSI                         SAT 08/09/97 12:59 Page:242
--  Include file information  --

   Z8A_LTS.:Z8A6TOU  cannot be made into a system file and is referenced.
   Z8A_TYPES.:Z8A6TOU  is referenced.
   Z8A_ST.:Z8A6TOU  cannot be made into a system file and is referenced.
   Z8A_QLT.:Z8A6TOU  cannot be made into a system file and is referenced.
   Z8A_ETT.:Z8A6TOU  cannot be made into a system file and is referenced.
   Z8A_DNT.:Z8A6TOU  cannot be made into a system file and is referenced.
   Z8A_MKCN.:Z8A6TOU  cannot be made into a system file and is referenced.
   X8A_COM_MACS.:X8A6TOU  is referenced.
   Z8A_NAMES.:Z8A6TOU  is referenced.
   Z8A_SUPP_MAC.:Z8A6TOU  is referenced.
   Z8A_DEFC.:Z8A6TOU  cannot be made into a system file and is referenced.
      No diagnostics issued in procedure Z8EU$MAKE_INIT_LTS.
PL6.E3A0      #010=Z8EU$MAKE_INIT_LTS File=Z8EU.:Z8A6TSI                         SAT 08/09/97 12:59 Page:243

 **** Variables and constants ****

  ****  Section 000 LblCom ITERATION

  ****  Scalars and arrays  ****
OctLoc.c.b A Datatyp(siz) R M Lvl/name                 OctLoc.c.b A Datatyp(siz) R M Lvl/name

     0-0-0/w SBIN              1 ITERATION

  ****  Section 001 LblCom MKCN

  ****  Scalars and arrays  ****
OctLoc.c.b A Datatyp(siz) R M Lvl/name                 OctLoc.c.b A Datatyp(siz) R M Lvl/name

     0-0-0/w STRC(72)    r     1 MKCN

  ****  Section 002 LblCom DNT$

  ****  Scalars and arrays  ****
OctLoc.c.b A Datatyp(siz) R M Lvl/name                 OctLoc.c.b A Datatyp(siz) R M Lvl/name

     0-0-0/w PTR         r     1 DNT$

  ****  Section 003 LblCom DNT_

  ****  Scalars and arrays  ****
OctLoc.c.b A Datatyp(siz) R M Lvl/name                 OctLoc.c.b A Datatyp(siz) R M Lvl/name

     0-0-0/w STRC(180)         1 DNT_

  ****  Section 004 LblCom DNT_BUCKET_NUMBER

  ****  Scalars and arrays  ****
OctLoc.c.b A Datatyp(siz) R M Lvl/name                 OctLoc.c.b A Datatyp(siz) R M Lvl/name

     0-0-0/w UBIN              1 DNT_BUCKET_NUMBER

PL6.E3A0      #010=Z8EU$MAKE_INIT_LTS File=Z8EU.:Z8A6TSI                         SAT 08/09/97 12:59 Page:244
  ****  Section 005 LblCom DNT_OF_1$

  ****  Scalars and arrays  ****
OctLoc.c.b A Datatyp(siz) R M Lvl/name                 OctLoc.c.b A Datatyp(siz) R M Lvl/name

     0-0-0/w PTR               1 DNT_OF_1$

  ****  Section 006 LblCom ETT$

  ****  Scalars and arrays  ****
OctLoc.c.b A Datatyp(siz) R M Lvl/name                 OctLoc.c.b A Datatyp(siz) R M Lvl/name

     0-0-0/w PTR         r     1 ETT$

  ****  Section 007 LblCom HEAD_ETT$

  ****  Scalars and arrays  ****
OctLoc.c.b A Datatyp(siz) R M Lvl/name                 OctLoc.c.b A Datatyp(siz) R M Lvl/name

     0-0-0/w PTR               1 HEAD_ETT$

  ****  Section 008 LblCom ETT_BUCKETS

  ****  Scalars and arrays  ****
OctLoc.c.b A Datatyp(siz) R M Lvl/name                 OctLoc.c.b A Datatyp(siz) R M Lvl/name

     0-0-0/w PTR               1 ETT_BUCKETS(0:511)

  ****  Section 009 LblCom ETT_

  ****  Scalars and arrays  ****
OctLoc.c.b A Datatyp(siz) R M Lvl/name                 OctLoc.c.b A Datatyp(siz) R M Lvl/name

     0-0-0/w STRC(180)         1 ETT_

  ****  Section 010 LblCom QLT$

PL6.E3A0      #010=Z8EU$MAKE_INIT_LTS File=Z8EU.:Z8A6TSI                         SAT 08/09/97 12:59 Page:245
  ****  Scalars and arrays  ****
OctLoc.c.b A Datatyp(siz) R M Lvl/name                 OctLoc.c.b A Datatyp(siz) R M Lvl/name

     0-0-0/w PTR         r     1 QLT$

  ****  Section 011 LblCom PREV_01_QLT$

  ****  Scalars and arrays  ****
OctLoc.c.b A Datatyp(siz) R M Lvl/name                 OctLoc.c.b A Datatyp(siz) R M Lvl/name

     0-0-0/w PTR               1 PREV_01_QLT$

  ****  Section 012 LblCom QLT_

  ****  Scalars and arrays  ****
OctLoc.c.b A Datatyp(siz) R M Lvl/name                 OctLoc.c.b A Datatyp(siz) R M Lvl/name

     0-0-0/w STRC(180)         1 QLT_

  ****  Section 013 LblCom ST$

  ****  Scalars and arrays  ****
OctLoc.c.b A Datatyp(siz) R M Lvl/name                 OctLoc.c.b A Datatyp(siz) R M Lvl/name

     0-0-0/w PTR         r     1 ST$

  ****  Section 014 LblCom ST_

  ****  Scalars and arrays  ****
OctLoc.c.b A Datatyp(siz) R M Lvl/name                 OctLoc.c.b A Datatyp(siz) R M Lvl/name

     0-0-0/w STRC(180)         1 ST_

  ****  Section 015 LblCom LTS$

  ****  Scalars and arrays  ****
OctLoc.c.b A Datatyp(siz) R M Lvl/name                 OctLoc.c.b A Datatyp(siz) R M Lvl/name
PL6.E3A0      #010=Z8EU$MAKE_INIT_LTS File=Z8EU.:Z8A6TSI                         SAT 08/09/97 12:59 Page:246

     0-0-0/w PTR               1 LONG_ITEM$                 0-0-0/w PTR         r     1 LTS$

  ****  Section 016 LblCom LTS_

  ****  Scalars and arrays  ****
OctLoc.c.b A Datatyp(siz) R M Lvl/name                 OctLoc.c.b A Datatyp(siz) R M Lvl/name

     0-0-0/w STRC(180)   r     1 LTS_

  ****  Section 017  Data  Z8EU$MAKE_INIT_LTS

  ****  Scalars and arrays  ****
OctLoc.c.b A Datatyp(siz) R M Lvl/name                 OctLoc.c.b A Datatyp(siz) R M Lvl/name

    62-0-0/h STRC        r     1 DNA_BCD_ROPCON            62-0-0/h STRC        r     1 DNA_ROPCON
     0-0-0/w PTR         r     1 INDICES$(0:47)
    60-0-0/w SBIN        r     1 LAST_CREATED              61-0-0/w SBIN        r     1 LAST_IN_USE

  ****  Auto variables  ****

  ****  Scalars and arrays  ****
OctLoc.c.b A Datatyp(siz) R M Lvl/name                 OctLoc.c.b A Datatyp(siz) R M Lvl/name

     3-0-0/w PTR         r     1 @IDENT_ST$                 6-0-0/w PTR         r     1 @INIT_LTS$
     5-0-0/w PTR         r     1 @OFF                       4-0-0/w PTR         r     1 @SUBSCR$
    25-0-0/w PTR         r     1 CONST$                    24-0-0/w PTR         r     1 DIMS$
    26-0-0/w PTR         r     1 ETT$$                     10-0-0/w PTR               1 IDENT_BASE$
    11-0-0/w UBIN        r     1 IDENT_DIM                  7-0-0/w PTR         r     1 IDENT_QLT$
    *0-0-0/w PTR         r     1 IDENT_ST$                 *0-0-0/w PTR         r     1 INIT_LTS$
    *0-0-0/w SBIN        r     1 OFF                       21-0-0/w PTR         r     1 PREV_SON_LTS$
    20-0-0/w PTR         r     1 PREV_SON_ST$              14-0-0/w PTR         r     1 SON_BASE$
    13-0-0/w UBIN        r     1 SON_DIM                   17-0-0/w PTR         r     1 SON_LTS$
    12-0-0/w SBIN        r     1 SON_OFF                   15-0-0/w PTR         r     1 SON_QLT$
    16-0-0/w PTR         r     1 SON_ST$                   *0-0-0/w PTR         r     1 SUBSCR$
    22-0-0/w PTR         r     1 SUBSCR1$                  23-0-0/w PTR         r     1 SUBSCR2$

PL6.E3A0      #010=Z8EU$MAKE_INIT_LTS File=Z8EU.:Z8A6TSI                         SAT 08/09/97 12:59 Page:247
  ****  SYMREF variables  ****

  ****  Scalars and arrays  ****
OctLoc.c.b A Datatyp(siz) R M Lvl/name                 OctLoc.c.b A Datatyp(siz) R M Lvl/name

     0-0-0/w UBIN              1 LTS_STEP(0:37)

  ****  BASED and DCB variables  ****

  ****  Scalars and arrays  ****
OctLoc.c.b A Datatyp(siz) R M Lvl/name                 OctLoc.c.b A Datatyp(siz) R M Lvl/name

     0-0-0/w STRC(396)         1 ALPHABET                   0-0-0/w STRC(144)         1 ALTER_LTS
     0-0-0/w STRC(3672)        1 ALT_KEY                    0-0-0/w STRC(36864)       1 ARGLIST
     0-0-0/w STRC(396)         1 ARRAY                      0-0-0/w STRC(180)         1 ARRAY_PRESET_LTS
     0-0-0/w STRC(288)         1 BASE_LTS                   0-0-0/w STRC(396)         1 BLOCK
     0-0-0/w STRC(144)         1 BT                         0-0-0/w STRC(396)         1 CD
     0-0-0/w STRC(288)         1 CD_LTS                     0-0-0/w CHAR(4096)        1 CHARS
     0-0-0/w STRC(396)         1 CLASS                      0-0-0/w STRC(396)         1 CONDITION
     0-0-0/w STRC(396)         1 CONST                      0-0-0/w STRC(72)          1 CONT
     0-0-0/w STRC(540)         1 CONTROL_NAME_LTS           0-0-0/w STRC(1872)        1 COPY_FILE
     0-0-0/w STRC(396)         1 DB                         0-0-0/w STRC(396)         1 DCB_
     0-0-0/w STRC(108)         1 DEPENDING_SIZE             0-0-0/w STRC(5472)  r     1 DIMS
     0-0-0/w STRC(396)         1 DML_ITEM                   0-0-0/w STRC(216)         1 DML_REC
     0-0-0/w ASTR(180)   r     1 DNT                        0-0-0/w STRC(180)   r     1 ETT
     0-0-0/w STRC(73836)       1 EVALUATE                   0-0-0/w STRC(396)         1 FD
     0-0-0/w STRC(1692)        1 FILE_LTS                   0-0-0/w STRC(108)         1 INDEXES
     0-0-0/w STRC(360)   r     1 INIT_LTS                   0-0-0/w STRC(396)         1 INTDEF
     0-0-0/w STRC(180)         1 IO_RESTORE_CHAIN           0-0-0/w STRC(144)         1 KEY
     0-0-0/w STRC(396)         1 LABEL                      0-0-0/w STRC(36864)       1 LCNST
     0-0-0/w STRC(72)    r     1 LONG                       0-0-0/w STRC        r     1 LTS
     0-0-0/w STRC(360)   r     1 LTSS                       0-0-0/w STRC(36936)       1 LTS_PTR_ARRAY
     0-0-0/w STRC(396)         1 MNEMONIC                   0-0-0/w STRC(144)         1 NEL
     0-0-0/w STRC(216)         1 OPEN_LTS                   0-0-0/w STRC(36864)       1 PAGE
     0-0-0/w STRC(396)         1 PARA                       0-0-0/w STRC(144)         1 PRIME
     0-0-0/w STRC(396)         1 PROC_                      0-0-0/w STRC(396)         1 PROC_DEF
     0-0-0/w STRC(900)         1 PROC_SUPP                  0-0-0/w STRC(216)   r     1 QLT
PL6.E3A0      #010=Z8EU$MAKE_INIT_LTS File=Z8EU.:Z8A6TSI                         SAT 08/09/97 12:59 Page:248
     0-0-0/w STRC(396)         1 RD                         0-0-0/w STRC(216)         1 REF
     0-0-0/w STRC(108)         1 RENAMES                    0-0-0/w STRC(720)         1 REPORT_01_LTS
     0-0-0/w STRC(432)         1 REPORT_ELEM_LTS            0-0-0/w STRC(252)         1 REPORT_GRP_LTS
     0-0-0/w STRC(1332)        1 REPORT_LTS                 0-0-0/w STRC(144)         1 RVA_LTS
     0-0-0/w STRC(396)   r     1 SCALAR                     0-0-0/w STRC(396)         1 SD
     0-0-0/w STRC(396)         1 SECTION                    0-0-0/w STRC(396)         1 SEGMENT
     0-0-0/w STRC(360)         1 SEGMENT_LTS                0-0-0/w STRC(396)   r     1 ST
     0-0-0/w STRC(252)         1 SUM_LTS                    0-0-0/w STRC(396)         1 SWITCH
     0-0-0/w STRC(396)         1 SYMBOLIC_CHAR              0-0-0/w STRC(396)         1 SYMDEF_
     0-0-0/w STRC(396)         1 SYMREF_                    0-0-0/w STRC(396)         1 TEMP
     0-0-0/d STRC(612)         1 USE                        0-0-0/w STRC(252)         1 USE_SUPP
     0-0-0/w STRC(396)   r     1 VARIABLE


   Procedure Z8EU$MAKE_INIT_LTS requires 1112 words for executable code.
   Procedure Z8EU$MAKE_INIT_LTS requires 30 words of local(AUTO) storage.

    No errors detected in file Z8EU.:Z8A6TSI    .
