PL6.E3A0      #001=Z8EV$CONVERT_ROUND_ON_SIZE File=Z8EV.:Z8A6TSI                 SAT 08/09/97 12:49 Page:1
        1        1        /*T***********************************************************/
        2        2        /*T*                                                         */
        3        3        /*T* Copyright (c) Bull HN Information Systems Inc., 1997    */
        4        4        /*T*                                                         */
        5        5        /*T***********************************************************/
        6        6        Z8EV$CONVERT_ROUND_ON_SIZE: PROC (TYPE, FROM$$, RETURN$, ON_SIZE_FLAG, ROUND_FLAG,
                 6            DEST_DESC);
        7        7
        8        8             %EQU PHASE = 1;
        9        9             %EQU TYK_TO_TYD_LENGTH = 11;
       10       10             %EQU TYJ_TO_TYD_LENGTH = 6;
       11       11             %EQU TYX_TO_TYI_LENGTH = 4;
       12       12             %EQU TYY_TO_TYK_LENGTH = 4;
       13       13             %EQU TYY_TO_TYJ_LENGTH = 2;
       14       14
       15       15             %INCLUDE Z8A_DEFC;
       16       83             %INCLUDE Z8A_SUPP_MAC;
       17     2483             %INCLUDE Z8A_ETT;
       18     2784             %INCLUDE Z8A_ST;
       19     6443             %INCLUDE Z8A_DNT;
       20     6664             %INCLUDE Z8A_LIBRARY;
       21     6878             %INCLUDE Z8A_TYPES;
       22     7052             %INCLUDE Z8A_SRCH;
       23     7101             %INCLUDE Z8A_DESC;
       24     7147             %INCLUDE Z8A_COMCOM;
       25     7797             %INCLUDE Z8E_HEAP;
       26     7853             %INCLUDE Z8E_WINDOW;
       27     9923             %INCLUDE Z8E_MACROS;
       28    10598             %INCLUDE Z8E_STACKS;
       29    12864             %INCLUDE Z8E_TABLES;
       30    13417             %INCLUDE Z8E_O1COM;
       31    14178             %INCLUDE Z8A_MKCN;
       32    14195             %INCLUDE Z8A_ERR_NUMS;
       33    14959
       34    14960    1        DCL   TYPE            SBIN WORD;
       35    14961    1        DCL   FROM$$          PTR;
       36    14962    1        DCL   RETURN$         PTR;
PL6.E3A0      #001=Z8EV$CONVERT_ROUND_ON_SIZE File=Z8EV.:Z8A6TSI                 SAT 08/09/97 12:49 Page:2
       37    14963    1        DCL   DEST_DESC       BIT(36) ALIGNED;
       38    14964    1        DCL   ETT$$           PTR;
       39    14965    1        DCL   TABLE_ETT$      PTR;
       40    14966    1        DCL   FROM$           PTR;
       41    14967
       42    14968    1        DCL   LOP$            PTR;
       43    14969    1        DCL   ROP$            PTR;
       44    14970
       45    14971    1        DCL   I      SBIN WORD;
       46    14972    1        DCL   N      SBIN WORD;
       47    14973    1        DCL   ALL    BIT (1) ALIGNED;
       48    14974    1        DCL   ON_SIZE BIT(1) ALIGNED;
       49    14975    1        DCL   ON_SIZE_FLAG       BIT (1) ALIGNED;
       50    14976    1        DCL   ROUND  BIT(1) ALIGNED;
       51    14977    1        DCL   ROUND_FLAG BIT(1) ALIGNED;
       52    14978
       53    14979    1        DCL 1 TYPE_DESC ALIGNED,
       54    14980                   %TYPE_DESC;
       55    15014
       56    15015    1        DCL   Z8AE$ERROR  ENTRY (12);
       57    15016    1        DCL   Z8AF$FORME_ON_SIZE  ENTRY (5);
       58    15017    1        DCL   Z8CO$CREATE_LIBRARY_BASE ENTRY(2);
       59    15018    1        DCL   Z8EV$WORD_TO_BYTE_UNITS ENTRY(2);
       60    15019    1        DCL   Z8AF$NEW_OFF         ENTRY(3);
       61    15020    1        DCL   Z8AF$NEW_FISS        ENTRY(4);
       62    15021    1        DCL   Z8AH$SEARCH_         ENTRY ;
       63    15022    1        DCL   Z8AU$TYPE_DESCRIPTOR ENTRY(2);
       64    15023    1        DCL   Z8EC$CREATE_CONST ENTRY(3) ALTRET;
       65    15024    1        DCL   Z8AC$MAKE_CONST ENTRY (1);
       66    15025
       67    15026    1        DCL   1 ROPCON ALIGNED,
       68    15027    1                 2 DESC,
       69    15028                        %DESCRIPTOR (LVL = 3, ENDING = YES);
       70    15056             %DCL_AUTO_LX_ITEM(@NAME = TEMP_LX_ITEM);
       71    15060             %DCL_AUTO_LX_ITEM(@NAME = TEMP_LX_ITEM1);
       72    15064
       73    15065             %EJECT;
PL6.E3A0      #001=Z8EV$CONVERT_ROUND_ON_SIZE File=Z8EV.:Z8A6TSI                 SAT 08/09/97 12:49 Page:3
       74    15066    1   TYD_TO_TYA: PROC (ETT$$);
       75    15067
       76    15068    2   DCL ETT$$              PTR;
       77    15069    2   DCL 1 TYPE_DESC        ALIGNED,
       78    15070             %TYPE_DESC;
       79    15104
       80    15105    2   DCL 1 ROPCON           ALIGNED,
       81    15106              %DESCRIPTOR      (LVL = 2, ENDING = YES);
       82    15134
       83    15135
       84    15136    2      CALL Z8AU$TYPE_DESCRIPTOR(ETT$$, TYPE_DESC);
       85    15137
       86    15138           %UNPACK_NDSC ( @DESC    = TYPE_DESC.DESC ,
       87    15139                          @TN      = TN ,
       88    15140                          @SCALE   = SCALE,
       89    15141                          @SIGN    = SIGN,
       90    15142                          @LENGTH  = LENGTH );
       91    15197
       92    15198    2      ROPCON = TYPE_DESC.DESC;
       93    15199
       94    15200           /* ----------------------------------------------------- */
       95    15201           /* Latest Cobol-85 standard -- PIC 9P(17) -- Length = 18 */
       96    15202           /* ----------------------------------------------------- */
       97    15203    2          IF SCALE > 0
       98    15204    2          OR - SCALE > LENGTH THEN
       99    15205    3            DO;
      100    15206    3              IF SCALE > 0 THEN
      101    15207    3                LENGTH = LENGTH + SCALE;
      102    15208    3              ELSE
      103    15209    3                LENGTH = - SCALE;
      104    15210
      105    15211                   %PACK_NDSC (@DESC   = ROPCON,
      106    15212                               @LENGTH = LENGTH,
      107    15213                               @SCALE  = 0,
      108    15214                               @SIGN   = SIGN,
      109    15215                               @TN     = %NDSC9);
      110    15264
PL6.E3A0      #001=Z8EV$CONVERT_ROUND_ON_SIZE File=Z8EV.:Z8A6TSI                 SAT 08/09/97 12:49 Page:4
      111    15265    3              TN = %NDSC9;
      112    15266
      113    15267    3              CALL Z8AF$FORME_ON_SIZE (%CV49, ETT$$, ROPCON, ETT$$, ON_SIZE);
      114    15268    3            END;
      115    15269
      116    15270    2      IF TN = %NDSC4 THEN
      117    15271    2        CALL Z8AF$FORME_ON_SIZE(%CV49, ETT$$, 0, ETT$$, ON_SIZE);
      118    15272
      119    15273    3      DO SELECT(TYPE_DESC.DESC.NDSC.S);
      120    15274    3        SELECT (%NO_SIGN);
      121    15275    3          CALL Z8AF$FORME_ON_SIZE(%DNA, ETT$$, 0, ETT$$, ON_SIZE);
      122    15276
      123    15277    3        SELECT (%TRAILING_SIGN);
      124    15278    3          CALL Z8AF$FORME_ON_SIZE (%DNA, ETT$$, 0, ETT$$, ON_SIZE);
      125    15279    3          CALL Z8AF$NEW_FISS (ETT$$, LENGTH, %ALPHA_NUMERIC_FISS, ETT$$);
      126    15280
      127    15281    3        SELECT (%LEADING_SIGN);
      128    15282    3          CALL Z8AF$FORME_ON_SIZE (%DNA, ETT$$, 0, ETT$$, ON_SIZE);
      129    15283    3          CALL Z8AF$NEW_OFF (ETT$$, 1, ETT$$);
      130    15284    3          CALL Z8AF$NEW_FISS (ETT$$, LENGTH, %ALPHA_NUMERIC_FISS, ETT$$);
      131    15285
      132    15286    3        SELECT (%FLOATING_POINT_LEADING_SIGN);
      133    15287    3          CALL Z8AE$ERROR (%E$UNEXPECTED_CASE,
      134    15288    3                           FROM$ -> LX_ETT_ITEM.LINE,
      135    15289    3                           FROM$ -> LX_ETT_ITEM.COLUMN);
      136    15290
      137    15291    3      END;
      138    15292
      139    15293    2   END TYD_TO_TYA;
      140    15294        %EJECT;
PL6.E3A0      #001=Z8EV$CONVERT_ROUND_ON_SIZE File=Z8EV.:Z8A6TSI                 SAT 08/09/97 12:49 Page:5
      141    15295         /*                        MAIN
      142    15296                                                                      */
      143    15297    1        ON_SIZE = ON_SIZE_FLAG;
      144    15298    1        ROUND = ROUND_FLAG; /* For MOVE <TYR>/<TYQ> TO <TYD>/<TYO>, round */
      145    15299
      146    15300    1        GOTO COMMON_CONVERT;
      147    15301
      148    15302    1   Z8EV$CONVERT_ON_SIZE: ENTRY (TYPE, FROM$$, RETURN$, ON_SIZE_FLAG);
      149    15303
      150    15304    1        ON_SIZE = ON_SIZE_FLAG;
      151    15305    1        ROUND = FALSE;
      152    15306
      153    15307    1        GOTO COMMON_CONVERT;
      154    15308
      155    15309    1   Z8EV$CONVERT: ENTRY (TYPE, FROM$$, RETURN$);
      156    15310
      157    15311    1        ON_SIZE = FALSE;
      158    15312    1        ROUND = FALSE;
      159    15313
      160    15314
      161    15315    1   COMMON_CONVERT:
      162    15316
      163    15317    1        FROM$ = ADDR (TEMP_LX_ITEM);
      164    15318    1        FROM$ -> LX_ITEM = FROM$$ -> LX_ITEM;
      165    15319    1        IF FROM$$ -> LX_ITEM.TYPE = %TYC THEN
      166    15320    2          DO;
      167    15321    2            CALL Z8CO$CREATE_LIBRARY_BASE(%OP_GBCD_TO_ASCII, TABLE_ETT$);
      168    15322    2            CALL Z8AF$FORME_ON_SIZE(%CVT,
      169    15323    2                                    FROM$ -> LX_ETT_ITEM.ETT$,
      170    15324    2                                    TABLE_ETT$,
      171    15325    2                                    FROM$$ -> LX_ETT_ITEM.ETT$,
      172    15326    2                                    ON_SIZE);
      173    15327    2            CALL Z8AU$TYPE_DESCRIPTOR(FROM$$ -> LX_ETT_ITEM.ETT$, TYPE_DESC);
      174    15328    2            FROM$ -> LX_ITEM.TYPE = TYPE_DESC.TYPE;
      175    15329    2          END;
      176    15330
      177    15331    1        ETT$$ = FROM$$ -> LX_ETT_ITEM.ETT$;
PL6.E3A0      #001=Z8EV$CONVERT_ROUND_ON_SIZE File=Z8EV.:Z8A6TSI                 SAT 08/09/97 12:49 Page:6
      178    15332    1        ALL = FALSE;
      179    15333
      180    15334
      181    15335    2        DO CASE (TYPE); /* Type to convert to */
      182    15336    2          CASE (%TYA);
      183    15337    3            DO CASE (FROM$ -> LX_ITEM.TYPE);
      184    15338    3              CASE (%TYD);
      185    15339    3                CALL TYD_TO_TYA (ETT$$);
      186    15340
      187    15341    3              CASE (%TYI);
      188    15342    3                CALL Z8EV$WORD_TO_BYTE_UNITS(ETT$$, ETT$$);
      189    15343    3                CALL Z8AF$FORME_ON_SIZE(%CVID9, ETT$$, 0, ETT$$, ON_SIZE);
      190    15344    3                CALL TYD_TO_TYA (ETT$$);
      191    15345
      192    15346    3              CASE (%TYJ);
      193    15347    3                CALL Z8AF$FORME_ON_SIZE(%CVJI, ETT$$, 0, ETT$$, ON_SIZE);
      194    15348
      195    15349
      196    15350    3                CALL Z8AF$FORME_ON_SIZE(%CVID9, ETT$$, 0, ETT$$, ON_SIZE);
      197    15351    3                CALL TYD_TO_TYA (ETT$$);
      198    15352
      199    15353    3              CASE (%TYK);
      200    15354    3                CALL Z8AF$FORME_ON_SIZE(%CVKI, ETT$$, 0, ETT$$, ON_SIZE);
      201    15355    3                CALL Z8AF$FORME_ON_SIZE(%CVID9, ETT$$, 0, ETT$$, ON_SIZE);
      202    15356    3                CALL TYD_TO_TYA (ETT$$);
      203    15357
      204    15358    3              CASE (%TYH);
      205    15359    3                CALL Z8AF$FORME_ON_SIZE(%CVHI, ETT$$, 0, ETT$$, ON_SIZE);
      206    15360    3                CALL Z8AF$FORME_ON_SIZE(%CVID9, ETT$$, 0, ETT$$, ON_SIZE);
      207    15361    3                CALL TYD_TO_TYA (ETT$$);
      208    15362
      209    15363    3              CASE (%TYO);
      210    15364    3                CALL Z8AF$FORME_ON_SIZE(%CVOD4, ETT$$, 0, ETT$$, ON_SIZE);
      211    15365    3                CALL TYD_TO_TYA (ETT$$);
      212    15366
      213    15367    3              CASE (%TYQ);
      214    15368    3                CALL Z8AF$FORME_ON_SIZE(%CVQI, ETT$$, 0, ETT$$, ON_SIZE);
PL6.E3A0      #001=Z8EV$CONVERT_ROUND_ON_SIZE File=Z8EV.:Z8A6TSI                 SAT 08/09/97 12:49 Page:7
      215    15369    3                CALL Z8AF$FORME_ON_SIZE(%CVID9, ETT$$, 0, ETT$$, ON_SIZE);
      216    15370    3                CALL TYD_TO_TYA (ETT$$);
      217    15371
      218    15372    3              CASE (%TYR);
      219    15373    3                CALL Z8AF$FORME_ON_SIZE(%CVRI, ETT$$, 0, ETT$$, ON_SIZE);
      220    15374    3                CALL Z8AF$FORME_ON_SIZE(%CVID9, ETT$$, 0, ETT$$, ON_SIZE);
      221    15375    3                CALL TYD_TO_TYA (ETT$$);
      222    15376
      223    15377    3              CASE (%TYE); /* Convert EBCDIC to ASCII */
      224    15378    3                CALL Z8CO$CREATE_LIBRARY_BASE(%OP_EBCDIC_TO_ASCII, TABLE_ETT$);
      225    15379    3                CALL Z8AF$FORME_ON_SIZE(%CVT, ETT$$, TABLE_ETT$, ETT$$, ON_SIZE);
      226    15380
      227    15381    3              CASE (%TYF); /* Convert EBCDIC numeric to ASCII */
      228    15382    3                CALL Z8AU$TYPE_DESCRIPTOR(ETT$$, TYPE_DESC);
      229    15383    3                IF TYPE_DESC.DESC.NDSC.TN = %NDSC4 /* Overpunched */ THEN
      230    15384    3                  CALL Z8AF$FORME_ON_SIZE(%CVOD4, ETT$$, 0, ETT$$, ON_SIZE);
      231    15385    3                ELSE
      232    15386    4                  DO;
      233    15387    4                    CALL Z8CO$CREATE_LIBRARY_BASE(%OP_EBCDIC_TO_ASCII, TABLE_ETT$);
      234    15388    4                    CALL Z8AF$FORME_ON_SIZE(%CVT, ETT$$, TABLE_ETT$, ETT$$, ON_SIZE);
      235    15389    4                  END;
      236    15390    3                CALL TYD_TO_TYA(ETT$$);
      237    15391
      238    15392    3              CASE (%TYB); /* Convert GBCD tO ASCII */
      239    15393    3                CALL Z8CO$CREATE_LIBRARY_BASE(%OP_GBCD_TO_ASCII, TABLE_ETT$);
      240    15394    3                CALL Z8AF$FORME_ON_SIZE(%CVT, ETT$$, TABLE_ETT$, ETT$$, ON_SIZE);
      241    15395
      242    15396    3              CASE (%TYX, %TYY);
      243    15397    3                CALL Z8AE$ERROR (%E$UNEXPECTED_CASE,
      244    15398    3                                 FROM$ -> LX_ETT_ITEM.LINE,
      245    15399    3                                 FROM$ -> LX_ETT_ITEM.COLUMN);
      246    15400
      247    15401    3              CASE(%TYT);
      248    15402    3                CALL Z8EC$CREATE_CONST(%TYA, FROM$, ETT$$);
      249    15403
      250    15404    3                IF FROM$ -> LX_TERMINAL.B.ALL THEN
      251    15405    3                  ALL = TRUE;
PL6.E3A0      #001=Z8EV$CONVERT_ROUND_ON_SIZE File=Z8EV.:Z8A6TSI                 SAT 08/09/97 12:49 Page:8
      252    15406    3                ELSE
      253    15407    4                  DO CASE (FROM$ -> LX_TERMINAL.SYMBOL);
      254    15408    4                    CASE (%RSV_WRD_HIGH_VALUES, %RSV_WRD_LOW_VALUES,
      255    15409    4                          %RSV_WRD_QUOTES,      %RSV_WRD_SPACES,
      256    15410    4                          %RSV_WRD_ZEROES);
      257    15411    4                      ALL = TRUE;
      258    15412
      259    15413    4                    CASE (ELSE);
      260    15414    4                      /* No all */;
      261    15415    4                  END;
      262    15416
      263    15417    3              CASE(%TYA);
      264    15418    3                ALL = FROM$ -> LX_ETT_ITEM.B.ALL;
      265    15419    3            END; /* Case of converting to alpha */
      266    15420        %EJECT;
PL6.E3A0      #001=Z8EV$CONVERT_ROUND_ON_SIZE File=Z8EV.:Z8A6TSI                 SAT 08/09/97 12:49 Page:9
      267    15421    2          CASE (%TYE);
      268    15422    3            DO CASE(FROM$ -> LX_ITEM.TYPE);
      269    15423    3              CASE (%TYE);
      270    15424    3                ALL = FROM$ -> LX_ETT_ITEM.B.ALL;
      271    15425
      272    15426    3              CASE (%TYF); /* Convert EBCDIC numeric to alphanumeric */
      273    15427    3                CALL Z8AU$TYPE_DESCRIPTOR(ETT$$, TYPE_DESC);
      274    15428    3                IF TYPE_DESC.DESC.NDSC.TN = %NDSC4 /* Overpunched */ THEN
      275    15429    3                  CALL Z8AF$FORME_ON_SIZE(%CVOD4, ETT$$, 0, ETT$$, ON_SIZE);
      276    15430    3                CALL TYD_TO_TYA(ETT$$);
      277    15431
      278    15432    3              CASE(%TYT); /* Convert typeless to EBCDIC */
      279    15433    3                CALL Z8EC$CREATE_CONST(%TYE, FROM$, ETT$$);
      280    15434
      281    15435    3                IF FROM$ -> LX_TERMINAL.B.ALL THEN
      282    15436    3                  ALL = TRUE;
      283    15437    3                ELSE
      284    15438    4                  DO CASE (FROM$ -> LX_TERMINAL.SYMBOL);
      285    15439    4                    CASE (%RSV_WRD_HIGH_VALUES, %RSV_WRD_LOW_VALUES,
      286    15440    4                          %RSV_WRD_QUOTES,      %RSV_WRD_SPACES,
      287    15441    4                          %RSV_WRD_ZEROES);
      288    15442    4                      ALL = TRUE;
      289    15443
      290    15444    4                    CASE (ELSE);
      291    15445    4                      /* No all */;
      292    15446    4                  END;
      293    15447
      294    15448    3              CASE (ELSE); /* Convert other type to EBCDIC */
      295    15449    3                CALL Z8EV$CONVERT_ON_SIZE(%TYA, FROM$, RETURN$, ON_SIZE);
      296    15450    3                ETT$$ = RETURN$ -> LX_ETT_ITEM.ETT$;
      297    15451    3                CALL Z8CO$CREATE_LIBRARY_BASE(%OP_ASCII_TO_EBCDIC, TABLE_ETT$);
      298    15452    3                CALL Z8AF$FORME_ON_SIZE(%CVT, ETT$$, TABLE_ETT$, ETT$$, ON_SIZE);
      299    15453    3                ALL = RETURN$ -> LX_ETT_ITEM.B.ALL;
      300    15454    3            END;
      301    15455
      302    15456    2          CASE (%TYF);
      303    15457    3            DO CASE(FROM$ -> LX_ITEM.TYPE);
PL6.E3A0      #001=Z8EV$CONVERT_ROUND_ON_SIZE File=Z8EV.:Z8A6TSI                 SAT 08/09/97 12:49 Page:10
      304    15458    3              CASE (%TYE); /* Convert EBCDIC alphanumeric to numeric */
      305    15459    3                CALL Z8AF$FORME_ON_SIZE(%DAN, ETT$$, 0, ETT$$, ON_SIZE);
      306    15460
      307    15461    3              CASE (%TYF); /* No action needed */
      308    15462
      309    15463    3              CASE(%TYT); /* Convert typeless to EBCDIC numeric */
      310    15464    3                ALL = FROM$ -> LX_ETT_ITEM.B.ALL;
      311    15465    3                IF ALL AND FROM$ -> LX_ITEM.SYMBOL ~= %RSV_WRD_ZEROES THEN
      312    15466    4                  DO;
      313    15467    4                    CALL SEARCH (I, N, DIGIT_SCAN_TABLE, SUBSTR (FROM$ -> LX_ITEM.DNT$
      314    15468    4                        -> DNT.TEXT.NAME, 1, FROM$ -> LX_ITEM.DNT$ -> DNT.TEXT.LENGTH -
             15468                                 2))
      315    15469    5                      WHENRETURN DO; /* Non-digit found */
      316    15470    5                        CALL Z8AE$ERROR (%E$ONLY_UNSIGNED_TYA_TO_NUM,
      317    15471    5                                         FROM$ -> LX_ITEM.LINE,
      318    15472    5                                         FROM$ -> LX_ITEM.COLUMN);
      319    15473    5                        LEX_SYMBOL.SIZE = 3;
      320    15474    5                        LEX_SYMBOL.SYMBOL = '"1"';
      321    15475    5                        CALL Z8AH$SEARCH_;
      322    15476    5                        FROM$ -> LX_TERMINAL.DNT$ = DNT$;
      323    15477    5                      END;
      324    15478    4                    CALL Z8EC$CREATE_CONST(%TYA, FROM$, ETT$$);
      325    15479    4                  END;
      326    15480    3                  ELSE CALL Z8EC$CREATE_CONST(%TYF, FROM$, ETT$$);
      327    15481
      328    15482    3              CASE (ELSE); /* Convert other type to EBCDIC numeric */
      329    15483    3                CALL Z8EV$CONVERT_ON_SIZE(%TYD, FROM$, RETURN$, ON_SIZE);
      330    15484    3                ETT$$ = RETURN$ -> LX_ETT_ITEM.ETT$;
      331    15485    3                CALL Z8AF$FORME_ON_SIZE(%CVDF, ETT$$, 0, ETT$$, ON_SIZE);
      332    15486    3                ALL = RETURN$ -> LX_ETT_ITEM.B.ALL;
      333    15487    3            END;
      334    15488
      335    15489    2          CASE (%TYB);
      336    15490    3            DO CASE (FROM$ -> LX_ITEM.TYPE);
      337    15491    3              CASE (%TYB);
      338    15492    3                ALL = FROM$ -> LX_ETT_ITEM.B.ALL;
      339    15493
PL6.E3A0      #001=Z8EV$CONVERT_ROUND_ON_SIZE File=Z8EV.:Z8A6TSI                 SAT 08/09/97 12:49 Page:11
      340    15494    3              CASE(%TYT); /* Convert typeless to GBCD */
      341    15495    3                CALL Z8EC$CREATE_CONST(%TYB, FROM$, ETT$$);
      342    15496
      343    15497    3                IF FROM$ -> LX_TERMINAL.B.ALL THEN
      344    15498    3                  ALL = TRUE;
      345    15499    3                ELSE
      346    15500    4                  DO CASE (FROM$ -> LX_TERMINAL.SYMBOL);
      347    15501    4                    CASE (%RSV_WRD_HIGH_VALUES, %RSV_WRD_LOW_VALUES,
      348    15502    4                          %RSV_WRD_QUOTES,      %RSV_WRD_SPACES,
      349    15503    4                          %RSV_WRD_ZEROES);
      350    15504    4                      ALL = TRUE;
      351    15505
      352    15506    4                    CASE (ELSE);
      353    15507    4                      /* No all */;
      354    15508    4                  END;
      355    15509
      356    15510    3              CASE (ELSE); /* Convert other type to GBCD */
      357    15511    3                CALL Z8EV$CONVERT_ON_SIZE(%TYA, FROM$, RETURN$, ON_SIZE);
      358    15512    3                ETT$$ = RETURN$ -> LX_ETT_ITEM.ETT$;
      359    15513    3                CALL Z8CO$CREATE_LIBRARY_BASE(%OP_ASCII_TO_GBCD, TABLE_ETT$);
      360    15514    3                CALL Z8AF$FORME_ON_SIZE(%CVT, ETT$$, TABLE_ETT$, ETT$$, ON_SIZE);
      361    15515    3                ALL = RETURN$ -> LX_ETT_ITEM.B.ALL;
      362    15516    3            END;
      363    15517        %EJECT;
PL6.E3A0      #001=Z8EV$CONVERT_ROUND_ON_SIZE File=Z8EV.:Z8A6TSI                 SAT 08/09/97 12:49 Page:12
      364    15518    2          CASE (%TYD);
      365    15519    3            DO CASE(FROM$ -> LX_ITEM.TYPE);
      366    15520    3              CASE (%TYD);
      367    15521
      368    15522    3              CASE (%TYI);
      369    15523    3                CALL Z8EV$WORD_TO_BYTE_UNITS(ETT$$, ETT$$);
      370    15524    3                IF ETT$$ -> ETT.B.MPI THEN
      371    15525    4                  DO; /* Convert multiply and everything above it */
      372    15526    4                    LOP$ = ADDR (TEMP_LX_ITEM);
      373    15527                         %INIT_LX_ETT_ITEM (@POINTER=LOP$, @TYPE=%TYI, @ETT$=
             15527                             ETT$$ -> ETT.LOP);
      374    15549    4                    CALL Z8EV$CONVERT_ON_SIZE(%TYD, LOP$, LOP$, ON_SIZE);
      375    15550    4                    LOP$ = LOP$ -> LX_ETT_ITEM.ETT$;
      376    15551    4                    IF ETT$$ -> ETT.ID = %USI THEN
      377    15552    4                      I = %USD;
      378    15553    4                    ELSE IF ETT$$ -> ETT.ID = %MPI2 THEN
      379    15554    5                      DO;
      380    15555    5                        I=1;
      381    15556    6                        DO N = ETT$$ -> ETT.ROPCON DOWNTO 1;
      382    15557    6                          I = I * 2;
      383    15558    6                        END;
      384    15559    5                        MKCN.CON = I;
      385    15560    5                        CALL Z8AC$MAKE_CONST(ROP$);
      386    15561    5                        CALL Z8AF$FORME_ON_SIZE(%CVID4, ROP$, 0, ROP$, ON_SIZE);
      387    15562    5                        I = %MPD;
      388    15563    5                      END; /* %MPI2 */
      389    15564    4                    ELSE
      390    15565    5                      DO; /* Neither %USI nor %MPI2 */
      391    15566    5                        ROP$ = ADDR (TEMP_LX_ITEM1);
      392    15567                             %INIT_LX_ETT_ITEM (@POINTER=ROP$, @TYPE=%TYI, @ETT$=
             15567                                 ETT$$->ETT.ROP);
      393    15589    5                        CALL Z8EV$CONVERT_ON_SIZE(%TYD, ROP$, ROP$, ON_SIZE);
      394    15590    5                        ROP$ = ROP$ -> LX_ETT_ITEM.ETT$;
      395    15591    6                        DO CASE (ETT$$ -> ETT.ID);
      396    15592    6                          CASE (%ADI);
      397    15593    6                            I = %ADD;
      398    15594    6                          CASE (%SBI);
PL6.E3A0      #001=Z8EV$CONVERT_ROUND_ON_SIZE File=Z8EV.:Z8A6TSI                 SAT 08/09/97 12:49 Page:13
      399    15595    6                            I = %SBD;
      400    15596    6                          CASE (%MPI);
      401    15597    6                            I = %MPD;
      402    15598    6                        END;
      403    15599    5                      END; /* Neither %USI nor %MPI2 */
      404    15600    4                    CALL Z8AF$FORME_ON_SIZE(I, LOP$, ROP$, ETT$$, ON_SIZE);
      405    15601                         /* If %USD, ROP$ has not been assigned a value,
      406    15602                            but it is not used, either. */
      407    15603    4                  END; /* ETT.B.MPI */
      408    15604    3                ELSE
      409    15605    3                  CALL Z8AF$FORME_ON_SIZE(%CVID4, ETT$$, 0, ETT$$, ON_SIZE);
      410    15606
      411    15607    3              CASE (%TYJ);
      412    15608    3                CALL Z8AF$FORME_ON_SIZE(%CVJI, ETT$$, 0, ETT$$, ON_SIZE);
      413    15609    3                CALL Z8AF$FORME_ON_SIZE(%CVID4, ETT$$, 0, ETT$$, ON_SIZE);
      414    15610
      415    15611    3              CASE (%TYK);
      416    15612    3                CALL Z8AF$FORME_ON_SIZE(%CVKI, ETT$$, 0, ETT$$, ON_SIZE);
      417    15613    3                CALL Z8AF$FORME_ON_SIZE(%CVID4, ETT$$, 0, ETT$$, ON_SIZE);
      418    15614
      419    15615    3              CASE (%TYH);
      420    15616    3                CALL Z8AF$FORME_ON_SIZE(%CVHI, ETT$$, 0, ETT$$, ON_SIZE);
      421    15617    3                CALL Z8AF$FORME_ON_SIZE(%CVID4, ETT$$, 0, ETT$$, ON_SIZE);
      422    15618
      423    15619    3              CASE (%TYO, %TYF);
             15619                       /* Convert overpunched or EBCDIC numeric to ASCII numeric */
      424    15620    3                CALL Z8AF$FORME_ON_SIZE(%CVOD4, ETT$$, 0, ETT$$, ON_SIZE);
      425    15621
      426    15622    3              CASE (%TYR);
      427    15623    3                  CALL Z8AF$FORME_ON_SIZE(%CVRD4, ETT$$, 0, ETT$$, ON_SIZE);
      428    15624    3                  IF ROUND THEN
      429    15625    3                    CALL Z8AF$FORME_ON_SIZE(%RNDD, ETT$$, DEST_DESC, ETT$$, ON_SIZE);
      430    15626
      431    15627    3              CASE (%TYQ);
      432    15628    3                  CALL Z8AF$FORME_ON_SIZE(%CVQD4, ETT$$, 0, ETT$$, ON_SIZE);
      433    15629    3                  IF ROUND THEN
      434    15630    3                    CALL Z8AF$FORME_ON_SIZE(%RNDD, ETT$$, DEST_DESC, ETT$$, ON_SIZE);
PL6.E3A0      #001=Z8EV$CONVERT_ROUND_ON_SIZE File=Z8EV.:Z8A6TSI                 SAT 08/09/97 12:49 Page:14
      435    15631
      436    15632    3              CASE (%TYA);
      437    15633    3                CALL Z8AF$FORME_ON_SIZE(%DAN, ETT$$, 0, ETT$$, ON_SIZE);
      438    15634
      439    15635    3              CASE (%TYE); /* Convert EBCDIC to numeric */
      440    15636    3                CALL Z8CO$CREATE_LIBRARY_BASE(%OP_EBCDIC_TO_ASCII, TABLE_ETT$);
      441    15637    3                CALL Z8AF$FORME_ON_SIZE(%CVT, ETT$$, TABLE_ETT$, ETT$$, ON_SIZE);
      442    15638    3                CALL Z8AF$FORME_ON_SIZE(%DAN, ETT$$, 0, ETT$$, ON_SIZE);
      443    15639
      444    15640    3              CASE (%TYB); /* Convert GBCD to numeric */
      445    15641    3                CALL Z8CO$CREATE_LIBRARY_BASE(%OP_GBCD_TO_ASCII, TABLE_ETT$);
      446    15642    3                CALL Z8AF$FORME_ON_SIZE(%CVT, ETT$$, TABLE_ETT$, ETT$$, ON_SIZE);
      447    15643    3                CALL Z8AF$FORME_ON_SIZE(%DAN, ETT$$, 0, ETT$$, ON_SIZE);
      448    15644
      449    15645    3              CASE (%TYX, %TYY);
      450    15646    3                CALL Z8AE$ERROR (%E$UNEXPECTED_CASE,
      451    15647    3                                 FROM$ -> LX_ETT_ITEM.LINE,
      452    15648    3                                 FROM$ -> LX_ETT_ITEM.COLUMN);
      453    15649
      454    15650    3              CASE(%TYT);
      455    15651    3                ALL = FROM$ -> LX_ETT_ITEM.B.ALL;
      456    15652    3                IF ALL AND FROM$ -> LX_ITEM.SYMBOL ~= %RSV_WRD_ZEROES THEN
      457    15653    4                  DO;
      458    15654    4                    CALL SEARCH (I, N, DIGIT_SCAN_TABLE, SUBSTR (FROM$ -> LX_ITEM.DNT$
      459    15655    4                        -> DNT.TEXT.NAME, 1, FROM$ -> LX_ITEM.DNT$ -> DNT.TEXT.LENGTH -
             15655                                 2))
      460    15656    5                      WHENRETURN DO; /* Non-digit found */
      461    15657    5                        CALL Z8AE$ERROR (%E$ONLY_UNSIGNED_TYA_TO_NUM,
      462    15658    5                                         FROM$ -> LX_ITEM.LINE,
      463    15659    5                                         FROM$ -> LX_ITEM.COLUMN);
      464    15660    5                        LEX_SYMBOL.SIZE = 3;
      465    15661    5                        LEX_SYMBOL.SYMBOL = '"1"';
      466    15662    5                        CALL Z8AH$SEARCH_;
      467    15663    5                        FROM$ -> LX_TERMINAL.DNT$ = DNT$;
      468    15664    5                      END;
      469    15665    4                    CALL Z8EC$CREATE_CONST(%TYA, FROM$, ETT$$);
      470    15666    4                  END;
PL6.E3A0      #001=Z8EV$CONVERT_ROUND_ON_SIZE File=Z8EV.:Z8A6TSI                 SAT 08/09/97 12:49 Page:15
      471    15667    3                  ELSE CALL Z8EC$CREATE_CONST(%TYD, FROM$, ETT$$);
      472    15668
      473    15669    3            END /* CASE (%TYD) */;
      474    15670        %EJECT;
PL6.E3A0      #001=Z8EV$CONVERT_ROUND_ON_SIZE File=Z8EV.:Z8A6TSI                 SAT 08/09/97 12:49 Page:16
      475    15671    2          CASE (%TYO);
      476    15672    3            DO CASE(FROM$ -> LX_ITEM.TYPE);
      477    15673
      478    15674    3              CASE (%TYD);
      479    15675    3                CALL Z8AF$FORME_ON_SIZE(%CVDO, ETT$$, 0, ETT$$, ON_SIZE);
      480    15676
      481    15677    3              CASE (%TYI);
      482    15678    3                CALL Z8EV$WORD_TO_BYTE_UNITS(ETT$$, ETT$$);
      483    15679    3                CALL Z8AF$FORME_ON_SIZE(%CVID4, ETT$$, 0, ETT$$, ON_SIZE);
      484    15680    3                CALL Z8AF$FORME_ON_SIZE(%CVDO, ETT$$, 0, ETT$$, ON_SIZE);
      485    15681
      486    15682    3              CASE (%TYJ);
      487    15683    3                CALL Z8AF$FORME_ON_SIZE(%CVJI, ETT$$, 0, ETT$$, ON_SIZE);
      488    15684    3                CALL Z8AF$FORME_ON_SIZE(%CVID4, ETT$$, 0, ETT$$, ON_SIZE);
      489    15685    3                CALL Z8AF$FORME_ON_SIZE(%CVDO, ETT$$, 0, ETT$$, ON_SIZE);
      490    15686
      491    15687    3              CASE (%TYK);
      492    15688    3                CALL Z8AF$FORME_ON_SIZE(%CVKI, ETT$$, 0, ETT$$, ON_SIZE);
      493    15689    3                CALL Z8AF$FORME_ON_SIZE(%CVID4, ETT$$, 0, ETT$$, ON_SIZE);
      494    15690    3                CALL Z8AF$FORME_ON_SIZE(%CVDO, ETT$$, 0, ETT$$, ON_SIZE);
      495    15691
      496    15692    3              CASE (%TYH);
      497    15693    3                CALL Z8AF$FORME_ON_SIZE(%CVHI, ETT$$, 0, ETT$$, ON_SIZE);
      498    15694    3                CALL Z8AF$FORME_ON_SIZE(%CVID4, ETT$$, 0, ETT$$, ON_SIZE);
      499    15695    3                CALL Z8AF$FORME_ON_SIZE(%CVDO, ETT$$, 0, ETT$$, ON_SIZE);
      500    15696
      501    15697    3              CASE (%TYR);
      502    15698    3                CALL Z8AF$FORME_ON_SIZE(%CVRD4, ETT$$, 0, ETT$$, ON_SIZE);
      503    15699    3                IF ROUND THEN
      504    15700    3                  CALL Z8AF$FORME_ON_SIZE(%RNDD, ETT$$, DEST_DESC, ETT$$, ON_SIZE);
      505    15701    3                CALL Z8AF$FORME_ON_SIZE(%CVDO, ETT$$, 0, ETT$$, ON_SIZE);
      506    15702
      507    15703    3              CASE (%TYQ);
      508    15704    3                CALL Z8AF$FORME_ON_SIZE(%CVQD4, ETT$$, 0, ETT$$, ON_SIZE);
      509    15705    3                IF ROUND THEN
      510    15706    3                  CALL Z8AF$FORME_ON_SIZE(%RNDD, ETT$$, DEST_DESC, ETT$$, ON_SIZE);
      511    15707    3                CALL Z8AF$FORME_ON_SIZE(%CVDO, ETT$$, 0, ETT$$, ON_SIZE);
PL6.E3A0      #001=Z8EV$CONVERT_ROUND_ON_SIZE File=Z8EV.:Z8A6TSI                 SAT 08/09/97 12:49 Page:17
      512    15708
      513    15709    3              CASE (%TYA);
      514    15710    3                CALL Z8AF$FORME_ON_SIZE(%DAN, ETT$$, 0, ETT$$, ON_SIZE);
      515    15711    3                CALL Z8AF$FORME_ON_SIZE(%CVDO, ETT$$, 0, ETT$$, ON_SIZE);
      516    15712
      517    15713    3              CASE (%TYE); /* Convert EBCDIC to overpunched */
      518    15714    3                CALL Z8CO$CREATE_LIBRARY_BASE(%OP_EBCDIC_TO_ASCII, TABLE_ETT$);
      519    15715    3                CALL Z8AF$FORME_ON_SIZE(%CVT, ETT$$, TABLE_ETT$, ETT$$, ON_SIZE);
      520    15716    3                CALL Z8AF$FORME_ON_SIZE(%DAN, ETT$$, 0, ETT$$, ON_SIZE);
      521    15717    3                CALL Z8AF$FORME_ON_SIZE(%CVDO, ETT$$, 0, ETT$$, ON_SIZE);
      522    15718
      523    15719    3              CASE (%TYF); /* Convert EBCDIC numeric to overpunched */
      524    15720    3                CALL Z8AU$TYPE_DESCRIPTOR(ETT$$, TYPE_DESC);
      525    15721    3                IF TYPE_DESC.DESC.NDSC.TN = %NDSC4 /* Overpunched */ THEN
      526    15722    3                  CALL Z8AF$FORME_ON_SIZE(%CVOD4, ETT$$, 0, ETT$$, ON_SIZE);
      527    15723    3                ELSE
      528    15724    4                  DO;
      529    15725    4                    CALL Z8CO$CREATE_LIBRARY_BASE(%OP_EBCDIC_TO_ASCII, TABLE_ETT$);
      530    15726    4                    CALL Z8AF$FORME_ON_SIZE(%CVT, ETT$$, TABLE_ETT$, ETT$$, ON_SIZE);
      531    15727    4                  END;
      532    15728    3                CALL Z8AF$FORME_ON_SIZE(%CVDO, ETT$$, 0, ETT$$, ON_SIZE);
      533    15729
      534    15730    3              CASE (%TYB); /* Convert GBCD to numeric */
      535    15731    3                CALL Z8CO$CREATE_LIBRARY_BASE(%OP_GBCD_TO_ASCII, TABLE_ETT$);
      536    15732    3                CALL Z8AF$FORME_ON_SIZE(%CVT, ETT$$, TABLE_ETT$, ETT$$, ON_SIZE);
      537    15733    3                CALL Z8AF$FORME_ON_SIZE(%DAN, ETT$$, 0, ETT$$, ON_SIZE);
      538    15734    3                CALL Z8AF$FORME_ON_SIZE(%CVDO, ETT$$, 0, ETT$$, ON_SIZE);
      539    15735
      540    15736    3              CASE (%TYX, %TYY);
      541    15737    3                CALL Z8AE$ERROR (%E$UNEXPECTED_CASE,
      542    15738    3                                 FROM$ -> LX_ETT_ITEM.LINE,
      543    15739    3                                 FROM$ -> LX_ETT_ITEM.COLUMN);
      544    15740
      545    15741    3              CASE(%TYT);
      546    15742    3                IF ALL AND FROM$ -> LX_ITEM.SYMBOL ~= %RSV_WRD_ZEROES THEN
      547    15743    4                  DO;
      548    15744    4                    CALL SEARCH (I, N, DIGIT_SCAN_TABLE, SUBSTR (FROM$ -> LX_ITEM.DNT$
PL6.E3A0      #001=Z8EV$CONVERT_ROUND_ON_SIZE File=Z8EV.:Z8A6TSI                 SAT 08/09/97 12:49 Page:18
      549    15745    4                        -> DNT.TEXT.NAME, 1, FROM$ -> LX_ITEM.DNT$ -> DNT.TEXT.LENGTH -
             15745                                 2))
      550    15746    5                      WHENRETURN DO; /* Non-digit found */
      551    15747    5                        CALL Z8AE$ERROR (%E$ONLY_UNSIGNED_TYA_TO_NUM,
      552    15748    5                                         FROM$ -> LX_ITEM.LINE,
      553    15749    5                                         FROM$ -> LX_ITEM.COLUMN);
      554    15750    5                        LEX_SYMBOL.SIZE = 3;
      555    15751    5                        LEX_SYMBOL.SYMBOL = '"1"';
      556    15752    5                        CALL Z8AH$SEARCH_;
      557    15753    5                        FROM$ -> LX_TERMINAL.DNT$ = DNT$;
      558    15754    5                      END;
      559    15755    4                    CALL Z8EC$CREATE_CONST(%TYA, FROM$, ETT$$);
      560    15756    4                  END;
      561    15757    3                  ELSE CALL Z8EC$CREATE_CONST(%TYO, FROM$, ETT$$);
      562    15758
      563    15759    3            END /* CASE (%TYO) */;
      564    15760        %EJECT;
PL6.E3A0      #001=Z8EV$CONVERT_ROUND_ON_SIZE File=Z8EV.:Z8A6TSI                 SAT 08/09/97 12:49 Page:19
      565    15761    2          CASE (%TYI);
      566    15762    3            DO CASE(FROM$ -> LX_ITEM.TYPE);
      567    15763    3              CASE (%TYD);
      568    15764    3                CALL Z8AF$FORME_ON_SIZE(%CVDSF, ETT$$, 0, ETT$$, ON_SIZE);
      569    15765    3                CALL Z8AF$FORME_ON_SIZE(%CVDI, ETT$$, 0, ETT$$, ON_SIZE);
      570    15766
      571    15767    3              CASE (%TYJ);
      572    15768    3                CALL Z8AF$FORME_ON_SIZE(%CVJI, ETT$$, 0, ETT$$, ON_SIZE);
      573    15769
      574    15770    3              CASE (%TYK);
      575    15771    3                CALL Z8AF$FORME_ON_SIZE(%CVKI, ETT$$, 0, ETT$$, ON_SIZE);
      576    15772
      577    15773    3              CASE (%TYH);
      578    15774    3                CALL Z8AF$FORME_ON_SIZE(%CVHI, ETT$$, 0, ETT$$, ON_SIZE);
      579    15775
      580    15776    3              CASE (%TYO, %TYF); /* Convert overpunched or EBCDIC numeric to integer */
      581    15777    3                CALL Z8AF$FORME_ON_SIZE(%CVOD4, ETT$$, 0, ETT$$, ON_SIZE);
      582    15778    3                CALL Z8AF$FORME_ON_SIZE(%CVDSF, ETT$$, 0, ETT$$, ON_SIZE);
      583    15779    3                CALL Z8AF$FORME_ON_SIZE(%CVDI, ETT$$, 0, ETT$$, ON_SIZE);
      584    15780
      585    15781    3              CASE (%TYR);
      586    15782    3                CALL Z8AF$FORME_ON_SIZE(%CVRI, ETT$$, 0, ETT$$, ON_SIZE);
      587    15783
      588    15784    3              CASE (%TYQ);
      589    15785    3                CALL Z8AF$FORME_ON_SIZE(%CVQI, ETT$$, 0, ETT$$, ON_SIZE);
      590    15786
      591    15787    3              CASE (%TYA);
      592    15788    3                CALL Z8AF$FORME_ON_SIZE(%DAN, ETT$$, 0, ETT$$, ON_SIZE);
      593    15789    3                CALL Z8AF$FORME_ON_SIZE(%CVDI, ETT$$, 0, ETT$$, ON_SIZE);
      594    15790
      595    15791    3              CASE (%TYE); /* Convert EBCDIC to integer */
      596    15792    3                CALL Z8CO$CREATE_LIBRARY_BASE(%OP_EBCDIC_TO_ASCII, TABLE_ETT$);
      597    15793    3                CALL Z8AF$FORME_ON_SIZE(%CVT, ETT$$, TABLE_ETT$, ETT$$, ON_SIZE);
      598    15794    3                CALL Z8AF$FORME_ON_SIZE(%DAN, ETT$$, 0, ETT$$, ON_SIZE);
      599    15795    3                CALL Z8AF$FORME_ON_SIZE(%CVDI, ETT$$, 0, ETT$$, ON_SIZE);
      600    15796
      601    15797    3              CASE (%TYB); /* Convert GBCD to integer */
PL6.E3A0      #001=Z8EV$CONVERT_ROUND_ON_SIZE File=Z8EV.:Z8A6TSI                 SAT 08/09/97 12:49 Page:20
      602    15798    3                CALL Z8CO$CREATE_LIBRARY_BASE(%OP_GBCD_TO_ASCII, TABLE_ETT$);
      603    15799    3                CALL Z8AF$FORME_ON_SIZE(%CVT, ETT$$, TABLE_ETT$, ETT$$, ON_SIZE);
      604    15800    3                CALL Z8AF$FORME_ON_SIZE(%DAN, ETT$$, 0, ETT$$, ON_SIZE);
      605    15801    3                CALL Z8AF$FORME_ON_SIZE(%CVDI, ETT$$, 0, ETT$$, ON_SIZE);
      606    15802
      607    15803    3              CASE (%TYX, %TYY);
      608    15804    3                CALL Z8AE$ERROR (%E$UNEXPECTED_CASE,
      609    15805    3                                 FROM$ -> LX_ETT_ITEM.LINE,
      610    15806    3                                 FROM$ -> LX_ETT_ITEM.COLUMN);
      611    15807
      612    15808    3              CASE(%TYT);
      613    15809    3                CALL Z8EC$CREATE_CONST(%TYI, FROM$, ETT$$)
      614    15810    3                  WHENALTRETURN
      615    15811    4                    DO;
      616    15812                           %CONDITIONAL_ERROR (@LX_ITEM$ = FROM$,
      617    15813                                               @ERROR#   = %E$TRUNCATION_WARN,
      618    15814                                               @LINE     = FROM$ -> LX_ITEM.LINE,
      619    15815                                               @COLUMN   = FROM$ -> LX_ITEM.COLUMN);
      620    15845    4                    END;
      621    15846
      622    15847    3            END /* CASE (%TYI) */;
      623    15848        %EJECT;
PL6.E3A0      #001=Z8EV$CONVERT_ROUND_ON_SIZE File=Z8EV.:Z8A6TSI                 SAT 08/09/97 12:49 Page:21
      624    15849    2          CASE (%TYH);
      625    15850    3            DO CASE(FROM$ -> LX_ITEM.TYPE);
      626    15851    3              CASE (%TYD);
      627    15852    3                CALL Z8AF$FORME_ON_SIZE(%CVDSF, ETT$$, 0, ETT$$, ON_SIZE);
      628    15853    3                CALL Z8AF$FORME_ON_SIZE(%CVDI, ETT$$, 0, ETT$$, ON_SIZE);
      629    15854    3                CALL Z8AF$FORME_ON_SIZE(%CVIH, ETT$$, 0, ETT$$, ON_SIZE);
      630    15855
      631    15856    3              CASE (%TYI);
      632    15857    3                CALL Z8AF$FORME_ON_SIZE(%CVIH, ETT$$, 0, ETT$$, ON_SIZE);
      633    15858
      634    15859    3              CASE (%TYJ);
      635    15860    3                CALL Z8AF$FORME_ON_SIZE(%CVJI, ETT$$, 0, ETT$$, ON_SIZE);
      636    15861    3                CALL Z8AF$FORME_ON_SIZE(%CVIH, ETT$$, 0, ETT$$, ON_SIZE);
      637    15862
      638    15863    3              CASE (%TYK);
      639    15864    3                CALL Z8AF$FORME_ON_SIZE(%CVKI, ETT$$, 0, ETT$$, ON_SIZE);
      640    15865    3                CALL Z8AF$FORME_ON_SIZE(%CVIH, ETT$$, 0, ETT$$, ON_SIZE);
      641    15866
      642    15867    3              CASE (%TYO, %TYF);
             15867                       /* Convert overpunched or EBCDIC numeric to half word */
      643    15868    3                CALL Z8AF$FORME_ON_SIZE(%CVOD4, ETT$$, 0, ETT$$, ON_SIZE);
      644    15869    3                CALL Z8AF$FORME_ON_SIZE(%CVDSF, ETT$$, 0, ETT$$, ON_SIZE);
      645    15870    3                CALL Z8AF$FORME_ON_SIZE(%CVDI, ETT$$, 0, ETT$$, ON_SIZE);
      646    15871    3                CALL Z8AF$FORME_ON_SIZE(%CVIH, ETT$$, 0, ETT$$, ON_SIZE);
      647    15872
      648    15873    3              CASE (%TYQ);
      649    15874    3                CALL Z8AF$FORME_ON_SIZE(%CVQI, ETT$$, 0, ETT$$, ON_SIZE);
      650    15875    3                CALL Z8AF$FORME_ON_SIZE(%CVIH, ETT$$, 0, ETT$$, ON_SIZE);
      651    15876
      652    15877    3              CASE (%TYR);
      653    15878    3                CALL Z8AF$FORME_ON_SIZE(%CVRI, ETT$$, 0, ETT$$, ON_SIZE);
      654    15879    3                CALL Z8AF$FORME_ON_SIZE(%CVIH, ETT$$, 0, ETT$$, ON_SIZE);
      655    15880
      656    15881    3              CASE (%TYA);
      657    15882    3                CALL Z8AF$FORME_ON_SIZE(%DAN, ETT$$, 0, ETT$$, ON_SIZE);
      658    15883    3                CALL Z8AF$FORME_ON_SIZE(%CVDI, ETT$$, 0, ETT$$, ON_SIZE);
      659    15884    3                CALL Z8AF$FORME_ON_SIZE(%CVIH, ETT$$, 0, ETT$$, ON_SIZE);
PL6.E3A0      #001=Z8EV$CONVERT_ROUND_ON_SIZE File=Z8EV.:Z8A6TSI                 SAT 08/09/97 12:49 Page:22
      660    15885
      661    15886    3              CASE (%TYE); /* Convert EBCDIC to half word */
      662    15887    3                CALL Z8CO$CREATE_LIBRARY_BASE(%OP_EBCDIC_TO_ASCII, TABLE_ETT$);
      663    15888    3                CALL Z8AF$FORME_ON_SIZE(%CVT, ETT$$, TABLE_ETT$, ETT$$, ON_SIZE);
      664    15889    3                CALL Z8AF$FORME_ON_SIZE(%DAN, ETT$$, 0, ETT$$, ON_SIZE);
      665    15890    3                CALL Z8AF$FORME_ON_SIZE(%CVDI, ETT$$, 0, ETT$$, ON_SIZE);
      666    15891    3                CALL Z8AF$FORME_ON_SIZE(%CVIH, ETT$$, 0, ETT$$, ON_SIZE);
      667    15892
      668    15893    3              CASE (%TYB); /* Convert GBCD to half word */
      669    15894    3                CALL Z8CO$CREATE_LIBRARY_BASE(%OP_GBCD_TO_ASCII, TABLE_ETT$);
      670    15895    3                CALL Z8AF$FORME_ON_SIZE(%CVT, ETT$$, TABLE_ETT$, ETT$$, ON_SIZE);
      671    15896    3                CALL Z8AF$FORME_ON_SIZE(%DAN, ETT$$, 0, ETT$$, ON_SIZE);
      672    15897    3                CALL Z8AF$FORME_ON_SIZE(%CVDI, ETT$$, 0, ETT$$, ON_SIZE);
      673    15898    3                CALL Z8AF$FORME_ON_SIZE(%CVIH, ETT$$, 0, ETT$$, ON_SIZE);
      674    15899
      675    15900    3              CASE (%TYX, %TYY);
      676    15901    3                CALL Z8AE$ERROR (%E$UNEXPECTED_CASE,
      677    15902    3                                 FROM$ -> LX_ETT_ITEM.LINE,
      678    15903    3                                 FROM$ -> LX_ETT_ITEM.COLUMN);
      679    15904
      680    15905    3              CASE(%TYT);
      681    15906    3                CALL Z8EC$CREATE_CONST(%TYH, FROM$, ETT$$)
      682    15907    3                  WHENALTRETURN
      683    15908    4                    DO;
      684    15909                           %CONDITIONAL_ERROR (@LX_ITEM$ = FROM$,
      685    15910                                               @ERROR#   = %E$TRUNCATION_WARN,
      686    15911                                               @LINE     = FROM$ -> LX_ITEM.LINE,
      687    15912                                               @COLUMN   = FROM$ -> LX_ITEM.COLUMN);
      688    15942    4                    END;
      689    15943
      690    15944    3            END;  /* CASE (%TYH) */
      691    15945        %EJECT;
PL6.E3A0      #001=Z8EV$CONVERT_ROUND_ON_SIZE File=Z8EV.:Z8A6TSI                 SAT 08/09/97 12:49 Page:23
      692    15946    2          CASE (%TYJ);
      693    15947    3            DO CASE(FROM$ -> LX_ITEM.TYPE);
      694    15948    3              CASE (%TYD);
      695    15949    3                CALL Z8AF$FORME_ON_SIZE(%CVDSF, ETT$$, 0, ETT$$, ON_SIZE);
      696    15950    3                CALL Z8AF$FORME_ON_SIZE(%CVDI, ETT$$, 0, ETT$$, ON_SIZE);
      697    15951    3                CALL Z8AF$FORME_ON_SIZE(%CVIJ, ETT$$, 0, ETT$$, ON_SIZE);
      698    15952
      699    15953    3              CASE (%TYI);
      700    15954    3                CALL Z8AF$FORME_ON_SIZE(%CVIJ, ETT$$, 0, ETT$$, ON_SIZE);
      701    15955
      702    15956    3              CASE (%TYH);
      703    15957    3                CALL Z8AF$FORME_ON_SIZE(%CVHI, ETT$$, 0, ETT$$, ON_SIZE);
      704    15958    3                CALL Z8AF$FORME_ON_SIZE(%CVIJ, ETT$$, 0, ETT$$, ON_SIZE);
      705    15959
      706    15960    3              CASE (%TYJ);
      707    15961
      708    15962    3              CASE (%TYK);
      709    15963    3                CALL Z8AF$FORME_ON_SIZE(%CVKI, ETT$$, 0, ETT$$, ON_SIZE);
      710    15964    3                CALL Z8AF$FORME_ON_SIZE(%CVIJ, ETT$$, 0, ETT$$, ON_SIZE);
      711    15965
      712    15966    3              CASE (%TYO, %TYF); /* Convert overpunched or EBCDIC numeric to 16 bit */
      713    15967    3                CALL Z8AF$FORME_ON_SIZE(%CVOD4, ETT$$, 0, ETT$$, ON_SIZE);
      714    15968    3                CALL Z8AF$FORME_ON_SIZE(%CVDSF, ETT$$, 0, ETT$$, ON_SIZE);
      715    15969    3                CALL Z8AF$FORME_ON_SIZE(%CVDI, ETT$$, 0, ETT$$, ON_SIZE);
      716    15970    3                CALL Z8AF$FORME_ON_SIZE(%CVIJ, ETT$$, 0, ETT$$, ON_SIZE);
      717    15971
      718    15972    3              CASE (%TYQ);
      719    15973    3                CALL Z8AF$FORME_ON_SIZE(%CVQI, ETT$$, 0, ETT$$, ON_SIZE);
      720    15974    3                CALL Z8AF$FORME_ON_SIZE(%CVIJ, ETT$$, 0, ETT$$, ON_SIZE);
      721    15975
      722    15976    3              CASE (%TYR);
      723    15977    3                CALL Z8AF$FORME_ON_SIZE(%CVRI, ETT$$, 0, ETT$$, ON_SIZE);
      724    15978    3                CALL Z8AF$FORME_ON_SIZE(%CVIJ, ETT$$, 0, ETT$$, ON_SIZE);
      725    15979
      726    15980    3              CASE (%TYA);
      727    15981    3                CALL Z8AF$FORME_ON_SIZE(%DAN, ETT$$, 0, ETT$$, ON_SIZE);
      728    15982    3                CALL Z8AF$FORME_ON_SIZE(%CVDI, ETT$$, 0, ETT$$, ON_SIZE);
PL6.E3A0      #001=Z8EV$CONVERT_ROUND_ON_SIZE File=Z8EV.:Z8A6TSI                 SAT 08/09/97 12:49 Page:24
      729    15983    3                CALL Z8AF$FORME_ON_SIZE(%CVIJ, ETT$$, 0, ETT$$, ON_SIZE);
      730    15984
      731    15985    3              CASE (%TYE); /* Convert EBCDIC to 16 bit */
      732    15986    3                CALL Z8CO$CREATE_LIBRARY_BASE(%OP_EBCDIC_TO_ASCII, TABLE_ETT$);
      733    15987    3                CALL Z8AF$FORME_ON_SIZE(%CVT, ETT$$, TABLE_ETT$, ETT$$, ON_SIZE);
      734    15988    3                CALL Z8AF$FORME_ON_SIZE(%DAN, ETT$$, 0, ETT$$, ON_SIZE);
      735    15989    3                CALL Z8AF$FORME_ON_SIZE(%CVDI, ETT$$, 0, ETT$$, ON_SIZE);
      736    15990    3                CALL Z8AF$FORME_ON_SIZE(%CVIJ, ETT$$, 0, ETT$$, ON_SIZE);
      737    15991
      738    15992    3              CASE (%TYB); /* Convert GBCD to 16 bit */
      739    15993    3                CALL Z8CO$CREATE_LIBRARY_BASE(%OP_GBCD_TO_ASCII, TABLE_ETT$);
      740    15994    3                CALL Z8AF$FORME_ON_SIZE(%CVT, ETT$$, TABLE_ETT$, ETT$$, ON_SIZE);
      741    15995    3                CALL Z8AF$FORME_ON_SIZE(%DAN, ETT$$, 0, ETT$$, ON_SIZE);
      742    15996    3                CALL Z8AF$FORME_ON_SIZE(%CVDI, ETT$$, 0, ETT$$, ON_SIZE);
      743    15997    3                CALL Z8AF$FORME_ON_SIZE(%CVIJ, ETT$$, 0, ETT$$, ON_SIZE);
      744    15998
      745    15999    3              CASE (%TYX, %TYY);
      746    16000    3                CALL Z8AE$ERROR (%E$UNEXPECTED_CASE,
      747    16001    3                                 FROM$ -> LX_ETT_ITEM.LINE,
      748    16002    3                                 FROM$ -> LX_ETT_ITEM.COLUMN);
      749    16003
      750    16004    3              CASE(%TYT);
      751    16005    3                CALL Z8EC$CREATE_CONST(%TYJ, FROM$, ETT$$)
      752    16006    3                  WHENALTRETURN
      753    16007    4                    DO;
      754    16008                           %CONDITIONAL_ERROR (@LX_ITEM$ = FROM$,
      755    16009                                               @ERROR#   = %E$TRUNCATION_WARN,
      756    16010                                               @LINE     = FROM$ -> LX_ITEM.LINE,
      757    16011                                               @COLUMN   = FROM$ -> LX_ITEM.COLUMN);
      758    16041    4                    END;
      759    16042
      760    16043    3            END;  /* CASE (%TYJ) */
      761    16044        %EJECT;
PL6.E3A0      #001=Z8EV$CONVERT_ROUND_ON_SIZE File=Z8EV.:Z8A6TSI                 SAT 08/09/97 12:49 Page:25
      762    16045    2          CASE (%TYK);  /* Convert To 32 bit Binary (Comp-2)*/
      763    16046    3            DO CASE(FROM$ -> LX_ITEM.TYPE);
      764    16047    3              CASE (%TYD);
      765    16048    3                CALL Z8AF$FORME_ON_SIZE(%CVDSF, ETT$$, 0, ETT$$, ON_SIZE);
      766    16049    3                CALL Z8AF$FORME_ON_SIZE(%CVDI, ETT$$, 0, ETT$$, ON_SIZE);
      767    16050    3                CALL Z8AF$FORME_ON_SIZE(%CVIK, ETT$$, 0, ETT$$, ON_SIZE);
      768    16051
      769    16052    3              CASE (%TYI);
      770    16053    3                CALL Z8AF$FORME_ON_SIZE(%CVIK, ETT$$, 0, ETT$$, ON_SIZE);
      771    16054
      772    16055    3              CASE (%TYH);
      773    16056    3                CALL Z8AF$FORME_ON_SIZE(%CVHI, ETT$$, 0, ETT$$, ON_SIZE);
      774    16057    3                CALL Z8AF$FORME_ON_SIZE(%CVIK, ETT$$, 0, ETT$$, ON_SIZE);
      775    16058
      776    16059    3              CASE (%TYJ);
      777    16060    3                CALL Z8AF$FORME_ON_SIZE(%CVJI, ETT$$, 0, ETT$$, ON_SIZE);
      778    16061    3                CALL Z8AF$FORME_ON_SIZE(%CVIK, ETT$$, 0, ETT$$, ON_SIZE);
      779    16062
      780    16063    3              CASE (%TYK);
      781    16064
      782    16065    3              CASE (%TYO, %TYF); /* Convert overpunched or EBCDIC numeric to 32 bit */
      783    16066    3                CALL Z8AF$FORME_ON_SIZE(%CVOD4, ETT$$, 0, ETT$$, ON_SIZE);
      784    16067    3                CALL Z8AF$FORME_ON_SIZE(%CVDSF, ETT$$, 0, ETT$$, ON_SIZE);
      785    16068    3                CALL Z8AF$FORME_ON_SIZE(%CVDI, ETT$$, 0, ETT$$, ON_SIZE);
      786    16069    3                CALL Z8AF$FORME_ON_SIZE(%CVIK, ETT$$, 0, ETT$$, ON_SIZE);
      787    16070
      788    16071    3              CASE (%TYQ);
      789    16072    3                CALL Z8AF$FORME_ON_SIZE(%CVQI, ETT$$, 0, ETT$$, ON_SIZE);
      790    16073    3                CALL Z8AF$FORME_ON_SIZE(%CVIK, ETT$$, 0, ETT$$, ON_SIZE);
      791    16074
      792    16075    3              CASE (%TYR);
      793    16076    3                CALL Z8AF$FORME_ON_SIZE(%CVRI, ETT$$, 0, ETT$$, ON_SIZE);
      794    16077    3                CALL Z8AF$FORME_ON_SIZE(%CVIK, ETT$$, 0, ETT$$, ON_SIZE);
      795    16078
      796    16079    3              CASE (%TYA);
      797    16080    3                CALL Z8AF$FORME_ON_SIZE(%DAN, ETT$$, 0, ETT$$, ON_SIZE);
      798    16081    3                CALL Z8AF$FORME_ON_SIZE(%CVDI, ETT$$, 0, ETT$$, ON_SIZE);
PL6.E3A0      #001=Z8EV$CONVERT_ROUND_ON_SIZE File=Z8EV.:Z8A6TSI                 SAT 08/09/97 12:49 Page:26
      799    16082    3                CALL Z8AF$FORME_ON_SIZE(%CVIK, ETT$$, 0, ETT$$, ON_SIZE);
      800    16083
      801    16084    3              CASE (%TYE); /* Convert EBCDIC to 32 bit */
      802    16085    3                CALL Z8CO$CREATE_LIBRARY_BASE(%OP_EBCDIC_TO_ASCII, TABLE_ETT$);
      803    16086    3                CALL Z8AF$FORME_ON_SIZE(%CVT, ETT$$, TABLE_ETT$, ETT$$, ON_SIZE);
      804    16087    3                CALL Z8AF$FORME_ON_SIZE(%DAN, ETT$$, 0, ETT$$, ON_SIZE);
      805    16088    3                CALL Z8AF$FORME_ON_SIZE(%CVDI, ETT$$, 0, ETT$$, ON_SIZE);
      806    16089    3                CALL Z8AF$FORME_ON_SIZE(%CVIK, ETT$$, 0, ETT$$, ON_SIZE);
      807    16090
      808    16091    3              CASE (%TYB); /* Convert GBCD to 32 bit */
      809    16092    3                CALL Z8CO$CREATE_LIBRARY_BASE(%OP_GBCD_TO_ASCII, TABLE_ETT$);
      810    16093    3                CALL Z8AF$FORME_ON_SIZE(%CVT, ETT$$, TABLE_ETT$, ETT$$, ON_SIZE);
      811    16094    3                CALL Z8AF$FORME_ON_SIZE(%DAN, ETT$$, 0, ETT$$, ON_SIZE);
      812    16095    3                CALL Z8AF$FORME_ON_SIZE(%CVDI, ETT$$, 0, ETT$$, ON_SIZE);
      813    16096    3                CALL Z8AF$FORME_ON_SIZE(%CVIK, ETT$$, 0, ETT$$, ON_SIZE);
      814    16097
      815    16098    3              CASE (%TYX, %TYY);
      816    16099    3                CALL Z8AE$ERROR (%E$UNEXPECTED_CASE,
      817    16100    3                                 FROM$ -> LX_ETT_ITEM.LINE,
      818    16101    3                                 FROM$ -> LX_ETT_ITEM.COLUMN);
      819    16102
      820    16103    3              CASE(%TYT);
      821    16104    3                CALL Z8EC$CREATE_CONST(%TYK, FROM$, ETT$$)
      822    16105    3                  WHENALTRETURN
      823    16106    4                    DO;
      824    16107                           %CONDITIONAL_ERROR (@LX_ITEM$ = FROM$,
      825    16108                                               @ERROR#   = %E$TRUNCATION_WARN,
      826    16109                                               @LINE     = FROM$ -> LX_ITEM.LINE,
      827    16110                                               @COLUMN   = FROM$ -> LX_ITEM.COLUMN);
      828    16140    4                    END;
      829    16141
      830    16142    3            END;  /* CASE (%TYK) */
      831    16143        %EJECT;
PL6.E3A0      #001=Z8EV$CONVERT_ROUND_ON_SIZE File=Z8EV.:Z8A6TSI                 SAT 08/09/97 12:49 Page:27
      832    16144    2          CASE (%TYR);
      833    16145    3            DO CASE(FROM$ -> LX_ITEM.TYPE);
      834    16146    3              CASE (%TYD);
      835    16147    3                CALL Z8AF$FORME_ON_SIZE(%CVDRR, ETT$$, 0, ETT$$, ON_SIZE);
      836    16148
      837    16149    3              CASE (%TYI);
      838    16150    3                CALL Z8AF$FORME_ON_SIZE(%CVIR, ETT$$, 0, ETT$$, ON_SIZE);
      839    16151
      840    16152    3              CASE (%TYJ);
      841    16153    3                CALL Z8AF$FORME_ON_SIZE(%CVJI, ETT$$, 0, ETT$$, ON_SIZE);
      842    16154    3                CALL Z8AF$FORME_ON_SIZE(%CVIR, ETT$$, 0, ETT$$, ON_SIZE);
      843    16155
      844    16156    3              CASE (%TYK);
      845    16157    3                CALL Z8AF$FORME_ON_SIZE(%CVKI, ETT$$, 0, ETT$$, ON_SIZE);
      846    16158    3                CALL Z8AF$FORME_ON_SIZE(%CVIR, ETT$$, 0, ETT$$, ON_SIZE);
      847    16159
      848    16160    3              CASE (%TYH);
      849    16161    3                CALL Z8AF$FORME_ON_SIZE(%CVHI, ETT$$, 0, ETT$$, ON_SIZE);
      850    16162    3                CALL Z8AF$FORME_ON_SIZE(%CVIR, ETT$$, 0, ETT$$, ON_SIZE);
      851    16163
      852    16164    3              CASE (%TYO, %TYF); /* Convert overpunched or EBCDIC numeric to real */
      853    16165    3                CALL Z8AF$FORME_ON_SIZE(%CVOD4, ETT$$, 0, ETT$$, ON_SIZE);
      854    16166    3                CALL Z8AF$FORME_ON_SIZE(%CVDRR, ETT$$, 0, ETT$$, ON_SIZE);
      855    16167
      856    16168    3              CASE (%TYQ);
      857    16169    3                CALL Z8AF$FORME_ON_SIZE(%CVQR, ETT$$, 0, ETT$$, ON_SIZE);
      858    16170
      859    16171    3              CASE (%TYA);
      860    16172    3                CALL Z8AF$FORME_ON_SIZE(%DAN, ETT$$, 0, ETT$$, ON_SIZE);
      861    16173    3                CALL Z8AF$FORME_ON_SIZE(%CVDRR, ETT$$, 0, ETT$$, ON_SIZE);
      862    16174
      863    16175    3              CASE (%TYE); /* Convert EBCDIC to real */
      864    16176    3                CALL Z8CO$CREATE_LIBRARY_BASE(%OP_EBCDIC_TO_ASCII, TABLE_ETT$);
      865    16177    3                CALL Z8AF$FORME_ON_SIZE(%CVT, ETT$$, TABLE_ETT$, ETT$$, ON_SIZE);
      866    16178    3                CALL Z8AF$FORME_ON_SIZE(%DAN, ETT$$, 0, ETT$$, ON_SIZE);
      867    16179    3                CALL Z8AF$FORME_ON_SIZE(%CVDRR, ETT$$, 0, ETT$$, ON_SIZE);
      868    16180
PL6.E3A0      #001=Z8EV$CONVERT_ROUND_ON_SIZE File=Z8EV.:Z8A6TSI                 SAT 08/09/97 12:49 Page:28
      869    16181    3              CASE (%TYB); /* Convert GBCD numeric to real */
      870    16182    3                CALL Z8CO$CREATE_LIBRARY_BASE(%OP_GBCD_TO_ASCII, TABLE_ETT$);
      871    16183    3                CALL Z8AF$FORME_ON_SIZE(%CVT, ETT$$, TABLE_ETT$, ETT$$, ON_SIZE);
      872    16184    3                CALL Z8AF$FORME_ON_SIZE(%DAN, ETT$$, 0, ETT$$, ON_SIZE);
      873    16185    3                CALL Z8AF$FORME_ON_SIZE(%CVDRR, ETT$$, 0, ETT$$, ON_SIZE);
      874    16186
      875    16187    3              CASE (%TYX, %TYY);
      876    16188    3                CALL Z8AE$ERROR (%E$UNEXPECTED_CASE,
      877    16189    3                                 FROM$ -> LX_ETT_ITEM.LINE,
      878    16190    3                                 FROM$ -> LX_ETT_ITEM.COLUMN);
      879    16191
      880    16192    3              CASE(%TYT);
      881    16193    3                CALL Z8EC$CREATE_CONST(%TYR, FROM$, ETT$$)
      882    16194    3                  WHENALTRETURN
      883    16195    4                    DO;
      884    16196                           %CONDITIONAL_ERROR (@LX_ITEM$ = FROM$,
      885    16197                                               @ERROR#   = %E$TRUNCATION_WARN,
      886    16198                                               @LINE     = FROM$ -> LX_ITEM.LINE,
      887    16199                                               @COLUMN   = FROM$ -> LX_ITEM.COLUMN);
      888    16229    4                    END;
      889    16230
      890    16231    3            END /* Case (%TYR) */;
      891    16232        %EJECT;
PL6.E3A0      #001=Z8EV$CONVERT_ROUND_ON_SIZE File=Z8EV.:Z8A6TSI                 SAT 08/09/97 12:49 Page:29
      892    16233    2          CASE (%TYQ);
      893    16234    3            DO CASE(FROM$ -> LX_ITEM.TYPE);
      894    16235    3              CASE (%TYD);
      895    16236    3                CALL Z8AF$FORME_ON_SIZE(%CVDQR, ETT$$, 0, ETT$$, ON_SIZE);
      896    16237
      897    16238    3              CASE (%TYI);
      898    16239    3                CALL Z8AF$FORME_ON_SIZE(%CVIQ, ETT$$, 0, ETT$$, ON_SIZE);
      899    16240
      900    16241    3              CASE (%TYJ);
      901    16242    3                CALL Z8AF$FORME_ON_SIZE(%CVJI, ETT$$, 0, ETT$$, ON_SIZE);
      902    16243    3                CALL Z8AF$FORME_ON_SIZE(%CVIQ, ETT$$, 0, ETT$$, ON_SIZE);
      903    16244
      904    16245    3              CASE (%TYK);
      905    16246    3                CALL Z8AF$FORME_ON_SIZE(%CVKI, ETT$$, 0, ETT$$, ON_SIZE);
      906    16247    3                CALL Z8AF$FORME_ON_SIZE(%CVIQ, ETT$$, 0, ETT$$, ON_SIZE);
      907    16248
      908    16249    3              CASE (%TYH);
      909    16250    3                CALL Z8AF$FORME_ON_SIZE(%CVHI, ETT$$, 0, ETT$$, ON_SIZE);
      910    16251    3                CALL Z8AF$FORME_ON_SIZE(%CVIQ, ETT$$, 0, ETT$$, ON_SIZE);
      911    16252
      912    16253    3              CASE (%TYO, %TYF);
             16253                       /* Convert overpunched or EBCDIC numeric to double precision */
      913    16254    3                CALL Z8AF$FORME_ON_SIZE(%CVOD4, ETT$$, 0, ETT$$, ON_SIZE);
      914    16255    3                CALL Z8AF$FORME_ON_SIZE(%CVDQR, ETT$$, 0, ETT$$, ON_SIZE);
      915    16256
      916    16257    3              CASE (%TYR);
      917    16258    3                CALL Z8AF$FORME_ON_SIZE(%CVRQ, ETT$$, 0, ETT$$, ON_SIZE);
      918    16259
      919    16260    3              CASE (%TYA);
      920    16261    3                CALL Z8AF$FORME_ON_SIZE(%DAN, ETT$$, 0, ETT$$, ON_SIZE);
      921    16262    3                CALL Z8AF$FORME_ON_SIZE(%CVDQR, ETT$$, 0, ETT$$, ON_SIZE);
      922    16263
      923    16264    3              CASE (%TYE); /* Convert EBCDIC to double precision */
      924    16265    3                CALL Z8CO$CREATE_LIBRARY_BASE(%OP_EBCDIC_TO_ASCII, TABLE_ETT$);
      925    16266    3                CALL Z8AF$FORME_ON_SIZE(%CVT, ETT$$, TABLE_ETT$, ETT$$, ON_SIZE);
      926    16267    3                CALL Z8AF$FORME_ON_SIZE(%DAN, ETT$$, 0, ETT$$, ON_SIZE);
      927    16268    3                CALL Z8AF$FORME_ON_SIZE(%CVDQR, ETT$$, 0, ETT$$, ON_SIZE);
PL6.E3A0      #001=Z8EV$CONVERT_ROUND_ON_SIZE File=Z8EV.:Z8A6TSI                 SAT 08/09/97 12:49 Page:30
      928    16269
      929    16270    3              CASE (%TYB); /* Convert GBCD to double precision */
      930    16271    3                CALL Z8CO$CREATE_LIBRARY_BASE(%OP_GBCD_TO_ASCII, TABLE_ETT$);
      931    16272    3                CALL Z8AF$FORME_ON_SIZE(%CVT, ETT$$, TABLE_ETT$, ETT$$, ON_SIZE);
      932    16273    3                CALL Z8AF$FORME_ON_SIZE(%DAN, ETT$$, 0, ETT$$, ON_SIZE);
      933    16274    3                CALL Z8AF$FORME_ON_SIZE(%CVDQR, ETT$$, 0, ETT$$, ON_SIZE);
      934    16275
      935    16276    3              CASE (%TYX, %TYY);
      936    16277    3                CALL Z8AE$ERROR (%E$UNEXPECTED_CASE,
      937    16278    3                                 FROM$ -> LX_ETT_ITEM.LINE,
      938    16279    3                                 FROM$ -> LX_ETT_ITEM.COLUMN);
      939    16280
      940    16281    3              CASE(%TYT);
      941    16282    3                CALL Z8EC$CREATE_CONST(%TYQ, FROM$, ETT$$)
      942    16283    3                  WHENALTRETURN
      943    16284    4                    DO;
      944    16285                           %CONDITIONAL_ERROR (@LX_ITEM$ = FROM$,
      945    16286                                               @ERROR#   = %E$TRUNCATION_WARN,
      946    16287                                               @LINE     = FROM$ -> LX_ITEM.LINE,
      947    16288                                               @COLUMN   = FROM$ -> LX_ITEM.COLUMN);
      948    16318    4                    END;
      949    16319    3            END /* Case (%TYQ) */;
      950    16320
      951    16321        %EJECT;
PL6.E3A0      #001=Z8EV$CONVERT_ROUND_ON_SIZE File=Z8EV.:Z8A6TSI                 SAT 08/09/97 12:49 Page:31
      952    16322    2          CASE (%TYN);
      953    16323    3            DO CASE (FROM$ -> LX_ITEM.TYPE);
      954    16324    3              CASE (%TYT);
      955    16325    3                CALL Z8EC$CREATE_CONST(%TYN, FROM$, ETT$$);
      956    16326
      957    16327    3                IF FROM$ -> LX_TERMINAL.B.ALL THEN
      958    16328    3                  ALL = TRUE;
      959    16329    3                ELSE
      960    16330    4                  DO CASE (FROM$ -> LX_TERMINAL.SYMBOL);
      961    16331    4                    CASE (%RSV_WRD_HIGH_VALUES, %RSV_WRD_LOW_VALUES,
      962    16332    4                          %RSV_WRD_QUOTES,      %RSV_WRD_SPACES,
      963    16333    4                          %RSV_WRD_ZEROES);
      964    16334    4                      ALL = TRUE;
      965    16335
      966    16336    4                    CASE (ELSE);
      967    16337    4                      /* No all */;
      968    16338    4                  END;
      969    16339
      970    16340    3              CASE (%TYN);
      971    16341    3                ALL = FROM$ -> LX_ETT_ITEM.B.ALL;
      972    16342
      973    16343    3              CASE (ELSE);
      974    16344    3                CALL Z8AE$ERROR (%E$MIXING_TYN_WITH_TYA,
      975    16345    3                                 FROM$ -> LX_ETT_ITEM.LINE,
      976    16346    3                                 FROM$ -> LX_ETT_ITEM.COLUMN);
      977    16347    3            END /* Case (%TYN) */;
      978    16348        %EJECT;
PL6.E3A0      #001=Z8EV$CONVERT_ROUND_ON_SIZE File=Z8EV.:Z8A6TSI                 SAT 08/09/97 12:49 Page:32
      979    16349    2            CASE(ELSE);
      980    16350    2              CALL Z8AE$ERROR(%E$UNEXPECTED_CASE);
      981    16351
      982    16352
      983    16353    2        END /* case (TYPE) */;
      984    16354
      985    16355
      986    16356    1        RETURN$ -> LX_ETT_ITEM = FROM$ -> LX_ETT_ITEM;
      987    16357
      988    16358    1        IF RETURN$ = FROM$$ THEN
      989    16359    2          DO;
      990    16360    2            RETURN$ -> LX_ETT_ITEM.ID = %LX_ETT_ITEM;
      991    16361    2            RETURN$ -> LX_ETT_ITEM.TYPE = TYPE;
      992    16362    2            RETURN$ -> LX_ETT_ITEM.ETT$ = ETT$$;
      993    16363    2            RETURN$ -> LX_ETT_ITEM.B.ALL = ALL;
      994    16364    2          END;
      995    16365    1        ELSE
      996    16366               %INIT_LX_ETT_ITEM (@POINTER = RETURN$,
      997    16367                                  @TYPE    = TYPE,
      998    16368                                  @ETT$    = ETT$$,
      999    16369                                  @ALL     = ALL);
     1000    16391
     1001    16392    1   END Z8EV$CONVERT_ROUND_ON_SIZE;
     1002    16393        %EOD;

PL6.E3A0      #001=Z8EV$CONVERT_ROUND_ON_SIZE File=Z8EV.:Z8A6TSI                 SAT 08/09/97 12:49 Page:33
--  Include file information  --

   Z8A_ERR_NUMS.:Z8A6TOU  is referenced.
   Z8A_MKCN.:Z8A6TOU  cannot be made into a system file and is referenced.
   Z8E_O1COM.:Z8A6TOU  cannot be made into a system file and is referenced.
   Z8E_TABLES.:Z8A6TOU  cannot be made into a system file and is referenced.
   Z8A_LEX_SYMB.:Z8A6TOU  cannot be made into a system file and is referenced.
   Z8E_STACKS.:Z8A6TOU  cannot be made into a system file and is referenced.
   Z8E_NEW_ILL.:Z8A6TOU  is referenced.
   Z8E_MACROS.:Z8A6TOU  cannot be made into a system file and is referenced.
   Z8E_WINDOW.:Z8A6TOU  is referenced.
   Z8E_HEAP.:Z8A6TOU  cannot be made into a system file and is referenced.
   Z8A_COMCOM.:Z8A6TOU  cannot be made into a system file and is referenced.
   Z8A_DESC.:Z8A6TOU  cannot be made into a system file and is referenced.
   Z8A_SRCH.:Z8A6TOU  cannot be made into a system file and is referenced.
   Z8A_TYPES.:Z8A6TOU  is referenced.
   Z8A_LIBRARY.:Z8A6TOU  cannot be made into a system file and is referenced.
   Z8A_DNT.:Z8A6TOU  cannot be made into a system file and is referenced.
   Z8A_ST.:Z8A6TOU  cannot be made into a system file and is referenced.
   Z8A_ETT.:Z8A6TOU  cannot be made into a system file and is referenced.
   X8A_COM_MACS.:X8A6TOU  is referenced.
   Z8A_NAMES.:Z8A6TOU  is referenced.
   Z8A_SUPP_MAC.:Z8A6TOU  is referenced.
   Z8A_DEFC.:Z8A6TOU  cannot be made into a system file and is referenced.
      No diagnostics issued in procedure Z8EV$CONVERT_ROUND_ON_SIZE.

   Procedure Z8EV$CONVERT_ROUND_ON_SIZE requires 5754 words for executable code.
   Procedure Z8EV$CONVERT_ROUND_ON_SIZE requires 72 words of local(AUTO) storage.

PL6.E3A0      #001=Z8EV$CONVERT_ROUND_ON_SIZE File=Z8EV.:Z8A6TSI                 SAT 08/09/97 12:49 Page:34

 Object Unit name= Z8EV$CONVERT_ROUND_ON_SIZE                 File name= Z8EV.:Z8A6TOU
 UTS= AUG 09 '97 12:49:32.36 SAT                              Compiler= PL-6/E31         Sev=      00
 SharedLib= :SHARED_SYSTEM                                    Alt SharedLib=


    ****  Control sections  ****

 Sect   Type Bound  Init  Size OctSiz  Section name(segment info)
    0  LblCom even  none     1      1  ITERATION
    1  LblCom even  none     1      1  ETT$
    2  LblCom even  none     1      1  HEAD_ETT$
    3  LblCom even  none   512   1000  ETT_BUCKETS
    4  LblCom even  none     5      5  ETT_
    5  LblCom even  none     1      1  ST$
    6  LblCom even  none     5      5  ST_
    7  LblCom even  none     1      1  DNT$
    8  LblCom even  none     5      5  DNT_
    9  LblCom even  none     1      1  DNT_BUCKET_NUMBER
   10  LblCom even  none     1      1  DNT_OF_1$
   11  LblCom even  none     3      3  SRCH
   12  LblCom even  none     1      1  HEAP$
   13  LblCom even  none    90    132  LEX_SYMBOL
   14  LblCom even  none     1      1  CURRENT_LEX_SYMBOL$
   15  LblCom even  none    90    132  TEMP_LEX_SYMBOL
   16  LblCom even  none    90    132  TEMP_LEX_SYMBOL2
   17  LblCom even  none     2      2  MKCN
   18  RoData even  UTS      1      1  Z8EV$CONVERT_ROUND_ON_SIZE
   19   Proc  even  none  5754  13172  Z8EV$CONVERT_ROUND_ON_SIZE
   20  RoData even  none   102    146  Z8EV$CONVERT_ROUND_ON_SIZE
PL6.E3A0      #001=Z8EV$CONVERT_ROUND_ON_SIZE File=Z8EV.:Z8A6TSI                 SAT 08/09/97 12:49 Page:35

    ****  Entry defs  ****

                              Check   Calling
                             calling  sequence
  Sect OctLoc Primary Altret sequence   type   Parms  Name
    19      0   yes            yes      Std        6  Z8EV$CONVERT_ROUND_ON_SIZE
    19    371                  yes      Std        4  Z8EV$CONVERT_ON_SIZE
    19    401                  yes      Std        3  Z8EV$CONVERT

  ****  Entry refs  ****

         Check        Calling
        calling       sequence
Altret sequence SRef   type   Args  Name
         yes           Std       2 Z8CO$CREATE_LIBRARY_BASE
         yes           Std       0 Z8AH$SEARCH_
         yes           Std       5 Z8AF$FORME_ON_SIZE
         yes           Std      12 Z8AE$ERROR
         yes           Std       2 Z8AU$TYPE_DESCRIPTOR
         yes           Std       2 Z8EV$WORD_TO_BYTE_UNITS
 yes     yes           Std       3 Z8EC$CREATE_CONST
         yes           Std       1 Z8AC$MAKE_CONST
         yes           Std       3 Z8AF$NEW_OFF
         yes           Std       4 Z8AF$NEW_FISS
                       nStd      0 X66_AUTO_N
                       nStd      0 X66_ARET
PL6.E3A0      #001=Z8EV$CONVERT_ROUND_ON_SIZE File=Z8EV.:Z8A6TSI                 SAT 08/09/97 12:49 Page:36

  ****  Data refs  ****

  Flags:  r = read only, s = secondary
Flgs Name                             Flgs Name                             Flgs Name
     COMCOM                           r    USERWORD_SCAN_TABLE              r    ANSI_USERWORD_SCAN_TABLE
r    ASCII_SEARCH_TABLE               r    BLANK_SCAN_TABLE                 r    DIGIT_SCAN_TABLE
r    LETTER_SEARCH_TABLE              r    DOUBLE_QUOTE_SEARCH_TABLE        r    SINGLE_QUOTE_SEARCH_TABLE
r    DBL_QUOTE_PSEUDO_SEARCH_TABLE    r    SNGL_QUOTE_PSEUDO_SEARCH_TABLE   r    SEPARATORS_TABLE
r    LOWER_TO_UPPER_CASE              r    CURRENCY_SIGN_CHARS                   O1COM
     HIER_STK_PTR                          HIER_STK                              PAGE_FORMAT
     REP_STK_PTR                           REP_STK

  ****  Segment refs  ****

  Flags:  r = read only, s = secondary
Flgs Name                             Flgs Name                             Flgs Name
     NULLSID                               ISSID
PL6.E3A0      #001=Z8EV$CONVERT_ROUND_ON_SIZE File=Z8EV.:Z8A6TSI                 SAT 08/09/97 12:49 Page:37


        1        1        /*T***********************************************************/
        2        2        /*T*                                                         */
        3        3        /*T* Copyright (c) Bull HN Information Systems Inc., 1997    */
        4        4        /*T*                                                         */
        5        5        /*T***********************************************************/
        6        6        Z8EV$CONVERT_ROUND_ON_SIZE: PROC (TYPE, FROM$$, RETURN$, ON_SIZE_FLAG, ROUND_FLAG,
                 6            DEST_DESC);

      6 19 000000   000000 700200 xent  Z8EV$CONVER* TSX0  ! X66_AUTO_N
        19 000001   000110 000006                    ZERO    72,6
        19 000002   000360 710000 19                 TRA     s:15297

        7        7
        8        8             %EQU PHASE = 1;
        9        9             %EQU TYK_TO_TYD_LENGTH = 11;
       10       10             %EQU TYJ_TO_TYD_LENGTH = 6;
       11       11             %EQU TYX_TO_TYI_LENGTH = 4;
       12       12             %EQU TYY_TO_TYK_LENGTH = 4;
       13       13             %EQU TYY_TO_TYJ_LENGTH = 2;
       14       14
       15       15             %INCLUDE Z8A_DEFC;
       16       83             %INCLUDE Z8A_SUPP_MAC;
       17     2483             %INCLUDE Z8A_ETT;
       18     2784             %INCLUDE Z8A_ST;
       19     6443             %INCLUDE Z8A_DNT;
       20     6664             %INCLUDE Z8A_LIBRARY;
       21     6878             %INCLUDE Z8A_TYPES;
       22     7052             %INCLUDE Z8A_SRCH;
       23     7101             %INCLUDE Z8A_DESC;
       24     7147             %INCLUDE Z8A_COMCOM;
       25     7797             %INCLUDE Z8E_HEAP;
       26     7853             %INCLUDE Z8E_WINDOW;
       27     9923             %INCLUDE Z8E_MACROS;
       28    10598             %INCLUDE Z8E_STACKS;
       29    12864             %INCLUDE Z8E_TABLES;
       30    13417             %INCLUDE Z8E_O1COM;
PL6.E3A0      #001=Z8EV$CONVERT_ROUND_ON_SIZE File=Z8EV.:Z8A6TSI                 SAT 08/09/97 12:49 Page:38
       31    14178             %INCLUDE Z8A_MKCN;
       32    14195             %INCLUDE Z8A_ERR_NUMS;
       33    14959
       34    14960    1        DCL   TYPE            SBIN WORD;
       35    14961    1        DCL   FROM$$          PTR;
       36    14962    1        DCL   RETURN$         PTR;
       37    14963    1        DCL   DEST_DESC       BIT(36) ALIGNED;
       38    14964    1        DCL   ETT$$           PTR;
       39    14965    1        DCL   TABLE_ETT$      PTR;
       40    14966    1        DCL   FROM$           PTR;
       41    14967
       42    14968    1        DCL   LOP$            PTR;
       43    14969    1        DCL   ROP$            PTR;
       44    14970
       45    14971    1        DCL   I      SBIN WORD;
       46    14972    1        DCL   N      SBIN WORD;
       47    14973    1        DCL   ALL    BIT (1) ALIGNED;
       48    14974    1        DCL   ON_SIZE BIT(1) ALIGNED;
       49    14975    1        DCL   ON_SIZE_FLAG       BIT (1) ALIGNED;
       50    14976    1        DCL   ROUND  BIT(1) ALIGNED;
       51    14977    1        DCL   ROUND_FLAG BIT(1) ALIGNED;
       52    14978
       53    14979    1        DCL 1 TYPE_DESC ALIGNED,
       54    14980                   %TYPE_DESC;
       55    15014
       56    15015    1        DCL   Z8AE$ERROR  ENTRY (12);
       57    15016    1        DCL   Z8AF$FORME_ON_SIZE  ENTRY (5);
       58    15017    1        DCL   Z8CO$CREATE_LIBRARY_BASE ENTRY(2);
       59    15018    1        DCL   Z8EV$WORD_TO_BYTE_UNITS ENTRY(2);
       60    15019    1        DCL   Z8AF$NEW_OFF         ENTRY(3);
       61    15020    1        DCL   Z8AF$NEW_FISS        ENTRY(4);
       62    15021    1        DCL   Z8AH$SEARCH_         ENTRY ;
       63    15022    1        DCL   Z8AU$TYPE_DESCRIPTOR ENTRY(2);
       64    15023    1        DCL   Z8EC$CREATE_CONST ENTRY(3) ALTRET;
       65    15024    1        DCL   Z8AC$MAKE_CONST ENTRY (1);
       66    15025
       67    15026    1        DCL   1 ROPCON ALIGNED,
PL6.E3A0      #001=Z8EV$CONVERT_ROUND_ON_SIZE File=Z8EV.:Z8A6TSI                 SAT 08/09/97 12:49 Page:39
       68    15027    1                 2 DESC,
       69    15028                        %DESCRIPTOR (LVL = 3, ENDING = YES);
       70    15056             %DCL_AUTO_LX_ITEM(@NAME = TEMP_LX_ITEM);
       71    15060             %DCL_AUTO_LX_ITEM(@NAME = TEMP_LX_ITEM1);
       72    15064
       73    15065             %EJECT;
PL6.E3A0      #001=Z8EV$CONVERT_ROUND_ON_SIZE File=Z8EV.:Z8A6TSI                 SAT 08/09/97 12:49 Page:40
       74    15066    1   TYD_TO_TYA: PROC (ETT$$);

  15066 19 000003   200072 741300       TYD_TO_TYA   STX1  ! TEMP_LX_ITEM1+8,,AUTO

       75    15067
       76    15068    2   DCL ETT$$              PTR;
       77    15069    2   DCL 1 TYPE_DESC        ALIGNED,
       78    15070             %TYPE_DESC;
       79    15104
       80    15105    2   DCL 1 ROPCON           ALIGNED,
       81    15106              %DESCRIPTOR      (LVL = 2, ENDING = YES);
       82    15134
       83    15135
       84    15136    2      CALL Z8AU$TYPE_DESCRIPTOR(ETT$$, TYPE_DESC);

  15136 19 000004   200074 630500                    EPPR0   TYPE_DESC,,AUTO
        19 000005   200103 450500                    STP0    ROPCON+3,,AUTO
        19 000006   200073 236100                    LDQ     @ETT$$,,AUTO
        19 000007   200102 756100                    STQ     ROPCON+2,,AUTO
        19 000010   200102 630500                    EPPR0   ROPCON+2,,AUTO
        19 000011   000000 631400 20                 EPPR1   0
        19 000012   000000 701000 xent               TSX1    Z8AU$TYPE_DESCRIPTOR
        19 000013   000000 011000                    NOP     0

       85    15137
       86    15138           %UNPACK_NDSC ( @DESC    = TYPE_DESC.DESC ,
       87    15139                          @TN      = TN ,
       88    15140                          @SCALE   = SCALE,
       89    15141                          @SIGN    = SIGN,
       90    15142                          @LENGTH  = LENGTH );

  15149 19 000014   200075 236100                    LDQ     TYPE_DESC+1,,AUTO
        19 000015   000014 772000                    QRL     12
        19 000016   000003 376007                    ANQ     3,DL
        19 000017   000004 116007                    CMPQ    4,DL
        19 000020   000022 602006 19                 TNC     s:15149+6,QL
        19 000021   000053 710000 19                 TRA     s:15186
PL6.E3A0      #001=Z8EV$CONVERT_ROUND_ON_SIZE File=Z8EV.:Z8A6TSI                 SAT 08/09/97 12:49 Page:41
        19 000022   000037 710000 19                 TRA     s:15173
        19 000023   000032 710000 19                 TRA     s:15156
        19 000024   000032 710000 19                 TRA     s:15156
        19 000025   000026 710000 19                 TRA     s:15151

  15151 19 000026   200075 236100                    LDQ     TYPE_DESC+1,,AUTO
        19 000027   000077 376007                    ANQ     63,DL
        19 000030   200027 756100                    STQ     LENGTH,,AUTO
        19 000031   000053 710000 19                 TRA     s:15186

  15156 19 000032   200075 236100                    LDQ     TYPE_DESC+1,,AUTO
        19 000033   000077 376007                    ANQ     63,DL
        19 000034   000001 136007                    SBLQ    1,DL
        19 000035   200027 756100                    STQ     LENGTH,,AUTO
        19 000036   000053 710000 19                 TRA     s:15186

  15173 19 000037   200075 236100                    LDQ     TYPE_DESC+1,,AUTO
        19 000040   040000 316007                    CANQ    16384,DL
        19 000041   000047 600000 19                 TZE     s:15176

  15174 19 000042   200075 236100                    LDQ     TYPE_DESC+1,,AUTO
        19 000043   000077 376007                    ANQ     63,DL
        19 000044   000003 136007                    SBLQ    3,DL
        19 000045   200027 756100                    STQ     LENGTH,,AUTO
        19 000046   000053 710000 19                 TRA     s:15186

  15176 19 000047   200075 236100                    LDQ     TYPE_DESC+1,,AUTO
        19 000050   000077 376007                    ANQ     63,DL
        19 000051   000002 136007                    SBLQ    2,DL
        19 000052   200027 756100                    STQ     LENGTH,,AUTO

  15186 19 000053   200075 236100                    LDQ     TYPE_DESC+1,,AUTO
        19 000054   000025 736000                    QLS     21
        19 000055   400000 376003                    ANQ     -131072,DU
        19 000056   200024 756100                    STQ     TN,,AUTO

  15189 19 000057   200075 236100                    LDQ     TYPE_DESC+1,,AUTO
PL6.E3A0      #001=Z8EV$CONVERT_ROUND_ON_SIZE File=Z8EV.:Z8A6TSI                 SAT 08/09/97 12:49 Page:42
        19 000060   000030 736000                    QLS     24
        19 000061   000036 732000                    QRS     30
        19 000062   200026 756100                    STQ     SCALE,,AUTO

  15192 19 000063   200075 236100                    LDQ     TYPE_DESC+1,,AUTO
        19 000064   000026 736000                    QLS     22
        19 000065   600000 376003                    ANQ     -65536,DU
        19 000066   200023 756100                    STQ     SIGN,,AUTO

       91    15197
       92    15198    2      ROPCON = TYPE_DESC.DESC;

  15198 19 000067   200075 236100                    LDQ     TYPE_DESC+1,,AUTO
        19 000070   200100 756100                    STQ     ROPCON,,AUTO

       93    15199
       94    15200           /* ----------------------------------------------------- */
       95    15201           /* Latest Cobol-85 standard -- PIC 9P(17) -- Length = 18 */
       96    15202           /* ----------------------------------------------------- */
       97    15203    2          IF SCALE > 0

  15203 19 000071   200026 235100                    LDA     SCALE,,AUTO
        19 000072   000076 605400 19                 TPNZ    s:15206
        19 000073   200026 336100                    LCQ     SCALE,,AUTO
        19 000074   200027 116100                    CMPQ    LENGTH,,AUTO
        19 000075   000163 604400 19                 TMOZ    s:15270

       98    15204    2          OR - SCALE > LENGTH THEN
       99    15205    3            DO;

      100    15206    3              IF SCALE > 0 THEN

  15206 19 000076   000000 115003                    CMPA    0,DU
        19 000077   000104 604400 19                 TMOZ    s:15209

      101    15207    3                LENGTH = LENGTH + SCALE;

PL6.E3A0      #001=Z8EV$CONVERT_ROUND_ON_SIZE File=Z8EV.:Z8A6TSI                 SAT 08/09/97 12:49 Page:43
  15207 19 000100   200027 236100                    LDQ     LENGTH,,AUTO
        19 000101   200026 036100                    ADLQ    SCALE,,AUTO
        19 000102   200027 756100                    STQ     LENGTH,,AUTO
        19 000103   000106 710000 19                 TRA     s:15220

      102    15208    3              ELSE
      103    15209    3                LENGTH = - SCALE;

  15209 19 000104   000000 531000                    NEG     0
        19 000105   200027 755100                    STA     LENGTH,,AUTO

      104    15210
      105    15211                   %PACK_NDSC (@DESC   = ROPCON,
      106    15212                               @LENGTH = LENGTH,
      107    15213                               @SCALE  = 0,
      108    15214                               @SIGN   = SIGN,
      109    15215                               @TN     = %NDSC9);

  15220 19 000106   000000 220003                    LDX0    0,DU
        19 000107   200100 740100                    STX0    ROPCON,,AUTO

  15221 19 000110   000001 236000 20                 LDQ     1
        19 000111   200100 356100                    ANSQ    ROPCON,,AUTO

  15222 19 000112   000002 236000 20                 LDQ     2
        19 000113   200100 356100                    ANSQ    ROPCON,,AUTO

  15223 19 000114   200023 236100                    LDQ     SIGN,,AUTO
        19 000115   000026 772000                    QRL     22
        19 000116   200100 676100                    ERQ     ROPCON,,AUTO
        19 000117   030000 376007                    ANQ     12288,DL
        19 000120   200100 656100                    ERSQ    ROPCON,,AUTO

  15224 19 000121   000000 236003                    LDQ     0,DU
        19 000122   200100 752102                    STCQ    ROPCON,'02'O,AUTO

  15225 19 000123   200023 236100                    LDQ     SIGN,,AUTO
PL6.E3A0      #001=Z8EV$CONVERT_ROUND_ON_SIZE File=Z8EV.:Z8A6TSI                 SAT 08/09/97 12:49 Page:44
        19 000124   000042 772000                    QRL     34
        19 000125   000004 116007                    CMPQ    4,DL
        19 000126   000130 602006 19                 TNC     s:15225+5,QL
        19 000127   000146 710000 19                 TRA     s:15265
        19 000130   000143 710000 19                 TRA     s:15256
        19 000131   000137 710000 19                 TRA     s:15232
        19 000132   000137 710000 19                 TRA     s:15232
        19 000133   000134 710000 19                 TRA     s:15227

  15227 19 000134   200027 236100                    LDQ     LENGTH,,AUTO
        19 000135   200100 752101                    STCQ    ROPCON,'01'O,AUTO
        19 000136   000146 710000 19                 TRA     s:15265

  15232 19 000137   200027 236100                    LDQ     LENGTH,,AUTO
        19 000140   000001 036007                    ADLQ    1,DL
        19 000141   200100 752101                    STCQ    ROPCON,'01'O,AUTO
        19 000142   000146 710000 19                 TRA     s:15265

  15256 19 000143   200027 236100                    LDQ     LENGTH,,AUTO
        19 000144   000002 036007                    ADLQ    2,DL
        19 000145   200100 752101                    STCQ    ROPCON,'01'O,AUTO

      110    15264
      111    15265    3              TN = %NDSC9;

  15265 19 000146   200024 450100                    STZ     TN,,AUTO

      112    15266
      113    15267    3              CALL Z8AF$FORME_ON_SIZE (%CV49, ETT$$, ROPCON, ETT$$, ON_SIZE);

  15267 19 000147   200042 630500                    EPPR0   ON_SIZE,,AUTO
        19 000150   200106 450500                    STP0    ROPCON+6,,AUTO
        19 000151   200073 236100                    LDQ     @ETT$$,,AUTO
        19 000152   200105 756100                    STQ     ROPCON+5,,AUTO
        19 000153   200100 631500                    EPPR1   ROPCON,,AUTO
        19 000154   200104 451500                    STP1    ROPCON+4,,AUTO
        19 000155   000005 235000 20                 LDA     5
PL6.E3A0      #001=Z8EV$CONVERT_ROUND_ON_SIZE File=Z8EV.:Z8A6TSI                 SAT 08/09/97 12:49 Page:45
        19 000156   200102 757100                    STAQ    ROPCON+2,,AUTO
        19 000157   200102 630500                    EPPR0   ROPCON+2,,AUTO
        19 000160   000003 631400 20                 EPPR1   3
        19 000161   000000 701000 xent               TSX1    Z8AF$FORME_ON_SIZE
        19 000162   000000 011000                    NOP     0

      114    15268    3            END;

      115    15269
      116    15270    2      IF TN = %NDSC4 THEN

  15270 19 000163   200024 234100                    SZN     TN,,AUTO
        19 000164   000201 605000 19                 TPL     s:15273

      117    15271    2        CALL Z8AF$FORME_ON_SIZE(%CV49, ETT$$, 0, ETT$$, ON_SIZE);

  15271 19 000165   200042 630500                    EPPR0   ON_SIZE,,AUTO
        19 000166   200106 450500                    STP0    ROPCON+6,,AUTO
        19 000167   200073 236100                    LDQ     @ETT$$,,AUTO
        19 000170   000007 235000 20                 LDA     7
        19 000171   200104 757100                    STAQ    ROPCON+4,,AUTO
        19 000172   200073 236100                    LDQ     @ETT$$,,AUTO
        19 000173   000005 235000 20                 LDA     5
        19 000174   200102 757100                    STAQ    ROPCON+2,,AUTO
        19 000175   200102 630500                    EPPR0   ROPCON+2,,AUTO
        19 000176   000003 631400 20                 EPPR1   3
        19 000177   000000 701000 xent               TSX1    Z8AF$FORME_ON_SIZE
        19 000200   000000 011000                    NOP     0

      118    15272
      119    15273    3      DO SELECT(TYPE_DESC.DESC.NDSC.S);

  15273 19 000201   200075 236100                    LDQ     TYPE_DESC+1,,AUTO
        19 000202   030000 376007                    ANQ     12288,DL
        19 000203   020000 116007                    CMPQ    8192,DL
        19 000204   000216 602000 19                 TNC     s:15273+13
        19 000205   200075 236100                    LDQ     TYPE_DESC+1,,AUTO
PL6.E3A0      #001=Z8EV$CONVERT_ROUND_ON_SIZE File=Z8EV.:Z8A6TSI                 SAT 08/09/97 12:49 Page:46
        19 000206   030000 376007                    ANQ     12288,DL
        19 000207   020000 116007                    CMPQ    8192,DL
        19 000210   000252 600000 19                 TZE     s:15278
        19 000211   200075 236100                    LDQ     TYPE_DESC+1,,AUTO
        19 000212   030000 376007                    ANQ     12288,DL
        19 000213   030000 116007                    CMPQ    12288,DL
        19 000214   000356 601000 19                 TNZ     s:15293
        19 000215   000235 710000 19                 TRA     s:15275
        19 000216   200075 236100                    LDQ     TYPE_DESC+1,,AUTO
        19 000217   030000 376007                    ANQ     12288,DL
        19 000220   010000 116007                    CMPQ    4096,DL
        19 000221   000227 602000 19                 TNC     s:15273+22
        19 000222   200075 236100                    LDQ     TYPE_DESC+1,,AUTO
        19 000223   030000 376007                    ANQ     12288,DL
        19 000224   010000 116007                    CMPQ    4096,DL
        19 000225   000302 600000 19                 TZE     s:15282
        19 000226   000356 710000 19                 TRA     s:15293
        19 000227   200075 236100                    LDQ     TYPE_DESC+1,,AUTO
        19 000230   030000 376007                    ANQ     12288,DL
        19 000231   000000 116003                    CMPQ    0,DU
        19 000232   000343 602000 19                 TNC     s:15287
        19 000233   000343 600000 19                 TZE     s:15287
        19 000234   000356 710000 19                 TRA     s:15293

      120    15274    3        SELECT (%NO_SIGN);

      121    15275    3          CALL Z8AF$FORME_ON_SIZE(%DNA, ETT$$, 0, ETT$$, ON_SIZE);

  15275 19 000235   200042 630500                    EPPR0   ON_SIZE,,AUTO
        19 000236   200106 450500                    STP0    ROPCON+6,,AUTO
        19 000237   200073 236100                    LDQ     @ETT$$,,AUTO
        19 000240   000007 235000 20                 LDA     7
        19 000241   200104 757100                    STAQ    ROPCON+4,,AUTO
        19 000242   200073 236100                    LDQ     @ETT$$,,AUTO
        19 000243   000011 235000 20                 LDA     9
        19 000244   200102 757100                    STAQ    ROPCON+2,,AUTO
        19 000245   200102 630500                    EPPR0   ROPCON+2,,AUTO
PL6.E3A0      #001=Z8EV$CONVERT_ROUND_ON_SIZE File=Z8EV.:Z8A6TSI                 SAT 08/09/97 12:49 Page:47
        19 000246   000003 631400 20                 EPPR1   3
        19 000247   000000 701000 xent               TSX1    Z8AF$FORME_ON_SIZE
        19 000250   000000 011000                    NOP     0
        19 000251   000356 710000 19                 TRA     s:15293

      122    15276
      123    15277    3        SELECT (%TRAILING_SIGN);

      124    15278    3          CALL Z8AF$FORME_ON_SIZE (%DNA, ETT$$, 0, ETT$$, ON_SIZE);

  15278 19 000252   200042 630500                    EPPR0   ON_SIZE,,AUTO
        19 000253   200106 450500                    STP0    ROPCON+6,,AUTO
        19 000254   200073 236100                    LDQ     @ETT$$,,AUTO
        19 000255   000007 235000 20                 LDA     7
        19 000256   200104 757100                    STAQ    ROPCON+4,,AUTO
        19 000257   200073 236100                    LDQ     @ETT$$,,AUTO
        19 000260   000011 235000 20                 LDA     9
        19 000261   200102 757100                    STAQ    ROPCON+2,,AUTO
        19 000262   200102 630500                    EPPR0   ROPCON+2,,AUTO
        19 000263   000003 631400 20                 EPPR1   3
        19 000264   000000 701000 xent               TSX1    Z8AF$FORME_ON_SIZE
        19 000265   000000 011000                    NOP     0

      125    15279    3          CALL Z8AF$NEW_FISS (ETT$$, LENGTH, %ALPHA_NUMERIC_FISS, ETT$$);

  15279 19 000266   200073 236100                    LDQ     @ETT$$,,AUTO
        19 000267   000007 235000 20                 LDA     7
        19 000270   200104 757100                    STAQ    ROPCON+4,,AUTO
        19 000271   200027 630500                    EPPR0   LENGTH,,AUTO
        19 000272   200103 450500                    STP0    ROPCON+3,,AUTO
        19 000273   200073 236100                    LDQ     @ETT$$,,AUTO
        19 000274   200102 756100                    STQ     ROPCON+2,,AUTO
        19 000275   200102 630500                    EPPR0   ROPCON+2,,AUTO
        19 000276   000012 631400 20                 EPPR1   10
        19 000277   000000 701000 xent               TSX1    Z8AF$NEW_FISS
        19 000300   000000 011000                    NOP     0
        19 000301   000356 710000 19                 TRA     s:15293
PL6.E3A0      #001=Z8EV$CONVERT_ROUND_ON_SIZE File=Z8EV.:Z8A6TSI                 SAT 08/09/97 12:49 Page:48

      126    15280
      127    15281    3        SELECT (%LEADING_SIGN);

      128    15282    3          CALL Z8AF$FORME_ON_SIZE (%DNA, ETT$$, 0, ETT$$, ON_SIZE);

  15282 19 000302   200042 630500                    EPPR0   ON_SIZE,,AUTO
        19 000303   200106 450500                    STP0    ROPCON+6,,AUTO
        19 000304   200073 236100                    LDQ     @ETT$$,,AUTO
        19 000305   000007 235000 20                 LDA     7
        19 000306   200104 757100                    STAQ    ROPCON+4,,AUTO
        19 000307   200073 236100                    LDQ     @ETT$$,,AUTO
        19 000310   000011 235000 20                 LDA     9
        19 000311   200102 757100                    STAQ    ROPCON+2,,AUTO
        19 000312   200102 630500                    EPPR0   ROPCON+2,,AUTO
        19 000313   000003 631400 20                 EPPR1   3
        19 000314   000000 701000 xent               TSX1    Z8AF$FORME_ON_SIZE
        19 000315   000000 011000                    NOP     0

      129    15283    3          CALL Z8AF$NEW_OFF (ETT$$, 1, ETT$$);

  15283 19 000316   200073 236100                    LDQ     @ETT$$,,AUTO
        19 000317   200104 756100                    STQ     ROPCON+4,,AUTO
        19 000320   000015 236000 20                 LDQ     13
        19 000321   200073 235100                    LDA     @ETT$$,,AUTO
        19 000322   200102 757100                    STAQ    ROPCON+2,,AUTO
        19 000323   200102 630500                    EPPR0   ROPCON+2,,AUTO
        19 000324   000013 631400 20                 EPPR1   11
        19 000325   000000 701000 xent               TSX1    Z8AF$NEW_OFF
        19 000326   000000 011000                    NOP     0

      130    15284    3          CALL Z8AF$NEW_FISS (ETT$$, LENGTH, %ALPHA_NUMERIC_FISS, ETT$$);

  15284 19 000327   200073 236100                    LDQ     @ETT$$,,AUTO
        19 000330   000007 235000 20                 LDA     7
        19 000331   200104 757100                    STAQ    ROPCON+4,,AUTO
        19 000332   200027 630500                    EPPR0   LENGTH,,AUTO
PL6.E3A0      #001=Z8EV$CONVERT_ROUND_ON_SIZE File=Z8EV.:Z8A6TSI                 SAT 08/09/97 12:49 Page:49
        19 000333   200103 450500                    STP0    ROPCON+3,,AUTO
        19 000334   200073 236100                    LDQ     @ETT$$,,AUTO
        19 000335   200102 756100                    STQ     ROPCON+2,,AUTO
        19 000336   200102 630500                    EPPR0   ROPCON+2,,AUTO
        19 000337   000012 631400 20                 EPPR1   10
        19 000340   000000 701000 xent               TSX1    Z8AF$NEW_FISS
        19 000341   000000 011000                    NOP     0
        19 000342   000356 710000 19                 TRA     s:15293

      131    15285
      132    15286    3        SELECT (%FLOATING_POINT_LEADING_SIGN);

      133    15287    3          CALL Z8AE$ERROR (%E$UNEXPECTED_CASE,

  15287 19 000343   200034 236100                    LDQ     FROM$,,AUTO
        19 000344   000006 036003                    ADLQ    6,DU
        19 000345   200104 756100                    STQ     ROPCON+4,,AUTO
        19 000346   200034 236100                    LDQ     FROM$,,AUTO
        19 000347   000005 036003                    ADLQ    5,DU
        19 000350   000017 235000 20                 LDA     15
        19 000351   200102 757100                    STAQ    ROPCON+2,,AUTO
        19 000352   200102 630500                    EPPR0   ROPCON+2,,AUTO
        19 000353   000013 631400 20                 EPPR1   11
        19 000354   000000 701000 xent               TSX1    Z8AE$ERROR
        19 000355   000000 011000                    NOP     0

      134    15288    3                           FROM$ -> LX_ETT_ITEM.LINE,
      135    15289    3                           FROM$ -> LX_ETT_ITEM.COLUMN);
      136    15290
      137    15291    3      END;

      138    15292
      139    15293    2   END TYD_TO_TYA;

  15293 19 000356   200072 221300                    LDX1  ! TEMP_LX_ITEM1+8,,AUTO
        19 000357   000001 702211                    TSX2  ! 1,X1

PL6.E3A0      #001=Z8EV$CONVERT_ROUND_ON_SIZE File=Z8EV.:Z8A6TSI                 SAT 08/09/97 12:49 Page:50
      140    15294        %EJECT;
PL6.E3A0      #001=Z8EV$CONVERT_ROUND_ON_SIZE File=Z8EV.:Z8A6TSI                 SAT 08/09/97 12:49 Page:51
      141    15295         /*                        MAIN
      142    15296                                                                      */
      143    15297    1        ON_SIZE = ON_SIZE_FLAG;

  15297 19 000360   200006 470500                    LDP0    @ON_SIZE_FLAG,,AUTO
        19 000361   000000 236100                    LDQ     0,,PR0
        19 000362   400000 376003                    ANQ     -131072,DU
        19 000363   200042 756100                    STQ     ON_SIZE,,AUTO

      144    15298    1        ROUND = ROUND_FLAG; /* For MOVE <TYR>/<TYQ> TO <TYD>/<TYO>, round */

  15298 19 000364   200007 471500                    LDP1    @ROUND_FLAG,,AUTO
        19 000365   100000 236100                    LDQ     0,,PR1
        19 000366   400000 376003                    ANQ     -131072,DU
        19 000367   200043 756100                    STQ     ROUND,,AUTO

      145    15299
      146    15300    1        GOTO COMMON_CONVERT;

  15300 19 000370   000405 710000 19                 TRA     COMMON_CONVERT

      147    15301
      148    15302    1   Z8EV$CONVERT_ON_SIZE: ENTRY (TYPE, FROM$$, RETURN$, ON_SIZE_FLAG);

  15302 19 000371   000000 700200 xent  Z8EV$CONVER* TSX0  ! X66_AUTO_N
        19 000372   000110 000006                    ZERO    72,6

      149    15303
      150    15304    1        ON_SIZE = ON_SIZE_FLAG;

  15304 19 000373   200006 470500                    LDP0    @ON_SIZE_FLAG,,AUTO
        19 000374   000000 236100                    LDQ     0,,PR0
        19 000375   400000 376003                    ANQ     -131072,DU
        19 000376   200042 756100                    STQ     ON_SIZE,,AUTO

      151    15305    1        ROUND = FALSE;

PL6.E3A0      #001=Z8EV$CONVERT_ROUND_ON_SIZE File=Z8EV.:Z8A6TSI                 SAT 08/09/97 12:49 Page:52
  15305 19 000377   200043 450100                    STZ     ROUND,,AUTO

      152    15306
      153    15307    1        GOTO COMMON_CONVERT;

  15307 19 000400   000405 710000 19                 TRA     COMMON_CONVERT

      154    15308
      155    15309    1   Z8EV$CONVERT: ENTRY (TYPE, FROM$$, RETURN$);

  15309 19 000401   000000 700200 xent  Z8EV$CONVERT TSX0  ! X66_AUTO_N
        19 000402   000110 000006                    ZERO    72,6

      156    15310
      157    15311    1        ON_SIZE = FALSE;

  15311 19 000403   200042 450100                    STZ     ON_SIZE,,AUTO

      158    15312    1        ROUND = FALSE;

  15312 19 000404   200043 450100                    STZ     ROUND,,AUTO

      159    15313
      160    15314
      161    15315    1   COMMON_CONVERT:
      162    15316
      163    15317    1        FROM$ = ADDR (TEMP_LX_ITEM);

  15317 19 000405   200052 630500       COMMON_CONV* EPPR0   TEMP_LX_ITEM,,AUTO
        19 000406   200034 450500                    STP0    FROM$,,AUTO

      164    15318    1        FROM$ -> LX_ITEM = FROM$$ -> LX_ITEM;

  15318 19 000407   200004 471500                    LDP1    @FROM$$,,AUTO
        19 000410   100000 473500                    LDP3    0,,PR1
        19 000411   000100 100500                    MLR     fill='000'O
        19 000412   300000 000040                    ADSC9   0,,PR3                   cn=0,n=32
PL6.E3A0      #001=Z8EV$CONVERT_ROUND_ON_SIZE File=Z8EV.:Z8A6TSI                 SAT 08/09/97 12:49 Page:53
        19 000413   000000 000040                    ADSC9   0,,PR0                   cn=0,n=32

      165    15319    1        IF FROM$$ -> LX_ITEM.TYPE = %TYC THEN

  15319 19 000414   100000 470500                    LDP0    0,,PR1
        19 000415   000004 235100                    LDA     4,,PR0
        19 000416   000023 115007                    CMPA    19,DL
        19 000417   000465 601000 19                 TNZ     s:15331

      166    15320    2          DO;

      167    15321    2            CALL Z8CO$CREATE_LIBRARY_BASE(%OP_GBCD_TO_ASCII, TABLE_ETT$);

  15321 19 000420   200033 633500                    EPPR3   TABLE_ETT$,,AUTO
        19 000421   200103 453500                    STP3    ROPCON+3,,AUTO
        19 000422   000021 236000 20                 LDQ     17
        19 000423   200102 756100                    STQ     ROPCON+2,,AUTO
        19 000424   200102 630500                    EPPR0   ROPCON+2,,AUTO
        19 000425   000000 631400 20                 EPPR1   0
        19 000426   000000 701000 xent               TSX1    Z8CO$CREATE_LIBRARY_BASE
        19 000427   000000 011000                    NOP     0

      168    15322    2            CALL Z8AF$FORME_ON_SIZE(%CVT,

  15322 19 000430   200004 470500                    LDP0    @FROM$$,,AUTO
        19 000431   000000 471500                    LDP1    0,,PR0
        19 000432   200042 633500                    EPPR3   ON_SIZE,,AUTO
        19 000433   200106 453500                    STP3    ROPCON+6,,AUTO
        19 000434   100001 634500                    EPPR4   1,,PR1
        19 000435   200105 454500                    STP4    ROPCON+5,,AUTO
        19 000436   200033 631500                    EPPR1   TABLE_ETT$,,AUTO
        19 000437   200104 451500                    STP1    ROPCON+4,,AUTO
        19 000440   200034 236100                    LDQ     FROM$,,AUTO
        19 000441   000001 036003                    ADLQ    1,DU
        19 000442   000023 235000 20                 LDA     19
        19 000443   200102 757100                    STAQ    ROPCON+2,,AUTO
        19 000444   200102 630500                    EPPR0   ROPCON+2,,AUTO
PL6.E3A0      #001=Z8EV$CONVERT_ROUND_ON_SIZE File=Z8EV.:Z8A6TSI                 SAT 08/09/97 12:49 Page:54
        19 000445   000003 631400 20                 EPPR1   3
        19 000446   000000 701000 xent               TSX1    Z8AF$FORME_ON_SIZE
        19 000447   000000 011000                    NOP     0

      169    15323    2                                    FROM$ -> LX_ETT_ITEM.ETT$,
      170    15324    2                                    TABLE_ETT$,
      171    15325    2                                    FROM$$ -> LX_ETT_ITEM.ETT$,
      172    15326    2                                    ON_SIZE);
      173    15327    2            CALL Z8AU$TYPE_DESCRIPTOR(FROM$$ -> LX_ETT_ITEM.ETT$, TYPE_DESC);

  15327 19 000450   200004 470500                    LDP0    @FROM$$,,AUTO
        19 000451   000000 471500                    LDP1    0,,PR0
        19 000452   200044 633500                    EPPR3   TYPE_DESC,,AUTO
        19 000453   200103 453500                    STP3    ROPCON+3,,AUTO
        19 000454   100001 634500                    EPPR4   1,,PR1
        19 000455   200102 454500                    STP4    ROPCON+2,,AUTO
        19 000456   200102 630500                    EPPR0   ROPCON+2,,AUTO
        19 000457   000000 631400 20                 EPPR1   0
        19 000460   000000 701000 xent               TSX1    Z8AU$TYPE_DESCRIPTOR
        19 000461   000000 011000                    NOP     0

      174    15328    2            FROM$ -> LX_ITEM.TYPE = TYPE_DESC.TYPE;

  15328 19 000462   200044 235100                    LDA     TYPE_DESC,,AUTO
        19 000463   200034 470500                    LDP0    FROM$,,AUTO
        19 000464   000004 755100                    STA     4,,PR0

      175    15329    2          END;

      176    15330
      177    15331    1        ETT$$ = FROM$$ -> LX_ETT_ITEM.ETT$;

  15331 19 000465   200004 470500                    LDP0    @FROM$$,,AUTO
        19 000466   000000 471500                    LDP1    0,,PR0
        19 000467   100001 236100                    LDQ     1,,PR1
        19 000470   200032 756100                    STQ     ETT$$,,AUTO

PL6.E3A0      #001=Z8EV$CONVERT_ROUND_ON_SIZE File=Z8EV.:Z8A6TSI                 SAT 08/09/97 12:49 Page:55
      178    15332    1        ALL = FALSE;

  15332 19 000471   200041 450100                    STZ     ALL,,AUTO

      179    15333
      180    15334
      181    15335    2        DO CASE (TYPE); /* Type to convert to */

  15335 19 000472   200003 471500                    LDP1    @TYPE,,AUTO
        19 000473   100000 235100                    LDA     0,,PR1
        19 000474   000020 115007                    CMPA    16,DL
        19 000475   000477 602005 19                 TNC     s:15335+5,AL
        19 000476   013073 710000 19                 TRA     s:16350
        19 000477   003464 710000 19                 TRA     s:15519
        19 000500   005577 710000 19                 TRA     s:15762
        19 000501   007241 710000 19                 TRA     s:15947
        19 000502   004520 710000 19                 TRA     s:15672
        19 000503   011077 710000 19                 TRA     s:16145
        19 000504   011637 710000 19                 TRA     s:16234
        19 000505   001723 710000 19                 TRA     s:15422
        19 000506   006321 710000 19                 TRA     s:15850
        19 000507   000517 710000 19                 TRA     s:15337
        19 000510   013073 710000 19                 TRA     s:16350
        19 000511   013073 710000 19                 TRA     s:16350
        19 000512   002524 710000 19                 TRA     s:15457
        19 000513   002727 710000 19                 TRA     s:15490
        19 000514   013073 710000 19                 TRA     s:16350
        19 000515   012377 710000 19                 TRA     s:16323
        19 000516   010161 710000 19                 TRA     s:16046

      182    15336    2          CASE (%TYA);

      183    15337    3            DO CASE (FROM$ -> LX_ITEM.TYPE);

  15337 19 000517   200034 473500                    LDP3    FROM$,,AUTO
        19 000520   300004 235100                    LDA     4,,PR3
        19 000521   000020 115007                    CMPA    16,DL
PL6.E3A0      #001=Z8EV$CONVERT_ROUND_ON_SIZE File=Z8EV.:Z8A6TSI                 SAT 08/09/97 12:49 Page:56
        19 000522   000524 602005 19                 TNC     s:15337+5,AL
        19 000523   013077 710000 19                 TRA     s:16356
        19 000524   000544 710000 19                 TRA     s:15339
        19 000525   000551 710000 19                 TRA     s:15342
        19 000526   000604 710000 19                 TRA     s:15347
        19 000527   000747 710000 19                 TRA     s:15364
        19 000530   001033 710000 19                 TRA     s:15373
        19 000531   000772 710000 19                 TRA     s:15368
        19 000532   001074 710000 19                 TRA     s:15378
        19 000533   000706 710000 19                 TRA     s:15359
        19 000534   001716 710000 19                 TRA     s:15418
        19 000535   001237 710000 19                 TRA     s:15397
        19 000536   001237 710000 19                 TRA     s:15397
        19 000537   001123 710000 19                 TRA     s:15382
        19 000540   001210 710000 19                 TRA     s:15393
        19 000541   001253 710000 19                 TRA     s:15402
        19 000542   001722 710000 19                 TRA     s:15419
        19 000543   000645 710000 19                 TRA     s:15354

      184    15338    3              CASE (%TYD);

      185    15339    3                CALL TYD_TO_TYA (ETT$$);

  15339 19 000544   200032 634500                    EPPR4   ETT$$,,AUTO
        19 000545   200073 454500                    STP4    TEMP_LX_ITEM1+9,,AUTO
        19 000546   000003 701000 19                 TSX1    TYD_TO_TYA
        19 000547   000000 011000                    NOP     0
        19 000550   013077 710000 19                 TRA     s:16356

      186    15340
      187    15341    3              CASE (%TYI);

      188    15342    3                CALL Z8EV$WORD_TO_BYTE_UNITS(ETT$$, ETT$$);

  15342 19 000551   200032 634500                    EPPR4   ETT$$,,AUTO
        19 000552   200103 454500                    STP4    ROPCON+3,,AUTO
        19 000553   200032 635500                    EPPR5   ETT$$,,AUTO
PL6.E3A0      #001=Z8EV$CONVERT_ROUND_ON_SIZE File=Z8EV.:Z8A6TSI                 SAT 08/09/97 12:49 Page:57
        19 000554   200102 455500                    STP5    ROPCON+2,,AUTO
        19 000555   200102 630500                    EPPR0   ROPCON+2,,AUTO
        19 000556   000000 631400 20                 EPPR1   0
        19 000557   000000 701000 xent               TSX1    Z8EV$WORD_TO_BYTE_UNITS
        19 000560   000000 011000                    NOP     0

      189    15343    3                CALL Z8AF$FORME_ON_SIZE(%CVID9, ETT$$, 0, ETT$$, ON_SIZE);

  15343 19 000561   200042 630500                    EPPR0   ON_SIZE,,AUTO
        19 000562   200106 450500                    STP0    ROPCON+6,,AUTO
        19 000563   200032 631500                    EPPR1   ETT$$,,AUTO
        19 000564   200105 451500                    STP1    ROPCON+5,,AUTO
        19 000565   000007 236000 20                 LDQ     7
        19 000566   200104 756100                    STQ     ROPCON+4,,AUTO
        19 000567   200032 633500                    EPPR3   ETT$$,,AUTO
        19 000570   200103 453500                    STP3    ROPCON+3,,AUTO
        19 000571   000025 236000 20                 LDQ     21
        19 000572   200102 756100                    STQ     ROPCON+2,,AUTO
        19 000573   200102 630500                    EPPR0   ROPCON+2,,AUTO
        19 000574   000003 631400 20                 EPPR1   3
        19 000575   000000 701000 xent               TSX1    Z8AF$FORME_ON_SIZE
        19 000576   000000 011000                    NOP     0

      190    15344    3                CALL TYD_TO_TYA (ETT$$);

  15344 19 000577   200032 630500                    EPPR0   ETT$$,,AUTO
        19 000600   200073 450500                    STP0    TEMP_LX_ITEM1+9,,AUTO
        19 000601   000003 701000 19                 TSX1    TYD_TO_TYA
        19 000602   000000 011000                    NOP     0
        19 000603   013077 710000 19                 TRA     s:16356

      191    15345
      192    15346    3              CASE (%TYJ);

      193    15347    3                CALL Z8AF$FORME_ON_SIZE(%CVJI, ETT$$, 0, ETT$$, ON_SIZE);

  15347 19 000604   200042 634500                    EPPR4   ON_SIZE,,AUTO
PL6.E3A0      #001=Z8EV$CONVERT_ROUND_ON_SIZE File=Z8EV.:Z8A6TSI                 SAT 08/09/97 12:49 Page:58
        19 000605   200106 454500                    STP4    ROPCON+6,,AUTO
        19 000606   200032 635500                    EPPR5   ETT$$,,AUTO
        19 000607   200105 455500                    STP5    ROPCON+5,,AUTO
        19 000610   000007 236000 20                 LDQ     7
        19 000611   200104 756100                    STQ     ROPCON+4,,AUTO
        19 000612   200032 636500                    EPPR6   ETT$$,,AUTO
        19 000613   200103 456500                    STP6    ROPCON+3,,AUTO
        19 000614   000027 236000 20                 LDQ     23
        19 000615   200102 756100                    STQ     ROPCON+2,,AUTO
        19 000616   200102 630500                    EPPR0   ROPCON+2,,AUTO
        19 000617   000003 631400 20                 EPPR1   3
        19 000620   000000 701000 xent               TSX1    Z8AF$FORME_ON_SIZE
        19 000621   000000 011000                    NOP     0

      194    15348
      195    15349
      196    15350    3                CALL Z8AF$FORME_ON_SIZE(%CVID9, ETT$$, 0, ETT$$, ON_SIZE);

  15350 19 000622   200042 630500                    EPPR0   ON_SIZE,,AUTO
        19 000623   200106 450500                    STP0    ROPCON+6,,AUTO
        19 000624   200032 631500                    EPPR1   ETT$$,,AUTO
        19 000625   200105 451500                    STP1    ROPCON+5,,AUTO
        19 000626   000007 236000 20                 LDQ     7
        19 000627   200104 756100                    STQ     ROPCON+4,,AUTO
        19 000630   200032 633500                    EPPR3   ETT$$,,AUTO
        19 000631   200103 453500                    STP3    ROPCON+3,,AUTO
        19 000632   000025 236000 20                 LDQ     21
        19 000633   200102 756100                    STQ     ROPCON+2,,AUTO
        19 000634   200102 630500                    EPPR0   ROPCON+2,,AUTO
        19 000635   000003 631400 20                 EPPR1   3
        19 000636   000000 701000 xent               TSX1    Z8AF$FORME_ON_SIZE
        19 000637   000000 011000                    NOP     0

      197    15351    3                CALL TYD_TO_TYA (ETT$$);

  15351 19 000640   200032 630500                    EPPR0   ETT$$,,AUTO
        19 000641   200073 450500                    STP0    TEMP_LX_ITEM1+9,,AUTO
PL6.E3A0      #001=Z8EV$CONVERT_ROUND_ON_SIZE File=Z8EV.:Z8A6TSI                 SAT 08/09/97 12:49 Page:59
        19 000642   000003 701000 19                 TSX1    TYD_TO_TYA
        19 000643   000000 011000                    NOP     0
        19 000644   013077 710000 19                 TRA     s:16356

      198    15352
      199    15353    3              CASE (%TYK);

      200    15354    3                CALL Z8AF$FORME_ON_SIZE(%CVKI, ETT$$, 0, ETT$$, ON_SIZE);

  15354 19 000645   200042 634500                    EPPR4   ON_SIZE,,AUTO
        19 000646   200106 454500                    STP4    ROPCON+6,,AUTO
        19 000647   200032 635500                    EPPR5   ETT$$,,AUTO
        19 000650   200105 455500                    STP5    ROPCON+5,,AUTO
        19 000651   000007 236000 20                 LDQ     7
        19 000652   200104 756100                    STQ     ROPCON+4,,AUTO
        19 000653   200032 636500                    EPPR6   ETT$$,,AUTO
        19 000654   200103 456500                    STP6    ROPCON+3,,AUTO
        19 000655   000031 236000 20                 LDQ     25
        19 000656   200102 756100                    STQ     ROPCON+2,,AUTO
        19 000657   200102 630500                    EPPR0   ROPCON+2,,AUTO
        19 000660   000003 631400 20                 EPPR1   3
        19 000661   000000 701000 xent               TSX1    Z8AF$FORME_ON_SIZE
        19 000662   000000 011000                    NOP     0

      201    15355    3                CALL Z8AF$FORME_ON_SIZE(%CVID9, ETT$$, 0, ETT$$, ON_SIZE);

  15355 19 000663   200042 630500                    EPPR0   ON_SIZE,,AUTO
        19 000664   200106 450500                    STP0    ROPCON+6,,AUTO
        19 000665   200032 631500                    EPPR1   ETT$$,,AUTO
        19 000666   200105 451500                    STP1    ROPCON+5,,AUTO
        19 000667   000007 236000 20                 LDQ     7
        19 000670   200104 756100                    STQ     ROPCON+4,,AUTO
        19 000671   200032 633500                    EPPR3   ETT$$,,AUTO
        19 000672   200103 453500                    STP3    ROPCON+3,,AUTO
        19 000673   000025 236000 20                 LDQ     21
        19 000674   200102 756100                    STQ     ROPCON+2,,AUTO
        19 000675   200102 630500                    EPPR0   ROPCON+2,,AUTO
PL6.E3A0      #001=Z8EV$CONVERT_ROUND_ON_SIZE File=Z8EV.:Z8A6TSI                 SAT 08/09/97 12:49 Page:60
        19 000676   000003 631400 20                 EPPR1   3
        19 000677   000000 701000 xent               TSX1    Z8AF$FORME_ON_SIZE
        19 000700   000000 011000                    NOP     0

      202    15356    3                CALL TYD_TO_TYA (ETT$$);

  15356 19 000701   200032 630500                    EPPR0   ETT$$,,AUTO
        19 000702   200073 450500                    STP0    TEMP_LX_ITEM1+9,,AUTO
        19 000703   000003 701000 19                 TSX1    TYD_TO_TYA
        19 000704   000000 011000                    NOP     0
        19 000705   013077 710000 19                 TRA     s:16356

      203    15357
      204    15358    3              CASE (%TYH);

      205    15359    3                CALL Z8AF$FORME_ON_SIZE(%CVHI, ETT$$, 0, ETT$$, ON_SIZE);

  15359 19 000706   200042 634500                    EPPR4   ON_SIZE,,AUTO
        19 000707   200106 454500                    STP4    ROPCON+6,,AUTO
        19 000710   200032 635500                    EPPR5   ETT$$,,AUTO
        19 000711   200105 455500                    STP5    ROPCON+5,,AUTO
        19 000712   000007 236000 20                 LDQ     7
        19 000713   200104 756100                    STQ     ROPCON+4,,AUTO
        19 000714   200032 636500                    EPPR6   ETT$$,,AUTO
        19 000715   200103 456500                    STP6    ROPCON+3,,AUTO
        19 000716   000033 236000 20                 LDQ     27
        19 000717   200102 756100                    STQ     ROPCON+2,,AUTO
        19 000720   200102 630500                    EPPR0   ROPCON+2,,AUTO
        19 000721   000003 631400 20                 EPPR1   3
        19 000722   000000 701000 xent               TSX1    Z8AF$FORME_ON_SIZE
        19 000723   000000 011000                    NOP     0

      206    15360    3                CALL Z8AF$FORME_ON_SIZE(%CVID9, ETT$$, 0, ETT$$, ON_SIZE);

  15360 19 000724   200042 630500                    EPPR0   ON_SIZE,,AUTO
        19 000725   200106 450500                    STP0    ROPCON+6,,AUTO
        19 000726   200032 631500                    EPPR1   ETT$$,,AUTO
PL6.E3A0      #001=Z8EV$CONVERT_ROUND_ON_SIZE File=Z8EV.:Z8A6TSI                 SAT 08/09/97 12:49 Page:61
        19 000727   200105 451500                    STP1    ROPCON+5,,AUTO
        19 000730   000007 236000 20                 LDQ     7
        19 000731   200104 756100                    STQ     ROPCON+4,,AUTO
        19 000732   200032 633500                    EPPR3   ETT$$,,AUTO
        19 000733   200103 453500                    STP3    ROPCON+3,,AUTO
        19 000734   000025 236000 20                 LDQ     21
        19 000735   200102 756100                    STQ     ROPCON+2,,AUTO
        19 000736   200102 630500                    EPPR0   ROPCON+2,,AUTO
        19 000737   000003 631400 20                 EPPR1   3
        19 000740   000000 701000 xent               TSX1    Z8AF$FORME_ON_SIZE
        19 000741   000000 011000                    NOP     0

      207    15361    3                CALL TYD_TO_TYA (ETT$$);

  15361 19 000742   200032 630500                    EPPR0   ETT$$,,AUTO
        19 000743   200073 450500                    STP0    TEMP_LX_ITEM1+9,,AUTO
        19 000744   000003 701000 19                 TSX1    TYD_TO_TYA
        19 000745   000000 011000                    NOP     0
        19 000746   013077 710000 19                 TRA     s:16356

      208    15362
      209    15363    3              CASE (%TYO);

      210    15364    3                CALL Z8AF$FORME_ON_SIZE(%CVOD4, ETT$$, 0, ETT$$, ON_SIZE);

  15364 19 000747   200042 634500                    EPPR4   ON_SIZE,,AUTO
        19 000750   200106 454500                    STP4    ROPCON+6,,AUTO
        19 000751   200032 635500                    EPPR5   ETT$$,,AUTO
        19 000752   200105 455500                    STP5    ROPCON+5,,AUTO
        19 000753   000007 236000 20                 LDQ     7
        19 000754   200104 756100                    STQ     ROPCON+4,,AUTO
        19 000755   200032 636500                    EPPR6   ETT$$,,AUTO
        19 000756   200103 456500                    STP6    ROPCON+3,,AUTO
        19 000757   000035 236000 20                 LDQ     29
        19 000760   200102 756100                    STQ     ROPCON+2,,AUTO
        19 000761   200102 630500                    EPPR0   ROPCON+2,,AUTO
        19 000762   000003 631400 20                 EPPR1   3
PL6.E3A0      #001=Z8EV$CONVERT_ROUND_ON_SIZE File=Z8EV.:Z8A6TSI                 SAT 08/09/97 12:49 Page:62
        19 000763   000000 701000 xent               TSX1    Z8AF$FORME_ON_SIZE
        19 000764   000000 011000                    NOP     0

      211    15365    3                CALL TYD_TO_TYA (ETT$$);

  15365 19 000765   200032 630500                    EPPR0   ETT$$,,AUTO
        19 000766   200073 450500                    STP0    TEMP_LX_ITEM1+9,,AUTO
        19 000767   000003 701000 19                 TSX1    TYD_TO_TYA
        19 000770   000000 011000                    NOP     0
        19 000771   013077 710000 19                 TRA     s:16356

      212    15366
      213    15367    3              CASE (%TYQ);

      214    15368    3                CALL Z8AF$FORME_ON_SIZE(%CVQI, ETT$$, 0, ETT$$, ON_SIZE);

  15368 19 000772   200042 634500                    EPPR4   ON_SIZE,,AUTO
        19 000773   200106 454500                    STP4    ROPCON+6,,AUTO
        19 000774   200032 635500                    EPPR5   ETT$$,,AUTO
        19 000775   200105 455500                    STP5    ROPCON+5,,AUTO
        19 000776   000007 236000 20                 LDQ     7
        19 000777   200104 756100                    STQ     ROPCON+4,,AUTO
        19 001000   200032 636500                    EPPR6   ETT$$,,AUTO
        19 001001   200103 456500                    STP6    ROPCON+3,,AUTO
        19 001002   000037 236000 20                 LDQ     31
        19 001003   200102 756100                    STQ     ROPCON+2,,AUTO
        19 001004   200102 630500                    EPPR0   ROPCON+2,,AUTO
        19 001005   000003 631400 20                 EPPR1   3
        19 001006   000000 701000 xent               TSX1    Z8AF$FORME_ON_SIZE
        19 001007   000000 011000                    NOP     0

      215    15369    3                CALL Z8AF$FORME_ON_SIZE(%CVID9, ETT$$, 0, ETT$$, ON_SIZE);

  15369 19 001010   200042 630500                    EPPR0   ON_SIZE,,AUTO
        19 001011   200106 450500                    STP0    ROPCON+6,,AUTO
        19 001012   200032 631500                    EPPR1   ETT$$,,AUTO
        19 001013   200105 451500                    STP1    ROPCON+5,,AUTO
PL6.E3A0      #001=Z8EV$CONVERT_ROUND_ON_SIZE File=Z8EV.:Z8A6TSI                 SAT 08/09/97 12:49 Page:63
        19 001014   000007 236000 20                 LDQ     7
        19 001015   200104 756100                    STQ     ROPCON+4,,AUTO
        19 001016   200032 633500                    EPPR3   ETT$$,,AUTO
        19 001017   200103 453500                    STP3    ROPCON+3,,AUTO
        19 001020   000025 236000 20                 LDQ     21
        19 001021   200102 756100                    STQ     ROPCON+2,,AUTO
        19 001022   200102 630500                    EPPR0   ROPCON+2,,AUTO
        19 001023   000003 631400 20                 EPPR1   3
        19 001024   000000 701000 xent               TSX1    Z8AF$FORME_ON_SIZE
        19 001025   000000 011000                    NOP     0

      216    15370    3                CALL TYD_TO_TYA (ETT$$);

  15370 19 001026   200032 630500                    EPPR0   ETT$$,,AUTO
        19 001027   200073 450500                    STP0    TEMP_LX_ITEM1+9,,AUTO
        19 001030   000003 701000 19                 TSX1    TYD_TO_TYA
        19 001031   000000 011000                    NOP     0
        19 001032   013077 710000 19                 TRA     s:16356

      217    15371
      218    15372    3              CASE (%TYR);

      219    15373    3                CALL Z8AF$FORME_ON_SIZE(%CVRI, ETT$$, 0, ETT$$, ON_SIZE);

  15373 19 001033   200042 634500                    EPPR4   ON_SIZE,,AUTO
        19 001034   200106 454500                    STP4    ROPCON+6,,AUTO
        19 001035   200032 635500                    EPPR5   ETT$$,,AUTO
        19 001036   200105 455500                    STP5    ROPCON+5,,AUTO
        19 001037   000007 236000 20                 LDQ     7
        19 001040   200104 756100                    STQ     ROPCON+4,,AUTO
        19 001041   200032 636500                    EPPR6   ETT$$,,AUTO
        19 001042   200103 456500                    STP6    ROPCON+3,,AUTO
        19 001043   000041 236000 20                 LDQ     33
        19 001044   200102 756100                    STQ     ROPCON+2,,AUTO
        19 001045   200102 630500                    EPPR0   ROPCON+2,,AUTO
        19 001046   000003 631400 20                 EPPR1   3
        19 001047   000000 701000 xent               TSX1    Z8AF$FORME_ON_SIZE
PL6.E3A0      #001=Z8EV$CONVERT_ROUND_ON_SIZE File=Z8EV.:Z8A6TSI                 SAT 08/09/97 12:49 Page:64
        19 001050   000000 011000                    NOP     0

      220    15374    3                CALL Z8AF$FORME_ON_SIZE(%CVID9, ETT$$, 0, ETT$$, ON_SIZE);

  15374 19 001051   200042 630500                    EPPR0   ON_SIZE,,AUTO
        19 001052   200106 450500                    STP0    ROPCON+6,,AUTO
        19 001053   200032 631500                    EPPR1   ETT$$,,AUTO
        19 001054   200105 451500                    STP1    ROPCON+5,,AUTO
        19 001055   000007 236000 20                 LDQ     7
        19 001056   200104 756100                    STQ     ROPCON+4,,AUTO
        19 001057   200032 633500                    EPPR3   ETT$$,,AUTO
        19 001060   200103 453500                    STP3    ROPCON+3,,AUTO
        19 001061   000025 236000 20                 LDQ     21
        19 001062   200102 756100                    STQ     ROPCON+2,,AUTO
        19 001063   200102 630500                    EPPR0   ROPCON+2,,AUTO
        19 001064   000003 631400 20                 EPPR1   3
        19 001065   000000 701000 xent               TSX1    Z8AF$FORME_ON_SIZE
        19 001066   000000 011000                    NOP     0

      221    15375    3                CALL TYD_TO_TYA (ETT$$);

  15375 19 001067   200032 630500                    EPPR0   ETT$$,,AUTO
        19 001070   200073 450500                    STP0    TEMP_LX_ITEM1+9,,AUTO
        19 001071   000003 701000 19                 TSX1    TYD_TO_TYA
        19 001072   000000 011000                    NOP     0
        19 001073   013077 710000 19                 TRA     s:16356

      222    15376
      223    15377    3              CASE (%TYE); /* Convert EBCDIC to ASCII */

      224    15378    3                CALL Z8CO$CREATE_LIBRARY_BASE(%OP_EBCDIC_TO_ASCII, TABLE_ETT$);

  15378 19 001074   200033 634500                    EPPR4   TABLE_ETT$,,AUTO
        19 001075   200103 454500                    STP4    ROPCON+3,,AUTO
        19 001076   000043 236000 20                 LDQ     35
        19 001077   200102 756100                    STQ     ROPCON+2,,AUTO
        19 001100   200102 630500                    EPPR0   ROPCON+2,,AUTO
PL6.E3A0      #001=Z8EV$CONVERT_ROUND_ON_SIZE File=Z8EV.:Z8A6TSI                 SAT 08/09/97 12:49 Page:65
        19 001101   000000 631400 20                 EPPR1   0
        19 001102   000000 701000 xent               TSX1    Z8CO$CREATE_LIBRARY_BASE
        19 001103   000000 011000                    NOP     0

      225    15379    3                CALL Z8AF$FORME_ON_SIZE(%CVT, ETT$$, TABLE_ETT$, ETT$$, ON_SIZE);

  15379 19 001104   200042 630500                    EPPR0   ON_SIZE,,AUTO
        19 001105   200106 450500                    STP0    ROPCON+6,,AUTO
        19 001106   200032 631500                    EPPR1   ETT$$,,AUTO
        19 001107   200105 451500                    STP1    ROPCON+5,,AUTO
        19 001110   200033 633500                    EPPR3   TABLE_ETT$,,AUTO
        19 001111   200104 453500                    STP3    ROPCON+4,,AUTO
        19 001112   200032 634500                    EPPR4   ETT$$,,AUTO
        19 001113   200103 454500                    STP4    ROPCON+3,,AUTO
        19 001114   000023 236000 20                 LDQ     19
        19 001115   200102 756100                    STQ     ROPCON+2,,AUTO
        19 001116   200102 630500                    EPPR0   ROPCON+2,,AUTO
        19 001117   000003 631400 20                 EPPR1   3
        19 001120   000000 701000 xent               TSX1    Z8AF$FORME_ON_SIZE
        19 001121   000000 011000                    NOP     0
        19 001122   013077 710000 19                 TRA     s:16356

      226    15380
      227    15381    3              CASE (%TYF); /* Convert EBCDIC numeric to ASCII */

      228    15382    3                CALL Z8AU$TYPE_DESCRIPTOR(ETT$$, TYPE_DESC);

  15382 19 001123   200044 634500                    EPPR4   TYPE_DESC,,AUTO
        19 001124   200103 454500                    STP4    ROPCON+3,,AUTO
        19 001125   200032 635500                    EPPR5   ETT$$,,AUTO
        19 001126   200102 455500                    STP5    ROPCON+2,,AUTO
        19 001127   200102 630500                    EPPR0   ROPCON+2,,AUTO
        19 001130   000000 631400 20                 EPPR1   0
        19 001131   000000 701000 xent               TSX1    Z8AU$TYPE_DESCRIPTOR
        19 001132   000000 011000                    NOP     0

      229    15383    3                IF TYPE_DESC.DESC.NDSC.TN = %NDSC4 /* Overpunched */ THEN
PL6.E3A0      #001=Z8EV$CONVERT_ROUND_ON_SIZE File=Z8EV.:Z8A6TSI                 SAT 08/09/97 12:49 Page:66

  15383 19 001133   200045 236100                    LDQ     TYPE_DESC+1,,AUTO
        19 001134   040000 316007                    CANQ    16384,DL
        19 001135   001155 600000 19                 TZE     s:15387

      230    15384    3                  CALL Z8AF$FORME_ON_SIZE(%CVOD4, ETT$$, 0, ETT$$, ON_SIZE);

  15384 19 001136   200042 630500                    EPPR0   ON_SIZE,,AUTO
        19 001137   200106 450500                    STP0    ROPCON+6,,AUTO
        19 001140   200032 631500                    EPPR1   ETT$$,,AUTO
        19 001141   200105 451500                    STP1    ROPCON+5,,AUTO
        19 001142   000007 236000 20                 LDQ     7
        19 001143   200104 756100                    STQ     ROPCON+4,,AUTO
        19 001144   200032 633500                    EPPR3   ETT$$,,AUTO
        19 001145   200103 453500                    STP3    ROPCON+3,,AUTO
        19 001146   000035 236000 20                 LDQ     29
        19 001147   200102 756100                    STQ     ROPCON+2,,AUTO
        19 001150   200102 630500                    EPPR0   ROPCON+2,,AUTO
        19 001151   000003 631400 20                 EPPR1   3
        19 001152   000000 701000 xent               TSX1    Z8AF$FORME_ON_SIZE
        19 001153   000000 011000                    NOP     0
        19 001154   001203 710000 19                 TRA     s:15390

      231    15385    3                ELSE
      232    15386    4                  DO;

      233    15387    4                    CALL Z8CO$CREATE_LIBRARY_BASE(%OP_EBCDIC_TO_ASCII, TABLE_ETT$);

  15387 19 001155   200033 630500                    EPPR0   TABLE_ETT$,,AUTO
        19 001156   200103 450500                    STP0    ROPCON+3,,AUTO
        19 001157   000043 236000 20                 LDQ     35
        19 001160   200102 756100                    STQ     ROPCON+2,,AUTO
        19 001161   200102 630500                    EPPR0   ROPCON+2,,AUTO
        19 001162   000000 631400 20                 EPPR1   0
        19 001163   000000 701000 xent               TSX1    Z8CO$CREATE_LIBRARY_BASE
        19 001164   000000 011000                    NOP     0

PL6.E3A0      #001=Z8EV$CONVERT_ROUND_ON_SIZE File=Z8EV.:Z8A6TSI                 SAT 08/09/97 12:49 Page:67
      234    15388    4                    CALL Z8AF$FORME_ON_SIZE(%CVT, ETT$$, TABLE_ETT$, ETT$$, ON_SIZE);

  15388 19 001165   200042 630500                    EPPR0   ON_SIZE,,AUTO
        19 001166   200106 450500                    STP0    ROPCON+6,,AUTO
        19 001167   200032 631500                    EPPR1   ETT$$,,AUTO
        19 001170   200105 451500                    STP1    ROPCON+5,,AUTO
        19 001171   200033 633500                    EPPR3   TABLE_ETT$,,AUTO
        19 001172   200104 453500                    STP3    ROPCON+4,,AUTO
        19 001173   200032 634500                    EPPR4   ETT$$,,AUTO
        19 001174   200103 454500                    STP4    ROPCON+3,,AUTO
        19 001175   000023 236000 20                 LDQ     19
        19 001176   200102 756100                    STQ     ROPCON+2,,AUTO
        19 001177   200102 630500                    EPPR0   ROPCON+2,,AUTO
        19 001200   000003 631400 20                 EPPR1   3
        19 001201   000000 701000 xent               TSX1    Z8AF$FORME_ON_SIZE
        19 001202   000000 011000                    NOP     0

      235    15389    4                  END;

      236    15390    3                CALL TYD_TO_TYA(ETT$$);

  15390 19 001203   200032 630500                    EPPR0   ETT$$,,AUTO
        19 001204   200073 450500                    STP0    TEMP_LX_ITEM1+9,,AUTO
        19 001205   000003 701000 19                 TSX1    TYD_TO_TYA
        19 001206   000000 011000                    NOP     0
        19 001207   013077 710000 19                 TRA     s:16356

      237    15391
      238    15392    3              CASE (%TYB); /* Convert GBCD tO ASCII */

      239    15393    3                CALL Z8CO$CREATE_LIBRARY_BASE(%OP_GBCD_TO_ASCII, TABLE_ETT$);

  15393 19 001210   200033 634500                    EPPR4   TABLE_ETT$,,AUTO
        19 001211   200103 454500                    STP4    ROPCON+3,,AUTO
        19 001212   000021 236000 20                 LDQ     17
        19 001213   200102 756100                    STQ     ROPCON+2,,AUTO
        19 001214   200102 630500                    EPPR0   ROPCON+2,,AUTO
PL6.E3A0      #001=Z8EV$CONVERT_ROUND_ON_SIZE File=Z8EV.:Z8A6TSI                 SAT 08/09/97 12:49 Page:68
        19 001215   000000 631400 20                 EPPR1   0
        19 001216   000000 701000 xent               TSX1    Z8CO$CREATE_LIBRARY_BASE
        19 001217   000000 011000                    NOP     0

      240    15394    3                CALL Z8AF$FORME_ON_SIZE(%CVT, ETT$$, TABLE_ETT$, ETT$$, ON_SIZE);

  15394 19 001220   200042 630500                    EPPR0   ON_SIZE,,AUTO
        19 001221   200106 450500                    STP0    ROPCON+6,,AUTO
        19 001222   200032 631500                    EPPR1   ETT$$,,AUTO
        19 001223   200105 451500                    STP1    ROPCON+5,,AUTO
        19 001224   200033 633500                    EPPR3   TABLE_ETT$,,AUTO
        19 001225   200104 453500                    STP3    ROPCON+4,,AUTO
        19 001226   200032 634500                    EPPR4   ETT$$,,AUTO
        19 001227   200103 454500                    STP4    ROPCON+3,,AUTO
        19 001230   000023 236000 20                 LDQ     19
        19 001231   200102 756100                    STQ     ROPCON+2,,AUTO
        19 001232   200102 630500                    EPPR0   ROPCON+2,,AUTO
        19 001233   000003 631400 20                 EPPR1   3
        19 001234   000000 701000 xent               TSX1    Z8AF$FORME_ON_SIZE
        19 001235   000000 011000                    NOP     0
        19 001236   013077 710000 19                 TRA     s:16356

      241    15395
      242    15396    3              CASE (%TYX, %TYY);

      243    15397    3                CALL Z8AE$ERROR (%E$UNEXPECTED_CASE,

  15397 19 001237   200034 236100                    LDQ     FROM$,,AUTO
        19 001240   000006 036003                    ADLQ    6,DU
        19 001241   200104 756100                    STQ     ROPCON+4,,AUTO
        19 001242   200034 236100                    LDQ     FROM$,,AUTO
        19 001243   000005 036003                    ADLQ    5,DU
        19 001244   000017 235000 20                 LDA     15
        19 001245   200102 757100                    STAQ    ROPCON+2,,AUTO
        19 001246   200102 630500                    EPPR0   ROPCON+2,,AUTO
        19 001247   000013 631400 20                 EPPR1   11
        19 001250   000000 701000 xent               TSX1    Z8AE$ERROR
PL6.E3A0      #001=Z8EV$CONVERT_ROUND_ON_SIZE File=Z8EV.:Z8A6TSI                 SAT 08/09/97 12:49 Page:69
        19 001251   000000 011000                    NOP     0
        19 001252   013077 710000 19                 TRA     s:16356

      244    15398    3                                 FROM$ -> LX_ETT_ITEM.LINE,
      245    15399    3                                 FROM$ -> LX_ETT_ITEM.COLUMN);
      246    15400
      247    15401    3              CASE(%TYT);

      248    15402    3                CALL Z8EC$CREATE_CONST(%TYA, FROM$, ETT$$);

  15402 19 001253   200032 634500                    EPPR4   ETT$$,,AUTO
        19 001254   200104 454500                    STP4    ROPCON+4,,AUTO
        19 001255   200034 635500                    EPPR5   FROM$,,AUTO
        19 001256   200103 455500                    STP5    ROPCON+3,,AUTO
        19 001257   000045 236000 20                 LDQ     37
        19 001260   200102 756100                    STQ     ROPCON+2,,AUTO
        19 001261   200102 630500                    EPPR0   ROPCON+2,,AUTO
        19 001262   000013 631400 20                 EPPR1   11
        19 001263   000000 701000 xent               TSX1    Z8EC$CREATE_CONST
        19 001264   000000 011000                    NOP     0

      249    15403
      250    15404    3                IF FROM$ -> LX_TERMINAL.B.ALL THEN

  15404 19 001265   200034 470500                    LDP0    FROM$,,AUTO
        19 001266   000000 236100                    LDQ     0,,PR0
        19 001267   040000 316007                    CANQ    16384,DL
        19 001270   001274 600000 19                 TZE     s:15407

      251    15405    3                  ALL = TRUE;

  15405 19 001271   400000 236003                    LDQ     -131072,DU
        19 001272   200041 756100                    STQ     ALL,,AUTO
        19 001273   013077 710000 19                 TRA     s:16356

      252    15406    3                ELSE
      253    15407    4                  DO CASE (FROM$ -> LX_TERMINAL.SYMBOL);
PL6.E3A0      #001=Z8EV$CONVERT_ROUND_ON_SIZE File=Z8EV.:Z8A6TSI                 SAT 08/09/97 12:49 Page:70

  15407 19 001274   000003 235100                    LDA     3,,PR0
        19 001275   000351 135007                    SBLA    233,DL
        19 001276   000411 115007                    CMPA    265,DL
        19 001277   001301 602005 19                 TNC     s:15407+5,AL
        19 001300   013077 710000 19                 TRA     s:16356
        19 001301   001712 710000 19                 TRA     s:15411
        19 001302   001715 710000 19                 TRA     s:15415
        19 001303   001715 710000 19                 TRA     s:15415
        19 001304   001715 710000 19                 TRA     s:15415
        19 001305   001715 710000 19                 TRA     s:15415
        19 001306   001715 710000 19                 TRA     s:15415
        19 001307   001715 710000 19                 TRA     s:15415
        19 001310   001715 710000 19                 TRA     s:15415
        19 001311   001715 710000 19                 TRA     s:15415
        19 001312   001715 710000 19                 TRA     s:15415
        19 001313   001715 710000 19                 TRA     s:15415
        19 001314   001715 710000 19                 TRA     s:15415
        19 001315   001715 710000 19                 TRA     s:15415
        19 001316   001715 710000 19                 TRA     s:15415
        19 001317   001715 710000 19                 TRA     s:15415
        19 001320   001715 710000 19                 TRA     s:15415
        19 001321   001715 710000 19                 TRA     s:15415
        19 001322   001715 710000 19                 TRA     s:15415
        19 001323   001715 710000 19                 TRA     s:15415
        19 001324   001715 710000 19                 TRA     s:15415
        19 001325   001715 710000 19                 TRA     s:15415
        19 001326   001715 710000 19                 TRA     s:15415
        19 001327   001715 710000 19                 TRA     s:15415
        19 001330   001715 710000 19                 TRA     s:15415
        19 001331   001715 710000 19                 TRA     s:15415
        19 001332   001715 710000 19                 TRA     s:15415
        19 001333   001715 710000 19                 TRA     s:15415
        19 001334   001715 710000 19                 TRA     s:15415
        19 001335   001715 710000 19                 TRA     s:15415
        19 001336   001715 710000 19                 TRA     s:15415
        19 001337   001715 710000 19                 TRA     s:15415
PL6.E3A0      #001=Z8EV$CONVERT_ROUND_ON_SIZE File=Z8EV.:Z8A6TSI                 SAT 08/09/97 12:49 Page:71
        19 001340   001715 710000 19                 TRA     s:15415
        19 001341   001715 710000 19                 TRA     s:15415
        19 001342   001715 710000 19                 TRA     s:15415
        19 001343   001715 710000 19                 TRA     s:15415
        19 001344   001715 710000 19                 TRA     s:15415
        19 001345   001715 710000 19                 TRA     s:15415
        19 001346   001715 710000 19                 TRA     s:15415
        19 001347   001715 710000 19                 TRA     s:15415
        19 001350   001715 710000 19                 TRA     s:15415
        19 001351   001715 710000 19                 TRA     s:15415
        19 001352   001715 710000 19                 TRA     s:15415
        19 001353   001715 710000 19                 TRA     s:15415
        19 001354   001715 710000 19                 TRA     s:15415
        19 001355   001715 710000 19                 TRA     s:15415
        19 001356   001715 710000 19                 TRA     s:15415
        19 001357   001715 710000 19                 TRA     s:15415
        19 001360   001715 710000 19                 TRA     s:15415
        19 001361   001715 710000 19                 TRA     s:15415
        19 001362   001715 710000 19                 TRA     s:15415
        19 001363   001712 710000 19                 TRA     s:15411
        19 001364   001715 710000 19                 TRA     s:15415
        19 001365   001715 710000 19                 TRA     s:15415
        19 001366   001715 710000 19                 TRA     s:15415
        19 001367   001715 710000 19                 TRA     s:15415
        19 001370   001715 710000 19                 TRA     s:15415
        19 001371   001715 710000 19                 TRA     s:15415
        19 001372   001715 710000 19                 TRA     s:15415
        19 001373   001715 710000 19                 TRA     s:15415
        19 001374   001715 710000 19                 TRA     s:15415
        19 001375   001715 710000 19                 TRA     s:15415
        19 001376   001715 710000 19                 TRA     s:15415
        19 001377   001715 710000 19                 TRA     s:15415
        19 001400   001715 710000 19                 TRA     s:15415
        19 001401   001715 710000 19                 TRA     s:15415
        19 001402   001715 710000 19                 TRA     s:15415
        19 001403   001715 710000 19                 TRA     s:15415
        19 001404   001715 710000 19                 TRA     s:15415
PL6.E3A0      #001=Z8EV$CONVERT_ROUND_ON_SIZE File=Z8EV.:Z8A6TSI                 SAT 08/09/97 12:49 Page:72
        19 001405   001715 710000 19                 TRA     s:15415
        19 001406   001715 710000 19                 TRA     s:15415
        19 001407   001715 710000 19                 TRA     s:15415
        19 001410   001715 710000 19                 TRA     s:15415
        19 001411   001715 710000 19                 TRA     s:15415
        19 001412   001715 710000 19                 TRA     s:15415
        19 001413   001715 710000 19                 TRA     s:15415
        19 001414   001715 710000 19                 TRA     s:15415
        19 001415   001715 710000 19                 TRA     s:15415
        19 001416   001715 710000 19                 TRA     s:15415
        19 001417   001715 710000 19                 TRA     s:15415
        19 001420   001715 710000 19                 TRA     s:15415
        19 001421   001715 710000 19                 TRA     s:15415
        19 001422   001715 710000 19                 TRA     s:15415
        19 001423   001715 710000 19                 TRA     s:15415
        19 001424   001715 710000 19                 TRA     s:15415
        19 001425   001715 710000 19                 TRA     s:15415
        19 001426   001715 710000 19                 TRA     s:15415
        19 001427   001715 710000 19                 TRA     s:15415
        19 001430   001715 710000 19                 TRA     s:15415
        19 001431   001715 710000 19                 TRA     s:15415
        19 001432   001715 710000 19                 TRA     s:15415
        19 001433   001715 710000 19                 TRA     s:15415
        19 001434   001715 710000 19                 TRA     s:15415
        19 001435   001715 710000 19                 TRA     s:15415
        19 001436   001715 710000 19                 TRA     s:15415
        19 001437   001715 710000 19                 TRA     s:15415
        19 001440   001715 710000 19                 TRA     s:15415
        19 001441   001715 710000 19                 TRA     s:15415
        19 001442   001715 710000 19                 TRA     s:15415
        19 001443   001715 710000 19                 TRA     s:15415
        19 001444   001715 710000 19                 TRA     s:15415
        19 001445   001715 710000 19                 TRA     s:15415
        19 001446   001715 710000 19                 TRA     s:15415
        19 001447   001715 710000 19                 TRA     s:15415
        19 001450   001715 710000 19                 TRA     s:15415
        19 001451   001715 710000 19                 TRA     s:15415
PL6.E3A0      #001=Z8EV$CONVERT_ROUND_ON_SIZE File=Z8EV.:Z8A6TSI                 SAT 08/09/97 12:49 Page:73
        19 001452   001715 710000 19                 TRA     s:15415
        19 001453   001715 710000 19                 TRA     s:15415
        19 001454   001715 710000 19                 TRA     s:15415
        19 001455   001715 710000 19                 TRA     s:15415
        19 001456   001715 710000 19                 TRA     s:15415
        19 001457   001715 710000 19                 TRA     s:15415
        19 001460   001715 710000 19                 TRA     s:15415
        19 001461   001715 710000 19                 TRA     s:15415
        19 001462   001715 710000 19                 TRA     s:15415
        19 001463   001715 710000 19                 TRA     s:15415
        19 001464   001715 710000 19                 TRA     s:15415
        19 001465   001715 710000 19                 TRA     s:15415
        19 001466   001715 710000 19                 TRA     s:15415
        19 001467   001715 710000 19                 TRA     s:15415
        19 001470   001715 710000 19                 TRA     s:15415
        19 001471   001715 710000 19                 TRA     s:15415
        19 001472   001715 710000 19                 TRA     s:15415
        19 001473   001712 710000 19                 TRA     s:15411
        19 001474   001715 710000 19                 TRA     s:15415
        19 001475   001715 710000 19                 TRA     s:15415
        19 001476   001715 710000 19                 TRA     s:15415
        19 001477   001715 710000 19                 TRA     s:15415
        19 001500   001715 710000 19                 TRA     s:15415
        19 001501   001715 710000 19                 TRA     s:15415
        19 001502   001715 710000 19                 TRA     s:15415
        19 001503   001715 710000 19                 TRA     s:15415
        19 001504   001715 710000 19                 TRA     s:15415
        19 001505   001715 710000 19                 TRA     s:15415
        19 001506   001715 710000 19                 TRA     s:15415
        19 001507   001715 710000 19                 TRA     s:15415
        19 001510   001715 710000 19                 TRA     s:15415
        19 001511   001715 710000 19                 TRA     s:15415
        19 001512   001715 710000 19                 TRA     s:15415
        19 001513   001715 710000 19                 TRA     s:15415
        19 001514   001715 710000 19                 TRA     s:15415
        19 001515   001715 710000 19                 TRA     s:15415
        19 001516   001715 710000 19                 TRA     s:15415
PL6.E3A0      #001=Z8EV$CONVERT_ROUND_ON_SIZE File=Z8EV.:Z8A6TSI                 SAT 08/09/97 12:49 Page:74
        19 001517   001715 710000 19                 TRA     s:15415
        19 001520   001715 710000 19                 TRA     s:15415
        19 001521   001715 710000 19                 TRA     s:15415
        19 001522   001715 710000 19                 TRA     s:15415
        19 001523   001715 710000 19                 TRA     s:15415
        19 001524   001715 710000 19                 TRA     s:15415
        19 001525   001715 710000 19                 TRA     s:15415
        19 001526   001715 710000 19                 TRA     s:15415
        19 001527   001715 710000 19                 TRA     s:15415
        19 001530   001715 710000 19                 TRA     s:15415
        19 001531   001715 710000 19                 TRA     s:15415
        19 001532   001715 710000 19                 TRA     s:15415
        19 001533   001715 710000 19                 TRA     s:15415
        19 001534   001715 710000 19                 TRA     s:15415
        19 001535   001715 710000 19                 TRA     s:15415
        19 001536   001715 710000 19                 TRA     s:15415
        19 001537   001715 710000 19                 TRA     s:15415
        19 001540   001715 710000 19                 TRA     s:15415
        19 001541   001715 710000 19                 TRA     s:15415
        19 001542   001715 710000 19                 TRA     s:15415
        19 001543   001715 710000 19                 TRA     s:15415
        19 001544   001715 710000 19                 TRA     s:15415
        19 001545   001715 710000 19                 TRA     s:15415
        19 001546   001715 710000 19                 TRA     s:15415
        19 001547   001715 710000 19                 TRA     s:15415
        19 001550   001715 710000 19                 TRA     s:15415
        19 001551   001715 710000 19                 TRA     s:15415
        19 001552   001715 710000 19                 TRA     s:15415
        19 001553   001715 710000 19                 TRA     s:15415
        19 001554   001715 710000 19                 TRA     s:15415
        19 001555   001715 710000 19                 TRA     s:15415
        19 001556   001715 710000 19                 TRA     s:15415
        19 001557   001715 710000 19                 TRA     s:15415
        19 001560   001715 710000 19                 TRA     s:15415
        19 001561   001715 710000 19                 TRA     s:15415
        19 001562   001715 710000 19                 TRA     s:15415
        19 001563   001715 710000 19                 TRA     s:15415
PL6.E3A0      #001=Z8EV$CONVERT_ROUND_ON_SIZE File=Z8EV.:Z8A6TSI                 SAT 08/09/97 12:49 Page:75
        19 001564   001715 710000 19                 TRA     s:15415
        19 001565   001715 710000 19                 TRA     s:15415
        19 001566   001715 710000 19                 TRA     s:15415
        19 001567   001715 710000 19                 TRA     s:15415
        19 001570   001715 710000 19                 TRA     s:15415
        19 001571   001715 710000 19                 TRA     s:15415
        19 001572   001715 710000 19                 TRA     s:15415
        19 001573   001715 710000 19                 TRA     s:15415
        19 001574   001715 710000 19                 TRA     s:15415
        19 001575   001715 710000 19                 TRA     s:15415
        19 001576   001715 710000 19                 TRA     s:15415
        19 001577   001715 710000 19                 TRA     s:15415
        19 001600   001712 710000 19                 TRA     s:15411
        19 001601   001715 710000 19                 TRA     s:15415
        19 001602   001715 710000 19                 TRA     s:15415
        19 001603   001715 710000 19                 TRA     s:15415
        19 001604   001715 710000 19                 TRA     s:15415
        19 001605   001715 710000 19                 TRA     s:15415
        19 001606   001715 710000 19                 TRA     s:15415
        19 001607   001715 710000 19                 TRA     s:15415
        19 001610   001715 710000 19                 TRA     s:15415
        19 001611   001715 710000 19                 TRA     s:15415
        19 001612   001715 710000 19                 TRA     s:15415
        19 001613   001715 710000 19                 TRA     s:15415
        19 001614   001715 710000 19                 TRA     s:15415
        19 001615   001715 710000 19                 TRA     s:15415
        19 001616   001715 710000 19                 TRA     s:15415
        19 001617   001715 710000 19                 TRA     s:15415
        19 001620   001715 710000 19                 TRA     s:15415
        19 001621   001715 710000 19                 TRA     s:15415
        19 001622   001715 710000 19                 TRA     s:15415
        19 001623   001715 710000 19                 TRA     s:15415
        19 001624   001715 710000 19                 TRA     s:15415
        19 001625   001715 710000 19                 TRA     s:15415
        19 001626   001715 710000 19                 TRA     s:15415
        19 001627   001715 710000 19                 TRA     s:15415
        19 001630   001715 710000 19                 TRA     s:15415
PL6.E3A0      #001=Z8EV$CONVERT_ROUND_ON_SIZE File=Z8EV.:Z8A6TSI                 SAT 08/09/97 12:49 Page:76
        19 001631   001715 710000 19                 TRA     s:15415
        19 001632   001715 710000 19                 TRA     s:15415
        19 001633   001715 710000 19                 TRA     s:15415
        19 001634   001715 710000 19                 TRA     s:15415
        19 001635   001715 710000 19                 TRA     s:15415
        19 001636   001715 710000 19                 TRA     s:15415
        19 001637   001715 710000 19                 TRA     s:15415
        19 001640   001715 710000 19                 TRA     s:15415
        19 001641   001715 710000 19                 TRA     s:15415
        19 001642   001715 710000 19                 TRA     s:15415
        19 001643   001715 710000 19                 TRA     s:15415
        19 001644   001715 710000 19                 TRA     s:15415
        19 001645   001715 710000 19                 TRA     s:15415
        19 001646   001715 710000 19                 TRA     s:15415
        19 001647   001715 710000 19                 TRA     s:15415
        19 001650   001715 710000 19                 TRA     s:15415
        19 001651   001715 710000 19                 TRA     s:15415
        19 001652   001715 710000 19                 TRA     s:15415
        19 001653   001715 710000 19                 TRA     s:15415
        19 001654   001715 710000 19                 TRA     s:15415
        19 001655   001715 710000 19                 TRA     s:15415
        19 001656   001715 710000 19                 TRA     s:15415
        19 001657   001715 710000 19                 TRA     s:15415
        19 001660   001715 710000 19                 TRA     s:15415
        19 001661   001715 710000 19                 TRA     s:15415
        19 001662   001715 710000 19                 TRA     s:15415
        19 001663   001715 710000 19                 TRA     s:15415
        19 001664   001715 710000 19                 TRA     s:15415
        19 001665   001715 710000 19                 TRA     s:15415
        19 001666   001715 710000 19                 TRA     s:15415
        19 001667   001715 710000 19                 TRA     s:15415
        19 001670   001715 710000 19                 TRA     s:15415
        19 001671   001715 710000 19                 TRA     s:15415
        19 001672   001715 710000 19                 TRA     s:15415
        19 001673   001715 710000 19                 TRA     s:15415
        19 001674   001715 710000 19                 TRA     s:15415
        19 001675   001715 710000 19                 TRA     s:15415
PL6.E3A0      #001=Z8EV$CONVERT_ROUND_ON_SIZE File=Z8EV.:Z8A6TSI                 SAT 08/09/97 12:49 Page:77
        19 001676   001715 710000 19                 TRA     s:15415
        19 001677   001715 710000 19                 TRA     s:15415
        19 001700   001715 710000 19                 TRA     s:15415
        19 001701   001715 710000 19                 TRA     s:15415
        19 001702   001715 710000 19                 TRA     s:15415
        19 001703   001715 710000 19                 TRA     s:15415
        19 001704   001715 710000 19                 TRA     s:15415
        19 001705   001715 710000 19                 TRA     s:15415
        19 001706   001715 710000 19                 TRA     s:15415
        19 001707   001715 710000 19                 TRA     s:15415
        19 001710   001715 710000 19                 TRA     s:15415
        19 001711   001712 710000 19                 TRA     s:15411

      254    15408    4                    CASE (%RSV_WRD_HIGH_VALUES, %RSV_WRD_LOW_VALUES,

      255    15409    4                          %RSV_WRD_QUOTES,      %RSV_WRD_SPACES,
      256    15410    4                          %RSV_WRD_ZEROES);
      257    15411    4                      ALL = TRUE;

  15411 19 001712   400000 236003                    LDQ     -131072,DU
        19 001713   200041 756100                    STQ     ALL,,AUTO
        19 001714   013077 710000 19                 TRA     s:16356

      258    15412
      259    15413    4                    CASE (ELSE);

      260    15414    4                      /* No all */;
      261    15415    4                  END;

  15415 19 001715   013077 710000 19                 TRA     s:16356

      262    15416
      263    15417    3              CASE(%TYA);

      264    15418    3                ALL = FROM$ -> LX_ETT_ITEM.B.ALL;

  15418 19 001716   300000 236100                    LDQ     0,,PR3
PL6.E3A0      #001=Z8EV$CONVERT_ROUND_ON_SIZE File=Z8EV.:Z8A6TSI                 SAT 08/09/97 12:49 Page:78
        19 001717   000025 736000                    QLS     21
        19 001720   400000 376003                    ANQ     -131072,DU
        19 001721   200041 756100                    STQ     ALL,,AUTO

      265    15419    3            END; /* Case of converting to alpha */

  15419 19 001722   013077 710000 19                 TRA     s:16356

      266    15420        %EJECT;
PL6.E3A0      #001=Z8EV$CONVERT_ROUND_ON_SIZE File=Z8EV.:Z8A6TSI                 SAT 08/09/97 12:49 Page:79
      267    15421    2          CASE (%TYE);

      268    15422    3            DO CASE(FROM$ -> LX_ITEM.TYPE);

  15422 19 001723   200034 473500                    LDP3    FROM$,,AUTO
        19 001724   300004 235100                    LDA     4,,PR3
        19 001725   000006 135007                    SBLA    6,DL
        19 001726   000010 115007                    CMPA    8,DL
        19 001727   001731 602005 19                 TNC     s:15422+6,AL
        19 001730   002447 710000 19                 TRA     s:15449
        19 001731   001741 710000 19                 TRA     s:15424
        19 001732   002447 710000 19                 TRA     s:15449
        19 001733   002447 710000 19                 TRA     s:15449
        19 001734   002447 710000 19                 TRA     s:15449
        19 001735   002447 710000 19                 TRA     s:15449
        19 001736   001746 710000 19                 TRA     s:15427
        19 001737   002447 710000 19                 TRA     s:15449
        19 001740   002004 710000 19                 TRA     s:15433

      269    15423    3              CASE (%TYE);

      270    15424    3                ALL = FROM$ -> LX_ETT_ITEM.B.ALL;

  15424 19 001741   300000 236100                    LDQ     0,,PR3
        19 001742   000025 736000                    QLS     21
        19 001743   400000 376003                    ANQ     -131072,DU
        19 001744   200041 756100                    STQ     ALL,,AUTO
        19 001745   013077 710000 19                 TRA     s:16356

      271    15425
      272    15426    3              CASE (%TYF); /* Convert EBCDIC numeric to alphanumeric */

      273    15427    3                CALL Z8AU$TYPE_DESCRIPTOR(ETT$$, TYPE_DESC);

  15427 19 001746   200044 634500                    EPPR4   TYPE_DESC,,AUTO
        19 001747   200103 454500                    STP4    ROPCON+3,,AUTO
        19 001750   200032 635500                    EPPR5   ETT$$,,AUTO
PL6.E3A0      #001=Z8EV$CONVERT_ROUND_ON_SIZE File=Z8EV.:Z8A6TSI                 SAT 08/09/97 12:49 Page:80
        19 001751   200102 455500                    STP5    ROPCON+2,,AUTO
        19 001752   200102 630500                    EPPR0   ROPCON+2,,AUTO
        19 001753   000000 631400 20                 EPPR1   0
        19 001754   000000 701000 xent               TSX1    Z8AU$TYPE_DESCRIPTOR
        19 001755   000000 011000                    NOP     0

      274    15428    3                IF TYPE_DESC.DESC.NDSC.TN = %NDSC4 /* Overpunched */ THEN

  15428 19 001756   200045 236100                    LDQ     TYPE_DESC+1,,AUTO
        19 001757   040000 316007                    CANQ    16384,DL
        19 001760   001777 600000 19                 TZE     s:15430

      275    15429    3                  CALL Z8AF$FORME_ON_SIZE(%CVOD4, ETT$$, 0, ETT$$, ON_SIZE);

  15429 19 001761   200042 630500                    EPPR0   ON_SIZE,,AUTO
        19 001762   200106 450500                    STP0    ROPCON+6,,AUTO
        19 001763   200032 631500                    EPPR1   ETT$$,,AUTO
        19 001764   200105 451500                    STP1    ROPCON+5,,AUTO
        19 001765   000007 236000 20                 LDQ     7
        19 001766   200104 756100                    STQ     ROPCON+4,,AUTO
        19 001767   200032 633500                    EPPR3   ETT$$,,AUTO
        19 001770   200103 453500                    STP3    ROPCON+3,,AUTO
        19 001771   000035 236000 20                 LDQ     29
        19 001772   200102 756100                    STQ     ROPCON+2,,AUTO
        19 001773   200102 630500                    EPPR0   ROPCON+2,,AUTO
        19 001774   000003 631400 20                 EPPR1   3
        19 001775   000000 701000 xent               TSX1    Z8AF$FORME_ON_SIZE
        19 001776   000000 011000                    NOP     0

      276    15430    3                CALL TYD_TO_TYA(ETT$$);

  15430 19 001777   200032 630500                    EPPR0   ETT$$,,AUTO
        19 002000   200073 450500                    STP0    TEMP_LX_ITEM1+9,,AUTO
        19 002001   000003 701000 19                 TSX1    TYD_TO_TYA
        19 002002   000000 011000                    NOP     0
        19 002003   013077 710000 19                 TRA     s:16356

PL6.E3A0      #001=Z8EV$CONVERT_ROUND_ON_SIZE File=Z8EV.:Z8A6TSI                 SAT 08/09/97 12:49 Page:81
      277    15431
      278    15432    3              CASE(%TYT); /* Convert typeless to EBCDIC */

      279    15433    3                CALL Z8EC$CREATE_CONST(%TYE, FROM$, ETT$$);

  15433 19 002004   200032 634500                    EPPR4   ETT$$,,AUTO
        19 002005   200104 454500                    STP4    ROPCON+4,,AUTO
        19 002006   200034 635500                    EPPR5   FROM$,,AUTO
        19 002007   200103 455500                    STP5    ROPCON+3,,AUTO
        19 002010   000047 236000 20                 LDQ     39
        19 002011   200102 756100                    STQ     ROPCON+2,,AUTO
        19 002012   200102 630500                    EPPR0   ROPCON+2,,AUTO
        19 002013   000013 631400 20                 EPPR1   11
        19 002014   000000 701000 xent               TSX1    Z8EC$CREATE_CONST
        19 002015   000000 011000                    NOP     0

      280    15434
      281    15435    3                IF FROM$ -> LX_TERMINAL.B.ALL THEN

  15435 19 002016   200034 470500                    LDP0    FROM$,,AUTO
        19 002017   000000 236100                    LDQ     0,,PR0
        19 002020   040000 316007                    CANQ    16384,DL
        19 002021   002025 600000 19                 TZE     s:15438

      282    15436    3                  ALL = TRUE;

  15436 19 002022   400000 236003                    LDQ     -131072,DU
        19 002023   200041 756100                    STQ     ALL,,AUTO
        19 002024   013077 710000 19                 TRA     s:16356

      283    15437    3                ELSE
      284    15438    4                  DO CASE (FROM$ -> LX_TERMINAL.SYMBOL);

  15438 19 002025   000003 235100                    LDA     3,,PR0
        19 002026   000351 135007                    SBLA    233,DL
        19 002027   000411 115007                    CMPA    265,DL
        19 002030   002032 602005 19                 TNC     s:15438+5,AL
PL6.E3A0      #001=Z8EV$CONVERT_ROUND_ON_SIZE File=Z8EV.:Z8A6TSI                 SAT 08/09/97 12:49 Page:82
        19 002031   013077 710000 19                 TRA     s:16356
        19 002032   002443 710000 19                 TRA     s:15442
        19 002033   002446 710000 19                 TRA     s:15446
        19 002034   002446 710000 19                 TRA     s:15446
        19 002035   002446 710000 19                 TRA     s:15446
        19 002036   002446 710000 19                 TRA     s:15446
        19 002037   002446 710000 19                 TRA     s:15446
        19 002040   002446 710000 19                 TRA     s:15446
        19 002041   002446 710000 19                 TRA     s:15446
        19 002042   002446 710000 19                 TRA     s:15446
        19 002043   002446 710000 19                 TRA     s:15446
        19 002044   002446 710000 19                 TRA     s:15446
        19 002045   002446 710000 19                 TRA     s:15446
        19 002046   002446 710000 19                 TRA     s:15446
        19 002047   002446 710000 19                 TRA     s:15446
        19 002050   002446 710000 19                 TRA     s:15446
        19 002051   002446 710000 19                 TRA     s:15446
        19 002052   002446 710000 19                 TRA     s:15446
        19 002053   002446 710000 19                 TRA     s:15446
        19 002054   002446 710000 19                 TRA     s:15446
        19 002055   002446 710000 19                 TRA     s:15446
        19 002056   002446 710000 19                 TRA     s:15446
        19 002057   002446 710000 19                 TRA     s:15446
        19 002060   002446 710000 19                 TRA     s:15446
        19 002061   002446 710000 19                 TRA     s:15446
        19 002062   002446 710000 19                 TRA     s:15446
        19 002063   002446 710000 19                 TRA     s:15446
        19 002064   002446 710000 19                 TRA     s:15446
        19 002065   002446 710000 19                 TRA     s:15446
        19 002066   002446 710000 19                 TRA     s:15446
        19 002067   002446 710000 19                 TRA     s:15446
        19 002070   002446 710000 19                 TRA     s:15446
        19 002071   002446 710000 19                 TRA     s:15446
        19 002072   002446 710000 19                 TRA     s:15446
        19 002073   002446 710000 19                 TRA     s:15446
        19 002074   002446 710000 19                 TRA     s:15446
        19 002075   002446 710000 19                 TRA     s:15446
PL6.E3A0      #001=Z8EV$CONVERT_ROUND_ON_SIZE File=Z8EV.:Z8A6TSI                 SAT 08/09/97 12:49 Page:83
        19 002076   002446 710000 19                 TRA     s:15446
        19 002077   002446 710000 19                 TRA     s:15446
        19 002100   002446 710000 19                 TRA     s:15446
        19 002101   002446 710000 19                 TRA     s:15446
        19 002102   002446 710000 19                 TRA     s:15446
        19 002103   002446 710000 19                 TRA     s:15446
        19 002104   002446 710000 19                 TRA     s:15446
        19 002105   002446 710000 19                 TRA     s:15446
        19 002106   002446 710000 19                 TRA     s:15446
        19 002107   002446 710000 19                 TRA     s:15446
        19 002110   002446 710000 19                 TRA     s:15446
        19 002111   002446 710000 19                 TRA     s:15446
        19 002112   002446 710000 19                 TRA     s:15446
        19 002113   002446 710000 19                 TRA     s:15446
        19 002114   002443 710000 19                 TRA     s:15442
        19 002115   002446 710000 19                 TRA     s:15446
        19 002116   002446 710000 19                 TRA     s:15446
        19 002117   002446 710000 19                 TRA     s:15446
        19 002120   002446 710000 19                 TRA     s:15446
        19 002121   002446 710000 19                 TRA     s:15446
        19 002122   002446 710000 19                 TRA     s:15446
        19 002123   002446 710000 19                 TRA     s:15446
        19 002124   002446 710000 19                 TRA     s:15446
        19 002125   002446 710000 19                 TRA     s:15446
        19 002126   002446 710000 19                 TRA     s:15446
        19 002127   002446 710000 19                 TRA     s:15446
        19 002130   002446 710000 19                 TRA     s:15446
        19 002131   002446 710000 19                 TRA     s:15446
        19 002132   002446 710000 19                 TRA     s:15446
        19 002133   002446 710000 19                 TRA     s:15446
        19 002134   002446 710000 19                 TRA     s:15446
        19 002135   002446 710000 19                 TRA     s:15446
        19 002136   002446 710000 19                 TRA     s:15446
        19 002137   002446 710000 19                 TRA     s:15446
        19 002140   002446 710000 19                 TRA     s:15446
        19 002141   002446 710000 19                 TRA     s:15446
        19 002142   002446 710000 19                 TRA     s:15446
PL6.E3A0      #001=Z8EV$CONVERT_ROUND_ON_SIZE File=Z8EV.:Z8A6TSI                 SAT 08/09/97 12:49 Page:84
        19 002143   002446 710000 19                 TRA     s:15446
        19 002144   002446 710000 19                 TRA     s:15446
        19 002145   002446 710000 19                 TRA     s:15446
        19 002146   002446 710000 19                 TRA     s:15446
        19 002147   002446 710000 19                 TRA     s:15446
        19 002150   002446 710000 19                 TRA     s:15446
        19 002151   002446 710000 19                 TRA     s:15446
        19 002152   002446 710000 19                 TRA     s:15446
        19 002153   002446 710000 19                 TRA     s:15446
        19 002154   002446 710000 19                 TRA     s:15446
        19 002155   002446 710000 19                 TRA     s:15446
        19 002156   002446 710000 19                 TRA     s:15446
        19 002157   002446 710000 19                 TRA     s:15446
        19 002160   002446 710000 19                 TRA     s:15446
        19 002161   002446 710000 19                 TRA     s:15446
        19 002162   002446 710000 19                 TRA     s:15446
        19 002163   002446 710000 19                 TRA     s:15446
        19 002164   002446 710000 19                 TRA     s:15446
        19 002165   002446 710000 19                 TRA     s:15446
        19 002166   002446 710000 19                 TRA     s:15446
        19 002167   002446 710000 19                 TRA     s:15446
        19 002170   002446 710000 19                 TRA     s:15446
        19 002171   002446 710000 19                 TRA     s:15446
        19 002172   002446 710000 19                 TRA     s:15446
        19 002173   002446 710000 19                 TRA     s:15446
        19 002174   002446 710000 19                 TRA     s:15446
        19 002175   002446 710000 19                 TRA     s:15446
        19 002176   002446 710000 19                 TRA     s:15446
        19 002177   002446 710000 19                 TRA     s:15446
        19 002200   002446 710000 19                 TRA     s:15446
        19 002201   002446 710000 19                 TRA     s:15446
        19 002202   002446 710000 19                 TRA     s:15446
        19 002203   002446 710000 19                 TRA     s:15446
        19 002204   002446 710000 19                 TRA     s:15446
        19 002205   002446 710000 19                 TRA     s:15446
        19 002206   002446 710000 19                 TRA     s:15446
        19 002207   002446 710000 19                 TRA     s:15446
PL6.E3A0      #001=Z8EV$CONVERT_ROUND_ON_SIZE File=Z8EV.:Z8A6TSI                 SAT 08/09/97 12:49 Page:85
        19 002210   002446 710000 19                 TRA     s:15446
        19 002211   002446 710000 19                 TRA     s:15446
        19 002212   002446 710000 19                 TRA     s:15446
        19 002213   002446 710000 19                 TRA     s:15446
        19 002214   002446 710000 19                 TRA     s:15446
        19 002215   002446 710000 19                 TRA     s:15446
        19 002216   002446 710000 19                 TRA     s:15446
        19 002217   002446 710000 19                 TRA     s:15446
        19 002220   002446 710000 19                 TRA     s:15446
        19 002221   002446 710000 19                 TRA     s:15446
        19 002222   002446 710000 19                 TRA     s:15446
        19 002223   002446 710000 19                 TRA     s:15446
        19 002224   002443 710000 19                 TRA     s:15442
        19 002225   002446 710000 19                 TRA     s:15446
        19 002226   002446 710000 19                 TRA     s:15446
        19 002227   002446 710000 19                 TRA     s:15446
        19 002230   002446 710000 19                 TRA     s:15446
        19 002231   002446 710000 19                 TRA     s:15446
        19 002232   002446 710000 19                 TRA     s:15446
        19 002233   002446 710000 19                 TRA     s:15446
        19 002234   002446 710000 19                 TRA     s:15446
        19 002235   002446 710000 19                 TRA     s:15446
        19 002236   002446 710000 19                 TRA     s:15446
        19 002237   002446 710000 19                 TRA     s:15446
        19 002240   002446 710000 19                 TRA     s:15446
        19 002241   002446 710000 19                 TRA     s:15446
        19 002242   002446 710000 19                 TRA     s:15446
        19 002243   002446 710000 19                 TRA     s:15446
        19 002244   002446 710000 19                 TRA     s:15446
        19 002245   002446 710000 19                 TRA     s:15446
        19 002246   002446 710000 19                 TRA     s:15446
        19 002247   002446 710000 19                 TRA     s:15446
        19 002250   002446 710000 19                 TRA     s:15446
        19 002251   002446 710000 19                 TRA     s:15446
        19 002252   002446 710000 19                 TRA     s:15446
        19 002253   002446 710000 19                 TRA     s:15446
        19 002254   002446 710000 19                 TRA     s:15446
PL6.E3A0      #001=Z8EV$CONVERT_ROUND_ON_SIZE File=Z8EV.:Z8A6TSI                 SAT 08/09/97 12:49 Page:86
        19 002255   002446 710000 19                 TRA     s:15446
        19 002256   002446 710000 19                 TRA     s:15446
        19 002257   002446 710000 19                 TRA     s:15446
        19 002260   002446 710000 19                 TRA     s:15446
        19 002261   002446 710000 19                 TRA     s:15446
        19 002262   002446 710000 19                 TRA     s:15446
        19 002263   002446 710000 19                 TRA     s:15446
        19 002264   002446 710000 19                 TRA     s:15446
        19 002265   002446 710000 19                 TRA     s:15446
        19 002266   002446 710000 19                 TRA     s:15446
        19 002267   002446 710000 19                 TRA     s:15446
        19 002270   002446 710000 19                 TRA     s:15446
        19 002271   002446 710000 19                 TRA     s:15446
        19 002272   002446 710000 19                 TRA     s:15446
        19 002273   002446 710000 19                 TRA     s:15446
        19 002274   002446 710000 19                 TRA     s:15446
        19 002275   002446 710000 19                 TRA     s:15446
        19 002276   002446 710000 19                 TRA     s:15446
        19 002277   002446 710000 19                 TRA     s:15446
        19 002300   002446 710000 19                 TRA     s:15446
        19 002301   002446 710000 19                 TRA     s:15446
        19 002302   002446 710000 19                 TRA     s:15446
        19 002303   002446 710000 19                 TRA     s:15446
        19 002304   002446 710000 19                 TRA     s:15446
        19 002305   002446 710000 19                 TRA     s:15446
        19 002306   002446 710000 19                 TRA     s:15446
        19 002307   002446 710000 19                 TRA     s:15446
        19 002310   002446 710000 19                 TRA     s:15446
        19 002311   002446 710000 19                 TRA     s:15446
        19 002312   002446 710000 19                 TRA     s:15446
        19 002313   002446 710000 19                 TRA     s:15446
        19 002314   002446 710000 19                 TRA     s:15446
        19 002315   002446 710000 19                 TRA     s:15446
        19 002316   002446 710000 19                 TRA     s:15446
        19 002317   002446 710000 19                 TRA     s:15446
        19 002320   002446 710000 19                 TRA     s:15446
        19 002321   002446 710000 19                 TRA     s:15446
PL6.E3A0      #001=Z8EV$CONVERT_ROUND_ON_SIZE File=Z8EV.:Z8A6TSI                 SAT 08/09/97 12:49 Page:87
        19 002322   002446 710000 19                 TRA     s:15446
        19 002323   002446 710000 19                 TRA     s:15446
        19 002324   002446 710000 19                 TRA     s:15446
        19 002325   002446 710000 19                 TRA     s:15446
        19 002326   002446 710000 19                 TRA     s:15446
        19 002327   002446 710000 19                 TRA     s:15446
        19 002330   002446 710000 19                 TRA     s:15446
        19 002331   002443 710000 19                 TRA     s:15442
        19 002332   002446 710000 19                 TRA     s:15446
        19 002333   002446 710000 19                 TRA     s:15446
        19 002334   002446 710000 19                 TRA     s:15446
        19 002335   002446 710000 19                 TRA     s:15446
        19 002336   002446 710000 19                 TRA     s:15446
        19 002337   002446 710000 19                 TRA     s:15446
        19 002340   002446 710000 19                 TRA     s:15446
        19 002341   002446 710000 19                 TRA     s:15446
        19 002342   002446 710000 19                 TRA     s:15446
        19 002343   002446 710000 19                 TRA     s:15446
        19 002344   002446 710000 19                 TRA     s:15446
        19 002345   002446 710000 19                 TRA     s:15446
        19 002346   002446 710000 19                 TRA     s:15446
        19 002347   002446 710000 19                 TRA     s:15446
        19 002350   002446 710000 19                 TRA     s:15446
        19 002351   002446 710000 19                 TRA     s:15446
        19 002352   002446 710000 19                 TRA     s:15446
        19 002353   002446 710000 19                 TRA     s:15446
        19 002354   002446 710000 19                 TRA     s:15446
        19 002355   002446 710000 19                 TRA     s:15446
        19 002356   002446 710000 19                 TRA     s:15446
        19 002357   002446 710000 19                 TRA     s:15446
        19 002360   002446 710000 19                 TRA     s:15446
        19 002361   002446 710000 19                 TRA     s:15446
        19 002362   002446 710000 19                 TRA     s:15446
        19 002363   002446 710000 19                 TRA     s:15446
        19 002364   002446 710000 19                 TRA     s:15446
        19 002365   002446 710000 19                 TRA     s:15446
        19 002366   002446 710000 19                 TRA     s:15446
PL6.E3A0      #001=Z8EV$CONVERT_ROUND_ON_SIZE File=Z8EV.:Z8A6TSI                 SAT 08/09/97 12:49 Page:88
        19 002367   002446 710000 19                 TRA     s:15446
        19 002370   002446 710000 19                 TRA     s:15446
        19 002371   002446 710000 19                 TRA     s:15446
        19 002372   002446 710000 19                 TRA     s:15446
        19 002373   002446 710000 19                 TRA     s:15446
        19 002374   002446 710000 19                 TRA     s:15446
        19 002375   002446 710000 19                 TRA     s:15446
        19 002376   002446 710000 19                 TRA     s:15446
        19 002377   002446 710000 19                 TRA     s:15446
        19 002400   002446 710000 19                 TRA     s:15446
        19 002401   002446 710000 19                 TRA     s:15446
        19 002402   002446 710000 19                 TRA     s:15446
        19 002403   002446 710000 19                 TRA     s:15446
        19 002404   002446 710000 19                 TRA     s:15446
        19 002405   002446 710000 19                 TRA     s:15446
        19 002406   002446 710000 19                 TRA     s:15446
        19 002407   002446 710000 19                 TRA     s:15446
        19 002410   002446 710000 19                 TRA     s:15446
        19 002411   002446 710000 19                 TRA     s:15446
        19 002412   002446 710000 19                 TRA     s:15446
        19 002413   002446 710000 19                 TRA     s:15446
        19 002414   002446 710000 19                 TRA     s:15446
        19 002415   002446 710000 19                 TRA     s:15446
        19 002416   002446 710000 19                 TRA     s:15446
        19 002417   002446 710000 19                 TRA     s:15446
        19 002420   002446 710000 19                 TRA     s:15446
        19 002421   002446 710000 19                 TRA     s:15446
        19 002422   002446 710000 19                 TRA     s:15446
        19 002423   002446 710000 19                 TRA     s:15446
        19 002424   002446 710000 19                 TRA     s:15446
        19 002425   002446 710000 19                 TRA     s:15446
        19 002426   002446 710000 19                 TRA     s:15446
        19 002427   002446 710000 19                 TRA     s:15446
        19 002430   002446 710000 19                 TRA     s:15446
        19 002431   002446 710000 19                 TRA     s:15446
        19 002432   002446 710000 19                 TRA     s:15446
        19 002433   002446 710000 19                 TRA     s:15446
PL6.E3A0      #001=Z8EV$CONVERT_ROUND_ON_SIZE File=Z8EV.:Z8A6TSI                 SAT 08/09/97 12:49 Page:89
        19 002434   002446 710000 19                 TRA     s:15446
        19 002435   002446 710000 19                 TRA     s:15446
        19 002436   002446 710000 19                 TRA     s:15446
        19 002437   002446 710000 19                 TRA     s:15446
        19 002440   002446 710000 19                 TRA     s:15446
        19 002441   002446 710000 19                 TRA     s:15446
        19 002442   002443 710000 19                 TRA     s:15442

      285    15439    4                    CASE (%RSV_WRD_HIGH_VALUES, %RSV_WRD_LOW_VALUES,

      286    15440    4                          %RSV_WRD_QUOTES,      %RSV_WRD_SPACES,
      287    15441    4                          %RSV_WRD_ZEROES);
      288    15442    4                      ALL = TRUE;

  15442 19 002443   400000 236003                    LDQ     -131072,DU
        19 002444   200041 756100                    STQ     ALL,,AUTO
        19 002445   013077 710000 19                 TRA     s:16356

      289    15443
      290    15444    4                    CASE (ELSE);

      291    15445    4                      /* No all */;
      292    15446    4                  END;

  15446 19 002446   013077 710000 19                 TRA     s:16356

      293    15447
      294    15448    3              CASE (ELSE); /* Convert other type to EBCDIC */

      295    15449    3                CALL Z8EV$CONVERT_ON_SIZE(%TYA, FROM$, RETURN$, ON_SIZE);

  15449 19 002447   200042 634500                    EPPR4   ON_SIZE,,AUTO
        19 002450   200105 454500                    STP4    ROPCON+5,,AUTO
        19 002451   200005 236100                    LDQ     @RETURN$,,AUTO
        19 002452   200104 756100                    STQ     ROPCON+4,,AUTO
        19 002453   200034 635500                    EPPR5   FROM$,,AUTO
        19 002454   200103 455500                    STP5    ROPCON+3,,AUTO
PL6.E3A0      #001=Z8EV$CONVERT_ROUND_ON_SIZE File=Z8EV.:Z8A6TSI                 SAT 08/09/97 12:49 Page:90
        19 002455   000045 236000 20                 LDQ     37
        19 002456   200102 756100                    STQ     ROPCON+2,,AUTO
        19 002457   200102 630500                    EPPR0   ROPCON+2,,AUTO
        19 002460   000012 631400 20                 EPPR1   10
        19 002461   000371 701000 19                 TSX1    s:15302
        19 002462   000000 011000                    NOP     0

      296    15450    3                ETT$$ = RETURN$ -> LX_ETT_ITEM.ETT$;

  15450 19 002463   200005 470500                    LDP0    @RETURN$,,AUTO
        19 002464   000000 471500                    LDP1    0,,PR0
        19 002465   100001 236100                    LDQ     1,,PR1
        19 002466   200032 756100                    STQ     ETT$$,,AUTO

      297    15451    3                CALL Z8CO$CREATE_LIBRARY_BASE(%OP_ASCII_TO_EBCDIC, TABLE_ETT$);

  15451 19 002467   200033 631500                    EPPR1   TABLE_ETT$,,AUTO
        19 002470   200103 451500                    STP1    ROPCON+3,,AUTO
        19 002471   000051 236000 20                 LDQ     41
        19 002472   200102 756100                    STQ     ROPCON+2,,AUTO
        19 002473   200102 630500                    EPPR0   ROPCON+2,,AUTO
        19 002474   000000 631400 20                 EPPR1   0
        19 002475   000000 701000 xent               TSX1    Z8CO$CREATE_LIBRARY_BASE
        19 002476   000000 011000                    NOP     0

      298    15452    3                CALL Z8AF$FORME_ON_SIZE(%CVT, ETT$$, TABLE_ETT$, ETT$$, ON_SIZE);

  15452 19 002477   200042 630500                    EPPR0   ON_SIZE,,AUTO
        19 002500   200106 450500                    STP0    ROPCON+6,,AUTO
        19 002501   200032 631500                    EPPR1   ETT$$,,AUTO
        19 002502   200105 451500                    STP1    ROPCON+5,,AUTO
        19 002503   200033 633500                    EPPR3   TABLE_ETT$,,AUTO
        19 002504   200104 453500                    STP3    ROPCON+4,,AUTO
        19 002505   200032 634500                    EPPR4   ETT$$,,AUTO
        19 002506   200103 454500                    STP4    ROPCON+3,,AUTO
        19 002507   000023 236000 20                 LDQ     19
        19 002510   200102 756100                    STQ     ROPCON+2,,AUTO
PL6.E3A0      #001=Z8EV$CONVERT_ROUND_ON_SIZE File=Z8EV.:Z8A6TSI                 SAT 08/09/97 12:49 Page:91
        19 002511   200102 630500                    EPPR0   ROPCON+2,,AUTO
        19 002512   000003 631400 20                 EPPR1   3
        19 002513   000000 701000 xent               TSX1    Z8AF$FORME_ON_SIZE
        19 002514   000000 011000                    NOP     0

      299    15453    3                ALL = RETURN$ -> LX_ETT_ITEM.B.ALL;

  15453 19 002515   200005 470500                    LDP0    @RETURN$,,AUTO
        19 002516   000000 471500                    LDP1    0,,PR0
        19 002517   100000 236100                    LDQ     0,,PR1
        19 002520   000025 736000                    QLS     21
        19 002521   400000 376003                    ANQ     -131072,DU
        19 002522   200041 756100                    STQ     ALL,,AUTO

      300    15454    3            END;

  15454 19 002523   013077 710000 19                 TRA     s:16356

      301    15455
      302    15456    2          CASE (%TYF);

      303    15457    3            DO CASE(FROM$ -> LX_ITEM.TYPE);

  15457 19 002524   200034 473500                    LDP3    FROM$,,AUTO
        19 002525   300004 235100                    LDA     4,,PR3
        19 002526   000006 135007                    SBLA    6,DL
        19 002527   000010 115007                    CMPA    8,DL
        19 002530   002532 602005 19                 TNC     s:15457+6,AL
        19 002531   002662 710000 19                 TRA     s:15483
        19 002532   002542 710000 19                 TRA     s:15459
        19 002533   002662 710000 19                 TRA     s:15483
        19 002534   002662 710000 19                 TRA     s:15483
        19 002535   002662 710000 19                 TRA     s:15483
        19 002536   002662 710000 19                 TRA     s:15483
        19 002537   002726 710000 19                 TRA     s:15487
        19 002540   002662 710000 19                 TRA     s:15483
        19 002541   002561 710000 19                 TRA     s:15464
PL6.E3A0      #001=Z8EV$CONVERT_ROUND_ON_SIZE File=Z8EV.:Z8A6TSI                 SAT 08/09/97 12:49 Page:92

      304    15458    3              CASE (%TYE); /* Convert EBCDIC alphanumeric to numeric */

      305    15459    3                CALL Z8AF$FORME_ON_SIZE(%DAN, ETT$$, 0, ETT$$, ON_SIZE);

  15459 19 002542   200042 634500                    EPPR4   ON_SIZE,,AUTO
        19 002543   200106 454500                    STP4    ROPCON+6,,AUTO
        19 002544   200032 635500                    EPPR5   ETT$$,,AUTO
        19 002545   200105 455500                    STP5    ROPCON+5,,AUTO
        19 002546   000007 236000 20                 LDQ     7
        19 002547   200104 756100                    STQ     ROPCON+4,,AUTO
        19 002550   200032 636500                    EPPR6   ETT$$,,AUTO
        19 002551   200103 456500                    STP6    ROPCON+3,,AUTO
        19 002552   000047 236000 20                 LDQ     39
        19 002553   200102 756100                    STQ     ROPCON+2,,AUTO
        19 002554   200102 630500                    EPPR0   ROPCON+2,,AUTO
        19 002555   000003 631400 20                 EPPR1   3
        19 002556   000000 701000 xent               TSX1    Z8AF$FORME_ON_SIZE
        19 002557   000000 011000                    NOP     0
        19 002560   013077 710000 19                 TRA     s:16356

      306    15460
      307    15461    3              CASE (%TYF); /* No action needed */

      308    15462
      309    15463    3              CASE(%TYT); /* Convert typeless to EBCDIC numeric */

      310    15464    3                ALL = FROM$ -> LX_ETT_ITEM.B.ALL;

  15464 19 002561   300000 236100                    LDQ     0,,PR3
        19 002562   000025 736000                    QLS     21
        19 002563   400000 376003                    ANQ     -131072,DU
        19 002564   200041 756100                    STQ     ALL,,AUTO

      311    15465    3                IF ALL AND FROM$ -> LX_ITEM.SYMBOL ~= %RSV_WRD_ZEROES THEN

  15465 19 002565   200041 234100                    SZN     ALL,,AUTO
PL6.E3A0      #001=Z8EV$CONVERT_ROUND_ON_SIZE File=Z8EV.:Z8A6TSI                 SAT 08/09/97 12:49 Page:93
        19 002566   002647 605000 19                 TPL     s:15480
        19 002567   300003 235100                    LDA     3,,PR3
        19 002570   000761 115007                    CMPA    497,DL
        19 002571   002647 600000 19                 TZE     s:15480

      312    15466    4                  DO;

      313    15467    4                    CALL SEARCH (I, N, DIGIT_SCAN_TABLE, SUBSTR (FROM$ -> LX_ITEM.DNT$

  15467 19 002572   300002 474500                    LDP4    2,,PR3
        19 002573   400004 220100                    LDX0    4,,PR4
        19 002574   777776 621010                    EAX1    -2,X0
        19 002575   000000 164540                    TCT
        19 002576   400004 600011                    ADSC9   4,,PR4                   cn=3,n=*X1
        19 002577   000000 000000 xsym               ARG     DIGIT_SCAN_TABLE
        19 002600   200037 000100                    ARG     I,,AUTO
        19 002601   200037 235100                    LDA     I,,AUTO
        19 002602   000033 771000                    ARL     27
        19 002603   200040 755100                    STA     N,,AUTO
        19 002604   200037 551140                    STBA    I,'40'O,AUTO
        19 002605   002634 606400 19                 TTN     s:15478

      314    15468    4                       -> DNT.TEXT.NAME, 1, FROM$ -> LX_ITEM.DNT$ -> DNT.TEXT.LENGTH -
             15468                                 2))
      315    15469    5                      WHENRETURN DO; /* Non-digit found */

      316    15470    5                        CALL Z8AE$ERROR (%E$ONLY_UNSIGNED_TYA_TO_NUM,

  15470 19 002606   200034 236100                    LDQ     FROM$,,AUTO
        19 002607   000006 036003                    ADLQ    6,DU
        19 002610   200104 756100                    STQ     ROPCON+4,,AUTO
        19 002611   200034 236100                    LDQ     FROM$,,AUTO
        19 002612   000005 036003                    ADLQ    5,DU
        19 002613   000053 235000 20                 LDA     43
        19 002614   200102 757100                    STAQ    ROPCON+2,,AUTO
        19 002615   200102 630500                    EPPR0   ROPCON+2,,AUTO
        19 002616   000013 631400 20                 EPPR1   11
PL6.E3A0      #001=Z8EV$CONVERT_ROUND_ON_SIZE File=Z8EV.:Z8A6TSI                 SAT 08/09/97 12:49 Page:94
        19 002617   000000 701000 xent               TSX1    Z8AE$ERROR
        19 002620   000000 011000                    NOP     0

      317    15471    5                                         FROM$ -> LX_ITEM.LINE,
      318    15472    5                                         FROM$ -> LX_ITEM.COLUMN);
      319    15473    5                        LEX_SYMBOL.SIZE = 3;

  15473 19 002621   000003 235007                    LDA     3,DL
        19 002622   000010 755000 13                 STA     LEX_SYMBOL+8

      320    15474    5                        LEX_SYMBOL.SYMBOL = '"1"';

  15474 19 002623   040000 100400                    MLR     fill='040'O
        19 002624   000000 000003 18                 ADSC9   0                        cn=0,n=3
        19 002625   000011 000504 13                 ADSC9   LEX_SYMBOL+9             cn=0,n=324

      321    15475    5                        CALL Z8AH$SEARCH_;

  15475 19 002626   000006 631400 20                 EPPR1   6
        19 002627   000000 701000 xent               TSX1    Z8AH$SEARCH_
        19 002630   000000 011000                    NOP     0

      322    15476    5                        FROM$ -> LX_TERMINAL.DNT$ = DNT$;

  15476 19 002631   000000 236000 7                  LDQ     DNT$
        19 002632   200034 470500                    LDP0    FROM$,,AUTO
        19 002633   000002 756100                    STQ     2,,PR0

      323    15477    5                      END;

      324    15478    4                    CALL Z8EC$CREATE_CONST(%TYA, FROM$, ETT$$);

  15478 19 002634   200032 630500                    EPPR0   ETT$$,,AUTO
        19 002635   200104 450500                    STP0    ROPCON+4,,AUTO
        19 002636   200034 631500                    EPPR1   FROM$,,AUTO
        19 002637   200103 451500                    STP1    ROPCON+3,,AUTO
        19 002640   000045 236000 20                 LDQ     37
PL6.E3A0      #001=Z8EV$CONVERT_ROUND_ON_SIZE File=Z8EV.:Z8A6TSI                 SAT 08/09/97 12:49 Page:95
        19 002641   200102 756100                    STQ     ROPCON+2,,AUTO
        19 002642   200102 630500                    EPPR0   ROPCON+2,,AUTO
        19 002643   000013 631400 20                 EPPR1   11
        19 002644   000000 701000 xent               TSX1    Z8EC$CREATE_CONST
        19 002645   000000 011000                    NOP     0

      325    15479    4                  END;

  15479 19 002646   013077 710000 19                 TRA     s:16356

      326    15480    3                  ELSE CALL Z8EC$CREATE_CONST(%TYF, FROM$, ETT$$);

  15480 19 002647   200032 634500                    EPPR4   ETT$$,,AUTO
        19 002650   200104 454500                    STP4    ROPCON+4,,AUTO
        19 002651   200034 635500                    EPPR5   FROM$,,AUTO
        19 002652   200103 455500                    STP5    ROPCON+3,,AUTO
        19 002653   000055 236000 20                 LDQ     45
        19 002654   200102 756100                    STQ     ROPCON+2,,AUTO
        19 002655   200102 630500                    EPPR0   ROPCON+2,,AUTO
        19 002656   000013 631400 20                 EPPR1   11
        19 002657   000000 701000 xent               TSX1    Z8EC$CREATE_CONST
        19 002660   000000 011000                    NOP     0
        19 002661   013077 710000 19                 TRA     s:16356

      327    15481
      328    15482    3              CASE (ELSE); /* Convert other type to EBCDIC numeric */

      329    15483    3                CALL Z8EV$CONVERT_ON_SIZE(%TYD, FROM$, RETURN$, ON_SIZE);

  15483 19 002662   200042 634500                    EPPR4   ON_SIZE,,AUTO
        19 002663   200105 454500                    STP4    ROPCON+5,,AUTO
        19 002664   200005 236100                    LDQ     @RETURN$,,AUTO
        19 002665   200104 756100                    STQ     ROPCON+4,,AUTO
        19 002666   200034 635500                    EPPR5   FROM$,,AUTO
        19 002667   200103 455500                    STP5    ROPCON+3,,AUTO
        19 002670   000007 236000 20                 LDQ     7
        19 002671   200102 756100                    STQ     ROPCON+2,,AUTO
PL6.E3A0      #001=Z8EV$CONVERT_ROUND_ON_SIZE File=Z8EV.:Z8A6TSI                 SAT 08/09/97 12:49 Page:96
        19 002672   200102 630500                    EPPR0   ROPCON+2,,AUTO
        19 002673   000012 631400 20                 EPPR1   10
        19 002674   000371 701000 19                 TSX1    s:15302
        19 002675   000000 011000                    NOP     0

      330    15484    3                ETT$$ = RETURN$ -> LX_ETT_ITEM.ETT$;

  15484 19 002676   200005 470500                    LDP0    @RETURN$,,AUTO
        19 002677   000000 471500                    LDP1    0,,PR0
        19 002700   100001 236100                    LDQ     1,,PR1
        19 002701   200032 756100                    STQ     ETT$$,,AUTO

      331    15485    3                CALL Z8AF$FORME_ON_SIZE(%CVDF, ETT$$, 0, ETT$$, ON_SIZE);

  15485 19 002702   200042 631500                    EPPR1   ON_SIZE,,AUTO
        19 002703   200106 451500                    STP1    ROPCON+6,,AUTO
        19 002704   200032 633500                    EPPR3   ETT$$,,AUTO
        19 002705   200105 453500                    STP3    ROPCON+5,,AUTO
        19 002706   000007 236000 20                 LDQ     7
        19 002707   200104 756100                    STQ     ROPCON+4,,AUTO
        19 002710   200032 634500                    EPPR4   ETT$$,,AUTO
        19 002711   200103 454500                    STP4    ROPCON+3,,AUTO
        19 002712   000057 236000 20                 LDQ     47
        19 002713   200102 756100                    STQ     ROPCON+2,,AUTO
        19 002714   200102 630500                    EPPR0   ROPCON+2,,AUTO
        19 002715   000003 631400 20                 EPPR1   3
        19 002716   000000 701000 xent               TSX1    Z8AF$FORME_ON_SIZE
        19 002717   000000 011000                    NOP     0

      332    15486    3                ALL = RETURN$ -> LX_ETT_ITEM.B.ALL;

  15486 19 002720   200005 470500                    LDP0    @RETURN$,,AUTO
        19 002721   000000 471500                    LDP1    0,,PR0
        19 002722   100000 236100                    LDQ     0,,PR1
        19 002723   000025 736000                    QLS     21
        19 002724   400000 376003                    ANQ     -131072,DU
        19 002725   200041 756100                    STQ     ALL,,AUTO
PL6.E3A0      #001=Z8EV$CONVERT_ROUND_ON_SIZE File=Z8EV.:Z8A6TSI                 SAT 08/09/97 12:49 Page:97

      333    15487    3            END;

  15487 19 002726   013077 710000 19                 TRA     s:16356

      334    15488
      335    15489    2          CASE (%TYB);

      336    15490    3            DO CASE (FROM$ -> LX_ITEM.TYPE);

  15490 19 002727   200034 473500                    LDP3    FROM$,,AUTO
        19 002730   300004 235100                    LDA     4,,PR3
        19 002731   000014 135007                    SBLA    12,DL
        19 002732   000002 115007                    CMPA    2,DL
        19 002733   002735 602005 19                 TNC     s:15490+6,AL
        19 002734   003407 710000 19                 TRA     s:15511
        19 002735   002737 710000 19                 TRA     s:15492
        19 002736   002744 710000 19                 TRA     s:15495

      337    15491    3              CASE (%TYB);

      338    15492    3                ALL = FROM$ -> LX_ETT_ITEM.B.ALL;

  15492 19 002737   300000 236100                    LDQ     0,,PR3
        19 002740   000025 736000                    QLS     21
        19 002741   400000 376003                    ANQ     -131072,DU
        19 002742   200041 756100                    STQ     ALL,,AUTO
        19 002743   013077 710000 19                 TRA     s:16356

      339    15493
      340    15494    3              CASE(%TYT); /* Convert typeless to GBCD */

      341    15495    3                CALL Z8EC$CREATE_CONST(%TYB, FROM$, ETT$$);

  15495 19 002744   200032 634500                    EPPR4   ETT$$,,AUTO
        19 002745   200104 454500                    STP4    ROPCON+4,,AUTO
        19 002746   200034 635500                    EPPR5   FROM$,,AUTO
PL6.E3A0      #001=Z8EV$CONVERT_ROUND_ON_SIZE File=Z8EV.:Z8A6TSI                 SAT 08/09/97 12:49 Page:98
        19 002747   200103 455500                    STP5    ROPCON+3,,AUTO
        19 002750   000061 236000 20                 LDQ     49
        19 002751   200102 756100                    STQ     ROPCON+2,,AUTO
        19 002752   200102 630500                    EPPR0   ROPCON+2,,AUTO
        19 002753   000013 631400 20                 EPPR1   11
        19 002754   000000 701000 xent               TSX1    Z8EC$CREATE_CONST
        19 002755   000000 011000                    NOP     0

      342    15496
      343    15497    3                IF FROM$ -> LX_TERMINAL.B.ALL THEN

  15497 19 002756   200034 470500                    LDP0    FROM$,,AUTO
        19 002757   000000 236100                    LDQ     0,,PR0
        19 002760   040000 316007                    CANQ    16384,DL
        19 002761   002765 600000 19                 TZE     s:15500

      344    15498    3                  ALL = TRUE;

  15498 19 002762   400000 236003                    LDQ     -131072,DU
        19 002763   200041 756100                    STQ     ALL,,AUTO
        19 002764   013077 710000 19                 TRA     s:16356

      345    15499    3                ELSE
      346    15500    4                  DO CASE (FROM$ -> LX_TERMINAL.SYMBOL);

  15500 19 002765   000003 235100                    LDA     3,,PR0
        19 002766   000351 135007                    SBLA    233,DL
        19 002767   000411 115007                    CMPA    265,DL
        19 002770   002772 602005 19                 TNC     s:15500+5,AL
        19 002771   013077 710000 19                 TRA     s:16356
        19 002772   003403 710000 19                 TRA     s:15504
        19 002773   003406 710000 19                 TRA     s:15508
        19 002774   003406 710000 19                 TRA     s:15508
        19 002775   003406 710000 19                 TRA     s:15508
        19 002776   003406 710000 19                 TRA     s:15508
        19 002777   003406 710000 19                 TRA     s:15508
        19 003000   003406 710000 19                 TRA     s:15508
PL6.E3A0      #001=Z8EV$CONVERT_ROUND_ON_SIZE File=Z8EV.:Z8A6TSI                 SAT 08/09/97 12:49 Page:99
        19 003001   003406 710000 19                 TRA     s:15508
        19 003002   003406 710000 19                 TRA     s:15508
        19 003003   003406 710000 19                 TRA     s:15508
        19 003004   003406 710000 19                 TRA     s:15508
        19 003005   003406 710000 19                 TRA     s:15508
        19 003006   003406 710000 19                 TRA     s:15508
        19 003007   003406 710000 19                 TRA     s:15508
        19 003010   003406 710000 19                 TRA     s:15508
        19 003011   003406 710000 19                 TRA     s:15508
        19 003012   003406 710000 19                 TRA     s:15508
        19 003013   003406 710000 19                 TRA     s:15508
        19 003014   003406 710000 19                 TRA     s:15508
        19 003015   003406 710000 19                 TRA     s:15508
        19 003016   003406 710000 19                 TRA     s:15508
        19 003017   003406 710000 19                 TRA     s:15508
        19 003020   003406 710000 19                 TRA     s:15508
        19 003021   003406 710000 19                 TRA     s:15508
        19 003022   003406 710000 19                 TRA     s:15508
        19 003023   003406 710000 19                 TRA     s:15508
        19 003024   003406 710000 19                 TRA     s:15508
        19 003025   003406 710000 19                 TRA     s:15508
        19 003026   003406 710000 19                 TRA     s:15508
        19 003027   003406 710000 19                 TRA     s:15508
        19 003030   003406 710000 19                 TRA     s:15508
        19 003031   003406 710000 19                 TRA     s:15508
        19 003032   003406 710000 19                 TRA     s:15508
        19 003033   003406 710000 19                 TRA     s:15508
        19 003034   003406 710000 19                 TRA     s:15508
        19 003035   003406 710000 19                 TRA     s:15508
        19 003036   003406 710000 19                 TRA     s:15508
        19 003037   003406 710000 19                 TRA     s:15508
        19 003040   003406 710000 19                 TRA     s:15508
        19 003041   003406 710000 19                 TRA     s:15508
        19 003042   003406 710000 19                 TRA     s:15508
        19 003043   003406 710000 19                 TRA     s:15508
        19 003044   003406 710000 19                 TRA     s:15508
        19 003045   003406 710000 19                 TRA     s:15508
PL6.E3A0      #001=Z8EV$CONVERT_ROUND_ON_SIZE File=Z8EV.:Z8A6TSI                 SAT 08/09/97 12:49 Page:100
        19 003046   003406 710000 19                 TRA     s:15508
        19 003047   003406 710000 19                 TRA     s:15508
        19 003050   003406 710000 19                 TRA     s:15508
        19 003051   003406 710000 19                 TRA     s:15508
        19 003052   003406 710000 19                 TRA     s:15508
        19 003053   003406 710000 19                 TRA     s:15508
        19 003054   003403 710000 19                 TRA     s:15504
        19 003055   003406 710000 19                 TRA     s:15508
        19 003056   003406 710000 19                 TRA     s:15508
        19 003057   003406 710000 19                 TRA     s:15508
        19 003060   003406 710000 19                 TRA     s:15508
        19 003061   003406 710000 19                 TRA     s:15508
        19 003062   003406 710000 19                 TRA     s:15508
        19 003063   003406 710000 19                 TRA     s:15508
        19 003064   003406 710000 19                 TRA     s:15508
        19 003065   003406 710000 19                 TRA     s:15508
        19 003066   003406 710000 19                 TRA     s:15508
        19 003067   003406 710000 19                 TRA     s:15508
        19 003070   003406 710000 19                 TRA     s:15508
        19 003071   003406 710000 19                 TRA     s:15508
        19 003072   003406 710000 19                 TRA     s:15508
        19 003073   003406 710000 19                 TRA     s:15508
        19 003074   003406 710000 19                 TRA     s:15508
        19 003075   003406 710000 19                 TRA     s:15508
        19 003076   003406 710000 19                 TRA     s:15508
        19 003077   003406 710000 19                 TRA     s:15508
        19 003100   003406 710000 19                 TRA     s:15508
        19 003101   003406 710000 19                 TRA     s:15508
        19 003102   003406 710000 19                 TRA     s:15508
        19 003103   003406 710000 19                 TRA     s:15508
        19 003104   003406 710000 19                 TRA     s:15508
        19 003105   003406 710000 19                 TRA     s:15508
        19 003106   003406 710000 19                 TRA     s:15508
        19 003107   003406 710000 19                 TRA     s:15508
        19 003110   003406 710000 19                 TRA     s:15508
        19 003111   003406 710000 19                 TRA     s:15508
        19 003112   003406 710000 19                 TRA     s:15508
PL6.E3A0      #001=Z8EV$CONVERT_ROUND_ON_SIZE File=Z8EV.:Z8A6TSI                 SAT 08/09/97 12:49 Page:101
        19 003113   003406 710000 19                 TRA     s:15508
        19 003114   003406 710000 19                 TRA     s:15508
        19 003115   003406 710000 19                 TRA     s:15508
        19 003116   003406 710000 19                 TRA     s:15508
        19 003117   003406 710000 19                 TRA     s:15508
        19 003120   003406 710000 19                 TRA     s:15508
        19 003121   003406 710000 19                 TRA     s:15508
        19 003122   003406 710000 19                 TRA     s:15508
        19 003123   003406 710000 19                 TRA     s:15508
        19 003124   003406 710000 19                 TRA     s:15508
        19 003125   003406 710000 19                 TRA     s:15508
        19 003126   003406 710000 19                 TRA     s:15508
        19 003127   003406 710000 19                 TRA     s:15508
        19 003130   003406 710000 19                 TRA     s:15508
        19 003131   003406 710000 19                 TRA     s:15508
        19 003132   003406 710000 19                 TRA     s:15508
        19 003133   003406 710000 19                 TRA     s:15508
        19 003134   003406 710000 19                 TRA     s:15508
        19 003135   003406 710000 19                 TRA     s:15508
        19 003136   003406 710000 19                 TRA     s:15508
        19 003137   003406 710000 19                 TRA     s:15508
        19 003140   003406 710000 19                 TRA     s:15508
        19 003141   003406 710000 19                 TRA     s:15508
        19 003142   003406 710000 19                 TRA     s:15508
        19 003143   003406 710000 19                 TRA     s:15508
        19 003144   003406 710000 19                 TRA     s:15508
        19 003145   003406 710000 19                 TRA     s:15508
        19 003146   003406 710000 19                 TRA     s:15508
        19 003147   003406 710000 19                 TRA     s:15508
        19 003150   003406 710000 19                 TRA     s:15508
        19 003151   003406 710000 19                 TRA     s:15508
        19 003152   003406 710000 19                 TRA     s:15508
        19 003153   003406 710000 19                 TRA     s:15508
        19 003154   003406 710000 19                 TRA     s:15508
        19 003155   003406 710000 19                 TRA     s:15508
        19 003156   003406 710000 19                 TRA     s:15508
        19 003157   003406 710000 19                 TRA     s:15508
PL6.E3A0      #001=Z8EV$CONVERT_ROUND_ON_SIZE File=Z8EV.:Z8A6TSI                 SAT 08/09/97 12:49 Page:102
        19 003160   003406 710000 19                 TRA     s:15508
        19 003161   003406 710000 19                 TRA     s:15508
        19 003162   003406 710000 19                 TRA     s:15508
        19 003163   003406 710000 19                 TRA     s:15508
        19 003164   003403 710000 19                 TRA     s:15504
        19 003165   003406 710000 19                 TRA     s:15508
        19 003166   003406 710000 19                 TRA     s:15508
        19 003167   003406 710000 19                 TRA     s:15508
        19 003170   003406 710000 19                 TRA     s:15508
        19 003171   003406 710000 19                 TRA     s:15508
        19 003172   003406 710000 19                 TRA     s:15508
        19 003173   003406 710000 19                 TRA     s:15508
        19 003174   003406 710000 19                 TRA     s:15508
        19 003175   003406 710000 19                 TRA     s:15508
        19 003176   003406 710000 19                 TRA     s:15508
        19 003177   003406 710000 19                 TRA     s:15508
        19 003200   003406 710000 19                 TRA     s:15508
        19 003201   003406 710000 19                 TRA     s:15508
        19 003202   003406 710000 19                 TRA     s:15508
        19 003203   003406 710000 19                 TRA     s:15508
        19 003204   003406 710000 19                 TRA     s:15508
        19 003205   003406 710000 19                 TRA     s:15508
        19 003206   003406 710000 19                 TRA     s:15508
        19 003207   003406 710000 19                 TRA     s:15508
        19 003210   003406 710000 19                 TRA     s:15508
        19 003211   003406 710000 19                 TRA     s:15508
        19 003212   003406 710000 19                 TRA     s:15508
        19 003213   003406 710000 19                 TRA     s:15508
        19 003214   003406 710000 19                 TRA     s:15508
        19 003215   003406 710000 19                 TRA     s:15508
        19 003216   003406 710000 19                 TRA     s:15508
        19 003217   003406 710000 19                 TRA     s:15508
        19 003220   003406 710000 19                 TRA     s:15508
        19 003221   003406 710000 19                 TRA     s:15508
        19 003222   003406 710000 19                 TRA     s:15508
        19 003223   003406 710000 19                 TRA     s:15508
        19 003224   003406 710000 19                 TRA     s:15508
PL6.E3A0      #001=Z8EV$CONVERT_ROUND_ON_SIZE File=Z8EV.:Z8A6TSI                 SAT 08/09/97 12:49 Page:103
        19 003225   003406 710000 19                 TRA     s:15508
        19 003226   003406 710000 19                 TRA     s:15508
        19 003227   003406 710000 19                 TRA     s:15508
        19 003230   003406 710000 19                 TRA     s:15508
        19 003231   003406 710000 19                 TRA     s:15508
        19 003232   003406 710000 19                 TRA     s:15508
        19 003233   003406 710000 19                 TRA     s:15508
        19 003234   003406 710000 19                 TRA     s:15508
        19 003235   003406 710000 19                 TRA     s:15508
        19 003236   003406 710000 19                 TRA     s:15508
        19 003237   003406 710000 19                 TRA     s:15508
        19 003240   003406 710000 19                 TRA     s:15508
        19 003241   003406 710000 19                 TRA     s:15508
        19 003242   003406 710000 19                 TRA     s:15508
        19 003243   003406 710000 19                 TRA     s:15508
        19 003244   003406 710000 19                 TRA     s:15508
        19 003245   003406 710000 19                 TRA     s:15508
        19 003246   003406 710000 19                 TRA     s:15508
        19 003247   003406 710000 19                 TRA     s:15508
        19 003250   003406 710000 19                 TRA     s:15508
        19 003251   003406 710000 19                 TRA     s:15508
        19 003252   003406 710000 19                 TRA     s:15508
        19 003253   003406 710000 19                 TRA     s:15508
        19 003254   003406 710000 19                 TRA     s:15508
        19 003255   003406 710000 19                 TRA     s:15508
        19 003256   003406 710000 19                 TRA     s:15508
        19 003257   003406 710000 19                 TRA     s:15508
        19 003260   003406 710000 19                 TRA     s:15508
        19 003261   003406 710000 19                 TRA     s:15508
        19 003262   003406 710000 19                 TRA     s:15508
        19 003263   003406 710000 19                 TRA     s:15508
        19 003264   003406 710000 19                 TRA     s:15508
        19 003265   003406 710000 19                 TRA     s:15508
        19 003266   003406 710000 19                 TRA     s:15508
        19 003267   003406 710000 19                 TRA     s:15508
        19 003270   003406 710000 19                 TRA     s:15508
        19 003271   003403 710000 19                 TRA     s:15504
PL6.E3A0      #001=Z8EV$CONVERT_ROUND_ON_SIZE File=Z8EV.:Z8A6TSI                 SAT 08/09/97 12:49 Page:104
        19 003272   003406 710000 19                 TRA     s:15508
        19 003273   003406 710000 19                 TRA     s:15508
        19 003274   003406 710000 19                 TRA     s:15508
        19 003275   003406 710000 19                 TRA     s:15508
        19 003276   003406 710000 19                 TRA     s:15508
        19 003277   003406 710000 19                 TRA     s:15508
        19 003300   003406 710000 19                 TRA     s:15508
        19 003301   003406 710000 19                 TRA     s:15508
        19 003302   003406 710000 19                 TRA     s:15508
        19 003303   003406 710000 19                 TRA     s:15508
        19 003304   003406 710000 19                 TRA     s:15508
        19 003305   003406 710000 19                 TRA     s:15508
        19 003306   003406 710000 19                 TRA     s:15508
        19 003307   003406 710000 19                 TRA     s:15508
        19 003310   003406 710000 19                 TRA     s:15508
        19 003311   003406 710000 19                 TRA     s:15508
        19 003312   003406 710000 19                 TRA     s:15508
        19 003313   003406 710000 19                 TRA     s:15508
        19 003314   003406 710000 19                 TRA     s:15508
        19 003315   003406 710000 19                 TRA     s:15508
        19 003316   003406 710000 19                 TRA     s:15508
        19 003317   003406 710000 19                 TRA     s:15508
        19 003320   003406 710000 19                 TRA     s:15508
        19 003321   003406 710000 19                 TRA     s:15508
        19 003322   003406 710000 19                 TRA     s:15508
        19 003323   003406 710000 19                 TRA     s:15508
        19 003324   003406 710000 19                 TRA     s:15508
        19 003325   003406 710000 19                 TRA     s:15508
        19 003326   003406 710000 19                 TRA     s:15508
        19 003327   003406 710000 19                 TRA     s:15508
        19 003330   003406 710000 19                 TRA     s:15508
        19 003331   003406 710000 19                 TRA     s:15508
        19 003332   003406 710000 19                 TRA     s:15508
        19 003333   003406 710000 19                 TRA     s:15508
        19 003334   003406 710000 19                 TRA     s:15508
        19 003335   003406 710000 19                 TRA     s:15508
        19 003336   003406 710000 19                 TRA     s:15508
PL6.E3A0      #001=Z8EV$CONVERT_ROUND_ON_SIZE File=Z8EV.:Z8A6TSI                 SAT 08/09/97 12:49 Page:105
        19 003337   003406 710000 19                 TRA     s:15508
        19 003340   003406 710000 19                 TRA     s:15508
        19 003341   003406 710000 19                 TRA     s:15508
        19 003342   003406 710000 19                 TRA     s:15508
        19 003343   003406 710000 19                 TRA     s:15508
        19 003344   003406 710000 19                 TRA     s:15508
        19 003345   003406 710000 19                 TRA     s:15508
        19 003346   003406 710000 19                 TRA     s:15508
        19 003347   003406 710000 19                 TRA     s:15508
        19 003350   003406 710000 19                 TRA     s:15508
        19 003351   003406 710000 19                 TRA     s:15508
        19 003352   003406 710000 19                 TRA     s:15508
        19 003353   003406 710000 19                 TRA     s:15508
        19 003354   003406 710000 19                 TRA     s:15508
        19 003355   003406 710000 19                 TRA     s:15508
        19 003356   003406 710000 19                 TRA     s:15508
        19 003357   003406 710000 19                 TRA     s:15508
        19 003360   003406 710000 19                 TRA     s:15508
        19 003361   003406 710000 19                 TRA     s:15508
        19 003362   003406 710000 19                 TRA     s:15508
        19 003363   003406 710000 19                 TRA     s:15508
        19 003364   003406 710000 19                 TRA     s:15508
        19 003365   003406 710000 19                 TRA     s:15508
        19 003366   003406 710000 19                 TRA     s:15508
        19 003367   003406 710000 19                 TRA     s:15508
        19 003370   003406 710000 19                 TRA     s:15508
        19 003371   003406 710000 19                 TRA     s:15508
        19 003372   003406 710000 19                 TRA     s:15508
        19 003373   003406 710000 19                 TRA     s:15508
        19 003374   003406 710000 19                 TRA     s:15508
        19 003375   003406 710000 19                 TRA     s:15508
        19 003376   003406 710000 19                 TRA     s:15508
        19 003377   003406 710000 19                 TRA     s:15508
        19 003400   003406 710000 19                 TRA     s:15508
        19 003401   003406 710000 19                 TRA     s:15508
        19 003402   003403 710000 19                 TRA     s:15504

PL6.E3A0      #001=Z8EV$CONVERT_ROUND_ON_SIZE File=Z8EV.:Z8A6TSI                 SAT 08/09/97 12:49 Page:106
      347    15501    4                    CASE (%RSV_WRD_HIGH_VALUES, %RSV_WRD_LOW_VALUES,

      348    15502    4                          %RSV_WRD_QUOTES,      %RSV_WRD_SPACES,
      349    15503    4                          %RSV_WRD_ZEROES);
      350    15504    4                      ALL = TRUE;

  15504 19 003403   400000 236003                    LDQ     -131072,DU
        19 003404   200041 756100                    STQ     ALL,,AUTO
        19 003405   013077 710000 19                 TRA     s:16356

      351    15505
      352    15506    4                    CASE (ELSE);

      353    15507    4                      /* No all */;
      354    15508    4                  END;

  15508 19 003406   013077 710000 19                 TRA     s:16356

      355    15509
      356    15510    3              CASE (ELSE); /* Convert other type to GBCD */

      357    15511    3                CALL Z8EV$CONVERT_ON_SIZE(%TYA, FROM$, RETURN$, ON_SIZE);

  15511 19 003407   200042 634500                    EPPR4   ON_SIZE,,AUTO
        19 003410   200105 454500                    STP4    ROPCON+5,,AUTO
        19 003411   200005 236100                    LDQ     @RETURN$,,AUTO
        19 003412   200104 756100                    STQ     ROPCON+4,,AUTO
        19 003413   200034 635500                    EPPR5   FROM$,,AUTO
        19 003414   200103 455500                    STP5    ROPCON+3,,AUTO
        19 003415   000045 236000 20                 LDQ     37
        19 003416   200102 756100                    STQ     ROPCON+2,,AUTO
        19 003417   200102 630500                    EPPR0   ROPCON+2,,AUTO
        19 003420   000012 631400 20                 EPPR1   10
        19 003421   000371 701000 19                 TSX1    s:15302
        19 003422   000000 011000                    NOP     0

      358    15512    3                ETT$$ = RETURN$ -> LX_ETT_ITEM.ETT$;
PL6.E3A0      #001=Z8EV$CONVERT_ROUND_ON_SIZE File=Z8EV.:Z8A6TSI                 SAT 08/09/97 12:49 Page:107

  15512 19 003423   200005 470500                    LDP0    @RETURN$,,AUTO
        19 003424   000000 471500                    LDP1    0,,PR0
        19 003425   100001 236100                    LDQ     1,,PR1
        19 003426   200032 756100                    STQ     ETT$$,,AUTO

      359    15513    3                CALL Z8CO$CREATE_LIBRARY_BASE(%OP_ASCII_TO_GBCD, TABLE_ETT$);

  15513 19 003427   200033 631500                    EPPR1   TABLE_ETT$,,AUTO
        19 003430   200103 451500                    STP1    ROPCON+3,,AUTO
        19 003431   000063 236000 20                 LDQ     51
        19 003432   200102 756100                    STQ     ROPCON+2,,AUTO
        19 003433   200102 630500                    EPPR0   ROPCON+2,,AUTO
        19 003434   000000 631400 20                 EPPR1   0
        19 003435   000000 701000 xent               TSX1    Z8CO$CREATE_LIBRARY_BASE
        19 003436   000000 011000                    NOP     0

      360    15514    3                CALL Z8AF$FORME_ON_SIZE(%CVT, ETT$$, TABLE_ETT$, ETT$$, ON_SIZE);

  15514 19 003437   200042 630500                    EPPR0   ON_SIZE,,AUTO
        19 003440   200106 450500                    STP0    ROPCON+6,,AUTO
        19 003441   200032 631500                    EPPR1   ETT$$,,AUTO
        19 003442   200105 451500                    STP1    ROPCON+5,,AUTO
        19 003443   200033 633500                    EPPR3   TABLE_ETT$,,AUTO
        19 003444   200104 453500                    STP3    ROPCON+4,,AUTO
        19 003445   200032 634500                    EPPR4   ETT$$,,AUTO
        19 003446   200103 454500                    STP4    ROPCON+3,,AUTO
        19 003447   000023 236000 20                 LDQ     19
        19 003450   200102 756100                    STQ     ROPCON+2,,AUTO
        19 003451   200102 630500                    EPPR0   ROPCON+2,,AUTO
        19 003452   000003 631400 20                 EPPR1   3
        19 003453   000000 701000 xent               TSX1    Z8AF$FORME_ON_SIZE
        19 003454   000000 011000                    NOP     0

      361    15515    3                ALL = RETURN$ -> LX_ETT_ITEM.B.ALL;

  15515 19 003455   200005 470500                    LDP0    @RETURN$,,AUTO
PL6.E3A0      #001=Z8EV$CONVERT_ROUND_ON_SIZE File=Z8EV.:Z8A6TSI                 SAT 08/09/97 12:49 Page:108
        19 003456   000000 471500                    LDP1    0,,PR0
        19 003457   100000 236100                    LDQ     0,,PR1
        19 003460   000025 736000                    QLS     21
        19 003461   400000 376003                    ANQ     -131072,DU
        19 003462   200041 756100                    STQ     ALL,,AUTO

      362    15516    3            END;

  15516 19 003463   013077 710000 19                 TRA     s:16356

      363    15517        %EJECT;
PL6.E3A0      #001=Z8EV$CONVERT_ROUND_ON_SIZE File=Z8EV.:Z8A6TSI                 SAT 08/09/97 12:49 Page:109
      364    15518    2          CASE (%TYD);

      365    15519    3            DO CASE(FROM$ -> LX_ITEM.TYPE);

  15519 19 003464   200034 473500                    LDP3    FROM$,,AUTO
        19 003465   300004 235100                    LDA     4,,PR3
        19 003466   000020 115007                    CMPA    16,DL
        19 003467   003471 602005 19                 TNC     s:15519+5,AL
        19 003470   013077 710000 19                 TRA     s:16356
        19 003471   004517 710000 19                 TRA     s:15669
        19 003472   003511 710000 19                 TRA     s:15523
        19 003473   004006 710000 19                 TRA     s:15608
        19 003474   004135 710000 19                 TRA     s:15620
        19 003475   004154 710000 19                 TRA     s:15623
        19 003476   004213 710000 19                 TRA     s:15628
        19 003477   004271 710000 19                 TRA     s:15636
        19 003500   004100 710000 19                 TRA     s:15616
        19 003501   004252 710000 19                 TRA     s:15633
        19 003502   004403 710000 19                 TRA     s:15646
        19 003503   004403 710000 19                 TRA     s:15646
        19 003504   004135 710000 19                 TRA     s:15620
        19 003505   004336 710000 19                 TRA     s:15641
        19 003506   004417 710000 19                 TRA     s:15651
        19 003507   004517 710000 19                 TRA     s:15669
        19 003510   004043 710000 19                 TRA     s:15612

      366    15520    3              CASE (%TYD);

      367    15521
      368    15522    3              CASE (%TYI);

      369    15523    3                CALL Z8EV$WORD_TO_BYTE_UNITS(ETT$$, ETT$$);

  15523 19 003511   200032 634500                    EPPR4   ETT$$,,AUTO
        19 003512   200103 454500                    STP4    ROPCON+3,,AUTO
        19 003513   200032 635500                    EPPR5   ETT$$,,AUTO
        19 003514   200102 455500                    STP5    ROPCON+2,,AUTO
PL6.E3A0      #001=Z8EV$CONVERT_ROUND_ON_SIZE File=Z8EV.:Z8A6TSI                 SAT 08/09/97 12:49 Page:110
        19 003515   200102 630500                    EPPR0   ROPCON+2,,AUTO
        19 003516   000000 631400 20                 EPPR1   0
        19 003517   000000 701000 xent               TSX1    Z8EV$WORD_TO_BYTE_UNITS
        19 003520   000000 011000                    NOP     0

      370    15524    3                IF ETT$$ -> ETT.B.MPI THEN

  15524 19 003521   200032 470500                    LDP0    ETT$$,,AUTO
        19 003522   000004 236100                    LDQ     4,,PR0
        19 003523   000010 316007                    CANQ    8,DL
        19 003524   003767 600000 19                 TZE     s:15605

      371    15525    4                  DO; /* Convert multiply and everything above it */

      372    15526    4                    LOP$ = ADDR (TEMP_LX_ITEM);

  15526 19 003525   200052 631500                    EPPR1   TEMP_LX_ITEM,,AUTO
        19 003526   200035 451500                    STP1    LOP$,,AUTO

      373    15527                         %INIT_LX_ETT_ITEM (@POINTER=LOP$, @TYPE=%TYI, @ETT$=
             15527                             ETT$$ -> ETT.LOP);

  15529 19 003527   000004 220003                    LDX0    4,DU
        19 003530   100000 740100                    STX0    0,,PR1

  15530 19 003531   000000 221003                    LDX1    0,DU
        19 003532   200035 470500                    LDP0    LOP$,,AUTO
        19 003533   000000 441100                    SXL1    0,,PR0

  15531 19 003534   000001 235007                    LDA     1,DL
        19 003535   200035 470500                    LDP0    LOP$,,AUTO
        19 003536   000004 755100                    STA     4,,PR0

  15532 19 003537   000064 236000 20                 LDQ     52
        19 003540   200035 470500                    LDP0    LOP$,,AUTO
        19 003541   000007 756100                    STQ     7,,PR0

PL6.E3A0      #001=Z8EV$CONVERT_ROUND_ON_SIZE File=Z8EV.:Z8A6TSI                 SAT 08/09/97 12:49 Page:111
  15533 19 003542   200032 470500                    LDP0    ETT$$,,AUTO
        19 003543   000001 236100                    LDQ     1,,PR0
        19 003544   200035 471500                    LDP1    LOP$,,AUTO
        19 003545   100001 756100                    STQ     1,,PR1

  15534 19 003546   000064 236000 20                 LDQ     52
        19 003547   200035 470500                    LDP0    LOP$,,AUTO
        19 003550   000002 756100                    STQ     2,,PR0

  15536 19 003551   000133 236000 xsym               LDQ     COMCOM+91
        19 003552   200035 470500                    LDP0    LOP$,,AUTO
        19 003553   000005 756100                    STQ     5,,PR0

  15537 19 003554   000134 236000 xsym               LDQ     COMCOM+92
        19 003555   200035 470500                    LDP0    LOP$,,AUTO
        19 003556   000006 756100                    STQ     6,,PR0

      374    15549    4                    CALL Z8EV$CONVERT_ON_SIZE(%TYD, LOP$, LOP$, ON_SIZE);

  15549 19 003557   200042 630500                    EPPR0   ON_SIZE,,AUTO
        19 003560   200105 450500                    STP0    ROPCON+5,,AUTO
        19 003561   200035 631500                    EPPR1   LOP$,,AUTO
        19 003562   200104 451500                    STP1    ROPCON+4,,AUTO
        19 003563   200035 633500                    EPPR3   LOP$,,AUTO
        19 003564   200103 453500                    STP3    ROPCON+3,,AUTO
        19 003565   000007 236000 20                 LDQ     7
        19 003566   200102 756100                    STQ     ROPCON+2,,AUTO
        19 003567   200102 630500                    EPPR0   ROPCON+2,,AUTO
        19 003570   000012 631400 20                 EPPR1   10
        19 003571   000371 701000 19                 TSX1    s:15302
        19 003572   000000 011000                    NOP     0

      375    15550    4                    LOP$ = LOP$ -> LX_ETT_ITEM.ETT$;

  15550 19 003573   200035 470500                    LDP0    LOP$,,AUTO
        19 003574   000001 236100                    LDQ     1,,PR0
        19 003575   200035 756100                    STQ     LOP$,,AUTO
PL6.E3A0      #001=Z8EV$CONVERT_ROUND_ON_SIZE File=Z8EV.:Z8A6TSI                 SAT 08/09/97 12:49 Page:112

      376    15551    4                    IF ETT$$ -> ETT.ID = %USI THEN

  15551 19 003576   200032 470500                    LDP0    ETT$$,,AUTO
        19 003577   000000 220100                    LDX0    0,,PR0
        19 003600   000066 100003                    CMPX0   54,DU
        19 003601   003605 601000 19                 TNZ     s:15553

      377    15552    4                      I = %USD;

  15552 19 003602   000065 235007                    LDA     53,DL
        19 003603   200037 755100                    STA     I,,AUTO
        19 003604   003750 710000 19                 TRA     s:15600

      378    15553    4                    ELSE IF ETT$$ -> ETT.ID = %MPI2 THEN

  15553 19 003605   000052 100003                    CMPX0   42,DU
        19 003606   003653 601000 19                 TNZ     s:15566

      379    15554    5                      DO;

      380    15555    5                        I=1;

  15555 19 003607   000001 235007                    LDA     1,DL
        19 003610   200037 755100                    STA     I,,AUTO

      381    15556    6                        DO N = ETT$$ -> ETT.ROPCON DOWNTO 1;

  15556 19 003611   000002 235100                    LDA     2,,PR0
        19 003612   200040 755100                    STA     N,,AUTO
        19 003613   003620 710000 19                 TRA     s:15558+2

      382    15557    6                          I = I * 2;

  15557 19 003614   200037 236100                    LDQ     I,,AUTO
        19 003615   200037 056100                    ASQ     I,,AUTO

PL6.E3A0      #001=Z8EV$CONVERT_ROUND_ON_SIZE File=Z8EV.:Z8A6TSI                 SAT 08/09/97 12:49 Page:113
      383    15558    6                        END;

  15558 19 003616   000001 336007                    LCQ     1,DL
        19 003617   200040 056100                    ASQ     N,,AUTO
        19 003620   200040 235100                    LDA     N,,AUTO
        19 003621   003614 605400 19                 TPNZ    s:15557

      384    15559    5                        MKCN.CON = I;

  15559 19 003622   200037 236100                    LDQ     I,,AUTO
        19 003623   000000 756000 17                 STQ     MKCN

      385    15560    5                        CALL Z8AC$MAKE_CONST(ROP$);

  15560 19 003624   200036 630500                    EPPR0   ROP$,,AUTO
        19 003625   200102 450500                    STP0    ROPCON+2,,AUTO
        19 003626   200102 630500                    EPPR0   ROPCON+2,,AUTO
        19 003627   000065 631400 20                 EPPR1   53
        19 003630   000000 701000 xent               TSX1    Z8AC$MAKE_CONST
        19 003631   000000 011000                    NOP     0

      386    15561    5                        CALL Z8AF$FORME_ON_SIZE(%CVID4, ROP$, 0, ROP$, ON_SIZE);

  15561 19 003632   200042 630500                    EPPR0   ON_SIZE,,AUTO
        19 003633   200106 450500                    STP0    ROPCON+6,,AUTO
        19 003634   200036 631500                    EPPR1   ROP$,,AUTO
        19 003635   200105 451500                    STP1    ROPCON+5,,AUTO
        19 003636   000007 236000 20                 LDQ     7
        19 003637   200104 756100                    STQ     ROPCON+4,,AUTO
        19 003640   200036 633500                    EPPR3   ROP$,,AUTO
        19 003641   200103 453500                    STP3    ROPCON+3,,AUTO
        19 003642   000067 236000 20                 LDQ     55
        19 003643   200102 756100                    STQ     ROPCON+2,,AUTO
        19 003644   200102 630500                    EPPR0   ROPCON+2,,AUTO
        19 003645   000003 631400 20                 EPPR1   3
        19 003646   000000 701000 xent               TSX1    Z8AF$FORME_ON_SIZE
        19 003647   000000 011000                    NOP     0
PL6.E3A0      #001=Z8EV$CONVERT_ROUND_ON_SIZE File=Z8EV.:Z8A6TSI                 SAT 08/09/97 12:49 Page:114

      387    15562    5                        I = %MPD;

  15562 19 003650   000057 235007                    LDA     47,DL
        19 003651   200037 755100                    STA     I,,AUTO

      388    15563    5                      END; /* %MPI2 */

  15563 19 003652   003750 710000 19                 TRA     s:15600

      389    15564    4                    ELSE
      390    15565    5                      DO; /* Neither %USI nor %MPI2 */

      391    15566    5                        ROP$ = ADDR (TEMP_LX_ITEM1);

  15566 19 003653   200062 631500                    EPPR1   TEMP_LX_ITEM1,,AUTO
        19 003654   200036 451500                    STP1    ROP$,,AUTO

      392    15567                             %INIT_LX_ETT_ITEM (@POINTER=ROP$, @TYPE=%TYI, @ETT$=
             15567                                 ETT$$->ETT.ROP);

  15569 19 003655   000004 220003                    LDX0    4,DU
        19 003656   100000 740100                    STX0    0,,PR1

  15570 19 003657   000000 221003                    LDX1    0,DU
        19 003660   200036 470500                    LDP0    ROP$,,AUTO
        19 003661   000000 441100                    SXL1    0,,PR0

  15571 19 003662   000001 235007                    LDA     1,DL
        19 003663   200036 470500                    LDP0    ROP$,,AUTO
        19 003664   000004 755100                    STA     4,,PR0

  15572 19 003665   000064 236000 20                 LDQ     52
        19 003666   200036 470500                    LDP0    ROP$,,AUTO
        19 003667   000007 756100                    STQ     7,,PR0

  15573 19 003670   200032 470500                    LDP0    ETT$$,,AUTO
PL6.E3A0      #001=Z8EV$CONVERT_ROUND_ON_SIZE File=Z8EV.:Z8A6TSI                 SAT 08/09/97 12:49 Page:115
        19 003671   000002 236100                    LDQ     2,,PR0
        19 003672   200036 471500                    LDP1    ROP$,,AUTO
        19 003673   100001 756100                    STQ     1,,PR1

  15574 19 003674   000064 236000 20                 LDQ     52
        19 003675   200036 470500                    LDP0    ROP$,,AUTO
        19 003676   000002 756100                    STQ     2,,PR0

  15576 19 003677   000133 236000 xsym               LDQ     COMCOM+91
        19 003700   200036 470500                    LDP0    ROP$,,AUTO
        19 003701   000005 756100                    STQ     5,,PR0

  15577 19 003702   000134 236000 xsym               LDQ     COMCOM+92
        19 003703   200036 470500                    LDP0    ROP$,,AUTO
        19 003704   000006 756100                    STQ     6,,PR0

      393    15589    5                        CALL Z8EV$CONVERT_ON_SIZE(%TYD, ROP$, ROP$, ON_SIZE);

  15589 19 003705   200042 630500                    EPPR0   ON_SIZE,,AUTO
        19 003706   200105 450500                    STP0    ROPCON+5,,AUTO
        19 003707   200036 631500                    EPPR1   ROP$,,AUTO
        19 003710   200104 451500                    STP1    ROPCON+4,,AUTO
        19 003711   200036 633500                    EPPR3   ROP$,,AUTO
        19 003712   200103 453500                    STP3    ROPCON+3,,AUTO
        19 003713   000007 236000 20                 LDQ     7
        19 003714   200102 756100                    STQ     ROPCON+2,,AUTO
        19 003715   200102 630500                    EPPR0   ROPCON+2,,AUTO
        19 003716   000012 631400 20                 EPPR1   10
        19 003717   000371 701000 19                 TSX1    s:15302
        19 003720   000000 011000                    NOP     0

      394    15590    5                        ROP$ = ROP$ -> LX_ETT_ITEM.ETT$;

  15590 19 003721   200036 470500                    LDP0    ROP$,,AUTO
        19 003722   000001 236100                    LDQ     1,,PR0
        19 003723   200036 756100                    STQ     ROP$,,AUTO

PL6.E3A0      #001=Z8EV$CONVERT_ROUND_ON_SIZE File=Z8EV.:Z8A6TSI                 SAT 08/09/97 12:49 Page:116
      395    15591    6                        DO CASE (ETT$$ -> ETT.ID);

  15591 19 003724   200032 470500                    LDP0    ETT$$,,AUTO
        19 003725   000000 236100                    LDQ     0,,PR0
        19 003726   000022 772000                    QRL     18
        19 003727   000054 136007                    SBLQ    44,DL
        19 003730   000005 116007                    CMPQ    5,DL
        19 003731   003733 602006 19                 TNC     s:15591+7,QL
        19 003732   003750 710000 19                 TRA     s:15600
        19 003733   003740 710000 19                 TRA     s:15593
        19 003734   003750 710000 19                 TRA     s:15600
        19 003735   003743 710000 19                 TRA     s:15595
        19 003736   003750 710000 19                 TRA     s:15600
        19 003737   003746 710000 19                 TRA     s:15597

      396    15592    6                          CASE (%ADI);

      397    15593    6                            I = %ADD;

  15593 19 003740   000053 235007                    LDA     43,DL
        19 003741   200037 755100                    STA     I,,AUTO
        19 003742   003750 710000 19                 TRA     s:15600

      398    15594    6                          CASE (%SBI);

      399    15595    6                            I = %SBD;

  15595 19 003743   000055 235007                    LDA     45,DL
        19 003744   200037 755100                    STA     I,,AUTO
        19 003745   003750 710000 19                 TRA     s:15600

      400    15596    6                          CASE (%MPI);

      401    15597    6                            I = %MPD;

  15597 19 003746   000057 235007                    LDA     47,DL
        19 003747   200037 755100                    STA     I,,AUTO
PL6.E3A0      #001=Z8EV$CONVERT_ROUND_ON_SIZE File=Z8EV.:Z8A6TSI                 SAT 08/09/97 12:49 Page:117

      402    15598    6                        END;

      403    15599    5                      END; /* Neither %USI nor %MPI2 */

      404    15600    4                    CALL Z8AF$FORME_ON_SIZE(I, LOP$, ROP$, ETT$$, ON_SIZE);

  15600 19 003750   200042 630500                    EPPR0   ON_SIZE,,AUTO
        19 003751   200106 450500                    STP0    ROPCON+6,,AUTO
        19 003752   200032 631500                    EPPR1   ETT$$,,AUTO
        19 003753   200105 451500                    STP1    ROPCON+5,,AUTO
        19 003754   200036 633500                    EPPR3   ROP$,,AUTO
        19 003755   200104 453500                    STP3    ROPCON+4,,AUTO
        19 003756   200035 634500                    EPPR4   LOP$,,AUTO
        19 003757   200103 454500                    STP4    ROPCON+3,,AUTO
        19 003760   200037 635500                    EPPR5   I,,AUTO
        19 003761   200102 455500                    STP5    ROPCON+2,,AUTO
        19 003762   200102 630500                    EPPR0   ROPCON+2,,AUTO
        19 003763   000003 631400 20                 EPPR1   3
        19 003764   000000 701000 xent               TSX1    Z8AF$FORME_ON_SIZE
        19 003765   000000 011000                    NOP     0

      405    15601                         /* If %USD, ROP$ has not been assigned a value,
      406    15602                            but it is not used, either. */
      407    15603    4                  END; /* ETT.B.MPI */

  15603 19 003766   013077 710000 19                 TRA     s:16356

      408    15604    3                ELSE
      409    15605    3                  CALL Z8AF$FORME_ON_SIZE(%CVID4, ETT$$, 0, ETT$$, ON_SIZE);

  15605 19 003767   200042 631500                    EPPR1   ON_SIZE,,AUTO
        19 003770   200106 451500                    STP1    ROPCON+6,,AUTO
        19 003771   200032 633500                    EPPR3   ETT$$,,AUTO
        19 003772   200105 453500                    STP3    ROPCON+5,,AUTO
        19 003773   000007 236000 20                 LDQ     7
        19 003774   200104 756100                    STQ     ROPCON+4,,AUTO
PL6.E3A0      #001=Z8EV$CONVERT_ROUND_ON_SIZE File=Z8EV.:Z8A6TSI                 SAT 08/09/97 12:49 Page:118
        19 003775   200032 634500                    EPPR4   ETT$$,,AUTO
        19 003776   200103 454500                    STP4    ROPCON+3,,AUTO
        19 003777   000067 236000 20                 LDQ     55
        19 004000   200102 756100                    STQ     ROPCON+2,,AUTO
        19 004001   200102 630500                    EPPR0   ROPCON+2,,AUTO
        19 004002   000003 631400 20                 EPPR1   3
        19 004003   000000 701000 xent               TSX1    Z8AF$FORME_ON_SIZE
        19 004004   000000 011000                    NOP     0
        19 004005   013077 710000 19                 TRA     s:16356

      410    15606
      411    15607    3              CASE (%TYJ);

      412    15608    3                CALL Z8AF$FORME_ON_SIZE(%CVJI, ETT$$, 0, ETT$$, ON_SIZE);

  15608 19 004006   200042 634500                    EPPR4   ON_SIZE,,AUTO
        19 004007   200106 454500                    STP4    ROPCON+6,,AUTO
        19 004010   200032 635500                    EPPR5   ETT$$,,AUTO
        19 004011   200105 455500                    STP5    ROPCON+5,,AUTO
        19 004012   000007 236000 20                 LDQ     7
        19 004013   200104 756100                    STQ     ROPCON+4,,AUTO
        19 004014   200032 636500                    EPPR6   ETT$$,,AUTO
        19 004015   200103 456500                    STP6    ROPCON+3,,AUTO
        19 004016   000027 236000 20                 LDQ     23
        19 004017   200102 756100                    STQ     ROPCON+2,,AUTO
        19 004020   200102 630500                    EPPR0   ROPCON+2,,AUTO
        19 004021   000003 631400 20                 EPPR1   3
        19 004022   000000 701000 xent               TSX1    Z8AF$FORME_ON_SIZE
        19 004023   000000 011000                    NOP     0

      413    15609    3                CALL Z8AF$FORME_ON_SIZE(%CVID4, ETT$$, 0, ETT$$, ON_SIZE);

  15609 19 004024   200042 630500                    EPPR0   ON_SIZE,,AUTO
        19 004025   200106 450500                    STP0    ROPCON+6,,AUTO
        19 004026   200032 631500                    EPPR1   ETT$$,,AUTO
        19 004027   200105 451500                    STP1    ROPCON+5,,AUTO
        19 004030   000007 236000 20                 LDQ     7
PL6.E3A0      #001=Z8EV$CONVERT_ROUND_ON_SIZE File=Z8EV.:Z8A6TSI                 SAT 08/09/97 12:49 Page:119
        19 004031   200104 756100                    STQ     ROPCON+4,,AUTO
        19 004032   200032 633500                    EPPR3   ETT$$,,AUTO
        19 004033   200103 453500                    STP3    ROPCON+3,,AUTO
        19 004034   000067 236000 20                 LDQ     55
        19 004035   200102 756100                    STQ     ROPCON+2,,AUTO
        19 004036   200102 630500                    EPPR0   ROPCON+2,,AUTO
        19 004037   000003 631400 20                 EPPR1   3
        19 004040   000000 701000 xent               TSX1    Z8AF$FORME_ON_SIZE
        19 004041   000000 011000                    NOP     0
        19 004042   013077 710000 19                 TRA     s:16356

      414    15610
      415    15611    3              CASE (%TYK);

      416    15612    3                CALL Z8AF$FORME_ON_SIZE(%CVKI, ETT$$, 0, ETT$$, ON_SIZE);

  15612 19 004043   200042 634500                    EPPR4   ON_SIZE,,AUTO
        19 004044   200106 454500                    STP4    ROPCON+6,,AUTO
        19 004045   200032 635500                    EPPR5   ETT$$,,AUTO
        19 004046   200105 455500                    STP5    ROPCON+5,,AUTO
        19 004047   000007 236000 20                 LDQ     7
        19 004050   200104 756100                    STQ     ROPCON+4,,AUTO
        19 004051   200032 636500                    EPPR6   ETT$$,,AUTO
        19 004052   200103 456500                    STP6    ROPCON+3,,AUTO
        19 004053   000031 236000 20                 LDQ     25
        19 004054   200102 756100                    STQ     ROPCON+2,,AUTO
        19 004055   200102 630500                    EPPR0   ROPCON+2,,AUTO
        19 004056   000003 631400 20                 EPPR1   3
        19 004057   000000 701000 xent               TSX1    Z8AF$FORME_ON_SIZE
        19 004060   000000 011000                    NOP     0

      417    15613    3                CALL Z8AF$FORME_ON_SIZE(%CVID4, ETT$$, 0, ETT$$, ON_SIZE);

  15613 19 004061   200042 630500                    EPPR0   ON_SIZE,,AUTO
        19 004062   200106 450500                    STP0    ROPCON+6,,AUTO
        19 004063   200032 631500                    EPPR1   ETT$$,,AUTO
        19 004064   200105 451500                    STP1    ROPCON+5,,AUTO
PL6.E3A0      #001=Z8EV$CONVERT_ROUND_ON_SIZE File=Z8EV.:Z8A6TSI                 SAT 08/09/97 12:49 Page:120
        19 004065   000007 236000 20                 LDQ     7
        19 004066   200104 756100                    STQ     ROPCON+4,,AUTO
        19 004067   200032 633500                    EPPR3   ETT$$,,AUTO
        19 004070   200103 453500                    STP3    ROPCON+3,,AUTO
        19 004071   000067 236000 20                 LDQ     55
        19 004072   200102 756100                    STQ     ROPCON+2,,AUTO
        19 004073   200102 630500                    EPPR0   ROPCON+2,,AUTO
        19 004074   000003 631400 20                 EPPR1   3
        19 004075   000000 701000 xent               TSX1    Z8AF$FORME_ON_SIZE
        19 004076   000000 011000                    NOP     0
        19 004077   013077 710000 19                 TRA     s:16356

      418    15614
      419    15615    3              CASE (%TYH);

      420    15616    3                CALL Z8AF$FORME_ON_SIZE(%CVHI, ETT$$, 0, ETT$$, ON_SIZE);

  15616 19 004100   200042 634500                    EPPR4   ON_SIZE,,AUTO
        19 004101   200106 454500                    STP4    ROPCON+6,,AUTO
        19 004102   200032 635500                    EPPR5   ETT$$,,AUTO
        19 004103   200105 455500                    STP5    ROPCON+5,,AUTO
        19 004104   000007 236000 20                 LDQ     7
        19 004105   200104 756100                    STQ     ROPCON+4,,AUTO
        19 004106   200032 636500                    EPPR6   ETT$$,,AUTO
        19 004107   200103 456500                    STP6    ROPCON+3,,AUTO
        19 004110   000033 236000 20                 LDQ     27
        19 004111   200102 756100                    STQ     ROPCON+2,,AUTO
        19 004112   200102 630500                    EPPR0   ROPCON+2,,AUTO
        19 004113   000003 631400 20                 EPPR1   3
        19 004114   000000 701000 xent               TSX1    Z8AF$FORME_ON_SIZE
        19 004115   000000 011000                    NOP     0

      421    15617    3                CALL Z8AF$FORME_ON_SIZE(%CVID4, ETT$$, 0, ETT$$, ON_SIZE);

  15617 19 004116   200042 630500                    EPPR0   ON_SIZE,,AUTO
        19 004117   200106 450500                    STP0    ROPCON+6,,AUTO
        19 004120   200032 631500                    EPPR1   ETT$$,,AUTO
PL6.E3A0      #001=Z8EV$CONVERT_ROUND_ON_SIZE File=Z8EV.:Z8A6TSI                 SAT 08/09/97 12:49 Page:121
        19 004121   200105 451500                    STP1    ROPCON+5,,AUTO
        19 004122   000007 236000 20                 LDQ     7
        19 004123   200104 756100                    STQ     ROPCON+4,,AUTO
        19 004124   200032 633500                    EPPR3   ETT$$,,AUTO
        19 004125   200103 453500                    STP3    ROPCON+3,,AUTO
        19 004126   000067 236000 20                 LDQ     55
        19 004127   200102 756100                    STQ     ROPCON+2,,AUTO
        19 004130   200102 630500                    EPPR0   ROPCON+2,,AUTO
        19 004131   000003 631400 20                 EPPR1   3
        19 004132   000000 701000 xent               TSX1    Z8AF$FORME_ON_SIZE
        19 004133   000000 011000                    NOP     0
        19 004134   013077 710000 19                 TRA     s:16356

      422    15618
      423    15619    3              CASE (%TYO, %TYF);
             15619                       /* Convert overpunched or EBCDIC numeric to ASCII numeric */

      424    15620    3                CALL Z8AF$FORME_ON_SIZE(%CVOD4, ETT$$, 0, ETT$$, ON_SIZE);

  15620 19 004135   200042 634500                    EPPR4   ON_SIZE,,AUTO
        19 004136   200106 454500                    STP4    ROPCON+6,,AUTO
        19 004137   200032 635500                    EPPR5   ETT$$,,AUTO
        19 004140   200105 455500                    STP5    ROPCON+5,,AUTO
        19 004141   000007 236000 20                 LDQ     7
        19 004142   200104 756100                    STQ     ROPCON+4,,AUTO
        19 004143   200032 636500                    EPPR6   ETT$$,,AUTO
        19 004144   200103 456500                    STP6    ROPCON+3,,AUTO
        19 004145   000035 236000 20                 LDQ     29
        19 004146   200102 756100                    STQ     ROPCON+2,,AUTO
        19 004147   200102 630500                    EPPR0   ROPCON+2,,AUTO
        19 004150   000003 631400 20                 EPPR1   3
        19 004151   000000 701000 xent               TSX1    Z8AF$FORME_ON_SIZE
        19 004152   000000 011000                    NOP     0
        19 004153   013077 710000 19                 TRA     s:16356

      425    15621
      426    15622    3              CASE (%TYR);
PL6.E3A0      #001=Z8EV$CONVERT_ROUND_ON_SIZE File=Z8EV.:Z8A6TSI                 SAT 08/09/97 12:49 Page:122

      427    15623    3                  CALL Z8AF$FORME_ON_SIZE(%CVRD4, ETT$$, 0, ETT$$, ON_SIZE);

  15623 19 004154   200042 634500                    EPPR4   ON_SIZE,,AUTO
        19 004155   200106 454500                    STP4    ROPCON+6,,AUTO
        19 004156   200032 635500                    EPPR5   ETT$$,,AUTO
        19 004157   200105 455500                    STP5    ROPCON+5,,AUTO
        19 004160   000007 236000 20                 LDQ     7
        19 004161   200104 756100                    STQ     ROPCON+4,,AUTO
        19 004162   200032 636500                    EPPR6   ETT$$,,AUTO
        19 004163   200103 456500                    STP6    ROPCON+3,,AUTO
        19 004164   000071 236000 20                 LDQ     57
        19 004165   200102 756100                    STQ     ROPCON+2,,AUTO
        19 004166   200102 630500                    EPPR0   ROPCON+2,,AUTO
        19 004167   000003 631400 20                 EPPR1   3
        19 004170   000000 701000 xent               TSX1    Z8AF$FORME_ON_SIZE
        19 004171   000000 011000                    NOP     0

      428    15624    3                  IF ROUND THEN

  15624 19 004172   200043 234100                    SZN     ROUND,,AUTO
        19 004173   013077 605000 19                 TPL     s:16356

      429    15625    3                    CALL Z8AF$FORME_ON_SIZE(%RNDD, ETT$$, DEST_DESC, ETT$$, ON_SIZE);

  15625 19 004174   200042 630500                    EPPR0   ON_SIZE,,AUTO
        19 004175   200106 450500                    STP0    ROPCON+6,,AUTO
        19 004176   200032 631500                    EPPR1   ETT$$,,AUTO
        19 004177   200105 451500                    STP1    ROPCON+5,,AUTO
        19 004200   200010 236100                    LDQ     @DEST_DESC,,AUTO
        19 004201   200104 756100                    STQ     ROPCON+4,,AUTO
        19 004202   200032 633500                    EPPR3   ETT$$,,AUTO
        19 004203   200103 453500                    STP3    ROPCON+3,,AUTO
        19 004204   000073 236000 20                 LDQ     59
        19 004205   200102 756100                    STQ     ROPCON+2,,AUTO
        19 004206   200102 630500                    EPPR0   ROPCON+2,,AUTO
        19 004207   000003 631400 20                 EPPR1   3
PL6.E3A0      #001=Z8EV$CONVERT_ROUND_ON_SIZE File=Z8EV.:Z8A6TSI                 SAT 08/09/97 12:49 Page:123
        19 004210   000000 701000 xent               TSX1    Z8AF$FORME_ON_SIZE
        19 004211   000000 011000                    NOP     0
        19 004212   013077 710000 19                 TRA     s:16356

      430    15626
      431    15627    3              CASE (%TYQ);

      432    15628    3                  CALL Z8AF$FORME_ON_SIZE(%CVQD4, ETT$$, 0, ETT$$, ON_SIZE);

  15628 19 004213   200042 634500                    EPPR4   ON_SIZE,,AUTO
        19 004214   200106 454500                    STP4    ROPCON+6,,AUTO
        19 004215   200032 635500                    EPPR5   ETT$$,,AUTO
        19 004216   200105 455500                    STP5    ROPCON+5,,AUTO
        19 004217   000007 236000 20                 LDQ     7
        19 004220   200104 756100                    STQ     ROPCON+4,,AUTO
        19 004221   200032 636500                    EPPR6   ETT$$,,AUTO
        19 004222   200103 456500                    STP6    ROPCON+3,,AUTO
        19 004223   000075 236000 20                 LDQ     61
        19 004224   200102 756100                    STQ     ROPCON+2,,AUTO
        19 004225   200102 630500                    EPPR0   ROPCON+2,,AUTO
        19 004226   000003 631400 20                 EPPR1   3
        19 004227   000000 701000 xent               TSX1    Z8AF$FORME_ON_SIZE
        19 004230   000000 011000                    NOP     0

      433    15629    3                  IF ROUND THEN

  15629 19 004231   200043 234100                    SZN     ROUND,,AUTO
        19 004232   013077 605000 19                 TPL     s:16356

      434    15630    3                    CALL Z8AF$FORME_ON_SIZE(%RNDD, ETT$$, DEST_DESC, ETT$$, ON_SIZE);

  15630 19 004233   200042 630500                    EPPR0   ON_SIZE,,AUTO
        19 004234   200106 450500                    STP0    ROPCON+6,,AUTO
        19 004235   200032 631500                    EPPR1   ETT$$,,AUTO
        19 004236   200105 451500                    STP1    ROPCON+5,,AUTO
        19 004237   200010 236100                    LDQ     @DEST_DESC,,AUTO
        19 004240   200104 756100                    STQ     ROPCON+4,,AUTO
PL6.E3A0      #001=Z8EV$CONVERT_ROUND_ON_SIZE File=Z8EV.:Z8A6TSI                 SAT 08/09/97 12:49 Page:124
        19 004241   200032 633500                    EPPR3   ETT$$,,AUTO
        19 004242   200103 453500                    STP3    ROPCON+3,,AUTO
        19 004243   000073 236000 20                 LDQ     59
        19 004244   200102 756100                    STQ     ROPCON+2,,AUTO
        19 004245   200102 630500                    EPPR0   ROPCON+2,,AUTO
        19 004246   000003 631400 20                 EPPR1   3
        19 004247   000000 701000 xent               TSX1    Z8AF$FORME_ON_SIZE
        19 004250   000000 011000                    NOP     0
        19 004251   013077 710000 19                 TRA     s:16356

      435    15631
      436    15632    3              CASE (%TYA);

      437    15633    3                CALL Z8AF$FORME_ON_SIZE(%DAN, ETT$$, 0, ETT$$, ON_SIZE);

  15633 19 004252   200042 634500                    EPPR4   ON_SIZE,,AUTO
        19 004253   200106 454500                    STP4    ROPCON+6,,AUTO
        19 004254   200032 635500                    EPPR5   ETT$$,,AUTO
        19 004255   200105 455500                    STP5    ROPCON+5,,AUTO
        19 004256   000007 236000 20                 LDQ     7
        19 004257   200104 756100                    STQ     ROPCON+4,,AUTO
        19 004260   200032 636500                    EPPR6   ETT$$,,AUTO
        19 004261   200103 456500                    STP6    ROPCON+3,,AUTO
        19 004262   000047 236000 20                 LDQ     39
        19 004263   200102 756100                    STQ     ROPCON+2,,AUTO
        19 004264   200102 630500                    EPPR0   ROPCON+2,,AUTO
        19 004265   000003 631400 20                 EPPR1   3
        19 004266   000000 701000 xent               TSX1    Z8AF$FORME_ON_SIZE
        19 004267   000000 011000                    NOP     0
        19 004270   013077 710000 19                 TRA     s:16356

      438    15634
      439    15635    3              CASE (%TYE); /* Convert EBCDIC to numeric */

      440    15636    3                CALL Z8CO$CREATE_LIBRARY_BASE(%OP_EBCDIC_TO_ASCII, TABLE_ETT$);

  15636 19 004271   200033 634500                    EPPR4   TABLE_ETT$,,AUTO
PL6.E3A0      #001=Z8EV$CONVERT_ROUND_ON_SIZE File=Z8EV.:Z8A6TSI                 SAT 08/09/97 12:49 Page:125
        19 004272   200103 454500                    STP4    ROPCON+3,,AUTO
        19 004273   000043 236000 20                 LDQ     35
        19 004274   200102 756100                    STQ     ROPCON+2,,AUTO
        19 004275   200102 630500                    EPPR0   ROPCON+2,,AUTO
        19 004276   000000 631400 20                 EPPR1   0
        19 004277   000000 701000 xent               TSX1    Z8CO$CREATE_LIBRARY_BASE
        19 004300   000000 011000                    NOP     0

      441    15637    3                CALL Z8AF$FORME_ON_SIZE(%CVT, ETT$$, TABLE_ETT$, ETT$$, ON_SIZE);

  15637 19 004301   200042 630500                    EPPR0   ON_SIZE,,AUTO
        19 004302   200106 450500                    STP0    ROPCON+6,,AUTO
        19 004303   200032 631500                    EPPR1   ETT$$,,AUTO
        19 004304   200105 451500                    STP1    ROPCON+5,,AUTO
        19 004305   200033 633500                    EPPR3   TABLE_ETT$,,AUTO
        19 004306   200104 453500                    STP3    ROPCON+4,,AUTO
        19 004307   200032 634500                    EPPR4   ETT$$,,AUTO
        19 004310   200103 454500                    STP4    ROPCON+3,,AUTO
        19 004311   000023 236000 20                 LDQ     19
        19 004312   200102 756100                    STQ     ROPCON+2,,AUTO
        19 004313   200102 630500                    EPPR0   ROPCON+2,,AUTO
        19 004314   000003 631400 20                 EPPR1   3
        19 004315   000000 701000 xent               TSX1    Z8AF$FORME_ON_SIZE
        19 004316   000000 011000                    NOP     0

      442    15638    3                CALL Z8AF$FORME_ON_SIZE(%DAN, ETT$$, 0, ETT$$, ON_SIZE);

  15638 19 004317   200042 630500                    EPPR0   ON_SIZE,,AUTO
        19 004320   200106 450500                    STP0    ROPCON+6,,AUTO
        19 004321   200032 631500                    EPPR1   ETT$$,,AUTO
        19 004322   200105 451500                    STP1    ROPCON+5,,AUTO
        19 004323   000007 236000 20                 LDQ     7
        19 004324   200104 756100                    STQ     ROPCON+4,,AUTO
        19 004325   200032 633500                    EPPR3   ETT$$,,AUTO
        19 004326   200103 453500                    STP3    ROPCON+3,,AUTO
        19 004327   000047 236000 20                 LDQ     39
        19 004330   200102 756100                    STQ     ROPCON+2,,AUTO
PL6.E3A0      #001=Z8EV$CONVERT_ROUND_ON_SIZE File=Z8EV.:Z8A6TSI                 SAT 08/09/97 12:49 Page:126
        19 004331   200102 630500                    EPPR0   ROPCON+2,,AUTO
        19 004332   000003 631400 20                 EPPR1   3
        19 004333   000000 701000 xent               TSX1    Z8AF$FORME_ON_SIZE
        19 004334   000000 011000                    NOP     0
        19 004335   013077 710000 19                 TRA     s:16356

      443    15639
      444    15640    3              CASE (%TYB); /* Convert GBCD to numeric */

      445    15641    3                CALL Z8CO$CREATE_LIBRARY_BASE(%OP_GBCD_TO_ASCII, TABLE_ETT$);

  15641 19 004336   200033 634500                    EPPR4   TABLE_ETT$,,AUTO
        19 004337   200103 454500                    STP4    ROPCON+3,,AUTO
        19 004340   000021 236000 20                 LDQ     17
        19 004341   200102 756100                    STQ     ROPCON+2,,AUTO
        19 004342   200102 630500                    EPPR0   ROPCON+2,,AUTO
        19 004343   000000 631400 20                 EPPR1   0
        19 004344   000000 701000 xent               TSX1    Z8CO$CREATE_LIBRARY_BASE
        19 004345   000000 011000                    NOP     0

      446    15642    3                CALL Z8AF$FORME_ON_SIZE(%CVT, ETT$$, TABLE_ETT$, ETT$$, ON_SIZE);

  15642 19 004346   200042 630500                    EPPR0   ON_SIZE,,AUTO
        19 004347   200106 450500                    STP0    ROPCON+6,,AUTO
        19 004350   200032 631500                    EPPR1   ETT$$,,AUTO
        19 004351   200105 451500                    STP1    ROPCON+5,,AUTO
        19 004352   200033 633500                    EPPR3   TABLE_ETT$,,AUTO
        19 004353   200104 453500                    STP3    ROPCON+4,,AUTO
        19 004354   200032 634500                    EPPR4   ETT$$,,AUTO
        19 004355   200103 454500                    STP4    ROPCON+3,,AUTO
        19 004356   000023 236000 20                 LDQ     19
        19 004357   200102 756100                    STQ     ROPCON+2,,AUTO
        19 004360   200102 630500                    EPPR0   ROPCON+2,,AUTO
        19 004361   000003 631400 20                 EPPR1   3
        19 004362   000000 701000 xent               TSX1    Z8AF$FORME_ON_SIZE
        19 004363   000000 011000                    NOP     0

PL6.E3A0      #001=Z8EV$CONVERT_ROUND_ON_SIZE File=Z8EV.:Z8A6TSI                 SAT 08/09/97 12:49 Page:127
      447    15643    3                CALL Z8AF$FORME_ON_SIZE(%DAN, ETT$$, 0, ETT$$, ON_SIZE);

  15643 19 004364   200042 630500                    EPPR0   ON_SIZE,,AUTO
        19 004365   200106 450500                    STP0    ROPCON+6,,AUTO
        19 004366   200032 631500                    EPPR1   ETT$$,,AUTO
        19 004367   200105 451500                    STP1    ROPCON+5,,AUTO
        19 004370   000007 236000 20                 LDQ     7
        19 004371   200104 756100                    STQ     ROPCON+4,,AUTO
        19 004372   200032 633500                    EPPR3   ETT$$,,AUTO
        19 004373   200103 453500                    STP3    ROPCON+3,,AUTO
        19 004374   000047 236000 20                 LDQ     39
        19 004375   200102 756100                    STQ     ROPCON+2,,AUTO
        19 004376   200102 630500                    EPPR0   ROPCON+2,,AUTO
        19 004377   000003 631400 20                 EPPR1   3
        19 004400   000000 701000 xent               TSX1    Z8AF$FORME_ON_SIZE
        19 004401   000000 011000                    NOP     0
        19 004402   013077 710000 19                 TRA     s:16356

      448    15644
      449    15645    3              CASE (%TYX, %TYY);

      450    15646    3                CALL Z8AE$ERROR (%E$UNEXPECTED_CASE,

  15646 19 004403   200034 236100                    LDQ     FROM$,,AUTO
        19 004404   000006 036003                    ADLQ    6,DU
        19 004405   200104 756100                    STQ     ROPCON+4,,AUTO
        19 004406   200034 236100                    LDQ     FROM$,,AUTO
        19 004407   000005 036003                    ADLQ    5,DU
        19 004410   000017 235000 20                 LDA     15
        19 004411   200102 757100                    STAQ    ROPCON+2,,AUTO
        19 004412   200102 630500                    EPPR0   ROPCON+2,,AUTO
        19 004413   000013 631400 20                 EPPR1   11
        19 004414   000000 701000 xent               TSX1    Z8AE$ERROR
        19 004415   000000 011000                    NOP     0
        19 004416   013077 710000 19                 TRA     s:16356

      451    15647    3                                 FROM$ -> LX_ETT_ITEM.LINE,
PL6.E3A0      #001=Z8EV$CONVERT_ROUND_ON_SIZE File=Z8EV.:Z8A6TSI                 SAT 08/09/97 12:49 Page:128
      452    15648    3                                 FROM$ -> LX_ETT_ITEM.COLUMN);
      453    15649
      454    15650    3              CASE(%TYT);

      455    15651    3                ALL = FROM$ -> LX_ETT_ITEM.B.ALL;

  15651 19 004417   300000 236100                    LDQ     0,,PR3
        19 004420   000025 736000                    QLS     21
        19 004421   400000 376003                    ANQ     -131072,DU
        19 004422   200041 756100                    STQ     ALL,,AUTO

      456    15652    3                IF ALL AND FROM$ -> LX_ITEM.SYMBOL ~= %RSV_WRD_ZEROES THEN

  15652 19 004423   200041 234100                    SZN     ALL,,AUTO
        19 004424   004505 605000 19                 TPL     s:15667
        19 004425   300003 235100                    LDA     3,,PR3
        19 004426   000761 115007                    CMPA    497,DL
        19 004427   004505 600000 19                 TZE     s:15667

      457    15653    4                  DO;

      458    15654    4                    CALL SEARCH (I, N, DIGIT_SCAN_TABLE, SUBSTR (FROM$ -> LX_ITEM.DNT$

  15654 19 004430   300002 474500                    LDP4    2,,PR3
        19 004431   400004 220100                    LDX0    4,,PR4
        19 004432   777776 621010                    EAX1    -2,X0
        19 004433   000000 164540                    TCT
        19 004434   400004 600011                    ADSC9   4,,PR4                   cn=3,n=*X1
        19 004435   000000 000000 xsym               ARG     DIGIT_SCAN_TABLE
        19 004436   200037 000100                    ARG     I,,AUTO
        19 004437   200037 235100                    LDA     I,,AUTO
        19 004440   000033 771000                    ARL     27
        19 004441   200040 755100                    STA     N,,AUTO
        19 004442   200037 551140                    STBA    I,'40'O,AUTO
        19 004443   004472 606400 19                 TTN     s:15665

      459    15655    4                       -> DNT.TEXT.NAME, 1, FROM$ -> LX_ITEM.DNT$ -> DNT.TEXT.LENGTH -
PL6.E3A0      #001=Z8EV$CONVERT_ROUND_ON_SIZE File=Z8EV.:Z8A6TSI                 SAT 08/09/97 12:49 Page:129
             15655                                 2))
      460    15656    5                      WHENRETURN DO; /* Non-digit found */

      461    15657    5                        CALL Z8AE$ERROR (%E$ONLY_UNSIGNED_TYA_TO_NUM,

  15657 19 004444   200034 236100                    LDQ     FROM$,,AUTO
        19 004445   000006 036003                    ADLQ    6,DU
        19 004446   200104 756100                    STQ     ROPCON+4,,AUTO
        19 004447   200034 236100                    LDQ     FROM$,,AUTO
        19 004450   000005 036003                    ADLQ    5,DU
        19 004451   000053 235000 20                 LDA     43
        19 004452   200102 757100                    STAQ    ROPCON+2,,AUTO
        19 004453   200102 630500                    EPPR0   ROPCON+2,,AUTO
        19 004454   000013 631400 20                 EPPR1   11
        19 004455   000000 701000 xent               TSX1    Z8AE$ERROR
        19 004456   000000 011000                    NOP     0

      462    15658    5                                         FROM$ -> LX_ITEM.LINE,
      463    15659    5                                         FROM$ -> LX_ITEM.COLUMN);
      464    15660    5                        LEX_SYMBOL.SIZE = 3;

  15660 19 004457   000003 235007                    LDA     3,DL
        19 004460   000010 755000 13                 STA     LEX_SYMBOL+8

      465    15661    5                        LEX_SYMBOL.SYMBOL = '"1"';

  15661 19 004461   040000 100400                    MLR     fill='040'O
        19 004462   000000 000003 18                 ADSC9   0                        cn=0,n=3
        19 004463   000011 000504 13                 ADSC9   LEX_SYMBOL+9             cn=0,n=324

      466    15662    5                        CALL Z8AH$SEARCH_;

  15662 19 004464   000006 631400 20                 EPPR1   6
        19 004465   000000 701000 xent               TSX1    Z8AH$SEARCH_
        19 004466   000000 011000                    NOP     0

      467    15663    5                        FROM$ -> LX_TERMINAL.DNT$ = DNT$;
PL6.E3A0      #001=Z8EV$CONVERT_ROUND_ON_SIZE File=Z8EV.:Z8A6TSI                 SAT 08/09/97 12:49 Page:130

  15663 19 004467   000000 236000 7                  LDQ     DNT$
        19 004470   200034 470500                    LDP0    FROM$,,AUTO
        19 004471   000002 756100                    STQ     2,,PR0

      468    15664    5                      END;

      469    15665    4                    CALL Z8EC$CREATE_CONST(%TYA, FROM$, ETT$$);

  15665 19 004472   200032 630500                    EPPR0   ETT$$,,AUTO
        19 004473   200104 450500                    STP0    ROPCON+4,,AUTO
        19 004474   200034 631500                    EPPR1   FROM$,,AUTO
        19 004475   200103 451500                    STP1    ROPCON+3,,AUTO
        19 004476   000045 236000 20                 LDQ     37
        19 004477   200102 756100                    STQ     ROPCON+2,,AUTO
        19 004500   200102 630500                    EPPR0   ROPCON+2,,AUTO
        19 004501   000013 631400 20                 EPPR1   11
        19 004502   000000 701000 xent               TSX1    Z8EC$CREATE_CONST
        19 004503   000000 011000                    NOP     0

      470    15666    4                  END;

  15666 19 004504   013077 710000 19                 TRA     s:16356

      471    15667    3                  ELSE CALL Z8EC$CREATE_CONST(%TYD, FROM$, ETT$$);

  15667 19 004505   200032 634500                    EPPR4   ETT$$,,AUTO
        19 004506   200104 454500                    STP4    ROPCON+4,,AUTO
        19 004507   200034 635500                    EPPR5   FROM$,,AUTO
        19 004510   200103 455500                    STP5    ROPCON+3,,AUTO
        19 004511   000007 236000 20                 LDQ     7
        19 004512   200102 756100                    STQ     ROPCON+2,,AUTO
        19 004513   200102 630500                    EPPR0   ROPCON+2,,AUTO
        19 004514   000013 631400 20                 EPPR1   11
        19 004515   000000 701000 xent               TSX1    Z8EC$CREATE_CONST
        19 004516   000000 011000                    NOP     0

PL6.E3A0      #001=Z8EV$CONVERT_ROUND_ON_SIZE File=Z8EV.:Z8A6TSI                 SAT 08/09/97 12:49 Page:131
      472    15668
      473    15669    3            END /* CASE (%TYD) */;

  15669 19 004517   013077 710000 19                 TRA     s:16356

      474    15670        %EJECT;
PL6.E3A0      #001=Z8EV$CONVERT_ROUND_ON_SIZE File=Z8EV.:Z8A6TSI                 SAT 08/09/97 12:49 Page:132
      475    15671    2          CASE (%TYO);

      476    15672    3            DO CASE(FROM$ -> LX_ITEM.TYPE);

  15672 19 004520   200034 473500                    LDP3    FROM$,,AUTO
        19 004521   300004 235100                    LDA     4,,PR3
        19 004522   000020 115007                    CMPA    16,DL
        19 004523   004525 602005 19                 TNC     s:15672+5,AL
        19 004524   013077 710000 19                 TRA     s:16356
        19 004525   004545 710000 19                 TRA     s:15675
        19 004526   004564 710000 19                 TRA     s:15678
        19 004527   004631 710000 19                 TRA     s:15683
        19 004530   005576 710000 19                 TRA     s:15759
        19 004531   005032 710000 19                 TRA     s:15698
        19 004532   005107 710000 19                 TRA     s:15704
        19 004533   005221 710000 19                 TRA     s:15714
        19 004534   004757 710000 19                 TRA     s:15693
        19 004535   005164 710000 19                 TRA     s:15710
        19 004536   005466 710000 19                 TRA     s:15737
        19 004537   005466 710000 19                 TRA     s:15737
        19 004540   005304 710000 19                 TRA     s:15720
        19 004541   005403 710000 19                 TRA     s:15731
        19 004542   005502 710000 19                 TRA     s:15742
        19 004543   005576 710000 19                 TRA     s:15759
        19 004544   004704 710000 19                 TRA     s:15688

      477    15673
      478    15674    3              CASE (%TYD);

      479    15675    3                CALL Z8AF$FORME_ON_SIZE(%CVDO, ETT$$, 0, ETT$$, ON_SIZE);

  15675 19 004545   200042 634500                    EPPR4   ON_SIZE,,AUTO
        19 004546   200106 454500                    STP4    ROPCON+6,,AUTO
        19 004547   200032 635500                    EPPR5   ETT$$,,AUTO
        19 004550   200105 455500                    STP5    ROPCON+5,,AUTO
        19 004551   000007 236000 20                 LDQ     7
        19 004552   200104 756100                    STQ     ROPCON+4,,AUTO
PL6.E3A0      #001=Z8EV$CONVERT_ROUND_ON_SIZE File=Z8EV.:Z8A6TSI                 SAT 08/09/97 12:49 Page:133
        19 004553   200032 636500                    EPPR6   ETT$$,,AUTO
        19 004554   200103 456500                    STP6    ROPCON+3,,AUTO
        19 004555   000077 236000 20                 LDQ     63
        19 004556   200102 756100                    STQ     ROPCON+2,,AUTO
        19 004557   200102 630500                    EPPR0   ROPCON+2,,AUTO
        19 004560   000003 631400 20                 EPPR1   3
        19 004561   000000 701000 xent               TSX1    Z8AF$FORME_ON_SIZE
        19 004562   000000 011000                    NOP     0
        19 004563   013077 710000 19                 TRA     s:16356

      480    15676
      481    15677    3              CASE (%TYI);

      482    15678    3                CALL Z8EV$WORD_TO_BYTE_UNITS(ETT$$, ETT$$);

  15678 19 004564   200032 634500                    EPPR4   ETT$$,,AUTO
        19 004565   200103 454500                    STP4    ROPCON+3,,AUTO
        19 004566   200032 635500                    EPPR5   ETT$$,,AUTO
        19 004567   200102 455500                    STP5    ROPCON+2,,AUTO
        19 004570   200102 630500                    EPPR0   ROPCON+2,,AUTO
        19 004571   000000 631400 20                 EPPR1   0
        19 004572   000000 701000 xent               TSX1    Z8EV$WORD_TO_BYTE_UNITS
        19 004573   000000 011000                    NOP     0

      483    15679    3                CALL Z8AF$FORME_ON_SIZE(%CVID4, ETT$$, 0, ETT$$, ON_SIZE);

  15679 19 004574   200042 630500                    EPPR0   ON_SIZE,,AUTO
        19 004575   200106 450500                    STP0    ROPCON+6,,AUTO
        19 004576   200032 631500                    EPPR1   ETT$$,,AUTO
        19 004577   200105 451500                    STP1    ROPCON+5,,AUTO
        19 004600   000007 236000 20                 LDQ     7
        19 004601   200104 756100                    STQ     ROPCON+4,,AUTO
        19 004602   200032 633500                    EPPR3   ETT$$,,AUTO
        19 004603   200103 453500                    STP3    ROPCON+3,,AUTO
        19 004604   000067 236000 20                 LDQ     55
        19 004605   200102 756100                    STQ     ROPCON+2,,AUTO
        19 004606   200102 630500                    EPPR0   ROPCON+2,,AUTO
PL6.E3A0      #001=Z8EV$CONVERT_ROUND_ON_SIZE File=Z8EV.:Z8A6TSI                 SAT 08/09/97 12:49 Page:134
        19 004607   000003 631400 20                 EPPR1   3
        19 004610   000000 701000 xent               TSX1    Z8AF$FORME_ON_SIZE
        19 004611   000000 011000                    NOP     0

      484    15680    3                CALL Z8AF$FORME_ON_SIZE(%CVDO, ETT$$, 0, ETT$$, ON_SIZE);

  15680 19 004612   200042 630500                    EPPR0   ON_SIZE,,AUTO
        19 004613   200106 450500                    STP0    ROPCON+6,,AUTO
        19 004614   200032 631500                    EPPR1   ETT$$,,AUTO
        19 004615   200105 451500                    STP1    ROPCON+5,,AUTO
        19 004616   000007 236000 20                 LDQ     7
        19 004617   200104 756100                    STQ     ROPCON+4,,AUTO
        19 004620   200032 633500                    EPPR3   ETT$$,,AUTO
        19 004621   200103 453500                    STP3    ROPCON+3,,AUTO
        19 004622   000077 236000 20                 LDQ     63
        19 004623   200102 756100                    STQ     ROPCON+2,,AUTO
        19 004624   200102 630500                    EPPR0   ROPCON+2,,AUTO
        19 004625   000003 631400 20                 EPPR1   3
        19 004626   000000 701000 xent               TSX1    Z8AF$FORME_ON_SIZE
        19 004627   000000 011000                    NOP     0
        19 004630   013077 710000 19                 TRA     s:16356

      485    15681
      486    15682    3              CASE (%TYJ);

      487    15683    3                CALL Z8AF$FORME_ON_SIZE(%CVJI, ETT$$, 0, ETT$$, ON_SIZE);

  15683 19 004631   200042 634500                    EPPR4   ON_SIZE,,AUTO
        19 004632   200106 454500                    STP4    ROPCON+6,,AUTO
        19 004633   200032 635500                    EPPR5   ETT$$,,AUTO
        19 004634   200105 455500                    STP5    ROPCON+5,,AUTO
        19 004635   000007 236000 20                 LDQ     7
        19 004636   200104 756100                    STQ     ROPCON+4,,AUTO
        19 004637   200032 636500                    EPPR6   ETT$$,,AUTO
        19 004640   200103 456500                    STP6    ROPCON+3,,AUTO
        19 004641   000027 236000 20                 LDQ     23
        19 004642   200102 756100                    STQ     ROPCON+2,,AUTO
PL6.E3A0      #001=Z8EV$CONVERT_ROUND_ON_SIZE File=Z8EV.:Z8A6TSI                 SAT 08/09/97 12:49 Page:135
        19 004643   200102 630500                    EPPR0   ROPCON+2,,AUTO
        19 004644   000003 631400 20                 EPPR1   3
        19 004645   000000 701000 xent               TSX1    Z8AF$FORME_ON_SIZE
        19 004646   000000 011000                    NOP     0

      488    15684    3                CALL Z8AF$FORME_ON_SIZE(%CVID4, ETT$$, 0, ETT$$, ON_SIZE);

  15684 19 004647   200042 630500                    EPPR0   ON_SIZE,,AUTO
        19 004650   200106 450500                    STP0    ROPCON+6,,AUTO
        19 004651   200032 631500                    EPPR1   ETT$$,,AUTO
        19 004652   200105 451500                    STP1    ROPCON+5,,AUTO
        19 004653   000007 236000 20                 LDQ     7
        19 004654   200104 756100                    STQ     ROPCON+4,,AUTO
        19 004655   200032 633500                    EPPR3   ETT$$,,AUTO
        19 004656   200103 453500                    STP3    ROPCON+3,,AUTO
        19 004657   000067 236000 20                 LDQ     55
        19 004660   200102 756100                    STQ     ROPCON+2,,AUTO
        19 004661   200102 630500                    EPPR0   ROPCON+2,,AUTO
        19 004662   000003 631400 20                 EPPR1   3
        19 004663   000000 701000 xent               TSX1    Z8AF$FORME_ON_SIZE
        19 004664   000000 011000                    NOP     0

      489    15685    3                CALL Z8AF$FORME_ON_SIZE(%CVDO, ETT$$, 0, ETT$$, ON_SIZE);

  15685 19 004665   200042 630500                    EPPR0   ON_SIZE,,AUTO
        19 004666   200106 450500                    STP0    ROPCON+6,,AUTO
        19 004667   200032 631500                    EPPR1   ETT$$,,AUTO
        19 004670   200105 451500                    STP1    ROPCON+5,,AUTO
        19 004671   000007 236000 20                 LDQ     7
        19 004672   200104 756100                    STQ     ROPCON+4,,AUTO
        19 004673   200032 633500                    EPPR3   ETT$$,,AUTO
        19 004674   200103 453500                    STP3    ROPCON+3,,AUTO
        19 004675   000077 236000 20                 LDQ     63
        19 004676   200102 756100                    STQ     ROPCON+2,,AUTO
        19 004677   200102 630500                    EPPR0   ROPCON+2,,AUTO
        19 004700   000003 631400 20                 EPPR1   3
        19 004701   000000 701000 xent               TSX1    Z8AF$FORME_ON_SIZE
PL6.E3A0      #001=Z8EV$CONVERT_ROUND_ON_SIZE File=Z8EV.:Z8A6TSI                 SAT 08/09/97 12:49 Page:136
        19 004702   000000 011000                    NOP     0
        19 004703   013077 710000 19                 TRA     s:16356

      490    15686
      491    15687    3              CASE (%TYK);

      492    15688    3                CALL Z8AF$FORME_ON_SIZE(%CVKI, ETT$$, 0, ETT$$, ON_SIZE);

  15688 19 004704   200042 634500                    EPPR4   ON_SIZE,,AUTO
        19 004705   200106 454500                    STP4    ROPCON+6,,AUTO
        19 004706   200032 635500                    EPPR5   ETT$$,,AUTO
        19 004707   200105 455500                    STP5    ROPCON+5,,AUTO
        19 004710   000007 236000 20                 LDQ     7
        19 004711   200104 756100                    STQ     ROPCON+4,,AUTO
        19 004712   200032 636500                    EPPR6   ETT$$,,AUTO
        19 004713   200103 456500                    STP6    ROPCON+3,,AUTO
        19 004714   000031 236000 20                 LDQ     25
        19 004715   200102 756100                    STQ     ROPCON+2,,AUTO
        19 004716   200102 630500                    EPPR0   ROPCON+2,,AUTO
        19 004717   000003 631400 20                 EPPR1   3
        19 004720   000000 701000 xent               TSX1    Z8AF$FORME_ON_SIZE
        19 004721   000000 011000                    NOP     0

      493    15689    3                CALL Z8AF$FORME_ON_SIZE(%CVID4, ETT$$, 0, ETT$$, ON_SIZE);

  15689 19 004722   200042 630500                    EPPR0   ON_SIZE,,AUTO
        19 004723   200106 450500                    STP0    ROPCON+6,,AUTO
        19 004724   200032 631500                    EPPR1   ETT$$,,AUTO
        19 004725   200105 451500                    STP1    ROPCON+5,,AUTO
        19 004726   000007 236000 20                 LDQ     7
        19 004727   200104 756100                    STQ     ROPCON+4,,AUTO
        19 004730   200032 633500                    EPPR3   ETT$$,,AUTO
        19 004731   200103 453500                    STP3    ROPCON+3,,AUTO
        19 004732   000067 236000 20                 LDQ     55
        19 004733   200102 756100                    STQ     ROPCON+2,,AUTO
        19 004734   200102 630500                    EPPR0   ROPCON+2,,AUTO
        19 004735   000003 631400 20                 EPPR1   3
PL6.E3A0      #001=Z8EV$CONVERT_ROUND_ON_SIZE File=Z8EV.:Z8A6TSI                 SAT 08/09/97 12:49 Page:137
        19 004736   000000 701000 xent               TSX1    Z8AF$FORME_ON_SIZE
        19 004737   000000 011000                    NOP     0

      494    15690    3                CALL Z8AF$FORME_ON_SIZE(%CVDO, ETT$$, 0, ETT$$, ON_SIZE);

  15690 19 004740   200042 630500                    EPPR0   ON_SIZE,,AUTO
        19 004741   200106 450500                    STP0    ROPCON+6,,AUTO
        19 004742   200032 631500                    EPPR1   ETT$$,,AUTO
        19 004743   200105 451500                    STP1    ROPCON+5,,AUTO
        19 004744   000007 236000 20                 LDQ     7
        19 004745   200104 756100                    STQ     ROPCON+4,,AUTO
        19 004746   200032 633500                    EPPR3   ETT$$,,AUTO
        19 004747   200103 453500                    STP3    ROPCON+3,,AUTO
        19 004750   000077 236000 20                 LDQ     63
        19 004751   200102 756100                    STQ     ROPCON+2,,AUTO
        19 004752   200102 630500                    EPPR0   ROPCON+2,,AUTO
        19 004753   000003 631400 20                 EPPR1   3
        19 004754   000000 701000 xent               TSX1    Z8AF$FORME_ON_SIZE
        19 004755   000000 011000                    NOP     0
        19 004756   013077 710000 19                 TRA     s:16356

      495    15691
      496    15692    3              CASE (%TYH);

      497    15693    3                CALL Z8AF$FORME_ON_SIZE(%CVHI, ETT$$, 0, ETT$$, ON_SIZE);

  15693 19 004757   200042 634500                    EPPR4   ON_SIZE,,AUTO
        19 004760   200106 454500                    STP4    ROPCON+6,,AUTO
        19 004761   200032 635500                    EPPR5   ETT$$,,AUTO
        19 004762   200105 455500                    STP5    ROPCON+5,,AUTO
        19 004763   000007 236000 20                 LDQ     7
        19 004764   200104 756100                    STQ     ROPCON+4,,AUTO
        19 004765   200032 636500                    EPPR6   ETT$$,,AUTO
        19 004766   200103 456500                    STP6    ROPCON+3,,AUTO
        19 004767   000033 236000 20                 LDQ     27
        19 004770   200102 756100                    STQ     ROPCON+2,,AUTO
        19 004771   200102 630500                    EPPR0   ROPCON+2,,AUTO
PL6.E3A0      #001=Z8EV$CONVERT_ROUND_ON_SIZE File=Z8EV.:Z8A6TSI                 SAT 08/09/97 12:49 Page:138
        19 004772   000003 631400 20                 EPPR1   3
        19 004773   000000 701000 xent               TSX1    Z8AF$FORME_ON_SIZE
        19 004774   000000 011000                    NOP     0

      498    15694    3                CALL Z8AF$FORME_ON_SIZE(%CVID4, ETT$$, 0, ETT$$, ON_SIZE);

  15694 19 004775   200042 630500                    EPPR0   ON_SIZE,,AUTO
        19 004776   200106 450500                    STP0    ROPCON+6,,AUTO
        19 004777   200032 631500                    EPPR1   ETT$$,,AUTO
        19 005000   200105 451500                    STP1    ROPCON+5,,AUTO
        19 005001   000007 236000 20                 LDQ     7
        19 005002   200104 756100                    STQ     ROPCON+4,,AUTO
        19 005003   200032 633500                    EPPR3   ETT$$,,AUTO
        19 005004   200103 453500                    STP3    ROPCON+3,,AUTO
        19 005005   000067 236000 20                 LDQ     55
        19 005006   200102 756100                    STQ     ROPCON+2,,AUTO
        19 005007   200102 630500                    EPPR0   ROPCON+2,,AUTO
        19 005010   000003 631400 20                 EPPR1   3
        19 005011   000000 701000 xent               TSX1    Z8AF$FORME_ON_SIZE
        19 005012   000000 011000                    NOP     0

      499    15695    3                CALL Z8AF$FORME_ON_SIZE(%CVDO, ETT$$, 0, ETT$$, ON_SIZE);

  15695 19 005013   200042 630500                    EPPR0   ON_SIZE,,AUTO
        19 005014   200106 450500                    STP0    ROPCON+6,,AUTO
        19 005015   200032 631500                    EPPR1   ETT$$,,AUTO
        19 005016   200105 451500                    STP1    ROPCON+5,,AUTO
        19 005017   000007 236000 20                 LDQ     7
        19 005020   200104 756100                    STQ     ROPCON+4,,AUTO
        19 005021   200032 633500                    EPPR3   ETT$$,,AUTO
        19 005022   200103 453500                    STP3    ROPCON+3,,AUTO
        19 005023   000077 236000 20                 LDQ     63
        19 005024   200102 756100                    STQ     ROPCON+2,,AUTO
        19 005025   200102 630500                    EPPR0   ROPCON+2,,AUTO
        19 005026   000003 631400 20                 EPPR1   3
        19 005027   000000 701000 xent               TSX1    Z8AF$FORME_ON_SIZE
        19 005030   000000 011000                    NOP     0
PL6.E3A0      #001=Z8EV$CONVERT_ROUND_ON_SIZE File=Z8EV.:Z8A6TSI                 SAT 08/09/97 12:49 Page:139
        19 005031   013077 710000 19                 TRA     s:16356

      500    15696
      501    15697    3              CASE (%TYR);

      502    15698    3                CALL Z8AF$FORME_ON_SIZE(%CVRD4, ETT$$, 0, ETT$$, ON_SIZE);

  15698 19 005032   200042 634500                    EPPR4   ON_SIZE,,AUTO
        19 005033   200106 454500                    STP4    ROPCON+6,,AUTO
        19 005034   200032 635500                    EPPR5   ETT$$,,AUTO
        19 005035   200105 455500                    STP5    ROPCON+5,,AUTO
        19 005036   000007 236000 20                 LDQ     7
        19 005037   200104 756100                    STQ     ROPCON+4,,AUTO
        19 005040   200032 636500                    EPPR6   ETT$$,,AUTO
        19 005041   200103 456500                    STP6    ROPCON+3,,AUTO
        19 005042   000071 236000 20                 LDQ     57
        19 005043   200102 756100                    STQ     ROPCON+2,,AUTO
        19 005044   200102 630500                    EPPR0   ROPCON+2,,AUTO
        19 005045   000003 631400 20                 EPPR1   3
        19 005046   000000 701000 xent               TSX1    Z8AF$FORME_ON_SIZE
        19 005047   000000 011000                    NOP     0

      503    15699    3                IF ROUND THEN

  15699 19 005050   200043 234100                    SZN     ROUND,,AUTO
        19 005051   005070 605000 19                 TPL     s:15701

      504    15700    3                  CALL Z8AF$FORME_ON_SIZE(%RNDD, ETT$$, DEST_DESC, ETT$$, ON_SIZE);

  15700 19 005052   200042 630500                    EPPR0   ON_SIZE,,AUTO
        19 005053   200106 450500                    STP0    ROPCON+6,,AUTO
        19 005054   200032 631500                    EPPR1   ETT$$,,AUTO
        19 005055   200105 451500                    STP1    ROPCON+5,,AUTO
        19 005056   200010 236100                    LDQ     @DEST_DESC,,AUTO
        19 005057   200104 756100                    STQ     ROPCON+4,,AUTO
        19 005060   200032 633500                    EPPR3   ETT$$,,AUTO
        19 005061   200103 453500                    STP3    ROPCON+3,,AUTO
PL6.E3A0      #001=Z8EV$CONVERT_ROUND_ON_SIZE File=Z8EV.:Z8A6TSI                 SAT 08/09/97 12:49 Page:140
        19 005062   000073 236000 20                 LDQ     59
        19 005063   200102 756100                    STQ     ROPCON+2,,AUTO
        19 005064   200102 630500                    EPPR0   ROPCON+2,,AUTO
        19 005065   000003 631400 20                 EPPR1   3
        19 005066   000000 701000 xent               TSX1    Z8AF$FORME_ON_SIZE
        19 005067   000000 011000                    NOP     0

      505    15701    3                CALL Z8AF$FORME_ON_SIZE(%CVDO, ETT$$, 0, ETT$$, ON_SIZE);

  15701 19 005070   200042 630500                    EPPR0   ON_SIZE,,AUTO
        19 005071   200106 450500                    STP0    ROPCON+6,,AUTO
        19 005072   200032 631500                    EPPR1   ETT$$,,AUTO
        19 005073   200105 451500                    STP1    ROPCON+5,,AUTO
        19 005074   000007 236000 20                 LDQ     7
        19 005075   200104 756100                    STQ     ROPCON+4,,AUTO
        19 005076   200032 633500                    EPPR3   ETT$$,,AUTO
        19 005077   200103 453500                    STP3    ROPCON+3,,AUTO
        19 005100   000077 236000 20                 LDQ     63
        19 005101   200102 756100                    STQ     ROPCON+2,,AUTO
        19 005102   200102 630500                    EPPR0   ROPCON+2,,AUTO
        19 005103   000003 631400 20                 EPPR1   3
        19 005104   000000 701000 xent               TSX1    Z8AF$FORME_ON_SIZE
        19 005105   000000 011000                    NOP     0
        19 005106   013077 710000 19                 TRA     s:16356

      506    15702
      507    15703    3              CASE (%TYQ);

      508    15704    3                CALL Z8AF$FORME_ON_SIZE(%CVQD4, ETT$$, 0, ETT$$, ON_SIZE);

  15704 19 005107   200042 634500                    EPPR4   ON_SIZE,,AUTO
        19 005110   200106 454500                    STP4    ROPCON+6,,AUTO
        19 005111   200032 635500                    EPPR5   ETT$$,,AUTO
        19 005112   200105 455500                    STP5    ROPCON+5,,AUTO
        19 005113   000007 236000 20                 LDQ     7
        19 005114   200104 756100                    STQ     ROPCON+4,,AUTO
        19 005115   200032 636500                    EPPR6   ETT$$,,AUTO
PL6.E3A0      #001=Z8EV$CONVERT_ROUND_ON_SIZE File=Z8EV.:Z8A6TSI                 SAT 08/09/97 12:49 Page:141
        19 005116   200103 456500                    STP6    ROPCON+3,,AUTO
        19 005117   000075 236000 20                 LDQ     61
        19 005120   200102 756100                    STQ     ROPCON+2,,AUTO
        19 005121   200102 630500                    EPPR0   ROPCON+2,,AUTO
        19 005122   000003 631400 20                 EPPR1   3
        19 005123   000000 701000 xent               TSX1    Z8AF$FORME_ON_SIZE
        19 005124   000000 011000                    NOP     0

      509    15705    3                IF ROUND THEN

  15705 19 005125   200043 234100                    SZN     ROUND,,AUTO
        19 005126   005145 605000 19                 TPL     s:15707

      510    15706    3                  CALL Z8AF$FORME_ON_SIZE(%RNDD, ETT$$, DEST_DESC, ETT$$, ON_SIZE);

  15706 19 005127   200042 630500                    EPPR0   ON_SIZE,,AUTO
        19 005130   200106 450500                    STP0    ROPCON+6,,AUTO
        19 005131   200032 631500                    EPPR1   ETT$$,,AUTO
        19 005132   200105 451500                    STP1    ROPCON+5,,AUTO
        19 005133   200010 236100                    LDQ     @DEST_DESC,,AUTO
        19 005134   200104 756100                    STQ     ROPCON+4,,AUTO
        19 005135   200032 633500                    EPPR3   ETT$$,,AUTO
        19 005136   200103 453500                    STP3    ROPCON+3,,AUTO
        19 005137   000073 236000 20                 LDQ     59
        19 005140   200102 756100                    STQ     ROPCON+2,,AUTO
        19 005141   200102 630500                    EPPR0   ROPCON+2,,AUTO
        19 005142   000003 631400 20                 EPPR1   3
        19 005143   000000 701000 xent               TSX1    Z8AF$FORME_ON_SIZE
        19 005144   000000 011000                    NOP     0

      511    15707    3                CALL Z8AF$FORME_ON_SIZE(%CVDO, ETT$$, 0, ETT$$, ON_SIZE);

  15707 19 005145   200042 630500                    EPPR0   ON_SIZE,,AUTO
        19 005146   200106 450500                    STP0    ROPCON+6,,AUTO
        19 005147   200032 631500                    EPPR1   ETT$$,,AUTO
        19 005150   200105 451500                    STP1    ROPCON+5,,AUTO
        19 005151   000007 236000 20                 LDQ     7
PL6.E3A0      #001=Z8EV$CONVERT_ROUND_ON_SIZE File=Z8EV.:Z8A6TSI                 SAT 08/09/97 12:49 Page:142
        19 005152   200104 756100                    STQ     ROPCON+4,,AUTO
        19 005153   200032 633500                    EPPR3   ETT$$,,AUTO
        19 005154   200103 453500                    STP3    ROPCON+3,,AUTO
        19 005155   000077 236000 20                 LDQ     63
        19 005156   200102 756100                    STQ     ROPCON+2,,AUTO
        19 005157   200102 630500                    EPPR0   ROPCON+2,,AUTO
        19 005160   000003 631400 20                 EPPR1   3
        19 005161   000000 701000 xent               TSX1    Z8AF$FORME_ON_SIZE
        19 005162   000000 011000                    NOP     0
        19 005163   013077 710000 19                 TRA     s:16356

      512    15708
      513    15709    3              CASE (%TYA);

      514    15710    3                CALL Z8AF$FORME_ON_SIZE(%DAN, ETT$$, 0, ETT$$, ON_SIZE);

  15710 19 005164   200042 634500                    EPPR4   ON_SIZE,,AUTO
        19 005165   200106 454500                    STP4    ROPCON+6,,AUTO
        19 005166   200032 635500                    EPPR5   ETT$$,,AUTO
        19 005167   200105 455500                    STP5    ROPCON+5,,AUTO
        19 005170   000007 236000 20                 LDQ     7
        19 005171   200104 756100                    STQ     ROPCON+4,,AUTO
        19 005172   200032 636500                    EPPR6   ETT$$,,AUTO
        19 005173   200103 456500                    STP6    ROPCON+3,,AUTO
        19 005174   000047 236000 20                 LDQ     39
        19 005175   200102 756100                    STQ     ROPCON+2,,AUTO
        19 005176   200102 630500                    EPPR0   ROPCON+2,,AUTO
        19 005177   000003 631400 20                 EPPR1   3
        19 005200   000000 701000 xent               TSX1    Z8AF$FORME_ON_SIZE
        19 005201   000000 011000                    NOP     0

      515    15711    3                CALL Z8AF$FORME_ON_SIZE(%CVDO, ETT$$, 0, ETT$$, ON_SIZE);

  15711 19 005202   200042 630500                    EPPR0   ON_SIZE,,AUTO
        19 005203   200106 450500                    STP0    ROPCON+6,,AUTO
        19 005204   200032 631500                    EPPR1   ETT$$,,AUTO
        19 005205   200105 451500                    STP1    ROPCON+5,,AUTO
PL6.E3A0      #001=Z8EV$CONVERT_ROUND_ON_SIZE File=Z8EV.:Z8A6TSI                 SAT 08/09/97 12:49 Page:143
        19 005206   000007 236000 20                 LDQ     7
        19 005207   200104 756100                    STQ     ROPCON+4,,AUTO
        19 005210   200032 633500                    EPPR3   ETT$$,,AUTO
        19 005211   200103 453500                    STP3    ROPCON+3,,AUTO
        19 005212   000077 236000 20                 LDQ     63
        19 005213   200102 756100                    STQ     ROPCON+2,,AUTO
        19 005214   200102 630500                    EPPR0   ROPCON+2,,AUTO
        19 005215   000003 631400 20                 EPPR1   3
        19 005216   000000 701000 xent               TSX1    Z8AF$FORME_ON_SIZE
        19 005217   000000 011000                    NOP     0
        19 005220   013077 710000 19                 TRA     s:16356

      516    15712
      517    15713    3              CASE (%TYE); /* Convert EBCDIC to overpunched */

      518    15714    3                CALL Z8CO$CREATE_LIBRARY_BASE(%OP_EBCDIC_TO_ASCII, TABLE_ETT$);

  15714 19 005221   200033 634500                    EPPR4   TABLE_ETT$,,AUTO
        19 005222   200103 454500                    STP4    ROPCON+3,,AUTO
        19 005223   000043 236000 20                 LDQ     35
        19 005224   200102 756100                    STQ     ROPCON+2,,AUTO
        19 005225   200102 630500                    EPPR0   ROPCON+2,,AUTO
        19 005226   000000 631400 20                 EPPR1   0
        19 005227   000000 701000 xent               TSX1    Z8CO$CREATE_LIBRARY_BASE
        19 005230   000000 011000                    NOP     0

      519    15715    3                CALL Z8AF$FORME_ON_SIZE(%CVT, ETT$$, TABLE_ETT$, ETT$$, ON_SIZE);

  15715 19 005231   200042 630500                    EPPR0   ON_SIZE,,AUTO
        19 005232   200106 450500                    STP0    ROPCON+6,,AUTO
        19 005233   200032 631500                    EPPR1   ETT$$,,AUTO
        19 005234   200105 451500                    STP1    ROPCON+5,,AUTO
        19 005235   200033 633500                    EPPR3   TABLE_ETT$,,AUTO
        19 005236   200104 453500                    STP3    ROPCON+4,,AUTO
        19 005237   200032 634500                    EPPR4   ETT$$,,AUTO
        19 005240   200103 454500                    STP4    ROPCON+3,,AUTO
        19 005241   000023 236000 20                 LDQ     19
PL6.E3A0      #001=Z8EV$CONVERT_ROUND_ON_SIZE File=Z8EV.:Z8A6TSI                 SAT 08/09/97 12:49 Page:144
        19 005242   200102 756100                    STQ     ROPCON+2,,AUTO
        19 005243   200102 630500                    EPPR0   ROPCON+2,,AUTO
        19 005244   000003 631400 20                 EPPR1   3
        19 005245   000000 701000 xent               TSX1    Z8AF$FORME_ON_SIZE
        19 005246   000000 011000                    NOP     0

      520    15716    3                CALL Z8AF$FORME_ON_SIZE(%DAN, ETT$$, 0, ETT$$, ON_SIZE);

  15716 19 005247   200042 630500                    EPPR0   ON_SIZE,,AUTO
        19 005250   200106 450500                    STP0    ROPCON+6,,AUTO
        19 005251   200032 631500                    EPPR1   ETT$$,,AUTO
        19 005252   200105 451500                    STP1    ROPCON+5,,AUTO
        19 005253   000007 236000 20                 LDQ     7
        19 005254   200104 756100                    STQ     ROPCON+4,,AUTO
        19 005255   200032 633500                    EPPR3   ETT$$,,AUTO
        19 005256   200103 453500                    STP3    ROPCON+3,,AUTO
        19 005257   000047 236000 20                 LDQ     39
        19 005260   200102 756100                    STQ     ROPCON+2,,AUTO
        19 005261   200102 630500                    EPPR0   ROPCON+2,,AUTO
        19 005262   000003 631400 20                 EPPR1   3
        19 005263   000000 701000 xent               TSX1    Z8AF$FORME_ON_SIZE
        19 005264   000000 011000                    NOP     0

      521    15717    3                CALL Z8AF$FORME_ON_SIZE(%CVDO, ETT$$, 0, ETT$$, ON_SIZE);

  15717 19 005265   200042 630500                    EPPR0   ON_SIZE,,AUTO
        19 005266   200106 450500                    STP0    ROPCON+6,,AUTO
        19 005267   200032 631500                    EPPR1   ETT$$,,AUTO
        19 005270   200105 451500                    STP1    ROPCON+5,,AUTO
        19 005271   000007 236000 20                 LDQ     7
        19 005272   200104 756100                    STQ     ROPCON+4,,AUTO
        19 005273   200032 633500                    EPPR3   ETT$$,,AUTO
        19 005274   200103 453500                    STP3    ROPCON+3,,AUTO
        19 005275   000077 236000 20                 LDQ     63
        19 005276   200102 756100                    STQ     ROPCON+2,,AUTO
        19 005277   200102 630500                    EPPR0   ROPCON+2,,AUTO
        19 005300   000003 631400 20                 EPPR1   3
PL6.E3A0      #001=Z8EV$CONVERT_ROUND_ON_SIZE File=Z8EV.:Z8A6TSI                 SAT 08/09/97 12:49 Page:145
        19 005301   000000 701000 xent               TSX1    Z8AF$FORME_ON_SIZE
        19 005302   000000 011000                    NOP     0
        19 005303   013077 710000 19                 TRA     s:16356

      522    15718
      523    15719    3              CASE (%TYF); /* Convert EBCDIC numeric to overpunched */

      524    15720    3                CALL Z8AU$TYPE_DESCRIPTOR(ETT$$, TYPE_DESC);

  15720 19 005304   200044 634500                    EPPR4   TYPE_DESC,,AUTO
        19 005305   200103 454500                    STP4    ROPCON+3,,AUTO
        19 005306   200032 635500                    EPPR5   ETT$$,,AUTO
        19 005307   200102 455500                    STP5    ROPCON+2,,AUTO
        19 005310   200102 630500                    EPPR0   ROPCON+2,,AUTO
        19 005311   000000 631400 20                 EPPR1   0
        19 005312   000000 701000 xent               TSX1    Z8AU$TYPE_DESCRIPTOR
        19 005313   000000 011000                    NOP     0

      525    15721    3                IF TYPE_DESC.DESC.NDSC.TN = %NDSC4 /* Overpunched */ THEN

  15721 19 005314   200045 236100                    LDQ     TYPE_DESC+1,,AUTO
        19 005315   040000 316007                    CANQ    16384,DL
        19 005316   005336 600000 19                 TZE     s:15725

      526    15722    3                  CALL Z8AF$FORME_ON_SIZE(%CVOD4, ETT$$, 0, ETT$$, ON_SIZE);

  15722 19 005317   200042 630500                    EPPR0   ON_SIZE,,AUTO
        19 005320   200106 450500                    STP0    ROPCON+6,,AUTO
        19 005321   200032 631500                    EPPR1   ETT$$,,AUTO
        19 005322   200105 451500                    STP1    ROPCON+5,,AUTO
        19 005323   000007 236000 20                 LDQ     7
        19 005324   200104 756100                    STQ     ROPCON+4,,AUTO
        19 005325   200032 633500                    EPPR3   ETT$$,,AUTO
        19 005326   200103 453500                    STP3    ROPCON+3,,AUTO
        19 005327   000035 236000 20                 LDQ     29
        19 005330   200102 756100                    STQ     ROPCON+2,,AUTO
        19 005331   200102 630500                    EPPR0   ROPCON+2,,AUTO
PL6.E3A0      #001=Z8EV$CONVERT_ROUND_ON_SIZE File=Z8EV.:Z8A6TSI                 SAT 08/09/97 12:49 Page:146
        19 005332   000003 631400 20                 EPPR1   3
        19 005333   000000 701000 xent               TSX1    Z8AF$FORME_ON_SIZE
        19 005334   000000 011000                    NOP     0
        19 005335   005364 710000 19                 TRA     s:15728

      527    15723    3                ELSE
      528    15724    4                  DO;

      529    15725    4                    CALL Z8CO$CREATE_LIBRARY_BASE(%OP_EBCDIC_TO_ASCII, TABLE_ETT$);

  15725 19 005336   200033 630500                    EPPR0   TABLE_ETT$,,AUTO
        19 005337   200103 450500                    STP0    ROPCON+3,,AUTO
        19 005340   000043 236000 20                 LDQ     35
        19 005341   200102 756100                    STQ     ROPCON+2,,AUTO
        19 005342   200102 630500                    EPPR0   ROPCON+2,,AUTO
        19 005343   000000 631400 20                 EPPR1   0
        19 005344   000000 701000 xent               TSX1    Z8CO$CREATE_LIBRARY_BASE
        19 005345   000000 011000                    NOP     0

      530    15726    4                    CALL Z8AF$FORME_ON_SIZE(%CVT, ETT$$, TABLE_ETT$, ETT$$, ON_SIZE);

  15726 19 005346   200042 630500                    EPPR0   ON_SIZE,,AUTO
        19 005347   200106 450500                    STP0    ROPCON+6,,AUTO
        19 005350   200032 631500                    EPPR1   ETT$$,,AUTO
        19 005351   200105 451500                    STP1    ROPCON+5,,AUTO
        19 005352   200033 633500                    EPPR3   TABLE_ETT$,,AUTO
        19 005353   200104 453500                    STP3    ROPCON+4,,AUTO
        19 005354   200032 634500                    EPPR4   ETT$$,,AUTO
        19 005355   200103 454500                    STP4    ROPCON+3,,AUTO
        19 005356   000023 236000 20                 LDQ     19
        19 005357   200102 756100                    STQ     ROPCON+2,,AUTO
        19 005360   200102 630500                    EPPR0   ROPCON+2,,AUTO
        19 005361   000003 631400 20                 EPPR1   3
        19 005362   000000 701000 xent               TSX1    Z8AF$FORME_ON_SIZE
        19 005363   000000 011000                    NOP     0

      531    15727    4                  END;
PL6.E3A0      #001=Z8EV$CONVERT_ROUND_ON_SIZE File=Z8EV.:Z8A6TSI                 SAT 08/09/97 12:49 Page:147

      532    15728    3                CALL Z8AF$FORME_ON_SIZE(%CVDO, ETT$$, 0, ETT$$, ON_SIZE);

  15728 19 005364   200042 630500                    EPPR0   ON_SIZE,,AUTO
        19 005365   200106 450500                    STP0    ROPCON+6,,AUTO
        19 005366   200032 631500                    EPPR1   ETT$$,,AUTO
        19 005367   200105 451500                    STP1    ROPCON+5,,AUTO
        19 005370   000007 236000 20                 LDQ     7
        19 005371   200104 756100                    STQ     ROPCON+4,,AUTO
        19 005372   200032 633500                    EPPR3   ETT$$,,AUTO
        19 005373   200103 453500                    STP3    ROPCON+3,,AUTO
        19 005374   000077 236000 20                 LDQ     63
        19 005375   200102 756100                    STQ     ROPCON+2,,AUTO
        19 005376   200102 630500                    EPPR0   ROPCON+2,,AUTO
        19 005377   000003 631400 20                 EPPR1   3
        19 005400   000000 701000 xent               TSX1    Z8AF$FORME_ON_SIZE
        19 005401   000000 011000                    NOP     0
        19 005402   013077 710000 19                 TRA     s:16356

      533    15729
      534    15730    3              CASE (%TYB); /* Convert GBCD to numeric */

      535    15731    3                CALL Z8CO$CREATE_LIBRARY_BASE(%OP_GBCD_TO_ASCII, TABLE_ETT$);

  15731 19 005403   200033 634500                    EPPR4   TABLE_ETT$,,AUTO
        19 005404   200103 454500                    STP4    ROPCON+3,,AUTO
        19 005405   000021 236000 20                 LDQ     17
        19 005406   200102 756100                    STQ     ROPCON+2,,AUTO
        19 005407   200102 630500                    EPPR0   ROPCON+2,,AUTO
        19 005410   000000 631400 20                 EPPR1   0
        19 005411   000000 701000 xent               TSX1    Z8CO$CREATE_LIBRARY_BASE
        19 005412   000000 011000                    NOP     0

      536    15732    3                CALL Z8AF$FORME_ON_SIZE(%CVT, ETT$$, TABLE_ETT$, ETT$$, ON_SIZE);

  15732 19 005413   200042 630500                    EPPR0   ON_SIZE,,AUTO
        19 005414   200106 450500                    STP0    ROPCON+6,,AUTO
PL6.E3A0      #001=Z8EV$CONVERT_ROUND_ON_SIZE File=Z8EV.:Z8A6TSI                 SAT 08/09/97 12:49 Page:148
        19 005415   200032 631500                    EPPR1   ETT$$,,AUTO
        19 005416   200105 451500                    STP1    ROPCON+5,,AUTO
        19 005417   200033 633500                    EPPR3   TABLE_ETT$,,AUTO
        19 005420   200104 453500                    STP3    ROPCON+4,,AUTO
        19 005421   200032 634500                    EPPR4   ETT$$,,AUTO
        19 005422   200103 454500                    STP4    ROPCON+3,,AUTO
        19 005423   000023 236000 20                 LDQ     19
        19 005424   200102 756100                    STQ     ROPCON+2,,AUTO
        19 005425   200102 630500                    EPPR0   ROPCON+2,,AUTO
        19 005426   000003 631400 20                 EPPR1   3
        19 005427   000000 701000 xent               TSX1    Z8AF$FORME_ON_SIZE
        19 005430   000000 011000                    NOP     0

      537    15733    3                CALL Z8AF$FORME_ON_SIZE(%DAN, ETT$$, 0, ETT$$, ON_SIZE);

  15733 19 005431   200042 630500                    EPPR0   ON_SIZE,,AUTO
        19 005432   200106 450500                    STP0    ROPCON+6,,AUTO
        19 005433   200032 631500                    EPPR1   ETT$$,,AUTO
        19 005434   200105 451500                    STP1    ROPCON+5,,AUTO
        19 005435   000007 236000 20                 LDQ     7
        19 005436   200104 756100                    STQ     ROPCON+4,,AUTO
        19 005437   200032 633500                    EPPR3   ETT$$,,AUTO
        19 005440   200103 453500                    STP3    ROPCON+3,,AUTO
        19 005441   000047 236000 20                 LDQ     39
        19 005442   200102 756100                    STQ     ROPCON+2,,AUTO
        19 005443   200102 630500                    EPPR0   ROPCON+2,,AUTO
        19 005444   000003 631400 20                 EPPR1   3
        19 005445   000000 701000 xent               TSX1    Z8AF$FORME_ON_SIZE
        19 005446   000000 011000                    NOP     0

      538    15734    3                CALL Z8AF$FORME_ON_SIZE(%CVDO, ETT$$, 0, ETT$$, ON_SIZE);

  15734 19 005447   200042 630500                    EPPR0   ON_SIZE,,AUTO
        19 005450   200106 450500                    STP0    ROPCON+6,,AUTO
        19 005451   200032 631500                    EPPR1   ETT$$,,AUTO
        19 005452   200105 451500                    STP1    ROPCON+5,,AUTO
        19 005453   000007 236000 20                 LDQ     7
PL6.E3A0      #001=Z8EV$CONVERT_ROUND_ON_SIZE File=Z8EV.:Z8A6TSI                 SAT 08/09/97 12:49 Page:149
        19 005454   200104 756100                    STQ     ROPCON+4,,AUTO
        19 005455   200032 633500                    EPPR3   ETT$$,,AUTO
        19 005456   200103 453500                    STP3    ROPCON+3,,AUTO
        19 005457   000077 236000 20                 LDQ     63
        19 005460   200102 756100                    STQ     ROPCON+2,,AUTO
        19 005461   200102 630500                    EPPR0   ROPCON+2,,AUTO
        19 005462   000003 631400 20                 EPPR1   3
        19 005463   000000 701000 xent               TSX1    Z8AF$FORME_ON_SIZE
        19 005464   000000 011000                    NOP     0
        19 005465   013077 710000 19                 TRA     s:16356

      539    15735
      540    15736    3              CASE (%TYX, %TYY);

      541    15737    3                CALL Z8AE$ERROR (%E$UNEXPECTED_CASE,

  15737 19 005466   200034 236100                    LDQ     FROM$,,AUTO
        19 005467   000006 036003                    ADLQ    6,DU
        19 005470   200104 756100                    STQ     ROPCON+4,,AUTO
        19 005471   200034 236100                    LDQ     FROM$,,AUTO
        19 005472   000005 036003                    ADLQ    5,DU
        19 005473   000017 235000 20                 LDA     15
        19 005474   200102 757100                    STAQ    ROPCON+2,,AUTO
        19 005475   200102 630500                    EPPR0   ROPCON+2,,AUTO
        19 005476   000013 631400 20                 EPPR1   11
        19 005477   000000 701000 xent               TSX1    Z8AE$ERROR
        19 005500   000000 011000                    NOP     0
        19 005501   013077 710000 19                 TRA     s:16356

      542    15738    3                                 FROM$ -> LX_ETT_ITEM.LINE,
      543    15739    3                                 FROM$ -> LX_ETT_ITEM.COLUMN);
      544    15740
      545    15741    3              CASE(%TYT);

      546    15742    3                IF ALL AND FROM$ -> LX_ITEM.SYMBOL ~= %RSV_WRD_ZEROES THEN

  15742 19 005502   200041 234100                    SZN     ALL,,AUTO
PL6.E3A0      #001=Z8EV$CONVERT_ROUND_ON_SIZE File=Z8EV.:Z8A6TSI                 SAT 08/09/97 12:49 Page:150
        19 005503   005564 605000 19                 TPL     s:15757
        19 005504   300003 235100                    LDA     3,,PR3
        19 005505   000761 115007                    CMPA    497,DL
        19 005506   005564 600000 19                 TZE     s:15757

      547    15743    4                  DO;

      548    15744    4                    CALL SEARCH (I, N, DIGIT_SCAN_TABLE, SUBSTR (FROM$ -> LX_ITEM.DNT$

  15744 19 005507   300002 474500                    LDP4    2,,PR3
        19 005510   400004 220100                    LDX0    4,,PR4
        19 005511   777776 621010                    EAX1    -2,X0
        19 005512   000000 164540                    TCT
        19 005513   400004 600011                    ADSC9   4,,PR4                   cn=3,n=*X1
        19 005514   000000 000000 xsym               ARG     DIGIT_SCAN_TABLE
        19 005515   200037 000100                    ARG     I,,AUTO
        19 005516   200037 235100                    LDA     I,,AUTO
        19 005517   000033 771000                    ARL     27
        19 005520   200040 755100                    STA     N,,AUTO
        19 005521   200037 551140                    STBA    I,'40'O,AUTO
        19 005522   005551 606400 19                 TTN     s:15755

      549    15745    4                       -> DNT.TEXT.NAME, 1, FROM$ -> LX_ITEM.DNT$ -> DNT.TEXT.LENGTH -
             15745                                 2))
      550    15746    5                      WHENRETURN DO; /* Non-digit found */

      551    15747    5                        CALL Z8AE$ERROR (%E$ONLY_UNSIGNED_TYA_TO_NUM,

  15747 19 005523   200034 236100                    LDQ     FROM$,,AUTO
        19 005524   000006 036003                    ADLQ    6,DU
        19 005525   200104 756100                    STQ     ROPCON+4,,AUTO
        19 005526   200034 236100                    LDQ     FROM$,,AUTO
        19 005527   000005 036003                    ADLQ    5,DU
        19 005530   000053 235000 20                 LDA     43
        19 005531   200102 757100                    STAQ    ROPCON+2,,AUTO
        19 005532   200102 630500                    EPPR0   ROPCON+2,,AUTO
        19 005533   000013 631400 20                 EPPR1   11
PL6.E3A0      #001=Z8EV$CONVERT_ROUND_ON_SIZE File=Z8EV.:Z8A6TSI                 SAT 08/09/97 12:49 Page:151
        19 005534   000000 701000 xent               TSX1    Z8AE$ERROR
        19 005535   000000 011000                    NOP     0

      552    15748    5                                         FROM$ -> LX_ITEM.LINE,
      553    15749    5                                         FROM$ -> LX_ITEM.COLUMN);
      554    15750    5                        LEX_SYMBOL.SIZE = 3;

  15750 19 005536   000003 235007                    LDA     3,DL
        19 005537   000010 755000 13                 STA     LEX_SYMBOL+8

      555    15751    5                        LEX_SYMBOL.SYMBOL = '"1"';

  15751 19 005540   040000 100400                    MLR     fill='040'O
        19 005541   000000 000003 18                 ADSC9   0                        cn=0,n=3
        19 005542   000011 000504 13                 ADSC9   LEX_SYMBOL+9             cn=0,n=324

      556    15752    5                        CALL Z8AH$SEARCH_;

  15752 19 005543   000006 631400 20                 EPPR1   6
        19 005544   000000 701000 xent               TSX1    Z8AH$SEARCH_
        19 005545   000000 011000                    NOP     0

      557    15753    5                        FROM$ -> LX_TERMINAL.DNT$ = DNT$;

  15753 19 005546   000000 236000 7                  LDQ     DNT$
        19 005547   200034 470500                    LDP0    FROM$,,AUTO
        19 005550   000002 756100                    STQ     2,,PR0

      558    15754    5                      END;

      559    15755    4                    CALL Z8EC$CREATE_CONST(%TYA, FROM$, ETT$$);

  15755 19 005551   200032 630500                    EPPR0   ETT$$,,AUTO
        19 005552   200104 450500                    STP0    ROPCON+4,,AUTO
        19 005553   200034 631500                    EPPR1   FROM$,,AUTO
        19 005554   200103 451500                    STP1    ROPCON+3,,AUTO
        19 005555   000045 236000 20                 LDQ     37
PL6.E3A0      #001=Z8EV$CONVERT_ROUND_ON_SIZE File=Z8EV.:Z8A6TSI                 SAT 08/09/97 12:49 Page:152
        19 005556   200102 756100                    STQ     ROPCON+2,,AUTO
        19 005557   200102 630500                    EPPR0   ROPCON+2,,AUTO
        19 005560   000013 631400 20                 EPPR1   11
        19 005561   000000 701000 xent               TSX1    Z8EC$CREATE_CONST
        19 005562   000000 011000                    NOP     0

      560    15756    4                  END;

  15756 19 005563   013077 710000 19                 TRA     s:16356

      561    15757    3                  ELSE CALL Z8EC$CREATE_CONST(%TYO, FROM$, ETT$$);

  15757 19 005564   200032 634500                    EPPR4   ETT$$,,AUTO
        19 005565   200104 454500                    STP4    ROPCON+4,,AUTO
        19 005566   200034 635500                    EPPR5   FROM$,,AUTO
        19 005567   200103 455500                    STP5    ROPCON+3,,AUTO
        19 005570   000101 236000 20                 LDQ     65
        19 005571   200102 756100                    STQ     ROPCON+2,,AUTO
        19 005572   200102 630500                    EPPR0   ROPCON+2,,AUTO
        19 005573   000013 631400 20                 EPPR1   11
        19 005574   000000 701000 xent               TSX1    Z8EC$CREATE_CONST
        19 005575   000000 011000                    NOP     0

      562    15758
      563    15759    3            END /* CASE (%TYO) */;

  15759 19 005576   013077 710000 19                 TRA     s:16356

      564    15760        %EJECT;
PL6.E3A0      #001=Z8EV$CONVERT_ROUND_ON_SIZE File=Z8EV.:Z8A6TSI                 SAT 08/09/97 12:49 Page:153
      565    15761    2          CASE (%TYI);

      566    15762    3            DO CASE(FROM$ -> LX_ITEM.TYPE);

  15762 19 005577   200034 473500                    LDP3    FROM$,,AUTO
        19 005600   300004 235100                    LDA     4,,PR3
        19 005601   000020 115007                    CMPA    16,DL
        19 005602   005604 602005 19                 TNC     s:15762+5,AL
        19 005603   013077 710000 19                 TRA     s:16356
        19 005604   005624 710000 19                 TRA     s:15764
        19 005605   006320 710000 19                 TRA     s:15847
        19 005606   005661 710000 19                 TRA     s:15768
        19 005607   005736 710000 19                 TRA     s:15777
        19 005610   006011 710000 19                 TRA     s:15782
        19 005611   006030 710000 19                 TRA     s:15785
        19 005612   006104 710000 19                 TRA     s:15792
        19 005613   005717 710000 19                 TRA     s:15774
        19 005614   006047 710000 19                 TRA     s:15788
        19 005615   006252 710000 19                 TRA     s:15804
        19 005616   006252 710000 19                 TRA     s:15804
        19 005617   005736 710000 19                 TRA     s:15777
        19 005620   006167 710000 19                 TRA     s:15798
        19 005621   006266 710000 19                 TRA     s:15809
        19 005622   006320 710000 19                 TRA     s:15847
        19 005623   005700 710000 19                 TRA     s:15771

      567    15763    3              CASE (%TYD);

      568    15764    3                CALL Z8AF$FORME_ON_SIZE(%CVDSF, ETT$$, 0, ETT$$, ON_SIZE);

  15764 19 005624   200042 634500                    EPPR4   ON_SIZE,,AUTO
        19 005625   200106 454500                    STP4    ROPCON+6,,AUTO
        19 005626   200032 635500                    EPPR5   ETT$$,,AUTO
        19 005627   200105 455500                    STP5    ROPCON+5,,AUTO
        19 005630   000007 236000 20                 LDQ     7
        19 005631   200104 756100                    STQ     ROPCON+4,,AUTO
        19 005632   200032 636500                    EPPR6   ETT$$,,AUTO
PL6.E3A0      #001=Z8EV$CONVERT_ROUND_ON_SIZE File=Z8EV.:Z8A6TSI                 SAT 08/09/97 12:49 Page:154
        19 005633   200103 456500                    STP6    ROPCON+3,,AUTO
        19 005634   000103 236000 20                 LDQ     67
        19 005635   200102 756100                    STQ     ROPCON+2,,AUTO
        19 005636   200102 630500                    EPPR0   ROPCON+2,,AUTO
        19 005637   000003 631400 20                 EPPR1   3
        19 005640   000000 701000 xent               TSX1    Z8AF$FORME_ON_SIZE
        19 005641   000000 011000                    NOP     0

      569    15765    3                CALL Z8AF$FORME_ON_SIZE(%CVDI, ETT$$, 0, ETT$$, ON_SIZE);

  15765 19 005642   200042 630500                    EPPR0   ON_SIZE,,AUTO
        19 005643   200106 450500                    STP0    ROPCON+6,,AUTO
        19 005644   200032 631500                    EPPR1   ETT$$,,AUTO
        19 005645   200105 451500                    STP1    ROPCON+5,,AUTO
        19 005646   000007 236000 20                 LDQ     7
        19 005647   200104 756100                    STQ     ROPCON+4,,AUTO
        19 005650   200032 633500                    EPPR3   ETT$$,,AUTO
        19 005651   200103 453500                    STP3    ROPCON+3,,AUTO
        19 005652   000105 236000 20                 LDQ     69
        19 005653   200102 756100                    STQ     ROPCON+2,,AUTO
        19 005654   200102 630500                    EPPR0   ROPCON+2,,AUTO
        19 005655   000003 631400 20                 EPPR1   3
        19 005656   000000 701000 xent               TSX1    Z8AF$FORME_ON_SIZE
        19 005657   000000 011000                    NOP     0
        19 005660   013077 710000 19                 TRA     s:16356

      570    15766
      571    15767    3              CASE (%TYJ);

      572    15768    3                CALL Z8AF$FORME_ON_SIZE(%CVJI, ETT$$, 0, ETT$$, ON_SIZE);

  15768 19 005661   200042 634500                    EPPR4   ON_SIZE,,AUTO
        19 005662   200106 454500                    STP4    ROPCON+6,,AUTO
        19 005663   200032 635500                    EPPR5   ETT$$,,AUTO
        19 005664   200105 455500                    STP5    ROPCON+5,,AUTO
        19 005665   000007 236000 20                 LDQ     7
        19 005666   200104 756100                    STQ     ROPCON+4,,AUTO
PL6.E3A0      #001=Z8EV$CONVERT_ROUND_ON_SIZE File=Z8EV.:Z8A6TSI                 SAT 08/09/97 12:49 Page:155
        19 005667   200032 636500                    EPPR6   ETT$$,,AUTO
        19 005670   200103 456500                    STP6    ROPCON+3,,AUTO
        19 005671   000027 236000 20                 LDQ     23
        19 005672   200102 756100                    STQ     ROPCON+2,,AUTO
        19 005673   200102 630500                    EPPR0   ROPCON+2,,AUTO
        19 005674   000003 631400 20                 EPPR1   3
        19 005675   000000 701000 xent               TSX1    Z8AF$FORME_ON_SIZE
        19 005676   000000 011000                    NOP     0
        19 005677   013077 710000 19                 TRA     s:16356

      573    15769
      574    15770    3              CASE (%TYK);

      575    15771    3                CALL Z8AF$FORME_ON_SIZE(%CVKI, ETT$$, 0, ETT$$, ON_SIZE);

  15771 19 005700   200042 634500                    EPPR4   ON_SIZE,,AUTO
        19 005701   200106 454500                    STP4    ROPCON+6,,AUTO
        19 005702   200032 635500                    EPPR5   ETT$$,,AUTO
        19 005703   200105 455500                    STP5    ROPCON+5,,AUTO
        19 005704   000007 236000 20                 LDQ     7
        19 005705   200104 756100                    STQ     ROPCON+4,,AUTO
        19 005706   200032 636500                    EPPR6   ETT$$,,AUTO
        19 005707   200103 456500                    STP6    ROPCON+3,,AUTO
        19 005710   000031 236000 20                 LDQ     25
        19 005711   200102 756100                    STQ     ROPCON+2,,AUTO
        19 005712   200102 630500                    EPPR0   ROPCON+2,,AUTO
        19 005713   000003 631400 20                 EPPR1   3
        19 005714   000000 701000 xent               TSX1    Z8AF$FORME_ON_SIZE
        19 005715   000000 011000                    NOP     0
        19 005716   013077 710000 19                 TRA     s:16356

      576    15772
      577    15773    3              CASE (%TYH);

      578    15774    3                CALL Z8AF$FORME_ON_SIZE(%CVHI, ETT$$, 0, ETT$$, ON_SIZE);

  15774 19 005717   200042 634500                    EPPR4   ON_SIZE,,AUTO
PL6.E3A0      #001=Z8EV$CONVERT_ROUND_ON_SIZE File=Z8EV.:Z8A6TSI                 SAT 08/09/97 12:49 Page:156
        19 005720   200106 454500                    STP4    ROPCON+6,,AUTO
        19 005721   200032 635500                    EPPR5   ETT$$,,AUTO
        19 005722   200105 455500                    STP5    ROPCON+5,,AUTO
        19 005723   000007 236000 20                 LDQ     7
        19 005724   200104 756100                    STQ     ROPCON+4,,AUTO
        19 005725   200032 636500                    EPPR6   ETT$$,,AUTO
        19 005726   200103 456500                    STP6    ROPCON+3,,AUTO
        19 005727   000033 236000 20                 LDQ     27
        19 005730   200102 756100                    STQ     ROPCON+2,,AUTO
        19 005731   200102 630500                    EPPR0   ROPCON+2,,AUTO
        19 005732   000003 631400 20                 EPPR1   3
        19 005733   000000 701000 xent               TSX1    Z8AF$FORME_ON_SIZE
        19 005734   000000 011000                    NOP     0
        19 005735   013077 710000 19                 TRA     s:16356

      579    15775
      580    15776    3             CASE (%TYO, %TYF); /* Convert overpunched or EBCDIC numeric to integer */

      581    15777    3                CALL Z8AF$FORME_ON_SIZE(%CVOD4, ETT$$, 0, ETT$$, ON_SIZE);

  15777 19 005736   200042 634500                    EPPR4   ON_SIZE,,AUTO
        19 005737   200106 454500                    STP4    ROPCON+6,,AUTO
        19 005740   200032 635500                    EPPR5   ETT$$,,AUTO
        19 005741   200105 455500                    STP5    ROPCON+5,,AUTO
        19 005742   000007 236000 20                 LDQ     7
        19 005743   200104 756100                    STQ     ROPCON+4,,AUTO
        19 005744   200032 636500                    EPPR6   ETT$$,,AUTO
        19 005745   200103 456500                    STP6    ROPCON+3,,AUTO
        19 005746   000035 236000 20                 LDQ     29
        19 005747   200102 756100                    STQ     ROPCON+2,,AUTO
        19 005750   200102 630500                    EPPR0   ROPCON+2,,AUTO
        19 005751   000003 631400 20                 EPPR1   3
        19 005752   000000 701000 xent               TSX1    Z8AF$FORME_ON_SIZE
        19 005753   000000 011000                    NOP     0

      582    15778    3                CALL Z8AF$FORME_ON_SIZE(%CVDSF, ETT$$, 0, ETT$$, ON_SIZE);

PL6.E3A0      #001=Z8EV$CONVERT_ROUND_ON_SIZE File=Z8EV.:Z8A6TSI                 SAT 08/09/97 12:49 Page:157
  15778 19 005754   200042 630500                    EPPR0   ON_SIZE,,AUTO
        19 005755   200106 450500                    STP0    ROPCON+6,,AUTO
        19 005756   200032 631500                    EPPR1   ETT$$,,AUTO
        19 005757   200105 451500                    STP1    ROPCON+5,,AUTO
        19 005760   000007 236000 20                 LDQ     7
        19 005761   200104 756100                    STQ     ROPCON+4,,AUTO
        19 005762   200032 633500                    EPPR3   ETT$$,,AUTO
        19 005763   200103 453500                    STP3    ROPCON+3,,AUTO
        19 005764   000103 236000 20                 LDQ     67
        19 005765   200102 756100                    STQ     ROPCON+2,,AUTO
        19 005766   200102 630500                    EPPR0   ROPCON+2,,AUTO
        19 005767   000003 631400 20                 EPPR1   3
        19 005770   000000 701000 xent               TSX1    Z8AF$FORME_ON_SIZE
        19 005771   000000 011000                    NOP     0

      583    15779    3                CALL Z8AF$FORME_ON_SIZE(%CVDI, ETT$$, 0, ETT$$, ON_SIZE);

  15779 19 005772   200042 630500                    EPPR0   ON_SIZE,,AUTO
        19 005773   200106 450500                    STP0    ROPCON+6,,AUTO
        19 005774   200032 631500                    EPPR1   ETT$$,,AUTO
        19 005775   200105 451500                    STP1    ROPCON+5,,AUTO
        19 005776   000007 236000 20                 LDQ     7
        19 005777   200104 756100                    STQ     ROPCON+4,,AUTO
        19 006000   200032 633500                    EPPR3   ETT$$,,AUTO
        19 006001   200103 453500                    STP3    ROPCON+3,,AUTO
        19 006002   000105 236000 20                 LDQ     69
        19 006003   200102 756100                    STQ     ROPCON+2,,AUTO
        19 006004   200102 630500                    EPPR0   ROPCON+2,,AUTO
        19 006005   000003 631400 20                 EPPR1   3
        19 006006   000000 701000 xent               TSX1    Z8AF$FORME_ON_SIZE
        19 006007   000000 011000                    NOP     0
        19 006010   013077 710000 19                 TRA     s:16356

      584    15780
      585    15781    3              CASE (%TYR);

      586    15782    3                CALL Z8AF$FORME_ON_SIZE(%CVRI, ETT$$, 0, ETT$$, ON_SIZE);
PL6.E3A0      #001=Z8EV$CONVERT_ROUND_ON_SIZE File=Z8EV.:Z8A6TSI                 SAT 08/09/97 12:49 Page:158

  15782 19 006011   200042 634500                    EPPR4   ON_SIZE,,AUTO
        19 006012   200106 454500                    STP4    ROPCON+6,,AUTO
        19 006013   200032 635500                    EPPR5   ETT$$,,AUTO
        19 006014   200105 455500                    STP5    ROPCON+5,,AUTO
        19 006015   000007 236000 20                 LDQ     7
        19 006016   200104 756100                    STQ     ROPCON+4,,AUTO
        19 006017   200032 636500                    EPPR6   ETT$$,,AUTO
        19 006020   200103 456500                    STP6    ROPCON+3,,AUTO
        19 006021   000041 236000 20                 LDQ     33
        19 006022   200102 756100                    STQ     ROPCON+2,,AUTO
        19 006023   200102 630500                    EPPR0   ROPCON+2,,AUTO
        19 006024   000003 631400 20                 EPPR1   3
        19 006025   000000 701000 xent               TSX1    Z8AF$FORME_ON_SIZE
        19 006026   000000 011000                    NOP     0
        19 006027   013077 710000 19                 TRA     s:16356

      587    15783
      588    15784    3              CASE (%TYQ);

      589    15785    3                CALL Z8AF$FORME_ON_SIZE(%CVQI, ETT$$, 0, ETT$$, ON_SIZE);

  15785 19 006030   200042 634500                    EPPR4   ON_SIZE,,AUTO
        19 006031   200106 454500                    STP4    ROPCON+6,,AUTO
        19 006032   200032 635500                    EPPR5   ETT$$,,AUTO
        19 006033   200105 455500                    STP5    ROPCON+5,,AUTO
        19 006034   000007 236000 20                 LDQ     7
        19 006035   200104 756100                    STQ     ROPCON+4,,AUTO
        19 006036   200032 636500                    EPPR6   ETT$$,,AUTO
        19 006037   200103 456500                    STP6    ROPCON+3,,AUTO
        19 006040   000037 236000 20                 LDQ     31
        19 006041   200102 756100                    STQ     ROPCON+2,,AUTO
        19 006042   200102 630500                    EPPR0   ROPCON+2,,AUTO
        19 006043   000003 631400 20                 EPPR1   3
        19 006044   000000 701000 xent               TSX1    Z8AF$FORME_ON_SIZE
        19 006045   000000 011000                    NOP     0
        19 006046   013077 710000 19                 TRA     s:16356
PL6.E3A0      #001=Z8EV$CONVERT_ROUND_ON_SIZE File=Z8EV.:Z8A6TSI                 SAT 08/09/97 12:49 Page:159

      590    15786
      591    15787    3              CASE (%TYA);

      592    15788    3                CALL Z8AF$FORME_ON_SIZE(%DAN, ETT$$, 0, ETT$$, ON_SIZE);

  15788 19 006047   200042 634500                    EPPR4   ON_SIZE,,AUTO
        19 006050   200106 454500                    STP4    ROPCON+6,,AUTO
        19 006051   200032 635500                    EPPR5   ETT$$,,AUTO
        19 006052   200105 455500                    STP5    ROPCON+5,,AUTO
        19 006053   000007 236000 20                 LDQ     7
        19 006054   200104 756100                    STQ     ROPCON+4,,AUTO
        19 006055   200032 636500                    EPPR6   ETT$$,,AUTO
        19 006056   200103 456500                    STP6    ROPCON+3,,AUTO
        19 006057   000047 236000 20                 LDQ     39
        19 006060   200102 756100                    STQ     ROPCON+2,,AUTO
        19 006061   200102 630500                    EPPR0   ROPCON+2,,AUTO
        19 006062   000003 631400 20                 EPPR1   3
        19 006063   000000 701000 xent               TSX1    Z8AF$FORME_ON_SIZE
        19 006064   000000 011000                    NOP     0

      593    15789    3                CALL Z8AF$FORME_ON_SIZE(%CVDI, ETT$$, 0, ETT$$, ON_SIZE);

  15789 19 006065   200042 630500                    EPPR0   ON_SIZE,,AUTO
        19 006066   200106 450500                    STP0    ROPCON+6,,AUTO
        19 006067   200032 631500                    EPPR1   ETT$$,,AUTO
        19 006070   200105 451500                    STP1    ROPCON+5,,AUTO
        19 006071   000007 236000 20                 LDQ     7
        19 006072   200104 756100                    STQ     ROPCON+4,,AUTO
        19 006073   200032 633500                    EPPR3   ETT$$,,AUTO
        19 006074   200103 453500                    STP3    ROPCON+3,,AUTO
        19 006075   000105 236000 20                 LDQ     69
        19 006076   200102 756100                    STQ     ROPCON+2,,AUTO
        19 006077   200102 630500                    EPPR0   ROPCON+2,,AUTO
        19 006100   000003 631400 20                 EPPR1   3
        19 006101   000000 701000 xent               TSX1    Z8AF$FORME_ON_SIZE
        19 006102   000000 011000                    NOP     0
PL6.E3A0      #001=Z8EV$CONVERT_ROUND_ON_SIZE File=Z8EV.:Z8A6TSI                 SAT 08/09/97 12:49 Page:160
        19 006103   013077 710000 19                 TRA     s:16356

      594    15790
      595    15791    3              CASE (%TYE); /* Convert EBCDIC to integer */

      596    15792    3                CALL Z8CO$CREATE_LIBRARY_BASE(%OP_EBCDIC_TO_ASCII, TABLE_ETT$);

  15792 19 006104   200033 634500                    EPPR4   TABLE_ETT$,,AUTO
        19 006105   200103 454500                    STP4    ROPCON+3,,AUTO
        19 006106   000043 236000 20                 LDQ     35
        19 006107   200102 756100                    STQ     ROPCON+2,,AUTO
        19 006110   200102 630500                    EPPR0   ROPCON+2,,AUTO
        19 006111   000000 631400 20                 EPPR1   0
        19 006112   000000 701000 xent               TSX1    Z8CO$CREATE_LIBRARY_BASE
        19 006113   000000 011000                    NOP     0

      597    15793    3                CALL Z8AF$FORME_ON_SIZE(%CVT, ETT$$, TABLE_ETT$, ETT$$, ON_SIZE);

  15793 19 006114   200042 630500                    EPPR0   ON_SIZE,,AUTO
        19 006115   200106 450500                    STP0    ROPCON+6,,AUTO
        19 006116   200032 631500                    EPPR1   ETT$$,,AUTO
        19 006117   200105 451500                    STP1    ROPCON+5,,AUTO
        19 006120   200033 633500                    EPPR3   TABLE_ETT$,,AUTO
        19 006121   200104 453500                    STP3    ROPCON+4,,AUTO
        19 006122   200032 634500                    EPPR4   ETT$$,,AUTO
        19 006123   200103 454500                    STP4    ROPCON+3,,AUTO
        19 006124   000023 236000 20                 LDQ     19
        19 006125   200102 756100                    STQ     ROPCON+2,,AUTO
        19 006126   200102 630500                    EPPR0   ROPCON+2,,AUTO
        19 006127   000003 631400 20                 EPPR1   3
        19 006130   000000 701000 xent               TSX1    Z8AF$FORME_ON_SIZE
        19 006131   000000 011000                    NOP     0

      598    15794    3                CALL Z8AF$FORME_ON_SIZE(%DAN, ETT$$, 0, ETT$$, ON_SIZE);

  15794 19 006132   200042 630500                    EPPR0   ON_SIZE,,AUTO
        19 006133   200106 450500                    STP0    ROPCON+6,,AUTO
PL6.E3A0      #001=Z8EV$CONVERT_ROUND_ON_SIZE File=Z8EV.:Z8A6TSI                 SAT 08/09/97 12:49 Page:161
        19 006134   200032 631500                    EPPR1   ETT$$,,AUTO
        19 006135   200105 451500                    STP1    ROPCON+5,,AUTO
        19 006136   000007 236000 20                 LDQ     7
        19 006137   200104 756100                    STQ     ROPCON+4,,AUTO
        19 006140   200032 633500                    EPPR3   ETT$$,,AUTO
        19 006141   200103 453500                    STP3    ROPCON+3,,AUTO
        19 006142   000047 236000 20                 LDQ     39
        19 006143   200102 756100                    STQ     ROPCON+2,,AUTO
        19 006144   200102 630500                    EPPR0   ROPCON+2,,AUTO
        19 006145   000003 631400 20                 EPPR1   3
        19 006146   000000 701000 xent               TSX1    Z8AF$FORME_ON_SIZE
        19 006147   000000 011000                    NOP     0

      599    15795    3                CALL Z8AF$FORME_ON_SIZE(%CVDI, ETT$$, 0, ETT$$, ON_SIZE);

  15795 19 006150   200042 630500                    EPPR0   ON_SIZE,,AUTO
        19 006151   200106 450500                    STP0    ROPCON+6,,AUTO
        19 006152   200032 631500                    EPPR1   ETT$$,,AUTO
        19 006153   200105 451500                    STP1    ROPCON+5,,AUTO
        19 006154   000007 236000 20                 LDQ     7
        19 006155   200104 756100                    STQ     ROPCON+4,,AUTO
        19 006156   200032 633500                    EPPR3   ETT$$,,AUTO
        19 006157   200103 453500                    STP3    ROPCON+3,,AUTO
        19 006160   000105 236000 20                 LDQ     69
        19 006161   200102 756100                    STQ     ROPCON+2,,AUTO
        19 006162   200102 630500                    EPPR0   ROPCON+2,,AUTO
        19 006163   000003 631400 20                 EPPR1   3
        19 006164   000000 701000 xent               TSX1    Z8AF$FORME_ON_SIZE
        19 006165   000000 011000                    NOP     0
        19 006166   013077 710000 19                 TRA     s:16356

      600    15796
      601    15797    3              CASE (%TYB); /* Convert GBCD to integer */

      602    15798    3                CALL Z8CO$CREATE_LIBRARY_BASE(%OP_GBCD_TO_ASCII, TABLE_ETT$);

  15798 19 006167   200033 634500                    EPPR4   TABLE_ETT$,,AUTO
PL6.E3A0      #001=Z8EV$CONVERT_ROUND_ON_SIZE File=Z8EV.:Z8A6TSI                 SAT 08/09/97 12:49 Page:162
        19 006170   200103 454500                    STP4    ROPCON+3,,AUTO
        19 006171   000021 236000 20                 LDQ     17
        19 006172   200102 756100                    STQ     ROPCON+2,,AUTO
        19 006173   200102 630500                    EPPR0   ROPCON+2,,AUTO
        19 006174   000000 631400 20                 EPPR1   0
        19 006175   000000 701000 xent               TSX1    Z8CO$CREATE_LIBRARY_BASE
        19 006176   000000 011000                    NOP     0

      603    15799    3                CALL Z8AF$FORME_ON_SIZE(%CVT, ETT$$, TABLE_ETT$, ETT$$, ON_SIZE);

  15799 19 006177   200042 630500                    EPPR0   ON_SIZE,,AUTO
        19 006200   200106 450500                    STP0    ROPCON+6,,AUTO
        19 006201   200032 631500                    EPPR1   ETT$$,,AUTO
        19 006202   200105 451500                    STP1    ROPCON+5,,AUTO
        19 006203   200033 633500                    EPPR3   TABLE_ETT$,,AUTO
        19 006204   200104 453500                    STP3    ROPCON+4,,AUTO
        19 006205   200032 634500                    EPPR4   ETT$$,,AUTO
        19 006206   200103 454500                    STP4    ROPCON+3,,AUTO
        19 006207   000023 236000 20                 LDQ     19
        19 006210   200102 756100                    STQ     ROPCON+2,,AUTO
        19 006211   200102 630500                    EPPR0   ROPCON+2,,AUTO
        19 006212   000003 631400 20                 EPPR1   3
        19 006213   000000 701000 xent               TSX1    Z8AF$FORME_ON_SIZE
        19 006214   000000 011000                    NOP     0

      604    15800    3                CALL Z8AF$FORME_ON_SIZE(%DAN, ETT$$, 0, ETT$$, ON_SIZE);

  15800 19 006215   200042 630500                    EPPR0   ON_SIZE,,AUTO
        19 006216   200106 450500                    STP0    ROPCON+6,,AUTO
        19 006217   200032 631500                    EPPR1   ETT$$,,AUTO
        19 006220   200105 451500                    STP1    ROPCON+5,,AUTO
        19 006221   000007 236000 20                 LDQ     7
        19 006222   200104 756100                    STQ     ROPCON+4,,AUTO
        19 006223   200032 633500                    EPPR3   ETT$$,,AUTO
        19 006224   200103 453500                    STP3    ROPCON+3,,AUTO
        19 006225   000047 236000 20                 LDQ     39
        19 006226   200102 756100                    STQ     ROPCON+2,,AUTO
PL6.E3A0      #001=Z8EV$CONVERT_ROUND_ON_SIZE File=Z8EV.:Z8A6TSI                 SAT 08/09/97 12:49 Page:163
        19 006227   200102 630500                    EPPR0   ROPCON+2,,AUTO
        19 006230   000003 631400 20                 EPPR1   3
        19 006231   000000 701000 xent               TSX1    Z8AF$FORME_ON_SIZE
        19 006232   000000 011000                    NOP     0

      605    15801    3                CALL Z8AF$FORME_ON_SIZE(%CVDI, ETT$$, 0, ETT$$, ON_SIZE);

  15801 19 006233   200042 630500                    EPPR0   ON_SIZE,,AUTO
        19 006234   200106 450500                    STP0    ROPCON+6,,AUTO
        19 006235   200032 631500                    EPPR1   ETT$$,,AUTO
        19 006236   200105 451500                    STP1    ROPCON+5,,AUTO
        19 006237   000007 236000 20                 LDQ     7
        19 006240   200104 756100                    STQ     ROPCON+4,,AUTO
        19 006241   200032 633500                    EPPR3   ETT$$,,AUTO
        19 006242   200103 453500                    STP3    ROPCON+3,,AUTO
        19 006243   000105 236000 20                 LDQ     69
        19 006244   200102 756100                    STQ     ROPCON+2,,AUTO
        19 006245   200102 630500                    EPPR0   ROPCON+2,,AUTO
        19 006246   000003 631400 20                 EPPR1   3
        19 006247   000000 701000 xent               TSX1    Z8AF$FORME_ON_SIZE
        19 006250   000000 011000                    NOP     0
        19 006251   013077 710000 19                 TRA     s:16356

      606    15802
      607    15803    3              CASE (%TYX, %TYY);

      608    15804    3                CALL Z8AE$ERROR (%E$UNEXPECTED_CASE,

  15804 19 006252   200034 236100                    LDQ     FROM$,,AUTO
        19 006253   000006 036003                    ADLQ    6,DU
        19 006254   200104 756100                    STQ     ROPCON+4,,AUTO
        19 006255   200034 236100                    LDQ     FROM$,,AUTO
        19 006256   000005 036003                    ADLQ    5,DU
        19 006257   000017 235000 20                 LDA     15
        19 006260   200102 757100                    STAQ    ROPCON+2,,AUTO
        19 006261   200102 630500                    EPPR0   ROPCON+2,,AUTO
        19 006262   000013 631400 20                 EPPR1   11
PL6.E3A0      #001=Z8EV$CONVERT_ROUND_ON_SIZE File=Z8EV.:Z8A6TSI                 SAT 08/09/97 12:49 Page:164
        19 006263   000000 701000 xent               TSX1    Z8AE$ERROR
        19 006264   000000 011000                    NOP     0
        19 006265   013077 710000 19                 TRA     s:16356

      609    15805    3                                 FROM$ -> LX_ETT_ITEM.LINE,
      610    15806    3                                 FROM$ -> LX_ETT_ITEM.COLUMN);
      611    15807
      612    15808    3              CASE(%TYT);

      613    15809    3                CALL Z8EC$CREATE_CONST(%TYI, FROM$, ETT$$)

  15809 19 006266   200032 634500                    EPPR4   ETT$$,,AUTO
        19 006267   200104 454500                    STP4    ROPCON+4,,AUTO
        19 006270   200034 635500                    EPPR5   FROM$,,AUTO
        19 006271   200103 455500                    STP5    ROPCON+3,,AUTO
        19 006272   000015 236000 20                 LDQ     13
        19 006273   200102 756100                    STQ     ROPCON+2,,AUTO
        19 006274   200102 630500                    EPPR0   ROPCON+2,,AUTO
        19 006275   000013 631400 20                 EPPR1   11
        19 006276   000000 701000 xent               TSX1    Z8EC$CREATE_CONST
        19 006277   006301 702000 19                 TSX2    s:15825
        19 006300   006320 710000 19                 TRA     s:15847

      614    15810    3                  WHENALTRETURN
      615    15811    4                    DO;

      616    15812                           %CONDITIONAL_ERROR (@LX_ITEM$ = FROM$,
      617    15813                                               @ERROR#   = %E$TRUNCATION_WARN,
      618    15814                                               @LINE     = FROM$ -> LX_ITEM.LINE,
      619    15815                                               @COLUMN   = FROM$ -> LX_ITEM.COLUMN);

  15825 19 006301   200034 470500                    LDP0    FROM$,,AUTO
        19 006302   000000 236100                    LDQ     0,,PR0
        19 006303   400000 316007                    CANQ    -131072,DL
        19 006304   006320 601000 19                 TNZ     s:15847

  15827 19 006305   200034 236100                    LDQ     FROM$,,AUTO
PL6.E3A0      #001=Z8EV$CONVERT_ROUND_ON_SIZE File=Z8EV.:Z8A6TSI                 SAT 08/09/97 12:49 Page:165
        19 006306   000006 036003                    ADLQ    6,DU
        19 006307   200104 756100                    STQ     ROPCON+4,,AUTO
        19 006310   200034 236100                    LDQ     FROM$,,AUTO
        19 006311   000005 036003                    ADLQ    5,DU
        19 006312   000107 235000 20                 LDA     71
        19 006313   200102 757100                    STAQ    ROPCON+2,,AUTO
        19 006314   200102 630500                    EPPR0   ROPCON+2,,AUTO
        19 006315   000013 631400 20                 EPPR1   11
        19 006316   000000 701000 xent               TSX1    Z8AE$ERROR
        19 006317   000000 011000                    NOP     0

      620    15845    4                    END;

      621    15846
      622    15847    3            END /* CASE (%TYI) */;

  15847 19 006320   013077 710000 19                 TRA     s:16356

      623    15848        %EJECT;
PL6.E3A0      #001=Z8EV$CONVERT_ROUND_ON_SIZE File=Z8EV.:Z8A6TSI                 SAT 08/09/97 12:49 Page:166
      624    15849    2          CASE (%TYH);

      625    15850    3            DO CASE(FROM$ -> LX_ITEM.TYPE);

  15850 19 006321   200034 473500                    LDP3    FROM$,,AUTO
        19 006322   300004 235100                    LDA     4,,PR3
        19 006323   000020 115007                    CMPA    16,DL
        19 006324   006326 602005 19                 TNC     s:15850+5,AL
        19 006325   013077 710000 19                 TRA     s:16356
        19 006326   006346 710000 19                 TRA     s:15852
        19 006327   006421 710000 19                 TRA     s:15857
        19 006330   006440 710000 19                 TRA     s:15860
        19 006331   006532 710000 19                 TRA     s:15868
        19 006332   006660 710000 19                 TRA     s:15878
        19 006333   006623 710000 19                 TRA     s:15874
        19 006334   006770 710000 19                 TRA     s:15887
        19 006335   007240 710000 19                 TRA     s:15944
        19 006336   006715 710000 19                 TRA     s:15882
        19 006337   007172 710000 19                 TRA     s:15901
        19 006340   007172 710000 19                 TRA     s:15901
        19 006341   006532 710000 19                 TRA     s:15868
        19 006342   007071 710000 19                 TRA     s:15894
        19 006343   007206 710000 19                 TRA     s:15906
        19 006344   007240 710000 19                 TRA     s:15944
        19 006345   006475 710000 19                 TRA     s:15864

      626    15851    3              CASE (%TYD);

      627    15852    3                CALL Z8AF$FORME_ON_SIZE(%CVDSF, ETT$$, 0, ETT$$, ON_SIZE);

  15852 19 006346   200042 634500                    EPPR4   ON_SIZE,,AUTO
        19 006347   200106 454500                    STP4    ROPCON+6,,AUTO
        19 006350   200032 635500                    EPPR5   ETT$$,,AUTO
        19 006351   200105 455500                    STP5    ROPCON+5,,AUTO
        19 006352   000007 236000 20                 LDQ     7
        19 006353   200104 756100                    STQ     ROPCON+4,,AUTO
        19 006354   200032 636500                    EPPR6   ETT$$,,AUTO
PL6.E3A0      #001=Z8EV$CONVERT_ROUND_ON_SIZE File=Z8EV.:Z8A6TSI                 SAT 08/09/97 12:49 Page:167
        19 006355   200103 456500                    STP6    ROPCON+3,,AUTO
        19 006356   000103 236000 20                 LDQ     67
        19 006357   200102 756100                    STQ     ROPCON+2,,AUTO
        19 006360   200102 630500                    EPPR0   ROPCON+2,,AUTO
        19 006361   000003 631400 20                 EPPR1   3
        19 006362   000000 701000 xent               TSX1    Z8AF$FORME_ON_SIZE
        19 006363   000000 011000                    NOP     0

      628    15853    3                CALL Z8AF$FORME_ON_SIZE(%CVDI, ETT$$, 0, ETT$$, ON_SIZE);

  15853 19 006364   200042 630500                    EPPR0   ON_SIZE,,AUTO
        19 006365   200106 450500                    STP0    ROPCON+6,,AUTO
        19 006366   200032 631500                    EPPR1   ETT$$,,AUTO
        19 006367   200105 451500                    STP1    ROPCON+5,,AUTO
        19 006370   000007 236000 20                 LDQ     7
        19 006371   200104 756100                    STQ     ROPCON+4,,AUTO
        19 006372   200032 633500                    EPPR3   ETT$$,,AUTO
        19 006373   200103 453500                    STP3    ROPCON+3,,AUTO
        19 006374   000105 236000 20                 LDQ     69
        19 006375   200102 756100                    STQ     ROPCON+2,,AUTO
        19 006376   200102 630500                    EPPR0   ROPCON+2,,AUTO
        19 006377   000003 631400 20                 EPPR1   3
        19 006400   000000 701000 xent               TSX1    Z8AF$FORME_ON_SIZE
        19 006401   000000 011000                    NOP     0

      629    15854    3                CALL Z8AF$FORME_ON_SIZE(%CVIH, ETT$$, 0, ETT$$, ON_SIZE);

  15854 19 006402   200042 630500                    EPPR0   ON_SIZE,,AUTO
        19 006403   200106 450500                    STP0    ROPCON+6,,AUTO
        19 006404   200032 631500                    EPPR1   ETT$$,,AUTO
        19 006405   200105 451500                    STP1    ROPCON+5,,AUTO
        19 006406   000007 236000 20                 LDQ     7
        19 006407   200104 756100                    STQ     ROPCON+4,,AUTO
        19 006410   200032 633500                    EPPR3   ETT$$,,AUTO
        19 006411   200103 453500                    STP3    ROPCON+3,,AUTO
        19 006412   000111 236000 20                 LDQ     73
        19 006413   200102 756100                    STQ     ROPCON+2,,AUTO
PL6.E3A0      #001=Z8EV$CONVERT_ROUND_ON_SIZE File=Z8EV.:Z8A6TSI                 SAT 08/09/97 12:49 Page:168
        19 006414   200102 630500                    EPPR0   ROPCON+2,,AUTO
        19 006415   000003 631400 20                 EPPR1   3
        19 006416   000000 701000 xent               TSX1    Z8AF$FORME_ON_SIZE
        19 006417   000000 011000                    NOP     0
        19 006420   013077 710000 19                 TRA     s:16356

      630    15855
      631    15856    3              CASE (%TYI);

      632    15857    3                CALL Z8AF$FORME_ON_SIZE(%CVIH, ETT$$, 0, ETT$$, ON_SIZE);

  15857 19 006421   200042 634500                    EPPR4   ON_SIZE,,AUTO
        19 006422   200106 454500                    STP4    ROPCON+6,,AUTO
        19 006423   200032 635500                    EPPR5   ETT$$,,AUTO
        19 006424   200105 455500                    STP5    ROPCON+5,,AUTO
        19 006425   000007 236000 20                 LDQ     7
        19 006426   200104 756100                    STQ     ROPCON+4,,AUTO
        19 006427   200032 636500                    EPPR6   ETT$$,,AUTO
        19 006430   200103 456500                    STP6    ROPCON+3,,AUTO
        19 006431   000111 236000 20                 LDQ     73
        19 006432   200102 756100                    STQ     ROPCON+2,,AUTO
        19 006433   200102 630500                    EPPR0   ROPCON+2,,AUTO
        19 006434   000003 631400 20                 EPPR1   3
        19 006435   000000 701000 xent               TSX1    Z8AF$FORME_ON_SIZE
        19 006436   000000 011000                    NOP     0
        19 006437   013077 710000 19                 TRA     s:16356

      633    15858
      634    15859    3              CASE (%TYJ);

      635    15860    3                CALL Z8AF$FORME_ON_SIZE(%CVJI, ETT$$, 0, ETT$$, ON_SIZE);

  15860 19 006440   200042 634500                    EPPR4   ON_SIZE,,AUTO
        19 006441   200106 454500                    STP4    ROPCON+6,,AUTO
        19 006442   200032 635500                    EPPR5   ETT$$,,AUTO
        19 006443   200105 455500                    STP5    ROPCON+5,,AUTO
        19 006444   000007 236000 20                 LDQ     7
PL6.E3A0      #001=Z8EV$CONVERT_ROUND_ON_SIZE File=Z8EV.:Z8A6TSI                 SAT 08/09/97 12:49 Page:169
        19 006445   200104 756100                    STQ     ROPCON+4,,AUTO
        19 006446   200032 636500                    EPPR6   ETT$$,,AUTO
        19 006447   200103 456500                    STP6    ROPCON+3,,AUTO
        19 006450   000027 236000 20                 LDQ     23
        19 006451   200102 756100                    STQ     ROPCON+2,,AUTO
        19 006452   200102 630500                    EPPR0   ROPCON+2,,AUTO
        19 006453   000003 631400 20                 EPPR1   3
        19 006454   000000 701000 xent               TSX1    Z8AF$FORME_ON_SIZE
        19 006455   000000 011000                    NOP     0

      636    15861    3                CALL Z8AF$FORME_ON_SIZE(%CVIH, ETT$$, 0, ETT$$, ON_SIZE);

  15861 19 006456   200042 630500                    EPPR0   ON_SIZE,,AUTO
        19 006457   200106 450500                    STP0    ROPCON+6,,AUTO
        19 006460   200032 631500                    EPPR1   ETT$$,,AUTO
        19 006461   200105 451500                    STP1    ROPCON+5,,AUTO
        19 006462   000007 236000 20                 LDQ     7
        19 006463   200104 756100                    STQ     ROPCON+4,,AUTO
        19 006464   200032 633500                    EPPR3   ETT$$,,AUTO
        19 006465   200103 453500                    STP3    ROPCON+3,,AUTO
        19 006466   000111 236000 20                 LDQ     73
        19 006467   200102 756100                    STQ     ROPCON+2,,AUTO
        19 006470   200102 630500                    EPPR0   ROPCON+2,,AUTO
        19 006471   000003 631400 20                 EPPR1   3
        19 006472   000000 701000 xent               TSX1    Z8AF$FORME_ON_SIZE
        19 006473   000000 011000                    NOP     0
        19 006474   013077 710000 19                 TRA     s:16356

      637    15862
      638    15863    3              CASE (%TYK);

      639    15864    3                CALL Z8AF$FORME_ON_SIZE(%CVKI, ETT$$, 0, ETT$$, ON_SIZE);

  15864 19 006475   200042 634500                    EPPR4   ON_SIZE,,AUTO
        19 006476   200106 454500                    STP4    ROPCON+6,,AUTO
        19 006477   200032 635500                    EPPR5   ETT$$,,AUTO
        19 006500   200105 455500                    STP5    ROPCON+5,,AUTO
PL6.E3A0      #001=Z8EV$CONVERT_ROUND_ON_SIZE File=Z8EV.:Z8A6TSI                 SAT 08/09/97 12:49 Page:170
        19 006501   000007 236000 20                 LDQ     7
        19 006502   200104 756100                    STQ     ROPCON+4,,AUTO
        19 006503   200032 636500                    EPPR6   ETT$$,,AUTO
        19 006504   200103 456500                    STP6    ROPCON+3,,AUTO
        19 006505   000031 236000 20                 LDQ     25
        19 006506   200102 756100                    STQ     ROPCON+2,,AUTO
        19 006507   200102 630500                    EPPR0   ROPCON+2,,AUTO
        19 006510   000003 631400 20                 EPPR1   3
        19 006511   000000 701000 xent               TSX1    Z8AF$FORME_ON_SIZE
        19 006512   000000 011000                    NOP     0

      640    15865    3                CALL Z8AF$FORME_ON_SIZE(%CVIH, ETT$$, 0, ETT$$, ON_SIZE);

  15865 19 006513   200042 630500                    EPPR0   ON_SIZE,,AUTO
        19 006514   200106 450500                    STP0    ROPCON+6,,AUTO
        19 006515   200032 631500                    EPPR1   ETT$$,,AUTO
        19 006516   200105 451500                    STP1    ROPCON+5,,AUTO
        19 006517   000007 236000 20                 LDQ     7
        19 006520   200104 756100                    STQ     ROPCON+4,,AUTO
        19 006521   200032 633500                    EPPR3   ETT$$,,AUTO
        19 006522   200103 453500                    STP3    ROPCON+3,,AUTO
        19 006523   000111 236000 20                 LDQ     73
        19 006524   200102 756100                    STQ     ROPCON+2,,AUTO
        19 006525   200102 630500                    EPPR0   ROPCON+2,,AUTO
        19 006526   000003 631400 20                 EPPR1   3
        19 006527   000000 701000 xent               TSX1    Z8AF$FORME_ON_SIZE
        19 006530   000000 011000                    NOP     0
        19 006531   013077 710000 19                 TRA     s:16356

      641    15866
      642    15867    3              CASE (%TYO, %TYF);
             15867                       /* Convert overpunched or EBCDIC numeric to half word */

      643    15868    3                CALL Z8AF$FORME_ON_SIZE(%CVOD4, ETT$$, 0, ETT$$, ON_SIZE);

  15868 19 006532   200042 634500                    EPPR4   ON_SIZE,,AUTO
        19 006533   200106 454500                    STP4    ROPCON+6,,AUTO
PL6.E3A0      #001=Z8EV$CONVERT_ROUND_ON_SIZE File=Z8EV.:Z8A6TSI                 SAT 08/09/97 12:49 Page:171
        19 006534   200032 635500                    EPPR5   ETT$$,,AUTO
        19 006535   200105 455500                    STP5    ROPCON+5,,AUTO
        19 006536   000007 236000 20                 LDQ     7
        19 006537   200104 756100                    STQ     ROPCON+4,,AUTO
        19 006540   200032 636500                    EPPR6   ETT$$,,AUTO
        19 006541   200103 456500                    STP6    ROPCON+3,,AUTO
        19 006542   000035 236000 20                 LDQ     29
        19 006543   200102 756100                    STQ     ROPCON+2,,AUTO
        19 006544   200102 630500                    EPPR0   ROPCON+2,,AUTO
        19 006545   000003 631400 20                 EPPR1   3
        19 006546   000000 701000 xent               TSX1    Z8AF$FORME_ON_SIZE
        19 006547   000000 011000                    NOP     0

      644    15869    3                CALL Z8AF$FORME_ON_SIZE(%CVDSF, ETT$$, 0, ETT$$, ON_SIZE);

  15869 19 006550   200042 630500                    EPPR0   ON_SIZE,,AUTO
        19 006551   200106 450500                    STP0    ROPCON+6,,AUTO
        19 006552   200032 631500                    EPPR1   ETT$$,,AUTO
        19 006553   200105 451500                    STP1    ROPCON+5,,AUTO
        19 006554   000007 236000 20                 LDQ     7
        19 006555   200104 756100                    STQ     ROPCON+4,,AUTO
        19 006556   200032 633500                    EPPR3   ETT$$,,AUTO
        19 006557   200103 453500                    STP3    ROPCON+3,,AUTO
        19 006560   000103 236000 20                 LDQ     67
        19 006561   200102 756100                    STQ     ROPCON+2,,AUTO
        19 006562   200102 630500                    EPPR0   ROPCON+2,,AUTO
        19 006563   000003 631400 20                 EPPR1   3
        19 006564   000000 701000 xent               TSX1    Z8AF$FORME_ON_SIZE
        19 006565   000000 011000                    NOP     0

      645    15870    3                CALL Z8AF$FORME_ON_SIZE(%CVDI, ETT$$, 0, ETT$$, ON_SIZE);

  15870 19 006566   200042 630500                    EPPR0   ON_SIZE,,AUTO
        19 006567   200106 450500                    STP0    ROPCON+6,,AUTO
        19 006570   200032 631500                    EPPR1   ETT$$,,AUTO
        19 006571   200105 451500                    STP1    ROPCON+5,,AUTO
        19 006572   000007 236000 20                 LDQ     7
PL6.E3A0      #001=Z8EV$CONVERT_ROUND_ON_SIZE File=Z8EV.:Z8A6TSI                 SAT 08/09/97 12:49 Page:172
        19 006573   200104 756100                    STQ     ROPCON+4,,AUTO
        19 006574   200032 633500                    EPPR3   ETT$$,,AUTO
        19 006575   200103 453500                    STP3    ROPCON+3,,AUTO
        19 006576   000105 236000 20                 LDQ     69
        19 006577   200102 756100                    STQ     ROPCON+2,,AUTO
        19 006600   200102 630500                    EPPR0   ROPCON+2,,AUTO
        19 006601   000003 631400 20                 EPPR1   3
        19 006602   000000 701000 xent               TSX1    Z8AF$FORME_ON_SIZE
        19 006603   000000 011000                    NOP     0

      646    15871    3                CALL Z8AF$FORME_ON_SIZE(%CVIH, ETT$$, 0, ETT$$, ON_SIZE);

  15871 19 006604   200042 630500                    EPPR0   ON_SIZE,,AUTO
        19 006605   200106 450500                    STP0    ROPCON+6,,AUTO
        19 006606   200032 631500                    EPPR1   ETT$$,,AUTO
        19 006607   200105 451500                    STP1    ROPCON+5,,AUTO
        19 006610   000007 236000 20                 LDQ     7
        19 006611   200104 756100                    STQ     ROPCON+4,,AUTO
        19 006612   200032 633500                    EPPR3   ETT$$,,AUTO
        19 006613   200103 453500                    STP3    ROPCON+3,,AUTO
        19 006614   000111 236000 20                 LDQ     73
        19 006615   200102 756100                    STQ     ROPCON+2,,AUTO
        19 006616   200102 630500                    EPPR0   ROPCON+2,,AUTO
        19 006617   000003 631400 20                 EPPR1   3
        19 006620   000000 701000 xent               TSX1    Z8AF$FORME_ON_SIZE
        19 006621   000000 011000                    NOP     0
        19 006622   013077 710000 19                 TRA     s:16356

      647    15872
      648    15873    3              CASE (%TYQ);

      649    15874    3                CALL Z8AF$FORME_ON_SIZE(%CVQI, ETT$$, 0, ETT$$, ON_SIZE);

  15874 19 006623   200042 634500                    EPPR4   ON_SIZE,,AUTO
        19 006624   200106 454500                    STP4    ROPCON+6,,AUTO
        19 006625   200032 635500                    EPPR5   ETT$$,,AUTO
        19 006626   200105 455500                    STP5    ROPCON+5,,AUTO
PL6.E3A0      #001=Z8EV$CONVERT_ROUND_ON_SIZE File=Z8EV.:Z8A6TSI                 SAT 08/09/97 12:49 Page:173
        19 006627   000007 236000 20                 LDQ     7
        19 006630   200104 756100                    STQ     ROPCON+4,,AUTO
        19 006631   200032 636500                    EPPR6   ETT$$,,AUTO
        19 006632   200103 456500                    STP6    ROPCON+3,,AUTO
        19 006633   000037 236000 20                 LDQ     31
        19 006634   200102 756100                    STQ     ROPCON+2,,AUTO
        19 006635   200102 630500                    EPPR0   ROPCON+2,,AUTO
        19 006636   000003 631400 20                 EPPR1   3
        19 006637   000000 701000 xent               TSX1    Z8AF$FORME_ON_SIZE
        19 006640   000000 011000                    NOP     0

      650    15875    3                CALL Z8AF$FORME_ON_SIZE(%CVIH, ETT$$, 0, ETT$$, ON_SIZE);

  15875 19 006641   200042 630500                    EPPR0   ON_SIZE,,AUTO
        19 006642   200106 450500                    STP0    ROPCON+6,,AUTO
        19 006643   200032 631500                    EPPR1   ETT$$,,AUTO
        19 006644   200105 451500                    STP1    ROPCON+5,,AUTO
        19 006645   000007 236000 20                 LDQ     7
        19 006646   200104 756100                    STQ     ROPCON+4,,AUTO
        19 006647   200032 633500                    EPPR3   ETT$$,,AUTO
        19 006650   200103 453500                    STP3    ROPCON+3,,AUTO
        19 006651   000111 236000 20                 LDQ     73
        19 006652   200102 756100                    STQ     ROPCON+2,,AUTO
        19 006653   200102 630500                    EPPR0   ROPCON+2,,AUTO
        19 006654   000003 631400 20                 EPPR1   3
        19 006655   000000 701000 xent               TSX1    Z8AF$FORME_ON_SIZE
        19 006656   000000 011000                    NOP     0
        19 006657   013077 710000 19                 TRA     s:16356

      651    15876
      652    15877    3              CASE (%TYR);

      653    15878    3                CALL Z8AF$FORME_ON_SIZE(%CVRI, ETT$$, 0, ETT$$, ON_SIZE);

  15878 19 006660   200042 634500                    EPPR4   ON_SIZE,,AUTO
        19 006661   200106 454500                    STP4    ROPCON+6,,AUTO
        19 006662   200032 635500                    EPPR5   ETT$$,,AUTO
PL6.E3A0      #001=Z8EV$CONVERT_ROUND_ON_SIZE File=Z8EV.:Z8A6TSI                 SAT 08/09/97 12:49 Page:174
        19 006663   200105 455500                    STP5    ROPCON+5,,AUTO
        19 006664   000007 236000 20                 LDQ     7
        19 006665   200104 756100                    STQ     ROPCON+4,,AUTO
        19 006666   200032 636500                    EPPR6   ETT$$,,AUTO
        19 006667   200103 456500                    STP6    ROPCON+3,,AUTO
        19 006670   000041 236000 20                 LDQ     33
        19 006671   200102 756100                    STQ     ROPCON+2,,AUTO
        19 006672   200102 630500                    EPPR0   ROPCON+2,,AUTO
        19 006673   000003 631400 20                 EPPR1   3
        19 006674   000000 701000 xent               TSX1    Z8AF$FORME_ON_SIZE
        19 006675   000000 011000                    NOP     0

      654    15879    3                CALL Z8AF$FORME_ON_SIZE(%CVIH, ETT$$, 0, ETT$$, ON_SIZE);

  15879 19 006676   200042 630500                    EPPR0   ON_SIZE,,AUTO
        19 006677   200106 450500                    STP0    ROPCON+6,,AUTO
        19 006700   200032 631500                    EPPR1   ETT$$,,AUTO
        19 006701   200105 451500                    STP1    ROPCON+5,,AUTO
        19 006702   000007 236000 20                 LDQ     7
        19 006703   200104 756100                    STQ     ROPCON+4,,AUTO
        19 006704   200032 633500                    EPPR3   ETT$$,,AUTO
        19 006705   200103 453500                    STP3    ROPCON+3,,AUTO
        19 006706   000111 236000 20                 LDQ     73
        19 006707   200102 756100                    STQ     ROPCON+2,,AUTO
        19 006710   200102 630500                    EPPR0   ROPCON+2,,AUTO
        19 006711   000003 631400 20                 EPPR1   3
        19 006712   000000 701000 xent               TSX1    Z8AF$FORME_ON_SIZE
        19 006713   000000 011000                    NOP     0
        19 006714   013077 710000 19                 TRA     s:16356

      655    15880
      656    15881    3              CASE (%TYA);

      657    15882    3                CALL Z8AF$FORME_ON_SIZE(%DAN, ETT$$, 0, ETT$$, ON_SIZE);

  15882 19 006715   200042 634500                    EPPR4   ON_SIZE,,AUTO
        19 006716   200106 454500                    STP4    ROPCON+6,,AUTO
PL6.E3A0      #001=Z8EV$CONVERT_ROUND_ON_SIZE File=Z8EV.:Z8A6TSI                 SAT 08/09/97 12:49 Page:175
        19 006717   200032 635500                    EPPR5   ETT$$,,AUTO
        19 006720   200105 455500                    STP5    ROPCON+5,,AUTO
        19 006721   000007 236000 20                 LDQ     7
        19 006722   200104 756100                    STQ     ROPCON+4,,AUTO
        19 006723   200032 636500                    EPPR6   ETT$$,,AUTO
        19 006724   200103 456500                    STP6    ROPCON+3,,AUTO
        19 006725   000047 236000 20                 LDQ     39
        19 006726   200102 756100                    STQ     ROPCON+2,,AUTO
        19 006727   200102 630500                    EPPR0   ROPCON+2,,AUTO
        19 006730   000003 631400 20                 EPPR1   3
        19 006731   000000 701000 xent               TSX1    Z8AF$FORME_ON_SIZE
        19 006732   000000 011000                    NOP     0

      658    15883    3                CALL Z8AF$FORME_ON_SIZE(%CVDI, ETT$$, 0, ETT$$, ON_SIZE);

  15883 19 006733   200042 630500                    EPPR0   ON_SIZE,,AUTO
        19 006734   200106 450500                    STP0    ROPCON+6,,AUTO
        19 006735   200032 631500                    EPPR1   ETT$$,,AUTO
        19 006736   200105 451500                    STP1    ROPCON+5,,AUTO
        19 006737   000007 236000 20                 LDQ     7
        19 006740   200104 756100                    STQ     ROPCON+4,,AUTO
        19 006741   200032 633500                    EPPR3   ETT$$,,AUTO
        19 006742   200103 453500                    STP3    ROPCON+3,,AUTO
        19 006743   000105 236000 20                 LDQ     69
        19 006744   200102 756100                    STQ     ROPCON+2,,AUTO
        19 006745   200102 630500                    EPPR0   ROPCON+2,,AUTO
        19 006746   000003 631400 20                 EPPR1   3
        19 006747   000000 701000 xent               TSX1    Z8AF$FORME_ON_SIZE
        19 006750   000000 011000                    NOP     0

      659    15884    3                CALL Z8AF$FORME_ON_SIZE(%CVIH, ETT$$, 0, ETT$$, ON_SIZE);

  15884 19 006751   200042 630500                    EPPR0   ON_SIZE,,AUTO
        19 006752   200106 450500                    STP0    ROPCON+6,,AUTO
        19 006753   200032 631500                    EPPR1   ETT$$,,AUTO
        19 006754   200105 451500                    STP1    ROPCON+5,,AUTO
        19 006755   000007 236000 20                 LDQ     7
PL6.E3A0      #001=Z8EV$CONVERT_ROUND_ON_SIZE File=Z8EV.:Z8A6TSI                 SAT 08/09/97 12:49 Page:176
        19 006756   200104 756100                    STQ     ROPCON+4,,AUTO
        19 006757   200032 633500                    EPPR3   ETT$$,,AUTO
        19 006760   200103 453500                    STP3    ROPCON+3,,AUTO
        19 006761   000111 236000 20                 LDQ     73
        19 006762   200102 756100                    STQ     ROPCON+2,,AUTO
        19 006763   200102 630500                    EPPR0   ROPCON+2,,AUTO
        19 006764   000003 631400 20                 EPPR1   3
        19 006765   000000 701000 xent               TSX1    Z8AF$FORME_ON_SIZE
        19 006766   000000 011000                    NOP     0
        19 006767   013077 710000 19                 TRA     s:16356

      660    15885
      661    15886    3              CASE (%TYE); /* Convert EBCDIC to half word */

      662    15887    3                CALL Z8CO$CREATE_LIBRARY_BASE(%OP_EBCDIC_TO_ASCII, TABLE_ETT$);

  15887 19 006770   200033 634500                    EPPR4   TABLE_ETT$,,AUTO
        19 006771   200103 454500                    STP4    ROPCON+3,,AUTO
        19 006772   000043 236000 20                 LDQ     35
        19 006773   200102 756100                    STQ     ROPCON+2,,AUTO
        19 006774   200102 630500                    EPPR0   ROPCON+2,,AUTO
        19 006775   000000 631400 20                 EPPR1   0
        19 006776   000000 701000 xent               TSX1    Z8CO$CREATE_LIBRARY_BASE
        19 006777   000000 011000                    NOP     0

      663    15888    3                CALL Z8AF$FORME_ON_SIZE(%CVT, ETT$$, TABLE_ETT$, ETT$$, ON_SIZE);

  15888 19 007000   200042 630500                    EPPR0   ON_SIZE,,AUTO
        19 007001   200106 450500                    STP0    ROPCON+6,,AUTO
        19 007002   200032 631500                    EPPR1   ETT$$,,AUTO
        19 007003   200105 451500                    STP1    ROPCON+5,,AUTO
        19 007004   200033 633500                    EPPR3   TABLE_ETT$,,AUTO
        19 007005   200104 453500                    STP3    ROPCON+4,,AUTO
        19 007006   200032 634500                    EPPR4   ETT$$,,AUTO
        19 007007   200103 454500                    STP4    ROPCON+3,,AUTO
        19 007010   000023 236000 20                 LDQ     19
        19 007011   200102 756100                    STQ     ROPCON+2,,AUTO
PL6.E3A0      #001=Z8EV$CONVERT_ROUND_ON_SIZE File=Z8EV.:Z8A6TSI                 SAT 08/09/97 12:49 Page:177
        19 007012   200102 630500                    EPPR0   ROPCON+2,,AUTO
        19 007013   000003 631400 20                 EPPR1   3
        19 007014   000000 701000 xent               TSX1    Z8AF$FORME_ON_SIZE
        19 007015   000000 011000                    NOP     0

      664    15889    3                CALL Z8AF$FORME_ON_SIZE(%DAN, ETT$$, 0, ETT$$, ON_SIZE);

  15889 19 007016   200042 630500                    EPPR0   ON_SIZE,,AUTO
        19 007017   200106 450500                    STP0    ROPCON+6,,AUTO
        19 007020   200032 631500                    EPPR1   ETT$$,,AUTO
        19 007021   200105 451500                    STP1    ROPCON+5,,AUTO
        19 007022   000007 236000 20                 LDQ     7
        19 007023   200104 756100                    STQ     ROPCON+4,,AUTO
        19 007024   200032 633500                    EPPR3   ETT$$,,AUTO
        19 007025   200103 453500                    STP3    ROPCON+3,,AUTO
        19 007026   000047 236000 20                 LDQ     39
        19 007027   200102 756100                    STQ     ROPCON+2,,AUTO
        19 007030   200102 630500                    EPPR0   ROPCON+2,,AUTO
        19 007031   000003 631400 20                 EPPR1   3
        19 007032   000000 701000 xent               TSX1    Z8AF$FORME_ON_SIZE
        19 007033   000000 011000                    NOP     0

      665    15890    3                CALL Z8AF$FORME_ON_SIZE(%CVDI, ETT$$, 0, ETT$$, ON_SIZE);

  15890 19 007034   200042 630500                    EPPR0   ON_SIZE,,AUTO
        19 007035   200106 450500                    STP0    ROPCON+6,,AUTO
        19 007036   200032 631500                    EPPR1   ETT$$,,AUTO
        19 007037   200105 451500                    STP1    ROPCON+5,,AUTO
        19 007040   000007 236000 20                 LDQ     7
        19 007041   200104 756100                    STQ     ROPCON+4,,AUTO
        19 007042   200032 633500                    EPPR3   ETT$$,,AUTO
        19 007043   200103 453500                    STP3    ROPCON+3,,AUTO
        19 007044   000105 236000 20                 LDQ     69
        19 007045   200102 756100                    STQ     ROPCON+2,,AUTO
        19 007046   200102 630500                    EPPR0   ROPCON+2,,AUTO
        19 007047   000003 631400 20                 EPPR1   3
        19 007050   000000 701000 xent               TSX1    Z8AF$FORME_ON_SIZE
PL6.E3A0      #001=Z8EV$CONVERT_ROUND_ON_SIZE File=Z8EV.:Z8A6TSI                 SAT 08/09/97 12:49 Page:178
        19 007051   000000 011000                    NOP     0

      666    15891    3                CALL Z8AF$FORME_ON_SIZE(%CVIH, ETT$$, 0, ETT$$, ON_SIZE);

  15891 19 007052   200042 630500                    EPPR0   ON_SIZE,,AUTO
        19 007053   200106 450500                    STP0    ROPCON+6,,AUTO
        19 007054   200032 631500                    EPPR1   ETT$$,,AUTO
        19 007055   200105 451500                    STP1    ROPCON+5,,AUTO
        19 007056   000007 236000 20                 LDQ     7
        19 007057   200104 756100                    STQ     ROPCON+4,,AUTO
        19 007060   200032 633500                    EPPR3   ETT$$,,AUTO
        19 007061   200103 453500                    STP3    ROPCON+3,,AUTO
        19 007062   000111 236000 20                 LDQ     73
        19 007063   200102 756100                    STQ     ROPCON+2,,AUTO
        19 007064   200102 630500                    EPPR0   ROPCON+2,,AUTO
        19 007065   000003 631400 20                 EPPR1   3
        19 007066   000000 701000 xent               TSX1    Z8AF$FORME_ON_SIZE
        19 007067   000000 011000                    NOP     0
        19 007070   013077 710000 19                 TRA     s:16356

      667    15892
      668    15893    3              CASE (%TYB); /* Convert GBCD to half word */

      669    15894    3                CALL Z8CO$CREATE_LIBRARY_BASE(%OP_GBCD_TO_ASCII, TABLE_ETT$);

  15894 19 007071   200033 634500                    EPPR4   TABLE_ETT$,,AUTO
        19 007072   200103 454500                    STP4    ROPCON+3,,AUTO
        19 007073   000021 236000 20                 LDQ     17
        19 007074   200102 756100                    STQ     ROPCON+2,,AUTO
        19 007075   200102 630500                    EPPR0   ROPCON+2,,AUTO
        19 007076   000000 631400 20                 EPPR1   0
        19 007077   000000 701000 xent               TSX1    Z8CO$CREATE_LIBRARY_BASE
        19 007100   000000 011000                    NOP     0

      670    15895    3                CALL Z8AF$FORME_ON_SIZE(%CVT, ETT$$, TABLE_ETT$, ETT$$, ON_SIZE);

  15895 19 007101   200042 630500                    EPPR0   ON_SIZE,,AUTO
PL6.E3A0      #001=Z8EV$CONVERT_ROUND_ON_SIZE File=Z8EV.:Z8A6TSI                 SAT 08/09/97 12:49 Page:179
        19 007102   200106 450500                    STP0    ROPCON+6,,AUTO
        19 007103   200032 631500                    EPPR1   ETT$$,,AUTO
        19 007104   200105 451500                    STP1    ROPCON+5,,AUTO
        19 007105   200033 633500                    EPPR3   TABLE_ETT$,,AUTO
        19 007106   200104 453500                    STP3    ROPCON+4,,AUTO
        19 007107   200032 634500                    EPPR4   ETT$$,,AUTO
        19 007110   200103 454500                    STP4    ROPCON+3,,AUTO
        19 007111   000023 236000 20                 LDQ     19
        19 007112   200102 756100                    STQ     ROPCON+2,,AUTO
        19 007113   200102 630500                    EPPR0   ROPCON+2,,AUTO
        19 007114   000003 631400 20                 EPPR1   3
        19 007115   000000 701000 xent               TSX1    Z8AF$FORME_ON_SIZE
        19 007116   000000 011000                    NOP     0

      671    15896    3                CALL Z8AF$FORME_ON_SIZE(%DAN, ETT$$, 0, ETT$$, ON_SIZE);

  15896 19 007117   200042 630500                    EPPR0   ON_SIZE,,AUTO
        19 007120   200106 450500                    STP0    ROPCON+6,,AUTO
        19 007121   200032 631500                    EPPR1   ETT$$,,AUTO
        19 007122   200105 451500                    STP1    ROPCON+5,,AUTO
        19 007123   000007 236000 20                 LDQ     7
        19 007124   200104 756100                    STQ     ROPCON+4,,AUTO
        19 007125   200032 633500                    EPPR3   ETT$$,,AUTO
        19 007126   200103 453500                    STP3    ROPCON+3,,AUTO
        19 007127   000047 236000 20                 LDQ     39
        19 007130   200102 756100                    STQ     ROPCON+2,,AUTO
        19 007131   200102 630500                    EPPR0   ROPCON+2,,AUTO
        19 007132   000003 631400 20                 EPPR1   3
        19 007133   000000 701000 xent               TSX1    Z8AF$FORME_ON_SIZE
        19 007134   000000 011000                    NOP     0

      672    15897    3                CALL Z8AF$FORME_ON_SIZE(%CVDI, ETT$$, 0, ETT$$, ON_SIZE);

  15897 19 007135   200042 630500                    EPPR0   ON_SIZE,,AUTO
        19 007136   200106 450500                    STP0    ROPCON+6,,AUTO
        19 007137   200032 631500                    EPPR1   ETT$$,,AUTO
        19 007140   200105 451500                    STP1    ROPCON+5,,AUTO
PL6.E3A0      #001=Z8EV$CONVERT_ROUND_ON_SIZE File=Z8EV.:Z8A6TSI                 SAT 08/09/97 12:49 Page:180
        19 007141   000007 236000 20                 LDQ     7
        19 007142   200104 756100                    STQ     ROPCON+4,,AUTO
        19 007143   200032 633500                    EPPR3   ETT$$,,AUTO
        19 007144   200103 453500                    STP3    ROPCON+3,,AUTO
        19 007145   000105 236000 20                 LDQ     69
        19 007146   200102 756100                    STQ     ROPCON+2,,AUTO
        19 007147   200102 630500                    EPPR0   ROPCON+2,,AUTO
        19 007150   000003 631400 20                 EPPR1   3
        19 007151   000000 701000 xent               TSX1    Z8AF$FORME_ON_SIZE
        19 007152   000000 011000                    NOP     0

      673    15898    3                CALL Z8AF$FORME_ON_SIZE(%CVIH, ETT$$, 0, ETT$$, ON_SIZE);

  15898 19 007153   200042 630500                    EPPR0   ON_SIZE,,AUTO
        19 007154   200106 450500                    STP0    ROPCON+6,,AUTO
        19 007155   200032 631500                    EPPR1   ETT$$,,AUTO
        19 007156   200105 451500                    STP1    ROPCON+5,,AUTO
        19 007157   000007 236000 20                 LDQ     7
        19 007160   200104 756100                    STQ     ROPCON+4,,AUTO
        19 007161   200032 633500                    EPPR3   ETT$$,,AUTO
        19 007162   200103 453500                    STP3    ROPCON+3,,AUTO
        19 007163   000111 236000 20                 LDQ     73
        19 007164   200102 756100                    STQ     ROPCON+2,,AUTO
        19 007165   200102 630500                    EPPR0   ROPCON+2,,AUTO
        19 007166   000003 631400 20                 EPPR1   3
        19 007167   000000 701000 xent               TSX1    Z8AF$FORME_ON_SIZE
        19 007170   000000 011000                    NOP     0
        19 007171   013077 710000 19                 TRA     s:16356

      674    15899
      675    15900    3              CASE (%TYX, %TYY);

      676    15901    3                CALL Z8AE$ERROR (%E$UNEXPECTED_CASE,

  15901 19 007172   200034 236100                    LDQ     FROM$,,AUTO
        19 007173   000006 036003                    ADLQ    6,DU
        19 007174   200104 756100                    STQ     ROPCON+4,,AUTO
PL6.E3A0      #001=Z8EV$CONVERT_ROUND_ON_SIZE File=Z8EV.:Z8A6TSI                 SAT 08/09/97 12:49 Page:181
        19 007175   200034 236100                    LDQ     FROM$,,AUTO
        19 007176   000005 036003                    ADLQ    5,DU
        19 007177   000017 235000 20                 LDA     15
        19 007200   200102 757100                    STAQ    ROPCON+2,,AUTO
        19 007201   200102 630500                    EPPR0   ROPCON+2,,AUTO
        19 007202   000013 631400 20                 EPPR1   11
        19 007203   000000 701000 xent               TSX1    Z8AE$ERROR
        19 007204   000000 011000                    NOP     0
        19 007205   013077 710000 19                 TRA     s:16356

      677    15902    3                                 FROM$ -> LX_ETT_ITEM.LINE,
      678    15903    3                                 FROM$ -> LX_ETT_ITEM.COLUMN);
      679    15904
      680    15905    3              CASE(%TYT);

      681    15906    3                CALL Z8EC$CREATE_CONST(%TYH, FROM$, ETT$$)

  15906 19 007206   200032 634500                    EPPR4   ETT$$,,AUTO
        19 007207   200104 454500                    STP4    ROPCON+4,,AUTO
        19 007210   200034 635500                    EPPR5   FROM$,,AUTO
        19 007211   200103 455500                    STP5    ROPCON+3,,AUTO
        19 007212   000011 236000 20                 LDQ     9
        19 007213   200102 756100                    STQ     ROPCON+2,,AUTO
        19 007214   200102 630500                    EPPR0   ROPCON+2,,AUTO
        19 007215   000013 631400 20                 EPPR1   11
        19 007216   000000 701000 xent               TSX1    Z8EC$CREATE_CONST
        19 007217   007221 702000 19                 TSX2    s:15922
        19 007220   007240 710000 19                 TRA     s:15944

      682    15907    3                  WHENALTRETURN
      683    15908    4                    DO;

      684    15909                           %CONDITIONAL_ERROR (@LX_ITEM$ = FROM$,
      685    15910                                               @ERROR#   = %E$TRUNCATION_WARN,
      686    15911                                               @LINE     = FROM$ -> LX_ITEM.LINE,
      687    15912                                               @COLUMN   = FROM$ -> LX_ITEM.COLUMN);

PL6.E3A0      #001=Z8EV$CONVERT_ROUND_ON_SIZE File=Z8EV.:Z8A6TSI                 SAT 08/09/97 12:49 Page:182
  15922 19 007221   200034 470500                    LDP0    FROM$,,AUTO
        19 007222   000000 236100                    LDQ     0,,PR0
        19 007223   400000 316007                    CANQ    -131072,DL
        19 007224   007240 601000 19                 TNZ     s:15944

  15924 19 007225   200034 236100                    LDQ     FROM$,,AUTO
        19 007226   000006 036003                    ADLQ    6,DU
        19 007227   200104 756100                    STQ     ROPCON+4,,AUTO
        19 007230   200034 236100                    LDQ     FROM$,,AUTO
        19 007231   000005 036003                    ADLQ    5,DU
        19 007232   000107 235000 20                 LDA     71
        19 007233   200102 757100                    STAQ    ROPCON+2,,AUTO
        19 007234   200102 630500                    EPPR0   ROPCON+2,,AUTO
        19 007235   000013 631400 20                 EPPR1   11
        19 007236   000000 701000 xent               TSX1    Z8AE$ERROR
        19 007237   000000 011000                    NOP     0

      688    15942    4                    END;

      689    15943
      690    15944    3            END;  /* CASE (%TYH) */

  15944 19 007240   013077 710000 19                 TRA     s:16356

      691    15945        %EJECT;
PL6.E3A0      #001=Z8EV$CONVERT_ROUND_ON_SIZE File=Z8EV.:Z8A6TSI                 SAT 08/09/97 12:49 Page:183
      692    15946    2          CASE (%TYJ);

      693    15947    3            DO CASE(FROM$ -> LX_ITEM.TYPE);

  15947 19 007241   200034 473500                    LDP3    FROM$,,AUTO
        19 007242   300004 235100                    LDA     4,,PR3
        19 007243   000020 115007                    CMPA    16,DL
        19 007244   007246 602005 19                 TNC     s:15947+5,AL
        19 007245   013077 710000 19                 TRA     s:16356
        19 007246   007266 710000 19                 TRA     s:15949
        19 007247   007341 710000 19                 TRA     s:15954
        19 007250   010160 710000 19                 TRA     s:16043
        19 007251   007452 710000 19                 TRA     s:15967
        19 007252   007600 710000 19                 TRA     s:15977
        19 007253   007543 710000 19                 TRA     s:15973
        19 007254   007710 710000 19                 TRA     s:15986
        19 007255   007360 710000 19                 TRA     s:15957
        19 007256   007635 710000 19                 TRA     s:15981
        19 007257   010112 710000 19                 TRA     s:16000
        19 007260   010112 710000 19                 TRA     s:16000
        19 007261   007452 710000 19                 TRA     s:15967
        19 007262   010011 710000 19                 TRA     s:15993
        19 007263   010126 710000 19                 TRA     s:16005
        19 007264   010160 710000 19                 TRA     s:16043
        19 007265   007415 710000 19                 TRA     s:15963

      694    15948    3              CASE (%TYD);

      695    15949    3                CALL Z8AF$FORME_ON_SIZE(%CVDSF, ETT$$, 0, ETT$$, ON_SIZE);

  15949 19 007266   200042 634500                    EPPR4   ON_SIZE,,AUTO
        19 007267   200106 454500                    STP4    ROPCON+6,,AUTO
        19 007270   200032 635500                    EPPR5   ETT$$,,AUTO
        19 007271   200105 455500                    STP5    ROPCON+5,,AUTO
        19 007272   000007 236000 20                 LDQ     7
        19 007273   200104 756100                    STQ     ROPCON+4,,AUTO
        19 007274   200032 636500                    EPPR6   ETT$$,,AUTO
PL6.E3A0      #001=Z8EV$CONVERT_ROUND_ON_SIZE File=Z8EV.:Z8A6TSI                 SAT 08/09/97 12:49 Page:184
        19 007275   200103 456500                    STP6    ROPCON+3,,AUTO
        19 007276   000103 236000 20                 LDQ     67
        19 007277   200102 756100                    STQ     ROPCON+2,,AUTO
        19 007300   200102 630500                    EPPR0   ROPCON+2,,AUTO
        19 007301   000003 631400 20                 EPPR1   3
        19 007302   000000 701000 xent               TSX1    Z8AF$FORME_ON_SIZE
        19 007303   000000 011000                    NOP     0

      696    15950    3                CALL Z8AF$FORME_ON_SIZE(%CVDI, ETT$$, 0, ETT$$, ON_SIZE);

  15950 19 007304   200042 630500                    EPPR0   ON_SIZE,,AUTO
        19 007305   200106 450500                    STP0    ROPCON+6,,AUTO
        19 007306   200032 631500                    EPPR1   ETT$$,,AUTO
        19 007307   200105 451500                    STP1    ROPCON+5,,AUTO
        19 007310   000007 236000 20                 LDQ     7
        19 007311   200104 756100                    STQ     ROPCON+4,,AUTO
        19 007312   200032 633500                    EPPR3   ETT$$,,AUTO
        19 007313   200103 453500                    STP3    ROPCON+3,,AUTO
        19 007314   000105 236000 20                 LDQ     69
        19 007315   200102 756100                    STQ     ROPCON+2,,AUTO
        19 007316   200102 630500                    EPPR0   ROPCON+2,,AUTO
        19 007317   000003 631400 20                 EPPR1   3
        19 007320   000000 701000 xent               TSX1    Z8AF$FORME_ON_SIZE
        19 007321   000000 011000                    NOP     0

      697    15951    3                CALL Z8AF$FORME_ON_SIZE(%CVIJ, ETT$$, 0, ETT$$, ON_SIZE);

  15951 19 007322   200042 630500                    EPPR0   ON_SIZE,,AUTO
        19 007323   200106 450500                    STP0    ROPCON+6,,AUTO
        19 007324   200032 631500                    EPPR1   ETT$$,,AUTO
        19 007325   200105 451500                    STP1    ROPCON+5,,AUTO
        19 007326   000007 236000 20                 LDQ     7
        19 007327   200104 756100                    STQ     ROPCON+4,,AUTO
        19 007330   200032 633500                    EPPR3   ETT$$,,AUTO
        19 007331   200103 453500                    STP3    ROPCON+3,,AUTO
        19 007332   000113 236000 20                 LDQ     75
        19 007333   200102 756100                    STQ     ROPCON+2,,AUTO
PL6.E3A0      #001=Z8EV$CONVERT_ROUND_ON_SIZE File=Z8EV.:Z8A6TSI                 SAT 08/09/97 12:49 Page:185
        19 007334   200102 630500                    EPPR0   ROPCON+2,,AUTO
        19 007335   000003 631400 20                 EPPR1   3
        19 007336   000000 701000 xent               TSX1    Z8AF$FORME_ON_SIZE
        19 007337   000000 011000                    NOP     0
        19 007340   013077 710000 19                 TRA     s:16356

      698    15952
      699    15953    3              CASE (%TYI);

      700    15954    3                CALL Z8AF$FORME_ON_SIZE(%CVIJ, ETT$$, 0, ETT$$, ON_SIZE);

  15954 19 007341   200042 634500                    EPPR4   ON_SIZE,,AUTO
        19 007342   200106 454500                    STP4    ROPCON+6,,AUTO
        19 007343   200032 635500                    EPPR5   ETT$$,,AUTO
        19 007344   200105 455500                    STP5    ROPCON+5,,AUTO
        19 007345   000007 236000 20                 LDQ     7
        19 007346   200104 756100                    STQ     ROPCON+4,,AUTO
        19 007347   200032 636500                    EPPR6   ETT$$,,AUTO
        19 007350   200103 456500                    STP6    ROPCON+3,,AUTO
        19 007351   000113 236000 20                 LDQ     75
        19 007352   200102 756100                    STQ     ROPCON+2,,AUTO
        19 007353   200102 630500                    EPPR0   ROPCON+2,,AUTO
        19 007354   000003 631400 20                 EPPR1   3
        19 007355   000000 701000 xent               TSX1    Z8AF$FORME_ON_SIZE
        19 007356   000000 011000                    NOP     0
        19 007357   013077 710000 19                 TRA     s:16356

      701    15955
      702    15956    3              CASE (%TYH);

      703    15957    3                CALL Z8AF$FORME_ON_SIZE(%CVHI, ETT$$, 0, ETT$$, ON_SIZE);

  15957 19 007360   200042 634500                    EPPR4   ON_SIZE,,AUTO
        19 007361   200106 454500                    STP4    ROPCON+6,,AUTO
        19 007362   200032 635500                    EPPR5   ETT$$,,AUTO
        19 007363   200105 455500                    STP5    ROPCON+5,,AUTO
        19 007364   000007 236000 20                 LDQ     7
PL6.E3A0      #001=Z8EV$CONVERT_ROUND_ON_SIZE File=Z8EV.:Z8A6TSI                 SAT 08/09/97 12:49 Page:186
        19 007365   200104 756100                    STQ     ROPCON+4,,AUTO
        19 007366   200032 636500                    EPPR6   ETT$$,,AUTO
        19 007367   200103 456500                    STP6    ROPCON+3,,AUTO
        19 007370   000033 236000 20                 LDQ     27
        19 007371   200102 756100                    STQ     ROPCON+2,,AUTO
        19 007372   200102 630500                    EPPR0   ROPCON+2,,AUTO
        19 007373   000003 631400 20                 EPPR1   3
        19 007374   000000 701000 xent               TSX1    Z8AF$FORME_ON_SIZE
        19 007375   000000 011000                    NOP     0

      704    15958    3                CALL Z8AF$FORME_ON_SIZE(%CVIJ, ETT$$, 0, ETT$$, ON_SIZE);

  15958 19 007376   200042 630500                    EPPR0   ON_SIZE,,AUTO
        19 007377   200106 450500                    STP0    ROPCON+6,,AUTO
        19 007400   200032 631500                    EPPR1   ETT$$,,AUTO
        19 007401   200105 451500                    STP1    ROPCON+5,,AUTO
        19 007402   000007 236000 20                 LDQ     7
        19 007403   200104 756100                    STQ     ROPCON+4,,AUTO
        19 007404   200032 633500                    EPPR3   ETT$$,,AUTO
        19 007405   200103 453500                    STP3    ROPCON+3,,AUTO
        19 007406   000113 236000 20                 LDQ     75
        19 007407   200102 756100                    STQ     ROPCON+2,,AUTO
        19 007410   200102 630500                    EPPR0   ROPCON+2,,AUTO
        19 007411   000003 631400 20                 EPPR1   3
        19 007412   000000 701000 xent               TSX1    Z8AF$FORME_ON_SIZE
        19 007413   000000 011000                    NOP     0
        19 007414   013077 710000 19                 TRA     s:16356

      705    15959
      706    15960    3              CASE (%TYJ);

      707    15961
      708    15962    3              CASE (%TYK);

      709    15963    3                CALL Z8AF$FORME_ON_SIZE(%CVKI, ETT$$, 0, ETT$$, ON_SIZE);

  15963 19 007415   200042 634500                    EPPR4   ON_SIZE,,AUTO
PL6.E3A0      #001=Z8EV$CONVERT_ROUND_ON_SIZE File=Z8EV.:Z8A6TSI                 SAT 08/09/97 12:49 Page:187
        19 007416   200106 454500                    STP4    ROPCON+6,,AUTO
        19 007417   200032 635500                    EPPR5   ETT$$,,AUTO
        19 007420   200105 455500                    STP5    ROPCON+5,,AUTO
        19 007421   000007 236000 20                 LDQ     7
        19 007422   200104 756100                    STQ     ROPCON+4,,AUTO
        19 007423   200032 636500                    EPPR6   ETT$$,,AUTO
        19 007424   200103 456500                    STP6    ROPCON+3,,AUTO
        19 007425   000031 236000 20                 LDQ     25
        19 007426   200102 756100                    STQ     ROPCON+2,,AUTO
        19 007427   200102 630500                    EPPR0   ROPCON+2,,AUTO
        19 007430   000003 631400 20                 EPPR1   3
        19 007431   000000 701000 xent               TSX1    Z8AF$FORME_ON_SIZE
        19 007432   000000 011000                    NOP     0

      710    15964    3                CALL Z8AF$FORME_ON_SIZE(%CVIJ, ETT$$, 0, ETT$$, ON_SIZE);

  15964 19 007433   200042 630500                    EPPR0   ON_SIZE,,AUTO
        19 007434   200106 450500                    STP0    ROPCON+6,,AUTO
        19 007435   200032 631500                    EPPR1   ETT$$,,AUTO
        19 007436   200105 451500                    STP1    ROPCON+5,,AUTO
        19 007437   000007 236000 20                 LDQ     7
        19 007440   200104 756100                    STQ     ROPCON+4,,AUTO
        19 007441   200032 633500                    EPPR3   ETT$$,,AUTO
        19 007442   200103 453500                    STP3    ROPCON+3,,AUTO
        19 007443   000113 236000 20                 LDQ     75
        19 007444   200102 756100                    STQ     ROPCON+2,,AUTO
        19 007445   200102 630500                    EPPR0   ROPCON+2,,AUTO
        19 007446   000003 631400 20                 EPPR1   3
        19 007447   000000 701000 xent               TSX1    Z8AF$FORME_ON_SIZE
        19 007450   000000 011000                    NOP     0
        19 007451   013077 710000 19                 TRA     s:16356

      711    15965
      712    15966    3              CASE (%TYO, %TYF); /* Convert overpunched or EBCDIC numeric to 16 bit */

      713    15967    3                CALL Z8AF$FORME_ON_SIZE(%CVOD4, ETT$$, 0, ETT$$, ON_SIZE);

PL6.E3A0      #001=Z8EV$CONVERT_ROUND_ON_SIZE File=Z8EV.:Z8A6TSI                 SAT 08/09/97 12:49 Page:188
  15967 19 007452   200042 634500                    EPPR4   ON_SIZE,,AUTO
        19 007453   200106 454500                    STP4    ROPCON+6,,AUTO
        19 007454   200032 635500                    EPPR5   ETT$$,,AUTO
        19 007455   200105 455500                    STP5    ROPCON+5,,AUTO
        19 007456   000007 236000 20                 LDQ     7
        19 007457   200104 756100                    STQ     ROPCON+4,,AUTO
        19 007460   200032 636500                    EPPR6   ETT$$,,AUTO
        19 007461   200103 456500                    STP6    ROPCON+3,,AUTO
        19 007462   000035 236000 20                 LDQ     29
        19 007463   200102 756100                    STQ     ROPCON+2,,AUTO
        19 007464   200102 630500                    EPPR0   ROPCON+2,,AUTO
        19 007465   000003 631400 20                 EPPR1   3
        19 007466   000000 701000 xent               TSX1    Z8AF$FORME_ON_SIZE
        19 007467   000000 011000                    NOP     0

      714    15968    3                CALL Z8AF$FORME_ON_SIZE(%CVDSF, ETT$$, 0, ETT$$, ON_SIZE);

  15968 19 007470   200042 630500                    EPPR0   ON_SIZE,,AUTO
        19 007471   200106 450500                    STP0    ROPCON+6,,AUTO
        19 007472   200032 631500                    EPPR1   ETT$$,,AUTO
        19 007473   200105 451500                    STP1    ROPCON+5,,AUTO
        19 007474   000007 236000 20                 LDQ     7
        19 007475   200104 756100                    STQ     ROPCON+4,,AUTO
        19 007476   200032 633500                    EPPR3   ETT$$,,AUTO
        19 007477   200103 453500                    STP3    ROPCON+3,,AUTO
        19 007500   000103 236000 20                 LDQ     67
        19 007501   200102 756100                    STQ     ROPCON+2,,AUTO
        19 007502   200102 630500                    EPPR0   ROPCON+2,,AUTO
        19 007503   000003 631400 20                 EPPR1   3
        19 007504   000000 701000 xent               TSX1    Z8AF$FORME_ON_SIZE
        19 007505   000000 011000                    NOP     0

      715    15969    3                CALL Z8AF$FORME_ON_SIZE(%CVDI, ETT$$, 0, ETT$$, ON_SIZE);

  15969 19 007506   200042 630500                    EPPR0   ON_SIZE,,AUTO
        19 007507   200106 450500                    STP0    ROPCON+6,,AUTO
        19 007510   200032 631500                    EPPR1   ETT$$,,AUTO
PL6.E3A0      #001=Z8EV$CONVERT_ROUND_ON_SIZE File=Z8EV.:Z8A6TSI                 SAT 08/09/97 12:49 Page:189
        19 007511   200105 451500                    STP1    ROPCON+5,,AUTO
        19 007512   000007 236000 20                 LDQ     7
        19 007513   200104 756100                    STQ     ROPCON+4,,AUTO
        19 007514   200032 633500                    EPPR3   ETT$$,,AUTO
        19 007515   200103 453500                    STP3    ROPCON+3,,AUTO
        19 007516   000105 236000 20                 LDQ     69
        19 007517   200102 756100                    STQ     ROPCON+2,,AUTO
        19 007520   200102 630500                    EPPR0   ROPCON+2,,AUTO
        19 007521   000003 631400 20                 EPPR1   3
        19 007522   000000 701000 xent               TSX1    Z8AF$FORME_ON_SIZE
        19 007523   000000 011000                    NOP     0

      716    15970    3                CALL Z8AF$FORME_ON_SIZE(%CVIJ, ETT$$, 0, ETT$$, ON_SIZE);

  15970 19 007524   200042 630500                    EPPR0   ON_SIZE,,AUTO
        19 007525   200106 450500                    STP0    ROPCON+6,,AUTO
        19 007526   200032 631500                    EPPR1   ETT$$,,AUTO
        19 007527   200105 451500                    STP1    ROPCON+5,,AUTO
        19 007530   000007 236000 20                 LDQ     7
        19 007531   200104 756100                    STQ     ROPCON+4,,AUTO
        19 007532   200032 633500                    EPPR3   ETT$$,,AUTO
        19 007533   200103 453500                    STP3    ROPCON+3,,AUTO
        19 007534   000113 236000 20                 LDQ     75
        19 007535   200102 756100                    STQ     ROPCON+2,,AUTO
        19 007536   200102 630500                    EPPR0   ROPCON+2,,AUTO
        19 007537   000003 631400 20                 EPPR1   3
        19 007540   000000 701000 xent               TSX1    Z8AF$FORME_ON_SIZE
        19 007541   000000 011000                    NOP     0
        19 007542   013077 710000 19                 TRA     s:16356

      717    15971
      718    15972    3              CASE (%TYQ);

      719    15973    3                CALL Z8AF$FORME_ON_SIZE(%CVQI, ETT$$, 0, ETT$$, ON_SIZE);

  15973 19 007543   200042 634500                    EPPR4   ON_SIZE,,AUTO
        19 007544   200106 454500                    STP4    ROPCON+6,,AUTO
PL6.E3A0      #001=Z8EV$CONVERT_ROUND_ON_SIZE File=Z8EV.:Z8A6TSI                 SAT 08/09/97 12:49 Page:190
        19 007545   200032 635500                    EPPR5   ETT$$,,AUTO
        19 007546   200105 455500                    STP5    ROPCON+5,,AUTO
        19 007547   000007 236000 20                 LDQ     7
        19 007550   200104 756100                    STQ     ROPCON+4,,AUTO
        19 007551   200032 636500                    EPPR6   ETT$$,,AUTO
        19 007552   200103 456500                    STP6    ROPCON+3,,AUTO
        19 007553   000037 236000 20                 LDQ     31
        19 007554   200102 756100                    STQ     ROPCON+2,,AUTO
        19 007555   200102 630500                    EPPR0   ROPCON+2,,AUTO
        19 007556   000003 631400 20                 EPPR1   3
        19 007557   000000 701000 xent               TSX1    Z8AF$FORME_ON_SIZE
        19 007560   000000 011000                    NOP     0

      720    15974    3                CALL Z8AF$FORME_ON_SIZE(%CVIJ, ETT$$, 0, ETT$$, ON_SIZE);

  15974 19 007561   200042 630500                    EPPR0   ON_SIZE,,AUTO
        19 007562   200106 450500                    STP0    ROPCON+6,,AUTO
        19 007563   200032 631500                    EPPR1   ETT$$,,AUTO
        19 007564   200105 451500                    STP1    ROPCON+5,,AUTO
        19 007565   000007 236000 20                 LDQ     7
        19 007566   200104 756100                    STQ     ROPCON+4,,AUTO
        19 007567   200032 633500                    EPPR3   ETT$$,,AUTO
        19 007570   200103 453500                    STP3    ROPCON+3,,AUTO
        19 007571   000113 236000 20                 LDQ     75
        19 007572   200102 756100                    STQ     ROPCON+2,,AUTO
        19 007573   200102 630500                    EPPR0   ROPCON+2,,AUTO
        19 007574   000003 631400 20                 EPPR1   3
        19 007575   000000 701000 xent               TSX1    Z8AF$FORME_ON_SIZE
        19 007576   000000 011000                    NOP     0
        19 007577   013077 710000 19                 TRA     s:16356

      721    15975
      722    15976    3              CASE (%TYR);

      723    15977    3                CALL Z8AF$FORME_ON_SIZE(%CVRI, ETT$$, 0, ETT$$, ON_SIZE);

  15977 19 007600   200042 634500                    EPPR4   ON_SIZE,,AUTO
PL6.E3A0      #001=Z8EV$CONVERT_ROUND_ON_SIZE File=Z8EV.:Z8A6TSI                 SAT 08/09/97 12:49 Page:191
        19 007601   200106 454500                    STP4    ROPCON+6,,AUTO
        19 007602   200032 635500                    EPPR5   ETT$$,,AUTO
        19 007603   200105 455500                    STP5    ROPCON+5,,AUTO
        19 007604   000007 236000 20                 LDQ     7
        19 007605   200104 756100                    STQ     ROPCON+4,,AUTO
        19 007606   200032 636500                    EPPR6   ETT$$,,AUTO
        19 007607   200103 456500                    STP6    ROPCON+3,,AUTO
        19 007610   000041 236000 20                 LDQ     33
        19 007611   200102 756100                    STQ     ROPCON+2,,AUTO
        19 007612   200102 630500                    EPPR0   ROPCON+2,,AUTO
        19 007613   000003 631400 20                 EPPR1   3
        19 007614   000000 701000 xent               TSX1    Z8AF$FORME_ON_SIZE
        19 007615   000000 011000                    NOP     0

      724    15978    3                CALL Z8AF$FORME_ON_SIZE(%CVIJ, ETT$$, 0, ETT$$, ON_SIZE);

  15978 19 007616   200042 630500                    EPPR0   ON_SIZE,,AUTO
        19 007617   200106 450500                    STP0    ROPCON+6,,AUTO
        19 007620   200032 631500                    EPPR1   ETT$$,,AUTO
        19 007621   200105 451500                    STP1    ROPCON+5,,AUTO
        19 007622   000007 236000 20                 LDQ     7
        19 007623   200104 756100                    STQ     ROPCON+4,,AUTO
        19 007624   200032 633500                    EPPR3   ETT$$,,AUTO
        19 007625   200103 453500                    STP3    ROPCON+3,,AUTO
        19 007626   000113 236000 20                 LDQ     75
        19 007627   200102 756100                    STQ     ROPCON+2,,AUTO
        19 007630   200102 630500                    EPPR0   ROPCON+2,,AUTO
        19 007631   000003 631400 20                 EPPR1   3
        19 007632   000000 701000 xent               TSX1    Z8AF$FORME_ON_SIZE
        19 007633   000000 011000                    NOP     0
        19 007634   013077 710000 19                 TRA     s:16356

      725    15979
      726    15980    3              CASE (%TYA);

      727    15981    3                CALL Z8AF$FORME_ON_SIZE(%DAN, ETT$$, 0, ETT$$, ON_SIZE);

PL6.E3A0      #001=Z8EV$CONVERT_ROUND_ON_SIZE File=Z8EV.:Z8A6TSI                 SAT 08/09/97 12:49 Page:192
  15981 19 007635   200042 634500                    EPPR4   ON_SIZE,,AUTO
        19 007636   200106 454500                    STP4    ROPCON+6,,AUTO
        19 007637   200032 635500                    EPPR5   ETT$$,,AUTO
        19 007640   200105 455500                    STP5    ROPCON+5,,AUTO
        19 007641   000007 236000 20                 LDQ     7
        19 007642   200104 756100                    STQ     ROPCON+4,,AUTO
        19 007643   200032 636500                    EPPR6   ETT$$,,AUTO
        19 007644   200103 456500                    STP6    ROPCON+3,,AUTO
        19 007645   000047 236000 20                 LDQ     39
        19 007646   200102 756100                    STQ     ROPCON+2,,AUTO
        19 007647   200102 630500                    EPPR0   ROPCON+2,,AUTO
        19 007650   000003 631400 20                 EPPR1   3
        19 007651   000000 701000 xent               TSX1    Z8AF$FORME_ON_SIZE
        19 007652   000000 011000                    NOP     0

      728    15982    3                CALL Z8AF$FORME_ON_SIZE(%CVDI, ETT$$, 0, ETT$$, ON_SIZE);

  15982 19 007653   200042 630500                    EPPR0   ON_SIZE,,AUTO
        19 007654   200106 450500                    STP0    ROPCON+6,,AUTO
        19 007655   200032 631500                    EPPR1   ETT$$,,AUTO
        19 007656   200105 451500                    STP1    ROPCON+5,,AUTO
        19 007657   000007 236000 20                 LDQ     7
        19 007660   200104 756100                    STQ     ROPCON+4,,AUTO
        19 007661   200032 633500                    EPPR3   ETT$$,,AUTO
        19 007662   200103 453500                    STP3    ROPCON+3,,AUTO
        19 007663   000105 236000 20                 LDQ     69
        19 007664   200102 756100                    STQ     ROPCON+2,,AUTO
        19 007665   200102 630500                    EPPR0   ROPCON+2,,AUTO
        19 007666   000003 631400 20                 EPPR1   3
        19 007667   000000 701000 xent               TSX1    Z8AF$FORME_ON_SIZE
        19 007670   000000 011000                    NOP     0

      729    15983    3                CALL Z8AF$FORME_ON_SIZE(%CVIJ, ETT$$, 0, ETT$$, ON_SIZE);

  15983 19 007671   200042 630500                    EPPR0   ON_SIZE,,AUTO
        19 007672   200106 450500                    STP0    ROPCON+6,,AUTO
        19 007673   200032 631500                    EPPR1   ETT$$,,AUTO
PL6.E3A0      #001=Z8EV$CONVERT_ROUND_ON_SIZE File=Z8EV.:Z8A6TSI                 SAT 08/09/97 12:49 Page:193
        19 007674   200105 451500                    STP1    ROPCON+5,,AUTO
        19 007675   000007 236000 20                 LDQ     7
        19 007676   200104 756100                    STQ     ROPCON+4,,AUTO
        19 007677   200032 633500                    EPPR3   ETT$$,,AUTO
        19 007700   200103 453500                    STP3    ROPCON+3,,AUTO
        19 007701   000113 236000 20                 LDQ     75
        19 007702   200102 756100                    STQ     ROPCON+2,,AUTO
        19 007703   200102 630500                    EPPR0   ROPCON+2,,AUTO
        19 007704   000003 631400 20                 EPPR1   3
        19 007705   000000 701000 xent               TSX1    Z8AF$FORME_ON_SIZE
        19 007706   000000 011000                    NOP     0
        19 007707   013077 710000 19                 TRA     s:16356

      730    15984
      731    15985    3              CASE (%TYE); /* Convert EBCDIC to 16 bit */

      732    15986    3                CALL Z8CO$CREATE_LIBRARY_BASE(%OP_EBCDIC_TO_ASCII, TABLE_ETT$);

  15986 19 007710   200033 634500                    EPPR4   TABLE_ETT$,,AUTO
        19 007711   200103 454500                    STP4    ROPCON+3,,AUTO
        19 007712   000043 236000 20                 LDQ     35
        19 007713   200102 756100                    STQ     ROPCON+2,,AUTO
        19 007714   200102 630500                    EPPR0   ROPCON+2,,AUTO
        19 007715   000000 631400 20                 EPPR1   0
        19 007716   000000 701000 xent               TSX1    Z8CO$CREATE_LIBRARY_BASE
        19 007717   000000 011000                    NOP     0

      733    15987    3                CALL Z8AF$FORME_ON_SIZE(%CVT, ETT$$, TABLE_ETT$, ETT$$, ON_SIZE);

  15987 19 007720   200042 630500                    EPPR0   ON_SIZE,,AUTO
        19 007721   200106 450500                    STP0    ROPCON+6,,AUTO
        19 007722   200032 631500                    EPPR1   ETT$$,,AUTO
        19 007723   200105 451500                    STP1    ROPCON+5,,AUTO
        19 007724   200033 633500                    EPPR3   TABLE_ETT$,,AUTO
        19 007725   200104 453500                    STP3    ROPCON+4,,AUTO
        19 007726   200032 634500                    EPPR4   ETT$$,,AUTO
        19 007727   200103 454500                    STP4    ROPCON+3,,AUTO
PL6.E3A0      #001=Z8EV$CONVERT_ROUND_ON_SIZE File=Z8EV.:Z8A6TSI                 SAT 08/09/97 12:49 Page:194
        19 007730   000023 236000 20                 LDQ     19
        19 007731   200102 756100                    STQ     ROPCON+2,,AUTO
        19 007732   200102 630500                    EPPR0   ROPCON+2,,AUTO
        19 007733   000003 631400 20                 EPPR1   3
        19 007734   000000 701000 xent               TSX1    Z8AF$FORME_ON_SIZE
        19 007735   000000 011000                    NOP     0

      734    15988    3                CALL Z8AF$FORME_ON_SIZE(%DAN, ETT$$, 0, ETT$$, ON_SIZE);

  15988 19 007736   200042 630500                    EPPR0   ON_SIZE,,AUTO
        19 007737   200106 450500                    STP0    ROPCON+6,,AUTO
        19 007740   200032 631500                    EPPR1   ETT$$,,AUTO
        19 007741   200105 451500                    STP1    ROPCON+5,,AUTO
        19 007742   000007 236000 20                 LDQ     7
        19 007743   200104 756100                    STQ     ROPCON+4,,AUTO
        19 007744   200032 633500                    EPPR3   ETT$$,,AUTO
        19 007745   200103 453500                    STP3    ROPCON+3,,AUTO
        19 007746   000047 236000 20                 LDQ     39
        19 007747   200102 756100                    STQ     ROPCON+2,,AUTO
        19 007750   200102 630500                    EPPR0   ROPCON+2,,AUTO
        19 007751   000003 631400 20                 EPPR1   3
        19 007752   000000 701000 xent               TSX1    Z8AF$FORME_ON_SIZE
        19 007753   000000 011000                    NOP     0

      735    15989    3                CALL Z8AF$FORME_ON_SIZE(%CVDI, ETT$$, 0, ETT$$, ON_SIZE);

  15989 19 007754   200042 630500                    EPPR0   ON_SIZE,,AUTO
        19 007755   200106 450500                    STP0    ROPCON+6,,AUTO
        19 007756   200032 631500                    EPPR1   ETT$$,,AUTO
        19 007757   200105 451500                    STP1    ROPCON+5,,AUTO
        19 007760   000007 236000 20                 LDQ     7
        19 007761   200104 756100                    STQ     ROPCON+4,,AUTO
        19 007762   200032 633500                    EPPR3   ETT$$,,AUTO
        19 007763   200103 453500                    STP3    ROPCON+3,,AUTO
        19 007764   000105 236000 20                 LDQ     69
        19 007765   200102 756100                    STQ     ROPCON+2,,AUTO
        19 007766   200102 630500                    EPPR0   ROPCON+2,,AUTO
PL6.E3A0      #001=Z8EV$CONVERT_ROUND_ON_SIZE File=Z8EV.:Z8A6TSI                 SAT 08/09/97 12:49 Page:195
        19 007767   000003 631400 20                 EPPR1   3
        19 007770   000000 701000 xent               TSX1    Z8AF$FORME_ON_SIZE
        19 007771   000000 011000                    NOP     0

      736    15990    3                CALL Z8AF$FORME_ON_SIZE(%CVIJ, ETT$$, 0, ETT$$, ON_SIZE);

  15990 19 007772   200042 630500                    EPPR0   ON_SIZE,,AUTO
        19 007773   200106 450500                    STP0    ROPCON+6,,AUTO
        19 007774   200032 631500                    EPPR1   ETT$$,,AUTO
        19 007775   200105 451500                    STP1    ROPCON+5,,AUTO
        19 007776   000007 236000 20                 LDQ     7
        19 007777   200104 756100                    STQ     ROPCON+4,,AUTO
        19 010000   200032 633500                    EPPR3   ETT$$,,AUTO
        19 010001   200103 453500                    STP3    ROPCON+3,,AUTO
        19 010002   000113 236000 20                 LDQ     75
        19 010003   200102 756100                    STQ     ROPCON+2,,AUTO
        19 010004   200102 630500                    EPPR0   ROPCON+2,,AUTO
        19 010005   000003 631400 20                 EPPR1   3
        19 010006   000000 701000 xent               TSX1    Z8AF$FORME_ON_SIZE
        19 010007   000000 011000                    NOP     0
        19 010010   013077 710000 19                 TRA     s:16356

      737    15991
      738    15992    3              CASE (%TYB); /* Convert GBCD to 16 bit */

      739    15993    3                CALL Z8CO$CREATE_LIBRARY_BASE(%OP_GBCD_TO_ASCII, TABLE_ETT$);

  15993 19 010011   200033 634500                    EPPR4   TABLE_ETT$,,AUTO
        19 010012   200103 454500                    STP4    ROPCON+3,,AUTO
        19 010013   000021 236000 20                 LDQ     17
        19 010014   200102 756100                    STQ     ROPCON+2,,AUTO
        19 010015   200102 630500                    EPPR0   ROPCON+2,,AUTO
        19 010016   000000 631400 20                 EPPR1   0
        19 010017   000000 701000 xent               TSX1    Z8CO$CREATE_LIBRARY_BASE
        19 010020   000000 011000                    NOP     0

      740    15994    3                CALL Z8AF$FORME_ON_SIZE(%CVT, ETT$$, TABLE_ETT$, ETT$$, ON_SIZE);
PL6.E3A0      #001=Z8EV$CONVERT_ROUND_ON_SIZE File=Z8EV.:Z8A6TSI                 SAT 08/09/97 12:49 Page:196

  15994 19 010021   200042 630500                    EPPR0   ON_SIZE,,AUTO
        19 010022   200106 450500                    STP0    ROPCON+6,,AUTO
        19 010023   200032 631500                    EPPR1   ETT$$,,AUTO
        19 010024   200105 451500                    STP1    ROPCON+5,,AUTO
        19 010025   200033 633500                    EPPR3   TABLE_ETT$,,AUTO
        19 010026   200104 453500                    STP3    ROPCON+4,,AUTO
        19 010027   200032 634500                    EPPR4   ETT$$,,AUTO
        19 010030   200103 454500                    STP4    ROPCON+3,,AUTO
        19 010031   000023 236000 20                 LDQ     19
        19 010032   200102 756100                    STQ     ROPCON+2,,AUTO
        19 010033   200102 630500                    EPPR0   ROPCON+2,,AUTO
        19 010034   000003 631400 20                 EPPR1   3
        19 010035   000000 701000 xent               TSX1    Z8AF$FORME_ON_SIZE
        19 010036   000000 011000                    NOP     0

      741    15995    3                CALL Z8AF$FORME_ON_SIZE(%DAN, ETT$$, 0, ETT$$, ON_SIZE);

  15995 19 010037   200042 630500                    EPPR0   ON_SIZE,,AUTO
        19 010040   200106 450500                    STP0    ROPCON+6,,AUTO
        19 010041   200032 631500                    EPPR1   ETT$$,,AUTO
        19 010042   200105 451500                    STP1    ROPCON+5,,AUTO
        19 010043   000007 236000 20                 LDQ     7
        19 010044   200104 756100                    STQ     ROPCON+4,,AUTO
        19 010045   200032 633500                    EPPR3   ETT$$,,AUTO
        19 010046   200103 453500                    STP3    ROPCON+3,,AUTO
        19 010047   000047 236000 20                 LDQ     39
        19 010050   200102 756100                    STQ     ROPCON+2,,AUTO
        19 010051   200102 630500                    EPPR0   ROPCON+2,,AUTO
        19 010052   000003 631400 20                 EPPR1   3
        19 010053   000000 701000 xent               TSX1    Z8AF$FORME_ON_SIZE
        19 010054   000000 011000                    NOP     0

      742    15996    3                CALL Z8AF$FORME_ON_SIZE(%CVDI, ETT$$, 0, ETT$$, ON_SIZE);

  15996 19 010055   200042 630500                    EPPR0   ON_SIZE,,AUTO
        19 010056   200106 450500                    STP0    ROPCON+6,,AUTO
PL6.E3A0      #001=Z8EV$CONVERT_ROUND_ON_SIZE File=Z8EV.:Z8A6TSI                 SAT 08/09/97 12:49 Page:197
        19 010057   200032 631500                    EPPR1   ETT$$,,AUTO
        19 010060   200105 451500                    STP1    ROPCON+5,,AUTO
        19 010061   000007 236000 20                 LDQ     7
        19 010062   200104 756100                    STQ     ROPCON+4,,AUTO
        19 010063   200032 633500                    EPPR3   ETT$$,,AUTO
        19 010064   200103 453500                    STP3    ROPCON+3,,AUTO
        19 010065   000105 236000 20                 LDQ     69
        19 010066   200102 756100                    STQ     ROPCON+2,,AUTO
        19 010067   200102 630500                    EPPR0   ROPCON+2,,AUTO
        19 010070   000003 631400 20                 EPPR1   3
        19 010071   000000 701000 xent               TSX1    Z8AF$FORME_ON_SIZE
        19 010072   000000 011000                    NOP     0

      743    15997    3                CALL Z8AF$FORME_ON_SIZE(%CVIJ, ETT$$, 0, ETT$$, ON_SIZE);

  15997 19 010073   200042 630500                    EPPR0   ON_SIZE,,AUTO
        19 010074   200106 450500                    STP0    ROPCON+6,,AUTO
        19 010075   200032 631500                    EPPR1   ETT$$,,AUTO
        19 010076   200105 451500                    STP1    ROPCON+5,,AUTO
        19 010077   000007 236000 20                 LDQ     7
        19 010100   200104 756100                    STQ     ROPCON+4,,AUTO
        19 010101   200032 633500                    EPPR3   ETT$$,,AUTO
        19 010102   200103 453500                    STP3    ROPCON+3,,AUTO
        19 010103   000113 236000 20                 LDQ     75
        19 010104   200102 756100                    STQ     ROPCON+2,,AUTO
        19 010105   200102 630500                    EPPR0   ROPCON+2,,AUTO
        19 010106   000003 631400 20                 EPPR1   3
        19 010107   000000 701000 xent               TSX1    Z8AF$FORME_ON_SIZE
        19 010110   000000 011000                    NOP     0
        19 010111   013077 710000 19                 TRA     s:16356

      744    15998
      745    15999    3              CASE (%TYX, %TYY);

      746    16000    3                CALL Z8AE$ERROR (%E$UNEXPECTED_CASE,

  16000 19 010112   200034 236100                    LDQ     FROM$,,AUTO
PL6.E3A0      #001=Z8EV$CONVERT_ROUND_ON_SIZE File=Z8EV.:Z8A6TSI                 SAT 08/09/97 12:49 Page:198
        19 010113   000006 036003                    ADLQ    6,DU
        19 010114   200104 756100                    STQ     ROPCON+4,,AUTO
        19 010115   200034 236100                    LDQ     FROM$,,AUTO
        19 010116   000005 036003                    ADLQ    5,DU
        19 010117   000017 235000 20                 LDA     15
        19 010120   200102 757100                    STAQ    ROPCON+2,,AUTO
        19 010121   200102 630500                    EPPR0   ROPCON+2,,AUTO
        19 010122   000013 631400 20                 EPPR1   11
        19 010123   000000 701000 xent               TSX1    Z8AE$ERROR
        19 010124   000000 011000                    NOP     0
        19 010125   013077 710000 19                 TRA     s:16356

      747    16001    3                                 FROM$ -> LX_ETT_ITEM.LINE,
      748    16002    3                                 FROM$ -> LX_ETT_ITEM.COLUMN);
      749    16003
      750    16004    3              CASE(%TYT);

      751    16005    3                CALL Z8EC$CREATE_CONST(%TYJ, FROM$, ETT$$)

  16005 19 010126   200032 634500                    EPPR4   ETT$$,,AUTO
        19 010127   200104 454500                    STP4    ROPCON+4,,AUTO
        19 010130   200034 635500                    EPPR5   FROM$,,AUTO
        19 010131   200103 455500                    STP5    ROPCON+3,,AUTO
        19 010132   000115 236000 20                 LDQ     77
        19 010133   200102 756100                    STQ     ROPCON+2,,AUTO
        19 010134   200102 630500                    EPPR0   ROPCON+2,,AUTO
        19 010135   000013 631400 20                 EPPR1   11
        19 010136   000000 701000 xent               TSX1    Z8EC$CREATE_CONST
        19 010137   010141 702000 19                 TSX2    s:16021
        19 010140   010160 710000 19                 TRA     s:16043

      752    16006    3                  WHENALTRETURN
      753    16007    4                    DO;

      754    16008                           %CONDITIONAL_ERROR (@LX_ITEM$ = FROM$,
      755    16009                                               @ERROR#   = %E$TRUNCATION_WARN,
      756    16010                                               @LINE     = FROM$ -> LX_ITEM.LINE,
PL6.E3A0      #001=Z8EV$CONVERT_ROUND_ON_SIZE File=Z8EV.:Z8A6TSI                 SAT 08/09/97 12:49 Page:199
      757    16011                                               @COLUMN   = FROM$ -> LX_ITEM.COLUMN);

  16021 19 010141   200034 470500                    LDP0    FROM$,,AUTO
        19 010142   000000 236100                    LDQ     0,,PR0
        19 010143   400000 316007                    CANQ    -131072,DL
        19 010144   010160 601000 19                 TNZ     s:16043

  16023 19 010145   200034 236100                    LDQ     FROM$,,AUTO
        19 010146   000006 036003                    ADLQ    6,DU
        19 010147   200104 756100                    STQ     ROPCON+4,,AUTO
        19 010150   200034 236100                    LDQ     FROM$,,AUTO
        19 010151   000005 036003                    ADLQ    5,DU
        19 010152   000107 235000 20                 LDA     71
        19 010153   200102 757100                    STAQ    ROPCON+2,,AUTO
        19 010154   200102 630500                    EPPR0   ROPCON+2,,AUTO
        19 010155   000013 631400 20                 EPPR1   11
        19 010156   000000 701000 xent               TSX1    Z8AE$ERROR
        19 010157   000000 011000                    NOP     0

      758    16041    4                    END;

      759    16042
      760    16043    3            END;  /* CASE (%TYJ) */

  16043 19 010160   013077 710000 19                 TRA     s:16356

      761    16044        %EJECT;
PL6.E3A0      #001=Z8EV$CONVERT_ROUND_ON_SIZE File=Z8EV.:Z8A6TSI                 SAT 08/09/97 12:49 Page:200
      762    16045    2          CASE (%TYK);  /* Convert To 32 bit Binary (Comp-2)*/

      763    16046    3            DO CASE(FROM$ -> LX_ITEM.TYPE);

  16046 19 010161   200034 473500                    LDP3    FROM$,,AUTO
        19 010162   300004 235100                    LDA     4,,PR3
        19 010163   000016 115007                    CMPA    14,DL
        19 010164   010166 602005 19                 TNC     s:16046+5,AL
        19 010165   013077 710000 19                 TRA     s:16356
        19 010166   010204 710000 19                 TRA     s:16048
        19 010167   010257 710000 19                 TRA     s:16053
        19 010170   010333 710000 19                 TRA     s:16060
        19 010171   010370 710000 19                 TRA     s:16066
        19 010172   010516 710000 19                 TRA     s:16076
        19 010173   010461 710000 19                 TRA     s:16072
        19 010174   010626 710000 19                 TRA     s:16085
        19 010175   010276 710000 19                 TRA     s:16056
        19 010176   010553 710000 19                 TRA     s:16080
        19 010177   011030 710000 19                 TRA     s:16099
        19 010200   011030 710000 19                 TRA     s:16099
        19 010201   010370 710000 19                 TRA     s:16066
        19 010202   010727 710000 19                 TRA     s:16092
        19 010203   011044 710000 19                 TRA     s:16104

      764    16047    3              CASE (%TYD);

      765    16048    3                CALL Z8AF$FORME_ON_SIZE(%CVDSF, ETT$$, 0, ETT$$, ON_SIZE);

  16048 19 010204   200042 634500                    EPPR4   ON_SIZE,,AUTO
        19 010205   200106 454500                    STP4    ROPCON+6,,AUTO
        19 010206   200032 635500                    EPPR5   ETT$$,,AUTO
        19 010207   200105 455500                    STP5    ROPCON+5,,AUTO
        19 010210   000007 236000 20                 LDQ     7
        19 010211   200104 756100                    STQ     ROPCON+4,,AUTO
        19 010212   200032 636500                    EPPR6   ETT$$,,AUTO
        19 010213   200103 456500                    STP6    ROPCON+3,,AUTO
        19 010214   000103 236000 20                 LDQ     67
PL6.E3A0      #001=Z8EV$CONVERT_ROUND_ON_SIZE File=Z8EV.:Z8A6TSI                 SAT 08/09/97 12:49 Page:201
        19 010215   200102 756100                    STQ     ROPCON+2,,AUTO
        19 010216   200102 630500                    EPPR0   ROPCON+2,,AUTO
        19 010217   000003 631400 20                 EPPR1   3
        19 010220   000000 701000 xent               TSX1    Z8AF$FORME_ON_SIZE
        19 010221   000000 011000                    NOP     0

      766    16049    3                CALL Z8AF$FORME_ON_SIZE(%CVDI, ETT$$, 0, ETT$$, ON_SIZE);

  16049 19 010222   200042 630500                    EPPR0   ON_SIZE,,AUTO
        19 010223   200106 450500                    STP0    ROPCON+6,,AUTO
        19 010224   200032 631500                    EPPR1   ETT$$,,AUTO
        19 010225   200105 451500                    STP1    ROPCON+5,,AUTO
        19 010226   000007 236000 20                 LDQ     7
        19 010227   200104 756100                    STQ     ROPCON+4,,AUTO
        19 010230   200032 633500                    EPPR3   ETT$$,,AUTO
        19 010231   200103 453500                    STP3    ROPCON+3,,AUTO
        19 010232   000105 236000 20                 LDQ     69
        19 010233   200102 756100                    STQ     ROPCON+2,,AUTO
        19 010234   200102 630500                    EPPR0   ROPCON+2,,AUTO
        19 010235   000003 631400 20                 EPPR1   3
        19 010236   000000 701000 xent               TSX1    Z8AF$FORME_ON_SIZE
        19 010237   000000 011000                    NOP     0

      767    16050    3                CALL Z8AF$FORME_ON_SIZE(%CVIK, ETT$$, 0, ETT$$, ON_SIZE);

  16050 19 010240   200042 630500                    EPPR0   ON_SIZE,,AUTO
        19 010241   200106 450500                    STP0    ROPCON+6,,AUTO
        19 010242   200032 631500                    EPPR1   ETT$$,,AUTO
        19 010243   200105 451500                    STP1    ROPCON+5,,AUTO
        19 010244   000007 236000 20                 LDQ     7
        19 010245   200104 756100                    STQ     ROPCON+4,,AUTO
        19 010246   200032 633500                    EPPR3   ETT$$,,AUTO
        19 010247   200103 453500                    STP3    ROPCON+3,,AUTO
        19 010250   000117 236000 20                 LDQ     79
        19 010251   200102 756100                    STQ     ROPCON+2,,AUTO
        19 010252   200102 630500                    EPPR0   ROPCON+2,,AUTO
        19 010253   000003 631400 20                 EPPR1   3
PL6.E3A0      #001=Z8EV$CONVERT_ROUND_ON_SIZE File=Z8EV.:Z8A6TSI                 SAT 08/09/97 12:49 Page:202
        19 010254   000000 701000 xent               TSX1    Z8AF$FORME_ON_SIZE
        19 010255   000000 011000                    NOP     0
        19 010256   013077 710000 19                 TRA     s:16356

      768    16051
      769    16052    3              CASE (%TYI);

      770    16053    3                CALL Z8AF$FORME_ON_SIZE(%CVIK, ETT$$, 0, ETT$$, ON_SIZE);

  16053 19 010257   200042 634500                    EPPR4   ON_SIZE,,AUTO
        19 010260   200106 454500                    STP4    ROPCON+6,,AUTO
        19 010261   200032 635500                    EPPR5   ETT$$,,AUTO
        19 010262   200105 455500                    STP5    ROPCON+5,,AUTO
        19 010263   000007 236000 20                 LDQ     7
        19 010264   200104 756100                    STQ     ROPCON+4,,AUTO
        19 010265   200032 636500                    EPPR6   ETT$$,,AUTO
        19 010266   200103 456500                    STP6    ROPCON+3,,AUTO
        19 010267   000117 236000 20                 LDQ     79
        19 010270   200102 756100                    STQ     ROPCON+2,,AUTO
        19 010271   200102 630500                    EPPR0   ROPCON+2,,AUTO
        19 010272   000003 631400 20                 EPPR1   3
        19 010273   000000 701000 xent               TSX1    Z8AF$FORME_ON_SIZE
        19 010274   000000 011000                    NOP     0
        19 010275   013077 710000 19                 TRA     s:16356

      771    16054
      772    16055    3              CASE (%TYH);

      773    16056    3                CALL Z8AF$FORME_ON_SIZE(%CVHI, ETT$$, 0, ETT$$, ON_SIZE);

  16056 19 010276   200042 634500                    EPPR4   ON_SIZE,,AUTO
        19 010277   200106 454500                    STP4    ROPCON+6,,AUTO
        19 010300   200032 635500                    EPPR5   ETT$$,,AUTO
        19 010301   200105 455500                    STP5    ROPCON+5,,AUTO
        19 010302   000007 236000 20                 LDQ     7
        19 010303   200104 756100                    STQ     ROPCON+4,,AUTO
        19 010304   200032 636500                    EPPR6   ETT$$,,AUTO
PL6.E3A0      #001=Z8EV$CONVERT_ROUND_ON_SIZE File=Z8EV.:Z8A6TSI                 SAT 08/09/97 12:49 Page:203
        19 010305   200103 456500                    STP6    ROPCON+3,,AUTO
        19 010306   000033 236000 20                 LDQ     27
        19 010307   200102 756100                    STQ     ROPCON+2,,AUTO
        19 010310   200102 630500                    EPPR0   ROPCON+2,,AUTO
        19 010311   000003 631400 20                 EPPR1   3
        19 010312   000000 701000 xent               TSX1    Z8AF$FORME_ON_SIZE
        19 010313   000000 011000                    NOP     0

      774    16057    3                CALL Z8AF$FORME_ON_SIZE(%CVIK, ETT$$, 0, ETT$$, ON_SIZE);

  16057 19 010314   200042 630500                    EPPR0   ON_SIZE,,AUTO
        19 010315   200106 450500                    STP0    ROPCON+6,,AUTO
        19 010316   200032 631500                    EPPR1   ETT$$,,AUTO
        19 010317   200105 451500                    STP1    ROPCON+5,,AUTO
        19 010320   000007 236000 20                 LDQ     7
        19 010321   200104 756100                    STQ     ROPCON+4,,AUTO
        19 010322   200032 633500                    EPPR3   ETT$$,,AUTO
        19 010323   200103 453500                    STP3    ROPCON+3,,AUTO
        19 010324   000117 236000 20                 LDQ     79
        19 010325   200102 756100                    STQ     ROPCON+2,,AUTO
        19 010326   200102 630500                    EPPR0   ROPCON+2,,AUTO
        19 010327   000003 631400 20                 EPPR1   3
        19 010330   000000 701000 xent               TSX1    Z8AF$FORME_ON_SIZE
        19 010331   000000 011000                    NOP     0
        19 010332   013077 710000 19                 TRA     s:16356

      775    16058
      776    16059    3              CASE (%TYJ);

      777    16060    3                CALL Z8AF$FORME_ON_SIZE(%CVJI, ETT$$, 0, ETT$$, ON_SIZE);

  16060 19 010333   200042 634500                    EPPR4   ON_SIZE,,AUTO
        19 010334   200106 454500                    STP4    ROPCON+6,,AUTO
        19 010335   200032 635500                    EPPR5   ETT$$,,AUTO
        19 010336   200105 455500                    STP5    ROPCON+5,,AUTO
        19 010337   000007 236000 20                 LDQ     7
        19 010340   200104 756100                    STQ     ROPCON+4,,AUTO
PL6.E3A0      #001=Z8EV$CONVERT_ROUND_ON_SIZE File=Z8EV.:Z8A6TSI                 SAT 08/09/97 12:49 Page:204
        19 010341   200032 636500                    EPPR6   ETT$$,,AUTO
        19 010342   200103 456500                    STP6    ROPCON+3,,AUTO
        19 010343   000027 236000 20                 LDQ     23
        19 010344   200102 756100                    STQ     ROPCON+2,,AUTO
        19 010345   200102 630500                    EPPR0   ROPCON+2,,AUTO
        19 010346   000003 631400 20                 EPPR1   3
        19 010347   000000 701000 xent               TSX1    Z8AF$FORME_ON_SIZE
        19 010350   000000 011000                    NOP     0

      778    16061    3                CALL Z8AF$FORME_ON_SIZE(%CVIK, ETT$$, 0, ETT$$, ON_SIZE);

  16061 19 010351   200042 630500                    EPPR0   ON_SIZE,,AUTO
        19 010352   200106 450500                    STP0    ROPCON+6,,AUTO
        19 010353   200032 631500                    EPPR1   ETT$$,,AUTO
        19 010354   200105 451500                    STP1    ROPCON+5,,AUTO
        19 010355   000007 236000 20                 LDQ     7
        19 010356   200104 756100                    STQ     ROPCON+4,,AUTO
        19 010357   200032 633500                    EPPR3   ETT$$,,AUTO
        19 010360   200103 453500                    STP3    ROPCON+3,,AUTO
        19 010361   000117 236000 20                 LDQ     79
        19 010362   200102 756100                    STQ     ROPCON+2,,AUTO
        19 010363   200102 630500                    EPPR0   ROPCON+2,,AUTO
        19 010364   000003 631400 20                 EPPR1   3
        19 010365   000000 701000 xent               TSX1    Z8AF$FORME_ON_SIZE
        19 010366   000000 011000                    NOP     0
        19 010367   013077 710000 19                 TRA     s:16356

      779    16062
      780    16063    3              CASE (%TYK);

      781    16064
      782    16065    3              CASE (%TYO, %TYF); /* Convert overpunched or EBCDIC numeric to 32 bit */

      783    16066    3                CALL Z8AF$FORME_ON_SIZE(%CVOD4, ETT$$, 0, ETT$$, ON_SIZE);

  16066 19 010370   200042 634500                    EPPR4   ON_SIZE,,AUTO
        19 010371   200106 454500                    STP4    ROPCON+6,,AUTO
PL6.E3A0      #001=Z8EV$CONVERT_ROUND_ON_SIZE File=Z8EV.:Z8A6TSI                 SAT 08/09/97 12:49 Page:205
        19 010372   200032 635500                    EPPR5   ETT$$,,AUTO
        19 010373   200105 455500                    STP5    ROPCON+5,,AUTO
        19 010374   000007 236000 20                 LDQ     7
        19 010375   200104 756100                    STQ     ROPCON+4,,AUTO
        19 010376   200032 636500                    EPPR6   ETT$$,,AUTO
        19 010377   200103 456500                    STP6    ROPCON+3,,AUTO
        19 010400   000035 236000 20                 LDQ     29
        19 010401   200102 756100                    STQ     ROPCON+2,,AUTO
        19 010402   200102 630500                    EPPR0   ROPCON+2,,AUTO
        19 010403   000003 631400 20                 EPPR1   3
        19 010404   000000 701000 xent               TSX1    Z8AF$FORME_ON_SIZE
        19 010405   000000 011000                    NOP     0

      784    16067    3                CALL Z8AF$FORME_ON_SIZE(%CVDSF, ETT$$, 0, ETT$$, ON_SIZE);

  16067 19 010406   200042 630500                    EPPR0   ON_SIZE,,AUTO
        19 010407   200106 450500                    STP0    ROPCON+6,,AUTO
        19 010410   200032 631500                    EPPR1   ETT$$,,AUTO
        19 010411   200105 451500                    STP1    ROPCON+5,,AUTO
        19 010412   000007 236000 20                 LDQ     7
        19 010413   200104 756100                    STQ     ROPCON+4,,AUTO
        19 010414   200032 633500                    EPPR3   ETT$$,,AUTO
        19 010415   200103 453500                    STP3    ROPCON+3,,AUTO
        19 010416   000103 236000 20                 LDQ     67
        19 010417   200102 756100                    STQ     ROPCON+2,,AUTO
        19 010420   200102 630500                    EPPR0   ROPCON+2,,AUTO
        19 010421   000003 631400 20                 EPPR1   3
        19 010422   000000 701000 xent               TSX1    Z8AF$FORME_ON_SIZE
        19 010423   000000 011000                    NOP     0

      785    16068    3                CALL Z8AF$FORME_ON_SIZE(%CVDI, ETT$$, 0, ETT$$, ON_SIZE);

  16068 19 010424   200042 630500                    EPPR0   ON_SIZE,,AUTO
        19 010425   200106 450500                    STP0    ROPCON+6,,AUTO
        19 010426   200032 631500                    EPPR1   ETT$$,,AUTO
        19 010427   200105 451500                    STP1    ROPCON+5,,AUTO
        19 010430   000007 236000 20                 LDQ     7
PL6.E3A0      #001=Z8EV$CONVERT_ROUND_ON_SIZE File=Z8EV.:Z8A6TSI                 SAT 08/09/97 12:49 Page:206
        19 010431   200104 756100                    STQ     ROPCON+4,,AUTO
        19 010432   200032 633500                    EPPR3   ETT$$,,AUTO
        19 010433   200103 453500                    STP3    ROPCON+3,,AUTO
        19 010434   000105 236000 20                 LDQ     69
        19 010435   200102 756100                    STQ     ROPCON+2,,AUTO
        19 010436   200102 630500                    EPPR0   ROPCON+2,,AUTO
        19 010437   000003 631400 20                 EPPR1   3
        19 010440   000000 701000 xent               TSX1    Z8AF$FORME_ON_SIZE
        19 010441   000000 011000                    NOP     0

      786    16069    3                CALL Z8AF$FORME_ON_SIZE(%CVIK, ETT$$, 0, ETT$$, ON_SIZE);

  16069 19 010442   200042 630500                    EPPR0   ON_SIZE,,AUTO
        19 010443   200106 450500                    STP0    ROPCON+6,,AUTO
        19 010444   200032 631500                    EPPR1   ETT$$,,AUTO
        19 010445   200105 451500                    STP1    ROPCON+5,,AUTO
        19 010446   000007 236000 20                 LDQ     7
        19 010447   200104 756100                    STQ     ROPCON+4,,AUTO
        19 010450   200032 633500                    EPPR3   ETT$$,,AUTO
        19 010451   200103 453500                    STP3    ROPCON+3,,AUTO
        19 010452   000117 236000 20                 LDQ     79
        19 010453   200102 756100                    STQ     ROPCON+2,,AUTO
        19 010454   200102 630500                    EPPR0   ROPCON+2,,AUTO
        19 010455   000003 631400 20                 EPPR1   3
        19 010456   000000 701000 xent               TSX1    Z8AF$FORME_ON_SIZE
        19 010457   000000 011000                    NOP     0
        19 010460   013077 710000 19                 TRA     s:16356

      787    16070
      788    16071    3              CASE (%TYQ);

      789    16072    3                CALL Z8AF$FORME_ON_SIZE(%CVQI, ETT$$, 0, ETT$$, ON_SIZE);

  16072 19 010461   200042 634500                    EPPR4   ON_SIZE,,AUTO
        19 010462   200106 454500                    STP4    ROPCON+6,,AUTO
        19 010463   200032 635500                    EPPR5   ETT$$,,AUTO
        19 010464   200105 455500                    STP5    ROPCON+5,,AUTO
PL6.E3A0      #001=Z8EV$CONVERT_ROUND_ON_SIZE File=Z8EV.:Z8A6TSI                 SAT 08/09/97 12:49 Page:207
        19 010465   000007 236000 20                 LDQ     7
        19 010466   200104 756100                    STQ     ROPCON+4,,AUTO
        19 010467   200032 636500                    EPPR6   ETT$$,,AUTO
        19 010470   200103 456500                    STP6    ROPCON+3,,AUTO
        19 010471   000037 236000 20                 LDQ     31
        19 010472   200102 756100                    STQ     ROPCON+2,,AUTO
        19 010473   200102 630500                    EPPR0   ROPCON+2,,AUTO
        19 010474   000003 631400 20                 EPPR1   3
        19 010475   000000 701000 xent               TSX1    Z8AF$FORME_ON_SIZE
        19 010476   000000 011000                    NOP     0

      790    16073    3                CALL Z8AF$FORME_ON_SIZE(%CVIK, ETT$$, 0, ETT$$, ON_SIZE);

  16073 19 010477   200042 630500                    EPPR0   ON_SIZE,,AUTO
        19 010500   200106 450500                    STP0    ROPCON+6,,AUTO
        19 010501   200032 631500                    EPPR1   ETT$$,,AUTO
        19 010502   200105 451500                    STP1    ROPCON+5,,AUTO
        19 010503   000007 236000 20                 LDQ     7
        19 010504   200104 756100                    STQ     ROPCON+4,,AUTO
        19 010505   200032 633500                    EPPR3   ETT$$,,AUTO
        19 010506   200103 453500                    STP3    ROPCON+3,,AUTO
        19 010507   000117 236000 20                 LDQ     79
        19 010510   200102 756100                    STQ     ROPCON+2,,AUTO
        19 010511   200102 630500                    EPPR0   ROPCON+2,,AUTO
        19 010512   000003 631400 20                 EPPR1   3
        19 010513   000000 701000 xent               TSX1    Z8AF$FORME_ON_SIZE
        19 010514   000000 011000                    NOP     0
        19 010515   013077 710000 19                 TRA     s:16356

      791    16074
      792    16075    3              CASE (%TYR);

      793    16076    3                CALL Z8AF$FORME_ON_SIZE(%CVRI, ETT$$, 0, ETT$$, ON_SIZE);

  16076 19 010516   200042 634500                    EPPR4   ON_SIZE,,AUTO
        19 010517   200106 454500                    STP4    ROPCON+6,,AUTO
        19 010520   200032 635500                    EPPR5   ETT$$,,AUTO
PL6.E3A0      #001=Z8EV$CONVERT_ROUND_ON_SIZE File=Z8EV.:Z8A6TSI                 SAT 08/09/97 12:49 Page:208
        19 010521   200105 455500                    STP5    ROPCON+5,,AUTO
        19 010522   000007 236000 20                 LDQ     7
        19 010523   200104 756100                    STQ     ROPCON+4,,AUTO
        19 010524   200032 636500                    EPPR6   ETT$$,,AUTO
        19 010525   200103 456500                    STP6    ROPCON+3,,AUTO
        19 010526   000041 236000 20                 LDQ     33
        19 010527   200102 756100                    STQ     ROPCON+2,,AUTO
        19 010530   200102 630500                    EPPR0   ROPCON+2,,AUTO
        19 010531   000003 631400 20                 EPPR1   3
        19 010532   000000 701000 xent               TSX1    Z8AF$FORME_ON_SIZE
        19 010533   000000 011000                    NOP     0

      794    16077    3                CALL Z8AF$FORME_ON_SIZE(%CVIK, ETT$$, 0, ETT$$, ON_SIZE);

  16077 19 010534   200042 630500                    EPPR0   ON_SIZE,,AUTO
        19 010535   200106 450500                    STP0    ROPCON+6,,AUTO
        19 010536   200032 631500                    EPPR1   ETT$$,,AUTO
        19 010537   200105 451500                    STP1    ROPCON+5,,AUTO
        19 010540   000007 236000 20                 LDQ     7
        19 010541   200104 756100                    STQ     ROPCON+4,,AUTO
        19 010542   200032 633500                    EPPR3   ETT$$,,AUTO
        19 010543   200103 453500                    STP3    ROPCON+3,,AUTO
        19 010544   000117 236000 20                 LDQ     79
        19 010545   200102 756100                    STQ     ROPCON+2,,AUTO
        19 010546   200102 630500                    EPPR0   ROPCON+2,,AUTO
        19 010547   000003 631400 20                 EPPR1   3
        19 010550   000000 701000 xent               TSX1    Z8AF$FORME_ON_SIZE
        19 010551   000000 011000                    NOP     0
        19 010552   013077 710000 19                 TRA     s:16356

      795    16078
      796    16079    3              CASE (%TYA);

      797    16080    3                CALL Z8AF$FORME_ON_SIZE(%DAN, ETT$$, 0, ETT$$, ON_SIZE);

  16080 19 010553   200042 634500                    EPPR4   ON_SIZE,,AUTO
        19 010554   200106 454500                    STP4    ROPCON+6,,AUTO
PL6.E3A0      #001=Z8EV$CONVERT_ROUND_ON_SIZE File=Z8EV.:Z8A6TSI                 SAT 08/09/97 12:49 Page:209
        19 010555   200032 635500                    EPPR5   ETT$$,,AUTO
        19 010556   200105 455500                    STP5    ROPCON+5,,AUTO
        19 010557   000007 236000 20                 LDQ     7
        19 010560   200104 756100                    STQ     ROPCON+4,,AUTO
        19 010561   200032 636500                    EPPR6   ETT$$,,AUTO
        19 010562   200103 456500                    STP6    ROPCON+3,,AUTO
        19 010563   000047 236000 20                 LDQ     39
        19 010564   200102 756100                    STQ     ROPCON+2,,AUTO
        19 010565   200102 630500                    EPPR0   ROPCON+2,,AUTO
        19 010566   000003 631400 20                 EPPR1   3
        19 010567   000000 701000 xent               TSX1    Z8AF$FORME_ON_SIZE
        19 010570   000000 011000                    NOP     0

      798    16081    3                CALL Z8AF$FORME_ON_SIZE(%CVDI, ETT$$, 0, ETT$$, ON_SIZE);

  16081 19 010571   200042 630500                    EPPR0   ON_SIZE,,AUTO
        19 010572   200106 450500                    STP0    ROPCON+6,,AUTO
        19 010573   200032 631500                    EPPR1   ETT$$,,AUTO
        19 010574   200105 451500                    STP1    ROPCON+5,,AUTO
        19 010575   000007 236000 20                 LDQ     7
        19 010576   200104 756100                    STQ     ROPCON+4,,AUTO
        19 010577   200032 633500                    EPPR3   ETT$$,,AUTO
        19 010600   200103 453500                    STP3    ROPCON+3,,AUTO
        19 010601   000105 236000 20                 LDQ     69
        19 010602   200102 756100                    STQ     ROPCON+2,,AUTO
        19 010603   200102 630500                    EPPR0   ROPCON+2,,AUTO
        19 010604   000003 631400 20                 EPPR1   3
        19 010605   000000 701000 xent               TSX1    Z8AF$FORME_ON_SIZE
        19 010606   000000 011000                    NOP     0

      799    16082    3                CALL Z8AF$FORME_ON_SIZE(%CVIK, ETT$$, 0, ETT$$, ON_SIZE);

  16082 19 010607   200042 630500                    EPPR0   ON_SIZE,,AUTO
        19 010610   200106 450500                    STP0    ROPCON+6,,AUTO
        19 010611   200032 631500                    EPPR1   ETT$$,,AUTO
        19 010612   200105 451500                    STP1    ROPCON+5,,AUTO
        19 010613   000007 236000 20                 LDQ     7
PL6.E3A0      #001=Z8EV$CONVERT_ROUND_ON_SIZE File=Z8EV.:Z8A6TSI                 SAT 08/09/97 12:49 Page:210
        19 010614   200104 756100                    STQ     ROPCON+4,,AUTO
        19 010615   200032 633500                    EPPR3   ETT$$,,AUTO
        19 010616   200103 453500                    STP3    ROPCON+3,,AUTO
        19 010617   000117 236000 20                 LDQ     79
        19 010620   200102 756100                    STQ     ROPCON+2,,AUTO
        19 010621   200102 630500                    EPPR0   ROPCON+2,,AUTO
        19 010622   000003 631400 20                 EPPR1   3
        19 010623   000000 701000 xent               TSX1    Z8AF$FORME_ON_SIZE
        19 010624   000000 011000                    NOP     0
        19 010625   013077 710000 19                 TRA     s:16356

      800    16083
      801    16084    3              CASE (%TYE); /* Convert EBCDIC to 32 bit */

      802    16085    3                CALL Z8CO$CREATE_LIBRARY_BASE(%OP_EBCDIC_TO_ASCII, TABLE_ETT$);

  16085 19 010626   200033 634500                    EPPR4   TABLE_ETT$,,AUTO
        19 010627   200103 454500                    STP4    ROPCON+3,,AUTO
        19 010630   000043 236000 20                 LDQ     35
        19 010631   200102 756100                    STQ     ROPCON+2,,AUTO
        19 010632   200102 630500                    EPPR0   ROPCON+2,,AUTO
        19 010633   000000 631400 20                 EPPR1   0
        19 010634   000000 701000 xent               TSX1    Z8CO$CREATE_LIBRARY_BASE
        19 010635   000000 011000                    NOP     0

      803    16086    3                CALL Z8AF$FORME_ON_SIZE(%CVT, ETT$$, TABLE_ETT$, ETT$$, ON_SIZE);

  16086 19 010636   200042 630500                    EPPR0   ON_SIZE,,AUTO
        19 010637   200106 450500                    STP0    ROPCON+6,,AUTO
        19 010640   200032 631500                    EPPR1   ETT$$,,AUTO
        19 010641   200105 451500                    STP1    ROPCON+5,,AUTO
        19 010642   200033 633500                    EPPR3   TABLE_ETT$,,AUTO
        19 010643   200104 453500                    STP3    ROPCON+4,,AUTO
        19 010644   200032 634500                    EPPR4   ETT$$,,AUTO
        19 010645   200103 454500                    STP4    ROPCON+3,,AUTO
        19 010646   000023 236000 20                 LDQ     19
        19 010647   200102 756100                    STQ     ROPCON+2,,AUTO
PL6.E3A0      #001=Z8EV$CONVERT_ROUND_ON_SIZE File=Z8EV.:Z8A6TSI                 SAT 08/09/97 12:49 Page:211
        19 010650   200102 630500                    EPPR0   ROPCON+2,,AUTO
        19 010651   000003 631400 20                 EPPR1   3
        19 010652   000000 701000 xent               TSX1    Z8AF$FORME_ON_SIZE
        19 010653   000000 011000                    NOP     0

      804    16087    3                CALL Z8AF$FORME_ON_SIZE(%DAN, ETT$$, 0, ETT$$, ON_SIZE);

  16087 19 010654   200042 630500                    EPPR0   ON_SIZE,,AUTO
        19 010655   200106 450500                    STP0    ROPCON+6,,AUTO
        19 010656   200032 631500                    EPPR1   ETT$$,,AUTO
        19 010657   200105 451500                    STP1    ROPCON+5,,AUTO
        19 010660   000007 236000 20                 LDQ     7
        19 010661   200104 756100                    STQ     ROPCON+4,,AUTO
        19 010662   200032 633500                    EPPR3   ETT$$,,AUTO
        19 010663   200103 453500                    STP3    ROPCON+3,,AUTO
        19 010664   000047 236000 20                 LDQ     39
        19 010665   200102 756100                    STQ     ROPCON+2,,AUTO
        19 010666   200102 630500                    EPPR0   ROPCON+2,,AUTO
        19 010667   000003 631400 20                 EPPR1   3
        19 010670   000000 701000 xent               TSX1    Z8AF$FORME_ON_SIZE
        19 010671   000000 011000                    NOP     0

      805    16088    3                CALL Z8AF$FORME_ON_SIZE(%CVDI, ETT$$, 0, ETT$$, ON_SIZE);

  16088 19 010672   200042 630500                    EPPR0   ON_SIZE,,AUTO
        19 010673   200106 450500                    STP0    ROPCON+6,,AUTO
        19 010674   200032 631500                    EPPR1   ETT$$,,AUTO
        19 010675   200105 451500                    STP1    ROPCON+5,,AUTO
        19 010676   000007 236000 20                 LDQ     7
        19 010677   200104 756100                    STQ     ROPCON+4,,AUTO
        19 010700   200032 633500                    EPPR3   ETT$$,,AUTO
        19 010701   200103 453500                    STP3    ROPCON+3,,AUTO
        19 010702   000105 236000 20                 LDQ     69
        19 010703   200102 756100                    STQ     ROPCON+2,,AUTO
        19 010704   200102 630500                    EPPR0   ROPCON+2,,AUTO
        19 010705   000003 631400 20                 EPPR1   3
        19 010706   000000 701000 xent               TSX1    Z8AF$FORME_ON_SIZE
PL6.E3A0      #001=Z8EV$CONVERT_ROUND_ON_SIZE File=Z8EV.:Z8A6TSI                 SAT 08/09/97 12:49 Page:212
        19 010707   000000 011000                    NOP     0

      806    16089    3                CALL Z8AF$FORME_ON_SIZE(%CVIK, ETT$$, 0, ETT$$, ON_SIZE);

  16089 19 010710   200042 630500                    EPPR0   ON_SIZE,,AUTO
        19 010711   200106 450500                    STP0    ROPCON+6,,AUTO
        19 010712   200032 631500                    EPPR1   ETT$$,,AUTO
        19 010713   200105 451500                    STP1    ROPCON+5,,AUTO
        19 010714   000007 236000 20                 LDQ     7
        19 010715   200104 756100                    STQ     ROPCON+4,,AUTO
        19 010716   200032 633500                    EPPR3   ETT$$,,AUTO
        19 010717   200103 453500                    STP3    ROPCON+3,,AUTO
        19 010720   000117 236000 20                 LDQ     79
        19 010721   200102 756100                    STQ     ROPCON+2,,AUTO
        19 010722   200102 630500                    EPPR0   ROPCON+2,,AUTO
        19 010723   000003 631400 20                 EPPR1   3
        19 010724   000000 701000 xent               TSX1    Z8AF$FORME_ON_SIZE
        19 010725   000000 011000                    NOP     0
        19 010726   013077 710000 19                 TRA     s:16356

      807    16090
      808    16091    3              CASE (%TYB); /* Convert GBCD to 32 bit */

      809    16092    3                CALL Z8CO$CREATE_LIBRARY_BASE(%OP_GBCD_TO_ASCII, TABLE_ETT$);

  16092 19 010727   200033 634500                    EPPR4   TABLE_ETT$,,AUTO
        19 010730   200103 454500                    STP4    ROPCON+3,,AUTO
        19 010731   000021 236000 20                 LDQ     17
        19 010732   200102 756100                    STQ     ROPCON+2,,AUTO
        19 010733   200102 630500                    EPPR0   ROPCON+2,,AUTO
        19 010734   000000 631400 20                 EPPR1   0
        19 010735   000000 701000 xent               TSX1    Z8CO$CREATE_LIBRARY_BASE
        19 010736   000000 011000                    NOP     0

      810    16093    3                CALL Z8AF$FORME_ON_SIZE(%CVT, ETT$$, TABLE_ETT$, ETT$$, ON_SIZE);

  16093 19 010737   200042 630500                    EPPR0   ON_SIZE,,AUTO
PL6.E3A0      #001=Z8EV$CONVERT_ROUND_ON_SIZE File=Z8EV.:Z8A6TSI                 SAT 08/09/97 12:49 Page:213
        19 010740   200106 450500                    STP0    ROPCON+6,,AUTO
        19 010741   200032 631500                    EPPR1   ETT$$,,AUTO
        19 010742   200105 451500                    STP1    ROPCON+5,,AUTO
        19 010743   200033 633500                    EPPR3   TABLE_ETT$,,AUTO
        19 010744   200104 453500                    STP3    ROPCON+4,,AUTO
        19 010745   200032 634500                    EPPR4   ETT$$,,AUTO
        19 010746   200103 454500                    STP4    ROPCON+3,,AUTO
        19 010747   000023 236000 20                 LDQ     19
        19 010750   200102 756100                    STQ     ROPCON+2,,AUTO
        19 010751   200102 630500                    EPPR0   ROPCON+2,,AUTO
        19 010752   000003 631400 20                 EPPR1   3
        19 010753   000000 701000 xent               TSX1    Z8AF$FORME_ON_SIZE
        19 010754   000000 011000                    NOP     0

      811    16094    3                CALL Z8AF$FORME_ON_SIZE(%DAN, ETT$$, 0, ETT$$, ON_SIZE);

  16094 19 010755   200042 630500                    EPPR0   ON_SIZE,,AUTO
        19 010756   200106 450500                    STP0    ROPCON+6,,AUTO
        19 010757   200032 631500                    EPPR1   ETT$$,,AUTO
        19 010760   200105 451500                    STP1    ROPCON+5,,AUTO
        19 010761   000007 236000 20                 LDQ     7
        19 010762   200104 756100                    STQ     ROPCON+4,,AUTO
        19 010763   200032 633500                    EPPR3   ETT$$,,AUTO
        19 010764   200103 453500                    STP3    ROPCON+3,,AUTO
        19 010765   000047 236000 20                 LDQ     39
        19 010766   200102 756100                    STQ     ROPCON+2,,AUTO
        19 010767   200102 630500                    EPPR0   ROPCON+2,,AUTO
        19 010770   000003 631400 20                 EPPR1   3
        19 010771   000000 701000 xent               TSX1    Z8AF$FORME_ON_SIZE
        19 010772   000000 011000                    NOP     0

      812    16095    3                CALL Z8AF$FORME_ON_SIZE(%CVDI, ETT$$, 0, ETT$$, ON_SIZE);

  16095 19 010773   200042 630500                    EPPR0   ON_SIZE,,AUTO
        19 010774   200106 450500                    STP0    ROPCON+6,,AUTO
        19 010775   200032 631500                    EPPR1   ETT$$,,AUTO
        19 010776   200105 451500                    STP1    ROPCON+5,,AUTO
PL6.E3A0      #001=Z8EV$CONVERT_ROUND_ON_SIZE File=Z8EV.:Z8A6TSI                 SAT 08/09/97 12:49 Page:214
        19 010777   000007 236000 20                 LDQ     7
        19 011000   200104 756100                    STQ     ROPCON+4,,AUTO
        19 011001   200032 633500                    EPPR3   ETT$$,,AUTO
        19 011002   200103 453500                    STP3    ROPCON+3,,AUTO
        19 011003   000105 236000 20                 LDQ     69
        19 011004   200102 756100                    STQ     ROPCON+2,,AUTO
        19 011005   200102 630500                    EPPR0   ROPCON+2,,AUTO
        19 011006   000003 631400 20                 EPPR1   3
        19 011007   000000 701000 xent               TSX1    Z8AF$FORME_ON_SIZE
        19 011010   000000 011000                    NOP     0

      813    16096    3                CALL Z8AF$FORME_ON_SIZE(%CVIK, ETT$$, 0, ETT$$, ON_SIZE);

  16096 19 011011   200042 630500                    EPPR0   ON_SIZE,,AUTO
        19 011012   200106 450500                    STP0    ROPCON+6,,AUTO
        19 011013   200032 631500                    EPPR1   ETT$$,,AUTO
        19 011014   200105 451500                    STP1    ROPCON+5,,AUTO
        19 011015   000007 236000 20                 LDQ     7
        19 011016   200104 756100                    STQ     ROPCON+4,,AUTO
        19 011017   200032 633500                    EPPR3   ETT$$,,AUTO
        19 011020   200103 453500                    STP3    ROPCON+3,,AUTO
        19 011021   000117 236000 20                 LDQ     79
        19 011022   200102 756100                    STQ     ROPCON+2,,AUTO
        19 011023   200102 630500                    EPPR0   ROPCON+2,,AUTO
        19 011024   000003 631400 20                 EPPR1   3
        19 011025   000000 701000 xent               TSX1    Z8AF$FORME_ON_SIZE
        19 011026   000000 011000                    NOP     0
        19 011027   013077 710000 19                 TRA     s:16356

      814    16097
      815    16098    3              CASE (%TYX, %TYY);

      816    16099    3                CALL Z8AE$ERROR (%E$UNEXPECTED_CASE,

  16099 19 011030   200034 236100                    LDQ     FROM$,,AUTO
        19 011031   000006 036003                    ADLQ    6,DU
        19 011032   200104 756100                    STQ     ROPCON+4,,AUTO
PL6.E3A0      #001=Z8EV$CONVERT_ROUND_ON_SIZE File=Z8EV.:Z8A6TSI                 SAT 08/09/97 12:49 Page:215
        19 011033   200034 236100                    LDQ     FROM$,,AUTO
        19 011034   000005 036003                    ADLQ    5,DU
        19 011035   000017 235000 20                 LDA     15
        19 011036   200102 757100                    STAQ    ROPCON+2,,AUTO
        19 011037   200102 630500                    EPPR0   ROPCON+2,,AUTO
        19 011040   000013 631400 20                 EPPR1   11
        19 011041   000000 701000 xent               TSX1    Z8AE$ERROR
        19 011042   000000 011000                    NOP     0
        19 011043   013077 710000 19                 TRA     s:16356

      817    16100    3                                 FROM$ -> LX_ETT_ITEM.LINE,
      818    16101    3                                 FROM$ -> LX_ETT_ITEM.COLUMN);
      819    16102
      820    16103    3              CASE(%TYT);

      821    16104    3                CALL Z8EC$CREATE_CONST(%TYK, FROM$, ETT$$)

  16104 19 011044   200032 634500                    EPPR4   ETT$$,,AUTO
        19 011045   200104 454500                    STP4    ROPCON+4,,AUTO
        19 011046   200034 635500                    EPPR5   FROM$,,AUTO
        19 011047   200103 455500                    STP5    ROPCON+3,,AUTO
        19 011050   000121 236000 20                 LDQ     81
        19 011051   200102 756100                    STQ     ROPCON+2,,AUTO
        19 011052   200102 630500                    EPPR0   ROPCON+2,,AUTO
        19 011053   000013 631400 20                 EPPR1   11
        19 011054   000000 701000 xent               TSX1    Z8EC$CREATE_CONST
        19 011055   011057 702000 19                 TSX2    s:16120
        19 011056   011076 710000 19                 TRA     s:16142

      822    16105    3                  WHENALTRETURN
      823    16106    4                    DO;

      824    16107                           %CONDITIONAL_ERROR (@LX_ITEM$ = FROM$,
      825    16108                                               @ERROR#   = %E$TRUNCATION_WARN,
      826    16109                                               @LINE     = FROM$ -> LX_ITEM.LINE,
      827    16110                                               @COLUMN   = FROM$ -> LX_ITEM.COLUMN);

PL6.E3A0      #001=Z8EV$CONVERT_ROUND_ON_SIZE File=Z8EV.:Z8A6TSI                 SAT 08/09/97 12:49 Page:216
  16120 19 011057   200034 470500                    LDP0    FROM$,,AUTO
        19 011060   000000 236100                    LDQ     0,,PR0
        19 011061   400000 316007                    CANQ    -131072,DL
        19 011062   011076 601000 19                 TNZ     s:16142

  16122 19 011063   200034 236100                    LDQ     FROM$,,AUTO
        19 011064   000006 036003                    ADLQ    6,DU
        19 011065   200104 756100                    STQ     ROPCON+4,,AUTO
        19 011066   200034 236100                    LDQ     FROM$,,AUTO
        19 011067   000005 036003                    ADLQ    5,DU
        19 011070   000107 235000 20                 LDA     71
        19 011071   200102 757100                    STAQ    ROPCON+2,,AUTO
        19 011072   200102 630500                    EPPR0   ROPCON+2,,AUTO
        19 011073   000013 631400 20                 EPPR1   11
        19 011074   000000 701000 xent               TSX1    Z8AE$ERROR
        19 011075   000000 011000                    NOP     0

      828    16140    4                    END;

      829    16141
      830    16142    3            END;  /* CASE (%TYK) */

  16142 19 011076   013077 710000 19                 TRA     s:16356

      831    16143        %EJECT;
PL6.E3A0      #001=Z8EV$CONVERT_ROUND_ON_SIZE File=Z8EV.:Z8A6TSI                 SAT 08/09/97 12:49 Page:217
      832    16144    2          CASE (%TYR);

      833    16145    3            DO CASE(FROM$ -> LX_ITEM.TYPE);

  16145 19 011077   200034 473500                    LDP3    FROM$,,AUTO
        19 011100   300004 235100                    LDA     4,,PR3
        19 011101   000020 115007                    CMPA    16,DL
        19 011102   011104 602005 19                 TNC     s:16145+5,AL
        19 011103   013077 710000 19                 TRA     s:16356
        19 011104   011124 710000 19                 TRA     s:16147
        19 011105   011143 710000 19                 TRA     s:16150
        19 011106   011162 710000 19                 TRA     s:16153
        19 011107   011311 710000 19                 TRA     s:16165
        19 011110   011636 710000 19                 TRA     s:16231
        19 011111   011346 710000 19                 TRA     s:16169
        19 011112   011422 710000 19                 TRA     s:16176
        19 011113   011254 710000 19                 TRA     s:16161
        19 011114   011365 710000 19                 TRA     s:16172
        19 011115   011570 710000 19                 TRA     s:16188
        19 011116   011570 710000 19                 TRA     s:16188
        19 011117   011311 710000 19                 TRA     s:16165
        19 011120   011505 710000 19                 TRA     s:16182
        19 011121   011604 710000 19                 TRA     s:16193
        19 011122   011636 710000 19                 TRA     s:16231
        19 011123   011217 710000 19                 TRA     s:16157

      834    16146    3              CASE (%TYD);

      835    16147    3                CALL Z8AF$FORME_ON_SIZE(%CVDRR, ETT$$, 0, ETT$$, ON_SIZE);

  16147 19 011124   200042 634500                    EPPR4   ON_SIZE,,AUTO
        19 011125   200106 454500                    STP4    ROPCON+6,,AUTO
        19 011126   200032 635500                    EPPR5   ETT$$,,AUTO
        19 011127   200105 455500                    STP5    ROPCON+5,,AUTO
        19 011130   000007 236000 20                 LDQ     7
        19 011131   200104 756100                    STQ     ROPCON+4,,AUTO
        19 011132   200032 636500                    EPPR6   ETT$$,,AUTO
PL6.E3A0      #001=Z8EV$CONVERT_ROUND_ON_SIZE File=Z8EV.:Z8A6TSI                 SAT 08/09/97 12:49 Page:218
        19 011133   200103 456500                    STP6    ROPCON+3,,AUTO
        19 011134   000123 236000 20                 LDQ     83
        19 011135   200102 756100                    STQ     ROPCON+2,,AUTO
        19 011136   200102 630500                    EPPR0   ROPCON+2,,AUTO
        19 011137   000003 631400 20                 EPPR1   3
        19 011140   000000 701000 xent               TSX1    Z8AF$FORME_ON_SIZE
        19 011141   000000 011000                    NOP     0
        19 011142   013077 710000 19                 TRA     s:16356

      836    16148
      837    16149    3              CASE (%TYI);

      838    16150    3                CALL Z8AF$FORME_ON_SIZE(%CVIR, ETT$$, 0, ETT$$, ON_SIZE);

  16150 19 011143   200042 634500                    EPPR4   ON_SIZE,,AUTO
        19 011144   200106 454500                    STP4    ROPCON+6,,AUTO
        19 011145   200032 635500                    EPPR5   ETT$$,,AUTO
        19 011146   200105 455500                    STP5    ROPCON+5,,AUTO
        19 011147   000007 236000 20                 LDQ     7
        19 011150   200104 756100                    STQ     ROPCON+4,,AUTO
        19 011151   200032 636500                    EPPR6   ETT$$,,AUTO
        19 011152   200103 456500                    STP6    ROPCON+3,,AUTO
        19 011153   000125 236000 20                 LDQ     85
        19 011154   200102 756100                    STQ     ROPCON+2,,AUTO
        19 011155   200102 630500                    EPPR0   ROPCON+2,,AUTO
        19 011156   000003 631400 20                 EPPR1   3
        19 011157   000000 701000 xent               TSX1    Z8AF$FORME_ON_SIZE
        19 011160   000000 011000                    NOP     0
        19 011161   013077 710000 19                 TRA     s:16356

      839    16151
      840    16152    3              CASE (%TYJ);

      841    16153    3                CALL Z8AF$FORME_ON_SIZE(%CVJI, ETT$$, 0, ETT$$, ON_SIZE);

  16153 19 011162   200042 634500                    EPPR4   ON_SIZE,,AUTO
        19 011163   200106 454500                    STP4    ROPCON+6,,AUTO
PL6.E3A0      #001=Z8EV$CONVERT_ROUND_ON_SIZE File=Z8EV.:Z8A6TSI                 SAT 08/09/97 12:49 Page:219
        19 011164   200032 635500                    EPPR5   ETT$$,,AUTO
        19 011165   200105 455500                    STP5    ROPCON+5,,AUTO
        19 011166   000007 236000 20                 LDQ     7
        19 011167   200104 756100                    STQ     ROPCON+4,,AUTO
        19 011170   200032 636500                    EPPR6   ETT$$,,AUTO
        19 011171   200103 456500                    STP6    ROPCON+3,,AUTO
        19 011172   000027 236000 20                 LDQ     23
        19 011173   200102 756100                    STQ     ROPCON+2,,AUTO
        19 011174   200102 630500                    EPPR0   ROPCON+2,,AUTO
        19 011175   000003 631400 20                 EPPR1   3
        19 011176   000000 701000 xent               TSX1    Z8AF$FORME_ON_SIZE
        19 011177   000000 011000                    NOP     0

      842    16154    3                CALL Z8AF$FORME_ON_SIZE(%CVIR, ETT$$, 0, ETT$$, ON_SIZE);

  16154 19 011200   200042 630500                    EPPR0   ON_SIZE,,AUTO
        19 011201   200106 450500                    STP0    ROPCON+6,,AUTO
        19 011202   200032 631500                    EPPR1   ETT$$,,AUTO
        19 011203   200105 451500                    STP1    ROPCON+5,,AUTO
        19 011204   000007 236000 20                 LDQ     7
        19 011205   200104 756100                    STQ     ROPCON+4,,AUTO
        19 011206   200032 633500                    EPPR3   ETT$$,,AUTO
        19 011207   200103 453500                    STP3    ROPCON+3,,AUTO
        19 011210   000125 236000 20                 LDQ     85
        19 011211   200102 756100                    STQ     ROPCON+2,,AUTO
        19 011212   200102 630500                    EPPR0   ROPCON+2,,AUTO
        19 011213   000003 631400 20                 EPPR1   3
        19 011214   000000 701000 xent               TSX1    Z8AF$FORME_ON_SIZE
        19 011215   000000 011000                    NOP     0
        19 011216   013077 710000 19                 TRA     s:16356

      843    16155
      844    16156    3              CASE (%TYK);

      845    16157    3                CALL Z8AF$FORME_ON_SIZE(%CVKI, ETT$$, 0, ETT$$, ON_SIZE);

  16157 19 011217   200042 634500                    EPPR4   ON_SIZE,,AUTO
PL6.E3A0      #001=Z8EV$CONVERT_ROUND_ON_SIZE File=Z8EV.:Z8A6TSI                 SAT 08/09/97 12:49 Page:220
        19 011220   200106 454500                    STP4    ROPCON+6,,AUTO
        19 011221   200032 635500                    EPPR5   ETT$$,,AUTO
        19 011222   200105 455500                    STP5    ROPCON+5,,AUTO
        19 011223   000007 236000 20                 LDQ     7
        19 011224   200104 756100                    STQ     ROPCON+4,,AUTO
        19 011225   200032 636500                    EPPR6   ETT$$,,AUTO
        19 011226   200103 456500                    STP6    ROPCON+3,,AUTO
        19 011227   000031 236000 20                 LDQ     25
        19 011230   200102 756100                    STQ     ROPCON+2,,AUTO
        19 011231   200102 630500                    EPPR0   ROPCON+2,,AUTO
        19 011232   000003 631400 20                 EPPR1   3
        19 011233   000000 701000 xent               TSX1    Z8AF$FORME_ON_SIZE
        19 011234   000000 011000                    NOP     0

      846    16158    3                CALL Z8AF$FORME_ON_SIZE(%CVIR, ETT$$, 0, ETT$$, ON_SIZE);

  16158 19 011235   200042 630500                    EPPR0   ON_SIZE,,AUTO
        19 011236   200106 450500                    STP0    ROPCON+6,,AUTO
        19 011237   200032 631500                    EPPR1   ETT$$,,AUTO
        19 011240   200105 451500                    STP1    ROPCON+5,,AUTO
        19 011241   000007 236000 20                 LDQ     7
        19 011242   200104 756100                    STQ     ROPCON+4,,AUTO
        19 011243   200032 633500                    EPPR3   ETT$$,,AUTO
        19 011244   200103 453500                    STP3    ROPCON+3,,AUTO
        19 011245   000125 236000 20                 LDQ     85
        19 011246   200102 756100                    STQ     ROPCON+2,,AUTO
        19 011247   200102 630500                    EPPR0   ROPCON+2,,AUTO
        19 011250   000003 631400 20                 EPPR1   3
        19 011251   000000 701000 xent               TSX1    Z8AF$FORME_ON_SIZE
        19 011252   000000 011000                    NOP     0
        19 011253   013077 710000 19                 TRA     s:16356

      847    16159
      848    16160    3              CASE (%TYH);

      849    16161    3                CALL Z8AF$FORME_ON_SIZE(%CVHI, ETT$$, 0, ETT$$, ON_SIZE);

PL6.E3A0      #001=Z8EV$CONVERT_ROUND_ON_SIZE File=Z8EV.:Z8A6TSI                 SAT 08/09/97 12:49 Page:221
  16161 19 011254   200042 634500                    EPPR4   ON_SIZE,,AUTO
        19 011255   200106 454500                    STP4    ROPCON+6,,AUTO
        19 011256   200032 635500                    EPPR5   ETT$$,,AUTO
        19 011257   200105 455500                    STP5    ROPCON+5,,AUTO
        19 011260   000007 236000 20                 LDQ     7
        19 011261   200104 756100                    STQ     ROPCON+4,,AUTO
        19 011262   200032 636500                    EPPR6   ETT$$,,AUTO
        19 011263   200103 456500                    STP6    ROPCON+3,,AUTO
        19 011264   000033 236000 20                 LDQ     27
        19 011265   200102 756100                    STQ     ROPCON+2,,AUTO
        19 011266   200102 630500                    EPPR0   ROPCON+2,,AUTO
        19 011267   000003 631400 20                 EPPR1   3
        19 011270   000000 701000 xent               TSX1    Z8AF$FORME_ON_SIZE
        19 011271   000000 011000                    NOP     0

      850    16162    3                CALL Z8AF$FORME_ON_SIZE(%CVIR, ETT$$, 0, ETT$$, ON_SIZE);

  16162 19 011272   200042 630500                    EPPR0   ON_SIZE,,AUTO
        19 011273   200106 450500                    STP0    ROPCON+6,,AUTO
        19 011274   200032 631500                    EPPR1   ETT$$,,AUTO
        19 011275   200105 451500                    STP1    ROPCON+5,,AUTO
        19 011276   000007 236000 20                 LDQ     7
        19 011277   200104 756100                    STQ     ROPCON+4,,AUTO
        19 011300   200032 633500                    EPPR3   ETT$$,,AUTO
        19 011301   200103 453500                    STP3    ROPCON+3,,AUTO
        19 011302   000125 236000 20                 LDQ     85
        19 011303   200102 756100                    STQ     ROPCON+2,,AUTO
        19 011304   200102 630500                    EPPR0   ROPCON+2,,AUTO
        19 011305   000003 631400 20                 EPPR1   3
        19 011306   000000 701000 xent               TSX1    Z8AF$FORME_ON_SIZE
        19 011307   000000 011000                    NOP     0
        19 011310   013077 710000 19                 TRA     s:16356

      851    16163
      852    16164    3              CASE (%TYO, %TYF); /* Convert overpunched or EBCDIC numeric to real */

      853    16165    3                CALL Z8AF$FORME_ON_SIZE(%CVOD4, ETT$$, 0, ETT$$, ON_SIZE);
PL6.E3A0      #001=Z8EV$CONVERT_ROUND_ON_SIZE File=Z8EV.:Z8A6TSI                 SAT 08/09/97 12:49 Page:222

  16165 19 011311   200042 634500                    EPPR4   ON_SIZE,,AUTO
        19 011312   200106 454500                    STP4    ROPCON+6,,AUTO
        19 011313   200032 635500                    EPPR5   ETT$$,,AUTO
        19 011314   200105 455500                    STP5    ROPCON+5,,AUTO
        19 011315   000007 236000 20                 LDQ     7
        19 011316   200104 756100                    STQ     ROPCON+4,,AUTO
        19 011317   200032 636500                    EPPR6   ETT$$,,AUTO
        19 011320   200103 456500                    STP6    ROPCON+3,,AUTO
        19 011321   000035 236000 20                 LDQ     29
        19 011322   200102 756100                    STQ     ROPCON+2,,AUTO
        19 011323   200102 630500                    EPPR0   ROPCON+2,,AUTO
        19 011324   000003 631400 20                 EPPR1   3
        19 011325   000000 701000 xent               TSX1    Z8AF$FORME_ON_SIZE
        19 011326   000000 011000                    NOP     0

      854    16166    3                CALL Z8AF$FORME_ON_SIZE(%CVDRR, ETT$$, 0, ETT$$, ON_SIZE);

  16166 19 011327   200042 630500                    EPPR0   ON_SIZE,,AUTO
        19 011330   200106 450500                    STP0    ROPCON+6,,AUTO
        19 011331   200032 631500                    EPPR1   ETT$$,,AUTO
        19 011332   200105 451500                    STP1    ROPCON+5,,AUTO
        19 011333   000007 236000 20                 LDQ     7
        19 011334   200104 756100                    STQ     ROPCON+4,,AUTO
        19 011335   200032 633500                    EPPR3   ETT$$,,AUTO
        19 011336   200103 453500                    STP3    ROPCON+3,,AUTO
        19 011337   000123 236000 20                 LDQ     83
        19 011340   200102 756100                    STQ     ROPCON+2,,AUTO
        19 011341   200102 630500                    EPPR0   ROPCON+2,,AUTO
        19 011342   000003 631400 20                 EPPR1   3
        19 011343   000000 701000 xent               TSX1    Z8AF$FORME_ON_SIZE
        19 011344   000000 011000                    NOP     0
        19 011345   013077 710000 19                 TRA     s:16356

      855    16167
      856    16168    3              CASE (%TYQ);

PL6.E3A0      #001=Z8EV$CONVERT_ROUND_ON_SIZE File=Z8EV.:Z8A6TSI                 SAT 08/09/97 12:49 Page:223
      857    16169    3                CALL Z8AF$FORME_ON_SIZE(%CVQR, ETT$$, 0, ETT$$, ON_SIZE);

  16169 19 011346   200042 634500                    EPPR4   ON_SIZE,,AUTO
        19 011347   200106 454500                    STP4    ROPCON+6,,AUTO
        19 011350   200032 635500                    EPPR5   ETT$$,,AUTO
        19 011351   200105 455500                    STP5    ROPCON+5,,AUTO
        19 011352   000007 236000 20                 LDQ     7
        19 011353   200104 756100                    STQ     ROPCON+4,,AUTO
        19 011354   200032 636500                    EPPR6   ETT$$,,AUTO
        19 011355   200103 456500                    STP6    ROPCON+3,,AUTO
        19 011356   000127 236000 20                 LDQ     87
        19 011357   200102 756100                    STQ     ROPCON+2,,AUTO
        19 011360   200102 630500                    EPPR0   ROPCON+2,,AUTO
        19 011361   000003 631400 20                 EPPR1   3
        19 011362   000000 701000 xent               TSX1    Z8AF$FORME_ON_SIZE
        19 011363   000000 011000                    NOP     0
        19 011364   013077 710000 19                 TRA     s:16356

      858    16170
      859    16171    3              CASE (%TYA);

      860    16172    3                CALL Z8AF$FORME_ON_SIZE(%DAN, ETT$$, 0, ETT$$, ON_SIZE);

  16172 19 011365   200042 634500                    EPPR4   ON_SIZE,,AUTO
        19 011366   200106 454500                    STP4    ROPCON+6,,AUTO
        19 011367   200032 635500                    EPPR5   ETT$$,,AUTO
        19 011370   200105 455500                    STP5    ROPCON+5,,AUTO
        19 011371   000007 236000 20                 LDQ     7
        19 011372   200104 756100                    STQ     ROPCON+4,,AUTO
        19 011373   200032 636500                    EPPR6   ETT$$,,AUTO
        19 011374   200103 456500                    STP6    ROPCON+3,,AUTO
        19 011375   000047 236000 20                 LDQ     39
        19 011376   200102 756100                    STQ     ROPCON+2,,AUTO
        19 011377   200102 630500                    EPPR0   ROPCON+2,,AUTO
        19 011400   000003 631400 20                 EPPR1   3
        19 011401   000000 701000 xent               TSX1    Z8AF$FORME_ON_SIZE
        19 011402   000000 011000                    NOP     0
PL6.E3A0      #001=Z8EV$CONVERT_ROUND_ON_SIZE File=Z8EV.:Z8A6TSI                 SAT 08/09/97 12:49 Page:224

      861    16173    3                CALL Z8AF$FORME_ON_SIZE(%CVDRR, ETT$$, 0, ETT$$, ON_SIZE);

  16173 19 011403   200042 630500                    EPPR0   ON_SIZE,,AUTO
        19 011404   200106 450500                    STP0    ROPCON+6,,AUTO
        19 011405   200032 631500                    EPPR1   ETT$$,,AUTO
        19 011406   200105 451500                    STP1    ROPCON+5,,AUTO
        19 011407   000007 236000 20                 LDQ     7
        19 011410   200104 756100                    STQ     ROPCON+4,,AUTO
        19 011411   200032 633500                    EPPR3   ETT$$,,AUTO
        19 011412   200103 453500                    STP3    ROPCON+3,,AUTO
        19 011413   000123 236000 20                 LDQ     83
        19 011414   200102 756100                    STQ     ROPCON+2,,AUTO
        19 011415   200102 630500                    EPPR0   ROPCON+2,,AUTO
        19 011416   000003 631400 20                 EPPR1   3
        19 011417   000000 701000 xent               TSX1    Z8AF$FORME_ON_SIZE
        19 011420   000000 011000                    NOP     0
        19 011421   013077 710000 19                 TRA     s:16356

      862    16174
      863    16175    3              CASE (%TYE); /* Convert EBCDIC to real */

      864    16176    3                CALL Z8CO$CREATE_LIBRARY_BASE(%OP_EBCDIC_TO_ASCII, TABLE_ETT$);

  16176 19 011422   200033 634500                    EPPR4   TABLE_ETT$,,AUTO
        19 011423   200103 454500                    STP4    ROPCON+3,,AUTO
        19 011424   000043 236000 20                 LDQ     35
        19 011425   200102 756100                    STQ     ROPCON+2,,AUTO
        19 011426   200102 630500                    EPPR0   ROPCON+2,,AUTO
        19 011427   000000 631400 20                 EPPR1   0
        19 011430   000000 701000 xent               TSX1    Z8CO$CREATE_LIBRARY_BASE
        19 011431   000000 011000                    NOP     0

      865    16177    3                CALL Z8AF$FORME_ON_SIZE(%CVT, ETT$$, TABLE_ETT$, ETT$$, ON_SIZE);

  16177 19 011432   200042 630500                    EPPR0   ON_SIZE,,AUTO
        19 011433   200106 450500                    STP0    ROPCON+6,,AUTO
PL6.E3A0      #001=Z8EV$CONVERT_ROUND_ON_SIZE File=Z8EV.:Z8A6TSI                 SAT 08/09/97 12:49 Page:225
        19 011434   200032 631500                    EPPR1   ETT$$,,AUTO
        19 011435   200105 451500                    STP1    ROPCON+5,,AUTO
        19 011436   200033 633500                    EPPR3   TABLE_ETT$,,AUTO
        19 011437   200104 453500                    STP3    ROPCON+4,,AUTO
        19 011440   200032 634500                    EPPR4   ETT$$,,AUTO
        19 011441   200103 454500                    STP4    ROPCON+3,,AUTO
        19 011442   000023 236000 20                 LDQ     19
        19 011443   200102 756100                    STQ     ROPCON+2,,AUTO
        19 011444   200102 630500                    EPPR0   ROPCON+2,,AUTO
        19 011445   000003 631400 20                 EPPR1   3
        19 011446   000000 701000 xent               TSX1    Z8AF$FORME_ON_SIZE
        19 011447   000000 011000                    NOP     0

      866    16178    3                CALL Z8AF$FORME_ON_SIZE(%DAN, ETT$$, 0, ETT$$, ON_SIZE);

  16178 19 011450   200042 630500                    EPPR0   ON_SIZE,,AUTO
        19 011451   200106 450500                    STP0    ROPCON+6,,AUTO
        19 011452   200032 631500                    EPPR1   ETT$$,,AUTO
        19 011453   200105 451500                    STP1    ROPCON+5,,AUTO
        19 011454   000007 236000 20                 LDQ     7
        19 011455   200104 756100                    STQ     ROPCON+4,,AUTO
        19 011456   200032 633500                    EPPR3   ETT$$,,AUTO
        19 011457   200103 453500                    STP3    ROPCON+3,,AUTO
        19 011460   000047 236000 20                 LDQ     39
        19 011461   200102 756100                    STQ     ROPCON+2,,AUTO
        19 011462   200102 630500                    EPPR0   ROPCON+2,,AUTO
        19 011463   000003 631400 20                 EPPR1   3
        19 011464   000000 701000 xent               TSX1    Z8AF$FORME_ON_SIZE
        19 011465   000000 011000                    NOP     0

      867    16179    3                CALL Z8AF$FORME_ON_SIZE(%CVDRR, ETT$$, 0, ETT$$, ON_SIZE);

  16179 19 011466   200042 630500                    EPPR0   ON_SIZE,,AUTO
        19 011467   200106 450500                    STP0    ROPCON+6,,AUTO
        19 011470   200032 631500                    EPPR1   ETT$$,,AUTO
        19 011471   200105 451500                    STP1    ROPCON+5,,AUTO
        19 011472   000007 236000 20                 LDQ     7
PL6.E3A0      #001=Z8EV$CONVERT_ROUND_ON_SIZE File=Z8EV.:Z8A6TSI                 SAT 08/09/97 12:49 Page:226
        19 011473   200104 756100                    STQ     ROPCON+4,,AUTO
        19 011474   200032 633500                    EPPR3   ETT$$,,AUTO
        19 011475   200103 453500                    STP3    ROPCON+3,,AUTO
        19 011476   000123 236000 20                 LDQ     83
        19 011477   200102 756100                    STQ     ROPCON+2,,AUTO
        19 011500   200102 630500                    EPPR0   ROPCON+2,,AUTO
        19 011501   000003 631400 20                 EPPR1   3
        19 011502   000000 701000 xent               TSX1    Z8AF$FORME_ON_SIZE
        19 011503   000000 011000                    NOP     0
        19 011504   013077 710000 19                 TRA     s:16356

      868    16180
      869    16181    3              CASE (%TYB); /* Convert GBCD numeric to real */

      870    16182    3                CALL Z8CO$CREATE_LIBRARY_BASE(%OP_GBCD_TO_ASCII, TABLE_ETT$);

  16182 19 011505   200033 634500                    EPPR4   TABLE_ETT$,,AUTO
        19 011506   200103 454500                    STP4    ROPCON+3,,AUTO
        19 011507   000021 236000 20                 LDQ     17
        19 011510   200102 756100                    STQ     ROPCON+2,,AUTO
        19 011511   200102 630500                    EPPR0   ROPCON+2,,AUTO
        19 011512   000000 631400 20                 EPPR1   0
        19 011513   000000 701000 xent               TSX1    Z8CO$CREATE_LIBRARY_BASE
        19 011514   000000 011000                    NOP     0

      871    16183    3                CALL Z8AF$FORME_ON_SIZE(%CVT, ETT$$, TABLE_ETT$, ETT$$, ON_SIZE);

  16183 19 011515   200042 630500                    EPPR0   ON_SIZE,,AUTO
        19 011516   200106 450500                    STP0    ROPCON+6,,AUTO
        19 011517   200032 631500                    EPPR1   ETT$$,,AUTO
        19 011520   200105 451500                    STP1    ROPCON+5,,AUTO
        19 011521   200033 633500                    EPPR3   TABLE_ETT$,,AUTO
        19 011522   200104 453500                    STP3    ROPCON+4,,AUTO
        19 011523   200032 634500                    EPPR4   ETT$$,,AUTO
        19 011524   200103 454500                    STP4    ROPCON+3,,AUTO
        19 011525   000023 236000 20                 LDQ     19
        19 011526   200102 756100                    STQ     ROPCON+2,,AUTO
PL6.E3A0      #001=Z8EV$CONVERT_ROUND_ON_SIZE File=Z8EV.:Z8A6TSI                 SAT 08/09/97 12:49 Page:227
        19 011527   200102 630500                    EPPR0   ROPCON+2,,AUTO
        19 011530   000003 631400 20                 EPPR1   3
        19 011531   000000 701000 xent               TSX1    Z8AF$FORME_ON_SIZE
        19 011532   000000 011000                    NOP     0

      872    16184    3                CALL Z8AF$FORME_ON_SIZE(%DAN, ETT$$, 0, ETT$$, ON_SIZE);

  16184 19 011533   200042 630500                    EPPR0   ON_SIZE,,AUTO
        19 011534   200106 450500                    STP0    ROPCON+6,,AUTO
        19 011535   200032 631500                    EPPR1   ETT$$,,AUTO
        19 011536   200105 451500                    STP1    ROPCON+5,,AUTO
        19 011537   000007 236000 20                 LDQ     7
        19 011540   200104 756100                    STQ     ROPCON+4,,AUTO
        19 011541   200032 633500                    EPPR3   ETT$$,,AUTO
        19 011542   200103 453500                    STP3    ROPCON+3,,AUTO
        19 011543   000047 236000 20                 LDQ     39
        19 011544   200102 756100                    STQ     ROPCON+2,,AUTO
        19 011545   200102 630500                    EPPR0   ROPCON+2,,AUTO
        19 011546   000003 631400 20                 EPPR1   3
        19 011547   000000 701000 xent               TSX1    Z8AF$FORME_ON_SIZE
        19 011550   000000 011000                    NOP     0

      873    16185    3                CALL Z8AF$FORME_ON_SIZE(%CVDRR, ETT$$, 0, ETT$$, ON_SIZE);

  16185 19 011551   200042 630500                    EPPR0   ON_SIZE,,AUTO
        19 011552   200106 450500                    STP0    ROPCON+6,,AUTO
        19 011553   200032 631500                    EPPR1   ETT$$,,AUTO
        19 011554   200105 451500                    STP1    ROPCON+5,,AUTO
        19 011555   000007 236000 20                 LDQ     7
        19 011556   200104 756100                    STQ     ROPCON+4,,AUTO
        19 011557   200032 633500                    EPPR3   ETT$$,,AUTO
        19 011560   200103 453500                    STP3    ROPCON+3,,AUTO
        19 011561   000123 236000 20                 LDQ     83
        19 011562   200102 756100                    STQ     ROPCON+2,,AUTO
        19 011563   200102 630500                    EPPR0   ROPCON+2,,AUTO
        19 011564   000003 631400 20                 EPPR1   3
        19 011565   000000 701000 xent               TSX1    Z8AF$FORME_ON_SIZE
PL6.E3A0      #001=Z8EV$CONVERT_ROUND_ON_SIZE File=Z8EV.:Z8A6TSI                 SAT 08/09/97 12:49 Page:228
        19 011566   000000 011000                    NOP     0
        19 011567   013077 710000 19                 TRA     s:16356

      874    16186
      875    16187    3              CASE (%TYX, %TYY);

      876    16188    3                CALL Z8AE$ERROR (%E$UNEXPECTED_CASE,

  16188 19 011570   200034 236100                    LDQ     FROM$,,AUTO
        19 011571   000006 036003                    ADLQ    6,DU
        19 011572   200104 756100                    STQ     ROPCON+4,,AUTO
        19 011573   200034 236100                    LDQ     FROM$,,AUTO
        19 011574   000005 036003                    ADLQ    5,DU
        19 011575   000017 235000 20                 LDA     15
        19 011576   200102 757100                    STAQ    ROPCON+2,,AUTO
        19 011577   200102 630500                    EPPR0   ROPCON+2,,AUTO
        19 011600   000013 631400 20                 EPPR1   11
        19 011601   000000 701000 xent               TSX1    Z8AE$ERROR
        19 011602   000000 011000                    NOP     0
        19 011603   013077 710000 19                 TRA     s:16356

      877    16189    3                                 FROM$ -> LX_ETT_ITEM.LINE,
      878    16190    3                                 FROM$ -> LX_ETT_ITEM.COLUMN);
      879    16191
      880    16192    3              CASE(%TYT);

      881    16193    3                CALL Z8EC$CREATE_CONST(%TYR, FROM$, ETT$$)

  16193 19 011604   200032 634500                    EPPR4   ETT$$,,AUTO
        19 011605   200104 454500                    STP4    ROPCON+4,,AUTO
        19 011606   200034 635500                    EPPR5   FROM$,,AUTO
        19 011607   200103 455500                    STP5    ROPCON+3,,AUTO
        19 011610   000131 236000 20                 LDQ     89
        19 011611   200102 756100                    STQ     ROPCON+2,,AUTO
        19 011612   200102 630500                    EPPR0   ROPCON+2,,AUTO
        19 011613   000013 631400 20                 EPPR1   11
        19 011614   000000 701000 xent               TSX1    Z8EC$CREATE_CONST
PL6.E3A0      #001=Z8EV$CONVERT_ROUND_ON_SIZE File=Z8EV.:Z8A6TSI                 SAT 08/09/97 12:49 Page:229
        19 011615   011617 702000 19                 TSX2    s:16209
        19 011616   011636 710000 19                 TRA     s:16231

      882    16194    3                  WHENALTRETURN
      883    16195    4                    DO;

      884    16196                           %CONDITIONAL_ERROR (@LX_ITEM$ = FROM$,
      885    16197                                               @ERROR#   = %E$TRUNCATION_WARN,
      886    16198                                               @LINE     = FROM$ -> LX_ITEM.LINE,
      887    16199                                               @COLUMN   = FROM$ -> LX_ITEM.COLUMN);

  16209 19 011617   200034 470500                    LDP0    FROM$,,AUTO
        19 011620   000000 236100                    LDQ     0,,PR0
        19 011621   400000 316007                    CANQ    -131072,DL
        19 011622   011636 601000 19                 TNZ     s:16231

  16211 19 011623   200034 236100                    LDQ     FROM$,,AUTO
        19 011624   000006 036003                    ADLQ    6,DU
        19 011625   200104 756100                    STQ     ROPCON+4,,AUTO
        19 011626   200034 236100                    LDQ     FROM$,,AUTO
        19 011627   000005 036003                    ADLQ    5,DU
        19 011630   000107 235000 20                 LDA     71
        19 011631   200102 757100                    STAQ    ROPCON+2,,AUTO
        19 011632   200102 630500                    EPPR0   ROPCON+2,,AUTO
        19 011633   000013 631400 20                 EPPR1   11
        19 011634   000000 701000 xent               TSX1    Z8AE$ERROR
        19 011635   000000 011000                    NOP     0

      888    16229    4                    END;

      889    16230
      890    16231    3            END /* Case (%TYR) */;

  16231 19 011636   013077 710000 19                 TRA     s:16356

      891    16232        %EJECT;
PL6.E3A0      #001=Z8EV$CONVERT_ROUND_ON_SIZE File=Z8EV.:Z8A6TSI                 SAT 08/09/97 12:49 Page:230
      892    16233    2          CASE (%TYQ);

      893    16234    3            DO CASE(FROM$ -> LX_ITEM.TYPE);

  16234 19 011637   200034 473500                    LDP3    FROM$,,AUTO
        19 011640   300004 235100                    LDA     4,,PR3
        19 011641   000020 115007                    CMPA    16,DL
        19 011642   011644 602005 19                 TNC     s:16234+5,AL
        19 011643   013077 710000 19                 TRA     s:16356
        19 011644   011664 710000 19                 TRA     s:16236
        19 011645   011703 710000 19                 TRA     s:16239
        19 011646   011722 710000 19                 TRA     s:16242
        19 011647   012051 710000 19                 TRA     s:16254
        19 011650   012106 710000 19                 TRA     s:16258
        19 011651   012376 710000 19                 TRA     s:16319
        19 011652   012162 710000 19                 TRA     s:16265
        19 011653   012014 710000 19                 TRA     s:16250
        19 011654   012125 710000 19                 TRA     s:16261
        19 011655   012330 710000 19                 TRA     s:16277
        19 011656   012330 710000 19                 TRA     s:16277
        19 011657   012051 710000 19                 TRA     s:16254
        19 011660   012245 710000 19                 TRA     s:16271
        19 011661   012344 710000 19                 TRA     s:16282
        19 011662   012376 710000 19                 TRA     s:16319
        19 011663   011757 710000 19                 TRA     s:16246

      894    16235    3              CASE (%TYD);

      895    16236    3                CALL Z8AF$FORME_ON_SIZE(%CVDQR, ETT$$, 0, ETT$$, ON_SIZE);

  16236 19 011664   200042 634500                    EPPR4   ON_SIZE,,AUTO
        19 011665   200106 454500                    STP4    ROPCON+6,,AUTO
        19 011666   200032 635500                    EPPR5   ETT$$,,AUTO
        19 011667   200105 455500                    STP5    ROPCON+5,,AUTO
        19 011670   000007 236000 20                 LDQ     7
        19 011671   200104 756100                    STQ     ROPCON+4,,AUTO
        19 011672   200032 636500                    EPPR6   ETT$$,,AUTO
PL6.E3A0      #001=Z8EV$CONVERT_ROUND_ON_SIZE File=Z8EV.:Z8A6TSI                 SAT 08/09/97 12:49 Page:231
        19 011673   200103 456500                    STP6    ROPCON+3,,AUTO
        19 011674   000133 236000 20                 LDQ     91
        19 011675   200102 756100                    STQ     ROPCON+2,,AUTO
        19 011676   200102 630500                    EPPR0   ROPCON+2,,AUTO
        19 011677   000003 631400 20                 EPPR1   3
        19 011700   000000 701000 xent               TSX1    Z8AF$FORME_ON_SIZE
        19 011701   000000 011000                    NOP     0
        19 011702   013077 710000 19                 TRA     s:16356

      896    16237
      897    16238    3              CASE (%TYI);

      898    16239    3                CALL Z8AF$FORME_ON_SIZE(%CVIQ, ETT$$, 0, ETT$$, ON_SIZE);

  16239 19 011703   200042 634500                    EPPR4   ON_SIZE,,AUTO
        19 011704   200106 454500                    STP4    ROPCON+6,,AUTO
        19 011705   200032 635500                    EPPR5   ETT$$,,AUTO
        19 011706   200105 455500                    STP5    ROPCON+5,,AUTO
        19 011707   000007 236000 20                 LDQ     7
        19 011710   200104 756100                    STQ     ROPCON+4,,AUTO
        19 011711   200032 636500                    EPPR6   ETT$$,,AUTO
        19 011712   200103 456500                    STP6    ROPCON+3,,AUTO
        19 011713   000135 236000 20                 LDQ     93
        19 011714   200102 756100                    STQ     ROPCON+2,,AUTO
        19 011715   200102 630500                    EPPR0   ROPCON+2,,AUTO
        19 011716   000003 631400 20                 EPPR1   3
        19 011717   000000 701000 xent               TSX1    Z8AF$FORME_ON_SIZE
        19 011720   000000 011000                    NOP     0
        19 011721   013077 710000 19                 TRA     s:16356

      899    16240
      900    16241    3              CASE (%TYJ);

      901    16242    3                CALL Z8AF$FORME_ON_SIZE(%CVJI, ETT$$, 0, ETT$$, ON_SIZE);

  16242 19 011722   200042 634500                    EPPR4   ON_SIZE,,AUTO
        19 011723   200106 454500                    STP4    ROPCON+6,,AUTO
PL6.E3A0      #001=Z8EV$CONVERT_ROUND_ON_SIZE File=Z8EV.:Z8A6TSI                 SAT 08/09/97 12:49 Page:232
        19 011724   200032 635500                    EPPR5   ETT$$,,AUTO
        19 011725   200105 455500                    STP5    ROPCON+5,,AUTO
        19 011726   000007 236000 20                 LDQ     7
        19 011727   200104 756100                    STQ     ROPCON+4,,AUTO
        19 011730   200032 636500                    EPPR6   ETT$$,,AUTO
        19 011731   200103 456500                    STP6    ROPCON+3,,AUTO
        19 011732   000027 236000 20                 LDQ     23
        19 011733   200102 756100                    STQ     ROPCON+2,,AUTO
        19 011734   200102 630500                    EPPR0   ROPCON+2,,AUTO
        19 011735   000003 631400 20                 EPPR1   3
        19 011736   000000 701000 xent               TSX1    Z8AF$FORME_ON_SIZE
        19 011737   000000 011000                    NOP     0

      902    16243    3                CALL Z8AF$FORME_ON_SIZE(%CVIQ, ETT$$, 0, ETT$$, ON_SIZE);

  16243 19 011740   200042 630500                    EPPR0   ON_SIZE,,AUTO
        19 011741   200106 450500                    STP0    ROPCON+6,,AUTO
        19 011742   200032 631500                    EPPR1   ETT$$,,AUTO
        19 011743   200105 451500                    STP1    ROPCON+5,,AUTO
        19 011744   000007 236000 20                 LDQ     7
        19 011745   200104 756100                    STQ     ROPCON+4,,AUTO
        19 011746   200032 633500                    EPPR3   ETT$$,,AUTO
        19 011747   200103 453500                    STP3    ROPCON+3,,AUTO
        19 011750   000135 236000 20                 LDQ     93
        19 011751   200102 756100                    STQ     ROPCON+2,,AUTO
        19 011752   200102 630500                    EPPR0   ROPCON+2,,AUTO
        19 011753   000003 631400 20                 EPPR1   3
        19 011754   000000 701000 xent               TSX1    Z8AF$FORME_ON_SIZE
        19 011755   000000 011000                    NOP     0
        19 011756   013077 710000 19                 TRA     s:16356

      903    16244
      904    16245    3              CASE (%TYK);

      905    16246    3                CALL Z8AF$FORME_ON_SIZE(%CVKI, ETT$$, 0, ETT$$, ON_SIZE);

  16246 19 011757   200042 634500                    EPPR4   ON_SIZE,,AUTO
PL6.E3A0      #001=Z8EV$CONVERT_ROUND_ON_SIZE File=Z8EV.:Z8A6TSI                 SAT 08/09/97 12:49 Page:233
        19 011760   200106 454500                    STP4    ROPCON+6,,AUTO
        19 011761   200032 635500                    EPPR5   ETT$$,,AUTO
        19 011762   200105 455500                    STP5    ROPCON+5,,AUTO
        19 011763   000007 236000 20                 LDQ     7
        19 011764   200104 756100                    STQ     ROPCON+4,,AUTO
        19 011765   200032 636500                    EPPR6   ETT$$,,AUTO
        19 011766   200103 456500                    STP6    ROPCON+3,,AUTO
        19 011767   000031 236000 20                 LDQ     25
        19 011770   200102 756100                    STQ     ROPCON+2,,AUTO
        19 011771   200102 630500                    EPPR0   ROPCON+2,,AUTO
        19 011772   000003 631400 20                 EPPR1   3
        19 011773   000000 701000 xent               TSX1    Z8AF$FORME_ON_SIZE
        19 011774   000000 011000                    NOP     0

      906    16247    3                CALL Z8AF$FORME_ON_SIZE(%CVIQ, ETT$$, 0, ETT$$, ON_SIZE);

  16247 19 011775   200042 630500                    EPPR0   ON_SIZE,,AUTO
        19 011776   200106 450500                    STP0    ROPCON+6,,AUTO
        19 011777   200032 631500                    EPPR1   ETT$$,,AUTO
        19 012000   200105 451500                    STP1    ROPCON+5,,AUTO
        19 012001   000007 236000 20                 LDQ     7
        19 012002   200104 756100                    STQ     ROPCON+4,,AUTO
        19 012003   200032 633500                    EPPR3   ETT$$,,AUTO
        19 012004   200103 453500                    STP3    ROPCON+3,,AUTO
        19 012005   000135 236000 20                 LDQ     93
        19 012006   200102 756100                    STQ     ROPCON+2,,AUTO
        19 012007   200102 630500                    EPPR0   ROPCON+2,,AUTO
        19 012010   000003 631400 20                 EPPR1   3
        19 012011   000000 701000 xent               TSX1    Z8AF$FORME_ON_SIZE
        19 012012   000000 011000                    NOP     0
        19 012013   013077 710000 19                 TRA     s:16356

      907    16248
      908    16249    3              CASE (%TYH);

      909    16250    3                CALL Z8AF$FORME_ON_SIZE(%CVHI, ETT$$, 0, ETT$$, ON_SIZE);

PL6.E3A0      #001=Z8EV$CONVERT_ROUND_ON_SIZE File=Z8EV.:Z8A6TSI                 SAT 08/09/97 12:49 Page:234
  16250 19 012014   200042 634500                    EPPR4   ON_SIZE,,AUTO
        19 012015   200106 454500                    STP4    ROPCON+6,,AUTO
        19 012016   200032 635500                    EPPR5   ETT$$,,AUTO
        19 012017   200105 455500                    STP5    ROPCON+5,,AUTO
        19 012020   000007 236000 20                 LDQ     7
        19 012021   200104 756100                    STQ     ROPCON+4,,AUTO
        19 012022   200032 636500                    EPPR6   ETT$$,,AUTO
        19 012023   200103 456500                    STP6    ROPCON+3,,AUTO
        19 012024   000033 236000 20                 LDQ     27
        19 012025   200102 756100                    STQ     ROPCON+2,,AUTO
        19 012026   200102 630500                    EPPR0   ROPCON+2,,AUTO
        19 012027   000003 631400 20                 EPPR1   3
        19 012030   000000 701000 xent               TSX1    Z8AF$FORME_ON_SIZE
        19 012031   000000 011000                    NOP     0

      910    16251    3                CALL Z8AF$FORME_ON_SIZE(%CVIQ, ETT$$, 0, ETT$$, ON_SIZE);

  16251 19 012032   200042 630500                    EPPR0   ON_SIZE,,AUTO
        19 012033   200106 450500                    STP0    ROPCON+6,,AUTO
        19 012034   200032 631500                    EPPR1   ETT$$,,AUTO
        19 012035   200105 451500                    STP1    ROPCON+5,,AUTO
        19 012036   000007 236000 20                 LDQ     7
        19 012037   200104 756100                    STQ     ROPCON+4,,AUTO
        19 012040   200032 633500                    EPPR3   ETT$$,,AUTO
        19 012041   200103 453500                    STP3    ROPCON+3,,AUTO
        19 012042   000135 236000 20                 LDQ     93
        19 012043   200102 756100                    STQ     ROPCON+2,,AUTO
        19 012044   200102 630500                    EPPR0   ROPCON+2,,AUTO
        19 012045   000003 631400 20                 EPPR1   3
        19 012046   000000 701000 xent               TSX1    Z8AF$FORME_ON_SIZE
        19 012047   000000 011000                    NOP     0
        19 012050   013077 710000 19                 TRA     s:16356

      911    16252
      912    16253    3              CASE (%TYO, %TYF);
             16253                       /* Convert overpunched or EBCDIC numeric to double precision */

PL6.E3A0      #001=Z8EV$CONVERT_ROUND_ON_SIZE File=Z8EV.:Z8A6TSI                 SAT 08/09/97 12:49 Page:235
      913    16254    3                CALL Z8AF$FORME_ON_SIZE(%CVOD4, ETT$$, 0, ETT$$, ON_SIZE);

  16254 19 012051   200042 634500                    EPPR4   ON_SIZE,,AUTO
        19 012052   200106 454500                    STP4    ROPCON+6,,AUTO
        19 012053   200032 635500                    EPPR5   ETT$$,,AUTO
        19 012054   200105 455500                    STP5    ROPCON+5,,AUTO
        19 012055   000007 236000 20                 LDQ     7
        19 012056   200104 756100                    STQ     ROPCON+4,,AUTO
        19 012057   200032 636500                    EPPR6   ETT$$,,AUTO
        19 012060   200103 456500                    STP6    ROPCON+3,,AUTO
        19 012061   000035 236000 20                 LDQ     29
        19 012062   200102 756100                    STQ     ROPCON+2,,AUTO
        19 012063   200102 630500                    EPPR0   ROPCON+2,,AUTO
        19 012064   000003 631400 20                 EPPR1   3
        19 012065   000000 701000 xent               TSX1    Z8AF$FORME_ON_SIZE
        19 012066   000000 011000                    NOP     0

      914    16255    3                CALL Z8AF$FORME_ON_SIZE(%CVDQR, ETT$$, 0, ETT$$, ON_SIZE);

  16255 19 012067   200042 630500                    EPPR0   ON_SIZE,,AUTO
        19 012070   200106 450500                    STP0    ROPCON+6,,AUTO
        19 012071   200032 631500                    EPPR1   ETT$$,,AUTO
        19 012072   200105 451500                    STP1    ROPCON+5,,AUTO
        19 012073   000007 236000 20                 LDQ     7
        19 012074   200104 756100                    STQ     ROPCON+4,,AUTO
        19 012075   200032 633500                    EPPR3   ETT$$,,AUTO
        19 012076   200103 453500                    STP3    ROPCON+3,,AUTO
        19 012077   000133 236000 20                 LDQ     91
        19 012100   200102 756100                    STQ     ROPCON+2,,AUTO
        19 012101   200102 630500                    EPPR0   ROPCON+2,,AUTO
        19 012102   000003 631400 20                 EPPR1   3
        19 012103   000000 701000 xent               TSX1    Z8AF$FORME_ON_SIZE
        19 012104   000000 011000                    NOP     0
        19 012105   013077 710000 19                 TRA     s:16356

      915    16256
      916    16257    3              CASE (%TYR);
PL6.E3A0      #001=Z8EV$CONVERT_ROUND_ON_SIZE File=Z8EV.:Z8A6TSI                 SAT 08/09/97 12:49 Page:236

      917    16258    3                CALL Z8AF$FORME_ON_SIZE(%CVRQ, ETT$$, 0, ETT$$, ON_SIZE);

  16258 19 012106   200042 634500                    EPPR4   ON_SIZE,,AUTO
        19 012107   200106 454500                    STP4    ROPCON+6,,AUTO
        19 012110   200032 635500                    EPPR5   ETT$$,,AUTO
        19 012111   200105 455500                    STP5    ROPCON+5,,AUTO
        19 012112   000007 236000 20                 LDQ     7
        19 012113   200104 756100                    STQ     ROPCON+4,,AUTO
        19 012114   200032 636500                    EPPR6   ETT$$,,AUTO
        19 012115   200103 456500                    STP6    ROPCON+3,,AUTO
        19 012116   000137 236000 20                 LDQ     95
        19 012117   200102 756100                    STQ     ROPCON+2,,AUTO
        19 012120   200102 630500                    EPPR0   ROPCON+2,,AUTO
        19 012121   000003 631400 20                 EPPR1   3
        19 012122   000000 701000 xent               TSX1    Z8AF$FORME_ON_SIZE
        19 012123   000000 011000                    NOP     0
        19 012124   013077 710000 19                 TRA     s:16356

      918    16259
      919    16260    3              CASE (%TYA);

      920    16261    3                CALL Z8AF$FORME_ON_SIZE(%DAN, ETT$$, 0, ETT$$, ON_SIZE);

  16261 19 012125   200042 634500                    EPPR4   ON_SIZE,,AUTO
        19 012126   200106 454500                    STP4    ROPCON+6,,AUTO
        19 012127   200032 635500                    EPPR5   ETT$$,,AUTO
        19 012130   200105 455500                    STP5    ROPCON+5,,AUTO
        19 012131   000007 236000 20                 LDQ     7
        19 012132   200104 756100                    STQ     ROPCON+4,,AUTO
        19 012133   200032 636500                    EPPR6   ETT$$,,AUTO
        19 012134   200103 456500                    STP6    ROPCON+3,,AUTO
        19 012135   000047 236000 20                 LDQ     39
        19 012136   200102 756100                    STQ     ROPCON+2,,AUTO
        19 012137   200102 630500                    EPPR0   ROPCON+2,,AUTO
        19 012140   000003 631400 20                 EPPR1   3
        19 012141   000000 701000 xent               TSX1    Z8AF$FORME_ON_SIZE
PL6.E3A0      #001=Z8EV$CONVERT_ROUND_ON_SIZE File=Z8EV.:Z8A6TSI                 SAT 08/09/97 12:49 Page:237
        19 012142   000000 011000                    NOP     0

      921    16262    3                CALL Z8AF$FORME_ON_SIZE(%CVDQR, ETT$$, 0, ETT$$, ON_SIZE);

  16262 19 012143   200042 630500                    EPPR0   ON_SIZE,,AUTO
        19 012144   200106 450500                    STP0    ROPCON+6,,AUTO
        19 012145   200032 631500                    EPPR1   ETT$$,,AUTO
        19 012146   200105 451500                    STP1    ROPCON+5,,AUTO
        19 012147   000007 236000 20                 LDQ     7
        19 012150   200104 756100                    STQ     ROPCON+4,,AUTO
        19 012151   200032 633500                    EPPR3   ETT$$,,AUTO
        19 012152   200103 453500                    STP3    ROPCON+3,,AUTO
        19 012153   000133 236000 20                 LDQ     91
        19 012154   200102 756100                    STQ     ROPCON+2,,AUTO
        19 012155   200102 630500                    EPPR0   ROPCON+2,,AUTO
        19 012156   000003 631400 20                 EPPR1   3
        19 012157   000000 701000 xent               TSX1    Z8AF$FORME_ON_SIZE
        19 012160   000000 011000                    NOP     0
        19 012161   013077 710000 19                 TRA     s:16356

      922    16263
      923    16264    3              CASE (%TYE); /* Convert EBCDIC to double precision */

      924    16265    3                CALL Z8CO$CREATE_LIBRARY_BASE(%OP_EBCDIC_TO_ASCII, TABLE_ETT$);

  16265 19 012162   200033 634500                    EPPR4   TABLE_ETT$,,AUTO
        19 012163   200103 454500                    STP4    ROPCON+3,,AUTO
        19 012164   000043 236000 20                 LDQ     35
        19 012165   200102 756100                    STQ     ROPCON+2,,AUTO
        19 012166   200102 630500                    EPPR0   ROPCON+2,,AUTO
        19 012167   000000 631400 20                 EPPR1   0
        19 012170   000000 701000 xent               TSX1    Z8CO$CREATE_LIBRARY_BASE
        19 012171   000000 011000                    NOP     0

      925    16266    3                CALL Z8AF$FORME_ON_SIZE(%CVT, ETT$$, TABLE_ETT$, ETT$$, ON_SIZE);

  16266 19 012172   200042 630500                    EPPR0   ON_SIZE,,AUTO
PL6.E3A0      #001=Z8EV$CONVERT_ROUND_ON_SIZE File=Z8EV.:Z8A6TSI                 SAT 08/09/97 12:49 Page:238
        19 012173   200106 450500                    STP0    ROPCON+6,,AUTO
        19 012174   200032 631500                    EPPR1   ETT$$,,AUTO
        19 012175   200105 451500                    STP1    ROPCON+5,,AUTO
        19 012176   200033 633500                    EPPR3   TABLE_ETT$,,AUTO
        19 012177   200104 453500                    STP3    ROPCON+4,,AUTO
        19 012200   200032 634500                    EPPR4   ETT$$,,AUTO
        19 012201   200103 454500                    STP4    ROPCON+3,,AUTO
        19 012202   000023 236000 20                 LDQ     19
        19 012203   200102 756100                    STQ     ROPCON+2,,AUTO
        19 012204   200102 630500                    EPPR0   ROPCON+2,,AUTO
        19 012205   000003 631400 20                 EPPR1   3
        19 012206   000000 701000 xent               TSX1    Z8AF$FORME_ON_SIZE
        19 012207   000000 011000                    NOP     0

      926    16267    3                CALL Z8AF$FORME_ON_SIZE(%DAN, ETT$$, 0, ETT$$, ON_SIZE);

  16267 19 012210   200042 630500                    EPPR0   ON_SIZE,,AUTO
        19 012211   200106 450500                    STP0    ROPCON+6,,AUTO
        19 012212   200032 631500                    EPPR1   ETT$$,,AUTO
        19 012213   200105 451500                    STP1    ROPCON+5,,AUTO
        19 012214   000007 236000 20                 LDQ     7
        19 012215   200104 756100                    STQ     ROPCON+4,,AUTO
        19 012216   200032 633500                    EPPR3   ETT$$,,AUTO
        19 012217   200103 453500                    STP3    ROPCON+3,,AUTO
        19 012220   000047 236000 20                 LDQ     39
        19 012221   200102 756100                    STQ     ROPCON+2,,AUTO
        19 012222   200102 630500                    EPPR0   ROPCON+2,,AUTO
        19 012223   000003 631400 20                 EPPR1   3
        19 012224   000000 701000 xent               TSX1    Z8AF$FORME_ON_SIZE
        19 012225   000000 011000                    NOP     0

      927    16268    3                CALL Z8AF$FORME_ON_SIZE(%CVDQR, ETT$$, 0, ETT$$, ON_SIZE);

  16268 19 012226   200042 630500                    EPPR0   ON_SIZE,,AUTO
        19 012227   200106 450500                    STP0    ROPCON+6,,AUTO
        19 012230   200032 631500                    EPPR1   ETT$$,,AUTO
        19 012231   200105 451500                    STP1    ROPCON+5,,AUTO
PL6.E3A0      #001=Z8EV$CONVERT_ROUND_ON_SIZE File=Z8EV.:Z8A6TSI                 SAT 08/09/97 12:49 Page:239
        19 012232   000007 236000 20                 LDQ     7
        19 012233   200104 756100                    STQ     ROPCON+4,,AUTO
        19 012234   200032 633500                    EPPR3   ETT$$,,AUTO
        19 012235   200103 453500                    STP3    ROPCON+3,,AUTO
        19 012236   000133 236000 20                 LDQ     91
        19 012237   200102 756100                    STQ     ROPCON+2,,AUTO
        19 012240   200102 630500                    EPPR0   ROPCON+2,,AUTO
        19 012241   000003 631400 20                 EPPR1   3
        19 012242   000000 701000 xent               TSX1    Z8AF$FORME_ON_SIZE
        19 012243   000000 011000                    NOP     0
        19 012244   013077 710000 19                 TRA     s:16356

      928    16269
      929    16270    3              CASE (%TYB); /* Convert GBCD to double precision */

      930    16271    3                CALL Z8CO$CREATE_LIBRARY_BASE(%OP_GBCD_TO_ASCII, TABLE_ETT$);

  16271 19 012245   200033 634500                    EPPR4   TABLE_ETT$,,AUTO
        19 012246   200103 454500                    STP4    ROPCON+3,,AUTO
        19 012247   000021 236000 20                 LDQ     17
        19 012250   200102 756100                    STQ     ROPCON+2,,AUTO
        19 012251   200102 630500                    EPPR0   ROPCON+2,,AUTO
        19 012252   000000 631400 20                 EPPR1   0
        19 012253   000000 701000 xent               TSX1    Z8CO$CREATE_LIBRARY_BASE
        19 012254   000000 011000                    NOP     0

      931    16272    3                CALL Z8AF$FORME_ON_SIZE(%CVT, ETT$$, TABLE_ETT$, ETT$$, ON_SIZE);

  16272 19 012255   200042 630500                    EPPR0   ON_SIZE,,AUTO
        19 012256   200106 450500                    STP0    ROPCON+6,,AUTO
        19 012257   200032 631500                    EPPR1   ETT$$,,AUTO
        19 012260   200105 451500                    STP1    ROPCON+5,,AUTO
        19 012261   200033 633500                    EPPR3   TABLE_ETT$,,AUTO
        19 012262   200104 453500                    STP3    ROPCON+4,,AUTO
        19 012263   200032 634500                    EPPR4   ETT$$,,AUTO
        19 012264   200103 454500                    STP4    ROPCON+3,,AUTO
        19 012265   000023 236000 20                 LDQ     19
PL6.E3A0      #001=Z8EV$CONVERT_ROUND_ON_SIZE File=Z8EV.:Z8A6TSI                 SAT 08/09/97 12:49 Page:240
        19 012266   200102 756100                    STQ     ROPCON+2,,AUTO
        19 012267   200102 630500                    EPPR0   ROPCON+2,,AUTO
        19 012270   000003 631400 20                 EPPR1   3
        19 012271   000000 701000 xent               TSX1    Z8AF$FORME_ON_SIZE
        19 012272   000000 011000                    NOP     0

      932    16273    3                CALL Z8AF$FORME_ON_SIZE(%DAN, ETT$$, 0, ETT$$, ON_SIZE);

  16273 19 012273   200042 630500                    EPPR0   ON_SIZE,,AUTO
        19 012274   200106 450500                    STP0    ROPCON+6,,AUTO
        19 012275   200032 631500                    EPPR1   ETT$$,,AUTO
        19 012276   200105 451500                    STP1    ROPCON+5,,AUTO
        19 012277   000007 236000 20                 LDQ     7
        19 012300   200104 756100                    STQ     ROPCON+4,,AUTO
        19 012301   200032 633500                    EPPR3   ETT$$,,AUTO
        19 012302   200103 453500                    STP3    ROPCON+3,,AUTO
        19 012303   000047 236000 20                 LDQ     39
        19 012304   200102 756100                    STQ     ROPCON+2,,AUTO
        19 012305   200102 630500                    EPPR0   ROPCON+2,,AUTO
        19 012306   000003 631400 20                 EPPR1   3
        19 012307   000000 701000 xent               TSX1    Z8AF$FORME_ON_SIZE
        19 012310   000000 011000                    NOP     0

      933    16274    3                CALL Z8AF$FORME_ON_SIZE(%CVDQR, ETT$$, 0, ETT$$, ON_SIZE);

  16274 19 012311   200042 630500                    EPPR0   ON_SIZE,,AUTO
        19 012312   200106 450500                    STP0    ROPCON+6,,AUTO
        19 012313   200032 631500                    EPPR1   ETT$$,,AUTO
        19 012314   200105 451500                    STP1    ROPCON+5,,AUTO
        19 012315   000007 236000 20                 LDQ     7
        19 012316   200104 756100                    STQ     ROPCON+4,,AUTO
        19 012317   200032 633500                    EPPR3   ETT$$,,AUTO
        19 012320   200103 453500                    STP3    ROPCON+3,,AUTO
        19 012321   000133 236000 20                 LDQ     91
        19 012322   200102 756100                    STQ     ROPCON+2,,AUTO
        19 012323   200102 630500                    EPPR0   ROPCON+2,,AUTO
        19 012324   000003 631400 20                 EPPR1   3
PL6.E3A0      #001=Z8EV$CONVERT_ROUND_ON_SIZE File=Z8EV.:Z8A6TSI                 SAT 08/09/97 12:49 Page:241
        19 012325   000000 701000 xent               TSX1    Z8AF$FORME_ON_SIZE
        19 012326   000000 011000                    NOP     0
        19 012327   013077 710000 19                 TRA     s:16356

      934    16275
      935    16276    3              CASE (%TYX, %TYY);

      936    16277    3                CALL Z8AE$ERROR (%E$UNEXPECTED_CASE,

  16277 19 012330   200034 236100                    LDQ     FROM$,,AUTO
        19 012331   000006 036003                    ADLQ    6,DU
        19 012332   200104 756100                    STQ     ROPCON+4,,AUTO
        19 012333   200034 236100                    LDQ     FROM$,,AUTO
        19 012334   000005 036003                    ADLQ    5,DU
        19 012335   000017 235000 20                 LDA     15
        19 012336   200102 757100                    STAQ    ROPCON+2,,AUTO
        19 012337   200102 630500                    EPPR0   ROPCON+2,,AUTO
        19 012340   000013 631400 20                 EPPR1   11
        19 012341   000000 701000 xent               TSX1    Z8AE$ERROR
        19 012342   000000 011000                    NOP     0
        19 012343   013077 710000 19                 TRA     s:16356

      937    16278    3                                 FROM$ -> LX_ETT_ITEM.LINE,
      938    16279    3                                 FROM$ -> LX_ETT_ITEM.COLUMN);
      939    16280
      940    16281    3              CASE(%TYT);

      941    16282    3                CALL Z8EC$CREATE_CONST(%TYQ, FROM$, ETT$$)

  16282 19 012344   200032 634500                    EPPR4   ETT$$,,AUTO
        19 012345   200104 454500                    STP4    ROPCON+4,,AUTO
        19 012346   200034 635500                    EPPR5   FROM$,,AUTO
        19 012347   200103 455500                    STP5    ROPCON+3,,AUTO
        19 012350   000141 236000 20                 LDQ     97
        19 012351   200102 756100                    STQ     ROPCON+2,,AUTO
        19 012352   200102 630500                    EPPR0   ROPCON+2,,AUTO
        19 012353   000013 631400 20                 EPPR1   11
PL6.E3A0      #001=Z8EV$CONVERT_ROUND_ON_SIZE File=Z8EV.:Z8A6TSI                 SAT 08/09/97 12:49 Page:242
        19 012354   000000 701000 xent               TSX1    Z8EC$CREATE_CONST
        19 012355   012357 702000 19                 TSX2    s:16298
        19 012356   012376 710000 19                 TRA     s:16319

      942    16283    3                  WHENALTRETURN
      943    16284    4                    DO;

      944    16285                           %CONDITIONAL_ERROR (@LX_ITEM$ = FROM$,
      945    16286                                               @ERROR#   = %E$TRUNCATION_WARN,
      946    16287                                               @LINE     = FROM$ -> LX_ITEM.LINE,
      947    16288                                               @COLUMN   = FROM$ -> LX_ITEM.COLUMN);

  16298 19 012357   200034 470500                    LDP0    FROM$,,AUTO
        19 012360   000000 236100                    LDQ     0,,PR0
        19 012361   400000 316007                    CANQ    -131072,DL
        19 012362   012376 601000 19                 TNZ     s:16319

  16300 19 012363   200034 236100                    LDQ     FROM$,,AUTO
        19 012364   000006 036003                    ADLQ    6,DU
        19 012365   200104 756100                    STQ     ROPCON+4,,AUTO
        19 012366   200034 236100                    LDQ     FROM$,,AUTO
        19 012367   000005 036003                    ADLQ    5,DU
        19 012370   000107 235000 20                 LDA     71
        19 012371   200102 757100                    STAQ    ROPCON+2,,AUTO
        19 012372   200102 630500                    EPPR0   ROPCON+2,,AUTO
        19 012373   000013 631400 20                 EPPR1   11
        19 012374   000000 701000 xent               TSX1    Z8AE$ERROR
        19 012375   000000 011000                    NOP     0

      948    16318    4                    END;

      949    16319    3            END /* Case (%TYQ) */;

  16319 19 012376   013077 710000 19                 TRA     s:16356

      950    16320
      951    16321        %EJECT;
PL6.E3A0      #001=Z8EV$CONVERT_ROUND_ON_SIZE File=Z8EV.:Z8A6TSI                 SAT 08/09/97 12:49 Page:243
      952    16322    2          CASE (%TYN);

      953    16323    3            DO CASE (FROM$ -> LX_ITEM.TYPE);

  16323 19 012377   200034 473500                    LDP3    FROM$,,AUTO
        19 012400   300004 235100                    LDA     4,,PR3
        19 012401   000015 135007                    SBLA    13,DL
        19 012402   000002 115007                    CMPA    2,DL
        19 012403   012405 602005 19                 TNC     s:16323+6,AL
        19 012404   013057 710000 19                 TRA     s:16344
        19 012405   012407 710000 19                 TRA     s:16325
        19 012406   013052 710000 19                 TRA     s:16341

      954    16324    3              CASE (%TYT);

      955    16325    3                CALL Z8EC$CREATE_CONST(%TYN, FROM$, ETT$$);

  16325 19 012407   200032 634500                    EPPR4   ETT$$,,AUTO
        19 012410   200104 454500                    STP4    ROPCON+4,,AUTO
        19 012411   200034 635500                    EPPR5   FROM$,,AUTO
        19 012412   200103 455500                    STP5    ROPCON+3,,AUTO
        19 012413   000143 236000 20                 LDQ     99
        19 012414   200102 756100                    STQ     ROPCON+2,,AUTO
        19 012415   200102 630500                    EPPR0   ROPCON+2,,AUTO
        19 012416   000013 631400 20                 EPPR1   11
        19 012417   000000 701000 xent               TSX1    Z8EC$CREATE_CONST
        19 012420   000000 011000                    NOP     0

      956    16326
      957    16327    3                IF FROM$ -> LX_TERMINAL.B.ALL THEN

  16327 19 012421   200034 470500                    LDP0    FROM$,,AUTO
        19 012422   000000 236100                    LDQ     0,,PR0
        19 012423   040000 316007                    CANQ    16384,DL
        19 012424   012430 600000 19                 TZE     s:16330

      958    16328    3                  ALL = TRUE;
PL6.E3A0      #001=Z8EV$CONVERT_ROUND_ON_SIZE File=Z8EV.:Z8A6TSI                 SAT 08/09/97 12:49 Page:244

  16328 19 012425   400000 236003                    LDQ     -131072,DU
        19 012426   200041 756100                    STQ     ALL,,AUTO
        19 012427   013077 710000 19                 TRA     s:16356

      959    16329    3                ELSE
      960    16330    4                  DO CASE (FROM$ -> LX_TERMINAL.SYMBOL);

  16330 19 012430   000003 235100                    LDA     3,,PR0
        19 012431   000351 135007                    SBLA    233,DL
        19 012432   000411 115007                    CMPA    265,DL
        19 012433   012435 602005 19                 TNC     s:16330+5,AL
        19 012434   013077 710000 19                 TRA     s:16356
        19 012435   013046 710000 19                 TRA     s:16334
        19 012436   013051 710000 19                 TRA     s:16338
        19 012437   013051 710000 19                 TRA     s:16338
        19 012440   013051 710000 19                 TRA     s:16338
        19 012441   013051 710000 19                 TRA     s:16338
        19 012442   013051 710000 19                 TRA     s:16338
        19 012443   013051 710000 19                 TRA     s:16338
        19 012444   013051 710000 19                 TRA     s:16338
        19 012445   013051 710000 19                 TRA     s:16338
        19 012446   013051 710000 19                 TRA     s:16338
        19 012447   013051 710000 19                 TRA     s:16338
        19 012450   013051 710000 19                 TRA     s:16338
        19 012451   013051 710000 19                 TRA     s:16338
        19 012452   013051 710000 19                 TRA     s:16338
        19 012453   013051 710000 19                 TRA     s:16338
        19 012454   013051 710000 19                 TRA     s:16338
        19 012455   013051 710000 19                 TRA     s:16338
        19 012456   013051 710000 19                 TRA     s:16338
        19 012457   013051 710000 19                 TRA     s:16338
        19 012460   013051 710000 19                 TRA     s:16338
        19 012461   013051 710000 19                 TRA     s:16338
        19 012462   013051 710000 19                 TRA     s:16338
        19 012463   013051 710000 19                 TRA     s:16338
        19 012464   013051 710000 19                 TRA     s:16338
PL6.E3A0      #001=Z8EV$CONVERT_ROUND_ON_SIZE File=Z8EV.:Z8A6TSI                 SAT 08/09/97 12:49 Page:245
        19 012465   013051 710000 19                 TRA     s:16338
        19 012466   013051 710000 19                 TRA     s:16338
        19 012467   013051 710000 19                 TRA     s:16338
        19 012470   013051 710000 19                 TRA     s:16338
        19 012471   013051 710000 19                 TRA     s:16338
        19 012472   013051 710000 19                 TRA     s:16338
        19 012473   013051 710000 19                 TRA     s:16338
        19 012474   013051 710000 19                 TRA     s:16338
        19 012475   013051 710000 19                 TRA     s:16338
        19 012476   013051 710000 19                 TRA     s:16338
        19 012477   013051 710000 19                 TRA     s:16338
        19 012500   013051 710000 19                 TRA     s:16338
        19 012501   013051 710000 19                 TRA     s:16338
        19 012502   013051 710000 19                 TRA     s:16338
        19 012503   013051 710000 19                 TRA     s:16338
        19 012504   013051 710000 19                 TRA     s:16338
        19 012505   013051 710000 19                 TRA     s:16338
        19 012506   013051 710000 19                 TRA     s:16338
        19 012507   013051 710000 19                 TRA     s:16338
        19 012510   013051 710000 19                 TRA     s:16338
        19 012511   013051 710000 19                 TRA     s:16338
        19 012512   013051 710000 19                 TRA     s:16338
        19 012513   013051 710000 19                 TRA     s:16338
        19 012514   013051 710000 19                 TRA     s:16338
        19 012515   013051 710000 19                 TRA     s:16338
        19 012516   013051 710000 19                 TRA     s:16338
        19 012517   013046 710000 19                 TRA     s:16334
        19 012520   013051 710000 19                 TRA     s:16338
        19 012521   013051 710000 19                 TRA     s:16338
        19 012522   013051 710000 19                 TRA     s:16338
        19 012523   013051 710000 19                 TRA     s:16338
        19 012524   013051 710000 19                 TRA     s:16338
        19 012525   013051 710000 19                 TRA     s:16338
        19 012526   013051 710000 19                 TRA     s:16338
        19 012527   013051 710000 19                 TRA     s:16338
        19 012530   013051 710000 19                 TRA     s:16338
        19 012531   013051 710000 19                 TRA     s:16338
PL6.E3A0      #001=Z8EV$CONVERT_ROUND_ON_SIZE File=Z8EV.:Z8A6TSI                 SAT 08/09/97 12:49 Page:246
        19 012532   013051 710000 19                 TRA     s:16338
        19 012533   013051 710000 19                 TRA     s:16338
        19 012534   013051 710000 19                 TRA     s:16338
        19 012535   013051 710000 19                 TRA     s:16338
        19 012536   013051 710000 19                 TRA     s:16338
        19 012537   013051 710000 19                 TRA     s:16338
        19 012540   013051 710000 19                 TRA     s:16338
        19 012541   013051 710000 19                 TRA     s:16338
        19 012542   013051 710000 19                 TRA     s:16338
        19 012543   013051 710000 19                 TRA     s:16338
        19 012544   013051 710000 19                 TRA     s:16338
        19 012545   013051 710000 19                 TRA     s:16338
        19 012546   013051 710000 19                 TRA     s:16338
        19 012547   013051 710000 19                 TRA     s:16338
        19 012550   013051 710000 19                 TRA     s:16338
        19 012551   013051 710000 19                 TRA     s:16338
        19 012552   013051 710000 19                 TRA     s:16338
        19 012553   013051 710000 19                 TRA     s:16338
        19 012554   013051 710000 19                 TRA     s:16338
        19 012555   013051 710000 19                 TRA     s:16338
        19 012556   013051 710000 19                 TRA     s:16338
        19 012557   013051 710000 19                 TRA     s:16338
        19 012560   013051 710000 19                 TRA     s:16338
        19 012561   013051 710000 19                 TRA     s:16338
        19 012562   013051 710000 19                 TRA     s:16338
        19 012563   013051 710000 19                 TRA     s:16338
        19 012564   013051 710000 19                 TRA     s:16338
        19 012565   013051 710000 19                 TRA     s:16338
        19 012566   013051 710000 19                 TRA     s:16338
        19 012567   013051 710000 19                 TRA     s:16338
        19 012570   013051 710000 19                 TRA     s:16338
        19 012571   013051 710000 19                 TRA     s:16338
        19 012572   013051 710000 19                 TRA     s:16338
        19 012573   013051 710000 19                 TRA     s:16338
        19 012574   013051 710000 19                 TRA     s:16338
        19 012575   013051 710000 19                 TRA     s:16338
        19 012576   013051 710000 19                 TRA     s:16338
PL6.E3A0      #001=Z8EV$CONVERT_ROUND_ON_SIZE File=Z8EV.:Z8A6TSI                 SAT 08/09/97 12:49 Page:247
        19 012577   013051 710000 19                 TRA     s:16338
        19 012600   013051 710000 19                 TRA     s:16338
        19 012601   013051 710000 19                 TRA     s:16338
        19 012602   013051 710000 19                 TRA     s:16338
        19 012603   013051 710000 19                 TRA     s:16338
        19 012604   013051 710000 19                 TRA     s:16338
        19 012605   013051 710000 19                 TRA     s:16338
        19 012606   013051 710000 19                 TRA     s:16338
        19 012607   013051 710000 19                 TRA     s:16338
        19 012610   013051 710000 19                 TRA     s:16338
        19 012611   013051 710000 19                 TRA     s:16338
        19 012612   013051 710000 19                 TRA     s:16338
        19 012613   013051 710000 19                 TRA     s:16338
        19 012614   013051 710000 19                 TRA     s:16338
        19 012615   013051 710000 19                 TRA     s:16338
        19 012616   013051 710000 19                 TRA     s:16338
        19 012617   013051 710000 19                 TRA     s:16338
        19 012620   013051 710000 19                 TRA     s:16338
        19 012621   013051 710000 19                 TRA     s:16338
        19 012622   013051 710000 19                 TRA     s:16338
        19 012623   013051 710000 19                 TRA     s:16338
        19 012624   013051 710000 19                 TRA     s:16338
        19 012625   013051 710000 19                 TRA     s:16338
        19 012626   013051 710000 19                 TRA     s:16338
        19 012627   013046 710000 19                 TRA     s:16334
        19 012630   013051 710000 19                 TRA     s:16338
        19 012631   013051 710000 19                 TRA     s:16338
        19 012632   013051 710000 19                 TRA     s:16338
        19 012633   013051 710000 19                 TRA     s:16338
        19 012634   013051 710000 19                 TRA     s:16338
        19 012635   013051 710000 19                 TRA     s:16338
        19 012636   013051 710000 19                 TRA     s:16338
        19 012637   013051 710000 19                 TRA     s:16338
        19 012640   013051 710000 19                 TRA     s:16338
        19 012641   013051 710000 19                 TRA     s:16338
        19 012642   013051 710000 19                 TRA     s:16338
        19 012643   013051 710000 19                 TRA     s:16338
PL6.E3A0      #001=Z8EV$CONVERT_ROUND_ON_SIZE File=Z8EV.:Z8A6TSI                 SAT 08/09/97 12:49 Page:248
        19 012644   013051 710000 19                 TRA     s:16338
        19 012645   013051 710000 19                 TRA     s:16338
        19 012646   013051 710000 19                 TRA     s:16338
        19 012647   013051 710000 19                 TRA     s:16338
        19 012650   013051 710000 19                 TRA     s:16338
        19 012651   013051 710000 19                 TRA     s:16338
        19 012652   013051 710000 19                 TRA     s:16338
        19 012653   013051 710000 19                 TRA     s:16338
        19 012654   013051 710000 19                 TRA     s:16338
        19 012655   013051 710000 19                 TRA     s:16338
        19 012656   013051 710000 19                 TRA     s:16338
        19 012657   013051 710000 19                 TRA     s:16338
        19 012660   013051 710000 19                 TRA     s:16338
        19 012661   013051 710000 19                 TRA     s:16338
        19 012662   013051 710000 19                 TRA     s:16338
        19 012663   013051 710000 19                 TRA     s:16338
        19 012664   013051 710000 19                 TRA     s:16338
        19 012665   013051 710000 19                 TRA     s:16338
        19 012666   013051 710000 19                 TRA     s:16338
        19 012667   013051 710000 19                 TRA     s:16338
        19 012670   013051 710000 19                 TRA     s:16338
        19 012671   013051 710000 19                 TRA     s:16338
        19 012672   013051 710000 19                 TRA     s:16338
        19 012673   013051 710000 19                 TRA     s:16338
        19 012674   013051 710000 19                 TRA     s:16338
        19 012675   013051 710000 19                 TRA     s:16338
        19 012676   013051 710000 19                 TRA     s:16338
        19 012677   013051 710000 19                 TRA     s:16338
        19 012700   013051 710000 19                 TRA     s:16338
        19 012701   013051 710000 19                 TRA     s:16338
        19 012702   013051 710000 19                 TRA     s:16338
        19 012703   013051 710000 19                 TRA     s:16338
        19 012704   013051 710000 19                 TRA     s:16338
        19 012705   013051 710000 19                 TRA     s:16338
        19 012706   013051 710000 19                 TRA     s:16338
        19 012707   013051 710000 19                 TRA     s:16338
        19 012710   013051 710000 19                 TRA     s:16338
PL6.E3A0      #001=Z8EV$CONVERT_ROUND_ON_SIZE File=Z8EV.:Z8A6TSI                 SAT 08/09/97 12:49 Page:249
        19 012711   013051 710000 19                 TRA     s:16338
        19 012712   013051 710000 19                 TRA     s:16338
        19 012713   013051 710000 19                 TRA     s:16338
        19 012714   013051 710000 19                 TRA     s:16338
        19 012715   013051 710000 19                 TRA     s:16338
        19 012716   013051 710000 19                 TRA     s:16338
        19 012717   013051 710000 19                 TRA     s:16338
        19 012720   013051 710000 19                 TRA     s:16338
        19 012721   013051 710000 19                 TRA     s:16338
        19 012722   013051 710000 19                 TRA     s:16338
        19 012723   013051 710000 19                 TRA     s:16338
        19 012724   013051 710000 19                 TRA     s:16338
        19 012725   013051 710000 19                 TRA     s:16338
        19 012726   013051 710000 19                 TRA     s:16338
        19 012727   013051 710000 19                 TRA     s:16338
        19 012730   013051 710000 19                 TRA     s:16338
        19 012731   013051 710000 19                 TRA     s:16338
        19 012732   013051 710000 19                 TRA     s:16338
        19 012733   013051 710000 19                 TRA     s:16338
        19 012734   013046 710000 19                 TRA     s:16334
        19 012735   013051 710000 19                 TRA     s:16338
        19 012736   013051 710000 19                 TRA     s:16338
        19 012737   013051 710000 19                 TRA     s:16338
        19 012740   013051 710000 19                 TRA     s:16338
        19 012741   013051 710000 19                 TRA     s:16338
        19 012742   013051 710000 19                 TRA     s:16338
        19 012743   013051 710000 19                 TRA     s:16338
        19 012744   013051 710000 19                 TRA     s:16338
        19 012745   013051 710000 19                 TRA     s:16338
        19 012746   013051 710000 19                 TRA     s:16338
        19 012747   013051 710000 19                 TRA     s:16338
        19 012750   013051 710000 19                 TRA     s:16338
        19 012751   013051 710000 19                 TRA     s:16338
        19 012752   013051 710000 19                 TRA     s:16338
        19 012753   013051 710000 19                 TRA     s:16338
        19 012754   013051 710000 19                 TRA     s:16338
        19 012755   013051 710000 19                 TRA     s:16338
PL6.E3A0      #001=Z8EV$CONVERT_ROUND_ON_SIZE File=Z8EV.:Z8A6TSI                 SAT 08/09/97 12:49 Page:250
        19 012756   013051 710000 19                 TRA     s:16338
        19 012757   013051 710000 19                 TRA     s:16338
        19 012760   013051 710000 19                 TRA     s:16338
        19 012761   013051 710000 19                 TRA     s:16338
        19 012762   013051 710000 19                 TRA     s:16338
        19 012763   013051 710000 19                 TRA     s:16338
        19 012764   013051 710000 19                 TRA     s:16338
        19 012765   013051 710000 19                 TRA     s:16338
        19 012766   013051 710000 19                 TRA     s:16338
        19 012767   013051 710000 19                 TRA     s:16338
        19 012770   013051 710000 19                 TRA     s:16338
        19 012771   013051 710000 19                 TRA     s:16338
        19 012772   013051 710000 19                 TRA     s:16338
        19 012773   013051 710000 19                 TRA     s:16338
        19 012774   013051 710000 19                 TRA     s:16338
        19 012775   013051 710000 19                 TRA     s:16338
        19 012776   013051 710000 19                 TRA     s:16338
        19 012777   013051 710000 19                 TRA     s:16338
        19 013000   013051 710000 19                 TRA     s:16338
        19 013001   013051 710000 19                 TRA     s:16338
        19 013002   013051 710000 19                 TRA     s:16338
        19 013003   013051 710000 19                 TRA     s:16338
        19 013004   013051 710000 19                 TRA     s:16338
        19 013005   013051 710000 19                 TRA     s:16338
        19 013006   013051 710000 19                 TRA     s:16338
        19 013007   013051 710000 19                 TRA     s:16338
        19 013010   013051 710000 19                 TRA     s:16338
        19 013011   013051 710000 19                 TRA     s:16338
        19 013012   013051 710000 19                 TRA     s:16338
        19 013013   013051 710000 19                 TRA     s:16338
        19 013014   013051 710000 19                 TRA     s:16338
        19 013015   013051 710000 19                 TRA     s:16338
        19 013016   013051 710000 19                 TRA     s:16338
        19 013017   013051 710000 19                 TRA     s:16338
        19 013020   013051 710000 19                 TRA     s:16338
        19 013021   013051 710000 19                 TRA     s:16338
        19 013022   013051 710000 19                 TRA     s:16338
PL6.E3A0      #001=Z8EV$CONVERT_ROUND_ON_SIZE File=Z8EV.:Z8A6TSI                 SAT 08/09/97 12:49 Page:251
        19 013023   013051 710000 19                 TRA     s:16338
        19 013024   013051 710000 19                 TRA     s:16338
        19 013025   013051 710000 19                 TRA     s:16338
        19 013026   013051 710000 19                 TRA     s:16338
        19 013027   013051 710000 19                 TRA     s:16338
        19 013030   013051 710000 19                 TRA     s:16338
        19 013031   013051 710000 19                 TRA     s:16338
        19 013032   013051 710000 19                 TRA     s:16338
        19 013033   013051 710000 19                 TRA     s:16338
        19 013034   013051 710000 19                 TRA     s:16338
        19 013035   013051 710000 19                 TRA     s:16338
        19 013036   013051 710000 19                 TRA     s:16338
        19 013037   013051 710000 19                 TRA     s:16338
        19 013040   013051 710000 19                 TRA     s:16338
        19 013041   013051 710000 19                 TRA     s:16338
        19 013042   013051 710000 19                 TRA     s:16338
        19 013043   013051 710000 19                 TRA     s:16338
        19 013044   013051 710000 19                 TRA     s:16338
        19 013045   013046 710000 19                 TRA     s:16334

      961    16331    4                    CASE (%RSV_WRD_HIGH_VALUES, %RSV_WRD_LOW_VALUES,

      962    16332    4                          %RSV_WRD_QUOTES,      %RSV_WRD_SPACES,
      963    16333    4                          %RSV_WRD_ZEROES);
      964    16334    4                      ALL = TRUE;

  16334 19 013046   400000 236003                    LDQ     -131072,DU
        19 013047   200041 756100                    STQ     ALL,,AUTO
        19 013050   013077 710000 19                 TRA     s:16356

      965    16335
      966    16336    4                    CASE (ELSE);

      967    16337    4                      /* No all */;
      968    16338    4                  END;

  16338 19 013051   013077 710000 19                 TRA     s:16356
PL6.E3A0      #001=Z8EV$CONVERT_ROUND_ON_SIZE File=Z8EV.:Z8A6TSI                 SAT 08/09/97 12:49 Page:252

      969    16339
      970    16340    3              CASE (%TYN);

      971    16341    3                ALL = FROM$ -> LX_ETT_ITEM.B.ALL;

  16341 19 013052   300000 236100                    LDQ     0,,PR3
        19 013053   000025 736000                    QLS     21
        19 013054   400000 376003                    ANQ     -131072,DU
        19 013055   200041 756100                    STQ     ALL,,AUTO
        19 013056   013077 710000 19                 TRA     s:16356

      972    16342
      973    16343    3              CASE (ELSE);

      974    16344    3                CALL Z8AE$ERROR (%E$MIXING_TYN_WITH_TYA,

  16344 19 013057   200034 236100                    LDQ     FROM$,,AUTO
        19 013060   000006 036003                    ADLQ    6,DU
        19 013061   200104 756100                    STQ     ROPCON+4,,AUTO
        19 013062   200034 236100                    LDQ     FROM$,,AUTO
        19 013063   000005 036003                    ADLQ    5,DU
        19 013064   000145 235000 20                 LDA     101
        19 013065   200102 757100                    STAQ    ROPCON+2,,AUTO
        19 013066   200102 630500                    EPPR0   ROPCON+2,,AUTO
        19 013067   000013 631400 20                 EPPR1   11
        19 013070   000000 701000 xent               TSX1    Z8AE$ERROR
        19 013071   000000 011000                    NOP     0

      975    16345    3                                 FROM$ -> LX_ETT_ITEM.LINE,
      976    16346    3                                 FROM$ -> LX_ETT_ITEM.COLUMN);
      977    16347    3            END /* Case (%TYN) */;

  16347 19 013072   013077 710000 19                 TRA     s:16356

      978    16348        %EJECT;
PL6.E3A0      #001=Z8EV$CONVERT_ROUND_ON_SIZE File=Z8EV.:Z8A6TSI                 SAT 08/09/97 12:49 Page:253
      979    16349    2            CASE(ELSE);

      980    16350    2              CALL Z8AE$ERROR(%E$UNEXPECTED_CASE);

  16350 19 013073   000017 630400 20                 EPPR0   15
        19 013074   000065 631400 20                 EPPR1   53
        19 013075   000000 701000 xent               TSX1    Z8AE$ERROR
        19 013076   000000 011000                    NOP     0

      981    16351
      982    16352
      983    16353    2        END /* case (TYPE) */;

      984    16354
      985    16355
      986    16356    1        RETURN$ -> LX_ETT_ITEM = FROM$ -> LX_ETT_ITEM;

  16356 19 013077   200005 470500                    LDP0    @RETURN$,,AUTO
        19 013100   000000 471500                    LDP1    0,,PR0
        19 013101   200034 473500                    LDP3    FROM$,,AUTO
        19 013102   000100 100500                    MLR     fill='000'O
        19 013103   300000 000040                    ADSC9   0,,PR3                   cn=0,n=32
        19 013104   100000 000040                    ADSC9   0,,PR1                   cn=0,n=32

      987    16357
      988    16358    1        IF RETURN$ = FROM$$ THEN

  16358 19 013105   200004 471500                    LDP1    @FROM$$,,AUTO
        19 013106   000000 236100                    LDQ     0,,PR0
        19 013107   100000 116100                    CMPQ    0,,PR1
        19 013110   013132 601000 19                 TNZ     s:16371

      989    16359    2          DO;

      990    16360    2            RETURN$ -> LX_ETT_ITEM.ID = %LX_ETT_ITEM;

  16360 19 013111   000000 473500                    LDP3    0,,PR0
PL6.E3A0      #001=Z8EV$CONVERT_ROUND_ON_SIZE File=Z8EV.:Z8A6TSI                 SAT 08/09/97 12:49 Page:254
        19 013112   000004 220003                    LDX0    4,DU
        19 013113   300000 740100                    STX0    0,,PR3

      991    16361    2            RETURN$ -> LX_ETT_ITEM.TYPE = TYPE;

  16361 19 013114   000000 473500                    LDP3    0,,PR0
        19 013115   200003 474500                    LDP4    @TYPE,,AUTO
        19 013116   400000 235100                    LDA     0,,PR4
        19 013117   300004 755100                    STA     4,,PR3

      992    16362    2            RETURN$ -> LX_ETT_ITEM.ETT$ = ETT$$;

  16362 19 013120   000000 473500                    LDP3    0,,PR0
        19 013121   200032 236100                    LDQ     ETT$$,,AUTO
        19 013122   300001 756100                    STQ     1,,PR3

      993    16363    2            RETURN$ -> LX_ETT_ITEM.B.ALL = ALL;

  16363 19 013123   000000 473500                    LDP3    0,,PR0
        19 013124   200041 236100                    LDQ     ALL,,AUTO
        19 013125   000025 772000                    QRL     21
        19 013126   300000 676100                    ERQ     0,,PR3
        19 013127   040000 376007                    ANQ     16384,DL
        19 013130   300000 656100                    ERSQ    0,,PR3

      994    16364    2          END;

  16364 19 013131   013171 710000 19                 TRA     s:16392

      995    16365    1        ELSE
      996    16366               %INIT_LX_ETT_ITEM (@POINTER = RETURN$,
      997    16367                                  @TYPE    = TYPE,
      998    16368                                  @ETT$    = ETT$$,
      999    16369                                  @ALL     = ALL);

  16371 19 013132   000000 473500                    LDP3    0,,PR0
        19 013133   000004 220003                    LDX0    4,DU
PL6.E3A0      #001=Z8EV$CONVERT_ROUND_ON_SIZE File=Z8EV.:Z8A6TSI                 SAT 08/09/97 12:49 Page:255
        19 013134   300000 740100                    STX0    0,,PR3

  16372 19 013135   000000 473500                    LDP3    0,,PR0
        19 013136   000000 221003                    LDX1    0,DU
        19 013137   300000 441100                    SXL1    0,,PR3

  16373 19 013140   000000 473500                    LDP3    0,,PR0
        19 013141   200003 474500                    LDP4    @TYPE,,AUTO
        19 013142   400000 235100                    LDA     0,,PR4
        19 013143   300004 755100                    STA     4,,PR3

  16374 19 013144   000000 473500                    LDP3    0,,PR0
        19 013145   000064 236000 20                 LDQ     52
        19 013146   300007 756100                    STQ     7,,PR3

  16375 19 013147   000000 473500                    LDP3    0,,PR0
        19 013150   200032 236100                    LDQ     ETT$$,,AUTO
        19 013151   300001 756100                    STQ     1,,PR3

  16376 19 013152   000000 473500                    LDP3    0,,PR0
        19 013153   000064 236000 20                 LDQ     52
        19 013154   300002 756100                    STQ     2,,PR3

  16378 19 013155   000000 473500                    LDP3    0,,PR0
        19 013156   000133 235000 xsym               LDA     COMCOM+91
        19 013157   300005 755100                    STA     5,,PR3

  16379 19 013160   000000 473500                    LDP3    0,,PR0
        19 013161   000134 235000 xsym               LDA     COMCOM+92
        19 013162   300006 755100                    STA     6,,PR3

  16384 19 013163   000000 473500                    LDP3    0,,PR0
        19 013164   200041 236100                    LDQ     ALL,,AUTO
        19 013165   000025 772000                    QRL     21
        19 013166   300000 676100                    ERQ     0,,PR3
        19 013167   040000 376007                    ANQ     16384,DL
        19 013170   300000 656100                    ERSQ    0,,PR3
PL6.E3A0      #001=Z8EV$CONVERT_ROUND_ON_SIZE File=Z8EV.:Z8A6TSI                 SAT 08/09/97 12:49 Page:256

     1000    16391
     1001    16392    1   END Z8EV$CONVERT_ROUND_ON_SIZE;

  16392 19 013171   000000 702200 xent               TSX2  ! X66_ARET
     1002    16393        %EOD;

PL6.E3A0      #001=Z8EV$CONVERT_ROUND_ON_SIZE File=Z8EV.:Z8A6TSI                 SAT 08/09/97 12:49 Page:257
--  Include file information  --

   Z8A_ERR_NUMS.:Z8A6TOU  is referenced.
   Z8A_MKCN.:Z8A6TOU  cannot be made into a system file and is referenced.
   Z8E_O1COM.:Z8A6TOU  cannot be made into a system file and is referenced.
   Z8E_TABLES.:Z8A6TOU  cannot be made into a system file and is referenced.
   Z8A_LEX_SYMB.:Z8A6TOU  cannot be made into a system file and is referenced.
   Z8E_STACKS.:Z8A6TOU  cannot be made into a system file and is referenced.
   Z8E_NEW_ILL.:Z8A6TOU  is referenced.
   Z8E_MACROS.:Z8A6TOU  cannot be made into a system file and is referenced.
   Z8E_WINDOW.:Z8A6TOU  is referenced.
   Z8E_HEAP.:Z8A6TOU  cannot be made into a system file and is referenced.
   Z8A_COMCOM.:Z8A6TOU  cannot be made into a system file and is referenced.
   Z8A_DESC.:Z8A6TOU  cannot be made into a system file and is referenced.
   Z8A_SRCH.:Z8A6TOU  cannot be made into a system file and is referenced.
   Z8A_TYPES.:Z8A6TOU  is referenced.
   Z8A_LIBRARY.:Z8A6TOU  cannot be made into a system file and is referenced.
   Z8A_DNT.:Z8A6TOU  cannot be made into a system file and is referenced.
   Z8A_ST.:Z8A6TOU  cannot be made into a system file and is referenced.
   Z8A_ETT.:Z8A6TOU  cannot be made into a system file and is referenced.
   X8A_COM_MACS.:X8A6TOU  is referenced.
   Z8A_NAMES.:Z8A6TOU  is referenced.
   Z8A_SUPP_MAC.:Z8A6TOU  is referenced.
   Z8A_DEFC.:Z8A6TOU  cannot be made into a system file and is referenced.
      No diagnostics issued in procedure Z8EV$CONVERT_ROUND_ON_SIZE.
PL6.E3A0      #001=Z8EV$CONVERT_ROUND_ON_SIZE File=Z8EV.:Z8A6TSI                 SAT 08/09/97 12:49 Page:258

 **** Variables and constants ****

  ****  Section 000 LblCom ITERATION

  ****  Scalars and arrays  ****
OctLoc.c.b A Datatyp(siz) R M Lvl/name                 OctLoc.c.b A Datatyp(siz) R M Lvl/name

     0-0-0/w SBIN              1 ITERATION

  ****  Section 001 LblCom ETT$

  ****  Scalars and arrays  ****
OctLoc.c.b A Datatyp(siz) R M Lvl/name                 OctLoc.c.b A Datatyp(siz) R M Lvl/name

     0-0-0/w PTR         r     1 ETT$

  ****  Section 002 LblCom HEAD_ETT$

  ****  Scalars and arrays  ****
OctLoc.c.b A Datatyp(siz) R M Lvl/name                 OctLoc.c.b A Datatyp(siz) R M Lvl/name

     0-0-0/w PTR               1 HEAD_ETT$

  ****  Section 003 LblCom ETT_BUCKETS

  ****  Scalars and arrays  ****
OctLoc.c.b A Datatyp(siz) R M Lvl/name                 OctLoc.c.b A Datatyp(siz) R M Lvl/name

     0-0-0/w PTR               1 ETT_BUCKETS(0:511)

  ****  Section 004 LblCom ETT_

  ****  Scalars and arrays  ****
OctLoc.c.b A Datatyp(siz) R M Lvl/name                 OctLoc.c.b A Datatyp(siz) R M Lvl/name

     0-0-0/w STRC(180)         1 ETT_

PL6.E3A0      #001=Z8EV$CONVERT_ROUND_ON_SIZE File=Z8EV.:Z8A6TSI                 SAT 08/09/97 12:49 Page:259
  ****  Section 005 LblCom ST$

  ****  Scalars and arrays  ****
OctLoc.c.b A Datatyp(siz) R M Lvl/name                 OctLoc.c.b A Datatyp(siz) R M Lvl/name

     0-0-0/w PTR         r     1 ST$

  ****  Section 006 LblCom ST_

  ****  Scalars and arrays  ****
OctLoc.c.b A Datatyp(siz) R M Lvl/name                 OctLoc.c.b A Datatyp(siz) R M Lvl/name

     0-0-0/w STRC(180)         1 ST_

  ****  Section 007 LblCom DNT$

  ****  Scalars and arrays  ****
OctLoc.c.b A Datatyp(siz) R M Lvl/name                 OctLoc.c.b A Datatyp(siz) R M Lvl/name

     0-0-0/w PTR         r     1 DNT$

  ****  Section 008 LblCom DNT_

  ****  Scalars and arrays  ****
OctLoc.c.b A Datatyp(siz) R M Lvl/name                 OctLoc.c.b A Datatyp(siz) R M Lvl/name

     0-0-0/w STRC(180)         1 DNT_

  ****  Section 009 LblCom DNT_BUCKET_NUMBER

  ****  Scalars and arrays  ****
OctLoc.c.b A Datatyp(siz) R M Lvl/name                 OctLoc.c.b A Datatyp(siz) R M Lvl/name

     0-0-0/w UBIN              1 DNT_BUCKET_NUMBER

  ****  Section 010 LblCom DNT_OF_1$

PL6.E3A0      #001=Z8EV$CONVERT_ROUND_ON_SIZE File=Z8EV.:Z8A6TSI                 SAT 08/09/97 12:49 Page:260
  ****  Scalars and arrays  ****
OctLoc.c.b A Datatyp(siz) R M Lvl/name                 OctLoc.c.b A Datatyp(siz) R M Lvl/name

     0-0-0/w PTR               1 DNT_OF_1$

  ****  Section 011 LblCom SRCH

  ****  Scalars and arrays  ****
OctLoc.c.b A Datatyp(siz) R M Lvl/name                 OctLoc.c.b A Datatyp(siz) R M Lvl/name

     0-0-0/w STRC(108)         1 SRCH

  ****  Section 012 LblCom HEAP$

  ****  Scalars and arrays  ****
OctLoc.c.b A Datatyp(siz) R M Lvl/name                 OctLoc.c.b A Datatyp(siz) R M Lvl/name

     0-0-0/w PTR               1 HEAP$

  ****  Section 013 LblCom LEX_SYMBOL

  ****  Scalars and arrays  ****
OctLoc.c.b A Datatyp(siz) R M Lvl/name                 OctLoc.c.b A Datatyp(siz) R M Lvl/name

     0-0-0/w STRC(3240)  r     1 LEX_SYMBOL                 0-0-0/w STRC(3240)        1 LEX_SYMBOL_WORDS

  ****  Section 014 LblCom CURRENT_LEX_SYMBOL$

  ****  Scalars and arrays  ****
OctLoc.c.b A Datatyp(siz) R M Lvl/name                 OctLoc.c.b A Datatyp(siz) R M Lvl/name

     0-0-0/w PTR         r     1 CURRENT_LEX_SYMBOL$

  ****  Section 015 LblCom TEMP_LEX_SYMBOL

  ****  Scalars and arrays  ****
OctLoc.c.b A Datatyp(siz) R M Lvl/name                 OctLoc.c.b A Datatyp(siz) R M Lvl/name
PL6.E3A0      #001=Z8EV$CONVERT_ROUND_ON_SIZE File=Z8EV.:Z8A6TSI                 SAT 08/09/97 12:49 Page:261

     0-0-0/w STRC(3240)        1 TEMP_LEX_SYMBOL

  ****  Section 016 LblCom TEMP_LEX_SYMBOL2

  ****  Scalars and arrays  ****
OctLoc.c.b A Datatyp(siz) R M Lvl/name                 OctLoc.c.b A Datatyp(siz) R M Lvl/name

     0-0-0/w STRC(3240)        1 TEMP_LEX_SYMBOL2

  ****  Section 017 LblCom MKCN

  ****  Scalars and arrays  ****
OctLoc.c.b A Datatyp(siz) R M Lvl/name                 OctLoc.c.b A Datatyp(siz) R M Lvl/name

     0-0-0/w STRC(72)    r     1 MKCN

  ****  Auto variables  ****

  ****  Scalars and arrays  ****
OctLoc.c.b A Datatyp(siz) R M Lvl/name                 OctLoc.c.b A Datatyp(siz) R M Lvl/name

    10-0-0/w PTR         r     1 @DEST_DESC                73-0-0/w PTR         r     1 @ETT$$
     4-0-0/w PTR         r     1 @FROM$$                    6-0-0/w PTR         r     1 @ON_SIZE_FLAG
     5-0-0/w PTR         r     1 @RETURN$                   7-0-0/w PTR         r     1 @ROUND_FLAG
     3-0-0/w PTR         r     1 @TYPE                     41-0-0/w BIT         r     1 ALL
    30-0-0/w UBIN              1 CN                        22-0-0/w STRC              1 DESC
    *0-0-0/w BIT         r     1 DEST_DESC                 32-0-0/w PTR         r     1 ETT$$
    *0-0-0/w PTR         r     1 ETT$$                     34-0-0/w PTR         r     1 FROM$
    *0-0-0/w PTR         r     1 FROM$$                    37-0-0/w SBIN        r     1 I
    27-0-0/w SBIN        r     1 LENGTH                    35-0-0/w PTR         r     1 LOP$
    40-0-0/w SBIN        r     1 N                         11-0-0/w STRC(324)         1 NAME
    42-0-0/w BIT         r     1 ON_SIZE                   *0-0-0/w BIT         r     1 ON_SIZE_FLAG
    *0-0-0/w PTR         r     1 RETURN$                   36-0-0/w PTR         r     1 ROP$
    50-0-0/w STRC              1 ROPCON                   100-0-0/w STRC        r     1 ROPCON
    43-0-0/w BIT         r     1 ROUND                     *0-0-0/w BIT         r     1 ROUND_FLAG
    31-0-0/w UBIN              1 SA                        26-0-0/w SBIN        r     1 SCALE
PL6.E3A0      #001=Z8EV$CONVERT_ROUND_ON_SIZE File=Z8EV.:Z8A6TSI                 SAT 08/09/97 12:49 Page:262
    23-0-0/w BIT (2)     r     1 SIGN                      25-0-0/w BIT (2)           1 TA
    33-0-0/w PTR         r     1 TABLE_ETT$                52-0-0/d STRC(288)   r     1 TEMP_LX_ITEM
    62-0-0/d STRC(288)   r     1 TEMP_LX_ITEM1             24-0-0/w BIT         r     1 TN
    *0-0-0/w SBIN        r     1 TYPE                      44-0-0/w STRC(144)   r     1 TYPE_DESC
    74-0-0/w STRC(144)   r     1 TYPE_DESC

  ****  SYMREF variables  ****

  ****  Scalars and arrays  ****
OctLoc.c.b A Datatyp(siz) R M Lvl/name                 OctLoc.c.b A Datatyp(siz) R M Lvl/name

     0-0-0/w STRC(4608)        1 ANSI_USERWORD_SCAN_TABLE
     0-0-0/w STRC(4608)        1 ASCII_SEARCH_TABLE         0-0-0/w STRC(4608)        1 BLANK_SCAN_TABLE
     0-0-0/d STRC(13248) r     1 COMCOM
     0-0-0/c CHAR              1 CURRENCY_SIGN_CHARS(0:511)
     0-0-0/w STRC(4608)        1 DBL_QUOTE_PSEUDO_SEARCH_TABLE
     0-0-0/w STRC(4608)  r     1 DIGIT_SCAN_TABLE
     0-0-0/w STRC(4608)        1 DOUBLE_QUOTE_SEARCH_TABLE
     0-0-0/w STRC(180)         1 HIER_STK(0:50)
     0-0-0/w SBIN              1 HIER_STK_PTR               0-0-0/w STRC(4608)        1 LETTER_SEARCH_TABLE
     0-0-0/c CHAR              1 LOWER_TO_UPPER_CASE(0:511)
     0-0-0/d STRC(11580)       1 O1COM                      0-0-0/w STRC(144)         1 PAGE_FORMAT
     0-0-0/w STRC(153)         1 REP_STK(0:50)              0-0-0/w SBIN              1 REP_STK_PTR
     0-0-0/w STRC(4608)        1 SEPARATORS_TABLE
     0-0-0/w STRC(4608)        1 SINGLE_QUOTE_SEARCH_TABLE
     0-0-0/w STRC(4608)        1 SNGL_QUOTE_PSEUDO_SEARCH_TABLE
     0-0-0/w STRC(4608)        1 USERWORD_SCAN_TABLE

  ****  BASED and DCB variables  ****

  ****  Scalars and arrays  ****
OctLoc.c.b A Datatyp(siz) R M Lvl/name                 OctLoc.c.b A Datatyp(siz) R M Lvl/name

     0-0-0/w STRC(288)         1 ADD_STMT                   0-0-0/w STRC(396)         1 ALPHABET
     0-0-0/w STRC(396)         1 ARRAY                      0-0-0/w ASTR(324)   r     1 BASED_LEX_SYMBOL
     0-0-0/w STRC(360)         1 BASED_LEX_SYMBOL_WORDS
     0-0-0/w STRC(288)         1 BINARY_OP                  0-0-0/w STRC(396)         1 BLOCK
PL6.E3A0      #001=Z8EV$CONVERT_ROUND_ON_SIZE File=Z8EV.:Z8A6TSI                 SAT 08/09/97 12:49 Page:263
     0-0-0/w STRC(288)         1 CALL_STMT                  0-0-0/w STRC(396)         1 CD
     0-0-0/w CHAR(4096)        1 CHARS                      0-0-0/w STRC(396)         1 CLASS
     0-0-0/w STRC(288)         1 COMPUTE_STMT               0-0-0/w STRC(396)         1 CONDITION
     0-0-0/w STRC(396)         1 CONST                      0-0-0/w STRC(72)          1 CONT
     0-0-0/w STRC(396)         1 DB                         0-0-0/w STRC(396)         1 DCB_
     0-0-0/w STRC(288)         1 DEFERED_IDENTIFIER         0-0-0/w STRC(252)         1 DEFERED_ID_TREE
     0-0-0/w STRC(288)         1 DEFERED_QUAL_ID            0-0-0/w STRC(288)         1 DEFERED_SUM_CLAUSE
     0-0-0/w STRC(288)         1 DEFERED_SUM_CLAUSE_LIST
     0-0-0/w STRC(288)         1 DELETE_STMT                0-0-0/w STRC(288)         1 DIVIDE_STMT
     0-0-0/w STRC(396)         1 DML_ITEM                   0-0-0/w ASTR(180)   r     1 DNT
     0-0-0/w STRC(180)   r     1 ETT                        0-0-0/w STRC(396)         1 FD
     0-0-0/w STRC(288)         1 ILS_LIST                   0-0-0/w STRC(288)         1 INSPECT_1_STMT
     0-0-0/w STRC(288)         1 INSPECT_2_STMT             0-0-0/w STRC(288)         1 INSPECT_4_STMT
     0-0-0/w STRC(396)         1 INTDEF                     0-0-0/w STRC(396)         1 LABEL
     0-0-0/w STRC(288)         1 LA_ITEM                    0-0-0/w STRC(504)         1 LX_CD_INPUT
     0-0-0/w STRC(324)         1 LX_CD_I_O                  0-0-0/w STRC(396)         1 LX_CD_OUTPUT
     0-0-0/w STRC(288)   r     1 LX_ETT_ITEM                0-0-0/w STRC(288)   r     1 LX_ITEM
     0-0-0/w STRC(288)         1 LX_LARGE                   0-0-0/w STRC(288)         1 LX_LIST
     0-0-0/w STRC(1224)        1 LX_REC_DECL                0-0-0/w STRC(864)         1 LX_REPORT_REC
     0-0-0/w STRC(288)   r     1 LX_TERMINAL                0-0-0/w STRC(396)         1 MNEMONIC
     0-0-0/w STRC(288)         1 MULTIPLY_STMT              0-0-0/w STRC(36864)       1 PAGE
     0-0-0/w STRC(396)         1 PARA                       0-0-0/w STRC(396)         1 PROC_
     0-0-0/w STRC(396)         1 PROC_DEF                   0-0-0/w STRC(396)         1 RD
     0-0-0/w STRC(288)         1 READ_STMT                  0-0-0/w STRC(288)         1 REWRITE_STMT
     0-0-0/w STRC(396)         1 SCALAR                     0-0-0/w STRC(396)         1 SD
     0-0-0/w STRC(396)         1 SECTION                    0-0-0/w STRC(396)         1 SEGMENT
     0-0-0/w STRC(396)         1 ST                         0-0-0/w STRC(288)         1 START_STMT
     0-0-0/w STRC(252)         1 STRING_STMT                0-0-0/w STRC(288)         1 SUBTRACT_STMT
     0-0-0/w STRC(396)         1 SWITCH                     0-0-0/w STRC(396)         1 SYMBOLIC_CHAR
     0-0-0/w STRC(396)         1 SYMDEF_                    0-0-0/w STRC(396)         1 SYMREF_
     0-0-0/w STRC(396)         1 TEMP                       0-0-0/w STRC(288)         1 UNARY_OP
     0-0-0/w STRC(288)         1 UNSTRING_STMT              0-0-0/w STRC(396)         1 VARIABLE
     0-0-0/w STRC(288)         1 WRITE_STMT


   Procedure Z8EV$CONVERT_ROUND_ON_SIZE requires 5754 words for executable code.
PL6.E3A0      #001=Z8EV$CONVERT_ROUND_ON_SIZE File=Z8EV.:Z8A6TSI                 SAT 08/09/97 12:49 Page:264
   Procedure Z8EV$CONVERT_ROUND_ON_SIZE requires 72 words of local(AUTO) storage.

