PL6.E3A0      #002=Z8EV$COMPATIBLE_TYPES_ROUND File=Z8EV.:Z8A6TSI                SAT 08/09/97 12:54 Page:265
     1003        1        /*T***********************************************************/
     1004        2        /*T*                                                         */
     1005        3        /*T* Copyright (c) Bull HN Information Systems Inc., 1997    */
     1006        4        /*T*                                                         */
     1007        5        /*T***********************************************************/
     1008        6        Z8EV$COMPATIBLE_TYPES_ROUND: PROC(LOP$, ROP$, MATRIX, ON_SIZE_FLAG, ROUND_FLAG)
                 6            ALTRET;
     1009        7
     1010        8             %EQU PHASE = 1;
     1011        9             %INCLUDE Z8A_DEFC;
     1012       77             %INCLUDE Z8A_SUPP_MAC;
     1013     2477             %INCLUDE Z8A_TYPES;
     1014     2651             %INCLUDE Z8E_STACKS;
     1015     4917             %INCLUDE Z8A_DESC;
     1016     4963             %INCLUDE Z8A_ETT;
     1017     5264             %INCLUDE Z8A_ST;
     1018     8923             %INCLUDE Z8E_WINDOW;                                  /*#39281*/
     1019    10993    1        DCL LOP$    PTR;
     1020    10994    1        DCL ROP$    PTR;
     1021    10995    1        DCL MATRIX CHAR(%(TYPE_MATRIX_SIZE * 2)) ALIGNED;
     1022    10996
     1023    10997
     1024    10998    1        DCL   Z8EV$CONVERT_ROUND_ON_SIZE ENTRY (6);
     1025    10999    1        DCL   Z8EV$CONVERT_ON_SIZE ENTRY (4);
     1026    11000    1        DCL   Z8EC$CREATE_CONST ENTRY(3) ALTRET;
     1027    11001    1        DCL   Z8AF$FORME        ENTRY(4);
     1028    11002    1        DCL Z8AU$TYPE_DESCRIPTOR ENTRY(2);
     1029    11003
     1030    11004    1        DCL TYPE  SBIN WORD;
     1031    11005    1        DCL LOP_TYPE SBIN WORD;
     1032    11006    1        DCL ROP_TYPE SBIN WORD;
     1033    11007    1        DCL I        SBIN WORD;
     1034    11008    1        DCL ID       SBIN WORD;
     1035    11009    1        DCL ON_SIZE  BIT (1) ALIGNED;
     1036    11010    1        DCL ON_SIZE_FLAG  BIT(1) ALIGNED;
     1037    11011    1        DCL ROUND    BIT (1) ALIGNED; /* MOVE, request rounding */
     1038    11012    1        DCL ROUND_FLAG BIT (1) ALIGNED;
PL6.E3A0      #002=Z8EV$COMPATIBLE_TYPES_ROUND File=Z8EV.:Z8A6TSI                SAT 08/09/97 12:54 Page:266
     1039    11013
     1040    11014
     1041    11015    1        DCL 1 MATRIX_ENTRY ALIGNED STATIC,
     1042    11016    1              2 *        BIT(1)  UNAL INIT('0'B),
     1043    11017    1              2 LOP_TYPE UBIN(4) UNAL,
     1044    11018    1              2 ROP_TYPE UBIN(4) UNAL,
     1045    11019    1              2 *        BIT(1)  UNAL INIT('1'B),
     1046    11020    1              2 NEW_LOP_TYPE UBIN(4) UNAL,
     1047    11021    1              2 NEW_ROP_TYPE UBIN(4) UNAL;
     1048    11022    1        DCL MATRIX_SEARCH REDEF MATRIX_ENTRY CHAR(2) ALIGNED;
     1049    11023
     1050    11024    1        DCL 1 TYPE_DESC ALIGNED,
     1051    11025                   %TYPE_DESC;
     1052    11059        %EJECT;
PL6.E3A0      #002=Z8EV$COMPATIBLE_TYPES_ROUND File=Z8EV.:Z8A6TSI                SAT 08/09/97 12:54 Page:267
     1053    11060
     1054    11061    1        ON_SIZE = ON_SIZE_FLAG;
     1055    11062    1        ROUND = ROUND_FLAG;
     1056    11063    1        IF ROUND_FLAG THEN
     1057    11064    1          CALL Z8AU$TYPE_DESCRIPTOR (LOP$ -> LX_ETT_ITEM.ETT$, TYPE_DESC);
     1058    11065    1        GOTO COMMON_COMPATIBLE_TYPES;
     1059    11066
     1060    11067    1   Z8EV$COMPATIBLE_TYPES_ON_SIZE: ENTRY (LOP$, ROP$, MATRIX, ON_SIZE_FLAG) ALTRET;
     1061    11068
     1062    11069    1        ON_SIZE = ON_SIZE_FLAG;
     1063    11070    1        ROUND = FALSE;
     1064    11071
     1065    11072    1        GOTO COMMON_COMPATIBLE_TYPES;
     1066    11073
     1067    11074    1   Z8EV$COMPATIBLE_TYPES: ENTRY (LOP$, ROP$, MATRIX) ALTRET;
     1068    11075
     1069    11076    1        ON_SIZE = FALSE;
     1070    11077    1        ROUND = FALSE;
     1071    11078
     1072    11079    1   COMMON_COMPATIBLE_TYPES:
     1073    11080
     1074    11081
     1075    11082    1         IF LOP$ -> LX_ITEM.TYPE >= %TYG OR
     1076    11083    1            ROP$ -> LX_ITEM.TYPE >= %TYG THEN
     1077    11084    1           ALTRETURN;
     1078    11085
     1079    11086
     1080    11087    1        MATRIX_ENTRY.LOP_TYPE = LOP$ -> LX_ITEM.TYPE;
     1081    11088    1        MATRIX_ENTRY.ROP_TYPE = ROP$ -> LX_ITEM.TYPE;
     1082    11089
     1083    11090    1        CALL INDEX(I, SUBSTR(MATRIX_SEARCH, 0, 1), MATRIX)
     1084    11091    1          WHENRETURN
     1085    11092    2            DO;
     1086    11093    2              SUBSTR(MATRIX_SEARCH, 1, 1) = SUBSTR(MATRIX, I + 1, 1);
     1087    11094    2              LOP_TYPE = MATRIX_ENTRY.NEW_LOP_TYPE;
     1088    11095    2              ROP_TYPE = MATRIX_ENTRY.NEW_ROP_TYPE;
     1089    11096
PL6.E3A0      #002=Z8EV$COMPATIBLE_TYPES_ROUND File=Z8EV.:Z8A6TSI                SAT 08/09/97 12:54 Page:268
     1090    11097    2              IF MATRIX_ENTRY.ROP_TYPE = %TYT THEN            /*#39281*/
     1091    11098    2                IF ROP$ -> LX_ITEM.SYMBOL = %RSV_WRD_HIGH_VALUES
     1092    11099    2                    OR ROP$ -> LX_ITEM.SYMBOL = %RSV_WRD_LOW_VALUES
     1093    11100    2                    OR ROP$ -> LX_ITEM.SYMBOL = %RSV_WRD_QUOTES THEN
     1094    11101    3                  DO CASE (MATRIX_ENTRY.LOP_TYPE);
     1095    11102    3                    CASE (
     1096    11103                             %SET_OF_NUMERIC_TYPES;
     1097    11106    3                         );
     1098    11107    3                      ALTRETURN;
     1099    11108    3                  END;
     1100    11109
     1101    11110    2              CALL Z8EV$CONVERT_ON_SIZE (LOP_TYPE, LOP$, LOP$, ON_SIZE);
     1102    11111    2              CALL Z8EV$CONVERT_ROUND_ON_SIZE (ROP_TYPE, ROP$, ROP$, ON_SIZE,
     1103    11112    2                  ROUND, TYPE_DESC.DESC);
     1104    11113    2            END;
     1105    11114    1          WHENALTRETURN
     1106    11115    2            DO;
     1107    11116    2              ALTRETURN;
     1108    11117    2            END;
     1109    11118
     1110    11119
     1111    11120    1   END Z8EV$COMPATIBLE_TYPES_ROUND;
     1112    11121        %EOD;

PL6.E3A0      #002=Z8EV$COMPATIBLE_TYPES_ROUND File=Z8EV.:Z8A6TSI                SAT 08/09/97 12:54 Page:269
--  Include file information  --

   Z8E_WINDOW.:Z8A6TOU  is referenced.
   Z8A_ST.:Z8A6TOU  cannot be made into a system file and is referenced.
   Z8A_ETT.:Z8A6TOU  cannot be made into a system file and is referenced.
   Z8A_DESC.:Z8A6TOU  cannot be made into a system file and is referenced.
   Z8A_LEX_SYMB.:Z8A6TOU  cannot be made into a system file and is referenced.
   Z8E_STACKS.:Z8A6TOU  cannot be made into a system file and is referenced.
   Z8A_TYPES.:Z8A6TOU  is referenced.
   X8A_COM_MACS.:X8A6TOU  is referenced.
   Z8A_NAMES.:Z8A6TOU  is referenced.
   Z8A_SUPP_MAC.:Z8A6TOU  is referenced.
   Z8A_DEFC.:Z8A6TOU  cannot be made into a system file and is referenced.
      No diagnostics issued in procedure Z8EV$COMPATIBLE_TYPES_ROUND.

   Procedure Z8EV$COMPATIBLE_TYPES_ROUND requires 142 words for executable code.
   Procedure Z8EV$COMPATIBLE_TYPES_ROUND requires 34 words of local(AUTO) storage.

PL6.E3A0      #002=Z8EV$COMPATIBLE_TYPES_ROUND File=Z8EV.:Z8A6TSI                SAT 08/09/97 12:54 Page:270

 Object Unit name= Z8EV$COMPATIBLE_TYPES_ROUND                File name= Z8EV.:Z8A6TOU
 UTS= AUG 09 '97 12:54:21.48 SAT                              Compiler= PL-6/E31         Sev=      00
 SharedLib= :SHARED_SYSTEM                                    Alt SharedLib=


    ****  Control sections  ****

 Sect   Type Bound  Init  Size OctSiz  Section name(segment info)
    0  LblCom even  none     1      1  ITERATION
    1  LblCom even  none    90    132  LEX_SYMBOL
    2  LblCom even  none     1      1  CURRENT_LEX_SYMBOL$
    3  LblCom even  none    90    132  TEMP_LEX_SYMBOL
    4  LblCom even  none    90    132  TEMP_LEX_SYMBOL2
    5  LblCom even  none     1      1  ETT$
    6  LblCom even  none     1      1  HEAD_ETT$
    7  LblCom even  none   512   1000  ETT_BUCKETS
    8  LblCom even  none     5      5  ETT_
    9  LblCom even  none     1      1  ST$
   10  LblCom even  none     5      5  ST_
   11   Data  even  none     1      1  Z8EV$COMPATIBLE_TYPES_ROUND
   12   Proc  even  none   142    216  Z8EV$COMPATIBLE_TYPES_ROUND
   13  RoData even  none     3      3  Z8EV$COMPATIBLE_TYPES_ROUND

    ****  Entry defs  ****

                              Check   Calling
                             calling  sequence
  Sect OctLoc Primary Altret sequence   type   Parms  Name
    12      0   yes    yes     yes      Std        5  Z8EV$COMPATIBLE_TYPES_ROUND
    12     27          yes     yes      Std        4  Z8EV$COMPATIBLE_TYPES_ON_SIZE
    12     37          yes     yes      Std        3  Z8EV$COMPATIBLE_TYPES
PL6.E3A0      #002=Z8EV$COMPATIBLE_TYPES_ROUND File=Z8EV.:Z8A6TSI                SAT 08/09/97 12:54 Page:271

  ****  Entry refs  ****

         Check        Calling
        calling       sequence
Altret sequence SRef   type   Args  Name
         yes           Std       2 Z8AU$TYPE_DESCRIPTOR
         yes           Std       4 Z8EV$CONVERT_ON_SIZE
         yes           Std       6 Z8EV$CONVERT_ROUND_ON_SIZE
                       nStd      0 X66_AUTO_5
                       nStd      0 X66_AALT
                       nStd      0 X66_ARET

  ****  Segment refs  ****

  Flags:  r = read only, s = secondary
Flgs Name                             Flgs Name                             Flgs Name
     ISSID                                 NULLSID
PL6.E3A0      #002=Z8EV$COMPATIBLE_TYPES_ROUND File=Z8EV.:Z8A6TSI                SAT 08/09/97 12:54 Page:272


     1003        1        /*T***********************************************************/
     1004        2        /*T*                                                         */
     1005        3        /*T* Copyright (c) Bull HN Information Systems Inc., 1997    */
     1006        4        /*T*                                                         */
     1007        5        /*T***********************************************************/
     1008        6        Z8EV$COMPATIBLE_TYPES_ROUND: PROC(LOP$, ROP$, MATRIX, ON_SIZE_FLAG, ROUND_FLAG)
                 6            ALTRET;

      6 12 000000   000000 700200 xent  Z8EV$COMPAT* TSX0  ! X66_AUTO_5
        12 000001   000042 000005                    ZERO    34,5

     1009        7
     1010        8             %EQU PHASE = 1;
     1011        9             %INCLUDE Z8A_DEFC;
     1012       77             %INCLUDE Z8A_SUPP_MAC;
     1013     2477             %INCLUDE Z8A_TYPES;
     1014     2651             %INCLUDE Z8E_STACKS;
     1015     4917             %INCLUDE Z8A_DESC;
     1016     4963             %INCLUDE Z8A_ETT;
     1017     5264             %INCLUDE Z8A_ST;
     1018     8923             %INCLUDE Z8E_WINDOW;                                  /*#39281*/
     1019    10993    1        DCL LOP$    PTR;
     1020    10994    1        DCL ROP$    PTR;
     1021    10995    1        DCL MATRIX CHAR(%(TYPE_MATRIX_SIZE * 2)) ALIGNED;
     1022    10996
     1023    10997
     1024    10998    1        DCL   Z8EV$CONVERT_ROUND_ON_SIZE ENTRY (6);
     1025    10999    1        DCL   Z8EV$CONVERT_ON_SIZE ENTRY (4);
     1026    11000    1        DCL   Z8EC$CREATE_CONST ENTRY(3) ALTRET;
     1027    11001    1        DCL   Z8AF$FORME        ENTRY(4);
     1028    11002    1        DCL Z8AU$TYPE_DESCRIPTOR ENTRY(2);
     1029    11003
     1030    11004    1        DCL TYPE  SBIN WORD;
     1031    11005    1        DCL LOP_TYPE SBIN WORD;
     1032    11006    1        DCL ROP_TYPE SBIN WORD;
     1033    11007    1        DCL I        SBIN WORD;
PL6.E3A0      #002=Z8EV$COMPATIBLE_TYPES_ROUND File=Z8EV.:Z8A6TSI                SAT 08/09/97 12:54 Page:273
     1034    11008    1        DCL ID       SBIN WORD;
     1035    11009    1        DCL ON_SIZE  BIT (1) ALIGNED;
     1036    11010    1        DCL ON_SIZE_FLAG  BIT(1) ALIGNED;
     1037    11011    1        DCL ROUND    BIT (1) ALIGNED; /* MOVE, request rounding */
     1038    11012    1        DCL ROUND_FLAG BIT (1) ALIGNED;
     1039    11013
     1040    11014
     1041    11015    1        DCL 1 MATRIX_ENTRY ALIGNED STATIC,
     1042    11016    1              2 *        BIT(1)  UNAL INIT('0'B),
     1043    11017    1              2 LOP_TYPE UBIN(4) UNAL,
     1044    11018    1              2 ROP_TYPE UBIN(4) UNAL,
     1045    11019    1              2 *        BIT(1)  UNAL INIT('1'B),
     1046    11020    1              2 NEW_LOP_TYPE UBIN(4) UNAL,
     1047    11021    1              2 NEW_ROP_TYPE UBIN(4) UNAL;
     1048    11022    1        DCL MATRIX_SEARCH REDEF MATRIX_ENTRY CHAR(2) ALIGNED;
     1049    11023
     1050    11024    1        DCL 1 TYPE_DESC ALIGNED,
     1051    11025                   %TYPE_DESC;
     1052    11059        %EJECT;
PL6.E3A0      #002=Z8EV$COMPATIBLE_TYPES_ROUND File=Z8EV.:Z8A6TSI                SAT 08/09/97 12:54 Page:274
     1053    11060
     1054    11061    1        ON_SIZE = ON_SIZE_FLAG;

  11061 12 000002   200006 470500                    LDP0    @ON_SIZE_FLAG,,AUTO
        12 000003   000000 236100                    LDQ     0,,PR0
        12 000004   400000 376003                    ANQ     -131072,DU
        12 000005   200025 756100                    STQ     ON_SIZE,,AUTO

     1055    11062    1        ROUND = ROUND_FLAG;

  11062 12 000006   200007 471500                    LDP1    @ROUND_FLAG,,AUTO
        12 000007   100000 236100                    LDQ     0,,PR1
        12 000010   400000 376003                    ANQ     -131072,DU
        12 000011   200026 756100                    STQ     ROUND,,AUTO

     1056    11063    1        IF ROUND_FLAG THEN

  11063 12 000012   100000 234100                    SZN     0,,PR1
        12 000013   000026 605000 12                 TPL     s:11065

     1057    11064    1          CALL Z8AU$TYPE_DESCRIPTOR (LOP$ -> LX_ETT_ITEM.ETT$, TYPE_DESC);

  11064 12 000014   200003 473500                    LDP3    @LOP$,,AUTO
        12 000015   300000 474500                    LDP4    0,,PR3
        12 000016   200027 635500                    EPPR5   TYPE_DESC,,AUTO
        12 000017   200035 455500                    STP5    TYPE_DESC+6,,AUTO
        12 000020   400001 636500                    EPPR6   1,,PR4
        12 000021   200034 456500                    STP6    TYPE_DESC+5,,AUTO
        12 000022   200034 630500                    EPPR0   TYPE_DESC+5,,AUTO
        12 000023   000000 631400 13                 EPPR1   0
        12 000024   000000 701000 xent               TSX1    Z8AU$TYPE_DESCRIPTOR
        12 000025   000000 011000                    NOP     0

     1058    11065    1        GOTO COMMON_COMPATIBLE_TYPES;

  11065 12 000026   000043 710000 12                 TRA     COMMON_COMPATIBLE_TYPES

PL6.E3A0      #002=Z8EV$COMPATIBLE_TYPES_ROUND File=Z8EV.:Z8A6TSI                SAT 08/09/97 12:54 Page:275
     1059    11066
     1060    11067    1   Z8EV$COMPATIBLE_TYPES_ON_SIZE: ENTRY (LOP$, ROP$, MATRIX, ON_SIZE_FLAG) ALTRET;

  11067 12 000027   000000 700200 xent  Z8EV$COMPAT* TSX0  ! X66_AUTO_5
        12 000030   000042 000005                    ZERO    34,5

     1061    11068
     1062    11069    1        ON_SIZE = ON_SIZE_FLAG;

  11069 12 000031   200006 470500                    LDP0    @ON_SIZE_FLAG,,AUTO
        12 000032   000000 236100                    LDQ     0,,PR0
        12 000033   400000 376003                    ANQ     -131072,DU
        12 000034   200025 756100                    STQ     ON_SIZE,,AUTO

     1063    11070    1        ROUND = FALSE;

  11070 12 000035   200026 450100                    STZ     ROUND,,AUTO

     1064    11071
     1065    11072    1        GOTO COMMON_COMPATIBLE_TYPES;

  11072 12 000036   000043 710000 12                 TRA     COMMON_COMPATIBLE_TYPES

     1066    11073
     1067    11074    1   Z8EV$COMPATIBLE_TYPES: ENTRY (LOP$, ROP$, MATRIX) ALTRET;

  11074 12 000037   000000 700200 xent  Z8EV$COMPAT* TSX0  ! X66_AUTO_5
        12 000040   000042 000005                    ZERO    34,5

     1068    11075
     1069    11076    1        ON_SIZE = FALSE;

  11076 12 000041   200025 450100                    STZ     ON_SIZE,,AUTO

     1070    11077    1        ROUND = FALSE;

  11077 12 000042   200026 450100                    STZ     ROUND,,AUTO
PL6.E3A0      #002=Z8EV$COMPATIBLE_TYPES_ROUND File=Z8EV.:Z8A6TSI                SAT 08/09/97 12:54 Page:276

     1071    11078
     1072    11079    1   COMMON_COMPATIBLE_TYPES:
     1073    11080
     1074    11081
     1075    11082    1         IF LOP$ -> LX_ITEM.TYPE >= %TYG OR

  11082 12 000043   200003 470500       COMMON_COMP* LDP0    @LOP$,,AUTO
        12 000044   000000 471500                    LDP1    0,,PR0
        12 000045   100004 235100                    LDA     4,,PR1
        12 000046   000020 115007                    CMPA    16,DL
        12 000047   000055 603000 12                 TRC     s:11084
        12 000050   200004 473500                    LDP3    @ROP$,,AUTO
        12 000051   300000 474500                    LDP4    0,,PR3
        12 000052   400004 235100                    LDA     4,,PR4
        12 000053   000020 115007                    CMPA    16,DL
        12 000054   000056 602000 12                 TNC     s:11087

     1076    11083    1            ROP$ -> LX_ITEM.TYPE >= %TYG THEN
     1077    11084    1           ALTRETURN;

  11084 12 000055   000000 702200 xent               TSX2  ! X66_AALT

     1078    11085
     1079    11086
     1080    11087    1        MATRIX_ENTRY.LOP_TYPE = LOP$ -> LX_ITEM.TYPE;

  11087 12 000056   100004 236100                    LDQ     4,,PR1
        12 000057   000037 736000                    QLS     31
        12 000060   000000 676000 11                 ERQ     MATRIX_ENTRY
        12 000061   360000 376003                    ANQ     122880,DU
        12 000062   000000 656000 11                 ERSQ    MATRIX_ENTRY

     1081    11088    1        MATRIX_ENTRY.ROP_TYPE = ROP$ -> LX_ITEM.TYPE;

  11088 12 000063   400004 236100                    LDQ     4,,PR4
        12 000064   000033 736000                    QLS     27
PL6.E3A0      #002=Z8EV$COMPATIBLE_TYPES_ROUND File=Z8EV.:Z8A6TSI                SAT 08/09/97 12:54 Page:277
        12 000065   000000 676000 11                 ERQ     MATRIX_ENTRY
        12 000066   017000 376003                    ANQ     7680,DU
        12 000067   000000 656000 11                 ERSQ    MATRIX_ENTRY

     1082    11089
     1083    11090    1        CALL INDEX(I, SUBSTR(MATRIX_SEARCH, 0, 1), MATRIX)

  11090 12 000070   200005 475500                    LDP5    @MATRIX,,AUTO
        12 000071   000000 124500                    SCM     mask='000'O
        12 000072   500000 000576                    ADSC9   0,,PR5                   cn=0,n=382
        12 000073   000000 000001 11                 ADSC9   MATRIX_ENTRY             cn=0,n=1
        12 000074   200023 000100                    ARG     I,,AUTO
        12 000075   000214 606400 12                 TTN     s:11116

     1084    11091    1          WHENRETURN
     1085    11092    2            DO;

     1086    11093    2              SUBSTR(MATRIX_SEARCH, 1, 1) = SUBSTR(MATRIX, I + 1, 1);

  11093 12 000076   200023 236100                    LDQ     I,,AUTO
        12 000077   040000 100506                    MLR     fill='040'O
        12 000100   500000 200001                    ADSC9   0,Q,PR5                  cn=1,n=1
        12 000101   000000 200001 11                 ADSC9   MATRIX_ENTRY             cn=1,n=1

     1087    11094    2              LOP_TYPE = MATRIX_ENTRY.NEW_LOP_TYPE;

  11094 12 000102   000000 236000 11                 LDQ     MATRIX_ENTRY
        12 000103   000026 772000                    QRL     22
        12 000104   000017 376007                    ANQ     15,DL
        12 000105   200021 756100                    STQ     LOP_TYPE,,AUTO

     1088    11095    2              ROP_TYPE = MATRIX_ENTRY.NEW_ROP_TYPE;

  11095 12 000106   000000 236000 11                 LDQ     MATRIX_ENTRY
        12 000107   000022 772000                    QRL     18
        12 000110   000017 376007                    ANQ     15,DL
        12 000111   200022 756100                    STQ     ROP_TYPE,,AUTO
PL6.E3A0      #002=Z8EV$COMPATIBLE_TYPES_ROUND File=Z8EV.:Z8A6TSI                SAT 08/09/97 12:54 Page:278

     1089    11096
     1090    11097    2              IF MATRIX_ENTRY.ROP_TYPE = %TYT THEN            /*#39281*/

  11097 12 000112   000000 236000 11                 LDQ     MATRIX_ENTRY
        12 000113   017000 376003                    ANQ     7680,DU
        12 000114   015000 116003                    CMPQ    6656,DU
        12 000115   000161 601000 12                 TNZ     s:11110

     1091    11098    2                IF ROP$ -> LX_ITEM.SYMBOL = %RSV_WRD_HIGH_VALUES

  11098 12 000116   300000 471500                    LDP1    0,,PR3
        12 000117   100003 235100                    LDA     3,,PR1
        12 000120   000351 115007                    CMPA    233,DL
        12 000121   000126 600000 12                 TZE     s:11101
        12 000122   000433 115007                    CMPA    283,DL
        12 000123   000126 600000 12                 TZE     s:11101
        12 000124   000543 115007                    CMPA    355,DL
        12 000125   000161 601000 12                 TNZ     s:11110

     1092    11099    2                    OR ROP$ -> LX_ITEM.SYMBOL = %RSV_WRD_LOW_VALUES
     1093    11100    2                    OR ROP$ -> LX_ITEM.SYMBOL = %RSV_WRD_QUOTES THEN
     1094    11101    3                  DO CASE (MATRIX_ENTRY.LOP_TYPE);

  11101 12 000126   000000 236000 11                 LDQ     MATRIX_ENTRY
        12 000127   000037 772000                    QRL     31
        12 000130   000017 376007                    ANQ     15,DL
        12 000131   000024 116007                    CMPQ    20,DL
        12 000132   000134 602006 12                 TNC     s:11101+6,QL
        12 000133   000161 710000 12                 TRA     s:11110
        12 000134   000160 710000 12                 TRA     s:11107
        12 000135   000160 710000 12                 TRA     s:11107
        12 000136   000160 710000 12                 TRA     s:11107
        12 000137   000160 710000 12                 TRA     s:11107
        12 000140   000160 710000 12                 TRA     s:11107
        12 000141   000160 710000 12                 TRA     s:11107
        12 000142   000161 710000 12                 TRA     s:11110
PL6.E3A0      #002=Z8EV$COMPATIBLE_TYPES_ROUND File=Z8EV.:Z8A6TSI                SAT 08/09/97 12:54 Page:279
        12 000143   000160 710000 12                 TRA     s:11107
        12 000144   000161 710000 12                 TRA     s:11110
        12 000145   000161 710000 12                 TRA     s:11110
        12 000146   000161 710000 12                 TRA     s:11110
        12 000147   000160 710000 12                 TRA     s:11107
        12 000150   000161 710000 12                 TRA     s:11110
        12 000151   000161 710000 12                 TRA     s:11110
        12 000152   000161 710000 12                 TRA     s:11110
        12 000153   000160 710000 12                 TRA     s:11107
        12 000154   000161 710000 12                 TRA     s:11110
        12 000155   000161 710000 12                 TRA     s:11110
        12 000156   000161 710000 12                 TRA     s:11110
        12 000157   000160 710000 12                 TRA     s:11107

     1095    11102    3                    CASE (

     1096    11103                             %SET_OF_NUMERIC_TYPES;
     1097    11106    3                         );
     1098    11107    3                      ALTRETURN;

  11107 12 000160   000000 702200 xent               TSX2  ! X66_AALT

     1099    11108    3                  END;

     1100    11109
     1101    11110    2              CALL Z8EV$CONVERT_ON_SIZE (LOP_TYPE, LOP$, LOP$, ON_SIZE);

  11110 12 000161   200025 631500                    EPPR1   ON_SIZE,,AUTO
        12 000162   200037 451500                    STP1    TYPE_DESC+8,,AUTO
        12 000163   200003 236100                    LDQ     @LOP$,,AUTO
        12 000164   200036 756100                    STQ     TYPE_DESC+7,,AUTO
        12 000165   200035 756100                    STQ     TYPE_DESC+6,,AUTO
        12 000166   200021 634500                    EPPR4   LOP_TYPE,,AUTO
        12 000167   200034 454500                    STP4    TYPE_DESC+5,,AUTO
        12 000170   200034 630500                    EPPR0   TYPE_DESC+5,,AUTO
        12 000171   000001 631400 13                 EPPR1   1
        12 000172   000000 701000 xent               TSX1    Z8EV$CONVERT_ON_SIZE
PL6.E3A0      #002=Z8EV$COMPATIBLE_TYPES_ROUND File=Z8EV.:Z8A6TSI                SAT 08/09/97 12:54 Page:280
        12 000173   000000 011000                    NOP     0

     1102    11111    2              CALL Z8EV$CONVERT_ROUND_ON_SIZE (ROP_TYPE, ROP$, ROP$, ON_SIZE,

  11111 12 000174   200030 630500                    EPPR0   TYPE_DESC+1,,AUTO
        12 000175   200041 450500                    STP0    TYPE_DESC+10,,AUTO
        12 000176   200026 631500                    EPPR1   ROUND,,AUTO
        12 000177   200040 451500                    STP1    TYPE_DESC+9,,AUTO
        12 000200   200025 633500                    EPPR3   ON_SIZE,,AUTO
        12 000201   200037 453500                    STP3    TYPE_DESC+8,,AUTO
        12 000202   200004 236100                    LDQ     @ROP$,,AUTO
        12 000203   200036 756100                    STQ     TYPE_DESC+7,,AUTO
        12 000204   200035 756100                    STQ     TYPE_DESC+6,,AUTO
        12 000205   200022 634500                    EPPR4   ROP_TYPE,,AUTO
        12 000206   200034 454500                    STP4    TYPE_DESC+5,,AUTO
        12 000207   200034 630500                    EPPR0   TYPE_DESC+5,,AUTO
        12 000210   000002 631400 13                 EPPR1   2
        12 000211   000000 701000 xent               TSX1    Z8EV$CONVERT_ROUND_ON_SIZE
        12 000212   000000 011000                    NOP     0

     1103    11112    2                  ROUND, TYPE_DESC.DESC);
     1104    11113    2            END;

  11113 12 000213   000215 710000 12                 TRA     s:11120

     1105    11114    1          WHENALTRETURN
     1106    11115    2            DO;

     1107    11116    2              ALTRETURN;

  11116 12 000214   000000 702200 xent               TSX2  ! X66_AALT

     1108    11117    2            END;
     1109    11118
     1110    11119
     1111    11120    1   END Z8EV$COMPATIBLE_TYPES_ROUND;

PL6.E3A0      #002=Z8EV$COMPATIBLE_TYPES_ROUND File=Z8EV.:Z8A6TSI                SAT 08/09/97 12:54 Page:281
  11120 12 000215   000000 702200 xent               TSX2  ! X66_ARET
     1112    11121        %EOD;

PL6.E3A0      #002=Z8EV$COMPATIBLE_TYPES_ROUND File=Z8EV.:Z8A6TSI                SAT 08/09/97 12:54 Page:282
--  Include file information  --

   Z8E_WINDOW.:Z8A6TOU  is referenced.
   Z8A_ST.:Z8A6TOU  cannot be made into a system file and is referenced.
   Z8A_ETT.:Z8A6TOU  cannot be made into a system file and is referenced.
   Z8A_DESC.:Z8A6TOU  cannot be made into a system file and is referenced.
   Z8A_LEX_SYMB.:Z8A6TOU  cannot be made into a system file and is referenced.
   Z8E_STACKS.:Z8A6TOU  cannot be made into a system file and is referenced.
   Z8A_TYPES.:Z8A6TOU  is referenced.
   X8A_COM_MACS.:X8A6TOU  is referenced.
   Z8A_NAMES.:Z8A6TOU  is referenced.
   Z8A_SUPP_MAC.:Z8A6TOU  is referenced.
   Z8A_DEFC.:Z8A6TOU  cannot be made into a system file and is referenced.
      No diagnostics issued in procedure Z8EV$COMPATIBLE_TYPES_ROUND.
PL6.E3A0      #002=Z8EV$COMPATIBLE_TYPES_ROUND File=Z8EV.:Z8A6TSI                SAT 08/09/97 12:54 Page:283

 **** Variables and constants ****

  ****  Section 000 LblCom ITERATION

  ****  Scalars and arrays  ****
OctLoc.c.b A Datatyp(siz) R M Lvl/name                 OctLoc.c.b A Datatyp(siz) R M Lvl/name

     0-0-0/w SBIN              1 ITERATION

  ****  Section 001 LblCom LEX_SYMBOL

  ****  Scalars and arrays  ****
OctLoc.c.b A Datatyp(siz) R M Lvl/name                 OctLoc.c.b A Datatyp(siz) R M Lvl/name

     0-0-0/w STRC(3240)  r     1 LEX_SYMBOL                 0-0-0/w STRC(3240)        1 LEX_SYMBOL_WORDS

  ****  Section 002 LblCom CURRENT_LEX_SYMBOL$

  ****  Scalars and arrays  ****
OctLoc.c.b A Datatyp(siz) R M Lvl/name                 OctLoc.c.b A Datatyp(siz) R M Lvl/name

     0-0-0/w PTR         r     1 CURRENT_LEX_SYMBOL$

  ****  Section 003 LblCom TEMP_LEX_SYMBOL

  ****  Scalars and arrays  ****
OctLoc.c.b A Datatyp(siz) R M Lvl/name                 OctLoc.c.b A Datatyp(siz) R M Lvl/name

     0-0-0/w STRC(3240)        1 TEMP_LEX_SYMBOL

  ****  Section 004 LblCom TEMP_LEX_SYMBOL2

  ****  Scalars and arrays  ****
OctLoc.c.b A Datatyp(siz) R M Lvl/name                 OctLoc.c.b A Datatyp(siz) R M Lvl/name

     0-0-0/w STRC(3240)        1 TEMP_LEX_SYMBOL2

PL6.E3A0      #002=Z8EV$COMPATIBLE_TYPES_ROUND File=Z8EV.:Z8A6TSI                SAT 08/09/97 12:54 Page:284
  ****  Section 005 LblCom ETT$

  ****  Scalars and arrays  ****
OctLoc.c.b A Datatyp(siz) R M Lvl/name                 OctLoc.c.b A Datatyp(siz) R M Lvl/name

     0-0-0/w PTR         r     1 ETT$

  ****  Section 006 LblCom HEAD_ETT$

  ****  Scalars and arrays  ****
OctLoc.c.b A Datatyp(siz) R M Lvl/name                 OctLoc.c.b A Datatyp(siz) R M Lvl/name

     0-0-0/w PTR               1 HEAD_ETT$

  ****  Section 007 LblCom ETT_BUCKETS

  ****  Scalars and arrays  ****
OctLoc.c.b A Datatyp(siz) R M Lvl/name                 OctLoc.c.b A Datatyp(siz) R M Lvl/name

     0-0-0/w PTR               1 ETT_BUCKETS(0:511)

  ****  Section 008 LblCom ETT_

  ****  Scalars and arrays  ****
OctLoc.c.b A Datatyp(siz) R M Lvl/name                 OctLoc.c.b A Datatyp(siz) R M Lvl/name

     0-0-0/w STRC(180)         1 ETT_

  ****  Section 009 LblCom ST$

  ****  Scalars and arrays  ****
OctLoc.c.b A Datatyp(siz) R M Lvl/name                 OctLoc.c.b A Datatyp(siz) R M Lvl/name

     0-0-0/w PTR         r     1 ST$

  ****  Section 010 LblCom ST_

PL6.E3A0      #002=Z8EV$COMPATIBLE_TYPES_ROUND File=Z8EV.:Z8A6TSI                SAT 08/09/97 12:54 Page:285
  ****  Scalars and arrays  ****
OctLoc.c.b A Datatyp(siz) R M Lvl/name                 OctLoc.c.b A Datatyp(siz) R M Lvl/name

     0-0-0/w STRC(180)         1 ST_

  ****  Section 011  Data  Z8EV$COMPATIBLE_TYPES_ROUND

  ****  Scalars and arrays  ****
OctLoc.c.b A Datatyp(siz) R M Lvl/name                 OctLoc.c.b A Datatyp(siz) R M Lvl/name

     0-0-0/w STRC(18)    r     1 MATRIX_ENTRY               0-0-0/w CHAR(2)     r     1 MATRIX_SEARCH

  ****  Auto variables  ****

  ****  Scalars and arrays  ****
OctLoc.c.b A Datatyp(siz) R M Lvl/name                 OctLoc.c.b A Datatyp(siz) R M Lvl/name

     3-0-0/w PTR         r     1 @LOP$                      5-0-0/w PTR         r     1 @MATRIX
     6-0-0/w PTR         r     1 @ON_SIZE_FLAG              4-0-0/w PTR         r     1 @ROP$
     7-0-0/w PTR         r     1 @ROUND_FLAG               16-0-0/w UBIN              1 CN
    10-0-0/w STRC              1 DESC                      23-0-0/w SBIN        r     1 I
    24-0-0/w SBIN              1 ID                        15-0-0/w SBIN              1 LENGTH
    *0-0-0/w PTR         r     1 LOP$                      21-0-0/w SBIN        r     1 LOP_TYPE
    *0-0-0/w CHAR(382)   r     1 MATRIX                    25-0-0/w BIT         r     1 ON_SIZE
    *0-0-0/w BIT         r     1 ON_SIZE_FLAG              *0-0-0/w PTR         r     1 ROP$
    22-0-0/w SBIN        r     1 ROP_TYPE                  26-0-0/w BIT         r     1 ROUND
    *0-0-0/w BIT         r     1 ROUND_FLAG                17-0-0/w UBIN              1 SA
    14-0-0/w SBIN              1 SCALE                     11-0-0/w BIT (2)           1 SIGN
    13-0-0/w BIT (2)           1 TA                        12-0-0/w BIT               1 TN
    20-0-0/w SBIN              1 TYPE                      27-0-0/w STRC(144)   r     1 TYPE_DESC

  ****  BASED and DCB variables  ****

  ****  Scalars and arrays  ****
OctLoc.c.b A Datatyp(siz) R M Lvl/name                 OctLoc.c.b A Datatyp(siz) R M Lvl/name

     0-0-0/w STRC(288)         1 ADD_STMT                   0-0-0/w STRC(396)         1 ALPHABET
PL6.E3A0      #002=Z8EV$COMPATIBLE_TYPES_ROUND File=Z8EV.:Z8A6TSI                SAT 08/09/97 12:54 Page:286
     0-0-0/w STRC(396)         1 ARRAY                      0-0-0/w ASTR(324)   r     1 BASED_LEX_SYMBOL
     0-0-0/w STRC(360)         1 BASED_LEX_SYMBOL_WORDS
     0-0-0/w STRC(288)         1 BINARY_OP                  0-0-0/w STRC(396)         1 BLOCK
     0-0-0/w STRC(288)         1 CALL_STMT                  0-0-0/w STRC(396)         1 CD
     0-0-0/w CHAR(4096)        1 CHARS                      0-0-0/w STRC(396)         1 CLASS
     0-0-0/w STRC(288)         1 COMPUTE_STMT               0-0-0/w STRC(396)         1 CONDITION
     0-0-0/w STRC(396)         1 CONST                      0-0-0/w STRC(72)          1 CONT
     0-0-0/w STRC(396)         1 DB                         0-0-0/w STRC(396)         1 DCB_
     0-0-0/w STRC(288)         1 DEFERED_IDENTIFIER         0-0-0/w STRC(252)         1 DEFERED_ID_TREE
     0-0-0/w STRC(288)         1 DEFERED_QUAL_ID            0-0-0/w STRC(288)         1 DEFERED_SUM_CLAUSE
     0-0-0/w STRC(288)         1 DEFERED_SUM_CLAUSE_LIST
     0-0-0/w STRC(288)         1 DELETE_STMT                0-0-0/w STRC(288)         1 DIVIDE_STMT
     0-0-0/w STRC(396)         1 DML_ITEM                   0-0-0/w STRC(180)         1 ETT
     0-0-0/w STRC(396)         1 FD                         0-0-0/w STRC(288)         1 ILS_LIST
     0-0-0/w STRC(288)         1 INSPECT_1_STMT             0-0-0/w STRC(288)         1 INSPECT_2_STMT
     0-0-0/w STRC(288)         1 INSPECT_4_STMT             0-0-0/w STRC(396)         1 INTDEF
     0-0-0/w STRC(396)         1 LABEL                      0-0-0/w STRC(288)         1 LA_ITEM
     0-0-0/w STRC(504)         1 LX_CD_INPUT                0-0-0/w STRC(324)         1 LX_CD_I_O
     0-0-0/w STRC(396)         1 LX_CD_OUTPUT               0-0-0/w STRC(288)   r     1 LX_ETT_ITEM
     0-0-0/w STRC(288)   r     1 LX_ITEM                    0-0-0/w STRC(288)         1 LX_LARGE
     0-0-0/w STRC(288)         1 LX_LIST                    0-0-0/w STRC(1224)        1 LX_REC_DECL
     0-0-0/w STRC(864)         1 LX_REPORT_REC              0-0-0/w STRC(288)         1 LX_TERMINAL
     0-0-0/w STRC(396)         1 MNEMONIC                   0-0-0/w STRC(288)         1 MULTIPLY_STMT
     0-0-0/w STRC(36864)       1 PAGE                       0-0-0/w STRC(396)         1 PARA
     0-0-0/w STRC(396)         1 PROC_                      0-0-0/w STRC(396)         1 PROC_DEF
     0-0-0/w STRC(396)         1 RD                         0-0-0/w STRC(288)         1 READ_STMT
     0-0-0/w STRC(288)         1 REWRITE_STMT               0-0-0/w STRC(396)         1 SCALAR
     0-0-0/w STRC(396)         1 SD                         0-0-0/w STRC(396)         1 SECTION
     0-0-0/w STRC(396)         1 SEGMENT                    0-0-0/w STRC(396)         1 ST
     0-0-0/w STRC(288)         1 START_STMT                 0-0-0/w STRC(252)         1 STRING_STMT
     0-0-0/w STRC(288)         1 SUBTRACT_STMT              0-0-0/w STRC(396)         1 SWITCH
     0-0-0/w STRC(396)         1 SYMBOLIC_CHAR              0-0-0/w STRC(396)         1 SYMDEF_
     0-0-0/w STRC(396)         1 SYMREF_                    0-0-0/w STRC(396)         1 TEMP
     0-0-0/w STRC(288)         1 UNARY_OP                   0-0-0/w STRC(288)         1 UNSTRING_STMT
     0-0-0/w STRC(396)         1 VARIABLE                   0-0-0/w STRC(288)         1 WRITE_STMT

PL6.E3A0      #002=Z8EV$COMPATIBLE_TYPES_ROUND File=Z8EV.:Z8A6TSI                SAT 08/09/97 12:54 Page:287

   Procedure Z8EV$COMPATIBLE_TYPES_ROUND requires 142 words for executable code.
   Procedure Z8EV$COMPATIBLE_TYPES_ROUND requires 34 words of local(AUTO) storage.

PL6.E3A0      #003=Z8EV$LEAST_STRONGEST_TYPE File=Z8EV.:Z8A6TSI                  SAT 08/09/97 12:55 Page:288
     1113        1        /*T***********************************************************/
     1114        2        /*T*                                                         */
     1115        3        /*T* Copyright (c) Bull HN Information Systems Inc., 1997    */
     1116        4        /*T*                                                         */
     1117        5        /*T***********************************************************/
     1118        6        Z8EV$LEAST_STRONGEST_TYPE:PROC(TERMINAL$, CONTEXT, RETURN$);
     1119        7
     1120        8    1        DCL TERMINAL$    PTR;
     1121        9    1        DCL CONTEXT      SBIN WORD;
     1122       10    1        DCL RETURN$      PTR;
     1123       11
     1124       12
     1125       13             %EQU PHASE = 1;
     1126       14             %INCLUDE Z8A_DEFC;
     1127       82             %INCLUDE Z8A_SUPP_MAC;
     1128     2482             %INCLUDE Z8E_STACKS;
     1129     4748             %INCLUDE Z8A_TYPES;
     1130     4922             %INCLUDE Z8A_ST;
     1131     8581             %INCLUDE Z8A_COMCOM;
     1132     9231             %INCLUDE Z8E_WINDOW;
     1133    11301             %INCLUDE Z8A_DESC;
     1134    11347             %INCLUDE Z8A_ERR_NUMS;
     1135    12111
     1136    12112
     1137    12113    1        DCL Z8EV$CONVERT           ENTRY(3);
     1138    12114    1        DCL Z8AU$TYPE_DESCRIPTOR   ENTRY(2);
     1139    12115    1        DCL Z8AE$ERROR             ENTRY(12);
     1140    12116
     1141    12117
     1142    12118    1        DCL TYPE         SBIN WORD;
     1143    12119    1        DCL ETT$$        PTR;
     1144    12120
     1145    12121    1        DCL 1 TYPE_DESC ALIGNED,
     1146    12122                   %TYPE_DESC;
     1147    12156
     1148    12157        %EJECT;
PL6.E3A0      #003=Z8EV$LEAST_STRONGEST_TYPE File=Z8EV.:Z8A6TSI                  SAT 08/09/97 12:55 Page:289
     1149    12158    2            DO CASE(TERMINAL$ -> LX_TERMINAL.SYMBOL);
     1150    12159    2              CASE(%RSV_WRD_ZEROES, %RSV_WRD_NULL);
     1151    12160    3                DO CASE(CONTEXT);
     1152    12161    3                  CASE(%CONTEXT_NUMERIC);
     1153    12162    3                    CALL Z8EV$CONVERT(%TYI, TERMINAL$, RETURN$);
     1154    12163
     1155    12164    3                  CASE(%CONTEXT_ALPHA_NUMERIC);
     1156    12165    3                    CALL Z8EV$CONVERT(%TYA, TERMINAL$, RETURN$);
     1157    12166
     1158    12167    3                  CASE(%CONTEXT_KANJI);
     1159    12168    3                    CALL Z8EV$CONVERT(%TYN, TERMINAL$, RETURN$);
     1160    12169
     1161    12170    3                END /* Case */;
     1162    12171
     1163    12172    2              CASE(%SINGLE_QUOTE, %DOUBLE_QUOTE,
     1164    12173    2                   %RSV_WRD_QUOTES, %RSV_WRD_LOW_VALUES,
     1165    12174    2                   %RSV_WRD_HIGH_VALUES, %RSV_WRD_SPACES);
     1166    12175    3                DO CASE(CONTEXT);
     1167    12176    3                   CASE(%CONTEXT_KANJI);
     1168    12177    3                     CALL Z8EV$CONVERT(%TYN, TERMINAL$, RETURN$);
     1169    12178
     1170    12179    3                   CASE(ELSE);
     1171    12180    3                     CALL Z8EV$CONVERT(%TYA, TERMINAL$, RETURN$);
     1172    12181
     1173    12182    3                END /* Case */;
     1174    12183
     1175    12184    2              CASE(%NUMERIC_LITERAL, %NUMBER_OR_PARAGRAPH, %NUMBER);
     1176    12185    2                CALL Z8EV$CONVERT(%TYD, TERMINAL$, RETURN$);
     1177    12186
     1178    12187    2                CALL Z8AU$TYPE_DESCRIPTOR(RETURN$ -> LX_ETT_ITEM.ETT$,
     1179    12188    2                                          TYPE_DESC);
     1180    12189
     1181    12190                     %UNPACK_NDSC ( @DESC      = TYPE_DESC.DESC ,
     1182    12191                                    @SCALE     = SCALE ,
     1183    12192                                    @LENGTH    = LENGTH );
     1184    12247
     1185    12248    2                IF (LENGTH <= 10) AND (SCALE = 0) THEN
PL6.E3A0      #003=Z8EV$LEAST_STRONGEST_TYPE File=Z8EV.:Z8A6TSI                  SAT 08/09/97 12:55 Page:290
     1186    12249    2                  CALL Z8EV$CONVERT(%TYI, TERMINAL$, RETURN$);
     1187    12250
     1188    12251    2              CASE(ELSE);
     1189    12252    2                CALL Z8AE$ERROR(%E$UNEXPECTED_CASE,
     1190    12253    2                                TERMINAL$ -> LX_TERMINAL.LINE,
     1191    12254    2                                TERMINAL$ -> LX_TERMINAL.COLUMN);
     1192    12255
     1193    12256    2                CALL Z8EV$CONVERT (%TYI, TERMINAL$, RETURN$);
     1194    12257
     1195    12258    2            END /* Case */;
     1196    12259
     1197    12260
     1198    12261    1            RETURN$ -> LX_ETT_ITEM.B.ROUND = TERMINAL$ -> LX_TERMINAL.B.ROUND;
     1199    12262
     1200    12263
     1201    12264    1   END Z8EV$LEAST_STRONGEST_TYPE;
     1202    12265        %EOD;

PL6.E3A0      #003=Z8EV$LEAST_STRONGEST_TYPE File=Z8EV.:Z8A6TSI                  SAT 08/09/97 12:55 Page:291
--  Include file information  --

   Z8A_ERR_NUMS.:Z8A6TOU  is referenced.
   Z8A_DESC.:Z8A6TOU  cannot be made into a system file and is referenced.
   Z8E_WINDOW.:Z8A6TOU  is referenced.
   Z8A_COMCOM.:Z8A6TOU  cannot be made into a system file and is referenced.
   Z8A_ST.:Z8A6TOU  cannot be made into a system file and is referenced.
   Z8A_TYPES.:Z8A6TOU  is referenced.
   Z8A_LEX_SYMB.:Z8A6TOU  cannot be made into a system file and is referenced.
   Z8E_STACKS.:Z8A6TOU  cannot be made into a system file and is referenced.
   X8A_COM_MACS.:X8A6TOU  is referenced.
   Z8A_NAMES.:Z8A6TOU  is referenced.
   Z8A_SUPP_MAC.:Z8A6TOU  is referenced.
   Z8A_DEFC.:Z8A6TOU  cannot be made into a system file and is referenced.
      No diagnostics issued in procedure Z8EV$LEAST_STRONGEST_TYPE.

   Procedure Z8EV$LEAST_STRONGEST_TYPE requires 671 words for executable code.
   Procedure Z8EV$LEAST_STRONGEST_TYPE requires 24 words of local(AUTO) storage.

PL6.E3A0      #003=Z8EV$LEAST_STRONGEST_TYPE File=Z8EV.:Z8A6TSI                  SAT 08/09/97 12:55 Page:292

 Object Unit name= Z8EV$LEAST_STRONGEST_TYPE                  File name= Z8EV.:Z8A6TOU
 UTS= AUG 09 '97 12:55:42.32 SAT                              Compiler= PL-6/E31         Sev=      00
 SharedLib= :SHARED_SYSTEM                                    Alt SharedLib=


    ****  Control sections  ****

 Sect   Type Bound  Init  Size OctSiz  Section name(segment info)
    0  LblCom even  none     1      1  ITERATION
    1  LblCom even  none    90    132  LEX_SYMBOL
    2  LblCom even  none     1      1  CURRENT_LEX_SYMBOL$
    3  LblCom even  none    90    132  TEMP_LEX_SYMBOL
    4  LblCom even  none    90    132  TEMP_LEX_SYMBOL2
    5  LblCom even  none     1      1  ST$
    6  LblCom even  none     5      5  ST_
    7   Proc  even  none   671   1237  Z8EV$LEAST_STRONGEST_TYPE
    8  RoData even  none    12     14  Z8EV$LEAST_STRONGEST_TYPE

    ****  Entry defs  ****

                              Check   Calling
                             calling  sequence
  Sect OctLoc Primary Altret sequence   type   Parms  Name
     7      0   yes            yes      Std        3  Z8EV$LEAST_STRONGEST_TYPE

  ****  Entry refs  ****

         Check        Calling
        calling       sequence
Altret sequence SRef   type   Args  Name
         yes           Std       3 Z8EV$CONVERT
         yes           Std       2 Z8AU$TYPE_DESCRIPTOR
         yes           Std      12 Z8AE$ERROR
                       nStd      0 X66_AUTO_3
                       nStd      0 X66_ARET
PL6.E3A0      #003=Z8EV$LEAST_STRONGEST_TYPE File=Z8EV.:Z8A6TSI                  SAT 08/09/97 12:55 Page:293

  ****  Data refs  ****

  Flags:  r = read only, s = secondary
Flgs Name                             Flgs Name                             Flgs Name
     COMCOM

  ****  Segment refs  ****

  Flags:  r = read only, s = secondary
Flgs Name                             Flgs Name                             Flgs Name
     ISSID                                 NULLSID
PL6.E3A0      #003=Z8EV$LEAST_STRONGEST_TYPE File=Z8EV.:Z8A6TSI                  SAT 08/09/97 12:55 Page:294


     1113        1        /*T***********************************************************/
     1114        2        /*T*                                                         */
     1115        3        /*T* Copyright (c) Bull HN Information Systems Inc., 1997    */
     1116        4        /*T*                                                         */
     1117        5        /*T***********************************************************/
     1118        6        Z8EV$LEAST_STRONGEST_TYPE:PROC(TERMINAL$, CONTEXT, RETURN$);

      6  7 000000   000000 700200 xent  Z8EV$LEAST_* TSX0  ! X66_AUTO_3
         7 000001   000030 000003                    ZERO    24,3

     1119        7
     1120        8    1        DCL TERMINAL$    PTR;
     1121        9    1        DCL CONTEXT      SBIN WORD;
     1122       10    1        DCL RETURN$      PTR;
     1123       11
     1124       12
     1125       13             %EQU PHASE = 1;
     1126       14             %INCLUDE Z8A_DEFC;
     1127       82             %INCLUDE Z8A_SUPP_MAC;
     1128     2482             %INCLUDE Z8E_STACKS;
     1129     4748             %INCLUDE Z8A_TYPES;
     1130     4922             %INCLUDE Z8A_ST;
     1131     8581             %INCLUDE Z8A_COMCOM;
     1132     9231             %INCLUDE Z8E_WINDOW;
     1133    11301             %INCLUDE Z8A_DESC;
     1134    11347             %INCLUDE Z8A_ERR_NUMS;
     1135    12111
     1136    12112
     1137    12113    1        DCL Z8EV$CONVERT           ENTRY(3);
     1138    12114    1        DCL Z8AU$TYPE_DESCRIPTOR   ENTRY(2);
     1139    12115    1        DCL Z8AE$ERROR             ENTRY(12);
     1140    12116
     1141    12117
     1142    12118    1        DCL TYPE         SBIN WORD;
     1143    12119    1        DCL ETT$$        PTR;
     1144    12120
PL6.E3A0      #003=Z8EV$LEAST_STRONGEST_TYPE File=Z8EV.:Z8A6TSI                  SAT 08/09/97 12:55 Page:295
     1145    12121    1        DCL 1 TYPE_DESC ALIGNED,
     1146    12122                   %TYPE_DESC;
     1147    12156
     1148    12157        %EJECT;
PL6.E3A0      #003=Z8EV$LEAST_STRONGEST_TYPE File=Z8EV.:Z8A6TSI                  SAT 08/09/97 12:55 Page:296
     1149    12158    2            DO CASE(TERMINAL$ -> LX_TERMINAL.SYMBOL);

  12158  7 000002   200003 470500                    LDP0    @TERMINAL$,,AUTO
         7 000003   000000 471500                    LDP1    0,,PR0
         7 000004   100003 235100                    LDA     3,,PR1
         7 000005   000762 115007                    CMPA    498,DL
         7 000006   000010 602005 7                  TNC     s:12158+6,AL
         7 000007   001203 710000 7                  TRA     s:12252
         7 000010   001203 710000 7                  TRA     s:12252
         7 000011   001203 710000 7                  TRA     s:12252
         7 000012   001076 710000 7                  TRA     s:12185
         7 000013   001041 710000 7                  TRA     s:12175
         7 000014   001041 710000 7                  TRA     s:12175
         7 000015   001203 710000 7                  TRA     s:12252
         7 000016   001203 710000 7                  TRA     s:12252
         7 000017   001203 710000 7                  TRA     s:12252
         7 000020   001203 710000 7                  TRA     s:12252
         7 000021   001203 710000 7                  TRA     s:12252
         7 000022   001203 710000 7                  TRA     s:12252
         7 000023   001203 710000 7                  TRA     s:12252
         7 000024   001203 710000 7                  TRA     s:12252
         7 000025   001203 710000 7                  TRA     s:12252
         7 000026   001203 710000 7                  TRA     s:12252
         7 000027   001203 710000 7                  TRA     s:12252
         7 000030   001203 710000 7                  TRA     s:12252
         7 000031   001203 710000 7                  TRA     s:12252
         7 000032   001203 710000 7                  TRA     s:12252
         7 000033   001203 710000 7                  TRA     s:12252
         7 000034   001203 710000 7                  TRA     s:12252
         7 000035   001076 710000 7                  TRA     s:12185
         7 000036   001076 710000 7                  TRA     s:12185
         7 000037   001203 710000 7                  TRA     s:12252
         7 000040   001203 710000 7                  TRA     s:12252
         7 000041   001203 710000 7                  TRA     s:12252
         7 000042   001203 710000 7                  TRA     s:12252
         7 000043   001203 710000 7                  TRA     s:12252
         7 000044   001203 710000 7                  TRA     s:12252
PL6.E3A0      #003=Z8EV$LEAST_STRONGEST_TYPE File=Z8EV.:Z8A6TSI                  SAT 08/09/97 12:55 Page:297
         7 000045   001203 710000 7                  TRA     s:12252
         7 000046   001203 710000 7                  TRA     s:12252
         7 000047   001203 710000 7                  TRA     s:12252
         7 000050   001203 710000 7                  TRA     s:12252
         7 000051   001203 710000 7                  TRA     s:12252
         7 000052   001203 710000 7                  TRA     s:12252
         7 000053   001203 710000 7                  TRA     s:12252
         7 000054   001203 710000 7                  TRA     s:12252
         7 000055   001203 710000 7                  TRA     s:12252
         7 000056   001203 710000 7                  TRA     s:12252
         7 000057   001203 710000 7                  TRA     s:12252
         7 000060   001203 710000 7                  TRA     s:12252
         7 000061   001203 710000 7                  TRA     s:12252
         7 000062   001203 710000 7                  TRA     s:12252
         7 000063   001203 710000 7                  TRA     s:12252
         7 000064   001203 710000 7                  TRA     s:12252
         7 000065   001203 710000 7                  TRA     s:12252
         7 000066   001203 710000 7                  TRA     s:12252
         7 000067   001203 710000 7                  TRA     s:12252
         7 000070   001203 710000 7                  TRA     s:12252
         7 000071   001203 710000 7                  TRA     s:12252
         7 000072   001203 710000 7                  TRA     s:12252
         7 000073   001203 710000 7                  TRA     s:12252
         7 000074   001203 710000 7                  TRA     s:12252
         7 000075   001203 710000 7                  TRA     s:12252
         7 000076   001203 710000 7                  TRA     s:12252
         7 000077   001203 710000 7                  TRA     s:12252
         7 000100   001203 710000 7                  TRA     s:12252
         7 000101   001203 710000 7                  TRA     s:12252
         7 000102   001203 710000 7                  TRA     s:12252
         7 000103   001203 710000 7                  TRA     s:12252
         7 000104   001203 710000 7                  TRA     s:12252
         7 000105   001203 710000 7                  TRA     s:12252
         7 000106   001203 710000 7                  TRA     s:12252
         7 000107   001203 710000 7                  TRA     s:12252
         7 000110   001203 710000 7                  TRA     s:12252
         7 000111   001203 710000 7                  TRA     s:12252
PL6.E3A0      #003=Z8EV$LEAST_STRONGEST_TYPE File=Z8EV.:Z8A6TSI                  SAT 08/09/97 12:55 Page:298
         7 000112   001203 710000 7                  TRA     s:12252
         7 000113   001203 710000 7                  TRA     s:12252
         7 000114   001203 710000 7                  TRA     s:12252
         7 000115   001203 710000 7                  TRA     s:12252
         7 000116   001203 710000 7                  TRA     s:12252
         7 000117   001203 710000 7                  TRA     s:12252
         7 000120   001203 710000 7                  TRA     s:12252
         7 000121   001203 710000 7                  TRA     s:12252
         7 000122   001203 710000 7                  TRA     s:12252
         7 000123   001203 710000 7                  TRA     s:12252
         7 000124   001203 710000 7                  TRA     s:12252
         7 000125   001203 710000 7                  TRA     s:12252
         7 000126   001203 710000 7                  TRA     s:12252
         7 000127   001203 710000 7                  TRA     s:12252
         7 000130   001203 710000 7                  TRA     s:12252
         7 000131   001203 710000 7                  TRA     s:12252
         7 000132   001203 710000 7                  TRA     s:12252
         7 000133   001203 710000 7                  TRA     s:12252
         7 000134   001203 710000 7                  TRA     s:12252
         7 000135   001203 710000 7                  TRA     s:12252
         7 000136   001203 710000 7                  TRA     s:12252
         7 000137   001203 710000 7                  TRA     s:12252
         7 000140   001203 710000 7                  TRA     s:12252
         7 000141   001203 710000 7                  TRA     s:12252
         7 000142   001203 710000 7                  TRA     s:12252
         7 000143   001203 710000 7                  TRA     s:12252
         7 000144   001203 710000 7                  TRA     s:12252
         7 000145   001203 710000 7                  TRA     s:12252
         7 000146   001203 710000 7                  TRA     s:12252
         7 000147   001203 710000 7                  TRA     s:12252
         7 000150   001203 710000 7                  TRA     s:12252
         7 000151   001203 710000 7                  TRA     s:12252
         7 000152   001203 710000 7                  TRA     s:12252
         7 000153   001203 710000 7                  TRA     s:12252
         7 000154   001203 710000 7                  TRA     s:12252
         7 000155   001203 710000 7                  TRA     s:12252
         7 000156   001203 710000 7                  TRA     s:12252
PL6.E3A0      #003=Z8EV$LEAST_STRONGEST_TYPE File=Z8EV.:Z8A6TSI                  SAT 08/09/97 12:55 Page:299
         7 000157   001203 710000 7                  TRA     s:12252
         7 000160   001203 710000 7                  TRA     s:12252
         7 000161   001203 710000 7                  TRA     s:12252
         7 000162   001203 710000 7                  TRA     s:12252
         7 000163   001203 710000 7                  TRA     s:12252
         7 000164   001203 710000 7                  TRA     s:12252
         7 000165   001203 710000 7                  TRA     s:12252
         7 000166   001203 710000 7                  TRA     s:12252
         7 000167   001203 710000 7                  TRA     s:12252
         7 000170   001203 710000 7                  TRA     s:12252
         7 000171   001203 710000 7                  TRA     s:12252
         7 000172   001203 710000 7                  TRA     s:12252
         7 000173   001203 710000 7                  TRA     s:12252
         7 000174   001203 710000 7                  TRA     s:12252
         7 000175   001203 710000 7                  TRA     s:12252
         7 000176   001203 710000 7                  TRA     s:12252
         7 000177   001203 710000 7                  TRA     s:12252
         7 000200   001203 710000 7                  TRA     s:12252
         7 000201   001203 710000 7                  TRA     s:12252
         7 000202   001203 710000 7                  TRA     s:12252
         7 000203   001203 710000 7                  TRA     s:12252
         7 000204   001203 710000 7                  TRA     s:12252
         7 000205   001203 710000 7                  TRA     s:12252
         7 000206   001203 710000 7                  TRA     s:12252
         7 000207   001203 710000 7                  TRA     s:12252
         7 000210   001203 710000 7                  TRA     s:12252
         7 000211   001203 710000 7                  TRA     s:12252
         7 000212   001203 710000 7                  TRA     s:12252
         7 000213   001203 710000 7                  TRA     s:12252
         7 000214   001203 710000 7                  TRA     s:12252
         7 000215   001203 710000 7                  TRA     s:12252
         7 000216   001203 710000 7                  TRA     s:12252
         7 000217   001203 710000 7                  TRA     s:12252
         7 000220   001203 710000 7                  TRA     s:12252
         7 000221   001203 710000 7                  TRA     s:12252
         7 000222   001203 710000 7                  TRA     s:12252
         7 000223   001203 710000 7                  TRA     s:12252
PL6.E3A0      #003=Z8EV$LEAST_STRONGEST_TYPE File=Z8EV.:Z8A6TSI                  SAT 08/09/97 12:55 Page:300
         7 000224   001203 710000 7                  TRA     s:12252
         7 000225   001203 710000 7                  TRA     s:12252
         7 000226   001203 710000 7                  TRA     s:12252
         7 000227   001203 710000 7                  TRA     s:12252
         7 000230   001203 710000 7                  TRA     s:12252
         7 000231   001203 710000 7                  TRA     s:12252
         7 000232   001203 710000 7                  TRA     s:12252
         7 000233   001203 710000 7                  TRA     s:12252
         7 000234   001203 710000 7                  TRA     s:12252
         7 000235   001203 710000 7                  TRA     s:12252
         7 000236   001203 710000 7                  TRA     s:12252
         7 000237   001203 710000 7                  TRA     s:12252
         7 000240   001203 710000 7                  TRA     s:12252
         7 000241   001203 710000 7                  TRA     s:12252
         7 000242   001203 710000 7                  TRA     s:12252
         7 000243   001203 710000 7                  TRA     s:12252
         7 000244   001203 710000 7                  TRA     s:12252
         7 000245   001203 710000 7                  TRA     s:12252
         7 000246   001203 710000 7                  TRA     s:12252
         7 000247   001203 710000 7                  TRA     s:12252
         7 000250   001203 710000 7                  TRA     s:12252
         7 000251   001203 710000 7                  TRA     s:12252
         7 000252   001203 710000 7                  TRA     s:12252
         7 000253   001203 710000 7                  TRA     s:12252
         7 000254   001203 710000 7                  TRA     s:12252
         7 000255   001203 710000 7                  TRA     s:12252
         7 000256   001203 710000 7                  TRA     s:12252
         7 000257   001203 710000 7                  TRA     s:12252
         7 000260   001203 710000 7                  TRA     s:12252
         7 000261   001203 710000 7                  TRA     s:12252
         7 000262   001203 710000 7                  TRA     s:12252
         7 000263   001203 710000 7                  TRA     s:12252
         7 000264   001203 710000 7                  TRA     s:12252
         7 000265   001203 710000 7                  TRA     s:12252
         7 000266   001203 710000 7                  TRA     s:12252
         7 000267   001203 710000 7                  TRA     s:12252
         7 000270   001203 710000 7                  TRA     s:12252
PL6.E3A0      #003=Z8EV$LEAST_STRONGEST_TYPE File=Z8EV.:Z8A6TSI                  SAT 08/09/97 12:55 Page:301
         7 000271   001203 710000 7                  TRA     s:12252
         7 000272   001203 710000 7                  TRA     s:12252
         7 000273   001203 710000 7                  TRA     s:12252
         7 000274   001203 710000 7                  TRA     s:12252
         7 000275   001203 710000 7                  TRA     s:12252
         7 000276   001203 710000 7                  TRA     s:12252
         7 000277   001203 710000 7                  TRA     s:12252
         7 000300   001203 710000 7                  TRA     s:12252
         7 000301   001203 710000 7                  TRA     s:12252
         7 000302   001203 710000 7                  TRA     s:12252
         7 000303   001203 710000 7                  TRA     s:12252
         7 000304   001203 710000 7                  TRA     s:12252
         7 000305   001203 710000 7                  TRA     s:12252
         7 000306   001203 710000 7                  TRA     s:12252
         7 000307   001203 710000 7                  TRA     s:12252
         7 000310   001203 710000 7                  TRA     s:12252
         7 000311   001203 710000 7                  TRA     s:12252
         7 000312   001203 710000 7                  TRA     s:12252
         7 000313   001203 710000 7                  TRA     s:12252
         7 000314   001203 710000 7                  TRA     s:12252
         7 000315   001203 710000 7                  TRA     s:12252
         7 000316   001203 710000 7                  TRA     s:12252
         7 000317   001203 710000 7                  TRA     s:12252
         7 000320   001203 710000 7                  TRA     s:12252
         7 000321   001203 710000 7                  TRA     s:12252
         7 000322   001203 710000 7                  TRA     s:12252
         7 000323   001203 710000 7                  TRA     s:12252
         7 000324   001203 710000 7                  TRA     s:12252
         7 000325   001203 710000 7                  TRA     s:12252
         7 000326   001203 710000 7                  TRA     s:12252
         7 000327   001203 710000 7                  TRA     s:12252
         7 000330   001203 710000 7                  TRA     s:12252
         7 000331   001203 710000 7                  TRA     s:12252
         7 000332   001203 710000 7                  TRA     s:12252
         7 000333   001203 710000 7                  TRA     s:12252
         7 000334   001203 710000 7                  TRA     s:12252
         7 000335   001203 710000 7                  TRA     s:12252
PL6.E3A0      #003=Z8EV$LEAST_STRONGEST_TYPE File=Z8EV.:Z8A6TSI                  SAT 08/09/97 12:55 Page:302
         7 000336   001203 710000 7                  TRA     s:12252
         7 000337   001203 710000 7                  TRA     s:12252
         7 000340   001203 710000 7                  TRA     s:12252
         7 000341   001203 710000 7                  TRA     s:12252
         7 000342   001203 710000 7                  TRA     s:12252
         7 000343   001203 710000 7                  TRA     s:12252
         7 000344   001203 710000 7                  TRA     s:12252
         7 000345   001203 710000 7                  TRA     s:12252
         7 000346   001203 710000 7                  TRA     s:12252
         7 000347   001203 710000 7                  TRA     s:12252
         7 000350   001203 710000 7                  TRA     s:12252
         7 000351   001203 710000 7                  TRA     s:12252
         7 000352   001203 710000 7                  TRA     s:12252
         7 000353   001203 710000 7                  TRA     s:12252
         7 000354   001203 710000 7                  TRA     s:12252
         7 000355   001203 710000 7                  TRA     s:12252
         7 000356   001203 710000 7                  TRA     s:12252
         7 000357   001203 710000 7                  TRA     s:12252
         7 000360   001203 710000 7                  TRA     s:12252
         7 000361   001041 710000 7                  TRA     s:12175
         7 000362   001203 710000 7                  TRA     s:12252
         7 000363   001203 710000 7                  TRA     s:12252
         7 000364   001203 710000 7                  TRA     s:12252
         7 000365   001203 710000 7                  TRA     s:12252
         7 000366   001203 710000 7                  TRA     s:12252
         7 000367   001203 710000 7                  TRA     s:12252
         7 000370   001203 710000 7                  TRA     s:12252
         7 000371   001203 710000 7                  TRA     s:12252
         7 000372   001203 710000 7                  TRA     s:12252
         7 000373   001203 710000 7                  TRA     s:12252
         7 000374   001203 710000 7                  TRA     s:12252
         7 000375   001203 710000 7                  TRA     s:12252
         7 000376   001203 710000 7                  TRA     s:12252
         7 000377   001203 710000 7                  TRA     s:12252
         7 000400   001203 710000 7                  TRA     s:12252
         7 000401   001203 710000 7                  TRA     s:12252
         7 000402   001203 710000 7                  TRA     s:12252
PL6.E3A0      #003=Z8EV$LEAST_STRONGEST_TYPE File=Z8EV.:Z8A6TSI                  SAT 08/09/97 12:55 Page:303
         7 000403   001203 710000 7                  TRA     s:12252
         7 000404   001203 710000 7                  TRA     s:12252
         7 000405   001203 710000 7                  TRA     s:12252
         7 000406   001203 710000 7                  TRA     s:12252
         7 000407   001203 710000 7                  TRA     s:12252
         7 000410   001203 710000 7                  TRA     s:12252
         7 000411   001203 710000 7                  TRA     s:12252
         7 000412   001203 710000 7                  TRA     s:12252
         7 000413   001203 710000 7                  TRA     s:12252
         7 000414   001203 710000 7                  TRA     s:12252
         7 000415   001203 710000 7                  TRA     s:12252
         7 000416   001203 710000 7                  TRA     s:12252
         7 000417   001203 710000 7                  TRA     s:12252
         7 000420   001203 710000 7                  TRA     s:12252
         7 000421   001203 710000 7                  TRA     s:12252
         7 000422   001203 710000 7                  TRA     s:12252
         7 000423   001203 710000 7                  TRA     s:12252
         7 000424   001203 710000 7                  TRA     s:12252
         7 000425   001203 710000 7                  TRA     s:12252
         7 000426   001203 710000 7                  TRA     s:12252
         7 000427   001203 710000 7                  TRA     s:12252
         7 000430   001203 710000 7                  TRA     s:12252
         7 000431   001203 710000 7                  TRA     s:12252
         7 000432   001203 710000 7                  TRA     s:12252
         7 000433   001203 710000 7                  TRA     s:12252
         7 000434   001203 710000 7                  TRA     s:12252
         7 000435   001203 710000 7                  TRA     s:12252
         7 000436   001203 710000 7                  TRA     s:12252
         7 000437   001203 710000 7                  TRA     s:12252
         7 000440   001203 710000 7                  TRA     s:12252
         7 000441   001203 710000 7                  TRA     s:12252
         7 000442   001203 710000 7                  TRA     s:12252
         7 000443   001041 710000 7                  TRA     s:12175
         7 000444   001203 710000 7                  TRA     s:12252
         7 000445   001203 710000 7                  TRA     s:12252
         7 000446   001203 710000 7                  TRA     s:12252
         7 000447   001203 710000 7                  TRA     s:12252
PL6.E3A0      #003=Z8EV$LEAST_STRONGEST_TYPE File=Z8EV.:Z8A6TSI                  SAT 08/09/97 12:55 Page:304
         7 000450   001203 710000 7                  TRA     s:12252
         7 000451   001203 710000 7                  TRA     s:12252
         7 000452   001203 710000 7                  TRA     s:12252
         7 000453   001203 710000 7                  TRA     s:12252
         7 000454   001203 710000 7                  TRA     s:12252
         7 000455   001203 710000 7                  TRA     s:12252
         7 000456   001203 710000 7                  TRA     s:12252
         7 000457   001203 710000 7                  TRA     s:12252
         7 000460   001203 710000 7                  TRA     s:12252
         7 000461   001203 710000 7                  TRA     s:12252
         7 000462   001203 710000 7                  TRA     s:12252
         7 000463   001203 710000 7                  TRA     s:12252
         7 000464   001203 710000 7                  TRA     s:12252
         7 000465   001203 710000 7                  TRA     s:12252
         7 000466   001203 710000 7                  TRA     s:12252
         7 000467   001203 710000 7                  TRA     s:12252
         7 000470   001203 710000 7                  TRA     s:12252
         7 000471   001203 710000 7                  TRA     s:12252
         7 000472   001203 710000 7                  TRA     s:12252
         7 000473   000772 710000 7                  TRA     s:12160
         7 000474   001203 710000 7                  TRA     s:12252
         7 000475   001203 710000 7                  TRA     s:12252
         7 000476   001203 710000 7                  TRA     s:12252
         7 000477   001203 710000 7                  TRA     s:12252
         7 000500   001203 710000 7                  TRA     s:12252
         7 000501   001203 710000 7                  TRA     s:12252
         7 000502   001203 710000 7                  TRA     s:12252
         7 000503   001203 710000 7                  TRA     s:12252
         7 000504   001203 710000 7                  TRA     s:12252
         7 000505   001203 710000 7                  TRA     s:12252
         7 000506   001203 710000 7                  TRA     s:12252
         7 000507   001203 710000 7                  TRA     s:12252
         7 000510   001203 710000 7                  TRA     s:12252
         7 000511   001203 710000 7                  TRA     s:12252
         7 000512   001203 710000 7                  TRA     s:12252
         7 000513   001203 710000 7                  TRA     s:12252
         7 000514   001203 710000 7                  TRA     s:12252
PL6.E3A0      #003=Z8EV$LEAST_STRONGEST_TYPE File=Z8EV.:Z8A6TSI                  SAT 08/09/97 12:55 Page:305
         7 000515   001203 710000 7                  TRA     s:12252
         7 000516   001203 710000 7                  TRA     s:12252
         7 000517   001203 710000 7                  TRA     s:12252
         7 000520   001203 710000 7                  TRA     s:12252
         7 000521   001203 710000 7                  TRA     s:12252
         7 000522   001203 710000 7                  TRA     s:12252
         7 000523   001203 710000 7                  TRA     s:12252
         7 000524   001203 710000 7                  TRA     s:12252
         7 000525   001203 710000 7                  TRA     s:12252
         7 000526   001203 710000 7                  TRA     s:12252
         7 000527   001203 710000 7                  TRA     s:12252
         7 000530   001203 710000 7                  TRA     s:12252
         7 000531   001203 710000 7                  TRA     s:12252
         7 000532   001203 710000 7                  TRA     s:12252
         7 000533   001203 710000 7                  TRA     s:12252
         7 000534   001203 710000 7                  TRA     s:12252
         7 000535   001203 710000 7                  TRA     s:12252
         7 000536   001203 710000 7                  TRA     s:12252
         7 000537   001203 710000 7                  TRA     s:12252
         7 000540   001203 710000 7                  TRA     s:12252
         7 000541   001203 710000 7                  TRA     s:12252
         7 000542   001203 710000 7                  TRA     s:12252
         7 000543   001203 710000 7                  TRA     s:12252
         7 000544   001203 710000 7                  TRA     s:12252
         7 000545   001203 710000 7                  TRA     s:12252
         7 000546   001203 710000 7                  TRA     s:12252
         7 000547   001203 710000 7                  TRA     s:12252
         7 000550   001203 710000 7                  TRA     s:12252
         7 000551   001203 710000 7                  TRA     s:12252
         7 000552   001203 710000 7                  TRA     s:12252
         7 000553   001041 710000 7                  TRA     s:12175
         7 000554   001203 710000 7                  TRA     s:12252
         7 000555   001203 710000 7                  TRA     s:12252
         7 000556   001203 710000 7                  TRA     s:12252
         7 000557   001203 710000 7                  TRA     s:12252
         7 000560   001203 710000 7                  TRA     s:12252
         7 000561   001203 710000 7                  TRA     s:12252
PL6.E3A0      #003=Z8EV$LEAST_STRONGEST_TYPE File=Z8EV.:Z8A6TSI                  SAT 08/09/97 12:55 Page:306
         7 000562   001203 710000 7                  TRA     s:12252
         7 000563   001203 710000 7                  TRA     s:12252
         7 000564   001203 710000 7                  TRA     s:12252
         7 000565   001203 710000 7                  TRA     s:12252
         7 000566   001203 710000 7                  TRA     s:12252
         7 000567   001203 710000 7                  TRA     s:12252
         7 000570   001203 710000 7                  TRA     s:12252
         7 000571   001203 710000 7                  TRA     s:12252
         7 000572   001203 710000 7                  TRA     s:12252
         7 000573   001203 710000 7                  TRA     s:12252
         7 000574   001203 710000 7                  TRA     s:12252
         7 000575   001203 710000 7                  TRA     s:12252
         7 000576   001203 710000 7                  TRA     s:12252
         7 000577   001203 710000 7                  TRA     s:12252
         7 000600   001203 710000 7                  TRA     s:12252
         7 000601   001203 710000 7                  TRA     s:12252
         7 000602   001203 710000 7                  TRA     s:12252
         7 000603   001203 710000 7                  TRA     s:12252
         7 000604   001203 710000 7                  TRA     s:12252
         7 000605   001203 710000 7                  TRA     s:12252
         7 000606   001203 710000 7                  TRA     s:12252
         7 000607   001203 710000 7                  TRA     s:12252
         7 000610   001203 710000 7                  TRA     s:12252
         7 000611   001203 710000 7                  TRA     s:12252
         7 000612   001203 710000 7                  TRA     s:12252
         7 000613   001203 710000 7                  TRA     s:12252
         7 000614   001203 710000 7                  TRA     s:12252
         7 000615   001203 710000 7                  TRA     s:12252
         7 000616   001203 710000 7                  TRA     s:12252
         7 000617   001203 710000 7                  TRA     s:12252
         7 000620   001203 710000 7                  TRA     s:12252
         7 000621   001203 710000 7                  TRA     s:12252
         7 000622   001203 710000 7                  TRA     s:12252
         7 000623   001203 710000 7                  TRA     s:12252
         7 000624   001203 710000 7                  TRA     s:12252
         7 000625   001203 710000 7                  TRA     s:12252
         7 000626   001203 710000 7                  TRA     s:12252
PL6.E3A0      #003=Z8EV$LEAST_STRONGEST_TYPE File=Z8EV.:Z8A6TSI                  SAT 08/09/97 12:55 Page:307
         7 000627   001203 710000 7                  TRA     s:12252
         7 000630   001203 710000 7                  TRA     s:12252
         7 000631   001203 710000 7                  TRA     s:12252
         7 000632   001203 710000 7                  TRA     s:12252
         7 000633   001203 710000 7                  TRA     s:12252
         7 000634   001203 710000 7                  TRA     s:12252
         7 000635   001203 710000 7                  TRA     s:12252
         7 000636   001203 710000 7                  TRA     s:12252
         7 000637   001203 710000 7                  TRA     s:12252
         7 000640   001203 710000 7                  TRA     s:12252
         7 000641   001203 710000 7                  TRA     s:12252
         7 000642   001203 710000 7                  TRA     s:12252
         7 000643   001203 710000 7                  TRA     s:12252
         7 000644   001203 710000 7                  TRA     s:12252
         7 000645   001203 710000 7                  TRA     s:12252
         7 000646   001203 710000 7                  TRA     s:12252
         7 000647   001203 710000 7                  TRA     s:12252
         7 000650   001203 710000 7                  TRA     s:12252
         7 000651   001203 710000 7                  TRA     s:12252
         7 000652   001203 710000 7                  TRA     s:12252
         7 000653   001203 710000 7                  TRA     s:12252
         7 000654   001203 710000 7                  TRA     s:12252
         7 000655   001203 710000 7                  TRA     s:12252
         7 000656   001203 710000 7                  TRA     s:12252
         7 000657   001203 710000 7                  TRA     s:12252
         7 000660   001041 710000 7                  TRA     s:12175
         7 000661   001203 710000 7                  TRA     s:12252
         7 000662   001203 710000 7                  TRA     s:12252
         7 000663   001203 710000 7                  TRA     s:12252
         7 000664   001203 710000 7                  TRA     s:12252
         7 000665   001203 710000 7                  TRA     s:12252
         7 000666   001203 710000 7                  TRA     s:12252
         7 000667   001203 710000 7                  TRA     s:12252
         7 000670   001203 710000 7                  TRA     s:12252
         7 000671   001203 710000 7                  TRA     s:12252
         7 000672   001203 710000 7                  TRA     s:12252
         7 000673   001203 710000 7                  TRA     s:12252
PL6.E3A0      #003=Z8EV$LEAST_STRONGEST_TYPE File=Z8EV.:Z8A6TSI                  SAT 08/09/97 12:55 Page:308
         7 000674   001203 710000 7                  TRA     s:12252
         7 000675   001203 710000 7                  TRA     s:12252
         7 000676   001203 710000 7                  TRA     s:12252
         7 000677   001203 710000 7                  TRA     s:12252
         7 000700   001203 710000 7                  TRA     s:12252
         7 000701   001203 710000 7                  TRA     s:12252
         7 000702   001203 710000 7                  TRA     s:12252
         7 000703   001203 710000 7                  TRA     s:12252
         7 000704   001203 710000 7                  TRA     s:12252
         7 000705   001203 710000 7                  TRA     s:12252
         7 000706   001203 710000 7                  TRA     s:12252
         7 000707   001203 710000 7                  TRA     s:12252
         7 000710   001203 710000 7                  TRA     s:12252
         7 000711   001203 710000 7                  TRA     s:12252
         7 000712   001203 710000 7                  TRA     s:12252
         7 000713   001203 710000 7                  TRA     s:12252
         7 000714   001203 710000 7                  TRA     s:12252
         7 000715   001203 710000 7                  TRA     s:12252
         7 000716   001203 710000 7                  TRA     s:12252
         7 000717   001203 710000 7                  TRA     s:12252
         7 000720   001203 710000 7                  TRA     s:12252
         7 000721   001203 710000 7                  TRA     s:12252
         7 000722   001203 710000 7                  TRA     s:12252
         7 000723   001203 710000 7                  TRA     s:12252
         7 000724   001203 710000 7                  TRA     s:12252
         7 000725   001203 710000 7                  TRA     s:12252
         7 000726   001203 710000 7                  TRA     s:12252
         7 000727   001203 710000 7                  TRA     s:12252
         7 000730   001203 710000 7                  TRA     s:12252
         7 000731   001203 710000 7                  TRA     s:12252
         7 000732   001203 710000 7                  TRA     s:12252
         7 000733   001203 710000 7                  TRA     s:12252
         7 000734   001203 710000 7                  TRA     s:12252
         7 000735   001203 710000 7                  TRA     s:12252
         7 000736   001203 710000 7                  TRA     s:12252
         7 000737   001203 710000 7                  TRA     s:12252
         7 000740   001203 710000 7                  TRA     s:12252
PL6.E3A0      #003=Z8EV$LEAST_STRONGEST_TYPE File=Z8EV.:Z8A6TSI                  SAT 08/09/97 12:55 Page:309
         7 000741   001203 710000 7                  TRA     s:12252
         7 000742   001203 710000 7                  TRA     s:12252
         7 000743   001203 710000 7                  TRA     s:12252
         7 000744   001203 710000 7                  TRA     s:12252
         7 000745   001203 710000 7                  TRA     s:12252
         7 000746   001203 710000 7                  TRA     s:12252
         7 000747   001203 710000 7                  TRA     s:12252
         7 000750   001203 710000 7                  TRA     s:12252
         7 000751   001203 710000 7                  TRA     s:12252
         7 000752   001203 710000 7                  TRA     s:12252
         7 000753   001203 710000 7                  TRA     s:12252
         7 000754   001203 710000 7                  TRA     s:12252
         7 000755   001203 710000 7                  TRA     s:12252
         7 000756   001203 710000 7                  TRA     s:12252
         7 000757   001203 710000 7                  TRA     s:12252
         7 000760   001203 710000 7                  TRA     s:12252
         7 000761   001203 710000 7                  TRA     s:12252
         7 000762   001203 710000 7                  TRA     s:12252
         7 000763   001203 710000 7                  TRA     s:12252
         7 000764   001203 710000 7                  TRA     s:12252
         7 000765   001203 710000 7                  TRA     s:12252
         7 000766   001203 710000 7                  TRA     s:12252
         7 000767   001203 710000 7                  TRA     s:12252
         7 000770   001203 710000 7                  TRA     s:12252
         7 000771   000772 710000 7                  TRA     s:12160

     1150    12159    2              CASE(%RSV_WRD_ZEROES, %RSV_WRD_NULL);

     1151    12160    3                DO CASE(CONTEXT);

  12160  7 000772   200004 473500                    LDP3    @CONTEXT,,AUTO
         7 000773   300000 235100                    LDA     0,,PR3
         7 000774   000004 115007                    CMPA    4,DL
         7 000775   000777 602005 7                  TNC     s:12160+5,AL
         7 000776   001226 710000 7                  TRA     s:12261
         7 000777   001003 710000 7                  TRA     s:12162
         7 001000   001015 710000 7                  TRA     s:12165
PL6.E3A0      #003=Z8EV$LEAST_STRONGEST_TYPE File=Z8EV.:Z8A6TSI                  SAT 08/09/97 12:55 Page:310
         7 001001   001040 710000 7                  TRA     s:12170
         7 001002   001027 710000 7                  TRA     s:12168

     1152    12161    3                  CASE(%CONTEXT_NUMERIC);

     1153    12162    3                    CALL Z8EV$CONVERT(%TYI, TERMINAL$, RETURN$);

  12162  7 001003   200005 236100                    LDQ     @RETURN$,,AUTO
         7 001004   200026 756100                    STQ     TYPE_DESC+6,,AUTO
         7 001005   200003 236100                    LDQ     @TERMINAL$,,AUTO
         7 001006   000002 235000 8                  LDA     2
         7 001007   200024 757100                    STAQ    TYPE_DESC+4,,AUTO
         7 001010   200024 630500                    EPPR0   TYPE_DESC+4,,AUTO
         7 001011   000000 631400 8                  EPPR1   0
         7 001012   000000 701000 xent               TSX1    Z8EV$CONVERT
         7 001013   000000 011000                    NOP     0
         7 001014   001226 710000 7                  TRA     s:12261

     1154    12163
     1155    12164    3                  CASE(%CONTEXT_ALPHA_NUMERIC);

     1156    12165    3                    CALL Z8EV$CONVERT(%TYA, TERMINAL$, RETURN$);

  12165  7 001015   200005 236100                    LDQ     @RETURN$,,AUTO
         7 001016   200026 756100                    STQ     TYPE_DESC+6,,AUTO
         7 001017   200003 236100                    LDQ     @TERMINAL$,,AUTO
         7 001020   000004 235000 8                  LDA     4
         7 001021   200024 757100                    STAQ    TYPE_DESC+4,,AUTO
         7 001022   200024 630500                    EPPR0   TYPE_DESC+4,,AUTO
         7 001023   000000 631400 8                  EPPR1   0
         7 001024   000000 701000 xent               TSX1    Z8EV$CONVERT
         7 001025   000000 011000                    NOP     0
         7 001026   001226 710000 7                  TRA     s:12261

     1157    12166
     1158    12167    3                  CASE(%CONTEXT_KANJI);

PL6.E3A0      #003=Z8EV$LEAST_STRONGEST_TYPE File=Z8EV.:Z8A6TSI                  SAT 08/09/97 12:55 Page:311
     1159    12168    3                    CALL Z8EV$CONVERT(%TYN, TERMINAL$, RETURN$);

  12168  7 001027   200005 236100                    LDQ     @RETURN$,,AUTO
         7 001030   200026 756100                    STQ     TYPE_DESC+6,,AUTO
         7 001031   200003 236100                    LDQ     @TERMINAL$,,AUTO
         7 001032   000006 235000 8                  LDA     6
         7 001033   200024 757100                    STAQ    TYPE_DESC+4,,AUTO
         7 001034   200024 630500                    EPPR0   TYPE_DESC+4,,AUTO
         7 001035   000000 631400 8                  EPPR1   0
         7 001036   000000 701000 xent               TSX1    Z8EV$CONVERT
         7 001037   000000 011000                    NOP     0

     1160    12169
     1161    12170    3                END /* Case */;

  12170  7 001040   001226 710000 7                  TRA     s:12261

     1162    12171
     1163    12172    2              CASE(%SINGLE_QUOTE, %DOUBLE_QUOTE,

     1164    12173    2                   %RSV_WRD_QUOTES, %RSV_WRD_LOW_VALUES,
     1165    12174    2                   %RSV_WRD_HIGH_VALUES, %RSV_WRD_SPACES);
     1166    12175    3                DO CASE(CONTEXT);

  12175  7 001041   200004 473500                    LDP3    @CONTEXT,,AUTO
         7 001042   300000 235100                    LDA     0,,PR3
         7 001043   000004 115007                    CMPA    4,DL
         7 001044   001046 602005 7                  TNC     s:12175+5,AL
         7 001045   001064 710000 7                  TRA     s:12180
         7 001046   001064 710000 7                  TRA     s:12180
         7 001047   001064 710000 7                  TRA     s:12180
         7 001050   001064 710000 7                  TRA     s:12180
         7 001051   001052 710000 7                  TRA     s:12177

     1167    12176    3                   CASE(%CONTEXT_KANJI);

     1168    12177    3                     CALL Z8EV$CONVERT(%TYN, TERMINAL$, RETURN$);
PL6.E3A0      #003=Z8EV$LEAST_STRONGEST_TYPE File=Z8EV.:Z8A6TSI                  SAT 08/09/97 12:55 Page:312

  12177  7 001052   200005 236100                    LDQ     @RETURN$,,AUTO
         7 001053   200026 756100                    STQ     TYPE_DESC+6,,AUTO
         7 001054   200003 236100                    LDQ     @TERMINAL$,,AUTO
         7 001055   000006 235000 8                  LDA     6
         7 001056   200024 757100                    STAQ    TYPE_DESC+4,,AUTO
         7 001057   200024 630500                    EPPR0   TYPE_DESC+4,,AUTO
         7 001060   000000 631400 8                  EPPR1   0
         7 001061   000000 701000 xent               TSX1    Z8EV$CONVERT
         7 001062   000000 011000                    NOP     0
         7 001063   001226 710000 7                  TRA     s:12261

     1169    12178
     1170    12179    3                   CASE(ELSE);

     1171    12180    3                     CALL Z8EV$CONVERT(%TYA, TERMINAL$, RETURN$);

  12180  7 001064   200005 236100                    LDQ     @RETURN$,,AUTO
         7 001065   200026 756100                    STQ     TYPE_DESC+6,,AUTO
         7 001066   200003 236100                    LDQ     @TERMINAL$,,AUTO
         7 001067   000004 235000 8                  LDA     4
         7 001070   200024 757100                    STAQ    TYPE_DESC+4,,AUTO
         7 001071   200024 630500                    EPPR0   TYPE_DESC+4,,AUTO
         7 001072   000000 631400 8                  EPPR1   0
         7 001073   000000 701000 xent               TSX1    Z8EV$CONVERT
         7 001074   000000 011000                    NOP     0

     1172    12181
     1173    12182    3                END /* Case */;

  12182  7 001075   001226 710000 7                  TRA     s:12261

     1174    12183
     1175    12184    2              CASE(%NUMERIC_LITERAL, %NUMBER_OR_PARAGRAPH, %NUMBER);

     1176    12185    2                CALL Z8EV$CONVERT(%TYD, TERMINAL$, RETURN$);

PL6.E3A0      #003=Z8EV$LEAST_STRONGEST_TYPE File=Z8EV.:Z8A6TSI                  SAT 08/09/97 12:55 Page:313
  12185  7 001076   200005 236100                    LDQ     @RETURN$,,AUTO
         7 001077   200026 756100                    STQ     TYPE_DESC+6,,AUTO
         7 001100   200003 236100                    LDQ     @TERMINAL$,,AUTO
         7 001101   000010 235000 8                  LDA     8
         7 001102   200024 757100                    STAQ    TYPE_DESC+4,,AUTO
         7 001103   200024 630500                    EPPR0   TYPE_DESC+4,,AUTO
         7 001104   000000 631400 8                  EPPR1   0
         7 001105   000000 701000 xent               TSX1    Z8EV$CONVERT
         7 001106   000000 011000                    NOP     0

     1177    12186
     1178    12187    2                CALL Z8AU$TYPE_DESCRIPTOR(RETURN$ -> LX_ETT_ITEM.ETT$,

  12187  7 001107   200005 470500                    LDP0    @RETURN$,,AUTO
         7 001110   000000 471500                    LDP1    0,,PR0
         7 001111   200020 633500                    EPPR3   TYPE_DESC,,AUTO
         7 001112   200025 453500                    STP3    TYPE_DESC+5,,AUTO
         7 001113   100001 634500                    EPPR4   1,,PR1
         7 001114   200024 454500                    STP4    TYPE_DESC+4,,AUTO
         7 001115   200024 630500                    EPPR0   TYPE_DESC+4,,AUTO
         7 001116   000011 631400 8                  EPPR1   9
         7 001117   000000 701000 xent               TSX1    Z8AU$TYPE_DESCRIPTOR
         7 001120   000000 011000                    NOP     0

     1179    12188    2                                          TYPE_DESC);
     1180    12189
     1181    12190                     %UNPACK_NDSC ( @DESC      = TYPE_DESC.DESC ,
     1182    12191                                    @SCALE     = SCALE ,
     1183    12192                                    @LENGTH    = LENGTH );

  12199  7 001121   200021 236100                    LDQ     TYPE_DESC+1,,AUTO
         7 001122   000014 772000                    QRL     12
         7 001123   000003 376007                    ANQ     3,DL
         7 001124   000004 116007                    CMPQ    4,DL
         7 001125   001127 602006 7                  TNC     s:12199+6,QL
         7 001126   001160 710000 7                  TRA     s:12239
         7 001127   001144 710000 7                  TRA     s:12223
PL6.E3A0      #003=Z8EV$LEAST_STRONGEST_TYPE File=Z8EV.:Z8A6TSI                  SAT 08/09/97 12:55 Page:314
         7 001130   001137 710000 7                  TRA     s:12206
         7 001131   001137 710000 7                  TRA     s:12206
         7 001132   001133 710000 7                  TRA     s:12201

  12201  7 001133   200021 236100                    LDQ     TYPE_DESC+1,,AUTO
         7 001134   000077 376007                    ANQ     63,DL
         7 001135   200013 756100                    STQ     LENGTH,,AUTO
         7 001136   001160 710000 7                  TRA     s:12239

  12206  7 001137   200021 236100                    LDQ     TYPE_DESC+1,,AUTO
         7 001140   000077 376007                    ANQ     63,DL
         7 001141   000001 136007                    SBLQ    1,DL
         7 001142   200013 756100                    STQ     LENGTH,,AUTO
         7 001143   001160 710000 7                  TRA     s:12239

  12223  7 001144   200021 236100                    LDQ     TYPE_DESC+1,,AUTO
         7 001145   040000 316007                    CANQ    16384,DL
         7 001146   001154 600000 7                  TZE     s:12226

  12224  7 001147   200021 236100                    LDQ     TYPE_DESC+1,,AUTO
         7 001150   000077 376007                    ANQ     63,DL
         7 001151   000003 136007                    SBLQ    3,DL
         7 001152   200013 756100                    STQ     LENGTH,,AUTO
         7 001153   001160 710000 7                  TRA     s:12239

  12226  7 001154   200021 236100                    LDQ     TYPE_DESC+1,,AUTO
         7 001155   000077 376007                    ANQ     63,DL
         7 001156   000002 136007                    SBLQ    2,DL
         7 001157   200013 756100                    STQ     LENGTH,,AUTO

  12239  7 001160   200021 236100                    LDQ     TYPE_DESC+1,,AUTO
         7 001161   000030 736000                    QLS     24
         7 001162   000036 732000                    QRS     30
         7 001163   200012 756100                    STQ     SCALE,,AUTO

     1184    12247
     1185    12248    2                IF (LENGTH <= 10) AND (SCALE = 0) THEN
PL6.E3A0      #003=Z8EV$LEAST_STRONGEST_TYPE File=Z8EV.:Z8A6TSI                  SAT 08/09/97 12:55 Page:315

  12248  7 001164   200013 235100                    LDA     LENGTH,,AUTO
         7 001165   000012 115007                    CMPA    10,DL
         7 001166   001226 605400 7                  TPNZ    s:12261
         7 001167   000000 116003                    CMPQ    0,DU
         7 001170   001226 601000 7                  TNZ     s:12261

     1186    12249    2                  CALL Z8EV$CONVERT(%TYI, TERMINAL$, RETURN$);

  12249  7 001171   200005 236100                    LDQ     @RETURN$,,AUTO
         7 001172   200026 756100                    STQ     TYPE_DESC+6,,AUTO
         7 001173   200003 236100                    LDQ     @TERMINAL$,,AUTO
         7 001174   000002 235000 8                  LDA     2
         7 001175   200024 757100                    STAQ    TYPE_DESC+4,,AUTO
         7 001176   200024 630500                    EPPR0   TYPE_DESC+4,,AUTO
         7 001177   000000 631400 8                  EPPR1   0
         7 001200   000000 701000 xent               TSX1    Z8EV$CONVERT
         7 001201   000000 011000                    NOP     0
         7 001202   001226 710000 7                  TRA     s:12261

     1187    12250
     1188    12251    2              CASE(ELSE);

     1189    12252    2                CALL Z8AE$ERROR(%E$UNEXPECTED_CASE,

  12252  7 001203   100006 633500                    EPPR3   6,,PR1
         7 001204   200026 453500                    STP3    TYPE_DESC+6,,AUTO
         7 001205   100005 634500                    EPPR4   5,,PR1
         7 001206   200025 454500                    STP4    TYPE_DESC+5,,AUTO
         7 001207   000013 236000 8                  LDQ     11
         7 001210   200024 756100                    STQ     TYPE_DESC+4,,AUTO
         7 001211   200024 630500                    EPPR0   TYPE_DESC+4,,AUTO
         7 001212   000000 631400 8                  EPPR1   0
         7 001213   000000 701000 xent               TSX1    Z8AE$ERROR
         7 001214   000000 011000                    NOP     0

     1190    12253    2                                TERMINAL$ -> LX_TERMINAL.LINE,
PL6.E3A0      #003=Z8EV$LEAST_STRONGEST_TYPE File=Z8EV.:Z8A6TSI                  SAT 08/09/97 12:55 Page:316
     1191    12254    2                                TERMINAL$ -> LX_TERMINAL.COLUMN);
     1192    12255
     1193    12256    2                CALL Z8EV$CONVERT (%TYI, TERMINAL$, RETURN$);

  12256  7 001215   200005 236100                    LDQ     @RETURN$,,AUTO
         7 001216   200026 756100                    STQ     TYPE_DESC+6,,AUTO
         7 001217   200003 236100                    LDQ     @TERMINAL$,,AUTO
         7 001220   000002 235000 8                  LDA     2
         7 001221   200024 757100                    STAQ    TYPE_DESC+4,,AUTO
         7 001222   200024 630500                    EPPR0   TYPE_DESC+4,,AUTO
         7 001223   000000 631400 8                  EPPR1   0
         7 001224   000000 701000 xent               TSX1    Z8EV$CONVERT
         7 001225   000000 011000                    NOP     0

     1194    12257
     1195    12258    2            END /* Case */;

     1196    12259
     1197    12260
     1198    12261    1            RETURN$ -> LX_ETT_ITEM.B.ROUND = TERMINAL$ -> LX_TERMINAL.B.ROUND;

  12261  7 001226   200005 470500                    LDP0    @RETURN$,,AUTO
         7 001227   000000 471500                    LDP1    0,,PR0
         7 001230   200003 473500                    LDP3    @TERMINAL$,,AUTO
         7 001231   300000 474500                    LDP4    0,,PR3
         7 001232   400000 236100                    LDQ     0,,PR4
         7 001233   100000 676100                    ERQ     0,,PR1
         7 001234   200000 376007                    ANQ     65536,DL
         7 001235   100000 656100                    ERSQ    0,,PR1

     1199    12262
     1200    12263
     1201    12264    1   END Z8EV$LEAST_STRONGEST_TYPE;

  12264  7 001236   000000 702200 xent               TSX2  ! X66_ARET
     1202    12265        %EOD;

PL6.E3A0      #003=Z8EV$LEAST_STRONGEST_TYPE File=Z8EV.:Z8A6TSI                  SAT 08/09/97 12:55 Page:317
--  Include file information  --

   Z8A_ERR_NUMS.:Z8A6TOU  is referenced.
   Z8A_DESC.:Z8A6TOU  cannot be made into a system file and is referenced.
   Z8E_WINDOW.:Z8A6TOU  is referenced.
   Z8A_COMCOM.:Z8A6TOU  cannot be made into a system file and is referenced.
   Z8A_ST.:Z8A6TOU  cannot be made into a system file and is referenced.
   Z8A_TYPES.:Z8A6TOU  is referenced.
   Z8A_LEX_SYMB.:Z8A6TOU  cannot be made into a system file and is referenced.
   Z8E_STACKS.:Z8A6TOU  cannot be made into a system file and is referenced.
   X8A_COM_MACS.:X8A6TOU  is referenced.
   Z8A_NAMES.:Z8A6TOU  is referenced.
   Z8A_SUPP_MAC.:Z8A6TOU  is referenced.
   Z8A_DEFC.:Z8A6TOU  cannot be made into a system file and is referenced.
      No diagnostics issued in procedure Z8EV$LEAST_STRONGEST_TYPE.
PL6.E3A0      #003=Z8EV$LEAST_STRONGEST_TYPE File=Z8EV.:Z8A6TSI                  SAT 08/09/97 12:55 Page:318

 **** Variables and constants ****

  ****  Section 000 LblCom ITERATION

  ****  Scalars and arrays  ****
OctLoc.c.b A Datatyp(siz) R M Lvl/name                 OctLoc.c.b A Datatyp(siz) R M Lvl/name

     0-0-0/w SBIN              1 ITERATION

  ****  Section 001 LblCom LEX_SYMBOL

  ****  Scalars and arrays  ****
OctLoc.c.b A Datatyp(siz) R M Lvl/name                 OctLoc.c.b A Datatyp(siz) R M Lvl/name

     0-0-0/w STRC(3240)  r     1 LEX_SYMBOL                 0-0-0/w STRC(3240)        1 LEX_SYMBOL_WORDS

  ****  Section 002 LblCom CURRENT_LEX_SYMBOL$

  ****  Scalars and arrays  ****
OctLoc.c.b A Datatyp(siz) R M Lvl/name                 OctLoc.c.b A Datatyp(siz) R M Lvl/name

     0-0-0/w PTR         r     1 CURRENT_LEX_SYMBOL$

  ****  Section 003 LblCom TEMP_LEX_SYMBOL

  ****  Scalars and arrays  ****
OctLoc.c.b A Datatyp(siz) R M Lvl/name                 OctLoc.c.b A Datatyp(siz) R M Lvl/name

     0-0-0/w STRC(3240)        1 TEMP_LEX_SYMBOL

  ****  Section 004 LblCom TEMP_LEX_SYMBOL2

  ****  Scalars and arrays  ****
OctLoc.c.b A Datatyp(siz) R M Lvl/name                 OctLoc.c.b A Datatyp(siz) R M Lvl/name

     0-0-0/w STRC(3240)        1 TEMP_LEX_SYMBOL2

PL6.E3A0      #003=Z8EV$LEAST_STRONGEST_TYPE File=Z8EV.:Z8A6TSI                  SAT 08/09/97 12:55 Page:319
  ****  Section 005 LblCom ST$

  ****  Scalars and arrays  ****
OctLoc.c.b A Datatyp(siz) R M Lvl/name                 OctLoc.c.b A Datatyp(siz) R M Lvl/name

     0-0-0/w PTR         r     1 ST$

  ****  Section 006 LblCom ST_

  ****  Scalars and arrays  ****
OctLoc.c.b A Datatyp(siz) R M Lvl/name                 OctLoc.c.b A Datatyp(siz) R M Lvl/name

     0-0-0/w STRC(180)         1 ST_

  ****  Auto variables  ****

  ****  Scalars and arrays  ****
OctLoc.c.b A Datatyp(siz) R M Lvl/name                 OctLoc.c.b A Datatyp(siz) R M Lvl/name

     4-0-0/w PTR         r     1 @CONTEXT                   5-0-0/w PTR         r     1 @RETURN$
     3-0-0/w PTR         r     1 @TERMINAL$                14-0-0/w UBIN              1 CN
    *0-0-0/w SBIN        r     1 CONTEXT                    6-0-0/w STRC              1 DESC
    17-0-0/w PTR               1 ETT$$                     13-0-0/w SBIN        r     1 LENGTH
    *0-0-0/w PTR         r     1 RETURN$                   15-0-0/w UBIN              1 SA
    12-0-0/w SBIN        r     1 SCALE                      7-0-0/w BIT (2)           1 SIGN
    11-0-0/w BIT (2)           1 TA                        *0-0-0/w PTR         r     1 TERMINAL$
    10-0-0/w BIT               1 TN                        16-0-0/w SBIN              1 TYPE
    20-0-0/w STRC(144)   r     1 TYPE_DESC

  ****  SYMREF variables  ****

  ****  Scalars and arrays  ****
OctLoc.c.b A Datatyp(siz) R M Lvl/name                 OctLoc.c.b A Datatyp(siz) R M Lvl/name

     0-0-0/d STRC(13248)       1 COMCOM

  ****  BASED and DCB variables  ****
PL6.E3A0      #003=Z8EV$LEAST_STRONGEST_TYPE File=Z8EV.:Z8A6TSI                  SAT 08/09/97 12:55 Page:320

  ****  Scalars and arrays  ****
OctLoc.c.b A Datatyp(siz) R M Lvl/name                 OctLoc.c.b A Datatyp(siz) R M Lvl/name

     0-0-0/w STRC(288)         1 ADD_STMT                   0-0-0/w STRC(396)         1 ALPHABET
     0-0-0/w STRC(396)         1 ARRAY                      0-0-0/w ASTR(324)   r     1 BASED_LEX_SYMBOL
     0-0-0/w STRC(360)         1 BASED_LEX_SYMBOL_WORDS
     0-0-0/w STRC(288)         1 BINARY_OP                  0-0-0/w STRC(396)         1 BLOCK
     0-0-0/w STRC(288)         1 CALL_STMT                  0-0-0/w STRC(396)         1 CD
     0-0-0/w CHAR(4096)        1 CHARS                      0-0-0/w STRC(396)         1 CLASS
     0-0-0/w STRC(288)         1 COMPUTE_STMT               0-0-0/w STRC(396)         1 CONDITION
     0-0-0/w STRC(396)         1 CONST                      0-0-0/w STRC(72)          1 CONT
     0-0-0/w STRC(396)         1 DB                         0-0-0/w STRC(396)         1 DCB_
     0-0-0/w STRC(288)         1 DEFERED_IDENTIFIER         0-0-0/w STRC(252)         1 DEFERED_ID_TREE
     0-0-0/w STRC(288)         1 DEFERED_QUAL_ID            0-0-0/w STRC(288)         1 DEFERED_SUM_CLAUSE
     0-0-0/w STRC(288)         1 DEFERED_SUM_CLAUSE_LIST
     0-0-0/w STRC(288)         1 DELETE_STMT                0-0-0/w STRC(288)         1 DIVIDE_STMT
     0-0-0/w STRC(396)         1 DML_ITEM                   0-0-0/w STRC(396)         1 FD
     0-0-0/w STRC(288)         1 ILS_LIST                   0-0-0/w STRC(288)         1 INSPECT_1_STMT
     0-0-0/w STRC(288)         1 INSPECT_2_STMT             0-0-0/w STRC(288)         1 INSPECT_4_STMT
     0-0-0/w STRC(396)         1 INTDEF                     0-0-0/w STRC(396)         1 LABEL
     0-0-0/w STRC(288)         1 LA_ITEM                    0-0-0/w STRC(504)         1 LX_CD_INPUT
     0-0-0/w STRC(324)         1 LX_CD_I_O                  0-0-0/w STRC(396)         1 LX_CD_OUTPUT
     0-0-0/w STRC(288)   r     1 LX_ETT_ITEM                0-0-0/w STRC(288)         1 LX_ITEM
     0-0-0/w STRC(288)         1 LX_LARGE                   0-0-0/w STRC(288)         1 LX_LIST
     0-0-0/w STRC(1224)        1 LX_REC_DECL                0-0-0/w STRC(864)         1 LX_REPORT_REC
     0-0-0/w STRC(288)   r     1 LX_TERMINAL                0-0-0/w STRC(396)         1 MNEMONIC
     0-0-0/w STRC(288)         1 MULTIPLY_STMT              0-0-0/w STRC(36864)       1 PAGE
     0-0-0/w STRC(396)         1 PARA                       0-0-0/w STRC(396)         1 PROC_
     0-0-0/w STRC(396)         1 PROC_DEF                   0-0-0/w STRC(396)         1 RD
     0-0-0/w STRC(288)         1 READ_STMT                  0-0-0/w STRC(288)         1 REWRITE_STMT
     0-0-0/w STRC(396)         1 SCALAR                     0-0-0/w STRC(396)         1 SD
     0-0-0/w STRC(396)         1 SECTION                    0-0-0/w STRC(396)         1 SEGMENT
     0-0-0/w STRC(396)         1 ST                         0-0-0/w STRC(288)         1 START_STMT
     0-0-0/w STRC(252)         1 STRING_STMT                0-0-0/w STRC(288)         1 SUBTRACT_STMT
     0-0-0/w STRC(396)         1 SWITCH                     0-0-0/w STRC(396)         1 SYMBOLIC_CHAR
     0-0-0/w STRC(396)         1 SYMDEF_                    0-0-0/w STRC(396)         1 SYMREF_
PL6.E3A0      #003=Z8EV$LEAST_STRONGEST_TYPE File=Z8EV.:Z8A6TSI                  SAT 08/09/97 12:55 Page:321
     0-0-0/w STRC(396)         1 TEMP                       0-0-0/w STRC(288)         1 UNARY_OP
     0-0-0/w STRC(288)         1 UNSTRING_STMT              0-0-0/w STRC(396)         1 VARIABLE
     0-0-0/w STRC(288)         1 WRITE_STMT


   Procedure Z8EV$LEAST_STRONGEST_TYPE requires 671 words for executable code.
   Procedure Z8EV$LEAST_STRONGEST_TYPE requires 24 words of local(AUTO) storage.

PL6.E3A0      #004=Z8EV$WORD_TO_BYTE_UNITS File=Z8EV.:Z8A6TSI                    SAT 08/09/97 12:57 Page:322
     1203        1        /*T***********************************************************/
     1204        2        /*T*                                                         */
     1205        3        /*T* Copyright (c) Bull HN Information Systems Inc., 1997    */
     1206        4        /*T*                                                         */
     1207        5        /*T***********************************************************/
     1208        6        Z8EV$WORD_TO_BYTE_UNITS:PROC(NODE$, RETURN$);
     1209        7
     1210        8    1        DCL NODE$      PTR;
     1211        9    1        DCL RETURN$    PTR;
     1212       10
     1213       11    1        DCL LOP$       PTR;
     1214       12    1        DCL ROP$       PTR;
     1215       13    1        DCL ST$$       PTR;
     1216       14
     1217       15    1        DCL 1 PACKED      ALIGNED,
     1218       16    1              2 OFFSET    SBIN HALF UNAL,
     1219       17    1              2 TYPE      UBIN HALF UNAL;
     1220       18
     1221       19
     1222       20
     1223       21             %EQU PHASE = 1;
     1224       22             %INCLUDE Z8A_DEFC;
     1225       90             %INCLUDE Z8A_SUPP_MAC;
     1226     2490             %INCLUDE Z8A_ETT;
     1227     2791             %INCLUDE Z8A_MKCN;
     1228     2808
     1229     2809    1        DCL Z8AF$FORME                     ENTRY(4);
     1230     2810    1        DCL Z8AF$NEW_OFF                   ENTRY(3);
     1231     2811    1        DCL Z8AC$MAKE_CONST                ENTRY(1);
     1232     2812
     1233     2813        %EJECT;
PL6.E3A0      #004=Z8EV$WORD_TO_BYTE_UNITS File=Z8EV.:Z8A6TSI                    SAT 08/09/97 12:57 Page:323
     1234     2814    2        DO CASE(NODE$ -> ETT.ID);
     1235     2815    2          CASE(%SSOP);
     1236     2816    2            MKCN.CON = 4;
     1237     2817    2            CALL Z8AC$MAKE_CONST(ST$$);
     1238     2818
     1239     2819    2            CALL Z8AF$FORME(%MPI, NODE$ -> ETT.ROP, ST$$, ROP$);
     1240     2820    2            CALL Z8EV$WORD_TO_BYTE_UNITS(NODE$ -> ETT.LOP, LOP$);
     1241     2821
     1242     2822    2            CALL Z8AF$FORME(%SSOP, LOP$, ROP$, RETURN$);
     1243     2823
     1244     2824    2          CASE(%OFF);
     1245     2825    2            PACKED.OFFSET = NODE$ -> ETT.OFFSET.VALUE * 4;
     1246     2826    2            PACKED.TYPE   = %NUMERIC9;
     1247     2827
     1248     2828    2            CALL Z8AF$FORME(%OFF, NODE$ -> ETT.LOP, PACKED, RETURN$);
     1249     2829
     1250     2830    2          CASE(%EVAL);
     1251     2831    3            DO CASE (NODE$ -> ETT.LOP -> ETT.ID) ;
     1252     2832    3              CASE(%SSOP, %OFF);
     1253     2833    3                CALL Z8AF$FORME(%CVII, NODE$, ADDR(NIL), RETURN$) ;
     1254     2834    3              CASE(ELSE);
     1255     2835    3                RETURN$ = NODE$ ;
     1256     2836    3            END /* Case */ ;
     1257     2837
     1258     2838    2        END /* Case */;
     1259     2839
     1260     2840    1   END Z8EV$WORD_TO_BYTE_UNITS;
     1261     2841        %EOD;

PL6.E3A0      #004=Z8EV$WORD_TO_BYTE_UNITS File=Z8EV.:Z8A6TSI                    SAT 08/09/97 12:57 Page:324
--  Include file information  --

   Z8A_MKCN.:Z8A6TOU  cannot be made into a system file and is referenced.
   Z8A_ETT.:Z8A6TOU  cannot be made into a system file and is referenced.
   X8A_COM_MACS.:X8A6TOU  is referenced.
   Z8A_NAMES.:Z8A6TOU  is referenced.
   Z8A_SUPP_MAC.:Z8A6TOU  is referenced.
   Z8A_DEFC.:Z8A6TOU  cannot be made into a system file and is referenced.
      No diagnostics issued in procedure Z8EV$WORD_TO_BYTE_UNITS.

   Procedure Z8EV$WORD_TO_BYTE_UNITS requires 225 words for executable code.
   Procedure Z8EV$WORD_TO_BYTE_UNITS requires 16 words of local(AUTO) storage.

PL6.E3A0      #004=Z8EV$WORD_TO_BYTE_UNITS File=Z8EV.:Z8A6TSI                    SAT 08/09/97 12:57 Page:325

 Object Unit name= Z8EV$WORD_TO_BYTE_UNITS                    File name= Z8EV.:Z8A6TOU
 UTS= AUG 09 '97 12:57:40.08 SAT                              Compiler= PL-6/E31         Sev=      00
 SharedLib= :SHARED_SYSTEM                                    Alt SharedLib=


    ****  Control sections  ****

 Sect   Type Bound  Init  Size OctSiz  Section name(segment info)
    0  LblCom even  none     1      1  ITERATION
    1  LblCom even  none     1      1  ETT$
    2  LblCom even  none     1      1  HEAD_ETT$
    3  LblCom even  none   512   1000  ETT_BUCKETS
    4  LblCom even  none     5      5  ETT_
    5  LblCom even  none     2      2  MKCN
    6   Proc  even  none   225    341  Z8EV$WORD_TO_BYTE_UNITS
    7  RoData even  none    13     15  Z8EV$WORD_TO_BYTE_UNITS

    ****  Entry defs  ****

                              Check   Calling
                             calling  sequence
  Sect OctLoc Primary Altret sequence   type   Parms  Name
     6      0   yes            yes      Std        2  Z8EV$WORD_TO_BYTE_UNITS

  ****  Entry refs  ****

         Check        Calling
        calling       sequence
Altret sequence SRef   type   Args  Name
         yes           Std       1 Z8AC$MAKE_CONST
         yes           Std       4 Z8AF$FORME
                       nStd      0 X66_AUTO_2
                       nStd      0 X66_ARET
PL6.E3A0      #004=Z8EV$WORD_TO_BYTE_UNITS File=Z8EV.:Z8A6TSI                    SAT 08/09/97 12:57 Page:326

  ****  Segment refs  ****

  Flags:  r = read only, s = secondary
Flgs Name                             Flgs Name                             Flgs Name
     NULLSID                               ISSID
PL6.E3A0      #004=Z8EV$WORD_TO_BYTE_UNITS File=Z8EV.:Z8A6TSI                    SAT 08/09/97 12:57 Page:327


     1203        1        /*T***********************************************************/
     1204        2        /*T*                                                         */
     1205        3        /*T* Copyright (c) Bull HN Information Systems Inc., 1997    */
     1206        4        /*T*                                                         */
     1207        5        /*T***********************************************************/
     1208        6        Z8EV$WORD_TO_BYTE_UNITS:PROC(NODE$, RETURN$);

      6  6 000000   000000 700200 xent  Z8EV$WORD_T* TSX0  ! X66_AUTO_2
         6 000001   000020 000002                    ZERO    16,2

     1209        7
     1210        8    1        DCL NODE$      PTR;
     1211        9    1        DCL RETURN$    PTR;
     1212       10
     1213       11    1        DCL LOP$       PTR;
     1214       12    1        DCL ROP$       PTR;
     1215       13    1        DCL ST$$       PTR;
     1216       14
     1217       15    1        DCL 1 PACKED      ALIGNED,
     1218       16    1              2 OFFSET    SBIN HALF UNAL,
     1219       17    1              2 TYPE      UBIN HALF UNAL;
     1220       18
     1221       19
     1222       20
     1223       21             %EQU PHASE = 1;
     1224       22             %INCLUDE Z8A_DEFC;
     1225       90             %INCLUDE Z8A_SUPP_MAC;
     1226     2490             %INCLUDE Z8A_ETT;
     1227     2791             %INCLUDE Z8A_MKCN;
     1228     2808
     1229     2809    1        DCL Z8AF$FORME                     ENTRY(4);
     1230     2810    1        DCL Z8AF$NEW_OFF                   ENTRY(3);
     1231     2811    1        DCL Z8AC$MAKE_CONST                ENTRY(1);
     1232     2812
     1233     2813        %EJECT;
PL6.E3A0      #004=Z8EV$WORD_TO_BYTE_UNITS File=Z8EV.:Z8A6TSI                    SAT 08/09/97 12:57 Page:328
     1234     2814    2        DO CASE(NODE$ -> ETT.ID);

   2814  6 000002   200003 470500                    LDP0    @NODE$,,AUTO
         6 000003   000000 471500                    LDP1    0,,PR0
         6 000004   100000 220100                    LDX0    0,,PR1
         6 000005   000172 100003                    CMPX0   122,DU
         6 000006   000010 602010 6                  TNC     s:2814+6,X0
         6 000007   000340 710000 6                  TRA     s:2840
         6 000010   000340 710000 6                  TRA     s:2840
         6 000011   000340 710000 6                  TRA     s:2840
         6 000012   000340 710000 6                  TRA     s:2840
         6 000013   000257 710000 6                  TRA     s:2825
         6 000014   000340 710000 6                  TRA     s:2840
         6 000015   000202 710000 6                  TRA     s:2816
         6 000016   000340 710000 6                  TRA     s:2840
         6 000017   000340 710000 6                  TRA     s:2840
         6 000020   000340 710000 6                  TRA     s:2840
         6 000021   000340 710000 6                  TRA     s:2840
         6 000022   000340 710000 6                  TRA     s:2840
         6 000023   000340 710000 6                  TRA     s:2840
         6 000024   000340 710000 6                  TRA     s:2840
         6 000025   000340 710000 6                  TRA     s:2840
         6 000026   000340 710000 6                  TRA     s:2840
         6 000027   000340 710000 6                  TRA     s:2840
         6 000030   000340 710000 6                  TRA     s:2840
         6 000031   000340 710000 6                  TRA     s:2840
         6 000032   000340 710000 6                  TRA     s:2840
         6 000033   000340 710000 6                  TRA     s:2840
         6 000034   000340 710000 6                  TRA     s:2840
         6 000035   000340 710000 6                  TRA     s:2840
         6 000036   000340 710000 6                  TRA     s:2840
         6 000037   000340 710000 6                  TRA     s:2840
         6 000040   000340 710000 6                  TRA     s:2840
         6 000041   000340 710000 6                  TRA     s:2840
         6 000042   000340 710000 6                  TRA     s:2840
         6 000043   000340 710000 6                  TRA     s:2840
         6 000044   000340 710000 6                  TRA     s:2840
PL6.E3A0      #004=Z8EV$WORD_TO_BYTE_UNITS File=Z8EV.:Z8A6TSI                    SAT 08/09/97 12:57 Page:329
         6 000045   000340 710000 6                  TRA     s:2840
         6 000046   000340 710000 6                  TRA     s:2840
         6 000047   000340 710000 6                  TRA     s:2840
         6 000050   000340 710000 6                  TRA     s:2840
         6 000051   000340 710000 6                  TRA     s:2840
         6 000052   000340 710000 6                  TRA     s:2840
         6 000053   000340 710000 6                  TRA     s:2840
         6 000054   000340 710000 6                  TRA     s:2840
         6 000055   000340 710000 6                  TRA     s:2840
         6 000056   000340 710000 6                  TRA     s:2840
         6 000057   000340 710000 6                  TRA     s:2840
         6 000060   000340 710000 6                  TRA     s:2840
         6 000061   000340 710000 6                  TRA     s:2840
         6 000062   000340 710000 6                  TRA     s:2840
         6 000063   000340 710000 6                  TRA     s:2840
         6 000064   000340 710000 6                  TRA     s:2840
         6 000065   000340 710000 6                  TRA     s:2840
         6 000066   000340 710000 6                  TRA     s:2840
         6 000067   000340 710000 6                  TRA     s:2840
         6 000070   000340 710000 6                  TRA     s:2840
         6 000071   000340 710000 6                  TRA     s:2840
         6 000072   000340 710000 6                  TRA     s:2840
         6 000073   000340 710000 6                  TRA     s:2840
         6 000074   000340 710000 6                  TRA     s:2840
         6 000075   000340 710000 6                  TRA     s:2840
         6 000076   000340 710000 6                  TRA     s:2840
         6 000077   000340 710000 6                  TRA     s:2840
         6 000100   000340 710000 6                  TRA     s:2840
         6 000101   000340 710000 6                  TRA     s:2840
         6 000102   000340 710000 6                  TRA     s:2840
         6 000103   000340 710000 6                  TRA     s:2840
         6 000104   000340 710000 6                  TRA     s:2840
         6 000105   000340 710000 6                  TRA     s:2840
         6 000106   000340 710000 6                  TRA     s:2840
         6 000107   000340 710000 6                  TRA     s:2840
         6 000110   000340 710000 6                  TRA     s:2840
         6 000111   000340 710000 6                  TRA     s:2840
PL6.E3A0      #004=Z8EV$WORD_TO_BYTE_UNITS File=Z8EV.:Z8A6TSI                    SAT 08/09/97 12:57 Page:330
         6 000112   000340 710000 6                  TRA     s:2840
         6 000113   000340 710000 6                  TRA     s:2840
         6 000114   000340 710000 6                  TRA     s:2840
         6 000115   000340 710000 6                  TRA     s:2840
         6 000116   000340 710000 6                  TRA     s:2840
         6 000117   000340 710000 6                  TRA     s:2840
         6 000120   000340 710000 6                  TRA     s:2840
         6 000121   000340 710000 6                  TRA     s:2840
         6 000122   000340 710000 6                  TRA     s:2840
         6 000123   000340 710000 6                  TRA     s:2840
         6 000124   000340 710000 6                  TRA     s:2840
         6 000125   000340 710000 6                  TRA     s:2840
         6 000126   000340 710000 6                  TRA     s:2840
         6 000127   000340 710000 6                  TRA     s:2840
         6 000130   000340 710000 6                  TRA     s:2840
         6 000131   000340 710000 6                  TRA     s:2840
         6 000132   000340 710000 6                  TRA     s:2840
         6 000133   000340 710000 6                  TRA     s:2840
         6 000134   000340 710000 6                  TRA     s:2840
         6 000135   000340 710000 6                  TRA     s:2840
         6 000136   000340 710000 6                  TRA     s:2840
         6 000137   000340 710000 6                  TRA     s:2840
         6 000140   000340 710000 6                  TRA     s:2840
         6 000141   000340 710000 6                  TRA     s:2840
         6 000142   000340 710000 6                  TRA     s:2840
         6 000143   000340 710000 6                  TRA     s:2840
         6 000144   000340 710000 6                  TRA     s:2840
         6 000145   000340 710000 6                  TRA     s:2840
         6 000146   000340 710000 6                  TRA     s:2840
         6 000147   000340 710000 6                  TRA     s:2840
         6 000150   000340 710000 6                  TRA     s:2840
         6 000151   000340 710000 6                  TRA     s:2840
         6 000152   000340 710000 6                  TRA     s:2840
         6 000153   000340 710000 6                  TRA     s:2840
         6 000154   000340 710000 6                  TRA     s:2840
         6 000155   000340 710000 6                  TRA     s:2840
         6 000156   000340 710000 6                  TRA     s:2840
PL6.E3A0      #004=Z8EV$WORD_TO_BYTE_UNITS File=Z8EV.:Z8A6TSI                    SAT 08/09/97 12:57 Page:331
         6 000157   000340 710000 6                  TRA     s:2840
         6 000160   000340 710000 6                  TRA     s:2840
         6 000161   000340 710000 6                  TRA     s:2840
         6 000162   000340 710000 6                  TRA     s:2840
         6 000163   000340 710000 6                  TRA     s:2840
         6 000164   000340 710000 6                  TRA     s:2840
         6 000165   000340 710000 6                  TRA     s:2840
         6 000166   000340 710000 6                  TRA     s:2840
         6 000167   000340 710000 6                  TRA     s:2840
         6 000170   000340 710000 6                  TRA     s:2840
         6 000171   000340 710000 6                  TRA     s:2840
         6 000172   000340 710000 6                  TRA     s:2840
         6 000173   000340 710000 6                  TRA     s:2840
         6 000174   000340 710000 6                  TRA     s:2840
         6 000175   000340 710000 6                  TRA     s:2840
         6 000176   000340 710000 6                  TRA     s:2840
         6 000177   000340 710000 6                  TRA     s:2840
         6 000200   000340 710000 6                  TRA     s:2840
         6 000201   000304 710000 6                  TRA     s:2831

     1235     2815    2          CASE(%SSOP);

     1236     2816    2            MKCN.CON = 4;

   2816  6 000202   000004 235007                    LDA     4,DL
         6 000203   000000 755000 5                  STA     MKCN

     1237     2817    2            CALL Z8AC$MAKE_CONST(ST$$);

   2817  6 000204   200007 631500                    EPPR1   ST$$,,AUTO
         6 000205   200012 451500                    STP1    PACKED+2,,AUTO
         6 000206   200012 630500                    EPPR0   PACKED+2,,AUTO
         6 000207   000000 631400 7                  EPPR1   0
         6 000210   000000 701000 xent               TSX1    Z8AC$MAKE_CONST
         6 000211   000000 011000                    NOP     0

     1238     2818
PL6.E3A0      #004=Z8EV$WORD_TO_BYTE_UNITS File=Z8EV.:Z8A6TSI                    SAT 08/09/97 12:57 Page:332
     1239     2819    2            CALL Z8AF$FORME(%MPI, NODE$ -> ETT.ROP, ST$$, ROP$);

   2819  6 000212   200003 470500                    LDP0    @NODE$,,AUTO
         6 000213   000000 471500                    LDP1    0,,PR0
         6 000214   200006 633500                    EPPR3   ROP$,,AUTO
         6 000215   200015 453500                    STP3    PACKED+5,,AUTO
         6 000216   200007 634500                    EPPR4   ST$$,,AUTO
         6 000217   200014 454500                    STP4    PACKED+4,,AUTO
         6 000220   100002 635500                    EPPR5   2,,PR1
         6 000221   200013 455500                    STP5    PACKED+3,,AUTO
         6 000222   000003 236000 7                  LDQ     3
         6 000223   200012 756100                    STQ     PACKED+2,,AUTO
         6 000224   200012 630500                    EPPR0   PACKED+2,,AUTO
         6 000225   000001 631400 7                  EPPR1   1
         6 000226   000000 701000 xent               TSX1    Z8AF$FORME
         6 000227   000000 011000                    NOP     0

     1240     2820    2            CALL Z8EV$WORD_TO_BYTE_UNITS(NODE$ -> ETT.LOP, LOP$);

   2820  6 000230   200003 470500                    LDP0    @NODE$,,AUTO
         6 000231   000000 471500                    LDP1    0,,PR0
         6 000232   200005 633500                    EPPR3   LOP$,,AUTO
         6 000233   200013 453500                    STP3    PACKED+3,,AUTO
         6 000234   100001 634500                    EPPR4   1,,PR1
         6 000235   200012 454500                    STP4    PACKED+2,,AUTO
         6 000236   200012 630500                    EPPR0   PACKED+2,,AUTO
         6 000237   000004 631400 7                  EPPR1   4
         6 000240   000000 701000 6                  TSX1    s:6
         6 000241   000000 011000                    NOP     0

     1241     2821
     1242     2822    2            CALL Z8AF$FORME(%SSOP, LOP$, ROP$, RETURN$);

   2822  6 000242   200004 236100                    LDQ     @RETURN$,,AUTO
         6 000243   200015 756100                    STQ     PACKED+5,,AUTO
         6 000244   200006 630500                    EPPR0   ROP$,,AUTO
         6 000245   200014 450500                    STP0    PACKED+4,,AUTO
PL6.E3A0      #004=Z8EV$WORD_TO_BYTE_UNITS File=Z8EV.:Z8A6TSI                    SAT 08/09/97 12:57 Page:333
         6 000246   200005 631500                    EPPR1   LOP$,,AUTO
         6 000247   200013 451500                    STP1    PACKED+3,,AUTO
         6 000250   000006 236000 7                  LDQ     6
         6 000251   200012 756100                    STQ     PACKED+2,,AUTO
         6 000252   200012 630500                    EPPR0   PACKED+2,,AUTO
         6 000253   000001 631400 7                  EPPR1   1
         6 000254   000000 701000 xent               TSX1    Z8AF$FORME
         6 000255   000000 011000                    NOP     0
         6 000256   000340 710000 6                  TRA     s:2840

     1243     2823
     1244     2824    2          CASE(%OFF);

     1245     2825    2            PACKED.OFFSET = NODE$ -> ETT.OFFSET.VALUE * 4;

   2825  6 000257   100002 236100                    LDQ     2,,PR1
         6 000260   000020 732000                    QRS     16
         6 000261   000007 376000 7                  ANQ     7
         6 000262   000000 621006                    EAX1    0,QL
         6 000263   200010 741100                    STX1    PACKED,,AUTO

     1246     2826    2            PACKED.TYPE   = %NUMERIC9;

   2826  6 000264   000004 220003                    LDX0    4,DU
         6 000265   200010 440100                    SXL0    PACKED,,AUTO

     1247     2827
     1248     2828    2            CALL Z8AF$FORME(%OFF, NODE$ -> ETT.LOP, PACKED, RETURN$);

   2828  6 000266   000000 471500                    LDP1    0,,PR0
         6 000267   200004 236100                    LDQ     @RETURN$,,AUTO
         6 000270   200015 756100                    STQ     PACKED+5,,AUTO
         6 000271   200010 633500                    EPPR3   PACKED,,AUTO
         6 000272   200014 453500                    STP3    PACKED+4,,AUTO
         6 000273   100001 634500                    EPPR4   1,,PR1
         6 000274   200013 454500                    STP4    PACKED+3,,AUTO
         6 000275   000011 236000 7                  LDQ     9
PL6.E3A0      #004=Z8EV$WORD_TO_BYTE_UNITS File=Z8EV.:Z8A6TSI                    SAT 08/09/97 12:57 Page:334
         6 000276   200012 756100                    STQ     PACKED+2,,AUTO
         6 000277   200012 630500                    EPPR0   PACKED+2,,AUTO
         6 000300   000001 631400 7                  EPPR1   1
         6 000301   000000 701000 xent               TSX1    Z8AF$FORME
         6 000302   000000 011000                    NOP     0
         6 000303   000340 710000 6                  TRA     s:2840

     1249     2829
     1250     2830    2          CASE(%EVAL);

     1251     2831    3            DO CASE (NODE$ -> ETT.LOP -> ETT.ID) ;

   2831  6 000304   100001 473500                    LDP3    1,,PR1
         6 000305   300000 221100                    LDX1    0,,PR3
         6 000306   000006 101003                    CMPX1   6,DU
         6 000307   000311 602011 6                  TNC     s:2831+5,X1
         6 000310   000335 710000 6                  TRA     s:2835
         6 000311   000335 710000 6                  TRA     s:2835
         6 000312   000335 710000 6                  TRA     s:2835
         6 000313   000335 710000 6                  TRA     s:2835
         6 000314   000317 710000 6                  TRA     s:2833
         6 000315   000335 710000 6                  TRA     s:2835
         6 000316   000317 710000 6                  TRA     s:2833

     1252     2832    3              CASE(%SSOP, %OFF);

     1253     2833    3                CALL Z8AF$FORME(%CVII, NODE$, ADDR(NIL), RETURN$) ;

   2833  6 000317   000012 236000 7                  LDQ     10
         6 000320   200012 756100                    STQ     PACKED+2,,AUTO
         6 000321   200004 236100                    LDQ     @RETURN$,,AUTO
         6 000322   200017 756100                    STQ     PACKED+7,,AUTO
         6 000323   200012 631500                    EPPR1   PACKED+2,,AUTO
         6 000324   200016 451500                    STP1    PACKED+6,,AUTO
         6 000325   200003 236100                    LDQ     @NODE$,,AUTO
         6 000326   000014 235000 7                  LDA     12
         6 000327   200014 757100                    STAQ    PACKED+4,,AUTO
PL6.E3A0      #004=Z8EV$WORD_TO_BYTE_UNITS File=Z8EV.:Z8A6TSI                    SAT 08/09/97 12:57 Page:335
         6 000330   200014 630500                    EPPR0   PACKED+4,,AUTO
         6 000331   000001 631400 7                  EPPR1   1
         6 000332   000000 701000 xent               TSX1    Z8AF$FORME
         6 000333   000000 011000                    NOP     0
         6 000334   000340 710000 6                  TRA     s:2840

     1254     2834    3              CASE(ELSE);

     1255     2835    3                RETURN$ = NODE$ ;

   2835  6 000335   000000 236100                    LDQ     0,,PR0
         6 000336   200004 474500                    LDP4    @RETURN$,,AUTO
         6 000337   400000 756100                    STQ     0,,PR4

     1256     2836    3            END /* Case */ ;

     1257     2837
     1258     2838    2        END /* Case */;

     1259     2839
     1260     2840    1   END Z8EV$WORD_TO_BYTE_UNITS;

   2840  6 000340   000000 702200 xent               TSX2  ! X66_ARET
     1261     2841        %EOD;

PL6.E3A0      #004=Z8EV$WORD_TO_BYTE_UNITS File=Z8EV.:Z8A6TSI                    SAT 08/09/97 12:57 Page:336
--  Include file information  --

   Z8A_MKCN.:Z8A6TOU  cannot be made into a system file and is referenced.
   Z8A_ETT.:Z8A6TOU  cannot be made into a system file and is referenced.
   X8A_COM_MACS.:X8A6TOU  is referenced.
   Z8A_NAMES.:Z8A6TOU  is referenced.
   Z8A_SUPP_MAC.:Z8A6TOU  is referenced.
   Z8A_DEFC.:Z8A6TOU  cannot be made into a system file and is referenced.
      No diagnostics issued in procedure Z8EV$WORD_TO_BYTE_UNITS.
PL6.E3A0      #004=Z8EV$WORD_TO_BYTE_UNITS File=Z8EV.:Z8A6TSI                    SAT 08/09/97 12:57 Page:337

 **** Variables and constants ****

  ****  Section 000 LblCom ITERATION

  ****  Scalars and arrays  ****
OctLoc.c.b A Datatyp(siz) R M Lvl/name                 OctLoc.c.b A Datatyp(siz) R M Lvl/name

     0-0-0/w SBIN              1 ITERATION

  ****  Section 001 LblCom ETT$

  ****  Scalars and arrays  ****
OctLoc.c.b A Datatyp(siz) R M Lvl/name                 OctLoc.c.b A Datatyp(siz) R M Lvl/name

     0-0-0/w PTR         r     1 ETT$

  ****  Section 002 LblCom HEAD_ETT$

  ****  Scalars and arrays  ****
OctLoc.c.b A Datatyp(siz) R M Lvl/name                 OctLoc.c.b A Datatyp(siz) R M Lvl/name

     0-0-0/w PTR               1 HEAD_ETT$

  ****  Section 003 LblCom ETT_BUCKETS

  ****  Scalars and arrays  ****
OctLoc.c.b A Datatyp(siz) R M Lvl/name                 OctLoc.c.b A Datatyp(siz) R M Lvl/name

     0-0-0/w PTR               1 ETT_BUCKETS(0:511)

  ****  Section 004 LblCom ETT_

  ****  Scalars and arrays  ****
OctLoc.c.b A Datatyp(siz) R M Lvl/name                 OctLoc.c.b A Datatyp(siz) R M Lvl/name

     0-0-0/w STRC(180)         1 ETT_

PL6.E3A0      #004=Z8EV$WORD_TO_BYTE_UNITS File=Z8EV.:Z8A6TSI                    SAT 08/09/97 12:57 Page:338
  ****  Section 005 LblCom MKCN

  ****  Scalars and arrays  ****
OctLoc.c.b A Datatyp(siz) R M Lvl/name                 OctLoc.c.b A Datatyp(siz) R M Lvl/name

     0-0-0/w STRC(72)    r     1 MKCN

  ****  Auto variables  ****

  ****  Scalars and arrays  ****
OctLoc.c.b A Datatyp(siz) R M Lvl/name                 OctLoc.c.b A Datatyp(siz) R M Lvl/name

     3-0-0/w PTR         r     1 @NODE$                     4-0-0/w PTR         r     1 @RETURN$
     5-0-0/w PTR         r     1 LOP$                      *0-0-0/w PTR         r     1 NODE$
    10-0-0/w STRC        r     1 PACKED                    *0-0-0/w PTR         r     1 RETURN$
     6-0-0/w PTR         r     1 ROP$                       7-0-0/w PTR         r     1 ST$$

  ****  BASED and DCB variables  ****

  ****  Scalars and arrays  ****
OctLoc.c.b A Datatyp(siz) R M Lvl/name                 OctLoc.c.b A Datatyp(siz) R M Lvl/name

     0-0-0/w CHAR(4096)        1 CHARS                      0-0-0/w STRC(72)          1 CONT
     0-0-0/w STRC(180)   r     1 ETT                        0-0-0/w STRC(36864)       1 PAGE


   Procedure Z8EV$WORD_TO_BYTE_UNITS requires 225 words for executable code.
   Procedure Z8EV$WORD_TO_BYTE_UNITS requires 16 words of local(AUTO) storage.

PL6.E3A0      #005=Z8EV$CONVERT_TYA File=Z8EV.:Z8A6TSI                           SAT 08/09/97 12:58 Page:339
     1262        1        /*T***********************************************************/
     1263        2        /*T*                                                         */
     1264        3        /*T* Copyright (c) Bull HN Information Systems Inc., 1997    */
     1265        4        /*T*                                                         */
     1266        5        /*T***********************************************************/
     1267        6        Z8EV$CONVERT_TYA: PROC (FROM$, RETURN$, CONTEXT$) ;
     1268        7
     1269        8        /* This routine is called by Z8EA$INSPECT, Z8EZ$STRING, and
     1270        9           Z8EZ$UNSTRING to determine if a Kanji Space is required
     1271       10           instead of an Ascii Space.  If the identifier being inspected,
     1272       11           strung into, or unstrung is Kanji, then any use of the
     1273       12           figurative constant SPACE will be a Kanji space.
     1274       13        */
     1275       14
     1276       15    1   DCL    FROM$     PTR ; /* Lx_Item */
     1277       16    1   DCL    RETURN$   PTR ; /* Lx_Item */
     1278       17    1   DCL    CONTEXT$  PTR ; /* LX_Item */
     1279       18
     1280       19        %EQU PHASE = 1 ;
     1281       20        %INCLUDE Z8A_DEFC ;
     1282       88        %INCLUDE Z8A_SUPP_MAC ;
     1283     2488        %INCLUDE Z8E_STACKS ;
     1284     4754        %INCLUDE Z8A_ST ;
     1285     8413        %INCLUDE Z8A_DNT ;
     1286     8634        %INCLUDE Z8A_TYPES ;
     1287     8808        %INCLUDE Z8E_WINDOW ;
     1288    10878
     1289    10879
     1290    10880    1   DCL    Z8EV$CONVERT    ENTRY (3) ;
     1291    10881    1   DCL    Z8AH$SEARCH_    ENTRY ;
     1292    10882
     1293    10883    1   DCL    LINK$           PTR ;
     1294    10884
     1295    10885        /* If the context is Kanji, use Kanji Space */
     1296    10886
     1297    10887    1   LINK$ = FROM$ -> LX_ITEM.LINK ;
     1298    10888
PL6.E3A0      #005=Z8EV$CONVERT_TYA File=Z8EV.:Z8A6TSI                           SAT 08/09/97 12:58 Page:340
     1299    10889    1   IF  CONTEXT$ -> LX_ITEM.TYPE = %TYN
     1300    10890    1   AND FROM$ -> LX_ITEM.ID = %LX_TERMINAL
     1301    10891    2   AND FROM$ -> LX_TERMINAL.SYMBOL = %RSV_WRD_SPACES THEN DO ;
     1302    10892
     1303    10893    2     FROM$ -> LX_TERMINAL.SYMBOL = %ALPHA_LITERAL ;
     1304    10894    2     SUBSTR (LEX_SYMBOL.SYMBOL, 0, 1) = '"' ;
     1305    10895    2     SUBSTR (LEX_SYMBOL.SYMBOL, 1, 1) = %KANJI_START ;
     1306    10896    2     SUBSTR (LEX_SYMBOL.SYMBOL, 2, 1) = %KANJI_SPACE ;
     1307    10897    2     SUBSTR (LEX_SYMBOL.SYMBOL, 3, 1) = %KANJI_SPACE ;
     1308    10898    2     SUBSTR (LEX_SYMBOL.SYMBOL, 4, 1) = %KANJI_END ;
     1309    10899    2     SUBSTR (LEX_SYMBOL.SYMBOL, 5, 1) = '"' ;
     1310    10900    2     LEX_SYMBOL.SIZE = 6 ;
     1311    10901    2     CALL Z8AH$SEARCH_ ; /* Input = LEX_SYMBOL, output = DNT$ */
     1312    10902    2     DNT$ -> DNT.B.ALL = '1'B ;
     1313    10903    2     FROM$ -> LX_TERMINAL.DNT$ = DNT$ ;
     1314    10904    2     CALL Z8EV$CONVERT (%TYN, FROM$, RETURN$) ;
     1315    10905
     1316    10906    2   END ; /* Kanji space */
     1317    10907
     1318    10908    2   ELSE DO ; /* Not Kanji Space */
     1319    10909
     1320    10910    2     IF CONTEXT$ -> LX_ITEM.TYPE = %TYN THEN
     1321    10911    2       CALL Z8EV$CONVERT (%TYN, FROM$, RETURN$) ;
     1322    10912    2     ELSE
     1323    10913    2       CALL Z8EV$CONVERT (%TYA, FROM$, RETURN$) ;
     1324    10914
     1325    10915    2   END ;
     1326    10916
     1327    10917    1   RETURN$ -> LX_ITEM.LINK = LINK$ ;
     1328    10918
     1329    10919    1   END Z8EV$CONVERT_TYA ;

PL6.E3A0      #005=Z8EV$CONVERT_TYA File=Z8EV.:Z8A6TSI                           SAT 08/09/97 12:58 Page:341
--  Include file information  --

   Z8E_WINDOW.:Z8A6TOU  is referenced.
   Z8A_TYPES.:Z8A6TOU  is referenced.
   Z8A_DNT.:Z8A6TOU  cannot be made into a system file and is referenced.
   Z8A_ST.:Z8A6TOU  cannot be made into a system file and is referenced.
   Z8A_LEX_SYMB.:Z8A6TOU  cannot be made into a system file and is referenced.
   Z8E_STACKS.:Z8A6TOU  cannot be made into a system file and is referenced.
   X8A_COM_MACS.:X8A6TOU  is referenced.
   Z8A_NAMES.:Z8A6TOU  is referenced.
   Z8A_SUPP_MAC.:Z8A6TOU  is referenced.
   Z8A_DEFC.:Z8A6TOU  cannot be made into a system file and is referenced.
      No diagnostics issued in procedure Z8EV$CONVERT_TYA.

   Procedure Z8EV$CONVERT_TYA requires 79 words for executable code.
   Procedure Z8EV$CONVERT_TYA requires 12 words of local(AUTO) storage.

    No errors detected in file Z8EV.:Z8A6TSI    .

PL6.E3A0      #005=Z8EV$CONVERT_TYA File=Z8EV.:Z8A6TSI                           SAT 08/09/97 12:58 Page:342

 Object Unit name= Z8EV$CONVERT_TYA                           File name= Z8EV.:Z8A6TOU
 UTS= AUG 09 '97 12:58:05.00 SAT                              Compiler= PL-6/E31         Sev=      00
 SharedLib= :SHARED_SYSTEM                                    Alt SharedLib=


    ****  Control sections  ****

 Sect   Type Bound  Init  Size OctSiz  Section name(segment info)
    0  LblCom even  none     1      1  ITERATION
    1  LblCom even  none    90    132  LEX_SYMBOL
    2  LblCom even  none     1      1  CURRENT_LEX_SYMBOL$
    3  LblCom even  none    90    132  TEMP_LEX_SYMBOL
    4  LblCom even  none    90    132  TEMP_LEX_SYMBOL2
    5  LblCom even  none     1      1  ST$
    6  LblCom even  none     5      5  ST_
    7  LblCom even  none     1      1  DNT$
    8  LblCom even  none     5      5  DNT_
    9  LblCom even  none     1      1  DNT_BUCKET_NUMBER
   10  LblCom even  none     1      1  DNT_OF_1$
   11   Proc  even  none    79    117  Z8EV$CONVERT_TYA
   12  RoData even  none     6      6  Z8EV$CONVERT_TYA

    ****  Entry defs  ****

                              Check   Calling
                             calling  sequence
  Sect OctLoc Primary Altret sequence   type   Parms  Name
    11      0   yes            yes      Std        3  Z8EV$CONVERT_TYA
PL6.E3A0      #005=Z8EV$CONVERT_TYA File=Z8EV.:Z8A6TSI                           SAT 08/09/97 12:58 Page:343

  ****  Entry refs  ****

         Check        Calling
        calling       sequence
Altret sequence SRef   type   Args  Name
         yes           Std       0 Z8AH$SEARCH_
         yes           Std       3 Z8EV$CONVERT
                       nStd      0 X66_AUTO_3
                       nStd      0 X66_ARET

  ****  Segment refs  ****

  Flags:  r = read only, s = secondary
Flgs Name                             Flgs Name                             Flgs Name
     ISSID                                 NULLSID
PL6.E3A0      #005=Z8EV$CONVERT_TYA File=Z8EV.:Z8A6TSI                           SAT 08/09/97 12:58 Page:344


     1262        1        /*T***********************************************************/
     1263        2        /*T*                                                         */
     1264        3        /*T* Copyright (c) Bull HN Information Systems Inc., 1997    */
     1265        4        /*T*                                                         */
     1266        5        /*T***********************************************************/
     1267        6        Z8EV$CONVERT_TYA: PROC (FROM$, RETURN$, CONTEXT$) ;

      6 11 000000   000000 700200 xent  Z8EV$CONVER* TSX0  ! X66_AUTO_3
        11 000001   000014 000003                    ZERO    12,3

     1268        7
     1269        8        /* This routine is called by Z8EA$INSPECT, Z8EZ$STRING, and
     1270        9           Z8EZ$UNSTRING to determine if a Kanji Space is required
     1271       10           instead of an Ascii Space.  If the identifier being inspected,
     1272       11           strung into, or unstrung is Kanji, then any use of the
     1273       12           figurative constant SPACE will be a Kanji space.
     1274       13        */
     1275       14
     1276       15    1   DCL    FROM$     PTR ; /* Lx_Item */
     1277       16    1   DCL    RETURN$   PTR ; /* Lx_Item */
     1278       17    1   DCL    CONTEXT$  PTR ; /* LX_Item */
     1279       18
     1280       19        %EQU PHASE = 1 ;
     1281       20        %INCLUDE Z8A_DEFC ;
     1282       88        %INCLUDE Z8A_SUPP_MAC ;
     1283     2488        %INCLUDE Z8E_STACKS ;
     1284     4754        %INCLUDE Z8A_ST ;
     1285     8413        %INCLUDE Z8A_DNT ;
     1286     8634        %INCLUDE Z8A_TYPES ;
     1287     8808        %INCLUDE Z8E_WINDOW ;
     1288    10878
     1289    10879
     1290    10880    1   DCL    Z8EV$CONVERT    ENTRY (3) ;
     1291    10881    1   DCL    Z8AH$SEARCH_    ENTRY ;
     1292    10882
     1293    10883    1   DCL    LINK$           PTR ;
PL6.E3A0      #005=Z8EV$CONVERT_TYA File=Z8EV.:Z8A6TSI                           SAT 08/09/97 12:58 Page:345
     1294    10884
     1295    10885        /* If the context is Kanji, use Kanji Space */
     1296    10886
     1297    10887    1   LINK$ = FROM$ -> LX_ITEM.LINK ;

  10887 11 000002   200003 470500                    LDP0    @FROM$,,AUTO
        11 000003   000000 471500                    LDP1    0,,PR0
        11 000004   100007 236100                    LDQ     7,,PR1
        11 000005   200006 756100                    STQ     LINK$,,AUTO

     1298    10888
     1299    10889    1   IF  CONTEXT$ -> LX_ITEM.TYPE = %TYN

  10889 11 000006   200005 473500                    LDP3    @CONTEXT$,,AUTO
        11 000007   300000 474500                    LDP4    0,,PR3
        11 000010   400004 235100                    LDA     4,,PR4
        11 000011   000016 115007                    CMPA    14,DL
        11 000012   000064 601000 11                 TNZ     s:10910
        11 000013   100000 220100                    LDX0    0,,PR1
        11 000014   000064 601000 11                 TNZ     s:10910
        11 000015   100003 235100                    LDA     3,,PR1
        11 000016   000650 115007                    CMPA    424,DL
        11 000017   000064 601000 11                 TNZ     s:10910

     1300    10890    1   AND FROM$ -> LX_ITEM.ID = %LX_TERMINAL
     1301    10891    2   AND FROM$ -> LX_TERMINAL.SYMBOL = %RSV_WRD_SPACES THEN DO ;

     1302    10892
     1303    10893    2     FROM$ -> LX_TERMINAL.SYMBOL = %ALPHA_LITERAL ;

  10893 11 000020   000003 235007                    LDA     3,DL
        11 000021   100003 755100                    STA     3,,PR1

     1304    10894    2     SUBSTR (LEX_SYMBOL.SYMBOL, 0, 1) = '"' ;

  10894 11 000022   042000 236003                    LDQ     17408,DU
        11 000023   000011 552040 1                  STBQ    LEX_SYMBOL+9,'40'O
PL6.E3A0      #005=Z8EV$CONVERT_TYA File=Z8EV.:Z8A6TSI                           SAT 08/09/97 12:58 Page:346

     1305    10895    2     SUBSTR (LEX_SYMBOL.SYMBOL, 1, 1) = %KANJI_START ;

  10895 11 000024   000216 236003                    LDQ     142,DU
        11 000025   000011 552020 1                  STBQ    LEX_SYMBOL+9,'20'O

     1306    10896    2     SUBSTR (LEX_SYMBOL.SYMBOL, 2, 1) = %KANJI_SPACE ;

  10896 11 000026   241000 236007                    LDQ     82432,DL
        11 000027   000011 552010 1                  STBQ    LEX_SYMBOL+9,'10'O

     1307    10897    2     SUBSTR (LEX_SYMBOL.SYMBOL, 3, 1) = %KANJI_SPACE ;

  10897 11 000030   000241 236007                    LDQ     161,DL
        11 000031   000011 552004 1                  STBQ    LEX_SYMBOL+9,'04'O

     1308    10898    2     SUBSTR (LEX_SYMBOL.SYMBOL, 4, 1) = %KANJI_END ;

  10898 11 000032   217000 236003                    LDQ     73216,DU
        11 000033   000012 552040 1                  STBQ    LEX_SYMBOL+10,'40'O

     1309    10899    2     SUBSTR (LEX_SYMBOL.SYMBOL, 5, 1) = '"' ;

  10899 11 000034   000042 236003                    LDQ     34,DU
        11 000035   000012 552020 1                  STBQ    LEX_SYMBOL+10,'20'O

     1310    10900    2     LEX_SYMBOL.SIZE = 6 ;

  10900 11 000036   000006 235007                    LDA     6,DL
        11 000037   000010 755000 1                  STA     LEX_SYMBOL+8

     1311    10901    2     CALL Z8AH$SEARCH_ ; /* Input = LEX_SYMBOL, output = DNT$ */

  10901 11 000040   000000 631400 12                 EPPR1   0
        11 000041   000000 701000 xent               TSX1    Z8AH$SEARCH_
        11 000042   000000 011000                    NOP     0

PL6.E3A0      #005=Z8EV$CONVERT_TYA File=Z8EV.:Z8A6TSI                           SAT 08/09/97 12:58 Page:347
     1312    10902    2     DNT$ -> DNT.B.ALL = '1'B ;

  10902 11 000043   000000 470400 7                  LDP0    DNT$
        11 000044   001000 236003                    LDQ     512,DU
        11 000045   000003 256100                    ORSQ    3,,PR0

     1313    10903    2     FROM$ -> LX_TERMINAL.DNT$ = DNT$ ;

  10903 11 000046   200003 471500                    LDP1    @FROM$,,AUTO
        11 000047   100000 473500                    LDP3    0,,PR1
        11 000050   000000 236000 7                  LDQ     DNT$
        11 000051   300002 756100                    STQ     2,,PR3

     1314    10904    2     CALL Z8EV$CONVERT (%TYN, FROM$, RETURN$) ;

  10904 11 000052   200004 236100                    LDQ     @RETURN$,,AUTO
        11 000053   200012 756100                    STQ     LINK$+4,,AUTO
        11 000054   200003 236100                    LDQ     @FROM$,,AUTO
        11 000055   000003 235000 12                 LDA     3
        11 000056   200010 757100                    STAQ    LINK$+2,,AUTO
        11 000057   200010 630500                    EPPR0   LINK$+2,,AUTO
        11 000060   000001 631400 12                 EPPR1   1
        11 000061   000000 701000 xent               TSX1    Z8EV$CONVERT
        11 000062   000000 011000                    NOP     0

     1315    10905
     1316    10906    2   END ; /* Kanji space */

  10906 11 000063   000112 710000 11                 TRA     s:10917

     1317    10907
     1318    10908    2   ELSE DO ; /* Not Kanji Space */

     1319    10909
     1320    10910    2     IF CONTEXT$ -> LX_ITEM.TYPE = %TYN THEN

  10910 11 000064   400004 235100                    LDA     4,,PR4
PL6.E3A0      #005=Z8EV$CONVERT_TYA File=Z8EV.:Z8A6TSI                           SAT 08/09/97 12:58 Page:348
        11 000065   000016 115007                    CMPA    14,DL
        11 000066   000101 601000 11                 TNZ     s:10913

     1321    10911    2       CALL Z8EV$CONVERT (%TYN, FROM$, RETURN$) ;

  10911 11 000067   200004 236100                    LDQ     @RETURN$,,AUTO
        11 000070   200012 756100                    STQ     LINK$+4,,AUTO
        11 000071   200003 236100                    LDQ     @FROM$,,AUTO
        11 000072   000003 235000 12                 LDA     3
        11 000073   200010 757100                    STAQ    LINK$+2,,AUTO
        11 000074   200010 630500                    EPPR0   LINK$+2,,AUTO
        11 000075   000001 631400 12                 EPPR1   1
        11 000076   000000 701000 xent               TSX1    Z8EV$CONVERT
        11 000077   000000 011000                    NOP     0
        11 000100   000112 710000 11                 TRA     s:10917

     1322    10912    2     ELSE
     1323    10913    2       CALL Z8EV$CONVERT (%TYA, FROM$, RETURN$) ;

  10913 11 000101   200004 236100                    LDQ     @RETURN$,,AUTO
        11 000102   200012 756100                    STQ     LINK$+4,,AUTO
        11 000103   200003 236100                    LDQ     @FROM$,,AUTO
        11 000104   000005 235000 12                 LDA     5
        11 000105   200010 757100                    STAQ    LINK$+2,,AUTO
        11 000106   200010 630500                    EPPR0   LINK$+2,,AUTO
        11 000107   000001 631400 12                 EPPR1   1
        11 000110   000000 701000 xent               TSX1    Z8EV$CONVERT
        11 000111   000000 011000                    NOP     0

     1324    10914
     1325    10915    2   END ;

     1326    10916
     1327    10917    1   RETURN$ -> LX_ITEM.LINK = LINK$ ;

  10917 11 000112   200004 470500                    LDP0    @RETURN$,,AUTO
        11 000113   000000 471500                    LDP1    0,,PR0
PL6.E3A0      #005=Z8EV$CONVERT_TYA File=Z8EV.:Z8A6TSI                           SAT 08/09/97 12:58 Page:349
        11 000114   200006 236100                    LDQ     LINK$,,AUTO
        11 000115   100007 756100                    STQ     7,,PR1

     1328    10918
     1329    10919    1   END Z8EV$CONVERT_TYA ;

  10919 11 000116   000000 702200 xent               TSX2  ! X66_ARET

PL6.E3A0      #005=Z8EV$CONVERT_TYA File=Z8EV.:Z8A6TSI                           SAT 08/09/97 12:58 Page:350
--  Include file information  --

   Z8E_WINDOW.:Z8A6TOU  is referenced.
   Z8A_TYPES.:Z8A6TOU  is referenced.
   Z8A_DNT.:Z8A6TOU  cannot be made into a system file and is referenced.
   Z8A_ST.:Z8A6TOU  cannot be made into a system file and is referenced.
   Z8A_LEX_SYMB.:Z8A6TOU  cannot be made into a system file and is referenced.
   Z8E_STACKS.:Z8A6TOU  cannot be made into a system file and is referenced.
   X8A_COM_MACS.:X8A6TOU  is referenced.
   Z8A_NAMES.:Z8A6TOU  is referenced.
   Z8A_SUPP_MAC.:Z8A6TOU  is referenced.
   Z8A_DEFC.:Z8A6TOU  cannot be made into a system file and is referenced.
      No diagnostics issued in procedure Z8EV$CONVERT_TYA.
PL6.E3A0      #005=Z8EV$CONVERT_TYA File=Z8EV.:Z8A6TSI                           SAT 08/09/97 12:58 Page:351

 **** Variables and constants ****

  ****  Section 000 LblCom ITERATION

  ****  Scalars and arrays  ****
OctLoc.c.b A Datatyp(siz) R M Lvl/name                 OctLoc.c.b A Datatyp(siz) R M Lvl/name

     0-0-0/w SBIN              1 ITERATION

  ****  Section 001 LblCom LEX_SYMBOL

  ****  Scalars and arrays  ****
OctLoc.c.b A Datatyp(siz) R M Lvl/name                 OctLoc.c.b A Datatyp(siz) R M Lvl/name

     0-0-0/w STRC(3240)  r     1 LEX_SYMBOL                 0-0-0/w STRC(3240)        1 LEX_SYMBOL_WORDS

  ****  Section 002 LblCom CURRENT_LEX_SYMBOL$

  ****  Scalars and arrays  ****
OctLoc.c.b A Datatyp(siz) R M Lvl/name                 OctLoc.c.b A Datatyp(siz) R M Lvl/name

     0-0-0/w PTR         r     1 CURRENT_LEX_SYMBOL$

  ****  Section 003 LblCom TEMP_LEX_SYMBOL

  ****  Scalars and arrays  ****
OctLoc.c.b A Datatyp(siz) R M Lvl/name                 OctLoc.c.b A Datatyp(siz) R M Lvl/name

     0-0-0/w STRC(3240)        1 TEMP_LEX_SYMBOL

  ****  Section 004 LblCom TEMP_LEX_SYMBOL2

  ****  Scalars and arrays  ****
OctLoc.c.b A Datatyp(siz) R M Lvl/name                 OctLoc.c.b A Datatyp(siz) R M Lvl/name

     0-0-0/w STRC(3240)        1 TEMP_LEX_SYMBOL2

PL6.E3A0      #005=Z8EV$CONVERT_TYA File=Z8EV.:Z8A6TSI                           SAT 08/09/97 12:58 Page:352
  ****  Section 005 LblCom ST$

  ****  Scalars and arrays  ****
OctLoc.c.b A Datatyp(siz) R M Lvl/name                 OctLoc.c.b A Datatyp(siz) R M Lvl/name

     0-0-0/w PTR         r     1 ST$

  ****  Section 006 LblCom ST_

  ****  Scalars and arrays  ****
OctLoc.c.b A Datatyp(siz) R M Lvl/name                 OctLoc.c.b A Datatyp(siz) R M Lvl/name

     0-0-0/w STRC(180)         1 ST_

  ****  Section 007 LblCom DNT$

  ****  Scalars and arrays  ****
OctLoc.c.b A Datatyp(siz) R M Lvl/name                 OctLoc.c.b A Datatyp(siz) R M Lvl/name

     0-0-0/w PTR         r     1 DNT$

  ****  Section 008 LblCom DNT_

  ****  Scalars and arrays  ****
OctLoc.c.b A Datatyp(siz) R M Lvl/name                 OctLoc.c.b A Datatyp(siz) R M Lvl/name

     0-0-0/w STRC(180)         1 DNT_

  ****  Section 009 LblCom DNT_BUCKET_NUMBER

  ****  Scalars and arrays  ****
OctLoc.c.b A Datatyp(siz) R M Lvl/name                 OctLoc.c.b A Datatyp(siz) R M Lvl/name

     0-0-0/w UBIN              1 DNT_BUCKET_NUMBER

  ****  Section 010 LblCom DNT_OF_1$

PL6.E3A0      #005=Z8EV$CONVERT_TYA File=Z8EV.:Z8A6TSI                           SAT 08/09/97 12:58 Page:353
  ****  Scalars and arrays  ****
OctLoc.c.b A Datatyp(siz) R M Lvl/name                 OctLoc.c.b A Datatyp(siz) R M Lvl/name

     0-0-0/w PTR               1 DNT_OF_1$

  ****  Auto variables  ****

  ****  Scalars and arrays  ****
OctLoc.c.b A Datatyp(siz) R M Lvl/name                 OctLoc.c.b A Datatyp(siz) R M Lvl/name

     5-0-0/w PTR         r     1 @CONTEXT$                  3-0-0/w PTR         r     1 @FROM$
     4-0-0/w PTR         r     1 @RETURN$                  *0-0-0/w PTR         r     1 CONTEXT$
    *0-0-0/w PTR         r     1 FROM$                      6-0-0/w PTR         r     1 LINK$
    *0-0-0/w PTR         r     1 RETURN$

  ****  BASED and DCB variables  ****

  ****  Scalars and arrays  ****
OctLoc.c.b A Datatyp(siz) R M Lvl/name                 OctLoc.c.b A Datatyp(siz) R M Lvl/name

     0-0-0/w STRC(288)         1 ADD_STMT                   0-0-0/w STRC(396)         1 ALPHABET
     0-0-0/w STRC(396)         1 ARRAY                      0-0-0/w ASTR(324)   r     1 BASED_LEX_SYMBOL
     0-0-0/w STRC(360)         1 BASED_LEX_SYMBOL_WORDS
     0-0-0/w STRC(288)         1 BINARY_OP                  0-0-0/w STRC(396)         1 BLOCK
     0-0-0/w STRC(288)         1 CALL_STMT                  0-0-0/w STRC(396)         1 CD
     0-0-0/w CHAR(4096)        1 CHARS                      0-0-0/w STRC(396)         1 CLASS
     0-0-0/w STRC(288)         1 COMPUTE_STMT               0-0-0/w STRC(396)         1 CONDITION
     0-0-0/w STRC(396)         1 CONST                      0-0-0/w STRC(72)          1 CONT
     0-0-0/w STRC(396)         1 DB                         0-0-0/w STRC(396)         1 DCB_
     0-0-0/w STRC(288)         1 DEFERED_IDENTIFIER         0-0-0/w STRC(252)         1 DEFERED_ID_TREE
     0-0-0/w STRC(288)         1 DEFERED_QUAL_ID            0-0-0/w STRC(288)         1 DEFERED_SUM_CLAUSE
     0-0-0/w STRC(288)         1 DEFERED_SUM_CLAUSE_LIST
     0-0-0/w STRC(288)         1 DELETE_STMT                0-0-0/w STRC(288)         1 DIVIDE_STMT
     0-0-0/w STRC(396)         1 DML_ITEM                   0-0-0/w ASTR(180)   r     1 DNT
     0-0-0/w STRC(396)         1 FD                         0-0-0/w STRC(288)         1 ILS_LIST
     0-0-0/w STRC(288)         1 INSPECT_1_STMT             0-0-0/w STRC(288)         1 INSPECT_2_STMT
     0-0-0/w STRC(288)         1 INSPECT_4_STMT             0-0-0/w STRC(396)         1 INTDEF
PL6.E3A0      #005=Z8EV$CONVERT_TYA File=Z8EV.:Z8A6TSI                           SAT 08/09/97 12:58 Page:354
     0-0-0/w STRC(396)         1 LABEL                      0-0-0/w STRC(288)         1 LA_ITEM
     0-0-0/w STRC(504)         1 LX_CD_INPUT                0-0-0/w STRC(324)         1 LX_CD_I_O
     0-0-0/w STRC(396)         1 LX_CD_OUTPUT               0-0-0/w STRC(288)         1 LX_ETT_ITEM
     0-0-0/w STRC(288)   r     1 LX_ITEM                    0-0-0/w STRC(288)         1 LX_LARGE
     0-0-0/w STRC(288)         1 LX_LIST                    0-0-0/w STRC(1224)        1 LX_REC_DECL
     0-0-0/w STRC(864)         1 LX_REPORT_REC              0-0-0/w STRC(288)   r     1 LX_TERMINAL
     0-0-0/w STRC(396)         1 MNEMONIC                   0-0-0/w STRC(288)         1 MULTIPLY_STMT
     0-0-0/w STRC(36864)       1 PAGE                       0-0-0/w STRC(396)         1 PARA
     0-0-0/w STRC(396)         1 PROC_                      0-0-0/w STRC(396)         1 PROC_DEF
     0-0-0/w STRC(396)         1 RD                         0-0-0/w STRC(288)         1 READ_STMT
     0-0-0/w STRC(288)         1 REWRITE_STMT               0-0-0/w STRC(396)         1 SCALAR
     0-0-0/w STRC(396)         1 SD                         0-0-0/w STRC(396)         1 SECTION
     0-0-0/w STRC(396)         1 SEGMENT                    0-0-0/w STRC(396)         1 ST
     0-0-0/w STRC(288)         1 START_STMT                 0-0-0/w STRC(252)         1 STRING_STMT
     0-0-0/w STRC(288)         1 SUBTRACT_STMT              0-0-0/w STRC(396)         1 SWITCH
     0-0-0/w STRC(396)         1 SYMBOLIC_CHAR              0-0-0/w STRC(396)         1 SYMDEF_
     0-0-0/w STRC(396)         1 SYMREF_                    0-0-0/w STRC(396)         1 TEMP
     0-0-0/w STRC(288)         1 UNARY_OP                   0-0-0/w STRC(288)         1 UNSTRING_STMT
     0-0-0/w STRC(396)         1 VARIABLE                   0-0-0/w STRC(288)         1 WRITE_STMT


   Procedure Z8EV$CONVERT_TYA requires 79 words for executable code.
   Procedure Z8EV$CONVERT_TYA requires 12 words of local(AUTO) storage.

    No errors detected in file Z8EV.:Z8A6TSI    .
