VERSION A06

PL6.E3A0      #001=Z8EW$WRAPUP File=Z8EW.:Z8A6TSI                                SAT 08/09/97 12:51 Page:1
        1        1        /*T***********************************************************/
        2        2        /*T*                                                         */
        3        3        /*T* Copyright (c) Bull HN Information Systems Inc., 1997    */
        4        4        /*T*                                                         */
        5        5        /*T***********************************************************/
        6        6        Z8EW$WRAPUP: PROC NOAUTO ;
        7        7        /*M* Z8EW$WRAPUP -- Wrap up the front end when completed. */
        8        8
        9        9        /*P*
       10       10               NAME:  Z8EW$WRAPUP
       11       11            PURPOSE:  This procedure wraps up all the variables and pointers
       12       12                      that need to be taken care of after parsing.
       13       13        */
       14       14
       15       15        /*D*
       16       16               NAME:  Z8EW$WRAPUP
       17       17               CALL:  CALL Z8EW$WRAPUP
       18       18
       19       19             OUTPUT:  The branch linked list and the label linked list are
       20       20                      closed up to symbolize the end of the links.
       21       21
       22       22        DESCRIPTION:  This procedure wraps up everything at the end of phase 1.
       23       23                      The linked lists are taken care of and there may be more
       24       24                      items to be handled in the near future.
       25       25        */
       26       26        %EJECT ;
PL6.E3A0      #001=Z8EW$WRAPUP File=Z8EW.:Z8A6TSI                                SAT 08/09/97 12:51 Page:2
       27       27        %SET PHASE = 1 ;
       28       28        %INCLUDE Z8A_DEFC ;
       29       96        %INCLUDE Z8A_SUPP_MAC ;
       30     2496        %INCLUDE Z8A_COMCOM ;
       31     3146        %INCLUDE Z8A_IO_EQUS ;
       32     3269        %INCLUDE Z8A_TYPES ;
       33     3443        %INCLUDE Z8E_STACKS;
       34     5709        %INCLUDE Z8E_O1COM ;
       35     6470        %INCLUDE Z8E_BUFFERS;
       36     6660        %INCLUDE Z8A_ILL ;
       37     7353        %INCLUDE Z8A_ILS ;
       38     7462        %INCLUDE Z8E_MACROS ;
       39     8137        %INCLUDE Z8E_HEAPINFO;
       40     8175        %INCLUDE Z8A_ERR_NUMS;
       41     8939        %INCLUDE Z8A_ST ;
       42    12598        %INCLUDE Z8A_ETT ;
       43    12899        %INCLUDE Z8A_LTS;
       44    14976        %INCLUDE Z8E_ILS_LIST;
       45    15060        %INCLUDE Z8A_MKCN;
       46    15077
       47    15078    1   DCL Z8AR$FREER  ENTRY (1);
       48    15079    1   DCL Z8AC$MAKE_CONST ENTRY(1);
       49    15080    1   DCL Z8AT$CREATE_TEMPORARY ENTRY (2);
       50    15081    1   DCL Z8AA$CLOSE_SOURCE_FILE ENTRY ALTRET;
       51    15082    1   DCL Z8AA$POSITION_ES_OUT    ENTRY ALTRET;
       52    15083    1   DCL Z8EL$DUMP_USED_LINES ENTRY;
       53    15084    1   DCL Z8EL$HANDLE_LEVEL_CHANGE ENTRY(1);
       54    15085    1   DCL Z8EL$DELETE_REPLACE_LEVEL ENTRY(1);
       55    15086    1   DCL Z8AE$ERROR ENTRY(12);
       56    15087    1   DCL Z8ED$DISPOSE_HEAP ENTRY(2);
       57    15088    1   DCL Z8ED$DISPOSE_ABSSYN_TREE ENTRY(1);
       58    15089    1   DCL Z8E8$CSIB          ENTRY;
       59    15090    1   DCL Z9EW$IO_INTERFACE ENTRY(1);
       60    15091    1   DCL Z9EW$OPEN_WRAPUP      ENTRY(1);
       61    15092
       62    15093    1   DCL EPTR_NIL_VAL EPTR CONSTANT INIT (ENTADDR(NIL));
       63    15094    1   DCL EPTR_NIL REDEF EPTR_NIL_VAL SBIN WORD;
PL6.E3A0      #001=Z8EW$WRAPUP File=Z8EW.:Z8A6TSI                                SAT 08/09/97 12:51 Page:3
       64    15095
       65    15096    1   DCL EPTR_NIL_CONST$ PTR;
       66    15097    1   DCL L$ PTR;
       67    15098    1   DCL I UBIN;
       68    15099    1   DCL J UBIN;
       69    15100
       70    15101    1     USE_PROC_INIT : PROC (LOP$, OFFSET, ROP$);
       71    15102
       72    15103    2       DCL LOP$ PTR;
       73    15104    2       DCL ROP$ PTR;
       74    15105    2       DCL ROP_EPTR REDEF ROP$ EPTR;
       75    15106    2       DCL OFFSET SBIN;
       76    15107
       77    15108
       78    15109
       79    15110    2       IF ROP_EPTR = ENTADDR(NIL) THEN
       80    15111              %NEW_ILL (@ID = %PREOFF,
       81    15112                        @LOP = LOP$,
       82    15113                        @OFFSET = OFFSET,
       83    15114                        @N = 1,
       84    15115                        @ROP = EPTR_NIL_CONST$);
       85    15494    2       ELSE
       86    15495              %NEW_ILL (@ID = %PTR_SET,
       87    15496                        @LOP = LOP$,
       88    15497                        @OFFSET = OFFSET,
       89    15498                        @ROP = ROP$);
       90    15877
       91    15878    2     END USE_PROC_INIT;
       92    15879        %EJECT ;
PL6.E3A0      #001=Z8EW$WRAPUP File=Z8EW.:Z8A6TSI                                SAT 08/09/97 12:51 Page:4
       93    15880
       94    15881    1     CREATE_LABEL_PROC_TABLE: PROC (FILE$, PTR_ARRAY$);
       95    15882
       96    15883    2       DCL FILE$          PTR;
       97    15884    2       DCL PTR_ARRAY$     PTR;
       98    15885    2       DCL ST$$           PTR;
       99    15886    2       DCL I              SBIN WORD;
      100    15887
      101    15888
      102    15889    2       CALL Z8AT$CREATE_TEMPORARY (%SCALAR, ST$$);
      103    15890
      104    15891    2       ST$$ -> SCALAR.TYPE = %TYA;
      105    15892    2       ST$$ -> SCALAR.ADSC.N = 96;   /* 24 words */
      106    15893    2       ST$$ -> SCALAR.B.CLASS = %CLASS_ALPHANUMERIC;
      107    15894
      108    15895    3       DO I = 0 TO %USER_LABEL_PROC_TABLE_SIZE - 1;
      109    15896
      110    15897    3         CALL USE_PROC_INIT (ST$$, I,
      111    15898    3                             PTR_ARRAY$ -> LTS_PTR_ARRAY.P$ (I));
      112    15899
      113    15900    3       END; /* DO I = .. */
      114    15901
      115    15902    2       FILE$ -> FILE_LTS.LABEL_EXIT$ = ST$$;
      116    15903
      117    15904    2     END CREATE_LABEL_PROC_TABLE;
      118    15905        %EJECT;
PL6.E3A0      #001=Z8EW$WRAPUP File=Z8EW.:Z8A6TSI                                SAT 08/09/97 12:51 Page:5
      119    15906
      120    15907
      121    15908
      122    15909        /* Set up a ENTADDR(NIL) constant for use by USE PRESET */
      123    15910    1   MKCN.CON = EPTR_NIL;
      124    15911    1   CALL Z8AC$MAKE_CONST(EPTR_NIL_CONST$);
      125    15912    1   EPTR_NIL_CONST$ = EPTR_NIL_CONST$ -> ETT.LOP;
      126    15913
      127    15914
      128    15915
      129    15916        /* Release all heap space */
      130    15917    1   CALL Z8EL$HANDLE_LEVEL_CHANGE (0);
      131    15918    1   CALL Z8EL$DELETE_REPLACE_LEVEL (0);
      132    15919    1   CURRENT_BUFFER$ = ADDR(NIL);  /* Show no more source lines */
      133    15920
      134    15921    1   CALL Z8EL$DUMP_USED_LINES;
      135    15922
      136    15923        /* Release line buffers */
      137    15924    2   DO WHILE LINE_LIST$ ~= ADDR(NIL);
      138    15925    2     HEAP$ = LINE_LIST$;
      139    15926    2     LINE_LIST$ = LINE_LIST$ -> FILL_BUFFER.NEXT$;
      140    15927    2     CALL Z8ED$DISPOSE_HEAP(HEAP$, %MAX_INPUT_BUFFER_LEN);
      141    15928    2   END;
      142    15929
      143    15930        /* Release value is info from condition names */
      144    15931    2   DO WHILE O1COM.CONDITION$ ~= ADDR(NIL);
      145    15932    2     CALL Z8ED$DISPOSE_ABSSYN_TREE (O1COM.CONDITION$ ->
      146    15933    2                                       CONDITION.VALUE_LIST$);
      147    15934    2     O1COM.CONDITION$ = O1COM.CONDITION$ -> CONDITION.NEXT_CONDITION$;
      148    15935    2   END;
      149    15936
      150    15937        /* Close the file used by phase 1 */
      151    15938    1   CALL Z8AA$CLOSE_SOURCE_FILE;
      152    15939    1   CALL Z8AA$POSITION_ES_OUT;
      153    15940
      154    15941        /* Set the number of source lines;  current line - 1, since
      155    15942           the end of file is counted as one in order to flush buffers. */
PL6.E3A0      #001=Z8EW$WRAPUP File=Z8EW.:Z8A6TSI                                SAT 08/09/97 12:51 Page:6
      156    15943    1   COMCOM.LINES.SOURCE = COMCOM.CURRENT.LINE - 1;
      157    15944
      158    15945    1    L$ = O1COM.OPEN_LTS$;
      159    15946    2    DO WHILE L$ ~= ADDR(NIL);
      160    15947
      161    15948    2       CALL Z9EW$OPEN_WRAPUP(L$);
      162    15949    2       L$ = L$ -> OPEN_LTS.LINK;
      163    15950    2    END;
      164    15951
      165    15952        /* Finish the file FAB presets for USE procs */
      166    15953
      167    15954    1   L$ = COMCOM.FILE_LTS_CHAIN$;
      168    15955
      169    15956    2   DO WHILE L$ ~= ADDR(NIL);
      170    15957
      171    15958    2     IF L$ -> FILE_LTS.ST$ -> ST.ID = %FD THEN
      172    15959    3       DO;
      173    15960    3         IF L$ -> FILE_LTS.LABEL_EXIT$ ~= ADDR(NIL) AND
      174    15961    3            L$ -> FILE_LTS.LABEL_EXIT$ -> LTS.ID = %LTS_PTR_ARRAY THEN
      175    15962    3           CALL CREATE_LABEL_PROC_TABLE (L$, L$ -> FILE_LTS.LABEL_EXIT$);
      176    15963
      177    15964    3         CALL Z9EW$IO_INTERFACE( L$ );
      178    15965
      179    15966    3       END;
      180    15967
      181    15968    2     L$ = L$ -> FILE_LTS.FILE_LTS_CHAIN$;
      182    15969    2   END;
      183    15970
      184    15971    1   IF COMCOM.USE_BLOCK_ST$ ~= ADDR(NIL) THEN
      185    15972    2     DO;
      186    15973    2       CALL USE_PROC_INIT (COMCOM.USE_BLOCK_ST$,
      187    15974    2                           0,
      188    15975    2                           COMCOM.FIRST_PROC$ -> PROC_.PROC_SUPP$ -> PROC_SUPP.
             15975                                    USE_INPUT_LABEL$);
      189    15976
      190    15977    2       CALL USE_PROC_INIT (COMCOM.USE_BLOCK_ST$,
      191    15978    2                           1,
PL6.E3A0      #001=Z8EW$WRAPUP File=Z8EW.:Z8A6TSI                                SAT 08/09/97 12:51 Page:7
      192    15979    2                           COMCOM.FIRST_PROC$ -> PROC_.PROC_SUPP$ -> PROC_SUPP.
             15979                                    USE_OUTPUT_LABEL$);
      193    15980
      194    15981    2       CALL USE_PROC_INIT (COMCOM.USE_BLOCK_ST$,
      195    15982    2                           2,
      196    15983    2                           COMCOM.FIRST_PROC$ -> PROC_.PROC_SUPP$ -> PROC_SUPP.
             15983                                    USE_IO_LABEL$);
      197    15984
      198    15985    2       CALL USE_PROC_INIT (COMCOM.USE_BLOCK_ST$,
      199    15986    2                           3,
      200    15987    2                           COMCOM.FIRST_PROC$ -> PROC_.PROC_SUPP$ -> PROC_SUPP.
             15987                                    USE_EXTEND_LABEL$);
      201    15988    2     END;
      202    15989    1   IF COMCOM.OB.FIPS.LEVEL >= %INT_LEV AND O1COM.ID_DIV_COUNT > 1 THEN
      203    15990    2     DO;
      204    15991    2       L$ = COMCOM.USE_PROC_CHAIN$;
      205    15992    3       DO WHILE L$ ~= ADDR(NIL);
      206    15993    3         IF L$ -> USE.TYPE ~= %USE_TYPE_NIL THEN
      207    15994    4           IF NOT L$ -> USE.PROC_LABEL$ -> SECTION.B.USE_ALREADY_FLAGGED THEN DO;
      208    15995    4             I = L$ -> USE.LINE;
      209    15996    4             J = L$ -> USE.COLUMN;
      210    15997                  /* GLOBAL USE already flagged, but it may have multiple entries
      211    15998                     in this chain. Local USE procs have only one each. Local USE
      212    15999                     has already been flagged if applies to more than one file
      213    16000                     or if USE ... EXTEND. */
      214    16001    4             CALL Z8AE$ERROR (%E$LEVEL_CHECK,
      215    16002    4                              I,
      216    16003    4                              J);
      217    16004    4           END;
      218    16005    3         L$ = L$ -> USE.PROC_CHAIN$;
      219    16006    3       END; /* WHILE */
      220    16007    2     END;
      221    16008
      222    16009        /* Create the CSIB for the internal and external programs
      223    16010           after all the phase 1 mess is complete. */
      224    16011
      225    16012    1   CALL Z8E8$CSIB;
PL6.E3A0      #001=Z8EW$WRAPUP File=Z8EW.:Z8A6TSI                                SAT 08/09/97 12:51 Page:8
      226    16013
      227    16014
      228    16015        /*V*
      229    16016            CREATE_PROG_END -- The END statement for the program is created.  It is
      230    16017                               created here so that the end statement is set up for
      231    16018                               all programs.  Phase 2,3 and 4 depend on this statment
      232    16019                               being in the linked list.
      233    16020        */
      234    16021
      235    16022    1   O1COM.LINE_NO = COMCOM.CURRENT.LINE;  /* Set O1COM.LINE_NO so that */
      236    16023    1   O1COM.COLUMN_NO = 0;                  /* LINOI will be correct     */
      237    16024
      238    16025
      239    16026        %NEW_ILL (@ID = %END);
      240    16405
      241    16406
      242    16407        /* Set head of list for later phases */
      243    16408
      244    16409    1   COMCOM.FIRST_ILS = ADDR(O1COM.ILS_LIST) -> ILS_LIST.HEAD$;
      245    16410
      246    16411        /* Check that Phase 1 heap was returned, then free space */
      247    16412    1   IF HEAP_WORDS_ALLOCATED ~= 0 THEN
      248    16413    1     CALL Z8AE$ERROR(%E$HEAP_NOT_RETURNED);
      249    16414
      250    16415    1   CALL Z8AR$FREER(ADDR(HEAP_));
      251    16416
      252    16417
      253    16418    1   END Z8EW$WRAPUP ;

PL6.E3A0      #001=Z8EW$WRAPUP File=Z8EW.:Z8A6TSI                                SAT 08/09/97 12:51 Page:9
--  Include file information  --

   Z8A_MKCN.:Z8A6TOU  cannot be made into a system file and is referenced.
   Z8E_ILS_LIST.:Z8A6TOU  is referenced.
   Z8A_LTS.:Z8A6TOU  cannot be made into a system file and is referenced.
   Z8A_ETT.:Z8A6TOU  cannot be made into a system file and is referenced.
   Z8A_ST.:Z8A6TOU  cannot be made into a system file and is referenced.
   Z8A_ERR_NUMS.:Z8A6TOU  is referenced.
   Z8E_HEAPINFO.:Z8A6TOU  cannot be made into a system file and is referenced.
   Z8E_NEW_ILL.:Z8A6TOU  is referenced.
   Z8E_MACROS.:Z8A6TOU  cannot be made into a system file and is referenced.
   Z8A_ILS.:Z8A6TOU  cannot be made into a system file and is referenced.
   Z8A_ILL.:Z8A6TOU  cannot be made into a system file and is referenced.
   Z8E_BUFFERS.:Z8A6TOU  cannot be made into a system file and is referenced.
   Z8E_O1COM.:Z8A6TOU  cannot be made into a system file and is referenced.
   Z8A_LEX_SYMB.:Z8A6TOU  cannot be made into a system file and is referenced.
   Z8E_STACKS.:Z8A6TOU  cannot be made into a system file and is referenced.
   Z8A_TYPES.:Z8A6TOU  is referenced.
   Z8A_IO_EQUS.:Z8A6TOU  is referenced.
   Z8A_COMCOM.:Z8A6TOU  cannot be made into a system file and is referenced.
   X8A_COM_MACS.:X8A6TOU  is referenced.
   Z8A_NAMES.:Z8A6TOU  is referenced.
   Z8A_SUPP_MAC.:Z8A6TOU  is referenced.
   Z8A_DEFC.:Z8A6TOU  cannot be made into a system file and is referenced.
      No diagnostics issued in procedure Z8EW$WRAPUP.

   Procedure Z8EW$WRAPUP requires 297 words for executable code.
   Procedure Z8EW$WRAPUP is declared NOAUTO and requires 20 words of local(STATIC) storage.

    No errors detected in file Z8EW.:Z8A6TSI    .

PL6.E3A0      #001=Z8EW$WRAPUP File=Z8EW.:Z8A6TSI                                SAT 08/09/97 12:51 Page:10

 Object Unit name= Z8EW$WRAPUP                                File name= Z8EW.:Z8A6TOU
 UTS= AUG 09 '97 12:51:50.60 SAT                              Compiler= PL-6/E31         Sev=      00
 SharedLib= :SHARED_SYSTEM                                    Alt SharedLib=


    ****  Control sections  ****

 Sect   Type Bound  Init  Size OctSiz  Section name(segment info)
    0   Data  even  none    20     24  Z8EW$WRAPUP
    1  LblCom even  none     1      1  ITERATION
    2  LblCom even  none    90    132  LEX_SYMBOL
    3  LblCom even  none     1      1  CURRENT_LEX_SYMBOL$
    4  LblCom even  none    90    132  TEMP_LEX_SYMBOL
    5  LblCom even  none    90    132  TEMP_LEX_SYMBOL2
    6  LblCom even  none     1      1  SCANNER_STATE
    7  LblCom even  none     1      1  CURRENT_BUFFER$
    8  LblCom even  none     1      1  LOOKAHEAD_BUFFER$
    9  LblCom even  none     1      1  CURRENT_LINE_LEVEL
   10  LblCom even  none     1      1  LINE_LIST$
   11  LblCom even  none     7      7  BUFFER
   12  LblCom even  none     1      1  ORIGINAL_ISN
   13  LblCom even  none     1      1  EXPANDED_ISN
   14  LblCom even  none     1      1  ISN_FOR_EXP_SRC
   15  LblCom even  none     1      1  ILL$
   16  LblCom even  none     5      5  ILL_
   17  LblCom even  none     1      1  ILS$
   18  LblCom even  none     5      5  ILS_
   19  LblCom even  none   101    145  HEAP_POOL
   20  LblCom even  none     1      1  HEAP_WORDS_ALLOCATED
   21  LblCom even  none     5      5  HEAP_
   22  LblCom even  none     1      1  HEAP$
   23  LblCom even  none     1      1  ST$
   24  LblCom even  none     5      5  ST_
   25  LblCom even  none     1      1  ETT$
   26  LblCom even  none     1      1  HEAD_ETT$
   27  LblCom even  none   512   1000  ETT_BUCKETS
   28  LblCom even  none     5      5  ETT_
PL6.E3A0      #001=Z8EW$WRAPUP File=Z8EW.:Z8A6TSI                                SAT 08/09/97 12:51 Page:11
   29  LblCom even  none     1      1  LTS$
   30  LblCom even  none     5      5  LTS_
   31  LblCom even  none     2      2  MKCN
   32  RoData even  UTS      1      1  Z8EW$WRAPUP
   33   Proc  even  none   297    451  Z8EW$WRAPUP
   34  RoData even  none    48     60  Z8EW$WRAPUP

    ****  Entry defs  ****

                              Check   Calling
                             calling  sequence
  Sect OctLoc Primary Altret sequence   type   Parms  Name
    33      0   yes            yes      Std        0  Z8EW$WRAPUP

  ****  Entry refs  ****

         Check        Calling
        calling       sequence
Altret sequence SRef   type   Args  Name
         yes           Std       1 Z8AC$MAKE_CONST
         yes           Std       1 Z8EL$HANDLE_LEVEL_CHANGE
         yes           Std       1 Z8EL$DELETE_REPLACE_LEVEL
         yes           Std       0 Z8EL$DUMP_USED_LINES
         yes           Std      12 Z8AE$ERROR
 yes     yes           Std       0 Z8AA$CLOSE_SOURCE_FILE
         yes           Std       1 Z9EW$OPEN_WRAPUP
         yes           Std       4 Z8AN$NEW_ILL
         yes           Std       1 Z8AR$FREER
         yes           Std       2 Z8ED$DISPOSE_HEAP
         yes           Std       1 Z8ED$DISPOSE_ABSSYN_TREE
 yes     yes           Std       0 Z8AA$POSITION_ES_OUT
         yes           Std       0 Z8E8$CSIB
         yes           Std       1 Z9EW$IO_INTERFACE
         yes           Std       2 Z8AT$CREATE_TEMPORARY
PL6.E3A0      #001=Z8EW$WRAPUP File=Z8EW.:Z8A6TSI                                SAT 08/09/97 12:51 Page:12

  ****  Data refs  ****

  Flags:  r = read only, s = secondary
Flgs Name                             Flgs Name                             Flgs Name
     COMCOM                                O1COM                                 HIER_STK_PTR
     HIER_STK                              PAGE_FORMAT                           REP_STK_PTR
     REP_STK                          r    ILL_STEP                         r    ILS_STEP_TABLE
r    LTS_STEP

  ****  Segment refs  ****

  Flags:  r = read only, s = secondary
Flgs Name                             Flgs Name                             Flgs Name
     ISSID                                 NULLSID
PL6.E3A0      #001=Z8EW$WRAPUP File=Z8EW.:Z8A6TSI                                SAT 08/09/97 12:51 Page:13


        1        1        /*T***********************************************************/
        2        2        /*T*                                                         */
        3        3        /*T* Copyright (c) Bull HN Information Systems Inc., 1997    */
        4        4        /*T*                                                         */
        5        5        /*T***********************************************************/
        6        6        Z8EW$WRAPUP: PROC NOAUTO ;

      6 33 000000   000000 741200 0     Z8EW$WRAPUP  STX1  ! 0
        33 000001   000136 710000 33                 TRA     s:15910

        7        7        /*M* Z8EW$WRAPUP -- Wrap up the front end when completed. */
        8        8
        9        9        /*P*
       10       10               NAME:  Z8EW$WRAPUP
       11       11            PURPOSE:  This procedure wraps up all the variables and pointers
       12       12                      that need to be taken care of after parsing.
       13       13        */
       14       14
       15       15        /*D*
       16       16               NAME:  Z8EW$WRAPUP
       17       17               CALL:  CALL Z8EW$WRAPUP
       18       18
       19       19             OUTPUT:  The branch linked list and the label linked list are
       20       20                      closed up to symbolize the end of the links.
       21       21
       22       22        DESCRIPTION:  This procedure wraps up everything at the end of phase 1.
       23       23                      The linked lists are taken care of and there may be more
       24       24                      items to be handled in the near future.
       25       25        */
       26       26        %EJECT ;
PL6.E3A0      #001=Z8EW$WRAPUP File=Z8EW.:Z8A6TSI                                SAT 08/09/97 12:51 Page:14
       27       27        %SET PHASE = 1 ;
       28       28        %INCLUDE Z8A_DEFC ;
       29       96        %INCLUDE Z8A_SUPP_MAC ;
       30     2496        %INCLUDE Z8A_COMCOM ;
       31     3146        %INCLUDE Z8A_IO_EQUS ;
       32     3269        %INCLUDE Z8A_TYPES ;
       33     3443        %INCLUDE Z8E_STACKS;
       34     5709        %INCLUDE Z8E_O1COM ;
       35     6470        %INCLUDE Z8E_BUFFERS;
       36     6660        %INCLUDE Z8A_ILL ;
       37     7353        %INCLUDE Z8A_ILS ;
       38     7462        %INCLUDE Z8E_MACROS ;
       39     8137        %INCLUDE Z8E_HEAPINFO;
       40     8175        %INCLUDE Z8A_ERR_NUMS;
       41     8939        %INCLUDE Z8A_ST ;
       42    12598        %INCLUDE Z8A_ETT ;
       43    12899        %INCLUDE Z8A_LTS;
       44    14976        %INCLUDE Z8E_ILS_LIST;
       45    15060        %INCLUDE Z8A_MKCN;
       46    15077
       47    15078    1   DCL Z8AR$FREER  ENTRY (1);
       48    15079    1   DCL Z8AC$MAKE_CONST ENTRY(1);
       49    15080    1   DCL Z8AT$CREATE_TEMPORARY ENTRY (2);
       50    15081    1   DCL Z8AA$CLOSE_SOURCE_FILE ENTRY ALTRET;
       51    15082    1   DCL Z8AA$POSITION_ES_OUT    ENTRY ALTRET;
       52    15083    1   DCL Z8EL$DUMP_USED_LINES ENTRY;
       53    15084    1   DCL Z8EL$HANDLE_LEVEL_CHANGE ENTRY(1);
       54    15085    1   DCL Z8EL$DELETE_REPLACE_LEVEL ENTRY(1);
       55    15086    1   DCL Z8AE$ERROR ENTRY(12);
       56    15087    1   DCL Z8ED$DISPOSE_HEAP ENTRY(2);
       57    15088    1   DCL Z8ED$DISPOSE_ABSSYN_TREE ENTRY(1);
       58    15089    1   DCL Z8E8$CSIB          ENTRY;
       59    15090    1   DCL Z9EW$IO_INTERFACE ENTRY(1);
       60    15091    1   DCL Z9EW$OPEN_WRAPUP      ENTRY(1);
       61    15092
       62    15093    1   DCL EPTR_NIL_VAL EPTR CONSTANT INIT (ENTADDR(NIL));
       63    15094    1   DCL EPTR_NIL REDEF EPTR_NIL_VAL SBIN WORD;
PL6.E3A0      #001=Z8EW$WRAPUP File=Z8EW.:Z8A6TSI                                SAT 08/09/97 12:51 Page:15
       64    15095
       65    15096    1   DCL EPTR_NIL_CONST$ PTR;
       66    15097    1   DCL L$ PTR;
       67    15098    1   DCL I UBIN;
       68    15099    1   DCL J UBIN;
       69    15100
       70    15101    1     USE_PROC_INIT : PROC (LOP$, OFFSET, ROP$);

  15101 33 000002   000005 741200 0     USE_PROC_IN* STX1  ! J+1

       71    15102
       72    15103    2       DCL LOP$ PTR;
       73    15104    2       DCL ROP$ PTR;
       74    15105    2       DCL ROP_EPTR REDEF ROP$ EPTR;
       75    15106    2       DCL OFFSET SBIN;
       76    15107
       77    15108
       78    15109
       79    15110    2       IF ROP_EPTR = ENTADDR(NIL) THEN

  15110 33 000003   000010 470400 0                  LDP0    @ROP$
        33 000004   000000 236100                    LDQ     0,,PR0
        33 000005   000000 116000 34                 CMPQ    0
        33 000006   000040 601000 33                 TNZ     s:15718

       80    15111              %NEW_ILL (@ID = %PREOFF,
       81    15112                        @LOP = LOP$,
       82    15113                        @OFFSET = OFFSET,
       83    15114                        @N = 1,
       84    15115                        @ROP = EPTR_NIL_CONST$);

  15344 33 000007   000003 236000 34                 LDQ     3
        33 000010   000016 756000 0                  STQ     I+1
        33 000011   000016 631400 0                  EPPR1   I+1
        33 000012   000023 451400 0                  STP1    I+6
        33 000013   000004 236000 34                 LDQ     4
        33 000014   000022 756000 0                  STQ     I+5
PL6.E3A0      #001=Z8EW$WRAPUP File=Z8EW.:Z8A6TSI                                SAT 08/09/97 12:51 Page:16
        33 000015   000006 237000 34                 LDAQ    6
        33 000016   000020 757000 0                  STAQ    I+3
        33 000017   000020 630400 0                  EPPR0   I+3
        33 000020   000001 631400 34                 EPPR1   1
        33 000021   000000 701000 xent               TSX1    Z8AN$NEW_ILL
        33 000022   000000 011000                    NOP     0

  15348 33 000023   000007 470400 0                  LDP0    @OFFSET
        33 000024   000000 720100                    LXL0    0,,PR0
        33 000025   000000 471400 15                 LDP1    ILL$
        33 000026   100000 440100                    SXL0    0,,PR1

  15353 33 000027   000001 235007                    LDA     1,DL
        33 000030   000000 471400 15                 LDP1    ILL$
        33 000031   100003 755100                    STA     3,,PR1

  15355 33 000032   000006 473400 0                  LDP3    @LOP$
        33 000033   300000 236100                    LDQ     0,,PR3
        33 000034   100001 756100                    STQ     1,,PR1

  15356 33 000035   000001 236000 0                  LDQ     EPTR_NIL_CONST$
        33 000036   100002 756100                    STQ     2,,PR1

  15464 33 000037   000067 710000 33                 TRA     s:15878

       85    15494    2       ELSE
       86    15495              %NEW_ILL (@ID = %PTR_SET,
       87    15496                        @LOP = LOP$,
       88    15497                        @OFFSET = OFFSET,
       89    15498                        @ROP = ROP$);

  15718 33 000040   000003 236000 34                 LDQ     3
        33 000041   000016 756000 0                  STQ     I+1
        33 000042   000016 631400 0                  EPPR1   I+1
        33 000043   000023 451400 0                  STP1    I+6
        33 000044   000004 236000 34                 LDQ     4
        33 000045   000022 756000 0                  STQ     I+5
PL6.E3A0      #001=Z8EW$WRAPUP File=Z8EW.:Z8A6TSI                                SAT 08/09/97 12:51 Page:17
        33 000046   000012 237000 34                 LDAQ    10
        33 000047   000020 757000 0                  STAQ    I+3
        33 000050   000020 630400 0                  EPPR0   I+3
        33 000051   000001 631400 34                 EPPR1   1
        33 000052   000000 701000 xent               TSX1    Z8AN$NEW_ILL
        33 000053   000000 011000                    NOP     0

  15722 33 000054   000007 470400 0                  LDP0    @OFFSET
        33 000055   000000 720100                    LXL0    0,,PR0
        33 000056   000000 471400 15                 LDP1    ILL$
        33 000057   100000 440100                    SXL0    0,,PR1

  15724 33 000060   000006 471400 0                  LDP1    @LOP$
        33 000061   100000 236100                    LDQ     0,,PR1
        33 000062   000000 473400 15                 LDP3    ILL$
        33 000063   300001 756100                    STQ     1,,PR3

  15725 33 000064   000010 474400 0                  LDP4    @ROP$
        33 000065   400000 236100                    LDQ     0,,PR4
        33 000066   300002 756100                    STQ     2,,PR3

       90    15877
       91    15878    2     END USE_PROC_INIT;

  15878 33 000067   000005 221200 0                  LDX1  ! J+1
        33 000070   000001 702211                    TSX2  ! 1,X1

       92    15879        %EJECT ;
PL6.E3A0      #001=Z8EW$WRAPUP File=Z8EW.:Z8A6TSI                                SAT 08/09/97 12:51 Page:18
       93    15880
       94    15881    1     CREATE_LABEL_PROC_TABLE: PROC (FILE$, PTR_ARRAY$);

  15881 33 000071   000011 741200 0     CREATE_LABE* STX1  ! @ROP$+1

       95    15882
       96    15883    2       DCL FILE$          PTR;
       97    15884    2       DCL PTR_ARRAY$     PTR;
       98    15885    2       DCL ST$$           PTR;
       99    15886    2       DCL I              SBIN WORD;
      100    15887
      101    15888
      102    15889    2       CALL Z8AT$CREATE_TEMPORARY (%SCALAR, ST$$);

  15889 33 000072   000015 630400 34                 EPPR0   13
        33 000073   000011 631400 34                 EPPR1   9
        33 000074   000000 701000 xent               TSX1    Z8AT$CREATE_TEMPORARY
        33 000075   000000 011000                    NOP     0

      103    15890
      104    15891    2       ST$$ -> SCALAR.TYPE = %TYA;

  15891 33 000076   000010 220003                    LDX0    8,DU
        33 000077   000014 470400 0                  LDP0    ST$$
        33 000100   000002 740100                    STX0    2,,PR0

      105    15892    2       ST$$ -> SCALAR.ADSC.N = 96;   /* 24 words */

  15892 33 000101   000014 470400 0                  LDP0    ST$$
        33 000102   000140 236007                    LDQ     96,DL
        33 000103   000001 752103                    STCQ    1,'03'O,PR0

      106    15893    2       ST$$ -> SCALAR.B.CLASS = %CLASS_ALPHANUMERIC;

  15893 33 000104   000014 470400 0                  LDP0    ST$$
        33 000105   000003 236100                    LDQ     3,,PR0
        33 000106   000017 376000 34                 ANQ     15
PL6.E3A0      #001=Z8EW$WRAPUP File=Z8EW.:Z8A6TSI                                SAT 08/09/97 12:51 Page:19
        33 000107   000003 276007                    ORQ     3,DL
        33 000110   000003 756100                    STQ     3,,PR0

      107    15894
      108    15895    3       DO I = 0 TO %USER_LABEL_PROC_TABLE_SIZE - 1;

  15895 33 000111   000015 450000 0                  STZ     I
        33 000112   000125 710000 33                 TRA     s:15900+1

      109    15896
      110    15897    3         CALL USE_PROC_INIT (ST$$, I,

  15897 33 000113   000013 470400 0                  LDP0    @PTR_ARRAY$
        33 000114   000000 471500                    LDP1    0,,PR0
        33 000115   000015 720000 0                  LXL0    I
        33 000116   100002 633510                    EPPR3   2,X0,PR1
        33 000117   000010 453400 0                  STP3    @ROP$
        33 000120   000020 237000 34                 LDAQ    16
        33 000121   000006 757000 0                  STAQ    @LOP$
        33 000122   000002 701000 33                 TSX1    USE_PROC_INIT
        33 000123   000000 011000                    NOP     0

      111    15898    3                             PTR_ARRAY$ -> LTS_PTR_ARRAY.P$ (I));
      112    15899
      113    15900    3       END; /* DO I = .. */

  15900 33 000124   000015 054000 0                  AOS     I
        33 000125   000015 235000 0                  LDA     I
        33 000126   000027 115007                    CMPA    23,DL
        33 000127   000113 604400 33                 TMOZ    s:15897

      114    15901
      115    15902    2       FILE$ -> FILE_LTS.LABEL_EXIT$ = ST$$;

  15902 33 000130   000012 470400 0                  LDP0    @FILE$
        33 000131   000000 471500                    LDP1    0,,PR0
        33 000132   000014 236000 0                  LDQ     ST$$
PL6.E3A0      #001=Z8EW$WRAPUP File=Z8EW.:Z8A6TSI                                SAT 08/09/97 12:51 Page:20
        33 000133   100056 756100                    STQ     46,,PR1

      116    15903
      117    15904    2     END CREATE_LABEL_PROC_TABLE;

  15904 33 000134   000011 221200 0                  LDX1  ! @ROP$+1
        33 000135   000001 702211                    TSX2  ! 1,X1

      118    15905        %EJECT;
PL6.E3A0      #001=Z8EW$WRAPUP File=Z8EW.:Z8A6TSI                                SAT 08/09/97 12:51 Page:21
      119    15906
      120    15907
      121    15908
      122    15909        /* Set up a ENTADDR(NIL) constant for use by USE PRESET */
      123    15910    1   MKCN.CON = EPTR_NIL;

  15910 33 000136   000000 235000 32                 LDA     EPTR_NIL_VAL
        33 000137   000000 755000 31                 STA     MKCN

      124    15911    1   CALL Z8AC$MAKE_CONST(EPTR_NIL_CONST$);

  15911 33 000140   000023 630400 34                 EPPR0   19
        33 000141   000022 631400 34                 EPPR1   18
        33 000142   000000 701000 xent               TSX1    Z8AC$MAKE_CONST
        33 000143   000000 011000                    NOP     0

      125    15912    1   EPTR_NIL_CONST$ = EPTR_NIL_CONST$ -> ETT.LOP;

  15912 33 000144   000001 470400 0                  LDP0    EPTR_NIL_CONST$
        33 000145   000001 236100                    LDQ     1,,PR0
        33 000146   000001 756000 0                  STQ     EPTR_NIL_CONST$

      126    15913
      127    15914
      128    15915
      129    15916        /* Release all heap space */
      130    15917    1   CALL Z8EL$HANDLE_LEVEL_CHANGE (0);

  15917 33 000147   000006 630400 34                 EPPR0   6
        33 000150   000022 631400 34                 EPPR1   18
        33 000151   000000 701000 xent               TSX1    Z8EL$HANDLE_LEVEL_CHANGE
        33 000152   000000 011000                    NOP     0

      131    15918    1   CALL Z8EL$DELETE_REPLACE_LEVEL (0);

  15918 33 000153   000006 630400 34                 EPPR0   6
        33 000154   000022 631400 34                 EPPR1   18
PL6.E3A0      #001=Z8EW$WRAPUP File=Z8EW.:Z8A6TSI                                SAT 08/09/97 12:51 Page:22
        33 000155   000000 701000 xent               TSX1    Z8EL$DELETE_REPLACE_LEVEL
        33 000156   000000 011000                    NOP     0

      132    15919    1   CURRENT_BUFFER$ = ADDR(NIL);  /* Show no more source lines */

  15919 33 000157   000024 236000 34                 LDQ     20
        33 000160   000000 756000 7                  STQ     CURRENT_BUFFER$

      133    15920
      134    15921    1   CALL Z8EL$DUMP_USED_LINES;

  15921 33 000161   000000 631400 34                 EPPR1   0
        33 000162   000000 701000 xent               TSX1    Z8EL$DUMP_USED_LINES
        33 000163   000000 011000                    NOP     0

      135    15922
      136    15923        /* Release line buffers */
      137    15924    2   DO WHILE LINE_LIST$ ~= ADDR(NIL);

  15924 33 000164   000176 710000 33                 TRA     s:15928

      138    15925    2     HEAP$ = LINE_LIST$;

  15925 33 000165   000000 236000 10                 LDQ     LINE_LIST$
        33 000166   000000 756000 22                 STQ     HEAP$

      139    15926    2     LINE_LIST$ = LINE_LIST$ -> FILL_BUFFER.NEXT$;

  15926 33 000167   000000 470400 10                 LDP0    LINE_LIST$
        33 000170   000002 236100                    LDQ     2,,PR0
        33 000171   000000 756000 10                 STQ     LINE_LIST$

      140    15927    2     CALL Z8ED$DISPOSE_HEAP(HEAP$, %MAX_INPUT_BUFFER_LEN);

  15927 33 000172   000026 630400 34                 EPPR0   22
        33 000173   000011 631400 34                 EPPR1   9
        33 000174   000000 701000 xent               TSX1    Z8ED$DISPOSE_HEAP
PL6.E3A0      #001=Z8EW$WRAPUP File=Z8EW.:Z8A6TSI                                SAT 08/09/97 12:51 Page:23
        33 000175   000000 011000                    NOP     0

      141    15928    2   END;

  15928 33 000176   000000 236000 10                 LDQ     LINE_LIST$
        33 000177   000024 116000 34                 CMPQ    20
        33 000200   000165 601000 33                 TNZ     s:15925

      142    15929
      143    15930        /* Release value is info from condition names */
      144    15931    2   DO WHILE O1COM.CONDITION$ ~= ADDR(NIL);

  15931 33 000201   000214 710000 33                 TRA     s:15935

      145    15932    2     CALL Z8ED$DISPOSE_ABSSYN_TREE (O1COM.CONDITION$ ->

  15932 33 000202   000027 236000 xsym               LDQ     O1COM+23
        33 000203   000005 036003                    ADLQ    5,DU
        33 000204   000016 756000 0                  STQ     I+1
        33 000205   000016 630400 0                  EPPR0   I+1
        33 000206   000022 631400 34                 EPPR1   18
        33 000207   000000 701000 xent               TSX1    Z8ED$DISPOSE_ABSSYN_TREE
        33 000210   000000 011000                    NOP     0

      146    15933    2                                       CONDITION.VALUE_LIST$);
      147    15934    2     O1COM.CONDITION$ = O1COM.CONDITION$ -> CONDITION.NEXT_CONDITION$;

  15934 33 000211   000027 470400 xsym               LDP0    O1COM+23
        33 000212   000001 236100                    LDQ     1,,PR0
        33 000213   000027 756000 xsym               STQ     O1COM+23

      148    15935    2   END;

  15935 33 000214   000027 236000 xsym               LDQ     O1COM+23
        33 000215   000024 116000 34                 CMPQ    20
        33 000216   000202 601000 33                 TNZ     s:15932

PL6.E3A0      #001=Z8EW$WRAPUP File=Z8EW.:Z8A6TSI                                SAT 08/09/97 12:51 Page:24
      149    15936
      150    15937        /* Close the file used by phase 1 */
      151    15938    1   CALL Z8AA$CLOSE_SOURCE_FILE;

  15938 33 000217   000000 631400 34                 EPPR1   0
        33 000220   000000 701000 xent               TSX1    Z8AA$CLOSE_SOURCE_FILE
        33 000221   000000 011000                    NOP     0

      152    15939    1   CALL Z8AA$POSITION_ES_OUT;

  15939 33 000222   000000 631400 34                 EPPR1   0
        33 000223   000000 701000 xent               TSX1    Z8AA$POSITION_ES_OUT
        33 000224   000000 011000                    NOP     0

      153    15940
      154    15941        /* Set the number of source lines;  current line - 1, since
      155    15942           the end of file is counted as one in order to flush buffers. */
      156    15943    1   COMCOM.LINES.SOURCE = COMCOM.CURRENT.LINE - 1;

  15943 33 000225   000133 235000 xsym               LDA     COMCOM+91
        33 000226   000001 135007                    SBLA    1,DL
        33 000227   000131 755000 xsym               STA     COMCOM+89

      157    15944
      158    15945    1    L$ = O1COM.OPEN_LTS$;

  15945 33 000230   000124 236000 xsym               LDQ     O1COM+84
        33 000231   000002 756000 0                  STQ     L$

      159    15946    2    DO WHILE L$ ~= ADDR(NIL);

  15946 33 000232   000242 710000 33                 TRA     s:15950

      160    15947
      161    15948    2       CALL Z9EW$OPEN_WRAPUP(L$);

  15948 33 000233   000030 630400 34                 EPPR0   24
PL6.E3A0      #001=Z8EW$WRAPUP File=Z8EW.:Z8A6TSI                                SAT 08/09/97 12:51 Page:25
        33 000234   000022 631400 34                 EPPR1   18
        33 000235   000000 701000 xent               TSX1    Z9EW$OPEN_WRAPUP
        33 000236   000000 011000                    NOP     0

      162    15949    2       L$ = L$ -> OPEN_LTS.LINK;

  15949 33 000237   000002 470400 0                  LDP0    L$
        33 000240   000005 236100                    LDQ     5,,PR0
        33 000241   000002 756000 0                  STQ     L$

      163    15950    2    END;

  15950 33 000242   000024 116000 34                 CMPQ    20
        33 000243   000233 601000 33                 TNZ     s:15948

      164    15951
      165    15952        /* Finish the file FAB presets for USE procs */
      166    15953
      167    15954    1   L$ = COMCOM.FILE_LTS_CHAIN$;

  15954 33 000244   000434 236000 xsym               LDQ     COMCOM+284
        33 000245   000002 756000 0                  STQ     L$

      168    15955
      169    15956    2   DO WHILE L$ ~= ADDR(NIL);

  15956 33 000246   000300 710000 33                 TRA     s:15969

      170    15957
      171    15958    2     IF L$ -> FILE_LTS.ST$ -> ST.ID = %FD THEN

  15958 33 000247   000002 470400 0                  LDP0    L$
        33 000250   000001 471500                    LDP1    1,,PR0
        33 000251   100000 220100                    LDX0    0,,PR1
        33 000252   001002 100003                    CMPX0   514,DU
        33 000253   000275 601000 33                 TNZ     s:15968

PL6.E3A0      #001=Z8EW$WRAPUP File=Z8EW.:Z8A6TSI                                SAT 08/09/97 12:51 Page:26
      172    15959    3       DO;

      173    15960    3         IF L$ -> FILE_LTS.LABEL_EXIT$ ~= ADDR(NIL) AND

  15960 33 000254   000056 236100                    LDQ     46,,PR0
        33 000255   000024 116000 34                 CMPQ    20
        33 000256   000271 600000 33                 TZE     s:15964
        33 000257   000056 473500                    LDP3    46,,PR0
        33 000260   300000 221100                    LDX1    0,,PR3
        33 000261   001122 101003                    CMPX1   594,DU
        33 000262   000271 601000 33                 TNZ     s:15964

      174    15961    3            L$ -> FILE_LTS.LABEL_EXIT$ -> LTS.ID = %LTS_PTR_ARRAY THEN
      175    15962    3           CALL CREATE_LABEL_PROC_TABLE (L$, L$ -> FILE_LTS.LABEL_EXIT$);

  15962 33 000263   000002 236000 0                  LDQ     L$
        33 000264   000056 036003                    ADLQ    46,DU
        33 000265   000030 235000 34                 LDA     24
        33 000266   000012 757000 0                  STAQ    @ROP$+2
        33 000267   000071 701000 33                 TSX1    CREATE_LABEL_PROC_TABLE
        33 000270   000000 011000                    NOP     0

      176    15963
      177    15964    3         CALL Z9EW$IO_INTERFACE( L$ );

  15964 33 000271   000030 630400 34                 EPPR0   24
        33 000272   000022 631400 34                 EPPR1   18
        33 000273   000000 701000 xent               TSX1    Z9EW$IO_INTERFACE
        33 000274   000000 011000                    NOP     0

      178    15965
      179    15966    3       END;

      180    15967
      181    15968    2     L$ = L$ -> FILE_LTS.FILE_LTS_CHAIN$;

  15968 33 000275   000002 470400 0                  LDP0    L$
PL6.E3A0      #001=Z8EW$WRAPUP File=Z8EW.:Z8A6TSI                                SAT 08/09/97 12:51 Page:27
        33 000276   000003 236100                    LDQ     3,,PR0
        33 000277   000002 756000 0                  STQ     L$

      182    15969    2   END;

  15969 33 000300   000024 116000 34                 CMPQ    20
        33 000301   000247 601000 33                 TNZ     s:15958

      183    15970
      184    15971    1   IF COMCOM.USE_BLOCK_ST$ ~= ADDR(NIL) THEN

  15971 33 000302   000443 236000 xsym               LDQ     COMCOM+291
        33 000303   000024 116000 34                 CMPQ    20
        33 000304   000345 600000 33                 TZE     s:15989

      185    15972    2     DO;

      186    15973    2       CALL USE_PROC_INIT (COMCOM.USE_BLOCK_ST$,

  15973 33 000305   000136 470400 xsym               LDP0    COMCOM+94
        33 000306   000001 471500                    LDP1    1,,PR0
        33 000307   100025 633500                    EPPR3   21,,PR1
        33 000310   000010 453400 0                  STP3    @OFFSET+1
        33 000311   000032 237000 34                 LDAQ    26
        33 000312   000006 757000 0                  STAQ    J+2
        33 000313   000002 701000 33                 TSX1    USE_PROC_INIT
        33 000314   000000 011000                    NOP     0

      187    15974    2                           0,
      188    15975    2                           COMCOM.FIRST_PROC$ -> PROC_.PROC_SUPP$ -> PROC_SUPP.
             15975                                    USE_INPUT_LABEL$);
      189    15976
      190    15977    2       CALL USE_PROC_INIT (COMCOM.USE_BLOCK_ST$,

  15977 33 000315   000136 470400 xsym               LDP0    COMCOM+94
        33 000316   000001 471500                    LDP1    1,,PR0
        33 000317   100026 633500                    EPPR3   22,,PR1
PL6.E3A0      #001=Z8EW$WRAPUP File=Z8EW.:Z8A6TSI                                SAT 08/09/97 12:51 Page:28
        33 000320   000010 453400 0                  STP3    @OFFSET+1
        33 000321   000036 237000 34                 LDAQ    30
        33 000322   000006 757000 0                  STAQ    J+2
        33 000323   000002 701000 33                 TSX1    USE_PROC_INIT
        33 000324   000000 011000                    NOP     0

      191    15978    2                           1,
      192    15979    2                           COMCOM.FIRST_PROC$ -> PROC_.PROC_SUPP$ -> PROC_SUPP.
             15979                                    USE_OUTPUT_LABEL$);
      193    15980
      194    15981    2       CALL USE_PROC_INIT (COMCOM.USE_BLOCK_ST$,

  15981 33 000325   000136 470400 xsym               LDP0    COMCOM+94
        33 000326   000001 471500                    LDP1    1,,PR0
        33 000327   100027 633500                    EPPR3   23,,PR1
        33 000330   000010 453400 0                  STP3    @OFFSET+1
        33 000331   000040 237000 34                 LDAQ    32
        33 000332   000006 757000 0                  STAQ    J+2
        33 000333   000002 701000 33                 TSX1    USE_PROC_INIT
        33 000334   000000 011000                    NOP     0

      195    15982    2                           2,
      196    15983    2                           COMCOM.FIRST_PROC$ -> PROC_.PROC_SUPP$ -> PROC_SUPP.
             15983                                    USE_IO_LABEL$);
      197    15984
      198    15985    2       CALL USE_PROC_INIT (COMCOM.USE_BLOCK_ST$,

  15985 33 000335   000136 470400 xsym               LDP0    COMCOM+94
        33 000336   000001 471500                    LDP1    1,,PR0
        33 000337   100030 633500                    EPPR3   24,,PR1
        33 000340   000010 453400 0                  STP3    @OFFSET+1
        33 000341   000044 237000 34                 LDAQ    36
        33 000342   000006 757000 0                  STAQ    J+2
        33 000343   000002 701000 33                 TSX1    USE_PROC_INIT
        33 000344   000000 011000                    NOP     0

      199    15986    2                           3,
PL6.E3A0      #001=Z8EW$WRAPUP File=Z8EW.:Z8A6TSI                                SAT 08/09/97 12:51 Page:29
      200    15987    2                           COMCOM.FIRST_PROC$ -> PROC_.PROC_SUPP$ -> PROC_SUPP.
             15987                                    USE_EXTEND_LABEL$);
      201    15988    2     END;

      202    15989    1   IF COMCOM.OB.FIPS.LEVEL >= %INT_LEV AND O1COM.ID_DIV_COUNT > 1 THEN

  15989 33 000345   000036 720000 xsym               LXL0    COMCOM+30
        33 000346   000002 100003                    CMPX0   2,DU
        33 000347   000405 604000 33                 TMI     s:16012
        33 000350   000116 235000 xsym               LDA     O1COM+78
        33 000351   000001 115007                    CMPA    1,DL
        33 000352   000405 604400 33                 TMOZ    s:16012

      203    15990    2     DO;

      204    15991    2       L$ = COMCOM.USE_PROC_CHAIN$;

  15991 33 000353   000476 236000 xsym               LDQ     COMCOM+318
        33 000354   000002 756000 0                  STQ     L$

      205    15992    3       DO WHILE L$ ~= ADDR(NIL);

  15992 33 000355   000403 710000 33                 TRA     s:16006

      206    15993    3         IF L$ -> USE.TYPE ~= %USE_TYPE_NIL THEN

  15993 33 000356   000002 470400 0                  LDP0    L$
        33 000357   000000 720100                    LXL0    0,,PR0
        33 000360   000010 100003                    CMPX0   8,DU
        33 000361   000400 600000 33                 TZE     s:16005

      207    15994    4           IF NOT L$ -> USE.PROC_LABEL$ -> SECTION.B.USE_ALREADY_FLAGGED THEN DO;

  15994 33 000362   000002 471500                    LDP1    2,,PR0
        33 000363   100003 236100                    LDQ     3,,PR1
        33 000364   002000 316007                    CANQ    1024,DL
        33 000365   000400 601000 33                 TNZ     s:16005
PL6.E3A0      #001=Z8EW$WRAPUP File=Z8EW.:Z8A6TSI                                SAT 08/09/97 12:51 Page:30

      208    15995    4             I = L$ -> USE.LINE;

  15995 33 000366   000020 236100                    LDQ     16,,PR0
        33 000367   000022 772000                    QRL     18
        33 000370   000003 756000 0                  STQ     I

      209    15996    4             J = L$ -> USE.COLUMN;

  15996 33 000371   000020 236100                    LDQ     16,,PR0
        33 000372   777777 376007                    ANQ     -1,DL
        33 000373   000004 756000 0                  STQ     J

      210    15997                  /* GLOBAL USE already flagged, but it may have multiple entries
      211    15998                     in this chain. Local USE procs have only one each. Local USE
      212    15999                     has already been flagged if applies to more than one file
      213    16000                     or if USE ... EXTEND. */
      214    16001    4             CALL Z8AE$ERROR (%E$LEVEL_CHECK,

  16001 33 000374   000047 630400 34                 EPPR0   39
        33 000375   000043 631400 34                 EPPR1   35
        33 000376   000000 701000 xent               TSX1    Z8AE$ERROR
        33 000377   000000 011000                    NOP     0

      215    16002    4                              I,
      216    16003    4                              J);
      217    16004    4           END;

      218    16005    3         L$ = L$ -> USE.PROC_CHAIN$;

  16005 33 000400   000002 470400 0                  LDP0    L$
        33 000401   000001 236100                    LDQ     1,,PR0
        33 000402   000002 756000 0                  STQ     L$

      219    16006    3       END; /* WHILE */

  16006 33 000403   000024 116000 34                 CMPQ    20
PL6.E3A0      #001=Z8EW$WRAPUP File=Z8EW.:Z8A6TSI                                SAT 08/09/97 12:51 Page:31
        33 000404   000356 601000 33                 TNZ     s:15993

      220    16007    2     END;

      221    16008
      222    16009        /* Create the CSIB for the internal and external programs
      223    16010           after all the phase 1 mess is complete. */
      224    16011
      225    16012    1   CALL Z8E8$CSIB;

  16012 33 000405   000000 631400 34                 EPPR1   0
        33 000406   000000 701000 xent               TSX1    Z8E8$CSIB
        33 000407   000000 011000                    NOP     0

      226    16013
      227    16014
      228    16015        /*V*
      229    16016            CREATE_PROG_END -- The END statement for the program is created.  It is
      230    16017                               created here so that the end statement is set up for
      231    16018                               all programs.  Phase 2,3 and 4 depend on this statment
      232    16019                               being in the linked list.
      233    16020        */
      234    16021
      235    16022    1   O1COM.LINE_NO = COMCOM.CURRENT.LINE;  /* Set O1COM.LINE_NO so that */

  16022 33 000410   000133 235000 xsym               LDA     COMCOM+91
        33 000411   000007 755000 xsym               STA     O1COM+7

      236    16023    1   O1COM.COLUMN_NO = 0;                  /* LINOI will be correct     */

  16023 33 000412   000010 450000 xsym               STZ     O1COM+8

      237    16024
      238    16025
      239    16026        %NEW_ILL (@ID = %END);

  16370 33 000413   000003 236000 34                 LDQ     3
PL6.E3A0      #001=Z8EW$WRAPUP File=Z8EW.:Z8A6TSI                                SAT 08/09/97 12:51 Page:32
        33 000414   000016 756000 0                  STQ     I+1
        33 000415   000016 630400 0                  EPPR0   I+1
        33 000416   000023 450400 0                  STP0    I+6
        33 000417   000004 236000 34                 LDQ     4
        33 000420   000022 756000 0                  STQ     I+5
        33 000421   000054 237000 34                 LDAQ    44
        33 000422   000020 757000 0                  STAQ    I+3
        33 000423   000020 630400 0                  EPPR0   I+3
        33 000424   000001 631400 34                 EPPR1   1
        33 000425   000000 701000 xent               TSX1    Z8AN$NEW_ILL
        33 000426   000000 011000                    NOP     0

      240    16405
      241    16406
      242    16407        /* Set head of list for later phases */
      243    16408
      244    16409    1   COMCOM.FIRST_ILS = ADDR(O1COM.ILS_LIST) -> ILS_LIST.HEAD$;

  16409 33 000427   000017 236000 xsym               LDQ     O1COM+15
        33 000430   000010 756000 xsym               STQ     COMCOM+8

      245    16410
      246    16411        /* Check that Phase 1 heap was returned, then free space */
      247    16412    1   IF HEAP_WORDS_ALLOCATED ~= 0 THEN

  16412 33 000431   000000 235000 20                 LDA     HEAP_WORDS_ALLOCATED
        33 000432   000437 600000 33                 TZE     s:16415

      248    16413    1     CALL Z8AE$ERROR(%E$HEAP_NOT_RETURNED);

  16413 33 000433   000056 630400 34                 EPPR0   46
        33 000434   000022 631400 34                 EPPR1   18
        33 000435   000000 701000 xent               TSX1    Z8AE$ERROR
        33 000436   000000 011000                    NOP     0

      249    16414
      250    16415    1   CALL Z8AR$FREER(ADDR(HEAP_));
PL6.E3A0      #001=Z8EW$WRAPUP File=Z8EW.:Z8A6TSI                                SAT 08/09/97 12:51 Page:33

  16415 33 000437   000057 236000 34                 LDQ     47
        33 000440   000016 756000 0                  STQ     I+1
        33 000441   000016 630400 0                  EPPR0   I+1
        33 000442   000017 450400 0                  STP0    I+2
        33 000443   000017 630400 0                  EPPR0   I+2
        33 000444   000022 631400 34                 EPPR1   18
        33 000445   000000 701000 xent               TSX1    Z8AR$FREER
        33 000446   000000 011000                    NOP     0

      251    16416
      252    16417
      253    16418    1   END Z8EW$WRAPUP ;

  16418 33 000447   000000 221200 0                  LDX1  ! 0
        33 000450   000001 702211                    TSX2  ! 1,X1

PL6.E3A0      #001=Z8EW$WRAPUP File=Z8EW.:Z8A6TSI                                SAT 08/09/97 12:51 Page:34
--  Include file information  --

   Z8A_MKCN.:Z8A6TOU  cannot be made into a system file and is referenced.
   Z8E_ILS_LIST.:Z8A6TOU  is referenced.
   Z8A_LTS.:Z8A6TOU  cannot be made into a system file and is referenced.
   Z8A_ETT.:Z8A6TOU  cannot be made into a system file and is referenced.
   Z8A_ST.:Z8A6TOU  cannot be made into a system file and is referenced.
   Z8A_ERR_NUMS.:Z8A6TOU  is referenced.
   Z8E_HEAPINFO.:Z8A6TOU  cannot be made into a system file and is referenced.
   Z8E_NEW_ILL.:Z8A6TOU  is referenced.
   Z8E_MACROS.:Z8A6TOU  cannot be made into a system file and is referenced.
   Z8A_ILS.:Z8A6TOU  cannot be made into a system file and is referenced.
   Z8A_ILL.:Z8A6TOU  cannot be made into a system file and is referenced.
   Z8E_BUFFERS.:Z8A6TOU  cannot be made into a system file and is referenced.
   Z8E_O1COM.:Z8A6TOU  cannot be made into a system file and is referenced.
   Z8A_LEX_SYMB.:Z8A6TOU  cannot be made into a system file and is referenced.
   Z8E_STACKS.:Z8A6TOU  cannot be made into a system file and is referenced.
   Z8A_TYPES.:Z8A6TOU  is referenced.
   Z8A_IO_EQUS.:Z8A6TOU  is referenced.
   Z8A_COMCOM.:Z8A6TOU  cannot be made into a system file and is referenced.
   X8A_COM_MACS.:X8A6TOU  is referenced.
   Z8A_NAMES.:Z8A6TOU  is referenced.
   Z8A_SUPP_MAC.:Z8A6TOU  is referenced.
   Z8A_DEFC.:Z8A6TOU  cannot be made into a system file and is referenced.
      No diagnostics issued in procedure Z8EW$WRAPUP.
PL6.E3A0      #001=Z8EW$WRAPUP File=Z8EW.:Z8A6TSI                                SAT 08/09/97 12:51 Page:35

 **** Variables and constants ****

  ****  Section 000  Data  Z8EW$WRAPUP

  ****  Scalars and arrays  ****
OctLoc.c.b A Datatyp(siz) R M Lvl/name                 OctLoc.c.b A Datatyp(siz) R M Lvl/name

    12-0-0/w PTR         r     1 @FILE$                     6-0-0/w PTR         r     1 @LOP$
     7-0-0/w PTR         r     1 @OFFSET                   13-0-0/w PTR         r     1 @PTR_ARRAY$
    10-0-0/w PTR         r     1 @ROP$                      1-0-0/w PTR         r     1 EPTR_NIL_CONST$
    *0-0-0/w PTR         r     1 FILE$                      3-0-0/w UBIN        r     1 I
    15-0-0/w SBIN        r     1 I                          4-0-0/w UBIN        r     1 J
     2-0-0/w PTR         r     1 L$                        *0-0-0/w PTR         r     1 LOP$
    *0-0-0/w SBIN        r     1 OFFSET                    *0-0-0/w PTR         r     1 PTR_ARRAY$
    *0-0-0/w PTR         r     1 ROP$                      *0-0-0/w EPTR        r     1 ROP_EPTR
    14-0-0/w PTR         r     1 ST$$

  ****  Section 001 LblCom ITERATION

  ****  Scalars and arrays  ****
OctLoc.c.b A Datatyp(siz) R M Lvl/name                 OctLoc.c.b A Datatyp(siz) R M Lvl/name

     0-0-0/w SBIN              1 ITERATION

  ****  Section 002 LblCom LEX_SYMBOL

  ****  Scalars and arrays  ****
OctLoc.c.b A Datatyp(siz) R M Lvl/name                 OctLoc.c.b A Datatyp(siz) R M Lvl/name

     0-0-0/w STRC(3240)  r     1 LEX_SYMBOL                 0-0-0/w STRC(3240)        1 LEX_SYMBOL_WORDS

  ****  Section 003 LblCom CURRENT_LEX_SYMBOL$

  ****  Scalars and arrays  ****
OctLoc.c.b A Datatyp(siz) R M Lvl/name                 OctLoc.c.b A Datatyp(siz) R M Lvl/name

     0-0-0/w PTR         r     1 CURRENT_LEX_SYMBOL$
PL6.E3A0      #001=Z8EW$WRAPUP File=Z8EW.:Z8A6TSI                                SAT 08/09/97 12:51 Page:36

  ****  Section 004 LblCom TEMP_LEX_SYMBOL

  ****  Scalars and arrays  ****
OctLoc.c.b A Datatyp(siz) R M Lvl/name                 OctLoc.c.b A Datatyp(siz) R M Lvl/name

     0-0-0/w STRC(3240)        1 TEMP_LEX_SYMBOL

  ****  Section 005 LblCom TEMP_LEX_SYMBOL2

  ****  Scalars and arrays  ****
OctLoc.c.b A Datatyp(siz) R M Lvl/name                 OctLoc.c.b A Datatyp(siz) R M Lvl/name

     0-0-0/w STRC(3240)        1 TEMP_LEX_SYMBOL2

  ****  Section 006 LblCom SCANNER_STATE

  ****  Scalars and arrays  ****
OctLoc.c.b A Datatyp(siz) R M Lvl/name                 OctLoc.c.b A Datatyp(siz) R M Lvl/name

     0-0-0/w SBIN              1 SCANNER_STATE

  ****  Section 007 LblCom CURRENT_BUFFER$

  ****  Scalars and arrays  ****
OctLoc.c.b A Datatyp(siz) R M Lvl/name                 OctLoc.c.b A Datatyp(siz) R M Lvl/name

     0-0-0/w PTR         r     1 CURRENT_BUFFER$

  ****  Section 008 LblCom LOOKAHEAD_BUFFER$

  ****  Scalars and arrays  ****
OctLoc.c.b A Datatyp(siz) R M Lvl/name                 OctLoc.c.b A Datatyp(siz) R M Lvl/name

     0-0-0/w PTR         r     1 LOOKAHEAD_BUFFER$

  ****  Section 009 LblCom CURRENT_LINE_LEVEL
PL6.E3A0      #001=Z8EW$WRAPUP File=Z8EW.:Z8A6TSI                                SAT 08/09/97 12:51 Page:37

  ****  Scalars and arrays  ****
OctLoc.c.b A Datatyp(siz) R M Lvl/name                 OctLoc.c.b A Datatyp(siz) R M Lvl/name

     0-0-0/w SBIN              1 CURRENT_LINE_LEVEL

  ****  Section 010 LblCom LINE_LIST$

  ****  Scalars and arrays  ****
OctLoc.c.b A Datatyp(siz) R M Lvl/name                 OctLoc.c.b A Datatyp(siz) R M Lvl/name

     0-0-0/w PTR         r     1 LINE_LIST$

  ****  Section 011 LblCom BUFFER

  ****  Scalars and arrays  ****
OctLoc.c.b A Datatyp(siz) R M Lvl/name                 OctLoc.c.b A Datatyp(siz) R M Lvl/name

     0-0-0/w STRC(252)   r     1 BUFFER

  ****  Section 012 LblCom ORIGINAL_ISN

  ****  Scalars and arrays  ****
OctLoc.c.b A Datatyp(siz) R M Lvl/name                 OctLoc.c.b A Datatyp(siz) R M Lvl/name

     0-0-0/w SBIN              1 ORIGINAL_ISN

  ****  Section 013 LblCom EXPANDED_ISN

  ****  Scalars and arrays  ****
OctLoc.c.b A Datatyp(siz) R M Lvl/name                 OctLoc.c.b A Datatyp(siz) R M Lvl/name

     0-0-0/w SBIN              1 EXPANDED_ISN

  ****  Section 014 LblCom ISN_FOR_EXP_SRC

  ****  Scalars and arrays  ****
PL6.E3A0      #001=Z8EW$WRAPUP File=Z8EW.:Z8A6TSI                                SAT 08/09/97 12:51 Page:38
OctLoc.c.b A Datatyp(siz) R M Lvl/name                 OctLoc.c.b A Datatyp(siz) R M Lvl/name

     0-0-0/w SBIN              1 ISN_FOR_EXP_SRC

  ****  Section 015 LblCom ILL$

  ****  Scalars and arrays  ****
OctLoc.c.b A Datatyp(siz) R M Lvl/name                 OctLoc.c.b A Datatyp(siz) R M Lvl/name

     0-0-0/w PTR         r     1 ILL$

  ****  Section 016 LblCom ILL_

  ****  Scalars and arrays  ****
OctLoc.c.b A Datatyp(siz) R M Lvl/name                 OctLoc.c.b A Datatyp(siz) R M Lvl/name

     0-0-0/w STRC(180)         1 ILL_

  ****  Section 017 LblCom ILS$

  ****  Scalars and arrays  ****
OctLoc.c.b A Datatyp(siz) R M Lvl/name                 OctLoc.c.b A Datatyp(siz) R M Lvl/name

     0-0-0/w PTR         r     1 ILS$

  ****  Section 018 LblCom ILS_

  ****  Scalars and arrays  ****
OctLoc.c.b A Datatyp(siz) R M Lvl/name                 OctLoc.c.b A Datatyp(siz) R M Lvl/name

     0-0-0/w STRC(180)         1 ILS_

  ****  Section 019 LblCom HEAP_POOL

  ****  Scalars and arrays  ****
OctLoc.c.b A Datatyp(siz) R M Lvl/name                 OctLoc.c.b A Datatyp(siz) R M Lvl/name

PL6.E3A0      #001=Z8EW$WRAPUP File=Z8EW.:Z8A6TSI                                SAT 08/09/97 12:51 Page:39
     0-0-0/w PTR               1 HEAP_POOL(0:100)

  ****  Section 020 LblCom HEAP_WORDS_ALLOCATED

  ****  Scalars and arrays  ****
OctLoc.c.b A Datatyp(siz) R M Lvl/name                 OctLoc.c.b A Datatyp(siz) R M Lvl/name

     0-0-0/w SBIN        r     1 HEAP_WORDS_ALLOCATED

  ****  Section 021 LblCom HEAP_

  ****  Scalars and arrays  ****
OctLoc.c.b A Datatyp(siz) R M Lvl/name                 OctLoc.c.b A Datatyp(siz) R M Lvl/name

     0-0-0/w STRC(180)   r     1 HEAP_

  ****  Section 022 LblCom HEAP$

  ****  Scalars and arrays  ****
OctLoc.c.b A Datatyp(siz) R M Lvl/name                 OctLoc.c.b A Datatyp(siz) R M Lvl/name

     0-0-0/w PTR         r     1 HEAP$

  ****  Section 023 LblCom ST$

  ****  Scalars and arrays  ****
OctLoc.c.b A Datatyp(siz) R M Lvl/name                 OctLoc.c.b A Datatyp(siz) R M Lvl/name

     0-0-0/w PTR         r     1 ST$

  ****  Section 024 LblCom ST_

  ****  Scalars and arrays  ****
OctLoc.c.b A Datatyp(siz) R M Lvl/name                 OctLoc.c.b A Datatyp(siz) R M Lvl/name

     0-0-0/w STRC(180)         1 ST_

PL6.E3A0      #001=Z8EW$WRAPUP File=Z8EW.:Z8A6TSI                                SAT 08/09/97 12:51 Page:40
  ****  Section 025 LblCom ETT$

  ****  Scalars and arrays  ****
OctLoc.c.b A Datatyp(siz) R M Lvl/name                 OctLoc.c.b A Datatyp(siz) R M Lvl/name

     0-0-0/w PTR         r     1 ETT$

  ****  Section 026 LblCom HEAD_ETT$

  ****  Scalars and arrays  ****
OctLoc.c.b A Datatyp(siz) R M Lvl/name                 OctLoc.c.b A Datatyp(siz) R M Lvl/name

     0-0-0/w PTR               1 HEAD_ETT$

  ****  Section 027 LblCom ETT_BUCKETS

  ****  Scalars and arrays  ****
OctLoc.c.b A Datatyp(siz) R M Lvl/name                 OctLoc.c.b A Datatyp(siz) R M Lvl/name

     0-0-0/w PTR               1 ETT_BUCKETS(0:511)

  ****  Section 028 LblCom ETT_

  ****  Scalars and arrays  ****
OctLoc.c.b A Datatyp(siz) R M Lvl/name                 OctLoc.c.b A Datatyp(siz) R M Lvl/name

     0-0-0/w STRC(180)         1 ETT_

  ****  Section 029 LblCom LTS$

  ****  Scalars and arrays  ****
OctLoc.c.b A Datatyp(siz) R M Lvl/name                 OctLoc.c.b A Datatyp(siz) R M Lvl/name

     0-0-0/w PTR               1 LONG_ITEM$                 0-0-0/w PTR         r     1 LTS$

  ****  Section 030 LblCom LTS_

PL6.E3A0      #001=Z8EW$WRAPUP File=Z8EW.:Z8A6TSI                                SAT 08/09/97 12:51 Page:41
  ****  Scalars and arrays  ****
OctLoc.c.b A Datatyp(siz) R M Lvl/name                 OctLoc.c.b A Datatyp(siz) R M Lvl/name

     0-0-0/w STRC(180)         1 LTS_

  ****  Section 031 LblCom MKCN

  ****  Scalars and arrays  ****
OctLoc.c.b A Datatyp(siz) R M Lvl/name                 OctLoc.c.b A Datatyp(siz) R M Lvl/name

     0-0-0/w STRC(72)    r     1 MKCN

  ****  Section 032 RoData Z8EW$WRAPUP

  ****  Scalars and arrays  ****
OctLoc.c.b A Datatyp(siz) R M Lvl/name                 OctLoc.c.b A Datatyp(siz) R M Lvl/name

     0-0-0/w SBIN        r     1 EPTR_NIL                   0-0-0/w EPTR        r     1 EPTR_NIL_VAL

  ****  SYMREF variables  ****

  ****  Scalars and arrays  ****
OctLoc.c.b A Datatyp(siz) R M Lvl/name                 OctLoc.c.b A Datatyp(siz) R M Lvl/name

     0-0-0/d STRC(13248) r     1 COMCOM
     0-0-0/w STRC(180)         1 HIER_STK(0:50)
     0-0-0/w SBIN              1 HIER_STK_PTR               0-0-0/w UBIN              1 ILL_STEP(0:144)
     0-0-0/w UBIN              1 ILS_STEP_TABLE(0:2)
     0-0-0/w UBIN              1 LTS_STEP(0:37)
     0-0-0/d STRC(11580) r     1 O1COM                      0-0-0/w STRC(144)         1 PAGE_FORMAT
     0-0-0/w STRC(153)         1 REP_STK(0:50)              0-0-0/w SBIN              1 REP_STK_PTR

  ****  BASED and DCB variables  ****

  ****  Scalars and arrays  ****
OctLoc.c.b A Datatyp(siz) R M Lvl/name                 OctLoc.c.b A Datatyp(siz) R M Lvl/name

PL6.E3A0      #001=Z8EW$WRAPUP File=Z8EW.:Z8A6TSI                                SAT 08/09/97 12:51 Page:42
     0-0-0/w STRC(108)         1 ACCEPT_DISPLAY             0-0-0/w STRC(288)         1 ADD_STMT
     0-0-0/w STRC(396)         1 ALPHABET                   0-0-0/w STRC(144)         1 ALTER_LTS
     0-0-0/w STRC(3672)        1 ALT_KEY                    0-0-0/w STRC(36864)       1 ARGLIST
     0-0-0/w STRC(396)         1 ARRAY                      0-0-0/w STRC(180)         1 ARRAY_PRESET_LTS
     0-0-0/w ASTR(324)   r     1 BASED_LEX_SYMBOL
     0-0-0/w STRC(360)         1 BASED_LEX_SYMBOL_WORDS
     0-0-0/w STRC(288)         1 BASE_LTS                   0-0-0/w STRC(108)         1 BINARY_ILL
     0-0-0/w STRC(288)         1 BINARY_OP                  0-0-0/w STRC(396)         1 BLOCK
     0-0-0/w STRC(144)         1 BRANCH_ILL                 0-0-0/w STRC(144)         1 BT
     0-0-0/c ACHR              1 BUFFER_LINE                0-0-0/w STRC(288)         1 CALL_STMT
     0-0-0/w STRC(216)         1 CCOSU                      0-0-0/w STRC(396)         1 CD
     0-0-0/w STRC(288)         1 CD_LTS                     0-0-0/w CHAR(4096)        1 CHARS
     0-0-0/w STRC(396)         1 CLASS                      0-0-0/w STRC(108)         1 CODED_MOVE
     0-0-0/w STRC(288)         1 COMPUTE_STMT               0-0-0/w STRC(396)   r     1 CONDITION
     0-0-0/w STRC(396)         1 CONST                      0-0-0/w STRC(72)          1 CONT
     0-0-0/w STRC(540)         1 CONTROL_NAME_LTS           0-0-0/w STRC(1872)        1 COPY_FILE
     0-0-0/w STRC(396)         1 DB                         0-0-0/w STRC(396)         1 DCB_
     0-0-0/w STRC(288)         1 DEFERED_IDENTIFIER         0-0-0/w STRC(252)         1 DEFERED_ID_TREE
     0-0-0/w STRC(288)         1 DEFERED_QUAL_ID            0-0-0/w STRC(288)         1 DEFERED_SUM_CLAUSE
     0-0-0/w STRC(288)         1 DEFERED_SUM_CLAUSE_LIST
     0-0-0/w STRC(144)         1 DEFLB                      0-0-0/w STRC(288)         1 DELETE_STMT
     0-0-0/w STRC(108)         1 DEPENDING_SIZE             0-0-0/w STRC(5472)        1 DIMS
     0-0-0/w STRC(288)         1 DIVIDE_STMT                0-0-0/w STRC(396)         1 DML_ITEM
     0-0-0/w STRC(216)         1 DML_REC                    0-0-0/w STRC(144)         1 DOEND
     0-0-0/w STRC(396)         1 DO_N                       0-0-0/w STRC(180)         1 DV4I
     0-0-0/w STRC(180)         1 ENTRY_ILL                  0-0-0/w STRC(180)   r     1 ETT
     0-0-0/w STRC(108)         1 EVALU                      0-0-0/w STRC(73836)       1 EVALUATE
     0-0-0/w ASTR(396)   r     1 EXP_SRC_BUFF               0-0-0/w STRC(396)         1 FD
     0-0-0/w STRC(1692)  r     1 FILE_LTS                   0-0-0/w ASTR(396)   r     1 FILL_BUFFER
     0-0-0/w STRC(144)         1 GO                         0-0-0/w STRC(72)          1 HEAP_CELL
     0-0-0/w STRC(180)         1 ILL                        0-0-0/w STRC              1 ILL_NO_OPS
     0-0-0/w STRC(180)         1 ILS                        0-0-0/w STRC(288)   r     1 ILS_LIST
     0-0-0/w STRC(108)         1 INDEXES                    0-0-0/w STRC(360)         1 INIT_LTS
     0-0-0/w STRC(288)         1 INSPECT_1_STMT             0-0-0/w STRC(288)         1 INSPECT_2_STMT
     0-0-0/w STRC(288)         1 INSPECT_4_STMT             0-0-0/w STRC(396)         1 INTDEF
     0-0-0/w STRC(180)         1 IO_RESTORE_CHAIN           0-0-0/w STRC(144)         1 KEY
     0-0-0/w STRC(396)         1 LABEL                      0-0-0/w STRC(288)         1 LA_ITEM
PL6.E3A0      #001=Z8EW$WRAPUP File=Z8EW.:Z8A6TSI                                SAT 08/09/97 12:51 Page:43
     0-0-0/w STRC(36864)       1 LCNST                      0-0-0/w STRC(108)         1 LINOI
     0-0-0/w STRC(72)          1 LONG                       0-0-0/w STRC        r     1 LTS
     0-0-0/w STRC(360)         1 LTSS                       0-0-0/w STRC(36936) r     1 LTS_PTR_ARRAY
     0-0-0/w STRC(504)         1 LX_CD_INPUT                0-0-0/w STRC(324)         1 LX_CD_I_O
     0-0-0/w STRC(396)         1 LX_CD_OUTPUT               0-0-0/w STRC(288)         1 LX_ETT_ITEM
     0-0-0/w STRC(288)         1 LX_ITEM                    0-0-0/w STRC(288)         1 LX_LARGE
     0-0-0/w STRC(288)         1 LX_LIST                    0-0-0/w STRC(1224)        1 LX_REC_DECL
     0-0-0/w STRC(864)         1 LX_REPORT_REC              0-0-0/w STRC(288)         1 LX_TERMINAL
     0-0-0/w STRC(72)          1 MFILL                      0-0-0/w STRC(396)         1 MNEMONIC
     0-0-0/w STRC(288)         1 MULTIPLY_STMT              0-0-0/w STRC(180)         1 MULTI_GO
     0-0-0/w STRC(180)         1 MVEAL                      0-0-0/w STRC(108)         1 MVFIL
     0-0-0/w STRC(72)          1 MVIIS                      0-0-0/w STRC(144)         1 NEL
     0-0-0/w STRC(216)   r     1 OPEN_LTS                   0-0-0/w STRC(144)         1 OPN
     0-0-0/w STRC(180)         1 OS_CALL                    0-0-0/w STRC(36864)       1 PAGE
     0-0-0/w STRC(396)         1 PARA                       0-0-0/w STRC(216)         1 PFORM
     0-0-0/w STRC(144)         1 PINC                       0-0-0/w STRC(144)   r     1 PREOFF
     0-0-0/w STRC(108)   r     1 PRESET                     0-0-0/w STRC(144)         1 PRIME
     0-0-0/w STRC(396)   r     1 PROC_                      0-0-0/w STRC(396)         1 PROC_DEF
     0-0-0/w STRC(900)   r     1 PROC_SUPP                  0-0-0/w STRC(144)         1 P_A_PRESET
     0-0-0/w STRC(144)         1 P_P_PRESET                 0-0-0/w STRC(396)         1 RD
     0-0-0/w STRC(288)         1 READ_STMT                  0-0-0/w STRC(216)         1 REF
     0-0-0/w STRC(144)         1 REMEM                      0-0-0/w STRC(108)         1 RENAMES
     0-0-0/w STRC(720)         1 REPORT_01_LTS              0-0-0/w STRC(432)         1 REPORT_ELEM_LTS
     0-0-0/w STRC(252)         1 REPORT_GRP_LTS             0-0-0/w STRC(1332)        1 REPORT_LTS
     0-0-0/w STRC(288)         1 REWRITE_STMT               0-0-0/w STRC(144)         1 RVA_LTS
     0-0-0/w STRC(396)   r     1 SCALAR                     0-0-0/w STRC(144)         1 SCOPE
     0-0-0/w STRC(396)         1 SD                         0-0-0/w STRC(216)         1 SEARCH_
     0-0-0/w STRC(396)   r     1 SECTION                    0-0-0/w STRC(396)         1 SEGMENT
     0-0-0/w STRC(360)         1 SEGMENT_LTS                0-0-0/w STRC(396)   r     1 ST
     0-0-0/w STRC(288)         1 START_STMT                 0-0-0/w STRC(72)          1 STP2
     0-0-0/w STRC(252)         1 STRING_STMT                0-0-0/w STRC(288)         1 SUBTRACT_STMT
     0-0-0/w STRC(252)         1 SUM_LTS                    0-0-0/w STRC(396)         1 SWITCH
     0-0-0/w STRC(396)         1 SYMBOLIC_CHAR              0-0-0/w STRC(396)         1 SYMDEF_
     0-0-0/w STRC(396)         1 SYMREF_                    0-0-0/w STRC(396)         1 TEMP
     0-0-0/w STRC(144)         1 TRINARY_ILL                0-0-0/w STRC(72)          1 UNARY_ILL
     0-0-0/w STRC(288)         1 UNARY_OP                   0-0-0/w STRC(288)         1 UNSTRING_STMT
     0-0-0/d STRC(612)   r     1 USE                        0-0-0/w STRC(216)         1 USER_CALL
PL6.E3A0      #001=Z8EW$WRAPUP File=Z8EW.:Z8A6TSI                                SAT 08/09/97 12:51 Page:44
     0-0-0/w STRC(252)         1 USE_SUPP                   0-0-0/w STRC(108)         1 VAL
     0-0-0/w STRC(108)         1 VAL_END                    0-0-0/w STRC(396)         1 VARIABLE
     0-0-0/w STRC(72)          1 WHEN                       0-0-0/w STRC(288)         1 WRITE_STMT


   Procedure Z8EW$WRAPUP requires 297 words for executable code.
   Procedure Z8EW$WRAPUP is declared NOAUTO and requires 20 words of local(STATIC) storage.

    No errors detected in file Z8EW.:Z8A6TSI    .
