VERSION A06

PL6.E3A0      #001=Z8EX$SET_INDEX File=Z8EX.:Z8A6TSI                             SAT 08/09/97 12:54 Page:1
        1        1        /*T***********************************************************/
        2        2        /*T*                                                         */
        3        3        /*T* Copyright (c) Bull HN Information Systems Inc., 1997    */
        4        4        /*T*                                                         */
        5        5        /*T***********************************************************/
        6        6        Z8EX$SET_INDEX: PROC (REC$, SEND$) ;
        7        7        /*P*
        8        8               NAME: Z8EX$SET_INDEX,
        9        9                     Z8EX$SET_UP_BY,
       10       10                     Z8EX$SET_DOWN_BY
       11       11            PURPOSE: To generate the correct conversions and moves for the
       12       12                     INDEX data type
       13       13        */
       14       14
       15       15        %EQU PHASE = 1 ;
       16       16
       17       17
       18       18    1   DCL REC$          PTR ;
       19       19    1   DCL SEND$          PTR ;
       20       20
       21       21        %INCLUDE Z8A_DEFC ;
       22       89        %INCLUDE Z8A_SUPP_MAC ;
       23     2489        %INCLUDE Z8A_ILL ;
       24     3182        %INCLUDE Z8A_ETT ;
       25     3483        %INCLUDE Z8A_LTS ;
       26     5560        %INCLUDE Z8A_COMCOM ;
       27     6210        %INCLUDE Z8A_TYPES;
       28     6384        %INCLUDE Z8A_ST ;
       29    10043        %INCLUDE Z8A_ERR_NUMS ;
       30    10807        %INCLUDE Z8A_SRCH ;
       31    10856        %INCLUDE Z8A_ILS ;
       32    10965        %INCLUDE Z8E_STACKS ;
       33    13231        %INCLUDE Z8E_HEAP;
       34    13287        %INCLUDE Z8A_QLT;
       35    13393        %INCLUDE Z8E_O1COM ;
       36    14154        %INCLUDE Z8E_MACROS ;
       37    14829        %INCLUDE Z8E_WINDOW;
PL6.E3A0      #001=Z8EX$SET_INDEX File=Z8EX.:Z8A6TSI                             SAT 08/09/97 12:54 Page:2
       38    16899
       39    16900    1   DCL Z8AE$ERROR         ENTRY (12) ;
       40    16901    1   DCL Z8AC$LX_ETT_ITEM_TYI_CONST ENTRY(2);
       41    16902    1   DCL Z8E7$MOVE          ENTRY (2) ;
       42    16903    1   DCL Z8EU$CREATE_IDENTIFIER_FROM_ST ENTRY (4);
       43    16904    1   DCL Z8E5$MATH_PACK     ENTRY(2);
       44    16905    1   DCL Z8CO$CHECK_POS_INT_TERM ENTRY(1) ALTRET;
       45    16906    1   DCL Z8CO$INTEGER_CHECK ENTRY(1) ALTRET;
       46    16907    1   DCL Z8CO$CHECK_INTEGER_TERMINAL ENTRY(1) ALTRET;
       47    16908    1   DCL Z8AC$MAKE_TYA_CONST ENTRY(4);
       48    16909    1   DCL Z8EV$CONVERT ENTRY(3);
       49    16910    1   DCL Z8EY$SUBSCRIPT ENTRY(2);
       50    16911    1   DCL Z8AF$FORME ENTRY(4);
       51    16912
       52    16913    1   DCL EXPR_ID            UBIN WORD ;
       53    16914    1   DCL VAL_REC_COUNT      SBIN WORD ;                     /*#28761*/
       54    16915    1   DCL R$ PTR;
       55    16916    1   DCL VAL_REQUIRED BOOLEAN;
       56    16917    1   DCL VAL_TYA_REQUIRED BOOLEAN;
       57    16918    1   DCL VAL_SPAN_OCC_REQUIRED BOOLEAN;
       58    16919
       59    16920        %MACRO INDEX_INFO;
       60    16921
       61    16922          2 ST$        PTR,      /* to symbol table */
       62    16923          2 ARRAY$     PTR,      /* to symbol table or NIL */
       63    16924          2 TYA,
       64    16925            3 * (0:%(LENGTH_LX_ITEM - 1)) SBIN WORD,
       65    16926          2 OCC,
       66    16927            3 * (0:%(LENGTH_LX_ITEM - 1)) SBIN WORD,
       67    16928          2 SPAN_OCC,
       68    16929            3 * (0:%(LENGTH_LX_ITEM - 1)) SBIN WORD,
       69    16930          2 LINE SBIN WORD,
       70    16931          2 COLUMN SBIN WORD,
       71    16932          2 TYPE SBIN WORD,
       72    16933          2 INDEX_TYPE BOOLEAN,
       73    16934          2 SPAN       SBIN WORD;
       74    16935
PL6.E3A0      #001=Z8EX$SET_INDEX File=Z8EX.:Z8A6TSI                             SAT 08/09/97 12:54 Page:3
       75    16936        %MEND;
       76    16937
       77    16938        %DCL_AUTO_LX_ITEM (@NAME = REC_NODE);
       78    16942        %DCL_AUTO_LX_ITEM (@NAME = SEND_NODE);
       79    16946        %DCL_AUTO_LX_ITEM (@NAME = ADD_NODE);
       80    16950        %DCL_AUTO_LX_ITEM (@NAME = OCC_NODE);
       81    16954          %DCL_AUTO_LX_ITEM (@NAME = SPAN_OCC_NODE);
       82    16958          %DCL_AUTO_LX_ITEM (@NAME = REC_SPAN_NODE);
       83    16962          %DCL_AUTO_LX_ITEM (@NAME = MULT_NODE);
       84    16966          %DCL_AUTO_LX_ITEM (@NAME = ETT_NODE);
       85    16970          %DCL_AUTO_LX_ITEM (@NAME = ONE);
       86    16974
       87    16975
       88    16976    1   DCL 1 REC_INFO,
       89    16977              %INDEX_INFO;
       90    16992
       91    16993    1   DCL 1 SEND_INFO,
       92    16994               %INDEX_INFO;
       93    17009
       94    17010        %EJECT;
PL6.E3A0      #001=Z8EX$SET_INDEX File=Z8EX.:Z8A6TSI                             SAT 08/09/97 12:54 Page:4
       95    17011    1   SET_INDEX_FROM_OCC : PROC (OCC$);
       96    17012
       97    17013    2     DCL OCC$ PTR;  /* to LX_ITEM */
       98    17014
       99    17015    2     DCL 1 LDAQSTAQ,
      100    17016    2           2 WORD1 SBIN,
      101    17017    2           2 WORD2 SBIN;
      102    17018    2     DCL 1 CHAR_LDAQSTAQ REDEF LDAQSTAQ CHAR(8);
      103    17019
      104    17020
      105    17021          /* Semantic checks for SET_INDEX_FROM_OCC:
      106    17022                  Identifier must be integer;
      107    17023                  Number must be integer (possibly signed, although
      108    17024                                          sign must be positive)
      109    17025          */
      110    17026    3     DO SELECT (OCC$ -> LX_ITEM.ID);
      111    17027
      112    17028    3       SELECT(%LX_TERMINAL);
      113    17029    3         CALL Z8CO$CHECK_POS_INT_TERM (OCC$)
      114    17030    3           WHENALTRETURN
      115    17031    4             DO;
      116    17032                    %CONDITIONAL_ERROR (@LX_ITEM$ = OCC$,
      117    17033                                        @ERROR# = %E$POSITIVE_INTEGER_EXPECTED,
      118    17034                                        @LINE = OCC$ -> LX_TERMINAL.LINE,
      119    17035                                        @COLUMN = OCC$ -> LX_TERMINAL.COLUMN);
      120    17065    4             END;
      121    17066
      122    17067    3       SELECT(%LX_ETT_ITEM);
      123    17068    3         CALL Z8CO$INTEGER_CHECK(OCC$);
      124    17069
      125    17070    3       SELECT(ELSE);
      126    17071    3         CALL Z8AE$ERROR (%E$UNEXPECTED_CASE);
      127    17072    3     END;
      128    17073
      129    17074    2   IF REC_INFO.ARRAY$ = ADDR(NIL) THEN
      130    17075    2     CALL Z8AE$ERROR (%E$INVALID_SET,
      131    17076    2                      REC_INFO.LINE,
PL6.E3A0      #001=Z8EX$SET_INDEX File=Z8EX.:Z8A6TSI                             SAT 08/09/97 12:54 Page:5
      132    17077    2                      REC_INFO.COLUMN);
      133    17078    2   ELSE
      134    17079    2     IF OCC$ -> LX_ITEM.ID = %LX_TERMINAL
      135    17080    2          AND OCC$ -> LX_TERMINAL.SYMBOL = %NUMBER
      136    17081    2          AND REC_INFO.ST$ -> VARIABLE.TYPE = %TYX THEN
      137    17082    3       DO;
      138    17083              /* Local opt to build a 2 word constant so that a
      139    17084                 LDAQ/STAQ may be done
      140    17085              */
      141    17086    3         CALL Z8EV$CONVERT (%TYI,
      142    17087    3                            OCC$,
      143    17088    3                            ADDR(ETT_NODE));
      144    17089
      145    17090    3         LDAQSTAQ.WORD2 = ADDR(ETT_NODE) -> LX_ETT_ITEM.ETT$ ->
      146    17091    3                              ETT.LOP -> CONST.CONSTI.WORD1;
      147    17092
      148    17093    3         LDAQSTAQ.WORD1 = LDAQSTAQ.WORD2 * REC_INFO.SPAN;
      149    17094
      150    17095              %INIT_LX_ETT_ITEM (@POINTER = "ADDR(ETT_NODE)",
      151    17096                                 @TYPE = %TYA,
      152    17097                                 @LINE = OCC$ -> LX_TERMINAL.LINE,
      153    17098                                 @COLUMN = OCC$ -> LX_TERMINAL.COLUMN);
      154    17120
      155    17121    3         CALL Z8AC$MAKE_TYA_CONST (CHAR_LDAQSTAQ,
      156    17122    3                                   8,
      157    17123    3                                   0,
      158    17124    3                                   ADDR(ETT_NODE) -> LX_ETT_ITEM.ETT$);
      159    17125
      160    17126    3         CALL Z8E7$MOVE (ADDR(REC_INFO.TYA),
      161    17127    3                         ADDR(ETT_NODE));
      162    17128    3       END;
      163    17129    2     ELSE
      164    17130    3       DO;
      165    17131              /* Set each field of the index item separately */
      166    17132
      167    17133    3         CALL Z8E7$MOVE (ADDR(REC_INFO.OCC),
      168    17134    3                         OCC$);
PL6.E3A0      #001=Z8EX$SET_INDEX File=Z8EX.:Z8A6TSI                             SAT 08/09/97 12:54 Page:6
      169    17135
      170    17136    3         CALL Z8AC$LX_ETT_ITEM_TYI_CONST ( REC_INFO.SPAN,
      171    17137    3                                                ADDR(REC_SPAN_NODE));
      172    17138
      173    17139              %INIT_BINARY_OP (@POINTER = "ADDR(MULT_NODE)",
      174    17140                               @LINE = "REC_INFO.LINE",
      175    17141                               @BERR = OCC$ -> LX_ITEM.B.ERROR,
      176    17142                               @COLUMN = "REC_INFO.COLUMN",
      177    17143                               @ROP$ = OCC$,
      178    17144                               @LOP$ = "ADDR(REC_SPAN_NODE)",
      179    17145                               @OP = %OP_STAR);
      180    17163
      181    17164              /* Local opt to use binary values when possible */
      182    17165    3         IF ADDR(REC_INFO.OCC) -> VARIABLE.TYPE = %TYI THEN
      183    17166    3           ADDR(MULT_NODE) -> BINARY_OP.ROP$ = ADDR(REC_INFO.OCC);
      184    17167
      185    17168    3         CALL Z8E5$MATH_PACK (ADDR(MULT_NODE),
      186    17169    3                              ADDR(ETT_NODE));
      187    17170
      188    17171    3         CALL Z8E7$MOVE (ADDR(REC_INFO.SPAN_OCC),
      189    17172    3                         ADDR(ETT_NODE));
      190    17173
      191    17174    3       END;
      192    17175    2   END SET_INDEX_FROM_OCC;
      193    17176
      194    17177        %EJECT;
PL6.E3A0      #001=Z8EX$SET_INDEX File=Z8EX.:Z8A6TSI                             SAT 08/09/97 12:54 Page:7
      195    17178    1   RESOLVE_INDEX_REFERENCES : PROC (INDEX$,
      196    17179    1                                    INDEX_INFO,
      197    17180    1                                    SUBSCRIPT$);
      198    17181
      199    17182    2     DCL INDEX$ PTR;  /* to LX_ETT_ITEM */
      200    17183    2     DCL 1 INDEX_INFO ALIGNED,
      201    17184                %INDEX_INFO;
      202    17199    2     DCL SUBSCRIPT$ PTR;
      203    17200
      204    17201    2     DCL DIMS$ PTR;
      205    17202    2     DCL DIM SBIN WORD;
      206    17203
      207    17204
      208    17205    2   INDEX_INFO.INDEX_TYPE = TRUE;
      209    17206
      210    17207        %FISH (TRIAD = "INDEX$ -> LX_ETT_ITEM.ETT$",
      211    17208               RTN = INDEX_INFO.ST$);
      212    17216
      213    17217    2   INDEX_INFO.LINE = INDEX$ -> LX_ETT_ITEM.LINE;
      214    17218    2   INDEX_INFO.COLUMN = INDEX$ -> LX_ETT_ITEM.COLUMN;
      215    17219    2   INDEX_INFO.TYPE = INDEX$ -> LX_ETT_ITEM.TYPE;
      216    17220
      217    17221    3   DO SELECT (INDEX_INFO.ST$ -> SCALAR.TYPE);
      218    17222
      219    17223    3     SELECT(%TYY);
      220    17224    3       INDEX_INFO.ARRAY$ = ADDR(NIL);
      221    17225    3       INDEX_INFO.SPAN   = 0;
      222    17226
      223    17227    3     SELECT(%TYX);
      224    17228
      225    17229    3       IF INDEX_INFO.ST$ -> ST.ID = %ARRAY
      226    17230    3             OR INDEX_INFO.ST$ -> SCALAR.LTS$ = ADDR(NIL)
      227    17231    3             OR INDEX_INFO.ST$ -> SCALAR.LTS$ -> ST.ID ~= %ARRAY THEN
      228    17232    4         DO;
      229    17233                /* This must be an optimized TYY item */
      230    17234    4           INDEX_INFO.ARRAY$ = ADDR(NIL);
      231    17235    4           INDEX_INFO.SPAN   = 0;
PL6.E3A0      #001=Z8EX$SET_INDEX File=Z8EX.:Z8A6TSI                             SAT 08/09/97 12:54 Page:8
      232    17236    4         END;
      233    17237    3       ELSE
      234    17238    4         DO;  /* This is a real TYX */
      235    17239    4           INDEX_INFO.ARRAY$ = INDEX_INFO.ST$ -> SCALAR.LTS$;
      236    17240
      237    17241                %GET_LTS (@ID = %DIMS,
      238    17242                          @ST$ = INDEX_INFO.ARRAY$,
      239    17243                          @RETURN$ = DIMS$);
      240    17286
      241    17287                %FIND_LAST_DIM (POINTER = DIMS$,
      242    17288                                 VARIABLE = DIM);
      243    17293
      244    17294    4           INDEX_INFO.SPAN = DIMS$ -> DIMS.D.SPAN(DIM);
      245    17295    4         END;
      246    17296
      247    17297    3     SELECT(ELSE);
      248    17298    3       CALL Z8AE$ERROR(%E$UNEXPECTED_CASE);
      249    17299    3   END;  /* DO SELECT */
      250    17300
      251    17301    2   CALL Z8EU$CREATE_IDENTIFIER_FROM_ST(
      252    17302    2           INDEX_INFO.ST$ -> SCALAR.QLT$ -> QLT.BROTHER -> QLT.ST$,
      253    17303    2           ADDR(INDEX_INFO.TYA),
      254    17304    2           INDEX_INFO.LINE,
      255    17305    2           INDEX_INFO.COLUMN);
      256    17306
      257    17307    2   CALL Z8EU$CREATE_IDENTIFIER_FROM_ST (
      258    17308    2               INDEX_INFO.ST$ -> SCALAR.QLT$ -> QLT.BROTHER
      259    17309    2                               -> QLT.SON -> QLT.ST$,
      260    17310    2               ADDR(INDEX_INFO.SPAN_OCC),
      261    17311    2               INDEX_INFO.LINE,
      262    17312    2               INDEX_INFO.COLUMN);
      263    17313
      264    17314    2   CALL Z8EU$CREATE_IDENTIFIER_FROM_ST(
      265    17315    2               INDEX_INFO.ST$ -> SCALAR.QLT$ -> QLT.BROTHER -> QLT.SON
      266    17316    2                          -> QLT.BROTHER -> QLT.ST$,
      267    17317    2               ADDR(INDEX_INFO.OCC),
      268    17318    2               INDEX_INFO.LINE,
PL6.E3A0      #001=Z8EX$SET_INDEX File=Z8EX.:Z8A6TSI                             SAT 08/09/97 12:54 Page:9
      269    17319    2               INDEX_INFO.COLUMN);
      270    17320
      271    17321    2   IF ADDR(SUBSCRIPT$) ~= ADDR(NIL)
      272    17322    2        AND SUBSCRIPT$ ~= ADDR(NIL) THEN
      273    17323    3     DO;
      274    17324    3       CALL Z8EY$SUBSCRIPT (SUBSCRIPT$,
      275    17325    3                            ADDR(INDEX_INFO.TYA));
      276    17326    3       CALL Z8EY$SUBSCRIPT (SUBSCRIPT$,
      277    17327    3                            ADDR(INDEX_INFO.SPAN_OCC));
      278    17328    3       CALL Z8EY$SUBSCRIPT (SUBSCRIPT$,
      279    17329    3                            ADDR(INDEX_INFO.OCC));
      280    17330    3     END;
      281    17331
      282    17332    2   END RESOLVE_INDEX_REFERENCES;
      283    17333        %EJECT;
PL6.E3A0      #001=Z8EX$SET_INDEX File=Z8EX.:Z8A6TSI                             SAT 08/09/97 12:54 Page:10
      284    17334    1   SET_UP_DOWN : PROC (SEND$,
      285    17335    1                       EXPR_ID);
      286    17336
      287    17337    2     DCL SEND$ PTR;  /* To arith expr for incremental value */
      288    17338    2     DCL EXPR_ID SBIN WORD;  /* operation code (add or subtract) */
      289    17339
      290    17340          /* Semantic checks for SET UP or DOWN:
      291    17341                Identifier must be integer;
      292    17342                Number must be integer (possibly signed)
      293    17343          */
      294    17344    3     DO SELECT (SEND$ -> LX_ITEM.ID);
      295    17345
      296    17346    3       SELECT(%LX_TERMINAL);
      297    17347    3         CALL Z8CO$CHECK_INTEGER_TERMINAL (SEND$)
      298    17348    3           WHENALTRETURN
      299    17349    4             DO;
      300    17350                    %CONDITIONAL_ERROR (@LX_ITEM$ = SEND$,
      301    17351                                        @ERROR# = %E$MUST_BE_INTEGER,
      302    17352                                        @LINE = SEND$ -> LX_TERMINAL.LINE,
      303    17353                                        @COLUMN = SEND$ -> LX_TERMINAL.COLUMN);
      304    17383    4             END;
      305    17384
      306    17385    3       SELECT(%LX_ETT_ITEM);
      307    17386
      308    17387    4         DO SELECT (SEND$ -> LX_ETT_ITEM.TYPE);
      309    17388
      310    17389    4           SELECT(%TYX, %TYY);
      311    17390
      312    17391    4           SELECT(ELSE);
      313    17392    4             CALL Z8CO$INTEGER_CHECK(SEND$);
      314    17393    4         END;
      315    17394
      316    17395    3       SELECT(ELSE);
      317    17396
      318    17397    3         CALL Z8AE$ERROR (%E$UNEXPECTED_CASE);
      319    17398    3     END;
      320    17399
PL6.E3A0      #001=Z8EX$SET_INDEX File=Z8EX.:Z8A6TSI                             SAT 08/09/97 12:54 Page:11
      321    17400          %INIT_BINARY_OP (@POINTER = "ADDR(ADD_NODE)",
      322    17401                           @LINE = "REC_INFO.LINE",
      323    17402                           @BERR = SEND$ -> LX_ITEM.B.ERROR,
      324    17403                           @COLUMN = "REC_INFO.COLUMN",
      325    17404                           @LOP$ = "ADDR(REC_INFO.OCC)",
      326    17405                           @ROP$ = SEND$,
      327    17406                           @OP = EXPR_ID);
      328    17424
      329    17425    2     CALL Z8E5$MATH_PACK (ADDR(ADD_NODE),
      330    17426    2                          ADDR(ETT_NODE));
      331    17427
      332    17428    2     CALL Z8E7$MOVE (ADDR(REC_INFO.OCC),
      333    17429    2                     ADDR(ETT_NODE));
      334    17430
      335    17431    2     CALL Z8AC$LX_ETT_ITEM_TYI_CONST (REC_INFO.SPAN,
      336    17432    2                                      ADDR(REC_SPAN_NODE));
      337    17433
      338    17434          %INIT_BINARY_OP (@POINTER = "ADDR(MULT_NODE)",
      339    17435                           @LINE = "REC_INFO.LINE",
      340    17436                           @BERR = SEND$ -> LX_ITEM.B.ERROR,
      341    17437                           @COLUMN = "REC_INFO.COLUMN",
      342    17438                           @LOP$ = "ADDR(REC_SPAN_NODE)",
      343    17439                           @ROP$ = SEND$,
      344    17440                           @OP = %OP_STAR);
      345    17458
      346    17459    2     ADDR(ADD_NODE) -> BINARY_OP.LOP$ = ADDR(REC_INFO.SPAN_OCC);
      347    17460    2     ADDR(ADD_NODE) -> BINARY_OP.ROP$ = ADDR(MULT_NODE);
      348    17461
      349    17462    2     CALL Z8E5$MATH_PACK (ADDR(ADD_NODE),
      350    17463    2                          ADDR(ETT_NODE));
      351    17464
      352    17465    2     CALL Z8E7$MOVE (ADDR(REC_INFO.SPAN_OCC),
      353    17466    2                     ADDR(ETT_NODE));
      354    17467
      355    17468    2   END SET_UP_DOWN;
      356    17469
      357    17470        %EJECT;
PL6.E3A0      #001=Z8EX$SET_INDEX File=Z8EX.:Z8A6TSI                             SAT 08/09/97 12:54 Page:12
      358    17471    1   MOVE_INDEX : PROC ;
      359    17472
      360    17473
      361    17474                    /* Moves between index items are as follows:
      362    17475
      363    17476                        TYPE   REC    SEND   SPAN   MOVE
      364    17477                        ----   ----   ----   ----   ----
      365    17478                         L      A      A      =      TYA
      366    17479                         L      A      A      ~=     OCC
      367    17480                         L      A      I      NA     TYA
      368    17481                         L      I      A      NA     TYA
      369    17482                         L      I      I      NA     TYA
      370    17483                         U      A      A      =      OCC, OCC*SPAN
      371    17484                         U      A      A      ~=     OCC
      372    17485                         U      A      I      NA     OCC
      373    17486                         U      I      A      NA     OCC, OCC*SPAN
      374    17487                         U      I      I      NA     OCC, OCC*SPAN
      375    17488
      376    17489                       U => Type of REC index ~= type of SEND index
      377    17490                       L => Type of REC index = type of SEND index
      378    17491                       A => Variable is associated with an array
      379    17492                       I => Variable is a data item, not assoc. with an array
      380    17493                       NA => Not applicable
      381    17494                       TYA => Move the entire structure without conversion
      382    17495                       OCC => Build a new index item based on the SEND occurrence #
      383    17496                       OCC, OCC*SPAN => Move each field separately, so that conversion
      384    17497                                           will change COMP-6 <=> COMP-1,COMP-2
      385    17498                    */
      386    17499
      387    17500    2               IF REC_INFO.TYPE = SEND_INFO.TYPE
      388    17501    2                   AND (REC_INFO.ARRAY$ = ADDR(NIL)
      389    17502    2                         OR (REC_INFO.ARRAY$ ~= ADDR(NIL)
      390    17503    2                              AND (SEND_INFO.ARRAY$ = ADDR(NIL)
      391    17504    2                                    OR REC_INFO.SPAN = SEND_INFO.SPAN))) THEN
      392    17505    3                 DO;
      393    17506    3                   CALL Z8E7$MOVE (ADDR(REC_INFO.TYA),
      394    17507    3                                   ADDR(SEND_INFO.TYA));
PL6.E3A0      #001=Z8EX$SET_INDEX File=Z8EX.:Z8A6TSI                             SAT 08/09/97 12:54 Page:13
      395    17508    3                 END;
      396    17509    2               ELSE
      397    17510    2                 IF REC_INFO.TYPE ~= SEND_INFO.TYPE
      398    17511    2                     AND (REC_INFO.ARRAY$ = ADDR(NIL)
      399    17512    2                           OR (REC_INFO.ARRAY$ ~= ADDR(NIL)
      400    17513    2                           AND (SEND_INFO.ARRAY$ = ADDR(NIL)
      401    17514    2                                 OR REC_INFO.SPAN = SEND_INFO.SPAN))) THEN
      402    17515    3                   DO;
      403    17516    3                     CALL Z8E7$MOVE (ADDR(REC_INFO.SPAN_OCC),
      404    17517    3                                     ADDR(SEND_INFO.SPAN_OCC));
      405    17518    3                     CALL Z8E7$MOVE (ADDR(REC_INFO.OCC),
      406    17519    3                                     ADDR(SEND_INFO.OCC));
      407    17520    3                   END;
      408    17521    2                 ELSE
      409    17522    3                   DO;
      410    17523    3                     CALL SET_INDEX_FROM_OCC (ADDR(SEND_INFO.OCC));
      411    17524    3                   END;
      412    17525    2   END MOVE_INDEX;
      413    17526
      414    17527        %EJECT;
PL6.E3A0      #001=Z8EX$SET_INDEX File=Z8EX.:Z8A6TSI                             SAT 08/09/97 12:54 Page:14
      415    17528        /* Main body of SET$INDEX */
      416    17529
      417    17530        /* Resolve sending reference */
      418    17531
      419    17532    1   SEND_INFO.INDEX_TYPE = FALSE;
      420    17533
      421    17534    2   DO CASE (SEND$ -> LX_ITEM.ID);
      422    17535
      423    17536    2     CASE(%LX_TERMINAL);
      424    17537
      425    17538    2       SEND_INFO.OCC = SEND$ -> LX_TERMINAL;
      426    17539
      427    17540    2     CASE(%LX_ETT_ITEM);
      428    17541
      429    17542    2       IF SEND$ -> LX_ETT_ITEM.TYPE = %TYX
      430    17543    2            OR SEND$ -> LX_ETT_ITEM.TYPE = %TYY THEN
      431    17544    2           CALL RESOLVE_INDEX_REFERENCES (SEND$,
      432    17545    2                                          SEND_INFO);
      433    17546    2       ELSE
      434    17547    2         SEND_INFO.OCC = SEND$ -> LX_ETT_ITEM;
      435    17548
      436    17549    2     CASE(%LX_LIST);
      437    17550
      438    17551    2       IF SEND$ -> LX_LIST.HEAD$ -> LX_ETT_ITEM.TYPE = %TYX
      439    17552    2           OR SEND$ -> LX_LIST.HEAD$ -> LX_ETT_ITEM.TYPE = %TYY THEN
      440    17553    2           CALL RESOLVE_INDEX_REFERENCES (SEND$ -> LX_LIST.HEAD$,
      441    17554    2                                          SEND_INFO,
      442    17555    2                                          SEND$ -> LX_LIST.HEAD$ -> LX_ITEM.LINK);
      443    17556    2       ELSE
      444    17557    3         DO;
      445    17558    3           SEND_INFO.OCC = SEND$ -> LX_LIST.HEAD$ -> LX_ETT_ITEM;
      446    17559    3           IF SEND$ -> LX_LIST.COUNT > 1 THEN
      447    17560    3             CALL Z8EY$SUBSCRIPT (SEND$ -> LX_LIST.TAIL$,
      448    17561    3                                  ADDR(SEND_INFO.OCC));
      449    17562    3         END;
      450    17563    2   END;  /* Case */
      451    17564
PL6.E3A0      #001=Z8EX$SET_INDEX File=Z8EX.:Z8A6TSI                             SAT 08/09/97 12:54 Page:15
      452    17565
      453    17566        /* Resolve Receiving Items */
      454    17567
      455    17568
      456    17569    2   DO CASE (REC$ -> LX_ITEM.ID);
      457    17570
      458    17571    2     CASE(%LX_ETT_ITEM);
      459    17572
      460    17573    2       IF REC$ -> LX_ETT_ITEM.TYPE = %TYP THEN
      461    17574    3         DO;
      462    17575                %CONDITIONAL_ERROR (@LX_ITEM$ = REC$,
      463    17576                                    @ERROR# = %E$INVALID_SET,
      464    17577                                    @LINE = REC$ -> LX_ETT_ITEM.LINE,
      465    17578                                    @COLUMN = REC$ -> LX_ETT_ITEM.COLUMN);
      466    17608
      467    17609    3           REC$ -> LX_ETT_ITEM.TYPE = %TYI;
      468    17610    3         END;
      469    17611
      470    17612    2       REC_INFO.INDEX_TYPE = FALSE;
      471    17613
      472    17614    2       IF REC$ -> LX_ETT_ITEM.TYPE = %TYX
      473    17615    2            OR REC$ -> LX_ETT_ITEM.TYPE = %TYY THEN
      474    17616    3         DO;
      475    17617    3           CALL RESOLVE_INDEX_REFERENCES (REC$,
      476    17618    3                               REC_INFO);
      477    17619    3           IF SEND_INFO.INDEX_TYPE THEN
      478    17620    3             CALL MOVE_INDEX;
      479    17621    3           ELSE
      480    17622    3             CALL SET_INDEX_FROM_OCC (ADDR(SEND_INFO.OCC));
      481    17623    3         END;
      482    17624    2       ELSE
      483    17625    2         CALL Z8E7$MOVE (REC$,
      484    17626    2                         ADDR(SEND_INFO.OCC));
      485    17627    2         IF COMCOM.OB.FIPS.LEVEL > 0
      486    17628    2         AND NOT SEND_INFO.INDEX_TYPE THEN
      487    17629                %CONDITIONAL_ERROR (@LX_ITEM$ = REC$,
      488    17630                                    @ERROR# = %E$SET_NOT_ANSI,
PL6.E3A0      #001=Z8EX$SET_INDEX File=Z8EX.:Z8A6TSI                             SAT 08/09/97 12:54 Page:16
      489    17631                                    @LINE = REC$ -> LX_ETT_ITEM.LINE,
      490    17632                                    @COLUMN = REC$ -> LX_ETT_ITEM.COLUMN);
      491    17662
      492    17663    2     CASE(%LX_LIST); /* Receiving */
      493    17664
      494    17665    2       VAL_REQUIRED = FALSE;
      495    17666    2       VAL_TYA_REQUIRED = FALSE;
      496    17667    2       VAL_SPAN_OCC_REQUIRED = FALSE;
      497    17668    2       VAL_REC_COUNT = 0 ;                                /*#28761*/
      498    17669
      499    17670    2       IF REC$ -> LX_LIST.COUNT > 1 THEN
      500    17671    3         DO;
      501    17672    3           IF  ADDR(SEND_INFO.OCC) ->  LX_ITEM.ID = %LX_ETT_ITEM
      502    17673    3              AND  ADDR(SEND_INFO.OCC) -> LX_ETT_ITEM.ETT$ -> ETT.ID ~= %TRIAD THEN
      503    17674    4             DO;
      504    17675    4               CALL Z8AF$FORME (%EVAL,
      505    17676    4                                ADDR(SEND_INFO.OCC) -> LX_ETT_ITEM.ETT$,
      506    17677    4                                ADDR(NIL),
      507    17678    4                                ADDR(SEND_INFO.OCC) -> LX_ETT_ITEM.ETT$);
      508    17679
      509    17680                    %NEW_ILL (@ID = %VAL,
      510    17681                              @ETT$ = "ADDR(SEND_INFO.OCC) -> LX_ETT_ITEM.ETT$");
      511    18060    4               VAL_REQUIRED = TRUE;
      512    18061    4             END;
      513    18062
      514    18063    3           IF SEND_INFO.INDEX_TYPE THEN
      515    18064    4             DO;
      516    18065    4               IF ADDR(SEND_INFO.TYA) -> LX_ITEM.ID = %LX_ETT_ITEM
      517    18066    4                   AND ADDR(SEND_INFO.TYA) -> LX_ETT_ITEM.ETT$ -> ETT.ID ~= %TRIAD THEN
      518    18067    5                 DO;
      519    18068    5                   CALL Z8AF$FORME (%EVAL,
      520    18069    5                                    ADDR(SEND_INFO.TYA) -> LX_ETT_ITEM.ETT$,
      521    18070    5                                    ADDR(NIL),
      522    18071    5                                    ADDR(SEND_INFO.TYA) -> LX_ETT_ITEM.ETT$);
      523    18072                        %NEW_ILL (@ID = %VAL,
      524    18073                                  @ETT$ = "ADDR(SEND_INFO.TYA) -> LX_ETT_ITEM.ETT$");
      525    18452    5                   VAL_TYA_REQUIRED = TRUE;
PL6.E3A0      #001=Z8EX$SET_INDEX File=Z8EX.:Z8A6TSI                             SAT 08/09/97 12:54 Page:17
      526    18453    5                 END;
      527    18454
      528    18455    4               IF ADDR(SEND_INFO.SPAN_OCC) -> LX_ITEM.ID = %LX_ETT_ITEM
      529    18456    4                   AND ADDR(SEND_INFO.SPAN_OCC) -> LX_ETT_ITEM.ETT$ -> ETT.ID ~= %TRIAD
             18456                            THEN
      530    18457    5                 DO;
      531    18458    5                   CALL Z8AF$FORME (%EVAL,
      532    18459    5                                    ADDR(SEND_INFO.SPAN_OCC) -> LX_ETT_ITEM.ETT$,
      533    18460    5                                    ADDR(NIL),
      534    18461    5                                    ADDR(SEND_INFO.SPAN_OCC) -> LX_ETT_ITEM.ETT$);
      535    18462                        %NEW_ILL (@ID = %VAL,
      536    18463                                  @ETT$ = "ADDR(SEND_INFO.SPAN_OCC) -> LX_ETT_ITEM.ETT$");
      537    18842    5                   VAL_SPAN_OCC_REQUIRED = TRUE;
      538    18843    5                 END;
      539    18844    4             END;
      540    18845    3         END;
      541    18846
      542    18847    2       R$ = REC$ -> LX_LIST.HEAD$;
      543    18848    3       DO WHILE R$ ~= ADDR(NIL);
      544    18849
      545    18850    3       IF R$ -> LX_LIST.HEAD$ -> LX_ETT_ITEM.TYPE = %TYP THEN
      546    18851    4         DO;
      547    18852                %CONDITIONAL_ERROR (@LX_ITEM$ = R$ -> LX_LIST.HEAD$,
      548    18853                                    @ERROR# = %E$INVALID_SET,
      549    18854                                    @LINE = R$ -> LX_LIST.HEAD$ -> LX_ETT_ITEM.LINE,
      550    18855                                    @COLUMN = R$ -> LX_LIST.HEAD$ -> LX_ETT_ITEM.COLUMN);
      551    18885
      552    18886    4           R$ -> LX_LIST.HEAD$ -> LX_ETT_ITEM.TYPE = %TYI;
      553    18887    4         END;
      554    18888
      555    18889    3         VAL_REC_COUNT = VAL_REC_COUNT + 1 ;              /*#28761*/
      556    18890    3         REC_INFO.INDEX_TYPE = FALSE;
      557    18891
      558    18892    3         IF R$ -> LX_LIST.HEAD$ -> LX_ETT_ITEM.TYPE = %TYX
      559    18893    3             OR R$ -> LX_LIST.HEAD$ -> LX_ETT_ITEM.TYPE = %TYY THEN
      560    18894    4           DO;
      561    18895    4             CALL RESOLVE_INDEX_REFERENCES (R$ -> LX_LIST.HEAD$,
PL6.E3A0      #001=Z8EX$SET_INDEX File=Z8EX.:Z8A6TSI                             SAT 08/09/97 12:54 Page:18
      562    18896    4                                            REC_INFO,
      563    18897    4                                            R$ -> LX_LIST.HEAD$ -> LX_ITEM.LINK);
      564    18898    4             IF SEND_INFO.INDEX_TYPE THEN
      565    18899    4               CALL MOVE_INDEX;
      566    18900    4             ELSE
      567    18901    4               CALL SET_INDEX_FROM_OCC (ADDR(SEND_INFO.OCC));
      568    18902    4           END;
      569    18903    3         ELSE
      570    18904    4           DO;
      571    18905    4             REC_INFO.OCC = R$ -> LX_LIST.HEAD$ -> LX_ETT_ITEM;
      572    18906    4             IF R$ -> LX_LIST.COUNT > 1 THEN
      573    18907    4               CALL Z8EY$SUBSCRIPT (R$ -> LX_LIST.TAIL$,
      574    18908    4                                    ADDR(REC_INFO.OCC));
      575    18909    4             CALL Z8E7$MOVE (ADDR(REC_INFO.OCC),
      576    18910    4                             ADDR(SEND_INFO.OCC));
      577    18911    4             IF COMCOM.OB.FIPS.LEVEL > 0
      578    18912    4             AND NOT SEND_INFO.INDEX_TYPE THEN
      579    18913                    %CONDITIONAL_ERROR (@LX_ITEM$ = R$ -> LX_LIST.HEAD$,
      580    18914                                        @ERROR# = %E$SET_NOT_ANSI,
      581    18915                                        @LINE = R$ -> LX_LIST.HEAD$ -> LX_ETT_ITEM.LINE,
      582    18916                                        @COLUMN = R$ -> LX_LIST.HEAD$ -> LX_ETT_ITEM.COLUMN)
             18916                                            ;
      583    18946    4           END;
      584    18947
      585    18948    3         R$ = R$ -> LX_LIST.LINK;
      586    18949    3       END;  /* Do While */
      587    18950                                                               /*#28761*/
      588    18951    2       IF VAL_REC_COUNT > COMCOM.MAX_RECEIVING_ITEMS THEN
      589    18952    2         COMCOM.MAX_RECEIVING_ITEMS = VAL_REC_COUNT ;
      590    18953
      591    18954    2       IF VAL_SPAN_OCC_REQUIRED THEN
      592    18955              %NEW_ILL(@ID = %VAL_END);
      593    19334
      594    19335    2       IF VAL_TYA_REQUIRED THEN
      595    19336              %NEW_ILL (@ID = %VAL_END);
      596    19715
      597    19716    2       IF VAL_REQUIRED THEN
PL6.E3A0      #001=Z8EX$SET_INDEX File=Z8EX.:Z8A6TSI                             SAT 08/09/97 12:54 Page:19
      598    19717              %NEW_ILL (@ID = %VAL_END);
      599    20096
      600    20097    2     CASE (ELSE);
      601    20098
      602    20099    2       CALL Z8AE$ERROR (%E$UNEXPECTED_CASE);
      603    20100    2   END;
      604    20101
      605    20102
      606    20103    1   RETURN;
      607    20104        %EJECT;
PL6.E3A0      #001=Z8EX$SET_INDEX File=Z8EX.:Z8A6TSI                             SAT 08/09/97 12:54 Page:20
      608    20105    1   Z8EX$SET_UP_BY : ENTRY (REC$, SEND$);
      609    20106
      610    20107
      611    20108    1     EXPR_ID = %OP_PLUS;
      612    20109    1     GOTO SET_UP_DOWN;
      613    20110
      614    20111
      615    20112    1   Z8EX$SET_DOWN_BY : ENTRY (REC$, SEND$);
      616    20113
      617    20114
      618    20115    1     EXPR_ID = %OP_BINARY_MINUS;
      619    20116
      620    20117
      621    20118    1   SET_UP_DOWN:
      622    20119
      623    20120    1     IF REC$ -> LX_ETT_ITEM.TYPE ~= %TYX
      624    20121    1          AND REC$ -> LX_ETT_ITEM.TYPE ~= %TYY THEN
      625    20122    1       CALL Z8AE$ERROR (%E$INVALID_SET,
      626    20123    1                        REC$ -> LX_ETT_ITEM.LINE,
      627    20124    1                        REC$ -> LX_ETT_ITEM.COLUMN);
      628    20125    1     ELSE
      629    20126    2       DO;
      630    20127    2         CALL RESOLVE_INDEX_REFERENCES (REC$,
      631    20128    2                                       REC_INFO);
      632    20129
      633    20130    2         IF REC_INFO.ARRAY$ = ADDR(NIL) THEN
      634    20131    2           CALL Z8AE$ERROR (%E$INVALID_SET,
      635    20132    2                            REC$ -> LX_ETT_ITEM.LINE,
      636    20133    2                            REC$ -> LX_ETT_ITEM.COLUMN);
      637    20134    2         ELSE
      638    20135    3           DO;
      639    20136    3             CALL SET_UP_DOWN (SEND$,
      640    20137    3                               EXPR_ID);
      641    20138    3           END;
      642    20139    2       END;
      643    20140
      644    20141    1   RETURN;
PL6.E3A0      #001=Z8EX$SET_INDEX File=Z8EX.:Z8A6TSI                             SAT 08/09/97 12:54 Page:21
      645    20142        %EJECT;
PL6.E3A0      #001=Z8EX$SET_INDEX File=Z8EX.:Z8A6TSI                             SAT 08/09/97 12:54 Page:22
      646    20143    1   Z8EX$SET_UP_FOR_SEARCH : ENTRY (REC$, SEND$);
      647    20144
      648    20145        /* This is a special entry for the SEARCH statement.
      649    20146           REC$ points to VARYING identifier which is to be set
      650    20147           up by the same amount as a SET_UP_BY 1 would use
      651    20148           for SEND$
      652    20149        */
      653    20150
      654    20151    1     CALL RESOLVE_INDEX_REFERENCES (REC$,
      655    20152    1                                    REC_INFO);
      656    20153
      657    20154    1     CALL RESOLVE_INDEX_REFERENCES (SEND$,
      658    20155    1                                    SEND_INFO);
      659    20156
      660    20157    1     IF REC_INFO.ARRAY$ = ADDR(NIL) THEN
      661    20158    2       DO;
      662    20159    2         REC_INFO.ARRAY$ = SEND_INFO.ARRAY$;
      663    20160    2         REC_INFO.SPAN = SEND_INFO.SPAN;
      664    20161    2       END;
      665    20162
      666    20163    1     CALL Z8AC$LX_ETT_ITEM_TYI_CONST (1,
      667    20164    1                                      ADDR(ONE));
      668    20165
      669    20166    1     CALL SET_UP_DOWN (ADDR(ONE),
      670    20167    1                       %OP_PLUS);
      671    20168
      672    20169    1     RETURN;
      673    20170
      674    20171    1   END Z8EX$SET_INDEX;
      675    20172        %EOD;

PL6.E3A0      #001=Z8EX$SET_INDEX File=Z8EX.:Z8A6TSI                             SAT 08/09/97 12:54 Page:23
--  Include file information  --

   Z8E_WINDOW.:Z8A6TOU  is referenced.
   Z8E_NEW_ILL.:Z8A6TOU  is referenced.
   Z8E_MACROS.:Z8A6TOU  cannot be made into a system file and is referenced.
   Z8E_O1COM.:Z8A6TOU  cannot be made into a system file and is referenced.
   Z8A_QLT.:Z8A6TOU  cannot be made into a system file and is referenced.
   Z8E_HEAP.:Z8A6TOU  cannot be made into a system file and is referenced.
   Z8A_LEX_SYMB.:Z8A6TOU  cannot be made into a system file and is referenced.
   Z8E_STACKS.:Z8A6TOU  cannot be made into a system file and is referenced.
   Z8A_ILS.:Z8A6TOU  cannot be made into a system file and is referenced.
   Z8A_SRCH.:Z8A6TOU  cannot be made into a system file and is referenced.
   Z8A_ERR_NUMS.:Z8A6TOU  is referenced.
   Z8A_ST.:Z8A6TOU  cannot be made into a system file and is referenced.
   Z8A_TYPES.:Z8A6TOU  is referenced.
   Z8A_COMCOM.:Z8A6TOU  cannot be made into a system file and is referenced.
   Z8A_LTS.:Z8A6TOU  cannot be made into a system file and is referenced.
   Z8A_ETT.:Z8A6TOU  cannot be made into a system file and is referenced.
   Z8A_ILL.:Z8A6TOU  cannot be made into a system file and is referenced.
   X8A_COM_MACS.:X8A6TOU  is referenced.
   Z8A_NAMES.:Z8A6TOU  is referenced.
   Z8A_SUPP_MAC.:Z8A6TOU  is referenced.
   Z8A_DEFC.:Z8A6TOU  cannot be made into a system file and is referenced.
      No diagnostics issued in procedure Z8EX$SET_INDEX.

   Procedure Z8EX$SET_INDEX requires 1202 words for executable code.
   Procedure Z8EX$SET_INDEX requires 162 words of local(AUTO) storage.

PL6.E3A0      #001=Z8EX$SET_INDEX File=Z8EX.:Z8A6TSI                             SAT 08/09/97 12:54 Page:24

 Object Unit name= Z8EX$SET_INDEX                             File name= Z8EX.:Z8A6TOU
 UTS= AUG 09 '97 12:54:45.00 SAT                              Compiler= PL-6/E31         Sev=      00
 SharedLib= :SHARED_SYSTEM                                    Alt SharedLib=


    ****  Control sections  ****

 Sect   Type Bound  Init  Size OctSiz  Section name(segment info)
    0  LblCom even  none     1      1  ITERATION
    1  LblCom even  none     1      1  ILL$
    2  LblCom even  none     5      5  ILL_
    3  LblCom even  none     1      1  ETT$
    4  LblCom even  none     1      1  HEAD_ETT$
    5  LblCom even  none   512   1000  ETT_BUCKETS
    6  LblCom even  none     5      5  ETT_
    7  LblCom even  none     1      1  LTS$
    8  LblCom even  none     5      5  LTS_
    9  LblCom even  none     1      1  ST$
   10  LblCom even  none     5      5  ST_
   11  LblCom even  none     3      3  SRCH
   12  LblCom even  none     1      1  ILS$
   13  LblCom even  none     5      5  ILS_
   14  LblCom even  none    90    132  LEX_SYMBOL
   15  LblCom even  none     1      1  CURRENT_LEX_SYMBOL$
   16  LblCom even  none    90    132  TEMP_LEX_SYMBOL
   17  LblCom even  none    90    132  TEMP_LEX_SYMBOL2
   18  LblCom even  none     1      1  HEAP$
   19  LblCom even  none     1      1  QLT$
   20  LblCom even  none     1      1  PREV_01_QLT$
   21  LblCom even  none     5      5  QLT_
   22   Proc  even  none  1202   2262  Z8EX$SET_INDEX
   23  RoData even  none    33     41  Z8EX$SET_INDEX
PL6.E3A0      #001=Z8EX$SET_INDEX File=Z8EX.:Z8A6TSI                             SAT 08/09/97 12:54 Page:25

    ****  Entry defs  ****

                              Check   Calling
                             calling  sequence
  Sect OctLoc Primary Altret sequence   type   Parms  Name
    22      0   yes            yes      Std        2  Z8EX$SET_INDEX
    22   2114                  yes      Std        2  Z8EX$SET_UP_BY
    22   2121                  yes      Std        2  Z8EX$SET_DOWN_BY
    22   2206                  yes      Std        2  Z8EX$SET_UP_FOR_SEARCH

  ****  Entry refs  ****

         Check        Calling
        calling       sequence
Altret sequence SRef   type   Args  Name
         yes           Std       2 Z8EY$SUBSCRIPT
         yes           Std      12 Z8AE$ERROR
         yes           Std       4 Z8AN$NEW_ILL
         yes           Std       2 Z8E7$MOVE
         yes           Std       4 Z8AF$FORME
         yes           Std       2 Z8AC$LX_ETT_ITEM_TYI_CONST
 yes     yes           Std       1 Z8CO$CHECK_POS_INT_TERM
         yes           Std       3 Z8EV$CONVERT
         yes           Std       4 Z8AC$MAKE_TYA_CONST
 yes     yes           Std       1 Z8CO$INTEGER_CHECK
         yes           Std       2 Z8E5$MATH_PACK
         yes           Std       4 Z8EU$CREATE_IDENTIFIER_FROM_ST
 yes     yes           Std       1 Z8CO$CHECK_INTEGER_TERMINAL
                       nStd      0 X66_AUTO_2
                       nStd      0 X66_ARET
PL6.E3A0      #001=Z8EX$SET_INDEX File=Z8EX.:Z8A6TSI                             SAT 08/09/97 12:54 Page:26

  ****  Data refs  ****

  Flags:  r = read only, s = secondary
Flgs Name                             Flgs Name                             Flgs Name
r    ILL_STEP                         r    LTS_STEP                              COMCOM
r    ILS_STEP_TABLE                        O1COM                                 HIER_STK_PTR
     HIER_STK                              PAGE_FORMAT                           REP_STK_PTR
     REP_STK

  ****  Segment refs  ****

  Flags:  r = read only, s = secondary
Flgs Name                             Flgs Name                             Flgs Name
     NULLSID                               ISSID
PL6.E3A0      #001=Z8EX$SET_INDEX File=Z8EX.:Z8A6TSI                             SAT 08/09/97 12:54 Page:27


        1        1        /*T***********************************************************/
        2        2        /*T*                                                         */
        3        3        /*T* Copyright (c) Bull HN Information Systems Inc., 1997    */
        4        4        /*T*                                                         */
        5        5        /*T***********************************************************/
        6        6        Z8EX$SET_INDEX: PROC (REC$, SEND$) ;

      6 22 000000   000000 700200 xent  Z8EX$SET_IN* TSX0  ! X66_AUTO_2
        22 000001   000242 000002                    ZERO    162,2
        22 000002   001177 710000 22                 TRA     s:17532

        7        7        /*P*
        8        8               NAME: Z8EX$SET_INDEX,
        9        9                     Z8EX$SET_UP_BY,
       10       10                     Z8EX$SET_DOWN_BY
       11       11            PURPOSE: To generate the correct conversions and moves for the
       12       12                     INDEX data type
       13       13        */
       14       14
       15       15        %EQU PHASE = 1 ;
       16       16
       17       17
       18       18    1   DCL REC$          PTR ;
       19       19    1   DCL SEND$          PTR ;
       20       20
       21       21        %INCLUDE Z8A_DEFC ;
       22       89        %INCLUDE Z8A_SUPP_MAC ;
       23     2489        %INCLUDE Z8A_ILL ;
       24     3182        %INCLUDE Z8A_ETT ;
       25     3483        %INCLUDE Z8A_LTS ;
       26     5560        %INCLUDE Z8A_COMCOM ;
       27     6210        %INCLUDE Z8A_TYPES;
       28     6384        %INCLUDE Z8A_ST ;
       29    10043        %INCLUDE Z8A_ERR_NUMS ;
       30    10807        %INCLUDE Z8A_SRCH ;
       31    10856        %INCLUDE Z8A_ILS ;
PL6.E3A0      #001=Z8EX$SET_INDEX File=Z8EX.:Z8A6TSI                             SAT 08/09/97 12:54 Page:28
       32    10965        %INCLUDE Z8E_STACKS ;
       33    13231        %INCLUDE Z8E_HEAP;
       34    13287        %INCLUDE Z8A_QLT;
       35    13393        %INCLUDE Z8E_O1COM ;
       36    14154        %INCLUDE Z8E_MACROS ;
       37    14829        %INCLUDE Z8E_WINDOW;
       38    16899
       39    16900    1   DCL Z8AE$ERROR         ENTRY (12) ;
       40    16901    1   DCL Z8AC$LX_ETT_ITEM_TYI_CONST ENTRY(2);
       41    16902    1   DCL Z8E7$MOVE          ENTRY (2) ;
       42    16903    1   DCL Z8EU$CREATE_IDENTIFIER_FROM_ST ENTRY (4);
       43    16904    1   DCL Z8E5$MATH_PACK     ENTRY(2);
       44    16905    1   DCL Z8CO$CHECK_POS_INT_TERM ENTRY(1) ALTRET;
       45    16906    1   DCL Z8CO$INTEGER_CHECK ENTRY(1) ALTRET;
       46    16907    1   DCL Z8CO$CHECK_INTEGER_TERMINAL ENTRY(1) ALTRET;
       47    16908    1   DCL Z8AC$MAKE_TYA_CONST ENTRY(4);
       48    16909    1   DCL Z8EV$CONVERT ENTRY(3);
       49    16910    1   DCL Z8EY$SUBSCRIPT ENTRY(2);
       50    16911    1   DCL Z8AF$FORME ENTRY(4);
       51    16912
       52    16913    1   DCL EXPR_ID            UBIN WORD ;
       53    16914    1   DCL VAL_REC_COUNT      SBIN WORD ;                     /*#28761*/
       54    16915    1   DCL R$ PTR;
       55    16916    1   DCL VAL_REQUIRED BOOLEAN;
       56    16917    1   DCL VAL_TYA_REQUIRED BOOLEAN;
       57    16918    1   DCL VAL_SPAN_OCC_REQUIRED BOOLEAN;
       58    16919
       59    16920        %MACRO INDEX_INFO;
       60    16921
       61    16922          2 ST$        PTR,      /* to symbol table */
       62    16923          2 ARRAY$     PTR,      /* to symbol table or NIL */
       63    16924          2 TYA,
       64    16925            3 * (0:%(LENGTH_LX_ITEM - 1)) SBIN WORD,
       65    16926          2 OCC,
       66    16927            3 * (0:%(LENGTH_LX_ITEM - 1)) SBIN WORD,
       67    16928          2 SPAN_OCC,
       68    16929            3 * (0:%(LENGTH_LX_ITEM - 1)) SBIN WORD,
PL6.E3A0      #001=Z8EX$SET_INDEX File=Z8EX.:Z8A6TSI                             SAT 08/09/97 12:54 Page:29
       69    16930          2 LINE SBIN WORD,
       70    16931          2 COLUMN SBIN WORD,
       71    16932          2 TYPE SBIN WORD,
       72    16933          2 INDEX_TYPE BOOLEAN,
       73    16934          2 SPAN       SBIN WORD;
       74    16935
       75    16936        %MEND;
       76    16937
       77    16938        %DCL_AUTO_LX_ITEM (@NAME = REC_NODE);
       78    16942        %DCL_AUTO_LX_ITEM (@NAME = SEND_NODE);
       79    16946        %DCL_AUTO_LX_ITEM (@NAME = ADD_NODE);
       80    16950        %DCL_AUTO_LX_ITEM (@NAME = OCC_NODE);
       81    16954          %DCL_AUTO_LX_ITEM (@NAME = SPAN_OCC_NODE);
       82    16958          %DCL_AUTO_LX_ITEM (@NAME = REC_SPAN_NODE);
       83    16962          %DCL_AUTO_LX_ITEM (@NAME = MULT_NODE);
       84    16966          %DCL_AUTO_LX_ITEM (@NAME = ETT_NODE);
       85    16970          %DCL_AUTO_LX_ITEM (@NAME = ONE);
       86    16974
       87    16975
       88    16976    1   DCL 1 REC_INFO,
       89    16977              %INDEX_INFO;
       90    16992
       91    16993    1   DCL 1 SEND_INFO,
       92    16994               %INDEX_INFO;
       93    17009
       94    17010        %EJECT;
PL6.E3A0      #001=Z8EX$SET_INDEX File=Z8EX.:Z8A6TSI                             SAT 08/09/97 12:54 Page:30
       95    17011    1   SET_INDEX_FROM_OCC : PROC (OCC$);

  17011 22 000003   200224 741300       SET_INDEX_F* STX1  ! @SEND$+1,,AUTO

       96    17012
       97    17013    2     DCL OCC$ PTR;  /* to LX_ITEM */
       98    17014
       99    17015    2     DCL 1 LDAQSTAQ,
      100    17016    2           2 WORD1 SBIN,
      101    17017    2           2 WORD2 SBIN;
      102    17018    2     DCL 1 CHAR_LDAQSTAQ REDEF LDAQSTAQ CHAR(8);
      103    17019
      104    17020
      105    17021          /* Semantic checks for SET_INDEX_FROM_OCC:
      106    17022                  Identifier must be integer;
      107    17023                  Number must be integer (possibly signed, although
      108    17024                                          sign must be positive)
      109    17025          */
      110    17026    3     DO SELECT (OCC$ -> LX_ITEM.ID);

  17026 22 000004   200225 470500                    LDP0    @OCC$,,AUTO
        22 000005   000000 471500                    LDP1    0,,PR0
        22 000006   100000 220100                    LDX0    0,,PR1
        22 000007   000013 600000 22                 TZE     s:17029
        22 000010   000004 100003                    CMPX0   4,DU
        22 000011   000051 601000 22                 TNZ     s:17071
        22 000012   000044 710000 22                 TRA     s:17068

      111    17027
      112    17028    3       SELECT(%LX_TERMINAL);

      113    17029    3         CALL Z8CO$CHECK_POS_INT_TERM (OCC$)

  17029 22 000013   200225 630500                    EPPR0   @OCC$,,AUTO
        22 000014   000000 631400 23                 EPPR1   0
        22 000015   000000 701000 xent               TSX1    Z8CO$CHECK_POS_INT_TERM
        22 000016   000020 702000 22                 TSX2    s:17045
PL6.E3A0      #001=Z8EX$SET_INDEX File=Z8EX.:Z8A6TSI                             SAT 08/09/97 12:54 Page:31
        22 000017   000043 710000 22                 TRA     s:17065

      114    17030    3           WHENALTRETURN
      115    17031    4             DO;

      116    17032                    %CONDITIONAL_ERROR (@LX_ITEM$ = OCC$,
      117    17033                                        @ERROR# = %E$POSITIVE_INTEGER_EXPECTED,
      118    17034                                        @LINE = OCC$ -> LX_TERMINAL.LINE,
      119    17035                                        @COLUMN = OCC$ -> LX_TERMINAL.COLUMN);

  17045 22 000020   200225 470500                    LDP0    @OCC$,,AUTO
        22 000021   000000 471500                    LDP1    0,,PR0
        22 000022   100000 236100                    LDQ     0,,PR1
        22 000023   400000 316007                    CANQ    -131072,DL
        22 000024   000043 601000 22                 TNZ     s:17065

  17047 22 000025   100006 633500                    EPPR3   6,,PR1
        22 000026   200232 453500                    STP3    DIM+3,,AUTO
        22 000027   100005 634500                    EPPR4   5,,PR1
        22 000030   200231 454500                    STP4    DIM+2,,AUTO
        22 000031   000003 236000 23                 LDQ     3
        22 000032   200230 756100                    STQ     DIM+1,,AUTO
        22 000033   200230 630500                    EPPR0   DIM+1,,AUTO
        22 000034   000001 631400 23                 EPPR1   1
        22 000035   000000 701000 xent               TSX1    Z8AE$ERROR
        22 000036   000000 011000                    NOP     0

  17056 22 000037   200225 470500                    LDP0    @OCC$,,AUTO
        22 000040   000000 471500                    LDP1    0,,PR0
        22 000041   400000 236007                    LDQ     -131072,DL
        22 000042   100000 256100                    ORSQ    0,,PR1

      120    17065    4             END;

  17065 22 000043   000055 710000 22                 TRA     s:17074

      121    17066
PL6.E3A0      #001=Z8EX$SET_INDEX File=Z8EX.:Z8A6TSI                             SAT 08/09/97 12:54 Page:32
      122    17067    3       SELECT(%LX_ETT_ITEM);

      123    17068    3         CALL Z8CO$INTEGER_CHECK(OCC$);

  17068 22 000044   200225 630500                    EPPR0   @OCC$,,AUTO
        22 000045   000000 631400 23                 EPPR1   0
        22 000046   000000 701000 xent               TSX1    Z8CO$INTEGER_CHECK
        22 000047   000000 011000                    NOP     0
        22 000050   000055 710000 22                 TRA     s:17074

      124    17069
      125    17070    3       SELECT(ELSE);

      126    17071    3         CALL Z8AE$ERROR (%E$UNEXPECTED_CASE);

  17071 22 000051   000005 630400 23                 EPPR0   5
        22 000052   000000 631400 23                 EPPR1   0
        22 000053   000000 701000 xent               TSX1    Z8AE$ERROR
        22 000054   000000 011000                    NOP     0

      127    17072    3     END;

      128    17073
      129    17074    2   IF REC_INFO.ARRAY$ = ADDR(NIL) THEN

  17074 22 000055   200125 236100                    LDQ     REC_INFO+1,,AUTO
        22 000056   000006 116000 23                 CMPQ    6
        22 000057   000073 601000 22                 TNZ     s:17079

      130    17075    2     CALL Z8AE$ERROR (%E$INVALID_SET,

  17075 22 000060   200157 630500                    EPPR0   REC_INFO+27,,AUTO
        22 000061   200232 450500                    STP0    DIM+3,,AUTO
        22 000062   200156 631500                    EPPR1   REC_INFO+26,,AUTO
        22 000063   200231 451500                    STP1    DIM+2,,AUTO
        22 000064   000010 236000 23                 LDQ     8
        22 000065   200230 756100                    STQ     DIM+1,,AUTO
PL6.E3A0      #001=Z8EX$SET_INDEX File=Z8EX.:Z8A6TSI                             SAT 08/09/97 12:54 Page:33
        22 000066   200230 630500                    EPPR0   DIM+1,,AUTO
        22 000067   000001 631400 23                 EPPR1   1
        22 000070   000000 701000 xent               TSX1    Z8AE$ERROR
        22 000071   000000 011000                    NOP     0
        22 000072   000312 710000 22                 TRA     s:17175

      131    17076    2                      REC_INFO.LINE,
      132    17077    2                      REC_INFO.COLUMN);
      133    17078    2   ELSE
      134    17079    2     IF OCC$ -> LX_ITEM.ID = %LX_TERMINAL

  17079 22 000073   200225 470500                    LDP0    @OCC$,,AUTO
        22 000074   000000 471500                    LDP1    0,,PR0
        22 000075   100000 220100                    LDX0    0,,PR1
        22 000076   000203 601000 22                 TNZ     s:17133
        22 000077   100003 235100                    LDA     3,,PR1
        22 000100   000025 115007                    CMPA    21,DL
        22 000101   000203 601000 22                 TNZ     s:17133
        22 000102   200124 473500                    LDP3    REC_INFO,,AUTO
        22 000103   300002 221100                    LDX1    2,,PR3
        22 000104   000011 101003                    CMPX1   9,DU
        22 000105   000203 601000 22                 TNZ     s:17133

      135    17080    2          AND OCC$ -> LX_TERMINAL.SYMBOL = %NUMBER
      136    17081    2          AND REC_INFO.ST$ -> VARIABLE.TYPE = %TYX THEN
      137    17082    3       DO;

      138    17083              /* Local opt to build a 2 word constant so that a
      139    17084                 LDAQ/STAQ may be done
      140    17085              */
      141    17086    3         CALL Z8EV$CONVERT (%TYI,

  17086 22 000106   200104 634500                    EPPR4   ETT_NODE,,AUTO
        22 000107   200230 454500                    STP4    DIM+1,,AUTO
        22 000110   200230 631500                    EPPR1   DIM+1,,AUTO
        22 000111   200233 451500                    STP1    DIM+4,,AUTO
        22 000112   200225 236100                    LDQ     @OCC$,,AUTO
PL6.E3A0      #001=Z8EX$SET_INDEX File=Z8EX.:Z8A6TSI                             SAT 08/09/97 12:54 Page:34
        22 000113   200232 756100                    STQ     DIM+3,,AUTO
        22 000114   000012 236000 23                 LDQ     10
        22 000115   200231 756100                    STQ     DIM+2,,AUTO
        22 000116   200231 630500                    EPPR0   DIM+2,,AUTO
        22 000117   000001 631400 23                 EPPR1   1
        22 000120   000000 701000 xent               TSX1    Z8EV$CONVERT
        22 000121   000000 011000                    NOP     0

      142    17087    3                            OCC$,
      143    17088    3                            ADDR(ETT_NODE));
      144    17089
      145    17090    3         LDAQSTAQ.WORD2 = ADDR(ETT_NODE) -> LX_ETT_ITEM.ETT$ ->

  17090 22 000122   200105 470500                    LDP0    ETT_NODE+1,,AUTO
        22 000123   000001 471500                    LDP1    1,,PR0
        22 000124   100010 235100                    LDA     8,,PR1
        22 000125   200227 755100                    STA     DIMS$+1,,AUTO

      146    17091    3                              ETT.LOP -> CONST.CONSTI.WORD1;
      147    17092
      148    17093    3         LDAQSTAQ.WORD1 = LDAQSTAQ.WORD2 * REC_INFO.SPAN;

  17093 22 000126   200227 236100                    LDQ     DIMS$+1,,AUTO
        22 000127   200162 402100                    MPY     REC_INFO+30,,AUTO
        22 000130   200226 756100                    STQ     LDAQSTAQ,,AUTO

      149    17094
      150    17095              %INIT_LX_ETT_ITEM (@POINTER = "ADDR(ETT_NODE)",
      151    17096                                 @TYPE = %TYA,
      152    17097                                 @LINE = OCC$ -> LX_TERMINAL.LINE,
      153    17098                                 @COLUMN = OCC$ -> LX_TERMINAL.COLUMN);

  17100 22 000131   000004 220003                    LDX0    4,DU
        22 000132   200104 740100                    STX0    ETT_NODE,,AUTO

  17101 22 000133   000000 221003                    LDX1    0,DU
        22 000134   200104 441100                    SXL1    ETT_NODE,,AUTO
PL6.E3A0      #001=Z8EX$SET_INDEX File=Z8EX.:Z8A6TSI                             SAT 08/09/97 12:54 Page:35

  17102 22 000135   000010 235007                    LDA     8,DL
        22 000136   200110 755100                    STA     ETT_NODE+4,,AUTO

  17103 22 000137   000006 236000 23                 LDQ     6
        22 000140   200113 756100                    STQ     ETT_NODE+7,,AUTO

  17104 22 000141   200105 756100                    STQ     ETT_NODE+1,,AUTO

  17105 22 000142   200106 756100                    STQ     ETT_NODE+2,,AUTO

  17107 22 000143   200225 470500                    LDP0    @OCC$,,AUTO
        22 000144   000000 471500                    LDP1    0,,PR0
        22 000145   100005 235100                    LDA     5,,PR1
        22 000146   200111 755100                    STA     ETT_NODE+5,,AUTO

  17108 22 000147   000000 471500                    LDP1    0,,PR0
        22 000150   100006 235100                    LDA     6,,PR1
        22 000151   200112 755100                    STA     ETT_NODE+6,,AUTO

      154    17120
      155    17121    3         CALL Z8AC$MAKE_TYA_CONST (CHAR_LDAQSTAQ,

  17121 22 000152   200105 631500                    EPPR1   ETT_NODE+1,,AUTO
        22 000153   200233 451500                    STP1    DIM+4,,AUTO
        22 000154   000016 236000 23                 LDQ     14
        22 000155   200232 756100                    STQ     DIM+3,,AUTO
        22 000156   000017 236000 23                 LDQ     15
        22 000157   200231 756100                    STQ     DIM+2,,AUTO
        22 000160   200226 633500                    EPPR3   LDAQSTAQ,,AUTO
        22 000161   200230 453500                    STP3    DIM+1,,AUTO
        22 000162   200230 630500                    EPPR0   DIM+1,,AUTO
        22 000163   000013 631400 23                 EPPR1   11
        22 000164   000000 701000 xent               TSX1    Z8AC$MAKE_TYA_CONST
        22 000165   000000 011000                    NOP     0

      156    17122    3                                   8,
PL6.E3A0      #001=Z8EX$SET_INDEX File=Z8EX.:Z8A6TSI                             SAT 08/09/97 12:54 Page:36
      157    17123    3                                   0,
      158    17124    3                                   ADDR(ETT_NODE) -> LX_ETT_ITEM.ETT$);
      159    17125
      160    17126    3         CALL Z8E7$MOVE (ADDR(REC_INFO.TYA),

  17126 22 000166   200126 630500                    EPPR0   REC_INFO+2,,AUTO
        22 000167   200230 450500                    STP0    DIM+1,,AUTO
        22 000170   200104 631500                    EPPR1   ETT_NODE,,AUTO
        22 000171   200231 451500                    STP1    DIM+2,,AUTO
        22 000172   200231 633500                    EPPR3   DIM+2,,AUTO
        22 000173   200233 453500                    STP3    DIM+4,,AUTO
        22 000174   200230 634500                    EPPR4   DIM+1,,AUTO
        22 000175   200232 454500                    STP4    DIM+3,,AUTO
        22 000176   200232 630500                    EPPR0   DIM+3,,AUTO
        22 000177   000020 631400 23                 EPPR1   16
        22 000200   000000 701000 xent               TSX1    Z8E7$MOVE
        22 000201   000000 011000                    NOP     0

      161    17127    3                         ADDR(ETT_NODE));
      162    17128    3       END;

  17128 22 000202   000312 710000 22                 TRA     s:17175

      163    17129    2     ELSE
      164    17130    3       DO;

      165    17131              /* Set each field of the index item separately */
      166    17132
      167    17133    3         CALL Z8E7$MOVE (ADDR(REC_INFO.OCC),

  17133 22 000203   200136 633500                    EPPR3   REC_INFO+10,,AUTO
        22 000204   200230 453500                    STP3    DIM+1,,AUTO
        22 000205   200225 236100                    LDQ     @OCC$,,AUTO
        22 000206   200233 756100                    STQ     DIM+4,,AUTO
        22 000207   200230 631500                    EPPR1   DIM+1,,AUTO
        22 000210   200232 451500                    STP1    DIM+3,,AUTO
        22 000211   200232 630500                    EPPR0   DIM+3,,AUTO
PL6.E3A0      #001=Z8EX$SET_INDEX File=Z8EX.:Z8A6TSI                             SAT 08/09/97 12:54 Page:37
        22 000212   000020 631400 23                 EPPR1   16
        22 000213   000000 701000 xent               TSX1    Z8E7$MOVE
        22 000214   000000 011000                    NOP     0

      168    17134    3                         OCC$);
      169    17135
      170    17136    3         CALL Z8AC$LX_ETT_ITEM_TYI_CONST ( REC_INFO.SPAN,

  17136 22 000215   200064 630500                    EPPR0   REC_SPAN_NODE,,AUTO
        22 000216   200230 450500                    STP0    DIM+1,,AUTO
        22 000217   200230 631500                    EPPR1   DIM+1,,AUTO
        22 000220   200233 451500                    STP1    DIM+4,,AUTO
        22 000221   200162 633500                    EPPR3   REC_INFO+30,,AUTO
        22 000222   200232 453500                    STP3    DIM+3,,AUTO
        22 000223   200232 630500                    EPPR0   DIM+3,,AUTO
        22 000224   000020 631400 23                 EPPR1   16
        22 000225   000000 701000 xent               TSX1    Z8AC$LX_ETT_ITEM_TYI_CONST
        22 000226   000000 011000                    NOP     0

      171    17137    3                                                ADDR(REC_SPAN_NODE));
      172    17138
      173    17139              %INIT_BINARY_OP (@POINTER = "ADDR(MULT_NODE)",
      174    17140                               @LINE = "REC_INFO.LINE",
      175    17141                               @BERR = OCC$ -> LX_ITEM.B.ERROR,
      176    17142                               @COLUMN = "REC_INFO.COLUMN",
      177    17143                               @ROP$ = OCC$,
      178    17144                               @LOP$ = "ADDR(REC_SPAN_NODE)",
      179    17145                               @OP = %OP_STAR);

  17147 22 000227   000005 220003                    LDX0    5,DU
        22 000230   200074 740100                    STX0    MULT_NODE,,AUTO

  17148 22 000231   000000 221003                    LDX1    0,DU
        22 000232   200074 441100                    SXL1    MULT_NODE,,AUTO

  17150 22 000233   200225 470500                    LDP0    @OCC$,,AUTO
        22 000234   000000 471500                    LDP1    0,,PR0
PL6.E3A0      #001=Z8EX$SET_INDEX File=Z8EX.:Z8A6TSI                             SAT 08/09/97 12:54 Page:38
        22 000235   100000 236100                    LDQ     0,,PR1
        22 000236   200074 676100                    ERQ     MULT_NODE,,AUTO
        22 000237   400000 376007                    ANQ     -131072,DL
        22 000240   200074 656100                    ERSQ    MULT_NODE,,AUTO

  17155 22 000241   200156 235100                    LDA     REC_INFO+26,,AUTO
        22 000242   200101 755100                    STA     MULT_NODE+5,,AUTO

  17156 22 000243   200157 236100                    LDQ     REC_INFO+27,,AUTO
        22 000244   200102 756100                    STQ     MULT_NODE+6,,AUTO

  17157 22 000245   000000 236100                    LDQ     0,,PR0
        22 000246   200076 756100                    STQ     MULT_NODE+2,,AUTO

  17158 22 000247   200064 631500                    EPPR1   REC_SPAN_NODE,,AUTO
        22 000250   200075 451500                    STP1    MULT_NODE+1,,AUTO

  17159 22 000251   000022 235007                    LDA     18,DL
        22 000252   200077 755100                    STA     MULT_NODE+3,,AUTO

  17160 22 000253   000006 236000 23                 LDQ     6
        22 000254   200103 756100                    STQ     MULT_NODE+7,,AUTO

      180    17163
      181    17164              /* Local opt to use binary values when possible */
      182    17165    3         IF ADDR(REC_INFO.OCC) -> VARIABLE.TYPE = %TYI THEN

  17165 22 000255   200140 222100                    LDX2    REC_INFO+12,,AUTO
        22 000256   000001 102003                    CMPX2   1,DU
        22 000257   000262 601000 22                 TNZ     s:17168

      183    17166    3           ADDR(MULT_NODE) -> BINARY_OP.ROP$ = ADDR(REC_INFO.OCC);

  17166 22 000260   200136 633500                    EPPR3   REC_INFO+10,,AUTO
        22 000261   200076 453500                    STP3    MULT_NODE+2,,AUTO

      184    17167
PL6.E3A0      #001=Z8EX$SET_INDEX File=Z8EX.:Z8A6TSI                             SAT 08/09/97 12:54 Page:39
      185    17168    3         CALL Z8E5$MATH_PACK (ADDR(MULT_NODE),

  17168 22 000262   200074 633500                    EPPR3   MULT_NODE,,AUTO
        22 000263   200230 453500                    STP3    DIM+1,,AUTO
        22 000264   200104 634500                    EPPR4   ETT_NODE,,AUTO
        22 000265   200231 454500                    STP4    DIM+2,,AUTO
        22 000266   200231 635500                    EPPR5   DIM+2,,AUTO
        22 000267   200233 455500                    STP5    DIM+4,,AUTO
        22 000270   200230 636500                    EPPR6   DIM+1,,AUTO
        22 000271   200232 456500                    STP6    DIM+3,,AUTO
        22 000272   200232 630500                    EPPR0   DIM+3,,AUTO
        22 000273   000020 631400 23                 EPPR1   16
        22 000274   000000 701000 xent               TSX1    Z8E5$MATH_PACK
        22 000275   000000 011000                    NOP     0

      186    17169    3                              ADDR(ETT_NODE));
      187    17170
      188    17171    3         CALL Z8E7$MOVE (ADDR(REC_INFO.SPAN_OCC),

  17171 22 000276   200146 630500                    EPPR0   REC_INFO+18,,AUTO
        22 000277   200230 450500                    STP0    DIM+1,,AUTO
        22 000300   200104 631500                    EPPR1   ETT_NODE,,AUTO
        22 000301   200231 451500                    STP1    DIM+2,,AUTO
        22 000302   200231 633500                    EPPR3   DIM+2,,AUTO
        22 000303   200233 453500                    STP3    DIM+4,,AUTO
        22 000304   200230 634500                    EPPR4   DIM+1,,AUTO
        22 000305   200232 454500                    STP4    DIM+3,,AUTO
        22 000306   200232 630500                    EPPR0   DIM+3,,AUTO
        22 000307   000020 631400 23                 EPPR1   16
        22 000310   000000 701000 xent               TSX1    Z8E7$MOVE
        22 000311   000000 011000                    NOP     0

      189    17172    3                         ADDR(ETT_NODE));
      190    17173
      191    17174    3       END;

      192    17175    2   END SET_INDEX_FROM_OCC;
PL6.E3A0      #001=Z8EX$SET_INDEX File=Z8EX.:Z8A6TSI                             SAT 08/09/97 12:54 Page:40

  17175 22 000312   200224 221300                    LDX1  ! @SEND$+1,,AUTO
        22 000313   000001 702211                    TSX2  ! 1,X1

      193    17176
      194    17177        %EJECT;
PL6.E3A0      #001=Z8EX$SET_INDEX File=Z8EX.:Z8A6TSI                             SAT 08/09/97 12:54 Page:41
      195    17178    1   RESOLVE_INDEX_REFERENCES : PROC (INDEX$,

  17178 22 000314   200222 741300       RESOLVE_IND* STX1  ! SEND_INFO+31,,AUTO

      196    17179    1                                    INDEX_INFO,
      197    17180    1                                    SUBSCRIPT$);
      198    17181
      199    17182    2     DCL INDEX$ PTR;  /* to LX_ETT_ITEM */
      200    17183    2     DCL 1 INDEX_INFO ALIGNED,
      201    17184                %INDEX_INFO;
      202    17199    2     DCL SUBSCRIPT$ PTR;
      203    17200
      204    17201    2     DCL DIMS$ PTR;
      205    17202    2     DCL DIM SBIN WORD;
      206    17203
      207    17204
      208    17205    2   INDEX_INFO.INDEX_TYPE = TRUE;

  17205 22 000315   400000 236003                    LDQ     -131072,DU
        22 000316   200224 470500                    LDP0    @INDEX_INFO,,AUTO
        22 000317   000035 756100                    STQ     29,,PR0

      209    17206
      210    17207        %FISH (TRIAD = "INDEX$ -> LX_ETT_ITEM.ETT$",
      211    17208               RTN = INDEX_INFO.ST$);

  17210 22 000320   200223 471500                    LDP1    @INDEX$,,AUTO
        22 000321   100000 473500                    LDP3    0,,PR1
        22 000322   300001 236100                    LDQ     1,,PR3
        22 000323   000000 756100                    STQ     0,,PR0

  17211 22 000324   000000 473500                    LDP3    0,,PR0
        22 000325   300000 220100                    LDX0    0,,PR3
        22 000326   000751 100003                    CMPX0   489,DU
        22 000327   000340 603000 22                 TRC     s:17217

  17212 22 000330   200224 470500                    LDP0    @INDEX_INFO,,AUTO
PL6.E3A0      #001=Z8EX$SET_INDEX File=Z8EX.:Z8A6TSI                             SAT 08/09/97 12:54 Page:42
        22 000331   000000 471500                    LDP1    0,,PR0
        22 000332   100001 236100                    LDQ     1,,PR1
        22 000333   000000 756100                    STQ     0,,PR0

  17213 22 000334   000000 471500                    LDP1    0,,PR0
        22 000335   100000 220100                    LDX0    0,,PR1
        22 000336   000751 100003                    CMPX0   489,DU
        22 000337   000330 602000 22                 TNC     s:17212

      212    17216
      213    17217    2   INDEX_INFO.LINE = INDEX$ -> LX_ETT_ITEM.LINE;

  17217 22 000340   200223 471500                    LDP1    @INDEX$,,AUTO
        22 000341   100000 473500                    LDP3    0,,PR1
        22 000342   300005 235100                    LDA     5,,PR3
        22 000343   000032 755100                    STA     26,,PR0

      214    17218    2   INDEX_INFO.COLUMN = INDEX$ -> LX_ETT_ITEM.COLUMN;

  17218 22 000344   100000 473500                    LDP3    0,,PR1
        22 000345   300006 235100                    LDA     6,,PR3
        22 000346   000033 755100                    STA     27,,PR0

      215    17219    2   INDEX_INFO.TYPE = INDEX$ -> LX_ETT_ITEM.TYPE;

  17219 22 000347   100000 473500                    LDP3    0,,PR1
        22 000350   300004 235100                    LDA     4,,PR3
        22 000351   000034 755100                    STA     28,,PR0

      216    17220
      217    17221    3   DO SELECT (INDEX_INFO.ST$ -> SCALAR.TYPE);

  17221 22 000352   000000 473500                    LDP3    0,,PR0
        22 000353   300002 236100                    LDQ     2,,PR3
        22 000354   000022 772000                    QRL     18
        22 000355   000012 116007                    CMPQ    10,DL
        22 000356   000361 602000 22                 TNC     s:17221+7
PL6.E3A0      #001=Z8EX$SET_INDEX File=Z8EX.:Z8A6TSI                             SAT 08/09/97 12:54 Page:43
        22 000357   000365 600000 22                 TZE     s:17224
        22 000360   000447 710000 22                 TRA     s:17298
        22 000361   300002 220100                    LDX0    2,,PR3
        22 000362   000011 100003                    CMPX0   9,DU
        22 000363   000447 601000 22                 TNZ     s:17298
        22 000364   000371 710000 22                 TRA     s:17229

      218    17222
      219    17223    3     SELECT(%TYY);

      220    17224    3       INDEX_INFO.ARRAY$ = ADDR(NIL);

  17224 22 000365   000006 236000 23                 LDQ     6
        22 000366   000001 756100                    STQ     1,,PR0

      221    17225    3       INDEX_INFO.SPAN   = 0;

  17225 22 000367   000036 450100                    STZ     30,,PR0
        22 000370   000453 710000 22                 TRA     s:17301

      222    17226
      223    17227    3     SELECT(%TYX);

      224    17228
      225    17229    3       IF INDEX_INFO.ST$ -> ST.ID = %ARRAY

  17229 22 000371   300000 221100                    LDX1    0,,PR3
        22 000372   000765 101003                    CMPX1   501,DU
        22 000373   000403 600000 22                 TZE     s:17234
        22 000374   300005 236100                    LDQ     5,,PR3
        22 000375   000006 116000 23                 CMPQ    6
        22 000376   000403 600000 22                 TZE     s:17234
        22 000377   300005 474500                    LDP4    5,,PR3
        22 000400   400000 222100                    LDX2    0,,PR4
        22 000401   000765 102003                    CMPX2   501,DU
        22 000402   000407 600000 22                 TZE     s:17239

PL6.E3A0      #001=Z8EX$SET_INDEX File=Z8EX.:Z8A6TSI                             SAT 08/09/97 12:54 Page:44
      226    17230    3             OR INDEX_INFO.ST$ -> SCALAR.LTS$ = ADDR(NIL)
      227    17231    3             OR INDEX_INFO.ST$ -> SCALAR.LTS$ -> ST.ID ~= %ARRAY THEN
      228    17232    4         DO;

      229    17233                /* This must be an optimized TYY item */
      230    17234    4           INDEX_INFO.ARRAY$ = ADDR(NIL);

  17234 22 000403   000006 236000 23                 LDQ     6
        22 000404   000001 756100                    STQ     1,,PR0

      231    17235    4           INDEX_INFO.SPAN   = 0;

  17235 22 000405   000036 450100                    STZ     30,,PR0

      232    17236    4         END;

  17236 22 000406   000453 710000 22                 TRA     s:17301

      233    17237    3       ELSE
      234    17238    4         DO;  /* This is a real TYX */

      235    17239    4           INDEX_INFO.ARRAY$ = INDEX_INFO.ST$ -> SCALAR.LTS$;

  17239 22 000407   000001 756100                    STQ     1,,PR0

      236    17240
      237    17241                %GET_LTS (@ID = %DIMS,
      238    17242                          @ST$ = INDEX_INFO.ARRAY$,
      239    17243                          @RETURN$ = DIMS$);

  17245 22 000410   000001 474500                    LDP4    1,,PR0
        22 000411   400005 236100                    LDQ     5,,PR4
        22 000412   000006 116000 23                 CMPQ    6
        22 000413   000423 600000 22                 TZE     s:17279
        22 000414   400005 475500                    LDP5    5,,PR4
        22 000415   500000 220100                    LDX0    0,,PR5
        22 000416   001105 100003                    CMPX0   581,DU
PL6.E3A0      #001=Z8EX$SET_INDEX File=Z8EX.:Z8A6TSI                             SAT 08/09/97 12:54 Page:45
        22 000417   000423 601000 22                 TNZ     s:17279

  17249 22 000420   500001 236100                    LDQ     1,,PR5
        22 000421   200226 756100                    STQ     DIMS$,,AUTO

  17277 22 000422   000435 710000 22                 TRA     s:17290

  17279 22 000423   000006 116000 23                 CMPQ    6
        22 000424   000433 600000 22                 TZE     s:17283
        22 000425   400005 475500                    LDP5    5,,PR4
        22 000426   500000 220100                    LDX0    0,,PR5
        22 000427   001104 100003                    CMPX0   580,DU
        22 000430   000433 601000 22                 TNZ     s:17283

  17281 22 000431   200226 756100                    STQ     DIMS$,,AUTO
        22 000432   000435 710000 22                 TRA     s:17290

  17283 22 000433   000006 236000 23                 LDQ     6
        22 000434   200226 756100                    STQ     DIMS$,,AUTO

      240    17286
      241    17287                %FIND_LAST_DIM (POINTER = DIMS$,
      242    17288                                 VARIABLE = DIM);

  17290 22 000435   200226 475500                    LDP5    DIMS$,,AUTO
        22 000436   500000 236100                    LDQ     0,,PR5
        22 000437   777777 376007                    ANQ     -1,DL
        22 000440   000005 136007                    SBLQ    5,DL
        22 000441   000003 506007                    DIV     3,DL
        22 000442   200227 756100                    STQ     DIM,,AUTO

      243    17293
      244    17294    4           INDEX_INFO.SPAN = DIMS$ -> DIMS.D.SPAN(DIM);

  17294 22 000443   000003 402007                    MPY     3,DL
        22 000444   500002 235106                    LDA     2,QL,PR5
        22 000445   000036 755100                    STA     30,,PR0
PL6.E3A0      #001=Z8EX$SET_INDEX File=Z8EX.:Z8A6TSI                             SAT 08/09/97 12:54 Page:46

      245    17295    4         END;

  17295 22 000446   000453 710000 22                 TRA     s:17301

      246    17296
      247    17297    3     SELECT(ELSE);

      248    17298    3       CALL Z8AE$ERROR(%E$UNEXPECTED_CASE);

  17298 22 000447   000005 630400 23                 EPPR0   5
        22 000450   000000 631400 23                 EPPR1   0
        22 000451   000000 701000 xent               TSX1    Z8AE$ERROR
        22 000452   000000 011000                    NOP     0

      249    17299    3   END;  /* DO SELECT */

      250    17300
      251    17301    2   CALL Z8EU$CREATE_IDENTIFIER_FROM_ST(

  17301 22 000453   200224 470500                    LDP0    @INDEX_INFO,,AUTO
        22 000454   000000 471500                    LDP1    0,,PR0
        22 000455   100007 473500                    LDP3    7,,PR1
        22 000456   300002 474500                    LDP4    2,,PR3
        22 000457   200224 236100                    LDQ     @INDEX_INFO,,AUTO
        22 000460   000002 036003                    ADLQ    2,DU
        22 000461   200230 756100                    STQ     DIM+1,,AUTO
        22 000462   200224 236100                    LDQ     @INDEX_INFO,,AUTO
        22 000463   000033 036003                    ADLQ    27,DU
        22 000464   200235 756100                    STQ     DIM+6,,AUTO
        22 000465   200224 236100                    LDQ     @INDEX_INFO,,AUTO
        22 000466   000032 036003                    ADLQ    26,DU
        22 000467   200234 756100                    STQ     DIM+5,,AUTO
        22 000470   200230 631500                    EPPR1   DIM+1,,AUTO
        22 000471   200233 451500                    STP1    DIM+4,,AUTO
        22 000472   400004 633500                    EPPR3   4,,PR4
        22 000473   200232 453500                    STP3    DIM+3,,AUTO
PL6.E3A0      #001=Z8EX$SET_INDEX File=Z8EX.:Z8A6TSI                             SAT 08/09/97 12:54 Page:47
        22 000474   200232 630500                    EPPR0   DIM+3,,AUTO
        22 000475   000013 631400 23                 EPPR1   11
        22 000476   000000 701000 xent               TSX1    Z8EU$CREATE_IDENTIFIER_FROM_ST
        22 000477   000000 011000                    NOP     0

      252    17302    2           INDEX_INFO.ST$ -> SCALAR.QLT$ -> QLT.BROTHER -> QLT.ST$,
      253    17303    2           ADDR(INDEX_INFO.TYA),
      254    17304    2           INDEX_INFO.LINE,
      255    17305    2           INDEX_INFO.COLUMN);
      256    17306
      257    17307    2   CALL Z8EU$CREATE_IDENTIFIER_FROM_ST (

  17307 22 000500   200224 470500                    LDP0    @INDEX_INFO,,AUTO
        22 000501   000000 471500                    LDP1    0,,PR0
        22 000502   100007 473500                    LDP3    7,,PR1
        22 000503   300002 474500                    LDP4    2,,PR3
        22 000504   400003 475500                    LDP5    3,,PR4
        22 000505   200224 236100                    LDQ     @INDEX_INFO,,AUTO
        22 000506   000022 036003                    ADLQ    18,DU
        22 000507   200230 756100                    STQ     DIM+1,,AUTO
        22 000510   200224 236100                    LDQ     @INDEX_INFO,,AUTO
        22 000511   000033 036003                    ADLQ    27,DU
        22 000512   200235 756100                    STQ     DIM+6,,AUTO
        22 000513   200224 236100                    LDQ     @INDEX_INFO,,AUTO
        22 000514   000032 036003                    ADLQ    26,DU
        22 000515   200234 756100                    STQ     DIM+5,,AUTO
        22 000516   200230 631500                    EPPR1   DIM+1,,AUTO
        22 000517   200233 451500                    STP1    DIM+4,,AUTO
        22 000520   500004 633500                    EPPR3   4,,PR5
        22 000521   200232 453500                    STP3    DIM+3,,AUTO
        22 000522   200232 630500                    EPPR0   DIM+3,,AUTO
        22 000523   000013 631400 23                 EPPR1   11
        22 000524   000000 701000 xent               TSX1    Z8EU$CREATE_IDENTIFIER_FROM_ST
        22 000525   000000 011000                    NOP     0

      258    17308    2               INDEX_INFO.ST$ -> SCALAR.QLT$ -> QLT.BROTHER
      259    17309    2                               -> QLT.SON -> QLT.ST$,
PL6.E3A0      #001=Z8EX$SET_INDEX File=Z8EX.:Z8A6TSI                             SAT 08/09/97 12:54 Page:48
      260    17310    2               ADDR(INDEX_INFO.SPAN_OCC),
      261    17311    2               INDEX_INFO.LINE,
      262    17312    2               INDEX_INFO.COLUMN);
      263    17313
      264    17314    2   CALL Z8EU$CREATE_IDENTIFIER_FROM_ST(

  17314 22 000526   200224 470500                    LDP0    @INDEX_INFO,,AUTO
        22 000527   000000 471500                    LDP1    0,,PR0
        22 000530   100007 473500                    LDP3    7,,PR1
        22 000531   300002 474500                    LDP4    2,,PR3
        22 000532   400003 475500                    LDP5    3,,PR4
        22 000533   500002 476500                    LDP6    2,,PR5
        22 000534   200224 236100                    LDQ     @INDEX_INFO,,AUTO
        22 000535   000012 036003                    ADLQ    10,DU
        22 000536   200230 756100                    STQ     DIM+1,,AUTO
        22 000537   200224 236100                    LDQ     @INDEX_INFO,,AUTO
        22 000540   000033 036003                    ADLQ    27,DU
        22 000541   200235 756100                    STQ     DIM+6,,AUTO
        22 000542   200224 236100                    LDQ     @INDEX_INFO,,AUTO
        22 000543   000032 036003                    ADLQ    26,DU
        22 000544   200234 756100                    STQ     DIM+5,,AUTO
        22 000545   200230 631500                    EPPR1   DIM+1,,AUTO
        22 000546   200233 451500                    STP1    DIM+4,,AUTO
        22 000547   600004 633500                    EPPR3   4,,PR6
        22 000550   200232 453500                    STP3    DIM+3,,AUTO
        22 000551   200232 630500                    EPPR0   DIM+3,,AUTO
        22 000552   000013 631400 23                 EPPR1   11
        22 000553   000000 701000 xent               TSX1    Z8EU$CREATE_IDENTIFIER_FROM_ST
        22 000554   000000 011000                    NOP     0

      265    17315    2               INDEX_INFO.ST$ -> SCALAR.QLT$ -> QLT.BROTHER -> QLT.SON
      266    17316    2                          -> QLT.BROTHER -> QLT.ST$,
      267    17317    2               ADDR(INDEX_INFO.OCC),
      268    17318    2               INDEX_INFO.LINE,
      269    17319    2               INDEX_INFO.COLUMN);
      270    17320
      271    17321    2   IF ADDR(SUBSCRIPT$) ~= ADDR(NIL)
PL6.E3A0      #001=Z8EX$SET_INDEX File=Z8EX.:Z8A6TSI                             SAT 08/09/97 12:54 Page:49

  17321 22 000555   200225 236100                    LDQ     @SUBSCRIPT$,,AUTO
        22 000556   000006 116000 23                 CMPQ    6
        22 000557   000625 600000 22                 TZE     s:17332
        22 000560   200225 470500                    LDP0    @SUBSCRIPT$,,AUTO
        22 000561   000000 236100                    LDQ     0,,PR0
        22 000562   000006 116000 23                 CMPQ    6
        22 000563   000625 600000 22                 TZE     s:17332

      272    17322    2        AND SUBSCRIPT$ ~= ADDR(NIL) THEN
      273    17323    3     DO;

      274    17324    3       CALL Z8EY$SUBSCRIPT (SUBSCRIPT$,

  17324 22 000564   200224 236100                    LDQ     @INDEX_INFO,,AUTO
        22 000565   000002 036003                    ADLQ    2,DU
        22 000566   200230 756100                    STQ     DIM+1,,AUTO
        22 000567   200230 631500                    EPPR1   DIM+1,,AUTO
        22 000570   200233 451500                    STP1    DIM+4,,AUTO
        22 000571   200225 236100                    LDQ     @SUBSCRIPT$,,AUTO
        22 000572   200232 756100                    STQ     DIM+3,,AUTO
        22 000573   200232 630500                    EPPR0   DIM+3,,AUTO
        22 000574   000020 631400 23                 EPPR1   16
        22 000575   000000 701000 xent               TSX1    Z8EY$SUBSCRIPT
        22 000576   000000 011000                    NOP     0

      275    17325    3                            ADDR(INDEX_INFO.TYA));
      276    17326    3       CALL Z8EY$SUBSCRIPT (SUBSCRIPT$,

  17326 22 000577   200224 236100                    LDQ     @INDEX_INFO,,AUTO
        22 000600   000022 036003                    ADLQ    18,DU
        22 000601   200230 756100                    STQ     DIM+1,,AUTO
        22 000602   200230 630500                    EPPR0   DIM+1,,AUTO
        22 000603   200233 450500                    STP0    DIM+4,,AUTO
        22 000604   200225 236100                    LDQ     @SUBSCRIPT$,,AUTO
        22 000605   200232 756100                    STQ     DIM+3,,AUTO
        22 000606   200232 630500                    EPPR0   DIM+3,,AUTO
PL6.E3A0      #001=Z8EX$SET_INDEX File=Z8EX.:Z8A6TSI                             SAT 08/09/97 12:54 Page:50
        22 000607   000020 631400 23                 EPPR1   16
        22 000610   000000 701000 xent               TSX1    Z8EY$SUBSCRIPT
        22 000611   000000 011000                    NOP     0

      277    17327    3                            ADDR(INDEX_INFO.SPAN_OCC));
      278    17328    3       CALL Z8EY$SUBSCRIPT (SUBSCRIPT$,

  17328 22 000612   200224 236100                    LDQ     @INDEX_INFO,,AUTO
        22 000613   000012 036003                    ADLQ    10,DU
        22 000614   200230 756100                    STQ     DIM+1,,AUTO
        22 000615   200230 630500                    EPPR0   DIM+1,,AUTO
        22 000616   200233 450500                    STP0    DIM+4,,AUTO
        22 000617   200225 236100                    LDQ     @SUBSCRIPT$,,AUTO
        22 000620   200232 756100                    STQ     DIM+3,,AUTO
        22 000621   200232 630500                    EPPR0   DIM+3,,AUTO
        22 000622   000020 631400 23                 EPPR1   16
        22 000623   000000 701000 xent               TSX1    Z8EY$SUBSCRIPT
        22 000624   000000 011000                    NOP     0

      279    17329    3                            ADDR(INDEX_INFO.OCC));
      280    17330    3     END;

      281    17331
      282    17332    2   END RESOLVE_INDEX_REFERENCES;

  17332 22 000625   200222 221300                    LDX1  ! SEND_INFO+31,,AUTO
        22 000626   000001 702211                    TSX2  ! 1,X1

      283    17333        %EJECT;
PL6.E3A0      #001=Z8EX$SET_INDEX File=Z8EX.:Z8A6TSI                             SAT 08/09/97 12:54 Page:51
      284    17334    1   SET_UP_DOWN : PROC (SEND$,

  17334 22 000627   200222 741300       SET_UP_DOWN  STX1  ! SEND_INFO+31,,AUTO

      285    17335    1                       EXPR_ID);
      286    17336
      287    17337    2     DCL SEND$ PTR;  /* To arith expr for incremental value */
      288    17338    2     DCL EXPR_ID SBIN WORD;  /* operation code (add or subtract) */
      289    17339
      290    17340          /* Semantic checks for SET UP or DOWN:
      291    17341                Identifier must be integer;
      292    17342                Number must be integer (possibly signed)
      293    17343          */
      294    17344    3     DO SELECT (SEND$ -> LX_ITEM.ID);

  17344 22 000630   200223 470500                    LDP0    @SEND$,,AUTO
        22 000631   000000 471500                    LDP1    0,,PR0
        22 000632   100000 220100                    LDX0    0,,PR1
        22 000633   000637 600000 22                 TZE     s:17347
        22 000634   000004 100003                    CMPX0   4,DU
        22 000635   000705 601000 22                 TNZ     s:17397
        22 000636   000670 710000 22                 TRA     s:17387

      295    17345
      296    17346    3       SELECT(%LX_TERMINAL);

      297    17347    3         CALL Z8CO$CHECK_INTEGER_TERMINAL (SEND$)

  17347 22 000637   200223 630500                    EPPR0   @SEND$,,AUTO
        22 000640   000000 631400 23                 EPPR1   0
        22 000641   000000 701000 xent               TSX1    Z8CO$CHECK_INTEGER_TERMINAL
        22 000642   000644 702000 22                 TSX2    s:17363
        22 000643   000667 710000 22                 TRA     s:17383

      298    17348    3           WHENALTRETURN
      299    17349    4             DO;

PL6.E3A0      #001=Z8EX$SET_INDEX File=Z8EX.:Z8A6TSI                             SAT 08/09/97 12:54 Page:52
      300    17350                    %CONDITIONAL_ERROR (@LX_ITEM$ = SEND$,
      301    17351                                        @ERROR# = %E$MUST_BE_INTEGER,
      302    17352                                        @LINE = SEND$ -> LX_TERMINAL.LINE,
      303    17353                                        @COLUMN = SEND$ -> LX_TERMINAL.COLUMN);

  17363 22 000644   200223 470500                    LDP0    @SEND$,,AUTO
        22 000645   000000 471500                    LDP1    0,,PR0
        22 000646   100000 236100                    LDQ     0,,PR1
        22 000647   400000 316007                    CANQ    -131072,DL
        22 000650   000667 601000 22                 TNZ     s:17383

  17365 22 000651   100006 633500                    EPPR3   6,,PR1
        22 000652   200232 453500                    STP3    DIM+3,,AUTO
        22 000653   100005 634500                    EPPR4   5,,PR1
        22 000654   200231 454500                    STP4    DIM+2,,AUTO
        22 000655   000022 236000 23                 LDQ     18
        22 000656   200230 756100                    STQ     DIM+1,,AUTO
        22 000657   200230 630500                    EPPR0   DIM+1,,AUTO
        22 000660   000001 631400 23                 EPPR1   1
        22 000661   000000 701000 xent               TSX1    Z8AE$ERROR
        22 000662   000000 011000                    NOP     0

  17374 22 000663   200223 470500                    LDP0    @SEND$,,AUTO
        22 000664   000000 471500                    LDP1    0,,PR0
        22 000665   400000 236007                    LDQ     -131072,DL
        22 000666   100000 256100                    ORSQ    0,,PR1

      304    17383    4             END;

  17383 22 000667   000711 710000 22                 TRA     s:17408

      305    17384
      306    17385    3       SELECT(%LX_ETT_ITEM);

      307    17386
      308    17387    4         DO SELECT (SEND$ -> LX_ETT_ITEM.TYPE);

PL6.E3A0      #001=Z8EX$SET_INDEX File=Z8EX.:Z8A6TSI                             SAT 08/09/97 12:54 Page:53
  17387 22 000670   100004 236100                    LDQ     4,,PR1
        22 000671   000011 116007                    CMPQ    9,DL
        22 000672   000700 602000 22                 TNC     s:17392
        22 000673   000677 600000 22                 TZE     s:17389
        22 000674   000012 116007                    CMPQ    10,DL
        22 000675   000700 601000 22                 TNZ     s:17392
        22 000676   000677 710000 22                 TRA     s:17389

      309    17388
      310    17389    4           SELECT(%TYX, %TYY);

  17389 22 000677   000711 710000 22                 TRA     s:17408

      311    17390
      312    17391    4           SELECT(ELSE);

      313    17392    4             CALL Z8CO$INTEGER_CHECK(SEND$);

  17392 22 000700   200223 630500                    EPPR0   @SEND$,,AUTO
        22 000701   000000 631400 23                 EPPR1   0
        22 000702   000000 701000 xent               TSX1    Z8CO$INTEGER_CHECK
        22 000703   000000 011000                    NOP     0

      314    17393    4         END;

  17393 22 000704   000711 710000 22                 TRA     s:17408

      315    17394
      316    17395    3       SELECT(ELSE);

      317    17396
      318    17397    3         CALL Z8AE$ERROR (%E$UNEXPECTED_CASE);

  17397 22 000705   000005 630400 23                 EPPR0   5
        22 000706   000000 631400 23                 EPPR1   0
        22 000707   000000 701000 xent               TSX1    Z8AE$ERROR
        22 000710   000000 011000                    NOP     0
PL6.E3A0      #001=Z8EX$SET_INDEX File=Z8EX.:Z8A6TSI                             SAT 08/09/97 12:54 Page:54

      319    17398    3     END;

      320    17399
      321    17400          %INIT_BINARY_OP (@POINTER = "ADDR(ADD_NODE)",
      322    17401                           @LINE = "REC_INFO.LINE",
      323    17402                           @BERR = SEND$ -> LX_ITEM.B.ERROR,
      324    17403                           @COLUMN = "REC_INFO.COLUMN",
      325    17404                           @LOP$ = "ADDR(REC_INFO.OCC)",
      326    17405                           @ROP$ = SEND$,
      327    17406                           @OP = EXPR_ID);

  17408 22 000711   000005 220003                    LDX0    5,DU
        22 000712   200034 740100                    STX0    ADD_NODE,,AUTO

  17409 22 000713   000000 221003                    LDX1    0,DU
        22 000714   200034 441100                    SXL1    ADD_NODE,,AUTO

  17411 22 000715   200223 470500                    LDP0    @SEND$,,AUTO
        22 000716   000000 471500                    LDP1    0,,PR0
        22 000717   100000 236100                    LDQ     0,,PR1
        22 000720   200034 676100                    ERQ     ADD_NODE,,AUTO
        22 000721   400000 376007                    ANQ     -131072,DL
        22 000722   200034 656100                    ERSQ    ADD_NODE,,AUTO

  17416 22 000723   200156 235100                    LDA     REC_INFO+26,,AUTO
        22 000724   200041 755100                    STA     ADD_NODE+5,,AUTO

  17417 22 000725   200157 236100                    LDQ     REC_INFO+27,,AUTO
        22 000726   200042 756100                    STQ     ADD_NODE+6,,AUTO

  17418 22 000727   000000 236100                    LDQ     0,,PR0
        22 000730   200036 756100                    STQ     ADD_NODE+2,,AUTO

  17419 22 000731   200136 631500                    EPPR1   REC_INFO+10,,AUTO
        22 000732   200035 451500                    STP1    ADD_NODE+1,,AUTO

PL6.E3A0      #001=Z8EX$SET_INDEX File=Z8EX.:Z8A6TSI                             SAT 08/09/97 12:54 Page:55
  17420 22 000733   200224 473500                    LDP3    @EXPR_ID,,AUTO
        22 000734   300000 235100                    LDA     0,,PR3
        22 000735   200037 755100                    STA     ADD_NODE+3,,AUTO

  17421 22 000736   000006 236000 23                 LDQ     6
        22 000737   200043 756100                    STQ     ADD_NODE+7,,AUTO

      328    17424
      329    17425    2     CALL Z8E5$MATH_PACK (ADDR(ADD_NODE),

  17425 22 000740   200034 634500                    EPPR4   ADD_NODE,,AUTO
        22 000741   200230 454500                    STP4    DIM+1,,AUTO
        22 000742   200104 635500                    EPPR5   ETT_NODE,,AUTO
        22 000743   200231 455500                    STP5    DIM+2,,AUTO
        22 000744   200231 636500                    EPPR6   DIM+2,,AUTO
        22 000745   200233 456500                    STP6    DIM+4,,AUTO
        22 000746   200230 637500                    EPPR7   DIM+1,,AUTO
        22 000747   200232 457500                    STP7    DIM+3,,AUTO
        22 000750   200232 630500                    EPPR0   DIM+3,,AUTO
        22 000751   000020 631400 23                 EPPR1   16
        22 000752   000000 701000 xent               TSX1    Z8E5$MATH_PACK
        22 000753   000000 011000                    NOP     0

      330    17426    2                          ADDR(ETT_NODE));
      331    17427
      332    17428    2     CALL Z8E7$MOVE (ADDR(REC_INFO.OCC),

  17428 22 000754   200136 630500                    EPPR0   REC_INFO+10,,AUTO
        22 000755   200230 450500                    STP0    DIM+1,,AUTO
        22 000756   200104 631500                    EPPR1   ETT_NODE,,AUTO
        22 000757   200231 451500                    STP1    DIM+2,,AUTO
        22 000760   200231 633500                    EPPR3   DIM+2,,AUTO
        22 000761   200233 453500                    STP3    DIM+4,,AUTO
        22 000762   200230 634500                    EPPR4   DIM+1,,AUTO
        22 000763   200232 454500                    STP4    DIM+3,,AUTO
        22 000764   200232 630500                    EPPR0   DIM+3,,AUTO
        22 000765   000020 631400 23                 EPPR1   16
PL6.E3A0      #001=Z8EX$SET_INDEX File=Z8EX.:Z8A6TSI                             SAT 08/09/97 12:54 Page:56
        22 000766   000000 701000 xent               TSX1    Z8E7$MOVE
        22 000767   000000 011000                    NOP     0

      333    17429    2                     ADDR(ETT_NODE));
      334    17430
      335    17431    2     CALL Z8AC$LX_ETT_ITEM_TYI_CONST (REC_INFO.SPAN,

  17431 22 000770   200064 630500                    EPPR0   REC_SPAN_NODE,,AUTO
        22 000771   200230 450500                    STP0    DIM+1,,AUTO
        22 000772   200230 631500                    EPPR1   DIM+1,,AUTO
        22 000773   200233 451500                    STP1    DIM+4,,AUTO
        22 000774   200162 633500                    EPPR3   REC_INFO+30,,AUTO
        22 000775   200232 453500                    STP3    DIM+3,,AUTO
        22 000776   200232 630500                    EPPR0   DIM+3,,AUTO
        22 000777   000020 631400 23                 EPPR1   16
        22 001000   000000 701000 xent               TSX1    Z8AC$LX_ETT_ITEM_TYI_CONST
        22 001001   000000 011000                    NOP     0

      336    17432    2                                      ADDR(REC_SPAN_NODE));
      337    17433
      338    17434          %INIT_BINARY_OP (@POINTER = "ADDR(MULT_NODE)",
      339    17435                           @LINE = "REC_INFO.LINE",
      340    17436                           @BERR = SEND$ -> LX_ITEM.B.ERROR,
      341    17437                           @COLUMN = "REC_INFO.COLUMN",
      342    17438                           @LOP$ = "ADDR(REC_SPAN_NODE)",
      343    17439                           @ROP$ = SEND$,
      344    17440                           @OP = %OP_STAR);

  17442 22 001002   000005 220003                    LDX0    5,DU
        22 001003   200074 740100                    STX0    MULT_NODE,,AUTO

  17443 22 001004   000000 221003                    LDX1    0,DU
        22 001005   200074 441100                    SXL1    MULT_NODE,,AUTO

  17445 22 001006   200223 470500                    LDP0    @SEND$,,AUTO
        22 001007   000000 471500                    LDP1    0,,PR0
        22 001010   100000 236100                    LDQ     0,,PR1
PL6.E3A0      #001=Z8EX$SET_INDEX File=Z8EX.:Z8A6TSI                             SAT 08/09/97 12:54 Page:57
        22 001011   200074 676100                    ERQ     MULT_NODE,,AUTO
        22 001012   400000 376007                    ANQ     -131072,DL
        22 001013   200074 656100                    ERSQ    MULT_NODE,,AUTO

  17450 22 001014   200156 235100                    LDA     REC_INFO+26,,AUTO
        22 001015   200101 755100                    STA     MULT_NODE+5,,AUTO

  17451 22 001016   200157 236100                    LDQ     REC_INFO+27,,AUTO
        22 001017   200102 756100                    STQ     MULT_NODE+6,,AUTO

  17452 22 001020   000000 236100                    LDQ     0,,PR0
        22 001021   200076 756100                    STQ     MULT_NODE+2,,AUTO

  17453 22 001022   200064 631500                    EPPR1   REC_SPAN_NODE,,AUTO
        22 001023   200075 451500                    STP1    MULT_NODE+1,,AUTO

  17454 22 001024   000022 235007                    LDA     18,DL
        22 001025   200077 755100                    STA     MULT_NODE+3,,AUTO

  17455 22 001026   000006 236000 23                 LDQ     6
        22 001027   200103 756100                    STQ     MULT_NODE+7,,AUTO

      345    17458
      346    17459    2     ADDR(ADD_NODE) -> BINARY_OP.LOP$ = ADDR(REC_INFO.SPAN_OCC);

  17459 22 001030   200146 633500                    EPPR3   REC_INFO+18,,AUTO
        22 001031   200035 453500                    STP3    ADD_NODE+1,,AUTO

      347    17460    2     ADDR(ADD_NODE) -> BINARY_OP.ROP$ = ADDR(MULT_NODE);

  17460 22 001032   200074 634500                    EPPR4   MULT_NODE,,AUTO
        22 001033   200036 454500                    STP4    ADD_NODE+2,,AUTO

      348    17461
      349    17462    2     CALL Z8E5$MATH_PACK (ADDR(ADD_NODE),

  17462 22 001034   200034 635500                    EPPR5   ADD_NODE,,AUTO
PL6.E3A0      #001=Z8EX$SET_INDEX File=Z8EX.:Z8A6TSI                             SAT 08/09/97 12:54 Page:58
        22 001035   200230 455500                    STP5    DIM+1,,AUTO
        22 001036   200104 636500                    EPPR6   ETT_NODE,,AUTO
        22 001037   200231 456500                    STP6    DIM+2,,AUTO
        22 001040   200231 637500                    EPPR7   DIM+2,,AUTO
        22 001041   200233 457500                    STP7    DIM+4,,AUTO
        22 001042   200230 630500                    EPPR0   DIM+1,,AUTO
        22 001043   200232 450500                    STP0    DIM+3,,AUTO
        22 001044   200232 630500                    EPPR0   DIM+3,,AUTO
        22 001045   000020 631400 23                 EPPR1   16
        22 001046   000000 701000 xent               TSX1    Z8E5$MATH_PACK
        22 001047   000000 011000                    NOP     0

      350    17463    2                          ADDR(ETT_NODE));
      351    17464
      352    17465    2     CALL Z8E7$MOVE (ADDR(REC_INFO.SPAN_OCC),

  17465 22 001050   200146 630500                    EPPR0   REC_INFO+18,,AUTO
        22 001051   200230 450500                    STP0    DIM+1,,AUTO
        22 001052   200104 631500                    EPPR1   ETT_NODE,,AUTO
        22 001053   200231 451500                    STP1    DIM+2,,AUTO
        22 001054   200231 633500                    EPPR3   DIM+2,,AUTO
        22 001055   200233 453500                    STP3    DIM+4,,AUTO
        22 001056   200230 634500                    EPPR4   DIM+1,,AUTO
        22 001057   200232 454500                    STP4    DIM+3,,AUTO
        22 001060   200232 630500                    EPPR0   DIM+3,,AUTO
        22 001061   000020 631400 23                 EPPR1   16
        22 001062   000000 701000 xent               TSX1    Z8E7$MOVE
        22 001063   000000 011000                    NOP     0

      353    17466    2                     ADDR(ETT_NODE));
      354    17467
      355    17468    2   END SET_UP_DOWN;

  17468 22 001064   200222 221300                    LDX1  ! SEND_INFO+31,,AUTO
        22 001065   000001 702211                    TSX2  ! 1,X1

      356    17469
PL6.E3A0      #001=Z8EX$SET_INDEX File=Z8EX.:Z8A6TSI                             SAT 08/09/97 12:54 Page:59
      357    17470        %EJECT;
PL6.E3A0      #001=Z8EX$SET_INDEX File=Z8EX.:Z8A6TSI                             SAT 08/09/97 12:54 Page:60
      358    17471    1   MOVE_INDEX : PROC ;

  17471 22 001066   200222 741300       MOVE_INDEX   STX1  ! SEND_INFO+31,,AUTO

      359    17472
      360    17473
      361    17474                    /* Moves between index items are as follows:
      362    17475
      363    17476                        TYPE   REC    SEND   SPAN   MOVE
      364    17477                        ----   ----   ----   ----   ----
      365    17478                         L      A      A      =      TYA
      366    17479                         L      A      A      ~=     OCC
      367    17480                         L      A      I      NA     TYA
      368    17481                         L      I      A      NA     TYA
      369    17482                         L      I      I      NA     TYA
      370    17483                         U      A      A      =      OCC, OCC*SPAN
      371    17484                         U      A      A      ~=     OCC
      372    17485                         U      A      I      NA     OCC
      373    17486                         U      I      A      NA     OCC, OCC*SPAN
      374    17487                         U      I      I      NA     OCC, OCC*SPAN
      375    17488
      376    17489                       U => Type of REC index ~= type of SEND index
      377    17490                       L => Type of REC index = type of SEND index
      378    17491                       A => Variable is associated with an array
      379    17492                       I => Variable is a data item, not assoc. with an array
      380    17493                       NA => Not applicable
      381    17494                       TYA => Move the entire structure without conversion
      382    17495                       OCC => Build a new index item based on the SEND occurrence #
      383    17496                       OCC, OCC*SPAN => Move each field separately, so that conversion
      384    17497                                           will change COMP-6 <=> COMP-1,COMP-2
      385    17498                    */
      386    17499
      387    17500    2               IF REC_INFO.TYPE = SEND_INFO.TYPE

  17500 22 001067   200160 236100                    LDQ     REC_INFO+28,,AUTO
        22 001070   200217 116100                    CMPQ    SEND_INFO+28,,AUTO
        22 001071   001121 601000 22                 TNZ     s:17510
PL6.E3A0      #001=Z8EX$SET_INDEX File=Z8EX.:Z8A6TSI                             SAT 08/09/97 12:54 Page:61
        22 001072   200125 236100                    LDQ     REC_INFO+1,,AUTO
        22 001073   000006 116000 23                 CMPQ    6
        22 001074   001104 600000 22                 TZE     s:17506
        22 001075   001121 600000 22                 TZE     s:17510
        22 001076   200164 236100                    LDQ     SEND_INFO+1,,AUTO
        22 001077   000006 116000 23                 CMPQ    6
        22 001100   001104 600000 22                 TZE     s:17506
        22 001101   200162 236100                    LDQ     REC_INFO+30,,AUTO
        22 001102   200221 116100                    CMPQ    SEND_INFO+30,,AUTO
        22 001103   001121 601000 22                 TNZ     s:17510

      388    17501    2                   AND (REC_INFO.ARRAY$ = ADDR(NIL)
      389    17502    2                         OR (REC_INFO.ARRAY$ ~= ADDR(NIL)
      390    17503    2                              AND (SEND_INFO.ARRAY$ = ADDR(NIL)
      391    17504    2                                    OR REC_INFO.SPAN = SEND_INFO.SPAN))) THEN
      392    17505    3                 DO;

      393    17506    3                   CALL Z8E7$MOVE (ADDR(REC_INFO.TYA),

  17506 22 001104   200126 630500                    EPPR0   REC_INFO+2,,AUTO
        22 001105   200230 450500                    STP0    DIM+1,,AUTO
        22 001106   200165 631500                    EPPR1   SEND_INFO+2,,AUTO
        22 001107   200231 451500                    STP1    DIM+2,,AUTO
        22 001110   200231 633500                    EPPR3   DIM+2,,AUTO
        22 001111   200233 453500                    STP3    DIM+4,,AUTO
        22 001112   200230 634500                    EPPR4   DIM+1,,AUTO
        22 001113   200232 454500                    STP4    DIM+3,,AUTO
        22 001114   200232 630500                    EPPR0   DIM+3,,AUTO
        22 001115   000020 631400 23                 EPPR1   16
        22 001116   000000 701000 xent               TSX1    Z8E7$MOVE
        22 001117   000000 011000                    NOP     0

      394    17507    3                                   ADDR(SEND_INFO.TYA));
      395    17508    3                 END;

  17508 22 001120   001175 710000 22                 TRA     s:17525

PL6.E3A0      #001=Z8EX$SET_INDEX File=Z8EX.:Z8A6TSI                             SAT 08/09/97 12:54 Page:62
      396    17509    2               ELSE
      397    17510    2                 IF REC_INFO.TYPE ~= SEND_INFO.TYPE

  17510 22 001121   200160 236100                    LDQ     REC_INFO+28,,AUTO
        22 001122   200217 116100                    CMPQ    SEND_INFO+28,,AUTO
        22 001123   001167 600000 22                 TZE     s:17523
        22 001124   200125 236100                    LDQ     REC_INFO+1,,AUTO
        22 001125   000006 116000 23                 CMPQ    6
        22 001126   001136 600000 22                 TZE     s:17516
        22 001127   001167 600000 22                 TZE     s:17523
        22 001130   200164 236100                    LDQ     SEND_INFO+1,,AUTO
        22 001131   000006 116000 23                 CMPQ    6
        22 001132   001136 600000 22                 TZE     s:17516
        22 001133   200162 236100                    LDQ     REC_INFO+30,,AUTO
        22 001134   200221 116100                    CMPQ    SEND_INFO+30,,AUTO
        22 001135   001167 601000 22                 TNZ     s:17523

      398    17511    2                     AND (REC_INFO.ARRAY$ = ADDR(NIL)
      399    17512    2                           OR (REC_INFO.ARRAY$ ~= ADDR(NIL)
      400    17513    2                           AND (SEND_INFO.ARRAY$ = ADDR(NIL)
      401    17514    2                                 OR REC_INFO.SPAN = SEND_INFO.SPAN))) THEN
      402    17515    3                   DO;

      403    17516    3                     CALL Z8E7$MOVE (ADDR(REC_INFO.SPAN_OCC),

  17516 22 001136   200146 630500                    EPPR0   REC_INFO+18,,AUTO
        22 001137   200230 450500                    STP0    DIM+1,,AUTO
        22 001140   200205 631500                    EPPR1   SEND_INFO+18,,AUTO
        22 001141   200231 451500                    STP1    DIM+2,,AUTO
        22 001142   200231 633500                    EPPR3   DIM+2,,AUTO
        22 001143   200233 453500                    STP3    DIM+4,,AUTO
        22 001144   200230 634500                    EPPR4   DIM+1,,AUTO
        22 001145   200232 454500                    STP4    DIM+3,,AUTO
        22 001146   200232 630500                    EPPR0   DIM+3,,AUTO
        22 001147   000020 631400 23                 EPPR1   16
        22 001150   000000 701000 xent               TSX1    Z8E7$MOVE
        22 001151   000000 011000                    NOP     0
PL6.E3A0      #001=Z8EX$SET_INDEX File=Z8EX.:Z8A6TSI                             SAT 08/09/97 12:54 Page:63

      404    17517    3                                     ADDR(SEND_INFO.SPAN_OCC));
      405    17518    3                     CALL Z8E7$MOVE (ADDR(REC_INFO.OCC),

  17518 22 001152   200136 630500                    EPPR0   REC_INFO+10,,AUTO
        22 001153   200230 450500                    STP0    DIM+1,,AUTO
        22 001154   200175 631500                    EPPR1   SEND_INFO+10,,AUTO
        22 001155   200231 451500                    STP1    DIM+2,,AUTO
        22 001156   200231 633500                    EPPR3   DIM+2,,AUTO
        22 001157   200233 453500                    STP3    DIM+4,,AUTO
        22 001160   200230 634500                    EPPR4   DIM+1,,AUTO
        22 001161   200232 454500                    STP4    DIM+3,,AUTO
        22 001162   200232 630500                    EPPR0   DIM+3,,AUTO
        22 001163   000020 631400 23                 EPPR1   16
        22 001164   000000 701000 xent               TSX1    Z8E7$MOVE
        22 001165   000000 011000                    NOP     0

      406    17519    3                                     ADDR(SEND_INFO.OCC));
      407    17520    3                   END;

  17520 22 001166   001175 710000 22                 TRA     s:17525

      408    17521    2                 ELSE
      409    17522    3                   DO;

      410    17523    3                     CALL SET_INDEX_FROM_OCC (ADDR(SEND_INFO.OCC));

  17523 22 001167   200175 630500                    EPPR0   SEND_INFO+10,,AUTO
        22 001170   200236 450500                    STP0    DIM+7,,AUTO
        22 001171   200236 631500                    EPPR1   DIM+7,,AUTO
        22 001172   200225 451500                    STP1    @SUBSCRIPT$,,AUTO
        22 001173   000003 701000 22                 TSX1    SET_INDEX_FROM_OCC
        22 001174   000000 011000                    NOP     0

      411    17524    3                   END;

      412    17525    2   END MOVE_INDEX;
PL6.E3A0      #001=Z8EX$SET_INDEX File=Z8EX.:Z8A6TSI                             SAT 08/09/97 12:54 Page:64

  17525 22 001175   200222 221300                    LDX1  ! SEND_INFO+31,,AUTO
        22 001176   000001 702211                    TSX2  ! 1,X1

      413    17526
      414    17527        %EJECT;
PL6.E3A0      #001=Z8EX$SET_INDEX File=Z8EX.:Z8A6TSI                             SAT 08/09/97 12:54 Page:65
      415    17528        /* Main body of SET$INDEX */
      416    17529
      417    17530        /* Resolve sending reference */
      418    17531
      419    17532    1   SEND_INFO.INDEX_TYPE = FALSE;

  17532 22 001177   200220 450100                    STZ     SEND_INFO+29,,AUTO

      420    17533
      421    17534    2   DO CASE (SEND$ -> LX_ITEM.ID);

  17534 22 001200   200004 470500                    LDP0    @SEND$,,AUTO
        22 001201   000000 471500                    LDP1    0,,PR0
        22 001202   100000 220100                    LDX0    0,,PR1
        22 001203   000005 100003                    CMPX0   5,DU
        22 001204   001206 602010 22                 TNC     s:17534+6,X0
        22 001205   001301 710000 22                 TRA     s:17569
        22 001206   001213 710000 22                 TRA     s:17538
        22 001207   001301 710000 22                 TRA     s:17569
        22 001210   001241 710000 22                 TRA     s:17551
        22 001211   001301 710000 22                 TRA     s:17569
        22 001212   001217 710000 22                 TRA     s:17542

      422    17535
      423    17536    2     CASE(%LX_TERMINAL);

      424    17537
      425    17538    2       SEND_INFO.OCC = SEND$ -> LX_TERMINAL;

  17538 22 001213   000100 100500                    MLR     fill='000'O
        22 001214   100000 000040                    ADSC9   0,,PR1                   cn=0,n=32
        22 001215   200175 000040                    ADSC9   SEND_INFO+10,,AUTO       cn=0,n=32
        22 001216   001301 710000 22                 TRA     s:17569

      426    17539
      427    17540    2     CASE(%LX_ETT_ITEM);

PL6.E3A0      #001=Z8EX$SET_INDEX File=Z8EX.:Z8A6TSI                             SAT 08/09/97 12:54 Page:66
      428    17541
      429    17542    2       IF SEND$ -> LX_ETT_ITEM.TYPE = %TYX

  17542 22 001217   100004 235100                    LDA     4,,PR1
        22 001220   000011 115007                    CMPA    9,DL
        22 001221   001224 600000 22                 TZE     s:17544
        22 001222   000012 115007                    CMPA    10,DL
        22 001223   001235 601000 22                 TNZ     s:17547

      430    17543    2            OR SEND$ -> LX_ETT_ITEM.TYPE = %TYY THEN
      431    17544    2           CALL RESOLVE_INDEX_REFERENCES (SEND$,

  17544 22 001224   000006 236000 23                 LDQ     6
        22 001225   200225 756100                    STQ     @EXPR_ID+1,,AUTO
        22 001226   200163 631500                    EPPR1   SEND_INFO,,AUTO
        22 001227   200224 451500                    STP1    @SEND$+1,,AUTO
        22 001230   200004 236100                    LDQ     @SEND$,,AUTO
        22 001231   200223 756100                    STQ     SEND_INFO+32,,AUTO
        22 001232   000314 701000 22                 TSX1    RESOLVE_INDEX_REFERENCES
        22 001233   000000 011000                    NOP     0
        22 001234   001301 710000 22                 TRA     s:17569

      432    17545    2                                          SEND_INFO);
      433    17546    2       ELSE
      434    17547    2         SEND_INFO.OCC = SEND$ -> LX_ETT_ITEM;

  17547 22 001235   000100 100500                    MLR     fill='000'O
        22 001236   100000 000040                    ADSC9   0,,PR1                   cn=0,n=32
        22 001237   200175 000040                    ADSC9   SEND_INFO+10,,AUTO       cn=0,n=32
        22 001240   001301 710000 22                 TRA     s:17569

      435    17548
      436    17549    2     CASE(%LX_LIST);

      437    17550
      438    17551    2       IF SEND$ -> LX_LIST.HEAD$ -> LX_ETT_ITEM.TYPE = %TYX

PL6.E3A0      #001=Z8EX$SET_INDEX File=Z8EX.:Z8A6TSI                             SAT 08/09/97 12:54 Page:67
  17551 22 001241   100004 473500                    LDP3    4,,PR1
        22 001242   300004 235100                    LDA     4,,PR3
        22 001243   000011 115007                    CMPA    9,DL
        22 001244   001247 600000 22                 TZE     s:17553
        22 001245   000012 115007                    CMPA    10,DL
        22 001246   001260 601000 22                 TNZ     s:17558

      439    17552    2           OR SEND$ -> LX_LIST.HEAD$ -> LX_ETT_ITEM.TYPE = %TYY THEN
      440    17553    2           CALL RESOLVE_INDEX_REFERENCES (SEND$ -> LX_LIST.HEAD$,

  17553 22 001247   300007 634500                    EPPR4   7,,PR3
        22 001250   200225 454500                    STP4    @EXPR_ID+1,,AUTO
        22 001251   200163 633500                    EPPR3   SEND_INFO,,AUTO
        22 001252   200224 453500                    STP3    @SEND$+1,,AUTO
        22 001253   100004 635500                    EPPR5   4,,PR1
        22 001254   200223 455500                    STP5    SEND_INFO+32,,AUTO
        22 001255   000314 701000 22                 TSX1    RESOLVE_INDEX_REFERENCES
        22 001256   000000 011000                    NOP     0
        22 001257   001301 710000 22                 TRA     s:17569

      441    17554    2                                          SEND_INFO,
      442    17555    2                                          SEND$ -> LX_LIST.HEAD$ -> LX_ITEM.LINK);
      443    17556    2       ELSE
      444    17557    3         DO;

      445    17558    3           SEND_INFO.OCC = SEND$ -> LX_LIST.HEAD$ -> LX_ETT_ITEM;

  17558 22 001260   000100 100500                    MLR     fill='000'O
        22 001261   300000 000040                    ADSC9   0,,PR3                   cn=0,n=32
        22 001262   200175 000040                    ADSC9   SEND_INFO+10,,AUTO       cn=0,n=32

      446    17559    3           IF SEND$ -> LX_LIST.COUNT > 1 THEN

  17559 22 001263   000000 471500                    LDP1    0,,PR0
        22 001264   100002 235100                    LDA     2,,PR1
        22 001265   000001 115007                    CMPA    1,DL
        22 001266   001301 604400 22                 TMOZ    s:17569
PL6.E3A0      #001=Z8EX$SET_INDEX File=Z8EX.:Z8A6TSI                             SAT 08/09/97 12:54 Page:68

      447    17560    3             CALL Z8EY$SUBSCRIPT (SEND$ -> LX_LIST.TAIL$,

  17560 22 001267   200175 633500                    EPPR3   SEND_INFO+10,,AUTO
        22 001270   200230 453500                    STP3    DIM+1,,AUTO
        22 001271   200230 634500                    EPPR4   DIM+1,,AUTO
        22 001272   200233 454500                    STP4    DIM+4,,AUTO
        22 001273   100001 635500                    EPPR5   1,,PR1
        22 001274   200232 455500                    STP5    DIM+3,,AUTO
        22 001275   200232 630500                    EPPR0   DIM+3,,AUTO
        22 001276   000020 631400 23                 EPPR1   16
        22 001277   000000 701000 xent               TSX1    Z8EY$SUBSCRIPT
        22 001300   000000 011000                    NOP     0

      448    17561    3                                  ADDR(SEND_INFO.OCC));
      449    17562    3         END;

      450    17563    2   END;  /* Case */

      451    17564
      452    17565
      453    17566        /* Resolve Receiving Items */
      454    17567
      455    17568
      456    17569    2   DO CASE (REC$ -> LX_ITEM.ID);

  17569 22 001301   200003 470500                    LDP0    @REC$,,AUTO
        22 001302   000000 471500                    LDP1    0,,PR0
        22 001303   100000 220100                    LDX0    0,,PR1
        22 001304   000005 100003                    CMPX0   5,DU
        22 001305   001307 602010 22                 TNC     s:17569+6,X0
        22 001306   002107 710000 22                 TRA     s:20099
        22 001307   002107 710000 22                 TRA     s:20099
        22 001310   002107 710000 22                 TRA     s:20099
        22 001311   001440 710000 22                 TRA     s:17665
        22 001312   002107 710000 22                 TRA     s:20099
        22 001313   001314 710000 22                 TRA     s:17573
PL6.E3A0      #001=Z8EX$SET_INDEX File=Z8EX.:Z8A6TSI                             SAT 08/09/97 12:54 Page:69

      457    17570
      458    17571    2     CASE(%LX_ETT_ITEM);

      459    17572
      460    17573    2       IF REC$ -> LX_ETT_ITEM.TYPE = %TYP THEN

  17573 22 001314   100004 235100                    LDA     4,,PR1
        22 001315   000022 115007                    CMPA    18,DL
        22 001316   001343 601000 22                 TNZ     s:17612

      461    17574    3         DO;

      462    17575                %CONDITIONAL_ERROR (@LX_ITEM$ = REC$,
      463    17576                                    @ERROR# = %E$INVALID_SET,
      464    17577                                    @LINE = REC$ -> LX_ETT_ITEM.LINE,
      465    17578                                    @COLUMN = REC$ -> LX_ETT_ITEM.COLUMN);

  17588 22 001317   100000 236100                    LDQ     0,,PR1
        22 001320   400000 316007                    CANQ    -131072,DL
        22 001321   001340 601000 22                 TNZ     s:17609

  17590 22 001322   100006 633500                    EPPR3   6,,PR1
        22 001323   200232 453500                    STP3    DIM+3,,AUTO
        22 001324   100005 634500                    EPPR4   5,,PR1
        22 001325   200231 454500                    STP4    DIM+2,,AUTO
        22 001326   000010 236000 23                 LDQ     8
        22 001327   200230 756100                    STQ     DIM+1,,AUTO
        22 001330   200230 630500                    EPPR0   DIM+1,,AUTO
        22 001331   000001 631400 23                 EPPR1   1
        22 001332   000000 701000 xent               TSX1    Z8AE$ERROR
        22 001333   000000 011000                    NOP     0

  17599 22 001334   200003 470500                    LDP0    @REC$,,AUTO
        22 001335   000000 471500                    LDP1    0,,PR0
        22 001336   400000 236007                    LDQ     -131072,DL
        22 001337   100000 256100                    ORSQ    0,,PR1
PL6.E3A0      #001=Z8EX$SET_INDEX File=Z8EX.:Z8A6TSI                             SAT 08/09/97 12:54 Page:70

      466    17608
      467    17609    3           REC$ -> LX_ETT_ITEM.TYPE = %TYI;

  17609 22 001340   000000 471500                    LDP1    0,,PR0
        22 001341   000001 235007                    LDA     1,DL
        22 001342   100004 755100                    STA     4,,PR1

      468    17610    3         END;

      469    17611
      470    17612    2       REC_INFO.INDEX_TYPE = FALSE;

  17612 22 001343   200161 450100                    STZ     REC_INFO+29,,AUTO

      471    17613
      472    17614    2       IF REC$ -> LX_ETT_ITEM.TYPE = %TYX

  17614 22 001344   000000 471500                    LDP1    0,,PR0
        22 001345   100004 235100                    LDA     4,,PR1
        22 001346   000011 115007                    CMPA    9,DL
        22 001347   001352 600000 22                 TZE     s:17617
        22 001350   000012 115007                    CMPA    10,DL
        22 001351   001376 601000 22                 TNZ     s:17625

      473    17615    2            OR REC$ -> LX_ETT_ITEM.TYPE = %TYY THEN
      474    17616    3         DO;

      475    17617    3           CALL RESOLVE_INDEX_REFERENCES (REC$,

  17617 22 001352   000006 236000 23                 LDQ     6
        22 001353   200225 756100                    STQ     @EXPR_ID+1,,AUTO
        22 001354   200124 631500                    EPPR1   REC_INFO,,AUTO
        22 001355   200224 451500                    STP1    @SEND$+1,,AUTO
        22 001356   200003 236100                    LDQ     @REC$,,AUTO
        22 001357   200223 756100                    STQ     SEND_INFO+32,,AUTO
        22 001360   000314 701000 22                 TSX1    RESOLVE_INDEX_REFERENCES
PL6.E3A0      #001=Z8EX$SET_INDEX File=Z8EX.:Z8A6TSI                             SAT 08/09/97 12:54 Page:71
        22 001361   000000 011000                    NOP     0

      476    17618    3                               REC_INFO);
      477    17619    3           IF SEND_INFO.INDEX_TYPE THEN

  17619 22 001362   200220 234100                    SZN     SEND_INFO+29,,AUTO
        22 001363   001367 605000 22                 TPL     s:17622

      478    17620    3             CALL MOVE_INDEX;

  17620 22 001364   001066 701000 22                 TSX1    MOVE_INDEX
        22 001365   000000 011000                    NOP     0
        22 001366   001410 710000 22                 TRA     s:17627

      479    17621    3           ELSE
      480    17622    3             CALL SET_INDEX_FROM_OCC (ADDR(SEND_INFO.OCC));

  17622 22 001367   200175 630500                    EPPR0   SEND_INFO+10,,AUTO
        22 001370   200237 450500                    STP0    DIM+8,,AUTO
        22 001371   200237 631500                    EPPR1   DIM+8,,AUTO
        22 001372   200225 451500                    STP1    @EXPR_ID+1,,AUTO
        22 001373   000003 701000 22                 TSX1    SET_INDEX_FROM_OCC
        22 001374   000000 011000                    NOP     0

      481    17623    3         END;

  17623 22 001375   001410 710000 22                 TRA     s:17627

      482    17624    2       ELSE
      483    17625    2         CALL Z8E7$MOVE (REC$,

  17625 22 001376   200175 633500                    EPPR3   SEND_INFO+10,,AUTO
        22 001377   200230 453500                    STP3    DIM+1,,AUTO
        22 001400   200230 631500                    EPPR1   DIM+1,,AUTO
        22 001401   200233 451500                    STP1    DIM+4,,AUTO
        22 001402   200003 236100                    LDQ     @REC$,,AUTO
        22 001403   200232 756100                    STQ     DIM+3,,AUTO
PL6.E3A0      #001=Z8EX$SET_INDEX File=Z8EX.:Z8A6TSI                             SAT 08/09/97 12:54 Page:72
        22 001404   200232 630500                    EPPR0   DIM+3,,AUTO
        22 001405   000020 631400 23                 EPPR1   16
        22 001406   000000 701000 xent               TSX1    Z8E7$MOVE
        22 001407   000000 011000                    NOP     0

      484    17626    2                         ADDR(SEND_INFO.OCC));
      485    17627    2         IF COMCOM.OB.FIPS.LEVEL > 0

  17627 22 001410   000036 720000 xsym               LXL0    COMCOM+30
        22 001411   002113 604400 22                 TMOZ    s:20103
        22 001412   200220 234100                    SZN     SEND_INFO+29,,AUTO
        22 001413   002113 604000 22                 TMI     s:20103

      486    17628    2         AND NOT SEND_INFO.INDEX_TYPE THEN
      487    17629                %CONDITIONAL_ERROR (@LX_ITEM$ = REC$,
      488    17630                                    @ERROR# = %E$SET_NOT_ANSI,
      489    17631                                    @LINE = REC$ -> LX_ETT_ITEM.LINE,
      490    17632                                    @COLUMN = REC$ -> LX_ETT_ITEM.COLUMN);

  17642 22 001414   200003 470500                    LDP0    @REC$,,AUTO
        22 001415   000000 471500                    LDP1    0,,PR0
        22 001416   100000 236100                    LDQ     0,,PR1
        22 001417   400000 316007                    CANQ    -131072,DL
        22 001420   002113 601000 22                 TNZ     s:20103

  17644 22 001421   100006 633500                    EPPR3   6,,PR1
        22 001422   200232 453500                    STP3    DIM+3,,AUTO
        22 001423   100005 634500                    EPPR4   5,,PR1
        22 001424   200231 454500                    STP4    DIM+2,,AUTO
        22 001425   000024 236000 23                 LDQ     20
        22 001426   200230 756100                    STQ     DIM+1,,AUTO
        22 001427   200230 630500                    EPPR0   DIM+1,,AUTO
        22 001430   000001 631400 23                 EPPR1   1
        22 001431   000000 701000 xent               TSX1    Z8AE$ERROR
        22 001432   000000 011000                    NOP     0

  17653 22 001433   200003 470500                    LDP0    @REC$,,AUTO
PL6.E3A0      #001=Z8EX$SET_INDEX File=Z8EX.:Z8A6TSI                             SAT 08/09/97 12:54 Page:73
        22 001434   000000 471500                    LDP1    0,,PR0
        22 001435   400000 236007                    LDQ     -131072,DL
        22 001436   100000 256100                    ORSQ    0,,PR1

  17660 22 001437   002113 710000 22                 TRA     s:20103

      491    17662
      492    17663    2     CASE(%LX_LIST); /* Receiving */

      493    17664
      494    17665    2       VAL_REQUIRED = FALSE;

  17665 22 001440   200010 450100                    STZ     VAL_REQUIRED,,AUTO

      495    17666    2       VAL_TYA_REQUIRED = FALSE;

  17666 22 001441   200011 450100                    STZ     VAL_TYA_REQUIRED,,AUTO

      496    17667    2       VAL_SPAN_OCC_REQUIRED = FALSE;

  17667 22 001442   200012 450100                    STZ     VAL_SPAN_OCC_REQUIRED,,AUTO

      497    17668    2       VAL_REC_COUNT = 0 ;                                /*#28761*/

  17668 22 001443   200006 450100                    STZ     VAL_REC_COUNT,,AUTO

      498    17669
      499    17670    2       IF REC$ -> LX_LIST.COUNT > 1 THEN

  17670 22 001444   100002 235100                    LDA     2,,PR1
        22 001445   000001 115007                    CMPA    1,DL
        22 001446   001633 604400 22                 TMOZ    s:18847

      500    17671    3         DO;

      501    17672    3           IF  ADDR(SEND_INFO.OCC) ->  LX_ITEM.ID = %LX_ETT_ITEM

PL6.E3A0      #001=Z8EX$SET_INDEX File=Z8EX.:Z8A6TSI                             SAT 08/09/97 12:54 Page:74
  17672 22 001447   200175 221100                    LDX1    SEND_INFO+10,,AUTO
        22 001450   000004 101003                    CMPX1   4,DU
        22 001451   001515 601000 22                 TNZ     s:18063
        22 001452   200176 473500                    LDP3    SEND_INFO+11,,AUTO
        22 001453   300000 222100                    LDX2    0,,PR3
        22 001454   000015 102003                    CMPX2   13,DU
        22 001455   001515 600000 22                 TZE     s:18063

      502    17673    3              AND  ADDR(SEND_INFO.OCC) -> LX_ETT_ITEM.ETT$ -> ETT.ID ~= %TRIAD THEN
      503    17674    4             DO;

      504    17675    4               CALL Z8AF$FORME (%EVAL,

  17675 22 001456   000006 236000 23                 LDQ     6
        22 001457   200230 756100                    STQ     DIM+1,,AUTO
        22 001460   200176 631500                    EPPR1   SEND_INFO+11,,AUTO
        22 001461   200235 451500                    STP1    DIM+6,,AUTO
        22 001462   200230 634500                    EPPR4   DIM+1,,AUTO
        22 001463   200234 454500                    STP4    DIM+5,,AUTO
        22 001464   200176 635500                    EPPR5   SEND_INFO+11,,AUTO
        22 001465   200233 455500                    STP5    DIM+4,,AUTO
        22 001466   000026 236000 23                 LDQ     22
        22 001467   200232 756100                    STQ     DIM+3,,AUTO
        22 001470   200232 630500                    EPPR0   DIM+3,,AUTO
        22 001471   000013 631400 23                 EPPR1   11
        22 001472   000000 701000 xent               TSX1    Z8AF$FORME
        22 001473   000000 011000                    NOP     0

      505    17676    4                                ADDR(SEND_INFO.OCC) -> LX_ETT_ITEM.ETT$,
      506    17677    4                                ADDR(NIL),
      507    17678    4                                ADDR(SEND_INFO.OCC) -> LX_ETT_ITEM.ETT$);
      508    17679
      509    17680                    %NEW_ILL (@ID = %VAL,
      510    17681                              @ETT$ = "ADDR(SEND_INFO.OCC) -> LX_ETT_ITEM.ETT$");

  17749 22 001474   000030 236000 23                 LDQ     24
        22 001475   200230 756100                    STQ     DIM+1,,AUTO
PL6.E3A0      #001=Z8EX$SET_INDEX File=Z8EX.:Z8A6TSI                             SAT 08/09/97 12:54 Page:75
        22 001476   200230 630500                    EPPR0   DIM+1,,AUTO
        22 001477   200235 450500                    STP0    DIM+6,,AUTO
        22 001500   000031 236000 23                 LDQ     25
        22 001501   200234 756100                    STQ     DIM+5,,AUTO
        22 001502   000032 237000 23                 LDAQ    26
        22 001503   200232 757100                    STAQ    DIM+3,,AUTO
        22 001504   200232 630500                    EPPR0   DIM+3,,AUTO
        22 001505   000013 631400 23                 EPPR1   11
        22 001506   000000 701000 xent               TSX1    Z8AN$NEW_ILL
        22 001507   000000 011000                    NOP     0

  17750 22 001510   200176 236100                    LDQ     SEND_INFO+11,,AUTO
        22 001511   000000 470400 1                  LDP0    ILL$
        22 001512   000001 756100                    STQ     1,,PR0

      511    18060    4               VAL_REQUIRED = TRUE;

  18060 22 001513   400000 236003                    LDQ     -131072,DU
        22 001514   200010 756100                    STQ     VAL_REQUIRED,,AUTO

      512    18061    4             END;

      513    18062
      514    18063    3           IF SEND_INFO.INDEX_TYPE THEN

  18063 22 001515   200220 234100                    SZN     SEND_INFO+29,,AUTO
        22 001516   001633 605000 22                 TPL     s:18847

      515    18064    4             DO;

      516    18065    4               IF ADDR(SEND_INFO.TYA) -> LX_ITEM.ID = %LX_ETT_ITEM

  18065 22 001517   200165 220100                    LDX0    SEND_INFO+2,,AUTO
        22 001520   000004 100003                    CMPX0   4,DU
        22 001521   001565 601000 22                 TNZ     s:18455
        22 001522   200166 470500                    LDP0    SEND_INFO+3,,AUTO
        22 001523   000000 221100                    LDX1    0,,PR0
PL6.E3A0      #001=Z8EX$SET_INDEX File=Z8EX.:Z8A6TSI                             SAT 08/09/97 12:54 Page:76
        22 001524   000015 101003                    CMPX1   13,DU
        22 001525   001565 600000 22                 TZE     s:18455

      517    18066    4                  AND ADDR(SEND_INFO.TYA) -> LX_ETT_ITEM.ETT$ -> ETT.ID ~= %TRIAD THEN
      518    18067    5                 DO;

      519    18068    5                   CALL Z8AF$FORME (%EVAL,

  18068 22 001526   000006 236000 23                 LDQ     6
        22 001527   200230 756100                    STQ     DIM+1,,AUTO
        22 001530   200166 631500                    EPPR1   SEND_INFO+3,,AUTO
        22 001531   200235 451500                    STP1    DIM+6,,AUTO
        22 001532   200230 633500                    EPPR3   DIM+1,,AUTO
        22 001533   200234 453500                    STP3    DIM+5,,AUTO
        22 001534   200166 634500                    EPPR4   SEND_INFO+3,,AUTO
        22 001535   200233 454500                    STP4    DIM+4,,AUTO
        22 001536   000026 236000 23                 LDQ     22
        22 001537   200232 756100                    STQ     DIM+3,,AUTO
        22 001540   200232 630500                    EPPR0   DIM+3,,AUTO
        22 001541   000013 631400 23                 EPPR1   11
        22 001542   000000 701000 xent               TSX1    Z8AF$FORME
        22 001543   000000 011000                    NOP     0

      520    18069    5                                    ADDR(SEND_INFO.TYA) -> LX_ETT_ITEM.ETT$,
      521    18070    5                                    ADDR(NIL),
      522    18071    5                                    ADDR(SEND_INFO.TYA) -> LX_ETT_ITEM.ETT$);
      523    18072                        %NEW_ILL (@ID = %VAL,
      524    18073                                  @ETT$ = "ADDR(SEND_INFO.TYA) -> LX_ETT_ITEM.ETT$");

  18141 22 001544   000030 236000 23                 LDQ     24
        22 001545   200230 756100                    STQ     DIM+1,,AUTO
        22 001546   200230 630500                    EPPR0   DIM+1,,AUTO
        22 001547   200235 450500                    STP0    DIM+6,,AUTO
        22 001550   000031 236000 23                 LDQ     25
        22 001551   200234 756100                    STQ     DIM+5,,AUTO
        22 001552   000032 237000 23                 LDAQ    26
        22 001553   200232 757100                    STAQ    DIM+3,,AUTO
PL6.E3A0      #001=Z8EX$SET_INDEX File=Z8EX.:Z8A6TSI                             SAT 08/09/97 12:54 Page:77
        22 001554   200232 630500                    EPPR0   DIM+3,,AUTO
        22 001555   000013 631400 23                 EPPR1   11
        22 001556   000000 701000 xent               TSX1    Z8AN$NEW_ILL
        22 001557   000000 011000                    NOP     0

  18142 22 001560   200166 236100                    LDQ     SEND_INFO+3,,AUTO
        22 001561   000000 470400 1                  LDP0    ILL$
        22 001562   000001 756100                    STQ     1,,PR0

      525    18452    5                   VAL_TYA_REQUIRED = TRUE;

  18452 22 001563   400000 236003                    LDQ     -131072,DU
        22 001564   200011 756100                    STQ     VAL_TYA_REQUIRED,,AUTO

      526    18453    5                 END;

      527    18454
      528    18455    4               IF ADDR(SEND_INFO.SPAN_OCC) -> LX_ITEM.ID = %LX_ETT_ITEM

  18455 22 001565   200205 220100                    LDX0    SEND_INFO+18,,AUTO
        22 001566   000004 100003                    CMPX0   4,DU
        22 001567   001633 601000 22                 TNZ     s:18847
        22 001570   200206 470500                    LDP0    SEND_INFO+19,,AUTO
        22 001571   000000 221100                    LDX1    0,,PR0
        22 001572   000015 101003                    CMPX1   13,DU
        22 001573   001633 600000 22                 TZE     s:18847

      529    18456    4                  AND ADDR(SEND_INFO.SPAN_OCC) -> LX_ETT_ITEM.ETT$ -> ETT.ID ~= %TRIAD
             18456                            THEN
      530    18457    5                 DO;

      531    18458    5                   CALL Z8AF$FORME (%EVAL,

  18458 22 001574   000006 236000 23                 LDQ     6
        22 001575   200230 756100                    STQ     DIM+1,,AUTO
        22 001576   200206 631500                    EPPR1   SEND_INFO+19,,AUTO
        22 001577   200235 451500                    STP1    DIM+6,,AUTO
PL6.E3A0      #001=Z8EX$SET_INDEX File=Z8EX.:Z8A6TSI                             SAT 08/09/97 12:54 Page:78
        22 001600   200230 633500                    EPPR3   DIM+1,,AUTO
        22 001601   200234 453500                    STP3    DIM+5,,AUTO
        22 001602   200206 634500                    EPPR4   SEND_INFO+19,,AUTO
        22 001603   200233 454500                    STP4    DIM+4,,AUTO
        22 001604   000026 236000 23                 LDQ     22
        22 001605   200232 756100                    STQ     DIM+3,,AUTO
        22 001606   200232 630500                    EPPR0   DIM+3,,AUTO
        22 001607   000013 631400 23                 EPPR1   11
        22 001610   000000 701000 xent               TSX1    Z8AF$FORME
        22 001611   000000 011000                    NOP     0

      532    18459    5                                    ADDR(SEND_INFO.SPAN_OCC) -> LX_ETT_ITEM.ETT$,
      533    18460    5                                    ADDR(NIL),
      534    18461    5                                    ADDR(SEND_INFO.SPAN_OCC) -> LX_ETT_ITEM.ETT$);
      535    18462                        %NEW_ILL (@ID = %VAL,
      536    18463                                  @ETT$ = "ADDR(SEND_INFO.SPAN_OCC) -> LX_ETT_ITEM.ETT$");

  18531 22 001612   000030 236000 23                 LDQ     24
        22 001613   200230 756100                    STQ     DIM+1,,AUTO
        22 001614   200230 630500                    EPPR0   DIM+1,,AUTO
        22 001615   200235 450500                    STP0    DIM+6,,AUTO
        22 001616   000031 236000 23                 LDQ     25
        22 001617   200234 756100                    STQ     DIM+5,,AUTO
        22 001620   000032 237000 23                 LDAQ    26
        22 001621   200232 757100                    STAQ    DIM+3,,AUTO
        22 001622   200232 630500                    EPPR0   DIM+3,,AUTO
        22 001623   000013 631400 23                 EPPR1   11
        22 001624   000000 701000 xent               TSX1    Z8AN$NEW_ILL
        22 001625   000000 011000                    NOP     0

  18532 22 001626   200206 236100                    LDQ     SEND_INFO+19,,AUTO
        22 001627   000000 470400 1                  LDP0    ILL$
        22 001630   000001 756100                    STQ     1,,PR0

      537    18842    5                   VAL_SPAN_OCC_REQUIRED = TRUE;

  18842 22 001631   400000 236003                    LDQ     -131072,DU
PL6.E3A0      #001=Z8EX$SET_INDEX File=Z8EX.:Z8A6TSI                             SAT 08/09/97 12:54 Page:79
        22 001632   200012 756100                    STQ     VAL_SPAN_OCC_REQUIRED,,AUTO

      538    18843    5                 END;

      539    18844    4             END;

      540    18845    3         END;

      541    18846
      542    18847    2       R$ = REC$ -> LX_LIST.HEAD$;

  18847 22 001633   200003 470500                    LDP0    @REC$,,AUTO
        22 001634   000000 471500                    LDP1    0,,PR0
        22 001635   100004 236100                    LDQ     4,,PR1
        22 001636   200007 756100                    STQ     R$,,AUTO

      543    18848    3       DO WHILE R$ ~= ADDR(NIL);

  18848 22 001637   002015 710000 22                 TRA     s:18949

      544    18849
      545    18850    3       IF R$ -> LX_LIST.HEAD$ -> LX_ETT_ITEM.TYPE = %TYP THEN

  18850 22 001640   200007 470500                    LDP0    R$,,AUTO
        22 001641   000004 471500                    LDP1    4,,PR0
        22 001642   100004 235100                    LDA     4,,PR1
        22 001643   000022 115007                    CMPA    18,DL
        22 001644   001671 601000 22                 TNZ     s:18889

      546    18851    4         DO;

      547    18852                %CONDITIONAL_ERROR (@LX_ITEM$ = R$ -> LX_LIST.HEAD$,
      548    18853                                    @ERROR# = %E$INVALID_SET,
      549    18854                                    @LINE = R$ -> LX_LIST.HEAD$ -> LX_ETT_ITEM.LINE,
      550    18855                                    @COLUMN = R$ -> LX_LIST.HEAD$ -> LX_ETT_ITEM.COLUMN);

  18865 22 001645   100000 236100                    LDQ     0,,PR1
PL6.E3A0      #001=Z8EX$SET_INDEX File=Z8EX.:Z8A6TSI                             SAT 08/09/97 12:54 Page:80
        22 001646   400000 316007                    CANQ    -131072,DL
        22 001647   001666 601000 22                 TNZ     s:18886

  18867 22 001650   100006 633500                    EPPR3   6,,PR1
        22 001651   200232 453500                    STP3    DIM+3,,AUTO
        22 001652   100005 634500                    EPPR4   5,,PR1
        22 001653   200231 454500                    STP4    DIM+2,,AUTO
        22 001654   000010 236000 23                 LDQ     8
        22 001655   200230 756100                    STQ     DIM+1,,AUTO
        22 001656   200230 630500                    EPPR0   DIM+1,,AUTO
        22 001657   000001 631400 23                 EPPR1   1
        22 001660   000000 701000 xent               TSX1    Z8AE$ERROR
        22 001661   000000 011000                    NOP     0

  18876 22 001662   200007 470500                    LDP0    R$,,AUTO
        22 001663   000004 471500                    LDP1    4,,PR0
        22 001664   400000 236007                    LDQ     -131072,DL
        22 001665   100000 256100                    ORSQ    0,,PR1

      551    18885
      552    18886    4           R$ -> LX_LIST.HEAD$ -> LX_ETT_ITEM.TYPE = %TYI;

  18886 22 001666   000004 471500                    LDP1    4,,PR0
        22 001667   000001 235007                    LDA     1,DL
        22 001670   100004 755100                    STA     4,,PR1

      553    18887    4         END;

      554    18888
      555    18889    3         VAL_REC_COUNT = VAL_REC_COUNT + 1 ;              /*#28761*/

  18889 22 001671   200006 054100                    AOS     VAL_REC_COUNT,,AUTO

      556    18890    3         REC_INFO.INDEX_TYPE = FALSE;

  18890 22 001672   200161 450100                    STZ     REC_INFO+29,,AUTO

PL6.E3A0      #001=Z8EX$SET_INDEX File=Z8EX.:Z8A6TSI                             SAT 08/09/97 12:54 Page:81
      557    18891
      558    18892    3         IF R$ -> LX_LIST.HEAD$ -> LX_ETT_ITEM.TYPE = %TYX

  18892 22 001673   000004 471500                    LDP1    4,,PR0
        22 001674   100004 235100                    LDA     4,,PR1
        22 001675   000011 115007                    CMPA    9,DL
        22 001676   001701 600000 22                 TZE     s:18895
        22 001677   000012 115007                    CMPA    10,DL
        22 001700   001726 601000 22                 TNZ     s:18905

      559    18893    3             OR R$ -> LX_LIST.HEAD$ -> LX_ETT_ITEM.TYPE = %TYY THEN
      560    18894    4           DO;

      561    18895    4             CALL RESOLVE_INDEX_REFERENCES (R$ -> LX_LIST.HEAD$,

  18895 22 001701   100007 633500                    EPPR3   7,,PR1
        22 001702   200225 453500                    STP3    @EXPR_ID+1,,AUTO
        22 001703   200124 631500                    EPPR1   REC_INFO,,AUTO
        22 001704   200224 451500                    STP1    @SEND$+1,,AUTO
        22 001705   200007 236100                    LDQ     R$,,AUTO
        22 001706   000004 036003                    ADLQ    4,DU
        22 001707   200223 756100                    STQ     SEND_INFO+32,,AUTO
        22 001710   000314 701000 22                 TSX1    RESOLVE_INDEX_REFERENCES
        22 001711   000000 011000                    NOP     0

      562    18896    4                                            REC_INFO,
      563    18897    4                                            R$ -> LX_LIST.HEAD$ -> LX_ITEM.LINK);
      564    18898    4             IF SEND_INFO.INDEX_TYPE THEN

  18898 22 001712   200220 234100                    SZN     SEND_INFO+29,,AUTO
        22 001713   001717 605000 22                 TPL     s:18901

      565    18899    4               CALL MOVE_INDEX;

  18899 22 001714   001066 701000 22                 TSX1    MOVE_INDEX
        22 001715   000000 011000                    NOP     0
        22 001716   002012 710000 22                 TRA     s:18948
PL6.E3A0      #001=Z8EX$SET_INDEX File=Z8EX.:Z8A6TSI                             SAT 08/09/97 12:54 Page:82

      566    18900    4             ELSE
      567    18901    4               CALL SET_INDEX_FROM_OCC (ADDR(SEND_INFO.OCC));

  18901 22 001717   200175 630500                    EPPR0   SEND_INFO+10,,AUTO
        22 001720   200240 450500                    STP0    DIM+9,,AUTO
        22 001721   200240 631500                    EPPR1   DIM+9,,AUTO
        22 001722   200225 451500                    STP1    @EXPR_ID+1,,AUTO
        22 001723   000003 701000 22                 TSX1    SET_INDEX_FROM_OCC
        22 001724   000000 011000                    NOP     0

      568    18902    4           END;

  18902 22 001725   002012 710000 22                 TRA     s:18948

      569    18903    3         ELSE
      570    18904    4           DO;

      571    18905    4             REC_INFO.OCC = R$ -> LX_LIST.HEAD$ -> LX_ETT_ITEM;

  18905 22 001726   000100 100500                    MLR     fill='000'O
        22 001727   100000 000040                    ADSC9   0,,PR1                   cn=0,n=32
        22 001730   200136 000040                    ADSC9   REC_INFO+10,,AUTO        cn=0,n=32

      572    18906    4             IF R$ -> LX_LIST.COUNT > 1 THEN

  18906 22 001731   000002 235100                    LDA     2,,PR0
        22 001732   000001 115007                    CMPA    1,DL
        22 001733   001747 604400 22                 TMOZ    s:18909

      573    18907    4               CALL Z8EY$SUBSCRIPT (R$ -> LX_LIST.TAIL$,

  18907 22 001734   200136 631500                    EPPR1   REC_INFO+10,,AUTO
        22 001735   200230 451500                    STP1    DIM+1,,AUTO
        22 001736   200230 633500                    EPPR3   DIM+1,,AUTO
        22 001737   200233 453500                    STP3    DIM+4,,AUTO
        22 001740   200007 236100                    LDQ     R$,,AUTO
PL6.E3A0      #001=Z8EX$SET_INDEX File=Z8EX.:Z8A6TSI                             SAT 08/09/97 12:54 Page:83
        22 001741   000001 036003                    ADLQ    1,DU
        22 001742   200232 756100                    STQ     DIM+3,,AUTO
        22 001743   200232 630500                    EPPR0   DIM+3,,AUTO
        22 001744   000020 631400 23                 EPPR1   16
        22 001745   000000 701000 xent               TSX1    Z8EY$SUBSCRIPT
        22 001746   000000 011000                    NOP     0

      574    18908    4                                    ADDR(REC_INFO.OCC));
      575    18909    4             CALL Z8E7$MOVE (ADDR(REC_INFO.OCC),

  18909 22 001747   200136 630500                    EPPR0   REC_INFO+10,,AUTO
        22 001750   200230 450500                    STP0    DIM+1,,AUTO
        22 001751   200175 631500                    EPPR1   SEND_INFO+10,,AUTO
        22 001752   200231 451500                    STP1    DIM+2,,AUTO
        22 001753   200231 633500                    EPPR3   DIM+2,,AUTO
        22 001754   200233 453500                    STP3    DIM+4,,AUTO
        22 001755   200230 634500                    EPPR4   DIM+1,,AUTO
        22 001756   200232 454500                    STP4    DIM+3,,AUTO
        22 001757   200232 630500                    EPPR0   DIM+3,,AUTO
        22 001760   000020 631400 23                 EPPR1   16
        22 001761   000000 701000 xent               TSX1    Z8E7$MOVE
        22 001762   000000 011000                    NOP     0

      576    18910    4                             ADDR(SEND_INFO.OCC));
      577    18911    4             IF COMCOM.OB.FIPS.LEVEL > 0

  18911 22 001763   000036 720000 xsym               LXL0    COMCOM+30
        22 001764   002012 604400 22                 TMOZ    s:18948
        22 001765   200220 234100                    SZN     SEND_INFO+29,,AUTO
        22 001766   002012 604000 22                 TMI     s:18948

      578    18912    4             AND NOT SEND_INFO.INDEX_TYPE THEN
      579    18913                    %CONDITIONAL_ERROR (@LX_ITEM$ = R$ -> LX_LIST.HEAD$,
      580    18914                                        @ERROR# = %E$SET_NOT_ANSI,
      581    18915                                        @LINE = R$ -> LX_LIST.HEAD$ -> LX_ETT_ITEM.LINE,
      582    18916                                       @COLUMN = R$ -> LX_LIST.HEAD$ -> LX_ETT_ITEM.COLUMN)
             18916                                            ;
PL6.E3A0      #001=Z8EX$SET_INDEX File=Z8EX.:Z8A6TSI                             SAT 08/09/97 12:54 Page:84

  18926 22 001767   200007 470500                    LDP0    R$,,AUTO
        22 001770   000004 471500                    LDP1    4,,PR0
        22 001771   100000 236100                    LDQ     0,,PR1
        22 001772   400000 316007                    CANQ    -131072,DL
        22 001773   002012 601000 22                 TNZ     s:18948

  18928 22 001774   100006 633500                    EPPR3   6,,PR1
        22 001775   200232 453500                    STP3    DIM+3,,AUTO
        22 001776   100005 634500                    EPPR4   5,,PR1
        22 001777   200231 454500                    STP4    DIM+2,,AUTO
        22 002000   000024 236000 23                 LDQ     20
        22 002001   200230 756100                    STQ     DIM+1,,AUTO
        22 002002   200230 630500                    EPPR0   DIM+1,,AUTO
        22 002003   000001 631400 23                 EPPR1   1
        22 002004   000000 701000 xent               TSX1    Z8AE$ERROR
        22 002005   000000 011000                    NOP     0

  18937 22 002006   200007 470500                    LDP0    R$,,AUTO
        22 002007   000004 471500                    LDP1    4,,PR0
        22 002010   400000 236007                    LDQ     -131072,DL
        22 002011   100000 256100                    ORSQ    0,,PR1

      583    18946    4           END;

      584    18947
      585    18948    3         R$ = R$ -> LX_LIST.LINK;

  18948 22 002012   200007 470500                    LDP0    R$,,AUTO
        22 002013   000007 236100                    LDQ     7,,PR0
        22 002014   200007 756100                    STQ     R$,,AUTO

      586    18949    3       END;  /* Do While */

  18949 22 002015   000006 116000 23                 CMPQ    6
        22 002016   001640 601000 22                 TNZ     s:18850

PL6.E3A0      #001=Z8EX$SET_INDEX File=Z8EX.:Z8A6TSI                             SAT 08/09/97 12:54 Page:85
      587    18950                                                               /*#28761*/
      588    18951    2       IF VAL_REC_COUNT > COMCOM.MAX_RECEIVING_ITEMS THEN

  18951 22 002017   200006 236100                    LDQ     VAL_REC_COUNT,,AUTO
        22 002020   000360 116000 xsym               CMPQ    COMCOM+240
        22 002021   002023 604400 22                 TMOZ    s:18954

      589    18952    2         COMCOM.MAX_RECEIVING_ITEMS = VAL_REC_COUNT ;

  18952 22 002022   000360 756000 xsym               STQ     COMCOM+240

      590    18953
      591    18954    2       IF VAL_SPAN_OCC_REQUIRED THEN

  18954 22 002023   200012 234100                    SZN     VAL_SPAN_OCC_REQUIRED,,AUTO
        22 002024   002044 605000 22                 TPL     s:19335

      592    18955              %NEW_ILL(@ID = %VAL_END);

  19026 22 002025   000030 236000 23                 LDQ     24
        22 002026   200230 756100                    STQ     DIM+1,,AUTO
        22 002027   200230 630500                    EPPR0   DIM+1,,AUTO
        22 002030   200235 450500                    STP0    DIM+6,,AUTO
        22 002031   000031 236000 23                 LDQ     25
        22 002032   200234 756100                    STQ     DIM+5,,AUTO
        22 002033   000036 237000 23                 LDAQ    30
        22 002034   200232 757100                    STAQ    DIM+3,,AUTO
        22 002035   200232 630500                    EPPR0   DIM+3,,AUTO
        22 002036   000013 631400 23                 EPPR1   11
        22 002037   000000 701000 xent               TSX1    Z8AN$NEW_ILL
        22 002040   000000 011000                    NOP     0

  19027 22 002041   000006 236000 23                 LDQ     6
        22 002042   000000 470400 1                  LDP0    ILL$
        22 002043   000001 756100                    STQ     1,,PR0

      593    19334
PL6.E3A0      #001=Z8EX$SET_INDEX File=Z8EX.:Z8A6TSI                             SAT 08/09/97 12:54 Page:86
      594    19335    2       IF VAL_TYA_REQUIRED THEN

  19335 22 002044   200011 234100                    SZN     VAL_TYA_REQUIRED,,AUTO
        22 002045   002065 605000 22                 TPL     s:19716

      595    19336              %NEW_ILL (@ID = %VAL_END);

  19407 22 002046   000030 236000 23                 LDQ     24
        22 002047   200230 756100                    STQ     DIM+1,,AUTO
        22 002050   200230 630500                    EPPR0   DIM+1,,AUTO
        22 002051   200235 450500                    STP0    DIM+6,,AUTO
        22 002052   000031 236000 23                 LDQ     25
        22 002053   200234 756100                    STQ     DIM+5,,AUTO
        22 002054   000036 237000 23                 LDAQ    30
        22 002055   200232 757100                    STAQ    DIM+3,,AUTO
        22 002056   200232 630500                    EPPR0   DIM+3,,AUTO
        22 002057   000013 631400 23                 EPPR1   11
        22 002060   000000 701000 xent               TSX1    Z8AN$NEW_ILL
        22 002061   000000 011000                    NOP     0

  19408 22 002062   000006 236000 23                 LDQ     6
        22 002063   000000 470400 1                  LDP0    ILL$
        22 002064   000001 756100                    STQ     1,,PR0

      596    19715
      597    19716    2       IF VAL_REQUIRED THEN

  19716 22 002065   200010 234100                    SZN     VAL_REQUIRED,,AUTO
        22 002066   002113 605000 22                 TPL     s:20103

      598    19717              %NEW_ILL (@ID = %VAL_END);

  19788 22 002067   000030 236000 23                 LDQ     24
        22 002070   200230 756100                    STQ     DIM+1,,AUTO
        22 002071   200230 630500                    EPPR0   DIM+1,,AUTO
        22 002072   200235 450500                    STP0    DIM+6,,AUTO
        22 002073   000031 236000 23                 LDQ     25
PL6.E3A0      #001=Z8EX$SET_INDEX File=Z8EX.:Z8A6TSI                             SAT 08/09/97 12:54 Page:87
        22 002074   200234 756100                    STQ     DIM+5,,AUTO
        22 002075   000036 237000 23                 LDAQ    30
        22 002076   200232 757100                    STAQ    DIM+3,,AUTO
        22 002077   200232 630500                    EPPR0   DIM+3,,AUTO
        22 002100   000013 631400 23                 EPPR1   11
        22 002101   000000 701000 xent               TSX1    Z8AN$NEW_ILL
        22 002102   000000 011000                    NOP     0

  19789 22 002103   000006 236000 23                 LDQ     6
        22 002104   000000 470400 1                  LDP0    ILL$
        22 002105   000001 756100                    STQ     1,,PR0

  20066 22 002106   002113 710000 22                 TRA     s:20103

      599    20096
      600    20097    2     CASE (ELSE);

      601    20098
      602    20099    2       CALL Z8AE$ERROR (%E$UNEXPECTED_CASE);

  20099 22 002107   000005 630400 23                 EPPR0   5
        22 002110   000000 631400 23                 EPPR1   0
        22 002111   000000 701000 xent               TSX1    Z8AE$ERROR
        22 002112   000000 011000                    NOP     0

      603    20100    2   END;

      604    20101
      605    20102
      606    20103    1   RETURN;

  20103 22 002113   000000 702200 xent               TSX2  ! X66_ARET

      607    20104        %EJECT;
PL6.E3A0      #001=Z8EX$SET_INDEX File=Z8EX.:Z8A6TSI                             SAT 08/09/97 12:54 Page:88
      608    20105    1   Z8EX$SET_UP_BY : ENTRY (REC$, SEND$);

  20105 22 002114   000000 700200 xent  Z8EX$SET_UP* TSX0  ! X66_AUTO_2
        22 002115   000242 000002                    ZERO    162,2

      609    20106
      610    20107
      611    20108    1     EXPR_ID = %OP_PLUS;

  20108 22 002116   000020 235007                    LDA     16,DL
        22 002117   200005 755100                    STA     EXPR_ID,,AUTO

      612    20109    1     GOTO SET_UP_DOWN;

  20109 22 002120   002125 710000 22                 TRA     SET_UP_DOWN

      613    20110
      614    20111
      615    20112    1   Z8EX$SET_DOWN_BY : ENTRY (REC$, SEND$);

  20112 22 002121   000000 700200 xent  Z8EX$SET_DO* TSX0  ! X66_AUTO_2
        22 002122   000242 000002                    ZERO    162,2

      616    20113
      617    20114
      618    20115    1     EXPR_ID = %OP_BINARY_MINUS;

  20115 22 002123   000021 235007                    LDA     17,DL
        22 002124   200005 755100                    STA     EXPR_ID,,AUTO

      619    20116
      620    20117
      621    20118    1   SET_UP_DOWN:
      622    20119
      623    20120    1     IF REC$ -> LX_ETT_ITEM.TYPE ~= %TYX

  20120 22 002125   200003 470500       SET_UP_DOWN  LDP0    @REC$,,AUTO
PL6.E3A0      #001=Z8EX$SET_INDEX File=Z8EX.:Z8A6TSI                             SAT 08/09/97 12:54 Page:89
        22 002126   000000 471500                    LDP1    0,,PR0
        22 002127   100004 235100                    LDA     4,,PR1
        22 002130   000011 115007                    CMPA    9,DL
        22 002131   002147 600000 22                 TZE     s:20127
        22 002132   000012 115007                    CMPA    10,DL
        22 002133   002147 600000 22                 TZE     s:20127

      624    20121    1          AND REC$ -> LX_ETT_ITEM.TYPE ~= %TYY THEN
      625    20122    1       CALL Z8AE$ERROR (%E$INVALID_SET,

  20122 22 002134   100006 633500                    EPPR3   6,,PR1
        22 002135   200232 453500                    STP3    DIM+3,,AUTO
        22 002136   100005 634500                    EPPR4   5,,PR1
        22 002137   200231 454500                    STP4    DIM+2,,AUTO
        22 002140   000010 236000 23                 LDQ     8
        22 002141   200230 756100                    STQ     DIM+1,,AUTO
        22 002142   200230 630500                    EPPR0   DIM+1,,AUTO
        22 002143   000001 631400 23                 EPPR1   1
        22 002144   000000 701000 xent               TSX1    Z8AE$ERROR
        22 002145   000000 011000                    NOP     0
        22 002146   002205 710000 22                 TRA     s:20141

      626    20123    1                        REC$ -> LX_ETT_ITEM.LINE,
      627    20124    1                        REC$ -> LX_ETT_ITEM.COLUMN);
      628    20125    1     ELSE
      629    20126    2       DO;

      630    20127    2         CALL RESOLVE_INDEX_REFERENCES (REC$,

  20127 22 002147   000006 236000 23                 LDQ     6
        22 002150   200225 756100                    STQ     @EXPR_ID+1,,AUTO
        22 002151   200124 631500                    EPPR1   REC_INFO,,AUTO
        22 002152   200224 451500                    STP1    @SEND$+1,,AUTO
        22 002153   200003 236100                    LDQ     @REC$,,AUTO
        22 002154   200223 756100                    STQ     SEND_INFO+32,,AUTO
        22 002155   000314 701000 22                 TSX1    RESOLVE_INDEX_REFERENCES
        22 002156   000000 011000                    NOP     0
PL6.E3A0      #001=Z8EX$SET_INDEX File=Z8EX.:Z8A6TSI                             SAT 08/09/97 12:54 Page:90

      631    20128    2                                       REC_INFO);
      632    20129
      633    20130    2         IF REC_INFO.ARRAY$ = ADDR(NIL) THEN

  20130 22 002157   200125 236100                    LDQ     REC_INFO+1,,AUTO
        22 002160   000006 116000 23                 CMPQ    6
        22 002161   002177 601000 22                 TNZ     s:20136

      634    20131    2           CALL Z8AE$ERROR (%E$INVALID_SET,

  20131 22 002162   200003 470500                    LDP0    @REC$,,AUTO
        22 002163   000000 471500                    LDP1    0,,PR0
        22 002164   100006 633500                    EPPR3   6,,PR1
        22 002165   200232 453500                    STP3    DIM+3,,AUTO
        22 002166   100005 634500                    EPPR4   5,,PR1
        22 002167   200231 454500                    STP4    DIM+2,,AUTO
        22 002170   000010 236000 23                 LDQ     8
        22 002171   200230 756100                    STQ     DIM+1,,AUTO
        22 002172   200230 630500                    EPPR0   DIM+1,,AUTO
        22 002173   000001 631400 23                 EPPR1   1
        22 002174   000000 701000 xent               TSX1    Z8AE$ERROR
        22 002175   000000 011000                    NOP     0
        22 002176   002205 710000 22                 TRA     s:20141

      635    20132    2                            REC$ -> LX_ETT_ITEM.LINE,
      636    20133    2                            REC$ -> LX_ETT_ITEM.COLUMN);
      637    20134    2         ELSE
      638    20135    3           DO;

      639    20136    3             CALL SET_UP_DOWN (SEND$,

  20136 22 002177   200005 630500                    EPPR0   EXPR_ID,,AUTO
        22 002200   200224 450500                    STP0    @SEND$+1,,AUTO
        22 002201   200004 236100                    LDQ     @SEND$,,AUTO
        22 002202   200223 756100                    STQ     SEND_INFO+32,,AUTO
        22 002203   000627 701000 22                 TSX1    SET_UP_DOWN
PL6.E3A0      #001=Z8EX$SET_INDEX File=Z8EX.:Z8A6TSI                             SAT 08/09/97 12:54 Page:91
        22 002204   000000 011000                    NOP     0

      640    20137    3                               EXPR_ID);
      641    20138    3           END;

      642    20139    2       END;

      643    20140
      644    20141    1   RETURN;

  20141 22 002205   000000 702200 xent               TSX2  ! X66_ARET

      645    20142        %EJECT;
PL6.E3A0      #001=Z8EX$SET_INDEX File=Z8EX.:Z8A6TSI                             SAT 08/09/97 12:54 Page:92
      646    20143    1   Z8EX$SET_UP_FOR_SEARCH : ENTRY (REC$, SEND$);

  20143 22 002206   000000 700200 xent  Z8EX$SET_UP* TSX0  ! X66_AUTO_2
        22 002207   000242 000002                    ZERO    162,2

      647    20144
      648    20145        /* This is a special entry for the SEARCH statement.
      649    20146           REC$ points to VARYING identifier which is to be set
      650    20147           up by the same amount as a SET_UP_BY 1 would use
      651    20148           for SEND$
      652    20149        */
      653    20150
      654    20151    1     CALL RESOLVE_INDEX_REFERENCES (REC$,

  20151 22 002210   000006 236000 23                 LDQ     6
        22 002211   200225 756100                    STQ     @EXPR_ID+1,,AUTO
        22 002212   200124 630500                    EPPR0   REC_INFO,,AUTO
        22 002213   200224 450500                    STP0    @SEND$+1,,AUTO
        22 002214   200003 236100                    LDQ     @REC$,,AUTO
        22 002215   200223 756100                    STQ     SEND_INFO+32,,AUTO
        22 002216   000314 701000 22                 TSX1    RESOLVE_INDEX_REFERENCES
        22 002217   000000 011000                    NOP     0

      655    20152    1                                    REC_INFO);
      656    20153
      657    20154    1     CALL RESOLVE_INDEX_REFERENCES (SEND$,

  20154 22 002220   000006 236000 23                 LDQ     6
        22 002221   200225 756100                    STQ     @EXPR_ID+1,,AUTO
        22 002222   200163 630500                    EPPR0   SEND_INFO,,AUTO
        22 002223   200224 450500                    STP0    @SEND$+1,,AUTO
        22 002224   200004 236100                    LDQ     @SEND$,,AUTO
        22 002225   200223 756100                    STQ     SEND_INFO+32,,AUTO
        22 002226   000314 701000 22                 TSX1    RESOLVE_INDEX_REFERENCES
        22 002227   000000 011000                    NOP     0

      658    20155    1                                    SEND_INFO);
PL6.E3A0      #001=Z8EX$SET_INDEX File=Z8EX.:Z8A6TSI                             SAT 08/09/97 12:54 Page:93
      659    20156
      660    20157    1     IF REC_INFO.ARRAY$ = ADDR(NIL) THEN

  20157 22 002230   200125 236100                    LDQ     REC_INFO+1,,AUTO
        22 002231   000006 116000 23                 CMPQ    6
        22 002232   002237 601000 22                 TNZ     s:20163

      661    20158    2       DO;

      662    20159    2         REC_INFO.ARRAY$ = SEND_INFO.ARRAY$;

  20159 22 002233   200164 236100                    LDQ     SEND_INFO+1,,AUTO
        22 002234   200125 756100                    STQ     REC_INFO+1,,AUTO

      663    20160    2         REC_INFO.SPAN = SEND_INFO.SPAN;

  20160 22 002235   200221 235100                    LDA     SEND_INFO+30,,AUTO
        22 002236   200162 755100                    STA     REC_INFO+30,,AUTO

      664    20161    2       END;

      665    20162
      666    20163    1     CALL Z8AC$LX_ETT_ITEM_TYI_CONST (1,

  20163 22 002237   200114 630500                    EPPR0   ONE,,AUTO
        22 002240   200230 450500                    STP0    DIM+1,,AUTO
        22 002241   200230 631500                    EPPR1   DIM+1,,AUTO
        22 002242   200233 451500                    STP1    DIM+4,,AUTO
        22 002243   000012 236000 23                 LDQ     10
        22 002244   200232 756100                    STQ     DIM+3,,AUTO
        22 002245   200232 630500                    EPPR0   DIM+3,,AUTO
        22 002246   000020 631400 23                 EPPR1   16
        22 002247   000000 701000 xent               TSX1    Z8AC$LX_ETT_ITEM_TYI_CONST
        22 002250   000000 011000                    NOP     0

      667    20164    1                                      ADDR(ONE));
      668    20165
PL6.E3A0      #001=Z8EX$SET_INDEX File=Z8EX.:Z8A6TSI                             SAT 08/09/97 12:54 Page:94
      669    20166    1     CALL SET_UP_DOWN (ADDR(ONE),

  20166 22 002251   200114 630500                    EPPR0   ONE,,AUTO
        22 002252   200241 450500                    STP0    DIM+10,,AUTO
        22 002253   000040 236000 23                 LDQ     32
        22 002254   200224 756100                    STQ     @SEND$+1,,AUTO
        22 002255   200241 631500                    EPPR1   DIM+10,,AUTO
        22 002256   200223 451500                    STP1    SEND_INFO+32,,AUTO
        22 002257   000627 701000 22                 TSX1    SET_UP_DOWN
        22 002260   000000 011000                    NOP     0

      670    20167    1                       %OP_PLUS);
      671    20168
      672    20169    1     RETURN;

  20169 22 002261   000000 702200 xent               TSX2  ! X66_ARET
      673    20170
      674    20171    1   END Z8EX$SET_INDEX;
      675    20172        %EOD;

PL6.E3A0      #001=Z8EX$SET_INDEX File=Z8EX.:Z8A6TSI                             SAT 08/09/97 12:54 Page:95
--  Include file information  --

   Z8E_WINDOW.:Z8A6TOU  is referenced.
   Z8E_NEW_ILL.:Z8A6TOU  is referenced.
   Z8E_MACROS.:Z8A6TOU  cannot be made into a system file and is referenced.
   Z8E_O1COM.:Z8A6TOU  cannot be made into a system file and is referenced.
   Z8A_QLT.:Z8A6TOU  cannot be made into a system file and is referenced.
   Z8E_HEAP.:Z8A6TOU  cannot be made into a system file and is referenced.
   Z8A_LEX_SYMB.:Z8A6TOU  cannot be made into a system file and is referenced.
   Z8E_STACKS.:Z8A6TOU  cannot be made into a system file and is referenced.
   Z8A_ILS.:Z8A6TOU  cannot be made into a system file and is referenced.
   Z8A_SRCH.:Z8A6TOU  cannot be made into a system file and is referenced.
   Z8A_ERR_NUMS.:Z8A6TOU  is referenced.
   Z8A_ST.:Z8A6TOU  cannot be made into a system file and is referenced.
   Z8A_TYPES.:Z8A6TOU  is referenced.
   Z8A_COMCOM.:Z8A6TOU  cannot be made into a system file and is referenced.
   Z8A_LTS.:Z8A6TOU  cannot be made into a system file and is referenced.
   Z8A_ETT.:Z8A6TOU  cannot be made into a system file and is referenced.
   Z8A_ILL.:Z8A6TOU  cannot be made into a system file and is referenced.
   X8A_COM_MACS.:X8A6TOU  is referenced.
   Z8A_NAMES.:Z8A6TOU  is referenced.
   Z8A_SUPP_MAC.:Z8A6TOU  is referenced.
   Z8A_DEFC.:Z8A6TOU  cannot be made into a system file and is referenced.
      No diagnostics issued in procedure Z8EX$SET_INDEX.
PL6.E3A0      #001=Z8EX$SET_INDEX File=Z8EX.:Z8A6TSI                             SAT 08/09/97 12:54 Page:96

 **** Variables and constants ****

  ****  Section 000 LblCom ITERATION

  ****  Scalars and arrays  ****
OctLoc.c.b A Datatyp(siz) R M Lvl/name                 OctLoc.c.b A Datatyp(siz) R M Lvl/name

     0-0-0/w SBIN              1 ITERATION

  ****  Section 001 LblCom ILL$

  ****  Scalars and arrays  ****
OctLoc.c.b A Datatyp(siz) R M Lvl/name                 OctLoc.c.b A Datatyp(siz) R M Lvl/name

     0-0-0/w PTR         r     1 ILL$

  ****  Section 002 LblCom ILL_

  ****  Scalars and arrays  ****
OctLoc.c.b A Datatyp(siz) R M Lvl/name                 OctLoc.c.b A Datatyp(siz) R M Lvl/name

     0-0-0/w STRC(180)         1 ILL_

  ****  Section 003 LblCom ETT$

  ****  Scalars and arrays  ****
OctLoc.c.b A Datatyp(siz) R M Lvl/name                 OctLoc.c.b A Datatyp(siz) R M Lvl/name

     0-0-0/w PTR         r     1 ETT$

  ****  Section 004 LblCom HEAD_ETT$

  ****  Scalars and arrays  ****
OctLoc.c.b A Datatyp(siz) R M Lvl/name                 OctLoc.c.b A Datatyp(siz) R M Lvl/name

     0-0-0/w PTR               1 HEAD_ETT$

PL6.E3A0      #001=Z8EX$SET_INDEX File=Z8EX.:Z8A6TSI                             SAT 08/09/97 12:54 Page:97
  ****  Section 005 LblCom ETT_BUCKETS

  ****  Scalars and arrays  ****
OctLoc.c.b A Datatyp(siz) R M Lvl/name                 OctLoc.c.b A Datatyp(siz) R M Lvl/name

     0-0-0/w PTR               1 ETT_BUCKETS(0:511)

  ****  Section 006 LblCom ETT_

  ****  Scalars and arrays  ****
OctLoc.c.b A Datatyp(siz) R M Lvl/name                 OctLoc.c.b A Datatyp(siz) R M Lvl/name

     0-0-0/w STRC(180)         1 ETT_

  ****  Section 007 LblCom LTS$

  ****  Scalars and arrays  ****
OctLoc.c.b A Datatyp(siz) R M Lvl/name                 OctLoc.c.b A Datatyp(siz) R M Lvl/name

     0-0-0/w PTR               1 LONG_ITEM$                 0-0-0/w PTR         r     1 LTS$

  ****  Section 008 LblCom LTS_

  ****  Scalars and arrays  ****
OctLoc.c.b A Datatyp(siz) R M Lvl/name                 OctLoc.c.b A Datatyp(siz) R M Lvl/name

     0-0-0/w STRC(180)         1 LTS_

  ****  Section 009 LblCom ST$

  ****  Scalars and arrays  ****
OctLoc.c.b A Datatyp(siz) R M Lvl/name                 OctLoc.c.b A Datatyp(siz) R M Lvl/name

     0-0-0/w PTR         r     1 ST$

  ****  Section 010 LblCom ST_

PL6.E3A0      #001=Z8EX$SET_INDEX File=Z8EX.:Z8A6TSI                             SAT 08/09/97 12:54 Page:98
  ****  Scalars and arrays  ****
OctLoc.c.b A Datatyp(siz) R M Lvl/name                 OctLoc.c.b A Datatyp(siz) R M Lvl/name

     0-0-0/w STRC(180)         1 ST_

  ****  Section 011 LblCom SRCH

  ****  Scalars and arrays  ****
OctLoc.c.b A Datatyp(siz) R M Lvl/name                 OctLoc.c.b A Datatyp(siz) R M Lvl/name

     0-0-0/w STRC(108)         1 SRCH

  ****  Section 012 LblCom ILS$

  ****  Scalars and arrays  ****
OctLoc.c.b A Datatyp(siz) R M Lvl/name                 OctLoc.c.b A Datatyp(siz) R M Lvl/name

     0-0-0/w PTR         r     1 ILS$

  ****  Section 013 LblCom ILS_

  ****  Scalars and arrays  ****
OctLoc.c.b A Datatyp(siz) R M Lvl/name                 OctLoc.c.b A Datatyp(siz) R M Lvl/name

     0-0-0/w STRC(180)         1 ILS_

  ****  Section 014 LblCom LEX_SYMBOL

  ****  Scalars and arrays  ****
OctLoc.c.b A Datatyp(siz) R M Lvl/name                 OctLoc.c.b A Datatyp(siz) R M Lvl/name

     0-0-0/w STRC(3240)  r     1 LEX_SYMBOL                 0-0-0/w STRC(3240)        1 LEX_SYMBOL_WORDS

  ****  Section 015 LblCom CURRENT_LEX_SYMBOL$

  ****  Scalars and arrays  ****
OctLoc.c.b A Datatyp(siz) R M Lvl/name                 OctLoc.c.b A Datatyp(siz) R M Lvl/name
PL6.E3A0      #001=Z8EX$SET_INDEX File=Z8EX.:Z8A6TSI                             SAT 08/09/97 12:54 Page:99

     0-0-0/w PTR         r     1 CURRENT_LEX_SYMBOL$

  ****  Section 016 LblCom TEMP_LEX_SYMBOL

  ****  Scalars and arrays  ****
OctLoc.c.b A Datatyp(siz) R M Lvl/name                 OctLoc.c.b A Datatyp(siz) R M Lvl/name

     0-0-0/w STRC(3240)        1 TEMP_LEX_SYMBOL

  ****  Section 017 LblCom TEMP_LEX_SYMBOL2

  ****  Scalars and arrays  ****
OctLoc.c.b A Datatyp(siz) R M Lvl/name                 OctLoc.c.b A Datatyp(siz) R M Lvl/name

     0-0-0/w STRC(3240)        1 TEMP_LEX_SYMBOL2

  ****  Section 018 LblCom HEAP$

  ****  Scalars and arrays  ****
OctLoc.c.b A Datatyp(siz) R M Lvl/name                 OctLoc.c.b A Datatyp(siz) R M Lvl/name

     0-0-0/w PTR               1 HEAP$

  ****  Section 019 LblCom QLT$

  ****  Scalars and arrays  ****
OctLoc.c.b A Datatyp(siz) R M Lvl/name                 OctLoc.c.b A Datatyp(siz) R M Lvl/name

     0-0-0/w PTR         r     1 QLT$

  ****  Section 020 LblCom PREV_01_QLT$

  ****  Scalars and arrays  ****
OctLoc.c.b A Datatyp(siz) R M Lvl/name                 OctLoc.c.b A Datatyp(siz) R M Lvl/name

     0-0-0/w PTR               1 PREV_01_QLT$
PL6.E3A0      #001=Z8EX$SET_INDEX File=Z8EX.:Z8A6TSI                             SAT 08/09/97 12:54 Page:100

  ****  Section 021 LblCom QLT_

  ****  Scalars and arrays  ****
OctLoc.c.b A Datatyp(siz) R M Lvl/name                 OctLoc.c.b A Datatyp(siz) R M Lvl/name

     0-0-0/w STRC(180)         1 QLT_

  ****  Auto variables  ****

  ****  Scalars and arrays  ****
OctLoc.c.b A Datatyp(siz) R M Lvl/name                 OctLoc.c.b A Datatyp(siz) R M Lvl/name

   224-0-0/w PTR         r     1 @EXPR_ID                 223-0-0/w PTR         r     1 @INDEX$
   224-0-0/w PTR         r     1 @INDEX_INFO              225-0-0/w PTR         r     1 @OCC$
     3-0-0/w PTR         r     1 @REC$                      4-0-0/w PTR         r     1 @SEND$
   223-0-0/w PTR         r     1 @SEND$                   225-0-0/w PTR         r     1 @SUBSCRIPT$
    34-0-0/d STRC(288)   r     1 ADD_NODE                 226-0-0/w CHAR(8)     r     1 CHAR_LDAQSTAQ
   227-0-0/w SBIN        r     1 DIM                      226-0-0/w PTR         r     1 DIMS$
   104-0-0/d STRC(288)   r     1 ETT_NODE                   5-0-0/w UBIN        r     1 EXPR_ID
    *0-0-0/w SBIN        r     1 EXPR_ID                   *0-0-0/w PTR         r     1 INDEX$
    *0-0-0/w STRC(1116)  r     1 INDEX_INFO               226-0-0/w STRC(72)    r     1 LDAQSTAQ
    74-0-0/d STRC(288)   r     1 MULT_NODE                 *0-0-0/w PTR         r     1 OCC$
    44-0-0/d STRC(288)         1 OCC_NODE                 114-0-0/d STRC(288)   r     1 ONE
     7-0-0/w PTR         r     1 R$                        *0-0-0/w PTR         r     1 REC$
   124-0-0/w STRC(1116)  r     1 REC_INFO                  14-0-0/d STRC(288)         1 REC_NODE
    64-0-0/d STRC(288)   r     1 REC_SPAN_NODE             *0-0-0/w PTR         r     1 SEND$
    *0-0-0/w PTR         r     1 SEND$                    163-0-0/w STRC(1116)  r     1 SEND_INFO
    24-0-0/d STRC(288)         1 SEND_NODE                 54-0-0/d STRC(288)         1 SPAN_OCC_NODE
    *0-0-0/w PTR         r     1 SUBSCRIPT$                 6-0-0/w SBIN        r     1 VAL_REC_COUNT
    10-0-0/b BIT         r     1 VAL_REQUIRED
    12-0-0/b BIT         r     1 VAL_SPAN_OCC_REQUIRED
    11-0-0/b BIT         r     1 VAL_TYA_REQUIRED

  ****  SYMREF variables  ****

  ****  Scalars and arrays  ****
PL6.E3A0      #001=Z8EX$SET_INDEX File=Z8EX.:Z8A6TSI                             SAT 08/09/97 12:54 Page:101
OctLoc.c.b A Datatyp(siz) R M Lvl/name                 OctLoc.c.b A Datatyp(siz) R M Lvl/name

     0-0-0/d STRC(13248) r     1 COMCOM
     0-0-0/w STRC(180)         1 HIER_STK(0:50)
     0-0-0/w SBIN              1 HIER_STK_PTR               0-0-0/w UBIN              1 ILL_STEP(0:144)
     0-0-0/w UBIN              1 ILS_STEP_TABLE(0:2)
     0-0-0/w UBIN              1 LTS_STEP(0:37)
     0-0-0/d STRC(11580) r     1 O1COM                      0-0-0/w STRC(144)         1 PAGE_FORMAT
     0-0-0/w STRC(153)         1 REP_STK(0:50)              0-0-0/w SBIN              1 REP_STK_PTR

  ****  BASED and DCB variables  ****

  ****  Scalars and arrays  ****
OctLoc.c.b A Datatyp(siz) R M Lvl/name                 OctLoc.c.b A Datatyp(siz) R M Lvl/name

     0-0-0/w STRC(108)         1 ACCEPT_DISPLAY             0-0-0/w STRC(288)         1 ADD_STMT
     0-0-0/w STRC(396)         1 ALPHABET                   0-0-0/w STRC(144)         1 ALTER_LTS
     0-0-0/w STRC(3672)        1 ALT_KEY                    0-0-0/w STRC(36864)       1 ARGLIST
     0-0-0/w STRC(396)         1 ARRAY                      0-0-0/w STRC(180)         1 ARRAY_PRESET_LTS
     0-0-0/w ASTR(324)   r     1 BASED_LEX_SYMBOL
     0-0-0/w STRC(360)         1 BASED_LEX_SYMBOL_WORDS
     0-0-0/w STRC(288)         1 BASE_LTS                   0-0-0/w STRC(108)         1 BINARY_ILL
     0-0-0/w STRC(288)   r     1 BINARY_OP                  0-0-0/w STRC(396)         1 BLOCK
     0-0-0/w STRC(144)         1 BRANCH_ILL                 0-0-0/w STRC(144)         1 BT
     0-0-0/w STRC(288)         1 CALL_STMT                  0-0-0/w STRC(216)         1 CCOSU
     0-0-0/w STRC(396)         1 CD                         0-0-0/w STRC(288)         1 CD_LTS
     0-0-0/w CHAR(4096)        1 CHARS                      0-0-0/w STRC(396)         1 CLASS
     0-0-0/w STRC(108)         1 CODED_MOVE                 0-0-0/w STRC(288)         1 COMPUTE_STMT
     0-0-0/w STRC(396)         1 CONDITION                  0-0-0/w STRC(396)   r     1 CONST
     0-0-0/w STRC(72)          1 CONT                       0-0-0/w STRC(540)         1 CONTROL_NAME_LTS
     0-0-0/w STRC(1872)        1 COPY_FILE                  0-0-0/w STRC(396)         1 DB
     0-0-0/w STRC(396)         1 DCB_                       0-0-0/w STRC(288)         1 DEFERED_IDENTIFIER
     0-0-0/w STRC(252)         1 DEFERED_ID_TREE            0-0-0/w STRC(288)         1 DEFERED_QUAL_ID
     0-0-0/w STRC(288)         1 DEFERED_SUM_CLAUSE
     0-0-0/w STRC(288)         1 DEFERED_SUM_CLAUSE_LIST
     0-0-0/w STRC(144)         1 DEFLB                      0-0-0/w STRC(288)         1 DELETE_STMT
     0-0-0/w STRC(108)         1 DEPENDING_SIZE             0-0-0/w STRC(5472)  r     1 DIMS
PL6.E3A0      #001=Z8EX$SET_INDEX File=Z8EX.:Z8A6TSI                             SAT 08/09/97 12:54 Page:102
     0-0-0/w STRC(288)         1 DIVIDE_STMT                0-0-0/w STRC(396)         1 DML_ITEM
     0-0-0/w STRC(216)         1 DML_REC                    0-0-0/w STRC(144)         1 DOEND
     0-0-0/w STRC(396)         1 DO_N                       0-0-0/w STRC(180)         1 DV4I
     0-0-0/w STRC(180)         1 ENTRY_ILL                  0-0-0/w STRC(180)   r     1 ETT
     0-0-0/w STRC(108)         1 EVALU                      0-0-0/w STRC(73836)       1 EVALUATE
     0-0-0/w STRC(396)         1 FD                         0-0-0/w STRC(1692)        1 FILE_LTS
     0-0-0/w STRC(144)         1 GO                         0-0-0/w STRC(180)         1 ILL
     0-0-0/w STRC              1 ILL_NO_OPS                 0-0-0/w STRC(180)         1 ILS
     0-0-0/w STRC(288)         1 ILS_LIST                   0-0-0/w STRC(108)         1 INDEXES
     0-0-0/w STRC(360)         1 INIT_LTS                   0-0-0/w STRC(288)         1 INSPECT_1_STMT
     0-0-0/w STRC(288)         1 INSPECT_2_STMT             0-0-0/w STRC(288)         1 INSPECT_4_STMT
     0-0-0/w STRC(396)         1 INTDEF                     0-0-0/w STRC(180)         1 IO_RESTORE_CHAIN
     0-0-0/w STRC(144)         1 KEY                        0-0-0/w STRC(396)         1 LABEL
     0-0-0/w STRC(288)         1 LA_ITEM                    0-0-0/w STRC(36864)       1 LCNST
     0-0-0/w STRC(108)         1 LINOI                      0-0-0/w STRC(72)          1 LONG
     0-0-0/w STRC        r     1 LTS                        0-0-0/w STRC(360)   r     1 LTSS
     0-0-0/w STRC(36936)       1 LTS_PTR_ARRAY              0-0-0/w STRC(504)         1 LX_CD_INPUT
     0-0-0/w STRC(324)         1 LX_CD_I_O                  0-0-0/w STRC(396)         1 LX_CD_OUTPUT
     0-0-0/w STRC(288)   r     1 LX_ETT_ITEM                0-0-0/w STRC(288)   r     1 LX_ITEM
     0-0-0/w STRC(288)         1 LX_LARGE                   0-0-0/w STRC(288)   r     1 LX_LIST
     0-0-0/w STRC(1224)        1 LX_REC_DECL                0-0-0/w STRC(864)         1 LX_REPORT_REC
     0-0-0/w STRC(288)   r     1 LX_TERMINAL                0-0-0/w STRC(72)          1 MFILL
     0-0-0/w STRC(396)         1 MNEMONIC                   0-0-0/w STRC(288)         1 MULTIPLY_STMT
     0-0-0/w STRC(180)         1 MULTI_GO                   0-0-0/w STRC(180)         1 MVEAL
     0-0-0/w STRC(108)         1 MVFIL                      0-0-0/w STRC(72)          1 MVIIS
     0-0-0/w STRC(144)         1 NEL                        0-0-0/w STRC(216)         1 OPEN_LTS
     0-0-0/w STRC(144)         1 OPN                        0-0-0/w STRC(180)         1 OS_CALL
     0-0-0/w STRC(36864)       1 PAGE                       0-0-0/w STRC(396)         1 PARA
     0-0-0/w STRC(216)         1 PFORM                      0-0-0/w STRC(144)         1 PINC
     0-0-0/w STRC(144)         1 PREOFF                     0-0-0/w STRC(108)         1 PRESET
     0-0-0/w STRC(144)         1 PRIME                      0-0-0/w STRC(396)         1 PROC_
     0-0-0/w STRC(396)         1 PROC_DEF                   0-0-0/w STRC(900)         1 PROC_SUPP
     0-0-0/w STRC(144)         1 P_A_PRESET                 0-0-0/w STRC(144)         1 P_P_PRESET
     0-0-0/w STRC(216)   r     1 QLT                        0-0-0/w STRC(396)         1 RD
     0-0-0/w STRC(288)         1 READ_STMT                  0-0-0/w STRC(216)         1 REF
     0-0-0/w STRC(144)         1 REMEM                      0-0-0/w STRC(108)         1 RENAMES
     0-0-0/w STRC(720)         1 REPORT_01_LTS              0-0-0/w STRC(432)         1 REPORT_ELEM_LTS
PL6.E3A0      #001=Z8EX$SET_INDEX File=Z8EX.:Z8A6TSI                             SAT 08/09/97 12:54 Page:103
     0-0-0/w STRC(252)         1 REPORT_GRP_LTS             0-0-0/w STRC(1332)        1 REPORT_LTS
     0-0-0/w STRC(288)         1 REWRITE_STMT               0-0-0/w STRC(144)         1 RVA_LTS
     0-0-0/w STRC(396)   r     1 SCALAR                     0-0-0/w STRC(144)         1 SCOPE
     0-0-0/w STRC(396)         1 SD                         0-0-0/w STRC(216)         1 SEARCH_
     0-0-0/w STRC(396)         1 SECTION                    0-0-0/w STRC(396)         1 SEGMENT
     0-0-0/w STRC(360)         1 SEGMENT_LTS                0-0-0/w STRC(396)   r     1 ST
     0-0-0/w STRC(288)         1 START_STMT                 0-0-0/w STRC(72)          1 STP2
     0-0-0/w STRC(252)         1 STRING_STMT                0-0-0/w STRC(288)         1 SUBTRACT_STMT
     0-0-0/w STRC(252)         1 SUM_LTS                    0-0-0/w STRC(396)         1 SWITCH
     0-0-0/w STRC(396)         1 SYMBOLIC_CHAR              0-0-0/w STRC(396)         1 SYMDEF_
     0-0-0/w STRC(396)         1 SYMREF_                    0-0-0/w STRC(396)         1 TEMP
     0-0-0/w STRC(144)         1 TRINARY_ILL                0-0-0/w STRC(72)          1 UNARY_ILL
     0-0-0/w STRC(288)         1 UNARY_OP                   0-0-0/w STRC(288)         1 UNSTRING_STMT
     0-0-0/d STRC(612)         1 USE                        0-0-0/w STRC(216)         1 USER_CALL
     0-0-0/w STRC(252)         1 USE_SUPP                   0-0-0/w STRC(108)   r     1 VAL
     0-0-0/w STRC(108)   r     1 VAL_END                    0-0-0/w STRC(396)   r     1 VARIABLE
     0-0-0/w STRC(72)          1 WHEN                       0-0-0/w STRC(288)         1 WRITE_STMT


   Procedure Z8EX$SET_INDEX requires 1202 words for executable code.
   Procedure Z8EX$SET_INDEX requires 162 words of local(AUTO) storage.

