PL6.E3A0      #002=Z8EX$SET_STATEMENT File=Z8EX.:Z8A6TSI                         SAT 08/09/97 12:58 Page:104
      676        1        /*T***********************************************************/
      677        2        /*T*                                                         */
      678        3        /*T* Copyright (c) Bull HN Information Systems Inc., 1997    */
      679        4        /*T*                                                         */
      680        5        /*T***********************************************************/
      681        6        /*------------------*/
      682        7          Z8EX$SET_STATEMENT : PROC ( KEY_WORD$,
      683        8        /*------------------*/        RECEIVE$,
      684        9                                      SEND$,
      685       10                                      SET_TYPE);
      686       11
      687       12        /*I*
      688       13                 NAME: SET_STATEMENT
      689       14
      690       15          DESCRIPTION: The particular type of SET is isolated.  The routines
      691       16                               Z8EX$SET_INDEX
      692       17                               Z8EX$SET_UP_BY
      693       18                               Z8EX$SET_DOWN_BY
      694       19                       are used to set INDEX variables.  Setting switches is
      695       20                       handled by emitting %ON_SWITCH and %OFF_SWITCH ILL
      696       21                       items.  Z8E7$RESTRICTED_MOVE is used to set <conditions>
      697       22                       to true, because these moves do not conform to the
      698       23                       standard move rules.
      699       24        */
      700       25
      701       26        %EQU PHASE = 1;
      702       27
      703       28        %INCLUDE Z8A_DEFC;
      704       96        %INCLUDE Z8A_SUPP_MAC ;
      705     2496        %INCLUDE Z8A_COMCOM ;
      706     3146        %INCLUDE Z8E_WINDOW ;
      707     5216        %INCLUDE Z8E_STACKS ;
      708     7482        %INCLUDE Z8E_O1COM;
      709     8243        %INCLUDE Z8E_MACROS;
      710     8918        %INCLUDE Z8E_ILS_LIST;
      711     9002        %INCLUDE Z8A_ERR_NUMS ;
      712     9766        %INCLUDE Z8A_MKCN;
PL6.E3A0      #002=Z8EX$SET_STATEMENT File=Z8EX.:Z8A6TSI                         SAT 08/09/97 12:58 Page:105
      713     9783        %INCLUDE Z8E_DML;
      714     9903        %INCLUDE Z8A_DNT ;
      715    10124        %INCLUDE Z8A_ST;
      716    13783        %INCLUDE Z8A_TYPES;
      717    13957        %INCLUDE Z8A_ETT ;
      718    14258        %INCLUDE Z8A_ILL ;
      719    14951        %INCLUDE Z8E_HEAP;
      720    15007        %INCLUDE Z8E_ABSSYN;
      721    15213        %INCLUDE Z8E_STATEMNT;
      722    15282
      723    15283    1   DCL Z8EK$BRANCH_FALSE             ENTRY(2);
      724    15284    1   DCL Z8EK$BRANCH                   ENTRY(1);
      725    15285    1   DCL Z8ED$DISPOSE_ABSSYN_TREE      ENTRY(1);
      726    15286    1   DCL Z8AF$FORME                    ENTRY(4);
      727    15287    1   DCL Z8AC$MAKE_CONST               ENTRY(1);
      728    15288    1   DCL Z8AC$LX_ETT_ITEM_TYI_CONST    ENTRY(2);
      729    15289    1   DCL Z8E7$MOVE                     ENTRY(2);
      730    15290    1   DCL Z8E7$RESTRICTED_MOVE          ENTRY(2);
      731    15291    1   DCL Z8E7$MOVE_STATEMENT           ENTRY(4);
      732    15292    1   DCL Z8E7$POINTER_MOVE             ENTRY(2);
      733    15293    1   DCL Z8EU$CREATE_IDENTIFIER_FROM_ST ENTRY(4);
      734    15294    1   DCL Z8AE$ERROR                    ENTRY(12);
      735    15295    1   DCL Z8EX$SET_INDEX                ENTRY(2);
      736    15296    1   DCL Z8EX$SET_UP_BY                ENTRY(2);
      737    15297    1   DCL Z8EX$SET_DOWN_BY              ENTRY(2);
      738    15298    1   DCL Z8EY$SUBSCRIPT                ENTRY(2);
      739    15299    1   DCL Z8AT$CREATE_TEMPORARY         ENTRY(2);
      740    15300    1   DCL Z8CO$INTEGER_CHECK            ENTRY(1) ALTRET;
      741    15301
      742    15302    1     DCL VAL_REC_COUNT SBIN WORD;
      743    15303
      744    15304    1     DCL KEY_WORD$ PTR;
      745    15305    1     DCL RECEIVE$ PTR;
      746    15306    1     DCL SEND$ PTR;
      747    15307    1     DCL SET_TYPE SBIN;
      748    15308
      749    15309        /*-------------*/
PL6.E3A0      #002=Z8EX$SET_STATEMENT File=Z8EX.:Z8A6TSI                         SAT 08/09/97 12:58 Page:106
      750    15310    1     SET_STATEMENT : PROC;
      751    15311        /*-------------*/
      752    15312        %EJECT;
PL6.E3A0      #002=Z8EX$SET_STATEMENT File=Z8EX.:Z8A6TSI                         SAT 08/09/97 12:58 Page:107
      753    15313    2     DCL P$   PTR;
      754    15314    2     DCL P1$  PTR;
      755    15315    2     DCL P2$  PTR;
      756    15316    2     DCL P3$  PTR;
      757    15317    2     DCL P4$  PTR;
      758    15318    2     DCL T$ PTR;
      759    15319    2     DCL ORIG_LINE# SBIN;
      760    15320    2     DCL ORIG_COLUMN# SBIN;
      761    15321    2     DCL REC$ PTR;
      762    15322    2     DCL R$   PTR ;
      763    15323    2     DCL ST$ PTR;
      764    15324    2     DCL ST2$ PTR;
      765    15325    2     DCL CONST$ PTR;
      766    15326    2     DCL END_LABEL$ PTR;
      767    15327    2     DCL OFF_SW_LABEL$ PTR;
      768    15328    2     DCL SW# SBIN WORD;
      769    15329    2     DCL SW2# SBIN WORD;
      770    15330    2     DCL VAL_REQUIRED BOOLEAN;
      771    15331
      772    15332          %DCL_AUTO_LX_ITEM(@NAME = SW_VALUE);
      773    15336          %DCL_AUTO_LX_ITEM(@NAME = SW_ON_COND);
      774    15340          %DCL_AUTO_LX_ITEM(@NAME = ASS_VAR);
      775    15344
      776    15345          /* Internal Procedures */
      777    15346
      778    15347    2     SET_UP_DOWN: PROC (RECEIVE$, SEND$, SET_TYPE) ;
      779    15348
      780    15349    3     DCL  RECEIVE$    PTR ; /* LX_LIST                    */
      781    15350    3     DCL  SEND$       PTR ; /* LX_ETT_ITEM or whatever    */
      782    15351    3     DCL  SET_TYPE    SBIN; /* %SET_UP_BY or %SET_DOWN_BY */
      783    15352    3     DCL  REC$        PTR ;
      784    15353
      785    15354    3       CALL Z8CO$INTEGER_CHECK(SEND$);
      786    15355
      787    15356    3       IF NOT SEND$ -> LX_ITEM.B.ERROR     AND
      788    15357    3          NOT RECEIVE$ -> LX_ITEM.B.ERROR     THEN
      789    15358    4         DO;
PL6.E3A0      #002=Z8EX$SET_STATEMENT File=Z8EX.:Z8A6TSI                         SAT 08/09/97 12:58 Page:108
      790    15359    4           IF SEND$ -> LX_ITEM.ID = %LX_ETT_ITEM
      791    15360    4                AND SEND$ -> LX_ETT_ITEM.ETT$ -> ETT.ID ~= %TRIAD THEN
      792    15361    5             DO;
      793    15362    5               CALL Z8AF$FORME (%EVAL,
      794    15363    5                                SEND$ -> LX_ETT_ITEM.ETT$,
      795    15364    5                                ADDR(NIL),
      796    15365    5                                SEND$ -> LX_ETT_ITEM.ETT$);
      797    15366                    %NEW_ILL  (@ID = %VAL,
      798    15367                               @ETT$ = "SEND$ -> LX_ETT_ITEM.ETT$ ");
      799    15746    5               VAL_REQUIRED = TRUE;
      800    15747    5               VAL_REC_COUNT = 0 ;                             /*#28761*/
      801    15748    5             END;
      802    15749    4           ELSE
      803    15750    4             VAL_REQUIRED = FALSE;
      804    15751
      805    15752    4           REC$ = RECEIVE$ ->  LX_LIST.HEAD$;
      806    15753    5           DO WHILE REC$ ~= ADDR(NIL) ;
      807    15754
      808    15755    5             IF REC$ -> LX_LIST.COUNT > 1 THEN
      809    15756    5               CALL Z8EY$SUBSCRIPT (REC$ -> LX_LIST.TAIL$,
      810    15757    5                                    REC$ -> LX_LIST.HEAD$);
      811    15758
      812    15759    5             IF SET_TYPE = %SET_UP_BY THEN
      813    15760    5               CALL Z8EX$SET_UP_BY(REC$ -> LX_LIST.HEAD$,
      814    15761    5                                   SEND$);
      815    15762    5             ELSE
      816    15763    5               CALL Z8EX$SET_DOWN_BY (REC$ -> LX_LIST.HEAD$,
      817    15764    5                                      SEND$);
      818    15765    5             REC$ = REC$ -> LX_LIST.LINK;
      819    15766    5             VAL_REC_COUNT = VAL_REC_COUNT + 1 ;               /*#28761*/
      820    15767    5           END; /* Do while REC$ non-nil */
      821    15768
      822    15769    5           IF VAL_REQUIRED THEN DO ;                           /*#28761*/
      823    15770                  %NEW_ILL (@ID = %VAL_END);
      824    16149    5             IF VAL_REC_COUNT > COMCOM.MAX_RECEIVING_ITEMS THEN /*#28761*/
      825    16150    5               COMCOM.MAX_RECEIVING_ITEMS = VAL_REC_COUNT ;
      826    16151    5           END ;
PL6.E3A0      #002=Z8EX$SET_STATEMENT File=Z8EX.:Z8A6TSI                         SAT 08/09/97 12:58 Page:109
      827    16152    4         END; /* Sending field not in error */
      828    16153
      829    16154    3     END SET_UP_DOWN ;
      830    16155
      831    16156    2     SET_TO: PROC (RECEIVE$, SEND$) ;
      832    16157
      833    16158    3     DCL  RECEIVE$  PTR ; /* LX_LIST */
      834    16159    3     DCL  SEND$     PTR ; /* mnemonic switch, id, or literal */
      835    16160    3     DCL  REC$      PTR ;
      836    16161    3     DCL  R$        PTR ;
      837    16162
      838    16163    4       DO CASE (SEND$ -> LX_ITEM.ID);
      839    16164
      840    16165    4         CASE(%LX_LIST);
      841    16166
      842    16167    4           IF SEND$ -> LX_LIST.HEAD$ -> LX_ETT_ITEM.TYPE = %TYP THEN
      843    16168    5             DO;
      844    16169    5               CALL PROCESS_POINTER_SET (RECEIVE$, SEND$);
      845    16170
      846    16171    5               RETURN;
      847    16172    5             END;
      848    16173
      849    16174                %FISH(TRIAD = SEND$ -> LX_LIST.HEAD$ -> LX_ETT_ITEM.ETT$,
      850    16175                      RTN = ST$);
      851    16183
      852    16184    4           IF ST$ -> ST.ID ~= %SWITCH THEN
      853    16185    5             DO;  /* Rec should be INDEX */
      854    16186    5               CALL Z8EX$SET_INDEX (RECEIVE$,
      855    16187    5                                    SEND$);
      856    16188    5             END;
      857    16189    4           ELSE
      858    16190    5             DO;
      859    16191    5               REC$ = RECEIVE$ -> LX_LIST.HEAD$;
      860    16192    6               DO WHILE REC$ ~= ADDR(NIL);
      861    16193    6                 IF REC$ -> LX_ITEM.ID = %LX_LIST THEN
      862    16194    6                   R$ = REC$ -> LX_LIST.HEAD$ ;
      863    16195    6                 ELSE
PL6.E3A0      #002=Z8EX$SET_STATEMENT File=Z8EX.:Z8A6TSI                         SAT 08/09/97 12:58 Page:110
      864    16196    6                   R$ = REC$ ;
      865    16197
      866    16198    6                 IF R$ -> LX_ITEM.ID = %LX_TERMINAL THEN
      867    16199    6                   ST2$ = ADDR(NIL) ;
      868    16200    6                 ELSE
      869    16201                        %FISH (TRIAD = R$ -> LX_ETT_ITEM.ETT$,
      870    16202                               RTN = ST2$);
      871    16210
      872    16211    6                 IF ST2$ = ADDR(NIL)
      873    16212    6                 OR ST2$ -> ST.ID ~= %SWITCH THEN
      874    16213    7                   DO;
      875    16214                           %CONDITIONAL_ERROR (@LX_ITEM$ = R$,
      876    16215                                  @ERROR# = %E$MNEMONIC_NAME_EXPECTED,
      877    16216                                  @LINE = R$ -> LX_ETT_ITEM.LINE,
      878    16217                                  @COLUMN = R$ -> LX_ETT_ITEM.COLUMN);
      879    16247    7                   END;
      880    16248    6                 ELSE
      881    16249    7                   DO;  /* Have a SET mnemonic-name to mnemonic-name */
      882    16250    7                     CALL SET_SWITCH_FROM_SWITCH
      883    16251    7                        (BINBIT(ST2$ -> SWITCH.SWITCH#, 36),
      884    16252    7                         BINBIT(ST$ -> SWITCH.SWITCH#, 36));
      885    16253    7                   END;
      886    16254    6                 REC$ = REC$ -> LX_ITEM.LINK;
      887    16255    6               END;
      888    16256    5             END;
      889    16257    4           CALL Z8ED$DISPOSE_ABSSYN_TREE (SEND$ -> LX_LIST.HEAD$);
      890    16258
      891    16259    4         CASE(ELSE);
      892    16260
      893    16261    4           CALL Z8EX$SET_INDEX(RECEIVE$,
      894    16262    4                               SEND$);
      895    16263    4       END;
      896    16264
      897    16265    3     END SET_TO ;
      898    16266
      899    16267    2     SET_TO_TRUE: PROC (RECEIVE$) ;
      900    16268
PL6.E3A0      #002=Z8EX$SET_STATEMENT File=Z8EX.:Z8A6TSI                         SAT 08/09/97 12:58 Page:111
      901    16269    3     DCL  RECEIVE$  PTR ; /* LX_LIST */
      902    16270    3     DCL  REC$      PTR ;
      903    16271
      904    16272    3       REC$ = RECEIVE$ -> LX_LIST.HEAD$;
      905    16273    4       DO WHILE REC$ ~= ADDR(NIL);
      906    16274
      907    16275              %FISH (TRIAD = REC$ -> LX_LIST.HEAD$ -> LX_ETT_ITEM.ETT$,
      908    16276                     RTN = ST$);
      909    16284
      910    16285    4         IF ST$ -> ST.ID = %CONDITION THEN
      911    16286    5           DO;
      912    16287    6             DO CASE (ST$ -> CONDITION.ASSOC_VAR$ -> ST.ID);
      913    16288
      914    16289    6               CASE (%SCALAR, %ARRAY);
      915    16290
      916    16291    6                 IF ST$ -> CONDITION.VALUE_LIST$ = ADDR(NIL)
      917    16292    6                   THEN RETURN;
      918    16293
      919    16294    6                 CALL Z8EU$CREATE_IDENTIFIER_FROM_ST (ST$ -> CONDITION.ASSOC_VAR$,
      920    16295    6                                                      ADDR(ASS_VAR),
      921    16296    6                                                      REC$ -> LX_LIST.HEAD$ ->
             16296                                                               LX_ETT_ITEM.LINE,
      922    16297    6                                                      REC$ -> LX_LIST.HEAD$ ->
             16297                                                               LX_ETT_ITEM.COLUMN);
      923    16298    6                 IF REC$ -> LX_LIST.COUNT > 1 THEN
      924    16299    6                   CALL Z8EY$SUBSCRIPT (REC$ -> LX_LIST.TAIL$,
      925    16300    6                                        ADDR(ASS_VAR));
      926    16301
      927    16302                      /* swap line & column for possible error message */
      928    16303    6                 T$ = ST$ -> CONDITION.VALUE_LIST$ -> LX_LIST.HEAD$ -> LX_LIST.HEAD$;
      929    16304    6                 ORIG_LINE# = T$ -> LX_ITEM.LINE;
      930    16305    6                 ORIG_COLUMN# = T$ -> LX_ITEM.COLUMN;
      931    16306    6                 T$ -> LX_ITEM.LINE = REC$ -> LX_LIST.HEAD$ -> LX_ETT_ITEM.LINE;
      932    16307    6                 T$ -> LX_ITEM.COLUMN = REC$ -> LX_LIST.HEAD$ -> LX_ETT_ITEM.COLUMN;
      933    16308
      934    16309    6                 CALL Z8E7$RESTRICTED_MOVE (ADDR(ASS_VAR),
      935    16310    6                                 ST$ -> CONDITION.VALUE_LIST$ -> LX_LIST.HEAD$
PL6.E3A0      #002=Z8EX$SET_STATEMENT File=Z8EX.:Z8A6TSI                         SAT 08/09/97 12:58 Page:112
      936    16311    6                                               -> LX_LIST.HEAD$);
      937    16312
      938    16313                      /* restore line & column to original value is clause */
      939    16314    6                 T$ -> LX_ITEM.LINE = ORIG_LINE#;
      940    16315    6                 T$ -> LX_ITEM.COLUMN = ORIG_COLUMN#;
      941    16316
      942    16317    6               CASE(%SWITCH);
      943    16318
      944    16319    6                 CALL CREATE_SWITCH_TRIAD (BINBIT(ST$ -> CONDITION.ASSOC_VAR$ -> SWITCH
             16319                          .SWITCH#, 36),
      945    16320    6                                           CONST$);
      946    16321
      947    16322    6                 IF ST$ -> CONDITION.ASSOC_VAR$ -> SWITCH.ON$ = ST$ THEN
      948    16323                        %NEW_ILL (@ID = %ON_SWITCH,
      949    16324                                  @LOP = CONST$);
      950    16703    6                 ELSE
      951    16704                        %NEW_ILL (@ID = %OFF_SWITCH,
      952    16705                                  @LOP = CONST$);
      953    17084
      954    17085    6               CASE (ELSE);
      955    17086
      956    17087    6                 CALL Z8AE$ERROR (%E$CONDITION_NAME_EXPECTED,
      957    17088    6                                  REC$ -> LX_LIST.HEAD$ -> LX_ETT_ITEM.LINE,
      958    17089    6                                  REC$ -> LX_LIST.HEAD$ -> LX_ETT_ITEM.COLUMN);
      959    17090
      960    17091    6             END;
      961    17092    5           END;
      962    17093    4         ELSE
      963    17094                %CONDITIONAL_ERROR (@LX_ITEM$ = REC$ -> LX_LIST.HEAD$,
      964    17095                                    @ERROR# = %E$CONDITION_NAME_EXPECTED,
      965    17096                                    @LINE = REC$ -> LX_LIST.HEAD$ -> LX_ETT_ITEM.LINE,
      966    17097                                    @COLUMN = REC$ -> LX_LIST.HEAD$ -> LX_ETT_ITEM.COLUMN);
      967    17127
      968    17128    4         REC$ = REC$ -> LX_ITEM.LINK;
      969    17129    4       END;
      970    17130
      971    17131    3     END SET_TO_TRUE ;
PL6.E3A0      #002=Z8EX$SET_STATEMENT File=Z8EX.:Z8A6TSI                         SAT 08/09/97 12:58 Page:113
      972    17132
      973    17133
      974    17134    2     SET_TO_SWITCH: PROC (RECEIVE$, SEND$) ;
      975    17135
      976    17136    3     DCL  RECEIVE$  PTR ; /* LX_LIST */
      977    17137    3     DCL  SEND$     PTR ; /* mnemonic switch, id, or literal */
      978    17138    3     DCL  REC$      PTR ;
      979    17139
      980    17140    3       REC$ = RECEIVE$ -> LX_LIST.HEAD$;
      981    17141    4       DO WHILE REC$ ~= ADDR(NIL);
      982    17142
      983    17143    4         CALL CHARBIN(SW#,
      984    17144    4                      SUBSTR(SEND$ -> LX_TERMINAL.DNT$ -> DNT.TEXT.NAME,
      985    17145    4                             7));
      986    17146
      987    17147              %FISH (TRIAD = REC$ -> LX_LIST.HEAD$ -> LX_ETT_ITEM.ETT$,
      988    17148                     RTN = ST$);
      989    17156
      990    17157    4         IF REC$ -> LX_LIST.COUNT > 1
      991    17158    4              OR ST$ -> ST.ID ~= %SWITCH THEN
      992    17159                %CONDITIONAL_ERROR (@LX_ITEM$ = REC$ -> LX_LIST.HEAD$,
      993    17160                                    @ERROR# = %E$MNEMONIC_NAME_EXPECTED,
      994    17161                                    @LINE = REC$ -> LX_LIST.HEAD$ -> LX_ETT_ITEM.LINE,
      995    17162                                    @COLUMN = REC$ -> LX_LIST.HEAD$ -> LX_ETT_ITEM.COLUMN);
      996    17192    4         ELSE
      997    17193    4           CALL SET_SWITCH_FROM_SWITCH (BINBIT(ST$ -> SWITCH.SWITCH#, 36),
      998    17194    4                                        SW#);
      999    17195    4         REC$ = REC$ -> LX_ITEM.LINK;
     1000    17196    4       END;
     1001    17197
     1002    17198    3     END SET_TO_SWITCH ;
     1003    17199
     1004    17200
     1005    17201    2     SET_SWITCH_TO: PROC (RECEIVE$, SEND$) ; /* SET SWITCH ... TO ___ */
     1006    17202
     1007    17203    3     DCL  RECEIVE$  PTR ; /* LX_LIST of switches */
     1008    17204    3     DCL  SEND$     PTR ; /* LX_TERMINAL, LX_ETT_ITEM */
PL6.E3A0      #002=Z8EX$SET_STATEMENT File=Z8EX.:Z8A6TSI                         SAT 08/09/97 12:58 Page:114
     1009    17205    3     DCL  REC$      PTR ;
     1010    17206    3     DCL  S$        PTR ;
     1011    17207
     1012    17208    3       REC$ = RECEIVE$ -> LX_LIST.HEAD$ ;
     1013    17209    4       DO WHILE (REC$ ~= ADDR(NIL)) ;
     1014    17210
     1015    17211    5         IF REC$ -> LX_ITEM.ID = %LX_TERMINAL THEN DO ;
     1016    17212
     1017    17213    5           CALL CHARBIN (SW#,
     1018    17214    5                         SUBSTR (REC$ -> LX_TERMINAL.DNT$
     1019    17215    5                                            -> DNT.TEXT.NAME,
     1020    17216    5                                 7));
     1021    17217
     1022    17218    6           DO CASE(SEND$ -> LX_ITEM.ID);
     1023    17219
     1024    17220    6             CASE(%LX_TERMINAL);
     1025    17221
     1026    17222    7               DO SELECT(SEND$ -> LX_TERMINAL.SYMBOL);
     1027    17223
     1028    17224    7                 SELECT(%RSV_WRD_ON);
     1029    17225
     1030    17226    7                   CALL CREATE_SWITCH_TRIAD (SW#, CONST$);
     1031    17227
     1032    17228                        %NEW_ILL (@ID = %ON_SWITCH,
     1033    17229                                  @LOP = CONST$);
     1034    17608
     1035    17609    7                 SELECT(%RSV_WRD_OFF);
     1036    17610
     1037    17611    7                   CALL CREATE_SWITCH_TRIAD (SW#, CONST$);
     1038    17612
     1039    17613                        %NEW_ILL (@ID = %OFF_SWITCH,
     1040    17614                                  @LOP = CONST$);
     1041    17993
     1042    17994    7                 SELECT(%RSV_WRD_SWITCH);
     1043    17995
     1044    17996    7                   CALL CHARBIN(SW2#,
     1045    17997    7                                SUBSTR(SEND$ -> LX_TERMINAL.DNT$
PL6.E3A0      #002=Z8EX$SET_STATEMENT File=Z8EX.:Z8A6TSI                         SAT 08/09/97 12:58 Page:115
     1046    17998    7                                              -> DNT.TEXT.NAME,
     1047    17999    7                                       7));
     1048    18000
     1049    18001    7                   CALL SET_SWITCH_FROM_SWITCH (SW#,
     1050    18002    7                                                SW2#);
     1051    18003
     1052    18004    7               END;
     1053    18005
     1054    18006    6             CASE(%LX_ETT_ITEM, %LX_LIST);
     1055    18007
     1056    18008    6               IF SEND$ -> LX_ITEM.ID = %LX_LIST THEN
     1057    18009    6                 S$ = SEND$ -> LX_LIST.HEAD$ ;
     1058    18010    6               ELSE
     1059    18011    6                 S$ = SEND$ ;
     1060    18012
     1061    18013                    %FISH (TRIAD = S$ -> LX_ETT_ITEM.ETT$,
     1062    18014                           RTN = ST$);
     1063    18022
     1064    18023    6               IF ST$ -> ST.ID = %SWITCH THEN
     1065    18024    6                  CALL SET_SWITCH_FROM_SWITCH (SW#,
     1066    18025    6                           BINBIT(ST$ -> SWITCH.SWITCH#, 36));
     1067    18026    6               ELSE
     1068    18027                      %CONDITIONAL_ERROR (@LX_ITEM$ = S$,
     1069    18028                                @ERROR# = %E$MNEMONIC_NAME_EXPECTED,
     1070    18029                                @LINE = S$ -> LX_ETT_ITEM.LINE,
     1071    18030                                @COLUMN = S$ -> LX_ETT_ITEM.COLUMN);
     1072    18060
     1073    18061    6           END; /* Do case ID of TAIL of REC */
     1074    18062
     1075    18063    5         END ; /* REC$ is an LX_TERMINAL (SWITCH) */
     1076    18064    4         ELSE
     1077    18065    4           IF REC$ -> LX_ITEM.ID = %LX_LIST THEN
     1078    18066                  %CONDITIONAL_ERROR (@LX_ITEM$ = REC$ -> LX_LIST.HEAD$,
     1079    18067                            @ERROR# = %E$SWITCH_EXPECTED,
     1080    18068                            @LINE = REC$ -> LX_LIST.HEAD$ -> LX_ETT_ITEM.LINE,
     1081    18069                            @COLUMN = REC$ -> LX_LIST.HEAD$ -> LX_ETT_ITEM.COLUMN);
     1082    18099    4           ELSE
PL6.E3A0      #002=Z8EX$SET_STATEMENT File=Z8EX.:Z8A6TSI                         SAT 08/09/97 12:58 Page:116
     1083    18100                  %CONDITIONAL_ERROR (@LX_ITEM$ = REC$,
     1084    18101                            @ERROR# = %E$SWITCH_EXPECTED,
     1085    18102                            @LINE = REC$ -> LX_ETT_ITEM.LINE,
     1086    18103                            @COLUMN = REC$ -> LX_ETT_ITEM.COLUMN);
     1087    18133    4         REC$ = REC$ -> LX_ITEM.LINK ;
     1088    18134    4       END ; /* Do while on REC$ */
     1089    18135
     1090    18136    3     END SET_SWITCH_TO ;
     1091    18137
     1092    18138
     1093    18139    2     CREATE_SWITCH_TRIAD : PROC (SW#, CONST$);
     1094    18140
     1095    18141    3       DCL SW# SBIN WORD;
     1096    18142    3       DCL CONST$ PTR;
     1097    18143
     1098    18144    3       DCL 1 SW_VALUE (0:35) CONSTANT BIT(36)
     1099    18145    3              INIT ('100000000000000000000000000000000000'B,
     1100    18146    3                    '010000000000000000000000000000000000'B,
     1101    18147    3                    '001000000000000000000000000000000000'B,
     1102    18148    3                    '000100000000000000000000000000000000'B,
     1103    18149    3                    '000010000000000000000000000000000000'B,
     1104    18150    3                    '000001000000000000000000000000000000'B,
     1105    18151    3                    '000000100000000000000000000000000000'B,
     1106    18152    3                    '000000010000000000000000000000000000'B,
     1107    18153    3                    '000000001000000000000000000000000000'B,
     1108    18154    3                    '000000000100000000000000000000000000'B,
     1109    18155    3                    '000000000010000000000000000000000000'B,
     1110    18156    3                    '000000000001000000000000000000000000'B,
     1111    18157    3                    '000000000000100000000000000000000000'B,
     1112    18158    3                    '000000000000010000000000000000000000'B,
     1113    18159    3                    '000000000000001000000000000000000000'B,
     1114    18160    3                    '000000000000000100000000000000000000'B,
     1115    18161    3                    '000000000000000010000000000000000000'B,
     1116    18162    3                    '000000000000000001000000000000000000'B,
     1117    18163    3                    '000000000000000000100000000000000000'B,
     1118    18164    3                    '000000000000000000010000000000000000'B,
     1119    18165    3                    '000000000000000000001000000000000000'B,
PL6.E3A0      #002=Z8EX$SET_STATEMENT File=Z8EX.:Z8A6TSI                         SAT 08/09/97 12:58 Page:117
     1120    18166    3                    '000000000000000000000100000000000000'B,
     1121    18167    3                    '000000000000000000000010000000000000'B,
     1122    18168    3                    '000000000000000000000001000000000000'B,
     1123    18169    3                    '000000000000000000000000100000000000'B,
     1124    18170    3                    '000000000000000000000000010000000000'B,
     1125    18171    3                    '000000000000000000000000001000000000'B,
     1126    18172    3                    '000000000000000000000000000100000000'B,
     1127    18173    3                    '000000000000000000000000000010000000'B,
     1128    18174    3                    '000000000000000000000000000001000000'B,
     1129    18175    3                    '000000000000000000000000000000100000'B,
     1130    18176    3                    '000000000000000000000000000000010000'B,
     1131    18177    3                    '000000000000000000000000000000001000'B,
     1132    18178    3                    '000000000000000000000000000000000100'B,
     1133    18179    3                    '000000000000000000000000000000000010'B,
     1134    18180    3                    '000000000000000000000000000000000001'B);
     1135    18181
     1136    18182    3       MKCN.CON = BITBIN(SW_VALUE(SW#));
     1137    18183    3       CALL Z8AC$MAKE_CONST (CONST$);
     1138    18184
     1139    18185    3     END CREATE_SWITCH_TRIAD;
     1140    18186
     1141    18187    2     CHECK_FOR_DML_SET: PROC ALTRET ;
     1142    18188
     1143    18189    3       P3$ = REC$ -> LX_LIST.HEAD$ -> LX_LIST.HEAD$;
     1144    18190    3       P4$ = REC$ -> LX_LIST.TAIL$ ; /* Sending field */
     1145    18191
     1146    18192    3       IF P4$-> LX_ITEM.ID = %LX_TERMINAL      THEN
     1147    18193    3           RETURN ; /* Not a DML SET */
     1148    18194    3       ELSE
     1149    18195    4         DO;
     1150    18196
     1151    18197                %FISH(TRIAD = P3$ -> LX_LIST.HEAD$ -> LX_ETT_ITEM.ETT$, RTN = P1$);
     1152    18205                %FISH(TRIAD = P4$ -> LX_LIST.HEAD$ -> LX_ETT_ITEM.ETT$, RTN = P2$);
     1153    18213    4           IF (P1$ -> VARIABLE.B.DML_TYPE = %DATA_BASE_KEY)   OR
     1154    18214    4                (P1$ -> VARIABLE.B.DML_TYPE = %DIRECT_REFERENCE)  OR
     1155    18215    4                   ((P2$ -> VARIABLE.B.DML_TYPE = %DIRECT_REFERENCE)  OR
     1156    18216    4                       (P2$ -> VARIABLE.B.DML_TYPE = %DATA_BASE_KEY)) AND
PL6.E3A0      #002=Z8EX$SET_STATEMENT File=Z8EX.:Z8A6TSI                         SAT 08/09/97 12:58 Page:118
     1157    18217    4                           (P4$ -> LX_LIST.HEAD$ -> LX_ETT_ITEM.ETT$ -> ETT.ID ~= %ADDR
             18217                                    ) THEN
     1158    18218
     1159    18219                /*    A DML SET statment is treated as a MOVE.           */
     1160    18220
     1161    18221    5             DO;
     1162    18222
     1163    18223                 /*  Check for a subscript on the sending item and take care of it here.  */
     1164    18224                    /*   Other items will be checked in MOVE.        */
     1165    18225    5               IF P4$ -> LX_LIST.HEAD$ ~= P4$ -> LX_LIST.TAIL$   THEN
     1166    18226    5                 CALL Z8EY$SUBSCRIPT(P4$ -> LX_LIST.TAIL$,
     1167    18227    5                                     P4$ -> LX_LIST.HEAD$);
     1168    18228    5               CALL MOVE_STATEMENT( KEY_WORD$,
     1169    18229    5                                    P4$ -> LX_LIST.HEAD$,
     1170    18230    5                                    REC$ -> LX_LIST.HEAD$,
     1171    18231    5                                    %S_TYPE_DML_SET);
     1172    18232    5               CALL Z8ED$DISPOSE_ABSSYN_TREE(REC$ -> LX_LIST.HEAD$ -> LX_LIST.HEAD$);
     1173    18233    5               CALL Z8ED$DISPOSE_ABSSYN_TREE(P4$ -> LX_LIST.HEAD$);
     1174    18234    5               ALTRETURN ;
     1175    18235    5             END;
     1176    18236    4           ELSE
     1177    18237    4               RETURN ; /* Not a DML SET */
     1178    18238    4       END;
     1179    18239
     1180    18240    3     END CHECK_FOR_DML_SET ;
     1181    18241
     1182    18242
     1183    18243    2     SET_ON_OR_OFF: PROC (RECEIVE$, ON_OR_OFF) ;
     1184    18244
     1185    18245    3     DCL  RECEIVE$  PTR ;  /* mnemonic-name or SWITCH-nn */
     1186    18246    3     DCL  ON_OR_OFF SBIN ; /* %ON_SWITCH or %OFF_SWITCH   */
     1187    18247
     1188    18248    4       IF RECEIVE$ -> LX_ITEM.ID = %LX_TERMINAL THEN DO ;
     1189    18249
     1190    18250              /* SET SWITCH-nn TO ON (or OFF) */
     1191    18251
     1192    18252    4         CALL CHARBIN (SW#, SUBSTR (RECEIVE$ -> LX_TERMINAL.DNT$ -> DNT.TEXT.NAME, 7))
PL6.E3A0      #002=Z8EX$SET_STATEMENT File=Z8EX.:Z8A6TSI                         SAT 08/09/97 12:58 Page:119
             18252                  ;
     1193    18253    4         CALL CREATE_SWITCH_TRIAD (SW#, CONST$) ;
     1194    18254    4         IF ON_OR_OFF = %ON_SWITCH THEN
     1195    18255                %NEW_ILL (@ID = %ON_SWITCH, @LOP = CONST$) ;
     1196    18634    4         ELSE
     1197    18635                %NEW_ILL (@ID = %OFF_SWITCH, @LOP = CONST$) ;
     1198    19014
     1199    19015    4       END ; /* Receiving guy is a SWITCH */
     1200    19016
     1201    19017    4       ELSE DO ; /* It ain't no SWITCH */
     1202    19018
     1203    19019              /* SET mnemonic-name TO ON (or OFF) */
     1204    19020
     1205    19021              %FISH (TRIAD = RECEIVE$ -> LX_LIST.HEAD$ -> LX_ETT_ITEM.ETT$,
     1206    19022                     RTN = ST$);
     1207    19030
     1208    19031    4         IF ST$ -> ST.ID = %SWITCH THEN
     1209    19032    5           DO;
     1210    19033    5             CALL CREATE_SWITCH_TRIAD (BINBIT(ST$ -> SWITCH.SWITCH#, 36),
     1211    19034    5                                       CONST$);
     1212    19035
     1213    19036    5             IF ON_OR_OFF = %ON_SWITCH THEN
     1214    19037                    %NEW_ILL (@ID = %ON_SWITCH, @LOP = CONST$) ;
     1215    19416    5             ELSE
     1216    19417                    %NEW_ILL (@ID = %OFF_SWITCH, @LOP = CONST$) ;
     1217    19796    5           END;
     1218    19797    4         ELSE
     1219    19798                %CONDITIONAL_ERROR (@LX_ITEM$ = RECEIVE$ -> LX_LIST.HEAD$,
     1220    19799                                    @ERROR# = %E$MNEMONIC_NAME_EXPECTED,
     1221    19800                                    @LINE = RECEIVE$ -> LX_LIST.HEAD$ -> LX_ETT_ITEM.LINE,
     1222    19801                                    @COLUMN =
             19801                                        RECEIVE$ -> LX_LIST.HEAD$ -> LX_ETT_ITEM.COLUMN);
     1223    19831
     1224    19832    4       END ; /* Receiving guy is a mnemonic-name */
     1225    19833
     1226    19834    3     END SET_ON_OR_OFF ;
     1227    19835
PL6.E3A0      #002=Z8EX$SET_STATEMENT File=Z8EX.:Z8A6TSI                         SAT 08/09/97 12:58 Page:120
     1228    19836
     1229    19837    2     SET_SWITCH_FROM_SWITCH : PROC (REC_SW#,
     1230    19838    2                                    SEND_SW#);
     1231    19839
     1232    19840    3       DCL REC_SW# SBIN WORD;
     1233    19841    3       DCL SEND_SW# SBIN WORD;
     1234    19842
     1235    19843    3       CALL Z8AT$CREATE_TEMPORARY (%PARA,
     1236    19844    3                                   END_LABEL$);
     1237    19845    3       CALL Z8AT$CREATE_TEMPORARY (%PARA,
     1238    19846    3                                   OFF_SW_LABEL$);
     1239    19847
     1240    19848            %INIT_UNARY_OP (@POINTER = "ADDR(SW_ON_COND)",
     1241    19849                            @OP = %OP_SWITCH_IS_ON,
     1242    19850                            @LOP$ = "ADDR(SW_VALUE)");
     1243    19867
     1244    19868    3       CALL Z8AC$LX_ETT_ITEM_TYI_CONST
     1245    19869    3              (SEND_SW#,
     1246    19870    3               ADDR(SW_VALUE));
     1247    19871
     1248    19872    3       CALL Z8EK$BRANCH_FALSE (OFF_SW_LABEL$,
     1249    19873    3                               ADDR(SW_ON_COND));
     1250    19874
     1251    19875    3       CALL CREATE_SWITCH_TRIAD (REC_SW#, CONST$);
     1252    19876
     1253    19877            %NEW_ILL (@ID = %ON_SWITCH,
     1254    19878                      @LOP = CONST$);
     1255    20257
     1256    20258    3       CALL Z8EK$BRANCH (END_LABEL$);
     1257    20259
     1258    20260            %NEW_ILL (@ID = %DEFLB,
     1259    20261                      @LABEL$ = OFF_SW_LABEL$);
     1260    20640
     1261    20641            %NEW_ILL (@ID = %OFF_SWITCH,
     1262    20642                      @LOP = CONST$);
     1263    21021
     1264    21022            %NEW_ILL (@ID = %DEFLB,
PL6.E3A0      #002=Z8EX$SET_STATEMENT File=Z8EX.:Z8A6TSI                         SAT 08/09/97 12:58 Page:121
     1265    21023                      @LABEL$ = END_LABEL$);
     1266    21402
     1267    21403    3     END SET_SWITCH_FROM_SWITCH;
     1268    21404
     1269    21405
     1270    21406    2      PROCESS_POINTER_SET: PROC (REC$, SEND$);
     1271    21407
     1272    21408    3        DCL REC$      PTR; /* LX_LIST to <id_or_switch_list> */
     1273    21409    3        DCL SEND$     PTR; /* LX_LIST to <SET_send_item>     */
     1274    21410    3        DCL R$        PTR;
     1275    21411
     1276    21412
     1277    21413    3        IF SEND$ -> LX_LIST.COUNT > 1 THEN   /* array item */
     1278    21414    3          CALL Z8EY$SUBSCRIPT (SEND$ -> LX_LIST.TAIL$,
     1279    21415    3                               SEND$ -> LX_LIST.HEAD$);
     1280    21416
     1281    21417    4        DO CASE (REC$ -> LX_ITEM.ID);
     1282    21418    4          CASE(%LX_ETT_ITEM);
     1283    21419
     1284    21420    4              IF REC$ -> LX_ETT_ITEM.TYPE ~= %TYP THEN
     1285    21421    5                DO;
     1286    21422                       %CONDITIONAL_ERROR (@LX_ITEM$ = REC$,
     1287    21423                           @ERROR# =%E$POINTER_INCOMPATIBLE,
     1288    21424                           @LINE   = REC$ -> LX_ETT_ITEM.LINE,
     1289    21425                           @COLUMN = REC$ -> LX_ETT_ITEM.COLUMN);
     1290    21455    5                END;
     1291    21456    4              ELSE
     1292    21457    4                CALL Z8E7$POINTER_MOVE (REC$, SEND$ -> LX_LIST.HEAD$);
     1293    21458
     1294    21459    4          CASE(%LX_LIST);
     1295    21460
     1296    21461    4              R$ = REC$ -> LX_LIST.HEAD$;
     1297    21462
     1298    21463    5            DO WHILE (R$ ~= ADDR(NIL));
     1299    21464    5              IF R$ -> LX_LIST.HEAD$ -> LX_ETT_ITEM.TYPE ~= %TYP THEN
     1300    21465    6                DO;
     1301    21466                       %CONDITIONAL_ERROR (@LX_ITEM$ = R$ -> LX_LIST.HEAD$,
PL6.E3A0      #002=Z8EX$SET_STATEMENT File=Z8EX.:Z8A6TSI                         SAT 08/09/97 12:58 Page:122
     1302    21467                           @ERROR# =%E$POINTER_INCOMPATIBLE,
     1303    21468                           @LINE   = R$->LX_LIST.HEAD$ -> LX_ETT_ITEM.LINE,
     1304    21469                           @COLUMN = R$->LX_LIST.HEAD$ -> LX_ETT_ITEM.COLUMN);
     1305    21499    6                END;
     1306    21500    5              ELSE
     1307    21501    6                DO;
     1308    21502    6                  IF R$ -> LX_LIST.COUNT > 1 THEN
     1309    21503    6                    CALL Z8EY$SUBSCRIPT(R$ -> LX_LIST.TAIL$,
     1310    21504    6                                        R$ -> LX_LIST.HEAD$);
     1311    21505
     1312    21506    6                  CALL Z8E7$POINTER_MOVE (R$ -> LX_LIST.HEAD$,
     1313    21507    6                                          SEND$ -> LX_LIST.HEAD$);
     1314    21508    6                END;
     1315    21509
     1316    21510    5              R$ = R$ -> LX_LIST.LINK;
     1317    21511
     1318    21512    5            END; /* DO WHILE */
     1319    21513
     1320    21514    4          CASE (ELSE);
     1321    21515    4              CALL Z8AE$ERROR (%E$UNEXPECTED_CASE);
     1322    21516
     1323    21517    4        END; /* DO CASE */
     1324    21518
     1325    21519    3     END PROCESS_POINTER_SET;
     1326    21520
     1327    21521
     1328    21522        %EJECT;
PL6.E3A0      #002=Z8EX$SET_STATEMENT File=Z8EX.:Z8A6TSI                         SAT 08/09/97 12:58 Page:123
     1329    21523        /* Body of SET_STATEMENT */
     1330    21524
     1331    21525        %STATEMENT_START_FROM_LX_TERM (@POINTER = KEY_WORD$,
     1332    21526                                       @TYPE = %S_TYPE_SET);
     1333    22302
     1334    22303
     1335    22304
     1336    22305    3   DO CASE (SET_TYPE);
     1337    22306
     1338    22307    3     CASE (%SET_ON);
     1339    22308
     1340    22309    3       CALL SET_ON_OR_OFF (RECEIVE$, %ON_SWITCH) ;
     1341    22310
     1342    22311    3     CASE (%SET_OFF);
     1343    22312
     1344    22313    3       CALL SET_ON_OR_OFF (RECEIVE$, %OFF_SWITCH) ;
     1345    22314
     1346    22315    3     CASE (%SET_SWITCH);
     1347    22316
     1348    22317    3       REC$ = RECEIVE$ -> LX_LIST.HEAD$;
     1349    22318    4       DO WHILE REC$ ~= ADDR(NIL);
     1350    22319
     1351    22320    5         DO SELECT (REC$ -> LX_LIST.HEAD$ -> LX_LIST.LINK -> LX_TERMINAL.SYMBOL) ;
     1352    22321
     1353    22322    5           SELECT (%RSV_WRD_UP) ; /* SET ... id1 UP BY id2 ... */
     1354    22323
     1355    22324    5             CALL SET_UP_DOWN (REC$ -> LX_LIST.HEAD$,
     1356    22325    5                               REC$ -> LX_LIST.TAIL$,
     1357    22326    5                               %SET_UP_BY) ;
     1358    22327
     1359    22328    5           SELECT (%RSV_WRD_DOWN) ; /* SET ... id1 DOWN BY id2 ... */
     1360    22329
     1361    22330    5             CALL SET_UP_DOWN (REC$ -> LX_LIST.HEAD$,
     1362    22331    5                               REC$ -> LX_LIST.TAIL$,
     1363    22332    5                               %SET_DOWN_BY) ;
     1364    22333    5           SELECT (%RSV_WRD_TO) ; /* SET ... id1 TO id2 ... */
     1365    22334
PL6.E3A0      #002=Z8EX$SET_STATEMENT File=Z8EX.:Z8A6TSI                         SAT 08/09/97 12:58 Page:124
     1366    22335    5             IF REC$ -> LX_LIST.HEAD$ -> LX_LIST.HEAD$ -> LX_ITEM.ID
     1367    22336    5              = %LX_TERMINAL THEN
     1368    22337    5               CALL SET_SWITCH_TO (REC$ -> LX_LIST.HEAD$,
     1369    22338    5                                   REC$ -> LX_LIST.TAIL$) ;
     1370    22339    6             ELSE DO ; /* Receiving list is not SWITCHs */
     1371    22340
     1372    22341    7               IF REC$ -> LX_LIST.TAIL$ -> LX_ITEM.ID = %LX_TERMINAL THEN DO ;
     1373    22342
     1374    22343    8                 DO SELECT (REC$ -> LX_LIST.TAIL$ -> LX_TERMINAL.SYMBOL) ;
     1375    22344
     1376    22345    8                   SELECT (%RSV_WRD_ON, %RSV_WRD_OFF) ;
     1377    22346
     1378    22347    8                     R$ = REC$ -> LX_LIST.HEAD$ -> LX_LIST.HEAD$ ;
     1379    22348    9                     DO WHILE R$ ~= ADDR(NIL) ;
     1380    22349
     1381    22350    9                       IF REC$ -> LX_LIST.TAIL$ -> LX_TERMINAL.SYMBOL = %RSV_WRD_ON
             22350                                THEN
     1382    22351    9                         CALL SET_ON_OR_OFF (R$, %ON_SWITCH) ;
     1383    22352    9                       ELSE
     1384    22353    9                         CALL SET_ON_OR_OFF (R$, %OFF_SWITCH) ;
     1385    22354
     1386    22355    9                       R$ = R$ -> LX_ITEM.LINK ;
     1387    22356
     1388    22357    9                     END ; /* Do while R$ is non-nil */
     1389    22358
     1390    22359    8                   SELECT (%RSV_WRD_TRUE) ;
     1391    22360
     1392    22361    8                     IF COMCOM.OB.FIPS.LEVEL >= %INT_LEV THEN
     1393    22362    8                       CALL Z8AE$ERROR (%E$LEVEL_CHECK,
     1394    22363    8                                        KEY_WORD$ -> LX_ITEM.LINE,
     1395    22364    8                                        KEY_WORD$ -> LX_ITEM.COLUMN);
     1396    22365
     1397    22366    8                     CALL SET_TO_TRUE (REC$ -> LX_LIST.HEAD$) ;
     1398    22367
     1399    22368    8                   SELECT (%RSV_WRD_SWITCH) ;
     1400    22369
     1401    22370    8                     CALL SET_TO_SWITCH (REC$ -> LX_LIST.HEAD$,
PL6.E3A0      #002=Z8EX$SET_STATEMENT File=Z8EX.:Z8A6TSI                         SAT 08/09/97 12:58 Page:125
     1402    22371    8                                         REC$ -> LX_LIST.TAIL$) ;
     1403    22372
     1404    22373    8                   SELECT (%RSV_WRD_NULL) ;
     1405    22374
     1406    22375    8                     CALL MOVE_STATEMENT (KEY_WORD$,
     1407    22376    8                                          REC$ -> LX_LIST.TAIL$,
     1408    22377    8                                          REC$ -> LX_LIST.HEAD$,
     1409    22378    8                                          %S_TYPE_DML_SET) ;
     1410    22379
     1411    22380    8                     CALL Z8ED$DISPOSE_ABSSYN_TREE (REC$ -> LX_LIST.HEAD$ -> LX_LIST.
             22380                              HEAD$) ;
     1412    22381
     1413    22382    8                   SELECT (ELSE) ; /* Must be a number */
     1414    22383
     1415    22384    8                     CALL CHECK_FOR_DML_SET
     1416    22385    9                     WHENRETURN DO ; /* not a DML SET */
     1417    22386
     1418    22387    9                       CALL SET_TO (REC$ -> LX_LIST.HEAD$,
     1419    22388    9                                    REC$ -> LX_LIST.TAIL$) ;
     1420    22389    9                     END ;
     1421    22390
     1422    22391    8                 END ; /* Do select REC$ -> TAIL$ -> SYMBOL */
     1423    22392
     1424    22393    7               END ; /* REC$ -> TAIL$ is a terminal */
     1425    22394
     1426    22395    7               ELSE DO ; /* REC$ -> TAIL$ is not a terminal */
     1427    22396
     1428    22397    7                 CALL CHECK_FOR_DML_SET
     1429    22398    8                 WHENRETURN DO ; /* not a DML SET */
     1430    22399
     1431    22400    8                   CALL SET_TO (REC$ -> LX_LIST.HEAD$,
     1432    22401    8                                REC$ -> LX_LIST.TAIL$) ;
     1433    22402    8                 END ;
     1434    22403
     1435    22404    7               END ; /* Sending guy is an identifier */
     1436    22405    6             END ; /* Receiving list is not SWITCHs */
     1437    22406    5         END ; /* Do Select of SYMBOL of 2nd LX_ITEM in list */
PL6.E3A0      #002=Z8EX$SET_STATEMENT File=Z8EX.:Z8A6TSI                         SAT 08/09/97 12:58 Page:126
     1438    22407    4         REC$ = REC$ -> LX_ITEM.LINK;
     1439    22408    4       END; /* Do while REC$ is non-nil */
     1440    22409    3   END; /* Do case of SET type */
     1441    22410
     1442    22411    2   IF RECEIVE$ -> LX_ITEM.ID = %LX_LIST THEN
     1443    22412    2     CALL Z8ED$DISPOSE_ABSSYN_TREE (RECEIVE$ -> LX_LIST.HEAD$);
     1444    22413
     1445    22414    2   END SET_STATEMENT;
     1446    22415        %EJECT;
PL6.E3A0      #002=Z8EX$SET_STATEMENT File=Z8EX.:Z8A6TSI                         SAT 08/09/97 12:58 Page:127
     1447    22416        /*--------------*/
     1448    22417    1     MOVE_STATEMENT : PROC ( KEY_WORD$,
     1449    22418    1   /*--------------*/        SEND$,
     1450    22419    1                             REC$,
     1451    22420    1                             STATEMENT_TYPE);
     1452    22421
     1453    22422        /*I*
     1454    22423                 NAME: MOVE_STATEMENT
     1455    22424
     1456    22425          DESCRIPTION: Z8E7$MOVE_STATEMENT handles all MOVE statement semantics.
     1457    22426        */
     1458    22427
     1459    22428
     1460    22429    2     DCL KEY_WORD$ PTR;  /* To MOVE keyword */
     1461    22430    2     DCL SEND$     PTR;  /* To <ident_lit> */
     1462    22431    2     DCL REC$      PTR;  /* To <identifier_list> */
     1463    22432    2     DCL STATEMENT_TYPE  SBIN;     /* Type to check for DML SET  */
     1464    22433
     1465    22434    2     DCL IDENT$    PTR;
     1466    22435    2     DCL VAL_REQUIRED BOOLEAN;
     1467    22436
     1468    22437
     1469    22438          %STATEMENT_START_FROM_LX_TERM (@POINTER = KEY_WORD$,
     1470    22439                                         @TYPE = %S_TYPE_MOVE);
     1471    23215
     1472    23216    2     IF REC$ -> LX_LIST.COUNT > 1
     1473    23217    2          AND SEND$ -> LX_ITEM.ID = %LX_ETT_ITEM
     1474    23218    2          AND SEND$ -> LX_ETT_ITEM.ETT$ -> ETT.ID ~= %TRIAD THEN
     1475    23219    3       DO;
     1476    23220    3         CALL Z8AF$FORME (%EVAL,
     1477    23221    3                          SEND$ -> LX_ETT_ITEM.ETT$,
     1478    23222    3                          ADDR(NIL),
     1479    23223    3                          SEND$ -> LX_ETT_ITEM.ETT$);
     1480    23224              %NEW_ILL(@ID = %VAL,
     1481    23225                       @ETT$ = SEND$ -> LX_ETT_ITEM.ETT$);
     1482    23604    3         VAL_REQUIRED = TRUE;
     1483    23605    3         VAL_REC_COUNT = 0 ;                                   /*#28761*/
PL6.E3A0      #002=Z8EX$SET_STATEMENT File=Z8EX.:Z8A6TSI                         SAT 08/09/97 12:58 Page:128
     1484    23606    3       END;
     1485    23607    2     ELSE
     1486    23608    2       VAL_REQUIRED = FALSE;
     1487    23609
     1488    23610
     1489    23611    2     IDENT$ = REC$ -> LX_LIST.HEAD$;
     1490    23612
     1491    23613    3     DO WHILE IDENT$ ~= ADDR(NIL);
     1492    23614
     1493    23615    3       IF STATEMENT_TYPE = %S_TYPE_MOVE    THEN
     1494    23616    3           CALL Z8E7$MOVE_STATEMENT (IDENT$, SEND$, ,STATEMENT_TYPE);
     1495    23617    3       ELSE
     1496    23618            /* This is a DML SET and needs to have an extra level of indirection
     1497    23619               and subscript modifcation if needed since the grammar is set up
     1498    23620               for SET of index items not data base keys.                   */
     1499    23621
     1500    23622    4         DO;
     1501    23623    4           IF IDENT$ -> LX_LIST.HEAD$ ~= IDENT$ -> LX_LIST.TAIL$   THEN
     1502    23624
     1503    23625                       /*   We have a subscript     */
     1504    23626    4              CALL Z8EY$SUBSCRIPT(IDENT$ -> LX_LIST.TAIL$,
     1505    23627    4                                  IDENT$ -> LX_LIST.HEAD$);
     1506    23628
     1507    23629    4           CALL Z8E7$MOVE_STATEMENT(IDENT$->LX_LIST.HEAD$,SEND$, ,STATEMENT_TYPE);
     1508    23630    4         END;
     1509    23631
     1510    23632    3       IDENT$ = IDENT$ -> LX_ETT_ITEM.LINK;
     1511    23633    3       VAL_REC_COUNT = VAL_REC_COUNT + 1 ;                     /*#28761*/
     1512    23634
     1513    23635    3     END;  /* DO WHILE */
     1514    23636
     1515    23637    3     IF VAL_REQUIRED THEN DO ;                                 /*#28761*/
     1516    23638            %NEW_ILL (@ID = %VAL_END);
     1517    24017    3       IF VAL_REC_COUNT > COMCOM.MAX_RECEIVING_ITEMS THEN      /*#28761*/
     1518    24018    3         COMCOM.MAX_RECEIVING_ITEMS = VAL_REC_COUNT ;
     1519    24019    3     END ;
     1520    24020
PL6.E3A0      #002=Z8EX$SET_STATEMENT File=Z8EX.:Z8A6TSI                         SAT 08/09/97 12:58 Page:129
     1521    24021    2   END MOVE_STATEMENT;
     1522    24022        %EJECT ;
PL6.E3A0      #002=Z8EX$SET_STATEMENT File=Z8EX.:Z8A6TSI                         SAT 08/09/97 12:58 Page:130
     1523    24023
     1524    24024           /* Main program  */
     1525    24025
     1526    24026    1      CALL SET_STATEMENT;
     1527    24027
     1528    24028    1    END Z8EX$SET_STATEMENT;
     1529    24029         %EJECT;
PL6.E3A0      #002=Z8EX$SET_STATEMENT File=Z8EX.:Z8A6TSI                         SAT 08/09/97 12:58 Page:131

PL6.E3A0      #002=Z8EX$SET_STATEMENT File=Z8EX.:Z8A6TSI                         SAT 08/09/97 12:58 Page:132
--  Include file information  --

   Z8E_STATEMNT.:Z8A6TOU  is referenced.
   Z8E_ABSSYN.:Z8A6TOU  cannot be made into a system file and is referenced.
   Z8E_HEAP.:Z8A6TOU  cannot be made into a system file and is referenced.
   Z8A_ILL.:Z8A6TOU  cannot be made into a system file and is referenced.
   Z8A_ETT.:Z8A6TOU  cannot be made into a system file and is referenced.
   Z8A_TYPES.:Z8A6TOU  is referenced.
   Z8A_ST.:Z8A6TOU  cannot be made into a system file and is referenced.
   Z8A_DNT.:Z8A6TOU  cannot be made into a system file and is referenced.
   Z8E_DML.:Z8A6TOU  is referenced.
   Z8A_MKCN.:Z8A6TOU  cannot be made into a system file and is referenced.
   Z8A_ERR_NUMS.:Z8A6TOU  is referenced.
   Z8E_ILS_LIST.:Z8A6TOU  is referenced.
   Z8E_NEW_ILL.:Z8A6TOU  is referenced.
   Z8E_MACROS.:Z8A6TOU  cannot be made into a system file and is referenced.
   Z8E_O1COM.:Z8A6TOU  cannot be made into a system file and is referenced.
   Z8A_LEX_SYMB.:Z8A6TOU  cannot be made into a system file and is referenced.
   Z8E_STACKS.:Z8A6TOU  cannot be made into a system file and is referenced.
   Z8E_WINDOW.:Z8A6TOU  is referenced.
   Z8A_COMCOM.:Z8A6TOU  cannot be made into a system file and is referenced.
   X8A_COM_MACS.:X8A6TOU  is referenced.
   Z8A_NAMES.:Z8A6TOU  is referenced.
   Z8A_SUPP_MAC.:Z8A6TOU  is referenced.
   Z8A_DEFC.:Z8A6TOU  cannot be made into a system file and is referenced.
      No diagnostics issued in procedure Z8EX$SET_STATEMENT.

   Procedure Z8EX$SET_STATEMENT requires 1644 words for executable code.
   Procedure Z8EX$SET_STATEMENT requires 84 words of local(AUTO) storage.

    No errors detected in file Z8EX.:Z8A6TSI    .

PL6.E3A0      #002=Z8EX$SET_STATEMENT File=Z8EX.:Z8A6TSI                         SAT 08/09/97 12:58 Page:133

 Object Unit name= Z8EX$SET_STATEMENT                         File name= Z8EX.:Z8A6TOU
 UTS= AUG 09 '97 12:58:12.32 SAT                              Compiler= PL-6/E31         Sev=      00
 SharedLib= :SHARED_SYSTEM                                    Alt SharedLib=


    ****  Control sections  ****

 Sect   Type Bound  Init  Size OctSiz  Section name(segment info)
    0  LblCom even  none     1      1  ITERATION
    1  LblCom even  none    90    132  LEX_SYMBOL
    2  LblCom even  none     1      1  CURRENT_LEX_SYMBOL$
    3  LblCom even  none    90    132  TEMP_LEX_SYMBOL
    4  LblCom even  none    90    132  TEMP_LEX_SYMBOL2
    5  LblCom even  none     2      2  MKCN
    6  LblCom even  none     1      1  DNT$
    7  LblCom even  none     5      5  DNT_
    8  LblCom even  none     1      1  DNT_BUCKET_NUMBER
    9  LblCom even  none     1      1  DNT_OF_1$
   10  LblCom even  none     1      1  ST$
   11  LblCom even  none     5      5  ST_
   12  LblCom even  none     1      1  ETT$
   13  LblCom even  none     1      1  HEAD_ETT$
   14  LblCom even  none   512   1000  ETT_BUCKETS
   15  LblCom even  none     5      5  ETT_
   16  LblCom even  none     1      1  ILL$
   17  LblCom even  none     5      5  ILL_
   18  LblCom even  none     1      1  HEAP$
   19  LblCom even  none     8     10  TEMP_LX_NODE
   20  RoData even  UTS     36     44  Z8EX$SET_STATEMENT
   21   Proc  even  none  1644   3154  Z8EX$SET_STATEMENT
   22  RoData even  none    50     62  Z8EX$SET_STATEMENT
PL6.E3A0      #002=Z8EX$SET_STATEMENT File=Z8EX.:Z8A6TSI                         SAT 08/09/97 12:58 Page:134

    ****  Entry defs  ****

                              Check   Calling
                             calling  sequence
  Sect OctLoc Primary Altret sequence   type   Parms  Name
    21      0   yes            yes      Std        4  Z8EX$SET_STATEMENT

  ****  Entry refs  ****

         Check        Calling
        calling       sequence
Altret sequence SRef   type   Args  Name
         yes           Std       4 Z8AN$NEW_ILL
         yes           Std      12 Z8AE$ERROR
         yes           Std       1 Z8ED$DISPOSE_ABSSYN_TREE
 yes     yes           Std       1 Z8CO$INTEGER_CHECK
         yes           Std       4 Z8AF$FORME
         yes           Std       2 Z8EX$SET_DOWN_BY
         yes           Std       2 Z8EY$SUBSCRIPT
         yes           Std       2 Z8EX$SET_UP_BY
         yes           Std       2 Z8EX$SET_INDEX
         yes           Std       4 Z8EU$CREATE_IDENTIFIER_FROM_ST
         yes           Std       2 Z8E7$RESTRICTED_MOVE
         yes           Std       1 Z8AC$MAKE_CONST
         yes           Std       2 Z8AT$CREATE_TEMPORARY
         yes           Std       1 Z8EK$BRANCH
         yes           Std       2 Z8AC$LX_ETT_ITEM_TYI_CONST
         yes           Std       2 Z8EK$BRANCH_FALSE
         yes           Std       2 Z8E7$POINTER_MOVE
         yes           Std       4 Z8E7$MOVE_STATEMENT
                       nStd      0 X66_AUTO_4
                       nStd      0 X66_ARET
PL6.E3A0      #002=Z8EX$SET_STATEMENT File=Z8EX.:Z8A6TSI                         SAT 08/09/97 12:58 Page:135

  ****  Data refs  ****

  Flags:  r = read only, s = secondary
Flgs Name                             Flgs Name                             Flgs Name
     COMCOM                                O1COM                                 HIER_STK_PTR
     HIER_STK                              PAGE_FORMAT                           REP_STK_PTR
     REP_STK                          r    ILL_STEP

  ****  Segment refs  ****

  Flags:  r = read only, s = secondary
Flgs Name                             Flgs Name                             Flgs Name
     ISSID                                 NULLSID
PL6.E3A0      #002=Z8EX$SET_STATEMENT File=Z8EX.:Z8A6TSI                         SAT 08/09/97 12:58 Page:136


      676        1        /*T***********************************************************/
      677        2        /*T*                                                         */
      678        3        /*T* Copyright (c) Bull HN Information Systems Inc., 1997    */
      679        4        /*T*                                                         */
      680        5        /*T***********************************************************/
      681        6        /*------------------*/
      682        7          Z8EX$SET_STATEMENT : PROC ( KEY_WORD$,

      7 21 000000   000000 700200 xent  Z8EX$SET_ST* TSX0  ! X66_AUTO_4
        21 000001   000124 000004                    ZERO    84,4
        21 000002   003151 710000 21                 TRA     s:24026

      683        8        /*------------------*/        RECEIVE$,
      684        9                                      SEND$,
      685       10                                      SET_TYPE);
      686       11
      687       12        /*I*
      688       13                 NAME: SET_STATEMENT
      689       14
      690       15          DESCRIPTION: The particular type of SET is isolated.  The routines
      691       16                               Z8EX$SET_INDEX
      692       17                               Z8EX$SET_UP_BY
      693       18                               Z8EX$SET_DOWN_BY
      694       19                       are used to set INDEX variables.  Setting switches is
      695       20                       handled by emitting %ON_SWITCH and %OFF_SWITCH ILL
      696       21                       items.  Z8E7$RESTRICTED_MOVE is used to set <conditions>
      697       22                       to true, because these moves do not conform to the
      698       23                       standard move rules.
      699       24        */
      700       25
      701       26        %EQU PHASE = 1;
      702       27
      703       28        %INCLUDE Z8A_DEFC;
      704       96        %INCLUDE Z8A_SUPP_MAC ;
      705     2496        %INCLUDE Z8A_COMCOM ;
      706     3146        %INCLUDE Z8E_WINDOW ;
PL6.E3A0      #002=Z8EX$SET_STATEMENT File=Z8EX.:Z8A6TSI                         SAT 08/09/97 12:58 Page:137
      707     5216        %INCLUDE Z8E_STACKS ;
      708     7482        %INCLUDE Z8E_O1COM;
      709     8243        %INCLUDE Z8E_MACROS;
      710     8918        %INCLUDE Z8E_ILS_LIST;
      711     9002        %INCLUDE Z8A_ERR_NUMS ;
      712     9766        %INCLUDE Z8A_MKCN;
      713     9783        %INCLUDE Z8E_DML;
      714     9903        %INCLUDE Z8A_DNT ;
      715    10124        %INCLUDE Z8A_ST;
      716    13783        %INCLUDE Z8A_TYPES;
      717    13957        %INCLUDE Z8A_ETT ;
      718    14258        %INCLUDE Z8A_ILL ;
      719    14951        %INCLUDE Z8E_HEAP;
      720    15007        %INCLUDE Z8E_ABSSYN;
      721    15213        %INCLUDE Z8E_STATEMNT;
      722    15282
      723    15283    1   DCL Z8EK$BRANCH_FALSE             ENTRY(2);
      724    15284    1   DCL Z8EK$BRANCH                   ENTRY(1);
      725    15285    1   DCL Z8ED$DISPOSE_ABSSYN_TREE      ENTRY(1);
      726    15286    1   DCL Z8AF$FORME                    ENTRY(4);
      727    15287    1   DCL Z8AC$MAKE_CONST               ENTRY(1);
      728    15288    1   DCL Z8AC$LX_ETT_ITEM_TYI_CONST    ENTRY(2);
      729    15289    1   DCL Z8E7$MOVE                     ENTRY(2);
      730    15290    1   DCL Z8E7$RESTRICTED_MOVE          ENTRY(2);
      731    15291    1   DCL Z8E7$MOVE_STATEMENT           ENTRY(4);
      732    15292    1   DCL Z8E7$POINTER_MOVE             ENTRY(2);
      733    15293    1   DCL Z8EU$CREATE_IDENTIFIER_FROM_ST ENTRY(4);
      734    15294    1   DCL Z8AE$ERROR                    ENTRY(12);
      735    15295    1   DCL Z8EX$SET_INDEX                ENTRY(2);
      736    15296    1   DCL Z8EX$SET_UP_BY                ENTRY(2);
      737    15297    1   DCL Z8EX$SET_DOWN_BY              ENTRY(2);
      738    15298    1   DCL Z8EY$SUBSCRIPT                ENTRY(2);
      739    15299    1   DCL Z8AT$CREATE_TEMPORARY         ENTRY(2);
      740    15300    1   DCL Z8CO$INTEGER_CHECK            ENTRY(1) ALTRET;
      741    15301
      742    15302    1     DCL VAL_REC_COUNT SBIN WORD;
      743    15303
PL6.E3A0      #002=Z8EX$SET_STATEMENT File=Z8EX.:Z8A6TSI                         SAT 08/09/97 12:58 Page:138
      744    15304    1     DCL KEY_WORD$ PTR;
      745    15305    1     DCL RECEIVE$ PTR;
      746    15306    1     DCL SEND$ PTR;
      747    15307    1     DCL SET_TYPE SBIN;
      748    15308
      749    15309        /*-------------*/
      750    15310    1     SET_STATEMENT : PROC;

  15310 21 000003   200010 741300       SET_STATEME* STX1  ! VAL_REC_COUNT+1,,AUTO
        21 000004   002317 710000 21                 TRA     s:21534

      751    15311        /*-------------*/
      752    15312        %EJECT;
PL6.E3A0      #002=Z8EX$SET_STATEMENT File=Z8EX.:Z8A6TSI                         SAT 08/09/97 12:58 Page:139
      753    15313    2     DCL P$   PTR;
      754    15314    2     DCL P1$  PTR;
      755    15315    2     DCL P2$  PTR;
      756    15316    2     DCL P3$  PTR;
      757    15317    2     DCL P4$  PTR;
      758    15318    2     DCL T$ PTR;
      759    15319    2     DCL ORIG_LINE# SBIN;
      760    15320    2     DCL ORIG_COLUMN# SBIN;
      761    15321    2     DCL REC$ PTR;
      762    15322    2     DCL R$   PTR ;
      763    15323    2     DCL ST$ PTR;
      764    15324    2     DCL ST2$ PTR;
      765    15325    2     DCL CONST$ PTR;
      766    15326    2     DCL END_LABEL$ PTR;
      767    15327    2     DCL OFF_SW_LABEL$ PTR;
      768    15328    2     DCL SW# SBIN WORD;
      769    15329    2     DCL SW2# SBIN WORD;
      770    15330    2     DCL VAL_REQUIRED BOOLEAN;
      771    15331
      772    15332          %DCL_AUTO_LX_ITEM(@NAME = SW_VALUE);
      773    15336          %DCL_AUTO_LX_ITEM(@NAME = SW_ON_COND);
      774    15340          %DCL_AUTO_LX_ITEM(@NAME = ASS_VAR);
      775    15344
      776    15345          /* Internal Procedures */
      777    15346
      778    15347    2     SET_UP_DOWN: PROC (RECEIVE$, SEND$, SET_TYPE) ;

  15347 21 000005   200064 741300       SET_UP_DOWN  STX1  ! ASS_VAR+8,,AUTO

      779    15348
      780    15349    3     DCL  RECEIVE$    PTR ; /* LX_LIST                    */
      781    15350    3     DCL  SEND$       PTR ; /* LX_ETT_ITEM or whatever    */
      782    15351    3     DCL  SET_TYPE    SBIN; /* %SET_UP_BY or %SET_DOWN_BY */
      783    15352    3     DCL  REC$        PTR ;
      784    15353
      785    15354    3       CALL Z8CO$INTEGER_CHECK(SEND$);

PL6.E3A0      #002=Z8EX$SET_STATEMENT File=Z8EX.:Z8A6TSI                         SAT 08/09/97 12:58 Page:140
  15354 21 000006   200066 630500                    EPPR0   @SEND$,,AUTO
        21 000007   000000 631400 22                 EPPR1   0
        21 000010   000000 701000 xent               TSX1    Z8CO$INTEGER_CHECK
        21 000011   000000 011000                    NOP     0

      786    15355
      787    15356    3       IF NOT SEND$ -> LX_ITEM.B.ERROR     AND

  15356 21 000012   200066 470500                    LDP0    @SEND$,,AUTO
        21 000013   000000 471500                    LDP1    0,,PR0
        21 000014   100000 236100                    LDQ     0,,PR1
        21 000015   400000 316007                    CANQ    -131072,DL
        21 000016   000204 601000 21                 TNZ     s:16154
        21 000017   200065 473500                    LDP3    @RECEIVE$,,AUTO
        21 000020   300000 474500                    LDP4    0,,PR3
        21 000021   400000 236100                    LDQ     0,,PR4
        21 000022   400000 316007                    CANQ    -131072,DL
        21 000023   000204 601000 21                 TNZ     s:16154

      788    15357    3          NOT RECEIVE$ -> LX_ITEM.B.ERROR     THEN
      789    15358    4         DO;

      790    15359    4           IF SEND$ -> LX_ITEM.ID = %LX_ETT_ITEM

  15359 21 000024   100000 220100                    LDX0    0,,PR1
        21 000025   000004 100003                    CMPX0   4,DU
        21 000026   000076 601000 21                 TNZ     s:15750
        21 000027   100001 475500                    LDP5    1,,PR1
        21 000030   500000 221100                    LDX1    0,,PR5
        21 000031   000015 101003                    CMPX1   13,DU
        21 000032   000076 600000 21                 TZE     s:15750

      791    15360    4                AND SEND$ -> LX_ETT_ITEM.ETT$ -> ETT.ID ~= %TRIAD THEN
      792    15361    5             DO;

      793    15362    5               CALL Z8AF$FORME (%EVAL,

PL6.E3A0      #002=Z8EX$SET_STATEMENT File=Z8EX.:Z8A6TSI                         SAT 08/09/97 12:58 Page:141
  15362 21 000033   000001 236000 22                 LDQ     1
        21 000034   200102 756100                    STQ     @CONST$+2,,AUTO
        21 000035   100001 634500                    EPPR4   1,,PR1
        21 000036   200107 454500                    STP4    @CONST$+7,,AUTO
        21 000037   200102 635500                    EPPR5   @CONST$+2,,AUTO
        21 000040   200106 455500                    STP5    @CONST$+6,,AUTO
        21 000041   100001 636500                    EPPR6   1,,PR1
        21 000042   200105 456500                    STP6    @CONST$+5,,AUTO
        21 000043   000004 236000 22                 LDQ     4
        21 000044   200104 756100                    STQ     @CONST$+4,,AUTO
        21 000045   200104 630500                    EPPR0   @CONST$+4,,AUTO
        21 000046   000002 631400 22                 EPPR1   2
        21 000047   000000 701000 xent               TSX1    Z8AF$FORME
        21 000050   000000 011000                    NOP     0

      794    15363    5                                SEND$ -> LX_ETT_ITEM.ETT$,
      795    15364    5                                ADDR(NIL),
      796    15365    5                                SEND$ -> LX_ETT_ITEM.ETT$);
      797    15366                    %NEW_ILL  (@ID = %VAL,
      798    15367                               @ETT$ = "SEND$ -> LX_ETT_ITEM.ETT$ ");

  15435 21 000051   000007 236000 22                 LDQ     7
        21 000052   200102 756100                    STQ     @CONST$+2,,AUTO
        21 000053   200102 630500                    EPPR0   @CONST$+2,,AUTO
        21 000054   200107 450500                    STP0    @CONST$+7,,AUTO
        21 000055   000010 236000 22                 LDQ     8
        21 000056   200106 756100                    STQ     @CONST$+6,,AUTO
        21 000057   000012 237000 22                 LDAQ    10
        21 000060   200104 757100                    STAQ    @CONST$+4,,AUTO
        21 000061   200104 630500                    EPPR0   @CONST$+4,,AUTO
        21 000062   000002 631400 22                 EPPR1   2
        21 000063   000000 701000 xent               TSX1    Z8AN$NEW_ILL
        21 000064   000000 011000                    NOP     0

  15436 21 000065   200066 470500                    LDP0    @SEND$,,AUTO
        21 000066   000000 471500                    LDP1    0,,PR0
        21 000067   100001 236100                    LDQ     1,,PR1
PL6.E3A0      #002=Z8EX$SET_STATEMENT File=Z8EX.:Z8A6TSI                         SAT 08/09/97 12:58 Page:142
        21 000070   000000 473400 16                 LDP3    ILL$
        21 000071   300001 756100                    STQ     1,,PR3

      799    15746    5               VAL_REQUIRED = TRUE;

  15746 21 000072   400000 236003                    LDQ     -131072,DU
        21 000073   200032 756100                    STQ     VAL_REQUIRED,,AUTO

      800    15747    5               VAL_REC_COUNT = 0 ;                             /*#28761*/

  15747 21 000074   200007 450100                    STZ     VAL_REC_COUNT,,AUTO

      801    15748    5             END;

  15748 21 000075   000077 710000 21                 TRA     s:15752

      802    15749    4           ELSE
      803    15750    4             VAL_REQUIRED = FALSE;

  15750 21 000076   200032 450100                    STZ     VAL_REQUIRED,,AUTO

      804    15751
      805    15752    4           REC$ = RECEIVE$ ->  LX_LIST.HEAD$;

  15752 21 000077   200065 471500                    LDP1    @RECEIVE$,,AUTO
        21 000100   100000 473500                    LDP3    0,,PR1
        21 000101   300004 236100                    LDQ     4,,PR3
        21 000102   200070 756100                    STQ     REC$,,AUTO

      806    15753    5           DO WHILE REC$ ~= ADDR(NIL) ;

  15753 21 000103   000155 710000 21                 TRA     s:15767

      807    15754
      808    15755    5             IF REC$ -> LX_LIST.COUNT > 1 THEN

  15755 21 000104   200070 470500                    LDP0    REC$,,AUTO
PL6.E3A0      #002=Z8EX$SET_STATEMENT File=Z8EX.:Z8A6TSI                         SAT 08/09/97 12:58 Page:143
        21 000105   000002 235100                    LDA     2,,PR0
        21 000106   000001 115007                    CMPA    1,DL
        21 000107   000122 604400 21                 TMOZ    s:15759

      809    15756    5               CALL Z8EY$SUBSCRIPT (REC$ -> LX_LIST.TAIL$,

  15756 21 000110   200070 236100                    LDQ     REC$,,AUTO
        21 000111   000004 036003                    ADLQ    4,DU
        21 000112   200103 756100                    STQ     @CONST$+3,,AUTO
        21 000113   200070 236100                    LDQ     REC$,,AUTO
        21 000114   000001 036003                    ADLQ    1,DU
        21 000115   200102 756100                    STQ     @CONST$+2,,AUTO
        21 000116   200102 630500                    EPPR0   @CONST$+2,,AUTO
        21 000117   000014 631400 22                 EPPR1   12
        21 000120   000000 701000 xent               TSX1    Z8EY$SUBSCRIPT
        21 000121   000000 011000                    NOP     0

      810    15757    5                                    REC$ -> LX_LIST.HEAD$);
      811    15758
      812    15759    5             IF SET_TYPE = %SET_UP_BY THEN

  15759 21 000122   200067 470500                    LDP0    @SET_TYPE,,AUTO
        21 000123   000000 235100                    LDA     0,,PR0
        21 000124   000001 115007                    CMPA    1,DL
        21 000125   000140 601000 21                 TNZ     s:15763

      813    15760    5               CALL Z8EX$SET_UP_BY(REC$ -> LX_LIST.HEAD$,

  15760 21 000126   200066 236100                    LDQ     @SEND$,,AUTO
        21 000127   200103 756100                    STQ     @CONST$+3,,AUTO
        21 000130   200070 236100                    LDQ     REC$,,AUTO
        21 000131   000004 036003                    ADLQ    4,DU
        21 000132   200102 756100                    STQ     @CONST$+2,,AUTO
        21 000133   200102 630500                    EPPR0   @CONST$+2,,AUTO
        21 000134   000014 631400 22                 EPPR1   12
        21 000135   000000 701000 xent               TSX1    Z8EX$SET_UP_BY
        21 000136   000000 011000                    NOP     0
PL6.E3A0      #002=Z8EX$SET_STATEMENT File=Z8EX.:Z8A6TSI                         SAT 08/09/97 12:58 Page:144
        21 000137   000151 710000 21                 TRA     s:15765

      814    15761    5                                   SEND$);
      815    15762    5             ELSE
      816    15763    5               CALL Z8EX$SET_DOWN_BY (REC$ -> LX_LIST.HEAD$,

  15763 21 000140   200066 236100                    LDQ     @SEND$,,AUTO
        21 000141   200103 756100                    STQ     @CONST$+3,,AUTO
        21 000142   200070 236100                    LDQ     REC$,,AUTO
        21 000143   000004 036003                    ADLQ    4,DU
        21 000144   200102 756100                    STQ     @CONST$+2,,AUTO
        21 000145   200102 630500                    EPPR0   @CONST$+2,,AUTO
        21 000146   000014 631400 22                 EPPR1   12
        21 000147   000000 701000 xent               TSX1    Z8EX$SET_DOWN_BY
        21 000150   000000 011000                    NOP     0

      817    15764    5                                      SEND$);
      818    15765    5             REC$ = REC$ -> LX_LIST.LINK;

  15765 21 000151   200070 470500                    LDP0    REC$,,AUTO
        21 000152   000007 236100                    LDQ     7,,PR0
        21 000153   200070 756100                    STQ     REC$,,AUTO

      819    15766    5             VAL_REC_COUNT = VAL_REC_COUNT + 1 ;               /*#28761*/

  15766 21 000154   200007 054100                    AOS     VAL_REC_COUNT,,AUTO

      820    15767    5           END; /* Do while REC$ non-nil */

  15767 21 000155   000001 116000 22                 CMPQ    1
        21 000156   000104 601000 21                 TNZ     s:15755

      821    15768
      822    15769    5           IF VAL_REQUIRED THEN DO ;                           /*#28761*/

  15769 21 000157   200032 234100                    SZN     VAL_REQUIRED,,AUTO
        21 000160   000204 605000 21                 TPL     s:16154
PL6.E3A0      #002=Z8EX$SET_STATEMENT File=Z8EX.:Z8A6TSI                         SAT 08/09/97 12:58 Page:145

      823    15770                  %NEW_ILL (@ID = %VAL_END);

  15841 21 000161   000007 236000 22                 LDQ     7
        21 000162   200102 756100                    STQ     @CONST$+2,,AUTO
        21 000163   200102 630500                    EPPR0   @CONST$+2,,AUTO
        21 000164   200107 450500                    STP0    @CONST$+7,,AUTO
        21 000165   000010 236000 22                 LDQ     8
        21 000166   200106 756100                    STQ     @CONST$+6,,AUTO
        21 000167   000016 237000 22                 LDAQ    14
        21 000170   200104 757100                    STAQ    @CONST$+4,,AUTO
        21 000171   200104 630500                    EPPR0   @CONST$+4,,AUTO
        21 000172   000002 631400 22                 EPPR1   2
        21 000173   000000 701000 xent               TSX1    Z8AN$NEW_ILL
        21 000174   000000 011000                    NOP     0

  15842 21 000175   000001 236000 22                 LDQ     1
        21 000176   000000 470400 16                 LDP0    ILL$
        21 000177   000001 756100                    STQ     1,,PR0

      824    16149    5             IF VAL_REC_COUNT > COMCOM.MAX_RECEIVING_ITEMS THEN /*#28761*/

  16149 21 000200   200007 236100                    LDQ     VAL_REC_COUNT,,AUTO
        21 000201   000360 116000 xsym               CMPQ    COMCOM+240
        21 000202   000204 604400 21                 TMOZ    s:16154

      825    16150    5               COMCOM.MAX_RECEIVING_ITEMS = VAL_REC_COUNT ;

  16150 21 000203   000360 756000 xsym               STQ     COMCOM+240

      826    16151    5           END ;

      827    16152    4         END; /* Sending field not in error */

      828    16153
      829    16154    3     END SET_UP_DOWN ;

PL6.E3A0      #002=Z8EX$SET_STATEMENT File=Z8EX.:Z8A6TSI                         SAT 08/09/97 12:58 Page:146
  16154 21 000204   200064 221300                    LDX1  ! ASS_VAR+8,,AUTO
        21 000205   000001 702211                    TSX2  ! 1,X1

      830    16155
      831    16156    2     SET_TO: PROC (RECEIVE$, SEND$) ;

  16156 21 000206   200064 741300       SET_TO       STX1  ! ASS_VAR+8,,AUTO

      832    16157
      833    16158    3     DCL  RECEIVE$  PTR ; /* LX_LIST */
      834    16159    3     DCL  SEND$     PTR ; /* mnemonic switch, id, or literal */
      835    16160    3     DCL  REC$      PTR ;
      836    16161    3     DCL  R$        PTR ;
      837    16162
      838    16163    4       DO CASE (SEND$ -> LX_ITEM.ID);

  16163 21 000207   200066 470500                    LDP0    @SEND$,,AUTO
        21 000210   000000 471500                    LDP1    0,,PR0
        21 000211   100000 220100                    LDX0    0,,PR1
        21 000212   000003 100003                    CMPX0   3,DU
        21 000213   000215 602010 21                 TNC     s:16163+6,X0
        21 000214   000413 710000 21                 TRA     s:16261
        21 000215   000413 710000 21                 TRA     s:16261
        21 000216   000413 710000 21                 TRA     s:16261
        21 000217   000220 710000 21                 TRA     s:16167

      839    16164
      840    16165    4         CASE(%LX_LIST);

      841    16166
      842    16167    4           IF SEND$ -> LX_LIST.HEAD$ -> LX_ETT_ITEM.TYPE = %TYP THEN

  16167 21 000220   100004 473500                    LDP3    4,,PR1
        21 000221   300004 235100                    LDA     4,,PR3
        21 000222   000022 115007                    CMPA    18,DL
        21 000223   000234 601000 21                 TNZ     s:16177

PL6.E3A0      #002=Z8EX$SET_STATEMENT File=Z8EX.:Z8A6TSI                         SAT 08/09/97 12:58 Page:147
      843    16168    5             DO;

      844    16169    5               CALL PROCESS_POINTER_SET (RECEIVE$, SEND$);

  16169 21 000224   200066 236100                    LDQ     @SEND$,,AUTO
        21 000225   200074 756100                    STQ     IDENT$+1,,AUTO
        21 000226   200065 236100                    LDQ     @RECEIVE$,,AUTO
        21 000227   200073 756100                    STQ     @STATEMENT_TYPE+1,,AUTO
        21 000230   002130 701000 21                 TSX1    PROCESS_POINTER_SET
        21 000231   000000 011000                    NOP     0

      845    16170
      846    16171    5               RETURN;

  16171 21 000232   200064 221300                    LDX1  ! ASS_VAR+8,,AUTO
        21 000233   000001 702211                    TSX2  ! 1,X1

      847    16172    5             END;
      848    16173
      849    16174                %FISH(TRIAD = SEND$ -> LX_LIST.HEAD$ -> LX_ETT_ITEM.ETT$,
      850    16175                      RTN = ST$);

  16177 21 000234   300001 236100                    LDQ     1,,PR3
        21 000235   200023 756100                    STQ     ST$,,AUTO

  16178 21 000236   200023 474500                    LDP4    ST$,,AUTO
        21 000237   400000 222100                    LDX2    0,,PR4
        21 000240   000751 102003                    CMPX2   489,DU
        21 000241   000251 603000 21                 TRC     s:16184

  16179 21 000242   200023 470500                    LDP0    ST$,,AUTO
        21 000243   000001 236100                    LDQ     1,,PR0
        21 000244   200023 756100                    STQ     ST$,,AUTO

  16180 21 000245   200023 470500                    LDP0    ST$,,AUTO
        21 000246   000000 220100                    LDX0    0,,PR0
        21 000247   000751 100003                    CMPX0   489,DU
PL6.E3A0      #002=Z8EX$SET_STATEMENT File=Z8EX.:Z8A6TSI                         SAT 08/09/97 12:58 Page:148
        21 000250   000242 602000 21                 TNC     s:16179

      851    16183
      852    16184    4           IF ST$ -> ST.ID ~= %SWITCH THEN

  16184 21 000251   200023 470500                    LDP0    ST$,,AUTO
        21 000252   000000 220100                    LDX0    0,,PR0
        21 000253   000762 100003                    CMPX0   498,DU
        21 000254   000262 600000 21                 TZE     s:16191

      853    16185    5             DO;  /* Rec should be INDEX */

      854    16186    5               CALL Z8EX$SET_INDEX (RECEIVE$,

  16186 21 000255   200065 630500                    EPPR0   @RECEIVE$,,AUTO
        21 000256   000014 631400 22                 EPPR1   12
        21 000257   000000 701000 xent               TSX1    Z8EX$SET_INDEX
        21 000260   000000 011000                    NOP     0

      855    16187    5                                    SEND$);
      856    16188    5             END;

  16188 21 000261   000402 710000 21                 TRA     s:16257

      857    16189    4           ELSE
      858    16190    5             DO;

      859    16191    5               REC$ = RECEIVE$ -> LX_LIST.HEAD$;

  16191 21 000262   200065 471500                    LDP1    @RECEIVE$,,AUTO
        21 000263   100000 473500                    LDP3    0,,PR1
        21 000264   300004 236100                    LDQ     4,,PR3
        21 000265   200067 756100                    STQ     REC$,,AUTO

      860    16192    6               DO WHILE REC$ ~= ADDR(NIL);

  16192 21 000266   000400 710000 21                 TRA     s:16255
PL6.E3A0      #002=Z8EX$SET_STATEMENT File=Z8EX.:Z8A6TSI                         SAT 08/09/97 12:58 Page:149

      861    16193    6                 IF REC$ -> LX_ITEM.ID = %LX_LIST THEN

  16193 21 000267   200067 470500                    LDP0    REC$,,AUTO
        21 000270   000000 220100                    LDX0    0,,PR0
        21 000271   000002 100003                    CMPX0   2,DU
        21 000272   000276 601000 21                 TNZ     s:16196

      862    16194    6                   R$ = REC$ -> LX_LIST.HEAD$ ;

  16194 21 000273   000004 236100                    LDQ     4,,PR0
        21 000274   200070 756100                    STQ     R$,,AUTO
        21 000275   000300 710000 21                 TRA     s:16198

      863    16195    6                 ELSE
      864    16196    6                   R$ = REC$ ;

  16196 21 000276   200067 236100                    LDQ     REC$,,AUTO
        21 000277   200070 756100                    STQ     R$,,AUTO

      865    16197
      866    16198    6                 IF R$ -> LX_ITEM.ID = %LX_TERMINAL THEN

  16198 21 000300   200070 471500                    LDP1    R$,,AUTO
        21 000301   100000 221100                    LDX1    0,,PR1
        21 000302   000306 601000 21                 TNZ     s:16204

      867    16199    6                   ST2$ = ADDR(NIL) ;

  16199 21 000303   000001 236000 22                 LDQ     1
        21 000304   200024 756100                    STQ     ST2$,,AUTO
        21 000305   000323 710000 21                 TRA     s:16211

      868    16200    6                 ELSE
      869    16201                        %FISH (TRIAD = R$ -> LX_ETT_ITEM.ETT$,
      870    16202                               RTN = ST2$);

PL6.E3A0      #002=Z8EX$SET_STATEMENT File=Z8EX.:Z8A6TSI                         SAT 08/09/97 12:58 Page:150
  16204 21 000306   100001 236100                    LDQ     1,,PR1
        21 000307   200024 756100                    STQ     ST2$,,AUTO

  16205 21 000310   200024 473500                    LDP3    ST2$,,AUTO
        21 000311   300000 222100                    LDX2    0,,PR3
        21 000312   000751 102003                    CMPX2   489,DU
        21 000313   000323 603000 21                 TRC     s:16211

  16206 21 000314   200024 470500                    LDP0    ST2$,,AUTO
        21 000315   000001 236100                    LDQ     1,,PR0
        21 000316   200024 756100                    STQ     ST2$,,AUTO

  16207 21 000317   200024 470500                    LDP0    ST2$,,AUTO
        21 000320   000000 220100                    LDX0    0,,PR0
        21 000321   000751 100003                    CMPX0   489,DU
        21 000322   000314 602000 21                 TNC     s:16206

      871    16210
      872    16211    6                 IF ST2$ = ADDR(NIL)

  16211 21 000323   000001 116000 22                 CMPQ    1
        21 000324   000331 600000 21                 TZE     s:16227
        21 000325   200024 470500                    LDP0    ST2$,,AUTO
        21 000326   000000 220100                    LDX0    0,,PR0
        21 000327   000762 100003                    CMPX0   498,DU
        21 000330   000354 600000 21                 TZE     s:16250

      873    16212    6                 OR ST2$ -> ST.ID ~= %SWITCH THEN
      874    16213    7                   DO;

      875    16214                           %CONDITIONAL_ERROR (@LX_ITEM$ = R$,
      876    16215                                  @ERROR# = %E$MNEMONIC_NAME_EXPECTED,
      877    16216                                  @LINE = R$ -> LX_ETT_ITEM.LINE,
      878    16217                                  @COLUMN = R$ -> LX_ETT_ITEM.COLUMN);

  16227 21 000331   200070 470500                    LDP0    R$,,AUTO
        21 000332   000000 236100                    LDQ     0,,PR0
PL6.E3A0      #002=Z8EX$SET_STATEMENT File=Z8EX.:Z8A6TSI                         SAT 08/09/97 12:58 Page:151
        21 000333   400000 316007                    CANQ    -131072,DL
        21 000334   000375 601000 21                 TNZ     s:16254

  16229 21 000335   200070 236100                    LDQ     R$,,AUTO
        21 000336   000006 036003                    ADLQ    6,DU
        21 000337   200104 756100                    STQ     @CONST$+4,,AUTO
        21 000340   200070 236100                    LDQ     R$,,AUTO
        21 000341   000005 036003                    ADLQ    5,DU
        21 000342   000022 235000 22                 LDA     18
        21 000343   200102 757100                    STAQ    @CONST$+2,,AUTO
        21 000344   200102 630500                    EPPR0   @CONST$+2,,AUTO
        21 000345   000020 631400 22                 EPPR1   16
        21 000346   000000 701000 xent               TSX1    Z8AE$ERROR
        21 000347   000000 011000                    NOP     0

  16238 21 000350   200070 470500                    LDP0    R$,,AUTO
        21 000351   400000 236007                    LDQ     -131072,DL
        21 000352   000000 256100                    ORSQ    0,,PR0

      879    16247    7                   END;

  16247 21 000353   000375 710000 21                 TRA     s:16254

      880    16248    6                 ELSE
      881    16249    7                   DO;  /* Have a SET mnemonic-name to mnemonic-name */

      882    16250    7                     CALL SET_SWITCH_FROM_SWITCH

  16250 21 000354   000003 236100                    LDQ     3,,PR0
        21 000355   777777 376007                    ANQ     -1,DL
        21 000356   200023 471500                    LDP1    ST$,,AUTO
        21 000357   200102 756100                    STQ     @CONST$+2,,AUTO
        21 000360   100003 236100                    LDQ     3,,PR1
        21 000361   777777 376007                    ANQ     -1,DL
        21 000362   200103 756100                    STQ     @CONST$+3,,AUTO
        21 000363   200102 236100                    LDQ     @CONST$+2,,AUTO
        21 000364   200110 756100                    STQ     @CONST$+8,,AUTO
PL6.E3A0      #002=Z8EX$SET_STATEMENT File=Z8EX.:Z8A6TSI                         SAT 08/09/97 12:58 Page:152
        21 000365   200103 236100                    LDQ     @CONST$+3,,AUTO
        21 000366   200112 756100                    STQ     @CONST$+10,,AUTO
        21 000367   200112 633500                    EPPR3   @CONST$+10,,AUTO
        21 000370   200074 453500                    STP3    IDENT$+1,,AUTO
        21 000371   200110 634500                    EPPR4   @CONST$+8,,AUTO
        21 000372   200073 454500                    STP4    @STATEMENT_TYPE+1,,AUTO
        21 000373   001733 701000 21                 TSX1    SET_SWITCH_FROM_SWITCH
        21 000374   000000 011000                    NOP     0

      883    16251    7                        (BINBIT(ST2$ -> SWITCH.SWITCH#, 36),
      884    16252    7                         BINBIT(ST$ -> SWITCH.SWITCH#, 36));
      885    16253    7                   END;

      886    16254    6                 REC$ = REC$ -> LX_ITEM.LINK;

  16254 21 000375   200067 470500                    LDP0    REC$,,AUTO
        21 000376   000007 236100                    LDQ     7,,PR0
        21 000377   200067 756100                    STQ     REC$,,AUTO

      887    16255    6               END;

  16255 21 000400   000001 116000 22                 CMPQ    1
        21 000401   000267 601000 21                 TNZ     s:16193

      888    16256    5             END;

      889    16257    4           CALL Z8ED$DISPOSE_ABSSYN_TREE (SEND$ -> LX_LIST.HEAD$);

  16257 21 000402   200066 470500                    LDP0    @SEND$,,AUTO
        21 000403   000000 471500                    LDP1    0,,PR0
        21 000404   100004 633500                    EPPR3   4,,PR1
        21 000405   200102 453500                    STP3    @CONST$+2,,AUTO
        21 000406   200102 630500                    EPPR0   @CONST$+2,,AUTO
        21 000407   000000 631400 22                 EPPR1   0
        21 000410   000000 701000 xent               TSX1    Z8ED$DISPOSE_ABSSYN_TREE
        21 000411   000000 011000                    NOP     0
        21 000412   000417 710000 21                 TRA     s:16265
PL6.E3A0      #002=Z8EX$SET_STATEMENT File=Z8EX.:Z8A6TSI                         SAT 08/09/97 12:58 Page:153

      890    16258
      891    16259    4         CASE(ELSE);

      892    16260
      893    16261    4           CALL Z8EX$SET_INDEX(RECEIVE$,

  16261 21 000413   200065 630500                    EPPR0   @RECEIVE$,,AUTO
        21 000414   000014 631400 22                 EPPR1   12
        21 000415   000000 701000 xent               TSX1    Z8EX$SET_INDEX
        21 000416   000000 011000                    NOP     0

      894    16262    4                               SEND$);
      895    16263    4       END;

      896    16264
      897    16265    3     END SET_TO ;

  16265 21 000417   200064 221300                    LDX1  ! ASS_VAR+8,,AUTO
        21 000420   000001 702211                    TSX2  ! 1,X1

      898    16266
      899    16267    2     SET_TO_TRUE: PROC (RECEIVE$) ;

  16267 21 000421   200064 741300       SET_TO_TRUE  STX1  ! ASS_VAR+8,,AUTO

      900    16268
      901    16269    3     DCL  RECEIVE$  PTR ; /* LX_LIST */
      902    16270    3     DCL  REC$      PTR ;
      903    16271
      904    16272    3       REC$ = RECEIVE$ -> LX_LIST.HEAD$;

  16272 21 000422   200065 470500                    LDP0    @RECEIVE$,,AUTO
        21 000423   000000 471500                    LDP1    0,,PR0
        21 000424   100004 236100                    LDQ     4,,PR1
        21 000425   200066 756100                    STQ     REC$,,AUTO

PL6.E3A0      #002=Z8EX$SET_STATEMENT File=Z8EX.:Z8A6TSI                         SAT 08/09/97 12:58 Page:154
      905    16273    4       DO WHILE REC$ ~= ADDR(NIL);

  16273 21 000426   000717 710000 21                 TRA     s:17129

      906    16274
      907    16275              %FISH (TRIAD = REC$ -> LX_LIST.HEAD$ -> LX_ETT_ITEM.ETT$,
      908    16276                     RTN = ST$);

  16278 21 000427   200066 470500                    LDP0    REC$,,AUTO
        21 000430   000004 471500                    LDP1    4,,PR0
        21 000431   100001 236100                    LDQ     1,,PR1
        21 000432   200023 756100                    STQ     ST$,,AUTO

  16279 21 000433   200023 473500                    LDP3    ST$,,AUTO
        21 000434   300000 220100                    LDX0    0,,PR3
        21 000435   000751 100003                    CMPX0   489,DU
        21 000436   000446 603000 21                 TRC     s:16285

  16280 21 000437   200023 470500                    LDP0    ST$,,AUTO
        21 000440   000001 236100                    LDQ     1,,PR0
        21 000441   200023 756100                    STQ     ST$,,AUTO

  16281 21 000442   200023 470500                    LDP0    ST$,,AUTO
        21 000443   000000 220100                    LDX0    0,,PR0
        21 000444   000751 100003                    CMPX0   489,DU
        21 000445   000437 602000 21                 TNC     s:16280

      909    16284
      910    16285    4         IF ST$ -> ST.ID = %CONDITION THEN

  16285 21 000446   200023 470500                    LDP0    ST$,,AUTO
        21 000447   000000 220100                    LDX0    0,,PR0
        21 000450   000764 100003                    CMPX0   500,DU
        21 000451   000671 601000 21                 TNZ     s:17107

      911    16286    5           DO;

PL6.E3A0      #002=Z8EX$SET_STATEMENT File=Z8EX.:Z8A6TSI                         SAT 08/09/97 12:58 Page:155
      912    16287    6             DO CASE (ST$ -> CONDITION.ASSOC_VAR$ -> ST.ID);

  16287 21 000452   000010 471500                    LDP1    8,,PR0
        21 000453   100000 236100                    LDQ     0,,PR1
        21 000454   000022 772000                    QRL     18
        21 000455   000762 136007                    SBLQ    498,DL
        21 000456   000005 116007                    CMPQ    5,DL
        21 000457   000461 602006 21                 TNC     s:16287+7,QL
        21 000460   000654 710000 21                 TRA     s:17087
        21 000461   000576 710000 21                 TRA     s:16319
        21 000462   000654 710000 21                 TRA     s:17087
        21 000463   000654 710000 21                 TRA     s:17087
        21 000464   000466 710000 21                 TRA     s:16291
        21 000465   000466 710000 21                 TRA     s:16291

      913    16288
      914    16289    6               CASE (%SCALAR, %ARRAY);

      915    16290
      916    16291    6                 IF ST$ -> CONDITION.VALUE_LIST$ = ADDR(NIL)

  16291 21 000466   000005 236100                    LDQ     5,,PR0
        21 000467   000001 116000 22                 CMPQ    1
        21 000470   000473 601000 21                 TNZ     s:16294

      917    16292    6                   THEN RETURN;

  16292 21 000471   200064 221300                    LDX1  ! ASS_VAR+8,,AUTO
        21 000472   000001 702211                    TSX2  ! 1,X1

      918    16293
      919    16294    6                 CALL Z8EU$CREATE_IDENTIFIER_FROM_ST (ST$ -> CONDITION.ASSOC_VAR$,

  16294 21 000473   200066 473500                    LDP3    REC$,,AUTO
        21 000474   300004 474500                    LDP4    4,,PR3
        21 000475   200054 635500                    EPPR5   ASS_VAR,,AUTO
        21 000476   200102 455500                    STP5    @CONST$+2,,AUTO
PL6.E3A0      #002=Z8EX$SET_STATEMENT File=Z8EX.:Z8A6TSI                         SAT 08/09/97 12:58 Page:156
        21 000477   400006 631500                    EPPR1   6,,PR4
        21 000500   200107 451500                    STP1    @CONST$+7,,AUTO
        21 000501   400005 636500                    EPPR6   5,,PR4
        21 000502   200106 456500                    STP6    @CONST$+6,,AUTO
        21 000503   200102 634500                    EPPR4   @CONST$+2,,AUTO
        21 000504   200105 454500                    STP4    @CONST$+5,,AUTO
        21 000505   200023 236100                    LDQ     ST$,,AUTO
        21 000506   000010 036003                    ADLQ    8,DU
        21 000507   200104 756100                    STQ     @CONST$+4,,AUTO
        21 000510   200104 630500                    EPPR0   @CONST$+4,,AUTO
        21 000511   000002 631400 22                 EPPR1   2
        21 000512   000000 701000 xent               TSX1    Z8EU$CREATE_IDENTIFIER_FROM_ST
        21 000513   000000 011000                    NOP     0

      920    16295    6                                                      ADDR(ASS_VAR),
      921    16296    6                                                      REC$ -> LX_LIST.HEAD$ ->
             16296                                                               LX_ETT_ITEM.LINE,
      922    16297    6                                                      REC$ -> LX_LIST.HEAD$ ->
             16297                                                               LX_ETT_ITEM.COLUMN);
      923    16298    6                 IF REC$ -> LX_LIST.COUNT > 1 THEN

  16298 21 000514   200066 470500                    LDP0    REC$,,AUTO
        21 000515   000002 235100                    LDA     2,,PR0
        21 000516   000001 115007                    CMPA    1,DL
        21 000517   000533 604400 21                 TMOZ    s:16303

      924    16299    6                   CALL Z8EY$SUBSCRIPT (REC$ -> LX_LIST.TAIL$,

  16299 21 000520   200054 631500                    EPPR1   ASS_VAR,,AUTO
        21 000521   200102 451500                    STP1    @CONST$+2,,AUTO
        21 000522   200102 633500                    EPPR3   @CONST$+2,,AUTO
        21 000523   200105 453500                    STP3    @CONST$+5,,AUTO
        21 000524   200066 236100                    LDQ     REC$,,AUTO
        21 000525   000001 036003                    ADLQ    1,DU
        21 000526   200104 756100                    STQ     @CONST$+4,,AUTO
        21 000527   200104 630500                    EPPR0   @CONST$+4,,AUTO
        21 000530   000014 631400 22                 EPPR1   12
PL6.E3A0      #002=Z8EX$SET_STATEMENT File=Z8EX.:Z8A6TSI                         SAT 08/09/97 12:58 Page:157
        21 000531   000000 701000 xent               TSX1    Z8EY$SUBSCRIPT
        21 000532   000000 011000                    NOP     0

      925    16300    6                                        ADDR(ASS_VAR));
      926    16301
      927    16302                      /* swap line & column for possible error message */
      928    16303    6                 T$ = ST$ -> CONDITION.VALUE_LIST$ -> LX_LIST.HEAD$ -> LX_LIST.HEAD$;

  16303 21 000533   200023 470500                    LDP0    ST$,,AUTO
        21 000534   000005 471500                    LDP1    5,,PR0
        21 000535   100004 473500                    LDP3    4,,PR1
        21 000536   300004 236100                    LDQ     4,,PR3
        21 000537   200016 756100                    STQ     T$,,AUTO

      929    16304    6                 ORIG_LINE# = T$ -> LX_ITEM.LINE;

  16304 21 000540   200016 474500                    LDP4    T$,,AUTO
        21 000541   400005 235100                    LDA     5,,PR4
        21 000542   200017 755100                    STA     ORIG_LINE#,,AUTO

      930    16305    6                 ORIG_COLUMN# = T$ -> LX_ITEM.COLUMN;

  16305 21 000543   400006 235100                    LDA     6,,PR4
        21 000544   200020 755100                    STA     ORIG_COLUMN#,,AUTO

      931    16306    6                 T$ -> LX_ITEM.LINE = REC$ -> LX_LIST.HEAD$ -> LX_ETT_ITEM.LINE;

  16306 21 000545   200066 475500                    LDP5    REC$,,AUTO
        21 000546   500004 476500                    LDP6    4,,PR5
        21 000547   600005 235100                    LDA     5,,PR6
        21 000550   400005 755100                    STA     5,,PR4

      932    16307    6                 T$ -> LX_ITEM.COLUMN = REC$ -> LX_LIST.HEAD$ -> LX_ETT_ITEM.COLUMN;

  16307 21 000551   500004 471500                    LDP1    4,,PR5
        21 000552   100006 235100                    LDA     6,,PR1
        21 000553   400006 755100                    STA     6,,PR4
PL6.E3A0      #002=Z8EX$SET_STATEMENT File=Z8EX.:Z8A6TSI                         SAT 08/09/97 12:58 Page:158

      933    16308
      934    16309    6                 CALL Z8E7$RESTRICTED_MOVE (ADDR(ASS_VAR),

  16309 21 000554   000005 471500                    LDP1    5,,PR0
        21 000555   100004 473500                    LDP3    4,,PR1
        21 000556   200054 636500                    EPPR6   ASS_VAR,,AUTO
        21 000557   200102 456500                    STP6    @CONST$+2,,AUTO
        21 000560   300004 631500                    EPPR1   4,,PR3
        21 000561   200105 451500                    STP1    @CONST$+5,,AUTO
        21 000562   200102 633500                    EPPR3   @CONST$+2,,AUTO
        21 000563   200104 453500                    STP3    @CONST$+4,,AUTO
        21 000564   200104 630500                    EPPR0   @CONST$+4,,AUTO
        21 000565   000014 631400 22                 EPPR1   12
        21 000566   000000 701000 xent               TSX1    Z8E7$RESTRICTED_MOVE
        21 000567   000000 011000                    NOP     0

      935    16310    6                                 ST$ -> CONDITION.VALUE_LIST$ -> LX_LIST.HEAD$
      936    16311    6                                               -> LX_LIST.HEAD$);
      937    16312
      938    16313                      /* restore line & column to original value is clause */
      939    16314    6                 T$ -> LX_ITEM.LINE = ORIG_LINE#;

  16314 21 000570   200017 235100                    LDA     ORIG_LINE#,,AUTO
        21 000571   200016 470500                    LDP0    T$,,AUTO
        21 000572   000005 755100                    STA     5,,PR0

      940    16315    6                 T$ -> LX_ITEM.COLUMN = ORIG_COLUMN#;

  16315 21 000573   200020 236100                    LDQ     ORIG_COLUMN#,,AUTO
        21 000574   000006 756100                    STQ     6,,PR0
        21 000575   000714 710000 21                 TRA     s:17128

      941    16316
      942    16317    6               CASE(%SWITCH);

      943    16318
PL6.E3A0      #002=Z8EX$SET_STATEMENT File=Z8EX.:Z8A6TSI                         SAT 08/09/97 12:58 Page:159
      944    16319    6                CALL CREATE_SWITCH_TRIAD (BINBIT(ST$ -> CONDITION.ASSOC_VAR$ -> SWITCH
             16319                          .SWITCH#, 36),

  16319 21 000576   100003 236100                    LDQ     3,,PR1
        21 000577   777777 376007                    ANQ     -1,DL
        21 000600   200114 756100                    STQ     @CONST$+12,,AUTO
        21 000601   200025 631500                    EPPR1   CONST$,,AUTO
        21 000602   200100 451500                    STP1    @SW#+1,,AUTO
        21 000603   200114 633500                    EPPR3   @CONST$+12,,AUTO
        21 000604   200077 453500                    STP3    R$+2,,AUTO
        21 000605   001333 701000 21                 TSX1    CREATE_SWITCH_TRIAD
        21 000606   000000 011000                    NOP     0

      945    16320    6                                           CONST$);
      946    16321
      947    16322    6                 IF ST$ -> CONDITION.ASSOC_VAR$ -> SWITCH.ON$ = ST$ THEN

  16322 21 000607   200023 470500                    LDP0    ST$,,AUTO
        21 000610   000010 471500                    LDP1    8,,PR0
        21 000611   100005 236100                    LDQ     5,,PR1
        21 000612   200023 116100                    CMPQ    ST$,,AUTO
        21 000613   000634 601000 21                 TNZ     s:17029

      948    16323                        %NEW_ILL (@ID = %ON_SWITCH,
      949    16324                                  @LOP = CONST$);

  16648 21 000614   000007 236000 22                 LDQ     7
        21 000615   200102 756100                    STQ     @CONST$+2,,AUTO
        21 000616   200102 631500                    EPPR1   @CONST$+2,,AUTO
        21 000617   200107 451500                    STP1    @CONST$+7,,AUTO
        21 000620   000010 236000 22                 LDQ     8
        21 000621   200106 756100                    STQ     @CONST$+6,,AUTO
        21 000622   000024 237000 22                 LDAQ    20
        21 000623   200104 757100                    STAQ    @CONST$+4,,AUTO
        21 000624   200104 630500                    EPPR0   @CONST$+4,,AUTO
        21 000625   000002 631400 22                 EPPR1   2
        21 000626   000000 701000 xent               TSX1    Z8AN$NEW_ILL
PL6.E3A0      #002=Z8EX$SET_STATEMENT File=Z8EX.:Z8A6TSI                         SAT 08/09/97 12:58 Page:160
        21 000627   000000 011000                    NOP     0

  16654 21 000630   200025 236100                    LDQ     CONST$,,AUTO
        21 000631   000000 470400 16                 LDP0    ILL$
        21 000632   000001 756100                    STQ     1,,PR0

  16673 21 000633   000714 710000 21                 TRA     s:17128

      950    16703    6                 ELSE
      951    16704                        %NEW_ILL (@ID = %OFF_SWITCH,
      952    16705                                  @LOP = CONST$);

  17029 21 000634   000007 236000 22                 LDQ     7
        21 000635   200102 756100                    STQ     @CONST$+2,,AUTO
        21 000636   200102 631500                    EPPR1   @CONST$+2,,AUTO
        21 000637   200107 451500                    STP1    @CONST$+7,,AUTO
        21 000640   000010 236000 22                 LDQ     8
        21 000641   200106 756100                    STQ     @CONST$+6,,AUTO
        21 000642   000030 237000 22                 LDAQ    24
        21 000643   200104 757100                    STAQ    @CONST$+4,,AUTO
        21 000644   200104 630500                    EPPR0   @CONST$+4,,AUTO
        21 000645   000002 631400 22                 EPPR1   2
        21 000646   000000 701000 xent               TSX1    Z8AN$NEW_ILL
        21 000647   000000 011000                    NOP     0

  17035 21 000650   200025 236100                    LDQ     CONST$,,AUTO
        21 000651   000000 470400 16                 LDP0    ILL$
        21 000652   000001 756100                    STQ     1,,PR0

  17054 21 000653   000714 710000 21                 TRA     s:17128

      953    17084
      954    17085    6               CASE (ELSE);

      955    17086
      956    17087    6                 CALL Z8AE$ERROR (%E$CONDITION_NAME_EXPECTED,

PL6.E3A0      #002=Z8EX$SET_STATEMENT File=Z8EX.:Z8A6TSI                         SAT 08/09/97 12:58 Page:161
  17087 21 000654   200066 473500                    LDP3    REC$,,AUTO
        21 000655   300004 474500                    LDP4    4,,PR3
        21 000656   400006 635500                    EPPR5   6,,PR4
        21 000657   200104 455500                    STP5    @CONST$+4,,AUTO
        21 000660   400005 631500                    EPPR1   5,,PR4
        21 000661   200103 451500                    STP1    @CONST$+3,,AUTO
        21 000662   000032 236000 22                 LDQ     26
        21 000663   200102 756100                    STQ     @CONST$+2,,AUTO
        21 000664   200102 630500                    EPPR0   @CONST$+2,,AUTO
        21 000665   000020 631400 22                 EPPR1   16
        21 000666   000000 701000 xent               TSX1    Z8AE$ERROR
        21 000667   000000 011000                    NOP     0

      957    17088    6                                  REC$ -> LX_LIST.HEAD$ -> LX_ETT_ITEM.LINE,
      958    17089    6                                  REC$ -> LX_LIST.HEAD$ -> LX_ETT_ITEM.COLUMN);
      959    17090
      960    17091    6             END;

      961    17092    5           END;

  17092 21 000670   000714 710000 21                 TRA     s:17128

      962    17093    4         ELSE
      963    17094                %CONDITIONAL_ERROR (@LX_ITEM$ = REC$ -> LX_LIST.HEAD$,
      964    17095                                    @ERROR# = %E$CONDITION_NAME_EXPECTED,
      965    17096                                    @LINE = REC$ -> LX_LIST.HEAD$ -> LX_ETT_ITEM.LINE,
      966    17097                                    @COLUMN = REC$ -> LX_LIST.HEAD$ -> LX_ETT_ITEM.COLUMN);

  17107 21 000671   200066 471500                    LDP1    REC$,,AUTO
        21 000672   100004 473500                    LDP3    4,,PR1
        21 000673   300000 236100                    LDQ     0,,PR3
        21 000674   400000 316007                    CANQ    -131072,DL
        21 000675   000714 601000 21                 TNZ     s:17128

  17109 21 000676   300006 634500                    EPPR4   6,,PR3
        21 000677   200104 454500                    STP4    @CONST$+4,,AUTO
        21 000700   300005 635500                    EPPR5   5,,PR3
PL6.E3A0      #002=Z8EX$SET_STATEMENT File=Z8EX.:Z8A6TSI                         SAT 08/09/97 12:58 Page:162
        21 000701   200103 455500                    STP5    @CONST$+3,,AUTO
        21 000702   000032 236000 22                 LDQ     26
        21 000703   200102 756100                    STQ     @CONST$+2,,AUTO
        21 000704   200102 630500                    EPPR0   @CONST$+2,,AUTO
        21 000705   000020 631400 22                 EPPR1   16
        21 000706   000000 701000 xent               TSX1    Z8AE$ERROR
        21 000707   000000 011000                    NOP     0

  17118 21 000710   200066 470500                    LDP0    REC$,,AUTO
        21 000711   000004 471500                    LDP1    4,,PR0
        21 000712   400000 236007                    LDQ     -131072,DL
        21 000713   100000 256100                    ORSQ    0,,PR1

      967    17127
      968    17128    4         REC$ = REC$ -> LX_ITEM.LINK;

  17128 21 000714   200066 470500                    LDP0    REC$,,AUTO
        21 000715   000007 236100                    LDQ     7,,PR0
        21 000716   200066 756100                    STQ     REC$,,AUTO

      969    17129    4       END;

  17129 21 000717   000001 116000 22                 CMPQ    1
        21 000720   000427 601000 21                 TNZ     s:16278

      970    17130
      971    17131    3     END SET_TO_TRUE ;

  17131 21 000721   200064 221300                    LDX1  ! ASS_VAR+8,,AUTO
        21 000722   000001 702211                    TSX2  ! 1,X1

      972    17132
      973    17133
      974    17134    2     SET_TO_SWITCH: PROC (RECEIVE$, SEND$) ;

  17134 21 000723   200064 741300       SET_TO_SWIT* STX1  ! ASS_VAR+8,,AUTO

PL6.E3A0      #002=Z8EX$SET_STATEMENT File=Z8EX.:Z8A6TSI                         SAT 08/09/97 12:58 Page:163
      975    17135
      976    17136    3     DCL  RECEIVE$  PTR ; /* LX_LIST */
      977    17137    3     DCL  SEND$     PTR ; /* mnemonic switch, id, or literal */
      978    17138    3     DCL  REC$      PTR ;
      979    17139
      980    17140    3       REC$ = RECEIVE$ -> LX_LIST.HEAD$;

  17140 21 000724   200065 470500                    LDP0    @RECEIVE$,,AUTO
        21 000725   000000 471500                    LDP1    0,,PR0
        21 000726   100004 236100                    LDQ     4,,PR1
        21 000727   200067 756100                    STQ     REC$,,AUTO

      981    17141    4       DO WHILE REC$ ~= ADDR(NIL);

  17141 21 000730   001027 710000 21                 TRA     s:17196

      982    17142
      983    17143    4         CALL CHARBIN(SW#,

  17143 21 000731   200066 470500                    LDP0    @SEND$,,AUTO
        21 000732   000000 471500                    LDP1    0,,PR0
        21 000733   100002 473500                    LDP3    2,,PR1
        21 000734   300004 220100                    LDX0    4,,PR3
        21 000735   777771 621010                    EAX1    -7,X0
        21 000736   000100 305540                    DTB
        21 000737   300006 230011                    NDSC9   6,,PR3                   cn=1,s=nosgn,sf=0,n=*X1
        21 000740   200030 000004                    NDSC9   SW#,,AUTO                cn=0,s=lsgnf,sf=0,n=4

      984    17144    4                      SUBSTR(SEND$ -> LX_TERMINAL.DNT$ -> DNT.TEXT.NAME,
      985    17145    4                             7));
      986    17146
      987    17147              %FISH (TRIAD = REC$ -> LX_LIST.HEAD$ -> LX_ETT_ITEM.ETT$,
      988    17148                     RTN = ST$);

  17150 21 000741   200067 471500                    LDP1    REC$,,AUTO
        21 000742   100004 473500                    LDP3    4,,PR1
        21 000743   300001 236100                    LDQ     1,,PR3
PL6.E3A0      #002=Z8EX$SET_STATEMENT File=Z8EX.:Z8A6TSI                         SAT 08/09/97 12:58 Page:164
        21 000744   200023 756100                    STQ     ST$,,AUTO

  17151 21 000745   200023 474500                    LDP4    ST$,,AUTO
        21 000746   400000 220100                    LDX0    0,,PR4
        21 000747   000751 100003                    CMPX0   489,DU
        21 000750   000760 603000 21                 TRC     s:17157

  17152 21 000751   200023 470500                    LDP0    ST$,,AUTO
        21 000752   000001 236100                    LDQ     1,,PR0
        21 000753   200023 756100                    STQ     ST$,,AUTO

  17153 21 000754   200023 470500                    LDP0    ST$,,AUTO
        21 000755   000000 220100                    LDX0    0,,PR0
        21 000756   000751 100003                    CMPX0   489,DU
        21 000757   000751 602000 21                 TNC     s:17152

      989    17156
      990    17157    4         IF REC$ -> LX_LIST.COUNT > 1

  17157 21 000760   200067 470500                    LDP0    REC$,,AUTO
        21 000761   000002 235100                    LDA     2,,PR0
        21 000762   000001 115007                    CMPA    1,DL
        21 000763   000770 605400 21                 TPNZ    s:17172
        21 000764   200023 471500                    LDP1    ST$,,AUTO
        21 000765   100000 220100                    LDX0    0,,PR1
        21 000766   000762 100003                    CMPX0   498,DU
        21 000767   001013 600000 21                 TZE     s:17193

      991    17158    4              OR ST$ -> ST.ID ~= %SWITCH THEN
      992    17159                %CONDITIONAL_ERROR (@LX_ITEM$ = REC$ -> LX_LIST.HEAD$,
      993    17160                                    @ERROR# = %E$MNEMONIC_NAME_EXPECTED,
      994    17161                                    @LINE = REC$ -> LX_LIST.HEAD$ -> LX_ETT_ITEM.LINE,
      995    17162                                    @COLUMN = REC$ -> LX_LIST.HEAD$ -> LX_ETT_ITEM.COLUMN);

  17172 21 000770   000004 471500                    LDP1    4,,PR0
        21 000771   100000 236100                    LDQ     0,,PR1
        21 000772   400000 316007                    CANQ    -131072,DL
PL6.E3A0      #002=Z8EX$SET_STATEMENT File=Z8EX.:Z8A6TSI                         SAT 08/09/97 12:58 Page:165
        21 000773   001024 601000 21                 TNZ     s:17195

  17174 21 000774   100006 633500                    EPPR3   6,,PR1
        21 000775   200104 453500                    STP3    @CONST$+4,,AUTO
        21 000776   100005 634500                    EPPR4   5,,PR1
        21 000777   200103 454500                    STP4    @CONST$+3,,AUTO
        21 001000   000022 236000 22                 LDQ     18
        21 001001   200102 756100                    STQ     @CONST$+2,,AUTO
        21 001002   200102 630500                    EPPR0   @CONST$+2,,AUTO
        21 001003   000020 631400 22                 EPPR1   16
        21 001004   000000 701000 xent               TSX1    Z8AE$ERROR
        21 001005   000000 011000                    NOP     0

  17183 21 001006   200067 470500                    LDP0    REC$,,AUTO
        21 001007   000004 471500                    LDP1    4,,PR0
        21 001010   400000 236007                    LDQ     -131072,DL
        21 001011   100000 256100                    ORSQ    0,,PR1

  17190 21 001012   001024 710000 21                 TRA     s:17195

      996    17192    4         ELSE
      997    17193    4           CALL SET_SWITCH_FROM_SWITCH (BINBIT(ST$ -> SWITCH.SWITCH#, 36),

  17193 21 001013   100003 236100                    LDQ     3,,PR1
        21 001014   777777 376007                    ANQ     -1,DL
        21 001015   200116 756100                    STQ     @CONST$+14,,AUTO
        21 001016   200030 633500                    EPPR3   SW#,,AUTO
        21 001017   200074 453500                    STP3    IDENT$+1,,AUTO
        21 001020   200116 634500                    EPPR4   @CONST$+14,,AUTO
        21 001021   200073 454500                    STP4    @STATEMENT_TYPE+1,,AUTO
        21 001022   001733 701000 21                 TSX1    SET_SWITCH_FROM_SWITCH
        21 001023   000000 011000                    NOP     0

      998    17194    4                                        SW#);
      999    17195    4         REC$ = REC$ -> LX_ITEM.LINK;

  17195 21 001024   200067 470500                    LDP0    REC$,,AUTO
PL6.E3A0      #002=Z8EX$SET_STATEMENT File=Z8EX.:Z8A6TSI                         SAT 08/09/97 12:58 Page:166
        21 001025   000007 236100                    LDQ     7,,PR0
        21 001026   200067 756100                    STQ     REC$,,AUTO

     1000    17196    4       END;

  17196 21 001027   000001 116000 22                 CMPQ    1
        21 001030   000731 601000 21                 TNZ     s:17143

     1001    17197
     1002    17198    3     END SET_TO_SWITCH ;

  17198 21 001031   200064 221300                    LDX1  ! ASS_VAR+8,,AUTO
        21 001032   000001 702211                    TSX2  ! 1,X1

     1003    17199
     1004    17200
     1005    17201    2     SET_SWITCH_TO: PROC (RECEIVE$, SEND$) ; /* SET SWITCH ... TO ___ */

  17201 21 001033   200064 741300       SET_SWITCH_* STX1  ! ASS_VAR+8,,AUTO

     1006    17202
     1007    17203    3     DCL  RECEIVE$  PTR ; /* LX_LIST of switches */
     1008    17204    3     DCL  SEND$     PTR ; /* LX_TERMINAL, LX_ETT_ITEM */
     1009    17205    3     DCL  REC$      PTR ;
     1010    17206    3     DCL  S$        PTR ;
     1011    17207
     1012    17208    3       REC$ = RECEIVE$ -> LX_LIST.HEAD$ ;

  17208 21 001034   200065 470500                    LDP0    @RECEIVE$,,AUTO
        21 001035   000000 471500                    LDP1    0,,PR0
        21 001036   100004 236100                    LDQ     4,,PR1
        21 001037   200067 756100                    STQ     REC$,,AUTO

     1013    17209    4       DO WHILE (REC$ ~= ADDR(NIL)) ;

  17209 21 001040   001327 710000 21                 TRA     s:18134

PL6.E3A0      #002=Z8EX$SET_STATEMENT File=Z8EX.:Z8A6TSI                         SAT 08/09/97 12:58 Page:167
     1014    17210
     1015    17211    5         IF REC$ -> LX_ITEM.ID = %LX_TERMINAL THEN DO ;

  17211 21 001041   200067 470500                    LDP0    REC$,,AUTO
        21 001042   000000 220100                    LDX0    0,,PR0
        21 001043   001256 601000 21                 TNZ     s:18065

     1016    17212
     1017    17213    5           CALL CHARBIN (SW#,

  17213 21 001044   000002 471500                    LDP1    2,,PR0
        21 001045   100004 221100                    LDX1    4,,PR1
        21 001046   777771 622011                    EAX2    -7,X1
        21 001047   000100 305540                    DTB
        21 001050   100006 230012                    NDSC9   6,,PR1                   cn=1,s=nosgn,sf=0,n=*X2
        21 001051   200030 000004                    NDSC9   SW#,,AUTO                cn=0,s=lsgnf,sf=0,n=4

     1018    17214    5                         SUBSTR (REC$ -> LX_TERMINAL.DNT$
     1019    17215    5                                            -> DNT.TEXT.NAME,
     1020    17216    5                                 7));
     1021    17217
     1022    17218    6           DO CASE(SEND$ -> LX_ITEM.ID);

  17218 21 001052   200066 471500                    LDP1    @SEND$,,AUTO
        21 001053   100000 473500                    LDP3    0,,PR1
        21 001054   300000 220100                    LDX0    0,,PR3
        21 001055   000005 100003                    CMPX0   5,DU
        21 001056   001060 602010 21                 TNC     s:17218+6,X0
        21 001057   001324 710000 21                 TRA     s:18133
        21 001060   001065 710000 21                 TRA     s:17222
        21 001061   001255 710000 21                 TRA     s:18063
        21 001062   001170 710000 21                 TRA     s:18008
        21 001063   001255 710000 21                 TRA     s:18063
        21 001064   001170 710000 21                 TRA     s:18008

     1023    17219
     1024    17220    6             CASE(%LX_TERMINAL);
PL6.E3A0      #002=Z8EX$SET_STATEMENT File=Z8EX.:Z8A6TSI                         SAT 08/09/97 12:58 Page:168

     1025    17221
     1026    17222    7               DO SELECT(SEND$ -> LX_TERMINAL.SYMBOL);

  17222 21 001065   300003 236100                    LDQ     3,,PR3
        21 001066   000475 116007                    CMPQ    317,DL
        21 001067   001074 604000 21                 TMI     s:17222+7
        21 001070   001077 600000 21                 TZE     s:17226
        21 001071   000675 116007                    CMPQ    445,DL
        21 001072   001324 601000 21                 TNZ     s:18133
        21 001073   001153 710000 21                 TRA     s:17996
        21 001074   000473 116007                    CMPQ    315,DL
        21 001075   001324 601000 21                 TNZ     s:18133
        21 001076   001125 710000 21                 TRA     s:17611

     1027    17223
     1028    17224    7                 SELECT(%RSV_WRD_ON);

     1029    17225
     1030    17226    7                   CALL CREATE_SWITCH_TRIAD (SW#, CONST$);

  17226 21 001077   200025 634500                    EPPR4   CONST$,,AUTO
        21 001100   200100 454500                    STP4    @SW#+1,,AUTO
        21 001101   200030 633500                    EPPR3   SW#,,AUTO
        21 001102   200077 453500                    STP3    R$+2,,AUTO
        21 001103   001333 701000 21                 TSX1    CREATE_SWITCH_TRIAD
        21 001104   000000 011000                    NOP     0

     1031    17227
     1032    17228                        %NEW_ILL (@ID = %ON_SWITCH,
     1033    17229                                  @LOP = CONST$);

  17553 21 001105   000007 236000 22                 LDQ     7
        21 001106   200102 756100                    STQ     @CONST$+2,,AUTO
        21 001107   200102 630500                    EPPR0   @CONST$+2,,AUTO
        21 001110   200107 450500                    STP0    @CONST$+7,,AUTO
        21 001111   000010 236000 22                 LDQ     8
PL6.E3A0      #002=Z8EX$SET_STATEMENT File=Z8EX.:Z8A6TSI                         SAT 08/09/97 12:58 Page:169
        21 001112   200106 756100                    STQ     @CONST$+6,,AUTO
        21 001113   000024 237000 22                 LDAQ    20
        21 001114   200104 757100                    STAQ    @CONST$+4,,AUTO
        21 001115   200104 630500                    EPPR0   @CONST$+4,,AUTO
        21 001116   000002 631400 22                 EPPR1   2
        21 001117   000000 701000 xent               TSX1    Z8AN$NEW_ILL
        21 001120   000000 011000                    NOP     0

  17559 21 001121   200025 236100                    LDQ     CONST$,,AUTO
        21 001122   000000 470400 16                 LDP0    ILL$
        21 001123   000001 756100                    STQ     1,,PR0

  17578 21 001124   001324 710000 21                 TRA     s:18133

     1034    17608
     1035    17609    7                 SELECT(%RSV_WRD_OFF);

     1036    17610
     1037    17611    7                   CALL CREATE_SWITCH_TRIAD (SW#, CONST$);

  17611 21 001125   200025 634500                    EPPR4   CONST$,,AUTO
        21 001126   200100 454500                    STP4    @SW#+1,,AUTO
        21 001127   200030 633500                    EPPR3   SW#,,AUTO
        21 001130   200077 453500                    STP3    R$+2,,AUTO
        21 001131   001333 701000 21                 TSX1    CREATE_SWITCH_TRIAD
        21 001132   000000 011000                    NOP     0

     1038    17612
     1039    17613                        %NEW_ILL (@ID = %OFF_SWITCH,
     1040    17614                                  @LOP = CONST$);

  17938 21 001133   000007 236000 22                 LDQ     7
        21 001134   200102 756100                    STQ     @CONST$+2,,AUTO
        21 001135   200102 630500                    EPPR0   @CONST$+2,,AUTO
        21 001136   200107 450500                    STP0    @CONST$+7,,AUTO
        21 001137   000010 236000 22                 LDQ     8
        21 001140   200106 756100                    STQ     @CONST$+6,,AUTO
PL6.E3A0      #002=Z8EX$SET_STATEMENT File=Z8EX.:Z8A6TSI                         SAT 08/09/97 12:58 Page:170
        21 001141   000030 237000 22                 LDAQ    24
        21 001142   200104 757100                    STAQ    @CONST$+4,,AUTO
        21 001143   200104 630500                    EPPR0   @CONST$+4,,AUTO
        21 001144   000002 631400 22                 EPPR1   2
        21 001145   000000 701000 xent               TSX1    Z8AN$NEW_ILL
        21 001146   000000 011000                    NOP     0

  17944 21 001147   200025 236100                    LDQ     CONST$,,AUTO
        21 001150   000000 470400 16                 LDP0    ILL$
        21 001151   000001 756100                    STQ     1,,PR0

  17963 21 001152   001324 710000 21                 TRA     s:18133

     1041    17993
     1042    17994    7                 SELECT(%RSV_WRD_SWITCH);

     1043    17995
     1044    17996    7                   CALL CHARBIN(SW2#,

  17996 21 001153   300002 474500                    LDP4    2,,PR3
        21 001154   400004 221100                    LDX1    4,,PR4
        21 001155   777771 622011                    EAX2    -7,X1
        21 001156   000100 305540                    DTB
        21 001157   400006 230012                    NDSC9   6,,PR4                   cn=1,s=nosgn,sf=0,n=*X2
        21 001160   200031 000004                    NDSC9   SW2#,,AUTO               cn=0,s=lsgnf,sf=0,n=4

     1045    17997    7                                SUBSTR(SEND$ -> LX_TERMINAL.DNT$
     1046    17998    7                                              -> DNT.TEXT.NAME,
     1047    17999    7                                       7));
     1048    18000
     1049    18001    7                   CALL SET_SWITCH_FROM_SWITCH (SW#,

  18001 21 001161   200031 633500                    EPPR3   SW2#,,AUTO
        21 001162   200074 453500                    STP3    IDENT$+1,,AUTO
        21 001163   200030 634500                    EPPR4   SW#,,AUTO
        21 001164   200073 454500                    STP4    @STATEMENT_TYPE+1,,AUTO
        21 001165   001733 701000 21                 TSX1    SET_SWITCH_FROM_SWITCH
PL6.E3A0      #002=Z8EX$SET_STATEMENT File=Z8EX.:Z8A6TSI                         SAT 08/09/97 12:58 Page:171
        21 001166   000000 011000                    NOP     0

     1050    18002    7                                                SW2#);
     1051    18003
     1052    18004    7               END;

  18004 21 001167   001324 710000 21                 TRA     s:18133

     1053    18005
     1054    18006    6             CASE(%LX_ETT_ITEM, %LX_LIST);

     1055    18007
     1056    18008    6               IF SEND$ -> LX_ITEM.ID = %LX_LIST THEN

  18008 21 001170   000002 100003                    CMPX0   2,DU
        21 001171   001175 601000 21                 TNZ     s:18011

     1057    18009    6                 S$ = SEND$ -> LX_LIST.HEAD$ ;

  18009 21 001172   300004 236100                    LDQ     4,,PR3
        21 001173   200070 756100                    STQ     S$,,AUTO
        21 001174   001177 710000 21                 TRA     s:18016

     1058    18010    6               ELSE
     1059    18011    6                 S$ = SEND$ ;

  18011 21 001175   100000 236100                    LDQ     0,,PR1
        21 001176   200070 756100                    STQ     S$,,AUTO

     1060    18012
     1061    18013                    %FISH (TRIAD = S$ -> LX_ETT_ITEM.ETT$,
     1062    18014                           RTN = ST$);

  18016 21 001177   200070 474500                    LDP4    S$,,AUTO
        21 001200   400001 236100                    LDQ     1,,PR4
        21 001201   200023 756100                    STQ     ST$,,AUTO

PL6.E3A0      #002=Z8EX$SET_STATEMENT File=Z8EX.:Z8A6TSI                         SAT 08/09/97 12:58 Page:172
  18017 21 001202   200023 475500                    LDP5    ST$,,AUTO
        21 001203   500000 221100                    LDX1    0,,PR5
        21 001204   000751 101003                    CMPX1   489,DU
        21 001205   001215 603000 21                 TRC     s:18023

  18018 21 001206   200023 470500                    LDP0    ST$,,AUTO
        21 001207   000001 236100                    LDQ     1,,PR0
        21 001210   200023 756100                    STQ     ST$,,AUTO

  18019 21 001211   200023 470500                    LDP0    ST$,,AUTO
        21 001212   000000 220100                    LDX0    0,,PR0
        21 001213   000751 100003                    CMPX0   489,DU
        21 001214   001206 602000 21                 TNC     s:18018

     1063    18022
     1064    18023    6               IF ST$ -> ST.ID = %SWITCH THEN

  18023 21 001215   200023 470500                    LDP0    ST$,,AUTO
        21 001216   000000 220100                    LDX0    0,,PR0
        21 001217   000762 100003                    CMPX0   498,DU
        21 001220   001233 601000 21                 TNZ     s:18040

     1065    18024    6                  CALL SET_SWITCH_FROM_SWITCH (SW#,

  18024 21 001221   000003 236100                    LDQ     3,,PR0
        21 001222   777777 376007                    ANQ     -1,DL
        21 001223   200120 756100                    STQ     @CONST$+16,,AUTO
        21 001224   200120 631500                    EPPR1   @CONST$+16,,AUTO
        21 001225   200074 451500                    STP1    IDENT$+1,,AUTO
        21 001226   200030 633500                    EPPR3   SW#,,AUTO
        21 001227   200073 453500                    STP3    @STATEMENT_TYPE+1,,AUTO
        21 001230   001733 701000 21                 TSX1    SET_SWITCH_FROM_SWITCH
        21 001231   000000 011000                    NOP     0
        21 001232   001324 710000 21                 TRA     s:18133

     1066    18025    6                           BINBIT(ST$ -> SWITCH.SWITCH#, 36));
     1067    18026    6               ELSE
PL6.E3A0      #002=Z8EX$SET_STATEMENT File=Z8EX.:Z8A6TSI                         SAT 08/09/97 12:58 Page:173
     1068    18027                      %CONDITIONAL_ERROR (@LX_ITEM$ = S$,
     1069    18028                                @ERROR# = %E$MNEMONIC_NAME_EXPECTED,
     1070    18029                                @LINE = S$ -> LX_ETT_ITEM.LINE,
     1071    18030                                @COLUMN = S$ -> LX_ETT_ITEM.COLUMN);

  18040 21 001233   200070 471500                    LDP1    S$,,AUTO
        21 001234   100000 236100                    LDQ     0,,PR1
        21 001235   400000 316007                    CANQ    -131072,DL
        21 001236   001324 601000 21                 TNZ     s:18133

  18042 21 001237   200070 236100                    LDQ     S$,,AUTO
        21 001240   000006 036003                    ADLQ    6,DU
        21 001241   200104 756100                    STQ     @CONST$+4,,AUTO
        21 001242   200070 236100                    LDQ     S$,,AUTO
        21 001243   000005 036003                    ADLQ    5,DU
        21 001244   000022 235000 22                 LDA     18
        21 001245   200102 757100                    STAQ    @CONST$+2,,AUTO
        21 001246   200102 630500                    EPPR0   @CONST$+2,,AUTO
        21 001247   000020 631400 22                 EPPR1   16
        21 001250   000000 701000 xent               TSX1    Z8AE$ERROR
        21 001251   000000 011000                    NOP     0

  18051 21 001252   200070 470500                    LDP0    S$,,AUTO
        21 001253   400000 236007                    LDQ     -131072,DL
        21 001254   000000 256100                    ORSQ    0,,PR0

     1072    18060
     1073    18061    6           END; /* Do case ID of TAIL of REC */

     1074    18062
     1075    18063    5         END ; /* REC$ is an LX_TERMINAL (SWITCH) */

  18063 21 001255   001324 710000 21                 TRA     s:18133

     1076    18064    4         ELSE
     1077    18065    4           IF REC$ -> LX_ITEM.ID = %LX_LIST THEN

PL6.E3A0      #002=Z8EX$SET_STATEMENT File=Z8EX.:Z8A6TSI                         SAT 08/09/97 12:58 Page:174
  18065 21 001256   000002 100003                    CMPX0   2,DU
        21 001257   001303 601000 21                 TNZ     s:18113

     1078    18066                  %CONDITIONAL_ERROR (@LX_ITEM$ = REC$ -> LX_LIST.HEAD$,
     1079    18067                            @ERROR# = %E$SWITCH_EXPECTED,
     1080    18068                            @LINE = REC$ -> LX_LIST.HEAD$ -> LX_ETT_ITEM.LINE,
     1081    18069                            @COLUMN = REC$ -> LX_LIST.HEAD$ -> LX_ETT_ITEM.COLUMN);

  18079 21 001260   000004 471500                    LDP1    4,,PR0
        21 001261   100000 236100                    LDQ     0,,PR1
        21 001262   400000 316007                    CANQ    -131072,DL
        21 001263   001324 601000 21                 TNZ     s:18133

  18081 21 001264   100006 633500                    EPPR3   6,,PR1
        21 001265   200104 453500                    STP3    @CONST$+4,,AUTO
        21 001266   100005 634500                    EPPR4   5,,PR1
        21 001267   200103 454500                    STP4    @CONST$+3,,AUTO
        21 001270   000034 236000 22                 LDQ     28
        21 001271   200102 756100                    STQ     @CONST$+2,,AUTO
        21 001272   200102 630500                    EPPR0   @CONST$+2,,AUTO
        21 001273   000020 631400 22                 EPPR1   16
        21 001274   000000 701000 xent               TSX1    Z8AE$ERROR
        21 001275   000000 011000                    NOP     0

  18090 21 001276   200067 470500                    LDP0    REC$,,AUTO
        21 001277   000004 471500                    LDP1    4,,PR0
        21 001300   400000 236007                    LDQ     -131072,DL
        21 001301   100000 256100                    ORSQ    0,,PR1

  18097 21 001302   001324 710000 21                 TRA     s:18133

     1082    18099    4           ELSE
     1083    18100                  %CONDITIONAL_ERROR (@LX_ITEM$ = REC$,
     1084    18101                            @ERROR# = %E$SWITCH_EXPECTED,
     1085    18102                            @LINE = REC$ -> LX_ETT_ITEM.LINE,
     1086    18103                            @COLUMN = REC$ -> LX_ETT_ITEM.COLUMN);

PL6.E3A0      #002=Z8EX$SET_STATEMENT File=Z8EX.:Z8A6TSI                         SAT 08/09/97 12:58 Page:175
  18113 21 001303   000000 236100                    LDQ     0,,PR0
        21 001304   400000 316007                    CANQ    -131072,DL
        21 001305   001324 601000 21                 TNZ     s:18133

  18115 21 001306   200067 236100                    LDQ     REC$,,AUTO
        21 001307   000006 036003                    ADLQ    6,DU
        21 001310   200104 756100                    STQ     @CONST$+4,,AUTO
        21 001311   200067 236100                    LDQ     REC$,,AUTO
        21 001312   000005 036003                    ADLQ    5,DU
        21 001313   000034 235000 22                 LDA     28
        21 001314   200102 757100                    STAQ    @CONST$+2,,AUTO
        21 001315   200102 630500                    EPPR0   @CONST$+2,,AUTO
        21 001316   000020 631400 22                 EPPR1   16
        21 001317   000000 701000 xent               TSX1    Z8AE$ERROR
        21 001320   000000 011000                    NOP     0

  18124 21 001321   200067 470500                    LDP0    REC$,,AUTO
        21 001322   400000 236007                    LDQ     -131072,DL
        21 001323   000000 256100                    ORSQ    0,,PR0

     1087    18133    4         REC$ = REC$ -> LX_ITEM.LINK ;

  18133 21 001324   200067 470500                    LDP0    REC$,,AUTO
        21 001325   000007 236100                    LDQ     7,,PR0
        21 001326   200067 756100                    STQ     REC$,,AUTO

     1088    18134    4       END ; /* Do while on REC$ */

  18134 21 001327   000001 116000 22                 CMPQ    1
        21 001330   001041 601000 21                 TNZ     s:17211

     1089    18135
     1090    18136    3     END SET_SWITCH_TO ;

  18136 21 001331   200064 221300                    LDX1  ! ASS_VAR+8,,AUTO
        21 001332   000001 702211                    TSX2  ! 1,X1

PL6.E3A0      #002=Z8EX$SET_STATEMENT File=Z8EX.:Z8A6TSI                         SAT 08/09/97 12:58 Page:176
     1091    18137
     1092    18138
     1093    18139    2     CREATE_SWITCH_TRIAD : PROC (SW#, CONST$);

  18139 21 001333   200076 741300       CREATE_SWIT* STX1  ! R$+1,,AUTO

     1094    18140
     1095    18141    3       DCL SW# SBIN WORD;
     1096    18142    3       DCL CONST$ PTR;
     1097    18143
     1098    18144    3       DCL 1 SW_VALUE (0:35) CONSTANT BIT(36)
     1099    18145    3              INIT ('100000000000000000000000000000000000'B,
     1100    18146    3                    '010000000000000000000000000000000000'B,
     1101    18147    3                    '001000000000000000000000000000000000'B,
     1102    18148    3                    '000100000000000000000000000000000000'B,
     1103    18149    3                    '000010000000000000000000000000000000'B,
     1104    18150    3                    '000001000000000000000000000000000000'B,
     1105    18151    3                    '000000100000000000000000000000000000'B,
     1106    18152    3                    '000000010000000000000000000000000000'B,
     1107    18153    3                    '000000001000000000000000000000000000'B,
     1108    18154    3                    '000000000100000000000000000000000000'B,
     1109    18155    3                    '000000000010000000000000000000000000'B,
     1110    18156    3                    '000000000001000000000000000000000000'B,
     1111    18157    3                    '000000000000100000000000000000000000'B,
     1112    18158    3                    '000000000000010000000000000000000000'B,
     1113    18159    3                    '000000000000001000000000000000000000'B,
     1114    18160    3                    '000000000000000100000000000000000000'B,
     1115    18161    3                    '000000000000000010000000000000000000'B,
     1116    18162    3                    '000000000000000001000000000000000000'B,
     1117    18163    3                    '000000000000000000100000000000000000'B,
     1118    18164    3                    '000000000000000000010000000000000000'B,
     1119    18165    3                    '000000000000000000001000000000000000'B,
     1120    18166    3                    '000000000000000000000100000000000000'B,
     1121    18167    3                    '000000000000000000000010000000000000'B,
     1122    18168    3                    '000000000000000000000001000000000000'B,
     1123    18169    3                    '000000000000000000000000100000000000'B,
     1124    18170    3                    '000000000000000000000000010000000000'B,
PL6.E3A0      #002=Z8EX$SET_STATEMENT File=Z8EX.:Z8A6TSI                         SAT 08/09/97 12:58 Page:177
     1125    18171    3                    '000000000000000000000000001000000000'B,
     1126    18172    3                    '000000000000000000000000000100000000'B,
     1127    18173    3                    '000000000000000000000000000010000000'B,
     1128    18174    3                    '000000000000000000000000000001000000'B,
     1129    18175    3                    '000000000000000000000000000000100000'B,
     1130    18176    3                    '000000000000000000000000000000010000'B,
     1131    18177    3                    '000000000000000000000000000000001000'B,
     1132    18178    3                    '000000000000000000000000000000000100'B,
     1133    18179    3                    '000000000000000000000000000000000010'B,
     1134    18180    3                    '000000000000000000000000000000000001'B);
     1135    18181
     1136    18182    3       MKCN.CON = BITBIN(SW_VALUE(SW#));

  18182 21 001334   200077 470500                    LDP0    @SW#,,AUTO
        21 001335   000000 720100                    LXL0    0,,PR0
        21 001336   000000 235010 20                 LDA     SW_VALUE,X0
        21 001337   000000 755000 5                  STA     MKCN

     1137    18183    3       CALL Z8AC$MAKE_CONST (CONST$);

  18183 21 001340   200100 630500                    EPPR0   @CONST$,,AUTO
        21 001341   000000 631400 22                 EPPR1   0
        21 001342   000000 701000 xent               TSX1    Z8AC$MAKE_CONST
        21 001343   000000 011000                    NOP     0

     1138    18184
     1139    18185    3     END CREATE_SWITCH_TRIAD;

  18185 21 001344   200076 221300                    LDX1  ! R$+1,,AUTO
        21 001345   000001 702211                    TSX2  ! 1,X1

     1140    18186
     1141    18187    2     CHECK_FOR_DML_SET: PROC ALTRET ;

  18187 21 001346   200064 741300       CHECK_FOR_D* STX1  ! ASS_VAR+8,,AUTO

     1142    18188
PL6.E3A0      #002=Z8EX$SET_STATEMENT File=Z8EX.:Z8A6TSI                         SAT 08/09/97 12:58 Page:178
     1143    18189    3       P3$ = REC$ -> LX_LIST.HEAD$ -> LX_LIST.HEAD$;

  18189 21 001347   200021 470500                    LDP0    REC$,,AUTO
        21 001350   000004 471500                    LDP1    4,,PR0
        21 001351   100004 236100                    LDQ     4,,PR1
        21 001352   200014 756100                    STQ     P3$,,AUTO

     1144    18190    3       P4$ = REC$ -> LX_LIST.TAIL$ ; /* Sending field */

  18190 21 001353   000001 236100                    LDQ     1,,PR0
        21 001354   200015 756100                    STQ     P4$,,AUTO

     1145    18191
     1146    18192    3       IF P4$-> LX_ITEM.ID = %LX_TERMINAL      THEN

  18192 21 001355   200015 473500                    LDP3    P4$,,AUTO
        21 001356   300000 220100                    LDX0    0,,PR3
        21 001357   001361 601000 21                 TNZ     s:18199

     1147    18193    3           RETURN ; /* Not a DML SET */

  18193 21 001360   000001 702211                    TSX2  ! 1,X1

     1148    18194    3       ELSE
     1149    18195    4         DO;

     1150    18196
     1151    18197                %FISH(TRIAD = P3$ -> LX_LIST.HEAD$ -> LX_ETT_ITEM.ETT$, RTN = P1$);

  18199 21 001361   200014 474500                    LDP4    P3$,,AUTO
        21 001362   400004 475500                    LDP5    4,,PR4
        21 001363   500001 236100                    LDQ     1,,PR5
        21 001364   200012 756100                    STQ     P1$,,AUTO

  18200 21 001365   200012 476500                    LDP6    P1$,,AUTO
        21 001366   600000 222100                    LDX2    0,,PR6
        21 001367   000751 102003                    CMPX2   489,DU
PL6.E3A0      #002=Z8EX$SET_STATEMENT File=Z8EX.:Z8A6TSI                         SAT 08/09/97 12:58 Page:179
        21 001370   001400 603000 21                 TRC     s:18207

  18201 21 001371   200012 470500                    LDP0    P1$,,AUTO
        21 001372   000001 236100                    LDQ     1,,PR0
        21 001373   200012 756100                    STQ     P1$,,AUTO

  18202 21 001374   200012 470500                    LDP0    P1$,,AUTO
        21 001375   000000 220100                    LDX0    0,,PR0
        21 001376   000751 100003                    CMPX0   489,DU
        21 001377   001371 602000 21                 TNC     s:18201

     1152    18205                %FISH(TRIAD = P4$ -> LX_LIST.HEAD$ -> LX_ETT_ITEM.ETT$, RTN = P2$);

  18207 21 001400   200015 470500                    LDP0    P4$,,AUTO
        21 001401   000004 471500                    LDP1    4,,PR0
        21 001402   100001 236100                    LDQ     1,,PR1
        21 001403   200013 756100                    STQ     P2$,,AUTO

  18208 21 001404   200013 473500                    LDP3    P2$,,AUTO
        21 001405   300000 220100                    LDX0    0,,PR3
        21 001406   000751 100003                    CMPX0   489,DU
        21 001407   001417 603000 21                 TRC     s:18213

  18209 21 001410   200013 470500                    LDP0    P2$,,AUTO
        21 001411   000001 236100                    LDQ     1,,PR0
        21 001412   200013 756100                    STQ     P2$,,AUTO

  18210 21 001413   200013 470500                    LDP0    P2$,,AUTO
        21 001414   000000 220100                    LDX0    0,,PR0
        21 001415   000751 100003                    CMPX0   489,DU
        21 001416   001410 602000 21                 TNC     s:18209

     1153    18213    4           IF (P1$ -> VARIABLE.B.DML_TYPE = %DATA_BASE_KEY)   OR

  18213 21 001417   200012 470500                    LDP0    P1$,,AUTO
        21 001420   000003 236100                    LDQ     3,,PR0
        21 001421   160000 376007                    ANQ     57344,DL
PL6.E3A0      #002=Z8EX$SET_STATEMENT File=Z8EX.:Z8A6TSI                         SAT 08/09/97 12:58 Page:180
        21 001422   040000 116007                    CMPQ    16384,DL
        21 001423   001443 600000 21                 TZE     s:18225
        21 001424   120000 116007                    CMPQ    40960,DL
        21 001425   001443 600000 21                 TZE     s:18225
        21 001426   200013 471500                    LDP1    P2$,,AUTO
        21 001427   100003 236100                    LDQ     3,,PR1
        21 001430   160000 376007                    ANQ     57344,DL
        21 001431   120000 116007                    CMPQ    40960,DL
        21 001432   001435 600000 21                 TZE     s:18213+14
        21 001433   040000 116007                    CMPQ    16384,DL
        21 001434   001516 601000 21                 TNZ     s:18237
        21 001435   200015 473500                    LDP3    P4$,,AUTO
        21 001436   300004 474500                    LDP4    4,,PR3
        21 001437   400001 475500                    LDP5    1,,PR4
        21 001440   500000 220100                    LDX0    0,,PR5
        21 001441   000175 100003                    CMPX0   125,DU
        21 001442   001516 600000 21                 TZE     s:18237

     1154    18214    4                (P1$ -> VARIABLE.B.DML_TYPE = %DIRECT_REFERENCE)  OR
     1155    18215    4                   ((P2$ -> VARIABLE.B.DML_TYPE = %DIRECT_REFERENCE)  OR
     1156    18216    4                       (P2$ -> VARIABLE.B.DML_TYPE = %DATA_BASE_KEY)) AND
     1157    18217    4                          (P4$ -> LX_LIST.HEAD$ -> LX_ETT_ITEM.ETT$ -> ETT.ID ~= %ADDR
             18217                                    ) THEN
     1158    18218
     1159    18219                /*    A DML SET statment is treated as a MOVE.           */
     1160    18220
     1161    18221    5             DO;

     1162    18222
     1163    18223                 /*  Check for a subscript on the sending item and take care of it here. */
     1164    18224                    /*   Other items will be checked in MOVE.        */
     1165    18225    5               IF P4$ -> LX_LIST.HEAD$ ~= P4$ -> LX_LIST.TAIL$   THEN

  18225 21 001443   200015 471500                    LDP1    P4$,,AUTO
        21 001444   100004 236100                    LDQ     4,,PR1
        21 001445   100001 116100                    CMPQ    1,,PR1
        21 001446   001461 600000 21                 TZE     s:18228
PL6.E3A0      #002=Z8EX$SET_STATEMENT File=Z8EX.:Z8A6TSI                         SAT 08/09/97 12:58 Page:181

     1166    18226    5                 CALL Z8EY$SUBSCRIPT(P4$ -> LX_LIST.TAIL$,

  18226 21 001447   200015 236100                    LDQ     P4$,,AUTO
        21 001450   000004 036003                    ADLQ    4,DU
        21 001451   200103 756100                    STQ     @CONST$+3,,AUTO
        21 001452   200015 236100                    LDQ     P4$,,AUTO
        21 001453   000001 036003                    ADLQ    1,DU
        21 001454   200102 756100                    STQ     @CONST$+2,,AUTO
        21 001455   200102 630500                    EPPR0   @CONST$+2,,AUTO
        21 001456   000014 631400 22                 EPPR1   12
        21 001457   000000 701000 xent               TSX1    Z8EY$SUBSCRIPT
        21 001460   000000 011000                    NOP     0

     1167    18227    5                                     P4$ -> LX_LIST.HEAD$);
     1168    18228    5               CALL MOVE_STATEMENT( KEY_WORD$,

  18228 21 001461   000036 236000 22                 LDQ     30
        21 001462   200072 756100                    STQ     @REC$+1,,AUTO
        21 001463   200021 236100                    LDQ     REC$,,AUTO
        21 001464   000004 036003                    ADLQ    4,DU
        21 001465   200071 756100                    STQ     @SEND$+1,,AUTO
        21 001466   200015 236100                    LDQ     P4$,,AUTO
        21 001467   000004 036003                    ADLQ    4,DU
        21 001470   200070 756100                    STQ     S$,,AUTO
        21 001471   200003 236100                    LDQ     @KEY_WORD$,,AUTO
        21 001472   200067 756100                    STQ     REC$,,AUTO
        21 001473   002707 701000 21                 TSX1    MOVE_STATEMENT
        21 001474   000000 011000                    NOP     0

     1169    18229    5                                    P4$ -> LX_LIST.HEAD$,
     1170    18230    5                                    REC$ -> LX_LIST.HEAD$,
     1171    18231    5                                    %S_TYPE_DML_SET);
     1172    18232    5               CALL Z8ED$DISPOSE_ABSSYN_TREE(REC$ -> LX_LIST.HEAD$ -> LX_LIST.HEAD$);

  18232 21 001475   200021 470500                    LDP0    REC$,,AUTO
        21 001476   000004 471500                    LDP1    4,,PR0
PL6.E3A0      #002=Z8EX$SET_STATEMENT File=Z8EX.:Z8A6TSI                         SAT 08/09/97 12:58 Page:182
        21 001477   100004 633500                    EPPR3   4,,PR1
        21 001500   200102 453500                    STP3    @CONST$+2,,AUTO
        21 001501   200102 630500                    EPPR0   @CONST$+2,,AUTO
        21 001502   000000 631400 22                 EPPR1   0
        21 001503   000000 701000 xent               TSX1    Z8ED$DISPOSE_ABSSYN_TREE
        21 001504   000000 011000                    NOP     0

     1173    18233    5               CALL Z8ED$DISPOSE_ABSSYN_TREE(P4$ -> LX_LIST.HEAD$);

  18233 21 001505   200015 236100                    LDQ     P4$,,AUTO
        21 001506   000004 036003                    ADLQ    4,DU
        21 001507   200102 756100                    STQ     @CONST$+2,,AUTO
        21 001510   200102 630500                    EPPR0   @CONST$+2,,AUTO
        21 001511   000000 631400 22                 EPPR1   0
        21 001512   000000 701000 xent               TSX1    Z8ED$DISPOSE_ABSSYN_TREE
        21 001513   000000 011000                    NOP     0

     1174    18234    5               ALTRETURN ;

  18234 21 001514   200064 221300                    LDX1  ! ASS_VAR+8,,AUTO
        21 001515   000000 702211                    TSX2  ! 0,X1

     1175    18235    5             END;
     1176    18236    4           ELSE
     1177    18237    4               RETURN ; /* Not a DML SET */

  18237 21 001516   200064 221300                    LDX1  ! ASS_VAR+8,,AUTO
        21 001517   000001 702211                    TSX2  ! 1,X1

     1178    18238    4       END;
     1179    18239
     1180    18240    3     END CHECK_FOR_DML_SET ;
     1181    18241
     1182    18242
     1183    18243    2     SET_ON_OR_OFF: PROC (RECEIVE$, ON_OR_OFF) ;

  18243 21 001520   200064 741300       SET_ON_OR_O* STX1  ! ASS_VAR+8,,AUTO
PL6.E3A0      #002=Z8EX$SET_STATEMENT File=Z8EX.:Z8A6TSI                         SAT 08/09/97 12:58 Page:183

     1184    18244
     1185    18245    3     DCL  RECEIVE$  PTR ;  /* mnemonic-name or SWITCH-nn */
     1186    18246    3     DCL  ON_OR_OFF SBIN ; /* %ON_SWITCH or %OFF_SWITCH   */
     1187    18247
     1188    18248    4       IF RECEIVE$ -> LX_ITEM.ID = %LX_TERMINAL THEN DO ;

  18248 21 001521   200065 470500                    LDP0    @RECEIVE$,,AUTO
        21 001522   000000 471500                    LDP1    0,,PR0
        21 001523   100000 220100                    LDX0    0,,PR1
        21 001524   001605 601000 21                 TNZ     s:19024

     1189    18249
     1190    18250              /* SET SWITCH-nn TO ON (or OFF) */
     1191    18251
     1192    18252    4         CALL CHARBIN (SW#, SUBSTR (RECEIVE$ -> LX_TERMINAL.DNT$ -> DNT.TEXT.NAME, 7))
             18252                  ;

  18252 21 001525   100002 473500                    LDP3    2,,PR1
        21 001526   300004 222100                    LDX2    4,,PR3
        21 001527   777771 623012                    EAX3    -7,X2
        21 001530   000100 305540                    DTB
        21 001531   300006 230013                    NDSC9   6,,PR3                   cn=1,s=nosgn,sf=0,n=*X3
        21 001532   200030 000004                    NDSC9   SW#,,AUTO                cn=0,s=lsgnf,sf=0,n=4

     1193    18253    4         CALL CREATE_SWITCH_TRIAD (SW#, CONST$) ;

  18253 21 001533   200025 631500                    EPPR1   CONST$,,AUTO
        21 001534   200100 451500                    STP1    @CONST$,,AUTO
        21 001535   200030 633500                    EPPR3   SW#,,AUTO
        21 001536   200077 453500                    STP3    @SW#,,AUTO
        21 001537   001333 701000 21                 TSX1    CREATE_SWITCH_TRIAD
        21 001540   000000 011000                    NOP     0

     1194    18254    4         IF ON_OR_OFF = %ON_SWITCH THEN

  18254 21 001541   200066 470500                    LDP0    @ON_OR_OFF,,AUTO
PL6.E3A0      #002=Z8EX$SET_STATEMENT File=Z8EX.:Z8A6TSI                         SAT 08/09/97 12:58 Page:184
        21 001542   000000 235100                    LDA     0,,PR0
        21 001543   000354 115007                    CMPA    236,DL
        21 001544   001565 601000 21                 TNZ     s:18959

     1195    18255                %NEW_ILL (@ID = %ON_SWITCH, @LOP = CONST$) ;

  18579 21 001545   000007 236000 22                 LDQ     7
        21 001546   200102 756100                    STQ     @CONST$+2,,AUTO
        21 001547   200102 631500                    EPPR1   @CONST$+2,,AUTO
        21 001550   200107 451500                    STP1    @CONST$+7,,AUTO
        21 001551   000010 236000 22                 LDQ     8
        21 001552   200106 756100                    STQ     @CONST$+6,,AUTO
        21 001553   000024 237000 22                 LDAQ    20
        21 001554   200104 757100                    STAQ    @CONST$+4,,AUTO
        21 001555   200104 630500                    EPPR0   @CONST$+4,,AUTO
        21 001556   000002 631400 22                 EPPR1   2
        21 001557   000000 701000 xent               TSX1    Z8AN$NEW_ILL
        21 001560   000000 011000                    NOP     0

  18585 21 001561   200025 236100                    LDQ     CONST$,,AUTO
        21 001562   000000 470400 16                 LDP0    ILL$
        21 001563   000001 756100                    STQ     1,,PR0

  18604 21 001564   001731 710000 21                 TRA     s:19834

     1196    18634    4         ELSE
     1197    18635                %NEW_ILL (@ID = %OFF_SWITCH, @LOP = CONST$) ;

  18959 21 001565   000007 236000 22                 LDQ     7
        21 001566   200102 756100                    STQ     @CONST$+2,,AUTO
        21 001567   200102 631500                    EPPR1   @CONST$+2,,AUTO
        21 001570   200107 451500                    STP1    @CONST$+7,,AUTO
        21 001571   000010 236000 22                 LDQ     8
        21 001572   200106 756100                    STQ     @CONST$+6,,AUTO
        21 001573   000030 237000 22                 LDAQ    24
        21 001574   200104 757100                    STAQ    @CONST$+4,,AUTO
        21 001575   200104 630500                    EPPR0   @CONST$+4,,AUTO
PL6.E3A0      #002=Z8EX$SET_STATEMENT File=Z8EX.:Z8A6TSI                         SAT 08/09/97 12:58 Page:185
        21 001576   000002 631400 22                 EPPR1   2
        21 001577   000000 701000 xent               TSX1    Z8AN$NEW_ILL
        21 001600   000000 011000                    NOP     0

  18965 21 001601   200025 236100                    LDQ     CONST$,,AUTO
        21 001602   000000 470400 16                 LDP0    ILL$
        21 001603   000001 756100                    STQ     1,,PR0

     1198    19014
     1199    19015    4       END ; /* Receiving guy is a SWITCH */

  19015 21 001604   001731 710000 21                 TRA     s:19834

     1200    19016
     1201    19017    4       ELSE DO ; /* It ain't no SWITCH */

     1202    19018
     1203    19019              /* SET mnemonic-name TO ON (or OFF) */
     1204    19020
     1205    19021              %FISH (TRIAD = RECEIVE$ -> LX_LIST.HEAD$ -> LX_ETT_ITEM.ETT$,
     1206    19022                     RTN = ST$);

  19024 21 001605   100004 473500                    LDP3    4,,PR1
        21 001606   300001 236100                    LDQ     1,,PR3
        21 001607   200023 756100                    STQ     ST$,,AUTO

  19025 21 001610   200023 474500                    LDP4    ST$,,AUTO
        21 001611   400000 222100                    LDX2    0,,PR4
        21 001612   000751 102003                    CMPX2   489,DU
        21 001613   001623 603000 21                 TRC     s:19031

  19026 21 001614   200023 470500                    LDP0    ST$,,AUTO
        21 001615   000001 236100                    LDQ     1,,PR0
        21 001616   200023 756100                    STQ     ST$,,AUTO

  19027 21 001617   200023 470500                    LDP0    ST$,,AUTO
        21 001620   000000 220100                    LDX0    0,,PR0
PL6.E3A0      #002=Z8EX$SET_STATEMENT File=Z8EX.:Z8A6TSI                         SAT 08/09/97 12:58 Page:186
        21 001621   000751 100003                    CMPX0   489,DU
        21 001622   001614 602000 21                 TNC     s:19026

     1207    19030
     1208    19031    4         IF ST$ -> ST.ID = %SWITCH THEN

  19031 21 001623   200023 470500                    LDP0    ST$,,AUTO
        21 001624   000000 220100                    LDX0    0,,PR0
        21 001625   000762 100003                    CMPX0   498,DU
        21 001626   001704 601000 21                 TNZ     s:19811

     1209    19032    5           DO;

     1210    19033    5             CALL CREATE_SWITCH_TRIAD (BINBIT(ST$ -> SWITCH.SWITCH#, 36),

  19033 21 001627   000003 236100                    LDQ     3,,PR0
        21 001630   777777 376007                    ANQ     -1,DL
        21 001631   200122 756100                    STQ     @CONST$+18,,AUTO
        21 001632   200025 631500                    EPPR1   CONST$,,AUTO
        21 001633   200100 451500                    STP1    @CONST$,,AUTO
        21 001634   200122 633500                    EPPR3   @CONST$+18,,AUTO
        21 001635   200077 453500                    STP3    @SW#,,AUTO
        21 001636   001333 701000 21                 TSX1    CREATE_SWITCH_TRIAD
        21 001637   000000 011000                    NOP     0

     1211    19034    5                                       CONST$);
     1212    19035
     1213    19036    5             IF ON_OR_OFF = %ON_SWITCH THEN

  19036 21 001640   200066 470500                    LDP0    @ON_OR_OFF,,AUTO
        21 001641   000000 235100                    LDA     0,,PR0
        21 001642   000354 115007                    CMPA    236,DL
        21 001643   001664 601000 21                 TNZ     s:19741

     1214    19037                    %NEW_ILL (@ID = %ON_SWITCH, @LOP = CONST$) ;

  19361 21 001644   000007 236000 22                 LDQ     7
PL6.E3A0      #002=Z8EX$SET_STATEMENT File=Z8EX.:Z8A6TSI                         SAT 08/09/97 12:58 Page:187
        21 001645   200102 756100                    STQ     @CONST$+2,,AUTO
        21 001646   200102 631500                    EPPR1   @CONST$+2,,AUTO
        21 001647   200107 451500                    STP1    @CONST$+7,,AUTO
        21 001650   000010 236000 22                 LDQ     8
        21 001651   200106 756100                    STQ     @CONST$+6,,AUTO
        21 001652   000024 237000 22                 LDAQ    20
        21 001653   200104 757100                    STAQ    @CONST$+4,,AUTO
        21 001654   200104 630500                    EPPR0   @CONST$+4,,AUTO
        21 001655   000002 631400 22                 EPPR1   2
        21 001656   000000 701000 xent               TSX1    Z8AN$NEW_ILL
        21 001657   000000 011000                    NOP     0

  19367 21 001660   200025 236100                    LDQ     CONST$,,AUTO
        21 001661   000000 470400 16                 LDP0    ILL$
        21 001662   000001 756100                    STQ     1,,PR0

  19386 21 001663   001731 710000 21                 TRA     s:19834

     1215    19416    5             ELSE
     1216    19417                    %NEW_ILL (@ID = %OFF_SWITCH, @LOP = CONST$) ;

  19741 21 001664   000007 236000 22                 LDQ     7
        21 001665   200102 756100                    STQ     @CONST$+2,,AUTO
        21 001666   200102 631500                    EPPR1   @CONST$+2,,AUTO
        21 001667   200107 451500                    STP1    @CONST$+7,,AUTO
        21 001670   000010 236000 22                 LDQ     8
        21 001671   200106 756100                    STQ     @CONST$+6,,AUTO
        21 001672   000030 237000 22                 LDAQ    24
        21 001673   200104 757100                    STAQ    @CONST$+4,,AUTO
        21 001674   200104 630500                    EPPR0   @CONST$+4,,AUTO
        21 001675   000002 631400 22                 EPPR1   2
        21 001676   000000 701000 xent               TSX1    Z8AN$NEW_ILL
        21 001677   000000 011000                    NOP     0

  19747 21 001700   200025 236100                    LDQ     CONST$,,AUTO
        21 001701   000000 470400 16                 LDP0    ILL$
        21 001702   000001 756100                    STQ     1,,PR0
PL6.E3A0      #002=Z8EX$SET_STATEMENT File=Z8EX.:Z8A6TSI                         SAT 08/09/97 12:58 Page:188

     1217    19796    5           END;

  19796 21 001703   001731 710000 21                 TRA     s:19834

     1218    19797    4         ELSE
     1219    19798                %CONDITIONAL_ERROR (@LX_ITEM$ = RECEIVE$ -> LX_LIST.HEAD$,
     1220    19799                                    @ERROR# = %E$MNEMONIC_NAME_EXPECTED,
     1221    19800                                    @LINE = RECEIVE$ -> LX_LIST.HEAD$ -> LX_ETT_ITEM.LINE,
     1222    19801                                    @COLUMN =
             19801                                        RECEIVE$ -> LX_LIST.HEAD$ -> LX_ETT_ITEM.COLUMN);

  19811 21 001704   200065 471500                    LDP1    @RECEIVE$,,AUTO
        21 001705   100000 473500                    LDP3    0,,PR1
        21 001706   300004 474500                    LDP4    4,,PR3
        21 001707   400000 236100                    LDQ     0,,PR4
        21 001710   400000 316007                    CANQ    -131072,DL
        21 001711   001731 601000 21                 TNZ     s:19834

  19813 21 001712   400006 635500                    EPPR5   6,,PR4
        21 001713   200104 455500                    STP5    @CONST$+4,,AUTO
        21 001714   400005 633500                    EPPR3   5,,PR4
        21 001715   200103 453500                    STP3    @CONST$+3,,AUTO
        21 001716   000022 236000 22                 LDQ     18
        21 001717   200102 756100                    STQ     @CONST$+2,,AUTO
        21 001720   200102 630500                    EPPR0   @CONST$+2,,AUTO
        21 001721   000020 631400 22                 EPPR1   16
        21 001722   000000 701000 xent               TSX1    Z8AE$ERROR
        21 001723   000000 011000                    NOP     0

  19822 21 001724   200065 470500                    LDP0    @RECEIVE$,,AUTO
        21 001725   000000 471500                    LDP1    0,,PR0
        21 001726   100004 473500                    LDP3    4,,PR1
        21 001727   400000 236007                    LDQ     -131072,DL
        21 001730   300000 256100                    ORSQ    0,,PR3

     1223    19831
PL6.E3A0      #002=Z8EX$SET_STATEMENT File=Z8EX.:Z8A6TSI                         SAT 08/09/97 12:58 Page:189
     1224    19832    4       END ; /* Receiving guy is a mnemonic-name */

     1225    19833
     1226    19834    3     END SET_ON_OR_OFF ;

  19834 21 001731   200064 221300                    LDX1  ! ASS_VAR+8,,AUTO
        21 001732   000001 702211                    TSX2  ! 1,X1

     1227    19835
     1228    19836
     1229    19837    2     SET_SWITCH_FROM_SWITCH : PROC (REC_SW#,

  19837 21 001733   200072 741300       SET_SWITCH_* STX1  ! @REC$+1,,AUTO

     1230    19838    2                                    SEND_SW#);
     1231    19839
     1232    19840    3       DCL REC_SW# SBIN WORD;
     1233    19841    3       DCL SEND_SW# SBIN WORD;
     1234    19842
     1235    19843    3       CALL Z8AT$CREATE_TEMPORARY (%PARA,

  19843 21 001734   200026 630500                    EPPR0   END_LABEL$,,AUTO
        21 001735   200103 450500                    STP0    @CONST$+3,,AUTO
        21 001736   000040 236000 22                 LDQ     32
        21 001737   200102 756100                    STQ     @CONST$+2,,AUTO
        21 001740   200102 630500                    EPPR0   @CONST$+2,,AUTO
        21 001741   000014 631400 22                 EPPR1   12
        21 001742   000000 701000 xent               TSX1    Z8AT$CREATE_TEMPORARY
        21 001743   000000 011000                    NOP     0

     1236    19844    3                                   END_LABEL$);
     1237    19845    3       CALL Z8AT$CREATE_TEMPORARY (%PARA,

  19845 21 001744   200027 630500                    EPPR0   OFF_SW_LABEL$,,AUTO
        21 001745   200103 450500                    STP0    @CONST$+3,,AUTO
        21 001746   000040 236000 22                 LDQ     32
        21 001747   200102 756100                    STQ     @CONST$+2,,AUTO
PL6.E3A0      #002=Z8EX$SET_STATEMENT File=Z8EX.:Z8A6TSI                         SAT 08/09/97 12:58 Page:190
        21 001750   200102 630500                    EPPR0   @CONST$+2,,AUTO
        21 001751   000014 631400 22                 EPPR1   12
        21 001752   000000 701000 xent               TSX1    Z8AT$CREATE_TEMPORARY
        21 001753   000000 011000                    NOP     0

     1238    19846    3                                   OFF_SW_LABEL$);
     1239    19847
     1240    19848            %INIT_UNARY_OP (@POINTER = "ADDR(SW_ON_COND)",
     1241    19849                            @OP = %OP_SWITCH_IS_ON,
     1242    19850                            @LOP$ = "ADDR(SW_VALUE)");

  19852 21 001754   000006 220003                    LDX0    6,DU
        21 001755   200044 740100                    STX0    SW_ON_COND,,AUTO

  19853 21 001756   000000 221003                    LDX1    0,DU
        21 001757   200044 441100                    SXL1    SW_ON_COND,,AUTO

  19860 21 001760   000133 235000 xsym               LDA     COMCOM+91
        21 001761   200051 755100                    STA     SW_ON_COND+5,,AUTO

  19861 21 001762   000134 236000 xsym               LDQ     COMCOM+92
        21 001763   200052 756100                    STQ     SW_ON_COND+6,,AUTO

  19862 21 001764   200034 630500                    EPPR0   SW_VALUE,,AUTO
        21 001765   200045 450500                    STP0    SW_ON_COND+1,,AUTO

  19863 21 001766   000036 235007                    LDA     30,DL
        21 001767   200047 755100                    STA     SW_ON_COND+3,,AUTO

  19864 21 001770   000001 236000 22                 LDQ     1
        21 001771   200053 756100                    STQ     SW_ON_COND+7,,AUTO

     1243    19867
     1244    19868    3       CALL Z8AC$LX_ETT_ITEM_TYI_CONST

  19868 21 001772   200034 631500                    EPPR1   SW_VALUE,,AUTO
        21 001773   200102 451500                    STP1    @CONST$+2,,AUTO
PL6.E3A0      #002=Z8EX$SET_STATEMENT File=Z8EX.:Z8A6TSI                         SAT 08/09/97 12:58 Page:191
        21 001774   200102 633500                    EPPR3   @CONST$+2,,AUTO
        21 001775   200105 453500                    STP3    @CONST$+5,,AUTO
        21 001776   200074 236100                    LDQ     @SEND_SW#,,AUTO
        21 001777   200104 756100                    STQ     @CONST$+4,,AUTO
        21 002000   200104 630500                    EPPR0   @CONST$+4,,AUTO
        21 002001   000014 631400 22                 EPPR1   12
        21 002002   000000 701000 xent               TSX1    Z8AC$LX_ETT_ITEM_TYI_CONST
        21 002003   000000 011000                    NOP     0

     1245    19869    3              (SEND_SW#,
     1246    19870    3               ADDR(SW_VALUE));
     1247    19871
     1248    19872    3       CALL Z8EK$BRANCH_FALSE (OFF_SW_LABEL$,

  19872 21 002004   200044 630500                    EPPR0   SW_ON_COND,,AUTO
        21 002005   200102 450500                    STP0    @CONST$+2,,AUTO
        21 002006   200102 631500                    EPPR1   @CONST$+2,,AUTO
        21 002007   200105 451500                    STP1    @CONST$+5,,AUTO
        21 002010   200027 633500                    EPPR3   OFF_SW_LABEL$,,AUTO
        21 002011   200104 453500                    STP3    @CONST$+4,,AUTO
        21 002012   200104 630500                    EPPR0   @CONST$+4,,AUTO
        21 002013   000014 631400 22                 EPPR1   12
        21 002014   000000 701000 xent               TSX1    Z8EK$BRANCH_FALSE
        21 002015   000000 011000                    NOP     0

     1249    19873    3                               ADDR(SW_ON_COND));
     1250    19874
     1251    19875    3       CALL CREATE_SWITCH_TRIAD (REC_SW#, CONST$);

  19875 21 002016   200025 630500                    EPPR0   CONST$,,AUTO
        21 002017   200100 450500                    STP0    @CONST$,,AUTO
        21 002020   200073 236100                    LDQ     @REC_SW#,,AUTO
        21 002021   200077 756100                    STQ     @SW#,,AUTO
        21 002022   001333 701000 21                 TSX1    CREATE_SWITCH_TRIAD
        21 002023   000000 011000                    NOP     0

     1252    19876
PL6.E3A0      #002=Z8EX$SET_STATEMENT File=Z8EX.:Z8A6TSI                         SAT 08/09/97 12:58 Page:192
     1253    19877            %NEW_ILL (@ID = %ON_SWITCH,
     1254    19878                      @LOP = CONST$);

  20202 21 002024   000007 236000 22                 LDQ     7
        21 002025   200102 756100                    STQ     @CONST$+2,,AUTO
        21 002026   200102 630500                    EPPR0   @CONST$+2,,AUTO
        21 002027   200107 450500                    STP0    @CONST$+7,,AUTO
        21 002030   000010 236000 22                 LDQ     8
        21 002031   200106 756100                    STQ     @CONST$+6,,AUTO
        21 002032   000024 237000 22                 LDAQ    20
        21 002033   200104 757100                    STAQ    @CONST$+4,,AUTO
        21 002034   200104 630500                    EPPR0   @CONST$+4,,AUTO
        21 002035   000002 631400 22                 EPPR1   2
        21 002036   000000 701000 xent               TSX1    Z8AN$NEW_ILL
        21 002037   000000 011000                    NOP     0

  20208 21 002040   200025 236100                    LDQ     CONST$,,AUTO
        21 002041   000000 470400 16                 LDP0    ILL$
        21 002042   000001 756100                    STQ     1,,PR0

     1255    20257
     1256    20258    3       CALL Z8EK$BRANCH (END_LABEL$);

  20258 21 002043   200026 631500                    EPPR1   END_LABEL$,,AUTO
        21 002044   200102 451500                    STP1    @CONST$+2,,AUTO
        21 002045   200102 630500                    EPPR0   @CONST$+2,,AUTO
        21 002046   000000 631400 22                 EPPR1   0
        21 002047   000000 701000 xent               TSX1    Z8EK$BRANCH
        21 002050   000000 011000                    NOP     0

     1257    20259
     1258    20260            %NEW_ILL (@ID = %DEFLB,
     1259    20261                      @LABEL$ = OFF_SW_LABEL$);

  20593 21 002051   000007 236000 22                 LDQ     7
        21 002052   200102 756100                    STQ     @CONST$+2,,AUTO
        21 002053   200102 630500                    EPPR0   @CONST$+2,,AUTO
PL6.E3A0      #002=Z8EX$SET_STATEMENT File=Z8EX.:Z8A6TSI                         SAT 08/09/97 12:58 Page:193
        21 002054   200107 450500                    STP0    @CONST$+7,,AUTO
        21 002055   000010 236000 22                 LDQ     8
        21 002056   200106 756100                    STQ     @CONST$+6,,AUTO
        21 002057   000044 237000 22                 LDAQ    36
        21 002060   200104 757100                    STAQ    @CONST$+4,,AUTO
        21 002061   200104 630500                    EPPR0   @CONST$+4,,AUTO
        21 002062   000002 631400 22                 EPPR1   2
        21 002063   000000 701000 xent               TSX1    Z8AN$NEW_ILL
        21 002064   000000 011000                    NOP     0

  20594 21 002065   200027 236100                    LDQ     OFF_SW_LABEL$,,AUTO
        21 002066   000000 470400 16                 LDP0    ILL$
        21 002067   000001 756100                    STQ     1,,PR0

     1260    20640
     1261    20641            %NEW_ILL (@ID = %OFF_SWITCH,
     1262    20642                      @LOP = CONST$);

  20966 21 002070   000007 236000 22                 LDQ     7
        21 002071   200102 756100                    STQ     @CONST$+2,,AUTO
        21 002072   200102 631500                    EPPR1   @CONST$+2,,AUTO
        21 002073   200107 451500                    STP1    @CONST$+7,,AUTO
        21 002074   000010 236000 22                 LDQ     8
        21 002075   200106 756100                    STQ     @CONST$+6,,AUTO
        21 002076   000030 237000 22                 LDAQ    24
        21 002077   200104 757100                    STAQ    @CONST$+4,,AUTO
        21 002100   200104 630500                    EPPR0   @CONST$+4,,AUTO
        21 002101   000002 631400 22                 EPPR1   2
        21 002102   000000 701000 xent               TSX1    Z8AN$NEW_ILL
        21 002103   000000 011000                    NOP     0

  20972 21 002104   200025 236100                    LDQ     CONST$,,AUTO
        21 002105   000000 470400 16                 LDP0    ILL$
        21 002106   000001 756100                    STQ     1,,PR0

     1263    21021
     1264    21022            %NEW_ILL (@ID = %DEFLB,
PL6.E3A0      #002=Z8EX$SET_STATEMENT File=Z8EX.:Z8A6TSI                         SAT 08/09/97 12:58 Page:194
     1265    21023                      @LABEL$ = END_LABEL$);

  21355 21 002107   000007 236000 22                 LDQ     7
        21 002110   200102 756100                    STQ     @CONST$+2,,AUTO
        21 002111   200102 631500                    EPPR1   @CONST$+2,,AUTO
        21 002112   200107 451500                    STP1    @CONST$+7,,AUTO
        21 002113   000010 236000 22                 LDQ     8
        21 002114   200106 756100                    STQ     @CONST$+6,,AUTO
        21 002115   000044 237000 22                 LDAQ    36
        21 002116   200104 757100                    STAQ    @CONST$+4,,AUTO
        21 002117   200104 630500                    EPPR0   @CONST$+4,,AUTO
        21 002120   000002 631400 22                 EPPR1   2
        21 002121   000000 701000 xent               TSX1    Z8AN$NEW_ILL
        21 002122   000000 011000                    NOP     0

  21356 21 002123   200026 236100                    LDQ     END_LABEL$,,AUTO
        21 002124   000000 470400 16                 LDP0    ILL$
        21 002125   000001 756100                    STQ     1,,PR0

     1266    21402
     1267    21403    3     END SET_SWITCH_FROM_SWITCH;

  21403 21 002126   200072 221300                    LDX1  ! @REC$+1,,AUTO
        21 002127   000001 702211                    TSX2  ! 1,X1

     1268    21404
     1269    21405
     1270    21406    2      PROCESS_POINTER_SET: PROC (REC$, SEND$);

  21406 21 002130   200072 741300       PROCESS_POI* STX1  ! @REC$+1,,AUTO

     1271    21407
     1272    21408    3        DCL REC$      PTR; /* LX_LIST to <id_or_switch_list> */
     1273    21409    3        DCL SEND$     PTR; /* LX_LIST to <SET_send_item>     */
     1274    21410    3        DCL R$        PTR;
     1275    21411
     1276    21412
PL6.E3A0      #002=Z8EX$SET_STATEMENT File=Z8EX.:Z8A6TSI                         SAT 08/09/97 12:58 Page:195
     1277    21413    3        IF SEND$ -> LX_LIST.COUNT > 1 THEN   /* array item */

  21413 21 002131   200074 470500                    LDP0    @SEND$,,AUTO
        21 002132   000000 471500                    LDP1    0,,PR0
        21 002133   100002 235100                    LDA     2,,PR1
        21 002134   000001 115007                    CMPA    1,DL
        21 002135   002146 604400 21                 TMOZ    s:21417

     1278    21414    3          CALL Z8EY$SUBSCRIPT (SEND$ -> LX_LIST.TAIL$,

  21414 21 002136   100004 633500                    EPPR3   4,,PR1
        21 002137   200103 453500                    STP3    @CONST$+3,,AUTO
        21 002140   100001 634500                    EPPR4   1,,PR1
        21 002141   200102 454500                    STP4    @CONST$+2,,AUTO
        21 002142   200102 630500                    EPPR0   @CONST$+2,,AUTO
        21 002143   000014 631400 22                 EPPR1   12
        21 002144   000000 701000 xent               TSX1    Z8EY$SUBSCRIPT
        21 002145   000000 011000                    NOP     0

     1279    21415    3                               SEND$ -> LX_LIST.HEAD$);
     1280    21416
     1281    21417    4        DO CASE (REC$ -> LX_ITEM.ID);

  21417 21 002146   200073 470500                    LDP0    @REC$,,AUTO
        21 002147   000000 471500                    LDP1    0,,PR0
        21 002150   100000 220100                    LDX0    0,,PR1
        21 002151   000005 100003                    CMPX0   5,DU
        21 002152   002154 602010 21                 TNC     s:21417+6,X0
        21 002153   002311 710000 21                 TRA     s:21515
        21 002154   002311 710000 21                 TRA     s:21515
        21 002155   002311 710000 21                 TRA     s:21515
        21 002156   002221 710000 21                 TRA     s:21461
        21 002157   002311 710000 21                 TRA     s:21515
        21 002160   002161 710000 21                 TRA     s:21420

     1282    21418    4          CASE(%LX_ETT_ITEM);

PL6.E3A0      #002=Z8EX$SET_STATEMENT File=Z8EX.:Z8A6TSI                         SAT 08/09/97 12:58 Page:196
     1283    21419
     1284    21420    4              IF REC$ -> LX_ETT_ITEM.TYPE ~= %TYP THEN

  21420 21 002161   100004 235100                    LDA     4,,PR1
        21 002162   000022 115007                    CMPA    18,DL
        21 002163   002206 600000 21                 TZE     s:21457

     1285    21421    5                DO;

     1286    21422                       %CONDITIONAL_ERROR (@LX_ITEM$ = REC$,
     1287    21423                           @ERROR# =%E$POINTER_INCOMPATIBLE,
     1288    21424                           @LINE   = REC$ -> LX_ETT_ITEM.LINE,
     1289    21425                           @COLUMN = REC$ -> LX_ETT_ITEM.COLUMN);

  21435 21 002164   100000 236100                    LDQ     0,,PR1
        21 002165   400000 316007                    CANQ    -131072,DL
        21 002166   002315 601000 21                 TNZ     s:21519

  21437 21 002167   100006 633500                    EPPR3   6,,PR1
        21 002170   200104 453500                    STP3    @CONST$+4,,AUTO
        21 002171   100005 634500                    EPPR4   5,,PR1
        21 002172   200103 454500                    STP4    @CONST$+3,,AUTO
        21 002173   000046 236000 22                 LDQ     38
        21 002174   200102 756100                    STQ     @CONST$+2,,AUTO
        21 002175   200102 630500                    EPPR0   @CONST$+2,,AUTO
        21 002176   000020 631400 22                 EPPR1   16
        21 002177   000000 701000 xent               TSX1    Z8AE$ERROR
        21 002200   000000 011000                    NOP     0

  21446 21 002201   200073 470500                    LDP0    @REC$,,AUTO
        21 002202   000000 471500                    LDP1    0,,PR0
        21 002203   400000 236007                    LDQ     -131072,DL
        21 002204   100000 256100                    ORSQ    0,,PR1

     1290    21455    5                END;

  21455 21 002205   002315 710000 21                 TRA     s:21519
PL6.E3A0      #002=Z8EX$SET_STATEMENT File=Z8EX.:Z8A6TSI                         SAT 08/09/97 12:58 Page:197

     1291    21456    4              ELSE
     1292    21457    4                CALL Z8E7$POINTER_MOVE (REC$, SEND$ -> LX_LIST.HEAD$);

  21457 21 002206   200074 473500                    LDP3    @SEND$,,AUTO
        21 002207   300000 474500                    LDP4    0,,PR3
        21 002210   400004 635500                    EPPR5   4,,PR4
        21 002211   200103 455500                    STP5    @CONST$+3,,AUTO
        21 002212   200073 236100                    LDQ     @REC$,,AUTO
        21 002213   200102 756100                    STQ     @CONST$+2,,AUTO
        21 002214   200102 630500                    EPPR0   @CONST$+2,,AUTO
        21 002215   000014 631400 22                 EPPR1   12
        21 002216   000000 701000 xent               TSX1    Z8E7$POINTER_MOVE
        21 002217   000000 011000                    NOP     0
        21 002220   002315 710000 21                 TRA     s:21519

     1293    21458
     1294    21459    4          CASE(%LX_LIST);

     1295    21460
     1296    21461    4              R$ = REC$ -> LX_LIST.HEAD$;

  21461 21 002221   100004 236100                    LDQ     4,,PR1
        21 002222   200075 756100                    STQ     R$,,AUTO

     1297    21462
     1298    21463    5            DO WHILE (R$ ~= ADDR(NIL));

  21463 21 002223   002306 710000 21                 TRA     s:21512

     1299    21464    5              IF R$ -> LX_LIST.HEAD$ -> LX_ETT_ITEM.TYPE ~= %TYP THEN

  21464 21 002224   200075 470500                    LDP0    R$,,AUTO
        21 002225   000004 471500                    LDP1    4,,PR0
        21 002226   100004 235100                    LDA     4,,PR1
        21 002227   000022 115007                    CMPA    18,DL
        21 002230   002253 600000 21                 TZE     s:21502
PL6.E3A0      #002=Z8EX$SET_STATEMENT File=Z8EX.:Z8A6TSI                         SAT 08/09/97 12:58 Page:198

     1300    21465    6                DO;

     1301    21466                       %CONDITIONAL_ERROR (@LX_ITEM$ = R$ -> LX_LIST.HEAD$,
     1302    21467                           @ERROR# =%E$POINTER_INCOMPATIBLE,
     1303    21468                           @LINE   = R$->LX_LIST.HEAD$ -> LX_ETT_ITEM.LINE,
     1304    21469                           @COLUMN = R$->LX_LIST.HEAD$ -> LX_ETT_ITEM.COLUMN);

  21479 21 002231   100000 236100                    LDQ     0,,PR1
        21 002232   400000 316007                    CANQ    -131072,DL
        21 002233   002303 601000 21                 TNZ     s:21510

  21481 21 002234   100006 633500                    EPPR3   6,,PR1
        21 002235   200104 453500                    STP3    @CONST$+4,,AUTO
        21 002236   100005 634500                    EPPR4   5,,PR1
        21 002237   200103 454500                    STP4    @CONST$+3,,AUTO
        21 002240   000046 236000 22                 LDQ     38
        21 002241   200102 756100                    STQ     @CONST$+2,,AUTO
        21 002242   200102 630500                    EPPR0   @CONST$+2,,AUTO
        21 002243   000020 631400 22                 EPPR1   16
        21 002244   000000 701000 xent               TSX1    Z8AE$ERROR
        21 002245   000000 011000                    NOP     0

  21490 21 002246   200075 470500                    LDP0    R$,,AUTO
        21 002247   000004 471500                    LDP1    4,,PR0
        21 002250   400000 236007                    LDQ     -131072,DL
        21 002251   100000 256100                    ORSQ    0,,PR1

     1305    21499    6                END;

  21499 21 002252   002303 710000 21                 TRA     s:21510

     1306    21500    5              ELSE
     1307    21501    6                DO;

     1308    21502    6                  IF R$ -> LX_LIST.COUNT > 1 THEN

PL6.E3A0      #002=Z8EX$SET_STATEMENT File=Z8EX.:Z8A6TSI                         SAT 08/09/97 12:58 Page:199
  21502 21 002253   000002 235100                    LDA     2,,PR0
        21 002254   000001 115007                    CMPA    1,DL
        21 002255   002270 604400 21                 TMOZ    s:21506

     1309    21503    6                    CALL Z8EY$SUBSCRIPT(R$ -> LX_LIST.TAIL$,

  21503 21 002256   200075 236100                    LDQ     R$,,AUTO
        21 002257   000004 036003                    ADLQ    4,DU
        21 002260   200103 756100                    STQ     @CONST$+3,,AUTO
        21 002261   200075 236100                    LDQ     R$,,AUTO
        21 002262   000001 036003                    ADLQ    1,DU
        21 002263   200102 756100                    STQ     @CONST$+2,,AUTO
        21 002264   200102 630500                    EPPR0   @CONST$+2,,AUTO
        21 002265   000014 631400 22                 EPPR1   12
        21 002266   000000 701000 xent               TSX1    Z8EY$SUBSCRIPT
        21 002267   000000 011000                    NOP     0

     1310    21504    6                                        R$ -> LX_LIST.HEAD$);
     1311    21505
     1312    21506    6                  CALL Z8E7$POINTER_MOVE (R$ -> LX_LIST.HEAD$,

  21506 21 002270   200074 470500                    LDP0    @SEND$,,AUTO
        21 002271   000000 471500                    LDP1    0,,PR0
        21 002272   100004 633500                    EPPR3   4,,PR1
        21 002273   200103 453500                    STP3    @CONST$+3,,AUTO
        21 002274   200075 236100                    LDQ     R$,,AUTO
        21 002275   000004 036003                    ADLQ    4,DU
        21 002276   200102 756100                    STQ     @CONST$+2,,AUTO
        21 002277   200102 630500                    EPPR0   @CONST$+2,,AUTO
        21 002300   000014 631400 22                 EPPR1   12
        21 002301   000000 701000 xent               TSX1    Z8E7$POINTER_MOVE
        21 002302   000000 011000                    NOP     0

     1313    21507    6                                          SEND$ -> LX_LIST.HEAD$);
     1314    21508    6                END;

     1315    21509
PL6.E3A0      #002=Z8EX$SET_STATEMENT File=Z8EX.:Z8A6TSI                         SAT 08/09/97 12:58 Page:200
     1316    21510    5              R$ = R$ -> LX_LIST.LINK;

  21510 21 002303   200075 470500                    LDP0    R$,,AUTO
        21 002304   000007 236100                    LDQ     7,,PR0
        21 002305   200075 756100                    STQ     R$,,AUTO

     1317    21511
     1318    21512    5            END; /* DO WHILE */

  21512 21 002306   000001 116000 22                 CMPQ    1
        21 002307   002224 601000 21                 TNZ     s:21464
        21 002310   002315 710000 21                 TRA     s:21519

     1319    21513
     1320    21514    4          CASE (ELSE);

     1321    21515    4              CALL Z8AE$ERROR (%E$UNEXPECTED_CASE);

  21515 21 002311   000050 630400 22                 EPPR0   40
        21 002312   000000 631400 22                 EPPR1   0
        21 002313   000000 701000 xent               TSX1    Z8AE$ERROR
        21 002314   000000 011000                    NOP     0

     1322    21516
     1323    21517    4        END; /* DO CASE */

     1324    21518
     1325    21519    3     END PROCESS_POINTER_SET;

  21519 21 002315   200072 221300                    LDX1  ! @REC$+1,,AUTO
        21 002316   000001 702211                    TSX2  ! 1,X1

     1326    21520
     1327    21521
     1328    21522        %EJECT;
PL6.E3A0      #002=Z8EX$SET_STATEMENT File=Z8EX.:Z8A6TSI                         SAT 08/09/97 12:58 Page:201
     1329    21523        /* Body of SET_STATEMENT */
     1330    21524
     1331    21525        %STATEMENT_START_FROM_LX_TERM (@POINTER = KEY_WORD$,
     1332    21526                                       @TYPE = %S_TYPE_SET);

  21534 21 002317   200003 470500                    LDP0    @KEY_WORD$,,AUTO
        21 002320   000000 471500                    LDP1    0,,PR0
        21 002321   100005 235100                    LDA     5,,PR1
        21 002322   000007 755000 xsym               STA     O1COM+7

  21535 21 002323   000000 471500                    LDP1    0,,PR0
        21 002324   100006 235100                    LDA     6,,PR1
        21 002325   000010 755000 xsym               STA     O1COM+8

  21536 21 002326   000011 236000 xsym               LDQ     O1COM+9
        21 002327   002344 600000 21                 TZE     s:21918

  21571 21 002330   000007 236000 22                 LDQ     7
        21 002331   200102 756100                    STQ     @CONST$+2,,AUTO
        21 002332   200102 631500                    EPPR1   @CONST$+2,,AUTO
        21 002333   200107 451500                    STP1    @CONST$+7,,AUTO
        21 002334   000010 236000 22                 LDQ     8
        21 002335   200106 756100                    STQ     @CONST$+6,,AUTO
        21 002336   000052 237000 22                 LDAQ    42
        21 002337   200104 757100                    STAQ    @CONST$+4,,AUTO
        21 002340   200104 630500                    EPPR0   @CONST$+4,,AUTO
        21 002341   000002 631400 22                 EPPR1   2
        21 002342   000000 701000 xent               TSX1    Z8AN$NEW_ILL
        21 002343   000000 011000                    NOP     0

  21918 21 002344   000045 235007                    LDA     37,DL
        21 002345   000011 755000 xsym               STA     O1COM+9

  21954 21 002346   000007 236000 22                 LDQ     7
        21 002347   200102 756100                    STQ     @CONST$+2,,AUTO
        21 002350   200102 630500                    EPPR0   @CONST$+2,,AUTO
        21 002351   200107 450500                    STP0    @CONST$+7,,AUTO
PL6.E3A0      #002=Z8EX$SET_STATEMENT File=Z8EX.:Z8A6TSI                         SAT 08/09/97 12:58 Page:202
        21 002352   000010 236000 22                 LDQ     8
        21 002353   200106 756100                    STQ     @CONST$+6,,AUTO
        21 002354   000052 237000 22                 LDAQ    42
        21 002355   200104 757100                    STAQ    @CONST$+4,,AUTO
        21 002356   200104 630500                    EPPR0   @CONST$+4,,AUTO
        21 002357   000002 631400 22                 EPPR1   2
        21 002360   000000 701000 xent               TSX1    Z8AN$NEW_ILL
        21 002361   000000 011000                    NOP     0

     1333    22302
     1334    22303
     1335    22304
     1336    22305    3   DO CASE (SET_TYPE);

  22305 21 002362   200006 470500                    LDP0    @SET_TYPE,,AUTO
        21 002363   000000 235100                    LDA     0,,PR0
        21 002364   000004 135007                    SBLA    4,DL
        21 002365   000003 115007                    CMPA    3,DL
        21 002366   002370 602005 21                 TNC     s:22305+6,AL
        21 002367   002672 710000 21                 TRA     s:22411
        21 002370   002373 710000 21                 TRA     s:22309
        21 002371   002402 710000 21                 TRA     s:22313
        21 002372   002411 710000 21                 TRA     s:22317

     1337    22306
     1338    22307    3     CASE (%SET_ON);

     1339    22308
     1340    22309    3       CALL SET_ON_OR_OFF (RECEIVE$, %ON_SWITCH) ;

  22309 21 002373   000025 236000 22                 LDQ     21
        21 002374   200066 756100                    STQ     @RECEIVE$+1,,AUTO
        21 002375   200004 236100                    LDQ     @RECEIVE$,,AUTO
        21 002376   200065 756100                    STQ     ASS_VAR+9,,AUTO
        21 002377   001520 701000 21                 TSX1    SET_ON_OR_OFF
        21 002400   000000 011000                    NOP     0
        21 002401   002672 710000 21                 TRA     s:22411
PL6.E3A0      #002=Z8EX$SET_STATEMENT File=Z8EX.:Z8A6TSI                         SAT 08/09/97 12:58 Page:203

     1341    22310
     1342    22311    3     CASE (%SET_OFF);

     1343    22312
     1344    22313    3       CALL SET_ON_OR_OFF (RECEIVE$, %OFF_SWITCH) ;

  22313 21 002402   000031 236000 22                 LDQ     25
        21 002403   200066 756100                    STQ     @RECEIVE$+1,,AUTO
        21 002404   200004 236100                    LDQ     @RECEIVE$,,AUTO
        21 002405   200065 756100                    STQ     ASS_VAR+9,,AUTO
        21 002406   001520 701000 21                 TSX1    SET_ON_OR_OFF
        21 002407   000000 011000                    NOP     0
        21 002410   002672 710000 21                 TRA     s:22411

     1345    22314
     1346    22315    3     CASE (%SET_SWITCH);

     1347    22316
     1348    22317    3       REC$ = RECEIVE$ -> LX_LIST.HEAD$;

  22317 21 002411   200004 471500                    LDP1    @RECEIVE$,,AUTO
        21 002412   100000 473500                    LDP3    0,,PR1
        21 002413   300004 236100                    LDQ     4,,PR3
        21 002414   200021 756100                    STQ     REC$,,AUTO

     1349    22318    4       DO WHILE REC$ ~= ADDR(NIL);

  22318 21 002415   002670 710000 21                 TRA     s:22408

     1350    22319
     1351    22320    5         DO SELECT (REC$ -> LX_LIST.HEAD$ -> LX_LIST.LINK -> LX_TERMINAL.SYMBOL) ;

  22320 21 002416   200021 470500                    LDP0    REC$,,AUTO
        21 002417   000004 471500                    LDP1    4,,PR0
        21 002420   100007 473500                    LDP3    7,,PR1
        21 002421   300003 236100                    LDQ     3,,PR3
PL6.E3A0      #002=Z8EX$SET_STATEMENT File=Z8EX.:Z8A6TSI                         SAT 08/09/97 12:58 Page:204
        21 002422   000721 116007                    CMPQ    465,DL
        21 002423   002430 604000 21                 TMI     s:22320+10
        21 002424   002461 600000 21                 TZE     s:22335
        21 002425   000735 116007                    CMPQ    477,DL
        21 002426   002665 601000 21                 TNZ     s:22407
        21 002427   002433 710000 21                 TRA     s:22324
        21 002430   000232 116007                    CMPQ    154,DL
        21 002431   002665 601000 21                 TNZ     s:22407
        21 002432   002446 710000 21                 TRA     s:22330

     1352    22321
     1353    22322    5           SELECT (%RSV_WRD_UP) ; /* SET ... id1 UP BY id2 ... */

     1354    22323
     1355    22324    5             CALL SET_UP_DOWN (REC$ -> LX_LIST.HEAD$,

  22324 21 002433   000055 236000 22                 LDQ     45
        21 002434   200067 756100                    STQ     @ON_OR_OFF+1,,AUTO
        21 002435   200021 236100                    LDQ     REC$,,AUTO
        21 002436   000001 036003                    ADLQ    1,DU
        21 002437   200066 756100                    STQ     @RECEIVE$+1,,AUTO
        21 002440   200021 236100                    LDQ     REC$,,AUTO
        21 002441   000004 036003                    ADLQ    4,DU
        21 002442   200065 756100                    STQ     ASS_VAR+9,,AUTO
        21 002443   000005 701000 21                 TSX1    SET_UP_DOWN
        21 002444   000000 011000                    NOP     0
        21 002445   002665 710000 21                 TRA     s:22407

     1356    22325    5                               REC$ -> LX_LIST.TAIL$,
     1357    22326    5                               %SET_UP_BY) ;
     1358    22327
     1359    22328    5           SELECT (%RSV_WRD_DOWN) ; /* SET ... id1 DOWN BY id2 ... */

     1360    22329
     1361    22330    5             CALL SET_UP_DOWN (REC$ -> LX_LIST.HEAD$,

  22330 21 002446   000057 236000 22                 LDQ     47
PL6.E3A0      #002=Z8EX$SET_STATEMENT File=Z8EX.:Z8A6TSI                         SAT 08/09/97 12:58 Page:205
        21 002447   200067 756100                    STQ     @ON_OR_OFF+1,,AUTO
        21 002450   200021 236100                    LDQ     REC$,,AUTO
        21 002451   000001 036003                    ADLQ    1,DU
        21 002452   200066 756100                    STQ     @RECEIVE$+1,,AUTO
        21 002453   200021 236100                    LDQ     REC$,,AUTO
        21 002454   000004 036003                    ADLQ    4,DU
        21 002455   200065 756100                    STQ     ASS_VAR+9,,AUTO
        21 002456   000005 701000 21                 TSX1    SET_UP_DOWN
        21 002457   000000 011000                    NOP     0
        21 002460   002665 710000 21                 TRA     s:22407

     1362    22331    5                               REC$ -> LX_LIST.TAIL$,
     1363    22332    5                               %SET_DOWN_BY) ;
     1364    22333    5           SELECT (%RSV_WRD_TO) ; /* SET ... id1 TO id2 ... */

     1365    22334
     1366    22335    5             IF REC$ -> LX_LIST.HEAD$ -> LX_LIST.HEAD$ -> LX_ITEM.ID

  22335 21 002461   100004 474500                    LDP4    4,,PR1
        21 002462   400000 220100                    LDX0    0,,PR4
        21 002463   002475 601000 21                 TNZ     s:22341

     1367    22336    5              = %LX_TERMINAL THEN
     1368    22337    5               CALL SET_SWITCH_TO (REC$ -> LX_LIST.HEAD$,

  22337 21 002464   200021 236100                    LDQ     REC$,,AUTO
        21 002465   000001 036003                    ADLQ    1,DU
        21 002466   200066 756100                    STQ     @RECEIVE$+1,,AUTO
        21 002467   200021 236100                    LDQ     REC$,,AUTO
        21 002470   000004 036003                    ADLQ    4,DU
        21 002471   200065 756100                    STQ     ASS_VAR+9,,AUTO
        21 002472   001033 701000 21                 TSX1    SET_SWITCH_TO
        21 002473   000000 011000                    NOP     0
        21 002474   002665 710000 21                 TRA     s:22407

     1369    22338    5                                   REC$ -> LX_LIST.TAIL$) ;
     1370    22339    6             ELSE DO ; /* Receiving list is not SWITCHs */
PL6.E3A0      #002=Z8EX$SET_STATEMENT File=Z8EX.:Z8A6TSI                         SAT 08/09/97 12:58 Page:206

     1371    22340
     1372    22341    7               IF REC$ -> LX_LIST.TAIL$ -> LX_ITEM.ID = %LX_TERMINAL THEN DO ;

  22341 21 002475   000001 475500                    LDP5    1,,PR0
        21 002476   500000 221100                    LDX1    0,,PR5
        21 002477   002653 601000 21                 TNZ     s:22397

     1373    22342
     1374    22343    8                 DO SELECT (REC$ -> LX_LIST.TAIL$ -> LX_TERMINAL.SYMBOL) ;

  22343 21 002500   500003 236100                    LDQ     3,,PR5
        21 002501   000475 116007                    CMPQ    317,DL
        21 002502   002513 604000 21                 TMI     s:22343+11
        21 002503   002522 600000 21                 TZE     s:22347
        21 002504   000725 116007                    CMPQ    469,DL
        21 002505   002510 604000 21                 TMI     s:22343+8
        21 002506   002555 600000 21                 TZE     s:22361
        21 002507   002640 710000 21                 TRA     s:22384
        21 002510   000675 116007                    CMPQ    445,DL
        21 002511   002640 601000 21                 TNZ     s:22384
        21 002512   002602 710000 21                 TRA     s:22370
        21 002513   000473 116007                    CMPQ    315,DL
        21 002514   002517 604000 21                 TMI     s:22343+15
        21 002515   002522 600000 21                 TZE     s:22347
        21 002516   002640 710000 21                 TRA     s:22384
        21 002517   000463 116007                    CMPQ    307,DL
        21 002520   002640 601000 21                 TNZ     s:22384
        21 002521   002613 710000 21                 TRA     s:22375

     1375    22344
     1376    22345    8                   SELECT (%RSV_WRD_ON, %RSV_WRD_OFF) ;

     1377    22346
     1378    22347    8                     R$ = REC$ -> LX_LIST.HEAD$ -> LX_LIST.HEAD$ ;

  22347 21 002522   100004 236100                    LDQ     4,,PR1
PL6.E3A0      #002=Z8EX$SET_STATEMENT File=Z8EX.:Z8A6TSI                         SAT 08/09/97 12:58 Page:207
        21 002523   200022 756100                    STQ     R$,,AUTO

     1379    22348    9                     DO WHILE R$ ~= ADDR(NIL) ;

  22348 21 002524   002552 710000 21                 TRA     s:22357

     1380    22349
     1381    22350    9                       IF REC$ -> LX_LIST.TAIL$ -> LX_TERMINAL.SYMBOL = %RSV_WRD_ON
             22350                                THEN

  22350 21 002525   200021 470500                    LDP0    REC$,,AUTO
        21 002526   000001 471500                    LDP1    1,,PR0
        21 002527   100003 235100                    LDA     3,,PR1
        21 002530   000475 115007                    CMPA    317,DL
        21 002531   002541 601000 21                 TNZ     s:22353

     1382    22351    9                         CALL SET_ON_OR_OFF (R$, %ON_SWITCH) ;

  22351 21 002532   000025 236000 22                 LDQ     21
        21 002533   200066 756100                    STQ     @RECEIVE$+1,,AUTO
        21 002534   200022 631500                    EPPR1   R$,,AUTO
        21 002535   200065 451500                    STP1    ASS_VAR+9,,AUTO
        21 002536   001520 701000 21                 TSX1    SET_ON_OR_OFF
        21 002537   000000 011000                    NOP     0
        21 002540   002547 710000 21                 TRA     s:22355

     1383    22352    9                       ELSE
     1384    22353    9                         CALL SET_ON_OR_OFF (R$, %OFF_SWITCH) ;

  22353 21 002541   000031 236000 22                 LDQ     25
        21 002542   200066 756100                    STQ     @RECEIVE$+1,,AUTO
        21 002543   200022 631500                    EPPR1   R$,,AUTO
        21 002544   200065 451500                    STP1    ASS_VAR+9,,AUTO
        21 002545   001520 701000 21                 TSX1    SET_ON_OR_OFF
        21 002546   000000 011000                    NOP     0

     1385    22354
PL6.E3A0      #002=Z8EX$SET_STATEMENT File=Z8EX.:Z8A6TSI                         SAT 08/09/97 12:58 Page:208
     1386    22355    9                       R$ = R$ -> LX_ITEM.LINK ;

  22355 21 002547   200022 470500                    LDP0    R$,,AUTO
        21 002550   000007 236100                    LDQ     7,,PR0
        21 002551   200022 756100                    STQ     R$,,AUTO

     1387    22356
     1388    22357    9                     END ; /* Do while R$ is non-nil */

  22357 21 002552   000001 116000 22                 CMPQ    1
        21 002553   002525 601000 21                 TNZ     s:22350
        21 002554   002665 710000 21                 TRA     s:22407

     1389    22358
     1390    22359    8                   SELECT (%RSV_WRD_TRUE) ;

     1391    22360
     1392    22361    8                     IF COMCOM.OB.FIPS.LEVEL >= %INT_LEV THEN

  22361 21 002555   000036 722000 xsym               LXL2    COMCOM+30
        21 002556   000002 102003                    CMPX2   2,DU
        21 002557   002574 604000 21                 TMI     s:22366

     1393    22362    8                       CALL Z8AE$ERROR (%E$LEVEL_CHECK,

  22362 21 002560   200003 476500                    LDP6    @KEY_WORD$,,AUTO
        21 002561   600000 477500                    LDP7    0,,PR6
        21 002562   700006 630500                    EPPR0   6,,PR7
        21 002563   200104 450500                    STP0    @CONST$+4,,AUTO
        21 002564   700005 631500                    EPPR1   5,,PR7
        21 002565   200103 451500                    STP1    @CONST$+3,,AUTO
        21 002566   000061 236000 22                 LDQ     49
        21 002567   200102 756100                    STQ     @CONST$+2,,AUTO
        21 002570   200102 630500                    EPPR0   @CONST$+2,,AUTO
        21 002571   000020 631400 22                 EPPR1   16
        21 002572   000000 701000 xent               TSX1    Z8AE$ERROR
        21 002573   000000 011000                    NOP     0
PL6.E3A0      #002=Z8EX$SET_STATEMENT File=Z8EX.:Z8A6TSI                         SAT 08/09/97 12:58 Page:209

     1394    22363    8                                        KEY_WORD$ -> LX_ITEM.LINE,
     1395    22364    8                                        KEY_WORD$ -> LX_ITEM.COLUMN);
     1396    22365
     1397    22366    8                     CALL SET_TO_TRUE (REC$ -> LX_LIST.HEAD$) ;

  22366 21 002574   200021 236100                    LDQ     REC$,,AUTO
        21 002575   000004 036003                    ADLQ    4,DU
        21 002576   200065 756100                    STQ     ASS_VAR+9,,AUTO
        21 002577   000421 701000 21                 TSX1    SET_TO_TRUE
        21 002600   000000 011000                    NOP     0
        21 002601   002665 710000 21                 TRA     s:22407

     1398    22367
     1399    22368    8                   SELECT (%RSV_WRD_SWITCH) ;

     1400    22369
     1401    22370    8                     CALL SET_TO_SWITCH (REC$ -> LX_LIST.HEAD$,

  22370 21 002602   200021 236100                    LDQ     REC$,,AUTO
        21 002603   000001 036003                    ADLQ    1,DU
        21 002604   200066 756100                    STQ     @RECEIVE$+1,,AUTO
        21 002605   200021 236100                    LDQ     REC$,,AUTO
        21 002606   000004 036003                    ADLQ    4,DU
        21 002607   200065 756100                    STQ     ASS_VAR+9,,AUTO
        21 002610   000723 701000 21                 TSX1    SET_TO_SWITCH
        21 002611   000000 011000                    NOP     0
        21 002612   002665 710000 21                 TRA     s:22407

     1402    22371    8                                         REC$ -> LX_LIST.TAIL$) ;
     1403    22372
     1404    22373    8                   SELECT (%RSV_WRD_NULL) ;

     1405    22374
     1406    22375    8                     CALL MOVE_STATEMENT (KEY_WORD$,

  22375 21 002613   000036 236000 22                 LDQ     30
PL6.E3A0      #002=Z8EX$SET_STATEMENT File=Z8EX.:Z8A6TSI                         SAT 08/09/97 12:58 Page:210
        21 002614   200072 756100                    STQ     @REC$+1,,AUTO
        21 002615   200021 236100                    LDQ     REC$,,AUTO
        21 002616   000004 036003                    ADLQ    4,DU
        21 002617   200071 756100                    STQ     @SEND$+1,,AUTO
        21 002620   200021 236100                    LDQ     REC$,,AUTO
        21 002621   000001 036003                    ADLQ    1,DU
        21 002622   200070 756100                    STQ     @KEY_WORD$+1,,AUTO
        21 002623   200003 236100                    LDQ     @KEY_WORD$,,AUTO
        21 002624   200067 756100                    STQ     @ON_OR_OFF+1,,AUTO
        21 002625   002707 701000 21                 TSX1    MOVE_STATEMENT
        21 002626   000000 011000                    NOP     0

     1407    22376    8                                          REC$ -> LX_LIST.TAIL$,
     1408    22377    8                                          REC$ -> LX_LIST.HEAD$,
     1409    22378    8                                          %S_TYPE_DML_SET) ;
     1410    22379
     1411    22380    8                     CALL Z8ED$DISPOSE_ABSSYN_TREE (REC$ -> LX_LIST.HEAD$ -> LX_LIST.
             22380                              HEAD$) ;

  22380 21 002627   200021 470500                    LDP0    REC$,,AUTO
        21 002630   000004 471500                    LDP1    4,,PR0
        21 002631   100004 633500                    EPPR3   4,,PR1
        21 002632   200102 453500                    STP3    @CONST$+2,,AUTO
        21 002633   200102 630500                    EPPR0   @CONST$+2,,AUTO
        21 002634   000000 631400 22                 EPPR1   0
        21 002635   000000 701000 xent               TSX1    Z8ED$DISPOSE_ABSSYN_TREE
        21 002636   000000 011000                    NOP     0
        21 002637   002665 710000 21                 TRA     s:22407

     1412    22381
     1413    22382    8                   SELECT (ELSE) ; /* Must be a number */

     1414    22383
     1415    22384    8                     CALL CHECK_FOR_DML_SET

  22384 21 002640   001346 701000 21                 TSX1    CHECK_FOR_DML_SET
        21 002641   002652 702000 21                 TSX2    s:22393
PL6.E3A0      #002=Z8EX$SET_STATEMENT File=Z8EX.:Z8A6TSI                         SAT 08/09/97 12:58 Page:211

     1416    22385    9                     WHENRETURN DO ; /* not a DML SET */

     1417    22386
     1418    22387    9                       CALL SET_TO (REC$ -> LX_LIST.HEAD$,

  22387 21 002642   200021 236100                    LDQ     REC$,,AUTO
        21 002643   000001 036003                    ADLQ    1,DU
        21 002644   200066 756100                    STQ     @RECEIVE$+1,,AUTO
        21 002645   200021 236100                    LDQ     REC$,,AUTO
        21 002646   000004 036003                    ADLQ    4,DU
        21 002647   200065 756100                    STQ     ASS_VAR+9,,AUTO
        21 002650   000206 701000 21                 TSX1    SET_TO
        21 002651   000000 011000                    NOP     0

     1419    22388    9                                    REC$ -> LX_LIST.TAIL$) ;
     1420    22389    9                     END ;

     1421    22390
     1422    22391    8                 END ; /* Do select REC$ -> TAIL$ -> SYMBOL */

     1423    22392
     1424    22393    7               END ; /* REC$ -> TAIL$ is a terminal */

  22393 21 002652   002665 710000 21                 TRA     s:22407

     1425    22394
     1426    22395    7               ELSE DO ; /* REC$ -> TAIL$ is not a terminal */

     1427    22396
     1428    22397    7                 CALL CHECK_FOR_DML_SET

  22397 21 002653   001346 701000 21                 TSX1    CHECK_FOR_DML_SET
        21 002654   002665 702000 21                 TSX2    s:22407

     1429    22398    8                 WHENRETURN DO ; /* not a DML SET */

PL6.E3A0      #002=Z8EX$SET_STATEMENT File=Z8EX.:Z8A6TSI                         SAT 08/09/97 12:58 Page:212
     1430    22399
     1431    22400    8                   CALL SET_TO (REC$ -> LX_LIST.HEAD$,

  22400 21 002655   200021 236100                    LDQ     REC$,,AUTO
        21 002656   000001 036003                    ADLQ    1,DU
        21 002657   200066 756100                    STQ     @RECEIVE$+1,,AUTO
        21 002660   200021 236100                    LDQ     REC$,,AUTO
        21 002661   000004 036003                    ADLQ    4,DU
        21 002662   200065 756100                    STQ     ASS_VAR+9,,AUTO
        21 002663   000206 701000 21                 TSX1    SET_TO
        21 002664   000000 011000                    NOP     0

     1432    22401    8                                REC$ -> LX_LIST.TAIL$) ;
     1433    22402    8                 END ;

     1434    22403
     1435    22404    7               END ; /* Sending guy is an identifier */

     1436    22405    6             END ; /* Receiving list is not SWITCHs */

     1437    22406    5         END ; /* Do Select of SYMBOL of 2nd LX_ITEM in list */

     1438    22407    4         REC$ = REC$ -> LX_ITEM.LINK;

  22407 21 002665   200021 470500                    LDP0    REC$,,AUTO
        21 002666   000007 236100                    LDQ     7,,PR0
        21 002667   200021 756100                    STQ     REC$,,AUTO

     1439    22408    4       END; /* Do while REC$ is non-nil */

  22408 21 002670   000001 116000 22                 CMPQ    1
        21 002671   002416 601000 21                 TNZ     s:22320

     1440    22409    3   END; /* Do case of SET type */

     1441    22410
     1442    22411    2   IF RECEIVE$ -> LX_ITEM.ID = %LX_LIST THEN
PL6.E3A0      #002=Z8EX$SET_STATEMENT File=Z8EX.:Z8A6TSI                         SAT 08/09/97 12:58 Page:213

  22411 21 002672   200004 470500                    LDP0    @RECEIVE$,,AUTO
        21 002673   000000 471500                    LDP1    0,,PR0
        21 002674   100000 220100                    LDX0    0,,PR1
        21 002675   000002 100003                    CMPX0   2,DU
        21 002676   002705 601000 21                 TNZ     s:22414

     1443    22412    2     CALL Z8ED$DISPOSE_ABSSYN_TREE (RECEIVE$ -> LX_LIST.HEAD$);

  22412 21 002677   100004 633500                    EPPR3   4,,PR1
        21 002700   200102 453500                    STP3    @CONST$+2,,AUTO
        21 002701   200102 630500                    EPPR0   @CONST$+2,,AUTO
        21 002702   000000 631400 22                 EPPR1   0
        21 002703   000000 701000 xent               TSX1    Z8ED$DISPOSE_ABSSYN_TREE
        21 002704   000000 011000                    NOP     0

     1444    22413
     1445    22414    2   END SET_STATEMENT;

  22414 21 002705   200010 221300                    LDX1  ! VAL_REC_COUNT+1,,AUTO
        21 002706   000001 702211                    TSX2  ! 1,X1

     1446    22415        %EJECT;
PL6.E3A0      #002=Z8EX$SET_STATEMENT File=Z8EX.:Z8A6TSI                         SAT 08/09/97 12:58 Page:214
     1447    22416        /*--------------*/
     1448    22417    1     MOVE_STATEMENT : PROC ( KEY_WORD$,

  22417 21 002707   200066 741300       MOVE_STATEM* STX1  ! @ON_OR_OFF,,AUTO

     1449    22418    1   /*--------------*/        SEND$,
     1450    22419    1                             REC$,
     1451    22420    1                             STATEMENT_TYPE);
     1452    22421
     1453    22422        /*I*
     1454    22423                 NAME: MOVE_STATEMENT
     1455    22424
     1456    22425          DESCRIPTION: Z8E7$MOVE_STATEMENT handles all MOVE statement semantics.
     1457    22426        */
     1458    22427
     1459    22428
     1460    22429    2     DCL KEY_WORD$ PTR;  /* To MOVE keyword */
     1461    22430    2     DCL SEND$     PTR;  /* To <ident_lit> */
     1462    22431    2     DCL REC$      PTR;  /* To <identifier_list> */
     1463    22432    2     DCL STATEMENT_TYPE  SBIN;     /* Type to check for DML SET  */
     1464    22433
     1465    22434    2     DCL IDENT$    PTR;
     1466    22435    2     DCL VAL_REQUIRED BOOLEAN;
     1467    22436
     1468    22437
     1469    22438          %STATEMENT_START_FROM_LX_TERM (@POINTER = KEY_WORD$,
     1470    22439                                         @TYPE = %S_TYPE_MOVE);

  22447 21 002710   200067 470500                    LDP0    @KEY_WORD$,,AUTO
        21 002711   000000 471500                    LDP1    0,,PR0
        21 002712   100005 235100                    LDA     5,,PR1
        21 002713   000007 755000 xsym               STA     O1COM+7

  22448 21 002714   000000 471500                    LDP1    0,,PR0
        21 002715   100006 235100                    LDA     6,,PR1
        21 002716   000010 755000 xsym               STA     O1COM+8

PL6.E3A0      #002=Z8EX$SET_STATEMENT File=Z8EX.:Z8A6TSI                         SAT 08/09/97 12:58 Page:215
  22449 21 002717   000011 236000 xsym               LDQ     O1COM+9
        21 002720   002735 600000 21                 TZE     s:22831

  22484 21 002721   000007 236000 22                 LDQ     7
        21 002722   200102 756100                    STQ     @CONST$+2,,AUTO
        21 002723   200102 631500                    EPPR1   @CONST$+2,,AUTO
        21 002724   200107 451500                    STP1    @CONST$+7,,AUTO
        21 002725   000010 236000 22                 LDQ     8
        21 002726   200106 756100                    STQ     @CONST$+6,,AUTO
        21 002727   000052 237000 22                 LDAQ    42
        21 002730   200104 757100                    STAQ    @CONST$+4,,AUTO
        21 002731   200104 630500                    EPPR0   @CONST$+4,,AUTO
        21 002732   000002 631400 22                 EPPR1   2
        21 002733   000000 701000 xent               TSX1    Z8AN$NEW_ILL
        21 002734   000000 011000                    NOP     0

  22831 21 002735   000031 235007                    LDA     25,DL
        21 002736   000011 755000 xsym               STA     O1COM+9

  22867 21 002737   000007 236000 22                 LDQ     7
        21 002740   200102 756100                    STQ     @CONST$+2,,AUTO
        21 002741   200102 630500                    EPPR0   @CONST$+2,,AUTO
        21 002742   200107 450500                    STP0    @CONST$+7,,AUTO
        21 002743   000010 236000 22                 LDQ     8
        21 002744   200106 756100                    STQ     @CONST$+6,,AUTO
        21 002745   000052 237000 22                 LDAQ    42
        21 002746   200104 757100                    STAQ    @CONST$+4,,AUTO
        21 002747   200104 630500                    EPPR0   @CONST$+4,,AUTO
        21 002750   000002 631400 22                 EPPR1   2
        21 002751   000000 701000 xent               TSX1    Z8AN$NEW_ILL
        21 002752   000000 011000                    NOP     0

     1471    23215
     1472    23216    2     IF REC$ -> LX_LIST.COUNT > 1

  23216 21 002753   200071 470500                    LDP0    @REC$,,AUTO
        21 002754   000000 471500                    LDP1    0,,PR0
PL6.E3A0      #002=Z8EX$SET_STATEMENT File=Z8EX.:Z8A6TSI                         SAT 08/09/97 12:58 Page:216
        21 002755   100002 235100                    LDA     2,,PR1
        21 002756   000001 115007                    CMPA    1,DL
        21 002757   003034 604400 21                 TMOZ    s:23608
        21 002760   200070 473500                    LDP3    @SEND$,,AUTO
        21 002761   300000 474500                    LDP4    0,,PR3
        21 002762   400000 220100                    LDX0    0,,PR4
        21 002763   000004 100003                    CMPX0   4,DU
        21 002764   003034 601000 21                 TNZ     s:23608
        21 002765   400001 475500                    LDP5    1,,PR4
        21 002766   500000 221100                    LDX1    0,,PR5
        21 002767   000015 101003                    CMPX1   13,DU
        21 002770   003034 600000 21                 TZE     s:23608

     1473    23217    2          AND SEND$ -> LX_ITEM.ID = %LX_ETT_ITEM
     1474    23218    2          AND SEND$ -> LX_ETT_ITEM.ETT$ -> ETT.ID ~= %TRIAD THEN
     1475    23219    3       DO;

     1476    23220    3         CALL Z8AF$FORME (%EVAL,

  23220 21 002771   000001 236000 22                 LDQ     1
        21 002772   200102 756100                    STQ     @CONST$+2,,AUTO
        21 002773   400001 631500                    EPPR1   1,,PR4
        21 002774   200107 451500                    STP1    @CONST$+7,,AUTO
        21 002775   200102 635500                    EPPR5   @CONST$+2,,AUTO
        21 002776   200106 455500                    STP5    @CONST$+6,,AUTO
        21 002777   400001 636500                    EPPR6   1,,PR4
        21 003000   200105 456500                    STP6    @CONST$+5,,AUTO
        21 003001   000004 236000 22                 LDQ     4
        21 003002   200104 756100                    STQ     @CONST$+4,,AUTO
        21 003003   200104 630500                    EPPR0   @CONST$+4,,AUTO
        21 003004   000002 631400 22                 EPPR1   2
        21 003005   000000 701000 xent               TSX1    Z8AF$FORME
        21 003006   000000 011000                    NOP     0

     1477    23221    3                          SEND$ -> LX_ETT_ITEM.ETT$,
     1478    23222    3                          ADDR(NIL),
     1479    23223    3                          SEND$ -> LX_ETT_ITEM.ETT$);
PL6.E3A0      #002=Z8EX$SET_STATEMENT File=Z8EX.:Z8A6TSI                         SAT 08/09/97 12:58 Page:217
     1480    23224              %NEW_ILL(@ID = %VAL,
     1481    23225                       @ETT$ = SEND$ -> LX_ETT_ITEM.ETT$);

  23293 21 003007   000007 236000 22                 LDQ     7
        21 003010   200102 756100                    STQ     @CONST$+2,,AUTO
        21 003011   200102 630500                    EPPR0   @CONST$+2,,AUTO
        21 003012   200107 450500                    STP0    @CONST$+7,,AUTO
        21 003013   000010 236000 22                 LDQ     8
        21 003014   200106 756100                    STQ     @CONST$+6,,AUTO
        21 003015   000012 237000 22                 LDAQ    10
        21 003016   200104 757100                    STAQ    @CONST$+4,,AUTO
        21 003017   200104 630500                    EPPR0   @CONST$+4,,AUTO
        21 003020   000002 631400 22                 EPPR1   2
        21 003021   000000 701000 xent               TSX1    Z8AN$NEW_ILL
        21 003022   000000 011000                    NOP     0

  23294 21 003023   200070 470500                    LDP0    @SEND$,,AUTO
        21 003024   000000 471500                    LDP1    0,,PR0
        21 003025   100001 236100                    LDQ     1,,PR1
        21 003026   000000 473400 16                 LDP3    ILL$
        21 003027   300001 756100                    STQ     1,,PR3

     1482    23604    3         VAL_REQUIRED = TRUE;

  23604 21 003030   400000 236003                    LDQ     -131072,DU
        21 003031   200074 756100                    STQ     VAL_REQUIRED,,AUTO

     1483    23605    3         VAL_REC_COUNT = 0 ;                                   /*#28761*/

  23605 21 003032   200007 450100                    STZ     VAL_REC_COUNT,,AUTO

     1484    23606    3       END;

  23606 21 003033   003035 710000 21                 TRA     s:23611

     1485    23607    2     ELSE
     1486    23608    2       VAL_REQUIRED = FALSE;
PL6.E3A0      #002=Z8EX$SET_STATEMENT File=Z8EX.:Z8A6TSI                         SAT 08/09/97 12:58 Page:218

  23608 21 003034   200074 450100                    STZ     VAL_REQUIRED,,AUTO

     1487    23609
     1488    23610
     1489    23611    2     IDENT$ = REC$ -> LX_LIST.HEAD$;

  23611 21 003035   200071 470500                    LDP0    @REC$,,AUTO
        21 003036   000000 471500                    LDP1    0,,PR0
        21 003037   100004 236100                    LDQ     4,,PR1
        21 003040   200073 756100                    STQ     IDENT$,,AUTO

     1490    23612
     1491    23613    3     DO WHILE IDENT$ ~= ADDR(NIL);

  23613 21 003041   003120 710000 21                 TRA     s:23635

     1492    23614
     1493    23615    3       IF STATEMENT_TYPE = %S_TYPE_MOVE    THEN

  23615 21 003042   200072 470500                    LDP0    @STATEMENT_TYPE,,AUTO
        21 003043   000000 235100                    LDA     0,,PR0
        21 003044   000031 115007                    CMPA    25,DL
        21 003045   003062 601000 21                 TNZ     s:23623

     1494    23616    3           CALL Z8E7$MOVE_STATEMENT (IDENT$, SEND$, ,STATEMENT_TYPE);

  23616 21 003046   200072 236100                    LDQ     @STATEMENT_TYPE,,AUTO
        21 003047   000001 235000 22                 LDA     1
        21 003050   200104 757100                    STAQ    @CONST$+4,,AUTO
        21 003051   200070 236100                    LDQ     @SEND$,,AUTO
        21 003052   200103 756100                    STQ     @CONST$+3,,AUTO
        21 003053   200073 631500                    EPPR1   IDENT$,,AUTO
        21 003054   200102 451500                    STP1    @CONST$+2,,AUTO
        21 003055   200102 630500                    EPPR0   @CONST$+2,,AUTO
        21 003056   000002 631400 22                 EPPR1   2
        21 003057   000000 701000 xent               TSX1    Z8E7$MOVE_STATEMENT
PL6.E3A0      #002=Z8EX$SET_STATEMENT File=Z8EX.:Z8A6TSI                         SAT 08/09/97 12:58 Page:219
        21 003060   000000 011000                    NOP     0
        21 003061   003114 710000 21                 TRA     s:23632

     1495    23617    3       ELSE
     1496    23618            /* This is a DML SET and needs to have an extra level of indirection
     1497    23619               and subscript modifcation if needed since the grammar is set up
     1498    23620               for SET of index items not data base keys.                   */
     1499    23621
     1500    23622    4         DO;

     1501    23623    4           IF IDENT$ -> LX_LIST.HEAD$ ~= IDENT$ -> LX_LIST.TAIL$   THEN

  23623 21 003062   200073 471500                    LDP1    IDENT$,,AUTO
        21 003063   100004 236100                    LDQ     4,,PR1
        21 003064   100001 116100                    CMPQ    1,,PR1
        21 003065   003100 600000 21                 TZE     s:23629

     1502    23624
     1503    23625                       /*   We have a subscript     */
     1504    23626    4              CALL Z8EY$SUBSCRIPT(IDENT$ -> LX_LIST.TAIL$,

  23626 21 003066   200073 236100                    LDQ     IDENT$,,AUTO
        21 003067   000004 036003                    ADLQ    4,DU
        21 003070   200103 756100                    STQ     @CONST$+3,,AUTO
        21 003071   200073 236100                    LDQ     IDENT$,,AUTO
        21 003072   000001 036003                    ADLQ    1,DU
        21 003073   200102 756100                    STQ     @CONST$+2,,AUTO
        21 003074   200102 630500                    EPPR0   @CONST$+2,,AUTO
        21 003075   000014 631400 22                 EPPR1   12
        21 003076   000000 701000 xent               TSX1    Z8EY$SUBSCRIPT
        21 003077   000000 011000                    NOP     0

     1505    23627    4                                  IDENT$ -> LX_LIST.HEAD$);
     1506    23628
     1507    23629    4           CALL Z8E7$MOVE_STATEMENT(IDENT$->LX_LIST.HEAD$,SEND$, ,STATEMENT_TYPE);

  23629 21 003100   200072 236100                    LDQ     @STATEMENT_TYPE,,AUTO
PL6.E3A0      #002=Z8EX$SET_STATEMENT File=Z8EX.:Z8A6TSI                         SAT 08/09/97 12:58 Page:220
        21 003101   000001 235000 22                 LDA     1
        21 003102   200104 757100                    STAQ    @CONST$+4,,AUTO
        21 003103   200070 236100                    LDQ     @SEND$,,AUTO
        21 003104   200103 756100                    STQ     @CONST$+3,,AUTO
        21 003105   200073 236100                    LDQ     IDENT$,,AUTO
        21 003106   000004 036003                    ADLQ    4,DU
        21 003107   200102 756100                    STQ     @CONST$+2,,AUTO
        21 003110   200102 630500                    EPPR0   @CONST$+2,,AUTO
        21 003111   000002 631400 22                 EPPR1   2
        21 003112   000000 701000 xent               TSX1    Z8E7$MOVE_STATEMENT
        21 003113   000000 011000                    NOP     0

     1508    23630    4         END;

     1509    23631
     1510    23632    3       IDENT$ = IDENT$ -> LX_ETT_ITEM.LINK;

  23632 21 003114   200073 470500                    LDP0    IDENT$,,AUTO
        21 003115   000007 236100                    LDQ     7,,PR0
        21 003116   200073 756100                    STQ     IDENT$,,AUTO

     1511    23633    3       VAL_REC_COUNT = VAL_REC_COUNT + 1 ;                     /*#28761*/

  23633 21 003117   200007 054100                    AOS     VAL_REC_COUNT,,AUTO

     1512    23634
     1513    23635    3     END;  /* DO WHILE */

  23635 21 003120   000001 116000 22                 CMPQ    1
        21 003121   003042 601000 21                 TNZ     s:23615

     1514    23636
     1515    23637    3     IF VAL_REQUIRED THEN DO ;                                 /*#28761*/

  23637 21 003122   200074 234100                    SZN     VAL_REQUIRED,,AUTO
        21 003123   003147 605000 21                 TPL     s:24021

PL6.E3A0      #002=Z8EX$SET_STATEMENT File=Z8EX.:Z8A6TSI                         SAT 08/09/97 12:58 Page:221
     1516    23638            %NEW_ILL (@ID = %VAL_END);

  23709 21 003124   000007 236000 22                 LDQ     7
        21 003125   200102 756100                    STQ     @CONST$+2,,AUTO
        21 003126   200102 630500                    EPPR0   @CONST$+2,,AUTO
        21 003127   200107 450500                    STP0    @CONST$+7,,AUTO
        21 003130   000010 236000 22                 LDQ     8
        21 003131   200106 756100                    STQ     @CONST$+6,,AUTO
        21 003132   000016 237000 22                 LDAQ    14
        21 003133   200104 757100                    STAQ    @CONST$+4,,AUTO
        21 003134   200104 630500                    EPPR0   @CONST$+4,,AUTO
        21 003135   000002 631400 22                 EPPR1   2
        21 003136   000000 701000 xent               TSX1    Z8AN$NEW_ILL
        21 003137   000000 011000                    NOP     0

  23710 21 003140   000001 236000 22                 LDQ     1
        21 003141   000000 470400 16                 LDP0    ILL$
        21 003142   000001 756100                    STQ     1,,PR0

     1517    24017    3       IF VAL_REC_COUNT > COMCOM.MAX_RECEIVING_ITEMS THEN      /*#28761*/

  24017 21 003143   200007 236100                    LDQ     VAL_REC_COUNT,,AUTO
        21 003144   000360 116000 xsym               CMPQ    COMCOM+240
        21 003145   003147 604400 21                 TMOZ    s:24021

     1518    24018    3         COMCOM.MAX_RECEIVING_ITEMS = VAL_REC_COUNT ;

  24018 21 003146   000360 756000 xsym               STQ     COMCOM+240

     1519    24019    3     END ;

     1520    24020
     1521    24021    2   END MOVE_STATEMENT;

  24021 21 003147   200066 221300                    LDX1  ! @ON_OR_OFF,,AUTO
        21 003150   000001 702211                    TSX2  ! 1,X1

PL6.E3A0      #002=Z8EX$SET_STATEMENT File=Z8EX.:Z8A6TSI                         SAT 08/09/97 12:58 Page:222
     1522    24022        %EJECT ;
PL6.E3A0      #002=Z8EX$SET_STATEMENT File=Z8EX.:Z8A6TSI                         SAT 08/09/97 12:58 Page:223
     1523    24023
     1524    24024           /* Main program  */
     1525    24025
     1526    24026    1      CALL SET_STATEMENT;

  24026 21 003151   000003 701000 21                 TSX1    SET_STATEMENT
        21 003152   000000 011000                    NOP     0

     1527    24027
     1528    24028    1    END Z8EX$SET_STATEMENT;

  24028 21 003153   000000 702200 xent               TSX2  ! X66_ARET
     1529    24029         %EJECT;
PL6.E3A0      #002=Z8EX$SET_STATEMENT File=Z8EX.:Z8A6TSI                         SAT 08/09/97 12:58 Page:224

PL6.E3A0      #002=Z8EX$SET_STATEMENT File=Z8EX.:Z8A6TSI                         SAT 08/09/97 12:58 Page:225
--  Include file information  --

   Z8E_STATEMNT.:Z8A6TOU  is referenced.
   Z8E_ABSSYN.:Z8A6TOU  cannot be made into a system file and is referenced.
   Z8E_HEAP.:Z8A6TOU  cannot be made into a system file and is referenced.
   Z8A_ILL.:Z8A6TOU  cannot be made into a system file and is referenced.
   Z8A_ETT.:Z8A6TOU  cannot be made into a system file and is referenced.
   Z8A_TYPES.:Z8A6TOU  is referenced.
   Z8A_ST.:Z8A6TOU  cannot be made into a system file and is referenced.
   Z8A_DNT.:Z8A6TOU  cannot be made into a system file and is referenced.
   Z8E_DML.:Z8A6TOU  is referenced.
   Z8A_MKCN.:Z8A6TOU  cannot be made into a system file and is referenced.
   Z8A_ERR_NUMS.:Z8A6TOU  is referenced.
   Z8E_ILS_LIST.:Z8A6TOU  is referenced.
   Z8E_NEW_ILL.:Z8A6TOU  is referenced.
   Z8E_MACROS.:Z8A6TOU  cannot be made into a system file and is referenced.
   Z8E_O1COM.:Z8A6TOU  cannot be made into a system file and is referenced.
   Z8A_LEX_SYMB.:Z8A6TOU  cannot be made into a system file and is referenced.
   Z8E_STACKS.:Z8A6TOU  cannot be made into a system file and is referenced.
   Z8E_WINDOW.:Z8A6TOU  is referenced.
   Z8A_COMCOM.:Z8A6TOU  cannot be made into a system file and is referenced.
   X8A_COM_MACS.:X8A6TOU  is referenced.
   Z8A_NAMES.:Z8A6TOU  is referenced.
   Z8A_SUPP_MAC.:Z8A6TOU  is referenced.
   Z8A_DEFC.:Z8A6TOU  cannot be made into a system file and is referenced.
      No diagnostics issued in procedure Z8EX$SET_STATEMENT.
PL6.E3A0      #002=Z8EX$SET_STATEMENT File=Z8EX.:Z8A6TSI                         SAT 08/09/97 12:58 Page:226

 **** Variables and constants ****

  ****  Section 000 LblCom ITERATION

  ****  Scalars and arrays  ****
OctLoc.c.b A Datatyp(siz) R M Lvl/name                 OctLoc.c.b A Datatyp(siz) R M Lvl/name

     0-0-0/w SBIN              1 ITERATION

  ****  Section 001 LblCom LEX_SYMBOL

  ****  Scalars and arrays  ****
OctLoc.c.b A Datatyp(siz) R M Lvl/name                 OctLoc.c.b A Datatyp(siz) R M Lvl/name

     0-0-0/w STRC(3240)  r     1 LEX_SYMBOL                 0-0-0/w STRC(3240)        1 LEX_SYMBOL_WORDS

  ****  Section 002 LblCom CURRENT_LEX_SYMBOL$

  ****  Scalars and arrays  ****
OctLoc.c.b A Datatyp(siz) R M Lvl/name                 OctLoc.c.b A Datatyp(siz) R M Lvl/name

     0-0-0/w PTR         r     1 CURRENT_LEX_SYMBOL$

  ****  Section 003 LblCom TEMP_LEX_SYMBOL

  ****  Scalars and arrays  ****
OctLoc.c.b A Datatyp(siz) R M Lvl/name                 OctLoc.c.b A Datatyp(siz) R M Lvl/name

     0-0-0/w STRC(3240)        1 TEMP_LEX_SYMBOL

  ****  Section 004 LblCom TEMP_LEX_SYMBOL2

  ****  Scalars and arrays  ****
OctLoc.c.b A Datatyp(siz) R M Lvl/name                 OctLoc.c.b A Datatyp(siz) R M Lvl/name

     0-0-0/w STRC(3240)        1 TEMP_LEX_SYMBOL2

PL6.E3A0      #002=Z8EX$SET_STATEMENT File=Z8EX.:Z8A6TSI                         SAT 08/09/97 12:58 Page:227
  ****  Section 005 LblCom MKCN

  ****  Scalars and arrays  ****
OctLoc.c.b A Datatyp(siz) R M Lvl/name                 OctLoc.c.b A Datatyp(siz) R M Lvl/name

     0-0-0/w STRC(72)    r     1 MKCN

  ****  Section 006 LblCom DNT$

  ****  Scalars and arrays  ****
OctLoc.c.b A Datatyp(siz) R M Lvl/name                 OctLoc.c.b A Datatyp(siz) R M Lvl/name

     0-0-0/w PTR         r     1 DNT$

  ****  Section 007 LblCom DNT_

  ****  Scalars and arrays  ****
OctLoc.c.b A Datatyp(siz) R M Lvl/name                 OctLoc.c.b A Datatyp(siz) R M Lvl/name

     0-0-0/w STRC(180)         1 DNT_

  ****  Section 008 LblCom DNT_BUCKET_NUMBER

  ****  Scalars and arrays  ****
OctLoc.c.b A Datatyp(siz) R M Lvl/name                 OctLoc.c.b A Datatyp(siz) R M Lvl/name

     0-0-0/w UBIN              1 DNT_BUCKET_NUMBER

  ****  Section 009 LblCom DNT_OF_1$

  ****  Scalars and arrays  ****
OctLoc.c.b A Datatyp(siz) R M Lvl/name                 OctLoc.c.b A Datatyp(siz) R M Lvl/name

     0-0-0/w PTR               1 DNT_OF_1$

  ****  Section 010 LblCom ST$

PL6.E3A0      #002=Z8EX$SET_STATEMENT File=Z8EX.:Z8A6TSI                         SAT 08/09/97 12:58 Page:228
  ****  Scalars and arrays  ****
OctLoc.c.b A Datatyp(siz) R M Lvl/name                 OctLoc.c.b A Datatyp(siz) R M Lvl/name

     0-0-0/w PTR         r     1 ST$

  ****  Section 011 LblCom ST_

  ****  Scalars and arrays  ****
OctLoc.c.b A Datatyp(siz) R M Lvl/name                 OctLoc.c.b A Datatyp(siz) R M Lvl/name

     0-0-0/w STRC(180)         1 ST_

  ****  Section 012 LblCom ETT$

  ****  Scalars and arrays  ****
OctLoc.c.b A Datatyp(siz) R M Lvl/name                 OctLoc.c.b A Datatyp(siz) R M Lvl/name

     0-0-0/w PTR         r     1 ETT$

  ****  Section 013 LblCom HEAD_ETT$

  ****  Scalars and arrays  ****
OctLoc.c.b A Datatyp(siz) R M Lvl/name                 OctLoc.c.b A Datatyp(siz) R M Lvl/name

     0-0-0/w PTR               1 HEAD_ETT$

  ****  Section 014 LblCom ETT_BUCKETS

  ****  Scalars and arrays  ****
OctLoc.c.b A Datatyp(siz) R M Lvl/name                 OctLoc.c.b A Datatyp(siz) R M Lvl/name

     0-0-0/w PTR               1 ETT_BUCKETS(0:511)

  ****  Section 015 LblCom ETT_

  ****  Scalars and arrays  ****
OctLoc.c.b A Datatyp(siz) R M Lvl/name                 OctLoc.c.b A Datatyp(siz) R M Lvl/name
PL6.E3A0      #002=Z8EX$SET_STATEMENT File=Z8EX.:Z8A6TSI                         SAT 08/09/97 12:58 Page:229

     0-0-0/w STRC(180)         1 ETT_

  ****  Section 016 LblCom ILL$

  ****  Scalars and arrays  ****
OctLoc.c.b A Datatyp(siz) R M Lvl/name                 OctLoc.c.b A Datatyp(siz) R M Lvl/name

     0-0-0/w PTR         r     1 ILL$

  ****  Section 017 LblCom ILL_

  ****  Scalars and arrays  ****
OctLoc.c.b A Datatyp(siz) R M Lvl/name                 OctLoc.c.b A Datatyp(siz) R M Lvl/name

     0-0-0/w STRC(180)         1 ILL_

  ****  Section 018 LblCom HEAP$

  ****  Scalars and arrays  ****
OctLoc.c.b A Datatyp(siz) R M Lvl/name                 OctLoc.c.b A Datatyp(siz) R M Lvl/name

     0-0-0/w PTR               1 HEAP$

  ****  Section 019 LblCom TEMP_LX_NODE

  ****  Scalars and arrays  ****
OctLoc.c.b A Datatyp(siz) R M Lvl/name                 OctLoc.c.b A Datatyp(siz) R M Lvl/name

     0-0-0/d STRC(288)         1 TEMP_LX_NODE

  ****  Section 020 RoData Z8EX$SET_STATEMENT

  ****  Scalars and arrays  ****
OctLoc.c.b A Datatyp(siz) R M Lvl/name                 OctLoc.c.b A Datatyp(siz) R M Lvl/name

     0-0-0/b BIT         r     1 SW_VALUE(0:35)
PL6.E3A0      #002=Z8EX$SET_STATEMENT File=Z8EX.:Z8A6TSI                         SAT 08/09/97 12:58 Page:230

  ****  Auto variables  ****

  ****  Scalars and arrays  ****
OctLoc.c.b A Datatyp(siz) R M Lvl/name                 OctLoc.c.b A Datatyp(siz) R M Lvl/name

   100-0-0/w PTR         r     1 @CONST$                    3-0-0/w PTR         r     1 @KEY_WORD$
    67-0-0/w PTR         r     1 @KEY_WORD$                66-0-0/w PTR         r     1 @ON_OR_OFF
    73-0-0/w PTR         r     1 @REC$                     71-0-0/w PTR         r     1 @REC$
     4-0-0/w PTR         r     1 @RECEIVE$                 65-0-0/w PTR         r     1 @RECEIVE$
    65-0-0/w PTR         r     1 @RECEIVE$                 65-0-0/w PTR         r     1 @RECEIVE$
    65-0-0/w PTR         r     1 @RECEIVE$                 65-0-0/w PTR         r     1 @RECEIVE$
    65-0-0/w PTR         r     1 @RECEIVE$                 73-0-0/w PTR         r     1 @REC_SW#
     5-0-0/w PTR         r     1 @SEND$                    66-0-0/w PTR         r     1 @SEND$
    66-0-0/w PTR         r     1 @SEND$                    66-0-0/w PTR         r     1 @SEND$
    66-0-0/w PTR         r     1 @SEND$                    74-0-0/w PTR         r     1 @SEND$
    70-0-0/w PTR         r     1 @SEND$                    74-0-0/w PTR         r     1 @SEND_SW#
     6-0-0/w PTR         r     1 @SET_TYPE                 67-0-0/w PTR         r     1 @SET_TYPE
    72-0-0/w PTR         r     1 @STATEMENT_TYPE           77-0-0/w PTR         r     1 @SW#
    54-0-0/d STRC(288)   r     1 ASS_VAR                   25-0-0/w PTR         r     1 CONST$
    *0-0-0/w PTR         r     1 CONST$                    26-0-0/w PTR         r     1 END_LABEL$
    73-0-0/w PTR         r     1 IDENT$                    *0-0-0/w PTR         r     1 KEY_WORD$
    *0-0-0/w PTR         r     1 KEY_WORD$                 27-0-0/w PTR         r     1 OFF_SW_LABEL$
    *0-0-0/w SBIN        r     1 ON_OR_OFF                 20-0-0/w SBIN        r     1 ORIG_COLUMN#
    17-0-0/w SBIN        r     1 ORIG_LINE#                11-0-0/w PTR               1 P$
    12-0-0/w PTR         r     1 P1$                       13-0-0/w PTR         r     1 P2$
    14-0-0/w PTR         r     1 P3$                       15-0-0/w PTR         r     1 P4$
    22-0-0/w PTR         r     1 R$                        70-0-0/w PTR         r     1 R$
    75-0-0/w PTR         r     1 R$                        21-0-0/w PTR         r     1 REC$
    70-0-0/w PTR         r     1 REC$                      67-0-0/w PTR         r     1 REC$
    66-0-0/w PTR         r     1 REC$                      67-0-0/w PTR         r     1 REC$
    67-0-0/w PTR         r     1 REC$                      *0-0-0/w PTR         r     1 REC$
    *0-0-0/w PTR         r     1 REC$                      *0-0-0/w PTR         r     1 RECEIVE$
    *0-0-0/w PTR         r     1 RECEIVE$                  *0-0-0/w PTR         r     1 RECEIVE$
    *0-0-0/w PTR         r     1 RECEIVE$                  *0-0-0/w PTR         r     1 RECEIVE$
    *0-0-0/w PTR         r     1 RECEIVE$                  *0-0-0/w PTR         r     1 RECEIVE$
    *0-0-0/w SBIN        r     1 REC_SW#                   70-0-0/w PTR         r     1 S$
PL6.E3A0      #002=Z8EX$SET_STATEMENT File=Z8EX.:Z8A6TSI                         SAT 08/09/97 12:58 Page:231
    *0-0-0/w PTR         r     1 SEND$                     *0-0-0/w PTR         r     1 SEND$
    *0-0-0/w PTR         r     1 SEND$                     *0-0-0/w PTR         r     1 SEND$
    *0-0-0/w PTR         r     1 SEND$                     *0-0-0/w PTR         r     1 SEND$
    *0-0-0/w PTR         r     1 SEND$                     *0-0-0/w SBIN        r     1 SEND_SW#
    *0-0-0/w SBIN        r     1 SET_TYPE                  *0-0-0/w SBIN        r     1 SET_TYPE
    23-0-0/w PTR         r     1 ST$                       24-0-0/w PTR         r     1 ST2$
    *0-0-0/w SBIN        r     1 STATEMENT_TYPE            30-0-0/w SBIN        r     1 SW#
    *0-0-0/w SBIN        r     1 SW#                       31-0-0/w SBIN        r     1 SW2#
    44-0-0/d STRC(288)   r     1 SW_ON_COND                34-0-0/d STRC(288)   r     1 SW_VALUE
    16-0-0/w PTR         r     1 T$                         7-0-0/w SBIN        r     1 VAL_REC_COUNT
    32-0-0/b BIT         r     1 VAL_REQUIRED              74-0-0/b BIT         r     1 VAL_REQUIRED

  ****  SYMREF variables  ****

  ****  Scalars and arrays  ****
OctLoc.c.b A Datatyp(siz) R M Lvl/name                 OctLoc.c.b A Datatyp(siz) R M Lvl/name

     0-0-0/d STRC(13248) r     1 COMCOM
     0-0-0/w STRC(180)         1 HIER_STK(0:50)
     0-0-0/w SBIN              1 HIER_STK_PTR               0-0-0/w UBIN              1 ILL_STEP(0:144)
     0-0-0/d STRC(11580) r     1 O1COM                      0-0-0/w STRC(144)         1 PAGE_FORMAT
     0-0-0/w STRC(153)         1 REP_STK(0:50)              0-0-0/w SBIN              1 REP_STK_PTR

  ****  BASED and DCB variables  ****

  ****  Scalars and arrays  ****
OctLoc.c.b A Datatyp(siz) R M Lvl/name                 OctLoc.c.b A Datatyp(siz) R M Lvl/name

     0-0-0/w STRC(108)         1 ACCEPT_DISPLAY             0-0-0/w STRC(288)         1 ADD_STMT
     0-0-0/w STRC(396)         1 ALPHABET                   0-0-0/w STRC(396)         1 ARRAY
     0-0-0/w ASTR(324)   r     1 BASED_LEX_SYMBOL
     0-0-0/w STRC(360)         1 BASED_LEX_SYMBOL_WORDS
     0-0-0/w STRC(108)         1 BINARY_ILL                 0-0-0/w STRC(288)         1 BINARY_OP
     0-0-0/w STRC(396)         1 BLOCK                      0-0-0/w STRC(144)         1 BRANCH_ILL
     0-0-0/w STRC(288)         1 CALL_STMT                  0-0-0/w STRC(216)         1 CCOSU
     0-0-0/w STRC(396)         1 CD                         0-0-0/w CHAR(4096)        1 CHARS
     0-0-0/w STRC(396)         1 CLASS                      0-0-0/w STRC(108)         1 CODED_MOVE
PL6.E3A0      #002=Z8EX$SET_STATEMENT File=Z8EX.:Z8A6TSI                         SAT 08/09/97 12:58 Page:232
     0-0-0/w STRC(288)         1 COMPUTE_STMT               0-0-0/w STRC(396)   r     1 CONDITION
     0-0-0/w STRC(396)         1 CONST                      0-0-0/w STRC(72)          1 CONT
     0-0-0/w STRC(396)         1 DB                         0-0-0/w STRC(396)         1 DCB_
     0-0-0/w STRC(288)         1 DEFERED_IDENTIFIER         0-0-0/w STRC(252)         1 DEFERED_ID_TREE
     0-0-0/w STRC(288)         1 DEFERED_QUAL_ID            0-0-0/w STRC(288)         1 DEFERED_SUM_CLAUSE
     0-0-0/w STRC(288)         1 DEFERED_SUM_CLAUSE_LIST
     0-0-0/w STRC(144)   r     1 DEFLB                      0-0-0/w STRC(288)         1 DELETE_STMT
     0-0-0/w STRC(288)         1 DIVIDE_STMT                0-0-0/w STRC(396)         1 DML_ITEM
     0-0-0/w ASTR(180)   r     1 DNT                        0-0-0/w STRC(144)         1 DOEND
     0-0-0/w STRC(396)         1 DO_N                       0-0-0/w STRC(180)         1 DV4I
     0-0-0/w STRC(180)         1 ENTRY_ILL                  0-0-0/w STRC(180)   r     1 ETT
     0-0-0/w STRC(108)         1 EVALU                      0-0-0/w STRC(396)         1 FD
     0-0-0/w STRC(144)         1 GO                         0-0-0/w STRC(180)         1 ILL
     0-0-0/w STRC              1 ILL_NO_OPS                 0-0-0/w STRC(288)         1 ILS_LIST
     0-0-0/w STRC(288)         1 INSPECT_1_STMT             0-0-0/w STRC(288)         1 INSPECT_2_STMT
     0-0-0/w STRC(288)         1 INSPECT_4_STMT             0-0-0/w STRC(396)         1 INTDEF
     0-0-0/w STRC(396)         1 LABEL                      0-0-0/w STRC(288)         1 LA_ITEM
     0-0-0/w STRC(108)         1 LINOI                      0-0-0/w STRC(504)         1 LX_CD_INPUT
     0-0-0/w STRC(324)         1 LX_CD_I_O                  0-0-0/w STRC(396)         1 LX_CD_OUTPUT
     0-0-0/w STRC(288)   r     1 LX_ETT_ITEM                0-0-0/w STRC(288)   r     1 LX_ITEM
     0-0-0/w STRC(288)         1 LX_LARGE                   0-0-0/w STRC(288)   r     1 LX_LIST
     0-0-0/w STRC(1224)        1 LX_REC_DECL                0-0-0/w STRC(864)         1 LX_REPORT_REC
     0-0-0/w STRC(288)   r     1 LX_TERMINAL                0-0-0/w STRC(72)          1 MFILL
     0-0-0/w STRC(396)         1 MNEMONIC                   0-0-0/w STRC(288)         1 MULTIPLY_STMT
     0-0-0/w STRC(180)         1 MULTI_GO                   0-0-0/w STRC(180)         1 MVEAL
     0-0-0/w STRC(108)         1 MVFIL                      0-0-0/w STRC(72)          1 MVIIS
     0-0-0/w STRC(180)         1 OS_CALL                    0-0-0/w STRC(36864)       1 PAGE
     0-0-0/w STRC(396)         1 PARA                       0-0-0/w STRC(216)         1 PFORM
     0-0-0/w STRC(144)         1 PINC                       0-0-0/w STRC(144)         1 PREOFF
     0-0-0/w STRC(108)         1 PRESET                     0-0-0/w STRC(396)         1 PROC_
     0-0-0/w STRC(396)         1 PROC_DEF                   0-0-0/w STRC(144)         1 P_A_PRESET
     0-0-0/w STRC(144)         1 P_P_PRESET                 0-0-0/w STRC(396)         1 RD
     0-0-0/w STRC(288)         1 READ_STMT                  0-0-0/w STRC(144)         1 REMEM
     0-0-0/w STRC(288)         1 REWRITE_STMT               0-0-0/w STRC(396)         1 SCALAR
     0-0-0/w STRC(144)         1 SCOPE                      0-0-0/w STRC(396)         1 SD
     0-0-0/w STRC(216)         1 SEARCH_                    0-0-0/w STRC(396)         1 SECTION
     0-0-0/w STRC(396)         1 SEGMENT                    0-0-0/w STRC(396)   r     1 ST
PL6.E3A0      #002=Z8EX$SET_STATEMENT File=Z8EX.:Z8A6TSI                         SAT 08/09/97 12:58 Page:233
     0-0-0/w STRC(288)         1 START_STMT                 0-0-0/w STRC(72)          1 STP2
     0-0-0/w STRC(252)         1 STRING_STMT                0-0-0/w STRC(288)         1 SUBTRACT_STMT
     0-0-0/w STRC(396)   r     1 SWITCH                     0-0-0/w STRC(396)         1 SYMBOLIC_CHAR
     0-0-0/w STRC(396)         1 SYMDEF_                    0-0-0/w STRC(396)         1 SYMREF_
     0-0-0/w STRC(396)         1 TEMP                       0-0-0/w STRC(144)         1 TRINARY_ILL
     0-0-0/w STRC(72)    r     1 UNARY_ILL                  0-0-0/w STRC(288)   r     1 UNARY_OP
     0-0-0/w STRC(288)         1 UNSTRING_STMT              0-0-0/w STRC(216)         1 USER_CALL
     0-0-0/w STRC(108)   r     1 VAL                        0-0-0/w STRC(108)   r     1 VAL_END
     0-0-0/w STRC(396)   r     1 VARIABLE                   0-0-0/w STRC(72)          1 WHEN
     0-0-0/w STRC(288)         1 WRITE_STMT


   Procedure Z8EX$SET_STATEMENT requires 1644 words for executable code.
   Procedure Z8EX$SET_STATEMENT requires 84 words of local(AUTO) storage.

    No errors detected in file Z8EX.:Z8A6TSI    .
