VERSION A06

PL6.E3A0      #001=Z8EY$BUILD_RUNTIME_ARGLIST File=Z8EY.:Z8A6TSI                 SAT 08/09/97 12:58 Page:1
        1        1        /*T***********************************************************/
        2        2        /*T*                                                         */
        3        3        /*T* Copyright (c) Bull HN Information Systems Inc., 1997    */
        4        4        /*T*                                                         */
        5        5        /*T***********************************************************/
        6        6        Z8EY$BUILD_RUNTIME_ARGLIST: PROC (LIST_TOP$, ARG_LIST$, IDENT_COUNT);
        7        7
        8        8        %SET PHASE = 1;
        9        9
       10       10        %INCLUDE Z8A_DEFC;
       11       78        %INCLUDE Z8A_SUPP_MAC;
       12     2478        %INCLUDE Z8A_LTS;
       13     4555        %INCLUDE Z8A_ILL;
       14     5248        %INCLUDE Z8E_HEAP;
       15     5304        %INCLUDE Z8A_ETT;
       16     5605        %INCLUDE Z8A_ST;
       17     9264        %INCLUDE Z8A_QLT;
       18     9370        %INCLUDE Z8E_STACKS;
       19    11636        %INCLUDE Z8E_O1COM;
       20    12397
       21    12398    1   DCL Z8EU$FREE_LIST_ENTRY ENTRY (1);
       22    12399    1   DCL Z8EY$CHECK_OPTZ      ENTRY (1);
       23    12400
       24    12401    1   DCL LIST_TOP$                 PTR;
       25    12402    1   DCL LIST$                     PTR;
       26    12403    1   DCL ARG_LIST$                 PTR;
       27    12404    1   DCL IDENT_COUNT               SBIN WORD;
       28    12405
       29    12406    1   DCL ARG_COUNT                 SBIN WORD;
       30    12407    1   DCL ARG_PTR$                  PTR;
       31    12408    1   DCL ST$$                      PTR;
       32    12409    1   DCL QLT$$                     PTR;
       33    12410    1   DCL LTS_UBIN                  UBIN STATIC INIT (0);
       34    12411    1   DCL ZERO_PTR$                 REDEF LTS_UBIN PTR;
       35    12412
       36    12413           /* Count the number of args to put in the list */
       37    12414    1      ARG_COUNT = 0;
PL6.E3A0      #001=Z8EY$BUILD_RUNTIME_ARGLIST File=Z8EY.:Z8A6TSI                 SAT 08/09/97 12:58 Page:2
       38    12415    1      LIST$ = LIST_TOP$;
       39    12416    2      DO WHILE LIST$ ~= ADDR(NIL);
       40    12417    2        ARG_COUNT = ARG_COUNT + 1;
       41    12418    2        LIST$ = LIST$ -> LX_ETT_ITEM.LINK;
       42    12419    2      END;
       43    12420
       44    12421    1      ITERATION = ARG_COUNT + 1;
       45    12422           %RESERVE_LTS (ITEM=%ARGLIST, POINTER = ARG_LIST$);
       46    12508
       47    12509    1      LIST$ = LIST_TOP$;
       48    12510    1      ARG_COUNT = 0;
       49    12511
       50    12512    2      DO WHILE (LIST$ ~= ADDR(NIL));
       51    12513    2        ARG_PTR$ = LIST$ -> LX_ETT_ITEM.ETT$;
       52    12514    2        ARG_LIST$ -> ARGLIST.ARG$(ARG_COUNT) = ARG_PTR$;
       53    12515
       54    12516             /* Inhibit Z8GO "VALUE" optimization for scalars used as args */
       55    12517    3        IF ARG_PTR$ ~= ADDR(NIL) THEN DO;
       56    12518               %FISH (TRIAD = ARG_PTR$, RTN = ST$$);
       57    12526    3          QLT$$ = ST$$ -> SCALAR.QLT$;
       58    12527    3          IF  ST$$ -> SCALAR.LTS$ ~= ADDR(NIL) /* Possible VALUE clause */
       59    12528    3          AND ST$$ -> SCALAR.LTS$ ~= ZERO_PTR$
       60    12529    3          AND ST$$ -> SCALAR.LTS$ -> ETT.ID = %TRIAD THEN
       61    12530    3            ST$$ -> SCALAR.LTS$ = ADDR(NIL);
       62    12531    3          IF  QLT$$ ~= ADDR(NIL)
       63    12532    3          AND QLT$$ ~= ZERO_PTR$ THEN
       64    12533    3            QLT$$ = QLT$$ -> QLT.SON;
       65    12534    3          IF  QLT$$ ~= ADDR(NIL)
       66    12535    3          AND QLT$$ ~= ZERO_PTR$ THEN
       67    12536    3            CALL Z8EY$CHECK_OPTZ (QLT$$); /* Check sons and brothers */
       68    12537    3        END; /* Inhibit Z8GO "VALUE" optimization. */
       69    12538
       70    12539    2        ARG_COUNT = ARG_COUNT + 1;
       71    12540    2        LIST$ = LIST$ -> LX_ETT_ITEM.LINK;
       72    12541    2      END; /* Until -- list$ ~= addr(nil) */
       73    12542
       74    12543    1   END; /* Proc -- Z8EY$build_runtime_arglist */
PL6.E3A0      #001=Z8EY$BUILD_RUNTIME_ARGLIST File=Z8EY.:Z8A6TSI                 SAT 08/09/97 12:58 Page:3
       75    12544        %EJECT;
PL6.E3A0      #001=Z8EY$BUILD_RUNTIME_ARGLIST File=Z8EY.:Z8A6TSI                 SAT 08/09/97 12:58 Page:4
       76    12545        %EOD;

PL6.E3A0      #001=Z8EY$BUILD_RUNTIME_ARGLIST File=Z8EY.:Z8A6TSI                 SAT 08/09/97 12:58 Page:5
--  Include file information  --

   Z8E_O1COM.:Z8A6TOU  cannot be made into a system file and is referenced.
   Z8A_LEX_SYMB.:Z8A6TOU  cannot be made into a system file and is referenced.
   Z8E_STACKS.:Z8A6TOU  cannot be made into a system file and is referenced.
   Z8A_QLT.:Z8A6TOU  cannot be made into a system file and is referenced.
   Z8A_ST.:Z8A6TOU  cannot be made into a system file and is referenced.
   Z8A_ETT.:Z8A6TOU  cannot be made into a system file and is referenced.
   Z8E_HEAP.:Z8A6TOU  cannot be made into a system file and is referenced.
   Z8A_ILL.:Z8A6TOU  cannot be made into a system file and is referenced.
   Z8A_LTS.:Z8A6TOU  cannot be made into a system file and is referenced.
   X8A_COM_MACS.:X8A6TOU  is referenced.
   Z8A_NAMES.:Z8A6TOU  is referenced.
   Z8A_SUPP_MAC.:Z8A6TOU  is referenced.
   Z8A_DEFC.:Z8A6TOU  cannot be made into a system file and is referenced.
      No diagnostics issued in procedure Z8EY$BUILD_RUNTIME_ARGLIST.

   Procedure Z8EY$BUILD_RUNTIME_ARGLIST requires 107 words for executable code.
   Procedure Z8EY$BUILD_RUNTIME_ARGLIST requires 14 words of local(AUTO) storage.

PL6.E3A0      #001=Z8EY$BUILD_RUNTIME_ARGLIST File=Z8EY.:Z8A6TSI                 SAT 08/09/97 12:58 Page:6

 Object Unit name= Z8EY$BUILD_RUNTIME_ARGLIST                 File name= Z8EY.:Z8A6TOU
 UTS= AUG 09 '97 12:58:53.52 SAT                              Compiler= PL-6/E31         Sev=      00
 SharedLib= :SHARED_SYSTEM                                    Alt SharedLib=


    ****  Control sections  ****

 Sect   Type Bound  Init  Size OctSiz  Section name(segment info)
    0  LblCom even  none     1      1  ITERATION
    1  LblCom even  none     1      1  LTS$
    2  LblCom even  none     5      5  LTS_
    3  LblCom even  none     1      1  ILL$
    4  LblCom even  none     5      5  ILL_
    5  LblCom even  none     1      1  HEAP$
    6  LblCom even  none     1      1  ETT$
    7  LblCom even  none     1      1  HEAD_ETT$
    8  LblCom even  none   512   1000  ETT_BUCKETS
    9  LblCom even  none     5      5  ETT_
   10  LblCom even  none     1      1  ST$
   11  LblCom even  none     5      5  ST_
   12  LblCom even  none     1      1  QLT$
   13  LblCom even  none     1      1  PREV_01_QLT$
   14  LblCom even  none     5      5  QLT_
   15  LblCom even  none    90    132  LEX_SYMBOL
   16  LblCom even  none     1      1  CURRENT_LEX_SYMBOL$
   17  LblCom even  none    90    132  TEMP_LEX_SYMBOL
   18  LblCom even  none    90    132  TEMP_LEX_SYMBOL2
   19   Data  even  none     1      1  Z8EY$BUILD_RUNTIME_ARGLIST
   20   Proc  even  none   107    153  Z8EY$BUILD_RUNTIME_ARGLIST
   21  RoData even  none     3      3  Z8EY$BUILD_RUNTIME_ARGLIST

    ****  Entry defs  ****

                              Check   Calling
                             calling  sequence
  Sect OctLoc Primary Altret sequence   type   Parms  Name
    20      0   yes            yes      Std        3  Z8EY$BUILD_RUNTIME_ARGLIST
PL6.E3A0      #001=Z8EY$BUILD_RUNTIME_ARGLIST File=Z8EY.:Z8A6TSI                 SAT 08/09/97 12:58 Page:7

  ****  Entry refs  ****

         Check        Calling
        calling       sequence
Altret sequence SRef   type   Args  Name
         yes           Std       1 Z8AR$RESERVER
         yes           Std       1 Z8EY$CHECK_OPTZ
                       nStd      0 X66_AUTO_3
                       nStd      0 X66_ARET

  ****  Data refs  ****

  Flags:  r = read only, s = secondary
Flgs Name                             Flgs Name                             Flgs Name
r    LTS_STEP                         r    ILL_STEP                              O1COM
     HIER_STK_PTR                          HIER_STK                              PAGE_FORMAT
     REP_STK_PTR                           REP_STK

  ****  Segment refs  ****

  Flags:  r = read only, s = secondary
Flgs Name                             Flgs Name                             Flgs Name
     NULLSID                               ISSID
PL6.E3A0      #001=Z8EY$BUILD_RUNTIME_ARGLIST File=Z8EY.:Z8A6TSI                 SAT 08/09/97 12:58 Page:8


        1        1        /*T***********************************************************/
        2        2        /*T*                                                         */
        3        3        /*T* Copyright (c) Bull HN Information Systems Inc., 1997    */
        4        4        /*T*                                                         */
        5        5        /*T***********************************************************/
        6        6        Z8EY$BUILD_RUNTIME_ARGLIST: PROC (LIST_TOP$, ARG_LIST$, IDENT_COUNT);

      6 20 000000   000000 700200 xent  Z8EY$BUILD_* TSX0  ! X66_AUTO_3
        20 000001   000016 000003                    ZERO    14,3

        7        7
        8        8        %SET PHASE = 1;
        9        9
       10       10        %INCLUDE Z8A_DEFC;
       11       78        %INCLUDE Z8A_SUPP_MAC;
       12     2478        %INCLUDE Z8A_LTS;
       13     4555        %INCLUDE Z8A_ILL;
       14     5248        %INCLUDE Z8E_HEAP;
       15     5304        %INCLUDE Z8A_ETT;
       16     5605        %INCLUDE Z8A_ST;
       17     9264        %INCLUDE Z8A_QLT;
       18     9370        %INCLUDE Z8E_STACKS;
       19    11636        %INCLUDE Z8E_O1COM;
       20    12397
       21    12398    1   DCL Z8EU$FREE_LIST_ENTRY ENTRY (1);
       22    12399    1   DCL Z8EY$CHECK_OPTZ      ENTRY (1);
       23    12400
       24    12401    1   DCL LIST_TOP$                 PTR;
       25    12402    1   DCL LIST$                     PTR;
       26    12403    1   DCL ARG_LIST$                 PTR;
       27    12404    1   DCL IDENT_COUNT               SBIN WORD;
       28    12405
       29    12406    1   DCL ARG_COUNT                 SBIN WORD;
       30    12407    1   DCL ARG_PTR$                  PTR;
       31    12408    1   DCL ST$$                      PTR;
       32    12409    1   DCL QLT$$                     PTR;
PL6.E3A0      #001=Z8EY$BUILD_RUNTIME_ARGLIST File=Z8EY.:Z8A6TSI                 SAT 08/09/97 12:58 Page:9
       33    12410    1   DCL LTS_UBIN                  UBIN STATIC INIT (0);
       34    12411    1   DCL ZERO_PTR$                 REDEF LTS_UBIN PTR;
       35    12412
       36    12413           /* Count the number of args to put in the list */
       37    12414    1      ARG_COUNT = 0;

  12414 20 000002   200007 450100                    STZ     ARG_COUNT,,AUTO

       38    12415    1      LIST$ = LIST_TOP$;

  12415 20 000003   200003 470500                    LDP0    @LIST_TOP$,,AUTO
        20 000004   000000 236100                    LDQ     0,,PR0
        20 000005   200006 756100                    STQ     LIST$,,AUTO

       39    12416    2      DO WHILE LIST$ ~= ADDR(NIL);

  12416 20 000006   000013 710000 20                 TRA     s:12419

       40    12417    2        ARG_COUNT = ARG_COUNT + 1;

  12417 20 000007   200007 054100                    AOS     ARG_COUNT,,AUTO

       41    12418    2        LIST$ = LIST$ -> LX_ETT_ITEM.LINK;

  12418 20 000010   200006 470500                    LDP0    LIST$,,AUTO
        20 000011   000007 236100                    LDQ     7,,PR0
        20 000012   200006 756100                    STQ     LIST$,,AUTO

       42    12419    2      END;

  12419 20 000013   000000 116000 21                 CMPQ    0
        20 000014   000007 601000 20                 TNZ     s:12417

       43    12420
       44    12421    1      ITERATION = ARG_COUNT + 1;

  12421 20 000015   200007 235100                    LDA     ARG_COUNT,,AUTO
PL6.E3A0      #001=Z8EY$BUILD_RUNTIME_ARGLIST File=Z8EY.:Z8A6TSI                 SAT 08/09/97 12:58 Page:10
        20 000016   000001 035007                    ADLA    1,DL
        20 000017   000000 755000 0                  STA     ITERATION

       45    12422           %RESERVE_LTS (ITEM=%ARGLIST, POINTER = ARG_LIST$);

  12498 20 000020   000002 236000 2                  LDQ     LTS_+2
        20 000021   000000 036000 0                  ADLQ    ITERATION
        20 000022   000003 116000 2                  CMPQ    LTS_+3
        20 000023   000034 604000 20                 TMI     s:12500

  12499 20 000024   000002 236000 21                 LDQ     2
        20 000025   200014 756100                    STQ     QLT$$+2,,AUTO
        20 000026   200014 630500                    EPPR0   QLT$$+2,,AUTO
        20 000027   200015 450500                    STP0    QLT$$+3,,AUTO
        20 000030   200015 630500                    EPPR0   QLT$$+3,,AUTO
        20 000031   000001 631400 21                 EPPR1   1
        20 000032   000000 701000 xent               TSX1    Z8AR$RESERVER
        20 000033   000000 011000                    NOP     0

  12500 20 000034   000002 236000 2                  LDQ     LTS_+2
        20 000035   000022 736000                    QLS     18
        20 000036   000001 036000 2                  ADLQ    LTS_+1
        20 000037   200004 470500                    LDP0    @ARG_LIST$,,AUTO
        20 000040   000000 756100                    STQ     0,,PR0

  12501 20 000041   000002 236000 2                  LDQ     LTS_+2
        20 000042   000000 036000 0                  ADLQ    ITERATION
        20 000043   000002 756000 2                  STQ     LTS_+2

  12502 20 000044   000000 471500                    LDP1    0,,PR0
        20 000045   001112 220003                    LDX0    586,DU
        20 000046   100000 740100                    STX0    0,,PR1

  12504 20 000047   000000 471500                    LDP1    0,,PR0
        20 000050   000000 721000 0                  LXL1    ITERATION
        20 000051   100000 441100                    SXL1    0,,PR1

PL6.E3A0      #001=Z8EY$BUILD_RUNTIME_ARGLIST File=Z8EY.:Z8A6TSI                 SAT 08/09/97 12:58 Page:11
       46    12508
       47    12509    1      LIST$ = LIST_TOP$;

  12509 20 000052   200003 471500                    LDP1    @LIST_TOP$,,AUTO
        20 000053   100000 236100                    LDQ     0,,PR1
        20 000054   200006 756100                    STQ     LIST$,,AUTO

       48    12510    1      ARG_COUNT = 0;

  12510 20 000055   200007 450100                    STZ     ARG_COUNT,,AUTO

       49    12511
       50    12512    2      DO WHILE (LIST$ ~= ADDR(NIL));

  12512 20 000056   000150 710000 20                 TRA     s:12541

       51    12513    2        ARG_PTR$ = LIST$ -> LX_ETT_ITEM.ETT$;

  12513 20 000057   200006 470500                    LDP0    LIST$,,AUTO
        20 000060   000001 236100                    LDQ     1,,PR0
        20 000061   200010 756100                    STQ     ARG_PTR$,,AUTO

       52    12514    2        ARG_LIST$ -> ARGLIST.ARG$(ARG_COUNT) = ARG_PTR$;

  12514 20 000062   200004 471500                    LDP1    @ARG_LIST$,,AUTO
        20 000063   100000 473500                    LDP3    0,,PR1
        20 000064   200007 720100                    LXL0    ARG_COUNT,,AUTO
        20 000065   300001 756110                    STQ     1,X0,PR3

       53    12515
       54    12516             /* Inhibit Z8GO "VALUE" optimization for scalars used as args */
       55    12517    3        IF ARG_PTR$ ~= ADDR(NIL) THEN DO;

  12517 20 000066   000000 116000 21                 CMPQ    0
        20 000067   000144 600000 20                 TZE     s:12539

       56    12518               %FISH (TRIAD = ARG_PTR$, RTN = ST$$);
PL6.E3A0      #001=Z8EY$BUILD_RUNTIME_ARGLIST File=Z8EY.:Z8A6TSI                 SAT 08/09/97 12:58 Page:12

  12520 20 000070   200011 756100                    STQ     ST$$,,AUTO

  12521 20 000071   200011 473500                    LDP3    ST$$,,AUTO
        20 000072   300000 221100                    LDX1    0,,PR3
        20 000073   000751 101003                    CMPX1   489,DU
        20 000074   000104 603000 20                 TRC     s:12526

  12522 20 000075   200011 470500                    LDP0    ST$$,,AUTO
        20 000076   000001 236100                    LDQ     1,,PR0
        20 000077   200011 756100                    STQ     ST$$,,AUTO

  12523 20 000100   200011 470500                    LDP0    ST$$,,AUTO
        20 000101   000000 220100                    LDX0    0,,PR0
        20 000102   000751 100003                    CMPX0   489,DU
        20 000103   000075 602000 20                 TNC     s:12522

       57    12526    3          QLT$$ = ST$$ -> SCALAR.QLT$;

  12526 20 000104   200011 470500                    LDP0    ST$$,,AUTO
        20 000105   000007 236100                    LDQ     7,,PR0
        20 000106   200012 756100                    STQ     QLT$$,,AUTO

       58    12527    3          IF  ST$$ -> SCALAR.LTS$ ~= ADDR(NIL) /* Possible VALUE clause */

  12527 20 000107   000005 236100                    LDQ     5,,PR0
        20 000110   000000 116000 21                 CMPQ    0
        20 000111   000122 600000 20                 TZE     s:12531
        20 000112   000000 116000 19                 CMPQ    LTS_UBIN
        20 000113   000122 600000 20                 TZE     s:12531
        20 000114   000005 471500                    LDP1    5,,PR0
        20 000115   100000 220100                    LDX0    0,,PR1
        20 000116   000015 100003                    CMPX0   13,DU
        20 000117   000122 601000 20                 TNZ     s:12531

       59    12528    3          AND ST$$ -> SCALAR.LTS$ ~= ZERO_PTR$
       60    12529    3          AND ST$$ -> SCALAR.LTS$ -> ETT.ID = %TRIAD THEN
PL6.E3A0      #001=Z8EY$BUILD_RUNTIME_ARGLIST File=Z8EY.:Z8A6TSI                 SAT 08/09/97 12:58 Page:13
       61    12530    3            ST$$ -> SCALAR.LTS$ = ADDR(NIL);

  12530 20 000120   000000 236000 21                 LDQ     0
        20 000121   000005 756100                    STQ     5,,PR0

       62    12531    3          IF  QLT$$ ~= ADDR(NIL)

  12531 20 000122   200012 236100                    LDQ     QLT$$,,AUTO
        20 000123   000000 116000 21                 CMPQ    0
        20 000124   000132 600000 20                 TZE     s:12534
        20 000125   000000 116000 19                 CMPQ    LTS_UBIN
        20 000126   000132 600000 20                 TZE     s:12534

       63    12532    3          AND QLT$$ ~= ZERO_PTR$ THEN
       64    12533    3            QLT$$ = QLT$$ -> QLT.SON;

  12533 20 000127   200012 471500                    LDP1    QLT$$,,AUTO
        20 000130   100003 236100                    LDQ     3,,PR1
        20 000131   200012 756100                    STQ     QLT$$,,AUTO

       65    12534    3          IF  QLT$$ ~= ADDR(NIL)

  12534 20 000132   000000 116000 21                 CMPQ    0
        20 000133   000144 600000 20                 TZE     s:12539
        20 000134   000000 116000 19                 CMPQ    LTS_UBIN
        20 000135   000144 600000 20                 TZE     s:12539

       66    12535    3          AND QLT$$ ~= ZERO_PTR$ THEN
       67    12536    3            CALL Z8EY$CHECK_OPTZ (QLT$$); /* Check sons and brothers */

  12536 20 000136   200012 631500                    EPPR1   QLT$$,,AUTO
        20 000137   200014 451500                    STP1    QLT$$+2,,AUTO
        20 000140   200014 630500                    EPPR0   QLT$$+2,,AUTO
        20 000141   000001 631400 21                 EPPR1   1
        20 000142   000000 701000 xent               TSX1    Z8EY$CHECK_OPTZ
        20 000143   000000 011000                    NOP     0

PL6.E3A0      #001=Z8EY$BUILD_RUNTIME_ARGLIST File=Z8EY.:Z8A6TSI                 SAT 08/09/97 12:58 Page:14
       68    12537    3        END; /* Inhibit Z8GO "VALUE" optimization. */

       69    12538
       70    12539    2        ARG_COUNT = ARG_COUNT + 1;

  12539 20 000144   200007 054100                    AOS     ARG_COUNT,,AUTO

       71    12540    2        LIST$ = LIST$ -> LX_ETT_ITEM.LINK;

  12540 20 000145   200006 470500                    LDP0    LIST$,,AUTO
        20 000146   000007 236100                    LDQ     7,,PR0
        20 000147   200006 756100                    STQ     LIST$,,AUTO

       72    12541    2      END; /* Until -- list$ ~= addr(nil) */

  12541 20 000150   000000 116000 21                 CMPQ    0
        20 000151   000057 601000 20                 TNZ     s:12513

       73    12542
       74    12543    1   END; /* Proc -- Z8EY$build_runtime_arglist */

  12543 20 000152   000000 702200 xent               TSX2  ! X66_ARET
       75    12544        %EJECT;
PL6.E3A0      #001=Z8EY$BUILD_RUNTIME_ARGLIST File=Z8EY.:Z8A6TSI                 SAT 08/09/97 12:58 Page:15
       76    12545        %EOD;

PL6.E3A0      #001=Z8EY$BUILD_RUNTIME_ARGLIST File=Z8EY.:Z8A6TSI                 SAT 08/09/97 12:58 Page:16
--  Include file information  --

   Z8E_O1COM.:Z8A6TOU  cannot be made into a system file and is referenced.
   Z8A_LEX_SYMB.:Z8A6TOU  cannot be made into a system file and is referenced.
   Z8E_STACKS.:Z8A6TOU  cannot be made into a system file and is referenced.
   Z8A_QLT.:Z8A6TOU  cannot be made into a system file and is referenced.
   Z8A_ST.:Z8A6TOU  cannot be made into a system file and is referenced.
   Z8A_ETT.:Z8A6TOU  cannot be made into a system file and is referenced.
   Z8E_HEAP.:Z8A6TOU  cannot be made into a system file and is referenced.
   Z8A_ILL.:Z8A6TOU  cannot be made into a system file and is referenced.
   Z8A_LTS.:Z8A6TOU  cannot be made into a system file and is referenced.
   X8A_COM_MACS.:X8A6TOU  is referenced.
   Z8A_NAMES.:Z8A6TOU  is referenced.
   Z8A_SUPP_MAC.:Z8A6TOU  is referenced.
   Z8A_DEFC.:Z8A6TOU  cannot be made into a system file and is referenced.
      No diagnostics issued in procedure Z8EY$BUILD_RUNTIME_ARGLIST.
PL6.E3A0      #001=Z8EY$BUILD_RUNTIME_ARGLIST File=Z8EY.:Z8A6TSI                 SAT 08/09/97 12:58 Page:17

 **** Variables and constants ****

  ****  Section 000 LblCom ITERATION

  ****  Scalars and arrays  ****
OctLoc.c.b A Datatyp(siz) R M Lvl/name                 OctLoc.c.b A Datatyp(siz) R M Lvl/name

     0-0-0/w SBIN        r     1 ITERATION

  ****  Section 001 LblCom LTS$

  ****  Scalars and arrays  ****
OctLoc.c.b A Datatyp(siz) R M Lvl/name                 OctLoc.c.b A Datatyp(siz) R M Lvl/name

     0-0-0/w PTR               1 LONG_ITEM$                 0-0-0/w PTR         r     1 LTS$

  ****  Section 002 LblCom LTS_

  ****  Scalars and arrays  ****
OctLoc.c.b A Datatyp(siz) R M Lvl/name                 OctLoc.c.b A Datatyp(siz) R M Lvl/name

     0-0-0/w STRC(180)   r     1 LTS_

  ****  Section 003 LblCom ILL$

  ****  Scalars and arrays  ****
OctLoc.c.b A Datatyp(siz) R M Lvl/name                 OctLoc.c.b A Datatyp(siz) R M Lvl/name

     0-0-0/w PTR         r     1 ILL$

  ****  Section 004 LblCom ILL_

  ****  Scalars and arrays  ****
OctLoc.c.b A Datatyp(siz) R M Lvl/name                 OctLoc.c.b A Datatyp(siz) R M Lvl/name

     0-0-0/w STRC(180)         1 ILL_

PL6.E3A0      #001=Z8EY$BUILD_RUNTIME_ARGLIST File=Z8EY.:Z8A6TSI                 SAT 08/09/97 12:58 Page:18
  ****  Section 005 LblCom HEAP$

  ****  Scalars and arrays  ****
OctLoc.c.b A Datatyp(siz) R M Lvl/name                 OctLoc.c.b A Datatyp(siz) R M Lvl/name

     0-0-0/w PTR               1 HEAP$

  ****  Section 006 LblCom ETT$

  ****  Scalars and arrays  ****
OctLoc.c.b A Datatyp(siz) R M Lvl/name                 OctLoc.c.b A Datatyp(siz) R M Lvl/name

     0-0-0/w PTR         r     1 ETT$

  ****  Section 007 LblCom HEAD_ETT$

  ****  Scalars and arrays  ****
OctLoc.c.b A Datatyp(siz) R M Lvl/name                 OctLoc.c.b A Datatyp(siz) R M Lvl/name

     0-0-0/w PTR               1 HEAD_ETT$

  ****  Section 008 LblCom ETT_BUCKETS

  ****  Scalars and arrays  ****
OctLoc.c.b A Datatyp(siz) R M Lvl/name                 OctLoc.c.b A Datatyp(siz) R M Lvl/name

     0-0-0/w PTR               1 ETT_BUCKETS(0:511)

  ****  Section 009 LblCom ETT_

  ****  Scalars and arrays  ****
OctLoc.c.b A Datatyp(siz) R M Lvl/name                 OctLoc.c.b A Datatyp(siz) R M Lvl/name

     0-0-0/w STRC(180)         1 ETT_

  ****  Section 010 LblCom ST$

PL6.E3A0      #001=Z8EY$BUILD_RUNTIME_ARGLIST File=Z8EY.:Z8A6TSI                 SAT 08/09/97 12:58 Page:19
  ****  Scalars and arrays  ****
OctLoc.c.b A Datatyp(siz) R M Lvl/name                 OctLoc.c.b A Datatyp(siz) R M Lvl/name

     0-0-0/w PTR         r     1 ST$

  ****  Section 011 LblCom ST_

  ****  Scalars and arrays  ****
OctLoc.c.b A Datatyp(siz) R M Lvl/name                 OctLoc.c.b A Datatyp(siz) R M Lvl/name

     0-0-0/w STRC(180)         1 ST_

  ****  Section 012 LblCom QLT$

  ****  Scalars and arrays  ****
OctLoc.c.b A Datatyp(siz) R M Lvl/name                 OctLoc.c.b A Datatyp(siz) R M Lvl/name

     0-0-0/w PTR         r     1 QLT$

  ****  Section 013 LblCom PREV_01_QLT$

  ****  Scalars and arrays  ****
OctLoc.c.b A Datatyp(siz) R M Lvl/name                 OctLoc.c.b A Datatyp(siz) R M Lvl/name

     0-0-0/w PTR               1 PREV_01_QLT$

  ****  Section 014 LblCom QLT_

  ****  Scalars and arrays  ****
OctLoc.c.b A Datatyp(siz) R M Lvl/name                 OctLoc.c.b A Datatyp(siz) R M Lvl/name

     0-0-0/w STRC(180)         1 QLT_

  ****  Section 015 LblCom LEX_SYMBOL

  ****  Scalars and arrays  ****
OctLoc.c.b A Datatyp(siz) R M Lvl/name                 OctLoc.c.b A Datatyp(siz) R M Lvl/name
PL6.E3A0      #001=Z8EY$BUILD_RUNTIME_ARGLIST File=Z8EY.:Z8A6TSI                 SAT 08/09/97 12:58 Page:20

     0-0-0/w STRC(3240)  r     1 LEX_SYMBOL                 0-0-0/w STRC(3240)        1 LEX_SYMBOL_WORDS

  ****  Section 016 LblCom CURRENT_LEX_SYMBOL$

  ****  Scalars and arrays  ****
OctLoc.c.b A Datatyp(siz) R M Lvl/name                 OctLoc.c.b A Datatyp(siz) R M Lvl/name

     0-0-0/w PTR         r     1 CURRENT_LEX_SYMBOL$

  ****  Section 017 LblCom TEMP_LEX_SYMBOL

  ****  Scalars and arrays  ****
OctLoc.c.b A Datatyp(siz) R M Lvl/name                 OctLoc.c.b A Datatyp(siz) R M Lvl/name

     0-0-0/w STRC(3240)        1 TEMP_LEX_SYMBOL

  ****  Section 018 LblCom TEMP_LEX_SYMBOL2

  ****  Scalars and arrays  ****
OctLoc.c.b A Datatyp(siz) R M Lvl/name                 OctLoc.c.b A Datatyp(siz) R M Lvl/name

     0-0-0/w STRC(3240)        1 TEMP_LEX_SYMBOL2

  ****  Section 019  Data  Z8EY$BUILD_RUNTIME_ARGLIST

  ****  Scalars and arrays  ****
OctLoc.c.b A Datatyp(siz) R M Lvl/name                 OctLoc.c.b A Datatyp(siz) R M Lvl/name

     0-0-0/w UBIN        r     1 LTS_UBIN                   0-0-0/w PTR         r     1 ZERO_PTR$

  ****  Auto variables  ****

  ****  Scalars and arrays  ****
OctLoc.c.b A Datatyp(siz) R M Lvl/name                 OctLoc.c.b A Datatyp(siz) R M Lvl/name

     4-0-0/w PTR         r     1 @ARG_LIST$                 5-0-0/w PTR         r     1 @IDENT_COUNT
PL6.E3A0      #001=Z8EY$BUILD_RUNTIME_ARGLIST File=Z8EY.:Z8A6TSI                 SAT 08/09/97 12:58 Page:21
     3-0-0/w PTR         r     1 @LIST_TOP$                 7-0-0/w SBIN        r     1 ARG_COUNT
    *0-0-0/w PTR         r     1 ARG_LIST$                 10-0-0/w PTR         r     1 ARG_PTR$
    *0-0-0/w SBIN        r     1 IDENT_COUNT                6-0-0/w PTR         r     1 LIST$
    *0-0-0/w PTR         r     1 LIST_TOP$                 12-0-0/w PTR         r     1 QLT$$
    11-0-0/w PTR         r     1 ST$$

  ****  SYMREF variables  ****

  ****  Scalars and arrays  ****
OctLoc.c.b A Datatyp(siz) R M Lvl/name                 OctLoc.c.b A Datatyp(siz) R M Lvl/name

     0-0-0/w STRC(180)         1 HIER_STK(0:50)
     0-0-0/w SBIN              1 HIER_STK_PTR               0-0-0/w UBIN              1 ILL_STEP(0:144)
     0-0-0/w UBIN              1 LTS_STEP(0:37)
     0-0-0/d STRC(11580)       1 O1COM                      0-0-0/w STRC(144)         1 PAGE_FORMAT
     0-0-0/w STRC(153)         1 REP_STK(0:50)              0-0-0/w SBIN              1 REP_STK_PTR

  ****  BASED and DCB variables  ****

  ****  Scalars and arrays  ****
OctLoc.c.b A Datatyp(siz) R M Lvl/name                 OctLoc.c.b A Datatyp(siz) R M Lvl/name

     0-0-0/w STRC(108)         1 ACCEPT_DISPLAY             0-0-0/w STRC(288)         1 ADD_STMT
     0-0-0/w STRC(396)         1 ALPHABET                   0-0-0/w STRC(144)         1 ALTER_LTS
     0-0-0/w STRC(3672)        1 ALT_KEY                    0-0-0/w STRC(36864) r     1 ARGLIST
     0-0-0/w STRC(396)         1 ARRAY                      0-0-0/w STRC(180)         1 ARRAY_PRESET_LTS
     0-0-0/w ASTR(324)   r     1 BASED_LEX_SYMBOL
     0-0-0/w STRC(360)         1 BASED_LEX_SYMBOL_WORDS
     0-0-0/w STRC(288)         1 BASE_LTS                   0-0-0/w STRC(108)         1 BINARY_ILL
     0-0-0/w STRC(288)         1 BINARY_OP                  0-0-0/w STRC(396)         1 BLOCK
     0-0-0/w STRC(144)         1 BRANCH_ILL                 0-0-0/w STRC(144)         1 BT
     0-0-0/w STRC(288)         1 CALL_STMT                  0-0-0/w STRC(216)         1 CCOSU
     0-0-0/w STRC(396)         1 CD                         0-0-0/w STRC(288)         1 CD_LTS
     0-0-0/w CHAR(4096)        1 CHARS                      0-0-0/w STRC(396)         1 CLASS
     0-0-0/w STRC(108)         1 CODED_MOVE                 0-0-0/w STRC(288)         1 COMPUTE_STMT
     0-0-0/w STRC(396)         1 CONDITION                  0-0-0/w STRC(396)         1 CONST
     0-0-0/w STRC(72)          1 CONT                       0-0-0/w STRC(540)         1 CONTROL_NAME_LTS
PL6.E3A0      #001=Z8EY$BUILD_RUNTIME_ARGLIST File=Z8EY.:Z8A6TSI                 SAT 08/09/97 12:58 Page:22
     0-0-0/w STRC(1872)        1 COPY_FILE                  0-0-0/w STRC(396)         1 DB
     0-0-0/w STRC(396)         1 DCB_                       0-0-0/w STRC(288)         1 DEFERED_IDENTIFIER
     0-0-0/w STRC(252)         1 DEFERED_ID_TREE            0-0-0/w STRC(288)         1 DEFERED_QUAL_ID
     0-0-0/w STRC(288)         1 DEFERED_SUM_CLAUSE
     0-0-0/w STRC(288)         1 DEFERED_SUM_CLAUSE_LIST
     0-0-0/w STRC(144)         1 DEFLB                      0-0-0/w STRC(288)         1 DELETE_STMT
     0-0-0/w STRC(108)         1 DEPENDING_SIZE             0-0-0/w STRC(5472)        1 DIMS
     0-0-0/w STRC(288)         1 DIVIDE_STMT                0-0-0/w STRC(396)         1 DML_ITEM
     0-0-0/w STRC(216)         1 DML_REC                    0-0-0/w STRC(144)         1 DOEND
     0-0-0/w STRC(396)         1 DO_N                       0-0-0/w STRC(180)         1 DV4I
     0-0-0/w STRC(180)         1 ENTRY_ILL                  0-0-0/w STRC(180)   r     1 ETT
     0-0-0/w STRC(108)         1 EVALU                      0-0-0/w STRC(73836)       1 EVALUATE
     0-0-0/w STRC(396)         1 FD                         0-0-0/w STRC(1692)        1 FILE_LTS
     0-0-0/w STRC(144)         1 GO                         0-0-0/w STRC(180)         1 ILL
     0-0-0/w STRC              1 ILL_NO_OPS                 0-0-0/w STRC(288)         1 ILS_LIST
     0-0-0/w STRC(108)         1 INDEXES                    0-0-0/w STRC(360)         1 INIT_LTS
     0-0-0/w STRC(288)         1 INSPECT_1_STMT             0-0-0/w STRC(288)         1 INSPECT_2_STMT
     0-0-0/w STRC(288)         1 INSPECT_4_STMT             0-0-0/w STRC(396)         1 INTDEF
     0-0-0/w STRC(180)         1 IO_RESTORE_CHAIN           0-0-0/w STRC(144)         1 KEY
     0-0-0/w STRC(396)         1 LABEL                      0-0-0/w STRC(288)         1 LA_ITEM
     0-0-0/w STRC(36864)       1 LCNST                      0-0-0/w STRC(108)         1 LINOI
     0-0-0/w STRC(72)          1 LONG                       0-0-0/w STRC        r     1 LTS
     0-0-0/w STRC(360)         1 LTSS                       0-0-0/w STRC(36936)       1 LTS_PTR_ARRAY
     0-0-0/w STRC(504)         1 LX_CD_INPUT                0-0-0/w STRC(324)         1 LX_CD_I_O
     0-0-0/w STRC(396)         1 LX_CD_OUTPUT               0-0-0/w STRC(288)   r     1 LX_ETT_ITEM
     0-0-0/w STRC(288)         1 LX_ITEM                    0-0-0/w STRC(288)         1 LX_LARGE
     0-0-0/w STRC(288)         1 LX_LIST                    0-0-0/w STRC(1224)        1 LX_REC_DECL
     0-0-0/w STRC(864)         1 LX_REPORT_REC              0-0-0/w STRC(288)         1 LX_TERMINAL
     0-0-0/w STRC(72)          1 MFILL                      0-0-0/w STRC(396)         1 MNEMONIC
     0-0-0/w STRC(288)         1 MULTIPLY_STMT              0-0-0/w STRC(180)         1 MULTI_GO
     0-0-0/w STRC(180)         1 MVEAL                      0-0-0/w STRC(108)         1 MVFIL
     0-0-0/w STRC(72)          1 MVIIS                      0-0-0/w STRC(144)         1 NEL
     0-0-0/w STRC(216)         1 OPEN_LTS                   0-0-0/w STRC(180)         1 OS_CALL
     0-0-0/w STRC(36864)       1 PAGE                       0-0-0/w STRC(396)         1 PARA
     0-0-0/w STRC(216)         1 PFORM                      0-0-0/w STRC(144)         1 PINC
     0-0-0/w STRC(144)         1 PREOFF                     0-0-0/w STRC(108)         1 PRESET
     0-0-0/w STRC(144)         1 PRIME                      0-0-0/w STRC(396)         1 PROC_
PL6.E3A0      #001=Z8EY$BUILD_RUNTIME_ARGLIST File=Z8EY.:Z8A6TSI                 SAT 08/09/97 12:58 Page:23
     0-0-0/w STRC(396)         1 PROC_DEF                   0-0-0/w STRC(900)         1 PROC_SUPP
     0-0-0/w STRC(144)         1 P_A_PRESET                 0-0-0/w STRC(144)         1 P_P_PRESET
     0-0-0/w STRC(216)   r     1 QLT                        0-0-0/w STRC(396)         1 RD
     0-0-0/w STRC(288)         1 READ_STMT                  0-0-0/w STRC(216)         1 REF
     0-0-0/w STRC(144)         1 REMEM                      0-0-0/w STRC(108)         1 RENAMES
     0-0-0/w STRC(720)         1 REPORT_01_LTS              0-0-0/w STRC(432)         1 REPORT_ELEM_LTS
     0-0-0/w STRC(252)         1 REPORT_GRP_LTS             0-0-0/w STRC(1332)        1 REPORT_LTS
     0-0-0/w STRC(288)         1 REWRITE_STMT               0-0-0/w STRC(144)         1 RVA_LTS
     0-0-0/w STRC(396)   r     1 SCALAR                     0-0-0/w STRC(144)         1 SCOPE
     0-0-0/w STRC(396)         1 SD                         0-0-0/w STRC(216)         1 SEARCH_
     0-0-0/w STRC(396)         1 SECTION                    0-0-0/w STRC(396)         1 SEGMENT
     0-0-0/w STRC(360)         1 SEGMENT_LTS                0-0-0/w STRC(396)         1 ST
     0-0-0/w STRC(288)         1 START_STMT                 0-0-0/w STRC(72)          1 STP2
     0-0-0/w STRC(252)         1 STRING_STMT                0-0-0/w STRC(288)         1 SUBTRACT_STMT
     0-0-0/w STRC(252)         1 SUM_LTS                    0-0-0/w STRC(396)         1 SWITCH
     0-0-0/w STRC(396)         1 SYMBOLIC_CHAR              0-0-0/w STRC(396)         1 SYMDEF_
     0-0-0/w STRC(396)         1 SYMREF_                    0-0-0/w STRC(396)         1 TEMP
     0-0-0/w STRC(144)         1 TRINARY_ILL                0-0-0/w STRC(72)          1 UNARY_ILL
     0-0-0/w STRC(288)         1 UNARY_OP                   0-0-0/w STRC(288)         1 UNSTRING_STMT
     0-0-0/d STRC(612)         1 USE                        0-0-0/w STRC(216)         1 USER_CALL
     0-0-0/w STRC(252)         1 USE_SUPP                   0-0-0/w STRC(108)         1 VAL
     0-0-0/w STRC(108)         1 VAL_END                    0-0-0/w STRC(396)         1 VARIABLE
     0-0-0/w STRC(72)          1 WHEN                       0-0-0/w STRC(288)         1 WRITE_STMT


   Procedure Z8EY$BUILD_RUNTIME_ARGLIST requires 107 words for executable code.
   Procedure Z8EY$BUILD_RUNTIME_ARGLIST requires 14 words of local(AUTO) storage.

PL6.E3A0      #002=Z8EY$SUBSTR File=Z8EY.:Z8A6TSI                                SAT 08/09/97 13:00 Page:24
       77        1        /*T***********************************************************/
       78        2        /*T*                                                         */
       79        3        /*T* Copyright (c) Bull HN Information Systems Inc., 1997    */
       80        4        /*T*                                                         */
       81        5        /*T***********************************************************/
       82        6        Z8EY$SUBSTR: PROC (VAR$$, START$$, LENGTH$$, RETURN$);
       83        7
       84        8        %EQU PHASE = 1;
       85        9        %EQU LENGTH_SPECIFIED = 2;
       86       10
       87       11        %INCLUDE Z8A_DEFC;
       88       79        %INCLUDE Z9A_FLAGS;
       89       93        %INCLUDE Z8A_SUPP_MAC;
       90     2493        %INCLUDE Z8A_ERR_NUMS;
       91     3257        %INCLUDE Z8A_COMCOM;
       92     3907        %INCLUDE Z8A_ETT;
       93     4208        %INCLUDE Z8A_SRCH;
       94     4257        %INCLUDE Z8A_ILL;
       95     4950        %INCLUDE Z8A_ILS;
       96     5059        %INCLUDE Z8A_LIBRARY;
       97     5273        %INCLUDE Z8A_ST;
       98     8932        %INCLUDE Z8A_TYPES;
       99     9106        %INCLUDE Z8A_DNT;
      100     9327        %INCLUDE Z8E_WINDOW;
      101    11397        %INCLUDE Z8E_MACROS;
      102    12072        %INCLUDE Z8A_LTS;
      103    14149        %INCLUDE Z8E_STACKS;
      104    16415        %INCLUDE Z8E_O1COM;
      105    17176
      106    17177    1   DCL Z8AC$MAKE_CONST           ENTRY(1);
      107    17178    1   DCL Z8AC$LX_ETT_ITEM_TYI_CONST ENTRY(2);
      108    17179    1   DCL Z8AU$TYPE_DESCRIPTOR      ENTRY(2);
      109    17180    1   DCL Z8EQ$CHECK_FOR_INTEGER_ITEM      ENTRY (2) ALTRET;
      110    17181    1   DCL Z8AF$NEW_OFF              ENTRY (3);
      111    17182    1   DCL Z8AF$NEW_FISS             ENTRY (4);
      112    17183    1   DCL Z8AF$NEW_OFF_AND_SSOP     ENTRY (4);
      113    17184    1   DCL Z8AF$NEW_OFF_AND_SSOP_NO_SBCHK ENTRY (4);
PL6.E3A0      #002=Z8EY$SUBSTR File=Z8EY.:Z8A6TSI                                SAT 08/09/97 13:00 Page:25
      114    17185    1   DCL Z8AT$CREATE_TEMP_WITH_BASE ENTRY(2);
      115    17186    1   DCL Z8AE$ERROR                ENTRY(12);
      116    17187    1   DCL Z8AF$FORME                ENTRY(4);
      117    17188    1   DCL Z8EV$CONVERT              ENTRY(3);
      118    17189    1   DCL Z8E5$MATH_PACK            ENTRY(2);
      119    17190    1   DCL Z8CO$DISPL_CHECK          ENTRY(1) ALTRET;
      120    17191    1   DCL Z8CO$CREATE_LIBRARY_BASE  ENTRY(2);
      121    17192
      122    17193    1   DCL START$$                   PTR;
      123    17194    1   DCL LENGTH$$                  PTR;
      124    17195    1   DCL VAR$$                     PTR;
      125    17196    1   DCL RETURN$                   PTR;
      126    17197
      127    17198    1   DCL START$                    PTR;
      128    17199        %DCL_AUTO_LX_ITEM (@NAME = START_POS);
      129    17203        %DCL_AUTO_LX_ITEM (@NAME = LENGTH);
      130    17207        %DCL_AUTO_LX_ITEM (@NAME = SUBSTR_VAR);
      131    17211        %DCL_AUTO_LX_ITEM (@NAME = OFFSET_TIMES_2);
      132    17215        %DCL_AUTO_LX_ITEM (@NAME = LENGTH_TIMES_2);
      133    17219        %DCL_AUTO_LX_ITEM (@NAME = TWO);
      134    17223    1   DCL VAR_ST$                   PTR;
      135    17224    1   DCL TWO$                      PTR;
      136    17225    1   DCL LENGTH$                   PTR;
      137    17226    1   DCL STRING$                   PTR;
      138    17227    1   DCL VAR$                      PTR;
      139    17228    1   DCL STRT_POS$                 PTR;
      140    17229    1   DCL TEMP$                     PTR;
      141    17230    1   DCL STRING_ST$                PTR;
      142    17231    1   DCL SIZ$                      PTR;
      143    17232    1   DCL TABLE_ETT$                PTR;
      144    17233    1   DCL CONV_FLAG                 BOOLEAN;
      145    17234
      146    17235        %INCLUDE Z8A_MKCN;
      147    17252    1   DCL OFF                       SBIN WORD;
      148    17253    1   DCL FISS                      SBIN WORD;
      149    17254    1   DCL TYPE                      SBIN WORD;
      150    17255    1   DCL BYTE_SIZE                 SBIN WORD;
PL6.E3A0      #002=Z8EY$SUBSTR File=Z8EY.:Z8A6TSI                                SAT 08/09/97 13:00 Page:26
      151    17256    1   DCL SBCHK_FLAG                BIT(1);
      152    17257    1   DCL MAXLEN                    SBIN;
      153    17258    1   DCL OP                        SBIN WORD;
      154    17259        %EJECT;
PL6.E3A0      #002=Z8EY$SUBSTR File=Z8EY.:Z8A6TSI                                SAT 08/09/97 13:00 Page:27
      155    17260
      156    17261        %MACRO GET_SPECIFIED_LENGTH (@LENGTH$  = LENGTH$,
      157    17262                                     @FISS     = FISS,
      158    17263                                     @SIZ$     = SIZ$);
      159    17264           DO;
      160    17265             IF @LENGTH$ -> ETT.ID = %TRIAD
      161    17266             AND @LENGTH$ -> ETT.LOP -> CONST.CONSTI.WORD1 < %#4K THEN
      162    17267               @FISS = @LENGTH$ -> ETT.LOP -> CONST.CONSTI.WORD1;
      163    17268             ELSE
      164    17269               @SIZ$ = @LENGTH$;
      165    17270           END;
      166    17271        %MEND;
      167    17272        %EJECT;
PL6.E3A0      #002=Z8EY$SUBSTR File=Z8EY.:Z8A6TSI                                SAT 08/09/97 13:00 Page:28
      168    17273    1   GET_LENGTH: PROC (STRING$, LENGTH, SIZ$);
      169    17274
      170    17275    2   DCL STRING$                   PTR;
      171    17276    2   DCL SIZ$                      PTR;
      172    17277    2   DCL LENGTH                    SBIN WORD;
      173    17278    2   DCL 1 TYPE_DESC               ALIGNED,
      174    17279             %TYPE_DESC;
      175    17313
      176    17314    2    LENGTH = 0;
      177    17315    2    SIZ$ = ADDR(NIL);
      178    17316
      179    17317    2    CALL Z8AU$TYPE_DESCRIPTOR (STRING$, TYPE_DESC);
      180    17318
      181    17319    3    IF TYPE_DESC.SIZ$ ~= ADDR(NIL) THEN DO;
      182    17320    3        SIZ$ = TYPE_DESC.SIZ$;
      183    17321    3        IF TYPE_DESC.SIZ$ -> ETT.ID = %TRIAD THEN /* Constant */
      184    17322    3        LENGTH = TYPE_DESC.SIZ$ -> ETT.LOP -> CONST.CONSTI.WORD1;
      185    17323    3    END;
      186    17324    2    ELSE
      187    17325    3      DO CASE (TYPE_DESC.TYPE);
      188    17326    3        CASE (%TYA, %TYN, %TYB, %TYE);
      189    17327    3          LENGTH = TYPE_DESC.DESC.ADSC.N;
      190    17328    3        CASE (ELSE);
      191    17329    3          LENGTH = TYPE_DESC.DESC.NDSC.N;
      192    17330    3      END;
      193    17331
      194    17332    2   END; /* PROC -- GET_LENGTH */
      195    17333        %EJECT;
PL6.E3A0      #002=Z8EY$SUBSTR File=Z8EY.:Z8A6TSI                                SAT 08/09/97 13:00 Page:29
      196    17334    1   GET_IMPLIED_LENGTH: PROC (STRING$, STRT_POS$, FISS, SIZ$);
      197    17335
      198    17336    2   DCL STRING$                   PTR;
      199    17337    2   DCL SIZ$                      PTR;
      200    17338    2   DCL FISS                      SBIN WORD;
      201    17339    2   DCL STRT_POS$                 PTR;
      202    17340
      203    17341    2   DCL ST$$                      PTR;
      204    17342    2   DCL LENGTH                    SBIN WORD;
      205    17343    2    CALL GET_LENGTH (STRING$, LENGTH, SIZ$);
      206    17344
      207    17345    2    IF LENGTH ~= 0 THEN
      208    17346    3      DO;
      209    17347    3        IF STRT_POS$ -> ETT.ID = %TRIAD THEN
      210    17348    4          DO;
      211    17349    4            FISS = LENGTH + BYTE_SIZE - STRT_POS$ -> ETT.LOP -> CONST.CONSTI.WORD1;
      212    17350    4            IF FISS < %#4K THEN
      213    17351    4              SIZ$ = ADDR(NIL);
      214    17352    4            ELSE
      215    17353    5              DO;
      216    17354    5                MKCN.CON = FISS;
      217    17355    5                CALL Z8AC$MAKE_CONST(SIZ$);
      218    17356    5              END;
      219    17357    4           END;
      220    17358    3        ELSE
      221    17359    4          DO;
      222    17360    4            MKCN.CON = LENGTH + BYTE_SIZE; /* BYTE_SIZE = 1 or 2 */
      223    17361    4            CALL Z8AC$MAKE_CONST(ST$$);
      224    17362    4            CALL Z8AF$FORME(%SBI, ST$$, STRT_POS$, SIZ$) ;
      225    17363    4          END;
      226    17364    3      END;
      227    17365    2    ELSE
      228    17366    3      DO;
      229    17367    3        CALL Z8AF$FORME (%ADI, SIZ$, COMCOM.VALUE_1, SIZ$);
      230    17368    3        CALL Z8AF$FORME (%SBI, SIZ$, STRT_POS$, SIZ$);
      231    17369    3      END;
      232    17370
PL6.E3A0      #002=Z8EY$SUBSTR File=Z8EY.:Z8A6TSI                                SAT 08/09/97 13:00 Page:30
      233    17371    2   END; /* Proc -- get_implied_length */
      234    17372        %EJECT;
PL6.E3A0      #002=Z8EY$SUBSTR File=Z8EY.:Z8A6TSI                                SAT 08/09/97 13:00 Page:31
      235    17373    1   SET_UP_START_POS: PROC (START$, OFF, VARIABLE_START);
      236    17374
      237    17375    2   DCL START$             PTR;
      238    17376    2   DCL OFF                SBIN WORD;
      239    17377    2   DCL VARIABLE_START     BIT(1) ALIGNED;
      240    17378
      241    17379    3    DO CASE(START$ -> ETT.ID);
      242    17380
      243    17381    3      CASE(%ADI);
      244    17382    3        IF START$ -> ETT.ROP -> ETT.ID = %TRIAD THEN
      245    17383    4          DO;
      246    17384    4            OFF = START$ -> ETT.ROP -> ETT.LOP -> CONST.CONSTI.WORD1 - BYTE_SIZE;
      247    17385    4            START$ = START$ -> ETT.LOP;
      248    17386    4          END;
      249    17387    3        ELSE
      250    17388    3          OFF = - BYTE_SIZE;    /* 1 or 2 */
      251    17389
      252    17390    3        VARIABLE_START = TRUE;
      253    17391
      254    17392    3      CASE(%SBI);
      255    17393    3        IF START$ -> ETT.LOP -> ETT.ID = %TRIAD THEN
      256    17394    4          DO;
      257    17395    4            OFF = START$ -> ETT.LOP -> ETT.LOP -> CONST.CONSTI.WORD1 - BYTE_SIZE;
      258    17396    4            START$ = START$ -> ETT.ROP;
      259    17397
      260    17398    4            CALL Z8AF$FORME (%USI, START$, ADDR(NIL), START$);
      261    17399    4          END;
      262    17400    3        ELSE
      263    17401    3          IF START$ -> ETT.ROP -> ETT.ID = %TRIAD THEN
      264    17402    4            DO;
      265    17403    4              OFF = - START$ -> ETT.ROP -> ETT.LOP -> CONST.CONSTI.WORD1 - BYTE_SIZE;
      266    17404    4              START$ = START$ -> ETT.LOP;
      267    17405    4            END;
      268    17406    3          ELSE
      269    17407    3            OFF = -BYTE_SIZE;   /* 1 or 2 */
      270    17408
      271    17409    3        VARIABLE_START = TRUE;
PL6.E3A0      #002=Z8EY$SUBSTR File=Z8EY.:Z8A6TSI                                SAT 08/09/97 13:00 Page:32
      272    17410
      273    17411    3      CASE(%TRIAD);
      274    17412    3        OFF = START$ -> ETT.LOP -> CONST.CONSTI.WORD1 - BYTE_SIZE;
      275    17413    3        VARIABLE_START = FALSE;
      276    17414
      277    17415    3      CASE(ELSE);
      278    17416    3        OFF = -BYTE_SIZE;       /* 1 or 2 */
      279    17417    3        VARIABLE_START = TRUE;
      280    17418
      281    17419    3    END;
      282    17420
      283    17421    2   END SET_UP_START_POS; /* Proc */
      284    17422        %EJECT;
PL6.E3A0      #002=Z8EY$SUBSTR File=Z8EY.:Z8A6TSI                                SAT 08/09/97 13:00 Page:33
      285    17423    1   OFFSET_OVERFLOW_CHECK: PROC (OFF, PREV_OFF, START$, VARIABLE_START, STRING$);
      286    17424
      287    17425    2   DCL OFF                SBIN WORD;
      288    17426    2   DCL PREV_OFF           SBIN WORD;
      289    17427    2   DCL START$             PTR;
      290    17428    2   DCL VARIABLE_START     BIT(1) ALIGNED;
      291    17429    2   DCL STRING$            PTR;
      292    17430    2   DCL MAX_OFF_PRECISION  SBIN;
      293    17431
      294    17432    2   DCL OFF$               PTR;
      295    17433    2   DCL LENGTH             SBIN;
      296    17434    2   DCL SIZ$               PTR;
      297    17435
      298    17436
      299    17437         %IF CP6;
      300    17438    2      IF STRING_ST$ -> SCALAR.B.LINKAGE THEN
      301    17439         %ENDIF;
      302    17440    2        MAX_OFF_PRECISION = %#16K;
      303    17441         %IF CP6;
      304    17442    2      ELSE
      305    17443    2        MAX_OFF_PRECISION = %#128K;
      306    17444         %ENDIF;
      307    17445
      308    17446    2      IF OFF + PREV_OFF > MAX_OFF_PRECISION
      309    17447    2      OR OFF + PREV_OFF < - MAX_OFF_PRECISION THEN
      310    17448    3        DO;
      311    17449    3          MKCN.CON = OFF;
      312    17450    3          CALL Z8AC$MAKE_CONST (OFF$);
      313    17451
      314    17452    3          OFF = 0;
      315    17453
      316    17454    4          IF VARIABLE_START THEN DO;
      317    17455    5            IF SBCHK_FLAG AND COMCOM.OB.SUBCHK THEN DO;
      318    17456    5              CALL GET_LENGTH (STRING$, LENGTH, SIZ$);
      319    17457    6              IF SIZ$ = ADDR(NIL) THEN DO;
      320    17458    6                MKCN.CON = LENGTH;
      321    17459    6                CALL Z8AC$MAKE_CONST (SIZ$);
PL6.E3A0      #002=Z8EY$SUBSTR File=Z8EY.:Z8A6TSI                                SAT 08/09/97 13:00 Page:34
      322    17460    6              END;
      323    17461    5              CALL Z8AF$FORME (%SBCHK, START$, SIZ$, START$);
      324    17462    5            END;
      325    17463    4            CALL Z8AF$FORME (%ADI, START$, OFF$, START$);
      326    17464    4          END;
      327    17465    3          ELSE
      328    17466    3            START$ = OFF$;
      329    17467
      330    17468    3          VARIABLE_START = TRUE;
      331    17469    3        END;
      332    17470
      333    17471    2   END OFFSET_OVERFLOW_CHECK;
      334    17472        %EJECT;
PL6.E3A0      #002=Z8EY$SUBSTR File=Z8EY.:Z8A6TSI                                SAT 08/09/97 13:00 Page:35
      335    17473    1   CREATE_START_POSITION: PROC (STRING$, OFF, START$);
      336    17474
      337    17475    2   DCL STRING$            PTR;
      338    17476    2   DCL OFF                SBIN WORD;
      339    17477    2   DCL START$             PTR;
      340    17478
      341    17479    2   DCL 1 OFFSET           ALIGNED,
      342    17480    2        2 VALUE           SBIN WORD,
      343    17481    2        2 TYPE            SBIN WORD;
      344    17482    2   DCL OFF$               PTR;
      345    17483    2   DCL VARIABLE_START     BOOLEAN;
      346    17484
      347    17485    2    CALL SET_UP_START_POS (START$, OFF, VARIABLE_START);
      348    17486
      349    17487    3    DO CASE (STRING$ -> ETT.ID);
      350    17488
      351    17489    3      CASE(%SSOP);
      352    17490    3        CALL OFFSET_OVERFLOW_CHECK (OFF, STRING$ -> ETT.LOP -> ETT.OFFSET.VALUE,
      353    17491    3                                    START$, VARIABLE_START, STRING$);
      354    17492
      355    17493    3        IF OFF ~= 0
      356    17494    3        OR VARIABLE_START THEN
      357    17495    4          DO;
      358    17496    4            IF OFF ~= 0 THEN
      359    17497    4              CALL Z8AF$NEW_OFF (STRING$ -> ETT.LOP -> ETT.LOP,
      360    17498    4                                 STRING$ -> ETT.LOP -> ETT.OFFSET.VALUE + OFF,
      361    17499    4                                 OFF$);
      362    17500    4            ELSE
      363    17501    4              OFF$ = STRING$ -> ETT.LOP;
      364    17502
      365    17503    4            IF VARIABLE_START THEN
      366    17504    4              CALL Z8AF$FORME(%ADI, STRING$->ETT.ROP, START$, START$) ;
      367    17505    4            ELSE
      368    17506    4              START$ = STRING$ -> ETT.ROP;
      369    17507
      370    17508    4            CALL Z8AF$FORME (%SSOP, OFF$, START$, START$);
      371    17509    4          END;
PL6.E3A0      #002=Z8EY$SUBSTR File=Z8EY.:Z8A6TSI                                SAT 08/09/97 13:00 Page:36
      372    17510    3        ELSE
      373    17511    3          START$ = STRING$;
      374    17512
      375    17513        %EJECT;
PL6.E3A0      #002=Z8EY$SUBSTR File=Z8EY.:Z8A6TSI                                SAT 08/09/97 13:00 Page:37
      376    17514    3      CASE(%OFF);
      377    17515    3        CALL OFFSET_OVERFLOW_CHECK (OFF, START$ -> ETT.OFFSET.VALUE,
      378    17516    3                                    START$, VARIABLE_START, STRING$);
      379    17517
      380    17518    3        IF VARIABLE_START THEN
      381    17519    3          IF SBCHK_FLAG THEN
      382    17520    3            CALL Z8AF$NEW_OFF_AND_SSOP (STRING$, OFF, START$, START$);
      383    17521    3          ELSE
      384    17522    3            CALL Z8AF$NEW_OFF_AND_SSOP_NO_SBCHK(STRING$, OFF, START$, START$);
      385    17523    3        ELSE
      386    17524    3          CALL Z8AF$NEW_OFF (STRING$ -> ETT.LOP,
      387    17525    3                             STRING$ -> ETT.OFFSET.VALUE + OFF,
      388    17526    3                             START$);
      389    17527
      390    17528        %EJECT;
PL6.E3A0      #002=Z8EY$SUBSTR File=Z8EY.:Z8A6TSI                                SAT 08/09/97 13:00 Page:38
      391    17529    3      CASE(%BASE, ELSE);
      392    17530    3        CALL OFFSET_OVERFLOW_CHECK (OFF, 0, START$, VARIABLE_START, STRING$);
      393    17531
      394    17532    3        IF VARIABLE_START THEN
      395    17533    3          IF SBCHK_FLAG THEN
      396    17534    3            CALL Z8AF$NEW_OFF_AND_SSOP (STRING$, OFF, START$, START$);
      397    17535    3          ELSE
      398    17536    3            CALL Z8AF$NEW_OFF_AND_SSOP_NO_SBCHK(STRING$, OFF, START$, START$);
      399    17537    3        ELSE
      400    17538    3          IF OFF ~= 0 THEN
      401    17539    3            CALL Z8AF$NEW_OFF (STRING$, OFF, START$);
      402    17540    3          ELSE
      403    17541    3            START$ = STRING$;
      404    17542        %EJECT;
PL6.E3A0      #002=Z8EY$SUBSTR File=Z8EY.:Z8A6TSI                                SAT 08/09/97 13:00 Page:39
      405    17543    3      CASE (%TRIAD);
      406    17544    3        CALL OFFSET_OVERFLOW_CHECK (OFF, 0, START$, VARIABLE_START, STRING$);
      407    17545    3        IF OFF ~= 0
      408    17546    3        OR VARIABLE_START THEN
      409    17547    4          DO;
      410    17548    4            CALL Z8AT$CREATE_TEMP_WITH_BASE (%SCALAR, TEMP$);
      411    17549    4            TEMP$ -> ETT.LOP -> SCALAR.TYPE   = %TYA;
      412    17550    4            TEMP$ -> ETT.LOP -> SCALAR.ADSC.N = STRING_ST$ -> SCALAR.ADSC.N;
      413    17551
      414    17552                 %NEW_ILL (@ID  = %PRESET,
      415    17553                           @ROP = STRING$ -> ETT.LOP,
      416    17554                           @LOP = TEMP$ -> ETT.LOP);
      417    17933
      418    17934    4            IF VARIABLE_START THEN
      419    17935    4              IF SBCHK_FLAG THEN
      420    17936    4                CALL Z8AF$NEW_OFF_AND_SSOP (TEMP$, OFF, START$, START$);
      421    17937    4              ELSE
      422    17938    4                CALL Z8AF$NEW_OFF_AND_SSOP_NO_SBCHK(TEMP$, OFF, START$, START$);
      423    17939    4            ELSE /* NOT VARIABLE_START */
      424    17940    4              CALL Z8AF$NEW_OFF (TEMP$, OFF, START$);
      425    17941    4          END;
      426    17942    3        ELSE
      427    17943    3          START$ = STRING$;
      428    17944
      429    17945
      430    17946        %EJECT;
PL6.E3A0      #002=Z8EY$SUBSTR File=Z8EY.:Z8A6TSI                                SAT 08/09/97 13:00 Page:40
      431    17947    3      CASE (%SIZ, %FISS, %REFMOD); /*#28637*/
      432    17948    3        CALL OFFSET_OVERFLOW_CHECK (OFF, 0, START$, VARIABLE_START, STRING$);
      433    17949
      434    17950    3        IF VARIABLE_START THEN
      435    17951    3          IF SBCHK_FLAG THEN
      436    17952    3            CALL Z8AF$NEW_OFF_AND_SSOP (STRING$, OFF, START$, START$);
      437    17953    3          ELSE
      438    17954    3            CALL Z8AF$NEW_OFF_AND_SSOP_NO_SBCHK (STRING$, OFF, START$, START$);
      439    17955    3        ELSE
      440    17956    3          IF OFF ~= 0 THEN
      441    17957    3            CALL Z8AF$NEW_OFF (STRING$ -> ETT.LOP, OFF, START$);
      442    17958    3          ELSE
      443    17959    3            START$ = STRING$ -> ETT.LOP;
      444    17960
      445    17961    3    END; /* Case -- ident$ -> ill.id */
      446    17962    2   END CREATE_START_POSITION;  /*  proc  */
      447    17963        %EJECT;
PL6.E3A0      #002=Z8EY$SUBSTR File=Z8EY.:Z8A6TSI                                SAT 08/09/97 13:00 Page:41
      448    17964        %MACRO CREATE_LENGTH_ITEMS (@FISS      = FISS,
      449    17965                                    @SIZ$      = SIZ$,
      450    17966                                    @START_AT$ = STRT_POS$,
      451    17967                                    @RETURN$   = VAR$ -> LX_ETT_ITEM.ETT$);
      452    17968
      453    17969         IF SIZ$ = ADDR(NIL) THEN
      454    17970           CALL Z8AF$NEW_FISS (@START_AT$, @FISS, %ALPHA_NUMERIC_FISS, @RETURN$);
      455    17971         ELSE
      456    17972           CALL Z8AF$FORME (%REFMOD, @START_AT$, @SIZ$, @RETURN$); /*#28637*/
      457    17973        %MEND;
      458    17974        %EJECT;
PL6.E3A0      #002=Z8EY$SUBSTR File=Z8EY.:Z8A6TSI                                SAT 08/09/97 13:00 Page:42
      459    17975    1    SBCHK_FLAG = TRUE;
      460    17976    1    CONV_FLAG = TRUE;
      461    17977    1    GOTO START_Z8EY_SUBSTR;
      462    17978         /**/
      463    17979    1   Z8EY$SUBSTR_NO_SBCHK: ENTRY (VAR$$, START$$, LENGTH$$, RETURN$); /*#42050*/
      464    17980    1    SBCHK_FLAG = FALSE;
      465    17981    1    CONV_FLAG = TRUE;
      466    17982    1    GOTO START_Z8EY_SUBSTR;
      467    17983         /**/
      468    17984    1   Z8EY$INSERT: ENTRY (VAR$$, START$$, LENGTH$$, RETURN$);
      469    17985    1    SBCHK_FLAG = FALSE;
      470    17986    1    CONV_FLAG = FALSE;
      471    17987
      472    17988    1   START_Z8EY_SUBSTR:
      473    17989         %FISH (TRIAD = VAR$$ -> LX_ETT_ITEM.ETT$,
      474    17990                RTN = VAR_ST$);
      475    17998
      476    17999    1    IF VAR_ST$ -> SCALAR.B.KANJI AND SBCHK_FLAG THEN
      477    18000           /* SBCHK_FLAG false only for INSPECT, EXAMINE -- no KANJI check needed, either */
      478    18001    2      DO;
      479    18002    2        BYTE_SIZE = 2;
      480    18003    2        START$ = ADDR( OFFSET_TIMES_2 );
      481    18004    2        TWO$ = ADDR( TWO );
      482    18005    2        CALL Z8AC$LX_ETT_ITEM_TYI_CONST (2, TWO$);
      483    18006             %INIT_BINARY_OP (@POINTER = START$,
      484    18007                              @OP      = %OP_STAR,
      485    18008                              @LOP$    = START$$,
      486    18009                              @ROP$    = TWO$);
      487    18027    2      END;
      488    18028    1    ELSE
      489    18029    2      DO;
      490    18030    2        BYTE_SIZE = 1;
      491    18031    2        START$ = START$$;
      492    18032    2      END;
      493    18033
      494    18034    1    VAR$ = ADDR(SUBSTR_VAR);
      495    18035    1    VAR$ -> LX_ETT_ITEM = VAR$$ -> LX_ETT_ITEM;
PL6.E3A0      #002=Z8EY$SUBSTR File=Z8EY.:Z8A6TSI                                SAT 08/09/97 13:00 Page:43
      496    18036
      497    18037    1    CALL Z8E5$MATH_PACK (START$, ADDR(START_POS));
      498    18038    1    CALL Z8EQ$CHECK_FOR_INTEGER_ITEM (ADDR(START_POS),
      499    18039    1                                      %E$ONLY_INT_EXPR_FOR_REFMOD);
      500    18040
      501    18041    1    IF LENGTH$$ ~= ADDR(NIL) THEN   /* LENGTH_SPECIFIED */
      502    18042    2      DO;
      503    18043    2        IF BYTE_SIZE = 2 THEN /* KANJI */
      504    18044    3          DO;
      505    18045    3            LENGTH$ = ADDR(LENGTH_TIMES_2);
      506    18046                 %INIT_BINARY_OP (@POINTER = LENGTH$,
      507    18047                                  @OP      = %OP_STAR,
      508    18048                                  @LOP$    = LENGTH$$,
      509    18049                                  @ROP$    = TWO$);
      510    18067    3          END;
      511    18068    2        ELSE
      512    18069    2          LENGTH$ = LENGTH$$;
      513    18070    2        CALL Z8E5$MATH_PACK (LENGTH$, ADDR(LENGTH));
      514    18071    2        CALL Z8EQ$CHECK_FOR_INTEGER_ITEM (ADDR(LENGTH),
      515    18072    2                                          %E$ONLY_INT_EXPR_FOR_REFMOD);
      516    18073    2        LENGTH$ = ADDR(LENGTH);
      517    18074    2      END;
      518    18075    1    ELSE
      519    18076    1      LENGTH$ = ADDR(NIL);
      520    18077
      521    18078    1    CALL Z8CO$DISPL_CHECK (VAR$)
      522    18079    1      WHENALTRETURN
      523    18080    2        DO;
      524    18081    2          IF VAR$ -> LX_ETT_ITEM.TYPE ~= %TYX AND
      525    18082    2             VAR$ -> LX_ETT_ITEM.TYPE ~= %TYY THEN /* Prevent unexpected case */
      526    18083    2            CALL Z8EV$CONVERT (%TYA, VAR$, VAR$);
      527    18084
      528    18085               %INIT_LX_ETT_ITEM (@POINTER = RETURN$,
      529    18086                                  @ETT$    = VAR$ -> LX_ETT_ITEM.ETT$,
      530    18087                                  @TYPE    = %TYA,
      531    18088                                  @LINE    = VAR$ -> LX_ETT_ITEM.LINE,
      532    18089                                  @COLUMN  = VAR$ -> LX_ETT_ITEM.COLUMN);
PL6.E3A0      #002=Z8EY$SUBSTR File=Z8EY.:Z8A6TSI                                SAT 08/09/97 13:00 Page:44
      533    18111    2          RETURN;
      534    18112    2        END;
      535    18113
      536    18114
      537    18115    1    STRT_POS$ = ADDR(START_POS) -> LX_ETT_ITEM.ETT$;
      538    18116
      539    18117    1    IF LENGTH$ ~= ADDR(NIL) THEN
      540    18118    1      LENGTH$ = LENGTH$ -> LX_ETT_ITEM.ETT$;
      541    18119
      542    18120    1    STRING$   = VAR$ -> LX_ETT_ITEM.ETT$;
      543    18121
      544    18122         %FISH (TRIAD = STRING$,
      545    18123                RTN   = STRING_ST$);
      546    18131
      547    18132    1    FISS   = 0;
      548    18133    1    SIZ$   = ADDR(NIL);
      549    18134
      550    18135    2    DO CASE (STRING_ST$ -> VARIABLE.TYPE);
      551    18136    2      CASE (%TYA, %TYN, %TYB, %TYE);
      552    18137             %GET_ADSC_LEN (ST$ = STRING_ST$,
      553    18138                            RTN = MAXLEN);
      554    18149    2      CASE (ELSE);
      555    18150    2        MAXLEN = STRING_ST$ -> VARIABLE.NDSC.N;
      556    18151    2    END;
      557    18152    1    IF LENGTH$ = ADDR(NIL) THEN
      558    18153    1      CALL GET_IMPLIED_LENGTH (STRING$, STRT_POS$, FISS, SIZ$);
      559    18154    1    ELSE
      560    18155           %GET_SPECIFIED_LENGTH (@LENGTH$ = LENGTH$,
      561    18156                                  @FISS    = FISS,
      562    18157                                  @SIZ$    = SIZ$);
      563    18166
      564    18167    2    IF COMCOM.OB.SUBCHK AND STRT_POS$ -> ETT.ID = %TRIAD THEN DO;
      565    18168    2      OFF = STRT_POS$ -> ETT.LOP -> CONST.CONSTI.WORD1;
      566    18169    2      IF LENGTH$ ~= ADDR(NIL) THEN
      567    18170    2        IF LENGTH$ -> ETT.ID = %TRIAD THEN
      568    18171    2          OFF = OFF + LENGTH$ -> ETT.LOP -> CONST.CONSTI.WORD1 - 1;
      569    18172    2      IF OFF > MAXLEN THEN
PL6.E3A0      #002=Z8EY$SUBSTR File=Z8EY.:Z8A6TSI                                SAT 08/09/97 13:00 Page:45
      570    18173    2        CALL Z8AE$ERROR (%E$REFMOD_OUT_OF_BOUNDS);
      571    18174    2    END;
      572    18175
      573    18176    1    IF (VAR$ -> LX_ETT_ITEM.TYPE = %TYB OR VAR$ -> LX_ETT_ITEM.TYPE = %TYE)
      574    18177    1        AND CONV_FLAG THEN
      575    18178    2      DO;
      576    18179    2        IF VAR$ -> LX_ETT_ITEM.TYPE = %TYB
      577    18180    2          THEN OP = %OP_GBCD_TO_ASCII;
      578    18181    2          ELSE OP = %OP_EBCDIC_TO_ASCII;
      579    18182    2        CALL Z8CO$CREATE_LIBRARY_BASE (OP, TABLE_ETT$);
      580    18183    2        CALL Z8AF$FORME (%CVT,
      581    18184    2                         STRING$,
      582    18185    2                         TABLE_ETT$,
      583    18186    2                         STRING$);
      584    18187    2        VAR$ -> LX_ETT_ITEM.TYPE = %TYA;
      585    18188             /* Needed in case result assigned to numeric variable */
      586    18189    2      END;
      587    18190
      588    18191    1    OFF    = 0;
      589    18192
      590    18193    1    CALL CREATE_START_POSITION (STRING$, OFF, STRT_POS$);
      591    18194
      592    18195    2    DO CASE (VAR$ -> LX_ETT_ITEM.TYPE);
      593    18196    2      CASE (%TYA, %TYN, %TYB, %TYE);
      594    18197    2        TYPE = VAR$ -> LX_ETT_ITEM.TYPE;
      595    18198    2      CASE (ELSE);
      596    18199    2        CALL Z8AF$FORME (%DNA,
      597    18200    2                         STRT_POS$,
      598    18201    2                         0,
      599    18202    2                         STRT_POS$);
      600    18203    2        TYPE = %TYA;
      601    18204    2      END;
      602    18205
      603    18206         %CREATE_LENGTH_ITEMS (@FISS      = FISS,
      604    18207                               @SIZ$      = SIZ$,
      605    18208                               @START_AT$ = STRT_POS$,
      606    18209                               @RETURN$   = VAR$ -> LX_ETT_ITEM.ETT$);
PL6.E3A0      #002=Z8EY$SUBSTR File=Z8EY.:Z8A6TSI                                SAT 08/09/97 13:00 Page:46
      607    18215
      608    18216         %INIT_LX_ETT_ITEM (@POINTER = RETURN$,
      609    18217                            @REFMOD  = TRUE,
      610    18218                            @ETT$    = VAR$ -> LX_ETT_ITEM.ETT$,
      611    18219                            @TYPE    = TYPE,
      612    18220                            @LINE    = VAR$ -> LX_ETT_ITEM.LINE,
      613    18221                            @COLUMN  = VAR$ -> LX_ETT_ITEM.COLUMN);
      614    18243
      615    18244    1     RETURN;
      616    18245
      617    18246    1   END Z8EY$SUBSTR;
      618    18247        %EOD;

PL6.E3A0      #002=Z8EY$SUBSTR File=Z8EY.:Z8A6TSI                                SAT 08/09/97 13:00 Page:47
--  Include file information  --

   Z8A_MKCN.:Z8A6TOU  cannot be made into a system file and is referenced.
   Z8E_O1COM.:Z8A6TOU  cannot be made into a system file and is referenced.
   Z8A_LEX_SYMB.:Z8A6TOU  cannot be made into a system file and is referenced.
   Z8E_STACKS.:Z8A6TOU  cannot be made into a system file and is referenced.
   Z8A_LTS.:Z8A6TOU  cannot be made into a system file and is referenced.
   Z8E_NEW_ILL.:Z8A6TOU  is referenced.
   Z8E_MACROS.:Z8A6TOU  cannot be made into a system file and is referenced.
   Z8E_WINDOW.:Z8A6TOU  is referenced.
   Z8A_DNT.:Z8A6TOU  cannot be made into a system file and is referenced.
   Z8A_TYPES.:Z8A6TOU  is referenced.
   Z8A_ST.:Z8A6TOU  cannot be made into a system file and is referenced.
   Z8A_LIBRARY.:Z8A6TOU  cannot be made into a system file and is referenced.
   Z8A_ILS.:Z8A6TOU  cannot be made into a system file and is referenced.
   Z8A_ILL.:Z8A6TOU  cannot be made into a system file and is referenced.
   Z8A_SRCH.:Z8A6TOU  cannot be made into a system file and is referenced.
   Z8A_ETT.:Z8A6TOU  cannot be made into a system file and is referenced.
   Z8A_COMCOM.:Z8A6TOU  cannot be made into a system file and is referenced.
   Z8A_ERR_NUMS.:Z8A6TOU  is referenced.
   X8A_COM_MACS.:X8A6TOU  is referenced.
   Z8A_NAMES.:Z8A6TOU  is referenced.
   Z8A_SUPP_MAC.:Z8A6TOU  is referenced.
   Z9A_FLAGS.:Z8A6TOU  is referenced.
   Z8A_DEFC.:Z8A6TOU  cannot be made into a system file and is referenced.
      No diagnostics issued in procedure Z8EY$SUBSTR.

   Procedure Z8EY$SUBSTR requires 1197 words for executable code.
   Procedure Z8EY$SUBSTR requires 116 words of local(AUTO) storage.

PL6.E3A0      #002=Z8EY$SUBSTR File=Z8EY.:Z8A6TSI                                SAT 08/09/97 13:00 Page:48

 Object Unit name= Z8EY$SUBSTR                                File name= Z8EY.:Z8A6TOU
 UTS= AUG 09 '97 13:00:37.32 SAT                              Compiler= PL-6/E31         Sev=      00
 SharedLib= :SHARED_SYSTEM                                    Alt SharedLib=


    ****  Control sections  ****

 Sect   Type Bound  Init  Size OctSiz  Section name(segment info)
    0  LblCom even  none     1      1  ITERATION
    1  LblCom even  none     1      1  ETT$
    2  LblCom even  none     1      1  HEAD_ETT$
    3  LblCom even  none   512   1000  ETT_BUCKETS
    4  LblCom even  none     5      5  ETT_
    5  LblCom even  none     3      3  SRCH
    6  LblCom even  none     1      1  ILL$
    7  LblCom even  none     5      5  ILL_
    8  LblCom even  none     1      1  ILS$
    9  LblCom even  none     5      5  ILS_
   10  LblCom even  none     1      1  ST$
   11  LblCom even  none     5      5  ST_
   12  LblCom even  none     1      1  DNT$
   13  LblCom even  none     5      5  DNT_
   14  LblCom even  none     1      1  DNT_BUCKET_NUMBER
   15  LblCom even  none     1      1  DNT_OF_1$
   16  LblCom even  none     1      1  LTS$
   17  LblCom even  none     5      5  LTS_
   18  LblCom even  none    90    132  LEX_SYMBOL
   19  LblCom even  none     1      1  CURRENT_LEX_SYMBOL$
   20  LblCom even  none    90    132  TEMP_LEX_SYMBOL
   21  LblCom even  none    90    132  TEMP_LEX_SYMBOL2
   22  LblCom even  none     2      2  MKCN
   23   Proc  even  none  1197   2255  Z8EY$SUBSTR
   24  RoData even  none    40     50  Z8EY$SUBSTR
PL6.E3A0      #002=Z8EY$SUBSTR File=Z8EY.:Z8A6TSI                                SAT 08/09/97 13:00 Page:49

    ****  Entry defs  ****

                              Check   Calling
                             calling  sequence
  Sect OctLoc Primary Altret sequence   type   Parms  Name
    23      0   yes            yes      Std        4  Z8EY$SUBSTR
    23   1327                  yes      Std        4  Z8EY$SUBSTR_NO_SBCHK
    23   1335                  yes      Std        4  Z8EY$INSERT

  ****  Entry refs  ****

         Check        Calling
        calling       sequence
Altret sequence SRef   type   Args  Name
         yes           Std       2 Z8AC$LX_ETT_ITEM_TYI_CONST
 yes     yes           Std       2 Z8EQ$CHECK_FOR_INTEGER_ITEM
         yes           Std       3 Z8EV$CONVERT
         yes           Std      12 Z8AE$ERROR
         yes           Std       2 Z8CO$CREATE_LIBRARY_BASE
         yes           Std       4 Z8AF$NEW_FISS
         yes           Std       4 Z8AF$FORME
         yes           Std       2 Z8E5$MATH_PACK
 yes     yes           Std       1 Z8CO$DISPL_CHECK
         yes           Std       2 Z8AU$TYPE_DESCRIPTOR
         yes           Std       1 Z8AC$MAKE_CONST
         yes           Std       3 Z8AF$NEW_OFF
         yes           Std       4 Z8AF$NEW_OFF_AND_SSOP
         yes           Std       4 Z8AN$NEW_ILL
         yes           Std       4 Z8AF$NEW_OFF_AND_SSOP_NO_SBCHK
         yes           Std       2 Z8AT$CREATE_TEMP_WITH_BASE
                       nStd      0 X66_AUTO_4
                       nStd      0 X66_ARET
PL6.E3A0      #002=Z8EY$SUBSTR File=Z8EY.:Z8A6TSI                                SAT 08/09/97 13:00 Page:50

  ****  Data refs  ****

  Flags:  r = read only, s = secondary
Flgs Name                             Flgs Name                             Flgs Name
     COMCOM                           r    ILL_STEP                         r    ILS_STEP_TABLE
r    LTS_STEP                              O1COM                                 HIER_STK_PTR
     HIER_STK                              PAGE_FORMAT                           REP_STK_PTR
     REP_STK

  ****  Segment refs  ****

  Flags:  r = read only, s = secondary
Flgs Name                             Flgs Name                             Flgs Name
     NULLSID                               ISSID
PL6.E3A0      #002=Z8EY$SUBSTR File=Z8EY.:Z8A6TSI                                SAT 08/09/97 13:00 Page:51


       77        1        /*T***********************************************************/
       78        2        /*T*                                                         */
       79        3        /*T* Copyright (c) Bull HN Information Systems Inc., 1997    */
       80        4        /*T*                                                         */
       81        5        /*T***********************************************************/
       82        6        Z8EY$SUBSTR: PROC (VAR$$, START$$, LENGTH$$, RETURN$);

      6 23 000000   000000 700200 xent  Z8EY$SUBSTR  TSX0  ! X66_AUTO_4
        23 000001   000164 000004                    ZERO    116,4
        23 000002   001323 710000 23                 TRA     s:17975

       83        7
       84        8        %EQU PHASE = 1;
       85        9        %EQU LENGTH_SPECIFIED = 2;
       86       10
       87       11        %INCLUDE Z8A_DEFC;
       88       79        %INCLUDE Z9A_FLAGS;
       89       93        %INCLUDE Z8A_SUPP_MAC;
       90     2493        %INCLUDE Z8A_ERR_NUMS;
       91     3257        %INCLUDE Z8A_COMCOM;
       92     3907        %INCLUDE Z8A_ETT;
       93     4208        %INCLUDE Z8A_SRCH;
       94     4257        %INCLUDE Z8A_ILL;
       95     4950        %INCLUDE Z8A_ILS;
       96     5059        %INCLUDE Z8A_LIBRARY;
       97     5273        %INCLUDE Z8A_ST;
       98     8932        %INCLUDE Z8A_TYPES;
       99     9106        %INCLUDE Z8A_DNT;
      100     9327        %INCLUDE Z8E_WINDOW;
      101    11397        %INCLUDE Z8E_MACROS;
      102    12072        %INCLUDE Z8A_LTS;
      103    14149        %INCLUDE Z8E_STACKS;
      104    16415        %INCLUDE Z8E_O1COM;
      105    17176
      106    17177    1   DCL Z8AC$MAKE_CONST           ENTRY(1);
      107    17178    1   DCL Z8AC$LX_ETT_ITEM_TYI_CONST ENTRY(2);
PL6.E3A0      #002=Z8EY$SUBSTR File=Z8EY.:Z8A6TSI                                SAT 08/09/97 13:00 Page:52
      108    17179    1   DCL Z8AU$TYPE_DESCRIPTOR      ENTRY(2);
      109    17180    1   DCL Z8EQ$CHECK_FOR_INTEGER_ITEM      ENTRY (2) ALTRET;
      110    17181    1   DCL Z8AF$NEW_OFF              ENTRY (3);
      111    17182    1   DCL Z8AF$NEW_FISS             ENTRY (4);
      112    17183    1   DCL Z8AF$NEW_OFF_AND_SSOP     ENTRY (4);
      113    17184    1   DCL Z8AF$NEW_OFF_AND_SSOP_NO_SBCHK ENTRY (4);
      114    17185    1   DCL Z8AT$CREATE_TEMP_WITH_BASE ENTRY(2);
      115    17186    1   DCL Z8AE$ERROR                ENTRY(12);
      116    17187    1   DCL Z8AF$FORME                ENTRY(4);
      117    17188    1   DCL Z8EV$CONVERT              ENTRY(3);
      118    17189    1   DCL Z8E5$MATH_PACK            ENTRY(2);
      119    17190    1   DCL Z8CO$DISPL_CHECK          ENTRY(1) ALTRET;
      120    17191    1   DCL Z8CO$CREATE_LIBRARY_BASE  ENTRY(2);
      121    17192
      122    17193    1   DCL START$$                   PTR;
      123    17194    1   DCL LENGTH$$                  PTR;
      124    17195    1   DCL VAR$$                     PTR;
      125    17196    1   DCL RETURN$                   PTR;
      126    17197
      127    17198    1   DCL START$                    PTR;
      128    17199        %DCL_AUTO_LX_ITEM (@NAME = START_POS);
      129    17203        %DCL_AUTO_LX_ITEM (@NAME = LENGTH);
      130    17207        %DCL_AUTO_LX_ITEM (@NAME = SUBSTR_VAR);
      131    17211        %DCL_AUTO_LX_ITEM (@NAME = OFFSET_TIMES_2);
      132    17215        %DCL_AUTO_LX_ITEM (@NAME = LENGTH_TIMES_2);
      133    17219        %DCL_AUTO_LX_ITEM (@NAME = TWO);
      134    17223    1   DCL VAR_ST$                   PTR;
      135    17224    1   DCL TWO$                      PTR;
      136    17225    1   DCL LENGTH$                   PTR;
      137    17226    1   DCL STRING$                   PTR;
      138    17227    1   DCL VAR$                      PTR;
      139    17228    1   DCL STRT_POS$                 PTR;
      140    17229    1   DCL TEMP$                     PTR;
      141    17230    1   DCL STRING_ST$                PTR;
      142    17231    1   DCL SIZ$                      PTR;
      143    17232    1   DCL TABLE_ETT$                PTR;
      144    17233    1   DCL CONV_FLAG                 BOOLEAN;
PL6.E3A0      #002=Z8EY$SUBSTR File=Z8EY.:Z8A6TSI                                SAT 08/09/97 13:00 Page:53
      145    17234
      146    17235        %INCLUDE Z8A_MKCN;
      147    17252    1   DCL OFF                       SBIN WORD;
      148    17253    1   DCL FISS                      SBIN WORD;
      149    17254    1   DCL TYPE                      SBIN WORD;
      150    17255    1   DCL BYTE_SIZE                 SBIN WORD;
      151    17256    1   DCL SBCHK_FLAG                BIT(1);
      152    17257    1   DCL MAXLEN                    SBIN;
      153    17258    1   DCL OP                        SBIN WORD;
      154    17259        %EJECT;
PL6.E3A0      #002=Z8EY$SUBSTR File=Z8EY.:Z8A6TSI                                SAT 08/09/97 13:00 Page:54
      155    17260
      156    17261        %MACRO GET_SPECIFIED_LENGTH (@LENGTH$  = LENGTH$,
      157    17262                                     @FISS     = FISS,
      158    17263                                     @SIZ$     = SIZ$);
      159    17264           DO;
      160    17265             IF @LENGTH$ -> ETT.ID = %TRIAD
      161    17266             AND @LENGTH$ -> ETT.LOP -> CONST.CONSTI.WORD1 < %#4K THEN
      162    17267               @FISS = @LENGTH$ -> ETT.LOP -> CONST.CONSTI.WORD1;
      163    17268             ELSE
      164    17269               @SIZ$ = @LENGTH$;
      165    17270           END;
      166    17271        %MEND;
      167    17272        %EJECT;
PL6.E3A0      #002=Z8EY$SUBSTR File=Z8EY.:Z8A6TSI                                SAT 08/09/97 13:00 Page:55
      168    17273    1   GET_LENGTH: PROC (STRING$, LENGTH, SIZ$);

  17273 23 000003   200146 741300       GET_LENGTH   STX1  ! SIZ$+1,,AUTO

      169    17274
      170    17275    2   DCL STRING$                   PTR;
      171    17276    2   DCL SIZ$                      PTR;
      172    17277    2   DCL LENGTH                    SBIN WORD;
      173    17278    2   DCL 1 TYPE_DESC               ALIGNED,
      174    17279             %TYPE_DESC;
      175    17313
      176    17314    2    LENGTH = 0;

  17314 23 000004   200150 470500                    LDP0    @LENGTH,,AUTO
        23 000005   000000 450100                    STZ     0,,PR0

      177    17315    2    SIZ$ = ADDR(NIL);

  17315 23 000006   000000 236000 24                 LDQ     0
        23 000007   200151 471500                    LDP1    @SIZ$,,AUTO
        23 000010   100000 756100                    STQ     0,,PR1

      178    17316
      179    17317    2    CALL Z8AU$TYPE_DESCRIPTOR (STRING$, TYPE_DESC);

  17317 23 000011   200152 633500                    EPPR3   TYPE_DESC,,AUTO
        23 000012   200157 453500                    STP3    TYPE_DESC+5,,AUTO
        23 000013   200147 236100                    LDQ     @STRING$,,AUTO
        23 000014   200156 756100                    STQ     TYPE_DESC+4,,AUTO
        23 000015   200156 630500                    EPPR0   TYPE_DESC+4,,AUTO
        23 000016   000001 631400 24                 EPPR1   1
        23 000017   000000 701000 xent               TSX1    Z8AU$TYPE_DESCRIPTOR
        23 000020   000000 011000                    NOP     0

      180    17318
      181    17319    3    IF TYPE_DESC.SIZ$ ~= ADDR(NIL) THEN DO;

PL6.E3A0      #002=Z8EY$SUBSTR File=Z8EY.:Z8A6TSI                                SAT 08/09/97 13:00 Page:56
  17319 23 000021   200154 236100                    LDQ     TYPE_DESC+2,,AUTO
        23 000022   000000 116000 24                 CMPQ    0
        23 000023   000037 600000 23                 TZE     s:17325

      182    17320    3        SIZ$ = TYPE_DESC.SIZ$;

  17320 23 000024   200151 470500                    LDP0    @SIZ$,,AUTO
        23 000025   000000 756100                    STQ     0,,PR0

      183    17321    3        IF TYPE_DESC.SIZ$ -> ETT.ID = %TRIAD THEN /* Constant */

  17321 23 000026   200154 471500                    LDP1    TYPE_DESC+2,,AUTO
        23 000027   100000 220100                    LDX0    0,,PR1
        23 000030   000015 100003                    CMPX0   13,DU
        23 000031   000066 601000 23                 TNZ     s:17332

      184    17322    3        LENGTH = TYPE_DESC.SIZ$ -> ETT.LOP -> CONST.CONSTI.WORD1;

  17322 23 000032   100001 473500                    LDP3    1,,PR1
        23 000033   200150 474500                    LDP4    @LENGTH,,AUTO
        23 000034   300010 235100                    LDA     8,,PR3
        23 000035   400000 755100                    STA     0,,PR4

      185    17323    3    END;

  17323 23 000036   000066 710000 23                 TRA     s:17332

      186    17324    2    ELSE
      187    17325    3      DO CASE (TYPE_DESC.TYPE);

  17325 23 000037   200152 235100                    LDA     TYPE_DESC,,AUTO
        23 000040   000006 135007                    SBLA    6,DL
        23 000041   000011 115007                    CMPA    9,DL
        23 000042   000044 602005 23                 TNC     s:17325+5,AL
        23 000043   000062 710000 23                 TRA     s:17329
        23 000044   000055 710000 23                 TRA     s:17327
        23 000045   000062 710000 23                 TRA     s:17329
PL6.E3A0      #002=Z8EY$SUBSTR File=Z8EY.:Z8A6TSI                                SAT 08/09/97 13:00 Page:57
        23 000046   000055 710000 23                 TRA     s:17327
        23 000047   000062 710000 23                 TRA     s:17329
        23 000050   000062 710000 23                 TRA     s:17329
        23 000051   000062 710000 23                 TRA     s:17329
        23 000052   000055 710000 23                 TRA     s:17327
        23 000053   000062 710000 23                 TRA     s:17329
        23 000054   000055 710000 23                 TRA     s:17327

      188    17326    3        CASE (%TYA, %TYN, %TYB, %TYE);

      189    17327    3          LENGTH = TYPE_DESC.DESC.ADSC.N;

  17327 23 000055   200153 236100                    LDQ     TYPE_DESC+1,,AUTO
        23 000056   007777 376007                    ANQ     4095,DL
        23 000057   200150 470500                    LDP0    @LENGTH,,AUTO
        23 000060   000000 756100                    STQ     0,,PR0
        23 000061   000066 710000 23                 TRA     s:17332

      190    17328    3        CASE (ELSE);

      191    17329    3          LENGTH = TYPE_DESC.DESC.NDSC.N;

  17329 23 000062   200153 236100                    LDQ     TYPE_DESC+1,,AUTO
        23 000063   000077 376007                    ANQ     63,DL
        23 000064   200150 470500                    LDP0    @LENGTH,,AUTO
        23 000065   000000 756100                    STQ     0,,PR0

      192    17330    3      END;

      193    17331
      194    17332    2   END; /* PROC -- GET_LENGTH */

  17332 23 000066   200146 221300                    LDX1  ! SIZ$+1,,AUTO
        23 000067   000001 702211                    TSX2  ! 1,X1

      195    17333        %EJECT;
PL6.E3A0      #002=Z8EY$SUBSTR File=Z8EY.:Z8A6TSI                                SAT 08/09/97 13:00 Page:58
      196    17334    1   GET_IMPLIED_LENGTH: PROC (STRING$, STRT_POS$, FISS, SIZ$);

  17334 23 000070   200124 741300       GET_IMPLIED* STX1  ! OP+1,,AUTO

      197    17335
      198    17336    2   DCL STRING$                   PTR;
      199    17337    2   DCL SIZ$                      PTR;
      200    17338    2   DCL FISS                      SBIN WORD;
      201    17339    2   DCL STRT_POS$                 PTR;
      202    17340
      203    17341    2   DCL ST$$                      PTR;
      204    17342    2   DCL LENGTH                    SBIN WORD;
      205    17343    2    CALL GET_LENGTH (STRING$, LENGTH, SIZ$);

  17343 23 000071   200130 236100                    LDQ     @SIZ$,,AUTO
        23 000072   200151 756100                    STQ     @SIZ$,,AUTO
        23 000073   200132 630500                    EPPR0   LENGTH,,AUTO
        23 000074   200150 450500                    STP0    @LENGTH,,AUTO
        23 000075   200125 236100                    LDQ     @STRING$,,AUTO
        23 000076   200147 756100                    STQ     @STRING$,,AUTO
        23 000077   000003 701000 23                 TSX1    GET_LENGTH
        23 000100   000000 011000                    NOP     0

      206    17344
      207    17345    2    IF LENGTH ~= 0 THEN

  17345 23 000101   200132 235100                    LDA     LENGTH,,AUTO
        23 000102   000157 600000 23                 TZE     s:17367

      208    17346    3      DO;

      209    17347    3        IF STRT_POS$ -> ETT.ID = %TRIAD THEN

  17347 23 000103   200126 470500                    LDP0    @STRT_POS$,,AUTO
        23 000104   000000 471500                    LDP1    0,,PR0
        23 000105   100000 220100                    LDX0    0,,PR1
        23 000106   000015 100003                    CMPX0   13,DU
PL6.E3A0      #002=Z8EY$SUBSTR File=Z8EY.:Z8A6TSI                                SAT 08/09/97 13:00 Page:59
        23 000107   000132 601000 23                 TNZ     s:17360

      210    17348    4          DO;

      211    17349    4            FISS = LENGTH + BYTE_SIZE - STRT_POS$ -> ETT.LOP -> CONST.CONSTI.WORD1;

  17349 23 000110   200132 236100                    LDQ     LENGTH,,AUTO
        23 000111   200120 036100                    ADLQ    BYTE_SIZE,,AUTO
        23 000112   100001 473500                    LDP3    1,,PR1
        23 000113   300010 136100                    SBLQ    8,,PR3
        23 000114   200127 474500                    LDP4    @FISS,,AUTO
        23 000115   400000 756100                    STQ     0,,PR4

      212    17350    4            IF FISS < %#4K THEN

  17350 23 000116   010000 116007                    CMPQ    4096,DL
        23 000117   000124 605000 23                 TPL     s:17354

      213    17351    4              SIZ$ = ADDR(NIL);

  17351 23 000120   000000 236000 24                 LDQ     0
        23 000121   200130 471500                    LDP1    @SIZ$,,AUTO
        23 000122   100000 756100                    STQ     0,,PR1
        23 000123   000203 710000 23                 TRA     s:17371

      214    17352    4            ELSE
      215    17353    5              DO;

      216    17354    5                MKCN.CON = FISS;

  17354 23 000124   000000 756000 22                 STQ     MKCN

      217    17355    5                CALL Z8AC$MAKE_CONST(SIZ$);

  17355 23 000125   200130 630500                    EPPR0   @SIZ$,,AUTO
        23 000126   000002 631400 24                 EPPR1   2
        23 000127   000000 701000 xent               TSX1    Z8AC$MAKE_CONST
PL6.E3A0      #002=Z8EY$SUBSTR File=Z8EY.:Z8A6TSI                                SAT 08/09/97 13:00 Page:60
        23 000130   000000 011000                    NOP     0

      218    17356    5              END;

      219    17357    4           END;

  17357 23 000131   000203 710000 23                 TRA     s:17371

      220    17358    3        ELSE
      221    17359    4          DO;

      222    17360    4            MKCN.CON = LENGTH + BYTE_SIZE; /* BYTE_SIZE = 1 or 2 */

  17360 23 000132   200132 236100                    LDQ     LENGTH,,AUTO
        23 000133   200120 036100                    ADLQ    BYTE_SIZE,,AUTO
        23 000134   000000 756000 22                 STQ     MKCN

      223    17361    4            CALL Z8AC$MAKE_CONST(ST$$);

  17361 23 000135   200131 631500                    EPPR1   ST$$,,AUTO
        23 000136   200156 451500                    STP1    TYPE_DESC+4,,AUTO
        23 000137   200156 630500                    EPPR0   TYPE_DESC+4,,AUTO
        23 000140   000002 631400 24                 EPPR1   2
        23 000141   000000 701000 xent               TSX1    Z8AC$MAKE_CONST
        23 000142   000000 011000                    NOP     0

      224    17362    4            CALL Z8AF$FORME(%SBI, ST$$, STRT_POS$, SIZ$) ;

  17362 23 000143   200130 236100                    LDQ     @SIZ$,,AUTO
        23 000144   200126 235100                    LDA     @STRT_POS$,,AUTO
        23 000145   200160 757100                    STAQ    TYPE_DESC+6,,AUTO
        23 000146   200131 630500                    EPPR0   ST$$,,AUTO
        23 000147   200157 450500                    STP0    TYPE_DESC+5,,AUTO
        23 000150   000005 236000 24                 LDQ     5
        23 000151   200156 756100                    STQ     TYPE_DESC+4,,AUTO
        23 000152   200156 630500                    EPPR0   TYPE_DESC+4,,AUTO
        23 000153   000003 631400 24                 EPPR1   3
PL6.E3A0      #002=Z8EY$SUBSTR File=Z8EY.:Z8A6TSI                                SAT 08/09/97 13:00 Page:61
        23 000154   000000 701000 xent               TSX1    Z8AF$FORME
        23 000155   000000 011000                    NOP     0

      225    17363    4          END;

      226    17364    3      END;

  17364 23 000156   000203 710000 23                 TRA     s:17371

      227    17365    2    ELSE
      228    17366    3      DO;

      229    17367    3        CALL Z8AF$FORME (%ADI, SIZ$, COMCOM.VALUE_1, SIZ$);

  17367 23 000157   200130 236100                    LDQ     @SIZ$,,AUTO
        23 000160   000007 235000 24                 LDA     7
        23 000161   200160 757100                    STAQ    TYPE_DESC+6,,AUTO
        23 000162   200130 236100                    LDQ     @SIZ$,,AUTO
        23 000163   000010 235000 24                 LDA     8
        23 000164   200156 757100                    STAQ    TYPE_DESC+4,,AUTO
        23 000165   200156 630500                    EPPR0   TYPE_DESC+4,,AUTO
        23 000166   000003 631400 24                 EPPR1   3
        23 000167   000000 701000 xent               TSX1    Z8AF$FORME
        23 000170   000000 011000                    NOP     0

      230    17368    3        CALL Z8AF$FORME (%SBI, SIZ$, STRT_POS$, SIZ$);

  17368 23 000171   200130 236100                    LDQ     @SIZ$,,AUTO
        23 000172   200126 235100                    LDA     @STRT_POS$,,AUTO
        23 000173   200160 757100                    STAQ    TYPE_DESC+6,,AUTO
        23 000174   200130 236100                    LDQ     @SIZ$,,AUTO
        23 000175   000005 235000 24                 LDA     5
        23 000176   200156 757100                    STAQ    TYPE_DESC+4,,AUTO
        23 000177   200156 630500                    EPPR0   TYPE_DESC+4,,AUTO
        23 000200   000003 631400 24                 EPPR1   3
        23 000201   000000 701000 xent               TSX1    Z8AF$FORME
        23 000202   000000 011000                    NOP     0
PL6.E3A0      #002=Z8EY$SUBSTR File=Z8EY.:Z8A6TSI                                SAT 08/09/97 13:00 Page:62

      231    17369    3      END;

      232    17370
      233    17371    2   END; /* Proc -- get_implied_length */

  17371 23 000203   200124 221300                    LDX1  ! OP+1,,AUTO
        23 000204   000001 702211                    TSX2  ! 1,X1

      234    17372        %EJECT;
PL6.E3A0      #002=Z8EY$SUBSTR File=Z8EY.:Z8A6TSI                                SAT 08/09/97 13:00 Page:63
      235    17373    1   SET_UP_START_POS: PROC (START$, OFF, VARIABLE_START);

  17373 23 000205   200134 741300       SET_UP_STAR* STX1  ! VARIABLE_START+1,,AUTO

      236    17374
      237    17375    2   DCL START$             PTR;
      238    17376    2   DCL OFF                SBIN WORD;
      239    17377    2   DCL VARIABLE_START     BIT(1) ALIGNED;
      240    17378
      241    17379    3    DO CASE(START$ -> ETT.ID);

  17379 23 000206   200135 470500                    LDP0    @START$,,AUTO
        23 000207   000000 471500                    LDP1    0,,PR0
        23 000210   100000 236100                    LDQ     0,,PR1
        23 000211   000022 772000                    QRL     18
        23 000212   000015 136007                    SBLQ    13,DL
        23 000213   000042 116007                    CMPQ    34,DL
        23 000214   000216 602006 23                 TNC     s:17379+8,QL
        23 000215   000373 710000 23                 TRA     s:17416
        23 000216   000363 710000 23                 TRA     s:17412
        23 000217   000373 710000 23                 TRA     s:17416
        23 000220   000373 710000 23                 TRA     s:17416
        23 000221   000373 710000 23                 TRA     s:17416
        23 000222   000373 710000 23                 TRA     s:17416
        23 000223   000373 710000 23                 TRA     s:17416
        23 000224   000373 710000 23                 TRA     s:17416
        23 000225   000373 710000 23                 TRA     s:17416
        23 000226   000373 710000 23                 TRA     s:17416
        23 000227   000373 710000 23                 TRA     s:17416
        23 000230   000373 710000 23                 TRA     s:17416
        23 000231   000373 710000 23                 TRA     s:17416
        23 000232   000373 710000 23                 TRA     s:17416
        23 000233   000373 710000 23                 TRA     s:17416
        23 000234   000373 710000 23                 TRA     s:17416
        23 000235   000373 710000 23                 TRA     s:17416
        23 000236   000373 710000 23                 TRA     s:17416
        23 000237   000373 710000 23                 TRA     s:17416
PL6.E3A0      #002=Z8EY$SUBSTR File=Z8EY.:Z8A6TSI                                SAT 08/09/97 13:00 Page:64
        23 000240   000373 710000 23                 TRA     s:17416
        23 000241   000373 710000 23                 TRA     s:17416
        23 000242   000373 710000 23                 TRA     s:17416
        23 000243   000373 710000 23                 TRA     s:17416
        23 000244   000373 710000 23                 TRA     s:17416
        23 000245   000373 710000 23                 TRA     s:17416
        23 000246   000373 710000 23                 TRA     s:17416
        23 000247   000373 710000 23                 TRA     s:17416
        23 000250   000373 710000 23                 TRA     s:17416
        23 000251   000373 710000 23                 TRA     s:17416
        23 000252   000373 710000 23                 TRA     s:17416
        23 000253   000373 710000 23                 TRA     s:17416
        23 000254   000373 710000 23                 TRA     s:17416
        23 000255   000260 710000 23                 TRA     s:17382
        23 000256   000373 710000 23                 TRA     s:17416
        23 000257   000304 710000 23                 TRA     s:17393

      242    17380
      243    17381    3      CASE(%ADI);

      244    17382    3        IF START$ -> ETT.ROP -> ETT.ID = %TRIAD THEN

  17382 23 000260   100002 473500                    LDP3    2,,PR1
        23 000261   300000 220100                    LDX0    0,,PR3
        23 000262   000015 100003                    CMPX0   13,DU
        23 000263   000275 601000 23                 TNZ     s:17388

      245    17383    4          DO;

      246    17384    4            OFF = START$ -> ETT.ROP -> ETT.LOP -> CONST.CONSTI.WORD1 - BYTE_SIZE;

  17384 23 000264   300001 474500                    LDP4    1,,PR3
        23 000265   400010 236100                    LDQ     8,,PR4
        23 000266   200120 136100                    SBLQ    BYTE_SIZE,,AUTO
        23 000267   200136 475500                    LDP5    @OFF,,AUTO
        23 000270   500000 756100                    STQ     0,,PR5

PL6.E3A0      #002=Z8EY$SUBSTR File=Z8EY.:Z8A6TSI                                SAT 08/09/97 13:00 Page:65
      247    17385    4            START$ = START$ -> ETT.LOP;

  17385 23 000271   000000 471500                    LDP1    0,,PR0
        23 000272   100001 236100                    LDQ     1,,PR1
        23 000273   000000 756100                    STQ     0,,PR0

      248    17386    4          END;

  17386 23 000274   000300 710000 23                 TRA     s:17390

      249    17387    3        ELSE
      250    17388    3          OFF = - BYTE_SIZE;    /* 1 or 2 */

  17388 23 000275   200136 474500                    LDP4    @OFF,,AUTO
        23 000276   200120 335100                    LCA     BYTE_SIZE,,AUTO
        23 000277   400000 755100                    STA     0,,PR4

      251    17389
      252    17390    3        VARIABLE_START = TRUE;

  17390 23 000300   400000 236003                    LDQ     -131072,DU
        23 000301   200137 471500                    LDP1    @VARIABLE_START,,AUTO
        23 000302   100000 756100                    STQ     0,,PR1
        23 000303   000401 710000 23                 TRA     s:17421

      253    17391
      254    17392    3      CASE(%SBI);

      255    17393    3        IF START$ -> ETT.LOP -> ETT.ID = %TRIAD THEN

  17393 23 000304   100001 473500                    LDP3    1,,PR1
        23 000305   300000 220100                    LDX0    0,,PR3
        23 000306   000015 100003                    CMPX0   13,DU
        23 000307   000335 601000 23                 TNZ     s:17401

      256    17394    4          DO;

PL6.E3A0      #002=Z8EY$SUBSTR File=Z8EY.:Z8A6TSI                                SAT 08/09/97 13:00 Page:66
      257    17395    4            OFF = START$ -> ETT.LOP -> ETT.LOP -> CONST.CONSTI.WORD1 - BYTE_SIZE;

  17395 23 000310   300001 474500                    LDP4    1,,PR3
        23 000311   400010 236100                    LDQ     8,,PR4
        23 000312   200120 136100                    SBLQ    BYTE_SIZE,,AUTO
        23 000313   200136 475500                    LDP5    @OFF,,AUTO
        23 000314   500000 756100                    STQ     0,,PR5

      258    17396    4            START$ = START$ -> ETT.ROP;

  17396 23 000315   000000 471500                    LDP1    0,,PR0
        23 000316   100002 236100                    LDQ     2,,PR1
        23 000317   000000 756100                    STQ     0,,PR0

      259    17397
      260    17398    4            CALL Z8AF$FORME (%USI, START$, ADDR(NIL), START$);

  17398 23 000320   000000 236000 24                 LDQ     0
        23 000321   200156 756100                    STQ     TYPE_DESC+4,,AUTO
        23 000322   200135 236100                    LDQ     @START$,,AUTO
        23 000323   200163 756100                    STQ     TYPE_DESC+9,,AUTO
        23 000324   200156 631500                    EPPR1   TYPE_DESC+4,,AUTO
        23 000325   200162 451500                    STP1    TYPE_DESC+8,,AUTO
        23 000326   000012 235000 24                 LDA     10
        23 000327   200160 757100                    STAQ    TYPE_DESC+6,,AUTO
        23 000330   200160 630500                    EPPR0   TYPE_DESC+6,,AUTO
        23 000331   000003 631400 24                 EPPR1   3
        23 000332   000000 701000 xent               TSX1    Z8AF$FORME
        23 000333   000000 011000                    NOP     0

      261    17399    4          END;

  17399 23 000334   000357 710000 23                 TRA     s:17409

      262    17400    3        ELSE
      263    17401    3          IF START$ -> ETT.ROP -> ETT.ID = %TRIAD THEN

PL6.E3A0      #002=Z8EY$SUBSTR File=Z8EY.:Z8A6TSI                                SAT 08/09/97 13:00 Page:67
  17401 23 000335   100002 474500                    LDP4    2,,PR1
        23 000336   400000 222100                    LDX2    0,,PR4
        23 000337   000015 102003                    CMPX2   13,DU
        23 000340   000354 601000 23                 TNZ     s:17407

      264    17402    4            DO;

      265    17403    4              OFF = - START$ -> ETT.ROP -> ETT.LOP -> CONST.CONSTI.WORD1 - BYTE_SIZE;

  17403 23 000341   400001 475500                    LDP5    1,,PR4
        23 000342   500010 236100                    LDQ     8,,PR5
        23 000343   200120 036100                    ADLQ    BYTE_SIZE,,AUTO
        23 000344   000013 676000 24                 ERQ     11
        23 000345   000001 036007                    ADLQ    1,DL
        23 000346   200136 476500                    LDP6    @OFF,,AUTO
        23 000347   600000 756100                    STQ     0,,PR6

      266    17404    4              START$ = START$ -> ETT.LOP;

  17404 23 000350   000000 471500                    LDP1    0,,PR0
        23 000351   100001 236100                    LDQ     1,,PR1
        23 000352   000000 756100                    STQ     0,,PR0

      267    17405    4            END;

  17405 23 000353   000357 710000 23                 TRA     s:17409

      268    17406    3          ELSE
      269    17407    3            OFF = -BYTE_SIZE;   /* 1 or 2 */

  17407 23 000354   200136 475500                    LDP5    @OFF,,AUTO
        23 000355   200120 335100                    LCA     BYTE_SIZE,,AUTO
        23 000356   500000 755100                    STA     0,,PR5

      270    17408
      271    17409    3        VARIABLE_START = TRUE;

PL6.E3A0      #002=Z8EY$SUBSTR File=Z8EY.:Z8A6TSI                                SAT 08/09/97 13:00 Page:68
  17409 23 000357   400000 236003                    LDQ     -131072,DU
        23 000360   200137 470500                    LDP0    @VARIABLE_START,,AUTO
        23 000361   000000 756100                    STQ     0,,PR0
        23 000362   000401 710000 23                 TRA     s:17421

      272    17410
      273    17411    3      CASE(%TRIAD);

      274    17412    3        OFF = START$ -> ETT.LOP -> CONST.CONSTI.WORD1 - BYTE_SIZE;

  17412 23 000363   100001 473500                    LDP3    1,,PR1
        23 000364   300010 236100                    LDQ     8,,PR3
        23 000365   200120 136100                    SBLQ    BYTE_SIZE,,AUTO
        23 000366   200136 474500                    LDP4    @OFF,,AUTO
        23 000367   400000 756100                    STQ     0,,PR4

      275    17413    3        VARIABLE_START = FALSE;

  17413 23 000370   200137 471500                    LDP1    @VARIABLE_START,,AUTO
        23 000371   100000 450100                    STZ     0,,PR1
        23 000372   000401 710000 23                 TRA     s:17421

      276    17414
      277    17415    3      CASE(ELSE);

      278    17416    3        OFF = -BYTE_SIZE;       /* 1 or 2 */

  17416 23 000373   200136 473500                    LDP3    @OFF,,AUTO
        23 000374   200120 335100                    LCA     BYTE_SIZE,,AUTO
        23 000375   300000 755100                    STA     0,,PR3

      279    17417    3        VARIABLE_START = TRUE;

  17417 23 000376   400000 236003                    LDQ     -131072,DU
        23 000377   200137 471500                    LDP1    @VARIABLE_START,,AUTO
        23 000400   100000 756100                    STQ     0,,PR1

PL6.E3A0      #002=Z8EY$SUBSTR File=Z8EY.:Z8A6TSI                                SAT 08/09/97 13:00 Page:69
      280    17418
      281    17419    3    END;

      282    17420
      283    17421    2   END SET_UP_START_POS; /* Proc */

  17421 23 000401   200134 221300                    LDX1  ! VARIABLE_START+1,,AUTO
        23 000402   000001 702211                    TSX2  ! 1,X1

      284    17422        %EJECT;
PL6.E3A0      #002=Z8EY$SUBSTR File=Z8EY.:Z8A6TSI                                SAT 08/09/97 13:00 Page:70
      285    17423    1   OFFSET_OVERFLOW_CHECK: PROC (OFF, PREV_OFF, START$, VARIABLE_START, STRING$);

  17423 23 000403   200134 741300       OFFSET_OVER* STX1  ! VARIABLE_START+1,,AUTO

      286    17424
      287    17425    2   DCL OFF                SBIN WORD;
      288    17426    2   DCL PREV_OFF           SBIN WORD;
      289    17427    2   DCL START$             PTR;
      290    17428    2   DCL VARIABLE_START     BIT(1) ALIGNED;
      291    17429    2   DCL STRING$            PTR;
      292    17430    2   DCL MAX_OFF_PRECISION  SBIN;
      293    17431
      294    17432    2   DCL OFF$               PTR;
      295    17433    2   DCL LENGTH             SBIN;
      296    17434    2   DCL SIZ$               PTR;
      297    17435
      298    17436
      299    17437         %IF CP6;
      300    17438    2      IF STRING_ST$ -> SCALAR.B.LINKAGE THEN

  17438 23 000404   200111 470500                    LDP0    STRING_ST$,,AUTO
        23 000405   000003 236100                    LDQ     3,,PR0
        23 000406   000002 316003                    CANQ    2,DU
        23 000407   000413 600000 23                 TZE     s:17443

      301    17439         %ENDIF;
      302    17440    2        MAX_OFF_PRECISION = %#16K;

  17440 23 000410   040000 235007                    LDA     16384,DL
        23 000411   200142 755100                    STA     MAX_OFF_PRECISION,,AUTO
        23 000412   000415 710000 23                 TRA     s:17446

      303    17441         %IF CP6;
      304    17442    2      ELSE
      305    17443    2        MAX_OFF_PRECISION = %#128K;

  17443 23 000413   400000 235007                    LDA     -131072,DL
PL6.E3A0      #002=Z8EY$SUBSTR File=Z8EY.:Z8A6TSI                                SAT 08/09/97 13:00 Page:71
        23 000414   200142 755100                    STA     MAX_OFF_PRECISION,,AUTO

      306    17444         %ENDIF;
      307    17445
      308    17446    2      IF OFF + PREV_OFF > MAX_OFF_PRECISION

  17446 23 000415   200135 471500                    LDP1    @OFF,,AUTO
        23 000416   200136 473500                    LDP3    @PREV_OFF,,AUTO
        23 000417   100000 236100                    LDQ     0,,PR1
        23 000420   300000 036100                    ADLQ    0,,PR3
        23 000421   200142 116100                    CMPQ    MAX_OFF_PRECISION,,AUTO
        23 000422   000431 605400 23                 TPNZ    s:17449
        23 000423   100000 236100                    LDQ     0,,PR1
        23 000424   300000 036100                    ADLQ    0,,PR3
        23 000425   000000 531000                    NEG     0
        23 000426   200156 755100                    STA     TYPE_DESC+4,,AUTO
        23 000427   200156 116100                    CMPQ    TYPE_DESC+4,,AUTO
        23 000430   000530 605000 23                 TPL     s:17471

      309    17447    2      OR OFF + PREV_OFF < - MAX_OFF_PRECISION THEN
      310    17448    3        DO;

      311    17449    3          MKCN.CON = OFF;

  17449 23 000431   100000 235100                    LDA     0,,PR1
        23 000432   000000 755000 22                 STA     MKCN

      312    17450    3          CALL Z8AC$MAKE_CONST (OFF$);

  17450 23 000433   200143 634500                    EPPR4   OFF$,,AUTO
        23 000434   200156 454500                    STP4    TYPE_DESC+4,,AUTO
        23 000435   200156 630500                    EPPR0   TYPE_DESC+4,,AUTO
        23 000436   000002 631400 24                 EPPR1   2
        23 000437   000000 701000 xent               TSX1    Z8AC$MAKE_CONST
        23 000440   000000 011000                    NOP     0

      313    17451
PL6.E3A0      #002=Z8EY$SUBSTR File=Z8EY.:Z8A6TSI                                SAT 08/09/97 13:00 Page:72
      314    17452    3          OFF = 0;

  17452 23 000441   200135 470500                    LDP0    @OFF,,AUTO
        23 000442   000000 450100                    STZ     0,,PR0

      315    17453
      316    17454    4          IF VARIABLE_START THEN DO;

  17454 23 000443   200140 471500                    LDP1    @VARIABLE_START,,AUTO
        23 000444   100000 234100                    SZN     0,,PR1
        23 000445   000522 605000 23                 TPL     s:17466

      317    17455    5            IF SBCHK_FLAG AND COMCOM.OB.SUBCHK THEN DO;

  17455 23 000446   200121 234100                    SZN     SBCHK_FLAG,,AUTO
        23 000447   000507 605000 23                 TPL     s:17463
        23 000450   000020 234000 xsym               SZN     COMCOM+16
        23 000451   000507 605000 23                 TPL     s:17463

      318    17456    5              CALL GET_LENGTH (STRING$, LENGTH, SIZ$);

  17456 23 000452   200145 633500                    EPPR3   SIZ$,,AUTO
        23 000453   200151 453500                    STP3    @SIZ$,,AUTO
        23 000454   200144 634500                    EPPR4   LENGTH,,AUTO
        23 000455   200150 454500                    STP4    @LENGTH,,AUTO
        23 000456   200141 236100                    LDQ     @STRING$,,AUTO
        23 000457   200147 756100                    STQ     @STRING$,,AUTO
        23 000460   000003 701000 23                 TSX1    GET_LENGTH
        23 000461   000000 011000                    NOP     0

      319    17457    6              IF SIZ$ = ADDR(NIL) THEN DO;

  17457 23 000462   200145 236100                    LDQ     SIZ$,,AUTO
        23 000463   000000 116000 24                 CMPQ    0
        23 000464   000475 601000 23                 TNZ     s:17461

      320    17458    6                MKCN.CON = LENGTH;
PL6.E3A0      #002=Z8EY$SUBSTR File=Z8EY.:Z8A6TSI                                SAT 08/09/97 13:00 Page:73

  17458 23 000465   200144 235100                    LDA     LENGTH,,AUTO
        23 000466   000000 755000 22                 STA     MKCN

      321    17459    6                CALL Z8AC$MAKE_CONST (SIZ$);

  17459 23 000467   200145 630500                    EPPR0   SIZ$,,AUTO
        23 000470   200156 450500                    STP0    TYPE_DESC+4,,AUTO
        23 000471   200156 630500                    EPPR0   TYPE_DESC+4,,AUTO
        23 000472   000002 631400 24                 EPPR1   2
        23 000473   000000 701000 xent               TSX1    Z8AC$MAKE_CONST
        23 000474   000000 011000                    NOP     0

      322    17460    6              END;

      323    17461    5              CALL Z8AF$FORME (%SBCHK, START$, SIZ$, START$);

  17461 23 000475   200137 236100                    LDQ     @START$,,AUTO
        23 000476   200161 756100                    STQ     TYPE_DESC+7,,AUTO
        23 000477   200145 630500                    EPPR0   SIZ$,,AUTO
        23 000500   200160 450500                    STP0    TYPE_DESC+6,,AUTO
        23 000501   000015 235000 24                 LDA     13
        23 000502   200156 757100                    STAQ    TYPE_DESC+4,,AUTO
        23 000503   200156 630500                    EPPR0   TYPE_DESC+4,,AUTO
        23 000504   000003 631400 24                 EPPR1   3
        23 000505   000000 701000 xent               TSX1    Z8AF$FORME
        23 000506   000000 011000                    NOP     0

      324    17462    5            END;

      325    17463    4            CALL Z8AF$FORME (%ADI, START$, OFF$, START$);

  17463 23 000507   200137 236100                    LDQ     @START$,,AUTO
        23 000510   200161 756100                    STQ     TYPE_DESC+7,,AUTO
        23 000511   200143 630500                    EPPR0   OFF$,,AUTO
        23 000512   200160 450500                    STP0    TYPE_DESC+6,,AUTO
        23 000513   000010 235000 24                 LDA     8
PL6.E3A0      #002=Z8EY$SUBSTR File=Z8EY.:Z8A6TSI                                SAT 08/09/97 13:00 Page:74
        23 000514   200156 757100                    STAQ    TYPE_DESC+4,,AUTO
        23 000515   200156 630500                    EPPR0   TYPE_DESC+4,,AUTO
        23 000516   000003 631400 24                 EPPR1   3
        23 000517   000000 701000 xent               TSX1    Z8AF$FORME
        23 000520   000000 011000                    NOP     0

      326    17464    4          END;

  17464 23 000521   000525 710000 23                 TRA     s:17468

      327    17465    3          ELSE
      328    17466    3            START$ = OFF$;

  17466 23 000522   200143 236100                    LDQ     OFF$,,AUTO
        23 000523   200137 473500                    LDP3    @START$,,AUTO
        23 000524   300000 756100                    STQ     0,,PR3

      329    17467
      330    17468    3          VARIABLE_START = TRUE;

  17468 23 000525   400000 236003                    LDQ     -131072,DU
        23 000526   200140 470500                    LDP0    @VARIABLE_START,,AUTO
        23 000527   000000 756100                    STQ     0,,PR0

      331    17469    3        END;

      332    17470
      333    17471    2   END OFFSET_OVERFLOW_CHECK;

  17471 23 000530   200134 221300                    LDX1  ! VARIABLE_START+1,,AUTO
        23 000531   000001 702211                    TSX2  ! 1,X1

      334    17472        %EJECT;
PL6.E3A0      #002=Z8EY$SUBSTR File=Z8EY.:Z8A6TSI                                SAT 08/09/97 13:00 Page:75
      335    17473    1   CREATE_START_POSITION: PROC (STRING$, OFF, START$);

  17473 23 000532   200124 741300       CREATE_STAR* STX1  ! OP+1,,AUTO

      336    17474
      337    17475    2   DCL STRING$            PTR;
      338    17476    2   DCL OFF                SBIN WORD;
      339    17477    2   DCL START$             PTR;
      340    17478
      341    17479    2   DCL 1 OFFSET           ALIGNED,
      342    17480    2        2 VALUE           SBIN WORD,
      343    17481    2        2 TYPE            SBIN WORD;
      344    17482    2   DCL OFF$               PTR;
      345    17483    2   DCL VARIABLE_START     BOOLEAN;
      346    17484
      347    17485    2    CALL SET_UP_START_POS (START$, OFF, VARIABLE_START);

  17485 23 000533   200133 630500                    EPPR0   VARIABLE_START,,AUTO
        23 000534   200137 450500                    STP0    @START$,,AUTO
        23 000535   200126 236100                    LDQ     @OFF,,AUTO
        23 000536   200136 756100                    STQ     @PREV_OFF,,AUTO
        23 000537   200127 236100                    LDQ     @START$,,AUTO
        23 000540   200135 756100                    STQ     @OFF,,AUTO
        23 000541   000205 701000 23                 TSX1    SET_UP_START_POS
        23 000542   000000 011000                    NOP     0

      348    17486
      349    17487    3    DO CASE (STRING$ -> ETT.ID);

  17487 23 000543   200125 470500                    LDP0    @STRING$,,AUTO
        23 000544   000000 471500                    LDP1    0,,PR0
        23 000545   100000 220100                    LDX0    0,,PR1
        23 000546   000016 100003                    CMPX0   14,DU
        23 000547   000551 602010 23                 TNC     s:17487+6,X0
        23 000550   001001 710000 23                 TRA     s:17530
        23 000551   001001 710000 23                 TRA     s:17530
        23 000552   001001 710000 23                 TRA     s:17530
PL6.E3A0      #002=Z8EY$SUBSTR File=Z8EY.:Z8A6TSI                                SAT 08/09/97 13:00 Page:76
        23 000553   001227 710000 23                 TRA     s:17948
        23 000554   000707 710000 23                 TRA     s:17515
        23 000555   001227 710000 23                 TRA     s:17948
        23 000556   000567 710000 23                 TRA     s:17490
        23 000557   001001 710000 23                 TRA     s:17530
        23 000560   001001 710000 23                 TRA     s:17530
        23 000561   001001 710000 23                 TRA     s:17530
        23 000562   001001 710000 23                 TRA     s:17530
        23 000563   001227 710000 23                 TRA     s:17948
        23 000564   001001 710000 23                 TRA     s:17530
        23 000565   001001 710000 23                 TRA     s:17530
        23 000566   001063 710000 23                 TRA     s:17544

      350    17488
      351    17489    3      CASE(%SSOP);

      352    17490    3        CALL OFFSET_OVERFLOW_CHECK (OFF, STRING$ -> ETT.LOP -> ETT.OFFSET.VALUE,

  17490 23 000567   100001 473500                    LDP3    1,,PR1
        23 000570   200125 236100                    LDQ     @STRING$,,AUTO
        23 000571   200141 756100                    STQ     @STRING$,,AUTO
        23 000572   200133 631500                    EPPR1   VARIABLE_START,,AUTO
        23 000573   200140 451500                    STP1    @VARIABLE_START,,AUTO
        23 000574   200127 236100                    LDQ     @START$,,AUTO
        23 000575   200137 756100                    STQ     @START$,,AUTO
        23 000576   300002 634500                    EPPR4   2,,PR3
        23 000577   200136 454500                    STP4    @PREV_OFF,,AUTO
        23 000600   200126 236100                    LDQ     @OFF,,AUTO
        23 000601   200135 756100                    STQ     @OFF,,AUTO
        23 000602   000403 701000 23                 TSX1    OFFSET_OVERFLOW_CHECK
        23 000603   000000 011000                    NOP     0

      353    17491    3                                    START$, VARIABLE_START, STRING$);
      354    17492
      355    17493    3        IF OFF ~= 0

  17493 23 000604   200126 470500                    LDP0    @OFF,,AUTO
PL6.E3A0      #002=Z8EY$SUBSTR File=Z8EY.:Z8A6TSI                                SAT 08/09/97 13:00 Page:77
        23 000605   000000 235100                    LDA     0,,PR0
        23 000606   000611 601000 23                 TNZ     s:17496
        23 000607   200133 234100                    SZN     VARIABLE_START,,AUTO
        23 000610   000702 605000 23                 TPL     s:17511

      356    17494    3        OR VARIABLE_START THEN
      357    17495    4          DO;

      358    17496    4            IF OFF ~= 0 THEN

  17496 23 000611   000000 115003                    CMPA    0,DU
        23 000612   000635 600000 23                 TZE     s:17501

      359    17497    4              CALL Z8AF$NEW_OFF (STRING$ -> ETT.LOP -> ETT.LOP,

  17497 23 000613   200125 471500                    LDP1    @STRING$,,AUTO
        23 000614   100000 473500                    LDP3    0,,PR1
        23 000615   300001 474500                    LDP4    1,,PR3
        23 000616   400002 236100                    LDQ     2,,PR4
        23 000617   000022 732000                    QRS     18
        23 000620   000000 036100                    ADLQ    0,,PR0
        23 000621   200156 756100                    STQ     TYPE_DESC+4,,AUTO
        23 000622   200132 633500                    EPPR3   OFF$,,AUTO
        23 000623   200161 453500                    STP3    TYPE_DESC+7,,AUTO
        23 000624   200156 635500                    EPPR5   TYPE_DESC+4,,AUTO
        23 000625   200160 455500                    STP5    TYPE_DESC+6,,AUTO
        23 000626   400001 636500                    EPPR6   1,,PR4
        23 000627   200157 456500                    STP6    TYPE_DESC+5,,AUTO
        23 000630   200157 630500                    EPPR0   TYPE_DESC+5,,AUTO
        23 000631   000016 631400 24                 EPPR1   14
        23 000632   000000 701000 xent               TSX1    Z8AF$NEW_OFF
        23 000633   000000 011000                    NOP     0
        23 000634   000641 710000 23                 TRA     s:17503

      360    17498    4                                 STRING$ -> ETT.LOP -> ETT.OFFSET.VALUE + OFF,
      361    17499    4                                 OFF$);
      362    17500    4            ELSE
PL6.E3A0      #002=Z8EY$SUBSTR File=Z8EY.:Z8A6TSI                                SAT 08/09/97 13:00 Page:78
      363    17501    4              OFF$ = STRING$ -> ETT.LOP;

  17501 23 000635   200125 471500                    LDP1    @STRING$,,AUTO
        23 000636   100000 473500                    LDP3    0,,PR1
        23 000637   300001 236100                    LDQ     1,,PR3
        23 000640   200132 756100                    STQ     OFF$,,AUTO

      364    17502
      365    17503    4            IF VARIABLE_START THEN

  17503 23 000641   200133 234100                    SZN     VARIABLE_START,,AUTO
        23 000642   000661 605000 23                 TPL     s:17506

      366    17504    4              CALL Z8AF$FORME(%ADI, STRING$->ETT.ROP, START$, START$) ;

  17504 23 000643   200125 470500                    LDP0    @STRING$,,AUTO
        23 000644   000000 471500                    LDP1    0,,PR0
        23 000645   200127 236100                    LDQ     @START$,,AUTO
        23 000646   200127 235100                    LDA     @START$,,AUTO
        23 000647   200160 757100                    STAQ    TYPE_DESC+6,,AUTO
        23 000650   100002 633500                    EPPR3   2,,PR1
        23 000651   200157 453500                    STP3    TYPE_DESC+5,,AUTO
        23 000652   000010 236000 24                 LDQ     8
        23 000653   200156 756100                    STQ     TYPE_DESC+4,,AUTO
        23 000654   200156 630500                    EPPR0   TYPE_DESC+4,,AUTO
        23 000655   000003 631400 24                 EPPR1   3
        23 000656   000000 701000 xent               TSX1    Z8AF$FORME
        23 000657   000000 011000                    NOP     0
        23 000660   000666 710000 23                 TRA     s:17508

      367    17505    4            ELSE
      368    17506    4              START$ = STRING$ -> ETT.ROP;

  17506 23 000661   200125 470500                    LDP0    @STRING$,,AUTO
        23 000662   000000 471500                    LDP1    0,,PR0
        23 000663   100002 236100                    LDQ     2,,PR1
        23 000664   200127 473500                    LDP3    @START$,,AUTO
PL6.E3A0      #002=Z8EY$SUBSTR File=Z8EY.:Z8A6TSI                                SAT 08/09/97 13:00 Page:79
        23 000665   300000 756100                    STQ     0,,PR3

      369    17507
      370    17508    4            CALL Z8AF$FORME (%SSOP, OFF$, START$, START$);

  17508 23 000666   200127 236100                    LDQ     @START$,,AUTO
        23 000667   200127 235100                    LDA     @START$,,AUTO
        23 000670   200160 757100                    STAQ    TYPE_DESC+6,,AUTO
        23 000671   200132 630500                    EPPR0   OFF$,,AUTO
        23 000672   200157 450500                    STP0    TYPE_DESC+5,,AUTO
        23 000673   000020 236000 24                 LDQ     16
        23 000674   200156 756100                    STQ     TYPE_DESC+4,,AUTO
        23 000675   200156 630500                    EPPR0   TYPE_DESC+4,,AUTO
        23 000676   000003 631400 24                 EPPR1   3
        23 000677   000000 701000 xent               TSX1    Z8AF$FORME
        23 000700   000000 011000                    NOP     0

      371    17509    4          END;

  17509 23 000701   001321 710000 23                 TRA     s:17962

      372    17510    3        ELSE
      373    17511    3          START$ = STRING$;

  17511 23 000702   200125 471500                    LDP1    @STRING$,,AUTO
        23 000703   100000 236100                    LDQ     0,,PR1
        23 000704   200127 473500                    LDP3    @START$,,AUTO
        23 000705   300000 756100                    STQ     0,,PR3
        23 000706   001321 710000 23                 TRA     s:17962

      374    17512
      375    17513        %EJECT;
PL6.E3A0      #002=Z8EY$SUBSTR File=Z8EY.:Z8A6TSI                                SAT 08/09/97 13:00 Page:80
      376    17514    3      CASE(%OFF);

      377    17515    3        CALL OFFSET_OVERFLOW_CHECK (OFF, START$ -> ETT.OFFSET.VALUE,

  17515 23 000707   200127 473500                    LDP3    @START$,,AUTO
        23 000710   300000 474500                    LDP4    0,,PR3
        23 000711   200125 236100                    LDQ     @STRING$,,AUTO
        23 000712   200141 756100                    STQ     @STRING$,,AUTO
        23 000713   200133 631500                    EPPR1   VARIABLE_START,,AUTO
        23 000714   200140 451500                    STP1    @VARIABLE_START,,AUTO
        23 000715   200127 236100                    LDQ     @START$,,AUTO
        23 000716   200137 756100                    STQ     @START$,,AUTO
        23 000717   400002 635500                    EPPR5   2,,PR4
        23 000720   200136 455500                    STP5    @PREV_OFF,,AUTO
        23 000721   200126 236100                    LDQ     @OFF,,AUTO
        23 000722   200135 756100                    STQ     @OFF,,AUTO
        23 000723   000403 701000 23                 TSX1    OFFSET_OVERFLOW_CHECK
        23 000724   000000 011000                    NOP     0

      378    17516    3                                    START$, VARIABLE_START, STRING$);
      379    17517
      380    17518    3        IF VARIABLE_START THEN

  17518 23 000725   200133 234100                    SZN     VARIABLE_START,,AUTO
        23 000726   000757 605000 23                 TPL     s:17524

      381    17519    3          IF SBCHK_FLAG THEN

  17519 23 000727   200121 234100                    SZN     SBCHK_FLAG,,AUTO
        23 000730   000744 605000 23                 TPL     s:17522

      382    17520    3            CALL Z8AF$NEW_OFF_AND_SSOP (STRING$, OFF, START$, START$);

  17520 23 000731   200127 236100                    LDQ     @START$,,AUTO
        23 000732   200127 235100                    LDA     @START$,,AUTO
        23 000733   200160 757100                    STAQ    TYPE_DESC+6,,AUTO
        23 000734   200126 236100                    LDQ     @OFF,,AUTO
PL6.E3A0      #002=Z8EY$SUBSTR File=Z8EY.:Z8A6TSI                                SAT 08/09/97 13:00 Page:81
        23 000735   200125 235100                    LDA     @STRING$,,AUTO
        23 000736   200156 757100                    STAQ    TYPE_DESC+4,,AUTO
        23 000737   200156 630500                    EPPR0   TYPE_DESC+4,,AUTO
        23 000740   000003 631400 24                 EPPR1   3
        23 000741   000000 701000 xent               TSX1    Z8AF$NEW_OFF_AND_SSOP
        23 000742   000000 011000                    NOP     0
        23 000743   001321 710000 23                 TRA     s:17962

      383    17521    3          ELSE
      384    17522    3            CALL Z8AF$NEW_OFF_AND_SSOP_NO_SBCHK(STRING$, OFF, START$, START$);

  17522 23 000744   200127 236100                    LDQ     @START$,,AUTO
        23 000745   200127 235100                    LDA     @START$,,AUTO
        23 000746   200160 757100                    STAQ    TYPE_DESC+6,,AUTO
        23 000747   200126 236100                    LDQ     @OFF,,AUTO
        23 000750   200125 235100                    LDA     @STRING$,,AUTO
        23 000751   200156 757100                    STAQ    TYPE_DESC+4,,AUTO
        23 000752   200156 630500                    EPPR0   TYPE_DESC+4,,AUTO
        23 000753   000003 631400 24                 EPPR1   3
        23 000754   000000 701000 xent               TSX1    Z8AF$NEW_OFF_AND_SSOP_NO_SBCHK
        23 000755   000000 011000                    NOP     0
        23 000756   001321 710000 23                 TRA     s:17962

      385    17523    3        ELSE
      386    17524    3          CALL Z8AF$NEW_OFF (STRING$ -> ETT.LOP,

  17524 23 000757   200125 470500                    LDP0    @STRING$,,AUTO
        23 000760   000000 471500                    LDP1    0,,PR0
        23 000761   200126 473500                    LDP3    @OFF,,AUTO
        23 000762   100002 236100                    LDQ     2,,PR1
        23 000763   000022 732000                    QRS     18
        23 000764   300000 036100                    ADLQ    0,,PR3
        23 000765   200156 756100                    STQ     TYPE_DESC+4,,AUTO
        23 000766   200127 236100                    LDQ     @START$,,AUTO
        23 000767   200161 756100                    STQ     TYPE_DESC+7,,AUTO
        23 000770   200156 634500                    EPPR4   TYPE_DESC+4,,AUTO
        23 000771   200160 454500                    STP4    TYPE_DESC+6,,AUTO
PL6.E3A0      #002=Z8EY$SUBSTR File=Z8EY.:Z8A6TSI                                SAT 08/09/97 13:00 Page:82
        23 000772   100001 635500                    EPPR5   1,,PR1
        23 000773   200157 455500                    STP5    TYPE_DESC+5,,AUTO
        23 000774   200157 630500                    EPPR0   TYPE_DESC+5,,AUTO
        23 000775   000016 631400 24                 EPPR1   14
        23 000776   000000 701000 xent               TSX1    Z8AF$NEW_OFF
        23 000777   000000 011000                    NOP     0
        23 001000   001321 710000 23                 TRA     s:17962

      387    17525    3                             STRING$ -> ETT.OFFSET.VALUE + OFF,
      388    17526    3                             START$);
      389    17527
      390    17528        %EJECT;
PL6.E3A0      #002=Z8EY$SUBSTR File=Z8EY.:Z8A6TSI                                SAT 08/09/97 13:00 Page:83
      391    17529    3      CASE(%BASE, ELSE);

      392    17530    3        CALL OFFSET_OVERFLOW_CHECK (OFF, 0, START$, VARIABLE_START, STRING$);

  17530 23 001001   200125 236100                    LDQ     @STRING$,,AUTO
        23 001002   200141 756100                    STQ     @STRING$,,AUTO
        23 001003   200133 631500                    EPPR1   VARIABLE_START,,AUTO
        23 001004   200140 451500                    STP1    @VARIABLE_START,,AUTO
        23 001005   200127 236100                    LDQ     @START$,,AUTO
        23 001006   000022 235000 24                 LDA     18
        23 001007   200136 757100                    STAQ    @PREV_OFF,,AUTO
        23 001010   200126 236100                    LDQ     @OFF,,AUTO
        23 001011   200135 756100                    STQ     @OFF,,AUTO
        23 001012   000403 701000 23                 TSX1    OFFSET_OVERFLOW_CHECK
        23 001013   000000 011000                    NOP     0

      393    17531
      394    17532    3        IF VARIABLE_START THEN

  17532 23 001014   200133 234100                    SZN     VARIABLE_START,,AUTO
        23 001015   001046 605000 23                 TPL     s:17538

      395    17533    3          IF SBCHK_FLAG THEN

  17533 23 001016   200121 234100                    SZN     SBCHK_FLAG,,AUTO
        23 001017   001033 605000 23                 TPL     s:17536

      396    17534    3            CALL Z8AF$NEW_OFF_AND_SSOP (STRING$, OFF, START$, START$);

  17534 23 001020   200127 236100                    LDQ     @START$,,AUTO
        23 001021   200127 235100                    LDA     @START$,,AUTO
        23 001022   200160 757100                    STAQ    TYPE_DESC+6,,AUTO
        23 001023   200126 236100                    LDQ     @OFF,,AUTO
        23 001024   200125 235100                    LDA     @STRING$,,AUTO
        23 001025   200156 757100                    STAQ    TYPE_DESC+4,,AUTO
        23 001026   200156 630500                    EPPR0   TYPE_DESC+4,,AUTO
        23 001027   000003 631400 24                 EPPR1   3
PL6.E3A0      #002=Z8EY$SUBSTR File=Z8EY.:Z8A6TSI                                SAT 08/09/97 13:00 Page:84
        23 001030   000000 701000 xent               TSX1    Z8AF$NEW_OFF_AND_SSOP
        23 001031   000000 011000                    NOP     0
        23 001032   001321 710000 23                 TRA     s:17962

      397    17535    3          ELSE
      398    17536    3            CALL Z8AF$NEW_OFF_AND_SSOP_NO_SBCHK(STRING$, OFF, START$, START$);

  17536 23 001033   200127 236100                    LDQ     @START$,,AUTO
        23 001034   200127 235100                    LDA     @START$,,AUTO
        23 001035   200160 757100                    STAQ    TYPE_DESC+6,,AUTO
        23 001036   200126 236100                    LDQ     @OFF,,AUTO
        23 001037   200125 235100                    LDA     @STRING$,,AUTO
        23 001040   200156 757100                    STAQ    TYPE_DESC+4,,AUTO
        23 001041   200156 630500                    EPPR0   TYPE_DESC+4,,AUTO
        23 001042   000003 631400 24                 EPPR1   3
        23 001043   000000 701000 xent               TSX1    Z8AF$NEW_OFF_AND_SSOP_NO_SBCHK
        23 001044   000000 011000                    NOP     0
        23 001045   001321 710000 23                 TRA     s:17962

      399    17537    3        ELSE
      400    17538    3          IF OFF ~= 0 THEN

  17538 23 001046   200126 470500                    LDP0    @OFF,,AUTO
        23 001047   000000 235100                    LDA     0,,PR0
        23 001050   001056 600000 23                 TZE     s:17541

      401    17539    3            CALL Z8AF$NEW_OFF (STRING$, OFF, START$);

  17539 23 001051   200125 630500                    EPPR0   @STRING$,,AUTO
        23 001052   000016 631400 24                 EPPR1   14
        23 001053   000000 701000 xent               TSX1    Z8AF$NEW_OFF
        23 001054   000000 011000                    NOP     0
        23 001055   001321 710000 23                 TRA     s:17962

      402    17540    3          ELSE
      403    17541    3            START$ = STRING$;

PL6.E3A0      #002=Z8EY$SUBSTR File=Z8EY.:Z8A6TSI                                SAT 08/09/97 13:00 Page:85
  17541 23 001056   200125 471500                    LDP1    @STRING$,,AUTO
        23 001057   100000 236100                    LDQ     0,,PR1
        23 001060   200127 473500                    LDP3    @START$,,AUTO
        23 001061   300000 756100                    STQ     0,,PR3
        23 001062   001321 710000 23                 TRA     s:17962

      404    17542        %EJECT;
PL6.E3A0      #002=Z8EY$SUBSTR File=Z8EY.:Z8A6TSI                                SAT 08/09/97 13:00 Page:86
      405    17543    3      CASE (%TRIAD);

      406    17544    3        CALL OFFSET_OVERFLOW_CHECK (OFF, 0, START$, VARIABLE_START, STRING$);

  17544 23 001063   200125 236100                    LDQ     @STRING$,,AUTO
        23 001064   200141 756100                    STQ     @STRING$,,AUTO
        23 001065   200133 631500                    EPPR1   VARIABLE_START,,AUTO
        23 001066   200140 451500                    STP1    @VARIABLE_START,,AUTO
        23 001067   200127 236100                    LDQ     @START$,,AUTO
        23 001070   000022 235000 24                 LDA     18
        23 001071   200136 757100                    STAQ    @PREV_OFF,,AUTO
        23 001072   200126 236100                    LDQ     @OFF,,AUTO
        23 001073   200135 756100                    STQ     @OFF,,AUTO
        23 001074   000403 701000 23                 TSX1    OFFSET_OVERFLOW_CHECK
        23 001075   000000 011000                    NOP     0

      407    17545    3        IF OFF ~= 0

  17545 23 001076   200126 470500                    LDP0    @OFF,,AUTO
        23 001077   000000 235100                    LDA     0,,PR0
        23 001100   001103 601000 23                 TNZ     s:17548
        23 001101   200133 234100                    SZN     VARIABLE_START,,AUTO
        23 001102   001222 605000 23                 TPL     s:17943

      408    17546    3        OR VARIABLE_START THEN
      409    17547    4          DO;

      410    17548    4            CALL Z8AT$CREATE_TEMP_WITH_BASE (%SCALAR, TEMP$);

  17548 23 001103   200110 631500                    EPPR1   TEMP$,,AUTO
        23 001104   200157 451500                    STP1    TYPE_DESC+5,,AUTO
        23 001105   000024 236000 24                 LDQ     20
        23 001106   200156 756100                    STQ     TYPE_DESC+4,,AUTO
        23 001107   200156 630500                    EPPR0   TYPE_DESC+4,,AUTO
        23 001110   000001 631400 24                 EPPR1   1
        23 001111   000000 701000 xent               TSX1    Z8AT$CREATE_TEMP_WITH_BASE
        23 001112   000000 011000                    NOP     0
PL6.E3A0      #002=Z8EY$SUBSTR File=Z8EY.:Z8A6TSI                                SAT 08/09/97 13:00 Page:87

      411    17549    4            TEMP$ -> ETT.LOP -> SCALAR.TYPE   = %TYA;

  17549 23 001113   200110 470500                    LDP0    TEMP$,,AUTO
        23 001114   000001 471500                    LDP1    1,,PR0
        23 001115   000010 220003                    LDX0    8,DU
        23 001116   100002 740100                    STX0    2,,PR1

      412    17550    4            TEMP$ -> ETT.LOP -> SCALAR.ADSC.N = STRING_ST$ -> SCALAR.ADSC.N;

  17550 23 001117   200110 470500                    LDP0    TEMP$,,AUTO
        23 001120   000001 471500                    LDP1    1,,PR0
        23 001121   200111 473500                    LDP3    STRING_ST$,,AUTO
        23 001122   300001 236100                    LDQ     1,,PR3
        23 001123   100001 752103                    STCQ    1,'03'O,PR1

      413    17551
      414    17552                 %NEW_ILL (@ID  = %PRESET,
      415    17553                           @ROP = STRING$ -> ETT.LOP,
      416    17554                           @LOP = TEMP$ -> ETT.LOP);

  17774 23 001124   000026 236000 24                 LDQ     22
        23 001125   200156 756100                    STQ     TYPE_DESC+4,,AUTO
        23 001126   200156 630500                    EPPR0   TYPE_DESC+4,,AUTO
        23 001127   200163 450500                    STP0    TYPE_DESC+9,,AUTO
        23 001130   000027 236000 24                 LDQ     23
        23 001131   200162 756100                    STQ     TYPE_DESC+8,,AUTO
        23 001132   000030 237000 24                 LDAQ    24
        23 001133   200160 757100                    STAQ    TYPE_DESC+6,,AUTO
        23 001134   200160 630500                    EPPR0   TYPE_DESC+6,,AUTO
        23 001135   000003 631400 24                 EPPR1   3
        23 001136   000000 701000 xent               TSX1    Z8AN$NEW_ILL
        23 001137   000000 011000                    NOP     0

  17776 23 001140   000000 220003                    LDX0    0,DU
        23 001141   000000 470400 6                  LDP0    ILL$
        23 001142   000000 440100                    SXL0    0,,PR0
PL6.E3A0      #002=Z8EY$SUBSTR File=Z8EY.:Z8A6TSI                                SAT 08/09/97 13:00 Page:88

  17780 23 001143   200110 470500                    LDP0    TEMP$,,AUTO
        23 001144   000001 236100                    LDQ     1,,PR0
        23 001145   000000 471400 6                  LDP1    ILL$
        23 001146   100001 756100                    STQ     1,,PR1

  17781 23 001147   200125 470500                    LDP0    @STRING$,,AUTO
        23 001150   000000 473500                    LDP3    0,,PR0
        23 001151   300001 236100                    LDQ     1,,PR3
        23 001152   100002 756100                    STQ     2,,PR1

      417    17933
      418    17934    4            IF VARIABLE_START THEN

  17934 23 001153   200133 234100                    SZN     VARIABLE_START,,AUTO
        23 001154   001207 605000 23                 TPL     s:17940

      419    17935    4              IF SBCHK_FLAG THEN

  17935 23 001155   200121 234100                    SZN     SBCHK_FLAG,,AUTO
        23 001156   001173 605000 23                 TPL     s:17938

      420    17936    4                CALL Z8AF$NEW_OFF_AND_SSOP (TEMP$, OFF, START$, START$);

  17936 23 001157   200127 236100                    LDQ     @START$,,AUTO
        23 001160   200127 235100                    LDA     @START$,,AUTO
        23 001161   200160 757100                    STAQ    TYPE_DESC+6,,AUTO
        23 001162   200126 236100                    LDQ     @OFF,,AUTO
        23 001163   200157 756100                    STQ     TYPE_DESC+5,,AUTO
        23 001164   200110 633500                    EPPR3   TEMP$,,AUTO
        23 001165   200156 453500                    STP3    TYPE_DESC+4,,AUTO
        23 001166   200156 630500                    EPPR0   TYPE_DESC+4,,AUTO
        23 001167   000003 631400 24                 EPPR1   3
        23 001170   000000 701000 xent               TSX1    Z8AF$NEW_OFF_AND_SSOP
        23 001171   000000 011000                    NOP     0
        23 001172   001321 710000 23                 TRA     s:17962

PL6.E3A0      #002=Z8EY$SUBSTR File=Z8EY.:Z8A6TSI                                SAT 08/09/97 13:00 Page:89
      421    17937    4              ELSE
      422    17938    4                CALL Z8AF$NEW_OFF_AND_SSOP_NO_SBCHK(TEMP$, OFF, START$, START$);

  17938 23 001173   200127 236100                    LDQ     @START$,,AUTO
        23 001174   200127 235100                    LDA     @START$,,AUTO
        23 001175   200160 757100                    STAQ    TYPE_DESC+6,,AUTO
        23 001176   200126 236100                    LDQ     @OFF,,AUTO
        23 001177   200157 756100                    STQ     TYPE_DESC+5,,AUTO
        23 001200   200110 633500                    EPPR3   TEMP$,,AUTO
        23 001201   200156 453500                    STP3    TYPE_DESC+4,,AUTO
        23 001202   200156 630500                    EPPR0   TYPE_DESC+4,,AUTO
        23 001203   000003 631400 24                 EPPR1   3
        23 001204   000000 701000 xent               TSX1    Z8AF$NEW_OFF_AND_SSOP_NO_SBCHK
        23 001205   000000 011000                    NOP     0
        23 001206   001321 710000 23                 TRA     s:17962

      423    17939    4            ELSE /* NOT VARIABLE_START */
      424    17940    4              CALL Z8AF$NEW_OFF (TEMP$, OFF, START$);

  17940 23 001207   200127 236100                    LDQ     @START$,,AUTO
        23 001210   200160 756100                    STQ     TYPE_DESC+6,,AUTO
        23 001211   200126 236100                    LDQ     @OFF,,AUTO
        23 001212   200157 756100                    STQ     TYPE_DESC+5,,AUTO
        23 001213   200110 633500                    EPPR3   TEMP$,,AUTO
        23 001214   200156 453500                    STP3    TYPE_DESC+4,,AUTO
        23 001215   200156 630500                    EPPR0   TYPE_DESC+4,,AUTO
        23 001216   000016 631400 24                 EPPR1   14
        23 001217   000000 701000 xent               TSX1    Z8AF$NEW_OFF
        23 001220   000000 011000                    NOP     0

      425    17941    4          END;

  17941 23 001221   001321 710000 23                 TRA     s:17962

      426    17942    3        ELSE
      427    17943    3          START$ = STRING$;

PL6.E3A0      #002=Z8EY$SUBSTR File=Z8EY.:Z8A6TSI                                SAT 08/09/97 13:00 Page:90
  17943 23 001222   200125 471500                    LDP1    @STRING$,,AUTO
        23 001223   100000 236100                    LDQ     0,,PR1
        23 001224   200127 473500                    LDP3    @START$,,AUTO
        23 001225   300000 756100                    STQ     0,,PR3
        23 001226   001321 710000 23                 TRA     s:17962

      428    17944
      429    17945
      430    17946        %EJECT;
PL6.E3A0      #002=Z8EY$SUBSTR File=Z8EY.:Z8A6TSI                                SAT 08/09/97 13:00 Page:91
      431    17947    3      CASE (%SIZ, %FISS, %REFMOD); /*#28637*/

      432    17948    3        CALL OFFSET_OVERFLOW_CHECK (OFF, 0, START$, VARIABLE_START, STRING$);

  17948 23 001227   200125 236100                    LDQ     @STRING$,,AUTO
        23 001230   200141 756100                    STQ     @STRING$,,AUTO
        23 001231   200133 631500                    EPPR1   VARIABLE_START,,AUTO
        23 001232   200140 451500                    STP1    @VARIABLE_START,,AUTO
        23 001233   200127 236100                    LDQ     @START$,,AUTO
        23 001234   000022 235000 24                 LDA     18
        23 001235   200136 757100                    STAQ    @PREV_OFF,,AUTO
        23 001236   200126 236100                    LDQ     @OFF,,AUTO
        23 001237   200135 756100                    STQ     @OFF,,AUTO
        23 001240   000403 701000 23                 TSX1    OFFSET_OVERFLOW_CHECK
        23 001241   000000 011000                    NOP     0

      433    17949
      434    17950    3        IF VARIABLE_START THEN

  17950 23 001242   200133 234100                    SZN     VARIABLE_START,,AUTO
        23 001243   001274 605000 23                 TPL     s:17956

      435    17951    3          IF SBCHK_FLAG THEN

  17951 23 001244   200121 234100                    SZN     SBCHK_FLAG,,AUTO
        23 001245   001261 605000 23                 TPL     s:17954

      436    17952    3            CALL Z8AF$NEW_OFF_AND_SSOP (STRING$, OFF, START$, START$);

  17952 23 001246   200127 236100                    LDQ     @START$,,AUTO
        23 001247   200127 235100                    LDA     @START$,,AUTO
        23 001250   200160 757100                    STAQ    TYPE_DESC+6,,AUTO
        23 001251   200126 236100                    LDQ     @OFF,,AUTO
        23 001252   200125 235100                    LDA     @STRING$,,AUTO
        23 001253   200156 757100                    STAQ    TYPE_DESC+4,,AUTO
        23 001254   200156 630500                    EPPR0   TYPE_DESC+4,,AUTO
        23 001255   000003 631400 24                 EPPR1   3
PL6.E3A0      #002=Z8EY$SUBSTR File=Z8EY.:Z8A6TSI                                SAT 08/09/97 13:00 Page:92
        23 001256   000000 701000 xent               TSX1    Z8AF$NEW_OFF_AND_SSOP
        23 001257   000000 011000                    NOP     0
        23 001260   001321 710000 23                 TRA     s:17962

      437    17953    3          ELSE
      438    17954    3            CALL Z8AF$NEW_OFF_AND_SSOP_NO_SBCHK (STRING$, OFF, START$, START$);

  17954 23 001261   200127 236100                    LDQ     @START$,,AUTO
        23 001262   200127 235100                    LDA     @START$,,AUTO
        23 001263   200160 757100                    STAQ    TYPE_DESC+6,,AUTO
        23 001264   200126 236100                    LDQ     @OFF,,AUTO
        23 001265   200125 235100                    LDA     @STRING$,,AUTO
        23 001266   200156 757100                    STAQ    TYPE_DESC+4,,AUTO
        23 001267   200156 630500                    EPPR0   TYPE_DESC+4,,AUTO
        23 001270   000003 631400 24                 EPPR1   3
        23 001271   000000 701000 xent               TSX1    Z8AF$NEW_OFF_AND_SSOP_NO_SBCHK
        23 001272   000000 011000                    NOP     0
        23 001273   001321 710000 23                 TRA     s:17962

      439    17955    3        ELSE
      440    17956    3          IF OFF ~= 0 THEN

  17956 23 001274   200126 470500                    LDP0    @OFF,,AUTO
        23 001275   000000 235100                    LDA     0,,PR0
        23 001276   001314 600000 23                 TZE     s:17959

      441    17957    3            CALL Z8AF$NEW_OFF (STRING$ -> ETT.LOP, OFF, START$);

  17957 23 001277   200125 471500                    LDP1    @STRING$,,AUTO
        23 001300   100000 473500                    LDP3    0,,PR1
        23 001301   200127 236100                    LDQ     @START$,,AUTO
        23 001302   200160 756100                    STQ     TYPE_DESC+6,,AUTO
        23 001303   200126 236100                    LDQ     @OFF,,AUTO
        23 001304   200157 756100                    STQ     TYPE_DESC+5,,AUTO
        23 001305   300001 634500                    EPPR4   1,,PR3
        23 001306   200156 454500                    STP4    TYPE_DESC+4,,AUTO
        23 001307   200156 630500                    EPPR0   TYPE_DESC+4,,AUTO
PL6.E3A0      #002=Z8EY$SUBSTR File=Z8EY.:Z8A6TSI                                SAT 08/09/97 13:00 Page:93
        23 001310   000016 631400 24                 EPPR1   14
        23 001311   000000 701000 xent               TSX1    Z8AF$NEW_OFF
        23 001312   000000 011000                    NOP     0
        23 001313   001321 710000 23                 TRA     s:17962

      442    17958    3          ELSE
      443    17959    3            START$ = STRING$ -> ETT.LOP;

  17959 23 001314   200125 471500                    LDP1    @STRING$,,AUTO
        23 001315   100000 473500                    LDP3    0,,PR1
        23 001316   300001 236100                    LDQ     1,,PR3
        23 001317   200127 474500                    LDP4    @START$,,AUTO
        23 001320   400000 756100                    STQ     0,,PR4

      444    17960
      445    17961    3    END; /* Case -- ident$ -> ill.id */

      446    17962    2   END CREATE_START_POSITION;  /*  proc  */

  17962 23 001321   200124 221300                    LDX1  ! OP+1,,AUTO
        23 001322   000001 702211                    TSX2  ! 1,X1

      447    17963        %EJECT;
PL6.E3A0      #002=Z8EY$SUBSTR File=Z8EY.:Z8A6TSI                                SAT 08/09/97 13:00 Page:94
      448    17964        %MACRO CREATE_LENGTH_ITEMS (@FISS      = FISS,
      449    17965                                    @SIZ$      = SIZ$,
      450    17966                                    @START_AT$ = STRT_POS$,
      451    17967                                    @RETURN$   = VAR$ -> LX_ETT_ITEM.ETT$);
      452    17968
      453    17969         IF SIZ$ = ADDR(NIL) THEN
      454    17970           CALL Z8AF$NEW_FISS (@START_AT$, @FISS, %ALPHA_NUMERIC_FISS, @RETURN$);
      455    17971         ELSE
      456    17972           CALL Z8AF$FORME (%REFMOD, @START_AT$, @SIZ$, @RETURN$); /*#28637*/
      457    17973        %MEND;
      458    17974        %EJECT;
PL6.E3A0      #002=Z8EY$SUBSTR File=Z8EY.:Z8A6TSI                                SAT 08/09/97 13:00 Page:95
      459    17975    1    SBCHK_FLAG = TRUE;

  17975 23 001323   400000 236003                    LDQ     -131072,DU
        23 001324   200121 756100                    STQ     SBCHK_FLAG,,AUTO

      460    17976    1    CONV_FLAG = TRUE;

  17976 23 001325   200114 756100                    STQ     CONV_FLAG,,AUTO

      461    17977    1    GOTO START_Z8EY_SUBSTR;

  17977 23 001326   001341 710000 23                 TRA     START_Z8EY_SUBSTR

      462    17978         /**/
      463    17979    1   Z8EY$SUBSTR_NO_SBCHK: ENTRY (VAR$$, START$$, LENGTH$$, RETURN$); /*#42050*/

  17979 23 001327   000000 700200 xent  Z8EY$SUBSTR* TSX0  ! X66_AUTO_4
        23 001330   000164 000004                    ZERO    116,4

      464    17980    1    SBCHK_FLAG = FALSE;

  17980 23 001331   200121 450100                    STZ     SBCHK_FLAG,,AUTO

      465    17981    1    CONV_FLAG = TRUE;

  17981 23 001332   400000 236003                    LDQ     -131072,DU
        23 001333   200114 756100                    STQ     CONV_FLAG,,AUTO

      466    17982    1    GOTO START_Z8EY_SUBSTR;

  17982 23 001334   001341 710000 23                 TRA     START_Z8EY_SUBSTR

      467    17983         /**/
      468    17984    1   Z8EY$INSERT: ENTRY (VAR$$, START$$, LENGTH$$, RETURN$);

  17984 23 001335   000000 700200 xent  Z8EY$INSERT  TSX0  ! X66_AUTO_4
        23 001336   000164 000004                    ZERO    116,4
PL6.E3A0      #002=Z8EY$SUBSTR File=Z8EY.:Z8A6TSI                                SAT 08/09/97 13:00 Page:96

      469    17985    1    SBCHK_FLAG = FALSE;

  17985 23 001337   200121 450100                    STZ     SBCHK_FLAG,,AUTO

      470    17986    1    CONV_FLAG = FALSE;

  17986 23 001340   200114 450100                    STZ     CONV_FLAG,,AUTO

      471    17987
      472    17988    1   START_Z8EY_SUBSTR:
      473    17989         %FISH (TRIAD = VAR$$ -> LX_ETT_ITEM.ETT$,
      474    17990                RTN = VAR_ST$);

  17991 23 001341                       START_Z8EY_* null
  17992 23 001341   200003 470500                    LDP0    @VAR$$,,AUTO
        23 001342   000000 471500                    LDP1    0,,PR0
        23 001343   100001 236100                    LDQ     1,,PR1
        23 001344   200102 756100                    STQ     VAR_ST$,,AUTO

  17993 23 001345   200102 473500                    LDP3    VAR_ST$,,AUTO
        23 001346   300000 220100                    LDX0    0,,PR3
        23 001347   000751 100003                    CMPX0   489,DU
        23 001350   001360 603000 23                 TRC     s:17999

  17994 23 001351   200102 470500                    LDP0    VAR_ST$,,AUTO
        23 001352   000001 236100                    LDQ     1,,PR0
        23 001353   200102 756100                    STQ     VAR_ST$,,AUTO

  17995 23 001354   200102 470500                    LDP0    VAR_ST$,,AUTO
        23 001355   000000 220100                    LDX0    0,,PR0
        23 001356   000751 100003                    CMPX0   489,DU
        23 001357   001351 602000 23                 TNC     s:17994

      475    17998
      476    17999    1    IF VAR_ST$ -> SCALAR.B.KANJI AND SBCHK_FLAG THEN

PL6.E3A0      #002=Z8EY$SUBSTR File=Z8EY.:Z8A6TSI                                SAT 08/09/97 13:00 Page:97
  17999 23 001360   200102 470500                    LDP0    VAR_ST$,,AUTO
        23 001361   000003 236100                    LDQ     3,,PR0
        23 001362   001000 316007                    CANQ    512,DL
        23 001363   001436 600000 23                 TZE     s:18030
        23 001364   200121 234100                    SZN     SBCHK_FLAG,,AUTO
        23 001365   001436 605000 23                 TPL     s:18030

      477    18000          /* SBCHK_FLAG false only for INSPECT, EXAMINE -- no KANJI check needed, either */
      478    18001    2      DO;

      479    18002    2        BYTE_SIZE = 2;

  18002 23 001366   000002 235007                    LDA     2,DL
        23 001367   200120 755100                    STA     BYTE_SIZE,,AUTO

      480    18003    2        START$ = ADDR( OFFSET_TIMES_2 );

  18003 23 001370   200052 631500                    EPPR1   OFFSET_TIMES_2,,AUTO
        23 001371   200020 451500                    STP1    START$,,AUTO

      481    18004    2        TWO$ = ADDR( TWO );

  18004 23 001372   200072 633500                    EPPR3   TWO,,AUTO
        23 001373   200103 453500                    STP3    TWO$,,AUTO

      482    18005    2        CALL Z8AC$LX_ETT_ITEM_TYI_CONST (2, TWO$);

  18005 23 001374   200103 634500                    EPPR4   TWO$,,AUTO
        23 001375   200157 454500                    STP4    TYPE_DESC+5,,AUTO
        23 001376   000033 236000 24                 LDQ     27
        23 001377   200156 756100                    STQ     TYPE_DESC+4,,AUTO
        23 001400   200156 630500                    EPPR0   TYPE_DESC+4,,AUTO
        23 001401   000001 631400 24                 EPPR1   1
        23 001402   000000 701000 xent               TSX1    Z8AC$LX_ETT_ITEM_TYI_CONST
        23 001403   000000 011000                    NOP     0

      483    18006             %INIT_BINARY_OP (@POINTER = START$,
PL6.E3A0      #002=Z8EY$SUBSTR File=Z8EY.:Z8A6TSI                                SAT 08/09/97 13:00 Page:98
      484    18007                              @OP      = %OP_STAR,
      485    18008                              @LOP$    = START$$,
      486    18009                              @ROP$    = TWO$);

  18011 23 001404   000005 220003                    LDX0    5,DU
        23 001405   200020 470500                    LDP0    START$,,AUTO
        23 001406   000000 740100                    STX0    0,,PR0

  18012 23 001407   000000 221003                    LDX1    0,DU
        23 001410   200020 470500                    LDP0    START$,,AUTO
        23 001411   000000 441100                    SXL1    0,,PR0

  18019 23 001412   000133 235000 xsym               LDA     COMCOM+91
        23 001413   200020 470500                    LDP0    START$,,AUTO
        23 001414   000005 755100                    STA     5,,PR0

  18020 23 001415   000134 235000 xsym               LDA     COMCOM+92
        23 001416   200020 470500                    LDP0    START$,,AUTO
        23 001417   000006 755100                    STA     6,,PR0

  18021 23 001420   200103 236100                    LDQ     TWO$,,AUTO
        23 001421   200020 470500                    LDP0    START$,,AUTO
        23 001422   000002 756100                    STQ     2,,PR0

  18022 23 001423   200004 470500                    LDP0    @START$$,,AUTO
        23 001424   000000 236100                    LDQ     0,,PR0
        23 001425   200020 471500                    LDP1    START$,,AUTO
        23 001426   100001 756100                    STQ     1,,PR1

  18023 23 001427   000022 235007                    LDA     18,DL
        23 001430   200020 471500                    LDP1    START$,,AUTO
        23 001431   100003 755100                    STA     3,,PR1

  18024 23 001432   000000 236000 24                 LDQ     0
        23 001433   200020 471500                    LDP1    START$,,AUTO
        23 001434   100007 756100                    STQ     7,,PR1

PL6.E3A0      #002=Z8EY$SUBSTR File=Z8EY.:Z8A6TSI                                SAT 08/09/97 13:00 Page:99
      487    18027    2      END;

  18027 23 001435   001443 710000 23                 TRA     s:18034

      488    18028    1    ELSE
      489    18029    2      DO;

      490    18030    2        BYTE_SIZE = 1;

  18030 23 001436   000001 235007                    LDA     1,DL
        23 001437   200120 755100                    STA     BYTE_SIZE,,AUTO

      491    18031    2        START$ = START$$;

  18031 23 001440   200004 471500                    LDP1    @START$$,,AUTO
        23 001441   100000 236100                    LDQ     0,,PR1
        23 001442   200020 756100                    STQ     START$,,AUTO

      492    18032    2      END;

      493    18033
      494    18034    1    VAR$ = ADDR(SUBSTR_VAR);

  18034 23 001443   200042 630500                    EPPR0   SUBSTR_VAR,,AUTO
        23 001444   200106 450500                    STP0    VAR$,,AUTO

      495    18035    1    VAR$ -> LX_ETT_ITEM = VAR$$ -> LX_ETT_ITEM;

  18035 23 001445   200003 471500                    LDP1    @VAR$$,,AUTO
        23 001446   100000 473500                    LDP3    0,,PR1
        23 001447   000100 100500                    MLR     fill='000'O
        23 001450   300000 000040                    ADSC9   0,,PR3                   cn=0,n=32
        23 001451   000000 000040                    ADSC9   0,,PR0                   cn=0,n=32

      496    18036
      497    18037    1    CALL Z8E5$MATH_PACK (START$, ADDR(START_POS));

PL6.E3A0      #002=Z8EY$SUBSTR File=Z8EY.:Z8A6TSI                                SAT 08/09/97 13:00 Page:100
  18037 23 001452   200022 630500                    EPPR0   START_POS,,AUTO
        23 001453   200156 450500                    STP0    TYPE_DESC+4,,AUTO
        23 001454   200156 633500                    EPPR3   TYPE_DESC+4,,AUTO
        23 001455   200161 453500                    STP3    TYPE_DESC+7,,AUTO
        23 001456   200020 634500                    EPPR4   START$,,AUTO
        23 001457   200160 454500                    STP4    TYPE_DESC+6,,AUTO
        23 001460   200160 630500                    EPPR0   TYPE_DESC+6,,AUTO
        23 001461   000001 631400 24                 EPPR1   1
        23 001462   000000 701000 xent               TSX1    Z8E5$MATH_PACK
        23 001463   000000 011000                    NOP     0

      498    18038    1    CALL Z8EQ$CHECK_FOR_INTEGER_ITEM (ADDR(START_POS),

  18038 23 001464   200022 630500                    EPPR0   START_POS,,AUTO
        23 001465   200156 450500                    STP0    TYPE_DESC+4,,AUTO
        23 001466   000035 236000 24                 LDQ     29
        23 001467   200161 756100                    STQ     TYPE_DESC+7,,AUTO
        23 001470   200156 631500                    EPPR1   TYPE_DESC+4,,AUTO
        23 001471   200160 451500                    STP1    TYPE_DESC+6,,AUTO
        23 001472   200160 630500                    EPPR0   TYPE_DESC+6,,AUTO
        23 001473   000001 631400 24                 EPPR1   1
        23 001474   000000 701000 xent               TSX1    Z8EQ$CHECK_FOR_INTEGER_ITEM
        23 001475   000000 011000                    NOP     0

      499    18039    1                                      %E$ONLY_INT_EXPR_FOR_REFMOD);
      500    18040
      501    18041    1    IF LENGTH$$ ~= ADDR(NIL) THEN   /* LENGTH_SPECIFIED */

  18041 23 001476   200005 470500                    LDP0    @LENGTH$$,,AUTO
        23 001477   000000 236100                    LDQ     0,,PR0
        23 001500   000000 116000 24                 CMPQ    0
        23 001501   001567 600000 23                 TZE     s:18076

      502    18042    2      DO;

      503    18043    2        IF BYTE_SIZE = 2 THEN /* KANJI */

PL6.E3A0      #002=Z8EY$SUBSTR File=Z8EY.:Z8A6TSI                                SAT 08/09/97 13:00 Page:101
  18043 23 001502   200120 235100                    LDA     BYTE_SIZE,,AUTO
        23 001503   000002 115007                    CMPA    2,DL
        23 001504   001537 601000 23                 TNZ     s:18069

      504    18044    3          DO;

      505    18045    3            LENGTH$ = ADDR(LENGTH_TIMES_2);

  18045 23 001505   200062 631500                    EPPR1   LENGTH_TIMES_2,,AUTO
        23 001506   200104 451500                    STP1    LENGTH$,,AUTO

      506    18046                 %INIT_BINARY_OP (@POINTER = LENGTH$,
      507    18047                                  @OP      = %OP_STAR,
      508    18048                                  @LOP$    = LENGTH$$,
      509    18049                                  @ROP$    = TWO$);

  18051 23 001507   000005 220003                    LDX0    5,DU
        23 001510   100000 740100                    STX0    0,,PR1

  18052 23 001511   000000 221003                    LDX1    0,DU
        23 001512   200104 471500                    LDP1    LENGTH$,,AUTO
        23 001513   100000 441100                    SXL1    0,,PR1

  18059 23 001514   000133 236000 xsym               LDQ     COMCOM+91
        23 001515   200104 471500                    LDP1    LENGTH$,,AUTO
        23 001516   100005 756100                    STQ     5,,PR1

  18060 23 001517   000134 236000 xsym               LDQ     COMCOM+92
        23 001520   200104 471500                    LDP1    LENGTH$,,AUTO
        23 001521   100006 756100                    STQ     6,,PR1

  18061 23 001522   200103 236100                    LDQ     TWO$,,AUTO
        23 001523   200104 471500                    LDP1    LENGTH$,,AUTO
        23 001524   100002 756100                    STQ     2,,PR1

  18062 23 001525   000000 236100                    LDQ     0,,PR0
        23 001526   200104 471500                    LDP1    LENGTH$,,AUTO
PL6.E3A0      #002=Z8EY$SUBSTR File=Z8EY.:Z8A6TSI                                SAT 08/09/97 13:00 Page:102
        23 001527   100001 756100                    STQ     1,,PR1

  18063 23 001530   000022 236007                    LDQ     18,DL
        23 001531   200104 471500                    LDP1    LENGTH$,,AUTO
        23 001532   100003 756100                    STQ     3,,PR1

  18064 23 001533   000000 236000 24                 LDQ     0
        23 001534   200104 471500                    LDP1    LENGTH$,,AUTO
        23 001535   100007 756100                    STQ     7,,PR1

      510    18067    3          END;

  18067 23 001536   001540 710000 23                 TRA     s:18070

      511    18068    2        ELSE
      512    18069    2          LENGTH$ = LENGTH$$;

  18069 23 001537   200104 756100                    STQ     LENGTH$,,AUTO

      513    18070    2        CALL Z8E5$MATH_PACK (LENGTH$, ADDR(LENGTH));

  18070 23 001540   200032 631500                    EPPR1   LENGTH,,AUTO
        23 001541   200156 451500                    STP1    TYPE_DESC+4,,AUTO
        23 001542   200156 633500                    EPPR3   TYPE_DESC+4,,AUTO
        23 001543   200161 453500                    STP3    TYPE_DESC+7,,AUTO
        23 001544   200104 634500                    EPPR4   LENGTH$,,AUTO
        23 001545   200160 454500                    STP4    TYPE_DESC+6,,AUTO
        23 001546   200160 630500                    EPPR0   TYPE_DESC+6,,AUTO
        23 001547   000001 631400 24                 EPPR1   1
        23 001550   000000 701000 xent               TSX1    Z8E5$MATH_PACK
        23 001551   000000 011000                    NOP     0

      514    18071    2        CALL Z8EQ$CHECK_FOR_INTEGER_ITEM (ADDR(LENGTH),

  18071 23 001552   200032 630500                    EPPR0   LENGTH,,AUTO
        23 001553   200156 450500                    STP0    TYPE_DESC+4,,AUTO
        23 001554   000035 236000 24                 LDQ     29
PL6.E3A0      #002=Z8EY$SUBSTR File=Z8EY.:Z8A6TSI                                SAT 08/09/97 13:00 Page:103
        23 001555   200161 756100                    STQ     TYPE_DESC+7,,AUTO
        23 001556   200156 631500                    EPPR1   TYPE_DESC+4,,AUTO
        23 001557   200160 451500                    STP1    TYPE_DESC+6,,AUTO
        23 001560   200160 630500                    EPPR0   TYPE_DESC+6,,AUTO
        23 001561   000001 631400 24                 EPPR1   1
        23 001562   000000 701000 xent               TSX1    Z8EQ$CHECK_FOR_INTEGER_ITEM
        23 001563   000000 011000                    NOP     0

      515    18072    2                                          %E$ONLY_INT_EXPR_FOR_REFMOD);
      516    18073    2        LENGTH$ = ADDR(LENGTH);

  18073 23 001564   200032 630500                    EPPR0   LENGTH,,AUTO
        23 001565   200104 450500                    STP0    LENGTH$,,AUTO

      517    18074    2      END;

  18074 23 001566   001571 710000 23                 TRA     s:18078

      518    18075    1    ELSE
      519    18076    1      LENGTH$ = ADDR(NIL);

  18076 23 001567   000000 236000 24                 LDQ     0
        23 001570   200104 756100                    STQ     LENGTH$,,AUTO

      520    18077
      521    18078    1    CALL Z8CO$DISPL_CHECK (VAR$)

  18078 23 001571   200106 630500                    EPPR0   VAR$,,AUTO
        23 001572   200156 450500                    STP0    TYPE_DESC+4,,AUTO
        23 001573   200156 630500                    EPPR0   TYPE_DESC+4,,AUTO
        23 001574   000002 631400 24                 EPPR1   2
        23 001575   000000 701000 xent               TSX1    Z8CO$DISPL_CHECK
        23 001576   001600 702000 23                 TSX2    s:18081
        23 001577   001655 710000 23                 TRA     s:18115

      522    18079    1      WHENALTRETURN
      523    18080    2        DO;
PL6.E3A0      #002=Z8EY$SUBSTR File=Z8EY.:Z8A6TSI                                SAT 08/09/97 13:00 Page:104

      524    18081    2          IF VAR$ -> LX_ETT_ITEM.TYPE ~= %TYX AND

  18081 23 001600   200106 470500                    LDP0    VAR$,,AUTO
        23 001601   000004 235100                    LDA     4,,PR0
        23 001602   000011 115007                    CMPA    9,DL
        23 001603   001620 600000 23                 TZE     s:18091
        23 001604   000012 115007                    CMPA    10,DL
        23 001605   001620 600000 23                 TZE     s:18091

      525    18082    2             VAR$ -> LX_ETT_ITEM.TYPE ~= %TYY THEN /* Prevent unexpected case */
      526    18083    2            CALL Z8EV$CONVERT (%TYA, VAR$, VAR$);

  18083 23 001606   200106 631500                    EPPR1   VAR$,,AUTO
        23 001607   200160 451500                    STP1    TYPE_DESC+6,,AUTO
        23 001610   200106 633500                    EPPR3   VAR$,,AUTO
        23 001611   200157 453500                    STP3    TYPE_DESC+5,,AUTO
        23 001612   000037 236000 24                 LDQ     31
        23 001613   200156 756100                    STQ     TYPE_DESC+4,,AUTO
        23 001614   200156 630500                    EPPR0   TYPE_DESC+4,,AUTO
        23 001615   000016 631400 24                 EPPR1   14
        23 001616   000000 701000 xent               TSX1    Z8EV$CONVERT
        23 001617   000000 011000                    NOP     0

      527    18084
      528    18085               %INIT_LX_ETT_ITEM (@POINTER = RETURN$,
      529    18086                                  @ETT$    = VAR$ -> LX_ETT_ITEM.ETT$,
      530    18087                                  @TYPE    = %TYA,
      531    18088                                  @LINE    = VAR$ -> LX_ETT_ITEM.LINE,
      532    18089                                  @COLUMN  = VAR$ -> LX_ETT_ITEM.COLUMN);

  18091 23 001620   200006 470500                    LDP0    @RETURN$,,AUTO
        23 001621   000000 471500                    LDP1    0,,PR0
        23 001622   000004 220003                    LDX0    4,DU
        23 001623   100000 740100                    STX0    0,,PR1

  18092 23 001624   000000 471500                    LDP1    0,,PR0
PL6.E3A0      #002=Z8EY$SUBSTR File=Z8EY.:Z8A6TSI                                SAT 08/09/97 13:00 Page:105
        23 001625   000000 221003                    LDX1    0,DU
        23 001626   100000 441100                    SXL1    0,,PR1

  18093 23 001627   000000 471500                    LDP1    0,,PR0
        23 001630   000010 235007                    LDA     8,DL
        23 001631   100004 755100                    STA     4,,PR1

  18094 23 001632   000000 471500                    LDP1    0,,PR0
        23 001633   000000 236000 24                 LDQ     0
        23 001634   100007 756100                    STQ     7,,PR1

  18095 23 001635   000000 471500                    LDP1    0,,PR0
        23 001636   200106 473500                    LDP3    VAR$,,AUTO
        23 001637   300001 236100                    LDQ     1,,PR3
        23 001640   100001 756100                    STQ     1,,PR1

  18096 23 001641   000000 471500                    LDP1    0,,PR0
        23 001642   000000 236000 24                 LDQ     0
        23 001643   100002 756100                    STQ     2,,PR1

  18098 23 001644   000000 471500                    LDP1    0,,PR0
        23 001645   200106 473500                    LDP3    VAR$,,AUTO
        23 001646   300005 235100                    LDA     5,,PR3
        23 001647   100005 755100                    STA     5,,PR1

  18099 23 001650   000000 471500                    LDP1    0,,PR0
        23 001651   200106 473500                    LDP3    VAR$,,AUTO
        23 001652   300006 235100                    LDA     6,,PR3
        23 001653   100006 755100                    STA     6,,PR1

      533    18111    2          RETURN;

  18111 23 001654   000000 702200 xent               TSX2  ! X66_ARET

      534    18112    2        END;
      535    18113
      536    18114
PL6.E3A0      #002=Z8EY$SUBSTR File=Z8EY.:Z8A6TSI                                SAT 08/09/97 13:00 Page:106
      537    18115    1    STRT_POS$ = ADDR(START_POS) -> LX_ETT_ITEM.ETT$;

  18115 23 001655   200023 236100                    LDQ     START_POS+1,,AUTO
        23 001656   200107 756100                    STQ     STRT_POS$,,AUTO

      538    18116
      539    18117    1    IF LENGTH$ ~= ADDR(NIL) THEN

  18117 23 001657   200104 236100                    LDQ     LENGTH$,,AUTO
        23 001660   000000 116000 24                 CMPQ    0
        23 001661   001665 600000 23                 TZE     s:18120

      540    18118    1      LENGTH$ = LENGTH$ -> LX_ETT_ITEM.ETT$;

  18118 23 001662   200104 470500                    LDP0    LENGTH$,,AUTO
        23 001663   000001 236100                    LDQ     1,,PR0
        23 001664   200104 756100                    STQ     LENGTH$,,AUTO

      541    18119
      542    18120    1    STRING$   = VAR$ -> LX_ETT_ITEM.ETT$;

  18120 23 001665   200106 470500                    LDP0    VAR$,,AUTO
        23 001666   000001 236100                    LDQ     1,,PR0
        23 001667   200105 756100                    STQ     STRING$,,AUTO

      543    18121
      544    18122         %FISH (TRIAD = STRING$,
      545    18123                RTN   = STRING_ST$);

  18125 23 001670   200111 756100                    STQ     STRING_ST$,,AUTO

  18126 23 001671   200111 471500                    LDP1    STRING_ST$,,AUTO
        23 001672   100000 220100                    LDX0    0,,PR1
        23 001673   000751 100003                    CMPX0   489,DU
        23 001674   001704 603000 23                 TRC     s:18132

  18127 23 001675   200111 470500                    LDP0    STRING_ST$,,AUTO
PL6.E3A0      #002=Z8EY$SUBSTR File=Z8EY.:Z8A6TSI                                SAT 08/09/97 13:00 Page:107
        23 001676   000001 236100                    LDQ     1,,PR0
        23 001677   200111 756100                    STQ     STRING_ST$,,AUTO

  18128 23 001700   200111 470500                    LDP0    STRING_ST$,,AUTO
        23 001701   000000 220100                    LDX0    0,,PR0
        23 001702   000751 100003                    CMPX0   489,DU
        23 001703   001675 602000 23                 TNC     s:18127

      546    18131
      547    18132    1    FISS   = 0;

  18132 23 001704   200116 450100                    STZ     FISS,,AUTO

      548    18133    1    SIZ$   = ADDR(NIL);

  18133 23 001705   000000 236000 24                 LDQ     0
        23 001706   200112 756100                    STQ     SIZ$,,AUTO

      549    18134
      550    18135    2    DO CASE (STRING_ST$ -> VARIABLE.TYPE);

  18135 23 001707   200111 470500                    LDP0    STRING_ST$,,AUTO
        23 001710   000002 236100                    LDQ     2,,PR0
        23 001711   000022 772000                    QRL     18
        23 001712   000006 136007                    SBLQ    6,DL
        23 001713   000011 116007                    CMPQ    9,DL
        23 001714   001716 602006 23                 TNC     s:18135+7,QL
        23 001715   001751 710000 23                 TRA     s:18150
        23 001716   001727 710000 23                 TRA     s:18140
        23 001717   001751 710000 23                 TRA     s:18150
        23 001720   001727 710000 23                 TRA     s:18140
        23 001721   001751 710000 23                 TRA     s:18150
        23 001722   001751 710000 23                 TRA     s:18150
        23 001723   001751 710000 23                 TRA     s:18150
        23 001724   001727 710000 23                 TRA     s:18140
        23 001725   001751 710000 23                 TRA     s:18150
        23 001726   001727 710000 23                 TRA     s:18140
PL6.E3A0      #002=Z8EY$SUBSTR File=Z8EY.:Z8A6TSI                                SAT 08/09/97 13:00 Page:108

      551    18136    2      CASE (%TYA, %TYN, %TYB, %TYE);

      552    18137             %GET_ADSC_LEN (ST$ = STRING_ST$,
      553    18138                            RTN = MAXLEN);

  18140 23 001727   000003 236100                    LDQ     3,,PR0
        23 001730   004000 316003                    CANQ    2048,DU
        23 001731   001745 600000 23                 TZE     s:18146

  18141 23 001732   000005 471500                    LDP1    5,,PR0
        23 001733   100000 220100                    LDX0    0,,PR1
        23 001734   001105 100003                    CMPX0   581,DU
        23 001735   001742 601000 23                 TNZ     s:18144

  18142 23 001736   100003 473500                    LDP3    3,,PR1
        23 001737   300001 235100                    LDA     1,,PR3
        23 001740   200122 755100                    STA     MAXLEN,,AUTO
        23 001741   001754 710000 23                 TRA     s:18152

  18144 23 001742   100001 235100                    LDA     1,,PR1
        23 001743   200122 755100                    STA     MAXLEN,,AUTO
        23 001744   001754 710000 23                 TRA     s:18152

  18146 23 001745   000001 236100                    LDQ     1,,PR0
        23 001746   007777 376007                    ANQ     4095,DL
        23 001747   200122 756100                    STQ     MAXLEN,,AUTO

  18147 23 001750   001754 710000 23                 TRA     s:18152

      554    18149    2      CASE (ELSE);

      555    18150    2        MAXLEN = STRING_ST$ -> VARIABLE.NDSC.N;

  18150 23 001751   000001 236100                    LDQ     1,,PR0
        23 001752   000077 376007                    ANQ     63,DL
        23 001753   200122 756100                    STQ     MAXLEN,,AUTO
PL6.E3A0      #002=Z8EY$SUBSTR File=Z8EY.:Z8A6TSI                                SAT 08/09/97 13:00 Page:109

      556    18151    2    END;

      557    18152    1    IF LENGTH$ = ADDR(NIL) THEN

  18152 23 001754   200104 236100                    LDQ     LENGTH$,,AUTO
        23 001755   000000 116000 24                 CMPQ    0
        23 001756   001772 601000 23                 TNZ     s:18159

      558    18153    1      CALL GET_IMPLIED_LENGTH (STRING$, STRT_POS$, FISS, SIZ$);

  18153 23 001757   200112 631500                    EPPR1   SIZ$,,AUTO
        23 001760   200130 451500                    STP1    @START$+1,,AUTO
        23 001761   200116 633500                    EPPR3   FISS,,AUTO
        23 001762   200127 453500                    STP3    @OFF+1,,AUTO
        23 001763   200107 634500                    EPPR4   STRT_POS$,,AUTO
        23 001764   200126 454500                    STP4    @STRING$+1,,AUTO
        23 001765   200105 635500                    EPPR5   STRING$,,AUTO
        23 001766   200125 455500                    STP5    OP+2,,AUTO
        23 001767   000070 701000 23                 TSX1    GET_IMPLIED_LENGTH
        23 001770   000000 011000                    NOP     0
        23 001771   002005 710000 23                 TRA     s:18167

      559    18154    1    ELSE
      560    18155           %GET_SPECIFIED_LENGTH (@LENGTH$ = LENGTH$,
      561    18156                                  @FISS    = FISS,
      562    18157                                  @SIZ$    = SIZ$);

  18159 23 001772   200104 471500                    LDP1    LENGTH$,,AUTO
        23 001773   100000 220100                    LDX0    0,,PR1
        23 001774   000015 100003                    CMPX0   13,DU
        23 001775   002004 601000 23                 TNZ     s:18163
        23 001776   100001 473500                    LDP3    1,,PR1
        23 001777   300010 235100                    LDA     8,,PR3
        23 002000   010000 115007                    CMPA    4096,DL
        23 002001   002004 605000 23                 TPL     s:18163

PL6.E3A0      #002=Z8EY$SUBSTR File=Z8EY.:Z8A6TSI                                SAT 08/09/97 13:00 Page:110
  18161 23 002002   200116 755100                    STA     FISS,,AUTO
        23 002003   002005 710000 23                 TRA     s:18167

  18163 23 002004   200112 756100                    STQ     SIZ$,,AUTO

      563    18166
      564    18167    2    IF COMCOM.OB.SUBCHK AND STRT_POS$ -> ETT.ID = %TRIAD THEN DO;

  18167 23 002005   000020 234000 xsym               SZN     COMCOM+16
        23 002006   002041 605000 23                 TPL     s:18176
        23 002007   200107 470500                    LDP0    STRT_POS$,,AUTO
        23 002010   000000 220100                    LDX0    0,,PR0
        23 002011   000015 100003                    CMPX0   13,DU
        23 002012   002041 601000 23                 TNZ     s:18176

      565    18168    2      OFF = STRT_POS$ -> ETT.LOP -> CONST.CONSTI.WORD1;

  18168 23 002013   000001 471500                    LDP1    1,,PR0
        23 002014   100010 235100                    LDA     8,,PR1
        23 002015   200115 755100                    STA     OFF,,AUTO

      566    18169    2      IF LENGTH$ ~= ADDR(NIL) THEN

  18169 23 002016   200104 236100                    LDQ     LENGTH$,,AUTO
        23 002017   000000 116000 24                 CMPQ    0
        23 002020   002032 600000 23                 TZE     s:18172

      567    18170    2        IF LENGTH$ -> ETT.ID = %TRIAD THEN

  18170 23 002021   200104 471500                    LDP1    LENGTH$,,AUTO
        23 002022   100000 220100                    LDX0    0,,PR1
        23 002023   000015 100003                    CMPX0   13,DU
        23 002024   002032 601000 23                 TNZ     s:18172

      568    18171    2          OFF = OFF + LENGTH$ -> ETT.LOP -> CONST.CONSTI.WORD1 - 1;

  18171 23 002025   100001 473500                    LDP3    1,,PR1
PL6.E3A0      #002=Z8EY$SUBSTR File=Z8EY.:Z8A6TSI                                SAT 08/09/97 13:00 Page:111
        23 002026   200115 236100                    LDQ     OFF,,AUTO
        23 002027   300010 036100                    ADLQ    8,,PR3
        23 002030   000001 136007                    SBLQ    1,DL
        23 002031   200115 756100                    STQ     OFF,,AUTO

      569    18172    2      IF OFF > MAXLEN THEN

  18172 23 002032   200115 236100                    LDQ     OFF,,AUTO
        23 002033   200122 116100                    CMPQ    MAXLEN,,AUTO
        23 002034   002041 604400 23                 TMOZ    s:18176

      570    18173    2        CALL Z8AE$ERROR (%E$REFMOD_OUT_OF_BOUNDS);

  18173 23 002035   000041 630400 24                 EPPR0   33
        23 002036   000002 631400 24                 EPPR1   2
        23 002037   000000 701000 xent               TSX1    Z8AE$ERROR
        23 002040   000000 011000                    NOP     0

      571    18174    2    END;

      572    18175
      573    18176    1    IF (VAR$ -> LX_ETT_ITEM.TYPE = %TYB OR VAR$ -> LX_ETT_ITEM.TYPE = %TYE)

  18176 23 002041   200106 470500                    LDP0    VAR$,,AUTO
        23 002042   000004 235100                    LDA     4,,PR0
        23 002043   000014 115007                    CMPA    12,DL
        23 002044   002047 600000 23                 TZE     s:18176+6
        23 002045   000006 115007                    CMPA    6,DL
        23 002046   002107 601000 23                 TNZ     s:18191
        23 002047   200114 234100                    SZN     CONV_FLAG,,AUTO
        23 002050   002107 605000 23                 TPL     s:18191

      574    18177    1        AND CONV_FLAG THEN
      575    18178    2      DO;

      576    18179    2        IF VAR$ -> LX_ETT_ITEM.TYPE = %TYB

PL6.E3A0      #002=Z8EY$SUBSTR File=Z8EY.:Z8A6TSI                                SAT 08/09/97 13:00 Page:112
  18179 23 002051   000014 115007                    CMPA    12,DL
        23 002052   002056 601000 23                 TNZ     s:18181

      577    18180    2          THEN OP = %OP_GBCD_TO_ASCII;

  18180 23 002053   002663 236007                    LDQ     1459,DL
        23 002054   200123 756100                    STQ     OP,,AUTO
        23 002055   002060 710000 23                 TRA     s:18182

      578    18181    2          ELSE OP = %OP_EBCDIC_TO_ASCII;

  18181 23 002056   002723 236007                    LDQ     1491,DL
        23 002057   200123 756100                    STQ     OP,,AUTO

      579    18182    2        CALL Z8CO$CREATE_LIBRARY_BASE (OP, TABLE_ETT$);

  18182 23 002060   200113 631500                    EPPR1   TABLE_ETT$,,AUTO
        23 002061   200157 451500                    STP1    TYPE_DESC+5,,AUTO
        23 002062   200123 633500                    EPPR3   OP,,AUTO
        23 002063   200156 453500                    STP3    TYPE_DESC+4,,AUTO
        23 002064   200156 630500                    EPPR0   TYPE_DESC+4,,AUTO
        23 002065   000001 631400 24                 EPPR1   1
        23 002066   000000 701000 xent               TSX1    Z8CO$CREATE_LIBRARY_BASE
        23 002067   000000 011000                    NOP     0

      580    18183    2        CALL Z8AF$FORME (%CVT,

  18183 23 002070   200105 630500                    EPPR0   STRING$,,AUTO
        23 002071   200161 450500                    STP0    TYPE_DESC+7,,AUTO
        23 002072   200113 631500                    EPPR1   TABLE_ETT$,,AUTO
        23 002073   200160 451500                    STP1    TYPE_DESC+6,,AUTO
        23 002074   200105 633500                    EPPR3   STRING$,,AUTO
        23 002075   200157 453500                    STP3    TYPE_DESC+5,,AUTO
        23 002076   000043 236000 24                 LDQ     35
        23 002077   200156 756100                    STQ     TYPE_DESC+4,,AUTO
        23 002100   200156 630500                    EPPR0   TYPE_DESC+4,,AUTO
        23 002101   000003 631400 24                 EPPR1   3
PL6.E3A0      #002=Z8EY$SUBSTR File=Z8EY.:Z8A6TSI                                SAT 08/09/97 13:00 Page:113
        23 002102   000000 701000 xent               TSX1    Z8AF$FORME
        23 002103   000000 011000                    NOP     0

      581    18184    2                         STRING$,
      582    18185    2                         TABLE_ETT$,
      583    18186    2                         STRING$);
      584    18187    2        VAR$ -> LX_ETT_ITEM.TYPE = %TYA;

  18187 23 002104   000010 235007                    LDA     8,DL
        23 002105   200106 470500                    LDP0    VAR$,,AUTO
        23 002106   000004 755100                    STA     4,,PR0

      585    18188             /* Needed in case result assigned to numeric variable */
      586    18189    2      END;

      587    18190
      588    18191    1    OFF    = 0;

  18191 23 002107   200115 450100                    STZ     OFF,,AUTO

      589    18192
      590    18193    1    CALL CREATE_START_POSITION (STRING$, OFF, STRT_POS$);

  18193 23 002110   200107 630500                    EPPR0   STRT_POS$,,AUTO
        23 002111   200127 450500                    STP0    @OFF+1,,AUTO
        23 002112   200115 631500                    EPPR1   OFF,,AUTO
        23 002113   200126 451500                    STP1    @STRING$+1,,AUTO
        23 002114   200105 633500                    EPPR3   STRING$,,AUTO
        23 002115   200125 453500                    STP3    OP+2,,AUTO
        23 002116   000532 701000 23                 TSX1    CREATE_START_POSITION
        23 002117   000000 011000                    NOP     0

      591    18194
      592    18195    2    DO CASE (VAR$ -> LX_ETT_ITEM.TYPE);

  18195 23 002120   200106 470500                    LDP0    VAR$,,AUTO
        23 002121   000004 235100                    LDA     4,,PR0
PL6.E3A0      #002=Z8EY$SUBSTR File=Z8EY.:Z8A6TSI                                SAT 08/09/97 13:00 Page:114
        23 002122   000006 135007                    SBLA    6,DL
        23 002123   000011 115007                    CMPA    9,DL
        23 002124   002126 602005 23                 TNC     s:18195+6,AL
        23 002125   002142 710000 23                 TRA     s:18199
        23 002126   002137 710000 23                 TRA     s:18197
        23 002127   002142 710000 23                 TRA     s:18199
        23 002130   002137 710000 23                 TRA     s:18197
        23 002131   002142 710000 23                 TRA     s:18199
        23 002132   002142 710000 23                 TRA     s:18199
        23 002133   002142 710000 23                 TRA     s:18199
        23 002134   002137 710000 23                 TRA     s:18197
        23 002135   002142 710000 23                 TRA     s:18199
        23 002136   002137 710000 23                 TRA     s:18197

      593    18196    2      CASE (%TYA, %TYN, %TYB, %TYE);

      594    18197    2        TYPE = VAR$ -> LX_ETT_ITEM.TYPE;

  18197 23 002137   000004 235100                    LDA     4,,PR0
        23 002140   200117 755100                    STA     TYPE,,AUTO
        23 002141   002160 710000 23                 TRA     s:18210

      595    18198    2      CASE (ELSE);

      596    18199    2        CALL Z8AF$FORME (%DNA,

  18199 23 002142   200107 631500                    EPPR1   STRT_POS$,,AUTO
        23 002143   200161 451500                    STP1    TYPE_DESC+7,,AUTO
        23 002144   000022 236000 24                 LDQ     18
        23 002145   200160 756100                    STQ     TYPE_DESC+6,,AUTO
        23 002146   200107 633500                    EPPR3   STRT_POS$,,AUTO
        23 002147   200157 453500                    STP3    TYPE_DESC+5,,AUTO
        23 002150   000045 236000 24                 LDQ     37
        23 002151   200156 756100                    STQ     TYPE_DESC+4,,AUTO
        23 002152   200156 630500                    EPPR0   TYPE_DESC+4,,AUTO
        23 002153   000003 631400 24                 EPPR1   3
        23 002154   000000 701000 xent               TSX1    Z8AF$FORME
PL6.E3A0      #002=Z8EY$SUBSTR File=Z8EY.:Z8A6TSI                                SAT 08/09/97 13:00 Page:115
        23 002155   000000 011000                    NOP     0

      597    18200    2                         STRT_POS$,
      598    18201    2                         0,
      599    18202    2                         STRT_POS$);
      600    18203    2        TYPE = %TYA;

  18203 23 002156   000010 235007                    LDA     8,DL
        23 002157   200117 755100                    STA     TYPE,,AUTO

      601    18204    2      END;

      602    18205
      603    18206         %CREATE_LENGTH_ITEMS (@FISS      = FISS,
      604    18207                               @SIZ$      = SIZ$,
      605    18208                               @START_AT$ = STRT_POS$,
      606    18209                               @RETURN$   = VAR$ -> LX_ETT_ITEM.ETT$);

  18210 23 002160   200112 236100                    LDQ     SIZ$,,AUTO
        23 002161   000000 116000 24                 CMPQ    0
        23 002162   002200 601000 23                 TNZ     s:18213

  18211 23 002163   200106 236100                    LDQ     VAR$,,AUTO
        23 002164   000001 036003                    ADLQ    1,DU
        23 002165   000022 235000 24                 LDA     18
        23 002166   200160 757100                    STAQ    TYPE_DESC+6,,AUTO
        23 002167   200116 630500                    EPPR0   FISS,,AUTO
        23 002170   200157 450500                    STP0    TYPE_DESC+5,,AUTO
        23 002171   200107 631500                    EPPR1   STRT_POS$,,AUTO
        23 002172   200156 451500                    STP1    TYPE_DESC+4,,AUTO
        23 002173   200156 630500                    EPPR0   TYPE_DESC+4,,AUTO
        23 002174   000003 631400 24                 EPPR1   3
        23 002175   000000 701000 xent               TSX1    Z8AF$NEW_FISS
        23 002176   000000 011000                    NOP     0
        23 002177   002215 710000 23                 TRA     s:18223

  18213 23 002200   200106 236100                    LDQ     VAR$,,AUTO
PL6.E3A0      #002=Z8EY$SUBSTR File=Z8EY.:Z8A6TSI                                SAT 08/09/97 13:00 Page:116
        23 002201   000001 036003                    ADLQ    1,DU
        23 002202   200161 756100                    STQ     TYPE_DESC+7,,AUTO
        23 002203   200112 630500                    EPPR0   SIZ$,,AUTO
        23 002204   200160 450500                    STP0    TYPE_DESC+6,,AUTO
        23 002205   200107 631500                    EPPR1   STRT_POS$,,AUTO
        23 002206   200157 451500                    STP1    TYPE_DESC+5,,AUTO
        23 002207   000047 236000 24                 LDQ     39
        23 002210   200156 756100                    STQ     TYPE_DESC+4,,AUTO
        23 002211   200156 630500                    EPPR0   TYPE_DESC+4,,AUTO
        23 002212   000003 631400 24                 EPPR1   3
        23 002213   000000 701000 xent               TSX1    Z8AF$FORME
        23 002214   000000 011000                    NOP     0

      607    18215
      608    18216         %INIT_LX_ETT_ITEM (@POINTER = RETURN$,
      609    18217                            @REFMOD  = TRUE,
      610    18218                            @ETT$    = VAR$ -> LX_ETT_ITEM.ETT$,
      611    18219                            @TYPE    = TYPE,
      612    18220                            @LINE    = VAR$ -> LX_ETT_ITEM.LINE,
      613    18221                            @COLUMN  = VAR$ -> LX_ETT_ITEM.COLUMN);

  18223 23 002215   200006 470500                    LDP0    @RETURN$,,AUTO
        23 002216   000000 471500                    LDP1    0,,PR0
        23 002217   000004 220003                    LDX0    4,DU
        23 002220   100000 740100                    STX0    0,,PR1

  18224 23 002221   000000 471500                    LDP1    0,,PR0
        23 002222   000000 221003                    LDX1    0,DU
        23 002223   100000 441100                    SXL1    0,,PR1

  18225 23 002224   000000 471500                    LDP1    0,,PR0
        23 002225   200117 235100                    LDA     TYPE,,AUTO
        23 002226   100004 755100                    STA     4,,PR1

  18226 23 002227   000000 471500                    LDP1    0,,PR0
        23 002230   000000 236000 24                 LDQ     0
        23 002231   100007 756100                    STQ     7,,PR1
PL6.E3A0      #002=Z8EY$SUBSTR File=Z8EY.:Z8A6TSI                                SAT 08/09/97 13:00 Page:117

  18227 23 002232   000000 471500                    LDP1    0,,PR0
        23 002233   200106 473500                    LDP3    VAR$,,AUTO
        23 002234   300001 236100                    LDQ     1,,PR3
        23 002235   100001 756100                    STQ     1,,PR1

  18228 23 002236   000000 471500                    LDP1    0,,PR0
        23 002237   000000 236000 24                 LDQ     0
        23 002240   100002 756100                    STQ     2,,PR1

  18230 23 002241   000000 471500                    LDP1    0,,PR0
        23 002242   200106 473500                    LDP3    VAR$,,AUTO
        23 002243   300005 235100                    LDA     5,,PR3
        23 002244   100005 755100                    STA     5,,PR1

  18231 23 002245   000000 471500                    LDP1    0,,PR0
        23 002246   200106 473500                    LDP3    VAR$,,AUTO
        23 002247   300006 235100                    LDA     6,,PR3
        23 002250   100006 755100                    STA     6,,PR1

  18239 23 002251   000000 471500                    LDP1    0,,PR0
        23 002252   010000 236007                    LDQ     4096,DL
        23 002253   100000 256100                    ORSQ    0,,PR1

      614    18243
      615    18244    1     RETURN;

  18244 23 002254   000000 702200 xent               TSX2  ! X66_ARET
      616    18245
      617    18246    1   END Z8EY$SUBSTR;
      618    18247        %EOD;

PL6.E3A0      #002=Z8EY$SUBSTR File=Z8EY.:Z8A6TSI                                SAT 08/09/97 13:00 Page:118
--  Include file information  --

   Z8A_MKCN.:Z8A6TOU  cannot be made into a system file and is referenced.
   Z8E_O1COM.:Z8A6TOU  cannot be made into a system file and is referenced.
   Z8A_LEX_SYMB.:Z8A6TOU  cannot be made into a system file and is referenced.
   Z8E_STACKS.:Z8A6TOU  cannot be made into a system file and is referenced.
   Z8A_LTS.:Z8A6TOU  cannot be made into a system file and is referenced.
   Z8E_NEW_ILL.:Z8A6TOU  is referenced.
   Z8E_MACROS.:Z8A6TOU  cannot be made into a system file and is referenced.
   Z8E_WINDOW.:Z8A6TOU  is referenced.
   Z8A_DNT.:Z8A6TOU  cannot be made into a system file and is referenced.
   Z8A_TYPES.:Z8A6TOU  is referenced.
   Z8A_ST.:Z8A6TOU  cannot be made into a system file and is referenced.
   Z8A_LIBRARY.:Z8A6TOU  cannot be made into a system file and is referenced.
   Z8A_ILS.:Z8A6TOU  cannot be made into a system file and is referenced.
   Z8A_ILL.:Z8A6TOU  cannot be made into a system file and is referenced.
   Z8A_SRCH.:Z8A6TOU  cannot be made into a system file and is referenced.
   Z8A_ETT.:Z8A6TOU  cannot be made into a system file and is referenced.
   Z8A_COMCOM.:Z8A6TOU  cannot be made into a system file and is referenced.
   Z8A_ERR_NUMS.:Z8A6TOU  is referenced.
   X8A_COM_MACS.:X8A6TOU  is referenced.
   Z8A_NAMES.:Z8A6TOU  is referenced.
   Z8A_SUPP_MAC.:Z8A6TOU  is referenced.
   Z9A_FLAGS.:Z8A6TOU  is referenced.
   Z8A_DEFC.:Z8A6TOU  cannot be made into a system file and is referenced.
      No diagnostics issued in procedure Z8EY$SUBSTR.
PL6.E3A0      #002=Z8EY$SUBSTR File=Z8EY.:Z8A6TSI                                SAT 08/09/97 13:00 Page:119

 **** Variables and constants ****

  ****  Section 000 LblCom ITERATION

  ****  Scalars and arrays  ****
OctLoc.c.b A Datatyp(siz) R M Lvl/name                 OctLoc.c.b A Datatyp(siz) R M Lvl/name

     0-0-0/w SBIN              1 ITERATION

  ****  Section 001 LblCom ETT$

  ****  Scalars and arrays  ****
OctLoc.c.b A Datatyp(siz) R M Lvl/name                 OctLoc.c.b A Datatyp(siz) R M Lvl/name

     0-0-0/w PTR         r     1 ETT$

  ****  Section 002 LblCom HEAD_ETT$

  ****  Scalars and arrays  ****
OctLoc.c.b A Datatyp(siz) R M Lvl/name                 OctLoc.c.b A Datatyp(siz) R M Lvl/name

     0-0-0/w PTR               1 HEAD_ETT$

  ****  Section 003 LblCom ETT_BUCKETS

  ****  Scalars and arrays  ****
OctLoc.c.b A Datatyp(siz) R M Lvl/name                 OctLoc.c.b A Datatyp(siz) R M Lvl/name

     0-0-0/w PTR               1 ETT_BUCKETS(0:511)

  ****  Section 004 LblCom ETT_

  ****  Scalars and arrays  ****
OctLoc.c.b A Datatyp(siz) R M Lvl/name                 OctLoc.c.b A Datatyp(siz) R M Lvl/name

     0-0-0/w STRC(180)         1 ETT_

PL6.E3A0      #002=Z8EY$SUBSTR File=Z8EY.:Z8A6TSI                                SAT 08/09/97 13:00 Page:120
  ****  Section 005 LblCom SRCH

  ****  Scalars and arrays  ****
OctLoc.c.b A Datatyp(siz) R M Lvl/name                 OctLoc.c.b A Datatyp(siz) R M Lvl/name

     0-0-0/w STRC(108)         1 SRCH

  ****  Section 006 LblCom ILL$

  ****  Scalars and arrays  ****
OctLoc.c.b A Datatyp(siz) R M Lvl/name                 OctLoc.c.b A Datatyp(siz) R M Lvl/name

     0-0-0/w PTR         r     1 ILL$

  ****  Section 007 LblCom ILL_

  ****  Scalars and arrays  ****
OctLoc.c.b A Datatyp(siz) R M Lvl/name                 OctLoc.c.b A Datatyp(siz) R M Lvl/name

     0-0-0/w STRC(180)         1 ILL_

  ****  Section 008 LblCom ILS$

  ****  Scalars and arrays  ****
OctLoc.c.b A Datatyp(siz) R M Lvl/name                 OctLoc.c.b A Datatyp(siz) R M Lvl/name

     0-0-0/w PTR         r     1 ILS$

  ****  Section 009 LblCom ILS_

  ****  Scalars and arrays  ****
OctLoc.c.b A Datatyp(siz) R M Lvl/name                 OctLoc.c.b A Datatyp(siz) R M Lvl/name

     0-0-0/w STRC(180)         1 ILS_

  ****  Section 010 LblCom ST$

PL6.E3A0      #002=Z8EY$SUBSTR File=Z8EY.:Z8A6TSI                                SAT 08/09/97 13:00 Page:121
  ****  Scalars and arrays  ****
OctLoc.c.b A Datatyp(siz) R M Lvl/name                 OctLoc.c.b A Datatyp(siz) R M Lvl/name

     0-0-0/w PTR         r     1 ST$

  ****  Section 011 LblCom ST_

  ****  Scalars and arrays  ****
OctLoc.c.b A Datatyp(siz) R M Lvl/name                 OctLoc.c.b A Datatyp(siz) R M Lvl/name

     0-0-0/w STRC(180)         1 ST_

  ****  Section 012 LblCom DNT$

  ****  Scalars and arrays  ****
OctLoc.c.b A Datatyp(siz) R M Lvl/name                 OctLoc.c.b A Datatyp(siz) R M Lvl/name

     0-0-0/w PTR         r     1 DNT$

  ****  Section 013 LblCom DNT_

  ****  Scalars and arrays  ****
OctLoc.c.b A Datatyp(siz) R M Lvl/name                 OctLoc.c.b A Datatyp(siz) R M Lvl/name

     0-0-0/w STRC(180)         1 DNT_

  ****  Section 014 LblCom DNT_BUCKET_NUMBER

  ****  Scalars and arrays  ****
OctLoc.c.b A Datatyp(siz) R M Lvl/name                 OctLoc.c.b A Datatyp(siz) R M Lvl/name

     0-0-0/w UBIN              1 DNT_BUCKET_NUMBER

  ****  Section 015 LblCom DNT_OF_1$

  ****  Scalars and arrays  ****
OctLoc.c.b A Datatyp(siz) R M Lvl/name                 OctLoc.c.b A Datatyp(siz) R M Lvl/name
PL6.E3A0      #002=Z8EY$SUBSTR File=Z8EY.:Z8A6TSI                                SAT 08/09/97 13:00 Page:122

     0-0-0/w PTR               1 DNT_OF_1$

  ****  Section 016 LblCom LTS$

  ****  Scalars and arrays  ****
OctLoc.c.b A Datatyp(siz) R M Lvl/name                 OctLoc.c.b A Datatyp(siz) R M Lvl/name

     0-0-0/w PTR               1 LONG_ITEM$                 0-0-0/w PTR         r     1 LTS$

  ****  Section 017 LblCom LTS_

  ****  Scalars and arrays  ****
OctLoc.c.b A Datatyp(siz) R M Lvl/name                 OctLoc.c.b A Datatyp(siz) R M Lvl/name

     0-0-0/w STRC(180)         1 LTS_

  ****  Section 018 LblCom LEX_SYMBOL

  ****  Scalars and arrays  ****
OctLoc.c.b A Datatyp(siz) R M Lvl/name                 OctLoc.c.b A Datatyp(siz) R M Lvl/name

     0-0-0/w STRC(3240)  r     1 LEX_SYMBOL                 0-0-0/w STRC(3240)        1 LEX_SYMBOL_WORDS

  ****  Section 019 LblCom CURRENT_LEX_SYMBOL$

  ****  Scalars and arrays  ****
OctLoc.c.b A Datatyp(siz) R M Lvl/name                 OctLoc.c.b A Datatyp(siz) R M Lvl/name

     0-0-0/w PTR         r     1 CURRENT_LEX_SYMBOL$

  ****  Section 020 LblCom TEMP_LEX_SYMBOL

  ****  Scalars and arrays  ****
OctLoc.c.b A Datatyp(siz) R M Lvl/name                 OctLoc.c.b A Datatyp(siz) R M Lvl/name

     0-0-0/w STRC(3240)        1 TEMP_LEX_SYMBOL
PL6.E3A0      #002=Z8EY$SUBSTR File=Z8EY.:Z8A6TSI                                SAT 08/09/97 13:00 Page:123

  ****  Section 021 LblCom TEMP_LEX_SYMBOL2

  ****  Scalars and arrays  ****
OctLoc.c.b A Datatyp(siz) R M Lvl/name                 OctLoc.c.b A Datatyp(siz) R M Lvl/name

     0-0-0/w STRC(3240)        1 TEMP_LEX_SYMBOL2

  ****  Section 022 LblCom MKCN

  ****  Scalars and arrays  ****
OctLoc.c.b A Datatyp(siz) R M Lvl/name                 OctLoc.c.b A Datatyp(siz) R M Lvl/name

     0-0-0/w STRC(72)    r     1 MKCN

  ****  Auto variables  ****

  ****  Scalars and arrays  ****
OctLoc.c.b A Datatyp(siz) R M Lvl/name                 OctLoc.c.b A Datatyp(siz) R M Lvl/name

   127-0-0/w PTR         r     1 @FISS                    150-0-0/w PTR         r     1 @LENGTH
     5-0-0/w PTR         r     1 @LENGTH$$                136-0-0/w PTR         r     1 @OFF
   135-0-0/w PTR         r     1 @OFF                     126-0-0/w PTR         r     1 @OFF
   136-0-0/w PTR         r     1 @PREV_OFF                  6-0-0/w PTR         r     1 @RETURN$
   151-0-0/w PTR         r     1 @SIZ$                    130-0-0/w PTR         r     1 @SIZ$
   135-0-0/w PTR         r     1 @START$                  137-0-0/w PTR         r     1 @START$
   127-0-0/w PTR         r     1 @START$                    4-0-0/w PTR         r     1 @START$$
   147-0-0/w PTR         r     1 @STRING$                 125-0-0/w PTR         r     1 @STRING$
   141-0-0/w PTR         r     1 @STRING$                 125-0-0/w PTR         r     1 @STRING$
   126-0-0/w PTR         r     1 @STRT_POS$                 3-0-0/w PTR         r     1 @VAR$$
   137-0-0/w PTR         r     1 @VARIABLE_START          140-0-0/w PTR         r     1 @VARIABLE_START
   120-0-0/w SBIN        r     1 BYTE_SIZE                114-0-0/b BIT         r     1 CONV_FLAG
   116-0-0/w SBIN        r     1 FISS                      *0-0-0/w SBIN        r     1 FISS
    32-0-0/d STRC(288)   r     1 LENGTH                    *0-0-0/w SBIN        r     1 LENGTH
   132-0-0/w SBIN        r     1 LENGTH                   144-0-0/w SBIN        r     1 LENGTH
   104-0-0/w PTR         r     1 LENGTH$                   *0-0-0/w PTR         r     1 LENGTH$$
    62-0-0/d STRC(288)   r     1 LENGTH_TIMES_2           122-0-0/w SBIN        r     1 MAXLEN
PL6.E3A0      #002=Z8EY$SUBSTR File=Z8EY.:Z8A6TSI                                SAT 08/09/97 13:00 Page:124
   142-0-0/w SBIN        r     1 MAX_OFF_PRECISION          7-0-0/w STRC(324)         1 NAME
   115-0-0/w SBIN        r     1 OFF                       *0-0-0/w SBIN        r     1 OFF
    *0-0-0/w SBIN        r     1 OFF                       *0-0-0/w SBIN        r     1 OFF
   143-0-0/w PTR         r     1 OFF$                     132-0-0/w PTR         r     1 OFF$
   130-0-0/w STRC(72)          1 OFFSET                    52-0-0/d STRC(288)   r     1 OFFSET_TIMES_2
   123-0-0/w SBIN        r     1 OP                        *0-0-0/w SBIN        r     1 PREV_OFF
    *0-0-0/w PTR         r     1 RETURN$                  121-0-0/b BIT         r     1 SBCHK_FLAG
   112-0-0/w PTR         r     1 SIZ$                      *0-0-0/w PTR         r     1 SIZ$
    *0-0-0/w PTR         r     1 SIZ$                     145-0-0/w PTR         r     1 SIZ$
   131-0-0/w PTR         r     1 ST$$                      20-0-0/w PTR         r     1 START$
    *0-0-0/w PTR         r     1 START$                    *0-0-0/w PTR         r     1 START$
    *0-0-0/w PTR         r     1 START$                    *0-0-0/w PTR         r     1 START$$
    22-0-0/d STRC(288)   r     1 START_POS                105-0-0/w PTR         r     1 STRING$
    *0-0-0/w PTR         r     1 STRING$                   *0-0-0/w PTR         r     1 STRING$
    *0-0-0/w PTR         r     1 STRING$                   *0-0-0/w PTR         r     1 STRING$
   111-0-0/w PTR         r     1 STRING_ST$               107-0-0/w PTR         r     1 STRT_POS$
    *0-0-0/w PTR         r     1 STRT_POS$                 42-0-0/d STRC(288)   r     1 SUBSTR_VAR
   113-0-0/w PTR         r     1 TABLE_ETT$               110-0-0/w PTR         r     1 TEMP$
    72-0-0/d STRC(288)   r     1 TWO                      103-0-0/w PTR         r     1 TWO$
   117-0-0/w SBIN        r     1 TYPE                     152-0-0/w STRC(144)   r     1 TYPE_DESC
   106-0-0/w PTR         r     1 VAR$                      *0-0-0/w PTR         r     1 VAR$$
    *0-0-0/w BIT         r     1 VARIABLE_START            *0-0-0/w BIT         r     1 VARIABLE_START
   133-0-0/b BIT         r     1 VARIABLE_START           102-0-0/w PTR         r     1 VAR_ST$

  ****  SYMREF variables  ****

  ****  Scalars and arrays  ****
OctLoc.c.b A Datatyp(siz) R M Lvl/name                 OctLoc.c.b A Datatyp(siz) R M Lvl/name

     0-0-0/d STRC(13248) r     1 COMCOM
     0-0-0/w STRC(180)         1 HIER_STK(0:50)
     0-0-0/w SBIN              1 HIER_STK_PTR               0-0-0/w UBIN              1 ILL_STEP(0:144)
     0-0-0/w UBIN              1 ILS_STEP_TABLE(0:2)
     0-0-0/w UBIN              1 LTS_STEP(0:37)
     0-0-0/d STRC(11580) r     1 O1COM                      0-0-0/w STRC(144)         1 PAGE_FORMAT
     0-0-0/w STRC(153)         1 REP_STK(0:50)              0-0-0/w SBIN              1 REP_STK_PTR

PL6.E3A0      #002=Z8EY$SUBSTR File=Z8EY.:Z8A6TSI                                SAT 08/09/97 13:00 Page:125
  ****  BASED and DCB variables  ****

  ****  Scalars and arrays  ****
OctLoc.c.b A Datatyp(siz) R M Lvl/name                 OctLoc.c.b A Datatyp(siz) R M Lvl/name

     0-0-0/w STRC(108)         1 ACCEPT_DISPLAY             0-0-0/w STRC(288)         1 ADD_STMT
     0-0-0/w STRC(396)         1 ALPHABET                   0-0-0/w STRC(144)         1 ALTER_LTS
     0-0-0/w STRC(3672)        1 ALT_KEY                    0-0-0/w STRC(36864)       1 ARGLIST
     0-0-0/w STRC(396)         1 ARRAY                      0-0-0/w STRC(180)         1 ARRAY_PRESET_LTS
     0-0-0/w ASTR(324)   r     1 BASED_LEX_SYMBOL
     0-0-0/w STRC(360)         1 BASED_LEX_SYMBOL_WORDS
     0-0-0/w STRC(288)         1 BASE_LTS                   0-0-0/w STRC(108)         1 BINARY_ILL
     0-0-0/w STRC(288)   r     1 BINARY_OP                  0-0-0/w STRC(396)         1 BLOCK
     0-0-0/w STRC(144)         1 BRANCH_ILL                 0-0-0/w STRC(144)         1 BT
     0-0-0/w STRC(288)         1 CALL_STMT                  0-0-0/w STRC(216)         1 CCOSU
     0-0-0/w STRC(396)         1 CD                         0-0-0/w STRC(288)         1 CD_LTS
     0-0-0/w CHAR(4096)        1 CHARS                      0-0-0/w STRC(396)         1 CLASS
     0-0-0/w STRC(108)         1 CODED_MOVE                 0-0-0/w STRC(288)         1 COMPUTE_STMT
     0-0-0/w STRC(396)         1 CONDITION                  0-0-0/w STRC(396)   r     1 CONST
     0-0-0/w STRC(72)          1 CONT                       0-0-0/w STRC(540)         1 CONTROL_NAME_LTS
     0-0-0/w STRC(1872)        1 COPY_FILE                  0-0-0/w STRC(396)         1 DB
     0-0-0/w STRC(396)         1 DCB_                       0-0-0/w STRC(288)         1 DEFERED_IDENTIFIER
     0-0-0/w STRC(252)         1 DEFERED_ID_TREE            0-0-0/w STRC(288)         1 DEFERED_QUAL_ID
     0-0-0/w STRC(288)         1 DEFERED_SUM_CLAUSE
     0-0-0/w STRC(288)         1 DEFERED_SUM_CLAUSE_LIST
     0-0-0/w STRC(144)         1 DEFLB                      0-0-0/w STRC(288)         1 DELETE_STMT
     0-0-0/w STRC(108)         1 DEPENDING_SIZE             0-0-0/w STRC(5472)        1 DIMS
     0-0-0/w STRC(288)         1 DIVIDE_STMT                0-0-0/w STRC(396)         1 DML_ITEM
     0-0-0/w STRC(216)         1 DML_REC                    0-0-0/w ASTR(180)   r     1 DNT
     0-0-0/w STRC(144)         1 DOEND                      0-0-0/w STRC(396)         1 DO_N
     0-0-0/w STRC(180)         1 DV4I                       0-0-0/w STRC(180)         1 ENTRY_ILL
     0-0-0/w STRC(180)   r     1 ETT                        0-0-0/w STRC(108)         1 EVALU
     0-0-0/w STRC(73836)       1 EVALUATE                   0-0-0/w STRC(396)         1 FD
     0-0-0/w STRC(1692)        1 FILE_LTS                   0-0-0/w STRC(144)         1 GO
     0-0-0/w STRC(180)         1 ILL                        0-0-0/w STRC              1 ILL_NO_OPS
     0-0-0/w STRC(180)         1 ILS                        0-0-0/w STRC(288)         1 ILS_LIST
     0-0-0/w STRC(108)         1 INDEXES                    0-0-0/w STRC(360)         1 INIT_LTS
PL6.E3A0      #002=Z8EY$SUBSTR File=Z8EY.:Z8A6TSI                                SAT 08/09/97 13:00 Page:126
     0-0-0/w STRC(288)         1 INSPECT_1_STMT             0-0-0/w STRC(288)         1 INSPECT_2_STMT
     0-0-0/w STRC(288)         1 INSPECT_4_STMT             0-0-0/w STRC(396)         1 INTDEF
     0-0-0/w STRC(180)         1 IO_RESTORE_CHAIN           0-0-0/w STRC(144)         1 KEY
     0-0-0/w STRC(396)         1 LABEL                      0-0-0/w STRC(288)         1 LA_ITEM
     0-0-0/w STRC(36864)       1 LCNST                      0-0-0/w STRC(108)         1 LINOI
     0-0-0/w STRC(72)    r     1 LONG                       0-0-0/w STRC        r     1 LTS
     0-0-0/w STRC(360)   r     1 LTSS                       0-0-0/w STRC(36936)       1 LTS_PTR_ARRAY
     0-0-0/w STRC(504)         1 LX_CD_INPUT                0-0-0/w STRC(324)         1 LX_CD_I_O
     0-0-0/w STRC(396)         1 LX_CD_OUTPUT               0-0-0/w STRC(288)   r     1 LX_ETT_ITEM
     0-0-0/w STRC(288)         1 LX_ITEM                    0-0-0/w STRC(288)         1 LX_LARGE
     0-0-0/w STRC(288)         1 LX_LIST                    0-0-0/w STRC(1224)        1 LX_REC_DECL
     0-0-0/w STRC(864)         1 LX_REPORT_REC              0-0-0/w STRC(288)         1 LX_TERMINAL
     0-0-0/w STRC(72)          1 MFILL                      0-0-0/w STRC(396)         1 MNEMONIC
     0-0-0/w STRC(288)         1 MULTIPLY_STMT              0-0-0/w STRC(180)         1 MULTI_GO
     0-0-0/w STRC(180)         1 MVEAL                      0-0-0/w STRC(108)         1 MVFIL
     0-0-0/w STRC(72)          1 MVIIS                      0-0-0/w STRC(144)         1 NEL
     0-0-0/w STRC(216)         1 OPEN_LTS                   0-0-0/w STRC(144)         1 OPN
     0-0-0/w STRC(180)         1 OS_CALL                    0-0-0/w STRC(36864)       1 PAGE
     0-0-0/w STRC(396)         1 PARA                       0-0-0/w STRC(216)         1 PFORM
     0-0-0/w STRC(144)         1 PINC                       0-0-0/w STRC(144)         1 PREOFF
     0-0-0/w STRC(108)   r     1 PRESET                     0-0-0/w STRC(144)         1 PRIME
     0-0-0/w STRC(396)         1 PROC_                      0-0-0/w STRC(396)         1 PROC_DEF
     0-0-0/w STRC(900)         1 PROC_SUPP                  0-0-0/w STRC(144)         1 P_A_PRESET
     0-0-0/w STRC(144)         1 P_P_PRESET                 0-0-0/w STRC(396)         1 RD
     0-0-0/w STRC(288)         1 READ_STMT                  0-0-0/w STRC(216)         1 REF
     0-0-0/w STRC(144)         1 REMEM                      0-0-0/w STRC(108)         1 RENAMES
     0-0-0/w STRC(720)         1 REPORT_01_LTS              0-0-0/w STRC(432)         1 REPORT_ELEM_LTS
     0-0-0/w STRC(252)         1 REPORT_GRP_LTS             0-0-0/w STRC(1332)        1 REPORT_LTS
     0-0-0/w STRC(288)         1 REWRITE_STMT               0-0-0/w STRC(144)         1 RVA_LTS
     0-0-0/w STRC(396)   r     1 SCALAR                     0-0-0/w STRC(144)         1 SCOPE
     0-0-0/w STRC(396)         1 SD                         0-0-0/w STRC(216)         1 SEARCH_
     0-0-0/w STRC(396)         1 SECTION                    0-0-0/w STRC(396)         1 SEGMENT
     0-0-0/w STRC(360)         1 SEGMENT_LTS                0-0-0/w STRC(396)         1 ST
     0-0-0/w STRC(288)         1 START_STMT                 0-0-0/w STRC(72)          1 STP2
     0-0-0/w STRC(252)         1 STRING_STMT                0-0-0/w STRC(288)         1 SUBTRACT_STMT
     0-0-0/w STRC(252)         1 SUM_LTS                    0-0-0/w STRC(396)         1 SWITCH
     0-0-0/w STRC(396)         1 SYMBOLIC_CHAR              0-0-0/w STRC(396)         1 SYMDEF_
PL6.E3A0      #002=Z8EY$SUBSTR File=Z8EY.:Z8A6TSI                                SAT 08/09/97 13:00 Page:127
     0-0-0/w STRC(396)         1 SYMREF_                    0-0-0/w STRC(396)         1 TEMP
     0-0-0/w STRC(144)         1 TRINARY_ILL                0-0-0/w STRC(72)          1 UNARY_ILL
     0-0-0/w STRC(288)         1 UNARY_OP                   0-0-0/w STRC(288)         1 UNSTRING_STMT
     0-0-0/d STRC(612)         1 USE                        0-0-0/w STRC(216)         1 USER_CALL
     0-0-0/w STRC(252)         1 USE_SUPP                   0-0-0/w STRC(108)         1 VAL
     0-0-0/w STRC(108)         1 VAL_END                    0-0-0/w STRC(396)   r     1 VARIABLE
     0-0-0/w STRC(72)          1 WHEN                       0-0-0/w STRC(288)         1 WRITE_STMT


   Procedure Z8EY$SUBSTR requires 1197 words for executable code.
   Procedure Z8EY$SUBSTR requires 116 words of local(AUTO) storage.

