PL6.E3A0      #003=Z8EZ$SEARCH File=Z8EZ.:Z8A6TSI                                SAT 08/09/97 13:07 Page:437
     2773        1        /*T***********************************************************/
     2774        2        /*T*                                                         */
     2775        3        /*T* Copyright (c) Bull HN Information Systems Inc., 1997    */
     2776        4        /*T*                                                         */
     2777        5        /*T***********************************************************/
     2778        6
     2779        7        Z8EZ$SEARCH: PROC (POSITION$, TABLEVAL$, TABLE$, CLUE$, ALTRET$) ;
     2780        8
     2781        9        /*D*   NAME: Z8EZ$SEARCH
     2782       10
     2783       11        DESCRIPTION: SEE PL/6 SEARCH BUILTIN.
     2784       12        */
     2785       13
     2786       14        %SET PHASE = 1 ;
     2787       15        %INCLUDE Z8A_DEFC ;
     2788       83        %INCLUDE Z8A_SUPP_MAC ;
     2789     2483        %INCLUDE Z8A_TYPES ;
     2790     2657        %INCLUDE Z8E_MACROS ;
     2791     3332        %INCLUDE Z8A_ILL ;
     2792     4025        %INCLUDE Z8A_ST ;
     2793     7684        %INCLUDE Z8E_STACKS ;
     2794     9950        %INCLUDE Z8E_O1COM ;
     2795    10711
     2796    10712    1   DCL  POSITION$         PTR ; /* OUTPUT ARG */
     2797    10713    1   DCL  TABLEVAL$         PTR ; /* OUTPUT ARG */
     2798    10714    1   DCL  TABLE$            PTR ; /* INPUT ARG */
     2799    10715    1   DCL  CLUE$             PTR ; /* INPUT ARG */
     2800    10716    1   DCL  ALTRET$           PTR ; /* OUTPUT ARG */
     2801    10717
     2802    10718    2        IF TABLEVAL$ = ADDR(NIL) THEN DO ;
     2803    10719               %NEW_ILL (@ID  = %SEARCH,
     2804    10720                         @LOP = CLUE$ -> LX_ETT_ITEM.ETT$,
     2805    10721                         @ROP = TABLE$ -> LX_ETT_ITEM.ETT$,
     2806    10722                         @TO  = POSITION$ -> LX_ETT_ITEM.ETT$,
     2807    10723                         @ALTRET = ALTRET$) ;
     2808    11102    2        END ;
     2809    11103    2        ELSE DO ;
PL6.E3A0      #003=Z8EZ$SEARCH File=Z8EZ.:Z8A6TSI                                SAT 08/09/97 13:07 Page:438
     2810    11104               %NEW_ILL (@ID = %SEARCH,
     2811    11105                         @LOP = CLUE$ -> LX_ETT_ITEM.ETT$,
     2812    11106                         @ROP = TABLE$ -> LX_ETT_ITEM.ETT$,
     2813    11107                         @TO  = POSITION$ -> LX_ETT_ITEM.ETT$,
     2814    11108                         @TABLEVAL = TABLEVAL$ -> LX_ETT_ITEM.ETT$,
     2815    11109                         @ALTRET = ALTRET$) ;
     2816    11488    2          TABLEVAL$ -> LX_ETT_ITEM.TYPE = %TYA ;
     2817    11489    2        END ;
     2818    11490
     2819    11491    1        POSITION$ -> LX_ETT_ITEM.TYPE = %TYI ;
     2820    11492
     2821    11493    2        IF ALTRET$ ~= ADDR(NIL) THEN DO ;
     2822    11494    2          ALTRET$ -> PARA.B.REFERENCED = '1'B ;
     2823    11495    2        END ;
     2824    11496
     2825    11497    1   END Z8EZ$SEARCH ;
     2826    11498        %EOD;

PL6.E3A0      #003=Z8EZ$SEARCH File=Z8EZ.:Z8A6TSI                                SAT 08/09/97 13:07 Page:439
--  Include file information  --

   Z8E_O1COM.:Z8A6TOU  cannot be made into a system file and is referenced.
   Z8A_LEX_SYMB.:Z8A6TOU  cannot be made into a system file and is referenced.
   Z8E_STACKS.:Z8A6TOU  cannot be made into a system file and is referenced.
   Z8A_ST.:Z8A6TOU  cannot be made into a system file and is referenced.
   Z8A_ILL.:Z8A6TOU  cannot be made into a system file and is referenced.
   Z8E_NEW_ILL.:Z8A6TOU  is referenced.
   Z8E_MACROS.:Z8A6TOU  cannot be made into a system file and is referenced.
   Z8A_TYPES.:Z8A6TOU  is referenced.
   X8A_COM_MACS.:X8A6TOU  is referenced.
   Z8A_NAMES.:Z8A6TOU  is referenced.
   Z8A_SUPP_MAC.:Z8A6TOU  is referenced.
   Z8A_DEFC.:Z8A6TOU  cannot be made into a system file and is referenced.
      No diagnostics issued in procedure Z8EZ$SEARCH.

   Procedure Z8EZ$SEARCH requires 94 words for executable code.
   Procedure Z8EZ$SEARCH requires 16 words of local(AUTO) storage.

PL6.E3A0      #003=Z8EZ$SEARCH File=Z8EZ.:Z8A6TSI                                SAT 08/09/97 13:07 Page:440

 Object Unit name= Z8EZ$SEARCH                                File name= Z8EZ.:Z8A6TOU
 UTS= AUG 09 '97 13:07:57.68 SAT                              Compiler= PL-6/E31         Sev=      00
 SharedLib= :SHARED_SYSTEM                                    Alt SharedLib=


    ****  Control sections  ****

 Sect   Type Bound  Init  Size OctSiz  Section name(segment info)
    0  LblCom even  none     1      1  ITERATION
    1  LblCom even  none     1      1  ILL$
    2  LblCom even  none     5      5  ILL_
    3  LblCom even  none     1      1  ST$
    4  LblCom even  none     5      5  ST_
    5  LblCom even  none    90    132  LEX_SYMBOL
    6  LblCom even  none     1      1  CURRENT_LEX_SYMBOL$
    7  LblCom even  none    90    132  TEMP_LEX_SYMBOL
    8  LblCom even  none    90    132  TEMP_LEX_SYMBOL2
    9   Proc  even  none    94    136  Z8EZ$SEARCH
   10  RoData even  none    14     16  Z8EZ$SEARCH

    ****  Entry defs  ****

                              Check   Calling
                             calling  sequence
  Sect OctLoc Primary Altret sequence   type   Parms  Name
     9      0   yes            yes      Std        5  Z8EZ$SEARCH

  ****  Entry refs  ****

         Check        Calling
        calling       sequence
Altret sequence SRef   type   Args  Name
         yes           Std       5 Z8AN$NEW_ILL1
         yes           Std       6 Z8AN$NEW_ILL2
                       nStd      0 X66_AUTO_5
                       nStd      0 X66_ARET
PL6.E3A0      #003=Z8EZ$SEARCH File=Z8EZ.:Z8A6TSI                                SAT 08/09/97 13:07 Page:441

  ****  Data refs  ****

  Flags:  r = read only, s = secondary
Flgs Name                             Flgs Name                             Flgs Name
r    ILL_STEP                              O1COM                                 HIER_STK_PTR
     HIER_STK                              PAGE_FORMAT                           REP_STK_PTR
     REP_STK

  ****  Segment refs  ****

  Flags:  r = read only, s = secondary
Flgs Name                             Flgs Name                             Flgs Name
     NULLSID                               ISSID
PL6.E3A0      #003=Z8EZ$SEARCH File=Z8EZ.:Z8A6TSI                                SAT 08/09/97 13:07 Page:442


     2773        1        /*T***********************************************************/
     2774        2        /*T*                                                         */
     2775        3        /*T* Copyright (c) Bull HN Information Systems Inc., 1997    */
     2776        4        /*T*                                                         */
     2777        5        /*T***********************************************************/
     2778        6
     2779        7        Z8EZ$SEARCH: PROC (POSITION$, TABLEVAL$, TABLE$, CLUE$, ALTRET$) ;

      7  9 000000   000000 700200 xent  Z8EZ$SEARCH  TSX0  ! X66_AUTO_5
         9 000001   000020 000005                    ZERO    16,5

     2780        8
     2781        9        /*D*   NAME: Z8EZ$SEARCH
     2782       10
     2783       11        DESCRIPTION: SEE PL/6 SEARCH BUILTIN.
     2784       12        */
     2785       13
     2786       14        %SET PHASE = 1 ;
     2787       15        %INCLUDE Z8A_DEFC ;
     2788       83        %INCLUDE Z8A_SUPP_MAC ;
     2789     2483        %INCLUDE Z8A_TYPES ;
     2790     2657        %INCLUDE Z8E_MACROS ;
     2791     3332        %INCLUDE Z8A_ILL ;
     2792     4025        %INCLUDE Z8A_ST ;
     2793     7684        %INCLUDE Z8E_STACKS ;
     2794     9950        %INCLUDE Z8E_O1COM ;
     2795    10711
     2796    10712    1   DCL  POSITION$         PTR ; /* OUTPUT ARG */
     2797    10713    1   DCL  TABLEVAL$         PTR ; /* OUTPUT ARG */
     2798    10714    1   DCL  TABLE$            PTR ; /* INPUT ARG */
     2799    10715    1   DCL  CLUE$             PTR ; /* INPUT ARG */
     2800    10716    1   DCL  ALTRET$           PTR ; /* OUTPUT ARG */
     2801    10717
     2802    10718    2        IF TABLEVAL$ = ADDR(NIL) THEN DO ;

  10718  9 000002   200004 470500                    LDP0    @TABLEVAL$,,AUTO
PL6.E3A0      #003=Z8EZ$SEARCH File=Z8EZ.:Z8A6TSI                                SAT 08/09/97 13:07 Page:443
         9 000003   000000 236100                    LDQ     0,,PR0
         9 000004   000000 116000 10                 CMPQ    0
         9 000005   000051 601000 9                  TNZ     s:11396

     2803    10719               %NEW_ILL (@ID  = %SEARCH,
     2804    10720                         @LOP = CLUE$ -> LX_ETT_ITEM.ETT$,
     2805    10721                         @ROP = TABLE$ -> LX_ETT_ITEM.ETT$,
     2806    10722                         @TO  = POSITION$ -> LX_ETT_ITEM.ETT$,
     2807    10723                         @ALTRET = ALTRET$) ;

  11007  9 000006   200003 471500                    LDP1    @POSITION$,,AUTO
         9 000007   100000 473500                    LDP3    0,,PR1
         9 000010   000004 236000 10                 LDQ     4
         9 000011   200010 756100                    STQ     @ALTRET$+1,,AUTO
         9 000012   300001 634500                    EPPR4   1,,PR3
         9 000013   200015 454500                    STP4    @ALTRET$+6,,AUTO
         9 000014   200010 633500                    EPPR3   @ALTRET$+1,,AUTO
         9 000015   200014 453500                    STP3    @ALTRET$+5,,AUTO
         9 000016   000006 237000 10                 LDAQ    6
         9 000017   200012 757100                    STAQ    @ALTRET$+3,,AUTO
         9 000020   000010 236000 10                 LDQ     8
         9 000021   200011 756100                    STQ     @ALTRET$+2,,AUTO
         9 000022   200011 630500                    EPPR0   @ALTRET$+2,,AUTO
         9 000023   000001 631400 10                 EPPR1   1
         9 000024   000000 701000 xent               TSX1    Z8AN$NEW_ILL1
         9 000025   000000 011000                    NOP     0

  11013  9 000026   200006 470500                    LDP0    @CLUE$,,AUTO
         9 000027   000000 471500                    LDP1    0,,PR0
         9 000030   100001 236100                    LDQ     1,,PR1
         9 000031   000000 473400 1                  LDP3    ILL$
         9 000032   300001 756100                    STQ     1,,PR3

  11014  9 000033   200005 471500                    LDP1    @TABLE$,,AUTO
         9 000034   100000 474500                    LDP4    0,,PR1
         9 000035   400001 236100                    LDQ     1,,PR4
         9 000036   300002 756100                    STQ     2,,PR3
PL6.E3A0      #003=Z8EZ$SEARCH File=Z8EZ.:Z8A6TSI                                SAT 08/09/97 13:07 Page:444

  11015  9 000037   200003 474500                    LDP4    @POSITION$,,AUTO
         9 000040   400000 475500                    LDP5    0,,PR4
         9 000041   500001 236100                    LDQ     1,,PR5
         9 000042   300003 756100                    STQ     3,,PR3

  11017  9 000043   000000 236000 10                 LDQ     0
         9 000044   300004 756100                    STQ     4,,PR3

  11024  9 000045   200007 475500                    LDP5    @ALTRET$,,AUTO
         9 000046   500000 236100                    LDQ     0,,PR5
         9 000047   300005 756100                    STQ     5,,PR3

     2808    11102    2        END ;

  11102  9 000050   000123 710000 9                  TRA     s:11491

     2809    11103    2        ELSE DO ;

     2810    11104               %NEW_ILL (@ID = %SEARCH,
     2811    11105                         @LOP = CLUE$ -> LX_ETT_ITEM.ETT$,
     2812    11106                         @ROP = TABLE$ -> LX_ETT_ITEM.ETT$,
     2813    11107                         @TO  = POSITION$ -> LX_ETT_ITEM.ETT$,
     2814    11108                         @TABLEVAL = TABLEVAL$ -> LX_ETT_ITEM.ETT$,
     2815    11109                         @ALTRET = ALTRET$) ;

  11396  9 000051   200003 471500                    LDP1    @POSITION$,,AUTO
         9 000052   100000 473500                    LDP3    0,,PR1
         9 000053   000000 474500                    LDP4    0,,PR0
         9 000054   000004 236000 10                 LDQ     4
         9 000055   200010 756100                    STQ     @ALTRET$+1,,AUTO
         9 000056   400001 635500                    EPPR5   1,,PR4
         9 000057   200017 455500                    STP5    @ALTRET$+8,,AUTO
         9 000060   300001 634500                    EPPR4   1,,PR3
         9 000061   200016 454500                    STP4    @ALTRET$+7,,AUTO
         9 000062   200010 633500                    EPPR3   @ALTRET$+1,,AUTO
         9 000063   200015 453500                    STP3    @ALTRET$+6,,AUTO
PL6.E3A0      #003=Z8EZ$SEARCH File=Z8EZ.:Z8A6TSI                                SAT 08/09/97 13:07 Page:445
         9 000064   000007 236000 10                 LDQ     7
         9 000065   200014 756100                    STQ     @ALTRET$+5,,AUTO
         9 000066   000014 237000 10                 LDAQ    12
         9 000067   200012 757100                    STAQ    @ALTRET$+3,,AUTO
         9 000070   200012 630500                    EPPR0   @ALTRET$+3,,AUTO
         9 000071   000011 631400 10                 EPPR1   9
         9 000072   000000 701000 xent               TSX1    Z8AN$NEW_ILL2
         9 000073   000000 011000                    NOP     0

  11399  9 000074   200006 470500                    LDP0    @CLUE$,,AUTO
         9 000075   000000 471500                    LDP1    0,,PR0
         9 000076   100001 236100                    LDQ     1,,PR1
         9 000077   000000 473400 1                  LDP3    ILL$
         9 000100   300001 756100                    STQ     1,,PR3

  11400  9 000101   200005 471500                    LDP1    @TABLE$,,AUTO
         9 000102   100000 474500                    LDP4    0,,PR1
         9 000103   400001 236100                    LDQ     1,,PR4
         9 000104   300002 756100                    STQ     2,,PR3

  11401  9 000105   200003 474500                    LDP4    @POSITION$,,AUTO
         9 000106   400000 475500                    LDP5    0,,PR4
         9 000107   500001 236100                    LDQ     1,,PR5
         9 000110   300003 756100                    STQ     3,,PR3

  11405  9 000111   200004 475500                    LDP5    @TABLEVAL$,,AUTO
         9 000112   500000 476500                    LDP6    0,,PR5
         9 000113   600001 236100                    LDQ     1,,PR6
         9 000114   300004 756100                    STQ     4,,PR3

  11410  9 000115   200007 476500                    LDP6    @ALTRET$,,AUTO
         9 000116   600000 236100                    LDQ     0,,PR6
         9 000117   300005 756100                    STQ     5,,PR3

     2816    11488    2          TABLEVAL$ -> LX_ETT_ITEM.TYPE = %TYA ;

  11488  9 000120   500000 477500                    LDP7    0,,PR5
PL6.E3A0      #003=Z8EZ$SEARCH File=Z8EZ.:Z8A6TSI                                SAT 08/09/97 13:07 Page:446
         9 000121   000010 235007                    LDA     8,DL
         9 000122   700004 755100                    STA     4,,PR7

     2817    11489    2        END ;

     2818    11490
     2819    11491    1        POSITION$ -> LX_ETT_ITEM.TYPE = %TYI ;

  11491  9 000123   400000 475500                    LDP5    0,,PR4
         9 000124   000001 235007                    LDA     1,DL
         9 000125   500004 755100                    STA     4,,PR5

     2820    11492
     2821    11493    2        IF ALTRET$ ~= ADDR(NIL) THEN DO ;

  11493  9 000126   200007 475500                    LDP5    @ALTRET$,,AUTO
         9 000127   500000 236100                    LDQ     0,,PR5
         9 000130   000000 116000 10                 CMPQ    0
         9 000131   000135 600000 9                  TZE     s:11497

     2822    11494    2          ALTRET$ -> PARA.B.REFERENCED = '1'B ;

  11494  9 000132   500000 476500                    LDP6    0,,PR5
         9 000133   400000 236003                    LDQ     -131072,DU
         9 000134   600003 256100                    ORSQ    3,,PR6

     2823    11495    2        END ;

     2824    11496
     2825    11497    1   END Z8EZ$SEARCH ;

  11497  9 000135   000000 702200 xent               TSX2  ! X66_ARET
     2826    11498        %EOD;

PL6.E3A0      #003=Z8EZ$SEARCH File=Z8EZ.:Z8A6TSI                                SAT 08/09/97 13:07 Page:447
--  Include file information  --

   Z8E_O1COM.:Z8A6TOU  cannot be made into a system file and is referenced.
   Z8A_LEX_SYMB.:Z8A6TOU  cannot be made into a system file and is referenced.
   Z8E_STACKS.:Z8A6TOU  cannot be made into a system file and is referenced.
   Z8A_ST.:Z8A6TOU  cannot be made into a system file and is referenced.
   Z8A_ILL.:Z8A6TOU  cannot be made into a system file and is referenced.
   Z8E_NEW_ILL.:Z8A6TOU  is referenced.
   Z8E_MACROS.:Z8A6TOU  cannot be made into a system file and is referenced.
   Z8A_TYPES.:Z8A6TOU  is referenced.
   X8A_COM_MACS.:X8A6TOU  is referenced.
   Z8A_NAMES.:Z8A6TOU  is referenced.
   Z8A_SUPP_MAC.:Z8A6TOU  is referenced.
   Z8A_DEFC.:Z8A6TOU  cannot be made into a system file and is referenced.
      No diagnostics issued in procedure Z8EZ$SEARCH.
PL6.E3A0      #003=Z8EZ$SEARCH File=Z8EZ.:Z8A6TSI                                SAT 08/09/97 13:07 Page:448

 **** Variables and constants ****

  ****  Section 000 LblCom ITERATION

  ****  Scalars and arrays  ****
OctLoc.c.b A Datatyp(siz) R M Lvl/name                 OctLoc.c.b A Datatyp(siz) R M Lvl/name

     0-0-0/w SBIN              1 ITERATION

  ****  Section 001 LblCom ILL$

  ****  Scalars and arrays  ****
OctLoc.c.b A Datatyp(siz) R M Lvl/name                 OctLoc.c.b A Datatyp(siz) R M Lvl/name

     0-0-0/w PTR         r     1 ILL$

  ****  Section 002 LblCom ILL_

  ****  Scalars and arrays  ****
OctLoc.c.b A Datatyp(siz) R M Lvl/name                 OctLoc.c.b A Datatyp(siz) R M Lvl/name

     0-0-0/w STRC(180)         1 ILL_

  ****  Section 003 LblCom ST$

  ****  Scalars and arrays  ****
OctLoc.c.b A Datatyp(siz) R M Lvl/name                 OctLoc.c.b A Datatyp(siz) R M Lvl/name

     0-0-0/w PTR         r     1 ST$

  ****  Section 004 LblCom ST_

  ****  Scalars and arrays  ****
OctLoc.c.b A Datatyp(siz) R M Lvl/name                 OctLoc.c.b A Datatyp(siz) R M Lvl/name

     0-0-0/w STRC(180)         1 ST_

PL6.E3A0      #003=Z8EZ$SEARCH File=Z8EZ.:Z8A6TSI                                SAT 08/09/97 13:07 Page:449
  ****  Section 005 LblCom LEX_SYMBOL

  ****  Scalars and arrays  ****
OctLoc.c.b A Datatyp(siz) R M Lvl/name                 OctLoc.c.b A Datatyp(siz) R M Lvl/name

     0-0-0/w STRC(3240)  r     1 LEX_SYMBOL                 0-0-0/w STRC(3240)        1 LEX_SYMBOL_WORDS

  ****  Section 006 LblCom CURRENT_LEX_SYMBOL$

  ****  Scalars and arrays  ****
OctLoc.c.b A Datatyp(siz) R M Lvl/name                 OctLoc.c.b A Datatyp(siz) R M Lvl/name

     0-0-0/w PTR         r     1 CURRENT_LEX_SYMBOL$

  ****  Section 007 LblCom TEMP_LEX_SYMBOL

  ****  Scalars and arrays  ****
OctLoc.c.b A Datatyp(siz) R M Lvl/name                 OctLoc.c.b A Datatyp(siz) R M Lvl/name

     0-0-0/w STRC(3240)        1 TEMP_LEX_SYMBOL

  ****  Section 008 LblCom TEMP_LEX_SYMBOL2

  ****  Scalars and arrays  ****
OctLoc.c.b A Datatyp(siz) R M Lvl/name                 OctLoc.c.b A Datatyp(siz) R M Lvl/name

     0-0-0/w STRC(3240)        1 TEMP_LEX_SYMBOL2

  ****  Auto variables  ****

  ****  Scalars and arrays  ****
OctLoc.c.b A Datatyp(siz) R M Lvl/name                 OctLoc.c.b A Datatyp(siz) R M Lvl/name

     7-0-0/w PTR         r     1 @ALTRET$                   6-0-0/w PTR         r     1 @CLUE$
     3-0-0/w PTR         r     1 @POSITION$                 5-0-0/w PTR         r     1 @TABLE$
     4-0-0/w PTR         r     1 @TABLEVAL$                *0-0-0/w PTR         r     1 ALTRET$
    *0-0-0/w PTR         r     1 CLUE$                     *0-0-0/w PTR         r     1 POSITION$
PL6.E3A0      #003=Z8EZ$SEARCH File=Z8EZ.:Z8A6TSI                                SAT 08/09/97 13:07 Page:450
    *0-0-0/w PTR         r     1 TABLE$                    *0-0-0/w PTR         r     1 TABLEVAL$

  ****  SYMREF variables  ****

  ****  Scalars and arrays  ****
OctLoc.c.b A Datatyp(siz) R M Lvl/name                 OctLoc.c.b A Datatyp(siz) R M Lvl/name

     0-0-0/w STRC(180)         1 HIER_STK(0:50)
     0-0-0/w SBIN              1 HIER_STK_PTR               0-0-0/w UBIN              1 ILL_STEP(0:144)
     0-0-0/d STRC(11580) r     1 O1COM                      0-0-0/w STRC(144)         1 PAGE_FORMAT
     0-0-0/w STRC(153)         1 REP_STK(0:50)              0-0-0/w SBIN              1 REP_STK_PTR

  ****  BASED and DCB variables  ****

  ****  Scalars and arrays  ****
OctLoc.c.b A Datatyp(siz) R M Lvl/name                 OctLoc.c.b A Datatyp(siz) R M Lvl/name

     0-0-0/w STRC(108)         1 ACCEPT_DISPLAY             0-0-0/w STRC(288)         1 ADD_STMT
     0-0-0/w STRC(396)         1 ALPHABET                   0-0-0/w STRC(396)         1 ARRAY
     0-0-0/w ASTR(324)   r     1 BASED_LEX_SYMBOL
     0-0-0/w STRC(360)         1 BASED_LEX_SYMBOL_WORDS
     0-0-0/w STRC(108)         1 BINARY_ILL                 0-0-0/w STRC(288)         1 BINARY_OP
     0-0-0/w STRC(396)         1 BLOCK                      0-0-0/w STRC(144)         1 BRANCH_ILL
     0-0-0/w STRC(288)         1 CALL_STMT                  0-0-0/w STRC(216)         1 CCOSU
     0-0-0/w STRC(396)         1 CD                         0-0-0/w CHAR(4096)        1 CHARS
     0-0-0/w STRC(396)         1 CLASS                      0-0-0/w STRC(108)         1 CODED_MOVE
     0-0-0/w STRC(288)         1 COMPUTE_STMT               0-0-0/w STRC(396)         1 CONDITION
     0-0-0/w STRC(396)         1 CONST                      0-0-0/w STRC(72)          1 CONT
     0-0-0/w STRC(396)         1 DB                         0-0-0/w STRC(396)         1 DCB_
     0-0-0/w STRC(288)         1 DEFERED_IDENTIFIER         0-0-0/w STRC(252)         1 DEFERED_ID_TREE
     0-0-0/w STRC(288)         1 DEFERED_QUAL_ID            0-0-0/w STRC(288)         1 DEFERED_SUM_CLAUSE
     0-0-0/w STRC(288)         1 DEFERED_SUM_CLAUSE_LIST
     0-0-0/w STRC(144)         1 DEFLB                      0-0-0/w STRC(288)         1 DELETE_STMT
     0-0-0/w STRC(288)         1 DIVIDE_STMT                0-0-0/w STRC(396)         1 DML_ITEM
     0-0-0/w STRC(144)         1 DOEND                      0-0-0/w STRC(396)         1 DO_N
     0-0-0/w STRC(180)         1 DV4I                       0-0-0/w STRC(180)         1 ENTRY_ILL
     0-0-0/w STRC(108)         1 EVALU                      0-0-0/w STRC(396)         1 FD
PL6.E3A0      #003=Z8EZ$SEARCH File=Z8EZ.:Z8A6TSI                                SAT 08/09/97 13:07 Page:451
     0-0-0/w STRC(144)         1 GO                         0-0-0/w STRC(180)         1 ILL
     0-0-0/w STRC              1 ILL_NO_OPS                 0-0-0/w STRC(288)         1 ILS_LIST
     0-0-0/w STRC(288)         1 INSPECT_1_STMT             0-0-0/w STRC(288)         1 INSPECT_2_STMT
     0-0-0/w STRC(288)         1 INSPECT_4_STMT             0-0-0/w STRC(396)         1 INTDEF
     0-0-0/w STRC(396)         1 LABEL                      0-0-0/w STRC(288)         1 LA_ITEM
     0-0-0/w STRC(108)         1 LINOI                      0-0-0/w STRC(504)         1 LX_CD_INPUT
     0-0-0/w STRC(324)         1 LX_CD_I_O                  0-0-0/w STRC(396)         1 LX_CD_OUTPUT
     0-0-0/w STRC(288)   r     1 LX_ETT_ITEM                0-0-0/w STRC(288)         1 LX_ITEM
     0-0-0/w STRC(288)         1 LX_LARGE                   0-0-0/w STRC(288)         1 LX_LIST
     0-0-0/w STRC(1224)        1 LX_REC_DECL                0-0-0/w STRC(864)         1 LX_REPORT_REC
     0-0-0/w STRC(288)         1 LX_TERMINAL                0-0-0/w STRC(72)          1 MFILL
     0-0-0/w STRC(396)         1 MNEMONIC                   0-0-0/w STRC(288)         1 MULTIPLY_STMT
     0-0-0/w STRC(180)         1 MULTI_GO                   0-0-0/w STRC(180)         1 MVEAL
     0-0-0/w STRC(108)         1 MVFIL                      0-0-0/w STRC(72)          1 MVIIS
     0-0-0/w STRC(180)         1 OS_CALL                    0-0-0/w STRC(36864)       1 PAGE
     0-0-0/w STRC(396)   r     1 PARA                       0-0-0/w STRC(216)         1 PFORM
     0-0-0/w STRC(144)         1 PINC                       0-0-0/w STRC(144)         1 PREOFF
     0-0-0/w STRC(108)         1 PRESET                     0-0-0/w STRC(396)         1 PROC_
     0-0-0/w STRC(396)         1 PROC_DEF                   0-0-0/w STRC(144)         1 P_A_PRESET
     0-0-0/w STRC(144)         1 P_P_PRESET                 0-0-0/w STRC(396)         1 RD
     0-0-0/w STRC(288)         1 READ_STMT                  0-0-0/w STRC(144)         1 REMEM
     0-0-0/w STRC(288)         1 REWRITE_STMT               0-0-0/w STRC(396)         1 SCALAR
     0-0-0/w STRC(144)         1 SCOPE                      0-0-0/w STRC(396)         1 SD
     0-0-0/w STRC(216)   r     1 SEARCH_                    0-0-0/w STRC(396)         1 SECTION
     0-0-0/w STRC(396)         1 SEGMENT                    0-0-0/w STRC(396)         1 ST
     0-0-0/w STRC(288)         1 START_STMT                 0-0-0/w STRC(72)          1 STP2
     0-0-0/w STRC(252)         1 STRING_STMT                0-0-0/w STRC(288)         1 SUBTRACT_STMT
     0-0-0/w STRC(396)         1 SWITCH                     0-0-0/w STRC(396)         1 SYMBOLIC_CHAR
     0-0-0/w STRC(396)         1 SYMDEF_                    0-0-0/w STRC(396)         1 SYMREF_
     0-0-0/w STRC(396)         1 TEMP                       0-0-0/w STRC(144)         1 TRINARY_ILL
     0-0-0/w STRC(72)          1 UNARY_ILL                  0-0-0/w STRC(288)         1 UNARY_OP
     0-0-0/w STRC(288)         1 UNSTRING_STMT              0-0-0/w STRC(216)         1 USER_CALL
     0-0-0/w STRC(108)         1 VAL                        0-0-0/w STRC(108)         1 VAL_END
     0-0-0/w STRC(396)         1 VARIABLE                   0-0-0/w STRC(72)          1 WHEN
     0-0-0/w STRC(288)         1 WRITE_STMT

PL6.E3A0      #003=Z8EZ$SEARCH File=Z8EZ.:Z8A6TSI                                SAT 08/09/97 13:07 Page:452

   Procedure Z8EZ$SEARCH requires 94 words for executable code.
   Procedure Z8EZ$SEARCH requires 16 words of local(AUTO) storage.

PL6.E3A0      #004=Z8EZ$VALUES File=Z8EZ.:Z8A6TSI                                SAT 08/09/97 13:09 Page:453
     2827        1        /*T***********************************************************/
     2828        2        /*T*                                                         */
     2829        3        /*T* Copyright (c) Bull HN Information Systems Inc., 1997    */
     2830        4        /*T*                                                         */
     2831        5        /*T***********************************************************/
     2832        6        Z8EZ$VALUES:PROC(ITEM$, VALUE);
     2833        7
     2834        8    1        DCL ITEM$        PTR;
     2835        9    1        DCL VALUE        SBIN WORD;
     2836       10
     2837       11
     2838       12             %EQU PHASE = 0;
     2839       13             %INCLUDE Z8A_DEFC;
     2840       81             %INCLUDE Z8A_SUPP_MAC;
     2841     2481             %INCLUDE Z8A_TYPES;
     2842     2655             %INCLUDE Z8A_DESC;
     2843     2701             %INCLUDE Z8A_ST;
     2844     6360
     2845     6361    1        DCL Z8AU$TYPE_DESCRIPTOR                     ENTRY(2);
     2846     6362
     2847     6363    1        DCL I           SBIN WORD;
     2848     6364
     2849     6365    1        DCL 1 TYPE_DESC ALIGNED,
     2850     6366                   %TYPE_DESC;
     2851     6400
     2852     6401             %EQU  MAX_SBIN = 34359738367 ; /* 34,359,738,367 = 2^35 - 1 */
     2853     6402             %EQU  MAX_SD10 = 3435973836  ; /*  3,435,973,836 = 2^35 / 10 */
     2854     6403
     2855     6404        %EJECT;
PL6.E3A0      #004=Z8EZ$VALUES File=Z8EZ.:Z8A6TSI                                SAT 08/09/97 13:09 Page:454
     2856     6405    1   Z8EZ$MAX_VALUE:ENTRY(ITEM$, VALUE);
     2857     6406
     2858     6407    1        CALL Z8AU$TYPE_DESCRIPTOR(ITEM$, TYPE_DESC);
     2859     6408
     2860     6409    2        DO CASE(TYPE_DESC.TYPE);
     2861     6410    2          CASE(%TYI);
     2862     6411    2            VALUE = %MAX_SBIN;
     2863     6412
     2864     6413    2          CASE(%TYH);
     2865     6414    2            VALUE = 131071;
     2866     6415
     2867     6416    2          CASE(%TYK);
     2868     6417    2            VALUE = 2147483647;
     2869     6418
     2870     6419    2          CASE(%TYJ);
     2871     6420    2            VALUE = 32767;
     2872     6421
     2873     6422    2          CASE(%TYD, %TYO, %TYF, %TYC);
     2874     6423                 %UNPACK_NDSC( @DESC       = TYPE_DESC.DESC,
     2875     6424                               @LENGTH     = LENGTH );
     2876     6479
     2877     6480    2            VALUE = 10;
     2878     6481
     2879     6482    3   MAX_DEC: DO I = 2 TO LENGTH;
     2880     6483    3              IF VALUE > %MAX_SD10 THEN
     2881     6484    4                DO;
     2882     6485    4                  VALUE = %MAX_SBIN;
     2883     6486    4                  EXIT MAX_DEC;
     2884     6487    4                END; /* VALUE > Max_SBIN / 10 */
     2885     6488    3              ELSE
     2886     6489    3                VALUE = VALUE * 10;
     2887     6490    3            END; /* MAX_DEC */
     2888     6491
     2889     6492    2            VALUE = VALUE - 1;
     2890     6493
     2891     6494    2        END /* Case */;
     2892     6495
PL6.E3A0      #004=Z8EZ$VALUES File=Z8EZ.:Z8A6TSI                                SAT 08/09/97 13:09 Page:455
     2893     6496    1        RETURN;
     2894     6497
     2895     6498        %EJECT;
PL6.E3A0      #004=Z8EZ$VALUES File=Z8EZ.:Z8A6TSI                                SAT 08/09/97 13:09 Page:456
     2896     6499    1   Z8EZ$MIN_VALU:ENTRY(ITEM$, VALUE);
     2897     6500
     2898     6501
     2899     6502    1        CALL Z8AU$TYPE_DESCRIPTOR(ITEM$, TYPE_DESC);
     2900     6503
     2901     6504    2        DO CASE(TYPE_DESC.TYPE);
     2902     6505    2          CASE(%TYI);
     2903     6506    2            VALUE = BITBIN('400000000000'O);
     2904     6507
     2905     6508    2          CASE(%TYH);
     2906     6509    2            VALUE = - 131072;
     2907     6510
     2908     6511    2          CASE(%TYK);
     2909     6512    2            VALUE = - 2147483648;
     2910     6513
     2911     6514    2          CASE(%TYJ);
     2912     6515    2            VALUE = - 32768;
     2913     6516
     2914     6517    2          CASE(%TYD, %TYF, %TYC);
     2915     6518                 %UNPACK_NDSC( @DESC      = TYPE_DESC.DESC ,
     2916     6519                               @SIGN      = SIGN ,
     2917     6520                               @LENGTH    = LENGTH );
     2918     6575
     2919     6576    2            IF SIGN = %NO_SIGN THEN
     2920     6577    2              VALUE = 0;
     2921     6578    2            ELSE
     2922     6579    3              DO;
     2923     6580    3                VALUE = 10;
     2924     6581
     2925     6582    4   MIN_DEC:     DO I = 2 TO LENGTH;
     2926     6583    4                  IF VALUE > %MAX_SD10 THEN
     2927     6584    5                    DO;
     2928     6585    5                      VALUE = %MAX_SBIN;
     2929     6586    5                      EXIT MIN_DEC;
     2930     6587    5                    END; /* VALUE > Max_SBIN / 10 */
     2931     6588    4                  ELSE
     2932     6589    4                    VALUE = VALUE * 10;
PL6.E3A0      #004=Z8EZ$VALUES File=Z8EZ.:Z8A6TSI                                SAT 08/09/97 13:09 Page:457
     2933     6590    4                END; /* MIN_DEC */
     2934     6591    3                VALUE = - (VALUE - 1);
     2935     6592    3              END;
     2936     6593
     2937     6594    2          CASE(%TYO);
     2938     6595    2            LENGTH = TYPE_DESC.DESC.NDSC.N;
     2939     6596    2            VALUE = 10;
     2940     6597
     2941     6598    3   MIN_TYO: DO I = 2 TO LENGTH;
     2942     6599    3              IF VALUE > %MAX_SD10 THEN
     2943     6600    4                DO;
     2944     6601    4                  VALUE = %MAX_SBIN;
     2945     6602    4                  EXIT MIN_TYO;
     2946     6603    4                END; /* VALUE > Max_SBIN / 10 */
     2947     6604    3              ELSE
     2948     6605    3                VALUE = VALUE * 10;
     2949     6606    3            END; /* MIN_TYO */
     2950     6607
     2951     6608    2            VALUE = - (VALUE - 1) ;
     2952     6609
     2953     6610    2        END /* Case */;
     2954     6611    1        RETURN;
     2955     6612
     2956     6613    1   END Z8EZ$VALUES;

PL6.E3A0      #004=Z8EZ$VALUES File=Z8EZ.:Z8A6TSI                                SAT 08/09/97 13:09 Page:458
--  Include file information  --

   Z8A_ST.:Z8A6TOU  cannot be made into a system file and is referenced.
   Z8A_DESC.:Z8A6TOU  cannot be made into a system file and is referenced.
   Z8A_TYPES.:Z8A6TOU  is referenced.
   X8A_COM_MACS.:X8A6TOU  is referenced.
   Z8A_NAMES.:Z8A6TOU  is referenced.
   Z8A_SUPP_MAC.:Z8A6TOU  is referenced.
   Z8A_DEFC.:Z8A6TOU  cannot be made into a system file and is referenced.
      No diagnostics issued in procedure Z8EZ$VALUES.

   Procedure Z8EZ$VALUES requires 252 words for executable code.
   Procedure Z8EZ$VALUES requires 20 words of local(AUTO) storage.

    No errors detected in file Z8EZ.:Z8A6TSI    .

PL6.E3A0      #004=Z8EZ$VALUES File=Z8EZ.:Z8A6TSI                                SAT 08/09/97 13:09 Page:459

 Object Unit name= Z8EZ$VALUES                                File name= Z8EZ.:Z8A6TOU
 UTS= AUG 09 '97 13:09:23.08 SAT                              Compiler= PL-6/E31         Sev=      00
 SharedLib= :SHARED_SYSTEM                                    Alt SharedLib=


    ****  Control sections  ****

 Sect   Type Bound  Init  Size OctSiz  Section name(segment info)
    0  LblCom even  none     1      1  ITERATION
    1  LblCom even  none     1      1  ST$
    2  LblCom even  none     5      5  ST_
    3  RoData even  UTS      1      1  Z8EZ$VALUES
    4   Proc  even  none   252    374  Z8EZ$VALUES
    5  RoData even  none     5      5  Z8EZ$VALUES

    ****  Entry defs  ****

                              Check   Calling
                             calling  sequence
  Sect OctLoc Primary Altret sequence   type   Parms  Name
     4      0   yes            yes      Std        2  Z8EZ$VALUES
     4      3                  yes      Std        2  Z8EZ$MAX_VALUE
     4    153                  yes      Std        2  Z8EZ$MIN_VALU

  ****  Entry refs  ****

         Check        Calling
        calling       sequence
Altret sequence SRef   type   Args  Name
         yes           Std       2 Z8AU$TYPE_DESCRIPTOR
                       nStd      0 X66_AUTO_2
                       nStd      0 X66_ARET
PL6.E3A0      #004=Z8EZ$VALUES File=Z8EZ.:Z8A6TSI                                SAT 08/09/97 13:09 Page:460

  ****  Segment refs  ****

  Flags:  r = read only, s = secondary
Flgs Name                             Flgs Name                             Flgs Name
     NULLSID
PL6.E3A0      #004=Z8EZ$VALUES File=Z8EZ.:Z8A6TSI                                SAT 08/09/97 13:09 Page:461


     2827        1        /*T***********************************************************/
     2828        2        /*T*                                                         */
     2829        3        /*T* Copyright (c) Bull HN Information Systems Inc., 1997    */
     2830        4        /*T*                                                         */
     2831        5        /*T***********************************************************/
     2832        6        Z8EZ$VALUES:PROC(ITEM$, VALUE);

      6  4 000000   000000 700200 xent  Z8EZ$VALUES  TSX0  ! X66_AUTO_2
         4 000001   000024 000002                    ZERO    20,2
         4 000002   000005 710000 4                  TRA     s:6407

     2833        7
     2834        8    1        DCL ITEM$        PTR;
     2835        9    1        DCL VALUE        SBIN WORD;
     2836       10
     2837       11
     2838       12             %EQU PHASE = 0;
     2839       13             %INCLUDE Z8A_DEFC;
     2840       81             %INCLUDE Z8A_SUPP_MAC;
     2841     2481             %INCLUDE Z8A_TYPES;
     2842     2655             %INCLUDE Z8A_DESC;
     2843     2701             %INCLUDE Z8A_ST;
     2844     6360
     2845     6361    1        DCL Z8AU$TYPE_DESCRIPTOR                     ENTRY(2);
     2846     6362
     2847     6363    1        DCL I           SBIN WORD;
     2848     6364
     2849     6365    1        DCL 1 TYPE_DESC ALIGNED,
     2850     6366                   %TYPE_DESC;
     2851     6400
     2852     6401             %EQU  MAX_SBIN = 34359738367 ; /* 34,359,738,367 = 2^35 - 1 */
     2853     6402             %EQU  MAX_SD10 = 3435973836  ; /*  3,435,973,836 = 2^35 / 10 */
     2854     6403
     2855     6404        %EJECT;
PL6.E3A0      #004=Z8EZ$VALUES File=Z8EZ.:Z8A6TSI                                SAT 08/09/97 13:09 Page:462
     2856     6405    1   Z8EZ$MAX_VALUE:ENTRY(ITEM$, VALUE);

   6405  4 000003   000000 700200 xent  Z8EZ$MAX_VA* TSX0  ! X66_AUTO_2
         4 000004   000024 000002                    ZERO    20,2

     2857     6406
     2858     6407    1        CALL Z8AU$TYPE_DESCRIPTOR(ITEM$, TYPE_DESC);

   6407  4 000005   200016 630500                    EPPR0   TYPE_DESC,,AUTO
         4 000006   200023 450500                    STP0    TYPE_DESC+5,,AUTO
         4 000007   200003 236100                    LDQ     @ITEM$,,AUTO
         4 000010   200022 756100                    STQ     TYPE_DESC+4,,AUTO
         4 000011   200022 630500                    EPPR0   TYPE_DESC+4,,AUTO
         4 000012   000000 631400 5                  EPPR1   0
         4 000013   000000 701000 xent               TSX1    Z8AU$TYPE_DESCRIPTOR
         4 000014   000000 011000                    NOP     0

     2859     6408
     2860     6409    2        DO CASE(TYPE_DESC.TYPE);

   6409  4 000015   200016 235100                    LDA     TYPE_DESC,,AUTO
         4 000016   000024 115007                    CMPA    20,DL
         4 000017   000021 602005 4                  TNC     s:6409+4,AL
         4 000020   000152 710000 4                  TRA     s:6496
         4 000021   000065 710000 4                  TRA     s:6431
         4 000022   000045 710000 4                  TRA     s:6411
         4 000023   000061 710000 4                  TRA     s:6420
         4 000024   000065 710000 4                  TRA     s:6431
         4 000025   000152 710000 4                  TRA     s:6496
         4 000026   000152 710000 4                  TRA     s:6496
         4 000027   000152 710000 4                  TRA     s:6496
         4 000030   000051 710000 4                  TRA     s:6414
         4 000031   000152 710000 4                  TRA     s:6496
         4 000032   000152 710000 4                  TRA     s:6496
         4 000033   000152 710000 4                  TRA     s:6496
         4 000034   000065 710000 4                  TRA     s:6431
         4 000035   000152 710000 4                  TRA     s:6496
PL6.E3A0      #004=Z8EZ$VALUES File=Z8EZ.:Z8A6TSI                                SAT 08/09/97 13:09 Page:463
         4 000036   000152 710000 4                  TRA     s:6496
         4 000037   000152 710000 4                  TRA     s:6496
         4 000040   000055 710000 4                  TRA     s:6417
         4 000041   000152 710000 4                  TRA     s:6496
         4 000042   000152 710000 4                  TRA     s:6496
         4 000043   000152 710000 4                  TRA     s:6496
         4 000044   000065 710000 4                  TRA     s:6431

     2861     6410    2          CASE(%TYI);

     2862     6411    2            VALUE = %MAX_SBIN;

   6411  4 000045   000001 236000 5                  LDQ     1
         4 000046   200004 470500                    LDP0    @VALUE,,AUTO
         4 000047   000000 756100                    STQ     0,,PR0
         4 000050   000152 710000 4                  TRA     s:6496

     2863     6412
     2864     6413    2          CASE(%TYH);

     2865     6414    2            VALUE = 131071;

   6414  4 000051   377777 236007                    LDQ     131071,DL
         4 000052   200004 470500                    LDP0    @VALUE,,AUTO
         4 000053   000000 756100                    STQ     0,,PR0
         4 000054   000152 710000 4                  TRA     s:6496

     2866     6415
     2867     6416    2          CASE(%TYK);

     2868     6417    2            VALUE = 2147483647;

   6417  4 000055   000002 236000 5                  LDQ     2
         4 000056   200004 470500                    LDP0    @VALUE,,AUTO
         4 000057   000000 756100                    STQ     0,,PR0
         4 000060   000152 710000 4                  TRA     s:6496

PL6.E3A0      #004=Z8EZ$VALUES File=Z8EZ.:Z8A6TSI                                SAT 08/09/97 13:09 Page:464
     2869     6418
     2870     6419    2          CASE(%TYJ);

     2871     6420    2            VALUE = 32767;

   6420  4 000061   077777 236007                    LDQ     32767,DL
         4 000062   200004 470500                    LDP0    @VALUE,,AUTO
         4 000063   000000 756100                    STQ     0,,PR0
         4 000064   000152 710000 4                  TRA     s:6496

     2872     6421
     2873     6422    2          CASE(%TYD, %TYO, %TYF, %TYC);

     2874     6423                 %UNPACK_NDSC( @DESC       = TYPE_DESC.DESC,
     2875     6424                               @LENGTH     = LENGTH );

   6431  4 000065   200017 236100                    LDQ     TYPE_DESC+1,,AUTO
         4 000066   000014 772000                    QRL     12
         4 000067   000003 376007                    ANQ     3,DL
         4 000070   000004 116007                    CMPQ    4,DL
         4 000071   000073 602006 4                  TNC     s:6431+6,QL
         4 000072   000124 710000 4                  TRA     s:6480
         4 000073   000110 710000 4                  TRA     s:6455
         4 000074   000103 710000 4                  TRA     s:6438
         4 000075   000103 710000 4                  TRA     s:6438
         4 000076   000077 710000 4                  TRA     s:6433

   6433  4 000077   200017 236100                    LDQ     TYPE_DESC+1,,AUTO
         4 000100   000077 376007                    ANQ     63,DL
         4 000101   200012 756100                    STQ     LENGTH,,AUTO
         4 000102   000124 710000 4                  TRA     s:6480

   6438  4 000103   200017 236100                    LDQ     TYPE_DESC+1,,AUTO
         4 000104   000077 376007                    ANQ     63,DL
         4 000105   000001 136007                    SBLQ    1,DL
         4 000106   200012 756100                    STQ     LENGTH,,AUTO
         4 000107   000124 710000 4                  TRA     s:6480
PL6.E3A0      #004=Z8EZ$VALUES File=Z8EZ.:Z8A6TSI                                SAT 08/09/97 13:09 Page:465

   6455  4 000110   200017 236100                    LDQ     TYPE_DESC+1,,AUTO
         4 000111   040000 316007                    CANQ    16384,DL
         4 000112   000120 600000 4                  TZE     s:6458

   6456  4 000113   200017 236100                    LDQ     TYPE_DESC+1,,AUTO
         4 000114   000077 376007                    ANQ     63,DL
         4 000115   000003 136007                    SBLQ    3,DL
         4 000116   200012 756100                    STQ     LENGTH,,AUTO
         4 000117   000124 710000 4                  TRA     s:6480

   6458  4 000120   200017 236100                    LDQ     TYPE_DESC+1,,AUTO
         4 000121   000077 376007                    ANQ     63,DL
         4 000122   000002 136007                    SBLQ    2,DL
         4 000123   200012 756100                    STQ     LENGTH,,AUTO

     2876     6479
     2877     6480    2            VALUE = 10;

   6480  4 000124   000012 236007                    LDQ     10,DL
         4 000125   200004 470500                    LDP0    @VALUE,,AUTO
         4 000126   000000 756100                    STQ     0,,PR0

     2878     6481
     2879     6482    3   MAX_DEC: DO I = 2 TO LENGTH;

   6482  4 000127   000002 235007       MAX_DEC      LDA     2,DL
         4 000130   200015 755100                    STA     I,,AUTO
         4 000131   000145 710000 4                  TRA     s:6490+1

     2880     6483    3              IF VALUE > %MAX_SD10 THEN

   6483  4 000132   200004 470500                    LDP0    @VALUE,,AUTO
         4 000133   000000 235100                    LDA     0,,PR0
         4 000134   000003 115000 5                  CMPA    3
         4 000135   000141 604400 4                  TMOZ    s:6489

PL6.E3A0      #004=Z8EZ$VALUES File=Z8EZ.:Z8A6TSI                                SAT 08/09/97 13:09 Page:466
     2881     6484    4                DO;

     2882     6485    4                  VALUE = %MAX_SBIN;

   6485  4 000136   000001 236000 5                  LDQ     1
         4 000137   000000 756100                    STQ     0,,PR0

     2883     6486    4                  EXIT MAX_DEC;

   6486  4 000140   000150 710000 4                  TRA     s:6492

     2884     6487    4                END; /* VALUE > Max_SBIN / 10 */
     2885     6488    3              ELSE
     2886     6489    3                VALUE = VALUE * 10;

   6489  4 000141   000000 236100                    LDQ     0,,PR0
         4 000142   000012 402007                    MPY     10,DL
         4 000143   000000 756100                    STQ     0,,PR0

     2887     6490    3            END; /* MAX_DEC */

   6490  4 000144   200015 054100                    AOS     I,,AUTO
         4 000145   200015 236100                    LDQ     I,,AUTO
         4 000146   200012 116100                    CMPQ    LENGTH,,AUTO
         4 000147   000132 604400 4                  TMOZ    s:6483

     2888     6491
     2889     6492    2            VALUE = VALUE - 1;

   6492  4 000150   000001 336007                    LCQ     1,DL
         4 000151   000000 056100                    ASQ     0,,PR0

     2890     6493
     2891     6494    2        END /* Case */;

     2892     6495
     2893     6496    1        RETURN;
PL6.E3A0      #004=Z8EZ$VALUES File=Z8EZ.:Z8A6TSI                                SAT 08/09/97 13:09 Page:467

   6496  4 000152   000000 702200 xent               TSX2  ! X66_ARET

     2894     6497
     2895     6498        %EJECT;
PL6.E3A0      #004=Z8EZ$VALUES File=Z8EZ.:Z8A6TSI                                SAT 08/09/97 13:09 Page:468
     2896     6499    1   Z8EZ$MIN_VALU:ENTRY(ITEM$, VALUE);

   6499  4 000153   000000 700200 xent  Z8EZ$MIN_VA* TSX0  ! X66_AUTO_2
         4 000154   000024 000002                    ZERO    20,2

     2897     6500
     2898     6501
     2899     6502    1        CALL Z8AU$TYPE_DESCRIPTOR(ITEM$, TYPE_DESC);

   6502  4 000155   200016 630500                    EPPR0   TYPE_DESC,,AUTO
         4 000156   200023 450500                    STP0    TYPE_DESC+5,,AUTO
         4 000157   200003 236100                    LDQ     @ITEM$,,AUTO
         4 000160   200022 756100                    STQ     TYPE_DESC+4,,AUTO
         4 000161   200022 630500                    EPPR0   TYPE_DESC+4,,AUTO
         4 000162   000000 631400 5                  EPPR1   0
         4 000163   000000 701000 xent               TSX1    Z8AU$TYPE_DESCRIPTOR
         4 000164   000000 011000                    NOP     0

     2900     6503
     2901     6504    2        DO CASE(TYPE_DESC.TYPE);

   6504  4 000165   200016 235100                    LDA     TYPE_DESC,,AUTO
         4 000166   000024 115007                    CMPA    20,DL
         4 000167   000171 602005 4                  TNC     s:6504+4,AL
         4 000170   000373 710000 4                  TRA     s:6611
         4 000171   000235 710000 4                  TRA     s:6527
         4 000172   000215 710000 4                  TRA     s:6506
         4 000173   000231 710000 4                  TRA     s:6515
         4 000174   000340 710000 4                  TRA     s:6595
         4 000175   000373 710000 4                  TRA     s:6611
         4 000176   000373 710000 4                  TRA     s:6611
         4 000177   000373 710000 4                  TRA     s:6611
         4 000200   000221 710000 4                  TRA     s:6509
         4 000201   000373 710000 4                  TRA     s:6611
         4 000202   000373 710000 4                  TRA     s:6611
         4 000203   000373 710000 4                  TRA     s:6611
         4 000204   000235 710000 4                  TRA     s:6527
PL6.E3A0      #004=Z8EZ$VALUES File=Z8EZ.:Z8A6TSI                                SAT 08/09/97 13:09 Page:469
         4 000205   000373 710000 4                  TRA     s:6611
         4 000206   000373 710000 4                  TRA     s:6611
         4 000207   000373 710000 4                  TRA     s:6611
         4 000210   000225 710000 4                  TRA     s:6512
         4 000211   000373 710000 4                  TRA     s:6611
         4 000212   000373 710000 4                  TRA     s:6611
         4 000213   000373 710000 4                  TRA     s:6611
         4 000214   000235 710000 4                  TRA     s:6527

     2902     6505    2          CASE(%TYI);

     2903     6506    2            VALUE = BITBIN('400000000000'O);

   6506  4 000215   000000 236000 3                  LDQ     0
         4 000216   200004 470500                    LDP0    @VALUE,,AUTO
         4 000217   000000 756100                    STQ     0,,PR0
         4 000220   000373 710000 4                  TRA     s:6611

     2904     6507
     2905     6508    2          CASE(%TYH);

     2906     6509    2            VALUE = - 131072;

   6509  4 000221   400000 336007                    LCQ     -131072,DL
         4 000222   200004 470500                    LDP0    @VALUE,,AUTO
         4 000223   000000 756100                    STQ     0,,PR0
         4 000224   000373 710000 4                  TRA     s:6611

     2907     6510
     2908     6511    2          CASE(%TYK);

     2909     6512    2            VALUE = - 2147483648;

   6512  4 000225   760000 236003                    LDQ     -8192,DU
         4 000226   200004 470500                    LDP0    @VALUE,,AUTO
         4 000227   000000 756100                    STQ     0,,PR0
         4 000230   000373 710000 4                  TRA     s:6611
PL6.E3A0      #004=Z8EZ$VALUES File=Z8EZ.:Z8A6TSI                                SAT 08/09/97 13:09 Page:470

     2910     6513
     2911     6514    2          CASE(%TYJ);

     2912     6515    2            VALUE = - 32768;

   6515  4 000231   100000 336007                    LCQ     32768,DL
         4 000232   200004 470500                    LDP0    @VALUE,,AUTO
         4 000233   000000 756100                    STQ     0,,PR0
         4 000234   000373 710000 4                  TRA     s:6611

     2913     6516
     2914     6517    2          CASE(%TYD, %TYF, %TYC);

     2915     6518                 %UNPACK_NDSC( @DESC      = TYPE_DESC.DESC ,
     2916     6519                               @SIGN      = SIGN ,
     2917     6520                               @LENGTH    = LENGTH );

   6527  4 000235   200017 236100                    LDQ     TYPE_DESC+1,,AUTO
         4 000236   000014 772000                    QRL     12
         4 000237   000003 376007                    ANQ     3,DL
         4 000240   000004 116007                    CMPQ    4,DL
         4 000241   000243 602006 4                  TNC     s:6527+6,QL
         4 000242   000274 710000 4                  TRA     s:6570
         4 000243   000260 710000 4                  TRA     s:6551
         4 000244   000253 710000 4                  TRA     s:6534
         4 000245   000253 710000 4                  TRA     s:6534
         4 000246   000247 710000 4                  TRA     s:6529

   6529  4 000247   200017 236100                    LDQ     TYPE_DESC+1,,AUTO
         4 000250   000077 376007                    ANQ     63,DL
         4 000251   200012 756100                    STQ     LENGTH,,AUTO
         4 000252   000274 710000 4                  TRA     s:6570

   6534  4 000253   200017 236100                    LDQ     TYPE_DESC+1,,AUTO
         4 000254   000077 376007                    ANQ     63,DL
         4 000255   000001 136007                    SBLQ    1,DL
PL6.E3A0      #004=Z8EZ$VALUES File=Z8EZ.:Z8A6TSI                                SAT 08/09/97 13:09 Page:471
         4 000256   200012 756100                    STQ     LENGTH,,AUTO
         4 000257   000274 710000 4                  TRA     s:6570

   6551  4 000260   200017 236100                    LDQ     TYPE_DESC+1,,AUTO
         4 000261   040000 316007                    CANQ    16384,DL
         4 000262   000270 600000 4                  TZE     s:6554

   6552  4 000263   200017 236100                    LDQ     TYPE_DESC+1,,AUTO
         4 000264   000077 376007                    ANQ     63,DL
         4 000265   000003 136007                    SBLQ    3,DL
         4 000266   200012 756100                    STQ     LENGTH,,AUTO
         4 000267   000274 710000 4                  TRA     s:6570

   6554  4 000270   200017 236100                    LDQ     TYPE_DESC+1,,AUTO
         4 000271   000077 376007                    ANQ     63,DL
         4 000272   000002 136007                    SBLQ    2,DL
         4 000273   200012 756100                    STQ     LENGTH,,AUTO

   6570  4 000274   200017 236100                    LDQ     TYPE_DESC+1,,AUTO
         4 000275   000026 736000                    QLS     22
         4 000276   600000 376003                    ANQ     -65536,DU
         4 000277   200006 756100                    STQ     SIGN,,AUTO

     2918     6575
     2919     6576    2            IF SIGN = %NO_SIGN THEN

   6576  4 000300   200006 236100                    LDQ     SIGN,,AUTO
         4 000301   600000 376003                    ANQ     -65536,DU
         4 000302   600000 116003                    CMPQ    -65536,DU
         4 000303   000307 601000 4                  TNZ     s:6580

     2920     6577    2              VALUE = 0;

   6577  4 000304   200004 470500                    LDP0    @VALUE,,AUTO
         4 000305   000000 450100                    STZ     0,,PR0
         4 000306   000373 710000 4                  TRA     s:6611

PL6.E3A0      #004=Z8EZ$VALUES File=Z8EZ.:Z8A6TSI                                SAT 08/09/97 13:09 Page:472
     2921     6578    2            ELSE
     2922     6579    3              DO;

     2923     6580    3                VALUE = 10;

   6580  4 000307   000012 236007                    LDQ     10,DL
         4 000310   200004 470500                    LDP0    @VALUE,,AUTO
         4 000311   000000 756100                    STQ     0,,PR0

     2924     6581
     2925     6582    4   MIN_DEC:     DO I = 2 TO LENGTH;

   6582  4 000312   000002 235007       MIN_DEC      LDA     2,DL
         4 000313   200015 755100                    STA     I,,AUTO
         4 000314   000330 710000 4                  TRA     s:6590+1

     2926     6583    4                  IF VALUE > %MAX_SD10 THEN

   6583  4 000315   200004 470500                    LDP0    @VALUE,,AUTO
         4 000316   000000 235100                    LDA     0,,PR0
         4 000317   000003 115000 5                  CMPA    3
         4 000320   000324 604400 4                  TMOZ    s:6589

     2927     6584    5                    DO;

     2928     6585    5                      VALUE = %MAX_SBIN;

   6585  4 000321   000001 236000 5                  LDQ     1
         4 000322   000000 756100                    STQ     0,,PR0

     2929     6586    5                      EXIT MIN_DEC;

   6586  4 000323   000333 710000 4                  TRA     s:6591

     2930     6587    5                    END; /* VALUE > Max_SBIN / 10 */
     2931     6588    4                  ELSE
     2932     6589    4                    VALUE = VALUE * 10;
PL6.E3A0      #004=Z8EZ$VALUES File=Z8EZ.:Z8A6TSI                                SAT 08/09/97 13:09 Page:473

   6589  4 000324   000000 236100                    LDQ     0,,PR0
         4 000325   000012 402007                    MPY     10,DL
         4 000326   000000 756100                    STQ     0,,PR0

     2933     6590    4                END; /* MIN_DEC */

   6590  4 000327   200015 054100                    AOS     I,,AUTO
         4 000330   200015 236100                    LDQ     I,,AUTO
         4 000331   200012 116100                    CMPQ    LENGTH,,AUTO
         4 000332   000315 604400 4                  TMOZ    s:6583

     2934     6591    3                VALUE = - (VALUE - 1);

   6591  4 000333   000000 235100                    LDA     0,,PR0
         4 000334   000004 675000 5                  ERA     4
         4 000335   000002 035007                    ADLA    2,DL
         4 000336   000000 755100                    STA     0,,PR0

     2935     6592    3              END;

   6592  4 000337   000373 710000 4                  TRA     s:6611

     2936     6593
     2937     6594    2          CASE(%TYO);

     2938     6595    2            LENGTH = TYPE_DESC.DESC.NDSC.N;

   6595  4 000340   200017 236100                    LDQ     TYPE_DESC+1,,AUTO
         4 000341   000077 376007                    ANQ     63,DL
         4 000342   200012 756100                    STQ     LENGTH,,AUTO

     2939     6596    2            VALUE = 10;

   6596  4 000343   000012 235007                    LDA     10,DL
         4 000344   200004 470500                    LDP0    @VALUE,,AUTO
         4 000345   000000 755100                    STA     0,,PR0
PL6.E3A0      #004=Z8EZ$VALUES File=Z8EZ.:Z8A6TSI                                SAT 08/09/97 13:09 Page:474

     2940     6597
     2941     6598    3   MIN_TYO: DO I = 2 TO LENGTH;

   6598  4 000346   000002 235007       MIN_TYO      LDA     2,DL
         4 000347   200015 755100                    STA     I,,AUTO
         4 000350   000364 710000 4                  TRA     s:6606+1

     2942     6599    3              IF VALUE > %MAX_SD10 THEN

   6599  4 000351   200004 470500                    LDP0    @VALUE,,AUTO
         4 000352   000000 235100                    LDA     0,,PR0
         4 000353   000003 115000 5                  CMPA    3
         4 000354   000360 604400 4                  TMOZ    s:6605

     2943     6600    4                DO;

     2944     6601    4                  VALUE = %MAX_SBIN;

   6601  4 000355   000001 236000 5                  LDQ     1
         4 000356   000000 756100                    STQ     0,,PR0

     2945     6602    4                  EXIT MIN_TYO;

   6602  4 000357   000367 710000 4                  TRA     s:6608

     2946     6603    4                END; /* VALUE > Max_SBIN / 10 */
     2947     6604    3              ELSE
     2948     6605    3                VALUE = VALUE * 10;

   6605  4 000360   000000 236100                    LDQ     0,,PR0
         4 000361   000012 402007                    MPY     10,DL
         4 000362   000000 756100                    STQ     0,,PR0

     2949     6606    3            END; /* MIN_TYO */

   6606  4 000363   200015 054100                    AOS     I,,AUTO
PL6.E3A0      #004=Z8EZ$VALUES File=Z8EZ.:Z8A6TSI                                SAT 08/09/97 13:09 Page:475
         4 000364   200015 236100                    LDQ     I,,AUTO
         4 000365   200012 116100                    CMPQ    LENGTH,,AUTO
         4 000366   000351 604400 4                  TMOZ    s:6599

     2950     6607
     2951     6608    2            VALUE = - (VALUE - 1) ;

   6608  4 000367   000000 235100                    LDA     0,,PR0
         4 000370   000004 675000 5                  ERA     4
         4 000371   000002 035007                    ADLA    2,DL
         4 000372   000000 755100                    STA     0,,PR0

     2952     6609
     2953     6610    2        END /* Case */;

     2954     6611    1        RETURN;

   6611  4 000373   000000 702200 xent               TSX2  ! X66_ARET
     2955     6612
     2956     6613    1   END Z8EZ$VALUES;

PL6.E3A0      #004=Z8EZ$VALUES File=Z8EZ.:Z8A6TSI                                SAT 08/09/97 13:09 Page:476
--  Include file information  --

   Z8A_ST.:Z8A6TOU  cannot be made into a system file and is referenced.
   Z8A_DESC.:Z8A6TOU  cannot be made into a system file and is referenced.
   Z8A_TYPES.:Z8A6TOU  is referenced.
   X8A_COM_MACS.:X8A6TOU  is referenced.
   Z8A_NAMES.:Z8A6TOU  is referenced.
   Z8A_SUPP_MAC.:Z8A6TOU  is referenced.
   Z8A_DEFC.:Z8A6TOU  cannot be made into a system file and is referenced.
      No diagnostics issued in procedure Z8EZ$VALUES.
PL6.E3A0      #004=Z8EZ$VALUES File=Z8EZ.:Z8A6TSI                                SAT 08/09/97 13:09 Page:477

 **** Variables and constants ****

  ****  Section 000 LblCom ITERATION

  ****  Scalars and arrays  ****
OctLoc.c.b A Datatyp(siz) R M Lvl/name                 OctLoc.c.b A Datatyp(siz) R M Lvl/name

     0-0-0/w SBIN              1 ITERATION

  ****  Section 001 LblCom ST$

  ****  Scalars and arrays  ****
OctLoc.c.b A Datatyp(siz) R M Lvl/name                 OctLoc.c.b A Datatyp(siz) R M Lvl/name

     0-0-0/w PTR         r     1 ST$

  ****  Section 002 LblCom ST_

  ****  Scalars and arrays  ****
OctLoc.c.b A Datatyp(siz) R M Lvl/name                 OctLoc.c.b A Datatyp(siz) R M Lvl/name

     0-0-0/w STRC(180)         1 ST_

  ****  Auto variables  ****

  ****  Scalars and arrays  ****
OctLoc.c.b A Datatyp(siz) R M Lvl/name                 OctLoc.c.b A Datatyp(siz) R M Lvl/name

     3-0-0/w PTR         r     1 @ITEM$                     4-0-0/w PTR         r     1 @VALUE
    13-0-0/w UBIN              1 CN                         5-0-0/w STRC              1 DESC
    15-0-0/w SBIN        r     1 I                         *0-0-0/w PTR         r     1 ITEM$
    12-0-0/w SBIN        r     1 LENGTH                    14-0-0/w UBIN              1 SA
    11-0-0/w SBIN              1 SCALE                      6-0-0/w BIT (2)     r     1 SIGN
    10-0-0/w BIT (2)           1 TA                         7-0-0/w BIT               1 TN
    16-0-0/w STRC(144)   r     1 TYPE_DESC                 *0-0-0/w SBIN        r     1 VALUE

  ****  BASED and DCB variables  ****
PL6.E3A0      #004=Z8EZ$VALUES File=Z8EZ.:Z8A6TSI                                SAT 08/09/97 13:09 Page:478

  ****  Scalars and arrays  ****
OctLoc.c.b A Datatyp(siz) R M Lvl/name                 OctLoc.c.b A Datatyp(siz) R M Lvl/name

     0-0-0/w STRC(396)         1 ALPHABET                   0-0-0/w STRC(396)         1 ARRAY
     0-0-0/w STRC(396)         1 BLOCK                      0-0-0/w STRC(396)         1 CD
     0-0-0/w CHAR(4096)        1 CHARS                      0-0-0/w STRC(396)         1 CLASS
     0-0-0/w STRC(396)         1 CONDITION                  0-0-0/w STRC(396)         1 CONST
     0-0-0/w STRC(72)          1 CONT                       0-0-0/w STRC(396)         1 DB
     0-0-0/w STRC(396)         1 DCB_                       0-0-0/w STRC(396)         1 DML_ITEM
     0-0-0/w STRC(396)         1 FD                         0-0-0/w STRC(396)         1 INTDEF
     0-0-0/w STRC(396)         1 LABEL                      0-0-0/w STRC(396)         1 MNEMONIC
     0-0-0/w STRC(36864)       1 PAGE                       0-0-0/w STRC(396)         1 PARA
     0-0-0/w STRC(396)         1 PROC_                      0-0-0/w STRC(396)         1 PROC_DEF
     0-0-0/w STRC(396)         1 RD                         0-0-0/w STRC(396)         1 SCALAR
     0-0-0/w STRC(396)         1 SD                         0-0-0/w STRC(396)         1 SECTION
     0-0-0/w STRC(396)         1 SEGMENT                    0-0-0/w STRC(396)         1 ST
     0-0-0/w STRC(396)         1 SWITCH                     0-0-0/w STRC(396)         1 SYMBOLIC_CHAR
     0-0-0/w STRC(396)         1 SYMDEF_                    0-0-0/w STRC(396)         1 SYMREF_
     0-0-0/w STRC(396)         1 TEMP                       0-0-0/w STRC(396)         1 VARIABLE


   Procedure Z8EZ$VALUES requires 252 words for executable code.
   Procedure Z8EZ$VALUES requires 20 words of local(AUTO) storage.

    No errors detected in file Z8EZ.:Z8A6TSI    .
