VERSION A06

PL6.E3A0      #001=Z8EZ$STRING File=Z8EZ.:Z8A6TSI                                SAT 08/09/97 12:59 Page:1
        1        1        /*M*  Z8EZ -- Create ILL/ETT for STRING and UNSTRING statements */
        2        2        /*T***********************************************************/
        3        3        /*T*                                                         */
        4        4        /*T* Copyright (c) Bull HN Information Systems Inc., 1997    */
        5        5        /*T*                                                         */
        6        6        /*T***********************************************************/
        7        7
        8        8        /*P*   NAME: Z8EZ$STRING
        9        9             AUTHOR: Mark Glenn  (Extract comments by John Heath)
       10       10            PURPOSE: This procedure does semantic checking and produces
       11       11                     the ILL/ETT for the STRING statement.
       12       12        */
       13       13
       14       14        /*D*   NAME: Z8EZ$STRING
       15       15
       16       16              INPUT: Abstract Syntax Tree for the STRING statement.
       17       17
       18       18             OUTPUT: ILS/ILL/ETT intermediate language items.
       19       19
       20       20        DESCRIPTION: Phase 1 makes 3 passes on the STRING statement.
       21       21                     The first pass (Z8EN) produces the Abstract
       22       22                     Syntax Tree (AST).  The second and third passes
       23       23                     are done by this procedure.
       24       24
       25       25             Pass 2: Validate the operands of the STRING statement.
       26       26
       27       27             Pass 3: Generate the intermediate language items to do
       28       28                     the STRING statement.  The STRING statement is
       29       29                     broken down into smaller statements (MOVE, IF, etc.)
       30       30                     by this module, thus it makes calls to procedures
       31       31                     used by these smaller statements (Z8E7$MOVE,
       32       32                     Z8EK$BRANCH_TRUE, etc.).
       33       33
       34       34                     Pass 3 is broken into two parts: optimizable and
       35       35                     not-optimizable.  The algorithm for optimizable
       36       36                     STRING (simple STRING with no DELIMITED clauses)
       37       37                     generates a series of MOVEs.  The algorithm for
PL6.E3A0      #001=Z8EZ$STRING File=Z8EZ.:Z8A6TSI                                SAT 08/09/97 12:59 Page:2
       38       38                     non-optimizable STRING is highly dependent on the
       39       39                     types and numbers of optional clauses used in the
       40       40                     the statement.
       41       41        */
       42       42
       43       43        %EJECT;
PL6.E3A0      #001=Z8EZ$STRING File=Z8EZ.:Z8A6TSI                                SAT 08/09/97 12:59 Page:3
       44       44        Z8EZ$STRING:PROC( STRING_LIST$ ,
       45       45                          INTO$ ,
       46       46                          POINTER$ ,
       47       47                          ON_OVERFLOW$,
       48       48                          NOT_ON_OVERFLOW$ );
       49       49
       50       50
       51       51    1        DCL KEYWORD$       PTR;
       52       52    1        DCL INTO$          PTR;
       53       53    1        DCL POINTER$      PTR;
       54       54    1        DCL STRING_LIST$   PTR;
       55       55    1        DCL ON_OVERFLOW$   PTR;
       56       56    1        DCL NOT_ON_OVERFLOW$  PTR;
       57       57
       58       58
       59       59
       60       60             %EQU PHASE = 1;
       61       61             %INCLUDE Z8A_DEFC;
       62      129             %INCLUDE Z8A_SUPP_MAC;
       63     2529             %INCLUDE Z8E_MACROS;
       64     3204             %INCLUDE Z8E_STACKS;
       65     5470             %INCLUDE Z8A_ST;
       66     9129             %INCLUDE Z8A_ETT;
       67     9430             %INCLUDE Z8A_ILL;
       68    10123             %INCLUDE Z8A_COMCOM;
       69    10773             %INCLUDE Z8A_LIBRARY;
       70    10987             %INCLUDE Z8E_O1COM;
       71    11748             %INCLUDE Z8E_HEAP;
       72    11804             %INCLUDE Z8E_WINDOW;
       73    13874             %INCLUDE Z8A_ILS;
       74    13983             %INCLUDE Z8E_ILS_LIST;
       75    14067             %INCLUDE Z8A_TYPES;
       76    14241             %INCLUDE Z8A_ERR_NUMS;
       77    15005
       78    15006
       79    15007    1        DCL Z8EV$LEAST_STRONGEST_TYPE    ENTRY(3);
       80    15008    1        DCL Z8EV$CONVERT_TYA             ENTRY(3);
PL6.E3A0      #001=Z8EZ$STRING File=Z8EZ.:Z8A6TSI                                SAT 08/09/97 12:59 Page:4
       81    15009    1        DCL Z8AT$CREATE_TEMP_WITH_BASE   ENTRY(2);
       82    15010    1        DCL Z8AT$CREATE_TEMPORARY        ENTRY(2);
       83    15011    1        DCL Z8AC$LX_ETT_ITEM_TYI_CONST   ENTRY(2);
       84    15012    1        DCL Z8AU$LENGTH                  ENTRY(2);
       85    15013    1        DCL Z8E5$MATH_PACK               ENTRY(2);
       86    15014    1        DCL Z8EK$COMPARE                 ENTRY(4);
       87    15015    1        DCL Z8EK$BRANCH                  ENTRY(1) ;
       88    15016    1        DCL Z8EK$BRANCH_TRUE             ENTRY(2);
       89    15017    1        DCL Z8EK$BRANCH_FALSE            ENTRY(2);
       90    15018    1        DCL Z8ED$DISPOSE_ABSSYN_TREE     ENTRY(1);
       91    15019    1        DCL Z8EY$INSERT                  ENTRY(4);
       92    15020    1        DCL Z8E7$MOVE                    ENTRY(2);
       93    15021    1        DCL Z8CO$CREATE_LIBRARY_BASE     ENTRY(2);
       94    15022    1        DCL Z8CO$DISPL_CHECK             ENTRY(1) ALTRET;
       95    15023    1        DCL Z8CO$INTEGER_CHECK           ENTRY(1) ALTRET;
       96    15024    1        DCL Z8CO$INTEGER_CHECK_NO_ERROR  ENTRY(1) ALTRET;
       97    15025    1        DCL Z8CO$P_CHECK                 ENTRY(1) ALTRET;
       98    15026    1        DCL Z8AE$ERROR                  ENTRY(12);
       99    15027    1        DCL Z8EZ$MAX_VALUE              ENTRY(2);
      100    15028    1        DCL Z8AU$LENGTH_ETT             ENTRY(2);
      101    15029    1        DCL Z8AU$TYPE_DESCRIPTOR        ENTRY (2) ;
      102    15030    1        DCL Z8AF$FORME                  ENTRY(4) ;
      103    15031    1        DCL Z8AF$NEW_FISS               ENTRY(4) ;
      104    15032    1        DCL Z8AF$NEW_OFF                ENTRY(3) ;
      105    15033    1        DCL Z8EA$SUBSTR_ZERO            ENTRY(4) ;
      106    15034
      107    15035
      108    15036    1        DCL STRINGS$         PTR;
      109    15037    1        DCL IDENTS$          PTR;
      110    15038
      111    15039            %DCL_AUTO_LX_ITEM     ( @NAME = SENDING );
      112    15043            %DCL_AUTO_LX_ITEM     ( @NAME = RECEIVING );
      113    15047
      114    15048            %DCL_AUTO_LX_ITEM     ( @NAME = ID1 );
      115    15052            %DCL_AUTO_LX_ITEM     ( @NAME = ID2 );
      116    15056            %DCL_AUTO_LX_ITEM     ( @NAME = ID3 );
      117    15060            %DCL_AUTO_LX_ITEM     ( @NAME = ID4 );
PL6.E3A0      #001=Z8EZ$STRING File=Z8EZ.:Z8A6TSI                                SAT 08/09/97 12:59 Page:5
      118    15064
      119    15065            %DCL_AUTO_LX_ITEM     ( @NAME = LENGTH_ID1 );
      120    15069            %DCL_AUTO_LX_ITEM     ( @NAME = LENGTH_ID2 );
      121    15073            %DCL_AUTO_LX_ITEM     ( @NAME = LENGTH_ID3 );
      122    15077
      123    15078            %DCL_AUTO_LX_ITEM     ( @NAME = ONE );
      124    15082            %DCL_AUTO_LX_ITEM     ( @NAME = TWO );
      125    15086            %DCL_AUTO_LX_ITEM     ( @NAME = REMAINDER );
      126    15090            %DCL_AUTO_LX_ITEM     ( @NAME = LENGTH_ID3_P1) ;
      127    15094            %DCL_AUTO_LX_ITEM     ( @NAME = MINIMUM_ );
      128    15098            %DCL_AUTO_LX_ITEM     ( @NAME = INDX );
      129    15102            %DCL_AUTO_LX_ITEM     ( @NAME = INDEX_EXPR ) ;
      130    15106            %DCL_AUTO_LX_ITEM     ( @NAME = ADD );
      131    15110            %DCL_AUTO_LX_ITEM     ( @NAME = KANJI_LX_ETT );
      132    15114            %DCL_AUTO_LX_ITEM     ( @NAME = PLUS_ONE );
      133    15118            %DCL_AUTO_LX_ITEM     ( @NAME = POINTER_TIMES2 );
      134    15122
      135    15123    1        DCL 1 TYPE_DESC ALIGNED,
      136    15124                  %TYPE_DESC ;
      137    15158
      138    15159    1        DCL ID1$             PTR;
      139    15160    1        DCL ID2$             PTR;
      140    15161    1        DCL ID3$             PTR;
      141    15162    1        DCL ID4$             PTR;
      142    15163    1        DCL ID3_ST$          PTR;
      143    15164
      144    15165    1        DCL LENGTH_ID1$      PTR;
      145    15166    1        DCL LENGTH_ID2$      PTR;
      146    15167    1        DCL LENGTH_ID3$      PTR;
      147    15168
      148    15169    1        DCL DELIMITER$       PTR;
      149    15170    1        DCL IDENTS_TAIL$     PTR;
      150    15171    1        DCL STRINGS_TAIL$    PTR;
      151    15172    1        DCL OVERFLOW$        PTR;
      152    15173    1        DCL NO_OVERFLOW$     PTR ;
      153    15174    1        DCL END_STRING$     PTR;
      154    15175    1        DCL INTO_LENGTH$    PTR;
PL6.E3A0      #001=Z8EZ$STRING File=Z8EZ.:Z8A6TSI                                SAT 08/09/97 12:59 Page:6
      155    15176    1        DCL COMPARISON$     PTR;
      156    15177    1        DCL KANJI_LX_ETT$   PTR;
      157    15178    1        DCL POINTER_TIMES2$ PTR;
      158    15179    1        DCL PLUS_ONE$       PTR;
      159    15180    1        DCL ONE$            PTR;
      160    15181    1        DCL TWO$            PTR;
      161    15182    1        DCL ADD$            PTR;
      162    15183    1        DCL LENGTH_ID3_P1$  PTR;
      163    15184    1        DCL MINIMUM$        PTR;
      164    15185    1        DCL RECEIVING$      PTR;
      165    15186    1        DCL INDEX$          PTR;
      166    15187    1        DCL INDEX_EXPR$     PTR ;
      167    15188    1        DCL REMAINDER$      PTR;
      168    15189    1        DCL TABLE_ETT$      PTR;
      169    15190
      170    15191
      171    15192    1        DCL POINTER         BOOLEAN;
      172    15193    1        DCL OVERFLOW        BOOLEAN;
      173    15194    1        DCL SIZE            BOOLEAN;
      174    15195    1        DCL OPTIMIZABLE     BOOLEAN ;
      175    15196
      176    15197    1        DCL CURRENT_OFFSET  SBIN WORD ;
      177    15198    1        DCL ID3_LENGTH      SBIN WORD ;
      178    15199    1        DCL ID1_COUNT       SBIN WORD ;
      179    15200    1        DCL ID1_MAX         SBIN WORD ;
      180    15201    1        DCL OP              SBIN WORD ;
      181    15202
      182    15203        %EJECT;
PL6.E3A0      #001=Z8EZ$STRING File=Z8EZ.:Z8A6TSI                                SAT 08/09/97 12:59 Page:7
      183    15204        %MACRO IF_THEN_DO (@LOP =, @REL =, @ROP =, @LAB =) ;
      184    15205
      185    15206               DO ;
      186    15207                 %LSET LINE@ = CHARTEXT (CONCAT (TEXTCHAR (@LOP),
      187    15208                                                 ' -> LX_ETT_ITEM.LINE')) ;
      188    15209                 %LSET COLUMN@ = CHARTEXT (CONCAT (TEXTCHAR (@LOP),
      189    15210                                                 ' -> LX_ETT_ITEM.COLUMN')) ;
      190    15211
      191    15212                 COMPARISON$ = ADDR (COMPARISON) ;
      192    15213                 %INIT_BINARY_OP (@POINTER = COMPARISON$,
      193    15214                                  @LOP$    = @LOP,
      194    15215                                  @OP      = @REL,
      195    15216                                  @ROP$    = @ROP,
      196    15217                                  @LINE    = %LINE@,
      197    15218                                  @COLUMN  = %COLUMN@) ;
      198    15219
      199    15220                 CALL Z8AT$CREATE_TEMPORARY (%PARA, @LAB) ;
      200    15221                 CALL Z8EK$BRANCH_FALSE (@LAB, COMPARISON$) ;
      201    15222               END ;
      202    15223
      203    15224        %MEND ;
      204    15225
      205    15226        %EJECT;
PL6.E3A0      #001=Z8EZ$STRING File=Z8EZ.:Z8A6TSI                                SAT 08/09/97 12:59 Page:8
      206    15227    1        ID1$ = ADDR(ID1);
      207    15228    1        ID2$ = ADDR(ID2);
      208    15229    1        ID3$ = ADDR(ID3);
      209    15230    1        ID4$ = ADDR(ID4);
      210    15231
      211    15232    1        LENGTH_ID1$ = ADDR(LENGTH_ID1);
      212    15233    1        LENGTH_ID2$ = ADDR(LENGTH_ID2);
      213    15234    1        LENGTH_ID3$ = ADDR(LENGTH_ID3);
      214    15235
      215    15236    1        RECEIVING$ = ADDR(RECEIVING);
      216    15237
      217    15238    1        ONE$       = ADDR(ONE);
      218    15239    1        TWO$       = ADDR(TWO);
      219    15240    1        REMAINDER$ = ADDR(REMAINDER);
      220    15241    1        LENGTH_ID3_P1$       = ADDR(LENGTH_ID3_P1);
      221    15242    1        MINIMUM$   = ADDR(MINIMUM_);
      222    15243    1        INDEX$     = ADDR(INDX);
      223    15244    1        ADD$       = ADDR(ADD);
      224    15245    1        KANJI_LX_ETT$ = ADDR(KANJI_LX_ETT);
      225    15246    1        POINTER_TIMES2$ = ADDR(POINTER_TIMES2);
      226    15247    1        PLUS_ONE$ = ADDR(PLUS_ONE);
      227    15248
      228    15249        %EJECT;
PL6.E3A0      #001=Z8EZ$STRING File=Z8EZ.:Z8A6TSI                                SAT 08/09/97 12:59 Page:9
      229    15250        /*V* PASS 2 --- Validate the operands of the STRING statement */
      230    15251
      231    15252    1        IF COMCOM.OB.FIPS.LEVEL >= %INT_LEV THEN
      232    15253    1          CALL Z8AE$ERROR (%E$LEVEL_CHECK,
      233    15254    1                           O1COM.LINE_NO,
      234    15255    1                           O1COM.COLUMN_NO);
      235    15256    1        OPTIMIZABLE = TRUE ;
      236    15257    1        STRINGS$ = STRING_LIST$ -> LX_LIST.HEAD$;
      237    15258    1        ID1_MAX = 0 ; /* Count of number of id1's */
      238    15259
      239    15260    2        DO UNTIL(STRINGS$ = ADDR(NIL));
      240    15261    2          IDENTS$ = STRINGS$ -> LX_LIST.HEAD$ -> LX_LIST.HEAD$;
      241    15262
      242    15263    2          CALL VALIDATE_ID2(STRINGS$ -> LX_LIST.TAIL$) ALTRET(BAD_STRING);
      243    15264
      244    15265    3          DO UNTIL(IDENTS$ = ADDR(NIL));
      245    15266    3            ID1_MAX = ID1_MAX + 1 ;
      246    15267    3            CALL VALIDATE_ID1(IDENTS$) ALTRET(BAD_STRING);
      247    15268
      248    15269    3            IDENTS$ = IDENTS$ -> LX_LIST.LINK;
      249    15270    3          END /* Case */;
      250    15271
      251    15272    2        STRINGS$ = STRINGS$ -> LX_LIST.LINK;
      252    15273    2        END /* Case */;
      253    15274
      254    15275    1        CALL VALIDATE_ID3(INTO$) ALTRET(BAD_STRING);
      255    15276    1        CALL VALIDATE_ID4(POINTER$, INTO$) ALTRET(BAD_STRING);
      256    15277
      257    15278    1        IF ON_OVERFLOW$ ~= ADDR(NIL)   OR
      258    15279    1              NOT_ON_OVERFLOW$ ~= ADDR(NIL)     THEN
      259    15280    1          OVERFLOW = %TRUE;
      260    15281    1        IF OVERFLOW THEN OPTIMIZABLE = FALSE ;
      261    15282
      262    15283        %EJECT;
PL6.E3A0      #001=Z8EZ$STRING File=Z8EZ.:Z8A6TSI                                SAT 08/09/97 12:59 Page:10
      263    15284        /*V* PASS 3a -- Generate the ILL to do the STRING (optimizable).
      264    15285
      265    15286           STRING id1a, id1b, ... INTO id3.
      266    15287
      267    15288                       MVAN                   MVAN      . . .
      268    15289                      /    \                 /    \
      269    15290                   FISS    id1a            FISS   id1b
      270    15291                  /    \                  /    \
      271    15292               id3  length-id1a         OFF     length-id1b
      272    15293                                       /   \
      273    15294                                     id3  length-id1a
      274    15295        */
      275    15296
      276    15297    2        IF OPTIMIZABLE THEN DO ;
      277    15298
      278    15299    2          CURRENT_OFFSET = 0 ;
      279    15300    2          CALL PREPARE_ID3 (INTO$, ID3$) ;
      280    15301    2          ID3_LENGTH = LENGTH_ID3$
      281    15302    2                    -> LX_ETT_ITEM.ETT$
      282    15303    2                    -> ETT.LOP
      283    15304    2                    -> CONST.CONSTI.WORD1 ;
      284    15305
      285    15306    2          STRINGS$ = STRING_LIST$ -> LX_LIST.HEAD$ ;
      286    15307
      287    15308    3          DO UNTIL (STRINGS$ = ADDR(NIL)) ;
      288    15309
      289    15310    3            IDENTS$ = STRINGS$ -> LX_LIST.HEAD$ -> LX_LIST.HEAD$ ;
      290    15311
      291    15312    4            DO UNTIL (IDENTS$ = ADDR(NIL)) ;
      292    15313
      293    15314    4              CALL PREPARE_ID1 (IDENTS$, ID1$) ;
      294    15315
      295    15316    4              IF CURRENT_OFFSET < ID3_LENGTH THEN
      296    15317    4                CALL MOVE (ID3$, ID1$, LENGTH_ID1$
      297    15318    4                                    -> LX_ETT_ITEM.ETT$
      298    15319    4                                    -> ETT.LOP
      299    15320    4                                    -> CONST.CONSTI,
PL6.E3A0      #001=Z8EZ$STRING File=Z8EZ.:Z8A6TSI                                SAT 08/09/97 12:59 Page:11
      300    15321    4                           CURRENT_OFFSET) ;
      301    15322
      302    15323    4              IDENTS$ = IDENTS$ -> LX_ITEM.LINK ;
      303    15324
      304    15325    4            END ; /* Until Ident$ = Nil */
      305    15326
      306    15327    3            STRINGS$ = STRINGS$ -> LX_LIST.LINK ;
      307    15328
      308    15329    3          END ; /* Until String$ = Nil */
      309    15330
      310    15331    2        END ; /* Optimizable */
      311    15332
      312    15333    2       ELSE DO ;
      313    15334
      314    15335        %EJECT;
PL6.E3A0      #001=Z8EZ$STRING File=Z8EZ.:Z8A6TSI                                SAT 08/09/97 12:59 Page:12
      315    15336        /*V* PASS 3b -- Generate the ILL to do the STRING (non-optimizable) */
      316    15337
      317    15338    2          CALL Z8AC$LX_ETT_ITEM_TYI_CONST(1, ONE$);
      318    15339    2          CALL Z8AC$LX_ETT_ITEM_TYI_CONST(2, TWO$);
      319    15340
      320    15341    2          CALL Z8AT$CREATE_TEMPORARY(%PARA, OVERFLOW$);
      321    15342    2          CALL Z8AT$CREATE_TEMPORARY(%PARA, END_STRING$);
      322    15343
      323    15344    2          CALL PREPARE_ID3(INTO$, ID3$);
      324    15345    2          CALL PREPARE_ID4(POINTER$, INTO$, ID4$);
      325    15346
      326    15347    2          ID1_COUNT = 0 ;
      327    15348    2          STRINGS$ = STRING_LIST$ -> LX_LIST.HEAD$;
      328    15349
      329    15350               %FISH( TRIAD = ID3$ -> LX_ETT_ITEM.ETT$,
      330    15351                      RTN   = ID3_ST$ );
      331    15359
      332    15360    3          DO UNTIL(STRINGS$ = ADDR(NIL));
      333    15361    3            IDENTS$    = STRINGS$ -> LX_LIST.HEAD$ -> LX_LIST.HEAD$;
      334    15362
      335    15363    3            CALL PREPARE_ID2(STRINGS$ -> LX_LIST.TAIL$, ID2$);
      336    15364
      337    15365    4            DO UNTIL(IDENTS$ = ADDR(NIL));
      338    15366    4              ID1_COUNT = ID1_COUNT + 1 ;
      339    15367
      340    15368    4              IF ID3_ST$ -> SCALAR.B.KANJI    THEN
      341    15369    5                DO;
      342    15370
      343    15371                     /*  For Kanji, multiply pointer by 2 and subtract
      344    15372                         one.  Subtract is because offset in COBOL start
      345    15373                         at one and in PL6 at 0 */
      346    15374
      347    15375                       %INIT_BINARY_OP( @POINTER = POINTER_TIMES2$,
      348    15376                                        @OP   = %OP_STAR,
      349    15377                                        @LOP$ = ID4$,
      350    15378                                        @ROP$ = TWO$ );
      351    15396
PL6.E3A0      #001=Z8EZ$STRING File=Z8EZ.:Z8A6TSI                                SAT 08/09/97 12:59 Page:13
      352    15397                       %INIT_BINARY_OP( @POINTER = PLUS_ONE$,
      353    15398                                        @OP   = %OP_BINARY_MINUS,
      354    15399                                        @LOP$ = POINTER_TIMES2$,
      355    15400                                        @ROP$ = ONE$ );
      356    15418
      357    15419    5                  CALL Z8E5$MATH_PACK( PLUS_ONE$,
      358    15420    5                                       PLUS_ONE$ );
      359    15421
      360    15422    5                  CALL Z8E7$MOVE( ID4$,
      361    15423    5                                  PLUS_ONE$ );
      362    15424    5                END;
      363    15425
      364    15426
      365    15427    5              IF POINTER OR ID1_COUNT > 1 THEN DO ;
      366    15428    5                CALL Z8EK$COMPARE( ID4$ ,
      367    15429    5                                   %OP_GREATER_THAN ,
      368    15430    5                                   LENGTH_ID3$ ,
      369    15431    5                                   COMPARISON$);
      370    15432
      371    15433    5                CALL Z8EK$BRANCH_TRUE(OVERFLOW$, COMPARISON$);
      372    15434
      373    15435    5                CALL Z8ED$DISPOSE_ABSSYN_TREE(COMPARISON$);
      374    15436    5              END ; /* Pointer clause or this is not the 1st id1 */
      375    15437
      376    15438    4              CALL PREPARE_ID1(IDENTS$, ID1$);
      377    15439
      378    15440                   %INIT_BINARY_OP( @POINTER     = LENGTH_ID3_P1$ ,
      379    15441                                    @OP          = %OP_PLUS,
      380    15442                                    @LOP$        = LENGTH_ID3$ ,
      381    15443                                    @ROP$        = ONE$) ;
      382    15461
      383    15462                   %INIT_BINARY_OP( @POINTER     = REMAINDER$ ,
      384    15463                                    @OP          = %OP_BINARY_MINUS,
      385    15464                                    @LOP$        = LENGTH_ID3_P1$ ,
      386    15465                                    @ROP$        = ID4$ );
      387    15483
      388    15484    4              IF SIZE THEN
PL6.E3A0      #001=Z8EZ$STRING File=Z8EZ.:Z8A6TSI                                SAT 08/09/97 12:59 Page:14
      389    15485    5                DO;
      390    15486    5                  INDEX$ = LENGTH_ID1$ ; /* Index (id1, SIZE) */
      391    15487
      392    15488                       %INIT_BINARY_OP( @POINTER    = MINIMUM$ ,
      393    15489                                        @OP         = %OP_MINIMUM ,
      394    15490                                        @LOP$       = REMAINDER$ ,
      395    15491                                        @ROP$       = LENGTH_ID1$ );
      396    15509
      397    15510    5                  CALL Z8E5$MATH_PACK(MINIMUM$, MINIMUM$);
      398    15511
      399    15512    5                  IF POINTER OR ID1_COUNT ~= 1 THEN
      400    15513    5                    CALL Z8EY$INSERT(ID3$, ID4$, MINIMUM$, RECEIVING$);
      401    15514    5                  ELSE
      402    15515    5                    CALL Z8EY$INSERT (ID3$, ONE$, MINIMUM$, RECEIVING$) ;
      403    15516
      404    15517    5                  CALL Z8E7$MOVE(RECEIVING$, ID1$);
      405    15518    5                END;
      406    15519    4              ELSE
      407    15520    5                DO;
      408    15521    5                  INDEX_EXPR$ = ADDR (INDEX_EXPR) ;
      409    15522                       %INIT_LX_ETT_ITEM (@POINTER = INDEX$, @TYPE = %TYI) ;
      410    15544    5                  CALL Z8AT$CREATE_TEMP_WITH_BASE (%SCALAR,
      411    15545    5                                          INDEX$ -> LX_ETT_ITEM.ETT$) ;
      412    15546
      413    15547    5                  IF ID3_ST$ -> SCALAR.B.KANJI  THEN
      414    15548    5                    CALL KANJI_INDEX( INDEX$ );
      415    15549    5                  ELSE
      416    15550    6                    DO;
      417    15551                           %INIT_BINARY_OP( @POINTER    = INDEX_EXPR$ ,
      418    15552                                            @OP         = %OP_INDEX ,
      419    15553                                            @LOP$       = ID2$ ,
      420    15554                                            @ROP$       = ID1$ );
      421    15572
      422    15573    6                      CALL Z8E5$MATH_PACK (INDEX_EXPR$, INDEX_EXPR$) ;
      423    15574    6                      CALL Z8E7$MOVE (INDEX$, INDEX_EXPR$) ;
      424    15575    6                    END;
      425    15576
PL6.E3A0      #001=Z8EZ$STRING File=Z8EZ.:Z8A6TSI                                SAT 08/09/97 12:59 Page:15
      426    15577                       %INIT_BINARY_OP( @POINTER    = MINIMUM$ ,
      427    15578                                        @OP         = %OP_MINIMUM ,
      428    15579                                        @LOP$       = REMAINDER$ ,
      429    15580                                        @ROP$       = INDEX$ );
      430    15598
      431    15599    5                  CALL Z8E5$MATH_PACK(MINIMUM$, MINIMUM$);
      432    15600
      433    15601    5                  CALL Z8EY$INSERT(ID3$, ID4$, MINIMUM$, RECEIVING$);
      434    15602
      435    15603    5                  CALL Z8E7$MOVE(RECEIVING$, ID1$);
      436    15604    5                END;
      437    15605
      438    15606                   /* IF Remainder >= Index(id1,id2) THEN GO TO No_Overflow */
      439    15607
      440    15608    4              CALL Z8EK$COMPARE (REMAINDER$,
      441    15609    4                                 %OP_GREATER_THAN_OR_EQUAL,
      442    15610    4                                 INDEX$,
      443    15611    4                                 COMPARISON$) ;
      444    15612
      445    15613    4              CALL Z8AT$CREATE_TEMPORARY (%PARA, NO_OVERFLOW$) ;
      446    15614    4              CALL Z8EK$BRANCH_TRUE (NO_OVERFLOW$, COMPARISON$) ;
      447    15615    4              CALL Z8ED$DISPOSE_ABSSYN_TREE (COMPARISON$) ;
      448    15616
      449    15617    5              IF POINTER THEN DO ;
      450    15618
      451    15619                     /* MOVE Length(id3)+1 TO id4 */
      452    15620
      453    15621    5                IF ID3_ST$ -> SCALAR.B.KANJI   THEN
      454    15622    6                  DO;
      455    15623
      456    15624                         %INIT_BINARY_OP( @POINTER = PLUS_ONE$,
      457    15625                                          @OP   = %OP_PLUS,
      458    15626                                          @LOP$ = LENGTH_ID3_P1$,
      459    15627                                          @ROP$ = ONE$ );
      460    15645
      461    15646                         %INIT_BINARY_OP( @POINTER = KANJI_LX_ETT$,
      462    15647                                          @OP   = %OP_SLASH,
PL6.E3A0      #001=Z8EZ$STRING File=Z8EZ.:Z8A6TSI                                SAT 08/09/97 12:59 Page:16
      463    15648                                          @LOP$ = PLUS_ONE$,
      464    15649                                          @ROP$ = TWO$ );
      465    15667
      466    15668    6                    CALL Z8E5$MATH_PACK( KANJI_LX_ETT$,
      467    15669    6                                         KANJI_LX_ETT$ );
      468    15670
      469    15671    6                    CALL Z8E7$MOVE( ID4$,
      470    15672    6                                    KANJI_LX_ETT$ );
      471    15673    6                  END;
      472    15674    5                ELSE
      473    15675    6                  DO;
      474    15676    6                    CALL Z8E5$MATH_PACK( LENGTH_ID3_P1$,
      475    15677    6                                         LENGTH_ID3_P1$ );
      476    15678    6                    CALL Z8E7$MOVE( ID4$,
      477    15679    6                                    LENGTH_ID3_P1$ );
      478    15680    6                  END;
      479    15681
      480    15682    5              END ; /* POINTER clause used */
      481    15683
      482    15684                   /* GO TO Overflow */
      483    15685
      484    15686    4              CALL Z8EK$BRANCH (OVERFLOW$) ;
      485    15687
      486    15688                   %NEW_ILL (@ID = %DEFLB, @LOP = NO_OVERFLOW$) ;
      487    16067
      488    16068    5              IF POINTER OR ID1_COUNT ~= ID1_MAX THEN DO ;
      489    16069
      490    16070                     /* ADD Index(id1,id2) TO id4 */
      491    16071
      492    16072                     %INIT_BINARY_OP (@POINTER = ADD$,
      493    16073                                      @OP      = %OP_PLUS,
      494    16074                                      @LOP$    = ID4$,
      495    16075                                      @ROP$    = INDEX$) ;
      496    16093
      497    16094    5                IF ID3_ST$ -> SCALAR.B.KANJI   THEN
      498    16095    6                  DO;
      499    16096
PL6.E3A0      #001=Z8EZ$STRING File=Z8EZ.:Z8A6TSI                                SAT 08/09/97 12:59 Page:17
      500    16097                         %INIT_BINARY_OP( @POINTER = PLUS_ONE$,
      501    16098                                          @OP   = %OP_PLUS,
      502    16099                                          @LOP$ = ADD$,
      503    16100                                          @ROP$ = ONE$ );
      504    16118
      505    16119                         %INIT_BINARY_OP( @POINTER = KANJI_LX_ETT$,
      506    16120                                          @OP   = %OP_SLASH,
      507    16121                                          @LOP$ = PLUS_ONE$,
      508    16122                                          @ROP$ = TWO$ );
      509    16140
      510    16141    6                    CALL Z8E5$MATH_PACK( KANJI_LX_ETT$,
      511    16142    6                                         KANJI_LX_ETT$ );
      512    16143    6                    CALL Z8E7$MOVE( ID4$,
      513    16144    6                                    KANJI_LX_ETT$ );
      514    16145    6                  END;
      515    16146    5                ELSE
      516    16147    6                  DO;
      517    16148    6                    CALL Z8E5$MATH_PACK( ADD$, ADD$ );
      518    16149    6                    CALL Z8E7$MOVE( ID4$, ADD$ );
      519    16150    6                  END;
      520    16151
      521    16152    5              END ; /* POINTER clause or this is not the last ID1 */
      522    16153
      523    16154
      524    16155
      525    16156
      526    16157    4              IDENTS$ = IDENTS$ -> LX_ITEM.LINK;
      527    16158    4            END /* Until */;
      528    16159
      529    16160    3            STRINGS$ = STRINGS$ -> LX_LIST.LINK;
      530    16161    3          END /* Until */;
      531    16162
      532    16163               /*  Add NOT OVERFLOW if needed  */
      533    16164
      534    16165    2          IF NOT_ON_OVERFLOW$ ~= ADDR(NIL)    THEN
      535    16166    3            DO;
      536    16167                   %APPEND_ILS_LIST( @FROM$ = NOT_ON_OVERFLOW$,
PL6.E3A0      #001=Z8EZ$STRING File=Z8EZ.:Z8A6TSI                                SAT 08/09/97 12:59 Page:18
      537    16168                                     @TO$ = "ADDR(O1COM.ILS_LIST)" );
      538    16185    3            END;
      539    16186
      540    16187               /* GO TO END_STRING */
      541    16188
      542    16189    2          IF ON_OVERFLOW$ ~= ADDR(NIL)    THEN
      543    16190    2            CALL Z8EK$BRANCH (END_STRING$) ;
      544    16191
      545    16192               %NEW_ILL( @ID        = %DEFLB ,
      546    16193                         @LOP       = OVERFLOW$ );
      547    16572
      548    16573    2          IF ON_OVERFLOW$ ~= ADDR(NIL)   THEN
      549    16574    3            DO;
      550    16575                   %APPEND_ILS_LIST( @FROM$ = ON_OVERFLOW$,
      551    16576                                     @TO$   = "ADDR(O1COM.ILS_LIST)");
      552    16593
      553    16594                   %NEW_ILL( @ID     = %DEFLB ,
      554    16595                             @LOP    = END_STRING$ );
      555    16974    3            END;
      556    16975
      557    16976    2        END ; /* Not Optimizable */
      558    16977
      559    16978    1   BAD_STRING:;
      560    16979
      561    16980        %EJECT;
PL6.E3A0      #001=Z8EZ$STRING File=Z8EZ.:Z8A6TSI                                SAT 08/09/97 12:59 Page:19
      562    16981
      563    16982        /*I*   NAME: MOVE
      564    16983
      565    16984        DESCRIPTION: Move id1$ to Substring (id3$, offset, length).
      566    16985
      567    16986        */
      568    16987
      569    16988    1   MOVE: PROC (ID3$, ID1$, LENGTH, OFFSET) ;
      570    16989
      571    16990    2        DCL  ID3$               PTR ;
      572    16991    2        DCL  ID1$               PTR ;
      573    16992    2        DCL  OFFSET             SBIN WORD ;
      574    16993    2        DCL  LENGTH             SBIN WORD ;
      575    16994    2        DCL  RESULT$            PTR ;
      576    16995    2        DCL  ORIGINAL_ID3_ETT$  PTR ;
      577    16996    2        DCL  FISS_LENGTH        SBIN WORD ;
      578    16997
      579    16998    2        ORIGINAL_ID3_ETT$ = ID3$ -> LX_ETT_ITEM.ETT$ ;
      580    16999
      581    17000    3        IF OFFSET ~= 0 THEN DO ;
      582    17001
      583    17002    3          CALL Z8AF$NEW_OFF (ID3$ -> LX_ETT_ITEM.ETT$,
      584    17003    3                             OFFSET,
      585    17004    3                             RESULT$) ;
      586    17005    3          ID3$ -> LX_ETT_ITEM.ETT$ = RESULT$ ;
      587    17006
      588    17007    3        END ; /* Offset <> 0 */
      589    17008
      590    17009
      591    17010    2        IF ID3_LENGTH - OFFSET < LENGTH
      592    17011    2        THEN FISS_LENGTH = ID3_LENGTH - OFFSET ;
      593    17012    2        ELSE FISS_LENGTH = LENGTH ;
      594    17013    2        CALL Z8AF$NEW_FISS (ID3$ -> LX_ETT_ITEM.ETT$,
      595    17014    2                            FISS_LENGTH,
      596    17015    2                            %ALPHA_NUMERIC_FISS,
      597    17016    2                            RESULT$) ;
      598    17017    2        ID3$ -> LX_ETT_ITEM.ETT$ = RESULT$ ;
PL6.E3A0      #001=Z8EZ$STRING File=Z8EZ.:Z8A6TSI                                SAT 08/09/97 12:59 Page:20
      599    17018
      600    17019    2        CALL Z8E7$MOVE (ID3$, ID1$) ;
      601    17020
      602    17021    2        ID3$ -> LX_ETT_ITEM.ETT$ = ORIGINAL_ID3_ETT$ ;
      603    17022    2        OFFSET = OFFSET + LENGTH ; /* ready for next call to MOVE */
      604    17023
      605    17024    2   END MOVE ;
      606    17025
      607    17026        %EJECT;
PL6.E3A0      #001=Z8EZ$STRING File=Z8EZ.:Z8A6TSI                                SAT 08/09/97 12:59 Page:21
      608    17027        /*I*   NAME: VALIDATE_IDn, n = 1 -> 4
      609    17028
      610    17029        DESCRIPTION: These routines are used by Pass 2 of Z8EZ$STRING.
      611    17030                     They validate the semantics of each identifier.
      612    17031
      613    17032        */
      614    17033
      615    17034        %EJECT;
PL6.E3A0      #001=Z8EZ$STRING File=Z8EZ.:Z8A6TSI                                SAT 08/09/97 12:59 Page:22
      616    17035    1   VALIDATE_ID1: PROC (ID1$) ALTRET;
      617    17036
      618    17037    2        DCL ID1$    PTR;
      619    17038
      620    17039    2        IF ID1$ -> LX_ITEM.ID = %LX_ETT_ITEM THEN        /*#31090*/
      621    17040    2          IF ID1$ -> LX_ETT_ITEM.TYPE ~= %TYA
      622    17041    2          AND ID1$ -> LX_ETT_ITEM.TYPE ~= %TYN
      623    17042    2          THEN OPTIMIZABLE = FALSE ;
      624    17043
      625    17044    2        CALL Z8CO$DISPL_CHECK(ID1$) ALTRET(BAD);
      626    17045
      627    17046    3        IF ID1$ -> LX_ITEM.ID = %LX_ETT_ITEM THEN DO ;
      628    17047    4          DO CASE(ID1$ -> LX_ETT_ITEM.TYPE);
      629    17048    4            CASE(%TYD, %TYO, %TYF, %TYC);
      630    17049    4              CALL INTEGER_CHECK(ID1$);
      631    17050    4              CALL Z8CO$P_CHECK(ID1$) ALTRET(BAD);
      632    17051    4          END /* Case */;
      633    17052
      634    17053    3          CALL Z8AU$TYPE_DESCRIPTOR (ID1$ -> LX_ETT_ITEM.ETT$,
      635    17054    3                                     TYPE_DESC) ;
      636    17055    3          IF TYPE_DESC.SIZ$ ~= ADDR(NIL)
      637    17056    3          THEN OPTIMIZABLE = FALSE ;
      638    17057    3        END ;
      639    17058
      640    17059    2        RETURN;
      641    17060
      642    17061    2   BAD:
      643    17062    2        ALTRETURN;
      644    17063
      645    17064    2   END VALIDATE_ID1;
      646    17065        %EJECT;
PL6.E3A0      #001=Z8EZ$STRING File=Z8EZ.:Z8A6TSI                                SAT 08/09/97 12:59 Page:23
      647    17066    1   VALIDATE_ID2: PROC (ID2$) ALTRET;
      648    17067
      649    17068    2        DCL ID2$    PTR;
      650    17069
      651    17070
      652    17071    2        SIZE = FALSE;
      653    17072
      654    17073    2        IF ID2$ -> LX_ITEM.ID = %LX_TERMINAL THEN
      655    17074    2          IF ID2$ -> LX_TERMINAL.SYMBOL = %RSV_WRD_SIZE THEN
      656    17075    2            SIZE = TRUE;
      657    17076
      658    17077    2        IF NOT SIZE THEN
      659    17078    3          DO;
      660    17079    3            OPTIMIZABLE = FALSE ;
      661    17080    3            CALL Z8CO$DISPL_CHECK(ID2$) ALTRET(BAD);
      662    17081
      663    17082    3            IF ID2$ -> LX_ITEM.ID = %LX_ETT_ITEM THEN
      664    17083    4              DO CASE(ID2$ -> LX_ETT_ITEM.TYPE);
      665    17084    4                CASE(%TYD, %TYO, %TYF, %TYC);
      666    17085    4                  CALL INTEGER_CHECK(ID2$);
      667    17086    4                  CALL Z8CO$P_CHECK(ID2$) ALTRET(BAD);
      668    17087    4              END /* Case */;
      669    17088    3          END;
      670    17089
      671    17090    2        RETURN;
      672    17091
      673    17092    2   BAD:
      674    17093    2        ALTRETURN;
      675    17094
      676    17095
      677    17096    2   END VALIDATE_ID2;
      678    17097        %EJECT;
PL6.E3A0      #001=Z8EZ$STRING File=Z8EZ.:Z8A6TSI                                SAT 08/09/97 12:59 Page:24
      679    17098    1   VALIDATE_ID3: PROC (ID3$) ALTRET;
      680    17099
      681    17100    2        DCL ID3$                PTR;
      682    17101    2        DCL ST$$                PTR;
      683    17102
      684    17103    2        IF ID3$ -> LX_ETT_ITEM.TYPE ~= %TYA
      685    17104    2        AND ID3$ -> LX_ETT_ITEM.TYPE ~= %TYN
      686    17105    2        THEN OPTIMIZABLE = FALSE ;
      687    17106
      688    17107    2        CALL Z8CO$DISPL_CHECK (ID3$) ALTRET (BAD) ;
      689    17108
      690    17109             %FISH(TRIAD = ID3$ -> LX_ETT_ITEM.ETT$, RTN = ST$$);
      691    17117
      692    17118    2        IF ST$$ -> VARIABLE.B.SUB_CLASS.EDITED THEN
      693    17119    3          DO;
      694    17120    3            CALL Z8AE$ERROR(%E$EDITED_INVALID,
      695    17121    3                            ID3$ -> LX_ETT_ITEM.LINE ,
      696    17122    3                            ID3$ -> LX_ETT_ITEM.COLUMN );
      697    17123    3            GOTO BAD ;
      698    17124    3          END;
      699    17125
      700    17126    2        IF ST$$ -> VARIABLE.B.JUSTIFIED THEN
      701    17127    3          DO;
      702    17128    3            CALL Z8AE$ERROR(%E$JUSTIFIED_INVALID,
      703    17129    3                            ID3$ -> LX_ETT_ITEM.LINE ,
      704    17130    3                            ID3$ -> LX_ETT_ITEM.COLUMN );
      705    17131    3            GOTO BAD ;
      706    17132    3          END;
      707    17133
      708    17134    2        CALL Z8AU$TYPE_DESCRIPTOR (ID3$ -> LX_ETT_ITEM.ETT$,
      709    17135    2                                   TYPE_DESC) ;
      710    17136    2        IF TYPE_DESC.SIZ$ ~= ADDR(NIL)
      711    17137    2        THEN OPTIMIZABLE = FALSE ;
      712    17138
      713    17139    2        RETURN;
      714    17140
      715    17141    2   BAD:
PL6.E3A0      #001=Z8EZ$STRING File=Z8EZ.:Z8A6TSI                                SAT 08/09/97 12:59 Page:25
      716    17142    2        ALTRETURN ;
      717    17143
      718    17144    2   END VALIDATE_ID3;
      719    17145        %EJECT;
PL6.E3A0      #001=Z8EZ$STRING File=Z8EZ.:Z8A6TSI                                SAT 08/09/97 12:59 Page:26
      720    17146    1   VALIDATE_ID4: PROC (ID4$, ID3$) ALTRET;
      721    17147
      722    17148    2        DCL ID4$    PTR;
      723    17149    2        DCL ID3$    PTR;
      724    17150
      725    17151    2        DCL ETT$$   PTR;
      726    17152    2        DCL ID4_MAX SBIN WORD;
      727    17153    2        DCL ID3_LEN SBIN WORD;
      728    17154
      729    17155    2        POINTER =   ID4$ -> LX_ITEM.ID ~= %LX_TERMINAL;
      730    17156
      731    17157    2        IF POINTER THEN
      732    17158    3          DO;
      733    17159    3            OPTIMIZABLE = FALSE ;
      734    17160    3            CALL Z8CO$INTEGER_CHECK(ID4$) ALTRET(BAD);
      735    17161    3            CALL Z8CO$P_CHECK(ID4$) ALTRET(BAD);
      736    17162
      737    17163    3            CALL Z8EZ$MAX_VALUE(ID4$, ID4_MAX);
      738    17164    3            CALL Z8AU$LENGTH_ETT(ID3$ -> LX_ETT_ITEM.ETT$, ETT$$);
      739    17165
      740    17166    4            IF ETT$$ -> ETT.ID = %TRIAD THEN DO ; /* Size is constant */
      741    17167
      742    17168    4              ID3_LEN = ETT$$ -> ETT.LOP -> CONST.CONSTI.WORD1 ;
      743    17169
      744    17170    5              IF ID4_MAX < (1 + ID3_LEN) THEN DO ;
      745    17171    5                CALL Z8AE$ERROR(%E$INSUFFICIENT_SIGNIFICANCE,
      746    17172    5                                ID4$ -> LX_ETT_ITEM.LINE,
      747    17173    5                                ID4$ -> LX_ETT_ITEM.COLUMN) ;
      748    17174    5                ALTRETURN ;
      749    17175    5              END ; /* ID4 max value < ID3 Length + 1 */
      750    17176    4            END ; /* ID3 has a constant length */
      751    17177    3          END ; /* POINTER clause exists */
      752    17178
      753    17179    2        RETURN;
      754    17180
      755    17181    2   BAD:
      756    17182    2        ALTRETURN;
PL6.E3A0      #001=Z8EZ$STRING File=Z8EZ.:Z8A6TSI                                SAT 08/09/97 12:59 Page:27
      757    17183
      758    17184    2   END VALIDATE_ID4;
      759    17185        %EJECT;
PL6.E3A0      #001=Z8EZ$STRING File=Z8EZ.:Z8A6TSI                                SAT 08/09/97 12:59 Page:28
      760    17186        /*I*   NAME: INTEGER_CHECK
      761    17187
      762    17188        DESCRIPTION: This routine issues a warning message if the identifier
      763    17189                     is not an integer variable.
      764    17190
      765    17191        */
      766    17192    1   INTEGER_CHECK:PROC(ID$);
      767    17193
      768    17194    2        DCL ID$ PTR;
      769    17195
      770    17196    2        CALL Z8CO$INTEGER_CHECK_NO_ERROR (ID$)
      771    17197    3          WHENALTRETURN DO;
      772    17198                 %CONDITIONAL_ERROR (@LX_ITEM$ = ID$,
      773    17199                                     @ERROR#   = %E$SHOULD_BE_INTEGER,
      774    17200                                     @LINE     = ID$ -> LX_ETT_ITEM.LINE,
      775    17201                                     @COLUMN   = ID$ -> LX_ETT_ITEM.COLUMN);
      776    17231    3          END;
      777    17232
      778    17233    2   END INTEGER_CHECK;
      779    17234        %EJECT;
PL6.E3A0      #001=Z8EZ$STRING File=Z8EZ.:Z8A6TSI                                SAT 08/09/97 12:59 Page:29
      780    17235        /*I*   NAME: PREPARE_IDn, n = 1 -> 4
      781    17236
      782    17237        DESCRIPTION: These routines are used by Pass 3 of Z8EZ$STRING.
      783    17238                     They prepare each operand for use by the general
      784    17239                     STRING algorithm.  This includes conversions from
      785    17240                     one type to another, setting the type for a constant,
      786    17241                     and finding the length of an operand.
      787    17242
      788    17243        */
      789    17244
      790    17245        %EJECT;
PL6.E3A0      #001=Z8EZ$STRING File=Z8EZ.:Z8A6TSI                                SAT 08/09/97 12:59 Page:30
      791    17246    1   PREPARE_ID1:PROC(ID1$, RETURN$);
      792    17247
      793    17248    2        DCL ID1$          PTR;
      794    17249    2        DCL RETURN$       PTR;
      795    17250
      796    17251
      797    17252    2        IF ID1$ -> LX_ITEM.ID = %LX_TERMINAL THEN
      798    17253    3          DO ;
      799    17254    3            CALL Z8EV$CONVERT_TYA (ID1$, RETURN$, ID3$) ;
      800    17255    3            RETURN$ -> LX_ETT_ITEM.B.ALL = FALSE ; /* Move only one character */
      801    17256    3          END ;
      802    17257    2        ELSE
      803    17258    2          RETURN$ -> LX_ETT_ITEM = ID1$ -> LX_ETT_ITEM ;
      804    17259
      805    17260    3        DO CASE (RETURN$ -> LX_ETT_ITEM.TYPE) ;
      806    17261
      807    17262    3          CASE (%TYO, %TYD) ;
      808    17263
      809    17264    3            CALL Z8AF$FORME (%DNA, RETURN$ -> LX_ETT_ITEM.ETT$,
      810    17265    3                                0, RETURN$ -> LX_ETT_ITEM.ETT$) ;
      811    17266    3            RETURN$ -> LX_ETT_ITEM.TYPE = %TYA ;
      812    17267
      813    17268    3          CASE (%TYE, %TYF, %TYB, %TYC) ;
      814    17269
      815    17270    3            IF RETURN$ -> LX_ETT_ITEM.TYPE = %TYE OR
      816    17271    3                RETURN$ -> LX_ETT_ITEM.TYPE = %TYF
      817    17272    3              THEN OP = %OP_EBCDIC_TO_ASCII ;
      818    17273    3              ELSE OP = %OP_GBCD_TO_ASCII ;
      819    17274
      820    17275    3            CALL Z8CO$CREATE_LIBRARY_BASE (OP, TABLE_ETT$) ;
      821    17276
      822    17277    3            CALL Z8AF$FORME (%CVT,
      823    17278    3                             RETURN$ -> LX_ETT_ITEM.ETT$,
      824    17279    3                             TABLE_ETT$,
      825    17280    3                             RETURN$ -> LX_ETT_ITEM.ETT$) ;
      826    17281
      827    17282    3            IF RETURN$ -> LX_ETT_ITEM.TYPE = %TYF OR
PL6.E3A0      #001=Z8EZ$STRING File=Z8EZ.:Z8A6TSI                                SAT 08/09/97 12:59 Page:31
      828    17283    3                RETURN$ -> LX_ETT_ITEM.TYPE = %TYC THEN
      829    17284    3              CALL Z8AF$FORME (%DNA,
      830    17285    3                               RETURN$ -> LX_ETT_ITEM.ETT$,
      831    17286    3                               0,
      832    17287    3                               RETURN$ -> LX_ETT_ITEM.ETT$) ;
      833    17288
      834    17289    3            RETURN$ -> LX_ETT_ITEM.TYPE = %TYA ;
      835    17290
      836    17291    3          CASE (%TYA, %TYN);
      837    17292
      838    17293    3          CASE (ELSE) ;
      839    17294
      840    17295    3            CALL Z8AE$ERROR (%E$UNEXPECTED_CASE) ;
      841    17296
      842    17297    3        END ; /* Case of RETURN$ type */
      843    17298
      844    17299    2        CALL Z8AU$LENGTH(RETURN$ -> LX_ETT_ITEM.ETT$,
      845    17300    2                         LENGTH_ID1$);
      846    17301
      847    17302    2   END PREPARE_ID1;
      848    17303
      849    17304        %EJECT;
PL6.E3A0      #001=Z8EZ$STRING File=Z8EZ.:Z8A6TSI                                SAT 08/09/97 12:59 Page:32
      850    17305    1   PREPARE_ID2:PROC(ID2$, RETURN$);
      851    17306
      852    17307    2        DCL ID2$       PTR;
      853    17308    2        DCL RETURN$    PTR;
      854    17309
      855    17310
      856    17311    2        SIZE = FALSE;
      857    17312
      858    17313    2        IF ID2$ -> LX_ITEM.ID = %LX_TERMINAL THEN
      859    17314    2          IF ID2$ -> LX_TERMINAL.SYMBOL = %RSV_WRD_SIZE THEN
      860    17315    2            SIZE = TRUE;
      861    17316
      862    17317    3        IF NOT SIZE THEN DO ;
      863    17318    3          IF ID2$ -> LX_ITEM.ID = %LX_TERMINAL THEN
      864    17319    3            CALL Z8EV$CONVERT_TYA (ID2$, RETURN$, ID3$) ;
      865    17320    3          ELSE
      866    17321    3            RETURN$ -> LX_ETT_ITEM = ID2$ -> LX_ETT_ITEM;
      867    17322    3          CALL Z8AU$LENGTH (RETURN$ ->LX_ETT_ITEM.ETT$,
      868    17323    3                            LENGTH_ID2$) ;
      869    17324    3        END ; /* Not SIZE */
      870    17325
      871    17326    2   END PREPARE_ID2;
      872    17327        %EJECT;
PL6.E3A0      #001=Z8EZ$STRING File=Z8EZ.:Z8A6TSI                                SAT 08/09/97 12:59 Page:33
      873    17328    1   PREPARE_ID3:PROC(ID3$, RETURN$);
      874    17329
      875    17330    2        DCL ID3$         PTR;
      876    17331    2        DCL RETURN$      PTR;
      877    17332
      878    17333    2        RETURN$ -> LX_ETT_ITEM = ID3$ -> LX_ETT_ITEM;
      879    17334
      880    17335    2        CALL Z8AU$LENGTH(RETURN$ -> LX_ETT_ITEM.ETT$,
      881    17336    2                         LENGTH_ID3$);
      882    17337
      883    17338
      884    17339    2   END PREPARE_ID3;
      885    17340
      886    17341        %EJECT;
PL6.E3A0      #001=Z8EZ$STRING File=Z8EZ.:Z8A6TSI                                SAT 08/09/97 12:59 Page:34
      887    17342
      888    17343    1   PREPARE_ID4:PROC(ID4$, ID3$, RETURN$);
      889    17344
      890    17345    2        DCL ID4$       PTR;
      891    17346    2        DCL ID3$       PTR;
      892    17347    2        DCL RETURN$    PTR;
      893    17348
      894    17349
      895    17350
      896    17351    2        IF NOT POINTER THEN
      897    17352    3          DO;
      898    17353                 %INIT_LX_ETT_ITEM( @POINTER   = RETURN$ ,
      899    17354                                    @TYPE      = %TYI );
      900    17376
      901    17377    3            CALL Z8AT$CREATE_TEMP_WITH_BASE(%SCALAR,
      902    17378    3                                            RETURN$ -> LX_ETT_ITEM.ETT$ );
      903    17379
      904    17380    3            CALL Z8E7$MOVE(RETURN$, ONE$);
      905    17381    3          END;
      906    17382    2        ELSE
      907    17383    2          RETURN$ -> LX_ETT_ITEM = ID4$ -> LX_ETT_ITEM;
      908    17384    2   END PREPARE_ID4;
      909    17385        %EJECT;
PL6.E3A0      #001=Z8EZ$STRING File=Z8EZ.:Z8A6TSI                                SAT 08/09/97 12:59 Page:35
      910    17386        /*===========*/
      911    17387    1     KANJI_INDEX : PROC ( COUNT$ );
      912    17388        /*===========*/
      913    17389
      914    17390    2   DCL BEGAIN_INDEX$       PTR;
      915    17391    2   DCL END_INDEX$          PTR;
      916    17392
      917    17393        %DCL_AUTO_LX_ITEM( @NAME = COUNT );
      918    17397        %DCL_AUTO_LX_ITEM( @NAME = SUB );
      919    17401        %DCL_AUTO_LX_ITEM( @NAME = COMPARISON );
      920    17405        %DCL_AUTO_LX_ITEM( @NAME = LENGTH_ID1 );
      921    17409        %DCL_AUTO_LX_ITEM( @NAME = LENGTH_ID2 );
      922    17413        %DCL_AUTO_LX_ITEM( @NAME = SUB_STR );
      923    17417
      924    17418    2   DCL COUNT$              PTR;
      925    17419    2   DCL COUNT_BASE$         PTR;
      926    17420    2   DCL SUBSTR$             PTR;
      927    17421    2   DCL SUB$                PTR;
      928    17422    2   DCL COMPARISON$         PTR;
      929    17423    2   DCL LENGTH_ID1$         PTR;
      930    17424    2   DCL LENGTH_ID2$         PTR;
      931    17425
      932    17426
      933    17427    2   SUB$ = ADDR( SUB );
      934    17428    2   SUBSTR$ = ADDR( SUB_STR );
      935    17429
      936    17430    2   CALL Z8AT$CREATE_TEMPORARY( %PARA, BEGAIN_INDEX$ );
      937    17431    2   CALL Z8AT$CREATE_TEMPORARY( %PARA, END_INDEX$ );
      938    17432
      939    17433    2   LENGTH_ID2$ = ADDR( LENGTH_ID2 );
      940    17434    2   CALL Z8AU$LENGTH( ID2$ -> LX_ETT_ITEM.ETT$,
      941    17435    2                     LENGTH_ID2$ );
      942    17436    2   LENGTH_ID1$ = ADDR( LENGTH_ID1 );
      943    17437    2   CALL Z8AU$LENGTH( ID1$ -> LX_ETT_ITEM.ETT$,
      944    17438    2                     LENGTH_ID1$ );
      945    17439
      946    17440        %NEW_ILL( @ID  = %MVII,
PL6.E3A0      #001=Z8EZ$STRING File=Z8EZ.:Z8A6TSI                                SAT 08/09/97 12:59 Page:36
      947    17441                  @LOP = COUNT$ -> LX_ETT_ITEM.ETT$,
      948    17442                  @ROP = COMCOM.VALUE_0 );
      949    17821
      950    17822        %NEW_ILL( @ID  = %DEFLB,
      951    17823                  @LOP = BEGAIN_INDEX$ );
      952    18202
      953    18203        %INIT_BINARY_OP( @POINTER = SUB$,
      954    18204                         @LOP$    = LENGTH_ID1$,
      955    18205                         @ROP$    = TWO$,
      956    18206                         @OP      = %OP_BINARY_MINUS,
      957    18207                         @LINE    = "ID1$ -> LX_ETT_ITEM.LINE",
      958    18208                         @COLUMN  = "ID1$ -> LX_ETT_ITEM.COLUMN" );
      959    18226
      960    18227        %IF_THEN_DO( @LOP = COUNT$,
      961    18228                     @ROP = SUB$,
      962    18229                     @REL = %OP_LESS_THAN_OR_EQUAL,
      963    18230                     @LAB = END_INDEX$ );
      964    18264
      965    18265    2   CALL Z8EA$SUBSTR_ZERO( ID1$,
      966    18266    2                          COUNT$,
      967    18267    2                          LENGTH_ID2$,
      968    18268    2                          SUBSTR$ );
      969    18269    2   COMPARISON$ = ADDR( COMPARISON );
      970    18270
      971    18271        %INIT_BINARY_OP( @POINTER = COMPARISON$,
      972    18272                         @LOP$    = SUBSTR$,
      973    18273                         @OP      = %OP_EQUAL,
      974    18274                         @ROP$    = ID2$,
      975    18275                         @LINE    = "ID2$ -> LX_ETT_ITEM.LINE",
      976    18276                         @COLUMN  = "ID2$ -> LX_ETT_ITEM.COLUMN" );
      977    18294
      978    18295    2   CALL Z8EK$BRANCH_TRUE( END_INDEX$,
      979    18296    2                          COMPARISON$ );
      980    18297
      981    18298        %NEW_ILL( @ID  = %AD2I,
      982    18299                  @LOP = COUNT$ -> LX_ETT_ITEM.ETT$,
      983    18300                  @ROP = TWO$ -> LX_ETT_ITEM.ETT$ );
PL6.E3A0      #001=Z8EZ$STRING File=Z8EZ.:Z8A6TSI                                SAT 08/09/97 12:59 Page:37
      984    18679
      985    18680    2   CALL Z8EK$BRANCH( BEGAIN_INDEX$ );
      986    18681
      987    18682        %NEW_ILL( @ID = %DEFLB,
      988    18683                  @LOP = END_INDEX$ );
      989    19062
      990    19063
      991    19064    2   END KANJI_INDEX;
      992    19065    1   END Z8EZ$STRING;
      993    19066
      994    19067        %EOD;

PL6.E3A0      #001=Z8EZ$STRING File=Z8EZ.:Z8A6TSI                                SAT 08/09/97 12:59 Page:38
--  Include file information  --

   Z8A_ERR_NUMS.:Z8A6TOU  is referenced.
   Z8A_TYPES.:Z8A6TOU  is referenced.
   Z8E_ILS_LIST.:Z8A6TOU  is referenced.
   Z8A_ILS.:Z8A6TOU  cannot be made into a system file and is referenced.
   Z8E_WINDOW.:Z8A6TOU  is referenced.
   Z8E_HEAP.:Z8A6TOU  cannot be made into a system file and is referenced.
   Z8E_O1COM.:Z8A6TOU  cannot be made into a system file and is referenced.
   Z8A_LIBRARY.:Z8A6TOU  cannot be made into a system file and is referenced.
   Z8A_COMCOM.:Z8A6TOU  cannot be made into a system file and is referenced.
   Z8A_ILL.:Z8A6TOU  cannot be made into a system file and is referenced.
   Z8A_ETT.:Z8A6TOU  cannot be made into a system file and is referenced.
   Z8A_ST.:Z8A6TOU  cannot be made into a system file and is referenced.
   Z8A_LEX_SYMB.:Z8A6TOU  cannot be made into a system file and is referenced.
   Z8E_STACKS.:Z8A6TOU  cannot be made into a system file and is referenced.
   Z8E_NEW_ILL.:Z8A6TOU  is referenced.
   Z8E_MACROS.:Z8A6TOU  cannot be made into a system file and is referenced.
   X8A_COM_MACS.:X8A6TOU  is referenced.
   Z8A_NAMES.:Z8A6TOU  is referenced.
   Z8A_SUPP_MAC.:Z8A6TOU  is referenced.
   Z8A_DEFC.:Z8A6TOU  cannot be made into a system file and is referenced.
      No diagnostics issued in procedure Z8EZ$STRING.

   Procedure Z8EZ$STRING requires 1772 words for executable code.
   Procedure Z8EZ$STRING requires 286 words of local(AUTO) storage.

PL6.E3A0      #001=Z8EZ$STRING File=Z8EZ.:Z8A6TSI                                SAT 08/09/97 12:59 Page:39

 Object Unit name= Z8EZ$STRING                                File name= Z8EZ.:Z8A6TOU
 UTS= AUG 09 '97 12:59:58.44 SAT                              Compiler= PL-6/E31         Sev=      00
 SharedLib= :SHARED_SYSTEM                                    Alt SharedLib=


    ****  Control sections  ****

 Sect   Type Bound  Init  Size OctSiz  Section name(segment info)
    0  LblCom even  none     1      1  ITERATION
    1  LblCom even  none    90    132  LEX_SYMBOL
    2  LblCom even  none     1      1  CURRENT_LEX_SYMBOL$
    3  LblCom even  none    90    132  TEMP_LEX_SYMBOL
    4  LblCom even  none    90    132  TEMP_LEX_SYMBOL2
    5  LblCom even  none     1      1  ST$
    6  LblCom even  none     5      5  ST_
    7  LblCom even  none     1      1  ETT$
    8  LblCom even  none     1      1  HEAD_ETT$
    9  LblCom even  none   512   1000  ETT_BUCKETS
   10  LblCom even  none     5      5  ETT_
   11  LblCom even  none     1      1  ILL$
   12  LblCom even  none     5      5  ILL_
   13  LblCom even  none     1      1  HEAP$
   14  LblCom even  none     1      1  ILS$
   15  LblCom even  none     5      5  ILS_
   16   Proc  even  none  1772   3354  Z8EZ$STRING
   17  RoData even  none    52     64  Z8EZ$STRING

    ****  Entry defs  ****

                              Check   Calling
                             calling  sequence
  Sect OctLoc Primary Altret sequence   type   Parms  Name
    16      0   yes            yes      Std        5  Z8EZ$STRING
PL6.E3A0      #001=Z8EZ$STRING File=Z8EZ.:Z8A6TSI                                SAT 08/09/97 12:59 Page:40

  ****  Entry refs  ****

         Check        Calling
        calling       sequence
Altret sequence SRef   type   Args  Name
         yes           Std      12 Z8AE$ERROR
         yes           Std       2 Z8AT$CREATE_TEMPORARY
         yes           Std       4 Z8EK$COMPARE
         yes           Std       4 Z8AN$NEW_ILL
         yes           Std       1 Z8EK$BRANCH
         yes           Std       2 Z8EK$BRANCH_TRUE
         yes           Std       1 Z8ED$DISPOSE_ABSSYN_TREE
         yes           Std       2 Z8AT$CREATE_TEMP_WITH_BASE
         yes           Std       2 Z8AC$LX_ETT_ITEM_TYI_CONST
         yes           Std       2 Z8E7$MOVE
         yes           Std       2 Z8E5$MATH_PACK
         yes           Std       4 Z8EY$INSERT
         yes           Std       3 Z8AF$NEW_OFF
         yes           Std       4 Z8AF$NEW_FISS
 yes     yes           Std       1 Z8CO$DISPL_CHECK
 yes     yes           Std       1 Z8CO$P_CHECK
         yes           Std       2 Z8AU$TYPE_DESCRIPTOR
 yes     yes           Std       1 Z8CO$INTEGER_CHECK
         yes           Std       2 Z8AU$LENGTH_ETT
         yes           Std       2 Z8EZ$MAX_VALUE
 yes     yes           Std       1 Z8CO$INTEGER_CHECK_NO_ERROR
         yes           Std       3 Z8EV$CONVERT_TYA
         yes           Std       2 Z8CO$CREATE_LIBRARY_BASE
         yes           Std       4 Z8AF$FORME
         yes           Std       2 Z8AU$LENGTH
         yes           Std       4 Z8EA$SUBSTR_ZERO
         yes           Std       5 Z8AN$NEW_ILL1
         yes           Std       2 Z8EK$BRANCH_FALSE
                       nStd      0 X66_AUTO_5
                       nStd      0 X66_ARET
PL6.E3A0      #001=Z8EZ$STRING File=Z8EZ.:Z8A6TSI                                SAT 08/09/97 12:59 Page:41

  ****  Data refs  ****

  Flags:  r = read only, s = secondary
Flgs Name                             Flgs Name                             Flgs Name
r    ILL_STEP                              COMCOM                                O1COM
     HIER_STK_PTR                          HIER_STK                              PAGE_FORMAT
     REP_STK_PTR                           REP_STK                          r    ILS_STEP_TABLE

  ****  Segment refs  ****

  Flags:  r = read only, s = secondary
Flgs Name                             Flgs Name                             Flgs Name
     ISSID                                 NULLSID
PL6.E3A0      #001=Z8EZ$STRING File=Z8EZ.:Z8A6TSI                                SAT 08/09/97 12:59 Page:42


        1        1        /*M*  Z8EZ -- Create ILL/ETT for STRING and UNSTRING statements */
        2        2        /*T***********************************************************/
        3        3        /*T*                                                         */
        4        4        /*T* Copyright (c) Bull HN Information Systems Inc., 1997    */
        5        5        /*T*                                                         */
        6        6        /*T***********************************************************/
        7        7
        8        8        /*P*   NAME: Z8EZ$STRING
        9        9             AUTHOR: Mark Glenn  (Extract comments by John Heath)
       10       10            PURPOSE: This procedure does semantic checking and produces
       11       11                     the ILL/ETT for the STRING statement.
       12       12        */
       13       13
       14       14        /*D*   NAME: Z8EZ$STRING
       15       15
       16       16              INPUT: Abstract Syntax Tree for the STRING statement.
       17       17
       18       18             OUTPUT: ILS/ILL/ETT intermediate language items.
       19       19
       20       20        DESCRIPTION: Phase 1 makes 3 passes on the STRING statement.
       21       21                     The first pass (Z8EN) produces the Abstract
       22       22                     Syntax Tree (AST).  The second and third passes
       23       23                     are done by this procedure.
       24       24
       25       25             Pass 2: Validate the operands of the STRING statement.
       26       26
       27       27             Pass 3: Generate the intermediate language items to do
       28       28                     the STRING statement.  The STRING statement is
       29       29                     broken down into smaller statements (MOVE, IF, etc.)
       30       30                     by this module, thus it makes calls to procedures
       31       31                     used by these smaller statements (Z8E7$MOVE,
       32       32                     Z8EK$BRANCH_TRUE, etc.).
       33       33
       34       34                     Pass 3 is broken into two parts: optimizable and
       35       35                     not-optimizable.  The algorithm for optimizable
       36       36                     STRING (simple STRING with no DELIMITED clauses)
PL6.E3A0      #001=Z8EZ$STRING File=Z8EZ.:Z8A6TSI                                SAT 08/09/97 12:59 Page:43
       37       37                     generates a series of MOVEs.  The algorithm for
       38       38                     non-optimizable STRING is highly dependent on the
       39       39                     types and numbers of optional clauses used in the
       40       40                     the statement.
       41       41        */
       42       42
       43       43        %EJECT;
PL6.E3A0      #001=Z8EZ$STRING File=Z8EZ.:Z8A6TSI                                SAT 08/09/97 12:59 Page:44
       44       44        Z8EZ$STRING:PROC( STRING_LIST$ ,

     44 16 000000   000000 700200 xent  Z8EZ$STRING  TSX0  ! X66_AUTO_5
        16 000001   000436 000005                    ZERO    286,5

       45       45                          INTO$ ,
       46       46                          POINTER$ ,
       47       47                          ON_OVERFLOW$,
       48       48                          NOT_ON_OVERFLOW$ );
       49       49
       50       50
       51       51    1        DCL KEYWORD$       PTR;
       52       52    1        DCL INTO$          PTR;
       53       53    1        DCL POINTER$      PTR;
       54       54    1        DCL STRING_LIST$   PTR;
       55       55    1        DCL ON_OVERFLOW$   PTR;
       56       56    1        DCL NOT_ON_OVERFLOW$  PTR;
       57       57
       58       58
       59       59
       60       60             %EQU PHASE = 1;
       61       61             %INCLUDE Z8A_DEFC;
       62      129             %INCLUDE Z8A_SUPP_MAC;
       63     2529             %INCLUDE Z8E_MACROS;
       64     3204             %INCLUDE Z8E_STACKS;
       65     5470             %INCLUDE Z8A_ST;
       66     9129             %INCLUDE Z8A_ETT;
       67     9430             %INCLUDE Z8A_ILL;
       68    10123             %INCLUDE Z8A_COMCOM;
       69    10773             %INCLUDE Z8A_LIBRARY;
       70    10987             %INCLUDE Z8E_O1COM;
       71    11748             %INCLUDE Z8E_HEAP;
       72    11804             %INCLUDE Z8E_WINDOW;
       73    13874             %INCLUDE Z8A_ILS;
       74    13983             %INCLUDE Z8E_ILS_LIST;
       75    14067             %INCLUDE Z8A_TYPES;
       76    14241             %INCLUDE Z8A_ERR_NUMS;
PL6.E3A0      #001=Z8EZ$STRING File=Z8EZ.:Z8A6TSI                                SAT 08/09/97 12:59 Page:45
       77    15005
       78    15006
       79    15007    1        DCL Z8EV$LEAST_STRONGEST_TYPE    ENTRY(3);
       80    15008    1        DCL Z8EV$CONVERT_TYA             ENTRY(3);
       81    15009    1        DCL Z8AT$CREATE_TEMP_WITH_BASE   ENTRY(2);
       82    15010    1        DCL Z8AT$CREATE_TEMPORARY        ENTRY(2);
       83    15011    1        DCL Z8AC$LX_ETT_ITEM_TYI_CONST   ENTRY(2);
       84    15012    1        DCL Z8AU$LENGTH                  ENTRY(2);
       85    15013    1        DCL Z8E5$MATH_PACK               ENTRY(2);
       86    15014    1        DCL Z8EK$COMPARE                 ENTRY(4);
       87    15015    1        DCL Z8EK$BRANCH                  ENTRY(1) ;
       88    15016    1        DCL Z8EK$BRANCH_TRUE             ENTRY(2);
       89    15017    1        DCL Z8EK$BRANCH_FALSE            ENTRY(2);
       90    15018    1        DCL Z8ED$DISPOSE_ABSSYN_TREE     ENTRY(1);
       91    15019    1        DCL Z8EY$INSERT                  ENTRY(4);
       92    15020    1        DCL Z8E7$MOVE                    ENTRY(2);
       93    15021    1        DCL Z8CO$CREATE_LIBRARY_BASE     ENTRY(2);
       94    15022    1        DCL Z8CO$DISPL_CHECK             ENTRY(1) ALTRET;
       95    15023    1        DCL Z8CO$INTEGER_CHECK           ENTRY(1) ALTRET;
       96    15024    1        DCL Z8CO$INTEGER_CHECK_NO_ERROR  ENTRY(1) ALTRET;
       97    15025    1        DCL Z8CO$P_CHECK                 ENTRY(1) ALTRET;
       98    15026    1        DCL Z8AE$ERROR                  ENTRY(12);
       99    15027    1        DCL Z8EZ$MAX_VALUE              ENTRY(2);
      100    15028    1        DCL Z8AU$LENGTH_ETT             ENTRY(2);
      101    15029    1        DCL Z8AU$TYPE_DESCRIPTOR        ENTRY (2) ;
      102    15030    1        DCL Z8AF$FORME                  ENTRY(4) ;
      103    15031    1        DCL Z8AF$NEW_FISS               ENTRY(4) ;
      104    15032    1        DCL Z8AF$NEW_OFF                ENTRY(3) ;
      105    15033    1        DCL Z8EA$SUBSTR_ZERO            ENTRY(4) ;
      106    15034
      107    15035
      108    15036    1        DCL STRINGS$         PTR;
      109    15037    1        DCL IDENTS$          PTR;
      110    15038
      111    15039            %DCL_AUTO_LX_ITEM     ( @NAME = SENDING );
      112    15043            %DCL_AUTO_LX_ITEM     ( @NAME = RECEIVING );
      113    15047
PL6.E3A0      #001=Z8EZ$STRING File=Z8EZ.:Z8A6TSI                                SAT 08/09/97 12:59 Page:46
      114    15048            %DCL_AUTO_LX_ITEM     ( @NAME = ID1 );
      115    15052            %DCL_AUTO_LX_ITEM     ( @NAME = ID2 );
      116    15056            %DCL_AUTO_LX_ITEM     ( @NAME = ID3 );
      117    15060            %DCL_AUTO_LX_ITEM     ( @NAME = ID4 );
      118    15064
      119    15065            %DCL_AUTO_LX_ITEM     ( @NAME = LENGTH_ID1 );
      120    15069            %DCL_AUTO_LX_ITEM     ( @NAME = LENGTH_ID2 );
      121    15073            %DCL_AUTO_LX_ITEM     ( @NAME = LENGTH_ID3 );
      122    15077
      123    15078            %DCL_AUTO_LX_ITEM     ( @NAME = ONE );
      124    15082            %DCL_AUTO_LX_ITEM     ( @NAME = TWO );
      125    15086            %DCL_AUTO_LX_ITEM     ( @NAME = REMAINDER );
      126    15090            %DCL_AUTO_LX_ITEM     ( @NAME = LENGTH_ID3_P1) ;
      127    15094            %DCL_AUTO_LX_ITEM     ( @NAME = MINIMUM_ );
      128    15098            %DCL_AUTO_LX_ITEM     ( @NAME = INDX );
      129    15102            %DCL_AUTO_LX_ITEM     ( @NAME = INDEX_EXPR ) ;
      130    15106            %DCL_AUTO_LX_ITEM     ( @NAME = ADD );
      131    15110            %DCL_AUTO_LX_ITEM     ( @NAME = KANJI_LX_ETT );
      132    15114            %DCL_AUTO_LX_ITEM     ( @NAME = PLUS_ONE );
      133    15118            %DCL_AUTO_LX_ITEM     ( @NAME = POINTER_TIMES2 );
      134    15122
      135    15123    1        DCL 1 TYPE_DESC ALIGNED,
      136    15124                  %TYPE_DESC ;
      137    15158
      138    15159    1        DCL ID1$             PTR;
      139    15160    1        DCL ID2$             PTR;
      140    15161    1        DCL ID3$             PTR;
      141    15162    1        DCL ID4$             PTR;
      142    15163    1        DCL ID3_ST$          PTR;
      143    15164
      144    15165    1        DCL LENGTH_ID1$      PTR;
      145    15166    1        DCL LENGTH_ID2$      PTR;
      146    15167    1        DCL LENGTH_ID3$      PTR;
      147    15168
      148    15169    1        DCL DELIMITER$       PTR;
      149    15170    1        DCL IDENTS_TAIL$     PTR;
      150    15171    1        DCL STRINGS_TAIL$    PTR;
PL6.E3A0      #001=Z8EZ$STRING File=Z8EZ.:Z8A6TSI                                SAT 08/09/97 12:59 Page:47
      151    15172    1        DCL OVERFLOW$        PTR;
      152    15173    1        DCL NO_OVERFLOW$     PTR ;
      153    15174    1        DCL END_STRING$     PTR;
      154    15175    1        DCL INTO_LENGTH$    PTR;
      155    15176    1        DCL COMPARISON$     PTR;
      156    15177    1        DCL KANJI_LX_ETT$   PTR;
      157    15178    1        DCL POINTER_TIMES2$ PTR;
      158    15179    1        DCL PLUS_ONE$       PTR;
      159    15180    1        DCL ONE$            PTR;
      160    15181    1        DCL TWO$            PTR;
      161    15182    1        DCL ADD$            PTR;
      162    15183    1        DCL LENGTH_ID3_P1$  PTR;
      163    15184    1        DCL MINIMUM$        PTR;
      164    15185    1        DCL RECEIVING$      PTR;
      165    15186    1        DCL INDEX$          PTR;
      166    15187    1        DCL INDEX_EXPR$     PTR ;
      167    15188    1        DCL REMAINDER$      PTR;
      168    15189    1        DCL TABLE_ETT$      PTR;
      169    15190
      170    15191
      171    15192    1        DCL POINTER         BOOLEAN;
      172    15193    1        DCL OVERFLOW        BOOLEAN;
      173    15194    1        DCL SIZE            BOOLEAN;
      174    15195    1        DCL OPTIMIZABLE     BOOLEAN ;
      175    15196
      176    15197    1        DCL CURRENT_OFFSET  SBIN WORD ;
      177    15198    1        DCL ID3_LENGTH      SBIN WORD ;
      178    15199    1        DCL ID1_COUNT       SBIN WORD ;
      179    15200    1        DCL ID1_MAX         SBIN WORD ;
      180    15201    1        DCL OP              SBIN WORD ;
      181    15202
      182    15203        %EJECT;
PL6.E3A0      #001=Z8EZ$STRING File=Z8EZ.:Z8A6TSI                                SAT 08/09/97 12:59 Page:48
      183    15204        %MACRO IF_THEN_DO (@LOP =, @REL =, @ROP =, @LAB =) ;
      184    15205
      185    15206               DO ;
      186    15207                 %LSET LINE@ = CHARTEXT (CONCAT (TEXTCHAR (@LOP),
      187    15208                                                 ' -> LX_ETT_ITEM.LINE')) ;
      188    15209                 %LSET COLUMN@ = CHARTEXT (CONCAT (TEXTCHAR (@LOP),
      189    15210                                                 ' -> LX_ETT_ITEM.COLUMN')) ;
      190    15211
      191    15212                 COMPARISON$ = ADDR (COMPARISON) ;
      192    15213                 %INIT_BINARY_OP (@POINTER = COMPARISON$,
      193    15214                                  @LOP$    = @LOP,
      194    15215                                  @OP      = @REL,
      195    15216                                  @ROP$    = @ROP,
      196    15217                                  @LINE    = %LINE@,
      197    15218                                  @COLUMN  = %COLUMN@) ;
      198    15219
      199    15220                 CALL Z8AT$CREATE_TEMPORARY (%PARA, @LAB) ;
      200    15221                 CALL Z8EK$BRANCH_FALSE (@LAB, COMPARISON$) ;
      201    15222               END ;
      202    15223
      203    15224        %MEND ;
      204    15225
      205    15226        %EJECT;
PL6.E3A0      #001=Z8EZ$STRING File=Z8EZ.:Z8A6TSI                                SAT 08/09/97 12:59 Page:49
      206    15227    1        ID1$ = ADDR(ID1);

  15227 16 000002   200044 630500                    EPPR0   ID1,,AUTO
        16 000003   200270 450500                    STP0    ID1$,,AUTO

      207    15228    1        ID2$ = ADDR(ID2);

  15228 16 000004   200054 631500                    EPPR1   ID2,,AUTO
        16 000005   200271 451500                    STP1    ID2$,,AUTO

      208    15229    1        ID3$ = ADDR(ID3);

  15229 16 000006   200064 633500                    EPPR3   ID3,,AUTO
        16 000007   200272 453500                    STP3    ID3$,,AUTO

      209    15230    1        ID4$ = ADDR(ID4);

  15230 16 000010   200074 634500                    EPPR4   ID4,,AUTO
        16 000011   200273 454500                    STP4    ID4$,,AUTO

      210    15231
      211    15232    1        LENGTH_ID1$ = ADDR(LENGTH_ID1);

  15232 16 000012   200104 635500                    EPPR5   LENGTH_ID1,,AUTO
        16 000013   200275 455500                    STP5    LENGTH_ID1$,,AUTO

      212    15233    1        LENGTH_ID2$ = ADDR(LENGTH_ID2);

  15233 16 000014   200114 636500                    EPPR6   LENGTH_ID2,,AUTO
        16 000015   200276 456500                    STP6    LENGTH_ID2$,,AUTO

      213    15234    1        LENGTH_ID3$ = ADDR(LENGTH_ID3);

  15234 16 000016   200124 637500                    EPPR7   LENGTH_ID3,,AUTO
        16 000017   200277 457500                    STP7    LENGTH_ID3$,,AUTO

      214    15235
PL6.E3A0      #001=Z8EZ$STRING File=Z8EZ.:Z8A6TSI                                SAT 08/09/97 12:59 Page:50
      215    15236    1        RECEIVING$ = ADDR(RECEIVING);

  15236 16 000020   200034 630500                    EPPR0   RECEIVING,,AUTO
        16 000021   200320 450500                    STP0    RECEIVING$,,AUTO

      216    15237
      217    15238    1        ONE$       = ADDR(ONE);

  15238 16 000022   200134 630500                    EPPR0   ONE,,AUTO
        16 000023   200313 450500                    STP0    ONE$,,AUTO

      218    15239    1        TWO$       = ADDR(TWO);

  15239 16 000024   200144 630500                    EPPR0   TWO,,AUTO
        16 000025   200314 450500                    STP0    TWO$,,AUTO

      219    15240    1        REMAINDER$ = ADDR(REMAINDER);

  15240 16 000026   200154 630500                    EPPR0   REMAINDER,,AUTO
        16 000027   200323 450500                    STP0    REMAINDER$,,AUTO

      220    15241    1        LENGTH_ID3_P1$       = ADDR(LENGTH_ID3_P1);

  15241 16 000030   200164 630500                    EPPR0   LENGTH_ID3_P1,,AUTO
        16 000031   200316 450500                    STP0    LENGTH_ID3_P1$,,AUTO

      221    15242    1        MINIMUM$   = ADDR(MINIMUM_);

  15242 16 000032   200174 630500                    EPPR0   MINIMUM_,,AUTO
        16 000033   200317 450500                    STP0    MINIMUM$,,AUTO

      222    15243    1        INDEX$     = ADDR(INDX);

  15243 16 000034   200204 630500                    EPPR0   INDX,,AUTO
        16 000035   200321 450500                    STP0    INDEX$,,AUTO

      223    15244    1        ADD$       = ADDR(ADD);
PL6.E3A0      #001=Z8EZ$STRING File=Z8EZ.:Z8A6TSI                                SAT 08/09/97 12:59 Page:51

  15244 16 000036   200224 630500                    EPPR0   ADD,,AUTO
        16 000037   200315 450500                    STP0    ADD$,,AUTO

      224    15245    1        KANJI_LX_ETT$ = ADDR(KANJI_LX_ETT);

  15245 16 000040   200234 630500                    EPPR0   KANJI_LX_ETT,,AUTO
        16 000041   200310 450500                    STP0    KANJI_LX_ETT$,,AUTO

      225    15246    1        POINTER_TIMES2$ = ADDR(POINTER_TIMES2);

  15246 16 000042   200254 630500                    EPPR0   POINTER_TIMES2,,AUTO
        16 000043   200311 450500                    STP0    POINTER_TIMES2$,,AUTO

      226    15247    1        PLUS_ONE$ = ADDR(PLUS_ONE);

  15247 16 000044   200244 630500                    EPPR0   PLUS_ONE,,AUTO
        16 000045   200312 450500                    STP0    PLUS_ONE$,,AUTO

      227    15248
      228    15249        %EJECT;
PL6.E3A0      #001=Z8EZ$STRING File=Z8EZ.:Z8A6TSI                                SAT 08/09/97 12:59 Page:52
      229    15250        /*V* PASS 2 --- Validate the operands of the STRING statement */
      230    15251
      231    15252    1        IF COMCOM.OB.FIPS.LEVEL >= %INT_LEV THEN

  15252 16 000046   000036 720000 xsym               LXL0    COMCOM+30
        16 000047   000002 100003                    CMPX0   2,DU
        16 000050   000055 604000 16                 TMI     s:15256

      232    15253    1          CALL Z8AE$ERROR (%E$LEVEL_CHECK,

  15253 16 000051   000002 630400 17                 EPPR0   2
        16 000052   000000 631400 17                 EPPR1   0
        16 000053   000000 701000 xent               TSX1    Z8AE$ERROR
        16 000054   000000 011000                    NOP     0

      233    15254    1                           O1COM.LINE_NO,
      234    15255    1                           O1COM.COLUMN_NO);
      235    15256    1        OPTIMIZABLE = TRUE ;

  15256 16 000055   400000 236003                    LDQ     -131072,DU
        16 000056   200330 756100                    STQ     OPTIMIZABLE,,AUTO

      236    15257    1        STRINGS$ = STRING_LIST$ -> LX_LIST.HEAD$;

  15257 16 000057   200003 470500                    LDP0    @STRING_LIST$,,AUTO
        16 000060   000000 471500                    LDP1    0,,PR0
        16 000061   100004 236100                    LDQ     4,,PR1
        16 000062   200022 756100                    STQ     STRINGS$,,AUTO

      237    15258    1        ID1_MAX = 0 ; /* Count of number of id1's */

  15258 16 000063   200334 450100                    STZ     ID1_MAX,,AUTO

      238    15259
      239    15260    2        DO UNTIL(STRINGS$ = ADDR(NIL));

      240    15261    2          IDENTS$ = STRINGS$ -> LX_LIST.HEAD$ -> LX_LIST.HEAD$;
PL6.E3A0      #001=Z8EZ$STRING File=Z8EZ.:Z8A6TSI                                SAT 08/09/97 12:59 Page:53

  15261 16 000064   200022 470500                    LDP0    STRINGS$,,AUTO
        16 000065   000004 471500                    LDP1    4,,PR0
        16 000066   100004 236100                    LDQ     4,,PR1
        16 000067   200023 756100                    STQ     IDENTS$,,AUTO

      241    15262
      242    15263    2          CALL VALIDATE_ID2(STRINGS$ -> LX_LIST.TAIL$) ALTRET(BAD_STRING);

  15263 16 000070   200022 236100                    LDQ     STRINGS$,,AUTO
        16 000071   000001 036003                    ADLQ    1,DU
        16 000072   200337 756100                    STQ     OP+2,,AUTO
        16 000073   002040 701000 16                 TSX1    VALIDATE_ID2
        16 000074   001626 702000 16                 TSX2    BAD_STRING

      243    15264
      244    15265    3          DO UNTIL(IDENTS$ = ADDR(NIL));

      245    15266    3            ID1_MAX = ID1_MAX + 1 ;

  15266 16 000075   200334 054100                    AOS     ID1_MAX,,AUTO

      246    15267    3            CALL VALIDATE_ID1(IDENTS$) ALTRET(BAD_STRING);

  15267 16 000076   200023 630500                    EPPR0   IDENTS$,,AUTO
        16 000077   200337 450500                    STP0    OP+2,,AUTO
        16 000100   001731 701000 16                 TSX1    VALIDATE_ID1
        16 000101   001626 702000 16                 TSX2    BAD_STRING

      247    15268
      248    15269    3            IDENTS$ = IDENTS$ -> LX_LIST.LINK;

  15269 16 000102   200023 470500                    LDP0    IDENTS$,,AUTO
        16 000103   000007 236100                    LDQ     7,,PR0
        16 000104   200023 756100                    STQ     IDENTS$,,AUTO

      249    15270    3          END /* Case */;
PL6.E3A0      #001=Z8EZ$STRING File=Z8EZ.:Z8A6TSI                                SAT 08/09/97 12:59 Page:54

  15270 16 000105   000005 116000 17                 CMPQ    5
        16 000106   000075 601000 16                 TNZ     s:15266

      250    15271
      251    15272    2        STRINGS$ = STRINGS$ -> LX_LIST.LINK;

  15272 16 000107   200022 470500                    LDP0    STRINGS$,,AUTO
        16 000110   000007 236100                    LDQ     7,,PR0
        16 000111   200022 756100                    STQ     STRINGS$,,AUTO

      252    15273    2        END /* Case */;

  15273 16 000112   000005 116000 17                 CMPQ    5
        16 000113   000064 601000 16                 TNZ     s:15261

      253    15274
      254    15275    1        CALL VALIDATE_ID3(INTO$) ALTRET(BAD_STRING);

  15275 16 000114   200004 236100                    LDQ     @INTO$,,AUTO
        16 000115   200337 756100                    STQ     OP+2,,AUTO
        16 000116   002133 701000 16                 TSX1    VALIDATE_ID3
        16 000117   001626 702000 16                 TSX2    BAD_STRING

      255    15276    1        CALL VALIDATE_ID4(POINTER$, INTO$) ALTRET(BAD_STRING);

  15276 16 000120   200004 236100                    LDQ     @INTO$,,AUTO
        16 000121   200340 756100                    STQ     @COUNT$+1,,AUTO
        16 000122   200005 236100                    LDQ     @POINTER$,,AUTO
        16 000123   200337 756100                    STQ     OP+2,,AUTO
        16 000124   002251 701000 16                 TSX1    VALIDATE_ID4
        16 000125   001626 702000 16                 TSX2    BAD_STRING

      256    15277
      257    15278    1        IF ON_OVERFLOW$ ~= ADDR(NIL)   OR

  15278 16 000126   200006 470500                    LDP0    @ON_OVERFLOW$,,AUTO
PL6.E3A0      #001=Z8EZ$STRING File=Z8EZ.:Z8A6TSI                                SAT 08/09/97 12:59 Page:55
        16 000127   000000 236100                    LDQ     0,,PR0
        16 000130   000005 116000 17                 CMPQ    5
        16 000131   000136 601000 16                 TNZ     s:15280
        16 000132   200007 471500                    LDP1    @NOT_ON_OVERFLOW$,,AUTO
        16 000133   100000 236100                    LDQ     0,,PR1
        16 000134   000005 116000 17                 CMPQ    5
        16 000135   000140 600000 16                 TZE     s:15281

      258    15279    1              NOT_ON_OVERFLOW$ ~= ADDR(NIL)     THEN
      259    15280    1          OVERFLOW = %TRUE;

  15280 16 000136   400000 236003                    LDQ     -131072,DU
        16 000137   200326 756100                    STQ     OVERFLOW,,AUTO

      260    15281    1        IF OVERFLOW THEN OPTIMIZABLE = FALSE ;

  15281 16 000140   200326 234100                    SZN     OVERFLOW,,AUTO
        16 000141   000143 605000 16                 TPL     s:15297

  15281 16 000142   200330 450100                    STZ     OPTIMIZABLE,,AUTO

      261    15282
      262    15283        %EJECT;
PL6.E3A0      #001=Z8EZ$STRING File=Z8EZ.:Z8A6TSI                                SAT 08/09/97 12:59 Page:56
      263    15284        /*V* PASS 3a -- Generate the ILL to do the STRING (optimizable).
      264    15285
      265    15286           STRING id1a, id1b, ... INTO id3.
      266    15287
      267    15288                       MVAN                   MVAN      . . .
      268    15289                      /    \                 /    \
      269    15290                   FISS    id1a            FISS   id1b
      270    15291                  /    \                  /    \
      271    15292               id3  length-id1a         OFF     length-id1b
      272    15293                                       /   \
      273    15294                                     id3  length-id1a
      274    15295        */
      275    15296
      276    15297    2        IF OPTIMIZABLE THEN DO ;

  15297 16 000143   200330 234100                    SZN     OPTIMIZABLE,,AUTO
        16 000144   000232 605000 16                 TPL     s:15338

      277    15298
      278    15299    2          CURRENT_OFFSET = 0 ;

  15299 16 000145   200331 450100                    STZ     CURRENT_OFFSET,,AUTO

      279    15300    2          CALL PREPARE_ID3 (INTO$, ID3$) ;

  15300 16 000146   200272 631500                    EPPR1   ID3$,,AUTO
        16 000147   200340 451500                    STP1    @COUNT$+1,,AUTO
        16 000150   200004 236100                    LDQ     @INTO$,,AUTO
        16 000151   200337 756100                    STQ     OP+2,,AUTO
        16 000152   002666 701000 16                 TSX1    PREPARE_ID3
        16 000153   000000 011000                    NOP     0

      280    15301    2          ID3_LENGTH = LENGTH_ID3$

  15301 16 000154   200277 470500                    LDP0    LENGTH_ID3$,,AUTO
        16 000155   000001 471500                    LDP1    1,,PR0
        16 000156   100001 473500                    LDP3    1,,PR1
PL6.E3A0      #001=Z8EZ$STRING File=Z8EZ.:Z8A6TSI                                SAT 08/09/97 12:59 Page:57
        16 000157   300010 235100                    LDA     8,,PR3
        16 000160   200332 755100                    STA     ID3_LENGTH,,AUTO

      281    15302    2                    -> LX_ETT_ITEM.ETT$
      282    15303    2                    -> ETT.LOP
      283    15304    2                    -> CONST.CONSTI.WORD1 ;
      284    15305
      285    15306    2          STRINGS$ = STRING_LIST$ -> LX_LIST.HEAD$ ;

  15306 16 000161   200003 474500                    LDP4    @STRING_LIST$,,AUTO
        16 000162   400000 475500                    LDP5    0,,PR4
        16 000163   500004 236100                    LDQ     4,,PR5
        16 000164   200022 756100                    STQ     STRINGS$,,AUTO

      286    15307
      287    15308    3          DO UNTIL (STRINGS$ = ADDR(NIL)) ;

      288    15309
      289    15310    3            IDENTS$ = STRINGS$ -> LX_LIST.HEAD$ -> LX_LIST.HEAD$ ;

  15310 16 000165   200022 470500                    LDP0    STRINGS$,,AUTO
        16 000166   000004 471500                    LDP1    4,,PR0
        16 000167   100004 236100                    LDQ     4,,PR1
        16 000170   200023 756100                    STQ     IDENTS$,,AUTO

      290    15311
      291    15312    4            DO UNTIL (IDENTS$ = ADDR(NIL)) ;

      292    15313
      293    15314    4              CALL PREPARE_ID1 (IDENTS$, ID1$) ;

  15314 16 000171   200270 630500                    EPPR0   ID1$,,AUTO
        16 000172   200340 450500                    STP0    @COUNT$+1,,AUTO
        16 000173   200023 631500                    EPPR1   IDENTS$,,AUTO
        16 000174   200337 451500                    STP1    OP+2,,AUTO
        16 000175   002402 701000 16                 TSX1    PREPARE_ID1
        16 000176   000000 011000                    NOP     0
PL6.E3A0      #001=Z8EZ$STRING File=Z8EZ.:Z8A6TSI                                SAT 08/09/97 12:59 Page:58

      294    15315
      295    15316    4              IF CURRENT_OFFSET < ID3_LENGTH THEN

  15316 16 000177   200331 236100                    LDQ     CURRENT_OFFSET,,AUTO
        16 000200   200332 116100                    CMPQ    ID3_LENGTH,,AUTO
        16 000201   000217 605000 16                 TPL     s:15323

      296    15317    4                CALL MOVE (ID3$, ID1$, LENGTH_ID1$

  15317 16 000202   200275 470500                    LDP0    LENGTH_ID1$,,AUTO
        16 000203   000001 471500                    LDP1    1,,PR0
        16 000204   100001 473500                    LDP3    1,,PR1
        16 000205   200331 634500                    EPPR4   CURRENT_OFFSET,,AUTO
        16 000206   200342 454500                    STP4    END_INDEX$+1,,AUTO
        16 000207   300010 631500                    EPPR1   8,,PR3
        16 000210   200341 451500                    STP1    BEGAIN_INDEX$+1,,AUTO
        16 000211   200270 633500                    EPPR3   ID1$,,AUTO
        16 000212   200340 453500                    STP3    @COUNT$+1,,AUTO
        16 000213   200272 635500                    EPPR5   ID3$,,AUTO
        16 000214   200337 455500                    STP5    OP+2,,AUTO
        16 000215   001627 701000 16                 TSX1    MOVE
        16 000216   000000 011000                    NOP     0

      297    15318    4                                    -> LX_ETT_ITEM.ETT$
      298    15319    4                                    -> ETT.LOP
      299    15320    4                                    -> CONST.CONSTI,
      300    15321    4                           CURRENT_OFFSET) ;
      301    15322
      302    15323    4              IDENTS$ = IDENTS$ -> LX_ITEM.LINK ;

  15323 16 000217   200023 470500                    LDP0    IDENTS$,,AUTO
        16 000220   000007 236100                    LDQ     7,,PR0
        16 000221   200023 756100                    STQ     IDENTS$,,AUTO

      303    15324
      304    15325    4            END ; /* Until Ident$ = Nil */
PL6.E3A0      #001=Z8EZ$STRING File=Z8EZ.:Z8A6TSI                                SAT 08/09/97 12:59 Page:59

  15325 16 000222   000005 116000 17                 CMPQ    5
        16 000223   000171 601000 16                 TNZ     s:15314

      305    15326
      306    15327    3            STRINGS$ = STRINGS$ -> LX_LIST.LINK ;

  15327 16 000224   200022 470500                    LDP0    STRINGS$,,AUTO
        16 000225   000007 236100                    LDQ     7,,PR0
        16 000226   200022 756100                    STQ     STRINGS$,,AUTO

      307    15328
      308    15329    3          END ; /* Until String$ = Nil */

  15329 16 000227   000005 116000 17                 CMPQ    5
        16 000230   000165 601000 16                 TNZ     s:15310

      309    15330
      310    15331    2        END ; /* Optimizable */

  15331 16 000231   001626 710000 16                 TRA     BAD_STRING

      311    15332
      312    15333    2       ELSE DO ;

      313    15334
      314    15335        %EJECT;
PL6.E3A0      #001=Z8EZ$STRING File=Z8EZ.:Z8A6TSI                                SAT 08/09/97 12:59 Page:60
      315    15336        /*V* PASS 3b -- Generate the ILL to do the STRING (non-optimizable) */
      316    15337
      317    15338    2          CALL Z8AC$LX_ETT_ITEM_TYI_CONST(1, ONE$);

  15338 16 000232   200313 631500                    EPPR1   ONE$,,AUTO
        16 000233   200431 451500                    STP1    LENGTH_ID2$+2,,AUTO
        16 000234   000010 236000 17                 LDQ     8
        16 000235   200430 756100                    STQ     LENGTH_ID2$+1,,AUTO
        16 000236   200430 630500                    EPPR0   LENGTH_ID2$+1,,AUTO
        16 000237   000006 631400 17                 EPPR1   6
        16 000240   000000 701000 xent               TSX1    Z8AC$LX_ETT_ITEM_TYI_CONST
        16 000241   000000 011000                    NOP     0

      318    15339    2          CALL Z8AC$LX_ETT_ITEM_TYI_CONST(2, TWO$);

  15339 16 000242   200314 630500                    EPPR0   TWO$,,AUTO
        16 000243   200431 450500                    STP0    LENGTH_ID2$+2,,AUTO
        16 000244   000012 236000 17                 LDQ     10
        16 000245   200430 756100                    STQ     LENGTH_ID2$+1,,AUTO
        16 000246   200430 630500                    EPPR0   LENGTH_ID2$+1,,AUTO
        16 000247   000006 631400 17                 EPPR1   6
        16 000250   000000 701000 xent               TSX1    Z8AC$LX_ETT_ITEM_TYI_CONST
        16 000251   000000 011000                    NOP     0

      319    15340
      320    15341    2          CALL Z8AT$CREATE_TEMPORARY(%PARA, OVERFLOW$);

  15341 16 000252   200303 630500                    EPPR0   OVERFLOW$,,AUTO
        16 000253   200431 450500                    STP0    LENGTH_ID2$+2,,AUTO
        16 000254   000014 236000 17                 LDQ     12
        16 000255   200430 756100                    STQ     LENGTH_ID2$+1,,AUTO
        16 000256   200430 630500                    EPPR0   LENGTH_ID2$+1,,AUTO
        16 000257   000006 631400 17                 EPPR1   6
        16 000260   000000 701000 xent               TSX1    Z8AT$CREATE_TEMPORARY
        16 000261   000000 011000                    NOP     0

      321    15342    2          CALL Z8AT$CREATE_TEMPORARY(%PARA, END_STRING$);
PL6.E3A0      #001=Z8EZ$STRING File=Z8EZ.:Z8A6TSI                                SAT 08/09/97 12:59 Page:61

  15342 16 000262   200305 630500                    EPPR0   END_STRING$,,AUTO
        16 000263   200431 450500                    STP0    LENGTH_ID2$+2,,AUTO
        16 000264   000014 236000 17                 LDQ     12
        16 000265   200430 756100                    STQ     LENGTH_ID2$+1,,AUTO
        16 000266   200430 630500                    EPPR0   LENGTH_ID2$+1,,AUTO
        16 000267   000006 631400 17                 EPPR1   6
        16 000270   000000 701000 xent               TSX1    Z8AT$CREATE_TEMPORARY
        16 000271   000000 011000                    NOP     0

      322    15343
      323    15344    2          CALL PREPARE_ID3(INTO$, ID3$);

  15344 16 000272   200272 630500                    EPPR0   ID3$,,AUTO
        16 000273   200340 450500                    STP0    @COUNT$+1,,AUTO
        16 000274   200004 236100                    LDQ     @INTO$,,AUTO
        16 000275   200337 756100                    STQ     OP+2,,AUTO
        16 000276   002666 701000 16                 TSX1    PREPARE_ID3
        16 000277   000000 011000                    NOP     0

      324    15345    2          CALL PREPARE_ID4(POINTER$, INTO$, ID4$);

  15345 16 000300   200273 630500                    EPPR0   ID4$,,AUTO
        16 000301   200341 450500                    STP0    BEGAIN_INDEX$+1,,AUTO
        16 000302   200004 236100                    LDQ     @INTO$,,AUTO
        16 000303   200340 756100                    STQ     @COUNT$+1,,AUTO
        16 000304   200005 236100                    LDQ     @POINTER$,,AUTO
        16 000305   200337 756100                    STQ     OP+2,,AUTO
        16 000306   002711 701000 16                 TSX1    PREPARE_ID4
        16 000307   000000 011000                    NOP     0

      325    15346
      326    15347    2          ID1_COUNT = 0 ;

  15347 16 000310   200333 450100                    STZ     ID1_COUNT,,AUTO

      327    15348    2          STRINGS$ = STRING_LIST$ -> LX_LIST.HEAD$;
PL6.E3A0      #001=Z8EZ$STRING File=Z8EZ.:Z8A6TSI                                SAT 08/09/97 12:59 Page:62

  15348 16 000311   200003 470500                    LDP0    @STRING_LIST$,,AUTO
        16 000312   000000 471500                    LDP1    0,,PR0
        16 000313   100004 236100                    LDQ     4,,PR1
        16 000314   200022 756100                    STQ     STRINGS$,,AUTO

      328    15349
      329    15350               %FISH( TRIAD = ID3$ -> LX_ETT_ITEM.ETT$,
      330    15351                      RTN   = ID3_ST$ );

  15353 16 000315   200272 473500                    LDP3    ID3$,,AUTO
        16 000316   300001 236100                    LDQ     1,,PR3
        16 000317   200274 756100                    STQ     ID3_ST$,,AUTO

  15354 16 000320   200274 474500                    LDP4    ID3_ST$,,AUTO
        16 000321   400000 220100                    LDX0    0,,PR4
        16 000322   000751 100003                    CMPX0   489,DU
        16 000323   000333 603000 16                 TRC     s:15361

  15355 16 000324   200274 470500                    LDP0    ID3_ST$,,AUTO
        16 000325   000001 236100                    LDQ     1,,PR0
        16 000326   200274 756100                    STQ     ID3_ST$,,AUTO

  15356 16 000327   200274 470500                    LDP0    ID3_ST$,,AUTO
        16 000330   000000 220100                    LDX0    0,,PR0
        16 000331   000751 100003                    CMPX0   489,DU
        16 000332   000324 602000 16                 TNC     s:15355

      331    15359
      332    15360    3          DO UNTIL(STRINGS$ = ADDR(NIL));

      333    15361    3            IDENTS$    = STRINGS$ -> LX_LIST.HEAD$ -> LX_LIST.HEAD$;

  15361 16 000333   200022 470500                    LDP0    STRINGS$,,AUTO
        16 000334   000004 471500                    LDP1    4,,PR0
        16 000335   100004 236100                    LDQ     4,,PR1
        16 000336   200023 756100                    STQ     IDENTS$,,AUTO
PL6.E3A0      #001=Z8EZ$STRING File=Z8EZ.:Z8A6TSI                                SAT 08/09/97 12:59 Page:63

      334    15362
      335    15363    3            CALL PREPARE_ID2(STRINGS$ -> LX_LIST.TAIL$, ID2$);

  15363 16 000337   200271 631500                    EPPR1   ID2$,,AUTO
        16 000340   200340 451500                    STP1    @COUNT$+1,,AUTO
        16 000341   200022 236100                    LDQ     STRINGS$,,AUTO
        16 000342   000001 036003                    ADLQ    1,DU
        16 000343   200337 756100                    STQ     OP+2,,AUTO
        16 000344   002614 701000 16                 TSX1    PREPARE_ID2
        16 000345   000000 011000                    NOP     0

      336    15364
      337    15365    4            DO UNTIL(IDENTS$ = ADDR(NIL));

      338    15366    4              ID1_COUNT = ID1_COUNT + 1 ;

  15366 16 000346   200333 054100                    AOS     ID1_COUNT,,AUTO

      339    15367
      340    15368    4              IF ID3_ST$ -> SCALAR.B.KANJI    THEN

  15368 16 000347   200274 470500                    LDP0    ID3_ST$,,AUTO
        16 000350   000003 236100                    LDQ     3,,PR0
        16 000351   001000 316007                    CANQ    512,DL
        16 000352   000442 600000 16                 TZE     s:15427

      341    15369    5                DO;

      342    15370
      343    15371                     /*  For Kanji, multiply pointer by 2 and subtract
      344    15372                         one.  Subtract is because offset in COBOL start
      345    15373                         at one and in PL6 at 0 */
      346    15374
      347    15375                       %INIT_BINARY_OP( @POINTER = POINTER_TIMES2$,
      348    15376                                        @OP   = %OP_STAR,
      349    15377                                        @LOP$ = ID4$,
PL6.E3A0      #001=Z8EZ$STRING File=Z8EZ.:Z8A6TSI                                SAT 08/09/97 12:59 Page:64
      350    15378                                        @ROP$ = TWO$ );

  15380 16 000353   000005 220003                    LDX0    5,DU
        16 000354   200311 471500                    LDP1    POINTER_TIMES2$,,AUTO
        16 000355   100000 740100                    STX0    0,,PR1

  15381 16 000356   000000 221003                    LDX1    0,DU
        16 000357   100000 441100                    SXL1    0,,PR1

  15388 16 000360   000133 235000 xsym               LDA     COMCOM+91
        16 000361   100005 755100                    STA     5,,PR1

  15389 16 000362   000134 236000 xsym               LDQ     COMCOM+92
        16 000363   100006 756100                    STQ     6,,PR1

  15390 16 000364   200314 236100                    LDQ     TWO$,,AUTO
        16 000365   100002 756100                    STQ     2,,PR1

  15391 16 000366   200273 236100                    LDQ     ID4$,,AUTO
        16 000367   100001 756100                    STQ     1,,PR1

  15392 16 000370   000022 235007                    LDA     18,DL
        16 000371   100003 755100                    STA     3,,PR1

  15393 16 000372   000005 236000 17                 LDQ     5
        16 000373   100007 756100                    STQ     7,,PR1

      351    15396
      352    15397                       %INIT_BINARY_OP( @POINTER = PLUS_ONE$,
      353    15398                                        @OP   = %OP_BINARY_MINUS,
      354    15399                                        @LOP$ = POINTER_TIMES2$,
      355    15400                                        @ROP$ = ONE$ );

  15402 16 000374   200312 473500                    LDP3    PLUS_ONE$,,AUTO
        16 000375   300000 740100                    STX0    0,,PR3

  15403 16 000376   200312 473500                    LDP3    PLUS_ONE$,,AUTO
PL6.E3A0      #001=Z8EZ$STRING File=Z8EZ.:Z8A6TSI                                SAT 08/09/97 12:59 Page:65
        16 000377   300000 441100                    SXL1    0,,PR3

  15410 16 000400   000133 236000 xsym               LDQ     COMCOM+91
        16 000401   200312 473500                    LDP3    PLUS_ONE$,,AUTO
        16 000402   300005 756100                    STQ     5,,PR3

  15411 16 000403   000134 236000 xsym               LDQ     COMCOM+92
        16 000404   200312 473500                    LDP3    PLUS_ONE$,,AUTO
        16 000405   300006 756100                    STQ     6,,PR3

  15412 16 000406   200313 236100                    LDQ     ONE$,,AUTO
        16 000407   200312 473500                    LDP3    PLUS_ONE$,,AUTO
        16 000410   300002 756100                    STQ     2,,PR3

  15413 16 000411   200311 236100                    LDQ     POINTER_TIMES2$,,AUTO
        16 000412   200312 473500                    LDP3    PLUS_ONE$,,AUTO
        16 000413   300001 756100                    STQ     1,,PR3

  15414 16 000414   000021 235007                    LDA     17,DL
        16 000415   200312 473500                    LDP3    PLUS_ONE$,,AUTO
        16 000416   300003 755100                    STA     3,,PR3

  15415 16 000417   000005 236000 17                 LDQ     5
        16 000420   200312 473500                    LDP3    PLUS_ONE$,,AUTO
        16 000421   300007 756100                    STQ     7,,PR3

      356    15418
      357    15419    5                  CALL Z8E5$MATH_PACK( PLUS_ONE$,

  15419 16 000422   200312 633500                    EPPR3   PLUS_ONE$,,AUTO
        16 000423   200431 453500                    STP3    LENGTH_ID2$+2,,AUTO
        16 000424   200312 634500                    EPPR4   PLUS_ONE$,,AUTO
        16 000425   200430 454500                    STP4    LENGTH_ID2$+1,,AUTO
        16 000426   200430 630500                    EPPR0   LENGTH_ID2$+1,,AUTO
        16 000427   000006 631400 17                 EPPR1   6
        16 000430   000000 701000 xent               TSX1    Z8E5$MATH_PACK
        16 000431   000000 011000                    NOP     0
PL6.E3A0      #001=Z8EZ$STRING File=Z8EZ.:Z8A6TSI                                SAT 08/09/97 12:59 Page:66

      358    15420    5                                       PLUS_ONE$ );
      359    15421
      360    15422    5                  CALL Z8E7$MOVE( ID4$,

  15422 16 000432   200312 630500                    EPPR0   PLUS_ONE$,,AUTO
        16 000433   200431 450500                    STP0    LENGTH_ID2$+2,,AUTO
        16 000434   200273 631500                    EPPR1   ID4$,,AUTO
        16 000435   200430 451500                    STP1    LENGTH_ID2$+1,,AUTO
        16 000436   200430 630500                    EPPR0   LENGTH_ID2$+1,,AUTO
        16 000437   000006 631400 17                 EPPR1   6
        16 000440   000000 701000 xent               TSX1    Z8E7$MOVE
        16 000441   000000 011000                    NOP     0

      361    15423    5                                  PLUS_ONE$ );
      362    15424    5                END;

      363    15425
      364    15426
      365    15427    5              IF POINTER OR ID1_COUNT > 1 THEN DO ;

  15427 16 000442   200325 234100                    SZN     POINTER,,AUTO
        16 000443   000447 604000 16                 TMI     s:15428
        16 000444   200333 235100                    LDA     ID1_COUNT,,AUTO
        16 000445   000001 115007                    CMPA    1,DL
        16 000446   000501 604400 16                 TMOZ    s:15438

      366    15428    5                CALL Z8EK$COMPARE( ID4$ ,

  15428 16 000447   200307 630500                    EPPR0   COMPARISON$,,AUTO
        16 000450   200433 450500                    STP0    LENGTH_ID2$+4,,AUTO
        16 000451   200277 631500                    EPPR1   LENGTH_ID3$,,AUTO
        16 000452   200432 451500                    STP1    LENGTH_ID2$+3,,AUTO
        16 000453   000017 236000 17                 LDQ     15
        16 000454   200431 756100                    STQ     LENGTH_ID2$+2,,AUTO
        16 000455   200273 633500                    EPPR3   ID4$,,AUTO
        16 000456   200430 453500                    STP3    LENGTH_ID2$+1,,AUTO
PL6.E3A0      #001=Z8EZ$STRING File=Z8EZ.:Z8A6TSI                                SAT 08/09/97 12:59 Page:67
        16 000457   200430 630500                    EPPR0   LENGTH_ID2$+1,,AUTO
        16 000460   000015 631400 17                 EPPR1   13
        16 000461   000000 701000 xent               TSX1    Z8EK$COMPARE
        16 000462   000000 011000                    NOP     0

      367    15429    5                                   %OP_GREATER_THAN ,
      368    15430    5                                   LENGTH_ID3$ ,
      369    15431    5                                   COMPARISON$);
      370    15432
      371    15433    5                CALL Z8EK$BRANCH_TRUE(OVERFLOW$, COMPARISON$);

  15433 16 000463   200307 630500                    EPPR0   COMPARISON$,,AUTO
        16 000464   200431 450500                    STP0    LENGTH_ID2$+2,,AUTO
        16 000465   200303 631500                    EPPR1   OVERFLOW$,,AUTO
        16 000466   200430 451500                    STP1    LENGTH_ID2$+1,,AUTO
        16 000467   200430 630500                    EPPR0   LENGTH_ID2$+1,,AUTO
        16 000470   000006 631400 17                 EPPR1   6
        16 000471   000000 701000 xent               TSX1    Z8EK$BRANCH_TRUE
        16 000472   000000 011000                    NOP     0

      372    15434
      373    15435    5                CALL Z8ED$DISPOSE_ABSSYN_TREE(COMPARISON$);

  15435 16 000473   200307 630500                    EPPR0   COMPARISON$,,AUTO
        16 000474   200430 450500                    STP0    LENGTH_ID2$+1,,AUTO
        16 000475   200430 630500                    EPPR0   LENGTH_ID2$+1,,AUTO
        16 000476   000020 631400 17                 EPPR1   16
        16 000477   000000 701000 xent               TSX1    Z8ED$DISPOSE_ABSSYN_TREE
        16 000500   000000 011000                    NOP     0

      374    15436    5              END ; /* Pointer clause or this is not the 1st id1 */

      375    15437
      376    15438    4              CALL PREPARE_ID1(IDENTS$, ID1$);

  15438 16 000501   200270 630500                    EPPR0   ID1$,,AUTO
        16 000502   200340 450500                    STP0    @COUNT$+1,,AUTO
PL6.E3A0      #001=Z8EZ$STRING File=Z8EZ.:Z8A6TSI                                SAT 08/09/97 12:59 Page:68
        16 000503   200023 631500                    EPPR1   IDENTS$,,AUTO
        16 000504   200337 451500                    STP1    OP+2,,AUTO
        16 000505   002402 701000 16                 TSX1    PREPARE_ID1
        16 000506   000000 011000                    NOP     0

      377    15439
      378    15440                   %INIT_BINARY_OP( @POINTER     = LENGTH_ID3_P1$ ,
      379    15441                                    @OP          = %OP_PLUS,
      380    15442                                    @LOP$        = LENGTH_ID3$ ,
      381    15443                                    @ROP$        = ONE$) ;

  15445 16 000507   000005 220003                    LDX0    5,DU
        16 000510   200316 470500                    LDP0    LENGTH_ID3_P1$,,AUTO
        16 000511   000000 740100                    STX0    0,,PR0

  15446 16 000512   000000 221003                    LDX1    0,DU
        16 000513   200316 470500                    LDP0    LENGTH_ID3_P1$,,AUTO
        16 000514   000000 441100                    SXL1    0,,PR0

  15453 16 000515   000133 235000 xsym               LDA     COMCOM+91
        16 000516   200316 470500                    LDP0    LENGTH_ID3_P1$,,AUTO
        16 000517   000005 755100                    STA     5,,PR0

  15454 16 000520   000134 235000 xsym               LDA     COMCOM+92
        16 000521   200316 470500                    LDP0    LENGTH_ID3_P1$,,AUTO
        16 000522   000006 755100                    STA     6,,PR0

  15455 16 000523   200313 236100                    LDQ     ONE$,,AUTO
        16 000524   200316 470500                    LDP0    LENGTH_ID3_P1$,,AUTO
        16 000525   000002 756100                    STQ     2,,PR0

  15456 16 000526   200277 236100                    LDQ     LENGTH_ID3$,,AUTO
        16 000527   200316 470500                    LDP0    LENGTH_ID3_P1$,,AUTO
        16 000530   000001 756100                    STQ     1,,PR0

  15457 16 000531   000020 235007                    LDA     16,DL
        16 000532   200316 470500                    LDP0    LENGTH_ID3_P1$,,AUTO
PL6.E3A0      #001=Z8EZ$STRING File=Z8EZ.:Z8A6TSI                                SAT 08/09/97 12:59 Page:69
        16 000533   000003 755100                    STA     3,,PR0

  15458 16 000534   000005 236000 17                 LDQ     5
        16 000535   200316 470500                    LDP0    LENGTH_ID3_P1$,,AUTO
        16 000536   000007 756100                    STQ     7,,PR0

      382    15461
      383    15462                   %INIT_BINARY_OP( @POINTER     = REMAINDER$ ,
      384    15463                                    @OP          = %OP_BINARY_MINUS,
      385    15464                                    @LOP$        = LENGTH_ID3_P1$ ,
      386    15465                                    @ROP$        = ID4$ );

  15467 16 000537   200323 470500                    LDP0    REMAINDER$,,AUTO
        16 000540   000000 740100                    STX0    0,,PR0

  15468 16 000541   200323 470500                    LDP0    REMAINDER$,,AUTO
        16 000542   000000 441100                    SXL1    0,,PR0

  15475 16 000543   000133 236000 xsym               LDQ     COMCOM+91
        16 000544   200323 470500                    LDP0    REMAINDER$,,AUTO
        16 000545   000005 756100                    STQ     5,,PR0

  15476 16 000546   000134 236000 xsym               LDQ     COMCOM+92
        16 000547   200323 470500                    LDP0    REMAINDER$,,AUTO
        16 000550   000006 756100                    STQ     6,,PR0

  15477 16 000551   200273 236100                    LDQ     ID4$,,AUTO
        16 000552   200323 470500                    LDP0    REMAINDER$,,AUTO
        16 000553   000002 756100                    STQ     2,,PR0

  15478 16 000554   200316 236100                    LDQ     LENGTH_ID3_P1$,,AUTO
        16 000555   200323 470500                    LDP0    REMAINDER$,,AUTO
        16 000556   000001 756100                    STQ     1,,PR0

  15479 16 000557   000021 236007                    LDQ     17,DL
        16 000560   200323 470500                    LDP0    REMAINDER$,,AUTO
        16 000561   000003 756100                    STQ     3,,PR0
PL6.E3A0      #001=Z8EZ$STRING File=Z8EZ.:Z8A6TSI                                SAT 08/09/97 12:59 Page:70

  15480 16 000562   000005 236000 17                 LDQ     5
        16 000563   200323 470500                    LDP0    REMAINDER$,,AUTO
        16 000564   000007 756100                    STQ     7,,PR0

      387    15483
      388    15484    4              IF SIZE THEN

  15484 16 000565   200327 234100                    SZN     SIZE,,AUTO
        16 000566   000676 605000 16                 TPL     s:15521

      389    15485    5                DO;

      390    15486    5                  INDEX$ = LENGTH_ID1$ ; /* Index (id1, SIZE) */

  15486 16 000567   200275 236100                    LDQ     LENGTH_ID1$,,AUTO
        16 000570   200321 756100                    STQ     INDEX$,,AUTO

      391    15487
      392    15488                       %INIT_BINARY_OP( @POINTER    = MINIMUM$ ,
      393    15489                                        @OP         = %OP_MINIMUM ,
      394    15490                                        @LOP$       = REMAINDER$ ,
      395    15491                                        @ROP$       = LENGTH_ID1$ );

  15493 16 000571   200317 470500                    LDP0    MINIMUM$,,AUTO
        16 000572   000000 740100                    STX0    0,,PR0

  15494 16 000573   200317 470500                    LDP0    MINIMUM$,,AUTO
        16 000574   000000 441100                    SXL1    0,,PR0

  15501 16 000575   000133 236000 xsym               LDQ     COMCOM+91
        16 000576   200317 470500                    LDP0    MINIMUM$,,AUTO
        16 000577   000005 756100                    STQ     5,,PR0

  15502 16 000600   000134 236000 xsym               LDQ     COMCOM+92
        16 000601   200317 470500                    LDP0    MINIMUM$,,AUTO
        16 000602   000006 756100                    STQ     6,,PR0
PL6.E3A0      #001=Z8EZ$STRING File=Z8EZ.:Z8A6TSI                                SAT 08/09/97 12:59 Page:71

  15503 16 000603   200275 236100                    LDQ     LENGTH_ID1$,,AUTO
        16 000604   200317 470500                    LDP0    MINIMUM$,,AUTO
        16 000605   000002 756100                    STQ     2,,PR0

  15504 16 000606   200323 236100                    LDQ     REMAINDER$,,AUTO
        16 000607   200317 470500                    LDP0    MINIMUM$,,AUTO
        16 000610   000001 756100                    STQ     1,,PR0

  15505 16 000611   000034 236007                    LDQ     28,DL
        16 000612   200317 470500                    LDP0    MINIMUM$,,AUTO
        16 000613   000003 756100                    STQ     3,,PR0

  15506 16 000614   000005 236000 17                 LDQ     5
        16 000615   200317 470500                    LDP0    MINIMUM$,,AUTO
        16 000616   000007 756100                    STQ     7,,PR0

      396    15509
      397    15510    5                  CALL Z8E5$MATH_PACK(MINIMUM$, MINIMUM$);

  15510 16 000617   200317 630500                    EPPR0   MINIMUM$,,AUTO
        16 000620   200431 450500                    STP0    LENGTH_ID2$+2,,AUTO
        16 000621   200317 631500                    EPPR1   MINIMUM$,,AUTO
        16 000622   200430 451500                    STP1    LENGTH_ID2$+1,,AUTO
        16 000623   200430 630500                    EPPR0   LENGTH_ID2$+1,,AUTO
        16 000624   000006 631400 17                 EPPR1   6
        16 000625   000000 701000 xent               TSX1    Z8E5$MATH_PACK
        16 000626   000000 011000                    NOP     0

      398    15511
      399    15512    5                  IF POINTER OR ID1_COUNT ~= 1 THEN

  15512 16 000627   200325 234100                    SZN     POINTER,,AUTO
        16 000630   000634 604000 16                 TMI     s:15513
        16 000631   200333 235100                    LDA     ID1_COUNT,,AUTO
        16 000632   000001 115007                    CMPA    1,DL
        16 000633   000651 600000 16                 TZE     s:15515
PL6.E3A0      #001=Z8EZ$STRING File=Z8EZ.:Z8A6TSI                                SAT 08/09/97 12:59 Page:72

      400    15513    5                    CALL Z8EY$INSERT(ID3$, ID4$, MINIMUM$, RECEIVING$);

  15513 16 000634   200320 630500                    EPPR0   RECEIVING$,,AUTO
        16 000635   200433 450500                    STP0    LENGTH_ID2$+4,,AUTO
        16 000636   200317 631500                    EPPR1   MINIMUM$,,AUTO
        16 000637   200432 451500                    STP1    LENGTH_ID2$+3,,AUTO
        16 000640   200273 633500                    EPPR3   ID4$,,AUTO
        16 000641   200431 453500                    STP3    LENGTH_ID2$+2,,AUTO
        16 000642   200272 634500                    EPPR4   ID3$,,AUTO
        16 000643   200430 454500                    STP4    LENGTH_ID2$+1,,AUTO
        16 000644   200430 630500                    EPPR0   LENGTH_ID2$+1,,AUTO
        16 000645   000015 631400 17                 EPPR1   13
        16 000646   000000 701000 xent               TSX1    Z8EY$INSERT
        16 000647   000000 011000                    NOP     0
        16 000650   000665 710000 16                 TRA     s:15517

      401    15514    5                  ELSE
      402    15515    5                    CALL Z8EY$INSERT (ID3$, ONE$, MINIMUM$, RECEIVING$) ;

  15515 16 000651   200320 630500                    EPPR0   RECEIVING$,,AUTO
        16 000652   200433 450500                    STP0    LENGTH_ID2$+4,,AUTO
        16 000653   200317 631500                    EPPR1   MINIMUM$,,AUTO
        16 000654   200432 451500                    STP1    LENGTH_ID2$+3,,AUTO
        16 000655   200313 633500                    EPPR3   ONE$,,AUTO
        16 000656   200431 453500                    STP3    LENGTH_ID2$+2,,AUTO
        16 000657   200272 634500                    EPPR4   ID3$,,AUTO
        16 000660   200430 454500                    STP4    LENGTH_ID2$+1,,AUTO
        16 000661   200430 630500                    EPPR0   LENGTH_ID2$+1,,AUTO
        16 000662   000015 631400 17                 EPPR1   13
        16 000663   000000 701000 xent               TSX1    Z8EY$INSERT
        16 000664   000000 011000                    NOP     0

      403    15516
      404    15517    5                  CALL Z8E7$MOVE(RECEIVING$, ID1$);

  15517 16 000665   200270 630500                    EPPR0   ID1$,,AUTO
PL6.E3A0      #001=Z8EZ$STRING File=Z8EZ.:Z8A6TSI                                SAT 08/09/97 12:59 Page:73
        16 000666   200431 450500                    STP0    LENGTH_ID2$+2,,AUTO
        16 000667   200320 631500                    EPPR1   RECEIVING$,,AUTO
        16 000670   200430 451500                    STP1    LENGTH_ID2$+1,,AUTO
        16 000671   200430 630500                    EPPR0   LENGTH_ID2$+1,,AUTO
        16 000672   000006 631400 17                 EPPR1   6
        16 000673   000000 701000 xent               TSX1    Z8E7$MOVE
        16 000674   000000 011000                    NOP     0

      405    15518    5                END;

  15518 16 000675   001103 710000 16                 TRA     s:15608

      406    15519    4              ELSE
      407    15520    5                DO;

      408    15521    5                  INDEX_EXPR$ = ADDR (INDEX_EXPR) ;

  15521 16 000676   200214 630500                    EPPR0   INDEX_EXPR,,AUTO
        16 000677   200322 450500                    STP0    INDEX_EXPR$,,AUTO

      409    15522                       %INIT_LX_ETT_ITEM (@POINTER = INDEX$, @TYPE = %TYI) ;

  15524 16 000700   000004 222003                    LDX2    4,DU
        16 000701   200321 471500                    LDP1    INDEX$,,AUTO
        16 000702   100000 742100                    STX2    0,,PR1

  15525 16 000703   200321 470500                    LDP0    INDEX$,,AUTO
        16 000704   000000 441100                    SXL1    0,,PR0

  15526 16 000705   000001 236007                    LDQ     1,DL
        16 000706   200321 470500                    LDP0    INDEX$,,AUTO
        16 000707   000004 756100                    STQ     4,,PR0

  15527 16 000710   000005 236000 17                 LDQ     5
        16 000711   200321 470500                    LDP0    INDEX$,,AUTO
        16 000712   000007 756100                    STQ     7,,PR0

PL6.E3A0      #001=Z8EZ$STRING File=Z8EZ.:Z8A6TSI                                SAT 08/09/97 12:59 Page:74
  15528 16 000713   200321 470500                    LDP0    INDEX$,,AUTO
        16 000714   000001 756100                    STQ     1,,PR0

  15529 16 000715   000005 236000 17                 LDQ     5
        16 000716   200321 470500                    LDP0    INDEX$,,AUTO
        16 000717   000002 756100                    STQ     2,,PR0

  15531 16 000720   000133 236000 xsym               LDQ     COMCOM+91
        16 000721   200321 470500                    LDP0    INDEX$,,AUTO
        16 000722   000005 756100                    STQ     5,,PR0

  15532 16 000723   000134 236000 xsym               LDQ     COMCOM+92
        16 000724   200321 470500                    LDP0    INDEX$,,AUTO
        16 000725   000006 756100                    STQ     6,,PR0

      410    15544    5                  CALL Z8AT$CREATE_TEMP_WITH_BASE (%SCALAR,

  15544 16 000726   200321 236100                    LDQ     INDEX$,,AUTO
        16 000727   000001 036003                    ADLQ    1,DU
        16 000730   000022 235000 17                 LDA     18
        16 000731   200430 757100                    STAQ    LENGTH_ID2$+1,,AUTO
        16 000732   200430 630500                    EPPR0   LENGTH_ID2$+1,,AUTO
        16 000733   000006 631400 17                 EPPR1   6
        16 000734   000000 701000 xent               TSX1    Z8AT$CREATE_TEMP_WITH_BASE
        16 000735   000000 011000                    NOP     0

      411    15545    5                                          INDEX$ -> LX_ETT_ITEM.ETT$) ;
      412    15546
      413    15547    5                  IF ID3_ST$ -> SCALAR.B.KANJI  THEN

  15547 16 000736   200274 470500                    LDP0    ID3_ST$,,AUTO
        16 000737   000003 236100                    LDQ     3,,PR0
        16 000740   001000 316007                    CANQ    512,DL
        16 000741   000747 600000 16                 TZE     s:15556

      414    15548    5                    CALL KANJI_INDEX( INDEX$ );

PL6.E3A0      #001=Z8EZ$STRING File=Z8EZ.:Z8A6TSI                                SAT 08/09/97 12:59 Page:75
  15548 16 000742   200321 631500                    EPPR1   INDEX$,,AUTO
        16 000743   200337 451500                    STP1    OP+2,,AUTO
        16 000744   002777 701000 16                 TSX1    KANJI_INDEX
        16 000745   000000 011000                    NOP     0
        16 000746   001017 710000 16                 TRA     s:15582

      415    15549    5                  ELSE
      416    15550    6                    DO;

      417    15551                           %INIT_BINARY_OP( @POINTER    = INDEX_EXPR$ ,
      418    15552                                            @OP         = %OP_INDEX ,
      419    15553                                            @LOP$       = ID2$ ,
      420    15554                                            @ROP$       = ID1$ );

  15556 16 000747   000005 220003                    LDX0    5,DU
        16 000750   200322 471500                    LDP1    INDEX_EXPR$,,AUTO
        16 000751   100000 740100                    STX0    0,,PR1

  15557 16 000752   000000 221003                    LDX1    0,DU
        16 000753   200322 471500                    LDP1    INDEX_EXPR$,,AUTO
        16 000754   100000 441100                    SXL1    0,,PR1

  15564 16 000755   000133 235000 xsym               LDA     COMCOM+91
        16 000756   200322 471500                    LDP1    INDEX_EXPR$,,AUTO
        16 000757   100005 755100                    STA     5,,PR1

  15565 16 000760   000134 235000 xsym               LDA     COMCOM+92
        16 000761   200322 471500                    LDP1    INDEX_EXPR$,,AUTO
        16 000762   100006 755100                    STA     6,,PR1

  15566 16 000763   200270 236100                    LDQ     ID1$,,AUTO
        16 000764   200322 471500                    LDP1    INDEX_EXPR$,,AUTO
        16 000765   100002 756100                    STQ     2,,PR1

  15567 16 000766   200271 236100                    LDQ     ID2$,,AUTO
        16 000767   200322 471500                    LDP1    INDEX_EXPR$,,AUTO
        16 000770   100001 756100                    STQ     1,,PR1
PL6.E3A0      #001=Z8EZ$STRING File=Z8EZ.:Z8A6TSI                                SAT 08/09/97 12:59 Page:76

  15568 16 000771   000035 235007                    LDA     29,DL
        16 000772   200322 471500                    LDP1    INDEX_EXPR$,,AUTO
        16 000773   100003 755100                    STA     3,,PR1

  15569 16 000774   000005 236000 17                 LDQ     5
        16 000775   200322 471500                    LDP1    INDEX_EXPR$,,AUTO
        16 000776   100007 756100                    STQ     7,,PR1

      421    15572
      422    15573    6                      CALL Z8E5$MATH_PACK (INDEX_EXPR$, INDEX_EXPR$) ;

  15573 16 000777   200322 631500                    EPPR1   INDEX_EXPR$,,AUTO
        16 001000   200431 451500                    STP1    LENGTH_ID2$+2,,AUTO
        16 001001   200322 633500                    EPPR3   INDEX_EXPR$,,AUTO
        16 001002   200430 453500                    STP3    LENGTH_ID2$+1,,AUTO
        16 001003   200430 630500                    EPPR0   LENGTH_ID2$+1,,AUTO
        16 001004   000006 631400 17                 EPPR1   6
        16 001005   000000 701000 xent               TSX1    Z8E5$MATH_PACK
        16 001006   000000 011000                    NOP     0

      423    15574    6                      CALL Z8E7$MOVE (INDEX$, INDEX_EXPR$) ;

  15574 16 001007   200322 630500                    EPPR0   INDEX_EXPR$,,AUTO
        16 001010   200431 450500                    STP0    LENGTH_ID2$+2,,AUTO
        16 001011   200321 631500                    EPPR1   INDEX$,,AUTO
        16 001012   200430 451500                    STP1    LENGTH_ID2$+1,,AUTO
        16 001013   200430 630500                    EPPR0   LENGTH_ID2$+1,,AUTO
        16 001014   000006 631400 17                 EPPR1   6
        16 001015   000000 701000 xent               TSX1    Z8E7$MOVE
        16 001016   000000 011000                    NOP     0

      424    15575    6                    END;

      425    15576
      426    15577                       %INIT_BINARY_OP( @POINTER    = MINIMUM$ ,
      427    15578                                        @OP         = %OP_MINIMUM ,
PL6.E3A0      #001=Z8EZ$STRING File=Z8EZ.:Z8A6TSI                                SAT 08/09/97 12:59 Page:77
      428    15579                                        @LOP$       = REMAINDER$ ,
      429    15580                                        @ROP$       = INDEX$ );

  15582 16 001017   000005 220003                    LDX0    5,DU
        16 001020   200317 470500                    LDP0    MINIMUM$,,AUTO
        16 001021   000000 740100                    STX0    0,,PR0

  15583 16 001022   000000 221003                    LDX1    0,DU
        16 001023   200317 470500                    LDP0    MINIMUM$,,AUTO
        16 001024   000000 441100                    SXL1    0,,PR0

  15590 16 001025   000133 235000 xsym               LDA     COMCOM+91
        16 001026   200317 470500                    LDP0    MINIMUM$,,AUTO
        16 001027   000005 755100                    STA     5,,PR0

  15591 16 001030   000134 235000 xsym               LDA     COMCOM+92
        16 001031   200317 470500                    LDP0    MINIMUM$,,AUTO
        16 001032   000006 755100                    STA     6,,PR0

  15592 16 001033   200321 236100                    LDQ     INDEX$,,AUTO
        16 001034   200317 470500                    LDP0    MINIMUM$,,AUTO
        16 001035   000002 756100                    STQ     2,,PR0

  15593 16 001036   200323 236100                    LDQ     REMAINDER$,,AUTO
        16 001037   200317 470500                    LDP0    MINIMUM$,,AUTO
        16 001040   000001 756100                    STQ     1,,PR0

  15594 16 001041   000034 235007                    LDA     28,DL
        16 001042   200317 470500                    LDP0    MINIMUM$,,AUTO
        16 001043   000003 755100                    STA     3,,PR0

  15595 16 001044   000005 236000 17                 LDQ     5
        16 001045   200317 470500                    LDP0    MINIMUM$,,AUTO
        16 001046   000007 756100                    STQ     7,,PR0

      430    15598
      431    15599    5                  CALL Z8E5$MATH_PACK(MINIMUM$, MINIMUM$);
PL6.E3A0      #001=Z8EZ$STRING File=Z8EZ.:Z8A6TSI                                SAT 08/09/97 12:59 Page:78

  15599 16 001047   200317 630500                    EPPR0   MINIMUM$,,AUTO
        16 001050   200431 450500                    STP0    LENGTH_ID2$+2,,AUTO
        16 001051   200317 631500                    EPPR1   MINIMUM$,,AUTO
        16 001052   200430 451500                    STP1    LENGTH_ID2$+1,,AUTO
        16 001053   200430 630500                    EPPR0   LENGTH_ID2$+1,,AUTO
        16 001054   000006 631400 17                 EPPR1   6
        16 001055   000000 701000 xent               TSX1    Z8E5$MATH_PACK
        16 001056   000000 011000                    NOP     0

      432    15600
      433    15601    5                  CALL Z8EY$INSERT(ID3$, ID4$, MINIMUM$, RECEIVING$);

  15601 16 001057   200320 630500                    EPPR0   RECEIVING$,,AUTO
        16 001060   200433 450500                    STP0    LENGTH_ID2$+4,,AUTO
        16 001061   200317 631500                    EPPR1   MINIMUM$,,AUTO
        16 001062   200432 451500                    STP1    LENGTH_ID2$+3,,AUTO
        16 001063   200273 633500                    EPPR3   ID4$,,AUTO
        16 001064   200431 453500                    STP3    LENGTH_ID2$+2,,AUTO
        16 001065   200272 634500                    EPPR4   ID3$,,AUTO
        16 001066   200430 454500                    STP4    LENGTH_ID2$+1,,AUTO
        16 001067   200430 630500                    EPPR0   LENGTH_ID2$+1,,AUTO
        16 001070   000015 631400 17                 EPPR1   13
        16 001071   000000 701000 xent               TSX1    Z8EY$INSERT
        16 001072   000000 011000                    NOP     0

      434    15602
      435    15603    5                  CALL Z8E7$MOVE(RECEIVING$, ID1$);

  15603 16 001073   200270 630500                    EPPR0   ID1$,,AUTO
        16 001074   200431 450500                    STP0    LENGTH_ID2$+2,,AUTO
        16 001075   200320 631500                    EPPR1   RECEIVING$,,AUTO
        16 001076   200430 451500                    STP1    LENGTH_ID2$+1,,AUTO
        16 001077   200430 630500                    EPPR0   LENGTH_ID2$+1,,AUTO
        16 001100   000006 631400 17                 EPPR1   6
        16 001101   000000 701000 xent               TSX1    Z8E7$MOVE
        16 001102   000000 011000                    NOP     0
PL6.E3A0      #001=Z8EZ$STRING File=Z8EZ.:Z8A6TSI                                SAT 08/09/97 12:59 Page:79

      436    15604    5                END;

      437    15605
      438    15606                   /* IF Remainder >= Index(id1,id2) THEN GO TO No_Overflow */
      439    15607
      440    15608    4              CALL Z8EK$COMPARE (REMAINDER$,

  15608 16 001103   200307 630500                    EPPR0   COMPARISON$,,AUTO
        16 001104   200433 450500                    STP0    LENGTH_ID2$+4,,AUTO
        16 001105   200321 631500                    EPPR1   INDEX$,,AUTO
        16 001106   200432 451500                    STP1    LENGTH_ID2$+3,,AUTO
        16 001107   000024 236000 17                 LDQ     20
        16 001110   200431 756100                    STQ     LENGTH_ID2$+2,,AUTO
        16 001111   200323 633500                    EPPR3   REMAINDER$,,AUTO
        16 001112   200430 453500                    STP3    LENGTH_ID2$+1,,AUTO
        16 001113   200430 630500                    EPPR0   LENGTH_ID2$+1,,AUTO
        16 001114   000015 631400 17                 EPPR1   13
        16 001115   000000 701000 xent               TSX1    Z8EK$COMPARE
        16 001116   000000 011000                    NOP     0

      441    15609    4                                 %OP_GREATER_THAN_OR_EQUAL,
      442    15610    4                                 INDEX$,
      443    15611    4                                 COMPARISON$) ;
      444    15612
      445    15613    4              CALL Z8AT$CREATE_TEMPORARY (%PARA, NO_OVERFLOW$) ;

  15613 16 001117   200304 630500                    EPPR0   NO_OVERFLOW$,,AUTO
        16 001120   200431 450500                    STP0    LENGTH_ID2$+2,,AUTO
        16 001121   000014 236000 17                 LDQ     12
        16 001122   200430 756100                    STQ     LENGTH_ID2$+1,,AUTO
        16 001123   200430 630500                    EPPR0   LENGTH_ID2$+1,,AUTO
        16 001124   000006 631400 17                 EPPR1   6
        16 001125   000000 701000 xent               TSX1    Z8AT$CREATE_TEMPORARY
        16 001126   000000 011000                    NOP     0

      446    15614    4              CALL Z8EK$BRANCH_TRUE (NO_OVERFLOW$, COMPARISON$) ;
PL6.E3A0      #001=Z8EZ$STRING File=Z8EZ.:Z8A6TSI                                SAT 08/09/97 12:59 Page:80

  15614 16 001127   200307 630500                    EPPR0   COMPARISON$,,AUTO
        16 001130   200431 450500                    STP0    LENGTH_ID2$+2,,AUTO
        16 001131   200304 631500                    EPPR1   NO_OVERFLOW$,,AUTO
        16 001132   200430 451500                    STP1    LENGTH_ID2$+1,,AUTO
        16 001133   200430 630500                    EPPR0   LENGTH_ID2$+1,,AUTO
        16 001134   000006 631400 17                 EPPR1   6
        16 001135   000000 701000 xent               TSX1    Z8EK$BRANCH_TRUE
        16 001136   000000 011000                    NOP     0

      447    15615    4              CALL Z8ED$DISPOSE_ABSSYN_TREE (COMPARISON$) ;

  15615 16 001137   200307 630500                    EPPR0   COMPARISON$,,AUTO
        16 001140   200430 450500                    STP0    LENGTH_ID2$+1,,AUTO
        16 001141   200430 630500                    EPPR0   LENGTH_ID2$+1,,AUTO
        16 001142   000020 631400 17                 EPPR1   16
        16 001143   000000 701000 xent               TSX1    Z8ED$DISPOSE_ABSSYN_TREE
        16 001144   000000 011000                    NOP     0

      448    15616
      449    15617    5              IF POINTER THEN DO ;

  15617 16 001145   200325 234100                    SZN     POINTER,,AUTO
        16 001146   001272 605000 16                 TPL     s:15686

      450    15618
      451    15619                     /* MOVE Length(id3)+1 TO id4 */
      452    15620
      453    15621    5                IF ID3_ST$ -> SCALAR.B.KANJI   THEN

  15621 16 001147   200274 470500                    LDP0    ID3_ST$,,AUTO
        16 001150   000003 236100                    LDQ     3,,PR0
        16 001151   001000 316007                    CANQ    512,DL
        16 001152   001252 600000 16                 TZE     s:15676

      454    15622    6                  DO;

PL6.E3A0      #001=Z8EZ$STRING File=Z8EZ.:Z8A6TSI                                SAT 08/09/97 12:59 Page:81
      455    15623
      456    15624                         %INIT_BINARY_OP( @POINTER = PLUS_ONE$,
      457    15625                                          @OP   = %OP_PLUS,
      458    15626                                          @LOP$ = LENGTH_ID3_P1$,
      459    15627                                          @ROP$ = ONE$ );

  15629 16 001153   000005 220003                    LDX0    5,DU
        16 001154   200312 471500                    LDP1    PLUS_ONE$,,AUTO
        16 001155   100000 740100                    STX0    0,,PR1

  15630 16 001156   000000 221003                    LDX1    0,DU
        16 001157   200312 471500                    LDP1    PLUS_ONE$,,AUTO
        16 001160   100000 441100                    SXL1    0,,PR1

  15637 16 001161   000133 235000 xsym               LDA     COMCOM+91
        16 001162   200312 471500                    LDP1    PLUS_ONE$,,AUTO
        16 001163   100005 755100                    STA     5,,PR1

  15638 16 001164   000134 235000 xsym               LDA     COMCOM+92
        16 001165   200312 471500                    LDP1    PLUS_ONE$,,AUTO
        16 001166   100006 755100                    STA     6,,PR1

  15639 16 001167   200313 236100                    LDQ     ONE$,,AUTO
        16 001170   200312 471500                    LDP1    PLUS_ONE$,,AUTO
        16 001171   100002 756100                    STQ     2,,PR1

  15640 16 001172   200316 236100                    LDQ     LENGTH_ID3_P1$,,AUTO
        16 001173   200312 471500                    LDP1    PLUS_ONE$,,AUTO
        16 001174   100001 756100                    STQ     1,,PR1

  15641 16 001175   000020 235007                    LDA     16,DL
        16 001176   200312 471500                    LDP1    PLUS_ONE$,,AUTO
        16 001177   100003 755100                    STA     3,,PR1

  15642 16 001200   000005 236000 17                 LDQ     5
        16 001201   200312 471500                    LDP1    PLUS_ONE$,,AUTO
        16 001202   100007 756100                    STQ     7,,PR1
PL6.E3A0      #001=Z8EZ$STRING File=Z8EZ.:Z8A6TSI                                SAT 08/09/97 12:59 Page:82

      460    15645
      461    15646                         %INIT_BINARY_OP( @POINTER = KANJI_LX_ETT$,
      462    15647                                          @OP   = %OP_SLASH,
      463    15648                                          @LOP$ = PLUS_ONE$,
      464    15649                                          @ROP$ = TWO$ );

  15651 16 001203   200310 471500                    LDP1    KANJI_LX_ETT$,,AUTO
        16 001204   100000 740100                    STX0    0,,PR1

  15652 16 001205   200310 471500                    LDP1    KANJI_LX_ETT$,,AUTO
        16 001206   100000 441100                    SXL1    0,,PR1

  15659 16 001207   000133 236000 xsym               LDQ     COMCOM+91
        16 001210   200310 471500                    LDP1    KANJI_LX_ETT$,,AUTO
        16 001211   100005 756100                    STQ     5,,PR1

  15660 16 001212   000134 236000 xsym               LDQ     COMCOM+92
        16 001213   200310 471500                    LDP1    KANJI_LX_ETT$,,AUTO
        16 001214   100006 756100                    STQ     6,,PR1

  15661 16 001215   200314 236100                    LDQ     TWO$,,AUTO
        16 001216   200310 471500                    LDP1    KANJI_LX_ETT$,,AUTO
        16 001217   100002 756100                    STQ     2,,PR1

  15662 16 001220   200312 236100                    LDQ     PLUS_ONE$,,AUTO
        16 001221   200310 471500                    LDP1    KANJI_LX_ETT$,,AUTO
        16 001222   100001 756100                    STQ     1,,PR1

  15663 16 001223   000023 236007                    LDQ     19,DL
        16 001224   200310 471500                    LDP1    KANJI_LX_ETT$,,AUTO
        16 001225   100003 756100                    STQ     3,,PR1

  15664 16 001226   000005 236000 17                 LDQ     5
        16 001227   200310 471500                    LDP1    KANJI_LX_ETT$,,AUTO
        16 001230   100007 756100                    STQ     7,,PR1

PL6.E3A0      #001=Z8EZ$STRING File=Z8EZ.:Z8A6TSI                                SAT 08/09/97 12:59 Page:83
      465    15667
      466    15668    6                    CALL Z8E5$MATH_PACK( KANJI_LX_ETT$,

  15668 16 001231   200310 631500                    EPPR1   KANJI_LX_ETT$,,AUTO
        16 001232   200431 451500                    STP1    LENGTH_ID2$+2,,AUTO
        16 001233   200310 633500                    EPPR3   KANJI_LX_ETT$,,AUTO
        16 001234   200430 453500                    STP3    LENGTH_ID2$+1,,AUTO
        16 001235   200430 630500                    EPPR0   LENGTH_ID2$+1,,AUTO
        16 001236   000006 631400 17                 EPPR1   6
        16 001237   000000 701000 xent               TSX1    Z8E5$MATH_PACK
        16 001240   000000 011000                    NOP     0

      467    15669    6                                         KANJI_LX_ETT$ );
      468    15670
      469    15671    6                    CALL Z8E7$MOVE( ID4$,

  15671 16 001241   200310 630500                    EPPR0   KANJI_LX_ETT$,,AUTO
        16 001242   200431 450500                    STP0    LENGTH_ID2$+2,,AUTO
        16 001243   200273 631500                    EPPR1   ID4$,,AUTO
        16 001244   200430 451500                    STP1    LENGTH_ID2$+1,,AUTO
        16 001245   200430 630500                    EPPR0   LENGTH_ID2$+1,,AUTO
        16 001246   000006 631400 17                 EPPR1   6
        16 001247   000000 701000 xent               TSX1    Z8E7$MOVE
        16 001250   000000 011000                    NOP     0

      470    15672    6                                    KANJI_LX_ETT$ );
      471    15673    6                  END;

  15673 16 001251   001272 710000 16                 TRA     s:15686

      472    15674    5                ELSE
      473    15675    6                  DO;

      474    15676    6                    CALL Z8E5$MATH_PACK( LENGTH_ID3_P1$,

  15676 16 001252   200316 631500                    EPPR1   LENGTH_ID3_P1$,,AUTO
        16 001253   200431 451500                    STP1    LENGTH_ID2$+2,,AUTO
PL6.E3A0      #001=Z8EZ$STRING File=Z8EZ.:Z8A6TSI                                SAT 08/09/97 12:59 Page:84
        16 001254   200316 633500                    EPPR3   LENGTH_ID3_P1$,,AUTO
        16 001255   200430 453500                    STP3    LENGTH_ID2$+1,,AUTO
        16 001256   200430 630500                    EPPR0   LENGTH_ID2$+1,,AUTO
        16 001257   000006 631400 17                 EPPR1   6
        16 001260   000000 701000 xent               TSX1    Z8E5$MATH_PACK
        16 001261   000000 011000                    NOP     0

      475    15677    6                                         LENGTH_ID3_P1$ );
      476    15678    6                    CALL Z8E7$MOVE( ID4$,

  15678 16 001262   200316 630500                    EPPR0   LENGTH_ID3_P1$,,AUTO
        16 001263   200431 450500                    STP0    LENGTH_ID2$+2,,AUTO
        16 001264   200273 631500                    EPPR1   ID4$,,AUTO
        16 001265   200430 451500                    STP1    LENGTH_ID2$+1,,AUTO
        16 001266   200430 630500                    EPPR0   LENGTH_ID2$+1,,AUTO
        16 001267   000006 631400 17                 EPPR1   6
        16 001270   000000 701000 xent               TSX1    Z8E7$MOVE
        16 001271   000000 011000                    NOP     0

      477    15679    6                                    LENGTH_ID3_P1$ );
      478    15680    6                  END;

      479    15681
      480    15682    5              END ; /* POINTER clause used */

      481    15683
      482    15684                   /* GO TO Overflow */
      483    15685
      484    15686    4              CALL Z8EK$BRANCH (OVERFLOW$) ;

  15686 16 001272   200303 630500                    EPPR0   OVERFLOW$,,AUTO
        16 001273   200430 450500                    STP0    LENGTH_ID2$+1,,AUTO
        16 001274   200430 630500                    EPPR0   LENGTH_ID2$+1,,AUTO
        16 001275   000020 631400 17                 EPPR1   16
        16 001276   000000 701000 xent               TSX1    Z8EK$BRANCH
        16 001277   000000 011000                    NOP     0

PL6.E3A0      #001=Z8EZ$STRING File=Z8EZ.:Z8A6TSI                                SAT 08/09/97 12:59 Page:85
      485    15687
      486    15688                   %NEW_ILL (@ID = %DEFLB, @LOP = NO_OVERFLOW$) ;

  16009 16 001300   000027 236000 17                 LDQ     23
        16 001301   200430 756100                    STQ     LENGTH_ID2$+1,,AUTO
        16 001302   200430 630500                    EPPR0   LENGTH_ID2$+1,,AUTO
        16 001303   200435 450500                    STP0    LENGTH_ID2$+6,,AUTO
        16 001304   000030 236000 17                 LDQ     24
        16 001305   200434 756100                    STQ     LENGTH_ID2$+5,,AUTO
        16 001306   000032 237000 17                 LDAQ    26
        16 001307   200432 757100                    STAQ    LENGTH_ID2$+3,,AUTO
        16 001310   200432 630500                    EPPR0   LENGTH_ID2$+3,,AUTO
        16 001311   000015 631400 17                 EPPR1   13
        16 001312   000000 701000 xent               TSX1    Z8AN$NEW_ILL
        16 001313   000000 011000                    NOP     0

  16018 16 001314   200304 236100                    LDQ     NO_OVERFLOW$,,AUTO
        16 001315   000000 470400 11                 LDP0    ILL$
        16 001316   000001 756100                    STQ     1,,PR0

      487    16067
      488    16068    5              IF POINTER OR ID1_COUNT ~= ID1_MAX THEN DO ;

  16068 16 001317   200325 234100                    SZN     POINTER,,AUTO
        16 001320   001324 604000 16                 TMI     s:16077
        16 001321   200333 236100                    LDQ     ID1_COUNT,,AUTO
        16 001322   200334 116100                    CMPQ    ID1_MAX,,AUTO
        16 001323   001474 600000 16                 TZE     s:16157

      489    16069
      490    16070                     /* ADD Index(id1,id2) TO id4 */
      491    16071
      492    16072                     %INIT_BINARY_OP (@POINTER = ADD$,
      493    16073                                      @OP      = %OP_PLUS,
      494    16074                                      @LOP$    = ID4$,
      495    16075                                      @ROP$    = INDEX$) ;

PL6.E3A0      #001=Z8EZ$STRING File=Z8EZ.:Z8A6TSI                                SAT 08/09/97 12:59 Page:86
  16077 16 001324   000005 220003                    LDX0    5,DU
        16 001325   200315 471500                    LDP1    ADD$,,AUTO
        16 001326   100000 740100                    STX0    0,,PR1

  16078 16 001327   000000 221003                    LDX1    0,DU
        16 001330   200315 470500                    LDP0    ADD$,,AUTO
        16 001331   000000 441100                    SXL1    0,,PR0

  16085 16 001332   000133 235000 xsym               LDA     COMCOM+91
        16 001333   200315 470500                    LDP0    ADD$,,AUTO
        16 001334   000005 755100                    STA     5,,PR0

  16086 16 001335   000134 235000 xsym               LDA     COMCOM+92
        16 001336   200315 470500                    LDP0    ADD$,,AUTO
        16 001337   000006 755100                    STA     6,,PR0

  16087 16 001340   200321 236100                    LDQ     INDEX$,,AUTO
        16 001341   200315 470500                    LDP0    ADD$,,AUTO
        16 001342   000002 756100                    STQ     2,,PR0

  16088 16 001343   200273 236100                    LDQ     ID4$,,AUTO
        16 001344   200315 470500                    LDP0    ADD$,,AUTO
        16 001345   000001 756100                    STQ     1,,PR0

  16089 16 001346   000020 235007                    LDA     16,DL
        16 001347   200315 470500                    LDP0    ADD$,,AUTO
        16 001350   000003 755100                    STA     3,,PR0

  16090 16 001351   000005 236000 17                 LDQ     5
        16 001352   200315 470500                    LDP0    ADD$,,AUTO
        16 001353   000007 756100                    STQ     7,,PR0

      496    16093
      497    16094    5                IF ID3_ST$ -> SCALAR.B.KANJI   THEN

  16094 16 001354   200274 470500                    LDP0    ID3_ST$,,AUTO
        16 001355   000003 236100                    LDQ     3,,PR0
PL6.E3A0      #001=Z8EZ$STRING File=Z8EZ.:Z8A6TSI                                SAT 08/09/97 12:59 Page:87
        16 001356   001000 316007                    CANQ    512,DL
        16 001357   001454 600000 16                 TZE     s:16148

      498    16095    6                  DO;

      499    16096
      500    16097                         %INIT_BINARY_OP( @POINTER = PLUS_ONE$,
      501    16098                                          @OP   = %OP_PLUS,
      502    16099                                          @LOP$ = ADD$,
      503    16100                                          @ROP$ = ONE$ );

  16102 16 001360   200312 471500                    LDP1    PLUS_ONE$,,AUTO
        16 001361   100000 740100                    STX0    0,,PR1

  16103 16 001362   200312 471500                    LDP1    PLUS_ONE$,,AUTO
        16 001363   100000 441100                    SXL1    0,,PR1

  16110 16 001364   000133 236000 xsym               LDQ     COMCOM+91
        16 001365   200312 471500                    LDP1    PLUS_ONE$,,AUTO
        16 001366   100005 756100                    STQ     5,,PR1

  16111 16 001367   000134 236000 xsym               LDQ     COMCOM+92
        16 001370   200312 471500                    LDP1    PLUS_ONE$,,AUTO
        16 001371   100006 756100                    STQ     6,,PR1

  16112 16 001372   200313 236100                    LDQ     ONE$,,AUTO
        16 001373   200312 471500                    LDP1    PLUS_ONE$,,AUTO
        16 001374   100002 756100                    STQ     2,,PR1

  16113 16 001375   200315 236100                    LDQ     ADD$,,AUTO
        16 001376   200312 471500                    LDP1    PLUS_ONE$,,AUTO
        16 001377   100001 756100                    STQ     1,,PR1

  16114 16 001400   200312 471500                    LDP1    PLUS_ONE$,,AUTO
        16 001401   100003 755100                    STA     3,,PR1

  16115 16 001402   000005 236000 17                 LDQ     5
PL6.E3A0      #001=Z8EZ$STRING File=Z8EZ.:Z8A6TSI                                SAT 08/09/97 12:59 Page:88
        16 001403   200312 471500                    LDP1    PLUS_ONE$,,AUTO
        16 001404   100007 756100                    STQ     7,,PR1

      504    16118
      505    16119                         %INIT_BINARY_OP( @POINTER = KANJI_LX_ETT$,
      506    16120                                          @OP   = %OP_SLASH,
      507    16121                                          @LOP$ = PLUS_ONE$,
      508    16122                                          @ROP$ = TWO$ );

  16124 16 001405   200310 471500                    LDP1    KANJI_LX_ETT$,,AUTO
        16 001406   100000 740100                    STX0    0,,PR1

  16125 16 001407   200310 471500                    LDP1    KANJI_LX_ETT$,,AUTO
        16 001410   100000 441100                    SXL1    0,,PR1

  16132 16 001411   000133 236000 xsym               LDQ     COMCOM+91
        16 001412   200310 471500                    LDP1    KANJI_LX_ETT$,,AUTO
        16 001413   100005 756100                    STQ     5,,PR1

  16133 16 001414   000134 236000 xsym               LDQ     COMCOM+92
        16 001415   200310 471500                    LDP1    KANJI_LX_ETT$,,AUTO
        16 001416   100006 756100                    STQ     6,,PR1

  16134 16 001417   200314 236100                    LDQ     TWO$,,AUTO
        16 001420   200310 471500                    LDP1    KANJI_LX_ETT$,,AUTO
        16 001421   100002 756100                    STQ     2,,PR1

  16135 16 001422   200312 236100                    LDQ     PLUS_ONE$,,AUTO
        16 001423   200310 471500                    LDP1    KANJI_LX_ETT$,,AUTO
        16 001424   100001 756100                    STQ     1,,PR1

  16136 16 001425   000023 236007                    LDQ     19,DL
        16 001426   200310 471500                    LDP1    KANJI_LX_ETT$,,AUTO
        16 001427   100003 756100                    STQ     3,,PR1

  16137 16 001430   000005 236000 17                 LDQ     5
        16 001431   200310 471500                    LDP1    KANJI_LX_ETT$,,AUTO
PL6.E3A0      #001=Z8EZ$STRING File=Z8EZ.:Z8A6TSI                                SAT 08/09/97 12:59 Page:89
        16 001432   100007 756100                    STQ     7,,PR1

      509    16140
      510    16141    6                    CALL Z8E5$MATH_PACK( KANJI_LX_ETT$,

  16141 16 001433   200310 631500                    EPPR1   KANJI_LX_ETT$,,AUTO
        16 001434   200431 451500                    STP1    LENGTH_ID2$+2,,AUTO
        16 001435   200310 633500                    EPPR3   KANJI_LX_ETT$,,AUTO
        16 001436   200430 453500                    STP3    LENGTH_ID2$+1,,AUTO
        16 001437   200430 630500                    EPPR0   LENGTH_ID2$+1,,AUTO
        16 001440   000006 631400 17                 EPPR1   6
        16 001441   000000 701000 xent               TSX1    Z8E5$MATH_PACK
        16 001442   000000 011000                    NOP     0

      511    16142    6                                         KANJI_LX_ETT$ );
      512    16143    6                    CALL Z8E7$MOVE( ID4$,

  16143 16 001443   200310 630500                    EPPR0   KANJI_LX_ETT$,,AUTO
        16 001444   200431 450500                    STP0    LENGTH_ID2$+2,,AUTO
        16 001445   200273 631500                    EPPR1   ID4$,,AUTO
        16 001446   200430 451500                    STP1    LENGTH_ID2$+1,,AUTO
        16 001447   200430 630500                    EPPR0   LENGTH_ID2$+1,,AUTO
        16 001450   000006 631400 17                 EPPR1   6
        16 001451   000000 701000 xent               TSX1    Z8E7$MOVE
        16 001452   000000 011000                    NOP     0

      513    16144    6                                    KANJI_LX_ETT$ );
      514    16145    6                  END;

  16145 16 001453   001474 710000 16                 TRA     s:16157

      515    16146    5                ELSE
      516    16147    6                  DO;

      517    16148    6                    CALL Z8E5$MATH_PACK( ADD$, ADD$ );

  16148 16 001454   200315 631500                    EPPR1   ADD$,,AUTO
PL6.E3A0      #001=Z8EZ$STRING File=Z8EZ.:Z8A6TSI                                SAT 08/09/97 12:59 Page:90
        16 001455   200431 451500                    STP1    LENGTH_ID2$+2,,AUTO
        16 001456   200315 633500                    EPPR3   ADD$,,AUTO
        16 001457   200430 453500                    STP3    LENGTH_ID2$+1,,AUTO
        16 001460   200430 630500                    EPPR0   LENGTH_ID2$+1,,AUTO
        16 001461   000006 631400 17                 EPPR1   6
        16 001462   000000 701000 xent               TSX1    Z8E5$MATH_PACK
        16 001463   000000 011000                    NOP     0

      518    16149    6                    CALL Z8E7$MOVE( ID4$, ADD$ );

  16149 16 001464   200315 630500                    EPPR0   ADD$,,AUTO
        16 001465   200431 450500                    STP0    LENGTH_ID2$+2,,AUTO
        16 001466   200273 631500                    EPPR1   ID4$,,AUTO
        16 001467   200430 451500                    STP1    LENGTH_ID2$+1,,AUTO
        16 001470   200430 630500                    EPPR0   LENGTH_ID2$+1,,AUTO
        16 001471   000006 631400 17                 EPPR1   6
        16 001472   000000 701000 xent               TSX1    Z8E7$MOVE
        16 001473   000000 011000                    NOP     0

      519    16150    6                  END;

      520    16151
      521    16152    5              END ; /* POINTER clause or this is not the last ID1 */

      522    16153
      523    16154
      524    16155
      525    16156
      526    16157    4              IDENTS$ = IDENTS$ -> LX_ITEM.LINK;

  16157 16 001474   200023 470500                    LDP0    IDENTS$,,AUTO
        16 001475   000007 236100                    LDQ     7,,PR0
        16 001476   200023 756100                    STQ     IDENTS$,,AUTO

      527    16158    4            END /* Until */;

  16158 16 001477   000005 116000 17                 CMPQ    5
PL6.E3A0      #001=Z8EZ$STRING File=Z8EZ.:Z8A6TSI                                SAT 08/09/97 12:59 Page:91
        16 001500   000346 601000 16                 TNZ     s:15366

      528    16159
      529    16160    3            STRINGS$ = STRINGS$ -> LX_LIST.LINK;

  16160 16 001501   200022 470500                    LDP0    STRINGS$,,AUTO
        16 001502   000007 236100                    LDQ     7,,PR0
        16 001503   200022 756100                    STQ     STRINGS$,,AUTO

      530    16161    3          END /* Until */;

  16161 16 001504   000005 116000 17                 CMPQ    5
        16 001505   000333 601000 16                 TNZ     s:15361

      531    16162
      532    16163               /*  Add NOT OVERFLOW if needed  */
      533    16164
      534    16165    2          IF NOT_ON_OVERFLOW$ ~= ADDR(NIL)    THEN

  16165 16 001506   200007 470500                    LDP0    @NOT_ON_OVERFLOW$,,AUTO
        16 001507   000000 236100                    LDQ     0,,PR0
        16 001510   000005 116000 17                 CMPQ    5
        16 001511   001532 600000 16                 TZE     s:16189

      535    16166    3            DO;

      536    16167                   %APPEND_ILS_LIST( @FROM$ = NOT_ON_OVERFLOW$,
      537    16168                                     @TO$ = "ADDR(O1COM.ILS_LIST)" );

  16174 16 001512   000000 471500                    LDP1    0,,PR0
        16 001513   100001 236100                    LDQ     1,,PR1
        16 001514   000005 116000 17                 CMPQ    5
        16 001515   001532 600000 16                 TZE     s:16189

  16175 16 001516   000017 236000 xsym               LDQ     O1COM+15
        16 001517   000005 116000 17                 CMPQ    5
        16 001520   001524 601000 16                 TNZ     s:16179
PL6.E3A0      #001=Z8EZ$STRING File=Z8EZ.:Z8A6TSI                                SAT 08/09/97 12:59 Page:92

  16176 16 001521   100001 236100                    LDQ     1,,PR1
        16 001522   000017 756000 xsym               STQ     O1COM+15

  16177 16 001523   001527 710000 16                 TRA     s:16181

  16179 16 001524   100001 236100                    LDQ     1,,PR1
        16 001525   000020 473400 xsym               LDP3    O1COM+16
        16 001526   300002 756100                    STQ     2,,PR3

  16181 16 001527   000000 471500                    LDP1    0,,PR0
        16 001530   100002 236100                    LDQ     2,,PR1
        16 001531   000020 756000 xsym               STQ     O1COM+16

      538    16185    3            END;

      539    16186
      540    16187               /* GO TO END_STRING */
      541    16188
      542    16189    2          IF ON_OVERFLOW$ ~= ADDR(NIL)    THEN

  16189 16 001532   200006 471500                    LDP1    @ON_OVERFLOW$,,AUTO
        16 001533   100000 236100                    LDQ     0,,PR1
        16 001534   000005 116000 17                 CMPQ    5
        16 001535   001544 600000 16                 TZE     s:16514

      543    16190    2            CALL Z8EK$BRANCH (END_STRING$) ;

  16190 16 001536   200305 633500                    EPPR3   END_STRING$,,AUTO
        16 001537   200430 453500                    STP3    LENGTH_ID2$+1,,AUTO
        16 001540   200430 630500                    EPPR0   LENGTH_ID2$+1,,AUTO
        16 001541   000020 631400 17                 EPPR1   16
        16 001542   000000 701000 xent               TSX1    Z8EK$BRANCH
        16 001543   000000 011000                    NOP     0

      544    16191
      545    16192               %NEW_ILL( @ID        = %DEFLB ,
PL6.E3A0      #001=Z8EZ$STRING File=Z8EZ.:Z8A6TSI                                SAT 08/09/97 12:59 Page:93
      546    16193                         @LOP       = OVERFLOW$ );

  16514 16 001544   000027 236000 17                 LDQ     23
        16 001545   200430 756100                    STQ     LENGTH_ID2$+1,,AUTO
        16 001546   200430 630500                    EPPR0   LENGTH_ID2$+1,,AUTO
        16 001547   200435 450500                    STP0    LENGTH_ID2$+6,,AUTO
        16 001550   000030 236000 17                 LDQ     24
        16 001551   200434 756100                    STQ     LENGTH_ID2$+5,,AUTO
        16 001552   000032 237000 17                 LDAQ    26
        16 001553   200432 757100                    STAQ    LENGTH_ID2$+3,,AUTO
        16 001554   200432 630500                    EPPR0   LENGTH_ID2$+3,,AUTO
        16 001555   000015 631400 17                 EPPR1   13
        16 001556   000000 701000 xent               TSX1    Z8AN$NEW_ILL
        16 001557   000000 011000                    NOP     0

  16523 16 001560   200303 236100                    LDQ     OVERFLOW$,,AUTO
        16 001561   000000 470400 11                 LDP0    ILL$
        16 001562   000001 756100                    STQ     1,,PR0

      547    16572
      548    16573    2          IF ON_OVERFLOW$ ~= ADDR(NIL)   THEN

  16573 16 001563   200006 471500                    LDP1    @ON_OVERFLOW$,,AUTO
        16 001564   100000 236100                    LDQ     0,,PR1
        16 001565   000005 116000 17                 CMPQ    5
        16 001566   001626 600000 16                 TZE     BAD_STRING

      549    16574    3            DO;

      550    16575                   %APPEND_ILS_LIST( @FROM$ = ON_OVERFLOW$,
      551    16576                                     @TO$   = "ADDR(O1COM.ILS_LIST)");

  16582 16 001567   100000 473500                    LDP3    0,,PR1
        16 001570   300001 236100                    LDQ     1,,PR3
        16 001571   000005 116000 17                 CMPQ    5
        16 001572   001607 600000 16                 TZE     s:16916

PL6.E3A0      #001=Z8EZ$STRING File=Z8EZ.:Z8A6TSI                                SAT 08/09/97 12:59 Page:94
  16583 16 001573   000017 236000 xsym               LDQ     O1COM+15
        16 001574   000005 116000 17                 CMPQ    5
        16 001575   001601 601000 16                 TNZ     s:16587

  16584 16 001576   300001 236100                    LDQ     1,,PR3
        16 001577   000017 756000 xsym               STQ     O1COM+15

  16585 16 001600   001604 710000 16                 TRA     s:16589

  16587 16 001601   300001 236100                    LDQ     1,,PR3
        16 001602   000020 474400 xsym               LDP4    O1COM+16
        16 001603   400002 756100                    STQ     2,,PR4

  16589 16 001604   100000 473500                    LDP3    0,,PR1
        16 001605   300002 236100                    LDQ     2,,PR3
        16 001606   000020 756000 xsym               STQ     O1COM+16

      552    16593
      553    16594                   %NEW_ILL( @ID     = %DEFLB ,
      554    16595                             @LOP    = END_STRING$ );

  16916 16 001607   000027 236000 17                 LDQ     23
        16 001610   200430 756100                    STQ     LENGTH_ID2$+1,,AUTO
        16 001611   200430 633500                    EPPR3   LENGTH_ID2$+1,,AUTO
        16 001612   200435 453500                    STP3    LENGTH_ID2$+6,,AUTO
        16 001613   000030 236000 17                 LDQ     24
        16 001614   200434 756100                    STQ     LENGTH_ID2$+5,,AUTO
        16 001615   000032 237000 17                 LDAQ    26
        16 001616   200432 757100                    STAQ    LENGTH_ID2$+3,,AUTO
        16 001617   200432 630500                    EPPR0   LENGTH_ID2$+3,,AUTO
        16 001620   000015 631400 17                 EPPR1   13
        16 001621   000000 701000 xent               TSX1    Z8AN$NEW_ILL
        16 001622   000000 011000                    NOP     0

  16925 16 001623   200305 236100                    LDQ     END_STRING$,,AUTO
        16 001624   000000 470400 11                 LDP0    ILL$
        16 001625   000001 756100                    STQ     1,,PR0
PL6.E3A0      #001=Z8EZ$STRING File=Z8EZ.:Z8A6TSI                                SAT 08/09/97 12:59 Page:95

      555    16974    3            END;

      556    16975
      557    16976    2        END ; /* Not Optimizable */

  16925 16 001626   003353 710000 16    BAD_STRING   TRA     s:19065

      558    16977
      559    16978    1   BAD_STRING:;
      560    16979
      561    16980        %EJECT;
PL6.E3A0      #001=Z8EZ$STRING File=Z8EZ.:Z8A6TSI                                SAT 08/09/97 12:59 Page:96
      562    16981
      563    16982        /*I*   NAME: MOVE
      564    16983
      565    16984        DESCRIPTION: Move id1$ to Substring (id3$, offset, length).
      566    16985
      567    16986        */
      568    16987
      569    16988    1   MOVE: PROC (ID3$, ID1$, LENGTH, OFFSET) ;

  16988 16 001627   200336 741300       MOVE         STX1  ! OP+1,,AUTO

      570    16989
      571    16990    2        DCL  ID3$               PTR ;
      572    16991    2        DCL  ID1$               PTR ;
      573    16992    2        DCL  OFFSET             SBIN WORD ;
      574    16993    2        DCL  LENGTH             SBIN WORD ;
      575    16994    2        DCL  RESULT$            PTR ;
      576    16995    2        DCL  ORIGINAL_ID3_ETT$  PTR ;
      577    16996    2        DCL  FISS_LENGTH        SBIN WORD ;
      578    16997
      579    16998    2        ORIGINAL_ID3_ETT$ = ID3$ -> LX_ETT_ITEM.ETT$ ;

  16998 16 001630   200337 470500                    LDP0    @ID3$,,AUTO
        16 001631   000000 471500                    LDP1    0,,PR0
        16 001632   100001 236100                    LDQ     1,,PR1
        16 001633   200344 756100                    STQ     ORIGINAL_ID3_ETT$,,AUTO

      580    16999
      581    17000    3        IF OFFSET ~= 0 THEN DO ;

  17000 16 001634   200342 473500                    LDP3    @OFFSET,,AUTO
        16 001635   300000 235100                    LDA     0,,PR3
        16 001636   001655 600000 16                 TZE     s:17010

      582    17001
      583    17002    3          CALL Z8AF$NEW_OFF (ID3$ -> LX_ETT_ITEM.ETT$,

PL6.E3A0      #001=Z8EZ$STRING File=Z8EZ.:Z8A6TSI                                SAT 08/09/97 12:59 Page:97
  17002 16 001637   200343 634500                    EPPR4   RESULT$,,AUTO
        16 001640   200432 454500                    STP4    LENGTH_ID2$+3,,AUTO
        16 001641   200342 236100                    LDQ     @OFFSET,,AUTO
        16 001642   200431 756100                    STQ     LENGTH_ID2$+2,,AUTO
        16 001643   100001 635500                    EPPR5   1,,PR1
        16 001644   200430 455500                    STP5    LENGTH_ID2$+1,,AUTO
        16 001645   200430 630500                    EPPR0   LENGTH_ID2$+1,,AUTO
        16 001646   000000 631400 17                 EPPR1   0
        16 001647   000000 701000 xent               TSX1    Z8AF$NEW_OFF
        16 001650   000000 011000                    NOP     0

      584    17003    3                             OFFSET,
      585    17004    3                             RESULT$) ;
      586    17005    3          ID3$ -> LX_ETT_ITEM.ETT$ = RESULT$ ;

  17005 16 001651   200337 470500                    LDP0    @ID3$,,AUTO
        16 001652   000000 471500                    LDP1    0,,PR0
        16 001653   200343 236100                    LDQ     RESULT$,,AUTO
        16 001654   100001 756100                    STQ     1,,PR1

      587    17006
      588    17007    3        END ; /* Offset <> 0 */

      589    17008
      590    17009
      591    17010    2        IF ID3_LENGTH - OFFSET < LENGTH

  17010 16 001655   200342 471500                    LDP1    @OFFSET,,AUTO
        16 001656   200332 236100                    LDQ     ID3_LENGTH,,AUTO
        16 001657   100000 136100                    SBLQ    0,,PR1
        16 001660   200341 473500                    LDP3    @LENGTH,,AUTO
        16 001661   300000 116100                    CMPQ    0,,PR3
        16 001662   001667 605000 16                 TPL     s:17012

      592    17011    2        THEN FISS_LENGTH = ID3_LENGTH - OFFSET ;

  17011 16 001663   200332 236100                    LDQ     ID3_LENGTH,,AUTO
PL6.E3A0      #001=Z8EZ$STRING File=Z8EZ.:Z8A6TSI                                SAT 08/09/97 12:59 Page:98
        16 001664   100000 136100                    SBLQ    0,,PR1
        16 001665   200345 756100                    STQ     FISS_LENGTH,,AUTO
        16 001666   001671 710000 16                 TRA     s:17013

      593    17012    2        ELSE FISS_LENGTH = LENGTH ;

  17012 16 001667   300000 235100                    LDA     0,,PR3
        16 001670   200345 755100                    STA     FISS_LENGTH,,AUTO

      594    17013    2        CALL Z8AF$NEW_FISS (ID3$ -> LX_ETT_ITEM.ETT$,

  17013 16 001671   000000 474500                    LDP4    0,,PR0
        16 001672   200343 635500                    EPPR5   RESULT$,,AUTO
        16 001673   200433 455500                    STP5    LENGTH_ID2$+4,,AUTO
        16 001674   000035 236000 17                 LDQ     29
        16 001675   200432 756100                    STQ     LENGTH_ID2$+3,,AUTO
        16 001676   200345 636500                    EPPR6   FISS_LENGTH,,AUTO
        16 001677   200431 456500                    STP6    LENGTH_ID2$+2,,AUTO
        16 001700   400001 637500                    EPPR7   1,,PR4
        16 001701   200430 457500                    STP7    LENGTH_ID2$+1,,AUTO
        16 001702   200430 630500                    EPPR0   LENGTH_ID2$+1,,AUTO
        16 001703   000015 631400 17                 EPPR1   13
        16 001704   000000 701000 xent               TSX1    Z8AF$NEW_FISS
        16 001705   000000 011000                    NOP     0

      595    17014    2                            FISS_LENGTH,
      596    17015    2                            %ALPHA_NUMERIC_FISS,
      597    17016    2                            RESULT$) ;
      598    17017    2        ID3$ -> LX_ETT_ITEM.ETT$ = RESULT$ ;

  17017 16 001706   200337 470500                    LDP0    @ID3$,,AUTO
        16 001707   000000 471500                    LDP1    0,,PR0
        16 001710   200343 236100                    LDQ     RESULT$,,AUTO
        16 001711   100001 756100                    STQ     1,,PR1

      599    17018
      600    17019    2        CALL Z8E7$MOVE (ID3$, ID1$) ;
PL6.E3A0      #001=Z8EZ$STRING File=Z8EZ.:Z8A6TSI                                SAT 08/09/97 12:59 Page:99

  17019 16 001712   200337 630500                    EPPR0   @ID3$,,AUTO
        16 001713   000006 631400 17                 EPPR1   6
        16 001714   000000 701000 xent               TSX1    Z8E7$MOVE
        16 001715   000000 011000                    NOP     0

      601    17020
      602    17021    2        ID3$ -> LX_ETT_ITEM.ETT$ = ORIGINAL_ID3_ETT$ ;

  17021 16 001716   200337 470500                    LDP0    @ID3$,,AUTO
        16 001717   000000 471500                    LDP1    0,,PR0
        16 001720   200344 236100                    LDQ     ORIGINAL_ID3_ETT$,,AUTO
        16 001721   100001 756100                    STQ     1,,PR1

      603    17022    2        OFFSET = OFFSET + LENGTH ; /* ready for next call to MOVE */

  17022 16 001722   200342 471500                    LDP1    @OFFSET,,AUTO
        16 001723   200341 473500                    LDP3    @LENGTH,,AUTO
        16 001724   100000 236100                    LDQ     0,,PR1
        16 001725   300000 036100                    ADLQ    0,,PR3
        16 001726   100000 756100                    STQ     0,,PR1

      604    17023
      605    17024    2   END MOVE ;

  17024 16 001727   200336 221300                    LDX1  ! OP+1,,AUTO
        16 001730   000001 702211                    TSX2  ! 1,X1

      606    17025
      607    17026        %EJECT;
PL6.E3A0      #001=Z8EZ$STRING File=Z8EZ.:Z8A6TSI                                SAT 08/09/97 12:59 Page:100
      608    17027        /*I*   NAME: VALIDATE_IDn, n = 1 -> 4
      609    17028
      610    17029        DESCRIPTION: These routines are used by Pass 2 of Z8EZ$STRING.
      611    17030                     They validate the semantics of each identifier.
      612    17031
      613    17032        */
      614    17033
      615    17034        %EJECT;
PL6.E3A0      #001=Z8EZ$STRING File=Z8EZ.:Z8A6TSI                                SAT 08/09/97 12:59 Page:101
      616    17035    1   VALIDATE_ID1: PROC (ID1$) ALTRET;

  17035 16 001731   200336 741300       VALIDATE_ID1 STX1  ! OP+1,,AUTO

      617    17036
      618    17037    2        DCL ID1$    PTR;
      619    17038
      620    17039    2        IF ID1$ -> LX_ITEM.ID = %LX_ETT_ITEM THEN        /*#31090*/

  17039 16 001732   200337 470500                    LDP0    @ID1$,,AUTO
        16 001733   000000 471500                    LDP1    0,,PR0
        16 001734   100000 220100                    LDX0    0,,PR1
        16 001735   000004 100003                    CMPX0   4,DU
        16 001736   001745 601000 16                 TNZ     s:17044

      621    17040    2          IF ID1$ -> LX_ETT_ITEM.TYPE ~= %TYA

  17040 16 001737   100004 235100                    LDA     4,,PR1
        16 001740   000010 115007                    CMPA    8,DL
        16 001741   001745 600000 16                 TZE     s:17044
        16 001742   000016 115007                    CMPA    14,DL
        16 001743   001745 600000 16                 TZE     s:17044

      622    17041    2          AND ID1$ -> LX_ETT_ITEM.TYPE ~= %TYN
      623    17042    2          THEN OPTIMIZABLE = FALSE ;

  17042 16 001744   200330 450100                    STZ     OPTIMIZABLE,,AUTO

      624    17043
      625    17044    2        CALL Z8CO$DISPL_CHECK(ID1$) ALTRET(BAD);

  17044 16 001745   200337 630500                    EPPR0   @ID1$,,AUTO
        16 001746   000020 631400 17                 EPPR1   16
        16 001747   000000 701000 xent               TSX1    Z8CO$DISPL_CHECK
        16 001750   002036 702000 16                 TSX2    BAD

      626    17045
PL6.E3A0      #001=Z8EZ$STRING File=Z8EZ.:Z8A6TSI                                SAT 08/09/97 12:59 Page:102
      627    17046    3        IF ID1$ -> LX_ITEM.ID = %LX_ETT_ITEM THEN DO ;

  17046 16 001751   200337 470500                    LDP0    @ID1$,,AUTO
        16 001752   000000 471500                    LDP1    0,,PR0
        16 001753   100000 220100                    LDX0    0,,PR1
        16 001754   000004 100003                    CMPX0   4,DU
        16 001755   002034 601000 16                 TNZ     s:17059

      628    17047    4          DO CASE(ID1$ -> LX_ETT_ITEM.TYPE);

  17047 16 001756   100004 235100                    LDA     4,,PR1
        16 001757   000024 115007                    CMPA    20,DL
        16 001760   001762 602005 16                 TNC     s:17047+4,AL
        16 001761   002016 710000 16                 TRA     s:17053
        16 001762   002006 710000 16                 TRA     s:17049
        16 001763   002016 710000 16                 TRA     s:17053
        16 001764   002016 710000 16                 TRA     s:17053
        16 001765   002006 710000 16                 TRA     s:17049
        16 001766   002016 710000 16                 TRA     s:17053
        16 001767   002016 710000 16                 TRA     s:17053
        16 001770   002016 710000 16                 TRA     s:17053
        16 001771   002016 710000 16                 TRA     s:17053
        16 001772   002016 710000 16                 TRA     s:17053
        16 001773   002016 710000 16                 TRA     s:17053
        16 001774   002016 710000 16                 TRA     s:17053
        16 001775   002006 710000 16                 TRA     s:17049
        16 001776   002016 710000 16                 TRA     s:17053
        16 001777   002016 710000 16                 TRA     s:17053
        16 002000   002016 710000 16                 TRA     s:17053
        16 002001   002016 710000 16                 TRA     s:17053
        16 002002   002016 710000 16                 TRA     s:17053
        16 002003   002016 710000 16                 TRA     s:17053
        16 002004   002016 710000 16                 TRA     s:17053
        16 002005   002006 710000 16                 TRA     s:17049

      629    17048    4            CASE(%TYD, %TYO, %TYF, %TYC);

PL6.E3A0      #001=Z8EZ$STRING File=Z8EZ.:Z8A6TSI                                SAT 08/09/97 12:59 Page:103
      630    17049    4              CALL INTEGER_CHECK(ID1$);

  17049 16 002006   200337 236100                    LDQ     @ID1$,,AUTO
        16 002007   200341 756100                    STQ     @LENGTH,,AUTO
        16 002010   002353 701000 16                 TSX1    INTEGER_CHECK
        16 002011   000000 011000                    NOP     0

      631    17050    4              CALL Z8CO$P_CHECK(ID1$) ALTRET(BAD);

  17050 16 002012   200337 630500                    EPPR0   @ID1$,,AUTO
        16 002013   000020 631400 17                 EPPR1   16
        16 002014   000000 701000 xent               TSX1    Z8CO$P_CHECK
        16 002015   002036 702000 16                 TSX2    BAD

      632    17051    4          END /* Case */;

      633    17052
      634    17053    3          CALL Z8AU$TYPE_DESCRIPTOR (ID1$ -> LX_ETT_ITEM.ETT$,

  17053 16 002016   200337 470500                    LDP0    @ID1$,,AUTO
        16 002017   000000 471500                    LDP1    0,,PR0
        16 002020   200264 633500                    EPPR3   TYPE_DESC,,AUTO
        16 002021   200431 453500                    STP3    LENGTH_ID2$+2,,AUTO
        16 002022   100001 634500                    EPPR4   1,,PR1
        16 002023   200430 454500                    STP4    LENGTH_ID2$+1,,AUTO
        16 002024   200430 630500                    EPPR0   LENGTH_ID2$+1,,AUTO
        16 002025   000006 631400 17                 EPPR1   6
        16 002026   000000 701000 xent               TSX1    Z8AU$TYPE_DESCRIPTOR
        16 002027   000000 011000                    NOP     0

      635    17054    3                                     TYPE_DESC) ;
      636    17055    3          IF TYPE_DESC.SIZ$ ~= ADDR(NIL)

  17055 16 002030   200266 236100                    LDQ     TYPE_DESC+2,,AUTO
        16 002031   000005 116000 17                 CMPQ    5
        16 002032   002034 600000 16                 TZE     s:17059

PL6.E3A0      #001=Z8EZ$STRING File=Z8EZ.:Z8A6TSI                                SAT 08/09/97 12:59 Page:104
      637    17056    3          THEN OPTIMIZABLE = FALSE ;

  17056 16 002033   200330 450100                    STZ     OPTIMIZABLE,,AUTO

      638    17057    3        END ;

      639    17058
      640    17059    2        RETURN;

  17059 16 002034   200336 221300                    LDX1  ! OP+1,,AUTO
        16 002035   000001 702211                    TSX2  ! 1,X1

      641    17060
      642    17061    2   BAD:
      643    17062    2        ALTRETURN;

  17062 16 002036   200336 221300       BAD          LDX1  ! OP+1,,AUTO
        16 002037   000000 702211                    TSX2  ! 0,X1

      644    17063
      645    17064    2   END VALIDATE_ID1;
      646    17065        %EJECT;
PL6.E3A0      #001=Z8EZ$STRING File=Z8EZ.:Z8A6TSI                                SAT 08/09/97 12:59 Page:105
      647    17066    1   VALIDATE_ID2: PROC (ID2$) ALTRET;

  17066 16 002040   200336 741300       VALIDATE_ID2 STX1  ! OP+1,,AUTO

      648    17067
      649    17068    2        DCL ID2$    PTR;
      650    17069
      651    17070
      652    17071    2        SIZE = FALSE;

  17071 16 002041   200327 450100                    STZ     SIZE,,AUTO

      653    17072
      654    17073    2        IF ID2$ -> LX_ITEM.ID = %LX_TERMINAL THEN

  17073 16 002042   200337 470500                    LDP0    @ID2$,,AUTO
        16 002043   000000 471500                    LDP1    0,,PR0
        16 002044   100000 220100                    LDX0    0,,PR1
        16 002045   002053 601000 16                 TNZ     s:17077

      655    17074    2          IF ID2$ -> LX_TERMINAL.SYMBOL = %RSV_WRD_SIZE THEN

  17074 16 002046   100003 235100                    LDA     3,,PR1
        16 002047   000643 115007                    CMPA    419,DL
        16 002050   002053 601000 16                 TNZ     s:17077

      656    17075    2            SIZE = TRUE;

  17075 16 002051   400000 236003                    LDQ     -131072,DU
        16 002052   200327 756100                    STQ     SIZE,,AUTO

      657    17076
      658    17077    2        IF NOT SIZE THEN

  17077 16 002053   200327 234100                    SZN     SIZE,,AUTO
        16 002054   002127 604000 16                 TMI     s:17090

PL6.E3A0      #001=Z8EZ$STRING File=Z8EZ.:Z8A6TSI                                SAT 08/09/97 12:59 Page:106
      659    17078    3          DO;

      660    17079    3            OPTIMIZABLE = FALSE ;

  17079 16 002055   200330 450100                    STZ     OPTIMIZABLE,,AUTO

      661    17080    3            CALL Z8CO$DISPL_CHECK(ID2$) ALTRET(BAD);

  17080 16 002056   200337 630500                    EPPR0   @ID2$,,AUTO
        16 002057   000020 631400 17                 EPPR1   16
        16 002060   000000 701000 xent               TSX1    Z8CO$DISPL_CHECK
        16 002061   002131 702000 16                 TSX2    BAD

      662    17081
      663    17082    3            IF ID2$ -> LX_ITEM.ID = %LX_ETT_ITEM THEN

  17082 16 002062   200337 470500                    LDP0    @ID2$,,AUTO
        16 002063   000000 471500                    LDP1    0,,PR0
        16 002064   100000 220100                    LDX0    0,,PR1
        16 002065   000004 100003                    CMPX0   4,DU
        16 002066   002127 601000 16                 TNZ     s:17090

      664    17083    4              DO CASE(ID2$ -> LX_ETT_ITEM.TYPE);

  17083 16 002067   100004 235100                    LDA     4,,PR1
        16 002070   000024 115007                    CMPA    20,DL
        16 002071   002073 602005 16                 TNC     s:17083+4,AL
        16 002072   002127 710000 16                 TRA     s:17090
        16 002073   002117 710000 16                 TRA     s:17085
        16 002074   002127 710000 16                 TRA     s:17090
        16 002075   002127 710000 16                 TRA     s:17090
        16 002076   002117 710000 16                 TRA     s:17085
        16 002077   002127 710000 16                 TRA     s:17090
        16 002100   002127 710000 16                 TRA     s:17090
        16 002101   002127 710000 16                 TRA     s:17090
        16 002102   002127 710000 16                 TRA     s:17090
        16 002103   002127 710000 16                 TRA     s:17090
PL6.E3A0      #001=Z8EZ$STRING File=Z8EZ.:Z8A6TSI                                SAT 08/09/97 12:59 Page:107
        16 002104   002127 710000 16                 TRA     s:17090
        16 002105   002127 710000 16                 TRA     s:17090
        16 002106   002117 710000 16                 TRA     s:17085
        16 002107   002127 710000 16                 TRA     s:17090
        16 002110   002127 710000 16                 TRA     s:17090
        16 002111   002127 710000 16                 TRA     s:17090
        16 002112   002127 710000 16                 TRA     s:17090
        16 002113   002127 710000 16                 TRA     s:17090
        16 002114   002127 710000 16                 TRA     s:17090
        16 002115   002127 710000 16                 TRA     s:17090
        16 002116   002117 710000 16                 TRA     s:17085

      665    17084    4                CASE(%TYD, %TYO, %TYF, %TYC);

      666    17085    4                  CALL INTEGER_CHECK(ID2$);

  17085 16 002117   200337 236100                    LDQ     @ID2$,,AUTO
        16 002120   200341 756100                    STQ     @LENGTH,,AUTO
        16 002121   002353 701000 16                 TSX1    INTEGER_CHECK
        16 002122   000000 011000                    NOP     0

      667    17086    4                  CALL Z8CO$P_CHECK(ID2$) ALTRET(BAD);

  17086 16 002123   200337 630500                    EPPR0   @ID2$,,AUTO
        16 002124   000020 631400 17                 EPPR1   16
        16 002125   000000 701000 xent               TSX1    Z8CO$P_CHECK
        16 002126   002131 702000 16                 TSX2    BAD

      668    17087    4              END /* Case */;

      669    17088    3          END;

      670    17089
      671    17090    2        RETURN;

  17090 16 002127   200336 221300                    LDX1  ! OP+1,,AUTO
        16 002130   000001 702211                    TSX2  ! 1,X1
PL6.E3A0      #001=Z8EZ$STRING File=Z8EZ.:Z8A6TSI                                SAT 08/09/97 12:59 Page:108

      672    17091
      673    17092    2   BAD:
      674    17093    2        ALTRETURN;

  17093 16 002131   200336 221300       BAD          LDX1  ! OP+1,,AUTO
        16 002132   000000 702211                    TSX2  ! 0,X1

      675    17094
      676    17095
      677    17096    2   END VALIDATE_ID2;
      678    17097        %EJECT;
PL6.E3A0      #001=Z8EZ$STRING File=Z8EZ.:Z8A6TSI                                SAT 08/09/97 12:59 Page:109
      679    17098    1   VALIDATE_ID3: PROC (ID3$) ALTRET;

  17098 16 002133   200336 741300       VALIDATE_ID3 STX1  ! OP+1,,AUTO

      680    17099
      681    17100    2        DCL ID3$                PTR;
      682    17101    2        DCL ST$$                PTR;
      683    17102
      684    17103    2        IF ID3$ -> LX_ETT_ITEM.TYPE ~= %TYA

  17103 16 002134   200337 470500                    LDP0    @ID3$,,AUTO
        16 002135   000000 471500                    LDP1    0,,PR0
        16 002136   100004 235100                    LDA     4,,PR1
        16 002137   000010 115007                    CMPA    8,DL
        16 002140   002144 600000 16                 TZE     s:17107
        16 002141   000016 115007                    CMPA    14,DL
        16 002142   002144 600000 16                 TZE     s:17107

      685    17104    2        AND ID3$ -> LX_ETT_ITEM.TYPE ~= %TYN
      686    17105    2        THEN OPTIMIZABLE = FALSE ;

  17105 16 002143   200330 450100                    STZ     OPTIMIZABLE,,AUTO

      687    17106
      688    17107    2        CALL Z8CO$DISPL_CHECK (ID3$) ALTRET (BAD) ;

  17107 16 002144   200337 630500                    EPPR0   @ID3$,,AUTO
        16 002145   000020 631400 17                 EPPR1   16
        16 002146   000000 701000 xent               TSX1    Z8CO$DISPL_CHECK
        16 002147   002247 702000 16                 TSX2    BAD

      689    17108
      690    17109             %FISH(TRIAD = ID3$ -> LX_ETT_ITEM.ETT$, RTN = ST$$);

  17111 16 002150   200337 470500                    LDP0    @ID3$,,AUTO
        16 002151   000000 471500                    LDP1    0,,PR0
        16 002152   100001 236100                    LDQ     1,,PR1
PL6.E3A0      #001=Z8EZ$STRING File=Z8EZ.:Z8A6TSI                                SAT 08/09/97 12:59 Page:110
        16 002153   200340 756100                    STQ     ST$$,,AUTO

  17112 16 002154   200340 473500                    LDP3    ST$$,,AUTO
        16 002155   300000 220100                    LDX0    0,,PR3
        16 002156   000751 100003                    CMPX0   489,DU
        16 002157   002167 603000 16                 TRC     s:17118

  17113 16 002160   200340 470500                    LDP0    ST$$,,AUTO
        16 002161   000001 236100                    LDQ     1,,PR0
        16 002162   200340 756100                    STQ     ST$$,,AUTO

  17114 16 002163   200340 470500                    LDP0    ST$$,,AUTO
        16 002164   000000 220100                    LDX0    0,,PR0
        16 002165   000751 100003                    CMPX0   489,DU
        16 002166   002160 602000 16                 TNC     s:17113

      691    17117
      692    17118    2        IF ST$$ -> VARIABLE.B.SUB_CLASS.EDITED THEN

  17118 16 002167   200340 470500                    LDP0    ST$$,,AUTO
        16 002170   000003 236100                    LDQ     3,,PR0
        16 002171   000004 316007                    CANQ    4,DL
        16 002172   002210 600000 16                 TZE     s:17126

      693    17119    3          DO;

      694    17120    3            CALL Z8AE$ERROR(%E$EDITED_INVALID,

  17120 16 002173   200337 471500                    LDP1    @ID3$,,AUTO
        16 002174   100000 473500                    LDP3    0,,PR1
        16 002175   300006 634500                    EPPR4   6,,PR3
        16 002176   200432 454500                    STP4    LENGTH_ID2$+3,,AUTO
        16 002177   300005 635500                    EPPR5   5,,PR3
        16 002200   200431 455500                    STP5    LENGTH_ID2$+2,,AUTO
        16 002201   000037 236000 17                 LDQ     31
        16 002202   200430 756100                    STQ     LENGTH_ID2$+1,,AUTO
        16 002203   200430 630500                    EPPR0   LENGTH_ID2$+1,,AUTO
PL6.E3A0      #001=Z8EZ$STRING File=Z8EZ.:Z8A6TSI                                SAT 08/09/97 12:59 Page:111
        16 002204   000000 631400 17                 EPPR1   0
        16 002205   000000 701000 xent               TSX1    Z8AE$ERROR
        16 002206   000000 011000                    NOP     0

      695    17121    3                            ID3$ -> LX_ETT_ITEM.LINE ,
      696    17122    3                            ID3$ -> LX_ETT_ITEM.COLUMN );
      697    17123    3            GOTO BAD ;

  17123 16 002207   002247 710000 16                 TRA     BAD

      698    17124    3          END;
      699    17125
      700    17126    2        IF ST$$ -> VARIABLE.B.JUSTIFIED THEN

  17126 16 002210   040000 316003                    CANQ    16384,DU
        16 002211   002227 600000 16                 TZE     s:17134

      701    17127    3          DO;

      702    17128    3            CALL Z8AE$ERROR(%E$JUSTIFIED_INVALID,

  17128 16 002212   200337 471500                    LDP1    @ID3$,,AUTO
        16 002213   100000 473500                    LDP3    0,,PR1
        16 002214   300006 634500                    EPPR4   6,,PR3
        16 002215   200432 454500                    STP4    LENGTH_ID2$+3,,AUTO
        16 002216   300005 635500                    EPPR5   5,,PR3
        16 002217   200431 455500                    STP5    LENGTH_ID2$+2,,AUTO
        16 002220   000041 236000 17                 LDQ     33
        16 002221   200430 756100                    STQ     LENGTH_ID2$+1,,AUTO
        16 002222   200430 630500                    EPPR0   LENGTH_ID2$+1,,AUTO
        16 002223   000000 631400 17                 EPPR1   0
        16 002224   000000 701000 xent               TSX1    Z8AE$ERROR
        16 002225   000000 011000                    NOP     0

      703    17129    3                            ID3$ -> LX_ETT_ITEM.LINE ,
      704    17130    3                            ID3$ -> LX_ETT_ITEM.COLUMN );
      705    17131    3            GOTO BAD ;
PL6.E3A0      #001=Z8EZ$STRING File=Z8EZ.:Z8A6TSI                                SAT 08/09/97 12:59 Page:112

  17131 16 002226   002247 710000 16                 TRA     BAD

      706    17132    3          END;
      707    17133
      708    17134    2        CALL Z8AU$TYPE_DESCRIPTOR (ID3$ -> LX_ETT_ITEM.ETT$,

  17134 16 002227   200337 471500                    LDP1    @ID3$,,AUTO
        16 002230   100000 473500                    LDP3    0,,PR1
        16 002231   200264 634500                    EPPR4   TYPE_DESC,,AUTO
        16 002232   200431 454500                    STP4    LENGTH_ID2$+2,,AUTO
        16 002233   300001 635500                    EPPR5   1,,PR3
        16 002234   200430 455500                    STP5    LENGTH_ID2$+1,,AUTO
        16 002235   200430 630500                    EPPR0   LENGTH_ID2$+1,,AUTO
        16 002236   000006 631400 17                 EPPR1   6
        16 002237   000000 701000 xent               TSX1    Z8AU$TYPE_DESCRIPTOR
        16 002240   000000 011000                    NOP     0

      709    17135    2                                   TYPE_DESC) ;
      710    17136    2        IF TYPE_DESC.SIZ$ ~= ADDR(NIL)

  17136 16 002241   200266 236100                    LDQ     TYPE_DESC+2,,AUTO
        16 002242   000005 116000 17                 CMPQ    5
        16 002243   002245 600000 16                 TZE     s:17139

      711    17137    2        THEN OPTIMIZABLE = FALSE ;

  17137 16 002244   200330 450100                    STZ     OPTIMIZABLE,,AUTO

      712    17138
      713    17139    2        RETURN;

  17139 16 002245   200336 221300                    LDX1  ! OP+1,,AUTO
        16 002246   000001 702211                    TSX2  ! 1,X1

      714    17140
      715    17141    2   BAD:
PL6.E3A0      #001=Z8EZ$STRING File=Z8EZ.:Z8A6TSI                                SAT 08/09/97 12:59 Page:113
      716    17142    2        ALTRETURN ;

  17142 16 002247   200336 221300       BAD          LDX1  ! OP+1,,AUTO
        16 002250   000000 702211                    TSX2  ! 0,X1

      717    17143
      718    17144    2   END VALIDATE_ID3;
      719    17145        %EJECT;
PL6.E3A0      #001=Z8EZ$STRING File=Z8EZ.:Z8A6TSI                                SAT 08/09/97 12:59 Page:114
      720    17146    1   VALIDATE_ID4: PROC (ID4$, ID3$) ALTRET;

  17146 16 002251   200336 741300       VALIDATE_ID4 STX1  ! OP+1,,AUTO

      721    17147
      722    17148    2        DCL ID4$    PTR;
      723    17149    2        DCL ID3$    PTR;
      724    17150
      725    17151    2        DCL ETT$$   PTR;
      726    17152    2        DCL ID4_MAX SBIN WORD;
      727    17153    2        DCL ID3_LEN SBIN WORD;
      728    17154
      729    17155    2        POINTER =   ID4$ -> LX_ITEM.ID ~= %LX_TERMINAL;

  17155 16 002252   200337 470500                    LDP0    @ID4$,,AUTO
        16 002253   000000 471500                    LDP1    0,,PR0
        16 002254   400000 220003                    LDX0    -131072,DU
        16 002255   100000 222100                    LDX2    0,,PR1
        16 002256   002260 601000 16                 TNZ     s:17155+6
        16 002257   000000 220003                    LDX0    0,DU
        16 002260   000000 636010                    EAQ     0,X0
        16 002261   200325 756100                    STQ     POINTER,,AUTO

      730    17156
      731    17157    2        IF POINTER THEN

  17157 16 002262   200325 234100                    SZN     POINTER,,AUTO
        16 002263   002347 605000 16                 TPL     s:17179

      732    17158    3          DO;

      733    17159    3            OPTIMIZABLE = FALSE ;

  17159 16 002264   200330 450100                    STZ     OPTIMIZABLE,,AUTO

      734    17160    3            CALL Z8CO$INTEGER_CHECK(ID4$) ALTRET(BAD);

PL6.E3A0      #001=Z8EZ$STRING File=Z8EZ.:Z8A6TSI                                SAT 08/09/97 12:59 Page:115
  17160 16 002265   200337 630500                    EPPR0   @ID4$,,AUTO
        16 002266   000020 631400 17                 EPPR1   16
        16 002267   000000 701000 xent               TSX1    Z8CO$INTEGER_CHECK
        16 002270   002351 702000 16                 TSX2    BAD

      735    17161    3            CALL Z8CO$P_CHECK(ID4$) ALTRET(BAD);

  17161 16 002271   200337 630500                    EPPR0   @ID4$,,AUTO
        16 002272   000020 631400 17                 EPPR1   16
        16 002273   000000 701000 xent               TSX1    Z8CO$P_CHECK
        16 002274   002351 702000 16                 TSX2    BAD

      736    17162
      737    17163    3            CALL Z8EZ$MAX_VALUE(ID4$, ID4_MAX);

  17163 16 002275   200342 630500                    EPPR0   ID4_MAX,,AUTO
        16 002276   200431 450500                    STP0    LENGTH_ID2$+2,,AUTO
        16 002277   200337 236100                    LDQ     @ID4$,,AUTO
        16 002300   200430 756100                    STQ     LENGTH_ID2$+1,,AUTO
        16 002301   200430 630500                    EPPR0   LENGTH_ID2$+1,,AUTO
        16 002302   000006 631400 17                 EPPR1   6
        16 002303   000000 701000 xent               TSX1    Z8EZ$MAX_VALUE
        16 002304   000000 011000                    NOP     0

      738    17164    3            CALL Z8AU$LENGTH_ETT(ID3$ -> LX_ETT_ITEM.ETT$, ETT$$);

  17164 16 002305   200340 470500                    LDP0    @ID3$,,AUTO
        16 002306   000000 471500                    LDP1    0,,PR0
        16 002307   200341 633500                    EPPR3   ETT$$,,AUTO
        16 002310   200431 453500                    STP3    LENGTH_ID2$+2,,AUTO
        16 002311   100001 634500                    EPPR4   1,,PR1
        16 002312   200430 454500                    STP4    LENGTH_ID2$+1,,AUTO
        16 002313   200430 630500                    EPPR0   LENGTH_ID2$+1,,AUTO
        16 002314   000006 631400 17                 EPPR1   6
        16 002315   000000 701000 xent               TSX1    Z8AU$LENGTH_ETT
        16 002316   000000 011000                    NOP     0

PL6.E3A0      #001=Z8EZ$STRING File=Z8EZ.:Z8A6TSI                                SAT 08/09/97 12:59 Page:116
      739    17165
      740    17166    4            IF ETT$$ -> ETT.ID = %TRIAD THEN DO ; /* Size is constant */

  17166 16 002317   200341 470500                    LDP0    ETT$$,,AUTO
        16 002320   000000 220100                    LDX0    0,,PR0
        16 002321   000015 100003                    CMPX0   13,DU
        16 002322   002347 601000 16                 TNZ     s:17179

      741    17167
      742    17168    4              ID3_LEN = ETT$$ -> ETT.LOP -> CONST.CONSTI.WORD1 ;

  17168 16 002323   000001 471500                    LDP1    1,,PR0
        16 002324   100010 235100                    LDA     8,,PR1
        16 002325   200343 755100                    STA     ID3_LEN,,AUTO

      743    17169
      744    17170    5              IF ID4_MAX < (1 + ID3_LEN) THEN DO ;

  17170 16 002326   200342 236100                    LDQ     ID4_MAX,,AUTO
        16 002327   200343 116100                    CMPQ    ID3_LEN,,AUTO
        16 002330   002347 605400 16                 TPNZ    s:17179

      745    17171    5                CALL Z8AE$ERROR(%E$INSUFFICIENT_SIGNIFICANCE,

  17171 16 002331   200337 473500                    LDP3    @ID4$,,AUTO
        16 002332   300000 474500                    LDP4    0,,PR3
        16 002333   400006 635500                    EPPR5   6,,PR4
        16 002334   200432 455500                    STP5    LENGTH_ID2$+3,,AUTO
        16 002335   400005 631500                    EPPR1   5,,PR4
        16 002336   200431 451500                    STP1    LENGTH_ID2$+2,,AUTO
        16 002337   000043 236000 17                 LDQ     35
        16 002340   200430 756100                    STQ     LENGTH_ID2$+1,,AUTO
        16 002341   200430 630500                    EPPR0   LENGTH_ID2$+1,,AUTO
        16 002342   000000 631400 17                 EPPR1   0
        16 002343   000000 701000 xent               TSX1    Z8AE$ERROR
        16 002344   000000 011000                    NOP     0

PL6.E3A0      #001=Z8EZ$STRING File=Z8EZ.:Z8A6TSI                                SAT 08/09/97 12:59 Page:117
      746    17172    5                                ID4$ -> LX_ETT_ITEM.LINE,
      747    17173    5                                ID4$ -> LX_ETT_ITEM.COLUMN) ;
      748    17174    5                ALTRETURN ;

  17174 16 002345   200336 221300                    LDX1  ! OP+1,,AUTO
        16 002346   000000 702211                    TSX2  ! 0,X1

      749    17175    5              END ; /* ID4 max value < ID3 Length + 1 */
      750    17176    4            END ; /* ID3 has a constant length */
      751    17177    3          END ; /* POINTER clause exists */
      752    17178
      753    17179    2        RETURN;

  17179 16 002347   200336 221300                    LDX1  ! OP+1,,AUTO
        16 002350   000001 702211                    TSX2  ! 1,X1

      754    17180
      755    17181    2   BAD:
      756    17182    2        ALTRETURN;

  17182 16 002351   200336 221300       BAD          LDX1  ! OP+1,,AUTO
        16 002352   000000 702211                    TSX2  ! 0,X1

      757    17183
      758    17184    2   END VALIDATE_ID4;
      759    17185        %EJECT;
PL6.E3A0      #001=Z8EZ$STRING File=Z8EZ.:Z8A6TSI                                SAT 08/09/97 12:59 Page:118
      760    17186        /*I*   NAME: INTEGER_CHECK
      761    17187
      762    17188        DESCRIPTION: This routine issues a warning message if the identifier
      763    17189                     is not an integer variable.
      764    17190
      765    17191        */
      766    17192    1   INTEGER_CHECK:PROC(ID$);

  17192 16 002353   200340 741300       INTEGER_CHE* STX1  ! @ID3$,,AUTO

      767    17193
      768    17194    2        DCL ID$ PTR;
      769    17195
      770    17196    2        CALL Z8CO$INTEGER_CHECK_NO_ERROR (ID$)

  17196 16 002354   200341 630500                    EPPR0   @ID$,,AUTO
        16 002355   000020 631400 17                 EPPR1   16
        16 002356   000000 701000 xent               TSX1    Z8CO$INTEGER_CHECK_NO_ERROR
        16 002357   002361 702000 16                 TSX2    s:17211
        16 002360   002400 710000 16                 TRA     s:17233

      771    17197    3          WHENALTRETURN DO;

      772    17198                 %CONDITIONAL_ERROR (@LX_ITEM$ = ID$,
      773    17199                                     @ERROR#   = %E$SHOULD_BE_INTEGER,
      774    17200                                     @LINE     = ID$ -> LX_ETT_ITEM.LINE,
      775    17201                                     @COLUMN   = ID$ -> LX_ETT_ITEM.COLUMN);

  17211 16 002361   200341 470500                    LDP0    @ID$,,AUTO
        16 002362   000000 471500                    LDP1    0,,PR0
        16 002363   100000 236100                    LDQ     0,,PR1
        16 002364   400000 316007                    CANQ    -131072,DL
        16 002365   002400 601000 16                 TNZ     s:17233

  17213 16 002366   100006 633500                    EPPR3   6,,PR1
        16 002367   200432 453500                    STP3    LENGTH_ID2$+3,,AUTO
        16 002370   100005 634500                    EPPR4   5,,PR1
PL6.E3A0      #001=Z8EZ$STRING File=Z8EZ.:Z8A6TSI                                SAT 08/09/97 12:59 Page:119
        16 002371   200431 454500                    STP4    LENGTH_ID2$+2,,AUTO
        16 002372   000045 236000 17                 LDQ     37
        16 002373   200430 756100                    STQ     LENGTH_ID2$+1,,AUTO
        16 002374   200430 630500                    EPPR0   LENGTH_ID2$+1,,AUTO
        16 002375   000000 631400 17                 EPPR1   0
        16 002376   000000 701000 xent               TSX1    Z8AE$ERROR
        16 002377   000000 011000                    NOP     0

      776    17231    3          END;

      777    17232
      778    17233    2   END INTEGER_CHECK;

  17233 16 002400   200340 221300                    LDX1  ! @ID3$,,AUTO
        16 002401   000001 702211                    TSX2  ! 1,X1

      779    17234        %EJECT;
PL6.E3A0      #001=Z8EZ$STRING File=Z8EZ.:Z8A6TSI                                SAT 08/09/97 12:59 Page:120
      780    17235        /*I*   NAME: PREPARE_IDn, n = 1 -> 4
      781    17236
      782    17237        DESCRIPTION: These routines are used by Pass 3 of Z8EZ$STRING.
      783    17238                     They prepare each operand for use by the general
      784    17239                     STRING algorithm.  This includes conversions from
      785    17240                     one type to another, setting the type for a constant,
      786    17241                     and finding the length of an operand.
      787    17242
      788    17243        */
      789    17244
      790    17245        %EJECT;
PL6.E3A0      #001=Z8EZ$STRING File=Z8EZ.:Z8A6TSI                                SAT 08/09/97 12:59 Page:121
      791    17246    1   PREPARE_ID1:PROC(ID1$, RETURN$);

  17246 16 002402   200336 741300       PREPARE_ID1  STX1  ! OP+1,,AUTO

      792    17247
      793    17248    2        DCL ID1$          PTR;
      794    17249    2        DCL RETURN$       PTR;
      795    17250
      796    17251
      797    17252    2        IF ID1$ -> LX_ITEM.ID = %LX_TERMINAL THEN

  17252 16 002403   200337 470500                    LDP0    @ID1$,,AUTO
        16 002404   000000 471500                    LDP1    0,,PR0
        16 002405   100000 220100                    LDX0    0,,PR1
        16 002406   002425 601000 16                 TNZ     s:17258

      798    17253    3          DO ;

      799    17254    3            CALL Z8EV$CONVERT_TYA (ID1$, RETURN$, ID3$) ;

  17254 16 002407   200272 633500                    EPPR3   ID3$,,AUTO
        16 002410   200432 453500                    STP3    LENGTH_ID2$+3,,AUTO
        16 002411   200340 236100                    LDQ     @RETURN$,,AUTO
        16 002412   200337 235100                    LDA     @ID1$,,AUTO
        16 002413   200430 757100                    STAQ    LENGTH_ID2$+1,,AUTO
        16 002414   200430 630500                    EPPR0   LENGTH_ID2$+1,,AUTO
        16 002415   000000 631400 17                 EPPR1   0
        16 002416   000000 701000 xent               TSX1    Z8EV$CONVERT_TYA
        16 002417   000000 011000                    NOP     0

      800    17255    3            RETURN$ -> LX_ETT_ITEM.B.ALL = FALSE ; /* Move only one character */

  17255 16 002420   200340 470500                    LDP0    @RETURN$,,AUTO
        16 002421   000000 471500                    LDP1    0,,PR0
        16 002422   000046 236000 17                 LDQ     38
        16 002423   100000 356100                    ANSQ    0,,PR1

PL6.E3A0      #001=Z8EZ$STRING File=Z8EZ.:Z8A6TSI                                SAT 08/09/97 12:59 Page:122
      801    17256    3          END ;

  17256 16 002424   002432 710000 16                 TRA     s:17260

      802    17257    2        ELSE
      803    17258    2          RETURN$ -> LX_ETT_ITEM = ID1$ -> LX_ETT_ITEM ;

  17258 16 002425   200340 473500                    LDP3    @RETURN$,,AUTO
        16 002426   300000 474500                    LDP4    0,,PR3
        16 002427   000100 100500                    MLR     fill='000'O
        16 002430   100000 000040                    ADSC9   0,,PR1                   cn=0,n=32
        16 002431   400000 000040                    ADSC9   0,,PR4                   cn=0,n=32

      804    17259
      805    17260    3        DO CASE (RETURN$ -> LX_ETT_ITEM.TYPE) ;

  17260 16 002432   200340 470500                    LDP0    @RETURN$,,AUTO
        16 002433   000000 471500                    LDP1    0,,PR0
        16 002434   100004 235100                    LDA     4,,PR1
        16 002435   000024 115007                    CMPA    20,DL
        16 002436   002440 602005 16                 TNC     s:17260+6,AL
        16 002437   002574 710000 16                 TRA     s:17295
        16 002440   002464 710000 16                 TRA     s:17264
        16 002441   002574 710000 16                 TRA     s:17295
        16 002442   002574 710000 16                 TRA     s:17295
        16 002443   002464 710000 16                 TRA     s:17264
        16 002444   002574 710000 16                 TRA     s:17295
        16 002445   002574 710000 16                 TRA     s:17295
        16 002446   002505 710000 16                 TRA     s:17270
        16 002447   002574 710000 16                 TRA     s:17295
        16 002450   002600 710000 16                 TRA     s:17299
        16 002451   002574 710000 16                 TRA     s:17295
        16 002452   002574 710000 16                 TRA     s:17295
        16 002453   002505 710000 16                 TRA     s:17270
        16 002454   002505 710000 16                 TRA     s:17270
        16 002455   002574 710000 16                 TRA     s:17295
        16 002456   002600 710000 16                 TRA     s:17299
PL6.E3A0      #001=Z8EZ$STRING File=Z8EZ.:Z8A6TSI                                SAT 08/09/97 12:59 Page:123
        16 002457   002574 710000 16                 TRA     s:17295
        16 002460   002574 710000 16                 TRA     s:17295
        16 002461   002574 710000 16                 TRA     s:17295
        16 002462   002574 710000 16                 TRA     s:17295
        16 002463   002505 710000 16                 TRA     s:17270

      806    17261
      807    17262    3          CASE (%TYO, %TYD) ;

      808    17263
      809    17264    3            CALL Z8AF$FORME (%DNA, RETURN$ -> LX_ETT_ITEM.ETT$,

  17264 16 002464   100001 633500                    EPPR3   1,,PR1
        16 002465   200433 453500                    STP3    LENGTH_ID2$+4,,AUTO
        16 002466   000035 236000 17                 LDQ     29
        16 002467   200432 756100                    STQ     LENGTH_ID2$+3,,AUTO
        16 002470   100001 634500                    EPPR4   1,,PR1
        16 002471   200431 454500                    STP4    LENGTH_ID2$+2,,AUTO
        16 002472   000050 236000 17                 LDQ     40
        16 002473   200430 756100                    STQ     LENGTH_ID2$+1,,AUTO
        16 002474   200430 630500                    EPPR0   LENGTH_ID2$+1,,AUTO
        16 002475   000015 631400 17                 EPPR1   13
        16 002476   000000 701000 xent               TSX1    Z8AF$FORME
        16 002477   000000 011000                    NOP     0

      810    17265    3                                0, RETURN$ -> LX_ETT_ITEM.ETT$) ;
      811    17266    3            RETURN$ -> LX_ETT_ITEM.TYPE = %TYA ;

  17266 16 002500   200340 470500                    LDP0    @RETURN$,,AUTO
        16 002501   000000 471500                    LDP1    0,,PR0
        16 002502   000010 235007                    LDA     8,DL
        16 002503   100004 755100                    STA     4,,PR1
        16 002504   002600 710000 16                 TRA     s:17299

      812    17267
      813    17268    3          CASE (%TYE, %TYF, %TYB, %TYC) ;

PL6.E3A0      #001=Z8EZ$STRING File=Z8EZ.:Z8A6TSI                                SAT 08/09/97 12:59 Page:124
      814    17269
      815    17270    3            IF RETURN$ -> LX_ETT_ITEM.TYPE = %TYE OR

  17270 16 002505   000006 115007                    CMPA    6,DL
        16 002506   002511 600000 16                 TZE     s:17272
        16 002507   000013 115007                    CMPA    11,DL
        16 002510   002514 601000 16                 TNZ     s:17273

      816    17271    3                RETURN$ -> LX_ETT_ITEM.TYPE = %TYF
      817    17272    3              THEN OP = %OP_EBCDIC_TO_ASCII ;

  17272 16 002511   002723 236007                    LDQ     1491,DL
        16 002512   200335 756100                    STQ     OP,,AUTO
        16 002513   002516 710000 16                 TRA     s:17275

      818    17273    3              ELSE OP = %OP_GBCD_TO_ASCII ;

  17273 16 002514   002663 236007                    LDQ     1459,DL
        16 002515   200335 756100                    STQ     OP,,AUTO

      819    17274
      820    17275    3            CALL Z8CO$CREATE_LIBRARY_BASE (OP, TABLE_ETT$) ;

  17275 16 002516   200324 631500                    EPPR1   TABLE_ETT$,,AUTO
        16 002517   200431 451500                    STP1    LENGTH_ID2$+2,,AUTO
        16 002520   200335 633500                    EPPR3   OP,,AUTO
        16 002521   200430 453500                    STP3    LENGTH_ID2$+1,,AUTO
        16 002522   200430 630500                    EPPR0   LENGTH_ID2$+1,,AUTO
        16 002523   000006 631400 17                 EPPR1   6
        16 002524   000000 701000 xent               TSX1    Z8CO$CREATE_LIBRARY_BASE
        16 002525   000000 011000                    NOP     0

      821    17276
      822    17277    3            CALL Z8AF$FORME (%CVT,

  17277 16 002526   200340 470500                    LDP0    @RETURN$,,AUTO
        16 002527   000000 471500                    LDP1    0,,PR0
PL6.E3A0      #001=Z8EZ$STRING File=Z8EZ.:Z8A6TSI                                SAT 08/09/97 12:59 Page:125
        16 002530   100001 633500                    EPPR3   1,,PR1
        16 002531   200433 453500                    STP3    LENGTH_ID2$+4,,AUTO
        16 002532   200324 634500                    EPPR4   TABLE_ETT$,,AUTO
        16 002533   200432 454500                    STP4    LENGTH_ID2$+3,,AUTO
        16 002534   100001 635500                    EPPR5   1,,PR1
        16 002535   200431 455500                    STP5    LENGTH_ID2$+2,,AUTO
        16 002536   000052 236000 17                 LDQ     42
        16 002537   200430 756100                    STQ     LENGTH_ID2$+1,,AUTO
        16 002540   200430 630500                    EPPR0   LENGTH_ID2$+1,,AUTO
        16 002541   000015 631400 17                 EPPR1   13
        16 002542   000000 701000 xent               TSX1    Z8AF$FORME
        16 002543   000000 011000                    NOP     0

      823    17278    3                             RETURN$ -> LX_ETT_ITEM.ETT$,
      824    17279    3                             TABLE_ETT$,
      825    17280    3                             RETURN$ -> LX_ETT_ITEM.ETT$) ;
      826    17281
      827    17282    3            IF RETURN$ -> LX_ETT_ITEM.TYPE = %TYF OR

  17282 16 002544   200340 470500                    LDP0    @RETURN$,,AUTO
        16 002545   000000 471500                    LDP1    0,,PR0
        16 002546   100004 235100                    LDA     4,,PR1
        16 002547   000013 115007                    CMPA    11,DL
        16 002550   002553 600000 16                 TZE     s:17284
        16 002551   000023 115007                    CMPA    19,DL
        16 002552   002567 601000 16                 TNZ     s:17289

      828    17283    3                RETURN$ -> LX_ETT_ITEM.TYPE = %TYC THEN
      829    17284    3              CALL Z8AF$FORME (%DNA,

  17284 16 002553   100001 633500                    EPPR3   1,,PR1
        16 002554   200433 453500                    STP3    LENGTH_ID2$+4,,AUTO
        16 002555   000035 236000 17                 LDQ     29
        16 002556   200432 756100                    STQ     LENGTH_ID2$+3,,AUTO
        16 002557   100001 634500                    EPPR4   1,,PR1
        16 002560   200431 454500                    STP4    LENGTH_ID2$+2,,AUTO
        16 002561   000050 236000 17                 LDQ     40
PL6.E3A0      #001=Z8EZ$STRING File=Z8EZ.:Z8A6TSI                                SAT 08/09/97 12:59 Page:126
        16 002562   200430 756100                    STQ     LENGTH_ID2$+1,,AUTO
        16 002563   200430 630500                    EPPR0   LENGTH_ID2$+1,,AUTO
        16 002564   000015 631400 17                 EPPR1   13
        16 002565   000000 701000 xent               TSX1    Z8AF$FORME
        16 002566   000000 011000                    NOP     0

      830    17285    3                               RETURN$ -> LX_ETT_ITEM.ETT$,
      831    17286    3                               0,
      832    17287    3                               RETURN$ -> LX_ETT_ITEM.ETT$) ;
      833    17288
      834    17289    3            RETURN$ -> LX_ETT_ITEM.TYPE = %TYA ;

  17289 16 002567   200340 470500                    LDP0    @RETURN$,,AUTO
        16 002570   000000 471500                    LDP1    0,,PR0
        16 002571   000010 235007                    LDA     8,DL
        16 002572   100004 755100                    STA     4,,PR1
        16 002573   002600 710000 16                 TRA     s:17299

      835    17290
      836    17291    3          CASE (%TYA, %TYN);

      837    17292
      838    17293    3          CASE (ELSE) ;

      839    17294
      840    17295    3            CALL Z8AE$ERROR (%E$UNEXPECTED_CASE) ;

  17295 16 002574   000054 630400 17                 EPPR0   44
        16 002575   000020 631400 17                 EPPR1   16
        16 002576   000000 701000 xent               TSX1    Z8AE$ERROR
        16 002577   000000 011000                    NOP     0

      841    17296
      842    17297    3        END ; /* Case of RETURN$ type */

      843    17298
      844    17299    2        CALL Z8AU$LENGTH(RETURN$ -> LX_ETT_ITEM.ETT$,
PL6.E3A0      #001=Z8EZ$STRING File=Z8EZ.:Z8A6TSI                                SAT 08/09/97 12:59 Page:127

  17299 16 002600   200340 470500                    LDP0    @RETURN$,,AUTO
        16 002601   000000 471500                    LDP1    0,,PR0
        16 002602   200275 633500                    EPPR3   LENGTH_ID1$,,AUTO
        16 002603   200431 453500                    STP3    LENGTH_ID2$+2,,AUTO
        16 002604   100001 634500                    EPPR4   1,,PR1
        16 002605   200430 454500                    STP4    LENGTH_ID2$+1,,AUTO
        16 002606   200430 630500                    EPPR0   LENGTH_ID2$+1,,AUTO
        16 002607   000006 631400 17                 EPPR1   6
        16 002610   000000 701000 xent               TSX1    Z8AU$LENGTH
        16 002611   000000 011000                    NOP     0

      845    17300    2                         LENGTH_ID1$);
      846    17301
      847    17302    2   END PREPARE_ID1;

  17302 16 002612   200336 221300                    LDX1  ! OP+1,,AUTO
        16 002613   000001 702211                    TSX2  ! 1,X1

      848    17303
      849    17304        %EJECT;
PL6.E3A0      #001=Z8EZ$STRING File=Z8EZ.:Z8A6TSI                                SAT 08/09/97 12:59 Page:128
      850    17305    1   PREPARE_ID2:PROC(ID2$, RETURN$);

  17305 16 002614   200336 741300       PREPARE_ID2  STX1  ! OP+1,,AUTO

      851    17306
      852    17307    2        DCL ID2$       PTR;
      853    17308    2        DCL RETURN$    PTR;
      854    17309
      855    17310
      856    17311    2        SIZE = FALSE;

  17311 16 002615   200327 450100                    STZ     SIZE,,AUTO

      857    17312
      858    17313    2        IF ID2$ -> LX_ITEM.ID = %LX_TERMINAL THEN

  17313 16 002616   200337 470500                    LDP0    @ID2$,,AUTO
        16 002617   000000 471500                    LDP1    0,,PR0
        16 002620   100000 220100                    LDX0    0,,PR1
        16 002621   002627 601000 16                 TNZ     s:17317

      859    17314    2          IF ID2$ -> LX_TERMINAL.SYMBOL = %RSV_WRD_SIZE THEN

  17314 16 002622   100003 235100                    LDA     3,,PR1
        16 002623   000643 115007                    CMPA    419,DL
        16 002624   002627 601000 16                 TNZ     s:17317

      860    17315    2            SIZE = TRUE;

  17315 16 002625   400000 236003                    LDQ     -131072,DU
        16 002626   200327 756100                    STQ     SIZE,,AUTO

      861    17316
      862    17317    3        IF NOT SIZE THEN DO ;

  17317 16 002627   200327 234100                    SZN     SIZE,,AUTO
        16 002630   002664 604000 16                 TMI     s:17326
PL6.E3A0      #001=Z8EZ$STRING File=Z8EZ.:Z8A6TSI                                SAT 08/09/97 12:59 Page:129

      863    17318    3          IF ID2$ -> LX_ITEM.ID = %LX_TERMINAL THEN

  17318 16 002631   000000 100003                    CMPX0   0,DU
        16 002632   002645 601000 16                 TNZ     s:17321

      864    17319    3            CALL Z8EV$CONVERT_TYA (ID2$, RETURN$, ID3$) ;

  17319 16 002633   200272 633500                    EPPR3   ID3$,,AUTO
        16 002634   200432 453500                    STP3    LENGTH_ID2$+3,,AUTO
        16 002635   200340 236100                    LDQ     @RETURN$,,AUTO
        16 002636   200337 235100                    LDA     @ID2$,,AUTO
        16 002637   200430 757100                    STAQ    LENGTH_ID2$+1,,AUTO
        16 002640   200430 630500                    EPPR0   LENGTH_ID2$+1,,AUTO
        16 002641   000000 631400 17                 EPPR1   0
        16 002642   000000 701000 xent               TSX1    Z8EV$CONVERT_TYA
        16 002643   000000 011000                    NOP     0
        16 002644   002652 710000 16                 TRA     s:17322

      865    17320    3          ELSE
      866    17321    3            RETURN$ -> LX_ETT_ITEM = ID2$ -> LX_ETT_ITEM;

  17321 16 002645   200340 473500                    LDP3    @RETURN$,,AUTO
        16 002646   300000 474500                    LDP4    0,,PR3
        16 002647   000100 100500                    MLR     fill='000'O
        16 002650   100000 000040                    ADSC9   0,,PR1                   cn=0,n=32
        16 002651   400000 000040                    ADSC9   0,,PR4                   cn=0,n=32

      867    17322    3          CALL Z8AU$LENGTH (RETURN$ ->LX_ETT_ITEM.ETT$,

  17322 16 002652   200340 470500                    LDP0    @RETURN$,,AUTO
        16 002653   000000 471500                    LDP1    0,,PR0
        16 002654   200276 633500                    EPPR3   LENGTH_ID2$,,AUTO
        16 002655   200431 453500                    STP3    LENGTH_ID2$+2,,AUTO
        16 002656   100001 634500                    EPPR4   1,,PR1
        16 002657   200430 454500                    STP4    LENGTH_ID2$+1,,AUTO
        16 002660   200430 630500                    EPPR0   LENGTH_ID2$+1,,AUTO
PL6.E3A0      #001=Z8EZ$STRING File=Z8EZ.:Z8A6TSI                                SAT 08/09/97 12:59 Page:130
        16 002661   000006 631400 17                 EPPR1   6
        16 002662   000000 701000 xent               TSX1    Z8AU$LENGTH
        16 002663   000000 011000                    NOP     0

      868    17323    3                            LENGTH_ID2$) ;
      869    17324    3        END ; /* Not SIZE */

      870    17325
      871    17326    2   END PREPARE_ID2;

  17326 16 002664   200336 221300                    LDX1  ! OP+1,,AUTO
        16 002665   000001 702211                    TSX2  ! 1,X1

      872    17327        %EJECT;
PL6.E3A0      #001=Z8EZ$STRING File=Z8EZ.:Z8A6TSI                                SAT 08/09/97 12:59 Page:131
      873    17328    1   PREPARE_ID3:PROC(ID3$, RETURN$);

  17328 16 002666   200336 741300       PREPARE_ID3  STX1  ! OP+1,,AUTO

      874    17329
      875    17330    2        DCL ID3$         PTR;
      876    17331    2        DCL RETURN$      PTR;
      877    17332
      878    17333    2        RETURN$ -> LX_ETT_ITEM = ID3$ -> LX_ETT_ITEM;

  17333 16 002667   200340 470500                    LDP0    @RETURN$,,AUTO
        16 002670   000000 471500                    LDP1    0,,PR0
        16 002671   200337 473500                    LDP3    @ID3$,,AUTO
        16 002672   300000 474500                    LDP4    0,,PR3
        16 002673   000100 100500                    MLR     fill='000'O
        16 002674   400000 000040                    ADSC9   0,,PR4                   cn=0,n=32
        16 002675   100000 000040                    ADSC9   0,,PR1                   cn=0,n=32

      879    17334
      880    17335    2        CALL Z8AU$LENGTH(RETURN$ -> LX_ETT_ITEM.ETT$,

  17335 16 002676   000000 471500                    LDP1    0,,PR0
        16 002677   200277 634500                    EPPR4   LENGTH_ID3$,,AUTO
        16 002700   200431 454500                    STP4    LENGTH_ID2$+2,,AUTO
        16 002701   100001 635500                    EPPR5   1,,PR1
        16 002702   200430 455500                    STP5    LENGTH_ID2$+1,,AUTO
        16 002703   200430 630500                    EPPR0   LENGTH_ID2$+1,,AUTO
        16 002704   000006 631400 17                 EPPR1   6
        16 002705   000000 701000 xent               TSX1    Z8AU$LENGTH
        16 002706   000000 011000                    NOP     0

      881    17336    2                         LENGTH_ID3$);
      882    17337
      883    17338
      884    17339    2   END PREPARE_ID3;

  17339 16 002707   200336 221300                    LDX1  ! OP+1,,AUTO
PL6.E3A0      #001=Z8EZ$STRING File=Z8EZ.:Z8A6TSI                                SAT 08/09/97 12:59 Page:132
        16 002710   000001 702211                    TSX2  ! 1,X1

      885    17340
      886    17341        %EJECT;
PL6.E3A0      #001=Z8EZ$STRING File=Z8EZ.:Z8A6TSI                                SAT 08/09/97 12:59 Page:133
      887    17342
      888    17343    1   PREPARE_ID4:PROC(ID4$, ID3$, RETURN$);

  17343 16 002711   200336 741300       PREPARE_ID4  STX1  ! OP+1,,AUTO

      889    17344
      890    17345    2        DCL ID4$       PTR;
      891    17346    2        DCL ID3$       PTR;
      892    17347    2        DCL RETURN$    PTR;
      893    17348
      894    17349
      895    17350
      896    17351    2        IF NOT POINTER THEN

  17351 16 002712   200325 234100                    SZN     POINTER,,AUTO
        16 002713   002766 604000 16                 TMI     s:17383

      897    17352    3          DO;

      898    17353                 %INIT_LX_ETT_ITEM( @POINTER   = RETURN$ ,
      899    17354                                    @TYPE      = %TYI );

  17356 16 002714   200341 470500                    LDP0    @RETURN$,,AUTO
        16 002715   000000 471500                    LDP1    0,,PR0
        16 002716   000004 220003                    LDX0    4,DU
        16 002717   100000 740100                    STX0    0,,PR1

  17357 16 002720   000000 471500                    LDP1    0,,PR0
        16 002721   000000 221003                    LDX1    0,DU
        16 002722   100000 441100                    SXL1    0,,PR1

  17358 16 002723   000000 471500                    LDP1    0,,PR0
        16 002724   000001 235007                    LDA     1,DL
        16 002725   100004 755100                    STA     4,,PR1

  17359 16 002726   000000 471500                    LDP1    0,,PR0
        16 002727   000005 236000 17                 LDQ     5
PL6.E3A0      #001=Z8EZ$STRING File=Z8EZ.:Z8A6TSI                                SAT 08/09/97 12:59 Page:134
        16 002730   100007 756100                    STQ     7,,PR1

  17360 16 002731   000000 471500                    LDP1    0,,PR0
        16 002732   100001 756100                    STQ     1,,PR1

  17361 16 002733   000000 471500                    LDP1    0,,PR0
        16 002734   000005 236000 17                 LDQ     5
        16 002735   100002 756100                    STQ     2,,PR1

  17363 16 002736   000000 471500                    LDP1    0,,PR0
        16 002737   000133 236000 xsym               LDQ     COMCOM+91
        16 002740   100005 756100                    STQ     5,,PR1

  17364 16 002741   000000 471500                    LDP1    0,,PR0
        16 002742   000134 236000 xsym               LDQ     COMCOM+92
        16 002743   100006 756100                    STQ     6,,PR1

      900    17376
      901    17377    3            CALL Z8AT$CREATE_TEMP_WITH_BASE(%SCALAR,

  17377 16 002744   000000 471500                    LDP1    0,,PR0
        16 002745   100001 633500                    EPPR3   1,,PR1
        16 002746   200431 453500                    STP3    LENGTH_ID2$+2,,AUTO
        16 002747   000022 236000 17                 LDQ     18
        16 002750   200430 756100                    STQ     LENGTH_ID2$+1,,AUTO
        16 002751   200430 630500                    EPPR0   LENGTH_ID2$+1,,AUTO
        16 002752   000006 631400 17                 EPPR1   6
        16 002753   000000 701000 xent               TSX1    Z8AT$CREATE_TEMP_WITH_BASE
        16 002754   000000 011000                    NOP     0

      902    17378    3                                            RETURN$ -> LX_ETT_ITEM.ETT$ );
      903    17379
      904    17380    3            CALL Z8E7$MOVE(RETURN$, ONE$);

  17380 16 002755   200313 630500                    EPPR0   ONE$,,AUTO
        16 002756   200431 450500                    STP0    LENGTH_ID2$+2,,AUTO
        16 002757   200341 236100                    LDQ     @RETURN$,,AUTO
PL6.E3A0      #001=Z8EZ$STRING File=Z8EZ.:Z8A6TSI                                SAT 08/09/97 12:59 Page:135
        16 002760   200430 756100                    STQ     LENGTH_ID2$+1,,AUTO
        16 002761   200430 630500                    EPPR0   LENGTH_ID2$+1,,AUTO
        16 002762   000006 631400 17                 EPPR1   6
        16 002763   000000 701000 xent               TSX1    Z8E7$MOVE
        16 002764   000000 011000                    NOP     0

      905    17381    3          END;

  17381 16 002765   002775 710000 16                 TRA     s:17384

      906    17382    2        ELSE
      907    17383    2          RETURN$ -> LX_ETT_ITEM = ID4$ -> LX_ETT_ITEM;

  17383 16 002766   200341 470500                    LDP0    @RETURN$,,AUTO
        16 002767   000000 471500                    LDP1    0,,PR0
        16 002770   200337 473500                    LDP3    @ID4$,,AUTO
        16 002771   300000 474500                    LDP4    0,,PR3
        16 002772   000100 100500                    MLR     fill='000'O
        16 002773   400000 000040                    ADSC9   0,,PR4                   cn=0,n=32
        16 002774   100000 000040                    ADSC9   0,,PR1                   cn=0,n=32

      908    17384    2   END PREPARE_ID4;

  17384 16 002775   200336 221300                    LDX1  ! OP+1,,AUTO
        16 002776   000001 702211                    TSX2  ! 1,X1

      909    17385        %EJECT;
PL6.E3A0      #001=Z8EZ$STRING File=Z8EZ.:Z8A6TSI                                SAT 08/09/97 12:59 Page:136
      910    17386        /*===========*/
      911    17387    1     KANJI_INDEX : PROC ( COUNT$ );

  17387 16 002777   200336 741300       KANJI_INDEX  STX1  ! OP+1,,AUTO

      912    17388        /*===========*/
      913    17389
      914    17390    2   DCL BEGAIN_INDEX$       PTR;
      915    17391    2   DCL END_INDEX$          PTR;
      916    17392
      917    17393        %DCL_AUTO_LX_ITEM( @NAME = COUNT );
      918    17397        %DCL_AUTO_LX_ITEM( @NAME = SUB );
      919    17401        %DCL_AUTO_LX_ITEM( @NAME = COMPARISON );
      920    17405        %DCL_AUTO_LX_ITEM( @NAME = LENGTH_ID1 );
      921    17409        %DCL_AUTO_LX_ITEM( @NAME = LENGTH_ID2 );
      922    17413        %DCL_AUTO_LX_ITEM( @NAME = SUB_STR );
      923    17417
      924    17418    2   DCL COUNT$              PTR;
      925    17419    2   DCL COUNT_BASE$         PTR;
      926    17420    2   DCL SUBSTR$             PTR;
      927    17421    2   DCL SUB$                PTR;
      928    17422    2   DCL COMPARISON$         PTR;
      929    17423    2   DCL LENGTH_ID1$         PTR;
      930    17424    2   DCL LENGTH_ID2$         PTR;
      931    17425
      932    17426
      933    17427    2   SUB$ = ADDR( SUB );

  17427 16 003000   200352 630500                    EPPR0   SUB,,AUTO
        16 003001   200424 450500                    STP0    SUB$,,AUTO

      934    17428    2   SUBSTR$ = ADDR( SUB_STR );

  17428 16 003002   200412 631500                    EPPR1   SUB_STR,,AUTO
        16 003003   200423 451500                    STP1    SUBSTR$,,AUTO

      935    17429
PL6.E3A0      #001=Z8EZ$STRING File=Z8EZ.:Z8A6TSI                                SAT 08/09/97 12:59 Page:137
      936    17430    2   CALL Z8AT$CREATE_TEMPORARY( %PARA, BEGAIN_INDEX$ );

  17430 16 003004   200340 633500                    EPPR3   BEGAIN_INDEX$,,AUTO
        16 003005   200431 453500                    STP3    LENGTH_ID2$+2,,AUTO
        16 003006   000014 236000 17                 LDQ     12
        16 003007   200430 756100                    STQ     LENGTH_ID2$+1,,AUTO
        16 003010   200430 630500                    EPPR0   LENGTH_ID2$+1,,AUTO
        16 003011   000006 631400 17                 EPPR1   6
        16 003012   000000 701000 xent               TSX1    Z8AT$CREATE_TEMPORARY
        16 003013   000000 011000                    NOP     0

      937    17431    2   CALL Z8AT$CREATE_TEMPORARY( %PARA, END_INDEX$ );

  17431 16 003014   200341 630500                    EPPR0   END_INDEX$,,AUTO
        16 003015   200431 450500                    STP0    LENGTH_ID2$+2,,AUTO
        16 003016   000014 236000 17                 LDQ     12
        16 003017   200430 756100                    STQ     LENGTH_ID2$+1,,AUTO
        16 003020   200430 630500                    EPPR0   LENGTH_ID2$+1,,AUTO
        16 003021   000006 631400 17                 EPPR1   6
        16 003022   000000 701000 xent               TSX1    Z8AT$CREATE_TEMPORARY
        16 003023   000000 011000                    NOP     0

      938    17432
      939    17433    2   LENGTH_ID2$ = ADDR( LENGTH_ID2 );

  17433 16 003024   200402 630500                    EPPR0   LENGTH_ID2,,AUTO
        16 003025   200427 450500                    STP0    LENGTH_ID2$,,AUTO

      940    17434    2   CALL Z8AU$LENGTH( ID2$ -> LX_ETT_ITEM.ETT$,

  17434 16 003026   200427 631500                    EPPR1   LENGTH_ID2$,,AUTO
        16 003027   200431 451500                    STP1    LENGTH_ID2$+2,,AUTO
        16 003030   200271 236100                    LDQ     ID2$,,AUTO
        16 003031   000001 036003                    ADLQ    1,DU
        16 003032   200430 756100                    STQ     LENGTH_ID2$+1,,AUTO
        16 003033   200430 630500                    EPPR0   LENGTH_ID2$+1,,AUTO
        16 003034   000006 631400 17                 EPPR1   6
PL6.E3A0      #001=Z8EZ$STRING File=Z8EZ.:Z8A6TSI                                SAT 08/09/97 12:59 Page:138
        16 003035   000000 701000 xent               TSX1    Z8AU$LENGTH
        16 003036   000000 011000                    NOP     0

      941    17435    2                     LENGTH_ID2$ );
      942    17436    2   LENGTH_ID1$ = ADDR( LENGTH_ID1 );

  17436 16 003037   200372 630500                    EPPR0   LENGTH_ID1,,AUTO
        16 003040   200426 450500                    STP0    LENGTH_ID1$,,AUTO

      943    17437    2   CALL Z8AU$LENGTH( ID1$ -> LX_ETT_ITEM.ETT$,

  17437 16 003041   200426 631500                    EPPR1   LENGTH_ID1$,,AUTO
        16 003042   200431 451500                    STP1    LENGTH_ID2$+2,,AUTO
        16 003043   200270 236100                    LDQ     ID1$,,AUTO
        16 003044   000001 036003                    ADLQ    1,DU
        16 003045   200430 756100                    STQ     LENGTH_ID2$+1,,AUTO
        16 003046   200430 630500                    EPPR0   LENGTH_ID2$+1,,AUTO
        16 003047   000006 631400 17                 EPPR1   6
        16 003050   000000 701000 xent               TSX1    Z8AU$LENGTH
        16 003051   000000 011000                    NOP     0

      944    17438    2                     LENGTH_ID1$ );
      945    17439
      946    17440        %NEW_ILL( @ID  = %MVII,
      947    17441                  @LOP = COUNT$ -> LX_ETT_ITEM.ETT$,
      948    17442                  @ROP = COMCOM.VALUE_0 );

  17755 16 003052   200337 470500                    LDP0    @COUNT$,,AUTO
        16 003053   000000 471500                    LDP1    0,,PR0
        16 003054   000027 236000 17                 LDQ     23
        16 003055   200430 756100                    STQ     LENGTH_ID2$+1,,AUTO
        16 003056   100001 633500                    EPPR3   1,,PR1
        16 003057   200435 453500                    STP3    LENGTH_ID2$+6,,AUTO
        16 003060   200430 631500                    EPPR1   LENGTH_ID2$+1,,AUTO
        16 003061   200434 451500                    STP1    LENGTH_ID2$+5,,AUTO
        16 003062   000060 237000 17                 LDAQ    48
        16 003063   200432 757100                    STAQ    LENGTH_ID2$+3,,AUTO
PL6.E3A0      #001=Z8EZ$STRING File=Z8EZ.:Z8A6TSI                                SAT 08/09/97 12:59 Page:139
        16 003064   000010 236000 17                 LDQ     8
        16 003065   200431 756100                    STQ     LENGTH_ID2$+2,,AUTO
        16 003066   200431 630500                    EPPR0   LENGTH_ID2$+2,,AUTO
        16 003067   000055 631400 17                 EPPR1   45
        16 003070   000000 701000 xent               TSX1    Z8AN$NEW_ILL1
        16 003071   000000 011000                    NOP     0

  17758 16 003072   200337 470500                    LDP0    @COUNT$,,AUTO
        16 003073   000000 471500                    LDP1    0,,PR0
        16 003074   100001 236100                    LDQ     1,,PR1
        16 003075   000000 473400 11                 LDP3    ILL$
        16 003076   300001 756100                    STQ     1,,PR3

  17759 16 003077   000124 236000 xsym               LDQ     COMCOM+84
        16 003100   300002 756100                    STQ     2,,PR3

      949    17821
      950    17822        %NEW_ILL( @ID  = %DEFLB,
      951    17823                  @LOP = BEGAIN_INDEX$ );

  18144 16 003101   000027 236000 17                 LDQ     23
        16 003102   200430 756100                    STQ     LENGTH_ID2$+1,,AUTO
        16 003103   200430 631500                    EPPR1   LENGTH_ID2$+1,,AUTO
        16 003104   200435 451500                    STP1    LENGTH_ID2$+6,,AUTO
        16 003105   000030 236000 17                 LDQ     24
        16 003106   200434 756100                    STQ     LENGTH_ID2$+5,,AUTO
        16 003107   000032 237000 17                 LDAQ    26
        16 003110   200432 757100                    STAQ    LENGTH_ID2$+3,,AUTO
        16 003111   200432 630500                    EPPR0   LENGTH_ID2$+3,,AUTO
        16 003112   000015 631400 17                 EPPR1   13
        16 003113   000000 701000 xent               TSX1    Z8AN$NEW_ILL
        16 003114   000000 011000                    NOP     0

  18153 16 003115   200340 236100                    LDQ     BEGAIN_INDEX$,,AUTO
        16 003116   000000 470400 11                 LDP0    ILL$
        16 003117   000001 756100                    STQ     1,,PR0

PL6.E3A0      #001=Z8EZ$STRING File=Z8EZ.:Z8A6TSI                                SAT 08/09/97 12:59 Page:140
      952    18202
      953    18203        %INIT_BINARY_OP( @POINTER = SUB$,
      954    18204                         @LOP$    = LENGTH_ID1$,
      955    18205                         @ROP$    = TWO$,
      956    18206                         @OP      = %OP_BINARY_MINUS,
      957    18207                         @LINE    = "ID1$ -> LX_ETT_ITEM.LINE",
      958    18208                         @COLUMN  = "ID1$ -> LX_ETT_ITEM.COLUMN" );

  18210 16 003120   000005 220003                    LDX0    5,DU
        16 003121   200424 471500                    LDP1    SUB$,,AUTO
        16 003122   100000 740100                    STX0    0,,PR1

  18211 16 003123   000000 221003                    LDX1    0,DU
        16 003124   100000 441100                    SXL1    0,,PR1

  18218 16 003125   200270 470500                    LDP0    ID1$,,AUTO
        16 003126   000005 235100                    LDA     5,,PR0
        16 003127   100005 755100                    STA     5,,PR1

  18219 16 003130   200270 470500                    LDP0    ID1$,,AUTO
        16 003131   000006 235100                    LDA     6,,PR0
        16 003132   100006 755100                    STA     6,,PR1

  18220 16 003133   200314 236100                    LDQ     TWO$,,AUTO
        16 003134   100002 756100                    STQ     2,,PR1

  18221 16 003135   200426 236100                    LDQ     LENGTH_ID1$,,AUTO
        16 003136   100001 756100                    STQ     1,,PR1

  18222 16 003137   000021 235007                    LDA     17,DL
        16 003140   100003 755100                    STA     3,,PR1

  18223 16 003141   000005 236000 17                 LDQ     5
        16 003142   100007 756100                    STQ     7,,PR1

      959    18226
      960    18227        %IF_THEN_DO( @LOP = COUNT$,
PL6.E3A0      #001=Z8EZ$STRING File=Z8EZ.:Z8A6TSI                                SAT 08/09/97 12:59 Page:141
      961    18228                     @ROP = SUB$,
      962    18229                     @REL = %OP_LESS_THAN_OR_EQUAL,
      963    18230                     @LAB = END_INDEX$ );

  18236 16 003143   200362 630500                    EPPR0   COMPARISON,,AUTO
        16 003144   200425 450500                    STP0    COMPARISON$,,AUTO

  18244 16 003145   000000 740100                    STX0    0,,PR0

  18245 16 003146   200425 470500                    LDP0    COMPARISON$,,AUTO
        16 003147   000000 441100                    SXL1    0,,PR0

  18252 16 003150   200337 470500                    LDP0    @COUNT$,,AUTO
        16 003151   000000 473500                    LDP3    0,,PR0
        16 003152   200425 474500                    LDP4    COMPARISON$,,AUTO
        16 003153   300005 235100                    LDA     5,,PR3
        16 003154   400005 755100                    STA     5,,PR4

  18253 16 003155   000000 473500                    LDP3    0,,PR0
        16 003156   200425 474500                    LDP4    COMPARISON$,,AUTO
        16 003157   300006 235100                    LDA     6,,PR3
        16 003160   400006 755100                    STA     6,,PR4

  18254 16 003161   200424 236100                    LDQ     SUB$,,AUTO
        16 003162   200425 473500                    LDP3    COMPARISON$,,AUTO
        16 003163   300002 756100                    STQ     2,,PR3

  18255 16 003164   000000 236100                    LDQ     0,,PR0
        16 003165   200425 473500                    LDP3    COMPARISON$,,AUTO
        16 003166   300001 756100                    STQ     1,,PR3

  18256 16 003167   000032 235007                    LDA     26,DL
        16 003170   200425 473500                    LDP3    COMPARISON$,,AUTO
        16 003171   300003 755100                    STA     3,,PR3

  18257 16 003172   000005 236000 17                 LDQ     5
        16 003173   200425 473500                    LDP3    COMPARISON$,,AUTO
PL6.E3A0      #001=Z8EZ$STRING File=Z8EZ.:Z8A6TSI                                SAT 08/09/97 12:59 Page:142
        16 003174   300007 756100                    STQ     7,,PR3

  18260 16 003175   200341 633500                    EPPR3   END_INDEX$,,AUTO
        16 003176   200431 453500                    STP3    LENGTH_ID2$+2,,AUTO
        16 003177   000014 236000 17                 LDQ     12
        16 003200   200430 756100                    STQ     LENGTH_ID2$+1,,AUTO
        16 003201   200430 630500                    EPPR0   LENGTH_ID2$+1,,AUTO
        16 003202   000006 631400 17                 EPPR1   6
        16 003203   000000 701000 xent               TSX1    Z8AT$CREATE_TEMPORARY
        16 003204   000000 011000                    NOP     0

  18261 16 003205   200425 630500                    EPPR0   COMPARISON$,,AUTO
        16 003206   200431 450500                    STP0    LENGTH_ID2$+2,,AUTO
        16 003207   200341 631500                    EPPR1   END_INDEX$,,AUTO
        16 003210   200430 451500                    STP1    LENGTH_ID2$+1,,AUTO
        16 003211   200430 630500                    EPPR0   LENGTH_ID2$+1,,AUTO
        16 003212   000006 631400 17                 EPPR1   6
        16 003213   000000 701000 xent               TSX1    Z8EK$BRANCH_FALSE
        16 003214   000000 011000                    NOP     0

      964    18264
      965    18265    2   CALL Z8EA$SUBSTR_ZERO( ID1$,

  18265 16 003215   200423 630500                    EPPR0   SUBSTR$,,AUTO
        16 003216   200433 450500                    STP0    LENGTH_ID2$+4,,AUTO
        16 003217   200427 631500                    EPPR1   LENGTH_ID2$,,AUTO
        16 003220   200432 451500                    STP1    LENGTH_ID2$+3,,AUTO
        16 003221   200337 236100                    LDQ     @COUNT$,,AUTO
        16 003222   200431 756100                    STQ     LENGTH_ID2$+2,,AUTO
        16 003223   200270 633500                    EPPR3   ID1$,,AUTO
        16 003224   200430 453500                    STP3    LENGTH_ID2$+1,,AUTO
        16 003225   200430 630500                    EPPR0   LENGTH_ID2$+1,,AUTO
        16 003226   000015 631400 17                 EPPR1   13
        16 003227   000000 701000 xent               TSX1    Z8EA$SUBSTR_ZERO
        16 003230   000000 011000                    NOP     0

      966    18266    2                          COUNT$,
PL6.E3A0      #001=Z8EZ$STRING File=Z8EZ.:Z8A6TSI                                SAT 08/09/97 12:59 Page:143
      967    18267    2                          LENGTH_ID2$,
      968    18268    2                          SUBSTR$ );
      969    18269    2   COMPARISON$ = ADDR( COMPARISON );

  18269 16 003231   200362 630500                    EPPR0   COMPARISON,,AUTO
        16 003232   200425 450500                    STP0    COMPARISON$,,AUTO

      970    18270
      971    18271        %INIT_BINARY_OP( @POINTER = COMPARISON$,
      972    18272                         @LOP$    = SUBSTR$,
      973    18273                         @OP      = %OP_EQUAL,
      974    18274                         @ROP$    = ID2$,
      975    18275                         @LINE    = "ID2$ -> LX_ETT_ITEM.LINE",
      976    18276                         @COLUMN  = "ID2$ -> LX_ETT_ITEM.COLUMN" );

  18278 16 003233   000005 220003                    LDX0    5,DU
        16 003234   000000 740100                    STX0    0,,PR0

  18279 16 003235   000000 221003                    LDX1    0,DU
        16 003236   200425 470500                    LDP0    COMPARISON$,,AUTO
        16 003237   000000 441100                    SXL1    0,,PR0

  18286 16 003240   200271 470500                    LDP0    ID2$,,AUTO
        16 003241   200425 471500                    LDP1    COMPARISON$,,AUTO
        16 003242   000005 235100                    LDA     5,,PR0
        16 003243   100005 755100                    STA     5,,PR1

  18287 16 003244   200271 470500                    LDP0    ID2$,,AUTO
        16 003245   200425 471500                    LDP1    COMPARISON$,,AUTO
        16 003246   000006 235100                    LDA     6,,PR0
        16 003247   100006 755100                    STA     6,,PR1

  18288 16 003250   200271 236100                    LDQ     ID2$,,AUTO
        16 003251   200425 470500                    LDP0    COMPARISON$,,AUTO
        16 003252   000002 756100                    STQ     2,,PR0

  18289 16 003253   200423 236100                    LDQ     SUBSTR$,,AUTO
PL6.E3A0      #001=Z8EZ$STRING File=Z8EZ.:Z8A6TSI                                SAT 08/09/97 12:59 Page:144
        16 003254   200425 470500                    LDP0    COMPARISON$,,AUTO
        16 003255   000001 756100                    STQ     1,,PR0

  18290 16 003256   000027 235007                    LDA     23,DL
        16 003257   200425 470500                    LDP0    COMPARISON$,,AUTO
        16 003260   000003 755100                    STA     3,,PR0

  18291 16 003261   000005 236000 17                 LDQ     5
        16 003262   200425 470500                    LDP0    COMPARISON$,,AUTO
        16 003263   000007 756100                    STQ     7,,PR0

      977    18294
      978    18295    2   CALL Z8EK$BRANCH_TRUE( END_INDEX$,

  18295 16 003264   200425 630500                    EPPR0   COMPARISON$,,AUTO
        16 003265   200431 450500                    STP0    LENGTH_ID2$+2,,AUTO
        16 003266   200341 631500                    EPPR1   END_INDEX$,,AUTO
        16 003267   200430 451500                    STP1    LENGTH_ID2$+1,,AUTO
        16 003270   200430 630500                    EPPR0   LENGTH_ID2$+1,,AUTO
        16 003271   000006 631400 17                 EPPR1   6
        16 003272   000000 701000 xent               TSX1    Z8EK$BRANCH_TRUE
        16 003273   000000 011000                    NOP     0

      979    18296    2                          COMPARISON$ );
      980    18297
      981    18298        %NEW_ILL( @ID  = %AD2I,
      982    18299                  @LOP = COUNT$ -> LX_ETT_ITEM.ETT$,
      983    18300                  @ROP = TWO$ -> LX_ETT_ITEM.ETT$ );

  18613 16 003274   200337 470500                    LDP0    @COUNT$,,AUTO
        16 003275   000000 471500                    LDP1    0,,PR0
        16 003276   000027 236000 17                 LDQ     23
        16 003277   200430 756100                    STQ     LENGTH_ID2$+1,,AUTO
        16 003300   100001 633500                    EPPR3   1,,PR1
        16 003301   200435 453500                    STP3    LENGTH_ID2$+6,,AUTO
        16 003302   200430 631500                    EPPR1   LENGTH_ID2$+1,,AUTO
        16 003303   200434 451500                    STP1    LENGTH_ID2$+5,,AUTO
PL6.E3A0      #001=Z8EZ$STRING File=Z8EZ.:Z8A6TSI                                SAT 08/09/97 12:59 Page:145
        16 003304   000062 237000 17                 LDAQ    50
        16 003305   200432 757100                    STAQ    LENGTH_ID2$+3,,AUTO
        16 003306   000010 236000 17                 LDQ     8
        16 003307   200431 756100                    STQ     LENGTH_ID2$+2,,AUTO
        16 003310   200431 630500                    EPPR0   LENGTH_ID2$+2,,AUTO
        16 003311   000055 631400 17                 EPPR1   45
        16 003312   000000 701000 xent               TSX1    Z8AN$NEW_ILL1
        16 003313   000000 011000                    NOP     0

  18616 16 003314   200337 470500                    LDP0    @COUNT$,,AUTO
        16 003315   000000 471500                    LDP1    0,,PR0
        16 003316   100001 236100                    LDQ     1,,PR1
        16 003317   000000 473400 11                 LDP3    ILL$
        16 003320   300001 756100                    STQ     1,,PR3

  18617 16 003321   200314 471500                    LDP1    TWO$,,AUTO
        16 003322   100001 236100                    LDQ     1,,PR1
        16 003323   300002 756100                    STQ     2,,PR3

      984    18679
      985    18680    2   CALL Z8EK$BRANCH( BEGAIN_INDEX$ );

  18680 16 003324   200340 631500                    EPPR1   BEGAIN_INDEX$,,AUTO
        16 003325   200430 451500                    STP1    LENGTH_ID2$+1,,AUTO
        16 003326   200430 630500                    EPPR0   LENGTH_ID2$+1,,AUTO
        16 003327   000020 631400 17                 EPPR1   16
        16 003330   000000 701000 xent               TSX1    Z8EK$BRANCH
        16 003331   000000 011000                    NOP     0

      986    18681
      987    18682        %NEW_ILL( @ID = %DEFLB,
      988    18683                  @LOP = END_INDEX$ );

  19004 16 003332   000027 236000 17                 LDQ     23
        16 003333   200430 756100                    STQ     LENGTH_ID2$+1,,AUTO
        16 003334   200430 630500                    EPPR0   LENGTH_ID2$+1,,AUTO
        16 003335   200435 450500                    STP0    LENGTH_ID2$+6,,AUTO
PL6.E3A0      #001=Z8EZ$STRING File=Z8EZ.:Z8A6TSI                                SAT 08/09/97 12:59 Page:146
        16 003336   000030 236000 17                 LDQ     24
        16 003337   200434 756100                    STQ     LENGTH_ID2$+5,,AUTO
        16 003340   000032 237000 17                 LDAQ    26
        16 003341   200432 757100                    STAQ    LENGTH_ID2$+3,,AUTO
        16 003342   200432 630500                    EPPR0   LENGTH_ID2$+3,,AUTO
        16 003343   000015 631400 17                 EPPR1   13
        16 003344   000000 701000 xent               TSX1    Z8AN$NEW_ILL
        16 003345   000000 011000                    NOP     0

  19013 16 003346   200341 236100                    LDQ     END_INDEX$,,AUTO
        16 003347   000000 470400 11                 LDP0    ILL$
        16 003350   000001 756100                    STQ     1,,PR0

      989    19062
      990    19063
      991    19064    2   END KANJI_INDEX;

  19064 16 003351   200336 221300                    LDX1  ! OP+1,,AUTO
        16 003352   000001 702211                    TSX2  ! 1,X1

      992    19065    1   END Z8EZ$STRING;

  19065 16 003353   000000 702200 xent               TSX2  ! X66_ARET
      993    19066
      994    19067        %EOD;

PL6.E3A0      #001=Z8EZ$STRING File=Z8EZ.:Z8A6TSI                                SAT 08/09/97 12:59 Page:147
--  Include file information  --

   Z8A_ERR_NUMS.:Z8A6TOU  is referenced.
   Z8A_TYPES.:Z8A6TOU  is referenced.
   Z8E_ILS_LIST.:Z8A6TOU  is referenced.
   Z8A_ILS.:Z8A6TOU  cannot be made into a system file and is referenced.
   Z8E_WINDOW.:Z8A6TOU  is referenced.
   Z8E_HEAP.:Z8A6TOU  cannot be made into a system file and is referenced.
   Z8E_O1COM.:Z8A6TOU  cannot be made into a system file and is referenced.
   Z8A_LIBRARY.:Z8A6TOU  cannot be made into a system file and is referenced.
   Z8A_COMCOM.:Z8A6TOU  cannot be made into a system file and is referenced.
   Z8A_ILL.:Z8A6TOU  cannot be made into a system file and is referenced.
   Z8A_ETT.:Z8A6TOU  cannot be made into a system file and is referenced.
   Z8A_ST.:Z8A6TOU  cannot be made into a system file and is referenced.
   Z8A_LEX_SYMB.:Z8A6TOU  cannot be made into a system file and is referenced.
   Z8E_STACKS.:Z8A6TOU  cannot be made into a system file and is referenced.
   Z8E_NEW_ILL.:Z8A6TOU  is referenced.
   Z8E_MACROS.:Z8A6TOU  cannot be made into a system file and is referenced.
   X8A_COM_MACS.:X8A6TOU  is referenced.
   Z8A_NAMES.:Z8A6TOU  is referenced.
   Z8A_SUPP_MAC.:Z8A6TOU  is referenced.
   Z8A_DEFC.:Z8A6TOU  cannot be made into a system file and is referenced.
      No diagnostics issued in procedure Z8EZ$STRING.
PL6.E3A0      #001=Z8EZ$STRING File=Z8EZ.:Z8A6TSI                                SAT 08/09/97 12:59 Page:148

 **** Variables and constants ****

  ****  Section 000 LblCom ITERATION

  ****  Scalars and arrays  ****
OctLoc.c.b A Datatyp(siz) R M Lvl/name                 OctLoc.c.b A Datatyp(siz) R M Lvl/name

     0-0-0/w SBIN              1 ITERATION

  ****  Section 001 LblCom LEX_SYMBOL

  ****  Scalars and arrays  ****
OctLoc.c.b A Datatyp(siz) R M Lvl/name                 OctLoc.c.b A Datatyp(siz) R M Lvl/name

     0-0-0/w STRC(3240)  r     1 LEX_SYMBOL                 0-0-0/w STRC(3240)        1 LEX_SYMBOL_WORDS

  ****  Section 002 LblCom CURRENT_LEX_SYMBOL$

  ****  Scalars and arrays  ****
OctLoc.c.b A Datatyp(siz) R M Lvl/name                 OctLoc.c.b A Datatyp(siz) R M Lvl/name

     0-0-0/w PTR         r     1 CURRENT_LEX_SYMBOL$

  ****  Section 003 LblCom TEMP_LEX_SYMBOL

  ****  Scalars and arrays  ****
OctLoc.c.b A Datatyp(siz) R M Lvl/name                 OctLoc.c.b A Datatyp(siz) R M Lvl/name

     0-0-0/w STRC(3240)        1 TEMP_LEX_SYMBOL

  ****  Section 004 LblCom TEMP_LEX_SYMBOL2

  ****  Scalars and arrays  ****
OctLoc.c.b A Datatyp(siz) R M Lvl/name                 OctLoc.c.b A Datatyp(siz) R M Lvl/name

     0-0-0/w STRC(3240)        1 TEMP_LEX_SYMBOL2

PL6.E3A0      #001=Z8EZ$STRING File=Z8EZ.:Z8A6TSI                                SAT 08/09/97 12:59 Page:149
  ****  Section 005 LblCom ST$

  ****  Scalars and arrays  ****
OctLoc.c.b A Datatyp(siz) R M Lvl/name                 OctLoc.c.b A Datatyp(siz) R M Lvl/name

     0-0-0/w PTR         r     1 ST$

  ****  Section 006 LblCom ST_

  ****  Scalars and arrays  ****
OctLoc.c.b A Datatyp(siz) R M Lvl/name                 OctLoc.c.b A Datatyp(siz) R M Lvl/name

     0-0-0/w STRC(180)         1 ST_

  ****  Section 007 LblCom ETT$

  ****  Scalars and arrays  ****
OctLoc.c.b A Datatyp(siz) R M Lvl/name                 OctLoc.c.b A Datatyp(siz) R M Lvl/name

     0-0-0/w PTR         r     1 ETT$

  ****  Section 008 LblCom HEAD_ETT$

  ****  Scalars and arrays  ****
OctLoc.c.b A Datatyp(siz) R M Lvl/name                 OctLoc.c.b A Datatyp(siz) R M Lvl/name

     0-0-0/w PTR               1 HEAD_ETT$

  ****  Section 009 LblCom ETT_BUCKETS

  ****  Scalars and arrays  ****
OctLoc.c.b A Datatyp(siz) R M Lvl/name                 OctLoc.c.b A Datatyp(siz) R M Lvl/name

     0-0-0/w PTR               1 ETT_BUCKETS(0:511)

  ****  Section 010 LblCom ETT_

PL6.E3A0      #001=Z8EZ$STRING File=Z8EZ.:Z8A6TSI                                SAT 08/09/97 12:59 Page:150
  ****  Scalars and arrays  ****
OctLoc.c.b A Datatyp(siz) R M Lvl/name                 OctLoc.c.b A Datatyp(siz) R M Lvl/name

     0-0-0/w STRC(180)         1 ETT_

  ****  Section 011 LblCom ILL$

  ****  Scalars and arrays  ****
OctLoc.c.b A Datatyp(siz) R M Lvl/name                 OctLoc.c.b A Datatyp(siz) R M Lvl/name

     0-0-0/w PTR         r     1 ILL$

  ****  Section 012 LblCom ILL_

  ****  Scalars and arrays  ****
OctLoc.c.b A Datatyp(siz) R M Lvl/name                 OctLoc.c.b A Datatyp(siz) R M Lvl/name

     0-0-0/w STRC(180)         1 ILL_

  ****  Section 013 LblCom HEAP$

  ****  Scalars and arrays  ****
OctLoc.c.b A Datatyp(siz) R M Lvl/name                 OctLoc.c.b A Datatyp(siz) R M Lvl/name

     0-0-0/w PTR               1 HEAP$

  ****  Section 014 LblCom ILS$

  ****  Scalars and arrays  ****
OctLoc.c.b A Datatyp(siz) R M Lvl/name                 OctLoc.c.b A Datatyp(siz) R M Lvl/name

     0-0-0/w PTR         r     1 ILS$

  ****  Section 015 LblCom ILS_

  ****  Scalars and arrays  ****
OctLoc.c.b A Datatyp(siz) R M Lvl/name                 OctLoc.c.b A Datatyp(siz) R M Lvl/name
PL6.E3A0      #001=Z8EZ$STRING File=Z8EZ.:Z8A6TSI                                SAT 08/09/97 12:59 Page:151

     0-0-0/w STRC(180)         1 ILS_

  ****  Auto variables  ****

  ****  Scalars and arrays  ****
OctLoc.c.b A Datatyp(siz) R M Lvl/name                 OctLoc.c.b A Datatyp(siz) R M Lvl/name

   337-0-0/w PTR         r     1 @COUNT$                  341-0-0/w PTR         r     1 @ID$
   340-0-0/w PTR         r     1 @ID1$                    337-0-0/w PTR         r     1 @ID1$
   337-0-0/w PTR         r     1 @ID1$                    337-0-0/w PTR         r     1 @ID2$
   337-0-0/w PTR         r     1 @ID2$                    337-0-0/w PTR         r     1 @ID3$
   337-0-0/w PTR         r     1 @ID3$                    340-0-0/w PTR         r     1 @ID3$
   337-0-0/w PTR         r     1 @ID3$                    340-0-0/w PTR         r     1 @ID3$
   337-0-0/w PTR         r     1 @ID4$                    337-0-0/w PTR         r     1 @ID4$
     4-0-0/w PTR         r     1 @INTO$                   341-0-0/w PTR         r     1 @LENGTH
     7-0-0/w PTR         r     1 @NOT_ON_OVERFLOW$        342-0-0/w PTR         r     1 @OFFSET
     6-0-0/w PTR         r     1 @ON_OVERFLOW$              5-0-0/w PTR         r     1 @POINTER$
   340-0-0/w PTR         r     1 @RETURN$                 340-0-0/w PTR         r     1 @RETURN$
   340-0-0/w PTR         r     1 @RETURN$                 341-0-0/w PTR         r     1 @RETURN$
     3-0-0/w PTR         r     1 @STRING_LIST$            224-0-0/d STRC(288)   r     1 ADD
   315-0-0/w PTR         r     1 ADD$                     340-0-0/w PTR         r     1 BEGAIN_INDEX$
   362-0-0/d STRC(288)   r     1 COMPARISON               307-0-0/w PTR         r     1 COMPARISON$
   425-0-0/w PTR         r     1 COMPARISON$              342-0-0/d STRC(288)         1 COUNT
    *0-0-0/w PTR         r     1 COUNT$                   422-0-0/w PTR               1 COUNT_BASE$
   331-0-0/w SBIN        r     1 CURRENT_OFFSET           300-0-0/w PTR               1 DELIMITER$
   341-0-0/w PTR         r     1 END_INDEX$               305-0-0/w PTR         r     1 END_STRING$
   341-0-0/w PTR         r     1 ETT$$                    345-0-0/w SBIN        r     1 FISS_LENGTH
    *0-0-0/w PTR         r     1 ID$                       44-0-0/d STRC(288)   r     1 ID1
   270-0-0/w PTR         r     1 ID1$                      *0-0-0/w PTR         r     1 ID1$
    *0-0-0/w PTR         r     1 ID1$                      *0-0-0/w PTR         r     1 ID1$
   333-0-0/w SBIN        r     1 ID1_COUNT                334-0-0/w SBIN        r     1 ID1_MAX
    54-0-0/d STRC(288)   r     1 ID2                      271-0-0/w PTR         r     1 ID2$
    *0-0-0/w PTR         r     1 ID2$                      *0-0-0/w PTR         r     1 ID2$
    64-0-0/d STRC(288)   r     1 ID3                      272-0-0/w PTR         r     1 ID3$
    *0-0-0/w PTR         r     1 ID3$                      *0-0-0/w PTR         r     1 ID3$
    *0-0-0/w PTR         r     1 ID3$                      *0-0-0/w PTR         r     1 ID3$
PL6.E3A0      #001=Z8EZ$STRING File=Z8EZ.:Z8A6TSI                                SAT 08/09/97 12:59 Page:152
    *0-0-0/w PTR         r     1 ID3$                     343-0-0/w SBIN        r     1 ID3_LEN
   332-0-0/w SBIN        r     1 ID3_LENGTH               274-0-0/w PTR         r     1 ID3_ST$
    74-0-0/d STRC(288)   r     1 ID4                      273-0-0/w PTR         r     1 ID4$
    *0-0-0/w PTR         r     1 ID4$                      *0-0-0/w PTR         r     1 ID4$
   342-0-0/w SBIN        r     1 ID4_MAX                   23-0-0/w PTR         r     1 IDENTS$
   301-0-0/w PTR               1 IDENTS_TAIL$             321-0-0/w PTR         r     1 INDEX$
   214-0-0/d STRC(288)   r     1 INDEX_EXPR               322-0-0/w PTR         r     1 INDEX_EXPR$
   204-0-0/d STRC(288)   r     1 INDX                      *0-0-0/w PTR         r     1 INTO$
   306-0-0/w PTR               1 INTO_LENGTH$             234-0-0/d STRC(288)   r     1 KANJI_LX_ETT
   310-0-0/w PTR         r     1 KANJI_LX_ETT$             10-0-0/w PTR               1 KEYWORD$
    *0-0-0/w SBIN        r     1 LENGTH                   104-0-0/d STRC(288)   r     1 LENGTH_ID1
   372-0-0/d STRC(288)   r     1 LENGTH_ID1               275-0-0/w PTR         r     1 LENGTH_ID1$
   426-0-0/w PTR         r     1 LENGTH_ID1$              114-0-0/d STRC(288)   r     1 LENGTH_ID2
   402-0-0/d STRC(288)   r     1 LENGTH_ID2               276-0-0/w PTR         r     1 LENGTH_ID2$
   427-0-0/w PTR         r     1 LENGTH_ID2$              124-0-0/d STRC(288)   r     1 LENGTH_ID3
   277-0-0/w PTR         r     1 LENGTH_ID3$              164-0-0/d STRC(288)   r     1 LENGTH_ID3_P1
   316-0-0/w PTR         r     1 LENGTH_ID3_P1$           317-0-0/w PTR         r     1 MINIMUM$
   174-0-0/d STRC(288)   r     1 MINIMUM_                  11-0-0/w STRC(324)         1 NAME
    *0-0-0/w PTR         r     1 NOT_ON_OVERFLOW$         304-0-0/w PTR         r     1 NO_OVERFLOW$
    *0-0-0/w SBIN        r     1 OFFSET                   134-0-0/d STRC(288)   r     1 ONE
   313-0-0/w PTR         r     1 ONE$                      *0-0-0/w PTR         r     1 ON_OVERFLOW$
   335-0-0/w SBIN        r     1 OP                       330-0-0/b BIT         r     1 OPTIMIZABLE
   344-0-0/w PTR         r     1 ORIGINAL_ID3_ETT$        326-0-0/b BIT         r     1 OVERFLOW
   303-0-0/w PTR         r     1 OVERFLOW$                244-0-0/d STRC(288)   r     1 PLUS_ONE
   312-0-0/w PTR         r     1 PLUS_ONE$                325-0-0/b BIT         r     1 POINTER
    *0-0-0/w PTR         r     1 POINTER$                 254-0-0/d STRC(288)   r     1 POINTER_TIMES2
   311-0-0/w PTR         r     1 POINTER_TIMES2$           34-0-0/d STRC(288)   r     1 RECEIVING
   320-0-0/w PTR         r     1 RECEIVING$               154-0-0/d STRC(288)   r     1 REMAINDER
   323-0-0/w PTR         r     1 REMAINDER$               343-0-0/w PTR         r     1 RESULT$
    *0-0-0/w PTR         r     1 RETURN$                   *0-0-0/w PTR         r     1 RETURN$
    *0-0-0/w PTR         r     1 RETURN$                   *0-0-0/w PTR         r     1 RETURN$
    24-0-0/d STRC(288)         1 SENDING                  327-0-0/b BIT         r     1 SIZE
   340-0-0/w PTR         r     1 ST$$                      22-0-0/w PTR         r     1 STRINGS$
   302-0-0/w PTR               1 STRINGS_TAIL$             *0-0-0/w PTR         r     1 STRING_LIST$
   352-0-0/d STRC(288)   r     1 SUB                      424-0-0/w PTR         r     1 SUB$
   423-0-0/w PTR         r     1 SUBSTR$                  412-0-0/d STRC(288)   r     1 SUB_STR
   324-0-0/w PTR         r     1 TABLE_ETT$               144-0-0/d STRC(288)   r     1 TWO
PL6.E3A0      #001=Z8EZ$STRING File=Z8EZ.:Z8A6TSI                                SAT 08/09/97 12:59 Page:153
   314-0-0/w PTR         r     1 TWO$                     264-0-0/w STRC(144)   r     1 TYPE_DESC

  ****  SYMREF variables  ****

  ****  Scalars and arrays  ****
OctLoc.c.b A Datatyp(siz) R M Lvl/name                 OctLoc.c.b A Datatyp(siz) R M Lvl/name

     0-0-0/d STRC(13248) r     1 COMCOM
     0-0-0/w STRC(180)         1 HIER_STK(0:50)
     0-0-0/w SBIN              1 HIER_STK_PTR               0-0-0/w UBIN              1 ILL_STEP(0:144)
     0-0-0/w UBIN              1 ILS_STEP_TABLE(0:2)
     0-0-0/d STRC(11580) r     1 O1COM                      0-0-0/w STRC(144)         1 PAGE_FORMAT
     0-0-0/w STRC(153)         1 REP_STK(0:50)              0-0-0/w SBIN              1 REP_STK_PTR

  ****  BASED and DCB variables  ****

  ****  Scalars and arrays  ****
OctLoc.c.b A Datatyp(siz) R M Lvl/name                 OctLoc.c.b A Datatyp(siz) R M Lvl/name

     0-0-0/w STRC(108)         1 ACCEPT_DISPLAY             0-0-0/w STRC(288)         1 ADD_STMT
     0-0-0/w STRC(396)         1 ALPHABET                   0-0-0/w STRC(396)         1 ARRAY
     0-0-0/w ASTR(324)   r     1 BASED_LEX_SYMBOL
     0-0-0/w STRC(360)         1 BASED_LEX_SYMBOL_WORDS
     0-0-0/w STRC(108)   r     1 BINARY_ILL                 0-0-0/w STRC(288)   r     1 BINARY_OP
     0-0-0/w STRC(396)         1 BLOCK                      0-0-0/w STRC(144)         1 BRANCH_ILL
     0-0-0/w STRC(288)         1 CALL_STMT                  0-0-0/w STRC(216)         1 CCOSU
     0-0-0/w STRC(396)         1 CD                         0-0-0/w CHAR(4096)        1 CHARS
     0-0-0/w STRC(396)         1 CLASS                      0-0-0/w STRC(108)         1 CODED_MOVE
     0-0-0/w STRC(288)         1 COMPUTE_STMT               0-0-0/w STRC(396)         1 CONDITION
     0-0-0/w STRC(396)   r     1 CONST                      0-0-0/w STRC(72)          1 CONT
     0-0-0/w STRC(396)         1 DB                         0-0-0/w STRC(396)         1 DCB_
     0-0-0/w STRC(288)         1 DEFERED_IDENTIFIER         0-0-0/w STRC(252)         1 DEFERED_ID_TREE
     0-0-0/w STRC(288)         1 DEFERED_QUAL_ID            0-0-0/w STRC(288)         1 DEFERED_SUM_CLAUSE
     0-0-0/w STRC(288)         1 DEFERED_SUM_CLAUSE_LIST
     0-0-0/w STRC(144)         1 DEFLB                      0-0-0/w STRC(288)         1 DELETE_STMT
     0-0-0/w STRC(288)         1 DIVIDE_STMT                0-0-0/w STRC(396)         1 DML_ITEM
     0-0-0/w STRC(144)         1 DOEND                      0-0-0/w STRC(396)         1 DO_N
PL6.E3A0      #001=Z8EZ$STRING File=Z8EZ.:Z8A6TSI                                SAT 08/09/97 12:59 Page:154
     0-0-0/w STRC(180)         1 DV4I                       0-0-0/w STRC(180)         1 ENTRY_ILL
     0-0-0/w STRC(180)   r     1 ETT                        0-0-0/w STRC(108)         1 EVALU
     0-0-0/w STRC(396)         1 FD                         0-0-0/w STRC(144)         1 GO
     0-0-0/w STRC(180)         1 ILL                        0-0-0/w STRC              1 ILL_NO_OPS
     0-0-0/w STRC(180)   r     1 ILS                        0-0-0/w STRC(288)   r     1 ILS_LIST
     0-0-0/w STRC(288)         1 INSPECT_1_STMT             0-0-0/w STRC(288)         1 INSPECT_2_STMT
     0-0-0/w STRC(288)         1 INSPECT_4_STMT             0-0-0/w STRC(396)         1 INTDEF
     0-0-0/w STRC(396)         1 LABEL                      0-0-0/w STRC(288)         1 LA_ITEM
     0-0-0/w STRC(108)         1 LINOI                      0-0-0/w STRC(504)         1 LX_CD_INPUT
     0-0-0/w STRC(324)         1 LX_CD_I_O                  0-0-0/w STRC(396)         1 LX_CD_OUTPUT
     0-0-0/w STRC(288)   r     1 LX_ETT_ITEM                0-0-0/w STRC(288)   r     1 LX_ITEM
     0-0-0/w STRC(288)         1 LX_LARGE                   0-0-0/w STRC(288)   r     1 LX_LIST
     0-0-0/w STRC(1224)        1 LX_REC_DECL                0-0-0/w STRC(864)         1 LX_REPORT_REC
     0-0-0/w STRC(288)   r     1 LX_TERMINAL                0-0-0/w STRC(72)          1 MFILL
     0-0-0/w STRC(396)         1 MNEMONIC                   0-0-0/w STRC(288)         1 MULTIPLY_STMT
     0-0-0/w STRC(180)         1 MULTI_GO                   0-0-0/w STRC(180)         1 MVEAL
     0-0-0/w STRC(108)         1 MVFIL                      0-0-0/w STRC(72)          1 MVIIS
     0-0-0/w STRC(144)         1 OPN                        0-0-0/w STRC(180)         1 OS_CALL
     0-0-0/w STRC(36864)       1 PAGE                       0-0-0/w STRC(396)         1 PARA
     0-0-0/w STRC(216)         1 PFORM                      0-0-0/w STRC(144)         1 PINC
     0-0-0/w STRC(144)         1 PREOFF                     0-0-0/w STRC(108)         1 PRESET
     0-0-0/w STRC(396)         1 PROC_                      0-0-0/w STRC(396)         1 PROC_DEF
     0-0-0/w STRC(144)         1 P_A_PRESET                 0-0-0/w STRC(144)         1 P_P_PRESET
     0-0-0/w STRC(396)         1 RD                         0-0-0/w STRC(288)         1 READ_STMT
     0-0-0/w STRC(144)         1 REMEM                      0-0-0/w STRC(288)         1 REWRITE_STMT
     0-0-0/w STRC(396)   r     1 SCALAR                     0-0-0/w STRC(144)         1 SCOPE
     0-0-0/w STRC(396)         1 SD                         0-0-0/w STRC(216)         1 SEARCH_
     0-0-0/w STRC(396)         1 SECTION                    0-0-0/w STRC(396)         1 SEGMENT
     0-0-0/w STRC(396)         1 ST                         0-0-0/w STRC(288)         1 START_STMT
     0-0-0/w STRC(72)          1 STP2                       0-0-0/w STRC(252)         1 STRING_STMT
     0-0-0/w STRC(288)         1 SUBTRACT_STMT              0-0-0/w STRC(396)         1 SWITCH
     0-0-0/w STRC(396)         1 SYMBOLIC_CHAR              0-0-0/w STRC(396)         1 SYMDEF_
     0-0-0/w STRC(396)         1 SYMREF_                    0-0-0/w STRC(396)         1 TEMP
     0-0-0/w STRC(144)         1 TRINARY_ILL                0-0-0/w STRC(72)    r     1 UNARY_ILL
     0-0-0/w STRC(288)         1 UNARY_OP                   0-0-0/w STRC(288)         1 UNSTRING_STMT
     0-0-0/w STRC(216)         1 USER_CALL                  0-0-0/w STRC(108)         1 VAL
     0-0-0/w STRC(108)         1 VAL_END                    0-0-0/w STRC(396)   r     1 VARIABLE
PL6.E3A0      #001=Z8EZ$STRING File=Z8EZ.:Z8A6TSI                                SAT 08/09/97 12:59 Page:155
     0-0-0/w STRC(72)          1 WHEN                       0-0-0/w STRC(288)         1 WRITE_STMT


   Procedure Z8EZ$STRING requires 1772 words for executable code.
   Procedure Z8EZ$STRING requires 286 words of local(AUTO) storage.

