VERSION A06

PL6.E3A0      #001=Z8F2$PHASE2 File=Z8F2.:Z8A6TSI                                SAT 08/09/97 13:01 Page:1
        1        1        /*M*  Z8F2$PHASE2  This procedure is the controller for PHASE-2.  */
        2        2        /*T***********************************************************/
        3        3        /*T*                                                         */
        4        4        /*T* Copyright (c) Bull HN Information Systems Inc., 1997    */
        5        5        /*T*                                                         */
        6        6        /*T***********************************************************/
        7        7
        8        8        /*P*
        9        9               NAME:  Z8F2$PHASE2
       10       10             AUTHOR:  Greg Myers
       11       11            PURPOSE:  This procedure acts as an exec and call the various phase 2
       12       12                      functions.  These are storage allocation, reference resolution,
       13       13                      flow analysis, and local optimization.
       14       14        */
       15       15
       16       16
       17       17        /*D*
       18       18               NAME:  Z8F2$PHASE2
       19       19               CALL:  CALL Z8F2$PHASE2;
       20       20          INTERFACE:  This procedure calls six procedures:
       21       21                           Z8FB$PHASE2_PREPASS
       22       22                           Z8FA$STORAGE_ALLOCATOR
       23       23                           Z8FJ$SEGMENT_SUBS
       24       24                           Z8FL$LABEL_REFERENCE
       25       25                           Z8FF$FLOW_ANALYSIS
       26       26                           Z8FO$LOCAL_OPTIMIZER
       27       27
       28       28        DESCRIPTION:  This procedure acts as a executive for Phase 2.
       29       29                      It performs initialization for error messages and calls the
       30       30                      procedures needed for storage allocation and flow analysis.
       31       31        */
       32       32        %EJECT ;
PL6.E3A0      #001=Z8F2$PHASE2 File=Z8F2.:Z8A6TSI                                SAT 08/09/97 13:01 Page:2
       33       33        Z8F2$PHASE2: PROC NOAUTO ; /* Storage Allocation & Flow Analysis */
       34       34        %EQU PHASE = 2 ;
       35       35        %INCLUDE Z8A_DEFC ;
       36      103        %INCLUDE Z8A_SUPP_MAC ;
       37     2503        %INCLUDE Z8A_COMCOM ;
       38     3153        %INCLUDE Z8F_O2COM ;
       39     3263
       40     3264    1   DCL   Z8FB$PHASE2_PREPASS    ENTRY ;
       41     3265    1   DCL   Z8FA$STORAGE_ALLOCATOR ENTRY ;
       42     3266    1   DCL   Z8FJ$SEGMENT_SUBS      ENTRY;
       43     3267    1   DCL   Z8FL$LABEL_REFERENCE  ENTRY ;
       44     3268    1   DCL   Z8FF$FLOW_ANALYSIS     ENTRY ;
       45     3269    1   DCL   Z8FD$DOCUMENT          ENTRY ;
       46     3270    1   DCL   Z8FO$LOCAL_OPTIMIZER   ENTRY;
       47     3271    1   DCL   DUMMY EPTR STATIC INIT (ENTADDR(Z8FD$DOCUMENT)) ;
              3271            /* Dummy variable to get Z8FD in link */
       48     3272
       49     3273    1          CALL Z8FB$PHASE2_PREPASS ; /* Pre-scan of the ILS/ILL */
       50     3274
       51     3275    1          COMCOM.CURRENT.COLUMN = 0 ;
       52     3276    1          IF COMCOM.H_BRANCH ~= ADDR(NIL) OR
       53     3277    1             COMCOM.USE_PROC_CHAIN$ ~= ADDR(NIL) THEN
       54     3278    2            DO;
       55     3279    2              CALL Z8FL$LABEL_REFERENCE ;
       56     3280
       57     3281    2              CALL Z8FJ$SEGMENT_SUBS;
       58     3282    2            END;
       59     3283
       60     3284    1          CALL Z8FF$FLOW_ANALYSIS ;
       61     3285
       62     3286    1          CALL Z8FA$STORAGE_ALLOCATOR ;
       63     3287
       64     3288
       65     3289    1          CALL Z8FO$LOCAL_OPTIMIZER;
       66     3290    1   END Z8F2$PHASE2 ;

PL6.E3A0      #001=Z8F2$PHASE2 File=Z8F2.:Z8A6TSI                                SAT 08/09/97 13:01 Page:3
--  Include file information  --

   Z8F_O2COM.:Z8A6TOU  cannot be made into a system file and is referenced.
   Z8A_COMCOM.:Z8A6TOU  cannot be made into a system file and is referenced.
   X8A_COM_MACS.:X8A6TOU  is referenced.
   Z8A_NAMES.:Z8A6TOU  is referenced.
   Z8A_SUPP_MAC.:Z8A6TOU  is referenced.
   Z8A_DEFC.:Z8A6TOU  cannot be made into a system file and is referenced.
      No diagnostics issued in procedure Z8F2$PHASE2.

   Procedure Z8F2$PHASE2 requires 28 words for executable code.
   Procedure Z8F2$PHASE2 is declared NOAUTO and requires 2 words of local(STATIC) storage.

    No errors detected in file Z8F2.:Z8A6TSI    .

PL6.E3A0      #001=Z8F2$PHASE2 File=Z8F2.:Z8A6TSI                                SAT 08/09/97 13:01 Page:4

 Object Unit name= Z8F2$PHASE2                                File name= Z8F2.:Z8A6TOU
 UTS= AUG 09 '97 13:01:42.72 SAT                              Compiler= PL-6/E31         Sev=      00
 SharedLib= :SHARED_SYSTEM                                    Alt SharedLib=


    ****  Control sections  ****

 Sect   Type Bound  Init  Size OctSiz  Section name(segment info)
    0   Data  even  none     2      2  Z8F2$PHASE2
    1  LblCom even  none     1      1  ITERATION
    2  LblCom even  none    12     14  O2COM
    3   Proc  even  none    28     34  Z8F2$PHASE2
    4  RoData even  none     2      2  Z8F2$PHASE2

    ****  Entry defs  ****

                              Check   Calling
                             calling  sequence
  Sect OctLoc Primary Altret sequence   type   Parms  Name
     3      0   yes            yes      Std        0  Z8F2$PHASE2

  ****  Entry refs  ****

         Check        Calling
        calling       sequence
Altret sequence SRef   type   Args  Name
         yes           Std       0 Z8FD$DOCUMENT
         yes           Std       0 Z8FB$PHASE2_PREPASS
         yes           Std       0 Z8FJ$SEGMENT_SUBS
         yes           Std       0 Z8FO$LOCAL_OPTIMIZER
         yes           Std       0 Z8FA$STORAGE_ALLOCATOR
         yes           Std       0 Z8FL$LABEL_REFERENCE
         yes           Std       0 Z8FF$FLOW_ANALYSIS
PL6.E3A0      #001=Z8F2$PHASE2 File=Z8F2.:Z8A6TSI                                SAT 08/09/97 13:01 Page:5

  ****  Data refs  ****

  Flags:  r = read only, s = secondary
Flgs Name                             Flgs Name                             Flgs Name
     COMCOM

  ****  Segment refs  ****

  Flags:  r = read only, s = secondary
Flgs Name                             Flgs Name                             Flgs Name
     NULLSID
PL6.E3A0      #001=Z8F2$PHASE2 File=Z8F2.:Z8A6TSI                                SAT 08/09/97 13:01 Page:6


        1        1        /*M*  Z8F2$PHASE2  This procedure is the controller for PHASE-2.  */
        2        2        /*T***********************************************************/
        3        3        /*T*                                                         */
        4        4        /*T* Copyright (c) Bull HN Information Systems Inc., 1997    */
        5        5        /*T*                                                         */
        6        6        /*T***********************************************************/
        7        7
        8        8        /*P*
        9        9               NAME:  Z8F2$PHASE2
       10       10             AUTHOR:  Greg Myers
       11       11            PURPOSE:  This procedure acts as an exec and call the various phase 2
       12       12                      functions.  These are storage allocation, reference resolution,
       13       13                      flow analysis, and local optimization.
       14       14        */
       15       15
       16       16
       17       17        /*D*
       18       18               NAME:  Z8F2$PHASE2
       19       19               CALL:  CALL Z8F2$PHASE2;
       20       20          INTERFACE:  This procedure calls six procedures:
       21       21                           Z8FB$PHASE2_PREPASS
       22       22                           Z8FA$STORAGE_ALLOCATOR
       23       23                           Z8FJ$SEGMENT_SUBS
       24       24                           Z8FL$LABEL_REFERENCE
       25       25                           Z8FF$FLOW_ANALYSIS
       26       26                           Z8FO$LOCAL_OPTIMIZER
       27       27
       28       28        DESCRIPTION:  This procedure acts as a executive for Phase 2.
       29       29                      It performs initialization for error messages and calls the
       30       30                      procedures needed for storage allocation and flow analysis.
       31       31        */
       32       32        %EJECT ;
PL6.E3A0      #001=Z8F2$PHASE2 File=Z8F2.:Z8A6TSI                                SAT 08/09/97 13:01 Page:7
       33       33        Z8F2$PHASE2: PROC NOAUTO ; /* Storage Allocation & Flow Analysis */

     33  3 000000   000000 741200 0     Z8F2$PHASE2  STX1  ! 0

       34       34        %EQU PHASE = 2 ;
       35       35        %INCLUDE Z8A_DEFC ;
       36      103        %INCLUDE Z8A_SUPP_MAC ;
       37     2503        %INCLUDE Z8A_COMCOM ;
       38     3153        %INCLUDE Z8F_O2COM ;
       39     3263
       40     3264    1   DCL   Z8FB$PHASE2_PREPASS    ENTRY ;
       41     3265    1   DCL   Z8FA$STORAGE_ALLOCATOR ENTRY ;
       42     3266    1   DCL   Z8FJ$SEGMENT_SUBS      ENTRY;
       43     3267    1   DCL   Z8FL$LABEL_REFERENCE  ENTRY ;
       44     3268    1   DCL   Z8FF$FLOW_ANALYSIS     ENTRY ;
       45     3269    1   DCL   Z8FD$DOCUMENT          ENTRY ;
       46     3270    1   DCL   Z8FO$LOCAL_OPTIMIZER   ENTRY;
       47     3271    1   DCL   DUMMY EPTR STATIC INIT (ENTADDR(Z8FD$DOCUMENT)) ;
              3271            /* Dummy variable to get Z8FD in link */
       48     3272
       49     3273    1          CALL Z8FB$PHASE2_PREPASS ; /* Pre-scan of the ILS/ILL */

   3273  3 000001   000000 631400 4                  EPPR1   0
         3 000002   000000 701000 xent               TSX1    Z8FB$PHASE2_PREPASS
         3 000003   000000 011000                    NOP     0

       50     3274
       51     3275    1          COMCOM.CURRENT.COLUMN = 0 ;

   3275  3 000004   000134 450000 xsym               STZ     COMCOM+92

       52     3276    1          IF COMCOM.H_BRANCH ~= ADDR(NIL) OR

   3276  3 000005   000333 236000 xsym               LDQ     COMCOM+219
         3 000006   000001 116000 4                  CMPQ    1
         3 000007   000013 601000 3                  TNZ     s:3279
         3 000010   000476 236000 xsym               LDQ     COMCOM+318
PL6.E3A0      #001=Z8F2$PHASE2 File=Z8F2.:Z8A6TSI                                SAT 08/09/97 13:01 Page:8
         3 000011   000001 116000 4                  CMPQ    1
         3 000012   000021 600000 3                  TZE     s:3284

       53     3277    1             COMCOM.USE_PROC_CHAIN$ ~= ADDR(NIL) THEN
       54     3278    2            DO;

       55     3279    2              CALL Z8FL$LABEL_REFERENCE ;

   3279  3 000013   000000 631400 4                  EPPR1   0
         3 000014   000000 701000 xent               TSX1    Z8FL$LABEL_REFERENCE
         3 000015   000000 011000                    NOP     0

       56     3280
       57     3281    2              CALL Z8FJ$SEGMENT_SUBS;

   3281  3 000016   000000 631400 4                  EPPR1   0
         3 000017   000000 701000 xent               TSX1    Z8FJ$SEGMENT_SUBS
         3 000020   000000 011000                    NOP     0

       58     3282    2            END;

       59     3283
       60     3284    1          CALL Z8FF$FLOW_ANALYSIS ;

   3284  3 000021   000000 631400 4                  EPPR1   0
         3 000022   000000 701000 xent               TSX1    Z8FF$FLOW_ANALYSIS
         3 000023   000000 011000                    NOP     0

       61     3285
       62     3286    1          CALL Z8FA$STORAGE_ALLOCATOR ;

   3286  3 000024   000000 631400 4                  EPPR1   0
         3 000025   000000 701000 xent               TSX1    Z8FA$STORAGE_ALLOCATOR
         3 000026   000000 011000                    NOP     0

       63     3287
       64     3288
PL6.E3A0      #001=Z8F2$PHASE2 File=Z8F2.:Z8A6TSI                                SAT 08/09/97 13:01 Page:9
       65     3289    1          CALL Z8FO$LOCAL_OPTIMIZER;

   3289  3 000027   000000 631400 4                  EPPR1   0
         3 000030   000000 701000 xent               TSX1    Z8FO$LOCAL_OPTIMIZER
         3 000031   000000 011000                    NOP     0

       66     3290    1   END Z8F2$PHASE2 ;

   3290  3 000032   000000 221200 0                  LDX1  ! 0
         3 000033   000001 702211                    TSX2  ! 1,X1

PL6.E3A0      #001=Z8F2$PHASE2 File=Z8F2.:Z8A6TSI                                SAT 08/09/97 13:01 Page:10
--  Include file information  --

   Z8F_O2COM.:Z8A6TOU  cannot be made into a system file and is referenced.
   Z8A_COMCOM.:Z8A6TOU  cannot be made into a system file and is referenced.
   X8A_COM_MACS.:X8A6TOU  is referenced.
   Z8A_NAMES.:Z8A6TOU  is referenced.
   Z8A_SUPP_MAC.:Z8A6TOU  is referenced.
   Z8A_DEFC.:Z8A6TOU  cannot be made into a system file and is referenced.
      No diagnostics issued in procedure Z8F2$PHASE2.
PL6.E3A0      #001=Z8F2$PHASE2 File=Z8F2.:Z8A6TSI                                SAT 08/09/97 13:01 Page:11

 **** Variables and constants ****

  ****  Section 000  Data  Z8F2$PHASE2

  ****  Scalars and arrays  ****
OctLoc.c.b A Datatyp(siz) R M Lvl/name                 OctLoc.c.b A Datatyp(siz) R M Lvl/name

     1-0-0/w EPTR        r     1 DUMMY

  ****  Section 001 LblCom ITERATION

  ****  Scalars and arrays  ****
OctLoc.c.b A Datatyp(siz) R M Lvl/name                 OctLoc.c.b A Datatyp(siz) R M Lvl/name

     0-0-0/w SBIN              1 ITERATION

  ****  Section 002 LblCom O2COM

  ****  Scalars and arrays  ****
OctLoc.c.b A Datatyp(siz) R M Lvl/name                 OctLoc.c.b A Datatyp(siz) R M Lvl/name

     0-0-0/w STRC(432)         1 O2COM

  ****  SYMREF variables  ****

  ****  Scalars and arrays  ****
OctLoc.c.b A Datatyp(siz) R M Lvl/name                 OctLoc.c.b A Datatyp(siz) R M Lvl/name

     0-0-0/d STRC(13248) r     1 COMCOM

  ****  BASED and DCB variables  ****

  ****  Scalars and arrays  ****
OctLoc.c.b A Datatyp(siz) R M Lvl/name                 OctLoc.c.b A Datatyp(siz) R M Lvl/name

     0-0-0/w CHAR(4096)        1 CHARS                      0-0-0/w STRC(72)          1 CONT
     0-0-0/w STRC(36864)       1 PAGE
PL6.E3A0      #001=Z8F2$PHASE2 File=Z8F2.:Z8A6TSI                                SAT 08/09/97 13:01 Page:12


   Procedure Z8F2$PHASE2 requires 28 words for executable code.
   Procedure Z8F2$PHASE2 is declared NOAUTO and requires 2 words of local(STATIC) storage.

    No errors detected in file Z8F2.:Z8A6TSI    .
