VERSION A06

PL6.E3A0      #001=Z8FB$PHASE2_PREPASS File=Z8FB.:Z8A6TSI                        SAT 08/09/97 13:02 Page:1
        1        1        /*M*  Z8FB$PHASE2_PREPASS -- Pre-scan the ILS/ILL */
        2        2        /*T***********************************************************/
        3        3        /*T*                                                         */
        4        4        /*T* Copyright (c) Bull HN Information Systems Inc., 1997    */
        5        5        /*T*                                                         */
        6        6        /*T***********************************************************/
        7        7
        8        8
        9        9        /*P*
       10       10               NAME:  Z8FB$PHASE2_PREPASS
       11       11             AUTHOR:  John Heath
       12       12            PURPOSE:  This procedure makes a pass over the ILS/ILL to
       13       13                      fill in various sublists and bits needed by the
       14       14                      rest of Phase 2.
       15       15        */
       16       16
       17       17        /*D*
       18       18               NAME:  Z8FB$PHASE2_PREPASS
       19       19               CALL:  CALL Z8FB$PHASE2_PREPASS ;
       20       20          INTERFACE:  None.
       21       21
       22       22        DESCRIPTION:  This procedure creates the BRANCH sublist, the
       23       23                      LBL (label) sublist, the DO (in-line PERFORM)
       24       24                      sublist; sets the FALL_THRU bit in the symbol
       25       25                      table items for labels; and sets the PREV_LINE
       26       26                      and PREV_COL fields in the LINOI ILL item.
       27       27
       28       28        */
       29       29
       30       30        %EJECT;
PL6.E3A0      #001=Z8FB$PHASE2_PREPASS File=Z8FB.:Z8A6TSI                        SAT 08/09/97 13:02 Page:2
       31       31        Z8FB$PHASE2_PREPASS: PROC ;
       32       32
       33       33        %EQU PHASE = 2 ;
       34       34        %INCLUDE Z8A_DEFC ;
       35      102        %INCLUDE Z8A_SUPP_MAC ;
       36     2502        %INCLUDE Z8A_COMCOM ;
       37     3152        %INCLUDE Z8A_ILS ;
       38     3261        %INCLUDE Z8A_ILL ;
       39     3954        %INCLUDE Z8A_LIBRARY ;
       40     4168        %INCLUDE Z8A_LTS ;
       41     6245        %INCLUDE Z8A_ST  ;
       42     9904        %INCLUDE Z8F_O2COM ;
       43    10014
       44    10015        %EQU MAX_VAL_LEVEL=2;
       45    10016    1   DCL T_LBL      PTR ; /* Tail of Label list */
       46    10017    1   DCL T_BRANCH   PTR ; /* Tail of Branch list */
       47    10018    1   DCL T_DO       PTR ; /* Tail of Do list */
       48    10019    1   DCL VAL_LEVEL  SBIN STATIC INIT (0) ; /* Nesting level of VAL items */
       49    10020    1   DCL VAL_BEGIN$ (0:%MAX_VAL_LEVEL) PTR STATIC INIT (ADDR (NIL) * 0) ;
       50    10021                       /* PTR to ILS for VAL at this nesting level */
       51    10022    1   DCL PREV_ILS$  PTR ; /* Last non-LINOI ILS item */
       52    10023    1   DCL PREV_ILL$  PTR ; /* Last non-LINOI ILL item */
       53    10024    1   DCL PREV_LINOI_ILS$ PTR ; /* Previous LINOI's ILS item */
       54    10025    1   DCL PREV_LINE  UBIN WORD ;
       55    10026    1   DCL PREV_COL   UBIN WORD ;
       56    10027    1   DCL LAST_SCOPE$ PTR ;
       57    10028    1   DCL ENTRY_TYPE UBIN;
       58    10029    1   DCL TEMP$      PTR ;
       59    10030        %INCLUDE Z8A_ERR_NUMS ;
       60    10794
       61    10795    1   DCL Z8AE$ERROR ENTRY (12) ;
       62    10796
       63    10797        %EJECT;
PL6.E3A0      #001=Z8FB$PHASE2_PREPASS File=Z8FB.:Z8A6TSI                        SAT 08/09/97 13:02 Page:3
       64    10798    1          LAST_SCOPE$ = ADDR (NIL) ;
       65    10799    1          PREV_ILS$ = ADDR (NIL) ;
       66    10800    1          PREV_ILL$ = ADDR (NIL) ;
       67    10801    1          PREV_LINOI_ILS$ = ADDR (NIL) ;
       68    10802    1          COMCOM.H_ENTRY$ = ADDR (NIL) ;
       69    10803    1          COMCOM.INT_SUB$ = ADDR (NIL) ;
       70    10804    1          PREV_LINE = 0 ;
       71    10805    1          PREV_COL  = 0 ;
       72    10806    1          ENTRY_TYPE = %SUBROUTINE ;
       73    10807    1          ILS$ = COMCOM.FIRST_ILS ;
       74    10808
       75    10809    2          DO WHILE (ILS$ ~= ADDR(NIL)) ;
       76    10810
       77    10811    2            ILL$ = ILS$ -> ILS.ILL$ ;
       78    10812
       79    10813    3            DO WHILE (ILL$ = ADDR(NIL)) ;
       80    10814                   %NEXT_ILS ;
       81    10819    3              ILL$ = ILS$ -> ILS.ILL$ ;
       82    10820    3            END ;
       83    10821
       84    10822    3            IF ILL$->ILL.ID = %DEFLB THEN DO ;
       85    10823
       86    10824                   /* Label List */
       87    10825
       88    10826    3              IF COMCOM.H_LBL = ADDR(NIL)
       89    10827    3              THEN COMCOM.H_LBL = ILS$ ;
       90    10828    3              ELSE T_LBL->DEFLB.LBL = ILS$ ;
       91    10829
       92    10830    3              T_LBL = ILL$ ;
       93    10831    3              ILL$->DEFLB.LBL = ADDR(NIL) ;
       94    10832
       95    10833                   /* Set Previous ILS field in PARA item */
       96    10834
       97    10835    3              ILL$->DEFLB.LOP->LABEL.PREV_ILS$ = PREV_ILS$ ;
       98    10836
       99    10837                   /* Set FALL_THRU bit */
      100    10838
PL6.E3A0      #001=Z8FB$PHASE2_PREPASS File=Z8FB.:Z8A6TSI                        SAT 08/09/97 13:02 Page:4
      101    10839    4              IF PREV_ILL$ ~= ADDR(NIL) THEN DO ;
      102    10840
      103    10841    5                DO CASE (PREV_ILL$ -> ILL.ID) ;
      104    10842
      105    10843    5                  CASE (%STOP, %USE_END) ;
      106    10844
      107    10845    5                    ILL$->DEFLB.LOP->LABEL.B.FALL_THRU = '0'B ;
      108    10846
      109    10847    5                  CASE (%EXIT_PROG) ;
      110    10848
      111    10849    5                    IF ENTRY_TYPE = %MAIN_PROGRAM AND NOT COMCOM.OB.TP8
      112    10850    5                      THEN ILL$->DEFLB.LOP->LABEL.B.FALL_THRU = '1'B ;
      113    10851                                /* This EXIT PROGRAM will be optimized out. */
      114    10852    5                      ELSE ILL$->DEFLB.LOP->LABEL.B.FALL_THRU = '0'B ;
      115    10853
      116    10854    5                  CASE (%GO) ;
      117    10855
      118    10856    5                    IF PREV_ILL$->GO.CODE = %GO_UNCONDITIONAL
      119    10857    5                    THEN ILL$->DEFLB.LOP->LABEL.B.FALL_THRU = '0'B ;
      120    10858    5                    ELSE ILL$->DEFLB.LOP->LABEL.B.FALL_THRU = '1'B ;
      121    10859
      122    10860    5                  CASE (ELSE) ;
      123    10861
      124    10862    5                    ILL$->DEFLB.LOP->LABEL.B.FALL_THRU = '1'B ;
      125    10863
      126    10864    5                END /* Case of ILL ID */ ;
      127    10865
      128    10866    4              END /* PREV_ILL$ <> Nil */ ;
      129    10867
      130    10868    3            END /* ILL ID = DEFLB */ ;
      131    10869
      132    10870        %EJECT;
PL6.E3A0      #001=Z8FB$PHASE2_PREPASS File=Z8FB.:Z8A6TSI                        SAT 08/09/97 13:02 Page:5
      133    10871                 /* BRANCH list, DO list, IF list, and line# actions */
      134    10872
      135    10873    3            DO CASE (ILL$ -> ILL.ID) ;
      136    10874
      137    10875                   /* BRANCH List */
      138    10876
      139    10877                   /* ENTRY -- Set up linked list */
      140    10878
      141    10879    3              CASE (%ENTRY) ;
      142    10880
      143    10881    3                IF ILL$->ENTRY_ILL.CODE ~= %SUBROUTINE_ENTRY
      144    10882    3                  THEN ENTRY_TYPE = ILL$->ENTRY_ILL.CODE ;
      145    10883
      146    10884    4                IF LAST_SCOPE$->SCOPE.PROC$->PROC_.PROC_DEF$->PROC_DEF.ID=%INTDEF THEN
             10884                         DO;
      147    10885    4                  ILL$->ENTRY_ILL.PREV_ENTRY_ILS$ = COMCOM.INT_SUB$ ;
      148    10886    4                  COMCOM.INT_SUB$ = ILS$ ;
      149    10887    4                END ;
      150    10888    4                ELSE DO ;
      151    10889    4                  ILL$->ENTRY_ILL.PREV_ENTRY_ILS$ = COMCOM.H_ENTRY$ ;
      152    10890    4                  COMCOM.H_ENTRY$ = ILS$ ;
      153    10891    4                END ;
      154    10892
      155    10893    3              CASE (%GO, %PFORM, %ALTER, %DEFLB ,%OS_CALL, %USER_CALL,
      156    10894    3                    %SCOPE, %REMEM, %MULTI_GO) ;
      157    10895
      158    10896    3                IF COMCOM.H_BRANCH = ADDR(NIL)
      159    10897    3                THEN COMCOM.H_BRANCH = ILS$ ;
      160    10898    3                ELSE T_BRANCH->DEFLB.BRANCH$ = ILS$ ;
      161    10899
      162    10900    3                T_BRANCH = ILL$ ;
      163    10901    3                ILL$->DEFLB.BRANCH$ = ADDR(NIL) ;
      164    10902
      165    10903    4                IF ILL$->ILL.ID = %SCOPE THEN DO ;
      166    10904    4                  IF LAST_SCOPE$ ~= ADDR (NIL) THEN
      167    10905    4                    LAST_SCOPE$->SCOPE.END_ILS$ = PREV_ILS$ ;
      168    10906    4                  LAST_SCOPE$ = ILL$ ;
PL6.E3A0      #001=Z8FB$PHASE2_PREPASS File=Z8FB.:Z8A6TSI                        SAT 08/09/97 13:02 Page:6
      169    10907    4                END ;
      170    10908
      171    10909                   /* END -- Set SCOPE.END_ILS$ */
      172    10910
      173    10911    3              CASE (%END) ;
      174    10912
      175    10913    3                LAST_SCOPE$->SCOPE.END_ILS$ = PREV_ILS$ ;
      176    10914
      177    10915                   /* DO lists, ITE/ITB (begin/end), ITP, and ITO (outer) */
      178    10916
      179    10917    3              CASE (%DOEND, %DO1, %DO2, %DO3, %DO4, %DO5/*, %DO6*/) ;
      180    10918
      181    10919                     /* ITE/ITB, ITO, and LEVEL */
      182    10920
      183    10921    4                IF ILL$->ILL.ID = %DOEND THEN DO ;
      184    10922
      185    10923    4                  ILL$->DO_N.ITB = O2COM.DO_BEGIN ;
      186    10924    4                  O2COM.DO_BEGIN->ILS.ILL$->DO_N.ITE = ILS$ ;
      187    10925    4                  O2COM.DO_LEVEL = O2COM.DO_LEVEL - 1 ;
      188    10926    4                  O2COM.DO_BEGIN = O2COM.DO_BEGIN -> ILS.ILL$ -> DO_N.ITO ;
      189    10927
      190    10928    4                END ;
      191    10929    4                ELSE DO ; /* DOn item */
      192    10930
      193    10931    4                  O2COM.DO_LEVEL = O2COM.DO_LEVEL + 1 ;
      194    10932    4                  ILL$->DO_N.LEVEL = O2COM.DO_LEVEL ;
      195    10933    4                  ILL$->DO_N.ITO = O2COM.DO_BEGIN ;
      196    10934    4                  O2COM.DO_BEGIN = ILS$ ;
      197    10935
      198    10936    4                END ;
      199    10937
      200    10938                     /* ITP */
      201    10939
      202    10940    3                IF COMCOM.H_DO = ADDR(NIL)
      203    10941    3                THEN COMCOM.H_DO = ILS$ ;
      204    10942    3                ELSE T_DO->DO_N.ITP = ILS$ ;
      205    10943
PL6.E3A0      #001=Z8FB$PHASE2_PREPASS File=Z8FB.:Z8A6TSI                        SAT 08/09/97 13:02 Page:7
      206    10944    3                T_DO = ILL$ ;
      207    10945    3                ILL$->DO_N.ITP = ADDR(NIL) ;
      208    10946
      209    10947                   /* IF list */
      210    10948
      211    10949    3              CASE (%VAL) ;
      212    10950
      213    10951    3                IF VAL_LEVEL > %MAX_VAL_LEVEL THEN
      214    10952    3                CALL Z8AE$ERROR (%E$UNEXPECTED_CASE, PREV_LINE, PREV_COL) ;
      215    10953    4                ELSE DO ;
      216    10954    4                  VAL_BEGIN$ (VAL_LEVEL) = ILS$ ;
      217    10955    4                  VAL_LEVEL = VAL_LEVEL + 1 ;
      218    10956    4                END ;
      219    10957
      220    10958    3              CASE (%VAL_END) ;
      221    10959
      222    10960    3                VAL_LEVEL = VAL_LEVEL - 1 ;
      223    10961    3                ILL$ -> VAL_END.VAL$ = VAL_BEGIN$ (VAL_LEVEL) ;
      224    10962    3                VAL_BEGIN$ (VAL_LEVEL) -> ILS.ILL$ -> VAL.VAL_END$ = ILS$ ; /*#28761*/
      225    10963
      226    10964    3            END /* Case of ILL ID */ ;
      227    10965
      228    10966                 /* Set previous line and column in LINOI item */
      229    10967
      230    10968    3            IF ILL$->ILL.ID = %LINOI THEN DO ;
      231    10969    3              IF  PREV_LINOI_ILS$ ~= ADDR (NIL)
      232    10970    3              AND PREV_LINOI_ILS$ -> ILS.NEXT = ILS$
      233    10971    4              AND ILL$ -> LINOI.TYPE = %NO_STATEMENT_TYPE THEN DO ;
      234    10972                     /* Eliminate extra LINOI */
      235    10973    4                PREV_LINOI_ILS$ -> ILS.NEXT = ILS$ -> ILS.NEXT ;
      236    10974    4              END ;
      237    10975    4              ELSE DO ; /* It's not an extra LINOI */
      238    10976    4                ILL$->LINOI.PREV_LINE = PREV_LINE ;
      239    10977    4                ILL$->LINOI.PREV_COL  = PREV_COL ;
      240    10978    4                PREV_LINE = ILL$ -> LINOI.LINE_NO ;
      241    10979    4                PREV_COL  = ILL$ -> LINOI.COLUMN_NO ;
      242    10980    4                PREV_LINOI_ILS$ = ILS$ ;
PL6.E3A0      #001=Z8FB$PHASE2_PREPASS File=Z8FB.:Z8A6TSI                        SAT 08/09/97 13:02 Page:8
      243    10981    4              END ; /* It's not an extra LINOI */
      244    10982    3            END ; /* It's a LINOI */
      245    10983    2            ELSE /* It's not a LINOI */
      246    10984    2              IF ILL$->ILL.ID ~= %PRESET AND ILL$->ILL.ID ~= %PTR_SET AND
      247    10985    2                 ILL$->ILL.ID ~= %PREOFF AND ILL$->ILL.ID ~= %P_A_PRESET AND
      248    10986    2                 ILL$->ILL.ID ~= %P_P_PRESET AND ILL$->ILL.ID ~= %END_PROG THEN
      249    10987                     /* These ILL items must be ignored for setting SCOPE.END_ILS$ */
      250    10988    3   UPDATE_PREV: DO ;
      251    10989    4                  IF ILL$->ILL.ID = %GO THEN DO ;
      252    10990    4                    TEMP$ = ILS$ ;
      253    10991                         %NEXT_NON_SUPPORT (POINTER=TEMP$) ;
      254    11006    4                    IF TEMP$->ILS.ILL$->ILL.ID = %DEFLB THEN
      255    11007    4                      IF TEMP$->ILS.ILL$->ILL.LOP->LABEL.B.ENTRY_POINT
      256    11008    4                        THEN EXIT UPDATE_PREV ;
      257    11009                         /* For entry point LABEL.PREV_ILS$ is different - see Z8FL */
      258    11010    4                  END ;
      259    11011    3                  PREV_ILS$ = ILS$ ; /* Previous non-LINOI */
      260    11012    3                  PREV_ILL$ = ILL$ ; /* Previous non-LINOI */
      261    11013    3                END ;
      262    11014
      263    11015                 %NEXT_ILS ;
      264    11020
      265    11021    2          END /* DO WHILE ILS$ <> Nil */ ;
      266    11022
      267    11023    1   END Z8FB$PHASE2_PREPASS ;

PL6.E3A0      #001=Z8FB$PHASE2_PREPASS File=Z8FB.:Z8A6TSI                        SAT 08/09/97 13:02 Page:9
--  Include file information  --

   Z8A_ERR_NUMS.:Z8A6TOU  is referenced.
   Z8F_O2COM.:Z8A6TOU  cannot be made into a system file and is referenced.
   Z8A_ST.:Z8A6TOU  cannot be made into a system file and is referenced.
   Z8A_LTS.:Z8A6TOU  cannot be made into a system file and is referenced.
   Z8A_LIBRARY.:Z8A6TOU  cannot be made into a system file and is referenced.
   Z8A_ILL.:Z8A6TOU  cannot be made into a system file and is referenced.
   Z8A_ILS.:Z8A6TOU  cannot be made into a system file and is referenced.
   Z8A_COMCOM.:Z8A6TOU  cannot be made into a system file and is referenced.
   X8A_COM_MACS.:X8A6TOU  is referenced.
   Z8A_NAMES.:Z8A6TOU  is referenced.
   Z8A_SUPP_MAC.:Z8A6TOU  is referenced.
   Z8A_DEFC.:Z8A6TOU  cannot be made into a system file and is referenced.
      No diagnostics issued in procedure Z8FB$PHASE2_PREPASS.

   Procedure Z8FB$PHASE2_PREPASS requires 407 words for executable code.
   Procedure Z8FB$PHASE2_PREPASS requires 28 words of local(AUTO) storage.

    No errors detected in file Z8FB.:Z8A6TSI    .

PL6.E3A0      #001=Z8FB$PHASE2_PREPASS File=Z8FB.:Z8A6TSI                        SAT 08/09/97 13:02 Page:10

 Object Unit name= Z8FB$PHASE2_PREPASS                        File name= Z8FB.:Z8A6TOU
 UTS= AUG 09 '97 13:02:29.24 SAT                              Compiler= PL-6/E31         Sev=      00
 SharedLib= :SHARED_SYSTEM                                    Alt SharedLib=


    ****  Control sections  ****

 Sect   Type Bound  Init  Size OctSiz  Section name(segment info)
    0  LblCom even  none     1      1  ITERATION
    1  LblCom even  none     1      1  ILS$
    2  LblCom even  none     5      5  ILS_
    3  LblCom even  none     1      1  ILL$
    4  LblCom even  none     5      5  ILL_
    5  LblCom even  none     1      1  LTS$
    6  LblCom even  none     5      5  LTS_
    7  LblCom even  none     1      1  ST$
    8  LblCom even  none     5      5  ST_
    9  LblCom even  none    12     14  O2COM
   10   Data  even  none     4      4  Z8FB$PHASE2_PREPASS
   11   Proc  even  none   407    627  Z8FB$PHASE2_PREPASS
   12  RoData even  none     5      5  Z8FB$PHASE2_PREPASS

    ****  Entry defs  ****

                              Check   Calling
                             calling  sequence
  Sect OctLoc Primary Altret sequence   type   Parms  Name
    11      0   yes            yes      Std        0  Z8FB$PHASE2_PREPASS

  ****  Entry refs  ****

         Check        Calling
        calling       sequence
Altret sequence SRef   type   Args  Name
         yes           Std      12 Z8AE$ERROR
                       nStd      0 X66_AUTO_0
                       nStd      0 X66_ARET
PL6.E3A0      #001=Z8FB$PHASE2_PREPASS File=Z8FB.:Z8A6TSI                        SAT 08/09/97 13:02 Page:11

  ****  Data refs  ****

  Flags:  r = read only, s = secondary
Flgs Name                             Flgs Name                             Flgs Name
     COMCOM                           r    ILS_STEP_TABLE                   r    ILL_STEP
r    LTS_STEP

  ****  Segment refs  ****

  Flags:  r = read only, s = secondary
Flgs Name                             Flgs Name                             Flgs Name
     NULLSID                               ISSID
PL6.E3A0      #001=Z8FB$PHASE2_PREPASS File=Z8FB.:Z8A6TSI                        SAT 08/09/97 13:02 Page:12


        1        1        /*M*  Z8FB$PHASE2_PREPASS -- Pre-scan the ILS/ILL */
        2        2        /*T***********************************************************/
        3        3        /*T*                                                         */
        4        4        /*T* Copyright (c) Bull HN Information Systems Inc., 1997    */
        5        5        /*T*                                                         */
        6        6        /*T***********************************************************/
        7        7
        8        8
        9        9        /*P*
       10       10               NAME:  Z8FB$PHASE2_PREPASS
       11       11             AUTHOR:  John Heath
       12       12            PURPOSE:  This procedure makes a pass over the ILS/ILL to
       13       13                      fill in various sublists and bits needed by the
       14       14                      rest of Phase 2.
       15       15        */
       16       16
       17       17        /*D*
       18       18               NAME:  Z8FB$PHASE2_PREPASS
       19       19               CALL:  CALL Z8FB$PHASE2_PREPASS ;
       20       20          INTERFACE:  None.
       21       21
       22       22        DESCRIPTION:  This procedure creates the BRANCH sublist, the
       23       23                      LBL (label) sublist, the DO (in-line PERFORM)
       24       24                      sublist; sets the FALL_THRU bit in the symbol
       25       25                      table items for labels; and sets the PREV_LINE
       26       26                      and PREV_COL fields in the LINOI ILL item.
       27       27
       28       28        */
       29       29
       30       30        %EJECT;
PL6.E3A0      #001=Z8FB$PHASE2_PREPASS File=Z8FB.:Z8A6TSI                        SAT 08/09/97 13:02 Page:13
       31       31        Z8FB$PHASE2_PREPASS: PROC ;

     31 11 000000   000000 700200 xent  Z8FB$PHASE2* TSX0  ! X66_AUTO_0
        11 000001   000034 000000                    ZERO    28,0

       32       32
       33       33        %EQU PHASE = 2 ;
       34       34        %INCLUDE Z8A_DEFC ;
       35      102        %INCLUDE Z8A_SUPP_MAC ;
       36     2502        %INCLUDE Z8A_COMCOM ;
       37     3152        %INCLUDE Z8A_ILS ;
       38     3261        %INCLUDE Z8A_ILL ;
       39     3954        %INCLUDE Z8A_LIBRARY ;
       40     4168        %INCLUDE Z8A_LTS ;
       41     6245        %INCLUDE Z8A_ST  ;
       42     9904        %INCLUDE Z8F_O2COM ;
       43    10014
       44    10015        %EQU MAX_VAL_LEVEL=2;
       45    10016    1   DCL T_LBL      PTR ; /* Tail of Label list */
       46    10017    1   DCL T_BRANCH   PTR ; /* Tail of Branch list */
       47    10018    1   DCL T_DO       PTR ; /* Tail of Do list */
       48    10019    1   DCL VAL_LEVEL  SBIN STATIC INIT (0) ; /* Nesting level of VAL items */
       49    10020    1   DCL VAL_BEGIN$ (0:%MAX_VAL_LEVEL) PTR STATIC INIT (ADDR (NIL) * 0) ;
       50    10021                       /* PTR to ILS for VAL at this nesting level */
       51    10022    1   DCL PREV_ILS$  PTR ; /* Last non-LINOI ILS item */
       52    10023    1   DCL PREV_ILL$  PTR ; /* Last non-LINOI ILL item */
       53    10024    1   DCL PREV_LINOI_ILS$ PTR ; /* Previous LINOI's ILS item */
       54    10025    1   DCL PREV_LINE  UBIN WORD ;
       55    10026    1   DCL PREV_COL   UBIN WORD ;
       56    10027    1   DCL LAST_SCOPE$ PTR ;
       57    10028    1   DCL ENTRY_TYPE UBIN;
       58    10029    1   DCL TEMP$      PTR ;
       59    10030        %INCLUDE Z8A_ERR_NUMS ;
       60    10794
       61    10795    1   DCL Z8AE$ERROR ENTRY (12) ;
       62    10796
       63    10797        %EJECT;
PL6.E3A0      #001=Z8FB$PHASE2_PREPASS File=Z8FB.:Z8A6TSI                        SAT 08/09/97 13:02 Page:14
       64    10798    1          LAST_SCOPE$ = ADDR (NIL) ;

  10798 11 000002   000000 236000 12                 LDQ     0
        11 000003   200024 756100                    STQ     LAST_SCOPE$,,AUTO

       65    10799    1          PREV_ILS$ = ADDR (NIL) ;

  10799 11 000004   200017 756100                    STQ     PREV_ILS$,,AUTO

       66    10800    1          PREV_ILL$ = ADDR (NIL) ;

  10800 11 000005   200020 756100                    STQ     PREV_ILL$,,AUTO

       67    10801    1          PREV_LINOI_ILS$ = ADDR (NIL) ;

  10801 11 000006   200021 756100                    STQ     PREV_LINOI_ILS$,,AUTO

       68    10802    1          COMCOM.H_ENTRY$ = ADDR (NIL) ;

  10802 11 000007   000423 756000 xsym               STQ     COMCOM+275

       69    10803    1          COMCOM.INT_SUB$ = ADDR (NIL) ;

  10803 11 000010   000361 756000 xsym               STQ     COMCOM+241

       70    10804    1          PREV_LINE = 0 ;

  10804 11 000011   200022 450100                    STZ     PREV_LINE,,AUTO

       71    10805    1          PREV_COL  = 0 ;

  10805 11 000012   200023 450100                    STZ     PREV_COL,,AUTO

       72    10806    1          ENTRY_TYPE = %SUBROUTINE ;

  10806 11 000013   000001 235007                    LDA     1,DL
        11 000014   200025 755100                    STA     ENTRY_TYPE,,AUTO
PL6.E3A0      #001=Z8FB$PHASE2_PREPASS File=Z8FB.:Z8A6TSI                        SAT 08/09/97 13:02 Page:15

       73    10807    1          ILS$ = COMCOM.FIRST_ILS ;

  10807 11 000015   000010 236000 xsym               LDQ     COMCOM+8
        11 000016   000000 756000 1                  STQ     ILS$

       74    10808
       75    10809    2          DO WHILE (ILS$ ~= ADDR(NIL)) ;

  10809 11 000017   000624 710000 11                 TRA     s:11021

       76    10810
       77    10811    2            ILL$ = ILS$ -> ILS.ILL$ ;

  10811 11 000020   000000 470400 1                  LDP0    ILS$
        11 000021   000003 236100                    LDQ     3,,PR0
        11 000022   000000 756000 3                  STQ     ILL$

       78    10812
       79    10813    3            DO WHILE (ILL$ = ADDR(NIL)) ;

  10813 11 000023   000032 710000 11                 TRA     s:10820

       80    10814                   %NEXT_ILS ;

  10816 11 000024   000000 470400 1                  LDP0    ILS$
        11 000025   000002 236100                    LDQ     2,,PR0
        11 000026   000000 756000 1                  STQ     ILS$

       81    10819    3              ILL$ = ILS$ -> ILS.ILL$ ;

  10819 11 000027   000000 470400 1                  LDP0    ILS$
        11 000030   000003 236100                    LDQ     3,,PR0
        11 000031   000000 756000 3                  STQ     ILL$

       82    10820    3            END ;

PL6.E3A0      #001=Z8FB$PHASE2_PREPASS File=Z8FB.:Z8A6TSI                        SAT 08/09/97 13:02 Page:16
  10820 11 000032   000000 116000 12                 CMPQ    0
        11 000033   000024 600000 11                 TZE     s:10816

       83    10821
       84    10822    3            IF ILL$->ILL.ID = %DEFLB THEN DO ;

  10822 11 000034   000000 471400 3                  LDP1    ILL$
        11 000035   100000 220100                    LDX0    0,,PR1
        11 000036   000346 100003                    CMPX0   230,DU
        11 000037   000157 601000 11                 TNZ     s:10873

       85    10823
       86    10824                   /* Label List */
       87    10825
       88    10826    3              IF COMCOM.H_LBL = ADDR(NIL)

  10826 11 000040   000321 236000 xsym               LDQ     COMCOM+209
        11 000041   000000 116000 12                 CMPQ    0
        11 000042   000046 601000 11                 TNZ     s:10828

       89    10827    3              THEN COMCOM.H_LBL = ILS$ ;

  10827 11 000043   000000 236000 1                  LDQ     ILS$
        11 000044   000321 756000 xsym               STQ     COMCOM+209
        11 000045   000051 710000 11                 TRA     s:10830

       90    10828    3              ELSE T_LBL->DEFLB.LBL = ILS$ ;

  10828 11 000046   000000 236000 1                  LDQ     ILS$
        11 000047   200014 473500                    LDP3    T_LBL,,AUTO
        11 000050   300002 756100                    STQ     2,,PR3

       91    10829
       92    10830    3              T_LBL = ILL$ ;

  10830 11 000051   000000 236000 3                  LDQ     ILL$
        11 000052   200014 756100                    STQ     T_LBL,,AUTO
PL6.E3A0      #001=Z8FB$PHASE2_PREPASS File=Z8FB.:Z8A6TSI                        SAT 08/09/97 13:02 Page:17

       93    10831    3              ILL$->DEFLB.LBL = ADDR(NIL) ;

  10831 11 000053   000000 236000 12                 LDQ     0
        11 000054   100002 756100                    STQ     2,,PR1

       94    10832
       95    10833                   /* Set Previous ILS field in PARA item */
       96    10834
       97    10835    3              ILL$->DEFLB.LOP->LABEL.PREV_ILS$ = PREV_ILS$ ;

  10835 11 000055   100001 473500                    LDP3    1,,PR1
        11 000056   200017 236100                    LDQ     PREV_ILS$,,AUTO
        11 000057   300010 756100                    STQ     8,,PR3

       98    10836
       99    10837                   /* Set FALL_THRU bit */
      100    10838
      101    10839    4              IF PREV_ILL$ ~= ADDR(NIL) THEN DO ;

  10839 11 000060   200020 236100                    LDQ     PREV_ILL$,,AUTO
        11 000061   000000 116000 12                 CMPQ    0
        11 000062   000157 600000 11                 TZE     s:10873

      102    10840
      103    10841    5                DO CASE (PREV_ILL$ -> ILL.ID) ;

  10841 11 000063   200020 473500                    LDP3    PREV_ILL$,,AUTO
        11 000064   300000 236100                    LDQ     0,,PR3
        11 000065   000022 772000                    QRL     18
        11 000066   000337 136007                    SBLQ    223,DL
        11 000067   000030 116007                    CMPQ    24,DL
        11 000070   000072 602006 11                 TNC     s:10841+7,QL
        11 000071   000154 710000 11                 TRA     s:10862
        11 000072   000122 710000 11                 TRA     s:10845
        11 000073   000154 710000 11                 TRA     s:10862
        11 000074   000154 710000 11                 TRA     s:10862
PL6.E3A0      #001=Z8FB$PHASE2_PREPASS File=Z8FB.:Z8A6TSI                        SAT 08/09/97 13:02 Page:18
        11 000075   000154 710000 11                 TRA     s:10862
        11 000076   000154 710000 11                 TRA     s:10862
        11 000077   000142 710000 11                 TRA     s:10856
        11 000100   000154 710000 11                 TRA     s:10862
        11 000101   000154 710000 11                 TRA     s:10862
        11 000102   000154 710000 11                 TRA     s:10862
        11 000103   000154 710000 11                 TRA     s:10862
        11 000104   000154 710000 11                 TRA     s:10862
        11 000105   000154 710000 11                 TRA     s:10862
        11 000106   000154 710000 11                 TRA     s:10862
        11 000107   000154 710000 11                 TRA     s:10862
        11 000110   000154 710000 11                 TRA     s:10862
        11 000111   000154 710000 11                 TRA     s:10862
        11 000112   000154 710000 11                 TRA     s:10862
        11 000113   000154 710000 11                 TRA     s:10862
        11 000114   000154 710000 11                 TRA     s:10862
        11 000115   000154 710000 11                 TRA     s:10862
        11 000116   000154 710000 11                 TRA     s:10862
        11 000117   000154 710000 11                 TRA     s:10862
        11 000120   000122 710000 11                 TRA     s:10845
        11 000121   000126 710000 11                 TRA     s:10849

      104    10842
      105    10843    5                  CASE (%STOP, %USE_END) ;

      106    10844
      107    10845    5                    ILL$->DEFLB.LOP->LABEL.B.FALL_THRU = '0'B ;

  10845 11 000122   100001 474500                    LDP4    1,,PR1
        11 000123   000001 236000 12                 LDQ     1
        11 000124   400003 356100                    ANSQ    3,,PR4
        11 000125   000157 710000 11                 TRA     s:10873

      108    10846
      109    10847    5                  CASE (%EXIT_PROG) ;

      110    10848
PL6.E3A0      #001=Z8FB$PHASE2_PREPASS File=Z8FB.:Z8A6TSI                        SAT 08/09/97 13:02 Page:19
      111    10849    5                    IF ENTRY_TYPE = %MAIN_PROGRAM AND NOT COMCOM.OB.TP8

  10849 11 000126   200025 235100                    LDA     ENTRY_TYPE,,AUTO
        11 000127   000136 601000 11                 TNZ     s:10852
        11 000130   000050 234000 xsym               SZN     COMCOM+40
        11 000131   000136 604000 11                 TMI     s:10852

      112    10850    5                      THEN ILL$->DEFLB.LOP->LABEL.B.FALL_THRU = '1'B ;

  10850 11 000132   100001 474500                    LDP4    1,,PR1
        11 000133   002000 236003                    LDQ     1024,DU
        11 000134   400003 256100                    ORSQ    3,,PR4
        11 000135   000157 710000 11                 TRA     s:10873

      113    10851                                /* This EXIT PROGRAM will be optimized out. */
      114    10852    5                      ELSE ILL$->DEFLB.LOP->LABEL.B.FALL_THRU = '0'B ;

  10852 11 000136   100001 474500                    LDP4    1,,PR1
        11 000137   000001 236000 12                 LDQ     1
        11 000140   400003 356100                    ANSQ    3,,PR4
        11 000141   000157 710000 11                 TRA     s:10873

      115    10853
      116    10854    5                  CASE (%GO) ;

      117    10855
      118    10856    5                    IF PREV_ILL$->GO.CODE = %GO_UNCONDITIONAL

  10856 11 000142   300000 720100                    LXL0    0,,PR3
        11 000143   000150 601000 11                 TNZ     s:10858

      119    10857    5                    THEN ILL$->DEFLB.LOP->LABEL.B.FALL_THRU = '0'B ;

  10857 11 000144   100001 474500                    LDP4    1,,PR1
        11 000145   000001 236000 12                 LDQ     1
        11 000146   400003 356100                    ANSQ    3,,PR4
        11 000147   000157 710000 11                 TRA     s:10873
PL6.E3A0      #001=Z8FB$PHASE2_PREPASS File=Z8FB.:Z8A6TSI                        SAT 08/09/97 13:02 Page:20

      120    10858    5                    ELSE ILL$->DEFLB.LOP->LABEL.B.FALL_THRU = '1'B ;

  10858 11 000150   100001 474500                    LDP4    1,,PR1
        11 000151   002000 236003                    LDQ     1024,DU
        11 000152   400003 256100                    ORSQ    3,,PR4
        11 000153   000157 710000 11                 TRA     s:10873

      121    10859
      122    10860    5                  CASE (ELSE) ;

      123    10861
      124    10862    5                    ILL$->DEFLB.LOP->LABEL.B.FALL_THRU = '1'B ;

  10862 11 000154   100001 474500                    LDP4    1,,PR1
        11 000155   002000 236003                    LDQ     1024,DU
        11 000156   400003 256100                    ORSQ    3,,PR4

      125    10863
      126    10864    5                END /* Case of ILL ID */ ;

      127    10865
      128    10866    4              END /* PREV_ILL$ <> Nil */ ;

      129    10867
      130    10868    3            END /* ILL ID = DEFLB */ ;

      131    10869
      132    10870        %EJECT;
PL6.E3A0      #001=Z8FB$PHASE2_PREPASS File=Z8FB.:Z8A6TSI                        SAT 08/09/97 13:02 Page:21
      133    10871                 /* BRANCH list, DO list, IF list, and line# actions */
      134    10872
      135    10873    3            DO CASE (ILL$ -> ILL.ID) ;

  10873 11 000157   100000 236100                    LDQ     0,,PR1
        11 000160   000022 772000                    QRL     18
        11 000161   000313 136007                    SBLQ    203,DL
        11 000162   000133 116007                    CMPQ    91,DL
        11 000163   000165 602006 11                 TNC     s:10873+6,QL
        11 000164   000503 710000 11                 TRA     s:10968
        11 000165   000346 710000 11                 TRA     s:10896
        11 000166   000503 710000 11                 TRA     s:10968
        11 000167   000503 710000 11                 TRA     s:10968
        11 000170   000503 710000 11                 TRA     s:10968
        11 000171   000503 710000 11                 TRA     s:10968
        11 000172   000503 710000 11                 TRA     s:10968
        11 000173   000503 710000 11                 TRA     s:10968
        11 000174   000503 710000 11                 TRA     s:10968
        11 000175   000503 710000 11                 TRA     s:10968
        11 000176   000503 710000 11                 TRA     s:10968
        11 000177   000503 710000 11                 TRA     s:10968
        11 000200   000503 710000 11                 TRA     s:10968
        11 000201   000503 710000 11                 TRA     s:10968
        11 000202   000503 710000 11                 TRA     s:10968
        11 000203   000503 710000 11                 TRA     s:10968
        11 000204   000503 710000 11                 TRA     s:10968
        11 000205   000503 710000 11                 TRA     s:10968
        11 000206   000503 710000 11                 TRA     s:10968
        11 000207   000503 710000 11                 TRA     s:10968
        11 000210   000503 710000 11                 TRA     s:10968
        11 000211   000503 710000 11                 TRA     s:10968
        11 000212   000503 710000 11                 TRA     s:10968
        11 000213   000503 710000 11                 TRA     s:10968
        11 000214   000503 710000 11                 TRA     s:10968
        11 000215   000503 710000 11                 TRA     s:10968
        11 000216   000346 710000 11                 TRA     s:10896
        11 000217   000346 710000 11                 TRA     s:10896
PL6.E3A0      #001=Z8FB$PHASE2_PREPASS File=Z8FB.:Z8A6TSI                        SAT 08/09/97 13:02 Page:22
        11 000220   000346 710000 11                 TRA     s:10896
        11 000221   000503 710000 11                 TRA     s:10968
        11 000222   000503 710000 11                 TRA     s:10968
        11 000223   000503 710000 11                 TRA     s:10968
        11 000224   000503 710000 11                 TRA     s:10968
        11 000225   000320 710000 11                 TRA     s:10881
        11 000226   000503 710000 11                 TRA     s:10968
        11 000227   000503 710000 11                 TRA     s:10968
        11 000230   000503 710000 11                 TRA     s:10968
        11 000231   000503 710000 11                 TRA     s:10968
        11 000232   000503 710000 11                 TRA     s:10968
        11 000233   000503 710000 11                 TRA     s:10968
        11 000234   000346 710000 11                 TRA     s:10896
        11 000235   000346 710000 11                 TRA     s:10896
        11 000236   000503 710000 11                 TRA     s:10968
        11 000237   000503 710000 11                 TRA     s:10968
        11 000240   000503 710000 11                 TRA     s:10968
        11 000241   000450 710000 11                 TRA     s:10951
        11 000242   000472 710000 11                 TRA     s:10960
        11 000243   000503 710000 11                 TRA     s:10968
        11 000244   000503 710000 11                 TRA     s:10968
        11 000245   000503 710000 11                 TRA     s:10968
        11 000246   000377 710000 11                 TRA     s:10913
        11 000247   000403 710000 11                 TRA     s:10921
        11 000250   000403 710000 11                 TRA     s:10921
        11 000251   000403 710000 11                 TRA     s:10921
        11 000252   000403 710000 11                 TRA     s:10921
        11 000253   000403 710000 11                 TRA     s:10921
        11 000254   000503 710000 11                 TRA     s:10968
        11 000255   000403 710000 11                 TRA     s:10921
        11 000256   000346 710000 11                 TRA     s:10896
        11 000257   000503 710000 11                 TRA     s:10968
        11 000260   000503 710000 11                 TRA     s:10968
        11 000261   000503 710000 11                 TRA     s:10968
        11 000262   000503 710000 11                 TRA     s:10968
        11 000263   000503 710000 11                 TRA     s:10968
        11 000264   000346 710000 11                 TRA     s:10896
PL6.E3A0      #001=Z8FB$PHASE2_PREPASS File=Z8FB.:Z8A6TSI                        SAT 08/09/97 13:02 Page:23
        11 000265   000503 710000 11                 TRA     s:10968
        11 000266   000503 710000 11                 TRA     s:10968
        11 000267   000503 710000 11                 TRA     s:10968
        11 000270   000503 710000 11                 TRA     s:10968
        11 000271   000503 710000 11                 TRA     s:10968
        11 000272   000503 710000 11                 TRA     s:10968
        11 000273   000503 710000 11                 TRA     s:10968
        11 000274   000503 710000 11                 TRA     s:10968
        11 000275   000503 710000 11                 TRA     s:10968
        11 000276   000503 710000 11                 TRA     s:10968
        11 000277   000503 710000 11                 TRA     s:10968
        11 000300   000503 710000 11                 TRA     s:10968
        11 000301   000503 710000 11                 TRA     s:10968
        11 000302   000503 710000 11                 TRA     s:10968
        11 000303   000503 710000 11                 TRA     s:10968
        11 000304   000503 710000 11                 TRA     s:10968
        11 000305   000503 710000 11                 TRA     s:10968
        11 000306   000503 710000 11                 TRA     s:10968
        11 000307   000503 710000 11                 TRA     s:10968
        11 000310   000503 710000 11                 TRA     s:10968
        11 000311   000503 710000 11                 TRA     s:10968
        11 000312   000503 710000 11                 TRA     s:10968
        11 000313   000503 710000 11                 TRA     s:10968
        11 000314   000503 710000 11                 TRA     s:10968
        11 000315   000503 710000 11                 TRA     s:10968
        11 000316   000503 710000 11                 TRA     s:10968
        11 000317   000346 710000 11                 TRA     s:10896

      136    10874
      137    10875                   /* BRANCH List */
      138    10876
      139    10877                   /* ENTRY -- Set up linked list */
      140    10878
      141    10879    3              CASE (%ENTRY) ;

      142    10880
      143    10881    3                IF ILL$->ENTRY_ILL.CODE ~= %SUBROUTINE_ENTRY
PL6.E3A0      #001=Z8FB$PHASE2_PREPASS File=Z8FB.:Z8A6TSI                        SAT 08/09/97 13:02 Page:24

  10881 11 000320   100000 720100                    LXL0    0,,PR1
        11 000321   000002 100003                    CMPX0   2,DU
        11 000322   000326 600000 11                 TZE     s:10884

      144    10882    3                  THEN ENTRY_TYPE = ILL$->ENTRY_ILL.CODE ;

  10882 11 000323   100000 236100                    LDQ     0,,PR1
        11 000324   777777 376007                    ANQ     -1,DL
        11 000325   200025 756100                    STQ     ENTRY_TYPE,,AUTO

      145    10883
      146    10884    4                IF LAST_SCOPE$->SCOPE.PROC$->PROC_.PROC_DEF$->PROC_DEF.ID=%INTDEF THEN
             10884                         DO;

  10884 11 000326   200024 473500                    LDP3    LAST_SCOPE$,,AUTO
        11 000327   300001 474500                    LDP4    1,,PR3
        11 000330   400006 475500                    LDP5    6,,PR4
        11 000331   500000 221100                    LDX1    0,,PR5
        11 000332   000776 101003                    CMPX1   510,DU
        11 000333   000341 601000 11                 TNZ     s:10889

      147    10885    4                  ILL$->ENTRY_ILL.PREV_ENTRY_ILS$ = COMCOM.INT_SUB$ ;

  10885 11 000334   000361 236000 xsym               LDQ     COMCOM+241
        11 000335   100003 756100                    STQ     3,,PR1

      148    10886    4                  COMCOM.INT_SUB$ = ILS$ ;

  10886 11 000336   000000 236000 1                  LDQ     ILS$
        11 000337   000361 756000 xsym               STQ     COMCOM+241

      149    10887    4                END ;

  10887 11 000340   000503 710000 11                 TRA     s:10968

      150    10888    4                ELSE DO ;
PL6.E3A0      #001=Z8FB$PHASE2_PREPASS File=Z8FB.:Z8A6TSI                        SAT 08/09/97 13:02 Page:25

      151    10889    4                  ILL$->ENTRY_ILL.PREV_ENTRY_ILS$ = COMCOM.H_ENTRY$ ;

  10889 11 000341   000423 236000 xsym               LDQ     COMCOM+275
        11 000342   100003 756100                    STQ     3,,PR1

      152    10890    4                  COMCOM.H_ENTRY$ = ILS$ ;

  10890 11 000343   000000 236000 1                  LDQ     ILS$
        11 000344   000423 756000 xsym               STQ     COMCOM+275

      153    10891    4                END ;

  10891 11 000345   000503 710000 11                 TRA     s:10968

      154    10892
      155    10893    3              CASE (%GO, %PFORM, %ALTER, %DEFLB ,%OS_CALL, %USER_CALL,

      156    10894    3                    %SCOPE, %REMEM, %MULTI_GO) ;
      157    10895
      158    10896    3                IF COMCOM.H_BRANCH = ADDR(NIL)

  10896 11 000346   000333 236000 xsym               LDQ     COMCOM+219
        11 000347   000000 116000 12                 CMPQ    0
        11 000350   000354 601000 11                 TNZ     s:10898

      159    10897    3                THEN COMCOM.H_BRANCH = ILS$ ;

  10897 11 000351   000000 236000 1                  LDQ     ILS$
        11 000352   000333 756000 xsym               STQ     COMCOM+219
        11 000353   000357 710000 11                 TRA     s:10900

      160    10898    3                ELSE T_BRANCH->DEFLB.BRANCH$ = ILS$ ;

  10898 11 000354   000000 236000 1                  LDQ     ILS$
        11 000355   200015 473500                    LDP3    T_BRANCH,,AUTO
        11 000356   300003 756100                    STQ     3,,PR3
PL6.E3A0      #001=Z8FB$PHASE2_PREPASS File=Z8FB.:Z8A6TSI                        SAT 08/09/97 13:02 Page:26

      161    10899
      162    10900    3                T_BRANCH = ILL$ ;

  10900 11 000357   000000 236000 3                  LDQ     ILL$
        11 000360   200015 756100                    STQ     T_BRANCH,,AUTO

      163    10901    3                ILL$->DEFLB.BRANCH$ = ADDR(NIL) ;

  10901 11 000361   000000 236000 12                 LDQ     0
        11 000362   100003 756100                    STQ     3,,PR1

      164    10902
      165    10903    4                IF ILL$->ILL.ID = %SCOPE THEN DO ;

  10903 11 000363   100000 220100                    LDX0    0,,PR1
        11 000364   000445 100003                    CMPX0   293,DU
        11 000365   000503 601000 11                 TNZ     s:10968

      166    10904    4                  IF LAST_SCOPE$ ~= ADDR (NIL) THEN

  10904 11 000366   200024 236100                    LDQ     LAST_SCOPE$,,AUTO
        11 000367   000000 116000 12                 CMPQ    0
        11 000370   000374 600000 11                 TZE     s:10906

      167    10905    4                    LAST_SCOPE$->SCOPE.END_ILS$ = PREV_ILS$ ;

  10905 11 000371   200017 236100                    LDQ     PREV_ILS$,,AUTO
        11 000372   200024 473500                    LDP3    LAST_SCOPE$,,AUTO
        11 000373   300002 756100                    STQ     2,,PR3

      168    10906    4                  LAST_SCOPE$ = ILL$ ;

  10906 11 000374   000000 236000 3                  LDQ     ILL$
        11 000375   200024 756100                    STQ     LAST_SCOPE$,,AUTO

      169    10907    4                END ;
PL6.E3A0      #001=Z8FB$PHASE2_PREPASS File=Z8FB.:Z8A6TSI                        SAT 08/09/97 13:02 Page:27

  10907 11 000376   000503 710000 11                 TRA     s:10968

      170    10908
      171    10909                   /* END -- Set SCOPE.END_ILS$ */
      172    10910
      173    10911    3              CASE (%END) ;

      174    10912
      175    10913    3                LAST_SCOPE$->SCOPE.END_ILS$ = PREV_ILS$ ;

  10913 11 000377   200017 236100                    LDQ     PREV_ILS$,,AUTO
        11 000400   200024 473500                    LDP3    LAST_SCOPE$,,AUTO
        11 000401   300002 756100                    STQ     2,,PR3
        11 000402   000503 710000 11                 TRA     s:10968

      176    10914
      177    10915                   /* DO lists, ITE/ITB (begin/end), ITP, and ITO (outer) */
      178    10916
      179    10917    3              CASE (%DOEND, %DO1, %DO2, %DO3, %DO4, %DO5/*, %DO6*/) ;

      180    10918
      181    10919                     /* ITE/ITB, ITO, and LEVEL */
      182    10920
      183    10921    4                IF ILL$->ILL.ID = %DOEND THEN DO ;

  10921 11 000403   100000 220100                    LDX0    0,,PR1
        11 000404   000403 100003                    CMPX0   259,DU
        11 000405   000423 601000 11                 TNZ     s:10931

      184    10922
      185    10923    4                  ILL$->DO_N.ITB = O2COM.DO_BEGIN ;

  10923 11 000406   000010 236000 9                  LDQ     O2COM+8
        11 000407   100001 756100                    STQ     1,,PR1

      186    10924    4                  O2COM.DO_BEGIN->ILS.ILL$->DO_N.ITE = ILS$ ;
PL6.E3A0      #001=Z8FB$PHASE2_PREPASS File=Z8FB.:Z8A6TSI                        SAT 08/09/97 13:02 Page:28

  10924 11 000410   000010 473400 9                  LDP3    O2COM+8
        11 000411   300003 474500                    LDP4    3,,PR3
        11 000412   000000 236000 1                  LDQ     ILS$
        11 000413   400001 756100                    STQ     1,,PR4

      187    10925    4                  O2COM.DO_LEVEL = O2COM.DO_LEVEL - 1 ;

  10925 11 000414   000001 336007                    LCQ     1,DL
        11 000415   000007 056000 9                  ASQ     O2COM+7

      188    10926    4                  O2COM.DO_BEGIN = O2COM.DO_BEGIN -> ILS.ILL$ -> DO_N.ITO ;

  10926 11 000416   000010 473400 9                  LDP3    O2COM+8
        11 000417   300003 474500                    LDP4    3,,PR3
        11 000420   400004 236100                    LDQ     4,,PR4
        11 000421   000010 756000 9                  STQ     O2COM+8

      189    10927
      190    10928    4                END ;

  10928 11 000422   000432 710000 11                 TRA     s:10940

      191    10929    4                ELSE DO ; /* DOn item */

      192    10930
      193    10931    4                  O2COM.DO_LEVEL = O2COM.DO_LEVEL + 1 ;

  10931 11 000423   000007 054000 9                  AOS     O2COM+7

      194    10932    4                  ILL$->DO_N.LEVEL = O2COM.DO_LEVEL ;

  10932 11 000424   000007 720000 9                  LXL0    O2COM+7
        11 000425   100005 740100                    STX0    5,,PR1

      195    10933    4                  ILL$->DO_N.ITO = O2COM.DO_BEGIN ;

PL6.E3A0      #001=Z8FB$PHASE2_PREPASS File=Z8FB.:Z8A6TSI                        SAT 08/09/97 13:02 Page:29
  10933 11 000426   000010 236000 9                  LDQ     O2COM+8
        11 000427   100004 756100                    STQ     4,,PR1

      196    10934    4                  O2COM.DO_BEGIN = ILS$ ;

  10934 11 000430   000000 236000 1                  LDQ     ILS$
        11 000431   000010 756000 9                  STQ     O2COM+8

      197    10935
      198    10936    4                END ;

      199    10937
      200    10938                     /* ITP */
      201    10939
      202    10940    3                IF COMCOM.H_DO = ADDR(NIL)

  10940 11 000432   000332 236000 xsym               LDQ     COMCOM+218
        11 000433   000000 116000 12                 CMPQ    0
        11 000434   000440 601000 11                 TNZ     s:10942

      203    10941    3                THEN COMCOM.H_DO = ILS$ ;

  10941 11 000435   000000 236000 1                  LDQ     ILS$
        11 000436   000332 756000 xsym               STQ     COMCOM+218
        11 000437   000443 710000 11                 TRA     s:10944

      204    10942    3                ELSE T_DO->DO_N.ITP = ILS$ ;

  10942 11 000440   000000 236000 1                  LDQ     ILS$
        11 000441   200016 473500                    LDP3    T_DO,,AUTO
        11 000442   300003 756100                    STQ     3,,PR3

      205    10943
      206    10944    3                T_DO = ILL$ ;

  10944 11 000443   000000 236000 3                  LDQ     ILL$
        11 000444   200016 756100                    STQ     T_DO,,AUTO
PL6.E3A0      #001=Z8FB$PHASE2_PREPASS File=Z8FB.:Z8A6TSI                        SAT 08/09/97 13:02 Page:30

      207    10945    3                ILL$->DO_N.ITP = ADDR(NIL) ;

  10945 11 000445   000000 236000 12                 LDQ     0
        11 000446   100003 756100                    STQ     3,,PR1
        11 000447   000503 710000 11                 TRA     s:10968

      208    10946
      209    10947                   /* IF list */
      210    10948
      211    10949    3              CASE (%VAL) ;

      212    10950
      213    10951    3                IF VAL_LEVEL > %MAX_VAL_LEVEL THEN

  10951 11 000450   000000 235000 10                 LDA     VAL_LEVEL
        11 000451   000002 115007                    CMPA    2,DL
        11 000452   000466 604400 11                 TMOZ    s:10954

      214    10952    3                CALL Z8AE$ERROR (%E$UNEXPECTED_CASE, PREV_LINE, PREV_COL) ;

  10952 11 000453   200023 633500                    EPPR3   PREV_COL,,AUTO
        11 000454   200032 453500                    STP3    TEMP$+4,,AUTO
        11 000455   200022 634500                    EPPR4   PREV_LINE,,AUTO
        11 000456   200031 454500                    STP4    TEMP$+3,,AUTO
        11 000457   000004 236000 12                 LDQ     4
        11 000460   200030 756100                    STQ     TEMP$+2,,AUTO
        11 000461   200030 630500                    EPPR0   TEMP$+2,,AUTO
        11 000462   000002 631400 12                 EPPR1   2
        11 000463   000000 701000 xent               TSX1    Z8AE$ERROR
        11 000464   000000 011000                    NOP     0
        11 000465   000503 710000 11                 TRA     s:10968

      215    10953    4                ELSE DO ;

      216    10954    4                  VAL_BEGIN$ (VAL_LEVEL) = ILS$ ;

PL6.E3A0      #001=Z8FB$PHASE2_PREPASS File=Z8FB.:Z8A6TSI                        SAT 08/09/97 13:02 Page:31
  10954 11 000466   000000 236000 1                  LDQ     ILS$
        11 000467   000001 756005 10                 STQ     VAL_BEGIN$,AL

      217    10955    4                  VAL_LEVEL = VAL_LEVEL + 1 ;

  10955 11 000470   000000 054000 10                 AOS     VAL_LEVEL

      218    10956    4                END ;

  10956 11 000471   000503 710000 11                 TRA     s:10968

      219    10957
      220    10958    3              CASE (%VAL_END) ;

      221    10959
      222    10960    3                VAL_LEVEL = VAL_LEVEL - 1 ;

  10960 11 000472   000001 336007                    LCQ     1,DL
        11 000473   000000 056000 10                 ASQ     VAL_LEVEL

      223    10961    3                ILL$ -> VAL_END.VAL$ = VAL_BEGIN$ (VAL_LEVEL) ;

  10961 11 000474   000000 720000 10                 LXL0    VAL_LEVEL
        11 000475   000001 236010 10                 LDQ     VAL_BEGIN$,X0
        11 000476   100001 756100                    STQ     1,,PR1

      224    10962    3                VAL_BEGIN$ (VAL_LEVEL) -> ILS.ILL$ -> VAL.VAL_END$ = ILS$ ; /*#28761*/

  10962 11 000477   000001 473410 10                 LDP3    VAL_BEGIN$,X0
        11 000500   300003 474500                    LDP4    3,,PR3
        11 000501   000000 236000 1                  LDQ     ILS$
        11 000502   400002 756100                    STQ     2,,PR4

      225    10963
      226    10964    3            END /* Case of ILL ID */ ;

      227    10965
PL6.E3A0      #001=Z8FB$PHASE2_PREPASS File=Z8FB.:Z8A6TSI                        SAT 08/09/97 13:02 Page:32
      228    10966                 /* Set previous line and column in LINOI item */
      229    10967
      230    10968    3            IF ILL$->ILL.ID = %LINOI THEN DO ;

  10968 11 000503   000000 470400 3                  LDP0    ILL$
        11 000504   000000 220100                    LDX0    0,,PR0
        11 000505   000373 100003                    CMPX0   251,DU
        11 000506   000542 601000 11                 TNZ     s:10984

      231    10969    3              IF  PREV_LINOI_ILS$ ~= ADDR (NIL)

  10969 11 000507   200021 236100                    LDQ     PREV_LINOI_ILS$,,AUTO
        11 000510   000000 116000 12                 CMPQ    0
        11 000511   000524 600000 11                 TZE     s:10976
        11 000512   200021 471500                    LDP1    PREV_LINOI_ILS$,,AUTO
        11 000513   100002 236100                    LDQ     2,,PR1
        11 000514   000000 116000 1                  CMPQ    ILS$
        11 000515   000524 601000 11                 TNZ     s:10976
        11 000516   000002 221100                    LDX1    2,,PR0
        11 000517   000524 601000 11                 TNZ     s:10976

      232    10970    3              AND PREV_LINOI_ILS$ -> ILS.NEXT = ILS$
      233    10971    4              AND ILL$ -> LINOI.TYPE = %NO_STATEMENT_TYPE THEN DO ;

      234    10972                     /* Eliminate extra LINOI */
      235    10973    4                PREV_LINOI_ILS$ -> ILS.NEXT = ILS$ -> ILS.NEXT ;

  10973 11 000520   000000 473400 1                  LDP3    ILS$
        11 000521   300002 236100                    LDQ     2,,PR3
        11 000522   100002 756100                    STQ     2,,PR1

      236    10974    4              END ;

  10974 11 000523   000621 710000 11                 TRA     s:11017

      237    10975    4              ELSE DO ; /* It's not an extra LINOI */

PL6.E3A0      #001=Z8FB$PHASE2_PREPASS File=Z8FB.:Z8A6TSI                        SAT 08/09/97 13:02 Page:33
      238    10976    4                ILL$->LINOI.PREV_LINE = PREV_LINE ;

  10976 11 000524   200022 721100                    LXL1    PREV_LINE,,AUTO
        11 000525   000000 441100                    SXL1    0,,PR0

      239    10977    4                ILL$->LINOI.PREV_COL  = PREV_COL ;

  10977 11 000526   200023 720100                    LXL0    PREV_COL,,AUTO
        11 000527   000000 470400 3                  LDP0    ILL$
        11 000530   000002 440100                    SXL0    2,,PR0

      240    10978    4                PREV_LINE = ILL$ -> LINOI.LINE_NO ;

  10978 11 000531   000001 236100                    LDQ     1,,PR0
        11 000532   777777 376007                    ANQ     -1,DL
        11 000533   200022 756100                    STQ     PREV_LINE,,AUTO

      241    10979    4                PREV_COL  = ILL$ -> LINOI.COLUMN_NO ;

  10979 11 000534   000001 236100                    LDQ     1,,PR0
        11 000535   000022 772000                    QRL     18
        11 000536   200023 756100                    STQ     PREV_COL,,AUTO

      242    10980    4                PREV_LINOI_ILS$ = ILS$ ;

  10980 11 000537   000000 236000 1                  LDQ     ILS$
        11 000540   200021 756100                    STQ     PREV_LINOI_ILS$,,AUTO

      243    10981    4              END ; /* It's not an extra LINOI */

      244    10982    3            END ; /* It's a LINOI */

  10982 11 000541   000621 710000 11                 TRA     s:11017

      245    10983    2            ELSE /* It's not a LINOI */
      246    10984    2              IF ILL$->ILL.ID ~= %PRESET AND ILL$->ILL.ID ~= %PTR_SET AND

PL6.E3A0      #001=Z8FB$PHASE2_PREPASS File=Z8FB.:Z8A6TSI                        SAT 08/09/97 13:02 Page:34
  10984 11 000542   000422 100003                    CMPX0   274,DU
        11 000543   000621 600000 11                 TZE     s:11017
        11 000544   000343 100003                    CMPX0   227,DU
        11 000545   000621 600000 11                 TZE     s:11017
        11 000546   000420 100003                    CMPX0   272,DU
        11 000547   000621 600000 11                 TZE     s:11017
        11 000550   000446 100003                    CMPX0   294,DU
        11 000551   000621 600000 11                 TZE     s:11017
        11 000552   000336 100003                    CMPX0   222,DU
        11 000553   000621 600000 11                 TZE     s:11017
        11 000554   000444 100003                    CMPX0   292,DU
        11 000555   000621 600000 11                 TZE     s:11017

      247    10985    2                 ILL$->ILL.ID ~= %PREOFF AND ILL$->ILL.ID ~= %P_A_PRESET AND
      248    10986    2                 ILL$->ILL.ID ~= %P_P_PRESET AND ILL$->ILL.ID ~= %END_PROG THEN
      249    10987                     /* These ILL items must be ignored for setting SCOPE.END_ILS$ */
      250    10988    3   UPDATE_PREV: DO ;

  10988 11 000556                       UPDATE_PREV  null
      251    10989    4                  IF ILL$->ILL.ID = %GO THEN DO ;

  10989 11 000556   000344 100003                    CMPX0   228,DU
        11 000557   000615 601000 11                 TNZ     s:11011

      252    10990    4                    TEMP$ = ILS$ ;

  10990 11 000560   000000 236000 1                  LDQ     ILS$
        11 000561   200026 756100                    STQ     TEMP$,,AUTO

      253    10991                         %NEXT_NON_SUPPORT (POINTER=TEMP$) ;

  11001 11 000562   200026 470500                    LDP0    TEMP$,,AUTO
        11 000563   000002 236100                    LDQ     2,,PR0
        11 000564   200026 756100                    STQ     TEMP$,,AUTO

  11004 11 000565   200026 470500                    LDP0    TEMP$,,AUTO
        11 000566   000003 236100                    LDQ     3,,PR0
PL6.E3A0      #001=Z8FB$PHASE2_PREPASS File=Z8FB.:Z8A6TSI                        SAT 08/09/97 13:02 Page:35
        11 000567   000000 116000 12                 CMPQ    0
        11 000570   000562 600000 11                 TZE     s:11001
        11 000571   000003 471500                    LDP1    3,,PR0
        11 000572   100000 220100                    LDX0    0,,PR1
        11 000573   000343 100003                    CMPX0   227,DU
        11 000574   000562 600000 11                 TZE     s:11001
        11 000575   000422 100003                    CMPX0   274,DU
        11 000576   000562 600000 11                 TZE     s:11001
        11 000577   000446 100003                    CMPX0   294,DU
        11 000600   000562 600000 11                 TZE     s:11001
        11 000601   000336 100003                    CMPX0   222,DU
        11 000602   000562 600000 11                 TZE     s:11001
        11 000603   000420 100003                    CMPX0   272,DU
        11 000604   000562 600000 11                 TZE     s:11001
        11 000605   000373 100003                    CMPX0   251,DU
        11 000606   000562 600000 11                 TZE     s:11001

      254    11006    4                    IF TEMP$->ILS.ILL$->ILL.ID = %DEFLB THEN

  11006 11 000607   000346 100003                    CMPX0   230,DU
        11 000610   000615 601000 11                 TNZ     s:11011

      255    11007    4                      IF TEMP$->ILS.ILL$->ILL.LOP->LABEL.B.ENTRY_POINT

  11007 11 000611   100001 473500                    LDP3    1,,PR1
        11 000612   300003 236100                    LDQ     3,,PR3
        11 000613   000002 316003                    CANQ    2,DU
        11 000614   000621 601000 11                 TNZ     s:11017

      256    11008    4                        THEN EXIT UPDATE_PREV ;
      257    11009                         /* For entry point LABEL.PREV_ILS$ is different - see Z8FL */
      258    11010    4                  END ;

      259    11011    3                  PREV_ILS$ = ILS$ ; /* Previous non-LINOI */

  11011 11 000615   000000 236000 1                  LDQ     ILS$
        11 000616   200017 756100                    STQ     PREV_ILS$,,AUTO
PL6.E3A0      #001=Z8FB$PHASE2_PREPASS File=Z8FB.:Z8A6TSI                        SAT 08/09/97 13:02 Page:36

      260    11012    3                  PREV_ILL$ = ILL$ ; /* Previous non-LINOI */

  11012 11 000617   000000 236000 3                  LDQ     ILL$
        11 000620   200020 756100                    STQ     PREV_ILL$,,AUTO

      261    11013    3                END ;

      262    11014
      263    11015                 %NEXT_ILS ;

  11017 11 000621   000000 470400 1                  LDP0    ILS$
        11 000622   000002 236100                    LDQ     2,,PR0
        11 000623   000000 756000 1                  STQ     ILS$

      264    11020
      265    11021    2          END /* DO WHILE ILS$ <> Nil */ ;

  11021 11 000624   000000 116000 12                 CMPQ    0
        11 000625   000020 601000 11                 TNZ     s:10811

      266    11022
      267    11023    1   END Z8FB$PHASE2_PREPASS ;

  11023 11 000626   000000 702200 xent               TSX2  ! X66_ARET

PL6.E3A0      #001=Z8FB$PHASE2_PREPASS File=Z8FB.:Z8A6TSI                        SAT 08/09/97 13:02 Page:37
--  Include file information  --

   Z8A_ERR_NUMS.:Z8A6TOU  is referenced.
   Z8F_O2COM.:Z8A6TOU  cannot be made into a system file and is referenced.
   Z8A_ST.:Z8A6TOU  cannot be made into a system file and is referenced.
   Z8A_LTS.:Z8A6TOU  cannot be made into a system file and is referenced.
   Z8A_LIBRARY.:Z8A6TOU  cannot be made into a system file and is referenced.
   Z8A_ILL.:Z8A6TOU  cannot be made into a system file and is referenced.
   Z8A_ILS.:Z8A6TOU  cannot be made into a system file and is referenced.
   Z8A_COMCOM.:Z8A6TOU  cannot be made into a system file and is referenced.
   X8A_COM_MACS.:X8A6TOU  is referenced.
   Z8A_NAMES.:Z8A6TOU  is referenced.
   Z8A_SUPP_MAC.:Z8A6TOU  is referenced.
   Z8A_DEFC.:Z8A6TOU  cannot be made into a system file and is referenced.
      No diagnostics issued in procedure Z8FB$PHASE2_PREPASS.
PL6.E3A0      #001=Z8FB$PHASE2_PREPASS File=Z8FB.:Z8A6TSI                        SAT 08/09/97 13:02 Page:38

 **** Variables and constants ****

  ****  Section 000 LblCom ITERATION

  ****  Scalars and arrays  ****
OctLoc.c.b A Datatyp(siz) R M Lvl/name                 OctLoc.c.b A Datatyp(siz) R M Lvl/name

     0-0-0/w SBIN              1 ITERATION

  ****  Section 001 LblCom ILS$

  ****  Scalars and arrays  ****
OctLoc.c.b A Datatyp(siz) R M Lvl/name                 OctLoc.c.b A Datatyp(siz) R M Lvl/name

     0-0-0/w PTR         r     1 ILS$

  ****  Section 002 LblCom ILS_

  ****  Scalars and arrays  ****
OctLoc.c.b A Datatyp(siz) R M Lvl/name                 OctLoc.c.b A Datatyp(siz) R M Lvl/name

     0-0-0/w STRC(180)         1 ILS_

  ****  Section 003 LblCom ILL$

  ****  Scalars and arrays  ****
OctLoc.c.b A Datatyp(siz) R M Lvl/name                 OctLoc.c.b A Datatyp(siz) R M Lvl/name

     0-0-0/w PTR         r     1 ILL$

  ****  Section 004 LblCom ILL_

  ****  Scalars and arrays  ****
OctLoc.c.b A Datatyp(siz) R M Lvl/name                 OctLoc.c.b A Datatyp(siz) R M Lvl/name

     0-0-0/w STRC(180)         1 ILL_

PL6.E3A0      #001=Z8FB$PHASE2_PREPASS File=Z8FB.:Z8A6TSI                        SAT 08/09/97 13:02 Page:39
  ****  Section 005 LblCom LTS$

  ****  Scalars and arrays  ****
OctLoc.c.b A Datatyp(siz) R M Lvl/name                 OctLoc.c.b A Datatyp(siz) R M Lvl/name

     0-0-0/w PTR               1 LONG_ITEM$                 0-0-0/w PTR         r     1 LTS$

  ****  Section 006 LblCom LTS_

  ****  Scalars and arrays  ****
OctLoc.c.b A Datatyp(siz) R M Lvl/name                 OctLoc.c.b A Datatyp(siz) R M Lvl/name

     0-0-0/w STRC(180)         1 LTS_

  ****  Section 007 LblCom ST$

  ****  Scalars and arrays  ****
OctLoc.c.b A Datatyp(siz) R M Lvl/name                 OctLoc.c.b A Datatyp(siz) R M Lvl/name

     0-0-0/w PTR         r     1 ST$

  ****  Section 008 LblCom ST_

  ****  Scalars and arrays  ****
OctLoc.c.b A Datatyp(siz) R M Lvl/name                 OctLoc.c.b A Datatyp(siz) R M Lvl/name

     0-0-0/w STRC(180)         1 ST_

  ****  Section 009 LblCom O2COM

  ****  Scalars and arrays  ****
OctLoc.c.b A Datatyp(siz) R M Lvl/name                 OctLoc.c.b A Datatyp(siz) R M Lvl/name

     0-0-0/w STRC(432)   r     1 O2COM

  ****  Section 010  Data  Z8FB$PHASE2_PREPASS

PL6.E3A0      #001=Z8FB$PHASE2_PREPASS File=Z8FB.:Z8A6TSI                        SAT 08/09/97 13:02 Page:40
  ****  Scalars and arrays  ****
OctLoc.c.b A Datatyp(siz) R M Lvl/name                 OctLoc.c.b A Datatyp(siz) R M Lvl/name

     1-0-0/w PTR         r     1 VAL_BEGIN$(0:2)
     0-0-0/w SBIN        r     1 VAL_LEVEL

  ****  Auto variables  ****

  ****  Scalars and arrays  ****
OctLoc.c.b A Datatyp(siz) R M Lvl/name                 OctLoc.c.b A Datatyp(siz) R M Lvl/name

    25-0-0/w UBIN        r     1 ENTRY_TYPE                24-0-0/w PTR         r     1 LAST_SCOPE$
     3-0-0/w STRC(324)         1 NAME                      23-0-0/w UBIN        r     1 PREV_COL
    20-0-0/w PTR         r     1 PREV_ILL$                 17-0-0/w PTR         r     1 PREV_ILS$
    22-0-0/w UBIN        r     1 PREV_LINE                 21-0-0/w PTR         r     1 PREV_LINOI_ILS$
    26-0-0/w PTR         r     1 TEMP$                     15-0-0/w PTR         r     1 T_BRANCH
    16-0-0/w PTR         r     1 T_DO                      14-0-0/w PTR         r     1 T_LBL

  ****  SYMREF variables  ****

  ****  Scalars and arrays  ****
OctLoc.c.b A Datatyp(siz) R M Lvl/name                 OctLoc.c.b A Datatyp(siz) R M Lvl/name

     0-0-0/d STRC(13248) r     1 COMCOM                     0-0-0/w UBIN              1 ILL_STEP(0:144)
     0-0-0/w UBIN              1 ILS_STEP_TABLE(0:2)
     0-0-0/w UBIN              1 LTS_STEP(0:37)

  ****  BASED and DCB variables  ****

  ****  Scalars and arrays  ****
OctLoc.c.b A Datatyp(siz) R M Lvl/name                 OctLoc.c.b A Datatyp(siz) R M Lvl/name

     0-0-0/w STRC(108)         1 ACCEPT_DISPLAY             0-0-0/w STRC(396)         1 ALPHABET
     0-0-0/w STRC(144)         1 ALTER_LTS                  0-0-0/w STRC(3672)        1 ALT_KEY
     0-0-0/w STRC(36864)       1 ARGLIST                    0-0-0/w STRC(396)         1 ARRAY
     0-0-0/w STRC(180)         1 ARRAY_PRESET_LTS           0-0-0/w STRC(288)         1 BASE_LTS
     0-0-0/w STRC(108)         1 BINARY_ILL                 0-0-0/w STRC(396)         1 BLOCK
PL6.E3A0      #001=Z8FB$PHASE2_PREPASS File=Z8FB.:Z8A6TSI                        SAT 08/09/97 13:02 Page:41
     0-0-0/w STRC(144)         1 BRANCH_ILL                 0-0-0/w STRC(144)         1 BT
     0-0-0/w STRC(216)         1 CCOSU                      0-0-0/w STRC(396)         1 CD
     0-0-0/w STRC(288)         1 CD_LTS                     0-0-0/w CHAR(4096)        1 CHARS
     0-0-0/w STRC(396)         1 CLASS                      0-0-0/w STRC(108)         1 CODED_MOVE
     0-0-0/w STRC(396)         1 CONDITION                  0-0-0/w STRC(396)         1 CONST
     0-0-0/w STRC(72)          1 CONT                       0-0-0/w STRC(540)         1 CONTROL_NAME_LTS
     0-0-0/w STRC(1872)        1 COPY_FILE                  0-0-0/w STRC(396)         1 DB
     0-0-0/w STRC(396)         1 DCB_                       0-0-0/w STRC(144)   r     1 DEFLB
     0-0-0/w STRC(108)         1 DEPENDING_SIZE             0-0-0/w STRC(5472)        1 DIMS
     0-0-0/w STRC(396)         1 DML_ITEM                   0-0-0/w STRC(216)         1 DML_REC
     0-0-0/w STRC(144)         1 DOEND                      0-0-0/w STRC(396)   r     1 DO_N
     0-0-0/w STRC(180)         1 DV4I                       0-0-0/w STRC(180)   r     1 ENTRY_ILL
     0-0-0/w STRC(108)         1 EVALU                      0-0-0/w STRC(73836)       1 EVALUATE
     0-0-0/w STRC(396)         1 FD                         0-0-0/w STRC(1692)        1 FILE_LTS
     0-0-0/w STRC(144)   r     1 GO                         0-0-0/w STRC(180)   r     1 ILL
     0-0-0/w STRC              1 ILL_NO_OPS                 0-0-0/w STRC(180)   r     1 ILS
     0-0-0/w STRC(108)         1 INDEXES                    0-0-0/w STRC(360)         1 INIT_LTS
     0-0-0/w STRC(396)         1 INTDEF                     0-0-0/w STRC(180)         1 IO_RESTORE_CHAIN
     0-0-0/w STRC(144)         1 KEY                        0-0-0/w STRC(396)   r     1 LABEL
     0-0-0/w STRC(36864)       1 LCNST                      0-0-0/w STRC(108)   r     1 LINOI
     0-0-0/w STRC(72)          1 LONG                       0-0-0/w STRC              1 LTS
     0-0-0/w STRC(360)         1 LTSS                       0-0-0/w STRC(36936)       1 LTS_PTR_ARRAY
     0-0-0/w STRC(72)          1 MFILL                      0-0-0/w STRC(396)         1 MNEMONIC
     0-0-0/w STRC(180)         1 MULTI_GO                   0-0-0/w STRC(180)         1 MVEAL
     0-0-0/w STRC(108)         1 MVFIL                      0-0-0/w STRC(72)          1 MVIIS
     0-0-0/w STRC(144)         1 NEL                        0-0-0/w STRC(216)         1 OPEN_LTS
     0-0-0/w STRC(144)         1 OPN                        0-0-0/w STRC(180)         1 OS_CALL
     0-0-0/w STRC(36864)       1 PAGE                       0-0-0/w STRC(396)         1 PARA
     0-0-0/w STRC(216)         1 PFORM                      0-0-0/w STRC(144)         1 PINC
     0-0-0/w STRC(144)         1 PREOFF                     0-0-0/w STRC(108)         1 PRESET
     0-0-0/w STRC(144)         1 PRIME                      0-0-0/w STRC(396)   r     1 PROC_
     0-0-0/w STRC(396)   r     1 PROC_DEF                   0-0-0/w STRC(900)         1 PROC_SUPP
     0-0-0/w STRC(144)         1 P_A_PRESET                 0-0-0/w STRC(144)         1 P_P_PRESET
     0-0-0/w STRC(396)         1 RD                         0-0-0/w STRC(216)         1 REF
     0-0-0/w STRC(144)         1 REMEM                      0-0-0/w STRC(108)         1 RENAMES
     0-0-0/w STRC(720)         1 REPORT_01_LTS              0-0-0/w STRC(432)         1 REPORT_ELEM_LTS
     0-0-0/w STRC(252)         1 REPORT_GRP_LTS             0-0-0/w STRC(1332)        1 REPORT_LTS
PL6.E3A0      #001=Z8FB$PHASE2_PREPASS File=Z8FB.:Z8A6TSI                        SAT 08/09/97 13:02 Page:42
     0-0-0/w STRC(144)         1 RVA_LTS                    0-0-0/w STRC(396)         1 SCALAR
     0-0-0/w STRC(144)   r     1 SCOPE                      0-0-0/w STRC(396)         1 SD
     0-0-0/w STRC(216)         1 SEARCH_                    0-0-0/w STRC(396)         1 SECTION
     0-0-0/w STRC(396)         1 SEGMENT                    0-0-0/w STRC(360)         1 SEGMENT_LTS
     0-0-0/w STRC(396)         1 ST                         0-0-0/w STRC(72)          1 STP2
     0-0-0/w STRC(252)         1 SUM_LTS                    0-0-0/w STRC(396)         1 SWITCH
     0-0-0/w STRC(396)         1 SYMBOLIC_CHAR              0-0-0/w STRC(396)         1 SYMDEF_
     0-0-0/w STRC(396)         1 SYMREF_                    0-0-0/w STRC(396)         1 TEMP
     0-0-0/w STRC(144)         1 TRINARY_ILL                0-0-0/w STRC(72)          1 UNARY_ILL
     0-0-0/d STRC(612)         1 USE                        0-0-0/w STRC(216)         1 USER_CALL
     0-0-0/w STRC(252)         1 USE_SUPP                   0-0-0/w STRC(108)   r     1 VAL
     0-0-0/w STRC(108)   r     1 VAL_END                    0-0-0/w STRC(396)         1 VARIABLE
     0-0-0/w STRC(72)          1 WHEN


   Procedure Z8FB$PHASE2_PREPASS requires 407 words for executable code.
   Procedure Z8FB$PHASE2_PREPASS requires 28 words of local(AUTO) storage.

    No errors detected in file Z8FB.:Z8A6TSI    .
