PL6.E3A0      #002=Z8FO$ALIGN_LENGTH File=Z8FO.:Z8A6TSI                          SAT 08/09/97 13:15 Page:224
     1162        1        /*M* Z8FO$ALIGN_LENGTH -- Determine length and alignment of a MOVE operand. */
     1163        2        /*T***********************************************************/
     1164        3        /*T*                                                         */
     1165        4        /*T* Copyright (c) Bull HN Information Systems Inc., 1997    */
     1166        5        /*T*                                                         */
     1167        6        /*T***********************************************************/
     1168        7        /*P*
     1169        8               NAME:  Z8FO$ALIGN_LENGTH
     1170        9            PURPOSE:  Determine length and alignment of a MOVE operand.
     1171       10        */
     1172       11        /*D*
     1173       12               NAME:  Z8FO$ALIGN_LENGTH
     1174       13               CALL:  CALL Z8FO$ALIGN_LENGTH (node, alignment_length);
     1175       14          INTERFACE:  Z8AU$TYPE_DESCRIPTOR -- Get information on a tree node.
     1176       15              INPUT:  node -- Pointer to a tree node.
     1177       16             OUTPUT:  alignment_length -- Representation of the alignment and
     1178       17                                          length of a tree operand.
     1179       18        DESCRIPTION:  Get info on the desired tree node. Encode it so that
     1180       19                      Z8FO$LOCAL_OPTIMIZER can know where in the word it starts and
     1181       20                      how long it is.
     1182       21        */
     1183       22        Z8FO$ALIGN_LENGTH:PROC(NODE$, ALIGNMENT_LENGTH) ALTRET;
     1184       23
     1185       24    1        DCL NODE$              PTR;
     1186       25
     1187       26             %INCLUDE Z8F_ALIGN;
     1188       49
     1189       50    1        DCL 1 ALIGNMENT_LENGTH ALIGNED,
     1190       51                   %ALIGNMENT_LENGTH;
     1191       55
     1192       56
     1193       57             %EQU PHASE = 2;
     1194       58             %INCLUDE Z8A_DEFC;
     1195      126             %INCLUDE Z8A_SUPP_MAC;
     1196     2526             %INCLUDE Z8A_TYPES;
     1197     2700             %INCLUDE Z8A_ETT;
     1198     3001             %INCLUDE Z8A_ST;
PL6.E3A0      #002=Z8FO$ALIGN_LENGTH File=Z8FO.:Z8A6TSI                          SAT 08/09/97 13:15 Page:225
     1199     6660
     1200     6661
     1201     6662    1        DCL Z8AU$TYPE_DESCRIPTOR     ENTRY(2);
     1202     6663
     1203     6664
     1204     6665
     1205     6666    1        DCL 1 TYPE_DESC ALIGNED,
     1206     6667                   %TYPE_DESC;
     1207     6701
     1208     6702    1        DCL   ST$$        PTR ;
     1209     6703
     1210     6704        %EJECT;
PL6.E3A0      #002=Z8FO$ALIGN_LENGTH File=Z8FO.:Z8A6TSI                          SAT 08/09/97 13:15 Page:226
     1211     6705             /* If it's a parameter, then the alignment is unknown. */
     1212     6706
     1213     6707             %FISH (TRIAD = NODE$, RTN = ST$$) ;
     1214     6715
     1215     6716    1        CALL Z8AU$TYPE_DESCRIPTOR(NODE$, TYPE_DESC);
     1216     6717
     1217     6718    2        IF TYPE_DESC.DESC.ADSC.TA ~= %ADSC9 THEN DO;
     1218     6719    2          ALIGNMENT_LENGTH.ALIGNMENT = %ALIGNMENT_UNKNOWN;
     1219     6720    2          ALTRETURN;
     1220     6721    2        END;
     1221     6722
     1222     6723    2        IF TYPE_DESC.SIZ$ ~= ADDR(NIL) THEN DO;
     1223     6724    3          IF TYPE_DESC.SIZ$ -> ETT.ID ~= %TRIAD THEN DO; /* Variable size */
     1224     6725    3            ALIGNMENT_LENGTH.ALIGNMENT = %ALIGNMENT_UNKNOWN;
     1225     6726    3            ALTRETURN;
     1226     6727    3          END;
     1227     6728    2          ALIGNMENT_LENGTH.LENGTH = TYPE_DESC.SIZ$ -> ETT.LOP
     1228     6729    2                                    -> CONST.CONSTI.WORD1;
     1229     6730    2        END;
     1230     6731    2        ELSE DO CASE(TYPE_DESC.TYPE);
     1231     6732    2          CASE(%TYA);
     1232     6733    2            ALIGNMENT_LENGTH.LENGTH = TYPE_DESC.DESC.ADSC.N;
     1233     6734
     1234     6735    2          CASE(ELSE);
     1235     6736    2            ALIGNMENT_LENGTH.LENGTH = TYPE_DESC.DESC.NDSC.N;
     1236     6737    2        END /* Case */;
     1237     6738
     1238     6739    2        IF ST$$ -> VARIABLE.B.LINKAGE THEN DO ;
     1239     6740    2          ALIGNMENT_LENGTH.ALIGNMENT = %ALIGNMENT_UNKNOWN ;
     1240     6741    2          RETURN ;
     1241     6742    2        END ; /* if it's a parameter */
     1242     6743
     1243     6744    1        IF TYPE_DESC.SSOP$ = ADDR(NIL) THEN
     1244     6745    2            DO CASE(TYPE_DESC.DESC.ADSC.CN);
     1245     6746    2              CASE(0);
     1246     6747    2                ALIGNMENT_LENGTH.ALIGNMENT = %ALIGNMENT_WORD;
     1247     6748
PL6.E3A0      #002=Z8FO$ALIGN_LENGTH File=Z8FO.:Z8A6TSI                          SAT 08/09/97 13:15 Page:227
     1248     6749    2                IF MOD(TYPE_DESC.DESC.SA, 2) = 0 THEN
     1249     6750    2                  ALIGNMENT_LENGTH.ALIGNMENT = %ALIGNMENT_DOUBLE;
     1250     6751
     1251     6752    2              CASE(1);
     1252     6753    2                ALIGNMENT_LENGTH.ALIGNMENT = %ALIGNMENT_BYTE1;
     1253     6754
     1254     6755    2              CASE(2);
     1255     6756    2                ALIGNMENT_LENGTH.ALIGNMENT = %ALIGNMENT_HALF;
     1256     6757
     1257     6758    2              CASE(3);
     1258     6759    2                ALIGNMENT_LENGTH.ALIGNMENT = %ALIGNMENT_BYTE3;
     1259     6760
     1260     6761    2            END /* Case */;
     1261     6762    1        ELSE
     1262     6763    2          DO;
     1263     6764    2            ALIGNMENT_LENGTH.ALIGNMENT = %ALIGNMENT_UNKNOWN;
     1264     6765    2            ALIGNMENT_LENGTH.LENGTH    = TYPE_DESC.DESC.NDSC.N;
     1265     6766
     1266     6767                 /*N* SSOP_OPTIMIZATIONS NEEDED HERE. THE ABOVE IS TEMPORARY */
     1267     6768    2          END;
     1268     6769    1   END Z8FO$ALIGN_LENGTH;

PL6.E3A0      #002=Z8FO$ALIGN_LENGTH File=Z8FO.:Z8A6TSI                          SAT 08/09/97 13:15 Page:228
--  Include file information  --

   Z8A_ST.:Z8A6TOU  cannot be made into a system file and is referenced.
   Z8A_ETT.:Z8A6TOU  cannot be made into a system file and is referenced.
   Z8A_TYPES.:Z8A6TOU  is referenced.
   X8A_COM_MACS.:X8A6TOU  is referenced.
   Z8A_NAMES.:Z8A6TOU  is referenced.
   Z8A_SUPP_MAC.:Z8A6TOU  is referenced.
   Z8A_DEFC.:Z8A6TOU  cannot be made into a system file and is referenced.
   Z8F_ALIGN.:Z8A6TOU  is referenced.
      No diagnostics issued in procedure Z8FO$ALIGN_LENGTH.

   Procedure Z8FO$ALIGN_LENGTH requires 111 words for executable code.
   Procedure Z8FO$ALIGN_LENGTH requires 12 words of local(AUTO) storage.

    No errors detected in file Z8FO.:Z8A6TSI    .

PL6.E3A0      #002=Z8FO$ALIGN_LENGTH File=Z8FO.:Z8A6TSI                          SAT 08/09/97 13:15 Page:229

 Object Unit name= Z8FO$ALIGN_LENGTH                          File name= Z8FO.:Z8A6TOU
 UTS= AUG 09 '97 13:15:18.00 SAT                              Compiler= PL-6/E31         Sev=      00
 SharedLib= :SHARED_SYSTEM                                    Alt SharedLib=


    ****  Control sections  ****

 Sect   Type Bound  Init  Size OctSiz  Section name(segment info)
    0  LblCom even  none     1      1  ITERATION
    1  LblCom even  none     1      1  ETT$
    2  LblCom even  none     1      1  HEAD_ETT$
    3  LblCom even  none   512   1000  ETT_BUCKETS
    4  LblCom even  none     5      5  ETT_
    5  LblCom even  none     1      1  ST$
    6  LblCom even  none     5      5  ST_
    7   Proc  even  none   111    157  Z8FO$ALIGN_LENGTH
    8  RoData even  none     2      2  Z8FO$ALIGN_LENGTH

    ****  Entry defs  ****

                              Check   Calling
                             calling  sequence
  Sect OctLoc Primary Altret sequence   type   Parms  Name
     7      0   yes    yes     yes      Std        2  Z8FO$ALIGN_LENGTH

  ****  Entry refs  ****

         Check        Calling
        calling       sequence
Altret sequence SRef   type   Args  Name
         yes           Std       2 Z8AU$TYPE_DESCRIPTOR
                       nStd      0 X66_AUTO_2
                       nStd      0 X66_AALT
                       nStd      0 X66_ARET
PL6.E3A0      #002=Z8FO$ALIGN_LENGTH File=Z8FO.:Z8A6TSI                          SAT 08/09/97 13:15 Page:230

  ****  Segment refs  ****

  Flags:  r = read only, s = secondary
Flgs Name                             Flgs Name                             Flgs Name
     NULLSID
PL6.E3A0      #002=Z8FO$ALIGN_LENGTH File=Z8FO.:Z8A6TSI                          SAT 08/09/97 13:15 Page:231


     1162        1        /*M* Z8FO$ALIGN_LENGTH -- Determine length and alignment of a MOVE operand. */
     1163        2        /*T***********************************************************/
     1164        3        /*T*                                                         */
     1165        4        /*T* Copyright (c) Bull HN Information Systems Inc., 1997    */
     1166        5        /*T*                                                         */
     1167        6        /*T***********************************************************/
     1168        7        /*P*
     1169        8               NAME:  Z8FO$ALIGN_LENGTH
     1170        9            PURPOSE:  Determine length and alignment of a MOVE operand.
     1171       10        */
     1172       11        /*D*
     1173       12               NAME:  Z8FO$ALIGN_LENGTH
     1174       13               CALL:  CALL Z8FO$ALIGN_LENGTH (node, alignment_length);
     1175       14          INTERFACE:  Z8AU$TYPE_DESCRIPTOR -- Get information on a tree node.
     1176       15              INPUT:  node -- Pointer to a tree node.
     1177       16             OUTPUT:  alignment_length -- Representation of the alignment and
     1178       17                                          length of a tree operand.
     1179       18        DESCRIPTION:  Get info on the desired tree node. Encode it so that
     1180       19                      Z8FO$LOCAL_OPTIMIZER can know where in the word it starts and
     1181       20                      how long it is.
     1182       21        */
     1183       22        Z8FO$ALIGN_LENGTH:PROC(NODE$, ALIGNMENT_LENGTH) ALTRET;

     22  7 000000   000000 700200 xent  Z8FO$ALIGN_* TSX0  ! X66_AUTO_2
         7 000001   000014 000002                    ZERO    12,2

     1184       23
     1185       24    1        DCL NODE$              PTR;
     1186       25
     1187       26             %INCLUDE Z8F_ALIGN;
     1188       49
     1189       50    1        DCL 1 ALIGNMENT_LENGTH ALIGNED,
     1190       51                   %ALIGNMENT_LENGTH;
     1191       55
     1192       56
     1193       57             %EQU PHASE = 2;
PL6.E3A0      #002=Z8FO$ALIGN_LENGTH File=Z8FO.:Z8A6TSI                          SAT 08/09/97 13:15 Page:232
     1194       58             %INCLUDE Z8A_DEFC;
     1195      126             %INCLUDE Z8A_SUPP_MAC;
     1196     2526             %INCLUDE Z8A_TYPES;
     1197     2700             %INCLUDE Z8A_ETT;
     1198     3001             %INCLUDE Z8A_ST;
     1199     6660
     1200     6661
     1201     6662    1        DCL Z8AU$TYPE_DESCRIPTOR     ENTRY(2);
     1202     6663
     1203     6664
     1204     6665
     1205     6666    1        DCL 1 TYPE_DESC ALIGNED,
     1206     6667                   %TYPE_DESC;
     1207     6701
     1208     6702    1        DCL   ST$$        PTR ;
     1209     6703
     1210     6704        %EJECT;
PL6.E3A0      #002=Z8FO$ALIGN_LENGTH File=Z8FO.:Z8A6TSI                          SAT 08/09/97 13:15 Page:233
     1211     6705             /* If it's a parameter, then the alignment is unknown. */
     1212     6706
     1213     6707             %FISH (TRIAD = NODE$, RTN = ST$$) ;

   6709  7 000002   200003 470500                    LDP0    @NODE$,,AUTO
         7 000003   000000 236100                    LDQ     0,,PR0
         7 000004   200011 756100                    STQ     ST$$,,AUTO

   6710  7 000005   200011 471500                    LDP1    ST$$,,AUTO
         7 000006   100000 220100                    LDX0    0,,PR1
         7 000007   000751 100003                    CMPX0   489,DU
         7 000010   000020 603000 7                  TRC     s:6716

   6711  7 000011   200011 470500                    LDP0    ST$$,,AUTO
         7 000012   000001 236100                    LDQ     1,,PR0
         7 000013   200011 756100                    STQ     ST$$,,AUTO

   6712  7 000014   200011 470500                    LDP0    ST$$,,AUTO
         7 000015   000000 220100                    LDX0    0,,PR0
         7 000016   000751 100003                    CMPX0   489,DU
         7 000017   000011 602000 7                  TNC     s:6711

     1214     6715
     1215     6716    1        CALL Z8AU$TYPE_DESCRIPTOR(NODE$, TYPE_DESC);

   6716  7 000020   200005 630500                    EPPR0   TYPE_DESC,,AUTO
         7 000021   200013 450500                    STP0    ST$$+2,,AUTO
         7 000022   200003 236100                    LDQ     @NODE$,,AUTO
         7 000023   200012 756100                    STQ     ST$$+1,,AUTO
         7 000024   200012 630500                    EPPR0   ST$$+1,,AUTO
         7 000025   000000 631400 8                  EPPR1   0
         7 000026   000000 701000 xent               TSX1    Z8AU$TYPE_DESCRIPTOR
         7 000027   000000 011000                    NOP     0

     1216     6717
     1217     6718    2        IF TYPE_DESC.DESC.ADSC.TA ~= %ADSC9 THEN DO;

PL6.E3A0      #002=Z8FO$ALIGN_LENGTH File=Z8FO.:Z8A6TSI                          SAT 08/09/97 13:15 Page:234
   6718  7 000030   200006 236100                    LDQ     TYPE_DESC+1,,AUTO
         7 000031   060000 316007                    CANQ    24576,DL
         7 000032   000037 600000 7                  TZE     s:6723

     1218     6719    2          ALIGNMENT_LENGTH.ALIGNMENT = %ALIGNMENT_UNKNOWN;

   6719  7 000033   000005 235007                    LDA     5,DL
         7 000034   200004 470500                    LDP0    @ALIGNMENT_LENGTH,,AUTO
         7 000035   000000 755100                    STA     0,,PR0

     1219     6720    2          ALTRETURN;

   6720  7 000036   000000 702200 xent               TSX2  ! X66_AALT

     1220     6721    2        END;
     1221     6722
     1222     6723    2        IF TYPE_DESC.SIZ$ ~= ADDR(NIL) THEN DO;

   6723  7 000037   200007 236100                    LDQ     TYPE_DESC+2,,AUTO
         7 000040   000001 116000 8                  CMPQ    1
         7 000041   000057 600000 7                  TZE     s:6731

     1223     6724    3          IF TYPE_DESC.SIZ$ -> ETT.ID ~= %TRIAD THEN DO; /* Variable size */

   6724  7 000042   200007 470500                    LDP0    TYPE_DESC+2,,AUTO
         7 000043   000000 220100                    LDX0    0,,PR0
         7 000044   000015 100003                    CMPX0   13,DU
         7 000045   000052 600000 7                  TZE     s:6728

     1224     6725    3            ALIGNMENT_LENGTH.ALIGNMENT = %ALIGNMENT_UNKNOWN;

   6725  7 000046   000005 235007                    LDA     5,DL
         7 000047   200004 471500                    LDP1    @ALIGNMENT_LENGTH,,AUTO
         7 000050   100000 755100                    STA     0,,PR1

     1225     6726    3            ALTRETURN;

PL6.E3A0      #002=Z8FO$ALIGN_LENGTH File=Z8FO.:Z8A6TSI                          SAT 08/09/97 13:15 Page:235
   6726  7 000051   000000 702200 xent               TSX2  ! X66_AALT

     1226     6727    3          END;
     1227     6728    2          ALIGNMENT_LENGTH.LENGTH = TYPE_DESC.SIZ$ -> ETT.LOP

   6728  7 000052   000001 471500                    LDP1    1,,PR0
         7 000053   200004 473500                    LDP3    @ALIGNMENT_LENGTH,,AUTO
         7 000054   100010 235100                    LDA     8,,PR1
         7 000055   300001 755100                    STA     1,,PR3

     1228     6729    2                                    -> CONST.CONSTI.WORD1;
     1229     6730    2        END;

   6730  7 000056   000076 710000 7                  TRA     s:6739

     1230     6731    2        ELSE DO CASE(TYPE_DESC.TYPE);

   6731  7 000057   200005 235100                    LDA     TYPE_DESC,,AUTO
         7 000060   000010 135007                    SBLA    8,DL
         7 000061   000001 115007                    CMPA    1,DL
         7 000062   000064 602005 7                  TNC     s:6731+5,AL
         7 000063   000072 710000 7                  TRA     s:6736
         7 000064   000065 710000 7                  TRA     s:6733

     1231     6732    2          CASE(%TYA);

     1232     6733    2            ALIGNMENT_LENGTH.LENGTH = TYPE_DESC.DESC.ADSC.N;

   6733  7 000065   200006 236100                    LDQ     TYPE_DESC+1,,AUTO
         7 000066   007777 376007                    ANQ     4095,DL
         7 000067   200004 470500                    LDP0    @ALIGNMENT_LENGTH,,AUTO
         7 000070   000001 756100                    STQ     1,,PR0
         7 000071   000076 710000 7                  TRA     s:6739

     1233     6734
     1234     6735    2          CASE(ELSE);

PL6.E3A0      #002=Z8FO$ALIGN_LENGTH File=Z8FO.:Z8A6TSI                          SAT 08/09/97 13:15 Page:236
     1235     6736    2            ALIGNMENT_LENGTH.LENGTH = TYPE_DESC.DESC.NDSC.N;

   6736  7 000072   200006 236100                    LDQ     TYPE_DESC+1,,AUTO
         7 000073   000077 376007                    ANQ     63,DL
         7 000074   200004 470500                    LDP0    @ALIGNMENT_LENGTH,,AUTO
         7 000075   000001 756100                    STQ     1,,PR0

     1236     6737    2        END /* Case */;

     1237     6738
     1238     6739    2        IF ST$$ -> VARIABLE.B.LINKAGE THEN DO ;

   6739  7 000076   200011 470500                    LDP0    ST$$,,AUTO
         7 000077   000003 236100                    LDQ     3,,PR0
         7 000100   000002 316003                    CANQ    2,DU
         7 000101   000106 600000 7                  TZE     s:6744

     1239     6740    2          ALIGNMENT_LENGTH.ALIGNMENT = %ALIGNMENT_UNKNOWN ;

   6740  7 000102   000005 235007                    LDA     5,DL
         7 000103   200004 471500                    LDP1    @ALIGNMENT_LENGTH,,AUTO
         7 000104   100000 755100                    STA     0,,PR1

     1240     6741    2          RETURN ;

   6741  7 000105   000000 702200 xent               TSX2  ! X66_ARET

     1241     6742    2        END ; /* if it's a parameter */
     1242     6743
     1243     6744    1        IF TYPE_DESC.SSOP$ = ADDR(NIL) THEN

   6744  7 000106   200010 236100                    LDQ     TYPE_DESC+3,,AUTO
         7 000107   000001 116000 8                  CMPQ    1
         7 000110   000150 601000 7                  TNZ     s:6764

     1244     6745    2            DO CASE(TYPE_DESC.DESC.ADSC.CN);

PL6.E3A0      #002=Z8FO$ALIGN_LENGTH File=Z8FO.:Z8A6TSI                          SAT 08/09/97 13:15 Page:237
   6745  7 000111   200006 236100                    LDQ     TYPE_DESC+1,,AUTO
         7 000112   000020 772000                    QRL     16
         7 000113   000003 376007                    ANQ     3,DL
         7 000114   000004 116007                    CMPQ    4,DL
         7 000115   000117 602006 7                  TNC     s:6745+6,QL
         7 000116   000156 710000 7                  TRA     s:6769
         7 000117   000123 710000 7                  TRA     s:6747
         7 000120   000134 710000 7                  TRA     s:6753
         7 000121   000140 710000 7                  TRA     s:6756
         7 000122   000144 710000 7                  TRA     s:6759

     1245     6746    2              CASE(0);

     1246     6747    2                ALIGNMENT_LENGTH.ALIGNMENT = %ALIGNMENT_WORD;

   6747  7 000123   200004 471500                    LDP1    @ALIGNMENT_LENGTH,,AUTO
         7 000124   100000 450100                    STZ     0,,PR1

     1247     6748
     1248     6749    2                IF MOD(TYPE_DESC.DESC.SA, 2) = 0 THEN

   6749  7 000125   200006 236100                    LDQ     TYPE_DESC+1,,AUTO
         7 000126   000022 772000                    QRL     18
         7 000127   000001 376007                    ANQ     1,DL
         7 000130   000156 601000 7                  TNZ     s:6769

     1249     6750    2                  ALIGNMENT_LENGTH.ALIGNMENT = %ALIGNMENT_DOUBLE;

   6750  7 000131   000001 235007                    LDA     1,DL
         7 000132   100000 755100                    STA     0,,PR1
         7 000133   000156 710000 7                  TRA     s:6769

     1250     6751
     1251     6752    2              CASE(1);

     1252     6753    2                ALIGNMENT_LENGTH.ALIGNMENT = %ALIGNMENT_BYTE1;

PL6.E3A0      #002=Z8FO$ALIGN_LENGTH File=Z8FO.:Z8A6TSI                          SAT 08/09/97 13:15 Page:238
   6753  7 000134   000003 235007                    LDA     3,DL
         7 000135   200004 471500                    LDP1    @ALIGNMENT_LENGTH,,AUTO
         7 000136   100000 755100                    STA     0,,PR1
         7 000137   000156 710000 7                  TRA     s:6769

     1253     6754
     1254     6755    2              CASE(2);

     1255     6756    2                ALIGNMENT_LENGTH.ALIGNMENT = %ALIGNMENT_HALF;

   6756  7 000140   000002 235007                    LDA     2,DL
         7 000141   200004 471500                    LDP1    @ALIGNMENT_LENGTH,,AUTO
         7 000142   100000 755100                    STA     0,,PR1
         7 000143   000156 710000 7                  TRA     s:6769

     1256     6757
     1257     6758    2              CASE(3);

     1258     6759    2                ALIGNMENT_LENGTH.ALIGNMENT = %ALIGNMENT_BYTE3;

   6759  7 000144   000004 235007                    LDA     4,DL
         7 000145   200004 471500                    LDP1    @ALIGNMENT_LENGTH,,AUTO
         7 000146   100000 755100                    STA     0,,PR1

     1259     6760
     1260     6761    2            END /* Case */;

   6761  7 000147   000156 710000 7                  TRA     s:6769

     1261     6762    1        ELSE
     1262     6763    2          DO;

     1263     6764    2            ALIGNMENT_LENGTH.ALIGNMENT = %ALIGNMENT_UNKNOWN;

   6764  7 000150   000005 235007                    LDA     5,DL
         7 000151   200004 471500                    LDP1    @ALIGNMENT_LENGTH,,AUTO
         7 000152   100000 755100                    STA     0,,PR1
PL6.E3A0      #002=Z8FO$ALIGN_LENGTH File=Z8FO.:Z8A6TSI                          SAT 08/09/97 13:15 Page:239

     1264     6765    2            ALIGNMENT_LENGTH.LENGTH    = TYPE_DESC.DESC.NDSC.N;

   6765  7 000153   200006 236100                    LDQ     TYPE_DESC+1,,AUTO
         7 000154   000077 376007                    ANQ     63,DL
         7 000155   100001 756100                    STQ     1,,PR1

     1265     6766
     1266     6767                 /*N* SSOP_OPTIMIZATIONS NEEDED HERE. THE ABOVE IS TEMPORARY */
     1267     6768    2          END;

     1268     6769    1   END Z8FO$ALIGN_LENGTH;

   6769  7 000156   000000 702200 xent               TSX2  ! X66_ARET

PL6.E3A0      #002=Z8FO$ALIGN_LENGTH File=Z8FO.:Z8A6TSI                          SAT 08/09/97 13:15 Page:240
--  Include file information  --

   Z8A_ST.:Z8A6TOU  cannot be made into a system file and is referenced.
   Z8A_ETT.:Z8A6TOU  cannot be made into a system file and is referenced.
   Z8A_TYPES.:Z8A6TOU  is referenced.
   X8A_COM_MACS.:X8A6TOU  is referenced.
   Z8A_NAMES.:Z8A6TOU  is referenced.
   Z8A_SUPP_MAC.:Z8A6TOU  is referenced.
   Z8A_DEFC.:Z8A6TOU  cannot be made into a system file and is referenced.
   Z8F_ALIGN.:Z8A6TOU  is referenced.
      No diagnostics issued in procedure Z8FO$ALIGN_LENGTH.
PL6.E3A0      #002=Z8FO$ALIGN_LENGTH File=Z8FO.:Z8A6TSI                          SAT 08/09/97 13:15 Page:241

 **** Variables and constants ****

  ****  Section 000 LblCom ITERATION

  ****  Scalars and arrays  ****
OctLoc.c.b A Datatyp(siz) R M Lvl/name                 OctLoc.c.b A Datatyp(siz) R M Lvl/name

     0-0-0/w SBIN              1 ITERATION

  ****  Section 001 LblCom ETT$

  ****  Scalars and arrays  ****
OctLoc.c.b A Datatyp(siz) R M Lvl/name                 OctLoc.c.b A Datatyp(siz) R M Lvl/name

     0-0-0/w PTR         r     1 ETT$

  ****  Section 002 LblCom HEAD_ETT$

  ****  Scalars and arrays  ****
OctLoc.c.b A Datatyp(siz) R M Lvl/name                 OctLoc.c.b A Datatyp(siz) R M Lvl/name

     0-0-0/w PTR               1 HEAD_ETT$

  ****  Section 003 LblCom ETT_BUCKETS

  ****  Scalars and arrays  ****
OctLoc.c.b A Datatyp(siz) R M Lvl/name                 OctLoc.c.b A Datatyp(siz) R M Lvl/name

     0-0-0/w PTR               1 ETT_BUCKETS(0:511)

  ****  Section 004 LblCom ETT_

  ****  Scalars and arrays  ****
OctLoc.c.b A Datatyp(siz) R M Lvl/name                 OctLoc.c.b A Datatyp(siz) R M Lvl/name

     0-0-0/w STRC(180)         1 ETT_

PL6.E3A0      #002=Z8FO$ALIGN_LENGTH File=Z8FO.:Z8A6TSI                          SAT 08/09/97 13:15 Page:242
  ****  Section 005 LblCom ST$

  ****  Scalars and arrays  ****
OctLoc.c.b A Datatyp(siz) R M Lvl/name                 OctLoc.c.b A Datatyp(siz) R M Lvl/name

     0-0-0/w PTR         r     1 ST$

  ****  Section 006 LblCom ST_

  ****  Scalars and arrays  ****
OctLoc.c.b A Datatyp(siz) R M Lvl/name                 OctLoc.c.b A Datatyp(siz) R M Lvl/name

     0-0-0/w STRC(180)         1 ST_

  ****  Auto variables  ****

  ****  Scalars and arrays  ****
OctLoc.c.b A Datatyp(siz) R M Lvl/name                 OctLoc.c.b A Datatyp(siz) R M Lvl/name

     4-0-0/w PTR         r     1 @ALIGNMENT_LENGTH          3-0-0/w PTR         r     1 @NODE$
    *0-0-0/w STRC(72)    r     1 ALIGNMENT_LENGTH          *0-0-0/w PTR         r     1 NODE$
    11-0-0/w PTR         r     1 ST$$                       5-0-0/w STRC(144)   r     1 TYPE_DESC

  ****  BASED and DCB variables  ****

  ****  Scalars and arrays  ****
OctLoc.c.b A Datatyp(siz) R M Lvl/name                 OctLoc.c.b A Datatyp(siz) R M Lvl/name

     0-0-0/w STRC(396)         1 ALPHABET                   0-0-0/w STRC(396)         1 ARRAY
     0-0-0/w STRC(396)         1 BLOCK                      0-0-0/w STRC(396)         1 CD
     0-0-0/w CHAR(4096)        1 CHARS                      0-0-0/w STRC(396)         1 CLASS
     0-0-0/w STRC(396)         1 CONDITION                  0-0-0/w STRC(396)   r     1 CONST
     0-0-0/w STRC(72)          1 CONT                       0-0-0/w STRC(396)         1 DB
     0-0-0/w STRC(396)         1 DCB_                       0-0-0/w STRC(396)         1 DML_ITEM
     0-0-0/w STRC(180)   r     1 ETT                        0-0-0/w STRC(396)         1 FD
     0-0-0/w STRC(396)         1 INTDEF                     0-0-0/w STRC(396)         1 LABEL
     0-0-0/w STRC(396)         1 MNEMONIC                   0-0-0/w STRC(36864)       1 PAGE
PL6.E3A0      #002=Z8FO$ALIGN_LENGTH File=Z8FO.:Z8A6TSI                          SAT 08/09/97 13:15 Page:243
     0-0-0/w STRC(396)         1 PARA                       0-0-0/w STRC(396)         1 PROC_
     0-0-0/w STRC(396)         1 PROC_DEF                   0-0-0/w STRC(396)         1 RD
     0-0-0/w STRC(396)         1 SCALAR                     0-0-0/w STRC(396)         1 SD
     0-0-0/w STRC(396)         1 SECTION                    0-0-0/w STRC(396)         1 SEGMENT
     0-0-0/w STRC(396)         1 ST                         0-0-0/w STRC(396)         1 SWITCH
     0-0-0/w STRC(396)         1 SYMBOLIC_CHAR              0-0-0/w STRC(396)         1 SYMDEF_
     0-0-0/w STRC(396)         1 SYMREF_                    0-0-0/w STRC(396)         1 TEMP
     0-0-0/w STRC(396)   r     1 VARIABLE


   Procedure Z8FO$ALIGN_LENGTH requires 111 words for executable code.
   Procedure Z8FO$ALIGN_LENGTH requires 12 words of local(AUTO) storage.

    No errors detected in file Z8FO.:Z8A6TSI    .
