PL6.E3A0      #002=Z8GO$CHECK_OP File=Z8GO.:Z8A6TSI                              TUE 08/26/97 07:55 Page:257
     1287        1        /*T***********************************************************/
     1288        2        /*T*                                                         */
     1289        3        /*T* Copyright (c) Bull HN Information Systems Inc., 1997    */
     1290        4        /*T*                                                         */
     1291        5        /*T***********************************************************/
     1292        6        Z8GO$CHECK_OP: PROC (NODE$);
     1293        7
     1294        8        /*I*   NAME: Z8GO$CHECK_OP
     1295        9               CALL: CALL Z8GO$CHECK_OP (NODE$);
     1296       10              INPUT: NODE$ -- ETT item to be examined for optimization
     1297       11             OUTPUT: NODE$ -- Optimized ETT item
     1298       12        DESCRIPTION: NODE$ points to an ETT tree that may contain variables
     1299       13                     masquerading as constants (i.e., declared in WORKING
     1300       14                     STORAGE with a VALUE clause and never redefined). This
     1301       15                     routine replaces the variable by the associated constant
     1302       16                     and propagates it up the tree via recursive calls.
     1303       17        */
     1304       18
     1305       19        %EQU PHASE = 3;
     1306       20        %INCLUDE Z8A_DEFC;
     1307       88        %INCLUDE Z9A_FLAGS;
     1308      102        %INCLUDE Z8A_NAMES;
     1309     1902        %INCLUDE X8A_COM_MACS;
     1310     2006        %INCLUDE Z8A_ETT;
     1311     2307        %INCLUDE Z8A_ST;
     1312     5966        %INCLUDE Z8A_DNT;
     1313     6187        %INCLUDE Z8A_QLT;
     1314     6293        %INCLUDE Z8A_MKCN;  /* DCL MKCN  for Z8AC$MAKE_CONST */
     1315     6310        %INCLUDE Z8A_TYPES;
     1316     6484        %EJECT;
PL6.E3A0      #002=Z8GO$CHECK_OP File=Z8GO.:Z8A6TSI                              TUE 08/26/97 07:55 Page:258
     1317     6485    1   DCL  NODE$     PTR; /* Input/Output parameter */
     1318     6486    1   DCL  LOP$      PTR; /* Left operand of NODE$  */
     1319     6487    1   DCL  ROP$      PTR; /* Right operand of NODE$ */
     1320     6488    1   DCL  ST$$      PTR; /* Symbol Table Pointer   */
     1321     6489    1   DCL  OLD_NODE$ PTR; /* Save NODE$ pointer     */
     1322     6490
     1323     6491    1   DCL  Z8AC$MAKE_CONST ENTRY (1);
     1324     6492    1   DCL  Z8AF$NEW_OFF    ENTRY (3);
     1325     6493    1   DCL  Z8AF$FORME      ENTRY (4);
     1326     6494
     1327     6495    1   CHECK_OP: /* Z8GO$CHECK_OP DELTA Breakpoint */
     1328     6496
     1329     6497    2   DO CASE (NODE$ -> ETT.ID);
     1330     6498
     1331     6499    2     CASE (%BASE); /* Replace by const if FDP/BDP = 0/inf */
     1332     6500
     1333     6501    2       ST$$ = NODE$ -> ETT.LOP;
     1334     6502    2       IF ST$$ -> ST.ID ~= %SCALAR THEN
     1335     6503    2         RETURN;
     1336     6504
     1337     6505    2       CALL CHECK_FOR_REDEFS (ST$$)
     1338     6506    3         WHENRETURN DO;
     1339     6507    3           IF  ST$$ -> SCALAR.LTS$ ~= ADDR(NIL)
     1340     6508    4           AND ST$$ -> SCALAR.LTS$ -> ETT.ID = %TRIAD THEN DO;
     1341     6509    4             NODE$ -> ETT.COUNT = 0;
     1342     6510    4             NODE$ = ST$$ -> SCALAR.LTS$;
     1343     6511    4           END;
     1344     6512    3         END; /* When normal return from CHECK_FOR_REDEFS */
     1345     6513
     1346     6514    2     CASE (%SSOP); /* SubScript OPeration */
     1347     6515
     1348     6516    2       ROP$ = NODE$ -> ETT.ROP; /* Subscript expression */
     1349     6517    2       CALL Z8GO$CHECK_OP (ROP$);
     1350     6518
     1351     6519    3       IF ROP$ -> ETT.ID = %TRIAD /* Constant */ THEN DO;
     1352     6520    3         NODE$ -> ETT.ROP = ROP$;
     1353     6521    3         CALL REPLACE_SSOP_BY_OFF (NODE$);
PL6.E3A0      #002=Z8GO$CHECK_OP File=Z8GO.:Z8A6TSI                              TUE 08/26/97 07:55 Page:259
     1354     6522    3       END; /* ROP of SSOP is a constant */
     1355     6523
     1356     6524    2     CASE (%CVDI);  /* Decimal to Binary */
     1357     6525
     1358     6526    2       LOP$ = NODE$ -> ETT.LOP;  /* DTB operand */
     1359     6527
     1360     6528    2       IF LOP$ -> ETT.ID = %CVDSF THEN
     1361     6529    2         LOP$ = LOP$ -> ETT.LOP;
     1362     6530
     1363     6531    2       CALL Z8GO$CHECK_OP (LOP$);
     1364     6532
     1365     6533    2       OLD_NODE$ = NODE$;
     1366     6534    2       IF LOP$ -> ETT.ID = %TRIAD THEN  /* Constant */
     1367     6535    2         CALL REPLACE_DEC_CONST_BY_BINARY (NODE$, LOP$)
     1368     6536    3           WHENRETURN DO;
     1369     6537    3             OLD_NODE$ -> ETT.COUNT = 0;
     1370     6538    3           END;
     1371     6539
     1372     6540    2     CASE (%CVID4, %CVID9); /* Binary to Decimal */
     1373     6541
     1374     6542    2       LOP$ = NODE$ -> ETT.LOP;
     1375     6543    2       CALL Z8GO$CHECK_OP (LOP$);
     1376     6544
     1377     6545    2       IF LOP$ -> ETT.ID = %TRIAD THEN /* Constant */
     1378     6546    2         CALL REPLACE_BIN_CONST_BY_DECIMAL (NODE$, LOP$);
     1379     6547
     1380     6548    2     CASE (%ADD, %SBD, %MPD, %DVD,  /* 2 operand operations */
     1381     6549    2           %ADI, %SBI, %MPI, %DVI);
     1382     6550
     1383     6551    2       CALL Z8GO$CHECK_OP (NODE$ -> ETT.LOP); /* Check left  op. */
     1384     6552    2       CALL Z8GO$CHECK_OP (NODE$ -> ETT.ROP); /* Check right op. */
     1385     6553
     1386     6554    2       IF  NODE$ -> ETT.LOP -> ETT.ID = %TRIAD /* constant */
     1387     6555    2       AND NODE$ -> ETT.ROP -> ETT.ID = %TRIAD THEN
     1388     6556    2         CALL DO_CONSTANT_ARITH (NODE$);
     1389     6557
     1390     6558    2     CASE (%CMPD);  /* Compare Decimal -- change to CMPI? */
PL6.E3A0      #002=Z8GO$CHECK_OP File=Z8GO.:Z8A6TSI                              TUE 08/26/97 07:55 Page:260
     1391     6559
     1392     6560    2       CALL Z8GO$CHECK_OP (NODE$ -> ETT.LOP);
     1393     6561    2       CALL Z8GO$CHECK_OP (NODE$ -> ETT.ROP);
     1394     6562    2       LOP$ = NODE$ -> ETT.LOP;
     1395     6563    2       ROP$ = NODE$ -> ETT.ROP;
     1396     6564
     1397     6565    2       IF (LOP$ -> ETT.ID = %CVID4
     1398     6566    2        OR LOP$ -> ETT.ID = %CVID9)
     1399     6567    3       AND ROP$ -> ETT.ID = %TRIAD THEN DO;
     1400     6568    3         LOP$ = LOP$ -> ETT.LOP; /* LOP of CVID is TYI */
     1401     6569    3         CALL REPLACE_DEC_CONST_BY_BINARY (ROP$, ROP$)
     1402     6570    4           WHENALTRETURN DO;
     1403     6571    4             RETURN;
     1404     6572    4           END;
     1405     6573    3         OLD_NODE$ = NODE$; /* Save pointer to CMPD */
     1406     6574    3         CALL Z8AF$FORME (%CMPI, LOP$, ROP$, NODE$);
     1407     6575    3         CALL COPY_EVALP_INFO (NODE$, OLD_NODE$);
     1408     6576    3       END;
     1409     6577    2       ELSE
     1410     6578    2       IF (ROP$ -> ETT.ID = %CVID4
     1411     6579    2        OR ROP$ -> ETT.ID = %CVID9)
     1412     6580    3       AND LOP$ -> ETT.ID = %TRIAD THEN DO;
     1413     6581    3         ROP$ = ROP$ -> ETT.LOP; /* LOP of CVID is TYI */
     1414     6582    3         CALL REPLACE_DEC_CONST_BY_BINARY (LOP$, LOP$)
     1415     6583    4           WHENALTRETURN DO;
     1416     6584    4             RETURN;
     1417     6585    4           END;
     1418     6586    3         OLD_NODE$ = NODE$; /* Save pointer to CMPD */
     1419     6587    3         CALL Z8AF$FORME (%CMPI, LOP$, ROP$, NODE$);
     1420     6588    3         CALL COPY_EVALP_INFO (NODE$, OLD_NODE$);
     1421     6589    3       END;
     1422     6590
     1423     6591    2     CASE (%EVAL); /* MOVE to multiple operands */
     1424     6592
     1425     6593    2       CALL Z8GO$CHECK_OP (NODE$ -> ETT.LOP);
     1426     6594
     1427     6595    2       IF NODE$ -> ETT.LOP -> ETT.ID = %TRIAD THEN
PL6.E3A0      #002=Z8GO$CHECK_OP File=Z8GO.:Z8A6TSI                              TUE 08/26/97 07:55 Page:261
     1428     6596    2         NODE$ = NODE$ -> ETT.LOP;
     1429     6597
     1430     6598    2   END; /* Case of NODE$ ETT identification field */
     1431     6599
     1432     6600    1   RETURN; /* Z8GO$CHECK_OP */
     1433     6601
     1434     6602        %EJECT;
PL6.E3A0      #002=Z8GO$CHECK_OP File=Z8GO.:Z8A6TSI                              TUE 08/26/97 07:55 Page:262
     1435     6603    1   REPLACE_SSOP_BY_OFF: PROC (NODE$);
     1436     6604
     1437     6605        /*I*   NAME: REPLACE_SSOP_BY_OFF
     1438     6606               CALL: CALL REPLACE_SSOP_BY_OFF (NODE$);
     1439     6607              INPUT: NODE$ -- SSOP triad to be replaced
     1440     6608             OUTPUT: NODE$ -- OFF triad with adjusted offset
     1441     6609        DESCRIPTION: NODE$ points to a SSOP that has a constant
     1442     6610                     as the ROP.  This constant needs to be
     1443     6611                     combined with the OFF offset to create a new
     1444     6612                     OFF triad, which will be the result.
     1445     6613        */
     1446     6614
     1447     6615    2   DCL  NODE$    PTR;  /* Pointer to SSOP ETT item           */
     1448     6616    2   DCL  NEW_OFF  SBIN; /* New offset = old offset + SSOP ROP */
     1449     6617    2   DCL  OLD_OFF$ PTR;  /* Save NODE$ pointer                 */
     1450     6618
     1451     6619    2   REPLACE_SSOP_BY_OFF:
     1452     6620
     1453     6621    2   NEW_OFF = NODE$ -> ETT.ROP -> ETT.LOP -> CONST.CONSTI.WORD1;
     1454     6622    2   NEW_OFF = NEW_OFF
     1455     6623    2           + NODE$ -> ETT.LOP -> ETT.OFFSET.VALUE;
     1456     6624    2   IF NEW_OFF >= 131072 /* %128K */
     1457     6625    2   OR NEW_OFF < -131072 /* - %128K */ THEN
     1458     6626    2     RETURN; /* Can't combine; leave it as is */
     1459     6627
     1460     6628    2   OLD_OFF$ = NODE$; /* Save pointer to old OFF triad */
     1461     6629    2   CALL Z8AF$NEW_OFF (NODE$ -> ETT.LOP -> ETT.LOP,
     1462     6630    2                      NEW_OFF,
     1463     6631    2                      NODE$);
     1464     6632    2   CALL COPY_EVALP_INFO (NODE$, OLD_OFF$);
     1465     6633
     1466     6634    2   END REPLACE_SSOP_BY_OFF;
     1467     6635
     1468     6636        %EJECT;
PL6.E3A0      #002=Z8GO$CHECK_OP File=Z8GO.:Z8A6TSI                              TUE 08/26/97 07:55 Page:263
     1469     6637    1   DO_CONSTANT_ARITH: PROC (NODE$);
     1470     6638
     1471     6639        /*I*   NAME: DO_CONSTANT_ARITH
     1472     6640               CALL: CALL DO_CONSTANT_ARITH (NODE$);
     1473     6641              INPUT: NODE$ -- Arithmetic triad to be replaced
     1474     6642             OUTPUT: NODE$ -- New ETT item is a TRIAD -> constant
     1475     6643        DESCRIPTION: NODE$ points to an arithmetic triad which
     1476     6644                     consists of an operator and two operands.
     1477     6645                     The two operands are constants; they will be
     1478     6646                     combined by the operator (+, -, *, /).
     1479     6647        */
     1480     6648
     1481     6649    2   DCL  NODE$      PTR;     /* ETT item with LOP & ROP are constants */
     1482     6650    2   DCL  CONSTANT1  SBIN;    /* LOP */
     1483     6651    2   DCL  CONSTANT2  SBIN;    /* ROP */
     1484     6652    2   DCL  CONSTANT3  SBIN;    /* LOP <op> ROP */
     1485     6653    2   DCL  ST1$       PTR;     /* LOP ST */
     1486     6654    2   DCL  ST2$       PTR;     /* ROP ST */
     1487     6655    2   DCL  D_CONSTANT CHAR(8); /* Decimal Result */
     1488     6656    2   DCL  LENGTH     SBIN;    /* Length of D_CONSTANT */
     1489     6657    2   DCL  TYPE       SBIN;    /* ST.TYPE */
     1490     6658    2   DCL  TRIAD$     PTR;     /* TRIAD ETT item */
     1491     6659
     1492     6660    2   DCL  Z8AC$MAKE_CONST_DEC_LEAD  ENTRY (4);
     1493     6661
     1494     6662    2   DO_CONSTANT_ARITH:
     1495     6663
     1496     6664    2   TYPE = NODE$ -> ETT.LOP -> ETT.LOP -> ST.TYPE;
     1497     6665    3   DO CASE (TYPE);
     1498     6666    3     CASE (%TYI);
     1499     6667    3       CONSTANT1 = NODE$ -> ETT.LOP -> ETT.LOP -> CONST.CONSTI.WORD1;
     1500     6668    3       CONSTANT2 = NODE$ -> ETT.ROP -> ETT.LOP -> CONST.CONSTI.WORD1;
     1501     6669
     1502     6670    3     CASE (%TYD);
     1503     6671
     1504     6672    3       ST1$ = NODE$ -> ETT.LOP -> ETT.LOP;
     1505     6673
PL6.E3A0      #002=Z8GO$CHECK_OP File=Z8GO.:Z8A6TSI                              TUE 08/26/97 07:55 Page:264
     1506     6674    3       IF ST1$ -> ST.NDSC.SF ~= 0
     1507     6675    3       OR ST1$ -> ST.NDSC.N > 8 THEN
     1508     6676    3         RETURN;
     1509     6677
     1510     6678    3       CALL REPLACE_DEC_CONST_BY_BINARY (TRIAD$, NODE$ -> ETT.LOP)
     1511     6679    4         WHENALTRETURN DO;
     1512     6680    4           RETURN;
     1513     6681    4         END;
     1514     6682    3       CONSTANT1 = TRIAD$ -> ETT.LOP -> CONST.CONSTI.WORD1;
     1515     6683
     1516     6684    3       ST2$ = NODE$ -> ETT.ROP -> ETT.LOP;
     1517     6685
     1518     6686    3       IF ST2$ -> ST.NDSC.SF ~= 0
     1519     6687    3       OR ST2$ -> ST.NDSC.N > 8 THEN
     1520     6688    3         RETURN;
     1521     6689
     1522     6690    3       CALL REPLACE_DEC_CONST_BY_BINARY (TRIAD$, NODE$ -> ETT.ROP)
     1523     6691    4         WHENALTRETURN DO;
     1524     6692    4           RETURN;
     1525     6693    4         END;
     1526     6694    3       CONSTANT2 = TRIAD$ -> ETT.LOP -> CONST.CONSTI.WORD1;
     1527     6695
     1528     6696    3     CASE (ELSE);
     1529     6697    3       RETURN; /* Can't optimize if type is not TYI or TYD */
     1530     6698    3   END; /* Case of LOP ROP TYPE */
     1531     6699
     1532     6700    3   DO CASE (NODE$ -> ETT.ID);
     1533     6701    3     CASE (%ADI, %ADD); /* LOP + ROP */
     1534     6702    3       CONSTANT3 = CONSTANT1 + CONSTANT2;
     1535     6703    3     CASE (%SBI, %SBD); /* LOP - ROP */
     1536     6704    3       CONSTANT3 = CONSTANT1 - CONSTANT2;
     1537     6705    3     CASE (%MPI); /* LOP * ROP, Integer */
     1538     6706    3       CONSTANT3 = CONSTANT1 * CONSTANT2;
     1539     6707    3     CASE (%MPD); /* LOP * ROP, Decimal */
     1540     6708    3       IF ST1$ -> ST.NDSC.N + ST2$ -> ST.NDSC.N > 10 THEN
     1541     6709    3         RETURN;
     1542     6710    3       CONSTANT3 = CONSTANT1 * CONSTANT2;
PL6.E3A0      #002=Z8GO$CHECK_OP File=Z8GO.:Z8A6TSI                              TUE 08/26/97 07:55 Page:265
     1543     6711    3     CASE (%DVI); /* LOP / ROP */
     1544     6712    3       IF CONSTANT2 = 0 THEN                                  /*#42953*/
     1545     6713    3         RETURN; /* Prevent divide by zero fault */
     1546     6714    3       CONSTANT3 = CONSTANT1 / CONSTANT2;
     1547     6715    3     CASE (ELSE);
     1548     6716    3       RETURN;
     1549     6717    3   END; /* Case of ETT.ID */
     1550     6718
     1551     6719    2   NODE$ -> ETT.COUNT = 0;
     1552     6720    2   NODE$ -> ETT.LOP -> ETT.COUNT = 0;
     1553     6721    2   NODE$ -> ETT.ROP -> ETT.COUNT = 0;
     1554     6722    3   IF TYPE = %TYI THEN DO;
     1555     6723    3     MKCN.CON = CONSTANT3;
     1556     6724    3     CALL Z8AC$MAKE_CONST (NODE$);
     1557     6725    3   END; /* Type Integer */
     1558     6726    3   ELSE DO; /* Type Decimal */
     1559     6727    3     IF NODE$ -> ETT.ID = %MPD THEN
     1560     6728    3       LENGTH = ST1$ -> ST.NDSC.N + ST2$ -> ST.NDSC.N;
     1561     6729    4     ELSE DO;
     1562     6730    4       LENGTH = ST1$ -> ST.NDSC.N;
     1563     6731    4       IF ST2$ -> ST.NDSC.N > LENGTH THEN
     1564     6732    4         LENGTH = ST2$ -> ST.NDSC.N;
     1565     6733    4       LENGTH = LENGTH + 1;
     1566     6734    4     END; /* ID not Multiply Decimal */
     1567     6735    3     IF LENGTH > 7 THEN RETURN;
     1568     6736    3     CALL BINXCHAR (SUBSTR (D_CONSTANT, 0, LENGTH+1), CONSTANT3);
     1569     6737    3     CALL Z8AC$MAKE_CONST_DEC_LEAD (D_CONSTANT, LENGTH+1, 0, NODE$);
     1570     6738    3   END; /* Type Decimal */
     1571     6739
     1572     6740    2   END DO_CONSTANT_ARITH;
     1573     6741
     1574     6742        %EJECT;
PL6.E3A0      #002=Z8GO$CHECK_OP File=Z8GO.:Z8A6TSI                              TUE 08/26/97 07:55 Page:266
     1575     6743    1   REPLACE_DEC_CONST_BY_BINARY: PROC (RETURN$, TRIAD$) ALTRET;
     1576     6744
     1577     6745        /*I*   NAME: REPLACE_DEC_CONST_BY_BINARY
     1578     6746               CALL: CALL REPLACE_... (RETURN$, TRIAD$);
     1579     6747              INPUT: TRIAD$ --- Constant triad to be replaced
     1580     6748             OUTPUT: RETURN$ -- TRIAD -> an integer constant
     1581     6749        DESCRIPTION: TRIAD$ points to a TRIAD ETT item which points
     1582     6750                     to a decimal constant symbol table (ST) CONST
     1583     6751                     item.  If the scale factor is zero, and the
     1584     6752                     length is less than 11, then convert it to
     1585     6753                     integer.
     1586     6754        */
     1587     6755
     1588     6756    2   DCL  RETURN$  PTR;  /* Returned TRIAD ETT item (binary) */
     1589     6757    2   DCL  TRIAD$   PTR;  /* Input TRIAD ETT item (decimal)   */
     1590     6758    2   DCL  ST$$     PTR;  /* ST CONST pointer */
     1591     6759    2   DCL  DNT$$    PTR;  /* Data Name Table item */
     1592     6760    2   DCL  DESCR2   UBIN WORD STATIC INIT (4); /* Binary descr */
     1593     6761
     1594     6762    2   DCL  X9CV$CVDI ENTRY (4); /* Convert Decimal to Integer (Binary) */
     1595     6763
     1596     6764    2   REPLACE_DEC_CONST_BY_BINARY:
     1597     6765
     1598     6766    2   ST$$ = TRIAD$ -> ETT.LOP;
     1599     6767    2   IF ST$$ -> ST.NDSC.SF ~= 0 THEN ALTRETURN;
     1600     6768    2   IF ST$$ -> ST.NDSC.N > 8 THEN ALTRETURN;
     1601     6769
     1602     6770    2   CALL X9CV$CVDI (ST$$ -> ST.SA,                /* Sending Desc */
     1603     6771    2                   DESCR2,                       /* Recving Desc */
     1604     6772    2                   ADDR (MKCN.CON),              /* Recving Ptr  */
     1605     6773    2                   ADDR (ST$$ -> CONST.CONSTA)); /* Sending Ptr  */
     1606     6774
     1607     6775    2   CALL Z8AC$MAKE_CONST (RETURN$);
     1608     6776
     1609     6777    2   END REPLACE_DEC_CONST_BY_BINARY;
     1610     6778
     1611     6779        %EJECT;
PL6.E3A0      #002=Z8GO$CHECK_OP File=Z8GO.:Z8A6TSI                              TUE 08/26/97 07:55 Page:267
     1612     6780    1   REPLACE_BIN_CONST_BY_DECIMAL: PROC (RETURN$, TRIAD$);
     1613     6781
     1614     6782        /*I*   NAME: REPLACE_BIN_CONST_BY_DECIMAL
     1615     6783               CALL: CALL REPLACE_... (RETURN$, TRIAD$);
     1616     6784              INPUT: TRIAD$ --- Constant triad to be replaced
     1617     6785             OUTPUT: RETURN$ -- TRIAD -> a decimal constant
     1618     6786        DESCRIPTION: TRIAD$ points to a TRIAD ETT item which points
     1619     6787                     to an integer constant symbol table (ST) CONST
     1620     6788                     item.  Convert it to decimal.  This is done to
     1621     6789                     optimize a CVID of an integer constant.
     1622     6790        */
     1623     6791
     1624     6792    2   DCL  RETURN$    PTR;       /* Returned TRIAD ETT item (binary) */
     1625     6793    2   DCL  TRIAD$     PTR;       /* Input TRIAD ETT item (decimal) */
     1626     6794    2   DCL  ST$$       PTR;       /* ST CONST pointer */
     1627     6795    2   DCL  LENGTH     SBIN;      /* ST.NDSC.N */
     1628     6796    2   DCL  I_CONSTANT SBIN;      /* The binary constant to convert */
     1629     6797    2   DCL  D_CONSTANT CHAR (12); /* The converted decimal constant */
     1630     6798
     1631     6799    2   DCL  Z8AC$MAKE_CONST_DEC_LEAD  ENTRY (4);
     1632     6800
     1633     6801    2   REPLACE_BIN_CONST_BY_DECIMAL:
     1634     6802
     1635     6803    2   ST$$ = TRIAD$ -> ETT.LOP;
     1636     6804    2   I_CONSTANT = ST$$ -> CONST.CONSTI.WORD1;
     1637     6805    2   IF I_CONSTANT < 10 AND I_CONSTANT > -10 THEN LENGTH = 2;
     1638     6806    2   ELSE
     1639     6807    2   IF I_CONSTANT < 100 AND I_CONSTANT > -100 THEN LENGTH = 3;
     1640     6808    2   ELSE
     1641     6809    2   IF I_CONSTANT < 1000 AND I_CONSTANT > -1000 THEN LENGTH = 4;
     1642     6810    2   ELSE
     1643     6811    2   IF I_CONSTANT < 10000 AND I_CONSTANT > -10000 THEN LENGTH = 5;
     1644     6812    2   ELSE
     1645     6813    2   IF I_CONSTANT < 100000 AND I_CONSTANT > -100000 THEN LENGTH = 6;
     1646     6814    2   ELSE
     1647     6815    2     LENGTH = 12;
     1648     6816
PL6.E3A0      #002=Z8GO$CHECK_OP File=Z8GO.:Z8A6TSI                              TUE 08/26/97 07:55 Page:268
     1649     6817    2   CALL BINXCHAR (SUBSTR (D_CONSTANT, 0, LENGTH), I_CONSTANT);
     1650     6818
     1651     6819    2   RETURN$ -> ETT.COUNT = 0;
     1652     6820    2   CALL Z8AC$MAKE_CONST_DEC_LEAD (D_CONSTANT, LENGTH, 0, RETURN$);
     1653     6821
     1654     6822    2   END REPLACE_BIN_CONST_BY_DECIMAL;
     1655     6823
     1656     6824        %EJECT;
PL6.E3A0      #002=Z8GO$CHECK_OP File=Z8GO.:Z8A6TSI                              TUE 08/26/97 07:55 Page:269
     1657     6825    1   CHECK_FOR_REDEFS: PROC (ST$$) ALTRET;
     1658     6826
     1659     6827        /*I*    NAME: CHECK_FOR_REDEFS
     1660     6828                CALL: CALL CHECK_FOR_REDEFS (ST$$)
     1661     6829                        WHENRETURN DO;
     1662     6830                          <"OK to optimize" code>
     1663     6831                        END;
     1664     6832               INPUT: ST$$ -- The symbol table item to check.
     1665     6833              OUTPUT: ALTRET means redefinitions exist, don't optimize.
     1666     6834         DESCRIPTION: This routine checks if the symbol is renamed or
     1667     6835                      redefined, or is a child of a group item that is
     1668     6836                      renamed or redefined.
     1669     6837        */
     1670     6838
     1671     6839    2   DCL  ST$$          PTR; /* Input Symbol Table Item */
     1672     6840    2   DCL  QLT$$         PTR; /* Associated Qualifier Links Table Item */
     1673     6841    2   DCL  ST2$          PTR; /* ST Item of the group */
     1674     6842
     1675     6843    2   QLT$$ = ST$$ -> VARIABLE.QLT$;
     1676     6844    2   IF QLT$$ = ADDR(NIL) THEN
     1677     6845    2     ALTRETURN;
     1678     6846    2   ST2$ = ST$$;
     1679     6847    3   DO FOREVER;
     1680     6848
     1681     6849    3     IF ST2$ -> SCALAR.B.REDEF_SUB
     1682     6850    3     OR ST2$ -> SCALAR.B.REDEF_OBJ
     1683     6851    3     OR ST2$ -> SCALAR.B.RENAMED
     1684     6852    3     OR QLT$$ -> QLT.B.RENAMES
     1685     6853    3     OR ST2$ -> SCALAR.B.EXTERNAL
     1686     6854    3     OR ST2$ -> SCALAR.SEQ#.FD ~= 0
     1687     6855    3     OR ST2$ -> SCALAR.SEQ#.BD ~= %MAX_SEQ# THEN
     1688     6856    3       ALTRETURN;
     1689     6857
     1690     6858    3     QLT$$ = QLT$$ -> QLT.FATHER;
     1691     6859    3     IF QLT$$ = ADDR(NIL) THEN EXIT;
     1692     6860    3     ST2$ = QLT$$ -> QLT.ST$;
     1693     6861
PL6.E3A0      #002=Z8GO$CHECK_OP File=Z8GO.:Z8A6TSI                              TUE 08/26/97 07:55 Page:270
     1694     6862    3   END; /* DO FOREVER (WHILE QLT$$ not NIL) */
     1695     6863
     1696     6864    2   END CHECK_FOR_REDEFS;
     1697     6865
     1698     6866        %EJECT;
PL6.E3A0      #002=Z8GO$CHECK_OP File=Z8GO.:Z8A6TSI                              TUE 08/26/97 07:55 Page:271
     1699     6867    1   COPY_EVALP_INFO: PROC (NODE$, OLD_NODE$);
     1700     6868
     1701     6869        /*I*   NAME: COPY_EVALP_INFO
     1702     6870               CALL: CALL COPY_EVALP_INFO (NODE$, OLD_NODE$);
     1703     6871              INPUT: OLD_NODE$ -- EVALP info to copy
     1704     6872             OUTPUT: NODE$ -- new node that needs EVALP info
     1705     6873        DESCRIPTION: Copy the EVALP related fields (COUNT, EVALP$,
     1706     6874                     CMP_SC, and CMP_BD) from the old node to the new.
     1707     6875        */
     1708     6876
     1709     6877    2   DCL  NODE$     PTR;
     1710     6878    2   DCL  OLD_NODE$ PTR;
     1711     6879
     1712     6880    2   NODE$ -> ETT.COUNT  = OLD_NODE$ -> ETT.COUNT;
     1713     6881    2   NODE$ -> ETT.EVALP$ = OLD_NODE$ -> ETT.EVALP$;
     1714     6882    2   NODE$ -> ETT.CMP_SC = OLD_NODE$ -> ETT.CMP_SC;
     1715     6883    2   NODE$ -> ETT.CMP_BD = OLD_NODE$ -> ETT.CMP_BD;
     1716     6884    2   OLD_NODE$ -> ETT.COUNT = 0;
     1717     6885
     1718     6886    2   END COPY_EVALP_INFO;
     1719     6887
     1720     6888    1   END Z8GO$CHECK_OP;

PL6.E3A0      #002=Z8GO$CHECK_OP File=Z8GO.:Z8A6TSI                              TUE 08/26/97 07:55 Page:272
--  Include file information  --

   Z8A_TYPES.:Z8A6TOU  is referenced.
   Z8A_MKCN.:Z8A6TOU  cannot be made into a system file and is referenced.
   Z8A_QLT.:Z8A6TOU  cannot be made into a system file and is referenced.
   Z8A_DNT.:Z8A6TOU  cannot be made into a system file and is referenced.
   Z8A_ST.:Z8A6TOU  cannot be made into a system file and is referenced.
   Z8A_ETT.:Z8A6TOU  cannot be made into a system file and is referenced.
   X8A_COM_MACS.:X8A6TOU  is referenced.
   Z8A_NAMES.:Z8A6TOU  is referenced.
   Z9A_FLAGS.:Z8A6TOU  is referenced.
   Z8A_DEFC.:Z8A6TOU  cannot be made into a system file and is referenced.
      No diagnostics issued in procedure Z8GO$CHECK_OP.

   Procedure Z8GO$CHECK_OP requires 781 words for executable code.
   Procedure Z8GO$CHECK_OP requires 32 words of local(AUTO) storage.

    No errors detected in file Z8GO.:Z8A6TSI    .

PL6.E3A0      #002=Z8GO$CHECK_OP File=Z8GO.:Z8A6TSI                              TUE 08/26/97 07:55 Page:273

 Object Unit name= Z8GO$CHECK_OP                              File name= Z8GO.:Z8A6TOU
 UTS= AUG 26 '97 07:55:10.16 TUE                              Compiler= PL-6/E31         Sev=      00
 SharedLib= :SHARED_SYSTEM                                    Alt SharedLib=


    ****  Control sections  ****

 Sect   Type Bound  Init  Size OctSiz  Section name(segment info)
    0  LblCom even  none     1      1  ITERATION
    1  LblCom even  none     1      1  ETT$
    2  LblCom even  none     1      1  HEAD_ETT$
    3  LblCom even  none   512   1000  ETT_BUCKETS
    4  LblCom even  none     5      5  ETT_
    5  LblCom even  none     1      1  ST$
    6  LblCom even  none     5      5  ST_
    7  LblCom even  none     1      1  DNT$
    8  LblCom even  none     5      5  DNT_
    9  LblCom even  none     1      1  DNT_BUCKET_NUMBER
   10  LblCom even  none     1      1  DNT_OF_1$
   11  LblCom even  none     1      1  QLT$
   12  LblCom even  none     1      1  PREV_01_QLT$
   13  LblCom even  none     5      5  QLT_
   14  LblCom even  none     2      2  MKCN
   15   Data  even  none     1      1  Z8GO$CHECK_OP
   16   Proc  even  none   781   1415  Z8GO$CHECK_OP
   17  RoData even  none    16     20  Z8GO$CHECK_OP

    ****  Entry defs  ****

                              Check   Calling
                             calling  sequence
  Sect OctLoc Primary Altret sequence   type   Parms  Name
    16      0   yes            yes      Std        1  Z8GO$CHECK_OP
PL6.E3A0      #002=Z8GO$CHECK_OP File=Z8GO.:Z8A6TSI                              TUE 08/26/97 07:55 Page:274

  ****  Entry refs  ****

         Check        Calling
        calling       sequence
Altret sequence SRef   type   Args  Name
         yes           Std       4 Z8AF$FORME
         yes           Std       3 Z8AF$NEW_OFF
         yes           Std       1 Z8AC$MAKE_CONST
         yes           Std       4 Z8AC$MAKE_CONST_DEC_LEAD
         yes           Std       4 X9CV$CVDI
         yes           Std       4 Z8AC$MAKE_CONST_DEC_LEAD
                       nStd      0 X66_AUTO_1
                       nStd      0 X66_ARET

  ****  Segment refs  ****

  Flags:  r = read only, s = secondary
Flgs Name                             Flgs Name                             Flgs Name
     NULLSID                               ISSID
PL6.E3A0      #002=Z8GO$CHECK_OP File=Z8GO.:Z8A6TSI                              TUE 08/26/97 07:55 Page:275


     1287        1        /*T***********************************************************/
     1288        2        /*T*                                                         */
     1289        3        /*T* Copyright (c) Bull HN Information Systems Inc., 1997    */
     1290        4        /*T*                                                         */
     1291        5        /*T***********************************************************/
     1292        6        Z8GO$CHECK_OP: PROC (NODE$);

      6 16 000000   000000 700200 xent  Z8GO$CHECK_* TSX0  ! X66_AUTO_1
        16 000001   000040 000001                    ZERO    32,1

     1293        7
     1294        8        /*I*   NAME: Z8GO$CHECK_OP
     1295        9               CALL: CALL Z8GO$CHECK_OP (NODE$);
     1296       10              INPUT: NODE$ -- ETT item to be examined for optimization
     1297       11             OUTPUT: NODE$ -- Optimized ETT item
     1298       12        DESCRIPTION: NODE$ points to an ETT tree that may contain variables
     1299       13                     masquerading as constants (i.e., declared in WORKING
     1300       14                     STORAGE with a VALUE clause and never redefined). This
     1301       15                     routine replaces the variable by the associated constant
     1302       16                     and propagates it up the tree via recursive calls.
     1303       17        */
     1304       18
     1305       19        %EQU PHASE = 3;
     1306       20        %INCLUDE Z8A_DEFC;
     1307       88        %INCLUDE Z9A_FLAGS;
     1308      102        %INCLUDE Z8A_NAMES;
     1309     1902        %INCLUDE X8A_COM_MACS;
     1310     2006        %INCLUDE Z8A_ETT;
     1311     2307        %INCLUDE Z8A_ST;
     1312     5966        %INCLUDE Z8A_DNT;
     1313     6187        %INCLUDE Z8A_QLT;
     1314     6293        %INCLUDE Z8A_MKCN;  /* DCL MKCN  for Z8AC$MAKE_CONST */
     1315     6310        %INCLUDE Z8A_TYPES;
     1316     6484        %EJECT;
PL6.E3A0      #002=Z8GO$CHECK_OP File=Z8GO.:Z8A6TSI                              TUE 08/26/97 07:55 Page:276
     1317     6485    1   DCL  NODE$     PTR; /* Input/Output parameter */
     1318     6486    1   DCL  LOP$      PTR; /* Left operand of NODE$  */
     1319     6487    1   DCL  ROP$      PTR; /* Right operand of NODE$ */
     1320     6488    1   DCL  ST$$      PTR; /* Symbol Table Pointer   */
     1321     6489    1   DCL  OLD_NODE$ PTR; /* Save NODE$ pointer     */
     1322     6490
     1323     6491    1   DCL  Z8AC$MAKE_CONST ENTRY (1);
     1324     6492    1   DCL  Z8AF$NEW_OFF    ENTRY (3);
     1325     6493    1   DCL  Z8AF$FORME      ENTRY (4);
     1326     6494
     1327     6495    1   CHECK_OP: /* Z8GO$CHECK_OP DELTA Breakpoint */
     1328     6496
     1329     6497    2   DO CASE (NODE$ -> ETT.ID);

   6497 16 000002   200003 470500       CHECK_OP     LDP0    @NODE$,,AUTO
        16 000003   000000 471500                    LDP1    0,,PR0
        16 000004   100000 220100                    LDX0    0,,PR1
        16 000005   000172 100003                    CMPX0   122,DU
        16 000006   000010 602010 16                 TNC     CHECK_OP+6,X0
        16 000007   000566 710000 16                 TRA     s:6600
        16 000010   000566 710000 16                 TRA     s:6600
        16 000011   000202 710000 16                 TRA     s:6501
        16 000012   000566 710000 16                 TRA     s:6600
        16 000013   000566 710000 16                 TRA     s:6600
        16 000014   000566 710000 16                 TRA     s:6600
        16 000015   000235 710000 16                 TRA     s:6516
        16 000016   000566 710000 16                 TRA     s:6600
        16 000017   000566 710000 16                 TRA     s:6600
        16 000020   000566 710000 16                 TRA     s:6600
        16 000021   000566 710000 16                 TRA     s:6600
        16 000022   000566 710000 16                 TRA     s:6600
        16 000023   000566 710000 16                 TRA     s:6600
        16 000024   000566 710000 16                 TRA     s:6600
        16 000025   000566 710000 16                 TRA     s:6600
        16 000026   000566 710000 16                 TRA     s:6600
        16 000027   000566 710000 16                 TRA     s:6600
        16 000030   000566 710000 16                 TRA     s:6600
PL6.E3A0      #002=Z8GO$CHECK_OP File=Z8GO.:Z8A6TSI                              TUE 08/26/97 07:55 Page:277
        16 000031   000566 710000 16                 TRA     s:6600
        16 000032   000566 710000 16                 TRA     s:6600
        16 000033   000566 710000 16                 TRA     s:6600
        16 000034   000566 710000 16                 TRA     s:6600
        16 000035   000566 710000 16                 TRA     s:6600
        16 000036   000566 710000 16                 TRA     s:6600
        16 000037   000566 710000 16                 TRA     s:6600
        16 000040   000566 710000 16                 TRA     s:6600
        16 000041   000566 710000 16                 TRA     s:6600
        16 000042   000566 710000 16                 TRA     s:6600
        16 000043   000566 710000 16                 TRA     s:6600
        16 000044   000566 710000 16                 TRA     s:6600
        16 000045   000566 710000 16                 TRA     s:6600
        16 000046   000321 710000 16                 TRA     s:6542
        16 000047   000566 710000 16                 TRA     s:6600
        16 000050   000566 710000 16                 TRA     s:6600
        16 000051   000566 710000 16                 TRA     s:6600
        16 000052   000566 710000 16                 TRA     s:6600
        16 000053   000566 710000 16                 TRA     s:6600
        16 000054   000566 710000 16                 TRA     s:6600
        16 000055   000566 710000 16                 TRA     s:6600
        16 000056   000566 710000 16                 TRA     s:6600
        16 000057   000566 710000 16                 TRA     s:6600
        16 000060   000566 710000 16                 TRA     s:6600
        16 000061   000566 710000 16                 TRA     s:6600
        16 000062   000566 710000 16                 TRA     s:6600
        16 000063   000344 710000 16                 TRA     s:6551
        16 000064   000344 710000 16                 TRA     s:6551
        16 000065   000344 710000 16                 TRA     s:6551
        16 000066   000344 710000 16                 TRA     s:6551
        16 000067   000344 710000 16                 TRA     s:6551
        16 000070   000344 710000 16                 TRA     s:6551
        16 000071   000344 710000 16                 TRA     s:6551
        16 000072   000344 710000 16                 TRA     s:6551
        16 000073   000566 710000 16                 TRA     s:6600
        16 000074   000566 710000 16                 TRA     s:6600
        16 000075   000566 710000 16                 TRA     s:6600
PL6.E3A0      #002=Z8GO$CHECK_OP File=Z8GO.:Z8A6TSI                              TUE 08/26/97 07:55 Page:278
        16 000076   000566 710000 16                 TRA     s:6600
        16 000077   000566 710000 16                 TRA     s:6600
        16 000100   000566 710000 16                 TRA     s:6600
        16 000101   000566 710000 16                 TRA     s:6600
        16 000102   000566 710000 16                 TRA     s:6600
        16 000103   000566 710000 16                 TRA     s:6600
        16 000104   000566 710000 16                 TRA     s:6600
        16 000105   000566 710000 16                 TRA     s:6600
        16 000106   000566 710000 16                 TRA     s:6600
        16 000107   000566 710000 16                 TRA     s:6600
        16 000110   000566 710000 16                 TRA     s:6600
        16 000111   000566 710000 16                 TRA     s:6600
        16 000112   000566 710000 16                 TRA     s:6600
        16 000113   000566 710000 16                 TRA     s:6600
        16 000114   000566 710000 16                 TRA     s:6600
        16 000115   000566 710000 16                 TRA     s:6600
        16 000116   000566 710000 16                 TRA     s:6600
        16 000117   000401 710000 16                 TRA     s:6560
        16 000120   000566 710000 16                 TRA     s:6600
        16 000121   000566 710000 16                 TRA     s:6600
        16 000122   000566 710000 16                 TRA     s:6600
        16 000123   000566 710000 16                 TRA     s:6600
        16 000124   000566 710000 16                 TRA     s:6600
        16 000125   000566 710000 16                 TRA     s:6600
        16 000126   000566 710000 16                 TRA     s:6600
        16 000127   000566 710000 16                 TRA     s:6600
        16 000130   000566 710000 16                 TRA     s:6600
        16 000131   000566 710000 16                 TRA     s:6600
        16 000132   000566 710000 16                 TRA     s:6600
        16 000133   000566 710000 16                 TRA     s:6600
        16 000134   000566 710000 16                 TRA     s:6600
        16 000135   000566 710000 16                 TRA     s:6600
        16 000136   000321 710000 16                 TRA     s:6542
        16 000137   000566 710000 16                 TRA     s:6600
        16 000140   000566 710000 16                 TRA     s:6600
        16 000141   000566 710000 16                 TRA     s:6600
        16 000142   000262 710000 16                 TRA     s:6526
PL6.E3A0      #002=Z8GO$CHECK_OP File=Z8GO.:Z8A6TSI                              TUE 08/26/97 07:55 Page:279
        16 000143   000566 710000 16                 TRA     s:6600
        16 000144   000566 710000 16                 TRA     s:6600
        16 000145   000566 710000 16                 TRA     s:6600
        16 000146   000566 710000 16                 TRA     s:6600
        16 000147   000566 710000 16                 TRA     s:6600
        16 000150   000566 710000 16                 TRA     s:6600
        16 000151   000566 710000 16                 TRA     s:6600
        16 000152   000566 710000 16                 TRA     s:6600
        16 000153   000566 710000 16                 TRA     s:6600
        16 000154   000566 710000 16                 TRA     s:6600
        16 000155   000566 710000 16                 TRA     s:6600
        16 000156   000566 710000 16                 TRA     s:6600
        16 000157   000566 710000 16                 TRA     s:6600
        16 000160   000566 710000 16                 TRA     s:6600
        16 000161   000566 710000 16                 TRA     s:6600
        16 000162   000566 710000 16                 TRA     s:6600
        16 000163   000566 710000 16                 TRA     s:6600
        16 000164   000566 710000 16                 TRA     s:6600
        16 000165   000566 710000 16                 TRA     s:6600
        16 000166   000566 710000 16                 TRA     s:6600
        16 000167   000566 710000 16                 TRA     s:6600
        16 000170   000566 710000 16                 TRA     s:6600
        16 000171   000566 710000 16                 TRA     s:6600
        16 000172   000566 710000 16                 TRA     s:6600
        16 000173   000566 710000 16                 TRA     s:6600
        16 000174   000566 710000 16                 TRA     s:6600
        16 000175   000566 710000 16                 TRA     s:6600
        16 000176   000566 710000 16                 TRA     s:6600
        16 000177   000566 710000 16                 TRA     s:6600
        16 000200   000566 710000 16                 TRA     s:6600
        16 000201   000550 710000 16                 TRA     s:6593

     1330     6498
     1331     6499    2     CASE (%BASE); /* Replace by const if FDP/BDP = 0/inf */

     1332     6500
     1333     6501    2       ST$$ = NODE$ -> ETT.LOP;
PL6.E3A0      #002=Z8GO$CHECK_OP File=Z8GO.:Z8A6TSI                              TUE 08/26/97 07:55 Page:280

   6501 16 000202   100001 236100                    LDQ     1,,PR1
        16 000203   200006 756100                    STQ     ST$$,,AUTO

     1334     6502    2       IF ST$$ -> ST.ID ~= %SCALAR THEN

   6502 16 000204   200006 471500                    LDP1    ST$$,,AUTO
        16 000205   100000 220100                    LDX0    0,,PR1
        16 000206   000766 100003                    CMPX0   502,DU
        16 000207   000211 600000 16                 TZE     s:6505

     1335     6503    2         RETURN;

   6503 16 000210   000000 702200 xent               TSX2  ! X66_ARET

     1336     6504
     1337     6505    2       CALL CHECK_FOR_REDEFS (ST$$)

   6505 16 000211   200006 633500                    EPPR3   ST$$,,AUTO
        16 000212   200011 453500                    STP3    OLD_NODE$+2,,AUTO
        16 000213   001313 701000 16                 TSX1    CHECK_FOR_REDEFS
        16 000214   000234 702000 16                 TSX2    s:6512

     1338     6506    3         WHENRETURN DO;

     1339     6507    3           IF  ST$$ -> SCALAR.LTS$ ~= ADDR(NIL)

   6507 16 000215   200006 470500                    LDP0    ST$$,,AUTO
        16 000216   000005 236100                    LDQ     5,,PR0
        16 000217   000000 116000 17                 CMPQ    0
        16 000220   000234 600000 16                 TZE     s:6512
        16 000221   000005 471500                    LDP1    5,,PR0
        16 000222   100000 220100                    LDX0    0,,PR1
        16 000223   000015 100003                    CMPX0   13,DU
        16 000224   000234 601000 16                 TNZ     s:6512

     1340     6508    4           AND ST$$ -> SCALAR.LTS$ -> ETT.ID = %TRIAD THEN DO;
PL6.E3A0      #002=Z8GO$CHECK_OP File=Z8GO.:Z8A6TSI                              TUE 08/26/97 07:55 Page:281

     1341     6509    4             NODE$ -> ETT.COUNT = 0;

   6509 16 000225   200003 473500                    LDP3    @NODE$,,AUTO
        16 000226   300000 474500                    LDP4    0,,PR3
        16 000227   000000 221003                    LDX1    0,DU
        16 000230   400000 441100                    SXL1    0,,PR4

     1342     6510    4             NODE$ = ST$$ -> SCALAR.LTS$;

   6510 16 000231   200006 470500                    LDP0    ST$$,,AUTO
        16 000232   000005 236100                    LDQ     5,,PR0
        16 000233   300000 756100                    STQ     0,,PR3

     1343     6511    4           END;

     1344     6512    3         END; /* When normal return from CHECK_FOR_REDEFS */

   6512 16 000234   000566 710000 16                 TRA     s:6600

     1345     6513
     1346     6514    2     CASE (%SSOP); /* SubScript OPeration */

     1347     6515
     1348     6516    2       ROP$ = NODE$ -> ETT.ROP; /* Subscript expression */

   6516 16 000235   100002 236100                    LDQ     2,,PR1
        16 000236   200005 756100                    STQ     ROP$,,AUTO

     1349     6517    2       CALL Z8GO$CHECK_OP (ROP$);

   6517 16 000237   200005 631500                    EPPR1   ROP$,,AUTO
        16 000240   200032 451500                    STP1    DNT$$+2,,AUTO
        16 000241   200032 630500                    EPPR0   DNT$$+2,,AUTO
        16 000242   000001 631400 17                 EPPR1   1
        16 000243   000000 701000 16                 TSX1    s:6
        16 000244   000000 011000                    NOP     0
PL6.E3A0      #002=Z8GO$CHECK_OP File=Z8GO.:Z8A6TSI                              TUE 08/26/97 07:55 Page:282

     1350     6518
     1351     6519    3       IF ROP$ -> ETT.ID = %TRIAD /* Constant */ THEN DO;

   6519 16 000245   200005 470500                    LDP0    ROP$,,AUTO
        16 000246   000000 220100                    LDX0    0,,PR0
        16 000247   000015 100003                    CMPX0   13,DU
        16 000250   000566 601000 16                 TNZ     s:6600

     1352     6520    3         NODE$ -> ETT.ROP = ROP$;

   6520 16 000251   200003 471500                    LDP1    @NODE$,,AUTO
        16 000252   100000 473500                    LDP3    0,,PR1
        16 000253   200005 236100                    LDQ     ROP$,,AUTO
        16 000254   300002 756100                    STQ     2,,PR3

     1353     6521    3         CALL REPLACE_SSOP_BY_OFF (NODE$);

   6521 16 000255   200003 236100                    LDQ     @NODE$,,AUTO
        16 000256   200011 756100                    STQ     OLD_NODE$+2,,AUTO
        16 000257   000567 701000 16                 TSX1    REPLACE_SSOP_BY_OFF
        16 000260   000000 011000                    NOP     0

     1354     6522    3       END; /* ROP of SSOP is a constant */

   6522 16 000261   000566 710000 16                 TRA     s:6600

     1355     6523
     1356     6524    2     CASE (%CVDI);  /* Decimal to Binary */

     1357     6525
     1358     6526    2       LOP$ = NODE$ -> ETT.LOP;  /* DTB operand */

   6526 16 000262   100001 236100                    LDQ     1,,PR1
        16 000263   200004 756100                    STQ     LOP$,,AUTO

     1359     6527
PL6.E3A0      #002=Z8GO$CHECK_OP File=Z8GO.:Z8A6TSI                              TUE 08/26/97 07:55 Page:283
     1360     6528    2       IF LOP$ -> ETT.ID = %CVDSF THEN

   6528 16 000264   200004 471500                    LDP1    LOP$,,AUTO
        16 000265   100000 220100                    LDX0    0,,PR1
        16 000266   000037 100003                    CMPX0   31,DU
        16 000267   000272 601000 16                 TNZ     s:6531

     1361     6529    2         LOP$ = LOP$ -> ETT.LOP;

   6529 16 000270   100001 236100                    LDQ     1,,PR1
        16 000271   200004 756100                    STQ     LOP$,,AUTO

     1362     6530
     1363     6531    2       CALL Z8GO$CHECK_OP (LOP$);

   6531 16 000272   200004 631500                    EPPR1   LOP$,,AUTO
        16 000273   200032 451500                    STP1    DNT$$+2,,AUTO
        16 000274   200032 630500                    EPPR0   DNT$$+2,,AUTO
        16 000275   000001 631400 17                 EPPR1   1
        16 000276   000000 701000 16                 TSX1    s:6
        16 000277   000000 011000                    NOP     0

     1364     6532
     1365     6533    2       OLD_NODE$ = NODE$;

   6533 16 000300   200003 470500                    LDP0    @NODE$,,AUTO
        16 000301   000000 236100                    LDQ     0,,PR0
        16 000302   200007 756100                    STQ     OLD_NODE$,,AUTO

     1366     6534    2       IF LOP$ -> ETT.ID = %TRIAD THEN  /* Constant */

   6534 16 000303   200004 471500                    LDP1    LOP$,,AUTO
        16 000304   100000 220100                    LDX0    0,,PR1
        16 000305   000015 100003                    CMPX0   13,DU
        16 000306   000566 601000 16                 TNZ     s:6600

     1367     6535    2         CALL REPLACE_DEC_CONST_BY_BINARY (NODE$, LOP$)
PL6.E3A0      #002=Z8GO$CHECK_OP File=Z8GO.:Z8A6TSI                              TUE 08/26/97 07:55 Page:284

   6535 16 000307   200004 633500                    EPPR3   LOP$,,AUTO
        16 000310   200026 453500                    STP3    @RETURN$+1,,AUTO
        16 000311   200003 236100                    LDQ     @NODE$,,AUTO
        16 000312   200025 756100                    STQ     TRIAD$+2,,AUTO
        16 000313   001142 701000 16                 TSX1    REPLACE_DEC_CONST_BY_BINARY
        16 000314   000320 702000 16                 TSX2    s:6538

     1368     6536    3           WHENRETURN DO;

     1369     6537    3             OLD_NODE$ -> ETT.COUNT = 0;

   6537 16 000315   000000 220003                    LDX0    0,DU
        16 000316   200007 470500                    LDP0    OLD_NODE$,,AUTO
        16 000317   000000 440100                    SXL0    0,,PR0

     1370     6538    3           END;

   6538 16 000320   000566 710000 16                 TRA     s:6600

     1371     6539
     1372     6540    2     CASE (%CVID4, %CVID9); /* Binary to Decimal */

     1373     6541
     1374     6542    2       LOP$ = NODE$ -> ETT.LOP;

   6542 16 000321   100001 236100                    LDQ     1,,PR1
        16 000322   200004 756100                    STQ     LOP$,,AUTO

     1375     6543    2       CALL Z8GO$CHECK_OP (LOP$);

   6543 16 000323   200004 631500                    EPPR1   LOP$,,AUTO
        16 000324   200032 451500                    STP1    DNT$$+2,,AUTO
        16 000325   200032 630500                    EPPR0   DNT$$+2,,AUTO
        16 000326   000001 631400 17                 EPPR1   1
        16 000327   000000 701000 16                 TSX1    s:6
        16 000330   000000 011000                    NOP     0
PL6.E3A0      #002=Z8GO$CHECK_OP File=Z8GO.:Z8A6TSI                              TUE 08/26/97 07:55 Page:285

     1376     6544
     1377     6545    2       IF LOP$ -> ETT.ID = %TRIAD THEN /* Constant */

   6545 16 000331   200004 470500                    LDP0    LOP$,,AUTO
        16 000332   000000 220100                    LDX0    0,,PR0
        16 000333   000015 100003                    CMPX0   13,DU
        16 000334   000566 601000 16                 TNZ     s:6600

     1378     6546    2         CALL REPLACE_BIN_CONST_BY_DECIMAL (NODE$, LOP$);

   6546 16 000335   200004 631500                    EPPR1   LOP$,,AUTO
        16 000336   200012 451500                    STP1    @ST$$+1,,AUTO
        16 000337   200003 236100                    LDQ     @NODE$,,AUTO
        16 000340   200011 756100                    STQ     OLD_NODE$+2,,AUTO
        16 000341   001211 701000 16                 TSX1    REPLACE_BIN_CONST_BY_DECIMAL
        16 000342   000000 011000                    NOP     0
        16 000343   000566 710000 16                 TRA     s:6600

     1379     6547
     1380     6548    2     CASE (%ADD, %SBD, %MPD, %DVD,  /* 2 operand operations */

     1381     6549    2           %ADI, %SBI, %MPI, %DVI);
     1382     6550
     1383     6551    2       CALL Z8GO$CHECK_OP (NODE$ -> ETT.LOP); /* Check left  op. */

   6551 16 000344   100001 633500                    EPPR3   1,,PR1
        16 000345   200032 453500                    STP3    DNT$$+2,,AUTO
        16 000346   200032 630500                    EPPR0   DNT$$+2,,AUTO
        16 000347   000001 631400 17                 EPPR1   1
        16 000350   000000 701000 16                 TSX1    s:6
        16 000351   000000 011000                    NOP     0

     1384     6552    2       CALL Z8GO$CHECK_OP (NODE$ -> ETT.ROP); /* Check right op. */

   6552 16 000352   200003 470500                    LDP0    @NODE$,,AUTO
        16 000353   000000 471500                    LDP1    0,,PR0
PL6.E3A0      #002=Z8GO$CHECK_OP File=Z8GO.:Z8A6TSI                              TUE 08/26/97 07:55 Page:286
        16 000354   100002 633500                    EPPR3   2,,PR1
        16 000355   200032 453500                    STP3    DNT$$+2,,AUTO
        16 000356   200032 630500                    EPPR0   DNT$$+2,,AUTO
        16 000357   000001 631400 17                 EPPR1   1
        16 000360   000000 701000 16                 TSX1    s:6
        16 000361   000000 011000                    NOP     0

     1385     6553
     1386     6554    2       IF  NODE$ -> ETT.LOP -> ETT.ID = %TRIAD /* constant */

   6554 16 000362   200003 470500                    LDP0    @NODE$,,AUTO
        16 000363   000000 471500                    LDP1    0,,PR0
        16 000364   100001 473500                    LDP3    1,,PR1
        16 000365   300000 220100                    LDX0    0,,PR3
        16 000366   000015 100003                    CMPX0   13,DU
        16 000367   000566 601000 16                 TNZ     s:6600
        16 000370   100002 474500                    LDP4    2,,PR1
        16 000371   400000 221100                    LDX1    0,,PR4
        16 000372   000015 101003                    CMPX1   13,DU
        16 000373   000566 601000 16                 TNZ     s:6600

     1387     6555    2       AND NODE$ -> ETT.ROP -> ETT.ID = %TRIAD THEN
     1388     6556    2         CALL DO_CONSTANT_ARITH (NODE$);

   6556 16 000374   200003 236100                    LDQ     @NODE$,,AUTO
        16 000375   200011 756100                    STQ     OLD_NODE$+2,,AUTO
        16 000376   000637 701000 16                 TSX1    DO_CONSTANT_ARITH
        16 000377   000000 011000                    NOP     0
        16 000400   000566 710000 16                 TRA     s:6600

     1389     6557
     1390     6558    2     CASE (%CMPD);  /* Compare Decimal -- change to CMPI? */

     1391     6559
     1392     6560    2       CALL Z8GO$CHECK_OP (NODE$ -> ETT.LOP);

   6560 16 000401   100001 633500                    EPPR3   1,,PR1
PL6.E3A0      #002=Z8GO$CHECK_OP File=Z8GO.:Z8A6TSI                              TUE 08/26/97 07:55 Page:287
        16 000402   200032 453500                    STP3    DNT$$+2,,AUTO
        16 000403   200032 630500                    EPPR0   DNT$$+2,,AUTO
        16 000404   000001 631400 17                 EPPR1   1
        16 000405   000000 701000 16                 TSX1    s:6
        16 000406   000000 011000                    NOP     0

     1393     6561    2       CALL Z8GO$CHECK_OP (NODE$ -> ETT.ROP);

   6561 16 000407   200003 470500                    LDP0    @NODE$,,AUTO
        16 000410   000000 471500                    LDP1    0,,PR0
        16 000411   100002 633500                    EPPR3   2,,PR1
        16 000412   200032 453500                    STP3    DNT$$+2,,AUTO
        16 000413   200032 630500                    EPPR0   DNT$$+2,,AUTO
        16 000414   000001 631400 17                 EPPR1   1
        16 000415   000000 701000 16                 TSX1    s:6
        16 000416   000000 011000                    NOP     0

     1394     6562    2       LOP$ = NODE$ -> ETT.LOP;

   6562 16 000417   200003 470500                    LDP0    @NODE$,,AUTO
        16 000420   000000 471500                    LDP1    0,,PR0
        16 000421   100001 236100                    LDQ     1,,PR1
        16 000422   200004 756100                    STQ     LOP$,,AUTO

     1395     6563    2       ROP$ = NODE$ -> ETT.ROP;

   6563 16 000423   000000 471500                    LDP1    0,,PR0
        16 000424   100002 236100                    LDQ     2,,PR1
        16 000425   200005 756100                    STQ     ROP$,,AUTO

     1396     6564
     1397     6565    2       IF (LOP$ -> ETT.ID = %CVID4

   6565 16 000426   200004 471500                    LDP1    LOP$,,AUTO
        16 000427   100000 220100                    LDX0    0,,PR1
        16 000430   000126 100003                    CMPX0   86,DU
        16 000431   000434 600000 16                 TZE     s:6565+6
PL6.E3A0      #002=Z8GO$CHECK_OP File=Z8GO.:Z8A6TSI                              TUE 08/26/97 07:55 Page:288
        16 000432   000036 100003                    CMPX0   30,DU
        16 000433   000500 601000 16                 TNZ     s:6578
        16 000434   200005 473500                    LDP3    ROP$,,AUTO
        16 000435   300000 221100                    LDX1    0,,PR3
        16 000436   000015 101003                    CMPX1   13,DU
        16 000437   000500 601000 16                 TNZ     s:6578

     1398     6566    2        OR LOP$ -> ETT.ID = %CVID9)
     1399     6567    3       AND ROP$ -> ETT.ID = %TRIAD THEN DO;

     1400     6568    3         LOP$ = LOP$ -> ETT.LOP; /* LOP of CVID is TYI */

   6568 16 000440   100001 236100                    LDQ     1,,PR1
        16 000441   200004 756100                    STQ     LOP$,,AUTO

     1401     6569    3         CALL REPLACE_DEC_CONST_BY_BINARY (ROP$, ROP$)

   6569 16 000442   200005 631500                    EPPR1   ROP$,,AUTO
        16 000443   200026 451500                    STP1    @RETURN$+1,,AUTO
        16 000444   200005 634500                    EPPR4   ROP$,,AUTO
        16 000445   200025 454500                    STP4    TRIAD$+2,,AUTO
        16 000446   001142 701000 16                 TSX1    REPLACE_DEC_CONST_BY_BINARY
        16 000447   000451 702000 16                 TSX2    s:6571
        16 000450   000452 710000 16                 TRA     s:6573

     1402     6570    4           WHENALTRETURN DO;

     1403     6571    4             RETURN;

   6571 16 000451   000000 702200 xent               TSX2  ! X66_ARET

     1404     6572    4           END;
     1405     6573    3         OLD_NODE$ = NODE$; /* Save pointer to CMPD */

   6573 16 000452   200003 470500                    LDP0    @NODE$,,AUTO
        16 000453   000000 236100                    LDQ     0,,PR0
        16 000454   200007 756100                    STQ     OLD_NODE$,,AUTO
PL6.E3A0      #002=Z8GO$CHECK_OP File=Z8GO.:Z8A6TSI                              TUE 08/26/97 07:55 Page:289

     1406     6574    3         CALL Z8AF$FORME (%CMPI, LOP$, ROP$, NODE$);

   6574 16 000455   200003 236100                    LDQ     @NODE$,,AUTO
        16 000456   200035 756100                    STQ     DNT$$+5,,AUTO
        16 000457   200005 631500                    EPPR1   ROP$,,AUTO
        16 000460   200034 451500                    STP1    DNT$$+4,,AUTO
        16 000461   200004 633500                    EPPR3   LOP$,,AUTO
        16 000462   200033 453500                    STP3    DNT$$+3,,AUTO
        16 000463   000004 236000 17                 LDQ     4
        16 000464   200032 756100                    STQ     DNT$$+2,,AUTO
        16 000465   200032 630500                    EPPR0   DNT$$+2,,AUTO
        16 000466   000002 631400 17                 EPPR1   2
        16 000467   000000 701000 xent               TSX1    Z8AF$FORME
        16 000470   000000 011000                    NOP     0

     1407     6575    3         CALL COPY_EVALP_INFO (NODE$, OLD_NODE$);

   6575 16 000471   200007 630500                    EPPR0   OLD_NODE$,,AUTO
        16 000472   200016 450500                    STP0    @NODE$+1,,AUTO
        16 000473   200003 236100                    LDQ     @NODE$,,AUTO
        16 000474   200015 756100                    STQ     LENGTH+1,,AUTO
        16 000475   001365 701000 16                 TSX1    COPY_EVALP_INFO
        16 000476   000000 011000                    NOP     0

     1408     6576    3       END;

   6576 16 000477   000566 710000 16                 TRA     s:6600

     1409     6577    2       ELSE
     1410     6578    2       IF (ROP$ -> ETT.ID = %CVID4

   6578 16 000500   200005 473500                    LDP3    ROP$,,AUTO
        16 000501   300000 221100                    LDX1    0,,PR3
        16 000502   000126 101003                    CMPX1   86,DU
        16 000503   000506 600000 16                 TZE     s:6578+6
        16 000504   000036 101003                    CMPX1   30,DU
PL6.E3A0      #002=Z8GO$CHECK_OP File=Z8GO.:Z8A6TSI                              TUE 08/26/97 07:55 Page:290
        16 000505   000566 601000 16                 TNZ     s:6600
        16 000506   000015 100003                    CMPX0   13,DU
        16 000507   000566 601000 16                 TNZ     s:6600

     1411     6579    2        OR ROP$ -> ETT.ID = %CVID9)
     1412     6580    3       AND LOP$ -> ETT.ID = %TRIAD THEN DO;

     1413     6581    3         ROP$ = ROP$ -> ETT.LOP; /* LOP of CVID is TYI */

   6581 16 000510   300001 236100                    LDQ     1,,PR3
        16 000511   200005 756100                    STQ     ROP$,,AUTO

     1414     6582    3         CALL REPLACE_DEC_CONST_BY_BINARY (LOP$, LOP$)

   6582 16 000512   200004 633500                    EPPR3   LOP$,,AUTO
        16 000513   200026 453500                    STP3    @RETURN$+1,,AUTO
        16 000514   200004 634500                    EPPR4   LOP$,,AUTO
        16 000515   200025 454500                    STP4    TRIAD$+2,,AUTO
        16 000516   001142 701000 16                 TSX1    REPLACE_DEC_CONST_BY_BINARY
        16 000517   000521 702000 16                 TSX2    s:6584
        16 000520   000522 710000 16                 TRA     s:6586

     1415     6583    4           WHENALTRETURN DO;

     1416     6584    4             RETURN;

   6584 16 000521   000000 702200 xent               TSX2  ! X66_ARET

     1417     6585    4           END;
     1418     6586    3         OLD_NODE$ = NODE$; /* Save pointer to CMPD */

   6586 16 000522   200003 470500                    LDP0    @NODE$,,AUTO
        16 000523   000000 236100                    LDQ     0,,PR0
        16 000524   200007 756100                    STQ     OLD_NODE$,,AUTO

     1419     6587    3         CALL Z8AF$FORME (%CMPI, LOP$, ROP$, NODE$);

PL6.E3A0      #002=Z8GO$CHECK_OP File=Z8GO.:Z8A6TSI                              TUE 08/26/97 07:55 Page:291
   6587 16 000525   200003 236100                    LDQ     @NODE$,,AUTO
        16 000526   200035 756100                    STQ     DNT$$+5,,AUTO
        16 000527   200005 631500                    EPPR1   ROP$,,AUTO
        16 000530   200034 451500                    STP1    DNT$$+4,,AUTO
        16 000531   200004 633500                    EPPR3   LOP$,,AUTO
        16 000532   200033 453500                    STP3    DNT$$+3,,AUTO
        16 000533   000004 236000 17                 LDQ     4
        16 000534   200032 756100                    STQ     DNT$$+2,,AUTO
        16 000535   200032 630500                    EPPR0   DNT$$+2,,AUTO
        16 000536   000002 631400 17                 EPPR1   2
        16 000537   000000 701000 xent               TSX1    Z8AF$FORME
        16 000540   000000 011000                    NOP     0

     1420     6588    3         CALL COPY_EVALP_INFO (NODE$, OLD_NODE$);

   6588 16 000541   200007 630500                    EPPR0   OLD_NODE$,,AUTO
        16 000542   200016 450500                    STP0    @NODE$+1,,AUTO
        16 000543   200003 236100                    LDQ     @NODE$,,AUTO
        16 000544   200015 756100                    STQ     LENGTH+1,,AUTO
        16 000545   001365 701000 16                 TSX1    COPY_EVALP_INFO
        16 000546   000000 011000                    NOP     0

     1421     6589    3       END;

   6589 16 000547   000566 710000 16                 TRA     s:6600

     1422     6590
     1423     6591    2     CASE (%EVAL); /* MOVE to multiple operands */

     1424     6592
     1425     6593    2       CALL Z8GO$CHECK_OP (NODE$ -> ETT.LOP);

   6593 16 000550   100001 633500                    EPPR3   1,,PR1
        16 000551   200032 453500                    STP3    DNT$$+2,,AUTO
        16 000552   200032 630500                    EPPR0   DNT$$+2,,AUTO
        16 000553   000001 631400 17                 EPPR1   1
        16 000554   000000 701000 16                 TSX1    s:6
PL6.E3A0      #002=Z8GO$CHECK_OP File=Z8GO.:Z8A6TSI                              TUE 08/26/97 07:55 Page:292
        16 000555   000000 011000                    NOP     0

     1426     6594
     1427     6595    2       IF NODE$ -> ETT.LOP -> ETT.ID = %TRIAD THEN

   6595 16 000556   200003 470500                    LDP0    @NODE$,,AUTO
        16 000557   000000 471500                    LDP1    0,,PR0
        16 000560   100001 473500                    LDP3    1,,PR1
        16 000561   300000 220100                    LDX0    0,,PR3
        16 000562   000015 100003                    CMPX0   13,DU
        16 000563   000566 601000 16                 TNZ     s:6600

     1428     6596    2         NODE$ = NODE$ -> ETT.LOP;

   6596 16 000564   100001 236100                    LDQ     1,,PR1
        16 000565   000000 756100                    STQ     0,,PR0

     1429     6597
     1430     6598    2   END; /* Case of NODE$ ETT identification field */

     1431     6599
     1432     6600    1   RETURN; /* Z8GO$CHECK_OP */

   6600 16 000566   000000 702200 xent               TSX2  ! X66_ARET

     1433     6601
     1434     6602        %EJECT;
PL6.E3A0      #002=Z8GO$CHECK_OP File=Z8GO.:Z8A6TSI                              TUE 08/26/97 07:55 Page:293
     1435     6603    1   REPLACE_SSOP_BY_OFF: PROC (NODE$);

   6603 16 000567   200010 741300       REPLACE_SSO* STX1  ! OLD_NODE$+1,,AUTO

     1436     6604
     1437     6605        /*I*   NAME: REPLACE_SSOP_BY_OFF
     1438     6606               CALL: CALL REPLACE_SSOP_BY_OFF (NODE$);
     1439     6607              INPUT: NODE$ -- SSOP triad to be replaced
     1440     6608             OUTPUT: NODE$ -- OFF triad with adjusted offset
     1441     6609        DESCRIPTION: NODE$ points to a SSOP that has a constant
     1442     6610                     as the ROP.  This constant needs to be
     1443     6611                     combined with the OFF offset to create a new
     1444     6612                     OFF triad, which will be the result.
     1445     6613        */
     1446     6614
     1447     6615    2   DCL  NODE$    PTR;  /* Pointer to SSOP ETT item           */
     1448     6616    2   DCL  NEW_OFF  SBIN; /* New offset = old offset + SSOP ROP */
     1449     6617    2   DCL  OLD_OFF$ PTR;  /* Save NODE$ pointer                 */
     1450     6618
     1451     6619    2   REPLACE_SSOP_BY_OFF:
     1452     6620
     1453     6621    2   NEW_OFF = NODE$ -> ETT.ROP -> ETT.LOP -> CONST.CONSTI.WORD1;

   6621 16 000570   200011 470500       REPLACE_SSO* LDP0    @NODE$,,AUTO
        16 000571   000000 471500                    LDP1    0,,PR0
        16 000572   100002 473500                    LDP3    2,,PR1
        16 000573   300001 474500                    LDP4    1,,PR3
        16 000574   400010 235100                    LDA     8,,PR4
        16 000575   200012 755100                    STA     NEW_OFF,,AUTO

     1454     6622    2   NEW_OFF = NEW_OFF

   6622 16 000576   000000 471500                    LDP1    0,,PR0
        16 000577   100001 473500                    LDP3    1,,PR1
        16 000600   300002 236100                    LDQ     2,,PR3
        16 000601   000022 732000                    QRS     18
        16 000602   200012 036100                    ADLQ    NEW_OFF,,AUTO
PL6.E3A0      #002=Z8GO$CHECK_OP File=Z8GO.:Z8A6TSI                              TUE 08/26/97 07:55 Page:294
        16 000603   200012 756100                    STQ     NEW_OFF,,AUTO

     1455     6623    2           + NODE$ -> ETT.LOP -> ETT.OFFSET.VALUE;
     1456     6624    2   IF NEW_OFF >= 131072 /* %128K */

   6624 16 000604   400000 116007                    CMPQ    -131072,DL
        16 000605   000610 605000 16                 TPL     s:6626
        16 000606   000005 116000 17                 CMPQ    5
        16 000607   000611 605000 16                 TPL     s:6628

     1457     6625    2   OR NEW_OFF < -131072 /* - %128K */ THEN
     1458     6626    2     RETURN; /* Can't combine; leave it as is */

   6626 16 000610   000001 702211                    TSX2  ! 1,X1

     1459     6627
     1460     6628    2   OLD_OFF$ = NODE$; /* Save pointer to old OFF triad */

   6628 16 000611   000000 236100                    LDQ     0,,PR0
        16 000612   200013 756100                    STQ     OLD_OFF$,,AUTO

     1461     6629    2   CALL Z8AF$NEW_OFF (NODE$ -> ETT.LOP -> ETT.LOP,

   6629 16 000613   000000 471500                    LDP1    0,,PR0
        16 000614   100001 473500                    LDP3    1,,PR1
        16 000615   200011 236100                    LDQ     @NODE$,,AUTO
        16 000616   200034 756100                    STQ     DNT$$+4,,AUTO
        16 000617   200012 631500                    EPPR1   NEW_OFF,,AUTO
        16 000620   200033 451500                    STP1    DNT$$+3,,AUTO
        16 000621   300001 634500                    EPPR4   1,,PR3
        16 000622   200032 454500                    STP4    DNT$$+2,,AUTO
        16 000623   200032 630500                    EPPR0   DNT$$+2,,AUTO
        16 000624   000006 631400 17                 EPPR1   6
        16 000625   000000 701000 xent               TSX1    Z8AF$NEW_OFF
        16 000626   000000 011000                    NOP     0

     1462     6630    2                      NEW_OFF,
PL6.E3A0      #002=Z8GO$CHECK_OP File=Z8GO.:Z8A6TSI                              TUE 08/26/97 07:55 Page:295
     1463     6631    2                      NODE$);
     1464     6632    2   CALL COPY_EVALP_INFO (NODE$, OLD_OFF$);

   6632 16 000627   200013 630500                    EPPR0   OLD_OFF$,,AUTO
        16 000630   200016 450500                    STP0    @NODE$+1,,AUTO
        16 000631   200011 236100                    LDQ     @NODE$,,AUTO
        16 000632   200015 756100                    STQ     LENGTH+1,,AUTO
        16 000633   001365 701000 16                 TSX1    COPY_EVALP_INFO
        16 000634   000000 011000                    NOP     0

     1465     6633
     1466     6634    2   END REPLACE_SSOP_BY_OFF;

   6634 16 000635   200010 221300                    LDX1  ! OLD_NODE$+1,,AUTO
        16 000636   000001 702211                    TSX2  ! 1,X1

     1467     6635
     1468     6636        %EJECT;
PL6.E3A0      #002=Z8GO$CHECK_OP File=Z8GO.:Z8A6TSI                              TUE 08/26/97 07:55 Page:296
     1469     6637    1   DO_CONSTANT_ARITH: PROC (NODE$);

   6637 16 000637   200010 741300       DO_CONSTANT* STX1  ! OLD_NODE$+1,,AUTO

     1470     6638
     1471     6639        /*I*   NAME: DO_CONSTANT_ARITH
     1472     6640               CALL: CALL DO_CONSTANT_ARITH (NODE$);
     1473     6641              INPUT: NODE$ -- Arithmetic triad to be replaced
     1474     6642             OUTPUT: NODE$ -- New ETT item is a TRIAD -> constant
     1475     6643        DESCRIPTION: NODE$ points to an arithmetic triad which
     1476     6644                     consists of an operator and two operands.
     1477     6645                     The two operands are constants; they will be
     1478     6646                     combined by the operator (+, -, *, /).
     1479     6647        */
     1480     6648
     1481     6649    2   DCL  NODE$      PTR;     /* ETT item with LOP & ROP are constants */
     1482     6650    2   DCL  CONSTANT1  SBIN;    /* LOP */
     1483     6651    2   DCL  CONSTANT2  SBIN;    /* ROP */
     1484     6652    2   DCL  CONSTANT3  SBIN;    /* LOP <op> ROP */
     1485     6653    2   DCL  ST1$       PTR;     /* LOP ST */
     1486     6654    2   DCL  ST2$       PTR;     /* ROP ST */
     1487     6655    2   DCL  D_CONSTANT CHAR(8); /* Decimal Result */
     1488     6656    2   DCL  LENGTH     SBIN;    /* Length of D_CONSTANT */
     1489     6657    2   DCL  TYPE       SBIN;    /* ST.TYPE */
     1490     6658    2   DCL  TRIAD$     PTR;     /* TRIAD ETT item */
     1491     6659
     1492     6660    2   DCL  Z8AC$MAKE_CONST_DEC_LEAD  ENTRY (4);
     1493     6661
     1494     6662    2   DO_CONSTANT_ARITH:
     1495     6663
     1496     6664    2   TYPE = NODE$ -> ETT.LOP -> ETT.LOP -> ST.TYPE;

   6664 16 000640   200011 470500       DO_CONSTANT* LDP0    @NODE$,,AUTO
        16 000641   000000 471500                    LDP1    0,,PR0
        16 000642   100001 473500                    LDP3    1,,PR1
        16 000643   300001 474500                    LDP4    1,,PR3
        16 000644   400002 236100                    LDQ     2,,PR4
PL6.E3A0      #002=Z8GO$CHECK_OP File=Z8GO.:Z8A6TSI                              TUE 08/26/97 07:55 Page:297
        16 000645   000022 772000                    QRL     18
        16 000646   200022 756100                    STQ     TYPE,,AUTO

     1497     6665    3   DO CASE (TYPE);

   6665 16 000647   000002 116007                    CMPQ    2,DL
        16 000650   000652 602006 16                 TNC     s:6665+3,QL
        16 000651   000750 710000 16                 TRA     s:6697
        16 000652   000663 710000 16                 TRA     s:6672
        16 000653   000654 710000 16                 TRA     s:6667

     1498     6666    3     CASE (%TYI);

     1499     6667    3       CONSTANT1 = NODE$ -> ETT.LOP -> ETT.LOP -> CONST.CONSTI.WORD1;

   6667 16 000654   400010 235100                    LDA     8,,PR4
        16 000655   200012 755100                    STA     CONSTANT1,,AUTO

     1500     6668    3       CONSTANT2 = NODE$ -> ETT.ROP -> ETT.LOP -> CONST.CONSTI.WORD1;

   6668 16 000656   100002 475500                    LDP5    2,,PR1
        16 000657   500001 476500                    LDP6    1,,PR5
        16 000660   600010 235100                    LDA     8,,PR6
        16 000661   200013 755100                    STA     CONSTANT2,,AUTO
        16 000662   000751 710000 16                 TRA     s:6700

     1501     6669
     1502     6670    3     CASE (%TYD);

     1503     6671
     1504     6672    3       ST1$ = NODE$ -> ETT.LOP -> ETT.LOP;

   6672 16 000663   300001 236100                    LDQ     1,,PR3
        16 000664   200015 756100                    STQ     ST1$,,AUTO

     1505     6673
     1506     6674    3       IF ST1$ -> ST.NDSC.SF ~= 0
PL6.E3A0      #002=Z8GO$CHECK_OP File=Z8GO.:Z8A6TSI                              TUE 08/26/97 07:55 Page:298

   6674 16 000665   200015 475500                    LDP5    ST1$,,AUTO
        16 000666   500001 236100                    LDQ     1,,PR5
        16 000667   007700 316007                    CANQ    4032,DL
        16 000670   000675 601000 16                 TNZ     s:6676
        16 000671   500001 236100                    LDQ     1,,PR5
        16 000672   000077 376007                    ANQ     63,DL
        16 000673   000011 116007                    CMPQ    9,DL
        16 000674   000676 602000 16                 TNC     s:6678

     1507     6675    3       OR ST1$ -> ST.NDSC.N > 8 THEN
     1508     6676    3         RETURN;

   6676 16 000675   000001 702211                    TSX2  ! 1,X1

     1509     6677
     1510     6678    3       CALL REPLACE_DEC_CONST_BY_BINARY (TRIAD$, NODE$ -> ETT.LOP)

   6678 16 000676   100001 636500                    EPPR6   1,,PR1
        16 000677   200026 456500                    STP6    @RETURN$+1,,AUTO
        16 000700   200023 631500                    EPPR1   TRIAD$,,AUTO
        16 000701   200025 451500                    STP1    TRIAD$+2,,AUTO
        16 000702   001142 701000 16                 TSX1    REPLACE_DEC_CONST_BY_BINARY
        16 000703   000705 702000 16                 TSX2    s:6680
        16 000704   000707 710000 16                 TRA     s:6682

     1511     6679    4         WHENALTRETURN DO;

     1512     6680    4           RETURN;

   6680 16 000705   200010 221300                    LDX1  ! OLD_NODE$+1,,AUTO
        16 000706   000001 702211                    TSX2  ! 1,X1

     1513     6681    4         END;
     1514     6682    3       CONSTANT1 = TRIAD$ -> ETT.LOP -> CONST.CONSTI.WORD1;

   6682 16 000707   200023 470500                    LDP0    TRIAD$,,AUTO
PL6.E3A0      #002=Z8GO$CHECK_OP File=Z8GO.:Z8A6TSI                              TUE 08/26/97 07:55 Page:299
        16 000710   000001 471500                    LDP1    1,,PR0
        16 000711   100010 235100                    LDA     8,,PR1
        16 000712   200012 755100                    STA     CONSTANT1,,AUTO

     1515     6683
     1516     6684    3       ST2$ = NODE$ -> ETT.ROP -> ETT.LOP;

   6684 16 000713   200011 473500                    LDP3    @NODE$,,AUTO
        16 000714   300000 474500                    LDP4    0,,PR3
        16 000715   400002 475500                    LDP5    2,,PR4
        16 000716   500001 236100                    LDQ     1,,PR5
        16 000717   200016 756100                    STQ     ST2$,,AUTO

     1517     6685
     1518     6686    3       IF ST2$ -> ST.NDSC.SF ~= 0

   6686 16 000720   200016 476500                    LDP6    ST2$,,AUTO
        16 000721   600001 236100                    LDQ     1,,PR6
        16 000722   007700 316007                    CANQ    4032,DL
        16 000723   000730 601000 16                 TNZ     s:6688
        16 000724   600001 236100                    LDQ     1,,PR6
        16 000725   000077 376007                    ANQ     63,DL
        16 000726   000011 116007                    CMPQ    9,DL
        16 000727   000732 602000 16                 TNC     s:6690

     1519     6687    3       OR ST2$ -> ST.NDSC.N > 8 THEN
     1520     6688    3         RETURN;

   6688 16 000730   200010 221300                    LDX1  ! OLD_NODE$+1,,AUTO
        16 000731   000001 702211                    TSX2  ! 1,X1

     1521     6689
     1522     6690    3       CALL REPLACE_DEC_CONST_BY_BINARY (TRIAD$, NODE$ -> ETT.ROP)

   6690 16 000732   400002 637500                    EPPR7   2,,PR4
        16 000733   200026 457500                    STP7    @RETURN$+1,,AUTO
        16 000734   200023 631500                    EPPR1   TRIAD$,,AUTO
PL6.E3A0      #002=Z8GO$CHECK_OP File=Z8GO.:Z8A6TSI                              TUE 08/26/97 07:55 Page:300
        16 000735   200025 451500                    STP1    TRIAD$+2,,AUTO
        16 000736   001142 701000 16                 TSX1    REPLACE_DEC_CONST_BY_BINARY
        16 000737   000741 702000 16                 TSX2    s:6692
        16 000740   000743 710000 16                 TRA     s:6694

     1523     6691    4         WHENALTRETURN DO;

     1524     6692    4           RETURN;

   6692 16 000741   200010 221300                    LDX1  ! OLD_NODE$+1,,AUTO
        16 000742   000001 702211                    TSX2  ! 1,X1

     1525     6693    4         END;
     1526     6694    3       CONSTANT2 = TRIAD$ -> ETT.LOP -> CONST.CONSTI.WORD1;

   6694 16 000743   200023 470500                    LDP0    TRIAD$,,AUTO
        16 000744   000001 471500                    LDP1    1,,PR0
        16 000745   100010 235100                    LDA     8,,PR1
        16 000746   200013 755100                    STA     CONSTANT2,,AUTO
        16 000747   000751 710000 16                 TRA     s:6700

     1527     6695
     1528     6696    3     CASE (ELSE);

     1529     6697    3       RETURN; /* Can't optimize if type is not TYI or TYD */

   6697 16 000750   000001 702211                    TSX2  ! 1,X1

     1530     6698    3   END; /* Case of LOP ROP TYPE */

     1531     6699
     1532     6700    3   DO CASE (NODE$ -> ETT.ID);

   6700 16 000751   200011 470500                    LDP0    @NODE$,,AUTO
        16 000752   000000 471500                    LDP1    0,,PR0
        16 000753   100000 236100                    LDQ     0,,PR1
        16 000754   000022 772000                    QRL     18
PL6.E3A0      #002=Z8GO$CHECK_OP File=Z8GO.:Z8A6TSI                              TUE 08/26/97 07:55 Page:301
        16 000755   000053 136007                    SBLQ    43,DL
        16 000756   000010 116007                    CMPQ    8,DL
        16 000757   000761 602006 16                 TNC     s:6700+8,QL
        16 000760   001035 710000 16                 TRA     s:6716
        16 000761   000771 710000 16                 TRA     s:6702
        16 000762   000771 710000 16                 TRA     s:6702
        16 000763   000775 710000 16                 TRA     s:6704
        16 000764   000775 710000 16                 TRA     s:6704
        16 000765   001005 710000 16                 TRA     s:6708
        16 000766   001001 710000 16                 TRA     s:6706
        16 000767   001035 710000 16                 TRA     s:6716
        16 000770   001025 710000 16                 TRA     s:6712

     1533     6701    3     CASE (%ADI, %ADD); /* LOP + ROP */

     1534     6702    3       CONSTANT3 = CONSTANT1 + CONSTANT2;

   6702 16 000771   200012 236100                    LDQ     CONSTANT1,,AUTO
        16 000772   200013 036100                    ADLQ    CONSTANT2,,AUTO
        16 000773   200014 756100                    STQ     CONSTANT3,,AUTO
        16 000774   001037 710000 16                 TRA     s:6719

     1535     6703    3     CASE (%SBI, %SBD); /* LOP - ROP */

     1536     6704    3       CONSTANT3 = CONSTANT1 - CONSTANT2;

   6704 16 000775   200012 236100                    LDQ     CONSTANT1,,AUTO
        16 000776   200013 136100                    SBLQ    CONSTANT2,,AUTO
        16 000777   200014 756100                    STQ     CONSTANT3,,AUTO
        16 001000   001037 710000 16                 TRA     s:6719

     1537     6705    3     CASE (%MPI); /* LOP * ROP, Integer */

     1538     6706    3       CONSTANT3 = CONSTANT1 * CONSTANT2;

   6706 16 001001   200012 236100                    LDQ     CONSTANT1,,AUTO
        16 001002   200013 402100                    MPY     CONSTANT2,,AUTO
PL6.E3A0      #002=Z8GO$CHECK_OP File=Z8GO.:Z8A6TSI                              TUE 08/26/97 07:55 Page:302
        16 001003   200014 756100                    STQ     CONSTANT3,,AUTO
        16 001004   001037 710000 16                 TRA     s:6719

     1539     6707    3     CASE (%MPD); /* LOP * ROP, Decimal */

     1540     6708    3       IF ST1$ -> ST.NDSC.N + ST2$ -> ST.NDSC.N > 10 THEN

   6708 16 001005   200016 473500                    LDP3    ST2$,,AUTO
        16 001006   300001 236100                    LDQ     1,,PR3
        16 001007   000077 376007                    ANQ     63,DL
        16 001010   200032 756100                    STQ     DNT$$+2,,AUTO
        16 001011   200015 471500                    LDP1    ST1$,,AUTO
        16 001012   100001 236100                    LDQ     1,,PR1
        16 001013   000077 376007                    ANQ     63,DL
        16 001014   200032 036100                    ADLQ    DNT$$+2,,AUTO
        16 001015   000013 116007                    CMPQ    11,DL
        16 001016   001021 602000 16                 TNC     s:6710

     1541     6709    3         RETURN;

   6709 16 001017   200010 221300                    LDX1  ! OLD_NODE$+1,,AUTO
        16 001020   000001 702211                    TSX2  ! 1,X1

     1542     6710    3       CONSTANT3 = CONSTANT1 * CONSTANT2;

   6710 16 001021   200012 236100                    LDQ     CONSTANT1,,AUTO
        16 001022   200013 402100                    MPY     CONSTANT2,,AUTO
        16 001023   200014 756100                    STQ     CONSTANT3,,AUTO
        16 001024   001037 710000 16                 TRA     s:6719

     1543     6711    3     CASE (%DVI); /* LOP / ROP */

     1544     6712    3       IF CONSTANT2 = 0 THEN                                  /*#42953*/

   6712 16 001025   000000 115003                    CMPA    0,DU
        16 001026   001031 601000 16                 TNZ     s:6714

PL6.E3A0      #002=Z8GO$CHECK_OP File=Z8GO.:Z8A6TSI                              TUE 08/26/97 07:55 Page:303
     1545     6713    3         RETURN; /* Prevent divide by zero fault */

   6713 16 001027   200010 221300                    LDX1  ! OLD_NODE$+1,,AUTO
        16 001030   000001 702211                    TSX2  ! 1,X1

     1546     6714    3       CONSTANT3 = CONSTANT1 / CONSTANT2;

   6714 16 001031   200012 236100                    LDQ     CONSTANT1,,AUTO
        16 001032   200013 506100                    DIV     CONSTANT2,,AUTO
        16 001033   200014 756100                    STQ     CONSTANT3,,AUTO
        16 001034   001037 710000 16                 TRA     s:6719

     1547     6715    3     CASE (ELSE);

     1548     6716    3       RETURN;

   6716 16 001035   200010 221300                    LDX1  ! OLD_NODE$+1,,AUTO
        16 001036   000001 702211                    TSX2  ! 1,X1

     1549     6717    3   END; /* Case of ETT.ID */

     1550     6718
     1551     6719    2   NODE$ -> ETT.COUNT = 0;

   6719 16 001037   000000 471500                    LDP1    0,,PR0
        16 001040   000000 220003                    LDX0    0,DU
        16 001041   100000 440100                    SXL0    0,,PR1

     1552     6720    2   NODE$ -> ETT.LOP -> ETT.COUNT = 0;

   6720 16 001042   000000 471500                    LDP1    0,,PR0
        16 001043   100001 473500                    LDP3    1,,PR1
        16 001044   300000 440100                    SXL0    0,,PR3

     1553     6721    2   NODE$ -> ETT.ROP -> ETT.COUNT = 0;

   6721 16 001045   000000 471500                    LDP1    0,,PR0
PL6.E3A0      #002=Z8GO$CHECK_OP File=Z8GO.:Z8A6TSI                              TUE 08/26/97 07:55 Page:304
        16 001046   100002 473500                    LDP3    2,,PR1
        16 001047   300000 440100                    SXL0    0,,PR3

     1554     6722    3   IF TYPE = %TYI THEN DO;

   6722 16 001050   200022 235100                    LDA     TYPE,,AUTO
        16 001051   000001 115007                    CMPA    1,DL
        16 001052   001061 601000 16                 TNZ     s:6727

     1555     6723    3     MKCN.CON = CONSTANT3;

   6723 16 001053   000000 756000 14                 STQ     MKCN

     1556     6724    3     CALL Z8AC$MAKE_CONST (NODE$);

   6724 16 001054   200011 630500                    EPPR0   @NODE$,,AUTO
        16 001055   000001 631400 17                 EPPR1   1
        16 001056   000000 701000 xent               TSX1    Z8AC$MAKE_CONST
        16 001057   000000 011000                    NOP     0

     1557     6725    3   END; /* Type Integer */

   6725 16 001060   001140 710000 16                 TRA     s:6740

     1558     6726    3   ELSE DO; /* Type Decimal */

     1559     6727    3     IF NODE$ -> ETT.ID = %MPD THEN

   6727 16 001061   000000 471500                    LDP1    0,,PR0
        16 001062   100000 221100                    LDX1    0,,PR1
        16 001063   000057 101003                    CMPX1   47,DU
        16 001064   001077 601000 16                 TNZ     s:6730

     1560     6728    3       LENGTH = ST1$ -> ST.NDSC.N + ST2$ -> ST.NDSC.N;

   6728 16 001065   200016 473500                    LDP3    ST2$,,AUTO
        16 001066   300001 236100                    LDQ     1,,PR3
PL6.E3A0      #002=Z8GO$CHECK_OP File=Z8GO.:Z8A6TSI                              TUE 08/26/97 07:55 Page:305
        16 001067   000077 376007                    ANQ     63,DL
        16 001070   200032 756100                    STQ     DNT$$+2,,AUTO
        16 001071   200015 471500                    LDP1    ST1$,,AUTO
        16 001072   100001 236100                    LDQ     1,,PR1
        16 001073   000077 376007                    ANQ     63,DL
        16 001074   200032 036100                    ADLQ    DNT$$+2,,AUTO
        16 001075   200021 756100                    STQ     LENGTH,,AUTO
        16 001076   001112 710000 16                 TRA     s:6735

     1561     6729    4     ELSE DO;

     1562     6730    4       LENGTH = ST1$ -> ST.NDSC.N;

   6730 16 001077   200015 473500                    LDP3    ST1$,,AUTO
        16 001100   300001 236100                    LDQ     1,,PR3
        16 001101   000077 376007                    ANQ     63,DL
        16 001102   200021 756100                    STQ     LENGTH,,AUTO

     1563     6731    4       IF ST2$ -> ST.NDSC.N > LENGTH THEN

   6731 16 001103   200016 474500                    LDP4    ST2$,,AUTO
        16 001104   400001 236100                    LDQ     1,,PR4
        16 001105   000077 376007                    ANQ     63,DL
        16 001106   200021 116100                    CMPQ    LENGTH,,AUTO
        16 001107   001111 604400 16                 TMOZ    s:6733

     1564     6732    4         LENGTH = ST2$ -> ST.NDSC.N;

   6732 16 001110   200021 756100                    STQ     LENGTH,,AUTO

     1565     6733    4       LENGTH = LENGTH + 1;

   6733 16 001111   200021 054100                    AOS     LENGTH,,AUTO

     1566     6734    4     END; /* ID not Multiply Decimal */

     1567     6735    3     IF LENGTH > 7 THEN RETURN;
PL6.E3A0      #002=Z8GO$CHECK_OP File=Z8GO.:Z8A6TSI                              TUE 08/26/97 07:55 Page:306

   6735 16 001112   200021 236100                    LDQ     LENGTH,,AUTO
        16 001113   000007 116007                    CMPQ    7,DL
        16 001114   001117 604400 16                 TMOZ    s:6736

   6735 16 001115   200010 221300                    LDX1  ! OLD_NODE$+1,,AUTO
        16 001116   000001 702211                    TSX2  ! 1,X1

     1568     6736    3     CALL BINXCHAR (SUBSTR (D_CONSTANT, 0, LENGTH+1), CONSTANT3);

   6736 16 001117   000001 621006                    EAX1    1,QL
        16 001120   000140 301500                    BTD
        16 001121   200014 000004                    NDSC9   CONSTANT3,,AUTO          cn=0,s=lsgnf,sf=0,n=4
        16 001122   200017 010011                    NDSC9   D_CONSTANT,,AUTO         cn=0,s=lsgns,sf=0,n=*X1

     1569     6737    3     CALL Z8AC$MAKE_CONST_DEC_LEAD (D_CONSTANT, LENGTH+1, 0, NODE$);

   6737 16 001123   000001 036007                    ADLQ    1,DL
        16 001124   200032 756100                    STQ     DNT$$+2,,AUTO
        16 001125   200011 236100                    LDQ     @NODE$,,AUTO
        16 001126   000010 235000 17                 LDA     8
        16 001127   200036 757100                    STAQ    DNT$$+6,,AUTO
        16 001130   200032 631500                    EPPR1   DNT$$+2,,AUTO
        16 001131   200035 451500                    STP1    DNT$$+5,,AUTO
        16 001132   200017 633500                    EPPR3   D_CONSTANT,,AUTO
        16 001133   200034 453500                    STP3    DNT$$+4,,AUTO
        16 001134   200034 630500                    EPPR0   DNT$$+4,,AUTO
        16 001135   000002 631400 17                 EPPR1   2
        16 001136   000000 701000 xent               TSX1    Z8AC$MAKE_CONST_DEC_LEAD
        16 001137   000000 011000                    NOP     0

     1570     6738    3   END; /* Type Decimal */

     1571     6739
     1572     6740    2   END DO_CONSTANT_ARITH;

   6740 16 001140   200010 221300                    LDX1  ! OLD_NODE$+1,,AUTO
PL6.E3A0      #002=Z8GO$CHECK_OP File=Z8GO.:Z8A6TSI                              TUE 08/26/97 07:55 Page:307
        16 001141   000001 702211                    TSX2  ! 1,X1

     1573     6741
     1574     6742        %EJECT;
PL6.E3A0      #002=Z8GO$CHECK_OP File=Z8GO.:Z8A6TSI                              TUE 08/26/97 07:55 Page:308
     1575     6743    1   REPLACE_DEC_CONST_BY_BINARY: PROC (RETURN$, TRIAD$) ALTRET;

   6743 16 001142   200024 741300       REPLACE_DEC* STX1  ! TRIAD$+1,,AUTO

     1576     6744
     1577     6745        /*I*   NAME: REPLACE_DEC_CONST_BY_BINARY
     1578     6746               CALL: CALL REPLACE_... (RETURN$, TRIAD$);
     1579     6747              INPUT: TRIAD$ --- Constant triad to be replaced
     1580     6748             OUTPUT: RETURN$ -- TRIAD -> an integer constant
     1581     6749        DESCRIPTION: TRIAD$ points to a TRIAD ETT item which points
     1582     6750                     to a decimal constant symbol table (ST) CONST
     1583     6751                     item.  If the scale factor is zero, and the
     1584     6752                     length is less than 11, then convert it to
     1585     6753                     integer.
     1586     6754        */
     1587     6755
     1588     6756    2   DCL  RETURN$  PTR;  /* Returned TRIAD ETT item (binary) */
     1589     6757    2   DCL  TRIAD$   PTR;  /* Input TRIAD ETT item (decimal)   */
     1590     6758    2   DCL  ST$$     PTR;  /* ST CONST pointer */
     1591     6759    2   DCL  DNT$$    PTR;  /* Data Name Table item */
     1592     6760    2   DCL  DESCR2   UBIN WORD STATIC INIT (4); /* Binary descr */
     1593     6761
     1594     6762    2   DCL  X9CV$CVDI ENTRY (4); /* Convert Decimal to Integer (Binary) */
     1595     6763
     1596     6764    2   REPLACE_DEC_CONST_BY_BINARY:
     1597     6765
     1598     6766    2   ST$$ = TRIAD$ -> ETT.LOP;

   6766 16 001143   200026 470500       REPLACE_DEC* LDP0    @TRIAD$,,AUTO
        16 001144   000000 471500                    LDP1    0,,PR0
        16 001145   100001 236100                    LDQ     1,,PR1
        16 001146   200027 756100                    STQ     ST$$,,AUTO

     1599     6767    2   IF ST$$ -> ST.NDSC.SF ~= 0 THEN ALTRETURN;

   6767 16 001147   200027 473500                    LDP3    ST$$,,AUTO
        16 001150   300001 236100                    LDQ     1,,PR3
PL6.E3A0      #002=Z8GO$CHECK_OP File=Z8GO.:Z8A6TSI                              TUE 08/26/97 07:55 Page:309
        16 001151   007700 316007                    CANQ    4032,DL
        16 001152   001154 600000 16                 TZE     s:6768

   6767 16 001153   000000 702211                    TSX2  ! 0,X1

     1600     6768    2   IF ST$$ -> ST.NDSC.N > 8 THEN ALTRETURN;

   6768 16 001154   300001 236100                    LDQ     1,,PR3
        16 001155   000077 376007                    ANQ     63,DL
        16 001156   000011 116007                    CMPQ    9,DL
        16 001157   001161 602000 16                 TNC     s:6770

   6768 16 001160   000000 702211                    TSX2  ! 0,X1

     1601     6769
     1602     6770    2   CALL X9CV$CVDI (ST$$ -> ST.SA,                /* Sending Desc */

   6770 16 001161   000011 236000 17                 LDQ     9
        16 001162   200032 756100                    STQ     DNT$$+2,,AUTO
        16 001163   200027 236100                    LDQ     ST$$,,AUTO
        16 001164   000010 036003                    ADLQ    8,DU
        16 001165   200033 756100                    STQ     DNT$$+3,,AUTO
        16 001166   200033 631500                    EPPR1   DNT$$+3,,AUTO
        16 001167   200037 451500                    STP1    DNT$$+7,,AUTO
        16 001170   200032 634500                    EPPR4   DNT$$+2,,AUTO
        16 001171   200036 454500                    STP4    DNT$$+6,,AUTO
        16 001172   000012 236000 17                 LDQ     10
        16 001173   200035 756100                    STQ     DNT$$+5,,AUTO
        16 001174   200027 236100                    LDQ     ST$$,,AUTO
        16 001175   000001 036003                    ADLQ    1,DU
        16 001176   200034 756100                    STQ     DNT$$+4,,AUTO
        16 001177   200034 630500                    EPPR0   DNT$$+4,,AUTO
        16 001200   000002 631400 17                 EPPR1   2
        16 001201   000000 701000 xent               TSX1    X9CV$CVDI
        16 001202   000000 011000                    NOP     0

     1603     6771    2                   DESCR2,                       /* Recving Desc */
PL6.E3A0      #002=Z8GO$CHECK_OP File=Z8GO.:Z8A6TSI                              TUE 08/26/97 07:55 Page:310
     1604     6772    2                   ADDR (MKCN.CON),              /* Recving Ptr  */
     1605     6773    2                   ADDR (ST$$ -> CONST.CONSTA)); /* Sending Ptr  */
     1606     6774
     1607     6775    2   CALL Z8AC$MAKE_CONST (RETURN$);

   6775 16 001203   200025 630500                    EPPR0   @RETURN$,,AUTO
        16 001204   000001 631400 17                 EPPR1   1
        16 001205   000000 701000 xent               TSX1    Z8AC$MAKE_CONST
        16 001206   000000 011000                    NOP     0

     1608     6776
     1609     6777    2   END REPLACE_DEC_CONST_BY_BINARY;

   6777 16 001207   200024 221300                    LDX1  ! TRIAD$+1,,AUTO
        16 001210   000001 702211                    TSX2  ! 1,X1

     1610     6778
     1611     6779        %EJECT;
PL6.E3A0      #002=Z8GO$CHECK_OP File=Z8GO.:Z8A6TSI                              TUE 08/26/97 07:55 Page:311
     1612     6780    1   REPLACE_BIN_CONST_BY_DECIMAL: PROC (RETURN$, TRIAD$);

   6780 16 001211   200010 741300       REPLACE_BIN* STX1  ! OLD_NODE$+1,,AUTO

     1613     6781
     1614     6782        /*I*   NAME: REPLACE_BIN_CONST_BY_DECIMAL
     1615     6783               CALL: CALL REPLACE_... (RETURN$, TRIAD$);
     1616     6784              INPUT: TRIAD$ --- Constant triad to be replaced
     1617     6785             OUTPUT: RETURN$ -- TRIAD -> a decimal constant
     1618     6786        DESCRIPTION: TRIAD$ points to a TRIAD ETT item which points
     1619     6787                     to an integer constant symbol table (ST) CONST
     1620     6788                     item.  Convert it to decimal.  This is done to
     1621     6789                     optimize a CVID of an integer constant.
     1622     6790        */
     1623     6791
     1624     6792    2   DCL  RETURN$    PTR;       /* Returned TRIAD ETT item (binary) */
     1625     6793    2   DCL  TRIAD$     PTR;       /* Input TRIAD ETT item (decimal) */
     1626     6794    2   DCL  ST$$       PTR;       /* ST CONST pointer */
     1627     6795    2   DCL  LENGTH     SBIN;      /* ST.NDSC.N */
     1628     6796    2   DCL  I_CONSTANT SBIN;      /* The binary constant to convert */
     1629     6797    2   DCL  D_CONSTANT CHAR (12); /* The converted decimal constant */
     1630     6798
     1631     6799    2   DCL  Z8AC$MAKE_CONST_DEC_LEAD  ENTRY (4);
     1632     6800
     1633     6801    2   REPLACE_BIN_CONST_BY_DECIMAL:
     1634     6802
     1635     6803    2   ST$$ = TRIAD$ -> ETT.LOP;

   6803 16 001212   200012 470500       REPLACE_BIN* LDP0    @TRIAD$,,AUTO
        16 001213   000000 471500                    LDP1    0,,PR0
        16 001214   100001 236100                    LDQ     1,,PR1
        16 001215   200013 756100                    STQ     ST$$,,AUTO

     1636     6804    2   I_CONSTANT = ST$$ -> CONST.CONSTI.WORD1;

   6804 16 001216   200013 473500                    LDP3    ST$$,,AUTO
        16 001217   300010 235100                    LDA     8,,PR3
PL6.E3A0      #002=Z8GO$CHECK_OP File=Z8GO.:Z8A6TSI                              TUE 08/26/97 07:55 Page:312
        16 001220   200015 755100                    STA     I_CONSTANT,,AUTO

     1637     6805    2   IF I_CONSTANT < 10 AND I_CONSTANT > -10 THEN LENGTH = 2;

   6805 16 001221   000012 115007                    CMPA    10,DL
        16 001222   001230 605000 16                 TPL     s:6807
        16 001223   000013 115000 17                 CMPA    11
        16 001224   001230 604400 16                 TMOZ    s:6807

   6805 16 001225   000002 235007                    LDA     2,DL
        16 001226   200014 755100                    STA     LENGTH,,AUTO
        16 001227   001266 710000 16                 TRA     s:6817

     1638     6806    2   ELSE
     1639     6807    2   IF I_CONSTANT < 100 AND I_CONSTANT > -100 THEN LENGTH = 3;

   6807 16 001230   000144 115007                    CMPA    100,DL
        16 001231   001237 605000 16                 TPL     s:6809
        16 001232   000014 115000 17                 CMPA    12
        16 001233   001237 604400 16                 TMOZ    s:6809

   6807 16 001234   000003 235007                    LDA     3,DL
        16 001235   200014 755100                    STA     LENGTH,,AUTO
        16 001236   001266 710000 16                 TRA     s:6817

     1640     6808    2   ELSE
     1641     6809    2   IF I_CONSTANT < 1000 AND I_CONSTANT > -1000 THEN LENGTH = 4;

   6809 16 001237   001750 115007                    CMPA    1000,DL
        16 001240   001246 605000 16                 TPL     s:6811
        16 001241   000015 115000 17                 CMPA    13
        16 001242   001246 604400 16                 TMOZ    s:6811

   6809 16 001243   000004 235007                    LDA     4,DL
        16 001244   200014 755100                    STA     LENGTH,,AUTO
        16 001245   001266 710000 16                 TRA     s:6817

PL6.E3A0      #002=Z8GO$CHECK_OP File=Z8GO.:Z8A6TSI                              TUE 08/26/97 07:55 Page:313
     1642     6810    2   ELSE
     1643     6811    2   IF I_CONSTANT < 10000 AND I_CONSTANT > -10000 THEN LENGTH = 5;

   6811 16 001246   023420 115007                    CMPA    10000,DL
        16 001247   001255 605000 16                 TPL     s:6813
        16 001250   000016 115000 17                 CMPA    14
        16 001251   001255 604400 16                 TMOZ    s:6813

   6811 16 001252   000005 235007                    LDA     5,DL
        16 001253   200014 755100                    STA     LENGTH,,AUTO
        16 001254   001266 710000 16                 TRA     s:6817

     1644     6812    2   ELSE
     1645     6813    2   IF I_CONSTANT < 100000 AND I_CONSTANT > -100000 THEN LENGTH = 6;

   6813 16 001255   303240 115007                    CMPA    100000,DL
        16 001256   001264 605000 16                 TPL     s:6815
        16 001257   000017 115000 17                 CMPA    15
        16 001260   001264 604400 16                 TMOZ    s:6815

   6813 16 001261   000006 235007                    LDA     6,DL
        16 001262   200014 755100                    STA     LENGTH,,AUTO
        16 001263   001266 710000 16                 TRA     s:6817

     1646     6814    2   ELSE
     1647     6815    2     LENGTH = 12;

   6815 16 001264   000014 235007                    LDA     12,DL
        16 001265   200014 755100                    STA     LENGTH,,AUTO

     1648     6816
     1649     6817    2   CALL BINXCHAR (SUBSTR (D_CONSTANT, 0, LENGTH), I_CONSTANT);

   6817 16 001266   000000 620005                    EAX0    0,AL
        16 001267   000140 301500                    BTD
        16 001270   200015 000004                    NDSC9   I_CONSTANT,,AUTO         cn=0,s=lsgnf,sf=0,n=4
        16 001271   200016 010010                    NDSC9   D_CONSTANT,,AUTO         cn=0,s=lsgns,sf=0,n=*X0
PL6.E3A0      #002=Z8GO$CHECK_OP File=Z8GO.:Z8A6TSI                              TUE 08/26/97 07:55 Page:314

     1650     6818
     1651     6819    2   RETURN$ -> ETT.COUNT = 0;

   6819 16 001272   200011 471500                    LDP1    @RETURN$,,AUTO
        16 001273   100000 474500                    LDP4    0,,PR1
        16 001274   000000 220003                    LDX0    0,DU
        16 001275   400000 440100                    SXL0    0,,PR4

     1652     6820    2   CALL Z8AC$MAKE_CONST_DEC_LEAD (D_CONSTANT, LENGTH, 0, RETURN$);

   6820 16 001276   200011 236100                    LDQ     @RETURN$,,AUTO
        16 001277   000010 235000 17                 LDA     8
        16 001300   200034 757100                    STAQ    DNT$$+4,,AUTO
        16 001301   200014 634500                    EPPR4   LENGTH,,AUTO
        16 001302   200033 454500                    STP4    DNT$$+3,,AUTO
        16 001303   200016 635500                    EPPR5   D_CONSTANT,,AUTO
        16 001304   200032 455500                    STP5    DNT$$+2,,AUTO
        16 001305   200032 630500                    EPPR0   DNT$$+2,,AUTO
        16 001306   000002 631400 17                 EPPR1   2
        16 001307   000000 701000 xent               TSX1    Z8AC$MAKE_CONST_DEC_LEAD
        16 001310   000000 011000                    NOP     0

     1653     6821
     1654     6822    2   END REPLACE_BIN_CONST_BY_DECIMAL;

   6822 16 001311   200010 221300                    LDX1  ! OLD_NODE$+1,,AUTO
        16 001312   000001 702211                    TSX2  ! 1,X1

     1655     6823
     1656     6824        %EJECT;
PL6.E3A0      #002=Z8GO$CHECK_OP File=Z8GO.:Z8A6TSI                              TUE 08/26/97 07:55 Page:315
     1657     6825    1   CHECK_FOR_REDEFS: PROC (ST$$) ALTRET;

   6825 16 001313   200010 741300       CHECK_FOR_R* STX1  ! OLD_NODE$+1,,AUTO

     1658     6826
     1659     6827        /*I*    NAME: CHECK_FOR_REDEFS
     1660     6828                CALL: CALL CHECK_FOR_REDEFS (ST$$)
     1661     6829                        WHENRETURN DO;
     1662     6830                          <"OK to optimize" code>
     1663     6831                        END;
     1664     6832               INPUT: ST$$ -- The symbol table item to check.
     1665     6833              OUTPUT: ALTRET means redefinitions exist, don't optimize.
     1666     6834         DESCRIPTION: This routine checks if the symbol is renamed or
     1667     6835                      redefined, or is a child of a group item that is
     1668     6836                      renamed or redefined.
     1669     6837        */
     1670     6838
     1671     6839    2   DCL  ST$$          PTR; /* Input Symbol Table Item */
     1672     6840    2   DCL  QLT$$         PTR; /* Associated Qualifier Links Table Item */
     1673     6841    2   DCL  ST2$          PTR; /* ST Item of the group */
     1674     6842
     1675     6843    2   QLT$$ = ST$$ -> VARIABLE.QLT$;

   6843 16 001314   200011 470500                    LDP0    @ST$$,,AUTO
        16 001315   000000 471500                    LDP1    0,,PR0
        16 001316   100007 236100                    LDQ     7,,PR1
        16 001317   200012 756100                    STQ     QLT$$,,AUTO

     1676     6844    2   IF QLT$$ = ADDR(NIL) THEN

   6844 16 001320   000000 116000 17                 CMPQ    0
        16 001321   001323 601000 16                 TNZ     s:6846

     1677     6845    2     ALTRETURN;

   6845 16 001322   000000 702211                    TSX2  ! 0,X1

PL6.E3A0      #002=Z8GO$CHECK_OP File=Z8GO.:Z8A6TSI                              TUE 08/26/97 07:55 Page:316
     1678     6846    2   ST2$ = ST$$;

   6846 16 001323   000000 236100                    LDQ     0,,PR0
        16 001324   200013 756100                    STQ     ST2$,,AUTO

     1679     6847    3   DO FOREVER;

     1680     6848
     1681     6849    3     IF ST2$ -> SCALAR.B.REDEF_SUB

   6849 16 001325   200013 470500                    LDP0    ST2$,,AUTO
        16 001326   000003 430100                    FSZN    3,,PR0
        16 001327   001351 604000 16                 TMI     s:6856
        16 001330   000003 236100                    LDQ     3,,PR0
        16 001331   000400 316003                    CANQ    256,DU
        16 001332   001351 601000 16                 TNZ     s:6856
        16 001333   400000 316007                    CANQ    -131072,DL
        16 001334   001351 601000 16                 TNZ     s:6856
        16 001335   200012 471500                    LDP1    QLT$$,,AUTO
        16 001336   100000 236100                    LDQ     0,,PR1
        16 001337   040000 316007                    CANQ    16384,DL
        16 001340   001351 601000 16                 TNZ     s:6856
        16 001341   000003 236100                    LDQ     3,,PR0
        16 001342   000004 316003                    CANQ    4,DU
        16 001343   001351 601000 16                 TNZ     s:6856
        16 001344   000010 220100                    LDX0    8,,PR0
        16 001345   001351 601000 16                 TNZ     s:6856
        16 001346   000010 721100                    LXL1    8,,PR0
        16 001347   777777 101003                    CMPX1   -1,DU
        16 001350   001353 600000 16                 TZE     s:6858

     1682     6850    3     OR ST2$ -> SCALAR.B.REDEF_OBJ
     1683     6851    3     OR ST2$ -> SCALAR.B.RENAMED
     1684     6852    3     OR QLT$$ -> QLT.B.RENAMES
     1685     6853    3     OR ST2$ -> SCALAR.B.EXTERNAL
     1686     6854    3     OR ST2$ -> SCALAR.SEQ#.FD ~= 0
     1687     6855    3     OR ST2$ -> SCALAR.SEQ#.BD ~= %MAX_SEQ# THEN
PL6.E3A0      #002=Z8GO$CHECK_OP File=Z8GO.:Z8A6TSI                              TUE 08/26/97 07:55 Page:317
     1688     6856    3       ALTRETURN;

   6856 16 001351   200010 221300                    LDX1  ! OLD_NODE$+1,,AUTO
        16 001352   000000 702211                    TSX2  ! 0,X1

     1689     6857
     1690     6858    3     QLT$$ = QLT$$ -> QLT.FATHER;

   6858 16 001353   100001 236100                    LDQ     1,,PR1
        16 001354   200012 756100                    STQ     QLT$$,,AUTO

     1691     6859    3     IF QLT$$ = ADDR(NIL) THEN EXIT;

   6859 16 001355   000000 116000 17                 CMPQ    0
        16 001356   001363 600000 16                 TZE     s:6864

     1692     6860    3     ST2$ = QLT$$ -> QLT.ST$;

   6860 16 001357   200012 471500                    LDP1    QLT$$,,AUTO
        16 001360   100004 236100                    LDQ     4,,PR1
        16 001361   200013 756100                    STQ     ST2$,,AUTO

     1693     6861
     1694     6862    3   END; /* DO FOREVER (WHILE QLT$$ not NIL) */

   6862 16 001362   001325 710000 16                 TRA     s:6849

     1695     6863
     1696     6864    2   END CHECK_FOR_REDEFS;

   6864 16 001363   200010 221300                    LDX1  ! OLD_NODE$+1,,AUTO
        16 001364   000001 702211                    TSX2  ! 1,X1

     1697     6865
     1698     6866        %EJECT;
PL6.E3A0      #002=Z8GO$CHECK_OP File=Z8GO.:Z8A6TSI                              TUE 08/26/97 07:55 Page:318
     1699     6867    1   COPY_EVALP_INFO: PROC (NODE$, OLD_NODE$);

   6867 16 001365   200014 741300       COPY_EVALP_* STX1  ! LENGTH,,AUTO

     1700     6868
     1701     6869        /*I*   NAME: COPY_EVALP_INFO
     1702     6870               CALL: CALL COPY_EVALP_INFO (NODE$, OLD_NODE$);
     1703     6871              INPUT: OLD_NODE$ -- EVALP info to copy
     1704     6872             OUTPUT: NODE$ -- new node that needs EVALP info
     1705     6873        DESCRIPTION: Copy the EVALP related fields (COUNT, EVALP$,
     1706     6874                     CMP_SC, and CMP_BD) from the old node to the new.
     1707     6875        */
     1708     6876
     1709     6877    2   DCL  NODE$     PTR;
     1710     6878    2   DCL  OLD_NODE$ PTR;
     1711     6879
     1712     6880    2   NODE$ -> ETT.COUNT  = OLD_NODE$ -> ETT.COUNT;

   6880 16 001366   200015 470500                    LDP0    @NODE$,,AUTO
        16 001367   000000 471500                    LDP1    0,,PR0
        16 001370   200016 473500                    LDP3    @OLD_NODE$,,AUTO
        16 001371   300000 474500                    LDP4    0,,PR3
        16 001372   400000 720100                    LXL0    0,,PR4
        16 001373   100000 440100                    SXL0    0,,PR1

     1713     6881    2   NODE$ -> ETT.EVALP$ = OLD_NODE$ -> ETT.EVALP$;

   6881 16 001374   000000 471500                    LDP1    0,,PR0
        16 001375   300000 474500                    LDP4    0,,PR3
        16 001376   400003 236100                    LDQ     3,,PR4
        16 001377   100003 756100                    STQ     3,,PR1

     1714     6882    2   NODE$ -> ETT.CMP_SC = OLD_NODE$ -> ETT.CMP_SC;

   6882 16 001400   000000 471500                    LDP1    0,,PR0
        16 001401   300000 474500                    LDP4    0,,PR3
        16 001402   400004 220100                    LDX0    4,,PR4
PL6.E3A0      #002=Z8GO$CHECK_OP File=Z8GO.:Z8A6TSI                              TUE 08/26/97 07:55 Page:319
        16 001403   100004 740100                    STX0    4,,PR1

     1715     6883    2   NODE$ -> ETT.CMP_BD = OLD_NODE$ -> ETT.CMP_BD;

   6883 16 001404   000000 471500                    LDP1    0,,PR0
        16 001405   300000 474500                    LDP4    0,,PR3
        16 001406   400004 720100                    LXL0    4,,PR4
        16 001407   100004 440100                    SXL0    4,,PR1

     1716     6884    2   OLD_NODE$ -> ETT.COUNT = 0;

   6884 16 001410   300000 471500                    LDP1    0,,PR3
        16 001411   000000 220003                    LDX0    0,DU
        16 001412   100000 440100                    SXL0    0,,PR1

     1717     6885
     1718     6886    2   END COPY_EVALP_INFO;

   6886 16 001413   200014 221300                    LDX1  ! LENGTH,,AUTO
        16 001414   000001 702211                    TSX2  ! 1,X1
     1719     6887
     1720     6888    1   END Z8GO$CHECK_OP;

PL6.E3A0      #002=Z8GO$CHECK_OP File=Z8GO.:Z8A6TSI                              TUE 08/26/97 07:55 Page:320
--  Include file information  --

   Z8A_TYPES.:Z8A6TOU  is referenced.
   Z8A_MKCN.:Z8A6TOU  cannot be made into a system file and is referenced.
   Z8A_QLT.:Z8A6TOU  cannot be made into a system file and is referenced.
   Z8A_DNT.:Z8A6TOU  cannot be made into a system file and is referenced.
   Z8A_ST.:Z8A6TOU  cannot be made into a system file and is referenced.
   Z8A_ETT.:Z8A6TOU  cannot be made into a system file and is referenced.
   X8A_COM_MACS.:X8A6TOU  is referenced.
   Z8A_NAMES.:Z8A6TOU  is referenced.
   Z9A_FLAGS.:Z8A6TOU  is referenced.
   Z8A_DEFC.:Z8A6TOU  cannot be made into a system file and is referenced.
      No diagnostics issued in procedure Z8GO$CHECK_OP.
PL6.E3A0      #002=Z8GO$CHECK_OP File=Z8GO.:Z8A6TSI                              TUE 08/26/97 07:55 Page:321

 **** Variables and constants ****

  ****  Section 000 LblCom ITERATION

  ****  Scalars and arrays  ****
OctLoc.c.b A Datatyp(siz) R M Lvl/name                 OctLoc.c.b A Datatyp(siz) R M Lvl/name

     0-0-0/w SBIN              1 ITERATION

  ****  Section 001 LblCom ETT$

  ****  Scalars and arrays  ****
OctLoc.c.b A Datatyp(siz) R M Lvl/name                 OctLoc.c.b A Datatyp(siz) R M Lvl/name

     0-0-0/w PTR         r     1 ETT$

  ****  Section 002 LblCom HEAD_ETT$

  ****  Scalars and arrays  ****
OctLoc.c.b A Datatyp(siz) R M Lvl/name                 OctLoc.c.b A Datatyp(siz) R M Lvl/name

     0-0-0/w PTR               1 HEAD_ETT$

  ****  Section 003 LblCom ETT_BUCKETS

  ****  Scalars and arrays  ****
OctLoc.c.b A Datatyp(siz) R M Lvl/name                 OctLoc.c.b A Datatyp(siz) R M Lvl/name

     0-0-0/w PTR               1 ETT_BUCKETS(0:511)

  ****  Section 004 LblCom ETT_

  ****  Scalars and arrays  ****
OctLoc.c.b A Datatyp(siz) R M Lvl/name                 OctLoc.c.b A Datatyp(siz) R M Lvl/name

     0-0-0/w STRC(180)         1 ETT_

PL6.E3A0      #002=Z8GO$CHECK_OP File=Z8GO.:Z8A6TSI                              TUE 08/26/97 07:55 Page:322
  ****  Section 005 LblCom ST$

  ****  Scalars and arrays  ****
OctLoc.c.b A Datatyp(siz) R M Lvl/name                 OctLoc.c.b A Datatyp(siz) R M Lvl/name

     0-0-0/w PTR         r     1 ST$

  ****  Section 006 LblCom ST_

  ****  Scalars and arrays  ****
OctLoc.c.b A Datatyp(siz) R M Lvl/name                 OctLoc.c.b A Datatyp(siz) R M Lvl/name

     0-0-0/w STRC(180)         1 ST_

  ****  Section 007 LblCom DNT$

  ****  Scalars and arrays  ****
OctLoc.c.b A Datatyp(siz) R M Lvl/name                 OctLoc.c.b A Datatyp(siz) R M Lvl/name

     0-0-0/w PTR         r     1 DNT$

  ****  Section 008 LblCom DNT_

  ****  Scalars and arrays  ****
OctLoc.c.b A Datatyp(siz) R M Lvl/name                 OctLoc.c.b A Datatyp(siz) R M Lvl/name

     0-0-0/w STRC(180)         1 DNT_

  ****  Section 009 LblCom DNT_BUCKET_NUMBER

  ****  Scalars and arrays  ****
OctLoc.c.b A Datatyp(siz) R M Lvl/name                 OctLoc.c.b A Datatyp(siz) R M Lvl/name

     0-0-0/w UBIN              1 DNT_BUCKET_NUMBER

  ****  Section 010 LblCom DNT_OF_1$

PL6.E3A0      #002=Z8GO$CHECK_OP File=Z8GO.:Z8A6TSI                              TUE 08/26/97 07:55 Page:323
  ****  Scalars and arrays  ****
OctLoc.c.b A Datatyp(siz) R M Lvl/name                 OctLoc.c.b A Datatyp(siz) R M Lvl/name

     0-0-0/w PTR               1 DNT_OF_1$

  ****  Section 011 LblCom QLT$

  ****  Scalars and arrays  ****
OctLoc.c.b A Datatyp(siz) R M Lvl/name                 OctLoc.c.b A Datatyp(siz) R M Lvl/name

     0-0-0/w PTR         r     1 QLT$

  ****  Section 012 LblCom PREV_01_QLT$

  ****  Scalars and arrays  ****
OctLoc.c.b A Datatyp(siz) R M Lvl/name                 OctLoc.c.b A Datatyp(siz) R M Lvl/name

     0-0-0/w PTR               1 PREV_01_QLT$

  ****  Section 013 LblCom QLT_

  ****  Scalars and arrays  ****
OctLoc.c.b A Datatyp(siz) R M Lvl/name                 OctLoc.c.b A Datatyp(siz) R M Lvl/name

     0-0-0/w STRC(180)         1 QLT_

  ****  Section 014 LblCom MKCN

  ****  Scalars and arrays  ****
OctLoc.c.b A Datatyp(siz) R M Lvl/name                 OctLoc.c.b A Datatyp(siz) R M Lvl/name

     0-0-0/w STRC(72)    r     1 MKCN

  ****  Section 015  Data  Z8GO$CHECK_OP

  ****  Scalars and arrays  ****
OctLoc.c.b A Datatyp(siz) R M Lvl/name                 OctLoc.c.b A Datatyp(siz) R M Lvl/name
PL6.E3A0      #002=Z8GO$CHECK_OP File=Z8GO.:Z8A6TSI                              TUE 08/26/97 07:55 Page:324

     0-0-0/w UBIN        r     1 DESCR2

  ****  Auto variables  ****

  ****  Scalars and arrays  ****
OctLoc.c.b A Datatyp(siz) R M Lvl/name                 OctLoc.c.b A Datatyp(siz) R M Lvl/name

     3-0-0/w PTR         r     1 @NODE$                    11-0-0/w PTR         r     1 @NODE$
    11-0-0/w PTR         r     1 @NODE$                    15-0-0/w PTR         r     1 @NODE$
    16-0-0/w PTR         r     1 @OLD_NODE$                25-0-0/w PTR         r     1 @RETURN$
    11-0-0/w PTR         r     1 @RETURN$                  11-0-0/w PTR         r     1 @ST$$
    26-0-0/w PTR         r     1 @TRIAD$                   12-0-0/w PTR         r     1 @TRIAD$
    12-0-0/w SBIN        r     1 CONSTANT1                 13-0-0/w SBIN        r     1 CONSTANT2
    14-0-0/w SBIN        r     1 CONSTANT3                 30-0-0/w PTR               1 DNT$$
    17-0-0/c CHAR(8)     r     1 D_CONSTANT                16-0-0/c CHAR(12)    r     1 D_CONSTANT
    15-0-0/w SBIN        r     1 I_CONSTANT                21-0-0/w SBIN        r     1 LENGTH
    14-0-0/w SBIN        r     1 LENGTH                     4-0-0/w PTR         r     1 LOP$
    12-0-0/w SBIN        r     1 NEW_OFF                   *0-0-0/w PTR         r     1 NODE$
    *0-0-0/w PTR         r     1 NODE$                     *0-0-0/w PTR         r     1 NODE$
    *0-0-0/w PTR         r     1 NODE$                      7-0-0/w PTR         r     1 OLD_NODE$
    *0-0-0/w PTR         r     1 OLD_NODE$                 13-0-0/w PTR         r     1 OLD_OFF$
    12-0-0/w PTR         r     1 QLT$$                     *0-0-0/w PTR         r     1 RETURN$
    *0-0-0/w PTR         r     1 RETURN$                    5-0-0/w PTR         r     1 ROP$
     6-0-0/w PTR         r     1 ST$$                      27-0-0/w PTR         r     1 ST$$
    13-0-0/w PTR         r     1 ST$$                      *0-0-0/w PTR         r     1 ST$$
    15-0-0/w PTR         r     1 ST1$                      16-0-0/w PTR         r     1 ST2$
    13-0-0/w PTR         r     1 ST2$                      23-0-0/w PTR         r     1 TRIAD$
    *0-0-0/w PTR         r     1 TRIAD$                    *0-0-0/w PTR         r     1 TRIAD$
    22-0-0/w SBIN        r     1 TYPE

  ****  BASED and DCB variables  ****

  ****  Scalars and arrays  ****
OctLoc.c.b A Datatyp(siz) R M Lvl/name                 OctLoc.c.b A Datatyp(siz) R M Lvl/name

     0-0-0/w STRC(396)         1 ALPHABET                   0-0-0/w STRC(396)         1 ARRAY
PL6.E3A0      #002=Z8GO$CHECK_OP File=Z8GO.:Z8A6TSI                              TUE 08/26/97 07:55 Page:325
     0-0-0/w STRC(396)         1 BLOCK                      0-0-0/w STRC(396)         1 CD
     0-0-0/w CHAR(4096)        1 CHARS                      0-0-0/w STRC(396)         1 CLASS
     0-0-0/w STRC(396)         1 CONDITION                  0-0-0/w STRC(396)   r     1 CONST
     0-0-0/w STRC(72)          1 CONT                       0-0-0/w STRC(396)         1 DB
     0-0-0/w STRC(396)         1 DCB_                       0-0-0/w STRC(396)         1 DML_ITEM
     0-0-0/w ASTR(180)   r     1 DNT                        0-0-0/w STRC(180)   r     1 ETT
     0-0-0/w STRC(396)         1 FD                         0-0-0/w STRC(396)         1 INTDEF
     0-0-0/w STRC(396)         1 LABEL                      0-0-0/w STRC(396)         1 MNEMONIC
     0-0-0/w STRC(36864)       1 PAGE                       0-0-0/w STRC(396)         1 PARA
     0-0-0/w STRC(396)         1 PROC_                      0-0-0/w STRC(396)         1 PROC_DEF
     0-0-0/w STRC(216)   r     1 QLT                        0-0-0/w STRC(396)         1 RD
     0-0-0/w STRC(396)   r     1 SCALAR                     0-0-0/w STRC(396)         1 SD
     0-0-0/w STRC(396)         1 SECTION                    0-0-0/w STRC(396)         1 SEGMENT
     0-0-0/w STRC(396)   r     1 ST                         0-0-0/w STRC(396)         1 SWITCH
     0-0-0/w STRC(396)         1 SYMBOLIC_CHAR              0-0-0/w STRC(396)         1 SYMDEF_
     0-0-0/w STRC(396)         1 SYMREF_                    0-0-0/w STRC(396)         1 TEMP
     0-0-0/w STRC(396)   r     1 VARIABLE


   Procedure Z8GO$CHECK_OP requires 781 words for executable code.
   Procedure Z8GO$CHECK_OP requires 32 words of local(AUTO) storage.

    No errors detected in file Z8GO.:Z8A6TSI    .
