PL6.E3A0      #001=Z8GO$GLOBAL_OPTIMIZER File=Z8GO.:Z8A6TSI                      TUE 08/26/97 07:51 Page:1
        1        1        /*M* Z8GO$GLOBAL_OPTIMIZER -- Phase 3 Main Module */
        2        2        /*T***********************************************************/
        3        3        /*T*                                                         */
        4        4        /*T* Copyright (c) Bull HN Information Systems Inc., 1997    */
        5        5        /*T*                                                         */
        6        6        /*T***********************************************************/
        7        7
        8        8
        9        9        /*P*   NAME: Z8GO$GLOBAL_OPTIMIZER
       10       10
       11       11            PURPOSE: Link in CCOSU, INITV, and INCRV ILL items
       12       12                     into the ILS/ILL tables to improve the
       13       13                     overall efficiency of the generated code.
       14       14             AUTHOR: John Heath.
       15       15        */
       16       16
       17       17        /*D*   NAME: Z8GO$GLOBAL_OPTIMIZER
       18       18
       19       19               CALL: CALL Z8GO$GLOBAL_OPTIMIZER (called from EXEC).
       20       20
       21       21          INTERFACE: Z8GI -- Insert an EVALP.
       22       22                     Z8GS -- Scan triad tree, set CMP_SC.
       23       23
       24       24              INPUT: COMCOM.FIRST_ILS -- Head link of ILS table.
       25       25
       26       26             OUTPUT: COMCOM.FIRST_ILS -- Head link of ILS table for Phase 4.
       27       27
       28       28        DESCRIPTION: Link through the entire program (via the ILS table),
       29       29                     and provide counts of the number of references for
       30       30                     every expression or reference triad via CCOSU items.
       31       31                     Each CCOSU is good for a redefinition range of the
       32       32                     triad.  See Z8GD for more details.
       33       33        */
       34       34
       35       35        %EJECT;
PL6.E3A0      #001=Z8GO$GLOBAL_OPTIMIZER File=Z8GO.:Z8A6TSI                      TUE 08/26/97 07:51 Page:2
       36       36        Z8GO$GLOBAL_OPTIMIZER: PROC ;
       37       37
       38       38        %MACRO INCR_COUNT (OP = LOP, BIT = ARITH, ITEM$ = ILL_ETT$,
       39       39                           COMPUTE_SEQ_ALREADY_COMPUTED = '1'B) ;
       40       40
       41       41               DO;
       42       42
       43       43                 /* Check for VALUE replacement optimization */
       44       44
       45       45                 %IF TEXTCHAR(OP) = 'LOP' ; /* Don't optimize DNA's LOP */
       46       46                   IF  ITEM$ -> ETT.ID ~= %DNA
       47       47                   AND ITEM$ -> ETT.ID ~= %EVAL
       48       48                   AND ITEM$ -> ETT.ID ~= %OFF
       49       49                   AND ITEM$ -> ETT.ID ~= %SHIFT_L
       50       50                   AND ITEM$ -> ETT.ID ~= %SHIFT_R
       51       51                   AND ITEM$ -> ETT.ID ~= %CMPAO
       52       52                   AND ITEM$ -> ETT.ID ~= %CMPAS
       53       53                   AND ITEM$ -> ETT.ID ~= %ADDR
       54       54                   AND COMCOM.SEGMENTC < 2 THEN
       55       55                     CALL Z8GO$CHECK_OP (ITEM$ -> ILL.LOP) ;
       56       56                 %ELSEIF TEXTCHAR(OP) ~= 'LOP->ARGLIST.ARG$(I)'
       57       57                     AND TEXTCHAR(OP) ~= 'ROP->ARGLIST.ARG$(I)';
       58       58                   IF  ITEM$ -> ETT.ID ~= %CMPAO /* Don't optz CMPAO's ROP */
       59       59                   AND ITEM$ -> ETT.ID ~= %MVANO
       60       60                   AND COMCOM.SEGMENTC < 2 THEN
       61       61                     CALL Z8GO$CHECK_OP (ITEM$ -> ILL.OP) ;
       62       62                 %ENDIF ;
       63       63
       64       64                 /* MVII of CVDI => MVDI optimization moved from Z8E7.     */
       65       65                 /* Likewise, MVDD of CVID4/9 ==> MVID optimization.       */
       66       66                 /* These optimizations have to be done after the VALUE optz. */
       67       67                 %IF TEXTCHAR (OP) = 'ROP' ;
       68       68                   IF  ITEM$ -> ILL.ID = %MVII
       69       69                   AND ITEM$ -> ILL.ROP -> ETT.ID = %CVDI THEN DO;
       70       70                     ITEM$ -> ILL.ID  = %MVDI ;
       71       71                     ITEM$ -> ILL.ROP = ITEM$ -> ILL.ROP -> ETT.LOP ;
       72       72                   END ; /* ILL = MVII and ROP = CVDI */
PL6.E3A0      #001=Z8GO$GLOBAL_OPTIMIZER File=Z8GO.:Z8A6TSI                      TUE 08/26/97 07:51 Page:3
       73       73                   IF  ITEM$ -> ILL.ID = %MVDD
       74       74                   AND (ITEM$ -> ILL.ROP -> ETT.ID = %CVID4 OR
       75       75                        ITEM$ -> ILL.ROP -> ETT.ID = %CVID9) THEN DO;
       76       76                     LOP$$$ = ITEM$ -> ILL.LOP ;
       77       77                     %FISH (TRIAD = LOP$$$, RTN = ST$$$) ;
       78       78                     IF ST$$$ -> VARIABLE.NDSC.SF = 0 THEN DO ;
       79       79                       ITEM$ -> ILL.ID  = %MVID;
       80       80                       ITEM$ -> ILL.ROP = ITEM$ -> ILL.ROP -> ILL.LOP;
       81       81                     END; /* Scale factor = zero */
       82       82                   END;
       83       83                 %ENDIF ; /* OP is ROP */
       84       84
       85       85                 IF ITEM$ -> ILL.OP->ETT.EVALP$ = ADDR (NIL)
       86       86                 OR ITEM$ -> ILL.OP->ETT.EVALP$ -> ILL.ID ~= %EVALP
       87       87                 OR ITEM$ -> ILL.OP->ETT.EVALP$ -> CCOSU.EVEX ~= ITEM$ -> ILL.OP
       88       88                 OR ITEM$ -> ILL.OP->ETT.CMP_SC >= O3COM.CURRENT_SEQ_NO THEN DO ;
       89       89
       90       90                   %IF COMPUTE_SEQ_ALREADY_COMPUTED = '0'B ;
       91       91                      CALL Z8GS$SCAN_MAX (ITEM$ -> ILL.OP) ;
       92       92                   %ENDIF ;
       93       93
       94       94                   CALL Z8GI$INSERT_EVALP (ITEM$ -> ILL.OP) ;
       95       95
       96       96                   IF ITEM$ -> ILL.OP->ETT.EVALP$ = ADDR(NIL)
       97       97                   OR ITEM$ -> ILL.OP->ETT.EVALP$ -> ILL.ID ~= %EVALP THEN DO ;
       98       98                     IF COMCOM.OB.O3DUMP
       99       99                     THEN CALL OPTIMIZER_ALERT (ITEM$ -> ILL.OP) ;
      100      100                   END ;
      101      101                 END ; /* EVALP is non-existent or obsolete */
      102      102                 ELSE DO ;
      103      103                   ILL$ = ITEM$ -> ILL.OP -> ETT.EVALP$ ;
      104      104                   ILL$ -> CCOSU.CNTE = ILL$ -> CCOSU.CNTE + 1 ;
      105      105                   ILL$ -> CCOSU.LSEQ = O3COM.CURRENT_SEQ_NO ;
      106      106                   ILL$ -> CCOSU.LEVEL = MAXIMUM (ILL$ -> CCOSU.LEVEL,
      107      107                                                  O3COM.LOOP_LEVEL) ;
      108      108                 END ;
      109      109
PL6.E3A0      #001=Z8GO$GLOBAL_OPTIMIZER File=Z8GO.:Z8A6TSI                      TUE 08/26/97 07:51 Page:4
      110      110                 ITEM$ -> ILL.OP->ETT.EVALP$ -> CCOSU.B.BIT = '1'B ;
      111      111               END ;
      112      112
      113      113        %MEND ;
      114      114
      115      115        %EJECT;
PL6.E3A0      #001=Z8GO$GLOBAL_OPTIMIZER File=Z8GO.:Z8A6TSI                      TUE 08/26/97 07:51 Page:5
      116      116        %EQU PHASE = 3 ;
      117      117        %EQU Z8GO = 8715 ; /* 8 || G=7 || O=15 */
      118      118        %EQU MODULE = Z8GO ;
      119      119        %EQU #INDEX_REGS = 4 ;
      120      120        %EQU DO5_DEFLB_DIFF = 4 ; /* SEQ# Difference between DO5 and DEFLB */
      121      121        %EQU DOEND_AD2I_DIFF = 5 ; /* SEQ# Difference twix DOEND and AD2I */
      122      122        %EQU DOEND_LINOI_DIFF= 4 ; /* SEQ# Difference twix DOEND and INCRV */
      123      123        %INCLUDE Z8A_DEFC ;
      124      191        %INCLUDE Z8A_SUPP_MAC ;
      125     2591        %INCLUDE Z8A_COMCOM ;
      126     3241        %INCLUDE Z8A_ERR_NUMS ;
      127     4005        %INCLUDE Z8A_ILS ;
      128     4114        %INCLUDE Z8A_DPI ;
      129     4198        %INCLUDE Z8A_ILL ;
      130     4891        %INCLUDE Z8A_ETT ;
      131     5192        %INCLUDE Z8A_ST ;
      132     8851        %INCLUDE Z8A_LTS ;
      133    10928        %INCLUDE Z8A_GST ;
      134    10988        %INCLUDE Z8A_QLT ;
      135    11094
      136    11095        %LIST;
      137    11096        %INCLUDE Z8G_P3VEC ;
        1+   11097        /*T***********************************************************/
        2+   11098        /*T*                                                         */
        3+   11099        /*T* Copyright (c) Bull HN Information Systems Inc., 1997    */
        4+   11100        /*T*                                                         */
        5+   11101        /*T***********************************************************/
        6+   11102        /* INCLUDE FILE Z8G_P3VEC */
        7+   11103
        8+   11104        /* Recompile Z8GD when this include file changes */
        9+   11105
       10+   11106        /* P3VEC Codes */
       11+   11107
       12+   11108        %EQU NO_EXPRESSIONS =              0 ;
       13+   11109        %EQU ONE_EXPRESSION_LOP_REDEF =    1 ;
       14+   11110        %EQU TWO_EXPRESSIONS_LOP_REDEF =   2 ;
       15+   11111        %EQU THREE_EXPRESSIONS_TO_REDEF =  3 ;
PL6.E3A0      #001=Z8GO$GLOBAL_OPTIMIZER File=Z8GO.:Z8A6TSI                      TUE 08/26/97 07:51 Page:6
       16+   11112        %EQU FOUR_EXPRESSIONS_TWO_REDEFS = 4 ;
       17+   11113        %EQU EVALP_ =                      5 ;
       18+   11114        %EQU SSOP_SIZ_BASE =               5 ;
       19+   11115        %EQU ONE_EXPRESSION_NO_REDEF =     6 ;
       20+   11116        %EQU TWO_EXPRESSIONS_NO_REDEF =    7 ;
       21+   11117        %EQU ROP_ARGLIST              =    8 ;
       22+   11118        %EQU ROP_EXPRESSION_NO_REDEF =     9 ;
       23+   11119        %EQU TIMES$_EXPRESSION_NO_REDEF = 10 ;
       24+   11120        %EQU EXPR_EXPRESSION_NO_REDEF   = 11 ;
       25+   11121        %EQU INITV_INCRV_CEILV = 12 ;
       26+   11122        %EQU ARGLIST_REDEF     = 13 ;
       27+   11123        %EQU ILLEGAL_VALUE     = 14 ;
       28+   11124        %EQU LOP_ARGLIST       = 15 ;
       29+   11125
       30+   11126        %SET Z8GD = 874 ; /* 8 || G=7 || D=4 */
       31+   11127
       32+   11128    1   DCL P3VEC (0:%LAST_ILL) UBIN WORD EXT
       33+   11129        %IF MODULE = Z8GD ;
      276+   11372        %ENDIF ;
      277+   11373    1   ;
      278+   11374
      279+   11375        %EJECT;
PL6.E3A0      #001=Z8GO$GLOBAL_OPTIMIZER File=Z8GO.:Z8A6TSI                      TUE 08/26/97 07:51 Page:7
      138    11376        %PLIST;
      139    11377
      140    11378        %INCLUDE Z8G_O3COM ;
      141    11418        %INCLUDE Z9G_SYS_DEP ;
      142    11448
      143    11449    1   DCL   P$                   PTR ;
      144    11450    1   DCL   DO$                  PTR ;
      145    11451    1   DCL   DOEND$               PTR ;
      146    11452    1   DCL   DPI$$                PTR ;
      147    11453    1   DCL   DUMMY_DPI$           PTR ;
      148    11454    1   DCL   ETT_ID               SBIN WORD ;
      149    11455    1   DCL   ETT$$                PTR ;
      150    11456    1   DCL   FIRST_INITV$         PTR ;
      151    11457    1   DCL   HEAD_CCOSU           PTR ;
      152    11458    1   DCL   I                    SBIN WORD ;
      153    11459    1   DCL   ILL_ETT$             PTR ;
      154    11460    1   DCL   INCR$                PTR ;
      155    11461    1   DCL   INCREMENT_ROP_COUNT  BIT (1) ALIGNED ;
      156    11462    1   DCL   INCRV$               PTR ;
      157    11463    1   DCL   INIT$                PTR ;
      158    11464    1   DCL   J                    SBIN WORD ;
      159    11465    1   DCL   LAST_INITV$          PTR ;
      160    11466    1   DCL   LOP$                 PTR ;
      161    11467    1   DCL   LOP$$$               PTR ; /* Used in INCR_COUNT macro */
      162    11468    1   DCL   NEXT_ILS$            PTR ;
      163    11469    1   DCL   OPN$                 PTR ;
      164    11470    1   DCL   P3VEC_CODE           SBIN WORD ;
      165    11471    1   DCL   PREV$                PTR ;
      166    11472    1   DCL   PREV_ILS$            PTR ;
      167    11473    1   DCL   PREV_LBL$            PTR ; /* For Label List manipulation. */
      168    11474    1   DCL   ST$$$                PTR ; /* Used in INCR_COUNT macro */
      169    11475    1   DCL   TAIL_CCOSU           PTR ;
      170    11476    1   DCL   VAL_SEQ#             SBIN WORD ; /* = Max_Seq# normally */
      171    11477    1   DCL   VAL_END_SEQ#         SBIN WORD ;
      172    11478    1   DCL   VAL_ILS$             PTR ;       /* ILS item of VAL ILL */
      173    11479    1   DCL   VAL_ILL$             PTR ;       /* VAL ILL item        */
      174    11480    1   DCL   VAL_ETT$             PTR ;       /* Sending item VAL    */
PL6.E3A0      #001=Z8GO$GLOBAL_OPTIMIZER File=Z8GO.:Z8A6TSI                      TUE 08/26/97 07:51 Page:8
      175    11481    1   DCL   VAL_END_ILS$         PTR ;
      176    11482    1   DCL   VAL_END_ILL$         PTR ;
      177    11483    1   DCL   Z8AE$ERROR           ENTRY (12) ;
      178    11484    1   DCL   Z8AF$FORME           ENTRY (4) ;
      179    11485    1   DCL   Z8GI$INSERT_EVALP    ENTRY (1) ;
      180    11486    1   DCL   Z8GI$MAKE_SEQ_LIST   ENTRY ;
      181    11487    1   DCL   Z8GO$CHECK_OP        ENTRY (1) ;
      182    11488    1   DCL   Z8GS$SCAN_MAX        ENTRY (1) ;
      183    11489    1   DCL   Z8GX$SUBS_INCR       ENTRY (2) ;
      184    11490    1   DCL   Z8GX$INIT_SUBS       ENTRY (2) ;
      185    11491
      186    11492    1   DCL 1 TOP5                 STATIC, /* TOP 5 ESC COUNTS */
      187    11493    1       2 COUNT (0:4)          SBIN WORD INIT (0*5),
      188    11494    1       2 PTR$  (0:4)          PTR INIT (ADDR(NIL) * 5);
      189    11495
      190    11496
      191    11497        %EJECT ;
PL6.E3A0      #001=Z8GO$GLOBAL_OPTIMIZER File=Z8GO.:Z8A6TSI                      TUE 08/26/97 07:51 Page:9
      192    11498    1      COMCOM.FIRST_ENTRY_SEQ_NUM = COMCOM.FIRST_ENTRY_SEQ_NUM + 1 ;
      193    11499    1      ILS$ = COMCOM.FIRST_ILS ; /* The last ILS item */
      194    11500    1      O3COM.CURRENT_SEQ_NO = ILS$ -> ILS.SEQNO ;
      195    11501
      196    11502    1      PREV_ILS$ = ADDR(NIL) ;
      197    11503    1      FIRST_INITV$ = ADDR(NIL) ;
      198    11504    1      O3COM.LBL = COMCOM.H_LBL ;     /* Last Paragraph-name in program */
      199    11505    1      PREV_LBL$ = ADDR(NIL) ;
      200    11506
      201    11507    1      O3COM.MAX_SEQ# = COMCOM.FIRST_ILS -> ILS.SEQNO ;
      202    11508    1      VAL_SEQ# = %MAX_SEQ# ;
      203    11509    1      CALL Z8GI$MAKE_SEQ_LIST ;
      204    11510
      205    11511           /* Create an EVALP for the ESC triad used by O4 for temps */
      206    11512
      207    11513    1      COMCOM.ESC -> ETT.CMP_SC = 0;
      208    11514    1      COMCOM.ESC -> ETT.CMP_BD = %MAX_SEQ# ;
      209    11515    1      CALL Z8GI$INSERT_EVALP (COMCOM.ESC) ;
      210    11516    1      COMCOM.ESC->ETT.EVALP$ -> CCOSU.B.ARITH = '1'B ;
      211    11517
      212    11518                   /* SEARCH -- TO_ and TABLEVAL redefs */
      213    11519                   /* DV4I -- TO_ and REMAINDER redefs */
      214    11520                   /* Note: TABLEVAL and REMAINDER are equivalent fields */
      215    11521
      216    11522
      217    11523           /* Create an EVALP for the operator segment ESC triad */
      218    11524
      219    11525    1      O3COM.OP$ = COMCOM.OPERATOR_SEGMENT$ ;
      220    11526
      221    11527    1      IF O3COM.OP$ ~= ADDR (NIL) THEN
      222    11528    2        DO;
      223    11529    2          O3COM.OP$ -> ETT.CMP_SC = 0;
      224    11530    2          CALL Z8GI$INSERT_EVALP (O3COM.OP$) ;
      225    11531    2          O3COM.OP$ = O3COM.OP$ -> ETT.EVALP$ ;
      226    11532    2          O3COM.OP$ -> CCOSU.CNTE = O3COM.OP$ -> CCOSU.CNTE - 1 ;
      227    11533    2          O3COM.OP$ -> CCOSU.B.ARITH = '1'B ;
      228    11534    2        END;
PL6.E3A0      #001=Z8GO$GLOBAL_OPTIMIZER File=Z8GO.:Z8A6TSI                      TUE 08/26/97 07:51 Page:10
      229    11535
      230    11536            /* Create a dummy DPI for use in updating FDP & BDP */
      231    11537
      232    11538            %RESERVE_DPI(POINTER=DUMMY_DPI$);
      233    11548    1       DUMMY_DPI$ -> DPI.NEXT = ADDR(NIL);
      234    11549        %EJECT;
PL6.E3A0      #001=Z8GO$GLOBAL_OPTIMIZER File=Z8GO.:Z8A6TSI                      TUE 08/26/97 07:51 Page:11
      235    11550               /* Link thru the entire ILS back to front */
      236    11551
      237    11552    2      DO WHILE (ILS$ ~= ADDR(NIL)) ;
      238    11553
      239    11554    2        IF ILS$ -> ILS.SEQNO ~= 0
      240    11555    2        OR O3COM.CURRENT_SEQ_NO = 1 THEN
      241    11556    2          O3COM.CURRENT_SEQ_NO = ILS$ -> ILS.SEQNO ;
      242    11557    2        IF  O3COM.CURRENT_SEQ_NO = O3COM.SL.SEQ# (O3COM.SL_INDEX)
      243    11558    2                  AND O3COM.SL_INDEX < 15               THEN
      244    11559    2          O3COM.SL_INDEX = O3COM.SL_INDEX + 1 ;
      245    11560
      246    11561    2        ILL_ETT$ = ILS$ -> ILS.ILL$ ;
      247    11562
      248    11563    3        IF ILL_ETT$ ~= ADDR(NIL) THEN DO ;
      249    11564
      250    11565               /*V* DO&IF CHECKS -- Update DO# and IF# */
      251    11566
      252    11567    4          DO WHILE (ILL_ETT$ -> ILL.ID = %EVALP) ;
      253    11568    4            ILL_ETT$ = ILL_ETT$ -> CCOSU.ILL$ ;
      254    11569    4          END ;
      255    11570
      256    11571    4          DO CASE (ILL_ETT$ -> ILL.ID) ;
      257    11572        %EJECT;
PL6.E3A0      #001=Z8GO$GLOBAL_OPTIMIZER File=Z8GO.:Z8A6TSI                      TUE 08/26/97 07:51 Page:12
      258    11573    4     CASE (%DOEND) ;            /*    DO# = Seq# of DO Begin item   */
      259    11574
      260    11575    4       O3COM.DO_ILS$ = ILL_ETT$ -> DO_N.ITB ;
      261    11576    4       O3COM.DO#     = O3COM.DO_ILS$ -> ILS.SEQNO ;
      262    11577    4       O3COM.DOEND#  = O3COM.CURRENT_SEQ_NO ;
      263    11578    4       O3COM.LOOP_LEVEL = O3COM.LOOP_LEVEL + 1 ;
      264    11579
      265    11580            /*V* Is This the Innermost DO5?
      266    11581                 If yes, then set O3COM.VARYING$ to flag
      267    11582                 the start of the collection of INITV/INCRV
      268    11583                 candidates.
      269    11584            */
      270    11585
      271    11586    4       DO$ = ILL_ETT$ -> DO_N.ITB -> ILS.ILL$ ;
      272    11587
      273    11588    4       IF  DO$ -> ILL.ID = %DO5
      274    11589    4           AND ILL_ETT$ -> DO_N.ITB->ILS.SEQNO > COMCOM.COMMON_REDEF THEN
      275    11590    5         DO;
      276    11591
      277    11592    5           IF DO$ ~= ILL_ETT$ -> DO_N.ITP -> ILS.ILL$      THEN
      278    11593    6             DO;
      279    11594
      280    11595                      /* If all the innermosts are not DO5's,
      281    11596                         we can optimize this DO5 anyway.     */
      282    11597
      283    11598    6               DOEND$ = ILL_ETT$ -> DO_N.ITP -> ILS.ILL$ ;
      284    11599    7               DO WHILE (DOEND$ -> ILL.ID = %DOEND) ;
      285    11600    7                 IF DOEND$ -> DO_N.ITB->ILS.ILL$ -> ILL.ID = %DO5
      286    11601    7                   THEN GOTO ITS_NOT_INNERMOST;
      287    11602    7                 DOEND$ = DOEND$ -> DO_N.ITP -> ILS.ILL$ ;
      288    11603    7               END ;
      289    11604
      290    11605    6             END;
      291    11606
      292    11607    5             O3COM.VARYING$ = DO$ -> DO_N.VARYING$ ;
      293    11608    5             O3COM.BY$      = DO$ -> DO_N.BY$ ;
      294    11609    5             O3COM.FROM$    = DO$ -> DO_N.FROM$ ;
PL6.E3A0      #001=Z8GO$GLOBAL_OPTIMIZER File=Z8GO.:Z8A6TSI                      TUE 08/26/97 07:51 Page:13
      295    11610    5             O3COM.DO_SEQ# = ILL_ETT$ -> DO_N.ITB->ILS.SEQNO + %DO5_DEFLB_DIFF ;
      296    11611    5             O3COM.DOEND_SEQ# = ILS$ -> ILS.SEQNO - %DOEND_AD2I_DIFF;
      297    11612
      298    11613    5             O3COM.INCRV_ILS$ = ILS$ ;
      299    11614    6             DO I = 1 TO %DOEND_LINOI_DIFF ;
      300    11615    6               O3COM.INCRV_ILS$ = O3COM.INCRV_ILS$ -> ILS.NEXT ;
      301    11616    6             END ;
      302    11617
      303    11618    5   ITS_NOT_INNERMOST:
      304    11619
      305    11620    5         END   /*  If ID = %DO5  */ ;
      306    11621    4       ELSE
      307    11622    4         IF DO$ -> ILL.ID = %DO2   THEN
      308    11623    5           DO;
      309    11624                      /*  If the DO2 - DOEND block has no
      310    11625                          statements (other than linoi) then
      311    11626                          it is delinked from the ILS chain.
      312    11627                      */
      313    11628    5             P$ = ILS$ -> ILS.NEXT -> ILS.NEXT;
      314    11629    5             IF P$ -> ILS.ILL$ -> ILL.ID = %DO2 THEN
      315    11630    5               ILS$ = P$ -> ILS.NEXT;
      316    11631    5           END;
      317    11632        %EJECT;
PL6.E3A0      #001=Z8GO$GLOBAL_OPTIMIZER File=Z8GO.:Z8A6TSI                      TUE 08/26/97 07:51 Page:14
      318    11633    4     CASE (%DO1, %DO2, %DO3, %DO4, %DO5 );
      319    11634
      320    11635    4       IF  O3COM.VARYING$ ~= ADDR(NIL)
      321    11636    4           AND   ILL_ETT$ -> ILL.ID = %DO5    THEN
      322    11637    5         DO;
      323    11638
      324    11639              /*V* O3COM.VARYING$ points to a list of GSA
      325    11640                   items as candidates for INITV and INCRV
      326    11641                   creation.  Find the four with the highest
      327    11642                    counts.
      328    11643              */
      329    11644
      330    11645    5           IF O3COM.GSA_COUNT > %#INDEX_REGS    THEN
      331    11646    5             CALL SORT_GSAS ;          /* Sets GSA_COUNT = #XR's */
      332    11647    5           GST$ = O3COM.GSA$ ;
      333    11648
      334    11649    6           DO WHILE (O3COM.GSA_COUNT > 0) ;
      335    11650
      336    11651    6             CALL Z8GX$INIT_SUBS (GST$ -> GST.ROP_OF_SSOP, INIT$) ;
      337    11652    6             CALL Z8GX$SUBS_INCR (GST$ -> GST.ROP_OF_SSOP, INCR$) ;
      338    11653
      339    11654                  /* Shift INCRV expression to upper for ADLXn */
      340    11655
      341    11656    6             IF INCR$ -> ETT.ID ~= %TRIAD    THEN
      342    11657    6               CALL Z8AF$FORME (%MPI2, INCR$, 18, INCR$) ;
      343    11658
      344    11659                  %RESERVE_ILL (ITEM = %INITV, POINTER = ILL$) ;
      345    11669    6             ILL$ -> ILL.LOP = INIT$ ;
      346    11670    6             ILL$ -> ILL.ROP = GST$ -> GST.ROP_OF_SSOP ;
      347    11671
      348    11672                  /* Link the INITV at the LINOI previous to the DO5 */
      349    11673
      350    11674    6             OPN$ = ILS$ -> ILS.NEXT ;
      351    11675    6             ILL$ -> ILL.ILL$ = OPN$ -> ILS.ILL$ ;
      352    11676    6             OPN$ -> ILS.ILL$ = ILL$ ;
      353    11677
      354    11678                  %RESERVE_ILL (ITEM = %INCRV, POINTER = INCRV$) ;
PL6.E3A0      #001=Z8GO$GLOBAL_OPTIMIZER File=Z8GO.:Z8A6TSI                      TUE 08/26/97 07:51 Page:15
      355    11688    6             INCRV$ -> ILL.LOP = INCR$ ;
      356    11689    6             INCRV$ -> ILL.ROP = GST$ -> GST.ROP_OF_SSOP ;
      357    11690
      358    11691                  /* Link the INCRV at a LINOI before the DOEND */
      359    11692
      360    11693    6             OPN$ = O3COM.INCRV_ILS$ ;
      361    11694    6             INCRV$ -> ILL.ILL$ = OPN$ -> ILS.ILL$ ;
      362    11695    6             OPN$ -> ILS.ILL$ = INCRV$ ;
      363    11696
      364    11697                  /* Create EVALP for INCRV LOP */
      365    11698
      366    11699                  %INCR_COUNT (OP = LOP, BIT = ARITH, ITEM$ = INCRV$,
      367    11700                               COMPUTE_SEQ_ALREADY_COMPUTED = '0'B) ;
      368    11765
      369    11766    6             GST$ = GST$ -> GST.NEXT ;
      370    11767    6             O3COM.GSA_COUNT = O3COM.GSA_COUNT - 1 ;
      371    11768
      372    11769    6           END /* Do While GSA_COUNT > 0 */ ;
      373    11770
      374    11771    5           O3COM.GSA$ = ADDR(NIL) ;
      375    11772    5           O3COM.VARYING$ = ADDR(NIL) ;
      376    11773    5           O3COM.GSA_COUNT = 0 ;
      377    11774
      378    11775    5         END /* If Then Do */ ;
      379    11776
      380    11777              /* DO# = Seq# of next DOn (DO Begin) item */
      381    11778
      382    11779    4         O3COM.DO_ILS$ = ILL_ETT$ -> DO_N.ITO ;
      383    11780    4         IF O3COM.DO_ILS$ = ADDR(NIL)    THEN
      384    11781    4           O3COM.DO# = 0 ;        /*   No Outer DO   */
      385    11782    4         ELSE
      386    11783    5           DO;                    /*  Update DO# and DOEND#  */
      387    11784    5             O3COM.DO# = O3COM.DO_ILS$ -> ILS.SEQNO ;
      388    11785    5             O3COM.DOEND# = O3COM.DO_ILS$ -> ILS.ILL$ -> DO_N.ITE -> ILS.SEQNO;
      389    11786    5           END ;
      390    11787    4         O3COM.LOOP_LEVEL = O3COM.LOOP_LEVEL - 1 ;
      391    11788        %EJECT;
PL6.E3A0      #001=Z8GO$GLOBAL_OPTIMIZER File=Z8GO.:Z8A6TSI                      TUE 08/26/97 07:51 Page:16
      392    11789          /*V* VAL_and_VAL_END -- these items are created by the
      393    11790               front-end for multiple receiving moves, adds, etc.
      394    11791               The reason for the special treatment is due to
      395    11792               a desire to obey the rules of Cobol, yet maintain a
      396    11793               reasonable level of efficiency.  As an example,
      397    11794               consider the following:
      398    11795
      399    11796          MOVE A (I) TO B (I), I, A (I).
      400    11797
      401    11798               Cobol says that this is equivalent to:
      402    11799
      403    11800          MOVE A (I) TO temp.
      404    11801          MOVE temp TO B (I).
      405    11802          MOVE temp TO I.
      406    11803          MOVE temp TO A (I).
      407    11804
      408    11805               99% of the time, a multiple receiving move can be done
      409    11806               without the use of a temp; but we still have handle the
      410    11807               1% of the time when the sending field is redefined by
      411    11808               one of the receiving fields, or the sending field's
      412    11809               subscripts or size-expressions are redefined by one
      413    11810               of the receiving fields.
      414    11811
      415    11812               When Phase 3 finds a VAL_END on the ILS/ILL, it will
      416    11813               check the redefinitions of VAL.ETT$.  If there exists
      417    11814               a redefinition between the VAL and the VAL_END, then
      418    11815               Phase 3 will put out a special CCOSU (B.VAL_FREEZE = '1'B).
      419    11816          */
      420    11817
      421    11818    4     CASE (%VAL_END) ;          /*    Multiple receiving fields     */
      422    11819
      423    11820    4       VAL_ILS$ = ILL_ETT$ -> VAL_END.VAL$ ;
      424    11821    4       VAL_END_SEQ# = O3COM.CURRENT_SEQ_NO ;
      425    11822    4       VAL_ILL$ = VAL_ILS$ -> ILS.ILL$ ;
      426    11823                                                         /*#28761*/
      427    11824    5       DO WHILE (VAL_ILL$ -> ILL.ID = %EVALP) ;
      428    11825    5         VAL_ILL$ = VAL_ILL$ -> CCOSU.ILL$ ;
PL6.E3A0      #001=Z8GO$GLOBAL_OPTIMIZER File=Z8GO.:Z8A6TSI                      TUE 08/26/97 07:51 Page:17
      429    11826    5       END ;
      430    11827
      431    11828    4     VAL_ETT$ = VAL_ILL$ -> VAL.ETT$ ;
      432    11829
      433    11830          /* VAL_SEQ# = Seq# of innermost VAL item. */
      434    11831
      435    11832    4     VAL_END_ILL$ = ILL_ETT$ ;
      436    11833    4     VAL_END_ILS$ = ILS$ ;
      437    11834
      438    11835    5     DO WHILE (VAL_END_ILL$ -> ILL.ID = %VAL_END) ;
      439    11836    5       VAL_ILS$ = VAL_END_ILL$ -> VAL_END.VAL$ ;
      440    11837    5       VAL_END_ILS$ = VAL_END_ILS$ -> ILS.NEXT ;
      441    11838    5       VAL_END_ILL$ = VAL_END_ILS$ -> ILS.ILL$ ;
      442    11839    5     END ; /* Do While */
      443    11840
      444    11841    4     VAL_SEQ# = VAL_ILS$ -> ILS.SEQNO ;
      445    11842
      446    11843          /* Evaluate next redefinition if not already done. */
      447    11844
      448    11845    4     IF VAL_ETT$ -> ETT.EVALP$ = ADDR(NIL)
      449    11846    4           OR VAL_ETT$ -> ETT.EVALP$ -> ILL.ID ~= %EVALP
      450    11847    4           OR VAL_ETT$ -> ETT.CMP_SC >= O3COM.CURRENT_SEQ_NO     THEN
      451    11848    4       CALL Z8GS$SCAN_MAX (VAL_ETT$) ;
      452    11849
      453    11850    4     IF VAL_ETT$ -> ETT.CMP_SC < VAL_SEQ#      THEN
      454    11851    5       DO;
      455    11852                 /* No redefinitions between VAL and VAL_END. */
      456    11853                 /* Link out VAL_END item from ILS.           */
      457    11854
      458    11855    5         VAL_SEQ# = %MAX_SEQ# ;
      459    11856    5         ILS$ = ILS$ -> ILS.NEXT ;
      460    11857    5         GOTO DO_WHILE_ILS$_NON_NIL ;
      461    11858
      462    11859    5       END ; /* If Then Do */
      463    11860    4     ELSE
      464    11861
      465    11862    5       DO;   /*   There is a redefinition between VAL & VAL_END   */
PL6.E3A0      #001=Z8GO$GLOBAL_OPTIMIZER File=Z8GO.:Z8A6TSI                      TUE 08/26/97 07:51 Page:18
      466    11863
      467    11864    5         VAL_ETT$ -> ETT.CMP_SC = VAL_SEQ# ;
      468    11865    5         CALL Z8GI$INSERT_EVALP (VAL_ETT$) ;
      469    11866    5         VAL_ETT$ -> ETT.EVALP$ -> CCOSU.B.VAL_FREEZE = '1'B ;
      470    11867    5         VAL_ETT$ -> ETT.EVALP$ -> CCOSU.CNTE = 0 ;
      471    11868    5         ILS$ = ILS$ -> ILS.NEXT ;
      472    11869    5         GOTO DO_WHILE_ILS$_NON_NIL ;
      473    11870
      474    11871    5       END ; /* Else Do */
      475    11872        %EJECT;
PL6.E3A0      #001=Z8GO$GLOBAL_OPTIMIZER File=Z8GO.:Z8A6TSI                      TUE 08/26/97 07:51 Page:19
      476    11873    4     CASE (%VAL) ;              /* De-link VAL from ILL/ILS         */
      477    11874
      478    11875    4       VAL_SEQ# = %MAX_SEQ# ;
      479    11876    4       ILS$ = ILS$ -> ILS.NEXT ;
      480    11877    4       GOTO DO_WHILE_ILS$_NON_NIL ;
      481    11878        %EJECT;
PL6.E3A0      #001=Z8GO$GLOBAL_OPTIMIZER File=Z8GO.:Z8A6TSI                      TUE 08/26/97 07:51 Page:20
      482    11879    4          END /* Case of ILL ID */ ;
      483    11880
      484    11881               /* Update next ENTRY pointer */
      485    11882
      486    11883    3          IF COMCOM.H_ENTRY$ = ILS$     THEN
      487    11884    3            COMCOM.H_ENTRY$ = COMCOM.H_ENTRY$ -> ILS.ILL$ -> ENTRY_ILL.PREV_ENTRY_ILS$;
      488    11885
      489    11886
      490    11887               /*V* Update ptr to next referenced label definition. */
      491    11888
      492    11889    4          IF O3COM.LBL = ILS$        THEN DO ;
      493    11890    5            DO WHILE ( '1'B );
      494    11891    5              O3COM.LBL = O3COM.LBL->ILS.ILL$ -> ILL.LBL ;
      495    11892
      496    11893                   /* Reverse the LBL link for Phase 4 */
      497    11894    5              ILS$ -> ILS.ILL$ -> ILL.LBL = PREV_LBL$ ;
      498    11895    5              PREV_LBL$ = ILS$ ;
      499    11896
      500    11897    5              IF O3COM.LBL = ADDR(NIL) THEN GOTO EXIT_LOOP;
      501    11898    5              IF O3COM.LBL -> ILS.ILL$ -> ILL.LOP -> VARIABLE.B.REFERENCED
      502    11899    5              THEN GOTO EXIT_LOOP ;
      503    11900    5            END ;
      504    11901    4   EXIT_LOOP: ;
      505    11902    4          END ;
      506    11903        %EJECT;
PL6.E3A0      #001=Z8GO$GLOBAL_OPTIMIZER File=Z8GO.:Z8A6TSI                      TUE 08/26/97 07:51 Page:21
      507    11904        /*V* Update FDPs (Forward Definition Points) and BDPs.
      508    11905             (FDP = ST.SEQ#.FD, BDP = ST.SEQ#.BD)                   */
      509    11906
      510    11907    4   DO CASE (ILS$ -> ILS.ID) ;
      511    11908
      512    11909    4     CASE (%OPV) ; /* Single Redefinition */
      513    11910
      514    11911    4       ST$ = ILS$ -> ILS.DNAME ;
      515    11912    4       DUMMY_DPI$ -> DPI.RDEF = ILS$ -> ILS.RDEF;
      516    11913    4       CALL UPDATE_FDPS_BDPS (DUMMY_DPI$);
      517    11914
      518    11915    4     CASE (%OPA) ; /* Multiple Redefinitions */
      519    11916
      520    11917    4       DPI$$ = ILS$ -> ILS.DEF ;
      521    11918
      522    11919    5       DO WHILE (DPI$$ ~= ADDR(NIL)) ;
      523    11920
      524    11921    5         ST$ = DPI$$ -> DPI.DNAME ;
      525    11922    5         CALL UPDATE_FDPS_BDPS (DPI$$) ;
      526    11923
      527    11924    5         DPI$$ = DPI$$ -> DPI.NEXT ;
      528    11925
      529    11926    5       END /* Do While */ ;
      530    11927
      531    11928            /* Check for "Common" redefinition via CALL or PFORM */
      532    11929
      533    11930    5       IF ILS$ -> ILS.B.CDEF THEN DO ;
      534    11931    5         O3COM.LAST_OPA_REDEF = COMCOM.COMMON_REDEF ;
      535    11932    5         COMCOM.COMMON_REDEF = ILS$ -> ILS.RDEF ;
      536    11933    5       END ;
      537    11934
      538    11935    4   END /* Case of ILS.ID */ ;
      539    11936
      540    11937          %EJECT;
PL6.E3A0      #001=Z8GO$GLOBAL_OPTIMIZER File=Z8GO.:Z8A6TSI                      TUE 08/26/97 07:51 Page:22
      541    11938        /*V* Increment the count of the redefinition guy. */
      542    11939
      543    11940    4   DO CASE ( P3VEC (ILL_ETT$ -> ILL.ID) ) ;
      544    11941
      545    11942    4     CASE (%ARGLIST_REDEF) ; /* ACCEPT */
      546    11943
      547    11944            %INCR_COUNT (OP = "ROP -> ARGLIST.ARG$(0)", BIT = ARITH,
      548    11945                         COMPUTE_SEQ_ALREADY_COMPUTED = '0'B) ;
      549    12010
      550    12011    4     CASE (%ONE_EXPRESSION_LOP_REDEF,
      551    12012    4           %TWO_EXPRESSIONS_LOP_REDEF) ;
      552    12013
      553    12014            %INCR_COUNT (OP = LOP, BIT = ARITH,
      554    12015                         COMPUTE_SEQ_ALREADY_COMPUTED = '0'B) ;
      555    12080
      556    12081    4     CASE (%THREE_EXPRESSIONS_TO_REDEF) ;
      557    12082
      558    12083            %INCR_COUNT (OP = TO_, BIT = ARITH,
      559    12084                         COMPUTE_SEQ_ALREADY_COMPUTED = '0'B) ;
      560    12149
      561    12150    4     CASE (%FOUR_EXPRESSIONS_TWO_REDEFS) ;
      562    12151
      563    12152            %INCR_COUNT (OP = TO_, BIT = ARITH,
      564    12153                         COMPUTE_SEQ_ALREADY_COMPUTED = '0'B) ;
      565    12218
      566    12219    5       IF ILL_ETT$ -> ILL.REMAINDER ~= ADDR(NIL) THEN DO ;
      567    12220              %INCR_COUNT (OP = REMAINDER, BIT = ARITH,
      568    12221                           COMPUTE_SEQ_ALREADY_COMPUTED = '0'B) ;
      569    12286    5       END ;
      570    12287
      571    12288    4     CASE (%ILLEGAL_VALUE) ;
      572    12289
      573    12290    4       CALL Z8AE$ERROR (%E$UNEXPECTED_CASE) ;
      574    12291
      575    12292    4   END /* Case of P3VEC */ ;
      576    12293
      577    12294          %EJECT;
PL6.E3A0      #001=Z8GO$GLOBAL_OPTIMIZER File=Z8GO.:Z8A6TSI                      TUE 08/26/97 07:51 Page:23
      578    12295    3   ILL_ETT$ = ILS$ -> ILS.ILL$ ; /* Reset in case of EVALP */
      579    12296
      580    12297    3     UPDATE_COUNT: ;
      581    12298
      582    12299    4   DO CASE (ILL_ETT$ -> ILL.ID) ;
      583    12300
      584    12301    4     CASE (%DISPL, %ACCEP) ;
      585    12302
      586    12303    4       CALL Z8GS$SCAN_MAX (COMCOM.ARGS2) ;
      587    12304    4       CALL Z8GI$INSERT_EVALP (COMCOM.ARGS2) ;
      588    12305    4       COMCOM.ARGS2 -> ETT.EVALP$ -> CCOSU.B.ARITH = '1'B ;
      589    12306
      590    12307    4     CASE (%STOPL) ;
      591    12308
      592    12309    4       CALL Z8GS$SCAN_MAX (COMCOM.ARGS0) ;
      593    12310    4       CALL Z8GI$INSERT_EVALP (COMCOM.ARGS0) ;
      594    12311    4       COMCOM.ARGS0 -> ETT.EVALP$ -> CCOSU.B.ARITH = '1'B ;
      595    12312
      596    12313    4   END /* Case of ILL ID */ ;
      597    12314        %EJECT;
PL6.E3A0      #001=Z8GO$GLOBAL_OPTIMIZER File=Z8GO.:Z8A6TSI                      TUE 08/26/97 07:51 Page:24
      598    12315    4   DO CASE ( P3VEC (ILL_ETT$ -> ILL.ID) ) ;
      599    12316
      600    12317    4     CASE (%NO_EXPRESSIONS) ;
      601    12318
      602    12319            /*V* Set Current Line Number in case of an error */
      603    12320
      604    12321    4       IF ILL_ETT$ -> ILL.ID = %LINOI    THEN
      605    12322    4         COMCOM.CURRENT.LINE = ILL_ETT$ -> LINOI.PREV_LINE ;
      606    12323
      607    12324    4     CASE (%ONE_EXPRESSION_LOP_REDEF,
      608    12325    4           %ARGLIST_REDEF) ;
      609    12326
      610    12327    4     CASE (%ROP_EXPRESSION_NO_REDEF) ;
      611    12328
      612    12329    5       IF ILL_ETT$ -> ILL.ROP ~= ADDR(NIL) THEN DO ;
      613    12330              %INCR_COUNT (OP = ROP, BIT = ARITH,
      614    12331                           COMPUTE_SEQ_ALREADY_COMPUTED = '0'B) ;
      615    12403    5       END ; /* ROP exists */
      616    12404
      617    12405    4     CASE (%EXPR_EXPRESSION_NO_REDEF) ;
      618    12406            %INCR_COUNT (OP = REMAINDER, BIT = ARITH,
      619    12407                         COMPUTE_SEQ_ALREADY_COMPUTED = '0'B) ;
      620    12472
      621    12473    4     CASE (%TWO_EXPRESSIONS_NO_REDEF) ;
      622    12474
      623    12475    5       IF ILL_ETT$ -> ILL.LOP ~= ADDR(NIL) THEN DO ;
      624    12476    6         IF ILL_ETT$ -> ILL.LOP -> ETT.ID <= %LAST_ETT THEN DO ;
      625    12477                %INCR_COUNT (OP = LOP, BIT = ARITH,
      626    12478                             COMPUTE_SEQ_ALREADY_COMPUTED = '0'B) ;
      627    12543    6         END ; /* LOP is an ETT item */
      628    12544    5       END ; /* LOP exists */
      629    12545
      630    12546    5       IF ILL_ETT$ -> ILL.ROP ~= ADDR(NIL) THEN DO ;
      631    12547              %INCR_COUNT (OP = ROP, BIT = ARITH,
      632    12548                           COMPUTE_SEQ_ALREADY_COMPUTED = '0'B) ;
      633    12620    5       END ; /* ROP exists */
      634    12621
PL6.E3A0      #001=Z8GO$GLOBAL_OPTIMIZER File=Z8GO.:Z8A6TSI                      TUE 08/26/97 07:51 Page:25
      635    12622    4     CASE (%TWO_EXPRESSIONS_LOP_REDEF) ;
      636    12623
      637    12624    5       IF ILL_ETT$ -> ILL.ROP ~= ADDR(NIL) THEN DO ;
      638    12625              %INCR_COUNT (OP = ROP, BIT = ARITH,
      639    12626                           COMPUTE_SEQ_ALREADY_COMPUTED = '0'B) ;
      640    12698    5       END ; /* ROP exists */
      641    12699
      642    12700    4     CASE (%THREE_EXPRESSIONS_TO_REDEF,
      643    12701    4           %FOUR_EXPRESSIONS_TWO_REDEFS) ;
      644    12702
      645    12703    5       IF ILL_ETT$ -> ILL.LOP ~= ADDR(NIL) THEN DO ;
      646    12704    6         IF ILL_ETT$ -> ILL.LOP -> ETT.ID <= %LAST_ETT THEN DO ;
      647    12705                %INCR_COUNT (OP = LOP, BIT = ARITH,
      648    12706                             COMPUTE_SEQ_ALREADY_COMPUTED = '0'B) ;
      649    12771    6         END ; /* LOP is an ETT item */
      650    12772    5       END ; /* LOP exists */
      651    12773
      652    12774    5       IF ILL_ETT$ -> ILL.ROP ~= ADDR(NIL) THEN DO ;
      653    12775    6         IF ILL_ETT$ -> ILL.ROP -> ETT.ID <= %LAST_ETT THEN DO ;
      654    12776                %INCR_COUNT (OP = ROP, BIT = ARITH,
      655    12777                             COMPUTE_SEQ_ALREADY_COMPUTED = '0'B) ;
      656    12849    6         END ; /* ROP is an ETT item */
      657    12850    5       END ; /* ROP exists */
      658    12851
      659    12852    4     CASE (%TIMES$_EXPRESSION_NO_REDEF,
      660    12853    4           %ILLEGAL_VALUE) ;
      661    12854
      662    12855    4       CALL Z8AE$ERROR (%E$UNEXPECTED_CASE) ;
      663    12856
      664    12857    4     CASE (%ROP_ARGLIST) ; /* eg, DISPLAY statement */
      665    12858
      666    12859            /*V* Scan & Increment Count of each arg in ARGLIST */
      667    12860
      668    12861    5       DO I = 0 TO ILL_ETT$ -> ILL.ROP -> ARGLIST.N - 2 ;
      669    12862
      670    12863              %INCR_COUNT (OP="ROP -> ARGLIST.ARG$(I)", BIT=ARITH,
      671    12864                           COMPUTE_SEQ_ALREADY_COMPUTED = '0'B) ;
PL6.E3A0      #001=Z8GO$GLOBAL_OPTIMIZER File=Z8GO.:Z8A6TSI                      TUE 08/26/97 07:51 Page:26
      672    12929
      673    12930    5       END ;
      674    12931
      675    12932    4     CASE (%LOP_ARGLIST) ; /* eg, CALL statement */
      676    12933
      677    12934            /*V* Scan & Increment Count of each arg in ARGLIST */
      678    12935
      679    12936    5       DO I = 0 TO ILL_ETT$ -> ILL.LOP -> ARGLIST.N - 2 ;
      680    12937
      681    12938    5         IF ILL_ETT$ -> ILL.LOP -> ARGLIST.ARG$(I) ~= ADDR(NIL) AND
      682    12939    5           ILL_ETT$ -> ILL.LOP -> ARGLIST.ARG$(I) -> ETT.ID < %FIRST_ST  THEN
      683    12940    6           DO;
      684    12941                  %INCR_COUNT (OP="LOP -> ARGLIST.ARG$(I)", BIT=ARITH,
      685    12942                               COMPUTE_SEQ_ALREADY_COMPUTED = '0'B) ;
      686    13007    6           END;
      687    13008
      688    13009    5       END ;
      689    13010
      690    13011    4       IF ILL_ETT$ -> ILL.ROP ~= ADDR(NIL) THEN
      691    13012    5         DO;
      692    13013                %INCR_COUNT(OP = ROP, BIT = ARITH,
      693    13014                            COMPUTE_SEQ_ALREADY_COMPUTED = '0'B);
      694    13086    5         END;
      695    13087
      696    13088    4     CASE (%INITV_INCRV_CEILV) ;
      697    13089
      698    13090            %INCR_COUNT (OP = LOP, BIT = ARITH,
      699    13091                         COMPUTE_SEQ_ALREADY_COMPUTED = '0'B) ;
      700    13156
      701    13157            /* Set First_Initv & Last_Initv for EVALP case */
      702    13158
      703    13159    4       IF FIRST_INITV$ = ADDR(NIL)     THEN
      704    13160    4         FIRST_INITV$ = ILL_ETT$ ;
      705    13161    4       LAST_INITV$ = ILL_ETT$ ;
      706    13162
      707    13163    4       ILL_ETT$ = ILL_ETT$ -> ILL.ILL$ ; /* Link to EVALP */
      708    13164    4       GOTO UPDATE_COUNT ;
PL6.E3A0      #001=Z8GO$GLOBAL_OPTIMIZER File=Z8GO.:Z8A6TSI                      TUE 08/26/97 07:51 Page:27
      709    13165
      710    13166          %EJECT;
PL6.E3A0      #001=Z8GO$GLOBAL_OPTIMIZER File=Z8GO.:Z8A6TSI                      TUE 08/26/97 07:51 Page:28
      711    13167    4     CASE (%EVALP_) ;
      712    13168
      713    13169            /*V* Chain thru EVALPs, deleting those whose
      714    13170                 CNTE = 1, changing IDs to CCOSU for those
      715    13171                 whose CNTE > 1.
      716    13172            */
      717    13173
      718    13174    4       HEAD_CCOSU = ADDR(NIL) ;
      719    13175    4       TAIL_CCOSU = ADDR(NIL) ;
      720    13176    4       O3COM.EVALP$ = ILL_ETT$ ;
      721    13177    4       PREV$ = ADDR(NIL) ;
      722    13178
      723    13179    5       DO WHILE (O3COM.EVALP$ -> ILL.ID = %EVALP) ;
      724    13180
      725    13181              /*V* Update the counts of LOP & ROP */
      726    13182
      727    13183    5         ILL_ETT$ = O3COM.EVALP$ -> CCOSU.EVEX ;
      728    13184
      729    13185    6         DO CASE (P3VEC(ILL_ETT$ -> ETT.ID)) ;
      730    13186
      731    13187    6           CASE (%NO_EXPRESSIONS) ;
      732    13188                  /* Do Nothing */
      733    13189
      734    13190    6           CASE (%ONE_EXPRESSION_NO_REDEF) ;
      735    13191
      736    13192    7             DO CASE (ILL_ETT$ -> ETT.ID) ;
      737    13193
      738    13194    7               CASE (%EVAL) ;
      739    13195
      740    13196                      /* Increment the count of the ROP of the */
      741    13197                      /* LOP if the LOP is a SSOP or a SIZ.    */
      742    13198                      %INCR_COUNT (OP = LOP, BIT = ARITH) ;
      743    13263    7                 LOP$ = ILL_ETT$ -> ETT.LOP ;
      744    13264
      745    13265    7                 IF LOP$ -> ETT.ID = %FISS THEN
      746    13266    7                   LOP$ = LOP$ -> ETT.LOP ;
      747    13267
PL6.E3A0      #001=Z8GO$GLOBAL_OPTIMIZER File=Z8GO.:Z8A6TSI                      TUE 08/26/97 07:51 Page:29
      748    13268    7                 IF LOP$ -> ETT.ID = %SSOP
      749    13269    7                     OR LOP$ -> ETT.ID = %REFMOD    /*#28637*/
      750    13270    7                     OR LOP$ -> ETT.ID = %SIZ     THEN
      751    13271                                                           /*#30836*/
      752    13272    7                   CALL INCR_ROP_OF_SSOP_OR_SIZ (LOP$, %EVAL) ;
      753    13273
      754    13274    7               CASE (ELSE) ;
      755    13275
      756    13276                      %INCR_COUNT (OP = LOP, BIT = ARITH) ;
      757    13341
      758    13342    7             END ; /* Case of ID */
      759    13343
      760    13344    6           CASE (%ROP_EXPRESSION_NO_REDEF) ; /* Not Used */
      761    13345                  %INCR_COUNT (OP = ROP, BIT = ARITH) ;
      762    13417
      763    13418    6           CASE (%TWO_EXPRESSIONS_NO_REDEF) ;
      764    13419    6             IF ILL_ETT$ -> ILL.LOP -> ETT.ID <= %LAST_ETT THEN
      765    13420    7               DO;
      766    13421                      %INCR_COUNT (OP = LOP, BIT = ARITH) ;
      767    13486    7               END;
      768    13487                  %INCR_COUNT (OP = ROP, BIT = ARITH) ;
      769    13559
      770    13560                  /* Update op. seg. count if exponentiation */
      771    13561
      772    13562    6             IF ILL_ETT$ -> ETT.ID = %EXDD
      773    13563    6             OR ILL_ETT$ -> ETT.ID = %EXRR
      774    13564    6             OR ILL_ETT$ -> ETT.ID = %EXQQ     THEN
      775    13565    6               IF O3COM.OP$ ~= ADDR(NIL)             THEN
      776    13566    6                 O3COM.OP$ -> CCOSU.CNTE = O3COM.OP$ -> CCOSU.CNTE
      777    13567          /* Changed to '+ 1'        + O3COM.EVALP$ -> CCOSU.CNTE ;*/
      778    13568    6                                   + 1;
      779    13569
      780    13570    6           CASE (%SSOP_SIZ_BASE) ; /* & FISS & OFF */
      781    13571
      782    13572    6             IF ILL_ETT$ -> ETT.ID = %BASE    THEN
      783    13573    7               DO;
      784    13574
PL6.E3A0      #001=Z8GO$GLOBAL_OPTIMIZER File=Z8GO.:Z8A6TSI                      TUE 08/26/97 07:51 Page:30
      785    13575    7                 IF ILL_ETT$ -> ILL.ROP -> ETT.ID <= %LAST_ETT   THEN
      786    13576    8                   DO;
      787    13577                          %INCR_COUNT (OP = ROP, BIT = ARITH) ;
      788    13649    8                   END;
      789    13650    7               END ;
      790    13651
      791    13652    6             ELSE      /* ID = SSOP, SIZ, OFF, or FISS */
      792    13653
      793    13654    7               DO;
      794    13655    7                 IF ILL_ETT$ -> ETT.LOP -> ETT.ID ~= %PARA   THEN
      795    13656    8                   DO;
      796    13657                          %INCR_COUNT (OP = LOP, BIT = ARITH) ;
      797    13722    8                   END ;
      798    13723    7               END ; /* ID = SSOP, SIZE, OFF, or FISS */
      799    13724
      800    13725                  /* Increment the count of the ROP if it's
      801    13726                     a SIZ or a non-INITV-INCRV SSOP.
      802    13727                  */
      803    13728
      804    13729    6             CALL INCR_ROP_OF_SSOP_OR_SIZ (ILL_ETT$,
      805    13730    6                                           ILL_ETT$ -> ETT.ID) ;
      806    13731
      807    13732    6         END /* Case of EVALP -> triad ID */ ;
      808    13733
      809    13734              /*V* Change the EVALP ID to CCOSU if one of the
      810    13735                   following conditions is met:
      811    13736                   (1) the count is > 1 (more than one ref),
      812    13737                   (2) the expression can be removed from a loop,
      813    13738                or (3) the expression is "good forever".
      814    13739              */
      815    13740
      816    13741    5         ETT_ID = O3COM.EVALP$ -> CCOSU.EVEX -> ETT.ID ;
      817    13742    5         ETT$$ = O3COM.EVALP$ -> CCOSU.EVEX ;
      818    13743
      819    13744    5         IF  ETT_ID = %ESC
      820    13745    5             AND ETT$$ -> ETT.LOP -> ST.ID = %BLOCK
      821    13746    5             AND ETT$$ -> ETT.LOP -> ST.COUNT = 1
PL6.E3A0      #001=Z8GO$GLOBAL_OPTIMIZER File=Z8GO.:Z8A6TSI                      TUE 08/26/97 07:51 Page:31
      822    13747    5           OR ETT_ID = %TRIAD
      823    13748    5           OR ETT_ID = %CMPAS THEN
      824    13749    5           CALL DELETE_EVALP ;
      825    13750    5         ELSE
      826    13751
      827    13752    5         IF O3COM.EVALP$ -> CCOSU.CNTE > 1
      828    13753    5         OR ( O3COM.EVALP$ -> CCOSU.B.VAL_FREEZE
      829    13754    5          AND O3COM.EVALP$ -> CCOSU.CNTE > 0  )
      830    13755    5         OR ( ( O3COM.LOOP_LEVEL < O3COM.EVALP$ -> CCOSU.LEVEL
      831    13756    5             OR O3COM.CURRENT_SEQ_NO = COMCOM.H_ENTRY$ -> ILS.SEQNO + 1 )
      832    13757    5          AND ( O3COM.EVALP$ -> CCOSU.CNTE = 1
      833    13758    5            AND ETT_ID ~= %OFF ) )
      834    13759    6         THEN DO ;
      835    13760
      836    13761    6           O3COM.EVALP$ -> ILL.ID = %CCOSU ;
      837    13762    6           IF  O3COM.CURRENT_SEQ_NO = COMCOM.H_ENTRY$ -> ILS.SEQNO + 1
      838    13763    6           AND ETT_ID ~= %ESC
      839    13764    6           THEN O3COM.EVALP$ -> CCOSU.B.GOOD_FOREVER = '1'B ;
      840    13765
      841    13766    6           IF (O3COM.LOOP_LEVEL < O3COM.EVALP$ -> CCOSU.LEVEL
      842    13767    6           OR O3COM.CURRENT_SEQ_NO = COMCOM.H_ENTRY$ -> ILS.SEQNO+1)
      843    13768    6           AND ETT_ID ~= %ARGP
      844    13769    6           AND ETT_ID ~= %BASE
      845    13770    6           AND ETT_ID ~= %ESC
      846    13771    6           THEN O3COM.EVALP$ -> CCOSU.B.EVAL = '1'B ;
      847    13772    6           ILL$ = O3COM.EVALP$ -> CCOSU.ILL$ ;
      848    13773
      849    13774                /*V* Reverse the links of the CCOSUs for Phase 4 */
      850    13775
      851    13776    6           O3COM.EVALP$ -> CCOSU.ILL$ = HEAD_CCOSU ;
      852    13777    6           HEAD_CCOSU = O3COM.EVALP$ ;
      853    13778    6           IF TAIL_CCOSU = ADDR(NIL)    THEN
      854    13779    6             TAIL_CCOSU = O3COM.EVALP$ ;
      855    13780
      856    13781    6           IF O3COM.CURRENT_SEQ_NO = COMCOM.FIRST_ENTRY_SEQ_NUM THEN
      857    13782    7             DO;
      858    13783                    %PICK_ESC_LIST ;
PL6.E3A0      #001=Z8GO$GLOBAL_OPTIMIZER File=Z8GO.:Z8A6TSI                      TUE 08/26/97 07:51 Page:32
      859    13787    7             END ;
      860    13788
      861    13789    6         END /* If Then Do */ ;
      862    13790
      863    13791    6         ELSE DO ; /* CNTE = 1 or 0 --- Delete EVALP */
      864    13792
      865    13793    6           CALL DELETE_EVALP ;
      866    13794
      867    13795    6         END /* Else Do */ ;
      868    13796
      869    13797    5         O3COM.EVALP$ = ILL$ ; /* Update Loop Index */
      870    13798
      871    13799    5       END /* Do While ID = EVALP */ ;
      872    13800
      873    13801            /* Insert INITV's after CCOSU's */
      874    13802
      875    13803    5       IF FIRST_INITV$ ~= ADDR(NIL) THEN DO ;
      876    13804    5         LAST_INITV$ -> ILL.ILL$ = O3COM.EVALP$ ;
      877    13805    5         O3COM.EVALP$ = FIRST_INITV$ ;
      878    13806    5       END ;
      879    13807
      880    13808    4       IF TAIL_CCOSU = ADDR(NIL)    THEN
      881    13809    4         ILS$ -> ILS.ILL$ = O3COM.EVALP$ ;
      882    13810    4       ELSE
      883    13811
      884    13812    5         DO;            /* There was at least one CCOSU */
      885    13813    5           ILS$ -> ILS.ILL$ = HEAD_CCOSU ;
      886    13814    5           TAIL_CCOSU->CCOSU.ILL$ = O3COM.EVALP$ ;
      887    13815    5           IF O3COM.CURRENT_SEQ_NO = COMCOM.FIRST_ENTRY_SEQ_NUM THEN
      888    13816    6             DO;
      889    13817                    %PUT_ESC_LIST ;
      890    13821    6             END;
      891    13822    5         END ;
      892    13823
      893    13824
      894    13825    4       ILL_ETT$ = O3COM.EVALP$ ; /* ILL item after last EVALP */
      895    13826    4       O3COM.EVALP$ = ADDR(NIL) ;
PL6.E3A0      #001=Z8GO$GLOBAL_OPTIMIZER File=Z8GO.:Z8A6TSI                      TUE 08/26/97 07:51 Page:33
      896    13827    4       GOTO UPDATE_COUNT ;   /* Optimize original ILL item */
      897    13828
      898    13829    4   END /* CASE (P3VEC) */ ;
      899    13830        %EJECT;
PL6.E3A0      #001=Z8GO$GLOBAL_OPTIMIZER File=Z8GO.:Z8A6TSI                      TUE 08/26/97 07:51 Page:34
      900    13831            /* Update op. seg. count for ILL library calls */
      901    13832
      902    13833    4          DO CASE (ILL_ETT$ -> ILL.ID) ;
      903    13834
      904    13835    4            CASE (%STOP, %STOPL, %ACCEP, %DISPL, %OS_CALL) ;
      905    13836
      906    13837    4              IF O3COM.OP$ ~= ADDR(NIL)   THEN
      907    13838    4                O3COM.OP$ -> CCOSU.CNTE = O3COM.OP$ -> CCOSU.CNTE + 1 ;
      908    13839
      909    13840    4          END /* Case of ILL ID */ ;
      910    13841
      911    13842    3        END /* IF ILL_ETT$ ~= ADDR(NIL) */ ;
      912    13843
      913    13844    2        NEXT_ILS$ = ILS$ -> ILS.NEXT ;
      914    13845    2        ILS$ -> ILS.NEXT = PREV_ILS$ ;
      915    13846    2        PREV_ILS$ = ILS$ ;
      916    13847    2        ILS$ = NEXT_ILS$ ;
      917    13848    2        FIRST_INITV$ = ADDR(NIL) ;
      918    13849
      919    13850    2   DO_WHILE_ILS$_NON_NIL: ;
      920    13851
      921    13852    2       END /* DO WHILE */ ;
      922    13853
      923    13854    1       COMCOM.FIRST_ILS = PREV_ILS$ ;
      924    13855
      925    13856            /* Set Label Definition Head Link for Phase 4 */
      926    13857
      927    13858    1       COMCOM.H_LBL = PREV_LBL$ ;
      928    13859
      929    13860    1       RETURN ;
      930    13861
      931    13862        %EJECT;
PL6.E3A0      #001=Z8GO$GLOBAL_OPTIMIZER File=Z8GO.:Z8A6TSI                      TUE 08/26/97 07:51 Page:35
      932    13863    1    DELETE_EVALP: PROC ;
      933    13864
      934    13865    2          ILL$ = O3COM.EVALP$ -> CCOSU.ILL$ ;
      935    13866
      936    13867    2          IF PREV$ = ADDR(NIL)     THEN
      937    13868    2            ILS$ -> ILS.ILL$ = ILL$ ;
      938    13869    2          ELSE
      939    13870    2            PREV$ -> CCOSU.ILL$ = ILL$;
      940    13871
      941    13872               /* Link Discarded EVALP items into
      942    13873                  EVALP pool.                          */
      943    13874               %INSERT_INTO_SL_LIST(PTR=O3COM.EVALP$,
      944    13875                                    ITEM=CCOSU,
      945    13876                                    HEAD=O3COM.HEAD_EVALP$,
      946    13877                                    NEXT=NEXT$ );
      947    13890    2    END DELETE_EVALP ;
      948    13891
      949    13892        %EJECT;
PL6.E3A0      #001=Z8GO$GLOBAL_OPTIMIZER File=Z8GO.:Z8A6TSI                      TUE 08/26/97 07:51 Page:36
      950    13893        /*D*       NAME: PICK_ESC_LIST
      951    13894
      952    13895                   CALL: CALL PICK_ESC_LIST ;
      953    13896
      954    13897            DESCRIPTION: This routine is called when the current sequence
      955    13898                         number is COMCOM.FIRST_ENTRY_SEQ_NUM and a EVALP has been
      956    13899                         turned into a CCOSU.  If the ID of the CCOSU's
      957    13900                         triad is ESC and the count is high enough, then
      958    13901                         this CCOSU's count will be added to the list of
      959    13902                         counts that represent the top 5 referenced ESCs
      960    13903                         in the program.  The routine PUT_ESC_LIST will use
      961    13904                         this information.
      962    13905
      963    13906        */
      964    13907
      965    13908    1   PICK_ESC_LIST: PROC ;
      966    13909
      967    13910    2          IF ( ( O3COM.EVALP$ -> CCOSU.EVEX->ETT.ID = %ESC
      968    13911    2             AND O3COM.EVALP$ -> CCOSU.EVEX->ETT.LOP -> ST.ID = %BLOCK
      969    13912    2             AND O3COM.EVALP$ -> CCOSU.EVEX ~= COMCOM.ESC )
      970    13913    2            OR ( O3COM.EVALP$ -> CCOSU.EVEX->ETT.ID = %ARGP
      971    13914    2             AND COMCOM.SYMDEFC = 1 ) )
      972    13915    3          AND    O3COM.EVALP$ -> CCOSU.CNTE > TOP5.COUNT (%(#PTR_REGS - 1)) THEN DO ;
      973    13916
      974    13917    4            DO I = 0 TO %(#PTR_REGS - 1) ;
      975    13918
      976    13919    5              IF O3COM.EVALP$ -> CCOSU.CNTE > TOP5.COUNT(I) THEN DO ;
      977    13920
      978    13921    6                DO J = %(#PTR_REGS - 2) DOWNTO I ;
      979    13922    6                  TOP5.COUNT (J+1) = TOP5.COUNT (J) ;
      980    13923    6                  TOP5.PTR$ (J + 1) = TOP5.PTR$ (J);
      981    13924    6                END ;
      982    13925
      983    13926    5                TOP5.COUNT(I) = O3COM.EVALP$ -> CCOSU.CNTE ;
      984    13927    5                TOP5.PTR$ (I) = O3COM.EVALP$ -> CCOSU.EVEX;
      985    13928    5                GOTO LOOP_EXIT ;
      986    13929
PL6.E3A0      #001=Z8GO$GLOBAL_OPTIMIZER File=Z8GO.:Z8A6TSI                      TUE 08/26/97 07:51 Page:37
      987    13930    5              END /* If CNTE > COUNT (I) */ ;
      988    13931
      989    13932    4            END /* DO I */ ;
      990    13933    3   LOOP_EXIT: ;
      991    13934
      992    13935    3          END /* If Then Do */ ;
      993    13936
      994    13937    2   END PICK_ESC_LIST ;
      995    13938
      996    13939        %EJECT;
PL6.E3A0      #001=Z8GO$GLOBAL_OPTIMIZER File=Z8GO.:Z8A6TSI                      TUE 08/26/97 07:51 Page:38
      997    13940        /*D*       NAME: PUT_ESC_LIST
      998    13941
      999    13942                   CALL: CALL PUT_ESC_LIST ;
     1000    13943
     1001    13944            DESCRIPTION: This routine is called when the current sequence
     1002    13945                         number is COMCOM.FIRST_ENTRY_SEQ_NUM and the ESC CCOSU's
     1003    13946                         have been processed.  TOP5.COUNT is an array
     1004    13947                         containing the counts of the most referenced
     1005    13948                         ESC triads. This routine will add these top 5
     1006    13949                         CCOSU items to COMCOM.ESC_LIST for use by Phase 4.
     1007    13950
     1008    13951        */
     1009    13952
     1010    13953    1   PUT_ESC_LIST: PROC ;
     1011    13954
     1012    13955
     1013    13956    2          I = 0;
     1014    13957
     1015    13958    2        LOOP1:
     1016    13959    3          DO WHILE (TOP5.PTR$(I) ~= ADDR(NIL));
     1017    13960
     1018    13961    3            COMCOM.ESC_LIST.ESC$(I) = TOP5.PTR$(I);
     1019    13962    3            TOP5.PTR$(I) -> ETT.EVALP$ -> CCOSU.B.IGNORE = '1'B;
     1020    13963
     1021    13964    3            IF TOP5.PTR$(I) -> ETT.ID = %ESC THEN
     1022    13965    3              COMCOM.ESC_LIST.OPTION(I) = %PR_BLOCK;
     1023    13966    3            ELSE
     1024    13967    3              COMCOM.ESC_LIST.OPTION(I) = %PR_ARGP;
     1025    13968
     1026    13969    3            COMCOM.ESC_LIST.PR#(I) = %PR7 - I;
     1027    13970
     1028    13971                 /* Currently, only PR7 is available for global assignment */
     1029    13972                 /* so, exit the do  loop here. In the future we might  be */
     1030    13973                 /* able to use the PR6 and PR5 too, then, these code will */
     1031    13974                 /* be added:                                              */
     1032    13975                 /*   IF I = 2 THEN EXIT LOOP1; ELSE I = I + 1;            */
     1033    13976
PL6.E3A0      #001=Z8GO$GLOBAL_OPTIMIZER File=Z8GO.:Z8A6TSI                      TUE 08/26/97 07:51 Page:39
     1034    13977    3            EXIT LOOP1;
     1035    13978
     1036    13979    3          END;
     1037    13980    2   END PUT_ESC_LIST ;
     1038    13981
     1039    13982        %EJECT;
PL6.E3A0      #001=Z8GO$GLOBAL_OPTIMIZER File=Z8GO.:Z8A6TSI                      TUE 08/26/97 07:51 Page:40
     1040    13983        /*F*   NAME: SORT_GSAS
     1041    13984
     1042    13985               CALL: CALL SORT_GSAS ;
     1043    13986
     1044    13987        DESCRIPTION: If the number of GSA's exceeds the number of index
     1045    13988                     registers available for loop optimization, then this
     1046    13989                     routine picks the candidates with the highest counts.
     1047    13990
     1048    13991        */
     1049    13992
     1050    13993    1   SORT_GSAS:PROC ;
     1051    13994
     1052    13995        /*N* Sort GSA items */
     1053    13996
     1054    13997    2          RETURN ;
     1055    13998
     1056    13999    2   END SORT_GSAS ;
     1057    14000
     1058    14001        %EJECT;
PL6.E3A0      #001=Z8GO$GLOBAL_OPTIMIZER File=Z8GO.:Z8A6TSI                      TUE 08/26/97 07:51 Page:41
     1059    14002
     1060    14003        /*F*   NAME: UPDATE_FDPS_BDPS
     1061    14004
     1062    14005               CALL: Called when CASE (ILS.ID) = OPV or OPA.
     1063    14006
     1064    14007              INPUT: ST$ -- Ptr to a reference triad or ST item.
     1065    14008                     RDEF$ -- Ptr to a DPI or NIL.
     1066    14009
     1067    14010             OUTPUT: FDP's (SEQ#.FD) and BDP's (SEQ#.BD) updated.
     1068    14011
     1069    14012        DESCRIPTION: (1) Find ST item that is being redefined.
     1070    14013                     (2) Update FDP and BDP.
     1071    14014
     1072    14015        */
     1073    14016
     1074    14017    1   UPDATE_FDPS_BDPS: PROC (RDEF$) ;
     1075    14018
     1076    14019    2   DCL   RDEF$       PTR ;
     1077    14020    2   DCL   QST$        PTR ;
     1078    14021
     1079    14022    3          IF RDEF$ ~= ADDR(NIL) THEN DO ;
     1080    14023    4            DO WHILE (ST$ -> VARIABLE.ID < %FIRST_ST) ;
     1081    14024    4              ST$ = ST$ -> ETT.LOP ;
     1082    14025    4            END ;
     1083    14026    3            ST$ -> VARIABLE.SEQ#.BD = ST$ -> VARIABLE.SEQ#.FD ;
     1084    14027    3            ST$ -> VARIABLE.SEQ#.FD = RDEF$ -> DPI.RDEF ;
     1085    14028    3          END ;
     1086    14029
     1087    14030
     1088    14031    2   END UPDATE_FDPS_BDPS ;
     1089    14032
     1090    14033        %EJECT;
PL6.E3A0      #001=Z8GO$GLOBAL_OPTIMIZER File=Z8GO.:Z8A6TSI                      TUE 08/26/97 07:51 Page:42
     1091    14034        /*F*       NAME: OPTIMIZER_ALERT
     1092    14035
     1093    14036                   CALL: IF COMCOM.OB.O3DUMP THEN CALL OPTIMIZER_ALERT (ETT$);
     1094    14037
     1095    14038                  INPUT: ARG#1 -- PTR to a triad.
     1096    14039
     1097    14040            DESCRIPTION: Prints out a message when a triad is not optimizable
     1098    14041                         due to a CMP_SC value >= CURRENT_SEQ_NO.  This may
     1099    14042                         or may not be an optimizer error.  Examples of
     1100    14043                         legitimate optimizer alerts are expressions that
     1101    14044                         contain references to RENAMES, REDEFINES, or
     1102    14045                         group items.
     1103    14046
     1104    14047        */
     1105    14048
     1106    14049    1   OPTIMIZER_ALERT: PROC (TRIAD$) ;
     1107    14050
     1108    14051    2   DCL   TRIAD$     PTR ;
     1109    14052    2   DCL   OBUF       CHAR (120) EXT ;
     1110    14053    2   DCL   X8CO$CONV_TO_OCTAL    ENTRY (2) ;
     1111    14054    2   DCL   Z9AL$DUMP_LINE        ENTRY ;
     1112    14055    2   DCL   CHAR12     CHAR (12) ;
     1113    14056
     1114    14057    2          OBUF = ' ' ;
     1115    14058    2          SUBSTR (OBUF, 0, 25) = 'Optimizer Alert at line# ' ;
     1116    14059    2          CALL BINCHAR (SUBSTR (OBUF, 25, 5), COMCOM.CURRENT.LINE) ;
     1117    14060    2          SUBSTR (OBUF, 30, 9) = ', ETT$ = ' ;
     1118    14061    2          CALL X8CO$CONV_TO_OCTAL (TRIAD$, SUBSTR (OBUF, 39, 12)) ;
     1119    14062    2          CALL Z9AL$DUMP_LINE ;
     1120    14063
     1121    14064    2   END OPTIMIZER_ALERT ;
     1122    14065
     1123    14066        %EJECT;
PL6.E3A0      #001=Z8GO$GLOBAL_OPTIMIZER File=Z8GO.:Z8A6TSI                      TUE 08/26/97 07:51 Page:43
     1124    14067        /*I*   NAME: INCR_ROP_OF_SSOP_OR_SIZ
     1125    14068
     1126    14069               CALL: CALL INCR_ROP_OF_SSOP_OR_SIZ (SSOP$ or SIZ$, id) ;
     1127    14070
     1128    14071              INPUT: OP$ -- pointer to SSOP or SIZ triad.
     1129    14072                     PARENT_ID -- ID of the guy requesting increment.
     1130    14073
     1131    14074             OUTPUT: OP$ -> ETT.ROP -> ETT.EVALP$ -> CCOSU.CNTE
     1132    14075                     is incremented by an amount appropriate to
     1133    14076                     the way Phase 4 references instruction tags.
     1134    14077
     1135    14078        DESCRIPTION:
     1136    14079                      Increment the count of the ROP if it's
     1137    14080                      a SIZ or a non-INITV-INCRV SSOP.
     1138    14081        */
     1139    14082
     1140    14083    1   INCR_ROP_OF_SSOP_OR_SIZ: PROC (OP$, PARENT_ID) ;
     1141    14084
     1142    14085    2   DCL  OP$        PTR ;
     1143    14086    2   DCL  PARENT_ID  UBIN WORD ;
     1144    14087    2   DCL  SSOP$      PTR ;
     1145    14088    2   DCL  SIZ$       PTR ;
     1146    14089    2   DCL  BASE_ST$$  PTR ;
     1147    14090
     1148    14091    2        SSOP$ = ADDR(NIL) ;
     1149    14092    2        SIZ$  = ADDR(NIL) ;
     1150    14093
     1151    14094    3        DO CASE (OP$ -> ETT.ID) ;
     1152    14095
     1153    14096    3          CASE (%SIZ, %REFMOD) ;  /*#28637*/
     1154    14097
     1155    14098    3            INCREMENT_ROP_COUNT = TRUE ;
     1156    14099    3            SIZ$ = OP$ -> ETT.ROP ;
     1157    14100    3            IF OP$ -> ETT.LOP -> ETT.ID = %SSOP   THEN
     1158    14101    3              SSOP$ = OP$ -> ETT.LOP -> ETT.ROP ;
     1159    14102
     1160    14103    3          CASE (%SSOP) ;
PL6.E3A0      #001=Z8GO$GLOBAL_OPTIMIZER File=Z8GO.:Z8A6TSI                      TUE 08/26/97 07:51 Page:44
     1161    14104
     1162    14105    3            GST$ = O3COM.GSA$ ;
     1163    14106    3            INCREMENT_ROP_COUNT = TRUE;
     1164    14107
     1165    14108    4            DO WHILE (GST$ ~= ADDR(NIL)) ;
     1166    14109
     1167    14110    4              IF GST$ -> GST.ROP_OF_SSOP = OP$ -> ETT.ROP   THEN
     1168    14111    5                DO;
     1169    14112    5                  INCREMENT_ROP_COUNT = FALSE ;
     1170    14113    5                  GST$ = ADDR(NIL);
     1171    14114    5                END;
     1172    14115    4              ELSE
     1173    14116    4                GST$ = GST$ -> GST.NEXT ;
     1174    14117
     1175    14118    4            END;       /* Do While */
     1176    14119
     1177    14120    3            IF INCREMENT_ROP_COUNT = TRUE   THEN
     1178    14121    4              DO;
     1179    14122    4                SSOP$ = OP$ -> ETT.ROP ;
     1180    14123    4                IF OP$ -> ETT.LOP -> ETT.ID = %SIZ          /*#28637*/
     1181    14124    4                     OR OP$ -> ETT.LOP -> ETT.ID = %REFMOD    THEN
     1182    14125    4                  SIZ$ = OP$ -> ETT.LOP -> ETT.ROP ;
     1183    14126    4              END;
     1184    14127
     1185    14128    3          CASE (ELSE) ;
     1186    14129
     1187    14130    3            INCREMENT_ROP_COUNT = FALSE ;
     1188    14131
     1189    14132    3        END /* Case of ID */ ;
     1190    14133
     1191    14134
     1192    14135    3        IF INCREMENT_ROP_COUNT THEN DO ;
     1193    14136
     1194    14137               %FISH (TRIAD = OP$,
     1195    14138                      RTN   = BASE_ST$$);
     1196    14146
     1197    14147    3          IF BASE_ST$$ -> ST.ID = %PARA THEN
PL6.E3A0      #001=Z8GO$GLOBAL_OPTIMIZER File=Z8GO.:Z8A6TSI                      TUE 08/26/97 07:51 Page:45
     1198    14148    4            DO;
     1199    14149                   %INCR_COUNT (ITEM$ = OP$, OP = ROP, BIT = ARITH);
     1200    14221    4            END;
     1201    14222    3          ELSE
     1202    14223    4            DO;
     1203    14224                   %INCR_COUNT (ITEM$ = OP$, OP = ROP, BIT = SUBS) ;
     1204    14296    4            END;
     1205    14297
     1206    14298    4          IF PARENT_ID = %EVAL THEN DO ;
     1207    14299    4            OP$ -> ETT.ROP -> ETT.EVALP$ -> CCOSU.CNTE =
     1208    14300    4             OP$ -> ETT.ROP -> ETT.EVALP$ -> CCOSU.CNTE - 1 ;
     1209    14301    4            IF SSOP$ ~= ADDR(NIL)    THEN
     1210    14302    5              DO;
     1211    14303                        /* Create an EVALP for the expr if one */
     1212    14304                        /* doesn't already exist.              */
     1213    14305
     1214    14306    5                IF SSOP$ -> ETT.EVALP$ = ADDR(NIL)
     1215    14307    5                    OR SSOP$ -> ETT.EVALP$ -> ILS.ID ~= %EVALP
     1216    14308    5                    OR SSOP$ -> ETT.EVALP$ -> CCOSU.EVEX ~= SSOP$  THEN
     1217    14309    6                  DO;
     1218    14310    6                    CALL Z8GI$INSERT_EVALP (SSOP$) ;
     1219    14311    6                    SSOP$ -> ETT.EVALP$ -> CCOSU.CNTE = 0 ;
     1220    14312    6                  END ;
     1221    14313    5                SSOP$ -> ETT.EVALP$ -> CCOSU.CNTE = SSOP$ -> ETT.EVALP$
     1222    14314    5                        -> CCOSU.CNTE + O3COM.EVALP$ -> CCOSU.CNTE -1;
     1223    14315
     1224    14316    5              INCREMENT_ROP_COUNT = FALSE ;
     1225    14317    5            END ;
     1226    14318    5            IF SIZ$ ~= ADDR(NIL) THEN DO ;
     1227    14319
     1228    14320                   /* Create an EVALP for the expr if one */
     1229    14321                   /* doesn't already exist.              */
     1230    14322
     1231    14323    5              IF SIZ$ -> ETT.EVALP$ = ADDR(NIL)
     1232    14324    5              OR SIZ$ -> ETT.EVALP$ -> ILS.ID ~= %EVALP
     1233    14325    5              OR SIZ$ -> ETT.EVALP$ -> CCOSU.EVEX ~= SIZ$
     1234    14326    6              THEN DO ;
PL6.E3A0      #001=Z8GO$GLOBAL_OPTIMIZER File=Z8GO.:Z8A6TSI                      TUE 08/26/97 07:51 Page:46
     1235    14327    6                CALL Z8GI$INSERT_EVALP (SIZ$) ;
     1236    14328    6                SIZ$ -> ETT.EVALP$ -> CCOSU.CNTE = 0 ;
     1237    14329    6              END ;
     1238    14330    5              SIZ$ ->ETT.EVALP$ -> CCOSU.CNTE =
     1239    14331    5               SIZ$ ->ETT.EVALP$ -> CCOSU.CNTE +
     1240    14332    5               O3COM.EVALP$ -> CCOSU.CNTE - 1 ;
     1241    14333    5              INCREMENT_ROP_COUNT = FALSE ;
     1242    14334    5            END ; /* SIZ$ <> Nil */
     1243    14335    4          END ; /* Parent ID = %EVAL */
     1244    14336    3        END ; /* Increment ROP Count */
     1245    14337
     1246    14338    3        IF O3COM.EVALP$ -> CCOSU.CNTE > 1 THEN DO ;
     1247    14339
     1248    14340    4          IF INCREMENT_ROP_COUNT THEN DO ;
     1249    14341
     1250    14342    4            OP$ -> ETT.ROP -> ETT.EVALP$ -> CCOSU.CNTE =
     1251    14343    4              OP$ -> ETT.ROP -> ETT.EVALP$ -> CCOSU.CNTE +
     1252    14344    4              O3COM.EVALP$ -> CCOSU.CNTE - 1 ;
     1253    14345
     1254    14346    4          END /* IF ID = SSOP or SIZ */ ;
     1255    14347
     1256    14348               /* Increment the count of the ESC triad */
     1257    14349    3          ETT$ = OP$ ;
     1258    14350    4          DO WHILE (ETT$ -> ETT.ID ~= %BASE
     1259    14351    4                AND ETT$ -> ETT.ID ~= %TRIAD) ;
     1260    14352    4            ETT$ = ETT$ -> ETT.LOP ;
     1261    14353    4          END ;
     1262    14354
     1263    14355    4          IF ETT$ -> ETT.ID = %BASE THEN DO ;
     1264    14356
     1265    14357                 /* Create an EVALP for the ESC if one */
     1266    14358                 /* doesn't already exist.             */
     1267    14359
     1268    14360    4            IF ETT$ -> ETT.ROP -> ETT.EVALP$ = ADDR(NIL)
     1269    14361    4            OR ETT$ -> ETT.ROP -> ETT.EVALP$ -> ILS.ID ~= %EVALP
     1270    14362    5            THEN DO ;
     1271    14363    5              CALL Z8GI$INSERT_EVALP (ETT$ -> ETT.ROP) ;
PL6.E3A0      #001=Z8GO$GLOBAL_OPTIMIZER File=Z8GO.:Z8A6TSI                      TUE 08/26/97 07:51 Page:47
     1272    14364    5              ETT$ -> ETT.ROP -> ETT.EVALP$ -> CCOSU.CNTE = 0 ;
     1273    14365    5            END ;
     1274    14366
     1275    14367    4            ETT$ -> ETT.ROP -> ETT.EVALP$ -> CCOSU.CNTE =
     1276    14368    4              ETT$ -> ETT.ROP -> ETT.EVALP$ -> CCOSU.CNTE +
     1277    14369    4              O3COM.EVALP$ -> CCOSU.CNTE - 1 ;
     1278    14370
     1279    14371    4          END ; /* ID = %BASE */
     1280    14372
     1281    14373    3        END /* IF count > 1 */ ;
     1282    14374
     1283    14375    2   END INCR_ROP_OF_SSOP_OR_SIZ ;
     1284    14376
     1285    14377    1   END Z8GO$GLOBAL_OPTIMIZER ;
     1286    14378        %EOD;

PL6.E3A0      #001=Z8GO$GLOBAL_OPTIMIZER File=Z8GO.:Z8A6TSI                      TUE 08/26/97 07:51 Page:48
--  Include file information  --

   Z9G_SYS_DEP.:Z8A6TOU  is referenced.
   Z8G_O3COM.:Z8A6TOU  cannot be made into a system file and is referenced.
   Z8G_P3VEC.:Z8A6TOU  cannot be made into a system file and is referenced.
   Z8A_QLT.:Z8A6TOU  cannot be made into a system file and is referenced.
   Z8A_GST.:Z8A6TOU  cannot be made into a system file and is referenced.
   Z8A_LTS.:Z8A6TOU  cannot be made into a system file and is referenced.
   Z8A_ST.:Z8A6TOU  cannot be made into a system file and is referenced.
   Z8A_ETT.:Z8A6TOU  cannot be made into a system file and is referenced.
   Z8A_ILL.:Z8A6TOU  cannot be made into a system file and is referenced.
   Z8A_DPI.:Z8A6TOU  cannot be made into a system file and is referenced.
   Z8A_ILS.:Z8A6TOU  cannot be made into a system file and is referenced.
   Z8A_ERR_NUMS.:Z8A6TOU  is referenced.
   Z8A_COMCOM.:Z8A6TOU  cannot be made into a system file and is referenced.
   X8A_COM_MACS.:X8A6TOU  is referenced.
   Z8A_NAMES.:Z8A6TOU  is referenced.
   Z8A_SUPP_MAC.:Z8A6TOU  is referenced.
   Z8A_DEFC.:Z8A6TOU  cannot be made into a system file and is referenced.
      No diagnostics issued in procedure Z8GO$GLOBAL_OPTIMIZER.

   Procedure Z8GO$GLOBAL_OPTIMIZER requires 4192 words for executable code.
   Procedure Z8GO$GLOBAL_OPTIMIZER requires 54 words of local(AUTO) storage.

PL6.E3A0      #001=Z8GO$GLOBAL_OPTIMIZER File=Z8GO.:Z8A6TSI                      TUE 08/26/97 07:51 Page:49

 Object Unit name= Z8GO$GLOBAL_OPTIMIZER                      File name= Z8GO.:Z8A6TOU
 UTS= AUG 26 '97 07:51:39.68 TUE                              Compiler= PL-6/E31         Sev=      00
 SharedLib= :SHARED_SYSTEM                                    Alt SharedLib=


    ****  Control sections  ****

 Sect   Type Bound  Init  Size OctSiz  Section name(segment info)
    0  LblCom even  none     1      1  ITERATION
    1  LblCom even  none     1      1  ILS$
    2  LblCom even  none     5      5  ILS_
    3  LblCom even  none     1      1  DPI$
    4  LblCom even  none     5      5  DPI_
    5  LblCom even  none     1      1  ILL$
    6  LblCom even  none     5      5  ILL_
    7  LblCom even  none     1      1  ETT$
    8  LblCom even  none     1      1  HEAD_ETT$
    9  LblCom even  none   512   1000  ETT_BUCKETS
   10  LblCom even  none     5      5  ETT_
   11  LblCom even  none     1      1  ST$
   12  LblCom even  none     5      5  ST_
   13  LblCom even  none     1      1  LTS$
   14  LblCom even  none     5      5  LTS_
   15  LblCom even  none     1      1  GST$
   16  LblCom even  none     5      5  GST_
   17  LblCom even  none     1      1  QLT$
   18  LblCom even  none     1      1  PREV_01_QLT$
   19  LblCom even  none     5      5  QLT_
   20  LblCom even  none   295    447  P3VEC
   21  LblCom even  none    56     70  O3COM
   22   Data  even  none    10     12  Z8GO$GLOBAL_OPTIMIZER
   23  LblCom even  none    30     36  OBUF
   24  RoData even  UTS     10     12  Z8GO$GLOBAL_OPTIMIZER
   25   Proc  even  none  4192  10140  Z8GO$GLOBAL_OPTIMIZER
   26  RoData even  none    21     25  Z8GO$GLOBAL_OPTIMIZER
PL6.E3A0      #001=Z8GO$GLOBAL_OPTIMIZER File=Z8GO.:Z8A6TSI                      TUE 08/26/97 07:51 Page:50

    ****  Entry defs  ****

                              Check   Calling
                             calling  sequence
  Sect OctLoc Primary Altret sequence   type   Parms  Name
    25      0   yes            yes      Std        0  Z8GO$GLOBAL_OPTIMIZER

  ****  Entry refs  ****

         Check        Calling
        calling       sequence
Altret sequence SRef   type   Args  Name
         yes           Std       0 Z8GI$MAKE_SEQ_LIST
         yes           Std       1 Z8GI$INSERT_EVALP
         yes           Std       2 Z8GX$INIT_SUBS
         yes           Std      12 Z8AE$ERROR
         yes           Std       1 Z8AR$RESERVER
         yes           Std       2 Z8GX$SUBS_INCR
         yes           Std       1 Z8GS$SCAN_MAX
         yes           Std       4 Z8AF$FORME
         yes           Std       1 Z8GO$CHECK_OP
         yes           Std       2 X8CO$CONV_TO_OCTAL
         yes           Std       0 Z9AL$DUMP_LINE
                       nStd      0 X66_AUTO_0
                       nStd      0 X66_ARET

  ****  Data refs  ****

  Flags:  r = read only, s = secondary
Flgs Name                             Flgs Name                             Flgs Name
     COMCOM                           r    ILS_STEP_TABLE                   r    ILL_STEP
r    LTS_STEP
PL6.E3A0      #001=Z8GO$GLOBAL_OPTIMIZER File=Z8GO.:Z8A6TSI                      TUE 08/26/97 07:51 Page:51

  ****  Segment refs  ****

  Flags:  r = read only, s = secondary
Flgs Name                             Flgs Name                             Flgs Name
     NULLSID                               ISSID
PL6.E3A0      #001=Z8GO$GLOBAL_OPTIMIZER File=Z8GO.:Z8A6TSI                      TUE 08/26/97 07:51 Page:52


        1        1        /*M* Z8GO$GLOBAL_OPTIMIZER -- Phase 3 Main Module */
        2        2        /*T***********************************************************/
        3        3        /*T*                                                         */
        4        4        /*T* Copyright (c) Bull HN Information Systems Inc., 1997    */
        5        5        /*T*                                                         */
        6        6        /*T***********************************************************/
        7        7
        8        8
        9        9        /*P*   NAME: Z8GO$GLOBAL_OPTIMIZER
       10       10
       11       11            PURPOSE: Link in CCOSU, INITV, and INCRV ILL items
       12       12                     into the ILS/ILL tables to improve the
       13       13                     overall efficiency of the generated code.
       14       14             AUTHOR: John Heath.
       15       15        */
       16       16
       17       17        /*D*   NAME: Z8GO$GLOBAL_OPTIMIZER
       18       18
       19       19               CALL: CALL Z8GO$GLOBAL_OPTIMIZER (called from EXEC).
       20       20
       21       21          INTERFACE: Z8GI -- Insert an EVALP.
       22       22                     Z8GS -- Scan triad tree, set CMP_SC.
       23       23
       24       24              INPUT: COMCOM.FIRST_ILS -- Head link of ILS table.
       25       25
       26       26             OUTPUT: COMCOM.FIRST_ILS -- Head link of ILS table for Phase 4.
       27       27
       28       28        DESCRIPTION: Link through the entire program (via the ILS table),
       29       29                     and provide counts of the number of references for
       30       30                     every expression or reference triad via CCOSU items.
       31       31                     Each CCOSU is good for a redefinition range of the
       32       32                     triad.  See Z8GD for more details.
       33       33        */
       34       34
       35       35        %EJECT;
PL6.E3A0      #001=Z8GO$GLOBAL_OPTIMIZER File=Z8GO.:Z8A6TSI                      TUE 08/26/97 07:51 Page:53
       36       36        Z8GO$GLOBAL_OPTIMIZER: PROC ;

     36 25 000000   000000 700200 xent  Z8GO$GLOBAL* TSX0  ! X66_AUTO_0
        25 000001   000066 000000                    ZERO    54,0

       37       37
       38       38        %MACRO INCR_COUNT (OP = LOP, BIT = ARITH, ITEM$ = ILL_ETT$,
       39       39                           COMPUTE_SEQ_ALREADY_COMPUTED = '1'B) ;
       40       40
       41       41               DO;
       42       42
       43       43                 /* Check for VALUE replacement optimization */
       44       44
       45       45                 %IF TEXTCHAR(OP) = 'LOP' ; /* Don't optimize DNA's LOP */
       46       46                   IF  ITEM$ -> ETT.ID ~= %DNA
       47       47                   AND ITEM$ -> ETT.ID ~= %EVAL
       48       48                   AND ITEM$ -> ETT.ID ~= %OFF
       49       49                   AND ITEM$ -> ETT.ID ~= %SHIFT_L
       50       50                   AND ITEM$ -> ETT.ID ~= %SHIFT_R
       51       51                   AND ITEM$ -> ETT.ID ~= %CMPAO
       52       52                   AND ITEM$ -> ETT.ID ~= %CMPAS
       53       53                   AND ITEM$ -> ETT.ID ~= %ADDR
       54       54                   AND COMCOM.SEGMENTC < 2 THEN
       55       55                     CALL Z8GO$CHECK_OP (ITEM$ -> ILL.LOP) ;
       56       56                 %ELSEIF TEXTCHAR(OP) ~= 'LOP->ARGLIST.ARG$(I)'
       57       57                     AND TEXTCHAR(OP) ~= 'ROP->ARGLIST.ARG$(I)';
       58       58                   IF  ITEM$ -> ETT.ID ~= %CMPAO /* Don't optz CMPAO's ROP */
       59       59                   AND ITEM$ -> ETT.ID ~= %MVANO
       60       60                   AND COMCOM.SEGMENTC < 2 THEN
       61       61                     CALL Z8GO$CHECK_OP (ITEM$ -> ILL.OP) ;
       62       62                 %ENDIF ;
       63       63
       64       64                 /* MVII of CVDI => MVDI optimization moved from Z8E7.     */
       65       65                 /* Likewise, MVDD of CVID4/9 ==> MVID optimization.       */
       66       66                 /* These optimizations have to be done after the VALUE optz. */
       67       67                 %IF TEXTCHAR (OP) = 'ROP' ;
       68       68                   IF  ITEM$ -> ILL.ID = %MVII
PL6.E3A0      #001=Z8GO$GLOBAL_OPTIMIZER File=Z8GO.:Z8A6TSI                      TUE 08/26/97 07:51 Page:54
       69       69                   AND ITEM$ -> ILL.ROP -> ETT.ID = %CVDI THEN DO;
       70       70                     ITEM$ -> ILL.ID  = %MVDI ;
       71       71                     ITEM$ -> ILL.ROP = ITEM$ -> ILL.ROP -> ETT.LOP ;
       72       72                   END ; /* ILL = MVII and ROP = CVDI */
       73       73                   IF  ITEM$ -> ILL.ID = %MVDD
       74       74                   AND (ITEM$ -> ILL.ROP -> ETT.ID = %CVID4 OR
       75       75                        ITEM$ -> ILL.ROP -> ETT.ID = %CVID9) THEN DO;
       76       76                     LOP$$$ = ITEM$ -> ILL.LOP ;
       77       77                     %FISH (TRIAD = LOP$$$, RTN = ST$$$) ;
       78       78                     IF ST$$$ -> VARIABLE.NDSC.SF = 0 THEN DO ;
       79       79                       ITEM$ -> ILL.ID  = %MVID;
       80       80                       ITEM$ -> ILL.ROP = ITEM$ -> ILL.ROP -> ILL.LOP;
       81       81                     END; /* Scale factor = zero */
       82       82                   END;
       83       83                 %ENDIF ; /* OP is ROP */
       84       84
       85       85                 IF ITEM$ -> ILL.OP->ETT.EVALP$ = ADDR (NIL)
       86       86                 OR ITEM$ -> ILL.OP->ETT.EVALP$ -> ILL.ID ~= %EVALP
       87       87                 OR ITEM$ -> ILL.OP->ETT.EVALP$ -> CCOSU.EVEX ~= ITEM$ -> ILL.OP
       88       88                 OR ITEM$ -> ILL.OP->ETT.CMP_SC >= O3COM.CURRENT_SEQ_NO THEN DO ;
       89       89
       90       90                   %IF COMPUTE_SEQ_ALREADY_COMPUTED = '0'B ;
       91       91                      CALL Z8GS$SCAN_MAX (ITEM$ -> ILL.OP) ;
       92       92                   %ENDIF ;
       93       93
       94       94                   CALL Z8GI$INSERT_EVALP (ITEM$ -> ILL.OP) ;
       95       95
       96       96                   IF ITEM$ -> ILL.OP->ETT.EVALP$ = ADDR(NIL)
       97       97                   OR ITEM$ -> ILL.OP->ETT.EVALP$ -> ILL.ID ~= %EVALP THEN DO ;
       98       98                     IF COMCOM.OB.O3DUMP
       99       99                     THEN CALL OPTIMIZER_ALERT (ITEM$ -> ILL.OP) ;
      100      100                   END ;
      101      101                 END ; /* EVALP is non-existent or obsolete */
      102      102                 ELSE DO ;
      103      103                   ILL$ = ITEM$ -> ILL.OP -> ETT.EVALP$ ;
      104      104                   ILL$ -> CCOSU.CNTE = ILL$ -> CCOSU.CNTE + 1 ;
      105      105                   ILL$ -> CCOSU.LSEQ = O3COM.CURRENT_SEQ_NO ;
PL6.E3A0      #001=Z8GO$GLOBAL_OPTIMIZER File=Z8GO.:Z8A6TSI                      TUE 08/26/97 07:51 Page:55
      106      106                   ILL$ -> CCOSU.LEVEL = MAXIMUM (ILL$ -> CCOSU.LEVEL,
      107      107                                                  O3COM.LOOP_LEVEL) ;
      108      108                 END ;
      109      109
      110      110                 ITEM$ -> ILL.OP->ETT.EVALP$ -> CCOSU.B.BIT = '1'B ;
      111      111               END ;
      112      112
      113      113        %MEND ;
      114      114
      115      115        %EJECT;
PL6.E3A0      #001=Z8GO$GLOBAL_OPTIMIZER File=Z8GO.:Z8A6TSI                      TUE 08/26/97 07:51 Page:56
      116      116        %EQU PHASE = 3 ;
      117      117        %EQU Z8GO = 8715 ; /* 8 || G=7 || O=15 */
      118      118        %EQU MODULE = Z8GO ;
      119      119        %EQU #INDEX_REGS = 4 ;
      120      120        %EQU DO5_DEFLB_DIFF = 4 ; /* SEQ# Difference between DO5 and DEFLB */
      121      121        %EQU DOEND_AD2I_DIFF = 5 ; /* SEQ# Difference twix DOEND and AD2I */
      122      122        %EQU DOEND_LINOI_DIFF= 4 ; /* SEQ# Difference twix DOEND and INCRV */
      123      123        %INCLUDE Z8A_DEFC ;
      124      191        %INCLUDE Z8A_SUPP_MAC ;
      125     2591        %INCLUDE Z8A_COMCOM ;
      126     3241        %INCLUDE Z8A_ERR_NUMS ;
      127     4005        %INCLUDE Z8A_ILS ;
      128     4114        %INCLUDE Z8A_DPI ;
      129     4198        %INCLUDE Z8A_ILL ;
      130     4891        %INCLUDE Z8A_ETT ;
      131     5192        %INCLUDE Z8A_ST ;
      132     8851        %INCLUDE Z8A_LTS ;
      133    10928        %INCLUDE Z8A_GST ;
      134    10988        %INCLUDE Z8A_QLT ;
      135    11094
      136    11095        %LIST;
      137    11096        %INCLUDE Z8G_P3VEC ;
        1+   11097        /*T***********************************************************/
        2+   11098        /*T*                                                         */
        3+   11099        /*T* Copyright (c) Bull HN Information Systems Inc., 1997    */
        4+   11100        /*T*                                                         */
        5+   11101        /*T***********************************************************/
        6+   11102        /* INCLUDE FILE Z8G_P3VEC */
        7+   11103
        8+   11104        /* Recompile Z8GD when this include file changes */
        9+   11105
       10+   11106        /* P3VEC Codes */
       11+   11107
       12+   11108        %EQU NO_EXPRESSIONS =              0 ;
       13+   11109        %EQU ONE_EXPRESSION_LOP_REDEF =    1 ;
       14+   11110        %EQU TWO_EXPRESSIONS_LOP_REDEF =   2 ;
       15+   11111        %EQU THREE_EXPRESSIONS_TO_REDEF =  3 ;
PL6.E3A0      #001=Z8GO$GLOBAL_OPTIMIZER File=Z8GO.:Z8A6TSI                      TUE 08/26/97 07:51 Page:57
       16+   11112        %EQU FOUR_EXPRESSIONS_TWO_REDEFS = 4 ;
       17+   11113        %EQU EVALP_ =                      5 ;
       18+   11114        %EQU SSOP_SIZ_BASE =               5 ;
       19+   11115        %EQU ONE_EXPRESSION_NO_REDEF =     6 ;
       20+   11116        %EQU TWO_EXPRESSIONS_NO_REDEF =    7 ;
       21+   11117        %EQU ROP_ARGLIST              =    8 ;
       22+   11118        %EQU ROP_EXPRESSION_NO_REDEF =     9 ;
       23+   11119        %EQU TIMES$_EXPRESSION_NO_REDEF = 10 ;
       24+   11120        %EQU EXPR_EXPRESSION_NO_REDEF   = 11 ;
       25+   11121        %EQU INITV_INCRV_CEILV = 12 ;
       26+   11122        %EQU ARGLIST_REDEF     = 13 ;
       27+   11123        %EQU ILLEGAL_VALUE     = 14 ;
       28+   11124        %EQU LOP_ARGLIST       = 15 ;
       29+   11125
       30+   11126        %SET Z8GD = 874 ; /* 8 || G=7 || D=4 */
       31+   11127
       32+   11128    1   DCL P3VEC (0:%LAST_ILL) UBIN WORD EXT
       33+   11129        %IF MODULE = Z8GD ;
      276+   11372        %ENDIF ;
      277+   11373    1   ;
      278+   11374
      279+   11375        %EJECT;
PL6.E3A0      #001=Z8GO$GLOBAL_OPTIMIZER File=Z8GO.:Z8A6TSI                      TUE 08/26/97 07:51 Page:58
      138    11376        %PLIST;
      139    11377
      140    11378        %INCLUDE Z8G_O3COM ;
      141    11418        %INCLUDE Z9G_SYS_DEP ;
      142    11448
      143    11449    1   DCL   P$                   PTR ;
      144    11450    1   DCL   DO$                  PTR ;
      145    11451    1   DCL   DOEND$               PTR ;
      146    11452    1   DCL   DPI$$                PTR ;
      147    11453    1   DCL   DUMMY_DPI$           PTR ;
      148    11454    1   DCL   ETT_ID               SBIN WORD ;
      149    11455    1   DCL   ETT$$                PTR ;
      150    11456    1   DCL   FIRST_INITV$         PTR ;
      151    11457    1   DCL   HEAD_CCOSU           PTR ;
      152    11458    1   DCL   I                    SBIN WORD ;
      153    11459    1   DCL   ILL_ETT$             PTR ;
      154    11460    1   DCL   INCR$                PTR ;
      155    11461    1   DCL   INCREMENT_ROP_COUNT  BIT (1) ALIGNED ;
      156    11462    1   DCL   INCRV$               PTR ;
      157    11463    1   DCL   INIT$                PTR ;
      158    11464    1   DCL   J                    SBIN WORD ;
      159    11465    1   DCL   LAST_INITV$          PTR ;
      160    11466    1   DCL   LOP$                 PTR ;
      161    11467    1   DCL   LOP$$$               PTR ; /* Used in INCR_COUNT macro */
      162    11468    1   DCL   NEXT_ILS$            PTR ;
      163    11469    1   DCL   OPN$                 PTR ;
      164    11470    1   DCL   P3VEC_CODE           SBIN WORD ;
      165    11471    1   DCL   PREV$                PTR ;
      166    11472    1   DCL   PREV_ILS$            PTR ;
      167    11473    1   DCL   PREV_LBL$            PTR ; /* For Label List manipulation. */
      168    11474    1   DCL   ST$$$                PTR ; /* Used in INCR_COUNT macro */
      169    11475    1   DCL   TAIL_CCOSU           PTR ;
      170    11476    1   DCL   VAL_SEQ#             SBIN WORD ; /* = Max_Seq# normally */
      171    11477    1   DCL   VAL_END_SEQ#         SBIN WORD ;
      172    11478    1   DCL   VAL_ILS$             PTR ;       /* ILS item of VAL ILL */
      173    11479    1   DCL   VAL_ILL$             PTR ;       /* VAL ILL item        */
      174    11480    1   DCL   VAL_ETT$             PTR ;       /* Sending item VAL    */
PL6.E3A0      #001=Z8GO$GLOBAL_OPTIMIZER File=Z8GO.:Z8A6TSI                      TUE 08/26/97 07:51 Page:59
      175    11481    1   DCL   VAL_END_ILS$         PTR ;
      176    11482    1   DCL   VAL_END_ILL$         PTR ;
      177    11483    1   DCL   Z8AE$ERROR           ENTRY (12) ;
      178    11484    1   DCL   Z8AF$FORME           ENTRY (4) ;
      179    11485    1   DCL   Z8GI$INSERT_EVALP    ENTRY (1) ;
      180    11486    1   DCL   Z8GI$MAKE_SEQ_LIST   ENTRY ;
      181    11487    1   DCL   Z8GO$CHECK_OP        ENTRY (1) ;
      182    11488    1   DCL   Z8GS$SCAN_MAX        ENTRY (1) ;
      183    11489    1   DCL   Z8GX$SUBS_INCR       ENTRY (2) ;
      184    11490    1   DCL   Z8GX$INIT_SUBS       ENTRY (2) ;
      185    11491
      186    11492    1   DCL 1 TOP5                 STATIC, /* TOP 5 ESC COUNTS */
      187    11493    1       2 COUNT (0:4)          SBIN WORD INIT (0*5),
      188    11494    1       2 PTR$  (0:4)          PTR INIT (ADDR(NIL) * 5);
      189    11495
      190    11496
      191    11497        %EJECT ;
PL6.E3A0      #001=Z8GO$GLOBAL_OPTIMIZER File=Z8GO.:Z8A6TSI                      TUE 08/26/97 07:51 Page:60
      192    11498    1      COMCOM.FIRST_ENTRY_SEQ_NUM = COMCOM.FIRST_ENTRY_SEQ_NUM + 1 ;

  11498 25 000002   000440 054000 xsym               AOS     COMCOM+288

      193    11499    1      ILS$ = COMCOM.FIRST_ILS ; /* The last ILS item */

  11499 25 000003   000010 236000 xsym               LDQ     COMCOM+8
        25 000004   000000 756000 1                  STQ     ILS$

      194    11500    1      O3COM.CURRENT_SEQ_NO = ILS$ -> ILS.SEQNO ;

  11500 25 000005   000000 470400 1                  LDP0    ILS$
        25 000006   000000 236100                    LDQ     0,,PR0
        25 000007   777777 376007                    ANQ     -1,DL
        25 000010   000000 756000 21                 STQ     O3COM

      195    11501
      196    11502    1      PREV_ILS$ = ADDR(NIL) ;

  11502 25 000011   000000 236000 26                 LDQ     0
        25 000012   200032 756100                    STQ     PREV_ILS$,,AUTO

      197    11503    1      FIRST_INITV$ = ADDR(NIL) ;

  11503 25 000013   200012 756100                    STQ     FIRST_INITV$,,AUTO

      198    11504    1      O3COM.LBL = COMCOM.H_LBL ;     /* Last Paragraph-name in program */

  11504 25 000014   000321 236000 xsym               LDQ     COMCOM+209
        25 000015   000003 756000 21                 STQ     O3COM+3

      199    11505    1      PREV_LBL$ = ADDR(NIL) ;

  11505 25 000016   000000 236000 26                 LDQ     0
        25 000017   200033 756100                    STQ     PREV_LBL$,,AUTO

      200    11506
PL6.E3A0      #001=Z8GO$GLOBAL_OPTIMIZER File=Z8GO.:Z8A6TSI                      TUE 08/26/97 07:51 Page:61
      201    11507    1      O3COM.MAX_SEQ# = COMCOM.FIRST_ILS -> ILS.SEQNO ;

  11507 25 000020   000010 471400 xsym               LDP1    COMCOM+8
        25 000021   100000 236100                    LDQ     0,,PR1
        25 000022   777777 376007                    ANQ     -1,DL
        25 000023   000054 756000 21                 STQ     O3COM+44

      202    11508    1      VAL_SEQ# = %MAX_SEQ# ;

  11508 25 000024   777777 235007                    LDA     -1,DL
        25 000025   200036 755100                    STA     VAL_SEQ#,,AUTO

      203    11509    1      CALL Z8GI$MAKE_SEQ_LIST ;

  11509 25 000026   000001 631400 26                 EPPR1   1
        25 000027   000000 701000 xent               TSX1    Z8GI$MAKE_SEQ_LIST
        25 000030   000000 011000                    NOP     0

      204    11510
      205    11511           /* Create an EVALP for the ESC triad used by O4 for temps */
      206    11512
      207    11513    1      COMCOM.ESC -> ETT.CMP_SC = 0;

  11513 25 000031   000000 220003                    LDX0    0,DU
        25 000032   000007 470400 xsym               LDP0    COMCOM+7
        25 000033   000004 740100                    STX0    4,,PR0

      208    11514    1      COMCOM.ESC -> ETT.CMP_BD = %MAX_SEQ# ;

  11514 25 000034   777777 221003                    LDX1    -1,DU
        25 000035   000007 470400 xsym               LDP0    COMCOM+7
        25 000036   000004 441100                    SXL1    4,,PR0

      209    11515    1      CALL Z8GI$INSERT_EVALP (COMCOM.ESC) ;

  11515 25 000037   000003 630400 26                 EPPR0   3
        25 000040   000002 631400 26                 EPPR1   2
PL6.E3A0      #001=Z8GO$GLOBAL_OPTIMIZER File=Z8GO.:Z8A6TSI                      TUE 08/26/97 07:51 Page:62
        25 000041   000000 701000 xent               TSX1    Z8GI$INSERT_EVALP
        25 000042   000000 011000                    NOP     0

      210    11516    1      COMCOM.ESC->ETT.EVALP$ -> CCOSU.B.ARITH = '1'B ;

  11516 25 000043   000007 470400 xsym               LDP0    COMCOM+7
        25 000044   000003 471500                    LDP1    3,,PR0
        25 000045   000002 236007                    LDQ     2,DL
        25 000046   100002 256100                    ORSQ    2,,PR1

      211    11517
      212    11518                   /* SEARCH -- TO_ and TABLEVAL redefs */
      213    11519                   /* DV4I -- TO_ and REMAINDER redefs */
      214    11520                   /* Note: TABLEVAL and REMAINDER are equivalent fields */
      215    11521
      216    11522
      217    11523           /* Create an EVALP for the operator segment ESC triad */
      218    11524
      219    11525    1      O3COM.OP$ = COMCOM.OPERATOR_SEGMENT$ ;

  11525 25 000047   000426 236000 xsym               LDQ     COMCOM+278
        25 000050   000012 756000 21                 STQ     O3COM+10

      220    11526
      221    11527    1      IF O3COM.OP$ ~= ADDR (NIL) THEN

  11527 25 000051   000000 116000 26                 CMPQ    0
        25 000052   000074 600000 25                 TZE     s:11540

      222    11528    2        DO;

      223    11529    2          O3COM.OP$ -> ETT.CMP_SC = 0;

  11529 25 000053   000000 220003                    LDX0    0,DU
        25 000054   000012 470400 21                 LDP0    O3COM+10
        25 000055   000004 740100                    STX0    4,,PR0

PL6.E3A0      #001=Z8GO$GLOBAL_OPTIMIZER File=Z8GO.:Z8A6TSI                      TUE 08/26/97 07:51 Page:63
      224    11530    2          CALL Z8GI$INSERT_EVALP (O3COM.OP$) ;

  11530 25 000056   000004 630400 26                 EPPR0   4
        25 000057   000002 631400 26                 EPPR1   2
        25 000060   000000 701000 xent               TSX1    Z8GI$INSERT_EVALP
        25 000061   000000 011000                    NOP     0

      225    11531    2          O3COM.OP$ = O3COM.OP$ -> ETT.EVALP$ ;

  11531 25 000062   000012 470400 21                 LDP0    O3COM+10
        25 000063   000003 236100                    LDQ     3,,PR0
        25 000064   000012 756000 21                 STQ     O3COM+10

      226    11532    2          O3COM.OP$ -> CCOSU.CNTE = O3COM.OP$ -> CCOSU.CNTE - 1 ;

  11532 25 000065   000012 470400 21                 LDP0    O3COM+10
        25 000066   000000 720100                    LXL0    0,,PR0
        25 000067   777777 621010                    EAX1    -1,X0
        25 000070   000000 441100                    SXL1    0,,PR0

      227    11533    2          O3COM.OP$ -> CCOSU.B.ARITH = '1'B ;

  11533 25 000071   000012 470400 21                 LDP0    O3COM+10
        25 000072   000002 236007                    LDQ     2,DL
        25 000073   000002 256100                    ORSQ    2,,PR0

      228    11534    2        END;

      229    11535
      230    11536            /* Create a dummy DPI for use in updating FDP & BDP */
      231    11537
      232    11538            %RESERVE_DPI(POINTER=DUMMY_DPI$);

  11540 25 000074   000002 236000 4                  LDQ     DPI_+2
        25 000075   000003 036007                    ADLQ    3,DL
        25 000076   000003 116000 4                  CMPQ    DPI_+3
        25 000077   000110 602000 25                 TNC     s:11542
PL6.E3A0      #001=Z8GO$GLOBAL_OPTIMIZER File=Z8GO.:Z8A6TSI                      TUE 08/26/97 07:51 Page:64

  11541 25 000100   000005 236000 26                 LDQ     5
        25 000101   200062 756100                    STQ     CHAR12+4,,AUTO
        25 000102   200062 630500                    EPPR0   CHAR12+4,,AUTO
        25 000103   200063 450500                    STP0    CHAR12+5,,AUTO
        25 000104   200063 630500                    EPPR0   CHAR12+5,,AUTO
        25 000105   000002 631400 26                 EPPR1   2
        25 000106   000000 701000 xent               TSX1    Z8AR$RESERVER
        25 000107   000000 011000                    NOP     0

  11542 25 000110   000002 236000 4                  LDQ     DPI_+2
        25 000111   000022 736000                    QLS     18
        25 000112   000001 036000 4                  ADLQ    DPI_+1
        25 000113   200007 756100                    STQ     DUMMY_DPI$,,AUTO

  11543 25 000114   000002 235000 4                  LDA     DPI_+2
        25 000115   000003 035007                    ADLA    3,DL
        25 000116   000002 755000 4                  STA     DPI_+2

  11544 25 000117   000743 220003                    LDX0    483,DU
        25 000120   200007 470500                    LDP0    DUMMY_DPI$,,AUTO
        25 000121   000000 740100                    STX0    0,,PR0

  11545 25 000122   000000 236000 26                 LDQ     0
        25 000123   200007 470500                    LDP0    DUMMY_DPI$,,AUTO
        25 000124   000002 756100                    STQ     2,,PR0

      233    11548    1       DUMMY_DPI$ -> DPI.NEXT = ADDR(NIL);

  11548 25 000125   200007 470500                    LDP0    DUMMY_DPI$,,AUTO
        25 000126   000002 756100                    STQ     2,,PR0

      234    11549        %EJECT;
PL6.E3A0      #001=Z8GO$GLOBAL_OPTIMIZER File=Z8GO.:Z8A6TSI                      TUE 08/26/97 07:51 Page:65
      235    11550               /* Link thru the entire ILS back to front */
      236    11551
      237    11552    2      DO WHILE (ILS$ ~= ADDR(NIL)) ;

  11552 25 000127   006677 710000 25                 TRA     DO_WHILE_ILS$_NON_NIL

      238    11553
      239    11554    2        IF ILS$ -> ILS.SEQNO ~= 0

  11554 25 000130   000000 470400 1                  LDP0    ILS$
        25 000131   000000 720100                    LXL0    0,,PR0
        25 000132   000136 601000 25                 TNZ     s:11556
        25 000133   000000 235000 21                 LDA     O3COM
        25 000134   000001 115007                    CMPA    1,DL
        25 000135   000141 601000 25                 TNZ     s:11557

      240    11555    2        OR O3COM.CURRENT_SEQ_NO = 1 THEN
      241    11556    2          O3COM.CURRENT_SEQ_NO = ILS$ -> ILS.SEQNO ;

  11556 25 000136   000000 236100                    LDQ     0,,PR0
        25 000137   777777 376007                    ANQ     -1,DL
        25 000140   000000 756000 21                 STQ     O3COM

      242    11557    2        IF  O3COM.CURRENT_SEQ_NO = O3COM.SL.SEQ# (O3COM.SL_INDEX)

  11557 25 000141   000013 235000 21                 LDA     O3COM+11
        25 000142   000001 735000                    ALS     1
        25 000143   000000 236000 21                 LDQ     O3COM
        25 000144   000014 116005 21                 CMPQ    O3COM+12,AL
        25 000145   000152 601000 25                 TNZ     s:11561
        25 000146   000013 235000 21                 LDA     O3COM+11
        25 000147   000017 115007                    CMPA    15,DL
        25 000150   000152 605000 25                 TPL     s:11561

      243    11558    2                  AND O3COM.SL_INDEX < 15               THEN
      244    11559    2          O3COM.SL_INDEX = O3COM.SL_INDEX + 1 ;

PL6.E3A0      #001=Z8GO$GLOBAL_OPTIMIZER File=Z8GO.:Z8A6TSI                      TUE 08/26/97 07:51 Page:66
  11559 25 000151   000013 054000 21                 AOS     O3COM+11

      245    11560
      246    11561    2        ILL_ETT$ = ILS$ -> ILS.ILL$ ;

  11561 25 000152   000003 236100                    LDQ     3,,PR0
        25 000153   200015 756100                    STQ     ILL_ETT$,,AUTO

      247    11562
      248    11563    3        IF ILL_ETT$ ~= ADDR(NIL) THEN DO ;

  11563 25 000154   000000 116000 26                 CMPQ    0
        25 000155   006664 600000 25                 TZE     s:13844

      249    11564
      250    11565               /*V* DO&IF CHECKS -- Update DO# and IF# */
      251    11566
      252    11567    4          DO WHILE (ILL_ETT$ -> ILL.ID = %EVALP) ;

  11567 25 000156   200015 471500                    LDP1    ILL_ETT$,,AUTO
        25 000157   100000 220100                    LDX0    0,,PR1
        25 000160   000341 100003                    CMPX0   225,DU
        25 000161   000171 601000 25                 TNZ     s:11571

      253    11568    4            ILL_ETT$ = ILL_ETT$ -> CCOSU.ILL$ ;

  11568 25 000162   200015 470500                    LDP0    ILL_ETT$,,AUTO
        25 000163   000003 236100                    LDQ     3,,PR0
        25 000164   200015 756100                    STQ     ILL_ETT$,,AUTO

      254    11569    4          END ;

  11569 25 000165   200015 470500                    LDP0    ILL_ETT$,,AUTO
        25 000166   000000 220100                    LDX0    0,,PR0
        25 000167   000341 100003                    CMPX0   225,DU
        25 000170   000162 600000 25                 TZE     s:11568

PL6.E3A0      #001=Z8GO$GLOBAL_OPTIMIZER File=Z8GO.:Z8A6TSI                      TUE 08/26/97 07:51 Page:67
      255    11570
      256    11571    4          DO CASE (ILL_ETT$ -> ILL.ID) ;

  11571 25 000171   200015 470500                    LDP0    ILL_ETT$,,AUTO
        25 000172   000000 236100                    LDQ     0,,PR0
        25 000173   000022 772000                    QRL     18
        25 000174   000367 136007                    SBLQ    247,DL
        25 000175   000015 116007                    CMPQ    13,DL
        25 000176   000200 602006 25                 TNC     s:11571+7,QL
        25 000177   001104 710000 25                 TRA     s:11883
        25 000200   001076 710000 25                 TRA     s:11875
        25 000201   000737 710000 25                 TRA     s:11820
        25 000202   001104 710000 25                 TRA     s:11883
        25 000203   001104 710000 25                 TRA     s:11883
        25 000204   001104 710000 25                 TRA     s:11883
        25 000205   001104 710000 25                 TRA     s:11883
        25 000206   000347 710000 25                 TRA     s:11635
        25 000207   000347 710000 25                 TRA     s:11635
        25 000210   000347 710000 25                 TRA     s:11635
        25 000211   000347 710000 25                 TRA     s:11635
        25 000212   000347 710000 25                 TRA     s:11635
        25 000213   001104 710000 25                 TRA     s:11883
        25 000214   000215 710000 25                 TRA     s:11575

      257    11572        %EJECT;
PL6.E3A0      #001=Z8GO$GLOBAL_OPTIMIZER File=Z8GO.:Z8A6TSI                      TUE 08/26/97 07:51 Page:68
      258    11573    4     CASE (%DOEND) ;            /*    DO# = Seq# of DO Begin item   */

      259    11574
      260    11575    4       O3COM.DO_ILS$ = ILL_ETT$ -> DO_N.ITB ;

  11575 25 000215   000001 236100                    LDQ     1,,PR0
        25 000216   000065 756000 21                 STQ     O3COM+53

      261    11576    4       O3COM.DO#     = O3COM.DO_ILS$ -> ILS.SEQNO ;

  11576 25 000217   000065 471400 21                 LDP1    O3COM+53
        25 000220   100000 236100                    LDQ     0,,PR1
        25 000221   777777 376007                    ANQ     -1,DL
        25 000222   000004 756000 21                 STQ     O3COM+4

      262    11577    4       O3COM.DOEND#  = O3COM.CURRENT_SEQ_NO ;

  11577 25 000223   000000 235000 21                 LDA     O3COM
        25 000224   000005 755000 21                 STA     O3COM+5

      263    11578    4       O3COM.LOOP_LEVEL = O3COM.LOOP_LEVEL + 1 ;

  11578 25 000225   000011 235000 21                 LDA     O3COM+9
        25 000226   000001 035007                    ADLA    1,DL
        25 000227   000011 755000 21                 STA     O3COM+9

      264    11579
      265    11580            /*V* Is This the Innermost DO5?
      266    11581                 If yes, then set O3COM.VARYING$ to flag
      267    11582                 the start of the collection of INITV/INCRV
      268    11583                 candidates.
      269    11584            */
      270    11585
      271    11586    4       DO$ = ILL_ETT$ -> DO_N.ITB -> ILS.ILL$ ;

  11586 25 000230   000001 473500                    LDP3    1,,PR0
        25 000231   300003 236100                    LDQ     3,,PR3
PL6.E3A0      #001=Z8GO$GLOBAL_OPTIMIZER File=Z8GO.:Z8A6TSI                      TUE 08/26/97 07:51 Page:69
        25 000232   200004 756100                    STQ     DO$,,AUTO

      272    11587
      273    11588    4       IF  DO$ -> ILL.ID = %DO5

  11588 25 000233   200004 474500                    LDP4    DO$,,AUTO
        25 000234   400000 220100                    LDX0    0,,PR4
        25 000235   000401 100003                    CMPX0   257,DU
        25 000236   000331 601000 25                 TNZ     s:11622
        25 000237   300000 236100                    LDQ     0,,PR3
        25 000240   777777 376007                    ANQ     -1,DL
        25 000241   000373 116000 xsym               CMPQ    COMCOM+251
        25 000242   000331 602000 25                 TNC     s:11622
        25 000243   000331 600000 25                 TZE     s:11622

      274    11589    4           AND ILL_ETT$ -> DO_N.ITB->ILS.SEQNO > COMCOM.COMMON_REDEF THEN
      275    11590    5         DO;

      276    11591
      277    11592    5           IF DO$ ~= ILL_ETT$ -> DO_N.ITP -> ILS.ILL$      THEN

  11592 25 000244   000003 475500                    LDP5    3,,PR0
        25 000245   200004 236100                    LDQ     DO$,,AUTO
        25 000246   500003 116100                    CMPQ    3,,PR5
        25 000247   000273 600000 25                 TZE     s:11607

      278    11593    6             DO;

      279    11594
      280    11595                      /* If all the innermosts are not DO5's,
      281    11596                         we can optimize this DO5 anyway.     */
      282    11597
      283    11598    6               DOEND$ = ILL_ETT$ -> DO_N.ITP -> ILS.ILL$ ;

  11598 25 000250   500003 236100                    LDQ     3,,PR5
        25 000251   200005 756100                    STQ     DOEND$,,AUTO

PL6.E3A0      #001=Z8GO$GLOBAL_OPTIMIZER File=Z8GO.:Z8A6TSI                      TUE 08/26/97 07:51 Page:70
      284    11599    7               DO WHILE (DOEND$ -> ILL.ID = %DOEND) ;

  11599 25 000252   200005 476500                    LDP6    DOEND$,,AUTO
        25 000253   600000 221100                    LDX1    0,,PR6
        25 000254   000403 101003                    CMPX1   259,DU
        25 000255   000273 601000 25                 TNZ     s:11607

      285    11600    7                 IF DOEND$ -> DO_N.ITB->ILS.ILL$ -> ILL.ID = %DO5

  11600 25 000256   200005 470500                    LDP0    DOEND$,,AUTO
        25 000257   000001 471500                    LDP1    1,,PR0
        25 000260   100003 473500                    LDP3    3,,PR1
        25 000261   300000 220100                    LDX0    0,,PR3
        25 000262   000401 100003                    CMPX0   257,DU
        25 000263   000330 600000 25                 TZE     ITS_NOT_INNERMOST

      286    11601    7                   THEN GOTO ITS_NOT_INNERMOST;
      287    11602    7                 DOEND$ = DOEND$ -> DO_N.ITP -> ILS.ILL$ ;

  11602 25 000264   000003 474500                    LDP4    3,,PR0
        25 000265   400003 236100                    LDQ     3,,PR4
        25 000266   200005 756100                    STQ     DOEND$,,AUTO

      288    11603    7               END ;

  11603 25 000267   200005 470500                    LDP0    DOEND$,,AUTO
        25 000270   000000 220100                    LDX0    0,,PR0
        25 000271   000403 100003                    CMPX0   259,DU
        25 000272   000256 600000 25                 TZE     s:11600

      289    11604
      290    11605    6             END;

      291    11606
      292    11607    5             O3COM.VARYING$ = DO$ -> DO_N.VARYING$ ;

  11607 25 000273   200004 470500                    LDP0    DO$,,AUTO
PL6.E3A0      #001=Z8GO$GLOBAL_OPTIMIZER File=Z8GO.:Z8A6TSI                      TUE 08/26/97 07:51 Page:71
        25 000274   000010 236100                    LDQ     8,,PR0
        25 000275   000055 756000 21                 STQ     O3COM+45

      293    11608    5             O3COM.BY$      = DO$ -> DO_N.BY$ ;

  11608 25 000276   000012 236100                    LDQ     10,,PR0
        25 000277   000057 756000 21                 STQ     O3COM+47

      294    11609    5             O3COM.FROM$    = DO$ -> DO_N.FROM$ ;

  11609 25 000300   000011 236100                    LDQ     9,,PR0
        25 000301   000056 756000 21                 STQ     O3COM+46

      295    11610    5             O3COM.DO_SEQ# = ILL_ETT$ -> DO_N.ITB->ILS.SEQNO + %DO5_DEFLB_DIFF ;

  11610 25 000302   200015 471500                    LDP1    ILL_ETT$,,AUTO
        25 000303   100001 473500                    LDP3    1,,PR1
        25 000304   300000 236100                    LDQ     0,,PR3
        25 000305   777777 376007                    ANQ     -1,DL
        25 000306   000004 036007                    ADLQ    4,DL
        25 000307   000062 756000 21                 STQ     O3COM+50

      296    11611    5             O3COM.DOEND_SEQ# = ILS$ -> ILS.SEQNO - %DOEND_AD2I_DIFF;

  11611 25 000310   000000 473400 1                  LDP3    ILS$
        25 000311   300000 236100                    LDQ     0,,PR3
        25 000312   777777 376007                    ANQ     -1,DL
        25 000313   000005 136007                    SBLQ    5,DL
        25 000314   000063 756000 21                 STQ     O3COM+51

      297    11612
      298    11613    5             O3COM.INCRV_ILS$ = ILS$ ;

  11613 25 000315   000000 236000 1                  LDQ     ILS$
        25 000316   000064 756000 21                 STQ     O3COM+52

      299    11614    6             DO I = 1 TO %DOEND_LINOI_DIFF ;
PL6.E3A0      #001=Z8GO$GLOBAL_OPTIMIZER File=Z8GO.:Z8A6TSI                      TUE 08/26/97 07:51 Page:72

  11614 25 000317   000001 235007                    LDA     1,DL
        25 000320   200014 755100                    STA     I,,AUTO

      300    11615    6               O3COM.INCRV_ILS$ = O3COM.INCRV_ILS$ -> ILS.NEXT ;

  11615 25 000321   000064 470400 21                 LDP0    O3COM+52
        25 000322   000002 236100                    LDQ     2,,PR0
        25 000323   000064 756000 21                 STQ     O3COM+52

      301    11616    6             END ;

  11616 25 000324   200014 054100                    AOS     I,,AUTO
        25 000325   200014 235100                    LDA     I,,AUTO
        25 000326   000004 115007                    CMPA    4,DL
        25 000327   000321 604400 25                 TMOZ    s:11615

      302    11617
      303    11618    5   ITS_NOT_INNERMOST:
      304    11619
      305    11620    5         END   /*  If ID = %DO5  */ ;

  11620 25 000330   001104 710000 25    ITS_NOT_INN* TRA     s:11883

      306    11621    4       ELSE
      307    11622    4         IF DO$ -> ILL.ID = %DO2   THEN

  11622 25 000331   000376 100003                    CMPX0   254,DU
        25 000332   001104 601000 25                 TNZ     s:11883

      308    11623    5           DO;

      309    11624                      /*  If the DO2 - DOEND block has no
      310    11625                          statements (other than linoi) then
      311    11626                          it is delinked from the ILS chain.
      312    11627                      */
      313    11628    5             P$ = ILS$ -> ILS.NEXT -> ILS.NEXT;
PL6.E3A0      #001=Z8GO$GLOBAL_OPTIMIZER File=Z8GO.:Z8A6TSI                      TUE 08/26/97 07:51 Page:73

  11628 25 000333   000000 475400 1                  LDP5    ILS$
        25 000334   500002 476500                    LDP6    2,,PR5
        25 000335   600002 236100                    LDQ     2,,PR6
        25 000336   200003 756100                    STQ     P$,,AUTO

      314    11629    5             IF P$ -> ILS.ILL$ -> ILL.ID = %DO2 THEN

  11629 25 000337   200003 477500                    LDP7    P$,,AUTO
        25 000340   700003 470500                    LDP0    3,,PR7
        25 000341   000000 221100                    LDX1    0,,PR0
        25 000342   000376 101003                    CMPX1   254,DU
        25 000343   001104 601000 25                 TNZ     s:11883

      315    11630    5               ILS$ = P$ -> ILS.NEXT;

  11630 25 000344   700002 236100                    LDQ     2,,PR7
        25 000345   000000 756000 1                  STQ     ILS$

      316    11631    5           END;

  11631 25 000346   001104 710000 25                 TRA     s:11883

      317    11632        %EJECT;
PL6.E3A0      #001=Z8GO$GLOBAL_OPTIMIZER File=Z8GO.:Z8A6TSI                      TUE 08/26/97 07:51 Page:74
      318    11633    4     CASE (%DO1, %DO2, %DO3, %DO4, %DO5 );

      319    11634
      320    11635    4       IF  O3COM.VARYING$ ~= ADDR(NIL)

  11635 25 000347   000055 236000 21                 LDQ     O3COM+45
        25 000350   000000 116000 26                 CMPQ    0
        25 000351   000713 600000 25                 TZE     s:11779
        25 000352   000000 220100                    LDX0    0,,PR0
        25 000353   000401 100003                    CMPX0   257,DU
        25 000354   000713 601000 25                 TNZ     s:11779

      321    11636    4           AND   ILL_ETT$ -> ILL.ID = %DO5    THEN
      322    11637    5         DO;

      323    11638
      324    11639              /*V* O3COM.VARYING$ points to a list of GSA
      325    11640                   items as candidates for INITV and INCRV
      326    11641                   creation.  Find the four with the highest
      327    11642                    counts.
      328    11643              */
      329    11644
      330    11645    5           IF O3COM.GSA_COUNT > %#INDEX_REGS    THEN

  11645 25 000355   000061 235000 21                 LDA     O3COM+49
        25 000356   000004 115007                    CMPA    4,DL
        25 000357   000362 604400 25                 TMOZ    s:11647

      331    11646    5             CALL SORT_GSAS ;          /* Sets GSA_COUNT = #XR's */

  11646 25 000360   007064 701000 25                 TSX1    SORT_GSAS
        25 000361   000000 011000                    NOP     0

      332    11647    5           GST$ = O3COM.GSA$ ;

  11647 25 000362   000060 236000 21                 LDQ     O3COM+48
        25 000363   000000 756000 15                 STQ     GST$
PL6.E3A0      #001=Z8GO$GLOBAL_OPTIMIZER File=Z8GO.:Z8A6TSI                      TUE 08/26/97 07:51 Page:75

      333    11648
      334    11649    6           DO WHILE (O3COM.GSA_COUNT > 0) ;

  11649 25 000364   000061 235000 21                 LDA     O3COM+49
        25 000365   000707 604400 25                 TMOZ    s:11771

      335    11650
      336    11651    6             CALL Z8GX$INIT_SUBS (GST$ -> GST.ROP_OF_SSOP, INIT$) ;

  11651 25 000366   200021 630500                    EPPR0   INIT$,,AUTO
        25 000367   200063 450500                    STP0    CHAR12+5,,AUTO
        25 000370   000000 236000 15                 LDQ     GST$
        25 000371   000001 036003                    ADLQ    1,DU
        25 000372   200062 756100                    STQ     CHAR12+4,,AUTO
        25 000373   200062 630500                    EPPR0   CHAR12+4,,AUTO
        25 000374   000006 631400 26                 EPPR1   6
        25 000375   000000 701000 xent               TSX1    Z8GX$INIT_SUBS
        25 000376   000000 011000                    NOP     0

      337    11652    6             CALL Z8GX$SUBS_INCR (GST$ -> GST.ROP_OF_SSOP, INCR$) ;

  11652 25 000377   200016 630500                    EPPR0   INCR$,,AUTO
        25 000400   200063 450500                    STP0    CHAR12+5,,AUTO
        25 000401   000000 236000 15                 LDQ     GST$
        25 000402   000001 036003                    ADLQ    1,DU
        25 000403   200062 756100                    STQ     CHAR12+4,,AUTO
        25 000404   200062 630500                    EPPR0   CHAR12+4,,AUTO
        25 000405   000006 631400 26                 EPPR1   6
        25 000406   000000 701000 xent               TSX1    Z8GX$SUBS_INCR
        25 000407   000000 011000                    NOP     0

      338    11653
      339    11654                  /* Shift INCRV expression to upper for ADLXn */
      340    11655
      341    11656    6             IF INCR$ -> ETT.ID ~= %TRIAD    THEN

PL6.E3A0      #001=Z8GO$GLOBAL_OPTIMIZER File=Z8GO.:Z8A6TSI                      TUE 08/26/97 07:51 Page:76
  11656 25 000410   200016 470500                    LDP0    INCR$,,AUTO
        25 000411   000000 220100                    LDX0    0,,PR0
        25 000412   000015 100003                    CMPX0   13,DU
        25 000413   000430 600000 25                 TZE     s:11661

      342    11657    6               CALL Z8AF$FORME (%MPI2, INCR$, 18, INCR$) ;

  11657 25 000414   200016 631500                    EPPR1   INCR$,,AUTO
        25 000415   200065 451500                    STP1    CHAR12+7,,AUTO
        25 000416   000012 236000 26                 LDQ     10
        25 000417   200064 756100                    STQ     CHAR12+6,,AUTO
        25 000420   200016 633500                    EPPR3   INCR$,,AUTO
        25 000421   200063 453500                    STP3    CHAR12+5,,AUTO
        25 000422   000013 236000 26                 LDQ     11
        25 000423   200062 756100                    STQ     CHAR12+4,,AUTO
        25 000424   200062 630500                    EPPR0   CHAR12+4,,AUTO
        25 000425   000007 631400 26                 EPPR1   7
        25 000426   000000 701000 xent               TSX1    Z8AF$FORME
        25 000427   000000 011000                    NOP     0

      343    11658
      344    11659                  %RESERVE_ILL (ITEM = %INITV, POINTER = ILL$) ;

  11661 25 000430   000121 235000 xsym               LDA     ILL_STEP+81
        25 000431   000000 755000 0                  STA     ITERATION

  11662 25 000432   000002 236000 6                  LDQ     ILL_+2
        25 000433   000000 036000 0                  ADLQ    ITERATION
        25 000434   000003 116000 6                  CMPQ    ILL_+3
        25 000435   000446 604000 25                 TMI     s:11664

  11663 25 000436   000014 236000 26                 LDQ     12
        25 000437   200062 756100                    STQ     CHAR12+4,,AUTO
        25 000440   200062 630500                    EPPR0   CHAR12+4,,AUTO
        25 000441   200063 450500                    STP0    CHAR12+5,,AUTO
        25 000442   200063 630500                    EPPR0   CHAR12+5,,AUTO
        25 000443   000002 631400 26                 EPPR1   2
PL6.E3A0      #001=Z8GO$GLOBAL_OPTIMIZER File=Z8GO.:Z8A6TSI                      TUE 08/26/97 07:51 Page:77
        25 000444   000000 701000 xent               TSX1    Z8AR$RESERVER
        25 000445   000000 011000                    NOP     0

  11664 25 000446   000002 236000 6                  LDQ     ILL_+2
        25 000447   000022 736000                    QLS     18
        25 000450   000001 036000 6                  ADLQ    ILL_+1
        25 000451   000000 756000 5                  STQ     ILL$

  11665 25 000452   000002 236000 6                  LDQ     ILL_+2
        25 000453   000000 036000 0                  ADLQ    ITERATION
        25 000454   000002 756000 6                  STQ     ILL_+2

  11666 25 000455   000347 220003                    LDX0    231,DU
        25 000456   000000 470400 5                  LDP0    ILL$
        25 000457   000000 740100                    STX0    0,,PR0

      345    11669    6             ILL$ -> ILL.LOP = INIT$ ;

  11669 25 000460   200021 236100                    LDQ     INIT$,,AUTO
        25 000461   000000 470400 5                  LDP0    ILL$
        25 000462   000001 756100                    STQ     1,,PR0

      346    11670    6             ILL$ -> ILL.ROP = GST$ -> GST.ROP_OF_SSOP ;

  11670 25 000463   000000 471400 15                 LDP1    GST$
        25 000464   100001 236100                    LDQ     1,,PR1
        25 000465   000002 756100                    STQ     2,,PR0

      347    11671
      348    11672                  /* Link the INITV at the LINOI previous to the DO5 */
      349    11673
      350    11674    6             OPN$ = ILS$ -> ILS.NEXT ;

  11674 25 000466   000000 473400 1                  LDP3    ILS$
        25 000467   300002 236100                    LDQ     2,,PR3
        25 000470   200027 756100                    STQ     OPN$,,AUTO

PL6.E3A0      #001=Z8GO$GLOBAL_OPTIMIZER File=Z8GO.:Z8A6TSI                      TUE 08/26/97 07:51 Page:78
      351    11675    6             ILL$ -> ILL.ILL$ = OPN$ -> ILS.ILL$ ;

  11675 25 000471   200027 474500                    LDP4    OPN$,,AUTO
        25 000472   400003 236100                    LDQ     3,,PR4
        25 000473   000003 756100                    STQ     3,,PR0

      352    11676    6             OPN$ -> ILS.ILL$ = ILL$ ;

  11676 25 000474   000000 236000 5                  LDQ     ILL$
        25 000475   400003 756100                    STQ     3,,PR4

      353    11677
      354    11678                  %RESERVE_ILL (ITEM = %INCRV, POINTER = INCRV$) ;

  11680 25 000476   000122 235000 xsym               LDA     ILL_STEP+82
        25 000477   000000 755000 0                  STA     ITERATION

  11681 25 000500   000002 236000 6                  LDQ     ILL_+2
        25 000501   000000 036000 0                  ADLQ    ITERATION
        25 000502   000003 116000 6                  CMPQ    ILL_+3
        25 000503   000514 604000 25                 TMI     s:11683

  11682 25 000504   000014 236000 26                 LDQ     12
        25 000505   200062 756100                    STQ     CHAR12+4,,AUTO
        25 000506   200062 635500                    EPPR5   CHAR12+4,,AUTO
        25 000507   200063 455500                    STP5    CHAR12+5,,AUTO
        25 000510   200063 630500                    EPPR0   CHAR12+5,,AUTO
        25 000511   000002 631400 26                 EPPR1   2
        25 000512   000000 701000 xent               TSX1    Z8AR$RESERVER
        25 000513   000000 011000                    NOP     0

  11683 25 000514   000002 236000 6                  LDQ     ILL_+2
        25 000515   000022 736000                    QLS     18
        25 000516   000001 036000 6                  ADLQ    ILL_+1
        25 000517   200020 756100                    STQ     INCRV$,,AUTO

  11684 25 000520   000002 236000 6                  LDQ     ILL_+2
PL6.E3A0      #001=Z8GO$GLOBAL_OPTIMIZER File=Z8GO.:Z8A6TSI                      TUE 08/26/97 07:51 Page:79
        25 000521   000000 036000 0                  ADLQ    ITERATION
        25 000522   000002 756000 6                  STQ     ILL_+2

  11685 25 000523   000350 220003                    LDX0    232,DU
        25 000524   200020 470500                    LDP0    INCRV$,,AUTO
        25 000525   000000 740100                    STX0    0,,PR0

      355    11688    6             INCRV$ -> ILL.LOP = INCR$ ;

  11688 25 000526   200016 236100                    LDQ     INCR$,,AUTO
        25 000527   000001 756100                    STQ     1,,PR0

      356    11689    6             INCRV$ -> ILL.ROP = GST$ -> GST.ROP_OF_SSOP ;

  11689 25 000530   000000 471400 15                 LDP1    GST$
        25 000531   100001 236100                    LDQ     1,,PR1
        25 000532   000002 756100                    STQ     2,,PR0

      357    11690
      358    11691                  /* Link the INCRV at a LINOI before the DOEND */
      359    11692
      360    11693    6             OPN$ = O3COM.INCRV_ILS$ ;

  11693 25 000533   000064 236000 21                 LDQ     O3COM+52
        25 000534   200027 756100                    STQ     OPN$,,AUTO

      361    11694    6             INCRV$ -> ILL.ILL$ = OPN$ -> ILS.ILL$ ;

  11694 25 000535   200027 473500                    LDP3    OPN$,,AUTO
        25 000536   300003 236100                    LDQ     3,,PR3
        25 000537   000003 756100                    STQ     3,,PR0

      362    11695    6             OPN$ -> ILS.ILL$ = INCRV$ ;

  11695 25 000540   200020 236100                    LDQ     INCRV$,,AUTO
        25 000541   300003 756100                    STQ     3,,PR3

PL6.E3A0      #001=Z8GO$GLOBAL_OPTIMIZER File=Z8GO.:Z8A6TSI                      TUE 08/26/97 07:51 Page:80
      363    11696
      364    11697                  /* Create EVALP for INCRV LOP */
      365    11698
      366    11699                  %INCR_COUNT (OP = LOP, BIT = ARITH, ITEM$ = INCRV$,
      367    11700                               COMPUTE_SEQ_ALREADY_COMPUTED = '0'B) ;

  11704 25 000542   000000 221100                    LDX1    0,,PR0
        25 000543   000007 101003                    CMPX1   7,DU
        25 000544   000574 600000 25                 TZE     s:11741
        25 000545   000171 101003                    CMPX1   121,DU
        25 000546   000574 600000 25                 TZE     s:11741
        25 000547   000003 101003                    CMPX1   3,DU
        25 000550   000574 600000 25                 TZE     s:11741
        25 000551   000161 101003                    CMPX1   113,DU
        25 000552   000574 600000 25                 TZE     s:11741
        25 000553   000162 101003                    CMPX1   114,DU
        25 000554   000574 600000 25                 TZE     s:11741
        25 000555   000121 101003                    CMPX1   81,DU
        25 000556   000574 600000 25                 TZE     s:11741
        25 000557   000122 101003                    CMPX1   82,DU
        25 000560   000574 600000 25                 TZE     s:11741
        25 000561   000175 101003                    CMPX1   125,DU
        25 000562   000574 600000 25                 TZE     s:11741
        25 000563   000314 235000 xsym               LDA     COMCOM+204
        25 000564   000002 115007                    CMPA    2,DL
        25 000565   000574 605000 25                 TPL     s:11741

  11713 25 000566   000001 036003                    ADLQ    1,DU
        25 000567   200062 756100                    STQ     CHAR12+4,,AUTO
        25 000570   200062 630500                    EPPR0   CHAR12+4,,AUTO
        25 000571   000002 631400 26                 EPPR1   2
        25 000572   000000 701000 xent               TSX1    Z8GO$CHECK_OP
        25 000573   000000 011000                    NOP     0

  11741 25 000574   200020 470500                    LDP0    INCRV$,,AUTO
        25 000575   000001 471500                    LDP1    1,,PR0
        25 000576   100003 236100                    LDQ     3,,PR1
PL6.E3A0      #001=Z8GO$GLOBAL_OPTIMIZER File=Z8GO.:Z8A6TSI                      TUE 08/26/97 07:51 Page:81
        25 000577   000000 116000 26                 CMPQ    0
        25 000600   000614 600000 25                 TZE     s:11746
        25 000601   100003 473500                    LDP3    3,,PR1
        25 000602   300000 220100                    LDX0    0,,PR3
        25 000603   000341 100003                    CMPX0   225,DU
        25 000604   000614 601000 25                 TNZ     s:11746
        25 000605   300004 236100                    LDQ     4,,PR3
        25 000606   000001 116100                    CMPQ    1,,PR0
        25 000607   000614 601000 25                 TNZ     s:11746
        25 000610   100004 236100                    LDQ     4,,PR1
        25 000611   000022 772000                    QRL     18
        25 000612   000000 116000 21                 CMPQ    O3COM
        25 000613   000653 604000 25                 TMI     s:11756

  11746 25 000614   200020 236100                    LDQ     INCRV$,,AUTO
        25 000615   000001 036003                    ADLQ    1,DU
        25 000616   200062 756100                    STQ     CHAR12+4,,AUTO
        25 000617   200062 630500                    EPPR0   CHAR12+4,,AUTO
        25 000620   000002 631400 26                 EPPR1   2
        25 000621   000000 701000 xent               TSX1    Z8GS$SCAN_MAX
        25 000622   000000 011000                    NOP     0

  11748 25 000623   200020 236100                    LDQ     INCRV$,,AUTO
        25 000624   000001 036003                    ADLQ    1,DU
        25 000625   200062 756100                    STQ     CHAR12+4,,AUTO
        25 000626   200062 630500                    EPPR0   CHAR12+4,,AUTO
        25 000627   000002 631400 26                 EPPR1   2
        25 000630   000000 701000 xent               TSX1    Z8GI$INSERT_EVALP
        25 000631   000000 011000                    NOP     0

  11749 25 000632   200020 470500                    LDP0    INCRV$,,AUTO
        25 000633   000001 471500                    LDP1    1,,PR0
        25 000634   100003 236100                    LDQ     3,,PR1
        25 000635   000000 116000 26                 CMPQ    0
        25 000636   000643 600000 25                 TZE     s:11751
        25 000637   100003 473500                    LDP3    3,,PR1
        25 000640   300000 220100                    LDX0    0,,PR3
PL6.E3A0      #001=Z8GO$GLOBAL_OPTIMIZER File=Z8GO.:Z8A6TSI                      TUE 08/26/97 07:51 Page:82
        25 000641   000341 100003                    CMPX0   225,DU
        25 000642   000674 600000 25                 TZE     s:11762

  11751 25 000643   000060 234000 xsym               SZN     COMCOM+48
        25 000644   000674 605000 25                 TPL     s:11762

  11752 25 000645   200020 236100                    LDQ     INCRV$,,AUTO
        25 000646   000001 036003                    ADLQ    1,DU
        25 000647   200055 756100                    STQ     BASE_ST$$+2,,AUTO
        25 000650   007117 701000 25                 TSX1    OPTIMIZER_ALERT
        25 000651   000000 011000                    NOP     0

  11754 25 000652   000674 710000 25                 TRA     s:11762

  11756 25 000653   100003 236100                    LDQ     3,,PR1
        25 000654   000000 756000 5                  STQ     ILL$

  11757 25 000655   000000 474400 5                  LDP4    ILL$
        25 000656   400000 720100                    LXL0    0,,PR4
        25 000657   000001 621010                    EAX1    1,X0
        25 000660   400000 441100                    SXL1    0,,PR4

  11758 25 000661   000000 720000 21                 LXL0    O3COM
        25 000662   000000 471400 5                  LDP1    ILL$
        25 000663   100005 740100                    STX0    5,,PR1

  11759 25 000664   100001 236100                    LDQ     1,,PR1
        25 000665   000022 732000                    QRS     18
        25 000666   000671 604000 25                 TMI     s:11759+5
        25 000667   000011 116000 21                 CMPQ    O3COM+9
        25 000670   000672 603000 25                 TRC     s:11759+6
        25 000671   000011 236000 21                 LDQ     O3COM+9
        25 000672   000000 621006                    EAX1    0,QL
        25 000673   100001 741100                    STX1    1,,PR1

  11762 25 000674   200020 470500                    LDP0    INCRV$,,AUTO
        25 000675   000001 471500                    LDP1    1,,PR0
PL6.E3A0      #001=Z8GO$GLOBAL_OPTIMIZER File=Z8GO.:Z8A6TSI                      TUE 08/26/97 07:51 Page:83
        25 000676   100003 473500                    LDP3    3,,PR1
        25 000677   000002 236007                    LDQ     2,DL
        25 000700   300002 256100                    ORSQ    2,,PR3

      368    11765
      369    11766    6             GST$ = GST$ -> GST.NEXT ;

  11766 25 000701   000000 471400 15                 LDP1    GST$
        25 000702   100002 236100                    LDQ     2,,PR1
        25 000703   000000 756000 15                 STQ     GST$

      370    11767    6             O3COM.GSA_COUNT = O3COM.GSA_COUNT - 1 ;

  11767 25 000704   000001 336007                    LCQ     1,DL
        25 000705   000061 056000 21                 ASQ     O3COM+49

      371    11768
      372    11769    6           END /* Do While GSA_COUNT > 0 */ ;

  11769 25 000706   000366 605400 25                 TPNZ    s:11651

      373    11770
      374    11771    5           O3COM.GSA$ = ADDR(NIL) ;

  11771 25 000707   000000 236000 26                 LDQ     0
        25 000710   000060 756000 21                 STQ     O3COM+48

      375    11772    5           O3COM.VARYING$ = ADDR(NIL) ;

  11772 25 000711   000055 756000 21                 STQ     O3COM+45

      376    11773    5           O3COM.GSA_COUNT = 0 ;

  11773 25 000712   000061 450000 21                 STZ     O3COM+49

      377    11774
      378    11775    5         END /* If Then Do */ ;
PL6.E3A0      #001=Z8GO$GLOBAL_OPTIMIZER File=Z8GO.:Z8A6TSI                      TUE 08/26/97 07:51 Page:84

      379    11776
      380    11777              /* DO# = Seq# of next DOn (DO Begin) item */
      381    11778
      382    11779    4         O3COM.DO_ILS$ = ILL_ETT$ -> DO_N.ITO ;

  11779 25 000713   200015 470500                    LDP0    ILL_ETT$,,AUTO
        25 000714   000004 236100                    LDQ     4,,PR0
        25 000715   000065 756000 21                 STQ     O3COM+53

      383    11780    4         IF O3COM.DO_ILS$ = ADDR(NIL)    THEN

  11780 25 000716   000000 116000 26                 CMPQ    0
        25 000717   000722 601000 25                 TNZ     s:11784

      384    11781    4           O3COM.DO# = 0 ;        /*   No Outer DO   */

  11781 25 000720   000004 450000 21                 STZ     O3COM+4
        25 000721   000733 710000 25                 TRA     s:11787

      385    11782    4         ELSE
      386    11783    5           DO;                    /*  Update DO# and DOEND#  */

      387    11784    5             O3COM.DO# = O3COM.DO_ILS$ -> ILS.SEQNO ;

  11784 25 000722   000065 471400 21                 LDP1    O3COM+53
        25 000723   100000 236100                    LDQ     0,,PR1
        25 000724   777777 376007                    ANQ     -1,DL
        25 000725   000004 756000 21                 STQ     O3COM+4

      388    11785    5             O3COM.DOEND# = O3COM.DO_ILS$ -> ILS.ILL$ -> DO_N.ITE -> ILS.SEQNO;

  11785 25 000726   100003 473500                    LDP3    3,,PR1
        25 000727   300001 474500                    LDP4    1,,PR3
        25 000730   400000 236100                    LDQ     0,,PR4
        25 000731   777777 376007                    ANQ     -1,DL
        25 000732   000005 756000 21                 STQ     O3COM+5
PL6.E3A0      #001=Z8GO$GLOBAL_OPTIMIZER File=Z8GO.:Z8A6TSI                      TUE 08/26/97 07:51 Page:85

      389    11786    5           END ;

      390    11787    4         O3COM.LOOP_LEVEL = O3COM.LOOP_LEVEL - 1 ;

  11787 25 000733   000011 235000 21                 LDA     O3COM+9
        25 000734   000001 135007                    SBLA    1,DL
        25 000735   000011 755000 21                 STA     O3COM+9
        25 000736   001104 710000 25                 TRA     s:11883

      391    11788        %EJECT;
PL6.E3A0      #001=Z8GO$GLOBAL_OPTIMIZER File=Z8GO.:Z8A6TSI                      TUE 08/26/97 07:51 Page:86
      392    11789          /*V* VAL_and_VAL_END -- these items are created by the
      393    11790               front-end for multiple receiving moves, adds, etc.
      394    11791               The reason for the special treatment is due to
      395    11792               a desire to obey the rules of Cobol, yet maintain a
      396    11793               reasonable level of efficiency.  As an example,
      397    11794               consider the following:
      398    11795
      399    11796          MOVE A (I) TO B (I), I, A (I).
      400    11797
      401    11798               Cobol says that this is equivalent to:
      402    11799
      403    11800          MOVE A (I) TO temp.
      404    11801          MOVE temp TO B (I).
      405    11802          MOVE temp TO I.
      406    11803          MOVE temp TO A (I).
      407    11804
      408    11805               99% of the time, a multiple receiving move can be done
      409    11806               without the use of a temp; but we still have handle the
      410    11807               1% of the time when the sending field is redefined by
      411    11808               one of the receiving fields, or the sending field's
      412    11809               subscripts or size-expressions are redefined by one
      413    11810               of the receiving fields.
      414    11811
      415    11812               When Phase 3 finds a VAL_END on the ILS/ILL, it will
      416    11813               check the redefinitions of VAL.ETT$.  If there exists
      417    11814               a redefinition between the VAL and the VAL_END, then
      418    11815               Phase 3 will put out a special CCOSU (B.VAL_FREEZE = '1'B).
      419    11816          */
      420    11817
      421    11818    4     CASE (%VAL_END) ;          /*    Multiple receiving fields     */

      422    11819
      423    11820    4       VAL_ILS$ = ILL_ETT$ -> VAL_END.VAL$ ;

  11820 25 000737   000001 236100                    LDQ     1,,PR0
        25 000740   200040 756100                    STQ     VAL_ILS$,,AUTO

PL6.E3A0      #001=Z8GO$GLOBAL_OPTIMIZER File=Z8GO.:Z8A6TSI                      TUE 08/26/97 07:51 Page:87
      424    11821    4       VAL_END_SEQ# = O3COM.CURRENT_SEQ_NO ;

  11821 25 000741   000000 235000 21                 LDA     O3COM
        25 000742   200037 755100                    STA     VAL_END_SEQ#,,AUTO

      425    11822    4       VAL_ILL$ = VAL_ILS$ -> ILS.ILL$ ;

  11822 25 000743   200040 471500                    LDP1    VAL_ILS$,,AUTO
        25 000744   100003 236100                    LDQ     3,,PR1
        25 000745   200041 756100                    STQ     VAL_ILL$,,AUTO

      426    11823                                                         /*#28761*/
      427    11824    5       DO WHILE (VAL_ILL$ -> ILL.ID = %EVALP) ;

  11824 25 000746   200041 473500                    LDP3    VAL_ILL$,,AUTO
        25 000747   300000 220100                    LDX0    0,,PR3
        25 000750   000341 100003                    CMPX0   225,DU
        25 000751   000761 601000 25                 TNZ     s:11828

      428    11825    5         VAL_ILL$ = VAL_ILL$ -> CCOSU.ILL$ ;

  11825 25 000752   200041 470500                    LDP0    VAL_ILL$,,AUTO
        25 000753   000003 236100                    LDQ     3,,PR0
        25 000754   200041 756100                    STQ     VAL_ILL$,,AUTO

      429    11826    5       END ;

  11826 25 000755   200041 470500                    LDP0    VAL_ILL$,,AUTO
        25 000756   000000 220100                    LDX0    0,,PR0
        25 000757   000341 100003                    CMPX0   225,DU
        25 000760   000752 600000 25                 TZE     s:11825

      430    11827
      431    11828    4     VAL_ETT$ = VAL_ILL$ -> VAL.ETT$ ;

  11828 25 000761   200041 470500                    LDP0    VAL_ILL$,,AUTO
        25 000762   000001 236100                    LDQ     1,,PR0
PL6.E3A0      #001=Z8GO$GLOBAL_OPTIMIZER File=Z8GO.:Z8A6TSI                      TUE 08/26/97 07:51 Page:88
        25 000763   200042 756100                    STQ     VAL_ETT$,,AUTO

      432    11829
      433    11830          /* VAL_SEQ# = Seq# of innermost VAL item. */
      434    11831
      435    11832    4     VAL_END_ILL$ = ILL_ETT$ ;

  11832 25 000764   200015 236100                    LDQ     ILL_ETT$,,AUTO
        25 000765   200044 756100                    STQ     VAL_END_ILL$,,AUTO

      436    11833    4     VAL_END_ILS$ = ILS$ ;

  11833 25 000766   000000 236000 1                  LDQ     ILS$
        25 000767   200043 756100                    STQ     VAL_END_ILS$,,AUTO

      437    11834
      438    11835    5     DO WHILE (VAL_END_ILL$ -> ILL.ID = %VAL_END) ;

  11835 25 000770   200044 471500                    LDP1    VAL_END_ILL$,,AUTO
        25 000771   100000 220100                    LDX0    0,,PR1
        25 000772   000370 100003                    CMPX0   248,DU
        25 000773   001011 601000 25                 TNZ     s:11841

      439    11836    5       VAL_ILS$ = VAL_END_ILL$ -> VAL_END.VAL$ ;

  11836 25 000774   200044 470500                    LDP0    VAL_END_ILL$,,AUTO
        25 000775   000001 236100                    LDQ     1,,PR0
        25 000776   200040 756100                    STQ     VAL_ILS$,,AUTO

      440    11837    5       VAL_END_ILS$ = VAL_END_ILS$ -> ILS.NEXT ;

  11837 25 000777   200043 471500                    LDP1    VAL_END_ILS$,,AUTO
        25 001000   100002 236100                    LDQ     2,,PR1
        25 001001   200043 756100                    STQ     VAL_END_ILS$,,AUTO

      441    11838    5       VAL_END_ILL$ = VAL_END_ILS$ -> ILS.ILL$ ;

PL6.E3A0      #001=Z8GO$GLOBAL_OPTIMIZER File=Z8GO.:Z8A6TSI                      TUE 08/26/97 07:51 Page:89
  11838 25 001002   200043 471500                    LDP1    VAL_END_ILS$,,AUTO
        25 001003   100003 236100                    LDQ     3,,PR1
        25 001004   200044 756100                    STQ     VAL_END_ILL$,,AUTO

      442    11839    5     END ; /* Do While */

  11839 25 001005   200044 470500                    LDP0    VAL_END_ILL$,,AUTO
        25 001006   000000 220100                    LDX0    0,,PR0
        25 001007   000370 100003                    CMPX0   248,DU
        25 001010   000774 600000 25                 TZE     s:11836

      443    11840
      444    11841    4     VAL_SEQ# = VAL_ILS$ -> ILS.SEQNO ;

  11841 25 001011   200040 470500                    LDP0    VAL_ILS$,,AUTO
        25 001012   000000 236100                    LDQ     0,,PR0
        25 001013   777777 376007                    ANQ     -1,DL
        25 001014   200036 756100                    STQ     VAL_SEQ#,,AUTO

      445    11842
      446    11843          /* Evaluate next redefinition if not already done. */
      447    11844
      448    11845    4     IF VAL_ETT$ -> ETT.EVALP$ = ADDR(NIL)

  11845 25 001015   200042 471500                    LDP1    VAL_ETT$,,AUTO
        25 001016   100003 236100                    LDQ     3,,PR1
        25 001017   000000 116000 26                 CMPQ    0
        25 001020   001031 600000 25                 TZE     s:11848
        25 001021   100003 473500                    LDP3    3,,PR1
        25 001022   300000 220100                    LDX0    0,,PR3
        25 001023   000341 100003                    CMPX0   225,DU
        25 001024   001031 601000 25                 TNZ     s:11848
        25 001025   100004 236100                    LDQ     4,,PR1
        25 001026   000022 772000                    QRL     18
        25 001027   000000 116000 21                 CMPQ    O3COM
        25 001030   001037 604000 25                 TMI     s:11850

PL6.E3A0      #001=Z8GO$GLOBAL_OPTIMIZER File=Z8GO.:Z8A6TSI                      TUE 08/26/97 07:51 Page:90
      449    11846    4           OR VAL_ETT$ -> ETT.EVALP$ -> ILL.ID ~= %EVALP
      450    11847    4           OR VAL_ETT$ -> ETT.CMP_SC >= O3COM.CURRENT_SEQ_NO     THEN
      451    11848    4       CALL Z8GS$SCAN_MAX (VAL_ETT$) ;

  11848 25 001031   200042 633500                    EPPR3   VAL_ETT$,,AUTO
        25 001032   200062 453500                    STP3    CHAR12+4,,AUTO
        25 001033   200062 630500                    EPPR0   CHAR12+4,,AUTO
        25 001034   000002 631400 26                 EPPR1   2
        25 001035   000000 701000 xent               TSX1    Z8GS$SCAN_MAX
        25 001036   000000 011000                    NOP     0

      452    11849
      453    11850    4     IF VAL_ETT$ -> ETT.CMP_SC < VAL_SEQ#      THEN

  11850 25 001037   200042 470500                    LDP0    VAL_ETT$,,AUTO
        25 001040   000004 236100                    LDQ     4,,PR0
        25 001041   000022 772000                    QRL     18
        25 001042   200036 116100                    CMPQ    VAL_SEQ#,,AUTO
        25 001043   001052 605000 25                 TPL     s:11864

      454    11851    5       DO;

      455    11852                 /* No redefinitions between VAL and VAL_END. */
      456    11853                 /* Link out VAL_END item from ILS.           */
      457    11854
      458    11855    5         VAL_SEQ# = %MAX_SEQ# ;

  11855 25 001044   777777 235007                    LDA     -1,DL
        25 001045   200036 755100                    STA     VAL_SEQ#,,AUTO

      459    11856    5         ILS$ = ILS$ -> ILS.NEXT ;

  11856 25 001046   000000 471400 1                  LDP1    ILS$
        25 001047   100002 236100                    LDQ     2,,PR1
        25 001050   000000 756000 1                  STQ     ILS$

      460    11857    5         GOTO DO_WHILE_ILS$_NON_NIL ;
PL6.E3A0      #001=Z8GO$GLOBAL_OPTIMIZER File=Z8GO.:Z8A6TSI                      TUE 08/26/97 07:51 Page:91

  11857 25 001051   006677 710000 25                 TRA     DO_WHILE_ILS$_NON_NIL

      461    11858
      462    11859    5       END ; /* If Then Do */
      463    11860    4     ELSE
      464    11861
      465    11862    5       DO;   /*   There is a redefinition between VAL & VAL_END   */

      466    11863
      467    11864    5         VAL_ETT$ -> ETT.CMP_SC = VAL_SEQ# ;

  11864 25 001052   200036 720100                    LXL0    VAL_SEQ#,,AUTO
        25 001053   000004 740100                    STX0    4,,PR0

      468    11865    5         CALL Z8GI$INSERT_EVALP (VAL_ETT$) ;

  11865 25 001054   200042 630500                    EPPR0   VAL_ETT$,,AUTO
        25 001055   200062 450500                    STP0    CHAR12+4,,AUTO
        25 001056   200062 630500                    EPPR0   CHAR12+4,,AUTO
        25 001057   000002 631400 26                 EPPR1   2
        25 001060   000000 701000 xent               TSX1    Z8GI$INSERT_EVALP
        25 001061   000000 011000                    NOP     0

      469    11866    5         VAL_ETT$ -> ETT.EVALP$ -> CCOSU.B.VAL_FREEZE = '1'B ;

  11866 25 001062   200042 470500                    LDP0    VAL_ETT$,,AUTO
        25 001063   000003 471500                    LDP1    3,,PR0
        25 001064   010000 236003                    LDQ     4096,DU
        25 001065   100002 256100                    ORSQ    2,,PR1

      470    11867    5         VAL_ETT$ -> ETT.EVALP$ -> CCOSU.CNTE = 0 ;

  11867 25 001066   200042 470500                    LDP0    VAL_ETT$,,AUTO
        25 001067   000003 471500                    LDP1    3,,PR0
        25 001070   000000 220003                    LDX0    0,DU
        25 001071   100000 440100                    SXL0    0,,PR1
PL6.E3A0      #001=Z8GO$GLOBAL_OPTIMIZER File=Z8GO.:Z8A6TSI                      TUE 08/26/97 07:51 Page:92

      471    11868    5         ILS$ = ILS$ -> ILS.NEXT ;

  11868 25 001072   000000 470400 1                  LDP0    ILS$
        25 001073   000002 236100                    LDQ     2,,PR0
        25 001074   000000 756000 1                  STQ     ILS$

      472    11869    5         GOTO DO_WHILE_ILS$_NON_NIL ;

  11869 25 001075   006677 710000 25                 TRA     DO_WHILE_ILS$_NON_NIL

      473    11870
      474    11871    5       END ; /* Else Do */
      475    11872        %EJECT;
PL6.E3A0      #001=Z8GO$GLOBAL_OPTIMIZER File=Z8GO.:Z8A6TSI                      TUE 08/26/97 07:51 Page:93
      476    11873    4     CASE (%VAL) ;              /* De-link VAL from ILL/ILS         */

      477    11874
      478    11875    4       VAL_SEQ# = %MAX_SEQ# ;

  11875 25 001076   777777 235007                    LDA     -1,DL
        25 001077   200036 755100                    STA     VAL_SEQ#,,AUTO

      479    11876    4       ILS$ = ILS$ -> ILS.NEXT ;

  11876 25 001100   000000 471400 1                  LDP1    ILS$
        25 001101   100002 236100                    LDQ     2,,PR1
        25 001102   000000 756000 1                  STQ     ILS$

      480    11877    4       GOTO DO_WHILE_ILS$_NON_NIL ;

  11877 25 001103   006677 710000 25                 TRA     DO_WHILE_ILS$_NON_NIL

      481    11878        %EJECT;
PL6.E3A0      #001=Z8GO$GLOBAL_OPTIMIZER File=Z8GO.:Z8A6TSI                      TUE 08/26/97 07:51 Page:94
      482    11879    4          END /* Case of ILL ID */ ;

      483    11880
      484    11881               /* Update next ENTRY pointer */
      485    11882
      486    11883    3          IF COMCOM.H_ENTRY$ = ILS$     THEN

  11883 25 001104   000423 236000 xsym               LDQ     COMCOM+275
        25 001105   000000 116000 1                  CMPQ    ILS$
        25 001106   001113 601000 25                 TNZ     s:11889

      487    11884    3           COMCOM.H_ENTRY$ = COMCOM.H_ENTRY$ -> ILS.ILL$ -> ENTRY_ILL.PREV_ENTRY_ILS$;

  11884 25 001107   000423 470400 xsym               LDP0    COMCOM+275
        25 001110   000003 471500                    LDP1    3,,PR0
        25 001111   100003 236100                    LDQ     3,,PR1
        25 001112   000423 756000 xsym               STQ     COMCOM+275

      488    11885
      489    11886
      490    11887               /*V* Update ptr to next referenced label definition. */
      491    11888
      492    11889    4          IF O3COM.LBL = ILS$        THEN DO ;

  11889 25 001113   000003 236000 21                 LDQ     O3COM+3
        25 001114   000000 116000 1                  CMPQ    ILS$
        25 001115   001141 601000 25                 TNZ     EXIT_LOOP

      493    11890    5            DO WHILE ( '1'B );

      494    11891    5              O3COM.LBL = O3COM.LBL->ILS.ILL$ -> ILL.LBL ;

  11891 25 001116   000003 470400 21                 LDP0    O3COM+3
        25 001117   000003 471500                    LDP1    3,,PR0
        25 001120   100002 236100                    LDQ     2,,PR1
        25 001121   000003 756000 21                 STQ     O3COM+3

PL6.E3A0      #001=Z8GO$GLOBAL_OPTIMIZER File=Z8GO.:Z8A6TSI                      TUE 08/26/97 07:51 Page:95
      495    11892
      496    11893                   /* Reverse the LBL link for Phase 4 */
      497    11894    5              ILS$ -> ILS.ILL$ -> ILL.LBL = PREV_LBL$ ;

  11894 25 001122   000000 470400 1                  LDP0    ILS$
        25 001123   000003 471500                    LDP1    3,,PR0
        25 001124   200033 236100                    LDQ     PREV_LBL$,,AUTO
        25 001125   100002 756100                    STQ     2,,PR1

      498    11895    5              PREV_LBL$ = ILS$ ;

  11895 25 001126   000000 236000 1                  LDQ     ILS$
        25 001127   200033 756100                    STQ     PREV_LBL$,,AUTO

      499    11896
      500    11897    5              IF O3COM.LBL = ADDR(NIL) THEN GOTO EXIT_LOOP;

  11897 25 001130   000003 236000 21                 LDQ     O3COM+3
        25 001131   000000 116000 26                 CMPQ    0
        25 001132   001141 600000 25                 TZE     EXIT_LOOP

      501    11898    5              IF O3COM.LBL -> ILS.ILL$ -> ILL.LOP -> VARIABLE.B.REFERENCED

  11898 25 001133   000003 471400 21                 LDP1    O3COM+3
        25 001134   100003 473500                    LDP3    3,,PR1
        25 001135   300001 474500                    LDP4    1,,PR3
        25 001136   400003 234100                    SZN     3,,PR4
        25 001137   001141 604000 25                 TMI     EXIT_LOOP

      502    11899    5              THEN GOTO EXIT_LOOP ;
      503    11900    5            END ;

  11900 25 001140   001116 710000 25                 TRA     s:11891

  11895 25 001141                       EXIT_LOOP    null
      504    11901    4   EXIT_LOOP: ;
      505    11902    4          END ;
PL6.E3A0      #001=Z8GO$GLOBAL_OPTIMIZER File=Z8GO.:Z8A6TSI                      TUE 08/26/97 07:51 Page:96

      506    11903        %EJECT;
PL6.E3A0      #001=Z8GO$GLOBAL_OPTIMIZER File=Z8GO.:Z8A6TSI                      TUE 08/26/97 07:51 Page:97
      507    11904        /*V* Update FDPs (Forward Definition Points) and BDPs.
      508    11905             (FDP = ST.SEQ#.FD, BDP = ST.SEQ#.BD)                   */
      509    11906
      510    11907    4   DO CASE (ILS$ -> ILS.ID) ;

  11907 25 001141   000000 470400 1                  LDP0    ILS$
        25 001142   000000 236100                    LDQ     0,,PR0
        25 001143   000022 772000                    QRL     18
        25 001144   000741 136007                    SBLQ    481,DL
        25 001145   000002 116007                    CMPQ    2,DL
        25 001146   001150 602006 25                 TNC     EXIT_LOOP+7,QL
        25 001147   001213 710000 25                 TRA     s:11940
        25 001150   001152 710000 25                 TRA     s:11911
        25 001151   001164 710000 25                 TRA     s:11917

      511    11908
      512    11909    4     CASE (%OPV) ; /* Single Redefinition */

      513    11910
      514    11911    4       ST$ = ILS$ -> ILS.DNAME ;

  11911 25 001152   000004 236100                    LDQ     4,,PR0
        25 001153   000000 756000 11                 STQ     ST$

      515    11912    4       DUMMY_DPI$ -> DPI.RDEF = ILS$ -> ILS.RDEF;

  11912 25 001154   000001 720100                    LXL0    1,,PR0
        25 001155   200007 471500                    LDP1    DUMMY_DPI$,,AUTO
        25 001156   100000 440100                    SXL0    0,,PR1

      516    11913    4       CALL UPDATE_FDPS_BDPS (DUMMY_DPI$);

  11913 25 001157   200007 630500                    EPPR0   DUMMY_DPI$,,AUTO
        25 001160   200047 450500                    STP0    VAL_END_ILL$+3,,AUTO
        25 001161   007066 701000 25                 TSX1    UPDATE_FDPS_BDPS
        25 001162   000000 011000                    NOP     0
        25 001163   001213 710000 25                 TRA     s:11940
PL6.E3A0      #001=Z8GO$GLOBAL_OPTIMIZER File=Z8GO.:Z8A6TSI                      TUE 08/26/97 07:51 Page:98

      517    11914
      518    11915    4     CASE (%OPA) ; /* Multiple Redefinitions */

      519    11916
      520    11917    4       DPI$$ = ILS$ -> ILS.DEF ;

  11917 25 001164   000004 236100                    LDQ     4,,PR0
        25 001165   200006 756100                    STQ     DPI$$,,AUTO

      521    11918
      522    11919    5       DO WHILE (DPI$$ ~= ADDR(NIL)) ;

  11919 25 001166   001201 710000 25                 TRA     s:11926

      523    11920
      524    11921    5         ST$ = DPI$$ -> DPI.DNAME ;

  11921 25 001167   200006 470500                    LDP0    DPI$$,,AUTO
        25 001170   000001 236100                    LDQ     1,,PR0
        25 001171   000000 756000 11                 STQ     ST$

      525    11922    5         CALL UPDATE_FDPS_BDPS (DPI$$) ;

  11922 25 001172   200006 631500                    EPPR1   DPI$$,,AUTO
        25 001173   200047 451500                    STP1    VAL_END_ILL$+3,,AUTO
        25 001174   007066 701000 25                 TSX1    UPDATE_FDPS_BDPS
        25 001175   000000 011000                    NOP     0

      526    11923
      527    11924    5         DPI$$ = DPI$$ -> DPI.NEXT ;

  11924 25 001176   200006 470500                    LDP0    DPI$$,,AUTO
        25 001177   000002 236100                    LDQ     2,,PR0
        25 001200   200006 756100                    STQ     DPI$$,,AUTO

      528    11925
PL6.E3A0      #001=Z8GO$GLOBAL_OPTIMIZER File=Z8GO.:Z8A6TSI                      TUE 08/26/97 07:51 Page:99
      529    11926    5       END /* Do While */ ;

  11926 25 001201   000000 116000 26                 CMPQ    0
        25 001202   001167 601000 25                 TNZ     s:11921

      530    11927
      531    11928            /* Check for "Common" redefinition via CALL or PFORM */
      532    11929
      533    11930    5       IF ILS$ -> ILS.B.CDEF THEN DO ;

  11930 25 001203   000000 470400 1                  LDP0    ILS$
        25 001204   000001 234100                    SZN     1,,PR0
        25 001205   001213 605000 25                 TPL     s:11940

      534    11931    5         O3COM.LAST_OPA_REDEF = COMCOM.COMMON_REDEF ;

  11931 25 001206   000373 235000 xsym               LDA     COMCOM+251
        25 001207   000010 755000 21                 STA     O3COM+8

      535    11932    5         COMCOM.COMMON_REDEF = ILS$ -> ILS.RDEF ;

  11932 25 001210   000001 236100                    LDQ     1,,PR0
        25 001211   777777 376007                    ANQ     -1,DL
        25 001212   000373 756000 xsym               STQ     COMCOM+251

      536    11933    5       END ;

      537    11934
      538    11935    4   END /* Case of ILS.ID */ ;

      539    11936
      540    11937          %EJECT;
PL6.E3A0      #001=Z8GO$GLOBAL_OPTIMIZER File=Z8GO.:Z8A6TSI                      TUE 08/26/97 07:51 Page:100
      541    11938        /*V* Increment the count of the redefinition guy. */
      542    11939
      543    11940    4   DO CASE ( P3VEC (ILL_ETT$ -> ILL.ID) ) ;

  11940 25 001213   200015 470500                    LDP0    ILL_ETT$,,AUTO
        25 001214   000000 220100                    LDX0    0,,PR0
        25 001215   000000 235010 20                 LDA     P3VEC,X0
        25 001216   000017 115007                    CMPA    15,DL
        25 001217   001221 602005 25                 TNC     s:11940+6,AL
        25 001220   002132 710000 25                 TRA     s:12295
        25 001221   002132 710000 25                 TRA     s:12295
        25 001222   001366 710000 25                 TRA     s:12019
        25 001223   001366 710000 25                 TRA     s:12019
        25 001224   001526 710000 25                 TRA     s:12100
        25 001225   001652 710000 25                 TRA     s:12169
        25 001226   002132 710000 25                 TRA     s:12295
        25 001227   002132 710000 25                 TRA     s:12295
        25 001230   002132 710000 25                 TRA     s:12295
        25 001231   002132 710000 25                 TRA     s:12295
        25 001232   002132 710000 25                 TRA     s:12295
        25 001233   002132 710000 25                 TRA     s:12295
        25 001234   002132 710000 25                 TRA     s:12295
        25 001235   002132 710000 25                 TRA     s:12295
        25 001236   001240 710000 25                 TRA     s:11961
        25 001237   002126 710000 25                 TRA     s:12290

      544    11941
      545    11942    4     CASE (%ARGLIST_REDEF) ; /* ACCEPT */

      546    11943
      547    11944            %INCR_COUNT (OP = "ROP -> ARGLIST.ARG$(0)", BIT = ARITH,
      548    11945                         COMPUTE_SEQ_ALREADY_COMPUTED = '0'B) ;

  11961 25 001240   000121 100003                    CMPX0   81,DU
        25 001241   001256 600000 25                 TZE     s:11986
        25 001242   000255 100003                    CMPX0   173,DU
        25 001243   001256 600000 25                 TZE     s:11986
PL6.E3A0      #001=Z8GO$GLOBAL_OPTIMIZER File=Z8GO.:Z8A6TSI                      TUE 08/26/97 07:51 Page:101
        25 001244   000314 236000 xsym               LDQ     COMCOM+204
        25 001245   000002 116007                    CMPQ    2,DL
        25 001246   001256 605000 25                 TPL     s:11986

  11964 25 001247   000002 471500                    LDP1    2,,PR0
        25 001250   100001 633500                    EPPR3   1,,PR1
        25 001251   200062 453500                    STP3    CHAR12+4,,AUTO
        25 001252   200062 630500                    EPPR0   CHAR12+4,,AUTO
        25 001253   000002 631400 26                 EPPR1   2
        25 001254   000000 701000 xent               TSX1    Z8GO$CHECK_OP
        25 001255   000000 011000                    NOP     0

  11986 25 001256   200015 470500                    LDP0    ILL_ETT$,,AUTO
        25 001257   000002 471500                    LDP1    2,,PR0
        25 001260   100001 473500                    LDP3    1,,PR1
        25 001261   300003 236100                    LDQ     3,,PR3
        25 001262   000000 116000 26                 CMPQ    0
        25 001263   001277 600000 25                 TZE     s:11991
        25 001264   300003 474500                    LDP4    3,,PR3
        25 001265   400000 220100                    LDX0    0,,PR4
        25 001266   000341 100003                    CMPX0   225,DU
        25 001267   001277 601000 25                 TNZ     s:11991
        25 001270   400004 236100                    LDQ     4,,PR4
        25 001271   100001 116100                    CMPQ    1,,PR1
        25 001272   001277 601000 25                 TNZ     s:11991
        25 001273   300004 236100                    LDQ     4,,PR3
        25 001274   000022 772000                    QRL     18
        25 001275   000000 116000 21                 CMPQ    O3COM
        25 001276   001336 604000 25                 TMI     s:12001

  11991 25 001277   100001 634500                    EPPR4   1,,PR1
        25 001300   200062 454500                    STP4    CHAR12+4,,AUTO
        25 001301   200062 630500                    EPPR0   CHAR12+4,,AUTO
        25 001302   000002 631400 26                 EPPR1   2
        25 001303   000000 701000 xent               TSX1    Z8GS$SCAN_MAX
        25 001304   000000 011000                    NOP     0

PL6.E3A0      #001=Z8GO$GLOBAL_OPTIMIZER File=Z8GO.:Z8A6TSI                      TUE 08/26/97 07:51 Page:102
  11993 25 001305   200015 470500                    LDP0    ILL_ETT$,,AUTO
        25 001306   000002 471500                    LDP1    2,,PR0
        25 001307   100001 633500                    EPPR3   1,,PR1
        25 001310   200062 453500                    STP3    CHAR12+4,,AUTO
        25 001311   200062 630500                    EPPR0   CHAR12+4,,AUTO
        25 001312   000002 631400 26                 EPPR1   2
        25 001313   000000 701000 xent               TSX1    Z8GI$INSERT_EVALP
        25 001314   000000 011000                    NOP     0

  11994 25 001315   200015 470500                    LDP0    ILL_ETT$,,AUTO
        25 001316   000002 471500                    LDP1    2,,PR0
        25 001317   100001 473500                    LDP3    1,,PR1
        25 001320   300003 236100                    LDQ     3,,PR3
        25 001321   000000 116000 26                 CMPQ    0
        25 001322   001327 600000 25                 TZE     s:11996
        25 001323   300003 474500                    LDP4    3,,PR3
        25 001324   400000 220100                    LDX0    0,,PR4
        25 001325   000341 100003                    CMPX0   225,DU
        25 001326   001357 600000 25                 TZE     s:12007

  11996 25 001327   000060 234000 xsym               SZN     COMCOM+48
        25 001330   001357 605000 25                 TPL     s:12007

  11997 25 001331   100001 634500                    EPPR4   1,,PR1
        25 001332   200055 454500                    STP4    BASE_ST$$+2,,AUTO
        25 001333   007117 701000 25                 TSX1    OPTIMIZER_ALERT
        25 001334   000000 011000                    NOP     0

  11999 25 001335   001357 710000 25                 TRA     s:12007

  12001 25 001336   300003 236100                    LDQ     3,,PR3
        25 001337   000000 756000 5                  STQ     ILL$

  12002 25 001340   000000 475400 5                  LDP5    ILL$
        25 001341   500000 720100                    LXL0    0,,PR5
        25 001342   000001 621010                    EAX1    1,X0
        25 001343   500000 441100                    SXL1    0,,PR5
PL6.E3A0      #001=Z8GO$GLOBAL_OPTIMIZER File=Z8GO.:Z8A6TSI                      TUE 08/26/97 07:51 Page:103

  12003 25 001344   000000 720000 21                 LXL0    O3COM
        25 001345   000000 470400 5                  LDP0    ILL$
        25 001346   000005 740100                    STX0    5,,PR0

  12004 25 001347   000001 236100                    LDQ     1,,PR0
        25 001350   000022 732000                    QRS     18
        25 001351   001354 604000 25                 TMI     s:12004+5
        25 001352   000011 116000 21                 CMPQ    O3COM+9
        25 001353   001355 603000 25                 TRC     s:12004+6
        25 001354   000011 236000 21                 LDQ     O3COM+9
        25 001355   000000 621006                    EAX1    0,QL
        25 001356   000001 741100                    STX1    1,,PR0

  12007 25 001357   200015 470500                    LDP0    ILL_ETT$,,AUTO
        25 001360   000002 471500                    LDP1    2,,PR0
        25 001361   100001 473500                    LDP3    1,,PR1
        25 001362   300003 474500                    LDP4    3,,PR3
        25 001363   000002 236007                    LDQ     2,DL
        25 001364   400002 256100                    ORSQ    2,,PR4

  12008 25 001365   002132 710000 25                 TRA     s:12295

      549    12010
      550    12011    4     CASE (%ONE_EXPRESSION_LOP_REDEF,

      551    12012    4           %TWO_EXPRESSIONS_LOP_REDEF) ;
      552    12013
      553    12014            %INCR_COUNT (OP = LOP, BIT = ARITH,
      554    12015                         COMPUTE_SEQ_ALREADY_COMPUTED = '0'B) ;

  12019 25 001366   000007 100003                    CMPX0   7,DU
        25 001367   001420 600000 25                 TZE     s:12056
        25 001370   000171 100003                    CMPX0   121,DU
        25 001371   001420 600000 25                 TZE     s:12056
        25 001372   000003 100003                    CMPX0   3,DU
        25 001373   001420 600000 25                 TZE     s:12056
PL6.E3A0      #001=Z8GO$GLOBAL_OPTIMIZER File=Z8GO.:Z8A6TSI                      TUE 08/26/97 07:51 Page:104
        25 001374   000161 100003                    CMPX0   113,DU
        25 001375   001420 600000 25                 TZE     s:12056
        25 001376   000162 100003                    CMPX0   114,DU
        25 001377   001420 600000 25                 TZE     s:12056
        25 001400   000121 100003                    CMPX0   81,DU
        25 001401   001420 600000 25                 TZE     s:12056
        25 001402   000122 100003                    CMPX0   82,DU
        25 001403   001420 600000 25                 TZE     s:12056
        25 001404   000175 100003                    CMPX0   125,DU
        25 001405   001420 600000 25                 TZE     s:12056
        25 001406   000314 236000 xsym               LDQ     COMCOM+204
        25 001407   000002 116007                    CMPQ    2,DL
        25 001410   001420 605000 25                 TPL     s:12056

  12028 25 001411   200015 236100                    LDQ     ILL_ETT$,,AUTO
        25 001412   000001 036003                    ADLQ    1,DU
        25 001413   200062 756100                    STQ     CHAR12+4,,AUTO
        25 001414   200062 630500                    EPPR0   CHAR12+4,,AUTO
        25 001415   000002 631400 26                 EPPR1   2
        25 001416   000000 701000 xent               TSX1    Z8GO$CHECK_OP
        25 001417   000000 011000                    NOP     0

  12056 25 001420   200015 470500                    LDP0    ILL_ETT$,,AUTO
        25 001421   000001 471500                    LDP1    1,,PR0
        25 001422   100003 236100                    LDQ     3,,PR1
        25 001423   000000 116000 26                 CMPQ    0
        25 001424   001440 600000 25                 TZE     s:12061
        25 001425   100003 473500                    LDP3    3,,PR1
        25 001426   300000 220100                    LDX0    0,,PR3
        25 001427   000341 100003                    CMPX0   225,DU
        25 001430   001440 601000 25                 TNZ     s:12061
        25 001431   300004 236100                    LDQ     4,,PR3
        25 001432   000001 116100                    CMPQ    1,,PR0
        25 001433   001440 601000 25                 TNZ     s:12061
        25 001434   100004 236100                    LDQ     4,,PR1
        25 001435   000022 772000                    QRL     18
        25 001436   000000 116000 21                 CMPQ    O3COM
PL6.E3A0      #001=Z8GO$GLOBAL_OPTIMIZER File=Z8GO.:Z8A6TSI                      TUE 08/26/97 07:51 Page:105
        25 001437   001477 604000 25                 TMI     s:12071

  12061 25 001440   200015 236100                    LDQ     ILL_ETT$,,AUTO
        25 001441   000001 036003                    ADLQ    1,DU
        25 001442   200062 756100                    STQ     CHAR12+4,,AUTO
        25 001443   200062 630500                    EPPR0   CHAR12+4,,AUTO
        25 001444   000002 631400 26                 EPPR1   2
        25 001445   000000 701000 xent               TSX1    Z8GS$SCAN_MAX
        25 001446   000000 011000                    NOP     0

  12063 25 001447   200015 236100                    LDQ     ILL_ETT$,,AUTO
        25 001450   000001 036003                    ADLQ    1,DU
        25 001451   200062 756100                    STQ     CHAR12+4,,AUTO
        25 001452   200062 630500                    EPPR0   CHAR12+4,,AUTO
        25 001453   000002 631400 26                 EPPR1   2
        25 001454   000000 701000 xent               TSX1    Z8GI$INSERT_EVALP
        25 001455   000000 011000                    NOP     0

  12064 25 001456   200015 470500                    LDP0    ILL_ETT$,,AUTO
        25 001457   000001 471500                    LDP1    1,,PR0
        25 001460   100003 236100                    LDQ     3,,PR1
        25 001461   000000 116000 26                 CMPQ    0
        25 001462   001467 600000 25                 TZE     s:12066
        25 001463   100003 473500                    LDP3    3,,PR1
        25 001464   300000 220100                    LDX0    0,,PR3
        25 001465   000341 100003                    CMPX0   225,DU
        25 001466   001520 600000 25                 TZE     s:12077

  12066 25 001467   000060 234000 xsym               SZN     COMCOM+48
        25 001470   001520 605000 25                 TPL     s:12077

  12067 25 001471   200015 236100                    LDQ     ILL_ETT$,,AUTO
        25 001472   000001 036003                    ADLQ    1,DU
        25 001473   200055 756100                    STQ     BASE_ST$$+2,,AUTO
        25 001474   007117 701000 25                 TSX1    OPTIMIZER_ALERT
        25 001475   000000 011000                    NOP     0

PL6.E3A0      #001=Z8GO$GLOBAL_OPTIMIZER File=Z8GO.:Z8A6TSI                      TUE 08/26/97 07:51 Page:106
  12069 25 001476   001520 710000 25                 TRA     s:12077

  12071 25 001477   100003 236100                    LDQ     3,,PR1
        25 001500   000000 756000 5                  STQ     ILL$

  12072 25 001501   000000 474400 5                  LDP4    ILL$
        25 001502   400000 720100                    LXL0    0,,PR4
        25 001503   000001 621010                    EAX1    1,X0
        25 001504   400000 441100                    SXL1    0,,PR4

  12073 25 001505   000000 720000 21                 LXL0    O3COM
        25 001506   000000 470400 5                  LDP0    ILL$
        25 001507   000005 740100                    STX0    5,,PR0

  12074 25 001510   000001 236100                    LDQ     1,,PR0
        25 001511   000022 732000                    QRS     18
        25 001512   001515 604000 25                 TMI     s:12074+5
        25 001513   000011 116000 21                 CMPQ    O3COM+9
        25 001514   001516 603000 25                 TRC     s:12074+6
        25 001515   000011 236000 21                 LDQ     O3COM+9
        25 001516   000000 621006                    EAX1    0,QL
        25 001517   000001 741100                    STX1    1,,PR0

  12077 25 001520   200015 470500                    LDP0    ILL_ETT$,,AUTO
        25 001521   000001 471500                    LDP1    1,,PR0
        25 001522   100003 473500                    LDP3    3,,PR1
        25 001523   000002 236007                    LDQ     2,DL
        25 001524   300002 256100                    ORSQ    2,,PR3

  12078 25 001525   002132 710000 25                 TRA     s:12295

      555    12080
      556    12081    4     CASE (%THREE_EXPRESSIONS_TO_REDEF) ;

      557    12082
      558    12083            %INCR_COUNT (OP = TO_, BIT = ARITH,
      559    12084                         COMPUTE_SEQ_ALREADY_COMPUTED = '0'B) ;
PL6.E3A0      #001=Z8GO$GLOBAL_OPTIMIZER File=Z8GO.:Z8A6TSI                      TUE 08/26/97 07:51 Page:107

  12100 25 001526   000121 100003                    CMPX0   81,DU
        25 001527   001544 600000 25                 TZE     s:12125
        25 001530   000255 100003                    CMPX0   173,DU
        25 001531   001544 600000 25                 TZE     s:12125
        25 001532   000314 236000 xsym               LDQ     COMCOM+204
        25 001533   000002 116007                    CMPQ    2,DL
        25 001534   001544 605000 25                 TPL     s:12125

  12103 25 001535   200015 236100                    LDQ     ILL_ETT$,,AUTO
        25 001536   000003 036003                    ADLQ    3,DU
        25 001537   200062 756100                    STQ     CHAR12+4,,AUTO
        25 001540   200062 630500                    EPPR0   CHAR12+4,,AUTO
        25 001541   000002 631400 26                 EPPR1   2
        25 001542   000000 701000 xent               TSX1    Z8GO$CHECK_OP
        25 001543   000000 011000                    NOP     0

  12125 25 001544   200015 470500                    LDP0    ILL_ETT$,,AUTO
        25 001545   000003 471500                    LDP1    3,,PR0
        25 001546   100003 236100                    LDQ     3,,PR1
        25 001547   000000 116000 26                 CMPQ    0
        25 001550   001564 600000 25                 TZE     s:12130
        25 001551   100003 473500                    LDP3    3,,PR1
        25 001552   300000 220100                    LDX0    0,,PR3
        25 001553   000341 100003                    CMPX0   225,DU
        25 001554   001564 601000 25                 TNZ     s:12130
        25 001555   300004 236100                    LDQ     4,,PR3
        25 001556   000003 116100                    CMPQ    3,,PR0
        25 001557   001564 601000 25                 TNZ     s:12130
        25 001560   100004 236100                    LDQ     4,,PR1
        25 001561   000022 772000                    QRL     18
        25 001562   000000 116000 21                 CMPQ    O3COM
        25 001563   001623 604000 25                 TMI     s:12140

  12130 25 001564   200015 236100                    LDQ     ILL_ETT$,,AUTO
        25 001565   000003 036003                    ADLQ    3,DU
        25 001566   200062 756100                    STQ     CHAR12+4,,AUTO
PL6.E3A0      #001=Z8GO$GLOBAL_OPTIMIZER File=Z8GO.:Z8A6TSI                      TUE 08/26/97 07:51 Page:108
        25 001567   200062 630500                    EPPR0   CHAR12+4,,AUTO
        25 001570   000002 631400 26                 EPPR1   2
        25 001571   000000 701000 xent               TSX1    Z8GS$SCAN_MAX
        25 001572   000000 011000                    NOP     0

  12132 25 001573   200015 236100                    LDQ     ILL_ETT$,,AUTO
        25 001574   000003 036003                    ADLQ    3,DU
        25 001575   200062 756100                    STQ     CHAR12+4,,AUTO
        25 001576   200062 630500                    EPPR0   CHAR12+4,,AUTO
        25 001577   000002 631400 26                 EPPR1   2
        25 001600   000000 701000 xent               TSX1    Z8GI$INSERT_EVALP
        25 001601   000000 011000                    NOP     0

  12133 25 001602   200015 470500                    LDP0    ILL_ETT$,,AUTO
        25 001603   000003 471500                    LDP1    3,,PR0
        25 001604   100003 236100                    LDQ     3,,PR1
        25 001605   000000 116000 26                 CMPQ    0
        25 001606   001613 600000 25                 TZE     s:12135
        25 001607   100003 473500                    LDP3    3,,PR1
        25 001610   300000 220100                    LDX0    0,,PR3
        25 001611   000341 100003                    CMPX0   225,DU
        25 001612   001644 600000 25                 TZE     s:12146

  12135 25 001613   000060 234000 xsym               SZN     COMCOM+48
        25 001614   001644 605000 25                 TPL     s:12146

  12136 25 001615   200015 236100                    LDQ     ILL_ETT$,,AUTO
        25 001616   000003 036003                    ADLQ    3,DU
        25 001617   200055 756100                    STQ     BASE_ST$$+2,,AUTO
        25 001620   007117 701000 25                 TSX1    OPTIMIZER_ALERT
        25 001621   000000 011000                    NOP     0

  12138 25 001622   001644 710000 25                 TRA     s:12146

  12140 25 001623   100003 236100                    LDQ     3,,PR1
        25 001624   000000 756000 5                  STQ     ILL$

PL6.E3A0      #001=Z8GO$GLOBAL_OPTIMIZER File=Z8GO.:Z8A6TSI                      TUE 08/26/97 07:51 Page:109
  12141 25 001625   000000 474400 5                  LDP4    ILL$
        25 001626   400000 720100                    LXL0    0,,PR4
        25 001627   000001 621010                    EAX1    1,X0
        25 001630   400000 441100                    SXL1    0,,PR4

  12142 25 001631   000000 720000 21                 LXL0    O3COM
        25 001632   000000 470400 5                  LDP0    ILL$
        25 001633   000005 740100                    STX0    5,,PR0

  12143 25 001634   000001 236100                    LDQ     1,,PR0
        25 001635   000022 732000                    QRS     18
        25 001636   001641 604000 25                 TMI     s:12143+5
        25 001637   000011 116000 21                 CMPQ    O3COM+9
        25 001640   001642 603000 25                 TRC     s:12143+6
        25 001641   000011 236000 21                 LDQ     O3COM+9
        25 001642   000000 621006                    EAX1    0,QL
        25 001643   000001 741100                    STX1    1,,PR0

  12146 25 001644   200015 470500                    LDP0    ILL_ETT$,,AUTO
        25 001645   000003 471500                    LDP1    3,,PR0
        25 001646   100003 473500                    LDP3    3,,PR1
        25 001647   000002 236007                    LDQ     2,DL
        25 001650   300002 256100                    ORSQ    2,,PR3

  12147 25 001651   002132 710000 25                 TRA     s:12295

      560    12149
      561    12150    4     CASE (%FOUR_EXPRESSIONS_TWO_REDEFS) ;

      562    12151
      563    12152            %INCR_COUNT (OP = TO_, BIT = ARITH,
      564    12153                         COMPUTE_SEQ_ALREADY_COMPUTED = '0'B) ;

  12169 25 001652   000121 100003                    CMPX0   81,DU
        25 001653   001670 600000 25                 TZE     s:12194
        25 001654   000255 100003                    CMPX0   173,DU
        25 001655   001670 600000 25                 TZE     s:12194
PL6.E3A0      #001=Z8GO$GLOBAL_OPTIMIZER File=Z8GO.:Z8A6TSI                      TUE 08/26/97 07:51 Page:110
        25 001656   000314 236000 xsym               LDQ     COMCOM+204
        25 001657   000002 116007                    CMPQ    2,DL
        25 001660   001670 605000 25                 TPL     s:12194

  12172 25 001661   200015 236100                    LDQ     ILL_ETT$,,AUTO
        25 001662   000003 036003                    ADLQ    3,DU
        25 001663   200062 756100                    STQ     CHAR12+4,,AUTO
        25 001664   200062 630500                    EPPR0   CHAR12+4,,AUTO
        25 001665   000002 631400 26                 EPPR1   2
        25 001666   000000 701000 xent               TSX1    Z8GO$CHECK_OP
        25 001667   000000 011000                    NOP     0

  12194 25 001670   200015 470500                    LDP0    ILL_ETT$,,AUTO
        25 001671   000003 471500                    LDP1    3,,PR0
        25 001672   100003 236100                    LDQ     3,,PR1
        25 001673   000000 116000 26                 CMPQ    0
        25 001674   001710 600000 25                 TZE     s:12199
        25 001675   100003 473500                    LDP3    3,,PR1
        25 001676   300000 220100                    LDX0    0,,PR3
        25 001677   000341 100003                    CMPX0   225,DU
        25 001700   001710 601000 25                 TNZ     s:12199
        25 001701   300004 236100                    LDQ     4,,PR3
        25 001702   000003 116100                    CMPQ    3,,PR0
        25 001703   001710 601000 25                 TNZ     s:12199
        25 001704   100004 236100                    LDQ     4,,PR1
        25 001705   000022 772000                    QRL     18
        25 001706   000000 116000 21                 CMPQ    O3COM
        25 001707   001747 604000 25                 TMI     s:12209

  12199 25 001710   200015 236100                    LDQ     ILL_ETT$,,AUTO
        25 001711   000003 036003                    ADLQ    3,DU
        25 001712   200062 756100                    STQ     CHAR12+4,,AUTO
        25 001713   200062 630500                    EPPR0   CHAR12+4,,AUTO
        25 001714   000002 631400 26                 EPPR1   2
        25 001715   000000 701000 xent               TSX1    Z8GS$SCAN_MAX
        25 001716   000000 011000                    NOP     0

PL6.E3A0      #001=Z8GO$GLOBAL_OPTIMIZER File=Z8GO.:Z8A6TSI                      TUE 08/26/97 07:51 Page:111
  12201 25 001717   200015 236100                    LDQ     ILL_ETT$,,AUTO
        25 001720   000003 036003                    ADLQ    3,DU
        25 001721   200062 756100                    STQ     CHAR12+4,,AUTO
        25 001722   200062 630500                    EPPR0   CHAR12+4,,AUTO
        25 001723   000002 631400 26                 EPPR1   2
        25 001724   000000 701000 xent               TSX1    Z8GI$INSERT_EVALP
        25 001725   000000 011000                    NOP     0

  12202 25 001726   200015 470500                    LDP0    ILL_ETT$,,AUTO
        25 001727   000003 471500                    LDP1    3,,PR0
        25 001730   100003 236100                    LDQ     3,,PR1
        25 001731   000000 116000 26                 CMPQ    0
        25 001732   001737 600000 25                 TZE     s:12204
        25 001733   100003 473500                    LDP3    3,,PR1
        25 001734   300000 220100                    LDX0    0,,PR3
        25 001735   000341 100003                    CMPX0   225,DU
        25 001736   001770 600000 25                 TZE     s:12215

  12204 25 001737   000060 234000 xsym               SZN     COMCOM+48
        25 001740   001770 605000 25                 TPL     s:12215

  12205 25 001741   200015 236100                    LDQ     ILL_ETT$,,AUTO
        25 001742   000003 036003                    ADLQ    3,DU
        25 001743   200055 756100                    STQ     BASE_ST$$+2,,AUTO
        25 001744   007117 701000 25                 TSX1    OPTIMIZER_ALERT
        25 001745   000000 011000                    NOP     0

  12207 25 001746   001770 710000 25                 TRA     s:12215

  12209 25 001747   100003 236100                    LDQ     3,,PR1
        25 001750   000000 756000 5                  STQ     ILL$

  12210 25 001751   000000 474400 5                  LDP4    ILL$
        25 001752   400000 720100                    LXL0    0,,PR4
        25 001753   000001 621010                    EAX1    1,X0
        25 001754   400000 441100                    SXL1    0,,PR4

PL6.E3A0      #001=Z8GO$GLOBAL_OPTIMIZER File=Z8GO.:Z8A6TSI                      TUE 08/26/97 07:51 Page:112
  12211 25 001755   000000 720000 21                 LXL0    O3COM
        25 001756   000000 470400 5                  LDP0    ILL$
        25 001757   000005 740100                    STX0    5,,PR0

  12212 25 001760   000001 236100                    LDQ     1,,PR0
        25 001761   000022 732000                    QRS     18
        25 001762   001765 604000 25                 TMI     s:12212+5
        25 001763   000011 116000 21                 CMPQ    O3COM+9
        25 001764   001766 603000 25                 TRC     s:12212+6
        25 001765   000011 236000 21                 LDQ     O3COM+9
        25 001766   000000 621006                    EAX1    0,QL
        25 001767   000001 741100                    STX1    1,,PR0

  12215 25 001770   200015 470500                    LDP0    ILL_ETT$,,AUTO
        25 001771   000003 471500                    LDP1    3,,PR0
        25 001772   100003 473500                    LDP3    3,,PR1
        25 001773   000002 236007                    LDQ     2,DL
        25 001774   300002 256100                    ORSQ    2,,PR3

      565    12218
      566    12219    5       IF ILL_ETT$ -> ILL.REMAINDER ~= ADDR(NIL) THEN DO ;

  12219 25 001775   200015 470500                    LDP0    ILL_ETT$,,AUTO
        25 001776   000004 236100                    LDQ     4,,PR0
        25 001777   000000 116000 26                 CMPQ    0
        25 002000   002132 600000 25                 TZE     s:12295

      567    12220              %INCR_COUNT (OP = REMAINDER, BIT = ARITH,
      568    12221                           COMPUTE_SEQ_ALREADY_COMPUTED = '0'B) ;

  12237 25 002001   000000 220100                    LDX0    0,,PR0
        25 002002   000121 100003                    CMPX0   81,DU
        25 002003   002020 600000 25                 TZE     s:12262
        25 002004   000255 100003                    CMPX0   173,DU
        25 002005   002020 600000 25                 TZE     s:12262
        25 002006   000314 235000 xsym               LDA     COMCOM+204
        25 002007   000002 115007                    CMPA    2,DL
PL6.E3A0      #001=Z8GO$GLOBAL_OPTIMIZER File=Z8GO.:Z8A6TSI                      TUE 08/26/97 07:51 Page:113
        25 002010   002020 605000 25                 TPL     s:12262

  12240 25 002011   200015 236100                    LDQ     ILL_ETT$,,AUTO
        25 002012   000004 036003                    ADLQ    4,DU
        25 002013   200062 756100                    STQ     CHAR12+4,,AUTO
        25 002014   200062 630500                    EPPR0   CHAR12+4,,AUTO
        25 002015   000002 631400 26                 EPPR1   2
        25 002016   000000 701000 xent               TSX1    Z8GO$CHECK_OP
        25 002017   000000 011000                    NOP     0

  12262 25 002020   200015 470500                    LDP0    ILL_ETT$,,AUTO
        25 002021   000004 471500                    LDP1    4,,PR0
        25 002022   100003 236100                    LDQ     3,,PR1
        25 002023   000000 116000 26                 CMPQ    0
        25 002024   002040 600000 25                 TZE     s:12267
        25 002025   100003 473500                    LDP3    3,,PR1
        25 002026   300000 220100                    LDX0    0,,PR3
        25 002027   000341 100003                    CMPX0   225,DU
        25 002030   002040 601000 25                 TNZ     s:12267
        25 002031   300004 236100                    LDQ     4,,PR3
        25 002032   000004 116100                    CMPQ    4,,PR0
        25 002033   002040 601000 25                 TNZ     s:12267
        25 002034   100004 236100                    LDQ     4,,PR1
        25 002035   000022 772000                    QRL     18
        25 002036   000000 116000 21                 CMPQ    O3COM
        25 002037   002077 604000 25                 TMI     s:12277

  12267 25 002040   200015 236100                    LDQ     ILL_ETT$,,AUTO
        25 002041   000004 036003                    ADLQ    4,DU
        25 002042   200062 756100                    STQ     CHAR12+4,,AUTO
        25 002043   200062 630500                    EPPR0   CHAR12+4,,AUTO
        25 002044   000002 631400 26                 EPPR1   2
        25 002045   000000 701000 xent               TSX1    Z8GS$SCAN_MAX
        25 002046   000000 011000                    NOP     0

  12269 25 002047   200015 236100                    LDQ     ILL_ETT$,,AUTO
        25 002050   000004 036003                    ADLQ    4,DU
PL6.E3A0      #001=Z8GO$GLOBAL_OPTIMIZER File=Z8GO.:Z8A6TSI                      TUE 08/26/97 07:51 Page:114
        25 002051   200062 756100                    STQ     CHAR12+4,,AUTO
        25 002052   200062 630500                    EPPR0   CHAR12+4,,AUTO
        25 002053   000002 631400 26                 EPPR1   2
        25 002054   000000 701000 xent               TSX1    Z8GI$INSERT_EVALP
        25 002055   000000 011000                    NOP     0

  12270 25 002056   200015 470500                    LDP0    ILL_ETT$,,AUTO
        25 002057   000004 471500                    LDP1    4,,PR0
        25 002060   100003 236100                    LDQ     3,,PR1
        25 002061   000000 116000 26                 CMPQ    0
        25 002062   002067 600000 25                 TZE     s:12272
        25 002063   100003 473500                    LDP3    3,,PR1
        25 002064   300000 220100                    LDX0    0,,PR3
        25 002065   000341 100003                    CMPX0   225,DU
        25 002066   002120 600000 25                 TZE     s:12283

  12272 25 002067   000060 234000 xsym               SZN     COMCOM+48
        25 002070   002120 605000 25                 TPL     s:12283

  12273 25 002071   200015 236100                    LDQ     ILL_ETT$,,AUTO
        25 002072   000004 036003                    ADLQ    4,DU
        25 002073   200055 756100                    STQ     BASE_ST$$+2,,AUTO
        25 002074   007117 701000 25                 TSX1    OPTIMIZER_ALERT
        25 002075   000000 011000                    NOP     0

  12275 25 002076   002120 710000 25                 TRA     s:12283

  12277 25 002077   100003 236100                    LDQ     3,,PR1
        25 002100   000000 756000 5                  STQ     ILL$

  12278 25 002101   000000 474400 5                  LDP4    ILL$
        25 002102   400000 720100                    LXL0    0,,PR4
        25 002103   000001 621010                    EAX1    1,X0
        25 002104   400000 441100                    SXL1    0,,PR4

  12279 25 002105   000000 720000 21                 LXL0    O3COM
        25 002106   000000 470400 5                  LDP0    ILL$
PL6.E3A0      #001=Z8GO$GLOBAL_OPTIMIZER File=Z8GO.:Z8A6TSI                      TUE 08/26/97 07:51 Page:115
        25 002107   000005 740100                    STX0    5,,PR0

  12280 25 002110   000001 236100                    LDQ     1,,PR0
        25 002111   000022 732000                    QRS     18
        25 002112   002115 604000 25                 TMI     s:12280+5
        25 002113   000011 116000 21                 CMPQ    O3COM+9
        25 002114   002116 603000 25                 TRC     s:12280+6
        25 002115   000011 236000 21                 LDQ     O3COM+9
        25 002116   000000 621006                    EAX1    0,QL
        25 002117   000001 741100                    STX1    1,,PR0

  12283 25 002120   200015 470500                    LDP0    ILL_ETT$,,AUTO
        25 002121   000004 471500                    LDP1    4,,PR0
        25 002122   100003 473500                    LDP3    3,,PR1
        25 002123   000002 236007                    LDQ     2,DL
        25 002124   300002 256100                    ORSQ    2,,PR3

      569    12286    5       END ;

  12286 25 002125   002132 710000 25                 TRA     s:12295

      570    12287
      571    12288    4     CASE (%ILLEGAL_VALUE) ;

      572    12289
      573    12290    4       CALL Z8AE$ERROR (%E$UNEXPECTED_CASE) ;

  12290 25 002126   000016 630400 26                 EPPR0   14
        25 002127   000002 631400 26                 EPPR1   2
        25 002130   000000 701000 xent               TSX1    Z8AE$ERROR
        25 002131   000000 011000                    NOP     0

      574    12291
      575    12292    4   END /* Case of P3VEC */ ;

      576    12293
      577    12294          %EJECT;
PL6.E3A0      #001=Z8GO$GLOBAL_OPTIMIZER File=Z8GO.:Z8A6TSI                      TUE 08/26/97 07:51 Page:116
      578    12295    3   ILL_ETT$ = ILS$ -> ILS.ILL$ ; /* Reset in case of EVALP */

  12295 25 002132   000000 470400 1                  LDP0    ILS$
        25 002133   000003 236100                    LDQ     3,,PR0
        25 002134   200015 756100                    STQ     ILL_ETT$,,AUTO

  12295 25 002135                       UPDATE_COUNT null
      579    12296
      580    12297    3     UPDATE_COUNT: ;
      581    12298
      582    12299    4   DO CASE (ILL_ETT$ -> ILL.ID) ;

  12299 25 002135   200015 470500                    LDP0    ILL_ETT$,,AUTO
        25 002136   000000 236100                    LDQ     0,,PR0
        25 002137   000022 772000                    QRL     18
        25 002140   000340 136007                    SBLQ    224,DL
        25 002141   000033 116007                    CMPQ    27,DL
        25 002142   002144 602006 25                 TNC     UPDATE_COUNT+7,QL
        25 002143   002230 710000 25                 TRA     s:12315
        25 002144   002214 710000 25                 TRA     s:12309
        25 002145   002230 710000 25                 TRA     s:12315
        25 002146   002230 710000 25                 TRA     s:12315
        25 002147   002230 710000 25                 TRA     s:12315
        25 002150   002230 710000 25                 TRA     s:12315
        25 002151   002230 710000 25                 TRA     s:12315
        25 002152   002230 710000 25                 TRA     s:12315
        25 002153   002230 710000 25                 TRA     s:12315
        25 002154   002230 710000 25                 TRA     s:12315
        25 002155   002230 710000 25                 TRA     s:12315
        25 002156   002230 710000 25                 TRA     s:12315
        25 002157   002230 710000 25                 TRA     s:12315
        25 002160   002230 710000 25                 TRA     s:12315
        25 002161   002230 710000 25                 TRA     s:12315
        25 002162   002230 710000 25                 TRA     s:12315
        25 002163   002230 710000 25                 TRA     s:12315
        25 002164   002230 710000 25                 TRA     s:12315
        25 002165   002230 710000 25                 TRA     s:12315
PL6.E3A0      #001=Z8GO$GLOBAL_OPTIMIZER File=Z8GO.:Z8A6TSI                      TUE 08/26/97 07:51 Page:117
        25 002166   002230 710000 25                 TRA     s:12315
        25 002167   002230 710000 25                 TRA     s:12315
        25 002170   002230 710000 25                 TRA     s:12315
        25 002171   002230 710000 25                 TRA     s:12315
        25 002172   002230 710000 25                 TRA     s:12315
        25 002173   002230 710000 25                 TRA     s:12315
        25 002174   002230 710000 25                 TRA     s:12315
        25 002175   002177 710000 25                 TRA     s:12303
        25 002176   002177 710000 25                 TRA     s:12303

      583    12300
      584    12301    4     CASE (%DISPL, %ACCEP) ;

      585    12302
      586    12303    4       CALL Z8GS$SCAN_MAX (COMCOM.ARGS2) ;

  12303 25 002177   000017 630400 26                 EPPR0   15
        25 002200   000002 631400 26                 EPPR1   2
        25 002201   000000 701000 xent               TSX1    Z8GS$SCAN_MAX
        25 002202   000000 011000                    NOP     0

      587    12304    4       CALL Z8GI$INSERT_EVALP (COMCOM.ARGS2) ;

  12304 25 002203   000017 630400 26                 EPPR0   15
        25 002204   000002 631400 26                 EPPR1   2
        25 002205   000000 701000 xent               TSX1    Z8GI$INSERT_EVALP
        25 002206   000000 011000                    NOP     0

      588    12305    4       COMCOM.ARGS2 -> ETT.EVALP$ -> CCOSU.B.ARITH = '1'B ;

  12305 25 002207   000005 470400 xsym               LDP0    COMCOM+5
        25 002210   000003 471500                    LDP1    3,,PR0
        25 002211   000002 236007                    LDQ     2,DL
        25 002212   100002 256100                    ORSQ    2,,PR1
        25 002213   002230 710000 25                 TRA     s:12315

      589    12306
PL6.E3A0      #001=Z8GO$GLOBAL_OPTIMIZER File=Z8GO.:Z8A6TSI                      TUE 08/26/97 07:51 Page:118
      590    12307    4     CASE (%STOPL) ;

      591    12308
      592    12309    4       CALL Z8GS$SCAN_MAX (COMCOM.ARGS0) ;

  12309 25 002214   000020 630400 26                 EPPR0   16
        25 002215   000002 631400 26                 EPPR1   2
        25 002216   000000 701000 xent               TSX1    Z8GS$SCAN_MAX
        25 002217   000000 011000                    NOP     0

      593    12310    4       CALL Z8GI$INSERT_EVALP (COMCOM.ARGS0) ;

  12310 25 002220   000020 630400 26                 EPPR0   16
        25 002221   000002 631400 26                 EPPR1   2
        25 002222   000000 701000 xent               TSX1    Z8GI$INSERT_EVALP
        25 002223   000000 011000                    NOP     0

      594    12311    4       COMCOM.ARGS0 -> ETT.EVALP$ -> CCOSU.B.ARITH = '1'B ;

  12311 25 002224   000124 470400 xsym               LDP0    COMCOM+84
        25 002225   000003 471500                    LDP1    3,,PR0
        25 002226   000002 236007                    LDQ     2,DL
        25 002227   100002 256100                    ORSQ    2,,PR1

      595    12312
      596    12313    4   END /* Case of ILL ID */ ;

      597    12314        %EJECT;
PL6.E3A0      #001=Z8GO$GLOBAL_OPTIMIZER File=Z8GO.:Z8A6TSI                      TUE 08/26/97 07:51 Page:119
      598    12315    4   DO CASE ( P3VEC (ILL_ETT$ -> ILL.ID) ) ;

  12315 25 002230   200015 470500                    LDP0    ILL_ETT$,,AUTO
        25 002231   000000 220100                    LDX0    0,,PR0
        25 002232   000000 235010 20                 LDA     P3VEC,X0
        25 002233   000020 115007                    CMPA    16,DL
        25 002234   002236 602005 25                 TNC     s:12315+6,AL
        25 002235   006612 710000 25                 TRA     s:13833
        25 002236   002256 710000 25                 TRA     s:12321
        25 002237   006612 710000 25                 TRA     s:13833
        25 002240   003200 710000 25                 TRA     s:12624
        25 002241   003410 710000 25                 TRA     s:12703
        25 002242   003410 710000 25                 TRA     s:12703
        25 002243   004710 710000 25                 TRA     s:13174
        25 002244   006612 710000 25                 TRA     s:13833
        25 002245   002620 710000 25                 TRA     s:12475
        25 002246   004001 710000 25                 TRA     s:12861
        25 002247   002264 710000 25                 TRA     s:12329
        25 002250   003774 710000 25                 TRA     s:12855
        25 002251   002474 710000 25                 TRA     s:12423
        25 002252   004536 710000 25                 TRA     s:13095
        25 002253   006612 710000 25                 TRA     s:13833
        25 002254   003774 710000 25                 TRA     s:12855
        25 002255   004150 710000 25                 TRA     s:12936

      599    12316
      600    12317    4     CASE (%NO_EXPRESSIONS) ;

      601    12318
      602    12319            /*V* Set Current Line Number in case of an error */
      603    12320
      604    12321    4       IF ILL_ETT$ -> ILL.ID = %LINOI    THEN

  12321 25 002256   000373 100003                    CMPX0   251,DU
        25 002257   006612 601000 25                 TNZ     s:13833

      605    12322    4         COMCOM.CURRENT.LINE = ILL_ETT$ -> LINOI.PREV_LINE ;
PL6.E3A0      #001=Z8GO$GLOBAL_OPTIMIZER File=Z8GO.:Z8A6TSI                      TUE 08/26/97 07:51 Page:120

  12322 25 002260   000000 236100                    LDQ     0,,PR0
        25 002261   777777 376007                    ANQ     -1,DL
        25 002262   000133 756000 xsym               STQ     COMCOM+91
        25 002263   006612 710000 25                 TRA     s:13833

      606    12323
      607    12324    4     CASE (%ONE_EXPRESSION_LOP_REDEF,

      608    12325    4           %ARGLIST_REDEF) ;
      609    12326
      610    12327    4     CASE (%ROP_EXPRESSION_NO_REDEF) ;

      611    12328
      612    12329    5       IF ILL_ETT$ -> ILL.ROP ~= ADDR(NIL) THEN DO ;

  12329 25 002264   000002 236100                    LDQ     2,,PR0
        25 002265   000000 116000 26                 CMPQ    0
        25 002266   006612 600000 25                 TZE     s:13833

      613    12330              %INCR_COUNT (OP = ROP, BIT = ARITH,
      614    12331                           COMPUTE_SEQ_ALREADY_COMPUTED = '0'B) ;

  12347 25 002267   000121 100003                    CMPX0   81,DU
        25 002270   002305 600000 25                 TZE     s:12356
        25 002271   000255 100003                    CMPX0   173,DU
        25 002272   002305 600000 25                 TZE     s:12356
        25 002273   000314 235000 xsym               LDA     COMCOM+204
        25 002274   000002 115007                    CMPA    2,DL
        25 002275   002305 605000 25                 TPL     s:12356

  12350 25 002276   200015 236100                    LDQ     ILL_ETT$,,AUTO
        25 002277   000002 036003                    ADLQ    2,DU
        25 002300   200062 756100                    STQ     CHAR12+4,,AUTO
        25 002301   200062 630500                    EPPR0   CHAR12+4,,AUTO
        25 002302   000002 631400 26                 EPPR1   2
        25 002303   000000 701000 xent               TSX1    Z8GO$CHECK_OP
PL6.E3A0      #001=Z8GO$GLOBAL_OPTIMIZER File=Z8GO.:Z8A6TSI                      TUE 08/26/97 07:51 Page:121
        25 002304   000000 011000                    NOP     0

  12356 25 002305   200015 470500                    LDP0    ILL_ETT$,,AUTO
        25 002306   000000 220100                    LDX0    0,,PR0
        25 002307   000245 100003                    CMPX0   165,DU
        25 002310   002323 601000 25                 TNZ     s:12361
        25 002311   000002 471500                    LDP1    2,,PR0
        25 002312   100000 221100                    LDX1    0,,PR1
        25 002313   000132 101003                    CMPX1   90,DU
        25 002314   002323 601000 25                 TNZ     s:12361

  12358 25 002315   000266 222003                    LDX2    182,DU
        25 002316   000000 742100                    STX2    0,,PR0

  12359 25 002317   200015 470500                    LDP0    ILL_ETT$,,AUTO
        25 002320   000002 471500                    LDP1    2,,PR0
        25 002321   100001 236100                    LDQ     1,,PR1
        25 002322   000002 756100                    STQ     2,,PR0

  12361 25 002323   200015 470500                    LDP0    ILL_ETT$,,AUTO
        25 002324   000000 220100                    LDX0    0,,PR0
        25 002325   000243 100003                    CMPX0   163,DU
        25 002326   002366 601000 25                 TNZ     s:12379
        25 002327   000002 471500                    LDP1    2,,PR0
        25 002330   100000 221100                    LDX1    0,,PR1
        25 002331   000126 101003                    CMPX1   86,DU
        25 002332   002335 600000 25                 TZE     s:12364
        25 002333   000036 101003                    CMPX1   30,DU
        25 002334   002366 601000 25                 TNZ     s:12379

  12364 25 002335   000001 236100                    LDQ     1,,PR0
        25 002336   200025 756100                    STQ     LOP$$$,,AUTO

  12367 25 002337   200034 756100                    STQ     ST$$$,,AUTO

  12368 25 002340   200034 473500                    LDP3    ST$$$,,AUTO
        25 002341   300000 222100                    LDX2    0,,PR3
PL6.E3A0      #001=Z8GO$GLOBAL_OPTIMIZER File=Z8GO.:Z8A6TSI                      TUE 08/26/97 07:51 Page:122
        25 002342   000751 102003                    CMPX2   489,DU
        25 002343   002353 603000 25                 TRC     s:12373

  12369 25 002344   200034 470500                    LDP0    ST$$$,,AUTO
        25 002345   000001 236100                    LDQ     1,,PR0
        25 002346   200034 756100                    STQ     ST$$$,,AUTO

  12370 25 002347   200034 470500                    LDP0    ST$$$,,AUTO
        25 002350   000000 220100                    LDX0    0,,PR0
        25 002351   000751 100003                    CMPX0   489,DU
        25 002352   002344 602000 25                 TNC     s:12369

  12373 25 002353   200034 470500                    LDP0    ST$$$,,AUTO
        25 002354   000001 236100                    LDQ     1,,PR0
        25 002355   007700 316007                    CANQ    4032,DL
        25 002356   002366 601000 25                 TNZ     s:12379

  12374 25 002357   000252 220003                    LDX0    170,DU
        25 002360   200015 471500                    LDP1    ILL_ETT$,,AUTO
        25 002361   100000 740100                    STX0    0,,PR1

  12375 25 002362   200015 471500                    LDP1    ILL_ETT$,,AUTO
        25 002363   100002 473500                    LDP3    2,,PR1
        25 002364   300001 236100                    LDQ     1,,PR3
        25 002365   100002 756100                    STQ     2,,PR1

  12379 25 002366   200015 470500                    LDP0    ILL_ETT$,,AUTO
        25 002367   000002 471500                    LDP1    2,,PR0
        25 002370   100003 236100                    LDQ     3,,PR1
        25 002371   000000 116000 26                 CMPQ    0
        25 002372   002406 600000 25                 TZE     s:12384
        25 002373   100003 473500                    LDP3    3,,PR1
        25 002374   300000 220100                    LDX0    0,,PR3
        25 002375   000341 100003                    CMPX0   225,DU
        25 002376   002406 601000 25                 TNZ     s:12384
        25 002377   300004 236100                    LDQ     4,,PR3
        25 002400   000002 116100                    CMPQ    2,,PR0
PL6.E3A0      #001=Z8GO$GLOBAL_OPTIMIZER File=Z8GO.:Z8A6TSI                      TUE 08/26/97 07:51 Page:123
        25 002401   002406 601000 25                 TNZ     s:12384
        25 002402   100004 236100                    LDQ     4,,PR1
        25 002403   000022 772000                    QRL     18
        25 002404   000000 116000 21                 CMPQ    O3COM
        25 002405   002445 604000 25                 TMI     s:12394

  12384 25 002406   200015 236100                    LDQ     ILL_ETT$,,AUTO
        25 002407   000002 036003                    ADLQ    2,DU
        25 002410   200062 756100                    STQ     CHAR12+4,,AUTO
        25 002411   200062 630500                    EPPR0   CHAR12+4,,AUTO
        25 002412   000002 631400 26                 EPPR1   2
        25 002413   000000 701000 xent               TSX1    Z8GS$SCAN_MAX
        25 002414   000000 011000                    NOP     0

  12386 25 002415   200015 236100                    LDQ     ILL_ETT$,,AUTO
        25 002416   000002 036003                    ADLQ    2,DU
        25 002417   200062 756100                    STQ     CHAR12+4,,AUTO
        25 002420   200062 630500                    EPPR0   CHAR12+4,,AUTO
        25 002421   000002 631400 26                 EPPR1   2
        25 002422   000000 701000 xent               TSX1    Z8GI$INSERT_EVALP
        25 002423   000000 011000                    NOP     0

  12387 25 002424   200015 470500                    LDP0    ILL_ETT$,,AUTO
        25 002425   000002 471500                    LDP1    2,,PR0
        25 002426   100003 236100                    LDQ     3,,PR1
        25 002427   000000 116000 26                 CMPQ    0
        25 002430   002435 600000 25                 TZE     s:12389
        25 002431   100003 473500                    LDP3    3,,PR1
        25 002432   300000 220100                    LDX0    0,,PR3
        25 002433   000341 100003                    CMPX0   225,DU
        25 002434   002466 600000 25                 TZE     s:12400

  12389 25 002435   000060 234000 xsym               SZN     COMCOM+48
        25 002436   002466 605000 25                 TPL     s:12400

  12390 25 002437   200015 236100                    LDQ     ILL_ETT$,,AUTO
        25 002440   000002 036003                    ADLQ    2,DU
PL6.E3A0      #001=Z8GO$GLOBAL_OPTIMIZER File=Z8GO.:Z8A6TSI                      TUE 08/26/97 07:51 Page:124
        25 002441   200055 756100                    STQ     BASE_ST$$+2,,AUTO
        25 002442   007117 701000 25                 TSX1    OPTIMIZER_ALERT
        25 002443   000000 011000                    NOP     0

  12392 25 002444   002466 710000 25                 TRA     s:12400

  12394 25 002445   100003 236100                    LDQ     3,,PR1
        25 002446   000000 756000 5                  STQ     ILL$

  12395 25 002447   000000 474400 5                  LDP4    ILL$
        25 002450   400000 720100                    LXL0    0,,PR4
        25 002451   000001 621010                    EAX1    1,X0
        25 002452   400000 441100                    SXL1    0,,PR4

  12396 25 002453   000000 720000 21                 LXL0    O3COM
        25 002454   000000 470400 5                  LDP0    ILL$
        25 002455   000005 740100                    STX0    5,,PR0

  12397 25 002456   000001 236100                    LDQ     1,,PR0
        25 002457   000022 732000                    QRS     18
        25 002460   002463 604000 25                 TMI     s:12397+5
        25 002461   000011 116000 21                 CMPQ    O3COM+9
        25 002462   002464 603000 25                 TRC     s:12397+6
        25 002463   000011 236000 21                 LDQ     O3COM+9
        25 002464   000000 621006                    EAX1    0,QL
        25 002465   000001 741100                    STX1    1,,PR0

  12400 25 002466   200015 470500                    LDP0    ILL_ETT$,,AUTO
        25 002467   000002 471500                    LDP1    2,,PR0
        25 002470   100003 473500                    LDP3    3,,PR1
        25 002471   000002 236007                    LDQ     2,DL
        25 002472   300002 256100                    ORSQ    2,,PR3

      615    12403    5       END ; /* ROP exists */

  12403 25 002473   006612 710000 25                 TRA     s:13833

PL6.E3A0      #001=Z8GO$GLOBAL_OPTIMIZER File=Z8GO.:Z8A6TSI                      TUE 08/26/97 07:51 Page:125
      616    12404
      617    12405    4     CASE (%EXPR_EXPRESSION_NO_REDEF) ;

      618    12406            %INCR_COUNT (OP = REMAINDER, BIT = ARITH,
      619    12407                         COMPUTE_SEQ_ALREADY_COMPUTED = '0'B) ;

  12423 25 002474   000121 100003                    CMPX0   81,DU
        25 002475   002512 600000 25                 TZE     s:12448
        25 002476   000255 100003                    CMPX0   173,DU
        25 002477   002512 600000 25                 TZE     s:12448
        25 002500   000314 236000 xsym               LDQ     COMCOM+204
        25 002501   000002 116007                    CMPQ    2,DL
        25 002502   002512 605000 25                 TPL     s:12448

  12426 25 002503   200015 236100                    LDQ     ILL_ETT$,,AUTO
        25 002504   000004 036003                    ADLQ    4,DU
        25 002505   200062 756100                    STQ     CHAR12+4,,AUTO
        25 002506   200062 630500                    EPPR0   CHAR12+4,,AUTO
        25 002507   000002 631400 26                 EPPR1   2
        25 002510   000000 701000 xent               TSX1    Z8GO$CHECK_OP
        25 002511   000000 011000                    NOP     0

  12448 25 002512   200015 470500                    LDP0    ILL_ETT$,,AUTO
        25 002513   000004 471500                    LDP1    4,,PR0
        25 002514   100003 236100                    LDQ     3,,PR1
        25 002515   000000 116000 26                 CMPQ    0
        25 002516   002532 600000 25                 TZE     s:12453
        25 002517   100003 473500                    LDP3    3,,PR1
        25 002520   300000 220100                    LDX0    0,,PR3
        25 002521   000341 100003                    CMPX0   225,DU
        25 002522   002532 601000 25                 TNZ     s:12453
        25 002523   300004 236100                    LDQ     4,,PR3
        25 002524   000004 116100                    CMPQ    4,,PR0
        25 002525   002532 601000 25                 TNZ     s:12453
        25 002526   100004 236100                    LDQ     4,,PR1
        25 002527   000022 772000                    QRL     18
        25 002530   000000 116000 21                 CMPQ    O3COM
PL6.E3A0      #001=Z8GO$GLOBAL_OPTIMIZER File=Z8GO.:Z8A6TSI                      TUE 08/26/97 07:51 Page:126
        25 002531   002571 604000 25                 TMI     s:12463

  12453 25 002532   200015 236100                    LDQ     ILL_ETT$,,AUTO
        25 002533   000004 036003                    ADLQ    4,DU
        25 002534   200062 756100                    STQ     CHAR12+4,,AUTO
        25 002535   200062 630500                    EPPR0   CHAR12+4,,AUTO
        25 002536   000002 631400 26                 EPPR1   2
        25 002537   000000 701000 xent               TSX1    Z8GS$SCAN_MAX
        25 002540   000000 011000                    NOP     0

  12455 25 002541   200015 236100                    LDQ     ILL_ETT$,,AUTO
        25 002542   000004 036003                    ADLQ    4,DU
        25 002543   200062 756100                    STQ     CHAR12+4,,AUTO
        25 002544   200062 630500                    EPPR0   CHAR12+4,,AUTO
        25 002545   000002 631400 26                 EPPR1   2
        25 002546   000000 701000 xent               TSX1    Z8GI$INSERT_EVALP
        25 002547   000000 011000                    NOP     0

  12456 25 002550   200015 470500                    LDP0    ILL_ETT$,,AUTO
        25 002551   000004 471500                    LDP1    4,,PR0
        25 002552   100003 236100                    LDQ     3,,PR1
        25 002553   000000 116000 26                 CMPQ    0
        25 002554   002561 600000 25                 TZE     s:12458
        25 002555   100003 473500                    LDP3    3,,PR1
        25 002556   300000 220100                    LDX0    0,,PR3
        25 002557   000341 100003                    CMPX0   225,DU
        25 002560   002612 600000 25                 TZE     s:12469

  12458 25 002561   000060 234000 xsym               SZN     COMCOM+48
        25 002562   002612 605000 25                 TPL     s:12469

  12459 25 002563   200015 236100                    LDQ     ILL_ETT$,,AUTO
        25 002564   000004 036003                    ADLQ    4,DU
        25 002565   200055 756100                    STQ     BASE_ST$$+2,,AUTO
        25 002566   007117 701000 25                 TSX1    OPTIMIZER_ALERT
        25 002567   000000 011000                    NOP     0

PL6.E3A0      #001=Z8GO$GLOBAL_OPTIMIZER File=Z8GO.:Z8A6TSI                      TUE 08/26/97 07:51 Page:127
  12461 25 002570   002612 710000 25                 TRA     s:12469

  12463 25 002571   100003 236100                    LDQ     3,,PR1
        25 002572   000000 756000 5                  STQ     ILL$

  12464 25 002573   000000 474400 5                  LDP4    ILL$
        25 002574   400000 720100                    LXL0    0,,PR4
        25 002575   000001 621010                    EAX1    1,X0
        25 002576   400000 441100                    SXL1    0,,PR4

  12465 25 002577   000000 720000 21                 LXL0    O3COM
        25 002600   000000 470400 5                  LDP0    ILL$
        25 002601   000005 740100                    STX0    5,,PR0

  12466 25 002602   000001 236100                    LDQ     1,,PR0
        25 002603   000022 732000                    QRS     18
        25 002604   002607 604000 25                 TMI     s:12466+5
        25 002605   000011 116000 21                 CMPQ    O3COM+9
        25 002606   002610 603000 25                 TRC     s:12466+6
        25 002607   000011 236000 21                 LDQ     O3COM+9
        25 002610   000000 621006                    EAX1    0,QL
        25 002611   000001 741100                    STX1    1,,PR0

  12469 25 002612   200015 470500                    LDP0    ILL_ETT$,,AUTO
        25 002613   000004 471500                    LDP1    4,,PR0
        25 002614   100003 473500                    LDP3    3,,PR1
        25 002615   000002 236007                    LDQ     2,DL
        25 002616   300002 256100                    ORSQ    2,,PR3

  12470 25 002617   006612 710000 25                 TRA     s:13833

      620    12472
      621    12473    4     CASE (%TWO_EXPRESSIONS_NO_REDEF) ;

      622    12474
      623    12475    5       IF ILL_ETT$ -> ILL.LOP ~= ADDR(NIL) THEN DO ;

PL6.E3A0      #001=Z8GO$GLOBAL_OPTIMIZER File=Z8GO.:Z8A6TSI                      TUE 08/26/97 07:51 Page:128
  12475 25 002620   000001 236100                    LDQ     1,,PR0
        25 002621   000000 116000 26                 CMPQ    0
        25 002622   002766 600000 25                 TZE     s:12546

      624    12476    6         IF ILL_ETT$ -> ILL.LOP -> ETT.ID <= %LAST_ETT THEN DO ;

  12476 25 002623   000001 471500                    LDP1    1,,PR0
        25 002624   100000 221100                    LDX1    0,,PR1
        25 002625   000202 101003                    CMPX1   130,DU
        25 002626   002766 603000 25                 TRC     s:12546

      625    12477                %INCR_COUNT (OP = LOP, BIT = ARITH,
      626    12478                             COMPUTE_SEQ_ALREADY_COMPUTED = '0'B) ;

  12482 25 002627   000007 100003                    CMPX0   7,DU
        25 002630   002661 600000 25                 TZE     s:12519
        25 002631   000171 100003                    CMPX0   121,DU
        25 002632   002661 600000 25                 TZE     s:12519
        25 002633   000003 100003                    CMPX0   3,DU
        25 002634   002661 600000 25                 TZE     s:12519
        25 002635   000161 100003                    CMPX0   113,DU
        25 002636   002661 600000 25                 TZE     s:12519
        25 002637   000162 100003                    CMPX0   114,DU
        25 002640   002661 600000 25                 TZE     s:12519
        25 002641   000121 100003                    CMPX0   81,DU
        25 002642   002661 600000 25                 TZE     s:12519
        25 002643   000122 100003                    CMPX0   82,DU
        25 002644   002661 600000 25                 TZE     s:12519
        25 002645   000175 100003                    CMPX0   125,DU
        25 002646   002661 600000 25                 TZE     s:12519
        25 002647   000314 235000 xsym               LDA     COMCOM+204
        25 002650   000002 115007                    CMPA    2,DL
        25 002651   002661 605000 25                 TPL     s:12519

  12491 25 002652   200015 236100                    LDQ     ILL_ETT$,,AUTO
        25 002653   000001 036003                    ADLQ    1,DU
        25 002654   200062 756100                    STQ     CHAR12+4,,AUTO
PL6.E3A0      #001=Z8GO$GLOBAL_OPTIMIZER File=Z8GO.:Z8A6TSI                      TUE 08/26/97 07:51 Page:129
        25 002655   200062 630500                    EPPR0   CHAR12+4,,AUTO
        25 002656   000002 631400 26                 EPPR1   2
        25 002657   000000 701000 xent               TSX1    Z8GO$CHECK_OP
        25 002660   000000 011000                    NOP     0

  12519 25 002661   200015 470500                    LDP0    ILL_ETT$,,AUTO
        25 002662   000001 471500                    LDP1    1,,PR0
        25 002663   100003 236100                    LDQ     3,,PR1
        25 002664   000000 116000 26                 CMPQ    0
        25 002665   002701 600000 25                 TZE     s:12524
        25 002666   100003 473500                    LDP3    3,,PR1
        25 002667   300000 220100                    LDX0    0,,PR3
        25 002670   000341 100003                    CMPX0   225,DU
        25 002671   002701 601000 25                 TNZ     s:12524
        25 002672   300004 236100                    LDQ     4,,PR3
        25 002673   000001 116100                    CMPQ    1,,PR0
        25 002674   002701 601000 25                 TNZ     s:12524
        25 002675   100004 236100                    LDQ     4,,PR1
        25 002676   000022 772000                    QRL     18
        25 002677   000000 116000 21                 CMPQ    O3COM
        25 002700   002740 604000 25                 TMI     s:12534

  12524 25 002701   200015 236100                    LDQ     ILL_ETT$,,AUTO
        25 002702   000001 036003                    ADLQ    1,DU
        25 002703   200062 756100                    STQ     CHAR12+4,,AUTO
        25 002704   200062 630500                    EPPR0   CHAR12+4,,AUTO
        25 002705   000002 631400 26                 EPPR1   2
        25 002706   000000 701000 xent               TSX1    Z8GS$SCAN_MAX
        25 002707   000000 011000                    NOP     0

  12526 25 002710   200015 236100                    LDQ     ILL_ETT$,,AUTO
        25 002711   000001 036003                    ADLQ    1,DU
        25 002712   200062 756100                    STQ     CHAR12+4,,AUTO
        25 002713   200062 630500                    EPPR0   CHAR12+4,,AUTO
        25 002714   000002 631400 26                 EPPR1   2
        25 002715   000000 701000 xent               TSX1    Z8GI$INSERT_EVALP
        25 002716   000000 011000                    NOP     0
PL6.E3A0      #001=Z8GO$GLOBAL_OPTIMIZER File=Z8GO.:Z8A6TSI                      TUE 08/26/97 07:51 Page:130

  12527 25 002717   200015 470500                    LDP0    ILL_ETT$,,AUTO
        25 002720   000001 471500                    LDP1    1,,PR0
        25 002721   100003 236100                    LDQ     3,,PR1
        25 002722   000000 116000 26                 CMPQ    0
        25 002723   002730 600000 25                 TZE     s:12529
        25 002724   100003 473500                    LDP3    3,,PR1
        25 002725   300000 220100                    LDX0    0,,PR3
        25 002726   000341 100003                    CMPX0   225,DU
        25 002727   002761 600000 25                 TZE     s:12540

  12529 25 002730   000060 234000 xsym               SZN     COMCOM+48
        25 002731   002761 605000 25                 TPL     s:12540

  12530 25 002732   200015 236100                    LDQ     ILL_ETT$,,AUTO
        25 002733   000001 036003                    ADLQ    1,DU
        25 002734   200055 756100                    STQ     BASE_ST$$+2,,AUTO
        25 002735   007117 701000 25                 TSX1    OPTIMIZER_ALERT
        25 002736   000000 011000                    NOP     0

  12532 25 002737   002761 710000 25                 TRA     s:12540

  12534 25 002740   100003 236100                    LDQ     3,,PR1
        25 002741   000000 756000 5                  STQ     ILL$

  12535 25 002742   000000 474400 5                  LDP4    ILL$
        25 002743   400000 720100                    LXL0    0,,PR4
        25 002744   000001 621010                    EAX1    1,X0
        25 002745   400000 441100                    SXL1    0,,PR4

  12536 25 002746   000000 720000 21                 LXL0    O3COM
        25 002747   000000 470400 5                  LDP0    ILL$
        25 002750   000005 740100                    STX0    5,,PR0

  12537 25 002751   000001 236100                    LDQ     1,,PR0
        25 002752   000022 732000                    QRS     18
        25 002753   002756 604000 25                 TMI     s:12537+5
PL6.E3A0      #001=Z8GO$GLOBAL_OPTIMIZER File=Z8GO.:Z8A6TSI                      TUE 08/26/97 07:51 Page:131
        25 002754   000011 116000 21                 CMPQ    O3COM+9
        25 002755   002757 603000 25                 TRC     s:12537+6
        25 002756   000011 236000 21                 LDQ     O3COM+9
        25 002757   000000 621006                    EAX1    0,QL
        25 002760   000001 741100                    STX1    1,,PR0

  12540 25 002761   200015 470500                    LDP0    ILL_ETT$,,AUTO
        25 002762   000001 471500                    LDP1    1,,PR0
        25 002763   100003 473500                    LDP3    3,,PR1
        25 002764   000002 236007                    LDQ     2,DL
        25 002765   300002 256100                    ORSQ    2,,PR3

      627    12543    6         END ; /* LOP is an ETT item */

      628    12544    5       END ; /* LOP exists */

      629    12545
      630    12546    5       IF ILL_ETT$ -> ILL.ROP ~= ADDR(NIL) THEN DO ;

  12546 25 002766   200015 470500                    LDP0    ILL_ETT$,,AUTO
        25 002767   000002 236100                    LDQ     2,,PR0
        25 002770   000000 116000 26                 CMPQ    0
        25 002771   006612 600000 25                 TZE     s:13833

      631    12547              %INCR_COUNT (OP = ROP, BIT = ARITH,
      632    12548                           COMPUTE_SEQ_ALREADY_COMPUTED = '0'B) ;

  12564 25 002772   000000 220100                    LDX0    0,,PR0
        25 002773   000121 100003                    CMPX0   81,DU
        25 002774   003011 600000 25                 TZE     s:12573
        25 002775   000255 100003                    CMPX0   173,DU
        25 002776   003011 600000 25                 TZE     s:12573
        25 002777   000314 235000 xsym               LDA     COMCOM+204
        25 003000   000002 115007                    CMPA    2,DL
        25 003001   003011 605000 25                 TPL     s:12573

  12567 25 003002   200015 236100                    LDQ     ILL_ETT$,,AUTO
PL6.E3A0      #001=Z8GO$GLOBAL_OPTIMIZER File=Z8GO.:Z8A6TSI                      TUE 08/26/97 07:51 Page:132
        25 003003   000002 036003                    ADLQ    2,DU
        25 003004   200062 756100                    STQ     CHAR12+4,,AUTO
        25 003005   200062 630500                    EPPR0   CHAR12+4,,AUTO
        25 003006   000002 631400 26                 EPPR1   2
        25 003007   000000 701000 xent               TSX1    Z8GO$CHECK_OP
        25 003010   000000 011000                    NOP     0

  12573 25 003011   200015 470500                    LDP0    ILL_ETT$,,AUTO
        25 003012   000000 220100                    LDX0    0,,PR0
        25 003013   000245 100003                    CMPX0   165,DU
        25 003014   003027 601000 25                 TNZ     s:12578
        25 003015   000002 471500                    LDP1    2,,PR0
        25 003016   100000 221100                    LDX1    0,,PR1
        25 003017   000132 101003                    CMPX1   90,DU
        25 003020   003027 601000 25                 TNZ     s:12578

  12575 25 003021   000266 222003                    LDX2    182,DU
        25 003022   000000 742100                    STX2    0,,PR0

  12576 25 003023   200015 470500                    LDP0    ILL_ETT$,,AUTO
        25 003024   000002 471500                    LDP1    2,,PR0
        25 003025   100001 236100                    LDQ     1,,PR1
        25 003026   000002 756100                    STQ     2,,PR0

  12578 25 003027   200015 470500                    LDP0    ILL_ETT$,,AUTO
        25 003030   000000 220100                    LDX0    0,,PR0
        25 003031   000243 100003                    CMPX0   163,DU
        25 003032   003072 601000 25                 TNZ     s:12596
        25 003033   000002 471500                    LDP1    2,,PR0
        25 003034   100000 221100                    LDX1    0,,PR1
        25 003035   000126 101003                    CMPX1   86,DU
        25 003036   003041 600000 25                 TZE     s:12581
        25 003037   000036 101003                    CMPX1   30,DU
        25 003040   003072 601000 25                 TNZ     s:12596

  12581 25 003041   000001 236100                    LDQ     1,,PR0
        25 003042   200025 756100                    STQ     LOP$$$,,AUTO
PL6.E3A0      #001=Z8GO$GLOBAL_OPTIMIZER File=Z8GO.:Z8A6TSI                      TUE 08/26/97 07:51 Page:133

  12584 25 003043   200034 756100                    STQ     ST$$$,,AUTO

  12585 25 003044   200034 473500                    LDP3    ST$$$,,AUTO
        25 003045   300000 222100                    LDX2    0,,PR3
        25 003046   000751 102003                    CMPX2   489,DU
        25 003047   003057 603000 25                 TRC     s:12590

  12586 25 003050   200034 470500                    LDP0    ST$$$,,AUTO
        25 003051   000001 236100                    LDQ     1,,PR0
        25 003052   200034 756100                    STQ     ST$$$,,AUTO

  12587 25 003053   200034 470500                    LDP0    ST$$$,,AUTO
        25 003054   000000 220100                    LDX0    0,,PR0
        25 003055   000751 100003                    CMPX0   489,DU
        25 003056   003050 602000 25                 TNC     s:12586

  12590 25 003057   200034 470500                    LDP0    ST$$$,,AUTO
        25 003060   000001 236100                    LDQ     1,,PR0
        25 003061   007700 316007                    CANQ    4032,DL
        25 003062   003072 601000 25                 TNZ     s:12596

  12591 25 003063   000252 220003                    LDX0    170,DU
        25 003064   200015 471500                    LDP1    ILL_ETT$,,AUTO
        25 003065   100000 740100                    STX0    0,,PR1

  12592 25 003066   200015 471500                    LDP1    ILL_ETT$,,AUTO
        25 003067   100002 473500                    LDP3    2,,PR1
        25 003070   300001 236100                    LDQ     1,,PR3
        25 003071   100002 756100                    STQ     2,,PR1

  12596 25 003072   200015 470500                    LDP0    ILL_ETT$,,AUTO
        25 003073   000002 471500                    LDP1    2,,PR0
        25 003074   100003 236100                    LDQ     3,,PR1
        25 003075   000000 116000 26                 CMPQ    0
        25 003076   003112 600000 25                 TZE     s:12601
        25 003077   100003 473500                    LDP3    3,,PR1
PL6.E3A0      #001=Z8GO$GLOBAL_OPTIMIZER File=Z8GO.:Z8A6TSI                      TUE 08/26/97 07:51 Page:134
        25 003100   300000 220100                    LDX0    0,,PR3
        25 003101   000341 100003                    CMPX0   225,DU
        25 003102   003112 601000 25                 TNZ     s:12601
        25 003103   300004 236100                    LDQ     4,,PR3
        25 003104   000002 116100                    CMPQ    2,,PR0
        25 003105   003112 601000 25                 TNZ     s:12601
        25 003106   100004 236100                    LDQ     4,,PR1
        25 003107   000022 772000                    QRL     18
        25 003110   000000 116000 21                 CMPQ    O3COM
        25 003111   003151 604000 25                 TMI     s:12611

  12601 25 003112   200015 236100                    LDQ     ILL_ETT$,,AUTO
        25 003113   000002 036003                    ADLQ    2,DU
        25 003114   200062 756100                    STQ     CHAR12+4,,AUTO
        25 003115   200062 630500                    EPPR0   CHAR12+4,,AUTO
        25 003116   000002 631400 26                 EPPR1   2
        25 003117   000000 701000 xent               TSX1    Z8GS$SCAN_MAX
        25 003120   000000 011000                    NOP     0

  12603 25 003121   200015 236100                    LDQ     ILL_ETT$,,AUTO
        25 003122   000002 036003                    ADLQ    2,DU
        25 003123   200062 756100                    STQ     CHAR12+4,,AUTO
        25 003124   200062 630500                    EPPR0   CHAR12+4,,AUTO
        25 003125   000002 631400 26                 EPPR1   2
        25 003126   000000 701000 xent               TSX1    Z8GI$INSERT_EVALP
        25 003127   000000 011000                    NOP     0

  12604 25 003130   200015 470500                    LDP0    ILL_ETT$,,AUTO
        25 003131   000002 471500                    LDP1    2,,PR0
        25 003132   100003 236100                    LDQ     3,,PR1
        25 003133   000000 116000 26                 CMPQ    0
        25 003134   003141 600000 25                 TZE     s:12606
        25 003135   100003 473500                    LDP3    3,,PR1
        25 003136   300000 220100                    LDX0    0,,PR3
        25 003137   000341 100003                    CMPX0   225,DU
        25 003140   003172 600000 25                 TZE     s:12617

PL6.E3A0      #001=Z8GO$GLOBAL_OPTIMIZER File=Z8GO.:Z8A6TSI                      TUE 08/26/97 07:51 Page:135
  12606 25 003141   000060 234000 xsym               SZN     COMCOM+48
        25 003142   003172 605000 25                 TPL     s:12617

  12607 25 003143   200015 236100                    LDQ     ILL_ETT$,,AUTO
        25 003144   000002 036003                    ADLQ    2,DU
        25 003145   200055 756100                    STQ     BASE_ST$$+2,,AUTO
        25 003146   007117 701000 25                 TSX1    OPTIMIZER_ALERT
        25 003147   000000 011000                    NOP     0

  12609 25 003150   003172 710000 25                 TRA     s:12617

  12611 25 003151   100003 236100                    LDQ     3,,PR1
        25 003152   000000 756000 5                  STQ     ILL$

  12612 25 003153   000000 474400 5                  LDP4    ILL$
        25 003154   400000 720100                    LXL0    0,,PR4
        25 003155   000001 621010                    EAX1    1,X0
        25 003156   400000 441100                    SXL1    0,,PR4

  12613 25 003157   000000 720000 21                 LXL0    O3COM
        25 003160   000000 470400 5                  LDP0    ILL$
        25 003161   000005 740100                    STX0    5,,PR0

  12614 25 003162   000001 236100                    LDQ     1,,PR0
        25 003163   000022 732000                    QRS     18
        25 003164   003167 604000 25                 TMI     s:12614+5
        25 003165   000011 116000 21                 CMPQ    O3COM+9
        25 003166   003170 603000 25                 TRC     s:12614+6
        25 003167   000011 236000 21                 LDQ     O3COM+9
        25 003170   000000 621006                    EAX1    0,QL
        25 003171   000001 741100                    STX1    1,,PR0

  12617 25 003172   200015 470500                    LDP0    ILL_ETT$,,AUTO
        25 003173   000002 471500                    LDP1    2,,PR0
        25 003174   100003 473500                    LDP3    3,,PR1
        25 003175   000002 236007                    LDQ     2,DL
        25 003176   300002 256100                    ORSQ    2,,PR3
PL6.E3A0      #001=Z8GO$GLOBAL_OPTIMIZER File=Z8GO.:Z8A6TSI                      TUE 08/26/97 07:51 Page:136

      633    12620    5       END ; /* ROP exists */

  12620 25 003177   006612 710000 25                 TRA     s:13833

      634    12621
      635    12622    4     CASE (%TWO_EXPRESSIONS_LOP_REDEF) ;

      636    12623
      637    12624    5       IF ILL_ETT$ -> ILL.ROP ~= ADDR(NIL) THEN DO ;

  12624 25 003200   000002 236100                    LDQ     2,,PR0
        25 003201   000000 116000 26                 CMPQ    0
        25 003202   006612 600000 25                 TZE     s:13833

      638    12625              %INCR_COUNT (OP = ROP, BIT = ARITH,
      639    12626                           COMPUTE_SEQ_ALREADY_COMPUTED = '0'B) ;

  12642 25 003203   000121 100003                    CMPX0   81,DU
        25 003204   003221 600000 25                 TZE     s:12651
        25 003205   000255 100003                    CMPX0   173,DU
        25 003206   003221 600000 25                 TZE     s:12651
        25 003207   000314 235000 xsym               LDA     COMCOM+204
        25 003210   000002 115007                    CMPA    2,DL
        25 003211   003221 605000 25                 TPL     s:12651

  12645 25 003212   200015 236100                    LDQ     ILL_ETT$,,AUTO
        25 003213   000002 036003                    ADLQ    2,DU
        25 003214   200062 756100                    STQ     CHAR12+4,,AUTO
        25 003215   200062 630500                    EPPR0   CHAR12+4,,AUTO
        25 003216   000002 631400 26                 EPPR1   2
        25 003217   000000 701000 xent               TSX1    Z8GO$CHECK_OP
        25 003220   000000 011000                    NOP     0

  12651 25 003221   200015 470500                    LDP0    ILL_ETT$,,AUTO
        25 003222   000000 220100                    LDX0    0,,PR0
        25 003223   000245 100003                    CMPX0   165,DU
PL6.E3A0      #001=Z8GO$GLOBAL_OPTIMIZER File=Z8GO.:Z8A6TSI                      TUE 08/26/97 07:51 Page:137
        25 003224   003237 601000 25                 TNZ     s:12656
        25 003225   000002 471500                    LDP1    2,,PR0
        25 003226   100000 221100                    LDX1    0,,PR1
        25 003227   000132 101003                    CMPX1   90,DU
        25 003230   003237 601000 25                 TNZ     s:12656

  12653 25 003231   000266 222003                    LDX2    182,DU
        25 003232   000000 742100                    STX2    0,,PR0

  12654 25 003233   200015 470500                    LDP0    ILL_ETT$,,AUTO
        25 003234   000002 471500                    LDP1    2,,PR0
        25 003235   100001 236100                    LDQ     1,,PR1
        25 003236   000002 756100                    STQ     2,,PR0

  12656 25 003237   200015 470500                    LDP0    ILL_ETT$,,AUTO
        25 003240   000000 220100                    LDX0    0,,PR0
        25 003241   000243 100003                    CMPX0   163,DU
        25 003242   003302 601000 25                 TNZ     s:12674
        25 003243   000002 471500                    LDP1    2,,PR0
        25 003244   100000 221100                    LDX1    0,,PR1
        25 003245   000126 101003                    CMPX1   86,DU
        25 003246   003251 600000 25                 TZE     s:12659
        25 003247   000036 101003                    CMPX1   30,DU
        25 003250   003302 601000 25                 TNZ     s:12674

  12659 25 003251   000001 236100                    LDQ     1,,PR0
        25 003252   200025 756100                    STQ     LOP$$$,,AUTO

  12662 25 003253   200034 756100                    STQ     ST$$$,,AUTO

  12663 25 003254   200034 473500                    LDP3    ST$$$,,AUTO
        25 003255   300000 222100                    LDX2    0,,PR3
        25 003256   000751 102003                    CMPX2   489,DU
        25 003257   003267 603000 25                 TRC     s:12668

  12664 25 003260   200034 470500                    LDP0    ST$$$,,AUTO
        25 003261   000001 236100                    LDQ     1,,PR0
PL6.E3A0      #001=Z8GO$GLOBAL_OPTIMIZER File=Z8GO.:Z8A6TSI                      TUE 08/26/97 07:51 Page:138
        25 003262   200034 756100                    STQ     ST$$$,,AUTO

  12665 25 003263   200034 470500                    LDP0    ST$$$,,AUTO
        25 003264   000000 220100                    LDX0    0,,PR0
        25 003265   000751 100003                    CMPX0   489,DU
        25 003266   003260 602000 25                 TNC     s:12664

  12668 25 003267   200034 470500                    LDP0    ST$$$,,AUTO
        25 003270   000001 236100                    LDQ     1,,PR0
        25 003271   007700 316007                    CANQ    4032,DL
        25 003272   003302 601000 25                 TNZ     s:12674

  12669 25 003273   000252 220003                    LDX0    170,DU
        25 003274   200015 471500                    LDP1    ILL_ETT$,,AUTO
        25 003275   100000 740100                    STX0    0,,PR1

  12670 25 003276   200015 471500                    LDP1    ILL_ETT$,,AUTO
        25 003277   100002 473500                    LDP3    2,,PR1
        25 003300   300001 236100                    LDQ     1,,PR3
        25 003301   100002 756100                    STQ     2,,PR1

  12674 25 003302   200015 470500                    LDP0    ILL_ETT$,,AUTO
        25 003303   000002 471500                    LDP1    2,,PR0
        25 003304   100003 236100                    LDQ     3,,PR1
        25 003305   000000 116000 26                 CMPQ    0
        25 003306   003322 600000 25                 TZE     s:12679
        25 003307   100003 473500                    LDP3    3,,PR1
        25 003310   300000 220100                    LDX0    0,,PR3
        25 003311   000341 100003                    CMPX0   225,DU
        25 003312   003322 601000 25                 TNZ     s:12679
        25 003313   300004 236100                    LDQ     4,,PR3
        25 003314   000002 116100                    CMPQ    2,,PR0
        25 003315   003322 601000 25                 TNZ     s:12679
        25 003316   100004 236100                    LDQ     4,,PR1
        25 003317   000022 772000                    QRL     18
        25 003320   000000 116000 21                 CMPQ    O3COM
        25 003321   003361 604000 25                 TMI     s:12689
PL6.E3A0      #001=Z8GO$GLOBAL_OPTIMIZER File=Z8GO.:Z8A6TSI                      TUE 08/26/97 07:51 Page:139

  12679 25 003322   200015 236100                    LDQ     ILL_ETT$,,AUTO
        25 003323   000002 036003                    ADLQ    2,DU
        25 003324   200062 756100                    STQ     CHAR12+4,,AUTO
        25 003325   200062 630500                    EPPR0   CHAR12+4,,AUTO
        25 003326   000002 631400 26                 EPPR1   2
        25 003327   000000 701000 xent               TSX1    Z8GS$SCAN_MAX
        25 003330   000000 011000                    NOP     0

  12681 25 003331   200015 236100                    LDQ     ILL_ETT$,,AUTO
        25 003332   000002 036003                    ADLQ    2,DU
        25 003333   200062 756100                    STQ     CHAR12+4,,AUTO
        25 003334   200062 630500                    EPPR0   CHAR12+4,,AUTO
        25 003335   000002 631400 26                 EPPR1   2
        25 003336   000000 701000 xent               TSX1    Z8GI$INSERT_EVALP
        25 003337   000000 011000                    NOP     0

  12682 25 003340   200015 470500                    LDP0    ILL_ETT$,,AUTO
        25 003341   000002 471500                    LDP1    2,,PR0
        25 003342   100003 236100                    LDQ     3,,PR1
        25 003343   000000 116000 26                 CMPQ    0
        25 003344   003351 600000 25                 TZE     s:12684
        25 003345   100003 473500                    LDP3    3,,PR1
        25 003346   300000 220100                    LDX0    0,,PR3
        25 003347   000341 100003                    CMPX0   225,DU
        25 003350   003402 600000 25                 TZE     s:12695

  12684 25 003351   000060 234000 xsym               SZN     COMCOM+48
        25 003352   003402 605000 25                 TPL     s:12695

  12685 25 003353   200015 236100                    LDQ     ILL_ETT$,,AUTO
        25 003354   000002 036003                    ADLQ    2,DU
        25 003355   200055 756100                    STQ     BASE_ST$$+2,,AUTO
        25 003356   007117 701000 25                 TSX1    OPTIMIZER_ALERT
        25 003357   000000 011000                    NOP     0

  12687 25 003360   003402 710000 25                 TRA     s:12695
PL6.E3A0      #001=Z8GO$GLOBAL_OPTIMIZER File=Z8GO.:Z8A6TSI                      TUE 08/26/97 07:51 Page:140

  12689 25 003361   100003 236100                    LDQ     3,,PR1
        25 003362   000000 756000 5                  STQ     ILL$

  12690 25 003363   000000 474400 5                  LDP4    ILL$
        25 003364   400000 720100                    LXL0    0,,PR4
        25 003365   000001 621010                    EAX1    1,X0
        25 003366   400000 441100                    SXL1    0,,PR4

  12691 25 003367   000000 720000 21                 LXL0    O3COM
        25 003370   000000 470400 5                  LDP0    ILL$
        25 003371   000005 740100                    STX0    5,,PR0

  12692 25 003372   000001 236100                    LDQ     1,,PR0
        25 003373   000022 732000                    QRS     18
        25 003374   003377 604000 25                 TMI     s:12692+5
        25 003375   000011 116000 21                 CMPQ    O3COM+9
        25 003376   003400 603000 25                 TRC     s:12692+6
        25 003377   000011 236000 21                 LDQ     O3COM+9
        25 003400   000000 621006                    EAX1    0,QL
        25 003401   000001 741100                    STX1    1,,PR0

  12695 25 003402   200015 470500                    LDP0    ILL_ETT$,,AUTO
        25 003403   000002 471500                    LDP1    2,,PR0
        25 003404   100003 473500                    LDP3    3,,PR1
        25 003405   000002 236007                    LDQ     2,DL
        25 003406   300002 256100                    ORSQ    2,,PR3

      640    12698    5       END ; /* ROP exists */

  12698 25 003407   006612 710000 25                 TRA     s:13833

      641    12699
      642    12700    4     CASE (%THREE_EXPRESSIONS_TO_REDEF,

      643    12701    4           %FOUR_EXPRESSIONS_TWO_REDEFS) ;
      644    12702
PL6.E3A0      #001=Z8GO$GLOBAL_OPTIMIZER File=Z8GO.:Z8A6TSI                      TUE 08/26/97 07:51 Page:141
      645    12703    5       IF ILL_ETT$ -> ILL.LOP ~= ADDR(NIL) THEN DO ;

  12703 25 003410   000001 236100                    LDQ     1,,PR0
        25 003411   000000 116000 26                 CMPQ    0
        25 003412   003556 600000 25                 TZE     s:12774

      646    12704    6         IF ILL_ETT$ -> ILL.LOP -> ETT.ID <= %LAST_ETT THEN DO ;

  12704 25 003413   000001 471500                    LDP1    1,,PR0
        25 003414   100000 221100                    LDX1    0,,PR1
        25 003415   000202 101003                    CMPX1   130,DU
        25 003416   003556 603000 25                 TRC     s:12774

      647    12705                %INCR_COUNT (OP = LOP, BIT = ARITH,
      648    12706                             COMPUTE_SEQ_ALREADY_COMPUTED = '0'B) ;

  12710 25 003417   000007 100003                    CMPX0   7,DU
        25 003420   003451 600000 25                 TZE     s:12747
        25 003421   000171 100003                    CMPX0   121,DU
        25 003422   003451 600000 25                 TZE     s:12747
        25 003423   000003 100003                    CMPX0   3,DU
        25 003424   003451 600000 25                 TZE     s:12747
        25 003425   000161 100003                    CMPX0   113,DU
        25 003426   003451 600000 25                 TZE     s:12747
        25 003427   000162 100003                    CMPX0   114,DU
        25 003430   003451 600000 25                 TZE     s:12747
        25 003431   000121 100003                    CMPX0   81,DU
        25 003432   003451 600000 25                 TZE     s:12747
        25 003433   000122 100003                    CMPX0   82,DU
        25 003434   003451 600000 25                 TZE     s:12747
        25 003435   000175 100003                    CMPX0   125,DU
        25 003436   003451 600000 25                 TZE     s:12747
        25 003437   000314 235000 xsym               LDA     COMCOM+204
        25 003440   000002 115007                    CMPA    2,DL
        25 003441   003451 605000 25                 TPL     s:12747

  12719 25 003442   200015 236100                    LDQ     ILL_ETT$,,AUTO
PL6.E3A0      #001=Z8GO$GLOBAL_OPTIMIZER File=Z8GO.:Z8A6TSI                      TUE 08/26/97 07:51 Page:142
        25 003443   000001 036003                    ADLQ    1,DU
        25 003444   200062 756100                    STQ     CHAR12+4,,AUTO
        25 003445   200062 630500                    EPPR0   CHAR12+4,,AUTO
        25 003446   000002 631400 26                 EPPR1   2
        25 003447   000000 701000 xent               TSX1    Z8GO$CHECK_OP
        25 003450   000000 011000                    NOP     0

  12747 25 003451   200015 470500                    LDP0    ILL_ETT$,,AUTO
        25 003452   000001 471500                    LDP1    1,,PR0
        25 003453   100003 236100                    LDQ     3,,PR1
        25 003454   000000 116000 26                 CMPQ    0
        25 003455   003471 600000 25                 TZE     s:12752
        25 003456   100003 473500                    LDP3    3,,PR1
        25 003457   300000 220100                    LDX0    0,,PR3
        25 003460   000341 100003                    CMPX0   225,DU
        25 003461   003471 601000 25                 TNZ     s:12752
        25 003462   300004 236100                    LDQ     4,,PR3
        25 003463   000001 116100                    CMPQ    1,,PR0
        25 003464   003471 601000 25                 TNZ     s:12752
        25 003465   100004 236100                    LDQ     4,,PR1
        25 003466   000022 772000                    QRL     18
        25 003467   000000 116000 21                 CMPQ    O3COM
        25 003470   003530 604000 25                 TMI     s:12762

  12752 25 003471   200015 236100                    LDQ     ILL_ETT$,,AUTO
        25 003472   000001 036003                    ADLQ    1,DU
        25 003473   200062 756100                    STQ     CHAR12+4,,AUTO
        25 003474   200062 630500                    EPPR0   CHAR12+4,,AUTO
        25 003475   000002 631400 26                 EPPR1   2
        25 003476   000000 701000 xent               TSX1    Z8GS$SCAN_MAX
        25 003477   000000 011000                    NOP     0

  12754 25 003500   200015 236100                    LDQ     ILL_ETT$,,AUTO
        25 003501   000001 036003                    ADLQ    1,DU
        25 003502   200062 756100                    STQ     CHAR12+4,,AUTO
        25 003503   200062 630500                    EPPR0   CHAR12+4,,AUTO
        25 003504   000002 631400 26                 EPPR1   2
PL6.E3A0      #001=Z8GO$GLOBAL_OPTIMIZER File=Z8GO.:Z8A6TSI                      TUE 08/26/97 07:51 Page:143
        25 003505   000000 701000 xent               TSX1    Z8GI$INSERT_EVALP
        25 003506   000000 011000                    NOP     0

  12755 25 003507   200015 470500                    LDP0    ILL_ETT$,,AUTO
        25 003510   000001 471500                    LDP1    1,,PR0
        25 003511   100003 236100                    LDQ     3,,PR1
        25 003512   000000 116000 26                 CMPQ    0
        25 003513   003520 600000 25                 TZE     s:12757
        25 003514   100003 473500                    LDP3    3,,PR1
        25 003515   300000 220100                    LDX0    0,,PR3
        25 003516   000341 100003                    CMPX0   225,DU
        25 003517   003551 600000 25                 TZE     s:12768

  12757 25 003520   000060 234000 xsym               SZN     COMCOM+48
        25 003521   003551 605000 25                 TPL     s:12768

  12758 25 003522   200015 236100                    LDQ     ILL_ETT$,,AUTO
        25 003523   000001 036003                    ADLQ    1,DU
        25 003524   200055 756100                    STQ     BASE_ST$$+2,,AUTO
        25 003525   007117 701000 25                 TSX1    OPTIMIZER_ALERT
        25 003526   000000 011000                    NOP     0

  12760 25 003527   003551 710000 25                 TRA     s:12768

  12762 25 003530   100003 236100                    LDQ     3,,PR1
        25 003531   000000 756000 5                  STQ     ILL$

  12763 25 003532   000000 474400 5                  LDP4    ILL$
        25 003533   400000 720100                    LXL0    0,,PR4
        25 003534   000001 621010                    EAX1    1,X0
        25 003535   400000 441100                    SXL1    0,,PR4

  12764 25 003536   000000 720000 21                 LXL0    O3COM
        25 003537   000000 470400 5                  LDP0    ILL$
        25 003540   000005 740100                    STX0    5,,PR0

  12765 25 003541   000001 236100                    LDQ     1,,PR0
PL6.E3A0      #001=Z8GO$GLOBAL_OPTIMIZER File=Z8GO.:Z8A6TSI                      TUE 08/26/97 07:51 Page:144
        25 003542   000022 732000                    QRS     18
        25 003543   003546 604000 25                 TMI     s:12765+5
        25 003544   000011 116000 21                 CMPQ    O3COM+9
        25 003545   003547 603000 25                 TRC     s:12765+6
        25 003546   000011 236000 21                 LDQ     O3COM+9
        25 003547   000000 621006                    EAX1    0,QL
        25 003550   000001 741100                    STX1    1,,PR0

  12768 25 003551   200015 470500                    LDP0    ILL_ETT$,,AUTO
        25 003552   000001 471500                    LDP1    1,,PR0
        25 003553   100003 473500                    LDP3    3,,PR1
        25 003554   000002 236007                    LDQ     2,DL
        25 003555   300002 256100                    ORSQ    2,,PR3

      649    12771    6         END ; /* LOP is an ETT item */

      650    12772    5       END ; /* LOP exists */

      651    12773
      652    12774    5       IF ILL_ETT$ -> ILL.ROP ~= ADDR(NIL) THEN DO ;

  12774 25 003556   200015 470500                    LDP0    ILL_ETT$,,AUTO
        25 003557   000002 236100                    LDQ     2,,PR0
        25 003560   000000 116000 26                 CMPQ    0
        25 003561   006612 600000 25                 TZE     s:13833

      653    12775    6         IF ILL_ETT$ -> ILL.ROP -> ETT.ID <= %LAST_ETT THEN DO ;

  12775 25 003562   000002 471500                    LDP1    2,,PR0
        25 003563   100000 220100                    LDX0    0,,PR1
        25 003564   000202 100003                    CMPX0   130,DU
        25 003565   006612 603000 25                 TRC     s:13833

      654    12776                %INCR_COUNT (OP = ROP, BIT = ARITH,
      655    12777                             COMPUTE_SEQ_ALREADY_COMPUTED = '0'B) ;

  12793 25 003566   000000 221100                    LDX1    0,,PR0
PL6.E3A0      #001=Z8GO$GLOBAL_OPTIMIZER File=Z8GO.:Z8A6TSI                      TUE 08/26/97 07:51 Page:145
        25 003567   000121 101003                    CMPX1   81,DU
        25 003570   003605 600000 25                 TZE     s:12802
        25 003571   000255 101003                    CMPX1   173,DU
        25 003572   003605 600000 25                 TZE     s:12802
        25 003573   000314 235000 xsym               LDA     COMCOM+204
        25 003574   000002 115007                    CMPA    2,DL
        25 003575   003605 605000 25                 TPL     s:12802

  12796 25 003576   200015 236100                    LDQ     ILL_ETT$,,AUTO
        25 003577   000002 036003                    ADLQ    2,DU
        25 003600   200062 756100                    STQ     CHAR12+4,,AUTO
        25 003601   200062 630500                    EPPR0   CHAR12+4,,AUTO
        25 003602   000002 631400 26                 EPPR1   2
        25 003603   000000 701000 xent               TSX1    Z8GO$CHECK_OP
        25 003604   000000 011000                    NOP     0

  12802 25 003605   200015 470500                    LDP0    ILL_ETT$,,AUTO
        25 003606   000000 220100                    LDX0    0,,PR0
        25 003607   000245 100003                    CMPX0   165,DU
        25 003610   003623 601000 25                 TNZ     s:12807
        25 003611   000002 471500                    LDP1    2,,PR0
        25 003612   100000 221100                    LDX1    0,,PR1
        25 003613   000132 101003                    CMPX1   90,DU
        25 003614   003623 601000 25                 TNZ     s:12807

  12804 25 003615   000266 222003                    LDX2    182,DU
        25 003616   000000 742100                    STX2    0,,PR0

  12805 25 003617   200015 470500                    LDP0    ILL_ETT$,,AUTO
        25 003620   000002 471500                    LDP1    2,,PR0
        25 003621   100001 236100                    LDQ     1,,PR1
        25 003622   000002 756100                    STQ     2,,PR0

  12807 25 003623   200015 470500                    LDP0    ILL_ETT$,,AUTO
        25 003624   000000 220100                    LDX0    0,,PR0
        25 003625   000243 100003                    CMPX0   163,DU
        25 003626   003666 601000 25                 TNZ     s:12825
PL6.E3A0      #001=Z8GO$GLOBAL_OPTIMIZER File=Z8GO.:Z8A6TSI                      TUE 08/26/97 07:51 Page:146
        25 003627   000002 471500                    LDP1    2,,PR0
        25 003630   100000 221100                    LDX1    0,,PR1
        25 003631   000126 101003                    CMPX1   86,DU
        25 003632   003635 600000 25                 TZE     s:12810
        25 003633   000036 101003                    CMPX1   30,DU
        25 003634   003666 601000 25                 TNZ     s:12825

  12810 25 003635   000001 236100                    LDQ     1,,PR0
        25 003636   200025 756100                    STQ     LOP$$$,,AUTO

  12813 25 003637   200034 756100                    STQ     ST$$$,,AUTO

  12814 25 003640   200034 473500                    LDP3    ST$$$,,AUTO
        25 003641   300000 222100                    LDX2    0,,PR3
        25 003642   000751 102003                    CMPX2   489,DU
        25 003643   003653 603000 25                 TRC     s:12819

  12815 25 003644   200034 470500                    LDP0    ST$$$,,AUTO
        25 003645   000001 236100                    LDQ     1,,PR0
        25 003646   200034 756100                    STQ     ST$$$,,AUTO

  12816 25 003647   200034 470500                    LDP0    ST$$$,,AUTO
        25 003650   000000 220100                    LDX0    0,,PR0
        25 003651   000751 100003                    CMPX0   489,DU
        25 003652   003644 602000 25                 TNC     s:12815

  12819 25 003653   200034 470500                    LDP0    ST$$$,,AUTO
        25 003654   000001 236100                    LDQ     1,,PR0
        25 003655   007700 316007                    CANQ    4032,DL
        25 003656   003666 601000 25                 TNZ     s:12825

  12820 25 003657   000252 220003                    LDX0    170,DU
        25 003660   200015 471500                    LDP1    ILL_ETT$,,AUTO
        25 003661   100000 740100                    STX0    0,,PR1

  12821 25 003662   200015 471500                    LDP1    ILL_ETT$,,AUTO
        25 003663   100002 473500                    LDP3    2,,PR1
PL6.E3A0      #001=Z8GO$GLOBAL_OPTIMIZER File=Z8GO.:Z8A6TSI                      TUE 08/26/97 07:51 Page:147
        25 003664   300001 236100                    LDQ     1,,PR3
        25 003665   100002 756100                    STQ     2,,PR1

  12825 25 003666   200015 470500                    LDP0    ILL_ETT$,,AUTO
        25 003667   000002 471500                    LDP1    2,,PR0
        25 003670   100003 236100                    LDQ     3,,PR1
        25 003671   000000 116000 26                 CMPQ    0
        25 003672   003706 600000 25                 TZE     s:12830
        25 003673   100003 473500                    LDP3    3,,PR1
        25 003674   300000 220100                    LDX0    0,,PR3
        25 003675   000341 100003                    CMPX0   225,DU
        25 003676   003706 601000 25                 TNZ     s:12830
        25 003677   300004 236100                    LDQ     4,,PR3
        25 003700   000002 116100                    CMPQ    2,,PR0
        25 003701   003706 601000 25                 TNZ     s:12830
        25 003702   100004 236100                    LDQ     4,,PR1
        25 003703   000022 772000                    QRL     18
        25 003704   000000 116000 21                 CMPQ    O3COM
        25 003705   003745 604000 25                 TMI     s:12840

  12830 25 003706   200015 236100                    LDQ     ILL_ETT$,,AUTO
        25 003707   000002 036003                    ADLQ    2,DU
        25 003710   200062 756100                    STQ     CHAR12+4,,AUTO
        25 003711   200062 630500                    EPPR0   CHAR12+4,,AUTO
        25 003712   000002 631400 26                 EPPR1   2
        25 003713   000000 701000 xent               TSX1    Z8GS$SCAN_MAX
        25 003714   000000 011000                    NOP     0

  12832 25 003715   200015 236100                    LDQ     ILL_ETT$,,AUTO
        25 003716   000002 036003                    ADLQ    2,DU
        25 003717   200062 756100                    STQ     CHAR12+4,,AUTO
        25 003720   200062 630500                    EPPR0   CHAR12+4,,AUTO
        25 003721   000002 631400 26                 EPPR1   2
        25 003722   000000 701000 xent               TSX1    Z8GI$INSERT_EVALP
        25 003723   000000 011000                    NOP     0

  12833 25 003724   200015 470500                    LDP0    ILL_ETT$,,AUTO
PL6.E3A0      #001=Z8GO$GLOBAL_OPTIMIZER File=Z8GO.:Z8A6TSI                      TUE 08/26/97 07:51 Page:148
        25 003725   000002 471500                    LDP1    2,,PR0
        25 003726   100003 236100                    LDQ     3,,PR1
        25 003727   000000 116000 26                 CMPQ    0
        25 003730   003735 600000 25                 TZE     s:12835
        25 003731   100003 473500                    LDP3    3,,PR1
        25 003732   300000 220100                    LDX0    0,,PR3
        25 003733   000341 100003                    CMPX0   225,DU
        25 003734   003766 600000 25                 TZE     s:12846

  12835 25 003735   000060 234000 xsym               SZN     COMCOM+48
        25 003736   003766 605000 25                 TPL     s:12846

  12836 25 003737   200015 236100                    LDQ     ILL_ETT$,,AUTO
        25 003740   000002 036003                    ADLQ    2,DU
        25 003741   200055 756100                    STQ     BASE_ST$$+2,,AUTO
        25 003742   007117 701000 25                 TSX1    OPTIMIZER_ALERT
        25 003743   000000 011000                    NOP     0

  12838 25 003744   003766 710000 25                 TRA     s:12846

  12840 25 003745   100003 236100                    LDQ     3,,PR1
        25 003746   000000 756000 5                  STQ     ILL$

  12841 25 003747   000000 474400 5                  LDP4    ILL$
        25 003750   400000 720100                    LXL0    0,,PR4
        25 003751   000001 621010                    EAX1    1,X0
        25 003752   400000 441100                    SXL1    0,,PR4

  12842 25 003753   000000 720000 21                 LXL0    O3COM
        25 003754   000000 470400 5                  LDP0    ILL$
        25 003755   000005 740100                    STX0    5,,PR0

  12843 25 003756   000001 236100                    LDQ     1,,PR0
        25 003757   000022 732000                    QRS     18
        25 003760   003763 604000 25                 TMI     s:12843+5
        25 003761   000011 116000 21                 CMPQ    O3COM+9
        25 003762   003764 603000 25                 TRC     s:12843+6
PL6.E3A0      #001=Z8GO$GLOBAL_OPTIMIZER File=Z8GO.:Z8A6TSI                      TUE 08/26/97 07:51 Page:149
        25 003763   000011 236000 21                 LDQ     O3COM+9
        25 003764   000000 621006                    EAX1    0,QL
        25 003765   000001 741100                    STX1    1,,PR0

  12846 25 003766   200015 470500                    LDP0    ILL_ETT$,,AUTO
        25 003767   000002 471500                    LDP1    2,,PR0
        25 003770   100003 473500                    LDP3    3,,PR1
        25 003771   000002 236007                    LDQ     2,DL
        25 003772   300002 256100                    ORSQ    2,,PR3

      656    12849    6         END ; /* ROP is an ETT item */

      657    12850    5       END ; /* ROP exists */

  12850 25 003773   006612 710000 25                 TRA     s:13833

      658    12851
      659    12852    4     CASE (%TIMES$_EXPRESSION_NO_REDEF,

      660    12853    4           %ILLEGAL_VALUE) ;
      661    12854
      662    12855    4       CALL Z8AE$ERROR (%E$UNEXPECTED_CASE) ;

  12855 25 003774   000016 630400 26                 EPPR0   14
        25 003775   000002 631400 26                 EPPR1   2
        25 003776   000000 701000 xent               TSX1    Z8AE$ERROR
        25 003777   000000 011000                    NOP     0
        25 004000   006612 710000 25                 TRA     s:13833

      663    12856
      664    12857    4     CASE (%ROP_ARGLIST) ; /* eg, DISPLAY statement */

      665    12858
      666    12859            /*V* Scan & Increment Count of each arg in ARGLIST */
      667    12860
      668    12861    5       DO I = 0 TO ILL_ETT$ -> ILL.ROP -> ARGLIST.N - 2 ;

PL6.E3A0      #001=Z8GO$GLOBAL_OPTIMIZER File=Z8GO.:Z8A6TSI                      TUE 08/26/97 07:51 Page:150
  12861 25 004001   200014 450100                    STZ     I,,AUTO
        25 004002   004140 710000 25                 TRA     s:12930+1

      669    12862
      670    12863              %INCR_COUNT (OP="ROP -> ARGLIST.ARG$(I)", BIT=ARITH,
      671    12864                           COMPUTE_SEQ_ALREADY_COMPUTED = '0'B) ;

  12880 25 004003   200015 470500                    LDP0    ILL_ETT$,,AUTO
        25 004004   000000 220100                    LDX0    0,,PR0
        25 004005   000121 100003                    CMPX0   81,DU
        25 004006   004024 600000 25                 TZE     s:12905
        25 004007   000255 100003                    CMPX0   173,DU
        25 004010   004024 600000 25                 TZE     s:12905
        25 004011   000314 235000 xsym               LDA     COMCOM+204
        25 004012   000002 115007                    CMPA    2,DL
        25 004013   004024 605000 25                 TPL     s:12905

  12883 25 004014   000002 471500                    LDP1    2,,PR0
        25 004015   200014 721100                    LXL1    I,,AUTO
        25 004016   100001 633511                    EPPR3   1,X1,PR1
        25 004017   200062 453500                    STP3    CHAR12+4,,AUTO
        25 004020   200062 630500                    EPPR0   CHAR12+4,,AUTO
        25 004021   000002 631400 26                 EPPR1   2
        25 004022   000000 701000 xent               TSX1    Z8GO$CHECK_OP
        25 004023   000000 011000                    NOP     0

  12905 25 004024   200015 470500                    LDP0    ILL_ETT$,,AUTO
        25 004025   000002 471500                    LDP1    2,,PR0
        25 004026   200014 720100                    LXL0    I,,AUTO
        25 004027   100001 473510                    LDP3    1,X0,PR1
        25 004030   300003 236100                    LDQ     3,,PR3
        25 004031   000000 116000 26                 CMPQ    0
        25 004032   004046 600000 25                 TZE     s:12910
        25 004033   300003 474500                    LDP4    3,,PR3
        25 004034   400000 221100                    LDX1    0,,PR4
        25 004035   000341 101003                    CMPX1   225,DU
        25 004036   004046 601000 25                 TNZ     s:12910
PL6.E3A0      #001=Z8GO$GLOBAL_OPTIMIZER File=Z8GO.:Z8A6TSI                      TUE 08/26/97 07:51 Page:151
        25 004037   400004 236100                    LDQ     4,,PR4
        25 004040   100001 116110                    CMPQ    1,X0,PR1
        25 004041   004046 601000 25                 TNZ     s:12910
        25 004042   300004 236100                    LDQ     4,,PR3
        25 004043   000022 772000                    QRL     18
        25 004044   000000 116000 21                 CMPQ    O3COM
        25 004045   004107 604000 25                 TMI     s:12920

  12910 25 004046   100001 634510                    EPPR4   1,X0,PR1
        25 004047   200062 454500                    STP4    CHAR12+4,,AUTO
        25 004050   200062 630500                    EPPR0   CHAR12+4,,AUTO
        25 004051   000002 631400 26                 EPPR1   2
        25 004052   000000 701000 xent               TSX1    Z8GS$SCAN_MAX
        25 004053   000000 011000                    NOP     0

  12912 25 004054   200015 470500                    LDP0    ILL_ETT$,,AUTO
        25 004055   000002 471500                    LDP1    2,,PR0
        25 004056   200014 720100                    LXL0    I,,AUTO
        25 004057   100001 633510                    EPPR3   1,X0,PR1
        25 004060   200062 453500                    STP3    CHAR12+4,,AUTO
        25 004061   200062 630500                    EPPR0   CHAR12+4,,AUTO
        25 004062   000002 631400 26                 EPPR1   2
        25 004063   000000 701000 xent               TSX1    Z8GI$INSERT_EVALP
        25 004064   000000 011000                    NOP     0

  12913 25 004065   200015 470500                    LDP0    ILL_ETT$,,AUTO
        25 004066   000002 471500                    LDP1    2,,PR0
        25 004067   200014 720100                    LXL0    I,,AUTO
        25 004070   100001 473510                    LDP3    1,X0,PR1
        25 004071   300003 236100                    LDQ     3,,PR3
        25 004072   000000 116000 26                 CMPQ    0
        25 004073   004100 600000 25                 TZE     s:12915
        25 004074   300003 474500                    LDP4    3,,PR3
        25 004075   400000 221100                    LDX1    0,,PR4
        25 004076   000341 101003                    CMPX1   225,DU
        25 004077   004130 600000 25                 TZE     s:12926

PL6.E3A0      #001=Z8GO$GLOBAL_OPTIMIZER File=Z8GO.:Z8A6TSI                      TUE 08/26/97 07:51 Page:152
  12915 25 004100   000060 234000 xsym               SZN     COMCOM+48
        25 004101   004130 605000 25                 TPL     s:12926

  12916 25 004102   100001 634510                    EPPR4   1,X0,PR1
        25 004103   200055 454500                    STP4    BASE_ST$$+2,,AUTO
        25 004104   007117 701000 25                 TSX1    OPTIMIZER_ALERT
        25 004105   000000 011000                    NOP     0

  12918 25 004106   004130 710000 25                 TRA     s:12926

  12920 25 004107   300003 236100                    LDQ     3,,PR3
        25 004110   000000 756000 5                  STQ     ILL$

  12921 25 004111   000000 473400 5                  LDP3    ILL$
        25 004112   300000 721100                    LXL1    0,,PR3
        25 004113   000001 622011                    EAX2    1,X1
        25 004114   300000 442100                    SXL2    0,,PR3

  12922 25 004115   000000 721000 21                 LXL1    O3COM
        25 004116   000000 470400 5                  LDP0    ILL$
        25 004117   000005 741100                    STX1    5,,PR0

  12923 25 004120   000001 236100                    LDQ     1,,PR0
        25 004121   000022 732000                    QRS     18
        25 004122   004125 604000 25                 TMI     s:12923+5
        25 004123   000011 116000 21                 CMPQ    O3COM+9
        25 004124   004126 603000 25                 TRC     s:12923+6
        25 004125   000011 236000 21                 LDQ     O3COM+9
        25 004126   000000 622006                    EAX2    0,QL
        25 004127   000001 742100                    STX2    1,,PR0

  12926 25 004130   200015 470500                    LDP0    ILL_ETT$,,AUTO
        25 004131   000002 471500                    LDP1    2,,PR0
        25 004132   200014 720100                    LXL0    I,,AUTO
        25 004133   100001 473510                    LDP3    1,X0,PR1
        25 004134   300003 474500                    LDP4    3,,PR3
        25 004135   000002 236007                    LDQ     2,DL
PL6.E3A0      #001=Z8GO$GLOBAL_OPTIMIZER File=Z8GO.:Z8A6TSI                      TUE 08/26/97 07:51 Page:153
        25 004136   400002 256100                    ORSQ    2,,PR4

      672    12929
      673    12930    5       END ;

  12930 25 004137   200014 054100                    AOS     I,,AUTO
        25 004140   200015 470500                    LDP0    ILL_ETT$,,AUTO
        25 004141   000002 471500                    LDP1    2,,PR0
        25 004142   100000 236100                    LDQ     0,,PR1
        25 004143   777777 376007                    ANQ     -1,DL
        25 004144   000002 136007                    SBLQ    2,DL
        25 004145   200014 116100                    CMPQ    I,,AUTO
        25 004146   004003 605000 25                 TPL     s:12880
        25 004147   006612 710000 25                 TRA     s:13833

      674    12931
      675    12932    4     CASE (%LOP_ARGLIST) ; /* eg, CALL statement */

      676    12933
      677    12934            /*V* Scan & Increment Count of each arg in ARGLIST */
      678    12935
      679    12936    5       DO I = 0 TO ILL_ETT$ -> ILL.LOP -> ARGLIST.N - 2 ;

  12936 25 004150   200014 450100                    STZ     I,,AUTO
        25 004151   004316 710000 25                 TRA     s:13009+1

      680    12937
      681    12938    5         IF ILL_ETT$ -> ILL.LOP -> ARGLIST.ARG$(I) ~= ADDR(NIL) AND

  12938 25 004152   200015 470500                    LDP0    ILL_ETT$,,AUTO
        25 004153   000001 471500                    LDP1    1,,PR0
        25 004154   200014 720100                    LXL0    I,,AUTO
        25 004155   100001 236110                    LDQ     1,X0,PR1
        25 004156   000000 116000 26                 CMPQ    0
        25 004157   004315 600000 25                 TZE     s:13009
        25 004160   100001 473510                    LDP3    1,X0,PR1
        25 004161   300000 221100                    LDX1    0,,PR3
PL6.E3A0      #001=Z8GO$GLOBAL_OPTIMIZER File=Z8GO.:Z8A6TSI                      TUE 08/26/97 07:51 Page:154
        25 004162   000751 101003                    CMPX1   489,DU
        25 004163   004315 603000 25                 TRC     s:13009

      682    12939    5           ILL_ETT$ -> ILL.LOP -> ARGLIST.ARG$(I) -> ETT.ID < %FIRST_ST  THEN
      683    12940    6           DO;

      684    12941                  %INCR_COUNT (OP="LOP -> ARGLIST.ARG$(I)", BIT=ARITH,
      685    12942                               COMPUTE_SEQ_ALREADY_COMPUTED = '0'B) ;

  12958 25 004164   000000 222100                    LDX2    0,,PR0
        25 004165   000121 102003                    CMPX2   81,DU
        25 004166   004202 600000 25                 TZE     s:12983
        25 004167   000255 102003                    CMPX2   173,DU
        25 004170   004202 600000 25                 TZE     s:12983
        25 004171   000314 235000 xsym               LDA     COMCOM+204
        25 004172   000002 115007                    CMPA    2,DL
        25 004173   004202 605000 25                 TPL     s:12983

  12961 25 004174   100001 634510                    EPPR4   1,X0,PR1
        25 004175   200062 454500                    STP4    CHAR12+4,,AUTO
        25 004176   200062 630500                    EPPR0   CHAR12+4,,AUTO
        25 004177   000002 631400 26                 EPPR1   2
        25 004200   000000 701000 xent               TSX1    Z8GO$CHECK_OP
        25 004201   000000 011000                    NOP     0

  12983 25 004202   200015 470500                    LDP0    ILL_ETT$,,AUTO
        25 004203   000001 471500                    LDP1    1,,PR0
        25 004204   200014 720100                    LXL0    I,,AUTO
        25 004205   100001 473510                    LDP3    1,X0,PR1
        25 004206   300003 236100                    LDQ     3,,PR3
        25 004207   000000 116000 26                 CMPQ    0
        25 004210   004224 600000 25                 TZE     s:12988
        25 004211   300003 474500                    LDP4    3,,PR3
        25 004212   400000 221100                    LDX1    0,,PR4
        25 004213   000341 101003                    CMPX1   225,DU
        25 004214   004224 601000 25                 TNZ     s:12988
        25 004215   400004 236100                    LDQ     4,,PR4
PL6.E3A0      #001=Z8GO$GLOBAL_OPTIMIZER File=Z8GO.:Z8A6TSI                      TUE 08/26/97 07:51 Page:155
        25 004216   100001 116110                    CMPQ    1,X0,PR1
        25 004217   004224 601000 25                 TNZ     s:12988
        25 004220   300004 236100                    LDQ     4,,PR3
        25 004221   000022 772000                    QRL     18
        25 004222   000000 116000 21                 CMPQ    O3COM
        25 004223   004265 604000 25                 TMI     s:12998

  12988 25 004224   100001 634510                    EPPR4   1,X0,PR1
        25 004225   200062 454500                    STP4    CHAR12+4,,AUTO
        25 004226   200062 630500                    EPPR0   CHAR12+4,,AUTO
        25 004227   000002 631400 26                 EPPR1   2
        25 004230   000000 701000 xent               TSX1    Z8GS$SCAN_MAX
        25 004231   000000 011000                    NOP     0

  12990 25 004232   200015 470500                    LDP0    ILL_ETT$,,AUTO
        25 004233   000001 471500                    LDP1    1,,PR0
        25 004234   200014 720100                    LXL0    I,,AUTO
        25 004235   100001 633510                    EPPR3   1,X0,PR1
        25 004236   200062 453500                    STP3    CHAR12+4,,AUTO
        25 004237   200062 630500                    EPPR0   CHAR12+4,,AUTO
        25 004240   000002 631400 26                 EPPR1   2
        25 004241   000000 701000 xent               TSX1    Z8GI$INSERT_EVALP
        25 004242   000000 011000                    NOP     0

  12991 25 004243   200015 470500                    LDP0    ILL_ETT$,,AUTO
        25 004244   000001 471500                    LDP1    1,,PR0
        25 004245   200014 720100                    LXL0    I,,AUTO
        25 004246   100001 473510                    LDP3    1,X0,PR1
        25 004247   300003 236100                    LDQ     3,,PR3
        25 004250   000000 116000 26                 CMPQ    0
        25 004251   004256 600000 25                 TZE     s:12993
        25 004252   300003 474500                    LDP4    3,,PR3
        25 004253   400000 221100                    LDX1    0,,PR4
        25 004254   000341 101003                    CMPX1   225,DU
        25 004255   004306 600000 25                 TZE     s:13004

  12993 25 004256   000060 234000 xsym               SZN     COMCOM+48
PL6.E3A0      #001=Z8GO$GLOBAL_OPTIMIZER File=Z8GO.:Z8A6TSI                      TUE 08/26/97 07:51 Page:156
        25 004257   004306 605000 25                 TPL     s:13004

  12994 25 004260   100001 634510                    EPPR4   1,X0,PR1
        25 004261   200055 454500                    STP4    BASE_ST$$+2,,AUTO
        25 004262   007117 701000 25                 TSX1    OPTIMIZER_ALERT
        25 004263   000000 011000                    NOP     0

  12996 25 004264   004306 710000 25                 TRA     s:13004

  12998 25 004265   300003 236100                    LDQ     3,,PR3
        25 004266   000000 756000 5                  STQ     ILL$

  12999 25 004267   000000 473400 5                  LDP3    ILL$
        25 004270   300000 721100                    LXL1    0,,PR3
        25 004271   000001 622011                    EAX2    1,X1
        25 004272   300000 442100                    SXL2    0,,PR3

  13000 25 004273   000000 721000 21                 LXL1    O3COM
        25 004274   000000 470400 5                  LDP0    ILL$
        25 004275   000005 741100                    STX1    5,,PR0

  13001 25 004276   000001 236100                    LDQ     1,,PR0
        25 004277   000022 732000                    QRS     18
        25 004300   004303 604000 25                 TMI     s:13001+5
        25 004301   000011 116000 21                 CMPQ    O3COM+9
        25 004302   004304 603000 25                 TRC     s:13001+6
        25 004303   000011 236000 21                 LDQ     O3COM+9
        25 004304   000000 622006                    EAX2    0,QL
        25 004305   000001 742100                    STX2    1,,PR0

  13004 25 004306   200015 470500                    LDP0    ILL_ETT$,,AUTO
        25 004307   000001 471500                    LDP1    1,,PR0
        25 004310   200014 720100                    LXL0    I,,AUTO
        25 004311   100001 473510                    LDP3    1,X0,PR1
        25 004312   300003 474500                    LDP4    3,,PR3
        25 004313   000002 236007                    LDQ     2,DL
        25 004314   400002 256100                    ORSQ    2,,PR4
PL6.E3A0      #001=Z8GO$GLOBAL_OPTIMIZER File=Z8GO.:Z8A6TSI                      TUE 08/26/97 07:51 Page:157

      686    13007    6           END;

      687    13008
      688    13009    5       END ;

  13009 25 004315   200014 054100                    AOS     I,,AUTO
        25 004316   200015 470500                    LDP0    ILL_ETT$,,AUTO
        25 004317   000001 471500                    LDP1    1,,PR0
        25 004320   100000 236100                    LDQ     0,,PR1
        25 004321   777777 376007                    ANQ     -1,DL
        25 004322   000002 136007                    SBLQ    2,DL
        25 004323   200014 116100                    CMPQ    I,,AUTO
        25 004324   004152 605000 25                 TPL     s:12938

      689    13010
      690    13011    4       IF ILL_ETT$ -> ILL.ROP ~= ADDR(NIL) THEN

  13011 25 004325   000002 236100                    LDQ     2,,PR0
        25 004326   000000 116000 26                 CMPQ    0
        25 004327   006612 600000 25                 TZE     s:13833

      691    13012    5         DO;

      692    13013                %INCR_COUNT(OP = ROP, BIT = ARITH,
      693    13014                            COMPUTE_SEQ_ALREADY_COMPUTED = '0'B);

  13030 25 004330   000000 220100                    LDX0    0,,PR0
        25 004331   000121 100003                    CMPX0   81,DU
        25 004332   004347 600000 25                 TZE     s:13039
        25 004333   000255 100003                    CMPX0   173,DU
        25 004334   004347 600000 25                 TZE     s:13039
        25 004335   000314 235000 xsym               LDA     COMCOM+204
        25 004336   000002 115007                    CMPA    2,DL
        25 004337   004347 605000 25                 TPL     s:13039

  13033 25 004340   200015 236100                    LDQ     ILL_ETT$,,AUTO
PL6.E3A0      #001=Z8GO$GLOBAL_OPTIMIZER File=Z8GO.:Z8A6TSI                      TUE 08/26/97 07:51 Page:158
        25 004341   000002 036003                    ADLQ    2,DU
        25 004342   200062 756100                    STQ     CHAR12+4,,AUTO
        25 004343   200062 630500                    EPPR0   CHAR12+4,,AUTO
        25 004344   000002 631400 26                 EPPR1   2
        25 004345   000000 701000 xent               TSX1    Z8GO$CHECK_OP
        25 004346   000000 011000                    NOP     0

  13039 25 004347   200015 470500                    LDP0    ILL_ETT$,,AUTO
        25 004350   000000 220100                    LDX0    0,,PR0
        25 004351   000245 100003                    CMPX0   165,DU
        25 004352   004365 601000 25                 TNZ     s:13044
        25 004353   000002 471500                    LDP1    2,,PR0
        25 004354   100000 221100                    LDX1    0,,PR1
        25 004355   000132 101003                    CMPX1   90,DU
        25 004356   004365 601000 25                 TNZ     s:13044

  13041 25 004357   000266 222003                    LDX2    182,DU
        25 004360   000000 742100                    STX2    0,,PR0

  13042 25 004361   200015 470500                    LDP0    ILL_ETT$,,AUTO
        25 004362   000002 471500                    LDP1    2,,PR0
        25 004363   100001 236100                    LDQ     1,,PR1
        25 004364   000002 756100                    STQ     2,,PR0

  13044 25 004365   200015 470500                    LDP0    ILL_ETT$,,AUTO
        25 004366   000000 220100                    LDX0    0,,PR0
        25 004367   000243 100003                    CMPX0   163,DU
        25 004370   004430 601000 25                 TNZ     s:13062
        25 004371   000002 471500                    LDP1    2,,PR0
        25 004372   100000 221100                    LDX1    0,,PR1
        25 004373   000126 101003                    CMPX1   86,DU
        25 004374   004377 600000 25                 TZE     s:13047
        25 004375   000036 101003                    CMPX1   30,DU
        25 004376   004430 601000 25                 TNZ     s:13062

  13047 25 004377   000001 236100                    LDQ     1,,PR0
        25 004400   200025 756100                    STQ     LOP$$$,,AUTO
PL6.E3A0      #001=Z8GO$GLOBAL_OPTIMIZER File=Z8GO.:Z8A6TSI                      TUE 08/26/97 07:51 Page:159

  13050 25 004401   200034 756100                    STQ     ST$$$,,AUTO

  13051 25 004402   200034 473500                    LDP3    ST$$$,,AUTO
        25 004403   300000 222100                    LDX2    0,,PR3
        25 004404   000751 102003                    CMPX2   489,DU
        25 004405   004415 603000 25                 TRC     s:13056

  13052 25 004406   200034 470500                    LDP0    ST$$$,,AUTO
        25 004407   000001 236100                    LDQ     1,,PR0
        25 004410   200034 756100                    STQ     ST$$$,,AUTO

  13053 25 004411   200034 470500                    LDP0    ST$$$,,AUTO
        25 004412   000000 220100                    LDX0    0,,PR0
        25 004413   000751 100003                    CMPX0   489,DU
        25 004414   004406 602000 25                 TNC     s:13052

  13056 25 004415   200034 470500                    LDP0    ST$$$,,AUTO
        25 004416   000001 236100                    LDQ     1,,PR0
        25 004417   007700 316007                    CANQ    4032,DL
        25 004420   004430 601000 25                 TNZ     s:13062

  13057 25 004421   000252 220003                    LDX0    170,DU
        25 004422   200015 471500                    LDP1    ILL_ETT$,,AUTO
        25 004423   100000 740100                    STX0    0,,PR1

  13058 25 004424   200015 471500                    LDP1    ILL_ETT$,,AUTO
        25 004425   100002 473500                    LDP3    2,,PR1
        25 004426   300001 236100                    LDQ     1,,PR3
        25 004427   100002 756100                    STQ     2,,PR1

  13062 25 004430   200015 470500                    LDP0    ILL_ETT$,,AUTO
        25 004431   000002 471500                    LDP1    2,,PR0
        25 004432   100003 236100                    LDQ     3,,PR1
        25 004433   000000 116000 26                 CMPQ    0
        25 004434   004450 600000 25                 TZE     s:13067
        25 004435   100003 473500                    LDP3    3,,PR1
PL6.E3A0      #001=Z8GO$GLOBAL_OPTIMIZER File=Z8GO.:Z8A6TSI                      TUE 08/26/97 07:51 Page:160
        25 004436   300000 220100                    LDX0    0,,PR3
        25 004437   000341 100003                    CMPX0   225,DU
        25 004440   004450 601000 25                 TNZ     s:13067
        25 004441   300004 236100                    LDQ     4,,PR3
        25 004442   000002 116100                    CMPQ    2,,PR0
        25 004443   004450 601000 25                 TNZ     s:13067
        25 004444   100004 236100                    LDQ     4,,PR1
        25 004445   000022 772000                    QRL     18
        25 004446   000000 116000 21                 CMPQ    O3COM
        25 004447   004507 604000 25                 TMI     s:13077

  13067 25 004450   200015 236100                    LDQ     ILL_ETT$,,AUTO
        25 004451   000002 036003                    ADLQ    2,DU
        25 004452   200062 756100                    STQ     CHAR12+4,,AUTO
        25 004453   200062 630500                    EPPR0   CHAR12+4,,AUTO
        25 004454   000002 631400 26                 EPPR1   2
        25 004455   000000 701000 xent               TSX1    Z8GS$SCAN_MAX
        25 004456   000000 011000                    NOP     0

  13069 25 004457   200015 236100                    LDQ     ILL_ETT$,,AUTO
        25 004460   000002 036003                    ADLQ    2,DU
        25 004461   200062 756100                    STQ     CHAR12+4,,AUTO
        25 004462   200062 630500                    EPPR0   CHAR12+4,,AUTO
        25 004463   000002 631400 26                 EPPR1   2
        25 004464   000000 701000 xent               TSX1    Z8GI$INSERT_EVALP
        25 004465   000000 011000                    NOP     0

  13070 25 004466   200015 470500                    LDP0    ILL_ETT$,,AUTO
        25 004467   000002 471500                    LDP1    2,,PR0
        25 004470   100003 236100                    LDQ     3,,PR1
        25 004471   000000 116000 26                 CMPQ    0
        25 004472   004477 600000 25                 TZE     s:13072
        25 004473   100003 473500                    LDP3    3,,PR1
        25 004474   300000 220100                    LDX0    0,,PR3
        25 004475   000341 100003                    CMPX0   225,DU
        25 004476   004530 600000 25                 TZE     s:13083

PL6.E3A0      #001=Z8GO$GLOBAL_OPTIMIZER File=Z8GO.:Z8A6TSI                      TUE 08/26/97 07:51 Page:161
  13072 25 004477   000060 234000 xsym               SZN     COMCOM+48
        25 004500   004530 605000 25                 TPL     s:13083

  13073 25 004501   200015 236100                    LDQ     ILL_ETT$,,AUTO
        25 004502   000002 036003                    ADLQ    2,DU
        25 004503   200055 756100                    STQ     BASE_ST$$+2,,AUTO
        25 004504   007117 701000 25                 TSX1    OPTIMIZER_ALERT
        25 004505   000000 011000                    NOP     0

  13075 25 004506   004530 710000 25                 TRA     s:13083

  13077 25 004507   100003 236100                    LDQ     3,,PR1
        25 004510   000000 756000 5                  STQ     ILL$

  13078 25 004511   000000 474400 5                  LDP4    ILL$
        25 004512   400000 720100                    LXL0    0,,PR4
        25 004513   000001 621010                    EAX1    1,X0
        25 004514   400000 441100                    SXL1    0,,PR4

  13079 25 004515   000000 720000 21                 LXL0    O3COM
        25 004516   000000 470400 5                  LDP0    ILL$
        25 004517   000005 740100                    STX0    5,,PR0

  13080 25 004520   000001 236100                    LDQ     1,,PR0
        25 004521   000022 732000                    QRS     18
        25 004522   004525 604000 25                 TMI     s:13080+5
        25 004523   000011 116000 21                 CMPQ    O3COM+9
        25 004524   004526 603000 25                 TRC     s:13080+6
        25 004525   000011 236000 21                 LDQ     O3COM+9
        25 004526   000000 621006                    EAX1    0,QL
        25 004527   000001 741100                    STX1    1,,PR0

  13083 25 004530   200015 470500                    LDP0    ILL_ETT$,,AUTO
        25 004531   000002 471500                    LDP1    2,,PR0
        25 004532   100003 473500                    LDP3    3,,PR1
        25 004533   000002 236007                    LDQ     2,DL
        25 004534   300002 256100                    ORSQ    2,,PR3
PL6.E3A0      #001=Z8GO$GLOBAL_OPTIMIZER File=Z8GO.:Z8A6TSI                      TUE 08/26/97 07:51 Page:162

      694    13086    5         END;

  13086 25 004535   006612 710000 25                 TRA     s:13833

      695    13087
      696    13088    4     CASE (%INITV_INCRV_CEILV) ;

      697    13089
      698    13090            %INCR_COUNT (OP = LOP, BIT = ARITH,
      699    13091                         COMPUTE_SEQ_ALREADY_COMPUTED = '0'B) ;

  13095 25 004536   000007 100003                    CMPX0   7,DU
        25 004537   004570 600000 25                 TZE     s:13132
        25 004540   000171 100003                    CMPX0   121,DU
        25 004541   004570 600000 25                 TZE     s:13132
        25 004542   000003 100003                    CMPX0   3,DU
        25 004543   004570 600000 25                 TZE     s:13132
        25 004544   000161 100003                    CMPX0   113,DU
        25 004545   004570 600000 25                 TZE     s:13132
        25 004546   000162 100003                    CMPX0   114,DU
        25 004547   004570 600000 25                 TZE     s:13132
        25 004550   000121 100003                    CMPX0   81,DU
        25 004551   004570 600000 25                 TZE     s:13132
        25 004552   000122 100003                    CMPX0   82,DU
        25 004553   004570 600000 25                 TZE     s:13132
        25 004554   000175 100003                    CMPX0   125,DU
        25 004555   004570 600000 25                 TZE     s:13132
        25 004556   000314 236000 xsym               LDQ     COMCOM+204
        25 004557   000002 116007                    CMPQ    2,DL
        25 004560   004570 605000 25                 TPL     s:13132

  13104 25 004561   200015 236100                    LDQ     ILL_ETT$,,AUTO
        25 004562   000001 036003                    ADLQ    1,DU
        25 004563   200062 756100                    STQ     CHAR12+4,,AUTO
        25 004564   200062 630500                    EPPR0   CHAR12+4,,AUTO
        25 004565   000002 631400 26                 EPPR1   2
PL6.E3A0      #001=Z8GO$GLOBAL_OPTIMIZER File=Z8GO.:Z8A6TSI                      TUE 08/26/97 07:51 Page:163
        25 004566   000000 701000 xent               TSX1    Z8GO$CHECK_OP
        25 004567   000000 011000                    NOP     0

  13132 25 004570   200015 470500                    LDP0    ILL_ETT$,,AUTO
        25 004571   000001 471500                    LDP1    1,,PR0
        25 004572   100003 236100                    LDQ     3,,PR1
        25 004573   000000 116000 26                 CMPQ    0
        25 004574   004610 600000 25                 TZE     s:13137
        25 004575   100003 473500                    LDP3    3,,PR1
        25 004576   300000 220100                    LDX0    0,,PR3
        25 004577   000341 100003                    CMPX0   225,DU
        25 004600   004610 601000 25                 TNZ     s:13137
        25 004601   300004 236100                    LDQ     4,,PR3
        25 004602   000001 116100                    CMPQ    1,,PR0
        25 004603   004610 601000 25                 TNZ     s:13137
        25 004604   100004 236100                    LDQ     4,,PR1
        25 004605   000022 772000                    QRL     18
        25 004606   000000 116000 21                 CMPQ    O3COM
        25 004607   004647 604000 25                 TMI     s:13147

  13137 25 004610   200015 236100                    LDQ     ILL_ETT$,,AUTO
        25 004611   000001 036003                    ADLQ    1,DU
        25 004612   200062 756100                    STQ     CHAR12+4,,AUTO
        25 004613   200062 630500                    EPPR0   CHAR12+4,,AUTO
        25 004614   000002 631400 26                 EPPR1   2
        25 004615   000000 701000 xent               TSX1    Z8GS$SCAN_MAX
        25 004616   000000 011000                    NOP     0

  13139 25 004617   200015 236100                    LDQ     ILL_ETT$,,AUTO
        25 004620   000001 036003                    ADLQ    1,DU
        25 004621   200062 756100                    STQ     CHAR12+4,,AUTO
        25 004622   200062 630500                    EPPR0   CHAR12+4,,AUTO
        25 004623   000002 631400 26                 EPPR1   2
        25 004624   000000 701000 xent               TSX1    Z8GI$INSERT_EVALP
        25 004625   000000 011000                    NOP     0

  13140 25 004626   200015 470500                    LDP0    ILL_ETT$,,AUTO
PL6.E3A0      #001=Z8GO$GLOBAL_OPTIMIZER File=Z8GO.:Z8A6TSI                      TUE 08/26/97 07:51 Page:164
        25 004627   000001 471500                    LDP1    1,,PR0
        25 004630   100003 236100                    LDQ     3,,PR1
        25 004631   000000 116000 26                 CMPQ    0
        25 004632   004637 600000 25                 TZE     s:13142
        25 004633   100003 473500                    LDP3    3,,PR1
        25 004634   300000 220100                    LDX0    0,,PR3
        25 004635   000341 100003                    CMPX0   225,DU
        25 004636   004670 600000 25                 TZE     s:13153

  13142 25 004637   000060 234000 xsym               SZN     COMCOM+48
        25 004640   004670 605000 25                 TPL     s:13153

  13143 25 004641   200015 236100                    LDQ     ILL_ETT$,,AUTO
        25 004642   000001 036003                    ADLQ    1,DU
        25 004643   200055 756100                    STQ     BASE_ST$$+2,,AUTO
        25 004644   007117 701000 25                 TSX1    OPTIMIZER_ALERT
        25 004645   000000 011000                    NOP     0

  13145 25 004646   004670 710000 25                 TRA     s:13153

  13147 25 004647   100003 236100                    LDQ     3,,PR1
        25 004650   000000 756000 5                  STQ     ILL$

  13148 25 004651   000000 474400 5                  LDP4    ILL$
        25 004652   400000 720100                    LXL0    0,,PR4
        25 004653   000001 621010                    EAX1    1,X0
        25 004654   400000 441100                    SXL1    0,,PR4

  13149 25 004655   000000 720000 21                 LXL0    O3COM
        25 004656   000000 470400 5                  LDP0    ILL$
        25 004657   000005 740100                    STX0    5,,PR0

  13150 25 004660   000001 236100                    LDQ     1,,PR0
        25 004661   000022 732000                    QRS     18
        25 004662   004665 604000 25                 TMI     s:13150+5
        25 004663   000011 116000 21                 CMPQ    O3COM+9
        25 004664   004666 603000 25                 TRC     s:13150+6
PL6.E3A0      #001=Z8GO$GLOBAL_OPTIMIZER File=Z8GO.:Z8A6TSI                      TUE 08/26/97 07:51 Page:165
        25 004665   000011 236000 21                 LDQ     O3COM+9
        25 004666   000000 621006                    EAX1    0,QL
        25 004667   000001 741100                    STX1    1,,PR0

  13153 25 004670   200015 470500                    LDP0    ILL_ETT$,,AUTO
        25 004671   000001 471500                    LDP1    1,,PR0
        25 004672   100003 473500                    LDP3    3,,PR1
        25 004673   000002 236007                    LDQ     2,DL
        25 004674   300002 256100                    ORSQ    2,,PR3

      700    13156
      701    13157            /* Set First_Initv & Last_Initv for EVALP case */
      702    13158
      703    13159    4       IF FIRST_INITV$ = ADDR(NIL)     THEN

  13159 25 004675   200012 236100                    LDQ     FIRST_INITV$,,AUTO
        25 004676   000000 116000 26                 CMPQ    0
        25 004677   004702 601000 25                 TNZ     s:13161

      704    13160    4         FIRST_INITV$ = ILL_ETT$ ;

  13160 25 004700   200015 236100                    LDQ     ILL_ETT$,,AUTO
        25 004701   200012 756100                    STQ     FIRST_INITV$,,AUTO

      705    13161    4       LAST_INITV$ = ILL_ETT$ ;

  13161 25 004702   200015 236100                    LDQ     ILL_ETT$,,AUTO
        25 004703   200023 756100                    STQ     LAST_INITV$,,AUTO

      706    13162
      707    13163    4       ILL_ETT$ = ILL_ETT$ -> ILL.ILL$ ; /* Link to EVALP */

  13163 25 004704   200015 470500                    LDP0    ILL_ETT$,,AUTO
        25 004705   000003 236100                    LDQ     3,,PR0
        25 004706   200015 756100                    STQ     ILL_ETT$,,AUTO

      708    13164    4       GOTO UPDATE_COUNT ;
PL6.E3A0      #001=Z8GO$GLOBAL_OPTIMIZER File=Z8GO.:Z8A6TSI                      TUE 08/26/97 07:51 Page:166

  13164 25 004707   002135 710000 25                 TRA     UPDATE_COUNT

      709    13165
      710    13166          %EJECT;
PL6.E3A0      #001=Z8GO$GLOBAL_OPTIMIZER File=Z8GO.:Z8A6TSI                      TUE 08/26/97 07:51 Page:167
      711    13167    4     CASE (%EVALP_) ;

      712    13168
      713    13169            /*V* Chain thru EVALPs, deleting those whose
      714    13170                 CNTE = 1, changing IDs to CCOSU for those
      715    13171                 whose CNTE > 1.
      716    13172            */
      717    13173
      718    13174    4       HEAD_CCOSU = ADDR(NIL) ;

  13174 25 004710   000000 236000 26                 LDQ     0
        25 004711   200013 756100                    STQ     HEAD_CCOSU,,AUTO

      719    13175    4       TAIL_CCOSU = ADDR(NIL) ;

  13175 25 004712   200035 756100                    STQ     TAIL_CCOSU,,AUTO

      720    13176    4       O3COM.EVALP$ = ILL_ETT$ ;

  13176 25 004713   200015 236100                    LDQ     ILL_ETT$,,AUTO
        25 004714   000002 756000 21                 STQ     O3COM+2

      721    13177    4       PREV$ = ADDR(NIL) ;

  13177 25 004715   000000 236000 26                 LDQ     0
        25 004716   200031 756100                    STQ     PREV$,,AUTO

      722    13178
      723    13179    5       DO WHILE (O3COM.EVALP$ -> ILL.ID = %EVALP) ;

  13179 25 004717   000002 471400 21                 LDP1    O3COM+2
        25 004720   100000 220100                    LDX0    0,,PR1
        25 004721   000341 100003                    CMPX0   225,DU
        25 004722   006555 601000 25                 TNZ     s:13803

      724    13180
      725    13181              /*V* Update the counts of LOP & ROP */
PL6.E3A0      #001=Z8GO$GLOBAL_OPTIMIZER File=Z8GO.:Z8A6TSI                      TUE 08/26/97 07:51 Page:168
      726    13182
      727    13183    5         ILL_ETT$ = O3COM.EVALP$ -> CCOSU.EVEX ;

  13183 25 004723   000002 470400 21                 LDP0    O3COM+2
        25 004724   000004 236100                    LDQ     4,,PR0
        25 004725   200015 756100                    STQ     ILL_ETT$,,AUTO

      728    13184
      729    13185    6         DO CASE (P3VEC(ILL_ETT$ -> ETT.ID)) ;

  13185 25 004726   200015 471500                    LDP1    ILL_ETT$,,AUTO
        25 004727   100000 220100                    LDX0    0,,PR1
        25 004730   000000 235010 20                 LDA     P3VEC,X0
        25 004731   000012 115007                    CMPA    10,DL
        25 004732   004734 602005 25                 TNC     s:13185+6,AL
        25 004733   006401 710000 25                 TRA     s:13741
        25 004734   006401 710000 25                 TRA     s:13741
        25 004735   006401 710000 25                 TRA     s:13741
        25 004736   006401 710000 25                 TRA     s:13741
        25 004737   006401 710000 25                 TRA     s:13741
        25 004740   006401 710000 25                 TRA     s:13741
        25 004741   006035 710000 25                 TRA     s:13572
        25 004742   004746 710000 25                 TRA     s:13192
        25 004743   005463 710000 25                 TRA     s:13419
        25 004744   006401 710000 25                 TRA     s:13741
        25 004745   005266 710000 25                 TRA     s:13361

      730    13186
      731    13187    6           CASE (%NO_EXPRESSIONS) ;

      732    13188                  /* Do Nothing */
      733    13189
      734    13190    6           CASE (%ONE_EXPRESSION_NO_REDEF) ;

      735    13191
      736    13192    7             DO CASE (ILL_ETT$ -> ETT.ID) ;

PL6.E3A0      #001=Z8GO$GLOBAL_OPTIMIZER File=Z8GO.:Z8A6TSI                      TUE 08/26/97 07:51 Page:169
  13192 25 004746   100000 236100                    LDQ     0,,PR1
        25 004747   000022 772000                    QRL     18
        25 004750   000171 136007                    SBLQ    121,DL
        25 004751   000001 116007                    CMPQ    1,DL
        25 004752   004754 602006 25                 TNC     s:13192+6,QL
        25 004753   005135 710000 25                 TRA     s:13280
        25 004754   004755 710000 25                 TRA     s:13202

      737    13193
      738    13194    7               CASE (%EVAL) ;

      739    13195
      740    13196                      /* Increment the count of the ROP of the */
      741    13197                      /* LOP if the LOP is a SSOP or a SIZ.    */
      742    13198                      %INCR_COUNT (OP = LOP, BIT = ARITH) ;

  13202 25 004755   000007 100003                    CMPX0   7,DU
        25 004756   005007 600000 25                 TZE     s:13239
        25 004757   000171 100003                    CMPX0   121,DU
        25 004760   005007 600000 25                 TZE     s:13239
        25 004761   000003 100003                    CMPX0   3,DU
        25 004762   005007 600000 25                 TZE     s:13239
        25 004763   000161 100003                    CMPX0   113,DU
        25 004764   005007 600000 25                 TZE     s:13239
        25 004765   000162 100003                    CMPX0   114,DU
        25 004766   005007 600000 25                 TZE     s:13239
        25 004767   000121 100003                    CMPX0   81,DU
        25 004770   005007 600000 25                 TZE     s:13239
        25 004771   000122 100003                    CMPX0   82,DU
        25 004772   005007 600000 25                 TZE     s:13239
        25 004773   000175 100003                    CMPX0   125,DU
        25 004774   005007 600000 25                 TZE     s:13239
        25 004775   000314 235000 xsym               LDA     COMCOM+204
        25 004776   000002 115007                    CMPA    2,DL
        25 004777   005007 605000 25                 TPL     s:13239

  13211 25 005000   200015 236100                    LDQ     ILL_ETT$,,AUTO
PL6.E3A0      #001=Z8GO$GLOBAL_OPTIMIZER File=Z8GO.:Z8A6TSI                      TUE 08/26/97 07:51 Page:170
        25 005001   000001 036003                    ADLQ    1,DU
        25 005002   200062 756100                    STQ     CHAR12+4,,AUTO
        25 005003   200062 630500                    EPPR0   CHAR12+4,,AUTO
        25 005004   000002 631400 26                 EPPR1   2
        25 005005   000000 701000 xent               TSX1    Z8GO$CHECK_OP
        25 005006   000000 011000                    NOP     0

  13239 25 005007   200015 470500                    LDP0    ILL_ETT$,,AUTO
        25 005010   000001 471500                    LDP1    1,,PR0
        25 005011   100003 236100                    LDQ     3,,PR1
        25 005012   000000 116000 26                 CMPQ    0
        25 005013   005027 600000 25                 TZE     s:13246
        25 005014   100003 473500                    LDP3    3,,PR1
        25 005015   300000 220100                    LDX0    0,,PR3
        25 005016   000341 100003                    CMPX0   225,DU
        25 005017   005027 601000 25                 TNZ     s:13246
        25 005020   300004 236100                    LDQ     4,,PR3
        25 005021   000001 116100                    CMPQ    1,,PR0
        25 005022   005027 601000 25                 TNZ     s:13246
        25 005023   100004 236100                    LDQ     4,,PR1
        25 005024   000022 772000                    QRL     18
        25 005025   000000 116000 21                 CMPQ    O3COM
        25 005026   005057 604000 25                 TMI     s:13254

  13246 25 005027   200015 236100                    LDQ     ILL_ETT$,,AUTO
        25 005030   000001 036003                    ADLQ    1,DU
        25 005031   200062 756100                    STQ     CHAR12+4,,AUTO
        25 005032   200062 630500                    EPPR0   CHAR12+4,,AUTO
        25 005033   000002 631400 26                 EPPR1   2
        25 005034   000000 701000 xent               TSX1    Z8GI$INSERT_EVALP
        25 005035   000000 011000                    NOP     0

  13247 25 005036   200015 470500                    LDP0    ILL_ETT$,,AUTO
        25 005037   000001 471500                    LDP1    1,,PR0
        25 005040   100003 236100                    LDQ     3,,PR1
        25 005041   000000 116000 26                 CMPQ    0
        25 005042   005047 600000 25                 TZE     s:13249
PL6.E3A0      #001=Z8GO$GLOBAL_OPTIMIZER File=Z8GO.:Z8A6TSI                      TUE 08/26/97 07:51 Page:171
        25 005043   100003 473500                    LDP3    3,,PR1
        25 005044   300000 220100                    LDX0    0,,PR3
        25 005045   000341 100003                    CMPX0   225,DU
        25 005046   005100 600000 25                 TZE     s:13260

  13249 25 005047   000060 234000 xsym               SZN     COMCOM+48
        25 005050   005100 605000 25                 TPL     s:13260

  13250 25 005051   200015 236100                    LDQ     ILL_ETT$,,AUTO
        25 005052   000001 036003                    ADLQ    1,DU
        25 005053   200055 756100                    STQ     BASE_ST$$+2,,AUTO
        25 005054   007117 701000 25                 TSX1    OPTIMIZER_ALERT
        25 005055   000000 011000                    NOP     0

  13252 25 005056   005100 710000 25                 TRA     s:13260

  13254 25 005057   100003 236100                    LDQ     3,,PR1
        25 005060   000000 756000 5                  STQ     ILL$

  13255 25 005061   000000 474400 5                  LDP4    ILL$
        25 005062   400000 720100                    LXL0    0,,PR4
        25 005063   000001 621010                    EAX1    1,X0
        25 005064   400000 441100                    SXL1    0,,PR4

  13256 25 005065   000000 720000 21                 LXL0    O3COM
        25 005066   000000 470400 5                  LDP0    ILL$
        25 005067   000005 740100                    STX0    5,,PR0

  13257 25 005070   000001 236100                    LDQ     1,,PR0
        25 005071   000022 732000                    QRS     18
        25 005072   005075 604000 25                 TMI     s:13257+5
        25 005073   000011 116000 21                 CMPQ    O3COM+9
        25 005074   005076 603000 25                 TRC     s:13257+6
        25 005075   000011 236000 21                 LDQ     O3COM+9
        25 005076   000000 621006                    EAX1    0,QL
        25 005077   000001 741100                    STX1    1,,PR0

PL6.E3A0      #001=Z8GO$GLOBAL_OPTIMIZER File=Z8GO.:Z8A6TSI                      TUE 08/26/97 07:51 Page:172
  13260 25 005100   200015 470500                    LDP0    ILL_ETT$,,AUTO
        25 005101   000001 471500                    LDP1    1,,PR0
        25 005102   100003 473500                    LDP3    3,,PR1
        25 005103   000002 236007                    LDQ     2,DL
        25 005104   300002 256100                    ORSQ    2,,PR3

      743    13263    7                 LOP$ = ILL_ETT$ -> ETT.LOP ;

  13263 25 005105   200015 470500                    LDP0    ILL_ETT$,,AUTO
        25 005106   000001 236100                    LDQ     1,,PR0
        25 005107   200024 756100                    STQ     LOP$,,AUTO

      744    13264
      745    13265    7                 IF LOP$ -> ETT.ID = %FISS THEN

  13265 25 005110   200024 471500                    LDP1    LOP$,,AUTO
        25 005111   100000 220100                    LDX0    0,,PR1
        25 005112   000002 100003                    CMPX0   2,DU
        25 005113   005116 601000 25                 TNZ     s:13268

      746    13266    7                   LOP$ = LOP$ -> ETT.LOP ;

  13266 25 005114   100001 236100                    LDQ     1,,PR1
        25 005115   200024 756100                    STQ     LOP$,,AUTO

      747    13267
      748    13268    7                 IF LOP$ -> ETT.ID = %SSOP

  13268 25 005116   200024 471500                    LDP1    LOP$,,AUTO
        25 005117   100000 220100                    LDX0    0,,PR1
        25 005120   000005 100003                    CMPX0   5,DU
        25 005121   005126 600000 25                 TZE     s:13272
        25 005122   000012 100003                    CMPX0   10,DU
        25 005123   005126 600000 25                 TZE     s:13272
        25 005124   000004 100003                    CMPX0   4,DU
        25 005125   006401 601000 25                 TNZ     s:13741

PL6.E3A0      #001=Z8GO$GLOBAL_OPTIMIZER File=Z8GO.:Z8A6TSI                      TUE 08/26/97 07:51 Page:173
      749    13269    7                     OR LOP$ -> ETT.ID = %REFMOD    /*#28637*/
      750    13270    7                     OR LOP$ -> ETT.ID = %SIZ     THEN
      751    13271                                                           /*#30836*/
      752    13272    7                   CALL INCR_ROP_OF_SSOP_OR_SIZ (LOP$, %EVAL) ;

  13272 25 005126   000022 236000 26                 LDQ     18
        25 005127   200050 756100                    STQ     @OP$+1,,AUTO
        25 005130   200024 633500                    EPPR3   LOP$,,AUTO
        25 005131   200047 453500                    STP3    VAL_END_ILL$+3,,AUTO
        25 005132   007150 701000 25                 TSX1    INCR_ROP_OF_SSOP_OR_SIZ
        25 005133   000000 011000                    NOP     0
        25 005134   006401 710000 25                 TRA     s:13741

      753    13273
      754    13274    7               CASE (ELSE) ;

      755    13275
      756    13276                      %INCR_COUNT (OP = LOP, BIT = ARITH) ;

  13280 25 005135   000007 100003                    CMPX0   7,DU
        25 005136   005167 600000 25                 TZE     s:13317
        25 005137   000171 100003                    CMPX0   121,DU
        25 005140   005167 600000 25                 TZE     s:13317
        25 005141   000003 100003                    CMPX0   3,DU
        25 005142   005167 600000 25                 TZE     s:13317
        25 005143   000161 100003                    CMPX0   113,DU
        25 005144   005167 600000 25                 TZE     s:13317
        25 005145   000162 100003                    CMPX0   114,DU
        25 005146   005167 600000 25                 TZE     s:13317
        25 005147   000121 100003                    CMPX0   81,DU
        25 005150   005167 600000 25                 TZE     s:13317
        25 005151   000122 100003                    CMPX0   82,DU
        25 005152   005167 600000 25                 TZE     s:13317
        25 005153   000175 100003                    CMPX0   125,DU
        25 005154   005167 600000 25                 TZE     s:13317
        25 005155   000314 235000 xsym               LDA     COMCOM+204
        25 005156   000002 115007                    CMPA    2,DL
PL6.E3A0      #001=Z8GO$GLOBAL_OPTIMIZER File=Z8GO.:Z8A6TSI                      TUE 08/26/97 07:51 Page:174
        25 005157   005167 605000 25                 TPL     s:13317

  13289 25 005160   200015 236100                    LDQ     ILL_ETT$,,AUTO
        25 005161   000001 036003                    ADLQ    1,DU
        25 005162   200062 756100                    STQ     CHAR12+4,,AUTO
        25 005163   200062 630500                    EPPR0   CHAR12+4,,AUTO
        25 005164   000002 631400 26                 EPPR1   2
        25 005165   000000 701000 xent               TSX1    Z8GO$CHECK_OP
        25 005166   000000 011000                    NOP     0

  13317 25 005167   200015 470500                    LDP0    ILL_ETT$,,AUTO
        25 005170   000001 471500                    LDP1    1,,PR0
        25 005171   100003 236100                    LDQ     3,,PR1
        25 005172   000000 116000 26                 CMPQ    0
        25 005173   005207 600000 25                 TZE     s:13324
        25 005174   100003 473500                    LDP3    3,,PR1
        25 005175   300000 220100                    LDX0    0,,PR3
        25 005176   000341 100003                    CMPX0   225,DU
        25 005177   005207 601000 25                 TNZ     s:13324
        25 005200   300004 236100                    LDQ     4,,PR3
        25 005201   000001 116100                    CMPQ    1,,PR0
        25 005202   005207 601000 25                 TNZ     s:13324
        25 005203   100004 236100                    LDQ     4,,PR1
        25 005204   000022 772000                    QRL     18
        25 005205   000000 116000 21                 CMPQ    O3COM
        25 005206   005237 604000 25                 TMI     s:13332

  13324 25 005207   200015 236100                    LDQ     ILL_ETT$,,AUTO
        25 005210   000001 036003                    ADLQ    1,DU
        25 005211   200062 756100                    STQ     CHAR12+4,,AUTO
        25 005212   200062 630500                    EPPR0   CHAR12+4,,AUTO
        25 005213   000002 631400 26                 EPPR1   2
        25 005214   000000 701000 xent               TSX1    Z8GI$INSERT_EVALP
        25 005215   000000 011000                    NOP     0

  13325 25 005216   200015 470500                    LDP0    ILL_ETT$,,AUTO
        25 005217   000001 471500                    LDP1    1,,PR0
PL6.E3A0      #001=Z8GO$GLOBAL_OPTIMIZER File=Z8GO.:Z8A6TSI                      TUE 08/26/97 07:51 Page:175
        25 005220   100003 236100                    LDQ     3,,PR1
        25 005221   000000 116000 26                 CMPQ    0
        25 005222   005227 600000 25                 TZE     s:13327
        25 005223   100003 473500                    LDP3    3,,PR1
        25 005224   300000 220100                    LDX0    0,,PR3
        25 005225   000341 100003                    CMPX0   225,DU
        25 005226   005260 600000 25                 TZE     s:13338

  13327 25 005227   000060 234000 xsym               SZN     COMCOM+48
        25 005230   005260 605000 25                 TPL     s:13338

  13328 25 005231   200015 236100                    LDQ     ILL_ETT$,,AUTO
        25 005232   000001 036003                    ADLQ    1,DU
        25 005233   200055 756100                    STQ     BASE_ST$$+2,,AUTO
        25 005234   007117 701000 25                 TSX1    OPTIMIZER_ALERT
        25 005235   000000 011000                    NOP     0

  13330 25 005236   005260 710000 25                 TRA     s:13338

  13332 25 005237   100003 236100                    LDQ     3,,PR1
        25 005240   000000 756000 5                  STQ     ILL$

  13333 25 005241   000000 474400 5                  LDP4    ILL$
        25 005242   400000 720100                    LXL0    0,,PR4
        25 005243   000001 621010                    EAX1    1,X0
        25 005244   400000 441100                    SXL1    0,,PR4

  13334 25 005245   000000 720000 21                 LXL0    O3COM
        25 005246   000000 470400 5                  LDP0    ILL$
        25 005247   000005 740100                    STX0    5,,PR0

  13335 25 005250   000001 236100                    LDQ     1,,PR0
        25 005251   000022 732000                    QRS     18
        25 005252   005255 604000 25                 TMI     s:13335+5
        25 005253   000011 116000 21                 CMPQ    O3COM+9
        25 005254   005256 603000 25                 TRC     s:13335+6
        25 005255   000011 236000 21                 LDQ     O3COM+9
PL6.E3A0      #001=Z8GO$GLOBAL_OPTIMIZER File=Z8GO.:Z8A6TSI                      TUE 08/26/97 07:51 Page:176
        25 005256   000000 621006                    EAX1    0,QL
        25 005257   000001 741100                    STX1    1,,PR0

  13338 25 005260   200015 470500                    LDP0    ILL_ETT$,,AUTO
        25 005261   000001 471500                    LDP1    1,,PR0
        25 005262   100003 473500                    LDP3    3,,PR1
        25 005263   000002 236007                    LDQ     2,DL
        25 005264   300002 256100                    ORSQ    2,,PR3

      757    13341
      758    13342    7             END ; /* Case of ID */

  13342 25 005265   006401 710000 25                 TRA     s:13741

      759    13343
      760    13344    6           CASE (%ROP_EXPRESSION_NO_REDEF) ; /* Not Used */

      761    13345                  %INCR_COUNT (OP = ROP, BIT = ARITH) ;

  13361 25 005266   000121 100003                    CMPX0   81,DU
        25 005267   005303 600000 25                 TZE     s:13370
        25 005270   000255 100003                    CMPX0   173,DU
        25 005271   005303 600000 25                 TZE     s:13370
        25 005272   000314 235000 xsym               LDA     COMCOM+204
        25 005273   000002 115007                    CMPA    2,DL
        25 005274   005303 605000 25                 TPL     s:13370

  13364 25 005275   000002 036003                    ADLQ    2,DU
        25 005276   200062 756100                    STQ     CHAR12+4,,AUTO
        25 005277   200062 630500                    EPPR0   CHAR12+4,,AUTO
        25 005300   000002 631400 26                 EPPR1   2
        25 005301   000000 701000 xent               TSX1    Z8GO$CHECK_OP
        25 005302   000000 011000                    NOP     0

  13370 25 005303   200015 470500                    LDP0    ILL_ETT$,,AUTO
        25 005304   000000 220100                    LDX0    0,,PR0
        25 005305   000245 100003                    CMPX0   165,DU
PL6.E3A0      #001=Z8GO$GLOBAL_OPTIMIZER File=Z8GO.:Z8A6TSI                      TUE 08/26/97 07:51 Page:177
        25 005306   005321 601000 25                 TNZ     s:13375
        25 005307   000002 471500                    LDP1    2,,PR0
        25 005310   100000 221100                    LDX1    0,,PR1
        25 005311   000132 101003                    CMPX1   90,DU
        25 005312   005321 601000 25                 TNZ     s:13375

  13372 25 005313   000266 222003                    LDX2    182,DU
        25 005314   000000 742100                    STX2    0,,PR0

  13373 25 005315   200015 470500                    LDP0    ILL_ETT$,,AUTO
        25 005316   000002 471500                    LDP1    2,,PR0
        25 005317   100001 236100                    LDQ     1,,PR1
        25 005320   000002 756100                    STQ     2,,PR0

  13375 25 005321   200015 470500                    LDP0    ILL_ETT$,,AUTO
        25 005322   000000 220100                    LDX0    0,,PR0
        25 005323   000243 100003                    CMPX0   163,DU
        25 005324   005364 601000 25                 TNZ     s:13393
        25 005325   000002 471500                    LDP1    2,,PR0
        25 005326   100000 221100                    LDX1    0,,PR1
        25 005327   000126 101003                    CMPX1   86,DU
        25 005330   005333 600000 25                 TZE     s:13378
        25 005331   000036 101003                    CMPX1   30,DU
        25 005332   005364 601000 25                 TNZ     s:13393

  13378 25 005333   000001 236100                    LDQ     1,,PR0
        25 005334   200025 756100                    STQ     LOP$$$,,AUTO

  13381 25 005335   200034 756100                    STQ     ST$$$,,AUTO

  13382 25 005336   200034 473500                    LDP3    ST$$$,,AUTO
        25 005337   300000 222100                    LDX2    0,,PR3
        25 005340   000751 102003                    CMPX2   489,DU
        25 005341   005351 603000 25                 TRC     s:13387

  13383 25 005342   200034 470500                    LDP0    ST$$$,,AUTO
        25 005343   000001 236100                    LDQ     1,,PR0
PL6.E3A0      #001=Z8GO$GLOBAL_OPTIMIZER File=Z8GO.:Z8A6TSI                      TUE 08/26/97 07:51 Page:178
        25 005344   200034 756100                    STQ     ST$$$,,AUTO

  13384 25 005345   200034 470500                    LDP0    ST$$$,,AUTO
        25 005346   000000 220100                    LDX0    0,,PR0
        25 005347   000751 100003                    CMPX0   489,DU
        25 005350   005342 602000 25                 TNC     s:13383

  13387 25 005351   200034 470500                    LDP0    ST$$$,,AUTO
        25 005352   000001 236100                    LDQ     1,,PR0
        25 005353   007700 316007                    CANQ    4032,DL
        25 005354   005364 601000 25                 TNZ     s:13393

  13388 25 005355   000252 220003                    LDX0    170,DU
        25 005356   200015 471500                    LDP1    ILL_ETT$,,AUTO
        25 005357   100000 740100                    STX0    0,,PR1

  13389 25 005360   200015 471500                    LDP1    ILL_ETT$,,AUTO
        25 005361   100002 473500                    LDP3    2,,PR1
        25 005362   300001 236100                    LDQ     1,,PR3
        25 005363   100002 756100                    STQ     2,,PR1

  13393 25 005364   200015 470500                    LDP0    ILL_ETT$,,AUTO
        25 005365   000002 471500                    LDP1    2,,PR0
        25 005366   100003 236100                    LDQ     3,,PR1
        25 005367   000000 116000 26                 CMPQ    0
        25 005370   005404 600000 25                 TZE     s:13400
        25 005371   100003 473500                    LDP3    3,,PR1
        25 005372   300000 220100                    LDX0    0,,PR3
        25 005373   000341 100003                    CMPX0   225,DU
        25 005374   005404 601000 25                 TNZ     s:13400
        25 005375   300004 236100                    LDQ     4,,PR3
        25 005376   000002 116100                    CMPQ    2,,PR0
        25 005377   005404 601000 25                 TNZ     s:13400
        25 005400   100004 236100                    LDQ     4,,PR1
        25 005401   000022 772000                    QRL     18
        25 005402   000000 116000 21                 CMPQ    O3COM
        25 005403   005434 604000 25                 TMI     s:13408
PL6.E3A0      #001=Z8GO$GLOBAL_OPTIMIZER File=Z8GO.:Z8A6TSI                      TUE 08/26/97 07:51 Page:179

  13400 25 005404   200015 236100                    LDQ     ILL_ETT$,,AUTO
        25 005405   000002 036003                    ADLQ    2,DU
        25 005406   200062 756100                    STQ     CHAR12+4,,AUTO
        25 005407   200062 630500                    EPPR0   CHAR12+4,,AUTO
        25 005410   000002 631400 26                 EPPR1   2
        25 005411   000000 701000 xent               TSX1    Z8GI$INSERT_EVALP
        25 005412   000000 011000                    NOP     0

  13401 25 005413   200015 470500                    LDP0    ILL_ETT$,,AUTO
        25 005414   000002 471500                    LDP1    2,,PR0
        25 005415   100003 236100                    LDQ     3,,PR1
        25 005416   000000 116000 26                 CMPQ    0
        25 005417   005424 600000 25                 TZE     s:13403
        25 005420   100003 473500                    LDP3    3,,PR1
        25 005421   300000 220100                    LDX0    0,,PR3
        25 005422   000341 100003                    CMPX0   225,DU
        25 005423   005455 600000 25                 TZE     s:13414

  13403 25 005424   000060 234000 xsym               SZN     COMCOM+48
        25 005425   005455 605000 25                 TPL     s:13414

  13404 25 005426   200015 236100                    LDQ     ILL_ETT$,,AUTO
        25 005427   000002 036003                    ADLQ    2,DU
        25 005430   200055 756100                    STQ     BASE_ST$$+2,,AUTO
        25 005431   007117 701000 25                 TSX1    OPTIMIZER_ALERT
        25 005432   000000 011000                    NOP     0

  13406 25 005433   005455 710000 25                 TRA     s:13414

  13408 25 005434   100003 236100                    LDQ     3,,PR1
        25 005435   000000 756000 5                  STQ     ILL$

  13409 25 005436   000000 474400 5                  LDP4    ILL$
        25 005437   400000 720100                    LXL0    0,,PR4
        25 005440   000001 621010                    EAX1    1,X0
        25 005441   400000 441100                    SXL1    0,,PR4
PL6.E3A0      #001=Z8GO$GLOBAL_OPTIMIZER File=Z8GO.:Z8A6TSI                      TUE 08/26/97 07:51 Page:180

  13410 25 005442   000000 720000 21                 LXL0    O3COM
        25 005443   000000 470400 5                  LDP0    ILL$
        25 005444   000005 740100                    STX0    5,,PR0

  13411 25 005445   000001 236100                    LDQ     1,,PR0
        25 005446   000022 732000                    QRS     18
        25 005447   005452 604000 25                 TMI     s:13411+5
        25 005450   000011 116000 21                 CMPQ    O3COM+9
        25 005451   005453 603000 25                 TRC     s:13411+6
        25 005452   000011 236000 21                 LDQ     O3COM+9
        25 005453   000000 621006                    EAX1    0,QL
        25 005454   000001 741100                    STX1    1,,PR0

  13414 25 005455   200015 470500                    LDP0    ILL_ETT$,,AUTO
        25 005456   000002 471500                    LDP1    2,,PR0
        25 005457   100003 473500                    LDP3    3,,PR1
        25 005460   000002 236007                    LDQ     2,DL
        25 005461   300002 256100                    ORSQ    2,,PR3

  13415 25 005462   006401 710000 25                 TRA     s:13741

      762    13417
      763    13418    6           CASE (%TWO_EXPRESSIONS_NO_REDEF) ;

      764    13419    6             IF ILL_ETT$ -> ILL.LOP -> ETT.ID <= %LAST_ETT THEN

  13419 25 005463   100001 473500                    LDP3    1,,PR1
        25 005464   300000 221100                    LDX1    0,,PR3
        25 005465   000202 101003                    CMPX1   130,DU
        25 005466   005616 603000 25                 TRC     s:13503

      765    13420    7               DO;

      766    13421                      %INCR_COUNT (OP = LOP, BIT = ARITH) ;

  13425 25 005467   000007 100003                    CMPX0   7,DU
PL6.E3A0      #001=Z8GO$GLOBAL_OPTIMIZER File=Z8GO.:Z8A6TSI                      TUE 08/26/97 07:51 Page:181
        25 005470   005520 600000 25                 TZE     s:13462
        25 005471   000171 100003                    CMPX0   121,DU
        25 005472   005520 600000 25                 TZE     s:13462
        25 005473   000003 100003                    CMPX0   3,DU
        25 005474   005520 600000 25                 TZE     s:13462
        25 005475   000161 100003                    CMPX0   113,DU
        25 005476   005520 600000 25                 TZE     s:13462
        25 005477   000162 100003                    CMPX0   114,DU
        25 005500   005520 600000 25                 TZE     s:13462
        25 005501   000121 100003                    CMPX0   81,DU
        25 005502   005520 600000 25                 TZE     s:13462
        25 005503   000122 100003                    CMPX0   82,DU
        25 005504   005520 600000 25                 TZE     s:13462
        25 005505   000175 100003                    CMPX0   125,DU
        25 005506   005520 600000 25                 TZE     s:13462
        25 005507   000314 235000 xsym               LDA     COMCOM+204
        25 005510   000002 115007                    CMPA    2,DL
        25 005511   005520 605000 25                 TPL     s:13462

  13434 25 005512   000001 036003                    ADLQ    1,DU
        25 005513   200062 756100                    STQ     CHAR12+4,,AUTO
        25 005514   200062 630500                    EPPR0   CHAR12+4,,AUTO
        25 005515   000002 631400 26                 EPPR1   2
        25 005516   000000 701000 xent               TSX1    Z8GO$CHECK_OP
        25 005517   000000 011000                    NOP     0

  13462 25 005520   200015 470500                    LDP0    ILL_ETT$,,AUTO
        25 005521   000001 471500                    LDP1    1,,PR0
        25 005522   100003 236100                    LDQ     3,,PR1
        25 005523   000000 116000 26                 CMPQ    0
        25 005524   005540 600000 25                 TZE     s:13469
        25 005525   100003 473500                    LDP3    3,,PR1
        25 005526   300000 220100                    LDX0    0,,PR3
        25 005527   000341 100003                    CMPX0   225,DU
        25 005530   005540 601000 25                 TNZ     s:13469
        25 005531   300004 236100                    LDQ     4,,PR3
        25 005532   000001 116100                    CMPQ    1,,PR0
PL6.E3A0      #001=Z8GO$GLOBAL_OPTIMIZER File=Z8GO.:Z8A6TSI                      TUE 08/26/97 07:51 Page:182
        25 005533   005540 601000 25                 TNZ     s:13469
        25 005534   100004 236100                    LDQ     4,,PR1
        25 005535   000022 772000                    QRL     18
        25 005536   000000 116000 21                 CMPQ    O3COM
        25 005537   005570 604000 25                 TMI     s:13477

  13469 25 005540   200015 236100                    LDQ     ILL_ETT$,,AUTO
        25 005541   000001 036003                    ADLQ    1,DU
        25 005542   200062 756100                    STQ     CHAR12+4,,AUTO
        25 005543   200062 630500                    EPPR0   CHAR12+4,,AUTO
        25 005544   000002 631400 26                 EPPR1   2
        25 005545   000000 701000 xent               TSX1    Z8GI$INSERT_EVALP
        25 005546   000000 011000                    NOP     0

  13470 25 005547   200015 470500                    LDP0    ILL_ETT$,,AUTO
        25 005550   000001 471500                    LDP1    1,,PR0
        25 005551   100003 236100                    LDQ     3,,PR1
        25 005552   000000 116000 26                 CMPQ    0
        25 005553   005560 600000 25                 TZE     s:13472
        25 005554   100003 473500                    LDP3    3,,PR1
        25 005555   300000 220100                    LDX0    0,,PR3
        25 005556   000341 100003                    CMPX0   225,DU
        25 005557   005611 600000 25                 TZE     s:13483

  13472 25 005560   000060 234000 xsym               SZN     COMCOM+48
        25 005561   005611 605000 25                 TPL     s:13483

  13473 25 005562   200015 236100                    LDQ     ILL_ETT$,,AUTO
        25 005563   000001 036003                    ADLQ    1,DU
        25 005564   200055 756100                    STQ     BASE_ST$$+2,,AUTO
        25 005565   007117 701000 25                 TSX1    OPTIMIZER_ALERT
        25 005566   000000 011000                    NOP     0

  13475 25 005567   005611 710000 25                 TRA     s:13483

  13477 25 005570   100003 236100                    LDQ     3,,PR1
        25 005571   000000 756000 5                  STQ     ILL$
PL6.E3A0      #001=Z8GO$GLOBAL_OPTIMIZER File=Z8GO.:Z8A6TSI                      TUE 08/26/97 07:51 Page:183

  13478 25 005572   000000 474400 5                  LDP4    ILL$
        25 005573   400000 720100                    LXL0    0,,PR4
        25 005574   000001 621010                    EAX1    1,X0
        25 005575   400000 441100                    SXL1    0,,PR4

  13479 25 005576   000000 720000 21                 LXL0    O3COM
        25 005577   000000 470400 5                  LDP0    ILL$
        25 005600   000005 740100                    STX0    5,,PR0

  13480 25 005601   000001 236100                    LDQ     1,,PR0
        25 005602   000022 732000                    QRS     18
        25 005603   005606 604000 25                 TMI     s:13480+5
        25 005604   000011 116000 21                 CMPQ    O3COM+9
        25 005605   005607 603000 25                 TRC     s:13480+6
        25 005606   000011 236000 21                 LDQ     O3COM+9
        25 005607   000000 621006                    EAX1    0,QL
        25 005610   000001 741100                    STX1    1,,PR0

  13483 25 005611   200015 470500                    LDP0    ILL_ETT$,,AUTO
        25 005612   000001 471500                    LDP1    1,,PR0
        25 005613   100003 473500                    LDP3    3,,PR1
        25 005614   000002 236007                    LDQ     2,DL
        25 005615   300002 256100                    ORSQ    2,,PR3

      767    13486    7               END;

      768    13487                  %INCR_COUNT (OP = ROP, BIT = ARITH) ;

  13503 25 005616   200015 470500                    LDP0    ILL_ETT$,,AUTO
        25 005617   000000 220100                    LDX0    0,,PR0
        25 005620   000121 100003                    CMPX0   81,DU
        25 005621   005636 600000 25                 TZE     s:13512
        25 005622   000255 100003                    CMPX0   173,DU
        25 005623   005636 600000 25                 TZE     s:13512
        25 005624   000314 235000 xsym               LDA     COMCOM+204
        25 005625   000002 115007                    CMPA    2,DL
PL6.E3A0      #001=Z8GO$GLOBAL_OPTIMIZER File=Z8GO.:Z8A6TSI                      TUE 08/26/97 07:51 Page:184
        25 005626   005636 605000 25                 TPL     s:13512

  13506 25 005627   200015 236100                    LDQ     ILL_ETT$,,AUTO
        25 005630   000002 036003                    ADLQ    2,DU
        25 005631   200062 756100                    STQ     CHAR12+4,,AUTO
        25 005632   200062 630500                    EPPR0   CHAR12+4,,AUTO
        25 005633   000002 631400 26                 EPPR1   2
        25 005634   000000 701000 xent               TSX1    Z8GO$CHECK_OP
        25 005635   000000 011000                    NOP     0

  13512 25 005636   200015 470500                    LDP0    ILL_ETT$,,AUTO
        25 005637   000000 220100                    LDX0    0,,PR0
        25 005640   000245 100003                    CMPX0   165,DU
        25 005641   005654 601000 25                 TNZ     s:13517
        25 005642   000002 471500                    LDP1    2,,PR0
        25 005643   100000 221100                    LDX1    0,,PR1
        25 005644   000132 101003                    CMPX1   90,DU
        25 005645   005654 601000 25                 TNZ     s:13517

  13514 25 005646   000266 222003                    LDX2    182,DU
        25 005647   000000 742100                    STX2    0,,PR0

  13515 25 005650   200015 470500                    LDP0    ILL_ETT$,,AUTO
        25 005651   000002 471500                    LDP1    2,,PR0
        25 005652   100001 236100                    LDQ     1,,PR1
        25 005653   000002 756100                    STQ     2,,PR0

  13517 25 005654   200015 470500                    LDP0    ILL_ETT$,,AUTO
        25 005655   000000 220100                    LDX0    0,,PR0
        25 005656   000243 100003                    CMPX0   163,DU
        25 005657   005717 601000 25                 TNZ     s:13535
        25 005660   000002 471500                    LDP1    2,,PR0
        25 005661   100000 221100                    LDX1    0,,PR1
        25 005662   000126 101003                    CMPX1   86,DU
        25 005663   005666 600000 25                 TZE     s:13520
        25 005664   000036 101003                    CMPX1   30,DU
        25 005665   005717 601000 25                 TNZ     s:13535
PL6.E3A0      #001=Z8GO$GLOBAL_OPTIMIZER File=Z8GO.:Z8A6TSI                      TUE 08/26/97 07:51 Page:185

  13520 25 005666   000001 236100                    LDQ     1,,PR0
        25 005667   200025 756100                    STQ     LOP$$$,,AUTO

  13523 25 005670   200034 756100                    STQ     ST$$$,,AUTO

  13524 25 005671   200034 473500                    LDP3    ST$$$,,AUTO
        25 005672   300000 222100                    LDX2    0,,PR3
        25 005673   000751 102003                    CMPX2   489,DU
        25 005674   005704 603000 25                 TRC     s:13529

  13525 25 005675   200034 470500                    LDP0    ST$$$,,AUTO
        25 005676   000001 236100                    LDQ     1,,PR0
        25 005677   200034 756100                    STQ     ST$$$,,AUTO

  13526 25 005700   200034 470500                    LDP0    ST$$$,,AUTO
        25 005701   000000 220100                    LDX0    0,,PR0
        25 005702   000751 100003                    CMPX0   489,DU
        25 005703   005675 602000 25                 TNC     s:13525

  13529 25 005704   200034 470500                    LDP0    ST$$$,,AUTO
        25 005705   000001 236100                    LDQ     1,,PR0
        25 005706   007700 316007                    CANQ    4032,DL
        25 005707   005717 601000 25                 TNZ     s:13535

  13530 25 005710   000252 220003                    LDX0    170,DU
        25 005711   200015 471500                    LDP1    ILL_ETT$,,AUTO
        25 005712   100000 740100                    STX0    0,,PR1

  13531 25 005713   200015 471500                    LDP1    ILL_ETT$,,AUTO
        25 005714   100002 473500                    LDP3    2,,PR1
        25 005715   300001 236100                    LDQ     1,,PR3
        25 005716   100002 756100                    STQ     2,,PR1

  13535 25 005717   200015 470500                    LDP0    ILL_ETT$,,AUTO
        25 005720   000002 471500                    LDP1    2,,PR0
        25 005721   100003 236100                    LDQ     3,,PR1
PL6.E3A0      #001=Z8GO$GLOBAL_OPTIMIZER File=Z8GO.:Z8A6TSI                      TUE 08/26/97 07:51 Page:186
        25 005722   000000 116000 26                 CMPQ    0
        25 005723   005737 600000 25                 TZE     s:13542
        25 005724   100003 473500                    LDP3    3,,PR1
        25 005725   300000 220100                    LDX0    0,,PR3
        25 005726   000341 100003                    CMPX0   225,DU
        25 005727   005737 601000 25                 TNZ     s:13542
        25 005730   300004 236100                    LDQ     4,,PR3
        25 005731   000002 116100                    CMPQ    2,,PR0
        25 005732   005737 601000 25                 TNZ     s:13542
        25 005733   100004 236100                    LDQ     4,,PR1
        25 005734   000022 772000                    QRL     18
        25 005735   000000 116000 21                 CMPQ    O3COM
        25 005736   005767 604000 25                 TMI     s:13550

  13542 25 005737   200015 236100                    LDQ     ILL_ETT$,,AUTO
        25 005740   000002 036003                    ADLQ    2,DU
        25 005741   200062 756100                    STQ     CHAR12+4,,AUTO
        25 005742   200062 630500                    EPPR0   CHAR12+4,,AUTO
        25 005743   000002 631400 26                 EPPR1   2
        25 005744   000000 701000 xent               TSX1    Z8GI$INSERT_EVALP
        25 005745   000000 011000                    NOP     0

  13543 25 005746   200015 470500                    LDP0    ILL_ETT$,,AUTO
        25 005747   000002 471500                    LDP1    2,,PR0
        25 005750   100003 236100                    LDQ     3,,PR1
        25 005751   000000 116000 26                 CMPQ    0
        25 005752   005757 600000 25                 TZE     s:13545
        25 005753   100003 473500                    LDP3    3,,PR1
        25 005754   300000 220100                    LDX0    0,,PR3
        25 005755   000341 100003                    CMPX0   225,DU
        25 005756   006010 600000 25                 TZE     s:13556

  13545 25 005757   000060 234000 xsym               SZN     COMCOM+48
        25 005760   006010 605000 25                 TPL     s:13556

  13546 25 005761   200015 236100                    LDQ     ILL_ETT$,,AUTO
        25 005762   000002 036003                    ADLQ    2,DU
PL6.E3A0      #001=Z8GO$GLOBAL_OPTIMIZER File=Z8GO.:Z8A6TSI                      TUE 08/26/97 07:51 Page:187
        25 005763   200055 756100                    STQ     BASE_ST$$+2,,AUTO
        25 005764   007117 701000 25                 TSX1    OPTIMIZER_ALERT
        25 005765   000000 011000                    NOP     0

  13548 25 005766   006010 710000 25                 TRA     s:13556

  13550 25 005767   100003 236100                    LDQ     3,,PR1
        25 005770   000000 756000 5                  STQ     ILL$

  13551 25 005771   000000 474400 5                  LDP4    ILL$
        25 005772   400000 720100                    LXL0    0,,PR4
        25 005773   000001 621010                    EAX1    1,X0
        25 005774   400000 441100                    SXL1    0,,PR4

  13552 25 005775   000000 720000 21                 LXL0    O3COM
        25 005776   000000 470400 5                  LDP0    ILL$
        25 005777   000005 740100                    STX0    5,,PR0

  13553 25 006000   000001 236100                    LDQ     1,,PR0
        25 006001   000022 732000                    QRS     18
        25 006002   006005 604000 25                 TMI     s:13553+5
        25 006003   000011 116000 21                 CMPQ    O3COM+9
        25 006004   006006 603000 25                 TRC     s:13553+6
        25 006005   000011 236000 21                 LDQ     O3COM+9
        25 006006   000000 621006                    EAX1    0,QL
        25 006007   000001 741100                    STX1    1,,PR0

  13556 25 006010   200015 470500                    LDP0    ILL_ETT$,,AUTO
        25 006011   000002 471500                    LDP1    2,,PR0
        25 006012   100003 473500                    LDP3    3,,PR1
        25 006013   000002 236007                    LDQ     2,DL
        25 006014   300002 256100                    ORSQ    2,,PR3

      769    13559
      770    13560                  /* Update op. seg. count if exponentiation */
      771    13561
      772    13562    6             IF ILL_ETT$ -> ETT.ID = %EXDD
PL6.E3A0      #001=Z8GO$GLOBAL_OPTIMIZER File=Z8GO.:Z8A6TSI                      TUE 08/26/97 07:51 Page:188

  13562 25 006015   200015 470500                    LDP0    ILL_ETT$,,AUTO
        25 006016   000000 220100                    LDX0    0,,PR0
        25 006017   000077 100003                    CMPX0   63,DU
        25 006020   006025 600000 25                 TZE     s:13565
        25 006021   000041 100003                    CMPX0   33,DU
        25 006022   006025 600000 25                 TZE     s:13565
        25 006023   000043 100003                    CMPX0   35,DU
        25 006024   006401 601000 25                 TNZ     s:13741

      773    13563    6             OR ILL_ETT$ -> ETT.ID = %EXRR
      774    13564    6             OR ILL_ETT$ -> ETT.ID = %EXQQ     THEN
      775    13565    6               IF O3COM.OP$ ~= ADDR(NIL)             THEN

  13565 25 006025   000012 236000 21                 LDQ     O3COM+10
        25 006026   000000 116000 26                 CMPQ    0
        25 006027   006401 600000 25                 TZE     s:13741

      776    13566    6                 O3COM.OP$ -> CCOSU.CNTE = O3COM.OP$ -> CCOSU.CNTE

  13566 25 006030   000012 471400 21                 LDP1    O3COM+10
        25 006031   100000 721100                    LXL1    0,,PR1
        25 006032   000001 622011                    EAX2    1,X1
        25 006033   100000 442100                    SXL2    0,,PR1
        25 006034   006401 710000 25                 TRA     s:13741

      777    13567          /* Changed to '+ 1'        + O3COM.EVALP$ -> CCOSU.CNTE ;*/
      778    13568    6                                   + 1;
      779    13569
      780    13570    6           CASE (%SSOP_SIZ_BASE) ; /* & FISS & OFF */

      781    13571
      782    13572    6             IF ILL_ETT$ -> ETT.ID = %BASE    THEN

  13572 25 006035   000001 100003                    CMPX0   1,DU
        25 006036   006240 601000 25                 TNZ     s:13655

PL6.E3A0      #001=Z8GO$GLOBAL_OPTIMIZER File=Z8GO.:Z8A6TSI                      TUE 08/26/97 07:51 Page:189
      783    13573    7               DO;

      784    13574
      785    13575    7                 IF ILL_ETT$ -> ILL.ROP -> ETT.ID <= %LAST_ETT   THEN

  13575 25 006037   100002 473500                    LDP3    2,,PR1
        25 006040   300000 221100                    LDX1    0,,PR3
        25 006041   000202 101003                    CMPX1   130,DU
        25 006042   006373 603000 25                 TRC     s:13729

      786    13576    8                   DO;

      787    13577                          %INCR_COUNT (OP = ROP, BIT = ARITH) ;

  13593 25 006043   000121 100003                    CMPX0   81,DU
        25 006044   006060 600000 25                 TZE     s:13602
        25 006045   000255 100003                    CMPX0   173,DU
        25 006046   006060 600000 25                 TZE     s:13602
        25 006047   000314 235000 xsym               LDA     COMCOM+204
        25 006050   000002 115007                    CMPA    2,DL
        25 006051   006060 605000 25                 TPL     s:13602

  13596 25 006052   000002 036003                    ADLQ    2,DU
        25 006053   200062 756100                    STQ     CHAR12+4,,AUTO
        25 006054   200062 630500                    EPPR0   CHAR12+4,,AUTO
        25 006055   000002 631400 26                 EPPR1   2
        25 006056   000000 701000 xent               TSX1    Z8GO$CHECK_OP
        25 006057   000000 011000                    NOP     0

  13602 25 006060   200015 470500                    LDP0    ILL_ETT$,,AUTO
        25 006061   000000 220100                    LDX0    0,,PR0
        25 006062   000245 100003                    CMPX0   165,DU
        25 006063   006076 601000 25                 TNZ     s:13607
        25 006064   000002 471500                    LDP1    2,,PR0
        25 006065   100000 221100                    LDX1    0,,PR1
        25 006066   000132 101003                    CMPX1   90,DU
        25 006067   006076 601000 25                 TNZ     s:13607
PL6.E3A0      #001=Z8GO$GLOBAL_OPTIMIZER File=Z8GO.:Z8A6TSI                      TUE 08/26/97 07:51 Page:190

  13604 25 006070   000266 222003                    LDX2    182,DU
        25 006071   000000 742100                    STX2    0,,PR0

  13605 25 006072   200015 470500                    LDP0    ILL_ETT$,,AUTO
        25 006073   000002 471500                    LDP1    2,,PR0
        25 006074   100001 236100                    LDQ     1,,PR1
        25 006075   000002 756100                    STQ     2,,PR0

  13607 25 006076   200015 470500                    LDP0    ILL_ETT$,,AUTO
        25 006077   000000 220100                    LDX0    0,,PR0
        25 006100   000243 100003                    CMPX0   163,DU
        25 006101   006141 601000 25                 TNZ     s:13625
        25 006102   000002 471500                    LDP1    2,,PR0
        25 006103   100000 221100                    LDX1    0,,PR1
        25 006104   000126 101003                    CMPX1   86,DU
        25 006105   006110 600000 25                 TZE     s:13610
        25 006106   000036 101003                    CMPX1   30,DU
        25 006107   006141 601000 25                 TNZ     s:13625

  13610 25 006110   000001 236100                    LDQ     1,,PR0
        25 006111   200025 756100                    STQ     LOP$$$,,AUTO

  13613 25 006112   200034 756100                    STQ     ST$$$,,AUTO

  13614 25 006113   200034 473500                    LDP3    ST$$$,,AUTO
        25 006114   300000 222100                    LDX2    0,,PR3
        25 006115   000751 102003                    CMPX2   489,DU
        25 006116   006126 603000 25                 TRC     s:13619

  13615 25 006117   200034 470500                    LDP0    ST$$$,,AUTO
        25 006120   000001 236100                    LDQ     1,,PR0
        25 006121   200034 756100                    STQ     ST$$$,,AUTO

  13616 25 006122   200034 470500                    LDP0    ST$$$,,AUTO
        25 006123   000000 220100                    LDX0    0,,PR0
        25 006124   000751 100003                    CMPX0   489,DU
PL6.E3A0      #001=Z8GO$GLOBAL_OPTIMIZER File=Z8GO.:Z8A6TSI                      TUE 08/26/97 07:51 Page:191
        25 006125   006117 602000 25                 TNC     s:13615

  13619 25 006126   200034 470500                    LDP0    ST$$$,,AUTO
        25 006127   000001 236100                    LDQ     1,,PR0
        25 006130   007700 316007                    CANQ    4032,DL
        25 006131   006141 601000 25                 TNZ     s:13625

  13620 25 006132   000252 220003                    LDX0    170,DU
        25 006133   200015 471500                    LDP1    ILL_ETT$,,AUTO
        25 006134   100000 740100                    STX0    0,,PR1

  13621 25 006135   200015 471500                    LDP1    ILL_ETT$,,AUTO
        25 006136   100002 473500                    LDP3    2,,PR1
        25 006137   300001 236100                    LDQ     1,,PR3
        25 006140   100002 756100                    STQ     2,,PR1

  13625 25 006141   200015 470500                    LDP0    ILL_ETT$,,AUTO
        25 006142   000002 471500                    LDP1    2,,PR0
        25 006143   100003 236100                    LDQ     3,,PR1
        25 006144   000000 116000 26                 CMPQ    0
        25 006145   006161 600000 25                 TZE     s:13632
        25 006146   100003 473500                    LDP3    3,,PR1
        25 006147   300000 220100                    LDX0    0,,PR3
        25 006150   000341 100003                    CMPX0   225,DU
        25 006151   006161 601000 25                 TNZ     s:13632
        25 006152   300004 236100                    LDQ     4,,PR3
        25 006153   000002 116100                    CMPQ    2,,PR0
        25 006154   006161 601000 25                 TNZ     s:13632
        25 006155   100004 236100                    LDQ     4,,PR1
        25 006156   000022 772000                    QRL     18
        25 006157   000000 116000 21                 CMPQ    O3COM
        25 006160   006211 604000 25                 TMI     s:13640

  13632 25 006161   200015 236100                    LDQ     ILL_ETT$,,AUTO
        25 006162   000002 036003                    ADLQ    2,DU
        25 006163   200062 756100                    STQ     CHAR12+4,,AUTO
        25 006164   200062 630500                    EPPR0   CHAR12+4,,AUTO
PL6.E3A0      #001=Z8GO$GLOBAL_OPTIMIZER File=Z8GO.:Z8A6TSI                      TUE 08/26/97 07:51 Page:192
        25 006165   000002 631400 26                 EPPR1   2
        25 006166   000000 701000 xent               TSX1    Z8GI$INSERT_EVALP
        25 006167   000000 011000                    NOP     0

  13633 25 006170   200015 470500                    LDP0    ILL_ETT$,,AUTO
        25 006171   000002 471500                    LDP1    2,,PR0
        25 006172   100003 236100                    LDQ     3,,PR1
        25 006173   000000 116000 26                 CMPQ    0
        25 006174   006201 600000 25                 TZE     s:13635
        25 006175   100003 473500                    LDP3    3,,PR1
        25 006176   300000 220100                    LDX0    0,,PR3
        25 006177   000341 100003                    CMPX0   225,DU
        25 006200   006232 600000 25                 TZE     s:13646

  13635 25 006201   000060 234000 xsym               SZN     COMCOM+48
        25 006202   006232 605000 25                 TPL     s:13646

  13636 25 006203   200015 236100                    LDQ     ILL_ETT$,,AUTO
        25 006204   000002 036003                    ADLQ    2,DU
        25 006205   200055 756100                    STQ     BASE_ST$$+2,,AUTO
        25 006206   007117 701000 25                 TSX1    OPTIMIZER_ALERT
        25 006207   000000 011000                    NOP     0

  13638 25 006210   006232 710000 25                 TRA     s:13646

  13640 25 006211   100003 236100                    LDQ     3,,PR1
        25 006212   000000 756000 5                  STQ     ILL$

  13641 25 006213   000000 474400 5                  LDP4    ILL$
        25 006214   400000 720100                    LXL0    0,,PR4
        25 006215   000001 621010                    EAX1    1,X0
        25 006216   400000 441100                    SXL1    0,,PR4

  13642 25 006217   000000 720000 21                 LXL0    O3COM
        25 006220   000000 470400 5                  LDP0    ILL$
        25 006221   000005 740100                    STX0    5,,PR0

PL6.E3A0      #001=Z8GO$GLOBAL_OPTIMIZER File=Z8GO.:Z8A6TSI                      TUE 08/26/97 07:51 Page:193
  13643 25 006222   000001 236100                    LDQ     1,,PR0
        25 006223   000022 732000                    QRS     18
        25 006224   006227 604000 25                 TMI     s:13643+5
        25 006225   000011 116000 21                 CMPQ    O3COM+9
        25 006226   006230 603000 25                 TRC     s:13643+6
        25 006227   000011 236000 21                 LDQ     O3COM+9
        25 006230   000000 621006                    EAX1    0,QL
        25 006231   000001 741100                    STX1    1,,PR0

  13646 25 006232   200015 470500                    LDP0    ILL_ETT$,,AUTO
        25 006233   000002 471500                    LDP1    2,,PR0
        25 006234   100003 473500                    LDP3    3,,PR1
        25 006235   000002 236007                    LDQ     2,DL
        25 006236   300002 256100                    ORSQ    2,,PR3

      788    13649    8                   END;

      789    13650    7               END ;

  13650 25 006237   006373 710000 25                 TRA     s:13729

      790    13651
      791    13652    6             ELSE      /* ID = SSOP, SIZ, OFF, or FISS */
      792    13653
      793    13654    7               DO;

      794    13655    7                 IF ILL_ETT$ -> ETT.LOP -> ETT.ID ~= %PARA   THEN

  13655 25 006240   100001 473500                    LDP3    1,,PR1
        25 006241   300000 221100                    LDX1    0,,PR3
        25 006242   000771 101003                    CMPX1   505,DU
        25 006243   006373 600000 25                 TZE     s:13729

      795    13656    8                   DO;

      796    13657                          %INCR_COUNT (OP = LOP, BIT = ARITH) ;

PL6.E3A0      #001=Z8GO$GLOBAL_OPTIMIZER File=Z8GO.:Z8A6TSI                      TUE 08/26/97 07:51 Page:194
  13661 25 006244   000007 100003                    CMPX0   7,DU
        25 006245   006275 600000 25                 TZE     s:13698
        25 006246   000171 100003                    CMPX0   121,DU
        25 006247   006275 600000 25                 TZE     s:13698
        25 006250   000003 100003                    CMPX0   3,DU
        25 006251   006275 600000 25                 TZE     s:13698
        25 006252   000161 100003                    CMPX0   113,DU
        25 006253   006275 600000 25                 TZE     s:13698
        25 006254   000162 100003                    CMPX0   114,DU
        25 006255   006275 600000 25                 TZE     s:13698
        25 006256   000121 100003                    CMPX0   81,DU
        25 006257   006275 600000 25                 TZE     s:13698
        25 006260   000122 100003                    CMPX0   82,DU
        25 006261   006275 600000 25                 TZE     s:13698
        25 006262   000175 100003                    CMPX0   125,DU
        25 006263   006275 600000 25                 TZE     s:13698
        25 006264   000314 235000 xsym               LDA     COMCOM+204
        25 006265   000002 115007                    CMPA    2,DL
        25 006266   006275 605000 25                 TPL     s:13698

  13670 25 006267   000001 036003                    ADLQ    1,DU
        25 006270   200062 756100                    STQ     CHAR12+4,,AUTO
        25 006271   200062 630500                    EPPR0   CHAR12+4,,AUTO
        25 006272   000002 631400 26                 EPPR1   2
        25 006273   000000 701000 xent               TSX1    Z8GO$CHECK_OP
        25 006274   000000 011000                    NOP     0

  13698 25 006275   200015 470500                    LDP0    ILL_ETT$,,AUTO
        25 006276   000001 471500                    LDP1    1,,PR0
        25 006277   100003 236100                    LDQ     3,,PR1
        25 006300   000000 116000 26                 CMPQ    0
        25 006301   006315 600000 25                 TZE     s:13705
        25 006302   100003 473500                    LDP3    3,,PR1
        25 006303   300000 220100                    LDX0    0,,PR3
        25 006304   000341 100003                    CMPX0   225,DU
        25 006305   006315 601000 25                 TNZ     s:13705
        25 006306   300004 236100                    LDQ     4,,PR3
PL6.E3A0      #001=Z8GO$GLOBAL_OPTIMIZER File=Z8GO.:Z8A6TSI                      TUE 08/26/97 07:51 Page:195
        25 006307   000001 116100                    CMPQ    1,,PR0
        25 006310   006315 601000 25                 TNZ     s:13705
        25 006311   100004 236100                    LDQ     4,,PR1
        25 006312   000022 772000                    QRL     18
        25 006313   000000 116000 21                 CMPQ    O3COM
        25 006314   006345 604000 25                 TMI     s:13713

  13705 25 006315   200015 236100                    LDQ     ILL_ETT$,,AUTO
        25 006316   000001 036003                    ADLQ    1,DU
        25 006317   200062 756100                    STQ     CHAR12+4,,AUTO
        25 006320   200062 630500                    EPPR0   CHAR12+4,,AUTO
        25 006321   000002 631400 26                 EPPR1   2
        25 006322   000000 701000 xent               TSX1    Z8GI$INSERT_EVALP
        25 006323   000000 011000                    NOP     0

  13706 25 006324   200015 470500                    LDP0    ILL_ETT$,,AUTO
        25 006325   000001 471500                    LDP1    1,,PR0
        25 006326   100003 236100                    LDQ     3,,PR1
        25 006327   000000 116000 26                 CMPQ    0
        25 006330   006335 600000 25                 TZE     s:13708
        25 006331   100003 473500                    LDP3    3,,PR1
        25 006332   300000 220100                    LDX0    0,,PR3
        25 006333   000341 100003                    CMPX0   225,DU
        25 006334   006366 600000 25                 TZE     s:13719

  13708 25 006335   000060 234000 xsym               SZN     COMCOM+48
        25 006336   006366 605000 25                 TPL     s:13719

  13709 25 006337   200015 236100                    LDQ     ILL_ETT$,,AUTO
        25 006340   000001 036003                    ADLQ    1,DU
        25 006341   200055 756100                    STQ     BASE_ST$$+2,,AUTO
        25 006342   007117 701000 25                 TSX1    OPTIMIZER_ALERT
        25 006343   000000 011000                    NOP     0

  13711 25 006344   006366 710000 25                 TRA     s:13719

  13713 25 006345   100003 236100                    LDQ     3,,PR1
PL6.E3A0      #001=Z8GO$GLOBAL_OPTIMIZER File=Z8GO.:Z8A6TSI                      TUE 08/26/97 07:51 Page:196
        25 006346   000000 756000 5                  STQ     ILL$

  13714 25 006347   000000 474400 5                  LDP4    ILL$
        25 006350   400000 720100                    LXL0    0,,PR4
        25 006351   000001 621010                    EAX1    1,X0
        25 006352   400000 441100                    SXL1    0,,PR4

  13715 25 006353   000000 720000 21                 LXL0    O3COM
        25 006354   000000 470400 5                  LDP0    ILL$
        25 006355   000005 740100                    STX0    5,,PR0

  13716 25 006356   000001 236100                    LDQ     1,,PR0
        25 006357   000022 732000                    QRS     18
        25 006360   006363 604000 25                 TMI     s:13716+5
        25 006361   000011 116000 21                 CMPQ    O3COM+9
        25 006362   006364 603000 25                 TRC     s:13716+6
        25 006363   000011 236000 21                 LDQ     O3COM+9
        25 006364   000000 621006                    EAX1    0,QL
        25 006365   000001 741100                    STX1    1,,PR0

  13719 25 006366   200015 470500                    LDP0    ILL_ETT$,,AUTO
        25 006367   000001 471500                    LDP1    1,,PR0
        25 006370   100003 473500                    LDP3    3,,PR1
        25 006371   000002 236007                    LDQ     2,DL
        25 006372   300002 256100                    ORSQ    2,,PR3

      797    13722    8                   END ;

      798    13723    7               END ; /* ID = SSOP, SIZE, OFF, or FISS */

      799    13724
      800    13725                  /* Increment the count of the ROP if it's
      801    13726                     a SIZ or a non-INITV-INCRV SSOP.
      802    13727                  */
      803    13728
      804    13729    6             CALL INCR_ROP_OF_SSOP_OR_SIZ (ILL_ETT$,

PL6.E3A0      #001=Z8GO$GLOBAL_OPTIMIZER File=Z8GO.:Z8A6TSI                      TUE 08/26/97 07:51 Page:197
  13729 25 006373   200015 236100                    LDQ     ILL_ETT$,,AUTO
        25 006374   200050 756100                    STQ     @OP$+1,,AUTO
        25 006375   200015 630500                    EPPR0   ILL_ETT$,,AUTO
        25 006376   200047 450500                    STP0    VAL_END_ILL$+3,,AUTO
        25 006377   007150 701000 25                 TSX1    INCR_ROP_OF_SSOP_OR_SIZ
        25 006400   000000 011000                    NOP     0

      805    13730    6                                           ILL_ETT$ -> ETT.ID) ;
      806    13731
      807    13732    6         END /* Case of EVALP -> triad ID */ ;

      808    13733
      809    13734              /*V* Change the EVALP ID to CCOSU if one of the
      810    13735                   following conditions is met:
      811    13736                   (1) the count is > 1 (more than one ref),
      812    13737                   (2) the expression can be removed from a loop,
      813    13738                or (3) the expression is "good forever".
      814    13739              */
      815    13740
      816    13741    5         ETT_ID = O3COM.EVALP$ -> CCOSU.EVEX -> ETT.ID ;

  13741 25 006401   000002 470400 21                 LDP0    O3COM+2
        25 006402   000004 471500                    LDP1    4,,PR0
        25 006403   100000 236100                    LDQ     0,,PR1
        25 006404   000022 772000                    QRL     18
        25 006405   200010 756100                    STQ     ETT_ID,,AUTO

      817    13742    5         ETT$$ = O3COM.EVALP$ -> CCOSU.EVEX ;

  13742 25 006406   000004 236100                    LDQ     4,,PR0
        25 006407   200011 756100                    STQ     ETT$$,,AUTO

      818    13743
      819    13744    5         IF  ETT_ID = %ESC

  13744 25 006410   200010 235100                    LDA     ETT_ID,,AUTO
        25 006411   000017 115007                    CMPA    15,DL
PL6.E3A0      #001=Z8GO$GLOBAL_OPTIMIZER File=Z8GO.:Z8A6TSI                      TUE 08/26/97 07:51 Page:198
        25 006412   006424 601000 25                 TNZ     s:13744+12
        25 006413   200011 473500                    LDP3    ETT$$,,AUTO
        25 006414   300001 474500                    LDP4    1,,PR3
        25 006415   400000 220100                    LDX0    0,,PR4
        25 006416   000774 100003                    CMPX0   508,DU
        25 006417   006424 601000 25                 TNZ     s:13744+12
        25 006420   400000 236100                    LDQ     0,,PR4
        25 006421   000777 376007                    ANQ     511,DL
        25 006422   000001 116007                    CMPQ    1,DL
        25 006423   006430 600000 25                 TZE     s:13749
        25 006424   000015 115007                    CMPA    13,DL
        25 006425   006430 600000 25                 TZE     s:13749
        25 006426   000122 115007                    CMPA    82,DL
        25 006427   006433 601000 25                 TNZ     s:13752

      820    13745    5             AND ETT$$ -> ETT.LOP -> ST.ID = %BLOCK
      821    13746    5             AND ETT$$ -> ETT.LOP -> ST.COUNT = 1
      822    13747    5           OR ETT_ID = %TRIAD
      823    13748    5           OR ETT_ID = %CMPAS THEN
      824    13749    5           CALL DELETE_EVALP ;

  13749 25 006430   006707 701000 25                 TSX1    DELETE_EVALP
        25 006431   000000 011000                    NOP     0
        25 006432   006547 710000 25                 TRA     s:13797

      825    13750    5         ELSE
      826    13751
      827    13752    5         IF O3COM.EVALP$ -> CCOSU.CNTE > 1

  13752 25 006433   000000 720100                    LXL0    0,,PR0
        25 006434   000001 100003                    CMPX0   1,DU
        25 006435   006463 605400 25                 TPNZ    s:13761
        25 006436   000002 236100                    LDQ     2,,PR0
        25 006437   010000 316003                    CANQ    4096,DU
        25 006440   006443 600000 25                 TZE     s:13752+8
        25 006441   000000 100003                    CMPX0   0,DU
        25 006442   006463 605400 25                 TPNZ    s:13761
PL6.E3A0      #001=Z8GO$GLOBAL_OPTIMIZER File=Z8GO.:Z8A6TSI                      TUE 08/26/97 07:51 Page:199
        25 006443   000001 236100                    LDQ     1,,PR0
        25 006444   000022 732000                    QRS     18
        25 006445   006451 604000 25                 TMI     s:13752+14
        25 006446   000011 116000 21                 CMPQ    O3COM+9
        25 006447   006451 600000 25                 TZE     s:13752+14
        25 006450   006457 603000 25                 TRC     s:13752+20
        25 006451   000423 473400 xsym               LDP3    COMCOM+275
        25 006452   300000 236100                    LDQ     0,,PR3
        25 006453   777777 376007                    ANQ     -1,DL
        25 006454   000001 036007                    ADLQ    1,DL
        25 006455   000000 116000 21                 CMPQ    O3COM
        25 006456   006545 601000 25                 TNZ     s:13793
        25 006457   000001 100003                    CMPX0   1,DU
        25 006460   006545 601000 25                 TNZ     s:13793
        25 006461   000003 115007                    CMPA    3,DL
        25 006462   006545 600000 25                 TZE     s:13793

      828    13753    5         OR ( O3COM.EVALP$ -> CCOSU.B.VAL_FREEZE
      829    13754    5          AND O3COM.EVALP$ -> CCOSU.CNTE > 0  )
      830    13755    5         OR ( ( O3COM.LOOP_LEVEL < O3COM.EVALP$ -> CCOSU.LEVEL
      831    13756    5             OR O3COM.CURRENT_SEQ_NO = COMCOM.H_ENTRY$ -> ILS.SEQNO + 1 )
      832    13757    5          AND ( O3COM.EVALP$ -> CCOSU.CNTE = 1
      833    13758    5            AND ETT_ID ~= %OFF ) )
      834    13759    6         THEN DO ;

      835    13760
      836    13761    6           O3COM.EVALP$ -> ILL.ID = %CCOSU ;

  13761 25 006463   000342 221003                    LDX1    226,DU
        25 006464   000000 741100                    STX1    0,,PR0

      837    13762    6           IF  O3COM.CURRENT_SEQ_NO = COMCOM.H_ENTRY$ -> ILS.SEQNO + 1

  13762 25 006465   000423 470400 xsym               LDP0    COMCOM+275
        25 006466   000000 236100                    LDQ     0,,PR0
        25 006467   777777 376007                    ANQ     -1,DL
        25 006470   000001 036007                    ADLQ    1,DL
PL6.E3A0      #001=Z8GO$GLOBAL_OPTIMIZER File=Z8GO.:Z8A6TSI                      TUE 08/26/97 07:51 Page:200
        25 006471   000000 116000 21                 CMPQ    O3COM
        25 006472   006500 601000 25                 TNZ     s:13766
        25 006473   000017 115007                    CMPA    15,DL
        25 006474   006500 600000 25                 TZE     s:13766

      838    13763    6           AND ETT_ID ~= %ESC
      839    13764    6           THEN O3COM.EVALP$ -> CCOSU.B.GOOD_FOREVER = '1'B ;

  13764 25 006475   000002 471400 21                 LDP1    O3COM+2
        25 006476   020000 236003                    LDQ     8192,DU
        25 006477   100002 256100                    ORSQ    2,,PR1

      840    13765
      841    13766    6           IF (O3COM.LOOP_LEVEL < O3COM.EVALP$ -> CCOSU.LEVEL

  13766 25 006500   000002 470400 21                 LDP0    O3COM+2
        25 006501   000001 236100                    LDQ     1,,PR0
        25 006502   000022 732000                    QRS     18
        25 006503   006507 604000 25                 TMI     s:13766+7
        25 006504   000011 116000 21                 CMPQ    O3COM+9
        25 006505   006507 600000 25                 TZE     s:13766+7
        25 006506   006515 603000 25                 TRC     s:13766+13
        25 006507   000423 471400 xsym               LDP1    COMCOM+275
        25 006510   100000 236100                    LDQ     0,,PR1
        25 006511   777777 376007                    ANQ     -1,DL
        25 006512   000001 036007                    ADLQ    1,DL
        25 006513   000000 116000 21                 CMPQ    O3COM
        25 006514   006525 601000 25                 TNZ     s:13772
        25 006515   000016 115007                    CMPA    14,DL
        25 006516   006525 600000 25                 TZE     s:13772
        25 006517   000001 115007                    CMPA    1,DL
        25 006520   006525 600000 25                 TZE     s:13772
        25 006521   000017 115007                    CMPA    15,DL
        25 006522   006525 600000 25                 TZE     s:13772

      842    13767    6           OR O3COM.CURRENT_SEQ_NO = COMCOM.H_ENTRY$ -> ILS.SEQNO+1)
      843    13768    6           AND ETT_ID ~= %ARGP
PL6.E3A0      #001=Z8GO$GLOBAL_OPTIMIZER File=Z8GO.:Z8A6TSI                      TUE 08/26/97 07:51 Page:201
      844    13769    6           AND ETT_ID ~= %BASE
      845    13770    6           AND ETT_ID ~= %ESC
      846    13771    6           THEN O3COM.EVALP$ -> CCOSU.B.EVAL = '1'B ;

  13771 25 006523   000004 236007                    LDQ     4,DL
        25 006524   000002 256100                    ORSQ    2,,PR0

      847    13772    6           ILL$ = O3COM.EVALP$ -> CCOSU.ILL$ ;

  13772 25 006525   000002 470400 21                 LDP0    O3COM+2
        25 006526   000003 236100                    LDQ     3,,PR0
        25 006527   000000 756000 5                  STQ     ILL$

      848    13773
      849    13774                /*V* Reverse the links of the CCOSUs for Phase 4 */
      850    13775
      851    13776    6           O3COM.EVALP$ -> CCOSU.ILL$ = HEAD_CCOSU ;

  13776 25 006530   200013 236100                    LDQ     HEAD_CCOSU,,AUTO
        25 006531   000003 756100                    STQ     3,,PR0

      852    13777    6           HEAD_CCOSU = O3COM.EVALP$ ;

  13777 25 006532   000002 236000 21                 LDQ     O3COM+2
        25 006533   200013 756100                    STQ     HEAD_CCOSU,,AUTO

      853    13778    6           IF TAIL_CCOSU = ADDR(NIL)    THEN

  13778 25 006534   200035 236100                    LDQ     TAIL_CCOSU,,AUTO
        25 006535   000000 116000 26                 CMPQ    0
        25 006536   006541 601000 25                 TNZ     s:13781

      854    13779    6             TAIL_CCOSU = O3COM.EVALP$ ;

  13779 25 006537   000002 236000 21                 LDQ     O3COM+2
        25 006540   200035 756100                    STQ     TAIL_CCOSU,,AUTO

PL6.E3A0      #001=Z8GO$GLOBAL_OPTIMIZER File=Z8GO.:Z8A6TSI                      TUE 08/26/97 07:51 Page:202
      855    13780
      856    13781    6           IF O3COM.CURRENT_SEQ_NO = COMCOM.FIRST_ENTRY_SEQ_NUM THEN

  13781 25 006541   000000 236000 21                 LDQ     O3COM
        25 006542   000440 116000 xsym               CMPQ    COMCOM+288
        25 006543   006547 601000 25                 TNZ     s:13797

      857    13782    7             DO;

      858    13783                    %PICK_ESC_LIST ;
      859    13787    7             END ;

      860    13788
      861    13789    6         END /* If Then Do */ ;

  13789 25 006544   006547 710000 25                 TRA     s:13797

      862    13790
      863    13791    6         ELSE DO ; /* CNTE = 1 or 0 --- Delete EVALP */

      864    13792
      865    13793    6           CALL DELETE_EVALP ;

  13793 25 006545   006707 701000 25                 TSX1    DELETE_EVALP
        25 006546   000000 011000                    NOP     0

      866    13794
      867    13795    6         END /* Else Do */ ;

      868    13796
      869    13797    5         O3COM.EVALP$ = ILL$ ; /* Update Loop Index */

  13797 25 006547   000000 236000 5                  LDQ     ILL$
        25 006550   000002 756000 21                 STQ     O3COM+2

      870    13798
      871    13799    5       END /* Do While ID = EVALP */ ;
PL6.E3A0      #001=Z8GO$GLOBAL_OPTIMIZER File=Z8GO.:Z8A6TSI                      TUE 08/26/97 07:51 Page:203

  13799 25 006551   000002 470400 21                 LDP0    O3COM+2
        25 006552   000000 220100                    LDX0    0,,PR0
        25 006553   000341 100003                    CMPX0   225,DU
        25 006554   004723 600000 25                 TZE     s:13183

      872    13800
      873    13801            /* Insert INITV's after CCOSU's */
      874    13802
      875    13803    5       IF FIRST_INITV$ ~= ADDR(NIL) THEN DO ;

  13803 25 006555   200012 236100                    LDQ     FIRST_INITV$,,AUTO
        25 006556   000000 116000 26                 CMPQ    0
        25 006557   006565 600000 25                 TZE     s:13808

      876    13804    5         LAST_INITV$ -> ILL.ILL$ = O3COM.EVALP$ ;

  13804 25 006560   000002 236000 21                 LDQ     O3COM+2
        25 006561   200023 470500                    LDP0    LAST_INITV$,,AUTO
        25 006562   000003 756100                    STQ     3,,PR0

      877    13805    5         O3COM.EVALP$ = FIRST_INITV$ ;

  13805 25 006563   200012 236100                    LDQ     FIRST_INITV$,,AUTO
        25 006564   000002 756000 21                 STQ     O3COM+2

      878    13806    5       END ;

      879    13807
      880    13808    4       IF TAIL_CCOSU = ADDR(NIL)    THEN

  13808 25 006565   200035 236100                    LDQ     TAIL_CCOSU,,AUTO
        25 006566   000000 116000 26                 CMPQ    0
        25 006567   006574 601000 25                 TNZ     s:13813

      881    13809    4         ILS$ -> ILS.ILL$ = O3COM.EVALP$ ;

PL6.E3A0      #001=Z8GO$GLOBAL_OPTIMIZER File=Z8GO.:Z8A6TSI                      TUE 08/26/97 07:51 Page:204
  13809 25 006570   000002 236000 21                 LDQ     O3COM+2
        25 006571   000000 470400 1                  LDP0    ILS$
        25 006572   000003 756100                    STQ     3,,PR0
        25 006573   006605 710000 25                 TRA     s:13825

      882    13810    4       ELSE
      883    13811
      884    13812    5         DO;            /* There was at least one CCOSU */

      885    13813    5           ILS$ -> ILS.ILL$ = HEAD_CCOSU ;

  13813 25 006574   200013 236100                    LDQ     HEAD_CCOSU,,AUTO
        25 006575   000000 470400 1                  LDP0    ILS$
        25 006576   000003 756100                    STQ     3,,PR0

      886    13814    5           TAIL_CCOSU->CCOSU.ILL$ = O3COM.EVALP$ ;

  13814 25 006577   000002 236000 21                 LDQ     O3COM+2
        25 006600   200035 471500                    LDP1    TAIL_CCOSU,,AUTO
        25 006601   100003 756100                    STQ     3,,PR1

      887    13815    5           IF O3COM.CURRENT_SEQ_NO = COMCOM.FIRST_ENTRY_SEQ_NUM THEN

  13815 25 006602   000000 236000 21                 LDQ     O3COM
        25 006603   000440 116000 xsym               CMPQ    COMCOM+288
        25 006604   006605 601000 25                 TNZ     s:13825

      888    13816    6             DO;

      889    13817                    %PUT_ESC_LIST ;
      890    13821    6             END;

      891    13822    5         END ;

      892    13823
      893    13824
      894    13825    4       ILL_ETT$ = O3COM.EVALP$ ; /* ILL item after last EVALP */
PL6.E3A0      #001=Z8GO$GLOBAL_OPTIMIZER File=Z8GO.:Z8A6TSI                      TUE 08/26/97 07:51 Page:205

  13825 25 006605   000002 236000 21                 LDQ     O3COM+2
        25 006606   200015 756100                    STQ     ILL_ETT$,,AUTO

      895    13826    4       O3COM.EVALP$ = ADDR(NIL) ;

  13826 25 006607   000000 236000 26                 LDQ     0
        25 006610   000002 756000 21                 STQ     O3COM+2

      896    13827    4       GOTO UPDATE_COUNT ;   /* Optimize original ILL item */

  13827 25 006611   002135 710000 25                 TRA     UPDATE_COUNT

      897    13828
      898    13829    4   END /* CASE (P3VEC) */ ;

      899    13830        %EJECT;
PL6.E3A0      #001=Z8GO$GLOBAL_OPTIMIZER File=Z8GO.:Z8A6TSI                      TUE 08/26/97 07:51 Page:206
      900    13831            /* Update op. seg. count for ILL library calls */
      901    13832
      902    13833    4          DO CASE (ILL_ETT$ -> ILL.ID) ;

  13833 25 006612   200015 470500                    LDP0    ILL_ETT$,,AUTO
        25 006613   000000 236100                    LDQ     0,,PR0
        25 006614   000022 772000                    QRL     18
        25 006615   000337 136007                    SBLQ    223,DL
        25 006616   000034 116007                    CMPQ    28,DL
        25 006617   006621 602006 25                 TNC     s:13833+7,QL
        25 006620   006664 710000 25                 TRA     s:13844
        25 006621   006655 710000 25                 TRA     s:13837
        25 006622   006655 710000 25                 TRA     s:13837
        25 006623   006664 710000 25                 TRA     s:13844
        25 006624   006664 710000 25                 TRA     s:13844
        25 006625   006664 710000 25                 TRA     s:13844
        25 006626   006664 710000 25                 TRA     s:13844
        25 006627   006664 710000 25                 TRA     s:13844
        25 006630   006664 710000 25                 TRA     s:13844
        25 006631   006664 710000 25                 TRA     s:13844
        25 006632   006664 710000 25                 TRA     s:13844
        25 006633   006664 710000 25                 TRA     s:13844
        25 006634   006664 710000 25                 TRA     s:13844
        25 006635   006664 710000 25                 TRA     s:13844
        25 006636   006664 710000 25                 TRA     s:13844
        25 006637   006664 710000 25                 TRA     s:13844
        25 006640   006664 710000 25                 TRA     s:13844
        25 006641   006664 710000 25                 TRA     s:13844
        25 006642   006664 710000 25                 TRA     s:13844
        25 006643   006664 710000 25                 TRA     s:13844
        25 006644   006655 710000 25                 TRA     s:13837
        25 006645   006664 710000 25                 TRA     s:13844
        25 006646   006664 710000 25                 TRA     s:13844
        25 006647   006664 710000 25                 TRA     s:13844
        25 006650   006664 710000 25                 TRA     s:13844
        25 006651   006664 710000 25                 TRA     s:13844
        25 006652   006664 710000 25                 TRA     s:13844
PL6.E3A0      #001=Z8GO$GLOBAL_OPTIMIZER File=Z8GO.:Z8A6TSI                      TUE 08/26/97 07:51 Page:207
        25 006653   006655 710000 25                 TRA     s:13837
        25 006654   006655 710000 25                 TRA     s:13837

      903    13834
      904    13835    4            CASE (%STOP, %STOPL, %ACCEP, %DISPL, %OS_CALL) ;

      905    13836
      906    13837    4              IF O3COM.OP$ ~= ADDR(NIL)   THEN

  13837 25 006655   000012 236000 21                 LDQ     O3COM+10
        25 006656   000000 116000 26                 CMPQ    0
        25 006657   006664 600000 25                 TZE     s:13844

      907    13838    4                O3COM.OP$ -> CCOSU.CNTE = O3COM.OP$ -> CCOSU.CNTE + 1 ;

  13838 25 006660   000012 471400 21                 LDP1    O3COM+10
        25 006661   100000 720100                    LXL0    0,,PR1
        25 006662   000001 621010                    EAX1    1,X0
        25 006663   100000 441100                    SXL1    0,,PR1

      908    13839
      909    13840    4          END /* Case of ILL ID */ ;

      910    13841
      911    13842    3        END /* IF ILL_ETT$ ~= ADDR(NIL) */ ;

      912    13843
      913    13844    2        NEXT_ILS$ = ILS$ -> ILS.NEXT ;

  13844 25 006664   000000 470400 1                  LDP0    ILS$
        25 006665   000002 236100                    LDQ     2,,PR0
        25 006666   200026 756100                    STQ     NEXT_ILS$,,AUTO

      914    13845    2        ILS$ -> ILS.NEXT = PREV_ILS$ ;

  13845 25 006667   200032 236100                    LDQ     PREV_ILS$,,AUTO
        25 006670   000002 756100                    STQ     2,,PR0
PL6.E3A0      #001=Z8GO$GLOBAL_OPTIMIZER File=Z8GO.:Z8A6TSI                      TUE 08/26/97 07:51 Page:208

      915    13846    2        PREV_ILS$ = ILS$ ;

  13846 25 006671   000000 236000 1                  LDQ     ILS$
        25 006672   200032 756100                    STQ     PREV_ILS$,,AUTO

      916    13847    2        ILS$ = NEXT_ILS$ ;

  13847 25 006673   200026 236100                    LDQ     NEXT_ILS$,,AUTO
        25 006674   000000 756000 1                  STQ     ILS$

      917    13848    2        FIRST_INITV$ = ADDR(NIL) ;

  13848 25 006675   000000 236000 26                 LDQ     0
        25 006676   200012 756100                    STQ     FIRST_INITV$,,AUTO

  13848 25 006677                       DO_WHILE_IL* null
      918    13849
      919    13850    2   DO_WHILE_ILS$_NON_NIL: ;
      920    13851
      921    13852    2       END /* DO WHILE */ ;

  13852 25 006677   000000 236000 1                  LDQ     ILS$
        25 006700   000000 116000 26                 CMPQ    0
        25 006701   000130 601000 25                 TNZ     s:11554

      922    13853
      923    13854    1       COMCOM.FIRST_ILS = PREV_ILS$ ;

  13854 25 006702   200032 236100                    LDQ     PREV_ILS$,,AUTO
        25 006703   000010 756000 xsym               STQ     COMCOM+8

      924    13855
      925    13856            /* Set Label Definition Head Link for Phase 4 */
      926    13857
      927    13858    1       COMCOM.H_LBL = PREV_LBL$ ;

PL6.E3A0      #001=Z8GO$GLOBAL_OPTIMIZER File=Z8GO.:Z8A6TSI                      TUE 08/26/97 07:51 Page:209
  13858 25 006704   200033 236100                    LDQ     PREV_LBL$,,AUTO
        25 006705   000321 756000 xsym               STQ     COMCOM+209

      928    13859
      929    13860    1       RETURN ;

  13860 25 006706   000000 702200 xent               TSX2  ! X66_ARET

      930    13861
      931    13862        %EJECT;
PL6.E3A0      #001=Z8GO$GLOBAL_OPTIMIZER File=Z8GO.:Z8A6TSI                      TUE 08/26/97 07:51 Page:210
      932    13863    1    DELETE_EVALP: PROC ;

  13863 25 006707   200046 741300       DELETE_EVALP STX1  ! VAL_END_ILL$+2,,AUTO

      933    13864
      934    13865    2          ILL$ = O3COM.EVALP$ -> CCOSU.ILL$ ;

  13865 25 006710   000002 470400 21                 LDP0    O3COM+2
        25 006711   000003 236100                    LDQ     3,,PR0
        25 006712   000000 756000 5                  STQ     ILL$

      935    13866
      936    13867    2          IF PREV$ = ADDR(NIL)     THEN

  13867 25 006713   200031 236100                    LDQ     PREV$,,AUTO
        25 006714   000000 116000 26                 CMPQ    0
        25 006715   006722 601000 25                 TNZ     s:13870

      937    13868    2            ILS$ -> ILS.ILL$ = ILL$ ;

  13868 25 006716   000000 236000 5                  LDQ     ILL$
        25 006717   000000 471400 1                  LDP1    ILS$
        25 006720   100003 756100                    STQ     3,,PR1
        25 006721   006725 710000 25                 TRA     s:13880

      938    13869    2          ELSE
      939    13870    2            PREV$ -> CCOSU.ILL$ = ILL$;

  13870 25 006722   000000 236000 5                  LDQ     ILL$
        25 006723   200031 471500                    LDP1    PREV$,,AUTO
        25 006724   100003 756100                    STQ     3,,PR1

      940    13871
      941    13872               /* Link Discarded EVALP items into
      942    13873                  EVALP pool.                          */
      943    13874               %INSERT_INTO_SL_LIST(PTR=O3COM.EVALP$,
      944    13875                                    ITEM=CCOSU,
PL6.E3A0      #001=Z8GO$GLOBAL_OPTIMIZER File=Z8GO.:Z8A6TSI                      TUE 08/26/97 07:51 Page:211
      945    13876                                    HEAD=O3COM.HEAD_EVALP$,
      946    13877                                    NEXT=NEXT$ );

  13880 25 006725   000066 236000 21                 LDQ     O3COM+54
        25 006726   000003 756100                    STQ     3,,PR0

  13881 25 006727   000002 236000 21                 LDQ     O3COM+2
        25 006730   000066 756000 21                 STQ     O3COM+54

      947    13890    2    END DELETE_EVALP ;

  13890 25 006731   200046 221300                    LDX1  ! VAL_END_ILL$+2,,AUTO
        25 006732   000001 702211                    TSX2  ! 1,X1

      948    13891
      949    13892        %EJECT;
PL6.E3A0      #001=Z8GO$GLOBAL_OPTIMIZER File=Z8GO.:Z8A6TSI                      TUE 08/26/97 07:51 Page:212
      950    13893        /*D*       NAME: PICK_ESC_LIST
      951    13894
      952    13895                   CALL: CALL PICK_ESC_LIST ;
      953    13896
      954    13897            DESCRIPTION: This routine is called when the current sequence
      955    13898                         number is COMCOM.FIRST_ENTRY_SEQ_NUM and a EVALP has been
      956    13899                         turned into a CCOSU.  If the ID of the CCOSU's
      957    13900                         triad is ESC and the count is high enough, then
      958    13901                         this CCOSU's count will be added to the list of
      959    13902                         counts that represent the top 5 referenced ESCs
      960    13903                         in the program.  The routine PUT_ESC_LIST will use
      961    13904                         this information.
      962    13905
      963    13906        */
      964    13907
      965    13908    1   PICK_ESC_LIST: PROC ;

  13908 25 006733   200046 741300       PICK_ESC_LI* STX1  ! VAL_END_ILL$+2,,AUTO

      966    13909
      967    13910    2          IF ( ( O3COM.EVALP$ -> CCOSU.EVEX->ETT.ID = %ESC

  13910 25 006734   000002 470400 21                 LDP0    O3COM+2
        25 006735   000004 471500                    LDP1    4,,PR0
        25 006736   100000 220100                    LDX0    0,,PR1
        25 006737   000017 100003                    CMPX0   15,DU
        25 006740   006750 601000 25                 TNZ     s:13910+12
        25 006741   100001 473500                    LDP3    1,,PR1
        25 006742   300000 222100                    LDX2    0,,PR3
        25 006743   000774 102003                    CMPX2   508,DU
        25 006744   006750 601000 25                 TNZ     s:13910+12
        25 006745   000004 236100                    LDQ     4,,PR0
        25 006746   000007 116000 xsym               CMPQ    COMCOM+7
        25 006747   006755 601000 25                 TNZ     s:13910+17
        25 006750   000016 100003                    CMPX0   14,DU
        25 006751   007024 601000 25                 TNZ     LOOP_EXIT
        25 006752   000315 235000 xsym               LDA     COMCOM+205
PL6.E3A0      #001=Z8GO$GLOBAL_OPTIMIZER File=Z8GO.:Z8A6TSI                      TUE 08/26/97 07:51 Page:213
        25 006753   000001 115007                    CMPA    1,DL
        25 006754   007024 601000 25                 TNZ     LOOP_EXIT
        25 006755   000000 236100                    LDQ     0,,PR0
        25 006756   000022 736000                    QLS     18
        25 006757   000022 732000                    QRS     18
        25 006760   000003 116000 22                 CMPQ    TOP5+3
        25 006761   007024 604400 25                 TMOZ    LOOP_EXIT

      968    13911    2             AND O3COM.EVALP$ -> CCOSU.EVEX->ETT.LOP -> ST.ID = %BLOCK
      969    13912    2             AND O3COM.EVALP$ -> CCOSU.EVEX ~= COMCOM.ESC )
      970    13913    2            OR ( O3COM.EVALP$ -> CCOSU.EVEX->ETT.ID = %ARGP
      971    13914    2             AND COMCOM.SYMDEFC = 1 ) )
      972    13915    3          AND    O3COM.EVALP$ -> CCOSU.CNTE > TOP5.COUNT (%(#PTR_REGS - 1)) THEN DO ;

      973    13916
      974    13917    4            DO I = 0 TO %(#PTR_REGS - 1) ;

  13917 25 006762   200014 450100                    STZ     I,,AUTO

      975    13918
      976    13919    5              IF O3COM.EVALP$ -> CCOSU.CNTE > TOP5.COUNT(I) THEN DO ;

  13919 25 006763   200014 720100                    LXL0    I,,AUTO
        25 006764   000002 470400 21                 LDP0    O3COM+2
        25 006765   000000 236100                    LDQ     0,,PR0
        25 006766   000022 736000                    QLS     18
        25 006767   000022 732000                    QRS     18
        25 006770   000000 116010 22                 CMPQ    TOP5,X0
        25 006771   007020 604400 25                 TMOZ    s:13932

      977    13920
      978    13921    6                DO J = %(#PTR_REGS - 2) DOWNTO I ;

  13921 25 006772   000002 235007                    LDA     2,DL
        25 006773   200022 755100                    STA     J,,AUTO
        25 006774   007004 710000 25                 TRA     s:13924+2

PL6.E3A0      #001=Z8GO$GLOBAL_OPTIMIZER File=Z8GO.:Z8A6TSI                      TUE 08/26/97 07:51 Page:214
      979    13922    6                  TOP5.COUNT (J+1) = TOP5.COUNT (J) ;

  13922 25 006775   200022 720100                    LXL0    J,,AUTO
        25 006776   000000 235010 22                 LDA     TOP5,X0
        25 006777   000001 755010 22                 STA     TOP5+1,X0

      980    13923    6                  TOP5.PTR$ (J + 1) = TOP5.PTR$ (J);

  13923 25 007000   000005 236010 22                 LDQ     TOP5+5,X0
        25 007001   000006 756010 22                 STQ     TOP5+6,X0

      981    13924    6                END ;

  13924 25 007002   000001 336007                    LCQ     1,DL
        25 007003   200022 056100                    ASQ     J,,AUTO
        25 007004   200022 236100                    LDQ     J,,AUTO
        25 007005   200014 116100                    CMPQ    I,,AUTO
        25 007006   006775 605000 25                 TPL     s:13922

      982    13925
      983    13926    5                TOP5.COUNT(I) = O3COM.EVALP$ -> CCOSU.CNTE ;

  13926 25 007007   000002 470400 21                 LDP0    O3COM+2
        25 007010   000000 236100                    LDQ     0,,PR0
        25 007011   000022 736000                    QLS     18
        25 007012   000022 732000                    QRS     18
        25 007013   200014 720100                    LXL0    I,,AUTO
        25 007014   000000 756010 22                 STQ     TOP5,X0

      984    13927    5                TOP5.PTR$ (I) = O3COM.EVALP$ -> CCOSU.EVEX;

  13927 25 007015   000004 236100                    LDQ     4,,PR0
        25 007016   000005 756010 22                 STQ     TOP5+5,X0

      985    13928    5                GOTO LOOP_EXIT ;

  13928 25 007017   007024 710000 25                 TRA     LOOP_EXIT
PL6.E3A0      #001=Z8GO$GLOBAL_OPTIMIZER File=Z8GO.:Z8A6TSI                      TUE 08/26/97 07:51 Page:215

      986    13929
      987    13930    5              END /* If CNTE > COUNT (I) */ ;
      988    13931
      989    13932    4            END /* DO I */ ;

  13932 25 007020   200014 054100                    AOS     I,,AUTO
        25 007021   200014 235100                    LDA     I,,AUTO
        25 007022   000003 115007                    CMPA    3,DL
        25 007023   006763 604400 25                 TMOZ    s:13919

  13923 25 007024                       LOOP_EXIT    null
      990    13933    3   LOOP_EXIT: ;
      991    13934
      992    13935    3          END /* If Then Do */ ;

      993    13936
      994    13937    2   END PICK_ESC_LIST ;

  13937 25 007024   200046 221300                    LDX1  ! VAL_END_ILL$+2,,AUTO
        25 007025   000001 702211                    TSX2  ! 1,X1

      995    13938
      996    13939        %EJECT;
PL6.E3A0      #001=Z8GO$GLOBAL_OPTIMIZER File=Z8GO.:Z8A6TSI                      TUE 08/26/97 07:51 Page:216
      997    13940        /*D*       NAME: PUT_ESC_LIST
      998    13941
      999    13942                   CALL: CALL PUT_ESC_LIST ;
     1000    13943
     1001    13944            DESCRIPTION: This routine is called when the current sequence
     1002    13945                         number is COMCOM.FIRST_ENTRY_SEQ_NUM and the ESC CCOSU's
     1003    13946                         have been processed.  TOP5.COUNT is an array
     1004    13947                         containing the counts of the most referenced
     1005    13948                         ESC triads. This routine will add these top 5
     1006    13949                         CCOSU items to COMCOM.ESC_LIST for use by Phase 4.
     1007    13950
     1008    13951        */
     1009    13952
     1010    13953    1   PUT_ESC_LIST: PROC ;

  13953 25 007026   200046 741300       PUT_ESC_LIST STX1  ! VAL_END_ILL$+2,,AUTO

     1011    13954
     1012    13955
     1013    13956    2          I = 0;

  13956 25 007027   200014 450100                    STZ     I,,AUTO

     1014    13957
     1015    13958    2        LOOP1:
     1016    13959    3          DO WHILE (TOP5.PTR$(I) ~= ADDR(NIL));

  13959 25 007030   007056 710000 25    LOOP1        TRA     s:13979

     1017    13960
     1018    13961    3            COMCOM.ESC_LIST.ESC$(I) = TOP5.PTR$(I);

  13961 25 007031   200014 235100                    LDA     I,,AUTO
        25 007032   000001 735000                    ALS     1
        25 007033   200014 720100                    LXL0    I,,AUTO
        25 007034   000005 236010 22                 LDQ     TOP5+5,X0
        25 007035   000545 756005 xsym               STQ     COMCOM+357,AL
PL6.E3A0      #001=Z8GO$GLOBAL_OPTIMIZER File=Z8GO.:Z8A6TSI                      TUE 08/26/97 07:51 Page:217

     1019    13962    3            TOP5.PTR$(I) -> ETT.EVALP$ -> CCOSU.B.IGNORE = '1'B;

  13962 25 007036   000005 470410 22                 LDP0    TOP5+5,X0
        25 007037   000003 471500                    LDP1    3,,PR0
        25 007040   000010 236007                    LDQ     8,DL
        25 007041   100002 256100                    ORSQ    2,,PR1

     1020    13963
     1021    13964    3            IF TOP5.PTR$(I) -> ETT.ID = %ESC THEN

  13964 25 007042   000000 221100                    LDX1    0,,PR0
        25 007043   000017 101003                    CMPX1   15,DU
        25 007044   007050 601000 25                 TNZ     s:13967

     1022    13965    3              COMCOM.ESC_LIST.OPTION(I) = %PR_BLOCK;

  13965 25 007045   000001 222003                    LDX2    1,DU
        25 007046   000546 442005 xsym               SXL2    COMCOM+358,AL
        25 007047   007052 710000 25                 TRA     s:13969

     1023    13966    3            ELSE
     1024    13967    3              COMCOM.ESC_LIST.OPTION(I) = %PR_ARGP;

  13967 25 007050   000000 222003                    LDX2    0,DU
        25 007051   000546 442005 xsym               SXL2    COMCOM+358,AL

     1025    13968
     1026    13969    3            COMCOM.ESC_LIST.PR#(I) = %PR7 - I;

  13969 25 007052   777744 620010                    EAX0    -28,X0
        25 007053   777777 660003                    ERX0    -1,DU
        25 007054   000546 740005 xsym               STX0    COMCOM+358,AL

     1027    13970
     1028    13971                 /* Currently, only PR7 is available for global assignment */
     1029    13972                 /* so, exit the do  loop here. In the future we might  be */
PL6.E3A0      #001=Z8GO$GLOBAL_OPTIMIZER File=Z8GO.:Z8A6TSI                      TUE 08/26/97 07:51 Page:218
     1030    13973                 /* able to use the PR6 and PR5 too, then, these code will */
     1031    13974                 /* be added:                                              */
     1032    13975                 /*   IF I = 2 THEN EXIT LOOP1; ELSE I = I + 1;            */
     1033    13976
     1034    13977    3            EXIT LOOP1;

  13977 25 007055   007062 710000 25                 TRA     s:13980

     1035    13978
     1036    13979    3          END;

  13979 25 007056   200014 720100                    LXL0    I,,AUTO
        25 007057   000005 236010 22                 LDQ     TOP5+5,X0
        25 007060   000000 116000 26                 CMPQ    0
        25 007061   007031 601000 25                 TNZ     s:13961

     1037    13980    2   END PUT_ESC_LIST ;

  13980 25 007062   200046 221300                    LDX1  ! VAL_END_ILL$+2,,AUTO
        25 007063   000001 702211                    TSX2  ! 1,X1

     1038    13981
     1039    13982        %EJECT;
PL6.E3A0      #001=Z8GO$GLOBAL_OPTIMIZER File=Z8GO.:Z8A6TSI                      TUE 08/26/97 07:51 Page:219
     1040    13983        /*F*   NAME: SORT_GSAS
     1041    13984
     1042    13985               CALL: CALL SORT_GSAS ;
     1043    13986
     1044    13987        DESCRIPTION: If the number of GSA's exceeds the number of index
     1045    13988                     registers available for loop optimization, then this
     1046    13989                     routine picks the candidates with the highest counts.
     1047    13990
     1048    13991        */
     1049    13992
     1050    13993    1   SORT_GSAS:PROC ;

  13993 25 007064   200046 741300       SORT_GSAS    STX1  ! VAL_END_ILL$+2,,AUTO

     1051    13994
     1052    13995        /*N* Sort GSA items */
     1053    13996
     1054    13997    2          RETURN ;

  13997 25 007065   000001 702211                    TSX2  ! 1,X1

     1055    13998
     1056    13999    2   END SORT_GSAS ;
     1057    14000
     1058    14001        %EJECT;
PL6.E3A0      #001=Z8GO$GLOBAL_OPTIMIZER File=Z8GO.:Z8A6TSI                      TUE 08/26/97 07:51 Page:220
     1059    14002
     1060    14003        /*F*   NAME: UPDATE_FDPS_BDPS
     1061    14004
     1062    14005               CALL: Called when CASE (ILS.ID) = OPV or OPA.
     1063    14006
     1064    14007              INPUT: ST$ -- Ptr to a reference triad or ST item.
     1065    14008                     RDEF$ -- Ptr to a DPI or NIL.
     1066    14009
     1067    14010             OUTPUT: FDP's (SEQ#.FD) and BDP's (SEQ#.BD) updated.
     1068    14011
     1069    14012        DESCRIPTION: (1) Find ST item that is being redefined.
     1070    14013                     (2) Update FDP and BDP.
     1071    14014
     1072    14015        */
     1073    14016
     1074    14017    1   UPDATE_FDPS_BDPS: PROC (RDEF$) ;

  14017 25 007066   200046 741300       UPDATE_FDPS* STX1  ! VAL_END_ILL$+2,,AUTO

     1075    14018
     1076    14019    2   DCL   RDEF$       PTR ;
     1077    14020    2   DCL   QST$        PTR ;
     1078    14021
     1079    14022    3          IF RDEF$ ~= ADDR(NIL) THEN DO ;

  14022 25 007067   200047 470500                    LDP0    @RDEF$,,AUTO
        25 007070   000000 236100                    LDQ     0,,PR0
        25 007071   000000 116000 26                 CMPQ    0
        25 007072   007115 600000 25                 TZE     s:14031

     1080    14023    4            DO WHILE (ST$ -> VARIABLE.ID < %FIRST_ST) ;

  14023 25 007073   000000 471400 11                 LDP1    ST$
        25 007074   100000 220100                    LDX0    0,,PR1
        25 007075   000751 100003                    CMPX0   489,DU
        25 007076   007106 603000 25                 TRC     s:14026

PL6.E3A0      #001=Z8GO$GLOBAL_OPTIMIZER File=Z8GO.:Z8A6TSI                      TUE 08/26/97 07:51 Page:221
     1081    14024    4              ST$ = ST$ -> ETT.LOP ;

  14024 25 007077   000000 470400 11                 LDP0    ST$
        25 007100   000001 236100                    LDQ     1,,PR0
        25 007101   000000 756000 11                 STQ     ST$

     1082    14025    4            END ;

  14025 25 007102   000000 470400 11                 LDP0    ST$
        25 007103   000000 220100                    LDX0    0,,PR0
        25 007104   000751 100003                    CMPX0   489,DU
        25 007105   007077 602000 25                 TNC     s:14024

     1083    14026    3            ST$ -> VARIABLE.SEQ#.BD = ST$ -> VARIABLE.SEQ#.FD ;

  14026 25 007106   000000 470400 11                 LDP0    ST$
        25 007107   000010 220100                    LDX0    8,,PR0
        25 007110   000010 440100                    SXL0    8,,PR0

     1084    14027    3            ST$ -> VARIABLE.SEQ#.FD = RDEF$ -> DPI.RDEF ;

  14027 25 007111   200047 471500                    LDP1    @RDEF$,,AUTO
        25 007112   100000 473500                    LDP3    0,,PR1
        25 007113   300000 721100                    LXL1    0,,PR3
        25 007114   000010 741100                    STX1    8,,PR0

     1085    14028    3          END ;

     1086    14029
     1087    14030
     1088    14031    2   END UPDATE_FDPS_BDPS ;

  14031 25 007115   200046 221300                    LDX1  ! VAL_END_ILL$+2,,AUTO
        25 007116   000001 702211                    TSX2  ! 1,X1

     1089    14032
     1090    14033        %EJECT;
PL6.E3A0      #001=Z8GO$GLOBAL_OPTIMIZER File=Z8GO.:Z8A6TSI                      TUE 08/26/97 07:51 Page:222
     1091    14034        /*F*       NAME: OPTIMIZER_ALERT
     1092    14035
     1093    14036                   CALL: IF COMCOM.OB.O3DUMP THEN CALL OPTIMIZER_ALERT (ETT$);
     1094    14037
     1095    14038                  INPUT: ARG#1 -- PTR to a triad.
     1096    14039
     1097    14040            DESCRIPTION: Prints out a message when a triad is not optimizable
     1098    14041                         due to a CMP_SC value >= CURRENT_SEQ_NO.  This may
     1099    14042                         or may not be an optimizer error.  Examples of
     1100    14043                         legitimate optimizer alerts are expressions that
     1101    14044                         contain references to RENAMES, REDEFINES, or
     1102    14045                         group items.
     1103    14046
     1104    14047        */
     1105    14048
     1106    14049    1   OPTIMIZER_ALERT: PROC (TRIAD$) ;

  14049 25 007117   200054 741300       OPTIMIZER_A* STX1  ! BASE_ST$$+1,,AUTO

     1107    14050
     1108    14051    2   DCL   TRIAD$     PTR ;
     1109    14052    2   DCL   OBUF       CHAR (120) EXT ;
     1110    14053    2   DCL   X8CO$CONV_TO_OCTAL    ENTRY (2) ;
     1111    14054    2   DCL   Z9AL$DUMP_LINE        ENTRY ;
     1112    14055    2   DCL   CHAR12     CHAR (12) ;
     1113    14056
     1114    14057    2          OBUF = ' ' ;

  14057 25 007120   040000 100400                    MLR     fill='040'O
        25 007121   000023 000001 26                 ADSC9   19                       cn=0,n=1
        25 007122   000000 000170 23                 ADSC9   OBUF                     cn=0,n=120

     1115    14058    2          SUBSTR (OBUF, 0, 25) = 'Optimizer Alert at line# ' ;

  14058 25 007123   040000 100400                    MLR     fill='040'O
        25 007124   000000 000031 24                 ADSC9   0                        cn=0,n=25
        25 007125   000000 000031 23                 ADSC9   OBUF                     cn=0,n=25
PL6.E3A0      #001=Z8GO$GLOBAL_OPTIMIZER File=Z8GO.:Z8A6TSI                      TUE 08/26/97 07:51 Page:223

     1116    14059    2          CALL BINCHAR (SUBSTR (OBUF, 25, 5), COMCOM.CURRENT.LINE) ;

  14059 25 007126   000000 301400                    BTD
        25 007127   000133 000004 xsym               NDSC9   COMCOM+91                cn=0,s=lsgnf,sf=0,n=4
        25 007130   000006 230005 23                 NDSC9   OBUF+6                   cn=1,s=nosgn,sf=0,n=5

     1117    14060    2          SUBSTR (OBUF, 30, 9) = ', ETT$ = ' ;

  14060 25 007131   040000 100400                    MLR     fill='040'O
        25 007132   000007 000011 24                 ADSC9   7                        cn=0,n=9
        25 007133   000007 400011 23                 ADSC9   OBUF+7                   cn=2,n=9

     1118    14061    2          CALL X8CO$CONV_TO_OCTAL (TRIAD$, SUBSTR (OBUF, 39, 12)) ;

  14061 25 007134   000024 236000 26                 LDQ     20
        25 007135   200055 235100                    LDA     @TRIAD$,,AUTO
        25 007136   200062 757100                    STAQ    CHAR12+4,,AUTO
        25 007137   200062 630500                    EPPR0   CHAR12+4,,AUTO
        25 007140   000006 631400 26                 EPPR1   6
        25 007141   000000 701000 xent               TSX1    X8CO$CONV_TO_OCTAL
        25 007142   000000 011000                    NOP     0

     1119    14062    2          CALL Z9AL$DUMP_LINE ;

  14062 25 007143   000001 631400 26                 EPPR1   1
        25 007144   000000 701000 xent               TSX1    Z9AL$DUMP_LINE
        25 007145   000000 011000                    NOP     0

     1120    14063
     1121    14064    2   END OPTIMIZER_ALERT ;

  14064 25 007146   200054 221300                    LDX1  ! BASE_ST$$+1,,AUTO
        25 007147   000001 702211                    TSX2  ! 1,X1

     1122    14065
     1123    14066        %EJECT;
PL6.E3A0      #001=Z8GO$GLOBAL_OPTIMIZER File=Z8GO.:Z8A6TSI                      TUE 08/26/97 07:51 Page:224
     1124    14067        /*I*   NAME: INCR_ROP_OF_SSOP_OR_SIZ
     1125    14068
     1126    14069               CALL: CALL INCR_ROP_OF_SSOP_OR_SIZ (SSOP$ or SIZ$, id) ;
     1127    14070
     1128    14071              INPUT: OP$ -- pointer to SSOP or SIZ triad.
     1129    14072                     PARENT_ID -- ID of the guy requesting increment.
     1130    14073
     1131    14074             OUTPUT: OP$ -> ETT.ROP -> ETT.EVALP$ -> CCOSU.CNTE
     1132    14075                     is incremented by an amount appropriate to
     1133    14076                     the way Phase 4 references instruction tags.
     1134    14077
     1135    14078        DESCRIPTION:
     1136    14079                      Increment the count of the ROP if it's
     1137    14080                      a SIZ or a non-INITV-INCRV SSOP.
     1138    14081        */
     1139    14082
     1140    14083    1   INCR_ROP_OF_SSOP_OR_SIZ: PROC (OP$, PARENT_ID) ;

  14083 25 007150   200046 741300       INCR_ROP_OF* STX1  ! VAL_END_ILL$+2,,AUTO

     1141    14084
     1142    14085    2   DCL  OP$        PTR ;
     1143    14086    2   DCL  PARENT_ID  UBIN WORD ;
     1144    14087    2   DCL  SSOP$      PTR ;
     1145    14088    2   DCL  SIZ$       PTR ;
     1146    14089    2   DCL  BASE_ST$$  PTR ;
     1147    14090
     1148    14091    2        SSOP$ = ADDR(NIL) ;

  14091 25 007151   000000 236000 26                 LDQ     0
        25 007152   200051 756100                    STQ     SSOP$,,AUTO

     1149    14092    2        SIZ$  = ADDR(NIL) ;

  14092 25 007153   200052 756100                    STQ     SIZ$,,AUTO

     1150    14093
PL6.E3A0      #001=Z8GO$GLOBAL_OPTIMIZER File=Z8GO.:Z8A6TSI                      TUE 08/26/97 07:51 Page:225
     1151    14094    3        DO CASE (OP$ -> ETT.ID) ;

  14094 25 007154   200047 470500                    LDP0    @OP$,,AUTO
        25 007155   000000 471500                    LDP1    0,,PR0
        25 007156   100000 236100                    LDQ     0,,PR1
        25 007157   000022 772000                    QRL     18
        25 007160   000004 136007                    SBLQ    4,DL
        25 007161   000007 116007                    CMPQ    7,DL
        25 007162   007164 602006 25                 TNC     s:14094+8,QL
        25 007163   007252 710000 25                 TRA     s:14130
        25 007164   007173 710000 25                 TRA     s:14098
        25 007165   007207 710000 25                 TRA     s:14105
        25 007166   007252 710000 25                 TRA     s:14130
        25 007167   007252 710000 25                 TRA     s:14130
        25 007170   007252 710000 25                 TRA     s:14130
        25 007171   007252 710000 25                 TRA     s:14130
        25 007172   007173 710000 25                 TRA     s:14098

     1152    14095
     1153    14096    3          CASE (%SIZ, %REFMOD) ;  /*#28637*/

     1154    14097
     1155    14098    3            INCREMENT_ROP_COUNT = TRUE ;

  14098 25 007173   400000 236003                    LDQ     -131072,DU
        25 007174   200017 756100                    STQ     INCREMENT_ROP_COUNT,,AUTO

     1156    14099    3            SIZ$ = OP$ -> ETT.ROP ;

  14099 25 007175   100002 236100                    LDQ     2,,PR1
        25 007176   200052 756100                    STQ     SIZ$,,AUTO

     1157    14100    3            IF OP$ -> ETT.LOP -> ETT.ID = %SSOP   THEN

  14100 25 007177   000000 471500                    LDP1    0,,PR0
        25 007200   100001 473500                    LDP3    1,,PR1
        25 007201   300000 220100                    LDX0    0,,PR3
PL6.E3A0      #001=Z8GO$GLOBAL_OPTIMIZER File=Z8GO.:Z8A6TSI                      TUE 08/26/97 07:51 Page:226
        25 007202   000005 100003                    CMPX0   5,DU
        25 007203   007253 601000 25                 TNZ     s:14135

     1158    14101    3              SSOP$ = OP$ -> ETT.LOP -> ETT.ROP ;

  14101 25 007204   300002 236100                    LDQ     2,,PR3
        25 007205   200051 756100                    STQ     SSOP$,,AUTO
        25 007206   007253 710000 25                 TRA     s:14135

     1159    14102
     1160    14103    3          CASE (%SSOP) ;

     1161    14104
     1162    14105    3            GST$ = O3COM.GSA$ ;

  14105 25 007207   000060 236000 21                 LDQ     O3COM+48
        25 007210   000000 756000 15                 STQ     GST$

     1163    14106    3            INCREMENT_ROP_COUNT = TRUE;

  14106 25 007211   400000 236003                    LDQ     -131072,DU
        25 007212   200017 756100                    STQ     INCREMENT_ROP_COUNT,,AUTO

     1164    14107
     1165    14108    4            DO WHILE (GST$ ~= ADDR(NIL)) ;

  14108 25 007213   007230 710000 25                 TRA     s:14118

     1166    14109
     1167    14110    4              IF GST$ -> GST.ROP_OF_SSOP = OP$ -> ETT.ROP   THEN

  14110 25 007214   200047 470500                    LDP0    @OP$,,AUTO
        25 007215   000000 471500                    LDP1    0,,PR0
        25 007216   000000 473400 15                 LDP3    GST$
        25 007217   300001 236100                    LDQ     1,,PR3
        25 007220   100002 116100                    CMPQ    2,,PR1
        25 007221   007226 601000 25                 TNZ     s:14116
PL6.E3A0      #001=Z8GO$GLOBAL_OPTIMIZER File=Z8GO.:Z8A6TSI                      TUE 08/26/97 07:51 Page:227

     1168    14111    5                DO;

     1169    14112    5                  INCREMENT_ROP_COUNT = FALSE ;

  14112 25 007222   200017 450100                    STZ     INCREMENT_ROP_COUNT,,AUTO

     1170    14113    5                  GST$ = ADDR(NIL);

  14113 25 007223   000000 236000 26                 LDQ     0
        25 007224   000000 756000 15                 STQ     GST$

     1171    14114    5                END;

  14114 25 007225   007230 710000 25                 TRA     s:14118

     1172    14115    4              ELSE
     1173    14116    4                GST$ = GST$ -> GST.NEXT ;

  14116 25 007226   300002 236100                    LDQ     2,,PR3
        25 007227   000000 756000 15                 STQ     GST$

     1174    14117
     1175    14118    4            END;       /* Do While */

  14118 25 007230   000000 236000 15                 LDQ     GST$
        25 007231   000000 116000 26                 CMPQ    0
        25 007232   007214 601000 25                 TNZ     s:14110

     1176    14119
     1177    14120    3            IF INCREMENT_ROP_COUNT = TRUE   THEN

  14120 25 007233   200017 234100                    SZN     INCREMENT_ROP_COUNT,,AUTO
        25 007234   007253 605000 25                 TPL     s:14135

     1178    14121    4              DO;

PL6.E3A0      #001=Z8GO$GLOBAL_OPTIMIZER File=Z8GO.:Z8A6TSI                      TUE 08/26/97 07:51 Page:228
     1179    14122    4                SSOP$ = OP$ -> ETT.ROP ;

  14122 25 007235   000000 471500                    LDP1    0,,PR0
        25 007236   100002 236100                    LDQ     2,,PR1
        25 007237   200051 756100                    STQ     SSOP$,,AUTO

     1180    14123    4                IF OP$ -> ETT.LOP -> ETT.ID = %SIZ          /*#28637*/

  14123 25 007240   000000 471500                    LDP1    0,,PR0
        25 007241   100001 473500                    LDP3    1,,PR1
        25 007242   300000 220100                    LDX0    0,,PR3
        25 007243   000004 100003                    CMPX0   4,DU
        25 007244   007247 600000 25                 TZE     s:14125
        25 007245   000012 100003                    CMPX0   10,DU
        25 007246   007253 601000 25                 TNZ     s:14135

     1181    14124    4                     OR OP$ -> ETT.LOP -> ETT.ID = %REFMOD    THEN
     1182    14125    4                  SIZ$ = OP$ -> ETT.LOP -> ETT.ROP ;

  14125 25 007247   300002 236100                    LDQ     2,,PR3
        25 007250   200052 756100                    STQ     SIZ$,,AUTO

     1183    14126    4              END;

  14126 25 007251   007253 710000 25                 TRA     s:14135

     1184    14127
     1185    14128    3          CASE (ELSE) ;

     1186    14129
     1187    14130    3            INCREMENT_ROP_COUNT = FALSE ;

  14130 25 007252   200017 450100                    STZ     INCREMENT_ROP_COUNT,,AUTO

     1188    14131
     1189    14132    3        END /* Case of ID */ ;

PL6.E3A0      #001=Z8GO$GLOBAL_OPTIMIZER File=Z8GO.:Z8A6TSI                      TUE 08/26/97 07:51 Page:229
     1190    14133
     1191    14134
     1192    14135    3        IF INCREMENT_ROP_COUNT THEN DO ;

  14135 25 007253   200017 234100                    SZN     INCREMENT_ROP_COUNT,,AUTO
        25 007254   010031 605000 25                 TPL     s:14338

     1193    14136
     1194    14137               %FISH (TRIAD = OP$,
     1195    14138                      RTN   = BASE_ST$$);

  14140 25 007255   000000 236100                    LDQ     0,,PR0
        25 007256   200053 756100                    STQ     BASE_ST$$,,AUTO

  14141 25 007257   200053 471500                    LDP1    BASE_ST$$,,AUTO
        25 007260   100000 220100                    LDX0    0,,PR1
        25 007261   000751 100003                    CMPX0   489,DU
        25 007262   007272 603000 25                 TRC     s:14147

  14142 25 007263   200053 470500                    LDP0    BASE_ST$$,,AUTO
        25 007264   000001 236100                    LDQ     1,,PR0
        25 007265   200053 756100                    STQ     BASE_ST$$,,AUTO

  14143 25 007266   200053 470500                    LDP0    BASE_ST$$,,AUTO
        25 007267   000000 220100                    LDX0    0,,PR0
        25 007270   000751 100003                    CMPX0   489,DU
        25 007271   007263 602000 25                 TNC     s:14142

     1196    14146
     1197    14147    3          IF BASE_ST$$ -> ST.ID = %PARA THEN

  14147 25 007272   200053 470500                    LDP0    BASE_ST$$,,AUTO
        25 007273   000000 220100                    LDX0    0,,PR0
        25 007274   000771 100003                    CMPX0   505,DU
        25 007275   007501 601000 25                 TNZ     s:14240

     1198    14148    4            DO;
PL6.E3A0      #001=Z8GO$GLOBAL_OPTIMIZER File=Z8GO.:Z8A6TSI                      TUE 08/26/97 07:51 Page:230

     1199    14149                   %INCR_COUNT (ITEM$ = OP$, OP = ROP, BIT = ARITH);

  14165 25 007276   200047 471500                    LDP1    @OP$,,AUTO
        25 007277   100000 473500                    LDP3    0,,PR1
        25 007300   300000 221100                    LDX1    0,,PR3
        25 007301   000121 101003                    CMPX1   81,DU
        25 007302   007316 600000 25                 TZE     s:14174
        25 007303   000255 101003                    CMPX1   173,DU
        25 007304   007316 600000 25                 TZE     s:14174
        25 007305   000314 235000 xsym               LDA     COMCOM+204
        25 007306   000002 115007                    CMPA    2,DL
        25 007307   007316 605000 25                 TPL     s:14174

  14168 25 007310   300002 634500                    EPPR4   2,,PR3
        25 007311   200062 454500                    STP4    CHAR12+4,,AUTO
        25 007312   200062 630500                    EPPR0   CHAR12+4,,AUTO
        25 007313   000002 631400 26                 EPPR1   2
        25 007314   000000 701000 xent               TSX1    Z8GO$CHECK_OP
        25 007315   000000 011000                    NOP     0

  14174 25 007316   200047 470500                    LDP0    @OP$,,AUTO
        25 007317   000000 471500                    LDP1    0,,PR0
        25 007320   100000 220100                    LDX0    0,,PR1
        25 007321   000245 100003                    CMPX0   165,DU
        25 007322   007335 601000 25                 TNZ     s:14179
        25 007323   100002 473500                    LDP3    2,,PR1
        25 007324   300000 221100                    LDX1    0,,PR3
        25 007325   000132 101003                    CMPX1   90,DU
        25 007326   007335 601000 25                 TNZ     s:14179

  14176 25 007327   000266 222003                    LDX2    182,DU
        25 007330   100000 742100                    STX2    0,,PR1

  14177 25 007331   000000 471500                    LDP1    0,,PR0
        25 007332   100002 473500                    LDP3    2,,PR1
        25 007333   300001 236100                    LDQ     1,,PR3
PL6.E3A0      #001=Z8GO$GLOBAL_OPTIMIZER File=Z8GO.:Z8A6TSI                      TUE 08/26/97 07:51 Page:231
        25 007334   100002 756100                    STQ     2,,PR1

  14179 25 007335   000000 471500                    LDP1    0,,PR0
        25 007336   100000 220100                    LDX0    0,,PR1
        25 007337   000243 100003                    CMPX0   163,DU
        25 007340   007401 601000 25                 TNZ     s:14197
        25 007341   100002 473500                    LDP3    2,,PR1
        25 007342   300000 221100                    LDX1    0,,PR3
        25 007343   000126 101003                    CMPX1   86,DU
        25 007344   007347 600000 25                 TZE     s:14182
        25 007345   000036 101003                    CMPX1   30,DU
        25 007346   007401 601000 25                 TNZ     s:14197

  14182 25 007347   100001 236100                    LDQ     1,,PR1
        25 007350   200025 756100                    STQ     LOP$$$,,AUTO

  14185 25 007351   200034 756100                    STQ     ST$$$,,AUTO

  14186 25 007352   200034 474500                    LDP4    ST$$$,,AUTO
        25 007353   400000 222100                    LDX2    0,,PR4
        25 007354   000751 102003                    CMPX2   489,DU
        25 007355   007365 603000 25                 TRC     s:14191

  14187 25 007356   200034 470500                    LDP0    ST$$$,,AUTO
        25 007357   000001 236100                    LDQ     1,,PR0
        25 007360   200034 756100                    STQ     ST$$$,,AUTO

  14188 25 007361   200034 470500                    LDP0    ST$$$,,AUTO
        25 007362   000000 220100                    LDX0    0,,PR0
        25 007363   000751 100003                    CMPX0   489,DU
        25 007364   007356 602000 25                 TNC     s:14187

  14191 25 007365   200034 470500                    LDP0    ST$$$,,AUTO
        25 007366   000001 236100                    LDQ     1,,PR0
        25 007367   007700 316007                    CANQ    4032,DL
        25 007370   007401 601000 25                 TNZ     s:14197

PL6.E3A0      #001=Z8GO$GLOBAL_OPTIMIZER File=Z8GO.:Z8A6TSI                      TUE 08/26/97 07:51 Page:232
  14192 25 007371   200047 471500                    LDP1    @OP$,,AUTO
        25 007372   100000 473500                    LDP3    0,,PR1
        25 007373   000252 220003                    LDX0    170,DU
        25 007374   300000 740100                    STX0    0,,PR3

  14193 25 007375   100000 473500                    LDP3    0,,PR1
        25 007376   300002 474500                    LDP4    2,,PR3
        25 007377   400001 236100                    LDQ     1,,PR4
        25 007400   300002 756100                    STQ     2,,PR3

  14197 25 007401   200047 470500                    LDP0    @OP$,,AUTO
        25 007402   000000 471500                    LDP1    0,,PR0
        25 007403   100002 473500                    LDP3    2,,PR1
        25 007404   300003 236100                    LDQ     3,,PR3
        25 007405   000000 116000 26                 CMPQ    0
        25 007406   007422 600000 25                 TZE     s:14204
        25 007407   300003 474500                    LDP4    3,,PR3
        25 007410   400000 220100                    LDX0    0,,PR4
        25 007411   000341 100003                    CMPX0   225,DU
        25 007412   007422 601000 25                 TNZ     s:14204
        25 007413   400004 236100                    LDQ     4,,PR4
        25 007414   100002 116100                    CMPQ    2,,PR1
        25 007415   007422 601000 25                 TNZ     s:14204
        25 007416   300004 236100                    LDQ     4,,PR3
        25 007417   000022 772000                    QRL     18
        25 007420   000000 116000 21                 CMPQ    O3COM
        25 007421   007451 604000 25                 TMI     s:14212

  14204 25 007422   100002 634500                    EPPR4   2,,PR1
        25 007423   200062 454500                    STP4    CHAR12+4,,AUTO
        25 007424   200062 630500                    EPPR0   CHAR12+4,,AUTO
        25 007425   000002 631400 26                 EPPR1   2
        25 007426   000000 701000 xent               TSX1    Z8GI$INSERT_EVALP
        25 007427   000000 011000                    NOP     0

  14205 25 007430   200047 470500                    LDP0    @OP$,,AUTO
        25 007431   000000 471500                    LDP1    0,,PR0
PL6.E3A0      #001=Z8GO$GLOBAL_OPTIMIZER File=Z8GO.:Z8A6TSI                      TUE 08/26/97 07:51 Page:233
        25 007432   100002 473500                    LDP3    2,,PR1
        25 007433   300003 236100                    LDQ     3,,PR3
        25 007434   000000 116000 26                 CMPQ    0
        25 007435   007442 600000 25                 TZE     s:14207
        25 007436   300003 474500                    LDP4    3,,PR3
        25 007437   400000 220100                    LDX0    0,,PR4
        25 007440   000341 100003                    CMPX0   225,DU
        25 007441   007472 600000 25                 TZE     s:14218

  14207 25 007442   000060 234000 xsym               SZN     COMCOM+48
        25 007443   007472 605000 25                 TPL     s:14218

  14208 25 007444   100002 634500                    EPPR4   2,,PR1
        25 007445   200055 454500                    STP4    @TRIAD$,,AUTO
        25 007446   007117 701000 25                 TSX1    OPTIMIZER_ALERT
        25 007447   000000 011000                    NOP     0

  14210 25 007450   007472 710000 25                 TRA     s:14218

  14212 25 007451   300003 236100                    LDQ     3,,PR3
        25 007452   000000 756000 5                  STQ     ILL$

  14213 25 007453   000000 471400 5                  LDP1    ILL$
        25 007454   100000 720100                    LXL0    0,,PR1
        25 007455   000001 621010                    EAX1    1,X0
        25 007456   100000 441100                    SXL1    0,,PR1

  14214 25 007457   000000 720000 21                 LXL0    O3COM
        25 007460   000000 471400 5                  LDP1    ILL$
        25 007461   100005 740100                    STX0    5,,PR1

  14215 25 007462   100001 236100                    LDQ     1,,PR1
        25 007463   000022 732000                    QRS     18
        25 007464   007467 604000 25                 TMI     s:14215+5
        25 007465   000011 116000 21                 CMPQ    O3COM+9
        25 007466   007470 603000 25                 TRC     s:14215+6
        25 007467   000011 236000 21                 LDQ     O3COM+9
PL6.E3A0      #001=Z8GO$GLOBAL_OPTIMIZER File=Z8GO.:Z8A6TSI                      TUE 08/26/97 07:51 Page:234
        25 007470   000000 621006                    EAX1    0,QL
        25 007471   100001 741100                    STX1    1,,PR1

  14218 25 007472   200047 470500                    LDP0    @OP$,,AUTO
        25 007473   000000 471500                    LDP1    0,,PR0
        25 007474   100002 473500                    LDP3    2,,PR1
        25 007475   300003 474500                    LDP4    3,,PR3
        25 007476   000002 236007                    LDQ     2,DL
        25 007477   400002 256100                    ORSQ    2,,PR4

     1200    14221    4            END;

  14221 25 007500   007703 710000 25                 TRA     s:14298

     1201    14222    3          ELSE
     1202    14223    4            DO;

     1203    14224                   %INCR_COUNT (ITEM$ = OP$, OP = ROP, BIT = SUBS) ;

  14240 25 007501   200047 471500                    LDP1    @OP$,,AUTO
        25 007502   100000 473500                    LDP3    0,,PR1
        25 007503   300000 221100                    LDX1    0,,PR3
        25 007504   000121 101003                    CMPX1   81,DU
        25 007505   007521 600000 25                 TZE     s:14249
        25 007506   000255 101003                    CMPX1   173,DU
        25 007507   007521 600000 25                 TZE     s:14249
        25 007510   000314 235000 xsym               LDA     COMCOM+204
        25 007511   000002 115007                    CMPA    2,DL
        25 007512   007521 605000 25                 TPL     s:14249

  14243 25 007513   300002 634500                    EPPR4   2,,PR3
        25 007514   200062 454500                    STP4    CHAR12+4,,AUTO
        25 007515   200062 630500                    EPPR0   CHAR12+4,,AUTO
        25 007516   000002 631400 26                 EPPR1   2
        25 007517   000000 701000 xent               TSX1    Z8GO$CHECK_OP
        25 007520   000000 011000                    NOP     0

PL6.E3A0      #001=Z8GO$GLOBAL_OPTIMIZER File=Z8GO.:Z8A6TSI                      TUE 08/26/97 07:51 Page:235
  14249 25 007521   200047 470500                    LDP0    @OP$,,AUTO
        25 007522   000000 471500                    LDP1    0,,PR0
        25 007523   100000 220100                    LDX0    0,,PR1
        25 007524   000245 100003                    CMPX0   165,DU
        25 007525   007540 601000 25                 TNZ     s:14254
        25 007526   100002 473500                    LDP3    2,,PR1
        25 007527   300000 221100                    LDX1    0,,PR3
        25 007530   000132 101003                    CMPX1   90,DU
        25 007531   007540 601000 25                 TNZ     s:14254

  14251 25 007532   000266 222003                    LDX2    182,DU
        25 007533   100000 742100                    STX2    0,,PR1

  14252 25 007534   000000 471500                    LDP1    0,,PR0
        25 007535   100002 473500                    LDP3    2,,PR1
        25 007536   300001 236100                    LDQ     1,,PR3
        25 007537   100002 756100                    STQ     2,,PR1

  14254 25 007540   000000 471500                    LDP1    0,,PR0
        25 007541   100000 220100                    LDX0    0,,PR1
        25 007542   000243 100003                    CMPX0   163,DU
        25 007543   007604 601000 25                 TNZ     s:14272
        25 007544   100002 473500                    LDP3    2,,PR1
        25 007545   300000 221100                    LDX1    0,,PR3
        25 007546   000126 101003                    CMPX1   86,DU
        25 007547   007552 600000 25                 TZE     s:14257
        25 007550   000036 101003                    CMPX1   30,DU
        25 007551   007604 601000 25                 TNZ     s:14272

  14257 25 007552   100001 236100                    LDQ     1,,PR1
        25 007553   200025 756100                    STQ     LOP$$$,,AUTO

  14260 25 007554   200034 756100                    STQ     ST$$$,,AUTO

  14261 25 007555   200034 474500                    LDP4    ST$$$,,AUTO
        25 007556   400000 222100                    LDX2    0,,PR4
        25 007557   000751 102003                    CMPX2   489,DU
PL6.E3A0      #001=Z8GO$GLOBAL_OPTIMIZER File=Z8GO.:Z8A6TSI                      TUE 08/26/97 07:51 Page:236
        25 007560   007570 603000 25                 TRC     s:14266

  14262 25 007561   200034 470500                    LDP0    ST$$$,,AUTO
        25 007562   000001 236100                    LDQ     1,,PR0
        25 007563   200034 756100                    STQ     ST$$$,,AUTO

  14263 25 007564   200034 470500                    LDP0    ST$$$,,AUTO
        25 007565   000000 220100                    LDX0    0,,PR0
        25 007566   000751 100003                    CMPX0   489,DU
        25 007567   007561 602000 25                 TNC     s:14262

  14266 25 007570   200034 470500                    LDP0    ST$$$,,AUTO
        25 007571   000001 236100                    LDQ     1,,PR0
        25 007572   007700 316007                    CANQ    4032,DL
        25 007573   007604 601000 25                 TNZ     s:14272

  14267 25 007574   200047 471500                    LDP1    @OP$,,AUTO
        25 007575   100000 473500                    LDP3    0,,PR1
        25 007576   000252 220003                    LDX0    170,DU
        25 007577   300000 740100                    STX0    0,,PR3

  14268 25 007600   100000 473500                    LDP3    0,,PR1
        25 007601   300002 474500                    LDP4    2,,PR3
        25 007602   400001 236100                    LDQ     1,,PR4
        25 007603   300002 756100                    STQ     2,,PR3

  14272 25 007604   200047 470500                    LDP0    @OP$,,AUTO
        25 007605   000000 471500                    LDP1    0,,PR0
        25 007606   100002 473500                    LDP3    2,,PR1
        25 007607   300003 236100                    LDQ     3,,PR3
        25 007610   000000 116000 26                 CMPQ    0
        25 007611   007625 600000 25                 TZE     s:14279
        25 007612   300003 474500                    LDP4    3,,PR3
        25 007613   400000 220100                    LDX0    0,,PR4
        25 007614   000341 100003                    CMPX0   225,DU
        25 007615   007625 601000 25                 TNZ     s:14279
        25 007616   400004 236100                    LDQ     4,,PR4
PL6.E3A0      #001=Z8GO$GLOBAL_OPTIMIZER File=Z8GO.:Z8A6TSI                      TUE 08/26/97 07:51 Page:237
        25 007617   100002 116100                    CMPQ    2,,PR1
        25 007620   007625 601000 25                 TNZ     s:14279
        25 007621   300004 236100                    LDQ     4,,PR3
        25 007622   000022 772000                    QRL     18
        25 007623   000000 116000 21                 CMPQ    O3COM
        25 007624   007654 604000 25                 TMI     s:14287

  14279 25 007625   100002 634500                    EPPR4   2,,PR1
        25 007626   200062 454500                    STP4    CHAR12+4,,AUTO
        25 007627   200062 630500                    EPPR0   CHAR12+4,,AUTO
        25 007630   000002 631400 26                 EPPR1   2
        25 007631   000000 701000 xent               TSX1    Z8GI$INSERT_EVALP
        25 007632   000000 011000                    NOP     0

  14280 25 007633   200047 470500                    LDP0    @OP$,,AUTO
        25 007634   000000 471500                    LDP1    0,,PR0
        25 007635   100002 473500                    LDP3    2,,PR1
        25 007636   300003 236100                    LDQ     3,,PR3
        25 007637   000000 116000 26                 CMPQ    0
        25 007640   007645 600000 25                 TZE     s:14282
        25 007641   300003 474500                    LDP4    3,,PR3
        25 007642   400000 220100                    LDX0    0,,PR4
        25 007643   000341 100003                    CMPX0   225,DU
        25 007644   007675 600000 25                 TZE     s:14293

  14282 25 007645   000060 234000 xsym               SZN     COMCOM+48
        25 007646   007675 605000 25                 TPL     s:14293

  14283 25 007647   100002 634500                    EPPR4   2,,PR1
        25 007650   200055 454500                    STP4    @TRIAD$,,AUTO
        25 007651   007117 701000 25                 TSX1    OPTIMIZER_ALERT
        25 007652   000000 011000                    NOP     0

  14285 25 007653   007675 710000 25                 TRA     s:14293

  14287 25 007654   300003 236100                    LDQ     3,,PR3
        25 007655   000000 756000 5                  STQ     ILL$
PL6.E3A0      #001=Z8GO$GLOBAL_OPTIMIZER File=Z8GO.:Z8A6TSI                      TUE 08/26/97 07:51 Page:238

  14288 25 007656   000000 471400 5                  LDP1    ILL$
        25 007657   100000 720100                    LXL0    0,,PR1
        25 007660   000001 621010                    EAX1    1,X0
        25 007661   100000 441100                    SXL1    0,,PR1

  14289 25 007662   000000 720000 21                 LXL0    O3COM
        25 007663   000000 471400 5                  LDP1    ILL$
        25 007664   100005 740100                    STX0    5,,PR1

  14290 25 007665   100001 236100                    LDQ     1,,PR1
        25 007666   000022 732000                    QRS     18
        25 007667   007672 604000 25                 TMI     s:14290+5
        25 007670   000011 116000 21                 CMPQ    O3COM+9
        25 007671   007673 603000 25                 TRC     s:14290+6
        25 007672   000011 236000 21                 LDQ     O3COM+9
        25 007673   000000 621006                    EAX1    0,QL
        25 007674   100001 741100                    STX1    1,,PR1

  14293 25 007675   200047 470500                    LDP0    @OP$,,AUTO
        25 007676   000000 471500                    LDP1    0,,PR0
        25 007677   100002 473500                    LDP3    2,,PR1
        25 007700   300003 474500                    LDP4    3,,PR3
        25 007701   000001 236007                    LDQ     1,DL
        25 007702   400002 256100                    ORSQ    2,,PR4

     1204    14296    4            END;

     1205    14297
     1206    14298    4          IF PARENT_ID = %EVAL THEN DO ;

  14298 25 007703   200050 471500                    LDP1    @PARENT_ID,,AUTO
        25 007704   100000 235100                    LDA     0,,PR1
        25 007705   000171 115007                    CMPA    121,DL
        25 007706   010031 601000 25                 TNZ     s:14338

     1207    14299    4            OP$ -> ETT.ROP -> ETT.EVALP$ -> CCOSU.CNTE =
PL6.E3A0      #001=Z8GO$GLOBAL_OPTIMIZER File=Z8GO.:Z8A6TSI                      TUE 08/26/97 07:51 Page:239

  14299 25 007707   000000 473500                    LDP3    0,,PR0
        25 007710   300002 474500                    LDP4    2,,PR3
        25 007711   400003 475500                    LDP5    3,,PR4
        25 007712   500000 720100                    LXL0    0,,PR5
        25 007713   777777 621010                    EAX1    -1,X0
        25 007714   500000 441100                    SXL1    0,,PR5

     1208    14300    4             OP$ -> ETT.ROP -> ETT.EVALP$ -> CCOSU.CNTE - 1 ;
     1209    14301    4            IF SSOP$ ~= ADDR(NIL)    THEN

  14301 25 007715   200051 236100                    LDQ     SSOP$,,AUTO
        25 007716   000000 116000 26                 CMPQ    0
        25 007717   007763 600000 25                 TZE     s:14318

     1210    14302    5              DO;

     1211    14303                        /* Create an EVALP for the expr if one */
     1212    14304                        /* doesn't already exist.              */
     1213    14305
     1214    14306    5                IF SSOP$ -> ETT.EVALP$ = ADDR(NIL)

  14306 25 007720   200051 473500                    LDP3    SSOP$,,AUTO
        25 007721   300003 236100                    LDQ     3,,PR3
        25 007722   000000 116000 26                 CMPQ    0
        25 007723   007733 600000 25                 TZE     s:14310
        25 007724   300003 474500                    LDP4    3,,PR3
        25 007725   400000 220100                    LDX0    0,,PR4
        25 007726   000341 100003                    CMPX0   225,DU
        25 007727   007733 601000 25                 TNZ     s:14310
        25 007730   400004 236100                    LDQ     4,,PR4
        25 007731   200051 116100                    CMPQ    SSOP$,,AUTO
        25 007732   007745 600000 25                 TZE     s:14313

     1215    14307    5                    OR SSOP$ -> ETT.EVALP$ -> ILS.ID ~= %EVALP
     1216    14308    5                    OR SSOP$ -> ETT.EVALP$ -> CCOSU.EVEX ~= SSOP$  THEN
     1217    14309    6                  DO;
PL6.E3A0      #001=Z8GO$GLOBAL_OPTIMIZER File=Z8GO.:Z8A6TSI                      TUE 08/26/97 07:51 Page:240

     1218    14310    6                    CALL Z8GI$INSERT_EVALP (SSOP$) ;

  14310 25 007733   200051 634500                    EPPR4   SSOP$,,AUTO
        25 007734   200062 454500                    STP4    CHAR12+4,,AUTO
        25 007735   200062 630500                    EPPR0   CHAR12+4,,AUTO
        25 007736   000002 631400 26                 EPPR1   2
        25 007737   000000 701000 xent               TSX1    Z8GI$INSERT_EVALP
        25 007740   000000 011000                    NOP     0

     1219    14311    6                    SSOP$ -> ETT.EVALP$ -> CCOSU.CNTE = 0 ;

  14311 25 007741   200051 470500                    LDP0    SSOP$,,AUTO
        25 007742   000003 471500                    LDP1    3,,PR0
        25 007743   000000 220003                    LDX0    0,DU
        25 007744   100000 440100                    SXL0    0,,PR1

     1220    14312    6                  END ;

     1221    14313    5                SSOP$ -> ETT.EVALP$ -> CCOSU.CNTE = SSOP$ -> ETT.EVALP$

  14313 25 007745   200051 470500                    LDP0    SSOP$,,AUTO
        25 007746   000003 471500                    LDP1    3,,PR0
        25 007747   000002 473400 21                 LDP3    O3COM+2
        25 007750   300000 236100                    LDQ     0,,PR3
        25 007751   000022 736000                    QLS     18
        25 007752   000022 732000                    QRS     18
        25 007753   200062 756100                    STQ     CHAR12+4,,AUTO
        25 007754   100000 236100                    LDQ     0,,PR1
        25 007755   000022 736000                    QLS     18
        25 007756   000022 732000                    QRS     18
        25 007757   200062 036100                    ADLQ    CHAR12+4,,AUTO
        25 007760   777777 620006                    EAX0    -1,QL
        25 007761   100000 440100                    SXL0    0,,PR1

     1222    14314    5                        -> CCOSU.CNTE + O3COM.EVALP$ -> CCOSU.CNTE -1;
     1223    14315
PL6.E3A0      #001=Z8GO$GLOBAL_OPTIMIZER File=Z8GO.:Z8A6TSI                      TUE 08/26/97 07:51 Page:241
     1224    14316    5              INCREMENT_ROP_COUNT = FALSE ;

  14316 25 007762   200017 450100                    STZ     INCREMENT_ROP_COUNT,,AUTO

     1225    14317    5            END ;

     1226    14318    5            IF SIZ$ ~= ADDR(NIL) THEN DO ;

  14318 25 007763   200052 236100                    LDQ     SIZ$,,AUTO
        25 007764   000000 116000 26                 CMPQ    0
        25 007765   010031 600000 25                 TZE     s:14338

     1227    14319
     1228    14320                   /* Create an EVALP for the expr if one */
     1229    14321                   /* doesn't already exist.              */
     1230    14322
     1231    14323    5              IF SIZ$ -> ETT.EVALP$ = ADDR(NIL)

  14323 25 007766   200052 470500                    LDP0    SIZ$,,AUTO
        25 007767   000003 236100                    LDQ     3,,PR0
        25 007770   000000 116000 26                 CMPQ    0
        25 007771   010001 600000 25                 TZE     s:14327
        25 007772   000003 471500                    LDP1    3,,PR0
        25 007773   100000 220100                    LDX0    0,,PR1
        25 007774   000341 100003                    CMPX0   225,DU
        25 007775   010001 601000 25                 TNZ     s:14327
        25 007776   100004 236100                    LDQ     4,,PR1
        25 007777   200052 116100                    CMPQ    SIZ$,,AUTO
        25 010000   010013 600000 25                 TZE     s:14330

     1232    14324    5              OR SIZ$ -> ETT.EVALP$ -> ILS.ID ~= %EVALP
     1233    14325    5              OR SIZ$ -> ETT.EVALP$ -> CCOSU.EVEX ~= SIZ$
     1234    14326    6              THEN DO ;

     1235    14327    6                CALL Z8GI$INSERT_EVALP (SIZ$) ;

  14327 25 010001   200052 631500                    EPPR1   SIZ$,,AUTO
PL6.E3A0      #001=Z8GO$GLOBAL_OPTIMIZER File=Z8GO.:Z8A6TSI                      TUE 08/26/97 07:51 Page:242
        25 010002   200062 451500                    STP1    CHAR12+4,,AUTO
        25 010003   200062 630500                    EPPR0   CHAR12+4,,AUTO
        25 010004   000002 631400 26                 EPPR1   2
        25 010005   000000 701000 xent               TSX1    Z8GI$INSERT_EVALP
        25 010006   000000 011000                    NOP     0

     1236    14328    6                SIZ$ -> ETT.EVALP$ -> CCOSU.CNTE = 0 ;

  14328 25 010007   200052 470500                    LDP0    SIZ$,,AUTO
        25 010010   000003 471500                    LDP1    3,,PR0
        25 010011   000000 220003                    LDX0    0,DU
        25 010012   100000 440100                    SXL0    0,,PR1

     1237    14329    6              END ;

     1238    14330    5              SIZ$ ->ETT.EVALP$ -> CCOSU.CNTE =

  14330 25 010013   200052 470500                    LDP0    SIZ$,,AUTO
        25 010014   000003 471500                    LDP1    3,,PR0
        25 010015   000002 473400 21                 LDP3    O3COM+2
        25 010016   300000 236100                    LDQ     0,,PR3
        25 010017   000022 736000                    QLS     18
        25 010020   000022 732000                    QRS     18
        25 010021   200062 756100                    STQ     CHAR12+4,,AUTO
        25 010022   100000 236100                    LDQ     0,,PR1
        25 010023   000022 736000                    QLS     18
        25 010024   000022 732000                    QRS     18
        25 010025   200062 036100                    ADLQ    CHAR12+4,,AUTO
        25 010026   777777 620006                    EAX0    -1,QL
        25 010027   100000 440100                    SXL0    0,,PR1

     1239    14331    5               SIZ$ ->ETT.EVALP$ -> CCOSU.CNTE +
     1240    14332    5               O3COM.EVALP$ -> CCOSU.CNTE - 1 ;
     1241    14333    5              INCREMENT_ROP_COUNT = FALSE ;

  14333 25 010030   200017 450100                    STZ     INCREMENT_ROP_COUNT,,AUTO

PL6.E3A0      #001=Z8GO$GLOBAL_OPTIMIZER File=Z8GO.:Z8A6TSI                      TUE 08/26/97 07:51 Page:243
     1242    14334    5            END ; /* SIZ$ <> Nil */

     1243    14335    4          END ; /* Parent ID = %EVAL */

     1244    14336    3        END ; /* Increment ROP Count */

     1245    14337
     1246    14338    3        IF O3COM.EVALP$ -> CCOSU.CNTE > 1 THEN DO ;

  14338 25 010031   000002 470400 21                 LDP0    O3COM+2
        25 010032   000000 720100                    LXL0    0,,PR0
        25 010033   000001 100003                    CMPX0   1,DU
        25 010034   010136 604400 25                 TMOZ    s:14375

     1247    14339
     1248    14340    4          IF INCREMENT_ROP_COUNT THEN DO ;

  14340 25 010035   200017 234100                    SZN     INCREMENT_ROP_COUNT,,AUTO
        25 010036   010055 605000 25                 TPL     s:14349

     1249    14341
     1250    14342    4            OP$ -> ETT.ROP -> ETT.EVALP$ -> CCOSU.CNTE =

  14342 25 010037   200047 471500                    LDP1    @OP$,,AUTO
        25 010040   100000 473500                    LDP3    0,,PR1
        25 010041   300002 474500                    LDP4    2,,PR3
        25 010042   400003 475500                    LDP5    3,,PR4
        25 010043   000000 236100                    LDQ     0,,PR0
        25 010044   000022 736000                    QLS     18
        25 010045   000022 732000                    QRS     18
        25 010046   200062 756100                    STQ     CHAR12+4,,AUTO
        25 010047   500000 236100                    LDQ     0,,PR5
        25 010050   000022 736000                    QLS     18
        25 010051   000022 732000                    QRS     18
        25 010052   200062 036100                    ADLQ    CHAR12+4,,AUTO
        25 010053   777777 620006                    EAX0    -1,QL
        25 010054   500000 440100                    SXL0    0,,PR5
PL6.E3A0      #001=Z8GO$GLOBAL_OPTIMIZER File=Z8GO.:Z8A6TSI                      TUE 08/26/97 07:51 Page:244

     1251    14343    4              OP$ -> ETT.ROP -> ETT.EVALP$ -> CCOSU.CNTE +
     1252    14344    4              O3COM.EVALP$ -> CCOSU.CNTE - 1 ;
     1253    14345
     1254    14346    4          END /* IF ID = SSOP or SIZ */ ;

     1255    14347
     1256    14348               /* Increment the count of the ESC triad */
     1257    14349    3          ETT$ = OP$ ;

  14349 25 010055   200047 470500                    LDP0    @OP$,,AUTO
        25 010056   000000 236100                    LDQ     0,,PR0
        25 010057   000000 756000 7                  STQ     ETT$

     1258    14350    4          DO WHILE (ETT$ -> ETT.ID ~= %BASE

  14350 25 010060   010064 710000 25                 TRA     s:14353

     1259    14351    4                AND ETT$ -> ETT.ID ~= %TRIAD) ;
     1260    14352    4            ETT$ = ETT$ -> ETT.LOP ;

  14352 25 010061   000000 470400 7                  LDP0    ETT$
        25 010062   000001 236100                    LDQ     1,,PR0
        25 010063   000000 756000 7                  STQ     ETT$

     1261    14353    4          END ;

  14353 25 010064   000000 470400 7                  LDP0    ETT$
        25 010065   000000 220100                    LDX0    0,,PR0
        25 010066   000001 100003                    CMPX0   1,DU
        25 010067   010072 600000 25                 TZE     s:14355
        25 010070   000015 100003                    CMPX0   13,DU
        25 010071   010061 601000 25                 TNZ     s:14352

     1262    14354
     1263    14355    4          IF ETT$ -> ETT.ID = %BASE THEN DO ;

PL6.E3A0      #001=Z8GO$GLOBAL_OPTIMIZER File=Z8GO.:Z8A6TSI                      TUE 08/26/97 07:51 Page:245
  14355 25 010072   000001 100003                    CMPX0   1,DU
        25 010073   010136 601000 25                 TNZ     s:14375

     1264    14356
     1265    14357                 /* Create an EVALP for the ESC if one */
     1266    14358                 /* doesn't already exist.             */
     1267    14359
     1268    14360    4            IF ETT$ -> ETT.ROP -> ETT.EVALP$ = ADDR(NIL)

  14360 25 010074   000002 471500                    LDP1    2,,PR0
        25 010075   100003 236100                    LDQ     3,,PR1
        25 010076   000000 116000 26                 CMPQ    0
        25 010077   010104 600000 25                 TZE     s:14363
        25 010100   100003 473500                    LDP3    3,,PR1
        25 010101   300000 221100                    LDX1    0,,PR3
        25 010102   000341 101003                    CMPX1   225,DU
        25 010103   010120 600000 25                 TZE     s:14367

     1269    14361    4            OR ETT$ -> ETT.ROP -> ETT.EVALP$ -> ILS.ID ~= %EVALP
     1270    14362    5            THEN DO ;

     1271    14363    5              CALL Z8GI$INSERT_EVALP (ETT$ -> ETT.ROP) ;

  14363 25 010104   000000 236000 7                  LDQ     ETT$
        25 010105   000002 036003                    ADLQ    2,DU
        25 010106   200062 756100                    STQ     CHAR12+4,,AUTO
        25 010107   200062 630500                    EPPR0   CHAR12+4,,AUTO
        25 010110   000002 631400 26                 EPPR1   2
        25 010111   000000 701000 xent               TSX1    Z8GI$INSERT_EVALP
        25 010112   000000 011000                    NOP     0

     1272    14364    5              ETT$ -> ETT.ROP -> ETT.EVALP$ -> CCOSU.CNTE = 0 ;

  14364 25 010113   000000 470400 7                  LDP0    ETT$
        25 010114   000002 471500                    LDP1    2,,PR0
        25 010115   100003 473500                    LDP3    3,,PR1
        25 010116   000000 220003                    LDX0    0,DU
PL6.E3A0      #001=Z8GO$GLOBAL_OPTIMIZER File=Z8GO.:Z8A6TSI                      TUE 08/26/97 07:51 Page:246
        25 010117   300000 440100                    SXL0    0,,PR3

     1273    14365    5            END ;

     1274    14366
     1275    14367    4            ETT$ -> ETT.ROP -> ETT.EVALP$ -> CCOSU.CNTE =

  14367 25 010120   000000 470400 7                  LDP0    ETT$
        25 010121   000002 471500                    LDP1    2,,PR0
        25 010122   100003 473500                    LDP3    3,,PR1
        25 010123   000002 474400 21                 LDP4    O3COM+2
        25 010124   400000 236100                    LDQ     0,,PR4
        25 010125   000022 736000                    QLS     18
        25 010126   000022 732000                    QRS     18
        25 010127   200062 756100                    STQ     CHAR12+4,,AUTO
        25 010130   300000 236100                    LDQ     0,,PR3
        25 010131   000022 736000                    QLS     18
        25 010132   000022 732000                    QRS     18
        25 010133   200062 036100                    ADLQ    CHAR12+4,,AUTO
        25 010134   777777 620006                    EAX0    -1,QL
        25 010135   300000 440100                    SXL0    0,,PR3

     1276    14368    4              ETT$ -> ETT.ROP -> ETT.EVALP$ -> CCOSU.CNTE +
     1277    14369    4              O3COM.EVALP$ -> CCOSU.CNTE - 1 ;
     1278    14370
     1279    14371    4          END ; /* ID = %BASE */

     1280    14372
     1281    14373    3        END /* IF count > 1 */ ;

     1282    14374
     1283    14375    2   END INCR_ROP_OF_SSOP_OR_SIZ ;

  14375 25 010136   200046 221300                    LDX1  ! VAL_END_ILL$+2,,AUTO
        25 010137   000001 702211                    TSX2  ! 1,X1
     1284    14376
     1285    14377    1   END Z8GO$GLOBAL_OPTIMIZER ;
PL6.E3A0      #001=Z8GO$GLOBAL_OPTIMIZER File=Z8GO.:Z8A6TSI                      TUE 08/26/97 07:51 Page:247
     1286    14378        %EOD;

PL6.E3A0      #001=Z8GO$GLOBAL_OPTIMIZER File=Z8GO.:Z8A6TSI                      TUE 08/26/97 07:51 Page:248
--  Include file information  --

   Z9G_SYS_DEP.:Z8A6TOU  is referenced.
   Z8G_O3COM.:Z8A6TOU  cannot be made into a system file and is referenced.
   Z8G_P3VEC.:Z8A6TOU  cannot be made into a system file and is referenced.
   Z8A_QLT.:Z8A6TOU  cannot be made into a system file and is referenced.
   Z8A_GST.:Z8A6TOU  cannot be made into a system file and is referenced.
   Z8A_LTS.:Z8A6TOU  cannot be made into a system file and is referenced.
   Z8A_ST.:Z8A6TOU  cannot be made into a system file and is referenced.
   Z8A_ETT.:Z8A6TOU  cannot be made into a system file and is referenced.
   Z8A_ILL.:Z8A6TOU  cannot be made into a system file and is referenced.
   Z8A_DPI.:Z8A6TOU  cannot be made into a system file and is referenced.
   Z8A_ILS.:Z8A6TOU  cannot be made into a system file and is referenced.
   Z8A_ERR_NUMS.:Z8A6TOU  is referenced.
   Z8A_COMCOM.:Z8A6TOU  cannot be made into a system file and is referenced.
   X8A_COM_MACS.:X8A6TOU  is referenced.
   Z8A_NAMES.:Z8A6TOU  is referenced.
   Z8A_SUPP_MAC.:Z8A6TOU  is referenced.
   Z8A_DEFC.:Z8A6TOU  cannot be made into a system file and is referenced.
      No diagnostics issued in procedure Z8GO$GLOBAL_OPTIMIZER.
PL6.E3A0      #001=Z8GO$GLOBAL_OPTIMIZER File=Z8GO.:Z8A6TSI                      TUE 08/26/97 07:51 Page:249

 **** Variables and constants ****

  ****  Section 000 LblCom ITERATION

  ****  Scalars and arrays  ****
OctLoc.c.b A Datatyp(siz) R M Lvl/name                 OctLoc.c.b A Datatyp(siz) R M Lvl/name

     0-0-0/w SBIN        r     1 ITERATION

  ****  Section 001 LblCom ILS$

  ****  Scalars and arrays  ****
OctLoc.c.b A Datatyp(siz) R M Lvl/name                 OctLoc.c.b A Datatyp(siz) R M Lvl/name

     0-0-0/w PTR         r     1 ILS$

  ****  Section 002 LblCom ILS_

  ****  Scalars and arrays  ****
OctLoc.c.b A Datatyp(siz) R M Lvl/name                 OctLoc.c.b A Datatyp(siz) R M Lvl/name

     0-0-0/w STRC(180)         1 ILS_

  ****  Section 003 LblCom DPI$

  ****  Scalars and arrays  ****
OctLoc.c.b A Datatyp(siz) R M Lvl/name                 OctLoc.c.b A Datatyp(siz) R M Lvl/name

     0-0-0/w PTR         r     1 DPI$

  ****  Section 004 LblCom DPI_

  ****  Scalars and arrays  ****
OctLoc.c.b A Datatyp(siz) R M Lvl/name                 OctLoc.c.b A Datatyp(siz) R M Lvl/name

     0-0-0/w STRC(180)   r     1 DPI_

PL6.E3A0      #001=Z8GO$GLOBAL_OPTIMIZER File=Z8GO.:Z8A6TSI                      TUE 08/26/97 07:51 Page:250
  ****  Section 005 LblCom ILL$

  ****  Scalars and arrays  ****
OctLoc.c.b A Datatyp(siz) R M Lvl/name                 OctLoc.c.b A Datatyp(siz) R M Lvl/name

     0-0-0/w PTR         r     1 ILL$

  ****  Section 006 LblCom ILL_

  ****  Scalars and arrays  ****
OctLoc.c.b A Datatyp(siz) R M Lvl/name                 OctLoc.c.b A Datatyp(siz) R M Lvl/name

     0-0-0/w STRC(180)   r     1 ILL_

  ****  Section 007 LblCom ETT$

  ****  Scalars and arrays  ****
OctLoc.c.b A Datatyp(siz) R M Lvl/name                 OctLoc.c.b A Datatyp(siz) R M Lvl/name

     0-0-0/w PTR         r     1 ETT$

  ****  Section 008 LblCom HEAD_ETT$

  ****  Scalars and arrays  ****
OctLoc.c.b A Datatyp(siz) R M Lvl/name                 OctLoc.c.b A Datatyp(siz) R M Lvl/name

     0-0-0/w PTR               1 HEAD_ETT$

  ****  Section 009 LblCom ETT_BUCKETS

  ****  Scalars and arrays  ****
OctLoc.c.b A Datatyp(siz) R M Lvl/name                 OctLoc.c.b A Datatyp(siz) R M Lvl/name

     0-0-0/w PTR               1 ETT_BUCKETS(0:511)

  ****  Section 010 LblCom ETT_

PL6.E3A0      #001=Z8GO$GLOBAL_OPTIMIZER File=Z8GO.:Z8A6TSI                      TUE 08/26/97 07:51 Page:251
  ****  Scalars and arrays  ****
OctLoc.c.b A Datatyp(siz) R M Lvl/name                 OctLoc.c.b A Datatyp(siz) R M Lvl/name

     0-0-0/w STRC(180)         1 ETT_

  ****  Section 011 LblCom ST$

  ****  Scalars and arrays  ****
OctLoc.c.b A Datatyp(siz) R M Lvl/name                 OctLoc.c.b A Datatyp(siz) R M Lvl/name

     0-0-0/w PTR         r     1 ST$

  ****  Section 012 LblCom ST_

  ****  Scalars and arrays  ****
OctLoc.c.b A Datatyp(siz) R M Lvl/name                 OctLoc.c.b A Datatyp(siz) R M Lvl/name

     0-0-0/w STRC(180)         1 ST_

  ****  Section 013 LblCom LTS$

  ****  Scalars and arrays  ****
OctLoc.c.b A Datatyp(siz) R M Lvl/name                 OctLoc.c.b A Datatyp(siz) R M Lvl/name

     0-0-0/w PTR               1 LONG_ITEM$                 0-0-0/w PTR         r     1 LTS$

  ****  Section 014 LblCom LTS_

  ****  Scalars and arrays  ****
OctLoc.c.b A Datatyp(siz) R M Lvl/name                 OctLoc.c.b A Datatyp(siz) R M Lvl/name

     0-0-0/w STRC(180)         1 LTS_

  ****  Section 015 LblCom GST$

  ****  Scalars and arrays  ****
OctLoc.c.b A Datatyp(siz) R M Lvl/name                 OctLoc.c.b A Datatyp(siz) R M Lvl/name
PL6.E3A0      #001=Z8GO$GLOBAL_OPTIMIZER File=Z8GO.:Z8A6TSI                      TUE 08/26/97 07:51 Page:252

     0-0-0/w PTR         r     1 GST$

  ****  Section 016 LblCom GST_

  ****  Scalars and arrays  ****
OctLoc.c.b A Datatyp(siz) R M Lvl/name                 OctLoc.c.b A Datatyp(siz) R M Lvl/name

     0-0-0/w STRC(180)         1 GST_

  ****  Section 017 LblCom QLT$

  ****  Scalars and arrays  ****
OctLoc.c.b A Datatyp(siz) R M Lvl/name                 OctLoc.c.b A Datatyp(siz) R M Lvl/name

     0-0-0/w PTR         r     1 QLT$

  ****  Section 018 LblCom PREV_01_QLT$

  ****  Scalars and arrays  ****
OctLoc.c.b A Datatyp(siz) R M Lvl/name                 OctLoc.c.b A Datatyp(siz) R M Lvl/name

     0-0-0/w PTR               1 PREV_01_QLT$

  ****  Section 019 LblCom QLT_

  ****  Scalars and arrays  ****
OctLoc.c.b A Datatyp(siz) R M Lvl/name                 OctLoc.c.b A Datatyp(siz) R M Lvl/name

     0-0-0/w STRC(180)         1 QLT_

  ****  Section 020 LblCom P3VEC

  ****  Scalars and arrays  ****
OctLoc.c.b A Datatyp(siz) R M Lvl/name                 OctLoc.c.b A Datatyp(siz) R M Lvl/name

     0-0-0/w UBIN        r     1 P3VEC(0:294)
PL6.E3A0      #001=Z8GO$GLOBAL_OPTIMIZER File=Z8GO.:Z8A6TSI                      TUE 08/26/97 07:51 Page:253

  ****  Section 021 LblCom O3COM

  ****  Scalars and arrays  ****
OctLoc.c.b A Datatyp(siz) R M Lvl/name                 OctLoc.c.b A Datatyp(siz) R M Lvl/name

     0-0-0/w STRC(2016)  r     1 O3COM

  ****  Section 022  Data  Z8GO$GLOBAL_OPTIMIZER

  ****  Scalars and arrays  ****
OctLoc.c.b A Datatyp(siz) R M Lvl/name                 OctLoc.c.b A Datatyp(siz) R M Lvl/name

     0-0-0/w STRC(360)   r     1 TOP5

  ****  Section 023 LblCom OBUF

  ****  Scalars and arrays  ****
OctLoc.c.b A Datatyp(siz) R M Lvl/name                 OctLoc.c.b A Datatyp(siz) R M Lvl/name

     0-0-0/c CHAR(120)   r     1 OBUF

  ****  Auto variables  ****

  ****  Scalars and arrays  ****
OctLoc.c.b A Datatyp(siz) R M Lvl/name                 OctLoc.c.b A Datatyp(siz) R M Lvl/name

    47-0-0/w PTR         r     1 @OP$                      50-0-0/w PTR         r     1 @PARENT_ID
    47-0-0/w PTR         r     1 @RDEF$                    55-0-0/w PTR         r     1 @TRIAD$
    53-0-0/w PTR         r     1 BASE_ST$$                 56-0-0/c CHAR(12)          1 CHAR12
     4-0-0/w PTR         r     1 DO$                        5-0-0/w PTR         r     1 DOEND$
     6-0-0/w PTR         r     1 DPI$$                      7-0-0/w PTR         r     1 DUMMY_DPI$
    11-0-0/w PTR         r     1 ETT$$                     10-0-0/w SBIN        r     1 ETT_ID
    12-0-0/w PTR         r     1 FIRST_INITV$              13-0-0/w PTR         r     1 HEAD_CCOSU
    14-0-0/w SBIN        r     1 I                         15-0-0/w PTR         r     1 ILL_ETT$
    16-0-0/w PTR         r     1 INCR$                     17-0-0/w BIT         r     1 INCREMENT_ROP_COUNT
    20-0-0/w PTR         r     1 INCRV$                    21-0-0/w PTR         r     1 INIT$
PL6.E3A0      #001=Z8GO$GLOBAL_OPTIMIZER File=Z8GO.:Z8A6TSI                      TUE 08/26/97 07:51 Page:254
    22-0-0/w SBIN        r     1 J                         23-0-0/w PTR         r     1 LAST_INITV$
    24-0-0/w PTR         r     1 LOP$                      25-0-0/w PTR         r     1 LOP$$$
    26-0-0/w PTR         r     1 NEXT_ILS$                 *0-0-0/w PTR         r     1 OP$
    27-0-0/w PTR         r     1 OPN$                       3-0-0/w PTR         r     1 P$
    30-0-0/w SBIN              1 P3VEC_CODE                *0-0-0/w UBIN        r     1 PARENT_ID
    31-0-0/w PTR         r     1 PREV$                     32-0-0/w PTR         r     1 PREV_ILS$
    33-0-0/w PTR         r     1 PREV_LBL$                 50-0-0/w PTR               1 QST$
    *0-0-0/w PTR         r     1 RDEF$                     52-0-0/w PTR         r     1 SIZ$
    51-0-0/w PTR         r     1 SSOP$                     34-0-0/w PTR         r     1 ST$$$
    35-0-0/w PTR         r     1 TAIL_CCOSU                *0-0-0/w PTR         r     1 TRIAD$
    44-0-0/w PTR         r     1 VAL_END_ILL$              43-0-0/w PTR         r     1 VAL_END_ILS$
    37-0-0/w SBIN        r     1 VAL_END_SEQ#              42-0-0/w PTR         r     1 VAL_ETT$
    41-0-0/w PTR         r     1 VAL_ILL$                  40-0-0/w PTR         r     1 VAL_ILS$
    36-0-0/w SBIN        r     1 VAL_SEQ#

  ****  SYMREF variables  ****

  ****  Scalars and arrays  ****
OctLoc.c.b A Datatyp(siz) R M Lvl/name                 OctLoc.c.b A Datatyp(siz) R M Lvl/name

     0-0-0/d STRC(13248) r     1 COMCOM                     0-0-0/w UBIN        r     1 ILL_STEP(0:144)
     0-0-0/w UBIN              1 ILS_STEP_TABLE(0:2)
     0-0-0/w UBIN              1 LTS_STEP(0:37)

  ****  BASED and DCB variables  ****

  ****  Scalars and arrays  ****
OctLoc.c.b A Datatyp(siz) R M Lvl/name                 OctLoc.c.b A Datatyp(siz) R M Lvl/name

     0-0-0/w STRC(108)         1 ACCEPT_DISPLAY             0-0-0/w STRC(396)         1 ALPHABET
     0-0-0/w STRC(144)         1 ALTER_LTS                  0-0-0/w STRC(3672)        1 ALT_KEY
     0-0-0/w STRC(36864) r     1 ARGLIST                    0-0-0/w STRC(396)         1 ARRAY
     0-0-0/w STRC(180)         1 ARRAY_PRESET_LTS           0-0-0/w STRC(288)         1 BASE_LTS
     0-0-0/w STRC(108)         1 BINARY_ILL                 0-0-0/w STRC(396)         1 BLOCK
     0-0-0/w STRC(144)         1 BRANCH_ILL                 0-0-0/w STRC(144)         1 BT
     0-0-0/w STRC(216)   r     1 CCOSU                      0-0-0/w STRC(396)         1 CD
     0-0-0/w STRC(288)         1 CD_LTS                     0-0-0/w CHAR(4096)        1 CHARS
PL6.E3A0      #001=Z8GO$GLOBAL_OPTIMIZER File=Z8GO.:Z8A6TSI                      TUE 08/26/97 07:51 Page:255
     0-0-0/w STRC(396)         1 CLASS                      0-0-0/w STRC(108)         1 CODED_MOVE
     0-0-0/w STRC(396)         1 CONDITION                  0-0-0/w STRC(396)         1 CONST
     0-0-0/w STRC(72)          1 CONT                       0-0-0/w STRC(540)         1 CONTROL_NAME_LTS
     0-0-0/w STRC(1872)        1 COPY_FILE                  0-0-0/w STRC(396)         1 DB
     0-0-0/w STRC(396)         1 DCB_                       0-0-0/w STRC(144)         1 DEFLB
     0-0-0/w STRC(108)         1 DEPENDING_SIZE             0-0-0/w STRC(5472)        1 DIMS
     0-0-0/w STRC(396)         1 DML_ITEM                   0-0-0/w STRC(216)         1 DML_REC
     0-0-0/w STRC(144)         1 DOEND                      0-0-0/w STRC(396)   r     1 DO_N
     0-0-0/w STRC(108)   r     1 DPI                        0-0-0/w STRC(180)         1 DV4I
     0-0-0/w STRC(180)   r     1 ENTRY_ILL                  0-0-0/w STRC(180)   r     1 ETT
     0-0-0/w STRC(108)         1 EVALU                      0-0-0/w STRC(73836)       1 EVALUATE
     0-0-0/w STRC(396)         1 FD                         0-0-0/w STRC(1692)        1 FILE_LTS
     0-0-0/w STRC(144)         1 GO                         0-0-0/w STRC(108)   r     1 GST
     0-0-0/w STRC(180)   r     1 ILL                        0-0-0/w STRC              1 ILL_NO_OPS
     0-0-0/w STRC(180)   r     1 ILS                        0-0-0/w STRC(108)         1 INDEXES
     0-0-0/w STRC(360)         1 INIT_LTS                   0-0-0/w STRC(396)         1 INTDEF
     0-0-0/w STRC(180)         1 IO_RESTORE_CHAIN           0-0-0/w STRC(144)         1 KEY
     0-0-0/w STRC(396)         1 LABEL                      0-0-0/w STRC(36864)       1 LCNST
     0-0-0/w STRC(108)   r     1 LINOI                      0-0-0/w STRC(72)          1 LONG
     0-0-0/w STRC              1 LTS                        0-0-0/w STRC(360)         1 LTSS
     0-0-0/w STRC(36936)       1 LTS_PTR_ARRAY              0-0-0/w STRC(72)          1 MFILL
     0-0-0/w STRC(396)         1 MNEMONIC                   0-0-0/w STRC(180)         1 MULTI_GO
     0-0-0/w STRC(180)         1 MVEAL                      0-0-0/w STRC(108)         1 MVFIL
     0-0-0/w STRC(72)          1 MVIIS                      0-0-0/w STRC(144)         1 NEL
     0-0-0/w STRC(216)         1 OPEN_LTS                   0-0-0/w STRC(144)         1 OPN
     0-0-0/w STRC(180)         1 OS_CALL                    0-0-0/w STRC(36864)       1 PAGE
     0-0-0/w STRC(396)         1 PARA                       0-0-0/w STRC(216)         1 PFORM
     0-0-0/w STRC(144)         1 PINC                       0-0-0/w STRC(144)         1 PREOFF
     0-0-0/w STRC(108)         1 PRESET                     0-0-0/w STRC(144)         1 PRIME
     0-0-0/w STRC(396)         1 PROC_                      0-0-0/w STRC(396)         1 PROC_DEF
     0-0-0/w STRC(900)         1 PROC_SUPP                  0-0-0/w STRC(144)         1 P_A_PRESET
     0-0-0/w STRC(144)         1 P_P_PRESET                 0-0-0/w STRC(216)         1 QLT
     0-0-0/w STRC(396)         1 RD                         0-0-0/w STRC(216)         1 REF
     0-0-0/w STRC(144)         1 REMEM                      0-0-0/w STRC(108)         1 RENAMES
     0-0-0/w STRC(720)         1 REPORT_01_LTS              0-0-0/w STRC(432)         1 REPORT_ELEM_LTS
     0-0-0/w STRC(252)         1 REPORT_GRP_LTS             0-0-0/w STRC(1332)        1 REPORT_LTS
     0-0-0/w STRC(144)         1 RVA_LTS                    0-0-0/w STRC(396)         1 SCALAR
PL6.E3A0      #001=Z8GO$GLOBAL_OPTIMIZER File=Z8GO.:Z8A6TSI                      TUE 08/26/97 07:51 Page:256
     0-0-0/w STRC(144)         1 SCOPE                      0-0-0/w STRC(396)         1 SD
     0-0-0/w STRC(216)         1 SEARCH_                    0-0-0/w STRC(396)         1 SECTION
     0-0-0/w STRC(396)         1 SEGMENT                    0-0-0/w STRC(360)         1 SEGMENT_LTS
     0-0-0/w STRC(396)   r     1 ST                         0-0-0/w STRC(72)          1 STP2
     0-0-0/w STRC(252)         1 SUM_LTS                    0-0-0/w STRC(396)         1 SWITCH
     0-0-0/w STRC(396)         1 SYMBOLIC_CHAR              0-0-0/w STRC(396)         1 SYMDEF_
     0-0-0/w STRC(396)         1 SYMREF_                    0-0-0/w STRC(396)         1 TEMP
     0-0-0/w STRC(144)         1 TRINARY_ILL                0-0-0/w STRC(72)          1 UNARY_ILL
     0-0-0/d STRC(612)         1 USE                        0-0-0/w STRC(216)         1 USER_CALL
     0-0-0/w STRC(252)         1 USE_SUPP                   0-0-0/w STRC(108)   r     1 VAL
     0-0-0/w STRC(108)   r     1 VAL_END                    0-0-0/w STRC(396)   r     1 VARIABLE
     0-0-0/w STRC(72)          1 WHEN


   Procedure Z8GO$GLOBAL_OPTIMIZER requires 4192 words for executable code.
   Procedure Z8GO$GLOBAL_OPTIMIZER requires 54 words of local(AUTO) storage.

