VERSION A06

PL6.E3A0      #001=Z8GX$IS_SSOP_INITV_ABLE File=Z8GX.:Z8A6TSI                    SAT 08/09/97 13:16 Page:1
        1        1        /*M* Z8GX -- 3 Routines -- All Recursive */
        2        2        /*T***********************************************************/
        3        3        /*T*                                                         */
        4        4        /*T* Copyright (c) Bull HN Information Systems Inc., 1997    */
        5        5        /*T*                                                         */
        6        6        /*T***********************************************************/
        7        7
        8        8
        9        9        /*P*   NAME: Z8GX$IS_SSOP_INITV_ABLE
       10       10
       11       11            PURPOSE: Determine if a subscript expression is a viable
       12       12                     candidate for reduction in strength optimization
       13       13                     via the INITV and INCRV ILL items.
       14       14
       15       15               NAME: Z8GX$INIT_SUBS
       16       16
       17       17            PURPOSE: Substitute in the loops FROM value for the
       18       18                     index variable, thus creating an INITV value.
       19       19
       20       20               NAME: Z8GX$SUBS_INCR
       21       21
       22       22            PURPOSE: Substitute in the loop's BY value for the index
       23       23                     variable, thus creating an INCRV value. Note that
       24       24                     zero must be substituted for other subscript
       25       25                     variables.
       26       26
       27       27             AUTHOR: John Heath.
       28       28
       29       29        */
       30       30
       31       31        %EJECT;
PL6.E3A0      #001=Z8GX$IS_SSOP_INITV_ABLE File=Z8GX.:Z8A6TSI                    SAT 08/09/97 13:16 Page:2
       32       32        /*D*   NAME: Z8GX$IS_SSOP_INITV_ABLE
       33       33
       34       34        DESCRIPTION: Determine if a subscript expression is a viable
       35       35                     candidate for reduction in strength optimization
       36       36                     via the INITV and INCRV ILL items.
       37       37
       38       38                     To be considered viable, the expression must have
       39       39                     the following attributes:
       40       40
       41       41                       (1) It must be of the form V1*S1 + V2*S2 + ...
       42       42                           where Vi are subsript variables,
       43       43                             and Si are span constants.
       44       44
       45       45                       (2) One of the Vi must be the index variable of
       46       46                           a DO5 item.
       47       47
       48       48                       (3) None of the other Vi must be redefined within
       49       49                           the loop (DO5 ... DOEND).
       50       50
       51       51               CALL: CALL IS_SSOP_INITV_ABLE (EXPR$, NOPE, YEP) ;
       52       52
       53       53              INPUT: EXPR$ -- a ROP of SSOP expression to be analyzed.
       54       54
       55       55                     VARYING$ -- the index of the innermost DO5.
       56       56
       57       57             OUTPUT: NOPE -- '1'B means it's not INITVable.
       58       58
       59       59                     YEP -- '1'B means it's INITVable. (NOPE must be 0).
       60       60
       61       61        */
       62       62
       63       63        Z8GX$IS_SSOP_INITV_ABLE: PROC (EXPR$, NOPE, YEP) ;
       64       64
       65       65        %EQU PHASE = 3 ;
       66       66        %EQU Z8GX = 8724 ;
       67       67        %EQU MODULE = Z8GX ;
       68       68
PL6.E3A0      #001=Z8GX$IS_SSOP_INITV_ABLE File=Z8GX.:Z8A6TSI                    SAT 08/09/97 13:16 Page:3
       69       69        %INCLUDE Z8A_DEFC ;
       70      137        %INCLUDE Z8A_SUPP_MAC ;
       71     2537        %INCLUDE Z8A_ETT ;
       72     2838        %INCLUDE Z8G_O3COM ;
       73     2878
       74     2879    1   DCL   EXPR$     PTR ;     /* Expression to analyze  */
       75     2880    1   DCL   LOP$      PTR ;     /* Fish Thru Conversions  */
       76     2881    1   DCL   NOPE      BIT (1) ALIGNED ; /* Not INITVable if on    */
       77     2882    1   DCL   YEP       BIT (1) ALIGNED ; /* INITVable if on and NOPE is off */
       78     2883    1   DCL   NO        BIT (1) ALIGNED ; /* Temporary bit to be or'd with NOPE */
       79     2884    1   DCL   YES       BIT (1) ALIGNED ; /* Temporary bit to be or'd with YEP  */
       80     2885
       81     2886        %EJECT;
PL6.E3A0      #001=Z8GX$IS_SSOP_INITV_ABLE File=Z8GX.:Z8A6TSI                    SAT 08/09/97 13:16 Page:4
       82     2887    2          DO CASE (EXPR$->ETT.ID) ;
       83     2888
       84     2889    2            CASE (%ADI) ;
       85     2890
       86     2891    2              CALL Z8GX$IS_SSOP_INITV_ABLE (EXPR$->ETT.LOP, NOPE, YEP) ;
       87     2892
       88     2893    2              CALL Z8GX$IS_SSOP_INITV_ABLE (EXPR$->ETT.ROP, NO, YES) ;
       89     2894
       90     2895    2              NOPE = NOPE | NO ;
       91     2896    2              YEP  = YEP  | YES ;
       92     2897
       93     2898    2            CASE (%MPI, %MPI2) ;
       94     2899
       95     2900    2              LOP$ = EXPR$ -> ETT.LOP ;
       96     2901    2              IF LOP$->ETT.ID = %CVDI
       97     2902    2              THEN LOP$ = LOP$ -> ETT.LOP ;
       98     2903    2              IF LOP$->ETT.ID = %CVDSF
       99     2904    2              THEN LOP$ = LOP$ -> ETT.LOP ;
      100     2905
      101     2906    3              IF LOP$->ETT.ID = %BASE THEN DO ;
      102     2907    3                IF LOP$ = O3COM.VARYING$
      103     2908    3                THEN YES = '1'B ;
      104     2909    3              END ;
      105     2910    2              ELSE NOPE = '1'B ;
      106     2911
      107     2912    2              IF  EXPR$->ETT.ID = %MPI
      108     2913    2              AND EXPR$->ETT.ROP->ETT.ID ~= %TRIAD /* a constant */
      109     2914    2              THEN YES = '0'B ;
      110     2915
      111     2916    2              YEP = YEP | YES ;
      112     2917
      113     2918    2            CASE (%CVDI, %CVDSF) ;
      114     2919
      115     2920    2              CALL Z8GX$IS_SSOP_INITV_ABLE (EXPR$->ETT.LOP, NOPE, YEP) ;
      116     2921
      117     2922    2            CASE (%BASE) ;
      118     2923
PL6.E3A0      #001=Z8GX$IS_SSOP_INITV_ABLE File=Z8GX.:Z8A6TSI                    SAT 08/09/97 13:16 Page:5
      119     2924    2              IF EXPR$ = O3COM.VARYING$
      120     2925    2              THEN NOPE = '1'B ;
      121     2926
      122     2927    2            CASE (ELSE) ;
      123     2928
      124     2929    2              NOPE = '1'B ;
      125     2930
      126     2931    2          END /* Case of EXPR$ ID */ ;
      127     2932
      128     2933    1          RETURN ;
      129     2934
      130     2935    1   END Z8GX$IS_SSOP_INITV_ABLE ;
      131     2936
      132     2937        %EOD;

PL6.E3A0      #001=Z8GX$IS_SSOP_INITV_ABLE File=Z8GX.:Z8A6TSI                    SAT 08/09/97 13:16 Page:6
--  Include file information  --

   Z8G_O3COM.:Z8A6TOU  cannot be made into a system file and is referenced.
   Z8A_ETT.:Z8A6TOU  cannot be made into a system file and is referenced.
   X8A_COM_MACS.:X8A6TOU  is referenced.
   Z8A_NAMES.:Z8A6TOU  is referenced.
   Z8A_SUPP_MAC.:Z8A6TOU  is referenced.
   Z8A_DEFC.:Z8A6TOU  cannot be made into a system file and is referenced.
      No diagnostics issued in procedure Z8GX$IS_SSOP_INITV_ABLE.

   Procedure Z8GX$IS_SSOP_INITV_ABLE requires 204 words for executable code.
   Procedure Z8GX$IS_SSOP_INITV_ABLE requires 14 words of local(AUTO) storage.

PL6.E3A0      #001=Z8GX$IS_SSOP_INITV_ABLE File=Z8GX.:Z8A6TSI                    SAT 08/09/97 13:16 Page:7

 Object Unit name= Z8GX$IS_SSOP_INITV_ABLE                    File name= Z8GX.:Z8A6TOU
 UTS= AUG 09 '97 13:16:17.80 SAT                              Compiler= PL-6/E31         Sev=      00
 SharedLib= :SHARED_SYSTEM                                    Alt SharedLib=


    ****  Control sections  ****

 Sect   Type Bound  Init  Size OctSiz  Section name(segment info)
    0  LblCom even  none     1      1  ITERATION
    1  LblCom even  none     1      1  ETT$
    2  LblCom even  none     1      1  HEAD_ETT$
    3  LblCom even  none   512   1000  ETT_BUCKETS
    4  LblCom even  none     5      5  ETT_
    5  LblCom even  none    56     70  O3COM
    6   Proc  even  none   204    314  Z8GX$IS_SSOP_INITV_ABLE
    7  RoData even  none     1      1  Z8GX$IS_SSOP_INITV_ABLE

    ****  Entry defs  ****

                              Check   Calling
                             calling  sequence
  Sect OctLoc Primary Altret sequence   type   Parms  Name
     6      0   yes            yes      Std        3  Z8GX$IS_SSOP_INITV_ABLE

  ****  Entry refs  ****

         Check        Calling
        calling       sequence
Altret sequence SRef   type   Args  Name
                       nStd      0 X66_AUTO_3
                       nStd      0 X66_ARET
PL6.E3A0      #001=Z8GX$IS_SSOP_INITV_ABLE File=Z8GX.:Z8A6TSI                    SAT 08/09/97 13:16 Page:8

  ****  Segment refs  ****

  Flags:  r = read only, s = secondary
Flgs Name                             Flgs Name                             Flgs Name
     NULLSID
PL6.E3A0      #001=Z8GX$IS_SSOP_INITV_ABLE File=Z8GX.:Z8A6TSI                    SAT 08/09/97 13:16 Page:9


        1        1        /*M* Z8GX -- 3 Routines -- All Recursive */
        2        2        /*T***********************************************************/
        3        3        /*T*                                                         */
        4        4        /*T* Copyright (c) Bull HN Information Systems Inc., 1997    */
        5        5        /*T*                                                         */
        6        6        /*T***********************************************************/
        7        7
        8        8
        9        9        /*P*   NAME: Z8GX$IS_SSOP_INITV_ABLE
       10       10
       11       11            PURPOSE: Determine if a subscript expression is a viable
       12       12                     candidate for reduction in strength optimization
       13       13                     via the INITV and INCRV ILL items.
       14       14
       15       15               NAME: Z8GX$INIT_SUBS
       16       16
       17       17            PURPOSE: Substitute in the loops FROM value for the
       18       18                     index variable, thus creating an INITV value.
       19       19
       20       20               NAME: Z8GX$SUBS_INCR
       21       21
       22       22            PURPOSE: Substitute in the loop's BY value for the index
       23       23                     variable, thus creating an INCRV value. Note that
       24       24                     zero must be substituted for other subscript
       25       25                     variables.
       26       26
       27       27             AUTHOR: John Heath.
       28       28
       29       29        */
       30       30
       31       31        %EJECT;
PL6.E3A0      #001=Z8GX$IS_SSOP_INITV_ABLE File=Z8GX.:Z8A6TSI                    SAT 08/09/97 13:16 Page:10
       32       32        /*D*   NAME: Z8GX$IS_SSOP_INITV_ABLE
       33       33
       34       34        DESCRIPTION: Determine if a subscript expression is a viable
       35       35                     candidate for reduction in strength optimization
       36       36                     via the INITV and INCRV ILL items.
       37       37
       38       38                     To be considered viable, the expression must have
       39       39                     the following attributes:
       40       40
       41       41                       (1) It must be of the form V1*S1 + V2*S2 + ...
       42       42                           where Vi are subsript variables,
       43       43                             and Si are span constants.
       44       44
       45       45                       (2) One of the Vi must be the index variable of
       46       46                           a DO5 item.
       47       47
       48       48                       (3) None of the other Vi must be redefined within
       49       49                           the loop (DO5 ... DOEND).
       50       50
       51       51               CALL: CALL IS_SSOP_INITV_ABLE (EXPR$, NOPE, YEP) ;
       52       52
       53       53              INPUT: EXPR$ -- a ROP of SSOP expression to be analyzed.
       54       54
       55       55                     VARYING$ -- the index of the innermost DO5.
       56       56
       57       57             OUTPUT: NOPE -- '1'B means it's not INITVable.
       58       58
       59       59                     YEP -- '1'B means it's INITVable. (NOPE must be 0).
       60       60
       61       61        */
       62       62
       63       63        Z8GX$IS_SSOP_INITV_ABLE: PROC (EXPR$, NOPE, YEP) ;

     63  6 000000   000000 700200 xent  Z8GX$IS_SSO* TSX0  ! X66_AUTO_3
         6 000001   000016 000003                    ZERO    14,3

       64       64
PL6.E3A0      #001=Z8GX$IS_SSOP_INITV_ABLE File=Z8GX.:Z8A6TSI                    SAT 08/09/97 13:16 Page:11
       65       65        %EQU PHASE = 3 ;
       66       66        %EQU Z8GX = 8724 ;
       67       67        %EQU MODULE = Z8GX ;
       68       68
       69       69        %INCLUDE Z8A_DEFC ;
       70      137        %INCLUDE Z8A_SUPP_MAC ;
       71     2537        %INCLUDE Z8A_ETT ;
       72     2838        %INCLUDE Z8G_O3COM ;
       73     2878
       74     2879    1   DCL   EXPR$     PTR ;     /* Expression to analyze  */
       75     2880    1   DCL   LOP$      PTR ;     /* Fish Thru Conversions  */
       76     2881    1   DCL   NOPE      BIT (1) ALIGNED ; /* Not INITVable if on    */
       77     2882    1   DCL   YEP       BIT (1) ALIGNED ; /* INITVable if on and NOPE is off */
       78     2883    1   DCL   NO        BIT (1) ALIGNED ; /* Temporary bit to be or'd with NOPE */
       79     2884    1   DCL   YES       BIT (1) ALIGNED ; /* Temporary bit to be or'd with YEP  */
       80     2885
       81     2886        %EJECT;
PL6.E3A0      #001=Z8GX$IS_SSOP_INITV_ABLE File=Z8GX.:Z8A6TSI                    SAT 08/09/97 13:16 Page:12
       82     2887    2          DO CASE (EXPR$->ETT.ID) ;

   2887  6 000002   200003 470500                    LDP0    @EXPR$,,AUTO
         6 000003   000000 471500                    LDP1    0,,PR0
         6 000004   100000 220100                    LDX0    0,,PR1
         6 000005   000133 100003                    CMPX0   91,DU
         6 000006   000010 602010 6                  TNC     s:2887+6,X0
         6 000007   000310 710000 6                  TRA     s:2929
         6 000010   000310 710000 6                  TRA     s:2929
         6 000011   000301 710000 6                  TRA     s:2924
         6 000012   000310 710000 6                  TRA     s:2929
         6 000013   000310 710000 6                  TRA     s:2929
         6 000014   000310 710000 6                  TRA     s:2929
         6 000015   000310 710000 6                  TRA     s:2929
         6 000016   000310 710000 6                  TRA     s:2929
         6 000017   000310 710000 6                  TRA     s:2929
         6 000020   000310 710000 6                  TRA     s:2929
         6 000021   000310 710000 6                  TRA     s:2929
         6 000022   000310 710000 6                  TRA     s:2929
         6 000023   000310 710000 6                  TRA     s:2929
         6 000024   000310 710000 6                  TRA     s:2929
         6 000025   000310 710000 6                  TRA     s:2929
         6 000026   000310 710000 6                  TRA     s:2929
         6 000027   000310 710000 6                  TRA     s:2929
         6 000030   000310 710000 6                  TRA     s:2929
         6 000031   000310 710000 6                  TRA     s:2929
         6 000032   000310 710000 6                  TRA     s:2929
         6 000033   000310 710000 6                  TRA     s:2929
         6 000034   000310 710000 6                  TRA     s:2929
         6 000035   000310 710000 6                  TRA     s:2929
         6 000036   000310 710000 6                  TRA     s:2929
         6 000037   000310 710000 6                  TRA     s:2929
         6 000040   000310 710000 6                  TRA     s:2929
         6 000041   000310 710000 6                  TRA     s:2929
         6 000042   000310 710000 6                  TRA     s:2929
         6 000043   000310 710000 6                  TRA     s:2929
         6 000044   000310 710000 6                  TRA     s:2929
PL6.E3A0      #001=Z8GX$IS_SSOP_INITV_ABLE File=Z8GX.:Z8A6TSI                    SAT 08/09/97 13:16 Page:13
         6 000045   000310 710000 6                  TRA     s:2929
         6 000046   000310 710000 6                  TRA     s:2929
         6 000047   000266 710000 6                  TRA     s:2920
         6 000050   000310 710000 6                  TRA     s:2929
         6 000051   000310 710000 6                  TRA     s:2929
         6 000052   000310 710000 6                  TRA     s:2929
         6 000053   000310 710000 6                  TRA     s:2929
         6 000054   000310 710000 6                  TRA     s:2929
         6 000055   000310 710000 6                  TRA     s:2929
         6 000056   000310 710000 6                  TRA     s:2929
         6 000057   000310 710000 6                  TRA     s:2929
         6 000060   000310 710000 6                  TRA     s:2929
         6 000061   000310 710000 6                  TRA     s:2929
         6 000062   000212 710000 6                  TRA     s:2900
         6 000063   000310 710000 6                  TRA     s:2929
         6 000064   000143 710000 6                  TRA     s:2891
         6 000065   000310 710000 6                  TRA     s:2929
         6 000066   000310 710000 6                  TRA     s:2929
         6 000067   000310 710000 6                  TRA     s:2929
         6 000070   000212 710000 6                  TRA     s:2900
         6 000071   000310 710000 6                  TRA     s:2929
         6 000072   000310 710000 6                  TRA     s:2929
         6 000073   000310 710000 6                  TRA     s:2929
         6 000074   000310 710000 6                  TRA     s:2929
         6 000075   000310 710000 6                  TRA     s:2929
         6 000076   000310 710000 6                  TRA     s:2929
         6 000077   000310 710000 6                  TRA     s:2929
         6 000100   000310 710000 6                  TRA     s:2929
         6 000101   000310 710000 6                  TRA     s:2929
         6 000102   000310 710000 6                  TRA     s:2929
         6 000103   000310 710000 6                  TRA     s:2929
         6 000104   000310 710000 6                  TRA     s:2929
         6 000105   000310 710000 6                  TRA     s:2929
         6 000106   000310 710000 6                  TRA     s:2929
         6 000107   000310 710000 6                  TRA     s:2929
         6 000110   000310 710000 6                  TRA     s:2929
         6 000111   000310 710000 6                  TRA     s:2929
PL6.E3A0      #001=Z8GX$IS_SSOP_INITV_ABLE File=Z8GX.:Z8A6TSI                    SAT 08/09/97 13:16 Page:14
         6 000112   000310 710000 6                  TRA     s:2929
         6 000113   000310 710000 6                  TRA     s:2929
         6 000114   000310 710000 6                  TRA     s:2929
         6 000115   000310 710000 6                  TRA     s:2929
         6 000116   000310 710000 6                  TRA     s:2929
         6 000117   000310 710000 6                  TRA     s:2929
         6 000120   000310 710000 6                  TRA     s:2929
         6 000121   000310 710000 6                  TRA     s:2929
         6 000122   000310 710000 6                  TRA     s:2929
         6 000123   000310 710000 6                  TRA     s:2929
         6 000124   000310 710000 6                  TRA     s:2929
         6 000125   000310 710000 6                  TRA     s:2929
         6 000126   000310 710000 6                  TRA     s:2929
         6 000127   000310 710000 6                  TRA     s:2929
         6 000130   000310 710000 6                  TRA     s:2929
         6 000131   000310 710000 6                  TRA     s:2929
         6 000132   000310 710000 6                  TRA     s:2929
         6 000133   000310 710000 6                  TRA     s:2929
         6 000134   000310 710000 6                  TRA     s:2929
         6 000135   000310 710000 6                  TRA     s:2929
         6 000136   000310 710000 6                  TRA     s:2929
         6 000137   000310 710000 6                  TRA     s:2929
         6 000140   000310 710000 6                  TRA     s:2929
         6 000141   000310 710000 6                  TRA     s:2929
         6 000142   000266 710000 6                  TRA     s:2920

       83     2888
       84     2889    2            CASE (%ADI) ;

       85     2890
       86     2891    2              CALL Z8GX$IS_SSOP_INITV_ABLE (EXPR$->ETT.LOP, NOPE, YEP) ;

   2891  6 000143   200005 236100                    LDQ     @YEP,,AUTO
         6 000144   200014 756100                    STQ     YES+4,,AUTO
         6 000145   200004 236100                    LDQ     @NOPE,,AUTO
         6 000146   200013 756100                    STQ     YES+3,,AUTO
         6 000147   100001 633500                    EPPR3   1,,PR1
PL6.E3A0      #001=Z8GX$IS_SSOP_INITV_ABLE File=Z8GX.:Z8A6TSI                    SAT 08/09/97 13:16 Page:15
         6 000150   200012 453500                    STP3    YES+2,,AUTO
         6 000151   200012 630500                    EPPR0   YES+2,,AUTO
         6 000152   000000 631400 7                  EPPR1   0
         6 000153   000000 701000 6                  TSX1    s:63
         6 000154   000000 011000                    NOP     0

       87     2892
       88     2893    2              CALL Z8GX$IS_SSOP_INITV_ABLE (EXPR$->ETT.ROP, NO, YES) ;

   2893  6 000155   200003 470500                    LDP0    @EXPR$,,AUTO
         6 000156   000000 471500                    LDP1    0,,PR0
         6 000157   200010 633500                    EPPR3   YES,,AUTO
         6 000160   200014 453500                    STP3    YES+4,,AUTO
         6 000161   200007 634500                    EPPR4   NO,,AUTO
         6 000162   200013 454500                    STP4    YES+3,,AUTO
         6 000163   100002 635500                    EPPR5   2,,PR1
         6 000164   200012 455500                    STP5    YES+2,,AUTO
         6 000165   200012 630500                    EPPR0   YES+2,,AUTO
         6 000166   000000 631400 7                  EPPR1   0
         6 000167   000000 701000 6                  TSX1    s:63
         6 000170   000000 011000                    NOP     0

       89     2894
       90     2895    2              NOPE = NOPE | NO ;

   2895  6 000171   200007 236100                    LDQ     NO,,AUTO
         6 000172   400000 376003                    ANQ     -131072,DU
         6 000173   200012 756100                    STQ     YES+2,,AUTO
         6 000174   200004 470500                    LDP0    @NOPE,,AUTO
         6 000175   000000 236100                    LDQ     0,,PR0
         6 000176   400000 376003                    ANQ     -131072,DU
         6 000177   200012 276100                    ORQ     YES+2,,AUTO
         6 000200   000000 756100                    STQ     0,,PR0

       91     2896    2              YEP  = YEP  | YES ;

   2896  6 000201   200010 236100                    LDQ     YES,,AUTO
PL6.E3A0      #001=Z8GX$IS_SSOP_INITV_ABLE File=Z8GX.:Z8A6TSI                    SAT 08/09/97 13:16 Page:16
         6 000202   400000 376003                    ANQ     -131072,DU
         6 000203   200012 756100                    STQ     YES+2,,AUTO
         6 000204   200005 471500                    LDP1    @YEP,,AUTO
         6 000205   100000 236100                    LDQ     0,,PR1
         6 000206   400000 376003                    ANQ     -131072,DU
         6 000207   200012 276100                    ORQ     YES+2,,AUTO
         6 000210   100000 756100                    STQ     0,,PR1
         6 000211   000313 710000 6                  TRA     s:2933

       92     2897
       93     2898    2            CASE (%MPI, %MPI2) ;

       94     2899
       95     2900    2              LOP$ = EXPR$ -> ETT.LOP ;

   2900  6 000212   100001 236100                    LDQ     1,,PR1
         6 000213   200006 756100                    STQ     LOP$,,AUTO

       96     2901    2              IF LOP$->ETT.ID = %CVDI

   2901  6 000214   200006 473500                    LDP3    LOP$,,AUTO
         6 000215   300000 221100                    LDX1    0,,PR3
         6 000216   000132 101003                    CMPX1   90,DU
         6 000217   000222 601000 6                  TNZ     s:2903

       97     2902    2              THEN LOP$ = LOP$ -> ETT.LOP ;

   2902  6 000220   300001 236100                    LDQ     1,,PR3
         6 000221   200006 756100                    STQ     LOP$,,AUTO

       98     2903    2              IF LOP$->ETT.ID = %CVDSF

   2903  6 000222   200006 473500                    LDP3    LOP$,,AUTO
         6 000223   300000 221100                    LDX1    0,,PR3
         6 000224   000037 101003                    CMPX1   31,DU
         6 000225   000230 601000 6                  TNZ     s:2906

PL6.E3A0      #001=Z8GX$IS_SSOP_INITV_ABLE File=Z8GX.:Z8A6TSI                    SAT 08/09/97 13:16 Page:17
       99     2904    2              THEN LOP$ = LOP$ -> ETT.LOP ;

   2904  6 000226   300001 236100                    LDQ     1,,PR3
         6 000227   200006 756100                    STQ     LOP$,,AUTO

      100     2905
      101     2906    3              IF LOP$->ETT.ID = %BASE THEN DO ;

   2906  6 000230   200006 473500                    LDP3    LOP$,,AUTO
         6 000231   300000 221100                    LDX1    0,,PR3
         6 000232   000001 101003                    CMPX1   1,DU
         6 000233   000241 601000 6                  TNZ     s:2910

      102     2907    3                IF LOP$ = O3COM.VARYING$

   2907  6 000234   000055 116000 5                  CMPQ    O3COM+45
         6 000235   000244 601000 6                  TNZ     s:2912

      103     2908    3                THEN YES = '1'B ;

   2908  6 000236   400000 236003                    LDQ     -131072,DU
         6 000237   200010 756100                    STQ     YES,,AUTO

      104     2909    3              END ;

   2909  6 000240   000244 710000 6                  TRA     s:2912

      105     2910    2              ELSE NOPE = '1'B ;

   2910  6 000241   400000 236003                    LDQ     -131072,DU
         6 000242   200004 474500                    LDP4    @NOPE,,AUTO
         6 000243   400000 756100                    STQ     0,,PR4

      106     2911
      107     2912    2              IF  EXPR$->ETT.ID = %MPI

   2912  6 000244   000000 471500                    LDP1    0,,PR0
PL6.E3A0      #001=Z8GX$IS_SSOP_INITV_ABLE File=Z8GX.:Z8A6TSI                    SAT 08/09/97 13:16 Page:18
         6 000245   100000 220100                    LDX0    0,,PR1
         6 000246   000060 100003                    CMPX0   48,DU
         6 000247   000255 601000 6                  TNZ     s:2916
         6 000250   100002 474500                    LDP4    2,,PR1
         6 000251   400000 221100                    LDX1    0,,PR4
         6 000252   000015 101003                    CMPX1   13,DU
         6 000253   000255 600000 6                  TZE     s:2916

      108     2913    2              AND EXPR$->ETT.ROP->ETT.ID ~= %TRIAD /* a constant */
      109     2914    2              THEN YES = '0'B ;

   2914  6 000254   200010 450100                    STZ     YES,,AUTO

      110     2915
      111     2916    2              YEP = YEP | YES ;

   2916  6 000255   200010 236100                    LDQ     YES,,AUTO
         6 000256   400000 376003                    ANQ     -131072,DU
         6 000257   200012 756100                    STQ     YES+2,,AUTO
         6 000260   200005 471500                    LDP1    @YEP,,AUTO
         6 000261   100000 236100                    LDQ     0,,PR1
         6 000262   400000 376003                    ANQ     -131072,DU
         6 000263   200012 276100                    ORQ     YES+2,,AUTO
         6 000264   100000 756100                    STQ     0,,PR1
         6 000265   000313 710000 6                  TRA     s:2933

      112     2917
      113     2918    2            CASE (%CVDI, %CVDSF) ;

      114     2919
      115     2920    2              CALL Z8GX$IS_SSOP_INITV_ABLE (EXPR$->ETT.LOP, NOPE, YEP) ;

   2920  6 000266   200005 236100                    LDQ     @YEP,,AUTO
         6 000267   200014 756100                    STQ     YES+4,,AUTO
         6 000270   200004 236100                    LDQ     @NOPE,,AUTO
         6 000271   200013 756100                    STQ     YES+3,,AUTO
         6 000272   100001 633500                    EPPR3   1,,PR1
PL6.E3A0      #001=Z8GX$IS_SSOP_INITV_ABLE File=Z8GX.:Z8A6TSI                    SAT 08/09/97 13:16 Page:19
         6 000273   200012 453500                    STP3    YES+2,,AUTO
         6 000274   200012 630500                    EPPR0   YES+2,,AUTO
         6 000275   000000 631400 7                  EPPR1   0
         6 000276   000000 701000 6                  TSX1    s:63
         6 000277   000000 011000                    NOP     0
         6 000300   000313 710000 6                  TRA     s:2933

      116     2921
      117     2922    2            CASE (%BASE) ;

      118     2923
      119     2924    2              IF EXPR$ = O3COM.VARYING$

   2924  6 000301   000000 236100                    LDQ     0,,PR0
         6 000302   000055 116000 5                  CMPQ    O3COM+45
         6 000303   000313 601000 6                  TNZ     s:2933

      120     2925    2              THEN NOPE = '1'B ;

   2925  6 000304   400000 236003                    LDQ     -131072,DU
         6 000305   200004 473500                    LDP3    @NOPE,,AUTO
         6 000306   300000 756100                    STQ     0,,PR3
         6 000307   000313 710000 6                  TRA     s:2933

      121     2926
      122     2927    2            CASE (ELSE) ;

      123     2928
      124     2929    2              NOPE = '1'B ;

   2929  6 000310   400000 236003                    LDQ     -131072,DU
         6 000311   200004 473500                    LDP3    @NOPE,,AUTO
         6 000312   300000 756100                    STQ     0,,PR3

      125     2930
      126     2931    2          END /* Case of EXPR$ ID */ ;

PL6.E3A0      #001=Z8GX$IS_SSOP_INITV_ABLE File=Z8GX.:Z8A6TSI                    SAT 08/09/97 13:16 Page:20
      127     2932
      128     2933    1          RETURN ;

   2933  6 000313   000000 702200 xent               TSX2  ! X66_ARET
      129     2934
      130     2935    1   END Z8GX$IS_SSOP_INITV_ABLE ;
      131     2936
      132     2937        %EOD;

PL6.E3A0      #001=Z8GX$IS_SSOP_INITV_ABLE File=Z8GX.:Z8A6TSI                    SAT 08/09/97 13:16 Page:21
--  Include file information  --

   Z8G_O3COM.:Z8A6TOU  cannot be made into a system file and is referenced.
   Z8A_ETT.:Z8A6TOU  cannot be made into a system file and is referenced.
   X8A_COM_MACS.:X8A6TOU  is referenced.
   Z8A_NAMES.:Z8A6TOU  is referenced.
   Z8A_SUPP_MAC.:Z8A6TOU  is referenced.
   Z8A_DEFC.:Z8A6TOU  cannot be made into a system file and is referenced.
      No diagnostics issued in procedure Z8GX$IS_SSOP_INITV_ABLE.
PL6.E3A0      #001=Z8GX$IS_SSOP_INITV_ABLE File=Z8GX.:Z8A6TSI                    SAT 08/09/97 13:16 Page:22

 **** Variables and constants ****

  ****  Section 000 LblCom ITERATION

  ****  Scalars and arrays  ****
OctLoc.c.b A Datatyp(siz) R M Lvl/name                 OctLoc.c.b A Datatyp(siz) R M Lvl/name

     0-0-0/w SBIN              1 ITERATION

  ****  Section 001 LblCom ETT$

  ****  Scalars and arrays  ****
OctLoc.c.b A Datatyp(siz) R M Lvl/name                 OctLoc.c.b A Datatyp(siz) R M Lvl/name

     0-0-0/w PTR         r     1 ETT$

  ****  Section 002 LblCom HEAD_ETT$

  ****  Scalars and arrays  ****
OctLoc.c.b A Datatyp(siz) R M Lvl/name                 OctLoc.c.b A Datatyp(siz) R M Lvl/name

     0-0-0/w PTR               1 HEAD_ETT$

  ****  Section 003 LblCom ETT_BUCKETS

  ****  Scalars and arrays  ****
OctLoc.c.b A Datatyp(siz) R M Lvl/name                 OctLoc.c.b A Datatyp(siz) R M Lvl/name

     0-0-0/w PTR               1 ETT_BUCKETS(0:511)

  ****  Section 004 LblCom ETT_

  ****  Scalars and arrays  ****
OctLoc.c.b A Datatyp(siz) R M Lvl/name                 OctLoc.c.b A Datatyp(siz) R M Lvl/name

     0-0-0/w STRC(180)         1 ETT_

PL6.E3A0      #001=Z8GX$IS_SSOP_INITV_ABLE File=Z8GX.:Z8A6TSI                    SAT 08/09/97 13:16 Page:23
  ****  Section 005 LblCom O3COM

  ****  Scalars and arrays  ****
OctLoc.c.b A Datatyp(siz) R M Lvl/name                 OctLoc.c.b A Datatyp(siz) R M Lvl/name

     0-0-0/w STRC(2016)  r     1 O3COM

  ****  Auto variables  ****

  ****  Scalars and arrays  ****
OctLoc.c.b A Datatyp(siz) R M Lvl/name                 OctLoc.c.b A Datatyp(siz) R M Lvl/name

     3-0-0/w PTR         r     1 @EXPR$                     4-0-0/w PTR         r     1 @NOPE
     5-0-0/w PTR         r     1 @YEP                      *0-0-0/w PTR         r     1 EXPR$
     6-0-0/w PTR         r     1 LOP$                       7-0-0/w BIT         r     1 NO
    *0-0-0/w BIT         r     1 NOPE                      *0-0-0/w BIT         r     1 YEP
    10-0-0/w BIT         r     1 YES

  ****  BASED and DCB variables  ****

  ****  Scalars and arrays  ****
OctLoc.c.b A Datatyp(siz) R M Lvl/name                 OctLoc.c.b A Datatyp(siz) R M Lvl/name

     0-0-0/w CHAR(4096)        1 CHARS                      0-0-0/w STRC(72)          1 CONT
     0-0-0/w STRC(180)   r     1 ETT                        0-0-0/w STRC(36864)       1 PAGE


   Procedure Z8GX$IS_SSOP_INITV_ABLE requires 204 words for executable code.
   Procedure Z8GX$IS_SSOP_INITV_ABLE requires 14 words of local(AUTO) storage.

PL6.E3A0      #002=Z8GX$INIT_SUBS File=Z8GX.:Z8A6TSI                             SAT 08/09/97 13:16 Page:24
      133        1        /*T***********************************************************/
      134        2        /*T*                                                         */
      135        3        /*T* Copyright (c) Bull HN Information Systems Inc., 1997    */
      136        4        /*T*                                                         */
      137        5        /*T***********************************************************/
      138        6        Z8GX$INIT_SUBS: PROC (EXPR$, RESULT$) ;
      139        7
      140        8        %EQU PHASE = 3 ;
      141        9        %EQU Z8GX = 8724 ;
      142       10        %EQU MODULE = Z8GX ;
      143       11
      144       12        %INCLUDE Z8A_DEFC ;
      145       80        %INCLUDE Z8A_SUPP_MAC ;
      146     2480        %INCLUDE Z8A_ETT ;
      147     2781        %INCLUDE Z8G_O3COM ;
      148     2821        %INCLUDE Z8A_ST ;
      149     6480        %INCLUDE Z8A_COMCOM ;
      150     7130        %INCLUDE Z8A_TYPES ;
      151     7304
      152     7305    1   DCL   EXPR$     PTR ;    /* ROP of SSOP expression */
      153     7306    1   DCL   RESULT$   PTR ;    /* After substitution     */
      154     7307    1   DCL   LOP$      PTR ;    /* Temporary expression   */
      155     7308    1   DCL   FORME_ID   SBIN WORD ; /* Required to pass an ID to FORME */
      156     7309    1   DCL   Z8AF$FORME ENTRY (4) ;
      157     7310        %EJECT;
PL6.E3A0      #002=Z8GX$INIT_SUBS File=Z8GX.:Z8A6TSI                             SAT 08/09/97 13:16 Page:25
      158     7311        /*D*   NAME: Z8GX$INIT_SUBS
      159     7312
      160     7313               CALL: CALL Z8GX$INIT_SUBS (EXPR$, RESULT$) ;
      161     7314
      162     7315              INPUT: EXPR$ -- ROP of SSOP before substitution.
      163     7316                     GST$  -- Current GSA item.
      164     7317                     FROM$ -- Triad representing FROM value.
      165     7318                     VARYING$ -- BASE triad for VARYING identifier.
      166     7319
      167     7320             OUTPUT: RESULT$ -- Result of substituting FROM$ into
      168     7321                                the subscript expression for the
      169     7322                                loop index variable.
      170     7323
      171     7324        DESCRIPTION:: A typical ROP of SSOP will look like this::
      172     7325
      173     7326                                      ADI   (I*S1 + J*S2)
      174     7327                                     /   \
      175     7328                                  MPI     MPI
      176     7329                                 /   \   /   \
      177     7330                                I    S1 J    S2
      178     7331
      179     7332                       where I is the loop index,
      180     7333                             J is some variable,
      181     7334                         and S1 and S2 are spans.
      182     7335
      183     7336                       "I" and "J" will be BASE triads.  S1 and S2 will
      184     7337                       be TRIAD triads (pointing to constants).
      185     7338
      186     7339                       This routine will substitute the FROM identifier
      187     7340                       (or constant) from the loop for "I", and leave "J"
      188     7341                       as is.  The result (RESULT$) will be:
      189     7342
      190     7343                           FROM * S1  +  J * S2
      191     7344
      192     7345                       The INCR_SUBS routine substitutes the "BY"
      193     7346                       identifier (or constant) from the loop for
      194     7347                       "I", and substitutes zero for "J".  The
PL6.E3A0      #002=Z8GX$INIT_SUBS File=Z8GX.:Z8A6TSI                             SAT 08/09/97 13:16 Page:26
      195     7348                       result (RESULT$) will be:
      196     7349
      197     7350                           BY * S1
      198     7351
      199     7352        */
      200     7353
      201     7354        %EJECT;
PL6.E3A0      #002=Z8GX$INIT_SUBS File=Z8GX.:Z8A6TSI                             SAT 08/09/97 13:16 Page:27
      202     7355    2          DO CASE (EXPR$->ETT.ID) ;
      203     7356
      204     7357    2            CASE (%ADI, %MPI) ;
      205     7358
      206     7359    2              CALL Z8GX$INIT_SUBS (EXPR$->ETT.LOP, LOP$) ;
      207     7360    2              CALL Z8GX$INIT_SUBS (EXPR$->ETT.ROP, RESULT$) ;
      208     7361
      209     7362    2              FORME_ID = EXPR$->ETT.ID ;
      210     7363    2              CALL Z8AF$FORME (FORME_ID, LOP$, RESULT$, RESULT$) ;
      211     7364
      212     7365    2            CASE (%CVDI, %CVDSF, %MPI2) ;
      213     7366
      214     7367    2              CALL Z8GX$INIT_SUBS (EXPR$->ETT.LOP, RESULT$) ;
      215     7368
      216     7369    2              FORME_ID = EXPR$->ETT.ID ;
      217     7370    2              CALL Z8AF$FORME (FORME_ID, RESULT$, EXPR$->ETT.ROP, RESULT$) ;
      218     7371
      219     7372    2            CASE (%BASE) ;
      220     7373
      221     7374    2              IF EXPR$ = O3COM.VARYING$
      222     7375    2              THEN RESULT$ = O3COM.FROM$ ;
      223     7376    2              ELSE RESULT$ = EXPR$ ;
      224     7377
      225     7378    2            CASE (%TRIAD) ;
      226     7379
      227     7380    2              RESULT$ = EXPR$ ;
      228     7381
      229     7382    2          END /* Do Case of ID */ ;
      230     7383
      231     7384    1          RETURN ;
      232     7385
      233     7386        %EJECT;
PL6.E3A0      #002=Z8GX$INIT_SUBS File=Z8GX.:Z8A6TSI                             SAT 08/09/97 13:16 Page:28
      234     7387    1   Z8GX$SUBS_INCR: ENTRY (EXPR$, RESULT$) ;
      235     7388
      236     7389    2          DO CASE (EXPR$->ETT.ID) ;
      237     7390
      238     7391    2            CASE (%ADI, %MPI) ;
      239     7392
      240     7393    2              CALL Z8GX$SUBS_INCR (EXPR$->ETT.LOP, LOP$) ;
      241     7394    2              CALL Z8GX$SUBS_INCR (EXPR$->ETT.ROP, RESULT$) ;
      242     7395
      243     7396    2              FORME_ID = EXPR$->ETT.ID ;
      244     7397    2              CALL Z8AF$FORME (FORME_ID, LOP$, RESULT$, RESULT$) ;
      245     7398
      246     7399    2            CASE (%CVDI, %CVDSF, %MPI2) ;
      247     7400
      248     7401    2              CALL Z8GX$SUBS_INCR (EXPR$->ETT.LOP, RESULT$) ;
      249     7402
      250     7403    2              FORME_ID = EXPR$->ETT.ID ;
      251     7404    2              CALL Z8AF$FORME (FORME_ID, RESULT$, EXPR$->ETT.ROP, RESULT$) ;
      252     7405
      253     7406    2            CASE (%BASE) ;
      254     7407
      255     7408    2              IF EXPR$ = O3COM.VARYING$
      256     7409    2              THEN RESULT$ = O3COM.BY$ ;
      257     7410    3              ELSE DO ;
      258     7411    3                IF EXPR$->ETT.LOP->VARIABLE.TYPE = %TYD
      259     7412    3                THEN RESULT$ = COMCOM.D_ZERO ;
      260     7413    3                ELSE RESULT$ = COMCOM.VALUE_0 ;
      261     7414    3              END ;
      262     7415
      263     7416    2            CASE (%TRIAD) ;
      264     7417
      265     7418    2              RESULT$ = EXPR$ ;
      266     7419
      267     7420    2          END /* Do Case of ID */ ;
      268     7421
      269     7422    1          RETURN ;
      270     7423
PL6.E3A0      #002=Z8GX$INIT_SUBS File=Z8GX.:Z8A6TSI                             SAT 08/09/97 13:16 Page:29
      271     7424    1   END Z8GX$INIT_SUBS ;

PL6.E3A0      #002=Z8GX$INIT_SUBS File=Z8GX.:Z8A6TSI                             SAT 08/09/97 13:16 Page:30
--  Include file information  --

   Z8A_TYPES.:Z8A6TOU  is referenced.
   Z8A_COMCOM.:Z8A6TOU  cannot be made into a system file and is referenced.
   Z8A_ST.:Z8A6TOU  cannot be made into a system file and is referenced.
   Z8G_O3COM.:Z8A6TOU  cannot be made into a system file and is referenced.
   Z8A_ETT.:Z8A6TOU  cannot be made into a system file and is referenced.
   X8A_COM_MACS.:X8A6TOU  is referenced.
   Z8A_NAMES.:Z8A6TOU  is referenced.
   Z8A_SUPP_MAC.:Z8A6TOU  is referenced.
   Z8A_DEFC.:Z8A6TOU  cannot be made into a system file and is referenced.
      No diagnostics issued in procedure Z8GX$INIT_SUBS.

   Procedure Z8GX$INIT_SUBS requires 356 words for executable code.
   Procedure Z8GX$INIT_SUBS requires 12 words of local(AUTO) storage.

    No errors detected in file Z8GX.:Z8A6TSI    .

PL6.E3A0      #002=Z8GX$INIT_SUBS File=Z8GX.:Z8A6TSI                             SAT 08/09/97 13:16 Page:31

 Object Unit name= Z8GX$INIT_SUBS                             File name= Z8GX.:Z8A6TOU
 UTS= AUG 09 '97 13:16:40.56 SAT                              Compiler= PL-6/E31         Sev=      00
 SharedLib= :SHARED_SYSTEM                                    Alt SharedLib=


    ****  Control sections  ****

 Sect   Type Bound  Init  Size OctSiz  Section name(segment info)
    0  LblCom even  none     1      1  ITERATION
    1  LblCom even  none     1      1  ETT$
    2  LblCom even  none     1      1  HEAD_ETT$
    3  LblCom even  none   512   1000  ETT_BUCKETS
    4  LblCom even  none     5      5  ETT_
    5  LblCom even  none    56     70  O3COM
    6  LblCom even  none     1      1  ST$
    7  LblCom even  none     5      5  ST_
    8   Proc  even  none   356    544  Z8GX$INIT_SUBS
    9  RoData even  none     2      2  Z8GX$INIT_SUBS

    ****  Entry defs  ****

                              Check   Calling
                             calling  sequence
  Sect OctLoc Primary Altret sequence   type   Parms  Name
     8      0   yes            yes      Std        2  Z8GX$INIT_SUBS
     8    256                  yes      Std        2  Z8GX$SUBS_INCR

  ****  Entry refs  ****

         Check        Calling
        calling       sequence
Altret sequence SRef   type   Args  Name
         yes           Std       4 Z8AF$FORME
                       nStd      0 X66_AUTO_2
                       nStd      0 X66_ARET
PL6.E3A0      #002=Z8GX$INIT_SUBS File=Z8GX.:Z8A6TSI                             SAT 08/09/97 13:16 Page:32

  ****  Data refs  ****

  Flags:  r = read only, s = secondary
Flgs Name                             Flgs Name                             Flgs Name
     COMCOM

  ****  Segment refs  ****

  Flags:  r = read only, s = secondary
Flgs Name                             Flgs Name                             Flgs Name
     NULLSID
PL6.E3A0      #002=Z8GX$INIT_SUBS File=Z8GX.:Z8A6TSI                             SAT 08/09/97 13:16 Page:33


      133        1        /*T***********************************************************/
      134        2        /*T*                                                         */
      135        3        /*T* Copyright (c) Bull HN Information Systems Inc., 1997    */
      136        4        /*T*                                                         */
      137        5        /*T***********************************************************/
      138        6        Z8GX$INIT_SUBS: PROC (EXPR$, RESULT$) ;

      6  8 000000   000000 700200 xent  Z8GX$INIT_S* TSX0  ! X66_AUTO_2
         8 000001   000014 000002                    ZERO    12,2

      139        7
      140        8        %EQU PHASE = 3 ;
      141        9        %EQU Z8GX = 8724 ;
      142       10        %EQU MODULE = Z8GX ;
      143       11
      144       12        %INCLUDE Z8A_DEFC ;
      145       80        %INCLUDE Z8A_SUPP_MAC ;
      146     2480        %INCLUDE Z8A_ETT ;
      147     2781        %INCLUDE Z8G_O3COM ;
      148     2821        %INCLUDE Z8A_ST ;
      149     6480        %INCLUDE Z8A_COMCOM ;
      150     7130        %INCLUDE Z8A_TYPES ;
      151     7304
      152     7305    1   DCL   EXPR$     PTR ;    /* ROP of SSOP expression */
      153     7306    1   DCL   RESULT$   PTR ;    /* After substitution     */
      154     7307    1   DCL   LOP$      PTR ;    /* Temporary expression   */
      155     7308    1   DCL   FORME_ID   SBIN WORD ; /* Required to pass an ID to FORME */
      156     7309    1   DCL   Z8AF$FORME ENTRY (4) ;
      157     7310        %EJECT;
PL6.E3A0      #002=Z8GX$INIT_SUBS File=Z8GX.:Z8A6TSI                             SAT 08/09/97 13:16 Page:34
      158     7311        /*D*   NAME: Z8GX$INIT_SUBS
      159     7312
      160     7313               CALL: CALL Z8GX$INIT_SUBS (EXPR$, RESULT$) ;
      161     7314
      162     7315              INPUT: EXPR$ -- ROP of SSOP before substitution.
      163     7316                     GST$  -- Current GSA item.
      164     7317                     FROM$ -- Triad representing FROM value.
      165     7318                     VARYING$ -- BASE triad for VARYING identifier.
      166     7319
      167     7320             OUTPUT: RESULT$ -- Result of substituting FROM$ into
      168     7321                                the subscript expression for the
      169     7322                                loop index variable.
      170     7323
      171     7324        DESCRIPTION:: A typical ROP of SSOP will look like this::
      172     7325
      173     7326                                      ADI   (I*S1 + J*S2)
      174     7327                                     /   \
      175     7328                                  MPI     MPI
      176     7329                                 /   \   /   \
      177     7330                                I    S1 J    S2
      178     7331
      179     7332                       where I is the loop index,
      180     7333                             J is some variable,
      181     7334                         and S1 and S2 are spans.
      182     7335
      183     7336                       "I" and "J" will be BASE triads.  S1 and S2 will
      184     7337                       be TRIAD triads (pointing to constants).
      185     7338
      186     7339                       This routine will substitute the FROM identifier
      187     7340                       (or constant) from the loop for "I", and leave "J"
      188     7341                       as is.  The result (RESULT$) will be:
      189     7342
      190     7343                           FROM * S1  +  J * S2
      191     7344
      192     7345                       The INCR_SUBS routine substitutes the "BY"
      193     7346                       identifier (or constant) from the loop for
      194     7347                       "I", and substitutes zero for "J".  The
PL6.E3A0      #002=Z8GX$INIT_SUBS File=Z8GX.:Z8A6TSI                             SAT 08/09/97 13:16 Page:35
      195     7348                       result (RESULT$) will be:
      196     7349
      197     7350                           BY * S1
      198     7351
      199     7352        */
      200     7353
      201     7354        %EJECT;
PL6.E3A0      #002=Z8GX$INIT_SUBS File=Z8GX.:Z8A6TSI                             SAT 08/09/97 13:16 Page:36
      202     7355    2          DO CASE (EXPR$->ETT.ID) ;

   7355  8 000002   200003 470500                    LDP0    @EXPR$,,AUTO
         8 000003   000000 471500                    LDP1    0,,PR0
         8 000004   100000 220100                    LDX0    0,,PR1
         8 000005   000133 100003                    CMPX0   91,DU
         8 000006   000010 602010 8                  TNC     s:7355+6,X0
         8 000007   000255 710000 8                  TRA     s:7384
         8 000010   000255 710000 8                  TRA     s:7384
         8 000011   000240 710000 8                  TRA     s:7374
         8 000012   000255 710000 8                  TRA     s:7384
         8 000013   000255 710000 8                  TRA     s:7384
         8 000014   000255 710000 8                  TRA     s:7384
         8 000015   000255 710000 8                  TRA     s:7384
         8 000016   000255 710000 8                  TRA     s:7384
         8 000017   000255 710000 8                  TRA     s:7384
         8 000020   000255 710000 8                  TRA     s:7384
         8 000021   000255 710000 8                  TRA     s:7384
         8 000022   000255 710000 8                  TRA     s:7384
         8 000023   000255 710000 8                  TRA     s:7384
         8 000024   000255 710000 8                  TRA     s:7384
         8 000025   000252 710000 8                  TRA     s:7380
         8 000026   000255 710000 8                  TRA     s:7384
         8 000027   000255 710000 8                  TRA     s:7384
         8 000030   000255 710000 8                  TRA     s:7384
         8 000031   000255 710000 8                  TRA     s:7384
         8 000032   000255 710000 8                  TRA     s:7384
         8 000033   000255 710000 8                  TRA     s:7384
         8 000034   000255 710000 8                  TRA     s:7384
         8 000035   000255 710000 8                  TRA     s:7384
         8 000036   000255 710000 8                  TRA     s:7384
         8 000037   000255 710000 8                  TRA     s:7384
         8 000040   000255 710000 8                  TRA     s:7384
         8 000041   000255 710000 8                  TRA     s:7384
         8 000042   000255 710000 8                  TRA     s:7384
         8 000043   000255 710000 8                  TRA     s:7384
         8 000044   000255 710000 8                  TRA     s:7384
PL6.E3A0      #002=Z8GX$INIT_SUBS File=Z8GX.:Z8A6TSI                             SAT 08/09/97 13:16 Page:37
         8 000045   000255 710000 8                  TRA     s:7384
         8 000046   000255 710000 8                  TRA     s:7384
         8 000047   000206 710000 8                  TRA     s:7367
         8 000050   000255 710000 8                  TRA     s:7384
         8 000051   000255 710000 8                  TRA     s:7384
         8 000052   000255 710000 8                  TRA     s:7384
         8 000053   000255 710000 8                  TRA     s:7384
         8 000054   000255 710000 8                  TRA     s:7384
         8 000055   000255 710000 8                  TRA     s:7384
         8 000056   000255 710000 8                  TRA     s:7384
         8 000057   000255 710000 8                  TRA     s:7384
         8 000060   000255 710000 8                  TRA     s:7384
         8 000061   000255 710000 8                  TRA     s:7384
         8 000062   000206 710000 8                  TRA     s:7367
         8 000063   000255 710000 8                  TRA     s:7384
         8 000064   000143 710000 8                  TRA     s:7359
         8 000065   000255 710000 8                  TRA     s:7384
         8 000066   000255 710000 8                  TRA     s:7384
         8 000067   000255 710000 8                  TRA     s:7384
         8 000070   000143 710000 8                  TRA     s:7359
         8 000071   000255 710000 8                  TRA     s:7384
         8 000072   000255 710000 8                  TRA     s:7384
         8 000073   000255 710000 8                  TRA     s:7384
         8 000074   000255 710000 8                  TRA     s:7384
         8 000075   000255 710000 8                  TRA     s:7384
         8 000076   000255 710000 8                  TRA     s:7384
         8 000077   000255 710000 8                  TRA     s:7384
         8 000100   000255 710000 8                  TRA     s:7384
         8 000101   000255 710000 8                  TRA     s:7384
         8 000102   000255 710000 8                  TRA     s:7384
         8 000103   000255 710000 8                  TRA     s:7384
         8 000104   000255 710000 8                  TRA     s:7384
         8 000105   000255 710000 8                  TRA     s:7384
         8 000106   000255 710000 8                  TRA     s:7384
         8 000107   000255 710000 8                  TRA     s:7384
         8 000110   000255 710000 8                  TRA     s:7384
         8 000111   000255 710000 8                  TRA     s:7384
PL6.E3A0      #002=Z8GX$INIT_SUBS File=Z8GX.:Z8A6TSI                             SAT 08/09/97 13:16 Page:38
         8 000112   000255 710000 8                  TRA     s:7384
         8 000113   000255 710000 8                  TRA     s:7384
         8 000114   000255 710000 8                  TRA     s:7384
         8 000115   000255 710000 8                  TRA     s:7384
         8 000116   000255 710000 8                  TRA     s:7384
         8 000117   000255 710000 8                  TRA     s:7384
         8 000120   000255 710000 8                  TRA     s:7384
         8 000121   000255 710000 8                  TRA     s:7384
         8 000122   000255 710000 8                  TRA     s:7384
         8 000123   000255 710000 8                  TRA     s:7384
         8 000124   000255 710000 8                  TRA     s:7384
         8 000125   000255 710000 8                  TRA     s:7384
         8 000126   000255 710000 8                  TRA     s:7384
         8 000127   000255 710000 8                  TRA     s:7384
         8 000130   000255 710000 8                  TRA     s:7384
         8 000131   000255 710000 8                  TRA     s:7384
         8 000132   000255 710000 8                  TRA     s:7384
         8 000133   000255 710000 8                  TRA     s:7384
         8 000134   000255 710000 8                  TRA     s:7384
         8 000135   000255 710000 8                  TRA     s:7384
         8 000136   000255 710000 8                  TRA     s:7384
         8 000137   000255 710000 8                  TRA     s:7384
         8 000140   000255 710000 8                  TRA     s:7384
         8 000141   000255 710000 8                  TRA     s:7384
         8 000142   000206 710000 8                  TRA     s:7367

      203     7356
      204     7357    2            CASE (%ADI, %MPI) ;

      205     7358
      206     7359    2              CALL Z8GX$INIT_SUBS (EXPR$->ETT.LOP, LOP$) ;

   7359  8 000143   200005 633500                    EPPR3   LOP$,,AUTO
         8 000144   200011 453500                    STP3    FORME_ID+3,,AUTO
         8 000145   100001 634500                    EPPR4   1,,PR1
         8 000146   200010 454500                    STP4    FORME_ID+2,,AUTO
         8 000147   200010 630500                    EPPR0   FORME_ID+2,,AUTO
PL6.E3A0      #002=Z8GX$INIT_SUBS File=Z8GX.:Z8A6TSI                             SAT 08/09/97 13:16 Page:39
         8 000150   000000 631400 9                  EPPR1   0
         8 000151   000000 701000 8                  TSX1    s:6
         8 000152   000000 011000                    NOP     0

      207     7360    2              CALL Z8GX$INIT_SUBS (EXPR$->ETT.ROP, RESULT$) ;

   7360  8 000153   200003 470500                    LDP0    @EXPR$,,AUTO
         8 000154   000000 471500                    LDP1    0,,PR0
         8 000155   200004 236100                    LDQ     @RESULT$,,AUTO
         8 000156   200011 756100                    STQ     FORME_ID+3,,AUTO
         8 000157   100002 633500                    EPPR3   2,,PR1
         8 000160   200010 453500                    STP3    FORME_ID+2,,AUTO
         8 000161   200010 630500                    EPPR0   FORME_ID+2,,AUTO
         8 000162   000000 631400 9                  EPPR1   0
         8 000163   000000 701000 8                  TSX1    s:6
         8 000164   000000 011000                    NOP     0

      208     7361
      209     7362    2              FORME_ID = EXPR$->ETT.ID ;

   7362  8 000165   200003 470500                    LDP0    @EXPR$,,AUTO
         8 000166   000000 471500                    LDP1    0,,PR0
         8 000167   100000 236100                    LDQ     0,,PR1
         8 000170   000022 772000                    QRL     18
         8 000171   200006 756100                    STQ     FORME_ID,,AUTO

      210     7363    2              CALL Z8AF$FORME (FORME_ID, LOP$, RESULT$, RESULT$) ;

   7363  8 000172   200004 236100                    LDQ     @RESULT$,,AUTO
         8 000173   200004 235100                    LDA     @RESULT$,,AUTO
         8 000174   200012 757100                    STAQ    FORME_ID+4,,AUTO
         8 000175   200005 631500                    EPPR1   LOP$,,AUTO
         8 000176   200011 451500                    STP1    FORME_ID+3,,AUTO
         8 000177   200006 633500                    EPPR3   FORME_ID,,AUTO
         8 000200   200010 453500                    STP3    FORME_ID+2,,AUTO
         8 000201   200010 630500                    EPPR0   FORME_ID+2,,AUTO
         8 000202   000001 631400 9                  EPPR1   1
PL6.E3A0      #002=Z8GX$INIT_SUBS File=Z8GX.:Z8A6TSI                             SAT 08/09/97 13:16 Page:40
         8 000203   000000 701000 xent               TSX1    Z8AF$FORME
         8 000204   000000 011000                    NOP     0
         8 000205   000255 710000 8                  TRA     s:7384

      211     7364
      212     7365    2            CASE (%CVDI, %CVDSF, %MPI2) ;

      213     7366
      214     7367    2              CALL Z8GX$INIT_SUBS (EXPR$->ETT.LOP, RESULT$) ;

   7367  8 000206   200004 236100                    LDQ     @RESULT$,,AUTO
         8 000207   200011 756100                    STQ     FORME_ID+3,,AUTO
         8 000210   100001 633500                    EPPR3   1,,PR1
         8 000211   200010 453500                    STP3    FORME_ID+2,,AUTO
         8 000212   200010 630500                    EPPR0   FORME_ID+2,,AUTO
         8 000213   000000 631400 9                  EPPR1   0
         8 000214   000000 701000 8                  TSX1    s:6
         8 000215   000000 011000                    NOP     0

      215     7368
      216     7369    2              FORME_ID = EXPR$->ETT.ID ;

   7369  8 000216   200003 470500                    LDP0    @EXPR$,,AUTO
         8 000217   000000 471500                    LDP1    0,,PR0
         8 000220   100000 236100                    LDQ     0,,PR1
         8 000221   000022 772000                    QRL     18
         8 000222   200006 756100                    STQ     FORME_ID,,AUTO

      217     7370    2              CALL Z8AF$FORME (FORME_ID, RESULT$, EXPR$->ETT.ROP, RESULT$) ;

   7370  8 000223   000000 471500                    LDP1    0,,PR0
         8 000224   200004 236100                    LDQ     @RESULT$,,AUTO
         8 000225   200013 756100                    STQ     FORME_ID+5,,AUTO
         8 000226   100002 633500                    EPPR3   2,,PR1
         8 000227   200012 453500                    STP3    FORME_ID+4,,AUTO
         8 000230   200011 756100                    STQ     FORME_ID+3,,AUTO
         8 000231   200006 631500                    EPPR1   FORME_ID,,AUTO
PL6.E3A0      #002=Z8GX$INIT_SUBS File=Z8GX.:Z8A6TSI                             SAT 08/09/97 13:16 Page:41
         8 000232   200010 451500                    STP1    FORME_ID+2,,AUTO
         8 000233   200010 630500                    EPPR0   FORME_ID+2,,AUTO
         8 000234   000001 631400 9                  EPPR1   1
         8 000235   000000 701000 xent               TSX1    Z8AF$FORME
         8 000236   000000 011000                    NOP     0
         8 000237   000255 710000 8                  TRA     s:7384

      218     7371
      219     7372    2            CASE (%BASE) ;

      220     7373
      221     7374    2              IF EXPR$ = O3COM.VARYING$

   7374  8 000240   000000 236100                    LDQ     0,,PR0
         8 000241   000055 116000 5                  CMPQ    O3COM+45
         8 000242   000247 601000 8                  TNZ     s:7376

      222     7375    2              THEN RESULT$ = O3COM.FROM$ ;

   7375  8 000243   000056 236000 5                  LDQ     O3COM+46
         8 000244   200004 473500                    LDP3    @RESULT$,,AUTO
         8 000245   300000 756100                    STQ     0,,PR3
         8 000246   000255 710000 8                  TRA     s:7384

      223     7376    2              ELSE RESULT$ = EXPR$ ;

   7376  8 000247   200004 473500                    LDP3    @RESULT$,,AUTO
         8 000250   300000 756100                    STQ     0,,PR3
         8 000251   000255 710000 8                  TRA     s:7384

      224     7377
      225     7378    2            CASE (%TRIAD) ;

      226     7379
      227     7380    2              RESULT$ = EXPR$ ;

   7380  8 000252   000000 236100                    LDQ     0,,PR0
PL6.E3A0      #002=Z8GX$INIT_SUBS File=Z8GX.:Z8A6TSI                             SAT 08/09/97 13:16 Page:42
         8 000253   200004 473500                    LDP3    @RESULT$,,AUTO
         8 000254   300000 756100                    STQ     0,,PR3

      228     7381
      229     7382    2          END /* Do Case of ID */ ;

      230     7383
      231     7384    1          RETURN ;

   7384  8 000255   000000 702200 xent               TSX2  ! X66_ARET

      232     7385
      233     7386        %EJECT;
PL6.E3A0      #002=Z8GX$INIT_SUBS File=Z8GX.:Z8A6TSI                             SAT 08/09/97 13:16 Page:43
      234     7387    1   Z8GX$SUBS_INCR: ENTRY (EXPR$, RESULT$) ;

   7387  8 000256   000000 700200 xent  Z8GX$SUBS_I* TSX0  ! X66_AUTO_2
         8 000257   000014 000002                    ZERO    12,2

      235     7388
      236     7389    2          DO CASE (EXPR$->ETT.ID) ;

   7389  8 000260   200003 470500                    LDP0    @EXPR$,,AUTO
         8 000261   000000 471500                    LDP1    0,,PR0
         8 000262   100000 220100                    LDX0    0,,PR1
         8 000263   000133 100003                    CMPX0   91,DU
         8 000264   000266 602010 8                  TNC     s:7389+6,X0
         8 000265   000543 710000 8                  TRA     s:7422
         8 000266   000543 710000 8                  TRA     s:7422
         8 000267   000516 710000 8                  TRA     s:7408
         8 000270   000543 710000 8                  TRA     s:7422
         8 000271   000543 710000 8                  TRA     s:7422
         8 000272   000543 710000 8                  TRA     s:7422
         8 000273   000543 710000 8                  TRA     s:7422
         8 000274   000543 710000 8                  TRA     s:7422
         8 000275   000543 710000 8                  TRA     s:7422
         8 000276   000543 710000 8                  TRA     s:7422
         8 000277   000543 710000 8                  TRA     s:7422
         8 000300   000543 710000 8                  TRA     s:7422
         8 000301   000543 710000 8                  TRA     s:7422
         8 000302   000543 710000 8                  TRA     s:7422
         8 000303   000540 710000 8                  TRA     s:7418
         8 000304   000543 710000 8                  TRA     s:7422
         8 000305   000543 710000 8                  TRA     s:7422
         8 000306   000543 710000 8                  TRA     s:7422
         8 000307   000543 710000 8                  TRA     s:7422
         8 000310   000543 710000 8                  TRA     s:7422
         8 000311   000543 710000 8                  TRA     s:7422
         8 000312   000543 710000 8                  TRA     s:7422
         8 000313   000543 710000 8                  TRA     s:7422
         8 000314   000543 710000 8                  TRA     s:7422
PL6.E3A0      #002=Z8GX$INIT_SUBS File=Z8GX.:Z8A6TSI                             SAT 08/09/97 13:16 Page:44
         8 000315   000543 710000 8                  TRA     s:7422
         8 000316   000543 710000 8                  TRA     s:7422
         8 000317   000543 710000 8                  TRA     s:7422
         8 000320   000543 710000 8                  TRA     s:7422
         8 000321   000543 710000 8                  TRA     s:7422
         8 000322   000543 710000 8                  TRA     s:7422
         8 000323   000543 710000 8                  TRA     s:7422
         8 000324   000543 710000 8                  TRA     s:7422
         8 000325   000464 710000 8                  TRA     s:7401
         8 000326   000543 710000 8                  TRA     s:7422
         8 000327   000543 710000 8                  TRA     s:7422
         8 000330   000543 710000 8                  TRA     s:7422
         8 000331   000543 710000 8                  TRA     s:7422
         8 000332   000543 710000 8                  TRA     s:7422
         8 000333   000543 710000 8                  TRA     s:7422
         8 000334   000543 710000 8                  TRA     s:7422
         8 000335   000543 710000 8                  TRA     s:7422
         8 000336   000543 710000 8                  TRA     s:7422
         8 000337   000543 710000 8                  TRA     s:7422
         8 000340   000464 710000 8                  TRA     s:7401
         8 000341   000543 710000 8                  TRA     s:7422
         8 000342   000421 710000 8                  TRA     s:7393
         8 000343   000543 710000 8                  TRA     s:7422
         8 000344   000543 710000 8                  TRA     s:7422
         8 000345   000543 710000 8                  TRA     s:7422
         8 000346   000421 710000 8                  TRA     s:7393
         8 000347   000543 710000 8                  TRA     s:7422
         8 000350   000543 710000 8                  TRA     s:7422
         8 000351   000543 710000 8                  TRA     s:7422
         8 000352   000543 710000 8                  TRA     s:7422
         8 000353   000543 710000 8                  TRA     s:7422
         8 000354   000543 710000 8                  TRA     s:7422
         8 000355   000543 710000 8                  TRA     s:7422
         8 000356   000543 710000 8                  TRA     s:7422
         8 000357   000543 710000 8                  TRA     s:7422
         8 000360   000543 710000 8                  TRA     s:7422
         8 000361   000543 710000 8                  TRA     s:7422
PL6.E3A0      #002=Z8GX$INIT_SUBS File=Z8GX.:Z8A6TSI                             SAT 08/09/97 13:16 Page:45
         8 000362   000543 710000 8                  TRA     s:7422
         8 000363   000543 710000 8                  TRA     s:7422
         8 000364   000543 710000 8                  TRA     s:7422
         8 000365   000543 710000 8                  TRA     s:7422
         8 000366   000543 710000 8                  TRA     s:7422
         8 000367   000543 710000 8                  TRA     s:7422
         8 000370   000543 710000 8                  TRA     s:7422
         8 000371   000543 710000 8                  TRA     s:7422
         8 000372   000543 710000 8                  TRA     s:7422
         8 000373   000543 710000 8                  TRA     s:7422
         8 000374   000543 710000 8                  TRA     s:7422
         8 000375   000543 710000 8                  TRA     s:7422
         8 000376   000543 710000 8                  TRA     s:7422
         8 000377   000543 710000 8                  TRA     s:7422
         8 000400   000543 710000 8                  TRA     s:7422
         8 000401   000543 710000 8                  TRA     s:7422
         8 000402   000543 710000 8                  TRA     s:7422
         8 000403   000543 710000 8                  TRA     s:7422
         8 000404   000543 710000 8                  TRA     s:7422
         8 000405   000543 710000 8                  TRA     s:7422
         8 000406   000543 710000 8                  TRA     s:7422
         8 000407   000543 710000 8                  TRA     s:7422
         8 000410   000543 710000 8                  TRA     s:7422
         8 000411   000543 710000 8                  TRA     s:7422
         8 000412   000543 710000 8                  TRA     s:7422
         8 000413   000543 710000 8                  TRA     s:7422
         8 000414   000543 710000 8                  TRA     s:7422
         8 000415   000543 710000 8                  TRA     s:7422
         8 000416   000543 710000 8                  TRA     s:7422
         8 000417   000543 710000 8                  TRA     s:7422
         8 000420   000464 710000 8                  TRA     s:7401

      237     7390
      238     7391    2            CASE (%ADI, %MPI) ;

      239     7392
      240     7393    2              CALL Z8GX$SUBS_INCR (EXPR$->ETT.LOP, LOP$) ;
PL6.E3A0      #002=Z8GX$INIT_SUBS File=Z8GX.:Z8A6TSI                             SAT 08/09/97 13:16 Page:46

   7393  8 000421   200005 633500                    EPPR3   LOP$,,AUTO
         8 000422   200011 453500                    STP3    FORME_ID+3,,AUTO
         8 000423   100001 634500                    EPPR4   1,,PR1
         8 000424   200010 454500                    STP4    FORME_ID+2,,AUTO
         8 000425   200010 630500                    EPPR0   FORME_ID+2,,AUTO
         8 000426   000000 631400 9                  EPPR1   0
         8 000427   000256 701000 8                  TSX1    s:7387
         8 000430   000000 011000                    NOP     0

      241     7394    2              CALL Z8GX$SUBS_INCR (EXPR$->ETT.ROP, RESULT$) ;

   7394  8 000431   200003 470500                    LDP0    @EXPR$,,AUTO
         8 000432   000000 471500                    LDP1    0,,PR0
         8 000433   200004 236100                    LDQ     @RESULT$,,AUTO
         8 000434   200011 756100                    STQ     FORME_ID+3,,AUTO
         8 000435   100002 633500                    EPPR3   2,,PR1
         8 000436   200010 453500                    STP3    FORME_ID+2,,AUTO
         8 000437   200010 630500                    EPPR0   FORME_ID+2,,AUTO
         8 000440   000000 631400 9                  EPPR1   0
         8 000441   000256 701000 8                  TSX1    s:7387
         8 000442   000000 011000                    NOP     0

      242     7395
      243     7396    2              FORME_ID = EXPR$->ETT.ID ;

   7396  8 000443   200003 470500                    LDP0    @EXPR$,,AUTO
         8 000444   000000 471500                    LDP1    0,,PR0
         8 000445   100000 236100                    LDQ     0,,PR1
         8 000446   000022 772000                    QRL     18
         8 000447   200006 756100                    STQ     FORME_ID,,AUTO

      244     7397    2              CALL Z8AF$FORME (FORME_ID, LOP$, RESULT$, RESULT$) ;

   7397  8 000450   200004 236100                    LDQ     @RESULT$,,AUTO
         8 000451   200004 235100                    LDA     @RESULT$,,AUTO
         8 000452   200012 757100                    STAQ    FORME_ID+4,,AUTO
PL6.E3A0      #002=Z8GX$INIT_SUBS File=Z8GX.:Z8A6TSI                             SAT 08/09/97 13:16 Page:47
         8 000453   200005 631500                    EPPR1   LOP$,,AUTO
         8 000454   200011 451500                    STP1    FORME_ID+3,,AUTO
         8 000455   200006 633500                    EPPR3   FORME_ID,,AUTO
         8 000456   200010 453500                    STP3    FORME_ID+2,,AUTO
         8 000457   200010 630500                    EPPR0   FORME_ID+2,,AUTO
         8 000460   000001 631400 9                  EPPR1   1
         8 000461   000000 701000 xent               TSX1    Z8AF$FORME
         8 000462   000000 011000                    NOP     0
         8 000463   000543 710000 8                  TRA     s:7422

      245     7398
      246     7399    2            CASE (%CVDI, %CVDSF, %MPI2) ;

      247     7400
      248     7401    2              CALL Z8GX$SUBS_INCR (EXPR$->ETT.LOP, RESULT$) ;

   7401  8 000464   200004 236100                    LDQ     @RESULT$,,AUTO
         8 000465   200011 756100                    STQ     FORME_ID+3,,AUTO
         8 000466   100001 633500                    EPPR3   1,,PR1
         8 000467   200010 453500                    STP3    FORME_ID+2,,AUTO
         8 000470   200010 630500                    EPPR0   FORME_ID+2,,AUTO
         8 000471   000000 631400 9                  EPPR1   0
         8 000472   000256 701000 8                  TSX1    s:7387
         8 000473   000000 011000                    NOP     0

      249     7402
      250     7403    2              FORME_ID = EXPR$->ETT.ID ;

   7403  8 000474   200003 470500                    LDP0    @EXPR$,,AUTO
         8 000475   000000 471500                    LDP1    0,,PR0
         8 000476   100000 236100                    LDQ     0,,PR1
         8 000477   000022 772000                    QRL     18
         8 000500   200006 756100                    STQ     FORME_ID,,AUTO

      251     7404    2              CALL Z8AF$FORME (FORME_ID, RESULT$, EXPR$->ETT.ROP, RESULT$) ;

   7404  8 000501   000000 471500                    LDP1    0,,PR0
PL6.E3A0      #002=Z8GX$INIT_SUBS File=Z8GX.:Z8A6TSI                             SAT 08/09/97 13:16 Page:48
         8 000502   200004 236100                    LDQ     @RESULT$,,AUTO
         8 000503   200013 756100                    STQ     FORME_ID+5,,AUTO
         8 000504   100002 633500                    EPPR3   2,,PR1
         8 000505   200012 453500                    STP3    FORME_ID+4,,AUTO
         8 000506   200011 756100                    STQ     FORME_ID+3,,AUTO
         8 000507   200006 631500                    EPPR1   FORME_ID,,AUTO
         8 000510   200010 451500                    STP1    FORME_ID+2,,AUTO
         8 000511   200010 630500                    EPPR0   FORME_ID+2,,AUTO
         8 000512   000001 631400 9                  EPPR1   1
         8 000513   000000 701000 xent               TSX1    Z8AF$FORME
         8 000514   000000 011000                    NOP     0
         8 000515   000543 710000 8                  TRA     s:7422

      252     7405
      253     7406    2            CASE (%BASE) ;

      254     7407
      255     7408    2              IF EXPR$ = O3COM.VARYING$

   7408  8 000516   000000 236100                    LDQ     0,,PR0
         8 000517   000055 116000 5                  CMPQ    O3COM+45
         8 000520   000525 601000 8                  TNZ     s:7411

      256     7409    2              THEN RESULT$ = O3COM.BY$ ;

   7409  8 000521   000057 236000 5                  LDQ     O3COM+47
         8 000522   200004 473500                    LDP3    @RESULT$,,AUTO
         8 000523   300000 756100                    STQ     0,,PR3
         8 000524   000543 710000 8                  TRA     s:7422

      257     7410    3              ELSE DO ;

      258     7411    3                IF EXPR$->ETT.LOP->VARIABLE.TYPE = %TYD

   7411  8 000525   100001 473500                    LDP3    1,,PR1
         8 000526   300002 221100                    LDX1    2,,PR3
         8 000527   000534 601000 8                  TNZ     s:7413
PL6.E3A0      #002=Z8GX$INIT_SUBS File=Z8GX.:Z8A6TSI                             SAT 08/09/97 13:16 Page:49

      259     7412    3                THEN RESULT$ = COMCOM.D_ZERO ;

   7412  8 000530   000123 236000 xsym               LDQ     COMCOM+83
         8 000531   200004 474500                    LDP4    @RESULT$,,AUTO
         8 000532   400000 756100                    STQ     0,,PR4
         8 000533   000543 710000 8                  TRA     s:7422

      260     7413    3                ELSE RESULT$ = COMCOM.VALUE_0 ;

   7413  8 000534   000124 236000 xsym               LDQ     COMCOM+84
         8 000535   200004 474500                    LDP4    @RESULT$,,AUTO
         8 000536   400000 756100                    STQ     0,,PR4

      261     7414    3              END ;

   7414  8 000537   000543 710000 8                  TRA     s:7422

      262     7415
      263     7416    2            CASE (%TRIAD) ;

      264     7417
      265     7418    2              RESULT$ = EXPR$ ;

   7418  8 000540   000000 236100                    LDQ     0,,PR0
         8 000541   200004 473500                    LDP3    @RESULT$,,AUTO
         8 000542   300000 756100                    STQ     0,,PR3

      266     7419
      267     7420    2          END /* Do Case of ID */ ;

      268     7421
      269     7422    1          RETURN ;

   7422  8 000543   000000 702200 xent               TSX2  ! X66_ARET
      270     7423
      271     7424    1   END Z8GX$INIT_SUBS ;
PL6.E3A0      #002=Z8GX$INIT_SUBS File=Z8GX.:Z8A6TSI                             SAT 08/09/97 13:16 Page:50

PL6.E3A0      #002=Z8GX$INIT_SUBS File=Z8GX.:Z8A6TSI                             SAT 08/09/97 13:16 Page:51
--  Include file information  --

   Z8A_TYPES.:Z8A6TOU  is referenced.
   Z8A_COMCOM.:Z8A6TOU  cannot be made into a system file and is referenced.
   Z8A_ST.:Z8A6TOU  cannot be made into a system file and is referenced.
   Z8G_O3COM.:Z8A6TOU  cannot be made into a system file and is referenced.
   Z8A_ETT.:Z8A6TOU  cannot be made into a system file and is referenced.
   X8A_COM_MACS.:X8A6TOU  is referenced.
   Z8A_NAMES.:Z8A6TOU  is referenced.
   Z8A_SUPP_MAC.:Z8A6TOU  is referenced.
   Z8A_DEFC.:Z8A6TOU  cannot be made into a system file and is referenced.
      No diagnostics issued in procedure Z8GX$INIT_SUBS.
PL6.E3A0      #002=Z8GX$INIT_SUBS File=Z8GX.:Z8A6TSI                             SAT 08/09/97 13:16 Page:52

 **** Variables and constants ****

  ****  Section 000 LblCom ITERATION

  ****  Scalars and arrays  ****
OctLoc.c.b A Datatyp(siz) R M Lvl/name                 OctLoc.c.b A Datatyp(siz) R M Lvl/name

     0-0-0/w SBIN              1 ITERATION

  ****  Section 001 LblCom ETT$

  ****  Scalars and arrays  ****
OctLoc.c.b A Datatyp(siz) R M Lvl/name                 OctLoc.c.b A Datatyp(siz) R M Lvl/name

     0-0-0/w PTR         r     1 ETT$

  ****  Section 002 LblCom HEAD_ETT$

  ****  Scalars and arrays  ****
OctLoc.c.b A Datatyp(siz) R M Lvl/name                 OctLoc.c.b A Datatyp(siz) R M Lvl/name

     0-0-0/w PTR               1 HEAD_ETT$

  ****  Section 003 LblCom ETT_BUCKETS

  ****  Scalars and arrays  ****
OctLoc.c.b A Datatyp(siz) R M Lvl/name                 OctLoc.c.b A Datatyp(siz) R M Lvl/name

     0-0-0/w PTR               1 ETT_BUCKETS(0:511)

  ****  Section 004 LblCom ETT_

  ****  Scalars and arrays  ****
OctLoc.c.b A Datatyp(siz) R M Lvl/name                 OctLoc.c.b A Datatyp(siz) R M Lvl/name

     0-0-0/w STRC(180)         1 ETT_

PL6.E3A0      #002=Z8GX$INIT_SUBS File=Z8GX.:Z8A6TSI                             SAT 08/09/97 13:16 Page:53
  ****  Section 005 LblCom O3COM

  ****  Scalars and arrays  ****
OctLoc.c.b A Datatyp(siz) R M Lvl/name                 OctLoc.c.b A Datatyp(siz) R M Lvl/name

     0-0-0/w STRC(2016)  r     1 O3COM

  ****  Section 006 LblCom ST$

  ****  Scalars and arrays  ****
OctLoc.c.b A Datatyp(siz) R M Lvl/name                 OctLoc.c.b A Datatyp(siz) R M Lvl/name

     0-0-0/w PTR         r     1 ST$

  ****  Section 007 LblCom ST_

  ****  Scalars and arrays  ****
OctLoc.c.b A Datatyp(siz) R M Lvl/name                 OctLoc.c.b A Datatyp(siz) R M Lvl/name

     0-0-0/w STRC(180)         1 ST_

  ****  Auto variables  ****

  ****  Scalars and arrays  ****
OctLoc.c.b A Datatyp(siz) R M Lvl/name                 OctLoc.c.b A Datatyp(siz) R M Lvl/name

     3-0-0/w PTR         r     1 @EXPR$                     4-0-0/w PTR         r     1 @RESULT$
    *0-0-0/w PTR         r     1 EXPR$                      6-0-0/w SBIN        r     1 FORME_ID
     5-0-0/w PTR         r     1 LOP$                      *0-0-0/w PTR         r     1 RESULT$

  ****  SYMREF variables  ****

  ****  Scalars and arrays  ****
OctLoc.c.b A Datatyp(siz) R M Lvl/name                 OctLoc.c.b A Datatyp(siz) R M Lvl/name

     0-0-0/d STRC(13248) r     1 COMCOM

PL6.E3A0      #002=Z8GX$INIT_SUBS File=Z8GX.:Z8A6TSI                             SAT 08/09/97 13:16 Page:54
  ****  BASED and DCB variables  ****

  ****  Scalars and arrays  ****
OctLoc.c.b A Datatyp(siz) R M Lvl/name                 OctLoc.c.b A Datatyp(siz) R M Lvl/name

     0-0-0/w STRC(396)         1 ALPHABET                   0-0-0/w STRC(396)         1 ARRAY
     0-0-0/w STRC(396)         1 BLOCK                      0-0-0/w STRC(396)         1 CD
     0-0-0/w CHAR(4096)        1 CHARS                      0-0-0/w STRC(396)         1 CLASS
     0-0-0/w STRC(396)         1 CONDITION                  0-0-0/w STRC(396)         1 CONST
     0-0-0/w STRC(72)          1 CONT                       0-0-0/w STRC(396)         1 DB
     0-0-0/w STRC(396)         1 DCB_                       0-0-0/w STRC(396)         1 DML_ITEM
     0-0-0/w STRC(180)   r     1 ETT                        0-0-0/w STRC(396)         1 FD
     0-0-0/w STRC(396)         1 INTDEF                     0-0-0/w STRC(396)         1 LABEL
     0-0-0/w STRC(396)         1 MNEMONIC                   0-0-0/w STRC(36864)       1 PAGE
     0-0-0/w STRC(396)         1 PARA                       0-0-0/w STRC(396)         1 PROC_
     0-0-0/w STRC(396)         1 PROC_DEF                   0-0-0/w STRC(396)         1 RD
     0-0-0/w STRC(396)         1 SCALAR                     0-0-0/w STRC(396)         1 SD
     0-0-0/w STRC(396)         1 SECTION                    0-0-0/w STRC(396)         1 SEGMENT
     0-0-0/w STRC(396)         1 ST                         0-0-0/w STRC(396)         1 SWITCH
     0-0-0/w STRC(396)         1 SYMBOLIC_CHAR              0-0-0/w STRC(396)         1 SYMDEF_
     0-0-0/w STRC(396)         1 SYMREF_                    0-0-0/w STRC(396)         1 TEMP
     0-0-0/w STRC(396)   r     1 VARIABLE


   Procedure Z8GX$INIT_SUBS requires 356 words for executable code.
   Procedure Z8GX$INIT_SUBS requires 12 words of local(AUTO) storage.

    No errors detected in file Z8GX.:Z8A6TSI    .
