PL6.E3A0      #001=Z8HC$SPECIAL_CASES File=Z8HC.:Z8A6TSI                         TUE 08/26/97 07:51 Page:571
     3065    26023    3                CALL ALPHANUMERIC_PRESET(BINBIT(CONSTANT$ -> VARIABLE.NDSC.N,36));

  26023 46 017037   000001 475400 25                 LDP5    CONSTANT$
        46 017040   500001 236100                    LDQ     1,,PR5
        46 017041   000077 376007                    ANQ     63,DL
        46 017042   200316 756100                    STQ     ORG1+13,,AUTO
        46 017043   200316 634500                    EPPR4   ORG1+13,,AUTO
        46 017044   200263 454500                    STP4    LOWER$+2,,AUTO
        46 017045   021310 701000 46                 TSX1    ALPHANUMERIC_PRESET
        46 017046   000000 011000                    NOP     0
        46 017047   020061 710000 46                 TRA     s:26297

     3066    26024
     3067    26025    3          CASE(%TYA, %TYN, %TYE);

     3068    26026    3            IF PILL -> PRESET.OFFSET = 0  THEN

  26026 46 017050   200003 473500                    LDP3    @PILL,,AUTO
        46 017051   300000 474500                    LDP4    0,,PR3
        46 017052   400000 722100                    LXL2    0,,PR4
        46 017053   017076 601000 46                 TNZ     s:26039

     3069    26027                     %GET_ADSC_LEN(ST$ = TARGET$, RTN = TARGET_LENGTH);

  26029 46 017054   100003 236100                    LDQ     3,,PR1
        46 017055   004000 316003                    CANQ    2048,DU
        46 017056   017072 600000 46                 TZE     s:26035

  26030 46 017057   100005 475500                    LDP5    5,,PR1
        46 017060   500000 223100                    LDX3    0,,PR5
        46 017061   001105 103003                    CMPX3   581,DU
        46 017062   017067 601000 46                 TNZ     s:26033

  26031 46 017063   500003 476500                    LDP6    3,,PR5
        46 017064   600001 235100                    LDA     1,,PR6
        46 017065   200140 755100                    STA     TARGET_LENGTH,,AUTO
        46 017066   017102 710000 46                 TRA     s:26040
PL6.E3A0      #001=Z8HC$SPECIAL_CASES File=Z8HC.:Z8A6TSI                         TUE 08/26/97 07:51 Page:572

  26033 46 017067   500001 235100                    LDA     1,,PR5
        46 017070   200140 755100                    STA     TARGET_LENGTH,,AUTO
        46 017071   017102 710000 46                 TRA     s:26040

  26035 46 017072   100001 236100                    LDQ     1,,PR1
        46 017073   007777 376007                    ANQ     4095,DL
        46 017074   200140 756100                    STQ     TARGET_LENGTH,,AUTO

  26036 46 017075   017102 710000 46                 TRA     s:26040

     3070    26038    3            ELSE
     3071    26039    3                TARGET_LENGTH = CONSTANT$ -> VARIABLE.ADSC.N;

  26039 46 017076   000001 475400 25                 LDP5    CONSTANT$
        46 017077   500001 236100                    LDQ     1,,PR5
        46 017100   007777 376007                    ANQ     4095,DL
        46 017101   200140 756100                    STQ     TARGET_LENGTH,,AUTO

     3072    26040    3            CALL ALPHANUMERIC_PRESET(TARGET_LENGTH);

  26040 46 017102   200140 634500                    EPPR4   TARGET_LENGTH,,AUTO
        46 017103   200263 454500                    STP4    LOWER$+2,,AUTO
        46 017104   021310 701000 46                 TSX1    ALPHANUMERIC_PRESET
        46 017105   000000 011000                    NOP     0
        46 017106   020061 710000 46                 TRA     s:26297

     3073    26041
     3074    26042    3          CASE(%TYD);

     3075    26043    3            IF NOT TARGET$ -> VARIABLE.B.SUB_CLASS.EDITED THEN

  26043 46 017107   100003 236100                    LDQ     3,,PR1
        46 017110   000004 316007                    CANQ    4,DL
        46 017111   017351 601000 46                 TNZ     s:26083

     3076    26044    4              DO;
PL6.E3A0      #001=Z8HC$SPECIAL_CASES File=Z8HC.:Z8A6TSI                         TUE 08/26/97 07:51 Page:573

     3077    26045    5                DO I=1 TO 63;

  26045 46 017112   000001 235007                    LDA     1,DL
        46 017113   200065 755100                    STA     I,,AUTO

     3078    26046    5                  MVN_BUFFER(I) = 0;

  26046 46 017114   200065 720100                    LXL0    I,,AUTO
        46 017115   200142 450110                    STZ     MVN_BUFFER,X0,AUTO

     3079    26047    5                END;

  26047 46 017116   200065 054100                    AOS     I,,AUTO
        46 017117   200065 235100                    LDA     I,,AUTO
        46 017120   000077 115007                    CMPA    63,DL
        46 017121   017114 604400 46                 TMOZ    s:26046

     3080    26048    4                MVN_BUFFER(0) = BUFFER;

  26048 46 017122   000004 236000 25                 LDQ     BUFFER
        46 017123   200142 756100                    STQ     MVN_BUFFER,,AUTO

     3081    26049
     3082    26050    4                IF PILL -> PRESET.OFFSET = 0  THEN

  26050 46 017124   200003 470500                    LDP0    @PILL,,AUTO
        46 017125   000000 471500                    LDP1    0,,PR0
        46 017126   100000 720100                    LXL0    0,,PR1
        46 017127   017227 601000 46                 TNZ     s:26064

     3083    26051    5                  DO;

     3084    26052    5                    IF TARGET$ -> VARIABLE.B.P     THEN

  26052 46 017130   200134 473500                    LDP3    TARGET$,,AUTO
        46 017131   300003 236100                    LDQ     3,,PR3
PL6.E3A0      #001=Z8HC$SPECIAL_CASES File=Z8HC.:Z8A6TSI                         TUE 08/26/97 07:51 Page:574
        46 017132   000020 316003                    CANQ    16,DU
        46 017133   017155 600000 46                 TZE     s:26055

     3085    26053    5                     CALL Z9AU$MOVE_C3_NUMERIC(CONSTANT$->CONST.NDSC,TARGET$->VARIABLE
             26053                               .NDSC,STRING$,ADDR(MVN_BUFFER));

  26053 46 017134   200142 634500                    EPPR4   MVN_BUFFER,,AUTO
        46 017135   200302 454500                    STP4    ORG1+1,,AUTO
        46 017136   200302 631500                    EPPR1   ORG1+1,,AUTO
        46 017137   200307 451500                    STP1    ORG1+6,,AUTO
        46 017140   200133 635500                    EPPR5   STRING$,,AUTO
        46 017141   200306 455500                    STP5    ORG1+5,,AUTO
        46 017142   200134 236100                    LDQ     TARGET$,,AUTO
        46 017143   000107 036000 47                 ADLQ    71
        46 017144   200305 756100                    STQ     ORG1+4,,AUTO
        46 017145   000001 236000 25                 LDQ     CONSTANT$
        46 017146   000107 036000 47                 ADLQ    71
        46 017147   200304 756100                    STQ     ORG1+3,,AUTO
        46 017150   200304 630500                    EPPR0   ORG1+3,,AUTO
        46 017151   000025 631400 47                 EPPR1   21
        46 017152   000000 701000 xent               TSX1    Z9AU$MOVE_C3_NUMERIC
        46 017153   000000 011000                    NOP     0
        46 017154   017175 710000 46                 TRA     s:26057

     3086    26054    5                    ELSE
     3087    26055    5                      CALL Z9AU$MOVE_NUMERIC(CONSTANT$ -> CONST.NDSC,TARGET$ ->
             26055                               VARIABLE.NDSC,STRING$,ADDR(MVN_BUFFER));

  26055 46 017155   200142 634500                    EPPR4   MVN_BUFFER,,AUTO
        46 017156   200302 454500                    STP4    ORG1+1,,AUTO
        46 017157   200302 631500                    EPPR1   ORG1+1,,AUTO
        46 017160   200307 451500                    STP1    ORG1+6,,AUTO
        46 017161   200133 635500                    EPPR5   STRING$,,AUTO
        46 017162   200306 455500                    STP5    ORG1+5,,AUTO
        46 017163   200134 236100                    LDQ     TARGET$,,AUTO
        46 017164   000107 036000 47                 ADLQ    71
        46 017165   200305 756100                    STQ     ORG1+4,,AUTO
PL6.E3A0      #001=Z8HC$SPECIAL_CASES File=Z8HC.:Z8A6TSI                         TUE 08/26/97 07:51 Page:575
        46 017166   000001 236000 25                 LDQ     CONSTANT$
        46 017167   000107 036000 47                 ADLQ    71
        46 017170   200304 756100                    STQ     ORG1+3,,AUTO
        46 017171   200304 630500                    EPPR0   ORG1+3,,AUTO
        46 017172   000025 631400 47                 EPPR1   21
        46 017173   000000 701000 xent               TSX1    Z9AU$MOVE_NUMERIC
        46 017174   000000 011000                    NOP     0

     3088    26056
     3089    26057    5                    IF TARGET$ -> VARIABLE.NDSC.TN = %NDSC4 THEN

  26057 46 017175   200134 470500                    LDP0    TARGET$,,AUTO
        46 017176   000001 236100                    LDQ     1,,PR0
        46 017177   040000 316007                    CANQ    16384,DL
        46 017200   017215 600000 46                 TZE     s:26060

     3090    26058    5                      BITS_IN_BUFFER = ((TARGET$ -> VARIABLE.NDSC.N + TARGET$ ->
             26058                               VARIABLE.NDSC.CN) * 9 + 1) / 2;

  26058 46 017201   000001 236100                    LDQ     1,,PR0
        46 017202   000017 772000                    QRL     15
        46 017203   000007 376007                    ANQ     7,DL
        46 017204   200302 756100                    STQ     ORG1+1,,AUTO
        46 017205   000001 236100                    LDQ     1,,PR0
        46 017206   000077 376007                    ANQ     63,DL
        46 017207   200302 036100                    ADLQ    ORG1+1,,AUTO
        46 017210   000011 402007                    MPY     9,DL
        46 017211   000001 036007                    ADLQ    1,DL
        46 017212   000001 772000                    QRL     1
        46 017213   000003 756000 25                 STQ     BITS_IN_BUFFER
        46 017214   017321 710000 46                 TRA     s:26074

     3091    26059    5                    ELSE
     3092    26060    5                      BITS_IN_BUFFER = ((TARGET$ -> VARIABLE.NDSC.N + TARGET$ ->
             26060                               VARIABLE.ADSC.CN) * 9);

  26060 46 017215   000001 236100                    LDQ     1,,PR0
PL6.E3A0      #001=Z8HC$SPECIAL_CASES File=Z8HC.:Z8A6TSI                         TUE 08/26/97 07:51 Page:576
        46 017216   000020 772000                    QRL     16
        46 017217   000003 376007                    ANQ     3,DL
        46 017220   200302 756100                    STQ     ORG1+1,,AUTO
        46 017221   000001 236100                    LDQ     1,,PR0
        46 017222   000077 376007                    ANQ     63,DL
        46 017223   200302 036100                    ADLQ    ORG1+1,,AUTO
        46 017224   000011 402007                    MPY     9,DL
        46 017225   000003 756000 25                 STQ     BITS_IN_BUFFER

     3093    26061    5                  END;

  26061 46 017226   017321 710000 46                 TRA     s:26074

     3094    26062    4                ELSE
     3095    26063    5                  DO;

     3096    26064    5                    IF TARGET$ -> VARIABLE.B.P    THEN

  26064 46 017227   200134 473500                    LDP3    TARGET$,,AUTO
        46 017230   300003 236100                    LDQ     3,,PR3
        46 017231   000020 316003                    CANQ    16,DU
        46 017232   017252 600000 46                 TZE     s:26067

     3097    26065    5                      CALL Z9AU$MOVE_C3_NUMERIC(CONSTANT$ -> CONST.NDSC,CONSTANT$ ->
             26065                               VARIABLE.NDSC,STRING$,ADDR(MVN_BUFFER));

  26065 46 017233   200142 634500                    EPPR4   MVN_BUFFER,,AUTO
        46 017234   200302 454500                    STP4    ORG1+1,,AUTO
        46 017235   200302 631500                    EPPR1   ORG1+1,,AUTO
        46 017236   200307 451500                    STP1    ORG1+6,,AUTO
        46 017237   200133 635500                    EPPR5   STRING$,,AUTO
        46 017240   200306 455500                    STP5    ORG1+5,,AUTO
        46 017241   000001 236000 25                 LDQ     CONSTANT$
        46 017242   000107 036000 47                 ADLQ    71
        46 017243   200305 756100                    STQ     ORG1+4,,AUTO
        46 017244   200304 756100                    STQ     ORG1+3,,AUTO
        46 017245   200304 630500                    EPPR0   ORG1+3,,AUTO
PL6.E3A0      #001=Z8HC$SPECIAL_CASES File=Z8HC.:Z8A6TSI                         TUE 08/26/97 07:51 Page:577
        46 017246   000025 631400 47                 EPPR1   21
        46 017247   000000 701000 xent               TSX1    Z9AU$MOVE_C3_NUMERIC
        46 017250   000000 011000                    NOP     0
        46 017251   017270 710000 46                 TRA     s:26068

     3098    26066    5                    ELSE
     3099    26067    5                      CALL Z9AU$MOVE_NUMERIC(CONSTANT$ -> CONST.NDSC,CONSTANT$ ->
             26067                               VARIABLE.NDSC,STRING$,ADDR(MVN_BUFFER));

  26067 46 017252   200142 634500                    EPPR4   MVN_BUFFER,,AUTO
        46 017253   200302 454500                    STP4    ORG1+1,,AUTO
        46 017254   200302 631500                    EPPR1   ORG1+1,,AUTO
        46 017255   200307 451500                    STP1    ORG1+6,,AUTO
        46 017256   200133 635500                    EPPR5   STRING$,,AUTO
        46 017257   200306 455500                    STP5    ORG1+5,,AUTO
        46 017260   000001 236000 25                 LDQ     CONSTANT$
        46 017261   000107 036000 47                 ADLQ    71
        46 017262   200305 756100                    STQ     ORG1+4,,AUTO
        46 017263   200304 756100                    STQ     ORG1+3,,AUTO
        46 017264   200304 630500                    EPPR0   ORG1+3,,AUTO
        46 017265   000025 631400 47                 EPPR1   21
        46 017266   000000 701000 xent               TSX1    Z9AU$MOVE_NUMERIC
        46 017267   000000 011000                    NOP     0

     3100    26068    5                    IF CONSTANT$ -> VARIABLE.NDSC.TN = %NDSC4 THEN

  26068 46 017270   000001 470400 25                 LDP0    CONSTANT$
        46 017271   000001 236100                    LDQ     1,,PR0
        46 017272   040000 316007                    CANQ    16384,DL
        46 017273   017310 600000 46                 TZE     s:26071

     3101    26069    5                      BITS_IN_BUFFER = ((CONSTANT$ -> VARIABLE.NDSC.N + CONSTANT$ ->
             26069                               VARIABLE.NDSC.CN) * 9 + 1) / 2;

  26069 46 017274   000001 236100                    LDQ     1,,PR0
        46 017275   000017 772000                    QRL     15
        46 017276   000007 376007                    ANQ     7,DL
PL6.E3A0      #001=Z8HC$SPECIAL_CASES File=Z8HC.:Z8A6TSI                         TUE 08/26/97 07:51 Page:578
        46 017277   200302 756100                    STQ     ORG1+1,,AUTO
        46 017300   000001 236100                    LDQ     1,,PR0
        46 017301   000077 376007                    ANQ     63,DL
        46 017302   200302 036100                    ADLQ    ORG1+1,,AUTO
        46 017303   000011 402007                    MPY     9,DL
        46 017304   000001 036007                    ADLQ    1,DL
        46 017305   000001 772000                    QRL     1
        46 017306   000003 756000 25                 STQ     BITS_IN_BUFFER
        46 017307   017321 710000 46                 TRA     s:26074

     3102    26070    5                    ELSE
     3103    26071    5                      BITS_IN_BUFFER = ((CONSTANT$ -> VARIABLE.NDSC.N + CONSTANT$ ->
             26071                               VARIABLE.ADSC.CN) * 9);

  26071 46 017310   000001 236100                    LDQ     1,,PR0
        46 017311   000020 772000                    QRL     16
        46 017312   000003 376007                    ANQ     3,DL
        46 017313   200302 756100                    STQ     ORG1+1,,AUTO
        46 017314   000001 236100                    LDQ     1,,PR0
        46 017315   000077 376007                    ANQ     63,DL
        46 017316   200302 036100                    ADLQ    ORG1+1,,AUTO
        46 017317   000011 402007                    MPY     9,DL
        46 017320   000003 756000 25                 STQ     BITS_IN_BUFFER

     3104    26072    5                  END;

     3105    26073
     3106    26074    4                LENGTH_IN_WORDS = BITS_IN_BUFFER / 36;

  26074 46 017321   000044 506007                    DIV     36,DL
        46 017322   200132 756100                    STQ     LENGTH_IN_WORDS,,AUTO

     3107    26075
     3108    26076    4                CALL FLUSH(CONSTANT$,ADDR(MVN_BUFFER),CURRENT_SA,LENGTH_IN_WORDS);

  26076 46 017323   200142 630500                    EPPR0   MVN_BUFFER,,AUTO
        46 017324   200320 450500                    STP0    ORG1+15,,AUTO
PL6.E3A0      #001=Z8HC$SPECIAL_CASES File=Z8HC.:Z8A6TSI                         TUE 08/26/97 07:51 Page:579
        46 017325   200132 631500                    EPPR1   LENGTH_IN_WORDS,,AUTO
        46 017326   200272 451500                    STP1    @OPND$+1,,AUTO
        46 017327   200242 633500                    EPPR3   CURRENT_SA,,AUTO
        46 017330   200271 453500                    STP3    @STRING$+1,,AUTO
        46 017331   200320 634500                    EPPR4   ORG1+15,,AUTO
        46 017332   200270 454500                    STP4    N_OPNDS+1,,AUTO
        46 017333   000106 236000 47                 LDQ     70
        46 017334   200267 756100                    STQ     P$+1,,AUTO
        46 017335   021724 701000 46                 TSX1    FLUSH
        46 017336   000000 011000                    NOP     0

     3109    26077
     3110    26078    4                BUFFER = MVN_BUFFER(LENGTH_IN_WORDS);

  26078 46 017337   200132 720100                    LXL0    LENGTH_IN_WORDS,,AUTO
        46 017340   200142 235110                    LDA     MVN_BUFFER,X0,AUTO
        46 017341   000004 755000 25                 STA     BUFFER

     3111    26079    4                OLD_SA = CURRENT_SA + (LENGTH_IN_WORDS);

  26079 46 017342   200242 236100                    LDQ     CURRENT_SA,,AUTO
        46 017343   200132 036100                    ADLQ    LENGTH_IN_WORDS,,AUTO
        46 017344   000006 756000 25                 STQ     OLD_SA

     3112    26080    4                BITS_IN_BUFFER = MOD(BITS_IN_BUFFER, 36);

  26080 46 017345   000003 236000 25                 LDQ     BITS_IN_BUFFER
        46 017346   000044 506007                    DIV     36,DL
        46 017347   000003 755000 25                 STA     BITS_IN_BUFFER

     3113    26081    4              END;

  26081 46 017350   020061 710000 46                 TRA     s:26297

     3114    26082    3            ELSE
     3115    26083    3              IF PILL -> PRESET.OFFSET = 0  THEN

PL6.E3A0      #001=Z8HC$SPECIAL_CASES File=Z8HC.:Z8A6TSI                         TUE 08/26/97 07:51 Page:580
  26083 46 017351   200003 473500                    LDP3    @PILL,,AUTO
        46 017352   300000 474500                    LDP4    0,,PR3
        46 017353   400000 722100                    LXL2    0,,PR4
        46 017354   017365 601000 46                 TNZ     s:26086

     3116    26084    3                  CALL ALPHANUMERIC_PRESET(BINBIT(TARGET$ -> VARIABLE.NDSC.N, 36));

  26084 46 017355   100001 236100                    LDQ     1,,PR1
        46 017356   000077 376007                    ANQ     63,DL
        46 017357   200322 756100                    STQ     ORG1+17,,AUTO
        46 017360   200322 634500                    EPPR4   ORG1+17,,AUTO
        46 017361   200263 454500                    STP4    LOWER$+2,,AUTO
        46 017362   021310 701000 46                 TSX1    ALPHANUMERIC_PRESET
        46 017363   000000 011000                    NOP     0
        46 017364   020061 710000 46                 TRA     s:26297

     3117    26085    3               ELSE
     3118    26086    3                  CALL ALPHANUMERIC_PRESET(BINBIT(CONSTANT$ -> VARIABLE.NDSC.N, 36));

  26086 46 017365   000001 475400 25                 LDP5    CONSTANT$
        46 017366   500001 236100                    LDQ     1,,PR5
        46 017367   000077 376007                    ANQ     63,DL
        46 017370   200324 756100                    STQ     ORG1+19,,AUTO
        46 017371   200324 634500                    EPPR4   ORG1+19,,AUTO
        46 017372   200263 454500                    STP4    LOWER$+2,,AUTO
        46 017373   021310 701000 46                 TSX1    ALPHANUMERIC_PRESET
        46 017374   000000 011000                    NOP     0
        46 017375   020061 710000 46                 TRA     s:26297

     3119    26087
     3120    26088    3          CASE(%TYF); /* Preset EBCDIC numeric */

     3121    26089    4            DO I = 1 TO 63;

  26089 46 017376   000001 235007                    LDA     1,DL
        46 017377   200065 755100                    STA     I,,AUTO

PL6.E3A0      #001=Z8HC$SPECIAL_CASES File=Z8HC.:Z8A6TSI                         TUE 08/26/97 07:51 Page:581
     3122    26090    4              MVN_BUFFER(I) = 0;

  26090 46 017400   200065 720100                    LXL0    I,,AUTO
        46 017401   200142 450110                    STZ     MVN_BUFFER,X0,AUTO

     3123    26091    4            END;

  26091 46 017402   200065 054100                    AOS     I,,AUTO
        46 017403   200065 235100                    LDA     I,,AUTO
        46 017404   000077 115007                    CMPA    63,DL
        46 017405   017400 604400 46                 TMOZ    s:26090

     3124    26092    3            MVN_BUFFER(0) = BUFFER;

  26092 46 017406   000004 236000 25                 LDQ     BUFFER
        46 017407   200142 756100                    STQ     MVN_BUFFER,,AUTO

     3125    26093
     3126    26094    3            IF PILL -> PRESET.OFFSET = 0 THEN

  26094 46 017410   200003 470500                    LDP0    @PILL,,AUTO
        46 017411   000000 471500                    LDP1    0,,PR0
        46 017412   100000 720100                    LXL0    0,,PR1
        46 017413   017447 601000 46                 TNZ     s:26101

     3127    26095    4              DO;

     3128    26096    4               CALL Z9AU$MOVE_EBCDIC(CONSTANT$ -> CONST.NDSC, TARGET$ -> VARIABLE.NDSC
             26096                         ,STRING$,ADDR(MVN_BUFFER));

  26096 46 017414   200142 633500                    EPPR3   MVN_BUFFER,,AUTO
        46 017415   200302 453500                    STP3    ORG1+1,,AUTO
        46 017416   200302 631500                    EPPR1   ORG1+1,,AUTO
        46 017417   200307 451500                    STP1    ORG1+6,,AUTO
        46 017420   200133 634500                    EPPR4   STRING$,,AUTO
        46 017421   200306 454500                    STP4    ORG1+5,,AUTO
        46 017422   200134 236100                    LDQ     TARGET$,,AUTO
PL6.E3A0      #001=Z8HC$SPECIAL_CASES File=Z8HC.:Z8A6TSI                         TUE 08/26/97 07:51 Page:582
        46 017423   000107 036000 47                 ADLQ    71
        46 017424   200305 756100                    STQ     ORG1+4,,AUTO
        46 017425   000001 236000 25                 LDQ     CONSTANT$
        46 017426   000107 036000 47                 ADLQ    71
        46 017427   200304 756100                    STQ     ORG1+3,,AUTO
        46 017430   200304 630500                    EPPR0   ORG1+3,,AUTO
        46 017431   000025 631400 47                 EPPR1   21
        46 017432   000000 701000 xent               TSX1    Z9AU$MOVE_EBCDIC
        46 017433   000000 011000                    NOP     0

     3129    26097    4                BITS_IN_BUFFER = ((TARGET$ -> VARIABLE.NDSC.N + TARGET$ -> VARIABLE.
             26097                         ADSC.CN) * 9);

  26097 46 017434   200134 470500                    LDP0    TARGET$,,AUTO
        46 017435   000001 236100                    LDQ     1,,PR0
        46 017436   000020 772000                    QRL     16
        46 017437   000003 376007                    ANQ     3,DL
        46 017440   200302 756100                    STQ     ORG1+1,,AUTO
        46 017441   000001 236100                    LDQ     1,,PR0
        46 017442   000077 376007                    ANQ     63,DL
        46 017443   200302 036100                    ADLQ    ORG1+1,,AUTO
        46 017444   000011 402007                    MPY     9,DL
        46 017445   000003 756000 25                 STQ     BITS_IN_BUFFER

     3130    26098    4              END;

  26098 46 017446   017477 710000 46                 TRA     s:26105

     3131    26099    3            ELSE
     3132    26100    4              DO;

     3133    26101    4                CALL Z9AU$MOVE_EBCDIC(CONSTANT$ -> CONST.NDSC,CONSTANT$ -> VARIABLE.
             26101                         NDSC,STRING$,ADDR(MVN_BUFFER));

  26101 46 017447   200142 633500                    EPPR3   MVN_BUFFER,,AUTO
        46 017450   200302 453500                    STP3    ORG1+1,,AUTO
        46 017451   200302 631500                    EPPR1   ORG1+1,,AUTO
PL6.E3A0      #001=Z8HC$SPECIAL_CASES File=Z8HC.:Z8A6TSI                         TUE 08/26/97 07:51 Page:583
        46 017452   200307 451500                    STP1    ORG1+6,,AUTO
        46 017453   200133 634500                    EPPR4   STRING$,,AUTO
        46 017454   200306 454500                    STP4    ORG1+5,,AUTO
        46 017455   000001 236000 25                 LDQ     CONSTANT$
        46 017456   000107 036000 47                 ADLQ    71
        46 017457   200305 756100                    STQ     ORG1+4,,AUTO
        46 017460   200304 756100                    STQ     ORG1+3,,AUTO
        46 017461   200304 630500                    EPPR0   ORG1+3,,AUTO
        46 017462   000025 631400 47                 EPPR1   21
        46 017463   000000 701000 xent               TSX1    Z9AU$MOVE_EBCDIC
        46 017464   000000 011000                    NOP     0

     3134    26102    4               BITS_IN_BUFFER = ((CONSTANT$ -> VARIABLE.NDSC.N + CONSTANT$ -> VARIABLE
             26102                         .ADSC.CN) * 9);

  26102 46 017465   000001 470400 25                 LDP0    CONSTANT$
        46 017466   000001 236100                    LDQ     1,,PR0
        46 017467   000020 772000                    QRL     16
        46 017470   000003 376007                    ANQ     3,DL
        46 017471   200302 756100                    STQ     ORG1+1,,AUTO
        46 017472   000001 236100                    LDQ     1,,PR0
        46 017473   000077 376007                    ANQ     63,DL
        46 017474   200302 036100                    ADLQ    ORG1+1,,AUTO
        46 017475   000011 402007                    MPY     9,DL
        46 017476   000003 756000 25                 STQ     BITS_IN_BUFFER

     3135    26103    4              END;

     3136    26104
     3137    26105    3            LENGTH_IN_WORDS = BITS_IN_BUFFER / 36;

  26105 46 017477   000044 506007                    DIV     36,DL
        46 017500   200132 756100                    STQ     LENGTH_IN_WORDS,,AUTO

     3138    26106
     3139    26107    3            CALL FLUSH(CONSTANT$,ADDR(MVN_BUFFER),CURRENT_SA,LENGTH_IN_WORDS);

PL6.E3A0      #001=Z8HC$SPECIAL_CASES File=Z8HC.:Z8A6TSI                         TUE 08/26/97 07:51 Page:584
  26107 46 017501   200142 630500                    EPPR0   MVN_BUFFER,,AUTO
        46 017502   200326 450500                    STP0    ORG1+21,,AUTO
        46 017503   200132 631500                    EPPR1   LENGTH_IN_WORDS,,AUTO
        46 017504   200272 451500                    STP1    @OPND$+1,,AUTO
        46 017505   200242 633500                    EPPR3   CURRENT_SA,,AUTO
        46 017506   200271 453500                    STP3    @STRING$+1,,AUTO
        46 017507   200326 634500                    EPPR4   ORG1+21,,AUTO
        46 017510   200270 454500                    STP4    N_OPNDS+1,,AUTO
        46 017511   000106 236000 47                 LDQ     70
        46 017512   200267 756100                    STQ     P$+1,,AUTO
        46 017513   021724 701000 46                 TSX1    FLUSH
        46 017514   000000 011000                    NOP     0

     3140    26108
     3141    26109    3            BUFFER = MVN_BUFFER(LENGTH_IN_WORDS);

  26109 46 017515   200132 720100                    LXL0    LENGTH_IN_WORDS,,AUTO
        46 017516   200142 235110                    LDA     MVN_BUFFER,X0,AUTO
        46 017517   000004 755000 25                 STA     BUFFER

     3142    26110    3            OLD_SA = CURRENT_SA + (LENGTH_IN_WORDS);

  26110 46 017520   200242 236100                    LDQ     CURRENT_SA,,AUTO
        46 017521   200132 036100                    ADLQ    LENGTH_IN_WORDS,,AUTO
        46 017522   000006 756000 25                 STQ     OLD_SA

     3143    26111    3            BITS_IN_BUFFER = MOD(BITS_IN_BUFFER, 36);

  26111 46 017523   000003 236000 25                 LDQ     BITS_IN_BUFFER
        46 017524   000044 506007                    DIV     36,DL
        46 017525   000003 755000 25                 STA     BITS_IN_BUFFER
        46 017526   020061 710000 46                 TRA     s:26297

     3144    26112
     3145    26113    3          CASE(%TYC); /* Preset GBCD numeric */

     3146    26114    4            DO I = 1 TO 63;
PL6.E3A0      #001=Z8HC$SPECIAL_CASES File=Z8HC.:Z8A6TSI                         TUE 08/26/97 07:51 Page:585

  26114 46 017527   000001 235007                    LDA     1,DL
        46 017530   200065 755100                    STA     I,,AUTO

     3147    26115    4              MVN_BUFFER(I) = 0;

  26115 46 017531   200065 720100                    LXL0    I,,AUTO
        46 017532   200142 450110                    STZ     MVN_BUFFER,X0,AUTO

     3148    26116    4            END;

  26116 46 017533   200065 054100                    AOS     I,,AUTO
        46 017534   200065 235100                    LDA     I,,AUTO
        46 017535   000077 115007                    CMPA    63,DL
        46 017536   017531 604400 46                 TMOZ    s:26115

     3149    26117    3            MVN_BUFFER(0) = BUFFER;

  26117 46 017537   000004 236000 25                 LDQ     BUFFER
        46 017540   200142 756100                    STQ     MVN_BUFFER,,AUTO

     3150    26118
     3151    26119    3            CALL Z9AU$MOVE_GBCD(CONSTANT$ -> CONST.NDSC,TARGET$ -> VARIABLE.NDSC,
             26119                     STRING$,ADDR(MVN_BUFFER));

  26119 46 017541   200142 630500                    EPPR0   MVN_BUFFER,,AUTO
        46 017542   200302 450500                    STP0    ORG1+1,,AUTO
        46 017543   200302 631500                    EPPR1   ORG1+1,,AUTO
        46 017544   200307 451500                    STP1    ORG1+6,,AUTO
        46 017545   200133 633500                    EPPR3   STRING$,,AUTO
        46 017546   200306 453500                    STP3    ORG1+5,,AUTO
        46 017547   200134 236100                    LDQ     TARGET$,,AUTO
        46 017550   000107 036000 47                 ADLQ    71
        46 017551   200305 756100                    STQ     ORG1+4,,AUTO
        46 017552   000001 236000 25                 LDQ     CONSTANT$
        46 017553   000107 036000 47                 ADLQ    71
        46 017554   200304 756100                    STQ     ORG1+3,,AUTO
PL6.E3A0      #001=Z8HC$SPECIAL_CASES File=Z8HC.:Z8A6TSI                         TUE 08/26/97 07:51 Page:586
        46 017555   200304 630500                    EPPR0   ORG1+3,,AUTO
        46 017556   000025 631400 47                 EPPR1   21
        46 017557   000000 701000 xent               TSX1    Z9AU$MOVE_GBCD
        46 017560   000000 011000                    NOP     0

     3152    26120
     3153    26121    3           BITS_IN_BUFFER = ((TARGET$ -> VARIABLE.NDSC.N + TARGET$ -> VARIABLE.NDSC.CN
             26121                     ) * 6);

  26121 46 017561   200134 470500                    LDP0    TARGET$,,AUTO
        46 017562   000001 236100                    LDQ     1,,PR0
        46 017563   000017 772000                    QRL     15
        46 017564   000007 376007                    ANQ     7,DL
        46 017565   200302 756100                    STQ     ORG1+1,,AUTO
        46 017566   000001 236100                    LDQ     1,,PR0
        46 017567   000077 376007                    ANQ     63,DL
        46 017570   200302 036100                    ADLQ    ORG1+1,,AUTO
        46 017571   000006 402007                    MPY     6,DL
        46 017572   000003 756000 25                 STQ     BITS_IN_BUFFER

     3154    26122
     3155    26123    3            LENGTH_IN_WORDS = BITS_IN_BUFFER / 36;

  26123 46 017573   000044 506007                    DIV     36,DL
        46 017574   200132 756100                    STQ     LENGTH_IN_WORDS,,AUTO

     3156    26124
     3157    26125    3            CALL FLUSH(CONSTANT$,ADDR(MVN_BUFFER),CURRENT_SA,LENGTH_IN_WORDS);

  26125 46 017575   200142 631500                    EPPR1   MVN_BUFFER,,AUTO
        46 017576   200327 451500                    STP1    ORG1+22,,AUTO
        46 017577   200132 633500                    EPPR3   LENGTH_IN_WORDS,,AUTO
        46 017600   200272 453500                    STP3    @OPND$+1,,AUTO
        46 017601   200242 634500                    EPPR4   CURRENT_SA,,AUTO
        46 017602   200271 454500                    STP4    @STRING$+1,,AUTO
        46 017603   200327 635500                    EPPR5   ORG1+22,,AUTO
        46 017604   200270 455500                    STP5    N_OPNDS+1,,AUTO
PL6.E3A0      #001=Z8HC$SPECIAL_CASES File=Z8HC.:Z8A6TSI                         TUE 08/26/97 07:51 Page:587
        46 017605   000106 236000 47                 LDQ     70
        46 017606   200267 756100                    STQ     P$+1,,AUTO
        46 017607   021724 701000 46                 TSX1    FLUSH
        46 017610   000000 011000                    NOP     0

     3158    26126
     3159    26127    3            BUFFER = MVN_BUFFER(LENGTH_IN_WORDS);

  26127 46 017611   200132 720100                    LXL0    LENGTH_IN_WORDS,,AUTO
        46 017612   200142 235110                    LDA     MVN_BUFFER,X0,AUTO
        46 017613   000004 755000 25                 STA     BUFFER

     3160    26128    3            OLD_SA = CURRENT_SA + (LENGTH_IN_WORDS);

  26128 46 017614   200242 236100                    LDQ     CURRENT_SA,,AUTO
        46 017615   200132 036100                    ADLQ    LENGTH_IN_WORDS,,AUTO
        46 017616   000006 756000 25                 STQ     OLD_SA

     3161    26129    3            BITS_IN_BUFFER = MOD(BITS_IN_BUFFER, 36);

  26129 46 017617   000003 236000 25                 LDQ     BITS_IN_BUFFER
        46 017620   000044 506007                    DIV     36,DL
        46 017621   000003 755000 25                 STA     BITS_IN_BUFFER
        46 017622   020061 710000 46                 TRA     s:26297

     3162    26130
     3163    26131    3          CASE(%TYB); /* Preset GBCD */

     3164    26132    3            IF PILL -> PRESET.OFFSET = 0 THEN

  26132 46 017623   200003 473500                    LDP3    @PILL,,AUTO
        46 017624   300000 474500                    LDP4    0,,PR3
        46 017625   400000 722100                    LXL2    0,,PR4
        46 017626   017651 601000 46                 TNZ     s:26145

     3165    26133                   %GET_ADSC_LEN(ST$ = TARGET$, RTN = TARGET_LENGTH);

PL6.E3A0      #001=Z8HC$SPECIAL_CASES File=Z8HC.:Z8A6TSI                         TUE 08/26/97 07:51 Page:588
  26135 46 017627   100003 236100                    LDQ     3,,PR1
        46 017630   004000 316003                    CANQ    2048,DU
        46 017631   017645 600000 46                 TZE     s:26141

  26136 46 017632   100005 475500                    LDP5    5,,PR1
        46 017633   500000 223100                    LDX3    0,,PR5
        46 017634   001105 103003                    CMPX3   581,DU
        46 017635   017642 601000 46                 TNZ     s:26139

  26137 46 017636   500003 476500                    LDP6    3,,PR5
        46 017637   600001 235100                    LDA     1,,PR6
        46 017640   200140 755100                    STA     TARGET_LENGTH,,AUTO
        46 017641   017655 710000 46                 TRA     s:26146

  26139 46 017642   500001 235100                    LDA     1,,PR5
        46 017643   200140 755100                    STA     TARGET_LENGTH,,AUTO
        46 017644   017655 710000 46                 TRA     s:26146

  26141 46 017645   100001 236100                    LDQ     1,,PR1
        46 017646   007777 376007                    ANQ     4095,DL
        46 017647   200140 756100                    STQ     TARGET_LENGTH,,AUTO

  26142 46 017650   017655 710000 46                 TRA     s:26146

     3166    26144    3            ELSE
     3167    26145    3              TARGET_LENGTH = CONSTANT$ -> VARIABLE.ADSC.N;

  26145 46 017651   000001 475400 25                 LDP5    CONSTANT$
        46 017652   500001 236100                    LDQ     1,,PR5
        46 017653   007777 376007                    ANQ     4095,DL
        46 017654   200140 756100                    STQ     TARGET_LENGTH,,AUTO

     3168    26146    3            CALL GBCD_PRESET(TARGET_LENGTH);

  26146 46 017655   200140 634500                    EPPR4   TARGET_LENGTH,,AUTO
        46 017656   200263 454500                    STP4    LOWER$+2,,AUTO
        46 017657   021456 701000 46                 TSX1    GBCD_PRESET
PL6.E3A0      #001=Z8HC$SPECIAL_CASES File=Z8HC.:Z8A6TSI                         TUE 08/26/97 07:51 Page:589
        46 017660   000000 011000                    NOP     0
        46 017661   020061 710000 46                 TRA     s:26297

     3169    26147
     3170    26148    3          CASE(%TYP);

     3171    26149
     3172    26150    3            IF CONSTANT$ -> ST.ID = %CONST AND

  26150 46 017662   000001 473400 25                 LDP3    CONSTANT$
        46 017663   300000 222100                    LDX2    0,,PR3
        46 017664   000767 102003                    CMPX2   503,DU
        46 017665   017710 601000 46                 TNZ     s:26175
        46 017666   300002 223100                    LDX3    2,,PR3
        46 017667   000001 103003                    CMPX3   1,DU
        46 017670   017710 601000 46                 TNZ     s:26175

     3173    26151    3              CONSTANT$ -> CONST.TYPE = %TYI THEN
     3174    26152    4              DO;

     3175    26153    4                CALL FLUSH(CONSTANT$,STRING$,CURRENT_SA,(CONSTANT$->CONST.NDSC.N/4));

  26153 46 017671   300001 236100                    LDQ     1,,PR3
        46 017672   000077 376007                    ANQ     63,DL
        46 017673   000002 772000                    QRL     2
        46 017674   200330 756100                    STQ     ORG1+23,,AUTO
        46 017675   200330 634500                    EPPR4   ORG1+23,,AUTO
        46 017676   200272 454500                    STP4    @OPND$+1,,AUTO
        46 017677   200242 635500                    EPPR5   CURRENT_SA,,AUTO
        46 017700   200271 455500                    STP5    @STRING$+1,,AUTO
        46 017701   200133 636500                    EPPR6   STRING$,,AUTO
        46 017702   200270 456500                    STP6    N_OPNDS+1,,AUTO
        46 017703   000106 236000 47                 LDQ     70
        46 017704   200267 756100                    STQ     P$+1,,AUTO
        46 017705   021724 701000 46                 TSX1    FLUSH
        46 017706   000000 011000                    NOP     0

PL6.E3A0      #001=Z8HC$SPECIAL_CASES File=Z8HC.:Z8A6TSI                         TUE 08/26/97 07:51 Page:590
     3176    26154    4              END;

  26154 46 017707   020056 710000 46                 TRA     s:26293

     3177    26155    3            ELSE
     3178    26156    4              DO;

     3179    26157                     %NEW_ORG ( @ST$ = COMCOM.BLOCK$ );

  26175 46 017710   000002 236000 36                 LDQ     OBJ_+2
        46 017711   000002 036007                    ADLQ    2,DL
        46 017712   000003 116000 36                 CMPQ    OBJ_+3
        46 017713   017725 604000 46                 TMI     s:26181

  26177 46 017714   000000 234000 30                 SZN     PAGING_OBJ
        46 017715   017722 605000 46                 TPL     s:26179

  26178 46 017716   000006 630400 47                 EPPR0   6
        46 017717   000000 631400 47                 EPPR1   0
        46 017720   000000 701000 xent               TSX1    Z9HF$WRITE_OBJ_PAGE
        46 017721   000000 011000                    NOP     0

  26179 46 017722   000007 631400 47                 EPPR1   7
        46 017723   000000 701000 xent               TSX1    Z9HF$GET_OBJ_PAGE
        46 017724   000000 011000                    NOP     0

  26181 46 017725   000002 236000 36                 LDQ     OBJ_+2
        46 017726   000022 736000                    QLS     18
        46 017727   000001 036000 36                 ADLQ    OBJ_+1
        46 017730   000000 756000 29                 STQ     OBJ$

  26182 46 017731   000002 236007                    LDQ     2,DL
        46 017732   000002 056000 36                 ASQ     OBJ_+2

  26183 46 017733   001013 220003                    LDX0    523,DU
        46 017734   000000 470400 29                 LDP0    OBJ$
        46 017735   000000 740100                    STX0    0,,PR0
PL6.E3A0      #001=Z8HC$SPECIAL_CASES File=Z8HC.:Z8A6TSI                         TUE 08/26/97 07:51 Page:591

  26187 46 017736   000145 236000 xsym               LDQ     COMCOM+101
        46 017737   000000 470400 29                 LDP0    OBJ$
        46 017740   000001 756100                    STQ     1,,PR0

     3180    26193    4                CURRENT_BLOCK$ = COMCOM.BLOCK$;

  26193 46 017741   000145 236000 xsym               LDQ     COMCOM+101
        46 017742   000000 756000 26                 STQ     CURRENT_BLOCK$

     3181    26194
     3182    26195    4                INST_WORD = '0'O;

  26195 46 017743   200012 450100                    STZ     INST_WORD,,AUTO

     3183    26196
     3184    26197    4                MOD_KEY.KEY = 0;

  26197 46 017744   000000 450000 25                 STZ     MOD_KEY

     3185    26198    4                MOD_KEY.B.WORD_REL = TRUE;

  26198 46 017745   000002 236007                    LDQ     2,DL
        46 017746   000000 256000 25                 ORSQ    MOD_KEY

     3186    26199    4                MOD_KEY.B.RESOLVE_ADDRESS = TRUE;

  26199 46 017747   000020 236007                    LDQ     16,DL
        46 017750   000000 256000 25                 ORSQ    MOD_KEY

     3187    26200
     3188    26201                     %NEW_WORD( @OU_WORD = INST_WORD ,
     3189    26202                                @KEY     = MOD_KEY.KEY ,
     3190    26203                                @ST$     = PILL -> ETT.ROP ,
     3191    26204                                @OFFSET  =
             26204                                   PILL -> ETT.LOP -> VARIABLE.SA + PILL -> PRESET.OFFSET ,
     3192    26205                                @ADVANCE_BLOCK_SIZE = NO);
PL6.E3A0      #001=Z8HC$SPECIAL_CASES File=Z8HC.:Z8A6TSI                         TUE 08/26/97 07:51 Page:592

  26224 46 017751   000002 236000 36                 LDQ     OBJ_+2
        46 017752   000004 036007                    ADLQ    4,DL
        46 017753   000003 116000 36                 CMPQ    OBJ_+3
        46 017754   017766 604000 46                 TMI     s:26230

  26226 46 017755   000000 234000 30                 SZN     PAGING_OBJ
        46 017756   017763 605000 46                 TPL     s:26228

  26227 46 017757   000006 630400 47                 EPPR0   6
        46 017760   000000 631400 47                 EPPR1   0
        46 017761   000000 701000 xent               TSX1    Z9HF$WRITE_OBJ_PAGE
        46 017762   000000 011000                    NOP     0

  26228 46 017763   000007 631400 47                 EPPR1   7
        46 017764   000000 701000 xent               TSX1    Z9HF$GET_OBJ_PAGE
        46 017765   000000 011000                    NOP     0

  26230 46 017766   000002 236000 36                 LDQ     OBJ_+2
        46 017767   000022 736000                    QLS     18
        46 017770   000001 036000 36                 ADLQ    OBJ_+1
        46 017771   000000 756000 29                 STQ     OBJ$

  26231 46 017772   000004 236007                    LDQ     4,DL
        46 017773   000002 056000 36                 ASQ     OBJ_+2

  26232 46 017774   001012 220003                    LDX0    522,DU
        46 017775   000000 470400 29                 LDP0    OBJ$
        46 017776   000000 740100                    STX0    0,,PR0

  26235 46 017777   200003 470500                    LDP0    @PILL,,AUTO
        46 020000   000000 471500                    LDP1    0,,PR0
        46 020001   100002 236100                    LDQ     2,,PR1
        46 020002   000000 473400 29                 LDP3    OBJ$
        46 020003   300002 756100                    STQ     2,,PR3

  26236 46 020004   000000 471500                    LDP1    0,,PR0
PL6.E3A0      #001=Z8HC$SPECIAL_CASES File=Z8HC.:Z8A6TSI                         TUE 08/26/97 07:51 Page:593
        46 020005   100001 474500                    LDP4    1,,PR1
        46 020006   100000 236100                    LDQ     0,,PR1
        46 020007   777777 376007                    ANQ     -1,DL
        46 020010   200302 756100                    STQ     ORG1+1,,AUTO
        46 020011   400001 236100                    LDQ     1,,PR4
        46 020012   000022 772000                    QRL     18
        46 020013   200302 036100                    ADLQ    ORG1+1,,AUTO
        46 020014   300001 756100                    STQ     1,,PR3

  26237 46 020015   000000 236000 25                 LDQ     MOD_KEY
        46 020016   000011 736000                    QLS     9
        46 020017   300000 552110                    STBQ    0,'10'O,PR3

  26239 46 020020   200012 236100                    LDQ     INST_WORD,,AUTO
        46 020021   000000 471400 29                 LDP1    OBJ$
        46 020022   100003 756100                    STQ     3,,PR1

     3193    26252
     3194    26253                     %NEW_ORG ( @ST$ = "COMCOM.SEGMENT$(%PROC)" );

  26271 46 020023   000002 236000 36                 LDQ     OBJ_+2
        46 020024   000002 036007                    ADLQ    2,DL
        46 020025   000003 116000 36                 CMPQ    OBJ_+3
        46 020026   020040 604000 46                 TMI     s:26277

  26273 46 020027   000000 234000 30                 SZN     PAGING_OBJ
        46 020030   020035 605000 46                 TPL     s:26275

  26274 46 020031   000006 630400 47                 EPPR0   6
        46 020032   000000 631400 47                 EPPR1   0
        46 020033   000000 701000 xent               TSX1    Z9HF$WRITE_OBJ_PAGE
        46 020034   000000 011000                    NOP     0

  26275 46 020035   000007 631400 47                 EPPR1   7
        46 020036   000000 701000 xent               TSX1    Z9HF$GET_OBJ_PAGE
        46 020037   000000 011000                    NOP     0

PL6.E3A0      #001=Z8HC$SPECIAL_CASES File=Z8HC.:Z8A6TSI                         TUE 08/26/97 07:51 Page:594
  26277 46 020040   000002 236000 36                 LDQ     OBJ_+2
        46 020041   000022 736000                    QLS     18
        46 020042   000001 036000 36                 ADLQ    OBJ_+1
        46 020043   000000 756000 29                 STQ     OBJ$

  26278 46 020044   000002 236007                    LDQ     2,DL
        46 020045   000002 056000 36                 ASQ     OBJ_+2

  26279 46 020046   001013 220003                    LDX0    523,DU
        46 020047   000000 470400 29                 LDP0    OBJ$
        46 020050   000000 740100                    STX0    0,,PR0

  26283 46 020051   000150 236000 xsym               LDQ     COMCOM+104
        46 020052   000000 470400 29                 LDP0    OBJ$
        46 020053   000001 756100                    STQ     1,,PR0

     3195    26289    4                CURRENT_BLOCK$ = COMCOM.SEGMENT$(%PROC);

  26289 46 020054   000150 236000 xsym               LDQ     COMCOM+104
        46 020055   000000 756000 26                 STQ     CURRENT_BLOCK$

     3196    26290
     3197    26291    4             END;

     3198    26292
     3199    26293    3            BITS_IN_BUFFER = 0;

  26293 46 020056   000003 450000 25                 STZ     BITS_IN_BUFFER

     3200    26294    3            OLD_SA = CURRENT_SA;

  26294 46 020057   200242 235100                    LDA     CURRENT_SA,,AUTO
        46 020060   000006 755000 25                 STA     OLD_SA

     3201    26295    3        END /* Case */;

     3202    26296
PL6.E3A0      #001=Z8HC$SPECIAL_CASES File=Z8HC.:Z8A6TSI                         TUE 08/26/97 07:51 Page:595
     3203    26297    2        IF BITS_IN_BUFFER = 0 THEN

  26297 46 020061   000003 235000 25                 LDA     BITS_IN_BUFFER
        46 020062   020067 601000 46                 TNZ     s:26303

     3204    26298    3          DO;

     3205    26299    3            FLUSH_BLK$ = ADDR(NIL);

  26299 46 020063   000005 236000 47                 LDQ     5
        46 020064   000005 756000 25                 STQ     FLUSH_BLK$

     3206    26300    3            BUFFER = 0;

  26300 46 020065   000004 450000 25                 STZ     BUFFER

     3207    26301    3          END;

  26301 46 020066   020071 710000 46                 TRA     s:26306

     3208    26302    2        ELSE
     3209    26303    2          FLUSH_BLK$ = CURRENT_BLOCK$;

  26303 46 020067   000000 236000 26                 LDQ     CURRENT_BLOCK$
        46 020070   000005 756000 25                 STQ     FLUSH_BLK$

     3210    26304
     3211    26305
     3212    26306    2        IF TARGET$ -> VARIABLE.B.ARRAY_PRESET THEN

  26306 46 020071   200134 470500                    LDP0    TARGET$,,AUTO
        46 020072   000003 236100                    LDQ     3,,PR0
        46 020073   000020 316007                    CANQ    16,DL
        46 020074   021307 600000 46                 TZE     s:26924

     3213    26307    3            DO;

PL6.E3A0      #001=Z8HC$SPECIAL_CASES File=Z8HC.:Z8A6TSI                         TUE 08/26/97 07:51 Page:596
     3214    26308    3              TARGET$ -> VARIABLE.QLT$ -> QLT.B.ARRAY_VALUED = TRUE;

  26308 46 020075   000007 471500                    LDP1    7,,PR0
        46 020076   020000 236007                    LDQ     8192,DL
        46 020077   100000 256100                    ORSQ    0,,PR1

     3215    26309
     3216    26310                   %NEW_ARRAY_PRESET_LTS (@CONSTANT$ = CONSTANT$,
     3217    26311                                          @STRING$   = STRING$,
     3218    26312                                          @BITS_LEFT = BITS_IN_BUFFER);

  26391 46 020100   000002 236000 41                 LDQ     LTS_+2
        46 020101   000005 036007                    ADLQ    5,DL
        46 020102   000003 116000 41                 CMPQ    LTS_+3
        46 020103   020114 604000 46                 TMI     s:26393

  26392 46 020104   000035 236000 47                 LDQ     29
        46 020105   200302 756100                    STQ     ORG1+1,,AUTO
        46 020106   200302 631500                    EPPR1   ORG1+1,,AUTO
        46 020107   200303 451500                    STP1    ORG1+2,,AUTO
        46 020110   200303 630500                    EPPR0   ORG1+2,,AUTO
        46 020111   000000 631400 47                 EPPR1   0
        46 020112   000000 701000 xent               TSX1    Z8AR$RESERVER
        46 020113   000000 011000                    NOP     0

  26393 46 020114   000002 236000 41                 LDQ     LTS_+2
        46 020115   000022 736000                    QLS     18
        46 020116   000001 036000 41                 ADLQ    LTS_+1
        46 020117   000000 756000 40                 STQ     LTS$

  26394 46 020120   000005 236007                    LDQ     5,DL
        46 020121   000002 056000 41                 ASQ     LTS_+2

  26395 46 020122   001070 220003                    LDX0    568,DU
        46 020123   000000 470400 40                 LDP0    LTS$
        46 020124   000000 740100                    STX0    0,,PR0

PL6.E3A0      #001=Z8HC$SPECIAL_CASES File=Z8HC.:Z8A6TSI                         TUE 08/26/97 07:51 Page:597
  26401 46 020125   000000 470400 40                 LDP0    LTS$
        46 020126   000000 740100                    STX0    0,,PR0

  26402 46 020127   000001 236000 25                 LDQ     CONSTANT$
        46 020130   000000 470400 40                 LDP0    LTS$
        46 020131   000001 756100                    STQ     1,,PR0

  26403 46 020132   200133 236100                    LDQ     STRING$,,AUTO
        46 020133   000002 756100                    STQ     2,,PR0

  26404 46 020134   000004 450100                    STZ     4,,PR0

  26405 46 020135   000003 235000 25                 LDA     BITS_IN_BUFFER
        46 020136   000003 755100                    STA     3,,PR0

     3219    26408
     3220    26409    3              IF BITS_IN_BUFFER = 0 THEN

  26409 46 020137   020144 601000 46                 TNZ     s:26412

     3221    26410    3                LTS$ -> ARRAY_PRESET_LTS.LAST_OFFSET = OBJ$ -> OBJ_WORD.OFFSET;

  26410 46 020140   000000 471400 29                 LDP1    OBJ$
        46 020141   100001 235100                    LDA     1,,PR1
        46 020142   000004 755100                    STA     4,,PR0
        46 020143   020146 710000 46                 TRA     s:26414

     3222    26411    3              ELSE
     3223    26412    3                LTS$ -> ARRAY_PRESET_LTS.LAST_OFFSET = OLD_SA;

  26412 46 020144   000006 235000 25                 LDA     OLD_SA
        46 020145   000004 755100                    STA     4,,PR0

     3224    26413
     3225    26414    3              QLT$ = TARGET$ -> VARIABLE.QLT$;

  26414 46 020146   200134 471500                    LDP1    TARGET$,,AUTO
PL6.E3A0      #001=Z8HC$SPECIAL_CASES File=Z8HC.:Z8A6TSI                         TUE 08/26/97 07:51 Page:598
        46 020147   100007 236100                    LDQ     7,,PR1
        46 020150   000000 756000 37                 STQ     QLT$

     3226    26415    3              QLT$ -> QLT.ARRAY_VALUE$ = LTS$;

  26415 46 020151   000000 236000 40                 LDQ     LTS$
        46 020152   000000 473400 37                 LDP3    QLT$
        46 020153   300005 756100                    STQ     5,,PR3

     3227    26416
     3228    26417    4              DO WHILE (QLT$ -> QLT.FATHER ~= ADDR(NIL));

  26417 46 020154   020160 710000 46                 TRA     s:26419

     3229    26418    4                QLT$ = QLT$ -> QLT.FATHER;

  26418 46 020155   000000 470400 37                 LDP0    QLT$
        46 020156   000001 236100                    LDQ     1,,PR0
        46 020157   000000 756000 37                 STQ     QLT$

     3230    26419    4              END;

  26419 46 020160   000000 470400 37                 LDP0    QLT$
        46 020161   000001 236100                    LDQ     1,,PR0
        46 020162   000005 116000 47                 CMPQ    5
        46 020163   020155 601000 46                 TNZ     s:26418

     3231    26420
     3232    26421                /* save the last obj_word address of this data structure
     3233    26422                   on the top QLT of this data structure                 */
     3234    26423
     3235    26424    3              QLT$ -> QLT.ARRAY_VALUE$ = LTS$;

  26424 46 020164   000000 236000 40                 LDQ     LTS$
        46 020165   000005 756100                    STQ     5,,PR0

     3236    26425
PL6.E3A0      #001=Z8HC$SPECIAL_CASES File=Z8HC.:Z8A6TSI                         TUE 08/26/97 07:51 Page:599
     3237    26426    3            END;

  26426 46 020166   021307 710000 46                 TRA     s:26924

     3238    26427
     3239    26428
     3240    26429        %EJECT;
PL6.E3A0      #001=Z8HC$SPECIAL_CASES File=Z8HC.:Z8A6TSI                         TUE 08/26/97 07:51 Page:600
     3241    26430    2   CASE(%PTR_SET);

     3242    26431
     3243    26432    2        IF BITS_IN_BUFFER ~= 0 THEN

  26432 46 020167   000003 235000 25                 LDA     BITS_IN_BUFFER
        46 020170   020175 600000 46                 TZE     s:26435

     3244    26433    2            CALL FLUSH_BUFFER(OLD_SA);

  26433 46 020171   000040 236000 47                 LDQ     32
        46 020172   200265 756100                    STQ     SEND$+1,,AUTO
        46 020173   021605 701000 46                 TSX1    FLUSH_BUFFER
        46 020174   000000 011000                    NOP     0

     3245    26434
     3246    26435    2        TARGET$ = PILL -> ILL.LOP;

  26435 46 020175   200003 470500                    LDP0    @PILL,,AUTO
        46 020176   000000 471500                    LDP1    0,,PR0
        46 020177   100001 236100                    LDQ     1,,PR1
        46 020200   200134 756100                    STQ     TARGET$,,AUTO

     3247    26436    2        SENDING$ = PILL -> ILL.ROP;

  26436 46 020201   100002 236100                    LDQ     2,,PR1
        46 020202   200244 756100                    STQ     SENDING$,,AUTO

     3248    26437
     3249    26438    2        CURRENT_SA = TARGET$ -> VARIABLE.SA + PILL -> PRESET.OFFSET;

  26438 46 020203   100000 236100                    LDQ     0,,PR1
        46 020204   777777 376007                    ANQ     -1,DL
        46 020205   200302 756100                    STQ     ORG1+1,,AUTO
        46 020206   200134 471500                    LDP1    TARGET$,,AUTO
        46 020207   100001 236100                    LDQ     1,,PR1
        46 020210   000022 772000                    QRL     18
PL6.E3A0      #001=Z8HC$SPECIAL_CASES File=Z8HC.:Z8A6TSI                         TUE 08/26/97 07:51 Page:601
        46 020211   200302 036100                    ADLQ    ORG1+1,,AUTO
        46 020212   200242 756100                    STQ     CURRENT_SA,,AUTO

     3250    26439
     3251    26440    2        IF PILL -> PRESET.OFFSET = 0 THEN

  26440 46 020213   000000 473500                    LDP3    0,,PR0
        46 020214   300000 720100                    LXL0    0,,PR3
        46 020215   020247 601000 46                 TNZ     s:26479

     3252    26441               %NEW_LAB( @ST$ = TARGET$ );

  26459 46 020216   000002 236000 36                 LDQ     OBJ_+2
        46 020217   000002 036007                    ADLQ    2,DL
        46 020220   000003 116000 36                 CMPQ    OBJ_+3
        46 020221   020233 604000 46                 TMI     s:26465

  26461 46 020222   000000 234000 30                 SZN     PAGING_OBJ
        46 020223   020230 605000 46                 TPL     s:26463

  26462 46 020224   000006 630400 47                 EPPR0   6
        46 020225   000000 631400 47                 EPPR1   0
        46 020226   000000 701000 xent               TSX1    Z9HF$WRITE_OBJ_PAGE
        46 020227   000000 011000                    NOP     0

  26463 46 020230   000007 631400 47                 EPPR1   7
        46 020231   000000 701000 xent               TSX1    Z9HF$GET_OBJ_PAGE
        46 020232   000000 011000                    NOP     0

  26465 46 020233   000002 236000 36                 LDQ     OBJ_+2
        46 020234   000022 736000                    QLS     18
        46 020235   000001 036000 36                 ADLQ    OBJ_+1
        46 020236   000000 756000 29                 STQ     OBJ$

  26466 46 020237   000002 236007                    LDQ     2,DL
        46 020240   000002 056000 36                 ASQ     OBJ_+2

PL6.E3A0      #001=Z8HC$SPECIAL_CASES File=Z8HC.:Z8A6TSI                         TUE 08/26/97 07:51 Page:602
  26467 46 020241   001011 220003                    LDX0    521,DU
        46 020242   000000 470400 29                 LDP0    OBJ$
        46 020243   000000 740100                    STX0    0,,PR0

  26471 46 020244   200134 236100                    LDQ     TARGET$,,AUTO
        46 020245   000000 470400 29                 LDP0    OBJ$
        46 020246   000001 756100                    STQ     1,,PR0

     3253    26477
     3254    26478
     3255    26479    2        INST_WORD = '0'O;

  26479 46 020247   200012 450100                    STZ     INST_WORD,,AUTO

     3256    26480    2        MOD_KEY.KEY = 0;

  26480 46 020250   000000 450000 25                 STZ     MOD_KEY

     3257    26481
     3258    26482    2        IF SENDING$ = ADDR(NIL) THEN

  26482 46 020251   200244 236100                    LDQ     SENDING$,,AUTO
        46 020252   000005 116000 47                 CMPQ    5
        46 020253   020257 601000 46                 TNZ     s:26485

     3259    26483    2          INST_WORD = BINBIT(BINARY_VALUE_OF_NIL,36);

  26483 46 020254   000012 236000 44                 LDQ     VALUE_OF_NIL
        46 020255   200012 756100                    STQ     INST_WORD,,AUTO
        46 020256   020344 710000 46                 TRA     s:26539

     3260    26484             %IF CP6;
     3261    26485    2        ELSE IF SENDING$ = NIL_EPTR$ THEN

  26485 46 020257   000013 116000 44                 CMPQ    NIL_EPTR
        46 020260   020264 601000 46                 TNZ     s:26490

PL6.E3A0      #001=Z8HC$SPECIAL_CASES File=Z8HC.:Z8A6TSI                         TUE 08/26/97 07:51 Page:603
     3262    26486    2          INST_WORD = BINBIT(BINARY_VALUE_OF_NIL_EPTR,36);

  26486 46 020261   000013 236000 44                 LDQ     NIL_EPTR
        46 020262   200012 756100                    STQ     INST_WORD,,AUTO
        46 020263   020344 710000 46                 TRA     s:26539

     3263    26487             %ENDIF;
     3264    26488    2        ELSE
     3265    26489
     3266    26490    2          IF SENDING$ -> ST.ID = %DCB_ THEN

  26490 46 020264   200244 470500                    LDP0    SENDING$,,AUTO
        46 020265   000000 220100                    LDX0    0,,PR0
        46 020266   001007 100003                    CMPX0   519,DU
        46 020267   020273 601000 46                 TNZ     s:26494

     3267    26491    2            MOD_KEY.B.WORD_REL = TRUE;

  26491 46 020270   000002 236007                    LDQ     2,DL
        46 020271   000000 256000 25                 ORSQ    MOD_KEY
        46 020272   020344 710000 46                 TRA     s:26539

     3268    26492    2          ELSE
     3269    26493    3            DO;

     3270    26494    3              MOD_KEY.B.WORD_REL = TRUE;

  26494 46 020273   000002 236007                    LDQ     2,DL
        46 020274   000000 256000 25                 ORSQ    MOD_KEY

     3271    26495    3              MOD_KEY.B.SEGID_REL_LOW = TRUE;

  26495 46 020275   000200 236007                    LDQ     128,DL
        46 020276   000000 256000 25                 ORSQ    MOD_KEY

     3272    26496    3              MOD_KEY.B.RESOLVE_ADDRESS = %TRUE;

PL6.E3A0      #001=Z8HC$SPECIAL_CASES File=Z8HC.:Z8A6TSI                         TUE 08/26/97 07:51 Page:604
  26496 46 020277   000020 236007                    LDQ     16,DL
        46 020300   000000 256000 25                 ORSQ    MOD_KEY

     3273    26497
     3274    26498                   /* Calculate the Byte/bit portion of the pointer */
     3275    26499    3              IF SENDING$ -> ST.TYPE = %TYD THEN

  26499 46 020301   000002 221100                    LDX1    2,,PR0
        46 020302   020325 601000 46                 TNZ     s:26505

     3276    26500    4                DO;

     3277    26501    4                  INST_WORD.BDSC.C = SENDING$ -> ST.NDSC.CN / 2;

  26501 46 020303   000001 236100                    LDQ     1,,PR0
        46 020304   000017 772000                    QRL     15
        46 020305   000007 376007                    ANQ     7,DL
        46 020306   000001 772000                    QRL     1
        46 020307   000020 736000                    QLS     16
        46 020310   200012 676100                    ERQ     INST_WORD,,AUTO
        46 020311   600000 376007                    ANQ     -65536,DL
        46 020312   200012 656100                    ERSQ    INST_WORD,,AUTO

     3278    26502    4                  INST_WORD.BDSC.B = MOD(SENDING$ -> ST.NDSC.CN,2) * 5;

  26502 46 020313   000001 236100                    LDQ     1,,PR0
        46 020314   000017 772000                    QRL     15
        46 020315   000007 376007                    ANQ     7,DL
        46 020316   000001 376007                    ANQ     1,DL
        46 020317   000005 402007                    MPY     5,DL
        46 020320   000014 736000                    QLS     12
        46 020321   200012 676100                    ERQ     INST_WORD,,AUTO
        46 020322   170000 376007                    ANQ     61440,DL
        46 020323   200012 656100                    ERSQ    INST_WORD,,AUTO

     3279    26503    4                END;

PL6.E3A0      #001=Z8HC$SPECIAL_CASES File=Z8HC.:Z8A6TSI                         TUE 08/26/97 07:51 Page:605
  26503 46 020324   020331 710000 46                 TRA     s:26507

     3280    26504    3              ELSE
     3281    26505    3                INST_WORD.BDSC.C = SENDING$ -> ST.ADSC.CN;

  26505 46 020325   000001 236100                    LDQ     1,,PR0
        46 020326   200012 676100                    ERQ     INST_WORD,,AUTO
        46 020327   600000 376007                    ANQ     -65536,DL
        46 020330   200012 656100                    ERSQ    INST_WORD,,AUTO

     3282    26506
     3283    26507    3              IF (SENDING$ -> ST.ID = %CONST) AND

  26507 46 020331   000767 100003                    CMPX0   503,DU
        46 020332   020344 601000 46                 TNZ     s:26539
        46 020333   000003 236100                    LDQ     3,,PR0
        46 020334   020000 316003                    CANQ    8192,DU
        46 020335   020344 601000 46                 TNZ     s:26539

     3284    26508    3                  NOT SENDING$ -> CONST.B.ALLOCATED THEN
     3285    26509    4                DO;

     3286    26510    4                  SENDING$ -> CONST.B.ALLOCATED = TRUE;

  26510 46 020336   020000 236003                    LDQ     8192,DU
        46 020337   000003 256100                    ORSQ    3,,PR0

     3287    26511    4                  SENDING$ -> CONST.ALLOC_LINK = CONST$;

  26511 46 020340   000000 236000 21                 LDQ     CONST$
        46 020341   000005 756100                    STQ     5,,PR0

     3288    26512    4                  CONST$ = SENDING$;

  26512 46 020342   200244 236100                    LDQ     SENDING$,,AUTO
        46 020343   000000 756000 21                 STQ     CONST$

PL6.E3A0      #001=Z8HC$SPECIAL_CASES File=Z8HC.:Z8A6TSI                         TUE 08/26/97 07:51 Page:606
     3289    26513    4                END;

     3290    26514    3            END;

     3291    26515
     3292    26516             %NEW_WORD(@OU_WORD = INST_WORD,
     3293    26517                       @KEY = MOD_KEY.KEY,
     3294    26518                       @ST$ = SENDING$,
     3295    26519                       @OFFSET = CURRENT_SA,
     3296    26520                       @ADVANCE_BLOCK_SIZE=NO);

  26539 46 020344   000002 236000 36                 LDQ     OBJ_+2
        46 020345   000004 036007                    ADLQ    4,DL
        46 020346   000003 116000 36                 CMPQ    OBJ_+3
        46 020347   020361 604000 46                 TMI     s:26545

  26541 46 020350   000000 234000 30                 SZN     PAGING_OBJ
        46 020351   020356 605000 46                 TPL     s:26543

  26542 46 020352   000006 630400 47                 EPPR0   6
        46 020353   000000 631400 47                 EPPR1   0
        46 020354   000000 701000 xent               TSX1    Z9HF$WRITE_OBJ_PAGE
        46 020355   000000 011000                    NOP     0

  26543 46 020356   000007 631400 47                 EPPR1   7
        46 020357   000000 701000 xent               TSX1    Z9HF$GET_OBJ_PAGE
        46 020360   000000 011000                    NOP     0

  26545 46 020361   000002 236000 36                 LDQ     OBJ_+2
        46 020362   000022 736000                    QLS     18
        46 020363   000001 036000 36                 ADLQ    OBJ_+1
        46 020364   000000 756000 29                 STQ     OBJ$

  26546 46 020365   000004 236007                    LDQ     4,DL
        46 020366   000002 056000 36                 ASQ     OBJ_+2

  26547 46 020367   001012 220003                    LDX0    522,DU
PL6.E3A0      #001=Z8HC$SPECIAL_CASES File=Z8HC.:Z8A6TSI                         TUE 08/26/97 07:51 Page:607
        46 020370   000000 470400 29                 LDP0    OBJ$
        46 020371   000000 740100                    STX0    0,,PR0

  26550 46 020372   200244 236100                    LDQ     SENDING$,,AUTO
        46 020373   000000 470400 29                 LDP0    OBJ$
        46 020374   000002 756100                    STQ     2,,PR0

  26551 46 020375   200242 235100                    LDA     CURRENT_SA,,AUTO
        46 020376   000001 755100                    STA     1,,PR0

  26552 46 020377   000000 236000 25                 LDQ     MOD_KEY
        46 020400   000011 736000                    QLS     9
        46 020401   000000 552110                    STBQ    0,'10'O,PR0

  26554 46 020402   200012 236100                    LDQ     INST_WORD,,AUTO
        46 020403   000000 470400 29                 LDP0    OBJ$
        46 020404   000003 756100                    STQ     3,,PR0

     3297    26567
     3298    26568    2        OLD_SA = CURRENT_SA;

  26568 46 020405   200242 235100                    LDA     CURRENT_SA,,AUTO
        46 020406   000006 755000 25                 STA     OLD_SA
        46 020407   021307 710000 46                 TRA     s:26924

     3299    26569
     3300    26570        %EJECT;
PL6.E3A0      #001=Z8HC$SPECIAL_CASES File=Z8HC.:Z8A6TSI                         TUE 08/26/97 07:51 Page:608
     3301    26571    2   CASE(%SCOPE);

     3302    26572        /*V*
     3303    26573                       SCOPE
     3304    26574               Issue an OBJ_SCOPE item if we are entering a new scope and
     3305    26575             the type is %PROGRAM_SCOPE. No action is needed for other types.
     3306    26576             Not all SCOPE ILL items indicate that we are entering a new
     3307    26577             scope.  The first scope comes from COMCOM.FIRST_PROC$.
     3308    26578        */
     3309    26579
     3310    26580    3        DO CASE(PILL -> SCOPE.CODE);

  26580 46 020410   100000 720100                    LXL0    0,,PR1
        46 020411   000001 100003                    CMPX0   1,DU
        46 020412   020414 602010 46                 TNC     s:26580+4,X0
        46 020413   021307 710000 46                 TRA     s:26924
        46 020414   020415 710000 46                 TRA     s:26582

     3311    26581    3          CASE(%PROGRAM_SCOPE);

     3312    26582    3            IF PILL -> SCOPE.PROC$ ~= CURRENT_SCOPE$ THEN

  26582 46 020415   100001 236100                    LDQ     1,,PR1
        46 020416   000000 116000 18                 CMPQ    CURRENT_SCOPE$
        46 020417   020461 600000 46                 TZE     s:26625

     3313    26583    4              DO;

     3314    26584                     %NEW_SCOPE( @PROC$ = PILL -> SCOPE.PROC$ );

  26602 46 020420   000002 236000 36                 LDQ     OBJ_+2
        46 020421   000002 036007                    ADLQ    2,DL
        46 020422   000003 116000 36                 CMPQ    OBJ_+3
        46 020423   020435 604000 46                 TMI     s:26608

  26604 46 020424   000000 234000 30                 SZN     PAGING_OBJ
        46 020425   020432 605000 46                 TPL     s:26606
PL6.E3A0      #001=Z8HC$SPECIAL_CASES File=Z8HC.:Z8A6TSI                         TUE 08/26/97 07:51 Page:609

  26605 46 020426   000006 630400 47                 EPPR0   6
        46 020427   000000 631400 47                 EPPR1   0
        46 020430   000000 701000 xent               TSX1    Z9HF$WRITE_OBJ_PAGE
        46 020431   000000 011000                    NOP     0

  26606 46 020432   000007 631400 47                 EPPR1   7
        46 020433   000000 701000 xent               TSX1    Z9HF$GET_OBJ_PAGE
        46 020434   000000 011000                    NOP     0

  26608 46 020435   000002 236000 36                 LDQ     OBJ_+2
        46 020436   000022 736000                    QLS     18
        46 020437   000001 036000 36                 ADLQ    OBJ_+1
        46 020440   000000 756000 29                 STQ     OBJ$

  26609 46 020441   000002 236007                    LDQ     2,DL
        46 020442   000002 056000 36                 ASQ     OBJ_+2

  26610 46 020443   001014 220003                    LDX0    524,DU
        46 020444   000000 470400 29                 LDP0    OBJ$
        46 020445   000000 740100                    STX0    0,,PR0

  26614 46 020446   200003 470500                    LDP0    @PILL,,AUTO
        46 020447   000000 471500                    LDP1    0,,PR0
        46 020450   100001 236100                    LDQ     1,,PR1
        46 020451   000000 473400 29                 LDP3    OBJ$
        46 020452   300001 756100                    STQ     1,,PR3

     3315    26620
     3316    26621    4                CURRENT_SCOPE$ = PILL -> SCOPE.PROC$;

  26621 46 020453   000000 471500                    LDP1    0,,PR0
        46 020454   100001 236100                    LDQ     1,,PR1
        46 020455   000000 756000 18                 STQ     CURRENT_SCOPE$

     3317    26622    4                COMCOM.LOGICAL_BLOCK_CNT = COMCOM.LOGICAL_BLOCK_CNT + 1;

PL6.E3A0      #001=Z8HC$SPECIAL_CASES File=Z8HC.:Z8A6TSI                         TUE 08/26/97 07:51 Page:610
  26622 46 020456   000472 235000 xsym               LDA     COMCOM+314
        46 020457   000001 035007                    ADLA    1,DL
        46 020460   000472 755000 xsym               STA     COMCOM+314

     3318    26623    4              END;

     3319    26624
     3320    26625    3            IF COMCOM.SEGMENT$(%PROC) ~= ROOT_PROC_BLOCK$ THEN

  26625 46 020461   000150 236000 xsym               LDQ     COMCOM+104
        46 020462   000000 116000 27                 CMPQ    ROOT_PROC_BLOCK$
        46 020463   021307 600000 46                 TZE     s:26924

     3321    26626    4              DO;

     3322    26627    4                COMCOM.SEGMENT$ (%PROC) = ROOT_PROC_BLOCK$;

  26627 46 020464   000000 236000 27                 LDQ     ROOT_PROC_BLOCK$
        46 020465   000150 756000 xsym               STQ     COMCOM+104

     3323    26628    4                CURRENT_BLOCK$ = ROOT_PROC_BLOCK$;

  26628 46 020466   000000 756000 26                 STQ     CURRENT_BLOCK$

     3324    26629
     3325    26630                     %NEW_ORG (@ST$ = CURRENT_BLOCK$);

  26648 46 020467   000002 236000 36                 LDQ     OBJ_+2
        46 020470   000002 036007                    ADLQ    2,DL
        46 020471   000003 116000 36                 CMPQ    OBJ_+3
        46 020472   020504 604000 46                 TMI     s:26654

  26650 46 020473   000000 234000 30                 SZN     PAGING_OBJ
        46 020474   020501 605000 46                 TPL     s:26652

  26651 46 020475   000006 630400 47                 EPPR0   6
        46 020476   000000 631400 47                 EPPR1   0
PL6.E3A0      #001=Z8HC$SPECIAL_CASES File=Z8HC.:Z8A6TSI                         TUE 08/26/97 07:51 Page:611
        46 020477   000000 701000 xent               TSX1    Z9HF$WRITE_OBJ_PAGE
        46 020500   000000 011000                    NOP     0

  26652 46 020501   000007 631400 47                 EPPR1   7
        46 020502   000000 701000 xent               TSX1    Z9HF$GET_OBJ_PAGE
        46 020503   000000 011000                    NOP     0

  26654 46 020504   000002 236000 36                 LDQ     OBJ_+2
        46 020505   000022 736000                    QLS     18
        46 020506   000001 036000 36                 ADLQ    OBJ_+1
        46 020507   000000 756000 29                 STQ     OBJ$

  26655 46 020510   000002 236007                    LDQ     2,DL
        46 020511   000002 056000 36                 ASQ     OBJ_+2

  26656 46 020512   001013 220003                    LDX0    523,DU
        46 020513   000000 470400 29                 LDP0    OBJ$
        46 020514   000000 740100                    STX0    0,,PR0

  26660 46 020515   000000 236000 26                 LDQ     CURRENT_BLOCK$
        46 020516   000000 470400 29                 LDP0    OBJ$
        46 020517   000001 756100                    STQ     1,,PR0

     3326    26666    4              END;

  26666 46 020520   021307 710000 46                 TRA     s:26924

     3327    26667    3          CASE(%INIT_SCOPE, %DECLARATIVES_SCOPE);

     3328    26668                  /* NULL */
     3329    26669    3        END; /* Case */

     3330    26670
     3331    26671        %EJECT;
PL6.E3A0      #001=Z8HC$SPECIAL_CASES File=Z8HC.:Z8A6TSI                         TUE 08/26/97 07:51 Page:612
     3332    26672    2   CASE(%SEARCH);

     3333    26673
     3334    26674    3        DO CASE(CASE_PASS);

  26674 46 020521   200005 473500                    LDP3    @CASE_PASS,,AUTO
        46 020522   300000 235100                    LDA     0,,PR3
        46 020523   000002 115007                    CMPA    2,DL
        46 020524   020526 602005 46                 TNC     s:26674+5,AL
        46 020525   021307 710000 46                 TRA     s:26924
        46 020526   020530 710000 46                 TRA     s:26677
        46 020527   020560 710000 46                 TRA     s:26698

     3335    26675    3           CASE(%FIRST_PASS);

     3336    26676                    /* Was TABLEVAL specified */
     3337    26677    3               IF PILL -> SEARCH_.TABLEVAL = ADDR(NIL) THEN

  26677 46 020530   100004 236100                    LDQ     4,,PR1
        46 020531   000005 116000 47                 CMPQ    5
        46 020532   020537 601000 46                 TNZ     s:26681

     3338    26678    3                 PCOM.TABS = 1;

  26678 46 020533   000001 235007                    LDA     1,DL
        46 020534   200004 474500                    LDP4    @PCOM,,AUTO
        46 020535   400023 755100                    STA     19,,PR4
        46 020536   020544 710000 46                 TRA     s:26686

     3339    26679    3               ELSE
     3340    26680    4                 DO;

     3341    26681    4                   PCOM.TABS = 0;

  26681 46 020537   200004 474500                    LDP4    @PCOM,,AUTO
        46 020540   400023 450100                    STZ     19,,PR4

PL6.E3A0      #001=Z8HC$SPECIAL_CASES File=Z8HC.:Z8A6TSI                         TUE 08/26/97 07:51 Page:613
     3342    26682    4                   PCOM.TOPND = PILL -> SEARCH_.TABLEVAL;

  26682 46 020541   000000 471500                    LDP1    0,,PR0
        46 020542   100004 236100                    LDQ     4,,PR1
        46 020543   400055 756100                    STQ     45,,PR4

     3343    26683    4                 END;

     3344    26684
     3345    26685                    /* Was ALTRET specified */
     3346    26686    3               IF PILL -> SEARCH_.ALTRET_ = ADDR(NIL) THEN

  26686 46 020544   000000 471500                    LDP1    0,,PR0
        46 020545   100005 236100                    LDQ     5,,PR1
        46 020546   000005 116000 47                 CMPQ    5
        46 020547   020553 601000 46                 TNZ     s:26690

     3347    26687    3                 PCOM.RABS = 1;

  26687 46 020550   000001 235007                    LDA     1,DL
        46 020551   400021 755100                    STA     17,,PR4
        46 020552   021307 710000 46                 TRA     s:26924

     3348    26688    3               ELSE
     3349    26689    4                 DO;

     3350    26690    4                   PCOM.RABS = 0;

  26690 46 020553   400021 450100                    STZ     17,,PR4

     3351    26691    4                   PCOM.ROPND = PILL -> SEARCH_.ALTRET_;

  26691 46 020554   000000 471500                    LDP1    0,,PR0
        46 020555   100005 236100                    LDQ     5,,PR1
        46 020556   400053 756100                    STQ     43,,PR4

     3352    26692    4                 END;
PL6.E3A0      #001=Z8HC$SPECIAL_CASES File=Z8HC.:Z8A6TSI                         TUE 08/26/97 07:51 Page:614

  26692 46 020557   021307 710000 46                 TRA     s:26924

     3353    26693
     3354    26694    3           CASE(%SECOND_PASS);

     3355    26695
     3356    26696                    /* Y field of arg may need adjustment if table of
     3357    26697                       TCT instruction is to be put into .PROC. */
     3358    26698    3               IF PILL -> SEARCH_.ROP -> ETT.ID = %TRIAD THEN

  26698 46 020560   100002 474500                    LDP4    2,,PR1
        46 020561   400000 220100                    LDX0    0,,PR4
        46 020562   000015 100003                    CMPX0   13,DU
        46 020563   021307 601000 46                 TNZ     s:26924

     3359    26699    3                 PCOM.GABS = BITBIN('2000000'O);

  26699 46 020564   000017 236000 44                 LDQ     NIL_EPTR+4
        46 020565   000017 772000                    QRL     15
        46 020566   200004 475500                    LDP5    @PCOM,,AUTO
        46 020567   500006 756100                    STQ     6,,PR5

     3360    26700
     3361    26701    3        END; /* CASE */

  26701 46 020570   021307 710000 46                 TRA     s:26924

     3362    26702
     3363    26703        %EJECT;
PL6.E3A0      #001=Z8HC$SPECIAL_CASES File=Z8HC.:Z8A6TSI                         TUE 08/26/97 07:51 Page:615
     3364    26704    2   CASE(%SIZ, %REFMOD);  /*#28637*/

     3365    26705
     3366    26706    2        IF PILL -> ETT.ROP -> ETT.ID = %TRIAD AND

  26706 46 020571   100002 473500                    LDP3    2,,PR1
        46 020572   300000 220100                    LDX0    0,,PR3
        46 020573   000015 100003                    CMPX0   13,DU
        46 020574   020612 601000 46                 TNZ     s:26711
        46 020575   300001 474500                    LDP4    1,,PR3
        46 020576   400010 235100                    LDA     8,,PR4
        46 020577   000001 115003                    CMPA    1,DU
        46 020600   020612 605000 46                 TPL     s:26711

     3367    26707    2            PILL -> ETT.ROP -> ETT.LOP -> CONST.CONSTI.WORD1 < %#256K THEN
     3368    26708    2          CALL Z8HU$TAG(PILL -> ETT.ROP, FALSE);

  26708 46 020601   000026 236000 47                 LDQ     22
        46 020602   200303 756100                    STQ     ORG1+2,,AUTO
        46 020603   100002 633500                    EPPR3   2,,PR1
        46 020604   200302 453500                    STP3    ORG1+1,,AUTO
        46 020605   200302 630500                    EPPR0   ORG1+1,,AUTO
        46 020606   000013 631400 47                 EPPR1   11
        46 020607   000000 701000 xent               TSX1    Z8HU$TAG
        46 020610   000000 011000                    NOP     0
        46 020611   021307 710000 46                 TRA     s:26924

     3369    26709    2        ELSE
     3370    26710    3          DO;

     3371    26711    3            REF$ = PILL -> ETT.LOP -> ETT.REF$;

  26711 46 020612   100001 474500                    LDP4    1,,PR1
        46 020613   400003 236100                    LDQ     3,,PR4
        46 020614   200116 756100                    STQ     REF$,,AUTO

     3372    26712
PL6.E3A0      #001=Z8HC$SPECIAL_CASES File=Z8HC.:Z8A6TSI                         TUE 08/26/97 07:51 Page:616
     3373    26713    3           CALL Z8HU$TAG(PILL -> ETT.ROP, REF$ -> REF.ST$ -> VARIABLE.B.GREATER_256K =
             26713                     TRUE);

  26713 46 020615   200116 475500                    LDP5    REF$,,AUTO
        46 020616   500005 476500                    LDP6    5,,PR5
        46 020617   400000 221003                    LDX1    -131072,DU
        46 020620   600003 236100                    LDQ     3,,PR6
        46 020621   020000 316003                    CANQ    8192,DU
        46 020622   020624 601000 46                 TNZ     s:26713+7
        46 020623   000000 221003                    LDX1    0,DU
        46 020624   000000 636011                    EAQ     0,X1
        46 020625   200302 676100                    ERQ     ORG1+1,,AUTO
        46 020626   400000 376003                    ANQ     -131072,DU
        46 020627   200302 656100                    ERSQ    ORG1+1,,AUTO
        46 020630   200302 633500                    EPPR3   ORG1+1,,AUTO
        46 020631   200305 453500                    STP3    ORG1+4,,AUTO
        46 020632   100002 634500                    EPPR4   2,,PR1
        46 020633   200304 454500                    STP4    ORG1+3,,AUTO
        46 020634   200304 630500                    EPPR0   ORG1+3,,AUTO
        46 020635   000013 631400 47                 EPPR1   11
        46 020636   000000 701000 xent               TSX1    Z8HU$TAG
        46 020637   000000 011000                    NOP     0

     3374    26714    3          END;

  26714 46 020640   021307 710000 46                 TRA     s:26924

     3375    26715
     3376    26716        %EJECT;
PL6.E3A0      #001=Z8HC$SPECIAL_CASES File=Z8HC.:Z8A6TSI                         TUE 08/26/97 07:51 Page:617
     3377    26717    2   CASE(%SSOP);

     3378    26718
     3379    26719    3    DO CASE(CASE_PASS);

  26719 46 020641   200005 473500                    LDP3    @CASE_PASS,,AUTO
        46 020642   300000 235100                    LDA     0,,PR3
        46 020643   000002 115007                    CMPA    2,DL
        46 020644   020646 602005 46                 TNC     s:26719+5,AL
        46 020645   021307 710000 46                 TRA     s:26924
        46 020646   020650 710000 46                 TRA     s:26721
        46 020647   020701 710000 46                 TRA     s:26729

     3380    26720    3      CASE(%FIRST_PASS);

     3381    26721    3        P$ = PILL -> ILL.ROP;

  26721 46 020650   100002 236100                    LDQ     2,,PR1
        46 020651   200064 756100                    STQ     P$,,AUTO

     3382    26722    4        DO WHILE P$ -> ETT.ID ~= %CVDI AND P$ -> ETT.ID < %FIRST_ST

  26722 46 020652   020656 710000 46                 TRA     s:26725

     3383    26723    4            AND P$ -> ETT.STATE = 0;
     3384    26724    4          P$ = P$ -> ETT.LOP;

  26724 46 020653   200064 470500                    LDP0    P$,,AUTO
        46 020654   000001 236100                    LDQ     1,,PR0
        46 020655   200064 756100                    STQ     P$,,AUTO

     3385    26725    4        END;

  26725 46 020656   200064 470500                    LDP0    P$,,AUTO
        46 020657   000000 220100                    LDX0    0,,PR0
        46 020660   000132 100003                    CMPX0   90,DU
        46 020661   020666 600000 46                 TZE     s:26726
PL6.E3A0      #001=Z8HC$SPECIAL_CASES File=Z8HC.:Z8A6TSI                         TUE 08/26/97 07:51 Page:618
        46 020662   000751 100003                    CMPX0   489,DU
        46 020663   020666 603000 46                 TRC     s:26726
        46 020664   000004 221100                    LDX1    4,,PR0
        46 020665   020653 600000 46                 TZE     s:26724

     3386    26726    3        IF P$ -> ETT.ID = %CVDI AND P$ -> ETT.STATE = 0 THEN

  26726 46 020666   000132 100003                    CMPX0   90,DU
        46 020667   021307 601000 46                 TNZ     s:26924
        46 020670   000004 221100                    LDX1    4,,PR0
        46 020671   021307 601000 46                 TNZ     s:26924

     3387    26727    3          CALL Z8HU$WALK (P$);

  26727 46 020672   200064 631500                    EPPR1   P$,,AUTO
        46 020673   200302 451500                    STP1    ORG1+1,,AUTO
        46 020674   200302 630500                    EPPR0   ORG1+1,,AUTO
        46 020675   000000 631400 47                 EPPR1   0
        46 020676   000000 701000 xent               TSX1    Z8HU$WALK
        46 020677   000000 011000                    NOP     0
        46 020700   021307 710000 46                 TRA     s:26924

     3388    26728    3      CASE(%SECOND_PASS);

     3389    26729    3        REF$ = PILL -> ETT.REF$;

  26729 46 020701   100003 236100                    LDQ     3,,PR1
        46 020702   200116 756100                    STQ     REF$,,AUTO

     3390    26730
     3391    26731    3        IF REF$ -> REF.PR_TAG$ ~= ADDR(NIL)

  26731 46 020703   200116 474500                    LDP4    REF$,,AUTO
        46 020704   400004 236100                    LDQ     4,,PR4
        46 020705   000005 116000 47                 CMPQ    5
        46 020706   021051 600000 46                 TZE     s:26761
        46 020707   400001 220100                    LDX0    1,,PR4
PL6.E3A0      #001=Z8HC$SPECIAL_CASES File=Z8HC.:Z8A6TSI                         TUE 08/26/97 07:51 Page:619
        46 020710   040000 100003                    CMPX0   16384,DU
        46 020711   020714 605400 46                 TPNZ    s:26735
        46 020712   740000 100003                    CMPX0   -16384,DU
        46 020713   021051 605000 46                 TPL     s:26761

     3392    26732    3            AND (REF$ -> REF.SIGNED_SA >   %#16K
     3393    26733    3                 OR REF$ -> REF.SIGNED_SA < - %#16K) THEN
     3394    26734    4          DO;

     3395    26735    5            DO CASE(PILL -> ETT.LOP -> ETT.OFFSET.TYPE);

  26735 46 020714   100001 475500                    LDP5    1,,PR1
        46 020715   500002 721100                    LXL1    2,,PR5
        46 020716   000007 101003                    CMPX1   7,DU
        46 020717   020721 602011 46                 TNC     s:26735+5,X1
        46 020720   020752 710000 46                 TRA     s:26749
        46 020721   020752 710000 46                 TRA     s:26749
        46 020722   020730 710000 46                 TRA     s:26737
        46 020723   020730 710000 46                 TRA     s:26737
        46 020724   020735 710000 46                 TRA     s:26740
        46 020725   020742 710000 46                 TRA     s:26743
        46 020726   020742 710000 46                 TRA     s:26743
        46 020727   020747 710000 46                 TRA     s:26746

     3396    26736    5              CASE(%NUMERIC4, %ALPHA4);

     3397    26737    5                MKCN.CON = (REF$ -> REF.SIGNED_SA) * 8;

  26737 46 020730   400001 236100                    LDQ     1,,PR4
        46 020731   000017 732000                    QRS     15
        46 020732   000110 376000 47                 ANQ     72
        46 020733   000000 756000 28                 STQ     MKCN
        46 020734   020752 710000 46                 TRA     s:26749

     3398    26738
     3399    26739    5              CASE(%ALPHA6);

PL6.E3A0      #001=Z8HC$SPECIAL_CASES File=Z8HC.:Z8A6TSI                         TUE 08/26/97 07:51 Page:620
     3400    26740    5                MKCN.CON = (REF$ -> REF.SIGNED_SA) * 6;

  26740 46 020735   400001 236100                    LDQ     1,,PR4
        46 020736   000022 732000                    QRS     18
        46 020737   000006 402007                    MPY     6,DL
        46 020740   000000 756000 28                 STQ     MKCN
        46 020741   020752 710000 46                 TRA     s:26749

     3401    26741
     3402    26742    5              CASE(%NUMERIC9, %ALPHA9);

     3403    26743    5                MKCN.CON = (REF$ -> REF.SIGNED_SA) * 4;

  26743 46 020742   400001 236100                    LDQ     1,,PR4
        46 020743   000020 732000                    QRS     16
        46 020744   000111 376000 47                 ANQ     73
        46 020745   000000 756000 28                 STQ     MKCN
        46 020746   020752 710000 46                 TRA     s:26749

     3404    26744
     3405    26745    5              CASE(%WORD_);

     3406    26746    5                MKCN.CON = REF$ -> REF.SIGNED_SA;

  26746 46 020747   400001 236100                    LDQ     1,,PR4
        46 020750   000022 732000                    QRS     18
        46 020751   000000 756000 28                 STQ     MKCN

     3407    26747    5            END /* Case */;

     3408    26748
     3409    26749    4            CALL Z8AC$MAKE_CONST(NODE$);

  26749 46 020752   200117 631500                    EPPR1   NODE$,,AUTO
        46 020753   200302 451500                    STP1    ORG1+1,,AUTO
        46 020754   200302 630500                    EPPR0   ORG1+1,,AUTO
        46 020755   000000 631400 47                 EPPR1   0
PL6.E3A0      #001=Z8HC$SPECIAL_CASES File=Z8HC.:Z8A6TSI                         TUE 08/26/97 07:51 Page:621
        46 020756   000000 701000 xent               TSX1    Z8AC$MAKE_CONST
        46 020757   000000 011000                    NOP     0

     3410    26750    4            CALL Z8AF$FORME(%ADI, PILL -> ETT.ROP, NODE$, P$);

  26750 46 020760   200003 470500                    LDP0    @PILL,,AUTO
        46 020761   000000 471500                    LDP1    0,,PR0
        46 020762   200064 633500                    EPPR3   P$,,AUTO
        46 020763   200305 453500                    STP3    ORG1+4,,AUTO
        46 020764   200117 634500                    EPPR4   NODE$,,AUTO
        46 020765   200304 454500                    STP4    ORG1+3,,AUTO
        46 020766   100002 635500                    EPPR5   2,,PR1
        46 020767   200303 455500                    STP5    ORG1+2,,AUTO
        46 020770   000076 236000 47                 LDQ     62
        46 020771   200302 756100                    STQ     ORG1+1,,AUTO
        46 020772   200302 630500                    EPPR0   ORG1+1,,AUTO
        46 020773   000025 631400 47                 EPPR1   21
        46 020774   000000 701000 xent               TSX1    Z8AF$FORME
        46 020775   000000 011000                    NOP     0

     3411    26751
     3412    26752    4            REF$ -> REF.SSOP_TAG$ = P$;

  26752 46 020776   200064 236100                    LDQ     P$,,AUTO
        46 020777   200116 470500                    LDP0    REF$,,AUTO
        46 021000   000002 756100                    STQ     2,,PR0

     3413    26753    4            P$ -> ETT.COUNT = PILL -> ETT.COUNT;

  26753 46 021001   200003 471500                    LDP1    @PILL,,AUTO
        46 021002   100000 473500                    LDP3    0,,PR1
        46 021003   300000 720100                    LXL0    0,,PR3
        46 021004   200064 474500                    LDP4    P$,,AUTO
        46 021005   400000 440100                    SXL0    0,,PR4

     3414    26754    4            REF$ -> REF.SA = 0;

PL6.E3A0      #001=Z8HC$SPECIAL_CASES File=Z8HC.:Z8A6TSI                         TUE 08/26/97 07:51 Page:622
  26754 46 021006   000000 220003                    LDX0    0,DU
        46 021007   000001 740100                    STX0    1,,PR0

     3415    26755
     3416    26756    4            CALL Z8HU$TAG(P$, REF$ -> REF.ST$ -> VARIABLE.B.GREATER_256K = TRUE);

  26756 46 021010   000005 473500                    LDP3    5,,PR0
        46 021011   400000 221003                    LDX1    -131072,DU
        46 021012   300003 236100                    LDQ     3,,PR3
        46 021013   020000 316003                    CANQ    8192,DU
        46 021014   021016 601000 46                 TNZ     s:26756+6
        46 021015   000000 221003                    LDX1    0,DU
        46 021016   000000 636011                    EAQ     0,X1
        46 021017   200302 676100                    ERQ     ORG1+1,,AUTO
        46 021020   400000 376003                    ANQ     -131072,DU
        46 021021   200302 656100                    ERSQ    ORG1+1,,AUTO
        46 021022   200302 633500                    EPPR3   ORG1+1,,AUTO
        46 021023   200305 453500                    STP3    ORG1+4,,AUTO
        46 021024   200064 634500                    EPPR4   P$,,AUTO
        46 021025   200304 454500                    STP4    ORG1+3,,AUTO
        46 021026   200304 630500                    EPPR0   ORG1+3,,AUTO
        46 021027   000013 631400 47                 EPPR1   11
        46 021030   000000 701000 xent               TSX1    Z8HU$TAG
        46 021031   000000 011000                    NOP     0

     3417    26757
     3418    26758    4            CALL Z8HU$DEC_COUNT(PILL -> ETT.ROP, (PILL -> ETT.COUNT -1));

  26758 46 021032   200003 470500                    LDP0    @PILL,,AUTO
        46 021033   000000 471500                    LDP1    0,,PR0
        46 021034   100000 236100                    LDQ     0,,PR1
        46 021035   777777 376007                    ANQ     -1,DL
        46 021036   000001 136007                    SBLQ    1,DL
        46 021037   200302 756100                    STQ     ORG1+1,,AUTO
        46 021040   200302 633500                    EPPR3   ORG1+1,,AUTO
        46 021041   200305 453500                    STP3    ORG1+4,,AUTO
        46 021042   100002 634500                    EPPR4   2,,PR1
PL6.E3A0      #001=Z8HC$SPECIAL_CASES File=Z8HC.:Z8A6TSI                         TUE 08/26/97 07:51 Page:623
        46 021043   200304 454500                    STP4    ORG1+3,,AUTO
        46 021044   200304 630500                    EPPR0   ORG1+3,,AUTO
        46 021045   000013 631400 47                 EPPR1   11
        46 021046   000000 701000 xent               TSX1    Z8HU$DEC_COUNT
        46 021047   000000 011000                    NOP     0

     3419    26759    4          END;

  26759 46 021050   021307 710000 46                 TRA     s:26924

     3420    26760    3        ELSE
     3421    26761    3          CALL Z8HU$TAG(PILL -> ETT.ROP, REF$ -> REF.ST$ -> VARIABLE.B.GREATER_256K =
             26761                   TRUE);

  26761 46 021051   400005 475500                    LDP5    5,,PR4
        46 021052   400000 220003                    LDX0    -131072,DU
        46 021053   500003 236100                    LDQ     3,,PR5
        46 021054   020000 316003                    CANQ    8192,DU
        46 021055   021057 601000 46                 TNZ     s:26761+6
        46 021056   000000 220003                    LDX0    0,DU
        46 021057   000000 636010                    EAQ     0,X0
        46 021060   200302 676100                    ERQ     ORG1+1,,AUTO
        46 021061   400000 376003                    ANQ     -131072,DU
        46 021062   200302 656100                    ERSQ    ORG1+1,,AUTO
        46 021063   200302 635500                    EPPR5   ORG1+1,,AUTO
        46 021064   200305 455500                    STP5    ORG1+4,,AUTO
        46 021065   100002 636500                    EPPR6   2,,PR1
        46 021066   200304 456500                    STP6    ORG1+3,,AUTO
        46 021067   200304 630500                    EPPR0   ORG1+3,,AUTO
        46 021070   000013 631400 47                 EPPR1   11
        46 021071   000000 701000 xent               TSX1    Z8HU$TAG
        46 021072   000000 011000                    NOP     0

     3422    26762    3    END; /* CASE */

  26762 46 021073   021307 710000 46                 TRA     s:26924

PL6.E3A0      #001=Z8HC$SPECIAL_CASES File=Z8HC.:Z8A6TSI                         TUE 08/26/97 07:51 Page:624
     3423    26763
     3424    26764        %EJECT;
PL6.E3A0      #001=Z8HC$SPECIAL_CASES File=Z8HC.:Z8A6TSI                         TUE 08/26/97 07:51 Page:625
     3425    26765    2   CASE(%SUB_ENTRY,%SUB_END);

     3426    26766
     3427    26767    2        PCOM.DABS = BITBIN(PILL->ILL.LOP->PARA.B.PFORM_NESTED);

  26767 46 021074   100001 473500                    LDP3    1,,PR1
        46 021075   300003 236100                    LDQ     3,,PR3
        46 021076   000030 772000                    QRL     24
        46 021077   000001 376007                    ANQ     1,DL
        46 021100   200004 474500                    LDP4    @PCOM,,AUTO
        46 021101   400003 756100                    STQ     3,,PR4
        46 021102   021307 710000 46                 TRA     s:26924

     3428    26768
     3429    26769        %EJECT;
PL6.E3A0      #001=Z8HC$SPECIAL_CASES File=Z8HC.:Z8A6TSI                         TUE 08/26/97 07:51 Page:626
     3430    26770    2   CASE(%USER_CALL);

     3431    26771
     3432    26772    2        ARGLIST$ = PILL -> ETT.LOP;

  26772 46 021103   100001 236100                    LDQ     1,,PR1
        46 021104   200120 756100                    STQ     ARGLIST$,,AUTO

     3433    26773    2        NUMBER_OF_ARGS = ARGLIST$ -> LTS.N - 1;

  26773 46 021105   200120 473500                    LDP3    ARGLIST$,,AUTO
        46 021106   300000 236100                    LDQ     0,,PR3
        46 021107   777777 376007                    ANQ     -1,DL
        46 021110   000001 136007                    SBLQ    1,DL
        46 021111   200121 756100                    STQ     NUMBER_OF_ARGS,,AUTO

     3434    26774
     3435    26775    3        DO CASE(CASE_PASS);

  26775 46 021112   200005 474500                    LDP4    @CASE_PASS,,AUTO
        46 021113   400000 235100                    LDA     0,,PR4
        46 021114   000002 115007                    CMPA    2,DL
        46 021115   021117 602005 46                 TNC     s:26775+5,AL
        46 021116   021307 710000 46                 TRA     s:26924
        46 021117   021121 710000 46                 TRA     s:26778
        46 021120   021143 710000 46                 TRA     s:26794

     3436    26776    3          CASE(%FIRST_PASS);

     3437    26777
     3438    26778    3            PCOM.OABS = 0;

  26778 46 021121   200004 475500                    LDP5    @PCOM,,AUTO
        46 021122   500016 450100                    STZ     14,,PR5

     3439    26779
     3440    26780    3            PCOM.DABS = NUMBER_OF_ARGS;
PL6.E3A0      #001=Z8HC$SPECIAL_CASES File=Z8HC.:Z8A6TSI                         TUE 08/26/97 07:51 Page:627

  26780 46 021123   500003 756100                    STQ     3,,PR5

     3441    26781
     3442    26782    3            IF PILL -> USER_CALL.ALTRET$ = ADDR(NIL) THEN

  26782 46 021124   000000 471500                    LDP1    0,,PR0
        46 021125   100004 236100                    LDQ     4,,PR1
        46 021126   000005 116000 47                 CMPQ    5
        46 021127   021132 601000 46                 TNZ     s:26785

     3443    26783    3              PCOM.EABS = 0;

  26783 46 021130   500004 450100                    STZ     4,,PR5
        46 021131   021134 710000 46                 TRA     s:26788

     3444    26784    3            ELSE
     3445    26785    3              PCOM.EABS = 1;

  26785 46 021132   000001 235007                    LDA     1,DL
        46 021133   500004 755100                    STA     4,,PR5

     3446    26786
     3447    26787
     3448    26788    3            IF NUMBER_OF_ARGS = 0 THEN

  26788 46 021134   200121 235100                    LDA     NUMBER_OF_ARGS,,AUTO
        46 021135   021140 601000 46                 TNZ     s:26791

     3449    26789    3              PCOM.WABS = 0;

  26789 46 021136   500026 450100                    STZ     22,,PR5
        46 021137   021307 710000 46                 TRA     s:26924

     3450    26790    3            ELSE
     3451    26791    3              PCOM.WABS = 1;

PL6.E3A0      #001=Z8HC$SPECIAL_CASES File=Z8HC.:Z8A6TSI                         TUE 08/26/97 07:51 Page:628
  26791 46 021140   000001 236007                    LDQ     1,DL
        46 021141   500026 756100                    STQ     22,,PR5
        46 021142   021307 710000 46                 TRA     s:26924

     3452    26792
     3453    26793    3          CASE(%SECOND_PASS);

     3454    26794    4            DO I = 0 TO NUMBER_OF_ARGS - 1;

  26794 46 021143   200065 450100                    STZ     I,,AUTO
        46 021144   021161 710000 46                 TRA     s:26796+1

     3455    26795    4              CALL Z8HU$DEC_COUNT(ARGLIST$ -> ARGLIST.ARG$(I),1);

  26795 46 021145   000016 236000 47                 LDQ     14
        46 021146   200303 756100                    STQ     ORG1+2,,AUTO
        46 021147   200065 236100                    LDQ     I,,AUTO
        46 021150   000022 736000                    QLS     18
        46 021151   000001 036003                    ADLQ    1,DU
        46 021152   200120 036100                    ADLQ    ARGLIST$,,AUTO
        46 021153   200302 756100                    STQ     ORG1+1,,AUTO
        46 021154   200302 630500                    EPPR0   ORG1+1,,AUTO
        46 021155   000013 631400 47                 EPPR1   11
        46 021156   000000 701000 xent               TSX1    Z8HU$DEC_COUNT
        46 021157   000000 011000                    NOP     0

     3456    26796    4            END;

  26796 46 021160   200065 054100                    AOS     I,,AUTO
        46 021161   200065 236100                    LDQ     I,,AUTO
        46 021162   200121 116100                    CMPQ    NUMBER_OF_ARGS,,AUTO
        46 021163   021145 604000 46                 TMI     s:26795

     3457    26797
     3458    26798    3        END /* Case */;

  26798 46 021164   021307 710000 46                 TRA     s:26924
PL6.E3A0      #001=Z8HC$SPECIAL_CASES File=Z8HC.:Z8A6TSI                         TUE 08/26/97 07:51 Page:629

     3459    26799        %EJECT;
PL6.E3A0      #001=Z8HC$SPECIAL_CASES File=Z8HC.:Z8A6TSI                         TUE 08/26/97 07:51 Page:630
     3460    26800    2   CASE(%USE_END);

     3461    26801
     3462    26802    2        PCOM.YOPND = USE_PROC_RETURN;

  26802 46 021165   000000 236000 17                 LDQ     USE_PROC_RETURN
        46 021166   200004 473500                    LDP3    @PCOM,,AUTO
        46 021167   300062 756100                    STQ     50,,PR3

     3463    26803    2        PCOM.NABS = PILL -> ILL.CODE;

  26803 46 021170   000000 471500                    LDP1    0,,PR0
        46 021171   100000 236100                    LDQ     0,,PR1
        46 021172   777777 376007                    ANQ     -1,DL
        46 021173   300015 756100                    STQ     13,,PR3

     3464    26804    2        IF PCOM.NABS >= %USE_GLOBAL THEN /* GLOBAL */

  26804 46 021174   000010 116007                    CMPQ    8,DL
        46 021175   021214 604000 46                 TMI     s:26813

     3465    26805    3          DO;

     3466    26806    3            PCOM.NABS = PCOM.NABS - %USE_GLOBAL;

  26806 46 021176   000010 336007                    LCQ     8,DL
        46 021177   300015 056100                    ASQ     13,,PR3

     3467    26807    3            IF PILL -> ILL.LOP -> SYMDEF_.PROC$ -> PROC_.PROC_SUPP$ -> PROC_SUPP.
             26807                     EXIT_PROG_IN_DECL THEN

  26807 46 021200   000000 471500                    LDP1    0,,PR0
        46 021201   100001 474500                    LDP4    1,,PR1
        46 021202   400011 475500                    LDP5    9,,PR4
        46 021203   500001 476500                    LDP6    1,,PR5
        46 021204   600001 236100                    LDQ     1,,PR6
        46 021205   000200 316007                    CANQ    128,DL
PL6.E3A0      #001=Z8HC$SPECIAL_CASES File=Z8HC.:Z8A6TSI                         TUE 08/26/97 07:51 Page:631
        46 021206   021212 600000 46                 TZE     s:26810

     3468    26808    3              PCOM.DABS = 1;

  26808 46 021207   000001 235007                    LDA     1,DL
        46 021210   300003 755100                    STA     3,,PR3
        46 021211   021215 710000 46                 TRA     s:26834

     3469    26809    3            ELSE
     3470    26810    3              PCOM.DABS = 0;

  26810 46 021212   300003 450100                    STZ     3,,PR3

     3471    26811    3          END;

  26811 46 021213   021215 710000 46                 TRA     s:26834

     3472    26812    2        ELSE
     3473    26813    2          PCOM.DABS = 0;

  26813 46 021214   300003 450100                    STZ     3,,PR3

     3474    26814
     3475    26815             %IF GCOS;
     3476    26816 C           CURRENT_ENTRY$ = PREV_ENTRY$;
     3477    26817 C
     3478    26818 C
     3479    26819 C           P2$ = PILL -> ILL.LOP ;
     3480    26820 C           IF P2$ ~= ADDR(NIL)  THEN
     3481    26821 C             P2$ = P2$ -> SYMDEF_.PROC$ -> PROC_.PROC_SUPP$ -> PROC_SUPP.P2_SAVE$;
     3482    26822 C
     3483    26823 C           IF P2$ ~= ADDR(NIL)  THEN
     3484    26824 C             DO;
     3485    26825 C               PCOM.BABS = %STACK_HEADER_SIZE + %#16K;
     3486    26826 C               PCOM.CABS = 1;
     3487    26827 C               PCOM.JOPND = P2$;
     3488    26828 C               PCOM.MABS = ((NUMBER_OF_ARGS / 2) + 1) / 2;  /* REMOVE DESC & EVEN */
PL6.E3A0      #001=Z8HC$SPECIAL_CASES File=Z8HC.:Z8A6TSI                         TUE 08/26/97 07:51 Page:632
     3489    26829 C             END;
     3490    26830 C           ELSE
     3491    26831 C             PCOM.CABS = 0;
     3492    26832             %ENDIF;
     3493    26833             %IF CP6;
     3494    26834    2        IF DML_IA$ = ADDR (NIL) THEN

  26834 46 021215   000007 236000 25                 LDQ     DML_IA$
        46 021216   000005 116000 47                 CMPQ    5
        46 021217   021222 601000 46                 TNZ     s:26838

     3495    26835    2          PCOM.RABS = 0; /* Report writer USE proc */

  26835 46 021220   300021 450100                    STZ     17,,PR3
        46 021221   021307 710000 46                 TRA     s:26924

     3496    26836    2        ELSE
     3497    26837    3          DO;

     3498    26838    3            PCOM.RABS = 1; /* DML USE proc */

  26838 46 021222   000001 235007                    LDA     1,DL
        46 021223   300021 755100                    STA     17,,PR3

     3499    26839    3            PCOM.ROPND = DML_IA$;

  26839 46 021224   300053 756100                    STQ     43,,PR3

     3500    26840    3          END;

  26840 46 021225   021307 710000 46                 TRA     s:26924

     3501    26841             %ENDIF;
     3502    26842
     3503    26843    2   CASE(%USE_ENTRY);

     3504    26844
PL6.E3A0      #001=Z8HC$SPECIAL_CASES File=Z8HC.:Z8A6TSI                         TUE 08/26/97 07:51 Page:633
     3505    26845             %IF GCOS;
     3506    26846 C           DO CASE( CASE_PASS );
     3507    26847 C
     3508    26848 C             CASE( %FIRST_PASS );
     3509    26849                 %ENDIF;
     3510    26850    2            PCOM.NABS = PILL -> ILL.CODE;

  26850 46 021226   100000 236100                    LDQ     0,,PR1
        46 021227   777777 376007                    ANQ     -1,DL
        46 021230   200004 473500                    LDP3    @PCOM,,AUTO
        46 021231   300015 756100                    STQ     13,,PR3

     3511    26851    2            IF PCOM.NABS >= %USE_GLOBAL THEN /* GLOBAL */

  26851 46 021232   000010 116007                    CMPQ    8,DL
        46 021233   021255 604000 46                 TMI     s:26864

     3512    26852    3              DO;

     3513    26853    3                PCOM.NABS = PCOM.NABS - %USE_GLOBAL;

  26853 46 021234   000010 336007                    LCQ     8,DL
        46 021235   300015 056100                    ASQ     13,,PR3

     3514    26854    3                IF PILL -> ILL.LOP -> SYMDEF_.PROC$ -> PROC_.PROC_SUPP$ -> PROC_SUPP.
             26854                         EXIT_PROG_IN_DECL THEN

  26854 46 021236   000000 471500                    LDP1    0,,PR0
        46 021237   100001 474500                    LDP4    1,,PR1
        46 021240   400011 475500                    LDP5    9,,PR4
        46 021241   500001 476500                    LDP6    1,,PR5
        46 021242   600001 236100                    LDQ     1,,PR6
        46 021243   000200 316007                    CANQ    128,DL
        46 021244   021253 600000 46                 TZE     s:26860

     3515    26855    4                  DO;

PL6.E3A0      #001=Z8HC$SPECIAL_CASES File=Z8HC.:Z8A6TSI                         TUE 08/26/97 07:51 Page:634
     3516    26856    4                    PCOM.DABS = 1;

  26856 46 021245   000001 235007                    LDA     1,DL
        46 021246   300003 755100                    STA     3,,PR3

     3517    26857    4                    PCOM.POPND = PILL -> ENTRY_ILL.EXIT_PROG$;

  26857 46 021247   000000 471500                    LDP1    0,,PR0
        46 021250   100004 236100                    LDQ     4,,PR1
        46 021251   300051 756100                    STQ     41,,PR3

     3518    26858    4                  END;

  26858 46 021252   021261 710000 46                 TRA     s:26869

     3519    26859    3                ELSE
     3520    26860    3                  PCOM.DABS = 0;

  26860 46 021253   300003 450100                    STZ     3,,PR3

     3521    26861    3              END;

  26861 46 021254   021261 710000 46                 TRA     s:26869

     3522    26862    2            ELSE
     3523    26863    3              DO;

     3524    26864    3                IF PCOM.NABS = %INIT_PROC

  26864 46 021255   000004 116007                    CMPQ    4,DL
        46 021256   021260 601000 46                 TNZ     s:26866

     3525    26865    3                  THEN PCOM.NABS = %USE_PROC;

  26865 46 021257   300015 450100                    STZ     13,,PR3

     3526    26866    3                PCOM.DABS = 0;
PL6.E3A0      #001=Z8HC$SPECIAL_CASES File=Z8HC.:Z8A6TSI                         TUE 08/26/97 07:51 Page:635

  26866 46 021260   300003 450100                    STZ     3,,PR3

     3527    26867    3              END;

     3528    26868                 %IF CP6;
     3529    26869    2            IF PILL -> ILL.ROPCON = 0 THEN

  26869 46 021261   000000 471500                    LDP1    0,,PR0
        46 021262   100002 235100                    LDA     2,,PR1
        46 021263   021270 601000 46                 TNZ     s:26876

     3530    26870    3              DO;

     3531    26871    3                PCOM.RABS = 0; /* Report writer USE proc */

  26871 46 021264   300021 450100                    STZ     17,,PR3

     3532    26872    3                DML_IA$ = ADDR (NIL);

  26872 46 021265   000005 236000 47                 LDQ     5
        46 021266   000007 756000 25                 STQ     DML_IA$

     3533    26873    3              END;

  26873 46 021267   021275 710000 46                 TRA     s:26908

     3534    26874    2            ELSE
     3535    26875    3              DO;

     3536    26876    3                PCOM.RABS = 1; /* DML USE proc */

  26876 46 021270   000001 236007                    LDQ     1,DL
        46 021271   300021 756100                    STQ     17,,PR3

     3537    26877    3                DML_IA$ = PILL -> ILL.ROP;

PL6.E3A0      #001=Z8HC$SPECIAL_CASES File=Z8HC.:Z8A6TSI                         TUE 08/26/97 07:51 Page:636
  26877 46 021272   000000 471500                    LDP1    0,,PR0
        46 021273   100002 236100                    LDQ     2,,PR1
        46 021274   000007 756000 25                 STQ     DML_IA$

     3538    26878    3              END;

     3539    26879                 %ENDIF;
     3540    26880                 %IF GCOS;
     3541    26881 C               PCOM.ZOPND = COMCOM.ESC -> ETT.LOP;
     3542    26882 C               PCOM.HABS = COMCOM.ESC -> ETT.ROPCON;
     3543    26883 C               IF COMCOM.OB.MS_DATA   THEN
     3544    26884 C                 PCOM.TABS = 0;
     3545    26885 C               ELSE
     3546    26886 C                 PCOM.TABS = 1;
     3547    26887 C
     3548    26888 C               PREV_ENTRY$ = CURRENT_ENTRY$;
     3549    26889 C               CURRENT_ENTRY$ = PILL;
     3550    26890 C
     3551    26891 C             CASE( %SECOND_PASS );
     3552    26892 C
     3553    26893 C               P2$ = PILL -> ILL.LOP ;
     3554    26894 C               IF P2$ ~= ADDR(NIL) THEN
     3555    26895 C                 P2$ = P2$ -> SYMDEF_.PROC$ -> PROC_.PROC_SUPP$ -> PROC_SUPP.P2_SAVE$;
     3556    26896 C
     3557    26897 C               IF P2$ ~= ADDR(NIL)   THEN
     3558    26898 C                 DO;
     3559    26899 C                   PCOM.BABS = %STACK_HEADER_SIZE + %#16K;
     3560    26900 C                   PCOM.CABS = 1;
     3561    26901 C                   PCOM.JOPND = P2$;
     3562    26902 C                   PCOM.PABS = PILL -> ILL.LOP -> SYMDEF_.PROC$ -> PROC_.B.ARG_COUNT;
     3563    26903 C                   PCOM.PABS = (PCOM.PABS + 1) / 2;      /* LDAQ  &  STAQ */
     3564    26904 C                 END;
     3565    26905 C               ELSE
     3566    26906 C                 PCOM.CABS = 0;
     3567    26907                 %ENDIF;
     3568    26908    2            CALL RESTORE_GLOBAL_REGISTERS;

PL6.E3A0      #001=Z8HC$SPECIAL_CASES File=Z8HC.:Z8A6TSI                         TUE 08/26/97 07:51 Page:637
  26908 46 021275   022115 701000 46                 TSX1    RESTORE_GLOBAL_REGISTERS
        46 021276   000000 011000                    NOP     0

     3569    26909
     3570    26910    2            USE_PROC_RETURN = PCOM.YOPND;

  26910 46 021277   200004 470500                    LDP0    @PCOM,,AUTO
        46 021300   000062 236100                    LDQ     50,,PR0
        46 021301   000000 756000 17                 STQ     USE_PROC_RETURN
        46 021302   021307 710000 46                 TRA     s:26924

     3571    26911
     3572    26912               %IF GCOS;
     3573    26913 C             CASE( %THIRD_PASS, %FOURTH_PASS );
     3574    26914 C
     3575    26915 C               CALL RESTORE_GLOBAL_REGISTERS;
     3576    26916 C
     3577    26917 C           END; /* CASE_PASS */
     3578    26918             %ENDIF;
     3579    26919
     3580    26920        %EJECT;
PL6.E3A0      #001=Z8HC$SPECIAL_CASES File=Z8HC.:Z8A6TSI                         TUE 08/26/97 07:51 Page:638
     3581    26921    2   CASE(ELSE);

     3582    26922    2       CALL Z8AE$ERROR(%E$UNEXPECTED_CASE);

  26922 46 021303   000061 630400 47                 EPPR0   49
        46 021304   000000 631400 47                 EPPR1   0
        46 021305   000000 701000 xent               TSX1    Z8AE$ERROR
        46 021306   000000 011000                    NOP     0

     3583    26923        %EJECT;
PL6.E3A0      #001=Z8HC$SPECIAL_CASES File=Z8HC.:Z8A6TSI                         TUE 08/26/97 07:51 Page:639
     3584    26924    2   END /* Case */;

  26924 46 021307   022724 710000 46                 TRA     s:27623

     3585    26925        %EJECT;
PL6.E3A0      #001=Z8HC$SPECIAL_CASES File=Z8HC.:Z8A6TSI                         TUE 08/26/97 07:51 Page:640
     3586    26926    1   ALPHANUMERIC_PRESET:PROC(TARGET_LENGTH);

  26926 46 021310   200262 741300       ALPHANUMERI* STX1  ! LOWER$+1,,AUTO

     3587    26927        /*I*
     3588    26928             NAME: ALPHANUMERIC_PRESET
     3589    26929             PURPOSE:
     3590    26930                  Alphanumeric preset.
     3591    26931             CALL:
     3592    26932                  CALL ALPHANUMERIC_PRESET (TARGET_LENGTH);
     3593    26933             PARAMETERS:
     3594    26934                  TARGET_LENGTH - Length in characters of the receiving guy.
     3595    26935             DESCRIPTION:
     3596    26936                  Move one character at a time into the receiving guy.
     3597    26937                  When a word is full, call FLUSH.  If the receiving
     3598    26938                  guy is shorter than the sending guy, then truncate.
     3599    26939                  If the receiving guy is longer than the sending guy
     3600    26940                  and the ALL bit in the sending guy is set, then
     3601    26941                  move as many copies of the sending item in as will fit,
     3602    26942                  maybe with truncation of the last one moved in.  If
     3603    26943                  the receiving guy is shorter and no ALL bit is set
     3604    26944                  then blank fill.
     3605    26945        */
     3606    26946
     3607    26947    2        DCL TARGET_LENGTH       SBIN WORD;
     3608    26948
     3609    26949    2        TOTAL_MOVED = 0;

  26949 46 021311   200136 450100                    STZ     TOTAL_MOVED,,AUTO

     3610    26950    2        SOURCE      = 0;

  26950 46 021312   200137 450100                    STZ     SOURCE,,AUTO

     3611    26951
     3612    26952
     3613    26953    2        TARGET = TARGET$ -> VARIABLE.NDSC.CN / 2;
PL6.E3A0      #001=Z8HC$SPECIAL_CASES File=Z8HC.:Z8A6TSI                         TUE 08/26/97 07:51 Page:641

  26953 46 021313   200134 470500                    LDP0    TARGET$,,AUTO
        46 021314   000001 236100                    LDQ     1,,PR0
        46 021315   000017 772000                    QRL     15
        46 021316   000007 376007                    ANQ     7,DL
        46 021317   000001 772000                    QRL     1
        46 021320   000002 756000 25                 STQ     TARGET

     3614    26954
     3615    26955    3   LP:  DO WHILE(TOTAL_MOVED < TARGET_LENGTH);

  26955 46 021321   200263 471500       LP           LDP1    @TARGET_LENGTH,,AUTO
        46 021322   200136 236100                    LDQ     TOTAL_MOVED,,AUTO
        46 021323   100000 116100                    CMPQ    0,,PR1
        46 021324   021447 605000 46                 TPL     s:27000

     3616    26956    3          IF SOURCE >= CONSTANT$ -> CONST.ADSC.N THEN

  26956 46 021325   000001 470400 25                 LDP0    CONSTANT$
        46 021326   000001 236100                    LDQ     1,,PR0
        46 021327   007777 376007                    ANQ     4095,DL
        46 021330   200137 116100                    CMPQ    SOURCE,,AUTO
        46 021331   021421 605400 46                 TPNZ    s:26985

     3617    26957    3            IF CONSTANT$ -> CONST.B.ALL THEN

  26957 46 021332   000003 236100                    LDQ     3,,PR0
        46 021333   040000 316003                    CANQ    16384,DU
        46 021334   021337 600000 46                 TZE     s:26961

     3618    26958    3              SOURCE = 0;

  26958 46 021335   200137 450100                    STZ     SOURCE,,AUTO
        46 021336   021421 710000 46                 TRA     s:26985

     3619    26959    3            ELSE
     3620    26960    4              DO;
PL6.E3A0      #001=Z8HC$SPECIAL_CASES File=Z8HC.:Z8A6TSI                         TUE 08/26/97 07:51 Page:642

     3621    26961    5                DO WHILE(TARGET_LENGTH > TOTAL_MOVED);

  26961 46 021337   200263 471500                    LDP1    @TARGET_LENGTH,,AUTO
        46 021340   100000 236100                    LDQ     0,,PR1
        46 021341   200136 116100                    CMPQ    TOTAL_MOVED,,AUTO
        46 021342   021420 604400 46                 TMOZ    s:26982

     3622    26962    6                  DO CASE (TARGET$ -> SCALAR.TYPE);

  26962 46 021343   200134 470500                    LDP0    TARGET$,,AUTO
        46 021344   000002 236100                    LDQ     2,,PR0
        46 021345   000022 772000                    QRL     18
        46 021346   000006 136007                    SBLQ    6,DL
        46 021347   000011 116007                    CMPQ    9,DL
        46 021350   021352 602006 46                 TNC     s:26962+7,QL
        46 021351   021401 710000 46                 TRA     s:26971
        46 021352   021375 710000 46                 TRA     s:26968
        46 021353   021401 710000 46                 TRA     s:26971
        46 021354   021370 710000 46                 TRA     s:26966
        46 021355   021401 710000 46                 TRA     s:26971
        46 021356   021401 710000 46                 TRA     s:26971
        46 021357   021401 710000 46                 TRA     s:26971
        46 021360   021401 710000 46                 TRA     s:26971
        46 021361   021401 710000 46                 TRA     s:26971
        46 021362   021363 710000 46                 TRA     s:26964

     3623    26963    6                    CASE (%TYN);

     3624    26964    6                      SUBSTR(CHAR_BUFFER,TARGET,1) = %KANJI_SPACE ;

  26964 46 021363   000002 235000 25                 LDA     TARGET
        46 021364   040005 100400                    MLR     fill='040'O
        46 021365   000112 000001 47                 ADSC9   74                       cn=0,n=1
        46 021366   000004 000001 25                 ADSC9   BUFFER,A                 cn=0,n=1
        46 021367   021401 710000 46                 TRA     s:26971

PL6.E3A0      #001=Z8HC$SPECIAL_CASES File=Z8HC.:Z8A6TSI                         TUE 08/26/97 07:51 Page:643
     3625    26965    6                    CASE (%TYA);

     3626    26966    6                      SUBSTR(CHAR_BUFFER,TARGET,1) = ' ';

  26966 46 021370   000002 235000 25                 LDA     TARGET
        46 021371   040005 100400                    MLR     fill='040'O
        46 021372   000113 000001 47                 ADSC9   75                       cn=0,n=1
        46 021373   000004 000001 25                 ADSC9   BUFFER,A                 cn=0,n=1
        46 021374   021401 710000 46                 TRA     s:26971

     3627    26967    6                    CASE (%TYE);

     3628    26968    6                      SUBSTR(CHAR_BUFFER,TARGET,1) = BITASC ('100'O);

  26968 46 021375   000002 235000 25                 LDA     TARGET
        46 021376   040005 100400                    MLR     fill='040'O
        46 021377   000114 000001 47                 ADSC9   76                       cn=0,n=1
        46 021400   000004 000001 25                 ADSC9   BUFFER,A                 cn=0,n=1

     3629    26969    6                  END;

     3630    26970
     3631    26971    5                  TARGET = TARGET + 1;

  26971 46 021401   000002 054000 25                 AOS     TARGET

     3632    26972    5                  TOTAL_MOVED = TOTAL_MOVED + 1;

  26972 46 021402   200136 054100                    AOS     TOTAL_MOVED,,AUTO

     3633    26973
     3634    26974    5                  IF TARGET = 4 THEN

  26974 46 021403   000002 235000 25                 LDA     TARGET
        46 021404   000004 115007                    CMPA    4,DL
        46 021405   021414 601000 46                 TNZ     s:26980

PL6.E3A0      #001=Z8HC$SPECIAL_CASES File=Z8HC.:Z8A6TSI                         TUE 08/26/97 07:51 Page:644
     3635    26975    6                    DO;

     3636    26976    6                      CALL FLUSH_BUFFER(CURRENT_SA);

  26976 46 021406   200242 631500                    EPPR1   CURRENT_SA,,AUTO
        46 021407   200265 451500                    STP1    SEND$+1,,AUTO
        46 021410   021605 701000 46                 TSX1    FLUSH_BUFFER
        46 021411   000000 011000                    NOP     0

     3637    26977    6                      TARGET = 0;

  26977 46 021412   000002 450000 25                 STZ     TARGET

     3638    26978    6                      CURRENT_SA = CURRENT_SA + 1;

  26978 46 021413   200242 054100                    AOS     CURRENT_SA,,AUTO

     3639    26979    6                    END;

     3640    26980    5                END /* While */;

  26980 46 021414   200263 470500                    LDP0    @TARGET_LENGTH,,AUTO
        46 021415   000000 236100                    LDQ     0,,PR0
        46 021416   200136 116100                    CMPQ    TOTAL_MOVED,,AUTO
        46 021417   021343 605400 46                 TPNZ    s:26962

     3641    26981
     3642    26982    4                EXIT LP;

  26982 46 021420   021447 710000 46                 TRA     s:27000

     3643    26983    4              END;
     3644    26984
     3645    26985    3          SUBSTR(CHAR_BUFFER,TARGET,1) = SUBSTR(STRING$ -> CHARS,SOURCE,1);

  26985 46 021421   200133 471500                    LDP1    STRING$,,AUTO
        46 021422   200137 235100                    LDA     SOURCE,,AUTO
PL6.E3A0      #001=Z8HC$SPECIAL_CASES File=Z8HC.:Z8A6TSI                         TUE 08/26/97 07:51 Page:645
        46 021423   000002 236000 25                 LDQ     TARGET
        46 021424   040006 100505                    MLR     fill='040'O
        46 021425   100000 000001                    ADSC9   0,A,PR1                  cn=0,n=1
        46 021426   000004 000001 25                 ADSC9   BUFFER,Q                 cn=0,n=1

     3646    26986
     3647    26987    3          TOTAL_MOVED = TOTAL_MOVED + 1;

  26987 46 021427   200136 054100                    AOS     TOTAL_MOVED,,AUTO

     3648    26988    3          SOURCE = SOURCE + 1;

  26988 46 021430   200137 054100                    AOS     SOURCE,,AUTO

     3649    26989    3          TARGET = TARGET + 1;

  26989 46 021431   000002 054000 25                 AOS     TARGET

     3650    26990
     3651    26991    3          IF TARGET = 4 THEN

  26991 46 021432   000002 235000 25                 LDA     TARGET
        46 021433   000004 115007                    CMPA    4,DL
        46 021434   021443 601000 46                 TNZ     s:26998

     3652    26992    4            DO;

     3653    26993    4              CALL FLUSH_BUFFER(CURRENT_SA);

  26993 46 021435   200242 630500                    EPPR0   CURRENT_SA,,AUTO
        46 021436   200265 450500                    STP0    SEND$+1,,AUTO
        46 021437   021605 701000 46                 TSX1    FLUSH_BUFFER
        46 021440   000000 011000                    NOP     0

     3654    26994    4              TARGET = 0;

  26994 46 021441   000002 450000 25                 STZ     TARGET
PL6.E3A0      #001=Z8HC$SPECIAL_CASES File=Z8HC.:Z8A6TSI                         TUE 08/26/97 07:51 Page:646

     3655    26995    4              CURRENT_SA = CURRENT_SA + 1;

  26995 46 021442   200242 054100                    AOS     CURRENT_SA,,AUTO

     3656    26996    4            END;

     3657    26997
     3658    26998    3        END /* While */;

  26998 46 021443   200263 470500                    LDP0    @TARGET_LENGTH,,AUTO
        46 021444   200136 236100                    LDQ     TOTAL_MOVED,,AUTO
        46 021445   000000 116100                    CMPQ    0,,PR0
        46 021446   021325 604000 46                 TMI     s:26956

     3659    26999
     3660    27000    2        BITS_IN_BUFFER = TARGET * 9;

  27000 46 021447   000002 236000 25                 LDQ     TARGET
        46 021450   000011 402007                    MPY     9,DL
        46 021451   000003 756000 25                 STQ     BITS_IN_BUFFER

     3661    27001    2        OLD_SA = CURRENT_SA;

  27001 46 021452   200242 235100                    LDA     CURRENT_SA,,AUTO
        46 021453   000006 755000 25                 STA     OLD_SA

     3662    27002
     3663    27003
     3664    27004    2   END ALPHANUMERIC_PRESET;

  27004 46 021454   200262 221300                    LDX1  ! LOWER$+1,,AUTO
        46 021455   000001 702211                    TSX2  ! 1,X1

     3665    27005        %EJECT;
PL6.E3A0      #001=Z8HC$SPECIAL_CASES File=Z8HC.:Z8A6TSI                         TUE 08/26/97 07:51 Page:647
     3666    27006    1   GBCD_PRESET:PROC(TARGET_LENGTH);

  27006 46 021456   200262 741300       GBCD_PRESET  STX1  ! LOWER$+1,,AUTO

     3667    27007        /*I*
     3668    27008             NAME: GBCD_PRESET
     3669    27009             PURPOSE:
     3670    27010                  GBCD preset.
     3671    27011             CALL:
     3672    27012                  CALL GBCD_PRESET (TARGET_LENGTH);
     3673    27013             PARAMETERS:
     3674    27014                  TARGET_LENGTH - Length in characters of the receiving guy.
     3675    27015             DESCRIPTION:
     3676    27016                  Move one character at a time into the receiving guy.
     3677    27017                  When a word is full, call FLUSH.  If the receiving
     3678    27018                  guy is shorter than the sending guy, then truncate.
     3679    27019                  If the receiving guy is longer than the sending guy
     3680    27020                  and the ALL bit in the sending guy is set, then
     3681    27021                  move as many copies of the sending item in as will fit,
     3682    27022                  maybe with truncation of the last one moved in.  If
     3683    27023                  the receiving guy is shorter and no ALL bit is set
     3684    27024                  then blank fill.
     3685    27025        */
     3686    27026
     3687    27027    2        DCL TARGET_LENGTH       SBIN WORD;
     3688    27028
     3689    27029    2        TOTAL_MOVED = 0;

  27029 46 021457   200136 450100                    STZ     TOTAL_MOVED,,AUTO

     3690    27030    2        SOURCE      = 0;

  27030 46 021460   200137 450100                    STZ     SOURCE,,AUTO

     3691    27031
     3692    27032    2        TARGET = TARGET$ -> VARIABLE.NDSC.CN;

PL6.E3A0      #001=Z8HC$SPECIAL_CASES File=Z8HC.:Z8A6TSI                         TUE 08/26/97 07:51 Page:648
  27032 46 021461   200134 470500                    LDP0    TARGET$,,AUTO
        46 021462   000001 236100                    LDQ     1,,PR0
        46 021463   000017 772000                    QRL     15
        46 021464   000007 376007                    ANQ     7,DL
        46 021465   000002 756000 25                 STQ     TARGET

     3693    27033
     3694    27034    3   LP:  DO WHILE(TOTAL_MOVED < TARGET_LENGTH);

  27034 46 021466   200263 471500       LP           LDP1    @TARGET_LENGTH,,AUTO
        46 021467   200136 236100                    LDQ     TOTAL_MOVED,,AUTO
        46 021470   100000 116100                    CMPQ    0,,PR1
        46 021471   021576 605000 46                 TPL     s:27071

     3695    27035    3          IF SOURCE >= CONSTANT$ -> CONST.ADSC.N THEN

  27035 46 021472   000001 470400 25                 LDP0    CONSTANT$
        46 021473   000001 236100                    LDQ     1,,PR0
        46 021474   007777 376007                    ANQ     4095,DL
        46 021475   200137 116100                    CMPQ    SOURCE,,AUTO
        46 021476   021536 605400 46                 TPNZ    s:27057

     3696    27036    3            IF CONSTANT$ -> CONST.B.ALL THEN

  27036 46 021477   000003 236100                    LDQ     3,,PR0
        46 021500   040000 316003                    CANQ    16384,DU
        46 021501   021504 600000 46                 TZE     s:27040

     3697    27037    3              SOURCE = 0;

  27037 46 021502   200137 450100                    STZ     SOURCE,,AUTO
        46 021503   021536 710000 46                 TRA     s:27057

     3698    27038    3            ELSE
     3699    27039    4              DO;

     3700    27040    5                DO WHILE(TARGET_LENGTH > TOTAL_MOVED);
PL6.E3A0      #001=Z8HC$SPECIAL_CASES File=Z8HC.:Z8A6TSI                         TUE 08/26/97 07:51 Page:649

  27040 46 021504   200263 471500                    LDP1    @TARGET_LENGTH,,AUTO
        46 021505   100000 236100                    LDQ     0,,PR1
        46 021506   200136 116100                    CMPQ    TOTAL_MOVED,,AUTO
        46 021507   021535 604400 46                 TMOZ    s:27054

     3701    27041    5                  BCD_BUFFER(TARGET) = '20'O; /* BCD space */

  27041 46 021510   000002 235000 25                 LDA     TARGET
        46 021511   021513 605000 46                 TPL     s:27041+3
        46 021512   000006 035003                    ADLA    6,DU
        46 021513   000005 100400                    MLR     fill='000'O
        46 021514   000115 020001 47                 ADSC6   77                       cn=0,n=1
        46 021515   000004 020001 25                 ADSC6   BUFFER,A                 cn=0,n=1

     3702    27042
     3703    27043    5                  TARGET = TARGET + 1;

  27043 46 021516   000002 054000 25                 AOS     TARGET

     3704    27044    5                  TOTAL_MOVED = TOTAL_MOVED + 1;

  27044 46 021517   200136 054100                    AOS     TOTAL_MOVED,,AUTO

     3705    27045
     3706    27046    5                  IF TARGET = 6 THEN

  27046 46 021520   000002 235000 25                 LDA     TARGET
        46 021521   000006 115007                    CMPA    6,DL
        46 021522   021531 601000 46                 TNZ     s:27052

     3707    27047    6                    DO;

     3708    27048    6                      CALL FLUSH_BUFFER(CURRENT_SA);

  27048 46 021523   200242 630500                    EPPR0   CURRENT_SA,,AUTO
        46 021524   200265 450500                    STP0    SEND$+1,,AUTO
PL6.E3A0      #001=Z8HC$SPECIAL_CASES File=Z8HC.:Z8A6TSI                         TUE 08/26/97 07:51 Page:650
        46 021525   021605 701000 46                 TSX1    FLUSH_BUFFER
        46 021526   000000 011000                    NOP     0

     3709    27049    6                      TARGET = 0;

  27049 46 021527   000002 450000 25                 STZ     TARGET

     3710    27050    6                      CURRENT_SA = CURRENT_SA + 1;

  27050 46 021530   200242 054100                    AOS     CURRENT_SA,,AUTO

     3711    27051    6                    END;

     3712    27052    5                END /* While */;

  27052 46 021531   200263 470500                    LDP0    @TARGET_LENGTH,,AUTO
        46 021532   000000 236100                    LDQ     0,,PR0
        46 021533   200136 116100                    CMPQ    TOTAL_MOVED,,AUTO
        46 021534   021510 605400 46                 TPNZ    s:27041

     3713    27053
     3714    27054    4                EXIT LP;

  27054 46 021535   021576 710000 46                 TRA     s:27071

     3715    27055    4              END;
     3716    27056
     3717    27057    3          BCD_BUFFER(TARGET) = STRING$ -> BCD$CHARS(SOURCE);

  27057 46 021536   200137 236100                    LDQ     SOURCE,,AUTO
        46 021537   000006 402007                    MPY     6,DL
        46 021540   000000 116003                    CMPQ    0,DU
        46 021541   021543 605000 46                 TPL     s:27057+5
        46 021542   000044 036003                    ADLQ    36,DU
        46 021543   200302 756100                    STQ     ORG1+1,,AUTO
        46 021544   000002 236000 25                 LDQ     TARGET
        46 021545   000006 402007                    MPY     6,DL
PL6.E3A0      #001=Z8HC$SPECIAL_CASES File=Z8HC.:Z8A6TSI                         TUE 08/26/97 07:51 Page:651
        46 021546   000000 116003                    CMPQ    0,DU
        46 021547   021551 605000 46                 TPL     s:27057+11
        46 021550   000044 036003                    ADLQ    36,DU
        46 021551   200133 471500                    LDP1    STRING$,,AUTO
        46 021552   200302 235100                    LDA     ORG1+1,,AUTO
        46 021553   003006 060505                    CSL     bolr='003'O
        46 021554   100000 000006                    BDSC    0,A,PR1                  by=0,bit=0,n=6
        46 021555   000004 000006 25                 BDSC    BUFFER,Q                 by=0,bit=0,n=6

     3718    27058    3          TOTAL_MOVED = TOTAL_MOVED + 1;

  27058 46 021556   200136 054100                    AOS     TOTAL_MOVED,,AUTO

     3719    27059    3          SOURCE = SOURCE + 1;

  27059 46 021557   200137 054100                    AOS     SOURCE,,AUTO

     3720    27060    3          TARGET = TARGET + 1;

  27060 46 021560   000002 054000 25                 AOS     TARGET

     3721    27061
     3722    27062    3          IF TARGET = 6 THEN

  27062 46 021561   000002 235000 25                 LDA     TARGET
        46 021562   000006 115007                    CMPA    6,DL
        46 021563   021572 601000 46                 TNZ     s:27069

     3723    27063    4            DO;

     3724    27064    4              CALL FLUSH_BUFFER(CURRENT_SA);

  27064 46 021564   200242 630500                    EPPR0   CURRENT_SA,,AUTO
        46 021565   200265 450500                    STP0    SEND$+1,,AUTO
        46 021566   021605 701000 46                 TSX1    FLUSH_BUFFER
        46 021567   000000 011000                    NOP     0

PL6.E3A0      #001=Z8HC$SPECIAL_CASES File=Z8HC.:Z8A6TSI                         TUE 08/26/97 07:51 Page:652
     3725    27065    4              TARGET = 0;

  27065 46 021570   000002 450000 25                 STZ     TARGET

     3726    27066    4              CURRENT_SA = CURRENT_SA + 1;

  27066 46 021571   200242 054100                    AOS     CURRENT_SA,,AUTO

     3727    27067    4            END;

     3728    27068
     3729    27069    3        END /* While */;

  27069 46 021572   200263 470500                    LDP0    @TARGET_LENGTH,,AUTO
        46 021573   200136 236100                    LDQ     TOTAL_MOVED,,AUTO
        46 021574   000000 116100                    CMPQ    0,,PR0
        46 021575   021472 604000 46                 TMI     s:27035

     3730    27070
     3731    27071    2        BITS_IN_BUFFER = TARGET * 6;

  27071 46 021576   000002 236000 25                 LDQ     TARGET
        46 021577   000006 402007                    MPY     6,DL
        46 021600   000003 756000 25                 STQ     BITS_IN_BUFFER

     3732    27072    2        OLD_SA = CURRENT_SA;

  27072 46 021601   200242 235100                    LDA     CURRENT_SA,,AUTO
        46 021602   000006 755000 25                 STA     OLD_SA

     3733    27073
     3734    27074    2   END GBCD_PRESET;

  27074 46 021603   200262 221300                    LDX1  ! LOWER$+1,,AUTO
        46 021604   000001 702211                    TSX2  ! 1,X1

     3735    27075         %EJECT;
PL6.E3A0      #001=Z8HC$SPECIAL_CASES File=Z8HC.:Z8A6TSI                         TUE 08/26/97 07:51 Page:653
     3736    27076    1   FLUSH_BUFFER:PROC(BUFFER_SA);

  27076 46 021605   200264 741300       FLUSH_BUFFER STX1  ! @PILL+1,,AUTO

     3737    27077        /*I*
     3738    27078              NAME:  FLUSH_BUFFER
     3739    27079              PURPOSE:
     3740    27080                     CHECKS TO SEE IF THE BITS IS THE BUFFER ARE FROM
     3741    27081                     THE CURRENT BLOCK
     3742    27082              CALL:
     3743    27083                     CALL FLUSH_BUFFER (BUFFER_SA)
     3744    27084              PARAMETERS:
     3745    27085                     BUFFER_SA - LOCATION TO BE PRESET. IS PASSED TO FLUSH.
     3746    27086              DESCRIPTION:
     3747    27087                     CREATES NEW ORG WHEN NEEDED AND CALLS FLUSH
     3748    27088        */
     3749    27089
     3750    27090    2         DCL BUFFER_SA   PTR;
     3751    27091
     3752    27092    2         IF (FLUSH_BLK$ ~= CURRENT_BLOCK$) AND

  27092 46 021606   000005 236000 25                 LDQ     FLUSH_BLK$
        46 021607   000000 116000 26                 CMPQ    CURRENT_BLOCK$
        46 021610   021644 600000 46                 TZE     s:27131
        46 021611   000005 116000 47                 CMPQ    5
        46 021612   021644 600000 46                 TZE     s:27131

     3753    27093    2                      (FLUSH_BLK$ ~= ADDR(NIL))  THEN
     3754    27094                %NEW_ORG ( @ST$ = FLUSH_BLK$);

  27112 46 021613   000002 236000 36                 LDQ     OBJ_+2
        46 021614   000002 036007                    ADLQ    2,DL
        46 021615   000003 116000 36                 CMPQ    OBJ_+3
        46 021616   021630 604000 46                 TMI     s:27118

  27114 46 021617   000000 234000 30                 SZN     PAGING_OBJ
        46 021620   021625 605000 46                 TPL     s:27116
PL6.E3A0      #001=Z8HC$SPECIAL_CASES File=Z8HC.:Z8A6TSI                         TUE 08/26/97 07:51 Page:654

  27115 46 021621   000006 630400 47                 EPPR0   6
        46 021622   000000 631400 47                 EPPR1   0
        46 021623   000000 701000 xent               TSX1    Z9HF$WRITE_OBJ_PAGE
        46 021624   000000 011000                    NOP     0

  27116 46 021625   000007 631400 47                 EPPR1   7
        46 021626   000000 701000 xent               TSX1    Z9HF$GET_OBJ_PAGE
        46 021627   000000 011000                    NOP     0

  27118 46 021630   000002 236000 36                 LDQ     OBJ_+2
        46 021631   000022 736000                    QLS     18
        46 021632   000001 036000 36                 ADLQ    OBJ_+1
        46 021633   000000 756000 29                 STQ     OBJ$

  27119 46 021634   000002 236007                    LDQ     2,DL
        46 021635   000002 056000 36                 ASQ     OBJ_+2

  27120 46 021636   001013 220003                    LDX0    523,DU
        46 021637   000000 470400 29                 LDP0    OBJ$
        46 021640   000000 740100                    STX0    0,,PR0

  27124 46 021641   000005 236000 25                 LDQ     FLUSH_BLK$
        46 021642   000000 470400 29                 LDP0    OBJ$
        46 021643   000001 756100                    STQ     1,,PR0

     3755    27130
     3756    27131    2         CALL FLUSH(CONSTANT$,ADDR(CHAR_BUFFER),BUFFER_SA,1);

  27131 46 021644   000116 236000 47                 LDQ     78
        46 021645   200331 756100                    STQ     ORG1+24,,AUTO
        46 021646   000016 236000 47                 LDQ     14
        46 021647   200272 756100                    STQ     @OPND$+1,,AUTO
        46 021650   200265 236100                    LDQ     @BUFFER_SA,,AUTO
        46 021651   200271 756100                    STQ     @STRING$+1,,AUTO
        46 021652   200331 630500                    EPPR0   ORG1+24,,AUTO
        46 021653   200270 450500                    STP0    N_OPNDS+1,,AUTO
PL6.E3A0      #001=Z8HC$SPECIAL_CASES File=Z8HC.:Z8A6TSI                         TUE 08/26/97 07:51 Page:655
        46 021654   000106 236000 47                 LDQ     70
        46 021655   200267 756100                    STQ     P$+1,,AUTO
        46 021656   021724 701000 46                 TSX1    FLUSH
        46 021657   000000 011000                    NOP     0

     3757    27132
     3758    27133    2         IF (FLUSH_BLK$ ~= CURRENT_BLOCK$) AND

  27133 46 021660   000005 236000 25                 LDQ     FLUSH_BLK$
        46 021661   000000 116000 26                 CMPQ    CURRENT_BLOCK$
        46 021662   021716 600000 46                 TZE     s:27172
        46 021663   000005 116000 47                 CMPQ    5
        46 021664   021716 600000 46                 TZE     s:27172

     3759    27134    2                      (FLUSH_BLK$ ~= ADDR(NIL))  THEN
     3760    27135                %NEW_ORG ( @ST$ = CURRENT_BLOCK$);

  27153 46 021665   000002 236000 36                 LDQ     OBJ_+2
        46 021666   000002 036007                    ADLQ    2,DL
        46 021667   000003 116000 36                 CMPQ    OBJ_+3
        46 021670   021702 604000 46                 TMI     s:27159

  27155 46 021671   000000 234000 30                 SZN     PAGING_OBJ
        46 021672   021677 605000 46                 TPL     s:27157

  27156 46 021673   000006 630400 47                 EPPR0   6
        46 021674   000000 631400 47                 EPPR1   0
        46 021675   000000 701000 xent               TSX1    Z9HF$WRITE_OBJ_PAGE
        46 021676   000000 011000                    NOP     0

  27157 46 021677   000007 631400 47                 EPPR1   7
        46 021700   000000 701000 xent               TSX1    Z9HF$GET_OBJ_PAGE
        46 021701   000000 011000                    NOP     0

  27159 46 021702   000002 236000 36                 LDQ     OBJ_+2
        46 021703   000022 736000                    QLS     18
        46 021704   000001 036000 36                 ADLQ    OBJ_+1
PL6.E3A0      #001=Z8HC$SPECIAL_CASES File=Z8HC.:Z8A6TSI                         TUE 08/26/97 07:51 Page:656
        46 021705   000000 756000 29                 STQ     OBJ$

  27160 46 021706   000002 236007                    LDQ     2,DL
        46 021707   000002 056000 36                 ASQ     OBJ_+2

  27161 46 021710   001013 220003                    LDX0    523,DU
        46 021711   000000 470400 29                 LDP0    OBJ$
        46 021712   000000 740100                    STX0    0,,PR0

  27165 46 021713   000000 236000 26                 LDQ     CURRENT_BLOCK$
        46 021714   000000 470400 29                 LDP0    OBJ$
        46 021715   000001 756100                    STQ     1,,PR0

     3761    27171
     3762    27172    2         FLUSH_BLK$ = ADDR(NIL);

  27172 46 021716   000005 236000 47                 LDQ     5
        46 021717   000005 756000 25                 STQ     FLUSH_BLK$

     3763    27173    2         BUFFER = 0;

  27173 46 021720   000004 450000 25                 STZ     BUFFER

     3764    27174    2         BITS_IN_BUFFER = 0;

  27174 46 021721   000003 450000 25                 STZ     BITS_IN_BUFFER

     3765    27175
     3766    27176    2   END FLUSH_BUFFER;

  27176 46 021722   200264 221300                    LDX1  ! @PILL+1,,AUTO
        46 021723   000001 702211                    TSX2  ! 1,X1

     3767    27177        %EJECT;
PL6.E3A0      #001=Z8HC$SPECIAL_CASES File=Z8HC.:Z8A6TSI                         TUE 08/26/97 07:51 Page:657
     3768    27178    1   FLUSH:PROC(CONSTANT$,STRING$,OFFSET,LENGTH);

  27178 46 021724   200266 741300       FLUSH        STX1  ! REC$+1,,AUTO

     3769    27179        /*I*
     3770    27180             NAME: FLUSH
     3771    27181             PURPOSE:
     3772    27182                  Put preset words into the OBJ table.
     3773    27183             CALL:
     3774    27184                  CALL FLUSH (CONSTANT$, STRING$, OFFSET, LENGTH)
     3775    27185             PARAMETERS:
     3776    27186                  CONSTANT$ - ST item of constant from which item was preset
     3777    27187                  STRING$   - String containing words to be put into OBJ.
     3778    27188                  OFFSET    - Location to be preset.
     3779    27189                  LENGTH    - Length in words of item pointed to by STRING$.
     3780    27190             DESCRIPTION:
     3781    27191                  Created OBJ items one word at time for each word in buffer.
     3782    27192        */
     3783    27193
     3784    27194    2        DCL CONSTANT$   PTR;
     3785    27195    2        DCL STRING$  PTR;
     3786    27196    2        DCL OFFSET   SBIN WORD;
     3787    27197    2        DCL LENGTH   SBIN WORD;
     3788    27198    2        DCL I        SBIN WORD;
     3789    27199
     3790    27200    2        DCL 1 STRING ALIGNED BASED(STRING$),
     3791    27201    2               2 WORDS(0:%PAGE_SIZE) BIT(36) UNAL;
     3792    27202
     3793    27203
     3794    27204    3        DO I = 0 TO LENGTH - 1;

  27204 46 021725   200273 450100                    STZ     I,,AUTO
        46 021726   022001 710000 46                 TRA     s:27258+1

     3795    27205               %NEW_WORD( @OU_WORD = "STRING.WORDS(I)" ,
     3796    27206                          @OFFSET  = "OFFSET + I" ,
     3797    27207                          @ST$     = CONSTANT$ ,
PL6.E3A0      #001=Z8HC$SPECIAL_CASES File=Z8HC.:Z8A6TSI                         TUE 08/26/97 07:51 Page:658
     3798    27208                          @KEY     = MOD_KEY.KEY ,
     3799    27209                          @ADVANCE_BLOCK_SIZE=NO);

  27228 46 021727   000002 236000 36                 LDQ     OBJ_+2
        46 021730   000004 036007                    ADLQ    4,DL
        46 021731   000003 116000 36                 CMPQ    OBJ_+3
        46 021732   021744 604000 46                 TMI     s:27234

  27230 46 021733   000000 234000 30                 SZN     PAGING_OBJ
        46 021734   021741 605000 46                 TPL     s:27232

  27231 46 021735   000006 630400 47                 EPPR0   6
        46 021736   000000 631400 47                 EPPR1   0
        46 021737   000000 701000 xent               TSX1    Z9HF$WRITE_OBJ_PAGE
        46 021740   000000 011000                    NOP     0

  27232 46 021741   000007 631400 47                 EPPR1   7
        46 021742   000000 701000 xent               TSX1    Z9HF$GET_OBJ_PAGE
        46 021743   000000 011000                    NOP     0

  27234 46 021744   000002 236000 36                 LDQ     OBJ_+2
        46 021745   000022 736000                    QLS     18
        46 021746   000001 036000 36                 ADLQ    OBJ_+1
        46 021747   000000 756000 29                 STQ     OBJ$

  27235 46 021750   000004 236007                    LDQ     4,DL
        46 021751   000002 056000 36                 ASQ     OBJ_+2

  27236 46 021752   001012 220003                    LDX0    522,DU
        46 021753   000000 470400 29                 LDP0    OBJ$
        46 021754   000000 740100                    STX0    0,,PR0

  27239 46 021755   200267 470500                    LDP0    @CONSTANT$,,AUTO
        46 021756   000000 236100                    LDQ     0,,PR0
        46 021757   000000 471400 29                 LDP1    OBJ$
        46 021760   100002 756100                    STQ     2,,PR1

PL6.E3A0      #001=Z8HC$SPECIAL_CASES File=Z8HC.:Z8A6TSI                         TUE 08/26/97 07:51 Page:659
  27240 46 021761   200271 473500                    LDP3    @OFFSET,,AUTO
        46 021762   300000 236100                    LDQ     0,,PR3
        46 021763   200273 036100                    ADLQ    I,,AUTO
        46 021764   100001 756100                    STQ     1,,PR1

  27241 46 021765   000000 236000 25                 LDQ     MOD_KEY
        46 021766   000011 736000                    QLS     9
        46 021767   100000 552110                    STBQ    0,'10'O,PR1

  27243 46 021770   200270 471500                    LDP1    @STRING$,,AUTO
        46 021771   100000 474500                    LDP4    0,,PR1
        46 021772   200273 721100                    LXL1    I,,AUTO
        46 021773   400000 236111                    LDQ     0,X1,PR4
        46 021774   000000 475400 29                 LDP5    OBJ$
        46 021775   500003 756100                    STQ     3,,PR5

     3800    27256
     3801    27257    3          MOD_KEY.B.ETC = TRUE;

  27257 46 021776   000010 236007                    LDQ     8,DL
        46 021777   000000 256000 25                 ORSQ    MOD_KEY

     3802    27258    3        END;

  27258 46 022000   200273 054100                    AOS     I,,AUTO
        46 022001   200272 470500                    LDP0    @LENGTH,,AUTO
        46 022002   200273 236100                    LDQ     I,,AUTO
        46 022003   000000 116100                    CMPQ    0,,PR0
        46 022004   021727 604000 46                 TMI     s:27228

     3803    27259
     3804    27260
     3805    27261
     3806    27262    2   END FLUSH;

  27262 46 022005   200266 221300                    LDX1  ! REC$+1,,AUTO
        46 022006   000001 702211                    TSX2  ! 1,X1
PL6.E3A0      #001=Z8HC$SPECIAL_CASES File=Z8HC.:Z8A6TSI                         TUE 08/26/97 07:51 Page:660

     3807    27263        %EJECT;
PL6.E3A0      #001=Z8HC$SPECIAL_CASES File=Z8HC.:Z8A6TSI                         TUE 08/26/97 07:51 Page:661
     3808    27264        /*I*
     3809    27265             NAME: BUFFER_TOP_SSOPS_AND_SIZS
     3810    27266             PURPOSE:
     3811    27267                  To buffer all unevaluated SSOP and SIZ triads that are directly
     3812    27268                  below the ILL item (top SSOPs and SIZs of total tree).
     3813    27269             CALL:
     3814    27270                  CALL BUFFER_TOP_SSOPS_AND_SIZS(=triad);
     3815    27271             DATA:
     3816    27272                  P$
     3817    27273                       Used to protect the integrity of the passed parameter.
     3818    27274             DESCRIPTION:
     3819    27275                  Slide down the LOP of the sub-tree, collecting all of the
     3820    27276                  SSOP and SIZ triad addresses into SSOP_SIZ_BUFFER until a
     3821    27277                  non-SSOP or non-SIZ triad is encountered.
     3822    27278        */
     3823    27279    1   BUFFER_TOP_SSOPS_AND_SIZS:PROC(TRIAD);

  27279 46 022007   200262 741300       BUFFER_TOP_* STX1  ! LOWER$+1,,AUTO

     3824    27280
     3825    27281    2        DCL TRIAD PTR;
     3826    27282    2        DCL P$ PTR;
     3827    27283
     3828    27284    2        P$ = TRIAD;

  27284 46 022010   200263 470500                    LDP0    @TRIAD,,AUTO
        46 022011   000000 236100                    LDQ     0,,PR0
        46 022012   200264 756100                    STQ     P$,,AUTO

     3829    27285
     3830    27286    3        DO WHILE (P$ -> ETT.ID = %SSOP  /*#28637*/

  27286 46 022013   022026 710000 46                 TRA     s:27298

     3831    27287    3               OR P$ -> ETT.ID = %SIZ
     3832    27288    3               OR P$ -> ETT.ID = %REFMOD);
     3833    27289    3          IF P$ -> ETT.STATE = %UNEVAL_T THEN
PL6.E3A0      #001=Z8HC$SPECIAL_CASES File=Z8HC.:Z8A6TSI                         TUE 08/26/97 07:51 Page:662

  27289 46 022014   200264 470500                    LDP0    P$,,AUTO
        46 022015   000004 220100                    LDX0    4,,PR0
        46 022016   022036 601000 46                 TNZ     s:27300

     3834    27290    4            DO;

     3835    27291    4              SSOP_SIZ_BUFFER(SSOP_SIZ_IDX) = P$;

  27291 46 022017   200264 236100                    LDQ     P$,,AUTO
        46 022020   200107 721100                    LXL1    SSOP_SIZ_IDX,,AUTO
        46 022021   200103 756111                    STQ     SSOP_SIZ_BUFFER,X1,AUTO

     3836    27292    4              SSOP_SIZ_IDX = SSOP_SIZ_IDX + 1;

  27292 46 022022   200107 054100                    AOS     SSOP_SIZ_IDX,,AUTO

     3837    27293    4            END;

  27293 46 022023   022024 710000 46                 TRA     s:27297

     3838    27294    3          ELSE
     3839    27295    3            EXIT;
     3840    27296
     3841    27297    3          P$ = P$ -> ETT.LOP;

  27297 46 022024   000001 236100                    LDQ     1,,PR0
        46 022025   200264 756100                    STQ     P$,,AUTO

     3842    27298    3        END;

  27298 46 022026   200264 470500                    LDP0    P$,,AUTO
        46 022027   000000 220100                    LDX0    0,,PR0
        46 022030   000005 100003                    CMPX0   5,DU
        46 022031   022014 600000 46                 TZE     s:27289
        46 022032   000004 100003                    CMPX0   4,DU
        46 022033   022014 600000 46                 TZE     s:27289
PL6.E3A0      #001=Z8HC$SPECIAL_CASES File=Z8HC.:Z8A6TSI                         TUE 08/26/97 07:51 Page:663
        46 022034   000012 100003                    CMPX0   10,DU
        46 022035   022014 600000 46                 TZE     s:27289

     3843    27299
     3844    27300    2   END BUFFER_TOP_SSOPS_AND_SIZS;

  27300 46 022036   200262 221300                    LDX1  ! LOWER$+1,,AUTO
        46 022037   000001 702211                    TSX2  ! 1,X1

     3845    27301        %EJECT;
PL6.E3A0      #001=Z8HC$SPECIAL_CASES File=Z8HC.:Z8A6TSI                         TUE 08/26/97 07:51 Page:664
     3846    27302    1   LOAD_GLOBAL_REGISTERS: PROC;

  27302 46 022040   200262 741300       LOAD_GLOBAL* STX1  ! LOWER$+1,,AUTO

     3847    27303        /*I*
     3848    27304             NAME: LOAD_GLOBAL_REGISTERS
     3849    27305             PURPOSE:
     3850    27306                  LOAD GLOBAL REGISTERS!
     3851    27307             CALL:
     3852    27308                   CALL LOAD_GLOBAL_REGISTERS;
     3853    27309             DATA:
     3854    27310                   COMCOM.ESC_LIST
     3855    27311             DESCRIPTION:
     3856    27312                   Load the registers and mark the registers that are
     3857    27313                   to be assigned global.
     3858    27314        */
     3859    27315
     3860    27316    2       DCL I SBIN WORD;
     3861    27317
     3862    27318            %EQU ESC_LIST_LENGTH = 4;
     3863    27319
     3864    27320    2       I = 0;

  27320 46 022041   200263 450100                    STZ     I,,AUTO

     3865    27321
     3866    27322    3       DO WHILE (I <= %ESC_LIST_LENGTH) AND

  27322 46 022042   022104 710000 46                 TRA     s:27330

     3867    27323    3                           (COMCOM.ESC_LIST.ESC$(I) ~= ADDR(NIL));
     3868    27324    3         COMCOM.ESC_LIST.ESC$(I) -> ETT.COUNT = %DONT_MESS;

  27324 46 022043   200263 235100                    LDA     I,,AUTO
        46 022044   000001 735000                    ALS     1
        46 022045   000545 470405 xsym               LDP0    COMCOM+357,AL
        46 022046   777777 220003                    LDX0    -1,DU
PL6.E3A0      #001=Z8HC$SPECIAL_CASES File=Z8HC.:Z8A6TSI                         TUE 08/26/97 07:51 Page:665
        46 022047   000000 440100                    SXL0    0,,PR0

     3869    27325    3         COMCOM.ESC_LIST.ESC$(I) -> ETT.B.PR# = COMCOM.ESC_LIST.PR#(I) - %PR3;

  27325 46 022050   000545 470405 xsym               LDP0    COMCOM+357,AL
        46 022051   000546 236005 xsym               LDQ     COMCOM+358,AL
        46 022052   000022 732000                    QRS     18
        46 022053   000027 136007                    SBLQ    23,DL
        46 022054   000007 736000                    QLS     7
        46 022055   000004 676100                    ERQ     4,,PR0
        46 022056   007600 376007                    ANQ     3968,DL
        46 022057   000004 656100                    ERSQ    4,,PR0

     3870    27326    3         COMCOM.ESC_LIST.ESC$(I) -> ETT.B.OPTION = COMCOM.ESC_LIST.OPTION(I);

  27326 46 022060   000545 470405 xsym               LDP0    COMCOM+357,AL
        46 022061   000546 236005 xsym               LDQ     COMCOM+358,AL
        46 022062   000014 736000                    QLS     12
        46 022063   000004 676100                    ERQ     4,,PR0
        46 022064   370000 376007                    ANQ     126976,DL
        46 022065   000004 656100                    ERSQ    4,,PR0

     3871    27327    3         COMCOM.ESC_LIST.ESC$(I) -> ETT.B.ESC_LIST = %TRUE;

  27327 46 022066   000545 470405 xsym               LDP0    COMCOM+357,AL
        46 022067   400000 236007                    LDQ     -131072,DL
        46 022070   000004 256100                    ORSQ    4,,PR0

     3872    27328    3         CALL Z8HI$BURST(COMCOM.ESC_LIST.ESC$(I),DEP.GDEP);

  27328 46 022071   000117 236000 47                 LDQ     79
        46 022072   200303 756100                    STQ     ORG1+2,,AUTO
        46 022073   200263 236100                    LDQ     I,,AUTO
        46 022074   000023 736000                    QLS     19
        46 022075   000120 036000 47                 ADLQ    80
        46 022076   200302 756100                    STQ     ORG1+1,,AUTO
        46 022077   200302 630500                    EPPR0   ORG1+1,,AUTO
PL6.E3A0      #001=Z8HC$SPECIAL_CASES File=Z8HC.:Z8A6TSI                         TUE 08/26/97 07:51 Page:666
        46 022100   000013 631400 47                 EPPR1   11
        46 022101   000000 701000 xent               TSX1    Z8HI$BURST
        46 022102   000000 011000                    NOP     0

     3873    27329    3         I = I + 1;

  27329 46 022103   200263 054100                    AOS     I,,AUTO

     3874    27330    3       END;

  27330 46 022104   200263 235100                    LDA     I,,AUTO
        46 022105   000004 115007                    CMPA    4,DL
        46 022106   022113 605400 46                 TPNZ    s:27332
        46 022107   000001 735000                    ALS     1
        46 022110   000545 236005 xsym               LDQ     COMCOM+357,AL
        46 022111   000005 116000 47                 CMPQ    5
        46 022112   022043 601000 46                 TNZ     s:27324

     3875    27331
     3876    27332    2   END LOAD_GLOBAL_REGISTERS;

  27332 46 022113   200262 221300                    LDX1  ! LOWER$+1,,AUTO
        46 022114   000001 702211                    TSX2  ! 1,X1

     3877    27333        %EJECT;
PL6.E3A0      #001=Z8HC$SPECIAL_CASES File=Z8HC.:Z8A6TSI                         TUE 08/26/97 07:51 Page:667
     3878    27334    1   RESTORE_GLOBAL_REGISTERS: PROC;

  27334 46 022115   200262 741300       RESTORE_GLO* STX1  ! LOWER$+1,,AUTO

     3879    27335        /*I*
     3880    27336             NAME: RESTORE_GLOBAL_REGISTERS
     3881    27337             PURPOSE:
     3882    27338                  RESTORE GLOBAL REGISTERS!
     3883    27339             CALL:
     3884    27340                   CALL RESTORE_GLOBAL_REGISTERS;
     3885    27341             DATA:
     3886    27342                   COMCOM.ESC_LIST
     3887    27343             DESCRIPTION:
     3888    27344                   Step through COMCOM.ESC_LIST and restore the globally
     3889    27345                   assigned pointer registers.
     3890    27346        */
     3891    27347
     3892    27348    2       DCL I SBIN WORD;
     3893    27349
     3894    27350
     3895    27351    2       I = 0;

  27351 46 022116   200263 450100                    STZ     I,,AUTO

     3896    27352
     3897    27353    3       DO WHILE (I <= %ESC_LIST_LENGTH) AND

  27353 46 022117   022141 710000 46                 TRA     s:27366

     3898    27354    3                (COMCOM.ESC_LIST.ESC$(I) ~= ADDR(NIL));
     3899    27355    3         IF COMCOM.ESC_LIST.ESC$(I) -> ETT.ID ~= %ARGP

  27355 46 022120   200263 235100                    LDA     I,,AUTO
        46 022121   000001 735000                    ALS     1
        46 022122   000545 470405 xsym               LDP0    COMCOM+357,AL
        46 022123   000000 220100                    LDX0    0,,PR0
        46 022124   000016 100003                    CMPX0   14,DU
PL6.E3A0      #001=Z8HC$SPECIAL_CASES File=Z8HC.:Z8A6TSI                         TUE 08/26/97 07:51 Page:668
        46 022125   022140 600000 46                 TZE     s:27365

     3900    27356              %IF GCOS;
     3901    27357 C            OR ((PILL -> ETT.ID ~= %USE_ENTRY
     3902    27358 C                 OR PILL -> ETT.CODE ~= %INIT_PROC)
     3903    27359 C                AND (PILL -> ETT.ID ~= %OS_CALL
     3904    27360 C                 OR PILL -> ETT.CODE ~= %OP_CLOSE_CANCEL)
     3905    27361 C            AND CURRENT_ENTRY$ -> ENTRY_ILL.LOP -> ST.ID = %SYMDEF_)
     3906    27362              %ENDIF;
     3907    27363    3         THEN
     3908    27364    3           CALL Z8HI$BURST(COMCOM.ESC_LIST.ESC$(I),DEP.HDEP);

  27364 46 022126   000121 236000 47                 LDQ     81
        46 022127   200303 756100                    STQ     ORG1+2,,AUTO
        46 022130   200263 236100                    LDQ     I,,AUTO
        46 022131   000023 736000                    QLS     19
        46 022132   000120 036000 47                 ADLQ    80
        46 022133   200302 756100                    STQ     ORG1+1,,AUTO
        46 022134   200302 630500                    EPPR0   ORG1+1,,AUTO
        46 022135   000013 631400 47                 EPPR1   11
        46 022136   000000 701000 xent               TSX1    Z8HI$BURST
        46 022137   000000 011000                    NOP     0

     3909    27365    3         I = I + 1;

  27365 46 022140   200263 054100                    AOS     I,,AUTO

     3910    27366    3       END;

  27366 46 022141   200263 235100                    LDA     I,,AUTO
        46 022142   000004 115007                    CMPA    4,DL
        46 022143   022150 605400 46                 TPNZ    s:27368
        46 022144   000001 735000                    ALS     1
        46 022145   000545 236005 xsym               LDQ     COMCOM+357,AL
        46 022146   000005 116000 47                 CMPQ    5
        46 022147   022120 601000 46                 TNZ     s:27355

PL6.E3A0      #001=Z8HC$SPECIAL_CASES File=Z8HC.:Z8A6TSI                         TUE 08/26/97 07:51 Page:669
     3911    27367
     3912    27368    2   END RESTORE_GLOBAL_REGISTERS;

  27368 46 022150   200262 221300                    LDX1  ! LOWER$+1,,AUTO
        46 022151   000001 702211                    TSX2  ! 1,X1

     3913    27369        %EJECT;
PL6.E3A0      #001=Z8HC$SPECIAL_CASES File=Z8HC.:Z8A6TSI                         TUE 08/26/97 07:51 Page:670
     3914    27370        /*-------------------*/
     3915    27371    1     FREE_REGISTER_CHECK: PROC (PILL);

  27371 46 022152   200262 741300       FREE_REGIST* STX1  ! LOWER$+1,,AUTO

     3916    27372        /*-------------------*/
     3917    27373        /*I*
     3918    27374            NAME: FREE_REGISTER_CHECK
     3919    27375            PURPOSE:
     3920    27376                 Check for group MOVE, etc., for possible register purge.
     3921    27377            CALL:
     3922    27378                 CALL FREE_REGISTER_CHECK (PILL);
     3923    27379            DESCRIPTION:
     3924    27380                 Check the LOP of the ILL item pointer to by PILL to see
     3925    27381                 if it is a group or part of REDEFINES or RENAMES. A POINTER
     3926    27382                 will not always have a non-null QLT$ but it will never
     3927    27383                 be associated with a redefinition or a renaming.
     3928    27384        */
     3929    27385    2        DCL PILL  PTR;  /* Pointer to ILL move item         */
     3930    27386    2        DCL SEND$ PTR; /* Pointer to sending operand */
     3931    27387    2        DCL REC$  PTR; /* Pointer to destination operand */
     3932    27388    2        DCL P$    PTR;  /* Pointer to LOP Symbol Table item */
     3933    27389    2        DCL N_OPNDS UBIN;
     3934    27390
     3935    27391    2        REC$ = PILL -> ILL.LOP;

  27391 46 022153   200263 470500                    LDP0    @PILL,,AUTO
        46 022154   000000 471500                    LDP1    0,,PR0
        46 022155   100001 236100                    LDQ     1,,PR1
        46 022156   200265 756100                    STQ     REC$,,AUTO

     3936    27392    3        IF PILL -> ILL.ID ~= %MFILL THEN DO;

  27392 46 022157   000000 471500                    LDP1    0,,PR0
        46 022160   100000 220100                    LDX0    0,,PR1
        46 022161   000270 100003                    CMPX0   184,DU
        46 022162   022170 600000 46                 TZE     s:27396
PL6.E3A0      #001=Z8HC$SPECIAL_CASES File=Z8HC.:Z8A6TSI                         TUE 08/26/97 07:51 Page:671

     3937    27393    3          SEND$ = PILL -> ILL.ROP;

  27393 46 022163   100002 236100                    LDQ     2,,PR1
        46 022164   200264 756100                    STQ     SEND$,,AUTO

     3938    27394    3          N_OPNDS = 2;

  27394 46 022165   000002 235007                    LDA     2,DL
        46 022166   200267 755100                    STA     N_OPNDS,,AUTO

     3939    27395    3        END;

  27395 46 022167   022172 710000 46                 TRA     s:27397

     3940    27396    2        ELSE N_OPNDS = 1;

  27396 46 022170   000001 235007                    LDA     1,DL
        46 022171   200267 755100                    STA     N_OPNDS,,AUTO

     3941    27397    2        GOTO COMMON_REG_CHECK;

  27397 46 022172   022205 710000 46                 TRA     COMMON_REG_CHECK

     3942    27398    2   FREE_REGISTER_CHECK_3: ENTRY (PILL);

  27398 46 022173   200262 741300       FREE_REGIST* STX1  ! LOWER$+1,,AUTO

     3943    27399    2        REC$ = PILL -> ILL.TO_;

  27399 46 022174   200263 470500                    LDP0    @PILL,,AUTO
        46 022175   000000 471500                    LDP1    0,,PR0
        46 022176   100003 236100                    LDQ     3,,PR1
        46 022177   200265 756100                    STQ     REC$,,AUTO

     3944    27400    2        SEND$ = PILL -> ILL.LOP;

PL6.E3A0      #001=Z8HC$SPECIAL_CASES File=Z8HC.:Z8A6TSI                         TUE 08/26/97 07:51 Page:672
  27400 46 022200   000000 471500                    LDP1    0,,PR0
        46 022201   100001 236100                    LDQ     1,,PR1
        46 022202   200264 756100                    STQ     SEND$,,AUTO

     3945    27401    2        N_OPNDS = 3;

  27401 46 022203   000003 235007                    LDA     3,DL
        46 022204   200267 755100                    STA     N_OPNDS,,AUTO

     3946    27402    2   COMMON_REG_CHECK:
     3947    27403    2        CALL Z8AU$TYPE_DESCRIPTOR (REC$, TYPE_DESC);

  27403 46 022205   200110 633500       COMMON_REG_* EPPR3   TYPE_DESC,,AUTO
        46 022206   200303 453500                    STP3    ORG1+2,,AUTO
        46 022207   200265 631500                    EPPR1   REC$,,AUTO
        46 022210   200302 451500                    STP1    ORG1+1,,AUTO
        46 022211   200302 630500                    EPPR0   ORG1+1,,AUTO
        46 022212   000013 631400 47                 EPPR1   11
        46 022213   000000 701000 xent               TSX1    Z8AU$TYPE_DESCRIPTOR
        46 022214   000000 011000                    NOP     0

     3948    27404             %FISH (TRIAD = REC$, RTN = P$);

  27406 46 022215   200265 236100                    LDQ     REC$,,AUTO
        46 022216   200266 756100                    STQ     P$,,AUTO

  27407 46 022217   200266 470500                    LDP0    P$,,AUTO
        46 022220   000000 220100                    LDX0    0,,PR0
        46 022221   000751 100003                    CMPX0   489,DU
        46 022222   022232 603000 46                 TRC     s:27412

  27408 46 022223   200266 470500                    LDP0    P$,,AUTO
        46 022224   000001 236100                    LDQ     1,,PR0
        46 022225   200266 756100                    STQ     P$,,AUTO

  27409 46 022226   200266 470500                    LDP0    P$,,AUTO
        46 022227   000000 220100                    LDX0    0,,PR0
PL6.E3A0      #001=Z8HC$SPECIAL_CASES File=Z8HC.:Z8A6TSI                         TUE 08/26/97 07:51 Page:673
        46 022230   000751 100003                    CMPX0   489,DU
        46 022231   022223 602000 46                 TNC     s:27408

     3949    27412    2        IF P$ -> VARIABLE.ID ~= %POINTER

  27412 46 022232   000777 100003                    CMPX0   511,DU
        46 022233   022511 600000 46                 TZE     s:27516
        46 022234   000003 236100                    LDQ     3,,PR0
        46 022235   010000 316003                    CANQ    4096,DU
        46 022236   022255 600000 46                 TZE     s:27412+19
        46 022237   000002 221100                    LDX1    2,,PR0
        46 022240   022255 601000 46                 TNZ     s:27412+19
        46 022241   000001 236100                    LDQ     1,,PR0
        46 022242   040000 316007                    CANQ    16384,DL
        46 022243   022255 600000 46                 TZE     s:27412+19
        46 022244   000003 430100                    FSZN    3,,PR0
        46 022245   022255 604000 46                 TMI     s:27412+19
        46 022246   000003 236100                    LDQ     3,,PR0
        46 022247   000400 316003                    CANQ    256,DU
        46 022250   022255 601000 46                 TNZ     s:27412+19
        46 022251   000007 471500                    LDP1    7,,PR0
        46 022252   100000 236100                    LDQ     0,,PR1
        46 022253   040000 316007                    CANQ    16384,DL
        46 022254   022511 600000 46                 TZE     s:27516
        46 022255   200265 471500                    LDP1    REC$,,AUTO
        46 022256   100000 221100                    LDX1    0,,PR1
        46 022257   000005 101003                    CMPX1   5,DU
        46 022260   022511 600000 46                 TZE     s:27516
        46 022261   000004 101003                    CMPX1   4,DU
        46 022262   022267 601000 46                 TNZ     s:27412+29
        46 022263   100001 473500                    LDP3    1,,PR1
        46 022264   300000 222100                    LDX2    0,,PR3
        46 022265   000005 102003                    CMPX2   5,DU
        46 022266   022511 600000 46                 TZE     s:27516
        46 022267   200263 473500                    LDP3    @PILL,,AUTO
        46 022270   300000 474500                    LDP4    0,,PR3
        46 022271   400000 222100                    LDX2    0,,PR4
PL6.E3A0      #001=Z8HC$SPECIAL_CASES File=Z8HC.:Z8A6TSI                         TUE 08/26/97 07:51 Page:674
        46 022272   000270 102003                    CMPX2   184,DU
        46 022273   022307 600000 46                 TZE     s:27428
        46 022274   200267 235100                    LDA     N_OPNDS,,AUTO
        46 022275   000003 115007                    CMPA    3,DL
        46 022276   022307 600000 46                 TZE     s:27428
        46 022277   100004 223100                    LDX3    4,,PR1
        46 022300   200264 475500                    LDP5    SEND$,,AUTO
        46 022301   500004 103100                    CMPX3   4,,PR5
        46 022302   022307 601000 46                 TNZ     s:27428
        46 022303   000000 103003                    CMPX3   0,DU
        46 022304   022307 600000 46                 TZE     s:27428
        46 022305   000004 103003                    CMPX3   4,DU
        46 022306   022511 601000 46                 TNZ     s:27516

     3950    27413    2         AND (NOT P$ -> VARIABLE.B.ELEMENTARY
     3951    27414    2             OR P$ -> VARIABLE.TYPE ~= %TYD
     3952    27415    2             OR P$ -> VARIABLE.NDSC.TN = %NDSC9
     3953    27416    2             OR P$ -> VARIABLE.B.REDEF_SUB
     3954    27417    2             OR P$ -> VARIABLE.B.REDEF_OBJ
     3955    27418    2             OR P$ -> VARIABLE.QLT$ -> QLT.B.RENAMES)
     3956    27419    2         AND REC$ -> ETT.ID ~= %SSOP
     3957    27420    2         AND (REC$ -> ETT.ID ~= %SIZ
     3958    27421    2             OR REC$ -> ETT.LOP -> ETT.ID ~= %SSOP)
     3959    27422    2         AND (PILL -> ILL.ID = %MFILL
     3960    27423    2           OR N_OPNDS = 3
     3961    27424    2           OR REC$ -> ETT.STATE ~= SEND$ -> ETT.STATE
     3962    27425    2           OR REC$ -> ETT.STATE = %UNEVAL_T
     3963    27426    2           OR REC$ -> ETT.STATE = %REF_T) THEN
     3964    27427    3          DO;

     3965    27428    3            J = TYPE_DESC.DESC.SA * 8 + TYPE_DESC.DESC.NDSC.CN;

  27428 46 022307   200111 236100                    LDQ     TYPE_DESC+1,,AUTO
        46 022310   000017 772000                    QRL     15
        46 022311   000007 376007                    ANQ     7,DL
        46 022312   200302 756100                    STQ     ORG1+1,,AUTO
        46 022313   200111 236100                    LDQ     TYPE_DESC+1,,AUTO
PL6.E3A0      #001=Z8HC$SPECIAL_CASES File=Z8HC.:Z8A6TSI                         TUE 08/26/97 07:51 Page:675
        46 022314   777777 376003                    ANQ     -1,DU
        46 022315   000017 772000                    QRL     15
        46 022316   200302 036100                    ADLQ    ORG1+1,,AUTO
        46 022317   200066 756100                    STQ     J,,AUTO

     3966    27429    3            IF PILL -> ILL.ID = %MVANO AND

  27429 46 022320   300000 474500                    LDP4    0,,PR3
        46 022321   400000 220100                    LDX0    0,,PR4
        46 022322   000255 100003                    CMPX0   173,DU
        46 022323   022336 601000 46                 TNZ     s:27434
        46 022324   400000 721100                    LXL1    0,,PR4
        46 022325   000001 101003                    CMPX1   1,DU
        46 022326   022331 600000 46                 TZE     s:27429+9
        46 022327   000003 101003                    CMPX1   3,DU
        46 022330   022336 601000 46                 TNZ     s:27434
        46 022331   200111 236100                    LDQ     TYPE_DESC+1,,AUTO
        46 022332   600000 316007                    CANQ    -65536,DL
        46 022333   022336 601000 46                 TNZ     s:27434

     3967    27430    3                (PILL -> ILL.CODE = %MVANO_UPPER_TO_LOWER OR
     3968    27431    3                 PILL -> ILL.CODE = %MVANO_LOWER_TO_LOWER) AND
     3969    27432    3                TYPE_DESC.DESC.ADSC.CN = 0 THEN
     3970    27433    3              J = J + 4;

  27433 46 022334   000004 236007                    LDQ     4,DL
        46 022335   200066 056100                    ASQ     J,,AUTO

     3971    27434    3            IF P$ -> VARIABLE.B.CLASS = %CLASS_NUMERIC THEN

  27434 46 022336   000003 236100                    LDQ     3,,PR0
        46 022337   000007 376007                    ANQ     7,DL
        46 022340   000001 116007                    CMPQ    1,DL
        46 022341   022364 601000 46                 TNZ     s:27447

     3972    27435    4              DO;

PL6.E3A0      #001=Z8HC$SPECIAL_CASES File=Z8HC.:Z8A6TSI                         TUE 08/26/97 07:51 Page:676
     3973    27436    4                LOP_LEN = P$ -> VARIABLE.NDSC.N;

  27436 46 022342   000001 236100                    LDQ     1,,PR0
        46 022343   000077 376007                    ANQ     63,DL
        46 022344   200077 756100                    STQ     LOP_LEN,,AUTO

     3974    27437    4                IF P$ -> VARIABLE.TYPE = %TYC THEN

  27437 46 022345   000002 220100                    LDX0    2,,PR0
        46 022346   000023 100003                    CMPX0   19,DU
        46 022347   022354 601000 46                 TNZ     s:27439

     3975    27438    4                  LOP_LEN = LOP_LEN * 4 / 3; /* Convert to digits */

  27438 46 022350   000002 736000                    QLS     2
        46 022351   000003 506007                    DIV     3,DL
        46 022352   200077 756100                    STQ     LOP_LEN,,AUTO
        46 022353   022417 710000 46                 TRA     s:27461

     3976    27439    4                ELSE IF P$ -> VARIABLE.TYPE ~= %TYD OR

  27439 46 022354   000000 100003                    CMPX0   0,DU
        46 022355   022361 601000 46                 TNZ     s:27441
        46 022356   000001 236100                    LDQ     1,,PR0
        46 022357   040000 316007                    CANQ    16384,DL
        46 022360   022417 601000 46                 TNZ     s:27461

     3977    27440    4                    P$ -> VARIABLE.NDSC.TN = %NDSC9 THEN
     3978    27441    4                  LOP_LEN = LOP_LEN * 2; /* Convert to digits */

  27441 46 022361   200077 236100                    LDQ     LOP_LEN,,AUTO
        46 022362   200077 056100                    ASQ     LOP_LEN,,AUTO

     3979    27442    4              END;

  27442 46 022363   022417 710000 46                 TRA     s:27461

PL6.E3A0      #001=Z8HC$SPECIAL_CASES File=Z8HC.:Z8A6TSI                         TUE 08/26/97 07:51 Page:677
     3980    27443    3            ELSE
     3981    27444    4              DO;

     3982    27445                     %GET_ADSC_LEN (ST$ = P$, RTN = LOP_LEN);

  27447 46 022364   000003 236100                    LDQ     3,,PR0
        46 022365   004000 316003                    CANQ    2048,DU
        46 022366   022402 600000 46                 TZE     s:27453

  27448 46 022367   000005 474500                    LDP4    5,,PR0
        46 022370   400000 220100                    LDX0    0,,PR4
        46 022371   001105 100003                    CMPX0   581,DU
        46 022372   022377 601000 46                 TNZ     s:27451

  27449 46 022373   400003 475500                    LDP5    3,,PR4
        46 022374   500001 235100                    LDA     1,,PR5
        46 022375   200077 755100                    STA     LOP_LEN,,AUTO
        46 022376   022405 710000 46                 TRA     s:27456

  27451 46 022377   400001 235100                    LDA     1,,PR4
        46 022400   200077 755100                    STA     LOP_LEN,,AUTO
        46 022401   022405 710000 46                 TRA     s:27456

  27453 46 022402   000001 236100                    LDQ     1,,PR0
        46 022403   007777 376007                    ANQ     4095,DL
        46 022404   200077 756100                    STQ     LOP_LEN,,AUTO

     3983    27456    4                IF P$ -> VARIABLE.TYPE = %TYB THEN

  27456 46 022405   000002 220100                    LDX0    2,,PR0
        46 022406   000014 100003                    CMPX0   12,DU
        46 022407   022415 601000 46                 TNZ     s:27459

     3984    27457    4                  LOP_LEN = LOP_LEN * 4 / 3; /* Convert to digits */

  27457 46 022410   200077 236100                    LDQ     LOP_LEN,,AUTO
        46 022411   000002 736000                    QLS     2
PL6.E3A0      #001=Z8HC$SPECIAL_CASES File=Z8HC.:Z8A6TSI                         TUE 08/26/97 07:51 Page:678
        46 022412   000003 506007                    DIV     3,DL
        46 022413   200077 756100                    STQ     LOP_LEN,,AUTO
        46 022414   022417 710000 46                 TRA     s:27461

     3985    27458    4                ELSE
     3986    27459    4                  LOP_LEN = LOP_LEN * 2;

  27459 46 022415   200077 236100                    LDQ     LOP_LEN,,AUTO
        46 022416   200077 056100                    ASQ     LOP_LEN,,AUTO

     3987    27460    4              END;

     3988    27461    3            IF P$ -> VARIABLE.B.LINKAGE THEN

  27461 46 022417   000003 236100                    LDQ     3,,PR0
        46 022420   000002 316003                    CANQ    2,DU
        46 022421   022467 600000 46                 TZE     s:27511

     3989    27462    4              DO;

     3990    27463    4                QLT$ = P$ -> VARIABLE.QLT$;

  27463 46 022422   000007 236100                    LDQ     7,,PR0
        46 022423   000000 756000 37                 STQ     QLT$

     3991    27464    5                DO WHILE QLT$ -> QLT.LEVEL_NO > 1;

  27464 46 022424   000000 474400 37                 LDP4    QLT$
        46 022425   400000 236100                    LDQ     0,,PR4
        46 022426   000777 376007                    ANQ     511,DL
        46 022427   000002 116007                    CMPQ    2,DL
        46 022430   022441 602000 46                 TNC     s:27469

     3992    27465    5                  QLT$ = QLT$ -> QLT.FATHER;

  27465 46 022431   000000 470400 37                 LDP0    QLT$
        46 022432   000001 236100                    LDQ     1,,PR0
PL6.E3A0      #001=Z8HC$SPECIAL_CASES File=Z8HC.:Z8A6TSI                         TUE 08/26/97 07:51 Page:679
        46 022433   000000 756000 37                 STQ     QLT$

     3993    27466    5                END; /* BASE_LTS pointer is in level 01 ST item */

  27466 46 022434   000000 470400 37                 LDP0    QLT$
        46 022435   000000 236100                    LDQ     0,,PR0
        46 022436   000777 376007                    ANQ     511,DL
        46 022437   000002 116007                    CMPQ    2,DL
        46 022440   022431 603000 46                 TRC     s:27465

     3994    27467                     %GET_LTS (@ID = %BASE_LTS, @ST$ = QLT$ -> QLT.ST$, @RETURN$ = LTS$$);

  27469 46 022441   000000 470400 37                 LDP0    QLT$
        46 022442   000004 471500                    LDP1    4,,PR0
        46 022443   100005 236100                    LDQ     5,,PR1
        46 022444   000005 116000 47                 CMPQ    5
        46 022445   022455 600000 46                 TZE     s:27503
        46 022446   100005 473500                    LDP3    5,,PR1
        46 022447   300000 220100                    LDX0    0,,PR3
        46 022450   001105 100003                    CMPX0   581,DU
        46 022451   022455 601000 46                 TNZ     s:27503

  27497 46 022452   300010 236100                    LDQ     8,,PR3
        46 022453   200255 756100                    STQ     LTS$$,,AUTO

  27501 46 022454   022467 710000 46                 TRA     s:27511

  27503 46 022455   000005 116000 47                 CMPQ    5
        46 022456   022465 600000 46                 TZE     s:27507
        46 022457   100005 473500                    LDP3    5,,PR1
        46 022460   300000 220100                    LDX0    0,,PR3
        46 022461   001066 100003                    CMPX0   566,DU
        46 022462   022465 601000 46                 TNZ     s:27507

  27505 46 022463   200255 756100                    STQ     LTS$$,,AUTO
        46 022464   022467 710000 46                 TRA     s:27511

PL6.E3A0      #001=Z8HC$SPECIAL_CASES File=Z8HC.:Z8A6TSI                         TUE 08/26/97 07:51 Page:680
  27507 46 022465   000005 236000 47                 LDQ     5
        46 022466   200255 756100                    STQ     LTS$$,,AUTO

     3995    27510    4              END;

     3996    27511    4            DO I = %ARA TO %AREAQ;

  27511 46 022467   000005 235007                    LDA     5,DL
        46 022470   200065 755100                    STA     I,,AUTO

     3997    27512    4              CALL FREE_REG_IF_NEED (P$, LOP_LEN, J, LTS$$, I);

  27512 46 022471   200065 630500                    EPPR0   I,,AUTO
        46 022472   200275 450500                    STP0    @BASE_LTS$+1,,AUTO
        46 022473   200255 631500                    EPPR1   LTS$$,,AUTO
        46 022474   200274 451500                    STP1    @ORG+1,,AUTO
        46 022475   200066 633500                    EPPR3   J,,AUTO
        46 022476   200273 453500                    STP3    I,,AUTO
        46 022477   200077 634500                    EPPR4   LOP_LEN,,AUTO
        46 022500   200272 454500                    STP4    @LENGTH,,AUTO
        46 022501   200266 635500                    EPPR5   P$,,AUTO
        46 022502   200271 455500                    STP5    @OFFSET,,AUTO
        46 022503   022513 701000 46                 TSX1    FREE_REG_IF_NEED
        46 022504   000000 011000                    NOP     0

     3998    27513    4            END;

  27513 46 022505   200065 054100                    AOS     I,,AUTO
        46 022506   200065 235100                    LDA     I,,AUTO
        46 022507   000022 115007                    CMPA    18,DL
        46 022510   022471 604400 46                 TMOZ    s:27512

     3999    27514    3          END;

     4000    27515
     4001    27516    2   END FREE_REGISTER_CHECK;

PL6.E3A0      #001=Z8HC$SPECIAL_CASES File=Z8HC.:Z8A6TSI                         TUE 08/26/97 07:51 Page:681
  27516 46 022511   200262 221300                    LDX1  ! LOWER$+1,,AUTO
        46 022512   000001 702211                    TSX2  ! 1,X1

     4002    27517        %EJECT;
PL6.E3A0      #001=Z8HC$SPECIAL_CASES File=Z8HC.:Z8A6TSI                         TUE 08/26/97 07:51 Page:682
     4003    27518        /*----------------*/
     4004    27519    1     FREE_REG_IF_NEED: PROC (OPND$, LEN, ORG, BASE_LTS$, REGISTER);

  27519 46 022513   200270 741300       FREE_REG_IF* STX1  ! @STRING$,,AUTO

     4005    27520        /*----------------*/
     4006    27521        /*I*
     4007    27522            NAME: FREE_REG_IF_NEED
     4008    27523            PURPOSE: Spoil a register if it contains a subfield of the
     4009    27524                     receiving field of a MOVE.
     4010    27525            DESCRIPTION: Check to find out if one of the definitions of a
     4011    27526                         register begins within range of the receiving field
     4012    27527                         of a MOVE. If so then delete that one definition.
     4013    27528        */
     4014    27529    2   DCL OPND$     PTR;
     4015    27530    2   DCL LEN       UBIN;
     4016    27531    2   DCL ORG       UBIN;
     4017    27532    2   DCL BASE_LTS$ PTR;
     4018    27533    2   DCL REGISTER  UBIN;
     4019    27534
     4020    27535    2   DCL PRIME$    PTR;
     4021    27536    2   DCL ST$$      PTR;
     4022    27537    2   DCL LTS$$     PTR;
     4023    27538    2   DCL ORG1      UBIN;
     4024    27539
     4025    27540    2       PRIME$ = RAT.PRIMES (REGISTER);

  27540 46 022514   200275 470500                    LDP0    @REGISTER,,AUTO
        46 022515   000000 235100                    LDA     0,,PR0
        46 022516   000001 735000                    ALS     1
        46 022517   000001 735000                    ALS     1
        46 022520   000000 236005 12                 LDQ     RAT,AL
        46 022521   200276 756100                    STQ     PRIME$,,AUTO

     4026    27541    3       DO WHILE PRIME$ ~= ADDR (NIL);

  27541 46 022522   022720 710000 46                 TRA     s:27620
PL6.E3A0      #001=Z8HC$SPECIAL_CASES File=Z8HC.:Z8A6TSI                         TUE 08/26/97 07:51 Page:683

     4027    27542    3         NEXT$ = PRIME$ -> PRIME.NEXT;                        /*#42937*/

  27542 46 022523   200276 470500                    LDP0    PRIME$,,AUTO
        46 022524   000003 236100                    LDQ     3,,PR0
        46 022525   200075 756100                    STQ     NEXT$,,AUTO

     4028    27543    3         IF PRIME$ -> PRIME.TRIAD -> ETT.ID <= %LAST_REFERENCE_TRIAD

  27543 46 022526   000001 471500                    LDP1    1,,PR0
        46 022527   100000 220100                    LDX0    0,,PR1
        46 022530   000020 100003                    CMPX0   16,DU
        46 022531   022534 603000 46                 TRC     s:27543+6
        46 022532   000005 100003                    CMPX0   5,DU
        46 022533   022536 601000 46                 TNZ     s:27547
        46 022534   000115 100003                    CMPX0   77,DU
        46 022535   022716 601000 46                 TNZ     s:27619

     4029    27544    3             AND PRIME$ -> PRIME.TRIAD -> ETT.ID ~= %SSOP OR
     4030    27545    3                 PRIME$ -> PRIME.TRIAD -> ETT.ID = %CVT THEN
     4031    27546    4           DO;

     4032    27547    4             CALL Z8AU$TYPE_DESCRIPTOR (PRIME$ -> PRIME.TRIAD, TYPE_DESC);

  27547 46 022536   200110 633500                    EPPR3   TYPE_DESC,,AUTO
        46 022537   200303 453500                    STP3    ORG1+2,,AUTO
        46 022540   200276 236100                    LDQ     PRIME$,,AUTO
        46 022541   000001 036003                    ADLQ    1,DU
        46 022542   200302 756100                    STQ     ORG1+1,,AUTO
        46 022543   200302 630500                    EPPR0   ORG1+1,,AUTO
        46 022544   000013 631400 47                 EPPR1   11
        46 022545   000000 701000 xent               TSX1    Z8AU$TYPE_DESCRIPTOR
        46 022546   000000 011000                    NOP     0

     4033    27548                  %FISH (TRIAD = PRIME$ -> PRIME.TRIAD, RTN = ST$$);

  27550 46 022547   200276 470500                    LDP0    PRIME$,,AUTO
PL6.E3A0      #001=Z8HC$SPECIAL_CASES File=Z8HC.:Z8A6TSI                         TUE 08/26/97 07:51 Page:684
        46 022550   000001 236100                    LDQ     1,,PR0
        46 022551   200277 756100                    STQ     ST$$,,AUTO

  27551 46 022552   200277 471500                    LDP1    ST$$,,AUTO
        46 022553   100000 220100                    LDX0    0,,PR1
        46 022554   000751 100003                    CMPX0   489,DU
        46 022555   022565 603000 46                 TRC     CHECK_PRIME

  27552 46 022556   200277 470500                    LDP0    ST$$,,AUTO
        46 022557   000001 236100                    LDQ     1,,PR0
        46 022560   200277 756100                    STQ     ST$$,,AUTO

  27553 46 022561   200277 470500                    LDP0    ST$$,,AUTO
        46 022562   000000 220100                    LDX0    0,,PR0
        46 022563   000751 100003                    CMPX0   489,DU
        46 022564   022556 602000 46                 TNC     s:27552

     4034    27556    4   CHECK_PRIME:
     4035    27557    5               DO;

  27557 46 022565                       CHECK_PRIME  null
     4036    27558    5                 IF OPND$ -> VARIABLE.B.LINKAGE AND ST$$ -> VARIABLE.B.LINKAGE THEN

  27558 46 022565   200271 470500                    LDP0    @OPND$,,AUTO
        46 022566   000000 471500                    LDP1    0,,PR0
        46 022567   100003 236100                    LDQ     3,,PR1
        46 022570   000002 316003                    CANQ    2,DU
        46 022571   022652 600000 46                 TZE     s:27610
        46 022572   200277 473500                    LDP3    ST$$,,AUTO
        46 022573   300003 236100                    LDQ     3,,PR3
        46 022574   000002 316003                    CANQ    2,DU
        46 022575   022652 600000 46                 TZE     s:27610

     4037    27559    6                   DO;

     4038    27560    6                     QLT$ = ST$$ -> VARIABLE.QLT$;

PL6.E3A0      #001=Z8HC$SPECIAL_CASES File=Z8HC.:Z8A6TSI                         TUE 08/26/97 07:51 Page:685
  27560 46 022576   300007 236100                    LDQ     7,,PR3
        46 022577   000000 756000 37                 STQ     QLT$

     4039    27561    7                     DO WHILE QLT$ -> QLT.LEVEL_NO > 1;

  27561 46 022600   000000 471400 37                 LDP1    QLT$
        46 022601   100000 236100                    LDQ     0,,PR1
        46 022602   000777 376007                    ANQ     511,DL
        46 022603   000002 116007                    CMPQ    2,DL
        46 022604   022615 602000 46                 TNC     s:27566

     4040    27562    7                       QLT$ = QLT$ -> QLT.FATHER;

  27562 46 022605   000000 470400 37                 LDP0    QLT$
        46 022606   000001 236100                    LDQ     1,,PR0
        46 022607   000000 756000 37                 STQ     QLT$

     4041    27563    7                     END; /* BASE_LTS pointer is in level 01 ST item */

  27563 46 022610   000000 470400 37                 LDP0    QLT$
        46 022611   000000 236100                    LDQ     0,,PR0
        46 022612   000777 376007                    ANQ     511,DL
        46 022613   000002 116007                    CMPQ    2,DL
        46 022614   022605 603000 46                 TRC     s:27562

     4042    27564                          %GET_LTS (@ID = %BASE_LTS, @ST$ = QLT$ -> QLT.ST$, @RETURN$ =
             27564                              LTS$$);

  27566 46 022615   000000 470400 37                 LDP0    QLT$
        46 022616   000004 471500                    LDP1    4,,PR0
        46 022617   100005 236100                    LDQ     5,,PR1
        46 022620   000005 116000 47                 CMPQ    5
        46 022621   022631 600000 46                 TZE     s:27600
        46 022622   100005 473500                    LDP3    5,,PR1
        46 022623   300000 220100                    LDX0    0,,PR3
        46 022624   001105 100003                    CMPX0   581,DU
        46 022625   022631 601000 46                 TNZ     s:27600
PL6.E3A0      #001=Z8HC$SPECIAL_CASES File=Z8HC.:Z8A6TSI                         TUE 08/26/97 07:51 Page:686

  27594 46 022626   300010 236100                    LDQ     8,,PR3
        46 022627   200300 756100                    STQ     LTS$$,,AUTO

  27598 46 022630   022643 710000 46                 TRA     s:27607

  27600 46 022631   000005 116000 47                 CMPQ    5
        46 022632   022641 600000 46                 TZE     s:27604
        46 022633   100005 473500                    LDP3    5,,PR1
        46 022634   300000 220100                    LDX0    0,,PR3
        46 022635   001066 100003                    CMPX0   566,DU
        46 022636   022641 601000 46                 TNZ     s:27604

  27602 46 022637   200300 756100                    STQ     LTS$$,,AUTO
        46 022640   022643 710000 46                 TRA     s:27607

  27604 46 022641   000005 236000 47                 LDQ     5
        46 022642   200300 756100                    STQ     LTS$$,,AUTO

     4043    27607    6                     IF BASE_LTS$ -> BASE_LTS.SEQ# ~= LTS$$ -> BASE_LTS.SEQ# THEN

  27607 46 022643   200274 473500                    LDP3    @BASE_LTS$,,AUTO
        46 022644   300000 474500                    LDP4    0,,PR3
        46 022645   200300 475500                    LDP5    LTS$$,,AUTO
        46 022646   400003 236100                    LDQ     3,,PR4
        46 022647   500003 116100                    CMPQ    3,,PR5
        46 022650   022716 601000 46                 TNZ     s:27619

     4044    27608    6                       EXIT CHECK_PRIME;
     4045    27609    6                   END;

  27609 46 022651   022665 710000 46                 TRA     s:27614

     4046    27610    5                ELSE IF OPND$ -> VARIABLE.B.LINKAGE OR ST$$ -> VARIABLE.B.LINKAGE THEN

  27610 46 022652   100003 236100                    LDQ     3,,PR1
        46 022653   000002 316003                    CANQ    2,DU
PL6.E3A0      #001=Z8HC$SPECIAL_CASES File=Z8HC.:Z8A6TSI                         TUE 08/26/97 07:51 Page:687
        46 022654   022716 601000 46                 TNZ     s:27619
        46 022655   200277 473500                    LDP3    ST$$,,AUTO
        46 022656   300003 236100                    LDQ     3,,PR3
        46 022657   000002 316003                    CANQ    2,DU
        46 022660   022716 601000 46                 TNZ     s:27619

     4047    27611    5                   EXIT CHECK_PRIME;
     4048    27612    5                 ELSE IF OPND$ -> VARIABLE.COUNT ~= ST$$ -> VARIABLE.COUNT THEN

  27612 46 022661   100000 236100                    LDQ     0,,PR1
        46 022662   300000 676100                    ERQ     0,,PR3
        46 022663   000777 376007                    ANQ     511,DL
        46 022664   022716 601000 46                 TNZ     s:27619

     4049    27613    5                   EXIT CHECK_PRIME;
     4050    27614    5                 ORG1 = TYPE_DESC.DESC.SA * 8 + TYPE_DESC.DESC.NDSC.CN;

  27614 46 022665   200111 236100                    LDQ     TYPE_DESC+1,,AUTO
        46 022666   000017 772000                    QRL     15
        46 022667   000007 376007                    ANQ     7,DL
        46 022670   200302 756100                    STQ     ORG1+1,,AUTO
        46 022671   200111 236100                    LDQ     TYPE_DESC+1,,AUTO
        46 022672   777777 376003                    ANQ     -1,DU
        46 022673   000017 772000                    QRL     15
        46 022674   200302 036100                    ADLQ    ORG1+1,,AUTO
        46 022675   200301 756100                    STQ     ORG1,,AUTO

     4051    27615    5                 IF ORG1 >= ORG AND ORG1 < ORG + LEN THEN

  27615 46 022676   200273 470500                    LDP0    @ORG,,AUTO
        46 022677   000000 116100                    CMPQ    0,,PR0
        46 022700   022716 602000 46                 TNC     s:27619
        46 022701   200272 471500                    LDP1    @LEN,,AUTO
        46 022702   000000 236100                    LDQ     0,,PR0
        46 022703   100000 036100                    ADLQ    0,,PR1
        46 022704   200301 116100                    CMPQ    ORG1,,AUTO
        46 022705   022716 602000 46                 TNC     s:27619
PL6.E3A0      #001=Z8HC$SPECIAL_CASES File=Z8HC.:Z8A6TSI                         TUE 08/26/97 07:51 Page:688
        46 022706   022716 600000 46                 TZE     s:27619

     4052    27616    5                   CALL Z8HU$POOL_PRIME (PRIME$ -> PRIME.TRIAD);

  27616 46 022707   200276 236100                    LDQ     PRIME$,,AUTO
        46 022710   000001 036003                    ADLQ    1,DU
        46 022711   200302 756100                    STQ     ORG1+1,,AUTO
        46 022712   200302 630500                    EPPR0   ORG1+1,,AUTO
        46 022713   000000 631400 47                 EPPR1   0
        46 022714   000000 701000 xent               TSX1    Z8HU$POOL_PRIME
        46 022715   000000 011000                    NOP     0

     4053    27617    5               END; /* CHECK_PRIME */

     4054    27618    4             END;

     4055    27619    3         PRIME$ = NEXT$;                                      /*#42937*/

  27619 46 022716   200075 236100                    LDQ     NEXT$,,AUTO
        46 022717   200276 756100                    STQ     PRIME$,,AUTO

     4056    27620    3       END; /* WHILE PRIME$ ~= ADDR (NIL) */

  27620 46 022720   000005 116000 47                 CMPQ    5
        46 022721   022523 601000 46                 TNZ     s:27542

     4057    27621    2   END FREE_REG_IF_NEED;

  27621 46 022722   200270 221300                    LDX1  ! @STRING$,,AUTO
        46 022723   000001 702211                    TSX2  ! 1,X1

     4058    27622
     4059    27623    1   END Z8HC$SPECIAL_CASES;

  27623 46 022724   000000 702200 xent               TSX2  ! X66_ARET

PL6.E3A0      #001=Z8HC$SPECIAL_CASES File=Z8HC.:Z8A6TSI                         TUE 08/26/97 07:51 Page:689
--  Include file information  --

   Z8A_NOP_OPTS.:Z8A6TOU  cannot be made into a system file and is referenced.
   Z8A_LIBRARY.:Z8A6TOU  cannot be made into a system file and is referenced.
   Z8A_ILS.:Z8A6TOU  cannot be made into a system file and is referenced.
   Z8A_LTS.:Z8A6TOU  cannot be made into a system file and is referenced.
   Z8A_QLT.:Z8A6TOU  cannot be made into a system file and is referenced.
   Z8A_OBJ.:Z8A6TOU  cannot be made into a system file and is referenced.
   Z8A_MKCN.:Z8A6TOU  cannot be made into a system file and is referenced.
   Z8A_COMCOM.:Z8A6TOU  cannot be made into a system file and is referenced.
   Z8H_OPCODES.:Z8A6TOU  is referenced.
   Z8A_ERR_NUMS.:Z8A6TOU  is referenced.
   Z8A_DESC.:Z8A6TOU  cannot be made into a system file and is referenced.
   Z8H_TEMP.:Z8A6TOU  is referenced.
   Z8H_PASSES.:Z8A6TOU  is referenced.
   Z8H_CODE.:Z8A6TOU  cannot be made into a system file and is referenced.
   Z8H_EXT.:Z8A6TOU  cannot be made into a system file and is referenced.
   Z8H_RAT.:Z8A6TOU  cannot be made into a system file and is referenced.
   Z8H_DEP.:Z8A6TOU  cannot be made into a system file and is referenced.
   Z8H_SUPPORT.:Z8A6TOU  is referenced.
   Z8A_ST.:Z8A6TOU  cannot be made into a system file and is referenced.
   Z8A_TYPES.:Z8A6TOU  is referenced.
   Z8A_ETT.:Z8A6TOU  cannot be made into a system file and is referenced.
   Z8A_ILL.:Z8A6TOU  cannot be made into a system file and is referenced.
   CP_6_SUBS.:LIB_E04  is referenced.
   CP_6_C.:LIB_E04  is referenced.
   CP_6.:LIB_E04  cannot be made into a system file and is referenced.
   Z9A_FLAGS.:Z8A6TOU  is referenced.
   Z8A_SYS_FILE.:Z8A6TOU  is referenced.
   Z8H_PCOM.:Z8A6TOU  cannot be made into a system file and is referenced.
   X8A_COM_MACS.:X8A6TOU  is referenced.
   Z8A_NAMES.:Z8A6TOU  is referenced.
   Z8A_SUPP_MAC.:Z8A6TOU  is referenced.
   Z8A_DEFC.:Z8A6TOU  cannot be made into a system file and is referenced.
      No diagnostics issued in procedure Z8HC$SPECIAL_CASES.
PL6.E3A0      #001=Z8HC$SPECIAL_CASES File=Z8HC.:Z8A6TSI                         TUE 08/26/97 07:51 Page:690

 **** Variables and constants ****

  ****  Section 000 LblCom ITERATION

  ****  Scalars and arrays  ****
OctLoc.c.b A Datatyp(siz) R M Lvl/name                 OctLoc.c.b A Datatyp(siz) R M Lvl/name

     0-0-0/w SBIN              1 ITERATION

  ****  Section 001 LblCom SUPP_DATA

  ****  Scalars and arrays  ****
OctLoc.c.b A Datatyp(siz) R M Lvl/name                 OctLoc.c.b A Datatyp(siz) R M Lvl/name

     0-0-0/c STRC              1 SUPP_DATA

  ****  Section 003 LblCom ILL$

  ****  Scalars and arrays  ****
OctLoc.c.b A Datatyp(siz) R M Lvl/name                 OctLoc.c.b A Datatyp(siz) R M Lvl/name

     0-0-0/w PTR         r     1 ILL$

  ****  Section 004 LblCom ILL_

  ****  Scalars and arrays  ****
OctLoc.c.b A Datatyp(siz) R M Lvl/name                 OctLoc.c.b A Datatyp(siz) R M Lvl/name

     0-0-0/w STRC(180)         1 ILL_

  ****  Section 005 LblCom ETT$

  ****  Scalars and arrays  ****
OctLoc.c.b A Datatyp(siz) R M Lvl/name                 OctLoc.c.b A Datatyp(siz) R M Lvl/name

     0-0-0/w PTR         r     1 ETT$

PL6.E3A0      #001=Z8HC$SPECIAL_CASES File=Z8HC.:Z8A6TSI                         TUE 08/26/97 07:51 Page:691
  ****  Section 006 LblCom HEAD_ETT$

  ****  Scalars and arrays  ****
OctLoc.c.b A Datatyp(siz) R M Lvl/name                 OctLoc.c.b A Datatyp(siz) R M Lvl/name

     0-0-0/w PTR         r     1 HEAD_ETT$

  ****  Section 007 LblCom ETT_BUCKETS

  ****  Scalars and arrays  ****
OctLoc.c.b A Datatyp(siz) R M Lvl/name                 OctLoc.c.b A Datatyp(siz) R M Lvl/name

     0-0-0/w PTR               1 ETT_BUCKETS(0:511)

  ****  Section 008 LblCom ETT_

  ****  Scalars and arrays  ****
OctLoc.c.b A Datatyp(siz) R M Lvl/name                 OctLoc.c.b A Datatyp(siz) R M Lvl/name

     0-0-0/w STRC(180)   r     1 ETT_

  ****  Section 009 LblCom ST$

  ****  Scalars and arrays  ****
OctLoc.c.b A Datatyp(siz) R M Lvl/name                 OctLoc.c.b A Datatyp(siz) R M Lvl/name

     0-0-0/w PTR         r     1 ST$

  ****  Section 010 LblCom ST_

  ****  Scalars and arrays  ****
OctLoc.c.b A Datatyp(siz) R M Lvl/name                 OctLoc.c.b A Datatyp(siz) R M Lvl/name

     0-0-0/w STRC(180)         1 ST_

  ****  Section 011 LblCom DEP

PL6.E3A0      #001=Z8HC$SPECIAL_CASES File=Z8HC.:Z8A6TSI                         TUE 08/26/97 07:51 Page:692
  ****  Scalars and arrays  ****
OctLoc.c.b A Datatyp(siz) R M Lvl/name                 OctLoc.c.b A Datatyp(siz) R M Lvl/name

     0-0-0/b STRC(1728)  r     1 DEP

  ****  Section 012 LblCom RAT

  ****  Scalars and arrays  ****
OctLoc.c.b A Datatyp(siz) R M Lvl/name                 OctLoc.c.b A Datatyp(siz) R M Lvl/name

     0-0-0/w STRC(144)   r     1 RAT(0:27)

  ****  Section 013 LblCom NUMBER_OF_PRIMES

  ****  Scalars and arrays  ****
OctLoc.c.b A Datatyp(siz) R M Lvl/name                 OctLoc.c.b A Datatyp(siz) R M Lvl/name

     0-0-0/w SBIN        r     1 NUMBER_OF_PRIMES

  ****  Section 014 LblCom NUMBER_OF_TEMPS

  ****  Scalars and arrays  ****
OctLoc.c.b A Datatyp(siz) R M Lvl/name                 OctLoc.c.b A Datatyp(siz) R M Lvl/name

     0-0-0/w SBIN        r     1 NUMBER_OF_TEMPS

  ****  Section 015 LblCom NUMBER_OF_REFS

  ****  Scalars and arrays  ****
OctLoc.c.b A Datatyp(siz) R M Lvl/name                 OctLoc.c.b A Datatyp(siz) R M Lvl/name

     0-0-0/w SBIN        r     1 NUMBER_OF_REFS

  ****  Section 016 LblCom GENERATING_PTRS

  ****  Scalars and arrays  ****
OctLoc.c.b A Datatyp(siz) R M Lvl/name                 OctLoc.c.b A Datatyp(siz) R M Lvl/name
PL6.E3A0      #001=Z8HC$SPECIAL_CASES File=Z8HC.:Z8A6TSI                         TUE 08/26/97 07:51 Page:693

     0-0-0/b BIT               1 GENERATING_PTRS

  ****  Section 017 LblCom USE_PROC_RETURN

  ****  Scalars and arrays  ****
OctLoc.c.b A Datatyp(siz) R M Lvl/name                 OctLoc.c.b A Datatyp(siz) R M Lvl/name

     0-0-0/w PTR         r     1 USE_PROC_RETURN

  ****  Section 018 LblCom CURRENT_SCOPE$

  ****  Scalars and arrays  ****
OctLoc.c.b A Datatyp(siz) R M Lvl/name                 OctLoc.c.b A Datatyp(siz) R M Lvl/name

     0-0-0/w PTR         r     1 CURRENT_SCOPE$

  ****  Section 019 LblCom HEAD_REF$

  ****  Scalars and arrays  ****
OctLoc.c.b A Datatyp(siz) R M Lvl/name                 OctLoc.c.b A Datatyp(siz) R M Lvl/name

     0-0-0/w PTR         r     1 HEAD_REF$

  ****  Section 020 LblCom HEAD_TEMP$

  ****  Scalars and arrays  ****
OctLoc.c.b A Datatyp(siz) R M Lvl/name                 OctLoc.c.b A Datatyp(siz) R M Lvl/name

     0-0-0/w PTR               1 HEAD_TEMP$

  ****  Section 021 LblCom CONST$

  ****  Scalars and arrays  ****
OctLoc.c.b A Datatyp(siz) R M Lvl/name                 OctLoc.c.b A Datatyp(siz) R M Lvl/name

     0-0-0/w PTR         r     1 CONST$
PL6.E3A0      #001=Z8HC$SPECIAL_CASES File=Z8HC.:Z8A6TSI                         TUE 08/26/97 07:51 Page:694

  ****  Section 022 LblCom HEAD_PRIMES$

  ****  Scalars and arrays  ****
OctLoc.c.b A Datatyp(siz) R M Lvl/name                 OctLoc.c.b A Datatyp(siz) R M Lvl/name

     0-0-0/w PTR               1 HEAD_PRIMES$

  ****  Section 023 LblCom CUR_LOOP_LEVEL

  ****  Scalars and arrays  ****
OctLoc.c.b A Datatyp(siz) R M Lvl/name                 OctLoc.c.b A Datatyp(siz) R M Lvl/name

     0-0-0/w SBIN        r     1 CUR_LOOP_LEVEL

  ****  Section 024 LblCom PEPD

  ****  Scalars and arrays  ****
OctLoc.c.b A Datatyp(siz) R M Lvl/name                 OctLoc.c.b A Datatyp(siz) R M Lvl/name

     0-0-0/w STRC        r     1 PEPD(0:1)

  ****  Section 025  Data  Z8HC$SPECIAL_CASES

  ****  Scalars and arrays  ****
OctLoc.c.b A Datatyp(siz) R M Lvl/name                 OctLoc.c.b A Datatyp(siz) R M Lvl/name

     4-0-0/w BIT (6)     r     1 BCD_BUFFER(0:5)
     3-0-0/w SBIN        r     1 BITS_IN_BUFFER             4-0-0/w SBIN        r     1 BUFFER
     4-0-0/w CHAR(4)     r     1 CHAR_BUFFER                1-0-0/w PTR         r     1 CONSTANT$
     7-0-0/w PTR         r     1 DML_IA$                    5-0-0/w PTR         r     1 FLUSH_BLK$
     0-0-0/b STRC        r     1 MOD_KEY
    11-0-0/w UBIN        r     1 MVPP_VEC(0:21)
     6-0-0/w SBIN        r     1 OLD_SA                    10-0-0/b BIT         r     1 POOL_LOP_ARGP
     2-0-0/w SBIN        r     1 TARGET

  ****  Section 026 LblCom CURRENT_BLOCK$
PL6.E3A0      #001=Z8HC$SPECIAL_CASES File=Z8HC.:Z8A6TSI                         TUE 08/26/97 07:51 Page:695

  ****  Scalars and arrays  ****
OctLoc.c.b A Datatyp(siz) R M Lvl/name                 OctLoc.c.b A Datatyp(siz) R M Lvl/name

     0-0-0/w PTR         r     1 CURRENT_BLOCK$

  ****  Section 027 LblCom ROOT_PROC_BLOCK$

  ****  Scalars and arrays  ****
OctLoc.c.b A Datatyp(siz) R M Lvl/name                 OctLoc.c.b A Datatyp(siz) R M Lvl/name

     0-0-0/w PTR         r     1 ROOT_PROC_BLOCK$

  ****  Section 028 LblCom MKCN

  ****  Scalars and arrays  ****
OctLoc.c.b A Datatyp(siz) R M Lvl/name                 OctLoc.c.b A Datatyp(siz) R M Lvl/name

     0-0-0/w STRC(72)    r     1 MKCN

  ****  Section 029 LblCom OBJ$

  ****  Scalars and arrays  ****
OctLoc.c.b A Datatyp(siz) R M Lvl/name                 OctLoc.c.b A Datatyp(siz) R M Lvl/name

     0-0-0/w PTR         r     1 OBJ$

  ****  Section 030 LblCom PAGING_OBJ

  ****  Scalars and arrays  ****
OctLoc.c.b A Datatyp(siz) R M Lvl/name                 OctLoc.c.b A Datatyp(siz) R M Lvl/name

     0-0-0/w BIT         r     1 PAGING_OBJ

  ****  Section 031 LblCom OBJ_PAGE_COUNT

  ****  Scalars and arrays  ****
PL6.E3A0      #001=Z8HC$SPECIAL_CASES File=Z8HC.:Z8A6TSI                         TUE 08/26/97 07:51 Page:696
OctLoc.c.b A Datatyp(siz) R M Lvl/name                 OctLoc.c.b A Datatyp(siz) R M Lvl/name

     0-0-0/w SBIN              1 OBJ_PAGE_COUNT

  ****  Section 032 LblCom OBJ_FINISHED

  ****  Scalars and arrays  ****
OctLoc.c.b A Datatyp(siz) R M Lvl/name                 OctLoc.c.b A Datatyp(siz) R M Lvl/name

     0-0-0/w BIT               1 OBJ_FINISHED

  ****  Section 033 LblCom OBJ_SEG_SIZE

  ****  Scalars and arrays  ****
OctLoc.c.b A Datatyp(siz) R M Lvl/name                 OctLoc.c.b A Datatyp(siz) R M Lvl/name

     0-0-0/w SBIN              1 OBJ_SEG_SIZE

  ****  Section 034 LblCom OBJ_TOP_NEW_SEG

  ****  Scalars and arrays  ****
OctLoc.c.b A Datatyp(siz) R M Lvl/name                 OctLoc.c.b A Datatyp(siz) R M Lvl/name

     0-0-0/w PTR               1 OBJ_TOP_NEW_SEG

  ****  Section 035 LblCom OBJ_LAST_REGULAR_PAGE

  ****  Scalars and arrays  ****
OctLoc.c.b A Datatyp(siz) R M Lvl/name                 OctLoc.c.b A Datatyp(siz) R M Lvl/name

     0-0-0/w PTR               1 OBJ_LAST_REGULAR_PAGE

  ****  Section 036 LblCom OBJ_

  ****  Scalars and arrays  ****
OctLoc.c.b A Datatyp(siz) R M Lvl/name                 OctLoc.c.b A Datatyp(siz) R M Lvl/name

PL6.E3A0      #001=Z8HC$SPECIAL_CASES File=Z8HC.:Z8A6TSI                         TUE 08/26/97 07:51 Page:697
     0-0-0/w STRC(180)   r     1 OBJ_

  ****  Section 037 LblCom QLT$

  ****  Scalars and arrays  ****
OctLoc.c.b A Datatyp(siz) R M Lvl/name                 OctLoc.c.b A Datatyp(siz) R M Lvl/name

     0-0-0/w PTR         r     1 QLT$

  ****  Section 038 LblCom PREV_01_QLT$

  ****  Scalars and arrays  ****
OctLoc.c.b A Datatyp(siz) R M Lvl/name                 OctLoc.c.b A Datatyp(siz) R M Lvl/name

     0-0-0/w PTR               1 PREV_01_QLT$

  ****  Section 039 LblCom QLT_

  ****  Scalars and arrays  ****
OctLoc.c.b A Datatyp(siz) R M Lvl/name                 OctLoc.c.b A Datatyp(siz) R M Lvl/name

     0-0-0/w STRC(180)         1 QLT_

  ****  Section 040 LblCom LTS$

  ****  Scalars and arrays  ****
OctLoc.c.b A Datatyp(siz) R M Lvl/name                 OctLoc.c.b A Datatyp(siz) R M Lvl/name

     0-0-0/w PTR               1 LONG_ITEM$                 0-0-0/w PTR         r     1 LTS$

  ****  Section 041 LblCom LTS_

  ****  Scalars and arrays  ****
OctLoc.c.b A Datatyp(siz) R M Lvl/name                 OctLoc.c.b A Datatyp(siz) R M Lvl/name

     0-0-0/w STRC(180)   r     1 LTS_

PL6.E3A0      #001=Z8HC$SPECIAL_CASES File=Z8HC.:Z8A6TSI                         TUE 08/26/97 07:51 Page:698
  ****  Section 042 LblCom ILS$

  ****  Scalars and arrays  ****
OctLoc.c.b A Datatyp(siz) R M Lvl/name                 OctLoc.c.b A Datatyp(siz) R M Lvl/name

     0-0-0/w PTR         r     1 ILS$

  ****  Section 043 LblCom ILS_

  ****  Scalars and arrays  ****
OctLoc.c.b A Datatyp(siz) R M Lvl/name                 OctLoc.c.b A Datatyp(siz) R M Lvl/name

     0-0-0/w STRC(180)         1 ILS_

  ****  Section 044 RoData Z8HC$SPECIAL_CASES

  ****  Scalars and arrays  ****
OctLoc.c.b A Datatyp(siz) R M Lvl/name                 OctLoc.c.b A Datatyp(siz) R M Lvl/name

    12-0-0/w UBIN        r     1 BINARY_VALUE_OF_NIL
    13-0-0/w UBIN        r     1 BINARY_VALUE_OF_NIL_EPTR
    13-0-0/w EPTR        r     1 NIL_EPTR                  13-0-0/w PTR         r     1 NIL_EPTR$
     0-0-0/w SBIN        r     1 TAGS(0:8)                 12-0-0/w PTR         r     1 VALUE_OF_NIL
    11-0-0/w PTR         r     1 ZERO_PTR$                 11-0-0/w SBIN        r     1 ZERO_WORD

  ****  Section 045 LblCom MVPP

  ****  Scalars and arrays  ****
OctLoc.c.b A Datatyp(siz) R M Lvl/name                 OctLoc.c.b A Datatyp(siz) R M Lvl/name

     0-0-0/w STRC(144)   r     1 MVPP

  ****  Auto variables  ****

  ****  Scalars and arrays  ****
OctLoc.c.b A Datatyp(siz) R M Lvl/name                 OctLoc.c.b A Datatyp(siz) R M Lvl/name

PL6.E3A0      #001=Z8HC$SPECIAL_CASES File=Z8HC.:Z8A6TSI                         TUE 08/26/97 07:51 Page:699
   274-0-0/w PTR         r     1 @BASE_LTS$               265-0-0/w PTR         r     1 @BUFFER_SA
     5-0-0/w PTR         r     1 @CASE_PASS               267-0-0/w PTR         r     1 @CONSTANT$
   272-0-0/w PTR         r     1 @LEN                     272-0-0/w PTR         r     1 @LENGTH
   271-0-0/w PTR         r     1 @OFFSET                  271-0-0/w PTR         r     1 @OPND$
   273-0-0/w PTR         r     1 @ORG                       4-0-0/w PTR         r     1 @PCOM
     3-0-0/w PTR         r     1 @PILL                    263-0-0/w PTR         r     1 @PILL
   275-0-0/w PTR         r     1 @REGISTER                270-0-0/w PTR         r     1 @STRING$
   263-0-0/w PTR         r     1 @TARGET_LENGTH           263-0-0/w PTR         r     1 @TARGET_LENGTH
   263-0-0/w PTR         r     1 @TRIAD                    11-0-0/b BIT               1 AORQ
   120-0-0/w PTR         r     1 ARGLIST$                 254-0-0/w PTR               1 ARGP_LOP$
   246-0-0/w UBIN        r     1 AVOID_DEFLAB              *0-0-0/w PTR         r     1 BASE_LTS$
   141-0-0/w SBIN(18)    r     1 BOTTOM_HALF              125-0-0/w SBIN        r     1 BOUNDS
    *0-0-0/w PTR         r     1 BUFFER_SA                 *0-0-0/w SBIN        r     1 CASE_PASS
    51-0-0/w UBIN        r     1 CN                        *0-0-0/w PTR         r     1 CONSTANT$
   252-0-0/w CHAR        r     1 CURRENCY_SIGN            242-0-0/w SBIN        r     1 CURRENT_SA
   245-0-0/w PTR         r     1 DEF$                      40-0-0/b BIT               1 DEFER
    13-0-0/w STRC(180)         1 DEFER_BUFFER(0:3)
    37-0-0/w SBIN              1 DEFER_BUFFER_IDX          43-0-0/w STRC              1 DESC
   253-0-0/w PTR               1 DEST_PROC$               251-0-0/w PTR         r     1 EVAL$
   122-0-0/w PTR         r     1 GLIST$                   243-0-0/w PTR         r     1 GO_EXPR$
    65-0-0/w SBIN        r     1 I                        273-0-0/w SBIN        r     1 I
   263-0-0/w SBIN        r     1 I                        263-0-0/w SBIN        r     1 I
    12-0-0/b STRC        r     1 INST_WORD                114-0-0/w SBIN              1 ITERS
    66-0-0/w SBIN        r     1 J                         67-0-0/w SBIN        r     1 K
    10-0-0/w UBIN              1 LAST_FREED                 7-0-0/w UBIN              1 LAST_USED
   126-0-0/w SBIN        r     1 LDAQ_OFFSET               *0-0-0/w UBIN        r     1 LEN
    50-0-0/w SBIN        r     1 LENGTH                    *0-0-0/w SBIN        r     1 LENGTH
   132-0-0/w SBIN        r     1 LENGTH_IN_WORDS           77-0-0/w SBIN        r     1 LOP_LEN
   101-0-0/w PTR         r     1 LOP_REF$                 130-0-0/w BIT (2)     r     1 LOP_SIGN
   261-0-0/w PTR         r     1 LOWER$                   255-0-0/w PTR         r     1 LTS$$
   300-0-0/w PTR         r     1 LTS$$
   142-0-0/w SBIN        r     1 MVN_BUFFER(0:63)
   127-0-0/w SBIN        r     1 MVN_OFFSET                53-0-0/w STRC(324)         1 NAME
    75-0-0/w PTR         r     1 NEXT$                    117-0-0/w PTR         r     1 NODE$
    73-0-0/w UBIN        r     1 NODE_ID                  121-0-0/w SBIN        r     1 NUMBER_OF_ARGS
   267-0-0/w UBIN        r     1 N_OPNDS                  135-0-0/w SBIN              1 OFFSET
    *0-0-0/w SBIN        r     1 OFFSET                    41-0-0/w PTR               1 OLD_CURRENT_BLOCK$
PL6.E3A0      #001=Z8HC$SPECIAL_CASES File=Z8HC.:Z8A6TSI                         TUE 08/26/97 07:51 Page:700
    *0-0-0/w PTR         r     1 OPND$                    250-0-0/w PTR               1 OPTCONST$
   247-0-0/w UBIN        r     1 OPTWRD                    *0-0-0/w UBIN        r     1 ORG
   301-0-0/w UBIN        r     1 ORG1                      64-0-0/w PTR         r     1 P$
   264-0-0/w PTR         r     1 P$                       266-0-0/w PTR         r     1 P$
   257-0-0/w PTR         r     1 P2$                       *0-0-0/w STRC(1872)  r     1 PCOM
    *0-0-0/w STRC(1872)        1 PCOM_                     *0-0-0/w PTR         r     1 PILL
    *0-0-0/w PTR         r     1 PILL                      76-0-0/w PTR         r     1 PRIME$
   276-0-0/w PTR         r     1 PRIME$                   265-0-0/w PTR         r     1 REC$
   116-0-0/w PTR         r     1 REF$                       6-0-0/w UBIN        r     1 REGID
    74-0-0/w UBIN        r     1 REGISTER                  *0-0-0/w UBIN        r     1 REGISTER
   115-0-0/w SBIN              1 REMAIN                   100-0-0/w SBIN        r     1 ROP_LEN
   102-0-0/w PTR         r     1 ROP_REF$                 131-0-0/w BIT (2)     r     1 ROP_SIGN
    52-0-0/w UBIN        r     1 SA                        47-0-0/w SBIN        r     1 SCALE
    42-0-0/w SBIN              1 SEG_NO#                  264-0-0/w PTR         r     1 SEND$
   244-0-0/w PTR         r     1 SENDING$                  44-0-0/w BIT (2)     r     1 SIGN
   137-0-0/w SBIN        r     1 SOURCE
   103-0-0/w PTR         r     1 SSOP_SIZ_BUFFER(0:3)
   107-0-0/w SBIN        r     1 SSOP_SIZ_IDX             256-0-0/w PTR         r     1 ST$$
   277-0-0/w PTR         r     1 ST$$                     133-0-0/w PTR         r     1 STRING$
    *0-0-0/w PTR         r     1 STRING$                   46-0-0/w BIT (2)     r     1 TA
   134-0-0/w PTR         r     1 TARGET$                  140-0-0/w SBIN        r     1 TARGET_LENGTH
    *0-0-0/w SBIN        r     1 TARGET_LENGTH             *0-0-0/w SBIN        r     1 TARGET_LENGTH
   124-0-0/w PTR         r     1 TEMP$                     70-0-0/c CHAR(12)    r     1 TEMP_CHAR
    45-0-0/w BIT         r     1 TN                       136-0-0/w SBIN        r     1 TOTAL_MOVED
    *0-0-0/w PTR         r     1 TRIAD                    110-0-0/w STRC(144)   r     1 TYPE_DESC
   260-0-0/w PTR         r     1 UPPER$                   123-0-0/w SBIN        r     1 WORDS_FOR_TEMP

  ****  SYMREF variables  ****

  ****  Scalars and arrays  ****
OctLoc.c.b A Datatyp(siz) R M Lvl/name                 OctLoc.c.b A Datatyp(siz) R M Lvl/name

     0-0-0/d STRC(13248) r     1 COMCOM                     0-0-0/w UBIN              1 ILL_STEP(0:144)
     0-0-0/w UBIN              1 ILS_STEP_TABLE(0:2)
     0-0-0/w UBIN              1 LTS_STEP(0:37)
     0-0-0/w UBIN              1 OBJ_STEP(0:4)

PL6.E3A0      #001=Z8HC$SPECIAL_CASES File=Z8HC.:Z8A6TSI                         TUE 08/26/97 07:51 Page:701
  ****  BASED and DCB variables  ****

  ****  Scalars and arrays  ****
OctLoc.c.b A Datatyp(siz) R M Lvl/name                 OctLoc.c.b A Datatyp(siz) R M Lvl/name

     0-0-0/w STRC(108)         1 ACCEPT_DISPLAY             0-0-0/w STRC(396)         1 ALPHABET
     0-0-0/w STRC(144)         1 ALTER_LTS                  0-0-0/w STRC(3672)        1 ALT_KEY
     0-0-0/w STRC(36864) r     1 ARGLIST                    0-0-0/w STRC(396)         1 ARRAY
     0-0-0/w STRC(180)   r     1 ARRAY_PRESET_LTS           0-0-0/w STRC(288)   r     1 BASE_LTS
     0-0-0/b BIT (6)     r     1 BCD$CHARS(0:63)
     0-0-0/w STRC(108)         1 BINARY_ILL                 0-0-0/w STRC(396)   r     1 BLOCK
     0-0-0/w STRC(144)         1 BRANCH_ILL                 0-0-0/w STRC(144)         1 BT
     0-0-0/w STRC(216)   r     1 CCOSU                      0-0-0/w STRC(396)         1 CD
     0-0-0/w STRC(288)         1 CD_LTS                     0-0-0/w CHAR(4096)  r     1 CHARS
     0-0-0/w STRC(396)         1 CLASS                      0-0-0/w STRC(108)         1 CODED_MOVE
     0-0-0/w STRC(396)         1 CONDITION                  0-0-0/w STRC(396)   r     1 CONST
     0-0-0/w STRC(72)          1 CONT                       0-0-0/w STRC(540)         1 CONTROL_NAME_LTS
     0-0-0/w STRC(1872)        1 COPY_FILE                  0-0-0/w STRC(396)         1 DB
     0-0-0/w STRC(396)         1 DCB_                       0-0-0/w STRC(144)         1 DEFLB
     0-0-0/w STRC(108)         1 DEPENDING_SIZE             0-0-0/w STRC(5472)        1 DIMS
     0-0-0/w STRC(396)         1 DML_ITEM                   0-0-0/w STRC(216)         1 DML_REC
     0-0-0/w STRC(144)         1 DOEND                      0-0-0/w STRC(396)   r     1 DO_N
     0-0-0/w STRC(180)         1 DV4I                       0-0-0/w STRC(180)   r     1 ENTRY_ILL
     0-0-0/w STRC(180)   r     1 ETT                        0-0-0/w STRC(108)         1 EVALU
     0-0-0/w STRC(73836)       1 EVALUATE                   0-0-0/w STRC(396)         1 FD
     0-0-0/w STRC(1692)        1 FILE_LTS                   0-0-0/w STRC(144)   r     1 GO
     0-0-0/w STRC(180)   r     1 ILL                        0-0-0/w STRC              1 ILL_NO_OPS
     0-0-0/w STRC(180)   r     1 ILS                        0-0-0/w STRC(108)         1 INDEXES
     0-0-0/w STRC(360)         1 INIT_LTS                   0-0-0/w STRC(396)         1 INTDEF
     0-0-0/w STRC(180)         1 IO_RESTORE_CHAIN           0-0-0/w STRC(144)         1 KEY
     0-0-0/w STRC(396)   r     1 LABEL                      0-0-0/w STRC(36864) r     1 LCNST
     0-0-0/w STRC(108)   r     1 LINOI                      0-0-0/w STRC(72)    r     1 LONG
     0-0-0/w STRC        r     1 LTS                        0-0-0/w STRC(360)   r     1 LTSS
     0-0-0/w STRC(36936) r     1 LTS_PTR_ARRAY              0-0-0N  NULL        r     1 M$UC
     0-0-0/w STRC(72)          1 MFILL                      0-0-0/w STRC(396)         1 MNEMONIC
     0-0-0/w STRC(180)   r     1 MULTI_GO                   0-0-0/w STRC(180)         1 MVEAL
     0-0-0/w STRC(108)   r     1 MVFIL                      0-0-0/w STRC(72)          1 MVIIS
PL6.E3A0      #001=Z8HC$SPECIAL_CASES File=Z8HC.:Z8A6TSI                         TUE 08/26/97 07:51 Page:702
     0-0-0/w STRC(144)         1 NEL                        0-0-0/w STRC        r     1 NOP
     0-0-0/w STRC        r     1 OBJ                        0-0-0/w STRC(72)    r     1 OBJ_LAB
     0-0-0/w STRC(108)   r     1 OBJ_LINE                   0-0-0/w STRC(72)    r     1 OBJ_ORG
     0-0-0/w STRC(72)    r     1 OBJ_SCOPE                  0-0-0/w STRC(144)   r     1 OBJ_WORD
     0-0-0/w STRC(216)         1 OPEN_LTS                   0-0-0/w STRC(144)         1 OPN
     0-0-0/w STRC(180)   r     1 OS_CALL                    0-0-0/w STRC(36864)       1 PAGE
     0-0-0/w STRC(396)   r     1 PARA                       0-0-0/w STRC(216)         1 PFORM
     0-0-0/w STRC(144)   r     1 PINC                       0-0-0/w STRC(144)   r     1 PREOFF
     0-0-0/w STRC(108)   r     1 PRESET                     0-0-0/w STRC(144)   r     1 PRIME
     0-0-0/w STRC(396)   r     1 PROC_                      0-0-0/w STRC(396)         1 PROC_DEF
     0-0-0/w STRC(900)   r     1 PROC_SUPP                  0-0-0/w STRC(144)   r     1 P_A_PRESET
     0-0-0/w STRC(144)   r     1 P_P_PRESET                 0-0-0/w STRC(216)   r     1 QLT
     0-0-0/w STRC(396)         1 RD                         0-0-0/w STRC(216)   r     1 REF
     0-0-0/w STRC(144)         1 REMEM                      0-0-0/w STRC(108)         1 RENAMES
     0-0-0/w STRC(720)         1 REPORT_01_LTS              0-0-0/w STRC(432)         1 REPORT_ELEM_LTS
     0-0-0/w STRC(252)         1 REPORT_GRP_LTS             0-0-0/w STRC(1332)        1 REPORT_LTS
     0-0-0/w STRC(144)         1 RVA_LTS                    0-0-0/w STRC(396)   r     1 SCALAR
     0-0-0/w STRC(144)   r     1 SCOPE                      0-0-0/w STRC(396)         1 SD
     0-0-0/w STRC(216)   r     1 SEARCH_                    0-0-0/w STRC(396)         1 SECTION
     0-0-0/w STRC(396)   r     1 SEGMENT                    0-0-0/w STRC(360)         1 SEGMENT_LTS
     0-0-0/w STRC(396)   r     1 ST                         0-0-0/w STRC(72)          1 STP2
     0-0-0/w STRC(36900) r     1 STRING                     0-0-0/w STRC(252)         1 SUM_LTS
     0-0-0/w STRC(396)         1 SWITCH                     0-0-0/w STRC(396)         1 SYMBOLIC_CHAR
     0-0-0/w STRC(396)   r     1 SYMDEF_                    0-0-0/w STRC(396)         1 SYMREF_
     0-0-0/w STRC(396)   r     1 TEMP                       0-0-0/w STRC(144)   r     1 TRINARY_ILL
     0-0-0/w STRC(72)          1 UNARY_ILL                  0-0-0/d STRC(612)         1 USE
     0-0-0/w STRC(216)   r     1 USER_CALL                  0-0-0/w STRC(252)         1 USE_SUPP
     0-0-0/w STRC(108)         1 VAL                        0-0-0/w STRC(108)         1 VAL_END
     0-0-0/w STRC(396)   r     1 VARIABLE                   0-0-0/w STRC(72)          1 WHEN


   Procedure Z8HC$SPECIAL_CASES requires 9685 words for executable code.
   Procedure Z8HC$SPECIAL_CASES requires 218 words of local(AUTO) storage.

    No errors detected in file Z8HC.:Z8A6TSI    .
