PL6.E3A0      #001=Z8HI$BURST File=Z8HI.:Z8A6TSI                                 SAT 08/09/97 13:19 Page:1
        1        1        /*M* Z8HI$BURST -- Code Generator interpretation loop                  */
        2        2        /*T***********************************************************/
        3        3        /*T*                                                         */
        4        4        /*T* Copyright (c) Bull HN Information Systems Inc., 1997    */
        5        5        /*T*                                                         */
        6        6        /*T***********************************************************/
        7        7        Z8HI$BURST: PROC(PILL,DESCRIPTOR);
        8        8
        9        9        /*P*
       10       10
       11       11               NAME: Z8HI$BURST
       12       12            PURPOSE: To interpret PSEUDO-CODE.
       13       13
       14       14
       15       15        */
       16       16        /*D*
       17       17
       18       18               NAME: Z8HI$BURST
       19       19               CALL: CALL Z8HI$BURST(=PILL,=DESCRIPTOR);
       20       20              INPUT: PILL
       21       21                       Points to a triad that should be associated with this
       22       22                       interpretation burst.
       23       23                     DESCRIPTOR
       24       24                       A pseudo-code entry point descriptor word (PEPD) that
       25       25                       describes the pseudo-code module and offset within
       26       26                       that module where interpretation is to begin.
       27       27                       The tree above the current can possess an ideal register
       28       28                       evaluation state.  It passes that information down into
       29       29                       this recursion via this variable.
       30       30               DATA: Most of the data that is used by this module is
       31       31                     yanked in via the PL6 include facility.
       32       32
       33       33          REFERENCE: Module Z8HD$DOCUMENT, name METHOD, type F.
       34       34
       35       35
       36       36        */
       37       37
PL6.E3A0      #001=Z8HI$BURST File=Z8HI.:Z8A6TSI                                 SAT 08/09/97 13:19 Page:2
       38       38    1        DCL PILL PTR;
       39       39
       40       40    1        DCL 1 DESCRIPTOR ALIGNED,
       41       41    1               2 OFFSET UBIN HALF UNAL,
       42       42    1               2 IDEAL UBIN(9) UNAL,
       43       43    1               2 MODULE UBIN(9) UNAL;
       44       44
       45       45
       46       46        %SET PHASE = 4;
       47       47        %INCLUDE Z8A_DEFC;
       48      115        %INCLUDE Z8H_DIRECT;
       49      209        %INCLUDE Z8H_RAT;
       50      300        %INCLUDE Z8H_PCOM;
       51      449        %INCLUDE Z8H_TEMP;
       52      497        %INCLUDE Z8H_CODE;
       53      627        %INCLUDE Z8A_SUPP_MAC;
       54     3027        %INCLUDE Z9A_FLAGS;
       55     3041        %INCLUDE Z8H_SUPPORT;
       56     3489        %INCLUDE Z9A_SUPP_MAC;
       57     3778        %INCLUDE Z8H_MOAS;
       58     3827        %INCLUDE Z8A_LIBRARY;
       59     4041        %INCLUDE Z8A_COMCOM;
       60     4691        %INCLUDE Z8H_EXT;
       61     4742        %INCLUDE Z8H_DEP;
       62     4849        %INCLUDE Z8H_PASSES;
       63     4861        %INCLUDE Z8A_DESC;
       64     4907
       65     4908        %INCLUDE Z8A_ETT;
       66     5209        %INCLUDE Z8A_ILL;
       67     5902        %INCLUDE Z8A_TYPES;
       68     6076        %INCLUDE Z8A_ST;
       69     9735        %INCLUDE Z8A_OBJ;
       70    10232        %INCLUDE Z8A_LTS;
       71    12309        %INCLUDE Z8A_DNT;
       72    12530        %INCLUDE Z8A_ERR_NUMS;
       73    13294        %INCLUDE Z8H_OPCODES;
       74    13797        %EJECT;
PL6.E3A0      #001=Z8HI$BURST File=Z8HI.:Z8A6TSI                                 SAT 08/09/97 13:19 Page:3
       75    13798    1        DCL 1 PC DALIGNED AUTO,
       76    13799    1               2 ACTION UBIN HALF UNAL,
       77    13800    1               2 OPND1 UBIN HALF UNAL,
       78    13801    1               2 OPND2 UBIN HALF UNAL,
       79    13802    1               2 OPND3 UBIN HALF UNAL;
       80    13803
       81    13804    1        DCL 1 PCS REDEF PC,
       82    13805    1               2 ACTION UBIN HALF UNAL,
       83    13806    1               2 OPND1 SBIN HALF UNAL,
       84    13807    1               2 OPND2 SBIN HALF UNAL,
       85    13808    1               2 OPND3 SBIN HALF UNAL;
       86    13809
       87    13810    1        DCL 1 PCB REDEF PC,
       88    13811    1               2 * BIT(36) UNAL,
       89    13812    1               2 INST BIT(36) UNAL;
       90    13813
       91    13814    1        DCL 1 PCC REDEF PC,
       92    13815    1               2 ACTION UBIN HALF UNAL,
       93    13816    1               2 CODE1 UBIN(6) UNAL,
       94    13817    1               2 CODE2 UBIN(7) UNAL,
       95    13818    1               2 CODE3 UBIN(5) UNAL,
       96    13819    1               2 CONST UBIN WORD UNAL,
       97    13820    1               2 WORD2 REDEF CONST,
       98    13821    1                  3 CODE4 UBIN(9) UNAL,
       99    13822    1                  3 CODE5 UBIN(9) UNAL,
      100    13823    1                  3 CODE6 UBIN HALF UNAL;
      101    13824
      102    13825    1        DCL 1 PCCS REDEF PC,
      103    13826    1               2 ACTION UBIN HALF UNAL,
      104    13827    1               2 CODE1 SBIN(6) UNAL,
      105    13828    1               2 CODE2 SBIN(7) UNAL,
      106    13829    1               2 CODE3 SBIN(5) UNAL,
      107    13830    1               2 CONST SBIN WORD UNAL,
      108    13831    1               2 WORD2 REDEF CONST,
      109    13832    1                  3 CODE4 SBIN(9) UNAL,
      110    13833    1                  3 CODE5 SBIN(9) UNAL,
      111    13834    1                  3 CODE6 SBIN HALF UNAL;
PL6.E3A0      #001=Z8HI$BURST File=Z8HI.:Z8A6TSI                                 SAT 08/09/97 13:19 Page:4
      112    13835
      113    13836
      114    13837    1        DCL 1 PCM REDEF PC,
      115    13838    1               2 FIRST_WORD BIT(36) UNAL,
      116    13839    1               2 SECOND_WORD BIT(36) UNAL;
      117    13840
      118    13841    1        DCL 1 BASE ALIGNED BASED,
      119    13842    1               2 FIRST_WORD BIT(36) UNAL,
      120    13843    1               2 SECOND_WORD BIT(36) UNAL;
      121    13844
      122    13845    1        DCL PSI1 (0:1) UBIN SYMREF READONLY;
      123    13846    1        DCL PSI2 UBIN DALIGNED EXT;
      124    13847    1        DCL PSD  (0:1) UBIN SYMREF READONLY;
      125    13848
      126    13849    1        DCL PSEUDO_CODE_MODULE(0:3) PTR CONSTANT INIT(
      127    13850    1                ADDR(NIL) ,
      128    13851    1                ADDR(PSI1),
      129    13852    1                ADDR(PSI2),
      130    13853    1                ADDR(PSD));
      131    13854
      132    13855
      133    13856    1        DCL IC PTR;     /* PSEUDO_CODE INTERPRETER'S INSTR. COUNTER */
      134    13857        %EJECT;
PL6.E3A0      #001=Z8HI$BURST File=Z8HI.:Z8A6TSI                                 SAT 08/09/97 13:19 Page:5
      135    13858    1        DCL Z9AU$OFFSET          ENTRY(3);
      136    13859    1        DCL Z8AU$TYPE_DESCRIPTOR ENTRY(2);
      137    13860    1        DCL Z8HU$WALK            ENTRY(1);
      138    13861    1        DCL Z8HC$SPECIAL_CASES   ENTRY(3);
      139    13862    1        DCL Z8HU$CREATE_CONST    ENTRY(3);
      140    13863    1        DCL Z8HU$ALLOT_TEMP      ENTRY(4);
      141    13864    1        DCL Z8HU$INCCNT          ENTRY(2);
      142    13865    1        DCL Z8HU$DEC_COUNT       ENTRY(2);
      143    13866    1        DCL Z8HG$CHOOSE_REGISTER ENTRY(3) ALTRET;
      144    13867    1        DCL Z8HU$POOL            ENTRY(1);
      145    13868    1        DCL Z8HU$POOL_PRIME      ENTRY(1);
      146    13869    1        DCL Z8HG$FREE_REGISTER   ENTRY(1);
      147    13870    1        DCL Z8HG$FREE_ALL_REGISTERS ENTRY;
      148    13871    1        DCL Z8HG$USE_REGISTER    ENTRY(2);
      149    13872    1        DCL Z8HG$SAVE            ENTRY(1) ALTRET;
      150    13873    1        DCL Z8AE$ERROR           ENTRY(12);
      151    13874    1        DCL Z9AT$TERMINATOR      ENTRY;
      152    13875    1        DCL Z8AT$CREATE_TEMPORARY ENTRY(2);
      153    13876    1        DCL Z8HU$TAG             ENTRY(2);
      154    13877
      155    13878
      156    13879    1        DCL OPND             PTR;
      157    13880    1        DCL SAVE_OPND        PTR;
      158    13881    1        DCL POINTER_REGISTER SBIN WORD;
      159    13882    1        DCL LOP_STATE        UBIN WORD STATIC;
      160    13883    1        DCL ROP_STATE        UBIN WORD STATIC;
      161    13884    1        DCL LO               SBIN WORD STATIC;
      162    13885    1        DCL HI               SBIN WORD STATIC;
      163    13886    1        DCL REGISTER         SBIN WORD;
      164    13887    1        DCL LAST_FREED_AR    SBIN WORD;
      165    13888    1        DCL LAST_FREED_XR    SBIN WORD;
      166    13889    1        DCL LAST_FREED_PR    SBIN WORD;
      167    13890
      168    13891    1        DCL P SBIN WORD;
      169    13892    1        DCL Q SBIN WORD;
      170    13893    1        DCL R SBIN WORD;
      171    13894    1        DCL S SBIN WORD;
PL6.E3A0      #001=Z8HI$BURST File=Z8HI.:Z8A6TSI                                 SAT 08/09/97 13:19 Page:6
      172    13895
      173    13896    1        DCL CODE   SBIN WORD;
      174    13897    1        DCL OFFSET SBIN WORD;
      175    13898
      176    13899    1        DCL FORMAT    SBIN WORD;
      177    13900    1        DCL BOUNDARY  SBIN WORD;
      178    13901    1        DCL FRESHNESS SBIN WORD;
      179    13902
      180    13903    1        DCL LIB_SELECTION UBIN HALF;
      181    13904    1        DCL LIBRARY(0:%(LIBRARY_SIZE - 1)) PTR STATIC INIT(
      182    13905    1                                    ADDR(NIL) * %LIBRARY_SIZE);
      183    13906
      184    13907    1        DCL 1 MF    ALIGNED,
      185    13908    1              2 AR     BOOLEAN,
      186    13909    1              2 RL     BOOLEAN,
      187    13910    1              2 IND    BOOLEAN,
      188    13911    1              2 TAG    UBIN(4) UNAL;
      189    13912
      190    13913    1        DCL STORAGE_TARGET BOOLEAN;
      191    13914
      192    13915    1        DCL SSOP          BOOLEAN;
      193    13916    1        DCL ZERO_CN       BOOLEAN;
      194    13917    1        DCL ZERO_SA       BOOLEAN;
      195    13918    1        DCL IN_WORD_UNITS BOOLEAN;
      196    13919    1        DCL ARGP_TYPE     BOOLEAN;
      197    13920    1        DCL BIG_OP_SSOP_FLAG BOOLEAN;
      198    13921    1        DCL OP_SIZ_TAG$   PTR;
      199    13922    1        DCL OP_SSOP_TAG$  PTR;
      200    13923    1        DCL 1 SAVED_INST_WORD,
      201    13924    1              2 Y,
      202    13925    1                3 AR# UBIN(3) UNAL,
      203    13926    1                3 *   UBIN(15) UNAL,
      204    13927    1              2 *     BIT(18);
      205    13928    1        DCL SAVE_TAG      SBIN WORD;
      206    13929    1        DCL AXBD          SBIN WORD;
      207    13930
      208    13931    1        DCL 1 TYPE_DESC ALIGNED,
PL6.E3A0      #001=Z8HI$BURST File=Z8HI.:Z8A6TSI                                 SAT 08/09/97 13:19 Page:7
      209    13932                   %TYPE_DESC;
      210    13966
      211    13967    1        DCL LOP_PTR       PTR;
      212    13968    1        DCL ROP_PTR       PTR;
      213    13969    1        DCL STATE         UBIN WORD STATIC;
      214    13970    1        DCL CONST_VALUES(0:1) SBIN WORD STATIC;
      215    13971    1        DCL MATERIALIZED_CONSTANT BOOLEAN STATIC INIT(FALSE);
      216    13972    1        DCL MAPT_VALID_COUNT SBIN WORD;
      217    13973    1        DCL MAPT_WORD     BIT(36) AUTO;
      218    13974    1        DCL CASE_PASS     SBIN WORD AUTO;
      219    13975    1        DCL ALLOTD_PASS   SBIN WORD AUTO;
      220    13976    1        DCL I             SBIN WORD AUTO;
      221    13977    1        DCL J             SBIN WORD AUTO;
      222    13978    1        DCL ABSOLUTE      SBIN WORD;
      223    13979    1        DCL P$      PTR;
      224    13980    1        DCL P3$     PTR;
      225    13981    1        DCL NODE$   PTR;
      226    13982    1        DCL REF$    PTR;
      227    13983    1        DCL REF_ST$ PTR;
      228    13984    1        DCL ST$$    PTR;
      229    13985    1        DCL ETT$$   PTR;
      230    13986    1        DCL DNT$$   PTR;
      231    13987    1        DCL LTS$$   PTR;
      232    13988    1        DCL OFF$    PTR;
      233    13989
      234    13990    1        DCL 1 MVPP EXT,
      235    13991    1              2 STAR$      PTR,
      236    13992    1              2 ACTION#    SBIN WORD,
      237    13993    1              2 LOP_ARGP$  PTR,
      238    13994    1              2 ROP_ARGP$  PTR;
      239    13995
      240    13996    1        DCL     KANJI_FILL  BOOLEAN ;
      241    13997
      242    13998    1        DCL 1   KANJI       ALIGNED STATIC,
      243    13999    1             2  EIS         ALIGNED,
      244    14000    1              3 FILL        BIT (9) UNAL INIT ('241'O),
      245    14001    1              3 *           UBIN (27) UNAL INIT (0),
PL6.E3A0      #001=Z8HI$BURST File=Z8HI.:Z8A6TSI                                 SAT 08/09/97 13:19 Page:8
      246    14002    1             2  FILL_SBIN   REDEF EIS SBIN WORD ;
      247    14003
      248    14004    1        DCL 1 OFF_SET(0:20) ALIGNED BASED,
      249    14005    1               2 POINTER PTR,
      250    14006    1               2 CONSTS REDEF POINTER SBIN WORD,
      251    14007    1               2 CONSTI REDEF POINTER UBIN WORD;
      252    14008
      253    14009    1        DCL GBCD_POS (0:5) BIT (36) CONSTANT INIT
      254    14010    1            ('000000000000'O, '000000060000'O, '000000230000'O,
      255    14011    1             '000000400000'O, '000000460000'O, '000000630000'O);
      256    14012    1        DCL 1 GBCD_POS1 (0:5) REDEF GBCD_POS,
      257    14013    1              2 * BIT (18),
      258    14014    1              2 BDSC BIT (18);
      259    14015    1        DCL T96_CN (0:3) UBIN CONSTANT INIT (0, 2, 3, 5);
      260    14016             /* For converting ADSC9 CN field to ADSC6 CN field */
      261    14017
      262    14018    1        DCL SUB_STACK(0:20) STATIC PTR;
      263    14019    1        DCL SUB_IDX SBIN WORD STATIC INIT(0);
      264    14020
      265    14021    1        DCL DSTATE_TYH(0:15) SBIN WORD CONSTANT INIT(
      266    14022    1                    00 * 04     /* FILLER */,
      267    14023    1                    04 * 01     /* ST     */,
      268    14024    1                    01 * 01     /* A      */,
      269    14025    1                    02 * 01     /* Q      */,
      270    14026    1                    00 * 01     /* FILLER */,
      271    14027    1                    03 * 08     /* XRn  */);
      272    14028
      273    14029    1        DCL DSTATE_TYI(0:15) SBIN WORD CONSTANT INIT(
      274    14030
      275    14031    1                    00 * 04     /* FILLER */,
      276    14032    1                    04 * 01     /* ST     */,
      277    14033    1                    01 * 01     /* ARA    */,
      278    14034    1                    02 * 01     /* ARQ    */,
      279    14035    1                    00 * 01     /* FILLER */,
      280    14036    1                    03 * 08     /* XRn    */);
      281    14037
      282    14038    1        DCL DSTATE_TYR(0:17) SBIN WORD CONSTANT INIT(
PL6.E3A0      #001=Z8HI$BURST File=Z8HI.:Z8A6TSI                                 SAT 08/09/97 13:19 Page:9
      283    14039
      284    14040    1                    00 * 04    /* FILLER */,
      285    14041    1                    02 * 01    /* ST     */,
      286    14042    1                    00 * 12    /* FILLER */,
      287    14043    1                    01 * 01    /* EA     */);
      288    14044
      289    14045    1        DCL DSTATE_TYQ(0:18) SBIN WORD CONSTANT INIT(
      290    14046
      291    14047    1                    00 * 04    /* FILLER */,
      292    14048    1                    02 * 01    /* ST     */,
      293    14049    1                    00 * 13    /* FILLER */,
      294    14050    1                    01 * 01    /* EAQ    */);
      295    14051
      296    14052    1        DCL DSTATE_IND(0:6) SBIN WORD CONSTANT INIT(
      297    14053
      298    14054    1                    00 * 03   /* FILLER */,
      299    14055    1                    01 * 01   /* IND    */,
      300    14056    1                    03 * 01   /* ST     */,
      301    14057    1                    01 * 02   /* IND FOR ARA AND ARQ */);
      302    14058
      303    14059    1        DCL DSTATE_TYP(0:27) SBIN WORD CONSTANT INIT(
      304    14060
      305    14061    1                    00 * 04   /* FILLER */,
      306    14062    1                    04 * 01   /* ST     */,
      307    14063    1                    01 * 01   /* ARA    */,
      308    14064    1                    02 * 01   /* ARQ    */,
      309    14065    1                    00 * 01   /* FILER  */,
      310    14066    1                    03 * 08   /* XRn    */,
      311    14067    1                    00 * 04   /* FILLER */,
      312    14068    1                    05 * 08   /* PRn    */ );
      313    14069        %EQU SINGLE_FLOAT_ZERO = '400000000000'O;
      314    14070        %EQU DOUBLE_FLOAT_ZERO = 276824064;
      315    14071        %EQU ZERO = 0;
      316    14072        %EJECT;
PL6.E3A0      #001=Z8HI$BURST File=Z8HI.:Z8A6TSI                                 SAT 08/09/97 13:19 Page:10
      317    14073        /*V*
      318    14074
      319    14075             INITIALIZE AUTOMATIC VARIABLES AND SET STARTING IC POINT.
      320    14076
      321    14077        */
      322    14078
      323    14079    1        DEFER = FALSE;
      324    14080    1        BIG_OP_SSOP_FLAG = FALSE;
      325    14081    1        CASE_PASS = 0;
      326    14082    1        ALLOTD_PASS = 0;
      327    14083    1        DEFER_BUFFER_IDX = 0;
      328    14084    1        MAPT_WORD = '0'O;
      329    14085    1        AORQ = FALSE;
      330    14086    1        PCOM.GABS = 0;
      331    14087    1        MAPT_VALID_COUNT = 0;
      332    14088
      333    14089
      334    14090
      335    14091        /* Compute the pseudo Instruction Counter from the PEPD descriptor
      336    14092           passed.
      337    14093        */
      338    14094
      339    14095    1        IC = PINCRW(PSEUDO_CODE_MODULE(DESCRIPTOR.MODULE),DESCRIPTOR.OFFSET);
      340    14096
      341    14097        /*
      342    14098
      343    14099                                   LOOP
      344    14100
      345    14101           THIS BEGINS THE INTERPRETATION LOOP.  THE ONLY WAY OUT
      346    14102           OF THE LOOP IS VIA A QUIT DIRECTIVE (ACTION %QUIT).
      347    14103
      348    14104        */
      349    14105    1   LOOP:
      350    14106    2        DO FOREVER;
      351    14107    2          PCM.FIRST_WORD = IC -> BASE.FIRST_WORD;
      352    14108    2          PCM.SECOND_WORD = IC -> BASE.SECOND_WORD;
      353    14109
PL6.E3A0      #001=Z8HI$BURST File=Z8HI.:Z8A6TSI                                 SAT 08/09/97 13:19 Page:11
      354    14110        %EJECT;
PL6.E3A0      #001=Z8HI$BURST File=Z8HI.:Z8A6TSI                                 SAT 08/09/97 13:19 Page:12
      355    14111        /*V*
      356    14112
      357    14113                                 SUPPORT_ACTIONS
      358    14114
      359    14115
      360    14116               The following actions in one way or another, alter the
      361    14117             sequence of pseudo_code interpretation.  These actions are
      362    14118             the only ones that can change the IC.
      363    14119
      364    14120        */
      365    14121    2   SUPPORT_ACTIONS:
      366    14122
      367    14123    3        DO CASE(PC.ACTION);
      368    14124
      369    14125    3          CASE(%BCT);
      370    14126    3            PCOM_.ABS(PC.OPND1) = PCOM_.ABS(PC.OPND1) - 1;
      371    14127
      372    14128    3            IF PCOM_.ABS(PC.OPND1) = 0 THEN
      373    14129    3              IC = PINCRW(IC,2);
      374    14130    3            ELSE
      375    14131    3              IC = PINCRW(IC,PCS.OPND2);
      376    14132
      377    14133    3          CASE(%EQLR);
      378    14134    3            IF PILL -> ETT.LOP = PILL -> ETT.ROP THEN
      379    14135    3              IC = PINCRW(IC,PCS.OPND2);
      380    14136    3            ELSE
      381    14137    3              IC = PINCRW(IC,PCS.OPND1);
      382    14138
      383    14139    3          CASE(%GOSUB);
      384    14140    3            SUB_STACK(SUB_IDX) = PINCRW(IC,1);
      385    14141    3            SUB_IDX = SUB_IDX + 1;
      386    14142    3            IC = PINCRW(IC,PCS.OPND1);
      387    14143
      388    14144    3          CASE(%IFID);
      389    14145                 %LOP_ROP_TO(OP=PCC.CODE1);
      390    14159    3            IF OPND -> ETT.ID = PCC.CODE2 THEN
      391    14160    3              IC = PINCRW(IC,PCS.OPND2);
PL6.E3A0      #001=Z8HI$BURST File=Z8HI.:Z8A6TSI                                 SAT 08/09/97 13:19 Page:13
      392    14161    3            ELSE
      393    14162    3              IC = PINCRW(IC,PCS.OPND3);
      394    14163
      395    14164    3          CASE(%IFITIS);
      396    14165
      397    14166    3            P$ = PILL -> ETT.ROP;
      398    14167    3            IF P$ -> ETT.ID = %TRIAD  THEN
      399    14168
      400    14169    4              DO CASE( P$ -> ETT.LOP -> CONST.TYPE );
      401    14170
      402    14171    4                CASE( %TYR );
      403    14172
      404    14173    4                  IF BINBIT(P$ -> ETT.LOP -> CONST.CONSTI.WORD1, 36) =  %
             14173                           SINGLE_FLOAT_ZERO   THEN
      405    14174    4                    IC = PINCRW( IC, PCS.OPND2 );
      406    14175    4                  ELSE
      407    14176    4                    IC = PINCRW( IC, PCS.OPND3 );
      408    14177
      409    14178    4                CASE( %TYQ );
      410    14179
      411    14180    4                  IF BINBIT(P$ -> ETT.LOP -> CONST.CONSTI.WORD1, 36) = %
             14180                           SINGLE_FLOAT_ZERO  AND
      412    14181    4                     P$ -> ETT.LOP -> CONST.CONSTI.WORD2 = %ZERO  THEN
      413    14182    4                    IC = PINCRW( IC, PCS.OPND2 );
      414    14183    4                  ELSE
      415    14184    4                    IC = PINCRW( IC, PCS.OPND3 );
      416    14185
      417    14186    4                CASE( ELSE );
      418    14187
      419    14188    4                  IF P$ -> ETT.LOP -> CONST.CONSTI.WORD1 = PCS.OPND1  THEN
      420    14189    4                    IC = PINCRW( IC, PCS.OPND2 );
      421    14190    4                  ELSE
      422    14191    4                    IC = PINCRW( IC, PCS.OPND3 );
      423    14192
      424    14193    4               END;
      425    14194
      426    14195    3            ELSE
PL6.E3A0      #001=Z8HI$BURST File=Z8HI.:Z8A6TSI                                 SAT 08/09/97 13:19 Page:14
      427    14196    3              IC = PINCRW( IC, PCS.OPND3 );
      428    14197    3          CASE(%JMP);
      429    14198    3            IC = PINCRW(IC,PCS.OPND1);
      430    14199
      431    14200    3          CASE(%JMPDV);
      432    14201    3            I = PCOM_.ABS(PC.OPND1);
      433    14202
      434    14203    3            IF (I < 0) OR (I > PCCS.CONST) THEN
      435    14204    4              DO;
      436    14205    4                CALL Z8AE$ERROR(%E$INVALID_CODE,COMCOM.CURRENT.LINE,0);
      437    14206    4                CALL Z9AT$TERMINATOR;
      438    14207    4              END;
      439    14208    3            ELSE
      440    14209    3              IC = PINCRW(IC, 2 + I);
      441    14210
      442    14211    3          CASE(%RTN);
      443    14212    3            SUB_IDX = SUB_IDX - 1;
      444    14213    3            IC = SUB_STACK(SUB_IDX);
      445    14214
      446    14215    3          CASE(%QUIT);
      447    14216    3            RETURN;
      448    14217
      449    14218    3          CASE(ELSE);
      450    14219
      451    14220        %EJECT;
PL6.E3A0      #001=Z8HI$BURST File=Z8HI.:Z8A6TSI                                 SAT 08/09/97 13:19 Page:15
      452    14221    3   ACTIONS:
      453    14222
      454    14223    4        DO CASE(PC.ACTION);
      455    14224        %EJECT;
PL6.E3A0      #001=Z8HI$BURST File=Z8HI.:Z8A6TSI                                 SAT 08/09/97 13:19 Page:16
      456    14225    4   CASE(%AD);
      457    14226        /*V* ADD -- See MOVE for PSEUDO-CODE_UTILITIES documentation  */
      458    14227
      459    14228    5        DO CASE(PCC.CODE1);
      460    14229    5          CASE(%CONST_ABS);
      461    14230    5            PCOM_.ABS(PCC.CODE3) = PCOM_.ABS(PCC.CODE3) + PCC.CONST;
      462    14231    5          CASE(%CONST_OPND);
      463    14232    5            PCOM_.OPND(PCC.CODE3) = PINCRW(PCOM_.OPND(PCC.CODE3),PCC.CONST);
      464    14233    5          CASE(%ABS_ABS);
      465    14234    5            PCOM_.ABS(PCC.CODE3) = PCOM_.ABS(PCC.CODE3) +
      466    14235    5                                   PCOM_.ABS(PCC.CODE2);
      467    14236    5        END /* Case */;
      468    14237
      469    14238        %EJECT;
PL6.E3A0      #001=Z8HI$BURST File=Z8HI.:Z8A6TSI                                 SAT 08/09/97 13:19 Page:17
      470    14239    4   CASE(%ADDRESS);
      471    14240        /*V*
      472    14241                              ADDRESS
      473    14242
      474    14243               All of this code is rather obscure.  Very little of the
      475    14244             ADDRESS stuff can be handled in pseudo-code, so naturally,
      476    14245             it ended up here as a special case.
      477    14246
      478    14247               Depending on the conditions present on the lop of the
      479    14248             ADDRESS, there are 5 different possibilities for code bursts
      480    14249             or operations:
      481    14250
      482    14251             SSOP; CN ~= 0
      483    14252                                EPPRn   array,,m
      484    14253                                EAX1    cn,st
      485    14254                                AxBD    0,X1,n
      486    14255
      487    14256             SSOP; CN = 0
      488    14257                                EPPRn   array,,m
      489    14258                                AxBD    0,st,n     (If not constant subscript)
      490    14259
      491    14260             NO SSOP; CN ~= 0
      492    14261                                EPPRn   scalar,,m
      493    14262                                EAX1    cn
      494    14263                                AxBD    0,X1,n
      495    14264
      496    14265             NO SSOP; CN = 0
      497    14266                                EPPRn   scalar,,m
      498    14267
      499    14268
      500    14269             NO SSOP; CN = 0; SA = 0; not constant
      501    14270
      502    14271                                no code, but assign m -> ADDRESS triad.
      503    14272
      504    14273             where:   n   = Pointer register chosen for the ADDRESS triad.
      505    14274                      m   = Pointer register for the .DATA. block in which
      506    14275                            the scalar or array is contained.
PL6.E3A0      #001=Z8HI$BURST File=Z8HI.:Z8A6TSI                                 SAT 08/09/97 13:19 Page:18
      507    14276                      x   = Data unit; 4 or 9 bit, applied to AxBD opcode.
      508    14277                      st  = SSOP tag.
      509    14278
      510    14279
      511    14280               The EPPRn instruction can easily be generated from pseudo-code,
      512    14281             So can the EAX1 (when necessary), but the AxBD must be entirely
      513    14282             built into SUPP_DATA.WRD and 'ORed' onto a dummy ZERO word (DEP.ADEP).
      514    14283
      515    14284        */
      516    14285
      517    14286             %LOP_ROP_TO(RESULT=NODE$);
      518    14300
      519    14301    4        CALL Z8HU$WALK(NODE$);
      520    14302
      521    14303    4        CALL Z8HG$SAVE(NODE$);
      522    14304
      523    14305    4        REF$ = NODE$ -> ETT.REF$;
      524    14306
      525    14307    4        STORAGE_TARGET = (PC.OPND2 ~= %PR);
      526    14308    4        SSOP = (REF$ -> REF.SSOP_TAG$ ~= ADDR(NIL));
      527    14309    4        IF REF$ -> REF.NDSC.CN = 0 OR
      528    14310    4            (COMCOM.OB.COBOL_74 AND
      529    14311    4             REF$ -> REF.NDSC.CN = 1 AND
      530    14312    4             REF$ -> REF.ST$ -> SCALAR.TYPE = %TYD AND
      531    14313    4             NOT REF$ -> REF.ST$ -> SCALAR.B.DIGIT)
      532    14314    4          THEN ZERO_CN = TRUE;
      533    14315    4          ELSE ZERO_CN = FALSE;
      534    14316    4        ZERO_SA = (REF$ -> REF.SA = 0);
      535    14317    4        IN_WORD_UNITS = REF$ -> REF.B.WORD_;
      536    14318
      537    14319    4        IF REF$ -> REF.PR_TAG$ ~= ADDR(NIL) THEN
      538    14320    4          ARGP_TYPE = (REF$ -> REF.PR_TAG$ -> ETT.ID = %ARGP);
      539    14321    4        ELSE
      540    14322    4          ARGP_TYPE = FALSE;
      541    14323
      542    14324    4        IF STORAGE_TARGET THEN
      543    14325    5          DO;
PL6.E3A0      #001=Z8HI$BURST File=Z8HI.:Z8A6TSI                                 SAT 08/09/97 13:19 Page:19
      544    14326    5            IF  NOT ARGP_TYPE    OR
      545    14327    5                NOT ZERO_CN      OR
      546    14328    5                NOT ZERO_SA      OR
      547    14329    5                NOT SSOP         THEN
      548    14330    6              DO;
      549    14331    6                CALL Z8HG$CHOOSE_REGISTER(%PR0, %PR7, POINTER_REGISTER);
      550    14332    6                CALL Z8HG$FREE_REGISTER(POINTER_REGISTER);
      551    14333    6              END;
      552    14334
      553    14335                 %#OFF#(@FROM="PCOM_.OPND(PC.OPND2)",@TO=OFF$,@VALUE=PC.OPND3,@TYPE=%WORD_);
      554    14415    5          END;
      555    14416    4        ELSE
      556    14417    4          IF PILL -> ETT.ID = %ADDR THEN
      557    14418    4            POINTER_REGISTER = LAST_FREED;
      558    14419    4          ELSE
      559    14420    4            POINTER_REGISTER = (PC.OPND3 + 20);
      560    14421
      561    14422    4        IF SSOP OR ARGP_TYPE  OR NOT STORAGE_TARGET THEN
      562    14423    5          DO;
      563    14424    5            IF ARGP_TYPE AND ZERO_SA AND ZERO_CN AND NOT SSOP THEN
      564    14425    6              DO;
      565    14426    6                CALL Z8HU$WALK(REF$ -> REF.PR_TAG$);
      566    14427
      567    14428    6                IF STORAGE_TARGET THEN
      568    14429    6                  POINTER_REGISTER = REF$ -> REF.PR_TAG$ -> ETT.STATE;
      569    14430    6                ELSE
      570    14431    7                  DO;
      571    14432    7                    IF REF$ -> REF.PR_TAG$ -> ETT.STATE ~=
      572    14433    7                       POINTER_REGISTER THEN
      573    14434    8                      DO;
      574    14435    8                        INST_WORD = '0'O;
      575    14436    8                        INST_WORD.LOW.OP_CODE = %EPPR0_OP +
      576    14437    8                            (POINTER_REGISTER - 20);
      577    14438    8                        INST_WORD.LOW.EIS = TRUE;
      578    14439    8                        INST_WORD.LOW.MF.AR = TRUE;
      579    14440    8                        INST_WORD.Y.AR# = REF$ -> REF.PR_TAG$ ->
      580    14441    8                             ETT.STATE - 20;
PL6.E3A0      #001=Z8HI$BURST File=Z8HI.:Z8A6TSI                                 SAT 08/09/97 13:19 Page:20
      581    14442    8                        MOD_KEY.KEY = 0;
      582    14443
      583    14444                             %NEW_WORD( @OU_WORD  = INST_WORD,
      584    14445                                        @KEY      = MOD_KEY.KEY,
      585    14446                                        @ST$      = ST$$);
      586    14493    8                      END;
      587    14494    7                  END;
      588    14495    6              END;
      589    14496    5            ELSE
      590    14497    6            DO;
      591    14498    7   EPP:     DO;
      592    14499    7              INST_WORD = '0'O;
      593    14500
      594    14501    7              INST_WORD.SA      = REF$ -> REF.SA;
      595    14502
      596    14503    7              IF IN_WORD_UNITS AND
      597    14504    7                 REF$ -> REF.SSOP_TAG$ ~= ADDR(NIL) THEN
      598    14505    7                INST_WORD.LOW.MF.TAG = REF$ -> REF.SSOP_TAG$ -> ETT.STATE;
      599    14506
      600    14507    7              ST$$              = REF$ -> REF.ST$;
      601    14508    7              MOD_KEY.KEY = 0;
      602    14509    7              IF REF$ -> REF.PR_TAG$ ~= ADDR(NIL) AND REF$ -> REF.SA >= %#16K THEN
      603    14510    8                DO;
      604    14511    8                  CALL Z8HG$CHOOSE_REGISTER(%XR0, %XR7, REGISTER);
      605    14512    8                  INST_WORD.LOW.OP_CODE = %(EAX0_OP - XR0) + REGISTER;
      606    14513    8                  INST_WORD.SA = REF$ -> REF.SA;
      607    14514                       %NEW_WORD( @OU_WORD = INST_WORD,
      608    14515                                  @KEY     = MOD_KEY.KEY,
      609    14516                                  @ST$     = ST$$ );
      610    14563    8                  ST$$ = ADDR(NIL);
      611    14564    8                  INST_WORD = '0'B;
      612    14565    8                  INST_WORD.LOW.MF.TAG = REGISTER;
      613    14566    8                END;
      614    14567
      615    14568    7              INST_WORD.LOW.OP_CODE = %EPPR0_OP + (POINTER_REGISTER - 20);
      616    14569    7              INST_WORD.LOW.EIS     = TRUE;
      617    14570
PL6.E3A0      #001=Z8HI$BURST File=Z8HI.:Z8A6TSI                                 SAT 08/09/97 13:19 Page:21
      618    14571    7              IF ST$$ ~= ADDR(NIL) AND ST$$ -> ST.ID = %CONST THEN
      619    14572    8                DO;
      620    14573    8                  CALL HANDLE_CONSTANT;
      621    14574
      622    14575    8                  MATERIALIZED_CONSTANT = FALSE;
      623    14576
      624    14577    8                  MOD_KEY.B.IC = TRUE;
      625    14578    8                  MOD_KEY.B.RESOLVE_ADDRESS = TRUE;
      626    14579    8                END;
      627    14580    7              ELSE
      628    14581    8                DO;
      629    14582
      630    14583    8                  IF REF$ -> REF.PR_TAG$ ~= ADDR(NIL) THEN
      631    14584    9                    DO;
      632    14585    9                      CALL Z8HU$WALK(REF$->REF.PR_TAG$);
      633    14586    9                      INST_WORD.LOW.MF.AR   = TRUE;
      634    14587    9                      INST_WORD.Y.AR#   = REF$ -> REF.PR_TAG$ ->
      635    14588    9                                         ETT.STATE - 20;
      636    14589    9                      IF REF$ -> REF.PR_TAG$ -> ETT.STATE =
      637    14590    9                         POINTER_REGISTER THEN   /* YIN 7/20/90 */
      638    14591    9                         CALL Z8HG$FREE_REGISTER(POINTER_REGISTER);
      639    14592    9                      ELSE
      640    14593    9                         CALL Z8HU$DEC_COUNT (REF$ -> REF.PR_TAG$, 1);
      641    14594    9                    END;
      642    14595    8                  ELSE
      643    14596    9                    DO;
      644    14597                           %IF USING_HALF_WORD_RELOCATION;
      645    14598    9                      MOD_KEY.B.HALF_REL = TRUE;
      646    14599                           %ENDIF;
      647    14600    9                    END;
      648    14601    8                END;
      649    14602
      650    14603                   %NEW_WORD( @OU_WORD = INST_WORD ,
      651    14604                              @KEY     = MOD_KEY.KEY ,
      652    14605                              @ST$     = ST$$ );
      653    14652    7              MOD_KEY.KEY = 0;
      654    14653    7            END EPP;
PL6.E3A0      #001=Z8HI$BURST File=Z8HI.:Z8A6TSI                                 SAT 08/09/97 13:19 Page:22
      655    14654
      656    14655    6            IF REF$ -> REF.ST$ -> SCALAR.TYPE = %TYB OR
      657    14656    6               REF$ -> REF.ST$ -> SCALAR.TYPE = %TYC THEN
      658    14657    6              AXBD = %A6BD_OP;
      659    14658    6            ELSE IF REF$ -> REF.ST$ -> SCALAR.TYPE = %TYD AND
      660    14659    6               REF$ -> REF.NDSC.TN = %NDSC4 THEN
      661    14660    6              AXBD = %A4BD_OP;
      662    14661    6            ELSE
      663    14662    6              AXBD = %A9BD_OP;
      664    14663
      665    14664    6            IF SSOP AND ZERO_CN AND NOT IN_WORD_UNITS THEN
      666    14665    7   AXBD:      DO;
      667    14666    7                INST_WORD = '0'O;
      668    14667
      669    14668    7                INST_WORD.LOW.OP_CODE = AXBD;
      670    14669    7                INST_WORD.LOW.EIS     = TRUE;
      671    14670
      672    14671    7                IF SSOP THEN
      673    14672    8                  DO;
      674    14673    8                    INST_WORD.LOW.MF.TAG  =  REF$ -> REF.SSOP_TAG$ -> ETT.STATE;
      675    14674    8                    CALL Z8HU$DEC_COUNT(REF$ -> REF.SSOP_TAG$, 1);
      676    14675    8                  END;
      677    14676
      678    14677    7                INST_WORD.LOW.MF.AR   = TRUE;
      679    14678    7                INST_WORD.Y.AR#   = POINTER_REGISTER - 20;
      680    14679
      681    14680                     %NEW_WORD( @OU_WORD = INST_WORD );
      682    14727
      683    14728    7              END AXBD;
      684    14729    6            ELSE
      685    14730    6              IF NOT ZERO_CN OR (SSOP AND NOT IN_WORD_UNITS) THEN
      686    14731    7   EAX_AXBD:     DO;
      687    14732                        /* If the offset can be greater than
      688    14733                           256k then we have to use an arithmetic
      689    14734                           register for the tag  */
      690    14735
      691    14736    7                   IF SSOP AND REF$ -> REF.ST$ -> SCALAR.B.GREATER_256K  THEN
PL6.E3A0      #001=Z8HI$BURST File=Z8HI.:Z8A6TSI                                 SAT 08/09/97 13:19 Page:23
      692    14737    8                    DO;
      693    14738    8                      REGISTER = REF$ -> REF.SSOP_TAG$ -> ETT.STATE;
      694    14739
      695    14740    8                      INST_WORD = '0'O;
      696    14741    8                      IF REGISTER = %ARA THEN
      697    14742    8                        INST_WORD.LOW.OP_CODE = %ADLA_OP;
      698    14743    8                      ELSE
      699    14744    8                        INST_WORD.LOW.OP_CODE = %ADLQ_OP;
      700    14745                           %GET_CN(@ST$=REF$,@ST1$="REF$ -> REF.ST$",@RTN=INST_WORD.SA);
      701    14756    8                      IF COMCOM.OB.COBOL_74 AND
      702    14757    8                         PILL -> ILL.ID = %USER_CALL AND
      703    14758    8                         REF$ -> REF.NDSC.TN = %NDSC4 AND
      704    14759    8                          REF$ -> REF.ST$ -> SCALAR.TYPE = %TYD AND
      705    14760    8                          NOT REF$ -> REF.ST$ -> SCALAR.B.DIGIT THEN
      706    14761    8                        INST_WORD = INST_WORD & '777776777777'O;
      707    14762    8                      INST_WORD.LOW.MF.TAG = %DL;
      708    14763
      709    14764                           %NEW_WORD(@OU_WORD=INST_WORD);
      710    14811
      711    14812    8                      INST_WORD = '0'O;
      712    14813    8                      INST_WORD.LOW.OP_CODE = AXBD;
      713    14814    8                      INST_WORD.LOW.EIS = TRUE;
      714    14815    8                      INST_WORD.LOW.MF.TAG = REGISTER;
      715    14816    8                      INST_WORD.LOW.MF.AR = TRUE;
      716    14817    8                      INST_WORD.Y.AR# = POINTER_REGISTER - 20;
      717    14818
      718    14819                           %NEW_WORD(@OU_WORD=INST_WORD);
      719    14866
      720    14867    8                      CALL Z8HU$DEC_COUNT(REF$ -> REF.SSOP_TAG$, 1);
      721    14868    8                      IF REF$ -> REF.SSOP_TAG$ -> ETT.COUNT > 0 THEN
      722    14869    9                        DO;
      723    14870                   /*     Restore the A or Q Reg.  May not be needed but we don't know    */
      724    14871
      725    14872    9                          INST_WORD = '0'O;
      726    14873    9                          IF REGISTER = %ARA THEN
      727    14874    9                            INST_WORD.LOW.OP_CODE = %SBLA_OP;
      728    14875    9                          ELSE
PL6.E3A0      #001=Z8HI$BURST File=Z8HI.:Z8A6TSI                                 SAT 08/09/97 13:19 Page:24
      729    14876    9                            INST_WORD.LOW.OP_CODE = %SBLQ_OP;
      730    14877                               %GET_CN(@ST$=REF$,@ST1$="REF$ -> REF.ST$",@RTN=INST_WORD.SA);
      731    14888    9                          IF COMCOM.OB.COBOL_74 AND
      732    14889    9                             PILL -> ILL.ID = %USER_CALL AND
      733    14890    9                             REF$ -> REF.NDSC.TN = %NDSC4 AND
      734    14891    9                              REF$ -> REF.ST$ -> SCALAR.TYPE = %TYD AND
      735    14892    9                              NOT REF$ -> REF.ST$ -> SCALAR.B.DIGIT THEN
      736    14893    9                            INST_WORD = INST_WORD & '777776777777'O;
      737    14894    9                          INST_WORD.LOW.MF.TAG = %DL;
      738    14895
      739    14896                               %NEW_WORD(@OU_WORD=INST_WORD);
      740    14943
      741    14944    9                        END;
      742    14945    8                    END;
      743    14946    7                  ELSE
      744    14947    8                    DO;
      745    14948    8                      CALL Z8HG$FREE_REGISTER(%XR0);
      746    14949
      747    14950    8                      INST_WORD = '0'O;
      748    14951
      749    14952    8                      INST_WORD.LOW.OP_CODE = %EAX0_OP + (%XR0 - 8);
      750    14953                           %GET_CN(@ST$=REF$,@ST1$="REF$ -> REF.ST$",@RTN=INST_WORD.SA);
      751    14964    8                      IF COMCOM.OB.COBOL_74 AND
      752    14965    8                         PILL -> ILL.ID = %USER_CALL AND
      753    14966    8                         REF$ -> REF.NDSC.TN = %NDSC4 AND
      754    14967    8                          REF$ -> REF.ST$ -> SCALAR.TYPE = %TYD AND
      755    14968    8                          NOT REF$ -> REF.ST$ -> SCALAR.B.DIGIT THEN
      756    14969    8                        INST_WORD = INST_WORD & '777776777777'O;
      757    14970
      758    14971    8                      IF SSOP THEN
      759    14972    9                        DO;
      760    14973    9                          INST_WORD.LOW.MF.TAG  = REF$ -> REF.SSOP_TAG$ -> ETT.STATE;
      761    14974    9                          CALL Z8HU$DEC_COUNT(REF$ -> REF.SSOP_TAG$, 1);
      762    14975    9                        END;
      763    14976
      764    14977
      765    14978                           %NEW_WORD( @OU_WORD = INST_WORD );
PL6.E3A0      #001=Z8HI$BURST File=Z8HI.:Z8A6TSI                                 SAT 08/09/97 13:19 Page:25
      766    15025
      767    15026    8                      INST_WORD = '0'O;
      768    15027
      769    15028    8                      INST_WORD.LOW.OP_CODE = AXBD;
      770    15029    8                      INST_WORD.LOW.EIS     = TRUE;
      771    15030    8                      INST_WORD.LOW.MF.TAG  = %XR0;
      772    15031    8                      INST_WORD.LOW.MF.AR   = TRUE;
      773    15032    8                      INST_WORD.Y.AR#   = POINTER_REGISTER - 20;
      774    15033
      775    15034                           %NEW_WORD( @OU_WORD = INST_WORD );
      776    15081    8                    END;
      777    15082    7                 END EAX_AXBD;
      778    15083    6            END;
      779    15084
      780    15085    5             IF STORAGE_TARGET THEN
      781    15086    6               DO;
      782    15087    6                 INST_WORD = '0'O;
      783    15088
      784    15089    6                 INST_WORD.LOW.OP_CODE = %STP0_OP + (POINTER_REGISTER - 20);
      785    15090    6                 INST_WORD.LOW.EIS     = TRUE;
      786    15091    6                 INST_WORD.SA      = OFF$ -> ETT.REF$ -> REF.SA;
      787    15092
      788    15093                      %IF USING_HALF_WORD_RELOCATION;
      789    15094    6                   MOD_KEY.B.HALF_REL = TRUE;
      790    15095                      %ELSE;
      796    15101                      %ENDIF;
      797    15102
      798    15103                      %NEW_WORD( @OU_WORD = INST_WORD ,
      799    15104                                 @ST$     = OFF$ -> ETT.REF$ -> REF.ST$ ,
      800    15105                                 @KEY     = MOD_KEY.KEY );
      801    15152    6                 IF RAT.CLASS( POINTER_REGISTER ) = %DEMAND THEN
      802    15153    6                   RAT.AWAITING( POINTER_REGISTER ) = 0;
      803    15154    6               END;
      804    15155    5          END;
      805    15156    4        ELSE
      806    15157    5   OPTZ:  DO;
      807    15158                 %NEW_ORG ( @ST$ = COMCOM.LAST_BLOCK$ );
PL6.E3A0      #001=Z8HI$BURST File=Z8HI.:Z8A6TSI                                 SAT 08/09/97 13:19 Page:26
      808    15194    5            CURRENT_BLOCK$ = COMCOM.LAST_BLOCK$;
      809    15195
      810    15196    5            INST_WORD = '0'O;
      811    15197
      812    15198    5            MOD_KEY.KEY = 0;
      813    15199    5            MOD_KEY.B.WORD_REL = TRUE;
      814    15200    5            MOD_KEY.B.SEGID_REL_LOW = TRUE;
      815    15201
      816    15202    5            REF_ST$ = REF$ -> REF.ST$;
      817    15203
      818    15204    6            DO CASE(REF$ -> REF.ST$ -> ST.ID);
      819    15205    6              CASE(%CONST);
      820    15206    6                MOD_KEY.B.RESOLVE_ADDRESS = TRUE;
      821    15207
      822    15208    6              CASE(%PARA);
      823    15209    6                IF REF_ST$ -> LABEL.B.ALLOCATED = FALSE   THEN
      824    15210    6                  MOD_KEY.B.RESOLVE_ADDRESS = TRUE;
      825    15211
      826    15212    6            END /* Case */;
      827    15213
      828    15214                 %ABSOLUTE_SA(TRIAD=NODE$, RTN=ABSOLUTE);
      829    15225
      830    15226    5            INST_WORD.SA     = ABSOLUTE;
      831    15227
      832    15228    5            IF REF_ST$ -> SCALAR.TYPE = %TYB OR
      833    15229    5               REF_ST$ -> SCALAR.TYPE = %TYC THEN
      834    15230    5              INST_WORD.BDSC = GBCD_POS1.BDSC (REF$ -> REF.NDSC.CN);
      835    15231    5            ELSE
      836    15232    6              DO;
      837    15233    6                IF MOD(REF$ -> REF.NDSC.CN, 2) = 1 AND
      838    15234    6                   (REF_ST$ -> SCALAR.B.DIGIT OR
      839    15235    6                    NOT COMCOM.OB.COBOL_74 OR
      840    15236    6                    PILL -> ILL.ID ~= %USER_CALL) THEN
      841    15237    6                  INST_WORD.BDSC.B    = 5;
      842    15238    6                ELSE
      843    15239    6                  INST_WORD.BDSC.B    = 0;
      844    15240
PL6.E3A0      #001=Z8HI$BURST File=Z8HI.:Z8A6TSI                                 SAT 08/09/97 13:19 Page:27
      845    15241    6                INST_WORD.BDSC.C      = REF$ -> REF.NDSC.CN / 2;
      846    15242    6              END;
      847    15243
      848    15244                 %ABSOLUTE_SA(TRIAD=OFF$, RTN=ABSOLUTE);
      849    15255
      850    15256                 %NEW_WORD( @OU_WORD = INST_WORD ,
      851    15257                            @ST$     = REF_ST$ ,
      852    15258                            @OFFSET  = ABSOLUTE ,
      853    15259                            @KEY     = MOD_KEY.KEY ,
      854    15260                            @ADVANCE_BLOCK_SIZE = NO );
      855    15307
      856    15308    5            IF REF_ST$ -> ST.ID = %CONST THEN
      857    15309    5              IF NOT REF_ST$ -> CONST.B.ALLOCATED THEN
      858    15310    6                DO;
      859    15311    6                  REF_ST$ -> CONST.B.ALLOCATED = TRUE;
      860    15312    6                  REF_ST$ -> CONST.ALLOC_LINK = CONST$;
      861    15313    6                  CONST$ = REF$ -> REF.ST$;
      862    15314    6                END;
      863    15315
      864    15316                 %NEW_ORG ( @ST$ = "COMCOM.SEGMENT$(%PROC)" );
      865    15352    5            CURRENT_BLOCK$ = COMCOM.SEGMENT$(%PROC);
      866    15353    5            IF (PILL -> ILL.ID = %USER_CALL OR
      867    15354    5                PILL -> ILL.ID = %DISPL) AND
      868    15355    6                REF$ -> REF.PR_TAG$ ~= ADDR (NIL) THEN DO;
      869    15356    6              POINTER_REGISTER = REF$ -> REF.PR_TAG$ -> ETT.STATE;
      870    15357    6              IF POINTER_REGISTER >= %PR0 AND
      871    15358    6                RAT.CLASS( POINTER_REGISTER ) = %DEMAND THEN
      872    15359    6                RAT.AWAITING( POINTER_REGISTER ) = 0;
      873    15360    6            END;
      874    15361    5          END OPTZ;
      875    15362
      876    15363    4        MOD_KEY.KEY = 0;
      877    15364
      878    15365    4        IF STORAGE_TARGET THEN
      879    15366    4          CALL Z8HU$DEC_COUNT(OFF$, 1);
      880    15367
      881    15368
PL6.E3A0      #001=Z8HI$BURST File=Z8HI.:Z8A6TSI                                 SAT 08/09/97 13:19 Page:28
      882    15369        %EJECT;
PL6.E3A0      #001=Z8HI$BURST File=Z8HI.:Z8A6TSI                                 SAT 08/09/97 13:19 Page:29
      883    15370    4   CASE(%ALLOT);
      884    15371
      885    15372    4        IF PC.OPND3 = 4 THEN
      886    15373    4          TA = %ADSC4;
      887    15374    4        ELSE
      888    15375    4          TA = %ADSC9;
      889    15376
      890    15377    4        TYPE_DESC.TYPE = PCC.CODE2;
      891    15378    4        TYPE_DESC.SIZ$ = ADDR(NIL);
      892    15379    4        TYPE_DESC.SSOP$ = ADDR(NIL);
      893    15380
      894    15381             %PACK_ADSC ( @DESC   = TYPE_DESC.DESC ,
      895    15382                          @LENGTH = PCC.WORD2.CODE4 ,
      896    15383                          @TA     = TA );
      897    15407
      898    15408    4        CALL Z8HU$ALLOT_TEMP(%A,                       /* FORMAT     */
      899    15409    4                        BINBIT(PCC.CODE1,36),          /* BOUNDARY   */
      900    15410    4                        TYPE_DESC,                     /* Lower Desc */
      901    15411    4                        BINBIT(PCCS.WORD2.CODE5,36));  /* FRESHNESS  */
      902    15412
      903    15413    4        PCOM_.OPND(PCC.CODE3) = ETT$;
      904    15414
      905    15415        %EJECT;
PL6.E3A0      #001=Z8HI$BURST File=Z8HI.:Z8A6TSI                                 SAT 08/09/97 13:19 Page:30
      906    15416
      907    15417    4   CASE(%ALLOTD);
      908    15418
      909    15419    4        FRESHNESS = %STALE;
      910    15420    4        BOUNDARY = %NEXT;
      911    15421
      912    15422    5        DO CASE(PILL -> ETT.ID);
      913    15423    5          CASE(%CVOD4);
      914    15424    6            DO CASE(ALLOTD_PASS);
      915    15425    6              CASE(%FIRST_PASS);
      916    15426    6                IF COMCOM.OB.ELS   THEN
      917    15427    7                  DO;
      918    15428    7                    CALL Z8AU$TYPE_DESCRIPTOR(PILL, TYPE_DESC);
      919    15429    7                    FORMAT = %N;
      920    15430    7                  END;
      921    15431    6                ELSE
      922    15432    7                  DO;
      923    15433    7                    TYPE_DESC.TYPE = %TYD;
      924    15434                         %PACK_ADSC ( @DESC    = TYPE_DESC.DESC ,
      925    15435                                      @LENGTH  = PILL -> ETT.LOP -> ETT.REF$ -> REF.NDSC.N ,
      926    15436                                      @TA      = %ADSC6 );
      927    15460
      928    15461    7                    FORMAT = %A;
      929    15462    7                    TYPE_DESC.TYPE = %TYB;
      930    15463    7                    TYPE_DESC.SIZ$ = ADDR(NIL);
      931    15464    7                    TYPE_DESC.SSOP$ = ADDR(NIL);
      932    15465    7                  END;
      933    15466
      934    15467    6              CASE(%SECOND_PASS);
      935    15468    6                CALL Z8AU$TYPE_DESCRIPTOR(PILL, TYPE_DESC);
      936    15469
      937    15470    6                FORMAT = %N;
      938    15471
      939    15472    6              CASE(%THIRD_PASS);
      940    15473    6                CALL Z8AU$TYPE_DESCRIPTOR(PILL, TYPE_DESC);
      941    15474
      942    15475    6                TYPE_DESC.DESC.NDSC.TN = %NDSC9;
PL6.E3A0      #001=Z8HI$BURST File=Z8HI.:Z8A6TSI                                 SAT 08/09/97 13:19 Page:31
      943    15476    6                TYPE_DESC.DESC.NDSC.S = '0'B;
      944    15477    6                TYPE_DESC.DESC.NDSC.SF = 0;
      945    15478    6                FORMAT = %N;
      946    15479    6            END /* Case */;
      947    15480
      948    15481    5          CASE(%CVID4, %CVID9, %CVQD4,%CVQD9,%CVRD4,%CVRD9,%CV49,%CVDD,%RNDD,
      949    15482    5               %ADD, %SBD, %MPD, %DVD, %DVDR, %EXDD, %CVDSF, %CVDDD, %CVDO, %CVDF,
      950    15483    5               %MIND, %ADO, %SBO,%MPO,%DVO,%DVOR,%CVJI,%CVKI,%MINO,%RNDO);
      951    15484    5            CALL Z8AU$TYPE_DESCRIPTOR(PILL, TYPE_DESC);
      952    15485
      953    15486    5            FORMAT = %N;
      954    15487
      955    15488    5          CASE(%DISPL);
      956    15489                 %PACK_ADSC ( @DESC    = TYPE_DESC.DESC ,
      957    15490                              @LENGTH  = "(PILL -> ETT.ROP -> ILL.CODE - 1) * 4",
      958    15491                              @TA      = %ADSC9 );
      959    15515    5            FORMAT = %A;
      960    15516    5            FRESHNESS = %FRESH;
      961    15517    5            TYPE_DESC.TYPE = %TYA;
      962    15518    5            TYPE_DESC.SIZ$ = ADDR(NIL);
      963    15519    5            TYPE_DESC.SSOP$ = ADDR(NIL);
      964    15520
      965    15521    5          CASE(%OS_CALL, %USER_CALL);
      966    15522                 %PACK_ADSC ( @DESC    = TYPE_DESC.DESC ,
      967    15523                              @LENGTH  = "(PILL -> ETT.LOP -> ILL.CODE - 1) * 4",
      968    15524                              @TA      = %ADSC9 );
      969    15548    5            FORMAT = %A;
      970    15549    5            FRESHNESS = %FRESH;
      971    15550    5            TYPE_DESC.TYPE = %TYA;
      972    15551    5            TYPE_DESC.SIZ$ = ADDR(NIL);
      973    15552    5            TYPE_DESC.SSOP$ = ADDR(NIL);
      974    15553
      975    15554    5          CASE(%EXDI, %CVDI, %EXII, %EXQI, %CVDRR,
      976    15555    5               %CVRI, %CVRR, %EXRR, %EXRI, %CVAA);
      977    15556    5            CALL Z8AU$TYPE_DESCRIPTOR(PILL, TYPE_DESC);
      978    15557
      979    15558    5            TYPE_DESC.DESC.NDSC.CN = 0;
PL6.E3A0      #001=Z8HI$BURST File=Z8HI.:Z8A6TSI                                 SAT 08/09/97 13:19 Page:32
      980    15559    5            FORMAT = %A;
      981    15560
      982    15561    5          CASE(%CVT);
      983    15562    5            CALL Z8AU$TYPE_DESCRIPTOR(PILL, TYPE_DESC);
      984    15563
      985    15564    5            TYPE_DESC.DESC.NDSC.CN = 0;
      986    15565    5            FORMAT = %A;
      987    15566
      988    15567    5          CASE(%CVDQR, %EXQQ);
      989    15568    5            CALL Z8AU$TYPE_DESCRIPTOR(PILL, TYPE_DESC);
      990    15569
      991    15570    5            FORMAT = %A;
      992    15571    5            BOUNDARY = %EVEN;
      993    15572
      994    15573    5          CASE(%CCOSU);
      995    15574    5            CALL Z8AU$TYPE_DESCRIPTOR(PILL->CCOSU.EVEX, TYPE_DESC);
      996    15575
      997    15576    5            FORMAT = %A;
      998    15577
      999    15578    5          CASE(ELSE);
     1000    15579    5            CALL Z8AE$ERROR(%E$UNEXPECTED_CASE);
     1001    15580    5        END /* Case */;
     1002    15581
     1003    15582    4        CALL Z8HU$ALLOT_TEMP(FORMAT,BOUNDARY,TYPE_DESC,FRESHNESS);
     1004    15583
     1005    15584    4        PCOM_.OPND(PC.OPND1) = ETT$;
     1006    15585    4        ALLOTD_PASS = ALLOTD_PASS + 1;
     1007    15586
     1008    15587        %EJECT;
PL6.E3A0      #001=Z8HI$BURST File=Z8HI.:Z8A6TSI                                 SAT 08/09/97 13:19 Page:33
     1009    15588    4   CASE(%AND);
     1010    15589        /*V* AND -- SEE PSEUDO_CODE_UTILITIES                                 */
     1011    15590
     1012    15591    4        IF PCC.CODE1 = %CONST_ABS THEN
     1013    15592    4          PCOM_.ABS(PCC.CODE3) = BITBIN(BINBIT(PCOM_.ABS(PCC.CODE3),36) &
     1014    15593    4                                        BINBIT(PCC.CONST,36));
     1015    15594        %EJECT;
PL6.E3A0      #001=Z8HI$BURST File=Z8HI.:Z8A6TSI                                 SAT 08/09/97 13:19 Page:34
     1016    15595    4   CASE(%ASSIGN);
     1017    15596        /*V*
     1018    15597
     1019    15598                                   ASSIGN
     1020    15599
     1021    15600            PURPOSE:
     1022    15601             THIS DIRECTIVE IS THE CONTROLLING FORCE BEHIND REGISTER
     1023    15602           MANAGEMENT.  PRESENTLY, IT IS THE ONLY REGISTER MANAGEMENT
     1024    15603           DIRECTIVE AND, HOPEFULLY, WE CAN KEEP IT THAT WAY.  REFERENCE
     1025    15604           DN7: REGISTER MANAGEMENT DIRECTIVES AND VALUES FOR MORE
     1026    15605           INFORMATION CONCERNING THE FUNCTION OF THE ASSIGN DIRECTIVE.
     1027    15606
     1028    15607        */
     1029    15608
     1030    15609
     1031    15610    5        DO CASE(PC.OPND2);
     1032    15611
     1033    15612    5          CASE(%TO);
     1034    15613                 %LOP_ROP_TO(RESULT=SAVE_OPND);
     1035    15627    6            DO CASE(PC.OPND3);
     1036    15628    6              CASE(%AR, %XR, %PR);
     1037    15629    6                REGISTER = LAST_FREED;
     1038    15630    6              CASE(ELSE, %OPTIMIZATION);
     1039    15631    6                REGISTER = PC.OPND3;
     1040    15632    6            END /* Case */;
     1041    15633
     1042    15634                 %SWITCH_RAT_INFO(@FROM=SAVE_OPND -> ETT.STATE,@TO=REGISTER);
     1043    15653
     1044    15654    5          CASE(%DEMAND, %GLOBAL, %DEDIC,%PGLOBL);
     1045    15655    6            DO CASE(PC.OPND1);
     1046    15656    6              CASE(%AR, %XR, %PR);
     1047    15657    6                RAT.CLASS(LAST_USED) = PC.OPND2;
     1048    15658
     1049    15659    6              CASE(%ARLOP, %XRLOP, %PRLOP);
     1050    15660    6                RAT.CLASS(PILL -> ETT.LOP -> ETT.STATE) = PC.OPND2;
     1051    15661
     1052    15662    6              CASE(%ARROP, %XRROP, %PRROP);
PL6.E3A0      #001=Z8HI$BURST File=Z8HI.:Z8A6TSI                                 SAT 08/09/97 13:19 Page:35
     1053    15663    6                RAT.CLASS(PILL -> ETT.ROP -> ETT.STATE) = PC.OPND2;
     1054    15664
     1055    15665    6              CASE(ELSE, %OPTIMIZATION);
     1056    15666    6                RAT.CLASS(PC.OPND1) = PC.OPND2;
     1057    15667
     1058    15668    6            END /* Case */;
     1059    15669
     1060    15670    5          CASE(%FREE);
     1061    15671
     1062    15672    5            REGID = PC.OPND1;
     1063    15673
     1064    15674    6            DO CASE(PC.OPND1);
     1065    15675    6              CASE(%OPTIMIZE_THIS_CASE);
     1066    15676    6              CASE(%AR);
     1067    15677    6                CALL Z8HG$FREE_REGISTER(%ARAQ);
     1068    15678    6                CALL Z8HG$FREE_REGISTER(%AREAQ);
     1069    15679    6                CALL Z8HG$CHOOSE_REGISTER(%ARA, %ARQ,REGID)
     1070    15680    7                  WHENALTRETURN DO;
     1071    15681    7                    IF RAT.B.GREATER_256K (%ARA) /* Cannot move A to Xn */
     1072    15682    7                      THEN REGID = %ARQ;
     1073    15683    7                      ELSE REGID = %ARA;
     1074    15684    7                    CALL Z8HI$BURST (RAT.PRIMES (REGID) -> PRIME.TRIAD,
     1075    15685    7                                     DEP.MDEP); /* Move to Xn */
     1076    15686    7                  END;
     1077    15687
     1078    15688    6                IF REGID = %ARA THEN
     1079    15689    6                  CALL Z8HG$FREE_REGISTER(%AREA);
     1080    15690
     1081    15691    6                LAST_FREED_AR = REGID;
     1082    15692
     1083    15693    6              CASE(%ARAQ);
     1084    15694    6                CALL Z8HG$FREE_REGISTER(%ARA);
     1085    15695    6                CALL Z8HG$FREE_REGISTER(%ARQ);
     1086    15696    6                CALL Z8HG$FREE_REGISTER(%AREA);
     1087    15697    6                CALL Z8HG$FREE_REGISTER(%AREAQ);
     1088    15698
     1089    15699    6              CASE(%AREA);
PL6.E3A0      #001=Z8HI$BURST File=Z8HI.:Z8A6TSI                                 SAT 08/09/97 13:19 Page:36
     1090    15700    6                CALL Z8HG$FREE_REGISTER(%AREAQ);
     1091    15701    6                CALL Z8HG$FREE_REGISTER(%ARAQ);
     1092    15702    6                CALL Z8HG$FREE_REGISTER(%ARA);
     1093    15703
     1094    15704    6              CASE(%AREAQ);
     1095    15705    6                CALL Z8HG$FREE_REGISTER(%ARA);
     1096    15706    6                CALL Z8HG$FREE_REGISTER(%ARQ);
     1097    15707    6                CALL Z8HG$FREE_REGISTER(%ARAQ);
     1098    15708    6                CALL Z8HG$FREE_REGISTER(%AREA);
     1099    15709
     1100    15710    6              CASE(%XR);
     1101    15711    6                CALL Z8HG$CHOOSE_REGISTER(%XR0, %XR7,REGID);
     1102    15712
     1103    15713    6                LAST_FREED_XR = REGID;
     1104    15714
     1105    15715    6              CASE(%PR);
     1106    15716    6                CALL Z8HG$CHOOSE_REGISTER(%PR0, %PR7,REGID)
     1107    15717    7                  WHENALTRETURN DO;
     1108    15718    7                    CALL Z8AE$ERROR (%E$UNEXPECTED_CASE);
     1109    15719    7                  END;
     1110    15720
     1111    15721    6                LAST_FREED_PR = REGID;
     1112    15722
     1113    15723    6              CASE(%ARLOP, %XRLOP, %PRLOP, %ARTO, %PRTO, %XRTO);
     1114    15724    6   DAN_DNA_CHECK:
     1115    15725    7                DO REGID = %ARA TO %XR7;
     1116    15726    8                  IF RAT.PRIMES (REGID) ~= ADDR(NIL) THEN DO;
     1117    15727    8                    P$ = RAT.PRIMES (REGID);
     1118    15728    9                    DO UNTIL P$ = ADDR(NIL);
     1119    15729    9                      IF P$ -> PRIME.TRIAD -> ETT.ID = %DAN OR P$ -> PRIME.TRIAD -> ETT
             15729                               .ID = %DNA THEN
     1120    15730    9                        IF (PC.OPND1 ~= %ARTO AND
     1121    15731    9                            PC.OPND1 ~= %PRTO AND
     1122    15732    9                            PC.OPND1 ~= %XRTO AND
     1123    15733    9                            P$ -> PRIME.TRIAD -> ETT.LOP = PILL -> ETT.LOP) OR
     1124    15734    9                           ((PC.OPND1 = %ARTO OR
     1125    15735    9                             PC.OPND1 = %PRTO OR
PL6.E3A0      #001=Z8HI$BURST File=Z8HI.:Z8A6TSI                                 SAT 08/09/97 13:19 Page:37
     1126    15736    9                             PC.OPND1 = %XRTO) AND
     1127    15737   10                            P$ -> PRIME.TRIAD -> ETT.LOP = PILL -> ILL.TO_) THEN DO;
     1128    15738   10                          CALL Z8HU$POOL_PRIME (P$ -> PRIME.TRIAD);
     1129    15739   10                          EXIT DAN_DNA_CHECK;
     1130    15740   10                        END;
     1131    15741    9                        P$ = P$ -> PRIME.NEXT;
     1132    15742    9                    END; /* UNTIL */
     1133    15743    8                  END; /* IF RAT.PRIMES (REGID) ~= ADDR(NIL) */
     1134    15744    7                END; /* DAN_DNA_CHECK */
     1135    15745    6                IF PC.OPND1 = %ARTO OR PC.OPND1 = %PRTO OR PC.OPND1 = %XRTO
     1136    15746    6                  THEN REGID = PILL -> ILL.TO_ -> ETT.STATE;
     1137    15747    6                  ELSE REGID = PILL -> ETT.LOP -> ETT.STATE;
     1138    15748
     1139    15749    6              CASE(%ARROP, %XRROP, %PRROP);
     1140    15750    6                REGID = PILL -> ETT.ROP -> ETT.STATE;
     1141    15751
     1142    15752    6              CASE(%ARROPND);
     1143    15753    6                REGID = PCOM.ROPND -> ETT.STATE;
     1144    15754
     1145    15755    6              CASE(%ALLREGS);
     1146    15756    6                CALL Z8HG$FREE_ALL_REGISTERS;
     1147    15757
     1148    15758    6              CASE( %PR0, %PR1, %PR2, %PR3, %PR4, %PR5, %PR6, %PR7 );
     1149    15759    6                LAST_FREED_PR = REGID;
     1150    15760
     1151    15761    6            END /* Case */;
     1152    15762
     1153    15763    5            IF PC.OPND1 ~= %ALLREGS THEN
     1154    15764    6              DO;
     1155    15765    6                RAT.B.GREATER_256K(REGID) = FALSE;
     1156    15766    6                IF REGID = %AREA THEN
     1157    15767    6                  RAT.B.DIRTY_ARQ(%AREA) = FALSE;
     1158    15768    6                ELSE IF REGID = %ARQ THEN
     1159    15769    6                  IF RAT.PRIMES(%AREA) ~= ADDR(NIL) THEN
     1160    15770    6                    RAT.B.DIRTY_ARQ(%AREA) = TRUE;
     1161    15771
     1162    15772    6                CALL Z8HG$FREE_REGISTER(REGID);
PL6.E3A0      #001=Z8HI$BURST File=Z8HI.:Z8A6TSI                                 SAT 08/09/97 13:19 Page:38
     1163    15773    6                LAST_FREED = REGID;
     1164    15774
     1165    15775                     %UNFAVOR;
     1166    15781    6              END;
     1167    15782
     1168    15783    5          CASE(%USED);
     1169    15784
     1170    15785                 %LOP_ROP_TO(OP=PC.OPND3);
     1171    15799
     1172    15800    6            DO CASE(PC.OPND1);
     1173    15801    6              CASE(%AR, %XR, %PR);
     1174    15802    6                CALL Z8HG$USE_REGISTER(OPND,LAST_FREED);
     1175    15803    6                LAST_USED = LAST_FREED;
     1176    15804
     1177    15805    6              CASE(%ARLOP, %XRLOP, %PRLOP);
     1178    15806    6                CALL Z8HG$USE_REGISTER(OPND,BINBIT(PILL -> ETT.LOP -> ETT.STATE,36));
     1179    15807    6                LAST_USED = PILL -> ETT.LOP -> ETT.STATE;
     1180    15808
     1181    15809    6              CASE(%ARROP, %XRROP, %PRROP);
     1182    15810    6                CALL Z8HG$USE_REGISTER(OPND,BINBIT(PILL -> ETT.ROP -> ETT.STATE,36));
     1183    15811    6                LAST_USED = PILL -> ETT.ROP -> ETT.STATE;
     1184    15812
     1185    15813    6              CASE(ELSE, %OPTIMIZATION);
     1186    15814    6                CALL Z8HG$USE_REGISTER(OPND,BINBIT(PC.OPND1,36));
     1187    15815    6                LAST_USED = PC.OPND1;
     1188    15816
     1189    15817    6            END /* Case */;
     1190    15818
     1191    15819    5        END /* Case */;
     1192    15820
     1193    15821        %EJECT;
PL6.E3A0      #001=Z8HI$BURST File=Z8HI.:Z8A6TSI                                 SAT 08/09/97 13:19 Page:39
     1194    15822    4   CASE(%ATTACH);
     1195    15823
     1196    15824    4        PILL -> ETT.REF$ = PCOM_.OPND(PC.OPND1) -> ETT.REF$;
     1197    15825    4        IF PCOM_.OPND(PC.OPND1) -> ETT.ID = %SIZ THEN
     1198    15826    4          IF PCOM_.OPND(PC.OPND1) -> ETT.LOP -> ETT.REF$ ~= ADDR (NIL) THEN
     1199    15827    4            CALL Z8HU$POOL (PCOM_.OPND(PC.OPND1) -> ETT.LOP);
     1200    15828    4        PILL -> ETT.REF$ -> REF.ST$ -> TEMP.REFERENCES = PILL -> ETT.COUNT;
     1201    15829    4        PILL -> ETT.REF$ -> REF.ST$ -> TEMP.B.GREATER_256K =
     1202    15830    4            RAT.B.GREATER_256K (PILL -> ETT.STATE);
     1203    15831
     1204    15832    4        IF PILL -> ETT.STATE = %UNEVAL_T THEN
     1205    15833    4          PILL -> ETT.STATE = %REF_T;
     1206    15834
     1207    15835    4        PCOM_.OPND(PC.OPND1) -> ETT.COUNT = 0;
     1208    15836
     1209    15837             %INSERT_INTO_SL_LIST( PTR  = "PCOM_.OPND(PC.OPND1)" ,
     1210    15838                                   ITEM = ETT ,
     1211    15839                                   HEAD = HEAD_ETT$ ,
     1212    15840                                   NEXT = NEXT$ );
     1213    15853
     1214    15854        %EJECT;
PL6.E3A0      #001=Z8HI$BURST File=Z8HI.:Z8A6TSI                                 SAT 08/09/97 13:19 Page:40
     1215    15855    4   CASE(%BURST);
     1216    15856        /*V*
     1217    15857
     1218    15858                                  BURST
     1219    15859
     1220    15860            PURPOSE: TO ALLOW THE USER TO INTERPRET PSEUDO-CODE IN A
     1221    15861                     MODULE OTHER THAN THE ONE CURRENTLY ACTIVE. USUALLY
     1222    15862                     THIS WILL BE THE SYSTEM DEPENDANT PSEUDO-CODE
     1223    15863                     MODULE.
     1224    15864
     1225    15865              INPUT: PC.OPND1 - AN OFFSET INTO THE PCOM VARIABLES OF THE
     1226    15866                     XXX VARIETY.  THIS XXX VARIABLE CONTAINS (AS DO ALL
     1227    15867                     XXX VARIABLES), A PSEUDO_CODE ENTRY POINT DESCRIPTOR
     1228    15868                     WORD.
     1229    15869
     1230    15870        DESCRIPTION: INTERPRETATION OF THE CURRENT PSEUDO-CODE SEQUENCE
     1231    15871                     IS SUSPENDED VIA RECURSION.  MODULE Z8HI$BURST USES
     1232    15872                     THE DESCRIPTOR WORD TO DETERMINE WHERE INTERPRETATION
     1233    15873                     IS TO BEGIN.  ONCE A QUIT DIRECTIVE IS ENCOUNTERED,
     1234    15874                     WE RETURN HERE TO RESUME INTERPRETATION OF THE ORIGINAL
     1235    15875                     PSEUDO-CODE SEQUENCE.
     1236    15876
     1237    15877               NOTE: NESTED BURST ACTIONS ARE, OF COURSE, ALLOWED.
     1238    15878
     1239    15879        */
     1240    15880
     1241    15881        /*   CALL Z8HI$BURST(PILL,DEP_.DEP(PC.OPND1));   */
     1242    15882
     1243    15883        %EJECT;
PL6.E3A0      #001=Z8HI$BURST File=Z8HI.:Z8A6TSI                                 SAT 08/09/97 13:19 Page:41
     1244    15884    4   CASE(%CASE);
     1245    15885        /*V*
     1246    15886
     1247    15887                           CASE
     1248    15888
     1249    15889             SEE MODULE Z8HC.
     1250    15890
     1251    15891        */
     1252    15892
     1253    15893    4        CALL Z8HC$SPECIAL_CASES(PILL,PCOM,CASE_PASS);
     1254    15894    4        CASE_PASS = CASE_PASS + 1;
     1255    15895
     1256    15896        %EJECT;
PL6.E3A0      #001=Z8HI$BURST File=Z8HI.:Z8A6TSI                                 SAT 08/09/97 13:19 Page:42
     1257    15897    4   CASE(%DECCNT);
     1258    15898
     1259    15899             %LOP_ROP_TO;
     1260    15913    4        CALL Z8HU$DEC_COUNT(OPND,BINBIT(PC.OPND2,36));
     1261    15914
     1262    15915
     1263    15916        %EJECT;
PL6.E3A0      #001=Z8HI$BURST File=Z8HI.:Z8A6TSI                                 SAT 08/09/97 13:19 Page:43
     1264    15917    4   CASE(%DEFER);
     1265    15918        /*V*
     1266    15919
     1267    15920                          DEFER
     1268    15921
     1269    15922             BECAUSE THE INSTRUCTION WORD OF A MULTI-WORD EIS
     1270    15923           INSTRUCTION MAY NEED TO HAVE ITS MF FIELDS MODIFIED AS
     1271    15924           SUBSEQUENT DESCRIPTOR WORDS GENERATED, ALL INSTRUCTIONS
     1272    15925           THAT FALL INTO THE CATEGORY OF MULTI-WORD EIS MUST BE
     1273    15926           BUFFERED UNTIL ALL WORDS THAT MAKE UP THE INSTRUCTION
     1274    15927           ARE GENERATED.
     1275    15928             USE THE DEFER DIRECTIVE TO START BUFFERING.  USE THE
     1276    15929          WRAPUP DIRECTIVE TO FINALLY FLUSH THE DEFERRED WORDS TO
     1277    15930           THE OBJ TABLE.
     1278    15931             WRAPUP MAY ALSO SET THE TRIAD-CODE OF THE CURRENT TRIAD
     1279    15932           TO TEMP CONTAINED FOR BURSTS WHERE A TEMP IS CREATED.
     1280    15933
     1281    15934        */
     1282    15935
     1283    15936    4        DEFER = TRUE;
     1284    15937        %EJECT;
PL6.E3A0      #001=Z8HI$BURST File=Z8HI.:Z8A6TSI                                 SAT 08/09/97 13:19 Page:44
     1285    15938    4   CASE(%DEFLAB);
     1286    15939
     1287    15940             %LOP_ROP_TO;
     1288    15954
     1289    15955    5        DO CASE(OPND -> ST.ID);
     1290    15956    5          CASE(%PARA, %SECTION);
     1291    15957
     1292    15958                 %SEGMENT_ORG_MOD;
     1293    15963
     1294    15964                 %IF GCOS;
     1301    15971                 %ENDIF;
     1302    15972
     1303    15973    5            OPND -> LABEL.B.ALLOCATED = TRUE;
     1304    15974    5            IF OPND -> LABEL.B.REFERENCED THEN
     1305    15975    5              CALL Z8HG$FREE_ALL_REGISTERS;
     1306    15976
     1307    15977    5            OPND -> LABEL.COUNT = CURRENT_BLOCK$ -> BLOCK.COUNT;
     1308    15978    5            OPND -> LABEL.DESC.SA = CURRENT_BLOCK$ -> BLOCK.SIZE;
     1309    15979
     1310    15980    5          CASE(%INTDEF, %SYMDEF_);
     1311    15981    5            CALL Z8HG$FREE_ALL_REGISTERS;
     1312    15982
     1313    15983    5            OPND -> LABEL.DESC.SA = CURRENT_BLOCK$ -> BLOCK.SIZE;
     1314    15984
     1315    15985    5          CASE(ELSE);
     1316    15986    5            IF OPND -> ETT.ID > %LAST_ETT THEN
     1317    15987    5              CALL Z8AE$ERROR(%E$UNEXPECTED_CASE);
     1318    15988    5            ELSE
     1319    15989    6              DO;
     1320    15990    6                OPND -> ETT.LOP -> LABEL.DESC.SA = CURRENT_BLOCK$ -> BLOCK.SIZE;
     1321    15991    6                CALL Z8HU$WALK(OPND);
     1322    15992
     1323    15993    6                OPND = OPND -> ETT.LOP;
     1324    15994    6                IF OPND -> ST.ID = %PARA    THEN
     1325    15995    6                  OPND -> LABEL.B.ALLOCATED = %TRUE;
     1326    15996
     1327    15997    6              END;
PL6.E3A0      #001=Z8HI$BURST File=Z8HI.:Z8A6TSI                                 SAT 08/09/97 13:19 Page:45
     1328    15998    5        END; /* Case */
     1329    15999
     1330    16000
     1331    16001             %NEW_LAB ( @ST$ = OPND );
     1332    16037
     1333    16038             %IF GCOS;
     1347    16052             %ENDIF;
     1348    16053        %EJECT;
PL6.E3A0      #001=Z8HI$BURST File=Z8HI.:Z8A6TSI                                 SAT 08/09/97 13:19 Page:46
     1349    16054    4   CASE(%DESCR);
     1350    16055
     1351    16056             %LOP_ROP_TO;
     1352    16070
     1353    16071    4        REF$ = OPND -> ETT.REF$;
     1354    16072
     1355    16073    4        INST_WORD = '0'O;
     1356    16074    4        INST_WORD.NDSC = REF$ -> REF.NDSC;
     1357    16075
     1358    16076    4        ST$$ = REF$ -> REF.ST$;
     1359    16077
     1360    16078    5        DO CASE(PC.OPND2);
     1361    16079    5          CASE(%NDSC);
     1362    16080    5            IF ST$$ -> VARIABLE.B.CLASS ~= %CLASS_NUMERIC_EDITED THEN
     1363    16081    5              INST_WORD.NDSC = REF$ -> REF.NDSC;
     1364    16082    5            ELSE
     1365    16083    6              DO;
     1366    16084
     1367    16085                     %GET_LTS( @ID = %NEL,
     1368    16086                               @ST$ = ST$$,
     1369    16087                               @RETURN$ = LTS$$ );
     1370    16130
     1371    16131    6                INST_WORD.NDSC = LTS$$ -> NEL.DESC.NDSC;
     1372    16132    6              END;
     1373    16133
     1374    16134    5          CASE(%ADSC);
     1375    16135                 /* NULL */
     1376    16136
     1377    16137    5        END /* Case */;
     1378    16138
     1379    16139    4        INST_WORD.NDSC.CN = 0;    /* Absolute pointer passed */
     1380    16140
     1381    16141             %NEW_WORD( @OU_WORD = INST_WORD ,
     1382    16142                        @ST$     = ST$$ );
     1383    16189
     1384    16190    4        CALL Z8HU$DEC_COUNT(OPND, 1);
     1385    16191
PL6.E3A0      #001=Z8HI$BURST File=Z8HI.:Z8A6TSI                                 SAT 08/09/97 13:19 Page:47
     1386    16192        %EJECT;
PL6.E3A0      #001=Z8HI$BURST File=Z8HI.:Z8A6TSI                                 SAT 08/09/97 13:19 Page:48
     1387    16193    4   CASE(%DSTATE);
     1388    16194        /*V*
     1389    16195
     1390    16196                               DSTATE
     1391    16197
     1392    16198        EXAMPLES::
     1393    16199
     1394    16200           DSTATE   TYI16,LOPROP,XABS  LOP & ROP, 16 VALUES (0-15) IN XABS
     1395    16201           DSTATE   TYI4,LOP,ZABS      LOP, 4 VALUES (0-3) IN ZABS
     1396    16202
     1397    16203
     1398    16204             THIS DIRECTIVE DETERMINES THE STATE OF CERTAIN BRANCHES
     1399    16205           OF A TRIAD (SPECIFIED BY THE SECOND PARAMETER).  THE TYPE OF
     1400    16206           STATE WE WANT TO DETERMINE IS DRIVEN BY THE FIRST PARAMETER.
     1401    16207           FINALLY, THE STATE IS LEFT IN PARAMETER THREE, A PCOM VARIABLE
     1402    16208           OF THE ABS VARIETY.
     1403    16209
     1404    16210        */
     1405    16211
     1406    16212    5        DO CASE(PC.OPND1);
     1407    16213    5          CASE(%TYI4, %TYI5);
     1408    16214                 %LOP_ROP_TO(OP=PC.OPND2);
     1409    16228    5            STATE = DSTATE_TYI(OPND -> ETT.STATE) - 1;
     1410    16229                 %STORAGE_CHECK(THE_STATE=STATE,TRIAD=OPND);
     1411    16240
     1412    16241    5          CASE(%TYP25);
     1413    16242    5            LOP_STATE = DSTATE_TYP(PILL -> ETT.LOP -> ETT.STATE) - 1;
     1414    16243    5            ROP_STATE = DSTATE_TYP(PILL -> ETT.ROP -> ETT.STATE) - 1;
     1415    16244                 %STORAGE_CHECK(THE_STATE=LOP_STATE,TRIAD=PILL -> ETT.LOP);
     1416    16255                 %STORAGE_CHECK(THE_STATE=ROP_STATE,TRIAD=PILL -> ETT.ROP);
     1417    16266    5            STATE = LOP_STATE * 5 + ROP_STATE;
     1418    16267
     1419    16268    5          CASE(%TYI16, %TYI17);
     1420    16269    5            LOP_STATE = DSTATE_TYI(PILL -> ETT.LOP -> ETT.STATE) - 1;
     1421    16270    5            ROP_STATE = DSTATE_TYI(PILL -> ETT.ROP -> ETT.STATE) - 1;
     1422    16271                 %STORAGE_CHECK(THE_STATE=LOP_STATE,TRIAD=PILL -> ETT.LOP);
     1423    16282                 %STORAGE_CHECK(THE_STATE=ROP_STATE,TRIAD=PILL -> ETT.ROP);
PL6.E3A0      #001=Z8HI$BURST File=Z8HI.:Z8A6TSI                                 SAT 08/09/97 13:19 Page:49
     1424    16293    5            STATE = LOP_STATE * 4 + ROP_STATE;
     1425    16294
     1426    16295    5          CASE(%TYR2);
     1427    16296                 %LOP_ROP_TO(OP=PC.OPND2);
     1428    16310    5            STATE = DSTATE_TYR(OPND -> ETT.STATE) - 1;
     1429    16311
     1430    16312    5          CASE(%TYR4);
     1431    16313    5            LOP_STATE = DSTATE_TYR(PILL -> ETT.LOP -> ETT.STATE) - 1;
     1432    16314    5            ROP_STATE = DSTATE_TYR(PILL -> ETT.ROP -> ETT.STATE) - 1;
     1433    16315    5            STATE = LOP_STATE * 2 + ROP_STATE;
     1434    16316    5          CASE(%TYQ2);
     1435    16317                 %LOP_ROP_TO(OP=PC.OPND2);
     1436    16331    5            STATE = DSTATE_TYQ(OPND -> ETT.STATE) - 1;
     1437    16332
     1438    16333    5          CASE(%TYQ4);
     1439    16334    5            LOP_STATE = DSTATE_TYQ(PILL -> ETT.LOP -> ETT.STATE) - 1;
     1440    16335    5            ROP_STATE = DSTATE_TYQ(PILL -> ETT.ROP -> ETT.STATE) - 1;
     1441    16336    5            STATE = LOP_STATE * 2 + ROP_STATE;
     1442    16337
     1443    16338    5          CASE(%TYH2);
     1444    16339                 %LOP_ROP_TO(OP=PC.OPND2);
     1445    16353    5            STATE = DSTATE_TYH(OPND -> ETT.STATE) - 1;
     1446    16354
     1447    16355    5          CASE(%TYH4);
     1448    16356    5            LOP_STATE = DSTATE_TYH(PILL -> ETT.LOP -> ETT.STATE) - 1;
     1449    16357    5            ROP_STATE = DSTATE_TYH(PILL -> ETT.ROP -> ETT.STATE) - 1;
     1450    16358    5            STATE = LOP_STATE * 2 + ROP_STATE;
     1451    16359
     1452    16360    5          CASE(%IND2);
     1453    16361                 %LOP_ROP_TO(OP=PC.OPND2);
     1454    16375    5            IF OPND = ADDR(NIL) THEN
     1455    16376    5              STATE = 00;  /* UNCONDITIONAL GO ITEM */
     1456    16377    5            ELSE
     1457    16378    6              DO CASE(OPND -> ETT.ID);
     1458    16379    6                CASE(
     1459    16380                          %SET_OF_COMPARISONS;
     1460    16385    6                    );
PL6.E3A0      #001=Z8HI$BURST File=Z8HI.:Z8A6TSI                                 SAT 08/09/97 13:19 Page:50
     1461    16386    6                  STATE = DSTATE_IND(OPND -> ETT.STATE) - 1;
     1462    16387    6                CASE(ELSE);
     1463    16388    6                  IF PILL -> ILL.CODE = %GO_SWITCH_OFF OR
     1464    16389    6                     PILL -> ILL.CODE = %GO_SWITCH_ON THEN
     1465    16390    6                    STATE = 1;
     1466    16391    6                  ELSE
     1467    16392    6                    STATE = 0;
     1468    16393    6              END /* Case */;
     1469    16394    5          CASE(ELSE);
     1470    16395    5            CALL Z8AE$ERROR(%E$UNEXPECTED_CASE);
     1471    16396
     1472    16397    5        END /* Case */;
     1473    16398
     1474    16399    4        PCOM_.ABS(PC.OPND3) = STATE;
     1475    16400
     1476    16401        %EJECT;
PL6.E3A0      #001=Z8HI$BURST File=Z8HI.:Z8A6TSI                                 SAT 08/09/97 13:19 Page:51
     1477    16402    4   CASE(%FAVOR);
     1478    16403        /*V*
     1479    16404
     1480    16405                            FAVOR
     1481    16406
     1482    16407            PURPOSE: To allow a register to be used as a tag (SSOP, SIZ) in
     1483    16408                     the same instruction that the contents of the
     1484    16409                     register is destroyed.
     1485    16410
     1486    16411                     EXAMPLE::
     1487    16412                                                        MOVE ARRAY(I) TO C.
     1488    16413
     1489    16414                                    LDQ     I
     1490    16415                                    QLS     2
     1491    16416                                    LDQ     ARRAY,QL  *
     1492    16417                                    STQ     C
     1493    16418
     1494    16419
     1495    16420        DESCRIPTION: This local optimization can only be performed if the
     1496    16421                     count of the tag triad is 1.
     1497    16422
     1498    16423          Operation: Let's say we are working on this tree:
     1499    16424
     1500    16425
     1501    16426                            MVII
     1502    16427                            -  -
     1503    16428                           -    -
     1504    16429                          -      -
     1505    16430                         -        -
     1506    16431                                 SSOP
     1507    16432                                 -  -
     1508    16433                                -    -
     1509    16434                               -      -      PILL      -> MVII
     1510    16435                              -        -     containment = ARQ
     1511    16436                                      ADI    count       = 1
     1512    16437                                      - -
     1513    16438                                     -   -
PL6.E3A0      #001=Z8HI$BURST File=Z8HI.:Z8A6TSI                                 SAT 08/09/97 13:19 Page:52
     1514    16439                                    -     -
     1515    16440                                   -       -
     1516    16441
     1517    16442
     1518    16443                     Note that the tag triad (ADI) has a count of 1, that it is
     1519    16444                     ARQ contained, and that the current triad is the MVII.
     1520    16445
     1521    16446                     We encounter the pseudo-code directive that drove us here:
     1522    16447
     1523    16448                                      FAVOR   ROP,AR
     1524    16449
     1525    16450                        What this says is: "It's okay to use any register within
     1526    16451                     the AR class as a tag when we generate from the ROP of the
     1527    16452                     current triad."  This also implies that any attempt to
     1528    16453                     store a register that has been marked as selected
     1529    16454                     (RAT.B.FAVORED(REGISTER) = YES) should be thwarted.  This is
     1530    16455                     done when routine SAVE_MAYBE  tests to see
     1531    16456                     if the register that is a candidate for storing is selected.
     1532    16457                     If so, it won't save it.
     1533    16458
     1534    16459
     1535    16460                        Only registers that contain no more than one triad
     1536    16461                     will be marked as favored.  If the favored register
     1537    16462                     contained more than one triad there is a possibility
     1538    16463                     that the contents of the register will become incorrect
     1539    16464                     for the triads it contained other than the one for which
     1540    16465                     the favor directive was executed.
     1541    16466
     1542    16467                     Note: Only ARA and ARQ are 'unfavored' in the
     1543    16468                     ASSIGN FREE directive (because as of the writing
     1544    16469                     of this note only ARA and ARQ are used in the
     1545    16470                     FAVOR directive).
     1546    16471
     1547    16472        */
     1548    16473
     1549    16474             %LOP_ROP_TO;
     1550    16488
PL6.E3A0      #001=Z8HI$BURST File=Z8HI.:Z8A6TSI                                 SAT 08/09/97 13:19 Page:53
     1551    16489    5        DO CASE(PC.OPND2);
     1552    16490    5          CASE(%AR);
     1553    16491    5            LO = %ARA;
     1554    16492    5            HI = %ARQ;     /* THE AR REGISTER CLASS */
     1555    16493    5          CASE(%XR);
     1556    16494    5            LO = %XR0;
     1557    16495    5            HI = %XR7;     /* THE XR REGISTER CLASS */
     1558    16496    5          CASE(ELSE, %OPTIMIZATION);
     1559    16497    5            LO = PC.OPND2;
     1560    16498    5            HI = PC.OPND2;  /* OTHERWISE... */
     1561    16499    5        END /* Case */;
     1562    16500
     1563    16501    5        DO I = LO TO HI;         /* FAVOR RAT GUYS WITHIN THIS RANGE */
     1564    16502    5          IF OPND -> ETT.ID = %SSOP                            /*#28637*/
     1565    16503    5          OR OPND -> ETT.ID = %SIZ
     1566    16504    5          OR OPND -> ETT.ID = %REFMOD THEN
     1567    16505    5            IF OPND -> ETT.ROP -> ETT.COUNT = 1 THEN
     1568    16506    5              IF OPND -> ETT.ROP -> ETT.STATE = I THEN
     1569    16507    5                IF RAT.PRIMES(I) -> PRIME.NEXT = ADDR(NIL) THEN
     1570    16508                       /* Favored if there is only one triad on the prime list */
     1571    16509    5                  RAT.B.FAVORED(I) = TRUE;
     1572    16510    5        END;
     1573    16511
     1574    16512        %EJECT;
PL6.E3A0      #001=Z8HI$BURST File=Z8HI.:Z8A6TSI                                 SAT 08/09/97 13:19 Page:54
     1575    16513    4   CASE(%GENI);
     1576    16514
     1577    16515
     1578    16516    4        INST_WORD = PCB.INST;
     1579    16517
     1580    16518    4        MF = '0'O;
     1581    16519
     1582    16520    4        IF PCS.OPND1 = -1 THEN
     1583    16521    5          DO;
     1584    16522    5            ST$$ = ADDR(NIL);
     1585    16523    5            DEFER_BUFFER.DECCNT_NODE$(DEFER_BUFFER_IDX) = ADDR(NIL);
     1586    16524    5          END;
     1587    16525    4        ELSE
     1588    16526    5          DO;
     1589    16527                 %LOP_ROP_TO(RESULT=NODE$,OP=PC.OPND1);
     1590    16541
     1591    16542    5            IF NODE$ -> ST.ID >= %FIRST_ST THEN
     1592    16543    6              DO;
     1593    16544    6                ST$$ = NODE$;
     1594    16545    6                IF ST$$ -> ST.ID ~= %SYMREF_ THEN
     1595    16546    6                  INST_WORD.SA = ST$$ -> ST.SA;
     1596    16547    6                ELSE IF DEFER THEN
     1597    16548    6                  DEFER_BUFFER.DECCNT_NODE$(DEFER_BUFFER_IDX) = ADDR(NIL);
     1598    16549    6              END;
     1599    16550    5            ELSE
     1600    16551    6              DO;
     1601    16552    6                REF$ = NODE$ -> ETT.REF$;
     1602    16553
     1603    16554    6                ST$$ = REF$ -> REF.ST$;
     1604    16555    6                CALL HANDLE_REF_OPERAND;
     1605    16556
     1606    16557    6                IF DEFER THEN
     1607    16558    6                  DEFER_BUFFER.DECCNT_NODE$(DEFER_BUFFER_IDX) = NODE$;
     1608    16559    6                ELSE
     1609    16560    6                  CALL Z8HU$DEC_COUNT(NODE$,1);
     1610    16561    6              END;
     1611    16562
PL6.E3A0      #001=Z8HI$BURST File=Z8HI.:Z8A6TSI                                 SAT 08/09/97 13:19 Page:55
     1612    16563    6            DO CASE(ST$$ -> ST.ID);
     1613    16564    6              CASE(%CONST);
     1614    16565    6                IF CURRENT_BLOCK$ ~= COMCOM.BLOCK$  THEN
     1615    16566    7                  DO;
     1616    16567    7                    MOD_KEY.B.IC = MATERIALIZED_CONSTANT;
     1617    16568    7                    MOD_KEY.B.RESOLVE_ADDRESS = MATERIALIZED_CONSTANT;
     1618    16569    7                  END;
     1619    16570
     1620    16571    6                  MATERIALIZED_CONSTANT = FALSE;
     1621    16572
     1622    16573    6              CASE(%SCALAR, %TEMP, %ARRAY, %POINTER, %SWITCH);
     1623    16574
     1624    16575                     %IF USING_HALF_WORD_RELOCATION;
     1625    16576
     1626    16577    6                  IF MF.AR = FALSE THEN
     1627    16578    6                    MOD_KEY.B.HALF_REL = TRUE;
     1628    16579
     1629    16580                     %ENDIF;
     1630    16581
     1631    16582    6              CASE(%SYMREF_);
     1632    16583    6                IF GENERATING_PTRS THEN
     1633    16584    7                  DO;
     1634    16585    7                    MOD_KEY.B.SEGID_REL_LOW = TRUE;
     1635    16586    7                    MOD_KEY.B.WORD_REL = TRUE;
     1636    16587    7                  END;
     1637    16588    6                ELSE
     1638    16589                       %IF USING_HALF_WORD_RELOCATION;
     1639    16590    6                    IF MF.AR = FALSE THEN
     1640    16591    6                      MOD_KEY.B.HALF_REL = TRUE;
     1641    16592                       %ELSE;
     1676    16627                       %ENDIF;
     1677    16628
     1678    16629    6              CASE(%BLOCK, %SEGMENT, %DCB_);
     1679    16630    6                IF GENERATING_PTRS THEN
     1680    16631    6                  MOD_KEY.B.WORD_REL = TRUE;
     1681    16632    6                ELSE
     1682    16633    7                  DO;
PL6.E3A0      #001=Z8HI$BURST File=Z8HI.:Z8A6TSI                                 SAT 08/09/97 13:19 Page:56
     1683    16634                         %SEGMENTED_BLOCK_CHECK;
     1684    16637    7                    MOD_KEY.B.IC = TRUE;
     1685    16638    7                    MOD_KEY.B.RESOLVE_ADDRESS = TRUE;
     1686    16639    7                  END;
     1687    16640
     1688    16641    6              CASE(%PARA, %SECTION, %INTDEF);
     1689    16642    6                IF ST$$ ~= NODE$   THEN     /* Pointer referenced */
     1690    16643    7                  DO;
     1691    16644                         %IF USING_HALF_WORD_RELOCATION;
     1692    16645
     1693    16646    7                      MOD_KEY.B.HALF_REL = TRUE;
     1694    16647    7                      MOD_KEY.B.RESOLVE_ADDRESS = TRUE;
     1695    16648
     1696    16649                         %ELSE;
     1710    16663                         %ENDIF;
     1711    16664    7                  END;
     1712    16665    6                ELSE
     1713    16666    6                  IF NOT ST$$ -> LABEL.B.DATA_REF THEN
     1714    16667    7                    DO;
     1715    16668    7                      MOD_KEY.B.IC = TRUE;
     1716    16669    7                      MOD_KEY.B.RESOLVE_ADDRESS = TRUE;
     1717    16670    7                      INST_WORD.SA = 0;
     1718    16671    7                    END;
     1719    16672
     1720    16673    6              CASE(ELSE);
     1721    16674    6                CALL Z8AE$ERROR(%E$UNEXPECTED_CASE);
     1722    16675    6            END /* Case */;
     1723    16676    5          END;
     1724    16677
     1725    16678    4        INST_WORD = INST_WORD | MAPT_WORD | BINBIT(PCOM.GABS,36) | BINBIT(SUPP_DATA.WRD
             16678                 ,36);
     1726    16679
     1727    16680    4        IF AORQ THEN
     1728    16681    4          INST_WORD.LOW.CODE.REG = INST_WORD.LOW.CODE.REG + 1;
     1729    16682
     1730    16683    4        IF DEFER THEN
     1731    16684    5          DO;
PL6.E3A0      #001=Z8HI$BURST File=Z8HI.:Z8A6TSI                                 SAT 08/09/97 13:19 Page:57
     1732    16685    5            MOD_KEY.B.BUFFER = TRUE;
     1733    16686    5            DEFER_BUFFER.MW(DEFER_BUFFER_IDX) = INST_WORD;
     1734    16687    5            DEFER_BUFFER.KEY(DEFER_BUFFER_IDX) = MOD_KEY.KEY;
     1735    16688    5            DEFER_BUFFER.ST$(DEFER_BUFFER_IDX) = ST$$;
     1736    16689    5            DEFER_BUFFER_IDX = DEFER_BUFFER_IDX + 1;
     1737    16690    5          END;
     1738    16691    4        ELSE
     1739    16692    5          DO;
     1740    16693    5            IF MOD_KEY.KEY = 0 AND
     1741    16694    5              ((INST_WORD.LOW.MF.TAG = %DU) OR
     1742    16695    5               (INST_WORD.LOW.MF.TAG = %DL)) THEN
     1743    16696    5              ST$$ = ADDR(NIL);  /* For correct list out */
     1744    16697
     1745    16698                 %NEW_WORD( @OU_WORD = INST_WORD ,
     1746    16699                            @ST$     = ST$$ ,
     1747    16700                            @KEY     = MOD_KEY.KEY );
     1748    16747    5          END;
     1749    16748
     1750    16749    4        IF MAPT_VALID_COUNT = 0 THEN
     1751    16750    5          DO;
     1752    16751    5            AORQ = FALSE;
     1753    16752    5            MAPT_WORD = '0'O;
     1754    16753    5          END;
     1755    16754    4        ELSE
     1756    16755    4          MAPT_VALID_COUNT = MAPT_VALID_COUNT - 1;
     1757    16756
     1758    16757    4        MOD_KEY.KEY = 0;
     1759    16758    4        SUPP_DATA.WRD = 0;
     1760    16759    4        PCOM.GABS = 0;
     1761    16760
     1762    16761
     1763    16762    4   END_GENI:;
     1764    16763
     1765    16764        %EJECT;
PL6.E3A0      #001=Z8HI$BURST File=Z8HI.:Z8A6TSI                                 SAT 08/09/97 13:19 Page:58
     1766    16765    4   CASE(%INCCNT);
     1767    16766
     1768    16767             %LOP_ROP_TO;
     1769    16781    4        CALL Z8HU$INCCNT(OPND,BINBIT(PC.OPND2,36));
     1770    16782
     1771    16783        %EJECT;
PL6.E3A0      #001=Z8HI$BURST File=Z8HI.:Z8A6TSI                                 SAT 08/09/97 13:19 Page:59
     1772    16784    4   CASE(%LIB);
     1773    16785    4        IF PC.OPND3 = %PCOM THEN
     1774    16786    4          LIB_SELECTION = PCOM_.ABS(PC.OPND1);
     1775    16787    4        ELSE
     1776    16788    4          LIB_SELECTION = PC.OPND1;
     1777    16789
     1778    16790    4        IF LIBRARY(LIB_SELECTION) = ADDR(NIL) THEN
     1779    16791    5          DO;
     1780    16792    6            DO SELECT(LIB_SELECTION);
     1781    16793    6              SELECT(%OP_MVEAL);
     1782    16794                     %LIBRARY_NAME ( @NAME = "'Long-Alpha-Numeric'");
     1783    16800
     1784    16801
     1785    16802    6              SELECT(%OP_EXDD);
     1786    16803                     %LIBRARY_NAME ( @NAME = "'Decimal**Decimal'" );
     1787    16809
     1788    16810    6              SELECT(%OP_EXRR);
     1789    16811                     %LIBRARY_NAME ( @NAME = "'Real**Real'" );
     1790    16817
     1791    16818    6              SELECT(%OP_EXQQ);
     1792    16819                     %LIBRARY_NAME ( @NAME = "'Double**Double'" );
     1793    16825
     1794    16826    6              SELECT(%OP_SBCHK);
     1795    16827                     %LIBRARY_NAME ( @NAME = "'Subscript_Error'" );
     1796    16833
     1797    16834    6              SELECT(%OP_OCCHK);
     1798    16835                     %LIBRARY_NAME ( @NAME = "'Occurs_Error'" );
     1799    16841
     1800    16842    6              SELECT(%OP_STOP);
     1801    16843                     %LIBRARY_NAME ( @NAME = "'Stop'" );
     1802    16849
     1803    16850    6              SELECT(%OP_SUBENT);
     1804    16851                     %LIBRARY_NAME ( @NAME = "'Subroutine'" );
     1805    16857
     1806    16858    6              SELECT(%OP_MAIN);
     1807    16859                     %LIBRARY_NAME ( @NAME = "'Main'" );
     1808    16865
PL6.E3A0      #001=Z8HI$BURST File=Z8HI.:Z8A6TSI                                 SAT 08/09/97 13:19 Page:60
     1809    16866    6              SELECT(%OP_SYSOUT);
     1810    16867                     %LIBRARY_NAME ( @NAME = "'Display_on_Sysout'" );
     1811    16873
     1812    16874    6              SELECT(%OP_SYSONO);
     1813    16875                     %LIBRARY_NAME ( @NAME = "'Display_no_Advancing'" );
     1814    16881
     1815    16882    6              SELECT(%OP_CONSOL);
     1816    16883                     %LIBRARY_NAME ( @NAME = "'Display_on_Console'" );
     1817    16889
     1818    16890    6              SELECT(%OP_ACDATE);
     1819    16891                     %LIBRARY_NAME ( @NAME = "'Accept_Date'" );
     1820    16897
     1821    16898    6              SELECT(%OP_ACDAY);
     1822    16899                     %LIBRARY_NAME ( @NAME = "'Accept_Day'" );
     1823    16905
     1824    16906    6              SELECT(%OP_ACTIME);
     1825    16907                     %LIBRARY_NAME ( @NAME = "'Accept_Time'" );
     1826    16913
     1827    16914    6              SELECT(%OP_ACDOW);
     1828    16915                     %LIBRARY_NAME ( @NAME = "'Accept_Day_of_Week'" );
     1829    16921
     1830    16922    6              SELECT(%OP_SYSIN);
     1831    16923                     %LIBRARY_NAME ( @NAME = "'Accept_Sysin'" );
     1832    16929
     1833    16930    6              SELECT(%OP_ACCONS);
     1834    16931                     %LIBRARY_NAME ( @NAME = "'Accept_Console'" );
     1835    16937
     1836    16938    6              SELECT(%OP_CVDR);
     1837    16939                     %LIBRARY_NAME ( @NAME = "'Decimal->Real'" );
     1838    16945
     1839    16946    6              SELECT(%OP_CVDQ);
     1840    16947                     %LIBRARY_NAME ( @NAME = "'Decimal->Double'" );
     1841    16953
     1842    16954    6              SELECT(%OP_CVRD);
     1843    16955                     %LIBRARY_NAME ( @NAME = "'Real->Decimal'" );
     1844    16961
     1845    16962    6              SELECT(%OP_CVQD);
PL6.E3A0      #001=Z8HI$BURST File=Z8HI.:Z8A6TSI                                 SAT 08/09/97 13:19 Page:61
     1846    16963                     %LIBRARY_NAME ( @NAME = "'Double->Decimal'" );
     1847    16969
     1848    16970    6              SELECT(%OP_STOPL);
     1849    16971                     %LIBRARY_NAME ( @NAME = "'Stop_Literal'" );
     1850    16977
     1851    16978    6              SELECT(%OP_SETON);
     1852    16979                     %LIBRARY_NAME ( @NAME = "'SET_SWITCH_ON'" );
     1853    16985
     1854    16986    6              SELECT(%OP_SETOFF);
     1855    16987                     %LIBRARY_NAME ( @NAME = "'SET_SWITCH_OFF'" );
     1856    16993
     1857    16994    6              SELECT(%OP_RWCS);
     1858    16995                     %LIBRARY_NAME ( @NAME = "'Report_Writer_Control_System'" );
     1859    17001
     1860    17002    6              SELECT(%OP_WRITE_PAGE);
     1861    17003                     %LIBRARY_NAME ( @NAME = "'Report_Writer_Write_Page'");
     1862    17009
     1863    17010    6              SELECT( %OP_PARAMETER_CHECK );
     1864    17011                     %LIBRARY_NAME( @NAME = "'Parameter_Check'" );
     1865    17017
     1866    17018    6              SELECT(%OP_EXII);
     1867    17019                     %LIBRARY_NAME ( @NAME = "'Integer**Integer'" );
     1868    17025
     1869    17026    6              SELECT(%OP_EXDI);
     1870    17027                     %LIBRARY_NAME ( @NAME = "'Decimal**Integer'" );
     1871    17033
     1872    17034    6              SELECT(%OP_EXRI);
     1873    17035                     %LIBRARY_NAME ( @NAME = "'Real**Integer'" );
     1874    17041
     1875    17042    6              SELECT(%OP_EXQI);
     1876    17043                     %LIBRARY_NAME ( @NAME = "'Double**Integer'" );
     1877    17049
     1878    17050    6              SELECT(%OP_MVDDD);
     1879    17051                     %LIBRARY_NAME ( @NAME = "'De_edit'" );
     1880    17057
     1881    17058    6              SELECT(%OP_CHKON);
     1882    17059                     %LIBRARY_NAME ( @NAME = "'CHK_SWITCH_ON'" );
PL6.E3A0      #001=Z8HI$BURST File=Z8HI.:Z8A6TSI                                 SAT 08/09/97 13:19 Page:62
     1883    17065
     1884    17066    6              SELECT(%OP_CHKOFF);
     1885    17067                     %LIBRARY_NAME ( @NAME = "'CHK_SWITCH_OFF'" );
     1886    17073
     1887    17074    6              SELECT(%OP_DECIMAL_TO_OPUNCH_TRAIL);
     1888    17075                     %LIBRARY_NAME ( @NAME = "'Trailing_overpunched'" );
     1889    17081
     1890    17082    6              SELECT(%OP_DECIMAL_TO_OPUNCH_LEAD);
     1891    17083                     %LIBRARY_NAME ( @NAME = "'Leading_overpunched'" );
     1892    17089
     1893    17090    6              SELECT(%OP_ASCII_TO_GBCD);
     1894    17091                     %LIBRARY_NAME ( @NAME = "'ASCII_to_BCD'" );
     1895    17097
     1896    17098    6              SELECT(%OP_ASCII_TO_EBCDIC);
     1897    17099                     %LIBRARY_NAME ( @NAME = "'T$ASCII_TO_EBCDIC'" );
     1898    17105
     1899    17106    6              SELECT(%OP_EBCDIC_TO_ASCII);
     1900    17107                     %LIBRARY_NAME ( @NAME = "'T$EBCDIC_TO_ASCII'" );
     1901    17113
     1902    17114    6              SELECT(%OP_CLASS_NUMERIC);
     1903    17115                     %LIBRARY_NAME ( @NAME = "'Numeric_class'" );
     1904    17121
     1905    17122    6              SELECT(%OP_CLASS_ALPHA_UPPER);
     1906    17123                     %LIBRARY_NAME ( @NAME = "'Alphabetic_upper_class'" );
     1907    17129
     1908    17130    6              SELECT(%OP_CLASS_ALPHA_LOWER);
     1909    17131                     %LIBRARY_NAME ( @NAME = "'Alphabetic_lower_class'" );
     1910    17137
     1911    17138    6              SELECT(%OP_CLASS_ALPHA);
     1912    17139                     %LIBRARY_NAME ( @NAME = "'Alphabetic_class'" );
     1913    17145
     1914    17146    6              SELECT(%OP_CLASS_DECIMAL_SIGN);
     1915    17147                     %LIBRARY_NAME ( @NAME = "'Decimal_sign_class'" );
     1916    17153
     1917    17154    6              SELECT(%OP_CLASS_OVERPUNCHED_SIGN);
     1918    17155                     %LIBRARY_NAME ( @NAME = "'Overpunched_sign_class'" );
     1919    17161
PL6.E3A0      #001=Z8HI$BURST File=Z8HI.:Z8A6TSI                                 SAT 08/09/97 13:19 Page:63
     1920    17162    6              SELECT(%OP_TCT_MASK);
     1921    17163                     %LIBRARY_NAME ( @NAME = "'TCT_mask_000177777777'" );
     1922    17169
     1923    17170    6              SELECT(%OP_OPEN, %OP_OPEN_SEQ, %OP_OPEN_REL, %OP_OPEN_IND);
     1924    17171                     %LIBRARY_NAME ( @NAME = "'Open_file'" );
     1925    17177
     1926    17178    6              SELECT(%OP_CLOSE, %OP_CLOSE_SEQ, %OP_CLOSE_REL, %OP_CLOSE_IND);
     1927    17179                     %LIBRARY_NAME ( @NAME = "'Close_file'" );
     1928    17185
     1929    17186    6              SELECT(%OP_DELETE, %OP_DELETE_REL, %OP_DELETE_IND);
     1930    17187                     %LIBRARY_NAME ( @NAME = "'Delete_record'" );
     1931    17193
     1932    17194    6              SELECT(%OP_READ_RANDOM, %OP_READ_REL_RAND, %OP_READ_IND_RAND);
     1933    17195                     %LIBRARY_NAME ( @NAME = "'Read_Random'" );
     1934    17201
     1935    17202    6              SELECT(%OP_READ_NEXT, %OP_READ_SEQ, %OP_READ_REL, %OP_READ_IND);
     1936    17203                     %LIBRARY_NAME ( @NAME = "'Read_Next'" );
     1937    17209
     1938    17210    6              SELECT(%OP_WRITE_RANDOM, %OP_WRITE_REL, %OP_WRITE_IND);
     1939    17211                     %LIBRARY_NAME ( @NAME = "'Write_Random'" );
     1940    17217
     1941    17218    6              SELECT(%OP_WRITE_SEQUENTIAL, %OP_WRITE_SEQ);
     1942    17219                     %LIBRARY_NAME ( @NAME = "'Write_Sequential'" );
     1943    17225
     1944    17226    6              SELECT(%OP_REWRITE, %OP_REWRITE_SEQ, %OP_REWRITE_REL, %OP_REWRITE_IND);
     1945    17227                     %LIBRARY_NAME ( @NAME = "'Rewrite'" );
     1946    17233
     1947    17234    6              SELECT(%OP_START, %OP_START_REL, %OP_START_IND);
     1948    17235                     %LIBRARY_NAME ( @NAME = "'Start'" );
     1949    17241
     1950    17242    6              SELECT(%OP_CANCEL);
     1951    17243                     %LIBRARY_NAME ( @NAME = "'Cancel'" );
     1952    17249
     1953    17250    6              SELECT(%OP_CALL_ID);
     1954    17251                     %LIBRARY_NAME ( @NAME = "'Call_Identifier'" );
     1955    17257
     1956    17258    6              SELECT(%OP_EXIT);
PL6.E3A0      #001=Z8HI$BURST File=Z8HI.:Z8A6TSI                                 SAT 08/09/97 13:19 Page:64
     1957    17259                     %LIBRARY_NAME ( @NAME = "'Exit_subroutine'" );
     1958    17265
     1959    17266    6              SELECT(%OP_IENTRY);
     1960    17267                     %LIBRARY_NAME ( @NAME = "'Enter_IDS_USE'" );
     1961    17273
     1962    17274    6              SELECT(%OP_IEXIT);
     1963    17275                     %LIBRARY_NAME ( @NAME = "'Exit_IDS_USE'" );
     1964    17281
     1965    17282    6              SELECT(%OP_UENTRY);
     1966    17283                     %LIBRARY_NAME ( @NAME = "'Enter_USE'" );
     1967    17289
     1968    17290    6              SELECT(%OP_UEXIT);
     1969    17291                     %LIBRARY_NAME ( @NAME = "'Exit_USE'" );
     1970    17297
     1971    17298    6              SELECT(%OP_CANCEL_INT);
     1972    17299                     %LIBRARY_NAME ( @NAME = "'Cancel_Int_Proc'" );
     1973    17305
     1974    17306    6              SELECT(%OP_CALL_ERROR);
     1975    17307                     %LIBRARY_NAME ( @NAME = "'Call_Error'" );
     1976    17313
     1977    17314    6              SELECT(%OP_CLOSE_CANCEL);
     1978    17315                     %LIBRARY_NAME ( @NAME = "'Conditional_Close'" );
     1979    17321
     1980    17322    6              SELECT(%OP_SLEW);
     1981    17323                     %LIBRARY_NAME ( @NAME = "'IBM Slew'");
     1982    17329
     1983    17330    6              SELECT( %OP_CVRDT );
     1984    17331                     %LIBRARY_NAME( @NAME = "'Real->Decimal-T'" );
     1985    17337
     1986    17338    6              SELECT( %OP_CVQDT );
     1987    17339                     %LIBRARY_NAME( @NAME = "'Double->Decimal-T'" );
     1988    17345    6              SELECT( %OP_DYHIA );
     1989    17346                     %LIBRARY_NAME( @NAME = "'DBHIA'" );
     1990    17352
     1991    17353    6              SELECT( %OP_DYRDY );
     1992    17354                     %LIBRARY_NAME( @NAME = "'DBRDY'" );
     1993    17360
PL6.E3A0      #001=Z8HI$BURST File=Z8HI.:Z8A6TSI                                 SAT 08/09/97 13:19 Page:65
     1994    17361    6              SELECT( %OP_DYFIN );
     1995    17362                     %LIBRARY_NAME( @NAME = "'DBFIN'" );
     1996    17368
     1997    17369    6              SELECT( %OP_DYSTO );
     1998    17370                     %LIBRARY_NAME( @NAME = "'DBSTO'" );
     1999    17376
     2000    17377    6              SELECT( %OP_DYERS );
     2001    17378                     %LIBRARY_NAME( @NAME = "'DBERS'" );
     2002    17384
     2003    17385    6              SELECT( %OP_DYMOD );
     2004    17386                     %LIBRARY_NAME( @NAME = "'DBMOD'" );
     2005    17392
     2006    17393    6              SELECT( %OP_DYCON );
     2007    17394                     %LIBRARY_NAME( @NAME = "'DBCON'" );
     2008    17400
     2009    17401    6              SELECT( %OP_DYDIS );
     2010    17402                     %LIBRARY_NAME( @NAME = "'DBDIS'" );
     2011    17408
     2012    17409    6              SELECT( %OP_DYACC );
     2013    17410                     %LIBRARY_NAME( @NAME = "'DBACC'" );
     2014    17416
     2015    17417    6              SELECT( %OP_DYACN );
     2016    17418                     %LIBRARY_NAME( @NAME = "'DBACN'" );
     2017    17424
     2018    17425    6              SELECT( %OP_DYIFT );
     2019    17426                     %LIBRARY_NAME( @NAME = "'DBIFT'" );
     2020    17432
     2021    17433    6              SELECT( %OP_DYIST );
     2022    17434                     %LIBRARY_NAME( @NAME = "'DBIST'" );
     2023    17440
     2024    17441    6              SELECT( %OP_DYIFM );
     2025    17442                     %LIBRARY_NAME( @NAME = "'DBIFM'" );
     2026    17448
     2027    17449    6              SELECT( %OP_DYFKY );
     2028    17450                     %LIBRARY_NAME( @NAME = "'DBFKY'" );
     2029    17456
     2030    17457    6              SELECT( %OP_DYFKC );
PL6.E3A0      #001=Z8HI$BURST File=Z8HI.:Z8A6TSI                                 SAT 08/09/97 13:19 Page:66
     2031    17458                     %LIBRARY_NAME( @NAME = "'DBFKC'" );
     2032    17464
     2033    17465    6              SELECT( %OP_DYFDP );
     2034    17466                     %LIBRARY_NAME( @NAME = "'DBFDP'" );
     2035    17472
     2036    17473    6              SELECT( %OP_DYFDC );
     2037    17474                     %LIBRARY_NAME( @NAME = "'DBFDC'" );
     2038    17480
     2039    17481    6              SELECT( %OP_DYFCD );
     2040    17482                     %LIBRARY_NAME( @NAME = "'DBFCD'" );
     2041    17488
     2042    17489    6              SELECT( %OP_DYFOR );
     2043    17490                     %LIBRARY_NAME( @NAME = "'DBFOR'" );
     2044    17496
     2045    17497    6              SELECT( %OP_DYFCT );
     2046    17498                     %LIBRARY_NAME( @NAME = "'DYFCR'" );
     2047    17504
     2048    17505    6              SELECT( %OP_DYFCR );
     2049    17506                     %LIBRARY_NAME( @NAME = "'DBFCR'" );
     2050    17512
     2051    17513    6              SELECT( %OP_DYFAA );
     2052    17514                     %LIBRARY_NAME( @NAME = "'DBFAA'" );
     2053    17520
     2054    17521    6              SELECT( %OP_DYFAS );
     2055    17522                     %LIBRARY_NAME( @NAME = "'DBFAS'" );
     2056    17528
     2057    17529    6              SELECT( %OP_DYFRS );
     2058    17530                     %LIBRARY_NAME( @NAME = "'DBFRS'" );
     2059    17536
     2060    17537    6              SELECT( %OP_DYFRA );
     2061    17538                     %LIBRARY_NAME( @NAME = "'DBFDR'" );
     2062    17544
     2063    17545    6              SELECT( %OP_DYFDR );
     2064    17546                     %LIBRARY_NAME( @NAME = "'DBFDR'" );
     2065    17552
     2066    17553    6              SELECT( %OP_DYGET );
     2067    17554                     %LIBRARY_NAME( @NAME = "'DBGET'" );
PL6.E3A0      #001=Z8HI$BURST File=Z8HI.:Z8A6TSI                                 SAT 08/09/97 13:19 Page:67
     2068    17560
     2069    17561    6              SELECT( %OP_DYGTF );
     2070    17562                     %LIBRARY_NAME( @NAME = "'DBGTF'" );
     2071    17568
     2072    17569    6              SELECT( %OP_DYFUI );
     2073    17570                     %LIBRARY_NAME( @NAME = "'DBFUI'" );
     2074    17576
     2075    17577    6              SELECT( %OP_DYFRI );
     2076    17578                     %LIBRARY_NAME( @NAME = "'DBFRI'" );
     2077    17584
     2078    17585    6              SELECT(ELSE);
     2079    17586    6                CALL Z8AE$ERROR(%E$UNEXPECTED_CASE);
     2080    17587    6            END /* Select */;
     2081    17588
     2082    17589                 %NEW_DNT ( @POINTER = DNT$$ ,
     2083    17590                            @NAME    = "SUBSTR(NAME.TEXT, 0, NAME.SIZE)" ,
     2084    17591                            @SIZE    = NAME.SIZE );
     2085    17649
     2086    17650                 %NEW_SCALAR ( @ST$     = ST$$ ,
     2087    17651                               @COUNT =
             17651                                   COMCOM.OPERATOR_SEGMENT$ -> ETT.LOP ->  SEGMENT.COUNT ,
     2088    17652                               @DNT$    = DNT$$ ,
     2089    17653                               @TYPE    = %TYI ,
     2090    17654                               @SA      = LIB_SELECTION ,
     2091    17655                               @R       = %EXT_PROGRAM);
     2092    17842
     2093    17843    5            DNT$$ -> DNT.ST$ = ST$$;
     2094    17844
     2095    17845                 %NEW_ETT ( @ID       = %BASE ,
     2096    17846                            @POINTER  = "LIBRARY(LIB_SELECTION)" ,
     2097    17847                            @LOP      = ST$$ ,
     2098    17848                            @ROP      = COMCOM.OPERATOR_SEGMENT$ );
     2099    17918    5          END /* If */;
     2100    17919
     2101    17920    4        PCOM_.OPND(PC.OPND2) = LIBRARY(LIB_SELECTION);
     2102    17921
     2103    17922        %EJECT;
PL6.E3A0      #001=Z8HI$BURST File=Z8HI.:Z8A6TSI                                 SAT 08/09/97 13:19 Page:68
     2104    17923    4   CASE(%MAPT);
     2105    17924        /*V*
     2106    17925
     2107    17926                           MAPT
     2108    17927
     2109    17928
     2110    17929        EXAMPLES::
     2111    17930             MAPT   FREE,OPMOD  MAP LAST FREED REGISTER ONTO OPCODE
     2112    17931             MAPT   *,TAGMOD    MAP CURRENT TRIAD ONTO TAG
     2113    17932             MAPT   LOP,TAGMOD  MAP REGISTER CONTAINING LOP ONTO TAG
     2114    17933
     2115    17934
     2116    17935             THIS DIRECTIVE TAKES A REGISTER (SPECIFIED BY THE FIRST
     2117    17936           PARAMETER), AND MAPS IT (OR 'ORS' IT) OVER THE PORTION OF
     2118    17937           THE NEXT GENERATED WORD SPECIFIED BY THE SECOND PARAMETER.
     2119    17938           E.G. OPCODE MODIFICATION OR REGISTER TAG MODIFICATION.
     2120    17939
     2121    17940        */
     2122    17941
     2123    17942    4        INST_WORD = '0'O;
     2124    17943
     2125    17944    5        DO CASE(PC.OPND1);
     2126    17945    5          CASE(%AR);
     2127    17946    5            REGISTER = LAST_FREED_AR;
     2128    17947
     2129    17948    5          CASE(%XR);
     2130    17949    5            REGISTER = LAST_FREED_XR;
     2131    17950
     2132    17951    5          CASE(%PR);
     2133    17952    5            REGISTER = LAST_FREED_PR;
     2134    17953
     2135    17954    5          CASE(%ARLOP, %XRLOP, %PRLOP);
     2136    17955    5            REGISTER = PILL -> ETT.LOP -> ETT.STATE;
     2137    17956
     2138    17957    5          CASE(%ARROP, %XRROP, %PRROP);
     2139    17958    5            REGISTER = PILL -> ETT.ROP -> ETT.STATE;
     2140    17959
PL6.E3A0      #001=Z8HI$BURST File=Z8HI.:Z8A6TSI                                 SAT 08/09/97 13:19 Page:69
     2141    17960    5          CASE(%XRIOPND); /*#37128*/
     2142    17961    5            REGISTER = PCOM.IOPND -> ETT.STATE;
     2143    17962
     2144    17963    5          CASE(%ARROPND, %XRROPND);
     2145    17964    5            REGISTER = PCOM.ROPND -> ETT.STATE;
     2146    17965
     2147    17966    5          CASE(%ARSTAR, %XRSTAR);
     2148    17967    5            REGISTER = PILL -> ETT.STATE;
     2149    17968
     2150    17969    5          CASE(%PRSTAR);
     2151    17970    5            IF PILL -> ILL.ID = %MVPP THEN
     2152    17971    5              REGISTER = MVPP.STAR$ -> ETT.STATE;
     2153    17972    5            ELSE
     2154    17973    5              REGISTER = PILL -> ETT.STATE;
     2155    17974
     2156    17975    5          CASE(ELSE);
     2157    17976    5            REGISTER = PC.OPND1;
     2158    17977
     2159    17978    5        END /* Case */;
     2160    17979
     2161    17980    5        DO CASE(PC.OPND2);
     2162    17981    5          CASE(%OPMOD);
     2163    17982    6            DO CASE(REGISTER);
     2164    17983    6              CASE(%OPTIMIZE_THIS_CASE);
     2165    17984    6              CASE(%ARQ);
     2166    17985    6                AORQ = TRUE;
     2167    17986    6              CASE(%XR0, %XR1, %XR2,%XR3,%XR4,%XR5,%XR6,%XR7);
     2168    17987    6                INST_WORD.LOW.CODE.REG = REGISTER - 8;
     2169    17988    6              CASE(%PR0, %PR1, %PR2,%PR3,%PR4,%PR5,%PR6,%PR7);
     2170    17989    6                INST_WORD.LOW.CODE.REG = REGISTER - 20;
     2171    17990    6            END /* Case */;
     2172    17991
     2173    17992    5          CASE(%TAGMOD);
     2174    17993    6            DO CASE(REGISTER);
     2175    17994    6              CASE(%OPTIMIZE_THIS_CASE);
     2176    17995    6              CASE(%ARA, %ARQ,
     2177    17996    6                   %XR0, %XR1, %XR2,%XR3,%XR4,%XR5,%XR6,%XR7);
PL6.E3A0      #001=Z8HI$BURST File=Z8HI.:Z8A6TSI                                 SAT 08/09/97 13:19 Page:70
     2178    17997    7                DO CASE(DEFER_BUFFER_IDX);
     2179    17998    7                  CASE(0);
     2180    17999    7                    INST_WORD.LOW.MF.TAG = REGISTER;
     2181    18000
     2182    18001    7                  CASE(1);
     2183    18002    7                    DEFER_BUFFER.MW.MF1.TAG(0) = REGISTER;
     2184    18003
     2185    18004    7                  CASE(2);
     2186    18005    7                    DEFER_BUFFER.MW.MF2.TAG(0) = REGISTER;
     2187    18006
     2188    18007    7                  CASE(3);
     2189    18008    7                    DEFER_BUFFER.MW.MF3.TAG(0) = REGISTER;
     2190    18009
     2191    18010    7                END /* Case */;
     2192    18011
     2193    18012    6              CASE(%PR0, %PR1, %PR2,%PR3,%PR4,%PR5,%PR6,%PR7);
     2194    18013    6                INST_WORD.Y.AR# = (REGISTER - 20);
     2195    18014
     2196    18015    7                DO CASE(DEFER_BUFFER_IDX);
     2197    18016    7                  CASE(0);
     2198    18017    7                    INST_WORD.LOW.MF.AR = TRUE;
     2199    18018
     2200    18019    7                  CASE(1);
     2201    18020    7                    DEFER_BUFFER.MW.MF1.AR(0) = TRUE;
     2202    18021
     2203    18022    7                  CASE(2);
     2204    18023    7                    DEFER_BUFFER.MW.MF2.AR(0) = TRUE;
     2205    18024
     2206    18025    7                  CASE(3);
     2207    18026    7                    DEFER_BUFFER.MW.MF3.AR(0) = TRUE;
     2208    18027
     2209    18028    7                END /* Case */;
     2210    18029    6            END /* Case */;
     2211    18030
     2212    18031    5          CASE(%LENMOD);
     2213    18032    6            DO CASE(DEFER_BUFFER_IDX);
     2214    18033    6              CASE(0);
PL6.E3A0      #001=Z8HI$BURST File=Z8HI.:Z8A6TSI                                 SAT 08/09/97 13:19 Page:71
     2215    18034                       /*  This is a special case that we want the bit 29
     2216    18035                           (MF.AR) off when still doing a PR address
     2217    18036                          modification, ie. it is actually the TAGMOD case. */
     2218    18037    6                INST_WORD.Y.AR# = (REGISTER - 20);
     2219    18038    6              CASE(1);
     2220    18039    6                DEFER_BUFFER.MW.MF1.RL(0) = TRUE;
     2221    18040    6                INST_WORD.NDSC.N = REGISTER;
     2222    18041
     2223    18042    6              CASE(2);
     2224    18043    6                DEFER_BUFFER.MW.MF2.RL(0) = TRUE;
     2225    18044    6                INST_WORD.NDSC.N = REGISTER;
     2226    18045
     2227    18046    6              CASE(3);
     2228    18047    6                DEFER_BUFFER.MW.MF3.RL(0) = TRUE;
     2229    18048    6                INST_WORD.NDSC.N = REGISTER;
     2230    18049    6            END /* Case */;
     2231    18050
     2232    18051    5          CASE(%RECR);
     2233    18052    6              DO CASE( REGISTER );
     2234    18053
     2235    18054    6                CASE( %ARA );
     2236    18055    6                  INST_WORD.ELS.RECR = 1;
     2237    18056
     2238    18057    6                CASE( %ARQ );
     2239    18058    6                  INST_WORD.ELS.RECR = 2;
     2240    18059
     2241    18060    6              END;
     2242    18061
     2243    18062    5          CASE(%TRAMOD);
     2244    18063    5              INST_WORD.SA = PCOM.JABS;
     2245    18064    5        END /* Case */;
     2246    18065
     2247    18066    4        MAPT_WORD = MAPT_WORD | INST_WORD;
     2248    18067    4        MAPT_VALID_COUNT = PC.OPND3 - 1;
     2249    18068
     2250    18069        %EJECT;
PL6.E3A0      #001=Z8HI$BURST File=Z8HI.:Z8A6TSI                                 SAT 08/09/97 13:19 Page:72
     2251    18070    4   CASE(%MOVE);
     2252    18071        /*V*
     2253    18072
     2254    18073                      PSEUDO-CODE_UTILITIES
     2255    18074
     2256    18075             THESE DIRECTIVES ARE USED TO MODIFY VARIOUS COMPILER
     2257    18076           INFORMATION DIRECTLY IN PSEUDO-CODE, ALLEVIATING THE
     2258    18077           NEED FOR SEPARATE ACTIONS TO PERFORM THE SAME FUNCTION (AS
     2259    18078           COBOL-74 DOES).
     2260    18079             THERE ARE 36 DIFFERENT POSSIBLE COMBINATIONS (REFERENCE
     2261    18080           INCLUDE FILE Z8H_MOAS) OF MOVEMENT OR MODIFICATION.
     2262    18081           NOT BY A LONG-SHOT ARE ALL 36 NECESSARY FOR EACH ACTION (E.G.
     2263    18082           YOU'LL NEVER MOVE A CONSTANT TO A CONSTANT), BUT THE DIRECTIVE
     2264    18083           MACRO WILL HANDLE THOSE TYPES OF ABSURD CONSTRUCTS.
     2265    18084
     2266    18085        EXAMPLES::
     2267    18086
     2268    18087           MOVE   DECIMAL(4),PCOM(XABS)  MOVE A 4 TO XABS
     2269    18088           ADD    PCOM(XABS),PCOM(GABS)  ADD XABS TO GABS
     2270    18089           OR     OCTAL(040),PCOM(GABS)  'OR' OCTAL CONSTANT OVER GABS
     2271    18090           SHIFTL PCOM(GABS),DECIMAL(18) SHIFT VALUE IN GABS INTO UPPER 18
     2272    18091
     2273    18092        */
     2274    18093        /*V* MOVE -- See MOVE for PSEUDO-CODE_UTILITIES documentation */
     2275    18094
     2276    18095    5        DO CASE(PCC.CODE1);
     2277    18096    5          CASE(%ABS_ABS);
     2278    18097    5            PCOM_.ABS(PCC.CODE3) = PCOM_.ABS(PCC.CODE2);
     2279    18098    5          CASE(%CONST_ABS);
     2280    18099    5            PCOM_.ABS(PCC.CODE3) = PCCS.CONST;
     2281    18100    5          CASE(%SYSSM_OPND);
     2282    18101        /*       PCOM_.OPND(PCC.CODE3) = SYSSM(PCC.CODE2);*/
     2283    18102    5          CASE(%COMCOM_ABS);
     2284    18103    6            DO CASE(PCC.CODE2);
     2285    18104    6              CASE(%HEX);
     2286    18105    6                PCOM_.ABS(PCC.CODE3) = COMCOM.OB.HEX_SBIN;
     2287    18106
PL6.E3A0      #001=Z8HI$BURST File=Z8HI.:Z8A6TSI                                 SAT 08/09/97 13:19 Page:73
     2288    18107    6              CASE(%FILL);
     2289    18108
     2290    18109    6                KANJI_FILL = FALSE ;
     2291    18110                     %FISH (TRIAD = "PILL -> ETT.ROP", RTN = ST$$) ;
     2292    18118    6                IF ST$$ -> SCALAR.TYPE = %TYN THEN
     2293    18119    6                  KANJI_FILL = TRUE ;
     2294    18120
     2295    18121    6                CALL Z8AU$TYPE_DESCRIPTOR(PILL -> ETT.LOP, TYPE_DESC) ;
     2296    18122    6                IF TYPE_DESC.TYPE = %TYN THEN
     2297    18123    6                  KANJI_FILL = TRUE ;
     2298    18124
     2299    18125    6                IF KANJI_FILL THEN
     2300    18126    6                  PCOM_.ABS (PCC.CODE3) = KANJI.FILL_SBIN ;
     2301    18127    6                ELSE
     2302    18128    7                  DO CASE (TYPE_DESC.TYPE);
     2303    18129    7                    CASE (%TYE, %TYF);
     2304    18130    7                      PCOM_.ABS (PCC.CODE3) = BITBIN ('100000000000'O);
             18130                               /* EBCDIC space */
     2305    18131    7                    CASE (%TYB, %TYC);
     2306    18132    7                      PCOM_.ABS (PCC.CODE3) = BITBIN ('020000000000'O);
             18132                               /* GBCD space */
     2307    18133    7                    CASE (ELSE);
     2308    18134    7                      PCOM_.ABS (PCC.CODE3) = COMCOM.FILL_SBIN;
     2309    18135    7                  END;
     2310    18136
     2311    18137    6              CASE(%DPS88);
     2312    18138    6                PCOM_.ABS(PCC.CODE3) = BITBIN(COMCOM.OB.DPS88);
     2313    18139    6              CASE(%ELS);
     2314    18140    6                PCOM_.ABS(PCC.CODE3) = BITBIN(COMCOM.OB.ELS);
     2315    18141    6              CASE(%HALF_REL);
     2316    18142    6                PCOM_.ABS(PCC.CODE3) = %BITBIN(USING_HALF_WORD_RELOCATION);
     2317    18143    6            END; /* CASE */
     2318    18144    5          CASE(%COMCOM_OPND);
     2319    18145    6            DO CASE(PCC.CODE2);
     2320    18146    6              CASE(%AONE);
     2321    18147    6                PCOM_.OPND(PCC.CODE3) = COMCOM.ALMOST_ONE;
     2322    18148    6              CASE(%ARGS0);
PL6.E3A0      #001=Z8HI$BURST File=Z8HI.:Z8A6TSI                                 SAT 08/09/97 13:19 Page:74
     2323    18149    6                PCOM_.OPND(PCC.CODE3) = COMCOM.ARGS0;
     2324    18150    6              CASE(%ARGS1);
     2325    18151    6                PCOM_.OPND(PCC.CODE3) = COMCOM.ARGS1;
     2326    18152    6              CASE(%ARGS2);
     2327    18153    6                PCOM_.OPND(PCC.CODE3) = COMCOM.ARGS2;
     2328    18154    6              CASE(%ARGS3);
     2329    18155    6                PCOM_.OPND(PCC.CODE3) = COMCOM.ARGS3;
     2330    18156    6              CASE(%ARGS4);
     2331    18157    6                PCOM_.OPND(PCC.CODE3) = COMCOM.ARGS4;
     2332    18158    6              CASE(%DECZIP);
     2333    18159    6                PCOM_.OPND(PCC.CODE3) = COMCOM.D_ZERO;
     2334    18160    6              CASE(%DECONE);
     2335    18161    6                PCOM_.OPND(PCC.CODE3) = COMCOM.D_ONE;
     2336    18162    6              CASE(%E_L_WORD);
     2337    18163    6                PCOM_.OPND(PCC.CODE3) = COMCOM.E_L_WORD;
     2338    18164    6            END; /* CASE */
     2339    18165    5          CASE(%ILL_ABS);
     2340    18166    5            PCOM_.ABS(PCC.CODE3) = PILL -> OFF_SET.CONSTI(PCC.CODE2);
     2341    18167    5          CASE(%ILL_OPND);
     2342    18168    5            PCOM_.OPND(PCC.CODE3) = PILL -> OFF_SET.POINTER(PCC.CODE2);
     2343    18169    5          CASE(%OPND_OPND);
     2344    18170    5            PCOM_.OPND(PCC.CODE3) = PCOM_.OPND(PCC.CODE2);
     2345    18171    5        END /* Case */;
     2346    18172        %EJECT;
PL6.E3A0      #001=Z8HI$BURST File=Z8HI.:Z8A6TSI                                 SAT 08/09/97 13:19 Page:75
     2347    18173    4   CASE(%MOVIND);
     2348    18174        /*V* MOVIND -- See MOVE for PSEUDO-CODE_UTILITIES documentation */
     2349    18175
     2350    18176    5        DO CASE(PCC.CODE1);
     2351    18177    5          CASE(%ILL_ABS);
     2352    18178    5            PCOM_.ABS(PCC.CODE3) = PILL -> OFF_SET.POINTER(PCC.CODE2) -> OFF_SET.CONSTI
             18178                     (PCOM_.ABS(PC.OPND2));
     2353    18179    5          CASE(%ILL_OPND);
     2354    18180    5            PCOM_.OPND(PCC.CODE3) = PILL -> OFF_SET.POINTER(PCC.CODE2) -> OFF_SET.
             18180                     POINTER(PCOM_.ABS(PC.OPND2));
     2355    18181    5          CASE(%OPND_ABS);
     2356    18182    5            PCOM_.ABS(PCC.CODE3) = PCOM_.OPND(PCC.CODE2) -> OFF_SET.CONSTI(PCOM_.ABS(PC
             18182                     .OPND2));
     2357    18183    5          CASE(%OPND_OPND);
     2358    18184    5            PCOM_.OPND(PCC.CODE3) = PCOM_.OPND(PCC.CODE2) -> OFF_SET.POINTER(PCOM_.ABS(
             18184                     PC.OPND2));
     2359    18185    5        END /* Case */;
     2360    18186        %EJECT;
PL6.E3A0      #001=Z8HI$BURST File=Z8HI.:Z8A6TSI                                 SAT 08/09/97 13:19 Page:76
     2361    18187    4   CASE(%NEWLAB);
     2362    18188
     2363    18189    4        CALL Z8AT$CREATE_TEMPORARY(%PARA,ST$);
     2364    18190
     2365    18191    4        IF CURRENT_BLOCK$ = COMCOM.SEGMENT$(%PROC) THEN
     2366    18192    5          DO;
     2367    18193    5            ST$ -> PARA.R = 1;
     2368    18194    5            PCOM_.OPND(PC.OPND1) = ST$;
     2369    18195    5          END;
     2370    18196    4        ELSE
     2371    18197    5          DO;
     2372    18198    5            ST$ -> PARA.R = 3;
     2373    18199    5            ST$ -> PARA.COUNT = CURRENT_BLOCK$ -> BLOCK.COUNT;
     2374    18200
     2375    18201    5            ST$ -> PARA.B.DATA_REF = TRUE;
     2376    18202
     2377    18203                 %NEW_ETT(@ID=%BASE);
     2378    18273    5            ETT$ -> ETT.LOP = ST$;
     2379    18274    5            ETT$ -> ETT.ROP = COMCOM.ESC;
     2380    18275    5            CALL Z8HU$INCCNT(COMCOM.ESC, 1);
     2381    18276    5            PCOM_.OPND(PC.OPND1) = ETT$;
     2382    18277    5          END;
     2383    18278
     2384    18279    4        ST$ -> LABEL.B.REFERENCED = TRUE;
     2385    18280        %EJECT;
PL6.E3A0      #001=Z8HI$BURST File=Z8HI.:Z8A6TSI                                 SAT 08/09/97 13:19 Page:77
     2386    18281    4   CASE(%OFFSET);
     2387    18282
     2388    18283             %LOP_ROP_TO;
     2389    18297
     2390    18298             %#OFF#( @FROM  = OPND ,
     2391    18299                     @TO    = "PCOM_.OPND(PC.OPND3)" ,
     2392    18300                     @VALUE = "PCOM_.ABS(PC.OPND2)" ,
     2393    18301                     @TYPE  = %WORD_ );
     2394    18381        %EJECT;
PL6.E3A0      #001=Z8HI$BURST File=Z8HI.:Z8A6TSI                                 SAT 08/09/97 13:19 Page:78
     2395    18382    4   CASE(%OR);
     2396    18383        /*V* OR -- See MOVE for PSEUDO-CODE_UTILITIES documentation     */
     2397    18384
     2398    18385    5        DO CASE(PCC.CODE1);
     2399    18386    5          CASE(%CONST_ABS);
     2400    18387    5            PCOM_.ABS(PCC.CODE3) = BITBIN(BINBIT(PCOM_.ABS(PCC.CODE3),36) |
     2401    18388    5                                          BINBIT(PCC.CONST,36));
     2402    18389    5          CASE(%ABS_ABS);
     2403    18390    5            PCOM_.ABS(PCC.CODE3) = BITBIN(BINBIT(PCOM_.ABS(PCC.CODE3),36) |
     2404    18391    5                                          BINBIT(PCOM_.ABS(PCC.CODE2),36));
     2405    18392    5        END /* Case */;
     2406    18393        %EJECT;
PL6.E3A0      #001=Z8HI$BURST File=Z8HI.:Z8A6TSI                                 SAT 08/09/97 13:19 Page:79
     2407    18394    4   CASE(%ORGE);
     2408    18395
     2409    18396    5        DO CASE(PC.OPND1);
     2410    18397    5          CASE(%DATA);
     2411    18398    5            CURRENT_BLOCK$ = COMCOM.LAST_BLOCK$;
     2412    18399
     2413    18400    5          CASE(%PROC);
     2414    18401    5            CURRENT_BLOCK$ = COMCOM.SEGMENT$(%PROC);
     2415    18402    5        END /* Case */;
     2416    18403
     2417    18404             %NEW_ORG ( @ST$ = CURRENT_BLOCK$ );
     2418    18440        %EJECT;
PL6.E3A0      #001=Z8HI$BURST File=Z8HI.:Z8A6TSI                                 SAT 08/09/97 13:19 Page:80
     2419    18441    4   CASE(%ORGS);
     2420    18442
     2421    18443    4        IF PC.OPND1 = %RESET THEN
     2422    18444    4          CURRENT_BLOCK$ = OLD_CURRENT_BLOCK$;
     2423    18445    4        ELSE
     2424    18446    5          DO;
     2425    18447                 %LOP_ROP_TO;
     2426    18461    5            OLD_CURRENT_BLOCK$ = CURRENT_BLOCK$;
     2427    18462
     2428    18463    6            DO CASE(OPND -> ST.ID);
     2429    18464    6              CASE(%SCALAR, %POINTER, %ARRAY);
     2430    18465    6                P$ = COMCOM.BLOCK$;
     2431    18466    6                I = 1;
     2432    18467
     2433    18468    7                DO WHILE(OPND -> VARIABLE.COUNT > I);
     2434    18469    7                  P$ = P$ -> VARIABLE.NEXT;
     2435    18470    7                  I = I + 1;
     2436    18471    7                END;
     2437    18472
     2438    18473    6                CURRENT_BLOCK$ = P$;
     2439    18474
     2440    18475    6              CASE(%SECTION);
     2441    18476    6                CURRENT_BLOCK$ = OPND -> SECTION.SEGMENT$;
     2442    18477    6            END /* Case */;
     2443    18478    5          END;
     2444    18479
     2445    18480             %NEW_ORG ( @ST$ = CURRENT_BLOCK$ );
     2446    18516        %EJECT;
PL6.E3A0      #001=Z8HI$BURST File=Z8HI.:Z8A6TSI                                 SAT 08/09/97 13:19 Page:81
     2447    18517    4   CASE(%REF_);
     2448    18518        /*V*
     2449    18519
     2450    18520                                     REF
     2451    18521
     2452    18522             PURPOSE::
     2453    18523             THIS ACTION CREATES OR AUGMENTS REFERENCE ITEMS FOR
     2454    18524           REFERENCE TRIADS.
     2455    18525             A REFERENCE ITEM IS NOTHING MORE THAN A
     2456    18526           SYMBOL TABLE ITEM THAT HAS BEEN MODIFIED IN SOME WAY E.G.
     2457    18527           SCALE FACTOR, STORAGE ADDRESS OFFSET, OR REGISTER TAG
     2458    18528           INFORMATION.
     2459    18529
     2460    18530           OPERATION:  GET A REFERENCE ITEM (WE MAY HAVE POOLED ONE
     2461    18531           FROM PREVIOUS USE).
     2462    18532           MOVE LOP'S SYMBOL TABLE OR REFERENCE ITEM UP INTO NEW
     2463    18533           REFERENCE ITEM.
     2464    18534           MAKE NECESSARY CHANGES TO THE OLD SYMBOL TABLE GUY,
     2465    18535           DEPENDING ON THE REFERENCE TRIAD ID.
     2466    18536           MARK THE CURRENT TRIAD AS BEING STORAGE CONTAINED (%REF_T),
     2467    18537           AND POINT THE ADDO FIELD OF THE CURRENT TRIAD TO THE NEW
     2468    18538           REFERENCE ITEM.
     2469    18539
     2470    18540           BELOW ARE THE REFERENCE TRIAD RELATIONSHIPS.  PARENTHESIS
     2471    18541           INDICATE THAT THESE TRIADS ARE OPTIONAL.
     2472    18542
     2473    18543
     2474    18544
     2475    18545                                         (SIZ ) -
     2476    18546                                      OR (FISS)   -
     2477    18547                                          -  -      -
     2478    18548                                         -    -       -
     2479    18549                                        -      -     EXPR
     2480    18550                                       -        -
     2481    18551                                    (SSOP)     CONSTANT
     2482    18552                                     -  -      1 - 256K
     2483    18553                                    -    -
PL6.E3A0      #001=Z8HI$BURST File=Z8HI.:Z8A6TSI                                 SAT 08/09/97 13:19 Page:82
     2484    18554                                   -      -
     2485    18555                                  -        -
     2486    18556                                (OFF )    EXPR
     2487    18557                                 -  -
     2488    18558                                -    -
     2489    18559                               -      -
     2490    18560                              -        -
     2491    18561                             -          -
     2492    18562                           BASE       CONSTANT
     2493    18563                           -  -      -128K - +128K
     2494    18564                          -    -
     2495    18565                         -      -
     2496    18566                        -        -
     2497    18567                     SCALAR      ESC
     2498    18568                  OR ARRAY    OR ARGP
     2499    18569                  OR FILE        -  -
     2500    18570                  OR .          -    -
     2501    18571                     .         -      -
     2502    18572                     .        -        -
     2503    18573                            BLOCK    CONSTANT
     2504    18574                         OR SCALAR    0 - 15
     2505    18575
     2506    18576
     2507    18577        */
     2508    18578
     2509    18579             %NEW_REF(@POINTER=LTS$$);
     2510    18688
     2511    18689
     2512    18690
     2513    18691    4        IF PILL -> ETT.LOP -> ETT.ID < %FIRST_ST THEN
     2514    18692    4          LTS$$ -> REF = PILL -> ETT.LOP -> ETT.REF$ -> REF;
     2515    18693    4        ELSE
     2516    18694    5          DO;
     2517    18695    5            LTS$$ -> REF.B = '0'O;
     2518    18696    5            LTS$$ -> LTS.ID = %REF;
     2519    18697    5            LTS$$ -> REF.SA      = PILL -> ETT.LOP -> ST.SA;
     2520    18698    5            LTS$$ -> REF.DESCL   = PILL -> ETT.LOP -> ST.DESCL;
PL6.E3A0      #001=Z8HI$BURST File=Z8HI.:Z8A6TSI                                 SAT 08/09/97 13:19 Page:83
     2521    18699    5            LTS$$ -> REF.ST$ = PILL -> ETT.LOP;
     2522    18700    5            LTS$$ -> REF.PR_TAG$ = ADDR(NIL);
     2523    18701    5            LTS$$ -> REF.SSOP_TAG$ = ADDR(NIL);
     2524    18702    5            LTS$$ -> REF.SIZ_TAG$ = ADDR(NIL);
     2525    18703    5          END;
     2526    18704
     2527    18705             %IMPLIED_REF(REF$=LTS$$, CNT=PILL -> ETT.COUNT);
     2528    18719
     2529    18720    5        DO CASE(PILL -> ETT.ID);
     2530    18721    5          CASE(%BASE);
     2531    18722                 %IF USING_HALF_WORD_RELOCATION;
     2532    18723    5              IF PILL -> ETT.ROP -> ETT.ID = %ESC THEN
     2533    18724    5                CALL Z8HU$DEC_COUNT(PILL -> ETT.ROP,
     2534    18725    5                           BINBIT(PILL -> ETT.ROP -> ETT.COUNT, 36));
     2535    18726    5              ELSE
     2536    18727    6                DO;
     2537    18728    6                LTS$$ -> REF.SA = LTS$$ -> REF.SA -
     2538    18729    6                       (%#16K * PILL -> ETT.ROP -> ETT.ESCINF.BLK#);
     2539    18730
     2540    18731                 %ELSE;
     2557    18748                 %ENDIF;
     2558    18749    6                LTS$$ -> REF.PR_TAG$ = PILL -> ETT.ROP;
     2559    18750
     2560    18751    6                RAT.AWAITING(PILL -> ETT.ROP -> ETT.STATE) = 1;
     2561    18752                 %IF USING_HALF_WORD_RELOCATION;
     2562    18753    6              END;
     2563    18754                 %ENDIF;
     2564    18755
     2565    18756    5          CASE(%TRIAD);
     2566    18757    5            LTS$$ -> REF.B.CONST = TRUE;
     2567    18758
     2568    18759    5          CASE(%ESC);
     2569    18760    5            IF PILL -> ETT.LOP -> ST.R ~= %PROGRAM THEN
     2570    18761    5              LTS$$ -> REF.SA = LTS$$ -> REF.SA + PILL -> ETT.ROPCON;
     2571    18762    5            ELSE
     2572    18763    5              PILL -> ETT.ROP -> ST.SA = 0;
     2573    18764
PL6.E3A0      #001=Z8HI$BURST File=Z8HI.:Z8A6TSI                                 SAT 08/09/97 13:19 Page:84
     2574    18765    5          CASE(%ARGP);
     2575    18766    5              LTS$$ -> REF.ST$ = PILL -> ETT.LOP -> SCALAR.PROC$ ->
     2576    18767    5                                PROC_.PSEUDO_STACK$ -> ETT.LOP;
     2577    18768    5              LTS$$ -> REF.SA = LTS$$ -> REF.ST$ -> ST.SA +
     2578    18769    5                                PILL -> ETT.ESCINF.ARG# + %STACK_HEADER;
     2579    18770
     2580    18771    5          CASE(%SSOP);
     2581    18772    5            LTS$$ -> REF.SSOP_TAG$ = PILL -> ETT.ROP;
     2582    18773
     2583    18774    5          CASE(%SIZ, %REFMOD);                                 /*#28637*/
     2584    18775    5            LTS$$ -> REF.SIZ_TAG$ = PILL -> ETT.ROP;
     2585    18776
     2586    18777    5          CASE(%OFF);
     2587    18778            /*   LTS$$ -> REF.B.CONST = FALSE;  */
     2588    18779    5            LTS$$ -> REF.B.WORD_ = (PILL -> ETT.OFFSET.TYPE = %WORD_);
     2589    18780
     2590    18781    5            CODE    = PILL -> ETT.OFFSET.TYPE;
     2591    18782    5            OFFSET  = PILL -> ETT.OFFSET.VALUE;
     2592    18783
     2593    18784    5            CALL Z9AU$OFFSET(OFFSET, CODE, LTS$$ -> REF.SA);
     2594    18785
     2595    18786    5          CASE(%FISS);
     2596    18787    6            DO CASE(PILL -> ETT.OFFSET.TYPE);
     2597    18788    6              CASE(%NUMERIC_FISS);
     2598    18789    6                LTS$$ -> REF.NDSC.N = PILL -> ETT.SIZE.VALUE;
     2599    18790
     2600    18791    6              CASE(%ALPHA_NUMERIC_FISS);
     2601    18792    6                LTS$$ -> REF.ADSC.N = PILL -> ETT.SIZE.VALUE;
     2602    18793    6            END /* Case */;
     2603    18794
     2604    18795    5          CASE(%DNA);
     2605    18796    5            LTS$$ -> REF.ADSC.N = PILL -> ETT.DESC.ADSC.N;
     2606    18797    5            LTS$$ -> REF.ADSC.MBZ2 = FALSE;
     2607    18798    5            LTS$$ -> REF.ADSC.TA = PILL -> ETT.DESC.ADSC.TA;
     2608    18799    5            IF PILL -> ETT.DESC.ADSC.TA = %ADSC9 THEN
     2609    18800    5              LTS$$ -> REF.ADSC.MBZ1 = FALSE;
     2610    18801
PL6.E3A0      #001=Z8HI$BURST File=Z8HI.:Z8A6TSI                                 SAT 08/09/97 13:19 Page:85
     2611    18802    5          CASE(%DAN);
     2612    18803    5            LTS$$ -> REF.NDSC.S = %NO_SIGN;
     2613    18804    5            LTS$$ -> REF.NDSC.SF = 0;
     2614    18805
     2615    18806    5          CASE(%D96);
     2616    18807    5            LTS$$ -> REF.ADSC.TA = %ADSC6;
     2617    18808    5            LTS$$ -> REF.NDSC.CN = T96_CN (LTS$$ -> REF.ADSC.CN);
     2618    18809
     2619    18810    5          CASE(%DESC);
     2620    18811    5            LTS$$ -> REF.SA = PILL -> ETT.DESC.SA;
     2621    18812    5            LTS$$ -> REF.DESCL = PILL -> ETT.DESC.DESCL;
     2622    18813
     2623    18814    5          CASE(%MPD10);
     2624    18815    5            LTS$$ -> REF.NDSC.SF = LTS$$ -> REF.NDSC.SF + PILL -> ETT.ROPCON;
     2625    18816
     2626    18817    5          CASE(ELSE);
     2627    18818    5            CALL Z8AE$ERROR(%E$UNEXPECTED_CASE);
     2628    18819    5        END /* Case */;
     2629    18820
     2630    18821    4        IF PILL -> ETT.STATE = %UNEVAL_T THEN
     2631    18822    4          PILL -> ETT.STATE = %REF_T;
     2632    18823
     2633    18824    4        PILL -> ETT.REF$ = LTS$$;
     2634    18825
     2635    18826        %EJECT;
PL6.E3A0      #001=Z8HI$BURST File=Z8HI.:Z8A6TSI                                 SAT 08/09/97 13:19 Page:86
     2636    18827    4   CASE(%SHIFTL);
     2637    18828        /*V* SHIFTL -- See MOVE for PSEUDO-CODE_UTILITIES documentation */
     2638    18829
     2639    18830    4        IF PCC.CODE1 = %ABS_CONST THEN
     2640    18831    5          DO I = 1 TO PCC.CONST;
     2641    18832    5            PCOM_.ABS(PCC.CODE2) = PCOM_.ABS(PCC.CODE2) * 2;
     2642    18833    5          END;
     2643    18834
     2644    18835    4   CASE(%SHIFTR);
     2645    18836        /*V* SHIFTR -- See MOVE for PSEUDO-CODE_UTILITIES documentation */
     2646    18837
     2647    18838    4        IF PCC.CODE1 = %ABS_CONST THEN
     2648    18839    5          DO I = 1 TO PCC.CONST;
     2649    18840    5            PCOM_.ABS(PCC.CODE2) = PCOM_.ABS(PCC.CODE2) / 2;
     2650    18841    5          END;
     2651    18842
     2652    18843        %EJECT;
PL6.E3A0      #001=Z8HI$BURST File=Z8HI.:Z8A6TSI                                 SAT 08/09/97 13:19 Page:87
     2653    18844    4   CASE(%STORE);
     2654    18845
     2655    18846             %LOP_ROP_TO(RESULT=P$);
     2656    18860
     2657    18861    4        CALL Z8HG$SAVE(P$);
     2658    18862        %EJECT;
PL6.E3A0      #001=Z8HI$BURST File=Z8HI.:Z8A6TSI                                 SAT 08/09/97 13:19 Page:88
     2659    18863    4   CASE(%WALK);
     2660    18864
     2661    18865             %LOP_ROP_TO;
     2662    18879
     2663    18880    4        CALL Z8HU$WALK(OPND);
     2664    18881
     2665    18882    4   CASE(%WALK2);
     2666    18883
     2667    18884             %WALK_LOP_ROP;
     2668    18900
     2669    18901    4   CASE(%WALK3);
     2670    18902
     2671    18903    4        IF PILL -> ILL.TO_ -> ETT.ID <= %LAST_REFERENCE_TRIAD THEN
     2672    18904    5          DO;
     2673    18905                 %WALK_LOP_ROP;
     2674    18921    5            CALL Z8HU$WALK(PILL -> ILL.TO_);
     2675    18922    5          END;
     2676    18923    4        ELSE
     2677    18924    5          DO;
     2678    18925    5            CALL Z8HU$WALK(PILL -> ILL.TO_);
     2679    18926    5          END;
     2680    18927             %WALK_LOP_ROP;
     2681    18943
     2682    18944
     2683    18945        %EJECT;
PL6.E3A0      #001=Z8HI$BURST File=Z8HI.:Z8A6TSI                                 SAT 08/09/97 13:19 Page:89
     2684    18946    4   CASE(%WRAPUP);
     2685    18947        /*V*
     2686    18948             WRAPUP -- See DEFER
     2687    18949        */
     2688    18950
     2689    18951    4        DEFER_BUFFER.B.BUFFER(DEFER_BUFFER_IDX - 1) = FALSE;
     2690    18952
     2691    18953    5        DO CASE(DEFER_BUFFER.INST_WORD.OP_CODE(0));
     2692    18954    5          CASE(%MVN_OP, %BTD_OP, %AD2D_OP, %AD3D_OP,
     2693    18955    5               %SB2D_OP, %SB3D_OP, %MP2D_OP, %MP3D_OP,
     2694    18956    5               %DV2D_OP, %DV3D_OP);
     2695    18957    5             DEFER_BUFFER.MW.P(0) =
     2696    18958    5                DEFER_BUFFER.ST$(DEFER_BUFFER_IDX - 1) -> SCALAR.B.P;
     2697    18959    5        END;
     2698    18960
     2699    18961
     2700    18962    5        DO I = 0 TO DEFER_BUFFER_IDX - 1;
     2701    18963               %NEW_WORD( @OU_WORD = "DEFER_BUFFER.INST_WORD(I)" ,
     2702    18964                          @ST$     = "DEFER_BUFFER.ST$(I)" ,
     2703    18965                          @KEY     = "DEFER_BUFFER.KEY(I)" );
     2704    19012
     2705    19013    5          IF DEFER_BUFFER.DECCNT_NODE$(I) ~= ADDR(NIL) THEN
     2706    19014    5            CALL Z8HU$DEC_COUNT(DEFER_BUFFER.DECCNT_NODE$(I),1);
     2707    19015    5        END;
     2708    19016
     2709    19017
     2710    19018    4        DEFER = FALSE;
     2711    19019    4        DEFER_BUFFER_IDX = 0;
     2712    19020        %EJECT;
PL6.E3A0      #001=Z8HI$BURST File=Z8HI.:Z8A6TSI                                 SAT 08/09/97 13:19 Page:90
     2713    19021    4              CASE(ELSE);
     2714    19022    4                CALL Z8AE$ERROR(%E$UNEXPECTED_CASE);
     2715    19023
     2716    19024    4            END ACTIONS;
     2717    19025    3            IC = PINCRW(IC,2);
     2718    19026    3          END SUPPORT_ACTIONS;
     2719    19027    2        END LOOP;
     2720    19028        %EJECT;
PL6.E3A0      #001=Z8HI$BURST File=Z8HI.:Z8A6TSI                                 SAT 08/09/97 13:19 Page:91
     2721    19029    1   HANDLE_REF_OPERAND:PROC;
     2722    19030        /*I*
     2723    19031             NAME: HANDLE_REF_OPERAND
     2724    19032             PURPOSE:
     2725    19033                  Set up an instruction to reference operand of the GENI
     2726    19034                  directive.
     2727    19035             CALL:
     2728    19036                  CALL HANDLE_REF_OPERAND
     2729    19037             DATA:
     2730    19038                  None.
     2731    19039             DESCRIPTION:
     2732    19040                  Called in GENI directive (maybe elsewhere) to handle
     2733    19041                  operands that are ETT items.  This procedure gets
     2734    19042                  the information from the REF item of the ETT item
     2735    19043                  and uses it to set up the instruction to reference the
     2736    19044                  item.
     2737    19045        */
     2738    19046
     2739    19047    2        DCL SIZ BOOLEAN;
     2740    19048    2        DCL SSOP BOOLEAN;
     2741    19049    2        DCL PR BOOLEAN;
     2742    19050    2        DCL STB_FLAG BOOLEAN;
             19050                 /* STBA or STBQ ... compiler will not generate STCA or STCQ */
     2743    19051
     2744    19052    2        IF REF$ -> REF.B.CONST THEN
     2745    19053    2          CALL HANDLE_CONSTANT;
     2746    19054    2        ELSE
     2747    19055    2          INST_WORD.SA = REF$ -> REF.SA;
     2748    19056
     2749    19057
     2750    19058
     2751    19059    3        DO CASE(DEFER_BUFFER_IDX);
     2752    19060    3          CASE(0);
     2753    19061    3            MF = INST_WORD.LOW.MF;
     2754    19062
     2755    19063    3          CASE(1);
     2756    19064    3            MF = DEFER_BUFFER.MW.MF1(0);
PL6.E3A0      #001=Z8HI$BURST File=Z8HI.:Z8A6TSI                                 SAT 08/09/97 13:19 Page:92
     2757    19065
     2758    19066    3          CASE(2);
     2759    19067    3            MF = DEFER_BUFFER.MW.MF2(0);
     2760    19068
     2761    19069    3          CASE(3);
     2762    19070    3            MF = DEFER_BUFFER.MW.MF3(0);
     2763    19071
     2764    19072    3          CASE(ELSE);
     2765    19073    3            CALL Z8AE$ERROR(%E$UNEXPECTED_CASE);
     2766    19074
     2767    19075    3        END /* Case */;
     2768    19076
     2769    19077
     2770    19078
     2771    19079    2        SIZ = (REF$ -> REF.SIZ_TAG$ ~= ADDR(NIL));
     2772    19080    2        SSOP = (REF$ -> REF.SSOP_TAG$ ~= ADDR(NIL));
     2773    19081    2        PR = (REF$ -> REF.PR_TAG$ ~= ADDR(NIL));
     2774    19082
     2775    19083    2        IF SSOP THEN
     2776    19084    3          DO;
     2777    19085    3            CALL Z8HU$TAG(REF$ -> REF.SSOP_TAG$, ST$$ -> VARIABLE.B.GREATER_256K = TRUE
             19085                     );
     2778    19086    3            MF.TAG = REF$ -> REF.SSOP_TAG$ -> ETT.STATE;
     2779    19087    3          END;
     2780    19088
     2781    19089    2        IF PR THEN
     2782    19090    3          DO;
     2783    19091
     2784    19092
     2785    19093    3            CALL Z8HU$WALK(REF$ -> REF.PR_TAG$);
     2786    19094
     2787    19095    3            INST_WORD.Y.AR# = REF$ -> REF.PR_TAG$ -> ETT.STATE - 20;
     2788    19096    3            MF.AR = TRUE;
     2789    19097
     2790    19098    3            IF REF$ -> REF.SA >= %#16K AND REF$ -> REF.SA < %#128K THEN
     2791    19099    4              DO;
     2792    19100    4                IF INST_WORD.LOW.OP_CODE = %STBA_OP
PL6.E3A0      #001=Z8HI$BURST File=Z8HI.:Z8A6TSI                                 SAT 08/09/97 13:19 Page:93
     2793    19101    4                  THEN STB_FLAG = TRUE; /* Cannot use tag field */
     2794    19102    4                  ELSE STB_FLAG = FALSE;
     2795    19103    4                SAVED_INST_WORD = INST_WORD;
     2796    19104    4                INST_WORD = '0'B;
     2797    19105    4                P = REF$ -> REF.SA;
     2798    19106    4                IF SSOP OR STB_FLAG THEN
     2799    19107    5                  DO;
     2800    19108    5                    CALL Z8HG$CHOOSE_REGISTER( %PR0, %PR7, Q);
     2801    19109    5                    Q = Q - %PR0;
     2802    19110                         /* Tag field is already set and the register must not
     2803    19111                            be changed in case it is also needed later. Therefore
     2804    19112                            allocate a scratch PR to combine this operand's PR
     2805    19113                            with the 16K or more offset. */
     2806    19114    5                    CALL Z8HG$CHOOSE_REGISTER( %XR0, %XR7, REGISTER);
     2807    19115    5                    R = REGISTER - %XR0;
     2808    19116    5                  END;
     2809    19117    4                ELSE /* Not SSOP or STBA or STBQ */
     2810    19118    5                  DO CASE (ST$$ -> ARRAY.TYPE);
     2811    19119    5                    CASE (%TYD, %TYJ, %TYO, %TYE, %TYH, %TYA, %TYN, %TYK);
     2812    19120    5                      IF NOT REF$ -> REF.B.WORD_ THEN
     2813    19121    5                        IF ST$$ -> ARRAY.NDSC.TN /* Packed decimal */
     2814    19122    5                          THEN P = P * 8; /* Need offset in digits */
     2815    19123    5                          ELSE P = P * 4; /* Need offset in bytes */
     2816    19124    5                      IF P >= %#128K THEN
     2817    19125    6                        DO;
     2818    19126    6                          CALL Z8HG$CHOOSE_REGISTER( %ARA, %ARQ, REGISTER);
     2819    19127    6                          R = REGISTER - %ARA;
     2820    19128    6                          REGISTER = REGISTER - 4; /* Need ,AU or ,QU mod */
     2821    19129    6                        END;
     2822    19130    5                      ELSE
     2823    19131    6                        DO;
     2824    19132    6                          CALL Z8HG$CHOOSE_REGISTER( %XR0, %XR7, REGISTER);
     2825    19133    6                          R = REGISTER - %XR0;
     2826    19134    6                        END;
     2827    19135    5                    CASE (ELSE); /* TYI, etc. -- XRn will always do */
     2828    19136    5                      CALL Z8HG$CHOOSE_REGISTER( %XR0, %XR7, REGISTER);
     2829    19137    5                      R = REGISTER - %XR0;
PL6.E3A0      #001=Z8HI$BURST File=Z8HI.:Z8A6TSI                                 SAT 08/09/97 13:19 Page:94
     2830    19138    5                  END; /* CASE, for not SSOP or STBA or STBQ */
     2831    19139    4                INST_WORD.SA = P;
     2832    19140    4                IF REGISTER >= %XR0
     2833    19141    4                  THEN INST_WORD.LOW.OP_CODE = %EAX0_OP + R;
     2834    19142    4                  ELSE INST_WORD.LOW.OP_CODE = %EAA_OP + R;
     2835    19143                     %NEW_WORD (@OU_WORD = INST_WORD);
     2836    19190    4                IF SSOP OR STB_FLAG THEN
     2837    19191    5                  DO;
     2838    19192    5                    INST_WORD.SA = 0;
     2839    19193    5                    INST_WORD.Y.AR# = SAVED_INST_WORD.Y.AR#;
     2840    19194    5                    INST_WORD.LOW.OP_CODE = %EPPR0_OP + Q;
     2841    19195    5                    INST_WORD.LOW.EIS = TRUE;
     2842    19196    5                    INST_WORD.LOW.MF.AR = TRUE;
     2843    19197    5                    INST_WORD.LOW.MF.TAG = REGISTER;
     2844    19198                         %NEW_WORD (@OU_WORD = INST_WORD);
     2845    19245    5                  END; /* SSOP or STBA or STBQ */
     2846    19246    4                ELSE /* Not SSOP or STBA or STBQ */
     2847    19247    5                  DO;
     2848    19248    5                    Q = SAVED_INST_WORD.Y.AR#; /* So only bits 3-17 set to 0 */
     2849    19249    5                    MF.TAG = REGISTER; /* For the 16K or more offset */
     2850    19250    5                  END;
     2851    19251    4                INST_WORD = SAVED_INST_WORD;
     2852    19252    4                INST_WORD.SA = 0;
     2853    19253    4                INST_WORD.Y.AR# = Q;
     2854    19254    4              END;
     2855    19255
     2856    19256    3          END;
     2857    19257
     2858    19258
     2859    19259
     2860    19260    2        IF CURRENT_BLOCK$ ~= COMCOM.BLOCK$ THEN
     2861    19261    3          DO CASE(DEFER_BUFFER_IDX);
     2862    19262    3            CASE(0);
     2863    19263    3              INST_WORD.LOW.MF = MF;
     2864    19264
     2865    19265    3            CASE(1);
     2866    19266    3              INST_WORD.ADSC = REF$ -> REF.ADSC;
PL6.E3A0      #001=Z8HI$BURST File=Z8HI.:Z8A6TSI                                 SAT 08/09/97 13:19 Page:95
     2867    19267    3              MF.RL = SIZ;
     2868    19268    3              IF DEFER_BUFFER.INST_WORD.OP_CODE(0) = %MTR_OP OR DEFER_BUFFER.INST_WORD.
             19268                       OP_CODE(0) = %MTM_OP  THEN
     2869    19269    4                DO;
     2870    19270    4                  INST_WORD.SDSC.E = %TRUE;
     2871    19271    4                  INST_WORD.SDSC.TS = %TRUE;
     2872    19272    4                END;
     2873    19273
     2874    19274    3              DEFER_BUFFER.MW.MF1(0) = MF;
     2875    19275
     2876    19276                   %CONVERT_DESC_FOR_DPS88;
     2877    19328
     2878    19329    3            CASE(2);
     2879    19330    3              MF.RL = SIZ;
     2880    19331    3              DEFER_BUFFER.MW.MF2(0) = MF;
     2881    19332    3              INST_WORD.ADSC = REF$ -> REF.ADSC;
     2882    19333                   %CONVERT_DESC_FOR_DPS88;
     2883    19385
     2884    19386    3            CASE(3);
     2885    19387    3              MF.RL = SIZ;
     2886    19388    3              DEFER_BUFFER.MW.MF3(0) = MF;
     2887    19389    3              INST_WORD.ADSC = REF$ -> REF.ADSC;
     2888    19390                   %CONVERT_DESC_FOR_DPS88;
     2889    19442
     2890    19443    3            CASE(ELSE);
     2891    19444    3              CALL Z8AE$ERROR(%E$UNEXPECTED_CASE);
     2892    19445
     2893    19446    3          END /* Case */;
     2894    19447
     2895    19448    2          IF SIZ THEN
     2896    19449    3            DO;
     2897    19450    3            IF DEFER AND ST$$ -> VARIABLE.B.GREATER_256K AND SSOP THEN
     2898    19451    4              DO;
     2899    19452    4                CALL Z8HG$CHOOSE_REGISTER (%PR0, %PR7, POINTER_REGISTER);
     2900    19453    4                SAVED_INST_WORD = INST_WORD;
     2901    19454    4                INST_WORD = '0'B;
     2902    19455    4                INST_WORD.LOW.OP_CODE = %(EPPR0_OP - PR0) + POINTER_REGISTER;
PL6.E3A0      #001=Z8HI$BURST File=Z8HI.:Z8A6TSI                                 SAT 08/09/97 13:19 Page:96
     2903    19456    4                INST_WORD.LOW.EIS = TRUE;
     2904    19457    4                IF PR THEN
     2905    19458    5                  DO;
     2906    19459    5                    INST_WORD.Y.AR# = REF$ -> REF.PR_TAG$ -> ETT.STATE - %PR0;
     2907    19460    5                    INST_WORD.LOW.MF.AR = TRUE;
     2908    19461    5                  END;
     2909    19462    4                ELSE
     2910    19463    4                  INST_WORD.SA = REF$ -> REF.SA;
     2911    19464                     %NEW_WORD (@OU_WORD = INST_WORD);
     2912    19511    4                INST_WORD.SA = 0;
     2913    19512    4                INST_WORD.Y.AR# = POINTER_REGISTER - %PR0;
     2914    19513    4                IF REF$ -> REF.NDSC.TN
     2915    19514    4                  THEN INST_WORD.LOW.OP_CODE = %A4BD_OP;
     2916    19515    4                  ELSE INST_WORD.LOW.OP_CODE = %A9BD_OP;
     2917    19516    4                INST_WORD.LOW.MF.AR = TRUE;
     2918    19517    4                INST_WORD.LOW.MF.TAG = REF$ -> REF.SSOP_TAG$ -> ETT.STATE;
     2919    19518                     %NEW_WORD (@OU_WORD = INST_WORD);
     2920    19565    4                INST_WORD = SAVED_INST_WORD;
     2921    19566    4                IF DEFER_BUFFER_IDX = 1 THEN
     2922    19567    5                  DO;
     2923    19568    5                    DEFER_BUFFER.MW.MF1.TAG (0) = 0;
     2924    19569    5                    DEFER_BUFFER.MW.MF1.AR (0) = TRUE;
     2925    19570    5                  END;
     2926    19571    4                ELSE /* DEFER_BUFFER_IDX = 2 */
     2927    19572    5                  DO;
     2928    19573    5                    IF REF$ -> REF.SSOP_TAG$ -> ETT.STATE =
     2929    19574    5                        DEFER_BUFFER.MW.MF1.TAG (0) THEN
     2930    19575    6                      DO;
     2931    19576                             /* Uh oh ... compiler expects two different quantities
     2932    19577                                to be in the same register at the same time ...
     2933    19578                                find where the other got moved to. */
     2934    19579    6                        P$ = PILL -> ILL.ROP -> ETT.REF$ -> REF.SSOP_TAG$;
     2935    19580    6                        IF P$ = ADDR (NIL) /* Not obvious how to find it */
     2936    19581    6                          THEN CALL Z8AE$ERROR (%E$UNEXPECTED_CASE);
     2937    19582    6                          ELSE DEFER_BUFFER.MW.MF1.TAG (0) = P$ -> ETT.STATE;
     2938    19583    6                      END;
     2939    19584    5                    DEFER_BUFFER.MW.MF2.TAG (0) = 0;
PL6.E3A0      #001=Z8HI$BURST File=Z8HI.:Z8A6TSI                                 SAT 08/09/97 13:19 Page:97
     2940    19585    5                    DEFER_BUFFER.MW.MF2.AR (0) = TRUE;
     2941    19586    5                  END;
     2942    19587    4                IF NOT PR THEN
     2943    19588    4                  INST_WORD.SA = 0;
     2944    19589    4                INST_WORD.Y.AR# = POINTER_REGISTER - %PR0;
     2945    19590    4              END;
     2946    19591    3            CALL Z8HU$TAG(REF$ -> REF.SIZ_TAG$, ST$$ -> VARIABLE.B.GREATER_256K = TRUE)
             19591                     ;
     2947    19592    3            INST_WORD.ADSC.N = REF$ -> REF.SIZ_TAG$ -> ETT.STATE;
     2948    19593    3            IF DEFER_BUFFER_IDX = 1
     2949    19594    3                AND REF$ -> REF.SIZ_TAG$ -> ETT.STATE < %XR0 /* A or Q */
     2950    19595    3                AND PILL -> ETT.ID ~= %CFILL
     2951    19596    3                AND SSOP
     2952    19597    3                AND ST$$ -> VARIABLE.B.GREATER_256K THEN
     2953    19598    4              DO;
     2954    19599    4                OP_SIZ_TAG$ = REF$ -> REF.SIZ_TAG$;
     2955    19600    4                CALL Z8HU$INCCNT (OP_SIZ_TAG$, 1);
     2956    19601                     /* In this case, the compiler needs 4 arithmetic registers to
     2957    19602                        hold lengths and offsets for both descriptors. There are
     2958    19603                        only 2 available. Therefore, pointer registers need to be
     2959    19604                        assigned to combine the base PR if any and the offset, so
     2960    19605                        that arithmetic registers will be needed only for the sizes.
     2961    19606                        The values for the ROP must NOT tamper with the register
     2962    19607                        used for the length of the LOP. Temporarily increasing its
     2963    19608                        usage count should guarantee that it will be safe. */
     2964    19609    4                OP_SSOP_TAG$ = NODE$;
     2965    19610    5                DO WHILE OP_SSOP_TAG$ -> ETT.ID ~= %SSOP;
     2966    19611    5                  OP_SSOP_TAG$ = OP_SSOP_TAG$ -> ETT.LOP;
     2967    19612    5                END;
     2968    19613    4                CALL Z8HG$USE_REGISTER (OP_SSOP_TAG$, POINTER_REGISTER);
     2969    19614    4                BIG_OP_SSOP_FLAG = TRUE;
     2970    19615    4              END;
     2971    19616    3          END;
     2972    19617
     2973    19618    2          IF DEFER_BUFFER_IDX = 2 AND BIG_OP_SSOP_FLAG THEN
     2974    19619    3            DO;
     2975    19620    3              CALL Z8HU$DEC_COUNT (OP_SIZ_TAG$, 1);
PL6.E3A0      #001=Z8HI$BURST File=Z8HI.:Z8A6TSI                                 SAT 08/09/97 13:19 Page:98
     2976    19621                   /* Unlock size tag from its register */
     2977    19622    3              CALL Z8HU$DEC_COUNT (OP_SSOP_TAG$, 1);
     2978    19623                   /* Likewise, ssop tag */
     2979    19624    3              BIG_OP_SSOP_FLAG = FALSE;
     2980    19625    3            END;
     2981    19626
     2982    19627
     2983    19628
     2984    19629    2   END HANDLE_REF_OPERAND;
     2985    19630        %EJECT;
PL6.E3A0      #001=Z8HI$BURST File=Z8HI.:Z8A6TSI                                 SAT 08/09/97 13:19 Page:99
     2986    19631    1   HANDLE_CONSTANT:PROC;
     2987    19632
     2988    19633        /*I*
     2989    19634             NAME: HANDLE_CONSTANT
     2990    19635             PURPOSE:
     2991    19636                  Handle a reference to a constant in an instruction.
     2992    19637             DESCRIPTION:
     2993    19638                  Set up an instruction to reference a constant.  If
     2994    19639                  the constant can be put into the Y field of the instruction
     2995    19640                  using a DU or DL tag then do so (this is done in the
     2996    19641                  procedure IMMEDIATE).  If the constant can't be 'immediate'
     2997    19642                  then it must be materialized, i.e. it must be allocated
     2998    19643                  space in the program and referenced as if storage contained.
     2999    19644        */
     3000    19645    2        CALL IMMEDIATE;
     3001    19646
     3002    19647    3        DO CASE(INST_WORD.LOW.MF.TAG);
     3003    19648    3          CASE(%DU, %DL);
     3004    19649    3          CASE(ELSE);
     3005    19650    3            MATERIALIZED_CONSTANT = TRUE;
     3006    19651    3            INST_WORD.SA = REF$ -> REF.SA + INST_WORD.SA;
     3007    19652
     3008    19653    3            IF NOT ST$$ -> CONST.B.ALLOCATED THEN
     3009    19654    4              DO;
     3010    19655    4                ST$$ -> CONST.B.ALLOCATED = TRUE;
     3011    19656    4                ST$$ -> CONST.ALLOC_LINK = CONST$;
     3012    19657    4                CONST$ = ST$$;
     3013    19658    4              END;
     3014    19659
     3015    19660    3            IF DEFER THEN
     3016    19661    3              INST_WORD.ADSC = REF$ -> REF.ADSC;
     3017    19662    3        END /* Case */;
     3018    19663
     3019    19664    2   END HANDLE_CONSTANT;
     3020    19665        %EJECT;
PL6.E3A0      #001=Z8HI$BURST File=Z8HI.:Z8A6TSI                                 SAT 08/09/97 13:19 Page:100
     3021    19666    1   IMMEDIATE:PROC;
     3022    19667        /*I*
     3023    19668             NAME: IMMEDIATE
     3024    19669             PURPOSE:
     3025    19670                  Check to see if a constant can be referenced in an
     3026    19671                  instruction using a DU or DL tag.
     3027    19672             DESCRIPTION:
     3028    19673                  'IMMEDIACY' depends on the instruction, the length of the
     3029    19674                  constant, and the type of the constant.  Check all this
     3030    19675                  stuff and if the constant qualifies fill in the Y field of
     3031    19676                  INST_WORD and put DU or DL into tag field.
     3032    19677        */
     3033    19678
     3034    19679           %EQU UPPER = 0;
     3035    19680           %EQU LOWER = 1;
     3036    19681
     3037    19682
     3038    19683    2      IF (NOT DEFER  AND  NOT INST_WORD.LOW.EIS  AND  INST_WORD.LOW.OP_CODE ~= %ARG_OP)
     3039    19684    2      OR (INST_WORD.LOW.OP_CODE = %SCD_OP OR INST_WORD.LOW.OP_CODE = %SCM_OP) THEN
     3040    19685
     3041    19686    3          DO CASE(ST$$ -> ST.TYPE);
     3042    19687    3            CASE(%TYI);
     3043    19688
     3044    19689    3              IF ST$$ -> CONST.CONSTU.UPPER = BITBIN('777777'O) THEN
     3045    19690    4                DO CASE(INST_WORD.LOW.OP_CODE);
     3046    19691    4                  CASE(%LDA_OP);
     3047    19692    4                    INST_WORD.LOW.OP_CODE = %LCA_OP;
     3048    19693    4                    INST_WORD.SA = - (ST$$ -> CONST.CONSTS.LOWER);
     3049    19694    4                    INST_WORD.LOW.MF.TAG = %DL;
     3050    19695    4                  CASE(%LDQ_OP);
     3051    19696    4                    INST_WORD.LOW.OP_CODE = %LCQ_OP;
     3052    19697    4                    INST_WORD.SA = - (ST$$ -> CONST.CONSTS.LOWER);
     3053    19698    4                    INST_WORD.LOW.MF.TAG = %DL;
     3054    19699    4                  CASE(ELSE);
     3055    19700    5                    DO CASE(INST_WORD.LOW.CODE.OP);
     3056    19701    5                      CASE(%LXL_OP);
     3057    19702    5                        CALL APPLY_TAG(%LOWER, %DL);
PL6.E3A0      #001=Z8HI$BURST File=Z8HI.:Z8A6TSI                                 SAT 08/09/97 13:19 Page:101
     3058    19703    5                      CASE(%ADLX_OP, %ASX_OP , %ADX_OP ,
     3059    19704    5                           %CMPX_OP, %SBLX_OP, %SSX_OP ,
     3060    19705    5                           %SBX_OP , %CNAX_OP, %LDX_OP ,
     3061    19706    5                           %ORSX_OP, %ORX_OP , %CANX_OP,
     3062    19707    5                           %LCX_OP , %ANSX_OP, %ANX_OP ,
     3063    19708    5                           %ERSX_OP, %ERX_OP );
     3064    19709    5                         CALL APPLY_TAG(%LOWER, %DU);
     3065    19710    5                    END /* Case */;
     3066    19711    4                END /* Case */;
     3067    19712    3              ELSE
     3068    19713    3                IF ST$$ -> CONST.CONSTU.UPPER = 0 THEN
     3069    19714    4                  DO CASE(INST_WORD.LOW.CODE.OP);
     3070    19715    4                    CASE(%LXL_OP);
     3071    19716    4                      CALL APPLY_TAG(%LOWER, %DL);
     3072    19717    4                    CASE(%ADLX_OP, %ASX_OP , %ADX_OP ,
     3073    19718    4                         %CMPX_OP, %SBLX_OP, %SSX_OP ,
     3074    19719    4                         %SBX_OP , %CNAX_OP, %LDX_OP ,
     3075    19720    4                         %ORSX_OP, %ORX_OP , %CANX_OP,
     3076    19721    4                         %LCX_OP , %ANSX_OP, %ANX_OP ,
     3077    19722    4                         %ERSX_OP, %ERX_OP );
     3078    19723    4                      CALL APPLY_TAG(%LOWER, %DU);
     3079    19724    4                    CASE(ELSE);
     3080    19725    4                      CALL APPLY_TAG(%LOWER, %DL);
     3081    19726    4                  END /* Case */;
     3082    19727    3                ELSE
     3083    19728    3                  IF ST$$ -> CONST.CONSTU.LOWER = 0 THEN
     3084    19729    3                    CALL APPLY_TAG(%UPPER, %DU);
     3085    19730
     3086    19731    3            CASE(%TYA);
     3087    19732    3              IF INST_WORD.LOW.EIS THEN
     3088    19733    4                DO;
     3089    19734    4                  IF DEFER_BUFFER_IDX = 2 THEN   /* Only MF2 can have DU */
     3090    19735    5                    DO CASE(INST_WORD.LOW.OP_CODE);
     3091    19736    5                      CASE(%SCM_OP);
     3092    19737    5                        IF REF$ -> REF.ADSC.N = 1 THEN
     3093    19738    5                          CALL APPLY_TAG(%UPPER, %DU);
     3094    19739
PL6.E3A0      #001=Z8HI$BURST File=Z8HI.:Z8A6TSI                                 SAT 08/09/97 13:19 Page:102
     3095    19740    5                      CASE(%SCD_OP);
     3096    19741    5                        IF REF$ -> REF.ADSC.N = 2 THEN
     3097    19742    5                          CALL APPLY_TAG(%UPPER, %DU);
     3098    19743
     3099    19744    5                    END /* Case */;
     3100    19745    4                END;
     3101    19746    3              ELSE
     3102    19747    3                IF REF$ -> REF.ADSC.N < 3
     3103    19748    3                  AND NOT ST$$ -> CONST.B.LONG_CONSTANT THEN
     3104    19749    3                  IF REF$ -> REF.ADSC.CN = 0 OR
     3105    19750    3                     (REF$ -> REF.ADSC.CN = 1 AND REF$ -> REF.ADSC.N = 1) THEN
     3106    19751    3                    CALL APPLY_TAG(%UPPER, %DU);
     3107    19752    3                  ELSE
     3108    19753    3                    IF REF$ -> REF.ADSC.CN = 2 OR
     3109    19754    3                       (REF$ -> REF.ADSC.CN = 3 AND REF$ -> REF.ADSC.N = 1) THEN
     3110    19755    3                      CALL APPLY_TAG(%LOWER, %DL);
     3111    19756
     3112    19757    3            CASE(%TYR);
     3113    19758    3              IF ST$$ -> CONST.CONSTU.LOWER = 0 THEN
     3114    19759    3                CALL APPLY_TAG(%UPPER, %DU);
     3115    19760
     3116    19761    3          END /* Case */;
     3117    19762
     3118    19763    2        RETURN;
     3119    19764
     3120    19765    2   APPLY_TAG:PROC(FROM,TAG);
     3121    19766
     3122    19767    3        DCL FROM UBIN WORD;
     3123    19768    3        DCL TAG  UBIN WORD;
     3124    19769
     3125    19770    3        INST_WORD.LOW.MF.TAG = TAG;
     3126    19771
     3127    19772    4        DO CASE(FROM);
     3128    19773    4          CASE(%UPPER);
     3129    19774    4            INST_WORD.SA = ST$$ -> CONST.CONSTU.UPPER;
     3130    19775    4          CASE(%LOWER);
     3131    19776    4            INST_WORD.SA = ST$$ -> CONST.CONSTU.LOWER;
PL6.E3A0      #001=Z8HI$BURST File=Z8HI.:Z8A6TSI                                 SAT 08/09/97 13:19 Page:103
     3132    19777    4        END /* Case */;
     3133    19778
     3134    19779    3   END APPLY_TAG;
     3135    19780    2   END IMMEDIATE;
     3136    19781    1   END Z8HI$BURST;

PL6.E3A0      #001=Z8HI$BURST File=Z8HI.:Z8A6TSI                                 SAT 08/09/97 13:19 Page:104
--  Include file information  --

   Z8H_OPCODES.:Z8A6TOU  is referenced.
   Z8A_ERR_NUMS.:Z8A6TOU  is referenced.
   Z8A_DNT.:Z8A6TOU  cannot be made into a system file and is referenced.
   Z8A_LTS.:Z8A6TOU  cannot be made into a system file and is referenced.
   Z8A_OBJ.:Z8A6TOU  cannot be made into a system file and is referenced.
   Z8A_ST.:Z8A6TOU  cannot be made into a system file and is referenced.
   Z8A_TYPES.:Z8A6TOU  is referenced.
   Z8A_ILL.:Z8A6TOU  cannot be made into a system file and is referenced.
   Z8A_ETT.:Z8A6TOU  cannot be made into a system file and is referenced.
   Z8A_DESC.:Z8A6TOU  cannot be made into a system file and is referenced.
   Z8H_PASSES.:Z8A6TOU  is referenced.
   Z8H_DEP.:Z8A6TOU  cannot be made into a system file and is referenced.
   Z8H_EXT.:Z8A6TOU  cannot be made into a system file and is referenced.
   Z8A_COMCOM.:Z8A6TOU  cannot be made into a system file and is referenced.
   Z8A_LIBRARY.:Z8A6TOU  cannot be made into a system file and is referenced.
   Z8H_MOAS.:Z8A6TOU  is referenced.
   Z9A_SUPP_MAC.:Z8A6TOU  is referenced.
   Z8H_SUPPORT.:Z8A6TOU  is referenced.
   Z9A_FLAGS.:Z8A6TOU  is referenced.
   X8A_COM_MACS.:X8A6TOU  is referenced.
   Z8A_NAMES.:Z8A6TOU  is referenced.
   Z8A_SUPP_MAC.:Z8A6TOU  is referenced.
   Z8H_CODE.:Z8A6TOU  cannot be made into a system file and is referenced.
   Z8H_TEMP.:Z8A6TOU  is referenced.
   Z8H_PCOM.:Z8A6TOU  cannot be made into a system file and is referenced.
   Z8H_RAT.:Z8A6TOU  cannot be made into a system file and is referenced.
   Z8H_DIRECT.:Z8A6TOU  is referenced.
   Z8A_DEFC.:Z8A6TOU  cannot be made into a system file and is referenced.
      No diagnostics issued in procedure Z8HI$BURST.

   Procedure Z8HI$BURST requires 8839 words for executable code.
   Procedure Z8HI$BURST requires 188 words of local(AUTO) storage.
PL6.E3A0      #001=Z8HI$BURST File=Z8HI.:Z8A6TSI                                 SAT 08/09/97 13:19 Page:105

    No errors detected in file Z8HI.:Z8A6TSI    .

PL6.E3A0      #001=Z8HI$BURST File=Z8HI.:Z8A6TSI                                 SAT 08/09/97 13:19 Page:106

 Object Unit name= Z8HI$BURST                                 File name= Z8HI.:Z8A6TOU
 UTS= AUG 09 '97 13:19:08.72 SAT                              Compiler= PL-6/E31         Sev=      00
 SharedLib= :SHARED_SYSTEM                                    Alt SharedLib=


    ****  Control sections  ****

 Sect   Type Bound  Init  Size OctSiz  Section name(segment info)
    0  LblCom even  none     1      1  ITERATION
    1  LblCom even  none   112    160  RAT
    2  LblCom even  none     1      1  SUPP_DATA
    3   Data  even  none  1524   2764  Z8HI$BURST
    4  LblCom even  none     1      1  CURRENT_BLOCK$
    5  LblCom even  none     1      1  ROOT_PROC_BLOCK$
    6  LblCom even  none     1      1  NUMBER_OF_PRIMES
    7  LblCom even  none     1      1  NUMBER_OF_TEMPS
    8  LblCom even  none     1      1  NUMBER_OF_REFS
    9  LblCom even  none     1      1  GENERATING_PTRS
   10  LblCom even  none     1      1  USE_PROC_RETURN
   11  LblCom even  none     1      1  CURRENT_SCOPE$
   12  LblCom even  none     1      1  HEAD_REF$
   13  LblCom even  none     1      1  HEAD_TEMP$
   14  LblCom even  none     1      1  CONST$
   15  LblCom even  none     1      1  HEAD_PRIMES$
   16  LblCom even  none     1      1  CUR_LOOP_LEVEL
   17  LblCom even  none     2      2  PEPD
   18  LblCom even  none    48     60  DEP
   19  LblCom even  none     1      1  ETT$
   20  LblCom even  none     1      1  HEAD_ETT$
   21  LblCom even  none   512   1000  ETT_BUCKETS
   22  LblCom even  none     5      5  ETT_
   23  LblCom even  none     1      1  ILL$
   24  LblCom even  none     5      5  ILL_
   25  LblCom even  none     1      1  ST$
   26  LblCom even  none     5      5  ST_
   27  LblCom even  none     1      1  OBJ$
   28  LblCom even  none     1      1  PAGING_OBJ
PL6.E3A0      #001=Z8HI$BURST File=Z8HI.:Z8A6TSI                                 SAT 08/09/97 13:19 Page:107
   29  LblCom even  none     1      1  OBJ_PAGE_COUNT
   30  LblCom even  none     1      1  OBJ_FINISHED
   31  LblCom even  none     1      1  OBJ_SEG_SIZE
   32  LblCom even  none     1      1  OBJ_TOP_NEW_SEG
   33  LblCom even  none     1      1  OBJ_LAST_REGULAR_PAGE
   34  LblCom even  none     5      5  OBJ_
   35  LblCom even  none     1      1  LTS$
   36  LblCom even  none     5      5  LTS_
   37  LblCom even  none     1      1  DNT$
   38  LblCom even  none     5      5  DNT_
   39  LblCom even  none     1      1  DNT_BUCKET_NUMBER
   40  LblCom even  none     1      1  DNT_OF_1$
   41  LblCom even  none     2      2  PSI2
   42  RoData even  UTS    446    676  Z8HI$BURST
   43  LblCom even  none     4      4  MVPP
   44   Proc  even  none  8839  21207  Z8HI$BURST
   45  RoData even  none    66    102  Z8HI$BURST

    ****  Entry defs  ****

                              Check   Calling
                             calling  sequence
  Sect OctLoc Primary Altret sequence   type   Parms  Name
    44      0   yes            yes      Std        2  Z8HI$BURST
PL6.E3A0      #001=Z8HI$BURST File=Z8HI.:Z8A6TSI                                 SAT 08/09/97 13:19 Page:108

  ****  Entry refs  ****

         Check        Calling
        calling       sequence
Altret sequence SRef   type   Args  Name
         yes           Std      12 Z8AE$ERROR
         yes           Std       1 Z8HU$POOL_PRIME
         yes           Std       0 Z8HG$FREE_ALL_REGISTERS
         yes           Std       3 Z8HC$SPECIAL_CASES
         yes           Std       0 Z9AT$TERMINATOR
         yes           Std       1 Z8HU$WALK
 yes     yes           Std       3 Z8HG$CHOOSE_REGISTER
         yes           Std       2 Z8HU$DEC_COUNT
         yes           Std       2 Z8AU$TYPE_DESCRIPTOR
         yes           Std       1 Z8AR$RESERVER
         yes           Std       2 Z8HU$INCCNT
         yes           Std       1 Z9HF$WRITE_OBJ_PAGE
         yes           Std       0 Z9HF$GET_OBJ_PAGE
 yes     yes           Std       1 Z8HG$SAVE
         yes           Std       1 Z8HG$FREE_REGISTER
         yes           Std       4 Z8HU$ALLOT_TEMP
         yes           Std       2 Z8AT$CREATE_TEMPORARY
         yes           Std       2 Z8HG$USE_REGISTER
         yes           Std       1 Z8HU$POOL
         yes           Std       3 Z9AU$OFFSET
         yes           Std       2 Z8HU$TAG
                       nStd      0 X66_AUTO_2
                       nStd      0 X66_ARET

  ****  Data refs  ****

  Flags:  r = read only, s = secondary
Flgs Name                             Flgs Name                             Flgs Name
     COMCOM                           r    ILL_STEP                         r    OBJ_STEP
r    LTS_STEP                         r    PSI1                             r    PSD
PL6.E3A0      #001=Z8HI$BURST File=Z8HI.:Z8A6TSI                                 SAT 08/09/97 13:19 Page:109

  ****  Segment refs  ****

  Flags:  r = read only, s = secondary
Flgs Name                             Flgs Name                             Flgs Name
     NULLSID                               ISSID
PL6.E3A0      #001=Z8HI$BURST File=Z8HI.:Z8A6TSI                                 SAT 08/09/97 13:19 Page:110


        1        1        /*M* Z8HI$BURST -- Code Generator interpretation loop                  */
        2        2        /*T***********************************************************/
        3        3        /*T*                                                         */
        4        4        /*T* Copyright (c) Bull HN Information Systems Inc., 1997    */
        5        5        /*T*                                                         */
        6        6        /*T***********************************************************/
        7        7        Z8HI$BURST: PROC(PILL,DESCRIPTOR);

      7 44 000000   000000 700200 xent  Z8HI$BURST   TSX0  ! X66_AUTO_2
        44 000001   000274 000002                    ZERO    188,2

        8        8
        9        9        /*P*
       10       10
       11       11               NAME: Z8HI$BURST
       12       12            PURPOSE: To interpret PSEUDO-CODE.
       13       13
       14       14
       15       15        */
       16       16        /*D*
       17       17
       18       18               NAME: Z8HI$BURST
       19       19               CALL: CALL Z8HI$BURST(=PILL,=DESCRIPTOR);
       20       20              INPUT: PILL
       21       21                       Points to a triad that should be associated with this
       22       22                       interpretation burst.
       23       23                     DESCRIPTOR
       24       24                       A pseudo-code entry point descriptor word (PEPD) that
       25       25                       describes the pseudo-code module and offset within
       26       26                       that module where interpretation is to begin.
       27       27                       The tree above the current can possess an ideal register
       28       28                       evaluation state.  It passes that information down into
       29       29                       this recursion via this variable.
       30       30               DATA: Most of the data that is used by this module is
       31       31                     yanked in via the PL6 include facility.
       32       32
PL6.E3A0      #001=Z8HI$BURST File=Z8HI.:Z8A6TSI                                 SAT 08/09/97 13:19 Page:111
       33       33          REFERENCE: Module Z8HD$DOCUMENT, name METHOD, type F.
       34       34
       35       35
       36       36        */
       37       37
       38       38    1        DCL PILL PTR;
       39       39
       40       40    1        DCL 1 DESCRIPTOR ALIGNED,
       41       41    1               2 OFFSET UBIN HALF UNAL,
       42       42    1               2 IDEAL UBIN(9) UNAL,
       43       43    1               2 MODULE UBIN(9) UNAL;
       44       44
       45       45
       46       46        %SET PHASE = 4;
       47       47        %INCLUDE Z8A_DEFC;
       48      115        %INCLUDE Z8H_DIRECT;
       49      209        %INCLUDE Z8H_RAT;
       50      300        %INCLUDE Z8H_PCOM;
       51      449        %INCLUDE Z8H_TEMP;
       52      497        %INCLUDE Z8H_CODE;
       53      627        %INCLUDE Z8A_SUPP_MAC;
       54     3027        %INCLUDE Z9A_FLAGS;
       55     3041        %INCLUDE Z8H_SUPPORT;
       56     3489        %INCLUDE Z9A_SUPP_MAC;
       57     3778        %INCLUDE Z8H_MOAS;
       58     3827        %INCLUDE Z8A_LIBRARY;
       59     4041        %INCLUDE Z8A_COMCOM;
       60     4691        %INCLUDE Z8H_EXT;
       61     4742        %INCLUDE Z8H_DEP;
       62     4849        %INCLUDE Z8H_PASSES;
       63     4861        %INCLUDE Z8A_DESC;
       64     4907
       65     4908        %INCLUDE Z8A_ETT;
       66     5209        %INCLUDE Z8A_ILL;
       67     5902        %INCLUDE Z8A_TYPES;
       68     6076        %INCLUDE Z8A_ST;
       69     9735        %INCLUDE Z8A_OBJ;
PL6.E3A0      #001=Z8HI$BURST File=Z8HI.:Z8A6TSI                                 SAT 08/09/97 13:19 Page:112
       70    10232        %INCLUDE Z8A_LTS;
       71    12309        %INCLUDE Z8A_DNT;
       72    12530        %INCLUDE Z8A_ERR_NUMS;
       73    13294        %INCLUDE Z8H_OPCODES;
       74    13797        %EJECT;
PL6.E3A0      #001=Z8HI$BURST File=Z8HI.:Z8A6TSI                                 SAT 08/09/97 13:19 Page:113
       75    13798    1        DCL 1 PC DALIGNED AUTO,
       76    13799    1               2 ACTION UBIN HALF UNAL,
       77    13800    1               2 OPND1 UBIN HALF UNAL,
       78    13801    1               2 OPND2 UBIN HALF UNAL,
       79    13802    1               2 OPND3 UBIN HALF UNAL;
       80    13803
       81    13804    1        DCL 1 PCS REDEF PC,
       82    13805    1               2 ACTION UBIN HALF UNAL,
       83    13806    1               2 OPND1 SBIN HALF UNAL,
       84    13807    1               2 OPND2 SBIN HALF UNAL,
       85    13808    1               2 OPND3 SBIN HALF UNAL;
       86    13809
       87    13810    1        DCL 1 PCB REDEF PC,
       88    13811    1               2 * BIT(36) UNAL,
       89    13812    1               2 INST BIT(36) UNAL;
       90    13813
       91    13814    1        DCL 1 PCC REDEF PC,
       92    13815    1               2 ACTION UBIN HALF UNAL,
       93    13816    1               2 CODE1 UBIN(6) UNAL,
       94    13817    1               2 CODE2 UBIN(7) UNAL,
       95    13818    1               2 CODE3 UBIN(5) UNAL,
       96    13819    1               2 CONST UBIN WORD UNAL,
       97    13820    1               2 WORD2 REDEF CONST,
       98    13821    1                  3 CODE4 UBIN(9) UNAL,
       99    13822    1                  3 CODE5 UBIN(9) UNAL,
      100    13823    1                  3 CODE6 UBIN HALF UNAL;
      101    13824
      102    13825    1        DCL 1 PCCS REDEF PC,
      103    13826    1               2 ACTION UBIN HALF UNAL,
      104    13827    1               2 CODE1 SBIN(6) UNAL,
      105    13828    1               2 CODE2 SBIN(7) UNAL,
      106    13829    1               2 CODE3 SBIN(5) UNAL,
      107    13830    1               2 CONST SBIN WORD UNAL,
      108    13831    1               2 WORD2 REDEF CONST,
      109    13832    1                  3 CODE4 SBIN(9) UNAL,
      110    13833    1                  3 CODE5 SBIN(9) UNAL,
      111    13834    1                  3 CODE6 SBIN HALF UNAL;
PL6.E3A0      #001=Z8HI$BURST File=Z8HI.:Z8A6TSI                                 SAT 08/09/97 13:19 Page:114
      112    13835
      113    13836
      114    13837    1        DCL 1 PCM REDEF PC,
      115    13838    1               2 FIRST_WORD BIT(36) UNAL,
      116    13839    1               2 SECOND_WORD BIT(36) UNAL;
      117    13840
      118    13841    1        DCL 1 BASE ALIGNED BASED,
      119    13842    1               2 FIRST_WORD BIT(36) UNAL,
      120    13843    1               2 SECOND_WORD BIT(36) UNAL;
      121    13844
      122    13845    1        DCL PSI1 (0:1) UBIN SYMREF READONLY;
      123    13846    1        DCL PSI2 UBIN DALIGNED EXT;
      124    13847    1        DCL PSD  (0:1) UBIN SYMREF READONLY;
      125    13848
      126    13849    1        DCL PSEUDO_CODE_MODULE(0:3) PTR CONSTANT INIT(
      127    13850    1                ADDR(NIL) ,
      128    13851    1                ADDR(PSI1),
      129    13852    1                ADDR(PSI2),
      130    13853    1                ADDR(PSD));
      131    13854
      132    13855
      133    13856    1        DCL IC PTR;     /* PSEUDO_CODE INTERPRETER'S INSTR. COUNTER */
      134    13857        %EJECT;
PL6.E3A0      #001=Z8HI$BURST File=Z8HI.:Z8A6TSI                                 SAT 08/09/97 13:19 Page:115
      135    13858    1        DCL Z9AU$OFFSET          ENTRY(3);
      136    13859    1        DCL Z8AU$TYPE_DESCRIPTOR ENTRY(2);
      137    13860    1        DCL Z8HU$WALK            ENTRY(1);
      138    13861    1        DCL Z8HC$SPECIAL_CASES   ENTRY(3);
      139    13862    1        DCL Z8HU$CREATE_CONST    ENTRY(3);
      140    13863    1        DCL Z8HU$ALLOT_TEMP      ENTRY(4);
      141    13864    1        DCL Z8HU$INCCNT          ENTRY(2);
      142    13865    1        DCL Z8HU$DEC_COUNT       ENTRY(2);
      143    13866    1        DCL Z8HG$CHOOSE_REGISTER ENTRY(3) ALTRET;
      144    13867    1        DCL Z8HU$POOL            ENTRY(1);
      145    13868    1        DCL Z8HU$POOL_PRIME      ENTRY(1);
      146    13869    1        DCL Z8HG$FREE_REGISTER   ENTRY(1);
      147    13870    1        DCL Z8HG$FREE_ALL_REGISTERS ENTRY;
      148    13871    1        DCL Z8HG$USE_REGISTER    ENTRY(2);
      149    13872    1        DCL Z8HG$SAVE            ENTRY(1) ALTRET;
      150    13873    1        DCL Z8AE$ERROR           ENTRY(12);
      151    13874    1        DCL Z9AT$TERMINATOR      ENTRY;
      152    13875    1        DCL Z8AT$CREATE_TEMPORARY ENTRY(2);
      153    13876    1        DCL Z8HU$TAG             ENTRY(2);
      154    13877
      155    13878
      156    13879    1        DCL OPND             PTR;
      157    13880    1        DCL SAVE_OPND        PTR;
      158    13881    1        DCL POINTER_REGISTER SBIN WORD;
      159    13882    1        DCL LOP_STATE        UBIN WORD STATIC;
      160    13883    1        DCL ROP_STATE        UBIN WORD STATIC;
      161    13884    1        DCL LO               SBIN WORD STATIC;
      162    13885    1        DCL HI               SBIN WORD STATIC;
      163    13886    1        DCL REGISTER         SBIN WORD;
      164    13887    1        DCL LAST_FREED_AR    SBIN WORD;
      165    13888    1        DCL LAST_FREED_XR    SBIN WORD;
      166    13889    1        DCL LAST_FREED_PR    SBIN WORD;
      167    13890
      168    13891    1        DCL P SBIN WORD;
      169    13892    1        DCL Q SBIN WORD;
      170    13893    1        DCL R SBIN WORD;
      171    13894    1        DCL S SBIN WORD;
PL6.E3A0      #001=Z8HI$BURST File=Z8HI.:Z8A6TSI                                 SAT 08/09/97 13:19 Page:116
      172    13895
      173    13896    1        DCL CODE   SBIN WORD;
      174    13897    1        DCL OFFSET SBIN WORD;
      175    13898
      176    13899    1        DCL FORMAT    SBIN WORD;
      177    13900    1        DCL BOUNDARY  SBIN WORD;
      178    13901    1        DCL FRESHNESS SBIN WORD;
      179    13902
      180    13903    1        DCL LIB_SELECTION UBIN HALF;
      181    13904    1        DCL LIBRARY(0:%(LIBRARY_SIZE - 1)) PTR STATIC INIT(
      182    13905    1                                    ADDR(NIL) * %LIBRARY_SIZE);
      183    13906
      184    13907    1        DCL 1 MF    ALIGNED,
      185    13908    1              2 AR     BOOLEAN,
      186    13909    1              2 RL     BOOLEAN,
      187    13910    1              2 IND    BOOLEAN,
      188    13911    1              2 TAG    UBIN(4) UNAL;
      189    13912
      190    13913    1        DCL STORAGE_TARGET BOOLEAN;
      191    13914
      192    13915    1        DCL SSOP          BOOLEAN;
      193    13916    1        DCL ZERO_CN       BOOLEAN;
      194    13917    1        DCL ZERO_SA       BOOLEAN;
      195    13918    1        DCL IN_WORD_UNITS BOOLEAN;
      196    13919    1        DCL ARGP_TYPE     BOOLEAN;
      197    13920    1        DCL BIG_OP_SSOP_FLAG BOOLEAN;
      198    13921    1        DCL OP_SIZ_TAG$   PTR;
      199    13922    1        DCL OP_SSOP_TAG$  PTR;
      200    13923    1        DCL 1 SAVED_INST_WORD,
      201    13924    1              2 Y,
      202    13925    1                3 AR# UBIN(3) UNAL,
      203    13926    1                3 *   UBIN(15) UNAL,
      204    13927    1              2 *     BIT(18);
      205    13928    1        DCL SAVE_TAG      SBIN WORD;
      206    13929    1        DCL AXBD          SBIN WORD;
      207    13930
      208    13931    1        DCL 1 TYPE_DESC ALIGNED,
PL6.E3A0      #001=Z8HI$BURST File=Z8HI.:Z8A6TSI                                 SAT 08/09/97 13:19 Page:117
      209    13932                   %TYPE_DESC;
      210    13966
      211    13967    1        DCL LOP_PTR       PTR;
      212    13968    1        DCL ROP_PTR       PTR;
      213    13969    1        DCL STATE         UBIN WORD STATIC;
      214    13970    1        DCL CONST_VALUES(0:1) SBIN WORD STATIC;
      215    13971    1        DCL MATERIALIZED_CONSTANT BOOLEAN STATIC INIT(FALSE);
      216    13972    1        DCL MAPT_VALID_COUNT SBIN WORD;
      217    13973    1        DCL MAPT_WORD     BIT(36) AUTO;
      218    13974    1        DCL CASE_PASS     SBIN WORD AUTO;
      219    13975    1        DCL ALLOTD_PASS   SBIN WORD AUTO;
      220    13976    1        DCL I             SBIN WORD AUTO;
      221    13977    1        DCL J             SBIN WORD AUTO;
      222    13978    1        DCL ABSOLUTE      SBIN WORD;
      223    13979    1        DCL P$      PTR;
      224    13980    1        DCL P3$     PTR;
      225    13981    1        DCL NODE$   PTR;
      226    13982    1        DCL REF$    PTR;
      227    13983    1        DCL REF_ST$ PTR;
      228    13984    1        DCL ST$$    PTR;
      229    13985    1        DCL ETT$$   PTR;
      230    13986    1        DCL DNT$$   PTR;
      231    13987    1        DCL LTS$$   PTR;
      232    13988    1        DCL OFF$    PTR;
      233    13989
      234    13990    1        DCL 1 MVPP EXT,
      235    13991    1              2 STAR$      PTR,
      236    13992    1              2 ACTION#    SBIN WORD,
      237    13993    1              2 LOP_ARGP$  PTR,
      238    13994    1              2 ROP_ARGP$  PTR;
      239    13995
      240    13996    1        DCL     KANJI_FILL  BOOLEAN ;
      241    13997
      242    13998    1        DCL 1   KANJI       ALIGNED STATIC,
      243    13999    1             2  EIS         ALIGNED,
      244    14000    1              3 FILL        BIT (9) UNAL INIT ('241'O),
      245    14001    1              3 *           UBIN (27) UNAL INIT (0),
PL6.E3A0      #001=Z8HI$BURST File=Z8HI.:Z8A6TSI                                 SAT 08/09/97 13:19 Page:118
      246    14002    1             2  FILL_SBIN   REDEF EIS SBIN WORD ;
      247    14003
      248    14004    1        DCL 1 OFF_SET(0:20) ALIGNED BASED,
      249    14005    1               2 POINTER PTR,
      250    14006    1               2 CONSTS REDEF POINTER SBIN WORD,
      251    14007    1               2 CONSTI REDEF POINTER UBIN WORD;
      252    14008
      253    14009    1        DCL GBCD_POS (0:5) BIT (36) CONSTANT INIT
      254    14010    1            ('000000000000'O, '000000060000'O, '000000230000'O,
      255    14011    1             '000000400000'O, '000000460000'O, '000000630000'O);
      256    14012    1        DCL 1 GBCD_POS1 (0:5) REDEF GBCD_POS,
      257    14013    1              2 * BIT (18),
      258    14014    1              2 BDSC BIT (18);
      259    14015    1        DCL T96_CN (0:3) UBIN CONSTANT INIT (0, 2, 3, 5);
      260    14016             /* For converting ADSC9 CN field to ADSC6 CN field */
      261    14017
      262    14018    1        DCL SUB_STACK(0:20) STATIC PTR;
      263    14019    1        DCL SUB_IDX SBIN WORD STATIC INIT(0);
      264    14020
      265    14021    1        DCL DSTATE_TYH(0:15) SBIN WORD CONSTANT INIT(
      266    14022    1                    00 * 04     /* FILLER */,
      267    14023    1                    04 * 01     /* ST     */,
      268    14024    1                    01 * 01     /* A      */,
      269    14025    1                    02 * 01     /* Q      */,
      270    14026    1                    00 * 01     /* FILLER */,
      271    14027    1                    03 * 08     /* XRn  */);
      272    14028
      273    14029    1        DCL DSTATE_TYI(0:15) SBIN WORD CONSTANT INIT(
      274    14030
      275    14031    1                    00 * 04     /* FILLER */,
      276    14032    1                    04 * 01     /* ST     */,
      277    14033    1                    01 * 01     /* ARA    */,
      278    14034    1                    02 * 01     /* ARQ    */,
      279    14035    1                    00 * 01     /* FILLER */,
      280    14036    1                    03 * 08     /* XRn    */);
      281    14037
      282    14038    1        DCL DSTATE_TYR(0:17) SBIN WORD CONSTANT INIT(
PL6.E3A0      #001=Z8HI$BURST File=Z8HI.:Z8A6TSI                                 SAT 08/09/97 13:19 Page:119
      283    14039
      284    14040    1                    00 * 04    /* FILLER */,
      285    14041    1                    02 * 01    /* ST     */,
      286    14042    1                    00 * 12    /* FILLER */,
      287    14043    1                    01 * 01    /* EA     */);
      288    14044
      289    14045    1        DCL DSTATE_TYQ(0:18) SBIN WORD CONSTANT INIT(
      290    14046
      291    14047    1                    00 * 04    /* FILLER */,
      292    14048    1                    02 * 01    /* ST     */,
      293    14049    1                    00 * 13    /* FILLER */,
      294    14050    1                    01 * 01    /* EAQ    */);
      295    14051
      296    14052    1        DCL DSTATE_IND(0:6) SBIN WORD CONSTANT INIT(
      297    14053
      298    14054    1                    00 * 03   /* FILLER */,
      299    14055    1                    01 * 01   /* IND    */,
      300    14056    1                    03 * 01   /* ST     */,
      301    14057    1                    01 * 02   /* IND FOR ARA AND ARQ */);
      302    14058
      303    14059    1        DCL DSTATE_TYP(0:27) SBIN WORD CONSTANT INIT(
      304    14060
      305    14061    1                    00 * 04   /* FILLER */,
      306    14062    1                    04 * 01   /* ST     */,
      307    14063    1                    01 * 01   /* ARA    */,
      308    14064    1                    02 * 01   /* ARQ    */,
      309    14065    1                    00 * 01   /* FILER  */,
      310    14066    1                    03 * 08   /* XRn    */,
      311    14067    1                    00 * 04   /* FILLER */,
      312    14068    1                    05 * 08   /* PRn    */ );
      313    14069        %EQU SINGLE_FLOAT_ZERO = '400000000000'O;
      314    14070        %EQU DOUBLE_FLOAT_ZERO = 276824064;
      315    14071        %EQU ZERO = 0;
      316    14072        %EJECT;
PL6.E3A0      #001=Z8HI$BURST File=Z8HI.:Z8A6TSI                                 SAT 08/09/97 13:19 Page:120
      317    14073        /*V*
      318    14074
      319    14075             INITIALIZE AUTOMATIC VARIABLES AND SET STARTING IC POINT.
      320    14076
      321    14077        */
      322    14078
      323    14079    1        DEFER = FALSE;

  14079 44 000002   200123 450100                    STZ     DEFER,,AUTO

      324    14080    1        BIG_OP_SSOP_FLAG = FALSE;

  14080 44 000003   200203 450100                    STZ     BIG_OP_SSOP_FLAG,,AUTO

      325    14081    1        CASE_PASS = 0;

  14081 44 000004   200221 450100                    STZ     CASE_PASS,,AUTO

      326    14082    1        ALLOTD_PASS = 0;

  14082 44 000005   200222 450100                    STZ     ALLOTD_PASS,,AUTO

      327    14083    1        DEFER_BUFFER_IDX = 0;

  14083 44 000006   200122 450100                    STZ     DEFER_BUFFER_IDX,,AUTO

      328    14084    1        MAPT_WORD = '0'O;

  14084 44 000007   200220 450100                    STZ     MAPT_WORD,,AUTO

      329    14085    1        AORQ = FALSE;

  14085 44 000010   200010 450100                    STZ     AORQ,,AUTO

      330    14086    1        PCOM.GABS = 0;

  14086 44 000011   200017 450100                    STZ     PCOM+6,,AUTO
PL6.E3A0      #001=Z8HI$BURST File=Z8HI.:Z8A6TSI                                 SAT 08/09/97 13:19 Page:121

      331    14087    1        MAPT_VALID_COUNT = 0;

  14087 44 000012   200217 450100                    STZ     MAPT_VALID_COUNT,,AUTO

      332    14088
      333    14089
      334    14090
      335    14091        /* Compute the pseudo Instruction Counter from the PEPD descriptor
      336    14092           passed.
      337    14093        */
      338    14094
      339    14095    1        IC = PINCRW(PSEUDO_CODE_MODULE(DESCRIPTOR.MODULE),DESCRIPTOR.OFFSET);

  14095 44 000013   200004 470500                    LDP0    @DESCRIPTOR,,AUTO
        44 000014   000000 720100                    LXL0    0,,PR0
        44 000015   000777 360003                    ANX0    511,DU
        44 000016   000000 221100                    LDX1    0,,PR0
        44 000017   000000 471410 42                 LDP1    PSEUDO_CODE_MODULE,X0
        44 000020   100000 633511                    EPPR3   0,X1,PR1
        44 000021   200152 453500                    STP3    IC,,AUTO

      340    14096
      341    14097        /*
      342    14098
      343    14099                                   LOOP
      344    14100
      345    14101           THIS BEGINS THE INTERPRETATION LOOP.  THE ONLY WAY OUT
      346    14102           OF THE LOOP IS VIA A QUIT DIRECTIVE (ACTION %QUIT).
      347    14103
      348    14104        */
      349    14105    1   LOOP:
      350    14106    2        DO FOREVER;

  14106 44 000022                       LOOP         null
      351    14107    2          PCM.FIRST_WORD = IC -> BASE.FIRST_WORD;

PL6.E3A0      #001=Z8HI$BURST File=Z8HI.:Z8A6TSI                                 SAT 08/09/97 13:19 Page:122
  14107 44 000022   200152 470500                    LDP0    IC,,AUTO
        44 000023   000000 236100                    LDQ     0,,PR0
        44 000024   200150 756100                    STQ     PC,,AUTO

      352    14108    2          PCM.SECOND_WORD = IC -> BASE.SECOND_WORD;

  14108 44 000025   000001 236100                    LDQ     1,,PR0
        44 000026   200151 756100                    STQ     PC+1,,AUTO

      353    14109
      354    14110        %EJECT;
PL6.E3A0      #001=Z8HI$BURST File=Z8HI.:Z8A6TSI                                 SAT 08/09/97 13:19 Page:123
      355    14111        /*V*
      356    14112
      357    14113                                 SUPPORT_ACTIONS
      358    14114
      359    14115
      360    14116               The following actions in one way or another, alter the
      361    14117             sequence of pseudo_code interpretation.  These actions are
      362    14118             the only ones that can change the IC.
      363    14119
      364    14120        */
      365    14121    2   SUPPORT_ACTIONS:
      366    14122
      367    14123    3        DO CASE(PC.ACTION);

  14123 44 000027   200150 220100       SUPPORT_ACT* LDX0    PC,,AUTO
        44 000030   000012 100003                    CMPX0   10,DU
        44 000031   000033 602010 44                 TNC     SUPPORT_ACTIONS+4,X0
        44 000032   000337 710000 44                 TRA     ACTIONS
        44 000033   000336 710000 44                 TRA     s:14216
        44 000034   000277 710000 44                 TRA     s:14198
        44 000035   000304 710000 44                 TRA     s:14201
        44 000036   000337 710000 44                 TRA     ACTIONS
        44 000037   000102 710000 44                 TRA     s:14140
        44 000040   000330 710000 44                 TRA     s:14212
        44 000041   000176 710000 44                 TRA     s:14166
        44 000042   000063 710000 44                 TRA     s:14134
        44 000043   000114 710000 44                 TRA     s:14146
        44 000044   000045 710000 44                 TRA     s:14126

      368    14124
      369    14125    3          CASE(%BCT);

      370    14126    3            PCOM_.ABS(PC.OPND1) = PCOM_.ABS(PC.OPND1) - 1;

  14126 44 000045   200150 721100                    LXL1    PC,,AUTO
        44 000046   200011 235111                    LDA     PCOM,X1,AUTO
        44 000047   000001 135007                    SBLA    1,DL
PL6.E3A0      #001=Z8HI$BURST File=Z8HI.:Z8A6TSI                                 SAT 08/09/97 13:19 Page:124
        44 000050   200011 755111                    STA     PCOM,X1,AUTO

      371    14127
      372    14128    3            IF PCOM_.ABS(PC.OPND1) = 0 THEN

  14128 44 000051   000056 601000 44                 TNZ     s:14131

      373    14129    3              IC = PINCRW(IC,2);

  14129 44 000052   200152 236100                    LDQ     IC,,AUTO
        44 000053   000002 036003                    ADLQ    2,DU
        44 000054   200152 756100                    STQ     IC,,AUTO
        44 000055   000022 710000 44                 TRA     LOOP

      374    14130    3            ELSE
      375    14131    3              IC = PINCRW(IC,PCS.OPND2);

  14131 44 000056   200151 236100                    LDQ     PC+1,,AUTO
        44 000057   777777 376003                    ANQ     -1,DU
        44 000060   200152 036100                    ADLQ    IC,,AUTO
        44 000061   200152 756100                    STQ     IC,,AUTO
        44 000062   000022 710000 44                 TRA     LOOP

      376    14132
      377    14133    3          CASE(%EQLR);

      378    14134    3            IF PILL -> ETT.LOP = PILL -> ETT.ROP THEN

  14134 44 000063   200003 471500                    LDP1    @PILL,,AUTO
        44 000064   100000 473500                    LDP3    0,,PR1
        44 000065   300001 236100                    LDQ     1,,PR3
        44 000066   300002 116100                    CMPQ    2,,PR3
        44 000067   000075 601000 44                 TNZ     s:14137

      379    14135    3              IC = PINCRW(IC,PCS.OPND2);

  14135 44 000070   200151 236100                    LDQ     PC+1,,AUTO
PL6.E3A0      #001=Z8HI$BURST File=Z8HI.:Z8A6TSI                                 SAT 08/09/97 13:19 Page:125
        44 000071   777777 376003                    ANQ     -1,DU
        44 000072   200152 036100                    ADLQ    IC,,AUTO
        44 000073   200152 756100                    STQ     IC,,AUTO
        44 000074   000022 710000 44                 TRA     LOOP

      380    14136    3            ELSE
      381    14137    3              IC = PINCRW(IC,PCS.OPND1);

  14137 44 000075   200150 721100                    LXL1    PC,,AUTO
        44 000076   000000 636011                    EAQ     0,X1
        44 000077   200152 036100                    ADLQ    IC,,AUTO
        44 000100   200152 756100                    STQ     IC,,AUTO
        44 000101   000022 710000 44                 TRA     LOOP

      382    14138
      383    14139    3          CASE(%GOSUB);

      384    14140    3            SUB_STACK(SUB_IDX) = PINCRW(IC,1);

  14140 44 000102   200152 236100                    LDQ     IC,,AUTO
        44 000103   000001 036003                    ADLQ    1,DU
        44 000104   002763 721000 3                  LXL1    SUB_IDX
        44 000105   002736 756011 3                  STQ     SUB_STACK,X1

      385    14141    3            SUB_IDX = SUB_IDX + 1;

  14141 44 000106   002763 054000 3                  AOS     SUB_IDX

      386    14142    3            IC = PINCRW(IC,PCS.OPND1);

  14142 44 000107   200150 721100                    LXL1    PC,,AUTO
        44 000110   000000 636011                    EAQ     0,X1
        44 000111   200152 036100                    ADLQ    IC,,AUTO
        44 000112   200152 756100                    STQ     IC,,AUTO
        44 000113   000022 710000 44                 TRA     LOOP

      387    14143
PL6.E3A0      #001=Z8HI$BURST File=Z8HI.:Z8A6TSI                                 SAT 08/09/97 13:19 Page:126
      388    14144    3          CASE(%IFID);

      389    14145                 %LOP_ROP_TO(OP=PCC.CODE1);

  14146 44 000114   200150 236100                    LDQ     PC,,AUTO
        44 000115   000014 772000                    QRL     12
        44 000116   000077 376007                    ANQ     63,DL
        44 000117   000004 116007                    CMPQ    4,DL
        44 000120   000122 602006 44                 TNC     s:14146+6,QL
        44 000121   000151 710000 44                 TRA     s:14156
        44 000122   000126 710000 44                 TRA     s:14148
        44 000123   000132 710000 44                 TRA     s:14150
        44 000124   000137 710000 44                 TRA     s:14152
        44 000125   000144 710000 44                 TRA     s:14154

  14148 44 000126   200003 471500                    LDP1    @PILL,,AUTO
        44 000127   100000 236100                    LDQ     0,,PR1
        44 000130   200153 756100                    STQ     OPND,,AUTO
        44 000131   000153 710000 44                 TRA     s:14159

  14150 44 000132   200003 471500                    LDP1    @PILL,,AUTO
        44 000133   100000 473500                    LDP3    0,,PR1
        44 000134   300001 236100                    LDQ     1,,PR3
        44 000135   200153 756100                    STQ     OPND,,AUTO
        44 000136   000153 710000 44                 TRA     s:14159

  14152 44 000137   200003 471500                    LDP1    @PILL,,AUTO
        44 000140   100000 473500                    LDP3    0,,PR1
        44 000141   300002 236100                    LDQ     2,,PR3
        44 000142   200153 756100                    STQ     OPND,,AUTO
        44 000143   000153 710000 44                 TRA     s:14159

  14154 44 000144   200003 471500                    LDP1    @PILL,,AUTO
        44 000145   100000 473500                    LDP3    0,,PR1
        44 000146   300003 236100                    LDQ     3,,PR3
        44 000147   200153 756100                    STQ     OPND,,AUTO
        44 000150   000153 710000 44                 TRA     s:14159
PL6.E3A0      #001=Z8HI$BURST File=Z8HI.:Z8A6TSI                                 SAT 08/09/97 13:19 Page:127

  14156 44 000151   200043 236106                    LDQ     PCOM+26,QL,AUTO
        44 000152   200153 756100                    STQ     OPND,,AUTO

      390    14159    3            IF OPND -> ETT.ID = PCC.CODE2 THEN

  14159 44 000153   200150 236100                    LDQ     PC,,AUTO
        44 000154   000005 772000                    QRL     5
        44 000155   000177 376007                    ANQ     127,DL
        44 000156   200260 756100                    STQ     @TAG+2,,AUTO
        44 000157   200153 471500                    LDP1    OPND,,AUTO
        44 000160   100000 236100                    LDQ     0,,PR1
        44 000161   000022 772000                    QRL     18
        44 000162   200260 116100                    CMPQ    @TAG+2,,AUTO
        44 000163   000171 601000 44                 TNZ     s:14162

      391    14160    3              IC = PINCRW(IC,PCS.OPND2);

  14160 44 000164   200151 236100                    LDQ     PC+1,,AUTO
        44 000165   777777 376003                    ANQ     -1,DU
        44 000166   200152 036100                    ADLQ    IC,,AUTO
        44 000167   200152 756100                    STQ     IC,,AUTO
        44 000170   000022 710000 44                 TRA     LOOP

      392    14161    3            ELSE
      393    14162    3              IC = PINCRW(IC,PCS.OPND3);

  14162 44 000171   200151 721100                    LXL1    PC+1,,AUTO
        44 000172   000000 636011                    EAQ     0,X1
        44 000173   200152 036100                    ADLQ    IC,,AUTO
        44 000174   200152 756100                    STQ     IC,,AUTO
        44 000175   000022 710000 44                 TRA     LOOP

      394    14163
      395    14164    3          CASE(%IFITIS);

      396    14165
PL6.E3A0      #001=Z8HI$BURST File=Z8HI.:Z8A6TSI                                 SAT 08/09/97 13:19 Page:128
      397    14166    3            P$ = PILL -> ETT.ROP;

  14166 44 000176   200003 471500                    LDP1    @PILL,,AUTO
        44 000177   100000 473500                    LDP3    0,,PR1
        44 000200   300002 236100                    LDQ     2,,PR3
        44 000201   200226 756100                    STQ     P$,,AUTO

      398    14167    3            IF P$ -> ETT.ID = %TRIAD  THEN

  14167 44 000202   200226 473500                    LDP3    P$,,AUTO
        44 000203   300000 221100                    LDX1    0,,PR3
        44 000204   000015 101003                    CMPX1   13,DU
        44 000205   000272 601000 44                 TNZ     s:14196

      399    14168
      400    14169    4              DO CASE( P$ -> ETT.LOP -> CONST.TYPE );

  14169 44 000206   300001 474500                    LDP4    1,,PR3
        44 000207   400002 236100                    LDQ     2,,PR4
        44 000210   000022 772000                    QRL     18
        44 000211   000004 136007                    SBLQ    4,DL
        44 000212   000002 116007                    CMPQ    2,DL
        44 000213   000215 602006 44                 TNC     s:14169+7,QL
        44 000214   000253 710000 44                 TRA     s:14188
        44 000215   000217 710000 44                 TRA     s:14173
        44 000216   000234 710000 44                 TRA     s:14180

      401    14170
      402    14171    4                CASE( %TYR );

      403    14172
      404    14173    4                  IF BINBIT(P$ -> ETT.LOP -> CONST.CONSTI.WORD1, 36) =  %
             14173                           SINGLE_FLOAT_ZERO   THEN

  14173 44 000217   400010 236100                    LDQ     8,,PR4
        44 000220   000166 116000 42                 CMPQ    DSTATE_TYP+28
        44 000221   000227 601000 44                 TNZ     s:14176
PL6.E3A0      #001=Z8HI$BURST File=Z8HI.:Z8A6TSI                                 SAT 08/09/97 13:19 Page:129

      405    14174    4                    IC = PINCRW( IC, PCS.OPND2 );

  14174 44 000222   200151 236100                    LDQ     PC+1,,AUTO
        44 000223   777777 376003                    ANQ     -1,DU
        44 000224   200152 036100                    ADLQ    IC,,AUTO
        44 000225   200152 756100                    STQ     IC,,AUTO
        44 000226   000022 710000 44                 TRA     LOOP

      406    14175    4                  ELSE
      407    14176    4                    IC = PINCRW( IC, PCS.OPND3 );

  14176 44 000227   200151 722100                    LXL2    PC+1,,AUTO
        44 000230   000000 636012                    EAQ     0,X2
        44 000231   200152 036100                    ADLQ    IC,,AUTO
        44 000232   200152 756100                    STQ     IC,,AUTO
        44 000233   000022 710000 44                 TRA     LOOP

      408    14177
      409    14178    4                CASE( %TYQ );

      410    14179
      411    14180    4                  IF BINBIT(P$ -> ETT.LOP -> CONST.CONSTI.WORD1, 36) = %
             14180                           SINGLE_FLOAT_ZERO  AND

  14180 44 000234   400010 236100                    LDQ     8,,PR4
        44 000235   000166 116000 42                 CMPQ    DSTATE_TYP+28
        44 000236   000246 601000 44                 TNZ     s:14184
        44 000237   400011 235100                    LDA     9,,PR4
        44 000240   000246 601000 44                 TNZ     s:14184

      412    14181    4                     P$ -> ETT.LOP -> CONST.CONSTI.WORD2 = %ZERO  THEN
      413    14182    4                    IC = PINCRW( IC, PCS.OPND2 );

  14182 44 000241   200151 236100                    LDQ     PC+1,,AUTO
        44 000242   777777 376003                    ANQ     -1,DU
        44 000243   200152 036100                    ADLQ    IC,,AUTO
PL6.E3A0      #001=Z8HI$BURST File=Z8HI.:Z8A6TSI                                 SAT 08/09/97 13:19 Page:130
        44 000244   200152 756100                    STQ     IC,,AUTO
        44 000245   000022 710000 44                 TRA     LOOP

      414    14183    4                  ELSE
      415    14184    4                    IC = PINCRW( IC, PCS.OPND3 );

  14184 44 000246   200151 722100                    LXL2    PC+1,,AUTO
        44 000247   000000 636012                    EAQ     0,X2
        44 000250   200152 036100                    ADLQ    IC,,AUTO
        44 000251   200152 756100                    STQ     IC,,AUTO
        44 000252   000022 710000 44                 TRA     LOOP

      416    14185
      417    14186    4                CASE( ELSE );

      418    14187
      419    14188    4                  IF P$ -> ETT.LOP -> CONST.CONSTI.WORD1 = PCS.OPND1  THEN

  14188 44 000253   200150 236100                    LDQ     PC,,AUTO
        44 000254   000022 736000                    QLS     18
        44 000255   000022 732000                    QRS     18
        44 000256   400010 116100                    CMPQ    8,,PR4
        44 000257   000265 601000 44                 TNZ     s:14191

      420    14189    4                    IC = PINCRW( IC, PCS.OPND2 );

  14189 44 000260   200151 236100                    LDQ     PC+1,,AUTO
        44 000261   777777 376003                    ANQ     -1,DU
        44 000262   200152 036100                    ADLQ    IC,,AUTO
        44 000263   200152 756100                    STQ     IC,,AUTO
        44 000264   000022 710000 44                 TRA     LOOP

      421    14190    4                  ELSE
      422    14191    4                    IC = PINCRW( IC, PCS.OPND3 );

  14191 44 000265   200151 722100                    LXL2    PC+1,,AUTO
        44 000266   000000 636012                    EAQ     0,X2
PL6.E3A0      #001=Z8HI$BURST File=Z8HI.:Z8A6TSI                                 SAT 08/09/97 13:19 Page:131
        44 000267   200152 036100                    ADLQ    IC,,AUTO
        44 000270   200152 756100                    STQ     IC,,AUTO

      423    14192
      424    14193    4               END;

  14193 44 000271   000022 710000 44                 TRA     LOOP

      425    14194
      426    14195    3            ELSE
      427    14196    3              IC = PINCRW( IC, PCS.OPND3 );

  14196 44 000272   200151 722100                    LXL2    PC+1,,AUTO
        44 000273   000000 636012                    EAQ     0,X2
        44 000274   200152 036100                    ADLQ    IC,,AUTO
        44 000275   200152 756100                    STQ     IC,,AUTO
        44 000276   000022 710000 44                 TRA     LOOP

      428    14197    3          CASE(%JMP);

      429    14198    3            IC = PINCRW(IC,PCS.OPND1);

  14198 44 000277   200150 721100                    LXL1    PC,,AUTO
        44 000300   000000 636011                    EAQ     0,X1
        44 000301   200152 036100                    ADLQ    IC,,AUTO
        44 000302   200152 756100                    STQ     IC,,AUTO
        44 000303   000022 710000 44                 TRA     LOOP

      430    14199
      431    14200    3          CASE(%JMPDV);

      432    14201    3            I = PCOM_.ABS(PC.OPND1);

  14201 44 000304   200150 721100                    LXL1    PC,,AUTO
        44 000305   200011 235111                    LDA     PCOM,X1,AUTO
        44 000306   200223 755100                    STA     I,,AUTO

PL6.E3A0      #001=Z8HI$BURST File=Z8HI.:Z8A6TSI                                 SAT 08/09/97 13:19 Page:132
      433    14202
      434    14203    3            IF (I < 0) OR (I > PCCS.CONST) THEN

  14203 44 000307   000313 604000 44                 TMI     s:14205
        44 000310   200223 236100                    LDQ     I,,AUTO
        44 000311   200151 116100                    CMPQ    PC+1,,AUTO
        44 000312   000323 604400 44                 TMOZ    s:14209

      435    14204    4              DO;

      436    14205    4                CALL Z8AE$ERROR(%E$INVALID_CODE,COMCOM.CURRENT.LINE,0);

  14205 44 000313   000003 630400 45                 EPPR0   3
        44 000314   000000 631400 45                 EPPR1   0
        44 000315   000000 701000 xent               TSX1    Z8AE$ERROR
        44 000316   000000 011000                    NOP     0

      437    14206    4                CALL Z9AT$TERMINATOR;

  14206 44 000317   000002 631400 45                 EPPR1   2
        44 000320   000000 701000 xent               TSX1    Z9AT$TERMINATOR
        44 000321   000000 011000                    NOP     0

      438    14207    4              END;

  14207 44 000322   000022 710000 44                 TRA     LOOP

      439    14208    3            ELSE
      440    14209    3              IC = PINCRW(IC, 2 + I);

  14209 44 000323   000022 736000                    QLS     18
        44 000324   000002 036003                    ADLQ    2,DU
        44 000325   200152 036100                    ADLQ    IC,,AUTO
        44 000326   200152 756100                    STQ     IC,,AUTO
        44 000327   000022 710000 44                 TRA     LOOP

      441    14210
PL6.E3A0      #001=Z8HI$BURST File=Z8HI.:Z8A6TSI                                 SAT 08/09/97 13:19 Page:133
      442    14211    3          CASE(%RTN);

      443    14212    3            SUB_IDX = SUB_IDX - 1;

  14212 44 000330   000001 336007                    LCQ     1,DL
        44 000331   002763 056000 3                  ASQ     SUB_IDX

      444    14213    3            IC = SUB_STACK(SUB_IDX);

  14213 44 000332   002763 721000 3                  LXL1    SUB_IDX
        44 000333   002736 236011 3                  LDQ     SUB_STACK,X1
        44 000334   200152 756100                    STQ     IC,,AUTO
        44 000335   000022 710000 44                 TRA     LOOP

      445    14214
      446    14215    3          CASE(%QUIT);

      447    14216    3            RETURN;

  14216 44 000336   000000 702200 xent               TSX2  ! X66_ARET

      448    14217
      449    14218    3          CASE(ELSE);

      450    14219
      451    14220        %EJECT;
PL6.E3A0      #001=Z8HI$BURST File=Z8HI.:Z8A6TSI                                 SAT 08/09/97 13:19 Page:134
      452    14221    3   ACTIONS:
      453    14222
      454    14223    4        DO CASE(PC.ACTION);

  14223 44 000337   200150 235100       ACTIONS      LDA     PC,,AUTO
        44 000340   000022 771000                    ARL     18
        44 000341   000012 135007                    SBLA    10,DL
        44 000342   000045 115007                    CMPA    37,DL
        44 000343   000345 602005 44                 TNC     ACTIONS+6,AL
        44 000344   016020 710000 44                 TRA     s:19022
        44 000345   015257 710000 44                 TRA     s:18866
        44 000346   004223 710000 44                 TRA     s:15610
        44 000347   003312 710000 44                 TRA     s:15419
        44 000350   016024 710000 44                 TRA     s:19025
        44 000351   014404 710000 44                 TRA     s:18581
        44 000352   015213 710000 44                 TRA     s:18847
        44 000353   007405 710000 44                 TRA     s:16516
        44 000354   012421 710000 44                 TRA     s:17942
        44 000355   006207 710000 44                 TRA     s:16212
        44 000356   015323 710000 44                 TRA     s:18885
        44 000357   015403 710000 44                 TRA     s:18903
        44 000360   005541 710000 44                 TRA     s:15900
        44 000361   005525 710000 44                 TRA     s:15893
        44 000362   016020 710000 44                 TRA     s:19022
        44 000363   005612 710000 44                 TRA     s:15936
        44 000364   015565 710000 44                 TRA     s:18951
        44 000365   013104 710000 44                 TRA     s:18095
        44 000366   013505 710000 44                 TRA     s:18176
        44 000367   004211 710000 44                 TRA     s:15591
        44 000370   003210 710000 44                 TRA     s:15372
        44 000371   014111 710000 44                 TRA     s:18385
        44 000372   000412 710000 44                 TRA     s:14228
        44 000373   015144 710000 44                 TRA     s:18830
        44 000374   015167 710000 44                 TRA     s:18838
        44 000375   013620 710000 44                 TRA     s:18189
        44 000376   005615 710000 44                 TRA     s:15941
        44 000377   014236 710000 44                 TRA     s:18443
PL6.E3A0      #001=Z8HI$BURST File=Z8HI.:Z8A6TSI                                 SAT 08/09/97 13:19 Page:135
        44 000400   007245 710000 44                 TRA     s:16475
        44 000401   013741 710000 44                 TRA     s:18284
        44 000402   010104 710000 44                 TRA     s:16785
        44 000403   010033 710000 44                 TRA     s:16768
        44 000404   016020 710000 44                 TRA     s:19022
        44 000405   014171 710000 44                 TRA     s:18396
        44 000406   005441 710000 44                 TRA     s:15824
        44 000407   000501 710000 44                 TRA     s:14287
        44 000410   016020 710000 44                 TRA     s:19022
        44 000411   006006 710000 44                 TRA     s:16057

      455    14224        %EJECT;
PL6.E3A0      #001=Z8HI$BURST File=Z8HI.:Z8A6TSI                                 SAT 08/09/97 13:19 Page:136
      456    14225    4   CASE(%AD);

      457    14226        /*V* ADD -- See MOVE for PSEUDO-CODE_UTILITIES documentation  */
      458    14227
      459    14228    5        DO CASE(PCC.CODE1);

  14228 44 000412   200150 236100                    LDQ     PC,,AUTO
        44 000413   000014 772000                    QRL     12
        44 000414   000077 376007                    ANQ     63,DL
        44 000415   000004 136007                    SBLQ    4,DL
        44 000416   000031 116007                    CMPQ    25,DL
        44 000417   000421 602006 44                 TNC     s:14228+7,QL
        44 000420   016024 710000 44                 TRA     s:19025
        44 000421   000452 710000 44                 TRA     s:14230
        44 000422   000460 710000 44                 TRA     s:14232
        44 000423   000500 710000 44                 TRA     s:14236
        44 000424   000500 710000 44                 TRA     s:14236
        44 000425   000500 710000 44                 TRA     s:14236
        44 000426   000500 710000 44                 TRA     s:14236
        44 000427   000500 710000 44                 TRA     s:14236
        44 000430   000500 710000 44                 TRA     s:14236
        44 000431   000500 710000 44                 TRA     s:14236
        44 000432   000500 710000 44                 TRA     s:14236
        44 000433   000500 710000 44                 TRA     s:14236
        44 000434   000500 710000 44                 TRA     s:14236
        44 000435   000500 710000 44                 TRA     s:14236
        44 000436   000500 710000 44                 TRA     s:14236
        44 000437   000500 710000 44                 TRA     s:14236
        44 000440   000500 710000 44                 TRA     s:14236
        44 000441   000500 710000 44                 TRA     s:14236
        44 000442   000500 710000 44                 TRA     s:14236
        44 000443   000500 710000 44                 TRA     s:14236
        44 000444   000500 710000 44                 TRA     s:14236
        44 000445   000500 710000 44                 TRA     s:14236
        44 000446   000500 710000 44                 TRA     s:14236
        44 000447   000500 710000 44                 TRA     s:14236
        44 000450   000500 710000 44                 TRA     s:14236
PL6.E3A0      #001=Z8HI$BURST File=Z8HI.:Z8A6TSI                                 SAT 08/09/97 13:19 Page:137
        44 000451   000467 710000 44                 TRA     s:14234

      460    14229    5          CASE(%CONST_ABS);

      461    14230    5            PCOM_.ABS(PCC.CODE3) = PCOM_.ABS(PCC.CODE3) + PCC.CONST;

  14230 44 000452   200150 721100                    LXL1    PC,,AUTO
        44 000453   000037 361003                    ANX1    31,DU
        44 000454   200011 236111                    LDQ     PCOM,X1,AUTO
        44 000455   200151 036100                    ADLQ    PC+1,,AUTO
        44 000456   200011 756111                    STQ     PCOM,X1,AUTO
        44 000457   016024 710000 44                 TRA     s:19025

      462    14231    5          CASE(%CONST_OPND);

      463    14232    5            PCOM_.OPND(PCC.CODE3) = PINCRW(PCOM_.OPND(PCC.CODE3),PCC.CONST);

  14232 44 000460   200150 721100                    LXL1    PC,,AUTO
        44 000461   000037 361003                    ANX1    31,DU
        44 000462   200043 471511                    LDP1    PCOM+26,X1,AUTO
        44 000463   200151 722100                    LXL2    PC+1,,AUTO
        44 000464   100000 633512                    EPPR3   0,X2,PR1
        44 000465   200043 453511                    STP3    PCOM+26,X1,AUTO
        44 000466   016024 710000 44                 TRA     s:19025

      464    14233    5          CASE(%ABS_ABS);

      465    14234    5            PCOM_.ABS(PCC.CODE3) = PCOM_.ABS(PCC.CODE3) +

  14234 44 000467   200150 721100                    LXL1    PC,,AUTO
        44 000470   000037 361003                    ANX1    31,DU
        44 000471   200150 236100                    LDQ     PC,,AUTO
        44 000472   000005 772000                    QRL     5
        44 000473   000177 376007                    ANQ     127,DL
        44 000474   000000 622006                    EAX2    0,QL
        44 000475   200011 236111                    LDQ     PCOM,X1,AUTO
        44 000476   200011 036112                    ADLQ    PCOM,X2,AUTO
PL6.E3A0      #001=Z8HI$BURST File=Z8HI.:Z8A6TSI                                 SAT 08/09/97 13:19 Page:138
        44 000477   200011 756111                    STQ     PCOM,X1,AUTO

      466    14235    5                                   PCOM_.ABS(PCC.CODE2);
      467    14236    5        END /* Case */;

  14236 44 000500   016024 710000 44                 TRA     s:19025

      468    14237
      469    14238        %EJECT;
PL6.E3A0      #001=Z8HI$BURST File=Z8HI.:Z8A6TSI                                 SAT 08/09/97 13:19 Page:139
      470    14239    4   CASE(%ADDRESS);

      471    14240        /*V*
      472    14241                              ADDRESS
      473    14242
      474    14243               All of this code is rather obscure.  Very little of the
      475    14244             ADDRESS stuff can be handled in pseudo-code, so naturally,
      476    14245             it ended up here as a special case.
      477    14246
      478    14247               Depending on the conditions present on the lop of the
      479    14248             ADDRESS, there are 5 different possibilities for code bursts
      480    14249             or operations:
      481    14250
      482    14251             SSOP; CN ~= 0
      483    14252                                EPPRn   array,,m
      484    14253                                EAX1    cn,st
      485    14254                                AxBD    0,X1,n
      486    14255
      487    14256             SSOP; CN = 0
      488    14257                                EPPRn   array,,m
      489    14258                                AxBD    0,st,n     (If not constant subscript)
      490    14259
      491    14260             NO SSOP; CN ~= 0
      492    14261                                EPPRn   scalar,,m
      493    14262                                EAX1    cn
      494    14263                                AxBD    0,X1,n
      495    14264
      496    14265             NO SSOP; CN = 0
      497    14266                                EPPRn   scalar,,m
      498    14267
      499    14268
      500    14269             NO SSOP; CN = 0; SA = 0; not constant
      501    14270
      502    14271                                no code, but assign m -> ADDRESS triad.
      503    14272
      504    14273             where:   n   = Pointer register chosen for the ADDRESS triad.
      505    14274                      m   = Pointer register for the .DATA. block in which
PL6.E3A0      #001=Z8HI$BURST File=Z8HI.:Z8A6TSI                                 SAT 08/09/97 13:19 Page:140
      506    14275                            the scalar or array is contained.
      507    14276                      x   = Data unit; 4 or 9 bit, applied to AxBD opcode.
      508    14277                      st  = SSOP tag.
      509    14278
      510    14279
      511    14280               The EPPRn instruction can easily be generated from pseudo-code,
      512    14281             So can the EAX1 (when necessary), but the AxBD must be entirely
      513    14282             built into SUPP_DATA.WRD and 'ORed' onto a dummy ZERO word (DEP.ADEP).
      514    14283
      515    14284        */
      516    14285
      517    14286             %LOP_ROP_TO(RESULT=NODE$);

  14287 44 000501   200150 721100                    LXL1    PC,,AUTO
        44 000502   000004 101003                    CMPX1   4,DU
        44 000503   000505 602011 44                 TNC     s:14287+4,X1
        44 000504   000534 710000 44                 TRA     s:14297
        44 000505   000511 710000 44                 TRA     s:14289
        44 000506   000515 710000 44                 TRA     s:14291
        44 000507   000522 710000 44                 TRA     s:14293
        44 000510   000527 710000 44                 TRA     s:14295

  14289 44 000511   200003 471500                    LDP1    @PILL,,AUTO
        44 000512   100000 236100                    LDQ     0,,PR1
        44 000513   200230 756100                    STQ     NODE$,,AUTO
        44 000514   000536 710000 44                 TRA     s:14301

  14291 44 000515   200003 471500                    LDP1    @PILL,,AUTO
        44 000516   100000 473500                    LDP3    0,,PR1
        44 000517   300001 236100                    LDQ     1,,PR3
        44 000520   200230 756100                    STQ     NODE$,,AUTO
        44 000521   000536 710000 44                 TRA     s:14301

  14293 44 000522   200003 471500                    LDP1    @PILL,,AUTO
        44 000523   100000 473500                    LDP3    0,,PR1
        44 000524   300002 236100                    LDQ     2,,PR3
        44 000525   200230 756100                    STQ     NODE$,,AUTO
PL6.E3A0      #001=Z8HI$BURST File=Z8HI.:Z8A6TSI                                 SAT 08/09/97 13:19 Page:141
        44 000526   000536 710000 44                 TRA     s:14301

  14295 44 000527   200003 471500                    LDP1    @PILL,,AUTO
        44 000530   100000 473500                    LDP3    0,,PR1
        44 000531   300003 236100                    LDQ     3,,PR3
        44 000532   200230 756100                    STQ     NODE$,,AUTO
        44 000533   000536 710000 44                 TRA     s:14301

  14297 44 000534   200043 236111                    LDQ     PCOM+26,X1,AUTO
        44 000535   200230 756100                    STQ     NODE$,,AUTO

      518    14300
      519    14301    4        CALL Z8HU$WALK(NODE$);

  14301 44 000536   200230 631500                    EPPR1   NODE$,,AUTO
        44 000537   200260 451500                    STP1    @TAG+2,,AUTO
        44 000540   200260 630500                    EPPR0   @TAG+2,,AUTO
        44 000541   000006 631400 45                 EPPR1   6
        44 000542   000000 701000 xent               TSX1    Z8HU$WALK
        44 000543   000000 011000                    NOP     0

      520    14302
      521    14303    4        CALL Z8HG$SAVE(NODE$);

  14303 44 000544   200230 630500                    EPPR0   NODE$,,AUTO
        44 000545   200260 450500                    STP0    @TAG+2,,AUTO
        44 000546   200260 630500                    EPPR0   @TAG+2,,AUTO
        44 000547   000006 631400 45                 EPPR1   6
        44 000550   000000 701000 xent               TSX1    Z8HG$SAVE
        44 000551   000000 011000                    NOP     0

      522    14304
      523    14305    4        REF$ = NODE$ -> ETT.REF$;

  14305 44 000552   200230 470500                    LDP0    NODE$,,AUTO
        44 000553   000003 236100                    LDQ     3,,PR0
        44 000554   200231 756100                    STQ     REF$,,AUTO
PL6.E3A0      #001=Z8HI$BURST File=Z8HI.:Z8A6TSI                                 SAT 08/09/97 13:19 Page:142

      524    14306
      525    14307    4        STORAGE_TARGET = (PC.OPND2 ~= %PR);

  14307 44 000555   400000 220003                    LDX0    -131072,DU
        44 000556   200151 221100                    LDX1    PC+1,,AUTO
        44 000557   000034 101003                    CMPX1   28,DU
        44 000560   000562 601000 44                 TNZ     s:14307+5
        44 000561   000000 220003                    LDX0    0,DU
        44 000562   000000 636010                    EAQ     0,X0
        44 000563   200175 756100                    STQ     STORAGE_TARGET,,AUTO

      526    14308    4        SSOP = (REF$ -> REF.SSOP_TAG$ ~= ADDR(NIL));

  14308 44 000564   400000 220003                    LDX0    -131072,DU
        44 000565   200231 471500                    LDP1    REF$,,AUTO
        44 000566   100002 236100                    LDQ     2,,PR1
        44 000567   000007 116000 45                 CMPQ    7
        44 000570   000572 601000 44                 TNZ     s:14308+6
        44 000571   000000 220003                    LDX0    0,DU
        44 000572   000000 636010                    EAQ     0,X0
        44 000573   200176 756100                    STQ     SSOP,,AUTO

      527    14309    4        IF REF$ -> REF.NDSC.CN = 0 OR

  14309 44 000574   100001 236100                    LDQ     1,,PR1
        44 000575   700000 316007                    CANQ    -32768,DL
        44 000576   000613 600000 44                 TZE     s:14314
        44 000577   000015 234000 xsym               SZN     COMCOM+13
        44 000600   000616 605000 44                 TPL     s:14315
        44 000601   100001 236100                    LDQ     1,,PR1
        44 000602   700000 376007                    ANQ     -32768,DL
        44 000603   100000 116007                    CMPQ    32768,DL
        44 000604   000616 601000 44                 TNZ     s:14315
        44 000605   100005 473500                    LDP3    5,,PR1
        44 000606   300002 220100                    LDX0    2,,PR3
        44 000607   000616 601000 44                 TNZ     s:14315
PL6.E3A0      #001=Z8HI$BURST File=Z8HI.:Z8A6TSI                                 SAT 08/09/97 13:19 Page:143
        44 000610   300003 236100                    LDQ     3,,PR3
        44 000611   000200 316007                    CANQ    128,DL
        44 000612   000616 601000 44                 TNZ     s:14315

      528    14310    4            (COMCOM.OB.COBOL_74 AND
      529    14311    4             REF$ -> REF.NDSC.CN = 1 AND
      530    14312    4             REF$ -> REF.ST$ -> SCALAR.TYPE = %TYD AND
      531    14313    4             NOT REF$ -> REF.ST$ -> SCALAR.B.DIGIT)
      532    14314    4          THEN ZERO_CN = TRUE;

  14314 44 000613   400000 236003                    LDQ     -131072,DU
        44 000614   200177 756100                    STQ     ZERO_CN,,AUTO
        44 000615   000617 710000 44                 TRA     s:14316

      533    14315    4          ELSE ZERO_CN = FALSE;

  14315 44 000616   200177 450100                    STZ     ZERO_CN,,AUTO

      534    14316    4        ZERO_SA = (REF$ -> REF.SA = 0);

  14316 44 000617   400000 220003                    LDX0    -131072,DU
        44 000620   100001 222100                    LDX2    1,,PR1
        44 000621   000623 600000 44                 TZE     s:14316+4
        44 000622   000000 220003                    LDX0    0,DU
        44 000623   000000 636010                    EAQ     0,X0
        44 000624   200200 756100                    STQ     ZERO_SA,,AUTO

      535    14317    4        IN_WORD_UNITS = REF$ -> REF.B.WORD_;

  14317 44 000625   100000 236100                    LDQ     0,,PR1
        44 000626   000042 736000                    QLS     34
        44 000627   400000 376003                    ANQ     -131072,DU
        44 000630   200201 756100                    STQ     IN_WORD_UNITS,,AUTO

      536    14318
      537    14319    4        IF REF$ -> REF.PR_TAG$ ~= ADDR(NIL) THEN

PL6.E3A0      #001=Z8HI$BURST File=Z8HI.:Z8A6TSI                                 SAT 08/09/97 13:19 Page:144
  14319 44 000631   100004 236100                    LDQ     4,,PR1
        44 000632   000007 116000 45                 CMPQ    7
        44 000633   000645 600000 44                 TZE     s:14322

      538    14320    4          ARGP_TYPE = (REF$ -> REF.PR_TAG$ -> ETT.ID = %ARGP);

  14320 44 000634   100004 473500                    LDP3    4,,PR1
        44 000635   400000 220003                    LDX0    -131072,DU
        44 000636   300000 223100                    LDX3    0,,PR3
        44 000637   000016 103003                    CMPX3   14,DU
        44 000640   000642 600000 44                 TZE     s:14320+6
        44 000641   000000 220003                    LDX0    0,DU
        44 000642   000000 636010                    EAQ     0,X0
        44 000643   200202 756100                    STQ     ARGP_TYPE,,AUTO
        44 000644   000646 710000 44                 TRA     s:14324

      539    14321    4        ELSE
      540    14322    4          ARGP_TYPE = FALSE;

  14322 44 000645   200202 450100                    STZ     ARGP_TYPE,,AUTO

      541    14323
      542    14324    4        IF STORAGE_TARGET THEN

  14324 44 000646   200175 234100                    SZN     STORAGE_TARGET,,AUTO
        44 000647   001005 605000 44                 TPL     s:14417

      543    14325    5          DO;

      544    14326    5            IF  NOT ARGP_TYPE    OR

  14326 44 000650   200202 234100                    SZN     ARGP_TYPE,,AUTO
        44 000651   000660 605000 44                 TPL     s:14331
        44 000652   200177 234100                    SZN     ZERO_CN,,AUTO
        44 000653   000660 605000 44                 TPL     s:14331
        44 000654   200200 234100                    SZN     ZERO_SA,,AUTO
        44 000655   000660 605000 44                 TPL     s:14331
PL6.E3A0      #001=Z8HI$BURST File=Z8HI.:Z8A6TSI                                 SAT 08/09/97 13:19 Page:145
        44 000656   200176 234100                    SZN     SSOP,,AUTO
        44 000657   000676 604000 44                 TMI     s:14343

      545    14327    5                NOT ZERO_CN      OR
      546    14328    5                NOT ZERO_SA      OR
      547    14329    5                NOT SSOP         THEN
      548    14330    6              DO;

      549    14331    6                CALL Z8HG$CHOOSE_REGISTER(%PR0, %PR7, POINTER_REGISTER);

  14331 44 000660   200155 633500                    EPPR3   POINTER_REGISTER,,AUTO
        44 000661   200262 453500                    STP3    @TAG+4,,AUTO
        44 000662   000012 237000 45                 LDAQ    10
        44 000663   200260 757100                    STAQ    @TAG+2,,AUTO
        44 000664   200260 630500                    EPPR0   @TAG+2,,AUTO
        44 000665   000000 631400 45                 EPPR1   0
        44 000666   000000 701000 xent               TSX1    Z8HG$CHOOSE_REGISTER
        44 000667   000000 011000                    NOP     0

      550    14332    6                CALL Z8HG$FREE_REGISTER(POINTER_REGISTER);

  14332 44 000670   200155 630500                    EPPR0   POINTER_REGISTER,,AUTO
        44 000671   200260 450500                    STP0    @TAG+2,,AUTO
        44 000672   200260 630500                    EPPR0   @TAG+2,,AUTO
        44 000673   000006 631400 45                 EPPR1   6
        44 000674   000000 701000 xent               TSX1    Z8HG$FREE_REGISTER
        44 000675   000000 011000                    NOP     0

      551    14333    6              END;

      552    14334
      553    14335                %#OFF#(@FROM="PCOM_.OPND(PC.OPND2)",@TO=OFF$,@VALUE=PC.OPND3,@TYPE=%WORD_);

  14343 44 000676   000000 236000 20                 LDQ     HEAD_ETT$
        44 000677   000007 116000 45                 CMPQ    7
        44 000700   000724 601000 44                 TNZ     s:14355

PL6.E3A0      #001=Z8HI$BURST File=Z8HI.:Z8A6TSI                                 SAT 08/09/97 13:19 Page:146
  14345 44 000701   000002 236000 22                 LDQ     ETT_+2
        44 000702   000005 036007                    ADLQ    5,DL
        44 000703   000003 116000 22                 CMPQ    ETT_+3
        44 000704   000715 604000 44                 TMI     s:14347

  14346 44 000705   000014 236000 45                 LDQ     12
        44 000706   200260 756100                    STQ     @TAG+2,,AUTO
        44 000707   200260 630500                    EPPR0   @TAG+2,,AUTO
        44 000710   200261 450500                    STP0    @TAG+3,,AUTO
        44 000711   200261 630500                    EPPR0   @TAG+3,,AUTO
        44 000712   000006 631400 45                 EPPR1   6
        44 000713   000000 701000 xent               TSX1    Z8AR$RESERVER
        44 000714   000000 011000                    NOP     0

  14347 44 000715   000002 236000 22                 LDQ     ETT_+2
        44 000716   000022 736000                    QLS     18
        44 000717   000001 036000 22                 ADLQ    ETT_+1
        44 000720   200237 756100                    STQ     OFF$,,AUTO

  14348 44 000721   000005 236007                    LDQ     5,DL
        44 000722   000002 056000 22                 ASQ     ETT_+2

  14349 44 000723   000730 710000 44                 TRA     s:14365

  14355 44 000724   200237 756100                    STQ     OFF$,,AUTO

  14356 44 000725   000000 470400 20                 LDP0    HEAD_ETT$
        44 000726   000003 236100                    LDQ     3,,PR0
        44 000727   000000 756000 20                 STQ     HEAD_ETT$

  14365 44 000730   000003 220003                    LDX0    3,DU
        44 000731   200237 470500                    LDP0    OFF$,,AUTO
        44 000732   000000 740100                    STX0    0,,PR0

  14370 44 000733   200151 221100                    LDX1    PC+1,,AUTO
        44 000734   200043 236111                    LDQ     PCOM+26,X1,AUTO
        44 000735   200237 470500                    LDP0    OFF$,,AUTO
PL6.E3A0      #001=Z8HI$BURST File=Z8HI.:Z8A6TSI                                 SAT 08/09/97 13:19 Page:147
        44 000736   000001 756100                    STQ     1,,PR0

  14373 44 000737   000007 236000 45                 LDQ     7
        44 000740   200237 470500                    LDP0    OFF$,,AUTO
        44 000741   000002 756100                    STQ     2,,PR0

  14381 44 000742   000000 222003                    LDX2    0,DU
        44 000743   200237 470500                    LDP0    OFF$,,AUTO
        44 000744   000004 442100                    SXL2    4,,PR0

  14382 44 000745   200237 470500                    LDP0    OFF$,,AUTO
        44 000746   000001 236007                    LDQ     1,DL
        44 000747   000004 256100                    ORSQ    4,,PR0

  14383 44 000750   000000 223003                    LDX3    0,DU
        44 000751   200237 470500                    LDP0    OFF$,,AUTO
        44 000752   000000 443100                    SXL3    0,,PR0

  14384 44 000753   200237 470500                    LDP0    OFF$,,AUTO
        44 000754   000004 743100                    STX3    4,,PR0

  14385 44 000755   000007 236000 45                 LDQ     7
        44 000756   200237 470500                    LDP0    OFF$,,AUTO
        44 000757   000003 756100                    STQ     3,,PR0

  14409 44 000760   200151 724100                    LXL4    PC+1,,AUTO
        44 000761   200237 470500                    LDP0    OFF$,,AUTO
        44 000762   000002 744100                    STX4    2,,PR0

  14410 44 000763   000006 225003                    LDX5    6,DU
        44 000764   200237 470500                    LDP0    OFF$,,AUTO
        44 000765   000002 445100                    SXL5    2,,PR0

  14411 44 000766   000017 236000 45                 LDQ     15
        44 000767   200261 756100                    STQ     @TAG+3,,AUTO
        44 000770   200043 630511                    EPPR0   PCOM+26,X1,AUTO
        44 000771   200260 450500                    STP0    @TAG+2,,AUTO
PL6.E3A0      #001=Z8HI$BURST File=Z8HI.:Z8A6TSI                                 SAT 08/09/97 13:19 Page:148
        44 000772   200260 630500                    EPPR0   @TAG+2,,AUTO
        44 000773   000015 631400 45                 EPPR1   13
        44 000774   000000 701000 xent               TSX1    Z8HU$INCCNT
        44 000775   000000 011000                    NOP     0

  14412 44 000776   200237 630500                    EPPR0   OFF$,,AUTO
        44 000777   200260 450500                    STP0    @TAG+2,,AUTO
        44 001000   200260 630500                    EPPR0   @TAG+2,,AUTO
        44 001001   000006 631400 45                 EPPR1   6
        44 001002   000000 701000 xent               TSX1    Z8HU$WALK
        44 001003   000000 011000                    NOP     0

      554    14415    5          END;

  14415 44 001004   001021 710000 44                 TRA     s:14422

      555    14416    4        ELSE
      556    14417    4          IF PILL -> ETT.ID = %ADDR THEN

  14417 44 001005   200003 473500                    LDP3    @PILL,,AUTO
        44 001006   300000 474500                    LDP4    0,,PR3
        44 001007   400000 220100                    LDX0    0,,PR4
        44 001010   000175 100003                    CMPX0   125,DU
        44 001011   001015 601000 44                 TNZ     s:14420

      557    14418    4            POINTER_REGISTER = LAST_FREED;

  14418 44 001012   200007 235100                    LDA     LAST_FREED,,AUTO
        44 001013   200155 755100                    STA     POINTER_REGISTER,,AUTO
        44 001014   001021 710000 44                 TRA     s:14422

      558    14419    4          ELSE
      559    14420    4            POINTER_REGISTER = (PC.OPND3 + 20);

  14420 44 001015   200151 236100                    LDQ     PC+1,,AUTO
        44 001016   777777 376007                    ANQ     -1,DL
        44 001017   000024 036007                    ADLQ    20,DL
PL6.E3A0      #001=Z8HI$BURST File=Z8HI.:Z8A6TSI                                 SAT 08/09/97 13:19 Page:149
        44 001020   200155 756100                    STQ     POINTER_REGISTER,,AUTO

      560    14421
      561    14422    4        IF SSOP OR ARGP_TYPE  OR NOT STORAGE_TARGET THEN

  14422 44 001021   200176 234100                    SZN     SSOP,,AUTO
        44 001022   001027 604000 44                 TMI     s:14424
        44 001023   200202 234100                    SZN     ARGP_TYPE,,AUTO
        44 001024   001027 604000 44                 TMI     s:14424
        44 001025   200175 234100                    SZN     STORAGE_TARGET,,AUTO
        44 001026   002647 604000 44                 TMI     OPTZ

      562    14423    5          DO;

      563    14424    5            IF ARGP_TYPE AND ZERO_SA AND ZERO_CN AND NOT SSOP THEN

  14424 44 001027   200202 234100                    SZN     ARGP_TYPE,,AUTO
        44 001030   001162 605000 44                 TPL     EPP
        44 001031   200200 234100                    SZN     ZERO_SA,,AUTO
        44 001032   001162 605000 44                 TPL     EPP
        44 001033   200177 234100                    SZN     ZERO_CN,,AUTO
        44 001034   001162 605000 44                 TPL     EPP
        44 001035   200176 234100                    SZN     SSOP,,AUTO
        44 001036   001162 604000 44                 TMI     EPP

      564    14425    6              DO;

      565    14426    6                CALL Z8HU$WALK(REF$ -> REF.PR_TAG$);

  14426 44 001037   200231 236100                    LDQ     REF$,,AUTO
        44 001040   000004 036003                    ADLQ    4,DU
        44 001041   200260 756100                    STQ     @TAG+2,,AUTO
        44 001042   200260 630500                    EPPR0   @TAG+2,,AUTO
        44 001043   000006 631400 45                 EPPR1   6
        44 001044   000000 701000 xent               TSX1    Z8HU$WALK
        44 001045   000000 011000                    NOP     0

PL6.E3A0      #001=Z8HI$BURST File=Z8HI.:Z8A6TSI                                 SAT 08/09/97 13:19 Page:150
      566    14427
      567    14428    6                IF STORAGE_TARGET THEN

  14428 44 001046   200175 234100                    SZN     STORAGE_TARGET,,AUTO
        44 001047   001056 605000 44                 TPL     s:14432

      568    14429    6                  POINTER_REGISTER = REF$ -> REF.PR_TAG$ -> ETT.STATE;

  14429 44 001050   200231 470500                    LDP0    REF$,,AUTO
        44 001051   000004 471500                    LDP1    4,,PR0
        44 001052   100004 236100                    LDQ     4,,PR1
        44 001053   000022 772000                    QRL     18
        44 001054   200155 756100                    STQ     POINTER_REGISTER,,AUTO
        44 001055   002541 710000 44                 TRA     s:15085

      569    14430    6                ELSE
      570    14431    7                  DO;

      571    14432    7                    IF REF$ -> REF.PR_TAG$ -> ETT.STATE ~=

  14432 44 001056   200231 470500                    LDP0    REF$,,AUTO
        44 001057   000004 471500                    LDP1    4,,PR0
        44 001060   100004 236100                    LDQ     4,,PR1
        44 001061   000022 772000                    QRL     18
        44 001062   200155 116100                    CMPQ    POINTER_REGISTER,,AUTO
        44 001063   002541 600000 44                 TZE     s:15085

      572    14433    7                       POINTER_REGISTER THEN
      573    14434    8                      DO;

      574    14435    8                        INST_WORD = '0'O;

  14435 44 001064   200075 450100                    STZ     INST_WORD,,AUTO

      575    14436    8                        INST_WORD.LOW.OP_CODE = %EPPR0_OP +

  14436 44 001065   200155 236100                    LDQ     POINTER_REGISTER,,AUTO
PL6.E3A0      #001=Z8HI$BURST File=Z8HI.:Z8A6TSI                                 SAT 08/09/97 13:19 Page:151
        44 001066   000604 036007                    ADLQ    388,DL
        44 001067   000011 736000                    QLS     9
        44 001070   200075 552110                    STBQ    INST_WORD,'10'O,AUTO

      576    14437    8                            (POINTER_REGISTER - 20);
      577    14438    8                        INST_WORD.LOW.EIS = TRUE;

  14438 44 001071   000400 236007                    LDQ     256,DL
        44 001072   200075 256100                    ORSQ    INST_WORD,,AUTO

      578    14439    8                        INST_WORD.LOW.MF.AR = TRUE;

  14439 44 001073   000100 236007                    LDQ     64,DL
        44 001074   200075 256100                    ORSQ    INST_WORD,,AUTO

      579    14440    8                        INST_WORD.Y.AR# = REF$ -> REF.PR_TAG$ ->

  14440 44 001075   100004 236100                    LDQ     4,,PR1
        44 001076   000022 772000                    QRL     18
        44 001077   000024 136007                    SBLQ    20,DL
        44 001100   000041 736000                    QLS     33
        44 001101   200075 676100                    ERQ     INST_WORD,,AUTO
        44 001102   700000 376003                    ANQ     -32768,DU
        44 001103   200075 656100                    ERSQ    INST_WORD,,AUTO

      580    14441    8                             ETT.STATE - 20;
      581    14442    8                        MOD_KEY.KEY = 0;

  14442 44 001104   000000 450000 3                  STZ     MOD_KEY

      582    14443
      583    14444                             %NEW_WORD( @OU_WORD  = INST_WORD,
      584    14445                                        @KEY      = MOD_KEY.KEY,
      585    14446                                        @ST$      = ST$$);

  14465 44 001105   000002 236000 34                 LDQ     OBJ_+2
        44 001106   000004 036007                    ADLQ    4,DL
PL6.E3A0      #001=Z8HI$BURST File=Z8HI.:Z8A6TSI                                 SAT 08/09/97 13:19 Page:152
        44 001107   000003 116000 34                 CMPQ    OBJ_+3
        44 001110   001122 604000 44                 TMI     s:14471

  14467 44 001111   000000 234000 28                 SZN     PAGING_OBJ
        44 001112   001117 605000 44                 TPL     s:14469

  14468 44 001113   000020 630400 45                 EPPR0   16
        44 001114   000006 631400 45                 EPPR1   6
        44 001115   000000 701000 xent               TSX1    Z9HF$WRITE_OBJ_PAGE
        44 001116   000000 011000                    NOP     0

  14469 44 001117   000002 631400 45                 EPPR1   2
        44 001120   000000 701000 xent               TSX1    Z9HF$GET_OBJ_PAGE
        44 001121   000000 011000                    NOP     0

  14471 44 001122   000002 236000 34                 LDQ     OBJ_+2
        44 001123   000022 736000                    QLS     18
        44 001124   000001 036000 34                 ADLQ    OBJ_+1
        44 001125   000000 756000 27                 STQ     OBJ$

  14472 44 001126   000004 236007                    LDQ     4,DL
        44 001127   000002 056000 34                 ASQ     OBJ_+2

  14473 44 001130   001012 220003                    LDX0    522,DU
        44 001131   000000 470400 27                 LDP0    OBJ$
        44 001132   000000 740100                    STX0    0,,PR0

  14476 44 001133   200233 236100                    LDQ     ST$$,,AUTO
        44 001134   000000 470400 27                 LDP0    OBJ$
        44 001135   000002 756100                    STQ     2,,PR0

  14477 44 001136   000000 471400 4                  LDP1    CURRENT_BLOCK$
        44 001137   100002 236100                    LDQ     2,,PR1
        44 001140   000022 772000                    QRL     18
        44 001141   000001 756100                    STQ     1,,PR0

  14478 44 001142   000000 236000 3                  LDQ     MOD_KEY
PL6.E3A0      #001=Z8HI$BURST File=Z8HI.:Z8A6TSI                                 SAT 08/09/97 13:19 Page:153
        44 001143   000011 736000                    QLS     9
        44 001144   000000 552110                    STBQ    0,'10'O,PR0

  14480 44 001145   200075 236100                    LDQ     INST_WORD,,AUTO
        44 001146   000000 470400 27                 LDP0    OBJ$
        44 001147   000003 756100                    STQ     3,,PR0

  14487 44 001150   000000 471400 4                  LDP1    CURRENT_BLOCK$
        44 001151   100002 221100                    LDX1    2,,PR1
        44 001152   000001 622011                    EAX2    1,X1
        44 001153   100002 742100                    STX2    2,,PR1

  14488 44 001154   002541 601000 44                 TNZ     s:15085

  14489 44 001155   000022 630400 45                 EPPR0   18
        44 001156   000006 631400 45                 EPPR1   6
        44 001157   000000 701000 xent               TSX1    Z8AE$ERROR
        44 001160   000000 011000                    NOP     0

      586    14493    8                      END;

      587    14494    7                  END;

      588    14495    6              END;

  14495 44 001161   002541 710000 44                 TRA     s:15085

      589    14496    5            ELSE
      590    14497    6            DO;

      591    14498    7   EPP:     DO;

  14498 44 001162                       EPP          null
      592    14499    7              INST_WORD = '0'O;

  14499 44 001162   200075 450100                    STZ     INST_WORD,,AUTO

PL6.E3A0      #001=Z8HI$BURST File=Z8HI.:Z8A6TSI                                 SAT 08/09/97 13:19 Page:154
      593    14500
      594    14501    7              INST_WORD.SA      = REF$ -> REF.SA;

  14501 44 001163   200231 470500                    LDP0    REF$,,AUTO
        44 001164   000001 220100                    LDX0    1,,PR0
        44 001165   200075 740100                    STX0    INST_WORD,,AUTO

      595    14502
      596    14503    7              IF IN_WORD_UNITS AND

  14503 44 001166   200201 234100                    SZN     IN_WORD_UNITS,,AUTO
        44 001167   001201 605000 44                 TPL     s:14507
        44 001170   000002 236100                    LDQ     2,,PR0
        44 001171   000007 116000 45                 CMPQ    7
        44 001172   001201 600000 44                 TZE     s:14507

      597    14504    7                 REF$ -> REF.SSOP_TAG$ ~= ADDR(NIL) THEN
      598    14505    7                INST_WORD.LOW.MF.TAG = REF$ -> REF.SSOP_TAG$ -> ETT.STATE;

  14505 44 001173   000002 471500                    LDP1    2,,PR0
        44 001174   100004 236100                    LDQ     4,,PR1
        44 001175   000022 772000                    QRL     18
        44 001176   200075 676100                    ERQ     INST_WORD,,AUTO
        44 001177   000017 376007                    ANQ     15,DL
        44 001200   200075 656100                    ERSQ    INST_WORD,,AUTO

      599    14506
      600    14507    7              ST$$              = REF$ -> REF.ST$;

  14507 44 001201   000005 236100                    LDQ     5,,PR0
        44 001202   200233 756100                    STQ     ST$$,,AUTO

      601    14508    7              MOD_KEY.KEY = 0;

  14508 44 001203   000000 450000 3                  STZ     MOD_KEY

      602    14509    7              IF REF$ -> REF.PR_TAG$ ~= ADDR(NIL) AND REF$ -> REF.SA >= %#16K THEN
PL6.E3A0      #001=Z8HI$BURST File=Z8HI.:Z8A6TSI                                 SAT 08/09/97 13:19 Page:155

  14509 44 001204   000004 236100                    LDQ     4,,PR0
        44 001205   000007 116000 45                 CMPQ    7
        44 001206   001313 600000 44                 TZE     s:14568
        44 001207   040000 100003                    CMPX0   16384,DU
        44 001210   001313 602000 44                 TNC     s:14568

      603    14510    8                DO;

      604    14511    8                  CALL Z8HG$CHOOSE_REGISTER(%XR0, %XR7, REGISTER);

  14511 44 001211   200156 631500                    EPPR1   REGISTER,,AUTO
        44 001212   200262 451500                    STP1    @TAG+4,,AUTO
        44 001213   000026 237000 45                 LDAQ    22
        44 001214   200260 757100                    STAQ    @TAG+2,,AUTO
        44 001215   200260 630500                    EPPR0   @TAG+2,,AUTO
        44 001216   000000 631400 45                 EPPR1   0
        44 001217   000000 701000 xent               TSX1    Z8HG$CHOOSE_REGISTER
        44 001220   000000 011000                    NOP     0

      605    14512    8                  INST_WORD.LOW.OP_CODE = %(EAX0_OP - XR0) + REGISTER;

  14512 44 001221   200156 236100                    LDQ     REGISTER,,AUTO
        44 001222   000610 036007                    ADLQ    392,DL
        44 001223   000011 736000                    QLS     9
        44 001224   200075 552110                    STBQ    INST_WORD,'10'O,AUTO

      606    14513    8                  INST_WORD.SA = REF$ -> REF.SA;

  14513 44 001225   200231 470500                    LDP0    REF$,,AUTO
        44 001226   000001 220100                    LDX0    1,,PR0
        44 001227   200075 740100                    STX0    INST_WORD,,AUTO

      607    14514                       %NEW_WORD( @OU_WORD = INST_WORD,
      608    14515                                  @KEY     = MOD_KEY.KEY,
      609    14516                                  @ST$     = ST$$ );

PL6.E3A0      #001=Z8HI$BURST File=Z8HI.:Z8A6TSI                                 SAT 08/09/97 13:19 Page:156
  14535 44 001230   000002 236000 34                 LDQ     OBJ_+2
        44 001231   000004 036007                    ADLQ    4,DL
        44 001232   000003 116000 34                 CMPQ    OBJ_+3
        44 001233   001245 604000 44                 TMI     s:14541

  14537 44 001234   000000 234000 28                 SZN     PAGING_OBJ
        44 001235   001242 605000 44                 TPL     s:14539

  14538 44 001236   000020 630400 45                 EPPR0   16
        44 001237   000006 631400 45                 EPPR1   6
        44 001240   000000 701000 xent               TSX1    Z9HF$WRITE_OBJ_PAGE
        44 001241   000000 011000                    NOP     0

  14539 44 001242   000002 631400 45                 EPPR1   2
        44 001243   000000 701000 xent               TSX1    Z9HF$GET_OBJ_PAGE
        44 001244   000000 011000                    NOP     0

  14541 44 001245   000002 236000 34                 LDQ     OBJ_+2
        44 001246   000022 736000                    QLS     18
        44 001247   000001 036000 34                 ADLQ    OBJ_+1
        44 001250   000000 756000 27                 STQ     OBJ$

  14542 44 001251   000004 236007                    LDQ     4,DL
        44 001252   000002 056000 34                 ASQ     OBJ_+2

  14543 44 001253   001012 220003                    LDX0    522,DU
        44 001254   000000 470400 27                 LDP0    OBJ$
        44 001255   000000 740100                    STX0    0,,PR0

  14546 44 001256   200233 236100                    LDQ     ST$$,,AUTO
        44 001257   000000 470400 27                 LDP0    OBJ$
        44 001260   000002 756100                    STQ     2,,PR0

  14547 44 001261   000000 471400 4                  LDP1    CURRENT_BLOCK$
        44 001262   100002 236100                    LDQ     2,,PR1
        44 001263   000022 772000                    QRL     18
        44 001264   000001 756100                    STQ     1,,PR0
PL6.E3A0      #001=Z8HI$BURST File=Z8HI.:Z8A6TSI                                 SAT 08/09/97 13:19 Page:157

  14548 44 001265   000000 236000 3                  LDQ     MOD_KEY
        44 001266   000011 736000                    QLS     9
        44 001267   000000 552110                    STBQ    0,'10'O,PR0

  14550 44 001270   200075 236100                    LDQ     INST_WORD,,AUTO
        44 001271   000000 470400 27                 LDP0    OBJ$
        44 001272   000003 756100                    STQ     3,,PR0

  14557 44 001273   000000 471400 4                  LDP1    CURRENT_BLOCK$
        44 001274   100002 221100                    LDX1    2,,PR1
        44 001275   000001 622011                    EAX2    1,X1
        44 001276   100002 742100                    STX2    2,,PR1

  14558 44 001277   001304 601000 44                 TNZ     s:14563

  14559 44 001300   000022 630400 45                 EPPR0   18
        44 001301   000006 631400 45                 EPPR1   6
        44 001302   000000 701000 xent               TSX1    Z8AE$ERROR
        44 001303   000000 011000                    NOP     0

      610    14563    8                  ST$$ = ADDR(NIL);

  14563 44 001304   000007 236000 45                 LDQ     7
        44 001305   200233 756100                    STQ     ST$$,,AUTO

      611    14564    8                  INST_WORD = '0'B;

  14564 44 001306   200075 450100                    STZ     INST_WORD,,AUTO

      612    14565    8                  INST_WORD.LOW.MF.TAG = REGISTER;

  14565 44 001307   200156 236100                    LDQ     REGISTER,,AUTO
        44 001310   200075 676100                    ERQ     INST_WORD,,AUTO
        44 001311   000017 376007                    ANQ     15,DL
        44 001312   200075 656100                    ERSQ    INST_WORD,,AUTO

PL6.E3A0      #001=Z8HI$BURST File=Z8HI.:Z8A6TSI                                 SAT 08/09/97 13:19 Page:158
      613    14566    8                END;

      614    14567
      615    14568    7              INST_WORD.LOW.OP_CODE = %EPPR0_OP + (POINTER_REGISTER - 20);

  14568 44 001313   200155 236100                    LDQ     POINTER_REGISTER,,AUTO
        44 001314   000604 036007                    ADLQ    388,DL
        44 001315   000011 736000                    QLS     9
        44 001316   200075 552110                    STBQ    INST_WORD,'10'O,AUTO

      616    14569    7              INST_WORD.LOW.EIS     = TRUE;

  14569 44 001317   000400 236007                    LDQ     256,DL
        44 001320   200075 256100                    ORSQ    INST_WORD,,AUTO

      617    14570
      618    14571    7              IF ST$$ ~= ADDR(NIL) AND ST$$ -> ST.ID = %CONST THEN

  14571 44 001321   200233 236100                    LDQ     ST$$,,AUTO
        44 001322   000007 116000 45                 CMPQ    7
        44 001323   001340 600000 44                 TZE     s:14583
        44 001324   200233 470500                    LDP0    ST$$,,AUTO
        44 001325   000000 220100                    LDX0    0,,PR0
        44 001326   000767 100003                    CMPX0   503,DU
        44 001327   001340 601000 44                 TNZ     s:14583

      619    14572    8                DO;

      620    14573    8                  CALL HANDLE_CONSTANT;

  14573 44 001330   020373 701000 44                 TSX1    HANDLE_CONSTANT
        44 001331   000000 011000                    NOP     0

      621    14574
      622    14575    8                  MATERIALIZED_CONSTANT = FALSE;

  14575 44 001332   002734 450000 3                  STZ     MATERIALIZED_CONSTANT
PL6.E3A0      #001=Z8HI$BURST File=Z8HI.:Z8A6TSI                                 SAT 08/09/97 13:19 Page:159

      623    14576
      624    14577    8                  MOD_KEY.B.IC = TRUE;

  14577 44 001333   000001 236007                    LDQ     1,DL
        44 001334   000000 256000 3                  ORSQ    MOD_KEY

      625    14578    8                  MOD_KEY.B.RESOLVE_ADDRESS = TRUE;

  14578 44 001335   000020 236007                    LDQ     16,DL
        44 001336   000000 256000 3                  ORSQ    MOD_KEY

      626    14579    8                END;

  14579 44 001337   001415 710000 44                 TRA     s:14624

      627    14580    7              ELSE
      628    14581    8                DO;

      629    14582
      630    14583    8                  IF REF$ -> REF.PR_TAG$ ~= ADDR(NIL) THEN

  14583 44 001340   200231 470500                    LDP0    REF$,,AUTO
        44 001341   000004 236100                    LDQ     4,,PR0
        44 001342   000007 116000 45                 CMPQ    7
        44 001343   001413 600000 44                 TZE     s:14598

      631    14584    9                    DO;

      632    14585    9                      CALL Z8HU$WALK(REF$->REF.PR_TAG$);

  14585 44 001344   200231 236100                    LDQ     REF$,,AUTO
        44 001345   000004 036003                    ADLQ    4,DU
        44 001346   200260 756100                    STQ     @TAG+2,,AUTO
        44 001347   200260 630500                    EPPR0   @TAG+2,,AUTO
        44 001350   000006 631400 45                 EPPR1   6
        44 001351   000000 701000 xent               TSX1    Z8HU$WALK
PL6.E3A0      #001=Z8HI$BURST File=Z8HI.:Z8A6TSI                                 SAT 08/09/97 13:19 Page:160
        44 001352   000000 011000                    NOP     0

      633    14586    9                      INST_WORD.LOW.MF.AR   = TRUE;

  14586 44 001353   000100 236007                    LDQ     64,DL
        44 001354   200075 256100                    ORSQ    INST_WORD,,AUTO

      634    14587    9                      INST_WORD.Y.AR#   = REF$ -> REF.PR_TAG$ ->

  14587 44 001355   200231 470500                    LDP0    REF$,,AUTO
        44 001356   000004 471500                    LDP1    4,,PR0
        44 001357   100004 236100                    LDQ     4,,PR1
        44 001360   000022 772000                    QRL     18
        44 001361   000024 136007                    SBLQ    20,DL
        44 001362   000041 736000                    QLS     33
        44 001363   200075 676100                    ERQ     INST_WORD,,AUTO
        44 001364   700000 376003                    ANQ     -32768,DU
        44 001365   200075 656100                    ERSQ    INST_WORD,,AUTO

      635    14588    9                                         ETT.STATE - 20;
      636    14589    9                      IF REF$ -> REF.PR_TAG$ -> ETT.STATE =

  14589 44 001366   100004 236100                    LDQ     4,,PR1
        44 001367   000022 772000                    QRL     18
        44 001370   200155 116100                    CMPQ    POINTER_REGISTER,,AUTO
        44 001371   001401 601000 44                 TNZ     s:14593

      637    14590    9                         POINTER_REGISTER THEN   /* YIN 7/20/90 */
      638    14591    9                         CALL Z8HG$FREE_REGISTER(POINTER_REGISTER);

  14591 44 001372   200155 633500                    EPPR3   POINTER_REGISTER,,AUTO
        44 001373   200260 453500                    STP3    @TAG+2,,AUTO
        44 001374   200260 630500                    EPPR0   @TAG+2,,AUTO
        44 001375   000006 631400 45                 EPPR1   6
        44 001376   000000 701000 xent               TSX1    Z8HG$FREE_REGISTER
        44 001377   000000 011000                    NOP     0
        44 001400   001415 710000 44                 TRA     s:14624
PL6.E3A0      #001=Z8HI$BURST File=Z8HI.:Z8A6TSI                                 SAT 08/09/97 13:19 Page:161

      639    14592    9                      ELSE
      640    14593    9                         CALL Z8HU$DEC_COUNT (REF$ -> REF.PR_TAG$, 1);

  14593 44 001401   000017 236000 45                 LDQ     15
        44 001402   200261 756100                    STQ     @TAG+3,,AUTO
        44 001403   200231 236100                    LDQ     REF$,,AUTO
        44 001404   000004 036003                    ADLQ    4,DU
        44 001405   200260 756100                    STQ     @TAG+2,,AUTO
        44 001406   200260 630500                    EPPR0   @TAG+2,,AUTO
        44 001407   000015 631400 45                 EPPR1   13
        44 001410   000000 701000 xent               TSX1    Z8HU$DEC_COUNT
        44 001411   000000 011000                    NOP     0

      641    14594    9                    END;

  14594 44 001412   001415 710000 44                 TRA     s:14624

      642    14595    8                  ELSE
      643    14596    9                    DO;

      644    14597                           %IF USING_HALF_WORD_RELOCATION;
      645    14598    9                      MOD_KEY.B.HALF_REL = TRUE;

  14598 44 001413   000040 236007                    LDQ     32,DL
        44 001414   000000 256000 3                  ORSQ    MOD_KEY

      646    14599                           %ENDIF;
      647    14600    9                    END;

      648    14601    8                END;

      649    14602
      650    14603                   %NEW_WORD( @OU_WORD = INST_WORD ,
      651    14604                              @KEY     = MOD_KEY.KEY ,
      652    14605                              @ST$     = ST$$ );

PL6.E3A0      #001=Z8HI$BURST File=Z8HI.:Z8A6TSI                                 SAT 08/09/97 13:19 Page:162
  14624 44 001415   000002 236000 34                 LDQ     OBJ_+2
        44 001416   000004 036007                    ADLQ    4,DL
        44 001417   000003 116000 34                 CMPQ    OBJ_+3
        44 001420   001432 604000 44                 TMI     s:14630

  14626 44 001421   000000 234000 28                 SZN     PAGING_OBJ
        44 001422   001427 605000 44                 TPL     s:14628

  14627 44 001423   000020 630400 45                 EPPR0   16
        44 001424   000006 631400 45                 EPPR1   6
        44 001425   000000 701000 xent               TSX1    Z9HF$WRITE_OBJ_PAGE
        44 001426   000000 011000                    NOP     0

  14628 44 001427   000002 631400 45                 EPPR1   2
        44 001430   000000 701000 xent               TSX1    Z9HF$GET_OBJ_PAGE
        44 001431   000000 011000                    NOP     0

  14630 44 001432   000002 236000 34                 LDQ     OBJ_+2
        44 001433   000022 736000                    QLS     18
        44 001434   000001 036000 34                 ADLQ    OBJ_+1
        44 001435   000000 756000 27                 STQ     OBJ$

  14631 44 001436   000004 236007                    LDQ     4,DL
        44 001437   000002 056000 34                 ASQ     OBJ_+2

  14632 44 001440   001012 220003                    LDX0    522,DU
        44 001441   000000 470400 27                 LDP0    OBJ$
        44 001442   000000 740100                    STX0    0,,PR0

  14635 44 001443   200233 236100                    LDQ     ST$$,,AUTO
        44 001444   000000 470400 27                 LDP0    OBJ$
        44 001445   000002 756100                    STQ     2,,PR0

  14636 44 001446   000000 471400 4                  LDP1    CURRENT_BLOCK$
        44 001447   100002 236100                    LDQ     2,,PR1
        44 001450   000022 772000                    QRL     18
        44 001451   000001 756100                    STQ     1,,PR0
PL6.E3A0      #001=Z8HI$BURST File=Z8HI.:Z8A6TSI                                 SAT 08/09/97 13:19 Page:163

  14637 44 001452   000000 236000 3                  LDQ     MOD_KEY
        44 001453   000011 736000                    QLS     9
        44 001454   000000 552110                    STBQ    0,'10'O,PR0

  14639 44 001455   200075 236100                    LDQ     INST_WORD,,AUTO
        44 001456   000000 470400 27                 LDP0    OBJ$
        44 001457   000003 756100                    STQ     3,,PR0

  14646 44 001460   000000 471400 4                  LDP1    CURRENT_BLOCK$
        44 001461   100002 221100                    LDX1    2,,PR1
        44 001462   000001 622011                    EAX2    1,X1
        44 001463   100002 742100                    STX2    2,,PR1

  14647 44 001464   001471 601000 44                 TNZ     s:14652

  14648 44 001465   000022 630400 45                 EPPR0   18
        44 001466   000006 631400 45                 EPPR1   6
        44 001467   000000 701000 xent               TSX1    Z8AE$ERROR
        44 001470   000000 011000                    NOP     0

      653    14652    7              MOD_KEY.KEY = 0;

  14652 44 001471   000000 450000 3                  STZ     MOD_KEY

      654    14653    7            END EPP;

      655    14654
      656    14655    6            IF REF$ -> REF.ST$ -> SCALAR.TYPE = %TYB OR

  14655 44 001472   200231 470500                    LDP0    REF$,,AUTO
        44 001473   000005 471500                    LDP1    5,,PR0
        44 001474   100002 220100                    LDX0    2,,PR1
        44 001475   000014 100003                    CMPX0   12,DU
        44 001476   001501 600000 44                 TZE     s:14657
        44 001477   000023 100003                    CMPX0   19,DU
        44 001500   001504 601000 44                 TNZ     s:14658
PL6.E3A0      #001=Z8HI$BURST File=Z8HI.:Z8A6TSI                                 SAT 08/09/97 13:19 Page:164

      657    14656    6               REF$ -> REF.ST$ -> SCALAR.TYPE = %TYC THEN
      658    14657    6              AXBD = %A6BD_OP;

  14657 44 001501   000501 235007                    LDA     321,DL
        44 001502   200210 755100                    STA     AXBD,,AUTO
        44 001503   001516 710000 44                 TRA     s:14664

      659    14658    6            ELSE IF REF$ -> REF.ST$ -> SCALAR.TYPE = %TYD AND

  14658 44 001504   000000 100003                    CMPX0   0,DU
        44 001505   001514 601000 44                 TNZ     s:14662
        44 001506   000001 236100                    LDQ     1,,PR0
        44 001507   040000 316007                    CANQ    16384,DL
        44 001510   001514 600000 44                 TZE     s:14662

      660    14659    6               REF$ -> REF.NDSC.TN = %NDSC4 THEN
      661    14660    6              AXBD = %A4BD_OP;

  14660 44 001511   000502 235007                    LDA     322,DL
        44 001512   200210 755100                    STA     AXBD,,AUTO
        44 001513   001516 710000 44                 TRA     s:14664

      662    14661    6            ELSE
      663    14662    6              AXBD = %A9BD_OP;

  14662 44 001514   000500 235007                    LDA     320,DL
        44 001515   200210 755100                    STA     AXBD,,AUTO

      664    14663
      665    14664    6            IF SSOP AND ZERO_CN AND NOT IN_WORD_UNITS THEN

  14664 44 001516   200176 234100                    SZN     SSOP,,AUTO
        44 001517   001637 605000 44                 TPL     s:14730
        44 001520   200177 234100                    SZN     ZERO_CN,,AUTO
        44 001521   001637 605000 44                 TPL     s:14730
        44 001522   200201 234100                    SZN     IN_WORD_UNITS,,AUTO
PL6.E3A0      #001=Z8HI$BURST File=Z8HI.:Z8A6TSI                                 SAT 08/09/97 13:19 Page:165
        44 001523   001637 604000 44                 TMI     s:14730

      666    14665    7   AXBD:      DO;

  14665 44 001524                       AXBD         null
      667    14666    7                INST_WORD = '0'O;

  14666 44 001524   200075 450100                    STZ     INST_WORD,,AUTO

      668    14667
      669    14668    7                INST_WORD.LOW.OP_CODE = AXBD;

  14668 44 001525   200210 236100                    LDQ     AXBD,,AUTO
        44 001526   000011 736000                    QLS     9
        44 001527   200075 552110                    STBQ    INST_WORD,'10'O,AUTO

      670    14669    7                INST_WORD.LOW.EIS     = TRUE;

  14669 44 001530   000400 236007                    LDQ     256,DL
        44 001531   200075 256100                    ORSQ    INST_WORD,,AUTO

      671    14670
      672    14671    7                IF SSOP THEN

  14671 44 001532   200176 234100                    SZN     SSOP,,AUTO
        44 001533   001553 605000 44                 TPL     s:14677

      673    14672    8                  DO;

      674    14673    8                    INST_WORD.LOW.MF.TAG  =  REF$ -> REF.SSOP_TAG$ -> ETT.STATE;

  14673 44 001534   000002 473500                    LDP3    2,,PR0
        44 001535   300004 236100                    LDQ     4,,PR3
        44 001536   000022 772000                    QRL     18
        44 001537   200075 676100                    ERQ     INST_WORD,,AUTO
        44 001540   000017 376007                    ANQ     15,DL
        44 001541   200075 656100                    ERSQ    INST_WORD,,AUTO
PL6.E3A0      #001=Z8HI$BURST File=Z8HI.:Z8A6TSI                                 SAT 08/09/97 13:19 Page:166

      675    14674    8                    CALL Z8HU$DEC_COUNT(REF$ -> REF.SSOP_TAG$, 1);

  14674 44 001542   000017 236000 45                 LDQ     15
        44 001543   200261 756100                    STQ     @TAG+3,,AUTO
        44 001544   200231 236100                    LDQ     REF$,,AUTO
        44 001545   000002 036003                    ADLQ    2,DU
        44 001546   200260 756100                    STQ     @TAG+2,,AUTO
        44 001547   200260 630500                    EPPR0   @TAG+2,,AUTO
        44 001550   000015 631400 45                 EPPR1   13
        44 001551   000000 701000 xent               TSX1    Z8HU$DEC_COUNT
        44 001552   000000 011000                    NOP     0

      676    14675    8                  END;

      677    14676
      678    14677    7                INST_WORD.LOW.MF.AR   = TRUE;

  14677 44 001553   000100 236007                    LDQ     64,DL
        44 001554   200075 256100                    ORSQ    INST_WORD,,AUTO

      679    14678    7                INST_WORD.Y.AR#   = POINTER_REGISTER - 20;

  14678 44 001555   200155 236100                    LDQ     POINTER_REGISTER,,AUTO
        44 001556   000024 136007                    SBLQ    20,DL
        44 001557   000041 736000                    QLS     33
        44 001560   200075 676100                    ERQ     INST_WORD,,AUTO
        44 001561   700000 376003                    ANQ     -32768,DU
        44 001562   200075 656100                    ERSQ    INST_WORD,,AUTO

      680    14679
      681    14680                     %NEW_WORD( @OU_WORD = INST_WORD );

  14699 44 001563   000002 236000 34                 LDQ     OBJ_+2
        44 001564   000004 036007                    ADLQ    4,DL
        44 001565   000003 116000 34                 CMPQ    OBJ_+3
        44 001566   001600 604000 44                 TMI     s:14705
PL6.E3A0      #001=Z8HI$BURST File=Z8HI.:Z8A6TSI                                 SAT 08/09/97 13:19 Page:167

  14701 44 001567   000000 234000 28                 SZN     PAGING_OBJ
        44 001570   001575 605000 44                 TPL     s:14703

  14702 44 001571   000020 630400 45                 EPPR0   16
        44 001572   000006 631400 45                 EPPR1   6
        44 001573   000000 701000 xent               TSX1    Z9HF$WRITE_OBJ_PAGE
        44 001574   000000 011000                    NOP     0

  14703 44 001575   000002 631400 45                 EPPR1   2
        44 001576   000000 701000 xent               TSX1    Z9HF$GET_OBJ_PAGE
        44 001577   000000 011000                    NOP     0

  14705 44 001600   000002 236000 34                 LDQ     OBJ_+2
        44 001601   000022 736000                    QLS     18
        44 001602   000001 036000 34                 ADLQ    OBJ_+1
        44 001603   000000 756000 27                 STQ     OBJ$

  14706 44 001604   000004 236007                    LDQ     4,DL
        44 001605   000002 056000 34                 ASQ     OBJ_+2

  14707 44 001606   001012 220003                    LDX0    522,DU
        44 001607   000000 470400 27                 LDP0    OBJ$
        44 001610   000000 740100                    STX0    0,,PR0

  14710 44 001611   000007 236000 45                 LDQ     7
        44 001612   000000 470400 27                 LDP0    OBJ$
        44 001613   000002 756100                    STQ     2,,PR0

  14711 44 001614   000000 471400 4                  LDP1    CURRENT_BLOCK$
        44 001615   100002 236100                    LDQ     2,,PR1
        44 001616   000022 772000                    QRL     18
        44 001617   000001 756100                    STQ     1,,PR0

  14712 44 001620   000000 236003                    LDQ     0,DU
        44 001621   000000 552110                    STBQ    0,'10'O,PR0

PL6.E3A0      #001=Z8HI$BURST File=Z8HI.:Z8A6TSI                                 SAT 08/09/97 13:19 Page:168
  14714 44 001622   200075 236100                    LDQ     INST_WORD,,AUTO
        44 001623   000000 470400 27                 LDP0    OBJ$
        44 001624   000003 756100                    STQ     3,,PR0

  14721 44 001625   000000 471400 4                  LDP1    CURRENT_BLOCK$
        44 001626   100002 221100                    LDX1    2,,PR1
        44 001627   000001 622011                    EAX2    1,X1
        44 001630   100002 742100                    STX2    2,,PR1

  14722 44 001631   002541 601000 44                 TNZ     s:15085

  14723 44 001632   000022 630400 45                 EPPR0   18
        44 001633   000006 631400 45                 EPPR1   6
        44 001634   000000 701000 xent               TSX1    Z8AE$ERROR
        44 001635   000000 011000                    NOP     0

      682    14727
      683    14728    7              END AXBD;

  14728 44 001636   002541 710000 44                 TRA     s:15085

      684    14729    6            ELSE
      685    14730    6              IF NOT ZERO_CN OR (SSOP AND NOT IN_WORD_UNITS) THEN

  14730 44 001637   200177 234100                    SZN     ZERO_CN,,AUTO
        44 001640   001645 605000 44                 TPL     EAX_AXBD
        44 001641   200176 234100                    SZN     SSOP,,AUTO
        44 001642   002541 605000 44                 TPL     s:15085
        44 001643   200201 234100                    SZN     IN_WORD_UNITS,,AUTO
        44 001644   002541 604000 44                 TMI     s:15085

      686    14731    7   EAX_AXBD:     DO;

  14731 44 001645                       EAX_AXBD     null
      687    14732                        /* If the offset can be greater than
      688    14733                           256k then we have to use an arithmetic
      689    14734                           register for the tag  */
PL6.E3A0      #001=Z8HI$BURST File=Z8HI.:Z8A6TSI                                 SAT 08/09/97 13:19 Page:169
      690    14735
      691    14736    7                   IF SSOP AND REF$ -> REF.ST$ -> SCALAR.B.GREATER_256K  THEN

  14736 44 001645   200176 234100                    SZN     SSOP,,AUTO
        44 001646   002270 605000 44                 TPL     s:14948
        44 001647   100003 236100                    LDQ     3,,PR1
        44 001650   020000 316003                    CANQ    8192,DU
        44 001651   002270 600000 44                 TZE     s:14948

      692    14737    8                    DO;

      693    14738    8                      REGISTER = REF$ -> REF.SSOP_TAG$ -> ETT.STATE;

  14738 44 001652   000002 473500                    LDP3    2,,PR0
        44 001653   300004 236100                    LDQ     4,,PR3
        44 001654   000022 772000                    QRL     18
        44 001655   200156 756100                    STQ     REGISTER,,AUTO

      694    14739
      695    14740    8                      INST_WORD = '0'O;

  14740 44 001656   200075 450100                    STZ     INST_WORD,,AUTO

      696    14741    8                      IF REGISTER = %ARA THEN

  14741 44 001657   000005 116007                    CMPQ    5,DL
        44 001660   001664 601000 44                 TNZ     s:14744

      697    14742    8                        INST_WORD.LOW.OP_CODE = %ADLA_OP;

  14742 44 001661   035000 236007                    LDQ     14848,DL
        44 001662   200075 552110                    STBQ    INST_WORD,'10'O,AUTO
        44 001663   001666 710000 44                 TRA     s:14747

      698    14743    8                      ELSE
      699    14744    8                        INST_WORD.LOW.OP_CODE = %ADLQ_OP;

PL6.E3A0      #001=Z8HI$BURST File=Z8HI.:Z8A6TSI                                 SAT 08/09/97 13:19 Page:170
  14744 44 001664   036000 236007                    LDQ     15360,DL
        44 001665   200075 552110                    STBQ    INST_WORD,'10'O,AUTO

      700    14745                           %GET_CN(@ST$=REF$,@ST1$="REF$ -> REF.ST$",@RTN=INST_WORD.SA);

  14747 44 001666   000005 471500                    LDP1    5,,PR0
        44 001667   100002 220100                    LDX0    2,,PR1
        44 001670   000014 100003                    CMPX0   12,DU
        44 001671   001701 600000 44                 TZE     s:14751
        44 001672   000023 100003                    CMPX0   19,DU
        44 001673   001701 600000 44                 TZE     s:14751
        44 001674   000000 100003                    CMPX0   0,DU
        44 001675   001707 601000 44                 TNZ     s:14753
        44 001676   000001 236100                    LDQ     1,,PR0
        44 001677   040000 316007                    CANQ    16384,DL
        44 001700   001707 600000 44                 TZE     s:14753

  14751 44 001701   000001 236100                    LDQ     1,,PR0
        44 001702   000017 772000                    QRL     15
        44 001703   000007 376007                    ANQ     7,DL
        44 001704   000000 621006                    EAX1    0,QL
        44 001705   200075 741100                    STX1    INST_WORD,,AUTO
        44 001706   001714 710000 44                 TRA     s:14756

  14753 44 001707   000001 236100                    LDQ     1,,PR0
        44 001710   000020 772000                    QRL     16
        44 001711   000003 376007                    ANQ     3,DL
        44 001712   000000 621006                    EAX1    0,QL
        44 001713   200075 741100                    STX1    INST_WORD,,AUTO

      701    14756    8                      IF COMCOM.OB.COBOL_74 AND

  14756 44 001714   000015 234000 xsym               SZN     COMCOM+13
        44 001715   001736 605000 44                 TPL     s:14762
        44 001716   200003 473500                    LDP3    @PILL,,AUTO
        44 001717   300000 474500                    LDP4    0,,PR3
        44 001720   400000 222100                    LDX2    0,,PR4
PL6.E3A0      #001=Z8HI$BURST File=Z8HI.:Z8A6TSI                                 SAT 08/09/97 13:19 Page:171
        44 001721   000363 102003                    CMPX2   243,DU
        44 001722   001736 601000 44                 TNZ     s:14762
        44 001723   000001 236100                    LDQ     1,,PR0
        44 001724   040000 316007                    CANQ    16384,DL
        44 001725   001736 600000 44                 TZE     s:14762
        44 001726   000000 100003                    CMPX0   0,DU
        44 001727   001736 601000 44                 TNZ     s:14762
        44 001730   100003 236100                    LDQ     3,,PR1
        44 001731   000200 316007                    CANQ    128,DL
        44 001732   001736 601000 44                 TNZ     s:14762

      702    14757    8                         PILL -> ILL.ID = %USER_CALL AND
      703    14758    8                         REF$ -> REF.NDSC.TN = %NDSC4 AND
      704    14759    8                          REF$ -> REF.ST$ -> SCALAR.TYPE = %TYD AND
      705    14760    8                          NOT REF$ -> REF.ST$ -> SCALAR.B.DIGIT THEN
      706    14761    8                        INST_WORD = INST_WORD & '777776777777'O;

  14761 44 001733   200075 236100                    LDQ     INST_WORD,,AUTO
        44 001734   000167 376000 42                 ANQ     DSTATE_TYP+29
        44 001735   200075 756100                    STQ     INST_WORD,,AUTO

      707    14762    8                      INST_WORD.LOW.MF.TAG = %DL;

  14762 44 001736   200075 236100                    LDQ     INST_WORD,,AUTO
        44 001737   000025 376000 45                 ANQ     21
        44 001740   000007 276007                    ORQ     7,DL
        44 001741   200075 756100                    STQ     INST_WORD,,AUTO

      708    14763
      709    14764                           %NEW_WORD(@OU_WORD=INST_WORD);

  14783 44 001742   000002 236000 34                 LDQ     OBJ_+2
        44 001743   000004 036007                    ADLQ    4,DL
        44 001744   000003 116000 34                 CMPQ    OBJ_+3
        44 001745   001757 604000 44                 TMI     s:14789

  14785 44 001746   000000 234000 28                 SZN     PAGING_OBJ
PL6.E3A0      #001=Z8HI$BURST File=Z8HI.:Z8A6TSI                                 SAT 08/09/97 13:19 Page:172
        44 001747   001754 605000 44                 TPL     s:14787

  14786 44 001750   000020 630400 45                 EPPR0   16
        44 001751   000006 631400 45                 EPPR1   6
        44 001752   000000 701000 xent               TSX1    Z9HF$WRITE_OBJ_PAGE
        44 001753   000000 011000                    NOP     0

  14787 44 001754   000002 631400 45                 EPPR1   2
        44 001755   000000 701000 xent               TSX1    Z9HF$GET_OBJ_PAGE
        44 001756   000000 011000                    NOP     0

  14789 44 001757   000002 236000 34                 LDQ     OBJ_+2
        44 001760   000022 736000                    QLS     18
        44 001761   000001 036000 34                 ADLQ    OBJ_+1
        44 001762   000000 756000 27                 STQ     OBJ$

  14790 44 001763   000004 236007                    LDQ     4,DL
        44 001764   000002 056000 34                 ASQ     OBJ_+2

  14791 44 001765   001012 220003                    LDX0    522,DU
        44 001766   000000 470400 27                 LDP0    OBJ$
        44 001767   000000 740100                    STX0    0,,PR0

  14794 44 001770   000007 236000 45                 LDQ     7
        44 001771   000000 470400 27                 LDP0    OBJ$
        44 001772   000002 756100                    STQ     2,,PR0

  14795 44 001773   000000 471400 4                  LDP1    CURRENT_BLOCK$
        44 001774   100002 236100                    LDQ     2,,PR1
        44 001775   000022 772000                    QRL     18
        44 001776   000001 756100                    STQ     1,,PR0

  14796 44 001777   000000 236003                    LDQ     0,DU
        44 002000   000000 552110                    STBQ    0,'10'O,PR0

  14798 44 002001   200075 236100                    LDQ     INST_WORD,,AUTO
        44 002002   000000 470400 27                 LDP0    OBJ$
PL6.E3A0      #001=Z8HI$BURST File=Z8HI.:Z8A6TSI                                 SAT 08/09/97 13:19 Page:173
        44 002003   000003 756100                    STQ     3,,PR0

  14805 44 002004   000000 471400 4                  LDP1    CURRENT_BLOCK$
        44 002005   100002 221100                    LDX1    2,,PR1
        44 002006   000001 622011                    EAX2    1,X1
        44 002007   100002 742100                    STX2    2,,PR1

  14806 44 002010   002015 601000 44                 TNZ     s:14812

  14807 44 002011   000022 630400 45                 EPPR0   18
        44 002012   000006 631400 45                 EPPR1   6
        44 002013   000000 701000 xent               TSX1    Z8AE$ERROR
        44 002014   000000 011000                    NOP     0

      710    14811
      711    14812    8                      INST_WORD = '0'O;

  14812 44 002015   200075 450100                    STZ     INST_WORD,,AUTO

      712    14813    8                      INST_WORD.LOW.OP_CODE = AXBD;

  14813 44 002016   200210 236100                    LDQ     AXBD,,AUTO
        44 002017   000011 736000                    QLS     9
        44 002020   200075 552110                    STBQ    INST_WORD,'10'O,AUTO

      713    14814    8                      INST_WORD.LOW.EIS = TRUE;

  14814 44 002021   000400 236007                    LDQ     256,DL
        44 002022   200075 256100                    ORSQ    INST_WORD,,AUTO

      714    14815    8                      INST_WORD.LOW.MF.TAG = REGISTER;

  14815 44 002023   200156 236100                    LDQ     REGISTER,,AUTO
        44 002024   200075 676100                    ERQ     INST_WORD,,AUTO
        44 002025   000017 376007                    ANQ     15,DL
        44 002026   200075 656100                    ERSQ    INST_WORD,,AUTO

PL6.E3A0      #001=Z8HI$BURST File=Z8HI.:Z8A6TSI                                 SAT 08/09/97 13:19 Page:174
      715    14816    8                      INST_WORD.LOW.MF.AR = TRUE;

  14816 44 002027   000100 236007                    LDQ     64,DL
        44 002030   200075 256100                    ORSQ    INST_WORD,,AUTO

      716    14817    8                      INST_WORD.Y.AR# = POINTER_REGISTER - 20;

  14817 44 002031   200155 236100                    LDQ     POINTER_REGISTER,,AUTO
        44 002032   000024 136007                    SBLQ    20,DL
        44 002033   000041 736000                    QLS     33
        44 002034   200075 676100                    ERQ     INST_WORD,,AUTO
        44 002035   700000 376003                    ANQ     -32768,DU
        44 002036   200075 656100                    ERSQ    INST_WORD,,AUTO

      717    14818
      718    14819                           %NEW_WORD(@OU_WORD=INST_WORD);

  14838 44 002037   000002 236000 34                 LDQ     OBJ_+2
        44 002040   000004 036007                    ADLQ    4,DL
        44 002041   000003 116000 34                 CMPQ    OBJ_+3
        44 002042   002054 604000 44                 TMI     s:14844

  14840 44 002043   000000 234000 28                 SZN     PAGING_OBJ
        44 002044   002051 605000 44                 TPL     s:14842

  14841 44 002045   000020 630400 45                 EPPR0   16
        44 002046   000006 631400 45                 EPPR1   6
        44 002047   000000 701000 xent               TSX1    Z9HF$WRITE_OBJ_PAGE
        44 002050   000000 011000                    NOP     0

  14842 44 002051   000002 631400 45                 EPPR1   2
        44 002052   000000 701000 xent               TSX1    Z9HF$GET_OBJ_PAGE
        44 002053   000000 011000                    NOP     0

  14844 44 002054   000002 236000 34                 LDQ     OBJ_+2
        44 002055   000022 736000                    QLS     18
        44 002056   000001 036000 34                 ADLQ    OBJ_+1
PL6.E3A0      #001=Z8HI$BURST File=Z8HI.:Z8A6TSI                                 SAT 08/09/97 13:19 Page:175
        44 002057   000000 756000 27                 STQ     OBJ$

  14845 44 002060   000004 236007                    LDQ     4,DL
        44 002061   000002 056000 34                 ASQ     OBJ_+2

  14846 44 002062   001012 220003                    LDX0    522,DU
        44 002063   000000 470400 27                 LDP0    OBJ$
        44 002064   000000 740100                    STX0    0,,PR0

  14849 44 002065   000007 236000 45                 LDQ     7
        44 002066   000000 470400 27                 LDP0    OBJ$
        44 002067   000002 756100                    STQ     2,,PR0

  14850 44 002070   000000 471400 4                  LDP1    CURRENT_BLOCK$
        44 002071   100002 236100                    LDQ     2,,PR1
        44 002072   000022 772000                    QRL     18
        44 002073   000001 756100                    STQ     1,,PR0

  14851 44 002074   000000 236003                    LDQ     0,DU
        44 002075   000000 552110                    STBQ    0,'10'O,PR0

  14853 44 002076   200075 236100                    LDQ     INST_WORD,,AUTO
        44 002077   000000 470400 27                 LDP0    OBJ$
        44 002100   000003 756100                    STQ     3,,PR0

  14860 44 002101   000000 471400 4                  LDP1    CURRENT_BLOCK$
        44 002102   100002 221100                    LDX1    2,,PR1
        44 002103   000001 622011                    EAX2    1,X1
        44 002104   100002 742100                    STX2    2,,PR1

  14861 44 002105   002112 601000 44                 TNZ     s:14867

  14862 44 002106   000022 630400 45                 EPPR0   18
        44 002107   000006 631400 45                 EPPR1   6
        44 002110   000000 701000 xent               TSX1    Z8AE$ERROR
        44 002111   000000 011000                    NOP     0

PL6.E3A0      #001=Z8HI$BURST File=Z8HI.:Z8A6TSI                                 SAT 08/09/97 13:19 Page:176
      719    14866
      720    14867    8                      CALL Z8HU$DEC_COUNT(REF$ -> REF.SSOP_TAG$, 1);

  14867 44 002112   000017 236000 45                 LDQ     15
        44 002113   200261 756100                    STQ     @TAG+3,,AUTO
        44 002114   200231 236100                    LDQ     REF$,,AUTO
        44 002115   000002 036003                    ADLQ    2,DU
        44 002116   200260 756100                    STQ     @TAG+2,,AUTO
        44 002117   200260 630500                    EPPR0   @TAG+2,,AUTO
        44 002120   000015 631400 45                 EPPR1   13
        44 002121   000000 701000 xent               TSX1    Z8HU$DEC_COUNT
        44 002122   000000 011000                    NOP     0

      721    14868    8                      IF REF$ -> REF.SSOP_TAG$ -> ETT.COUNT > 0 THEN

  14868 44 002123   200231 470500                    LDP0    REF$,,AUTO
        44 002124   000002 471500                    LDP1    2,,PR0
        44 002125   100000 720100                    LXL0    0,,PR1
        44 002126   002541 600000 44                 TZE     s:15085

      722    14869    9                        DO;

      723    14870                   /*     Restore the A or Q Reg.  May not be needed but we don't know   */
      724    14871
      725    14872    9                          INST_WORD = '0'O;

  14872 44 002127   200075 450100                    STZ     INST_WORD,,AUTO

      726    14873    9                          IF REGISTER = %ARA THEN

  14873 44 002130   200156 235100                    LDA     REGISTER,,AUTO
        44 002131   000005 115007                    CMPA    5,DL
        44 002132   002136 601000 44                 TNZ     s:14876

      727    14874    9                            INST_WORD.LOW.OP_CODE = %SBLA_OP;

  14874 44 002133   135000 236007                    LDQ     47616,DL
PL6.E3A0      #001=Z8HI$BURST File=Z8HI.:Z8A6TSI                                 SAT 08/09/97 13:19 Page:177
        44 002134   200075 552110                    STBQ    INST_WORD,'10'O,AUTO
        44 002135   002140 710000 44                 TRA     s:14879

      728    14875    9                          ELSE
      729    14876    9                            INST_WORD.LOW.OP_CODE = %SBLQ_OP;

  14876 44 002136   136000 236007                    LDQ     48128,DL
        44 002137   200075 552110                    STBQ    INST_WORD,'10'O,AUTO

      730    14877                              %GET_CN(@ST$=REF$,@ST1$="REF$ -> REF.ST$",@RTN=INST_WORD.SA);

  14879 44 002140   000005 473500                    LDP3    5,,PR0
        44 002141   300002 221100                    LDX1    2,,PR3
        44 002142   000014 101003                    CMPX1   12,DU
        44 002143   002153 600000 44                 TZE     s:14883
        44 002144   000023 101003                    CMPX1   19,DU
        44 002145   002153 600000 44                 TZE     s:14883
        44 002146   000000 101003                    CMPX1   0,DU
        44 002147   002161 601000 44                 TNZ     s:14885
        44 002150   000001 236100                    LDQ     1,,PR0
        44 002151   040000 316007                    CANQ    16384,DL
        44 002152   002161 600000 44                 TZE     s:14885

  14883 44 002153   000001 236100                    LDQ     1,,PR0
        44 002154   000017 772000                    QRL     15
        44 002155   000007 376007                    ANQ     7,DL
        44 002156   000000 622006                    EAX2    0,QL
        44 002157   200075 742100                    STX2    INST_WORD,,AUTO
        44 002160   002166 710000 44                 TRA     s:14888

  14885 44 002161   000001 236100                    LDQ     1,,PR0
        44 002162   000020 772000                    QRL     16
        44 002163   000003 376007                    ANQ     3,DL
        44 002164   000000 622006                    EAX2    0,QL
        44 002165   200075 742100                    STX2    INST_WORD,,AUTO

      731    14888    9                          IF COMCOM.OB.COBOL_74 AND
PL6.E3A0      #001=Z8HI$BURST File=Z8HI.:Z8A6TSI                                 SAT 08/09/97 13:19 Page:178

  14888 44 002166   000015 234000 xsym               SZN     COMCOM+13
        44 002167   002210 605000 44                 TPL     s:14894
        44 002170   200003 474500                    LDP4    @PILL,,AUTO
        44 002171   400000 475500                    LDP5    0,,PR4
        44 002172   500000 223100                    LDX3    0,,PR5
        44 002173   000363 103003                    CMPX3   243,DU
        44 002174   002210 601000 44                 TNZ     s:14894
        44 002175   000001 236100                    LDQ     1,,PR0
        44 002176   040000 316007                    CANQ    16384,DL
        44 002177   002210 600000 44                 TZE     s:14894
        44 002200   000000 101003                    CMPX1   0,DU
        44 002201   002210 601000 44                 TNZ     s:14894
        44 002202   300003 236100                    LDQ     3,,PR3
        44 002203   000200 316007                    CANQ    128,DL
        44 002204   002210 601000 44                 TNZ     s:14894

      732    14889    9                             PILL -> ILL.ID = %USER_CALL AND
      733    14890    9                             REF$ -> REF.NDSC.TN = %NDSC4 AND
      734    14891    9                              REF$ -> REF.ST$ -> SCALAR.TYPE = %TYD AND
      735    14892    9                              NOT REF$ -> REF.ST$ -> SCALAR.B.DIGIT THEN
      736    14893    9                            INST_WORD = INST_WORD & '777776777777'O;

  14893 44 002205   200075 236100                    LDQ     INST_WORD,,AUTO
        44 002206   000167 376000 42                 ANQ     DSTATE_TYP+29
        44 002207   200075 756100                    STQ     INST_WORD,,AUTO

      737    14894    9                          INST_WORD.LOW.MF.TAG = %DL;

  14894 44 002210   200075 236100                    LDQ     INST_WORD,,AUTO
        44 002211   000025 376000 45                 ANQ     21
        44 002212   000007 276007                    ORQ     7,DL
        44 002213   200075 756100                    STQ     INST_WORD,,AUTO

      738    14895
      739    14896                               %NEW_WORD(@OU_WORD=INST_WORD);

PL6.E3A0      #001=Z8HI$BURST File=Z8HI.:Z8A6TSI                                 SAT 08/09/97 13:19 Page:179
  14915 44 002214   000002 236000 34                 LDQ     OBJ_+2
        44 002215   000004 036007                    ADLQ    4,DL
        44 002216   000003 116000 34                 CMPQ    OBJ_+3
        44 002217   002231 604000 44                 TMI     s:14921

  14917 44 002220   000000 234000 28                 SZN     PAGING_OBJ
        44 002221   002226 605000 44                 TPL     s:14919

  14918 44 002222   000020 630400 45                 EPPR0   16
        44 002223   000006 631400 45                 EPPR1   6
        44 002224   000000 701000 xent               TSX1    Z9HF$WRITE_OBJ_PAGE
        44 002225   000000 011000                    NOP     0

  14919 44 002226   000002 631400 45                 EPPR1   2
        44 002227   000000 701000 xent               TSX1    Z9HF$GET_OBJ_PAGE
        44 002230   000000 011000                    NOP     0

  14921 44 002231   000002 236000 34                 LDQ     OBJ_+2
        44 002232   000022 736000                    QLS     18
        44 002233   000001 036000 34                 ADLQ    OBJ_+1
        44 002234   000000 756000 27                 STQ     OBJ$

  14922 44 002235   000004 236007                    LDQ     4,DL
        44 002236   000002 056000 34                 ASQ     OBJ_+2

  14923 44 002237   001012 220003                    LDX0    522,DU
        44 002240   000000 470400 27                 LDP0    OBJ$
        44 002241   000000 740100                    STX0    0,,PR0

  14926 44 002242   000007 236000 45                 LDQ     7
        44 002243   000000 470400 27                 LDP0    OBJ$
        44 002244   000002 756100                    STQ     2,,PR0

  14927 44 002245   000000 471400 4                  LDP1    CURRENT_BLOCK$
        44 002246   100002 236100                    LDQ     2,,PR1
        44 002247   000022 772000                    QRL     18
        44 002250   000001 756100                    STQ     1,,PR0
PL6.E3A0      #001=Z8HI$BURST File=Z8HI.:Z8A6TSI                                 SAT 08/09/97 13:19 Page:180

  14928 44 002251   000000 236003                    LDQ     0,DU
        44 002252   000000 552110                    STBQ    0,'10'O,PR0

  14930 44 002253   200075 236100                    LDQ     INST_WORD,,AUTO
        44 002254   000000 470400 27                 LDP0    OBJ$
        44 002255   000003 756100                    STQ     3,,PR0

  14937 44 002256   000000 471400 4                  LDP1    CURRENT_BLOCK$
        44 002257   100002 221100                    LDX1    2,,PR1
        44 002260   000001 622011                    EAX2    1,X1
        44 002261   100002 742100                    STX2    2,,PR1

  14938 44 002262   002541 601000 44                 TNZ     s:15085

  14939 44 002263   000022 630400 45                 EPPR0   18
        44 002264   000006 631400 45                 EPPR1   6
        44 002265   000000 701000 xent               TSX1    Z8AE$ERROR
        44 002266   000000 011000                    NOP     0

      740    14943
      741    14944    9                        END;

      742    14945    8                    END;

  14945 44 002267   002541 710000 44                 TRA     s:15085

      743    14946    7                  ELSE
      744    14947    8                    DO;

      745    14948    8                      CALL Z8HG$FREE_REGISTER(%XR0);

  14948 44 002270   000026 630400 45                 EPPR0   22
        44 002271   000006 631400 45                 EPPR1   6
        44 002272   000000 701000 xent               TSX1    Z8HG$FREE_REGISTER
        44 002273   000000 011000                    NOP     0

PL6.E3A0      #001=Z8HI$BURST File=Z8HI.:Z8A6TSI                                 SAT 08/09/97 13:19 Page:181
      746    14949
      747    14950    8                      INST_WORD = '0'O;

  14950 44 002274   200075 450100                    STZ     INST_WORD,,AUTO

      748    14951
      749    14952    8                      INST_WORD.LOW.OP_CODE = %EAX0_OP + (%XR0 - 8);

  14952 44 002275   620000 236007                    LDQ     -57344,DL
        44 002276   200075 552110                    STBQ    INST_WORD,'10'O,AUTO

      750    14953                           %GET_CN(@ST$=REF$,@ST1$="REF$ -> REF.ST$",@RTN=INST_WORD.SA);

  14955 44 002277   200231 470500                    LDP0    REF$,,AUTO
        44 002300   000005 471500                    LDP1    5,,PR0
        44 002301   100002 220100                    LDX0    2,,PR1
        44 002302   000014 100003                    CMPX0   12,DU
        44 002303   002313 600000 44                 TZE     s:14959
        44 002304   000023 100003                    CMPX0   19,DU
        44 002305   002313 600000 44                 TZE     s:14959
        44 002306   000000 100003                    CMPX0   0,DU
        44 002307   002321 601000 44                 TNZ     s:14961
        44 002310   000001 236100                    LDQ     1,,PR0
        44 002311   040000 316007                    CANQ    16384,DL
        44 002312   002321 600000 44                 TZE     s:14961

  14959 44 002313   000001 236100                    LDQ     1,,PR0
        44 002314   000017 772000                    QRL     15
        44 002315   000007 376007                    ANQ     7,DL
        44 002316   000000 621006                    EAX1    0,QL
        44 002317   200075 741100                    STX1    INST_WORD,,AUTO
        44 002320   002326 710000 44                 TRA     s:14964

  14961 44 002321   000001 236100                    LDQ     1,,PR0
        44 002322   000020 772000                    QRL     16
        44 002323   000003 376007                    ANQ     3,DL
        44 002324   000000 621006                    EAX1    0,QL
PL6.E3A0      #001=Z8HI$BURST File=Z8HI.:Z8A6TSI                                 SAT 08/09/97 13:19 Page:182
        44 002325   200075 741100                    STX1    INST_WORD,,AUTO

      751    14964    8                      IF COMCOM.OB.COBOL_74 AND

  14964 44 002326   000015 234000 xsym               SZN     COMCOM+13
        44 002327   002350 605000 44                 TPL     s:14971
        44 002330   200003 473500                    LDP3    @PILL,,AUTO
        44 002331   300000 474500                    LDP4    0,,PR3
        44 002332   400000 222100                    LDX2    0,,PR4
        44 002333   000363 102003                    CMPX2   243,DU
        44 002334   002350 601000 44                 TNZ     s:14971
        44 002335   000001 236100                    LDQ     1,,PR0
        44 002336   040000 316007                    CANQ    16384,DL
        44 002337   002350 600000 44                 TZE     s:14971
        44 002340   000000 100003                    CMPX0   0,DU
        44 002341   002350 601000 44                 TNZ     s:14971
        44 002342   100003 236100                    LDQ     3,,PR1
        44 002343   000200 316007                    CANQ    128,DL
        44 002344   002350 601000 44                 TNZ     s:14971

      752    14965    8                         PILL -> ILL.ID = %USER_CALL AND
      753    14966    8                         REF$ -> REF.NDSC.TN = %NDSC4 AND
      754    14967    8                          REF$ -> REF.ST$ -> SCALAR.TYPE = %TYD AND
      755    14968    8                          NOT REF$ -> REF.ST$ -> SCALAR.B.DIGIT THEN
      756    14969    8                        INST_WORD = INST_WORD & '777776777777'O;

  14969 44 002345   200075 236100                    LDQ     INST_WORD,,AUTO
        44 002346   000167 376000 42                 ANQ     DSTATE_TYP+29
        44 002347   200075 756100                    STQ     INST_WORD,,AUTO

      757    14970
      758    14971    8                      IF SSOP THEN

  14971 44 002350   200176 234100                    SZN     SSOP,,AUTO
        44 002351   002371 605000 44                 TPL     s:14997

      759    14972    9                        DO;
PL6.E3A0      #001=Z8HI$BURST File=Z8HI.:Z8A6TSI                                 SAT 08/09/97 13:19 Page:183

      760    14973    9                          INST_WORD.LOW.MF.TAG  = REF$ -> REF.SSOP_TAG$ -> ETT.STATE;

  14973 44 002352   000002 473500                    LDP3    2,,PR0
        44 002353   300004 236100                    LDQ     4,,PR3
        44 002354   000022 772000                    QRL     18
        44 002355   200075 676100                    ERQ     INST_WORD,,AUTO
        44 002356   000017 376007                    ANQ     15,DL
        44 002357   200075 656100                    ERSQ    INST_WORD,,AUTO

      761    14974    9                          CALL Z8HU$DEC_COUNT(REF$ -> REF.SSOP_TAG$, 1);

  14974 44 002360   000017 236000 45                 LDQ     15
        44 002361   200261 756100                    STQ     @TAG+3,,AUTO
        44 002362   200231 236100                    LDQ     REF$,,AUTO
        44 002363   000002 036003                    ADLQ    2,DU
        44 002364   200260 756100                    STQ     @TAG+2,,AUTO
        44 002365   200260 630500                    EPPR0   @TAG+2,,AUTO
        44 002366   000015 631400 45                 EPPR1   13
        44 002367   000000 701000 xent               TSX1    Z8HU$DEC_COUNT
        44 002370   000000 011000                    NOP     0

      762    14975    9                        END;

      763    14976
      764    14977
      765    14978                           %NEW_WORD( @OU_WORD = INST_WORD );

  14997 44 002371   000002 236000 34                 LDQ     OBJ_+2
        44 002372   000004 036007                    ADLQ    4,DL
        44 002373   000003 116000 34                 CMPQ    OBJ_+3
        44 002374   002406 604000 44                 TMI     s:15003

  14999 44 002375   000000 234000 28                 SZN     PAGING_OBJ
        44 002376   002403 605000 44                 TPL     s:15001

  15000 44 002377   000020 630400 45                 EPPR0   16
PL6.E3A0      #001=Z8HI$BURST File=Z8HI.:Z8A6TSI                                 SAT 08/09/97 13:19 Page:184
        44 002400   000006 631400 45                 EPPR1   6
        44 002401   000000 701000 xent               TSX1    Z9HF$WRITE_OBJ_PAGE
        44 002402   000000 011000                    NOP     0

  15001 44 002403   000002 631400 45                 EPPR1   2
        44 002404   000000 701000 xent               TSX1    Z9HF$GET_OBJ_PAGE
        44 002405   000000 011000                    NOP     0

  15003 44 002406   000002 236000 34                 LDQ     OBJ_+2
        44 002407   000022 736000                    QLS     18
        44 002410   000001 036000 34                 ADLQ    OBJ_+1
        44 002411   000000 756000 27                 STQ     OBJ$

  15004 44 002412   000004 236007                    LDQ     4,DL
        44 002413   000002 056000 34                 ASQ     OBJ_+2

  15005 44 002414   001012 220003                    LDX0    522,DU
        44 002415   000000 470400 27                 LDP0    OBJ$
        44 002416   000000 740100                    STX0    0,,PR0

  15008 44 002417   000007 236000 45                 LDQ     7
        44 002420   000000 470400 27                 LDP0    OBJ$
        44 002421   000002 756100                    STQ     2,,PR0

  15009 44 002422   000000 471400 4                  LDP1    CURRENT_BLOCK$
        44 002423   100002 236100                    LDQ     2,,PR1
        44 002424   000022 772000                    QRL     18
        44 002425   000001 756100                    STQ     1,,PR0

  15010 44 002426   000000 236003                    LDQ     0,DU
        44 002427   000000 552110                    STBQ    0,'10'O,PR0

  15012 44 002430   200075 236100                    LDQ     INST_WORD,,AUTO
        44 002431   000000 470400 27                 LDP0    OBJ$
        44 002432   000003 756100                    STQ     3,,PR0

  15019 44 002433   000000 471400 4                  LDP1    CURRENT_BLOCK$
PL6.E3A0      #001=Z8HI$BURST File=Z8HI.:Z8A6TSI                                 SAT 08/09/97 13:19 Page:185
        44 002434   100002 221100                    LDX1    2,,PR1
        44 002435   000001 622011                    EAX2    1,X1
        44 002436   100002 742100                    STX2    2,,PR1

  15020 44 002437   002444 601000 44                 TNZ     s:15026

  15021 44 002440   000022 630400 45                 EPPR0   18
        44 002441   000006 631400 45                 EPPR1   6
        44 002442   000000 701000 xent               TSX1    Z8AE$ERROR
        44 002443   000000 011000                    NOP     0

      766    15025
      767    15026    8                      INST_WORD = '0'O;

  15026 44 002444   200075 450100                    STZ     INST_WORD,,AUTO

      768    15027
      769    15028    8                      INST_WORD.LOW.OP_CODE = AXBD;

  15028 44 002445   200210 236100                    LDQ     AXBD,,AUTO
        44 002446   000011 736000                    QLS     9
        44 002447   200075 552110                    STBQ    INST_WORD,'10'O,AUTO

      770    15029    8                      INST_WORD.LOW.EIS     = TRUE;

  15029 44 002450   000400 236007                    LDQ     256,DL
        44 002451   200075 256100                    ORSQ    INST_WORD,,AUTO

      771    15030    8                      INST_WORD.LOW.MF.TAG  = %XR0;

  15030 44 002452   200075 236100                    LDQ     INST_WORD,,AUTO
        44 002453   000025 376000 45                 ANQ     21
        44 002454   000010 276007                    ORQ     8,DL
        44 002455   200075 756100                    STQ     INST_WORD,,AUTO

      772    15031    8                      INST_WORD.LOW.MF.AR   = TRUE;

PL6.E3A0      #001=Z8HI$BURST File=Z8HI.:Z8A6TSI                                 SAT 08/09/97 13:19 Page:186
  15031 44 002456   000100 236007                    LDQ     64,DL
        44 002457   200075 256100                    ORSQ    INST_WORD,,AUTO

      773    15032    8                      INST_WORD.Y.AR#   = POINTER_REGISTER - 20;

  15032 44 002460   200155 236100                    LDQ     POINTER_REGISTER,,AUTO
        44 002461   000024 136007                    SBLQ    20,DL
        44 002462   000041 736000                    QLS     33
        44 002463   200075 676100                    ERQ     INST_WORD,,AUTO
        44 002464   700000 376003                    ANQ     -32768,DU
        44 002465   200075 656100                    ERSQ    INST_WORD,,AUTO

      774    15033
      775    15034                           %NEW_WORD( @OU_WORD = INST_WORD );

  15053 44 002466   000002 236000 34                 LDQ     OBJ_+2
        44 002467   000004 036007                    ADLQ    4,DL
        44 002470   000003 116000 34                 CMPQ    OBJ_+3
        44 002471   002503 604000 44                 TMI     s:15059

  15055 44 002472   000000 234000 28                 SZN     PAGING_OBJ
        44 002473   002500 605000 44                 TPL     s:15057

  15056 44 002474   000020 630400 45                 EPPR0   16
        44 002475   000006 631400 45                 EPPR1   6
        44 002476   000000 701000 xent               TSX1    Z9HF$WRITE_OBJ_PAGE
        44 002477   000000 011000                    NOP     0

  15057 44 002500   000002 631400 45                 EPPR1   2
        44 002501   000000 701000 xent               TSX1    Z9HF$GET_OBJ_PAGE
        44 002502   000000 011000                    NOP     0

  15059 44 002503   000002 236000 34                 LDQ     OBJ_+2
        44 002504   000022 736000                    QLS     18
        44 002505   000001 036000 34                 ADLQ    OBJ_+1
        44 002506   000000 756000 27                 STQ     OBJ$

PL6.E3A0      #001=Z8HI$BURST File=Z8HI.:Z8A6TSI                                 SAT 08/09/97 13:19 Page:187
  15060 44 002507   000004 236007                    LDQ     4,DL
        44 002510   000002 056000 34                 ASQ     OBJ_+2

  15061 44 002511   001012 220003                    LDX0    522,DU
        44 002512   000000 470400 27                 LDP0    OBJ$
        44 002513   000000 740100                    STX0    0,,PR0

  15064 44 002514   000007 236000 45                 LDQ     7
        44 002515   000000 470400 27                 LDP0    OBJ$
        44 002516   000002 756100                    STQ     2,,PR0

  15065 44 002517   000000 471400 4                  LDP1    CURRENT_BLOCK$
        44 002520   100002 236100                    LDQ     2,,PR1
        44 002521   000022 772000                    QRL     18
        44 002522   000001 756100                    STQ     1,,PR0

  15066 44 002523   000000 236003                    LDQ     0,DU
        44 002524   000000 552110                    STBQ    0,'10'O,PR0

  15068 44 002525   200075 236100                    LDQ     INST_WORD,,AUTO
        44 002526   000000 470400 27                 LDP0    OBJ$
        44 002527   000003 756100                    STQ     3,,PR0

  15075 44 002530   000000 471400 4                  LDP1    CURRENT_BLOCK$
        44 002531   100002 221100                    LDX1    2,,PR1
        44 002532   000001 622011                    EAX2    1,X1
        44 002533   100002 742100                    STX2    2,,PR1

  15076 44 002534   002541 601000 44                 TNZ     s:15085

  15077 44 002535   000022 630400 45                 EPPR0   18
        44 002536   000006 631400 45                 EPPR1   6
        44 002537   000000 701000 xent               TSX1    Z8AE$ERROR
        44 002540   000000 011000                    NOP     0

      776    15081    8                    END;

PL6.E3A0      #001=Z8HI$BURST File=Z8HI.:Z8A6TSI                                 SAT 08/09/97 13:19 Page:188
      777    15082    7                 END EAX_AXBD;

      778    15083    6            END;

      779    15084
      780    15085    5             IF STORAGE_TARGET THEN

  15085 44 002541   200175 234100                    SZN     STORAGE_TARGET,,AUTO
        44 002542   003174 605000 44                 TPL     s:15363

      781    15086    6               DO;

      782    15087    6                 INST_WORD = '0'O;

  15087 44 002543   200075 450100                    STZ     INST_WORD,,AUTO

      783    15088
      784    15089    6                 INST_WORD.LOW.OP_CODE = %STP0_OP + (POINTER_REGISTER - 20);

  15089 44 002544   200155 236100                    LDQ     POINTER_REGISTER,,AUTO
        44 002545   000424 036007                    ADLQ    276,DL
        44 002546   000011 736000                    QLS     9
        44 002547   200075 552110                    STBQ    INST_WORD,'10'O,AUTO

      785    15090    6                 INST_WORD.LOW.EIS     = TRUE;

  15090 44 002550   000400 236007                    LDQ     256,DL
        44 002551   200075 256100                    ORSQ    INST_WORD,,AUTO

      786    15091    6                 INST_WORD.SA      = OFF$ -> ETT.REF$ -> REF.SA;

  15091 44 002552   200237 470500                    LDP0    OFF$,,AUTO
        44 002553   000003 471500                    LDP1    3,,PR0
        44 002554   100001 220100                    LDX0    1,,PR1
        44 002555   200075 740100                    STX0    INST_WORD,,AUTO

      787    15092
PL6.E3A0      #001=Z8HI$BURST File=Z8HI.:Z8A6TSI                                 SAT 08/09/97 13:19 Page:189
      788    15093                      %IF USING_HALF_WORD_RELOCATION;
      789    15094    6                   MOD_KEY.B.HALF_REL = TRUE;

  15094 44 002556   000040 236007                    LDQ     32,DL
        44 002557   000000 256000 3                  ORSQ    MOD_KEY

      790    15095                      %ELSE;
      796    15101                      %ENDIF;
      797    15102
      798    15103                      %NEW_WORD( @OU_WORD = INST_WORD ,
      799    15104                                 @ST$     = OFF$ -> ETT.REF$ -> REF.ST$ ,
      800    15105                                 @KEY     = MOD_KEY.KEY );

  15124 44 002560   000002 236000 34                 LDQ     OBJ_+2
        44 002561   000004 036007                    ADLQ    4,DL
        44 002562   000003 116000 34                 CMPQ    OBJ_+3
        44 002563   002575 604000 44                 TMI     s:15130

  15126 44 002564   000000 234000 28                 SZN     PAGING_OBJ
        44 002565   002572 605000 44                 TPL     s:15128

  15127 44 002566   000020 630400 45                 EPPR0   16
        44 002567   000006 631400 45                 EPPR1   6
        44 002570   000000 701000 xent               TSX1    Z9HF$WRITE_OBJ_PAGE
        44 002571   000000 011000                    NOP     0

  15128 44 002572   000002 631400 45                 EPPR1   2
        44 002573   000000 701000 xent               TSX1    Z9HF$GET_OBJ_PAGE
        44 002574   000000 011000                    NOP     0

  15130 44 002575   000002 236000 34                 LDQ     OBJ_+2
        44 002576   000022 736000                    QLS     18
        44 002577   000001 036000 34                 ADLQ    OBJ_+1
        44 002600   000000 756000 27                 STQ     OBJ$

  15131 44 002601   000004 236007                    LDQ     4,DL
        44 002602   000002 056000 34                 ASQ     OBJ_+2
PL6.E3A0      #001=Z8HI$BURST File=Z8HI.:Z8A6TSI                                 SAT 08/09/97 13:19 Page:190

  15132 44 002603   001012 220003                    LDX0    522,DU
        44 002604   000000 470400 27                 LDP0    OBJ$
        44 002605   000000 740100                    STX0    0,,PR0

  15135 44 002606   200237 470500                    LDP0    OFF$,,AUTO
        44 002607   000003 471500                    LDP1    3,,PR0
        44 002610   100005 236100                    LDQ     5,,PR1
        44 002611   000000 473400 27                 LDP3    OBJ$
        44 002612   300002 756100                    STQ     2,,PR3

  15136 44 002613   000000 470400 4                  LDP0    CURRENT_BLOCK$
        44 002614   000002 236100                    LDQ     2,,PR0
        44 002615   000022 772000                    QRL     18
        44 002616   300001 756100                    STQ     1,,PR3

  15137 44 002617   000000 236000 3                  LDQ     MOD_KEY
        44 002620   000011 736000                    QLS     9
        44 002621   300000 552110                    STBQ    0,'10'O,PR3

  15139 44 002622   200075 236100                    LDQ     INST_WORD,,AUTO
        44 002623   000000 470400 27                 LDP0    OBJ$
        44 002624   000003 756100                    STQ     3,,PR0

  15146 44 002625   000000 471400 4                  LDP1    CURRENT_BLOCK$
        44 002626   100002 221100                    LDX1    2,,PR1
        44 002627   000001 622011                    EAX2    1,X1
        44 002630   100002 742100                    STX2    2,,PR1

  15147 44 002631   002636 601000 44                 TNZ     s:15152

  15148 44 002632   000022 630400 45                 EPPR0   18
        44 002633   000006 631400 45                 EPPR1   6
        44 002634   000000 701000 xent               TSX1    Z8AE$ERROR
        44 002635   000000 011000                    NOP     0

      801    15152    6                 IF RAT.CLASS( POINTER_REGISTER ) = %DEMAND THEN
PL6.E3A0      #001=Z8HI$BURST File=Z8HI.:Z8A6TSI                                 SAT 08/09/97 13:19 Page:191

  15152 44 002636   200155 235100                    LDA     POINTER_REGISTER,,AUTO
        44 002637   000002 735000                    ALS     2
        44 002640   000003 235005 1                  LDA     RAT+3,AL
        44 002641   003174 601000 44                 TNZ     s:15363

      802    15153    6                   RAT.AWAITING( POINTER_REGISTER ) = 0;

  15153 44 002642   200155 235100                    LDA     POINTER_REGISTER,,AUTO
        44 002643   000002 735000                    ALS     2
        44 002644   000000 220003                    LDX0    0,DU
        44 002645   000001 440005 1                  SXL0    RAT+1,AL

      803    15154    6               END;

      804    15155    5          END;

  15155 44 002646   003174 710000 44                 TRA     s:15363

      805    15156    4        ELSE
      806    15157    5   OPTZ:  DO;

  15157 44 002647                       OPTZ         null
      807    15158                 %NEW_ORG ( @ST$ = COMCOM.LAST_BLOCK$ );

  15176 44 002647   000002 236000 34                 LDQ     OBJ_+2
        44 002650   000002 036007                    ADLQ    2,DL
        44 002651   000003 116000 34                 CMPQ    OBJ_+3
        44 002652   002664 604000 44                 TMI     s:15182

  15178 44 002653   000000 234000 28                 SZN     PAGING_OBJ
        44 002654   002661 605000 44                 TPL     s:15180

  15179 44 002655   000020 630400 45                 EPPR0   16
        44 002656   000006 631400 45                 EPPR1   6
        44 002657   000000 701000 xent               TSX1    Z9HF$WRITE_OBJ_PAGE
        44 002660   000000 011000                    NOP     0
PL6.E3A0      #001=Z8HI$BURST File=Z8HI.:Z8A6TSI                                 SAT 08/09/97 13:19 Page:192

  15180 44 002661   000002 631400 45                 EPPR1   2
        44 002662   000000 701000 xent               TSX1    Z9HF$GET_OBJ_PAGE
        44 002663   000000 011000                    NOP     0

  15182 44 002664   000002 236000 34                 LDQ     OBJ_+2
        44 002665   000022 736000                    QLS     18
        44 002666   000001 036000 34                 ADLQ    OBJ_+1
        44 002667   000000 756000 27                 STQ     OBJ$

  15183 44 002670   000002 236007                    LDQ     2,DL
        44 002671   000002 056000 34                 ASQ     OBJ_+2

  15184 44 002672   001013 220003                    LDX0    523,DU
        44 002673   000000 470400 27                 LDP0    OBJ$
        44 002674   000000 740100                    STX0    0,,PR0

  15188 44 002675   000375 236000 xsym               LDQ     COMCOM+253
        44 002676   000000 470400 27                 LDP0    OBJ$
        44 002677   000001 756100                    STQ     1,,PR0

      808    15194    5            CURRENT_BLOCK$ = COMCOM.LAST_BLOCK$;

  15194 44 002700   000375 236000 xsym               LDQ     COMCOM+253
        44 002701   000000 756000 4                  STQ     CURRENT_BLOCK$

      809    15195
      810    15196    5            INST_WORD = '0'O;

  15196 44 002702   200075 450100                    STZ     INST_WORD,,AUTO

      811    15197
      812    15198    5            MOD_KEY.KEY = 0;

  15198 44 002703   000000 450000 3                  STZ     MOD_KEY

      813    15199    5            MOD_KEY.B.WORD_REL = TRUE;
PL6.E3A0      #001=Z8HI$BURST File=Z8HI.:Z8A6TSI                                 SAT 08/09/97 13:19 Page:193

  15199 44 002704   000002 236007                    LDQ     2,DL
        44 002705   000000 256000 3                  ORSQ    MOD_KEY

      814    15200    5            MOD_KEY.B.SEGID_REL_LOW = TRUE;

  15200 44 002706   000200 236007                    LDQ     128,DL
        44 002707   000000 256000 3                  ORSQ    MOD_KEY

      815    15201
      816    15202    5            REF_ST$ = REF$ -> REF.ST$;

  15202 44 002710   200231 471500                    LDP1    REF$,,AUTO
        44 002711   100005 236100                    LDQ     5,,PR1
        44 002712   200232 756100                    STQ     REF_ST$,,AUTO

      817    15203
      818    15204    6            DO CASE(REF$ -> REF.ST$ -> ST.ID);

  15204 44 002713   100005 473500                    LDP3    5,,PR1
        44 002714   300000 236100                    LDQ     0,,PR3
        44 002715   000022 772000                    QRL     18
        44 002716   000767 136007                    SBLQ    503,DL
        44 002717   000003 116007                    CMPQ    3,DL
        44 002720   002722 602006 44                 TNC     s:15204+7,QL
        44 002721   002736 710000 44                 TRA     s:15216
        44 002722   002725 710000 44                 TRA     s:15206
        44 002723   002736 710000 44                 TRA     s:15216
        44 002724   002730 710000 44                 TRA     s:15209

      819    15205    6              CASE(%CONST);

      820    15206    6                MOD_KEY.B.RESOLVE_ADDRESS = TRUE;

  15206 44 002725   000020 236007                    LDQ     16,DL
        44 002726   000000 256000 3                  ORSQ    MOD_KEY
        44 002727   002736 710000 44                 TRA     s:15216
PL6.E3A0      #001=Z8HI$BURST File=Z8HI.:Z8A6TSI                                 SAT 08/09/97 13:19 Page:194

      821    15207
      822    15208    6              CASE(%PARA);

      823    15209    6                IF REF_ST$ -> LABEL.B.ALLOCATED = FALSE   THEN

  15209 44 002730   200232 474500                    LDP4    REF_ST$,,AUTO
        44 002731   400003 236100                    LDQ     3,,PR4
        44 002732   100000 316007                    CANQ    32768,DL
        44 002733   002736 601000 44                 TNZ     s:15216

      824    15210    6                  MOD_KEY.B.RESOLVE_ADDRESS = TRUE;

  15210 44 002734   000020 236007                    LDQ     16,DL
        44 002735   000000 256000 3                  ORSQ    MOD_KEY

      825    15211
      826    15212    6            END /* Case */;

      827    15213
      828    15214                 %ABSOLUTE_SA(TRIAD=NODE$, RTN=ABSOLUTE);

  15216 44 002736   200230 474500                    LDP4    NODE$,,AUTO
        44 002737   400003 236100                    LDQ     3,,PR4
        44 002740   200226 756100                    STQ     P$,,AUTO

  15219 44 002741   200226 473500                    LDP3    P$,,AUTO
        44 002742   300001 236100                    LDQ     1,,PR3
        44 002743   000022 772000                    QRL     18
        44 002744   200225 756100                    STQ     ABSOLUTE,,AUTO

      829    15225
      830    15226    5            INST_WORD.SA     = ABSOLUTE;

  15226 44 002745   000000 621006                    EAX1    0,QL
        44 002746   200075 741100                    STX1    INST_WORD,,AUTO

PL6.E3A0      #001=Z8HI$BURST File=Z8HI.:Z8A6TSI                                 SAT 08/09/97 13:19 Page:195
      831    15227
      832    15228    5            IF REF_ST$ -> SCALAR.TYPE = %TYB OR

  15228 44 002747   200232 475500                    LDP5    REF_ST$,,AUTO
        44 002750   500002 222100                    LDX2    2,,PR5
        44 002751   000014 102003                    CMPX2   12,DU
        44 002752   002755 600000 44                 TZE     s:15230
        44 002753   000023 102003                    CMPX2   19,DU
        44 002754   002763 601000 44                 TNZ     s:15233

      833    15229    5               REF_ST$ -> SCALAR.TYPE = %TYC THEN
      834    15230    5              INST_WORD.BDSC = GBCD_POS1.BDSC (REF$ -> REF.NDSC.CN);

  15230 44 002755   100001 236100                    LDQ     1,,PR1
        44 002756   000017 772000                    QRL     15
        44 002757   000007 376007                    ANQ     7,DL
        44 002760   000004 723006 42                 LXL3    GBCD_POS,QL
        44 002761   200075 443100                    SXL3    INST_WORD,,AUTO
        44 002762   003022 710000 44                 TRA     s:15246

      835    15231    5            ELSE
      836    15232    6              DO;

      837    15233    6                IF MOD(REF$ -> REF.NDSC.CN, 2) = 1 AND

  15233 44 002763   100001 236100                    LDQ     1,,PR1
        44 002764   000017 772000                    QRL     15
        44 002765   000007 376007                    ANQ     7,DL
        44 002766   000001 376007                    ANQ     1,DL
        44 002767   000001 116007                    CMPQ    1,DL
        44 002770   003010 601000 44                 TNZ     s:15239
        44 002771   500003 236100                    LDQ     3,,PR5
        44 002772   000200 316007                    CANQ    128,DL
        44 002773   003003 601000 44                 TNZ     s:15237
        44 002774   000015 234000 xsym               SZN     COMCOM+13
        44 002775   003003 605000 44                 TPL     s:15237
        44 002776   200003 476500                    LDP6    @PILL,,AUTO
PL6.E3A0      #001=Z8HI$BURST File=Z8HI.:Z8A6TSI                                 SAT 08/09/97 13:19 Page:196
        44 002777   600000 477500                    LDP7    0,,PR6
        44 003000   700000 223100                    LDX3    0,,PR7
        44 003001   000363 103003                    CMPX3   243,DU
        44 003002   003010 600000 44                 TZE     s:15239

      838    15234    6                   (REF_ST$ -> SCALAR.B.DIGIT OR
      839    15235    6                    NOT COMCOM.OB.COBOL_74 OR
      840    15236    6                    PILL -> ILL.ID ~= %USER_CALL) THEN
      841    15237    6                  INST_WORD.BDSC.B    = 5;

  15237 44 003003   200075 236100                    LDQ     INST_WORD,,AUTO
        44 003004   000030 376000 45                 ANQ     24
        44 003005   050000 276007                    ORQ     20480,DL
        44 003006   200075 756100                    STQ     INST_WORD,,AUTO
        44 003007   003012 710000 44                 TRA     s:15241

      842    15238    6                ELSE
      843    15239    6                  INST_WORD.BDSC.B    = 0;

  15239 44 003010   000030 236000 45                 LDQ     24
        44 003011   200075 356100                    ANSQ    INST_WORD,,AUTO

      844    15240
      845    15241    6                INST_WORD.BDSC.C      = REF$ -> REF.NDSC.CN / 2;

  15241 44 003012   100001 236100                    LDQ     1,,PR1
        44 003013   000017 772000                    QRL     15
        44 003014   000007 376007                    ANQ     7,DL
        44 003015   000001 772000                    QRL     1
        44 003016   000020 736000                    QLS     16
        44 003017   200075 676100                    ERQ     INST_WORD,,AUTO
        44 003020   600000 376007                    ANQ     -65536,DL
        44 003021   200075 656100                    ERSQ    INST_WORD,,AUTO

      846    15242    6              END;

      847    15243
PL6.E3A0      #001=Z8HI$BURST File=Z8HI.:Z8A6TSI                                 SAT 08/09/97 13:19 Page:197
      848    15244                 %ABSOLUTE_SA(TRIAD=OFF$, RTN=ABSOLUTE);

  15246 44 003022   200237 476500                    LDP6    OFF$,,AUTO
        44 003023   600003 236100                    LDQ     3,,PR6
        44 003024   200226 756100                    STQ     P$,,AUTO

  15249 44 003025   200226 473500                    LDP3    P$,,AUTO
        44 003026   300001 236100                    LDQ     1,,PR3
        44 003027   000022 772000                    QRL     18
        44 003030   200225 756100                    STQ     ABSOLUTE,,AUTO

      849    15255
      850    15256                 %NEW_WORD( @OU_WORD = INST_WORD ,
      851    15257                            @ST$     = REF_ST$ ,
      852    15258                            @OFFSET  = ABSOLUTE ,
      853    15259                            @KEY     = MOD_KEY.KEY ,
      854    15260                            @ADVANCE_BLOCK_SIZE = NO );

  15279 44 003031   000002 236000 34                 LDQ     OBJ_+2
        44 003032   000004 036007                    ADLQ    4,DL
        44 003033   000003 116000 34                 CMPQ    OBJ_+3
        44 003034   003046 604000 44                 TMI     s:15285

  15281 44 003035   000000 234000 28                 SZN     PAGING_OBJ
        44 003036   003043 605000 44                 TPL     s:15283

  15282 44 003037   000020 630400 45                 EPPR0   16
        44 003040   000006 631400 45                 EPPR1   6
        44 003041   000000 701000 xent               TSX1    Z9HF$WRITE_OBJ_PAGE
        44 003042   000000 011000                    NOP     0

  15283 44 003043   000002 631400 45                 EPPR1   2
        44 003044   000000 701000 xent               TSX1    Z9HF$GET_OBJ_PAGE
        44 003045   000000 011000                    NOP     0

  15285 44 003046   000002 236000 34                 LDQ     OBJ_+2
        44 003047   000022 736000                    QLS     18
PL6.E3A0      #001=Z8HI$BURST File=Z8HI.:Z8A6TSI                                 SAT 08/09/97 13:19 Page:198
        44 003050   000001 036000 34                 ADLQ    OBJ_+1
        44 003051   000000 756000 27                 STQ     OBJ$

  15286 44 003052   000004 236007                    LDQ     4,DL
        44 003053   000002 056000 34                 ASQ     OBJ_+2

  15287 44 003054   001012 220003                    LDX0    522,DU
        44 003055   000000 470400 27                 LDP0    OBJ$
        44 003056   000000 740100                    STX0    0,,PR0

  15290 44 003057   200232 236100                    LDQ     REF_ST$,,AUTO
        44 003060   000000 470400 27                 LDP0    OBJ$
        44 003061   000002 756100                    STQ     2,,PR0

  15291 44 003062   200225 235100                    LDA     ABSOLUTE,,AUTO
        44 003063   000001 755100                    STA     1,,PR0

  15292 44 003064   000000 236000 3                  LDQ     MOD_KEY
        44 003065   000011 736000                    QLS     9
        44 003066   000000 552110                    STBQ    0,'10'O,PR0

  15294 44 003067   200075 236100                    LDQ     INST_WORD,,AUTO
        44 003070   000000 470400 27                 LDP0    OBJ$
        44 003071   000003 756100                    STQ     3,,PR0

      855    15307
      856    15308    5            IF REF_ST$ -> ST.ID = %CONST THEN

  15308 44 003072   200232 471500                    LDP1    REF_ST$,,AUTO
        44 003073   100000 221100                    LDX1    0,,PR1
        44 003074   000767 101003                    CMPX1   503,DU
        44 003075   003110 601000 44                 TNZ     s:15334

      857    15309    5              IF NOT REF_ST$ -> CONST.B.ALLOCATED THEN

  15309 44 003076   100003 236100                    LDQ     3,,PR1
        44 003077   020000 316003                    CANQ    8192,DU
PL6.E3A0      #001=Z8HI$BURST File=Z8HI.:Z8A6TSI                                 SAT 08/09/97 13:19 Page:199
        44 003100   003110 601000 44                 TNZ     s:15334

      858    15310    6                DO;

      859    15311    6                  REF_ST$ -> CONST.B.ALLOCATED = TRUE;

  15311 44 003101   020000 236003                    LDQ     8192,DU
        44 003102   100003 256100                    ORSQ    3,,PR1

      860    15312    6                  REF_ST$ -> CONST.ALLOC_LINK = CONST$;

  15312 44 003103   000000 236000 14                 LDQ     CONST$
        44 003104   100005 756100                    STQ     5,,PR1

      861    15313    6                  CONST$ = REF$ -> REF.ST$;

  15313 44 003105   200231 473500                    LDP3    REF$,,AUTO
        44 003106   300005 236100                    LDQ     5,,PR3
        44 003107   000000 756000 14                 STQ     CONST$

      862    15314    6                END;

      863    15315
      864    15316                 %NEW_ORG ( @ST$ = "COMCOM.SEGMENT$(%PROC)" );

  15334 44 003110   000002 236000 34                 LDQ     OBJ_+2
        44 003111   000002 036007                    ADLQ    2,DL
        44 003112   000003 116000 34                 CMPQ    OBJ_+3
        44 003113   003125 604000 44                 TMI     s:15340

  15336 44 003114   000000 234000 28                 SZN     PAGING_OBJ
        44 003115   003122 605000 44                 TPL     s:15338

  15337 44 003116   000020 630400 45                 EPPR0   16
        44 003117   000006 631400 45                 EPPR1   6
        44 003120   000000 701000 xent               TSX1    Z9HF$WRITE_OBJ_PAGE
        44 003121   000000 011000                    NOP     0
PL6.E3A0      #001=Z8HI$BURST File=Z8HI.:Z8A6TSI                                 SAT 08/09/97 13:19 Page:200

  15338 44 003122   000002 631400 45                 EPPR1   2
        44 003123   000000 701000 xent               TSX1    Z9HF$GET_OBJ_PAGE
        44 003124   000000 011000                    NOP     0

  15340 44 003125   000002 236000 34                 LDQ     OBJ_+2
        44 003126   000022 736000                    QLS     18
        44 003127   000001 036000 34                 ADLQ    OBJ_+1
        44 003130   000000 756000 27                 STQ     OBJ$

  15341 44 003131   000002 236007                    LDQ     2,DL
        44 003132   000002 056000 34                 ASQ     OBJ_+2

  15342 44 003133   001013 220003                    LDX0    523,DU
        44 003134   000000 470400 27                 LDP0    OBJ$
        44 003135   000000 740100                    STX0    0,,PR0

  15346 44 003136   000150 236000 xsym               LDQ     COMCOM+104
        44 003137   000000 470400 27                 LDP0    OBJ$
        44 003140   000001 756100                    STQ     1,,PR0

      865    15352    5            CURRENT_BLOCK$ = COMCOM.SEGMENT$(%PROC);

  15352 44 003141   000150 236000 xsym               LDQ     COMCOM+104
        44 003142   000000 756000 4                  STQ     CURRENT_BLOCK$

      866    15353    5            IF (PILL -> ILL.ID = %USER_CALL OR

  15353 44 003143   200003 471500                    LDP1    @PILL,,AUTO
        44 003144   100000 473500                    LDP3    0,,PR1
        44 003145   300000 221100                    LDX1    0,,PR3
        44 003146   000363 101003                    CMPX1   243,DU
        44 003147   003152 600000 44                 TZE     s:15353+7
        44 003150   000372 101003                    CMPX1   250,DU
        44 003151   003174 601000 44                 TNZ     s:15363
        44 003152   200231 474500                    LDP4    REF$,,AUTO
        44 003153   400004 236100                    LDQ     4,,PR4
PL6.E3A0      #001=Z8HI$BURST File=Z8HI.:Z8A6TSI                                 SAT 08/09/97 13:19 Page:201
        44 003154   000007 116000 45                 CMPQ    7
        44 003155   003174 600000 44                 TZE     s:15363

      867    15354    5                PILL -> ILL.ID = %DISPL) AND
      868    15355    6                REF$ -> REF.PR_TAG$ ~= ADDR (NIL) THEN DO;

      869    15356    6              POINTER_REGISTER = REF$ -> REF.PR_TAG$ -> ETT.STATE;

  15356 44 003156   400004 475500                    LDP5    4,,PR4
        44 003157   500004 236100                    LDQ     4,,PR5
        44 003160   000022 772000                    QRL     18
        44 003161   200155 756100                    STQ     POINTER_REGISTER,,AUTO

      870    15357    6              IF POINTER_REGISTER >= %PR0 AND

  15357 44 003162   000024 116007                    CMPQ    20,DL
        44 003163   003174 604000 44                 TMI     s:15363
        44 003164   200155 235100                    LDA     POINTER_REGISTER,,AUTO
        44 003165   000002 735000                    ALS     2
        44 003166   000003 235005 1                  LDA     RAT+3,AL
        44 003167   003174 601000 44                 TNZ     s:15363

      871    15358    6                RAT.CLASS( POINTER_REGISTER ) = %DEMAND THEN
      872    15359    6                RAT.AWAITING( POINTER_REGISTER ) = 0;

  15359 44 003170   200155 235100                    LDA     POINTER_REGISTER,,AUTO
        44 003171   000002 735000                    ALS     2
        44 003172   000000 221003                    LDX1    0,DU
        44 003173   000001 441005 1                  SXL1    RAT+1,AL

      873    15360    6            END;

      874    15361    5          END OPTZ;

      875    15362
      876    15363    4        MOD_KEY.KEY = 0;

PL6.E3A0      #001=Z8HI$BURST File=Z8HI.:Z8A6TSI                                 SAT 08/09/97 13:19 Page:202
  15363 44 003174   000000 450000 3                  STZ     MOD_KEY

      877    15364
      878    15365    4        IF STORAGE_TARGET THEN

  15365 44 003175   200175 234100                    SZN     STORAGE_TARGET,,AUTO
        44 003176   016024 605000 44                 TPL     s:19025

      879    15366    4          CALL Z8HU$DEC_COUNT(OFF$, 1);

  15366 44 003177   000017 236000 45                 LDQ     15
        44 003200   200261 756100                    STQ     @TAG+3,,AUTO
        44 003201   200237 630500                    EPPR0   OFF$,,AUTO
        44 003202   200260 450500                    STP0    @TAG+2,,AUTO
        44 003203   200260 630500                    EPPR0   @TAG+2,,AUTO
        44 003204   000015 631400 45                 EPPR1   13
        44 003205   000000 701000 xent               TSX1    Z8HU$DEC_COUNT
        44 003206   000000 011000                    NOP     0
        44 003207   016024 710000 44                 TRA     s:19025

      880    15367
      881    15368
      882    15369        %EJECT;
PL6.E3A0      #001=Z8HI$BURST File=Z8HI.:Z8A6TSI                                 SAT 08/09/97 13:19 Page:203
      883    15370    4   CASE(%ALLOT);

      884    15371
      885    15372    4        IF PC.OPND3 = 4 THEN

  15372 44 003210   200151 721100                    LXL1    PC+1,,AUTO
        44 003211   000004 101003                    CMPX1   4,DU
        44 003212   003216 601000 44                 TNZ     s:15375

      886    15373    4          TA = %ADSC4;

  15373 44 003213   400000 236003                    LDQ     -131072,DU
        44 003214   200142 756100                    STQ     TA,,AUTO
        44 003215   003217 710000 44                 TRA     s:15377

      887    15374    4        ELSE
      888    15375    4          TA = %ADSC9;

  15375 44 003216   200142 450100                    STZ     TA,,AUTO

      889    15376
      890    15377    4        TYPE_DESC.TYPE = PCC.CODE2;

  15377 44 003217   200150 236100                    LDQ     PC,,AUTO
        44 003220   000005 772000                    QRL     5
        44 003221   000177 376007                    ANQ     127,DL
        44 003222   200211 756100                    STQ     TYPE_DESC,,AUTO

      891    15378    4        TYPE_DESC.SIZ$ = ADDR(NIL);

  15378 44 003223   000007 236000 45                 LDQ     7
        44 003224   200213 756100                    STQ     TYPE_DESC+2,,AUTO

      892    15379    4        TYPE_DESC.SSOP$ = ADDR(NIL);

  15379 44 003225   200214 756100                    STQ     TYPE_DESC+3,,AUTO

PL6.E3A0      #001=Z8HI$BURST File=Z8HI.:Z8A6TSI                                 SAT 08/09/97 13:19 Page:204
      893    15380
      894    15381             %PACK_ADSC ( @DESC   = TYPE_DESC.DESC ,
      895    15382                          @LENGTH = PCC.WORD2.CODE4 ,
      896    15383                          @TA     = TA );

  15387 44 003226   000000 222003                    LDX2    0,DU
        44 003227   200212 742100                    STX2    TYPE_DESC+1,,AUTO

  15394 44 003230   200142 236100                    LDQ     TA,,AUTO
        44 003231   600000 316003                    CANQ    -65536,DU
        44 003232   003240 601000 44                 TNZ     s:15400

  15396 44 003233   000031 236000 45                 LDQ     25
        44 003234   200212 356100                    ANSQ    TYPE_DESC+1,,AUTO

  15397 44 003235   000032 236000 45                 LDQ     26
        44 003236   200212 356100                    ANSQ    TYPE_DESC+1,,AUTO

  15398 44 003237   003242 710000 44                 TRA     s:15402

  15400 44 003240   000033 236000 45                 LDQ     27
        44 003241   200212 356100                    ANSQ    TYPE_DESC+1,,AUTO

  15402 44 003242   200142 236100                    LDQ     TA,,AUTO
        44 003243   000025 772000                    QRL     21
        44 003244   200212 676100                    ERQ     TYPE_DESC+1,,AUTO
        44 003245   060000 376007                    ANQ     24576,DL
        44 003246   200212 656100                    ERSQ    TYPE_DESC+1,,AUTO

  15403 44 003247   000034 236000 45                 LDQ     28
        44 003250   200212 356100                    ANSQ    TYPE_DESC+1,,AUTO

  15404 44 003251   200151 236100                    LDQ     PC+1,,AUTO
        44 003252   777000 376003                    ANQ     -512,DU
        44 003253   000033 772000                    QRL     27
        44 003254   200212 752103                    STCQ    TYPE_DESC+1,'03'O,AUTO

PL6.E3A0      #001=Z8HI$BURST File=Z8HI.:Z8A6TSI                                 SAT 08/09/97 13:19 Page:205
      897    15407
      898    15408    4        CALL Z8HU$ALLOT_TEMP(%A,                       /* FORMAT     */

  15408 44 003255   200150 236100                    LDQ     PC,,AUTO
        44 003256   000014 772000                    QRL     12
        44 003257   000077 376007                    ANQ     63,DL
        44 003260   200260 756100                    STQ     @TAG+2,,AUTO
        44 003261   200151 236100                    LDQ     PC+1,,AUTO
        44 003262   000011 736000                    QLS     9
        44 003263   000033 732000                    QRS     27
        44 003264   200264 756100                    STQ     @TAG+6,,AUTO
        44 003265   200260 236100                    LDQ     @TAG+2,,AUTO
        44 003266   200262 756100                    STQ     @TAG+4,,AUTO
        44 003267   200264 236100                    LDQ     @TAG+6,,AUTO
        44 003270   200266 756100                    STQ     @TAG+8,,AUTO
        44 003271   200266 631500                    EPPR1   @TAG+8,,AUTO
        44 003272   200273 451500                    STP1    @TAG+13,,AUTO
        44 003273   200211 633500                    EPPR3   TYPE_DESC,,AUTO
        44 003274   200272 453500                    STP3    @TAG+12,,AUTO
        44 003275   200262 634500                    EPPR4   @TAG+4,,AUTO
        44 003276   200271 454500                    STP4    @TAG+11,,AUTO
        44 003277   000005 236000 45                 LDQ     5
        44 003300   200270 756100                    STQ     @TAG+10,,AUTO
        44 003301   200270 630500                    EPPR0   @TAG+10,,AUTO
        44 003302   000035 631400 45                 EPPR1   29
        44 003303   000000 701000 xent               TSX1    Z8HU$ALLOT_TEMP
        44 003304   000000 011000                    NOP     0

      899    15409    4                        BINBIT(PCC.CODE1,36),          /* BOUNDARY   */
      900    15410    4                        TYPE_DESC,                     /* Lower Desc */
      901    15411    4                        BINBIT(PCCS.WORD2.CODE5,36));  /* FRESHNESS  */
      902    15412
      903    15413    4        PCOM_.OPND(PCC.CODE3) = ETT$;

  15413 44 003305   200150 720100                    LXL0    PC,,AUTO
        44 003306   000037 360003                    ANX0    31,DU
        44 003307   000000 236000 19                 LDQ     ETT$
PL6.E3A0      #001=Z8HI$BURST File=Z8HI.:Z8A6TSI                                 SAT 08/09/97 13:19 Page:206
        44 003310   200043 756110                    STQ     PCOM+26,X0,AUTO
        44 003311   016024 710000 44                 TRA     s:19025

      904    15414
      905    15415        %EJECT;
PL6.E3A0      #001=Z8HI$BURST File=Z8HI.:Z8A6TSI                                 SAT 08/09/97 13:19 Page:207
      906    15416
      907    15417    4   CASE(%ALLOTD);

      908    15418
      909    15419    4        FRESHNESS = %STALE;

  15419 44 003312   200172 450100                    STZ     FRESHNESS,,AUTO

      910    15420    4        BOUNDARY = %NEXT;

  15420 44 003313   200171 450100                    STZ     BOUNDARY,,AUTO

      911    15421
      912    15422    5        DO CASE(PILL -> ETT.ID);

  15422 44 003314   200003 471500                    LDP1    @PILL,,AUTO
        44 003315   100000 473500                    LDP3    0,,PR1
        44 003316   300000 236100                    LDQ     0,,PR3
        44 003317   000022 772000                    QRL     18
        44 003320   000020 136007                    SBLQ    16,DL
        44 003321   000353 116007                    CMPQ    235,DL
        44 003322   003324 602006 44                 TNC     s:15422+8,QL
        44 003323   004164 710000 44                 TRA     s:15579
        44 003324   004007 710000 44                 TRA     s:15484
        44 003325   004164 710000 44                 TRA     s:15579
        44 003326   004164 710000 44                 TRA     s:15579
        44 003327   004164 710000 44                 TRA     s:15579
        44 003330   004007 710000 44                 TRA     s:15484
        44 003331   004164 710000 44                 TRA     s:15579
        44 003332   004007 710000 44                 TRA     s:15484
        44 003333   004164 710000 44                 TRA     s:15579
        44 003334   004164 710000 44                 TRA     s:15579
        44 003335   004164 710000 44                 TRA     s:15579
        44 003336   004164 710000 44                 TRA     s:15579
        44 003337   004164 710000 44                 TRA     s:15579
        44 003340   004164 710000 44                 TRA     s:15579
        44 003341   004164 710000 44                 TRA     s:15579
PL6.E3A0      #001=Z8HI$BURST File=Z8HI.:Z8A6TSI                                 SAT 08/09/97 13:19 Page:208
        44 003342   004007 710000 44                 TRA     s:15484
        44 003343   004007 710000 44                 TRA     s:15484
        44 003344   004164 710000 44                 TRA     s:15579
        44 003345   004106 710000 44                 TRA     s:15556
        44 003346   004106 710000 44                 TRA     s:15556
        44 003347   004136 710000 44                 TRA     s:15568
        44 003350   004106 710000 44                 TRA     s:15556
        44 003351   004164 710000 44                 TRA     s:15579
        44 003352   004164 710000 44                 TRA     s:15579
        44 003353   004164 710000 44                 TRA     s:15579
        44 003354   004164 710000 44                 TRA     s:15579
        44 003355   004164 710000 44                 TRA     s:15579
        44 003356   004164 710000 44                 TRA     s:15579
        44 003357   004007 710000 44                 TRA     s:15484
        44 003360   004164 710000 44                 TRA     s:15579
        44 003361   004007 710000 44                 TRA     s:15484
        44 003362   004164 710000 44                 TRA     s:15579
        44 003363   004007 710000 44                 TRA     s:15484
        44 003364   004164 710000 44                 TRA     s:15579
        44 003365   004007 710000 44                 TRA     s:15484
        44 003366   004164 710000 44                 TRA     s:15579
        44 003367   004007 710000 44                 TRA     s:15484
        44 003370   004164 710000 44                 TRA     s:15579
        44 003371   004164 710000 44                 TRA     s:15579
        44 003372   004164 710000 44                 TRA     s:15579
        44 003373   004164 710000 44                 TRA     s:15579
        44 003374   004164 710000 44                 TRA     s:15579
        44 003375   004164 710000 44                 TRA     s:15579
        44 003376   004164 710000 44                 TRA     s:15579
        44 003377   004164 710000 44                 TRA     s:15579
        44 003400   004007 710000 44                 TRA     s:15484
        44 003401   004106 710000 44                 TRA     s:15556
        44 003402   004106 710000 44                 TRA     s:15556
        44 003403   004007 710000 44                 TRA     s:15484
        44 003404   004164 710000 44                 TRA     s:15579
        44 003405   004007 710000 44                 TRA     s:15484
        44 003406   004007 710000 44                 TRA     s:15484
PL6.E3A0      #001=Z8HI$BURST File=Z8HI.:Z8A6TSI                                 SAT 08/09/97 13:19 Page:209
        44 003407   004106 710000 44                 TRA     s:15556
        44 003410   004164 710000 44                 TRA     s:15579
        44 003411   004164 710000 44                 TRA     s:15579
        44 003412   004164 710000 44                 TRA     s:15579
        44 003413   004164 710000 44                 TRA     s:15579
        44 003414   004164 710000 44                 TRA     s:15579
        44 003415   004164 710000 44                 TRA     s:15579
        44 003416   004164 710000 44                 TRA     s:15579
        44 003417   004164 710000 44                 TRA     s:15579
        44 003420   004164 710000 44                 TRA     s:15579
        44 003421   004122 710000 44                 TRA     s:15562
        44 003422   004164 710000 44                 TRA     s:15579
        44 003423   004164 710000 44                 TRA     s:15579
        44 003424   004164 710000 44                 TRA     s:15579
        44 003425   004164 710000 44                 TRA     s:15579
        44 003426   004164 710000 44                 TRA     s:15579
        44 003427   004164 710000 44                 TRA     s:15579
        44 003430   004106 710000 44                 TRA     s:15556
        44 003431   004007 710000 44                 TRA     s:15484
        44 003432   004007 710000 44                 TRA     s:15484
        44 003433   003677 710000 44                 TRA     s:15424
        44 003434   004007 710000 44                 TRA     s:15484
        44 003435   004007 710000 44                 TRA     s:15484
        44 003436   004106 710000 44                 TRA     s:15556
        44 003437   004007 710000 44                 TRA     s:15484
        44 003440   004164 710000 44                 TRA     s:15579
        44 003441   004106 710000 44                 TRA     s:15556
        44 003442   004164 710000 44                 TRA     s:15579
        44 003443   004106 710000 44                 TRA     s:15556
        44 003444   004164 710000 44                 TRA     s:15579
        44 003445   004164 710000 44                 TRA     s:15579
        44 003446   004136 710000 44                 TRA     s:15568
        44 003447   004164 710000 44                 TRA     s:15579
        44 003450   004164 710000 44                 TRA     s:15579
        44 003451   004164 710000 44                 TRA     s:15579
        44 003452   004164 710000 44                 TRA     s:15579
        44 003453   004164 710000 44                 TRA     s:15579
PL6.E3A0      #001=Z8HI$BURST File=Z8HI.:Z8A6TSI                                 SAT 08/09/97 13:19 Page:210
        44 003454   004007 710000 44                 TRA     s:15484
        44 003455   004007 710000 44                 TRA     s:15484
        44 003456   004164 710000 44                 TRA     s:15579
        44 003457   004164 710000 44                 TRA     s:15579
        44 003460   004007 710000 44                 TRA     s:15484
        44 003461   004164 710000 44                 TRA     s:15579
        44 003462   004164 710000 44                 TRA     s:15579
        44 003463   004164 710000 44                 TRA     s:15579
        44 003464   004164 710000 44                 TRA     s:15579
        44 003465   004164 710000 44                 TRA     s:15579
        44 003466   004164 710000 44                 TRA     s:15579
        44 003467   004007 710000 44                 TRA     s:15484
        44 003470   004007 710000 44                 TRA     s:15484
        44 003471   004007 710000 44                 TRA     s:15484
        44 003472   004007 710000 44                 TRA     s:15484
        44 003473   004007 710000 44                 TRA     s:15484
        44 003474   004164 710000 44                 TRA     s:15579
        44 003475   004164 710000 44                 TRA     s:15579
        44 003476   004164 710000 44                 TRA     s:15579
        44 003477   004007 710000 44                 TRA     s:15484
        44 003500   004007 710000 44                 TRA     s:15484
        44 003501   004164 710000 44                 TRA     s:15579
        44 003502   004164 710000 44                 TRA     s:15579
        44 003503   004164 710000 44                 TRA     s:15579
        44 003504   004164 710000 44                 TRA     s:15579
        44 003505   004164 710000 44                 TRA     s:15579
        44 003506   004164 710000 44                 TRA     s:15579
        44 003507   004164 710000 44                 TRA     s:15579
        44 003510   004164 710000 44                 TRA     s:15579
        44 003511   004164 710000 44                 TRA     s:15579
        44 003512   004164 710000 44                 TRA     s:15579
        44 003513   004164 710000 44                 TRA     s:15579
        44 003514   004164 710000 44                 TRA     s:15579
        44 003515   004164 710000 44                 TRA     s:15579
        44 003516   004164 710000 44                 TRA     s:15579
        44 003517   004164 710000 44                 TRA     s:15579
        44 003520   004164 710000 44                 TRA     s:15579
PL6.E3A0      #001=Z8HI$BURST File=Z8HI.:Z8A6TSI                                 SAT 08/09/97 13:19 Page:211
        44 003521   004164 710000 44                 TRA     s:15579
        44 003522   004164 710000 44                 TRA     s:15579
        44 003523   004164 710000 44                 TRA     s:15579
        44 003524   004164 710000 44                 TRA     s:15579
        44 003525   004164 710000 44                 TRA     s:15579
        44 003526   004164 710000 44                 TRA     s:15579
        44 003527   004164 710000 44                 TRA     s:15579
        44 003530   004164 710000 44                 TRA     s:15579
        44 003531   004164 710000 44                 TRA     s:15579
        44 003532   004164 710000 44                 TRA     s:15579
        44 003533   004164 710000 44                 TRA     s:15579
        44 003534   004164 710000 44                 TRA     s:15579
        44 003535   004164 710000 44                 TRA     s:15579
        44 003536   004164 710000 44                 TRA     s:15579
        44 003537   004164 710000 44                 TRA     s:15579
        44 003540   004164 710000 44                 TRA     s:15579
        44 003541   004164 710000 44                 TRA     s:15579
        44 003542   004164 710000 44                 TRA     s:15579
        44 003543   004164 710000 44                 TRA     s:15579
        44 003544   004164 710000 44                 TRA     s:15579
        44 003545   004164 710000 44                 TRA     s:15579
        44 003546   004164 710000 44                 TRA     s:15579
        44 003547   004164 710000 44                 TRA     s:15579
        44 003550   004164 710000 44                 TRA     s:15579
        44 003551   004164 710000 44                 TRA     s:15579
        44 003552   004164 710000 44                 TRA     s:15579
        44 003553   004164 710000 44                 TRA     s:15579
        44 003554   004164 710000 44                 TRA     s:15579
        44 003555   004164 710000 44                 TRA     s:15579
        44 003556   004164 710000 44                 TRA     s:15579
        44 003557   004164 710000 44                 TRA     s:15579
        44 003560   004164 710000 44                 TRA     s:15579
        44 003561   004164 710000 44                 TRA     s:15579
        44 003562   004164 710000 44                 TRA     s:15579
        44 003563   004164 710000 44                 TRA     s:15579
        44 003564   004164 710000 44                 TRA     s:15579
        44 003565   004164 710000 44                 TRA     s:15579
PL6.E3A0      #001=Z8HI$BURST File=Z8HI.:Z8A6TSI                                 SAT 08/09/97 13:19 Page:212
        44 003566   004164 710000 44                 TRA     s:15579
        44 003567   004164 710000 44                 TRA     s:15579
        44 003570   004164 710000 44                 TRA     s:15579
        44 003571   004164 710000 44                 TRA     s:15579
        44 003572   004164 710000 44                 TRA     s:15579
        44 003573   004164 710000 44                 TRA     s:15579
        44 003574   004164 710000 44                 TRA     s:15579
        44 003575   004164 710000 44                 TRA     s:15579
        44 003576   004164 710000 44                 TRA     s:15579
        44 003577   004164 710000 44                 TRA     s:15579
        44 003600   004164 710000 44                 TRA     s:15579
        44 003601   004164 710000 44                 TRA     s:15579
        44 003602   004164 710000 44                 TRA     s:15579
        44 003603   004164 710000 44                 TRA     s:15579
        44 003604   004164 710000 44                 TRA     s:15579
        44 003605   004164 710000 44                 TRA     s:15579
        44 003606   004164 710000 44                 TRA     s:15579
        44 003607   004164 710000 44                 TRA     s:15579
        44 003610   004164 710000 44                 TRA     s:15579
        44 003611   004164 710000 44                 TRA     s:15579
        44 003612   004164 710000 44                 TRA     s:15579
        44 003613   004164 710000 44                 TRA     s:15579
        44 003614   004164 710000 44                 TRA     s:15579
        44 003615   004164 710000 44                 TRA     s:15579
        44 003616   004164 710000 44                 TRA     s:15579
        44 003617   004164 710000 44                 TRA     s:15579
        44 003620   004164 710000 44                 TRA     s:15579
        44 003621   004164 710000 44                 TRA     s:15579
        44 003622   004164 710000 44                 TRA     s:15579
        44 003623   004164 710000 44                 TRA     s:15579
        44 003624   004164 710000 44                 TRA     s:15579
        44 003625   004164 710000 44                 TRA     s:15579
        44 003626   004164 710000 44                 TRA     s:15579
        44 003627   004164 710000 44                 TRA     s:15579
        44 003630   004164 710000 44                 TRA     s:15579
        44 003631   004164 710000 44                 TRA     s:15579
        44 003632   004164 710000 44                 TRA     s:15579
PL6.E3A0      #001=Z8HI$BURST File=Z8HI.:Z8A6TSI                                 SAT 08/09/97 13:19 Page:213
        44 003633   004164 710000 44                 TRA     s:15579
        44 003634   004164 710000 44                 TRA     s:15579
        44 003635   004164 710000 44                 TRA     s:15579
        44 003636   004164 710000 44                 TRA     s:15579
        44 003637   004164 710000 44                 TRA     s:15579
        44 003640   004164 710000 44                 TRA     s:15579
        44 003641   004164 710000 44                 TRA     s:15579
        44 003642   004164 710000 44                 TRA     s:15579
        44 003643   004164 710000 44                 TRA     s:15579
        44 003644   004164 710000 44                 TRA     s:15579
        44 003645   004164 710000 44                 TRA     s:15579
        44 003646   004152 710000 44                 TRA     s:15574
        44 003647   004164 710000 44                 TRA     s:15579
        44 003650   004164 710000 44                 TRA     s:15579
        44 003651   004164 710000 44                 TRA     s:15579
        44 003652   004164 710000 44                 TRA     s:15579
        44 003653   004164 710000 44                 TRA     s:15579
        44 003654   004164 710000 44                 TRA     s:15579
        44 003655   004164 710000 44                 TRA     s:15579
        44 003656   004164 710000 44                 TRA     s:15579
        44 003657   004164 710000 44                 TRA     s:15579
        44 003660   004164 710000 44                 TRA     s:15579
        44 003661   004164 710000 44                 TRA     s:15579
        44 003662   004164 710000 44                 TRA     s:15579
        44 003663   004164 710000 44                 TRA     s:15579
        44 003664   004164 710000 44                 TRA     s:15579
        44 003665   004164 710000 44                 TRA     s:15579
        44 003666   004054 710000 44                 TRA     s:15528
        44 003667   004054 710000 44                 TRA     s:15528
        44 003670   004164 710000 44                 TRA     s:15579
        44 003671   004164 710000 44                 TRA     s:15579
        44 003672   004164 710000 44                 TRA     s:15579
        44 003673   004164 710000 44                 TRA     s:15579
        44 003674   004164 710000 44                 TRA     s:15579
        44 003675   004164 710000 44                 TRA     s:15579
        44 003676   004022 710000 44                 TRA     s:15495

PL6.E3A0      #001=Z8HI$BURST File=Z8HI.:Z8A6TSI                                 SAT 08/09/97 13:19 Page:214
      913    15423    5          CASE(%CVOD4);

      914    15424    6            DO CASE(ALLOTD_PASS);

  15424 44 003677   200222 235100                    LDA     ALLOTD_PASS,,AUTO
        44 003700   000003 115007                    CMPA    3,DL
        44 003701   003703 602005 44                 TNC     s:15424+4,AL
        44 003702   004170 710000 44                 TRA     s:15582
        44 003703   003706 710000 44                 TRA     s:15426
        44 003704   003753 710000 44                 TRA     s:15468
        44 003705   003766 710000 44                 TRA     s:15473

      915    15425    6              CASE(%FIRST_PASS);

      916    15426    6                IF COMCOM.OB.ELS   THEN

  15426 44 003706   000026 234000 xsym               SZN     COMCOM+22
        44 003707   003723 605000 44                 TPL     s:15433

      917    15427    7                  DO;

      918    15428    7                    CALL Z8AU$TYPE_DESCRIPTOR(PILL, TYPE_DESC);

  15428 44 003710   200211 634500                    EPPR4   TYPE_DESC,,AUTO
        44 003711   200261 454500                    STP4    @TAG+3,,AUTO
        44 003712   200003 236100                    LDQ     @PILL,,AUTO
        44 003713   200260 756100                    STQ     @TAG+2,,AUTO
        44 003714   200260 630500                    EPPR0   @TAG+2,,AUTO
        44 003715   000015 631400 45                 EPPR1   13
        44 003716   000000 701000 xent               TSX1    Z8AU$TYPE_DESCRIPTOR
        44 003717   000000 011000                    NOP     0

      919    15429    7                    FORMAT = %N;

  15429 44 003720   000001 235007                    LDA     1,DL
        44 003721   200170 755100                    STA     FORMAT,,AUTO

PL6.E3A0      #001=Z8HI$BURST File=Z8HI.:Z8A6TSI                                 SAT 08/09/97 13:19 Page:215
      920    15430    7                  END;

  15430 44 003722   004170 710000 44                 TRA     s:15582

      921    15431    6                ELSE
      922    15432    7                  DO;

      923    15433    7                    TYPE_DESC.TYPE = %TYD;

  15433 44 003723   200211 450100                    STZ     TYPE_DESC,,AUTO

      924    15434                         %PACK_ADSC ( @DESC    = TYPE_DESC.DESC ,
      925    15435                                      @LENGTH = PILL -> ETT.LOP -> ETT.REF$ -> REF.NDSC.N ,
      926    15436                                      @TA      = %ADSC6 );

  15440 44 003724   000000 221003                    LDX1    0,DU
        44 003725   200212 741100                    STX1    TYPE_DESC+1,,AUTO

  15445 44 003726   000033 236000 45                 LDQ     27
        44 003727   200212 356100                    ANSQ    TYPE_DESC+1,,AUTO

  15455 44 003730   200212 236100                    LDQ     TYPE_DESC+1,,AUTO
        44 003731   000036 376000 45                 ANQ     30
        44 003732   020000 276007                    ORQ     8192,DL
        44 003733   200212 756100                    STQ     TYPE_DESC+1,,AUTO

  15456 44 003734   000034 236000 45                 LDQ     28
        44 003735   200212 356100                    ANSQ    TYPE_DESC+1,,AUTO

  15457 44 003736   100000 473500                    LDP3    0,,PR1
        44 003737   300001 474500                    LDP4    1,,PR3
        44 003740   400003 475500                    LDP5    3,,PR4
        44 003741   500001 236100                    LDQ     1,,PR5
        44 003742   000077 376007                    ANQ     63,DL
        44 003743   200212 752103                    STCQ    TYPE_DESC+1,'03'O,AUTO

      927    15460
PL6.E3A0      #001=Z8HI$BURST File=Z8HI.:Z8A6TSI                                 SAT 08/09/97 13:19 Page:216
      928    15461    7                    FORMAT = %A;

  15461 44 003744   200170 450100                    STZ     FORMAT,,AUTO

      929    15462    7                    TYPE_DESC.TYPE = %TYB;

  15462 44 003745   000014 236007                    LDQ     12,DL
        44 003746   200211 756100                    STQ     TYPE_DESC,,AUTO

      930    15463    7                    TYPE_DESC.SIZ$ = ADDR(NIL);

  15463 44 003747   000007 236000 45                 LDQ     7
        44 003750   200213 756100                    STQ     TYPE_DESC+2,,AUTO

      931    15464    7                    TYPE_DESC.SSOP$ = ADDR(NIL);

  15464 44 003751   200214 756100                    STQ     TYPE_DESC+3,,AUTO

      932    15465    7                  END;

  15465 44 003752   004170 710000 44                 TRA     s:15582

      933    15466
      934    15467    6              CASE(%SECOND_PASS);

      935    15468    6                CALL Z8AU$TYPE_DESCRIPTOR(PILL, TYPE_DESC);

  15468 44 003753   200211 634500                    EPPR4   TYPE_DESC,,AUTO
        44 003754   200261 454500                    STP4    @TAG+3,,AUTO
        44 003755   200003 236100                    LDQ     @PILL,,AUTO
        44 003756   200260 756100                    STQ     @TAG+2,,AUTO
        44 003757   200260 630500                    EPPR0   @TAG+2,,AUTO
        44 003760   000015 631400 45                 EPPR1   13
        44 003761   000000 701000 xent               TSX1    Z8AU$TYPE_DESCRIPTOR
        44 003762   000000 011000                    NOP     0

      936    15469
PL6.E3A0      #001=Z8HI$BURST File=Z8HI.:Z8A6TSI                                 SAT 08/09/97 13:19 Page:217
      937    15470    6                FORMAT = %N;

  15470 44 003763   000001 235007                    LDA     1,DL
        44 003764   200170 755100                    STA     FORMAT,,AUTO
        44 003765   004170 710000 44                 TRA     s:15582

      938    15471
      939    15472    6              CASE(%THIRD_PASS);

      940    15473    6                CALL Z8AU$TYPE_DESCRIPTOR(PILL, TYPE_DESC);

  15473 44 003766   200211 634500                    EPPR4   TYPE_DESC,,AUTO
        44 003767   200261 454500                    STP4    @TAG+3,,AUTO
        44 003770   200003 236100                    LDQ     @PILL,,AUTO
        44 003771   200260 756100                    STQ     @TAG+2,,AUTO
        44 003772   200260 630500                    EPPR0   @TAG+2,,AUTO
        44 003773   000015 631400 45                 EPPR1   13
        44 003774   000000 701000 xent               TSX1    Z8AU$TYPE_DESCRIPTOR
        44 003775   000000 011000                    NOP     0

      941    15474
      942    15475    6                TYPE_DESC.DESC.NDSC.TN = %NDSC9;

  15475 44 003776   000037 236000 45                 LDQ     31
        44 003777   200212 356100                    ANSQ    TYPE_DESC+1,,AUTO

      943    15476    6                TYPE_DESC.DESC.NDSC.S = '0'B;

  15476 44 004000   000040 236000 45                 LDQ     32
        44 004001   200212 356100                    ANSQ    TYPE_DESC+1,,AUTO

      944    15477    6                TYPE_DESC.DESC.NDSC.SF = 0;

  15477 44 004002   000000 236003                    LDQ     0,DU
        44 004003   200212 752102                    STCQ    TYPE_DESC+1,'02'O,AUTO

      945    15478    6                FORMAT = %N;
PL6.E3A0      #001=Z8HI$BURST File=Z8HI.:Z8A6TSI                                 SAT 08/09/97 13:19 Page:218

  15478 44 004004   000001 235007                    LDA     1,DL
        44 004005   200170 755100                    STA     FORMAT,,AUTO

      946    15479    6            END /* Case */;

  15479 44 004006   004170 710000 44                 TRA     s:15582

      947    15480
      948    15481    5          CASE(%CVID4, %CVID9, %CVQD4,%CVQD9,%CVRD4,%CVRD9,%CV49,%CVDD,%RNDD,

      949    15482    5               %ADD, %SBD, %MPD, %DVD, %DVDR, %EXDD, %CVDSF, %CVDDD, %CVDO, %CVDF,
      950    15483    5               %MIND, %ADO, %SBO,%MPO,%DVO,%DVOR,%CVJI,%CVKI,%MINO,%RNDO);
      951    15484    5            CALL Z8AU$TYPE_DESCRIPTOR(PILL, TYPE_DESC);

  15484 44 004007   200211 634500                    EPPR4   TYPE_DESC,,AUTO
        44 004010   200261 454500                    STP4    @TAG+3,,AUTO
        44 004011   200003 236100                    LDQ     @PILL,,AUTO
        44 004012   200260 756100                    STQ     @TAG+2,,AUTO
        44 004013   200260 630500                    EPPR0   @TAG+2,,AUTO
        44 004014   000015 631400 45                 EPPR1   13
        44 004015   000000 701000 xent               TSX1    Z8AU$TYPE_DESCRIPTOR
        44 004016   000000 011000                    NOP     0

      952    15485
      953    15486    5            FORMAT = %N;

  15486 44 004017   000001 235007                    LDA     1,DL
        44 004020   200170 755100                    STA     FORMAT,,AUTO
        44 004021   004170 710000 44                 TRA     s:15582

      954    15487
      955    15488    5          CASE(%DISPL);

      956    15489                 %PACK_ADSC ( @DESC    = TYPE_DESC.DESC ,
      957    15490                              @LENGTH  = "(PILL -> ETT.ROP -> ILL.CODE - 1) * 4",
      958    15491                              @TA      = %ADSC9 );
PL6.E3A0      #001=Z8HI$BURST File=Z8HI.:Z8A6TSI                                 SAT 08/09/97 13:19 Page:219

  15495 44 004022   000000 221003                    LDX1    0,DU
        44 004023   200212 741100                    STX1    TYPE_DESC+1,,AUTO

  15497 44 004024   000031 236000 45                 LDQ     25
        44 004025   200212 356100                    ANSQ    TYPE_DESC+1,,AUTO

  15498 44 004026   000032 236000 45                 LDQ     26
        44 004027   200212 356100                    ANSQ    TYPE_DESC+1,,AUTO

  15510 44 004030   000036 236000 45                 LDQ     30
        44 004031   200212 356100                    ANSQ    TYPE_DESC+1,,AUTO

  15511 44 004032   000034 236000 45                 LDQ     28
        44 004033   200212 356100                    ANSQ    TYPE_DESC+1,,AUTO

  15512 44 004034   100000 473500                    LDP3    0,,PR1
        44 004035   300002 474500                    LDP4    2,,PR3
        44 004036   400000 236100                    LDQ     0,,PR4
        44 004037   000002 736000                    QLS     2
        44 004040   000041 376000 45                 ANQ     33
        44 004041   000004 136007                    SBLQ    4,DL
        44 004042   200212 752103                    STCQ    TYPE_DESC+1,'03'O,AUTO

      959    15515    5            FORMAT = %A;

  15515 44 004043   200170 450100                    STZ     FORMAT,,AUTO

      960    15516    5            FRESHNESS = %FRESH;

  15516 44 004044   000001 236007                    LDQ     1,DL
        44 004045   200172 756100                    STQ     FRESHNESS,,AUTO

      961    15517    5            TYPE_DESC.TYPE = %TYA;

  15517 44 004046   000010 235007                    LDA     8,DL
        44 004047   200211 755100                    STA     TYPE_DESC,,AUTO
PL6.E3A0      #001=Z8HI$BURST File=Z8HI.:Z8A6TSI                                 SAT 08/09/97 13:19 Page:220

      962    15518    5            TYPE_DESC.SIZ$ = ADDR(NIL);

  15518 44 004050   000007 236000 45                 LDQ     7
        44 004051   200213 756100                    STQ     TYPE_DESC+2,,AUTO

      963    15519    5            TYPE_DESC.SSOP$ = ADDR(NIL);

  15519 44 004052   200214 756100                    STQ     TYPE_DESC+3,,AUTO
        44 004053   004170 710000 44                 TRA     s:15582

      964    15520
      965    15521    5          CASE(%OS_CALL, %USER_CALL);

      966    15522                 %PACK_ADSC ( @DESC    = TYPE_DESC.DESC ,
      967    15523                              @LENGTH  = "(PILL -> ETT.LOP -> ILL.CODE - 1) * 4",
      968    15524                              @TA      = %ADSC9 );

  15528 44 004054   000000 221003                    LDX1    0,DU
        44 004055   200212 741100                    STX1    TYPE_DESC+1,,AUTO

  15530 44 004056   000031 236000 45                 LDQ     25
        44 004057   200212 356100                    ANSQ    TYPE_DESC+1,,AUTO

  15531 44 004060   000032 236000 45                 LDQ     26
        44 004061   200212 356100                    ANSQ    TYPE_DESC+1,,AUTO

  15543 44 004062   000036 236000 45                 LDQ     30
        44 004063   200212 356100                    ANSQ    TYPE_DESC+1,,AUTO

  15544 44 004064   000034 236000 45                 LDQ     28
        44 004065   200212 356100                    ANSQ    TYPE_DESC+1,,AUTO

  15545 44 004066   100000 473500                    LDP3    0,,PR1
        44 004067   300001 474500                    LDP4    1,,PR3
        44 004070   400000 236100                    LDQ     0,,PR4
        44 004071   000002 736000                    QLS     2
PL6.E3A0      #001=Z8HI$BURST File=Z8HI.:Z8A6TSI                                 SAT 08/09/97 13:19 Page:221
        44 004072   000041 376000 45                 ANQ     33
        44 004073   000004 136007                    SBLQ    4,DL
        44 004074   200212 752103                    STCQ    TYPE_DESC+1,'03'O,AUTO

      969    15548    5            FORMAT = %A;

  15548 44 004075   200170 450100                    STZ     FORMAT,,AUTO

      970    15549    5            FRESHNESS = %FRESH;

  15549 44 004076   000001 236007                    LDQ     1,DL
        44 004077   200172 756100                    STQ     FRESHNESS,,AUTO

      971    15550    5            TYPE_DESC.TYPE = %TYA;

  15550 44 004100   000010 235007                    LDA     8,DL
        44 004101   200211 755100                    STA     TYPE_DESC,,AUTO

      972    15551    5            TYPE_DESC.SIZ$ = ADDR(NIL);

  15551 44 004102   000007 236000 45                 LDQ     7
        44 004103   200213 756100                    STQ     TYPE_DESC+2,,AUTO

      973    15552    5            TYPE_DESC.SSOP$ = ADDR(NIL);

  15552 44 004104   200214 756100                    STQ     TYPE_DESC+3,,AUTO
        44 004105   004170 710000 44                 TRA     s:15582

      974    15553
      975    15554    5          CASE(%EXDI, %CVDI, %EXII, %EXQI, %CVDRR,

      976    15555    5               %CVRI, %CVRR, %EXRR, %EXRI, %CVAA);
      977    15556    5            CALL Z8AU$TYPE_DESCRIPTOR(PILL, TYPE_DESC);

  15556 44 004106   200211 634500                    EPPR4   TYPE_DESC,,AUTO
        44 004107   200261 454500                    STP4    @TAG+3,,AUTO
        44 004110   200003 236100                    LDQ     @PILL,,AUTO
PL6.E3A0      #001=Z8HI$BURST File=Z8HI.:Z8A6TSI                                 SAT 08/09/97 13:19 Page:222
        44 004111   200260 756100                    STQ     @TAG+2,,AUTO
        44 004112   200260 630500                    EPPR0   @TAG+2,,AUTO
        44 004113   000015 631400 45                 EPPR1   13
        44 004114   000000 701000 xent               TSX1    Z8AU$TYPE_DESCRIPTOR
        44 004115   000000 011000                    NOP     0

      978    15557
      979    15558    5            TYPE_DESC.DESC.NDSC.CN = 0;

  15558 44 004116   000033 236000 45                 LDQ     27
        44 004117   200212 356100                    ANSQ    TYPE_DESC+1,,AUTO

      980    15559    5            FORMAT = %A;

  15559 44 004120   200170 450100                    STZ     FORMAT,,AUTO
        44 004121   004170 710000 44                 TRA     s:15582

      981    15560
      982    15561    5          CASE(%CVT);

      983    15562    5            CALL Z8AU$TYPE_DESCRIPTOR(PILL, TYPE_DESC);

  15562 44 004122   200211 634500                    EPPR4   TYPE_DESC,,AUTO
        44 004123   200261 454500                    STP4    @TAG+3,,AUTO
        44 004124   200003 236100                    LDQ     @PILL,,AUTO
        44 004125   200260 756100                    STQ     @TAG+2,,AUTO
        44 004126   200260 630500                    EPPR0   @TAG+2,,AUTO
        44 004127   000015 631400 45                 EPPR1   13
        44 004130   000000 701000 xent               TSX1    Z8AU$TYPE_DESCRIPTOR
        44 004131   000000 011000                    NOP     0

      984    15563
      985    15564    5            TYPE_DESC.DESC.NDSC.CN = 0;

  15564 44 004132   000033 236000 45                 LDQ     27
        44 004133   200212 356100                    ANSQ    TYPE_DESC+1,,AUTO

PL6.E3A0      #001=Z8HI$BURST File=Z8HI.:Z8A6TSI                                 SAT 08/09/97 13:19 Page:223
      986    15565    5            FORMAT = %A;

  15565 44 004134   200170 450100                    STZ     FORMAT,,AUTO
        44 004135   004170 710000 44                 TRA     s:15582

      987    15566
      988    15567    5          CASE(%CVDQR, %EXQQ);

      989    15568    5            CALL Z8AU$TYPE_DESCRIPTOR(PILL, TYPE_DESC);

  15568 44 004136   200211 634500                    EPPR4   TYPE_DESC,,AUTO
        44 004137   200261 454500                    STP4    @TAG+3,,AUTO
        44 004140   200003 236100                    LDQ     @PILL,,AUTO
        44 004141   200260 756100                    STQ     @TAG+2,,AUTO
        44 004142   200260 630500                    EPPR0   @TAG+2,,AUTO
        44 004143   000015 631400 45                 EPPR1   13
        44 004144   000000 701000 xent               TSX1    Z8AU$TYPE_DESCRIPTOR
        44 004145   000000 011000                    NOP     0

      990    15569
      991    15570    5            FORMAT = %A;

  15570 44 004146   200170 450100                    STZ     FORMAT,,AUTO

      992    15571    5            BOUNDARY = %EVEN;

  15571 44 004147   000002 235007                    LDA     2,DL
        44 004150   200171 755100                    STA     BOUNDARY,,AUTO
        44 004151   004170 710000 44                 TRA     s:15582

      993    15572
      994    15573    5          CASE(%CCOSU);

      995    15574    5            CALL Z8AU$TYPE_DESCRIPTOR(PILL->CCOSU.EVEX, TYPE_DESC);

  15574 44 004152   200211 634500                    EPPR4   TYPE_DESC,,AUTO
        44 004153   200261 454500                    STP4    @TAG+3,,AUTO
PL6.E3A0      #001=Z8HI$BURST File=Z8HI.:Z8A6TSI                                 SAT 08/09/97 13:19 Page:224
        44 004154   300004 635500                    EPPR5   4,,PR3
        44 004155   200260 455500                    STP5    @TAG+2,,AUTO
        44 004156   200260 630500                    EPPR0   @TAG+2,,AUTO
        44 004157   000015 631400 45                 EPPR1   13
        44 004160   000000 701000 xent               TSX1    Z8AU$TYPE_DESCRIPTOR
        44 004161   000000 011000                    NOP     0

      996    15575
      997    15576    5            FORMAT = %A;

  15576 44 004162   200170 450100                    STZ     FORMAT,,AUTO
        44 004163   004170 710000 44                 TRA     s:15582

      998    15577
      999    15578    5          CASE(ELSE);

     1000    15579    5            CALL Z8AE$ERROR(%E$UNEXPECTED_CASE);

  15579 44 004164   000043 630400 45                 EPPR0   35
        44 004165   000006 631400 45                 EPPR1   6
        44 004166   000000 701000 xent               TSX1    Z8AE$ERROR
        44 004167   000000 011000                    NOP     0

     1001    15580    5        END /* Case */;

     1002    15581
     1003    15582    4        CALL Z8HU$ALLOT_TEMP(FORMAT,BOUNDARY,TYPE_DESC,FRESHNESS);

  15582 44 004170   200172 630500                    EPPR0   FRESHNESS,,AUTO
        44 004171   200263 450500                    STP0    @TAG+5,,AUTO
        44 004172   200211 631500                    EPPR1   TYPE_DESC,,AUTO
        44 004173   200262 451500                    STP1    @TAG+4,,AUTO
        44 004174   200171 633500                    EPPR3   BOUNDARY,,AUTO
        44 004175   200261 453500                    STP3    @TAG+3,,AUTO
        44 004176   200170 634500                    EPPR4   FORMAT,,AUTO
        44 004177   200260 454500                    STP4    @TAG+2,,AUTO
        44 004200   200260 630500                    EPPR0   @TAG+2,,AUTO
PL6.E3A0      #001=Z8HI$BURST File=Z8HI.:Z8A6TSI                                 SAT 08/09/97 13:19 Page:225
        44 004201   000035 631400 45                 EPPR1   29
        44 004202   000000 701000 xent               TSX1    Z8HU$ALLOT_TEMP
        44 004203   000000 011000                    NOP     0

     1004    15583
     1005    15584    4        PCOM_.OPND(PC.OPND1) = ETT$;

  15584 44 004204   200150 720100                    LXL0    PC,,AUTO
        44 004205   000000 236000 19                 LDQ     ETT$
        44 004206   200043 756110                    STQ     PCOM+26,X0,AUTO

     1006    15585    4        ALLOTD_PASS = ALLOTD_PASS + 1;

  15585 44 004207   200222 054100                    AOS     ALLOTD_PASS,,AUTO
        44 004210   016024 710000 44                 TRA     s:19025

     1007    15586
     1008    15587        %EJECT;
PL6.E3A0      #001=Z8HI$BURST File=Z8HI.:Z8A6TSI                                 SAT 08/09/97 13:19 Page:226
     1009    15588    4   CASE(%AND);

     1010    15589        /*V* AND -- SEE PSEUDO_CODE_UTILITIES                                 */
     1011    15590
     1012    15591    4        IF PCC.CODE1 = %CONST_ABS THEN

  15591 44 004211   200150 236100                    LDQ     PC,,AUTO
        44 004212   770000 376007                    ANQ     -4096,DL
        44 004213   040000 116007                    CMPQ    16384,DL
        44 004214   016024 601000 44                 TNZ     s:19025

     1013    15592    4          PCOM_.ABS(PCC.CODE3) = BITBIN(BINBIT(PCOM_.ABS(PCC.CODE3),36) &

  15592 44 004215   200150 721100                    LXL1    PC,,AUTO
        44 004216   000037 361003                    ANX1    31,DU
        44 004217   200011 236111                    LDQ     PCOM,X1,AUTO
        44 004220   200151 376100                    ANQ     PC+1,,AUTO
        44 004221   200011 756111                    STQ     PCOM,X1,AUTO
        44 004222   016024 710000 44                 TRA     s:19025

     1014    15593    4                                        BINBIT(PCC.CONST,36));
     1015    15594        %EJECT;
PL6.E3A0      #001=Z8HI$BURST File=Z8HI.:Z8A6TSI                                 SAT 08/09/97 13:19 Page:227
     1016    15595    4   CASE(%ASSIGN);

     1017    15596        /*V*
     1018    15597
     1019    15598                                   ASSIGN
     1020    15599
     1021    15600            PURPOSE:
     1022    15601             THIS DIRECTIVE IS THE CONTROLLING FORCE BEHIND REGISTER
     1023    15602           MANAGEMENT.  PRESENTLY, IT IS THE ONLY REGISTER MANAGEMENT
     1024    15603           DIRECTIVE AND, HOPEFULLY, WE CAN KEEP IT THAT WAY.  REFERENCE
     1025    15604           DN7: REGISTER MANAGEMENT DIRECTIVES AND VALUES FOR MORE
     1026    15605           INFORMATION CONCERNING THE FUNCTION OF THE ASSIGN DIRECTIVE.
     1027    15606
     1028    15607        */
     1029    15608
     1030    15609
     1031    15610    5        DO CASE(PC.OPND2);

  15610 44 004223   200151 221100                    LDX1    PC+1,,AUTO
        44 004224   000034 101003                    CMPX1   28,DU
        44 004225   004227 602011 44                 TNC     s:15610+4,X1
        44 004226   016024 710000 44                 TRA     s:19025
        44 004227   004440 710000 44                 TRA     s:15655
        44 004230   004440 710000 44                 TRA     s:15655
        44 004231   004440 710000 44                 TRA     s:15655
        44 004232   004263 710000 44                 TRA     s:15614
        44 004233   005440 710000 44                 TRA     s:15819
        44 004234   005440 710000 44                 TRA     s:15819
        44 004235   005440 710000 44                 TRA     s:15819
        44 004236   004440 710000 44                 TRA     s:15655
        44 004237   005440 710000 44                 TRA     s:15819
        44 004240   005440 710000 44                 TRA     s:15819
        44 004241   005440 710000 44                 TRA     s:15819
        44 004242   005440 710000 44                 TRA     s:15819
        44 004243   005440 710000 44                 TRA     s:15819
        44 004244   005440 710000 44                 TRA     s:15819
        44 004245   005440 710000 44                 TRA     s:15819
PL6.E3A0      #001=Z8HI$BURST File=Z8HI.:Z8A6TSI                                 SAT 08/09/97 13:19 Page:228
        44 004246   005440 710000 44                 TRA     s:15819
        44 004247   005440 710000 44                 TRA     s:15819
        44 004250   005440 710000 44                 TRA     s:15819
        44 004251   005440 710000 44                 TRA     s:15819
        44 004252   005440 710000 44                 TRA     s:15819
        44 004253   005440 710000 44                 TRA     s:15819
        44 004254   005440 710000 44                 TRA     s:15819
        44 004255   005440 710000 44                 TRA     s:15819
        44 004256   005440 710000 44                 TRA     s:15819
        44 004257   005440 710000 44                 TRA     s:15819
        44 004260   005440 710000 44                 TRA     s:15819
        44 004261   004555 710000 44                 TRA     s:15672
        44 004262   005227 710000 44                 TRA     s:15786

     1032    15611
     1033    15612    5          CASE(%TO);

     1034    15613                 %LOP_ROP_TO(RESULT=SAVE_OPND);

  15614 44 004263   200150 722100                    LXL2    PC,,AUTO
        44 004264   000004 102003                    CMPX2   4,DU
        44 004265   004267 602012 44                 TNC     s:15614+4,X2
        44 004266   004316 710000 44                 TRA     s:15624
        44 004267   004273 710000 44                 TRA     s:15616
        44 004270   004277 710000 44                 TRA     s:15618
        44 004271   004304 710000 44                 TRA     s:15620
        44 004272   004311 710000 44                 TRA     s:15622

  15616 44 004273   200003 471500                    LDP1    @PILL,,AUTO
        44 004274   100000 236100                    LDQ     0,,PR1
        44 004275   200154 756100                    STQ     SAVE_OPND,,AUTO
        44 004276   004320 710000 44                 TRA     s:15627

  15618 44 004277   200003 471500                    LDP1    @PILL,,AUTO
        44 004300   100000 473500                    LDP3    0,,PR1
        44 004301   300001 236100                    LDQ     1,,PR3
        44 004302   200154 756100                    STQ     SAVE_OPND,,AUTO
PL6.E3A0      #001=Z8HI$BURST File=Z8HI.:Z8A6TSI                                 SAT 08/09/97 13:19 Page:229
        44 004303   004320 710000 44                 TRA     s:15627

  15620 44 004304   200003 471500                    LDP1    @PILL,,AUTO
        44 004305   100000 473500                    LDP3    0,,PR1
        44 004306   300002 236100                    LDQ     2,,PR3
        44 004307   200154 756100                    STQ     SAVE_OPND,,AUTO
        44 004310   004320 710000 44                 TRA     s:15627

  15622 44 004311   200003 471500                    LDP1    @PILL,,AUTO
        44 004312   100000 473500                    LDP3    0,,PR1
        44 004313   300003 236100                    LDQ     3,,PR3
        44 004314   200154 756100                    STQ     SAVE_OPND,,AUTO
        44 004315   004320 710000 44                 TRA     s:15627

  15624 44 004316   200043 236112                    LDQ     PCOM+26,X2,AUTO
        44 004317   200154 756100                    STQ     SAVE_OPND,,AUTO

     1035    15627    6            DO CASE(PC.OPND3);

  15627 44 004320   200151 723100                    LXL3    PC+1,,AUTO
        44 004321   000035 103003                    CMPX3   29,DU
        44 004322   004324 602013 44                 TNC     s:15627+4,X3
        44 004323   004364 710000 44                 TRA     s:15631
        44 004324   004364 710000 44                 TRA     s:15631
        44 004325   004364 710000 44                 TRA     s:15631
        44 004326   004364 710000 44                 TRA     s:15631
        44 004327   004364 710000 44                 TRA     s:15631
        44 004330   004361 710000 44                 TRA     s:15629
        44 004331   004364 710000 44                 TRA     s:15631
        44 004332   004364 710000 44                 TRA     s:15631
        44 004333   004364 710000 44                 TRA     s:15631
        44 004334   004364 710000 44                 TRA     s:15631
        44 004335   004364 710000 44                 TRA     s:15631
        44 004336   004364 710000 44                 TRA     s:15631
        44 004337   004364 710000 44                 TRA     s:15631
        44 004340   004364 710000 44                 TRA     s:15631
        44 004341   004364 710000 44                 TRA     s:15631
PL6.E3A0      #001=Z8HI$BURST File=Z8HI.:Z8A6TSI                                 SAT 08/09/97 13:19 Page:230
        44 004342   004364 710000 44                 TRA     s:15631
        44 004343   004364 710000 44                 TRA     s:15631
        44 004344   004361 710000 44                 TRA     s:15629
        44 004345   004364 710000 44                 TRA     s:15631
        44 004346   004364 710000 44                 TRA     s:15631
        44 004347   004364 710000 44                 TRA     s:15631
        44 004350   004364 710000 44                 TRA     s:15631
        44 004351   004364 710000 44                 TRA     s:15631
        44 004352   004364 710000 44                 TRA     s:15631
        44 004353   004364 710000 44                 TRA     s:15631
        44 004354   004364 710000 44                 TRA     s:15631
        44 004355   004364 710000 44                 TRA     s:15631
        44 004356   004364 710000 44                 TRA     s:15631
        44 004357   004364 710000 44                 TRA     s:15631
        44 004360   004361 710000 44                 TRA     s:15629

     1036    15628    6              CASE(%AR, %XR, %PR);

     1037    15629    6                REGISTER = LAST_FREED;

  15629 44 004361   200007 235100                    LDA     LAST_FREED,,AUTO
        44 004362   200156 755100                    STA     REGISTER,,AUTO
        44 004363   004367 710000 44                 TRA     s:15636

     1038    15630    6              CASE(ELSE, %OPTIMIZATION);

     1039    15631    6                REGISTER = PC.OPND3;

  15631 44 004364   200151 236100                    LDQ     PC+1,,AUTO
        44 004365   777777 376007                    ANQ     -1,DL
        44 004366   200156 756100                    STQ     REGISTER,,AUTO

     1040    15632    6            END /* Case */;

     1041    15633
     1042    15634                 %SWITCH_RAT_INFO(@FROM=SAVE_OPND -> ETT.STATE,@TO=REGISTER);

PL6.E3A0      #001=Z8HI$BURST File=Z8HI.:Z8A6TSI                                 SAT 08/09/97 13:19 Page:231
  15636 44 004367   200156 631500                    EPPR1   REGISTER,,AUTO
        44 004370   200260 451500                    STP1    @TAG+2,,AUTO
        44 004371   200260 630500                    EPPR0   @TAG+2,,AUTO
        44 004372   000006 631400 45                 EPPR1   6
        44 004373   000000 701000 xent               TSX1    Z8HG$FREE_REGISTER
        44 004374   000000 011000                    NOP     0

  15637 44 004375   200154 470500                    LDP0    SAVE_OPND,,AUTO
        44 004376   000004 236100                    LDQ     4,,PR0
        44 004377   000022 772000                    QRL     18
        44 004400   200223 756100                    STQ     I,,AUTO

  15638 44 004401   016024 600000 44                 TZE     s:19025

  15640 44 004402   200223 235100                    LDA     I,,AUTO
        44 004403   000004 735000                    ALS     4
        44 004404   200156 236100                    LDQ     REGISTER,,AUTO
        44 004405   000004 736000                    QLS     4
        44 004406   000006 100405                    MLR     fill='000'O
        44 004407   000000 000020 1                  ADSC9   RAT,A                    cn=0,n=16
        44 004410   000000 000020 1                  ADSC9   RAT,Q                    cn=0,n=16

  15641 44 004411   200223 235100                    LDA     I,,AUTO
        44 004412   000002 735000                    ALS     2
        44 004413   000000 236005 1                  LDQ     RAT,AL
        44 004414   200226 756100                    STQ     P$,,AUTO

  15643 44 004415   200226 470500                    LDP0    P$,,AUTO
        44 004416   000001 471500                    LDP1    1,,PR0
        44 004417   200156 720100                    LXL0    REGISTER,,AUTO
        44 004420   100004 740100                    STX0    4,,PR1

  15644 44 004421   200226 470500                    LDP0    P$,,AUTO
        44 004422   000003 236100                    LDQ     3,,PR0
        44 004423   200226 756100                    STQ     P$,,AUTO

  15645 44 004424   000007 116000 45                 CMPQ    7
PL6.E3A0      #001=Z8HI$BURST File=Z8HI.:Z8A6TSI                                 SAT 08/09/97 13:19 Page:232
        44 004425   004415 601000 44                 TNZ     s:15643

  15646 44 004426   200223 235100                    LDA     I,,AUTO
        44 004427   000002 735000                    ALS     2
        44 004430   000007 236000 45                 LDQ     7
        44 004431   000000 756005 1                  STQ     RAT,AL

  15647 44 004432   000000 220003                    LDX0    0,DU
        44 004433   000001 440005 1                  SXL0    RAT+1,AL

  15648 44 004434   000002 450005 1                  STZ     RAT+2,AL

  15649 44 004435   000000 221003                    LDX1    0,DU
        44 004436   000001 741005 1                  STX1    RAT+1,AL

  15651 44 004437   016024 710000 44                 TRA     s:19025

     1043    15653
     1044    15654    5          CASE(%DEMAND, %GLOBAL, %DEDIC,%PGLOBL);

     1045    15655    6            DO CASE(PC.OPND1);

  15655 44 004440   200150 722100                    LXL2    PC,,AUTO
        44 004441   000045 102003                    CMPX2   37,DU
        44 004442   004444 602012 44                 TNC     s:15655+4,X2
        44 004443   004545 710000 44                 TRA     s:15666
        44 004444   004545 710000 44                 TRA     s:15666
        44 004445   004545 710000 44                 TRA     s:15666
        44 004446   004545 710000 44                 TRA     s:15666
        44 004447   004545 710000 44                 TRA     s:15666
        44 004450   004511 710000 44                 TRA     s:15657
        44 004451   004545 710000 44                 TRA     s:15666
        44 004452   004545 710000 44                 TRA     s:15666
        44 004453   004545 710000 44                 TRA     s:15666
        44 004454   004545 710000 44                 TRA     s:15666
        44 004455   004545 710000 44                 TRA     s:15666
        44 004456   004545 710000 44                 TRA     s:15666
PL6.E3A0      #001=Z8HI$BURST File=Z8HI.:Z8A6TSI                                 SAT 08/09/97 13:19 Page:233
        44 004457   004545 710000 44                 TRA     s:15666
        44 004460   004545 710000 44                 TRA     s:15666
        44 004461   004545 710000 44                 TRA     s:15666
        44 004462   004545 710000 44                 TRA     s:15666
        44 004463   004545 710000 44                 TRA     s:15666
        44 004464   004511 710000 44                 TRA     s:15657
        44 004465   004545 710000 44                 TRA     s:15666
        44 004466   004545 710000 44                 TRA     s:15666
        44 004467   004545 710000 44                 TRA     s:15666
        44 004470   004545 710000 44                 TRA     s:15666
        44 004471   004545 710000 44                 TRA     s:15666
        44 004472   004545 710000 44                 TRA     s:15666
        44 004473   004545 710000 44                 TRA     s:15666
        44 004474   004545 710000 44                 TRA     s:15666
        44 004475   004545 710000 44                 TRA     s:15666
        44 004476   004545 710000 44                 TRA     s:15666
        44 004477   004545 710000 44                 TRA     s:15666
        44 004500   004511 710000 44                 TRA     s:15657
        44 004501   004545 710000 44                 TRA     s:15666
        44 004502   004545 710000 44                 TRA     s:15666
        44 004503   004517 710000 44                 TRA     s:15660
        44 004504   004517 710000 44                 TRA     s:15660
        44 004505   004517 710000 44                 TRA     s:15660
        44 004506   004532 710000 44                 TRA     s:15663
        44 004507   004532 710000 44                 TRA     s:15663
        44 004510   004532 710000 44                 TRA     s:15663

     1046    15656    6              CASE(%AR, %XR, %PR);

     1047    15657    6                RAT.CLASS(LAST_USED) = PC.OPND2;

  15657 44 004511   200006 235100                    LDA     LAST_USED,,AUTO
        44 004512   000002 735000                    ALS     2
        44 004513   200151 236100                    LDQ     PC+1,,AUTO
        44 004514   000022 772000                    QRL     18
        44 004515   000003 756005 1                  STQ     RAT+3,AL
        44 004516   016024 710000 44                 TRA     s:19025
PL6.E3A0      #001=Z8HI$BURST File=Z8HI.:Z8A6TSI                                 SAT 08/09/97 13:19 Page:234

     1048    15658
     1049    15659    6              CASE(%ARLOP, %XRLOP, %PRLOP);

     1050    15660    6                RAT.CLASS(PILL -> ETT.LOP -> ETT.STATE) = PC.OPND2;

  15660 44 004517   200003 471500                    LDP1    @PILL,,AUTO
        44 004520   100000 473500                    LDP3    0,,PR1
        44 004521   300001 474500                    LDP4    1,,PR3
        44 004522   400004 223100                    LDX3    4,,PR4
        44 004523   400004 023100                    ADLX3   4,,PR4
        44 004524   000000 635013                    EAA     0,X3
        44 004525   000021 771000                    ARL     17
        44 004526   200151 236100                    LDQ     PC+1,,AUTO
        44 004527   000022 772000                    QRL     18
        44 004530   000003 756005 1                  STQ     RAT+3,AL
        44 004531   016024 710000 44                 TRA     s:19025

     1051    15661
     1052    15662    6              CASE(%ARROP, %XRROP, %PRROP);

     1053    15663    6                RAT.CLASS(PILL -> ETT.ROP -> ETT.STATE) = PC.OPND2;

  15663 44 004532   200003 471500                    LDP1    @PILL,,AUTO
        44 004533   100000 473500                    LDP3    0,,PR1
        44 004534   300002 474500                    LDP4    2,,PR3
        44 004535   400004 223100                    LDX3    4,,PR4
        44 004536   400004 023100                    ADLX3   4,,PR4
        44 004537   000000 635013                    EAA     0,X3
        44 004540   000021 771000                    ARL     17
        44 004541   200151 236100                    LDQ     PC+1,,AUTO
        44 004542   000022 772000                    QRL     18
        44 004543   000003 756005 1                  STQ     RAT+3,AL
        44 004544   016024 710000 44                 TRA     s:19025

     1054    15664
     1055    15665    6              CASE(ELSE, %OPTIMIZATION);
PL6.E3A0      #001=Z8HI$BURST File=Z8HI.:Z8A6TSI                                 SAT 08/09/97 13:19 Page:235

     1056    15666    6                RAT.CLASS(PC.OPND1) = PC.OPND2;

  15666 44 004545   200150 236100                    LDQ     PC,,AUTO
        44 004546   000001 736000                    QLS     1
        44 004547   000044 376000 45                 ANQ     36
        44 004550   000001 736000                    QLS     1
        44 004551   200151 235100                    LDA     PC+1,,AUTO
        44 004552   000022 771000                    ARL     18
        44 004553   000003 755006 1                  STA     RAT+3,QL

     1057    15667
     1058    15668    6            END /* Case */;

  15668 44 004554   016024 710000 44                 TRA     s:19025

     1059    15669
     1060    15670    5          CASE(%FREE);

     1061    15671
     1062    15672    5            REGID = PC.OPND1;

  15672 44 004555   200150 236100                    LDQ     PC,,AUTO
        44 004556   777777 376007                    ANQ     -1,DL
        44 004557   200005 756100                    STQ     REGID,,AUTO

     1063    15673
     1064    15674    6            DO CASE(PC.OPND1);

  15674 44 004560   200150 722100                    LXL2    PC,,AUTO
        44 004561   000057 102003                    CMPX2   47,DU
        44 004562   004564 602012 44                 TNC     s:15674+4,X2
        44 004563   005167 710000 44                 TRA     s:15763
        44 004564   005167 710000 44                 TRA     s:15763
        44 004565   005167 710000 44                 TRA     s:15763
        44 004566   005167 710000 44                 TRA     s:15763
        44 004567   005167 710000 44                 TRA     s:15763
PL6.E3A0      #001=Z8HI$BURST File=Z8HI.:Z8A6TSI                                 SAT 08/09/97 13:19 Page:236
        44 004570   004643 710000 44                 TRA     s:15677
        44 004571   005167 710000 44                 TRA     s:15763
        44 004572   005167 710000 44                 TRA     s:15763
        44 004573   004720 710000 44                 TRA     s:15694
        44 004574   005167 710000 44                 TRA     s:15763
        44 004575   005167 710000 44                 TRA     s:15763
        44 004576   005167 710000 44                 TRA     s:15763
        44 004577   005167 710000 44                 TRA     s:15763
        44 004600   005167 710000 44                 TRA     s:15763
        44 004601   005167 710000 44                 TRA     s:15763
        44 004602   005167 710000 44                 TRA     s:15763
        44 004603   005167 710000 44                 TRA     s:15763
        44 004604   004777 710000 44                 TRA     s:15711
        44 004605   004741 710000 44                 TRA     s:15700
        44 004606   004756 710000 44                 TRA     s:15705
        44 004607   005167 710000 44                 TRA     s:15763
        44 004610   005166 710000 44                 TRA     s:15759
        44 004611   005166 710000 44                 TRA     s:15759
        44 004612   005166 710000 44                 TRA     s:15759
        44 004613   005166 710000 44                 TRA     s:15759
        44 004614   005166 710000 44                 TRA     s:15759
        44 004615   005166 710000 44                 TRA     s:15759
        44 004616   005166 710000 44                 TRA     s:15759
        44 004617   005166 710000 44                 TRA     s:15759
        44 004620   005012 710000 44                 TRA     s:15716
        44 004621   005167 710000 44                 TRA     s:15763
        44 004622   005167 710000 44                 TRA     s:15763
        44 004623   005032 710000 44                 TRA     DAN_DNA_CHECK
        44 004624   005032 710000 44                 TRA     DAN_DNA_CHECK
        44 004625   005032 710000 44                 TRA     DAN_DNA_CHECK
        44 004626   005146 710000 44                 TRA     s:15750
        44 004627   005146 710000 44                 TRA     s:15750
        44 004630   005146 710000 44                 TRA     s:15750
        44 004631   005167 710000 44                 TRA     s:15763
        44 004632   005167 710000 44                 TRA     s:15763
        44 004633   005167 710000 44                 TRA     s:15763
        44 004634   005167 710000 44                 TRA     s:15763
PL6.E3A0      #001=Z8HI$BURST File=Z8HI.:Z8A6TSI                                 SAT 08/09/97 13:19 Page:237
        44 004635   005167 710000 44                 TRA     s:15763
        44 004636   005032 710000 44                 TRA     DAN_DNA_CHECK
        44 004637   005162 710000 44                 TRA     s:15756
        44 004640   005155 710000 44                 TRA     s:15753
        44 004641   005032 710000 44                 TRA     DAN_DNA_CHECK
        44 004642   005032 710000 44                 TRA     DAN_DNA_CHECK

     1065    15675    6              CASE(%OPTIMIZE_THIS_CASE);

     1066    15676    6              CASE(%AR);

     1067    15677    6                CALL Z8HG$FREE_REGISTER(%ARAQ);

  15677 44 004643   000046 630400 45                 EPPR0   38
        44 004644   000006 631400 45                 EPPR1   6
        44 004645   000000 701000 xent               TSX1    Z8HG$FREE_REGISTER
        44 004646   000000 011000                    NOP     0

     1068    15678    6                CALL Z8HG$FREE_REGISTER(%AREAQ);

  15678 44 004647   000050 630400 45                 EPPR0   40
        44 004650   000006 631400 45                 EPPR1   6
        44 004651   000000 701000 xent               TSX1    Z8HG$FREE_REGISTER
        44 004652   000000 011000                    NOP     0

     1069    15679    6                CALL Z8HG$CHOOSE_REGISTER(%ARA, %ARQ,REGID)

  15679 44 004653   200005 630500                    EPPR0   REGID,,AUTO
        44 004654   200262 450500                    STP0    @TAG+4,,AUTO
        44 004655   000054 237000 45                 LDAQ    44
        44 004656   200260 757100                    STAQ    @TAG+2,,AUTO
        44 004657   200260 630500                    EPPR0   @TAG+2,,AUTO
        44 004660   000000 631400 45                 EPPR1   0
        44 004661   000000 701000 xent               TSX1    Z8HG$CHOOSE_REGISTER
        44 004662   004664 702000 44                 TSX2    s:15681
        44 004663   004706 710000 44                 TRA     s:15688

PL6.E3A0      #001=Z8HI$BURST File=Z8HI.:Z8A6TSI                                 SAT 08/09/97 13:19 Page:238
     1070    15680    7                  WHENALTRETURN DO;

     1071    15681    7                    IF RAT.B.GREATER_256K (%ARA) /* Cannot move A to Xn */

  15681 44 004664   000025 236000 1                  LDQ     RAT+21
        44 004665   200000 316003                    CANQ    65536,DU
        44 004666   004672 600000 44                 TZE     s:15683

     1072    15682    7                      THEN REGID = %ARQ;

  15682 44 004667   000006 235007                    LDA     6,DL
        44 004670   200005 755100                    STA     REGID,,AUTO
        44 004671   004674 710000 44                 TRA     s:15684

     1073    15683    7                      ELSE REGID = %ARA;

  15683 44 004672   000005 235007                    LDA     5,DL
        44 004673   200005 755100                    STA     REGID,,AUTO

     1074    15684    7                    CALL Z8HI$BURST (RAT.PRIMES (REGID) -> PRIME.TRIAD,

  15684 44 004674   000002 735000                    ALS     2
        44 004675   000000 470405 1                  LDP0    RAT,AL
        44 004676   000053 236000 45                 LDQ     43
        44 004677   200261 756100                    STQ     @TAG+3,,AUTO
        44 004700   000001 631500                    EPPR1   1,,PR0
        44 004701   200260 451500                    STP1    @TAG+2,,AUTO
        44 004702   200260 630500                    EPPR0   @TAG+2,,AUTO
        44 004703   000015 631400 45                 EPPR1   13
        44 004704   000000 701000 44                 TSX1    s:7
        44 004705   000000 011000                    NOP     0

     1075    15685    7                                     DEP.MDEP); /* Move to Xn */
     1076    15686    7                  END;

     1077    15687
     1078    15688    6                IF REGID = %ARA THEN
PL6.E3A0      #001=Z8HI$BURST File=Z8HI.:Z8A6TSI                                 SAT 08/09/97 13:19 Page:239

  15688 44 004706   200005 235100                    LDA     REGID,,AUTO
        44 004707   000005 115007                    CMPA    5,DL
        44 004710   004715 601000 44                 TNZ     s:15691

     1079    15689    6                  CALL Z8HG$FREE_REGISTER(%AREA);

  15689 44 004711   000057 630400 45                 EPPR0   47
        44 004712   000006 631400 45                 EPPR1   6
        44 004713   000000 701000 xent               TSX1    Z8HG$FREE_REGISTER
        44 004714   000000 011000                    NOP     0

     1080    15690
     1081    15691    6                LAST_FREED_AR = REGID;

  15691 44 004715   200005 235100                    LDA     REGID,,AUTO
        44 004716   200157 755100                    STA     LAST_FREED_AR,,AUTO
        44 004717   005167 710000 44                 TRA     s:15763

     1082    15692
     1083    15693    6              CASE(%ARAQ);

     1084    15694    6                CALL Z8HG$FREE_REGISTER(%ARA);

  15694 44 004720   000054 630400 45                 EPPR0   44
        44 004721   000006 631400 45                 EPPR1   6
        44 004722   000000 701000 xent               TSX1    Z8HG$FREE_REGISTER
        44 004723   000000 011000                    NOP     0

     1085    15695    6                CALL Z8HG$FREE_REGISTER(%ARQ);

  15695 44 004724   000055 630400 45                 EPPR0   45
        44 004725   000006 631400 45                 EPPR1   6
        44 004726   000000 701000 xent               TSX1    Z8HG$FREE_REGISTER
        44 004727   000000 011000                    NOP     0

     1086    15696    6                CALL Z8HG$FREE_REGISTER(%AREA);
PL6.E3A0      #001=Z8HI$BURST File=Z8HI.:Z8A6TSI                                 SAT 08/09/97 13:19 Page:240

  15696 44 004730   000057 630400 45                 EPPR0   47
        44 004731   000006 631400 45                 EPPR1   6
        44 004732   000000 701000 xent               TSX1    Z8HG$FREE_REGISTER
        44 004733   000000 011000                    NOP     0

     1087    15697    6                CALL Z8HG$FREE_REGISTER(%AREAQ);

  15697 44 004734   000050 630400 45                 EPPR0   40
        44 004735   000006 631400 45                 EPPR1   6
        44 004736   000000 701000 xent               TSX1    Z8HG$FREE_REGISTER
        44 004737   000000 011000                    NOP     0
        44 004740   005167 710000 44                 TRA     s:15763

     1088    15698
     1089    15699    6              CASE(%AREA);

     1090    15700    6                CALL Z8HG$FREE_REGISTER(%AREAQ);

  15700 44 004741   000050 630400 45                 EPPR0   40
        44 004742   000006 631400 45                 EPPR1   6
        44 004743   000000 701000 xent               TSX1    Z8HG$FREE_REGISTER
        44 004744   000000 011000                    NOP     0

     1091    15701    6                CALL Z8HG$FREE_REGISTER(%ARAQ);

  15701 44 004745   000046 630400 45                 EPPR0   38
        44 004746   000006 631400 45                 EPPR1   6
        44 004747   000000 701000 xent               TSX1    Z8HG$FREE_REGISTER
        44 004750   000000 011000                    NOP     0

     1092    15702    6                CALL Z8HG$FREE_REGISTER(%ARA);

  15702 44 004751   000054 630400 45                 EPPR0   44
        44 004752   000006 631400 45                 EPPR1   6
        44 004753   000000 701000 xent               TSX1    Z8HG$FREE_REGISTER
        44 004754   000000 011000                    NOP     0
PL6.E3A0      #001=Z8HI$BURST File=Z8HI.:Z8A6TSI                                 SAT 08/09/97 13:19 Page:241
        44 004755   005167 710000 44                 TRA     s:15763

     1093    15703
     1094    15704    6              CASE(%AREAQ);

     1095    15705    6                CALL Z8HG$FREE_REGISTER(%ARA);

  15705 44 004756   000054 630400 45                 EPPR0   44
        44 004757   000006 631400 45                 EPPR1   6
        44 004760   000000 701000 xent               TSX1    Z8HG$FREE_REGISTER
        44 004761   000000 011000                    NOP     0

     1096    15706    6                CALL Z8HG$FREE_REGISTER(%ARQ);

  15706 44 004762   000055 630400 45                 EPPR0   45
        44 004763   000006 631400 45                 EPPR1   6
        44 004764   000000 701000 xent               TSX1    Z8HG$FREE_REGISTER
        44 004765   000000 011000                    NOP     0

     1097    15707    6                CALL Z8HG$FREE_REGISTER(%ARAQ);

  15707 44 004766   000046 630400 45                 EPPR0   38
        44 004767   000006 631400 45                 EPPR1   6
        44 004770   000000 701000 xent               TSX1    Z8HG$FREE_REGISTER
        44 004771   000000 011000                    NOP     0

     1098    15708    6                CALL Z8HG$FREE_REGISTER(%AREA);

  15708 44 004772   000057 630400 45                 EPPR0   47
        44 004773   000006 631400 45                 EPPR1   6
        44 004774   000000 701000 xent               TSX1    Z8HG$FREE_REGISTER
        44 004775   000000 011000                    NOP     0
        44 004776   005167 710000 44                 TRA     s:15763

     1099    15709
     1100    15710    6              CASE(%XR);

PL6.E3A0      #001=Z8HI$BURST File=Z8HI.:Z8A6TSI                                 SAT 08/09/97 13:19 Page:242
     1101    15711    6                CALL Z8HG$CHOOSE_REGISTER(%XR0, %XR7,REGID);

  15711 44 004777   200005 631500                    EPPR1   REGID,,AUTO
        44 005000   200262 451500                    STP1    @TAG+4,,AUTO
        44 005001   000026 237000 45                 LDAQ    22
        44 005002   200260 757100                    STAQ    @TAG+2,,AUTO
        44 005003   200260 630500                    EPPR0   @TAG+2,,AUTO
        44 005004   000000 631400 45                 EPPR1   0
        44 005005   000000 701000 xent               TSX1    Z8HG$CHOOSE_REGISTER
        44 005006   000000 011000                    NOP     0

     1102    15712
     1103    15713    6                LAST_FREED_XR = REGID;

  15713 44 005007   200005 235100                    LDA     REGID,,AUTO
        44 005010   200160 755100                    STA     LAST_FREED_XR,,AUTO
        44 005011   005167 710000 44                 TRA     s:15763

     1104    15714
     1105    15715    6              CASE(%PR);

     1106    15716    6                CALL Z8HG$CHOOSE_REGISTER(%PR0, %PR7,REGID)

  15716 44 005012   200005 631500                    EPPR1   REGID,,AUTO
        44 005013   200262 451500                    STP1    @TAG+4,,AUTO
        44 005014   000012 237000 45                 LDAQ    10
        44 005015   200260 757100                    STAQ    @TAG+2,,AUTO
        44 005016   200260 630500                    EPPR0   @TAG+2,,AUTO
        44 005017   000000 631400 45                 EPPR1   0
        44 005020   000000 701000 xent               TSX1    Z8HG$CHOOSE_REGISTER
        44 005021   005023 702000 44                 TSX2    s:15718
        44 005022   005027 710000 44                 TRA     s:15721

     1107    15717    7                  WHENALTRETURN DO;

     1108    15718    7                    CALL Z8AE$ERROR (%E$UNEXPECTED_CASE);

PL6.E3A0      #001=Z8HI$BURST File=Z8HI.:Z8A6TSI                                 SAT 08/09/97 13:19 Page:243
  15718 44 005023   000043 630400 45                 EPPR0   35
        44 005024   000006 631400 45                 EPPR1   6
        44 005025   000000 701000 xent               TSX1    Z8AE$ERROR
        44 005026   000000 011000                    NOP     0

     1109    15719    7                  END;

     1110    15720
     1111    15721    6                LAST_FREED_PR = REGID;

  15721 44 005027   200005 235100                    LDA     REGID,,AUTO
        44 005030   200161 755100                    STA     LAST_FREED_PR,,AUTO
        44 005031   005167 710000 44                 TRA     s:15763

     1112    15722
     1113    15723    6              CASE(%ARLOP, %XRLOP, %PRLOP, %ARTO, %PRTO, %XRTO);

     1114    15724    6   DAN_DNA_CHECK:
     1115    15725    7                DO REGID = %ARA TO %XR7;

  15725 44 005032   000005 235007       DAN_DNA_CHE* LDA     5,DL
        44 005033   200005 755100                    STA     REGID,,AUTO

     1116    15726    8                  IF RAT.PRIMES (REGID) ~= ADDR(NIL) THEN DO;

  15726 44 005034   200005 235100                    LDA     REGID,,AUTO
        44 005035   000002 735000                    ALS     2
        44 005036   000000 236005 1                  LDQ     RAT,AL
        44 005037   000007 116000 45                 CMPQ    7
        44 005040   005114 600000 44                 TZE     s:15744

     1117    15727    8                    P$ = RAT.PRIMES (REGID);

  15727 44 005041   200226 756100                    STQ     P$,,AUTO

     1118    15728    9                    DO UNTIL P$ = ADDR(NIL);

PL6.E3A0      #001=Z8HI$BURST File=Z8HI.:Z8A6TSI                                 SAT 08/09/97 13:19 Page:244
     1119    15729    9                     IF P$ -> PRIME.TRIAD -> ETT.ID = %DAN OR P$ -> PRIME.TRIAD -> ETT
             15729                               .ID = %DNA THEN

  15729 44 005042   200226 470500                    LDP0    P$,,AUTO
        44 005043   000001 471500                    LDP1    1,,PR0
        44 005044   100000 220100                    LDX0    0,,PR1
        44 005045   000006 100003                    CMPX0   6,DU
        44 005046   005051 600000 44                 TZE     s:15730
        44 005047   000007 100003                    CMPX0   7,DU
        44 005050   005110 601000 44                 TNZ     s:15741

     1120    15730    9                        IF (PC.OPND1 ~= %ARTO AND

  15730 44 005051   200150 721100                    LXL1    PC,,AUTO
        44 005052   000052 101003                    CMPX1   42,DU
        44 005053   005065 600000 44                 TZE     s:15730+12
        44 005054   000055 101003                    CMPX1   45,DU
        44 005055   005065 600000 44                 TZE     s:15730+12
        44 005056   000056 101003                    CMPX1   46,DU
        44 005057   005065 600000 44                 TZE     s:15730+12
        44 005060   200003 473500                    LDP3    @PILL,,AUTO
        44 005061   300000 474500                    LDP4    0,,PR3
        44 005062   100001 236100                    LDQ     1,,PR1
        44 005063   400001 116100                    CMPQ    1,,PR4
        44 005064   005100 600000 44                 TZE     s:15738
        44 005065   000052 101003                    CMPX1   42,DU
        44 005066   005073 600000 44                 TZE     s:15730+18
        44 005067   000055 101003                    CMPX1   45,DU
        44 005070   005073 600000 44                 TZE     s:15730+18
        44 005071   000056 101003                    CMPX1   46,DU
        44 005072   005110 601000 44                 TNZ     s:15741
        44 005073   200003 473500                    LDP3    @PILL,,AUTO
        44 005074   300000 474500                    LDP4    0,,PR3
        44 005075   100001 236100                    LDQ     1,,PR1
        44 005076   400003 116100                    CMPQ    3,,PR4
        44 005077   005110 601000 44                 TNZ     s:15741

PL6.E3A0      #001=Z8HI$BURST File=Z8HI.:Z8A6TSI                                 SAT 08/09/97 13:19 Page:245
     1121    15731    9                            PC.OPND1 ~= %PRTO AND
     1122    15732    9                            PC.OPND1 ~= %XRTO AND
     1123    15733    9                            P$ -> PRIME.TRIAD -> ETT.LOP = PILL -> ETT.LOP) OR
     1124    15734    9                           ((PC.OPND1 = %ARTO OR
     1125    15735    9                             PC.OPND1 = %PRTO OR
     1126    15736    9                             PC.OPND1 = %XRTO) AND
     1127    15737   10                            P$ -> PRIME.TRIAD -> ETT.LOP = PILL -> ILL.TO_) THEN DO;

     1128    15738   10                          CALL Z8HU$POOL_PRIME (P$ -> PRIME.TRIAD);

  15738 44 005100   200226 236100                    LDQ     P$,,AUTO
        44 005101   000001 036003                    ADLQ    1,DU
        44 005102   200260 756100                    STQ     @TAG+2,,AUTO
        44 005103   200260 630500                    EPPR0   @TAG+2,,AUTO
        44 005104   000006 631400 45                 EPPR1   6
        44 005105   000000 701000 xent               TSX1    Z8HU$POOL_PRIME
        44 005106   000000 011000                    NOP     0

     1129    15739   10                          EXIT DAN_DNA_CHECK;

  15739 44 005107   005121 710000 44                 TRA     s:15745

     1130    15740   10                        END;
     1131    15741    9                        P$ = P$ -> PRIME.NEXT;

  15741 44 005110   000003 236100                    LDQ     3,,PR0
        44 005111   200226 756100                    STQ     P$,,AUTO

     1132    15742    9                    END; /* UNTIL */

  15742 44 005112   000007 116000 45                 CMPQ    7
        44 005113   005042 601000 44                 TNZ     s:15729

     1133    15743    8                  END; /* IF RAT.PRIMES (REGID) ~= ADDR(NIL) */

     1134    15744    7                END; /* DAN_DNA_CHECK */

PL6.E3A0      #001=Z8HI$BURST File=Z8HI.:Z8A6TSI                                 SAT 08/09/97 13:19 Page:246
  15744 44 005114   200005 235100                    LDA     REGID,,AUTO
        44 005115   000001 035007                    ADLA    1,DL
        44 005116   200005 755100                    STA     REGID,,AUTO
        44 005117   000020 115007                    CMPA    16,DL
        44 005120   005034 602000 44                 TNC     s:15726

     1135    15745    6                IF PC.OPND1 = %ARTO OR PC.OPND1 = %PRTO OR PC.OPND1 = %XRTO

  15745 44 005121   200150 720100                    LXL0    PC,,AUTO
        44 005122   000052 100003                    CMPX0   42,DU
        44 005123   005130 600000 44                 TZE     s:15746
        44 005124   000055 100003                    CMPX0   45,DU
        44 005125   005130 600000 44                 TZE     s:15746
        44 005126   000056 100003                    CMPX0   46,DU
        44 005127   005137 601000 44                 TNZ     s:15747

     1136    15746    6                  THEN REGID = PILL -> ILL.TO_ -> ETT.STATE;

  15746 44 005130   200003 470500                    LDP0    @PILL,,AUTO
        44 005131   000000 471500                    LDP1    0,,PR0
        44 005132   100003 473500                    LDP3    3,,PR1
        44 005133   300004 236100                    LDQ     4,,PR3
        44 005134   000022 772000                    QRL     18
        44 005135   200005 756100                    STQ     REGID,,AUTO
        44 005136   005167 710000 44                 TRA     s:15763

     1137    15747    6                  ELSE REGID = PILL -> ETT.LOP -> ETT.STATE;

  15747 44 005137   200003 470500                    LDP0    @PILL,,AUTO
        44 005140   000000 471500                    LDP1    0,,PR0
        44 005141   100001 473500                    LDP3    1,,PR1
        44 005142   300004 236100                    LDQ     4,,PR3
        44 005143   000022 772000                    QRL     18
        44 005144   200005 756100                    STQ     REGID,,AUTO
        44 005145   005167 710000 44                 TRA     s:15763

     1138    15748
PL6.E3A0      #001=Z8HI$BURST File=Z8HI.:Z8A6TSI                                 SAT 08/09/97 13:19 Page:247
     1139    15749    6              CASE(%ARROP, %XRROP, %PRROP);

     1140    15750    6                REGID = PILL -> ETT.ROP -> ETT.STATE;

  15750 44 005146   200003 471500                    LDP1    @PILL,,AUTO
        44 005147   100000 473500                    LDP3    0,,PR1
        44 005150   300002 474500                    LDP4    2,,PR3
        44 005151   400004 236100                    LDQ     4,,PR4
        44 005152   000022 772000                    QRL     18
        44 005153   200005 756100                    STQ     REGID,,AUTO
        44 005154   005167 710000 44                 TRA     s:15763

     1141    15751
     1142    15752    6              CASE(%ARROPND);

     1143    15753    6                REGID = PCOM.ROPND -> ETT.STATE;

  15753 44 005155   200064 471500                    LDP1    PCOM+43,,AUTO
        44 005156   100004 236100                    LDQ     4,,PR1
        44 005157   000022 772000                    QRL     18
        44 005160   200005 756100                    STQ     REGID,,AUTO
        44 005161   005167 710000 44                 TRA     s:15763

     1144    15754
     1145    15755    6              CASE(%ALLREGS);

     1146    15756    6                CALL Z8HG$FREE_ALL_REGISTERS;

  15756 44 005162   000002 631400 45                 EPPR1   2
        44 005163   000000 701000 xent               TSX1    Z8HG$FREE_ALL_REGISTERS
        44 005164   000000 011000                    NOP     0
        44 005165   005167 710000 44                 TRA     s:15763

     1147    15757
     1148    15758    6              CASE( %PR0, %PR1, %PR2, %PR3, %PR4, %PR5, %PR6, %PR7 );

     1149    15759    6                LAST_FREED_PR = REGID;
PL6.E3A0      #001=Z8HI$BURST File=Z8HI.:Z8A6TSI                                 SAT 08/09/97 13:19 Page:248

  15759 44 005166   200161 756100                    STQ     LAST_FREED_PR,,AUTO

     1150    15760
     1151    15761    6            END /* Case */;

     1152    15762
     1153    15763    5            IF PC.OPND1 ~= %ALLREGS THEN

  15763 44 005167   200150 720100                    LXL0    PC,,AUTO
        44 005170   000053 100003                    CMPX0   43,DU
        44 005171   016024 600000 44                 TZE     s:19025

     1154    15764    6              DO;

     1155    15765    6                RAT.B.GREATER_256K(REGID) = FALSE;

  15765 44 005172   200005 235100                    LDA     REGID,,AUTO
        44 005173   000002 735000                    ALS     2
        44 005174   000060 236000 45                 LDQ     48
        44 005175   000001 356005 1                  ANSQ    RAT+1,AL

     1156    15766    6                IF REGID = %AREA THEN

  15766 44 005176   200005 235100                    LDA     REGID,,AUTO
        44 005177   000021 115007                    CMPA    17,DL
        44 005200   005204 601000 44                 TNZ     s:15768

     1157    15767    6                  RAT.B.DIRTY_ARQ(%AREA) = FALSE;

  15767 44 005201   000061 236000 45                 LDQ     49
        44 005202   000105 356000 1                  ANSQ    RAT+69
        44 005203   005213 710000 44                 TRA     s:15772

     1158    15768    6                ELSE IF REGID = %ARQ THEN

  15768 44 005204   000006 115007                    CMPA    6,DL
PL6.E3A0      #001=Z8HI$BURST File=Z8HI.:Z8A6TSI                                 SAT 08/09/97 13:19 Page:249
        44 005205   005213 601000 44                 TNZ     s:15772

     1159    15769    6                  IF RAT.PRIMES(%AREA) ~= ADDR(NIL) THEN

  15769 44 005206   000104 236000 1                  LDQ     RAT+68
        44 005207   000007 116000 45                 CMPQ    7
        44 005210   005213 600000 44                 TZE     s:15772

     1160    15770    6                    RAT.B.DIRTY_ARQ(%AREA) = TRUE;

  15770 44 005211   040000 236003                    LDQ     16384,DU
        44 005212   000105 256000 1                  ORSQ    RAT+69

     1161    15771
     1162    15772    6                CALL Z8HG$FREE_REGISTER(REGID);

  15772 44 005213   200005 630500                    EPPR0   REGID,,AUTO
        44 005214   200260 450500                    STP0    @TAG+2,,AUTO
        44 005215   200260 630500                    EPPR0   @TAG+2,,AUTO
        44 005216   000006 631400 45                 EPPR1   6
        44 005217   000000 701000 xent               TSX1    Z8HG$FREE_REGISTER
        44 005220   000000 011000                    NOP     0

     1163    15773    6                LAST_FREED = REGID;

  15773 44 005221   200005 235100                    LDA     REGID,,AUTO
        44 005222   200007 755100                    STA     LAST_FREED,,AUTO

     1164    15774
     1165    15775                     %UNFAVOR;

  15777 44 005223   000062 236000 45                 LDQ     50
        44 005224   000025 356000 1                  ANSQ    RAT+21

  15778 44 005225   000031 356000 1                  ANSQ    RAT+25

     1166    15781    6              END;
PL6.E3A0      #001=Z8HI$BURST File=Z8HI.:Z8A6TSI                                 SAT 08/09/97 13:19 Page:250

  15781 44 005226   016024 710000 44                 TRA     s:19025

     1167    15782
     1168    15783    5          CASE(%USED);

     1169    15784
     1170    15785                 %LOP_ROP_TO(OP=PC.OPND3);

  15786 44 005227   200151 722100                    LXL2    PC+1,,AUTO
        44 005230   000004 102003                    CMPX2   4,DU
        44 005231   005233 602012 44                 TNC     s:15786+4,X2
        44 005232   005262 710000 44                 TRA     s:15796
        44 005233   005237 710000 44                 TRA     s:15788
        44 005234   005243 710000 44                 TRA     s:15790
        44 005235   005250 710000 44                 TRA     s:15792
        44 005236   005255 710000 44                 TRA     s:15794

  15788 44 005237   200003 471500                    LDP1    @PILL,,AUTO
        44 005240   100000 236100                    LDQ     0,,PR1
        44 005241   200153 756100                    STQ     OPND,,AUTO
        44 005242   005264 710000 44                 TRA     s:15800

  15790 44 005243   200003 471500                    LDP1    @PILL,,AUTO
        44 005244   100000 473500                    LDP3    0,,PR1
        44 005245   300001 236100                    LDQ     1,,PR3
        44 005246   200153 756100                    STQ     OPND,,AUTO
        44 005247   005264 710000 44                 TRA     s:15800

  15792 44 005250   200003 471500                    LDP1    @PILL,,AUTO
        44 005251   100000 473500                    LDP3    0,,PR1
        44 005252   300002 236100                    LDQ     2,,PR3
        44 005253   200153 756100                    STQ     OPND,,AUTO
        44 005254   005264 710000 44                 TRA     s:15800

  15794 44 005255   200003 471500                    LDP1    @PILL,,AUTO
        44 005256   100000 473500                    LDP3    0,,PR1
PL6.E3A0      #001=Z8HI$BURST File=Z8HI.:Z8A6TSI                                 SAT 08/09/97 13:19 Page:251
        44 005257   300003 236100                    LDQ     3,,PR3
        44 005260   200153 756100                    STQ     OPND,,AUTO
        44 005261   005264 710000 44                 TRA     s:15800

  15796 44 005262   200043 236112                    LDQ     PCOM+26,X2,AUTO
        44 005263   200153 756100                    STQ     OPND,,AUTO

     1171    15799
     1172    15800    6            DO CASE(PC.OPND1);

  15800 44 005264   200150 723100                    LXL3    PC,,AUTO
        44 005265   000045 103003                    CMPX3   37,DU
        44 005266   005270 602013 44                 TNC     s:15800+4,X3
        44 005267   005422 710000 44                 TRA     s:15814
        44 005270   005422 710000 44                 TRA     s:15814
        44 005271   005422 710000 44                 TRA     s:15814
        44 005272   005422 710000 44                 TRA     s:15814
        44 005273   005422 710000 44                 TRA     s:15814
        44 005274   005335 710000 44                 TRA     s:15802
        44 005275   005422 710000 44                 TRA     s:15814
        44 005276   005422 710000 44                 TRA     s:15814
        44 005277   005422 710000 44                 TRA     s:15814
        44 005300   005422 710000 44                 TRA     s:15814
        44 005301   005422 710000 44                 TRA     s:15814
        44 005302   005422 710000 44                 TRA     s:15814
        44 005303   005422 710000 44                 TRA     s:15814
        44 005304   005422 710000 44                 TRA     s:15814
        44 005305   005422 710000 44                 TRA     s:15814
        44 005306   005422 710000 44                 TRA     s:15814
        44 005307   005422 710000 44                 TRA     s:15814
        44 005310   005335 710000 44                 TRA     s:15802
        44 005311   005422 710000 44                 TRA     s:15814
        44 005312   005422 710000 44                 TRA     s:15814
        44 005313   005422 710000 44                 TRA     s:15814
        44 005314   005422 710000 44                 TRA     s:15814
        44 005315   005422 710000 44                 TRA     s:15814
        44 005316   005422 710000 44                 TRA     s:15814
PL6.E3A0      #001=Z8HI$BURST File=Z8HI.:Z8A6TSI                                 SAT 08/09/97 13:19 Page:252
        44 005317   005422 710000 44                 TRA     s:15814
        44 005320   005422 710000 44                 TRA     s:15814
        44 005321   005422 710000 44                 TRA     s:15814
        44 005322   005422 710000 44                 TRA     s:15814
        44 005323   005422 710000 44                 TRA     s:15814
        44 005324   005335 710000 44                 TRA     s:15802
        44 005325   005422 710000 44                 TRA     s:15814
        44 005326   005422 710000 44                 TRA     s:15814
        44 005327   005350 710000 44                 TRA     s:15806
        44 005330   005350 710000 44                 TRA     s:15806
        44 005331   005350 710000 44                 TRA     s:15806
        44 005332   005375 710000 44                 TRA     s:15810
        44 005333   005375 710000 44                 TRA     s:15810
        44 005334   005375 710000 44                 TRA     s:15810

     1173    15801    6              CASE(%AR, %XR, %PR);

     1174    15802    6                CALL Z8HG$USE_REGISTER(OPND,LAST_FREED);

  15802 44 005335   200007 631500                    EPPR1   LAST_FREED,,AUTO
        44 005336   200261 451500                    STP1    @TAG+3,,AUTO
        44 005337   200153 633500                    EPPR3   OPND,,AUTO
        44 005340   200260 453500                    STP3    @TAG+2,,AUTO
        44 005341   200260 630500                    EPPR0   @TAG+2,,AUTO
        44 005342   000015 631400 45                 EPPR1   13
        44 005343   000000 701000 xent               TSX1    Z8HG$USE_REGISTER
        44 005344   000000 011000                    NOP     0

     1175    15803    6                LAST_USED = LAST_FREED;

  15803 44 005345   200007 235100                    LDA     LAST_FREED,,AUTO
        44 005346   200006 755100                    STA     LAST_USED,,AUTO
        44 005347   016024 710000 44                 TRA     s:19025

     1176    15804
     1177    15805    6              CASE(%ARLOP, %XRLOP, %PRLOP);

PL6.E3A0      #001=Z8HI$BURST File=Z8HI.:Z8A6TSI                                 SAT 08/09/97 13:19 Page:253
     1178    15806    6                CALL Z8HG$USE_REGISTER(OPND,BINBIT(PILL -> ETT.LOP -> ETT.STATE,36));

  15806 44 005350   200003 471500                    LDP1    @PILL,,AUTO
        44 005351   100000 473500                    LDP3    0,,PR1
        44 005352   300001 474500                    LDP4    1,,PR3
        44 005353   400004 236100                    LDQ     4,,PR4
        44 005354   000022 772000                    QRL     18
        44 005355   200260 756100                    STQ     @TAG+2,,AUTO
        44 005356   200260 633500                    EPPR3   @TAG+2,,AUTO
        44 005357   200263 453500                    STP3    @TAG+5,,AUTO
        44 005360   200153 634500                    EPPR4   OPND,,AUTO
        44 005361   200262 454500                    STP4    @TAG+4,,AUTO
        44 005362   200262 630500                    EPPR0   @TAG+4,,AUTO
        44 005363   000015 631400 45                 EPPR1   13
        44 005364   000000 701000 xent               TSX1    Z8HG$USE_REGISTER
        44 005365   000000 011000                    NOP     0

     1179    15807    6                LAST_USED = PILL -> ETT.LOP -> ETT.STATE;

  15807 44 005366   200003 470500                    LDP0    @PILL,,AUTO
        44 005367   000000 471500                    LDP1    0,,PR0
        44 005370   100001 473500                    LDP3    1,,PR1
        44 005371   300004 236100                    LDQ     4,,PR3
        44 005372   000022 772000                    QRL     18
        44 005373   200006 756100                    STQ     LAST_USED,,AUTO
        44 005374   016024 710000 44                 TRA     s:19025

     1180    15808
     1181    15809    6              CASE(%ARROP, %XRROP, %PRROP);

     1182    15810    6                CALL Z8HG$USE_REGISTER(OPND,BINBIT(PILL -> ETT.ROP -> ETT.STATE,36));

  15810 44 005375   200003 471500                    LDP1    @PILL,,AUTO
        44 005376   100000 473500                    LDP3    0,,PR1
        44 005377   300002 474500                    LDP4    2,,PR3
        44 005400   400004 236100                    LDQ     4,,PR4
        44 005401   000022 772000                    QRL     18
PL6.E3A0      #001=Z8HI$BURST File=Z8HI.:Z8A6TSI                                 SAT 08/09/97 13:19 Page:254
        44 005402   200260 756100                    STQ     @TAG+2,,AUTO
        44 005403   200260 633500                    EPPR3   @TAG+2,,AUTO
        44 005404   200263 453500                    STP3    @TAG+5,,AUTO
        44 005405   200153 634500                    EPPR4   OPND,,AUTO
        44 005406   200262 454500                    STP4    @TAG+4,,AUTO
        44 005407   200262 630500                    EPPR0   @TAG+4,,AUTO
        44 005410   000015 631400 45                 EPPR1   13
        44 005411   000000 701000 xent               TSX1    Z8HG$USE_REGISTER
        44 005412   000000 011000                    NOP     0

     1183    15811    6                LAST_USED = PILL -> ETT.ROP -> ETT.STATE;

  15811 44 005413   200003 470500                    LDP0    @PILL,,AUTO
        44 005414   000000 471500                    LDP1    0,,PR0
        44 005415   100002 473500                    LDP3    2,,PR1
        44 005416   300004 236100                    LDQ     4,,PR3
        44 005417   000022 772000                    QRL     18
        44 005420   200006 756100                    STQ     LAST_USED,,AUTO
        44 005421   016024 710000 44                 TRA     s:19025

     1184    15812
     1185    15813    6              CASE(ELSE, %OPTIMIZATION);

     1186    15814    6                CALL Z8HG$USE_REGISTER(OPND,BINBIT(PC.OPND1,36));

  15814 44 005422   200150 236100                    LDQ     PC,,AUTO
        44 005423   777777 376007                    ANQ     -1,DL
        44 005424   200260 756100                    STQ     @TAG+2,,AUTO
        44 005425   200260 631500                    EPPR1   @TAG+2,,AUTO
        44 005426   200263 451500                    STP1    @TAG+5,,AUTO
        44 005427   200153 633500                    EPPR3   OPND,,AUTO
        44 005430   200262 453500                    STP3    @TAG+4,,AUTO
        44 005431   200262 630500                    EPPR0   @TAG+4,,AUTO
        44 005432   000015 631400 45                 EPPR1   13
        44 005433   000000 701000 xent               TSX1    Z8HG$USE_REGISTER
        44 005434   000000 011000                    NOP     0

PL6.E3A0      #001=Z8HI$BURST File=Z8HI.:Z8A6TSI                                 SAT 08/09/97 13:19 Page:255
     1187    15815    6                LAST_USED = PC.OPND1;

  15815 44 005435   200150 236100                    LDQ     PC,,AUTO
        44 005436   777777 376007                    ANQ     -1,DL
        44 005437   200006 756100                    STQ     LAST_USED,,AUTO

     1188    15816
     1189    15817    6            END /* Case */;

     1190    15818
     1191    15819    5        END /* Case */;

  15819 44 005440   016024 710000 44                 TRA     s:19025

     1192    15820
     1193    15821        %EJECT;
PL6.E3A0      #001=Z8HI$BURST File=Z8HI.:Z8A6TSI                                 SAT 08/09/97 13:19 Page:256
     1194    15822    4   CASE(%ATTACH);

     1195    15823
     1196    15824    4        PILL -> ETT.REF$ = PCOM_.OPND(PC.OPND1) -> ETT.REF$;

  15824 44 005441   200003 471500                    LDP1    @PILL,,AUTO
        44 005442   100000 473500                    LDP3    0,,PR1
        44 005443   200150 721100                    LXL1    PC,,AUTO
        44 005444   200043 474511                    LDP4    PCOM+26,X1,AUTO
        44 005445   400003 236100                    LDQ     3,,PR4
        44 005446   300003 756100                    STQ     3,,PR3

     1197    15825    4        IF PCOM_.OPND(PC.OPND1) -> ETT.ID = %SIZ THEN

  15825 44 005447   200043 473511                    LDP3    PCOM+26,X1,AUTO
        44 005450   300000 222100                    LDX2    0,,PR3
        44 005451   000004 102003                    CMPX2   4,DU
        44 005452   005465 601000 44                 TNZ     s:15828

     1198    15826    4          IF PCOM_.OPND(PC.OPND1) -> ETT.LOP -> ETT.REF$ ~= ADDR (NIL) THEN

  15826 44 005453   300001 474500                    LDP4    1,,PR3
        44 005454   400003 236100                    LDQ     3,,PR4
        44 005455   000007 116000 45                 CMPQ    7
        44 005456   005465 600000 44                 TZE     s:15828

     1199    15827    4            CALL Z8HU$POOL (PCOM_.OPND(PC.OPND1) -> ETT.LOP);

  15827 44 005457   300001 635500                    EPPR5   1,,PR3
        44 005460   200260 455500                    STP5    @TAG+2,,AUTO
        44 005461   200260 630500                    EPPR0   @TAG+2,,AUTO
        44 005462   000006 631400 45                 EPPR1   6
        44 005463   000000 701000 xent               TSX1    Z8HU$POOL
        44 005464   000000 011000                    NOP     0

     1200    15828    4        PILL -> ETT.REF$ -> REF.ST$ -> TEMP.REFERENCES = PILL -> ETT.COUNT;

PL6.E3A0      #001=Z8HI$BURST File=Z8HI.:Z8A6TSI                                 SAT 08/09/97 13:19 Page:257
  15828 44 005465   200003 470500                    LDP0    @PILL,,AUTO
        44 005466   000000 471500                    LDP1    0,,PR0
        44 005467   100003 473500                    LDP3    3,,PR1
        44 005470   300005 474500                    LDP4    5,,PR3
        44 005471   100000 720100                    LXL0    0,,PR1
        44 005472   400004 740100                    STX0    4,,PR4

     1201    15829    4        PILL -> ETT.REF$ -> REF.ST$ -> TEMP.B.GREATER_256K =

  15829 44 005473   000000 471500                    LDP1    0,,PR0
        44 005474   100003 473500                    LDP3    3,,PR1
        44 005475   300005 474500                    LDP4    5,,PR3
        44 005476   100004 220100                    LDX0    4,,PR1
        44 005477   100004 020100                    ADLX0   4,,PR1
        44 005500   000000 635010                    EAA     0,X0
        44 005501   000021 771000                    ARL     17
        44 005502   000001 236005 1                  LDQ     RAT+1,AL
        44 005503   400003 676100                    ERQ     3,,PR4
        44 005504   200000 376003                    ANQ     65536,DU
        44 005505   400003 656100                    ERSQ    3,,PR4

     1202    15830    4            RAT.B.GREATER_256K (PILL -> ETT.STATE);
     1203    15831
     1204    15832    4        IF PILL -> ETT.STATE = %UNEVAL_T THEN

  15832 44 005506   000000 471500                    LDP1    0,,PR0
        44 005507   100004 220100                    LDX0    4,,PR1
        44 005510   005513 601000 44                 TNZ     s:15835

     1205    15833    4          PILL -> ETT.STATE = %REF_T;

  15833 44 005511   000004 221003                    LDX1    4,DU
        44 005512   100004 741100                    STX1    4,,PR1

     1206    15834
     1207    15835    4        PCOM_.OPND(PC.OPND1) -> ETT.COUNT = 0;

PL6.E3A0      #001=Z8HI$BURST File=Z8HI.:Z8A6TSI                                 SAT 08/09/97 13:19 Page:258
  15835 44 005513   200150 720100                    LXL0    PC,,AUTO
        44 005514   200043 471510                    LDP1    PCOM+26,X0,AUTO
        44 005515   000000 221003                    LDX1    0,DU
        44 005516   100000 441100                    SXL1    0,,PR1

     1208    15836
     1209    15837             %INSERT_INTO_SL_LIST( PTR  = "PCOM_.OPND(PC.OPND1)" ,
     1210    15838                                   ITEM = ETT ,
     1211    15839                                   HEAD = HEAD_ETT$ ,
     1212    15840                                   NEXT = NEXT$ );

  15843 44 005517   200043 471510                    LDP1    PCOM+26,X0,AUTO
        44 005520   000000 236000 20                 LDQ     HEAD_ETT$
        44 005521   100003 756100                    STQ     3,,PR1

  15844 44 005522   200043 236110                    LDQ     PCOM+26,X0,AUTO
        44 005523   000000 756000 20                 STQ     HEAD_ETT$

  15845 44 005524   016024 710000 44                 TRA     s:19025

     1213    15853
     1214    15854        %EJECT;
PL6.E3A0      #001=Z8HI$BURST File=Z8HI.:Z8A6TSI                                 SAT 08/09/97 13:19 Page:259
     1215    15855    4   CASE(%BURST);

     1216    15856        /*V*
     1217    15857
     1218    15858                                  BURST
     1219    15859
     1220    15860            PURPOSE: TO ALLOW THE USER TO INTERPRET PSEUDO-CODE IN A
     1221    15861                     MODULE OTHER THAN THE ONE CURRENTLY ACTIVE. USUALLY
     1222    15862                     THIS WILL BE THE SYSTEM DEPENDANT PSEUDO-CODE
     1223    15863                     MODULE.
     1224    15864
     1225    15865              INPUT: PC.OPND1 - AN OFFSET INTO THE PCOM VARIABLES OF THE
     1226    15866                     XXX VARIETY.  THIS XXX VARIABLE CONTAINS (AS DO ALL
     1227    15867                     XXX VARIABLES), A PSEUDO_CODE ENTRY POINT DESCRIPTOR
     1228    15868                     WORD.
     1229    15869
     1230    15870        DESCRIPTION: INTERPRETATION OF THE CURRENT PSEUDO-CODE SEQUENCE
     1231    15871                     IS SUSPENDED VIA RECURSION.  MODULE Z8HI$BURST USES
     1232    15872                     THE DESCRIPTOR WORD TO DETERMINE WHERE INTERPRETATION
     1233    15873                     IS TO BEGIN.  ONCE A QUIT DIRECTIVE IS ENCOUNTERED,
     1234    15874                     WE RETURN HERE TO RESUME INTERPRETATION OF THE ORIGINAL
     1235    15875                     PSEUDO-CODE SEQUENCE.
     1236    15876
     1237    15877               NOTE: NESTED BURST ACTIONS ARE, OF COURSE, ALLOWED.
     1238    15878
     1239    15879        */
     1240    15880
     1241    15881        /*   CALL Z8HI$BURST(PILL,DEP_.DEP(PC.OPND1));   */
     1242    15882
     1243    15883        %EJECT;
PL6.E3A0      #001=Z8HI$BURST File=Z8HI.:Z8A6TSI                                 SAT 08/09/97 13:19 Page:260
     1244    15884    4   CASE(%CASE);

     1245    15885        /*V*
     1246    15886
     1247    15887                           CASE
     1248    15888
     1249    15889             SEE MODULE Z8HC.
     1250    15890
     1251    15891        */
     1252    15892
     1253    15893    4        CALL Z8HC$SPECIAL_CASES(PILL,PCOM,CASE_PASS);

  15893 44 005525   200221 631500                    EPPR1   CASE_PASS,,AUTO
        44 005526   200262 451500                    STP1    @TAG+4,,AUTO
        44 005527   200011 633500                    EPPR3   PCOM,,AUTO
        44 005530   200261 453500                    STP3    @TAG+3,,AUTO
        44 005531   200003 236100                    LDQ     @PILL,,AUTO
        44 005532   200260 756100                    STQ     @TAG+2,,AUTO
        44 005533   200260 630500                    EPPR0   @TAG+2,,AUTO
        44 005534   000000 631400 45                 EPPR1   0
        44 005535   000000 701000 xent               TSX1    Z8HC$SPECIAL_CASES
        44 005536   000000 011000                    NOP     0

     1254    15894    4        CASE_PASS = CASE_PASS + 1;

  15894 44 005537   200221 054100                    AOS     CASE_PASS,,AUTO
        44 005540   016024 710000 44                 TRA     s:19025

     1255    15895
     1256    15896        %EJECT;
PL6.E3A0      #001=Z8HI$BURST File=Z8HI.:Z8A6TSI                                 SAT 08/09/97 13:19 Page:261
     1257    15897    4   CASE(%DECCNT);

     1258    15898
     1259    15899             %LOP_ROP_TO;

  15900 44 005541   200150 721100                    LXL1    PC,,AUTO
        44 005542   000004 101003                    CMPX1   4,DU
        44 005543   005545 602011 44                 TNC     s:15900+4,X1
        44 005544   005574 710000 44                 TRA     s:15910
        44 005545   005551 710000 44                 TRA     s:15902
        44 005546   005555 710000 44                 TRA     s:15904
        44 005547   005562 710000 44                 TRA     s:15906
        44 005550   005567 710000 44                 TRA     s:15908

  15902 44 005551   200003 471500                    LDP1    @PILL,,AUTO
        44 005552   100000 236100                    LDQ     0,,PR1
        44 005553   200153 756100                    STQ     OPND,,AUTO
        44 005554   005576 710000 44                 TRA     s:15913

  15904 44 005555   200003 471500                    LDP1    @PILL,,AUTO
        44 005556   100000 473500                    LDP3    0,,PR1
        44 005557   300001 236100                    LDQ     1,,PR3
        44 005560   200153 756100                    STQ     OPND,,AUTO
        44 005561   005576 710000 44                 TRA     s:15913

  15906 44 005562   200003 471500                    LDP1    @PILL,,AUTO
        44 005563   100000 473500                    LDP3    0,,PR1
        44 005564   300002 236100                    LDQ     2,,PR3
        44 005565   200153 756100                    STQ     OPND,,AUTO
        44 005566   005576 710000 44                 TRA     s:15913

  15908 44 005567   200003 471500                    LDP1    @PILL,,AUTO
        44 005570   100000 473500                    LDP3    0,,PR1
        44 005571   300003 236100                    LDQ     3,,PR3
        44 005572   200153 756100                    STQ     OPND,,AUTO
        44 005573   005576 710000 44                 TRA     s:15913

PL6.E3A0      #001=Z8HI$BURST File=Z8HI.:Z8A6TSI                                 SAT 08/09/97 13:19 Page:262
  15910 44 005574   200043 236111                    LDQ     PCOM+26,X1,AUTO
        44 005575   200153 756100                    STQ     OPND,,AUTO

     1260    15913    4        CALL Z8HU$DEC_COUNT(OPND,BINBIT(PC.OPND2,36));

  15913 44 005576   200151 236100                    LDQ     PC+1,,AUTO
        44 005577   000022 772000                    QRL     18
        44 005600   200260 756100                    STQ     @TAG+2,,AUTO
        44 005601   200260 631500                    EPPR1   @TAG+2,,AUTO
        44 005602   200263 451500                    STP1    @TAG+5,,AUTO
        44 005603   200153 633500                    EPPR3   OPND,,AUTO
        44 005604   200262 453500                    STP3    @TAG+4,,AUTO
        44 005605   200262 630500                    EPPR0   @TAG+4,,AUTO
        44 005606   000015 631400 45                 EPPR1   13
        44 005607   000000 701000 xent               TSX1    Z8HU$DEC_COUNT
        44 005610   000000 011000                    NOP     0
        44 005611   016024 710000 44                 TRA     s:19025

     1261    15914
     1262    15915
     1263    15916        %EJECT;
PL6.E3A0      #001=Z8HI$BURST File=Z8HI.:Z8A6TSI                                 SAT 08/09/97 13:19 Page:263
     1264    15917    4   CASE(%DEFER);

     1265    15918        /*V*
     1266    15919
     1267    15920                          DEFER
     1268    15921
     1269    15922             BECAUSE THE INSTRUCTION WORD OF A MULTI-WORD EIS
     1270    15923           INSTRUCTION MAY NEED TO HAVE ITS MF FIELDS MODIFIED AS
     1271    15924           SUBSEQUENT DESCRIPTOR WORDS GENERATED, ALL INSTRUCTIONS
     1272    15925           THAT FALL INTO THE CATEGORY OF MULTI-WORD EIS MUST BE
     1273    15926           BUFFERED UNTIL ALL WORDS THAT MAKE UP THE INSTRUCTION
     1274    15927           ARE GENERATED.
     1275    15928             USE THE DEFER DIRECTIVE TO START BUFFERING.  USE THE
     1276    15929          WRAPUP DIRECTIVE TO FINALLY FLUSH THE DEFERRED WORDS TO
     1277    15930           THE OBJ TABLE.
     1278    15931             WRAPUP MAY ALSO SET THE TRIAD-CODE OF THE CURRENT TRIAD
     1279    15932           TO TEMP CONTAINED FOR BURSTS WHERE A TEMP IS CREATED.
     1280    15933
     1281    15934        */
     1282    15935
     1283    15936    4        DEFER = TRUE;

  15936 44 005612   400000 236003                    LDQ     -131072,DU
        44 005613   200123 756100                    STQ     DEFER,,AUTO
        44 005614   016024 710000 44                 TRA     s:19025

     1284    15937        %EJECT;
PL6.E3A0      #001=Z8HI$BURST File=Z8HI.:Z8A6TSI                                 SAT 08/09/97 13:19 Page:264
     1285    15938    4   CASE(%DEFLAB);

     1286    15939
     1287    15940             %LOP_ROP_TO;

  15941 44 005615   200150 721100                    LXL1    PC,,AUTO
        44 005616   000004 101003                    CMPX1   4,DU
        44 005617   005621 602011 44                 TNC     s:15941+4,X1
        44 005620   005650 710000 44                 TRA     s:15951
        44 005621   005625 710000 44                 TRA     s:15943
        44 005622   005631 710000 44                 TRA     s:15945
        44 005623   005636 710000 44                 TRA     s:15947
        44 005624   005643 710000 44                 TRA     s:15949

  15943 44 005625   200003 471500                    LDP1    @PILL,,AUTO
        44 005626   100000 236100                    LDQ     0,,PR1
        44 005627   200153 756100                    STQ     OPND,,AUTO
        44 005630   005652 710000 44                 TRA     s:15955

  15945 44 005631   200003 471500                    LDP1    @PILL,,AUTO
        44 005632   100000 473500                    LDP3    0,,PR1
        44 005633   300001 236100                    LDQ     1,,PR3
        44 005634   200153 756100                    STQ     OPND,,AUTO
        44 005635   005652 710000 44                 TRA     s:15955

  15947 44 005636   200003 471500                    LDP1    @PILL,,AUTO
        44 005637   100000 473500                    LDP3    0,,PR1
        44 005640   300002 236100                    LDQ     2,,PR3
        44 005641   200153 756100                    STQ     OPND,,AUTO
        44 005642   005652 710000 44                 TRA     s:15955

  15949 44 005643   200003 471500                    LDP1    @PILL,,AUTO
        44 005644   100000 473500                    LDP3    0,,PR1
        44 005645   300003 236100                    LDQ     3,,PR3
        44 005646   200153 756100                    STQ     OPND,,AUTO
        44 005647   005652 710000 44                 TRA     s:15955

PL6.E3A0      #001=Z8HI$BURST File=Z8HI.:Z8A6TSI                                 SAT 08/09/97 13:19 Page:265
  15951 44 005650   200043 236111                    LDQ     PCOM+26,X1,AUTO
        44 005651   200153 756100                    STQ     OPND,,AUTO

     1288    15954
     1289    15955    5        DO CASE(OPND -> ST.ID);

  15955 44 005652   200153 471500                    LDP1    OPND,,AUTO
        44 005653   100000 236100                    LDQ     0,,PR1
        44 005654   000022 772000                    QRL     18
        44 005655   000770 136007                    SBLQ    504,DL
        44 005656   000007 116007                    CMPQ    7,DL
        44 005657   005661 602006 44                 TNC     s:15955+7,QL
        44 005660   005721 710000 44                 TRA     s:15986
        44 005661   005670 710000 44                 TRA     s:15973
        44 005662   005670 710000 44                 TRA     s:15973
        44 005663   005721 710000 44                 TRA     s:15986
        44 005664   005711 710000 44                 TRA     s:15981
        44 005665   005721 710000 44                 TRA     s:15986
        44 005666   005721 710000 44                 TRA     s:15986
        44 005667   005711 710000 44                 TRA     s:15981

     1290    15956    5          CASE(%PARA, %SECTION);

     1291    15957
     1292    15958                 %SEGMENT_ORG_MOD;

     1293    15963
     1294    15964                 %IF GCOS;
     1301    15971                 %ENDIF;
     1302    15972
     1303    15973    5            OPND -> LABEL.B.ALLOCATED = TRUE;

  15973 44 005670   100000 236007                    LDQ     32768,DL
        44 005671   100003 256100                    ORSQ    3,,PR1

     1304    15974    5            IF OPND -> LABEL.B.REFERENCED THEN

PL6.E3A0      #001=Z8HI$BURST File=Z8HI.:Z8A6TSI                                 SAT 08/09/97 13:19 Page:266
  15974 44 005672   200153 471500                    LDP1    OPND,,AUTO
        44 005673   100003 234100                    SZN     3,,PR1
        44 005674   005700 605000 44                 TPL     s:15977

     1305    15975    5              CALL Z8HG$FREE_ALL_REGISTERS;

  15975 44 005675   000002 631400 45                 EPPR1   2
        44 005676   000000 701000 xent               TSX1    Z8HG$FREE_ALL_REGISTERS
        44 005677   000000 011000                    NOP     0

     1306    15976
     1307    15977    5            OPND -> LABEL.COUNT = CURRENT_BLOCK$ -> BLOCK.COUNT;

  15977 44 005700   000000 470400 4                  LDP0    CURRENT_BLOCK$
        44 005701   200153 471500                    LDP1    OPND,,AUTO
        44 005702   000000 236100                    LDQ     0,,PR0
        44 005703   100000 552104                    STBQ    0,'04'O,PR1

     1308    15978    5            OPND -> LABEL.DESC.SA = CURRENT_BLOCK$ -> BLOCK.SIZE;

  15978 44 005704   000000 470400 4                  LDP0    CURRENT_BLOCK$
        44 005705   000002 220100                    LDX0    2,,PR0
        44 005706   200153 471500                    LDP1    OPND,,AUTO
        44 005707   100001 740100                    STX0    1,,PR1
        44 005710   005754 710000 44                 TRA     s:16019

     1309    15979
     1310    15980    5          CASE(%INTDEF, %SYMDEF_);

     1311    15981    5            CALL Z8HG$FREE_ALL_REGISTERS;

  15981 44 005711   000002 631400 45                 EPPR1   2
        44 005712   000000 701000 xent               TSX1    Z8HG$FREE_ALL_REGISTERS
        44 005713   000000 011000                    NOP     0

     1312    15982
     1313    15983    5            OPND -> LABEL.DESC.SA = CURRENT_BLOCK$ -> BLOCK.SIZE;
PL6.E3A0      #001=Z8HI$BURST File=Z8HI.:Z8A6TSI                                 SAT 08/09/97 13:19 Page:267

  15983 44 005714   000000 470400 4                  LDP0    CURRENT_BLOCK$
        44 005715   000002 220100                    LDX0    2,,PR0
        44 005716   200153 471500                    LDP1    OPND,,AUTO
        44 005717   100001 740100                    STX0    1,,PR1
        44 005720   005754 710000 44                 TRA     s:16019

     1314    15984
     1315    15985    5          CASE(ELSE);

     1316    15986    5            IF OPND -> ETT.ID > %LAST_ETT THEN

  15986 44 005721   100000 222100                    LDX2    0,,PR1
        44 005722   000202 102003                    CMPX2   130,DU
        44 005723   005731 602000 44                 TNC     s:15990

     1317    15987    5              CALL Z8AE$ERROR(%E$UNEXPECTED_CASE);

  15987 44 005724   000043 630400 45                 EPPR0   35
        44 005725   000006 631400 45                 EPPR1   6
        44 005726   000000 701000 xent               TSX1    Z8AE$ERROR
        44 005727   000000 011000                    NOP     0
        44 005730   005754 710000 44                 TRA     s:16019

     1318    15988    5            ELSE
     1319    15989    6              DO;

     1320    15990    6                OPND -> ETT.LOP -> LABEL.DESC.SA = CURRENT_BLOCK$ -> BLOCK.SIZE;

  15990 44 005731   100001 473500                    LDP3    1,,PR1
        44 005732   000000 474400 4                  LDP4    CURRENT_BLOCK$
        44 005733   400002 223100                    LDX3    2,,PR4
        44 005734   300001 743100                    STX3    1,,PR3

     1321    15991    6                CALL Z8HU$WALK(OPND);

  15991 44 005735   200153 631500                    EPPR1   OPND,,AUTO
PL6.E3A0      #001=Z8HI$BURST File=Z8HI.:Z8A6TSI                                 SAT 08/09/97 13:19 Page:268
        44 005736   200260 451500                    STP1    @TAG+2,,AUTO
        44 005737   200260 630500                    EPPR0   @TAG+2,,AUTO
        44 005740   000006 631400 45                 EPPR1   6
        44 005741   000000 701000 xent               TSX1    Z8HU$WALK
        44 005742   000000 011000                    NOP     0

     1322    15992
     1323    15993    6                OPND = OPND -> ETT.LOP;

  15993 44 005743   200153 470500                    LDP0    OPND,,AUTO
        44 005744   000001 236100                    LDQ     1,,PR0
        44 005745   200153 756100                    STQ     OPND,,AUTO

     1324    15994    6                IF OPND -> ST.ID = %PARA    THEN

  15994 44 005746   200153 470500                    LDP0    OPND,,AUTO
        44 005747   000000 220100                    LDX0    0,,PR0
        44 005750   000771 100003                    CMPX0   505,DU
        44 005751   005754 601000 44                 TNZ     s:16019

     1325    15995    6                  OPND -> LABEL.B.ALLOCATED = %TRUE;

  15995 44 005752   100000 236007                    LDQ     32768,DL
        44 005753   000003 256100                    ORSQ    3,,PR0

     1326    15996
     1327    15997    6              END;

     1328    15998    5        END; /* Case */

     1329    15999
     1330    16000
     1331    16001             %NEW_LAB ( @ST$ = OPND );

  16019 44 005754   000002 236000 34                 LDQ     OBJ_+2
        44 005755   000002 036007                    ADLQ    2,DL
        44 005756   000003 116000 34                 CMPQ    OBJ_+3
PL6.E3A0      #001=Z8HI$BURST File=Z8HI.:Z8A6TSI                                 SAT 08/09/97 13:19 Page:269
        44 005757   005771 604000 44                 TMI     s:16025

  16021 44 005760   000000 234000 28                 SZN     PAGING_OBJ
        44 005761   005766 605000 44                 TPL     s:16023

  16022 44 005762   000020 630400 45                 EPPR0   16
        44 005763   000006 631400 45                 EPPR1   6
        44 005764   000000 701000 xent               TSX1    Z9HF$WRITE_OBJ_PAGE
        44 005765   000000 011000                    NOP     0

  16023 44 005766   000002 631400 45                 EPPR1   2
        44 005767   000000 701000 xent               TSX1    Z9HF$GET_OBJ_PAGE
        44 005770   000000 011000                    NOP     0

  16025 44 005771   000002 236000 34                 LDQ     OBJ_+2
        44 005772   000022 736000                    QLS     18
        44 005773   000001 036000 34                 ADLQ    OBJ_+1
        44 005774   000000 756000 27                 STQ     OBJ$

  16026 44 005775   000002 236007                    LDQ     2,DL
        44 005776   000002 056000 34                 ASQ     OBJ_+2

  16027 44 005777   001011 220003                    LDX0    521,DU
        44 006000   000000 470400 27                 LDP0    OBJ$
        44 006001   000000 740100                    STX0    0,,PR0

  16031 44 006002   200153 236100                    LDQ     OPND,,AUTO
        44 006003   000000 470400 27                 LDP0    OBJ$
        44 006004   000001 756100                    STQ     1,,PR0

  16035 44 006005   016024 710000 44                 TRA     s:19025

     1332    16037
     1333    16038             %IF GCOS;
     1347    16052             %ENDIF;
     1348    16053        %EJECT;
PL6.E3A0      #001=Z8HI$BURST File=Z8HI.:Z8A6TSI                                 SAT 08/09/97 13:19 Page:270
     1349    16054    4   CASE(%DESCR);

     1350    16055
     1351    16056             %LOP_ROP_TO;

  16057 44 006006   200150 721100                    LXL1    PC,,AUTO
        44 006007   000004 101003                    CMPX1   4,DU
        44 006010   006012 602011 44                 TNC     s:16057+4,X1
        44 006011   006041 710000 44                 TRA     s:16067
        44 006012   006016 710000 44                 TRA     s:16059
        44 006013   006022 710000 44                 TRA     s:16061
        44 006014   006027 710000 44                 TRA     s:16063
        44 006015   006034 710000 44                 TRA     s:16065

  16059 44 006016   200003 471500                    LDP1    @PILL,,AUTO
        44 006017   100000 236100                    LDQ     0,,PR1
        44 006020   200153 756100                    STQ     OPND,,AUTO
        44 006021   006043 710000 44                 TRA     s:16071

  16061 44 006022   200003 471500                    LDP1    @PILL,,AUTO
        44 006023   100000 473500                    LDP3    0,,PR1
        44 006024   300001 236100                    LDQ     1,,PR3
        44 006025   200153 756100                    STQ     OPND,,AUTO
        44 006026   006043 710000 44                 TRA     s:16071

  16063 44 006027   200003 471500                    LDP1    @PILL,,AUTO
        44 006030   100000 473500                    LDP3    0,,PR1
        44 006031   300002 236100                    LDQ     2,,PR3
        44 006032   200153 756100                    STQ     OPND,,AUTO
        44 006033   006043 710000 44                 TRA     s:16071

  16065 44 006034   200003 471500                    LDP1    @PILL,,AUTO
        44 006035   100000 473500                    LDP3    0,,PR1
        44 006036   300003 236100                    LDQ     3,,PR3
        44 006037   200153 756100                    STQ     OPND,,AUTO
        44 006040   006043 710000 44                 TRA     s:16071

PL6.E3A0      #001=Z8HI$BURST File=Z8HI.:Z8A6TSI                                 SAT 08/09/97 13:19 Page:271
  16067 44 006041   200043 236111                    LDQ     PCOM+26,X1,AUTO
        44 006042   200153 756100                    STQ     OPND,,AUTO

     1352    16070
     1353    16071    4        REF$ = OPND -> ETT.REF$;

  16071 44 006043   200153 471500                    LDP1    OPND,,AUTO
        44 006044   100003 236100                    LDQ     3,,PR1
        44 006045   200231 756100                    STQ     REF$,,AUTO

     1354    16072
     1355    16073    4        INST_WORD = '0'O;

  16073 44 006046   200075 450100                    STZ     INST_WORD,,AUTO

     1356    16074    4        INST_WORD.NDSC = REF$ -> REF.NDSC;

  16074 44 006047   200231 473500                    LDP3    REF$,,AUTO
        44 006050   300001 722100                    LXL2    1,,PR3
        44 006051   200075 442100                    SXL2    INST_WORD,,AUTO

     1357    16075
     1358    16076    4        ST$$ = REF$ -> REF.ST$;

  16076 44 006052   300005 236100                    LDQ     5,,PR3
        44 006053   200233 756100                    STQ     ST$$,,AUTO

     1359    16077
     1360    16078    5        DO CASE(PC.OPND2);

  16078 44 006054   200151 223100                    LDX3    PC+1,,AUTO
        44 006055   000002 103003                    CMPX3   2,DU
        44 006056   006060 602013 44                 TNC     s:16078+4,X3
        44 006057   006121 710000 44                 TRA     s:16139
        44 006060   006121 710000 44                 TRA     s:16139
        44 006061   006062 710000 44                 TRA     s:16080

PL6.E3A0      #001=Z8HI$BURST File=Z8HI.:Z8A6TSI                                 SAT 08/09/97 13:19 Page:272
     1361    16079    5          CASE(%NDSC);

     1362    16080    5            IF ST$$ -> VARIABLE.B.CLASS ~= %CLASS_NUMERIC_EDITED THEN

  16080 44 006062   200233 474500                    LDP4    ST$$,,AUTO
        44 006063   400003 236100                    LDQ     3,,PR4
        44 006064   000007 376007                    ANQ     7,DL
        44 006065   000005 116007                    CMPQ    5,DL
        44 006066   006071 600000 44                 TZE     s:16089

     1363    16081    5              INST_WORD.NDSC = REF$ -> REF.NDSC;

  16081 44 006067   200075 442100                    SXL2    INST_WORD,,AUTO
        44 006070   006121 710000 44                 TRA     s:16139

     1364    16082    5            ELSE
     1365    16083    6              DO;

     1366    16084
     1367    16085                     %GET_LTS( @ID = %NEL,
     1368    16086                               @ST$ = ST$$,
     1369    16087                               @RETURN$ = LTS$$ );

  16089 44 006071   400005 236100                    LDQ     5,,PR4
        44 006072   000007 116000 45                 CMPQ    7
        44 006073   006103 600000 44                 TZE     s:16123
        44 006074   400005 475500                    LDP5    5,,PR4
        44 006075   500000 224100                    LDX4    0,,PR5
        44 006076   001105 104003                    CMPX4   581,DU
        44 006077   006103 601000 44                 TNZ     s:16123

  16095 44 006100   500002 236100                    LDQ     2,,PR5
        44 006101   200236 756100                    STQ     LTS$$,,AUTO

  16121 44 006102   006115 710000 44                 TRA     s:16131

  16123 44 006103   000007 116000 45                 CMPQ    7
PL6.E3A0      #001=Z8HI$BURST File=Z8HI.:Z8A6TSI                                 SAT 08/09/97 13:19 Page:273
        44 006104   006113 600000 44                 TZE     s:16127
        44 006105   400005 475500                    LDP5    5,,PR4
        44 006106   500000 224100                    LDX4    0,,PR5
        44 006107   001115 104003                    CMPX4   589,DU
        44 006110   006113 601000 44                 TNZ     s:16127

  16125 44 006111   200236 756100                    STQ     LTS$$,,AUTO
        44 006112   006115 710000 44                 TRA     s:16131

  16127 44 006113   000007 236000 45                 LDQ     7
        44 006114   200236 756100                    STQ     LTS$$,,AUTO

     1370    16130
     1371    16131    6                INST_WORD.NDSC = LTS$$ -> NEL.DESC.NDSC;

  16131 44 006115   200236 475500                    LDP5    LTS$$,,AUTO
        44 006116   500001 724100                    LXL4    1,,PR5
        44 006117   200075 444100                    SXL4    INST_WORD,,AUTO

     1372    16132    6              END;

  16132 44 006120   006121 710000 44                 TRA     s:16139

     1373    16133
     1374    16134    5          CASE(%ADSC);

     1375    16135                 /* NULL */
     1376    16136
     1377    16137    5        END /* Case */;

     1378    16138
     1379    16139    4        INST_WORD.NDSC.CN = 0;    /* Absolute pointer passed */

  16139 44 006121   000033 236000 45                 LDQ     27
        44 006122   200075 356100                    ANSQ    INST_WORD,,AUTO

     1380    16140
PL6.E3A0      #001=Z8HI$BURST File=Z8HI.:Z8A6TSI                                 SAT 08/09/97 13:19 Page:274
     1381    16141             %NEW_WORD( @OU_WORD = INST_WORD ,
     1382    16142                        @ST$     = ST$$ );

  16161 44 006123   000002 236000 34                 LDQ     OBJ_+2
        44 006124   000004 036007                    ADLQ    4,DL
        44 006125   000003 116000 34                 CMPQ    OBJ_+3
        44 006126   006140 604000 44                 TMI     s:16167

  16163 44 006127   000000 234000 28                 SZN     PAGING_OBJ
        44 006130   006135 605000 44                 TPL     s:16165

  16164 44 006131   000020 630400 45                 EPPR0   16
        44 006132   000006 631400 45                 EPPR1   6
        44 006133   000000 701000 xent               TSX1    Z9HF$WRITE_OBJ_PAGE
        44 006134   000000 011000                    NOP     0

  16165 44 006135   000002 631400 45                 EPPR1   2
        44 006136   000000 701000 xent               TSX1    Z9HF$GET_OBJ_PAGE
        44 006137   000000 011000                    NOP     0

  16167 44 006140   000002 236000 34                 LDQ     OBJ_+2
        44 006141   000022 736000                    QLS     18
        44 006142   000001 036000 34                 ADLQ    OBJ_+1
        44 006143   000000 756000 27                 STQ     OBJ$

  16168 44 006144   000004 236007                    LDQ     4,DL
        44 006145   000002 056000 34                 ASQ     OBJ_+2

  16169 44 006146   001012 220003                    LDX0    522,DU
        44 006147   000000 470400 27                 LDP0    OBJ$
        44 006150   000000 740100                    STX0    0,,PR0

  16172 44 006151   200233 236100                    LDQ     ST$$,,AUTO
        44 006152   000000 470400 27                 LDP0    OBJ$
        44 006153   000002 756100                    STQ     2,,PR0

  16173 44 006154   000000 471400 4                  LDP1    CURRENT_BLOCK$
PL6.E3A0      #001=Z8HI$BURST File=Z8HI.:Z8A6TSI                                 SAT 08/09/97 13:19 Page:275
        44 006155   100002 236100                    LDQ     2,,PR1
        44 006156   000022 772000                    QRL     18
        44 006157   000001 756100                    STQ     1,,PR0

  16174 44 006160   000000 236003                    LDQ     0,DU
        44 006161   000000 552110                    STBQ    0,'10'O,PR0

  16176 44 006162   200075 236100                    LDQ     INST_WORD,,AUTO
        44 006163   000000 470400 27                 LDP0    OBJ$
        44 006164   000003 756100                    STQ     3,,PR0

  16183 44 006165   000000 471400 4                  LDP1    CURRENT_BLOCK$
        44 006166   100002 221100                    LDX1    2,,PR1
        44 006167   000001 622011                    EAX2    1,X1
        44 006170   100002 742100                    STX2    2,,PR1

  16184 44 006171   006176 601000 44                 TNZ     s:16190

  16185 44 006172   000022 630400 45                 EPPR0   18
        44 006173   000006 631400 45                 EPPR1   6
        44 006174   000000 701000 xent               TSX1    Z8AE$ERROR
        44 006175   000000 011000                    NOP     0

     1383    16189
     1384    16190    4        CALL Z8HU$DEC_COUNT(OPND, 1);

  16190 44 006176   000017 236000 45                 LDQ     15
        44 006177   200261 756100                    STQ     @TAG+3,,AUTO
        44 006200   200153 630500                    EPPR0   OPND,,AUTO
        44 006201   200260 450500                    STP0    @TAG+2,,AUTO
        44 006202   200260 630500                    EPPR0   @TAG+2,,AUTO
        44 006203   000015 631400 45                 EPPR1   13
        44 006204   000000 701000 xent               TSX1    Z8HU$DEC_COUNT
        44 006205   000000 011000                    NOP     0
        44 006206   016024 710000 44                 TRA     s:19025

     1385    16191
PL6.E3A0      #001=Z8HI$BURST File=Z8HI.:Z8A6TSI                                 SAT 08/09/97 13:19 Page:276
     1386    16192        %EJECT;
PL6.E3A0      #001=Z8HI$BURST File=Z8HI.:Z8A6TSI                                 SAT 08/09/97 13:19 Page:277
     1387    16193    4   CASE(%DSTATE);

     1388    16194        /*V*
     1389    16195
     1390    16196                               DSTATE
     1391    16197
     1392    16198        EXAMPLES::
     1393    16199
     1394    16200           DSTATE   TYI16,LOPROP,XABS  LOP & ROP, 16 VALUES (0-15) IN XABS
     1395    16201           DSTATE   TYI4,LOP,ZABS      LOP, 4 VALUES (0-3) IN ZABS
     1396    16202
     1397    16203
     1398    16204             THIS DIRECTIVE DETERMINES THE STATE OF CERTAIN BRANCHES
     1399    16205           OF A TRIAD (SPECIFIED BY THE SECOND PARAMETER).  THE TYPE OF
     1400    16206           STATE WE WANT TO DETERMINE IS DRIVEN BY THE FIRST PARAMETER.
     1401    16207           FINALLY, THE STATE IS LEFT IN PARAMETER THREE, A PCOM VARIABLE
     1402    16208           OF THE ABS VARIETY.
     1403    16209
     1404    16210        */
     1405    16211
     1406    16212    5        DO CASE(PC.OPND1);

  16212 44 006207   200150 721100                    LXL1    PC,,AUTO
        44 006210   000014 101003                    CMPX1   12,DU
        44 006211   006213 602011 44                 TNC     s:16212+4,X1
        44 006212   007235 710000 44                 TRA     s:16395
        44 006213   006227 710000 44                 TRA     s:16215
        44 006214   006427 710000 44                 TRA     s:16269
        44 006215   006533 710000 44                 TRA     s:16297
        44 006216   006576 710000 44                 TRA     s:16313
        44 006217   006617 710000 44                 TRA     s:16318
        44 006220   006662 710000 44                 TRA     s:16334
        44 006221   006227 710000 44                 TRA     s:16215
        44 006222   006427 710000 44                 TRA     s:16269
        44 006223   006703 710000 44                 TRA     s:16340
        44 006224   006746 710000 44                 TRA     s:16356
        44 006225   006767 710000 44                 TRA     s:16362
PL6.E3A0      #001=Z8HI$BURST File=Z8HI.:Z8A6TSI                                 SAT 08/09/97 13:19 Page:278
        44 006226   006323 710000 44                 TRA     s:16242

     1407    16213    5          CASE(%TYI4, %TYI5);

     1408    16214                 %LOP_ROP_TO(OP=PC.OPND2);

  16215 44 006227   200151 222100                    LDX2    PC+1,,AUTO
        44 006230   000004 102003                    CMPX2   4,DU
        44 006231   006233 602012 44                 TNC     s:16215+4,X2
        44 006232   006262 710000 44                 TRA     s:16225
        44 006233   006237 710000 44                 TRA     s:16217
        44 006234   006243 710000 44                 TRA     s:16219
        44 006235   006250 710000 44                 TRA     s:16221
        44 006236   006255 710000 44                 TRA     s:16223

  16217 44 006237   200003 471500                    LDP1    @PILL,,AUTO
        44 006240   100000 236100                    LDQ     0,,PR1
        44 006241   200153 756100                    STQ     OPND,,AUTO
        44 006242   006264 710000 44                 TRA     s:16228

  16219 44 006243   200003 471500                    LDP1    @PILL,,AUTO
        44 006244   100000 473500                    LDP3    0,,PR1
        44 006245   300001 236100                    LDQ     1,,PR3
        44 006246   200153 756100                    STQ     OPND,,AUTO
        44 006247   006264 710000 44                 TRA     s:16228

  16221 44 006250   200003 471500                    LDP1    @PILL,,AUTO
        44 006251   100000 473500                    LDP3    0,,PR1
        44 006252   300002 236100                    LDQ     2,,PR3
        44 006253   200153 756100                    STQ     OPND,,AUTO
        44 006254   006264 710000 44                 TRA     s:16228

  16223 44 006255   200003 471500                    LDP1    @PILL,,AUTO
        44 006256   100000 473500                    LDP3    0,,PR1
        44 006257   300003 236100                    LDQ     3,,PR3
        44 006260   200153 756100                    STQ     OPND,,AUTO
        44 006261   006264 710000 44                 TRA     s:16228
PL6.E3A0      #001=Z8HI$BURST File=Z8HI.:Z8A6TSI                                 SAT 08/09/97 13:19 Page:279

  16225 44 006262   200043 236112                    LDQ     PCOM+26,X2,AUTO
        44 006263   200153 756100                    STQ     OPND,,AUTO

     1409    16228    5            STATE = DSTATE_TYI(OPND -> ETT.STATE) - 1;

  16228 44 006264   200153 471500                    LDP1    OPND,,AUTO
        44 006265   100004 223100                    LDX3    4,,PR1
        44 006266   000036 235013 42                 LDA     DSTATE_TYI,X3
        44 006267   000001 135007                    SBLA    1,DL
        44 006270   002731 755000 3                  STA     STATE

     1410    16229                 %STORAGE_CHECK(THE_STATE=STATE,TRIAD=OPND);

  16230 44 006271   200003 473500                    LDP3    @PILL,,AUTO
        44 006272   300000 474500                    LDP4    0,,PR3
        44 006273   400000 224100                    LDX4    0,,PR4
        44 006274   000005 104003                    CMPX4   5,DU
        44 006275   007241 600000 44                 TZE     s:16399
        44 006276   000004 104003                    CMPX4   4,DU
        44 006277   007241 600000 44                 TZE     s:16399
        44 006300   000012 104003                    CMPX4   10,DU
        44 006301   007241 600000 44                 TZE     s:16399

  16233 44 006302   000002 115007                    CMPA    2,DL
        44 006303   007241 601000 44                 TNZ     s:16399

  16234 44 006304   100003 236100                    LDQ     3,,PR1
        44 006305   000007 116000 45                 CMPQ    7
        44 006306   007241 600000 44                 TZE     s:16399

  16236 44 006307   100004 236100                    LDQ     4,,PR1
        44 006310   000022 772000                    QRL     18
        44 006311   200260 756100                    STQ     @TAG+2,,AUTO
        44 006312   200260 634500                    EPPR4   @TAG+2,,AUTO
        44 006313   200262 454500                    STP4    @TAG+4,,AUTO
        44 006314   200262 630500                    EPPR0   @TAG+4,,AUTO
PL6.E3A0      #001=Z8HI$BURST File=Z8HI.:Z8A6TSI                                 SAT 08/09/97 13:19 Page:280
        44 006315   000006 631400 45                 EPPR1   6
        44 006316   000000 701000 xent               TSX1    Z8HG$FREE_REGISTER
        44 006317   000000 011000                    NOP     0

  16237 44 006320   000003 235007                    LDA     3,DL
        44 006321   002731 755000 3                  STA     STATE

  16238 44 006322   007241 710000 44                 TRA     s:16399

     1411    16240
     1412    16241    5          CASE(%TYP25);

     1413    16242    5            LOP_STATE = DSTATE_TYP(PILL -> ETT.LOP -> ETT.STATE) - 1;

  16242 44 006323   200003 471500                    LDP1    @PILL,,AUTO
        44 006324   100000 473500                    LDP3    0,,PR1
        44 006325   300001 474500                    LDP4    1,,PR3
        44 006326   400004 222100                    LDX2    4,,PR4
        44 006327   000132 235012 42                 LDA     DSTATE_TYP,X2
        44 006330   000001 135007                    SBLA    1,DL
        44 006331   000001 755000 3                  STA     LOP_STATE

     1414    16243    5            ROP_STATE = DSTATE_TYP(PILL -> ETT.ROP -> ETT.STATE) - 1;

  16243 44 006332   300002 475500                    LDP5    2,,PR3
        44 006333   500004 223100                    LDX3    4,,PR5
        44 006334   000132 235013 42                 LDA     DSTATE_TYP,X3
        44 006335   000001 135007                    SBLA    1,DL
        44 006336   000002 755000 3                  STA     ROP_STATE

     1415    16244                 %STORAGE_CHECK(THE_STATE=LOP_STATE,TRIAD=PILL -> ETT.LOP);

  16245 44 006337   300000 224100                    LDX4    0,,PR3
        44 006340   000005 104003                    CMPX4   5,DU
        44 006341   006367 600000 44                 TZE     s:16256
        44 006342   000004 104003                    CMPX4   4,DU
        44 006343   006367 600000 44                 TZE     s:16256
PL6.E3A0      #001=Z8HI$BURST File=Z8HI.:Z8A6TSI                                 SAT 08/09/97 13:19 Page:281
        44 006344   000012 104003                    CMPX4   10,DU
        44 006345   006367 600000 44                 TZE     s:16256

  16248 44 006346   000001 235000 3                  LDA     LOP_STATE
        44 006347   000002 115007                    CMPA    2,DL
        44 006350   006367 601000 44                 TNZ     s:16256

  16249 44 006351   400003 236100                    LDQ     3,,PR4
        44 006352   000007 116000 45                 CMPQ    7
        44 006353   006367 600000 44                 TZE     s:16256

  16251 44 006354   400004 236100                    LDQ     4,,PR4
        44 006355   000022 772000                    QRL     18
        44 006356   200260 756100                    STQ     @TAG+2,,AUTO
        44 006357   200260 633500                    EPPR3   @TAG+2,,AUTO
        44 006360   200262 453500                    STP3    @TAG+4,,AUTO
        44 006361   200262 630500                    EPPR0   @TAG+4,,AUTO
        44 006362   000006 631400 45                 EPPR1   6
        44 006363   000000 701000 xent               TSX1    Z8HG$FREE_REGISTER
        44 006364   000000 011000                    NOP     0

  16252 44 006365   000003 235007                    LDA     3,DL
        44 006366   000001 755000 3                  STA     LOP_STATE

     1416    16255                 %STORAGE_CHECK(THE_STATE=ROP_STATE,TRIAD=PILL -> ETT.ROP);

  16256 44 006367   200003 470500                    LDP0    @PILL,,AUTO
        44 006370   000000 471500                    LDP1    0,,PR0
        44 006371   100000 220100                    LDX0    0,,PR1
        44 006372   000005 100003                    CMPX0   5,DU
        44 006373   006422 600000 44                 TZE     s:16266
        44 006374   000004 100003                    CMPX0   4,DU
        44 006375   006422 600000 44                 TZE     s:16266
        44 006376   000012 100003                    CMPX0   10,DU
        44 006377   006422 600000 44                 TZE     s:16266

  16259 44 006400   000002 235000 3                  LDA     ROP_STATE
PL6.E3A0      #001=Z8HI$BURST File=Z8HI.:Z8A6TSI                                 SAT 08/09/97 13:19 Page:282
        44 006401   000002 115007                    CMPA    2,DL
        44 006402   006422 601000 44                 TNZ     s:16266

  16260 44 006403   100002 473500                    LDP3    2,,PR1
        44 006404   300003 236100                    LDQ     3,,PR3
        44 006405   000007 116000 45                 CMPQ    7
        44 006406   006422 600000 44                 TZE     s:16266

  16262 44 006407   300004 236100                    LDQ     4,,PR3
        44 006410   000022 772000                    QRL     18
        44 006411   200260 756100                    STQ     @TAG+2,,AUTO
        44 006412   200260 631500                    EPPR1   @TAG+2,,AUTO
        44 006413   200262 451500                    STP1    @TAG+4,,AUTO
        44 006414   200262 630500                    EPPR0   @TAG+4,,AUTO
        44 006415   000006 631400 45                 EPPR1   6
        44 006416   000000 701000 xent               TSX1    Z8HG$FREE_REGISTER
        44 006417   000000 011000                    NOP     0

  16263 44 006420   000003 235007                    LDA     3,DL
        44 006421   000002 755000 3                  STA     ROP_STATE

     1417    16266    5            STATE = LOP_STATE * 5 + ROP_STATE;

  16266 44 006422   000001 236000 3                  LDQ     LOP_STATE
        44 006423   000005 402007                    MPY     5,DL
        44 006424   000002 036000 3                  ADLQ    ROP_STATE
        44 006425   002731 756000 3                  STQ     STATE
        44 006426   007241 710000 44                 TRA     s:16399

     1418    16267
     1419    16268    5          CASE(%TYI16, %TYI17);

     1420    16269    5            LOP_STATE = DSTATE_TYI(PILL -> ETT.LOP -> ETT.STATE) - 1;

  16269 44 006427   200003 471500                    LDP1    @PILL,,AUTO
        44 006430   100000 473500                    LDP3    0,,PR1
        44 006431   300001 474500                    LDP4    1,,PR3
PL6.E3A0      #001=Z8HI$BURST File=Z8HI.:Z8A6TSI                                 SAT 08/09/97 13:19 Page:283
        44 006432   400004 222100                    LDX2    4,,PR4
        44 006433   000036 235012 42                 LDA     DSTATE_TYI,X2
        44 006434   000001 135007                    SBLA    1,DL
        44 006435   000001 755000 3                  STA     LOP_STATE

     1421    16270    5            ROP_STATE = DSTATE_TYI(PILL -> ETT.ROP -> ETT.STATE) - 1;

  16270 44 006436   300002 475500                    LDP5    2,,PR3
        44 006437   500004 223100                    LDX3    4,,PR5
        44 006440   000036 235013 42                 LDA     DSTATE_TYI,X3
        44 006441   000001 135007                    SBLA    1,DL
        44 006442   000002 755000 3                  STA     ROP_STATE

     1422    16271                 %STORAGE_CHECK(THE_STATE=LOP_STATE,TRIAD=PILL -> ETT.LOP);

  16272 44 006443   300000 224100                    LDX4    0,,PR3
        44 006444   000005 104003                    CMPX4   5,DU
        44 006445   006473 600000 44                 TZE     s:16283
        44 006446   000004 104003                    CMPX4   4,DU
        44 006447   006473 600000 44                 TZE     s:16283
        44 006450   000012 104003                    CMPX4   10,DU
        44 006451   006473 600000 44                 TZE     s:16283

  16275 44 006452   000001 235000 3                  LDA     LOP_STATE
        44 006453   000002 115007                    CMPA    2,DL
        44 006454   006473 601000 44                 TNZ     s:16283

  16276 44 006455   400003 236100                    LDQ     3,,PR4
        44 006456   000007 116000 45                 CMPQ    7
        44 006457   006473 600000 44                 TZE     s:16283

  16278 44 006460   400004 236100                    LDQ     4,,PR4
        44 006461   000022 772000                    QRL     18
        44 006462   200260 756100                    STQ     @TAG+2,,AUTO
        44 006463   200260 633500                    EPPR3   @TAG+2,,AUTO
        44 006464   200262 453500                    STP3    @TAG+4,,AUTO
        44 006465   200262 630500                    EPPR0   @TAG+4,,AUTO
PL6.E3A0      #001=Z8HI$BURST File=Z8HI.:Z8A6TSI                                 SAT 08/09/97 13:19 Page:284
        44 006466   000006 631400 45                 EPPR1   6
        44 006467   000000 701000 xent               TSX1    Z8HG$FREE_REGISTER
        44 006470   000000 011000                    NOP     0

  16279 44 006471   000003 235007                    LDA     3,DL
        44 006472   000001 755000 3                  STA     LOP_STATE

     1423    16282                 %STORAGE_CHECK(THE_STATE=ROP_STATE,TRIAD=PILL -> ETT.ROP);

  16283 44 006473   200003 470500                    LDP0    @PILL,,AUTO
        44 006474   000000 471500                    LDP1    0,,PR0
        44 006475   100000 220100                    LDX0    0,,PR1
        44 006476   000005 100003                    CMPX0   5,DU
        44 006477   006526 600000 44                 TZE     s:16293
        44 006500   000004 100003                    CMPX0   4,DU
        44 006501   006526 600000 44                 TZE     s:16293
        44 006502   000012 100003                    CMPX0   10,DU
        44 006503   006526 600000 44                 TZE     s:16293

  16286 44 006504   000002 235000 3                  LDA     ROP_STATE
        44 006505   000002 115007                    CMPA    2,DL
        44 006506   006526 601000 44                 TNZ     s:16293

  16287 44 006507   100002 473500                    LDP3    2,,PR1
        44 006510   300003 236100                    LDQ     3,,PR3
        44 006511   000007 116000 45                 CMPQ    7
        44 006512   006526 600000 44                 TZE     s:16293

  16289 44 006513   300004 236100                    LDQ     4,,PR3
        44 006514   000022 772000                    QRL     18
        44 006515   200260 756100                    STQ     @TAG+2,,AUTO
        44 006516   200260 631500                    EPPR1   @TAG+2,,AUTO
        44 006517   200262 451500                    STP1    @TAG+4,,AUTO
        44 006520   200262 630500                    EPPR0   @TAG+4,,AUTO
        44 006521   000006 631400 45                 EPPR1   6
        44 006522   000000 701000 xent               TSX1    Z8HG$FREE_REGISTER
        44 006523   000000 011000                    NOP     0
PL6.E3A0      #001=Z8HI$BURST File=Z8HI.:Z8A6TSI                                 SAT 08/09/97 13:19 Page:285

  16290 44 006524   000003 235007                    LDA     3,DL
        44 006525   000002 755000 3                  STA     ROP_STATE

     1424    16293    5            STATE = LOP_STATE * 4 + ROP_STATE;

  16293 44 006526   000001 236000 3                  LDQ     LOP_STATE
        44 006527   000002 736000                    QLS     2
        44 006530   000002 036000 3                  ADLQ    ROP_STATE
        44 006531   002731 756000 3                  STQ     STATE
        44 006532   007241 710000 44                 TRA     s:16399

     1425    16294
     1426    16295    5          CASE(%TYR2);

     1427    16296                 %LOP_ROP_TO(OP=PC.OPND2);

  16297 44 006533   200151 222100                    LDX2    PC+1,,AUTO
        44 006534   000004 102003                    CMPX2   4,DU
        44 006535   006537 602012 44                 TNC     s:16297+4,X2
        44 006536   006566 710000 44                 TRA     s:16307
        44 006537   006543 710000 44                 TRA     s:16299
        44 006540   006547 710000 44                 TRA     s:16301
        44 006541   006554 710000 44                 TRA     s:16303
        44 006542   006561 710000 44                 TRA     s:16305

  16299 44 006543   200003 471500                    LDP1    @PILL,,AUTO
        44 006544   100000 236100                    LDQ     0,,PR1
        44 006545   200153 756100                    STQ     OPND,,AUTO
        44 006546   006570 710000 44                 TRA     s:16310

  16301 44 006547   200003 471500                    LDP1    @PILL,,AUTO
        44 006550   100000 473500                    LDP3    0,,PR1
        44 006551   300001 236100                    LDQ     1,,PR3
        44 006552   200153 756100                    STQ     OPND,,AUTO
        44 006553   006570 710000 44                 TRA     s:16310

PL6.E3A0      #001=Z8HI$BURST File=Z8HI.:Z8A6TSI                                 SAT 08/09/97 13:19 Page:286
  16303 44 006554   200003 471500                    LDP1    @PILL,,AUTO
        44 006555   100000 473500                    LDP3    0,,PR1
        44 006556   300002 236100                    LDQ     2,,PR3
        44 006557   200153 756100                    STQ     OPND,,AUTO
        44 006560   006570 710000 44                 TRA     s:16310

  16305 44 006561   200003 471500                    LDP1    @PILL,,AUTO
        44 006562   100000 473500                    LDP3    0,,PR1
        44 006563   300003 236100                    LDQ     3,,PR3
        44 006564   200153 756100                    STQ     OPND,,AUTO
        44 006565   006570 710000 44                 TRA     s:16310

  16307 44 006566   200043 236112                    LDQ     PCOM+26,X2,AUTO
        44 006567   200153 756100                    STQ     OPND,,AUTO

     1428    16310    5            STATE = DSTATE_TYR(OPND -> ETT.STATE) - 1;

  16310 44 006570   200153 471500                    LDP1    OPND,,AUTO
        44 006571   100004 223100                    LDX3    4,,PR1
        44 006572   000056 235013 42                 LDA     DSTATE_TYR,X3
        44 006573   000001 135007                    SBLA    1,DL
        44 006574   002731 755000 3                  STA     STATE
        44 006575   007241 710000 44                 TRA     s:16399

     1429    16311
     1430    16312    5          CASE(%TYR4);

     1431    16313    5            LOP_STATE = DSTATE_TYR(PILL -> ETT.LOP -> ETT.STATE) - 1;

  16313 44 006576   200003 471500                    LDP1    @PILL,,AUTO
        44 006577   100000 473500                    LDP3    0,,PR1
        44 006600   300001 474500                    LDP4    1,,PR3
        44 006601   400004 222100                    LDX2    4,,PR4
        44 006602   000056 235012 42                 LDA     DSTATE_TYR,X2
        44 006603   000001 135007                    SBLA    1,DL
        44 006604   000001 755000 3                  STA     LOP_STATE

PL6.E3A0      #001=Z8HI$BURST File=Z8HI.:Z8A6TSI                                 SAT 08/09/97 13:19 Page:287
     1432    16314    5            ROP_STATE = DSTATE_TYR(PILL -> ETT.ROP -> ETT.STATE) - 1;

  16314 44 006605   300002 475500                    LDP5    2,,PR3
        44 006606   500004 223100                    LDX3    4,,PR5
        44 006607   000056 235013 42                 LDA     DSTATE_TYR,X3
        44 006610   000001 135007                    SBLA    1,DL
        44 006611   000002 755000 3                  STA     ROP_STATE

     1433    16315    5            STATE = LOP_STATE * 2 + ROP_STATE;

  16315 44 006612   000001 236000 3                  LDQ     LOP_STATE
        44 006613   000001 736000                    QLS     1
        44 006614   000002 036000 3                  ADLQ    ROP_STATE
        44 006615   002731 756000 3                  STQ     STATE
        44 006616   007241 710000 44                 TRA     s:16399

     1434    16316    5          CASE(%TYQ2);

     1435    16317                 %LOP_ROP_TO(OP=PC.OPND2);

  16318 44 006617   200151 222100                    LDX2    PC+1,,AUTO
        44 006620   000004 102003                    CMPX2   4,DU
        44 006621   006623 602012 44                 TNC     s:16318+4,X2
        44 006622   006652 710000 44                 TRA     s:16328
        44 006623   006627 710000 44                 TRA     s:16320
        44 006624   006633 710000 44                 TRA     s:16322
        44 006625   006640 710000 44                 TRA     s:16324
        44 006626   006645 710000 44                 TRA     s:16326

  16320 44 006627   200003 471500                    LDP1    @PILL,,AUTO
        44 006630   100000 236100                    LDQ     0,,PR1
        44 006631   200153 756100                    STQ     OPND,,AUTO
        44 006632   006654 710000 44                 TRA     s:16331

  16322 44 006633   200003 471500                    LDP1    @PILL,,AUTO
        44 006634   100000 473500                    LDP3    0,,PR1
        44 006635   300001 236100                    LDQ     1,,PR3
PL6.E3A0      #001=Z8HI$BURST File=Z8HI.:Z8A6TSI                                 SAT 08/09/97 13:19 Page:288
        44 006636   200153 756100                    STQ     OPND,,AUTO
        44 006637   006654 710000 44                 TRA     s:16331

  16324 44 006640   200003 471500                    LDP1    @PILL,,AUTO
        44 006641   100000 473500                    LDP3    0,,PR1
        44 006642   300002 236100                    LDQ     2,,PR3
        44 006643   200153 756100                    STQ     OPND,,AUTO
        44 006644   006654 710000 44                 TRA     s:16331

  16326 44 006645   200003 471500                    LDP1    @PILL,,AUTO
        44 006646   100000 473500                    LDP3    0,,PR1
        44 006647   300003 236100                    LDQ     3,,PR3
        44 006650   200153 756100                    STQ     OPND,,AUTO
        44 006651   006654 710000 44                 TRA     s:16331

  16328 44 006652   200043 236112                    LDQ     PCOM+26,X2,AUTO
        44 006653   200153 756100                    STQ     OPND,,AUTO

     1436    16331    5            STATE = DSTATE_TYQ(OPND -> ETT.STATE) - 1;

  16331 44 006654   200153 471500                    LDP1    OPND,,AUTO
        44 006655   100004 223100                    LDX3    4,,PR1
        44 006656   000100 235013 42                 LDA     DSTATE_TYQ,X3
        44 006657   000001 135007                    SBLA    1,DL
        44 006660   002731 755000 3                  STA     STATE
        44 006661   007241 710000 44                 TRA     s:16399

     1437    16332
     1438    16333    5          CASE(%TYQ4);

     1439    16334    5            LOP_STATE = DSTATE_TYQ(PILL -> ETT.LOP -> ETT.STATE) - 1;

  16334 44 006662   200003 471500                    LDP1    @PILL,,AUTO
        44 006663   100000 473500                    LDP3    0,,PR1
        44 006664   300001 474500                    LDP4    1,,PR3
        44 006665   400004 222100                    LDX2    4,,PR4
        44 006666   000100 235012 42                 LDA     DSTATE_TYQ,X2
PL6.E3A0      #001=Z8HI$BURST File=Z8HI.:Z8A6TSI                                 SAT 08/09/97 13:19 Page:289
        44 006667   000001 135007                    SBLA    1,DL
        44 006670   000001 755000 3                  STA     LOP_STATE

     1440    16335    5            ROP_STATE = DSTATE_TYQ(PILL -> ETT.ROP -> ETT.STATE) - 1;

  16335 44 006671   300002 475500                    LDP5    2,,PR3
        44 006672   500004 223100                    LDX3    4,,PR5
        44 006673   000100 235013 42                 LDA     DSTATE_TYQ,X3
        44 006674   000001 135007                    SBLA    1,DL
        44 006675   000002 755000 3                  STA     ROP_STATE

     1441    16336    5            STATE = LOP_STATE * 2 + ROP_STATE;

  16336 44 006676   000001 236000 3                  LDQ     LOP_STATE
        44 006677   000001 736000                    QLS     1
        44 006700   000002 036000 3                  ADLQ    ROP_STATE
        44 006701   002731 756000 3                  STQ     STATE
        44 006702   007241 710000 44                 TRA     s:16399

     1442    16337
     1443    16338    5          CASE(%TYH2);

     1444    16339                 %LOP_ROP_TO(OP=PC.OPND2);

  16340 44 006703   200151 222100                    LDX2    PC+1,,AUTO
        44 006704   000004 102003                    CMPX2   4,DU
        44 006705   006707 602012 44                 TNC     s:16340+4,X2
        44 006706   006736 710000 44                 TRA     s:16350
        44 006707   006713 710000 44                 TRA     s:16342
        44 006710   006717 710000 44                 TRA     s:16344
        44 006711   006724 710000 44                 TRA     s:16346
        44 006712   006731 710000 44                 TRA     s:16348

  16342 44 006713   200003 471500                    LDP1    @PILL,,AUTO
        44 006714   100000 236100                    LDQ     0,,PR1
        44 006715   200153 756100                    STQ     OPND,,AUTO
        44 006716   006740 710000 44                 TRA     s:16353
PL6.E3A0      #001=Z8HI$BURST File=Z8HI.:Z8A6TSI                                 SAT 08/09/97 13:19 Page:290

  16344 44 006717   200003 471500                    LDP1    @PILL,,AUTO
        44 006720   100000 473500                    LDP3    0,,PR1
        44 006721   300001 236100                    LDQ     1,,PR3
        44 006722   200153 756100                    STQ     OPND,,AUTO
        44 006723   006740 710000 44                 TRA     s:16353

  16346 44 006724   200003 471500                    LDP1    @PILL,,AUTO
        44 006725   100000 473500                    LDP3    0,,PR1
        44 006726   300002 236100                    LDQ     2,,PR3
        44 006727   200153 756100                    STQ     OPND,,AUTO
        44 006730   006740 710000 44                 TRA     s:16353

  16348 44 006731   200003 471500                    LDP1    @PILL,,AUTO
        44 006732   100000 473500                    LDP3    0,,PR1
        44 006733   300003 236100                    LDQ     3,,PR3
        44 006734   200153 756100                    STQ     OPND,,AUTO
        44 006735   006740 710000 44                 TRA     s:16353

  16350 44 006736   200043 236112                    LDQ     PCOM+26,X2,AUTO
        44 006737   200153 756100                    STQ     OPND,,AUTO

     1445    16353    5            STATE = DSTATE_TYH(OPND -> ETT.STATE) - 1;

  16353 44 006740   200153 471500                    LDP1    OPND,,AUTO
        44 006741   100004 223100                    LDX3    4,,PR1
        44 006742   000016 235013 42                 LDA     DSTATE_TYH,X3
        44 006743   000001 135007                    SBLA    1,DL
        44 006744   002731 755000 3                  STA     STATE
        44 006745   007241 710000 44                 TRA     s:16399

     1446    16354
     1447    16355    5          CASE(%TYH4);

     1448    16356    5            LOP_STATE = DSTATE_TYH(PILL -> ETT.LOP -> ETT.STATE) - 1;

  16356 44 006746   200003 471500                    LDP1    @PILL,,AUTO
PL6.E3A0      #001=Z8HI$BURST File=Z8HI.:Z8A6TSI                                 SAT 08/09/97 13:19 Page:291
        44 006747   100000 473500                    LDP3    0,,PR1
        44 006750   300001 474500                    LDP4    1,,PR3
        44 006751   400004 222100                    LDX2    4,,PR4
        44 006752   000016 235012 42                 LDA     DSTATE_TYH,X2
        44 006753   000001 135007                    SBLA    1,DL
        44 006754   000001 755000 3                  STA     LOP_STATE

     1449    16357    5            ROP_STATE = DSTATE_TYH(PILL -> ETT.ROP -> ETT.STATE) - 1;

  16357 44 006755   300002 475500                    LDP5    2,,PR3
        44 006756   500004 223100                    LDX3    4,,PR5
        44 006757   000016 235013 42                 LDA     DSTATE_TYH,X3
        44 006760   000001 135007                    SBLA    1,DL
        44 006761   000002 755000 3                  STA     ROP_STATE

     1450    16358    5            STATE = LOP_STATE * 2 + ROP_STATE;

  16358 44 006762   000001 236000 3                  LDQ     LOP_STATE
        44 006763   000001 736000                    QLS     1
        44 006764   000002 036000 3                  ADLQ    ROP_STATE
        44 006765   002731 756000 3                  STQ     STATE
        44 006766   007241 710000 44                 TRA     s:16399

     1451    16359
     1452    16360    5          CASE(%IND2);

     1453    16361                 %LOP_ROP_TO(OP=PC.OPND2);

  16362 44 006767   200151 222100                    LDX2    PC+1,,AUTO
        44 006770   000004 102003                    CMPX2   4,DU
        44 006771   006773 602012 44                 TNC     s:16362+4,X2
        44 006772   007022 710000 44                 TRA     s:16372
        44 006773   006777 710000 44                 TRA     s:16364
        44 006774   007003 710000 44                 TRA     s:16366
        44 006775   007010 710000 44                 TRA     s:16368
        44 006776   007015 710000 44                 TRA     s:16370

PL6.E3A0      #001=Z8HI$BURST File=Z8HI.:Z8A6TSI                                 SAT 08/09/97 13:19 Page:292
  16364 44 006777   200003 471500                    LDP1    @PILL,,AUTO
        44 007000   100000 236100                    LDQ     0,,PR1
        44 007001   200153 756100                    STQ     OPND,,AUTO
        44 007002   007024 710000 44                 TRA     s:16375

  16366 44 007003   200003 471500                    LDP1    @PILL,,AUTO
        44 007004   100000 473500                    LDP3    0,,PR1
        44 007005   300001 236100                    LDQ     1,,PR3
        44 007006   200153 756100                    STQ     OPND,,AUTO
        44 007007   007024 710000 44                 TRA     s:16375

  16368 44 007010   200003 471500                    LDP1    @PILL,,AUTO
        44 007011   100000 473500                    LDP3    0,,PR1
        44 007012   300002 236100                    LDQ     2,,PR3
        44 007013   200153 756100                    STQ     OPND,,AUTO
        44 007014   007024 710000 44                 TRA     s:16375

  16370 44 007015   200003 471500                    LDP1    @PILL,,AUTO
        44 007016   100000 473500                    LDP3    0,,PR1
        44 007017   300003 236100                    LDQ     3,,PR3
        44 007020   200153 756100                    STQ     OPND,,AUTO
        44 007021   007024 710000 44                 TRA     s:16375

  16372 44 007022   200043 236112                    LDQ     PCOM+26,X2,AUTO
        44 007023   200153 756100                    STQ     OPND,,AUTO

     1454    16375    5            IF OPND = ADDR(NIL) THEN

  16375 44 007024   000007 116000 45                 CMPQ    7
        44 007025   007030 601000 44                 TNZ     s:16378

     1455    16376    5              STATE = 00;  /* UNCONDITIONAL GO ITEM */

  16376 44 007026   002731 450000 3                  STZ     STATE
        44 007027   007241 710000 44                 TRA     s:16399

     1456    16377    5            ELSE
PL6.E3A0      #001=Z8HI$BURST File=Z8HI.:Z8A6TSI                                 SAT 08/09/97 13:19 Page:293
     1457    16378    6              DO CASE(OPND -> ETT.ID);

  16378 44 007030   200153 471500                    LDP1    OPND,,AUTO
        44 007031   100000 236100                    LDQ     0,,PR1
        44 007032   000022 772000                    QRL     18
        44 007033   000025 136007                    SBLQ    21,DL
        44 007034   000155 116007                    CMPQ    109,DL
        44 007035   007037 602006 44                 TNC     s:16378+7,QL
        44 007036   007221 710000 44                 TRA     s:16388
        44 007037   007214 710000 44                 TRA     s:16386
        44 007040   007221 710000 44                 TRA     s:16388
        44 007041   007221 710000 44                 TRA     s:16388
        44 007042   007221 710000 44                 TRA     s:16388
        44 007043   007214 710000 44                 TRA     s:16386
        44 007044   007214 710000 44                 TRA     s:16386
        44 007045   007214 710000 44                 TRA     s:16386
        44 007046   007221 710000 44                 TRA     s:16388
        44 007047   007221 710000 44                 TRA     s:16388
        44 007050   007221 710000 44                 TRA     s:16388
        44 007051   007221 710000 44                 TRA     s:16388
        44 007052   007221 710000 44                 TRA     s:16388
        44 007053   007221 710000 44                 TRA     s:16388
        44 007054   007221 710000 44                 TRA     s:16388
        44 007055   007221 710000 44                 TRA     s:16388
        44 007056   007221 710000 44                 TRA     s:16388
        44 007057   007221 710000 44                 TRA     s:16388
        44 007060   007221 710000 44                 TRA     s:16388
        44 007061   007221 710000 44                 TRA     s:16388
        44 007062   007221 710000 44                 TRA     s:16388
        44 007063   007221 710000 44                 TRA     s:16388
        44 007064   007221 710000 44                 TRA     s:16388
        44 007065   007221 710000 44                 TRA     s:16388
        44 007066   007221 710000 44                 TRA     s:16388
        44 007067   007221 710000 44                 TRA     s:16388
        44 007070   007221 710000 44                 TRA     s:16388
        44 007071   007221 710000 44                 TRA     s:16388
        44 007072   007221 710000 44                 TRA     s:16388
PL6.E3A0      #001=Z8HI$BURST File=Z8HI.:Z8A6TSI                                 SAT 08/09/97 13:19 Page:294
        44 007073   007221 710000 44                 TRA     s:16388
        44 007074   007221 710000 44                 TRA     s:16388
        44 007075   007221 710000 44                 TRA     s:16388
        44 007076   007221 710000 44                 TRA     s:16388
        44 007077   007221 710000 44                 TRA     s:16388
        44 007100   007221 710000 44                 TRA     s:16388
        44 007101   007221 710000 44                 TRA     s:16388
        44 007102   007221 710000 44                 TRA     s:16388
        44 007103   007221 710000 44                 TRA     s:16388
        44 007104   007221 710000 44                 TRA     s:16388
        44 007105   007221 710000 44                 TRA     s:16388
        44 007106   007221 710000 44                 TRA     s:16388
        44 007107   007221 710000 44                 TRA     s:16388
        44 007110   007221 710000 44                 TRA     s:16388
        44 007111   007221 710000 44                 TRA     s:16388
        44 007112   007221 710000 44                 TRA     s:16388
        44 007113   007221 710000 44                 TRA     s:16388
        44 007114   007221 710000 44                 TRA     s:16388
        44 007115   007221 710000 44                 TRA     s:16388
        44 007116   007221 710000 44                 TRA     s:16388
        44 007117   007221 710000 44                 TRA     s:16388
        44 007120   007214 710000 44                 TRA     s:16386
        44 007121   007214 710000 44                 TRA     s:16386
        44 007122   007214 710000 44                 TRA     s:16386
        44 007123   007214 710000 44                 TRA     s:16386
        44 007124   007214 710000 44                 TRA     s:16386
        44 007125   007214 710000 44                 TRA     s:16386
        44 007126   007221 710000 44                 TRA     s:16388
        44 007127   007221 710000 44                 TRA     s:16388
        44 007130   007214 710000 44                 TRA     s:16386
        44 007131   007221 710000 44                 TRA     s:16388
        44 007132   007221 710000 44                 TRA     s:16388
        44 007133   007214 710000 44                 TRA     s:16386
        44 007134   007221 710000 44                 TRA     s:16388
        44 007135   007214 710000 44                 TRA     s:16386
        44 007136   007221 710000 44                 TRA     s:16388
        44 007137   007221 710000 44                 TRA     s:16388
PL6.E3A0      #001=Z8HI$BURST File=Z8HI.:Z8A6TSI                                 SAT 08/09/97 13:19 Page:295
        44 007140   007221 710000 44                 TRA     s:16388
        44 007141   007221 710000 44                 TRA     s:16388
        44 007142   007221 710000 44                 TRA     s:16388
        44 007143   007221 710000 44                 TRA     s:16388
        44 007144   007221 710000 44                 TRA     s:16388
        44 007145   007221 710000 44                 TRA     s:16388
        44 007146   007221 710000 44                 TRA     s:16388
        44 007147   007221 710000 44                 TRA     s:16388
        44 007150   007221 710000 44                 TRA     s:16388
        44 007151   007221 710000 44                 TRA     s:16388
        44 007152   007221 710000 44                 TRA     s:16388
        44 007153   007221 710000 44                 TRA     s:16388
        44 007154   007221 710000 44                 TRA     s:16388
        44 007155   007221 710000 44                 TRA     s:16388
        44 007156   007221 710000 44                 TRA     s:16388
        44 007157   007221 710000 44                 TRA     s:16388
        44 007160   007221 710000 44                 TRA     s:16388
        44 007161   007221 710000 44                 TRA     s:16388
        44 007162   007221 710000 44                 TRA     s:16388
        44 007163   007221 710000 44                 TRA     s:16388
        44 007164   007221 710000 44                 TRA     s:16388
        44 007165   007221 710000 44                 TRA     s:16388
        44 007166   007221 710000 44                 TRA     s:16388
        44 007167   007221 710000 44                 TRA     s:16388
        44 007170   007221 710000 44                 TRA     s:16388
        44 007171   007221 710000 44                 TRA     s:16388
        44 007172   007214 710000 44                 TRA     s:16386
        44 007173   007221 710000 44                 TRA     s:16388
        44 007174   007221 710000 44                 TRA     s:16388
        44 007175   007221 710000 44                 TRA     s:16388
        44 007176   007221 710000 44                 TRA     s:16388
        44 007177   007221 710000 44                 TRA     s:16388
        44 007200   007221 710000 44                 TRA     s:16388
        44 007201   007221 710000 44                 TRA     s:16388
        44 007202   007214 710000 44                 TRA     s:16386
        44 007203   007221 710000 44                 TRA     s:16388
        44 007204   007221 710000 44                 TRA     s:16388
PL6.E3A0      #001=Z8HI$BURST File=Z8HI.:Z8A6TSI                                 SAT 08/09/97 13:19 Page:296
        44 007205   007221 710000 44                 TRA     s:16388
        44 007206   007221 710000 44                 TRA     s:16388
        44 007207   007221 710000 44                 TRA     s:16388
        44 007210   007221 710000 44                 TRA     s:16388
        44 007211   007214 710000 44                 TRA     s:16386
        44 007212   007221 710000 44                 TRA     s:16388
        44 007213   007214 710000 44                 TRA     s:16386

     1458    16379    6                CASE(

     1459    16380                          %SET_OF_COMPARISONS;
     1460    16385    6                    );
     1461    16386    6                  STATE = DSTATE_IND(OPND -> ETT.STATE) - 1;

  16386 44 007214   100004 223100                    LDX3    4,,PR1
        44 007215   000123 235013 42                 LDA     DSTATE_IND,X3
        44 007216   000001 135007                    SBLA    1,DL
        44 007217   002731 755000 3                  STA     STATE
        44 007220   007241 710000 44                 TRA     s:16399

     1462    16387    6                CASE(ELSE);

     1463    16388    6                  IF PILL -> ILL.CODE = %GO_SWITCH_OFF OR

  16388 44 007221   200003 473500                    LDP3    @PILL,,AUTO
        44 007222   300000 474500                    LDP4    0,,PR3
        44 007223   400000 723100                    LXL3    0,,PR4
        44 007224   000026 103003                    CMPX3   22,DU
        44 007225   007230 600000 44                 TZE     s:16390
        44 007226   000025 103003                    CMPX3   21,DU
        44 007227   007233 601000 44                 TNZ     s:16392

     1464    16389    6                     PILL -> ILL.CODE = %GO_SWITCH_ON THEN
     1465    16390    6                    STATE = 1;

  16390 44 007230   000001 235007                    LDA     1,DL
        44 007231   002731 755000 3                  STA     STATE
PL6.E3A0      #001=Z8HI$BURST File=Z8HI.:Z8A6TSI                                 SAT 08/09/97 13:19 Page:297
        44 007232   007241 710000 44                 TRA     s:16399

     1466    16391    6                  ELSE
     1467    16392    6                    STATE = 0;

  16392 44 007233   002731 450000 3                  STZ     STATE

     1468    16393    6              END /* Case */;

  16393 44 007234   007241 710000 44                 TRA     s:16399

     1469    16394    5          CASE(ELSE);

     1470    16395    5            CALL Z8AE$ERROR(%E$UNEXPECTED_CASE);

  16395 44 007235   000043 630400 45                 EPPR0   35
        44 007236   000006 631400 45                 EPPR1   6
        44 007237   000000 701000 xent               TSX1    Z8AE$ERROR
        44 007240   000000 011000                    NOP     0

     1471    16396
     1472    16397    5        END /* Case */;

     1473    16398
     1474    16399    4        PCOM_.ABS(PC.OPND3) = STATE;

  16399 44 007241   200151 720100                    LXL0    PC+1,,AUTO
        44 007242   002731 235000 3                  LDA     STATE
        44 007243   200011 755110                    STA     PCOM,X0,AUTO
        44 007244   016024 710000 44                 TRA     s:19025

     1475    16400
     1476    16401        %EJECT;
PL6.E3A0      #001=Z8HI$BURST File=Z8HI.:Z8A6TSI                                 SAT 08/09/97 13:19 Page:298
     1477    16402    4   CASE(%FAVOR);

     1478    16403        /*V*
     1479    16404
     1480    16405                            FAVOR
     1481    16406
     1482    16407            PURPOSE: To allow a register to be used as a tag (SSOP, SIZ) in
     1483    16408                     the same instruction that the contents of the
     1484    16409                     register is destroyed.
     1485    16410
     1486    16411                     EXAMPLE::
     1487    16412                                                        MOVE ARRAY(I) TO C.
     1488    16413
     1489    16414                                    LDQ     I
     1490    16415                                    QLS     2
     1491    16416                                    LDQ     ARRAY,QL  *
     1492    16417                                    STQ     C
     1493    16418
     1494    16419
     1495    16420        DESCRIPTION: This local optimization can only be performed if the
     1496    16421                     count of the tag triad is 1.
     1497    16422
     1498    16423          Operation: Let's say we are working on this tree:
     1499    16424
     1500    16425
     1501    16426                            MVII
     1502    16427                            -  -
     1503    16428                           -    -
     1504    16429                          -      -
     1505    16430                         -        -
     1506    16431                                 SSOP
     1507    16432                                 -  -
     1508    16433                                -    -
     1509    16434                               -      -      PILL      -> MVII
     1510    16435                              -        -     containment = ARQ
     1511    16436                                      ADI    count       = 1
     1512    16437                                      - -
PL6.E3A0      #001=Z8HI$BURST File=Z8HI.:Z8A6TSI                                 SAT 08/09/97 13:19 Page:299
     1513    16438                                     -   -
     1514    16439                                    -     -
     1515    16440                                   -       -
     1516    16441
     1517    16442
     1518    16443                     Note that the tag triad (ADI) has a count of 1, that it is
     1519    16444                     ARQ contained, and that the current triad is the MVII.
     1520    16445
     1521    16446                     We encounter the pseudo-code directive that drove us here:
     1522    16447
     1523    16448                                      FAVOR   ROP,AR
     1524    16449
     1525    16450                        What this says is: "It's okay to use any register within
     1526    16451                     the AR class as a tag when we generate from the ROP of the
     1527    16452                     current triad."  This also implies that any attempt to
     1528    16453                     store a register that has been marked as selected
     1529    16454                     (RAT.B.FAVORED(REGISTER) = YES) should be thwarted.  This is
     1530    16455                     done when routine SAVE_MAYBE  tests to see
     1531    16456                     if the register that is a candidate for storing is selected.
     1532    16457                     If so, it won't save it.
     1533    16458
     1534    16459
     1535    16460                        Only registers that contain no more than one triad
     1536    16461                     will be marked as favored.  If the favored register
     1537    16462                     contained more than one triad there is a possibility
     1538    16463                     that the contents of the register will become incorrect
     1539    16464                     for the triads it contained other than the one for which
     1540    16465                     the favor directive was executed.
     1541    16466
     1542    16467                     Note: Only ARA and ARQ are 'unfavored' in the
     1543    16468                     ASSIGN FREE directive (because as of the writing
     1544    16469                     of this note only ARA and ARQ are used in the
     1545    16470                     FAVOR directive).
     1546    16471
     1547    16472        */
     1548    16473
     1549    16474             %LOP_ROP_TO;
PL6.E3A0      #001=Z8HI$BURST File=Z8HI.:Z8A6TSI                                 SAT 08/09/97 13:19 Page:300

  16475 44 007245   200150 721100                    LXL1    PC,,AUTO
        44 007246   000004 101003                    CMPX1   4,DU
        44 007247   007251 602011 44                 TNC     s:16475+4,X1
        44 007250   007300 710000 44                 TRA     s:16485
        44 007251   007255 710000 44                 TRA     s:16477
        44 007252   007261 710000 44                 TRA     s:16479
        44 007253   007266 710000 44                 TRA     s:16481
        44 007254   007273 710000 44                 TRA     s:16483

  16477 44 007255   200003 471500                    LDP1    @PILL,,AUTO
        44 007256   100000 236100                    LDQ     0,,PR1
        44 007257   200153 756100                    STQ     OPND,,AUTO
        44 007260   007302 710000 44                 TRA     s:16489

  16479 44 007261   200003 471500                    LDP1    @PILL,,AUTO
        44 007262   100000 473500                    LDP3    0,,PR1
        44 007263   300001 236100                    LDQ     1,,PR3
        44 007264   200153 756100                    STQ     OPND,,AUTO
        44 007265   007302 710000 44                 TRA     s:16489

  16481 44 007266   200003 471500                    LDP1    @PILL,,AUTO
        44 007267   100000 473500                    LDP3    0,,PR1
        44 007270   300002 236100                    LDQ     2,,PR3
        44 007271   200153 756100                    STQ     OPND,,AUTO
        44 007272   007302 710000 44                 TRA     s:16489

  16483 44 007273   200003 471500                    LDP1    @PILL,,AUTO
        44 007274   100000 473500                    LDP3    0,,PR1
        44 007275   300003 236100                    LDQ     3,,PR3
        44 007276   200153 756100                    STQ     OPND,,AUTO
        44 007277   007302 710000 44                 TRA     s:16489

  16485 44 007300   200043 236111                    LDQ     PCOM+26,X1,AUTO
        44 007301   200153 756100                    STQ     OPND,,AUTO

     1550    16488
PL6.E3A0      #001=Z8HI$BURST File=Z8HI.:Z8A6TSI                                 SAT 08/09/97 13:19 Page:301
     1551    16489    5        DO CASE(PC.OPND2);

  16489 44 007302   200151 222100                    LDX2    PC+1,,AUTO
        44 007303   000021 102003                    CMPX2   17,DU
        44 007304   007306 602012 44                 TNC     s:16489+4,X2
        44 007305   007341 710000 44                 TRA     s:16497
        44 007306   007341 710000 44                 TRA     s:16497
        44 007307   007341 710000 44                 TRA     s:16497
        44 007310   007341 710000 44                 TRA     s:16497
        44 007311   007341 710000 44                 TRA     s:16497
        44 007312   007327 710000 44                 TRA     s:16491
        44 007313   007341 710000 44                 TRA     s:16497
        44 007314   007341 710000 44                 TRA     s:16497
        44 007315   007341 710000 44                 TRA     s:16497
        44 007316   007341 710000 44                 TRA     s:16497
        44 007317   007341 710000 44                 TRA     s:16497
        44 007320   007341 710000 44                 TRA     s:16497
        44 007321   007341 710000 44                 TRA     s:16497
        44 007322   007341 710000 44                 TRA     s:16497
        44 007323   007341 710000 44                 TRA     s:16497
        44 007324   007341 710000 44                 TRA     s:16497
        44 007325   007341 710000 44                 TRA     s:16497
        44 007326   007334 710000 44                 TRA     s:16494

     1552    16490    5          CASE(%AR);

     1553    16491    5            LO = %ARA;

  16491 44 007327   000005 235007                    LDA     5,DL
        44 007330   000003 755000 3                  STA     LO

     1554    16492    5            HI = %ARQ;     /* THE AR REGISTER CLASS */

  16492 44 007331   000006 235007                    LDA     6,DL
        44 007332   000004 755000 3                  STA     HI
        44 007333   007345 710000 44                 TRA     s:16501

PL6.E3A0      #001=Z8HI$BURST File=Z8HI.:Z8A6TSI                                 SAT 08/09/97 13:19 Page:302
     1555    16493    5          CASE(%XR);

     1556    16494    5            LO = %XR0;

  16494 44 007334   000010 235007                    LDA     8,DL
        44 007335   000003 755000 3                  STA     LO

     1557    16495    5            HI = %XR7;     /* THE XR REGISTER CLASS */

  16495 44 007336   000017 235007                    LDA     15,DL
        44 007337   000004 755000 3                  STA     HI
        44 007340   007345 710000 44                 TRA     s:16501

     1558    16496    5          CASE(ELSE, %OPTIMIZATION);

     1559    16497    5            LO = PC.OPND2;

  16497 44 007341   200151 235100                    LDA     PC+1,,AUTO
        44 007342   000022 771000                    ARL     18
        44 007343   000003 755000 3                  STA     LO

     1560    16498    5            HI = PC.OPND2;  /* OTHERWISE... */

  16498 44 007344   000004 755000 3                  STA     HI

     1561    16499    5        END /* Case */;

     1562    16500
     1563    16501    5        DO I = LO TO HI;         /* FAVOR RAT GUYS WITHIN THIS RANGE */

  16501 44 007345   000003 235000 3                  LDA     LO
        44 007346   200223 755100                    STA     I,,AUTO
        44 007347   007401 710000 44                 TRA     s:16510+1

     1564    16502    5          IF OPND -> ETT.ID = %SSOP                            /*#28637*/

  16502 44 007350   200153 470500                    LDP0    OPND,,AUTO
PL6.E3A0      #001=Z8HI$BURST File=Z8HI.:Z8A6TSI                                 SAT 08/09/97 13:19 Page:303
        44 007351   000000 220100                    LDX0    0,,PR0
        44 007352   000005 100003                    CMPX0   5,DU
        44 007353   007360 600000 44                 TZE     s:16505
        44 007354   000004 100003                    CMPX0   4,DU
        44 007355   007360 600000 44                 TZE     s:16505
        44 007356   000012 100003                    CMPX0   10,DU
        44 007357   007400 601000 44                 TNZ     s:16510

     1565    16503    5          OR OPND -> ETT.ID = %SIZ
     1566    16504    5          OR OPND -> ETT.ID = %REFMOD THEN
     1567    16505    5            IF OPND -> ETT.ROP -> ETT.COUNT = 1 THEN

  16505 44 007360   000002 471500                    LDP1    2,,PR0
        44 007361   100000 721100                    LXL1    0,,PR1
        44 007362   000001 101003                    CMPX1   1,DU
        44 007363   007400 601000 44                 TNZ     s:16510

     1568    16506    5              IF OPND -> ETT.ROP -> ETT.STATE = I THEN

  16506 44 007364   100004 236100                    LDQ     4,,PR1
        44 007365   000022 772000                    QRL     18
        44 007366   200223 116100                    CMPQ    I,,AUTO
        44 007367   007400 601000 44                 TNZ     s:16510

     1569    16507    5                IF RAT.PRIMES(I) -> PRIME.NEXT = ADDR(NIL) THEN

  16507 44 007370   200223 235100                    LDA     I,,AUTO
        44 007371   000002 735000                    ALS     2
        44 007372   000000 473405 1                  LDP3    RAT,AL
        44 007373   300003 236100                    LDQ     3,,PR3
        44 007374   000007 116000 45                 CMPQ    7
        44 007375   007400 601000 44                 TNZ     s:16510

     1570    16508                       /* Favored if there is only one triad on the prime list */
     1571    16509    5                  RAT.B.FAVORED(I) = TRUE;

  16509 44 007376   100000 236003                    LDQ     32768,DU
PL6.E3A0      #001=Z8HI$BURST File=Z8HI.:Z8A6TSI                                 SAT 08/09/97 13:19 Page:304
        44 007377   000001 256005 1                  ORSQ    RAT+1,AL

     1572    16510    5        END;

  16510 44 007400   200223 054100                    AOS     I,,AUTO
        44 007401   200223 236100                    LDQ     I,,AUTO
        44 007402   000004 116000 3                  CMPQ    HI
        44 007403   007350 604400 44                 TMOZ    s:16502
        44 007404   016024 710000 44                 TRA     s:19025

     1573    16511
     1574    16512        %EJECT;
PL6.E3A0      #001=Z8HI$BURST File=Z8HI.:Z8A6TSI                                 SAT 08/09/97 13:19 Page:305
     1575    16513    4   CASE(%GENI);

     1576    16514
     1577    16515
     1578    16516    4        INST_WORD = PCB.INST;

  16516 44 007405   200075 756100                    STQ     INST_WORD,,AUTO

     1579    16517
     1580    16518    4        MF = '0'O;

  16518 44 007406   200174 450100                    STZ     MF,,AUTO

     1581    16519
     1582    16520    4        IF PCS.OPND1 = -1 THEN

  16520 44 007407   200150 721100                    LXL1    PC,,AUTO
        44 007410   777777 101003                    CMPX1   -1,DU
        44 007411   007422 601000 44                 TNZ     s:16528

     1583    16521    5          DO;

     1584    16522    5            ST$$ = ADDR(NIL);

  16522 44 007412   000007 236000 45                 LDQ     7
        44 007413   200233 756100                    STQ     ST$$,,AUTO

     1585    16523    5            DEFER_BUFFER.DECCNT_NODE$(DEFER_BUFFER_IDX) = ADDR(NIL);

  16523 44 007414   200122 236100                    LDQ     DEFER_BUFFER_IDX,,AUTO
        44 007415   000005 402007                    MPY     5,DL
        44 007416   000000 622006                    EAX2    0,QL
        44 007417   000007 236000 45                 LDQ     7
        44 007420   200102 756112                    STQ     DEFER_BUFFER+4,X2,AUTO

     1586    16524    5          END;

PL6.E3A0      #001=Z8HI$BURST File=Z8HI.:Z8A6TSI                                 SAT 08/09/97 13:19 Page:306
  16524 44 007421   007671 710000 44                 TRA     s:16678

     1587    16525    4        ELSE
     1588    16526    5          DO;

     1589    16527                 %LOP_ROP_TO(RESULT=NODE$,OP=PC.OPND1);

  16528 44 007422   200150 722100                    LXL2    PC,,AUTO
        44 007423   000004 102003                    CMPX2   4,DU
        44 007424   007426 602012 44                 TNC     s:16528+4,X2
        44 007425   007455 710000 44                 TRA     s:16538
        44 007426   007432 710000 44                 TRA     s:16530
        44 007427   007436 710000 44                 TRA     s:16532
        44 007430   007443 710000 44                 TRA     s:16534
        44 007431   007450 710000 44                 TRA     s:16536

  16530 44 007432   200003 471500                    LDP1    @PILL,,AUTO
        44 007433   100000 236100                    LDQ     0,,PR1
        44 007434   200230 756100                    STQ     NODE$,,AUTO
        44 007435   007457 710000 44                 TRA     s:16542

  16532 44 007436   200003 471500                    LDP1    @PILL,,AUTO
        44 007437   100000 473500                    LDP3    0,,PR1
        44 007440   300001 236100                    LDQ     1,,PR3
        44 007441   200230 756100                    STQ     NODE$,,AUTO
        44 007442   007457 710000 44                 TRA     s:16542

  16534 44 007443   200003 471500                    LDP1    @PILL,,AUTO
        44 007444   100000 473500                    LDP3    0,,PR1
        44 007445   300002 236100                    LDQ     2,,PR3
        44 007446   200230 756100                    STQ     NODE$,,AUTO
        44 007447   007457 710000 44                 TRA     s:16542

  16536 44 007450   200003 471500                    LDP1    @PILL,,AUTO
        44 007451   100000 473500                    LDP3    0,,PR1
        44 007452   300003 236100                    LDQ     3,,PR3
        44 007453   200230 756100                    STQ     NODE$,,AUTO
PL6.E3A0      #001=Z8HI$BURST File=Z8HI.:Z8A6TSI                                 SAT 08/09/97 13:19 Page:307
        44 007454   007457 710000 44                 TRA     s:16542

  16538 44 007455   200043 236112                    LDQ     PCOM+26,X2,AUTO
        44 007456   200230 756100                    STQ     NODE$,,AUTO

     1590    16541
     1591    16542    5            IF NODE$ -> ST.ID >= %FIRST_ST THEN

  16542 44 007457   200230 471500                    LDP1    NODE$,,AUTO
        44 007460   100000 223100                    LDX3    0,,PR1
        44 007461   000751 103003                    CMPX3   489,DU
        44 007462   007503 602000 44                 TNC     s:16552

     1592    16543    6              DO;

     1593    16544    6                ST$$ = NODE$;

  16544 44 007463   200233 756100                    STQ     ST$$,,AUTO

     1594    16545    6                IF ST$$ -> ST.ID ~= %SYMREF_ THEN

  16545 44 007464   200233 473500                    LDP3    ST$$,,AUTO
        44 007465   300000 224100                    LDX4    0,,PR3
        44 007466   000772 104003                    CMPX4   506,DU
        44 007467   007473 600000 44                 TZE     s:16547

     1595    16546    6                  INST_WORD.SA = ST$$ -> ST.SA;

  16546 44 007470   300001 225100                    LDX5    1,,PR3
        44 007471   200075 745100                    STX5    INST_WORD,,AUTO
        44 007472   007532 710000 44                 TRA     s:16563

     1596    16547    6                ELSE IF DEFER THEN

  16547 44 007473   200123 234100                    SZN     DEFER,,AUTO
        44 007474   007532 605000 44                 TPL     s:16563

PL6.E3A0      #001=Z8HI$BURST File=Z8HI.:Z8A6TSI                                 SAT 08/09/97 13:19 Page:308
     1597    16548    6                  DEFER_BUFFER.DECCNT_NODE$(DEFER_BUFFER_IDX) = ADDR(NIL);

  16548 44 007475   200122 236100                    LDQ     DEFER_BUFFER_IDX,,AUTO
        44 007476   000005 402007                    MPY     5,DL
        44 007477   000000 625006                    EAX5    0,QL
        44 007500   000007 236000 45                 LDQ     7
        44 007501   200102 756115                    STQ     DEFER_BUFFER+4,X5,AUTO

     1598    16549    6              END;

  16549 44 007502   007532 710000 44                 TRA     s:16563

     1599    16550    5            ELSE
     1600    16551    6              DO;

     1601    16552    6                REF$ = NODE$ -> ETT.REF$;

  16552 44 007503   100003 236100                    LDQ     3,,PR1
        44 007504   200231 756100                    STQ     REF$,,AUTO

     1602    16553
     1603    16554    6                ST$$ = REF$ -> REF.ST$;

  16554 44 007505   200231 473500                    LDP3    REF$,,AUTO
        44 007506   300005 236100                    LDQ     5,,PR3
        44 007507   200233 756100                    STQ     ST$$,,AUTO

     1604    16555    6                CALL HANDLE_REF_OPERAND;

  16555 44 007510   016030 701000 44                 TSX1    HANDLE_REF_OPERAND
        44 007511   000000 011000                    NOP     0

     1605    16556
     1606    16557    6                IF DEFER THEN

  16557 44 007512   200123 234100                    SZN     DEFER,,AUTO
        44 007513   007522 605000 44                 TPL     s:16560
PL6.E3A0      #001=Z8HI$BURST File=Z8HI.:Z8A6TSI                                 SAT 08/09/97 13:19 Page:309

     1607    16558    6                  DEFER_BUFFER.DECCNT_NODE$(DEFER_BUFFER_IDX) = NODE$;

  16558 44 007514   200122 236100                    LDQ     DEFER_BUFFER_IDX,,AUTO
        44 007515   000005 402007                    MPY     5,DL
        44 007516   000000 620006                    EAX0    0,QL
        44 007517   200230 236100                    LDQ     NODE$,,AUTO
        44 007520   200102 756110                    STQ     DEFER_BUFFER+4,X0,AUTO
        44 007521   007532 710000 44                 TRA     s:16563

     1608    16559    6                ELSE
     1609    16560    6                  CALL Z8HU$DEC_COUNT(NODE$,1);

  16560 44 007522   000017 236000 45                 LDQ     15
        44 007523   200261 756100                    STQ     @TAG+3,,AUTO
        44 007524   200230 630500                    EPPR0   NODE$,,AUTO
        44 007525   200260 450500                    STP0    @TAG+2,,AUTO
        44 007526   200260 630500                    EPPR0   @TAG+2,,AUTO
        44 007527   000015 631400 45                 EPPR1   13
        44 007530   000000 701000 xent               TSX1    Z8HU$DEC_COUNT
        44 007531   000000 011000                    NOP     0

     1610    16561    6              END;

     1611    16562
     1612    16563    6            DO CASE(ST$$ -> ST.ID);

  16563 44 007532   200233 470500                    LDP0    ST$$,,AUTO
        44 007533   000000 236100                    LDQ     0,,PR0
        44 007534   000022 772000                    QRL     18
        44 007535   000760 136007                    SBLQ    496,DL
        44 007536   000030 116007                    CMPQ    24,DL
        44 007537   007541 602006 44                 TNC     s:16563+7,QL
        44 007540   007665 710000 44                 TRA     s:16674
        44 007541   007610 710000 44                 TRA     s:16577
        44 007542   007665 710000 44                 TRA     s:16674
        44 007543   007610 710000 44                 TRA     s:16577
PL6.E3A0      #001=Z8HI$BURST File=Z8HI.:Z8A6TSI                                 SAT 08/09/97 13:19 Page:310
        44 007544   007665 710000 44                 TRA     s:16674
        44 007545   007665 710000 44                 TRA     s:16674
        44 007546   007610 710000 44                 TRA     s:16577
        44 007547   007610 710000 44                 TRA     s:16577
        44 007550   007571 710000 44                 TRA     s:16565
        44 007551   007643 710000 44                 TRA     s:16642
        44 007552   007643 710000 44                 TRA     s:16642
        44 007553   007615 710000 44                 TRA     s:16583
        44 007554   007665 710000 44                 TRA     s:16674
        44 007555   007631 710000 44                 TRA     s:16630
        44 007556   007665 710000 44                 TRA     s:16674
        44 007557   007643 710000 44                 TRA     s:16642
        44 007560   007610 710000 44                 TRA     s:16577
        44 007561   007631 710000 44                 TRA     s:16630
        44 007562   007665 710000 44                 TRA     s:16674
        44 007563   007665 710000 44                 TRA     s:16674
        44 007564   007665 710000 44                 TRA     s:16674
        44 007565   007665 710000 44                 TRA     s:16674
        44 007566   007665 710000 44                 TRA     s:16674
        44 007567   007665 710000 44                 TRA     s:16674
        44 007570   007631 710000 44                 TRA     s:16630

     1613    16564    6              CASE(%CONST);

     1614    16565    6                IF CURRENT_BLOCK$ ~= COMCOM.BLOCK$  THEN

  16565 44 007571   000000 236000 4                  LDQ     CURRENT_BLOCK$
        44 007572   000145 116000 xsym               CMPQ    COMCOM+101
        44 007573   007606 600000 44                 TZE     s:16571

     1615    16566    7                  DO;

     1616    16567    7                    MOD_KEY.B.IC = MATERIALIZED_CONSTANT;

  16567 44 007574   002734 236000 3                  LDQ     MATERIALIZED_CONSTANT
        44 007575   000043 772000                    QRL     35
        44 007576   000000 676000 3                  ERQ     MOD_KEY
PL6.E3A0      #001=Z8HI$BURST File=Z8HI.:Z8A6TSI                                 SAT 08/09/97 13:19 Page:311
        44 007577   000001 376007                    ANQ     1,DL
        44 007600   000000 656000 3                  ERSQ    MOD_KEY

     1617    16568    7                    MOD_KEY.B.RESOLVE_ADDRESS = MATERIALIZED_CONSTANT;

  16568 44 007601   002734 236000 3                  LDQ     MATERIALIZED_CONSTANT
        44 007602   000037 772000                    QRL     31
        44 007603   000000 676000 3                  ERQ     MOD_KEY
        44 007604   000020 376007                    ANQ     16,DL
        44 007605   000000 656000 3                  ERSQ    MOD_KEY

     1618    16569    7                  END;

     1619    16570
     1620    16571    6                  MATERIALIZED_CONSTANT = FALSE;

  16571 44 007606   002734 450000 3                  STZ     MATERIALIZED_CONSTANT
        44 007607   007671 710000 44                 TRA     s:16678

     1621    16572
     1622    16573    6              CASE(%SCALAR, %TEMP, %ARRAY, %POINTER, %SWITCH);

     1623    16574
     1624    16575                     %IF USING_HALF_WORD_RELOCATION;
     1625    16576
     1626    16577    6                  IF MF.AR = FALSE THEN

  16577 44 007610   200174 234100                    SZN     MF,,AUTO
        44 007611   007671 604000 44                 TMI     s:16678

     1627    16578    6                    MOD_KEY.B.HALF_REL = TRUE;

  16578 44 007612   000040 236007                    LDQ     32,DL
        44 007613   000000 256000 3                  ORSQ    MOD_KEY
        44 007614   007671 710000 44                 TRA     s:16678

     1628    16579
PL6.E3A0      #001=Z8HI$BURST File=Z8HI.:Z8A6TSI                                 SAT 08/09/97 13:19 Page:312
     1629    16580                     %ENDIF;
     1630    16581
     1631    16582    6              CASE(%SYMREF_);

     1632    16583    6                IF GENERATING_PTRS THEN

  16583 44 007615   000000 234000 9                  SZN     GENERATING_PTRS
        44 007616   007624 605000 44                 TPL     s:16590

     1633    16584    7                  DO;

     1634    16585    7                    MOD_KEY.B.SEGID_REL_LOW = TRUE;

  16585 44 007617   000200 236007                    LDQ     128,DL
        44 007620   000000 256000 3                  ORSQ    MOD_KEY

     1635    16586    7                    MOD_KEY.B.WORD_REL = TRUE;

  16586 44 007621   000002 236007                    LDQ     2,DL
        44 007622   000000 256000 3                  ORSQ    MOD_KEY

     1636    16587    7                  END;

  16587 44 007623   007671 710000 44                 TRA     s:16678

     1637    16588    6                ELSE
     1638    16589                       %IF USING_HALF_WORD_RELOCATION;
     1639    16590    6                    IF MF.AR = FALSE THEN

  16590 44 007624   200174 234100                    SZN     MF,,AUTO
        44 007625   007671 604000 44                 TMI     s:16678

     1640    16591    6                      MOD_KEY.B.HALF_REL = TRUE;

  16591 44 007626   000040 236007                    LDQ     32,DL
        44 007627   000000 256000 3                  ORSQ    MOD_KEY
        44 007630   007671 710000 44                 TRA     s:16678
PL6.E3A0      #001=Z8HI$BURST File=Z8HI.:Z8A6TSI                                 SAT 08/09/97 13:19 Page:313

     1641    16592                       %ELSE;
     1676    16627                       %ENDIF;
     1677    16628
     1678    16629    6              CASE(%BLOCK, %SEGMENT, %DCB_);

     1679    16630    6                IF GENERATING_PTRS THEN

  16630 44 007631   000000 234000 9                  SZN     GENERATING_PTRS
        44 007632   007636 605000 44                 TPL     s:16637

     1680    16631    6                  MOD_KEY.B.WORD_REL = TRUE;

  16631 44 007633   000002 236007                    LDQ     2,DL
        44 007634   000000 256000 3                  ORSQ    MOD_KEY
        44 007635   007671 710000 44                 TRA     s:16678

     1681    16632    6                ELSE
     1682    16633    7                  DO;

     1683    16634                         %SEGMENTED_BLOCK_CHECK;
     1684    16637    7                    MOD_KEY.B.IC = TRUE;

  16637 44 007636   000001 236007                    LDQ     1,DL
        44 007637   000000 256000 3                  ORSQ    MOD_KEY

     1685    16638    7                    MOD_KEY.B.RESOLVE_ADDRESS = TRUE;

  16638 44 007640   000020 236007                    LDQ     16,DL
        44 007641   000000 256000 3                  ORSQ    MOD_KEY

     1686    16639    7                  END;

  16639 44 007642   007671 710000 44                 TRA     s:16678

     1687    16640
     1688    16641    6              CASE(%PARA, %SECTION, %INTDEF);
PL6.E3A0      #001=Z8HI$BURST File=Z8HI.:Z8A6TSI                                 SAT 08/09/97 13:19 Page:314

     1689    16642    6                IF ST$$ ~= NODE$   THEN     /* Pointer referenced */

  16642 44 007643   200233 236100                    LDQ     ST$$,,AUTO
        44 007644   200230 116100                    CMPQ    NODE$,,AUTO
        44 007645   007653 600000 44                 TZE     s:16666

     1690    16643    7                  DO;

     1691    16644                         %IF USING_HALF_WORD_RELOCATION;
     1692    16645
     1693    16646    7                      MOD_KEY.B.HALF_REL = TRUE;

  16646 44 007646   000040 236007                    LDQ     32,DL
        44 007647   000000 256000 3                  ORSQ    MOD_KEY

     1694    16647    7                      MOD_KEY.B.RESOLVE_ADDRESS = TRUE;

  16647 44 007650   000020 236007                    LDQ     16,DL
        44 007651   000000 256000 3                  ORSQ    MOD_KEY

     1695    16648
     1696    16649                         %ELSE;
     1710    16663                         %ENDIF;
     1711    16664    7                  END;

  16664 44 007652   007671 710000 44                 TRA     s:16678

     1712    16665    6                ELSE
     1713    16666    6                  IF NOT ST$$ -> LABEL.B.DATA_REF THEN

  16666 44 007653   000003 236100                    LDQ     3,,PR0
        44 007654   400000 316007                    CANQ    -131072,DL
        44 007655   007671 601000 44                 TNZ     s:16678

     1714    16667    7                    DO;

PL6.E3A0      #001=Z8HI$BURST File=Z8HI.:Z8A6TSI                                 SAT 08/09/97 13:19 Page:315
     1715    16668    7                      MOD_KEY.B.IC = TRUE;

  16668 44 007656   000001 236007                    LDQ     1,DL
        44 007657   000000 256000 3                  ORSQ    MOD_KEY

     1716    16669    7                      MOD_KEY.B.RESOLVE_ADDRESS = TRUE;

  16669 44 007660   000020 236007                    LDQ     16,DL
        44 007661   000000 256000 3                  ORSQ    MOD_KEY

     1717    16670    7                      INST_WORD.SA = 0;

  16670 44 007662   000000 220003                    LDX0    0,DU
        44 007663   200075 740100                    STX0    INST_WORD,,AUTO

     1718    16671    7                    END;

  16671 44 007664   007671 710000 44                 TRA     s:16678

     1719    16672
     1720    16673    6              CASE(ELSE);

     1721    16674    6                CALL Z8AE$ERROR(%E$UNEXPECTED_CASE);

  16674 44 007665   000043 630400 45                 EPPR0   35
        44 007666   000006 631400 45                 EPPR1   6
        44 007667   000000 701000 xent               TSX1    Z8AE$ERROR
        44 007670   000000 011000                    NOP     0

     1722    16675    6            END /* Case */;

     1723    16676    5          END;

     1724    16677
     1725    16678    4       INST_WORD = INST_WORD | MAPT_WORD | BINBIT(PCOM.GABS,36) | BINBIT(SUPP_DATA.WRD
             16678                 ,36);

PL6.E3A0      #001=Z8HI$BURST File=Z8HI.:Z8A6TSI                                 SAT 08/09/97 13:19 Page:316
  16678 44 007671   200075 236100                    LDQ     INST_WORD,,AUTO
        44 007672   200220 276100                    ORQ     MAPT_WORD,,AUTO
        44 007673   200017 276100                    ORQ     PCOM+6,,AUTO
        44 007674   000000 276000 2                  ORQ     SUPP_DATA
        44 007675   200075 756100                    STQ     INST_WORD,,AUTO

     1726    16679
     1727    16680    4        IF AORQ THEN

  16680 44 007676   200010 234100                    SZN     AORQ,,AUTO
        44 007677   007710 605000 44                 TPL     s:16683

     1728    16681    4          INST_WORD.LOW.CODE.REG = INST_WORD.LOW.CODE.REG + 1;

  16681 44 007700   200075 236100                    LDQ     INST_WORD,,AUTO
        44 007701   000011 772000                    QRL     9
        44 007702   000007 376007                    ANQ     7,DL
        44 007703   000001 036007                    ADLQ    1,DL
        44 007704   000011 736000                    QLS     9
        44 007705   200075 676100                    ERQ     INST_WORD,,AUTO
        44 007706   007000 376007                    ANQ     3584,DL
        44 007707   200075 656100                    ERSQ    INST_WORD,,AUTO

     1729    16682
     1730    16683    4        IF DEFER THEN

  16683 44 007710   200123 234100                    SZN     DEFER,,AUTO
        44 007711   007732 605000 44                 TPL     s:16693

     1731    16684    5          DO;

     1732    16685    5            MOD_KEY.B.BUFFER = TRUE;

  16685 44 007712   000004 236007                    LDQ     4,DL
        44 007713   000000 256000 3                  ORSQ    MOD_KEY

     1733    16686    5            DEFER_BUFFER.MW(DEFER_BUFFER_IDX) = INST_WORD;
PL6.E3A0      #001=Z8HI$BURST File=Z8HI.:Z8A6TSI                                 SAT 08/09/97 13:19 Page:317

  16686 44 007714   200122 236100                    LDQ     DEFER_BUFFER_IDX,,AUTO
        44 007715   000005 402007                    MPY     5,DL
        44 007716   000000 620006                    EAX0    0,QL
        44 007717   200075 236100                    LDQ     INST_WORD,,AUTO
        44 007720   200101 756110                    STQ     DEFER_BUFFER+3,X0,AUTO

     1734    16687    5            DEFER_BUFFER.KEY(DEFER_BUFFER_IDX) = MOD_KEY.KEY;

  16687 44 007721   000000 236000 3                  LDQ     MOD_KEY
        44 007722   000011 736000                    QLS     9
        44 007723   200076 676110                    ERQ     DEFER_BUFFER,X0,AUTO
        44 007724   777000 376007                    ANQ     -512,DL
        44 007725   200076 656110                    ERSQ    DEFER_BUFFER,X0,AUTO

     1735    16688    5            DEFER_BUFFER.ST$(DEFER_BUFFER_IDX) = ST$$;

  16688 44 007726   200233 236100                    LDQ     ST$$,,AUTO
        44 007727   200100 756110                    STQ     DEFER_BUFFER+2,X0,AUTO

     1736    16689    5            DEFER_BUFFER_IDX = DEFER_BUFFER_IDX + 1;

  16689 44 007730   200122 054100                    AOS     DEFER_BUFFER_IDX,,AUTO

     1737    16690    5          END;

  16690 44 007731   010020 710000 44                 TRA     s:16749

     1738    16691    4        ELSE
     1739    16692    5          DO;

     1740    16693    5            IF MOD_KEY.KEY = 0 AND

  16693 44 007732   000000 235000 3                  LDA     MOD_KEY
        44 007733   007744 601000 44                 TNZ     s:16719
        44 007734   200075 236100                    LDQ     INST_WORD,,AUTO
        44 007735   000017 376007                    ANQ     15,DL
PL6.E3A0      #001=Z8HI$BURST File=Z8HI.:Z8A6TSI                                 SAT 08/09/97 13:19 Page:318
        44 007736   000003 116007                    CMPQ    3,DL
        44 007737   007742 600000 44                 TZE     s:16696
        44 007740   000007 116007                    CMPQ    7,DL
        44 007741   007744 601000 44                 TNZ     s:16719

     1741    16694    5              ((INST_WORD.LOW.MF.TAG = %DU) OR
     1742    16695    5               (INST_WORD.LOW.MF.TAG = %DL)) THEN
     1743    16696    5              ST$$ = ADDR(NIL);  /* For correct list out */

  16696 44 007742   000007 236000 45                 LDQ     7
        44 007743   200233 756100                    STQ     ST$$,,AUTO

     1744    16697
     1745    16698                 %NEW_WORD( @OU_WORD = INST_WORD ,
     1746    16699                            @ST$     = ST$$ ,
     1747    16700                            @KEY     = MOD_KEY.KEY );

  16719 44 007744   000002 236000 34                 LDQ     OBJ_+2
        44 007745   000004 036007                    ADLQ    4,DL
        44 007746   000003 116000 34                 CMPQ    OBJ_+3
        44 007747   007761 604000 44                 TMI     s:16725

  16721 44 007750   000000 234000 28                 SZN     PAGING_OBJ
        44 007751   007756 605000 44                 TPL     s:16723

  16722 44 007752   000020 630400 45                 EPPR0   16
        44 007753   000006 631400 45                 EPPR1   6
        44 007754   000000 701000 xent               TSX1    Z9HF$WRITE_OBJ_PAGE
        44 007755   000000 011000                    NOP     0

  16723 44 007756   000002 631400 45                 EPPR1   2
        44 007757   000000 701000 xent               TSX1    Z9HF$GET_OBJ_PAGE
        44 007760   000000 011000                    NOP     0

  16725 44 007761   000002 236000 34                 LDQ     OBJ_+2
        44 007762   000022 736000                    QLS     18
        44 007763   000001 036000 34                 ADLQ    OBJ_+1
PL6.E3A0      #001=Z8HI$BURST File=Z8HI.:Z8A6TSI                                 SAT 08/09/97 13:19 Page:319
        44 007764   000000 756000 27                 STQ     OBJ$

  16726 44 007765   000004 236007                    LDQ     4,DL
        44 007766   000002 056000 34                 ASQ     OBJ_+2

  16727 44 007767   001012 220003                    LDX0    522,DU
        44 007770   000000 470400 27                 LDP0    OBJ$
        44 007771   000000 740100                    STX0    0,,PR0

  16730 44 007772   200233 236100                    LDQ     ST$$,,AUTO
        44 007773   000000 470400 27                 LDP0    OBJ$
        44 007774   000002 756100                    STQ     2,,PR0

  16731 44 007775   000000 471400 4                  LDP1    CURRENT_BLOCK$
        44 007776   100002 236100                    LDQ     2,,PR1
        44 007777   000022 772000                    QRL     18
        44 010000   000001 756100                    STQ     1,,PR0

  16732 44 010001   000000 236000 3                  LDQ     MOD_KEY
        44 010002   000011 736000                    QLS     9
        44 010003   000000 552110                    STBQ    0,'10'O,PR0

  16734 44 010004   200075 236100                    LDQ     INST_WORD,,AUTO
        44 010005   000000 470400 27                 LDP0    OBJ$
        44 010006   000003 756100                    STQ     3,,PR0

  16741 44 010007   000000 471400 4                  LDP1    CURRENT_BLOCK$
        44 010010   100002 221100                    LDX1    2,,PR1
        44 010011   000001 622011                    EAX2    1,X1
        44 010012   100002 742100                    STX2    2,,PR1

  16742 44 010013   010020 601000 44                 TNZ     s:16749

  16743 44 010014   000022 630400 45                 EPPR0   18
        44 010015   000006 631400 45                 EPPR1   6
        44 010016   000000 701000 xent               TSX1    Z8AE$ERROR
        44 010017   000000 011000                    NOP     0
PL6.E3A0      #001=Z8HI$BURST File=Z8HI.:Z8A6TSI                                 SAT 08/09/97 13:19 Page:320

     1748    16747    5          END;

     1749    16748
     1750    16749    4        IF MAPT_VALID_COUNT = 0 THEN

  16749 44 010020   200217 235100                    LDA     MAPT_VALID_COUNT,,AUTO
        44 010021   010025 601000 44                 TNZ     s:16755

     1751    16750    5          DO;

     1752    16751    5            AORQ = FALSE;

  16751 44 010022   200010 450100                    STZ     AORQ,,AUTO

     1753    16752    5            MAPT_WORD = '0'O;

  16752 44 010023   200220 450100                    STZ     MAPT_WORD,,AUTO

     1754    16753    5          END;

  16753 44 010024   010027 710000 44                 TRA     s:16757

     1755    16754    4        ELSE
     1756    16755    4          MAPT_VALID_COUNT = MAPT_VALID_COUNT - 1;

  16755 44 010025   000001 336007                    LCQ     1,DL
        44 010026   200217 056100                    ASQ     MAPT_VALID_COUNT,,AUTO

     1757    16756
     1758    16757    4        MOD_KEY.KEY = 0;

  16757 44 010027   000000 450000 3                  STZ     MOD_KEY

     1759    16758    4        SUPP_DATA.WRD = 0;

  16758 44 010030   000000 450000 2                  STZ     SUPP_DATA
PL6.E3A0      #001=Z8HI$BURST File=Z8HI.:Z8A6TSI                                 SAT 08/09/97 13:19 Page:321

     1760    16759    4        PCOM.GABS = 0;

  16759 44 010031   200017 450100                    STZ     PCOM+6,,AUTO

  16759 44 010032   016024 710000 44    END_GENI     TRA     s:19025

     1761    16760
     1762    16761
     1763    16762    4   END_GENI:;
     1764    16763
     1765    16764        %EJECT;
PL6.E3A0      #001=Z8HI$BURST File=Z8HI.:Z8A6TSI                                 SAT 08/09/97 13:19 Page:322
     1766    16765    4   CASE(%INCCNT);

     1767    16766
     1768    16767             %LOP_ROP_TO;

  16768 44 010033   200150 721100                    LXL1    PC,,AUTO
        44 010034   000004 101003                    CMPX1   4,DU
        44 010035   010037 602011 44                 TNC     s:16768+4,X1
        44 010036   010066 710000 44                 TRA     s:16778
        44 010037   010043 710000 44                 TRA     s:16770
        44 010040   010047 710000 44                 TRA     s:16772
        44 010041   010054 710000 44                 TRA     s:16774
        44 010042   010061 710000 44                 TRA     s:16776

  16770 44 010043   200003 471500                    LDP1    @PILL,,AUTO
        44 010044   100000 236100                    LDQ     0,,PR1
        44 010045   200153 756100                    STQ     OPND,,AUTO
        44 010046   010070 710000 44                 TRA     s:16781

  16772 44 010047   200003 471500                    LDP1    @PILL,,AUTO
        44 010050   100000 473500                    LDP3    0,,PR1
        44 010051   300001 236100                    LDQ     1,,PR3
        44 010052   200153 756100                    STQ     OPND,,AUTO
        44 010053   010070 710000 44                 TRA     s:16781

  16774 44 010054   200003 471500                    LDP1    @PILL,,AUTO
        44 010055   100000 473500                    LDP3    0,,PR1
        44 010056   300002 236100                    LDQ     2,,PR3
        44 010057   200153 756100                    STQ     OPND,,AUTO
        44 010060   010070 710000 44                 TRA     s:16781

  16776 44 010061   200003 471500                    LDP1    @PILL,,AUTO
        44 010062   100000 473500                    LDP3    0,,PR1
        44 010063   300003 236100                    LDQ     3,,PR3
        44 010064   200153 756100                    STQ     OPND,,AUTO
        44 010065   010070 710000 44                 TRA     s:16781

PL6.E3A0      #001=Z8HI$BURST File=Z8HI.:Z8A6TSI                                 SAT 08/09/97 13:19 Page:323
  16778 44 010066   200043 236111                    LDQ     PCOM+26,X1,AUTO
        44 010067   200153 756100                    STQ     OPND,,AUTO

     1769    16781    4        CALL Z8HU$INCCNT(OPND,BINBIT(PC.OPND2,36));

  16781 44 010070   200151 236100                    LDQ     PC+1,,AUTO
        44 010071   000022 772000                    QRL     18
        44 010072   200260 756100                    STQ     @TAG+2,,AUTO
        44 010073   200260 631500                    EPPR1   @TAG+2,,AUTO
        44 010074   200263 451500                    STP1    @TAG+5,,AUTO
        44 010075   200153 633500                    EPPR3   OPND,,AUTO
        44 010076   200262 453500                    STP3    @TAG+4,,AUTO
        44 010077   200262 630500                    EPPR0   @TAG+4,,AUTO
        44 010100   000015 631400 45                 EPPR1   13
        44 010101   000000 701000 xent               TSX1    Z8HU$INCCNT
        44 010102   000000 011000                    NOP     0
        44 010103   016024 710000 44                 TRA     s:19025

     1770    16782
     1771    16783        %EJECT;
PL6.E3A0      #001=Z8HI$BURST File=Z8HI.:Z8A6TSI                                 SAT 08/09/97 13:19 Page:324
     1772    16784    4   CASE(%LIB);

     1773    16785    4        IF PC.OPND3 = %PCOM THEN

  16785 44 010104   200151 721100                    LXL1    PC+1,,AUTO
        44 010105   000001 101003                    CMPX1   1,DU
        44 010106   010113 601000 44                 TNZ     s:16788

     1774    16786    4          LIB_SELECTION = PCOM_.ABS(PC.OPND1);

  16786 44 010107   200150 722100                    LXL2    PC,,AUTO
        44 010110   200011 723112                    LXL3    PCOM,X2,AUTO
        44 010111   200173 743100                    STX3    LIB_SELECTION,,AUTO
        44 010112   010115 710000 44                 TRA     s:16790

     1775    16787    4        ELSE
     1776    16788    4          LIB_SELECTION = PC.OPND1;

  16788 44 010113   200150 722100                    LXL2    PC,,AUTO
        44 010114   200173 742100                    STX2    LIB_SELECTION,,AUTO

     1777    16789
     1778    16790    4        IF LIBRARY(LIB_SELECTION) = ADDR(NIL) THEN

  16790 44 010115   200173 223100                    LDX3    LIB_SELECTION,,AUTO
        44 010116   000005 236013 3                  LDQ     LIBRARY,X3
        44 010117   000007 116000 45                 CMPQ    7
        44 010120   012414 601000 44                 TNZ     s:17920

     1779    16791    5          DO;

     1780    16792    6            DO SELECT(LIB_SELECTION);

  16792 44 010121   200173 236100                    LDQ     LIB_SELECTION,,AUTO
        44 010122   000022 772000                    QRL     18
        44 010123   000075 116007                    CMPQ    61,DL
        44 010124   010514 602000 44                 TNC     s:16792+251
PL6.E3A0      #001=Z8HI$BURST File=Z8HI.:Z8A6TSI                                 SAT 08/09/97 13:19 Page:325
        44 010125   011506 600000 44                 TZE     s:17173
        44 010126   000157 116007                    CMPQ    111,DL
        44 010127   010301 602000 44                 TNC     s:16792+112
        44 010130   011726 600000 44                 TZE     s:17364
        44 010131   000212 116007                    CMPQ    138,DL
        44 010132   010174 602000 44                 TNC     s:16792+43
        44 010133   011404 600000 44                 TZE     s:17085
        44 010134   001662 116007                    CMPQ    946,DL
        44 010135   010154 602000 44                 TNC     s:16792+27
        44 010136   011420 600000 44                 TZE     s:17101
        44 010137   002462 116007                    CMPQ    1330,DL
        44 010140   010151 602000 44                 TNC     s:16792+24
        44 010141   011472 600000 44                 TZE     s:17157
        44 010142   002723 116007                    CMPQ    1491,DL
        44 010143   010146 602000 44                 TNC     s:16792+21
        44 010144   011426 600000 44                 TZE     s:17109
        44 010145   012176 710000 44                 TRA     s:17586
        44 010146   002662 103003                    CMPX3   1458,DU
        44 010147   012176 601000 44                 TNZ     s:17586
        44 010150   011500 710000 44                 TRA     s:17165
        44 010151   002262 103003                    CMPX3   1202,DU
        44 010152   012176 601000 44                 TNZ     s:17586
        44 010153   011464 710000 44                 TRA     s:17149
        44 010154   000662 116007                    CMPQ    434,DL
        44 010155   010165 602000 44                 TNC     s:16792+36
        44 010156   011442 600000 44                 TZE     s:17125
        44 010157   001062 116007                    CMPQ    562,DL
        44 010160   012176 602000 44                 TNC     s:17586
        44 010161   011450 600000 44                 TZE     s:17133
        44 010162   001262 103003                    CMPX3   690,DU
        44 010163   012176 601000 44                 TNZ     s:17586
        44 010164   011456 710000 44                 TRA     s:17141
        44 010165   000462 116007                    CMPQ    306,DL
        44 010166   010171 602000 44                 TNC     s:16792+40
        44 010167   011434 600000 44                 TZE     s:17117
        44 010170   012176 710000 44                 TRA     s:17586
        44 010171   000262 103003                    CMPX3   178,DU
PL6.E3A0      #001=Z8HI$BURST File=Z8HI.:Z8A6TSI                                 SAT 08/09/97 13:19 Page:326
        44 010172   012176 601000 44                 TNZ     s:17586
        44 010173   011412 710000 44                 TRA     s:17093
        44 010174   000173 116007                    CMPQ    123,DL
        44 010175   010224 602000 44                 TNC     s:16792+67
        44 010176   012006 600000 44                 TZE     s:17428
        44 010177   000176 116007                    CMPQ    126,DL
        44 010200   010212 602000 44                 TNC     s:16792+57
        44 010201   011720 600000 44                 TZE     s:17356
        44 010202   000200 116007                    CMPQ    128,DL
        44 010203   010206 602000 44                 TNC     s:16792+53
        44 010204   011376 600000 44                 TZE     s:17077
        44 010205   012176 710000 44                 TRA     s:17586
        44 010206   200173 220100                    LDX0    LIB_SELECTION,,AUTO
        44 010207   000177 100003                    CMPX0   127,DU
        44 010210   012176 601000 44                 TNZ     s:17586
        44 010211   011734 710000 44                 TRA     s:17372
        44 010212   200173 236100                    LDQ     LIB_SELECTION,,AUTO
        44 010213   000022 772000                    QRL     18
        44 010214   000175 116007                    CMPQ    125,DL
        44 010215   010220 602000 44                 TNC     s:16792+63
        44 010216   011750 600000 44                 TZE     s:17388
        44 010217   012176 710000 44                 TRA     s:17586
        44 010220   000000 620006                    EAX0    0,QL
        44 010221   000174 100003                    CMPX0   124,DU
        44 010222   012176 601000 44                 TNZ     s:17586
        44 010223   012014 710000 44                 TRA     s:17436
        44 010224   200173 236100                    LDQ     LIB_SELECTION,,AUTO
        44 010225   000022 772000                    QRL     18
        44 010226   000165 116007                    CMPQ    117,DL
        44 010227   010253 602000 44                 TNC     s:16792+90
        44 010230   012124 600000 44                 TZE     s:17532
        44 010231   000167 116007                    CMPQ    119,DL
        44 010232   010247 602000 44                 TNC     s:16792+86
        44 010233   012146 600000 44                 TZE     s:17556
        44 010234   000171 116007                    CMPQ    121,DL
        44 010235   010243 602000 44                 TNC     s:16792+82
        44 010236   011712 600000 44                 TZE     s:17348
PL6.E3A0      #001=Z8HI$BURST File=Z8HI.:Z8A6TSI                                 SAT 08/09/97 13:19 Page:327
        44 010237   000000 620006                    EAX0    0,QL
        44 010240   000172 100003                    CMPX0   122,DU
        44 010241   012176 601000 44                 TNZ     s:17586
        44 010242   012022 710000 44                 TRA     s:17444
        44 010243   200173 220100                    LDX0    LIB_SELECTION,,AUTO
        44 010244   000170 100003                    CMPX0   120,DU
        44 010245   012176 601000 44                 TNZ     s:17586
        44 010246   012154 710000 44                 TRA     s:17564
        44 010247   200173 220100                    LDX0    LIB_SELECTION,,AUTO
        44 010250   000166 100003                    CMPX0   118,DU
        44 010251   012176 601000 44                 TNZ     s:17586
        44 010252   012162 710000 44                 TRA     s:17572
        44 010253   200173 236100                    LDQ     LIB_SELECTION,,AUTO
        44 010254   000022 772000                    QRL     18
        44 010255   000162 116007                    CMPQ    114,DL
        44 010256   010267 602000 44                 TNC     s:16792+102
        44 010257   012066 600000 44                 TZE     s:17492
        44 010260   000163 116007                    CMPQ    115,DL
        44 010261   012176 602000 44                 TNC     s:17586
        44 010262   012132 600000 44                 TZE     s:17540
        44 010263   000000 620006                    EAX0    0,QL
        44 010264   000164 100003                    CMPX0   116,DU
        44 010265   012176 601000 44                 TNZ     s:17586
        44 010266   012170 710000 44                 TRA     s:17580
        44 010267   200173 236100                    LDQ     LIB_SELECTION,,AUTO
        44 010270   000022 772000                    QRL     18
        44 010271   000161 116007                    CMPQ    113,DL
        44 010272   010275 602000 44                 TNC     s:16792+108
        44 010273   012030 600000 44                 TZE     s:17452
        44 010274   012176 710000 44                 TRA     s:17586
        44 010275   000000 620006                    EAX0    0,QL
        44 010276   000160 100003                    CMPX0   112,DU
        44 010277   012176 601000 44                 TNZ     s:17586
        44 010300   012036 710000 44                 TRA     s:17460
        44 010301   200173 236100                    LDQ     LIB_SELECTION,,AUTO
        44 010302   000022 772000                    QRL     18
        44 010303   000116 116007                    CMPQ    78,DL
PL6.E3A0      #001=Z8HI$BURST File=Z8HI.:Z8A6TSI                                 SAT 08/09/97 13:19 Page:328
        44 010304   010412 602000 44                 TNC     s:16792+185
        44 010305   011514 600000 44                 TZE     s:17181
        44 010306   000145 116007                    CMPQ    101,DL
        44 010307   010355 602000 44                 TNC     s:16792+156
        44 010310   011764 600000 44                 TZE     s:17404
        44 010311   000153 116007                    CMPQ    107,DL
        44 010312   010327 602000 44                 TNC     s:16792+134
        44 010313   012074 600000 44                 TZE     s:17500
        44 010314   000155 116007                    CMPQ    109,DL
        44 010315   010323 602000 44                 TNC     s:16792+130
        44 010316   012044 600000 44                 TZE     s:17468
        44 010317   000000 620006                    EAX0    0,QL
        44 010320   000156 100003                    CMPX0   110,DU
        44 010321   012176 601000 44                 TNZ     s:17586
        44 010322   012140 710000 44                 TRA     s:17548
        44 010323   200173 220100                    LDX0    LIB_SELECTION,,AUTO
        44 010324   000154 100003                    CMPX0   108,DU
        44 010325   012176 601000 44                 TNZ     s:17586
        44 010326   012052 710000 44                 TRA     s:17476
        44 010327   200173 236100                    LDQ     LIB_SELECTION,,AUTO
        44 010330   000022 772000                    QRL     18
        44 010331   000151 116007                    CMPQ    105,DL
        44 010332   010340 602000 44                 TNC     s:16792+143
        44 010333   012060 600000 44                 TZE     s:17484
        44 010334   000000 620006                    EAX0    0,QL
        44 010335   000152 100003                    CMPX0   106,DU
        44 010336   012176 601000 44                 TNZ     s:17586
        44 010337   012102 710000 44                 TRA     s:17508
        44 010340   200173 236100                    LDQ     LIB_SELECTION,,AUTO
        44 010341   000022 772000                    QRL     18
        44 010342   000147 116007                    CMPQ    103,DL
        44 010343   010351 602000 44                 TNC     s:16792+152
        44 010344   012110 600000 44                 TZE     s:17516
        44 010345   000000 620006                    EAX0    0,QL
        44 010346   000150 100003                    CMPX0   104,DU
        44 010347   012176 601000 44                 TNZ     s:17586
        44 010350   012116 710000 44                 TRA     s:17524
PL6.E3A0      #001=Z8HI$BURST File=Z8HI.:Z8A6TSI                                 SAT 08/09/97 13:19 Page:329
        44 010351   200173 220100                    LDX0    LIB_SELECTION,,AUTO
        44 010352   000146 100003                    CMPX0   102,DU
        44 010353   012176 601000 44                 TNZ     s:17586
        44 010354   011742 710000 44                 TRA     s:17380
        44 010355   200173 236100                    LDQ     LIB_SELECTION,,AUTO
        44 010356   000022 772000                    QRL     18
        44 010357   000130 116007                    CMPQ    88,DL
        44 010360   010375 602000 44                 TNC     s:16792+172
        44 010361   011616 600000 44                 TZE     s:17269
        44 010362   000143 116007                    CMPQ    99,DL
        44 010363   010371 602000 44                 TNC     s:16792+168
        44 010364   012000 600000 44                 TZE     s:17420
        44 010365   000000 620006                    EAX0    0,QL
        44 010366   000144 100003                    CMPX0   100,DU
        44 010367   012176 601000 44                 TNZ     s:17586
        44 010370   011756 710000 44                 TRA     s:17396
        44 010371   200173 220100                    LDX0    LIB_SELECTION,,AUTO
        44 010372   000142 100003                    CMPX0   98,DU
        44 010373   012176 601000 44                 TNZ     s:17586
        44 010374   011772 710000 44                 TRA     s:17412
        44 010375   200173 236100                    LDQ     LIB_SELECTION,,AUTO
        44 010376   000022 772000                    QRL     18
        44 010377   000126 116007                    CMPQ    86,DL
        44 010400   010406 602000 44                 TNC     s:16792+181
        44 010401   011632 600000 44                 TZE     s:17285
        44 010402   000000 620006                    EAX0    0,QL
        44 010403   000127 100003                    CMPX0   87,DU
        44 010404   012176 601000 44                 TNZ     s:17586
        44 010405   011624 710000 44                 TRA     s:17277
        44 010406   200173 220100                    LDX0    LIB_SELECTION,,AUTO
        44 010407   000122 100003                    CMPX0   82,DU
        44 010410   012176 601000 44                 TNZ     s:17586
        44 010411   011640 710000 44                 TRA     s:17293
        44 010412   200173 236100                    LDQ     LIB_SELECTION,,AUTO
        44 010413   000022 772000                    QRL     18
        44 010414   000107 116007                    CMPQ    71,DL
        44 010415   010446 602000 44                 TNC     s:16792+213
PL6.E3A0      #001=Z8HI$BURST File=Z8HI.:Z8A6TSI                                 SAT 08/09/97 13:19 Page:330
        44 010416   011552 600000 44                 TZE     s:17221
        44 010417   000112 116007                    CMPQ    74,DL
        44 010420   010435 602000 44                 TNC     s:16792+204
        44 010421   011530 600000 44                 TZE     s:17197
        44 010422   000114 116007                    CMPQ    76,DL
        44 010423   010431 602000 44                 TNC     s:16792+200
        44 010424   011514 600000 44                 TZE     s:17181
        44 010425   000000 620006                    EAX0    0,QL
        44 010426   000115 100003                    CMPX0   77,DU
        44 010427   012176 601000 44                 TNZ     s:17586
        44 010430   011514 710000 44                 TRA     s:17181
        44 010431   200173 220100                    LDX0    LIB_SELECTION,,AUTO
        44 010432   000113 100003                    CMPX0   75,DU
        44 010433   012176 601000 44                 TNZ     s:17586
        44 010434   011530 710000 44                 TRA     s:17197
        44 010435   200173 236100                    LDQ     LIB_SELECTION,,AUTO
        44 010436   000022 772000                    QRL     18
        44 010437   000110 116007                    CMPQ    72,DL
        44 010440   012176 602000 44                 TNC     s:17586
        44 010441   011544 600000 44                 TZE     s:17213
        44 010442   000000 620006                    EAX0    0,QL
        44 010443   000111 100003                    CMPX0   73,DU
        44 010444   012176 601000 44                 TNZ     s:17586
        44 010445   011544 710000 44                 TRA     s:17213
        44 010446   200173 236100                    LDQ     LIB_SELECTION,,AUTO
        44 010447   000022 772000                    QRL     18
        44 010450   000102 116007                    CMPQ    66,DL
        44 010451   010471 602000 44                 TNC     s:16792+232
        44 010452   011560 600000 44                 TZE     s:17229
        44 010453   000104 116007                    CMPQ    68,DL
        44 010454   010465 602000 44                 TNC     s:16792+228
        44 010455   011560 600000 44                 TZE     s:17229
        44 010456   000105 116007                    CMPQ    69,DL
        44 010457   012176 602000 44                 TNC     s:17586
        44 010460   011566 600000 44                 TZE     s:17237
        44 010461   000000 620006                    EAX0    0,QL
        44 010462   000106 100003                    CMPX0   70,DU
PL6.E3A0      #001=Z8HI$BURST File=Z8HI.:Z8A6TSI                                 SAT 08/09/97 13:19 Page:331
        44 010463   012176 601000 44                 TNZ     s:17586
        44 010464   011566 710000 44                 TRA     s:17237
        44 010465   200173 220100                    LDX0    LIB_SELECTION,,AUTO
        44 010466   000103 100003                    CMPX0   67,DU
        44 010467   012176 601000 44                 TNZ     s:17586
        44 010470   011560 710000 44                 TRA     s:17229
        44 010471   200173 236100                    LDQ     LIB_SELECTION,,AUTO
        44 010472   000022 772000                    QRL     18
        44 010473   000100 116007                    CMPQ    64,DL
        44 010474   010502 602000 44                 TNC     s:16792+241
        44 010475   011536 600000 44                 TZE     s:17205
        44 010476   000000 620006                    EAX0    0,QL
        44 010477   000101 100003                    CMPX0   65,DU
        44 010500   012176 601000 44                 TNZ     s:17586
        44 010501   011536 710000 44                 TRA     s:17205
        44 010502   200173 236100                    LDQ     LIB_SELECTION,,AUTO
        44 010503   000022 772000                    QRL     18
        44 010504   000077 116007                    CMPQ    63,DL
        44 010505   010510 602000 44                 TNC     s:16792+247
        44 010506   011536 600000 44                 TZE     s:17205
        44 010507   012176 710000 44                 TRA     s:17586
        44 010510   000000 620006                    EAX0    0,QL
        44 010511   000076 100003                    CMPX0   62,DU
        44 010512   012176 601000 44                 TNZ     s:17586
        44 010513   011506 710000 44                 TRA     s:17173
        44 010514   200173 236100                    LDQ     LIB_SELECTION,,AUTO
        44 010515   000022 772000                    QRL     18
        44 010516   000036 116007                    CMPQ    30,DL
        44 010517   010664 602000 44                 TNC     s:16792+355
        44 010520   011354 600000 44                 TZE     s:17053
        44 010521   000053 116007                    CMPQ    43,DL
        44 010522   010604 602000 44                 TNC     s:16792+307
        44 010523   011310 600000 44                 TZE     s:17005
        44 010524   000062 116007                    CMPQ    50,DL
        44 010525   010561 602000 44                 TNC     s:16792+288
        44 010526   011126 600000 44                 TZE     s:16853
        44 010527   000072 116007                    CMPQ    58,DL
PL6.E3A0      #001=Z8HI$BURST File=Z8HI.:Z8A6TSI                                 SAT 08/09/97 13:19 Page:332
        44 010530   010541 602000 44                 TNC     s:16792+272
        44 010531   011522 600000 44                 TZE     s:17189
        44 010532   000073 116007                    CMPQ    59,DL
        44 010533   012176 602000 44                 TNC     s:17586
        44 010534   011522 600000 44                 TZE     s:17189
        44 010535   000000 620006                    EAX0    0,QL
        44 010536   000074 100003                    CMPX0   60,DU
        44 010537   012176 601000 44                 TNZ     s:17586
        44 010540   011506 710000 44                 TRA     s:17173
        44 010541   200173 236100                    LDQ     LIB_SELECTION,,AUTO
        44 010542   000022 772000                    QRL     18
        44 010543   000064 116007                    CMPQ    52,DL
        44 010544   010555 602000 44                 TNC     s:16792+284
        44 010545   011654 600000 44                 TZE     s:17309
        44 010546   000065 116007                    CMPQ    53,DL
        44 010547   012176 602000 44                 TNC     s:17586
        44 010550   011676 600000 44                 TZE     s:17333
        44 010551   000000 620006                    EAX0    0,QL
        44 010552   000066 100003                    CMPX0   54,DU
        44 010553   012176 601000 44                 TNZ     s:17586
        44 010554   011704 710000 44                 TRA     s:17341
        44 010555   200173 220100                    LDX0    LIB_SELECTION,,AUTO
        44 010556   000063 100003                    CMPX0   51,DU
        44 010557   012176 601000 44                 TNZ     s:17586
        44 010560   011574 710000 44                 TRA     s:17245
        44 010561   200173 236100                    LDQ     LIB_SELECTION,,AUTO
        44 010562   000022 772000                    QRL     18
        44 010563   000060 116007                    CMPQ    48,DL
        44 010564   010572 602000 44                 TNC     s:16792+297
        44 010565   011610 600000 44                 TZE     s:17261
        44 010566   000000 620006                    EAX0    0,QL
        44 010567   000061 100003                    CMPX0   49,DU
        44 010570   012176 601000 44                 TNZ     s:17586
        44 010571   011646 710000 44                 TRA     s:17301
        44 010572   200173 236100                    LDQ     LIB_SELECTION,,AUTO
        44 010573   000022 772000                    QRL     18
        44 010574   000057 116007                    CMPQ    47,DL
PL6.E3A0      #001=Z8HI$BURST File=Z8HI.:Z8A6TSI                                 SAT 08/09/97 13:19 Page:333
        44 010575   010600 602000 44                 TNC     s:16792+303
        44 010576   011602 600000 44                 TZE     s:17253
        44 010577   012176 710000 44                 TRA     s:17586
        44 010600   200173 220100                    LDX0    LIB_SELECTION,,AUTO
        44 010601   000054 100003                    CMPX0   44,DU
        44 010602   012176 601000 44                 TNZ     s:17586
        44 010603   011316 710000 44                 TRA     s:17013
        44 010604   200173 236100                    LDQ     LIB_SELECTION,,AUTO
        44 010605   000022 772000                    QRL     18
        44 010606   000046 116007                    CMPQ    38,DL
        44 010607   010627 602000 44                 TNC     s:16792+326
        44 010610   011544 600000 44                 TZE     s:17213
        44 010611   000050 116007                    CMPQ    40,DL
        44 010612   010623 602000 44                 TNC     s:16792+322
        44 010613   011560 600000 44                 TZE     s:17229
        44 010614   000051 116007                    CMPQ    41,DL
        44 010615   012176 602000 44                 TNC     s:17586
        44 010616   011566 600000 44                 TZE     s:17237
        44 010617   000000 620006                    EAX0    0,QL
        44 010620   000052 100003                    CMPX0   42,DU
        44 010621   012176 601000 44                 TNZ     s:17586
        44 010622   011662 710000 44                 TRA     s:17317
        44 010623   200173 220100                    LDX0    LIB_SELECTION,,AUTO
        44 010624   000047 100003                    CMPX0   39,DU
        44 010625   012176 601000 44                 TNZ     s:17586
        44 010626   011552 710000 44                 TRA     s:17221
        44 010627   200173 236100                    LDQ     LIB_SELECTION,,AUTO
        44 010630   000022 772000                    QRL     18
        44 010631   000042 116007                    CMPQ    34,DL
        44 010632   010647 602000 44                 TNC     s:16792+342
        44 010633   011522 600000 44                 TZE     s:17189
        44 010634   000044 116007                    CMPQ    36,DL
        44 010635   010643 602000 44                 TNC     s:16792+338
        44 010636   011530 600000 44                 TZE     s:17197
        44 010637   000000 620006                    EAX0    0,QL
        44 010640   000045 100003                    CMPX0   37,DU
        44 010641   012176 601000 44                 TNZ     s:17586
PL6.E3A0      #001=Z8HI$BURST File=Z8HI.:Z8A6TSI                                 SAT 08/09/97 13:19 Page:334
        44 010642   011536 710000 44                 TRA     s:17205
        44 010643   200173 220100                    LDX0    LIB_SELECTION,,AUTO
        44 010644   000043 100003                    CMPX0   35,DU
        44 010645   012176 601000 44                 TNZ     s:17586
        44 010646   011506 710000 44                 TRA     s:17173
        44 010647   200173 236100                    LDQ     LIB_SELECTION,,AUTO
        44 010650   000022 772000                    QRL     18
        44 010651   000040 116007                    CMPQ    32,DL
        44 010652   010660 602000 44                 TNC     s:16792+351
        44 010653   011370 600000 44                 TZE     s:17069
        44 010654   000000 620006                    EAX0    0,QL
        44 010655   000041 100003                    CMPX0   33,DU
        44 010656   012176 601000 44                 TNZ     s:17586
        44 010657   011514 710000 44                 TRA     s:17181
        44 010660   200173 220100                    LDX0    LIB_SELECTION,,AUTO
        44 010661   000037 100003                    CMPX0   31,DU
        44 010662   012176 601000 44                 TNZ     s:17586
        44 010663   011362 710000 44                 TRA     s:17061
        44 010664   200173 236100                    LDQ     LIB_SELECTION,,AUTO
        44 010665   000022 772000                    QRL     18
        44 010666   000020 116007                    CMPQ    16,DL
        44 010667   010755 602000 44                 TNC     s:16792+412
        44 010670   011214 600000 44                 TZE     s:16925
        44 010671   000030 116007                    CMPQ    24,DL
        44 010672   010720 602000 44                 TNC     s:16792+383
        44 010673   011274 600000 44                 TZE     s:16989
        44 010674   000034 116007                    CMPQ    28,DL
        44 010675   010703 602000 44                 TNC     s:16792+370
        44 010676   011340 600000 44                 TZE     s:17037
        44 010677   000000 620006                    EAX0    0,QL
        44 010700   000035 100003                    CMPX0   29,DU
        44 010701   012176 601000 44                 TNZ     s:17586
        44 010702   011346 710000 44                 TRA     s:17045
        44 010703   200173 236100                    LDQ     LIB_SELECTION,,AUTO
        44 010704   000022 772000                    QRL     18
        44 010705   000032 116007                    CMPQ    26,DL
        44 010706   010714 602000 44                 TNC     s:16792+379
PL6.E3A0      #001=Z8HI$BURST File=Z8HI.:Z8A6TSI                                 SAT 08/09/97 13:19 Page:335
        44 010707   011324 600000 44                 TZE     s:17021
        44 010710   000000 620006                    EAX0    0,QL
        44 010711   000033 100003                    CMPX0   27,DU
        44 010712   012176 601000 44                 TNZ     s:17586
        44 010713   011332 710000 44                 TRA     s:17029
        44 010714   200173 220100                    LDX0    LIB_SELECTION,,AUTO
        44 010715   000031 100003                    CMPX0   25,DU
        44 010716   012176 601000 44                 TNZ     s:17586
        44 010717   011302 710000 44                 TRA     s:16997
        44 010720   200173 236100                    LDQ     LIB_SELECTION,,AUTO
        44 010721   000022 772000                    QRL     18
        44 010722   000024 116007                    CMPQ    20,DL
        44 010723   010740 602000 44                 TNC     s:16792+399
        44 010724   011244 600000 44                 TZE     s:16957
        44 010725   000026 116007                    CMPQ    22,DL
        44 010726   010734 602000 44                 TNC     s:16792+395
        44 010727   011260 600000 44                 TZE     s:16973
        44 010730   000000 620006                    EAX0    0,QL
        44 010731   000027 100003                    CMPX0   23,DU
        44 010732   012176 601000 44                 TNZ     s:17586
        44 010733   011266 710000 44                 TRA     s:16981
        44 010734   200173 220100                    LDX0    LIB_SELECTION,,AUTO
        44 010735   000025 100003                    CMPX0   21,DU
        44 010736   012176 601000 44                 TNZ     s:17586
        44 010737   011252 710000 44                 TRA     s:16965
        44 010740   200173 236100                    LDQ     LIB_SELECTION,,AUTO
        44 010741   000022 772000                    QRL     18
        44 010742   000022 116007                    CMPQ    18,DL
        44 010743   010751 602000 44                 TNC     s:16792+408
        44 010744   011230 600000 44                 TZE     s:16941
        44 010745   000000 620006                    EAX0    0,QL
        44 010746   000023 100003                    CMPX0   19,DU
        44 010747   012176 601000 44                 TNZ     s:17586
        44 010750   011236 710000 44                 TRA     s:16949
        44 010751   200173 220100                    LDX0    LIB_SELECTION,,AUTO
        44 010752   000021 100003                    CMPX0   17,DU
        44 010753   012176 601000 44                 TNZ     s:17586
PL6.E3A0      #001=Z8HI$BURST File=Z8HI.:Z8A6TSI                                 SAT 08/09/97 13:19 Page:336
        44 010754   011222 710000 44                 TRA     s:16933
        44 010755   200173 236100                    LDQ     LIB_SELECTION,,AUTO
        44 010756   000022 772000                    QRL     18
        44 010757   000010 116007                    CMPQ    8,DL
        44 010760   011015 602000 44                 TNC     s:16792+444
        44 010761   011134 600000 44                 TZE     s:16861
        44 010762   000014 116007                    CMPQ    12,DL
        44 010763   011000 602000 44                 TNC     s:16792+431
        44 010764   011164 600000 44                 TZE     s:16893
        44 010765   000016 116007                    CMPQ    14,DL
        44 010766   010774 602000 44                 TNC     s:16792+427
        44 010767   011200 600000 44                 TZE     s:16909
        44 010770   000000 620006                    EAX0    0,QL
        44 010771   000017 100003                    CMPX0   15,DU
        44 010772   012176 601000 44                 TNZ     s:17586
        44 010773   011206 710000 44                 TRA     s:16917
        44 010774   200173 220100                    LDX0    LIB_SELECTION,,AUTO
        44 010775   000015 100003                    CMPX0   13,DU
        44 010776   012176 601000 44                 TNZ     s:17586
        44 010777   011172 710000 44                 TRA     s:16901
        44 011000   200173 236100                    LDQ     LIB_SELECTION,,AUTO
        44 011001   000022 772000                    QRL     18
        44 011002   000012 116007                    CMPQ    10,DL
        44 011003   011011 602000 44                 TNC     s:16792+440
        44 011004   011150 600000 44                 TZE     s:16877
        44 011005   000000 620006                    EAX0    0,QL
        44 011006   000013 100003                    CMPX0   11,DU
        44 011007   012176 601000 44                 TNZ     s:17586
        44 011010   011156 710000 44                 TRA     s:16885
        44 011011   200173 220100                    LDX0    LIB_SELECTION,,AUTO
        44 011012   000011 100003                    CMPX0   9,DU
        44 011013   012176 601000 44                 TNZ     s:17586
        44 011014   011142 710000 44                 TRA     s:16869
        44 011015   200173 236100                    LDQ     LIB_SELECTION,,AUTO
        44 011016   000022 772000                    QRL     18
        44 011017   000003 116007                    CMPQ    3,DL
        44 011020   011040 602000 44                 TNC     s:16792+463
PL6.E3A0      #001=Z8HI$BURST File=Z8HI.:Z8A6TSI                                 SAT 08/09/97 13:19 Page:337
        44 011021   011076 600000 44                 TZE     s:16821
        44 011022   000005 116007                    CMPQ    5,DL
        44 011023   011034 602000 44                 TNC     s:16792+459
        44 011024   011112 600000 44                 TZE     s:16837
        44 011025   000006 116007                    CMPQ    6,DL
        44 011026   012176 602000 44                 TNC     s:17586
        44 011027   011120 600000 44                 TZE     s:16845
        44 011030   000000 620006                    EAX0    0,QL
        44 011031   000007 100003                    CMPX0   7,DU
        44 011032   012176 601000 44                 TNZ     s:17586
        44 011033   011670 710000 44                 TRA     s:17325
        44 011034   200173 220100                    LDX0    LIB_SELECTION,,AUTO
        44 011035   000004 100003                    CMPX0   4,DU
        44 011036   012176 601000 44                 TNZ     s:17586
        44 011037   011104 710000 44                 TRA     s:16829
        44 011040   200173 236100                    LDQ     LIB_SELECTION,,AUTO
        44 011041   000022 772000                    QRL     18
        44 011042   000001 116007                    CMPQ    1,DL
        44 011043   011051 602000 44                 TNC     s:16792+472
        44 011044   011062 600000 44                 TZE     s:16805
        44 011045   000000 620006                    EAX0    0,QL
        44 011046   000002 100003                    CMPX0   2,DU
        44 011047   012176 601000 44                 TNZ     s:17586
        44 011050   011070 710000 44                 TRA     s:16813
        44 011051   200173 220100                    LDX0    LIB_SELECTION,,AUTO
        44 011052   011054 600000 44                 TZE     s:16796
        44 011053   012176 710000 44                 TRA     s:17586

     1781    16793    6              SELECT(%OP_MVEAL);

     1782    16794                     %LIBRARY_NAME ( @NAME = "'Long-Alpha-Numeric'");

  16796 44 011054   040100 100400                    MLR     fill='040'O
        44 011055   000170 000022 42                 ADSC9   DSTATE_TYP+30            cn=0,n=18
        44 011056   200127 000040                    ADSC9   NAME+1,,AUTO             cn=0,n=32

  16797 44 011057   000022 235007                    LDA     18,DL
PL6.E3A0      #001=Z8HI$BURST File=Z8HI.:Z8A6TSI                                 SAT 08/09/97 13:19 Page:338
        44 011060   200126 755100                    STA     NAME,,AUTO

  16798 44 011061   012202 710000 44                 TRA     s:17594

     1783    16800
     1784    16801
     1785    16802    6              SELECT(%OP_EXDD);

     1786    16803                     %LIBRARY_NAME ( @NAME = "'Decimal**Decimal'" );

  16805 44 011062   040100 100400                    MLR     fill='040'O
        44 011063   000175 000020 42                 ADSC9   DSTATE_TYP+35            cn=0,n=16
        44 011064   200127 000040                    ADSC9   NAME+1,,AUTO             cn=0,n=32

  16806 44 011065   000020 235007                    LDA     16,DL
        44 011066   200126 755100                    STA     NAME,,AUTO

  16807 44 011067   012202 710000 44                 TRA     s:17594

     1787    16809
     1788    16810    6              SELECT(%OP_EXRR);

     1789    16811                     %LIBRARY_NAME ( @NAME = "'Real**Real'" );

  16813 44 011070   040100 100400                    MLR     fill='040'O
        44 011071   000201 000012 42                 ADSC9   DSTATE_TYP+39            cn=0,n=10
        44 011072   200127 000040                    ADSC9   NAME+1,,AUTO             cn=0,n=32

  16814 44 011073   000012 235007                    LDA     10,DL
        44 011074   200126 755100                    STA     NAME,,AUTO

  16815 44 011075   012202 710000 44                 TRA     s:17594

     1790    16817
     1791    16818    6              SELECT(%OP_EXQQ);

     1792    16819                     %LIBRARY_NAME ( @NAME = "'Double**Double'" );
PL6.E3A0      #001=Z8HI$BURST File=Z8HI.:Z8A6TSI                                 SAT 08/09/97 13:19 Page:339

  16821 44 011076   040100 100400                    MLR     fill='040'O
        44 011077   000204 000016 42                 ADSC9   DSTATE_TYP+42            cn=0,n=14
        44 011100   200127 000040                    ADSC9   NAME+1,,AUTO             cn=0,n=32

  16822 44 011101   000016 235007                    LDA     14,DL
        44 011102   200126 755100                    STA     NAME,,AUTO

  16823 44 011103   012202 710000 44                 TRA     s:17594

     1793    16825
     1794    16826    6              SELECT(%OP_SBCHK);

     1795    16827                     %LIBRARY_NAME ( @NAME = "'Subscript_Error'" );

  16829 44 011104   040100 100400                    MLR     fill='040'O
        44 011105   000210 000017 42                 ADSC9   DSTATE_TYP+46            cn=0,n=15
        44 011106   200127 000040                    ADSC9   NAME+1,,AUTO             cn=0,n=32

  16830 44 011107   000017 235007                    LDA     15,DL
        44 011110   200126 755100                    STA     NAME,,AUTO

  16831 44 011111   012202 710000 44                 TRA     s:17594

     1796    16833
     1797    16834    6              SELECT(%OP_OCCHK);

     1798    16835                     %LIBRARY_NAME ( @NAME = "'Occurs_Error'" );

  16837 44 011112   040100 100400                    MLR     fill='040'O
        44 011113   000214 000014 42                 ADSC9   DSTATE_TYP+50            cn=0,n=12
        44 011114   200127 000040                    ADSC9   NAME+1,,AUTO             cn=0,n=32

  16838 44 011115   000014 235007                    LDA     12,DL
        44 011116   200126 755100                    STA     NAME,,AUTO

  16839 44 011117   012202 710000 44                 TRA     s:17594
PL6.E3A0      #001=Z8HI$BURST File=Z8HI.:Z8A6TSI                                 SAT 08/09/97 13:19 Page:340

     1799    16841
     1800    16842    6              SELECT(%OP_STOP);

     1801    16843                     %LIBRARY_NAME ( @NAME = "'Stop'" );

  16845 44 011120   040100 100400                    MLR     fill='040'O
        44 011121   000217 000004 42                 ADSC9   DSTATE_TYP+53            cn=0,n=4
        44 011122   200127 000040                    ADSC9   NAME+1,,AUTO             cn=0,n=32

  16846 44 011123   000004 235007                    LDA     4,DL
        44 011124   200126 755100                    STA     NAME,,AUTO

  16847 44 011125   012202 710000 44                 TRA     s:17594

     1802    16849
     1803    16850    6              SELECT(%OP_SUBENT);

     1804    16851                     %LIBRARY_NAME ( @NAME = "'Subroutine'" );

  16853 44 011126   040100 100400                    MLR     fill='040'O
        44 011127   000220 000012 42                 ADSC9   DSTATE_TYP+54            cn=0,n=10
        44 011130   200127 000040                    ADSC9   NAME+1,,AUTO             cn=0,n=32

  16854 44 011131   000012 235007                    LDA     10,DL
        44 011132   200126 755100                    STA     NAME,,AUTO

  16855 44 011133   012202 710000 44                 TRA     s:17594

     1805    16857
     1806    16858    6              SELECT(%OP_MAIN);

     1807    16859                     %LIBRARY_NAME ( @NAME = "'Main'" );

  16861 44 011134   040100 100400                    MLR     fill='040'O
        44 011135   000223 000004 42                 ADSC9   DSTATE_TYP+57            cn=0,n=4
        44 011136   200127 000040                    ADSC9   NAME+1,,AUTO             cn=0,n=32
PL6.E3A0      #001=Z8HI$BURST File=Z8HI.:Z8A6TSI                                 SAT 08/09/97 13:19 Page:341

  16862 44 011137   000004 235007                    LDA     4,DL
        44 011140   200126 755100                    STA     NAME,,AUTO

  16863 44 011141   012202 710000 44                 TRA     s:17594

     1808    16865
     1809    16866    6              SELECT(%OP_SYSOUT);

     1810    16867                     %LIBRARY_NAME ( @NAME = "'Display_on_Sysout'" );

  16869 44 011142   040100 100400                    MLR     fill='040'O
        44 011143   000224 000021 42                 ADSC9   DSTATE_TYP+58            cn=0,n=17
        44 011144   200127 000040                    ADSC9   NAME+1,,AUTO             cn=0,n=32

  16870 44 011145   000021 235007                    LDA     17,DL
        44 011146   200126 755100                    STA     NAME,,AUTO

  16871 44 011147   012202 710000 44                 TRA     s:17594

     1811    16873
     1812    16874    6              SELECT(%OP_SYSONO);

     1813    16875                     %LIBRARY_NAME ( @NAME = "'Display_no_Advancing'" );

  16877 44 011150   040100 100400                    MLR     fill='040'O
        44 011151   000231 000024 42                 ADSC9   DSTATE_TYP+63            cn=0,n=20
        44 011152   200127 000040                    ADSC9   NAME+1,,AUTO             cn=0,n=32

  16878 44 011153   000024 235007                    LDA     20,DL
        44 011154   200126 755100                    STA     NAME,,AUTO

  16879 44 011155   012202 710000 44                 TRA     s:17594

     1814    16881
     1815    16882    6              SELECT(%OP_CONSOL);

PL6.E3A0      #001=Z8HI$BURST File=Z8HI.:Z8A6TSI                                 SAT 08/09/97 13:19 Page:342
     1816    16883                     %LIBRARY_NAME ( @NAME = "'Display_on_Console'" );

  16885 44 011156   040100 100400                    MLR     fill='040'O
        44 011157   000236 000022 42                 ADSC9   DSTATE_TYP+68            cn=0,n=18
        44 011160   200127 000040                    ADSC9   NAME+1,,AUTO             cn=0,n=32

  16886 44 011161   000022 235007                    LDA     18,DL
        44 011162   200126 755100                    STA     NAME,,AUTO

  16887 44 011163   012202 710000 44                 TRA     s:17594

     1817    16889
     1818    16890    6              SELECT(%OP_ACDATE);

     1819    16891                     %LIBRARY_NAME ( @NAME = "'Accept_Date'" );

  16893 44 011164   040100 100400                    MLR     fill='040'O
        44 011165   000243 000013 42                 ADSC9   DSTATE_TYP+73            cn=0,n=11
        44 011166   200127 000040                    ADSC9   NAME+1,,AUTO             cn=0,n=32

  16894 44 011167   000013 235007                    LDA     11,DL
        44 011170   200126 755100                    STA     NAME,,AUTO

  16895 44 011171   012202 710000 44                 TRA     s:17594

     1820    16897
     1821    16898    6              SELECT(%OP_ACDAY);

     1822    16899                     %LIBRARY_NAME ( @NAME = "'Accept_Day'" );

  16901 44 011172   040100 100400                    MLR     fill='040'O
        44 011173   000246 000012 42                 ADSC9   DSTATE_TYP+76            cn=0,n=10
        44 011174   200127 000040                    ADSC9   NAME+1,,AUTO             cn=0,n=32

  16902 44 011175   000012 235007                    LDA     10,DL
        44 011176   200126 755100                    STA     NAME,,AUTO

PL6.E3A0      #001=Z8HI$BURST File=Z8HI.:Z8A6TSI                                 SAT 08/09/97 13:19 Page:343
  16903 44 011177   012202 710000 44                 TRA     s:17594

     1823    16905
     1824    16906    6              SELECT(%OP_ACTIME);

     1825    16907                     %LIBRARY_NAME ( @NAME = "'Accept_Time'" );

  16909 44 011200   040100 100400                    MLR     fill='040'O
        44 011201   000251 000013 42                 ADSC9   DSTATE_TYP+79            cn=0,n=11
        44 011202   200127 000040                    ADSC9   NAME+1,,AUTO             cn=0,n=32

  16910 44 011203   000013 235007                    LDA     11,DL
        44 011204   200126 755100                    STA     NAME,,AUTO

  16911 44 011205   012202 710000 44                 TRA     s:17594

     1826    16913
     1827    16914    6              SELECT(%OP_ACDOW);

     1828    16915                     %LIBRARY_NAME ( @NAME = "'Accept_Day_of_Week'" );

  16917 44 011206   040100 100400                    MLR     fill='040'O
        44 011207   000254 000022 42                 ADSC9   DSTATE_TYP+82            cn=0,n=18
        44 011210   200127 000040                    ADSC9   NAME+1,,AUTO             cn=0,n=32

  16918 44 011211   000022 235007                    LDA     18,DL
        44 011212   200126 755100                    STA     NAME,,AUTO

  16919 44 011213   012202 710000 44                 TRA     s:17594

     1829    16921
     1830    16922    6              SELECT(%OP_SYSIN);

     1831    16923                     %LIBRARY_NAME ( @NAME = "'Accept_Sysin'" );

  16925 44 011214   040100 100400                    MLR     fill='040'O
        44 011215   000261 000014 42                 ADSC9   DSTATE_TYP+87            cn=0,n=12
PL6.E3A0      #001=Z8HI$BURST File=Z8HI.:Z8A6TSI                                 SAT 08/09/97 13:19 Page:344
        44 011216   200127 000040                    ADSC9   NAME+1,,AUTO             cn=0,n=32

  16926 44 011217   000014 235007                    LDA     12,DL
        44 011220   200126 755100                    STA     NAME,,AUTO

  16927 44 011221   012202 710000 44                 TRA     s:17594

     1832    16929
     1833    16930    6              SELECT(%OP_ACCONS);

     1834    16931                     %LIBRARY_NAME ( @NAME = "'Accept_Console'" );

  16933 44 011222   040100 100400                    MLR     fill='040'O
        44 011223   000264 000016 42                 ADSC9   DSTATE_TYP+90            cn=0,n=14
        44 011224   200127 000040                    ADSC9   NAME+1,,AUTO             cn=0,n=32

  16934 44 011225   000016 235007                    LDA     14,DL
        44 011226   200126 755100                    STA     NAME,,AUTO

  16935 44 011227   012202 710000 44                 TRA     s:17594

     1835    16937
     1836    16938    6              SELECT(%OP_CVDR);

     1837    16939                     %LIBRARY_NAME ( @NAME = "'Decimal->Real'" );

  16941 44 011230   040100 100400                    MLR     fill='040'O
        44 011231   000270 000015 42                 ADSC9   DSTATE_TYP+94            cn=0,n=13
        44 011232   200127 000040                    ADSC9   NAME+1,,AUTO             cn=0,n=32

  16942 44 011233   000015 235007                    LDA     13,DL
        44 011234   200126 755100                    STA     NAME,,AUTO

  16943 44 011235   012202 710000 44                 TRA     s:17594

     1838    16945
     1839    16946    6              SELECT(%OP_CVDQ);
PL6.E3A0      #001=Z8HI$BURST File=Z8HI.:Z8A6TSI                                 SAT 08/09/97 13:19 Page:345

     1840    16947                     %LIBRARY_NAME ( @NAME = "'Decimal->Double'" );

  16949 44 011236   040100 100400                    MLR     fill='040'O
        44 011237   000274 000017 42                 ADSC9   DSTATE_TYP+98            cn=0,n=15
        44 011240   200127 000040                    ADSC9   NAME+1,,AUTO             cn=0,n=32

  16950 44 011241   000017 235007                    LDA     15,DL
        44 011242   200126 755100                    STA     NAME,,AUTO

  16951 44 011243   012202 710000 44                 TRA     s:17594

     1841    16953
     1842    16954    6              SELECT(%OP_CVRD);

     1843    16955                     %LIBRARY_NAME ( @NAME = "'Real->Decimal'" );

  16957 44 011244   040100 100400                    MLR     fill='040'O
        44 011245   000300 000015 42                 ADSC9   DSTATE_TYP+102           cn=0,n=13
        44 011246   200127 000040                    ADSC9   NAME+1,,AUTO             cn=0,n=32

  16958 44 011247   000015 235007                    LDA     13,DL
        44 011250   200126 755100                    STA     NAME,,AUTO

  16959 44 011251   012202 710000 44                 TRA     s:17594

     1844    16961
     1845    16962    6              SELECT(%OP_CVQD);

     1846    16963                     %LIBRARY_NAME ( @NAME = "'Double->Decimal'" );

  16965 44 011252   040100 100400                    MLR     fill='040'O
        44 011253   000304 000017 42                 ADSC9   DSTATE_TYP+106           cn=0,n=15
        44 011254   200127 000040                    ADSC9   NAME+1,,AUTO             cn=0,n=32

  16966 44 011255   000017 235007                    LDA     15,DL
        44 011256   200126 755100                    STA     NAME,,AUTO
PL6.E3A0      #001=Z8HI$BURST File=Z8HI.:Z8A6TSI                                 SAT 08/09/97 13:19 Page:346

  16967 44 011257   012202 710000 44                 TRA     s:17594

     1847    16969
     1848    16970    6              SELECT(%OP_STOPL);

     1849    16971                     %LIBRARY_NAME ( @NAME = "'Stop_Literal'" );

  16973 44 011260   040100 100400                    MLR     fill='040'O
        44 011261   000310 000014 42                 ADSC9   DSTATE_TYP+110           cn=0,n=12
        44 011262   200127 000040                    ADSC9   NAME+1,,AUTO             cn=0,n=32

  16974 44 011263   000014 235007                    LDA     12,DL
        44 011264   200126 755100                    STA     NAME,,AUTO

  16975 44 011265   012202 710000 44                 TRA     s:17594

     1850    16977
     1851    16978    6              SELECT(%OP_SETON);

     1852    16979                     %LIBRARY_NAME ( @NAME = "'SET_SWITCH_ON'" );

  16981 44 011266   040100 100400                    MLR     fill='040'O
        44 011267   000313 000015 42                 ADSC9   DSTATE_TYP+113           cn=0,n=13
        44 011270   200127 000040                    ADSC9   NAME+1,,AUTO             cn=0,n=32

  16982 44 011271   000015 235007                    LDA     13,DL
        44 011272   200126 755100                    STA     NAME,,AUTO

  16983 44 011273   012202 710000 44                 TRA     s:17594

     1853    16985
     1854    16986    6              SELECT(%OP_SETOFF);

     1855    16987                     %LIBRARY_NAME ( @NAME = "'SET_SWITCH_OFF'" );

  16989 44 011274   040100 100400                    MLR     fill='040'O
PL6.E3A0      #001=Z8HI$BURST File=Z8HI.:Z8A6TSI                                 SAT 08/09/97 13:19 Page:347
        44 011275   000317 000016 42                 ADSC9   DSTATE_TYP+117           cn=0,n=14
        44 011276   200127 000040                    ADSC9   NAME+1,,AUTO             cn=0,n=32

  16990 44 011277   000016 235007                    LDA     14,DL
        44 011300   200126 755100                    STA     NAME,,AUTO

  16991 44 011301   012202 710000 44                 TRA     s:17594

     1856    16993
     1857    16994    6              SELECT(%OP_RWCS);

     1858    16995                     %LIBRARY_NAME ( @NAME = "'Report_Writer_Control_System'" );

  16997 44 011302   040100 100400                    MLR     fill='040'O
        44 011303   000323 000034 42                 ADSC9   DSTATE_TYP+121           cn=0,n=28
        44 011304   200127 000040                    ADSC9   NAME+1,,AUTO             cn=0,n=32

  16998 44 011305   000034 235007                    LDA     28,DL
        44 011306   200126 755100                    STA     NAME,,AUTO

  16999 44 011307   012202 710000 44                 TRA     s:17594

     1859    17001
     1860    17002    6              SELECT(%OP_WRITE_PAGE);

     1861    17003                     %LIBRARY_NAME ( @NAME = "'Report_Writer_Write_Page'");

  17005 44 011310   040100 100400                    MLR     fill='040'O
        44 011311   000332 000030 42                 ADSC9   DSTATE_TYP+128           cn=0,n=24
        44 011312   200127 000040                    ADSC9   NAME+1,,AUTO             cn=0,n=32

  17006 44 011313   000030 235007                    LDA     24,DL
        44 011314   200126 755100                    STA     NAME,,AUTO

  17007 44 011315   012202 710000 44                 TRA     s:17594

     1862    17009
PL6.E3A0      #001=Z8HI$BURST File=Z8HI.:Z8A6TSI                                 SAT 08/09/97 13:19 Page:348
     1863    17010    6              SELECT( %OP_PARAMETER_CHECK );

     1864    17011                     %LIBRARY_NAME( @NAME = "'Parameter_Check'" );

  17013 44 011316   040100 100400                    MLR     fill='040'O
        44 011317   000340 000017 42                 ADSC9   DSTATE_TYP+134           cn=0,n=15
        44 011320   200127 000040                    ADSC9   NAME+1,,AUTO             cn=0,n=32

  17014 44 011321   000017 235007                    LDA     15,DL
        44 011322   200126 755100                    STA     NAME,,AUTO

  17015 44 011323   012202 710000 44                 TRA     s:17594

     1865    17017
     1866    17018    6              SELECT(%OP_EXII);

     1867    17019                     %LIBRARY_NAME ( @NAME = "'Integer**Integer'" );

  17021 44 011324   040100 100400                    MLR     fill='040'O
        44 011325   000344 000020 42                 ADSC9   DSTATE_TYP+138           cn=0,n=16
        44 011326   200127 000040                    ADSC9   NAME+1,,AUTO             cn=0,n=32

  17022 44 011327   000020 235007                    LDA     16,DL
        44 011330   200126 755100                    STA     NAME,,AUTO

  17023 44 011331   012202 710000 44                 TRA     s:17594

     1868    17025
     1869    17026    6              SELECT(%OP_EXDI);

     1870    17027                     %LIBRARY_NAME ( @NAME = "'Decimal**Integer'" );

  17029 44 011332   040100 100400                    MLR     fill='040'O
        44 011333   000350 000020 42                 ADSC9   DSTATE_TYP+142           cn=0,n=16
        44 011334   200127 000040                    ADSC9   NAME+1,,AUTO             cn=0,n=32

  17030 44 011335   000020 235007                    LDA     16,DL
PL6.E3A0      #001=Z8HI$BURST File=Z8HI.:Z8A6TSI                                 SAT 08/09/97 13:19 Page:349
        44 011336   200126 755100                    STA     NAME,,AUTO

  17031 44 011337   012202 710000 44                 TRA     s:17594

     1871    17033
     1872    17034    6              SELECT(%OP_EXRI);

     1873    17035                     %LIBRARY_NAME ( @NAME = "'Real**Integer'" );

  17037 44 011340   040100 100400                    MLR     fill='040'O
        44 011341   000354 000015 42                 ADSC9   DSTATE_TYP+146           cn=0,n=13
        44 011342   200127 000040                    ADSC9   NAME+1,,AUTO             cn=0,n=32

  17038 44 011343   000015 235007                    LDA     13,DL
        44 011344   200126 755100                    STA     NAME,,AUTO

  17039 44 011345   012202 710000 44                 TRA     s:17594

     1874    17041
     1875    17042    6              SELECT(%OP_EXQI);

     1876    17043                     %LIBRARY_NAME ( @NAME = "'Double**Integer'" );

  17045 44 011346   040100 100400                    MLR     fill='040'O
        44 011347   000360 000017 42                 ADSC9   DSTATE_TYP+150           cn=0,n=15
        44 011350   200127 000040                    ADSC9   NAME+1,,AUTO             cn=0,n=32

  17046 44 011351   000017 235007                    LDA     15,DL
        44 011352   200126 755100                    STA     NAME,,AUTO

  17047 44 011353   012202 710000 44                 TRA     s:17594

     1877    17049
     1878    17050    6              SELECT(%OP_MVDDD);

     1879    17051                     %LIBRARY_NAME ( @NAME = "'De_edit'" );

PL6.E3A0      #001=Z8HI$BURST File=Z8HI.:Z8A6TSI                                 SAT 08/09/97 13:19 Page:350
  17053 44 011354   040100 100400                    MLR     fill='040'O
        44 011355   000364 000007 42                 ADSC9   DSTATE_TYP+154           cn=0,n=7
        44 011356   200127 000040                    ADSC9   NAME+1,,AUTO             cn=0,n=32

  17054 44 011357   000007 235007                    LDA     7,DL
        44 011360   200126 755100                    STA     NAME,,AUTO

  17055 44 011361   012202 710000 44                 TRA     s:17594

     1880    17057
     1881    17058    6              SELECT(%OP_CHKON);

     1882    17059                     %LIBRARY_NAME ( @NAME = "'CHK_SWITCH_ON'" );

  17061 44 011362   040100 100400                    MLR     fill='040'O
        44 011363   000366 000015 42                 ADSC9   DSTATE_TYP+156           cn=0,n=13
        44 011364   200127 000040                    ADSC9   NAME+1,,AUTO             cn=0,n=32

  17062 44 011365   000015 235007                    LDA     13,DL
        44 011366   200126 755100                    STA     NAME,,AUTO

  17063 44 011367   012202 710000 44                 TRA     s:17594

     1883    17065
     1884    17066    6              SELECT(%OP_CHKOFF);

     1885    17067                     %LIBRARY_NAME ( @NAME = "'CHK_SWITCH_OFF'" );

  17069 44 011370   040100 100400                    MLR     fill='040'O
        44 011371   000372 000016 42                 ADSC9   DSTATE_TYP+160           cn=0,n=14
        44 011372   200127 000040                    ADSC9   NAME+1,,AUTO             cn=0,n=32

  17070 44 011373   000016 235007                    LDA     14,DL
        44 011374   200126 755100                    STA     NAME,,AUTO

  17071 44 011375   012202 710000 44                 TRA     s:17594

PL6.E3A0      #001=Z8HI$BURST File=Z8HI.:Z8A6TSI                                 SAT 08/09/97 13:19 Page:351
     1886    17073
     1887    17074    6              SELECT(%OP_DECIMAL_TO_OPUNCH_TRAIL);

     1888    17075                     %LIBRARY_NAME ( @NAME = "'Trailing_overpunched'" );

  17077 44 011376   040100 100400                    MLR     fill='040'O
        44 011377   000376 000024 42                 ADSC9   DSTATE_TYP+164           cn=0,n=20
        44 011400   200127 000040                    ADSC9   NAME+1,,AUTO             cn=0,n=32

  17078 44 011401   000024 235007                    LDA     20,DL
        44 011402   200126 755100                    STA     NAME,,AUTO

  17079 44 011403   012202 710000 44                 TRA     s:17594

     1889    17081
     1890    17082    6              SELECT(%OP_DECIMAL_TO_OPUNCH_LEAD);

     1891    17083                     %LIBRARY_NAME ( @NAME = "'Leading_overpunched'" );

  17085 44 011404   040100 100400                    MLR     fill='040'O
        44 011405   000403 000023 42                 ADSC9   DSTATE_TYP+169           cn=0,n=19
        44 011406   200127 000040                    ADSC9   NAME+1,,AUTO             cn=0,n=32

  17086 44 011407   000023 235007                    LDA     19,DL
        44 011410   200126 755100                    STA     NAME,,AUTO

  17087 44 011411   012202 710000 44                 TRA     s:17594

     1892    17089
     1893    17090    6              SELECT(%OP_ASCII_TO_GBCD);

     1894    17091                     %LIBRARY_NAME ( @NAME = "'ASCII_to_BCD'" );

  17093 44 011412   040100 100400                    MLR     fill='040'O
        44 011413   000410 000014 42                 ADSC9   DSTATE_TYP+174           cn=0,n=12
        44 011414   200127 000040                    ADSC9   NAME+1,,AUTO             cn=0,n=32

PL6.E3A0      #001=Z8HI$BURST File=Z8HI.:Z8A6TSI                                 SAT 08/09/97 13:19 Page:352
  17094 44 011415   000014 235007                    LDA     12,DL
        44 011416   200126 755100                    STA     NAME,,AUTO

  17095 44 011417   012202 710000 44                 TRA     s:17594

     1895    17097
     1896    17098    6              SELECT(%OP_ASCII_TO_EBCDIC);

     1897    17099                     %LIBRARY_NAME ( @NAME = "'T$ASCII_TO_EBCDIC'" );

  17101 44 011420   040100 100400                    MLR     fill='040'O
        44 011421   000413 000021 42                 ADSC9   DSTATE_TYP+177           cn=0,n=17
        44 011422   200127 000040                    ADSC9   NAME+1,,AUTO             cn=0,n=32

  17102 44 011423   000021 235007                    LDA     17,DL
        44 011424   200126 755100                    STA     NAME,,AUTO

  17103 44 011425   012202 710000 44                 TRA     s:17594

     1898    17105
     1899    17106    6              SELECT(%OP_EBCDIC_TO_ASCII);

     1900    17107                     %LIBRARY_NAME ( @NAME = "'T$EBCDIC_TO_ASCII'" );

  17109 44 011426   040100 100400                    MLR     fill='040'O
        44 011427   000420 000021 42                 ADSC9   DSTATE_TYP+182           cn=0,n=17
        44 011430   200127 000040                    ADSC9   NAME+1,,AUTO             cn=0,n=32

  17110 44 011431   000021 235007                    LDA     17,DL
        44 011432   200126 755100                    STA     NAME,,AUTO

  17111 44 011433   012202 710000 44                 TRA     s:17594

     1901    17113
     1902    17114    6              SELECT(%OP_CLASS_NUMERIC);

     1903    17115                     %LIBRARY_NAME ( @NAME = "'Numeric_class'" );
PL6.E3A0      #001=Z8HI$BURST File=Z8HI.:Z8A6TSI                                 SAT 08/09/97 13:19 Page:353

  17117 44 011434   040100 100400                    MLR     fill='040'O
        44 011435   000425 000015 42                 ADSC9   DSTATE_TYP+187           cn=0,n=13
        44 011436   200127 000040                    ADSC9   NAME+1,,AUTO             cn=0,n=32

  17118 44 011437   000015 235007                    LDA     13,DL
        44 011440   200126 755100                    STA     NAME,,AUTO

  17119 44 011441   012202 710000 44                 TRA     s:17594

     1904    17121
     1905    17122    6              SELECT(%OP_CLASS_ALPHA_UPPER);

     1906    17123                     %LIBRARY_NAME ( @NAME = "'Alphabetic_upper_class'" );

  17125 44 011442   040100 100400                    MLR     fill='040'O
        44 011443   000431 000026 42                 ADSC9   DSTATE_TYP+191           cn=0,n=22
        44 011444   200127 000040                    ADSC9   NAME+1,,AUTO             cn=0,n=32

  17126 44 011445   000026 235007                    LDA     22,DL
        44 011446   200126 755100                    STA     NAME,,AUTO

  17127 44 011447   012202 710000 44                 TRA     s:17594

     1907    17129
     1908    17130    6              SELECT(%OP_CLASS_ALPHA_LOWER);

     1909    17131                     %LIBRARY_NAME ( @NAME = "'Alphabetic_lower_class'" );

  17133 44 011450   040100 100400                    MLR     fill='040'O
        44 011451   000437 000026 42                 ADSC9   DSTATE_TYP+197           cn=0,n=22
        44 011452   200127 000040                    ADSC9   NAME+1,,AUTO             cn=0,n=32

  17134 44 011453   000026 235007                    LDA     22,DL
        44 011454   200126 755100                    STA     NAME,,AUTO

  17135 44 011455   012202 710000 44                 TRA     s:17594
PL6.E3A0      #001=Z8HI$BURST File=Z8HI.:Z8A6TSI                                 SAT 08/09/97 13:19 Page:354

     1910    17137
     1911    17138    6              SELECT(%OP_CLASS_ALPHA);

     1912    17139                     %LIBRARY_NAME ( @NAME = "'Alphabetic_class'" );

  17141 44 011456   040100 100400                    MLR     fill='040'O
        44 011457   000445 000020 42                 ADSC9   DSTATE_TYP+203           cn=0,n=16
        44 011460   200127 000040                    ADSC9   NAME+1,,AUTO             cn=0,n=32

  17142 44 011461   000020 235007                    LDA     16,DL
        44 011462   200126 755100                    STA     NAME,,AUTO

  17143 44 011463   012202 710000 44                 TRA     s:17594

     1913    17145
     1914    17146    6              SELECT(%OP_CLASS_DECIMAL_SIGN);

     1915    17147                     %LIBRARY_NAME ( @NAME = "'Decimal_sign_class'" );

  17149 44 011464   040100 100400                    MLR     fill='040'O
        44 011465   000451 000022 42                 ADSC9   DSTATE_TYP+207           cn=0,n=18
        44 011466   200127 000040                    ADSC9   NAME+1,,AUTO             cn=0,n=32

  17150 44 011467   000022 235007                    LDA     18,DL
        44 011470   200126 755100                    STA     NAME,,AUTO

  17151 44 011471   012202 710000 44                 TRA     s:17594

     1916    17153
     1917    17154    6              SELECT(%OP_CLASS_OVERPUNCHED_SIGN);

     1918    17155                     %LIBRARY_NAME ( @NAME = "'Overpunched_sign_class'" );

  17157 44 011472   040100 100400                    MLR     fill='040'O
        44 011473   000456 000026 42                 ADSC9   DSTATE_TYP+212           cn=0,n=22
        44 011474   200127 000040                    ADSC9   NAME+1,,AUTO             cn=0,n=32
PL6.E3A0      #001=Z8HI$BURST File=Z8HI.:Z8A6TSI                                 SAT 08/09/97 13:19 Page:355

  17158 44 011475   000026 235007                    LDA     22,DL
        44 011476   200126 755100                    STA     NAME,,AUTO

  17159 44 011477   012202 710000 44                 TRA     s:17594

     1919    17161
     1920    17162    6              SELECT(%OP_TCT_MASK);

     1921    17163                     %LIBRARY_NAME ( @NAME = "'TCT_mask_000177777777'" );

  17165 44 011500   040100 100400                    MLR     fill='040'O
        44 011501   000464 000025 42                 ADSC9   DSTATE_TYP+218           cn=0,n=21
        44 011502   200127 000040                    ADSC9   NAME+1,,AUTO             cn=0,n=32

  17166 44 011503   000025 235007                    LDA     21,DL
        44 011504   200126 755100                    STA     NAME,,AUTO

  17167 44 011505   012202 710000 44                 TRA     s:17594

     1922    17169
     1923    17170    6              SELECT(%OP_OPEN, %OP_OPEN_SEQ, %OP_OPEN_REL, %OP_OPEN_IND);

     1924    17171                     %LIBRARY_NAME ( @NAME = "'Open_file'" );

  17173 44 011506   040100 100400                    MLR     fill='040'O
        44 011507   000472 000011 42                 ADSC9   DSTATE_TYP+224           cn=0,n=9
        44 011510   200127 000040                    ADSC9   NAME+1,,AUTO             cn=0,n=32

  17174 44 011511   000011 235007                    LDA     9,DL
        44 011512   200126 755100                    STA     NAME,,AUTO

  17175 44 011513   012202 710000 44                 TRA     s:17594

     1925    17177
     1926    17178    6              SELECT(%OP_CLOSE, %OP_CLOSE_SEQ, %OP_CLOSE_REL, %OP_CLOSE_IND);

PL6.E3A0      #001=Z8HI$BURST File=Z8HI.:Z8A6TSI                                 SAT 08/09/97 13:19 Page:356
     1927    17179                     %LIBRARY_NAME ( @NAME = "'Close_file'" );

  17181 44 011514   040100 100400                    MLR     fill='040'O
        44 011515   000475 000012 42                 ADSC9   DSTATE_TYP+227           cn=0,n=10
        44 011516   200127 000040                    ADSC9   NAME+1,,AUTO             cn=0,n=32

  17182 44 011517   000012 235007                    LDA     10,DL
        44 011520   200126 755100                    STA     NAME,,AUTO

  17183 44 011521   012202 710000 44                 TRA     s:17594

     1928    17185
     1929    17186    6              SELECT(%OP_DELETE, %OP_DELETE_REL, %OP_DELETE_IND);

     1930    17187                     %LIBRARY_NAME ( @NAME = "'Delete_record'" );

  17189 44 011522   040100 100400                    MLR     fill='040'O
        44 011523   000500 000015 42                 ADSC9   DSTATE_TYP+230           cn=0,n=13
        44 011524   200127 000040                    ADSC9   NAME+1,,AUTO             cn=0,n=32

  17190 44 011525   000015 235007                    LDA     13,DL
        44 011526   200126 755100                    STA     NAME,,AUTO

  17191 44 011527   012202 710000 44                 TRA     s:17594

     1931    17193
     1932    17194    6              SELECT(%OP_READ_RANDOM, %OP_READ_REL_RAND, %OP_READ_IND_RAND);

     1933    17195                     %LIBRARY_NAME ( @NAME = "'Read_Random'" );

  17197 44 011530   040100 100400                    MLR     fill='040'O
        44 011531   000504 000013 42                 ADSC9   DSTATE_TYP+234           cn=0,n=11
        44 011532   200127 000040                    ADSC9   NAME+1,,AUTO             cn=0,n=32

  17198 44 011533   000013 235007                    LDA     11,DL
        44 011534   200126 755100                    STA     NAME,,AUTO

PL6.E3A0      #001=Z8HI$BURST File=Z8HI.:Z8A6TSI                                 SAT 08/09/97 13:19 Page:357
  17199 44 011535   012202 710000 44                 TRA     s:17594

     1934    17201
     1935    17202    6              SELECT(%OP_READ_NEXT, %OP_READ_SEQ, %OP_READ_REL, %OP_READ_IND);

     1936    17203                     %LIBRARY_NAME ( @NAME = "'Read_Next'" );

  17205 44 011536   040100 100400                    MLR     fill='040'O
        44 011537   000507 000011 42                 ADSC9   DSTATE_TYP+237           cn=0,n=9
        44 011540   200127 000040                    ADSC9   NAME+1,,AUTO             cn=0,n=32

  17206 44 011541   000011 235007                    LDA     9,DL
        44 011542   200126 755100                    STA     NAME,,AUTO

  17207 44 011543   012202 710000 44                 TRA     s:17594

     1937    17209
     1938    17210    6              SELECT(%OP_WRITE_RANDOM, %OP_WRITE_REL, %OP_WRITE_IND);

     1939    17211                     %LIBRARY_NAME ( @NAME = "'Write_Random'" );

  17213 44 011544   040100 100400                    MLR     fill='040'O
        44 011545   000512 000014 42                 ADSC9   DSTATE_TYP+240           cn=0,n=12
        44 011546   200127 000040                    ADSC9   NAME+1,,AUTO             cn=0,n=32

  17214 44 011547   000014 235007                    LDA     12,DL
        44 011550   200126 755100                    STA     NAME,,AUTO

  17215 44 011551   012202 710000 44                 TRA     s:17594

     1940    17217
     1941    17218    6              SELECT(%OP_WRITE_SEQUENTIAL, %OP_WRITE_SEQ);

     1942    17219                     %LIBRARY_NAME ( @NAME = "'Write_Sequential'" );

  17221 44 011552   040100 100400                    MLR     fill='040'O
        44 011553   000515 000020 42                 ADSC9   DSTATE_TYP+243           cn=0,n=16
PL6.E3A0      #001=Z8HI$BURST File=Z8HI.:Z8A6TSI                                 SAT 08/09/97 13:19 Page:358
        44 011554   200127 000040                    ADSC9   NAME+1,,AUTO             cn=0,n=32

  17222 44 011555   000020 235007                    LDA     16,DL
        44 011556   200126 755100                    STA     NAME,,AUTO

  17223 44 011557   012202 710000 44                 TRA     s:17594

     1943    17225
     1944    17226    6              SELECT(%OP_REWRITE, %OP_REWRITE_SEQ, %OP_REWRITE_REL, %OP_REWRITE_IND);

     1945    17227                     %LIBRARY_NAME ( @NAME = "'Rewrite'" );

  17229 44 011560   040100 100400                    MLR     fill='040'O
        44 011561   000521 000007 42                 ADSC9   DSTATE_TYP+247           cn=0,n=7
        44 011562   200127 000040                    ADSC9   NAME+1,,AUTO             cn=0,n=32

  17230 44 011563   000007 235007                    LDA     7,DL
        44 011564   200126 755100                    STA     NAME,,AUTO

  17231 44 011565   012202 710000 44                 TRA     s:17594

     1946    17233
     1947    17234    6              SELECT(%OP_START, %OP_START_REL, %OP_START_IND);

     1948    17235                     %LIBRARY_NAME ( @NAME = "'Start'" );

  17237 44 011566   040100 100400                    MLR     fill='040'O
        44 011567   000523 000005 42                 ADSC9   DSTATE_TYP+249           cn=0,n=5
        44 011570   200127 000040                    ADSC9   NAME+1,,AUTO             cn=0,n=32

  17238 44 011571   000005 235007                    LDA     5,DL
        44 011572   200126 755100                    STA     NAME,,AUTO

  17239 44 011573   012202 710000 44                 TRA     s:17594

     1949    17241
     1950    17242    6              SELECT(%OP_CANCEL);
PL6.E3A0      #001=Z8HI$BURST File=Z8HI.:Z8A6TSI                                 SAT 08/09/97 13:19 Page:359

     1951    17243                     %LIBRARY_NAME ( @NAME = "'Cancel'" );

  17245 44 011574   040100 100400                    MLR     fill='040'O
        44 011575   000525 000006 42                 ADSC9   DSTATE_TYP+251           cn=0,n=6
        44 011576   200127 000040                    ADSC9   NAME+1,,AUTO             cn=0,n=32

  17246 44 011577   000006 235007                    LDA     6,DL
        44 011600   200126 755100                    STA     NAME,,AUTO

  17247 44 011601   012202 710000 44                 TRA     s:17594

     1952    17249
     1953    17250    6              SELECT(%OP_CALL_ID);

     1954    17251                     %LIBRARY_NAME ( @NAME = "'Call_Identifier'" );

  17253 44 011602   040100 100400                    MLR     fill='040'O
        44 011603   000527 000017 42                 ADSC9   DSTATE_TYP+253           cn=0,n=15
        44 011604   200127 000040                    ADSC9   NAME+1,,AUTO             cn=0,n=32

  17254 44 011605   000017 235007                    LDA     15,DL
        44 011606   200126 755100                    STA     NAME,,AUTO

  17255 44 011607   012202 710000 44                 TRA     s:17594

     1955    17257
     1956    17258    6              SELECT(%OP_EXIT);

     1957    17259                     %LIBRARY_NAME ( @NAME = "'Exit_subroutine'" );

  17261 44 011610   040100 100400                    MLR     fill='040'O
        44 011611   000533 000017 42                 ADSC9   DSTATE_TYP+257           cn=0,n=15
        44 011612   200127 000040                    ADSC9   NAME+1,,AUTO             cn=0,n=32

  17262 44 011613   000017 235007                    LDA     15,DL
        44 011614   200126 755100                    STA     NAME,,AUTO
PL6.E3A0      #001=Z8HI$BURST File=Z8HI.:Z8A6TSI                                 SAT 08/09/97 13:19 Page:360

  17263 44 011615   012202 710000 44                 TRA     s:17594

     1958    17265
     1959    17266    6              SELECT(%OP_IENTRY);

     1960    17267                     %LIBRARY_NAME ( @NAME = "'Enter_IDS_USE'" );

  17269 44 011616   040100 100400                    MLR     fill='040'O
        44 011617   000537 000015 42                 ADSC9   DSTATE_TYP+261           cn=0,n=13
        44 011620   200127 000040                    ADSC9   NAME+1,,AUTO             cn=0,n=32

  17270 44 011621   000015 235007                    LDA     13,DL
        44 011622   200126 755100                    STA     NAME,,AUTO

  17271 44 011623   012202 710000 44                 TRA     s:17594

     1961    17273
     1962    17274    6              SELECT(%OP_IEXIT);

     1963    17275                     %LIBRARY_NAME ( @NAME = "'Exit_IDS_USE'" );

  17277 44 011624   040100 100400                    MLR     fill='040'O
        44 011625   000543 000014 42                 ADSC9   DSTATE_TYP+265           cn=0,n=12
        44 011626   200127 000040                    ADSC9   NAME+1,,AUTO             cn=0,n=32

  17278 44 011627   000014 235007                    LDA     12,DL
        44 011630   200126 755100                    STA     NAME,,AUTO

  17279 44 011631   012202 710000 44                 TRA     s:17594

     1964    17281
     1965    17282    6              SELECT(%OP_UENTRY);

     1966    17283                     %LIBRARY_NAME ( @NAME = "'Enter_USE'" );

  17285 44 011632   040100 100400                    MLR     fill='040'O
PL6.E3A0      #001=Z8HI$BURST File=Z8HI.:Z8A6TSI                                 SAT 08/09/97 13:19 Page:361
        44 011633   000546 000011 42                 ADSC9   DSTATE_TYP+268           cn=0,n=9
        44 011634   200127 000040                    ADSC9   NAME+1,,AUTO             cn=0,n=32

  17286 44 011635   000011 235007                    LDA     9,DL
        44 011636   200126 755100                    STA     NAME,,AUTO

  17287 44 011637   012202 710000 44                 TRA     s:17594

     1967    17289
     1968    17290    6              SELECT(%OP_UEXIT);

     1969    17291                     %LIBRARY_NAME ( @NAME = "'Exit_USE'" );

  17293 44 011640   040100 100400                    MLR     fill='040'O
        44 011641   000551 000010 42                 ADSC9   DSTATE_TYP+271           cn=0,n=8
        44 011642   200127 000040                    ADSC9   NAME+1,,AUTO             cn=0,n=32

  17294 44 011643   000010 235007                    LDA     8,DL
        44 011644   200126 755100                    STA     NAME,,AUTO

  17295 44 011645   012202 710000 44                 TRA     s:17594

     1970    17297
     1971    17298    6              SELECT(%OP_CANCEL_INT);

     1972    17299                     %LIBRARY_NAME ( @NAME = "'Cancel_Int_Proc'" );

  17301 44 011646   040100 100400                    MLR     fill='040'O
        44 011647   000553 000017 42                 ADSC9   DSTATE_TYP+273           cn=0,n=15
        44 011650   200127 000040                    ADSC9   NAME+1,,AUTO             cn=0,n=32

  17302 44 011651   000017 235007                    LDA     15,DL
        44 011652   200126 755100                    STA     NAME,,AUTO

  17303 44 011653   012202 710000 44                 TRA     s:17594

     1973    17305
PL6.E3A0      #001=Z8HI$BURST File=Z8HI.:Z8A6TSI                                 SAT 08/09/97 13:19 Page:362
     1974    17306    6              SELECT(%OP_CALL_ERROR);

     1975    17307                     %LIBRARY_NAME ( @NAME = "'Call_Error'" );

  17309 44 011654   040100 100400                    MLR     fill='040'O
        44 011655   000557 000012 42                 ADSC9   DSTATE_TYP+277           cn=0,n=10
        44 011656   200127 000040                    ADSC9   NAME+1,,AUTO             cn=0,n=32

  17310 44 011657   000012 235007                    LDA     10,DL
        44 011660   200126 755100                    STA     NAME,,AUTO

  17311 44 011661   012202 710000 44                 TRA     s:17594

     1976    17313
     1977    17314    6              SELECT(%OP_CLOSE_CANCEL);

     1978    17315                     %LIBRARY_NAME ( @NAME = "'Conditional_Close'" );

  17317 44 011662   040100 100400                    MLR     fill='040'O
        44 011663   000562 000021 42                 ADSC9   DSTATE_TYP+280           cn=0,n=17
        44 011664   200127 000040                    ADSC9   NAME+1,,AUTO             cn=0,n=32

  17318 44 011665   000021 235007                    LDA     17,DL
        44 011666   200126 755100                    STA     NAME,,AUTO

  17319 44 011667   012202 710000 44                 TRA     s:17594

     1979    17321
     1980    17322    6              SELECT(%OP_SLEW);

     1981    17323                     %LIBRARY_NAME ( @NAME = "'IBM Slew'");

  17325 44 011670   040100 100400                    MLR     fill='040'O
        44 011671   000567 000010 42                 ADSC9   DSTATE_TYP+285           cn=0,n=8
        44 011672   200127 000040                    ADSC9   NAME+1,,AUTO             cn=0,n=32

  17326 44 011673   000010 235007                    LDA     8,DL
PL6.E3A0      #001=Z8HI$BURST File=Z8HI.:Z8A6TSI                                 SAT 08/09/97 13:19 Page:363
        44 011674   200126 755100                    STA     NAME,,AUTO

  17327 44 011675   012202 710000 44                 TRA     s:17594

     1982    17329
     1983    17330    6              SELECT( %OP_CVRDT );

     1984    17331                     %LIBRARY_NAME( @NAME = "'Real->Decimal-T'" );

  17333 44 011676   040100 100400                    MLR     fill='040'O
        44 011677   000571 000017 42                 ADSC9   DSTATE_TYP+287           cn=0,n=15
        44 011700   200127 000040                    ADSC9   NAME+1,,AUTO             cn=0,n=32

  17334 44 011701   000017 235007                    LDA     15,DL
        44 011702   200126 755100                    STA     NAME,,AUTO

  17335 44 011703   012202 710000 44                 TRA     s:17594

     1985    17337
     1986    17338    6              SELECT( %OP_CVQDT );

     1987    17339                     %LIBRARY_NAME( @NAME = "'Double->Decimal-T'" );

  17341 44 011704   040100 100400                    MLR     fill='040'O
        44 011705   000575 000021 42                 ADSC9   DSTATE_TYP+291           cn=0,n=17
        44 011706   200127 000040                    ADSC9   NAME+1,,AUTO             cn=0,n=32

  17342 44 011707   000021 235007                    LDA     17,DL
        44 011710   200126 755100                    STA     NAME,,AUTO

  17343 44 011711   012202 710000 44                 TRA     s:17594

     1988    17345    6              SELECT( %OP_DYHIA );

     1989    17346                     %LIBRARY_NAME( @NAME = "'DBHIA'" );

  17348 44 011712   040100 100400                    MLR     fill='040'O
PL6.E3A0      #001=Z8HI$BURST File=Z8HI.:Z8A6TSI                                 SAT 08/09/97 13:19 Page:364
        44 011713   000602 000005 42                 ADSC9   DSTATE_TYP+296           cn=0,n=5
        44 011714   200127 000040                    ADSC9   NAME+1,,AUTO             cn=0,n=32

  17349 44 011715   000005 235007                    LDA     5,DL
        44 011716   200126 755100                    STA     NAME,,AUTO

  17350 44 011717   012202 710000 44                 TRA     s:17594

     1990    17352
     1991    17353    6              SELECT( %OP_DYRDY );

     1992    17354                     %LIBRARY_NAME( @NAME = "'DBRDY'" );

  17356 44 011720   040100 100400                    MLR     fill='040'O
        44 011721   000604 000005 42                 ADSC9   DSTATE_TYP+298           cn=0,n=5
        44 011722   200127 000040                    ADSC9   NAME+1,,AUTO             cn=0,n=32

  17357 44 011723   000005 235007                    LDA     5,DL
        44 011724   200126 755100                    STA     NAME,,AUTO

  17358 44 011725   012202 710000 44                 TRA     s:17594

     1993    17360
     1994    17361    6              SELECT( %OP_DYFIN );

     1995    17362                     %LIBRARY_NAME( @NAME = "'DBFIN'" );

  17364 44 011726   040100 100400                    MLR     fill='040'O
        44 011727   000606 000005 42                 ADSC9   DSTATE_TYP+300           cn=0,n=5
        44 011730   200127 000040                    ADSC9   NAME+1,,AUTO             cn=0,n=32

  17365 44 011731   000005 235007                    LDA     5,DL
        44 011732   200126 755100                    STA     NAME,,AUTO

  17366 44 011733   012202 710000 44                 TRA     s:17594

     1996    17368
PL6.E3A0      #001=Z8HI$BURST File=Z8HI.:Z8A6TSI                                 SAT 08/09/97 13:19 Page:365
     1997    17369    6              SELECT( %OP_DYSTO );

     1998    17370                     %LIBRARY_NAME( @NAME = "'DBSTO'" );

  17372 44 011734   040100 100400                    MLR     fill='040'O
        44 011735   000610 000005 42                 ADSC9   DSTATE_TYP+302           cn=0,n=5
        44 011736   200127 000040                    ADSC9   NAME+1,,AUTO             cn=0,n=32

  17373 44 011737   000005 235007                    LDA     5,DL
        44 011740   200126 755100                    STA     NAME,,AUTO

  17374 44 011741   012202 710000 44                 TRA     s:17594

     1999    17376
     2000    17377    6              SELECT( %OP_DYERS );

     2001    17378                     %LIBRARY_NAME( @NAME = "'DBERS'" );

  17380 44 011742   040100 100400                    MLR     fill='040'O
        44 011743   000612 000005 42                 ADSC9   DSTATE_TYP+304           cn=0,n=5
        44 011744   200127 000040                    ADSC9   NAME+1,,AUTO             cn=0,n=32

  17381 44 011745   000005 235007                    LDA     5,DL
        44 011746   200126 755100                    STA     NAME,,AUTO

  17382 44 011747   012202 710000 44                 TRA     s:17594

     2002    17384
     2003    17385    6              SELECT( %OP_DYMOD );

     2004    17386                     %LIBRARY_NAME( @NAME = "'DBMOD'" );

  17388 44 011750   040100 100400                    MLR     fill='040'O
        44 011751   000614 000005 42                 ADSC9   DSTATE_TYP+306           cn=0,n=5
        44 011752   200127 000040                    ADSC9   NAME+1,,AUTO             cn=0,n=32

  17389 44 011753   000005 235007                    LDA     5,DL
PL6.E3A0      #001=Z8HI$BURST File=Z8HI.:Z8A6TSI                                 SAT 08/09/97 13:19 Page:366
        44 011754   200126 755100                    STA     NAME,,AUTO

  17390 44 011755   012202 710000 44                 TRA     s:17594

     2005    17392
     2006    17393    6              SELECT( %OP_DYCON );

     2007    17394                     %LIBRARY_NAME( @NAME = "'DBCON'" );

  17396 44 011756   040100 100400                    MLR     fill='040'O
        44 011757   000616 000005 42                 ADSC9   DSTATE_TYP+308           cn=0,n=5
        44 011760   200127 000040                    ADSC9   NAME+1,,AUTO             cn=0,n=32

  17397 44 011761   000005 235007                    LDA     5,DL
        44 011762   200126 755100                    STA     NAME,,AUTO

  17398 44 011763   012202 710000 44                 TRA     s:17594

     2008    17400
     2009    17401    6              SELECT( %OP_DYDIS );

     2010    17402                     %LIBRARY_NAME( @NAME = "'DBDIS'" );

  17404 44 011764   040100 100400                    MLR     fill='040'O
        44 011765   000620 000005 42                 ADSC9   DSTATE_TYP+310           cn=0,n=5
        44 011766   200127 000040                    ADSC9   NAME+1,,AUTO             cn=0,n=32

  17405 44 011767   000005 235007                    LDA     5,DL
        44 011770   200126 755100                    STA     NAME,,AUTO

  17406 44 011771   012202 710000 44                 TRA     s:17594

     2011    17408
     2012    17409    6              SELECT( %OP_DYACC );

     2013    17410                     %LIBRARY_NAME( @NAME = "'DBACC'" );

PL6.E3A0      #001=Z8HI$BURST File=Z8HI.:Z8A6TSI                                 SAT 08/09/97 13:19 Page:367
  17412 44 011772   040100 100400                    MLR     fill='040'O
        44 011773   000622 000005 42                 ADSC9   DSTATE_TYP+312           cn=0,n=5
        44 011774   200127 000040                    ADSC9   NAME+1,,AUTO             cn=0,n=32

  17413 44 011775   000005 235007                    LDA     5,DL
        44 011776   200126 755100                    STA     NAME,,AUTO

  17414 44 011777   012202 710000 44                 TRA     s:17594

     2014    17416
     2015    17417    6              SELECT( %OP_DYACN );

     2016    17418                     %LIBRARY_NAME( @NAME = "'DBACN'" );

  17420 44 012000   040100 100400                    MLR     fill='040'O
        44 012001   000624 000005 42                 ADSC9   DSTATE_TYP+314           cn=0,n=5
        44 012002   200127 000040                    ADSC9   NAME+1,,AUTO             cn=0,n=32

  17421 44 012003   000005 235007                    LDA     5,DL
        44 012004   200126 755100                    STA     NAME,,AUTO

  17422 44 012005   012202 710000 44                 TRA     s:17594

     2017    17424
     2018    17425    6              SELECT( %OP_DYIFT );

     2019    17426                     %LIBRARY_NAME( @NAME = "'DBIFT'" );

  17428 44 012006   040100 100400                    MLR     fill='040'O
        44 012007   000626 000005 42                 ADSC9   DSTATE_TYP+316           cn=0,n=5
        44 012010   200127 000040                    ADSC9   NAME+1,,AUTO             cn=0,n=32

  17429 44 012011   000005 235007                    LDA     5,DL
        44 012012   200126 755100                    STA     NAME,,AUTO

  17430 44 012013   012202 710000 44                 TRA     s:17594

PL6.E3A0      #001=Z8HI$BURST File=Z8HI.:Z8A6TSI                                 SAT 08/09/97 13:19 Page:368
     2020    17432
     2021    17433    6              SELECT( %OP_DYIST );

     2022    17434                     %LIBRARY_NAME( @NAME = "'DBIST'" );

  17436 44 012014   040100 100400                    MLR     fill='040'O
        44 012015   000630 000005 42                 ADSC9   DSTATE_TYP+318           cn=0,n=5
        44 012016   200127 000040                    ADSC9   NAME+1,,AUTO             cn=0,n=32

  17437 44 012017   000005 235007                    LDA     5,DL
        44 012020   200126 755100                    STA     NAME,,AUTO

  17438 44 012021   012202 710000 44                 TRA     s:17594

     2023    17440
     2024    17441    6              SELECT( %OP_DYIFM );

     2025    17442                     %LIBRARY_NAME( @NAME = "'DBIFM'" );

  17444 44 012022   040100 100400                    MLR     fill='040'O
        44 012023   000632 000005 42                 ADSC9   DSTATE_TYP+320           cn=0,n=5
        44 012024   200127 000040                    ADSC9   NAME+1,,AUTO             cn=0,n=32

  17445 44 012025   000005 235007                    LDA     5,DL
        44 012026   200126 755100                    STA     NAME,,AUTO

  17446 44 012027   012202 710000 44                 TRA     s:17594

     2026    17448
     2027    17449    6              SELECT( %OP_DYFKY );

     2028    17450                     %LIBRARY_NAME( @NAME = "'DBFKY'" );

  17452 44 012030   040100 100400                    MLR     fill='040'O
        44 012031   000634 000005 42                 ADSC9   DSTATE_TYP+322           cn=0,n=5
        44 012032   200127 000040                    ADSC9   NAME+1,,AUTO             cn=0,n=32

PL6.E3A0      #001=Z8HI$BURST File=Z8HI.:Z8A6TSI                                 SAT 08/09/97 13:19 Page:369
  17453 44 012033   000005 235007                    LDA     5,DL
        44 012034   200126 755100                    STA     NAME,,AUTO

  17454 44 012035   012202 710000 44                 TRA     s:17594

     2029    17456
     2030    17457    6              SELECT( %OP_DYFKC );

     2031    17458                     %LIBRARY_NAME( @NAME = "'DBFKC'" );

  17460 44 012036   040100 100400                    MLR     fill='040'O
        44 012037   000636 000005 42                 ADSC9   DSTATE_TYP+324           cn=0,n=5
        44 012040   200127 000040                    ADSC9   NAME+1,,AUTO             cn=0,n=32

  17461 44 012041   000005 235007                    LDA     5,DL
        44 012042   200126 755100                    STA     NAME,,AUTO

  17462 44 012043   012202 710000 44                 TRA     s:17594

     2032    17464
     2033    17465    6              SELECT( %OP_DYFDP );

     2034    17466                     %LIBRARY_NAME( @NAME = "'DBFDP'" );

  17468 44 012044   040100 100400                    MLR     fill='040'O
        44 012045   000640 000005 42                 ADSC9   DSTATE_TYP+326           cn=0,n=5
        44 012046   200127 000040                    ADSC9   NAME+1,,AUTO             cn=0,n=32

  17469 44 012047   000005 235007                    LDA     5,DL
        44 012050   200126 755100                    STA     NAME,,AUTO

  17470 44 012051   012202 710000 44                 TRA     s:17594

     2035    17472
     2036    17473    6              SELECT( %OP_DYFDC );

     2037    17474                     %LIBRARY_NAME( @NAME = "'DBFDC'" );
PL6.E3A0      #001=Z8HI$BURST File=Z8HI.:Z8A6TSI                                 SAT 08/09/97 13:19 Page:370

  17476 44 012052   040100 100400                    MLR     fill='040'O
        44 012053   000642 000005 42                 ADSC9   DSTATE_TYP+328           cn=0,n=5
        44 012054   200127 000040                    ADSC9   NAME+1,,AUTO             cn=0,n=32

  17477 44 012055   000005 235007                    LDA     5,DL
        44 012056   200126 755100                    STA     NAME,,AUTO

  17478 44 012057   012202 710000 44                 TRA     s:17594

     2038    17480
     2039    17481    6              SELECT( %OP_DYFCD );

     2040    17482                     %LIBRARY_NAME( @NAME = "'DBFCD'" );

  17484 44 012060   040100 100400                    MLR     fill='040'O
        44 012061   000644 000005 42                 ADSC9   DSTATE_TYP+330           cn=0,n=5
        44 012062   200127 000040                    ADSC9   NAME+1,,AUTO             cn=0,n=32

  17485 44 012063   000005 235007                    LDA     5,DL
        44 012064   200126 755100                    STA     NAME,,AUTO

  17486 44 012065   012202 710000 44                 TRA     s:17594

     2041    17488
     2042    17489    6              SELECT( %OP_DYFOR );

     2043    17490                     %LIBRARY_NAME( @NAME = "'DBFOR'" );

  17492 44 012066   040100 100400                    MLR     fill='040'O
        44 012067   000646 000005 42                 ADSC9   DSTATE_TYP+332           cn=0,n=5
        44 012070   200127 000040                    ADSC9   NAME+1,,AUTO             cn=0,n=32

  17493 44 012071   000005 235007                    LDA     5,DL
        44 012072   200126 755100                    STA     NAME,,AUTO

  17494 44 012073   012202 710000 44                 TRA     s:17594
PL6.E3A0      #001=Z8HI$BURST File=Z8HI.:Z8A6TSI                                 SAT 08/09/97 13:19 Page:371

     2044    17496
     2045    17497    6              SELECT( %OP_DYFCT );

     2046    17498                     %LIBRARY_NAME( @NAME = "'DYFCR'" );

  17500 44 012074   040100 100400                    MLR     fill='040'O
        44 012075   000650 000005 42                 ADSC9   DSTATE_TYP+334           cn=0,n=5
        44 012076   200127 000040                    ADSC9   NAME+1,,AUTO             cn=0,n=32

  17501 44 012077   000005 235007                    LDA     5,DL
        44 012100   200126 755100                    STA     NAME,,AUTO

  17502 44 012101   012202 710000 44                 TRA     s:17594

     2047    17504
     2048    17505    6              SELECT( %OP_DYFCR );

     2049    17506                     %LIBRARY_NAME( @NAME = "'DBFCR'" );

  17508 44 012102   040100 100400                    MLR     fill='040'O
        44 012103   000652 000005 42                 ADSC9   DSTATE_TYP+336           cn=0,n=5
        44 012104   200127 000040                    ADSC9   NAME+1,,AUTO             cn=0,n=32

  17509 44 012105   000005 235007                    LDA     5,DL
        44 012106   200126 755100                    STA     NAME,,AUTO

  17510 44 012107   012202 710000 44                 TRA     s:17594

     2050    17512
     2051    17513    6              SELECT( %OP_DYFAA );

     2052    17514                     %LIBRARY_NAME( @NAME = "'DBFAA'" );

  17516 44 012110   040100 100400                    MLR     fill='040'O
        44 012111   000654 000005 42                 ADSC9   DSTATE_TYP+338           cn=0,n=5
        44 012112   200127 000040                    ADSC9   NAME+1,,AUTO             cn=0,n=32
PL6.E3A0      #001=Z8HI$BURST File=Z8HI.:Z8A6TSI                                 SAT 08/09/97 13:19 Page:372

  17517 44 012113   000005 235007                    LDA     5,DL
        44 012114   200126 755100                    STA     NAME,,AUTO

  17518 44 012115   012202 710000 44                 TRA     s:17594

     2053    17520
     2054    17521    6              SELECT( %OP_DYFAS );

     2055    17522                     %LIBRARY_NAME( @NAME = "'DBFAS'" );

  17524 44 012116   040100 100400                    MLR     fill='040'O
        44 012117   000656 000005 42                 ADSC9   DSTATE_TYP+340           cn=0,n=5
        44 012120   200127 000040                    ADSC9   NAME+1,,AUTO             cn=0,n=32

  17525 44 012121   000005 235007                    LDA     5,DL
        44 012122   200126 755100                    STA     NAME,,AUTO

  17526 44 012123   012202 710000 44                 TRA     s:17594

     2056    17528
     2057    17529    6              SELECT( %OP_DYFRS );

     2058    17530                     %LIBRARY_NAME( @NAME = "'DBFRS'" );

  17532 44 012124   040100 100400                    MLR     fill='040'O
        44 012125   000660 000005 42                 ADSC9   DSTATE_TYP+342           cn=0,n=5
        44 012126   200127 000040                    ADSC9   NAME+1,,AUTO             cn=0,n=32

  17533 44 012127   000005 235007                    LDA     5,DL
        44 012130   200126 755100                    STA     NAME,,AUTO

  17534 44 012131   012202 710000 44                 TRA     s:17594

     2059    17536
     2060    17537    6              SELECT( %OP_DYFRA );

PL6.E3A0      #001=Z8HI$BURST File=Z8HI.:Z8A6TSI                                 SAT 08/09/97 13:19 Page:373
     2061    17538                     %LIBRARY_NAME( @NAME = "'DBFDR'" );

  17540 44 012132   040100 100400                    MLR     fill='040'O
        44 012133   000662 000005 42                 ADSC9   DSTATE_TYP+344           cn=0,n=5
        44 012134   200127 000040                    ADSC9   NAME+1,,AUTO             cn=0,n=32

  17541 44 012135   000005 235007                    LDA     5,DL
        44 012136   200126 755100                    STA     NAME,,AUTO

  17542 44 012137   012202 710000 44                 TRA     s:17594

     2062    17544
     2063    17545    6              SELECT( %OP_DYFDR );

     2064    17546                     %LIBRARY_NAME( @NAME = "'DBFDR'" );

  17548 44 012140   040100 100400                    MLR     fill='040'O
        44 012141   000662 000005 42                 ADSC9   DSTATE_TYP+344           cn=0,n=5
        44 012142   200127 000040                    ADSC9   NAME+1,,AUTO             cn=0,n=32

  17549 44 012143   000005 235007                    LDA     5,DL
        44 012144   200126 755100                    STA     NAME,,AUTO

  17550 44 012145   012202 710000 44                 TRA     s:17594

     2065    17552
     2066    17553    6              SELECT( %OP_DYGET );

     2067    17554                     %LIBRARY_NAME( @NAME = "'DBGET'" );

  17556 44 012146   040100 100400                    MLR     fill='040'O
        44 012147   000664 000005 42                 ADSC9   DSTATE_TYP+346           cn=0,n=5
        44 012150   200127 000040                    ADSC9   NAME+1,,AUTO             cn=0,n=32

  17557 44 012151   000005 235007                    LDA     5,DL
        44 012152   200126 755100                    STA     NAME,,AUTO

PL6.E3A0      #001=Z8HI$BURST File=Z8HI.:Z8A6TSI                                 SAT 08/09/97 13:19 Page:374
  17558 44 012153   012202 710000 44                 TRA     s:17594

     2068    17560
     2069    17561    6              SELECT( %OP_DYGTF );

     2070    17562                     %LIBRARY_NAME( @NAME = "'DBGTF'" );

  17564 44 012154   040100 100400                    MLR     fill='040'O
        44 012155   000666 000005 42                 ADSC9   DSTATE_TYP+348           cn=0,n=5
        44 012156   200127 000040                    ADSC9   NAME+1,,AUTO             cn=0,n=32

  17565 44 012157   000005 235007                    LDA     5,DL
        44 012160   200126 755100                    STA     NAME,,AUTO

  17566 44 012161   012202 710000 44                 TRA     s:17594

     2071    17568
     2072    17569    6              SELECT( %OP_DYFUI );

     2073    17570                     %LIBRARY_NAME( @NAME = "'DBFUI'" );

  17572 44 012162   040100 100400                    MLR     fill='040'O
        44 012163   000670 000005 42                 ADSC9   DSTATE_TYP+350           cn=0,n=5
        44 012164   200127 000040                    ADSC9   NAME+1,,AUTO             cn=0,n=32

  17573 44 012165   000005 235007                    LDA     5,DL
        44 012166   200126 755100                    STA     NAME,,AUTO

  17574 44 012167   012202 710000 44                 TRA     s:17594

     2074    17576
     2075    17577    6              SELECT( %OP_DYFRI );

     2076    17578                     %LIBRARY_NAME( @NAME = "'DBFRI'" );

  17580 44 012170   040100 100400                    MLR     fill='040'O
        44 012171   000672 000005 42                 ADSC9   DSTATE_TYP+352           cn=0,n=5
PL6.E3A0      #001=Z8HI$BURST File=Z8HI.:Z8A6TSI                                 SAT 08/09/97 13:19 Page:375
        44 012172   200127 000040                    ADSC9   NAME+1,,AUTO             cn=0,n=32

  17581 44 012173   000005 235007                    LDA     5,DL
        44 012174   200126 755100                    STA     NAME,,AUTO

  17582 44 012175   012202 710000 44                 TRA     s:17594

     2077    17584
     2078    17585    6              SELECT(ELSE);

     2079    17586    6                CALL Z8AE$ERROR(%E$UNEXPECTED_CASE);

  17586 44 012176   000043 630400 45                 EPPR0   35
        44 012177   000006 631400 45                 EPPR1   6
        44 012200   000000 701000 xent               TSX1    Z8AE$ERROR
        44 012201   000000 011000                    NOP     0

     2080    17587    6            END /* Select */;

     2081    17588
     2082    17589                 %NEW_DNT ( @POINTER = DNT$$ ,
     2083    17590                            @NAME    = "SUBSTR(NAME.TEXT, 0, NAME.SIZE)" ,
     2084    17591                            @SIZE    = NAME.SIZE );

  17594 44 012202   200126 236100                    LDQ     NAME,,AUTO
        44 012203   000025 036007                    ADLQ    21,DL
        44 012204   000004 506007                    DIV     4,DL
        44 012205   000000 756000 0                  STQ     ITERATION

  17595 44 012206   000002 036000 38                 ADLQ    DNT_+2
        44 012207   012222 604000 44                 TMI     s:17597
        44 012210   000003 116000 38                 CMPQ    DNT_+3
        44 012211   012222 602000 44                 TNC     s:17597

  17596 44 012212   000063 236000 45                 LDQ     51
        44 012213   200260 756100                    STQ     @TAG+2,,AUTO
        44 012214   200260 630500                    EPPR0   @TAG+2,,AUTO
PL6.E3A0      #001=Z8HI$BURST File=Z8HI.:Z8A6TSI                                 SAT 08/09/97 13:19 Page:376
        44 012215   200261 450500                    STP0    @TAG+3,,AUTO
        44 012216   200261 630500                    EPPR0   @TAG+3,,AUTO
        44 012217   000006 631400 45                 EPPR1   6
        44 012220   000000 701000 xent               TSX1    Z8AR$RESERVER
        44 012221   000000 011000                    NOP     0

  17597 44 012222   000002 236000 38                 LDQ     DNT_+2
        44 012223   000022 736000                    QLS     18
        44 012224   000001 036000 38                 ADLQ    DNT_+1
        44 012225   200235 756100                    STQ     DNT$$,,AUTO

  17598 44 012226   000002 236000 38                 LDQ     DNT_+2
        44 012227   000000 036000 0                  ADLQ    ITERATION
        44 012230   000002 756000 38                 STQ     DNT_+2

  17599 44 012231   001046 220003                    LDX0    550,DU
        44 012232   200235 470500                    LDP0    DNT$$,,AUTO
        44 012233   000000 740100                    STX0    0,,PR0

  17600 44 012234   000000 721000 0                  LXL1    ITERATION
        44 012235   000000 441100                    SXL1    0,,PR0

  17601 44 012236   200126 722100                    LXL2    NAME,,AUTO
        44 012237   000004 742100                    STX2    4,,PR0

  17604 44 012240   000007 236000 45                 LDQ     7
        44 012241   000001 756100                    STQ     1,,PR0

  17605 44 012242   000007 236000 45                 LDQ     7
        44 012243   000002 756100                    STQ     2,,PR0

  17606 44 012244   000000 223003                    LDX3    0,DU
        44 012245   000003 743100                    STX3    3,,PR0

  17607 44 012246   000000 224003                    LDX4    0,DU
        44 012247   000003 444100                    SXL4    3,,PR0

PL6.E3A0      #001=Z8HI$BURST File=Z8HI.:Z8A6TSI                                 SAT 08/09/97 13:19 Page:377
  17608 44 012250   200126 725100                    LXL5    NAME,,AUTO
        44 012251   040140 100540                    MLR     fill='040'O
        44 012252   200127 000015                    ADSC9   NAME+1,,AUTO             cn=0,n=*X5
        44 012253   000004 400012                    ADSC9   4,,PR0                   cn=2,n=*X2

     2085    17649
     2086    17650                 %NEW_SCALAR ( @ST$     = ST$$ ,
     2087    17651                               @COUNT =
             17651                                   COMCOM.OPERATOR_SEGMENT$ -> ETT.LOP ->  SEGMENT.COUNT ,
     2088    17652                               @DNT$    = DNT$$ ,
     2089    17653                               @TYPE    = %TYI ,
     2090    17654                               @SA      = LIB_SELECTION ,
     2091    17655                               @R       = %EXT_PROGRAM);

  17659 44 012254   000002 236000 26                 LDQ     ST_+2
        44 012255   000013 036007                    ADLQ    11,DL
        44 012256   000003 116000 26                 CMPQ    ST_+3
        44 012257   012270 604000 44                 TMI     s:17661

  17660 44 012260   000064 236000 45                 LDQ     52
        44 012261   200260 756100                    STQ     @TAG+2,,AUTO
        44 012262   200260 631500                    EPPR1   @TAG+2,,AUTO
        44 012263   200261 451500                    STP1    @TAG+3,,AUTO
        44 012264   200261 630500                    EPPR0   @TAG+3,,AUTO
        44 012265   000006 631400 45                 EPPR1   6
        44 012266   000000 701000 xent               TSX1    Z8AR$RESERVER
        44 012267   000000 011000                    NOP     0

  17661 44 012270   000002 236000 26                 LDQ     ST_+2
        44 012271   000022 736000                    QLS     18
        44 012272   000001 036000 26                 ADLQ    ST_+1
        44 012273   200233 756100                    STQ     ST$$,,AUTO

  17662 44 012274   000013 236007                    LDQ     11,DL
        44 012275   000002 056000 26                 ASQ     ST_+2

  17710 44 012276   000766 220003                    LDX0    502,DU
PL6.E3A0      #001=Z8HI$BURST File=Z8HI.:Z8A6TSI                                 SAT 08/09/97 13:19 Page:378
        44 012277   200233 470500                    LDP0    ST$$,,AUTO
        44 012300   000000 740100                    STX0    0,,PR0

  17711 44 012301   002000 236007                    LDQ     1024,DL
        44 012302   000000 552110                    STBQ    0,'10'O,PR0

  17712 44 012303   000426 471400 xsym               LDP1    COMCOM+278
        44 012304   100001 473500                    LDP3    1,,PR1
        44 012305   300000 236100                    LDQ     0,,PR3
        44 012306   000000 552104                    STBQ    0,'04'O,PR0

  17713 44 012307   200173 221100                    LDX1    LIB_SELECTION,,AUTO
        44 012310   000001 741100                    STX1    1,,PR0

  17714 44 012311   000000 222003                    LDX2    0,DU
        44 012312   000001 442100                    SXL2    1,,PR0

  17715 44 012313   000133 723000 xsym               LXL3    COMCOM+91
        44 012314   000002 443100                    SXL3    2,,PR0

  17716 44 012315   000003 450100                    STZ     3,,PR0

  17717 44 012316   000007 236000 45                 LDQ     7
        44 012317   000004 756100                    STQ     4,,PR0

  17718 44 012320   000007 236000 45                 LDQ     7
        44 012321   000005 756100                    STQ     5,,PR0

  17719 44 012322   000007 236000 45                 LDQ     7
        44 012323   000007 756100                    STQ     7,,PR0

  17720 44 012324   000010 742100                    STX2    8,,PR0

  17721 44 012325   777777 224003                    LDX4    -1,DU
        44 012326   000010 444100                    SXL4    8,,PR0

  17725 44 012327   000007 236000 45                 LDQ     7
PL6.E3A0      #001=Z8HI$BURST File=Z8HI.:Z8A6TSI                                 SAT 08/09/97 13:19 Page:379
        44 012330   000012 756100                    STQ     10,,PR0

  17751 44 012331   000001 225003                    LDX5    1,DU
        44 012332   000002 745100                    STX5    2,,PR0

  17756 44 012333   200235 236100                    LDQ     DNT$$,,AUTO
        44 012334   000006 756100                    STQ     6,,PR0

     2092    17842
     2093    17843    5            DNT$$ -> DNT.ST$ = ST$$;

  17843 44 012335   200233 236100                    LDQ     ST$$,,AUTO
        44 012336   200235 471500                    LDP1    DNT$$,,AUTO
        44 012337   100001 756100                    STQ     1,,PR1

     2094    17844
     2095    17845                 %NEW_ETT ( @ID       = %BASE ,
     2096    17846                            @POINTER  = "LIBRARY(LIB_SELECTION)" ,
     2097    17847                            @LOP      = ST$$ ,
     2098    17848                            @ROP      = COMCOM.OPERATOR_SEGMENT$ );

  17852 44 012340   000000 236000 20                 LDQ     HEAD_ETT$
        44 012341   000007 116000 45                 CMPQ    7
        44 012342   012367 601000 44                 TNZ     s:17864

  17854 44 012343   000002 236000 22                 LDQ     ETT_+2
        44 012344   000005 036007                    ADLQ    5,DL
        44 012345   000003 116000 22                 CMPQ    ETT_+3
        44 012346   012357 604000 44                 TMI     s:17856

  17855 44 012347   000014 236000 45                 LDQ     12
        44 012350   200260 756100                    STQ     @TAG+2,,AUTO
        44 012351   200260 633500                    EPPR3   @TAG+2,,AUTO
        44 012352   200261 453500                    STP3    @TAG+3,,AUTO
        44 012353   200261 630500                    EPPR0   @TAG+3,,AUTO
        44 012354   000006 631400 45                 EPPR1   6
        44 012355   000000 701000 xent               TSX1    Z8AR$RESERVER
PL6.E3A0      #001=Z8HI$BURST File=Z8HI.:Z8A6TSI                                 SAT 08/09/97 13:19 Page:380
        44 012356   000000 011000                    NOP     0

  17856 44 012357   000002 236000 22                 LDQ     ETT_+2
        44 012360   000022 736000                    QLS     18
        44 012361   000001 036000 22                 ADLQ    ETT_+1
        44 012362   200173 220100                    LDX0    LIB_SELECTION,,AUTO
        44 012363   000005 756010 3                  STQ     LIBRARY,X0

  17857 44 012364   000005 236007                    LDQ     5,DL
        44 012365   000002 056000 22                 ASQ     ETT_+2

  17858 44 012366   012373 710000 44                 TRA     s:17874

  17864 44 012367   000005 756011 3                  STQ     LIBRARY,X1

  17865 44 012370   000000 473400 20                 LDP3    HEAD_ETT$
        44 012371   300003 236100                    LDQ     3,,PR3
        44 012372   000000 756000 20                 STQ     HEAD_ETT$

  17874 44 012373   200173 220100                    LDX0    LIB_SELECTION,,AUTO
        44 012374   000005 470410 3                  LDP0    LIBRARY,X0
        44 012375   000001 221003                    LDX1    1,DU
        44 012376   000000 741100                    STX1    0,,PR0

  17879 44 012377   200233 236100                    LDQ     ST$$,,AUTO
        44 012400   000001 756100                    STQ     1,,PR0

  17885 44 012401   000426 236000 xsym               LDQ     COMCOM+278
        44 012402   000002 756100                    STQ     2,,PR0

  17890 44 012403   000000 222003                    LDX2    0,DU
        44 012404   000004 442100                    SXL2    4,,PR0

  17891 44 012405   000065 236000 45                 LDQ     53
        44 012406   000004 356100                    ANSQ    4,,PR0

  17892 44 012407   000000 223003                    LDX3    0,DU
PL6.E3A0      #001=Z8HI$BURST File=Z8HI.:Z8A6TSI                                 SAT 08/09/97 13:19 Page:381
        44 012410   000000 443100                    SXL3    0,,PR0

  17893 44 012411   000004 743100                    STX3    4,,PR0

  17894 44 012412   000007 236000 45                 LDQ     7
        44 012413   000003 756100                    STQ     3,,PR0

     2099    17918    5          END /* If */;

     2100    17919
     2101    17920    4        PCOM_.OPND(PC.OPND2) = LIBRARY(LIB_SELECTION);

  17920 44 012414   200173 220100                    LDX0    LIB_SELECTION,,AUTO
        44 012415   000005 236010 3                  LDQ     LIBRARY,X0
        44 012416   200151 221100                    LDX1    PC+1,,AUTO
        44 012417   200043 756111                    STQ     PCOM+26,X1,AUTO
        44 012420   016024 710000 44                 TRA     s:19025

     2102    17921
     2103    17922        %EJECT;
PL6.E3A0      #001=Z8HI$BURST File=Z8HI.:Z8A6TSI                                 SAT 08/09/97 13:19 Page:382
     2104    17923    4   CASE(%MAPT);

     2105    17924        /*V*
     2106    17925
     2107    17926                           MAPT
     2108    17927
     2109    17928
     2110    17929        EXAMPLES::
     2111    17930             MAPT   FREE,OPMOD  MAP LAST FREED REGISTER ONTO OPCODE
     2112    17931             MAPT   *,TAGMOD    MAP CURRENT TRIAD ONTO TAG
     2113    17932             MAPT   LOP,TAGMOD  MAP REGISTER CONTAINING LOP ONTO TAG
     2114    17933
     2115    17934
     2116    17935             THIS DIRECTIVE TAKES A REGISTER (SPECIFIED BY THE FIRST
     2117    17936           PARAMETER), AND MAPS IT (OR 'ORS' IT) OVER THE PORTION OF
     2118    17937           THE NEXT GENERATED WORD SPECIFIED BY THE SECOND PARAMETER.
     2119    17938           E.G. OPCODE MODIFICATION OR REGISTER TAG MODIFICATION.
     2120    17939
     2121    17940        */
     2122    17941
     2123    17942    4        INST_WORD = '0'O;

  17942 44 012421   200075 450100                    STZ     INST_WORD,,AUTO

     2124    17943
     2125    17944    5        DO CASE(PC.OPND1);

  17944 44 012422   200150 236100                    LDQ     PC,,AUTO
        44 012423   777777 376007                    ANQ     -1,DL
        44 012424   000004 136007                    SBLQ    4,DL
        44 012425   000051 116007                    CMPQ    41,DL
        44 012426   012430 602006 44                 TNC     s:17944+6,QL
        44 012427   012566 710000 44                 TRA     s:17976
        44 012430   012501 710000 44                 TRA     s:17946
        44 012431   012566 710000 44                 TRA     s:17976
        44 012432   012566 710000 44                 TRA     s:17976
        44 012433   012566 710000 44                 TRA     s:17976
PL6.E3A0      #001=Z8HI$BURST File=Z8HI.:Z8A6TSI                                 SAT 08/09/97 13:19 Page:383
        44 012434   012566 710000 44                 TRA     s:17976
        44 012435   012566 710000 44                 TRA     s:17976
        44 012436   012566 710000 44                 TRA     s:17976
        44 012437   012566 710000 44                 TRA     s:17976
        44 012440   012566 710000 44                 TRA     s:17976
        44 012441   012566 710000 44                 TRA     s:17976
        44 012442   012566 710000 44                 TRA     s:17976
        44 012443   012566 710000 44                 TRA     s:17976
        44 012444   012504 710000 44                 TRA     s:17949
        44 012445   012566 710000 44                 TRA     s:17976
        44 012446   012566 710000 44                 TRA     s:17976
        44 012447   012566 710000 44                 TRA     s:17976
        44 012450   012566 710000 44                 TRA     s:17976
        44 012451   012566 710000 44                 TRA     s:17976
        44 012452   012566 710000 44                 TRA     s:17976
        44 012453   012566 710000 44                 TRA     s:17976
        44 012454   012566 710000 44                 TRA     s:17976
        44 012455   012566 710000 44                 TRA     s:17976
        44 012456   012566 710000 44                 TRA     s:17976
        44 012457   012566 710000 44                 TRA     s:17976
        44 012460   012507 710000 44                 TRA     s:17952
        44 012461   012566 710000 44                 TRA     s:17976
        44 012462   012566 710000 44                 TRA     s:17976
        44 012463   012512 710000 44                 TRA     s:17955
        44 012464   012512 710000 44                 TRA     s:17955
        44 012465   012512 710000 44                 TRA     s:17955
        44 012466   012521 710000 44                 TRA     s:17958
        44 012467   012521 710000 44                 TRA     s:17958
        44 012470   012521 710000 44                 TRA     s:17958
        44 012471   012542 710000 44                 TRA     s:17967
        44 012472   012542 710000 44                 TRA     s:17967
        44 012473   012550 710000 44                 TRA     s:17970
        44 012474   012530 710000 44                 TRA     s:17961
        44 012475   012535 710000 44                 TRA     s:17964
        44 012476   012566 710000 44                 TRA     s:17976
        44 012477   012566 710000 44                 TRA     s:17976
        44 012500   012535 710000 44                 TRA     s:17964
PL6.E3A0      #001=Z8HI$BURST File=Z8HI.:Z8A6TSI                                 SAT 08/09/97 13:19 Page:384

     2126    17945    5          CASE(%AR);

     2127    17946    5            REGISTER = LAST_FREED_AR;

  17946 44 012501   200157 235100                    LDA     LAST_FREED_AR,,AUTO
        44 012502   200156 755100                    STA     REGISTER,,AUTO
        44 012503   012571 710000 44                 TRA     s:17980

     2128    17947
     2129    17948    5          CASE(%XR);

     2130    17949    5            REGISTER = LAST_FREED_XR;

  17949 44 012504   200160 235100                    LDA     LAST_FREED_XR,,AUTO
        44 012505   200156 755100                    STA     REGISTER,,AUTO
        44 012506   012571 710000 44                 TRA     s:17980

     2131    17950
     2132    17951    5          CASE(%PR);

     2133    17952    5            REGISTER = LAST_FREED_PR;

  17952 44 012507   200161 235100                    LDA     LAST_FREED_PR,,AUTO
        44 012510   200156 755100                    STA     REGISTER,,AUTO
        44 012511   012571 710000 44                 TRA     s:17980

     2134    17953
     2135    17954    5          CASE(%ARLOP, %XRLOP, %PRLOP);

     2136    17955    5            REGISTER = PILL -> ETT.LOP -> ETT.STATE;

  17955 44 012512   200003 471500                    LDP1    @PILL,,AUTO
        44 012513   100000 473500                    LDP3    0,,PR1
        44 012514   300001 474500                    LDP4    1,,PR3
        44 012515   400004 236100                    LDQ     4,,PR4
        44 012516   000022 772000                    QRL     18
PL6.E3A0      #001=Z8HI$BURST File=Z8HI.:Z8A6TSI                                 SAT 08/09/97 13:19 Page:385
        44 012517   200156 756100                    STQ     REGISTER,,AUTO
        44 012520   012571 710000 44                 TRA     s:17980

     2137    17956
     2138    17957    5          CASE(%ARROP, %XRROP, %PRROP);

     2139    17958    5            REGISTER = PILL -> ETT.ROP -> ETT.STATE;

  17958 44 012521   200003 471500                    LDP1    @PILL,,AUTO
        44 012522   100000 473500                    LDP3    0,,PR1
        44 012523   300002 474500                    LDP4    2,,PR3
        44 012524   400004 236100                    LDQ     4,,PR4
        44 012525   000022 772000                    QRL     18
        44 012526   200156 756100                    STQ     REGISTER,,AUTO
        44 012527   012571 710000 44                 TRA     s:17980

     2140    17959
     2141    17960    5          CASE(%XRIOPND); /*#37128*/

     2142    17961    5            REGISTER = PCOM.IOPND -> ETT.STATE;

  17961 44 012530   200053 471500                    LDP1    PCOM+34,,AUTO
        44 012531   100004 236100                    LDQ     4,,PR1
        44 012532   000022 772000                    QRL     18
        44 012533   200156 756100                    STQ     REGISTER,,AUTO
        44 012534   012571 710000 44                 TRA     s:17980

     2143    17962
     2144    17963    5          CASE(%ARROPND, %XRROPND);

     2145    17964    5            REGISTER = PCOM.ROPND -> ETT.STATE;

  17964 44 012535   200064 471500                    LDP1    PCOM+43,,AUTO
        44 012536   100004 236100                    LDQ     4,,PR1
        44 012537   000022 772000                    QRL     18
        44 012540   200156 756100                    STQ     REGISTER,,AUTO
        44 012541   012571 710000 44                 TRA     s:17980
PL6.E3A0      #001=Z8HI$BURST File=Z8HI.:Z8A6TSI                                 SAT 08/09/97 13:19 Page:386

     2146    17965
     2147    17966    5          CASE(%ARSTAR, %XRSTAR);

     2148    17967    5            REGISTER = PILL -> ETT.STATE;

  17967 44 012542   200003 471500                    LDP1    @PILL,,AUTO
        44 012543   100000 473500                    LDP3    0,,PR1
        44 012544   300004 236100                    LDQ     4,,PR3
        44 012545   000022 772000                    QRL     18
        44 012546   200156 756100                    STQ     REGISTER,,AUTO
        44 012547   012571 710000 44                 TRA     s:17980

     2149    17968
     2150    17969    5          CASE(%PRSTAR);

     2151    17970    5            IF PILL -> ILL.ID = %MVPP THEN

  17970 44 012550   200003 471500                    LDP1    @PILL,,AUTO
        44 012551   100000 473500                    LDP3    0,,PR1
        44 012552   300000 221100                    LDX1    0,,PR3
        44 012553   000275 101003                    CMPX1   189,DU
        44 012554   012562 601000 44                 TNZ     s:17973

     2152    17971    5              REGISTER = MVPP.STAR$ -> ETT.STATE;

  17971 44 012555   000000 474400 43                 LDP4    MVPP
        44 012556   400004 236100                    LDQ     4,,PR4
        44 012557   000022 772000                    QRL     18
        44 012560   200156 756100                    STQ     REGISTER,,AUTO
        44 012561   012571 710000 44                 TRA     s:17980

     2153    17972    5            ELSE
     2154    17973    5              REGISTER = PILL -> ETT.STATE;

  17973 44 012562   300004 236100                    LDQ     4,,PR3
        44 012563   000022 772000                    QRL     18
PL6.E3A0      #001=Z8HI$BURST File=Z8HI.:Z8A6TSI                                 SAT 08/09/97 13:19 Page:387
        44 012564   200156 756100                    STQ     REGISTER,,AUTO
        44 012565   012571 710000 44                 TRA     s:17980

     2155    17974
     2156    17975    5          CASE(ELSE);

     2157    17976    5            REGISTER = PC.OPND1;

  17976 44 012566   200150 236100                    LDQ     PC,,AUTO
        44 012567   777777 376007                    ANQ     -1,DL
        44 012570   200156 756100                    STQ     REGISTER,,AUTO

     2158    17977
     2159    17978    5        END /* Case */;

     2160    17979
     2161    17980    5        DO CASE(PC.OPND2);

  17980 44 012571   200151 221100                    LDX1    PC+1,,AUTO
        44 012572   000005 101003                    CMPX1   5,DU
        44 012573   012575 602011 44                 TNC     s:17980+4,X1
        44 012574   013074 710000 44                 TRA     s:18066
        44 012575   012602 710000 44                 TRA     s:17982
        44 012576   012663 710000 44                 TRA     s:17993
        44 012577   013013 710000 44                 TRA     s:18032
        44 012600   013051 710000 44                 TRA     s:18052
        44 012601   013072 710000 44                 TRA     s:18063

     2162    17981    5          CASE(%OPMOD);

     2163    17982    6            DO CASE(REGISTER);

  17982 44 012602   200156 235100                    LDA     REGISTER,,AUTO
        44 012603   000034 115007                    CMPA    28,DL
        44 012604   012606 602005 44                 TNC     s:17982+4,AL
        44 012605   013074 710000 44                 TRA     s:18066
        44 012606   012662 710000 44                 TRA     s:17990
PL6.E3A0      #001=Z8HI$BURST File=Z8HI.:Z8A6TSI                                 SAT 08/09/97 13:19 Page:388
        44 012607   012662 710000 44                 TRA     s:17990
        44 012610   012662 710000 44                 TRA     s:17990
        44 012611   012662 710000 44                 TRA     s:17990
        44 012612   012662 710000 44                 TRA     s:17990
        44 012613   012662 710000 44                 TRA     s:17990
        44 012614   012642 710000 44                 TRA     s:17985
        44 012615   012662 710000 44                 TRA     s:17990
        44 012616   012645 710000 44                 TRA     s:17987
        44 012617   012645 710000 44                 TRA     s:17987
        44 012620   012645 710000 44                 TRA     s:17987
        44 012621   012645 710000 44                 TRA     s:17987
        44 012622   012645 710000 44                 TRA     s:17987
        44 012623   012645 710000 44                 TRA     s:17987
        44 012624   012645 710000 44                 TRA     s:17987
        44 012625   012645 710000 44                 TRA     s:17987
        44 012626   012662 710000 44                 TRA     s:17990
        44 012627   012662 710000 44                 TRA     s:17990
        44 012630   012662 710000 44                 TRA     s:17990
        44 012631   012662 710000 44                 TRA     s:17990
        44 012632   012654 710000 44                 TRA     s:17989
        44 012633   012654 710000 44                 TRA     s:17989
        44 012634   012654 710000 44                 TRA     s:17989
        44 012635   012654 710000 44                 TRA     s:17989
        44 012636   012654 710000 44                 TRA     s:17989
        44 012637   012654 710000 44                 TRA     s:17989
        44 012640   012654 710000 44                 TRA     s:17989
        44 012641   012654 710000 44                 TRA     s:17989

     2164    17983    6              CASE(%OPTIMIZE_THIS_CASE);

     2165    17984    6              CASE(%ARQ);

     2166    17985    6                AORQ = TRUE;

  17985 44 012642   400000 236003                    LDQ     -131072,DU
        44 012643   200010 756100                    STQ     AORQ,,AUTO
        44 012644   013074 710000 44                 TRA     s:18066
PL6.E3A0      #001=Z8HI$BURST File=Z8HI.:Z8A6TSI                                 SAT 08/09/97 13:19 Page:389

     2167    17986    6              CASE(%XR0, %XR1, %XR2,%XR3,%XR4,%XR5,%XR6,%XR7);

     2168    17987    6                INST_WORD.LOW.CODE.REG = REGISTER - 8;

  17987 44 012645   200156 236100                    LDQ     REGISTER,,AUTO
        44 012646   000010 136007                    SBLQ    8,DL
        44 012647   000011 736000                    QLS     9
        44 012650   200075 676100                    ERQ     INST_WORD,,AUTO
        44 012651   007000 376007                    ANQ     3584,DL
        44 012652   200075 656100                    ERSQ    INST_WORD,,AUTO
        44 012653   013074 710000 44                 TRA     s:18066

     2169    17988    6              CASE(%PR0, %PR1, %PR2,%PR3,%PR4,%PR5,%PR6,%PR7);

     2170    17989    6                INST_WORD.LOW.CODE.REG = REGISTER - 20;

  17989 44 012654   200156 236100                    LDQ     REGISTER,,AUTO
        44 012655   000024 136007                    SBLQ    20,DL
        44 012656   000011 736000                    QLS     9
        44 012657   200075 676100                    ERQ     INST_WORD,,AUTO
        44 012660   007000 376007                    ANQ     3584,DL
        44 012661   200075 656100                    ERSQ    INST_WORD,,AUTO

     2171    17990    6            END /* Case */;

  17990 44 012662   013074 710000 44                 TRA     s:18066

     2172    17991
     2173    17992    5          CASE(%TAGMOD);

     2174    17993    6            DO CASE(REGISTER);

  17993 44 012663   200156 235100                    LDA     REGISTER,,AUTO
        44 012664   000034 115007                    CMPA    28,DL
        44 012665   012667 602005 44                 TNC     s:17993+4,AL
        44 012666   013074 710000 44                 TRA     s:18066
PL6.E3A0      #001=Z8HI$BURST File=Z8HI.:Z8A6TSI                                 SAT 08/09/97 13:19 Page:390
        44 012667   013012 710000 44                 TRA     s:18029
        44 012670   013012 710000 44                 TRA     s:18029
        44 012671   013012 710000 44                 TRA     s:18029
        44 012672   013012 710000 44                 TRA     s:18029
        44 012673   013012 710000 44                 TRA     s:18029
        44 012674   012723 710000 44                 TRA     s:17997
        44 012675   012723 710000 44                 TRA     s:17997
        44 012676   013012 710000 44                 TRA     s:18029
        44 012677   012723 710000 44                 TRA     s:17997
        44 012700   012723 710000 44                 TRA     s:17997
        44 012701   012723 710000 44                 TRA     s:17997
        44 012702   012723 710000 44                 TRA     s:17997
        44 012703   012723 710000 44                 TRA     s:17997
        44 012704   012723 710000 44                 TRA     s:17997
        44 012705   012723 710000 44                 TRA     s:17997
        44 012706   012723 710000 44                 TRA     s:17997
        44 012707   013012 710000 44                 TRA     s:18029
        44 012710   013012 710000 44                 TRA     s:18029
        44 012711   013012 710000 44                 TRA     s:18029
        44 012712   013012 710000 44                 TRA     s:18029
        44 012713   012761 710000 44                 TRA     s:18013
        44 012714   012761 710000 44                 TRA     s:18013
        44 012715   012761 710000 44                 TRA     s:18013
        44 012716   012761 710000 44                 TRA     s:18013
        44 012717   012761 710000 44                 TRA     s:18013
        44 012720   012761 710000 44                 TRA     s:18013
        44 012721   012761 710000 44                 TRA     s:18013
        44 012722   012761 710000 44                 TRA     s:18013

     2175    17994    6              CASE(%OPTIMIZE_THIS_CASE);

     2176    17995    6              CASE(%ARA, %ARQ,

     2177    17996    6                   %XR0, %XR1, %XR2,%XR3,%XR4,%XR5,%XR6,%XR7);
     2178    17997    7                DO CASE(DEFER_BUFFER_IDX);

  17997 44 012723   200122 236100                    LDQ     DEFER_BUFFER_IDX,,AUTO
PL6.E3A0      #001=Z8HI$BURST File=Z8HI.:Z8A6TSI                                 SAT 08/09/97 13:19 Page:391
        44 012724   000004 116007                    CMPQ    4,DL
        44 012725   012727 602006 44                 TNC     s:17997+4,QL
        44 012726   013074 710000 44                 TRA     s:18066
        44 012727   012733 710000 44                 TRA     s:17999
        44 012730   012740 710000 44                 TRA     s:18002
        44 012731   012745 710000 44                 TRA     s:18005
        44 012732   012753 710000 44                 TRA     s:18008

     2179    17998    7                  CASE(0);

     2180    17999    7                    INST_WORD.LOW.MF.TAG = REGISTER;

  17999 44 012733   200156 236100                    LDQ     REGISTER,,AUTO
        44 012734   200075 676100                    ERQ     INST_WORD,,AUTO
        44 012735   000017 376007                    ANQ     15,DL
        44 012736   200075 656100                    ERSQ    INST_WORD,,AUTO
        44 012737   013074 710000 44                 TRA     s:18066

     2181    18000
     2182    18001    7                  CASE(1);

     2183    18002    7                    DEFER_BUFFER.MW.MF1.TAG(0) = REGISTER;

  18002 44 012740   200156 236100                    LDQ     REGISTER,,AUTO
        44 012741   200101 676100                    ERQ     DEFER_BUFFER+3,,AUTO
        44 012742   000017 376007                    ANQ     15,DL
        44 012743   200101 656100                    ERSQ    DEFER_BUFFER+3,,AUTO
        44 012744   013074 710000 44                 TRA     s:18066

     2184    18003
     2185    18004    7                  CASE(2);

     2186    18005    7                    DEFER_BUFFER.MW.MF2.TAG(0) = REGISTER;

  18005 44 012745   200156 236100                    LDQ     REGISTER,,AUTO
        44 012746   000022 736000                    QLS     18
        44 012747   200101 676100                    ERQ     DEFER_BUFFER+3,,AUTO
PL6.E3A0      #001=Z8HI$BURST File=Z8HI.:Z8A6TSI                                 SAT 08/09/97 13:19 Page:392
        44 012750   000017 376003                    ANQ     15,DU
        44 012751   200101 656100                    ERSQ    DEFER_BUFFER+3,,AUTO
        44 012752   013074 710000 44                 TRA     s:18066

     2187    18006
     2188    18007    7                  CASE(3);

     2189    18008    7                    DEFER_BUFFER.MW.MF3.TAG(0) = REGISTER;

  18008 44 012753   200156 236100                    LDQ     REGISTER,,AUTO
        44 012754   000033 736000                    QLS     27
        44 012755   200101 676100                    ERQ     DEFER_BUFFER+3,,AUTO
        44 012756   017000 376003                    ANQ     7680,DU
        44 012757   200101 656100                    ERSQ    DEFER_BUFFER+3,,AUTO

     2190    18009
     2191    18010    7                END /* Case */;

  18010 44 012760   013074 710000 44                 TRA     s:18066

     2192    18011
     2193    18012    6              CASE(%PR0, %PR1, %PR2,%PR3,%PR4,%PR5,%PR6,%PR7);

     2194    18013    6                INST_WORD.Y.AR# = (REGISTER - 20);

  18013 44 012761   200156 236100                    LDQ     REGISTER,,AUTO
        44 012762   000024 136007                    SBLQ    20,DL
        44 012763   000041 736000                    QLS     33
        44 012764   200075 676100                    ERQ     INST_WORD,,AUTO
        44 012765   700000 376003                    ANQ     -32768,DU
        44 012766   200075 656100                    ERSQ    INST_WORD,,AUTO

     2195    18014
     2196    18015    7                DO CASE(DEFER_BUFFER_IDX);

  18015 44 012767   200122 236100                    LDQ     DEFER_BUFFER_IDX,,AUTO
        44 012770   000004 116007                    CMPQ    4,DL
PL6.E3A0      #001=Z8HI$BURST File=Z8HI.:Z8A6TSI                                 SAT 08/09/97 13:19 Page:393
        44 012771   012773 602006 44                 TNC     s:18015+4,QL
        44 012772   013074 710000 44                 TRA     s:18066
        44 012773   012777 710000 44                 TRA     s:18017
        44 012774   013002 710000 44                 TRA     s:18020
        44 012775   013005 710000 44                 TRA     s:18023
        44 012776   013010 710000 44                 TRA     s:18026

     2197    18016    7                  CASE(0);

     2198    18017    7                    INST_WORD.LOW.MF.AR = TRUE;

  18017 44 012777   000100 236007                    LDQ     64,DL
        44 013000   200075 256100                    ORSQ    INST_WORD,,AUTO
        44 013001   013074 710000 44                 TRA     s:18066

     2199    18018
     2200    18019    7                  CASE(1);

     2201    18020    7                    DEFER_BUFFER.MW.MF1.AR(0) = TRUE;

  18020 44 013002   000100 236007                    LDQ     64,DL
        44 013003   200101 256100                    ORSQ    DEFER_BUFFER+3,,AUTO
        44 013004   013074 710000 44                 TRA     s:18066

     2202    18021
     2203    18022    7                  CASE(2);

     2204    18023    7                    DEFER_BUFFER.MW.MF2.AR(0) = TRUE;

  18023 44 013005   000100 236003                    LDQ     64,DU
        44 013006   200101 256100                    ORSQ    DEFER_BUFFER+3,,AUTO
        44 013007   013074 710000 44                 TRA     s:18066

     2205    18024
     2206    18025    7                  CASE(3);

     2207    18026    7                    DEFER_BUFFER.MW.MF3.AR(0) = TRUE;
PL6.E3A0      #001=Z8HI$BURST File=Z8HI.:Z8A6TSI                                 SAT 08/09/97 13:19 Page:394

  18026 44 013010   100000 236003                    LDQ     32768,DU
        44 013011   200101 256100                    ORSQ    DEFER_BUFFER+3,,AUTO

     2208    18027
     2209    18028    7                END /* Case */;

     2210    18029    6            END /* Case */;

  18029 44 013012   013074 710000 44                 TRA     s:18066

     2211    18030
     2212    18031    5          CASE(%LENMOD);

     2213    18032    6            DO CASE(DEFER_BUFFER_IDX);

  18032 44 013013   200122 235100                    LDA     DEFER_BUFFER_IDX,,AUTO
        44 013014   000004 115007                    CMPA    4,DL
        44 013015   013017 602005 44                 TNC     s:18032+4,AL
        44 013016   013074 710000 44                 TRA     s:18066
        44 013017   013023 710000 44                 TRA     s:18037
        44 013020   013032 710000 44                 TRA     s:18039
        44 013021   013037 710000 44                 TRA     s:18043
        44 013022   013044 710000 44                 TRA     s:18047

     2214    18033    6              CASE(0);

     2215    18034                       /*  This is a special case that we want the bit 29
     2216    18035                           (MF.AR) off when still doing a PR address
     2217    18036                          modification, ie. it is actually the TAGMOD case. */
     2218    18037    6                INST_WORD.Y.AR# = (REGISTER - 20);

  18037 44 013023   200156 236100                    LDQ     REGISTER,,AUTO
        44 013024   000024 136007                    SBLQ    20,DL
        44 013025   000041 736000                    QLS     33
        44 013026   200075 676100                    ERQ     INST_WORD,,AUTO
        44 013027   700000 376003                    ANQ     -32768,DU
PL6.E3A0      #001=Z8HI$BURST File=Z8HI.:Z8A6TSI                                 SAT 08/09/97 13:19 Page:395
        44 013030   200075 656100                    ERSQ    INST_WORD,,AUTO
        44 013031   013074 710000 44                 TRA     s:18066

     2219    18038    6              CASE(1);

     2220    18039    6                DEFER_BUFFER.MW.MF1.RL(0) = TRUE;

  18039 44 013032   000040 236007                    LDQ     32,DL
        44 013033   200101 256100                    ORSQ    DEFER_BUFFER+3,,AUTO

     2221    18040    6                INST_WORD.NDSC.N = REGISTER;

  18040 44 013034   200156 236100                    LDQ     REGISTER,,AUTO
        44 013035   200075 752101                    STCQ    INST_WORD,'01'O,AUTO
        44 013036   013074 710000 44                 TRA     s:18066

     2222    18041
     2223    18042    6              CASE(2);

     2224    18043    6                DEFER_BUFFER.MW.MF2.RL(0) = TRUE;

  18043 44 013037   000040 236003                    LDQ     32,DU
        44 013040   200101 256100                    ORSQ    DEFER_BUFFER+3,,AUTO

     2225    18044    6                INST_WORD.NDSC.N = REGISTER;

  18044 44 013041   200156 236100                    LDQ     REGISTER,,AUTO
        44 013042   200075 752101                    STCQ    INST_WORD,'01'O,AUTO
        44 013043   013074 710000 44                 TRA     s:18066

     2226    18045
     2227    18046    6              CASE(3);

     2228    18047    6                DEFER_BUFFER.MW.MF3.RL(0) = TRUE;

  18047 44 013044   040000 236003                    LDQ     16384,DU
        44 013045   200101 256100                    ORSQ    DEFER_BUFFER+3,,AUTO
PL6.E3A0      #001=Z8HI$BURST File=Z8HI.:Z8A6TSI                                 SAT 08/09/97 13:19 Page:396

     2229    18048    6                INST_WORD.NDSC.N = REGISTER;

  18048 44 013046   200156 236100                    LDQ     REGISTER,,AUTO
        44 013047   200075 752101                    STCQ    INST_WORD,'01'O,AUTO

     2230    18049    6            END /* Case */;

  18049 44 013050   013074 710000 44                 TRA     s:18066

     2231    18050
     2232    18051    5          CASE(%RECR);

     2233    18052    6              DO CASE( REGISTER );

  18052 44 013051   200156 235100                    LDA     REGISTER,,AUTO
        44 013052   000005 135007                    SBLA    5,DL
        44 013053   000002 115007                    CMPA    2,DL
        44 013054   013056 602005 44                 TNC     s:18052+5,AL
        44 013055   013074 710000 44                 TRA     s:18066
        44 013056   013060 710000 44                 TRA     s:18055
        44 013057   013065 710000 44                 TRA     s:18058

     2234    18053
     2235    18054    6                CASE( %ARA );

     2236    18055    6                  INST_WORD.ELS.RECR = 1;

  18055 44 013060   200075 236100                    LDQ     INST_WORD,,AUTO
        44 013061   000066 376000 45                 ANQ     54
        44 013062   000001 276003                    ORQ     1,DU
        44 013063   200075 756100                    STQ     INST_WORD,,AUTO
        44 013064   013074 710000 44                 TRA     s:18066

     2237    18056
     2238    18057    6                CASE( %ARQ );

PL6.E3A0      #001=Z8HI$BURST File=Z8HI.:Z8A6TSI                                 SAT 08/09/97 13:19 Page:397
     2239    18058    6                  INST_WORD.ELS.RECR = 2;

  18058 44 013065   200075 236100                    LDQ     INST_WORD,,AUTO
        44 013066   000066 376000 45                 ANQ     54
        44 013067   000002 276003                    ORQ     2,DU
        44 013070   200075 756100                    STQ     INST_WORD,,AUTO

     2240    18059
     2241    18060    6              END;

  18060 44 013071   013074 710000 44                 TRA     s:18066

     2242    18061
     2243    18062    5          CASE(%TRAMOD);

     2244    18063    5              INST_WORD.SA = PCOM.JABS;

  18063 44 013072   200022 722100                    LXL2    PCOM+9,,AUTO
        44 013073   200075 742100                    STX2    INST_WORD,,AUTO

     2245    18064    5        END /* Case */;

     2246    18065
     2247    18066    4        MAPT_WORD = MAPT_WORD | INST_WORD;

  18066 44 013074   200220 236100                    LDQ     MAPT_WORD,,AUTO
        44 013075   200075 276100                    ORQ     INST_WORD,,AUTO
        44 013076   200220 756100                    STQ     MAPT_WORD,,AUTO

     2248    18067    4        MAPT_VALID_COUNT = PC.OPND3 - 1;

  18067 44 013077   200151 236100                    LDQ     PC+1,,AUTO
        44 013100   777777 376007                    ANQ     -1,DL
        44 013101   000001 136007                    SBLQ    1,DL
        44 013102   200217 756100                    STQ     MAPT_VALID_COUNT,,AUTO
        44 013103   016024 710000 44                 TRA     s:19025

PL6.E3A0      #001=Z8HI$BURST File=Z8HI.:Z8A6TSI                                 SAT 08/09/97 13:19 Page:398
     2249    18068
     2250    18069        %EJECT;
PL6.E3A0      #001=Z8HI$BURST File=Z8HI.:Z8A6TSI                                 SAT 08/09/97 13:19 Page:399
     2251    18070    4   CASE(%MOVE);

     2252    18071        /*V*
     2253    18072
     2254    18073                      PSEUDO-CODE_UTILITIES
     2255    18074
     2256    18075             THESE DIRECTIVES ARE USED TO MODIFY VARIOUS COMPILER
     2257    18076           INFORMATION DIRECTLY IN PSEUDO-CODE, ALLEVIATING THE
     2258    18077           NEED FOR SEPARATE ACTIONS TO PERFORM THE SAME FUNCTION (AS
     2259    18078           COBOL-74 DOES).
     2260    18079             THERE ARE 36 DIFFERENT POSSIBLE COMBINATIONS (REFERENCE
     2261    18080           INCLUDE FILE Z8H_MOAS) OF MOVEMENT OR MODIFICATION.
     2262    18081           NOT BY A LONG-SHOT ARE ALL 36 NECESSARY FOR EACH ACTION (E.G.
     2263    18082           YOU'LL NEVER MOVE A CONSTANT TO A CONSTANT), BUT THE DIRECTIVE
     2264    18083           MACRO WILL HANDLE THOSE TYPES OF ABSURD CONSTRUCTS.
     2265    18084
     2266    18085        EXAMPLES::
     2267    18086
     2268    18087           MOVE   DECIMAL(4),PCOM(XABS)  MOVE A 4 TO XABS
     2269    18088           ADD    PCOM(XABS),PCOM(GABS)  ADD XABS TO GABS
     2270    18089           OR     OCTAL(040),PCOM(GABS)  'OR' OCTAL CONSTANT OVER GABS
     2271    18090           SHIFTL PCOM(GABS),DECIMAL(18) SHIFT VALUE IN GABS INTO UPPER 18
     2272    18091
     2273    18092        */
     2274    18093        /*V* MOVE -- See MOVE for PSEUDO-CODE_UTILITIES documentation */
     2275    18094
     2276    18095    5        DO CASE(PCC.CODE1);

  18095 44 013104   200150 236100                    LDQ     PC,,AUTO
        44 013105   000014 772000                    QRL     12
        44 013106   000077 376007                    ANQ     63,DL
        44 013107   000004 136007                    SBLQ    4,DL
        44 013110   000040 116007                    CMPQ    32,DL
        44 013111   013113 602006 44                 TNC     s:18095+7,QL
        44 013112   016024 710000 44                 TRA     s:19025
        44 013113   013163 710000 44                 TRA     s:18099
        44 013114   013504 710000 44                 TRA     s:18171
PL6.E3A0      #001=Z8HI$BURST File=Z8HI.:Z8A6TSI                                 SAT 08/09/97 13:19 Page:400
        44 013115   013504 710000 44                 TRA     s:18171
        44 013116   013504 710000 44                 TRA     s:18171
        44 013117   013504 710000 44                 TRA     s:18171
        44 013120   013504 710000 44                 TRA     s:18171
        44 013121   013170 710000 44                 TRA     s:18103
        44 013122   013353 710000 44                 TRA     s:18145
        44 013123   013504 710000 44                 TRA     s:18171
        44 013124   013504 710000 44                 TRA     s:18171
        44 013125   013504 710000 44                 TRA     s:18171
        44 013126   013504 710000 44                 TRA     s:18171
        44 013127   013451 710000 44                 TRA     s:18166
        44 013130   013463 710000 44                 TRA     s:18168
        44 013131   013504 710000 44                 TRA     s:18171
        44 013132   013504 710000 44                 TRA     s:18171
        44 013133   013504 710000 44                 TRA     s:18171
        44 013134   013504 710000 44                 TRA     s:18171
        44 013135   013504 710000 44                 TRA     s:18171
        44 013136   013504 710000 44                 TRA     s:18171
        44 013137   013504 710000 44                 TRA     s:18171
        44 013140   013504 710000 44                 TRA     s:18171
        44 013141   013504 710000 44                 TRA     s:18171
        44 013142   013504 710000 44                 TRA     s:18171
        44 013143   013153 710000 44                 TRA     s:18097
        44 013144   013504 710000 44                 TRA     s:18171
        44 013145   013504 710000 44                 TRA     s:18171
        44 013146   013504 710000 44                 TRA     s:18171
        44 013147   013504 710000 44                 TRA     s:18171
        44 013150   013504 710000 44                 TRA     s:18171
        44 013151   013504 710000 44                 TRA     s:18171
        44 013152   013475 710000 44                 TRA     s:18170

     2277    18096    5          CASE(%ABS_ABS);

     2278    18097    5            PCOM_.ABS(PCC.CODE3) = PCOM_.ABS(PCC.CODE2);

  18097 44 013153   200150 721100                    LXL1    PC,,AUTO
        44 013154   000037 361003                    ANX1    31,DU
PL6.E3A0      #001=Z8HI$BURST File=Z8HI.:Z8A6TSI                                 SAT 08/09/97 13:19 Page:401
        44 013155   200150 236100                    LDQ     PC,,AUTO
        44 013156   000005 772000                    QRL     5
        44 013157   000177 376007                    ANQ     127,DL
        44 013160   200011 235106                    LDA     PCOM,QL,AUTO
        44 013161   200011 755111                    STA     PCOM,X1,AUTO
        44 013162   016024 710000 44                 TRA     s:19025

     2279    18098    5          CASE(%CONST_ABS);

     2280    18099    5            PCOM_.ABS(PCC.CODE3) = PCCS.CONST;

  18099 44 013163   200150 721100                    LXL1    PC,,AUTO
        44 013164   000037 361003                    ANX1    31,DU
        44 013165   200151 235100                    LDA     PC+1,,AUTO
        44 013166   200011 755111                    STA     PCOM,X1,AUTO
        44 013167   016024 710000 44                 TRA     s:19025

     2281    18100    5          CASE(%SYSSM_OPND);

     2282    18101        /*       PCOM_.OPND(PCC.CODE3) = SYSSM(PCC.CODE2);*/
     2283    18102    5          CASE(%COMCOM_ABS);

     2284    18103    6            DO CASE(PCC.CODE2);

  18103 44 013170   200150 236100                    LDQ     PC,,AUTO
        44 013171   000005 772000                    QRL     5
        44 013172   000177 376007                    ANQ     127,DL
        44 013173   000012 116007                    CMPQ    10,DL
        44 013174   013176 602006 44                 TNC     s:18103+6,QL
        44 013175   016024 710000 44                 TRA     s:19025
        44 013176   013352 710000 44                 TRA     s:18143
        44 013177   013210 710000 44                 TRA     s:18105
        44 013200   013215 710000 44                 TRA     s:18109
        44 013201   013332 710000 44                 TRA     s:18138
        44 013202   013340 710000 44                 TRA     s:18140
        44 013203   013352 710000 44                 TRA     s:18143
        44 013204   013352 710000 44                 TRA     s:18143
PL6.E3A0      #001=Z8HI$BURST File=Z8HI.:Z8A6TSI                                 SAT 08/09/97 13:19 Page:402
        44 013205   013352 710000 44                 TRA     s:18143
        44 013206   013352 710000 44                 TRA     s:18143
        44 013207   013346 710000 44                 TRA     s:18142

     2285    18104    6              CASE(%HEX);

     2286    18105    6                PCOM_.ABS(PCC.CODE3) = COMCOM.OB.HEX_SBIN;

  18105 44 013210   200150 721100                    LXL1    PC,,AUTO
        44 013211   000037 361003                    ANX1    31,DU
        44 013212   000027 235000 xsym               LDA     COMCOM+23
        44 013213   200011 755111                    STA     PCOM,X1,AUTO
        44 013214   016024 710000 44                 TRA     s:19025

     2287    18106
     2288    18107    6              CASE(%FILL);

     2289    18108
     2290    18109    6                KANJI_FILL = FALSE ;

  18109 44 013215   200240 450100                    STZ     KANJI_FILL,,AUTO

     2291    18110                     %FISH (TRIAD = "PILL -> ETT.ROP", RTN = ST$$) ;

  18112 44 013216   200003 471500                    LDP1    @PILL,,AUTO
        44 013217   100000 473500                    LDP3    0,,PR1
        44 013220   300002 236100                    LDQ     2,,PR3
        44 013221   200233 756100                    STQ     ST$$,,AUTO

  18113 44 013222   200233 474500                    LDP4    ST$$,,AUTO
        44 013223   400000 221100                    LDX1    0,,PR4
        44 013224   000751 101003                    CMPX1   489,DU
        44 013225   013235 603000 44                 TRC     s:18118

  18114 44 013226   200233 470500                    LDP0    ST$$,,AUTO
        44 013227   000001 236100                    LDQ     1,,PR0
        44 013230   200233 756100                    STQ     ST$$,,AUTO
PL6.E3A0      #001=Z8HI$BURST File=Z8HI.:Z8A6TSI                                 SAT 08/09/97 13:19 Page:403

  18115 44 013231   200233 470500                    LDP0    ST$$,,AUTO
        44 013232   000000 220100                    LDX0    0,,PR0
        44 013233   000751 100003                    CMPX0   489,DU
        44 013234   013226 602000 44                 TNC     s:18114

     2292    18118    6                IF ST$$ -> SCALAR.TYPE = %TYN THEN

  18118 44 013235   200233 470500                    LDP0    ST$$,,AUTO
        44 013236   000002 220100                    LDX0    2,,PR0
        44 013237   000016 100003                    CMPX0   14,DU
        44 013240   013243 601000 44                 TNZ     s:18121

     2293    18119    6                  KANJI_FILL = TRUE ;

  18119 44 013241   400000 236003                    LDQ     -131072,DU
        44 013242   200240 756100                    STQ     KANJI_FILL,,AUTO

     2294    18120
     2295    18121    6                CALL Z8AU$TYPE_DESCRIPTOR(PILL -> ETT.LOP, TYPE_DESC) ;

  18121 44 013243   200003 471500                    LDP1    @PILL,,AUTO
        44 013244   100000 473500                    LDP3    0,,PR1
        44 013245   200211 634500                    EPPR4   TYPE_DESC,,AUTO
        44 013246   200261 454500                    STP4    @TAG+3,,AUTO
        44 013247   300001 635500                    EPPR5   1,,PR3
        44 013250   200260 455500                    STP5    @TAG+2,,AUTO
        44 013251   200260 630500                    EPPR0   @TAG+2,,AUTO
        44 013252   000015 631400 45                 EPPR1   13
        44 013253   000000 701000 xent               TSX1    Z8AU$TYPE_DESCRIPTOR
        44 013254   000000 011000                    NOP     0

     2296    18122    6                IF TYPE_DESC.TYPE = %TYN THEN

  18122 44 013255   200211 235100                    LDA     TYPE_DESC,,AUTO
        44 013256   000016 115007                    CMPA    14,DL
        44 013257   013262 601000 44                 TNZ     s:18125
PL6.E3A0      #001=Z8HI$BURST File=Z8HI.:Z8A6TSI                                 SAT 08/09/97 13:19 Page:404

     2297    18123    6                  KANJI_FILL = TRUE ;

  18123 44 013260   400000 236003                    LDQ     -131072,DU
        44 013261   200240 756100                    STQ     KANJI_FILL,,AUTO

     2298    18124
     2299    18125    6                IF KANJI_FILL THEN

  18125 44 013262   200240 234100                    SZN     KANJI_FILL,,AUTO
        44 013263   013271 605000 44                 TPL     s:18128

     2300    18126    6                  PCOM_.ABS (PCC.CODE3) = KANJI.FILL_SBIN ;

  18126 44 013264   200150 720100                    LXL0    PC,,AUTO
        44 013265   000037 360003                    ANX0    31,DU
        44 013266   002735 236000 3                  LDQ     KANJI
        44 013267   200011 756110                    STQ     PCOM,X0,AUTO
        44 013270   016024 710000 44                 TRA     s:19025

     2301    18127    6                ELSE
     2302    18128    7                  DO CASE (TYPE_DESC.TYPE);

  18128 44 013271   000006 135007                    SBLA    6,DL
        44 013272   000016 115007                    CMPA    14,DL
        44 013273   013275 602005 44                 TNC     s:18128+4,AL
        44 013274   013325 710000 44                 TRA     s:18134
        44 013275   013313 710000 44                 TRA     s:18130
        44 013276   013325 710000 44                 TRA     s:18134
        44 013277   013325 710000 44                 TRA     s:18134
        44 013300   013325 710000 44                 TRA     s:18134
        44 013301   013325 710000 44                 TRA     s:18134
        44 013302   013313 710000 44                 TRA     s:18130
        44 013303   013320 710000 44                 TRA     s:18132
        44 013304   013325 710000 44                 TRA     s:18134
        44 013305   013325 710000 44                 TRA     s:18134
        44 013306   013325 710000 44                 TRA     s:18134
PL6.E3A0      #001=Z8HI$BURST File=Z8HI.:Z8A6TSI                                 SAT 08/09/97 13:19 Page:405
        44 013307   013325 710000 44                 TRA     s:18134
        44 013310   013325 710000 44                 TRA     s:18134
        44 013311   013325 710000 44                 TRA     s:18134
        44 013312   013320 710000 44                 TRA     s:18132

     2303    18129    7                    CASE (%TYE, %TYF);

     2304    18130    7                      PCOM_.ABS (PCC.CODE3) = BITBIN ('100000000000'O);
             18130                               /* EBCDIC space */

  18130 44 013313   200150 720100                    LXL0    PC,,AUTO
        44 013314   000037 360003                    ANX0    31,DU
        44 013315   000674 236000 42                 LDQ     DSTATE_TYP+354
        44 013316   200011 756110                    STQ     PCOM,X0,AUTO
        44 013317   016024 710000 44                 TRA     s:19025

     2305    18131    7                    CASE (%TYB, %TYC);

     2306    18132    7                      PCOM_.ABS (PCC.CODE3) = BITBIN ('020000000000'O);
             18132                               /* GBCD space */

  18132 44 013320   200150 720100                    LXL0    PC,,AUTO
        44 013321   000037 360003                    ANX0    31,DU
        44 013322   000675 236000 42                 LDQ     DSTATE_TYP+355
        44 013323   200011 756110                    STQ     PCOM,X0,AUTO
        44 013324   016024 710000 44                 TRA     s:19025

     2307    18133    7                    CASE (ELSE);

     2308    18134    7                      PCOM_.ABS (PCC.CODE3) = COMCOM.FILL_SBIN;

  18134 44 013325   200150 720100                    LXL0    PC,,AUTO
        44 013326   000037 360003                    ANX0    31,DU
        44 013327   000122 236000 xsym               LDQ     COMCOM+82
        44 013330   200011 756110                    STQ     PCOM,X0,AUTO

     2309    18135    7                  END;
PL6.E3A0      #001=Z8HI$BURST File=Z8HI.:Z8A6TSI                                 SAT 08/09/97 13:19 Page:406

  18135 44 013331   016024 710000 44                 TRA     s:19025

     2310    18136
     2311    18137    6              CASE(%DPS88);

     2312    18138    6                PCOM_.ABS(PCC.CODE3) = BITBIN(COMCOM.OB.DPS88);

  18138 44 013332   200150 721100                    LXL1    PC,,AUTO
        44 013333   000037 361003                    ANX1    31,DU
        44 013334   000111 236000 xsym               LDQ     COMCOM+73
        44 013335   000043 772000                    QRL     35
        44 013336   200011 756111                    STQ     PCOM,X1,AUTO
        44 013337   016024 710000 44                 TRA     s:19025

     2313    18139    6              CASE(%ELS);

     2314    18140    6                PCOM_.ABS(PCC.CODE3) = BITBIN(COMCOM.OB.ELS);

  18140 44 013340   200150 721100                    LXL1    PC,,AUTO
        44 013341   000037 361003                    ANX1    31,DU
        44 013342   000026 236000 xsym               LDQ     COMCOM+22
        44 013343   000043 772000                    QRL     35
        44 013344   200011 756111                    STQ     PCOM,X1,AUTO
        44 013345   016024 710000 44                 TRA     s:19025

     2315    18141    6              CASE(%HALF_REL);

     2316    18142    6                PCOM_.ABS(PCC.CODE3) = %BITBIN(USING_HALF_WORD_RELOCATION);

  18142 44 013346   200150 721100                    LXL1    PC,,AUTO
        44 013347   000037 361003                    ANX1    31,DU
        44 013350   000001 235007                    LDA     1,DL
        44 013351   200011 755111                    STA     PCOM,X1,AUTO

     2317    18143    6            END; /* CASE */

PL6.E3A0      #001=Z8HI$BURST File=Z8HI.:Z8A6TSI                                 SAT 08/09/97 13:19 Page:407
  18143 44 013352   016024 710000 44                 TRA     s:19025

     2318    18144    5          CASE(%COMCOM_OPND);

     2319    18145    6            DO CASE(PCC.CODE2);

  18145 44 013353   200150 236100                    LDQ     PC,,AUTO
        44 013354   000005 772000                    QRL     5
        44 013355   000177 376007                    ANQ     127,DL
        44 013356   000013 116007                    CMPQ    11,DL
        44 013357   013361 602006 44                 TNC     s:18145+6,QL
        44 013360   016024 710000 44                 TRA     s:19025
        44 013361   013450 710000 44                 TRA     s:18164
        44 013362   013374 710000 44                 TRA     s:18147
        44 013363   013401 710000 44                 TRA     s:18149
        44 013364   013406 710000 44                 TRA     s:18151
        44 013365   013413 710000 44                 TRA     s:18153
        44 013366   013420 710000 44                 TRA     s:18155
        44 013367   013425 710000 44                 TRA     s:18157
        44 013370   013432 710000 44                 TRA     s:18159
        44 013371   013437 710000 44                 TRA     s:18161
        44 013372   013450 710000 44                 TRA     s:18164
        44 013373   013444 710000 44                 TRA     s:18163

     2320    18146    6              CASE(%AONE);

     2321    18147    6                PCOM_.OPND(PCC.CODE3) = COMCOM.ALMOST_ONE;

  18147 44 013374   200150 721100                    LXL1    PC,,AUTO
        44 013375   000037 361003                    ANX1    31,DU
        44 013376   000001 236000 xsym               LDQ     COMCOM+1
        44 013377   200043 756111                    STQ     PCOM+26,X1,AUTO
        44 013400   016024 710000 44                 TRA     s:19025

     2322    18148    6              CASE(%ARGS0);

     2323    18149    6                PCOM_.OPND(PCC.CODE3) = COMCOM.ARGS0;
PL6.E3A0      #001=Z8HI$BURST File=Z8HI.:Z8A6TSI                                 SAT 08/09/97 13:19 Page:408

  18149 44 013401   200150 721100                    LXL1    PC,,AUTO
        44 013402   000037 361003                    ANX1    31,DU
        44 013403   000124 236000 xsym               LDQ     COMCOM+84
        44 013404   200043 756111                    STQ     PCOM+26,X1,AUTO
        44 013405   016024 710000 44                 TRA     s:19025

     2324    18150    6              CASE(%ARGS1);

     2325    18151    6                PCOM_.OPND(PCC.CODE3) = COMCOM.ARGS1;

  18151 44 013406   200150 721100                    LXL1    PC,,AUTO
        44 013407   000037 361003                    ANX1    31,DU
        44 013410   000004 236000 xsym               LDQ     COMCOM+4
        44 013411   200043 756111                    STQ     PCOM+26,X1,AUTO
        44 013412   016024 710000 44                 TRA     s:19025

     2326    18152    6              CASE(%ARGS2);

     2327    18153    6                PCOM_.OPND(PCC.CODE3) = COMCOM.ARGS2;

  18153 44 013413   200150 721100                    LXL1    PC,,AUTO
        44 013414   000037 361003                    ANX1    31,DU
        44 013415   000005 236000 xsym               LDQ     COMCOM+5
        44 013416   200043 756111                    STQ     PCOM+26,X1,AUTO
        44 013417   016024 710000 44                 TRA     s:19025

     2328    18154    6              CASE(%ARGS3);

     2329    18155    6                PCOM_.OPND(PCC.CODE3) = COMCOM.ARGS3;

  18155 44 013420   200150 721100                    LXL1    PC,,AUTO
        44 013421   000037 361003                    ANX1    31,DU
        44 013422   000006 236000 xsym               LDQ     COMCOM+6
        44 013423   200043 756111                    STQ     PCOM+26,X1,AUTO
        44 013424   016024 710000 44                 TRA     s:19025

PL6.E3A0      #001=Z8HI$BURST File=Z8HI.:Z8A6TSI                                 SAT 08/09/97 13:19 Page:409
     2330    18156    6              CASE(%ARGS4);

     2331    18157    6                PCOM_.OPND(PCC.CODE3) = COMCOM.ARGS4;

  18157 44 013425   200150 721100                    LXL1    PC,,AUTO
        44 013426   000037 361003                    ANX1    31,DU
        44 013427   000135 236000 xsym               LDQ     COMCOM+93
        44 013430   200043 756111                    STQ     PCOM+26,X1,AUTO
        44 013431   016024 710000 44                 TRA     s:19025

     2332    18158    6              CASE(%DECZIP);

     2333    18159    6                PCOM_.OPND(PCC.CODE3) = COMCOM.D_ZERO;

  18159 44 013432   200150 721100                    LXL1    PC,,AUTO
        44 013433   000037 361003                    ANX1    31,DU
        44 013434   000123 236000 xsym               LDQ     COMCOM+83
        44 013435   200043 756111                    STQ     PCOM+26,X1,AUTO
        44 013436   016024 710000 44                 TRA     s:19025

     2334    18160    6              CASE(%DECONE);

     2335    18161    6                PCOM_.OPND(PCC.CODE3) = COMCOM.D_ONE;

  18161 44 013437   200150 721100                    LXL1    PC,,AUTO
        44 013440   000037 361003                    ANX1    31,DU
        44 013441   000121 236000 xsym               LDQ     COMCOM+81
        44 013442   200043 756111                    STQ     PCOM+26,X1,AUTO
        44 013443   016024 710000 44                 TRA     s:19025

     2336    18162    6              CASE(%E_L_WORD);

     2337    18163    6                PCOM_.OPND(PCC.CODE3) = COMCOM.E_L_WORD;

  18163 44 013444   200150 721100                    LXL1    PC,,AUTO
        44 013445   000037 361003                    ANX1    31,DU
        44 013446   000501 236000 xsym               LDQ     COMCOM+321
PL6.E3A0      #001=Z8HI$BURST File=Z8HI.:Z8A6TSI                                 SAT 08/09/97 13:19 Page:410
        44 013447   200043 756111                    STQ     PCOM+26,X1,AUTO

     2338    18164    6            END; /* CASE */

  18164 44 013450   016024 710000 44                 TRA     s:19025

     2339    18165    5          CASE(%ILL_ABS);

     2340    18166    5            PCOM_.ABS(PCC.CODE3) = PILL -> OFF_SET.CONSTI(PCC.CODE2);

  18166 44 013451   200150 721100                    LXL1    PC,,AUTO
        44 013452   000037 361003                    ANX1    31,DU
        44 013453   200003 471500                    LDP1    @PILL,,AUTO
        44 013454   100000 473500                    LDP3    0,,PR1
        44 013455   200150 236100                    LDQ     PC,,AUTO
        44 013456   000005 772000                    QRL     5
        44 013457   000177 376007                    ANQ     127,DL
        44 013460   300000 235106                    LDA     0,QL,PR3
        44 013461   200011 755111                    STA     PCOM,X1,AUTO
        44 013462   016024 710000 44                 TRA     s:19025

     2341    18167    5          CASE(%ILL_OPND);

     2342    18168    5            PCOM_.OPND(PCC.CODE3) = PILL -> OFF_SET.POINTER(PCC.CODE2);

  18168 44 013463   200150 721100                    LXL1    PC,,AUTO
        44 013464   000037 361003                    ANX1    31,DU
        44 013465   200003 471500                    LDP1    @PILL,,AUTO
        44 013466   100000 473500                    LDP3    0,,PR1
        44 013467   200150 236100                    LDQ     PC,,AUTO
        44 013470   000005 772000                    QRL     5
        44 013471   000177 376007                    ANQ     127,DL
        44 013472   300000 236106                    LDQ     0,QL,PR3
        44 013473   200043 756111                    STQ     PCOM+26,X1,AUTO
        44 013474   016024 710000 44                 TRA     s:19025

     2343    18169    5          CASE(%OPND_OPND);
PL6.E3A0      #001=Z8HI$BURST File=Z8HI.:Z8A6TSI                                 SAT 08/09/97 13:19 Page:411

     2344    18170    5            PCOM_.OPND(PCC.CODE3) = PCOM_.OPND(PCC.CODE2);

  18170 44 013475   200150 721100                    LXL1    PC,,AUTO
        44 013476   000037 361003                    ANX1    31,DU
        44 013477   200150 236100                    LDQ     PC,,AUTO
        44 013500   000005 772000                    QRL     5
        44 013501   000177 376007                    ANQ     127,DL
        44 013502   200043 236106                    LDQ     PCOM+26,QL,AUTO
        44 013503   200043 756111                    STQ     PCOM+26,X1,AUTO

     2345    18171    5        END /* Case */;

  18171 44 013504   016024 710000 44                 TRA     s:19025

     2346    18172        %EJECT;
PL6.E3A0      #001=Z8HI$BURST File=Z8HI.:Z8A6TSI                                 SAT 08/09/97 13:19 Page:412
     2347    18173    4   CASE(%MOVIND);

     2348    18174        /*V* MOVIND -- See MOVE for PSEUDO-CODE_UTILITIES documentation */
     2349    18175
     2350    18176    5        DO CASE(PCC.CODE1);

  18176 44 013505   200150 236100                    LDQ     PC,,AUTO
        44 013506   000014 772000                    QRL     12
        44 013507   000077 376007                    ANQ     63,DL
        44 013510   000020 136007                    SBLQ    16,DL
        44 013511   000024 116007                    CMPQ    20,DL
        44 013512   013514 602006 44                 TNC     s:18176+7,QL
        44 013513   016024 710000 44                 TRA     s:19025
        44 013514   013540 710000 44                 TRA     s:18178
        44 013515   013555 710000 44                 TRA     s:18180
        44 013516   013617 710000 44                 TRA     s:18185
        44 013517   013617 710000 44                 TRA     s:18185
        44 013520   013617 710000 44                 TRA     s:18185
        44 013521   013617 710000 44                 TRA     s:18185
        44 013522   013617 710000 44                 TRA     s:18185
        44 013523   013617 710000 44                 TRA     s:18185
        44 013524   013617 710000 44                 TRA     s:18185
        44 013525   013617 710000 44                 TRA     s:18185
        44 013526   013617 710000 44                 TRA     s:18185
        44 013527   013617 710000 44                 TRA     s:18185
        44 013530   013617 710000 44                 TRA     s:18185
        44 013531   013617 710000 44                 TRA     s:18185
        44 013532   013617 710000 44                 TRA     s:18185
        44 013533   013617 710000 44                 TRA     s:18185
        44 013534   013617 710000 44                 TRA     s:18185
        44 013535   013617 710000 44                 TRA     s:18185
        44 013536   013572 710000 44                 TRA     s:18182
        44 013537   013605 710000 44                 TRA     s:18184

     2351    18177    5          CASE(%ILL_ABS);

     2352    18178    5           PCOM_.ABS(PCC.CODE3) = PILL -> OFF_SET.POINTER(PCC.CODE2) -> OFF_SET.CONSTI
PL6.E3A0      #001=Z8HI$BURST File=Z8HI.:Z8A6TSI                                 SAT 08/09/97 13:19 Page:413
             18178                     (PCOM_.ABS(PC.OPND2));

  18178 44 013540   200150 721100                    LXL1    PC,,AUTO
        44 013541   000037 361003                    ANX1    31,DU
        44 013542   200003 471500                    LDP1    @PILL,,AUTO
        44 013543   100000 473500                    LDP3    0,,PR1
        44 013544   200150 236100                    LDQ     PC,,AUTO
        44 013545   000005 772000                    QRL     5
        44 013546   000177 376007                    ANQ     127,DL
        44 013547   300000 474506                    LDP4    0,QL,PR3
        44 013550   200151 222100                    LDX2    PC+1,,AUTO
        44 013551   200011 723112                    LXL3    PCOM,X2,AUTO
        44 013552   400000 235113                    LDA     0,X3,PR4
        44 013553   200011 755111                    STA     PCOM,X1,AUTO
        44 013554   016024 710000 44                 TRA     s:19025

     2353    18179    5          CASE(%ILL_OPND);

     2354    18180    5            PCOM_.OPND(PCC.CODE3) = PILL -> OFF_SET.POINTER(PCC.CODE2) -> OFF_SET.
             18180                     POINTER(PCOM_.ABS(PC.OPND2));

  18180 44 013555   200150 721100                    LXL1    PC,,AUTO
        44 013556   000037 361003                    ANX1    31,DU
        44 013557   200003 471500                    LDP1    @PILL,,AUTO
        44 013560   100000 473500                    LDP3    0,,PR1
        44 013561   200150 236100                    LDQ     PC,,AUTO
        44 013562   000005 772000                    QRL     5
        44 013563   000177 376007                    ANQ     127,DL
        44 013564   300000 474506                    LDP4    0,QL,PR3
        44 013565   200151 222100                    LDX2    PC+1,,AUTO
        44 013566   200011 723112                    LXL3    PCOM,X2,AUTO
        44 013567   400000 236113                    LDQ     0,X3,PR4
        44 013570   200043 756111                    STQ     PCOM+26,X1,AUTO
        44 013571   016024 710000 44                 TRA     s:19025

     2355    18181    5          CASE(%OPND_ABS);

PL6.E3A0      #001=Z8HI$BURST File=Z8HI.:Z8A6TSI                                 SAT 08/09/97 13:19 Page:414
     2356    18182    5           PCOM_.ABS(PCC.CODE3) = PCOM_.OPND(PCC.CODE2) -> OFF_SET.CONSTI(PCOM_.ABS(PC
             18182                     .OPND2));

  18182 44 013572   200150 721100                    LXL1    PC,,AUTO
        44 013573   000037 361003                    ANX1    31,DU
        44 013574   200150 236100                    LDQ     PC,,AUTO
        44 013575   000005 772000                    QRL     5
        44 013576   000177 376007                    ANQ     127,DL
        44 013577   200043 471506                    LDP1    PCOM+26,QL,AUTO
        44 013600   200151 222100                    LDX2    PC+1,,AUTO
        44 013601   200011 723112                    LXL3    PCOM,X2,AUTO
        44 013602   100000 235113                    LDA     0,X3,PR1
        44 013603   200011 755111                    STA     PCOM,X1,AUTO
        44 013604   016024 710000 44                 TRA     s:19025

     2357    18183    5          CASE(%OPND_OPND);

     2358    18184    5           PCOM_.OPND(PCC.CODE3) = PCOM_.OPND(PCC.CODE2) -> OFF_SET.POINTER(PCOM_.ABS(
             18184                     PC.OPND2));

  18184 44 013605   200150 721100                    LXL1    PC,,AUTO
        44 013606   000037 361003                    ANX1    31,DU
        44 013607   200150 236100                    LDQ     PC,,AUTO
        44 013610   000005 772000                    QRL     5
        44 013611   000177 376007                    ANQ     127,DL
        44 013612   200043 471506                    LDP1    PCOM+26,QL,AUTO
        44 013613   200151 222100                    LDX2    PC+1,,AUTO
        44 013614   200011 723112                    LXL3    PCOM,X2,AUTO
        44 013615   100000 236113                    LDQ     0,X3,PR1
        44 013616   200043 756111                    STQ     PCOM+26,X1,AUTO

     2359    18185    5        END /* Case */;

  18185 44 013617   016024 710000 44                 TRA     s:19025

     2360    18186        %EJECT;
PL6.E3A0      #001=Z8HI$BURST File=Z8HI.:Z8A6TSI                                 SAT 08/09/97 13:19 Page:415
     2361    18187    4   CASE(%NEWLAB);

     2362    18188
     2363    18189    4        CALL Z8AT$CREATE_TEMPORARY(%PARA,ST$);

  18189 44 013620   000070 630400 45                 EPPR0   56
        44 013621   000015 631400 45                 EPPR1   13
        44 013622   000000 701000 xent               TSX1    Z8AT$CREATE_TEMPORARY
        44 013623   000000 011000                    NOP     0

     2364    18190
     2365    18191    4        IF CURRENT_BLOCK$ = COMCOM.SEGMENT$(%PROC) THEN

  18191 44 013624   000000 236000 4                  LDQ     CURRENT_BLOCK$
        44 013625   000150 116000 xsym               CMPQ    COMCOM+104
        44 013626   013636 601000 44                 TNZ     s:18198

     2366    18192    5          DO;

     2367    18193    5            ST$ -> PARA.R = 1;

  18193 44 013627   000000 470400 25                 LDP0    ST$
        44 013630   001000 236007                    LDQ     512,DL
        44 013631   000000 552110                    STBQ    0,'10'O,PR0

     2368    18194    5            PCOM_.OPND(PC.OPND1) = ST$;

  18194 44 013632   200150 720100                    LXL0    PC,,AUTO
        44 013633   000000 236000 25                 LDQ     ST$
        44 013634   200043 756110                    STQ     PCOM+26,X0,AUTO

     2369    18195    5          END;

  18195 44 013635   013735 710000 44                 TRA     s:18279

     2370    18196    4        ELSE
     2371    18197    5          DO;
PL6.E3A0      #001=Z8HI$BURST File=Z8HI.:Z8A6TSI                                 SAT 08/09/97 13:19 Page:416

     2372    18198    5            ST$ -> PARA.R = 3;

  18198 44 013636   000000 470400 25                 LDP0    ST$
        44 013637   003000 236007                    LDQ     1536,DL
        44 013640   000000 552110                    STBQ    0,'10'O,PR0

     2373    18199    5            ST$ -> PARA.COUNT = CURRENT_BLOCK$ -> BLOCK.COUNT;

  18199 44 013641   000000 470400 4                  LDP0    CURRENT_BLOCK$
        44 013642   000000 471400 25                 LDP1    ST$
        44 013643   000000 236100                    LDQ     0,,PR0
        44 013644   100000 552104                    STBQ    0,'04'O,PR1

     2374    18200
     2375    18201    5            ST$ -> PARA.B.DATA_REF = TRUE;

  18201 44 013645   000000 470400 25                 LDP0    ST$
        44 013646   400000 236007                    LDQ     -131072,DL
        44 013647   000003 256100                    ORSQ    3,,PR0

     2376    18202
     2377    18203                 %NEW_ETT(@ID=%BASE);

  18207 44 013650   000000 236000 20                 LDQ     HEAD_ETT$
        44 013651   000007 116000 45                 CMPQ    7
        44 013652   013676 601000 44                 TNZ     s:18219

  18209 44 013653   000002 236000 22                 LDQ     ETT_+2
        44 013654   000005 036007                    ADLQ    5,DL
        44 013655   000003 116000 22                 CMPQ    ETT_+3
        44 013656   013667 604000 44                 TMI     s:18211

  18210 44 013657   000014 236000 45                 LDQ     12
        44 013660   200260 756100                    STQ     @TAG+2,,AUTO
        44 013661   200260 631500                    EPPR1   @TAG+2,,AUTO
        44 013662   200261 451500                    STP1    @TAG+3,,AUTO
PL6.E3A0      #001=Z8HI$BURST File=Z8HI.:Z8A6TSI                                 SAT 08/09/97 13:19 Page:417
        44 013663   200261 630500                    EPPR0   @TAG+3,,AUTO
        44 013664   000006 631400 45                 EPPR1   6
        44 013665   000000 701000 xent               TSX1    Z8AR$RESERVER
        44 013666   000000 011000                    NOP     0

  18211 44 013667   000002 236000 22                 LDQ     ETT_+2
        44 013670   000022 736000                    QLS     18
        44 013671   000001 036000 22                 ADLQ    ETT_+1
        44 013672   000000 756000 19                 STQ     ETT$

  18212 44 013673   000005 236007                    LDQ     5,DL
        44 013674   000002 056000 22                 ASQ     ETT_+2

  18213 44 013675   013702 710000 44                 TRA     s:18229

  18219 44 013676   000000 756000 19                 STQ     ETT$

  18220 44 013677   000000 471400 20                 LDP1    HEAD_ETT$
        44 013700   100003 236100                    LDQ     3,,PR1
        44 013701   000000 756000 20                 STQ     HEAD_ETT$

  18229 44 013702   000001 220003                    LDX0    1,DU
        44 013703   000000 470400 19                 LDP0    ETT$
        44 013704   000000 740100                    STX0    0,,PR0

  18237 44 013705   000007 236000 45                 LDQ     7
        44 013706   000000 470400 19                 LDP0    ETT$
        44 013707   000002 756100                    STQ     2,,PR0

  18245 44 013710   000000 221003                    LDX1    0,DU
        44 013711   000004 441100                    SXL1    4,,PR0

  18246 44 013712   000065 236000 45                 LDQ     53
        44 013713   000004 356100                    ANSQ    4,,PR0

  18247 44 013714   000000 222003                    LDX2    0,DU
        44 013715   000000 442100                    SXL2    0,,PR0
PL6.E3A0      #001=Z8HI$BURST File=Z8HI.:Z8A6TSI                                 SAT 08/09/97 13:19 Page:418

  18248 44 013716   000000 470400 19                 LDP0    ETT$
        44 013717   000004 742100                    STX2    4,,PR0

  18249 44 013720   000007 236000 45                 LDQ     7
        44 013721   000003 756100                    STQ     3,,PR0

     2378    18273    5            ETT$ -> ETT.LOP = ST$;

  18273 44 013722   000000 236000 25                 LDQ     ST$
        44 013723   000001 756100                    STQ     1,,PR0

     2379    18274    5            ETT$ -> ETT.ROP = COMCOM.ESC;

  18274 44 013724   000007 236000 xsym               LDQ     COMCOM+7
        44 013725   000002 756100                    STQ     2,,PR0

     2380    18275    5            CALL Z8HU$INCCNT(COMCOM.ESC, 1);

  18275 44 013726   000072 630400 45                 EPPR0   58
        44 013727   000015 631400 45                 EPPR1   13
        44 013730   000000 701000 xent               TSX1    Z8HU$INCCNT
        44 013731   000000 011000                    NOP     0

     2381    18276    5            PCOM_.OPND(PC.OPND1) = ETT$;

  18276 44 013732   200150 720100                    LXL0    PC,,AUTO
        44 013733   000000 236000 19                 LDQ     ETT$
        44 013734   200043 756110                    STQ     PCOM+26,X0,AUTO

     2382    18277    5          END;

     2383    18278
     2384    18279    4        ST$ -> LABEL.B.REFERENCED = TRUE;

  18279 44 013735   000000 470400 25                 LDP0    ST$
        44 013736   400000 236003                    LDQ     -131072,DU
PL6.E3A0      #001=Z8HI$BURST File=Z8HI.:Z8A6TSI                                 SAT 08/09/97 13:19 Page:419
        44 013737   000003 256100                    ORSQ    3,,PR0
        44 013740   016024 710000 44                 TRA     s:19025

     2385    18280        %EJECT;
PL6.E3A0      #001=Z8HI$BURST File=Z8HI.:Z8A6TSI                                 SAT 08/09/97 13:19 Page:420
     2386    18281    4   CASE(%OFFSET);

     2387    18282
     2388    18283             %LOP_ROP_TO;

  18284 44 013741   200150 721100                    LXL1    PC,,AUTO
        44 013742   000004 101003                    CMPX1   4,DU
        44 013743   013745 602011 44                 TNC     s:18284+4,X1
        44 013744   013774 710000 44                 TRA     s:18294
        44 013745   013751 710000 44                 TRA     s:18286
        44 013746   013755 710000 44                 TRA     s:18288
        44 013747   013762 710000 44                 TRA     s:18290
        44 013750   013767 710000 44                 TRA     s:18292

  18286 44 013751   200003 471500                    LDP1    @PILL,,AUTO
        44 013752   100000 236100                    LDQ     0,,PR1
        44 013753   200153 756100                    STQ     OPND,,AUTO
        44 013754   013776 710000 44                 TRA     s:18309

  18288 44 013755   200003 471500                    LDP1    @PILL,,AUTO
        44 013756   100000 473500                    LDP3    0,,PR1
        44 013757   300001 236100                    LDQ     1,,PR3
        44 013760   200153 756100                    STQ     OPND,,AUTO
        44 013761   013776 710000 44                 TRA     s:18309

  18290 44 013762   200003 471500                    LDP1    @PILL,,AUTO
        44 013763   100000 473500                    LDP3    0,,PR1
        44 013764   300002 236100                    LDQ     2,,PR3
        44 013765   200153 756100                    STQ     OPND,,AUTO
        44 013766   013776 710000 44                 TRA     s:18309

  18292 44 013767   200003 471500                    LDP1    @PILL,,AUTO
        44 013770   100000 473500                    LDP3    0,,PR1
        44 013771   300003 236100                    LDQ     3,,PR3
        44 013772   200153 756100                    STQ     OPND,,AUTO
        44 013773   013776 710000 44                 TRA     s:18309

PL6.E3A0      #001=Z8HI$BURST File=Z8HI.:Z8A6TSI                                 SAT 08/09/97 13:19 Page:421
  18294 44 013774   200043 236111                    LDQ     PCOM+26,X1,AUTO
        44 013775   200153 756100                    STQ     OPND,,AUTO

     2389    18297
     2390    18298             %#OFF#( @FROM  = OPND ,
     2391    18299                     @TO    = "PCOM_.OPND(PC.OPND3)" ,
     2392    18300                     @VALUE = "PCOM_.ABS(PC.OPND2)" ,
     2393    18301                     @TYPE  = %WORD_ );

  18309 44 013776   000000 236000 20                 LDQ     HEAD_ETT$
        44 013777   000007 116000 45                 CMPQ    7
        44 014000   014025 601000 44                 TNZ     s:18321

  18311 44 014001   000002 236000 22                 LDQ     ETT_+2
        44 014002   000005 036007                    ADLQ    5,DL
        44 014003   000003 116000 22                 CMPQ    ETT_+3
        44 014004   014015 604000 44                 TMI     s:18313

  18312 44 014005   000014 236000 45                 LDQ     12
        44 014006   200260 756100                    STQ     @TAG+2,,AUTO
        44 014007   200260 631500                    EPPR1   @TAG+2,,AUTO
        44 014010   200261 451500                    STP1    @TAG+3,,AUTO
        44 014011   200261 630500                    EPPR0   @TAG+3,,AUTO
        44 014012   000006 631400 45                 EPPR1   6
        44 014013   000000 701000 xent               TSX1    Z8AR$RESERVER
        44 014014   000000 011000                    NOP     0

  18313 44 014015   200151 720100                    LXL0    PC+1,,AUTO
        44 014016   000002 236000 22                 LDQ     ETT_+2
        44 014017   000022 736000                    QLS     18
        44 014020   000001 036000 22                 ADLQ    ETT_+1
        44 014021   200043 756110                    STQ     PCOM+26,X0,AUTO

  18314 44 014022   000005 236007                    LDQ     5,DL
        44 014023   000002 056000 22                 ASQ     ETT_+2

  18315 44 014024   014032 710000 44                 TRA     s:18331
PL6.E3A0      #001=Z8HI$BURST File=Z8HI.:Z8A6TSI                                 SAT 08/09/97 13:19 Page:422

  18321 44 014025   200151 722100                    LXL2    PC+1,,AUTO
        44 014026   200043 756112                    STQ     PCOM+26,X2,AUTO

  18322 44 014027   000000 471400 20                 LDP1    HEAD_ETT$
        44 014030   100003 236100                    LDQ     3,,PR1
        44 014031   000000 756000 20                 STQ     HEAD_ETT$

  18331 44 014032   200151 720100                    LXL0    PC+1,,AUTO
        44 014033   200043 470510                    LDP0    PCOM+26,X0,AUTO
        44 014034   000003 221003                    LDX1    3,DU
        44 014035   000000 741100                    STX1    0,,PR0

  18336 44 014036   200043 470510                    LDP0    PCOM+26,X0,AUTO
        44 014037   200153 236100                    LDQ     OPND,,AUTO
        44 014040   000001 756100                    STQ     1,,PR0

  18339 44 014041   200043 470510                    LDP0    PCOM+26,X0,AUTO
        44 014042   000007 236000 45                 LDQ     7
        44 014043   000002 756100                    STQ     2,,PR0

  18347 44 014044   200043 470510                    LDP0    PCOM+26,X0,AUTO
        44 014045   000000 222003                    LDX2    0,DU
        44 014046   000004 442100                    SXL2    4,,PR0

  18348 44 014047   200043 470510                    LDP0    PCOM+26,X0,AUTO
        44 014050   000001 236007                    LDQ     1,DL
        44 014051   000004 256100                    ORSQ    4,,PR0

  18349 44 014052   200043 470510                    LDP0    PCOM+26,X0,AUTO
        44 014053   000000 223003                    LDX3    0,DU
        44 014054   000000 443100                    SXL3    0,,PR0

  18350 44 014055   200043 470510                    LDP0    PCOM+26,X0,AUTO
        44 014056   000004 743100                    STX3    4,,PR0

  18351 44 014057   200043 470510                    LDP0    PCOM+26,X0,AUTO
PL6.E3A0      #001=Z8HI$BURST File=Z8HI.:Z8A6TSI                                 SAT 08/09/97 13:19 Page:423
        44 014060   000007 236000 45                 LDQ     7
        44 014061   000003 756100                    STQ     3,,PR0

  18375 44 014062   200043 470510                    LDP0    PCOM+26,X0,AUTO
        44 014063   200151 224100                    LDX4    PC+1,,AUTO
        44 014064   200011 725114                    LXL5    PCOM,X4,AUTO
        44 014065   000002 745100                    STX5    2,,PR0

  18376 44 014066   200043 470510                    LDP0    PCOM+26,X0,AUTO
        44 014067   000006 225003                    LDX5    6,DU
        44 014070   000002 445100                    SXL5    2,,PR0

  18377 44 014071   000017 236000 45                 LDQ     15
        44 014072   200261 756100                    STQ     @TAG+3,,AUTO
        44 014073   200153 630500                    EPPR0   OPND,,AUTO
        44 014074   200260 450500                    STP0    @TAG+2,,AUTO
        44 014075   200260 630500                    EPPR0   @TAG+2,,AUTO
        44 014076   000015 631400 45                 EPPR1   13
        44 014077   000000 701000 xent               TSX1    Z8HU$INCCNT
        44 014100   000000 011000                    NOP     0

  18378 44 014101   200151 720100                    LXL0    PC+1,,AUTO
        44 014102   200043 630510                    EPPR0   PCOM+26,X0,AUTO
        44 014103   200260 450500                    STP0    @TAG+2,,AUTO
        44 014104   200260 630500                    EPPR0   @TAG+2,,AUTO
        44 014105   000006 631400 45                 EPPR1   6
        44 014106   000000 701000 xent               TSX1    Z8HU$WALK
        44 014107   000000 011000                    NOP     0

  18379 44 014110   016024 710000 44                 TRA     s:19025

     2394    18381        %EJECT;
PL6.E3A0      #001=Z8HI$BURST File=Z8HI.:Z8A6TSI                                 SAT 08/09/97 13:19 Page:424
     2395    18382    4   CASE(%OR);

     2396    18383        /*V* OR -- See MOVE for PSEUDO-CODE_UTILITIES documentation     */
     2397    18384
     2398    18385    5        DO CASE(PCC.CODE1);

  18385 44 014111   200150 236100                    LDQ     PC,,AUTO
        44 014112   000014 772000                    QRL     12
        44 014113   000077 376007                    ANQ     63,DL
        44 014114   000004 136007                    SBLQ    4,DL
        44 014115   000031 116007                    CMPQ    25,DL
        44 014116   014120 602006 44                 TNC     s:18385+7,QL
        44 014117   016024 710000 44                 TRA     s:19025
        44 014120   014151 710000 44                 TRA     s:18387
        44 014121   014170 710000 44                 TRA     s:18392
        44 014122   014170 710000 44                 TRA     s:18392
        44 014123   014170 710000 44                 TRA     s:18392
        44 014124   014170 710000 44                 TRA     s:18392
        44 014125   014170 710000 44                 TRA     s:18392
        44 014126   014170 710000 44                 TRA     s:18392
        44 014127   014170 710000 44                 TRA     s:18392
        44 014130   014170 710000 44                 TRA     s:18392
        44 014131   014170 710000 44                 TRA     s:18392
        44 014132   014170 710000 44                 TRA     s:18392
        44 014133   014170 710000 44                 TRA     s:18392
        44 014134   014170 710000 44                 TRA     s:18392
        44 014135   014170 710000 44                 TRA     s:18392
        44 014136   014170 710000 44                 TRA     s:18392
        44 014137   014170 710000 44                 TRA     s:18392
        44 014140   014170 710000 44                 TRA     s:18392
        44 014141   014170 710000 44                 TRA     s:18392
        44 014142   014170 710000 44                 TRA     s:18392
        44 014143   014170 710000 44                 TRA     s:18392
        44 014144   014170 710000 44                 TRA     s:18392
        44 014145   014170 710000 44                 TRA     s:18392
        44 014146   014170 710000 44                 TRA     s:18392
        44 014147   014170 710000 44                 TRA     s:18392
PL6.E3A0      #001=Z8HI$BURST File=Z8HI.:Z8A6TSI                                 SAT 08/09/97 13:19 Page:425
        44 014150   014157 710000 44                 TRA     s:18390

     2399    18386    5          CASE(%CONST_ABS);

     2400    18387    5            PCOM_.ABS(PCC.CODE3) = BITBIN(BINBIT(PCOM_.ABS(PCC.CODE3),36) |

  18387 44 014151   200150 721100                    LXL1    PC,,AUTO
        44 014152   000037 361003                    ANX1    31,DU
        44 014153   200011 236111                    LDQ     PCOM,X1,AUTO
        44 014154   200151 276100                    ORQ     PC+1,,AUTO
        44 014155   200011 756111                    STQ     PCOM,X1,AUTO
        44 014156   016024 710000 44                 TRA     s:19025

     2401    18388    5                                          BINBIT(PCC.CONST,36));
     2402    18389    5          CASE(%ABS_ABS);

     2403    18390    5            PCOM_.ABS(PCC.CODE3) = BITBIN(BINBIT(PCOM_.ABS(PCC.CODE3),36) |

  18390 44 014157   200150 721100                    LXL1    PC,,AUTO
        44 014160   000037 361003                    ANX1    31,DU
        44 014161   200150 236100                    LDQ     PC,,AUTO
        44 014162   000005 772000                    QRL     5
        44 014163   000177 376007                    ANQ     127,DL
        44 014164   000000 622006                    EAX2    0,QL
        44 014165   200011 236111                    LDQ     PCOM,X1,AUTO
        44 014166   200011 276112                    ORQ     PCOM,X2,AUTO
        44 014167   200011 756111                    STQ     PCOM,X1,AUTO

     2404    18391    5                                          BINBIT(PCOM_.ABS(PCC.CODE2),36));
     2405    18392    5        END /* Case */;

  18392 44 014170   016024 710000 44                 TRA     s:19025

     2406    18393        %EJECT;
PL6.E3A0      #001=Z8HI$BURST File=Z8HI.:Z8A6TSI                                 SAT 08/09/97 13:19 Page:426
     2407    18394    4   CASE(%ORGE);

     2408    18395
     2409    18396    5        DO CASE(PC.OPND1);

  18396 44 014171   200150 721100                    LXL1    PC,,AUTO
        44 014172   000002 101003                    CMPX1   2,DU
        44 014173   014175 602011 44                 TNC     s:18396+4,X1
        44 014174   014204 710000 44                 TRA     s:18422
        44 014175   014202 710000 44                 TRA     s:18401
        44 014176   014177 710000 44                 TRA     s:18398

     2410    18397    5          CASE(%DATA);

     2411    18398    5            CURRENT_BLOCK$ = COMCOM.LAST_BLOCK$;

  18398 44 014177   000375 236000 xsym               LDQ     COMCOM+253
        44 014200   000000 756000 4                  STQ     CURRENT_BLOCK$
        44 014201   014204 710000 44                 TRA     s:18422

     2412    18399
     2413    18400    5          CASE(%PROC);

     2414    18401    5            CURRENT_BLOCK$ = COMCOM.SEGMENT$(%PROC);

  18401 44 014202   000150 236000 xsym               LDQ     COMCOM+104
        44 014203   000000 756000 4                  STQ     CURRENT_BLOCK$

     2415    18402    5        END /* Case */;

     2416    18403
     2417    18404             %NEW_ORG ( @ST$ = CURRENT_BLOCK$ );

  18422 44 014204   000002 236000 34                 LDQ     OBJ_+2
        44 014205   000002 036007                    ADLQ    2,DL
        44 014206   000003 116000 34                 CMPQ    OBJ_+3
        44 014207   014221 604000 44                 TMI     s:18428
PL6.E3A0      #001=Z8HI$BURST File=Z8HI.:Z8A6TSI                                 SAT 08/09/97 13:19 Page:427

  18424 44 014210   000000 234000 28                 SZN     PAGING_OBJ
        44 014211   014216 605000 44                 TPL     s:18426

  18425 44 014212   000020 630400 45                 EPPR0   16
        44 014213   000006 631400 45                 EPPR1   6
        44 014214   000000 701000 xent               TSX1    Z9HF$WRITE_OBJ_PAGE
        44 014215   000000 011000                    NOP     0

  18426 44 014216   000002 631400 45                 EPPR1   2
        44 014217   000000 701000 xent               TSX1    Z9HF$GET_OBJ_PAGE
        44 014220   000000 011000                    NOP     0

  18428 44 014221   000002 236000 34                 LDQ     OBJ_+2
        44 014222   000022 736000                    QLS     18
        44 014223   000001 036000 34                 ADLQ    OBJ_+1
        44 014224   000000 756000 27                 STQ     OBJ$

  18429 44 014225   000002 236007                    LDQ     2,DL
        44 014226   000002 056000 34                 ASQ     OBJ_+2

  18430 44 014227   001013 220003                    LDX0    523,DU
        44 014230   000000 470400 27                 LDP0    OBJ$
        44 014231   000000 740100                    STX0    0,,PR0

  18434 44 014232   000000 236000 4                  LDQ     CURRENT_BLOCK$
        44 014233   000000 470400 27                 LDP0    OBJ$
        44 014234   000001 756100                    STQ     1,,PR0

  18438 44 014235   016024 710000 44                 TRA     s:19025

     2418    18440        %EJECT;
PL6.E3A0      #001=Z8HI$BURST File=Z8HI.:Z8A6TSI                                 SAT 08/09/97 13:19 Page:428
     2419    18441    4   CASE(%ORGS);

     2420    18442
     2421    18443    4        IF PC.OPND1 = %RESET THEN

  18443 44 014236   200150 721100                    LXL1    PC,,AUTO
        44 014237   000033 101003                    CMPX1   27,DU
        44 014240   014244 601000 44                 TNZ     s:18448

     2422    18444    4          CURRENT_BLOCK$ = OLD_CURRENT_BLOCK$;

  18444 44 014241   200124 236100                    LDQ     OLD_CURRENT_BLOCK$,,AUTO
        44 014242   000000 756000 4                  STQ     CURRENT_BLOCK$
        44 014243   014352 710000 44                 TRA     s:18498

     2423    18445    4        ELSE
     2424    18446    5          DO;

     2425    18447                 %LOP_ROP_TO;

  18448 44 014244   000004 101003                    CMPX1   4,DU
        44 014245   014247 602011 44                 TNC     s:18448+3,X1
        44 014246   014276 710000 44                 TRA     s:18458
        44 014247   014253 710000 44                 TRA     s:18450
        44 014250   014257 710000 44                 TRA     s:18452
        44 014251   014264 710000 44                 TRA     s:18454
        44 014252   014271 710000 44                 TRA     s:18456

  18450 44 014253   200003 471500                    LDP1    @PILL,,AUTO
        44 014254   100000 236100                    LDQ     0,,PR1
        44 014255   200153 756100                    STQ     OPND,,AUTO
        44 014256   014300 710000 44                 TRA     s:18461

  18452 44 014257   200003 471500                    LDP1    @PILL,,AUTO
        44 014260   100000 473500                    LDP3    0,,PR1
        44 014261   300001 236100                    LDQ     1,,PR3
        44 014262   200153 756100                    STQ     OPND,,AUTO
PL6.E3A0      #001=Z8HI$BURST File=Z8HI.:Z8A6TSI                                 SAT 08/09/97 13:19 Page:429
        44 014263   014300 710000 44                 TRA     s:18461

  18454 44 014264   200003 471500                    LDP1    @PILL,,AUTO
        44 014265   100000 473500                    LDP3    0,,PR1
        44 014266   300002 236100                    LDQ     2,,PR3
        44 014267   200153 756100                    STQ     OPND,,AUTO
        44 014270   014300 710000 44                 TRA     s:18461

  18456 44 014271   200003 471500                    LDP1    @PILL,,AUTO
        44 014272   100000 473500                    LDP3    0,,PR1
        44 014273   300003 236100                    LDQ     3,,PR3
        44 014274   200153 756100                    STQ     OPND,,AUTO
        44 014275   014300 710000 44                 TRA     s:18461

  18458 44 014276   200043 236111                    LDQ     PCOM+26,X1,AUTO
        44 014277   200153 756100                    STQ     OPND,,AUTO

     2426    18461    5            OLD_CURRENT_BLOCK$ = CURRENT_BLOCK$;

  18461 44 014300   000000 236000 4                  LDQ     CURRENT_BLOCK$
        44 014301   200124 756100                    STQ     OLD_CURRENT_BLOCK$,,AUTO

     2427    18462
     2428    18463    6            DO CASE(OPND -> ST.ID);

  18463 44 014302   200153 471500                    LDP1    OPND,,AUTO
        44 014303   100000 236100                    LDQ     0,,PR1
        44 014304   000022 772000                    QRL     18
        44 014305   000765 136007                    SBLQ    501,DL
        44 014306   000013 116007                    CMPQ    11,DL
        44 014307   014311 602006 44                 TNC     s:18463+7,QL
        44 014310   014352 710000 44                 TRA     s:18498
        44 014311   014324 710000 44                 TRA     s:18465
        44 014312   014324 710000 44                 TRA     s:18465
        44 014313   014352 710000 44                 TRA     s:18498
        44 014314   014350 710000 44                 TRA     s:18476
        44 014315   014352 710000 44                 TRA     s:18498
PL6.E3A0      #001=Z8HI$BURST File=Z8HI.:Z8A6TSI                                 SAT 08/09/97 13:19 Page:430
        44 014316   014352 710000 44                 TRA     s:18498
        44 014317   014352 710000 44                 TRA     s:18498
        44 014320   014352 710000 44                 TRA     s:18498
        44 014321   014352 710000 44                 TRA     s:18498
        44 014322   014352 710000 44                 TRA     s:18498
        44 014323   014324 710000 44                 TRA     s:18465

     2429    18464    6              CASE(%SCALAR, %POINTER, %ARRAY);

     2430    18465    6                P$ = COMCOM.BLOCK$;

  18465 44 014324   000145 236000 xsym               LDQ     COMCOM+101
        44 014325   200226 756100                    STQ     P$,,AUTO

     2431    18466    6                I = 1;

  18466 44 014326   000001 235007                    LDA     1,DL
        44 014327   200223 755100                    STA     I,,AUTO

     2432    18467
     2433    18468    7                DO WHILE(OPND -> VARIABLE.COUNT > I);

  18468 44 014330   100000 236100                    LDQ     0,,PR1
        44 014331   000777 376007                    ANQ     511,DL
        44 014332   200223 116100                    CMPQ    I,,AUTO
        44 014333   014345 604400 44                 TMOZ    s:18473

     2434    18469    7                  P$ = P$ -> VARIABLE.NEXT;

  18469 44 014334   200226 470500                    LDP0    P$,,AUTO
        44 014335   000004 236100                    LDQ     4,,PR0
        44 014336   200226 756100                    STQ     P$,,AUTO

     2435    18470    7                  I = I + 1;

  18470 44 014337   200223 054100                    AOS     I,,AUTO

PL6.E3A0      #001=Z8HI$BURST File=Z8HI.:Z8A6TSI                                 SAT 08/09/97 13:19 Page:431
     2436    18471    7                END;

  18471 44 014340   200153 470500                    LDP0    OPND,,AUTO
        44 014341   000000 236100                    LDQ     0,,PR0
        44 014342   000777 376007                    ANQ     511,DL
        44 014343   200223 116100                    CMPQ    I,,AUTO
        44 014344   014334 605400 44                 TPNZ    s:18469

     2437    18472
     2438    18473    6                CURRENT_BLOCK$ = P$;

  18473 44 014345   200226 236100                    LDQ     P$,,AUTO
        44 014346   000000 756000 4                  STQ     CURRENT_BLOCK$
        44 014347   014352 710000 44                 TRA     s:18498

     2439    18474
     2440    18475    6              CASE(%SECTION);

     2441    18476    6                CURRENT_BLOCK$ = OPND -> SECTION.SEGMENT$;

  18476 44 014350   100007 236100                    LDQ     7,,PR1
        44 014351   000000 756000 4                  STQ     CURRENT_BLOCK$

     2442    18477    6            END /* Case */;

     2443    18478    5          END;

     2444    18479
     2445    18480             %NEW_ORG ( @ST$ = CURRENT_BLOCK$ );

  18498 44 014352   000002 236000 34                 LDQ     OBJ_+2
        44 014353   000002 036007                    ADLQ    2,DL
        44 014354   000003 116000 34                 CMPQ    OBJ_+3
        44 014355   014367 604000 44                 TMI     s:18504

  18500 44 014356   000000 234000 28                 SZN     PAGING_OBJ
        44 014357   014364 605000 44                 TPL     s:18502
PL6.E3A0      #001=Z8HI$BURST File=Z8HI.:Z8A6TSI                                 SAT 08/09/97 13:19 Page:432

  18501 44 014360   000020 630400 45                 EPPR0   16
        44 014361   000006 631400 45                 EPPR1   6
        44 014362   000000 701000 xent               TSX1    Z9HF$WRITE_OBJ_PAGE
        44 014363   000000 011000                    NOP     0

  18502 44 014364   000002 631400 45                 EPPR1   2
        44 014365   000000 701000 xent               TSX1    Z9HF$GET_OBJ_PAGE
        44 014366   000000 011000                    NOP     0

  18504 44 014367   000002 236000 34                 LDQ     OBJ_+2
        44 014370   000022 736000                    QLS     18
        44 014371   000001 036000 34                 ADLQ    OBJ_+1
        44 014372   000000 756000 27                 STQ     OBJ$

  18505 44 014373   000002 236007                    LDQ     2,DL
        44 014374   000002 056000 34                 ASQ     OBJ_+2

  18506 44 014375   001013 220003                    LDX0    523,DU
        44 014376   000000 470400 27                 LDP0    OBJ$
        44 014377   000000 740100                    STX0    0,,PR0

  18510 44 014400   000000 236000 4                  LDQ     CURRENT_BLOCK$
        44 014401   000000 470400 27                 LDP0    OBJ$
        44 014402   000001 756100                    STQ     1,,PR0

  18514 44 014403   016024 710000 44                 TRA     s:19025

     2446    18516        %EJECT;
PL6.E3A0      #001=Z8HI$BURST File=Z8HI.:Z8A6TSI                                 SAT 08/09/97 13:19 Page:433
     2447    18517    4   CASE(%REF_);

     2448    18518        /*V*
     2449    18519
     2450    18520                                     REF
     2451    18521
     2452    18522             PURPOSE::
     2453    18523             THIS ACTION CREATES OR AUGMENTS REFERENCE ITEMS FOR
     2454    18524           REFERENCE TRIADS.
     2455    18525             A REFERENCE ITEM IS NOTHING MORE THAN A
     2456    18526           SYMBOL TABLE ITEM THAT HAS BEEN MODIFIED IN SOME WAY E.G.
     2457    18527           SCALE FACTOR, STORAGE ADDRESS OFFSET, OR REGISTER TAG
     2458    18528           INFORMATION.
     2459    18529
     2460    18530           OPERATION:  GET A REFERENCE ITEM (WE MAY HAVE POOLED ONE
     2461    18531           FROM PREVIOUS USE).
     2462    18532           MOVE LOP'S SYMBOL TABLE OR REFERENCE ITEM UP INTO NEW
     2463    18533           REFERENCE ITEM.
     2464    18534           MAKE NECESSARY CHANGES TO THE OLD SYMBOL TABLE GUY,
     2465    18535           DEPENDING ON THE REFERENCE TRIAD ID.
     2466    18536           MARK THE CURRENT TRIAD AS BEING STORAGE CONTAINED (%REF_T),
     2467    18537           AND POINT THE ADDO FIELD OF THE CURRENT TRIAD TO THE NEW
     2468    18538           REFERENCE ITEM.
     2469    18539
     2470    18540           BELOW ARE THE REFERENCE TRIAD RELATIONSHIPS.  PARENTHESIS
     2471    18541           INDICATE THAT THESE TRIADS ARE OPTIONAL.
     2472    18542
     2473    18543
     2474    18544
     2475    18545                                         (SIZ ) -
     2476    18546                                      OR (FISS)   -
     2477    18547                                          -  -      -
     2478    18548                                         -    -       -
     2479    18549                                        -      -     EXPR
     2480    18550                                       -        -
     2481    18551                                    (SSOP)     CONSTANT
     2482    18552                                     -  -      1 - 256K
PL6.E3A0      #001=Z8HI$BURST File=Z8HI.:Z8A6TSI                                 SAT 08/09/97 13:19 Page:434
     2483    18553                                    -    -
     2484    18554                                   -      -
     2485    18555                                  -        -
     2486    18556                                (OFF )    EXPR
     2487    18557                                 -  -
     2488    18558                                -    -
     2489    18559                               -      -
     2490    18560                              -        -
     2491    18561                             -          -
     2492    18562                           BASE       CONSTANT
     2493    18563                           -  -      -128K - +128K
     2494    18564                          -    -
     2495    18565                         -      -
     2496    18566                        -        -
     2497    18567                     SCALAR      ESC
     2498    18568                  OR ARRAY    OR ARGP
     2499    18569                  OR FILE        -  -
     2500    18570                  OR .          -    -
     2501    18571                     .         -      -
     2502    18572                     .        -        -
     2503    18573                            BLOCK    CONSTANT
     2504    18574                         OR SCALAR    0 - 15
     2505    18575
     2506    18576
     2507    18577        */
     2508    18578
     2509    18579             %NEW_REF(@POINTER=LTS$$);

  18581 44 014404   000000 236000 12                 LDQ     HEAD_REF$
        44 014405   000007 116000 45                 CMPQ    7
        44 014406   014435 601000 44                 TNZ     s:18675

  18659 44 014407   000002 236000 36                 LDQ     LTS_+2
        44 014410   000006 036007                    ADLQ    6,DL
        44 014411   000003 116000 36                 CMPQ    LTS_+3
        44 014412   014423 604000 44                 TMI     s:18661

PL6.E3A0      #001=Z8HI$BURST File=Z8HI.:Z8A6TSI                                 SAT 08/09/97 13:19 Page:435
  18660 44 014413   000074 236000 45                 LDQ     60
        44 014414   200260 756100                    STQ     @TAG+2,,AUTO
        44 014415   200260 631500                    EPPR1   @TAG+2,,AUTO
        44 014416   200261 451500                    STP1    @TAG+3,,AUTO
        44 014417   200261 630500                    EPPR0   @TAG+3,,AUTO
        44 014420   000006 631400 45                 EPPR1   6
        44 014421   000000 701000 xent               TSX1    Z8AR$RESERVER
        44 014422   000000 011000                    NOP     0

  18661 44 014423   000002 236000 36                 LDQ     LTS_+2
        44 014424   000022 736000                    QLS     18
        44 014425   000001 036000 36                 ADLQ    LTS_+1
        44 014426   200236 756100                    STQ     LTS$$,,AUTO

  18662 44 014427   000006 236007                    LDQ     6,DL
        44 014430   000002 056000 36                 ASQ     LTS_+2

  18663 44 014431   001111 220003                    LDX0    585,DU
        44 014432   200236 470500                    LDP0    LTS$$,,AUTO
        44 014433   000000 740100                    STX0    0,,PR0

  18667 44 014434   014441 710000 44                 TRA     s:18685

  18675 44 014435   200236 756100                    STQ     LTS$$,,AUTO

  18676 44 014436   000000 471400 12                 LDP1    HEAD_REF$
        44 014437   100002 236100                    LDQ     2,,PR1
        44 014440   000000 756000 12                 STQ     HEAD_REF$

  18685 44 014441   000000 054000 8                  AOS     NUMBER_OF_REFS

     2510    18688
     2511    18689
     2512    18690
     2513    18691    4        IF PILL -> ETT.LOP -> ETT.ID < %FIRST_ST THEN

  18691 44 014442   200003 470500                    LDP0    @PILL,,AUTO
PL6.E3A0      #001=Z8HI$BURST File=Z8HI.:Z8A6TSI                                 SAT 08/09/97 13:19 Page:436
        44 014443   000000 471500                    LDP1    0,,PR0
        44 014444   100001 473500                    LDP3    1,,PR1
        44 014445   300000 220100                    LDX0    0,,PR3
        44 014446   000751 100003                    CMPX0   489,DU
        44 014447   014456 603000 44                 TRC     s:18695

     2514    18692    4          LTS$$ -> REF = PILL -> ETT.LOP -> ETT.REF$ -> REF;

  18692 44 014450   300003 474500                    LDP4    3,,PR3
        44 014451   200236 475500                    LDP5    LTS$$,,AUTO
        44 014452   000100 100500                    MLR     fill='000'O
        44 014453   400000 000030                    ADSC9   0,,PR4                   cn=0,n=24
        44 014454   500000 000030                    ADSC9   0,,PR5                   cn=0,n=24
        44 014455   014504 710000 44                 TRA     s:18707

     2515    18693    4        ELSE
     2516    18694    5          DO;

     2517    18695    5            LTS$$ -> REF.B = '0'O;

  18695 44 014456   000000 221003                    LDX1    0,DU
        44 014457   200236 474500                    LDP4    LTS$$,,AUTO
        44 014460   400000 441100                    SXL1    0,,PR4

     2518    18696    5            LTS$$ -> LTS.ID = %REF;

  18696 44 014461   001111 220003                    LDX0    585,DU
        44 014462   400000 740100                    STX0    0,,PR4

     2519    18697    5            LTS$$ -> REF.SA      = PILL -> ETT.LOP -> ST.SA;

  18697 44 014463   000000 471500                    LDP1    0,,PR0
        44 014464   100001 473500                    LDP3    1,,PR1
        44 014465   300001 222100                    LDX2    1,,PR3
        44 014466   400001 742100                    STX2    1,,PR4

     2520    18698    5            LTS$$ -> REF.DESCL   = PILL -> ETT.LOP -> ST.DESCL;
PL6.E3A0      #001=Z8HI$BURST File=Z8HI.:Z8A6TSI                                 SAT 08/09/97 13:19 Page:437

  18698 44 014467   000000 471500                    LDP1    0,,PR0
        44 014470   100001 473500                    LDP3    1,,PR1
        44 014471   300001 723100                    LXL3    1,,PR3
        44 014472   400001 443100                    SXL3    1,,PR4

     2521    18699    5            LTS$$ -> REF.ST$ = PILL -> ETT.LOP;

  18699 44 014473   000000 471500                    LDP1    0,,PR0
        44 014474   100001 236100                    LDQ     1,,PR1
        44 014475   400005 756100                    STQ     5,,PR4

     2522    18700    5            LTS$$ -> REF.PR_TAG$ = ADDR(NIL);

  18700 44 014476   000007 236000 45                 LDQ     7
        44 014477   400004 756100                    STQ     4,,PR4

     2523    18701    5            LTS$$ -> REF.SSOP_TAG$ = ADDR(NIL);

  18701 44 014500   000007 236000 45                 LDQ     7
        44 014501   400002 756100                    STQ     2,,PR4

     2524    18702    5            LTS$$ -> REF.SIZ_TAG$ = ADDR(NIL);

  18702 44 014502   000007 236000 45                 LDQ     7
        44 014503   400003 756100                    STQ     3,,PR4

     2525    18703    5          END;

     2526    18704
     2527    18705             %IMPLIED_REF(REF$=LTS$$, CNT=PILL -> ETT.COUNT);

  18707 44 014504   200236 471500                    LDP1    LTS$$,,AUTO
        44 014505   100002 236100                    LDQ     2,,PR1
        44 014506   000007 116000 45                 CMPQ    7
        44 014507   014525 600000 44                 TZE     s:18709

PL6.E3A0      #001=Z8HI$BURST File=Z8HI.:Z8A6TSI                                 SAT 08/09/97 13:19 Page:438
  18708 44 014510   000000 473500                    LDP3    0,,PR0
        44 014511   300000 236100                    LDQ     0,,PR3
        44 014512   777777 376007                    ANQ     -1,DL
        44 014513   200260 756100                    STQ     @TAG+2,,AUTO
        44 014514   200260 633500                    EPPR3   @TAG+2,,AUTO
        44 014515   200263 453500                    STP3    @TAG+5,,AUTO
        44 014516   200236 236100                    LDQ     LTS$$,,AUTO
        44 014517   000002 036003                    ADLQ    2,DU
        44 014520   200262 756100                    STQ     @TAG+4,,AUTO
        44 014521   200262 630500                    EPPR0   @TAG+4,,AUTO
        44 014522   000015 631400 45                 EPPR1   13
        44 014523   000000 701000 xent               TSX1    Z8HU$INCCNT
        44 014524   000000 011000                    NOP     0

  18709 44 014525   200236 470500                    LDP0    LTS$$,,AUTO
        44 014526   000003 236100                    LDQ     3,,PR0
        44 014527   000007 116000 45                 CMPQ    7
        44 014530   014547 600000 44                 TZE     s:18711

  18710 44 014531   200003 471500                    LDP1    @PILL,,AUTO
        44 014532   100000 473500                    LDP3    0,,PR1
        44 014533   300000 236100                    LDQ     0,,PR3
        44 014534   777777 376007                    ANQ     -1,DL
        44 014535   200260 756100                    STQ     @TAG+2,,AUTO
        44 014536   200260 633500                    EPPR3   @TAG+2,,AUTO
        44 014537   200263 453500                    STP3    @TAG+5,,AUTO
        44 014540   200236 236100                    LDQ     LTS$$,,AUTO
        44 014541   000003 036003                    ADLQ    3,DU
        44 014542   200262 756100                    STQ     @TAG+4,,AUTO
        44 014543   200262 630500                    EPPR0   @TAG+4,,AUTO
        44 014544   000015 631400 45                 EPPR1   13
        44 014545   000000 701000 xent               TSX1    Z8HU$INCCNT
        44 014546   000000 011000                    NOP     0

  18711 44 014547   200236 470500                    LDP0    LTS$$,,AUTO
        44 014550   000005 471500                    LDP1    5,,PR0
        44 014551   100000 220100                    LDX0    0,,PR1
PL6.E3A0      #001=Z8HI$BURST File=Z8HI.:Z8A6TSI                                 SAT 08/09/97 13:19 Page:439
        44 014552   000760 100003                    CMPX0   496,DU
        44 014553   014567 601000 44                 TNZ     s:18715

  18712 44 014554   200003 473500                    LDP3    @PILL,,AUTO
        44 014555   300000 474500                    LDP4    0,,PR3
        44 014556   400000 236100                    LDQ     0,,PR4
        44 014557   777777 376007                    ANQ     -1,DL
        44 014560   200260 756100                    STQ     @TAG+2,,AUTO
        44 014561   100004 236100                    LDQ     4,,PR1
        44 014562   000022 732000                    QRS     18
        44 014563   200260 036100                    ADLQ    @TAG+2,,AUTO
        44 014564   000000 620006                    EAX0    0,QL
        44 014565   100004 740100                    STX0    4,,PR1
        44 014566   014610 710000 44                 TRA     s:18720

  18715 44 014567   000004 236100                    LDQ     4,,PR0
        44 014570   000007 116000 45                 CMPQ    7
        44 014571   014610 600000 44                 TZE     s:18720

  18716 44 014572   200003 473500                    LDP3    @PILL,,AUTO
        44 014573   300000 474500                    LDP4    0,,PR3
        44 014574   400000 236100                    LDQ     0,,PR4
        44 014575   777777 376007                    ANQ     -1,DL
        44 014576   200260 756100                    STQ     @TAG+2,,AUTO
        44 014577   200260 631500                    EPPR1   @TAG+2,,AUTO
        44 014600   200263 451500                    STP1    @TAG+5,,AUTO
        44 014601   200236 236100                    LDQ     LTS$$,,AUTO
        44 014602   000004 036003                    ADLQ    4,DU
        44 014603   200262 756100                    STQ     @TAG+4,,AUTO
        44 014604   200262 630500                    EPPR0   @TAG+4,,AUTO
        44 014605   000015 631400 45                 EPPR1   13
        44 014606   000000 701000 xent               TSX1    Z8HU$INCCNT
        44 014607   000000 011000                    NOP     0

     2528    18719
     2529    18720    5        DO CASE(PILL -> ETT.ID);

PL6.E3A0      #001=Z8HI$BURST File=Z8HI.:Z8A6TSI                                 SAT 08/09/97 13:19 Page:440
  18720 44 014610   200003 470500                    LDP0    @PILL,,AUTO
        44 014611   000000 471500                    LDP1    0,,PR0
        44 014612   100000 220100                    LDX0    0,,PR1
        44 014613   000020 100003                    CMPX0   16,DU
        44 014614   014616 602010 44                 TNC     s:18720+6,X0
        44 014615   015126 710000 44                 TRA     s:18818
        44 014616   015126 710000 44                 TRA     s:18818
        44 014617   014636 710000 44                 TRA     s:18723
        44 014620   015022 710000 44                 TRA     s:18787
        44 014621   014763 710000 44                 TRA     s:18779
        44 014622   014757 710000 44                 TRA     s:18775
        44 014623   014753 710000 44                 TRA     s:18772
        44 014624   015063 710000 44                 TRA     s:18803
        44 014625   015042 710000 44                 TRA     s:18796
        44 014626   015107 710000 44                 TRA     s:18811
        44 014627   015071 710000 44                 TRA     s:18807
        44 014630   014757 710000 44                 TRA     s:18775
        44 014631   015126 710000 44                 TRA     s:18818
        44 014632   015116 710000 44                 TRA     s:18815
        44 014633   014706 710000 44                 TRA     s:18757
        44 014634   014732 710000 44                 TRA     s:18766
        44 014635   014712 710000 44                 TRA     s:18760

     2530    18721    5          CASE(%BASE);

     2531    18722                 %IF USING_HALF_WORD_RELOCATION;
     2532    18723    5              IF PILL -> ETT.ROP -> ETT.ID = %ESC THEN

  18723 44 014636   100002 473500                    LDP3    2,,PR1
        44 014637   300000 221100                    LDX1    0,,PR3
        44 014640   000017 101003                    CMPX1   15,DU
        44 014641   014656 601000 44                 TNZ     s:18728

     2533    18724    5                CALL Z8HU$DEC_COUNT(PILL -> ETT.ROP,

  18724 44 014642   300000 236100                    LDQ     0,,PR3
        44 014643   777777 376007                    ANQ     -1,DL
PL6.E3A0      #001=Z8HI$BURST File=Z8HI.:Z8A6TSI                                 SAT 08/09/97 13:19 Page:441
        44 014644   200260 756100                    STQ     @TAG+2,,AUTO
        44 014645   200260 633500                    EPPR3   @TAG+2,,AUTO
        44 014646   200263 453500                    STP3    @TAG+5,,AUTO
        44 014647   100002 634500                    EPPR4   2,,PR1
        44 014650   200262 454500                    STP4    @TAG+4,,AUTO
        44 014651   200262 630500                    EPPR0   @TAG+4,,AUTO
        44 014652   000015 631400 45                 EPPR1   13
        44 014653   000000 701000 xent               TSX1    Z8HU$DEC_COUNT
        44 014654   000000 011000                    NOP     0
        44 014655   015132 710000 44                 TRA     s:18821

     2534    18725    5                           BINBIT(PILL -> ETT.ROP -> ETT.COUNT, 36));
     2535    18726    5              ELSE
     2536    18727    6                DO;

     2537    18728    6                LTS$$ -> REF.SA = LTS$$ -> REF.SA -

  18728 44 014656   200236 474500                    LDP4    LTS$$,,AUTO
        44 014657   400001 236100                    LDQ     1,,PR4
        44 014660   000022 772000                    QRL     18
        44 014661   200260 756100                    STQ     @TAG+2,,AUTO
        44 014662   300002 236100                    LDQ     2,,PR3
        44 014663   000016 736000                    QLS     14
        44 014664   000075 376000 45                 ANQ     61
        44 014665   000076 676000 45                 ERQ     62
        44 014666   000001 036007                    ADLQ    1,DL
        44 014667   200260 036100                    ADLQ    @TAG+2,,AUTO
        44 014670   000000 620006                    EAX0    0,QL
        44 014671   400001 740100                    STX0    1,,PR4

     2538    18729    6                       (%#16K * PILL -> ETT.ROP -> ETT.ESCINF.BLK#);
     2539    18730
     2540    18731                 %ELSE;
     2557    18748                 %ENDIF;
     2558    18749    6                LTS$$ -> REF.PR_TAG$ = PILL -> ETT.ROP;

  18749 44 014672   000000 471500                    LDP1    0,,PR0
PL6.E3A0      #001=Z8HI$BURST File=Z8HI.:Z8A6TSI                                 SAT 08/09/97 13:19 Page:442
        44 014673   100002 236100                    LDQ     2,,PR1
        44 014674   400004 756100                    STQ     4,,PR4

     2559    18750
     2560    18751    6                RAT.AWAITING(PILL -> ETT.ROP -> ETT.STATE) = 1;

  18751 44 014675   000000 471500                    LDP1    0,,PR0
        44 014676   100002 473500                    LDP3    2,,PR1
        44 014677   300004 221100                    LDX1    4,,PR3
        44 014700   300004 021100                    ADLX1   4,,PR3
        44 014701   000000 635011                    EAA     0,X1
        44 014702   000021 771000                    ARL     17
        44 014703   000001 222003                    LDX2    1,DU
        44 014704   000001 442005 1                  SXL2    RAT+1,AL

     2561    18752                 %IF USING_HALF_WORD_RELOCATION;
     2562    18753    6              END;

  18753 44 014705   015132 710000 44                 TRA     s:18821

     2563    18754                 %ENDIF;
     2564    18755
     2565    18756    5          CASE(%TRIAD);

     2566    18757    5            LTS$$ -> REF.B.CONST = TRUE;

  18757 44 014706   200236 473500                    LDP3    LTS$$,,AUTO
        44 014707   000001 236007                    LDQ     1,DL
        44 014710   300000 256100                    ORSQ    0,,PR3
        44 014711   015132 710000 44                 TRA     s:18821

     2567    18758
     2568    18759    5          CASE(%ESC);

     2569    18760    5            IF PILL -> ETT.LOP -> ST.R ~= %PROGRAM THEN

  18760 44 014712   100001 473500                    LDP3    1,,PR1
PL6.E3A0      #001=Z8HI$BURST File=Z8HI.:Z8A6TSI                                 SAT 08/09/97 13:19 Page:443
        44 014713   300000 236100                    LDQ     0,,PR3
        44 014714   777000 376007                    ANQ     -512,DL
        44 014715   001000 116007                    CMPQ    512,DL
        44 014716   014726 600000 44                 TZE     s:18763

     2570    18761    5              LTS$$ -> REF.SA = LTS$$ -> REF.SA + PILL -> ETT.ROPCON;

  18761 44 014717   200236 474500                    LDP4    LTS$$,,AUTO
        44 014720   400001 236100                    LDQ     1,,PR4
        44 014721   000022 772000                    QRL     18
        44 014722   100002 036100                    ADLQ    2,,PR1
        44 014723   000000 621006                    EAX1    0,QL
        44 014724   400001 741100                    STX1    1,,PR4
        44 014725   015132 710000 44                 TRA     s:18821

     2571    18762    5            ELSE
     2572    18763    5              PILL -> ETT.ROP -> ST.SA = 0;

  18763 44 014726   100002 474500                    LDP4    2,,PR1
        44 014727   000000 221003                    LDX1    0,DU
        44 014730   400001 741100                    STX1    1,,PR4
        44 014731   015132 710000 44                 TRA     s:18821

     2573    18764
     2574    18765    5          CASE(%ARGP);

     2575    18766    5              LTS$$ -> REF.ST$ = PILL -> ETT.LOP -> SCALAR.PROC$ ->

  18766 44 014732   100001 473500                    LDP3    1,,PR1
        44 014733   300011 474500                    LDP4    9,,PR3
        44 014734   400004 475500                    LDP5    4,,PR4
        44 014735   500001 236100                    LDQ     1,,PR5
        44 014736   200236 476500                    LDP6    LTS$$,,AUTO
        44 014737   600005 756100                    STQ     5,,PR6

     2576    18767    5                                PROC_.PSEUDO_STACK$ -> ETT.LOP;
     2577    18768    5              LTS$$ -> REF.SA = LTS$$ -> REF.ST$ -> ST.SA +
PL6.E3A0      #001=Z8HI$BURST File=Z8HI.:Z8A6TSI                                 SAT 08/09/97 13:19 Page:444

  18768 44 014740   600005 471500                    LDP1    5,,PR6
        44 014741   000000 473500                    LDP3    0,,PR0
        44 014742   300002 236100                    LDQ     2,,PR3
        44 014743   000022 772000                    QRL     18
        44 014744   200260 756100                    STQ     @TAG+2,,AUTO
        44 014745   100001 236100                    LDQ     1,,PR1
        44 014746   000022 772000                    QRL     18
        44 014747   200260 036100                    ADLQ    @TAG+2,,AUTO
        44 014750   000001 620006                    EAX0    1,QL
        44 014751   600001 740100                    STX0    1,,PR6
        44 014752   015132 710000 44                 TRA     s:18821

     2578    18769    5                                PILL -> ETT.ESCINF.ARG# + %STACK_HEADER;
     2579    18770
     2580    18771    5          CASE(%SSOP);

     2581    18772    5            LTS$$ -> REF.SSOP_TAG$ = PILL -> ETT.ROP;

  18772 44 014753   100002 236100                    LDQ     2,,PR1
        44 014754   200236 473500                    LDP3    LTS$$,,AUTO
        44 014755   300002 756100                    STQ     2,,PR3
        44 014756   015132 710000 44                 TRA     s:18821

     2582    18773
     2583    18774    5          CASE(%SIZ, %REFMOD);                                 /*#28637*/

     2584    18775    5            LTS$$ -> REF.SIZ_TAG$ = PILL -> ETT.ROP;

  18775 44 014757   100002 236100                    LDQ     2,,PR1
        44 014760   200236 473500                    LDP3    LTS$$,,AUTO
        44 014761   300003 756100                    STQ     3,,PR3
        44 014762   015132 710000 44                 TRA     s:18821

     2585    18776
     2586    18777    5          CASE(%OFF);

PL6.E3A0      #001=Z8HI$BURST File=Z8HI.:Z8A6TSI                                 SAT 08/09/97 13:19 Page:445
     2587    18778            /*   LTS$$ -> REF.B.CONST = FALSE;  */
     2588    18779    5            LTS$$ -> REF.B.WORD_ = (PILL -> ETT.OFFSET.TYPE = %WORD_);

  18779 44 014763   400000 221003                    LDX1    -131072,DU
        44 014764   100002 722100                    LXL2    2,,PR1
        44 014765   000006 102003                    CMPX2   6,DU
        44 014766   014770 600000 44                 TZE     s:18779+5
        44 014767   000000 221003                    LDX1    0,DU
        44 014770   200236 473500                    LDP3    LTS$$,,AUTO
        44 014771   000000 636011                    EAQ     0,X1
        44 014772   000042 772000                    QRL     34
        44 014773   300000 676100                    ERQ     0,,PR3
        44 014774   000002 376007                    ANQ     2,DL
        44 014775   300000 656100                    ERSQ    0,,PR3

     2589    18780
     2590    18781    5            CODE    = PILL -> ETT.OFFSET.TYPE;

  18781 44 014776   000000 471500                    LDP1    0,,PR0
        44 014777   100002 236100                    LDQ     2,,PR1
        44 015000   777777 376007                    ANQ     -1,DL
        44 015001   200166 756100                    STQ     CODE,,AUTO

     2591    18782    5            OFFSET  = PILL -> ETT.OFFSET.VALUE;

  18782 44 015002   000000 471500                    LDP1    0,,PR0
        44 015003   100002 236100                    LDQ     2,,PR1
        44 015004   000022 732000                    QRS     18
        44 015005   200167 756100                    STQ     OFFSET,,AUTO

     2592    18783
     2593    18784    5            CALL Z9AU$OFFSET(OFFSET, CODE, LTS$$ -> REF.SA);

  18784 44 015006   200236 236100                    LDQ     LTS$$,,AUTO
        44 015007   000001 036003                    ADLQ    1,DU
        44 015010   200262 756100                    STQ     @TAG+4,,AUTO
        44 015011   200166 631500                    EPPR1   CODE,,AUTO
PL6.E3A0      #001=Z8HI$BURST File=Z8HI.:Z8A6TSI                                 SAT 08/09/97 13:19 Page:446
        44 015012   200261 451500                    STP1    @TAG+3,,AUTO
        44 015013   200167 634500                    EPPR4   OFFSET,,AUTO
        44 015014   200260 454500                    STP4    @TAG+2,,AUTO
        44 015015   200260 630500                    EPPR0   @TAG+2,,AUTO
        44 015016   000000 631400 45                 EPPR1   0
        44 015017   000000 701000 xent               TSX1    Z9AU$OFFSET
        44 015020   000000 011000                    NOP     0
        44 015021   015132 710000 44                 TRA     s:18821

     2594    18785
     2595    18786    5          CASE(%FISS);

     2596    18787    6            DO CASE(PILL -> ETT.OFFSET.TYPE);

  18787 44 015022   100002 721100                    LXL1    2,,PR1
        44 015023   000002 101003                    CMPX1   2,DU
        44 015024   015026 602011 44                 TNC     s:18787+4,X1
        44 015025   015132 710000 44                 TRA     s:18821
        44 015026   015035 710000 44                 TRA     s:18792
        44 015027   015030 710000 44                 TRA     s:18789

     2597    18788    6              CASE(%NUMERIC_FISS);

     2598    18789    6                LTS$$ -> REF.NDSC.N = PILL -> ETT.SIZE.VALUE;

  18789 44 015030   200236 473500                    LDP3    LTS$$,,AUTO
        44 015031   100002 236100                    LDQ     2,,PR1
        44 015032   000022 772000                    QRL     18
        44 015033   300001 752101                    STCQ    1,'01'O,PR3
        44 015034   015132 710000 44                 TRA     s:18821

     2599    18790
     2600    18791    6              CASE(%ALPHA_NUMERIC_FISS);

     2601    18792    6                LTS$$ -> REF.ADSC.N = PILL -> ETT.SIZE.VALUE;

  18792 44 015035   200236 473500                    LDP3    LTS$$,,AUTO
PL6.E3A0      #001=Z8HI$BURST File=Z8HI.:Z8A6TSI                                 SAT 08/09/97 13:19 Page:447
        44 015036   100002 236100                    LDQ     2,,PR1
        44 015037   000022 772000                    QRL     18
        44 015040   300001 752103                    STCQ    1,'03'O,PR3

     2602    18793    6            END /* Case */;

  18793 44 015041   015132 710000 44                 TRA     s:18821

     2603    18794
     2604    18795    5          CASE(%DNA);

     2605    18796    5            LTS$$ -> REF.ADSC.N = PILL -> ETT.DESC.ADSC.N;

  18796 44 015042   200236 473500                    LDP3    LTS$$,,AUTO
        44 015043   100002 236100                    LDQ     2,,PR1
        44 015044   300001 752103                    STCQ    1,'03'O,PR3

     2606    18797    5            LTS$$ -> REF.ADSC.MBZ2 = FALSE;

  18797 44 015045   000034 236000 45                 LDQ     28
        44 015046   300001 356100                    ANSQ    1,,PR3

     2607    18798    5            LTS$$ -> REF.ADSC.TA = PILL -> ETT.DESC.ADSC.TA;

  18798 44 015047   000000 471500                    LDP1    0,,PR0
        44 015050   100002 236100                    LDQ     2,,PR1
        44 015051   300001 676100                    ERQ     1,,PR3
        44 015052   060000 376007                    ANQ     24576,DL
        44 015053   300001 656100                    ERSQ    1,,PR3

     2608    18799    5            IF PILL -> ETT.DESC.ADSC.TA = %ADSC9 THEN

  18799 44 015054   000000 471500                    LDP1    0,,PR0
        44 015055   100002 236100                    LDQ     2,,PR1
        44 015056   060000 316007                    CANQ    24576,DL
        44 015057   015132 601000 44                 TNZ     s:18821

PL6.E3A0      #001=Z8HI$BURST File=Z8HI.:Z8A6TSI                                 SAT 08/09/97 13:19 Page:448
     2609    18800    5              LTS$$ -> REF.ADSC.MBZ1 = FALSE;

  18800 44 015060   000032 236000 45                 LDQ     26
        44 015061   300001 356100                    ANSQ    1,,PR3
        44 015062   015132 710000 44                 TRA     s:18821

     2610    18801
     2611    18802    5          CASE(%DAN);

     2612    18803    5            LTS$$ -> REF.NDSC.S = %NO_SIGN;

  18803 44 015063   200236 473500                    LDP3    LTS$$,,AUTO
        44 015064   030000 236007                    LDQ     12288,DL
        44 015065   300001 256100                    ORSQ    1,,PR3

     2613    18804    5            LTS$$ -> REF.NDSC.SF = 0;

  18804 44 015066   000000 236003                    LDQ     0,DU
        44 015067   300001 752102                    STCQ    1,'02'O,PR3
        44 015070   015132 710000 44                 TRA     s:18821

     2614    18805
     2615    18806    5          CASE(%D96);

     2616    18807    5            LTS$$ -> REF.ADSC.TA = %ADSC6;

  18807 44 015071   200236 473500                    LDP3    LTS$$,,AUTO
        44 015072   300001 236100                    LDQ     1,,PR3
        44 015073   000036 376000 45                 ANQ     30
        44 015074   020000 276007                    ORQ     8192,DL
        44 015075   300001 756100                    STQ     1,,PR3

     2617    18808    5            LTS$$ -> REF.NDSC.CN = T96_CN (LTS$$ -> REF.ADSC.CN);

  18808 44 015076   300001 236100                    LDQ     1,,PR3
        44 015077   000020 772000                    QRL     16
        44 015100   000003 376007                    ANQ     3,DL
PL6.E3A0      #001=Z8HI$BURST File=Z8HI.:Z8A6TSI                                 SAT 08/09/97 13:19 Page:449
        44 015101   000012 236006 42                 LDQ     T96_CN,QL
        44 015102   000017 736000                    QLS     15
        44 015103   300001 676100                    ERQ     1,,PR3
        44 015104   700000 376007                    ANQ     -32768,DL
        44 015105   300001 656100                    ERSQ    1,,PR3
        44 015106   015132 710000 44                 TRA     s:18821

     2618    18809
     2619    18810    5          CASE(%DESC);

     2620    18811    5            LTS$$ -> REF.SA = PILL -> ETT.DESC.SA;

  18811 44 015107   100002 221100                    LDX1    2,,PR1
        44 015110   200236 473500                    LDP3    LTS$$,,AUTO
        44 015111   300001 741100                    STX1    1,,PR3

     2621    18812    5            LTS$$ -> REF.DESCL = PILL -> ETT.DESC.DESCL;

  18812 44 015112   000000 471500                    LDP1    0,,PR0
        44 015113   100002 720100                    LXL0    2,,PR1
        44 015114   300001 440100                    SXL0    1,,PR3
        44 015115   015132 710000 44                 TRA     s:18821

     2622    18813
     2623    18814    5          CASE(%MPD10);

     2624    18815    5            LTS$$ -> REF.NDSC.SF = LTS$$ -> REF.NDSC.SF + PILL -> ETT.ROPCON;

  18815 44 015116   200236 473500                    LDP3    LTS$$,,AUTO
        44 015117   300001 236100                    LDQ     1,,PR3
        44 015120   000030 736000                    QLS     24
        44 015121   000036 732000                    QRS     30
        44 015122   100002 036100                    ADLQ    2,,PR1
        44 015123   000006 736000                    QLS     6
        44 015124   300001 752102                    STCQ    1,'02'O,PR3
        44 015125   015132 710000 44                 TRA     s:18821

PL6.E3A0      #001=Z8HI$BURST File=Z8HI.:Z8A6TSI                                 SAT 08/09/97 13:19 Page:450
     2625    18816
     2626    18817    5          CASE(ELSE);

     2627    18818    5            CALL Z8AE$ERROR(%E$UNEXPECTED_CASE);

  18818 44 015126   000043 630400 45                 EPPR0   35
        44 015127   000006 631400 45                 EPPR1   6
        44 015130   000000 701000 xent               TSX1    Z8AE$ERROR
        44 015131   000000 011000                    NOP     0

     2628    18819    5        END /* Case */;

     2629    18820
     2630    18821    4        IF PILL -> ETT.STATE = %UNEVAL_T THEN

  18821 44 015132   200003 470500                    LDP0    @PILL,,AUTO
        44 015133   000000 471500                    LDP1    0,,PR0
        44 015134   100004 220100                    LDX0    4,,PR1
        44 015135   015140 601000 44                 TNZ     s:18824

     2631    18822    4          PILL -> ETT.STATE = %REF_T;

  18822 44 015136   000004 221003                    LDX1    4,DU
        44 015137   100004 741100                    STX1    4,,PR1

     2632    18823
     2633    18824    4        PILL -> ETT.REF$ = LTS$$;

  18824 44 015140   000000 471500                    LDP1    0,,PR0
        44 015141   200236 236100                    LDQ     LTS$$,,AUTO
        44 015142   100003 756100                    STQ     3,,PR1
        44 015143   016024 710000 44                 TRA     s:19025

     2634    18825
     2635    18826        %EJECT;
PL6.E3A0      #001=Z8HI$BURST File=Z8HI.:Z8A6TSI                                 SAT 08/09/97 13:19 Page:451
     2636    18827    4   CASE(%SHIFTL);

     2637    18828        /*V* SHIFTL -- See MOVE for PSEUDO-CODE_UTILITIES documentation */
     2638    18829
     2639    18830    4        IF PCC.CODE1 = %ABS_CONST THEN

  18830 44 015144   200150 236100                    LDQ     PC,,AUTO
        44 015145   770000 376007                    ANQ     -4096,DL
        44 015146   300000 116007                    CMPQ    98304,DL
        44 015147   016024 601000 44                 TNZ     s:19025

     2640    18831    5          DO I = 1 TO PCC.CONST;

  18831 44 015150   000001 235007                    LDA     1,DL
        44 015151   200223 755100                    STA     I,,AUTO
        44 015152   015162 710000 44                 TRA     s:18833+1

     2641    18832    5            PCOM_.ABS(PCC.CODE2) = PCOM_.ABS(PCC.CODE2) * 2;

  18832 44 015153   200150 236100                    LDQ     PC,,AUTO
        44 015154   000005 772000                    QRL     5
        44 015155   000177 376007                    ANQ     127,DL
        44 015156   200011 235106                    LDA     PCOM,QL,AUTO
        44 015157   000001 735000                    ALS     1
        44 015160   200011 755106                    STA     PCOM,QL,AUTO

     2642    18833    5          END;

  18833 44 015161   200223 054100                    AOS     I,,AUTO
        44 015162   200151 236100                    LDQ     PC+1,,AUTO
        44 015163   015153 604000 44                 TMI     s:18832
        44 015164   200223 116100                    CMPQ    I,,AUTO
        44 015165   015153 605000 44                 TPL     s:18832
        44 015166   016024 710000 44                 TRA     s:19025

     2643    18834
     2644    18835    4   CASE(%SHIFTR);
PL6.E3A0      #001=Z8HI$BURST File=Z8HI.:Z8A6TSI                                 SAT 08/09/97 13:19 Page:452

     2645    18836        /*V* SHIFTR -- See MOVE for PSEUDO-CODE_UTILITIES documentation */
     2646    18837
     2647    18838    4        IF PCC.CODE1 = %ABS_CONST THEN

  18838 44 015167   200150 236100                    LDQ     PC,,AUTO
        44 015170   770000 376007                    ANQ     -4096,DL
        44 015171   300000 116007                    CMPQ    98304,DL
        44 015172   016024 601000 44                 TNZ     s:19025

     2648    18839    5          DO I = 1 TO PCC.CONST;

  18839 44 015173   000001 235007                    LDA     1,DL
        44 015174   200223 755100                    STA     I,,AUTO
        44 015175   015206 710000 44                 TRA     s:18841+1

     2649    18840    5            PCOM_.ABS(PCC.CODE2) = PCOM_.ABS(PCC.CODE2) / 2;

  18840 44 015176   200150 236100                    LDQ     PC,,AUTO
        44 015177   000005 772000                    QRL     5
        44 015200   000177 376007                    ANQ     127,DL
        44 015201   000000 620006                    EAX0    0,QL
        44 015202   200011 236106                    LDQ     PCOM,QL,AUTO
        44 015203   000001 772000                    QRL     1
        44 015204   200011 756110                    STQ     PCOM,X0,AUTO

     2650    18841    5          END;

  18841 44 015205   200223 054100                    AOS     I,,AUTO
        44 015206   200151 236100                    LDQ     PC+1,,AUTO
        44 015207   015176 604000 44                 TMI     s:18840
        44 015210   200223 116100                    CMPQ    I,,AUTO
        44 015211   015176 605000 44                 TPL     s:18840
        44 015212   016024 710000 44                 TRA     s:19025

     2651    18842
     2652    18843        %EJECT;
PL6.E3A0      #001=Z8HI$BURST File=Z8HI.:Z8A6TSI                                 SAT 08/09/97 13:19 Page:453
     2653    18844    4   CASE(%STORE);

     2654    18845
     2655    18846             %LOP_ROP_TO(RESULT=P$);

  18847 44 015213   200150 721100                    LXL1    PC,,AUTO
        44 015214   000004 101003                    CMPX1   4,DU
        44 015215   015217 602011 44                 TNC     s:18847+4,X1
        44 015216   015246 710000 44                 TRA     s:18857
        44 015217   015223 710000 44                 TRA     s:18849
        44 015220   015227 710000 44                 TRA     s:18851
        44 015221   015234 710000 44                 TRA     s:18853
        44 015222   015241 710000 44                 TRA     s:18855

  18849 44 015223   200003 471500                    LDP1    @PILL,,AUTO
        44 015224   100000 236100                    LDQ     0,,PR1
        44 015225   200226 756100                    STQ     P$,,AUTO
        44 015226   015250 710000 44                 TRA     s:18861

  18851 44 015227   200003 471500                    LDP1    @PILL,,AUTO
        44 015230   100000 473500                    LDP3    0,,PR1
        44 015231   300001 236100                    LDQ     1,,PR3
        44 015232   200226 756100                    STQ     P$,,AUTO
        44 015233   015250 710000 44                 TRA     s:18861

  18853 44 015234   200003 471500                    LDP1    @PILL,,AUTO
        44 015235   100000 473500                    LDP3    0,,PR1
        44 015236   300002 236100                    LDQ     2,,PR3
        44 015237   200226 756100                    STQ     P$,,AUTO
        44 015240   015250 710000 44                 TRA     s:18861

  18855 44 015241   200003 471500                    LDP1    @PILL,,AUTO
        44 015242   100000 473500                    LDP3    0,,PR1
        44 015243   300003 236100                    LDQ     3,,PR3
        44 015244   200226 756100                    STQ     P$,,AUTO
        44 015245   015250 710000 44                 TRA     s:18861

PL6.E3A0      #001=Z8HI$BURST File=Z8HI.:Z8A6TSI                                 SAT 08/09/97 13:19 Page:454
  18857 44 015246   200043 236111                    LDQ     PCOM+26,X1,AUTO
        44 015247   200226 756100                    STQ     P$,,AUTO

     2656    18860
     2657    18861    4        CALL Z8HG$SAVE(P$);

  18861 44 015250   200226 631500                    EPPR1   P$,,AUTO
        44 015251   200260 451500                    STP1    @TAG+2,,AUTO
        44 015252   200260 630500                    EPPR0   @TAG+2,,AUTO
        44 015253   000006 631400 45                 EPPR1   6
        44 015254   000000 701000 xent               TSX1    Z8HG$SAVE
        44 015255   000000 011000                    NOP     0
        44 015256   016024 710000 44                 TRA     s:19025

     2658    18862        %EJECT;
PL6.E3A0      #001=Z8HI$BURST File=Z8HI.:Z8A6TSI                                 SAT 08/09/97 13:19 Page:455
     2659    18863    4   CASE(%WALK);

     2660    18864
     2661    18865             %LOP_ROP_TO;

  18866 44 015257   200150 721100                    LXL1    PC,,AUTO
        44 015260   000004 101003                    CMPX1   4,DU
        44 015261   015263 602011 44                 TNC     s:18866+4,X1
        44 015262   015312 710000 44                 TRA     s:18876
        44 015263   015267 710000 44                 TRA     s:18868
        44 015264   015273 710000 44                 TRA     s:18870
        44 015265   015300 710000 44                 TRA     s:18872
        44 015266   015305 710000 44                 TRA     s:18874

  18868 44 015267   200003 471500                    LDP1    @PILL,,AUTO
        44 015270   100000 236100                    LDQ     0,,PR1
        44 015271   200153 756100                    STQ     OPND,,AUTO
        44 015272   015314 710000 44                 TRA     s:18880

  18870 44 015273   200003 471500                    LDP1    @PILL,,AUTO
        44 015274   100000 473500                    LDP3    0,,PR1
        44 015275   300001 236100                    LDQ     1,,PR3
        44 015276   200153 756100                    STQ     OPND,,AUTO
        44 015277   015314 710000 44                 TRA     s:18880

  18872 44 015300   200003 471500                    LDP1    @PILL,,AUTO
        44 015301   100000 473500                    LDP3    0,,PR1
        44 015302   300002 236100                    LDQ     2,,PR3
        44 015303   200153 756100                    STQ     OPND,,AUTO
        44 015304   015314 710000 44                 TRA     s:18880

  18874 44 015305   200003 471500                    LDP1    @PILL,,AUTO
        44 015306   100000 473500                    LDP3    0,,PR1
        44 015307   300003 236100                    LDQ     3,,PR3
        44 015310   200153 756100                    STQ     OPND,,AUTO
        44 015311   015314 710000 44                 TRA     s:18880

PL6.E3A0      #001=Z8HI$BURST File=Z8HI.:Z8A6TSI                                 SAT 08/09/97 13:19 Page:456
  18876 44 015312   200043 236111                    LDQ     PCOM+26,X1,AUTO
        44 015313   200153 756100                    STQ     OPND,,AUTO

     2662    18879
     2663    18880    4        CALL Z8HU$WALK(OPND);

  18880 44 015314   200153 631500                    EPPR1   OPND,,AUTO
        44 015315   200260 451500                    STP1    @TAG+2,,AUTO
        44 015316   200260 630500                    EPPR0   @TAG+2,,AUTO
        44 015317   000006 631400 45                 EPPR1   6
        44 015320   000000 701000 xent               TSX1    Z8HU$WALK
        44 015321   000000 011000                    NOP     0
        44 015322   016024 710000 44                 TRA     s:19025

     2664    18881
     2665    18882    4   CASE(%WALK2);

     2666    18883
     2667    18884             %WALK_LOP_ROP;

  18885 44 015323   200003 471500                    LDP1    @PILL,,AUTO
        44 015324   100000 473500                    LDP3    0,,PR1
        44 015325   300001 474500                    LDP4    1,,PR3
        44 015326   400000 221100                    LDX1    0,,PR4
        44 015327   000020 101003                    CMPX1   16,DU
        44 015330   015354 603000 44                 TRC     s:18893
        44 015331   300002 475500                    LDP5    2,,PR3
        44 015332   500000 222100                    LDX2    0,,PR5
        44 015333   000020 102003                    CMPX2   16,DU
        44 015334   015354 602000 44                 TNC     s:18893

  18888 44 015335   300002 636500                    EPPR6   2,,PR3
        44 015336   200260 456500                    STP6    @TAG+2,,AUTO
        44 015337   200260 630500                    EPPR0   @TAG+2,,AUTO
        44 015340   000006 631400 45                 EPPR1   6
        44 015341   000000 701000 xent               TSX1    Z8HU$WALK
        44 015342   000000 011000                    NOP     0
PL6.E3A0      #001=Z8HI$BURST File=Z8HI.:Z8A6TSI                                 SAT 08/09/97 13:19 Page:457

  18889 44 015343   200003 470500                    LDP0    @PILL,,AUTO
        44 015344   000000 471500                    LDP1    0,,PR0
        44 015345   100001 633500                    EPPR3   1,,PR1
        44 015346   200260 453500                    STP3    @TAG+2,,AUTO
        44 015347   200260 630500                    EPPR0   @TAG+2,,AUTO
        44 015350   000006 631400 45                 EPPR1   6
        44 015351   000000 701000 xent               TSX1    Z8HU$WALK
        44 015352   000000 011000                    NOP     0

  18890 44 015353   016024 710000 44                 TRA     s:19025

  18893 44 015354   300001 635500                    EPPR5   1,,PR3
        44 015355   200260 455500                    STP5    @TAG+2,,AUTO
        44 015356   200260 630500                    EPPR0   @TAG+2,,AUTO
        44 015357   000006 631400 45                 EPPR1   6
        44 015360   000000 701000 xent               TSX1    Z8HU$WALK
        44 015361   000000 011000                    NOP     0

  18894 44 015362   200003 470500                    LDP0    @PILL,,AUTO
        44 015363   000000 471500                    LDP1    0,,PR0
        44 015364   100002 633500                    EPPR3   2,,PR1
        44 015365   200260 453500                    STP3    @TAG+2,,AUTO
        44 015366   200260 630500                    EPPR0   @TAG+2,,AUTO
        44 015367   000006 631400 45                 EPPR1   6
        44 015370   000000 701000 xent               TSX1    Z8HU$WALK
        44 015371   000000 011000                    NOP     0

  18897 44 015372   200003 470500                    LDP0    @PILL,,AUTO
        44 015373   000000 471500                    LDP1    0,,PR0
        44 015374   100001 633500                    EPPR3   1,,PR1
        44 015375   200260 453500                    STP3    @TAG+2,,AUTO
        44 015376   200260 630500                    EPPR0   @TAG+2,,AUTO
        44 015377   000006 631400 45                 EPPR1   6
        44 015400   000000 701000 xent               TSX1    Z8HU$WALK
        44 015401   000000 011000                    NOP     0

PL6.E3A0      #001=Z8HI$BURST File=Z8HI.:Z8A6TSI                                 SAT 08/09/97 13:19 Page:458
  18898 44 015402   016024 710000 44                 TRA     s:19025

     2668    18900
     2669    18901    4   CASE(%WALK3);

     2670    18902
     2671    18903    4        IF PILL -> ILL.TO_ -> ETT.ID <= %LAST_REFERENCE_TRIAD THEN

  18903 44 015403   200003 471500                    LDP1    @PILL,,AUTO
        44 015404   100000 473500                    LDP3    0,,PR1
        44 015405   300003 474500                    LDP4    3,,PR3
        44 015406   400000 221100                    LDX1    0,,PR4
        44 015407   000020 101003                    CMPX1   16,DU
        44 015410   015477 603000 44                 TRC     s:18925

     2672    18904    5          DO;

     2673    18905                 %WALK_LOP_ROP;

  18906 44 015411   300001 475500                    LDP5    1,,PR3
        44 015412   500000 222100                    LDX2    0,,PR5
        44 015413   000020 102003                    CMPX2   16,DU
        44 015414   015440 603000 44                 TRC     s:18914
        44 015415   300002 476500                    LDP6    2,,PR3
        44 015416   600000 223100                    LDX3    0,,PR6
        44 015417   000020 103003                    CMPX3   16,DU
        44 015420   015440 602000 44                 TNC     s:18914

  18909 44 015421   300002 637500                    EPPR7   2,,PR3
        44 015422   200260 457500                    STP7    @TAG+2,,AUTO
        44 015423   200260 630500                    EPPR0   @TAG+2,,AUTO
        44 015424   000006 631400 45                 EPPR1   6
        44 015425   000000 701000 xent               TSX1    Z8HU$WALK
        44 015426   000000 011000                    NOP     0

  18910 44 015427   200003 470500                    LDP0    @PILL,,AUTO
        44 015430   000000 471500                    LDP1    0,,PR0
PL6.E3A0      #001=Z8HI$BURST File=Z8HI.:Z8A6TSI                                 SAT 08/09/97 13:19 Page:459
        44 015431   100001 633500                    EPPR3   1,,PR1
        44 015432   200260 453500                    STP3    @TAG+2,,AUTO
        44 015433   200260 630500                    EPPR0   @TAG+2,,AUTO
        44 015434   000006 631400 45                 EPPR1   6
        44 015435   000000 701000 xent               TSX1    Z8HU$WALK
        44 015436   000000 011000                    NOP     0

  18911 44 015437   015466 710000 44                 TRA     s:18921

  18914 44 015440   300001 636500                    EPPR6   1,,PR3
        44 015441   200260 456500                    STP6    @TAG+2,,AUTO
        44 015442   200260 630500                    EPPR0   @TAG+2,,AUTO
        44 015443   000006 631400 45                 EPPR1   6
        44 015444   000000 701000 xent               TSX1    Z8HU$WALK
        44 015445   000000 011000                    NOP     0

  18915 44 015446   200003 470500                    LDP0    @PILL,,AUTO
        44 015447   000000 471500                    LDP1    0,,PR0
        44 015450   100002 633500                    EPPR3   2,,PR1
        44 015451   200260 453500                    STP3    @TAG+2,,AUTO
        44 015452   200260 630500                    EPPR0   @TAG+2,,AUTO
        44 015453   000006 631400 45                 EPPR1   6
        44 015454   000000 701000 xent               TSX1    Z8HU$WALK
        44 015455   000000 011000                    NOP     0

  18918 44 015456   200003 470500                    LDP0    @PILL,,AUTO
        44 015457   000000 471500                    LDP1    0,,PR0
        44 015460   100001 633500                    EPPR3   1,,PR1
        44 015461   200260 453500                    STP3    @TAG+2,,AUTO
        44 015462   200260 630500                    EPPR0   @TAG+2,,AUTO
        44 015463   000006 631400 45                 EPPR1   6
        44 015464   000000 701000 xent               TSX1    Z8HU$WALK
        44 015465   000000 011000                    NOP     0

     2674    18921    5            CALL Z8HU$WALK(PILL -> ILL.TO_);

  18921 44 015466   200003 470500                    LDP0    @PILL,,AUTO
PL6.E3A0      #001=Z8HI$BURST File=Z8HI.:Z8A6TSI                                 SAT 08/09/97 13:19 Page:460
        44 015467   000000 471500                    LDP1    0,,PR0
        44 015470   100003 633500                    EPPR3   3,,PR1
        44 015471   200260 453500                    STP3    @TAG+2,,AUTO
        44 015472   200260 630500                    EPPR0   @TAG+2,,AUTO
        44 015473   000006 631400 45                 EPPR1   6
        44 015474   000000 701000 xent               TSX1    Z8HU$WALK
        44 015475   000000 011000                    NOP     0

     2675    18922    5          END;

  18922 44 015476   015505 710000 44                 TRA     s:18928

     2676    18923    4        ELSE
     2677    18924    5          DO;

     2678    18925    5            CALL Z8HU$WALK(PILL -> ILL.TO_);

  18925 44 015477   300003 635500                    EPPR5   3,,PR3
        44 015500   200260 455500                    STP5    @TAG+2,,AUTO
        44 015501   200260 630500                    EPPR0   @TAG+2,,AUTO
        44 015502   000006 631400 45                 EPPR1   6
        44 015503   000000 701000 xent               TSX1    Z8HU$WALK
        44 015504   000000 011000                    NOP     0

     2679    18926    5          END;

     2680    18927             %WALK_LOP_ROP;

  18928 44 015505   200003 470500                    LDP0    @PILL,,AUTO
        44 015506   000000 471500                    LDP1    0,,PR0
        44 015507   100001 473500                    LDP3    1,,PR1
        44 015510   300000 220100                    LDX0    0,,PR3
        44 015511   000020 100003                    CMPX0   16,DU
        44 015512   015536 603000 44                 TRC     s:18936
        44 015513   100002 474500                    LDP4    2,,PR1
        44 015514   400000 221100                    LDX1    0,,PR4
        44 015515   000020 101003                    CMPX1   16,DU
PL6.E3A0      #001=Z8HI$BURST File=Z8HI.:Z8A6TSI                                 SAT 08/09/97 13:19 Page:461
        44 015516   015536 602000 44                 TNC     s:18936

  18931 44 015517   100002 635500                    EPPR5   2,,PR1
        44 015520   200260 455500                    STP5    @TAG+2,,AUTO
        44 015521   200260 630500                    EPPR0   @TAG+2,,AUTO
        44 015522   000006 631400 45                 EPPR1   6
        44 015523   000000 701000 xent               TSX1    Z8HU$WALK
        44 015524   000000 011000                    NOP     0

  18932 44 015525   200003 470500                    LDP0    @PILL,,AUTO
        44 015526   000000 471500                    LDP1    0,,PR0
        44 015527   100001 633500                    EPPR3   1,,PR1
        44 015530   200260 453500                    STP3    @TAG+2,,AUTO
        44 015531   200260 630500                    EPPR0   @TAG+2,,AUTO
        44 015532   000006 631400 45                 EPPR1   6
        44 015533   000000 701000 xent               TSX1    Z8HU$WALK
        44 015534   000000 011000                    NOP     0

  18933 44 015535   016024 710000 44                 TRA     s:19025

  18936 44 015536   100001 634500                    EPPR4   1,,PR1
        44 015537   200260 454500                    STP4    @TAG+2,,AUTO
        44 015540   200260 630500                    EPPR0   @TAG+2,,AUTO
        44 015541   000006 631400 45                 EPPR1   6
        44 015542   000000 701000 xent               TSX1    Z8HU$WALK
        44 015543   000000 011000                    NOP     0

  18937 44 015544   200003 470500                    LDP0    @PILL,,AUTO
        44 015545   000000 471500                    LDP1    0,,PR0
        44 015546   100002 633500                    EPPR3   2,,PR1
        44 015547   200260 453500                    STP3    @TAG+2,,AUTO
        44 015550   200260 630500                    EPPR0   @TAG+2,,AUTO
        44 015551   000006 631400 45                 EPPR1   6
        44 015552   000000 701000 xent               TSX1    Z8HU$WALK
        44 015553   000000 011000                    NOP     0

  18940 44 015554   200003 470500                    LDP0    @PILL,,AUTO
PL6.E3A0      #001=Z8HI$BURST File=Z8HI.:Z8A6TSI                                 SAT 08/09/97 13:19 Page:462
        44 015555   000000 471500                    LDP1    0,,PR0
        44 015556   100001 633500                    EPPR3   1,,PR1
        44 015557   200260 453500                    STP3    @TAG+2,,AUTO
        44 015560   200260 630500                    EPPR0   @TAG+2,,AUTO
        44 015561   000006 631400 45                 EPPR1   6
        44 015562   000000 701000 xent               TSX1    Z8HU$WALK
        44 015563   000000 011000                    NOP     0

  18941 44 015564   016024 710000 44                 TRA     s:19025

     2681    18943
     2682    18944
     2683    18945        %EJECT;
PL6.E3A0      #001=Z8HI$BURST File=Z8HI.:Z8A6TSI                                 SAT 08/09/97 13:19 Page:463
     2684    18946    4   CASE(%WRAPUP);

     2685    18947        /*V*
     2686    18948             WRAPUP -- See DEFER
     2687    18949        */
     2688    18950
     2689    18951    4        DEFER_BUFFER.B.BUFFER(DEFER_BUFFER_IDX - 1) = FALSE;

  18951 44 015565   200122 236100                    LDQ     DEFER_BUFFER_IDX,,AUTO
        44 015566   000005 402007                    MPY     5,DL
        44 015567   000000 621006                    EAX1    0,QL
        44 015570   000077 236000 45                 LDQ     63
        44 015571   200071 356111                    ANSQ    PCOM+48,X1,AUTO

     2690    18952
     2691    18953    5        DO CASE(DEFER_BUFFER.INST_WORD.OP_CODE(0));

  18953 44 015572   200101 236100                    LDQ     DEFER_BUFFER+3,,AUTO
        44 015573   000011 772000                    QRL     9
        44 015574   000777 376007                    ANQ     511,DL
        44 015575   000202 136007                    SBLQ    130,DL
        44 015576   000100 116007                    CMPQ    64,DL
        44 015577   015601 602006 44                 TNC     s:18953+7,QL
        44 015600   015707 710000 44                 TRA     s:18962
        44 015601   015701 710000 44                 TRA     s:18957
        44 015602   015701 710000 44                 TRA     s:18957
        44 015603   015707 710000 44                 TRA     s:18962
        44 015604   015707 710000 44                 TRA     s:18962
        44 015605   015701 710000 44                 TRA     s:18957
        44 015606   015701 710000 44                 TRA     s:18957
        44 015607   015707 710000 44                 TRA     s:18962
        44 015610   015707 710000 44                 TRA     s:18962
        44 015611   015707 710000 44                 TRA     s:18962
        44 015612   015707 710000 44                 TRA     s:18962
        44 015613   015707 710000 44                 TRA     s:18962
        44 015614   015707 710000 44                 TRA     s:18962
        44 015615   015707 710000 44                 TRA     s:18962
PL6.E3A0      #001=Z8HI$BURST File=Z8HI.:Z8A6TSI                                 SAT 08/09/97 13:19 Page:464
        44 015616   015707 710000 44                 TRA     s:18962
        44 015617   015707 710000 44                 TRA     s:18962
        44 015620   015707 710000 44                 TRA     s:18962
        44 015621   015701 710000 44                 TRA     s:18957
        44 015622   015701 710000 44                 TRA     s:18957
        44 015623   015707 710000 44                 TRA     s:18962
        44 015624   015707 710000 44                 TRA     s:18962
        44 015625   015701 710000 44                 TRA     s:18957
        44 015626   015701 710000 44                 TRA     s:18957
        44 015627   015707 710000 44                 TRA     s:18962
        44 015630   015707 710000 44                 TRA     s:18962
        44 015631   015707 710000 44                 TRA     s:18962
        44 015632   015707 710000 44                 TRA     s:18962
        44 015633   015707 710000 44                 TRA     s:18962
        44 015634   015707 710000 44                 TRA     s:18962
        44 015635   015707 710000 44                 TRA     s:18962
        44 015636   015707 710000 44                 TRA     s:18962
        44 015637   015707 710000 44                 TRA     s:18962
        44 015640   015707 710000 44                 TRA     s:18962
        44 015641   015707 710000 44                 TRA     s:18962
        44 015642   015707 710000 44                 TRA     s:18962
        44 015643   015707 710000 44                 TRA     s:18962
        44 015644   015707 710000 44                 TRA     s:18962
        44 015645   015707 710000 44                 TRA     s:18962
        44 015646   015707 710000 44                 TRA     s:18962
        44 015647   015707 710000 44                 TRA     s:18962
        44 015650   015707 710000 44                 TRA     s:18962
        44 015651   015707 710000 44                 TRA     s:18962
        44 015652   015707 710000 44                 TRA     s:18962
        44 015653   015707 710000 44                 TRA     s:18962
        44 015654   015707 710000 44                 TRA     s:18962
        44 015655   015707 710000 44                 TRA     s:18962
        44 015656   015707 710000 44                 TRA     s:18962
        44 015657   015707 710000 44                 TRA     s:18962
        44 015660   015707 710000 44                 TRA     s:18962
        44 015661   015707 710000 44                 TRA     s:18962
        44 015662   015707 710000 44                 TRA     s:18962
PL6.E3A0      #001=Z8HI$BURST File=Z8HI.:Z8A6TSI                                 SAT 08/09/97 13:19 Page:465
        44 015663   015707 710000 44                 TRA     s:18962
        44 015664   015707 710000 44                 TRA     s:18962
        44 015665   015707 710000 44                 TRA     s:18962
        44 015666   015707 710000 44                 TRA     s:18962
        44 015667   015707 710000 44                 TRA     s:18962
        44 015670   015707 710000 44                 TRA     s:18962
        44 015671   015707 710000 44                 TRA     s:18962
        44 015672   015707 710000 44                 TRA     s:18962
        44 015673   015707 710000 44                 TRA     s:18962
        44 015674   015707 710000 44                 TRA     s:18962
        44 015675   015707 710000 44                 TRA     s:18962
        44 015676   015707 710000 44                 TRA     s:18962
        44 015677   015701 710000 44                 TRA     s:18957
        44 015700   015701 710000 44                 TRA     s:18957

     2692    18954    5          CASE(%MVN_OP, %BTD_OP, %AD2D_OP, %AD3D_OP,

     2693    18955    5               %SB2D_OP, %SB3D_OP, %MP2D_OP, %MP3D_OP,
     2694    18956    5               %DV2D_OP, %DV3D_OP);
     2695    18957    5             DEFER_BUFFER.MW.P(0) =

  18957 44 015701   200073 471511                    LDP1    PCOM+50,X1,AUTO
        44 015702   100003 236100                    LDQ     3,,PR1
        44 015703   000015 736000                    QLS     13
        44 015704   200101 676100                    ERQ     DEFER_BUFFER+3,,AUTO
        44 015705   400000 376003                    ANQ     -131072,DU
        44 015706   200101 656100                    ERSQ    DEFER_BUFFER+3,,AUTO

     2696    18958    5                DEFER_BUFFER.ST$(DEFER_BUFFER_IDX - 1) -> SCALAR.B.P;
     2697    18959    5        END;

     2698    18960
     2699    18961
     2700    18962    5        DO I = 0 TO DEFER_BUFFER_IDX - 1;

  18962 44 015707   200223 450100                    STZ     I,,AUTO
        44 015710   016012 710000 44                 TRA     s:19015+1
PL6.E3A0      #001=Z8HI$BURST File=Z8HI.:Z8A6TSI                                 SAT 08/09/97 13:19 Page:466

     2701    18963               %NEW_WORD( @OU_WORD = "DEFER_BUFFER.INST_WORD(I)" ,
     2702    18964                          @ST$     = "DEFER_BUFFER.ST$(I)" ,
     2703    18965                          @KEY     = "DEFER_BUFFER.KEY(I)" );

  18984 44 015711   000002 236000 34                 LDQ     OBJ_+2
        44 015712   000004 036007                    ADLQ    4,DL
        44 015713   000003 116000 34                 CMPQ    OBJ_+3
        44 015714   015726 604000 44                 TMI     s:18990

  18986 44 015715   000000 234000 28                 SZN     PAGING_OBJ
        44 015716   015723 605000 44                 TPL     s:18988

  18987 44 015717   000020 630400 45                 EPPR0   16
        44 015720   000006 631400 45                 EPPR1   6
        44 015721   000000 701000 xent               TSX1    Z9HF$WRITE_OBJ_PAGE
        44 015722   000000 011000                    NOP     0

  18988 44 015723   000002 631400 45                 EPPR1   2
        44 015724   000000 701000 xent               TSX1    Z9HF$GET_OBJ_PAGE
        44 015725   000000 011000                    NOP     0

  18990 44 015726   000002 236000 34                 LDQ     OBJ_+2
        44 015727   000022 736000                    QLS     18
        44 015730   000001 036000 34                 ADLQ    OBJ_+1
        44 015731   000000 756000 27                 STQ     OBJ$

  18991 44 015732   000004 236007                    LDQ     4,DL
        44 015733   000002 056000 34                 ASQ     OBJ_+2

  18992 44 015734   001012 220003                    LDX0    522,DU
        44 015735   000000 470400 27                 LDP0    OBJ$
        44 015736   000000 740100                    STX0    0,,PR0

  18995 44 015737   200223 236100                    LDQ     I,,AUTO
        44 015740   000005 402007                    MPY     5,DL
        44 015741   200100 236106                    LDQ     DEFER_BUFFER+2,QL,AUTO
PL6.E3A0      #001=Z8HI$BURST File=Z8HI.:Z8A6TSI                                 SAT 08/09/97 13:19 Page:467
        44 015742   000000 470400 27                 LDP0    OBJ$
        44 015743   000002 756100                    STQ     2,,PR0

  18996 44 015744   000000 471400 4                  LDP1    CURRENT_BLOCK$
        44 015745   100002 236100                    LDQ     2,,PR1
        44 015746   000022 772000                    QRL     18
        44 015747   000001 756100                    STQ     1,,PR0

  18997 44 015750   200223 236100                    LDQ     I,,AUTO
        44 015751   000005 402007                    MPY     5,DL
        44 015752   200076 236106                    LDQ     DEFER_BUFFER,QL,AUTO
        44 015753   000000 552110                    STBQ    0,'10'O,PR0

  18999 44 015754   200223 236100                    LDQ     I,,AUTO
        44 015755   000005 402007                    MPY     5,DL
        44 015756   200101 236106                    LDQ     DEFER_BUFFER+3,QL,AUTO
        44 015757   000000 470400 27                 LDP0    OBJ$
        44 015760   000003 756100                    STQ     3,,PR0

  19006 44 015761   000000 471400 4                  LDP1    CURRENT_BLOCK$
        44 015762   100002 221100                    LDX1    2,,PR1
        44 015763   000001 622011                    EAX2    1,X1
        44 015764   100002 742100                    STX2    2,,PR1

  19007 44 015765   015772 601000 44                 TNZ     s:19013

  19008 44 015766   000022 630400 45                 EPPR0   18
        44 015767   000006 631400 45                 EPPR1   6
        44 015770   000000 701000 xent               TSX1    Z8AE$ERROR
        44 015771   000000 011000                    NOP     0

     2704    19012
     2705    19013    5          IF DEFER_BUFFER.DECCNT_NODE$(I) ~= ADDR(NIL) THEN

  19013 44 015772   200223 236100                    LDQ     I,,AUTO
        44 015773   000005 402007                    MPY     5,DL
        44 015774   200102 236106                    LDQ     DEFER_BUFFER+4,QL,AUTO
PL6.E3A0      #001=Z8HI$BURST File=Z8HI.:Z8A6TSI                                 SAT 08/09/97 13:19 Page:468
        44 015775   000007 116000 45                 CMPQ    7
        44 015776   016011 600000 44                 TZE     s:19015

     2706    19014    5            CALL Z8HU$DEC_COUNT(DEFER_BUFFER.DECCNT_NODE$(I),1);

  19014 44 015777   000017 236000 45                 LDQ     15
        44 016000   200261 756100                    STQ     @TAG+3,,AUTO
        44 016001   200223 236100                    LDQ     I,,AUTO
        44 016002   000005 402007                    MPY     5,DL
        44 016003   200102 630506                    EPPR0   DEFER_BUFFER+4,QL,AUTO
        44 016004   200260 450500                    STP0    @TAG+2,,AUTO
        44 016005   200260 630500                    EPPR0   @TAG+2,,AUTO
        44 016006   000015 631400 45                 EPPR1   13
        44 016007   000000 701000 xent               TSX1    Z8HU$DEC_COUNT
        44 016010   000000 011000                    NOP     0

     2707    19015    5        END;

  19015 44 016011   200223 054100                    AOS     I,,AUTO
        44 016012   200223 236100                    LDQ     I,,AUTO
        44 016013   200122 116100                    CMPQ    DEFER_BUFFER_IDX,,AUTO
        44 016014   015711 604000 44                 TMI     s:18984

     2708    19016
     2709    19017
     2710    19018    4        DEFER = FALSE;

  19018 44 016015   200123 450100                    STZ     DEFER,,AUTO

     2711    19019    4        DEFER_BUFFER_IDX = 0;

  19019 44 016016   200122 450100                    STZ     DEFER_BUFFER_IDX,,AUTO
        44 016017   016024 710000 44                 TRA     s:19025

     2712    19020        %EJECT;
PL6.E3A0      #001=Z8HI$BURST File=Z8HI.:Z8A6TSI                                 SAT 08/09/97 13:19 Page:469
     2713    19021    4              CASE(ELSE);

     2714    19022    4                CALL Z8AE$ERROR(%E$UNEXPECTED_CASE);

  19022 44 016020   000043 630400 45                 EPPR0   35
        44 016021   000006 631400 45                 EPPR1   6
        44 016022   000000 701000 xent               TSX1    Z8AE$ERROR
        44 016023   000000 011000                    NOP     0

     2715    19023
     2716    19024    4            END ACTIONS;

     2717    19025    3            IC = PINCRW(IC,2);

  19025 44 016024   200152 236100                    LDQ     IC,,AUTO
        44 016025   000002 036003                    ADLQ    2,DU
        44 016026   200152 756100                    STQ     IC,,AUTO

     2718    19026    3          END SUPPORT_ACTIONS;

     2719    19027    2        END LOOP;

  19027 44 016027   000022 710000 44                 TRA     LOOP

     2720    19028        %EJECT;
PL6.E3A0      #001=Z8HI$BURST File=Z8HI.:Z8A6TSI                                 SAT 08/09/97 13:19 Page:470
     2721    19029    1   HANDLE_REF_OPERAND:PROC;

  19029 44 016030   200242 741300       HANDLE_REF_* STX1  ! KANJI_FILL+2,,AUTO

     2722    19030        /*I*
     2723    19031             NAME: HANDLE_REF_OPERAND
     2724    19032             PURPOSE:
     2725    19033                  Set up an instruction to reference operand of the GENI
     2726    19034                  directive.
     2727    19035             CALL:
     2728    19036                  CALL HANDLE_REF_OPERAND
     2729    19037             DATA:
     2730    19038                  None.
     2731    19039             DESCRIPTION:
     2732    19040                  Called in GENI directive (maybe elsewhere) to handle
     2733    19041                  operands that are ETT items.  This procedure gets
     2734    19042                  the information from the REF item of the ETT item
     2735    19043                  and uses it to set up the instruction to reference the
     2736    19044                  item.
     2737    19045        */
     2738    19046
     2739    19047    2        DCL SIZ BOOLEAN;
     2740    19048    2        DCL SSOP BOOLEAN;
     2741    19049    2        DCL PR BOOLEAN;
     2742    19050    2        DCL STB_FLAG BOOLEAN;
             19050                 /* STBA or STBQ ... compiler will not generate STCA or STCQ */
     2743    19051
     2744    19052    2        IF REF$ -> REF.B.CONST THEN

  19052 44 016031   200231 470500                    LDP0    REF$,,AUTO
        44 016032   000000 236100                    LDQ     0,,PR0
        44 016033   000001 316007                    CANQ    1,DL
        44 016034   016040 600000 44                 TZE     s:19055

     2745    19053    2          CALL HANDLE_CONSTANT;

  19053 44 016035   020373 701000 44                 TSX1    HANDLE_CONSTANT
PL6.E3A0      #001=Z8HI$BURST File=Z8HI.:Z8A6TSI                                 SAT 08/09/97 13:19 Page:471
        44 016036   000000 011000                    NOP     0
        44 016037   016042 710000 44                 TRA     s:19059

     2746    19054    2        ELSE
     2747    19055    2          INST_WORD.SA = REF$ -> REF.SA;

  19055 44 016040   000001 220100                    LDX0    1,,PR0
        44 016041   200075 740100                    STX0    INST_WORD,,AUTO

     2748    19056
     2749    19057
     2750    19058
     2751    19059    3        DO CASE(DEFER_BUFFER_IDX);

  19059 44 016042   200122 235100                    LDA     DEFER_BUFFER_IDX,,AUTO
        44 016043   000004 115007                    CMPA    4,DL
        44 016044   016046 602005 44                 TNC     s:19059+4,AL
        44 016045   016074 710000 44                 TRA     s:19073
        44 016046   016052 710000 44                 TRA     s:19061
        44 016047   016056 710000 44                 TRA     s:19064
        44 016050   016062 710000 44                 TRA     s:19067
        44 016051   016067 710000 44                 TRA     s:19070

     2752    19060    3          CASE(0);

     2753    19061    3            MF = INST_WORD.LOW.MF;

  19061 44 016052   200075 236100                    LDQ     INST_WORD,,AUTO
        44 016053   000035 736000                    QLS     29
        44 016054   200174 756100                    STQ     MF,,AUTO
        44 016055   016100 710000 44                 TRA     s:19079

     2754    19062
     2755    19063    3          CASE(1);

     2756    19064    3            MF = DEFER_BUFFER.MW.MF1(0);

PL6.E3A0      #001=Z8HI$BURST File=Z8HI.:Z8A6TSI                                 SAT 08/09/97 13:19 Page:472
  19064 44 016056   200101 236100                    LDQ     DEFER_BUFFER+3,,AUTO
        44 016057   000035 736000                    QLS     29
        44 016060   200174 756100                    STQ     MF,,AUTO
        44 016061   016100 710000 44                 TRA     s:19079

     2757    19065
     2758    19066    3          CASE(2);

     2759    19067    3            MF = DEFER_BUFFER.MW.MF2(0);

  19067 44 016062   200101 236100                    LDQ     DEFER_BUFFER+3,,AUTO
        44 016063   000013 736000                    QLS     11
        44 016064   774000 376003                    ANQ     -2048,DU
        44 016065   200174 756100                    STQ     MF,,AUTO
        44 016066   016100 710000 44                 TRA     s:19079

     2760    19068
     2761    19069    3          CASE(3);

     2762    19070    3            MF = DEFER_BUFFER.MW.MF3(0);

  19070 44 016067   200101 236100                    LDQ     DEFER_BUFFER+3,,AUTO
        44 016070   000002 736000                    QLS     2
        44 016071   774000 376003                    ANQ     -2048,DU
        44 016072   200174 756100                    STQ     MF,,AUTO
        44 016073   016100 710000 44                 TRA     s:19079

     2763    19071
     2764    19072    3          CASE(ELSE);

     2765    19073    3            CALL Z8AE$ERROR(%E$UNEXPECTED_CASE);

  19073 44 016074   000043 630400 45                 EPPR0   35
        44 016075   000006 631400 45                 EPPR1   6
        44 016076   000000 701000 xent               TSX1    Z8AE$ERROR
        44 016077   000000 011000                    NOP     0

PL6.E3A0      #001=Z8HI$BURST File=Z8HI.:Z8A6TSI                                 SAT 08/09/97 13:19 Page:473
     2766    19074
     2767    19075    3        END /* Case */;

     2768    19076
     2769    19077
     2770    19078
     2771    19079    2        SIZ = (REF$ -> REF.SIZ_TAG$ ~= ADDR(NIL));

  19079 44 016100   400000 220003                    LDX0    -131072,DU
        44 016101   200231 470500                    LDP0    REF$,,AUTO
        44 016102   000003 236100                    LDQ     3,,PR0
        44 016103   000007 116000 45                 CMPQ    7
        44 016104   016106 601000 44                 TNZ     s:19079+6
        44 016105   000000 220003                    LDX0    0,DU
        44 016106   000000 636010                    EAQ     0,X0
        44 016107   200243 756100                    STQ     SIZ,,AUTO

     2772    19080    2        SSOP = (REF$ -> REF.SSOP_TAG$ ~= ADDR(NIL));

  19080 44 016110   400000 220003                    LDX0    -131072,DU
        44 016111   000002 236100                    LDQ     2,,PR0
        44 016112   000007 116000 45                 CMPQ    7
        44 016113   016115 601000 44                 TNZ     s:19080+5
        44 016114   000000 220003                    LDX0    0,DU
        44 016115   000000 636010                    EAQ     0,X0
        44 016116   200244 756100                    STQ     SSOP,,AUTO

     2773    19081    2        PR = (REF$ -> REF.PR_TAG$ ~= ADDR(NIL));

  19081 44 016117   400000 220003                    LDX0    -131072,DU
        44 016120   000004 236100                    LDQ     4,,PR0
        44 016121   000007 116000 45                 CMPQ    7
        44 016122   016124 601000 44                 TNZ     s:19081+5
        44 016123   000000 220003                    LDX0    0,DU
        44 016124   000000 636010                    EAQ     0,X0
        44 016125   200245 756100                    STQ     PR,,AUTO

PL6.E3A0      #001=Z8HI$BURST File=Z8HI.:Z8A6TSI                                 SAT 08/09/97 13:19 Page:474
     2774    19082
     2775    19083    2        IF SSOP THEN

  19083 44 016126   200244 234100                    SZN     SSOP,,AUTO
        44 016127   016162 605000 44                 TPL     s:19089

     2776    19084    3          DO;

     2777    19085    3           CALL Z8HU$TAG(REF$ -> REF.SSOP_TAG$, ST$$ -> VARIABLE.B.GREATER_256K = TRUE
             19085                     );

  19085 44 016130   400000 220003                    LDX0    -131072,DU
        44 016131   200233 471500                    LDP1    ST$$,,AUTO
        44 016132   100003 236100                    LDQ     3,,PR1
        44 016133   020000 316003                    CANQ    8192,DU
        44 016134   016136 601000 44                 TNZ     s:19085+6
        44 016135   000000 220003                    LDX0    0,DU
        44 016136   000000 636010                    EAQ     0,X0
        44 016137   200260 676100                    ERQ     @TAG+2,,AUTO
        44 016140   400000 376003                    ANQ     -131072,DU
        44 016141   200260 656100                    ERSQ    @TAG+2,,AUTO
        44 016142   200260 633500                    EPPR3   @TAG+2,,AUTO
        44 016143   200263 453500                    STP3    @TAG+5,,AUTO
        44 016144   200231 236100                    LDQ     REF$,,AUTO
        44 016145   000002 036003                    ADLQ    2,DU
        44 016146   200262 756100                    STQ     @TAG+4,,AUTO
        44 016147   200262 630500                    EPPR0   @TAG+4,,AUTO
        44 016150   000015 631400 45                 EPPR1   13
        44 016151   000000 701000 xent               TSX1    Z8HU$TAG
        44 016152   000000 011000                    NOP     0

     2778    19086    3            MF.TAG = REF$ -> REF.SSOP_TAG$ -> ETT.STATE;

  19086 44 016153   200231 470500                    LDP0    REF$,,AUTO
        44 016154   000002 471500                    LDP1    2,,PR0
        44 016155   100004 236100                    LDQ     4,,PR1
        44 016156   000013 736000                    QLS     11
PL6.E3A0      #001=Z8HI$BURST File=Z8HI.:Z8A6TSI                                 SAT 08/09/97 13:19 Page:475
        44 016157   200174 676100                    ERQ     MF,,AUTO
        44 016160   074000 376003                    ANQ     30720,DU
        44 016161   200174 656100                    ERSQ    MF,,AUTO

     2779    19087    3          END;

     2780    19088
     2781    19089    2        IF PR THEN

  19089 44 016162   200245 234100                    SZN     PR,,AUTO
        44 016163   016611 605000 44                 TPL     s:19260

     2782    19090    3          DO;

     2783    19091
     2784    19092
     2785    19093    3            CALL Z8HU$WALK(REF$ -> REF.PR_TAG$);

  19093 44 016164   200231 236100                    LDQ     REF$,,AUTO
        44 016165   000004 036003                    ADLQ    4,DU
        44 016166   200260 756100                    STQ     @TAG+2,,AUTO
        44 016167   200260 630500                    EPPR0   @TAG+2,,AUTO
        44 016170   000006 631400 45                 EPPR1   6
        44 016171   000000 701000 xent               TSX1    Z8HU$WALK
        44 016172   000000 011000                    NOP     0

     2786    19094
     2787    19095    3            INST_WORD.Y.AR# = REF$ -> REF.PR_TAG$ -> ETT.STATE - 20;

  19095 44 016173   200231 470500                    LDP0    REF$,,AUTO
        44 016174   000004 471500                    LDP1    4,,PR0
        44 016175   100004 236100                    LDQ     4,,PR1
        44 016176   000022 772000                    QRL     18
        44 016177   000024 136007                    SBLQ    20,DL
        44 016200   000041 736000                    QLS     33
        44 016201   200075 676100                    ERQ     INST_WORD,,AUTO
        44 016202   700000 376003                    ANQ     -32768,DU
PL6.E3A0      #001=Z8HI$BURST File=Z8HI.:Z8A6TSI                                 SAT 08/09/97 13:19 Page:476
        44 016203   200075 656100                    ERSQ    INST_WORD,,AUTO

     2788    19096    3            MF.AR = TRUE;

  19096 44 016204   400000 236003                    LDQ     -131072,DU
        44 016205   200174 256100                    ORSQ    MF,,AUTO

     2789    19097
     2790    19098    3            IF REF$ -> REF.SA >= %#16K AND REF$ -> REF.SA < %#128K THEN

  19098 44 016206   000001 220100                    LDX0    1,,PR0
        44 016207   040000 100003                    CMPX0   16384,DU
        44 016210   016611 602000 44                 TNC     s:19260
        44 016211   400000 100003                    CMPX0   -131072,DU
        44 016212   016611 603000 44                 TRC     s:19260

     2791    19099    4              DO;

     2792    19100    4                IF INST_WORD.LOW.OP_CODE = %STBA_OP

  19100 44 016213   200075 236100                    LDQ     INST_WORD,,AUTO
        44 016214   777000 376007                    ANQ     -512,DL
        44 016215   551000 116007                    CMPQ    -77312,DL
        44 016216   016222 601000 44                 TNZ     s:19102

     2793    19101    4                  THEN STB_FLAG = TRUE; /* Cannot use tag field */

  19101 44 016217   400000 236003                    LDQ     -131072,DU
        44 016220   200246 756100                    STQ     STB_FLAG,,AUTO
        44 016221   016223 710000 44                 TRA     s:19103

     2794    19102    4                  ELSE STB_FLAG = FALSE;

  19102 44 016222   200246 450100                    STZ     STB_FLAG,,AUTO

     2795    19103    4                SAVED_INST_WORD = INST_WORD;

PL6.E3A0      #001=Z8HI$BURST File=Z8HI.:Z8A6TSI                                 SAT 08/09/97 13:19 Page:477
  19103 44 016223   200075 236100                    LDQ     INST_WORD,,AUTO
        44 016224   200206 756100                    STQ     SAVED_INST_WORD,,AUTO

     2796    19104    4                INST_WORD = '0'B;

  19104 44 016225   200075 450100                    STZ     INST_WORD,,AUTO

     2797    19105    4                P = REF$ -> REF.SA;

  19105 44 016226   000001 236100                    LDQ     1,,PR0
        44 016227   000022 772000                    QRL     18
        44 016230   200162 756100                    STQ     P,,AUTO

     2798    19106    4                IF SSOP OR STB_FLAG THEN

  19106 44 016231   200244 234100                    SZN     SSOP,,AUTO
        44 016232   016235 604000 44                 TMI     s:19108
        44 016233   200246 234100                    SZN     STB_FLAG,,AUTO
        44 016234   016263 605000 44                 TPL     s:19118

     2799    19107    5                  DO;

     2800    19108    5                    CALL Z8HG$CHOOSE_REGISTER( %PR0, %PR7, Q);

  19108 44 016235   200163 633500                    EPPR3   Q,,AUTO
        44 016236   200262 453500                    STP3    @TAG+4,,AUTO
        44 016237   000012 237000 45                 LDAQ    10
        44 016240   200260 757100                    STAQ    @TAG+2,,AUTO
        44 016241   200260 630500                    EPPR0   @TAG+2,,AUTO
        44 016242   000000 631400 45                 EPPR1   0
        44 016243   000000 701000 xent               TSX1    Z8HG$CHOOSE_REGISTER
        44 016244   000000 011000                    NOP     0

     2801    19109    5                    Q = Q - %PR0;

  19109 44 016245   000024 336007                    LCQ     20,DL
        44 016246   200163 056100                    ASQ     Q,,AUTO
PL6.E3A0      #001=Z8HI$BURST File=Z8HI.:Z8A6TSI                                 SAT 08/09/97 13:19 Page:478

     2802    19110                         /* Tag field is already set and the register must not
     2803    19111                            be changed in case it is also needed later. Therefore
     2804    19112                            allocate a scratch PR to combine this operand's PR
     2805    19113                            with the 16K or more offset. */
     2806    19114    5                    CALL Z8HG$CHOOSE_REGISTER( %XR0, %XR7, REGISTER);

  19114 44 016247   200156 630500                    EPPR0   REGISTER,,AUTO
        44 016250   200262 450500                    STP0    @TAG+4,,AUTO
        44 016251   000026 237000 45                 LDAQ    22
        44 016252   200260 757100                    STAQ    @TAG+2,,AUTO
        44 016253   200260 630500                    EPPR0   @TAG+2,,AUTO
        44 016254   000000 631400 45                 EPPR1   0
        44 016255   000000 701000 xent               TSX1    Z8HG$CHOOSE_REGISTER
        44 016256   000000 011000                    NOP     0

     2807    19115    5                    R = REGISTER - %XR0;

  19115 44 016257   200156 235100                    LDA     REGISTER,,AUTO
        44 016260   000010 135007                    SBLA    8,DL
        44 016261   200164 755100                    STA     R,,AUTO

     2808    19116    5                  END;

  19116 44 016262   016375 710000 44                 TRA     s:19139

     2809    19117    4                ELSE /* Not SSOP or STBA or STBQ */
     2810    19118    5                  DO CASE (ST$$ -> ARRAY.TYPE);

  19118 44 016263   200233 473500                    LDP3    ST$$,,AUTO
        44 016264   300002 221100                    LDX1    2,,PR3
        44 016265   000020 101003                    CMPX1   16,DU
        44 016266   016270 602011 44                 TNC     s:19118+5,X1
        44 016267   016362 710000 44                 TRA     s:19136
        44 016270   016310 710000 44                 TRA     s:19120
        44 016271   016362 710000 44                 TRA     s:19136
        44 016272   016310 710000 44                 TRA     s:19120
PL6.E3A0      #001=Z8HI$BURST File=Z8HI.:Z8A6TSI                                 SAT 08/09/97 13:19 Page:479
        44 016273   016310 710000 44                 TRA     s:19120
        44 016274   016362 710000 44                 TRA     s:19136
        44 016275   016362 710000 44                 TRA     s:19136
        44 016276   016310 710000 44                 TRA     s:19120
        44 016277   016310 710000 44                 TRA     s:19120
        44 016300   016310 710000 44                 TRA     s:19120
        44 016301   016362 710000 44                 TRA     s:19136
        44 016302   016362 710000 44                 TRA     s:19136
        44 016303   016362 710000 44                 TRA     s:19136
        44 016304   016362 710000 44                 TRA     s:19136
        44 016305   016362 710000 44                 TRA     s:19136
        44 016306   016310 710000 44                 TRA     s:19120
        44 016307   016310 710000 44                 TRA     s:19120

     2811    19119    5                    CASE (%TYD, %TYJ, %TYO, %TYE, %TYH, %TYA, %TYN, %TYK);

     2812    19120    5                      IF NOT REF$ -> REF.B.WORD_ THEN

  19120 44 016310   000000 236100                    LDQ     0,,PR0
        44 016311   000002 316007                    CANQ    2,DL
        44 016312   016325 601000 44                 TNZ     s:19124

     2813    19121    5                        IF ST$$ -> ARRAY.NDSC.TN /* Packed decimal */

  19121 44 016313   300001 236100                    LDQ     1,,PR3
        44 016314   040000 316007                    CANQ    16384,DL
        44 016315   016322 600000 44                 TZE     s:19123

     2814    19122    5                          THEN P = P * 8; /* Need offset in digits */

  19122 44 016316   200162 235100                    LDA     P,,AUTO
        44 016317   000003 735000                    ALS     3
        44 016320   200162 755100                    STA     P,,AUTO
        44 016321   016325 710000 44                 TRA     s:19124

     2815    19123    5                          ELSE P = P * 4; /* Need offset in bytes */

PL6.E3A0      #001=Z8HI$BURST File=Z8HI.:Z8A6TSI                                 SAT 08/09/97 13:19 Page:480
  19123 44 016322   200162 235100                    LDA     P,,AUTO
        44 016323   000002 735000                    ALS     2
        44 016324   200162 755100                    STA     P,,AUTO

     2816    19124    5                      IF P >= %#128K THEN

  19124 44 016325   200162 235100                    LDA     P,,AUTO
        44 016326   400000 115007                    CMPA    -131072,DL
        44 016327   016346 604000 44                 TMI     s:19132

     2817    19125    6                        DO;

     2818    19126    6                          CALL Z8HG$CHOOSE_REGISTER( %ARA, %ARQ, REGISTER);

  19126 44 016330   200156 634500                    EPPR4   REGISTER,,AUTO
        44 016331   200262 454500                    STP4    @TAG+4,,AUTO
        44 016332   000054 237000 45                 LDAQ    44
        44 016333   200260 757100                    STAQ    @TAG+2,,AUTO
        44 016334   200260 630500                    EPPR0   @TAG+2,,AUTO
        44 016335   000000 631400 45                 EPPR1   0
        44 016336   000000 701000 xent               TSX1    Z8HG$CHOOSE_REGISTER
        44 016337   000000 011000                    NOP     0

     2819    19127    6                          R = REGISTER - %ARA;

  19127 44 016340   200156 235100                    LDA     REGISTER,,AUTO
        44 016341   000005 135007                    SBLA    5,DL
        44 016342   200164 755100                    STA     R,,AUTO

     2820    19128    6                          REGISTER = REGISTER - 4; /* Need ,AU or ,QU mod */

  19128 44 016343   000004 336007                    LCQ     4,DL
        44 016344   200156 056100                    ASQ     REGISTER,,AUTO

     2821    19129    6                        END;

  19129 44 016345   016375 710000 44                 TRA     s:19139
PL6.E3A0      #001=Z8HI$BURST File=Z8HI.:Z8A6TSI                                 SAT 08/09/97 13:19 Page:481

     2822    19130    5                      ELSE
     2823    19131    6                        DO;

     2824    19132    6                          CALL Z8HG$CHOOSE_REGISTER( %XR0, %XR7, REGISTER);

  19132 44 016346   200156 634500                    EPPR4   REGISTER,,AUTO
        44 016347   200262 454500                    STP4    @TAG+4,,AUTO
        44 016350   000026 237000 45                 LDAQ    22
        44 016351   200260 757100                    STAQ    @TAG+2,,AUTO
        44 016352   200260 630500                    EPPR0   @TAG+2,,AUTO
        44 016353   000000 631400 45                 EPPR1   0
        44 016354   000000 701000 xent               TSX1    Z8HG$CHOOSE_REGISTER
        44 016355   000000 011000                    NOP     0

     2825    19133    6                          R = REGISTER - %XR0;

  19133 44 016356   200156 235100                    LDA     REGISTER,,AUTO
        44 016357   000010 135007                    SBLA    8,DL
        44 016360   200164 755100                    STA     R,,AUTO

     2826    19134    6                        END;

  19134 44 016361   016375 710000 44                 TRA     s:19139

     2827    19135    5                    CASE (ELSE); /* TYI, etc. -- XRn will always do */

     2828    19136    5                      CALL Z8HG$CHOOSE_REGISTER( %XR0, %XR7, REGISTER);

  19136 44 016362   200156 634500                    EPPR4   REGISTER,,AUTO
        44 016363   200262 454500                    STP4    @TAG+4,,AUTO
        44 016364   000026 237000 45                 LDAQ    22
        44 016365   200260 757100                    STAQ    @TAG+2,,AUTO
        44 016366   200260 630500                    EPPR0   @TAG+2,,AUTO
        44 016367   000000 631400 45                 EPPR1   0
        44 016370   000000 701000 xent               TSX1    Z8HG$CHOOSE_REGISTER
        44 016371   000000 011000                    NOP     0
PL6.E3A0      #001=Z8HI$BURST File=Z8HI.:Z8A6TSI                                 SAT 08/09/97 13:19 Page:482

     2829    19137    5                      R = REGISTER - %XR0;

  19137 44 016372   200156 235100                    LDA     REGISTER,,AUTO
        44 016373   000010 135007                    SBLA    8,DL
        44 016374   200164 755100                    STA     R,,AUTO

     2830    19138    5                  END; /* CASE, for not SSOP or STBA or STBQ */

     2831    19139    4                INST_WORD.SA = P;

  19139 44 016375   200162 720100                    LXL0    P,,AUTO
        44 016376   200075 740100                    STX0    INST_WORD,,AUTO

     2832    19140    4                IF REGISTER >= %XR0

  19140 44 016377   200156 236100                    LDQ     REGISTER,,AUTO
        44 016400   000010 116007                    CMPQ    8,DL
        44 016401   016407 604000 44                 TMI     s:19142

     2833    19141    4                  THEN INST_WORD.LOW.OP_CODE = %EAX0_OP + R;

  19141 44 016402   200164 236100                    LDQ     R,,AUTO
        44 016403   000620 036007                    ADLQ    400,DL
        44 016404   000011 736000                    QLS     9
        44 016405   200075 552110                    STBQ    INST_WORD,'10'O,AUTO
        44 016406   016413 710000 44                 TRA     s:19162

     2834    19142    4                  ELSE INST_WORD.LOW.OP_CODE = %EAA_OP + R;

  19142 44 016407   200164 236100                    LDQ     R,,AUTO
        44 016410   000635 036007                    ADLQ    413,DL
        44 016411   000011 736000                    QLS     9
        44 016412   200075 552110                    STBQ    INST_WORD,'10'O,AUTO

     2835    19143                     %NEW_WORD (@OU_WORD = INST_WORD);

PL6.E3A0      #001=Z8HI$BURST File=Z8HI.:Z8A6TSI                                 SAT 08/09/97 13:19 Page:483
  19162 44 016413   000002 236000 34                 LDQ     OBJ_+2
        44 016414   000004 036007                    ADLQ    4,DL
        44 016415   000003 116000 34                 CMPQ    OBJ_+3
        44 016416   016430 604000 44                 TMI     s:19168

  19164 44 016417   000000 234000 28                 SZN     PAGING_OBJ
        44 016420   016425 605000 44                 TPL     s:19166

  19165 44 016421   000020 630400 45                 EPPR0   16
        44 016422   000006 631400 45                 EPPR1   6
        44 016423   000000 701000 xent               TSX1    Z9HF$WRITE_OBJ_PAGE
        44 016424   000000 011000                    NOP     0

  19166 44 016425   000002 631400 45                 EPPR1   2
        44 016426   000000 701000 xent               TSX1    Z9HF$GET_OBJ_PAGE
        44 016427   000000 011000                    NOP     0

  19168 44 016430   000002 236000 34                 LDQ     OBJ_+2
        44 016431   000022 736000                    QLS     18
        44 016432   000001 036000 34                 ADLQ    OBJ_+1
        44 016433   000000 756000 27                 STQ     OBJ$

  19169 44 016434   000004 236007                    LDQ     4,DL
        44 016435   000002 056000 34                 ASQ     OBJ_+2

  19170 44 016436   001012 220003                    LDX0    522,DU
        44 016437   000000 470400 27                 LDP0    OBJ$
        44 016440   000000 740100                    STX0    0,,PR0

  19173 44 016441   000007 236000 45                 LDQ     7
        44 016442   000000 470400 27                 LDP0    OBJ$
        44 016443   000002 756100                    STQ     2,,PR0

  19174 44 016444   000000 471400 4                  LDP1    CURRENT_BLOCK$
        44 016445   100002 236100                    LDQ     2,,PR1
        44 016446   000022 772000                    QRL     18
        44 016447   000001 756100                    STQ     1,,PR0
PL6.E3A0      #001=Z8HI$BURST File=Z8HI.:Z8A6TSI                                 SAT 08/09/97 13:19 Page:484

  19175 44 016450   000000 236003                    LDQ     0,DU
        44 016451   000000 552110                    STBQ    0,'10'O,PR0

  19177 44 016452   200075 236100                    LDQ     INST_WORD,,AUTO
        44 016453   000000 470400 27                 LDP0    OBJ$
        44 016454   000003 756100                    STQ     3,,PR0

  19184 44 016455   000000 471400 4                  LDP1    CURRENT_BLOCK$
        44 016456   100002 221100                    LDX1    2,,PR1
        44 016457   000001 622011                    EAX2    1,X1
        44 016460   100002 742100                    STX2    2,,PR1

  19185 44 016461   016466 601000 44                 TNZ     s:19190

  19186 44 016462   000022 630400 45                 EPPR0   18
        44 016463   000006 631400 45                 EPPR1   6
        44 016464   000000 701000 xent               TSX1    Z8AE$ERROR
        44 016465   000000 011000                    NOP     0

     2836    19190    4                IF SSOP OR STB_FLAG THEN

  19190 44 016466   200244 234100                    SZN     SSOP,,AUTO
        44 016467   016472 604000 44                 TMI     s:19192
        44 016470   200246 234100                    SZN     STB_FLAG,,AUTO
        44 016471   016570 605000 44                 TPL     s:19248

     2837    19191    5                  DO;

     2838    19192    5                    INST_WORD.SA = 0;

  19192 44 016472   000000 220003                    LDX0    0,DU
        44 016473   200075 740100                    STX0    INST_WORD,,AUTO

     2839    19193    5                    INST_WORD.Y.AR# = SAVED_INST_WORD.Y.AR#;

  19193 44 016474   200206 236100                    LDQ     SAVED_INST_WORD,,AUTO
PL6.E3A0      #001=Z8HI$BURST File=Z8HI.:Z8A6TSI                                 SAT 08/09/97 13:19 Page:485
        44 016475   200075 676100                    ERQ     INST_WORD,,AUTO
        44 016476   700000 376003                    ANQ     -32768,DU
        44 016477   200075 656100                    ERSQ    INST_WORD,,AUTO

     2840    19194    5                    INST_WORD.LOW.OP_CODE = %EPPR0_OP + Q;

  19194 44 016500   200163 236100                    LDQ     Q,,AUTO
        44 016501   000630 036007                    ADLQ    408,DL
        44 016502   000011 736000                    QLS     9
        44 016503   200075 552110                    STBQ    INST_WORD,'10'O,AUTO

     2841    19195    5                    INST_WORD.LOW.EIS = TRUE;

  19195 44 016504   000400 236007                    LDQ     256,DL
        44 016505   200075 256100                    ORSQ    INST_WORD,,AUTO

     2842    19196    5                    INST_WORD.LOW.MF.AR = TRUE;

  19196 44 016506   000100 236007                    LDQ     64,DL
        44 016507   200075 256100                    ORSQ    INST_WORD,,AUTO

     2843    19197    5                    INST_WORD.LOW.MF.TAG = REGISTER;

  19197 44 016510   200156 236100                    LDQ     REGISTER,,AUTO
        44 016511   200075 676100                    ERQ     INST_WORD,,AUTO
        44 016512   000017 376007                    ANQ     15,DL
        44 016513   200075 656100                    ERSQ    INST_WORD,,AUTO

     2844    19198                         %NEW_WORD (@OU_WORD = INST_WORD);

  19217 44 016514   000002 236000 34                 LDQ     OBJ_+2
        44 016515   000004 036007                    ADLQ    4,DL
        44 016516   000003 116000 34                 CMPQ    OBJ_+3
        44 016517   016531 604000 44                 TMI     s:19223

  19219 44 016520   000000 234000 28                 SZN     PAGING_OBJ
        44 016521   016526 605000 44                 TPL     s:19221
PL6.E3A0      #001=Z8HI$BURST File=Z8HI.:Z8A6TSI                                 SAT 08/09/97 13:19 Page:486

  19220 44 016522   000020 630400 45                 EPPR0   16
        44 016523   000006 631400 45                 EPPR1   6
        44 016524   000000 701000 xent               TSX1    Z9HF$WRITE_OBJ_PAGE
        44 016525   000000 011000                    NOP     0

  19221 44 016526   000002 631400 45                 EPPR1   2
        44 016527   000000 701000 xent               TSX1    Z9HF$GET_OBJ_PAGE
        44 016530   000000 011000                    NOP     0

  19223 44 016531   000002 236000 34                 LDQ     OBJ_+2
        44 016532   000022 736000                    QLS     18
        44 016533   000001 036000 34                 ADLQ    OBJ_+1
        44 016534   000000 756000 27                 STQ     OBJ$

  19224 44 016535   000004 236007                    LDQ     4,DL
        44 016536   000002 056000 34                 ASQ     OBJ_+2

  19225 44 016537   001012 220003                    LDX0    522,DU
        44 016540   000000 470400 27                 LDP0    OBJ$
        44 016541   000000 740100                    STX0    0,,PR0

  19228 44 016542   000007 236000 45                 LDQ     7
        44 016543   000000 470400 27                 LDP0    OBJ$
        44 016544   000002 756100                    STQ     2,,PR0

  19229 44 016545   000000 471400 4                  LDP1    CURRENT_BLOCK$
        44 016546   100002 236100                    LDQ     2,,PR1
        44 016547   000022 772000                    QRL     18
        44 016550   000001 756100                    STQ     1,,PR0

  19230 44 016551   000000 236003                    LDQ     0,DU
        44 016552   000000 552110                    STBQ    0,'10'O,PR0

  19232 44 016553   200075 236100                    LDQ     INST_WORD,,AUTO
        44 016554   000000 470400 27                 LDP0    OBJ$
        44 016555   000003 756100                    STQ     3,,PR0
PL6.E3A0      #001=Z8HI$BURST File=Z8HI.:Z8A6TSI                                 SAT 08/09/97 13:19 Page:487

  19239 44 016556   000000 471400 4                  LDP1    CURRENT_BLOCK$
        44 016557   100002 221100                    LDX1    2,,PR1
        44 016560   000001 622011                    EAX2    1,X1
        44 016561   100002 742100                    STX2    2,,PR1

  19240 44 016562   016600 601000 44                 TNZ     s:19251

  19241 44 016563   000022 630400 45                 EPPR0   18
        44 016564   000006 631400 45                 EPPR1   6
        44 016565   000000 701000 xent               TSX1    Z8AE$ERROR
        44 016566   000000 011000                    NOP     0

     2845    19245    5                  END; /* SSOP or STBA or STBQ */

  19245 44 016567   016600 710000 44                 TRA     s:19251

     2846    19246    4                ELSE /* Not SSOP or STBA or STBQ */
     2847    19247    5                  DO;

     2848    19248    5                    Q = SAVED_INST_WORD.Y.AR#; /* So only bits 3-17 set to 0 */

  19248 44 016570   200206 236100                    LDQ     SAVED_INST_WORD,,AUTO
        44 016571   000041 772000                    QRL     33
        44 016572   200163 756100                    STQ     Q,,AUTO

     2849    19249    5                    MF.TAG = REGISTER; /* For the 16K or more offset */

  19249 44 016573   200156 236100                    LDQ     REGISTER,,AUTO
        44 016574   000035 736000                    QLS     29
        44 016575   200174 676100                    ERQ     MF,,AUTO
        44 016576   074000 376003                    ANQ     30720,DU
        44 016577   200174 656100                    ERSQ    MF,,AUTO

     2850    19250    5                  END;

     2851    19251    4                INST_WORD = SAVED_INST_WORD;
PL6.E3A0      #001=Z8HI$BURST File=Z8HI.:Z8A6TSI                                 SAT 08/09/97 13:19 Page:488

  19251 44 016600   200206 236100                    LDQ     SAVED_INST_WORD,,AUTO
        44 016601   200075 756100                    STQ     INST_WORD,,AUTO

     2852    19252    4                INST_WORD.SA = 0;

  19252 44 016602   000000 220003                    LDX0    0,DU
        44 016603   200075 740100                    STX0    INST_WORD,,AUTO

     2853    19253    4                INST_WORD.Y.AR# = Q;

  19253 44 016604   200163 236100                    LDQ     Q,,AUTO
        44 016605   000041 736000                    QLS     33
        44 016606   200075 676100                    ERQ     INST_WORD,,AUTO
        44 016607   700000 376003                    ANQ     -32768,DU
        44 016610   200075 656100                    ERSQ    INST_WORD,,AUTO

     2854    19254    4              END;

     2855    19255
     2856    19256    3          END;

     2857    19257
     2858    19258
     2859    19259
     2860    19260    2        IF CURRENT_BLOCK$ ~= COMCOM.BLOCK$ THEN

  19260 44 016611   000000 236000 4                  LDQ     CURRENT_BLOCK$
        44 016612   000145 116000 xsym               CMPQ    COMCOM+101
        44 016613   017712 600000 44                 TZE     s:19448

     2861    19261    3          DO CASE(DEFER_BUFFER_IDX);

  19261 44 016614   200122 235100                    LDA     DEFER_BUFFER_IDX,,AUTO
        44 016615   000004 115007                    CMPA    4,DL
        44 016616   016620 602005 44                 TNC     s:19261+4,AL
        44 016617   017706 710000 44                 TRA     s:19444
PL6.E3A0      #001=Z8HI$BURST File=Z8HI.:Z8A6TSI                                 SAT 08/09/97 13:19 Page:489
        44 016620   016624 710000 44                 TRA     s:19263
        44 016621   016632 710000 44                 TRA     s:19266
        44 016622   017132 710000 44                 TRA     s:19330
        44 016623   017420 710000 44                 TRA     s:19387

     2862    19262    3            CASE(0);

     2863    19263    3              INST_WORD.LOW.MF = MF;

  19263 44 016624   200174 236100                    LDQ     MF,,AUTO
        44 016625   000035 772000                    QRL     29
        44 016626   200075 676100                    ERQ     INST_WORD,,AUTO
        44 016627   000177 376007                    ANQ     127,DL
        44 016630   200075 656100                    ERSQ    INST_WORD,,AUTO
        44 016631   017712 710000 44                 TRA     s:19448

     2864    19264
     2865    19265    3            CASE(1);

     2866    19266    3              INST_WORD.ADSC = REF$ -> REF.ADSC;

  19266 44 016632   200231 470500                    LDP0    REF$,,AUTO
        44 016633   000001 720100                    LXL0    1,,PR0
        44 016634   200075 440100                    SXL0    INST_WORD,,AUTO

     2867    19267    3              MF.RL = SIZ;

  19267 44 016635   200243 236100                    LDQ     SIZ,,AUTO
        44 016636   000001 772000                    QRL     1
        44 016637   200174 676100                    ERQ     MF,,AUTO
        44 016640   200000 376003                    ANQ     65536,DU
        44 016641   200174 656100                    ERSQ    MF,,AUTO

     2868    19268    3             IF DEFER_BUFFER.INST_WORD.OP_CODE(0) = %MTR_OP OR DEFER_BUFFER.INST_WORD.
             19268                       OP_CODE(0) = %MTM_OP  THEN

  19268 44 016642   200101 236100                    LDQ     DEFER_BUFFER+3,,AUTO
PL6.E3A0      #001=Z8HI$BURST File=Z8HI.:Z8A6TSI                                 SAT 08/09/97 13:19 Page:490
        44 016643   777000 376007                    ANQ     -512,DL
        44 016644   361000 116007                    CMPQ    123392,DL
        44 016645   016650 600000 44                 TZE     s:19270
        44 016646   365000 116007                    CMPQ    125440,DL
        44 016647   016654 601000 44                 TNZ     s:19274

     2869    19269    4                DO;

     2870    19270    4                  INST_WORD.SDSC.E = %TRUE;

  19270 44 016650   040000 236007                    LDQ     16384,DL
        44 016651   200075 256100                    ORSQ    INST_WORD,,AUTO

     2871    19271    4                  INST_WORD.SDSC.TS = %TRUE;

  19271 44 016652   020000 236007                    LDQ     8192,DL
        44 016653   200075 256100                    ORSQ    INST_WORD,,AUTO

     2872    19272    4                END;

     2873    19273
     2874    19274    3              DEFER_BUFFER.MW.MF1(0) = MF;

  19274 44 016654   200174 236100                    LDQ     MF,,AUTO
        44 016655   000035 772000                    QRL     29
        44 016656   200101 676100                    ERQ     DEFER_BUFFER+3,,AUTO
        44 016657   000177 376007                    ANQ     127,DL
        44 016660   200101 656100                    ERSQ    DEFER_BUFFER+3,,AUTO

     2875    19275
     2876    19276                   %CONVERT_DESC_FOR_DPS88;

  19278 44 016661   200101 236100                    LDQ     DEFER_BUFFER+3,,AUTO
        44 016662   777000 376007                    ANQ     -512,DL
        44 016663   160000 116007                    CMPQ    57344,DL
        44 016664   016753 601000 44                 TNZ     s:19302

PL6.E3A0      #001=Z8HI$BURST File=Z8HI.:Z8A6TSI                                 SAT 08/09/97 13:19 Page:491
  19280 44 016665   200211 631500                    EPPR1   TYPE_DESC,,AUTO
        44 016666   200261 451500                    STP1    @TAG+3,,AUTO
        44 016667   200230 633500                    EPPR3   NODE$,,AUTO
        44 016670   200260 453500                    STP3    @TAG+2,,AUTO
        44 016671   200260 630500                    EPPR0   @TAG+2,,AUTO
        44 016672   000015 631400 45                 EPPR1   13
        44 016673   000000 701000 xent               TSX1    Z8AU$TYPE_DESCRIPTOR
        44 016674   000000 011000                    NOP     0

  19289 44 016675   200233 470500                    LDP0    ST$$,,AUTO
        44 016676   000002 220100                    LDX0    2,,PR0
        44 016677   000024 100003                    CMPX0   20,DU
        44 016700   016702 602010 44                 TNC     s:19289+5,X0
        44 016701   017712 710000 44                 TRA     s:19448
        44 016702   016726 710000 44                 TRA     s:19291
        44 016703   016752 710000 44                 TRA     s:19301
        44 016704   016752 710000 44                 TRA     s:19301
        44 016705   016726 710000 44                 TRA     s:19291
        44 016706   016752 710000 44                 TRA     s:19301
        44 016707   016752 710000 44                 TRA     s:19301
        44 016710   016752 710000 44                 TRA     s:19301
        44 016711   016752 710000 44                 TRA     s:19301
        44 016712   016752 710000 44                 TRA     s:19301
        44 016713   016752 710000 44                 TRA     s:19301
        44 016714   016752 710000 44                 TRA     s:19301
        44 016715   016726 710000 44                 TRA     s:19291
        44 016716   016746 710000 44                 TRA     s:19299
        44 016717   016752 710000 44                 TRA     s:19301
        44 016720   016752 710000 44                 TRA     s:19301
        44 016721   016752 710000 44                 TRA     s:19301
        44 016722   016752 710000 44                 TRA     s:19301
        44 016723   016752 710000 44                 TRA     s:19301
        44 016724   016752 710000 44                 TRA     s:19301
        44 016725   016735 710000 44                 TRA     s:19295

  19291 44 016726   000000 236003                    LDQ     0,DU
        44 016727   200075 752102                    STCQ    INST_WORD,'02'O,AUTO
PL6.E3A0      #001=Z8HI$BURST File=Z8HI.:Z8A6TSI                                 SAT 08/09/97 13:19 Page:492

  19292 44 016730   000034 236000 45                 LDQ     28
        44 016731   200075 356100                    ANSQ    INST_WORD,,AUTO

  19293 44 016732   000036 236000 45                 LDQ     30
        44 016733   200075 356100                    ANSQ    INST_WORD,,AUTO
        44 016734   017712 710000 44                 TRA     s:19448

  19295 44 016735   000000 236003                    LDQ     0,DU
        44 016736   200075 752102                    STCQ    INST_WORD,'02'O,AUTO

  19296 44 016737   000034 236000 45                 LDQ     28
        44 016740   200075 356100                    ANSQ    INST_WORD,,AUTO

  19297 44 016741   200075 236100                    LDQ     INST_WORD,,AUTO
        44 016742   000036 376000 45                 ANQ     30
        44 016743   020000 276007                    ORQ     8192,DL
        44 016744   200075 756100                    STQ     INST_WORD,,AUTO
        44 016745   017712 710000 44                 TRA     s:19448

  19299 44 016746   200075 236100                    LDQ     INST_WORD,,AUTO
        44 016747   000036 376000 45                 ANQ     30
        44 016750   020000 276007                    ORQ     8192,DL
        44 016751   200075 756100                    STQ     INST_WORD,,AUTO

  19301 44 016752   017712 710000 44                 TRA     s:19448

  19302 44 016753   000026 234000 xsym               SZN     COMCOM+22
        44 016754   017712 605000 44                 TPL     s:19448

  19303 44 016755   200101 236100                    LDQ     DEFER_BUFFER+3,,AUTO
        44 016756   000011 772000                    QRL     9
        44 016757   000777 376007                    ANQ     511,DL
        44 016760   000242 136007                    SBLQ    162,DL
        44 016761   000102 116007                    CMPQ    66,DL
        44 016762   016764 602006 44                 TNC     s:19303+7,QL
        44 016763   017712 710000 44                 TRA     s:19448
PL6.E3A0      #001=Z8HI$BURST File=Z8HI.:Z8A6TSI                                 SAT 08/09/97 13:19 Page:493
        44 016764   017066 710000 44                 TRA     s:19309
        44 016765   017066 710000 44                 TRA     s:19309
        44 016766   017131 710000 44                 TRA     s:19326
        44 016767   017131 710000 44                 TRA     s:19326
        44 016770   017066 710000 44                 TRA     s:19309
        44 016771   017066 710000 44                 TRA     s:19309
        44 016772   017131 710000 44                 TRA     s:19326
        44 016773   017131 710000 44                 TRA     s:19326
        44 016774   017131 710000 44                 TRA     s:19326
        44 016775   017131 710000 44                 TRA     s:19326
        44 016776   017131 710000 44                 TRA     s:19326
        44 016777   017131 710000 44                 TRA     s:19326
        44 017000   017131 710000 44                 TRA     s:19326
        44 017001   017131 710000 44                 TRA     s:19326
        44 017002   017131 710000 44                 TRA     s:19326
        44 017003   017131 710000 44                 TRA     s:19326
        44 017004   017066 710000 44                 TRA     s:19309
        44 017005   017066 710000 44                 TRA     s:19309
        44 017006   017131 710000 44                 TRA     s:19326
        44 017007   017131 710000 44                 TRA     s:19326
        44 017010   017066 710000 44                 TRA     s:19309
        44 017011   017066 710000 44                 TRA     s:19309
        44 017012   017131 710000 44                 TRA     s:19326
        44 017013   017131 710000 44                 TRA     s:19326
        44 017014   017131 710000 44                 TRA     s:19326
        44 017015   017131 710000 44                 TRA     s:19326
        44 017016   017131 710000 44                 TRA     s:19326
        44 017017   017131 710000 44                 TRA     s:19326
        44 017020   017131 710000 44                 TRA     s:19326
        44 017021   017131 710000 44                 TRA     s:19326
        44 017022   017131 710000 44                 TRA     s:19326
        44 017023   017131 710000 44                 TRA     s:19326
        44 017024   017131 710000 44                 TRA     s:19326
        44 017025   017131 710000 44                 TRA     s:19326
        44 017026   017131 710000 44                 TRA     s:19326
        44 017027   017131 710000 44                 TRA     s:19326
        44 017030   017131 710000 44                 TRA     s:19326
PL6.E3A0      #001=Z8HI$BURST File=Z8HI.:Z8A6TSI                                 SAT 08/09/97 13:19 Page:494
        44 017031   017131 710000 44                 TRA     s:19326
        44 017032   017131 710000 44                 TRA     s:19326
        44 017033   017131 710000 44                 TRA     s:19326
        44 017034   017131 710000 44                 TRA     s:19326
        44 017035   017131 710000 44                 TRA     s:19326
        44 017036   017131 710000 44                 TRA     s:19326
        44 017037   017131 710000 44                 TRA     s:19326
        44 017040   017131 710000 44                 TRA     s:19326
        44 017041   017131 710000 44                 TRA     s:19326
        44 017042   017131 710000 44                 TRA     s:19326
        44 017043   017131 710000 44                 TRA     s:19326
        44 017044   017131 710000 44                 TRA     s:19326
        44 017045   017131 710000 44                 TRA     s:19326
        44 017046   017131 710000 44                 TRA     s:19326
        44 017047   017131 710000 44                 TRA     s:19326
        44 017050   017131 710000 44                 TRA     s:19326
        44 017051   017131 710000 44                 TRA     s:19326
        44 017052   017131 710000 44                 TRA     s:19326
        44 017053   017131 710000 44                 TRA     s:19326
        44 017054   017131 710000 44                 TRA     s:19326
        44 017055   017131 710000 44                 TRA     s:19326
        44 017056   017131 710000 44                 TRA     s:19326
        44 017057   017131 710000 44                 TRA     s:19326
        44 017060   017131 710000 44                 TRA     s:19326
        44 017061   017131 710000 44                 TRA     s:19326
        44 017062   017066 710000 44                 TRA     s:19309
        44 017063   017131 710000 44                 TRA     s:19326
        44 017064   017131 710000 44                 TRA     s:19326
        44 017065   017066 710000 44                 TRA     s:19309

  19309 44 017066   200233 471500                    LDP1    ST$$,,AUTO
        44 017067   100002 220100                    LDX0    2,,PR1
        44 017070   000003 100003                    CMPX0   3,DU
        44 017071   017075 601000 44                 TNZ     s:19309+7
        44 017072   100001 236100                    LDQ     1,,PR1
        44 017073   040000 316007                    CANQ    16384,DL
        44 017074   017102 600000 44                 TZE     s:19312
PL6.E3A0      #001=Z8HI$BURST File=Z8HI.:Z8A6TSI                                 SAT 08/09/97 13:19 Page:495
        44 017075   000013 100003                    CMPX0   11,DU
        44 017076   017712 601000 44                 TNZ     s:19448
        44 017077   100001 236100                    LDQ     1,,PR1
        44 017100   040000 316007                    CANQ    16384,DL
        44 017101   017712 600000 44                 TZE     s:19448

  19312 44 017102   000037 236000 45                 LDQ     31
        44 017103   200075 356100                    ANSQ    INST_WORD,,AUTO

  19313 44 017104   100001 236100                    LDQ     1,,PR1
        44 017105   000014 772000                    QRL     12
        44 017106   000003 376007                    ANQ     3,DL
        44 017107   000004 116007                    CMPQ    4,DL
        44 017110   017112 602006 44                 TNC     s:19313+6,QL
        44 017111   017712 710000 44                 TRA     s:19448
        44 017112   017124 710000 44                 TRA     s:19320
        44 017113   017116 710000 44                 TRA     s:19315
        44 017114   017121 710000 44                 TRA     s:19317
        44 017115   017124 710000 44                 TRA     s:19320

  19315 44 017116   000040 236000 45                 LDQ     32
        44 017117   200075 356100                    ANSQ    INST_WORD,,AUTO
        44 017120   017712 710000 44                 TRA     s:19448

  19317 44 017121   030000 236007                    LDQ     12288,DL
        44 017122   200075 256100                    ORSQ    INST_WORD,,AUTO
        44 017123   017712 710000 44                 TRA     s:19448

  19320 44 017124   000043 630400 45                 EPPR0   35
        44 017125   000006 631400 45                 EPPR1   6
        44 017126   000000 701000 xent               TSX1    Z8AE$ERROR
        44 017127   000000 011000                    NOP     0

  19322 44 017130   017712 710000 44                 TRA     s:19448

  19326 44 017131   017712 710000 44                 TRA     s:19448

PL6.E3A0      #001=Z8HI$BURST File=Z8HI.:Z8A6TSI                                 SAT 08/09/97 13:19 Page:496
     2877    19328
     2878    19329    3            CASE(2);

     2879    19330    3              MF.RL = SIZ;

  19330 44 017132   200243 236100                    LDQ     SIZ,,AUTO
        44 017133   000001 772000                    QRL     1
        44 017134   200174 676100                    ERQ     MF,,AUTO
        44 017135   200000 376003                    ANQ     65536,DU
        44 017136   200174 656100                    ERSQ    MF,,AUTO

     2880    19331    3              DEFER_BUFFER.MW.MF2(0) = MF;

  19331 44 017137   200174 236100                    LDQ     MF,,AUTO
        44 017140   000013 772000                    QRL     11
        44 017141   200101 676100                    ERQ     DEFER_BUFFER+3,,AUTO
        44 017142   000177 376003                    ANQ     127,DU
        44 017143   200101 656100                    ERSQ    DEFER_BUFFER+3,,AUTO

     2881    19332    3              INST_WORD.ADSC = REF$ -> REF.ADSC;

  19332 44 017144   200231 470500                    LDP0    REF$,,AUTO
        44 017145   000001 720100                    LXL0    1,,PR0
        44 017146   200075 440100                    SXL0    INST_WORD,,AUTO

     2882    19333                   %CONVERT_DESC_FOR_DPS88;

  19335 44 017147   200101 236100                    LDQ     DEFER_BUFFER+3,,AUTO
        44 017150   777000 376007                    ANQ     -512,DL
        44 017151   160000 116007                    CMPQ    57344,DL
        44 017152   017241 601000 44                 TNZ     s:19359

  19337 44 017153   200211 631500                    EPPR1   TYPE_DESC,,AUTO
        44 017154   200261 451500                    STP1    @TAG+3,,AUTO
        44 017155   200230 633500                    EPPR3   NODE$,,AUTO
        44 017156   200260 453500                    STP3    @TAG+2,,AUTO
        44 017157   200260 630500                    EPPR0   @TAG+2,,AUTO
PL6.E3A0      #001=Z8HI$BURST File=Z8HI.:Z8A6TSI                                 SAT 08/09/97 13:19 Page:497
        44 017160   000015 631400 45                 EPPR1   13
        44 017161   000000 701000 xent               TSX1    Z8AU$TYPE_DESCRIPTOR
        44 017162   000000 011000                    NOP     0

  19346 44 017163   200233 470500                    LDP0    ST$$,,AUTO
        44 017164   000002 220100                    LDX0    2,,PR0
        44 017165   000024 100003                    CMPX0   20,DU
        44 017166   017170 602010 44                 TNC     s:19346+5,X0
        44 017167   017712 710000 44                 TRA     s:19448
        44 017170   017214 710000 44                 TRA     s:19348
        44 017171   017240 710000 44                 TRA     s:19358
        44 017172   017240 710000 44                 TRA     s:19358
        44 017173   017214 710000 44                 TRA     s:19348
        44 017174   017240 710000 44                 TRA     s:19358
        44 017175   017240 710000 44                 TRA     s:19358
        44 017176   017240 710000 44                 TRA     s:19358
        44 017177   017240 710000 44                 TRA     s:19358
        44 017200   017240 710000 44                 TRA     s:19358
        44 017201   017240 710000 44                 TRA     s:19358
        44 017202   017240 710000 44                 TRA     s:19358
        44 017203   017214 710000 44                 TRA     s:19348
        44 017204   017234 710000 44                 TRA     s:19356
        44 017205   017240 710000 44                 TRA     s:19358
        44 017206   017240 710000 44                 TRA     s:19358
        44 017207   017240 710000 44                 TRA     s:19358
        44 017210   017240 710000 44                 TRA     s:19358
        44 017211   017240 710000 44                 TRA     s:19358
        44 017212   017240 710000 44                 TRA     s:19358
        44 017213   017223 710000 44                 TRA     s:19352

  19348 44 017214   000000 236003                    LDQ     0,DU
        44 017215   200075 752102                    STCQ    INST_WORD,'02'O,AUTO

  19349 44 017216   000034 236000 45                 LDQ     28
        44 017217   200075 356100                    ANSQ    INST_WORD,,AUTO

  19350 44 017220   000036 236000 45                 LDQ     30
PL6.E3A0      #001=Z8HI$BURST File=Z8HI.:Z8A6TSI                                 SAT 08/09/97 13:19 Page:498
        44 017221   200075 356100                    ANSQ    INST_WORD,,AUTO
        44 017222   017712 710000 44                 TRA     s:19448

  19352 44 017223   000000 236003                    LDQ     0,DU
        44 017224   200075 752102                    STCQ    INST_WORD,'02'O,AUTO

  19353 44 017225   000034 236000 45                 LDQ     28
        44 017226   200075 356100                    ANSQ    INST_WORD,,AUTO

  19354 44 017227   200075 236100                    LDQ     INST_WORD,,AUTO
        44 017230   000036 376000 45                 ANQ     30
        44 017231   020000 276007                    ORQ     8192,DL
        44 017232   200075 756100                    STQ     INST_WORD,,AUTO
        44 017233   017712 710000 44                 TRA     s:19448

  19356 44 017234   200075 236100                    LDQ     INST_WORD,,AUTO
        44 017235   000036 376000 45                 ANQ     30
        44 017236   020000 276007                    ORQ     8192,DL
        44 017237   200075 756100                    STQ     INST_WORD,,AUTO

  19358 44 017240   017712 710000 44                 TRA     s:19448

  19359 44 017241   000026 234000 xsym               SZN     COMCOM+22
        44 017242   017712 605000 44                 TPL     s:19448

  19360 44 017243   200101 236100                    LDQ     DEFER_BUFFER+3,,AUTO
        44 017244   000011 772000                    QRL     9
        44 017245   000777 376007                    ANQ     511,DL
        44 017246   000242 136007                    SBLQ    162,DL
        44 017247   000102 116007                    CMPQ    66,DL
        44 017250   017252 602006 44                 TNC     s:19360+7,QL
        44 017251   017712 710000 44                 TRA     s:19448
        44 017252   017354 710000 44                 TRA     s:19366
        44 017253   017354 710000 44                 TRA     s:19366
        44 017254   017417 710000 44                 TRA     s:19383
        44 017255   017417 710000 44                 TRA     s:19383
        44 017256   017354 710000 44                 TRA     s:19366
PL6.E3A0      #001=Z8HI$BURST File=Z8HI.:Z8A6TSI                                 SAT 08/09/97 13:19 Page:499
        44 017257   017354 710000 44                 TRA     s:19366
        44 017260   017417 710000 44                 TRA     s:19383
        44 017261   017417 710000 44                 TRA     s:19383
        44 017262   017417 710000 44                 TRA     s:19383
        44 017263   017417 710000 44                 TRA     s:19383
        44 017264   017417 710000 44                 TRA     s:19383
        44 017265   017417 710000 44                 TRA     s:19383
        44 017266   017417 710000 44                 TRA     s:19383
        44 017267   017417 710000 44                 TRA     s:19383
        44 017270   017417 710000 44                 TRA     s:19383
        44 017271   017417 710000 44                 TRA     s:19383
        44 017272   017354 710000 44                 TRA     s:19366
        44 017273   017354 710000 44                 TRA     s:19366
        44 017274   017417 710000 44                 TRA     s:19383
        44 017275   017417 710000 44                 TRA     s:19383
        44 017276   017354 710000 44                 TRA     s:19366
        44 017277   017354 710000 44                 TRA     s:19366
        44 017300   017417 710000 44                 TRA     s:19383
        44 017301   017417 710000 44                 TRA     s:19383
        44 017302   017417 710000 44                 TRA     s:19383
        44 017303   017417 710000 44                 TRA     s:19383
        44 017304   017417 710000 44                 TRA     s:19383
        44 017305   017417 710000 44                 TRA     s:19383
        44 017306   017417 710000 44                 TRA     s:19383
        44 017307   017417 710000 44                 TRA     s:19383
        44 017310   017417 710000 44                 TRA     s:19383
        44 017311   017417 710000 44                 TRA     s:19383
        44 017312   017417 710000 44                 TRA     s:19383
        44 017313   017417 710000 44                 TRA     s:19383
        44 017314   017417 710000 44                 TRA     s:19383
        44 017315   017417 710000 44                 TRA     s:19383
        44 017316   017417 710000 44                 TRA     s:19383
        44 017317   017417 710000 44                 TRA     s:19383
        44 017320   017417 710000 44                 TRA     s:19383
        44 017321   017417 710000 44                 TRA     s:19383
        44 017322   017417 710000 44                 TRA     s:19383
        44 017323   017417 710000 44                 TRA     s:19383
PL6.E3A0      #001=Z8HI$BURST File=Z8HI.:Z8A6TSI                                 SAT 08/09/97 13:19 Page:500
        44 017324   017417 710000 44                 TRA     s:19383
        44 017325   017417 710000 44                 TRA     s:19383
        44 017326   017417 710000 44                 TRA     s:19383
        44 017327   017417 710000 44                 TRA     s:19383
        44 017330   017417 710000 44                 TRA     s:19383
        44 017331   017417 710000 44                 TRA     s:19383
        44 017332   017417 710000 44                 TRA     s:19383
        44 017333   017417 710000 44                 TRA     s:19383
        44 017334   017417 710000 44                 TRA     s:19383
        44 017335   017417 710000 44                 TRA     s:19383
        44 017336   017417 710000 44                 TRA     s:19383
        44 017337   017417 710000 44                 TRA     s:19383
        44 017340   017417 710000 44                 TRA     s:19383
        44 017341   017417 710000 44                 TRA     s:19383
        44 017342   017417 710000 44                 TRA     s:19383
        44 017343   017417 710000 44                 TRA     s:19383
        44 017344   017417 710000 44                 TRA     s:19383
        44 017345   017417 710000 44                 TRA     s:19383
        44 017346   017417 710000 44                 TRA     s:19383
        44 017347   017417 710000 44                 TRA     s:19383
        44 017350   017354 710000 44                 TRA     s:19366
        44 017351   017417 710000 44                 TRA     s:19383
        44 017352   017417 710000 44                 TRA     s:19383
        44 017353   017354 710000 44                 TRA     s:19366

  19366 44 017354   200233 471500                    LDP1    ST$$,,AUTO
        44 017355   100002 221100                    LDX1    2,,PR1
        44 017356   000003 101003                    CMPX1   3,DU
        44 017357   017363 601000 44                 TNZ     s:19366+7
        44 017360   100001 236100                    LDQ     1,,PR1
        44 017361   040000 316007                    CANQ    16384,DL
        44 017362   017370 600000 44                 TZE     s:19369
        44 017363   000013 101003                    CMPX1   11,DU
        44 017364   017712 601000 44                 TNZ     s:19448
        44 017365   100001 236100                    LDQ     1,,PR1
        44 017366   040000 316007                    CANQ    16384,DL
        44 017367   017712 600000 44                 TZE     s:19448
PL6.E3A0      #001=Z8HI$BURST File=Z8HI.:Z8A6TSI                                 SAT 08/09/97 13:19 Page:501

  19369 44 017370   000037 236000 45                 LDQ     31
        44 017371   200075 356100                    ANSQ    INST_WORD,,AUTO

  19370 44 017372   100001 236100                    LDQ     1,,PR1
        44 017373   000014 772000                    QRL     12
        44 017374   000003 376007                    ANQ     3,DL
        44 017375   000004 116007                    CMPQ    4,DL
        44 017376   017400 602006 44                 TNC     s:19370+6,QL
        44 017377   017712 710000 44                 TRA     s:19448
        44 017400   017412 710000 44                 TRA     s:19377
        44 017401   017404 710000 44                 TRA     s:19372
        44 017402   017407 710000 44                 TRA     s:19374
        44 017403   017412 710000 44                 TRA     s:19377

  19372 44 017404   000040 236000 45                 LDQ     32
        44 017405   200075 356100                    ANSQ    INST_WORD,,AUTO
        44 017406   017712 710000 44                 TRA     s:19448

  19374 44 017407   030000 236007                    LDQ     12288,DL
        44 017410   200075 256100                    ORSQ    INST_WORD,,AUTO
        44 017411   017712 710000 44                 TRA     s:19448

  19377 44 017412   000043 630400 45                 EPPR0   35
        44 017413   000006 631400 45                 EPPR1   6
        44 017414   000000 701000 xent               TSX1    Z8AE$ERROR
        44 017415   000000 011000                    NOP     0

  19379 44 017416   017712 710000 44                 TRA     s:19448

  19383 44 017417   017712 710000 44                 TRA     s:19448

     2883    19385
     2884    19386    3            CASE(3);

     2885    19387    3              MF.RL = SIZ;

PL6.E3A0      #001=Z8HI$BURST File=Z8HI.:Z8A6TSI                                 SAT 08/09/97 13:19 Page:502
  19387 44 017420   200243 236100                    LDQ     SIZ,,AUTO
        44 017421   000001 772000                    QRL     1
        44 017422   200174 676100                    ERQ     MF,,AUTO
        44 017423   200000 376003                    ANQ     65536,DU
        44 017424   200174 656100                    ERSQ    MF,,AUTO

     2886    19388    3              DEFER_BUFFER.MW.MF3(0) = MF;

  19388 44 017425   200174 236100                    LDQ     MF,,AUTO
        44 017426   000002 772000                    QRL     2
        44 017427   200101 676100                    ERQ     DEFER_BUFFER+3,,AUTO
        44 017430   177000 376003                    ANQ     65024,DU
        44 017431   200101 656100                    ERSQ    DEFER_BUFFER+3,,AUTO

     2887    19389    3              INST_WORD.ADSC = REF$ -> REF.ADSC;

  19389 44 017432   200231 470500                    LDP0    REF$,,AUTO
        44 017433   000001 720100                    LXL0    1,,PR0
        44 017434   200075 440100                    SXL0    INST_WORD,,AUTO

     2888    19390                   %CONVERT_DESC_FOR_DPS88;

  19392 44 017435   200101 236100                    LDQ     DEFER_BUFFER+3,,AUTO
        44 017436   777000 376007                    ANQ     -512,DL
        44 017437   160000 116007                    CMPQ    57344,DL
        44 017440   017527 601000 44                 TNZ     s:19416

  19394 44 017441   200211 631500                    EPPR1   TYPE_DESC,,AUTO
        44 017442   200261 451500                    STP1    @TAG+3,,AUTO
        44 017443   200230 633500                    EPPR3   NODE$,,AUTO
        44 017444   200260 453500                    STP3    @TAG+2,,AUTO
        44 017445   200260 630500                    EPPR0   @TAG+2,,AUTO
        44 017446   000015 631400 45                 EPPR1   13
        44 017447   000000 701000 xent               TSX1    Z8AU$TYPE_DESCRIPTOR
        44 017450   000000 011000                    NOP     0

  19403 44 017451   200233 470500                    LDP0    ST$$,,AUTO
PL6.E3A0      #001=Z8HI$BURST File=Z8HI.:Z8A6TSI                                 SAT 08/09/97 13:19 Page:503
        44 017452   000002 220100                    LDX0    2,,PR0
        44 017453   000024 100003                    CMPX0   20,DU
        44 017454   017456 602010 44                 TNC     s:19403+5,X0
        44 017455   017712 710000 44                 TRA     s:19448
        44 017456   017502 710000 44                 TRA     s:19405
        44 017457   017526 710000 44                 TRA     s:19415
        44 017460   017526 710000 44                 TRA     s:19415
        44 017461   017502 710000 44                 TRA     s:19405
        44 017462   017526 710000 44                 TRA     s:19415
        44 017463   017526 710000 44                 TRA     s:19415
        44 017464   017526 710000 44                 TRA     s:19415
        44 017465   017526 710000 44                 TRA     s:19415
        44 017466   017526 710000 44                 TRA     s:19415
        44 017467   017526 710000 44                 TRA     s:19415
        44 017470   017526 710000 44                 TRA     s:19415
        44 017471   017502 710000 44                 TRA     s:19405
        44 017472   017522 710000 44                 TRA     s:19413
        44 017473   017526 710000 44                 TRA     s:19415
        44 017474   017526 710000 44                 TRA     s:19415
        44 017475   017526 710000 44                 TRA     s:19415
        44 017476   017526 710000 44                 TRA     s:19415
        44 017477   017526 710000 44                 TRA     s:19415
        44 017500   017526 710000 44                 TRA     s:19415
        44 017501   017511 710000 44                 TRA     s:19409

  19405 44 017502   000000 236003                    LDQ     0,DU
        44 017503   200075 752102                    STCQ    INST_WORD,'02'O,AUTO

  19406 44 017504   000034 236000 45                 LDQ     28
        44 017505   200075 356100                    ANSQ    INST_WORD,,AUTO

  19407 44 017506   000036 236000 45                 LDQ     30
        44 017507   200075 356100                    ANSQ    INST_WORD,,AUTO
        44 017510   017712 710000 44                 TRA     s:19448

  19409 44 017511   000000 236003                    LDQ     0,DU
        44 017512   200075 752102                    STCQ    INST_WORD,'02'O,AUTO
PL6.E3A0      #001=Z8HI$BURST File=Z8HI.:Z8A6TSI                                 SAT 08/09/97 13:19 Page:504

  19410 44 017513   000034 236000 45                 LDQ     28
        44 017514   200075 356100                    ANSQ    INST_WORD,,AUTO

  19411 44 017515   200075 236100                    LDQ     INST_WORD,,AUTO
        44 017516   000036 376000 45                 ANQ     30
        44 017517   020000 276007                    ORQ     8192,DL
        44 017520   200075 756100                    STQ     INST_WORD,,AUTO
        44 017521   017712 710000 44                 TRA     s:19448

  19413 44 017522   200075 236100                    LDQ     INST_WORD,,AUTO
        44 017523   000036 376000 45                 ANQ     30
        44 017524   020000 276007                    ORQ     8192,DL
        44 017525   200075 756100                    STQ     INST_WORD,,AUTO

  19415 44 017526   017712 710000 44                 TRA     s:19448

  19416 44 017527   000026 234000 xsym               SZN     COMCOM+22
        44 017530   017712 605000 44                 TPL     s:19448

  19417 44 017531   200101 236100                    LDQ     DEFER_BUFFER+3,,AUTO
        44 017532   000011 772000                    QRL     9
        44 017533   000777 376007                    ANQ     511,DL
        44 017534   000242 136007                    SBLQ    162,DL
        44 017535   000102 116007                    CMPQ    66,DL
        44 017536   017540 602006 44                 TNC     s:19417+7,QL
        44 017537   017712 710000 44                 TRA     s:19448
        44 017540   017642 710000 44                 TRA     s:19423
        44 017541   017642 710000 44                 TRA     s:19423
        44 017542   017705 710000 44                 TRA     s:19440
        44 017543   017705 710000 44                 TRA     s:19440
        44 017544   017642 710000 44                 TRA     s:19423
        44 017545   017642 710000 44                 TRA     s:19423
        44 017546   017705 710000 44                 TRA     s:19440
        44 017547   017705 710000 44                 TRA     s:19440
        44 017550   017705 710000 44                 TRA     s:19440
        44 017551   017705 710000 44                 TRA     s:19440
PL6.E3A0      #001=Z8HI$BURST File=Z8HI.:Z8A6TSI                                 SAT 08/09/97 13:19 Page:505
        44 017552   017705 710000 44                 TRA     s:19440
        44 017553   017705 710000 44                 TRA     s:19440
        44 017554   017705 710000 44                 TRA     s:19440
        44 017555   017705 710000 44                 TRA     s:19440
        44 017556   017705 710000 44                 TRA     s:19440
        44 017557   017705 710000 44                 TRA     s:19440
        44 017560   017642 710000 44                 TRA     s:19423
        44 017561   017642 710000 44                 TRA     s:19423
        44 017562   017705 710000 44                 TRA     s:19440
        44 017563   017705 710000 44                 TRA     s:19440
        44 017564   017642 710000 44                 TRA     s:19423
        44 017565   017642 710000 44                 TRA     s:19423
        44 017566   017705 710000 44                 TRA     s:19440
        44 017567   017705 710000 44                 TRA     s:19440
        44 017570   017705 710000 44                 TRA     s:19440
        44 017571   017705 710000 44                 TRA     s:19440
        44 017572   017705 710000 44                 TRA     s:19440
        44 017573   017705 710000 44                 TRA     s:19440
        44 017574   017705 710000 44                 TRA     s:19440
        44 017575   017705 710000 44                 TRA     s:19440
        44 017576   017705 710000 44                 TRA     s:19440
        44 017577   017705 710000 44                 TRA     s:19440
        44 017600   017705 710000 44                 TRA     s:19440
        44 017601   017705 710000 44                 TRA     s:19440
        44 017602   017705 710000 44                 TRA     s:19440
        44 017603   017705 710000 44                 TRA     s:19440
        44 017604   017705 710000 44                 TRA     s:19440
        44 017605   017705 710000 44                 TRA     s:19440
        44 017606   017705 710000 44                 TRA     s:19440
        44 017607   017705 710000 44                 TRA     s:19440
        44 017610   017705 710000 44                 TRA     s:19440
        44 017611   017705 710000 44                 TRA     s:19440
        44 017612   017705 710000 44                 TRA     s:19440
        44 017613   017705 710000 44                 TRA     s:19440
        44 017614   017705 710000 44                 TRA     s:19440
        44 017615   017705 710000 44                 TRA     s:19440
        44 017616   017705 710000 44                 TRA     s:19440
PL6.E3A0      #001=Z8HI$BURST File=Z8HI.:Z8A6TSI                                 SAT 08/09/97 13:19 Page:506
        44 017617   017705 710000 44                 TRA     s:19440
        44 017620   017705 710000 44                 TRA     s:19440
        44 017621   017705 710000 44                 TRA     s:19440
        44 017622   017705 710000 44                 TRA     s:19440
        44 017623   017705 710000 44                 TRA     s:19440
        44 017624   017705 710000 44                 TRA     s:19440
        44 017625   017705 710000 44                 TRA     s:19440
        44 017626   017705 710000 44                 TRA     s:19440
        44 017627   017705 710000 44                 TRA     s:19440
        44 017630   017705 710000 44                 TRA     s:19440
        44 017631   017705 710000 44                 TRA     s:19440
        44 017632   017705 710000 44                 TRA     s:19440
        44 017633   017705 710000 44                 TRA     s:19440
        44 017634   017705 710000 44                 TRA     s:19440
        44 017635   017705 710000 44                 TRA     s:19440
        44 017636   017642 710000 44                 TRA     s:19423
        44 017637   017705 710000 44                 TRA     s:19440
        44 017640   017705 710000 44                 TRA     s:19440
        44 017641   017642 710000 44                 TRA     s:19423

  19423 44 017642   200233 471500                    LDP1    ST$$,,AUTO
        44 017643   100002 221100                    LDX1    2,,PR1
        44 017644   000003 101003                    CMPX1   3,DU
        44 017645   017651 601000 44                 TNZ     s:19423+7
        44 017646   100001 236100                    LDQ     1,,PR1
        44 017647   040000 316007                    CANQ    16384,DL
        44 017650   017656 600000 44                 TZE     s:19426
        44 017651   000013 101003                    CMPX1   11,DU
        44 017652   017712 601000 44                 TNZ     s:19448
        44 017653   100001 236100                    LDQ     1,,PR1
        44 017654   040000 316007                    CANQ    16384,DL
        44 017655   017712 600000 44                 TZE     s:19448

  19426 44 017656   000037 236000 45                 LDQ     31
        44 017657   200075 356100                    ANSQ    INST_WORD,,AUTO

  19427 44 017660   100001 236100                    LDQ     1,,PR1
PL6.E3A0      #001=Z8HI$BURST File=Z8HI.:Z8A6TSI                                 SAT 08/09/97 13:19 Page:507
        44 017661   000014 772000                    QRL     12
        44 017662   000003 376007                    ANQ     3,DL
        44 017663   000004 116007                    CMPQ    4,DL
        44 017664   017666 602006 44                 TNC     s:19427+6,QL
        44 017665   017712 710000 44                 TRA     s:19448
        44 017666   017700 710000 44                 TRA     s:19434
        44 017667   017672 710000 44                 TRA     s:19429
        44 017670   017675 710000 44                 TRA     s:19431
        44 017671   017700 710000 44                 TRA     s:19434

  19429 44 017672   000040 236000 45                 LDQ     32
        44 017673   200075 356100                    ANSQ    INST_WORD,,AUTO
        44 017674   017712 710000 44                 TRA     s:19448

  19431 44 017675   030000 236007                    LDQ     12288,DL
        44 017676   200075 256100                    ORSQ    INST_WORD,,AUTO
        44 017677   017712 710000 44                 TRA     s:19448

  19434 44 017700   000043 630400 45                 EPPR0   35
        44 017701   000006 631400 45                 EPPR1   6
        44 017702   000000 701000 xent               TSX1    Z8AE$ERROR
        44 017703   000000 011000                    NOP     0

  19436 44 017704   017712 710000 44                 TRA     s:19448

  19440 44 017705   017712 710000 44                 TRA     s:19448

     2889    19442
     2890    19443    3            CASE(ELSE);

     2891    19444    3              CALL Z8AE$ERROR(%E$UNEXPECTED_CASE);

  19444 44 017706   000043 630400 45                 EPPR0   35
        44 017707   000006 631400 45                 EPPR1   6
        44 017710   000000 701000 xent               TSX1    Z8AE$ERROR
        44 017711   000000 011000                    NOP     0

PL6.E3A0      #001=Z8HI$BURST File=Z8HI.:Z8A6TSI                                 SAT 08/09/97 13:19 Page:508
     2892    19445
     2893    19446    3          END /* Case */;

     2894    19447
     2895    19448    2          IF SIZ THEN

  19448 44 017712   200243 234100                    SZN     SIZ,,AUTO
        44 017713   020343 605000 44                 TPL     s:19618

     2896    19449    3            DO;

     2897    19450    3            IF DEFER AND ST$$ -> VARIABLE.B.GREATER_256K AND SSOP THEN

  19450 44 017714   200123 234100                    SZN     DEFER,,AUTO
        44 017715   020231 605000 44                 TPL     s:19591
        44 017716   200233 470500                    LDP0    ST$$,,AUTO
        44 017717   000003 236100                    LDQ     3,,PR0
        44 017720   020000 316003                    CANQ    8192,DU
        44 017721   020231 600000 44                 TZE     s:19591
        44 017722   200244 234100                    SZN     SSOP,,AUTO
        44 017723   020231 605000 44                 TPL     s:19591

     2898    19451    4              DO;

     2899    19452    4                CALL Z8HG$CHOOSE_REGISTER (%PR0, %PR7, POINTER_REGISTER);

  19452 44 017724   200155 631500                    EPPR1   POINTER_REGISTER,,AUTO
        44 017725   200262 451500                    STP1    @TAG+4,,AUTO
        44 017726   000012 237000 45                 LDAQ    10
        44 017727   200260 757100                    STAQ    @TAG+2,,AUTO
        44 017730   200260 630500                    EPPR0   @TAG+2,,AUTO
        44 017731   000000 631400 45                 EPPR1   0
        44 017732   000000 701000 xent               TSX1    Z8HG$CHOOSE_REGISTER
        44 017733   000000 011000                    NOP     0

     2900    19453    4                SAVED_INST_WORD = INST_WORD;

PL6.E3A0      #001=Z8HI$BURST File=Z8HI.:Z8A6TSI                                 SAT 08/09/97 13:19 Page:509
  19453 44 017734   200075 236100                    LDQ     INST_WORD,,AUTO
        44 017735   200206 756100                    STQ     SAVED_INST_WORD,,AUTO

     2901    19454    4                INST_WORD = '0'B;

  19454 44 017736   200075 450100                    STZ     INST_WORD,,AUTO

     2902    19455    4                INST_WORD.LOW.OP_CODE = %(EPPR0_OP - PR0) + POINTER_REGISTER;

  19455 44 017737   200155 236100                    LDQ     POINTER_REGISTER,,AUTO
        44 017740   000604 036007                    ADLQ    388,DL
        44 017741   000011 736000                    QLS     9
        44 017742   200075 552110                    STBQ    INST_WORD,'10'O,AUTO

     2903    19456    4                INST_WORD.LOW.EIS = TRUE;

  19456 44 017743   000400 236007                    LDQ     256,DL
        44 017744   200075 256100                    ORSQ    INST_WORD,,AUTO

     2904    19457    4                IF PR THEN

  19457 44 017745   200245 234100                    SZN     PR,,AUTO
        44 017746   017763 605000 44                 TPL     s:19463

     2905    19458    5                  DO;

     2906    19459    5                    INST_WORD.Y.AR# = REF$ -> REF.PR_TAG$ -> ETT.STATE - %PR0;

  19459 44 017747   200231 470500                    LDP0    REF$,,AUTO
        44 017750   000004 471500                    LDP1    4,,PR0
        44 017751   100004 236100                    LDQ     4,,PR1
        44 017752   000022 772000                    QRL     18
        44 017753   000024 136007                    SBLQ    20,DL
        44 017754   000041 736000                    QLS     33
        44 017755   200075 676100                    ERQ     INST_WORD,,AUTO
        44 017756   700000 376003                    ANQ     -32768,DU
        44 017757   200075 656100                    ERSQ    INST_WORD,,AUTO
PL6.E3A0      #001=Z8HI$BURST File=Z8HI.:Z8A6TSI                                 SAT 08/09/97 13:19 Page:510

     2907    19460    5                    INST_WORD.LOW.MF.AR = TRUE;

  19460 44 017760   000100 236007                    LDQ     64,DL
        44 017761   200075 256100                    ORSQ    INST_WORD,,AUTO

     2908    19461    5                  END;

  19461 44 017762   017766 710000 44                 TRA     s:19483

     2909    19462    4                ELSE
     2910    19463    4                  INST_WORD.SA = REF$ -> REF.SA;

  19463 44 017763   200231 470500                    LDP0    REF$,,AUTO
        44 017764   000001 220100                    LDX0    1,,PR0
        44 017765   200075 740100                    STX0    INST_WORD,,AUTO

     2911    19464                     %NEW_WORD (@OU_WORD = INST_WORD);

  19483 44 017766   000002 236000 34                 LDQ     OBJ_+2
        44 017767   000004 036007                    ADLQ    4,DL
        44 017770   000003 116000 34                 CMPQ    OBJ_+3
        44 017771   020003 604000 44                 TMI     s:19489

  19485 44 017772   000000 234000 28                 SZN     PAGING_OBJ
        44 017773   020000 605000 44                 TPL     s:19487

  19486 44 017774   000020 630400 45                 EPPR0   16
        44 017775   000006 631400 45                 EPPR1   6
        44 017776   000000 701000 xent               TSX1    Z9HF$WRITE_OBJ_PAGE
        44 017777   000000 011000                    NOP     0

  19487 44 020000   000002 631400 45                 EPPR1   2
        44 020001   000000 701000 xent               TSX1    Z9HF$GET_OBJ_PAGE
        44 020002   000000 011000                    NOP     0

  19489 44 020003   000002 236000 34                 LDQ     OBJ_+2
PL6.E3A0      #001=Z8HI$BURST File=Z8HI.:Z8A6TSI                                 SAT 08/09/97 13:19 Page:511
        44 020004   000022 736000                    QLS     18
        44 020005   000001 036000 34                 ADLQ    OBJ_+1
        44 020006   000000 756000 27                 STQ     OBJ$

  19490 44 020007   000004 236007                    LDQ     4,DL
        44 020010   000002 056000 34                 ASQ     OBJ_+2

  19491 44 020011   001012 220003                    LDX0    522,DU
        44 020012   000000 470400 27                 LDP0    OBJ$
        44 020013   000000 740100                    STX0    0,,PR0

  19494 44 020014   000007 236000 45                 LDQ     7
        44 020015   000000 470400 27                 LDP0    OBJ$
        44 020016   000002 756100                    STQ     2,,PR0

  19495 44 020017   000000 471400 4                  LDP1    CURRENT_BLOCK$
        44 020020   100002 236100                    LDQ     2,,PR1
        44 020021   000022 772000                    QRL     18
        44 020022   000001 756100                    STQ     1,,PR0

  19496 44 020023   000000 236003                    LDQ     0,DU
        44 020024   000000 552110                    STBQ    0,'10'O,PR0

  19498 44 020025   200075 236100                    LDQ     INST_WORD,,AUTO
        44 020026   000000 470400 27                 LDP0    OBJ$
        44 020027   000003 756100                    STQ     3,,PR0

  19505 44 020030   000000 471400 4                  LDP1    CURRENT_BLOCK$
        44 020031   100002 221100                    LDX1    2,,PR1
        44 020032   000001 622011                    EAX2    1,X1
        44 020033   100002 742100                    STX2    2,,PR1

  19506 44 020034   020041 601000 44                 TNZ     s:19511

  19507 44 020035   000022 630400 45                 EPPR0   18
        44 020036   000006 631400 45                 EPPR1   6
        44 020037   000000 701000 xent               TSX1    Z8AE$ERROR
PL6.E3A0      #001=Z8HI$BURST File=Z8HI.:Z8A6TSI                                 SAT 08/09/97 13:19 Page:512
        44 020040   000000 011000                    NOP     0

     2912    19511    4                INST_WORD.SA = 0;

  19511 44 020041   000000 220003                    LDX0    0,DU
        44 020042   200075 740100                    STX0    INST_WORD,,AUTO

     2913    19512    4                INST_WORD.Y.AR# = POINTER_REGISTER - %PR0;

  19512 44 020043   200155 236100                    LDQ     POINTER_REGISTER,,AUTO
        44 020044   000024 136007                    SBLQ    20,DL
        44 020045   000041 736000                    QLS     33
        44 020046   200075 676100                    ERQ     INST_WORD,,AUTO
        44 020047   700000 376003                    ANQ     -32768,DU
        44 020050   200075 656100                    ERSQ    INST_WORD,,AUTO

     2914    19513    4                IF REF$ -> REF.NDSC.TN

  19513 44 020051   200231 470500                    LDP0    REF$,,AUTO
        44 020052   000001 236100                    LDQ     1,,PR0
        44 020053   040000 316007                    CANQ    16384,DL
        44 020054   020060 600000 44                 TZE     s:19515

     2915    19514    4                  THEN INST_WORD.LOW.OP_CODE = %A4BD_OP;

  19514 44 020055   502000 236007                    LDQ     -97280,DL
        44 020056   200075 552110                    STBQ    INST_WORD,'10'O,AUTO
        44 020057   020062 710000 44                 TRA     s:19516

     2916    19515    4                  ELSE INST_WORD.LOW.OP_CODE = %A9BD_OP;

  19515 44 020060   500000 236007                    LDQ     -98304,DL
        44 020061   200075 552110                    STBQ    INST_WORD,'10'O,AUTO

     2917    19516    4                INST_WORD.LOW.MF.AR = TRUE;

  19516 44 020062   000100 236007                    LDQ     64,DL
PL6.E3A0      #001=Z8HI$BURST File=Z8HI.:Z8A6TSI                                 SAT 08/09/97 13:19 Page:513
        44 020063   200075 256100                    ORSQ    INST_WORD,,AUTO

     2918    19517    4                INST_WORD.LOW.MF.TAG = REF$ -> REF.SSOP_TAG$ -> ETT.STATE;

  19517 44 020064   000002 471500                    LDP1    2,,PR0
        44 020065   100004 236100                    LDQ     4,,PR1
        44 020066   000022 772000                    QRL     18
        44 020067   200075 676100                    ERQ     INST_WORD,,AUTO
        44 020070   000017 376007                    ANQ     15,DL
        44 020071   200075 656100                    ERSQ    INST_WORD,,AUTO

     2919    19518                     %NEW_WORD (@OU_WORD = INST_WORD);

  19537 44 020072   000002 236000 34                 LDQ     OBJ_+2
        44 020073   000004 036007                    ADLQ    4,DL
        44 020074   000003 116000 34                 CMPQ    OBJ_+3
        44 020075   020107 604000 44                 TMI     s:19543

  19539 44 020076   000000 234000 28                 SZN     PAGING_OBJ
        44 020077   020104 605000 44                 TPL     s:19541

  19540 44 020100   000020 630400 45                 EPPR0   16
        44 020101   000006 631400 45                 EPPR1   6
        44 020102   000000 701000 xent               TSX1    Z9HF$WRITE_OBJ_PAGE
        44 020103   000000 011000                    NOP     0

  19541 44 020104   000002 631400 45                 EPPR1   2
        44 020105   000000 701000 xent               TSX1    Z9HF$GET_OBJ_PAGE
        44 020106   000000 011000                    NOP     0

  19543 44 020107   000002 236000 34                 LDQ     OBJ_+2
        44 020110   000022 736000                    QLS     18
        44 020111   000001 036000 34                 ADLQ    OBJ_+1
        44 020112   000000 756000 27                 STQ     OBJ$

  19544 44 020113   000004 236007                    LDQ     4,DL
        44 020114   000002 056000 34                 ASQ     OBJ_+2
PL6.E3A0      #001=Z8HI$BURST File=Z8HI.:Z8A6TSI                                 SAT 08/09/97 13:19 Page:514

  19545 44 020115   001012 220003                    LDX0    522,DU
        44 020116   000000 470400 27                 LDP0    OBJ$
        44 020117   000000 740100                    STX0    0,,PR0

  19548 44 020120   000007 236000 45                 LDQ     7
        44 020121   000000 470400 27                 LDP0    OBJ$
        44 020122   000002 756100                    STQ     2,,PR0

  19549 44 020123   000000 471400 4                  LDP1    CURRENT_BLOCK$
        44 020124   100002 236100                    LDQ     2,,PR1
        44 020125   000022 772000                    QRL     18
        44 020126   000001 756100                    STQ     1,,PR0

  19550 44 020127   000000 236003                    LDQ     0,DU
        44 020130   000000 552110                    STBQ    0,'10'O,PR0

  19552 44 020131   200075 236100                    LDQ     INST_WORD,,AUTO
        44 020132   000000 470400 27                 LDP0    OBJ$
        44 020133   000003 756100                    STQ     3,,PR0

  19559 44 020134   000000 471400 4                  LDP1    CURRENT_BLOCK$
        44 020135   100002 221100                    LDX1    2,,PR1
        44 020136   000001 622011                    EAX2    1,X1
        44 020137   100002 742100                    STX2    2,,PR1

  19560 44 020140   020145 601000 44                 TNZ     s:19565

  19561 44 020141   000022 630400 45                 EPPR0   18
        44 020142   000006 631400 45                 EPPR1   6
        44 020143   000000 701000 xent               TSX1    Z8AE$ERROR
        44 020144   000000 011000                    NOP     0

     2920    19565    4                INST_WORD = SAVED_INST_WORD;

  19565 44 020145   200206 236100                    LDQ     SAVED_INST_WORD,,AUTO
        44 020146   200075 756100                    STQ     INST_WORD,,AUTO
PL6.E3A0      #001=Z8HI$BURST File=Z8HI.:Z8A6TSI                                 SAT 08/09/97 13:19 Page:515

     2921    19566    4                IF DEFER_BUFFER_IDX = 1 THEN

  19566 44 020147   200122 235100                    LDA     DEFER_BUFFER_IDX,,AUTO
        44 020150   000001 115007                    CMPA    1,DL
        44 020151   020157 601000 44                 TNZ     s:19573

     2922    19567    5                  DO;

     2923    19568    5                    DEFER_BUFFER.MW.MF1.TAG (0) = 0;

  19568 44 020152   000025 236000 45                 LDQ     21
        44 020153   200101 356100                    ANSQ    DEFER_BUFFER+3,,AUTO

     2924    19569    5                    DEFER_BUFFER.MW.MF1.AR (0) = TRUE;

  19569 44 020154   000100 236007                    LDQ     64,DL
        44 020155   200101 256100                    ORSQ    DEFER_BUFFER+3,,AUTO

     2925    19570    5                  END;

  19570 44 020156   020217 710000 44                 TRA     s:19587

     2926    19571    4                ELSE /* DEFER_BUFFER_IDX = 2 */
     2927    19572    5                  DO;

     2928    19573    5                    IF REF$ -> REF.SSOP_TAG$ -> ETT.STATE =

  19573 44 020157   200231 470500                    LDP0    REF$,,AUTO
        44 020160   000002 471500                    LDP1    2,,PR0
        44 020161   200101 236100                    LDQ     DEFER_BUFFER+3,,AUTO
        44 020162   000017 376007                    ANQ     15,DL
        44 020163   200260 756100                    STQ     @TAG+2,,AUTO
        44 020164   100004 236100                    LDQ     4,,PR1
        44 020165   000022 772000                    QRL     18
        44 020166   200260 116100                    CMPQ    @TAG+2,,AUTO
        44 020167   020213 601000 44                 TNZ     s:19584
PL6.E3A0      #001=Z8HI$BURST File=Z8HI.:Z8A6TSI                                 SAT 08/09/97 13:19 Page:516

     2929    19574    5                        DEFER_BUFFER.MW.MF1.TAG (0) THEN
     2930    19575    6                      DO;

     2931    19576                             /* Uh oh ... compiler expects two different quantities
     2932    19577                                to be in the same register at the same time ...
     2933    19578                                find where the other got moved to. */
     2934    19579    6                        P$ = PILL -> ILL.ROP -> ETT.REF$ -> REF.SSOP_TAG$;

  19579 44 020170   200003 471500                    LDP1    @PILL,,AUTO
        44 020171   100000 473500                    LDP3    0,,PR1
        44 020172   300002 474500                    LDP4    2,,PR3
        44 020173   400003 475500                    LDP5    3,,PR4
        44 020174   500002 236100                    LDQ     2,,PR5
        44 020175   200226 756100                    STQ     P$,,AUTO

     2935    19580    6                        IF P$ = ADDR (NIL) /* Not obvious how to find it */

  19580 44 020176   000007 116000 45                 CMPQ    7
        44 020177   020205 601000 44                 TNZ     s:19582

     2936    19581    6                          THEN CALL Z8AE$ERROR (%E$UNEXPECTED_CASE);

  19581 44 020200   000043 630400 45                 EPPR0   35
        44 020201   000006 631400 45                 EPPR1   6
        44 020202   000000 701000 xent               TSX1    Z8AE$ERROR
        44 020203   000000 011000                    NOP     0
        44 020204   020213 710000 44                 TRA     s:19584

     2937    19582    6                          ELSE DEFER_BUFFER.MW.MF1.TAG (0) = P$ -> ETT.STATE;

  19582 44 020205   200226 473500                    LDP3    P$,,AUTO
        44 020206   300004 236100                    LDQ     4,,PR3
        44 020207   000022 772000                    QRL     18
        44 020210   200101 676100                    ERQ     DEFER_BUFFER+3,,AUTO
        44 020211   000017 376007                    ANQ     15,DL
        44 020212   200101 656100                    ERSQ    DEFER_BUFFER+3,,AUTO
PL6.E3A0      #001=Z8HI$BURST File=Z8HI.:Z8A6TSI                                 SAT 08/09/97 13:19 Page:517

     2938    19583    6                      END;

     2939    19584    5                    DEFER_BUFFER.MW.MF2.TAG (0) = 0;

  19584 44 020213   000066 236000 45                 LDQ     54
        44 020214   200101 356100                    ANSQ    DEFER_BUFFER+3,,AUTO

     2940    19585    5                    DEFER_BUFFER.MW.MF2.AR (0) = TRUE;

  19585 44 020215   000100 236003                    LDQ     64,DU
        44 020216   200101 256100                    ORSQ    DEFER_BUFFER+3,,AUTO

     2941    19586    5                  END;

     2942    19587    4                IF NOT PR THEN

  19587 44 020217   200245 234100                    SZN     PR,,AUTO
        44 020220   020223 604000 44                 TMI     s:19589

     2943    19588    4                  INST_WORD.SA = 0;

  19588 44 020221   000000 220003                    LDX0    0,DU
        44 020222   200075 740100                    STX0    INST_WORD,,AUTO

     2944    19589    4                INST_WORD.Y.AR# = POINTER_REGISTER - %PR0;

  19589 44 020223   200155 236100                    LDQ     POINTER_REGISTER,,AUTO
        44 020224   000024 136007                    SBLQ    20,DL
        44 020225   000041 736000                    QLS     33
        44 020226   200075 676100                    ERQ     INST_WORD,,AUTO
        44 020227   700000 376003                    ANQ     -32768,DU
        44 020230   200075 656100                    ERSQ    INST_WORD,,AUTO

     2945    19590    4              END;

     2946    19591    3           CALL Z8HU$TAG(REF$ -> REF.SIZ_TAG$, ST$$ -> VARIABLE.B.GREATER_256K = TRUE)
PL6.E3A0      #001=Z8HI$BURST File=Z8HI.:Z8A6TSI                                 SAT 08/09/97 13:19 Page:518
             19591                     ;

  19591 44 020231   400000 220003                    LDX0    -131072,DU
        44 020232   200233 470500                    LDP0    ST$$,,AUTO
        44 020233   000003 236100                    LDQ     3,,PR0
        44 020234   020000 316003                    CANQ    8192,DU
        44 020235   020237 601000 44                 TNZ     s:19591+6
        44 020236   000000 220003                    LDX0    0,DU
        44 020237   000000 636010                    EAQ     0,X0
        44 020240   200260 676100                    ERQ     @TAG+2,,AUTO
        44 020241   400000 376003                    ANQ     -131072,DU
        44 020242   200260 656100                    ERSQ    @TAG+2,,AUTO
        44 020243   200260 631500                    EPPR1   @TAG+2,,AUTO
        44 020244   200263 451500                    STP1    @TAG+5,,AUTO
        44 020245   200231 236100                    LDQ     REF$,,AUTO
        44 020246   000003 036003                    ADLQ    3,DU
        44 020247   200262 756100                    STQ     @TAG+4,,AUTO
        44 020250   200262 630500                    EPPR0   @TAG+4,,AUTO
        44 020251   000015 631400 45                 EPPR1   13
        44 020252   000000 701000 xent               TSX1    Z8HU$TAG
        44 020253   000000 011000                    NOP     0

     2947    19592    3            INST_WORD.ADSC.N = REF$ -> REF.SIZ_TAG$ -> ETT.STATE;

  19592 44 020254   200231 470500                    LDP0    REF$,,AUTO
        44 020255   000003 471500                    LDP1    3,,PR0
        44 020256   100004 236100                    LDQ     4,,PR1
        44 020257   000022 772000                    QRL     18
        44 020260   200075 752103                    STCQ    INST_WORD,'03'O,AUTO

     2948    19593    3            IF DEFER_BUFFER_IDX = 1

  19593 44 020261   200122 235100                    LDA     DEFER_BUFFER_IDX,,AUTO
        44 020262   000001 115007                    CMPA    1,DL
        44 020263   020343 601000 44                 TNZ     s:19618
        44 020264   100004 220100                    LDX0    4,,PR1
        44 020265   000010 100003                    CMPX0   8,DU
PL6.E3A0      #001=Z8HI$BURST File=Z8HI.:Z8A6TSI                                 SAT 08/09/97 13:19 Page:519
        44 020266   020343 603000 44                 TRC     s:19618
        44 020267   200003 473500                    LDP3    @PILL,,AUTO
        44 020270   300000 474500                    LDP4    0,,PR3
        44 020271   400000 221100                    LDX1    0,,PR4
        44 020272   000025 101003                    CMPX1   21,DU
        44 020273   020343 600000 44                 TZE     s:19618
        44 020274   200244 234100                    SZN     SSOP,,AUTO
        44 020275   020343 605000 44                 TPL     s:19618
        44 020276   200233 475500                    LDP5    ST$$,,AUTO
        44 020277   500003 236100                    LDQ     3,,PR5
        44 020300   020000 316003                    CANQ    8192,DU
        44 020301   020343 600000 44                 TZE     s:19618

     2949    19594    3                AND REF$ -> REF.SIZ_TAG$ -> ETT.STATE < %XR0 /* A or Q */
     2950    19595    3                AND PILL -> ETT.ID ~= %CFILL
     2951    19596    3                AND SSOP
     2952    19597    3                AND ST$$ -> VARIABLE.B.GREATER_256K THEN
     2953    19598    4              DO;

     2954    19599    4                OP_SIZ_TAG$ = REF$ -> REF.SIZ_TAG$;

  19599 44 020302   000003 236100                    LDQ     3,,PR0
        44 020303   200204 756100                    STQ     OP_SIZ_TAG$,,AUTO

     2955    19600    4                CALL Z8HU$INCCNT (OP_SIZ_TAG$, 1);

  19600 44 020304   000017 236000 45                 LDQ     15
        44 020305   200261 756100                    STQ     @TAG+3,,AUTO
        44 020306   200204 631500                    EPPR1   OP_SIZ_TAG$,,AUTO
        44 020307   200260 451500                    STP1    @TAG+2,,AUTO
        44 020310   200260 630500                    EPPR0   @TAG+2,,AUTO
        44 020311   000015 631400 45                 EPPR1   13
        44 020312   000000 701000 xent               TSX1    Z8HU$INCCNT
        44 020313   000000 011000                    NOP     0

     2956    19601                     /* In this case, the compiler needs 4 arithmetic registers to
     2957    19602                        hold lengths and offsets for both descriptors. There are
PL6.E3A0      #001=Z8HI$BURST File=Z8HI.:Z8A6TSI                                 SAT 08/09/97 13:19 Page:520
     2958    19603                        only 2 available. Therefore, pointer registers need to be
     2959    19604                        assigned to combine the base PR if any and the offset, so
     2960    19605                        that arithmetic registers will be needed only for the sizes.
     2961    19606                        The values for the ROP must NOT tamper with the register
     2962    19607                        used for the length of the LOP. Temporarily increasing its
     2963    19608                        usage count should guarantee that it will be safe. */
     2964    19609    4                OP_SSOP_TAG$ = NODE$;

  19609 44 020314   200230 236100                    LDQ     NODE$,,AUTO
        44 020315   200205 756100                    STQ     OP_SSOP_TAG$,,AUTO

     2965    19610    5                DO WHILE OP_SSOP_TAG$ -> ETT.ID ~= %SSOP;

  19610 44 020316   200205 470500                    LDP0    OP_SSOP_TAG$,,AUTO
        44 020317   000000 220100                    LDX0    0,,PR0
        44 020320   000005 100003                    CMPX0   5,DU
        44 020321   020331 600000 44                 TZE     s:19613

     2966    19611    5                  OP_SSOP_TAG$ = OP_SSOP_TAG$ -> ETT.LOP;

  19611 44 020322   200205 470500                    LDP0    OP_SSOP_TAG$,,AUTO
        44 020323   000001 236100                    LDQ     1,,PR0
        44 020324   200205 756100                    STQ     OP_SSOP_TAG$,,AUTO

     2967    19612    5                END;

  19612 44 020325   200205 470500                    LDP0    OP_SSOP_TAG$,,AUTO
        44 020326   000000 220100                    LDX0    0,,PR0
        44 020327   000005 100003                    CMPX0   5,DU
        44 020330   020322 601000 44                 TNZ     s:19611

     2968    19613    4                CALL Z8HG$USE_REGISTER (OP_SSOP_TAG$, POINTER_REGISTER);

  19613 44 020331   200155 631500                    EPPR1   POINTER_REGISTER,,AUTO
        44 020332   200261 451500                    STP1    @TAG+3,,AUTO
        44 020333   200205 633500                    EPPR3   OP_SSOP_TAG$,,AUTO
        44 020334   200260 453500                    STP3    @TAG+2,,AUTO
PL6.E3A0      #001=Z8HI$BURST File=Z8HI.:Z8A6TSI                                 SAT 08/09/97 13:19 Page:521
        44 020335   200260 630500                    EPPR0   @TAG+2,,AUTO
        44 020336   000015 631400 45                 EPPR1   13
        44 020337   000000 701000 xent               TSX1    Z8HG$USE_REGISTER
        44 020340   000000 011000                    NOP     0

     2969    19614    4                BIG_OP_SSOP_FLAG = TRUE;

  19614 44 020341   400000 236003                    LDQ     -131072,DU
        44 020342   200203 756100                    STQ     BIG_OP_SSOP_FLAG,,AUTO

     2970    19615    4              END;

     2971    19616    3          END;

     2972    19617
     2973    19618    2          IF DEFER_BUFFER_IDX = 2 AND BIG_OP_SSOP_FLAG THEN

  19618 44 020343   200122 235100                    LDA     DEFER_BUFFER_IDX,,AUTO
        44 020344   000002 115007                    CMPA    2,DL
        44 020345   020371 601000 44                 TNZ     s:19629
        44 020346   200203 234100                    SZN     BIG_OP_SSOP_FLAG,,AUTO
        44 020347   020371 605000 44                 TPL     s:19629

     2974    19619    3            DO;

     2975    19620    3              CALL Z8HU$DEC_COUNT (OP_SIZ_TAG$, 1);

  19620 44 020350   000017 236000 45                 LDQ     15
        44 020351   200261 756100                    STQ     @TAG+3,,AUTO
        44 020352   200204 630500                    EPPR0   OP_SIZ_TAG$,,AUTO
        44 020353   200260 450500                    STP0    @TAG+2,,AUTO
        44 020354   200260 630500                    EPPR0   @TAG+2,,AUTO
        44 020355   000015 631400 45                 EPPR1   13
        44 020356   000000 701000 xent               TSX1    Z8HU$DEC_COUNT
        44 020357   000000 011000                    NOP     0

     2976    19621                   /* Unlock size tag from its register */
PL6.E3A0      #001=Z8HI$BURST File=Z8HI.:Z8A6TSI                                 SAT 08/09/97 13:19 Page:522
     2977    19622    3              CALL Z8HU$DEC_COUNT (OP_SSOP_TAG$, 1);

  19622 44 020360   000017 236000 45                 LDQ     15
        44 020361   200261 756100                    STQ     @TAG+3,,AUTO
        44 020362   200205 630500                    EPPR0   OP_SSOP_TAG$,,AUTO
        44 020363   200260 450500                    STP0    @TAG+2,,AUTO
        44 020364   200260 630500                    EPPR0   @TAG+2,,AUTO
        44 020365   000015 631400 45                 EPPR1   13
        44 020366   000000 701000 xent               TSX1    Z8HU$DEC_COUNT
        44 020367   000000 011000                    NOP     0

     2978    19623                   /* Likewise, ssop tag */
     2979    19624    3              BIG_OP_SSOP_FLAG = FALSE;

  19624 44 020370   200203 450100                    STZ     BIG_OP_SSOP_FLAG,,AUTO

     2980    19625    3            END;

     2981    19626
     2982    19627
     2983    19628
     2984    19629    2   END HANDLE_REF_OPERAND;

  19629 44 020371   200242 221300                    LDX1  ! KANJI_FILL+2,,AUTO
        44 020372   000001 702211                    TSX2  ! 1,X1

     2985    19630        %EJECT;
PL6.E3A0      #001=Z8HI$BURST File=Z8HI.:Z8A6TSI                                 SAT 08/09/97 13:19 Page:523
     2986    19631    1   HANDLE_CONSTANT:PROC;

  19631 44 020373   200250 741300       HANDLE_CONS* STX1  ! STB_FLAG+2,,AUTO

     2987    19632
     2988    19633        /*I*
     2989    19634             NAME: HANDLE_CONSTANT
     2990    19635             PURPOSE:
     2991    19636                  Handle a reference to a constant in an instruction.
     2992    19637             DESCRIPTION:
     2993    19638                  Set up an instruction to reference a constant.  If
     2994    19639                  the constant can be put into the Y field of the instruction
     2995    19640                  using a DU or DL tag then do so (this is done in the
     2996    19641                  procedure IMMEDIATE).  If the constant can't be 'immediate'
     2997    19642                  then it must be materialized, i.e. it must be allocated
     2998    19643                  space in the program and referenced as if storage contained.
     2999    19644        */
     3000    19645    2        CALL IMMEDIATE;

  19645 44 020374   020446 701000 44                 TSX1    IMMEDIATE
        44 020375   000000 011000                    NOP     0

     3001    19646
     3002    19647    3        DO CASE(INST_WORD.LOW.MF.TAG);

  19647 44 020376   200075 720100                    LXL0    INST_WORD,,AUTO
        44 020377   000017 360003                    ANX0    15,DU
        44 020400   000010 100003                    CMPX0   8,DU
        44 020401   020403 602010 44                 TNC     s:19647+5,X0
        44 020402   020413 710000 44                 TRA     s:19650
        44 020403   020413 710000 44                 TRA     s:19650
        44 020404   020413 710000 44                 TRA     s:19650
        44 020405   020413 710000 44                 TRA     s:19650
        44 020406   020444 710000 44                 TRA     s:19664
        44 020407   020413 710000 44                 TRA     s:19650
        44 020410   020413 710000 44                 TRA     s:19650
        44 020411   020413 710000 44                 TRA     s:19650
PL6.E3A0      #001=Z8HI$BURST File=Z8HI.:Z8A6TSI                                 SAT 08/09/97 13:19 Page:524
        44 020412   020444 710000 44                 TRA     s:19664

     3003    19648    3          CASE(%DU, %DL);

     3004    19649    3          CASE(ELSE);

     3005    19650    3            MATERIALIZED_CONSTANT = TRUE;

  19650 44 020413   400000 236003                    LDQ     -131072,DU
        44 020414   002734 756000 3                  STQ     MATERIALIZED_CONSTANT

     3006    19651    3            INST_WORD.SA = REF$ -> REF.SA + INST_WORD.SA;

  19651 44 020415   200075 235100                    LDA     INST_WORD,,AUTO
        44 020416   000022 771000                    ARL     18
        44 020417   200260 755100                    STA     @TAG+2,,AUTO
        44 020420   200231 470500                    LDP0    REF$,,AUTO
        44 020421   000001 236100                    LDQ     1,,PR0
        44 020422   000022 772000                    QRL     18
        44 020423   200260 036100                    ADLQ    @TAG+2,,AUTO
        44 020424   000000 621006                    EAX1    0,QL
        44 020425   200075 741100                    STX1    INST_WORD,,AUTO

     3007    19652
     3008    19653    3            IF NOT ST$$ -> CONST.B.ALLOCATED THEN

  19653 44 020426   200233 471500                    LDP1    ST$$,,AUTO
        44 020427   100003 236100                    LDQ     3,,PR1
        44 020430   020000 316003                    CANQ    8192,DU
        44 020431   020440 601000 44                 TNZ     s:19660

     3009    19654    4              DO;

     3010    19655    4                ST$$ -> CONST.B.ALLOCATED = TRUE;

  19655 44 020432   020000 236003                    LDQ     8192,DU
        44 020433   100003 256100                    ORSQ    3,,PR1
PL6.E3A0      #001=Z8HI$BURST File=Z8HI.:Z8A6TSI                                 SAT 08/09/97 13:19 Page:525

     3011    19656    4                ST$$ -> CONST.ALLOC_LINK = CONST$;

  19656 44 020434   000000 236000 14                 LDQ     CONST$
        44 020435   100005 756100                    STQ     5,,PR1

     3012    19657    4                CONST$ = ST$$;

  19657 44 020436   200233 236100                    LDQ     ST$$,,AUTO
        44 020437   000000 756000 14                 STQ     CONST$

     3013    19658    4              END;

     3014    19659
     3015    19660    3            IF DEFER THEN

  19660 44 020440   200123 234100                    SZN     DEFER,,AUTO
        44 020441   020444 605000 44                 TPL     s:19664

     3016    19661    3              INST_WORD.ADSC = REF$ -> REF.ADSC;

  19661 44 020442   000001 722100                    LXL2    1,,PR0
        44 020443   200075 442100                    SXL2    INST_WORD,,AUTO

     3017    19662    3        END /* Case */;

     3018    19663
     3019    19664    2   END HANDLE_CONSTANT;

  19664 44 020444   200250 221300                    LDX1  ! STB_FLAG+2,,AUTO
        44 020445   000001 702211                    TSX2  ! 1,X1

     3020    19665        %EJECT;
PL6.E3A0      #001=Z8HI$BURST File=Z8HI.:Z8A6TSI                                 SAT 08/09/97 13:19 Page:526
     3021    19666    1   IMMEDIATE:PROC;

  19666 44 020446   200252 741300       IMMEDIATE    STX1  ! STB_FLAG+4,,AUTO

     3022    19667        /*I*
     3023    19668             NAME: IMMEDIATE
     3024    19669             PURPOSE:
     3025    19670                  Check to see if a constant can be referenced in an
     3026    19671                  instruction using a DU or DL tag.
     3027    19672             DESCRIPTION:
     3028    19673                  'IMMEDIACY' depends on the instruction, the length of the
     3029    19674                  constant, and the type of the constant.  Check all this
     3030    19675                  stuff and if the constant qualifies fill in the Y field of
     3031    19676                  INST_WORD and put DU or DL into tag field.
     3032    19677        */
     3033    19678
     3034    19679           %EQU UPPER = 0;
     3035    19680           %EQU LOWER = 1;
     3036    19681
     3037    19682
     3038    19683    2      IF (NOT DEFER  AND  NOT INST_WORD.LOW.EIS  AND INST_WORD.LOW.OP_CODE ~= %ARG_OP)

  19683 44 020447   200123 234100                    SZN     DEFER,,AUTO
        44 020450   020456 604000 44                 TMI     s:19683+7
        44 020451   200075 236100                    LDQ     INST_WORD,,AUTO
        44 020452   000400 316007                    CANQ    256,DL
        44 020453   020456 601000 44                 TNZ     s:19683+7
        44 020454   777000 316007                    CANQ    -512,DL
        44 020455   020464 601000 44                 TNZ     s:19686
        44 020456   200075 236100                    LDQ     INST_WORD,,AUTO
        44 020457   777000 376007                    ANQ     -512,DL
        44 020460   120000 116007                    CMPQ    40960,DL
        44 020461   020464 600000 44                 TZE     s:19686
        44 020462   124000 116007                    CMPQ    43008,DL
        44 020463   021160 601000 44                 TNZ     s:19763

     3039    19684    2      OR (INST_WORD.LOW.OP_CODE = %SCD_OP OR INST_WORD.LOW.OP_CODE = %SCM_OP) THEN
PL6.E3A0      #001=Z8HI$BURST File=Z8HI.:Z8A6TSI                                 SAT 08/09/97 13:19 Page:527
     3040    19685
     3041    19686    3          DO CASE(ST$$ -> ST.TYPE);

  19686 44 020464   200233 470500                    LDP0    ST$$,,AUTO
        44 020465   000002 220100                    LDX0    2,,PR0
        44 020466   000011 100003                    CMPX0   9,DU
        44 020467   020471 602010 44                 TNC     s:19686+5,X0
        44 020470   021160 710000 44                 TRA     s:19763
        44 020471   021160 710000 44                 TRA     s:19763
        44 020472   020502 710000 44                 TRA     s:19689
        44 020473   021160 710000 44                 TRA     s:19763
        44 020474   021160 710000 44                 TRA     s:19763
        44 020475   021150 710000 44                 TRA     s:19758
        44 020476   021160 710000 44                 TRA     s:19763
        44 020477   021160 710000 44                 TRA     s:19763
        44 020500   021160 710000 44                 TRA     s:19763
        44 020501   021024 710000 44                 TRA     s:19732

     3042    19687    3            CASE(%TYI);

     3043    19688
     3044    19689    3              IF ST$$ -> CONST.CONSTU.UPPER = BITBIN('777777'O) THEN

  19689 44 020502   000010 222100                    LDX2    8,,PR0
        44 020503   777777 102003                    CMPX2   -1,DU
        44 020504   020663 601000 44                 TNZ     s:19713

     3045    19690    4                DO CASE(INST_WORD.LOW.OP_CODE);

  19690 44 020505   200075 236100                    LDQ     INST_WORD,,AUTO
        44 020506   000011 772000                    QRL     9
        44 020507   000777 376007                    ANQ     511,DL
        44 020510   000235 136007                    SBLQ    157,DL
        44 020511   000002 116007                    CMPQ    2,DL
        44 020512   020514 602006 44                 TNC     s:19690+7,QL
        44 020513   020544 710000 44                 TRA     s:19700
        44 020514   020516 710000 44                 TRA     s:19692
