PL6.E3A0      #001=Z8HI$BURST File=Z8HI.:Z8A6TSI                                 SAT 08/09/97 13:19 Page:528
        44 020515   020531 710000 44                 TRA     s:19696

     3046    19691    4                  CASE(%LDA_OP);

     3047    19692    4                    INST_WORD.LOW.OP_CODE = %LCA_OP;

  19692 44 020516   335000 236007                    LDQ     113152,DL
        44 020517   200075 552110                    STBQ    INST_WORD,'10'O,AUTO

     3048    19693    4                    INST_WORD.SA = - (ST$$ -> CONST.CONSTS.LOWER);

  19693 44 020520   000010 723100                    LXL3    8,,PR0
        44 020521   777777 623013                    EAX3    -1,X3
        44 020522   777777 663003                    ERX3    -1,DU
        44 020523   200075 743100                    STX3    INST_WORD,,AUTO

     3049    19694    4                    INST_WORD.LOW.MF.TAG = %DL;

  19694 44 020524   200075 236100                    LDQ     INST_WORD,,AUTO
        44 020525   000025 376000 45                 ANQ     21
        44 020526   000007 276007                    ORQ     7,DL
        44 020527   200075 756100                    STQ     INST_WORD,,AUTO
        44 020530   021160 710000 44                 TRA     s:19763

     3050    19695    4                  CASE(%LDQ_OP);

     3051    19696    4                    INST_WORD.LOW.OP_CODE = %LCQ_OP;

  19696 44 020531   336000 236007                    LDQ     113664,DL
        44 020532   200075 552110                    STBQ    INST_WORD,'10'O,AUTO

     3052    19697    4                    INST_WORD.SA = - (ST$$ -> CONST.CONSTS.LOWER);

  19697 44 020533   000010 723100                    LXL3    8,,PR0
        44 020534   777777 623013                    EAX3    -1,X3
        44 020535   777777 663003                    ERX3    -1,DU
        44 020536   200075 743100                    STX3    INST_WORD,,AUTO
PL6.E3A0      #001=Z8HI$BURST File=Z8HI.:Z8A6TSI                                 SAT 08/09/97 13:19 Page:529

     3053    19698    4                    INST_WORD.LOW.MF.TAG = %DL;

  19698 44 020537   200075 236100                    LDQ     INST_WORD,,AUTO
        44 020540   000025 376000 45                 ANQ     21
        44 020541   000007 276007                    ORQ     7,DL
        44 020542   200075 756100                    STQ     INST_WORD,,AUTO
        44 020543   021160 710000 44                 TRA     s:19763

     3054    19699    4                  CASE(ELSE);

     3055    19700    5                    DO CASE(INST_WORD.LOW.CODE.OP);

  19700 44 020544   200075 236100                    LDQ     INST_WORD,,AUTO
        44 020545   000014 772000                    QRL     12
        44 020546   000077 376007                    ANQ     63,DL
        44 020547   000073 116007                    CMPQ    59,DL
        44 020550   020552 602006 44                 TNC     s:19700+6,QL
        44 020551   021160 710000 44                 TRA     s:19763
        44 020552   020662 710000 44                 TRA     s:19711
        44 020553   020662 710000 44                 TRA     s:19711
        44 020554   020654 710000 44                 TRA     s:19709
        44 020555   020662 710000 44                 TRA     s:19711
        44 020556   020654 710000 44                 TRA     s:19709
        44 020557   020662 710000 44                 TRA     s:19711
        44 020560   020654 710000 44                 TRA     s:19709
        44 020561   020662 710000 44                 TRA     s:19711
        44 020562   020654 710000 44                 TRA     s:19709
        44 020563   020662 710000 44                 TRA     s:19711
        44 020564   020654 710000 44                 TRA     s:19709
        44 020565   020662 710000 44                 TRA     s:19711
        44 020566   020654 710000 44                 TRA     s:19709
        44 020567   020662 710000 44                 TRA     s:19711
        44 020570   020654 710000 44                 TRA     s:19709
        44 020571   020662 710000 44                 TRA     s:19711
        44 020572   020654 710000 44                 TRA     s:19709
        44 020573   020662 710000 44                 TRA     s:19711
PL6.E3A0      #001=Z8HI$BURST File=Z8HI.:Z8A6TSI                                 SAT 08/09/97 13:19 Page:530
        44 020574   020654 710000 44                 TRA     s:19709
        44 020575   020662 710000 44                 TRA     s:19711
        44 020576   020654 710000 44                 TRA     s:19709
        44 020577   020662 710000 44                 TRA     s:19711
        44 020600   020654 710000 44                 TRA     s:19709
        44 020601   020662 710000 44                 TRA     s:19711
        44 020602   020654 710000 44                 TRA     s:19709
        44 020603   020662 710000 44                 TRA     s:19711
        44 020604   020654 710000 44                 TRA     s:19709
        44 020605   020662 710000 44                 TRA     s:19711
        44 020606   020654 710000 44                 TRA     s:19709
        44 020607   020662 710000 44                 TRA     s:19711
        44 020610   020654 710000 44                 TRA     s:19709
        44 020611   020662 710000 44                 TRA     s:19711
        44 020612   020662 710000 44                 TRA     s:19711
        44 020613   020662 710000 44                 TRA     s:19711
        44 020614   020662 710000 44                 TRA     s:19711
        44 020615   020662 710000 44                 TRA     s:19711
        44 020616   020662 710000 44                 TRA     s:19711
        44 020617   020662 710000 44                 TRA     s:19711
        44 020620   020662 710000 44                 TRA     s:19711
        44 020621   020662 710000 44                 TRA     s:19711
        44 020622   020662 710000 44                 TRA     s:19711
        44 020623   020662 710000 44                 TRA     s:19711
        44 020624   020662 710000 44                 TRA     s:19711
        44 020625   020662 710000 44                 TRA     s:19711
        44 020626   020662 710000 44                 TRA     s:19711
        44 020627   020662 710000 44                 TRA     s:19711
        44 020630   020662 710000 44                 TRA     s:19711
        44 020631   020662 710000 44                 TRA     s:19711
        44 020632   020662 710000 44                 TRA     s:19711
        44 020633   020662 710000 44                 TRA     s:19711
        44 020634   020662 710000 44                 TRA     s:19711
        44 020635   020662 710000 44                 TRA     s:19711
        44 020636   020654 710000 44                 TRA     s:19709
        44 020637   020662 710000 44                 TRA     s:19711
        44 020640   020654 710000 44                 TRA     s:19709
PL6.E3A0      #001=Z8HI$BURST File=Z8HI.:Z8A6TSI                                 SAT 08/09/97 13:19 Page:531
        44 020641   020662 710000 44                 TRA     s:19711
        44 020642   020662 710000 44                 TRA     s:19711
        44 020643   020662 710000 44                 TRA     s:19711
        44 020644   020645 710000 44                 TRA     s:19702

     3056    19701    5                      CASE(%LXL_OP);

     3057    19702    5                        CALL APPLY_TAG(%LOWER, %DL);

  19702 44 020645   000046 236000 45                 LDQ     38
        44 020646   200256 756100                    STQ     @FROM+1,,AUTO
        44 020647   000017 236000 45                 LDQ     15
        44 020650   200255 756100                    STQ     STB_FLAG+7,,AUTO
        44 020651   021162 701000 44                 TSX1    APPLY_TAG
        44 020652   000000 011000                    NOP     0
        44 020653   021160 710000 44                 TRA     s:19763

     3058    19703    5                      CASE(%ADLX_OP, %ASX_OP , %ADX_OP ,

     3059    19704    5                           %CMPX_OP, %SBLX_OP, %SSX_OP ,
     3060    19705    5                           %SBX_OP , %CNAX_OP, %LDX_OP ,
     3061    19706    5                           %ORSX_OP, %ORX_OP , %CANX_OP,
     3062    19707    5                           %LCX_OP , %ANSX_OP, %ANX_OP ,
     3063    19708    5                           %ERSX_OP, %ERX_OP );
     3064    19709    5                         CALL APPLY_TAG(%LOWER, %DU);

  19709 44 020654   000101 236000 45                 LDQ     65
        44 020655   200256 756100                    STQ     @FROM+1,,AUTO
        44 020656   000017 236000 45                 LDQ     15
        44 020657   200255 756100                    STQ     STB_FLAG+7,,AUTO
        44 020660   021162 701000 44                 TSX1    APPLY_TAG
        44 020661   000000 011000                    NOP     0

     3065    19710    5                    END /* Case */;

     3066    19711    4                END /* Case */;

PL6.E3A0      #001=Z8HI$BURST File=Z8HI.:Z8A6TSI                                 SAT 08/09/97 13:19 Page:532
  19711 44 020662   021160 710000 44                 TRA     s:19763

     3067    19712    3              ELSE
     3068    19713    3                IF ST$$ -> CONST.CONSTU.UPPER = 0 THEN

  19713 44 020663   000000 102003                    CMPX2   0,DU
        44 020664   021013 601000 44                 TNZ     s:19728

     3069    19714    4                  DO CASE(INST_WORD.LOW.CODE.OP);

  19714 44 020665   200075 236100                    LDQ     INST_WORD,,AUTO
        44 020666   000014 772000                    QRL     12
        44 020667   000077 376007                    ANQ     63,DL
        44 020670   000073 116007                    CMPQ    59,DL
        44 020671   020673 602006 44                 TNC     s:19714+6,QL
        44 020672   021004 710000 44                 TRA     s:19725
        44 020673   021004 710000 44                 TRA     s:19725
        44 020674   021004 710000 44                 TRA     s:19725
        44 020675   020775 710000 44                 TRA     s:19723
        44 020676   021004 710000 44                 TRA     s:19725
        44 020677   020775 710000 44                 TRA     s:19723
        44 020700   021004 710000 44                 TRA     s:19725
        44 020701   020775 710000 44                 TRA     s:19723
        44 020702   021004 710000 44                 TRA     s:19725
        44 020703   020775 710000 44                 TRA     s:19723
        44 020704   021004 710000 44                 TRA     s:19725
        44 020705   020775 710000 44                 TRA     s:19723
        44 020706   021004 710000 44                 TRA     s:19725
        44 020707   020775 710000 44                 TRA     s:19723
        44 020710   021004 710000 44                 TRA     s:19725
        44 020711   020775 710000 44                 TRA     s:19723
        44 020712   021004 710000 44                 TRA     s:19725
        44 020713   020775 710000 44                 TRA     s:19723
        44 020714   021004 710000 44                 TRA     s:19725
        44 020715   020775 710000 44                 TRA     s:19723
        44 020716   021004 710000 44                 TRA     s:19725
        44 020717   020775 710000 44                 TRA     s:19723
PL6.E3A0      #001=Z8HI$BURST File=Z8HI.:Z8A6TSI                                 SAT 08/09/97 13:19 Page:533
        44 020720   021004 710000 44                 TRA     s:19725
        44 020721   020775 710000 44                 TRA     s:19723
        44 020722   021004 710000 44                 TRA     s:19725
        44 020723   020775 710000 44                 TRA     s:19723
        44 020724   021004 710000 44                 TRA     s:19725
        44 020725   020775 710000 44                 TRA     s:19723
        44 020726   021004 710000 44                 TRA     s:19725
        44 020727   020775 710000 44                 TRA     s:19723
        44 020730   021004 710000 44                 TRA     s:19725
        44 020731   020775 710000 44                 TRA     s:19723
        44 020732   021004 710000 44                 TRA     s:19725
        44 020733   021004 710000 44                 TRA     s:19725
        44 020734   021004 710000 44                 TRA     s:19725
        44 020735   021004 710000 44                 TRA     s:19725
        44 020736   021004 710000 44                 TRA     s:19725
        44 020737   021004 710000 44                 TRA     s:19725
        44 020740   021004 710000 44                 TRA     s:19725
        44 020741   021004 710000 44                 TRA     s:19725
        44 020742   021004 710000 44                 TRA     s:19725
        44 020743   021004 710000 44                 TRA     s:19725
        44 020744   021004 710000 44                 TRA     s:19725
        44 020745   021004 710000 44                 TRA     s:19725
        44 020746   021004 710000 44                 TRA     s:19725
        44 020747   021004 710000 44                 TRA     s:19725
        44 020750   021004 710000 44                 TRA     s:19725
        44 020751   021004 710000 44                 TRA     s:19725
        44 020752   021004 710000 44                 TRA     s:19725
        44 020753   021004 710000 44                 TRA     s:19725
        44 020754   021004 710000 44                 TRA     s:19725
        44 020755   021004 710000 44                 TRA     s:19725
        44 020756   021004 710000 44                 TRA     s:19725
        44 020757   020775 710000 44                 TRA     s:19723
        44 020760   021004 710000 44                 TRA     s:19725
        44 020761   020775 710000 44                 TRA     s:19723
        44 020762   021004 710000 44                 TRA     s:19725
        44 020763   021004 710000 44                 TRA     s:19725
        44 020764   021004 710000 44                 TRA     s:19725
PL6.E3A0      #001=Z8HI$BURST File=Z8HI.:Z8A6TSI                                 SAT 08/09/97 13:19 Page:534
        44 020765   020766 710000 44                 TRA     s:19716

     3070    19715    4                    CASE(%LXL_OP);

     3071    19716    4                      CALL APPLY_TAG(%LOWER, %DL);

  19716 44 020766   000046 236000 45                 LDQ     38
        44 020767   200256 756100                    STQ     @FROM+1,,AUTO
        44 020770   000017 236000 45                 LDQ     15
        44 020771   200255 756100                    STQ     STB_FLAG+7,,AUTO
        44 020772   021162 701000 44                 TSX1    APPLY_TAG
        44 020773   000000 011000                    NOP     0
        44 020774   021160 710000 44                 TRA     s:19763

     3072    19717    4                    CASE(%ADLX_OP, %ASX_OP , %ADX_OP ,

     3073    19718    4                         %CMPX_OP, %SBLX_OP, %SSX_OP ,
     3074    19719    4                         %SBX_OP , %CNAX_OP, %LDX_OP ,
     3075    19720    4                         %ORSX_OP, %ORX_OP , %CANX_OP,
     3076    19721    4                         %LCX_OP , %ANSX_OP, %ANX_OP ,
     3077    19722    4                         %ERSX_OP, %ERX_OP );
     3078    19723    4                      CALL APPLY_TAG(%LOWER, %DU);

  19723 44 020775   000101 236000 45                 LDQ     65
        44 020776   200256 756100                    STQ     @FROM+1,,AUTO
        44 020777   000017 236000 45                 LDQ     15
        44 021000   200255 756100                    STQ     STB_FLAG+7,,AUTO
        44 021001   021162 701000 44                 TSX1    APPLY_TAG
        44 021002   000000 011000                    NOP     0
        44 021003   021160 710000 44                 TRA     s:19763

     3079    19724    4                    CASE(ELSE);

     3080    19725    4                      CALL APPLY_TAG(%LOWER, %DL);

  19725 44 021004   000046 236000 45                 LDQ     38
        44 021005   200256 756100                    STQ     @FROM+1,,AUTO
PL6.E3A0      #001=Z8HI$BURST File=Z8HI.:Z8A6TSI                                 SAT 08/09/97 13:19 Page:535
        44 021006   000017 236000 45                 LDQ     15
        44 021007   200255 756100                    STQ     STB_FLAG+7,,AUTO
        44 021010   021162 701000 44                 TSX1    APPLY_TAG
        44 021011   000000 011000                    NOP     0

     3081    19726    4                  END /* Case */;

  19726 44 021012   021160 710000 44                 TRA     s:19763

     3082    19727    3                ELSE
     3083    19728    3                  IF ST$$ -> CONST.CONSTU.LOWER = 0 THEN

  19728 44 021013   000010 723100                    LXL3    8,,PR0
        44 021014   021160 601000 44                 TNZ     s:19763

     3084    19729    3                    CALL APPLY_TAG(%UPPER, %DU);

  19729 44 021015   000101 236000 45                 LDQ     65
        44 021016   200256 756100                    STQ     @FROM+1,,AUTO
        44 021017   000005 236000 45                 LDQ     5
        44 021020   200255 756100                    STQ     STB_FLAG+7,,AUTO
        44 021021   021162 701000 44                 TSX1    APPLY_TAG
        44 021022   000000 011000                    NOP     0
        44 021023   021160 710000 44                 TRA     s:19763

     3085    19730
     3086    19731    3            CASE(%TYA);

     3087    19732    3              IF INST_WORD.LOW.EIS THEN

  19732 44 021024   200075 236100                    LDQ     INST_WORD,,AUTO
        44 021025   000400 316007                    CANQ    256,DL
        44 021026   021076 600000 44                 TZE     s:19747

     3088    19733    4                DO;

     3089    19734    4                  IF DEFER_BUFFER_IDX = 2 THEN   /* Only MF2 can have DU */
PL6.E3A0      #001=Z8HI$BURST File=Z8HI.:Z8A6TSI                                 SAT 08/09/97 13:19 Page:536

  19734 44 021027   200122 235100                    LDA     DEFER_BUFFER_IDX,,AUTO
        44 021030   000002 115007                    CMPA    2,DL
        44 021031   021160 601000 44                 TNZ     s:19763

     3090    19735    5                    DO CASE(INST_WORD.LOW.OP_CODE);

  19735 44 021032   200075 236100                    LDQ     INST_WORD,,AUTO
        44 021033   000011 772000                    QRL     9
        44 021034   000777 376007                    ANQ     511,DL
        44 021035   000120 136007                    SBLQ    80,DL
        44 021036   000005 116007                    CMPQ    5,DL
        44 021037   021041 602006 44                 TNC     s:19735+7,QL
        44 021040   021160 710000 44                 TRA     s:19763
        44 021041   021062 710000 44                 TRA     s:19741
        44 021042   021075 710000 44                 TRA     s:19745
        44 021043   021075 710000 44                 TRA     s:19745
        44 021044   021075 710000 44                 TRA     s:19745
        44 021045   021046 710000 44                 TRA     s:19737

     3091    19736    5                      CASE(%SCM_OP);

     3092    19737    5                        IF REF$ -> REF.ADSC.N = 1 THEN

  19737 44 021046   200231 471500                    LDP1    REF$,,AUTO
        44 021047   100001 236100                    LDQ     1,,PR1
        44 021050   007777 376007                    ANQ     4095,DL
        44 021051   000001 116007                    CMPQ    1,DL
        44 021052   021160 601000 44                 TNZ     s:19763

     3093    19738    5                          CALL APPLY_TAG(%UPPER, %DU);

  19738 44 021053   000101 236000 45                 LDQ     65
        44 021054   200256 756100                    STQ     @FROM+1,,AUTO
        44 021055   000005 236000 45                 LDQ     5
        44 021056   200255 756100                    STQ     STB_FLAG+7,,AUTO
        44 021057   021162 701000 44                 TSX1    APPLY_TAG
PL6.E3A0      #001=Z8HI$BURST File=Z8HI.:Z8A6TSI                                 SAT 08/09/97 13:19 Page:537
        44 021060   000000 011000                    NOP     0
        44 021061   021160 710000 44                 TRA     s:19763

     3094    19739
     3095    19740    5                      CASE(%SCD_OP);

     3096    19741    5                        IF REF$ -> REF.ADSC.N = 2 THEN

  19741 44 021062   200231 471500                    LDP1    REF$,,AUTO
        44 021063   100001 236100                    LDQ     1,,PR1
        44 021064   007777 376007                    ANQ     4095,DL
        44 021065   000002 116007                    CMPQ    2,DL
        44 021066   021160 601000 44                 TNZ     s:19763

     3097    19742    5                          CALL APPLY_TAG(%UPPER, %DU);

  19742 44 021067   000101 236000 45                 LDQ     65
        44 021070   200256 756100                    STQ     @FROM+1,,AUTO
        44 021071   000005 236000 45                 LDQ     5
        44 021072   200255 756100                    STQ     STB_FLAG+7,,AUTO
        44 021073   021162 701000 44                 TSX1    APPLY_TAG
        44 021074   000000 011000                    NOP     0

     3098    19743
     3099    19744    5                    END /* Case */;

     3100    19745    4                END;

  19745 44 021075   021160 710000 44                 TRA     s:19763

     3101    19746    3              ELSE
     3102    19747    3                IF REF$ -> REF.ADSC.N < 3

  19747 44 021076   200231 471500                    LDP1    REF$,,AUTO
        44 021077   100001 236100                    LDQ     1,,PR1
        44 021100   007777 376007                    ANQ     4095,DL
        44 021101   000003 116007                    CMPQ    3,DL
PL6.E3A0      #001=Z8HI$BURST File=Z8HI.:Z8A6TSI                                 SAT 08/09/97 13:19 Page:538
        44 021102   021160 603000 44                 TRC     s:19763
        44 021103   000003 234100                    SZN     3,,PR0
        44 021104   021160 604000 44                 TMI     s:19763

     3103    19748    3                  AND NOT ST$$ -> CONST.B.LONG_CONSTANT THEN
     3104    19749    3                  IF REF$ -> REF.ADSC.CN = 0 OR

  19749 44 021105   100001 236100                    LDQ     1,,PR1
        44 021106   600000 316007                    CANQ    -65536,DL
        44 021107   021120 600000 44                 TZE     s:19751
        44 021110   100001 236100                    LDQ     1,,PR1
        44 021111   600000 376007                    ANQ     -65536,DL
        44 021112   200000 116007                    CMPQ    65536,DL
        44 021113   021127 601000 44                 TNZ     s:19753
        44 021114   100001 236100                    LDQ     1,,PR1
        44 021115   007777 376007                    ANQ     4095,DL
        44 021116   000001 116007                    CMPQ    1,DL
        44 021117   021127 601000 44                 TNZ     s:19753

     3105    19750    3                     (REF$ -> REF.ADSC.CN = 1 AND REF$ -> REF.ADSC.N = 1) THEN
     3106    19751    3                    CALL APPLY_TAG(%UPPER, %DU);

  19751 44 021120   000101 236000 45                 LDQ     65
        44 021121   200256 756100                    STQ     @FROM+1,,AUTO
        44 021122   000005 236000 45                 LDQ     5
        44 021123   200255 756100                    STQ     STB_FLAG+7,,AUTO
        44 021124   021162 701000 44                 TSX1    APPLY_TAG
        44 021125   000000 011000                    NOP     0
        44 021126   021160 710000 44                 TRA     s:19763

     3107    19752    3                  ELSE
     3108    19753    3                    IF REF$ -> REF.ADSC.CN = 2 OR

  19753 44 021127   100001 236100                    LDQ     1,,PR1
        44 021130   600000 376007                    ANQ     -65536,DL
        44 021131   400000 116007                    CMPQ    -131072,DL
        44 021132   021141 600000 44                 TZE     s:19755
PL6.E3A0      #001=Z8HI$BURST File=Z8HI.:Z8A6TSI                                 SAT 08/09/97 13:19 Page:539
        44 021133   600000 116007                    CMPQ    -65536,DL
        44 021134   021160 601000 44                 TNZ     s:19763
        44 021135   100001 236100                    LDQ     1,,PR1
        44 021136   007777 376007                    ANQ     4095,DL
        44 021137   000001 116007                    CMPQ    1,DL
        44 021140   021160 601000 44                 TNZ     s:19763

     3109    19754    3                       (REF$ -> REF.ADSC.CN = 3 AND REF$ -> REF.ADSC.N = 1) THEN
     3110    19755    3                      CALL APPLY_TAG(%LOWER, %DL);

  19755 44 021141   000046 236000 45                 LDQ     38
        44 021142   200256 756100                    STQ     @FROM+1,,AUTO
        44 021143   000017 236000 45                 LDQ     15
        44 021144   200255 756100                    STQ     STB_FLAG+7,,AUTO
        44 021145   021162 701000 44                 TSX1    APPLY_TAG
        44 021146   000000 011000                    NOP     0
        44 021147   021160 710000 44                 TRA     s:19763

     3111    19756
     3112    19757    3            CASE(%TYR);

     3113    19758    3              IF ST$$ -> CONST.CONSTU.LOWER = 0 THEN

  19758 44 021150   000010 722100                    LXL2    8,,PR0
        44 021151   021160 601000 44                 TNZ     s:19763

     3114    19759    3                CALL APPLY_TAG(%UPPER, %DU);

  19759 44 021152   000101 236000 45                 LDQ     65
        44 021153   200256 756100                    STQ     @FROM+1,,AUTO
        44 021154   000005 236000 45                 LDQ     5
        44 021155   200255 756100                    STQ     STB_FLAG+7,,AUTO
        44 021156   021162 701000 44                 TSX1    APPLY_TAG
        44 021157   000000 011000                    NOP     0

     3115    19760
     3116    19761    3          END /* Case */;
PL6.E3A0      #001=Z8HI$BURST File=Z8HI.:Z8A6TSI                                 SAT 08/09/97 13:19 Page:540

     3117    19762
     3118    19763    2        RETURN;

  19763 44 021160   200252 221300                    LDX1  ! STB_FLAG+4,,AUTO
        44 021161   000001 702211                    TSX2  ! 1,X1

     3119    19764
     3120    19765    2   APPLY_TAG:PROC(FROM,TAG);

  19765 44 021162   200254 741300       APPLY_TAG    STX1  ! STB_FLAG+6,,AUTO

     3121    19766
     3122    19767    3        DCL FROM UBIN WORD;
     3123    19768    3        DCL TAG  UBIN WORD;
     3124    19769
     3125    19770    3        INST_WORD.LOW.MF.TAG = TAG;

  19770 44 021163   200256 470500                    LDP0    @TAG,,AUTO
        44 021164   000000 236100                    LDQ     0,,PR0
        44 021165   200075 676100                    ERQ     INST_WORD,,AUTO
        44 021166   000017 376007                    ANQ     15,DL
        44 021167   200075 656100                    ERSQ    INST_WORD,,AUTO

     3126    19771
     3127    19772    4        DO CASE(FROM);

  19772 44 021170   200255 471500                    LDP1    @FROM,,AUTO
        44 021171   100000 235100                    LDA     0,,PR1
        44 021172   000002 115007                    CMPA    2,DL
        44 021173   021175 602005 44                 TNC     s:19772+5,AL
        44 021174   021206 710000 44                 TRA     s:19779
        44 021175   021177 710000 44                 TRA     s:19774
        44 021176   021203 710000 44                 TRA     s:19776

     3128    19773    4          CASE(%UPPER);

PL6.E3A0      #001=Z8HI$BURST File=Z8HI.:Z8A6TSI                                 SAT 08/09/97 13:19 Page:541
     3129    19774    4            INST_WORD.SA = ST$$ -> CONST.CONSTU.UPPER;

  19774 44 021177   200233 473500                    LDP3    ST$$,,AUTO
        44 021200   300010 220100                    LDX0    8,,PR3
        44 021201   200075 740100                    STX0    INST_WORD,,AUTO
        44 021202   021206 710000 44                 TRA     s:19779

     3130    19775    4          CASE(%LOWER);

     3131    19776    4            INST_WORD.SA = ST$$ -> CONST.CONSTU.LOWER;

  19776 44 021203   200233 473500                    LDP3    ST$$,,AUTO
        44 021204   300010 720100                    LXL0    8,,PR3
        44 021205   200075 740100                    STX0    INST_WORD,,AUTO

     3132    19777    4        END /* Case */;

     3133    19778
     3134    19779    3   END APPLY_TAG;

  19779 44 021206   000001 702211                    TSX2  ! 1,X1
     3135    19780    2   END IMMEDIATE;
     3136    19781    1   END Z8HI$BURST;

PL6.E3A0      #001=Z8HI$BURST File=Z8HI.:Z8A6TSI                                 SAT 08/09/97 13:19 Page:542
--  Include file information  --

   Z8H_OPCODES.:Z8A6TOU  is referenced.
   Z8A_ERR_NUMS.:Z8A6TOU  is referenced.
   Z8A_DNT.:Z8A6TOU  cannot be made into a system file and is referenced.
   Z8A_LTS.:Z8A6TOU  cannot be made into a system file and is referenced.
   Z8A_OBJ.:Z8A6TOU  cannot be made into a system file and is referenced.
   Z8A_ST.:Z8A6TOU  cannot be made into a system file and is referenced.
   Z8A_TYPES.:Z8A6TOU  is referenced.
   Z8A_ILL.:Z8A6TOU  cannot be made into a system file and is referenced.
   Z8A_ETT.:Z8A6TOU  cannot be made into a system file and is referenced.
   Z8A_DESC.:Z8A6TOU  cannot be made into a system file and is referenced.
   Z8H_PASSES.:Z8A6TOU  is referenced.
   Z8H_DEP.:Z8A6TOU  cannot be made into a system file and is referenced.
   Z8H_EXT.:Z8A6TOU  cannot be made into a system file and is referenced.
   Z8A_COMCOM.:Z8A6TOU  cannot be made into a system file and is referenced.
   Z8A_LIBRARY.:Z8A6TOU  cannot be made into a system file and is referenced.
   Z8H_MOAS.:Z8A6TOU  is referenced.
   Z9A_SUPP_MAC.:Z8A6TOU  is referenced.
   Z8H_SUPPORT.:Z8A6TOU  is referenced.
   Z9A_FLAGS.:Z8A6TOU  is referenced.
   X8A_COM_MACS.:X8A6TOU  is referenced.
   Z8A_NAMES.:Z8A6TOU  is referenced.
   Z8A_SUPP_MAC.:Z8A6TOU  is referenced.
   Z8H_CODE.:Z8A6TOU  cannot be made into a system file and is referenced.
   Z8H_TEMP.:Z8A6TOU  is referenced.
   Z8H_PCOM.:Z8A6TOU  cannot be made into a system file and is referenced.
   Z8H_RAT.:Z8A6TOU  cannot be made into a system file and is referenced.
   Z8H_DIRECT.:Z8A6TOU  is referenced.
   Z8A_DEFC.:Z8A6TOU  cannot be made into a system file and is referenced.
      No diagnostics issued in procedure Z8HI$BURST.
PL6.E3A0      #001=Z8HI$BURST File=Z8HI.:Z8A6TSI                                 SAT 08/09/97 13:19 Page:543

 **** Variables and constants ****

  ****  Section 000 LblCom ITERATION

  ****  Scalars and arrays  ****
OctLoc.c.b A Datatyp(siz) R M Lvl/name                 OctLoc.c.b A Datatyp(siz) R M Lvl/name

     0-0-0/w SBIN        r     1 ITERATION

  ****  Section 001 LblCom RAT

  ****  Scalars and arrays  ****
OctLoc.c.b A Datatyp(siz) R M Lvl/name                 OctLoc.c.b A Datatyp(siz) R M Lvl/name

     0-0-0/w STRC(144)   r     1 RAT(0:27)

  ****  Section 002 LblCom SUPP_DATA

  ****  Scalars and arrays  ****
OctLoc.c.b A Datatyp(siz) R M Lvl/name                 OctLoc.c.b A Datatyp(siz) R M Lvl/name

     0-0-0/c STRC        r     1 SUPP_DATA

  ****  Section 003  Data  Z8HI$BURST

  ****  Scalars and arrays  ****
OctLoc.c.b A Datatyp(siz) R M Lvl/name                 OctLoc.c.b A Datatyp(siz) R M Lvl/name

  2732-0-0/w SBIN              1 CONST_VALUES(0:1)
     4-0-0/w SBIN        r     1 HI                      2735-0-0/w STRC        r     1 KANJI
     5-0-0/w PTR         r     1 LIBRARY(0:1491)            3-0-0/w SBIN        r     1 LO
     1-0-0/w UBIN        r     1 LOP_STATE
  2734-0-0/b BIT         r     1 MATERIALIZED_CONSTANT
     0-0-0/b STRC        r     1 MOD_KEY                    2-0-0/w UBIN        r     1 ROP_STATE
  2731-0-0/w UBIN        r     1 STATE                   2763-0-0/w SBIN        r     1 SUB_IDX
  2736-0-0/w PTR         r     1 SUB_STACK(0:20)

PL6.E3A0      #001=Z8HI$BURST File=Z8HI.:Z8A6TSI                                 SAT 08/09/97 13:19 Page:544
  ****  Section 004 LblCom CURRENT_BLOCK$

  ****  Scalars and arrays  ****
OctLoc.c.b A Datatyp(siz) R M Lvl/name                 OctLoc.c.b A Datatyp(siz) R M Lvl/name

     0-0-0/w PTR         r     1 CURRENT_BLOCK$

  ****  Section 005 LblCom ROOT_PROC_BLOCK$

  ****  Scalars and arrays  ****
OctLoc.c.b A Datatyp(siz) R M Lvl/name                 OctLoc.c.b A Datatyp(siz) R M Lvl/name

     0-0-0/w PTR               1 ROOT_PROC_BLOCK$

  ****  Section 006 LblCom NUMBER_OF_PRIMES

  ****  Scalars and arrays  ****
OctLoc.c.b A Datatyp(siz) R M Lvl/name                 OctLoc.c.b A Datatyp(siz) R M Lvl/name

     0-0-0/w SBIN              1 NUMBER_OF_PRIMES

  ****  Section 007 LblCom NUMBER_OF_TEMPS

  ****  Scalars and arrays  ****
OctLoc.c.b A Datatyp(siz) R M Lvl/name                 OctLoc.c.b A Datatyp(siz) R M Lvl/name

     0-0-0/w SBIN              1 NUMBER_OF_TEMPS

  ****  Section 008 LblCom NUMBER_OF_REFS

  ****  Scalars and arrays  ****
OctLoc.c.b A Datatyp(siz) R M Lvl/name                 OctLoc.c.b A Datatyp(siz) R M Lvl/name

     0-0-0/w SBIN        r     1 NUMBER_OF_REFS

  ****  Section 009 LblCom GENERATING_PTRS

PL6.E3A0      #001=Z8HI$BURST File=Z8HI.:Z8A6TSI                                 SAT 08/09/97 13:19 Page:545
  ****  Scalars and arrays  ****
OctLoc.c.b A Datatyp(siz) R M Lvl/name                 OctLoc.c.b A Datatyp(siz) R M Lvl/name

     0-0-0/b BIT         r     1 GENERATING_PTRS

  ****  Section 010 LblCom USE_PROC_RETURN

  ****  Scalars and arrays  ****
OctLoc.c.b A Datatyp(siz) R M Lvl/name                 OctLoc.c.b A Datatyp(siz) R M Lvl/name

     0-0-0/w PTR               1 USE_PROC_RETURN

  ****  Section 011 LblCom CURRENT_SCOPE$

  ****  Scalars and arrays  ****
OctLoc.c.b A Datatyp(siz) R M Lvl/name                 OctLoc.c.b A Datatyp(siz) R M Lvl/name

     0-0-0/w PTR               1 CURRENT_SCOPE$

  ****  Section 012 LblCom HEAD_REF$

  ****  Scalars and arrays  ****
OctLoc.c.b A Datatyp(siz) R M Lvl/name                 OctLoc.c.b A Datatyp(siz) R M Lvl/name

     0-0-0/w PTR         r     1 HEAD_REF$

  ****  Section 013 LblCom HEAD_TEMP$

  ****  Scalars and arrays  ****
OctLoc.c.b A Datatyp(siz) R M Lvl/name                 OctLoc.c.b A Datatyp(siz) R M Lvl/name

     0-0-0/w PTR               1 HEAD_TEMP$

  ****  Section 014 LblCom CONST$

  ****  Scalars and arrays  ****
OctLoc.c.b A Datatyp(siz) R M Lvl/name                 OctLoc.c.b A Datatyp(siz) R M Lvl/name
PL6.E3A0      #001=Z8HI$BURST File=Z8HI.:Z8A6TSI                                 SAT 08/09/97 13:19 Page:546

     0-0-0/w PTR         r     1 CONST$

  ****  Section 015 LblCom HEAD_PRIMES$

  ****  Scalars and arrays  ****
OctLoc.c.b A Datatyp(siz) R M Lvl/name                 OctLoc.c.b A Datatyp(siz) R M Lvl/name

     0-0-0/w PTR               1 HEAD_PRIMES$

  ****  Section 016 LblCom CUR_LOOP_LEVEL

  ****  Scalars and arrays  ****
OctLoc.c.b A Datatyp(siz) R M Lvl/name                 OctLoc.c.b A Datatyp(siz) R M Lvl/name

     0-0-0/w SBIN              1 CUR_LOOP_LEVEL

  ****  Section 017 LblCom PEPD

  ****  Scalars and arrays  ****
OctLoc.c.b A Datatyp(siz) R M Lvl/name                 OctLoc.c.b A Datatyp(siz) R M Lvl/name

     0-0-0/w STRC              1 PEPD(0:1)

  ****  Section 018 LblCom DEP

  ****  Scalars and arrays  ****
OctLoc.c.b A Datatyp(siz) R M Lvl/name                 OctLoc.c.b A Datatyp(siz) R M Lvl/name

     0-0-0/b STRC(1728)  r     1 DEP

  ****  Section 019 LblCom ETT$

  ****  Scalars and arrays  ****
OctLoc.c.b A Datatyp(siz) R M Lvl/name                 OctLoc.c.b A Datatyp(siz) R M Lvl/name

     0-0-0/w PTR         r     1 ETT$
PL6.E3A0      #001=Z8HI$BURST File=Z8HI.:Z8A6TSI                                 SAT 08/09/97 13:19 Page:547

  ****  Section 020 LblCom HEAD_ETT$

  ****  Scalars and arrays  ****
OctLoc.c.b A Datatyp(siz) R M Lvl/name                 OctLoc.c.b A Datatyp(siz) R M Lvl/name

     0-0-0/w PTR         r     1 HEAD_ETT$

  ****  Section 021 LblCom ETT_BUCKETS

  ****  Scalars and arrays  ****
OctLoc.c.b A Datatyp(siz) R M Lvl/name                 OctLoc.c.b A Datatyp(siz) R M Lvl/name

     0-0-0/w PTR               1 ETT_BUCKETS(0:511)

  ****  Section 022 LblCom ETT_

  ****  Scalars and arrays  ****
OctLoc.c.b A Datatyp(siz) R M Lvl/name                 OctLoc.c.b A Datatyp(siz) R M Lvl/name

     0-0-0/w STRC(180)   r     1 ETT_

  ****  Section 023 LblCom ILL$

  ****  Scalars and arrays  ****
OctLoc.c.b A Datatyp(siz) R M Lvl/name                 OctLoc.c.b A Datatyp(siz) R M Lvl/name

     0-0-0/w PTR         r     1 ILL$

  ****  Section 024 LblCom ILL_

  ****  Scalars and arrays  ****
OctLoc.c.b A Datatyp(siz) R M Lvl/name                 OctLoc.c.b A Datatyp(siz) R M Lvl/name

     0-0-0/w STRC(180)         1 ILL_

  ****  Section 025 LblCom ST$
PL6.E3A0      #001=Z8HI$BURST File=Z8HI.:Z8A6TSI                                 SAT 08/09/97 13:19 Page:548

  ****  Scalars and arrays  ****
OctLoc.c.b A Datatyp(siz) R M Lvl/name                 OctLoc.c.b A Datatyp(siz) R M Lvl/name

     0-0-0/w PTR         r     1 ST$

  ****  Section 026 LblCom ST_

  ****  Scalars and arrays  ****
OctLoc.c.b A Datatyp(siz) R M Lvl/name                 OctLoc.c.b A Datatyp(siz) R M Lvl/name

     0-0-0/w STRC(180)   r     1 ST_

  ****  Section 027 LblCom OBJ$

  ****  Scalars and arrays  ****
OctLoc.c.b A Datatyp(siz) R M Lvl/name                 OctLoc.c.b A Datatyp(siz) R M Lvl/name

     0-0-0/w PTR         r     1 OBJ$

  ****  Section 028 LblCom PAGING_OBJ

  ****  Scalars and arrays  ****
OctLoc.c.b A Datatyp(siz) R M Lvl/name                 OctLoc.c.b A Datatyp(siz) R M Lvl/name

     0-0-0/w BIT         r     1 PAGING_OBJ

  ****  Section 029 LblCom OBJ_PAGE_COUNT

  ****  Scalars and arrays  ****
OctLoc.c.b A Datatyp(siz) R M Lvl/name                 OctLoc.c.b A Datatyp(siz) R M Lvl/name

     0-0-0/w SBIN              1 OBJ_PAGE_COUNT

  ****  Section 030 LblCom OBJ_FINISHED

  ****  Scalars and arrays  ****
PL6.E3A0      #001=Z8HI$BURST File=Z8HI.:Z8A6TSI                                 SAT 08/09/97 13:19 Page:549
OctLoc.c.b A Datatyp(siz) R M Lvl/name                 OctLoc.c.b A Datatyp(siz) R M Lvl/name

     0-0-0/w BIT               1 OBJ_FINISHED

  ****  Section 031 LblCom OBJ_SEG_SIZE

  ****  Scalars and arrays  ****
OctLoc.c.b A Datatyp(siz) R M Lvl/name                 OctLoc.c.b A Datatyp(siz) R M Lvl/name

     0-0-0/w SBIN              1 OBJ_SEG_SIZE

  ****  Section 032 LblCom OBJ_TOP_NEW_SEG

  ****  Scalars and arrays  ****
OctLoc.c.b A Datatyp(siz) R M Lvl/name                 OctLoc.c.b A Datatyp(siz) R M Lvl/name

     0-0-0/w PTR               1 OBJ_TOP_NEW_SEG

  ****  Section 033 LblCom OBJ_LAST_REGULAR_PAGE

  ****  Scalars and arrays  ****
OctLoc.c.b A Datatyp(siz) R M Lvl/name                 OctLoc.c.b A Datatyp(siz) R M Lvl/name

     0-0-0/w PTR               1 OBJ_LAST_REGULAR_PAGE

  ****  Section 034 LblCom OBJ_

  ****  Scalars and arrays  ****
OctLoc.c.b A Datatyp(siz) R M Lvl/name                 OctLoc.c.b A Datatyp(siz) R M Lvl/name

     0-0-0/w STRC(180)   r     1 OBJ_

  ****  Section 035 LblCom LTS$

  ****  Scalars and arrays  ****
OctLoc.c.b A Datatyp(siz) R M Lvl/name                 OctLoc.c.b A Datatyp(siz) R M Lvl/name

PL6.E3A0      #001=Z8HI$BURST File=Z8HI.:Z8A6TSI                                 SAT 08/09/97 13:19 Page:550
     0-0-0/w PTR               1 LONG_ITEM$                 0-0-0/w PTR         r     1 LTS$

  ****  Section 036 LblCom LTS_

  ****  Scalars and arrays  ****
OctLoc.c.b A Datatyp(siz) R M Lvl/name                 OctLoc.c.b A Datatyp(siz) R M Lvl/name

     0-0-0/w STRC(180)   r     1 LTS_

  ****  Section 037 LblCom DNT$

  ****  Scalars and arrays  ****
OctLoc.c.b A Datatyp(siz) R M Lvl/name                 OctLoc.c.b A Datatyp(siz) R M Lvl/name

     0-0-0/w PTR         r     1 DNT$

  ****  Section 038 LblCom DNT_

  ****  Scalars and arrays  ****
OctLoc.c.b A Datatyp(siz) R M Lvl/name                 OctLoc.c.b A Datatyp(siz) R M Lvl/name

     0-0-0/w STRC(180)   r     1 DNT_

  ****  Section 039 LblCom DNT_BUCKET_NUMBER

  ****  Scalars and arrays  ****
OctLoc.c.b A Datatyp(siz) R M Lvl/name                 OctLoc.c.b A Datatyp(siz) R M Lvl/name

     0-0-0/w UBIN              1 DNT_BUCKET_NUMBER

  ****  Section 040 LblCom DNT_OF_1$

  ****  Scalars and arrays  ****
OctLoc.c.b A Datatyp(siz) R M Lvl/name                 OctLoc.c.b A Datatyp(siz) R M Lvl/name

     0-0-0/w PTR               1 DNT_OF_1$

PL6.E3A0      #001=Z8HI$BURST File=Z8HI.:Z8A6TSI                                 SAT 08/09/97 13:19 Page:551
  ****  Section 041 LblCom PSI2

  ****  Scalars and arrays  ****
OctLoc.c.b A Datatyp(siz) R M Lvl/name                 OctLoc.c.b A Datatyp(siz) R M Lvl/name

     0-0-0/d UBIN        r     1 PSI2

  ****  Section 042 RoData Z8HI$BURST

  ****  Scalars and arrays  ****
OctLoc.c.b A Datatyp(siz) R M Lvl/name                 OctLoc.c.b A Datatyp(siz) R M Lvl/name

   123-0-0/w SBIN        r     1 DSTATE_IND(0:6)
    16-0-0/w SBIN        r     1 DSTATE_TYH(0:15)
    36-0-0/w SBIN        r     1 DSTATE_TYI(0:15)
   132-0-0/w SBIN        r     1 DSTATE_TYP(0:27)
   100-0-0/w SBIN        r     1 DSTATE_TYQ(0:18)
    56-0-0/w SBIN        r     1 DSTATE_TYR(0:17)
     4-0-0/b BIT         r     1 GBCD_POS(0:5)
     4-0-0/b STRC        r     1 GBCD_POS1(0:5)
     0-0-0/w PTR         r     1 PSEUDO_CODE_MODULE(0:3)
    12-0-0/w UBIN        r     1 T96_CN(0:3)

  ****  Section 043 LblCom MVPP

  ****  Scalars and arrays  ****
OctLoc.c.b A Datatyp(siz) R M Lvl/name                 OctLoc.c.b A Datatyp(siz) R M Lvl/name

     0-0-0/w STRC(144)   r     1 MVPP

  ****  Auto variables  ****

  ****  Scalars and arrays  ****
OctLoc.c.b A Datatyp(siz) R M Lvl/name                 OctLoc.c.b A Datatyp(siz) R M Lvl/name

     4-0-0/w PTR         r     1 @DESCRIPTOR              255-0-0/w PTR         r     1 @FROM
     3-0-0/w PTR         r     1 @PILL                    256-0-0/w PTR         r     1 @TAG
PL6.E3A0      #001=Z8HI$BURST File=Z8HI.:Z8A6TSI                                 SAT 08/09/97 13:19 Page:552
   225-0-0/w SBIN        r     1 ABSOLUTE                 222-0-0/w SBIN        r     1 ALLOTD_PASS
    10-0-0/b BIT         r     1 AORQ                     202-0-0/b BIT         r     1 ARGP_TYPE
   210-0-0/w SBIN        r     1 AXBD                     203-0-0/b BIT         r     1 BIG_OP_SSOP_FLAG
   171-0-0/w SBIN        r     1 BOUNDARY                 221-0-0/w SBIN        r     1 CASE_PASS
   145-0-0/w UBIN              1 CN                       166-0-0/w SBIN        r     1 CODE
   123-0-0/b BIT         r     1 DEFER
    76-0-0/w STRC(180)   r     1 DEFER_BUFFER(0:3)
   122-0-0/w SBIN        r     1 DEFER_BUFFER_IDX         137-0-0/w STRC              1 DESC
    *0-0-0/w STRC        r     1 DESCRIPTOR               235-0-0/w PTR         r     1 DNT$$
   234-0-0/w PTR               1 ETT$$                    170-0-0/w SBIN        r     1 FORMAT
   172-0-0/w SBIN        r     1 FRESHNESS                 *0-0-0/w UBIN        r     1 FROM
   223-0-0/w SBIN        r     1 I                        152-0-0/w PTR         r     1 IC
    75-0-0/b STRC        r     1 INST_WORD                201-0-0/b BIT         r     1 IN_WORD_UNITS
   224-0-0/w SBIN              1 J                        240-0-0/b BIT         r     1 KANJI_FILL
     7-0-0/w UBIN        r     1 LAST_FREED               157-0-0/w SBIN        r     1 LAST_FREED_AR
   161-0-0/w SBIN        r     1 LAST_FREED_PR            160-0-0/w SBIN        r     1 LAST_FREED_XR
     6-0-0/w UBIN        r     1 LAST_USED                144-0-0/w SBIN              1 LENGTH
   173-0-0/w UBIN(18)    r     1 LIB_SELECTION            215-0-0/w PTR               1 LOP_PTR
   236-0-0/w PTR         r     1 LTS$$                    217-0-0/w SBIN        r     1 MAPT_VALID_COUNT
   220-0-0/b BIT         r     1 MAPT_WORD                174-0-0/w STRC(7)     r     1 MF
   126-0-0/w STRC(324)   r     1 NAME                     230-0-0/w PTR         r     1 NODE$
   237-0-0/w PTR         r     1 OFF$                     167-0-0/w SBIN        r     1 OFFSET
   124-0-0/w PTR         r     1 OLD_CURRENT_BLOCK$       153-0-0/w PTR         r     1 OPND
   204-0-0/w PTR         r     1 OP_SIZ_TAG$              205-0-0/w PTR         r     1 OP_SSOP_TAG$
   162-0-0/w SBIN        r     1 P                        226-0-0/w PTR         r     1 P$
   227-0-0/w PTR               1 P3$                      150-0-0/d STRC(72)    r     1 PC
   150-0-0/d STRC(72)    r     1 PCB                      150-0-0/d STRC(72)    r     1 PCC
   150-0-0/d STRC(72)    r     1 PCCS                     150-0-0/d STRC(72)    r     1 PCM
    11-0-0/w STRC(1872)  r     1 PCOM                      11-0-0/w STRC(1872)  r     1 PCOM_
   150-0-0/d STRC(72)    r     1 PCS                       *0-0-0/w PTR         r     1 PILL
   155-0-0/w SBIN        r     1 POINTER_REGISTER         245-0-0/b BIT         r     1 PR
   163-0-0/w SBIN        r     1 Q                        164-0-0/w SBIN        r     1 R
   231-0-0/w PTR         r     1 REF$                     232-0-0/w PTR         r     1 REF_ST$
     5-0-0/w UBIN        r     1 REGID                    156-0-0/w SBIN        r     1 REGISTER
   216-0-0/w PTR               1 ROP_PTR                  165-0-0/w SBIN              1 S
   146-0-0/w UBIN              1 SA                       206-0-0/b STRC        r     1 SAVED_INST_WORD
   154-0-0/w PTR         r     1 SAVE_OPND                207-0-0/w SBIN              1 SAVE_TAG
PL6.E3A0      #001=Z8HI$BURST File=Z8HI.:Z8A6TSI                                 SAT 08/09/97 13:19 Page:553
   143-0-0/w SBIN              1 SCALE                    125-0-0/w SBIN              1 SEG_NO#
   140-0-0/w BIT (2)           1 SIGN                     243-0-0/b BIT         r     1 SIZ
   176-0-0/b BIT         r     1 SSOP                     244-0-0/b BIT         r     1 SSOP
   233-0-0/w PTR         r     1 ST$$                     246-0-0/b BIT         r     1 STB_FLAG
   175-0-0/b BIT         r     1 STORAGE_TARGET           142-0-0/w BIT (2)     r     1 TA
    *0-0-0/w UBIN        r     1 TAG                      141-0-0/w BIT               1 TN
   211-0-0/w STRC(144)   r     1 TYPE_DESC                177-0-0/b BIT         r     1 ZERO_CN
   200-0-0/b BIT         r     1 ZERO_SA

  ****  SYMREF variables  ****

  ****  Scalars and arrays  ****
OctLoc.c.b A Datatyp(siz) R M Lvl/name                 OctLoc.c.b A Datatyp(siz) R M Lvl/name

     0-0-0/d STRC(13248) r     1 COMCOM                     0-0-0/w UBIN              1 ILL_STEP(0:144)
     0-0-0/w UBIN              1 LTS_STEP(0:37)
     0-0-0/w UBIN              1 OBJ_STEP(0:4)
     0-0-0/w UBIN        r     1 PSD(0:1)                   0-0-0/w UBIN        r     1 PSI1(0:1)

  ****  BASED and DCB variables  ****

  ****  Scalars and arrays  ****
OctLoc.c.b A Datatyp(siz) R M Lvl/name                 OctLoc.c.b A Datatyp(siz) R M Lvl/name

     0-0-0/w STRC(108)         1 ACCEPT_DISPLAY             0-0-0/w STRC(396)         1 ALPHABET
     0-0-0/w STRC(144)         1 ALTER_LTS                  0-0-0/w STRC(3672)        1 ALT_KEY
     0-0-0/w STRC(36864)       1 ARGLIST                    0-0-0/w STRC(396)   r     1 ARRAY
     0-0-0/w STRC(180)         1 ARRAY_PRESET_LTS           0-0-0/w STRC(72)    r     1 BASE
     0-0-0/w STRC(288)         1 BASE_LTS                   0-0-0/w STRC(108)         1 BINARY_ILL
     0-0-0/w STRC(396)   r     1 BLOCK                      0-0-0/w STRC(144)         1 BRANCH_ILL
     0-0-0/w STRC(144)         1 BT                         0-0-0/w STRC(216)   r     1 CCOSU
     0-0-0/w STRC(396)         1 CD                         0-0-0/w STRC(288)         1 CD_LTS
     0-0-0/w CHAR(4096)        1 CHARS                      0-0-0/w STRC(396)         1 CLASS
     0-0-0/w STRC(108)         1 CODED_MOVE                 0-0-0/w STRC(396)         1 CONDITION
     0-0-0/w STRC(396)   r     1 CONST                      0-0-0/w STRC(72)          1 CONT
     0-0-0/w STRC(540)         1 CONTROL_NAME_LTS           0-0-0/w STRC(1872)        1 COPY_FILE
     0-0-0/w STRC(396)         1 DB                         0-0-0/w STRC(396)         1 DCB_
PL6.E3A0      #001=Z8HI$BURST File=Z8HI.:Z8A6TSI                                 SAT 08/09/97 13:19 Page:554
     0-0-0/w STRC(144)         1 DEFLB                      0-0-0/w STRC(108)         1 DEPENDING_SIZE
     0-0-0/w STRC(5472)        1 DIMS                       0-0-0/w STRC(396)         1 DML_ITEM
     0-0-0/w STRC(216)         1 DML_REC                    0-0-0/w ASTR(180)   r     1 DNT
     0-0-0/w STRC(144)         1 DOEND                      0-0-0/w STRC(396)         1 DO_N
     0-0-0/w STRC(180)         1 DV4I                       0-0-0/w STRC(180)         1 ENTRY_ILL
     0-0-0/w STRC(180)   r     1 ETT                        0-0-0/w STRC(108)         1 EVALU
     0-0-0/w STRC(73836)       1 EVALUATE                   0-0-0/w STRC(396)         1 FD
     0-0-0/w STRC(1692)        1 FILE_LTS                   0-0-0/w STRC(144)         1 GO
     0-0-0/w STRC(180)   r     1 ILL                        0-0-0/w STRC              1 ILL_NO_OPS
     0-0-0/w STRC(108)         1 INDEXES                    0-0-0/w STRC(360)         1 INIT_LTS
     0-0-0/w STRC(396)         1 INTDEF                     0-0-0/w STRC(180)         1 IO_RESTORE_CHAIN
     0-0-0/w STRC(144)         1 KEY                        0-0-0/w STRC(396)   r     1 LABEL
     0-0-0/w STRC(36864)       1 LCNST                      0-0-0/w STRC(108)         1 LINOI
     0-0-0/w STRC(72)          1 LONG                       0-0-0/w STRC        r     1 LTS
     0-0-0/w STRC(360)   r     1 LTSS                       0-0-0/w STRC(36936)       1 LTS_PTR_ARRAY
     0-0-0/w STRC(72)          1 MFILL                      0-0-0/w STRC(396)         1 MNEMONIC
     0-0-0/w STRC(180)         1 MULTI_GO                   0-0-0/w STRC(180)         1 MVEAL
     0-0-0/w STRC(108)         1 MVFIL                      0-0-0/w STRC(72)          1 MVIIS
     0-0-0/w STRC(144)   r     1 NEL                        0-0-0/w STRC        r     1 OBJ
     0-0-0/w STRC(72)    r     1 OBJ_LAB                    0-0-0/w STRC(108)         1 OBJ_LINE
     0-0-0/w STRC(72)    r     1 OBJ_ORG                    0-0-0/w STRC(72)          1 OBJ_SCOPE
     0-0-0/w STRC(144)   r     1 OBJ_WORD                   0-0-0/w STRC        r     1 OFF_SET(0:20)
     0-0-0/w STRC(216)         1 OPEN_LTS                   0-0-0/w STRC(180)         1 OS_CALL
     0-0-0/w STRC(36864)       1 PAGE                       0-0-0/w STRC(396)   r     1 PARA
     0-0-0/w STRC(216)         1 PFORM                      0-0-0/w STRC(144)         1 PINC
     0-0-0/w STRC(144)         1 PREOFF                     0-0-0/w STRC(108)         1 PRESET
     0-0-0/w STRC(144)   r     1 PRIME                      0-0-0/w STRC(396)   r     1 PROC_
     0-0-0/w STRC(396)         1 PROC_DEF                   0-0-0/w STRC(900)         1 PROC_SUPP
     0-0-0/w STRC(144)         1 P_A_PRESET                 0-0-0/w STRC(144)         1 P_P_PRESET
     0-0-0/w STRC(396)         1 RD                         0-0-0/w STRC(216)   r     1 REF
     0-0-0/w STRC(144)         1 REMEM                      0-0-0/w STRC(108)         1 RENAMES
     0-0-0/w STRC(720)         1 REPORT_01_LTS              0-0-0/w STRC(432)         1 REPORT_ELEM_LTS
     0-0-0/w STRC(252)         1 REPORT_GRP_LTS             0-0-0/w STRC(1332)        1 REPORT_LTS
     0-0-0/w STRC(144)         1 RVA_LTS                    0-0-0/w STRC(396)   r     1 SCALAR
     0-0-0/w STRC(144)         1 SCOPE                      0-0-0/w STRC(396)         1 SD
     0-0-0/w STRC(216)         1 SEARCH_                    0-0-0/w STRC(396)   r     1 SECTION
     0-0-0/w STRC(396)   r     1 SEGMENT                    0-0-0/w STRC(360)         1 SEGMENT_LTS
PL6.E3A0      #001=Z8HI$BURST File=Z8HI.:Z8A6TSI                                 SAT 08/09/97 13:19 Page:555
     0-0-0/w STRC(396)   r     1 ST                         0-0-0/w STRC(72)          1 STP2
     0-0-0/w STRC(252)         1 SUM_LTS                    0-0-0/w STRC(396)         1 SWITCH
     0-0-0/w STRC(396)         1 SYMBOLIC_CHAR              0-0-0/w STRC(396)         1 SYMDEF_
     0-0-0/w STRC(396)         1 SYMREF_                    0-0-0/w STRC(396)   r     1 TEMP
     0-0-0/w STRC(144)         1 TRINARY_ILL                0-0-0/w STRC(72)          1 UNARY_ILL
     0-0-0/d STRC(612)         1 USE                        0-0-0/w STRC(216)         1 USER_CALL
     0-0-0/w STRC(252)         1 USE_SUPP                   0-0-0/w STRC(108)         1 VAL
     0-0-0/w STRC(108)         1 VAL_END                    0-0-0/w STRC(396)   r     1 VARIABLE
     0-0-0/w STRC(72)          1 WHEN


   Procedure Z8HI$BURST requires 8839 words for executable code.
   Procedure Z8HI$BURST requires 188 words of local(AUTO) storage.

    No errors detected in file Z8HI.:Z8A6TSI    .
