PL6.E3A0      #008=Z8HU$WALK File=Z8HU.:Z8A6TSI                                  SAT 08/09/97 13:33 Page:182
      903        1        /*T***********************************************************/
      904        2        /*T*                                                         */
      905        3        /*T* Copyright (c) Bull HN Information Systems Inc., 1997    */
      906        4        /*T*                                                         */
      907        5        /*T***********************************************************/
      908        6        Z8HU$WALK:PROC(NODE$);
      909        7        /*D*
      910        8
      911        9               NAME: Z8HU$WALK
      912       10            PURPOSE: Invoke recursion to evaluate subtrees of the current triad.
      913       11
      914       12               CALL: CALL Z8HU$WALK(=NODE$);
      915       13              INPUT: NODE$
      916       14                       Points to the operand that we are desirous of evaluating.
      917       15                       This is the register that the triad above the one to be
      918       16                       tree-walked would like to see.
      919       17
      920       18        DESCRIPTION: Issue recursive call only if not previously evaluated.  NODE$
      921       19                     points to an operand that is evaluated if that operand is a
      922       20                     Symbol Table item or the T field of the triad contains
      923       21                     a value not equal to %UNEVAL_T.
      924       22
      925       23
      926       24        */
      927       25
      928       26             %EQU PHASE = 4;
      929       27             %INCLUDE Z8A_DEFC;
      930       95             %INCLUDE Z8A_SUPP_MAC;
      931     2495             %INCLUDE Z8A_ETT;
      932     2796             %INCLUDE Z8A_ST;
      933     6455             %INCLUDE Z9A_FLAGS;
      934     6469             %INCLUDE Z8H_SUPPORT;
      935     6917             %INCLUDE Z8A_LTS;
      936     8994             %INCLUDE Z8H_EXT;
      937     9045
      938     9046    1        DCL Z8HI$BURST ENTRY(2);
      939     9047    1        DCL Z8HU$TAG ENTRY(2);
PL6.E3A0      #008=Z8HU$WALK File=Z8HU.:Z8A6TSI                                  SAT 08/09/97 13:33 Page:183
      940     9048
      941     9049    1        DCL NODE$ PTR;
      942     9050
      943     9051    1        IF NODE$ ~= ADDR(NIL) THEN
      944     9052    1          IF NODE$ -> ETT.ID < %FIRST_ST THEN
      945     9053    2            DO;
      946     9054    2              IF NODE$ -> ETT.COUNT = 0 THEN
      947     9055    2                NODE$ -> ETT.COUNT = 1;
      948     9056
      949     9057    2              IF NODE$ -> ETT.ID <= %LAST_REFERENCE_TRIAD THEN
      950     9058    3                DO;
      951     9059    3                  IF NODE$ -> ETT.STATE = %UNEVAL_T THEN
      952     9060    3                    NODE$ -> ETT.REF$ = ADDR(NIL);
      953     9061
      954     9062    3                  IF NODE$ -> ETT.REF$ = ADDR(NIL) THEN
      955     9063    3                    CALL Z8HI$BURST(NODE$,PEPD(NODE$ -> ETT.ID));
      956     9064
      957     9065    4                  DO CASE(NODE$ -> ETT.ID);
      958     9066    4                    CASE(%OPTIMIZE_THIS_CASE);
      959     9067    4                    CASE(%SSOP);
      960     9068    4                      IF NODE$ -> ETT.REF$ -> REF.SSOP_TAG$ ~= ADDR(NIL) THEN
      961     9069    5                        DO;
      962     9070    5                          CALL Z8HU$TAG(NODE$ -> ETT.REF$ -> REF.SSOP_TAG$,
      963     9071    5                                        NODE$->ETT.REF$->REF.ST$->VARIABLE.B.
              9071                                                 GREATER_256K=TRUE);
      964     9072    5                        END;
      965     9073
      966     9074    4                    CASE(%SIZ, %REFMOD);  /*#28637*/
      967     9075    4                      IF NODE$ -> ETT.REF$ -> REF.SIZ_TAG$ ~= ADDR(NIL) THEN
      968     9076    5                        DO;
      969     9077    5                          CALL Z8HU$TAG(NODE$ -> ETT.REF$ -> REF.SIZ_TAG$,
      970     9078    5                                        NODE$->ETT.REF$->REF.ST$->VARIABLE.B.
              9078                                                 GREATER_256K=TRUE);
      971     9079    5                        END;
      972     9080    4                  END;
      973     9081    3                END;
      974     9082    2              ELSE
PL6.E3A0      #008=Z8HU$WALK File=Z8HU.:Z8A6TSI                                  SAT 08/09/97 13:33 Page:184
      975     9083    2                IF NODE$ -> ETT.STATE = %UNEVAL_T THEN
      976     9084    3                  DO;
      977     9085    3                    NODE$ -> ETT.REF$ = ADDR(NIL);
      978     9086    3                    CALL Z8HI$BURST(NODE$,PEPD(NODE$ -> ETT.ID));
      979     9087    3                  END;
      980     9088    2            END;
      981     9089
      982     9090    1   END Z8HU$WALK;

PL6.E3A0      #008=Z8HU$WALK File=Z8HU.:Z8A6TSI                                  SAT 08/09/97 13:33 Page:185
--  Include file information  --

   Z8H_EXT.:Z8A6TOU  cannot be made into a system file and is referenced.
   Z8A_LTS.:Z8A6TOU  cannot be made into a system file and is referenced.
   Z8H_SUPPORT.:Z8A6TOU  is referenced.
   Z9A_FLAGS.:Z8A6TOU  is referenced.
   Z8A_ST.:Z8A6TOU  cannot be made into a system file and is referenced.
   Z8A_ETT.:Z8A6TOU  cannot be made into a system file and is referenced.
   X8A_COM_MACS.:X8A6TOU  is referenced.
   Z8A_NAMES.:Z8A6TOU  is referenced.
   Z8A_SUPP_MAC.:Z8A6TOU  is referenced.
   Z8A_DEFC.:Z8A6TOU  cannot be made into a system file and is referenced.
      No diagnostics issued in procedure Z8HU$WALK.

   Procedure Z8HU$WALK requires 113 words for executable code.
   Procedure Z8HU$WALK requires 8 words of local(AUTO) storage.

    No errors detected in file Z8HU.:Z8A6TSI    .

PL6.E3A0      #008=Z8HU$WALK File=Z8HU.:Z8A6TSI                                  SAT 08/09/97 13:33 Page:186

 Object Unit name= Z8HU$WALK                                  File name= Z8HU.:Z8A6TOU
 UTS= AUG 09 '97 13:33:10.12 SAT                              Compiler= PL-6/E31         Sev=      00
 SharedLib= :SHARED_SYSTEM                                    Alt SharedLib=


    ****  Control sections  ****

 Sect   Type Bound  Init  Size OctSiz  Section name(segment info)
    0  LblCom even  none     1      1  ITERATION
    1  LblCom even  none     1      1  ETT$
    2  LblCom even  none     1      1  HEAD_ETT$
    3  LblCom even  none   512   1000  ETT_BUCKETS
    4  LblCom even  none     5      5  ETT_
    5  LblCom even  none     1      1  ST$
    6  LblCom even  none     5      5  ST_
    7  LblCom even  none     1      1  LTS$
    8  LblCom even  none     5      5  LTS_
    9  LblCom even  none     1      1  NUMBER_OF_PRIMES
   10  LblCom even  none     1      1  NUMBER_OF_TEMPS
   11  LblCom even  none     1      1  NUMBER_OF_REFS
   12  LblCom even  none     1      1  GENERATING_PTRS
   13  LblCom even  none     1      1  USE_PROC_RETURN
   14  LblCom even  none     1      1  CURRENT_SCOPE$
   15  LblCom even  none     1      1  HEAD_REF$
   16  LblCom even  none     1      1  HEAD_TEMP$
   17  LblCom even  none     1      1  CONST$
   18  LblCom even  none     1      1  HEAD_PRIMES$
   19  LblCom even  none     1      1  CUR_LOOP_LEVEL
   20  LblCom even  none     2      2  PEPD
   21   Proc  even  none   113    161  Z8HU$WALK
   22  RoData even  none     2      2  Z8HU$WALK
PL6.E3A0      #008=Z8HU$WALK File=Z8HU.:Z8A6TSI                                  SAT 08/09/97 13:33 Page:187

    ****  Entry defs  ****

                              Check   Calling
                             calling  sequence
  Sect OctLoc Primary Altret sequence   type   Parms  Name
    21      0   yes            yes      Std        1  Z8HU$WALK

  ****  Entry refs  ****

         Check        Calling
        calling       sequence
Altret sequence SRef   type   Args  Name
         yes           Std       2 Z8HI$BURST
         yes           Std       2 Z8HU$TAG
                       nStd      0 X66_AUTO_1
                       nStd      0 X66_ARET

  ****  Data refs  ****

  Flags:  r = read only, s = secondary
Flgs Name                             Flgs Name                             Flgs Name
r    LTS_STEP

  ****  Segment refs  ****

  Flags:  r = read only, s = secondary
Flgs Name                             Flgs Name                             Flgs Name
     NULLSID
PL6.E3A0      #008=Z8HU$WALK File=Z8HU.:Z8A6TSI                                  SAT 08/09/97 13:33 Page:188


      903        1        /*T***********************************************************/
      904        2        /*T*                                                         */
      905        3        /*T* Copyright (c) Bull HN Information Systems Inc., 1997    */
      906        4        /*T*                                                         */
      907        5        /*T***********************************************************/
      908        6        Z8HU$WALK:PROC(NODE$);

      6 21 000000   000000 700200 xent  Z8HU$WALK    TSX0  ! X66_AUTO_1
        21 000001   000010 000001                    ZERO    8,1

      909        7        /*D*
      910        8
      911        9               NAME: Z8HU$WALK
      912       10            PURPOSE: Invoke recursion to evaluate subtrees of the current triad.
      913       11
      914       12               CALL: CALL Z8HU$WALK(=NODE$);
      915       13              INPUT: NODE$
      916       14                       Points to the operand that we are desirous of evaluating.
      917       15                       This is the register that the triad above the one to be
      918       16                       tree-walked would like to see.
      919       17
      920       18        DESCRIPTION: Issue recursive call only if not previously evaluated.  NODE$
      921       19                     points to an operand that is evaluated if that operand is a
      922       20                     Symbol Table item or the T field of the triad contains
      923       21                     a value not equal to %UNEVAL_T.
      924       22
      925       23
      926       24        */
      927       25
      928       26             %EQU PHASE = 4;
      929       27             %INCLUDE Z8A_DEFC;
      930       95             %INCLUDE Z8A_SUPP_MAC;
      931     2495             %INCLUDE Z8A_ETT;
      932     2796             %INCLUDE Z8A_ST;
      933     6455             %INCLUDE Z9A_FLAGS;
      934     6469             %INCLUDE Z8H_SUPPORT;
PL6.E3A0      #008=Z8HU$WALK File=Z8HU.:Z8A6TSI                                  SAT 08/09/97 13:33 Page:189
      935     6917             %INCLUDE Z8A_LTS;
      936     8994             %INCLUDE Z8H_EXT;
      937     9045
      938     9046    1        DCL Z8HI$BURST ENTRY(2);
      939     9047    1        DCL Z8HU$TAG ENTRY(2);
      940     9048
      941     9049    1        DCL NODE$ PTR;
      942     9050
      943     9051    1        IF NODE$ ~= ADDR(NIL) THEN

   9051 21 000002   200003 470500                    LDP0    @NODE$,,AUTO
        21 000003   000000 236100                    LDQ     0,,PR0
        21 000004   000000 116000 22                 CMPQ    0
        21 000005   000160 600000 21                 TZE     s:9090

      944     9052    1          IF NODE$ -> ETT.ID < %FIRST_ST THEN

   9052 21 000006   000000 471500                    LDP1    0,,PR0
        21 000007   100000 220100                    LDX0    0,,PR1
        21 000010   000751 100003                    CMPX0   489,DU
        21 000011   000160 603000 21                 TRC     s:9090

      945     9053    2            DO;

      946     9054    2              IF NODE$ -> ETT.COUNT = 0 THEN

   9054 21 000012   100000 721100                    LXL1    0,,PR1
        21 000013   000016 601000 21                 TNZ     s:9057

      947     9055    2                NODE$ -> ETT.COUNT = 1;

   9055 21 000014   000001 222003                    LDX2    1,DU
        21 000015   100000 442100                    SXL2    0,,PR1

      948     9056
      949     9057    2              IF NODE$ -> ETT.ID <= %LAST_REFERENCE_TRIAD THEN

PL6.E3A0      #008=Z8HU$WALK File=Z8HU.:Z8A6TSI                                  SAT 08/09/97 13:33 Page:190
   9057 21 000016   000000 471500                    LDP1    0,,PR0
        21 000017   100000 220100                    LDX0    0,,PR1
        21 000020   000020 100003                    CMPX0   16,DU
        21 000021   000142 603000 21                 TRC     s:9083

      950     9058    3                DO;

      951     9059    3                  IF NODE$ -> ETT.STATE = %UNEVAL_T THEN

   9059 21 000022   100004 221100                    LDX1    4,,PR1
        21 000023   000026 601000 21                 TNZ     s:9062

      952     9060    3                    NODE$ -> ETT.REF$ = ADDR(NIL);

   9060 21 000024   000000 236000 22                 LDQ     0
        21 000025   100003 756100                    STQ     3,,PR1

      953     9061
      954     9062    3                  IF NODE$ -> ETT.REF$ = ADDR(NIL) THEN

   9062 21 000026   000000 471500                    LDP1    0,,PR0
        21 000027   100003 236100                    LDQ     3,,PR1
        21 000030   000000 116000 22                 CMPQ    0
        21 000031   000043 601000 21                 TNZ     s:9065

      955     9063    3                    CALL Z8HI$BURST(NODE$,PEPD(NODE$ -> ETT.ID));

   9063 21 000032   100000 220100                    LDX0    0,,PR1
        21 000033   000000 633410 20                 EPPR3   PEPD,X0
        21 000034   200005 453500                    STP3    @NODE$+2,,AUTO
        21 000035   200003 236100                    LDQ     @NODE$,,AUTO
        21 000036   200004 756100                    STQ     @NODE$+1,,AUTO
        21 000037   200004 630500                    EPPR0   @NODE$+1,,AUTO
        21 000040   000001 631400 22                 EPPR1   1
        21 000041   000000 701000 xent               TSX1    Z8HI$BURST
        21 000042   000000 011000                    NOP     0

PL6.E3A0      #008=Z8HU$WALK File=Z8HU.:Z8A6TSI                                  SAT 08/09/97 13:33 Page:191
      956     9064
      957     9065    4                  DO CASE(NODE$ -> ETT.ID);

   9065 21 000043   200003 470500                    LDP0    @NODE$,,AUTO
        21 000044   000000 471500                    LDP1    0,,PR0
        21 000045   100000 220100                    LDX0    0,,PR1
        21 000046   000013 100003                    CMPX0   11,DU
        21 000047   000051 602010 21                 TNC     s:9065+6,X0
        21 000050   000160 710000 21                 TRA     s:9090
        21 000051   000141 710000 21                 TRA     s:9081
        21 000052   000141 710000 21                 TRA     s:9081
        21 000053   000141 710000 21                 TRA     s:9081
        21 000054   000141 710000 21                 TRA     s:9081
        21 000055   000113 710000 21                 TRA     s:9075
        21 000056   000064 710000 21                 TRA     s:9068
        21 000057   000141 710000 21                 TRA     s:9081
        21 000060   000141 710000 21                 TRA     s:9081
        21 000061   000141 710000 21                 TRA     s:9081
        21 000062   000141 710000 21                 TRA     s:9081
        21 000063   000113 710000 21                 TRA     s:9075

      958     9066    4                    CASE(%OPTIMIZE_THIS_CASE);

      959     9067    4                    CASE(%SSOP);

      960     9068    4                      IF NODE$ -> ETT.REF$ -> REF.SSOP_TAG$ ~= ADDR(NIL) THEN

   9068 21 000064   100003 473500                    LDP3    3,,PR1
        21 000065   300002 236100                    LDQ     2,,PR3
        21 000066   000000 116000 22                 CMPQ    0
        21 000067   000160 600000 21                 TZE     s:9090

      961     9069    5                        DO;

      962     9070    5                          CALL Z8HU$TAG(NODE$ -> ETT.REF$ -> REF.SSOP_TAG$,

   9070 21 000070   300005 474500                    LDP4    5,,PR3
PL6.E3A0      #008=Z8HU$WALK File=Z8HU.:Z8A6TSI                                  SAT 08/09/97 13:33 Page:192
        21 000071   400000 221003                    LDX1    -131072,DU
        21 000072   400003 236100                    LDQ     3,,PR4
        21 000073   020000 316003                    CANQ    8192,DU
        21 000074   000076 601000 21                 TNZ     s:9070+6
        21 000075   000000 221003                    LDX1    0,DU
        21 000076   000000 636011                    EAQ     0,X1
        21 000077   200004 676100                    ERQ     @NODE$+1,,AUTO
        21 000100   400000 376003                    ANQ     -131072,DU
        21 000101   200004 656100                    ERSQ    @NODE$+1,,AUTO
        21 000102   200004 631500                    EPPR1   @NODE$+1,,AUTO
        21 000103   200007 451500                    STP1    @NODE$+4,,AUTO
        21 000104   300002 634500                    EPPR4   2,,PR3
        21 000105   200006 454500                    STP4    @NODE$+3,,AUTO
        21 000106   200006 630500                    EPPR0   @NODE$+3,,AUTO
        21 000107   000001 631400 22                 EPPR1   1
        21 000110   000000 701000 xent               TSX1    Z8HU$TAG
        21 000111   000000 011000                    NOP     0

      963     9071    5                                        NODE$->ETT.REF$->REF.ST$->VARIABLE.B.
              9071                                                 GREATER_256K=TRUE);
      964     9072    5                        END;

   9072 21 000112   000160 710000 21                 TRA     s:9090

      965     9073
      966     9074    4                    CASE(%SIZ, %REFMOD);  /*#28637*/

      967     9075    4                      IF NODE$ -> ETT.REF$ -> REF.SIZ_TAG$ ~= ADDR(NIL) THEN

   9075 21 000113   100003 473500                    LDP3    3,,PR1
        21 000114   300003 236100                    LDQ     3,,PR3
        21 000115   000000 116000 22                 CMPQ    0
        21 000116   000160 600000 21                 TZE     s:9090

      968     9076    5                        DO;

      969     9077    5                          CALL Z8HU$TAG(NODE$ -> ETT.REF$ -> REF.SIZ_TAG$,
PL6.E3A0      #008=Z8HU$WALK File=Z8HU.:Z8A6TSI                                  SAT 08/09/97 13:33 Page:193

   9077 21 000117   300005 474500                    LDP4    5,,PR3
        21 000120   400000 221003                    LDX1    -131072,DU
        21 000121   400003 236100                    LDQ     3,,PR4
        21 000122   020000 316003                    CANQ    8192,DU
        21 000123   000125 601000 21                 TNZ     s:9077+6
        21 000124   000000 221003                    LDX1    0,DU
        21 000125   000000 636011                    EAQ     0,X1
        21 000126   200004 676100                    ERQ     @NODE$+1,,AUTO
        21 000127   400000 376003                    ANQ     -131072,DU
        21 000130   200004 656100                    ERSQ    @NODE$+1,,AUTO
        21 000131   200004 631500                    EPPR1   @NODE$+1,,AUTO
        21 000132   200007 451500                    STP1    @NODE$+4,,AUTO
        21 000133   300003 634500                    EPPR4   3,,PR3
        21 000134   200006 454500                    STP4    @NODE$+3,,AUTO
        21 000135   200006 630500                    EPPR0   @NODE$+3,,AUTO
        21 000136   000001 631400 22                 EPPR1   1
        21 000137   000000 701000 xent               TSX1    Z8HU$TAG
        21 000140   000000 011000                    NOP     0

      970     9078    5                                        NODE$->ETT.REF$->REF.ST$->VARIABLE.B.
              9078                                                 GREATER_256K=TRUE);
      971     9079    5                        END;

      972     9080    4                  END;

      973     9081    3                END;

   9081 21 000141   000160 710000 21                 TRA     s:9090

      974     9082    2              ELSE
      975     9083    2                IF NODE$ -> ETT.STATE = %UNEVAL_T THEN

   9083 21 000142   100004 221100                    LDX1    4,,PR1
        21 000143   000160 601000 21                 TNZ     s:9090

      976     9084    3                  DO;
PL6.E3A0      #008=Z8HU$WALK File=Z8HU.:Z8A6TSI                                  SAT 08/09/97 13:33 Page:194

      977     9085    3                    NODE$ -> ETT.REF$ = ADDR(NIL);

   9085 21 000144   000000 236000 22                 LDQ     0
        21 000145   100003 756100                    STQ     3,,PR1

      978     9086    3                    CALL Z8HI$BURST(NODE$,PEPD(NODE$ -> ETT.ID));

   9086 21 000146   000000 471500                    LDP1    0,,PR0
        21 000147   100000 220100                    LDX0    0,,PR1
        21 000150   000000 633410 20                 EPPR3   PEPD,X0
        21 000151   200005 453500                    STP3    @NODE$+2,,AUTO
        21 000152   200003 236100                    LDQ     @NODE$,,AUTO
        21 000153   200004 756100                    STQ     @NODE$+1,,AUTO
        21 000154   200004 630500                    EPPR0   @NODE$+1,,AUTO
        21 000155   000001 631400 22                 EPPR1   1
        21 000156   000000 701000 xent               TSX1    Z8HI$BURST
        21 000157   000000 011000                    NOP     0

      979     9087    3                  END;

      980     9088    2            END;

      981     9089
      982     9090    1   END Z8HU$WALK;

   9090 21 000160   000000 702200 xent               TSX2  ! X66_ARET

PL6.E3A0      #008=Z8HU$WALK File=Z8HU.:Z8A6TSI                                  SAT 08/09/97 13:33 Page:195
--  Include file information  --

   Z8H_EXT.:Z8A6TOU  cannot be made into a system file and is referenced.
   Z8A_LTS.:Z8A6TOU  cannot be made into a system file and is referenced.
   Z8H_SUPPORT.:Z8A6TOU  is referenced.
   Z9A_FLAGS.:Z8A6TOU  is referenced.
   Z8A_ST.:Z8A6TOU  cannot be made into a system file and is referenced.
   Z8A_ETT.:Z8A6TOU  cannot be made into a system file and is referenced.
   X8A_COM_MACS.:X8A6TOU  is referenced.
   Z8A_NAMES.:Z8A6TOU  is referenced.
   Z8A_SUPP_MAC.:Z8A6TOU  is referenced.
   Z8A_DEFC.:Z8A6TOU  cannot be made into a system file and is referenced.
      No diagnostics issued in procedure Z8HU$WALK.
PL6.E3A0      #008=Z8HU$WALK File=Z8HU.:Z8A6TSI                                  SAT 08/09/97 13:33 Page:196

 **** Variables and constants ****

  ****  Section 000 LblCom ITERATION

  ****  Scalars and arrays  ****
OctLoc.c.b A Datatyp(siz) R M Lvl/name                 OctLoc.c.b A Datatyp(siz) R M Lvl/name

     0-0-0/w SBIN              1 ITERATION

  ****  Section 001 LblCom ETT$

  ****  Scalars and arrays  ****
OctLoc.c.b A Datatyp(siz) R M Lvl/name                 OctLoc.c.b A Datatyp(siz) R M Lvl/name

     0-0-0/w PTR         r     1 ETT$

  ****  Section 002 LblCom HEAD_ETT$

  ****  Scalars and arrays  ****
OctLoc.c.b A Datatyp(siz) R M Lvl/name                 OctLoc.c.b A Datatyp(siz) R M Lvl/name

     0-0-0/w PTR               1 HEAD_ETT$

  ****  Section 003 LblCom ETT_BUCKETS

  ****  Scalars and arrays  ****
OctLoc.c.b A Datatyp(siz) R M Lvl/name                 OctLoc.c.b A Datatyp(siz) R M Lvl/name

     0-0-0/w PTR               1 ETT_BUCKETS(0:511)

  ****  Section 004 LblCom ETT_

  ****  Scalars and arrays  ****
OctLoc.c.b A Datatyp(siz) R M Lvl/name                 OctLoc.c.b A Datatyp(siz) R M Lvl/name

     0-0-0/w STRC(180)         1 ETT_

PL6.E3A0      #008=Z8HU$WALK File=Z8HU.:Z8A6TSI                                  SAT 08/09/97 13:33 Page:197
  ****  Section 005 LblCom ST$

  ****  Scalars and arrays  ****
OctLoc.c.b A Datatyp(siz) R M Lvl/name                 OctLoc.c.b A Datatyp(siz) R M Lvl/name

     0-0-0/w PTR         r     1 ST$

  ****  Section 006 LblCom ST_

  ****  Scalars and arrays  ****
OctLoc.c.b A Datatyp(siz) R M Lvl/name                 OctLoc.c.b A Datatyp(siz) R M Lvl/name

     0-0-0/w STRC(180)         1 ST_

  ****  Section 007 LblCom LTS$

  ****  Scalars and arrays  ****
OctLoc.c.b A Datatyp(siz) R M Lvl/name                 OctLoc.c.b A Datatyp(siz) R M Lvl/name

     0-0-0/w PTR               1 LONG_ITEM$                 0-0-0/w PTR         r     1 LTS$

  ****  Section 008 LblCom LTS_

  ****  Scalars and arrays  ****
OctLoc.c.b A Datatyp(siz) R M Lvl/name                 OctLoc.c.b A Datatyp(siz) R M Lvl/name

     0-0-0/w STRC(180)         1 LTS_

  ****  Section 009 LblCom NUMBER_OF_PRIMES

  ****  Scalars and arrays  ****
OctLoc.c.b A Datatyp(siz) R M Lvl/name                 OctLoc.c.b A Datatyp(siz) R M Lvl/name

     0-0-0/w SBIN              1 NUMBER_OF_PRIMES

  ****  Section 010 LblCom NUMBER_OF_TEMPS

PL6.E3A0      #008=Z8HU$WALK File=Z8HU.:Z8A6TSI                                  SAT 08/09/97 13:33 Page:198
  ****  Scalars and arrays  ****
OctLoc.c.b A Datatyp(siz) R M Lvl/name                 OctLoc.c.b A Datatyp(siz) R M Lvl/name

     0-0-0/w SBIN              1 NUMBER_OF_TEMPS

  ****  Section 011 LblCom NUMBER_OF_REFS

  ****  Scalars and arrays  ****
OctLoc.c.b A Datatyp(siz) R M Lvl/name                 OctLoc.c.b A Datatyp(siz) R M Lvl/name

     0-0-0/w SBIN              1 NUMBER_OF_REFS

  ****  Section 012 LblCom GENERATING_PTRS

  ****  Scalars and arrays  ****
OctLoc.c.b A Datatyp(siz) R M Lvl/name                 OctLoc.c.b A Datatyp(siz) R M Lvl/name

     0-0-0/b BIT               1 GENERATING_PTRS

  ****  Section 013 LblCom USE_PROC_RETURN

  ****  Scalars and arrays  ****
OctLoc.c.b A Datatyp(siz) R M Lvl/name                 OctLoc.c.b A Datatyp(siz) R M Lvl/name

     0-0-0/w PTR               1 USE_PROC_RETURN

  ****  Section 014 LblCom CURRENT_SCOPE$

  ****  Scalars and arrays  ****
OctLoc.c.b A Datatyp(siz) R M Lvl/name                 OctLoc.c.b A Datatyp(siz) R M Lvl/name

     0-0-0/w PTR               1 CURRENT_SCOPE$

  ****  Section 015 LblCom HEAD_REF$

  ****  Scalars and arrays  ****
OctLoc.c.b A Datatyp(siz) R M Lvl/name                 OctLoc.c.b A Datatyp(siz) R M Lvl/name
PL6.E3A0      #008=Z8HU$WALK File=Z8HU.:Z8A6TSI                                  SAT 08/09/97 13:33 Page:199

     0-0-0/w PTR               1 HEAD_REF$

  ****  Section 016 LblCom HEAD_TEMP$

  ****  Scalars and arrays  ****
OctLoc.c.b A Datatyp(siz) R M Lvl/name                 OctLoc.c.b A Datatyp(siz) R M Lvl/name

     0-0-0/w PTR               1 HEAD_TEMP$

  ****  Section 017 LblCom CONST$

  ****  Scalars and arrays  ****
OctLoc.c.b A Datatyp(siz) R M Lvl/name                 OctLoc.c.b A Datatyp(siz) R M Lvl/name

     0-0-0/w PTR               1 CONST$

  ****  Section 018 LblCom HEAD_PRIMES$

  ****  Scalars and arrays  ****
OctLoc.c.b A Datatyp(siz) R M Lvl/name                 OctLoc.c.b A Datatyp(siz) R M Lvl/name

     0-0-0/w PTR               1 HEAD_PRIMES$

  ****  Section 019 LblCom CUR_LOOP_LEVEL

  ****  Scalars and arrays  ****
OctLoc.c.b A Datatyp(siz) R M Lvl/name                 OctLoc.c.b A Datatyp(siz) R M Lvl/name

     0-0-0/w SBIN              1 CUR_LOOP_LEVEL

  ****  Section 020 LblCom PEPD

  ****  Scalars and arrays  ****
OctLoc.c.b A Datatyp(siz) R M Lvl/name                 OctLoc.c.b A Datatyp(siz) R M Lvl/name

     0-0-0/w STRC        r     1 PEPD(0:1)
PL6.E3A0      #008=Z8HU$WALK File=Z8HU.:Z8A6TSI                                  SAT 08/09/97 13:33 Page:200

  ****  Auto variables  ****

  ****  Scalars and arrays  ****
OctLoc.c.b A Datatyp(siz) R M Lvl/name                 OctLoc.c.b A Datatyp(siz) R M Lvl/name

     3-0-0/w PTR         r     1 @NODE$                    *0-0-0/w PTR         r     1 NODE$

  ****  SYMREF variables  ****

  ****  Scalars and arrays  ****
OctLoc.c.b A Datatyp(siz) R M Lvl/name                 OctLoc.c.b A Datatyp(siz) R M Lvl/name

     0-0-0/w UBIN              1 LTS_STEP(0:37)

  ****  BASED and DCB variables  ****

  ****  Scalars and arrays  ****
OctLoc.c.b A Datatyp(siz) R M Lvl/name                 OctLoc.c.b A Datatyp(siz) R M Lvl/name

     0-0-0/w STRC(396)         1 ALPHABET                   0-0-0/w STRC(144)         1 ALTER_LTS
     0-0-0/w STRC(3672)        1 ALT_KEY                    0-0-0/w STRC(36864)       1 ARGLIST
     0-0-0/w STRC(396)         1 ARRAY                      0-0-0/w STRC(180)         1 ARRAY_PRESET_LTS
     0-0-0/w STRC(288)         1 BASE_LTS                   0-0-0/w STRC(396)         1 BLOCK
     0-0-0/w STRC(144)         1 BT                         0-0-0/w STRC(396)         1 CD
     0-0-0/w STRC(288)         1 CD_LTS                     0-0-0/w CHAR(4096)        1 CHARS
     0-0-0/w STRC(396)         1 CLASS                      0-0-0/w STRC(396)         1 CONDITION
     0-0-0/w STRC(396)         1 CONST                      0-0-0/w STRC(72)          1 CONT
     0-0-0/w STRC(540)         1 CONTROL_NAME_LTS           0-0-0/w STRC(1872)        1 COPY_FILE
     0-0-0/w STRC(396)         1 DB                         0-0-0/w STRC(396)         1 DCB_
     0-0-0/w STRC(108)         1 DEPENDING_SIZE             0-0-0/w STRC(5472)        1 DIMS
     0-0-0/w STRC(396)         1 DML_ITEM                   0-0-0/w STRC(216)         1 DML_REC
     0-0-0/w STRC(180)   r     1 ETT                        0-0-0/w STRC(73836)       1 EVALUATE
     0-0-0/w STRC(396)         1 FD                         0-0-0/w STRC(1692)        1 FILE_LTS
     0-0-0/w STRC(108)         1 INDEXES                    0-0-0/w STRC(360)         1 INIT_LTS
     0-0-0/w STRC(396)         1 INTDEF                     0-0-0/w STRC(180)         1 IO_RESTORE_CHAIN
     0-0-0/w STRC(144)         1 KEY                        0-0-0/w STRC(396)         1 LABEL
PL6.E3A0      #008=Z8HU$WALK File=Z8HU.:Z8A6TSI                                  SAT 08/09/97 13:33 Page:201
     0-0-0/w STRC(36864)       1 LCNST                      0-0-0/w STRC(72)          1 LONG
     0-0-0/w STRC              1 LTS                        0-0-0/w STRC(360)         1 LTSS
     0-0-0/w STRC(36936)       1 LTS_PTR_ARRAY              0-0-0/w STRC(396)         1 MNEMONIC
     0-0-0/w STRC(144)         1 NEL                        0-0-0/w STRC(216)         1 OPEN_LTS
     0-0-0/w STRC(36864)       1 PAGE                       0-0-0/w STRC(396)         1 PARA
     0-0-0/w STRC(144)         1 PRIME                      0-0-0/w STRC(396)         1 PROC_
     0-0-0/w STRC(396)         1 PROC_DEF                   0-0-0/w STRC(900)         1 PROC_SUPP
     0-0-0/w STRC(396)         1 RD                         0-0-0/w STRC(216)   r     1 REF
     0-0-0/w STRC(108)         1 RENAMES                    0-0-0/w STRC(720)         1 REPORT_01_LTS
     0-0-0/w STRC(432)         1 REPORT_ELEM_LTS            0-0-0/w STRC(252)         1 REPORT_GRP_LTS
     0-0-0/w STRC(1332)        1 REPORT_LTS                 0-0-0/w STRC(144)         1 RVA_LTS
     0-0-0/w STRC(396)         1 SCALAR                     0-0-0/w STRC(396)         1 SD
     0-0-0/w STRC(396)         1 SECTION                    0-0-0/w STRC(396)         1 SEGMENT
     0-0-0/w STRC(360)         1 SEGMENT_LTS                0-0-0/w STRC(396)         1 ST
     0-0-0/w STRC(252)         1 SUM_LTS                    0-0-0/w STRC(396)         1 SWITCH
     0-0-0/w STRC(396)         1 SYMBOLIC_CHAR              0-0-0/w STRC(396)         1 SYMDEF_
     0-0-0/w STRC(396)         1 SYMREF_                    0-0-0/w STRC(396)         1 TEMP
     0-0-0/d STRC(612)         1 USE                        0-0-0/w STRC(252)         1 USE_SUPP
     0-0-0/w STRC(396)   r     1 VARIABLE


   Procedure Z8HU$WALK requires 113 words for executable code.
   Procedure Z8HU$WALK requires 8 words of local(AUTO) storage.

    No errors detected in file Z8HU.:Z8A6TSI    .
