PL6.E3A0      #005=Z8IL$PRINT_ERROR File=Z8IL.:Z8A6TSI                           SAT 08/09/97 13:31 Page:179
     1149        1        /*T***********************************************************/
     1150        2        /*T*                                                         */
     1151        3        /*T* Copyright (c) Bull HN Information Systems Inc., 1997    */
     1152        4        /*T*                                                         */
     1153        5        /*T***********************************************************/
     1154        6        Z8IL$PRINT_ERROR: PROC (OUTPUT_ERR_1, OUTPUT_ERR_2);
     1155        7
     1156        8        /*D*
     1157        9               NAME: Z8IL$PRINT_ERROR
     1158       10        DESCRIPTION: Print all errors on LO & DO files which pertain
     1159       11                       to the last source line printed.
     1160       12        */
     1161       13
     1162       14        /* OUTPUT_ERR_N routines are routines called with:
     1163       15                addr of line
     1164       16                length of line
     1165       17        to output error text.  They may be left out of the
     1166       18        call to PRINT_ERROR if not used.
     1167       19        */
     1168       20    1   DCL OUTPUT_ERR_1 EPTR;
     1169       21    1   DCL OUTPUT_ERR_2 EPTR;
     1170       22
     1171       23
     1172       24        %EQU PHASE = 5;
     1173       25        %INCLUDE Z8A_DEFC;
     1174       93        %INCLUDE Z8A_SUPP_MAC;
     1175     2493        %INCLUDE Z9A_FLAGS;
     1176     2507        %INCLUDE Z8A_COMCOM;
     1177     3157        %INCLUDE Z9I_PREPROC;
     1178     3177        %INCLUDE Z8I_LISTING;
     1179     3265        %INCLUDE Z8A_ERR;
     1180     3334        %INCLUDE Z8A_DNT;
     1181     3555        %INCLUDE Z8E_BUFFERS;
     1182     3745        %INCLUDE Z8A_ERR_NUMS;
     1183     4509        %INCLUDE Z8I_ERR_TXT;
     1184    30803
     1185    30804    1   DCL COMP_SUMMARY_COUNT(0:5) SBIN WORD EXT;
PL6.E3A0      #005=Z8IL$PRINT_ERROR File=Z8IL.:Z8A6TSI                           SAT 08/09/97 13:31 Page:180
     1186    30805
     1187    30806    1   DCL ERR_TABLES(0:9) PTR CONSTANT
     1188    30807    1          INIT (ADDR(ERRMSG_TABLE_ADDRS_0),
     1189    30808    1                ADDR(ERRMSG_TABLE_ADDRS_1),
     1190    30809    1                ADDR(ERRMSG_TABLE_ADDRS_2),
     1191    30810    1                ADDR(ERRMSG_TABLE_ADDRS_3),
     1192    30811    1                ADDR(ERRMSG_TABLE_ADDRS_4),
     1193    30812    1                ADDR(ERRMSG_TABLE_ADDRS_5),
     1194    30813    1                ADDR(ERRMSG_TABLE_ADDRS_6),
     1195    30814    1                ADDR(ERRMSG_TABLE_ADDRS_7),
     1196    30815    1                ADDR(ERRMSG_TABLE_ADDRS_8),
     1197    30816    1                ADDR(ERRMSG_TABLE_ADDRS_9));
     1198    30817
     1199    30818    1   DCL ERR_TABLE_LENGTH(0:9) SBIN WORD CONSTANT
     1200    30819    1          INIT (LENGTHW(ERRMSG_TABLE_ADDRS_0),
     1201    30820    1                LENGTHW(ERRMSG_TABLE_ADDRS_1),
     1202    30821    1                LENGTHW(ERRMSG_TABLE_ADDRS_2),
     1203    30822    1                LENGTHW(ERRMSG_TABLE_ADDRS_3),
     1204    30823    1                LENGTHW(ERRMSG_TABLE_ADDRS_4),
     1205    30824    1                LENGTHW(ERRMSG_TABLE_ADDRS_5),
     1206    30825    1                LENGTHW(ERRMSG_TABLE_ADDRS_6),
     1207    30826    1                LENGTHW(ERRMSG_TABLE_ADDRS_7),
     1208    30827    1                LENGTHW(ERRMSG_TABLE_ADDRS_8),
     1209    30828    1                LENGTHW(ERRMSG_TABLE_ADDRS_9));
     1210    30829
     1211    30830    1   DCL NTABLE           SBIN WORD;
     1212    30831
     1213    30832        %EQU MSG_ARRAY_LEN = 20;
     1214    30833    1   DCL 1 MSG_ARRAY,
     1215    30834    1         2 NUM  (0:%MSG_ARRAY_LEN) SBIN WORD,
     1216    30835    1         2 ERR$ (0:%MSG_ARRAY_LEN) PTR;
     1217    30836
     1218    30837    1   DCL ERR_COL_LINE CHAR(%MAX_INPUT_LINE_LENGTH) ;
     1219    30838    1   DCL ERR_COL (0:%(CHARTEXT(BINCHAR(MAX_INPUT_LINE_LENGTH-1,3))))
     1220    30839    1                  REDEF ERR_COL_LINE CHAR(1) ;
     1221    30840    1   DCL MAX_ERR_COL UBIN;  /* LARGEST COLUMN FLAGGED */
     1222    30841    1   DCL ACCUM_NUM_ERRORS SBIN WORD;
PL6.E3A0      #005=Z8IL$PRINT_ERROR File=Z8IL.:Z8A6TSI                           SAT 08/09/97 13:31 Page:181
     1223    30842    1   DCL LAST_MSG_NUM SBIN WORD;
     1224    30843
     1225    30844    1   DCL DEFAULT_MSG CHAR(70) CONSTANT INIT
     1226    30845    1          ('Error message text is not available - Z8IL needs recompilation.');
     1227    30846
     1228    30847    1   DCL ERROR_FOR_LINE BIT(1);   /* If error flagged for current line */
     1229    30848
     1230    30849        %EJECT;
PL6.E3A0      #005=Z8IL$PRINT_ERROR File=Z8IL.:Z8A6TSI                           SAT 08/09/97 13:31 Page:182
     1231    30850
     1232    30851    1   PRINT_ONE_ERROR: PROC (N);     /* in Z8IL$PRODUCE_LISTINGS
     1233    30852                                                Z8IL$PRINT_ERROR        */
     1234    30853
     1235    30854    2          DCL N SBIN WORD; /* sequence number of error */
     1236    30855
     1237    30856        /*I*
     1238    30857               NAME: PRINT_ONE_ERROR
     1239    30858        DESCRIPTION: Print one error, the Nth, from an array of errors,
     1240    30859                       on the LO & DO files.  N is passed as a parameter.
     1241    30860        */
     1242    30861               /* Print one error line */
     1243    30862
     1244    30863    2   DCL ERRP$ PTR;
     1245    30864
     1246    30865        %EQU MAX_LENGTH_ERR = 300;
     1247    30866
     1248    30867    2   DCL 1 ERR_LINE_FORMAT ,
     1249    30868    2         2 STARS  CHAR(5),
     1250    30869              %IF CP6;
     1251    30870    2         2 BLK1   CHAR(1),
     1252    30871    2         2 SEQNUM CHAR(1),
     1253    30872              %ENDIF;
     1254    30873              %IF GCOS;
     1257    30876              %ENDIF;
     1258    30877    2         2 BLK3   CHAR(1),
     1259    30878    2         2 ERRNUM CHAR(3),
     1260    30879    2         2 BLK2   CHAR(2),
     1261    30880    2         2 TXT    CHAR(%MAX_LENGTH_ERR);
     1262    30881
     1263    30882    2   DCL TXT_LEN_TOT   SBIN WORD;
     1264    30883    2   DCL NERR_IN_TABLE SBIN WORD;
     1265    30884    2   DCL ERR_TABLE$    PTR;
     1266    30885    2   DCL BASED_ERR_TABLE(0:100) PTR BASED(ERR_TABLE$);
     1267    30886    2   DCL MSG_LENGTH    SBIN WORD;
     1268    30887    2   DCL MSG$          PTR;
     1269    30888
PL6.E3A0      #005=Z8IL$PRINT_ERROR File=Z8IL.:Z8A6TSI                           SAT 08/09/97 13:31 Page:183
     1270    30889    2   DCL STARS(0:5) CHAR(5) CONSTANT INIT (
     1271    30890               %IF CP6;
     1272    30891    2          '     ',
     1273    30892    2          '*    ',
     1274    30893    2          '**   ',
     1275    30894    2          '***  ',
     1276    30895    2          '**** ',
     1277    30896    2          '*****');
     1278    30897               %ENDIF;
     1279    30898               %IF GCOS;
     1286    30905               %ENDIF;
     1287    30906
     1288    30907    2   DCL ERR_TXT CHAR(MSG_LENGTH) BASED (MSG$);
     1289    30908
     1290    30909        %EJECT;
PL6.E3A0      #005=Z8IL$PRINT_ERROR File=Z8IL.:Z8A6TSI                           SAT 08/09/97 13:31 Page:184
     1291    30910
     1292    30911    2   MERGE_PLUG_INS: PROC;     /* in Z8IL$PRODUCE_LISTINGS
     1293    30912                                          Z8IL$PRINT_ERROR
     1294    30913                                            PRINT_ONE_ERROR    */
     1295    30914        /*I*
     1296    30915               NAME: MERGE_PLUG_INS
     1297    30916        DESCRIPTION: Scan the error line for plug in designators (!0..!9)
     1298    30917                       and expand the error with these plug in values.
     1299    30918        */
     1300    30919
     1301    30920
     1302    30921    3   DCL TXT_LEN_REM  SBIN WORD;
     1303    30922    3   DCL REM_MSG      CHAR(MSG_LENGTH) BASED(MSG$);
     1304    30923    3   DCL PAR_MSG_LEN  SBIN WORD;
     1305    30924    3   DCL PAR_MSG      CHAR(PAR_MSG_LEN) BASED(MSG$);
     1306    30925    3   DCL PLUG$        PTR;
     1307    30926    3   DCL PLUG_CHAR    CHAR(1) BASED(PLUG$);
     1308    30927    3   DCL PLUG_NUM     SBIN WORD;
     1309    30928    3   DCL PLUG_LEN     SBIN WORD;
     1310    30929
     1311    30930    3   TXT_LEN_TOT = 0;
     1312    30931    3   TXT_LEN_REM = LENGTHC(ERR_LINE_FORMAT.TXT);
     1313    30932
     1314    30933               /* Substitute plug ins */
     1315    30934
     1316    30935    4   DO WHILE((TXT_LEN_REM > 0) AND (MSG_LENGTH > 0));
     1317    30936
     1318    30937               /* Find !#, if any */
     1319    30938
     1320    30939    4     CALL INDEX(PAR_MSG_LEN, '!', REM_MSG);
     1321    30940
     1322    30941               /* Add error text so far */
     1323    30942
     1324    30943    4     CALL INSERT(ERR_LINE_FORMAT.TXT,
     1325    30944    4                 TXT_LEN_TOT,
     1326    30945    4                 MINIMUM(TXT_LEN_REM, PAR_MSG_LEN),
     1327    30946    4                 PAR_MSG);
PL6.E3A0      #005=Z8IL$PRINT_ERROR File=Z8IL.:Z8A6TSI                           SAT 08/09/97 13:31 Page:185
     1328    30947    4     TXT_LEN_TOT = TXT_LEN_TOT + MINIMUM(TXT_LEN_REM, PAR_MSG_LEN);
     1329    30948    4     TXT_LEN_REM = TXT_LEN_REM - MINIMUM(TXT_LEN_REM, PAR_MSG_LEN);
     1330    30949    4     IF PAR_MSG_LEN < MSG_LENGTH - 1 THEN
     1331    30950    5       DO;
     1332    30951    5         PLUG$ = PINCRC(MSG$, PAR_MSG_LEN + 1);
     1333    30952    5         IF (PLUG_CHAR >= '0') AND (PLUG_CHAR <= '9') THEN
     1334    30953    6           DO;
     1335    30954    6             CALL CHARBIN(PLUG_NUM, PLUG_CHAR);
     1336    30955
     1337    30956                  /* Add lexeme to error text */
     1338    30957
     1339    30958    6             PLUG_LEN = MINIMUM(TXT_LEN_REM,
     1340    30959    6                                ERRP$->ERR.LEXEME$(PLUG_NUM)->DNT.TEXT.LENGTH);
     1341    30960    6             CALL INSERT(ERR_LINE_FORMAT.TXT,
     1342    30961    6                         TXT_LEN_TOT,
     1343    30962    6                         PLUG_LEN,
     1344    30963    6                         ERRP$->ERR.LEXEME$(PLUG_NUM)->DNT.TEXT.NAME);
     1345    30964    6             TXT_LEN_TOT = TXT_LEN_TOT + PLUG_LEN;
     1346    30965    6             TXT_LEN_REM = TXT_LEN_REM - PLUG_LEN;
     1347    30966    6           END; /* DO */
     1348    30967
     1349    30968                   /* Skip !# in error text */
     1350    30969
     1351    30970    5         MSG$         = PINCRC(MSG$, PAR_MSG_LEN + 2);
     1352    30971    5         MSG_LENGTH   = MSG_LENGTH - PAR_MSG_LEN - 2;
     1353    30972    5       END; /* DO */
     1354    30973    4     ELSE
     1355    30974    4       MSG_LENGTH = 0;
     1356    30975    4   END; /* WHILE */
     1357    30976
     1358    30977    3   END MERGE_PLUG_INS;
     1359    30978
     1360    30979        %EJECT;
PL6.E3A0      #005=Z8IL$PRINT_ERROR File=Z8IL.:Z8A6TSI                           SAT 08/09/97 13:31 Page:186
     1361    30980               /* Body of PRINT_ONE_ERROR */
     1362    30981
     1363    30982
     1364    30983    2   ERRP$          = MSG_ARRAY.ERR$(N);
     1365    30984    2   NERR_IN_TABLE  = MOD(ERRP$->ERR.NUMBER, 100);
     1366    30985    2   NTABLE         = ERRP$->ERR.NUMBER / 100;
     1367    30986    2   ERR_TABLE$     = ERR_TABLES(NTABLE);
     1368    30987
     1369    30988    2   IF NERR_IN_TABLE < ERR_TABLE_LENGTH(NTABLE) - 1 THEN
     1370    30989    3     DO;
     1371    30990    3       MSG_LENGTH = POFFC(BASED_ERR_TABLE(NERR_IN_TABLE+1),
     1372    30991    3                          BASED_ERR_TABLE(NERR_IN_TABLE));
     1373    30992    3       MSG$       = BASED_ERR_TABLE(NERR_IN_TABLE);
     1374    30993    3     END;
     1375    30994               /* Build error print line */
     1376    30995
     1377    30996    2   ELSE
     1378    30997    3     DO;
     1379    30998    3       MSG$       = ADDR(DEFAULT_MSG);
     1380    30999    3       MSG_LENGTH = LENGTHC(DEFAULT_MSG);
     1381    31000    3     END;
     1382    31001
     1383    31002    2   ERR_LINE_FORMAT.STARS = STARS(SEVERITY_OF_ERROR(NTABLE));
     1384    31003    2   ERR_LINE_FORMAT.BLK1  = ' ';
     1385    31004    2   ERR_LINE_FORMAT.BLK2  = ' ';
     1386    31005    2   ERR_LINE_FORMAT.BLK3  = ' ';
     1387    31006
     1388    31007    2   CALL BINCHAR(ERR_LINE_FORMAT.ERRNUM, ERRP$->ERR.NUMBER);
     1389    31008    2   CALL BINCHAR(ERR_LINE_FORMAT.SEQNUM, MSG_ARRAY.NUM(N));
     1390    31009
     1391    31010    2   CALL MERGE_PLUG_INS;
     1392    31011
     1393    31012    2   IF ADDR(OUTPUT_ERR_1) ~= ADDR(NIL) THEN
     1394    31013    2     CALL OUTPUT_ERR_1(ADDR(ERR_LINE_FORMAT),
     1395    31014    2                            TXT_LEN_TOT+LENGTHC(ERR_LINE_FORMAT)-%MAX_LENGTH_ERR);
     1396    31015
     1397    31016    2   IF ADDR(OUTPUT_ERR_2) ~= ADDR(NIL) THEN
PL6.E3A0      #005=Z8IL$PRINT_ERROR File=Z8IL.:Z8A6TSI                           SAT 08/09/97 13:31 Page:187
     1398    31017    2     CALL OUTPUT_ERR_2(ADDR(ERR_LINE_FORMAT),
     1399    31018    2                            TXT_LEN_TOT+LENGTHC(ERR_LINE_FORMAT)-%MAX_LENGTH_ERR);
     1400    31019    2   END PRINT_ONE_ERROR;
     1401    31020
     1402    31021        %EJECT;
PL6.E3A0      #005=Z8IL$PRINT_ERROR File=Z8IL.:Z8A6TSI                           SAT 08/09/97 13:31 Page:188
     1403    31022
     1404    31023    1   DUMP_ERRORS: PROC;     /* in Z8IL$PRODUCE_LISTINGS
     1405    31024                                        Z8IL$PRINT_ERROR      */
     1406    31025
     1407    31026        /*I*
     1408    31027               NAME: DUMP_ERRORS
     1409    31028        DESCRIPTION: Errors are accumulated for a particular source line in
     1410    31029                       order to mark each column of the source line where the
     1411    31030                       the error occurred.  DUMP_errors prints these source
     1412    31031                       lines.
     1413    31032        */
     1414    31033
     1415    31034    2   DCL I SBIN WORD;
     1416    31035
     1417    31036    2   IF ADDR(OUTPUT_ERR_1) ~= ADDR(NIL) THEN
     1418    31037    2     CALL OUTPUT_ERR_1(ADDR(ERR_COL_LINE), MAX_ERR_COL+1);
     1419    31038    2   IF ADDR(OUTPUT_ERR_2) ~= ADDR(NIL) THEN
     1420    31039    2     CALL OUTPUT_ERR_2(ADDR(ERR_COL_LINE), MAX_ERR_COL+1);
     1421    31040    2   ERR_COL_LINE = ' ';
     1422    31041    2   MAX_ERR_COL = 0;
     1423    31042    3   DO I=1 TO ACCUM_NUM_ERRORS;
     1424    31043    3     CALL PRINT_ONE_ERROR(I);
     1425    31044    3   END;  /* DO */
     1426    31045
     1427    31046    2   ACCUM_NUM_ERRORS = 0;
     1428    31047    2   LAST_MSG_NUM = 0;
     1429    31048
     1430    31049    2   END DUMP_ERRORS;
     1431    31050
     1432    31051
     1433    31052        %EJECT;
PL6.E3A0      #005=Z8IL$PRINT_ERROR File=Z8IL.:Z8A6TSI                           SAT 08/09/97 13:31 Page:189
     1434    31053    1   MARK_ERROR: PROC;     /* in Z8IL$PRODUCE_LISTINGS
     1435    31054                                      Z8IL$PRINT_ERROR         */
     1436    31055
     1437    31056        /*I*
     1438    31057               NAME: MARK_ERROR
     1439    31058        DESCRIPTION: Mark an error on the line and column where it occurred,
     1440    31059                       and accumulate the error to be printed by DUMP_ERRORS.
     1441    31060        */
     1442    31061
     1443    31062
     1444    31063        %EQU ERR_COL_OFFSET = 18;
     1445    31064
     1446    31065        /* Check for table overflow */
     1447    31066
     1448    31067    2   IF ACCUM_NUM_ERRORS >= %MSG_ARRAY_LEN THEN
     1449    31068    2     CALL DUMP_ERRORS;
     1450    31069
     1451    31070    2   IF ERR_COL(ERR$->ERR.COLUMN + %ERR_COL_OFFSET) ~= ' ' THEN
     1452    31071    3     DO;
     1453    31072    3        ACCUM_NUM_ERRORS = ACCUM_NUM_ERRORS + 1;
     1454    31073    3        MSG_ARRAY.ERR$(ACCUM_NUM_ERRORS) = ERR$;
     1455    31074    3        CALL CHARBIN(MSG_ARRAY.NUM(ACCUM_NUM_ERRORS),
     1456    31075    3                     ERR_COL(ERR$ -> ERR.COLUMN + %ERR_COL_OFFSET));
     1457    31076    3     END;
     1458    31077    2   ELSE
     1459    31078    3     DO;
     1460    31079    3       IF LAST_MSG_NUM = 9 THEN
     1461    31080    3         CALL DUMP_ERRORS;
     1462    31081    3       ACCUM_NUM_ERRORS = ACCUM_NUM_ERRORS + 1;
     1463    31082    3       MSG_ARRAY.ERR$(ACCUM_NUM_ERRORS) = ERR$;
     1464    31083    3       LAST_MSG_NUM = LAST_MSG_NUM + 1;
     1465    31084    3       MSG_ARRAY.NUM(ACCUM_NUM_ERRORS) = LAST_MSG_NUM;
     1466    31085    3       IF ERR$ -> ERR.COLUMN > 0 THEN
     1467    31086    4         DO;
     1468    31087    4           CALL BINCHAR(ERR_COL(ERR$ -> ERR.COLUMN + %ERR_COL_OFFSET),
     1469    31088    4                        LAST_MSG_NUM);
     1470    31089    4           MAX_ERR_COL = MAXIMUM (MAX_ERR_COL,
PL6.E3A0      #005=Z8IL$PRINT_ERROR File=Z8IL.:Z8A6TSI                           SAT 08/09/97 13:31 Page:190
     1471    31090    4                                  ERR$ -> ERR.COLUMN + %ERR_COL_OFFSET);
     1472    31091    4         END;
     1473    31092    3     END;
     1474    31093
     1475    31094    2   END MARK_ERROR;
     1476    31095
     1477    31096        %EJECT;
PL6.E3A0      #005=Z8IL$PRINT_ERROR File=Z8IL.:Z8A6TSI                           SAT 08/09/97 13:31 Page:191
     1478    31097    1   CHECK_ERRORS_FOR_LINE: PROC;
     1479    31098
     1480    31099        /*I*
     1481    31100               NAME: CHECK_ERRORS_FOR_LINE
     1482    31101        DESCRIPTION:
     1483    31102                  Check for errors on the current line; this routine
     1484    31103                  is used for the while loops in the routine Z8IL$PRINT_ERROR. */
     1485    31104
     1486    31105    2   IF ERR$ ~= ADDR(NIL) THEN
     1487    31106    2     ERROR_FOR_LINE = (ERR$->ERR.LINE <= FILL_BUFFER.ISN);
     1488    31107    2   ELSE
     1489    31108    2     ERROR_FOR_LINE = '0'B;
     1490    31109
     1491    31110    2   END CHECK_ERRORS_FOR_LINE;
     1492    31111        %EJECT;
PL6.E3A0      #005=Z8IL$PRINT_ERROR File=Z8IL.:Z8A6TSI                           SAT 08/09/97 13:31 Page:192
     1493    31112               /* Body of Z8IL$PRINT_ERROR */
     1494    31113
     1495    31114
     1496    31115    1   ACCUM_NUM_ERRORS = 0;
     1497    31116    1   LAST_MSG_NUM = 0;
     1498    31117    1   ERR_COL_LINE = ' ';
     1499    31118    1   MAX_ERR_COL = 0;
     1500    31119
     1501    31120        /* Process all errors for this line */
     1502    31121
     1503    31122    1   CALL CHECK_ERRORS_FOR_LINE;
     1504    31123    2   DO WHILE (ERROR_FOR_LINE);
     1505    31124    2     CALL MARK_ERROR;
     1506    31125    2     NTABLE = ERR$->ERR.NUMBER / 100;
     1507    31126    2     COMP_SUMMARY_COUNT(SEVERITY_OF_ERROR(NTABLE)) =
     1508    31127    2           COMP_SUMMARY_COUNT(SEVERITY_OF_ERROR(NTABLE)) + 1;
     1509    31128    2     ERR$ = ERR$->ERR.NEXT;
     1510    31129    2     CALL CHECK_ERRORS_FOR_LINE;
     1511    31130    2   END;
     1512    31131
     1513    31132    1   IF ACCUM_NUM_ERRORS > 0 THEN
     1514    31133    1     CALL DUMP_ERRORS;
     1515    31134    1   IF ADDR(OUTPUT_ERR_1) ~= ADDR(NIL) THEN
     1516    31135    1     CALL OUTPUT_ERR_1(ADDR(BLANK),1);
     1517    31136    1   IF ADDR(OUTPUT_ERR_2) ~= ADDR(NIL) THEN
     1518    31137    1     CALL OUTPUT_ERR_2(ADDR(BLANK),1);
     1519    31138
     1520    31139    1   END Z8IL$PRINT_ERROR;
     1521    31140        %EOD;

PL6.E3A0      #005=Z8IL$PRINT_ERROR File=Z8IL.:Z8A6TSI                           SAT 08/09/97 13:31 Page:193
--  Include file information  --

   Z8I_ERR_SEV.:Z8A6TOU  cannot be made into a system file and is referenced.
   Z8I_ERR_TXT.:Z8A6TOU  cannot be made into a system file and is referenced.
   Z8A_ERR_NUMS.:Z8A6TOU  is referenced.
   Z8E_BUFFERS.:Z8A6TOU  cannot be made into a system file and is referenced.
   Z8A_DNT.:Z8A6TOU  cannot be made into a system file and is referenced.
   Z8A_ERR.:Z8A6TOU  cannot be made into a system file and is referenced.
   Z8I_LISTING.:Z8A6TOU  cannot be made into a system file and is referenced.
   Z9I_PREPROC.:Z8A6TOU  is referenced.
   Z8A_COMCOM.:Z8A6TOU  cannot be made into a system file and is referenced.
   Z9A_FLAGS.:Z8A6TOU  is referenced.
   X8A_COM_MACS.:X8A6TOU  is referenced.
   Z8A_NAMES.:Z8A6TOU  is referenced.
   Z8A_SUPP_MAC.:Z8A6TOU  is referenced.
   Z8A_DEFC.:Z8A6TOU  cannot be made into a system file and is referenced.
      No diagnostics issued in procedure Z8IL$PRINT_ERROR.

   Procedure Z8IL$PRINT_ERROR requires 391 words for executable code.
   Procedure Z8IL$PRINT_ERROR requires 218 words of local(AUTO) storage.

PL6.E3A0      #005=Z8IL$PRINT_ERROR File=Z8IL.:Z8A6TSI                           SAT 08/09/97 13:31 Page:194

 Object Unit name= Z8IL$PRINT_ERROR                           File name= Z8IL.:Z8A6TOU
 UTS= AUG 09 '97 13:31:39.88 SAT                              Compiler= PL-6/E31         Sev=      00
 SharedLib= :SHARED_SYSTEM                                    Alt SharedLib=


    ****  Control sections  ****

 Sect   Type Bound  Init  Size OctSiz  Section name(segment info)
    0  LblCom even  none     1      1  ITERATION
    1  LblCom even  none     1      1  SUB_HEADING_ADDR
    2  LblCom even  none     1      1  SUB_HEADING_LEN
    3  LblCom even  none     1      1  SUB_HEADING_ADDR1
    4  LblCom even  none     1      1  SUB_HEADING_LEN1
    5  LblCom even  none     1      1  SUB_HEADING_ADDR2
    6  LblCom even  none     1      1  SUB_HEADING_LEN2
    7  LblCom even  none     1      1  MAX_LINES_PER_PAGE
    8  LblCom even  none     1      1  LISTING_LINES_ON_PAGE
    9  LblCom even  none     1      1  LISTING_PAGE_NUMBER
   10  LblCom even  none    28     34  PLINE
   11  LblCom even  none     1      1  PLINE_LEN
   12  LblCom even  none     1      1  ERR$
   13  LblCom even  none     1      1  ERR_HEAD
   14  LblCom even  none     1      1  ERR_TAIL
   15  LblCom even  none     1      1  MAX_ERROR_GENERATED
   16  LblCom even  none     5      5  ERR_
   17  LblCom even  none     1      1  DNT$
   18  LblCom even  none     5      5  DNT_
   19  LblCom even  none     1      1  DNT_BUCKET_NUMBER
   20  LblCom even  none     1      1  DNT_OF_1$
   21  LblCom even  none     1      1  SCANNER_STATE
   22  LblCom even  none     1      1  CURRENT_BUFFER$
   23  LblCom even  none     1      1  LOOKAHEAD_BUFFER$
   24  LblCom even  none     1      1  CURRENT_LINE_LEVEL
   25  LblCom even  none     1      1  LINE_LIST$
   26  LblCom even  none     7      7  BUFFER
   27  LblCom even  none     1      1  ORIGINAL_ISN
   28  LblCom even  none     1      1  EXPANDED_ISN
PL6.E3A0      #005=Z8IL$PRINT_ERROR File=Z8IL.:Z8A6TSI                           SAT 08/09/97 13:31 Page:195
   29  LblCom even  none     1      1  ISN_FOR_EXP_SRC
   30  RoData even  UTS  11203  25703  Z8IL$PRINT_ERROR
   31  LblCom even  none     6      6  COMP_SUMMARY_COUNT
   32   Proc  even  none   391    607  Z8IL$PRINT_ERROR
   33  RoData even  none    10     12  Z8IL$PRINT_ERROR

    ****  Entry defs  ****

                              Check   Calling
                             calling  sequence
  Sect OctLoc Primary Altret sequence   type   Parms  Name
    32      0   yes            yes      Std        2  Z8IL$PRINT_ERROR

  ****  Entry refs  ****

         Check        Calling
        calling       sequence
Altret sequence SRef   type   Args  Name
                       nStd      0 X66_AUTO_2
                       nStd      0 X66_ARET

  ****  Data refs  ****

  Flags:  r = read only, s = secondary
Flgs Name                             Flgs Name                             Flgs Name
     COMCOM                           r    DEF_LISTING_SUB_HEADING          r    BLANK
r    PLINE_PTR$

  ****  Segment refs  ****

  Flags:  r = read only, s = secondary
Flgs Name                             Flgs Name                             Flgs Name
     NULLSID                               ISSID
PL6.E3A0      #005=Z8IL$PRINT_ERROR File=Z8IL.:Z8A6TSI                           SAT 08/09/97 13:31 Page:196


     1149        1        /*T***********************************************************/
     1150        2        /*T*                                                         */
     1151        3        /*T* Copyright (c) Bull HN Information Systems Inc., 1997    */
     1152        4        /*T*                                                         */
     1153        5        /*T***********************************************************/
     1154        6        Z8IL$PRINT_ERROR: PROC (OUTPUT_ERR_1, OUTPUT_ERR_2);

      6 32 000000   000000 700200 xent  Z8IL$PRINT_* TSX0  ! X66_AUTO_2
        32 000001   000332 000002                    ZERO    218,2
        32 000002   000507 710000 32                 TRA     s:31115

     1155        7
     1156        8        /*D*
     1157        9               NAME: Z8IL$PRINT_ERROR
     1158       10        DESCRIPTION: Print all errors on LO & DO files which pertain
     1159       11                       to the last source line printed.
     1160       12        */
     1161       13
     1162       14        /* OUTPUT_ERR_N routines are routines called with:
     1163       15                addr of line
     1164       16                length of line
     1165       17        to output error text.  They may be left out of the
     1166       18        call to PRINT_ERROR if not used.
     1167       19        */
     1168       20    1   DCL OUTPUT_ERR_1 EPTR;
     1169       21    1   DCL OUTPUT_ERR_2 EPTR;
     1170       22
     1171       23
     1172       24        %EQU PHASE = 5;
     1173       25        %INCLUDE Z8A_DEFC;
     1174       93        %INCLUDE Z8A_SUPP_MAC;
     1175     2493        %INCLUDE Z9A_FLAGS;
     1176     2507        %INCLUDE Z8A_COMCOM;
     1177     3157        %INCLUDE Z9I_PREPROC;
     1178     3177        %INCLUDE Z8I_LISTING;
     1179     3265        %INCLUDE Z8A_ERR;
PL6.E3A0      #005=Z8IL$PRINT_ERROR File=Z8IL.:Z8A6TSI                           SAT 08/09/97 13:31 Page:197
     1180     3334        %INCLUDE Z8A_DNT;
     1181     3555        %INCLUDE Z8E_BUFFERS;
     1182     3745        %INCLUDE Z8A_ERR_NUMS;
     1183     4509        %INCLUDE Z8I_ERR_TXT;
     1184    30803
     1185    30804    1   DCL COMP_SUMMARY_COUNT(0:5) SBIN WORD EXT;
     1186    30805
     1187    30806    1   DCL ERR_TABLES(0:9) PTR CONSTANT
     1188    30807    1          INIT (ADDR(ERRMSG_TABLE_ADDRS_0),
     1189    30808    1                ADDR(ERRMSG_TABLE_ADDRS_1),
     1190    30809    1                ADDR(ERRMSG_TABLE_ADDRS_2),
     1191    30810    1                ADDR(ERRMSG_TABLE_ADDRS_3),
     1192    30811    1                ADDR(ERRMSG_TABLE_ADDRS_4),
     1193    30812    1                ADDR(ERRMSG_TABLE_ADDRS_5),
     1194    30813    1                ADDR(ERRMSG_TABLE_ADDRS_6),
     1195    30814    1                ADDR(ERRMSG_TABLE_ADDRS_7),
     1196    30815    1                ADDR(ERRMSG_TABLE_ADDRS_8),
     1197    30816    1                ADDR(ERRMSG_TABLE_ADDRS_9));
     1198    30817
     1199    30818    1   DCL ERR_TABLE_LENGTH(0:9) SBIN WORD CONSTANT
     1200    30819    1          INIT (LENGTHW(ERRMSG_TABLE_ADDRS_0),
     1201    30820    1                LENGTHW(ERRMSG_TABLE_ADDRS_1),
     1202    30821    1                LENGTHW(ERRMSG_TABLE_ADDRS_2),
     1203    30822    1                LENGTHW(ERRMSG_TABLE_ADDRS_3),
     1204    30823    1                LENGTHW(ERRMSG_TABLE_ADDRS_4),
     1205    30824    1                LENGTHW(ERRMSG_TABLE_ADDRS_5),
     1206    30825    1                LENGTHW(ERRMSG_TABLE_ADDRS_6),
     1207    30826    1                LENGTHW(ERRMSG_TABLE_ADDRS_7),
     1208    30827    1                LENGTHW(ERRMSG_TABLE_ADDRS_8),
     1209    30828    1                LENGTHW(ERRMSG_TABLE_ADDRS_9));
     1210    30829
     1211    30830    1   DCL NTABLE           SBIN WORD;
     1212    30831
     1213    30832        %EQU MSG_ARRAY_LEN = 20;
     1214    30833    1   DCL 1 MSG_ARRAY,
     1215    30834    1         2 NUM  (0:%MSG_ARRAY_LEN) SBIN WORD,
     1216    30835    1         2 ERR$ (0:%MSG_ARRAY_LEN) PTR;
PL6.E3A0      #005=Z8IL$PRINT_ERROR File=Z8IL.:Z8A6TSI                           SAT 08/09/97 13:31 Page:198
     1217    30836
     1218    30837    1   DCL ERR_COL_LINE CHAR(%MAX_INPUT_LINE_LENGTH) ;
     1219    30838    1   DCL ERR_COL (0:%(CHARTEXT(BINCHAR(MAX_INPUT_LINE_LENGTH-1,3))))
     1220    30839    1                  REDEF ERR_COL_LINE CHAR(1) ;
     1221    30840    1   DCL MAX_ERR_COL UBIN;  /* LARGEST COLUMN FLAGGED */
     1222    30841    1   DCL ACCUM_NUM_ERRORS SBIN WORD;
     1223    30842    1   DCL LAST_MSG_NUM SBIN WORD;
     1224    30843
     1225    30844    1   DCL DEFAULT_MSG CHAR(70) CONSTANT INIT
     1226    30845    1          ('Error message text is not available - Z8IL needs recompilation.');
     1227    30846
     1228    30847    1   DCL ERROR_FOR_LINE BIT(1);   /* If error flagged for current line */
     1229    30848
     1230    30849        %EJECT;
PL6.E3A0      #005=Z8IL$PRINT_ERROR File=Z8IL.:Z8A6TSI                           SAT 08/09/97 13:31 Page:199
     1231    30850
     1232    30851    1   PRINT_ONE_ERROR: PROC (N);     /* in Z8IL$PRODUCE_LISTINGS

  30851 32 000003   200170 741300       PRINT_ONE_E* STX1  ! I+1,,AUTO
        32 000004   000144 710000 32                 TRA     s:30983

     1233    30852                                                Z8IL$PRINT_ERROR        */
     1234    30853
     1235    30854    2          DCL N SBIN WORD; /* sequence number of error */
     1236    30855
     1237    30856        /*I*
     1238    30857               NAME: PRINT_ONE_ERROR
     1239    30858        DESCRIPTION: Print one error, the Nth, from an array of errors,
     1240    30859                       on the LO & DO files.  N is passed as a parameter.
     1241    30860        */
     1242    30861               /* Print one error line */
     1243    30862
     1244    30863    2   DCL ERRP$ PTR;
     1245    30864
     1246    30865        %EQU MAX_LENGTH_ERR = 300;
     1247    30866
     1248    30867    2   DCL 1 ERR_LINE_FORMAT ,
     1249    30868    2         2 STARS  CHAR(5),
     1250    30869              %IF CP6;
     1251    30870    2         2 BLK1   CHAR(1),
     1252    30871    2         2 SEQNUM CHAR(1),
     1253    30872              %ENDIF;
     1254    30873              %IF GCOS;
     1257    30876              %ENDIF;
     1258    30877    2         2 BLK3   CHAR(1),
     1259    30878    2         2 ERRNUM CHAR(3),
     1260    30879    2         2 BLK2   CHAR(2),
     1261    30880    2         2 TXT    CHAR(%MAX_LENGTH_ERR);
     1262    30881
     1263    30882    2   DCL TXT_LEN_TOT   SBIN WORD;
     1264    30883    2   DCL NERR_IN_TABLE SBIN WORD;
     1265    30884    2   DCL ERR_TABLE$    PTR;
PL6.E3A0      #005=Z8IL$PRINT_ERROR File=Z8IL.:Z8A6TSI                           SAT 08/09/97 13:31 Page:200
     1266    30885    2   DCL BASED_ERR_TABLE(0:100) PTR BASED(ERR_TABLE$);
     1267    30886    2   DCL MSG_LENGTH    SBIN WORD;
     1268    30887    2   DCL MSG$          PTR;
     1269    30888
     1270    30889    2   DCL STARS(0:5) CHAR(5) CONSTANT INIT (
     1271    30890               %IF CP6;
     1272    30891    2          '     ',
     1273    30892    2          '*    ',
     1274    30893    2          '**   ',
     1275    30894    2          '***  ',
     1276    30895    2          '**** ',
     1277    30896    2          '*****');
     1278    30897               %ENDIF;
     1279    30898               %IF GCOS;
     1286    30905               %ENDIF;
     1287    30906
     1288    30907    2   DCL ERR_TXT CHAR(MSG_LENGTH) BASED (MSG$);
     1289    30908
     1290    30909        %EJECT;
PL6.E3A0      #005=Z8IL$PRINT_ERROR File=Z8IL.:Z8A6TSI                           SAT 08/09/97 13:31 Page:201
     1291    30910
     1292    30911    2   MERGE_PLUG_INS: PROC;     /* in Z8IL$PRODUCE_LISTINGS

  30911 32 000005   200320 741300       MERGE_PLUG_* STX1  ! MSG$+2,,AUTO

     1293    30912                                          Z8IL$PRINT_ERROR
     1294    30913                                            PRINT_ONE_ERROR    */
     1295    30914        /*I*
     1296    30915               NAME: MERGE_PLUG_INS
     1297    30916        DESCRIPTION: Scan the error line for plug in designators (!0..!9)
     1298    30917                       and expand the error with these plug in values.
     1299    30918        */
     1300    30919
     1301    30920
     1302    30921    3   DCL TXT_LEN_REM  SBIN WORD;
     1303    30922    3   DCL REM_MSG      CHAR(MSG_LENGTH) BASED(MSG$);
     1304    30923    3   DCL PAR_MSG_LEN  SBIN WORD;
     1305    30924    3   DCL PAR_MSG      CHAR(PAR_MSG_LEN) BASED(MSG$);
     1306    30925    3   DCL PLUG$        PTR;
     1307    30926    3   DCL PLUG_CHAR    CHAR(1) BASED(PLUG$);
     1308    30927    3   DCL PLUG_NUM     SBIN WORD;
     1309    30928    3   DCL PLUG_LEN     SBIN WORD;
     1310    30929
     1311    30930    3   TXT_LEN_TOT = 0;

  30930 32 000006   200312 450100                    STZ     TXT_LEN_TOT,,AUTO

     1312    30931    3   TXT_LEN_REM = LENGTHC(ERR_LINE_FORMAT.TXT);

  30931 32 000007   000454 235007                    LDA     300,DL
        32 000010   200321 755100                    STA     TXT_LEN_REM,,AUTO

     1313    30932
     1314    30933               /* Substitute plug ins */
     1315    30934
     1316    30935    4   DO WHILE((TXT_LEN_REM > 0) AND (MSG_LENGTH > 0));

PL6.E3A0      #005=Z8IL$PRINT_ERROR File=Z8IL.:Z8A6TSI                           SAT 08/09/97 13:31 Page:202
  30935 32 000011   000136 710000 32                 TRA     s:30975

     1317    30936
     1318    30937               /* Find !#, if any */
     1319    30938
     1320    30939    4     CALL INDEX(PAR_MSG_LEN, '!', REM_MSG);

  30939 32 000012   200316 470500                    LDP0    MSG$,,AUTO
        32 000013   200315 720100                    LXL0    MSG_LENGTH,,AUTO
        32 000014   000000 124540                    SCM     mask='000'O
        32 000015   000000 000010                    ADSC9   0,,PR0                   cn=0,n=*X0
        32 000016   000000 000001 33                 ADSC9   0                        cn=0,n=1
        32 000017   200322 000100                    ARG     PAR_MSG_LEN,,AUTO

     1321    30940
     1322    30941               /* Add error text so far */
     1323    30942
     1324    30943    4     CALL INSERT(ERR_LINE_FORMAT.TXT,

  30943 32 000020   200322 236100                    LDQ     PAR_MSG_LEN,,AUTO
        32 000021   200321 116100                    CMPQ    TXT_LEN_REM,,AUTO
        32 000022   000024 604400 32                 TMOZ    s:30943+4
        32 000023   200321 236100                    LDQ     TXT_LEN_REM,,AUTO
        32 000024   200322 721100                    LXL1    PAR_MSG_LEN,,AUTO
        32 000025   000000 622006                    EAX2    0,QL
        32 000026   200312 235100                    LDA     TXT_LEN_TOT,,AUTO
        32 000027   040145 100540                    MLR     fill='040'O
        32 000030   000000 000011                    ADSC9   0,,PR0                   cn=0,n=*X1
        32 000031   200176 200012                    ADSC9   ERR_LINE_FORMAT+3,A,AUTO cn=1,n=*X2

     1325    30944    4                 TXT_LEN_TOT,
     1326    30945    4                 MINIMUM(TXT_LEN_REM, PAR_MSG_LEN),
     1327    30946    4                 PAR_MSG);
     1328    30947    4     TXT_LEN_TOT = TXT_LEN_TOT + MINIMUM(TXT_LEN_REM, PAR_MSG_LEN);

  30947 32 000032   200322 236100                    LDQ     PAR_MSG_LEN,,AUTO
        32 000033   200321 116100                    CMPQ    TXT_LEN_REM,,AUTO
PL6.E3A0      #005=Z8IL$PRINT_ERROR File=Z8IL.:Z8A6TSI                           SAT 08/09/97 13:31 Page:203
        32 000034   000036 604400 32                 TMOZ    s:30947+4
        32 000035   200321 236100                    LDQ     TXT_LEN_REM,,AUTO
        32 000036   200312 036100                    ADLQ    TXT_LEN_TOT,,AUTO
        32 000037   200312 756100                    STQ     TXT_LEN_TOT,,AUTO

     1329    30948    4     TXT_LEN_REM = TXT_LEN_REM - MINIMUM(TXT_LEN_REM, PAR_MSG_LEN);

  30948 32 000040   200322 236100                    LDQ     PAR_MSG_LEN,,AUTO
        32 000041   200321 116100                    CMPQ    TXT_LEN_REM,,AUTO
        32 000042   000044 604400 32                 TMOZ    s:30948+4
        32 000043   200321 236100                    LDQ     TXT_LEN_REM,,AUTO
        32 000044   200326 756100                    STQ     PLUG_LEN+1,,AUTO
        32 000045   200321 236100                    LDQ     TXT_LEN_REM,,AUTO
        32 000046   200326 136100                    SBLQ    PLUG_LEN+1,,AUTO
        32 000047   200321 756100                    STQ     TXT_LEN_REM,,AUTO

     1330    30949    4     IF PAR_MSG_LEN < MSG_LENGTH - 1 THEN

  30949 32 000050   200315 236100                    LDQ     MSG_LENGTH,,AUTO
        32 000051   000001 136007                    SBLQ    1,DL
        32 000052   200322 116100                    CMPQ    PAR_MSG_LEN,,AUTO
        32 000053   000135 604400 32                 TMOZ    s:30974

     1331    30950    5       DO;

     1332    30951    5         PLUG$ = PINCRC(MSG$, PAR_MSG_LEN + 1);

  30951 32 000054   200322 236100                    LDQ     PAR_MSG_LEN,,AUTO
        32 000055   000020 736000                    QLS     16
        32 000056   200000 036007                    ADLQ    65536,DL
        32 000057   200316 036100                    ADLQ    MSG$,,AUTO
        32 000060   200323 756100                    STQ     PLUG$,,AUTO

     1333    30952    5         IF (PLUG_CHAR >= '0') AND (PLUG_CHAR <= '9') THEN

  30952 32 000061   200323 471500                    LDP1    PLUG$,,AUTO
        32 000062   040000 106500                    CMPC    fill='040'O
PL6.E3A0      #005=Z8IL$PRINT_ERROR File=Z8IL.:Z8A6TSI                           SAT 08/09/97 13:31 Page:204
        32 000063   100000 000001                    ADSC9   0,,PR1                   cn=0,n=1
        32 000064   000001 000001 33                 ADSC9   1                        cn=0,n=1
        32 000065   000123 602000 32                 TNC     s:30970
        32 000066   040100 106400                    CMPC    fill='040'O
        32 000067   000002 000001 33                 ADSC9   2                        cn=0,n=1
        32 000070   100000 000001                    ADSC9   0,,PR1                   cn=0,n=1
        32 000071   000123 602000 32                 TNC     s:30970

     1334    30953    6           DO;

     1335    30954    6             CALL CHARBIN(PLUG_NUM, PLUG_CHAR);

  30954 32 000072   000100 305500                    DTB
        32 000073   100000 030001                    NDSC9   0,,PR1                   cn=0,s=nosgn,sf=0,n=1
        32 000074   200324 000004                    NDSC9   PLUG_NUM,,AUTO           cn=0,s=lsgnf,sf=0,n=4

     1336    30955
     1337    30956                  /* Add lexeme to error text */
     1338    30957
     1339    30958    6             PLUG_LEN = MINIMUM(TXT_LEN_REM,

  30958 32 000075   200172 473500                    LDP3    ERRP$,,AUTO
        32 000076   200324 722100                    LXL2    PLUG_NUM,,AUTO
        32 000077   300005 474512                    LDP4    5,X2,PR3
        32 000100   400004 236100                    LDQ     4,,PR4
        32 000101   000022 772000                    QRL     18
        32 000102   000105 604000 32                 TMI     s:30958+8
        32 000103   200321 116100                    CMPQ    TXT_LEN_REM,,AUTO
        32 000104   000106 604400 32                 TMOZ    s:30958+9
        32 000105   200321 236100                    LDQ     TXT_LEN_REM,,AUTO
        32 000106   200325 756100                    STQ     PLUG_LEN,,AUTO

     1340    30959    6                                ERRP$->ERR.LEXEME$(PLUG_NUM)->DNT.TEXT.LENGTH);
     1341    30960    6             CALL INSERT(ERR_LINE_FORMAT.TXT,

  30960 32 000107   400004 223100                    LDX3    4,,PR4
        32 000110   000000 624006                    EAX4    0,QL
PL6.E3A0      #005=Z8IL$PRINT_ERROR File=Z8IL.:Z8A6TSI                           SAT 08/09/97 13:31 Page:205
        32 000111   200312 235100                    LDA     TXT_LEN_TOT,,AUTO
        32 000112   040145 100540                    MLR     fill='040'O
        32 000113   400004 400013                    ADSC9   4,,PR4                   cn=2,n=*X3
        32 000114   200176 200014                    ADSC9   ERR_LINE_FORMAT+3,A,AUTO cn=1,n=*X4

     1342    30961    6                         TXT_LEN_TOT,
     1343    30962    6                         PLUG_LEN,
     1344    30963    6                         ERRP$->ERR.LEXEME$(PLUG_NUM)->DNT.TEXT.NAME);
     1345    30964    6             TXT_LEN_TOT = TXT_LEN_TOT + PLUG_LEN;

  30964 32 000115   200312 236100                    LDQ     TXT_LEN_TOT,,AUTO
        32 000116   200325 036100                    ADLQ    PLUG_LEN,,AUTO
        32 000117   200312 756100                    STQ     TXT_LEN_TOT,,AUTO

     1346    30965    6             TXT_LEN_REM = TXT_LEN_REM - PLUG_LEN;

  30965 32 000120   200321 236100                    LDQ     TXT_LEN_REM,,AUTO
        32 000121   200325 136100                    SBLQ    PLUG_LEN,,AUTO
        32 000122   200321 756100                    STQ     TXT_LEN_REM,,AUTO

     1347    30966    6           END; /* DO */

     1348    30967
     1349    30968                   /* Skip !# in error text */
     1350    30969
     1351    30970    5         MSG$         = PINCRC(MSG$, PAR_MSG_LEN + 2);

  30970 32 000123   200322 236100                    LDQ     PAR_MSG_LEN,,AUTO
        32 000124   000020 736000                    QLS     16
        32 000125   400000 036007                    ADLQ    -131072,DL
        32 000126   200316 036100                    ADLQ    MSG$,,AUTO
        32 000127   200316 756100                    STQ     MSG$,,AUTO

     1352    30971    5         MSG_LENGTH   = MSG_LENGTH - PAR_MSG_LEN - 2;

  30971 32 000130   200315 236100                    LDQ     MSG_LENGTH,,AUTO
        32 000131   200322 136100                    SBLQ    PAR_MSG_LEN,,AUTO
PL6.E3A0      #005=Z8IL$PRINT_ERROR File=Z8IL.:Z8A6TSI                           SAT 08/09/97 13:31 Page:206
        32 000132   000002 136007                    SBLQ    2,DL
        32 000133   200315 756100                    STQ     MSG_LENGTH,,AUTO

     1353    30972    5       END; /* DO */

  30972 32 000134   000136 710000 32                 TRA     s:30975

     1354    30973    4     ELSE
     1355    30974    4       MSG_LENGTH = 0;

  30974 32 000135   200315 450100                    STZ     MSG_LENGTH,,AUTO

     1356    30975    4   END; /* WHILE */

  30975 32 000136   200321 235100                    LDA     TXT_LEN_REM,,AUTO
        32 000137   000142 604400 32                 TMOZ    s:30977
        32 000140   200315 236100                    LDQ     MSG_LENGTH,,AUTO
        32 000141   000012 605400 32                 TPNZ    s:30939

     1357    30976
     1358    30977    3   END MERGE_PLUG_INS;

  30977 32 000142   200320 221300                    LDX1  ! MSG$+2,,AUTO
        32 000143   000001 702211                    TSX2  ! 1,X1

     1359    30978
     1360    30979        %EJECT;
PL6.E3A0      #005=Z8IL$PRINT_ERROR File=Z8IL.:Z8A6TSI                           SAT 08/09/97 13:31 Page:207
     1361    30980               /* Body of PRINT_ONE_ERROR */
     1362    30981
     1363    30982
     1364    30983    2   ERRP$          = MSG_ARRAY.ERR$(N);

  30983 32 000144   200171 470500                    LDP0    @N,,AUTO
        32 000145   000000 235100                    LDA     0,,PR0
        32 000146   200033 236105                    LDQ     MSG_ARRAY+21,AL,AUTO
        32 000147   200172 756100                    STQ     ERRP$,,AUTO

     1365    30984    2   NERR_IN_TABLE  = MOD(ERRP$->ERR.NUMBER, 100);

  30984 32 000150   200172 471500                    LDP1    ERRP$,,AUTO
        32 000151   100001 236100                    LDQ     1,,PR1
        32 000152   000022 772000                    QRL     18
        32 000153   000144 506007                    DIV     100,DL
        32 000154   200313 755100                    STA     NERR_IN_TABLE,,AUTO

     1366    30985    2   NTABLE         = ERRP$->ERR.NUMBER / 100;

  30985 32 000155   100001 236100                    LDQ     1,,PR1
        32 000156   000022 772000                    QRL     18
        32 000157   000144 506007                    DIV     100,DL
        32 000160   200005 756100                    STQ     NTABLE,,AUTO

     1367    30986    2   ERR_TABLE$     = ERR_TABLES(NTABLE);

  30986 32 000161   025625 236006 30                 LDQ     ERR_TABLES,QL
        32 000162   200314 756100                    STQ     ERR_TABLE$,,AUTO

     1368    30987
     1369    30988    2   IF NERR_IN_TABLE < ERR_TABLE_LENGTH(NTABLE) - 1 THEN

  30988 32 000163   200005 720100                    LXL0    NTABLE,,AUTO
        32 000164   025637 236010 30                 LDQ     ERR_TABLE_LENGTH,X0
        32 000165   000001 136007                    SBLQ    1,DL
        32 000166   200313 116100                    CMPQ    NERR_IN_TABLE,,AUTO
PL6.E3A0      #005=Z8IL$PRINT_ERROR File=Z8IL.:Z8A6TSI                           SAT 08/09/97 13:31 Page:208
        32 000167   000204 604400 32                 TMOZ    s:30998

     1370    30989    3     DO;

     1371    30990    3       MSG_LENGTH = POFFC(BASED_ERR_TABLE(NERR_IN_TABLE+1),

  30990 32 000170   200314 473500                    LDP3    ERR_TABLE$,,AUTO
        32 000171   200313 722100                    LXL2    NERR_IN_TABLE,,AUTO
        32 000172   300000 236112                    LDQ     0,X2,PR3
        32 000173   000020 772000                    QRL     16
        32 000174   200326 756100                    STQ     PLUG_LEN+1,,AUTO
        32 000175   300001 236112                    LDQ     1,X2,PR3
        32 000176   000020 772000                    QRL     16
        32 000177   200326 136100                    SBLQ    PLUG_LEN+1,,AUTO
        32 000200   200315 756100                    STQ     MSG_LENGTH,,AUTO

     1372    30991    3                          BASED_ERR_TABLE(NERR_IN_TABLE));
     1373    30992    3       MSG$       = BASED_ERR_TABLE(NERR_IN_TABLE);

  30992 32 000201   300000 236112                    LDQ     0,X2,PR3
        32 000202   200316 756100                    STQ     MSG$,,AUTO

     1374    30993    3     END;

  30993 32 000203   000210 710000 32                 TRA     s:31002

     1375    30994               /* Build error print line */
     1376    30995
     1377    30996    2   ELSE
     1378    30997    3     DO;

     1379    30998    3       MSG$       = ADDR(DEFAULT_MSG);

  30998 32 000204   000003 236000 33                 LDQ     3
        32 000205   200316 756100                    STQ     MSG$,,AUTO

     1380    30999    3       MSG_LENGTH = LENGTHC(DEFAULT_MSG);
PL6.E3A0      #005=Z8IL$PRINT_ERROR File=Z8IL.:Z8A6TSI                           SAT 08/09/97 13:31 Page:209

  30999 32 000206   000106 235007                    LDA     70,DL
        32 000207   200315 755100                    STA     MSG_LENGTH,,AUTO

     1381    31000    3     END;

     1382    31001
     1383    31002    2   ERR_LINE_FORMAT.STARS = STARS(SEVERITY_OF_ERROR(NTABLE));

  31002 32 000210   000000 236010 30                 LDQ     SEVERITY_OF_ERROR,X0
        32 000211   000005 402007                    MPY     5,DL
        32 000212   040100 100406                    MLR     fill='040'O
        32 000213   025673 000005 30                 ADSC9   STARS,Q                  cn=0,n=5
        32 000214   200173 000005                    ADSC9   ERR_LINE_FORMAT,,AUTO    cn=0,n=5

     1384    31003    2   ERR_LINE_FORMAT.BLK1  = ' ';

  31003 32 000215   000040 236003                    LDQ     32,DU
        32 000216   200174 552120                    STBQ    ERR_LINE_FORMAT+1,'20'O,AUTO

     1385    31004    2   ERR_LINE_FORMAT.BLK2  = ' ';

  31004 32 000217   040100 100400                    MLR     fill='040'O
        32 000220   000004 000001 33                 ADSC9   4                        cn=0,n=1
        32 000221   200175 600002                    ADSC9   ERR_LINE_FORMAT+2,,AUTO  cn=3,n=2

     1386    31005    2   ERR_LINE_FORMAT.BLK3  = ' ';

  31005 32 000222   000040 236007                    LDQ     32,DL
        32 000223   200174 552104                    STBQ    ERR_LINE_FORMAT+1,'04'O,AUTO

     1387    31006
     1388    31007    2   CALL BINCHAR(ERR_LINE_FORMAT.ERRNUM, ERRP$->ERR.NUMBER);

  31007 32 000224   100001 236100                    LDQ     1,,PR1
        32 000225   000022 772000                    QRL     18
        32 000226   000000 235003                    LDA     0,DU
PL6.E3A0      #005=Z8IL$PRINT_ERROR File=Z8IL.:Z8A6TSI                           SAT 08/09/97 13:31 Page:210
        32 000227   200326 757100                    STAQ    PLUG_LEN+1,,AUTO
        32 000230   000100 301500                    BTD
        32 000231   200326 000010                    NDSC9   PLUG_LEN+1,,AUTO         cn=0,s=lsgnf,sf=0,n=8
        32 000232   200175 030003                    NDSC9   ERR_LINE_FORMAT+2,,AUTO  cn=0,s=nosgn,sf=0,n=3

     1389    31008    2   CALL BINCHAR(ERR_LINE_FORMAT.SEQNUM, MSG_ARRAY.NUM(N));

  31008 32 000233   000000 235100                    LDA     0,,PR0
        32 000234   000002 735000                    ALS     2
        32 000235   000100 301505                    BTD
        32 000236   200006 000004                    NDSC9   MSG_ARRAY,A,AUTO         cn=0,s=lsgnf,sf=0,n=4
        32 000237   200174 430001                    NDSC9   ERR_LINE_FORMAT+1,,AUTO  cn=2,s=nosgn,sf=0,n=1

     1390    31009
     1391    31010    2   CALL MERGE_PLUG_INS;

  31010 32 000240   000005 701000 32                 TSX1    MERGE_PLUG_INS
        32 000241   000000 011000                    NOP     0

     1392    31011
     1393    31012    2   IF ADDR(OUTPUT_ERR_1) ~= ADDR(NIL) THEN

  31012 32 000242   200003 236100                    LDQ     @OUTPUT_ERR_1,,AUTO
        32 000243   000005 116000 33                 CMPQ    5
        32 000244   000264 600000 32                 TZE     s:31016

     1394    31013    2     CALL OUTPUT_ERR_1(ADDR(ERR_LINE_FORMAT),

  31013 32 000245   200173 630500                    EPPR0   ERR_LINE_FORMAT,,AUTO
        32 000246   200326 450500                    STP0    PLUG_LEN+1,,AUTO
        32 000247   200312 235100                    LDA     TXT_LEN_TOT,,AUTO
        32 000250   000015 035007                    ADLA    13,DL
        32 000251   200327 755100                    STA     PLUG_LEN+2,,AUTO
        32 000252   200327 631500                    EPPR1   PLUG_LEN+2,,AUTO
        32 000253   200331 451500                    STP1    PLUG_LEN+4,,AUTO
        32 000254   200326 633500                    EPPR3   PLUG_LEN+1,,AUTO
        32 000255   200330 453500                    STP3    PLUG_LEN+3,,AUTO
PL6.E3A0      #005=Z8IL$PRINT_ERROR File=Z8IL.:Z8A6TSI                           SAT 08/09/97 13:31 Page:211
        32 000256   200330 630500                    EPPR0   PLUG_LEN+3,,AUTO
        32 000257   200003 474500                    LDP4    @OUTPUT_ERR_1,,AUTO
        32 000260   400000 220100                    LDX0    0,,PR4
        32 000261   000006 631400 33                 EPPR1   6
        32 000262   000000 701010                    TSX1    0,X0
        32 000263   000000 011000                    NOP     0

     1395    31014    2                            TXT_LEN_TOT+LENGTHC(ERR_LINE_FORMAT)-%MAX_LENGTH_ERR);
     1396    31015
     1397    31016    2   IF ADDR(OUTPUT_ERR_2) ~= ADDR(NIL) THEN

  31016 32 000264   200004 236100                    LDQ     @OUTPUT_ERR_2,,AUTO
        32 000265   000005 116000 33                 CMPQ    5
        32 000266   000306 600000 32                 TZE     s:31019

     1398    31017    2     CALL OUTPUT_ERR_2(ADDR(ERR_LINE_FORMAT),

  31017 32 000267   200173 630500                    EPPR0   ERR_LINE_FORMAT,,AUTO
        32 000270   200326 450500                    STP0    PLUG_LEN+1,,AUTO
        32 000271   200312 235100                    LDA     TXT_LEN_TOT,,AUTO
        32 000272   000015 035007                    ADLA    13,DL
        32 000273   200327 755100                    STA     PLUG_LEN+2,,AUTO
        32 000274   200327 631500                    EPPR1   PLUG_LEN+2,,AUTO
        32 000275   200331 451500                    STP1    PLUG_LEN+4,,AUTO
        32 000276   200326 633500                    EPPR3   PLUG_LEN+1,,AUTO
        32 000277   200330 453500                    STP3    PLUG_LEN+3,,AUTO
        32 000300   200330 630500                    EPPR0   PLUG_LEN+3,,AUTO
        32 000301   200004 474500                    LDP4    @OUTPUT_ERR_2,,AUTO
        32 000302   400000 220100                    LDX0    0,,PR4
        32 000303   000006 631400 33                 EPPR1   6
        32 000304   000000 701010                    TSX1    0,X0
        32 000305   000000 011000                    NOP     0

     1399    31018    2                            TXT_LEN_TOT+LENGTHC(ERR_LINE_FORMAT)-%MAX_LENGTH_ERR);
     1400    31019    2   END PRINT_ONE_ERROR;

  31019 32 000306   200170 221300                    LDX1  ! I+1,,AUTO
PL6.E3A0      #005=Z8IL$PRINT_ERROR File=Z8IL.:Z8A6TSI                           SAT 08/09/97 13:31 Page:212
        32 000307   000001 702211                    TSX2  ! 1,X1

     1401    31020
     1402    31021        %EJECT;
PL6.E3A0      #005=Z8IL$PRINT_ERROR File=Z8IL.:Z8A6TSI                           SAT 08/09/97 13:31 Page:213
     1403    31022
     1404    31023    1   DUMP_ERRORS: PROC;     /* in Z8IL$PRODUCE_LISTINGS

  31023 32 000310   200166 741300       DUMP_ERRORS  STX1  ! ERROR_FOR_LINE+3,,AUTO

     1405    31024                                        Z8IL$PRINT_ERROR      */
     1406    31025
     1407    31026        /*I*
     1408    31027               NAME: DUMP_ERRORS
     1409    31028        DESCRIPTION: Errors are accumulated for a particular source line in
     1410    31029                       order to mark each column of the source line where the
     1411    31030                       the error occurred.  DUMP_errors prints these source
     1412    31031                       lines.
     1413    31032        */
     1414    31033
     1415    31034    2   DCL I SBIN WORD;
     1416    31035
     1417    31036    2   IF ADDR(OUTPUT_ERR_1) ~= ADDR(NIL) THEN

  31036 32 000311   200003 236100                    LDQ     @OUTPUT_ERR_1,,AUTO
        32 000312   000005 116000 33                 CMPQ    5
        32 000313   000333 600000 32                 TZE     s:31038

     1418    31037    2     CALL OUTPUT_ERR_1(ADDR(ERR_COL_LINE), MAX_ERR_COL+1);

  31037 32 000314   200060 630500                    EPPR0   ERR_COL_LINE,,AUTO
        32 000315   200326 450500                    STP0    PLUG_LEN+1,,AUTO
        32 000316   200160 235100                    LDA     MAX_ERR_COL,,AUTO
        32 000317   000001 035007                    ADLA    1,DL
        32 000320   200327 755100                    STA     PLUG_LEN+2,,AUTO
        32 000321   200327 631500                    EPPR1   PLUG_LEN+2,,AUTO
        32 000322   200331 451500                    STP1    PLUG_LEN+4,,AUTO
        32 000323   200326 633500                    EPPR3   PLUG_LEN+1,,AUTO
        32 000324   200330 453500                    STP3    PLUG_LEN+3,,AUTO
        32 000325   200330 630500                    EPPR0   PLUG_LEN+3,,AUTO
        32 000326   200003 474500                    LDP4    @OUTPUT_ERR_1,,AUTO
        32 000327   400000 220100                    LDX0    0,,PR4
PL6.E3A0      #005=Z8IL$PRINT_ERROR File=Z8IL.:Z8A6TSI                           SAT 08/09/97 13:31 Page:214
        32 000330   000006 631400 33                 EPPR1   6
        32 000331   000000 701010                    TSX1    0,X0
        32 000332   000000 011000                    NOP     0

     1419    31038    2   IF ADDR(OUTPUT_ERR_2) ~= ADDR(NIL) THEN

  31038 32 000333   200004 236100                    LDQ     @OUTPUT_ERR_2,,AUTO
        32 000334   000005 116000 33                 CMPQ    5
        32 000335   000355 600000 32                 TZE     s:31040

     1420    31039    2     CALL OUTPUT_ERR_2(ADDR(ERR_COL_LINE), MAX_ERR_COL+1);

  31039 32 000336   200060 630500                    EPPR0   ERR_COL_LINE,,AUTO
        32 000337   200326 450500                    STP0    PLUG_LEN+1,,AUTO
        32 000340   200160 235100                    LDA     MAX_ERR_COL,,AUTO
        32 000341   000001 035007                    ADLA    1,DL
        32 000342   200327 755100                    STA     PLUG_LEN+2,,AUTO
        32 000343   200327 631500                    EPPR1   PLUG_LEN+2,,AUTO
        32 000344   200331 451500                    STP1    PLUG_LEN+4,,AUTO
        32 000345   200326 633500                    EPPR3   PLUG_LEN+1,,AUTO
        32 000346   200330 453500                    STP3    PLUG_LEN+3,,AUTO
        32 000347   200330 630500                    EPPR0   PLUG_LEN+3,,AUTO
        32 000350   200004 474500                    LDP4    @OUTPUT_ERR_2,,AUTO
        32 000351   400000 220100                    LDX0    0,,PR4
        32 000352   000006 631400 33                 EPPR1   6
        32 000353   000000 701010                    TSX1    0,X0
        32 000354   000000 011000                    NOP     0

     1421    31040    2   ERR_COL_LINE = ' ';

  31040 32 000355   040100 100400                    MLR     fill='040'O
        32 000356   000004 000001 33                 ADSC9   4                        cn=0,n=1
        32 000357   200060 000400                    ADSC9   ERR_COL_LINE,,AUTO       cn=0,n=256

     1422    31041    2   MAX_ERR_COL = 0;

  31041 32 000360   200160 450100                    STZ     MAX_ERR_COL,,AUTO
PL6.E3A0      #005=Z8IL$PRINT_ERROR File=Z8IL.:Z8A6TSI                           SAT 08/09/97 13:31 Page:215

     1423    31042    3   DO I=1 TO ACCUM_NUM_ERRORS;

  31042 32 000361   000001 235007                    LDA     1,DL
        32 000362   200167 755100                    STA     I,,AUTO
        32 000363   000371 710000 32                 TRA     s:31044+1

     1424    31043    3     CALL PRINT_ONE_ERROR(I);

  31043 32 000364   200167 630500                    EPPR0   I,,AUTO
        32 000365   200171 450500                    STP0    @N,,AUTO
        32 000366   000003 701000 32                 TSX1    PRINT_ONE_ERROR
        32 000367   000000 011000                    NOP     0

     1425    31044    3   END;  /* DO */

  31044 32 000370   200167 054100                    AOS     I,,AUTO
        32 000371   200167 236100                    LDQ     I,,AUTO
        32 000372   200161 116100                    CMPQ    ACCUM_NUM_ERRORS,,AUTO
        32 000373   000364 604400 32                 TMOZ    s:31043

     1426    31045
     1427    31046    2   ACCUM_NUM_ERRORS = 0;

  31046 32 000374   200161 450100                    STZ     ACCUM_NUM_ERRORS,,AUTO

     1428    31047    2   LAST_MSG_NUM = 0;

  31047 32 000375   200162 450100                    STZ     LAST_MSG_NUM,,AUTO

     1429    31048
     1430    31049    2   END DUMP_ERRORS;

  31049 32 000376   200166 221300                    LDX1  ! ERROR_FOR_LINE+3,,AUTO
        32 000377   000001 702211                    TSX2  ! 1,X1

     1431    31050
PL6.E3A0      #005=Z8IL$PRINT_ERROR File=Z8IL.:Z8A6TSI                           SAT 08/09/97 13:31 Page:216
     1432    31051
     1433    31052        %EJECT;
PL6.E3A0      #005=Z8IL$PRINT_ERROR File=Z8IL.:Z8A6TSI                           SAT 08/09/97 13:31 Page:217
     1434    31053    1   MARK_ERROR: PROC;     /* in Z8IL$PRODUCE_LISTINGS

  31053 32 000400   200164 741300       MARK_ERROR   STX1  ! ERROR_FOR_LINE+1,,AUTO

     1435    31054                                      Z8IL$PRINT_ERROR         */
     1436    31055
     1437    31056        /*I*
     1438    31057               NAME: MARK_ERROR
     1439    31058        DESCRIPTION: Mark an error on the line and column where it occurred,
     1440    31059                       and accumulate the error to be printed by DUMP_ERRORS.
     1441    31060        */
     1442    31061
     1443    31062
     1444    31063        %EQU ERR_COL_OFFSET = 18;
     1445    31064
     1446    31065        /* Check for table overflow */
     1447    31066
     1448    31067    2   IF ACCUM_NUM_ERRORS >= %MSG_ARRAY_LEN THEN

  31067 32 000401   200161 235100                    LDA     ACCUM_NUM_ERRORS,,AUTO
        32 000402   000024 115007                    CMPA    20,DL
        32 000403   000406 604000 32                 TMI     s:31070

     1449    31068    2     CALL DUMP_ERRORS;

  31068 32 000404   000310 701000 32                 TSX1    DUMP_ERRORS
        32 000405   000000 011000                    NOP     0

     1450    31069
     1451    31070    2   IF ERR_COL(ERR$->ERR.COLUMN + %ERR_COL_OFFSET) ~= ' ' THEN

  31070 32 000406   000000 470400 12                 LDP0    ERR$
        32 000407   000002 236100                    LDQ     2,,PR0
        32 000410   777777 376007                    ANQ     -1,DL
        32 000411   040000 106506                    CMPC    fill='040'O
        32 000412   200064 400001                    ADSC9   ERR_COL_LINE+4,Q,AUTO    cn=2,n=1
        32 000413   000004 000001 33                 ADSC9   4                        cn=0,n=1
PL6.E3A0      #005=Z8IL$PRINT_ERROR File=Z8IL.:Z8A6TSI                           SAT 08/09/97 13:31 Page:218
        32 000414   000431 600000 32                 TZE     s:31079

     1452    31071    3     DO;

     1453    31072    3        ACCUM_NUM_ERRORS = ACCUM_NUM_ERRORS + 1;

  31072 32 000415   200161 054100                    AOS     ACCUM_NUM_ERRORS,,AUTO

     1454    31073    3        MSG_ARRAY.ERR$(ACCUM_NUM_ERRORS) = ERR$;

  31073 32 000416   000000 236000 12                 LDQ     ERR$
        32 000417   200161 720100                    LXL0    ACCUM_NUM_ERRORS,,AUTO
        32 000420   200033 756110                    STQ     MSG_ARRAY+21,X0,AUTO

     1455    31074    3        CALL CHARBIN(MSG_ARRAY.NUM(ACCUM_NUM_ERRORS),

  31074 32 000421   000002 236100                    LDQ     2,,PR0
        32 000422   777777 376007                    ANQ     -1,DL
        32 000423   200161 235100                    LDA     ACCUM_NUM_ERRORS,,AUTO
        32 000424   000002 735000                    ALS     2
        32 000425   000105 305506                    DTB
        32 000426   200064 430001                    NDSC9   ERR_COL_LINE+4,Q,AUTO    cn=2,s=nosgn,sf=0,n=1
        32 000427   200006 000004                    NDSC9   MSG_ARRAY,A,AUTO         cn=0,s=lsgnf,sf=0,n=4

     1456    31075    3                     ERR_COL(ERR$ -> ERR.COLUMN + %ERR_COL_OFFSET));
     1457    31076    3     END;

  31076 32 000430   000464 710000 32                 TRA     s:31094

     1458    31077    2   ELSE
     1459    31078    3     DO;

     1460    31079    3       IF LAST_MSG_NUM = 9 THEN

  31079 32 000431   200162 235100                    LDA     LAST_MSG_NUM,,AUTO
        32 000432   000011 115007                    CMPA    9,DL
        32 000433   000436 601000 32                 TNZ     s:31081
PL6.E3A0      #005=Z8IL$PRINT_ERROR File=Z8IL.:Z8A6TSI                           SAT 08/09/97 13:31 Page:219

     1461    31080    3         CALL DUMP_ERRORS;

  31080 32 000434   000310 701000 32                 TSX1    DUMP_ERRORS
        32 000435   000000 011000                    NOP     0

     1462    31081    3       ACCUM_NUM_ERRORS = ACCUM_NUM_ERRORS + 1;

  31081 32 000436   200161 054100                    AOS     ACCUM_NUM_ERRORS,,AUTO

     1463    31082    3       MSG_ARRAY.ERR$(ACCUM_NUM_ERRORS) = ERR$;

  31082 32 000437   000000 236000 12                 LDQ     ERR$
        32 000440   200161 720100                    LXL0    ACCUM_NUM_ERRORS,,AUTO
        32 000441   200033 756110                    STQ     MSG_ARRAY+21,X0,AUTO

     1464    31083    3       LAST_MSG_NUM = LAST_MSG_NUM + 1;

  31083 32 000442   200162 054100                    AOS     LAST_MSG_NUM,,AUTO

     1465    31084    3       MSG_ARRAY.NUM(ACCUM_NUM_ERRORS) = LAST_MSG_NUM;

  31084 32 000443   200162 235100                    LDA     LAST_MSG_NUM,,AUTO
        32 000444   200006 755110                    STA     MSG_ARRAY,X0,AUTO

     1466    31085    3       IF ERR$ -> ERR.COLUMN > 0 THEN

  31085 32 000445   000000 470400 12                 LDP0    ERR$
        32 000446   000002 721100                    LXL1    2,,PR0
        32 000447   000464 600000 32                 TZE     s:31094

     1467    31086    4         DO;

     1468    31087    4           CALL BINCHAR(ERR_COL(ERR$ -> ERR.COLUMN + %ERR_COL_OFFSET),

  31087 32 000450   000002 236100                    LDQ     2,,PR0
        32 000451   777777 376007                    ANQ     -1,DL
PL6.E3A0      #005=Z8IL$PRINT_ERROR File=Z8IL.:Z8A6TSI                           SAT 08/09/97 13:31 Page:220
        32 000452   000106 301500                    BTD
        32 000453   200162 000004                    NDSC9   LAST_MSG_NUM,,AUTO       cn=0,s=lsgnf,sf=0,n=4
        32 000454   200064 430001                    NDSC9   ERR_COL_LINE+4,Q,AUTO    cn=2,s=nosgn,sf=0,n=1

     1469    31088    4                        LAST_MSG_NUM);
     1470    31089    4           MAX_ERR_COL = MAXIMUM (MAX_ERR_COL,

  31089 32 000455   000002 236100                    LDQ     2,,PR0
        32 000456   777777 376007                    ANQ     -1,DL
        32 000457   000022 036007                    ADLQ    18,DL
        32 000460   200160 116100                    CMPQ    MAX_ERR_COL,,AUTO
        32 000461   000463 603000 32                 TRC     s:31089+6
        32 000462   200160 236100                    LDQ     MAX_ERR_COL,,AUTO
        32 000463   200160 756100                    STQ     MAX_ERR_COL,,AUTO

     1471    31090    4                                  ERR$ -> ERR.COLUMN + %ERR_COL_OFFSET);
     1472    31091    4         END;

     1473    31092    3     END;

     1474    31093
     1475    31094    2   END MARK_ERROR;

  31094 32 000464   200164 221300                    LDX1  ! ERROR_FOR_LINE+1,,AUTO
        32 000465   000001 702211                    TSX2  ! 1,X1

     1476    31095
     1477    31096        %EJECT;
PL6.E3A0      #005=Z8IL$PRINT_ERROR File=Z8IL.:Z8A6TSI                           SAT 08/09/97 13:31 Page:221
     1478    31097    1   CHECK_ERRORS_FOR_LINE: PROC;

  31097 32 000466   200164 741300       CHECK_ERROR* STX1  ! ERROR_FOR_LINE+1,,AUTO

     1479    31098
     1480    31099        /*I*
     1481    31100               NAME: CHECK_ERRORS_FOR_LINE
     1482    31101        DESCRIPTION:
     1483    31102                  Check for errors on the current line; this routine
     1484    31103                  is used for the while loops in the routine Z8IL$PRINT_ERROR. */
     1485    31104
     1486    31105    2   IF ERR$ ~= ADDR(NIL) THEN

  31105 32 000467   000000 236000 12                 LDQ     ERR$
        32 000470   000005 116000 33                 CMPQ    5
        32 000471   000505 600000 32                 TZE     s:31108

     1487    31106    2     ERROR_FOR_LINE = (ERR$->ERR.LINE <= FILL_BUFFER.ISN);

  31106 32 000472   400000 220003                    LDX0    -131072,DU
        32 000473   000000 470400 23                 LDP0    LOOKAHEAD_BUFFER$
        32 000474   000000 471400 12                 LDP1    ERR$
        32 000475   100002 236100                    LDQ     2,,PR1
        32 000476   000022 772000                    QRL     18
        32 000477   000004 116100                    CMPQ    4,,PR0
        32 000500   000502 604400 32                 TMOZ    s:31106+8
        32 000501   000000 220003                    LDX0    0,DU
        32 000502   000000 636010                    EAQ     0,X0
        32 000503   200163 756100                    STQ     ERROR_FOR_LINE,,AUTO
        32 000504   000506 710000 32                 TRA     s:31110

     1488    31107    2   ELSE
     1489    31108    2     ERROR_FOR_LINE = '0'B;

  31108 32 000505   200163 450100                    STZ     ERROR_FOR_LINE,,AUTO

     1490    31109
PL6.E3A0      #005=Z8IL$PRINT_ERROR File=Z8IL.:Z8A6TSI                           SAT 08/09/97 13:31 Page:222
     1491    31110    2   END CHECK_ERRORS_FOR_LINE;

  31110 32 000506   000001 702211                    TSX2  ! 1,X1

     1492    31111        %EJECT;
PL6.E3A0      #005=Z8IL$PRINT_ERROR File=Z8IL.:Z8A6TSI                           SAT 08/09/97 13:31 Page:223
     1493    31112               /* Body of Z8IL$PRINT_ERROR */
     1494    31113
     1495    31114
     1496    31115    1   ACCUM_NUM_ERRORS = 0;

  31115 32 000507   200161 450100                    STZ     ACCUM_NUM_ERRORS,,AUTO

     1497    31116    1   LAST_MSG_NUM = 0;

  31116 32 000510   200162 450100                    STZ     LAST_MSG_NUM,,AUTO

     1498    31117    1   ERR_COL_LINE = ' ';

  31117 32 000511   040100 100400                    MLR     fill='040'O
        32 000512   000004 000001 33                 ADSC9   4                        cn=0,n=1
        32 000513   200060 000400                    ADSC9   ERR_COL_LINE,,AUTO       cn=0,n=256

     1499    31118    1   MAX_ERR_COL = 0;

  31118 32 000514   200160 450100                    STZ     MAX_ERR_COL,,AUTO

     1500    31119
     1501    31120        /* Process all errors for this line */
     1502    31121
     1503    31122    1   CALL CHECK_ERRORS_FOR_LINE;

  31122 32 000515   000466 701000 32                 TSX1    CHECK_ERRORS_FOR_LINE
        32 000516   000000 011000                    NOP     0

     1504    31123    2   DO WHILE (ERROR_FOR_LINE);

  31123 32 000517   200163 234100                    SZN     ERROR_FOR_LINE,,AUTO
        32 000520   000544 605000 32                 TPL     s:31132

     1505    31124    2     CALL MARK_ERROR;

  31124 32 000521   000400 701000 32                 TSX1    MARK_ERROR
PL6.E3A0      #005=Z8IL$PRINT_ERROR File=Z8IL.:Z8A6TSI                           SAT 08/09/97 13:31 Page:224
        32 000522   000000 011000                    NOP     0

     1506    31125    2     NTABLE = ERR$->ERR.NUMBER / 100;

  31125 32 000523   000000 470400 12                 LDP0    ERR$
        32 000524   000001 236100                    LDQ     1,,PR0
        32 000525   000022 772000                    QRL     18
        32 000526   000144 506007                    DIV     100,DL
        32 000527   200005 756100                    STQ     NTABLE,,AUTO

     1507    31126    2     COMP_SUMMARY_COUNT(SEVERITY_OF_ERROR(NTABLE)) =

  31126 32 000530   000000 720006 30                 LXL0    SEVERITY_OF_ERROR,QL
        32 000531   200005 721100                    LXL1    NTABLE,,AUTO
        32 000532   000000 722011 30                 LXL2    SEVERITY_OF_ERROR,X1
        32 000533   000000 235012 31                 LDA     COMP_SUMMARY_COUNT,X2
        32 000534   000001 035007                    ADLA    1,DL
        32 000535   000000 755010 31                 STA     COMP_SUMMARY_COUNT,X0

     1508    31127    2           COMP_SUMMARY_COUNT(SEVERITY_OF_ERROR(NTABLE)) + 1;
     1509    31128    2     ERR$ = ERR$->ERR.NEXT;

  31128 32 000536   000003 236100                    LDQ     3,,PR0
        32 000537   000000 756000 12                 STQ     ERR$

     1510    31129    2     CALL CHECK_ERRORS_FOR_LINE;

  31129 32 000540   000466 701000 32                 TSX1    CHECK_ERRORS_FOR_LINE
        32 000541   000000 011000                    NOP     0

     1511    31130    2   END;

  31130 32 000542   200163 234100                    SZN     ERROR_FOR_LINE,,AUTO
        32 000543   000521 604000 32                 TMI     s:31124

     1512    31131
     1513    31132    1   IF ACCUM_NUM_ERRORS > 0 THEN
PL6.E3A0      #005=Z8IL$PRINT_ERROR File=Z8IL.:Z8A6TSI                           SAT 08/09/97 13:31 Page:225

  31132 32 000544   200161 235100                    LDA     ACCUM_NUM_ERRORS,,AUTO
        32 000545   000550 604400 32                 TMOZ    s:31134

     1514    31133    1     CALL DUMP_ERRORS;

  31133 32 000546   000310 701000 32                 TSX1    DUMP_ERRORS
        32 000547   000000 011000                    NOP     0

     1515    31134    1   IF ADDR(OUTPUT_ERR_1) ~= ADDR(NIL) THEN

  31134 32 000550   200003 236100                    LDQ     @OUTPUT_ERR_1,,AUTO
        32 000551   000005 116000 33                 CMPQ    5
        32 000552   000567 600000 32                 TZE     s:31136

     1516    31135    1     CALL OUTPUT_ERR_1(ADDR(BLANK),1);

  31135 32 000553   000007 236000 33                 LDQ     7
        32 000554   200326 756100                    STQ     PLUG_LEN+1,,AUTO
        32 000555   000011 236000 33                 LDQ     9
        32 000556   200331 756100                    STQ     PLUG_LEN+4,,AUTO
        32 000557   200326 630500                    EPPR0   PLUG_LEN+1,,AUTO
        32 000560   200330 450500                    STP0    PLUG_LEN+3,,AUTO
        32 000561   200330 630500                    EPPR0   PLUG_LEN+3,,AUTO
        32 000562   200003 471500                    LDP1    @OUTPUT_ERR_1,,AUTO
        32 000563   100000 220100                    LDX0    0,,PR1
        32 000564   000006 631400 33                 EPPR1   6
        32 000565   000000 701010                    TSX1    0,X0
        32 000566   000000 011000                    NOP     0

     1517    31136    1   IF ADDR(OUTPUT_ERR_2) ~= ADDR(NIL) THEN

  31136 32 000567   200004 236100                    LDQ     @OUTPUT_ERR_2,,AUTO
        32 000570   000005 116000 33                 CMPQ    5
        32 000571   000606 600000 32                 TZE     s:31139

     1518    31137    1     CALL OUTPUT_ERR_2(ADDR(BLANK),1);
PL6.E3A0      #005=Z8IL$PRINT_ERROR File=Z8IL.:Z8A6TSI                           SAT 08/09/97 13:31 Page:226

  31137 32 000572   000007 236000 33                 LDQ     7
        32 000573   200326 756100                    STQ     PLUG_LEN+1,,AUTO
        32 000574   000011 236000 33                 LDQ     9
        32 000575   200331 756100                    STQ     PLUG_LEN+4,,AUTO
        32 000576   200326 630500                    EPPR0   PLUG_LEN+1,,AUTO
        32 000577   200330 450500                    STP0    PLUG_LEN+3,,AUTO
        32 000600   200330 630500                    EPPR0   PLUG_LEN+3,,AUTO
        32 000601   200004 471500                    LDP1    @OUTPUT_ERR_2,,AUTO
        32 000602   100000 220100                    LDX0    0,,PR1
        32 000603   000006 631400 33                 EPPR1   6
        32 000604   000000 701010                    TSX1    0,X0
        32 000605   000000 011000                    NOP     0

     1519    31138
     1520    31139    1   END Z8IL$PRINT_ERROR;

  31139 32 000606   000000 702200 xent               TSX2  ! X66_ARET
     1521    31140        %EOD;

PL6.E3A0      #005=Z8IL$PRINT_ERROR File=Z8IL.:Z8A6TSI                           SAT 08/09/97 13:31 Page:227
--  Include file information  --

   Z8I_ERR_SEV.:Z8A6TOU  cannot be made into a system file and is referenced.
   Z8I_ERR_TXT.:Z8A6TOU  cannot be made into a system file and is referenced.
   Z8A_ERR_NUMS.:Z8A6TOU  is referenced.
   Z8E_BUFFERS.:Z8A6TOU  cannot be made into a system file and is referenced.
   Z8A_DNT.:Z8A6TOU  cannot be made into a system file and is referenced.
   Z8A_ERR.:Z8A6TOU  cannot be made into a system file and is referenced.
   Z8I_LISTING.:Z8A6TOU  cannot be made into a system file and is referenced.
   Z9I_PREPROC.:Z8A6TOU  is referenced.
   Z8A_COMCOM.:Z8A6TOU  cannot be made into a system file and is referenced.
   Z9A_FLAGS.:Z8A6TOU  is referenced.
   X8A_COM_MACS.:X8A6TOU  is referenced.
   Z8A_NAMES.:Z8A6TOU  is referenced.
   Z8A_SUPP_MAC.:Z8A6TOU  is referenced.
   Z8A_DEFC.:Z8A6TOU  cannot be made into a system file and is referenced.
      No diagnostics issued in procedure Z8IL$PRINT_ERROR.
PL6.E3A0      #005=Z8IL$PRINT_ERROR File=Z8IL.:Z8A6TSI                           SAT 08/09/97 13:31 Page:228

 **** Variables and constants ****

  ****  Section 000 LblCom ITERATION

  ****  Scalars and arrays  ****
OctLoc.c.b A Datatyp(siz) R M Lvl/name                 OctLoc.c.b A Datatyp(siz) R M Lvl/name

     0-0-0/w SBIN              1 ITERATION

  ****  Section 001 LblCom SUB_HEADING_ADDR

  ****  Scalars and arrays  ****
OctLoc.c.b A Datatyp(siz) R M Lvl/name                 OctLoc.c.b A Datatyp(siz) R M Lvl/name

     0-0-0/w PTR         r     1 SUB_HEADING_ADDR

  ****  Section 002 LblCom SUB_HEADING_LEN

  ****  Scalars and arrays  ****
OctLoc.c.b A Datatyp(siz) R M Lvl/name                 OctLoc.c.b A Datatyp(siz) R M Lvl/name

     0-0-0/w SBIN        r     1 SUB_HEADING_LEN

  ****  Section 003 LblCom SUB_HEADING_ADDR1

  ****  Scalars and arrays  ****
OctLoc.c.b A Datatyp(siz) R M Lvl/name                 OctLoc.c.b A Datatyp(siz) R M Lvl/name

     0-0-0/w PTR         r     1 SUB_HEADING_ADDR1

  ****  Section 004 LblCom SUB_HEADING_LEN1

  ****  Scalars and arrays  ****
OctLoc.c.b A Datatyp(siz) R M Lvl/name                 OctLoc.c.b A Datatyp(siz) R M Lvl/name

     0-0-0/w SBIN        r     1 SUB_HEADING_LEN1

PL6.E3A0      #005=Z8IL$PRINT_ERROR File=Z8IL.:Z8A6TSI                           SAT 08/09/97 13:31 Page:229
  ****  Section 005 LblCom SUB_HEADING_ADDR2

  ****  Scalars and arrays  ****
OctLoc.c.b A Datatyp(siz) R M Lvl/name                 OctLoc.c.b A Datatyp(siz) R M Lvl/name

     0-0-0/w PTR         r     1 SUB_HEADING_ADDR2

  ****  Section 006 LblCom SUB_HEADING_LEN2

  ****  Scalars and arrays  ****
OctLoc.c.b A Datatyp(siz) R M Lvl/name                 OctLoc.c.b A Datatyp(siz) R M Lvl/name

     0-0-0/w SBIN        r     1 SUB_HEADING_LEN2

  ****  Section 007 LblCom MAX_LINES_PER_PAGE

  ****  Scalars and arrays  ****
OctLoc.c.b A Datatyp(siz) R M Lvl/name                 OctLoc.c.b A Datatyp(siz) R M Lvl/name

     0-0-0/w SBIN              1 MAX_LINES_PER_PAGE

  ****  Section 008 LblCom LISTING_LINES_ON_PAGE

  ****  Scalars and arrays  ****
OctLoc.c.b A Datatyp(siz) R M Lvl/name                 OctLoc.c.b A Datatyp(siz) R M Lvl/name

     0-0-0/w SBIN              1 LISTING_LINES_ON_PAGE

  ****  Section 009 LblCom LISTING_PAGE_NUMBER

  ****  Scalars and arrays  ****
OctLoc.c.b A Datatyp(siz) R M Lvl/name                 OctLoc.c.b A Datatyp(siz) R M Lvl/name

     0-0-0/w SBIN              1 LISTING_PAGE_NUMBER

  ****  Section 010 LblCom PLINE

PL6.E3A0      #005=Z8IL$PRINT_ERROR File=Z8IL.:Z8A6TSI                           SAT 08/09/97 13:31 Page:230
  ****  Scalars and arrays  ****
OctLoc.c.b A Datatyp(siz) R M Lvl/name                 OctLoc.c.b A Datatyp(siz) R M Lvl/name

     0-0-0/c CHAR(109)         1 PLINE
     0-0-0/c CHAR              1 PLINE_CHAR(0:108)
     0-0-0/c STRC(981)         1 PLINE_REDEF_FIELDS

  ****  Section 011 LblCom PLINE_LEN

  ****  Scalars and arrays  ****
OctLoc.c.b A Datatyp(siz) R M Lvl/name                 OctLoc.c.b A Datatyp(siz) R M Lvl/name

     0-0-0/w SBIN              1 PLINE_LEN

  ****  Section 012 LblCom ERR$

  ****  Scalars and arrays  ****
OctLoc.c.b A Datatyp(siz) R M Lvl/name                 OctLoc.c.b A Datatyp(siz) R M Lvl/name

     0-0-0/w PTR         r     1 ERR$

  ****  Section 013 LblCom ERR_HEAD

  ****  Scalars and arrays  ****
OctLoc.c.b A Datatyp(siz) R M Lvl/name                 OctLoc.c.b A Datatyp(siz) R M Lvl/name

     0-0-0/w PTR               1 ERR_HEAD

  ****  Section 014 LblCom ERR_TAIL

  ****  Scalars and arrays  ****
OctLoc.c.b A Datatyp(siz) R M Lvl/name                 OctLoc.c.b A Datatyp(siz) R M Lvl/name

     0-0-0/w PTR               1 ERR_TAIL

  ****  Section 015 LblCom MAX_ERROR_GENERATED

PL6.E3A0      #005=Z8IL$PRINT_ERROR File=Z8IL.:Z8A6TSI                           SAT 08/09/97 13:31 Page:231
  ****  Scalars and arrays  ****
OctLoc.c.b A Datatyp(siz) R M Lvl/name                 OctLoc.c.b A Datatyp(siz) R M Lvl/name

     0-0-0/w SBIN              1 MAX_ERROR_GENERATED

  ****  Section 016 LblCom ERR_

  ****  Scalars and arrays  ****
OctLoc.c.b A Datatyp(siz) R M Lvl/name                 OctLoc.c.b A Datatyp(siz) R M Lvl/name

     0-0-0/w STRC(180)         1 ERR_

  ****  Section 017 LblCom DNT$

  ****  Scalars and arrays  ****
OctLoc.c.b A Datatyp(siz) R M Lvl/name                 OctLoc.c.b A Datatyp(siz) R M Lvl/name

     0-0-0/w PTR         r     1 DNT$

  ****  Section 018 LblCom DNT_

  ****  Scalars and arrays  ****
OctLoc.c.b A Datatyp(siz) R M Lvl/name                 OctLoc.c.b A Datatyp(siz) R M Lvl/name

     0-0-0/w STRC(180)         1 DNT_

  ****  Section 019 LblCom DNT_BUCKET_NUMBER

  ****  Scalars and arrays  ****
OctLoc.c.b A Datatyp(siz) R M Lvl/name                 OctLoc.c.b A Datatyp(siz) R M Lvl/name

     0-0-0/w UBIN              1 DNT_BUCKET_NUMBER

  ****  Section 020 LblCom DNT_OF_1$

  ****  Scalars and arrays  ****
OctLoc.c.b A Datatyp(siz) R M Lvl/name                 OctLoc.c.b A Datatyp(siz) R M Lvl/name
PL6.E3A0      #005=Z8IL$PRINT_ERROR File=Z8IL.:Z8A6TSI                           SAT 08/09/97 13:31 Page:232

     0-0-0/w PTR               1 DNT_OF_1$

  ****  Section 021 LblCom SCANNER_STATE

  ****  Scalars and arrays  ****
OctLoc.c.b A Datatyp(siz) R M Lvl/name                 OctLoc.c.b A Datatyp(siz) R M Lvl/name

     0-0-0/w SBIN              1 SCANNER_STATE

  ****  Section 022 LblCom CURRENT_BUFFER$

  ****  Scalars and arrays  ****
OctLoc.c.b A Datatyp(siz) R M Lvl/name                 OctLoc.c.b A Datatyp(siz) R M Lvl/name

     0-0-0/w PTR               1 CURRENT_BUFFER$

  ****  Section 023 LblCom LOOKAHEAD_BUFFER$

  ****  Scalars and arrays  ****
OctLoc.c.b A Datatyp(siz) R M Lvl/name                 OctLoc.c.b A Datatyp(siz) R M Lvl/name

     0-0-0/w PTR         r     1 LOOKAHEAD_BUFFER$

  ****  Section 024 LblCom CURRENT_LINE_LEVEL

  ****  Scalars and arrays  ****
OctLoc.c.b A Datatyp(siz) R M Lvl/name                 OctLoc.c.b A Datatyp(siz) R M Lvl/name

     0-0-0/w SBIN              1 CURRENT_LINE_LEVEL

  ****  Section 025 LblCom LINE_LIST$

  ****  Scalars and arrays  ****
OctLoc.c.b A Datatyp(siz) R M Lvl/name                 OctLoc.c.b A Datatyp(siz) R M Lvl/name

     0-0-0/w PTR               1 LINE_LIST$
PL6.E3A0      #005=Z8IL$PRINT_ERROR File=Z8IL.:Z8A6TSI                           SAT 08/09/97 13:31 Page:233

  ****  Section 026 LblCom BUFFER

  ****  Scalars and arrays  ****
OctLoc.c.b A Datatyp(siz) R M Lvl/name                 OctLoc.c.b A Datatyp(siz) R M Lvl/name

     0-0-0/w STRC(252)   r     1 BUFFER

  ****  Section 027 LblCom ORIGINAL_ISN

  ****  Scalars and arrays  ****
OctLoc.c.b A Datatyp(siz) R M Lvl/name                 OctLoc.c.b A Datatyp(siz) R M Lvl/name

     0-0-0/w SBIN              1 ORIGINAL_ISN

  ****  Section 028 LblCom EXPANDED_ISN

  ****  Scalars and arrays  ****
OctLoc.c.b A Datatyp(siz) R M Lvl/name                 OctLoc.c.b A Datatyp(siz) R M Lvl/name

     0-0-0/w SBIN              1 EXPANDED_ISN

  ****  Section 029 LblCom ISN_FOR_EXP_SRC

  ****  Scalars and arrays  ****
OctLoc.c.b A Datatyp(siz) R M Lvl/name                 OctLoc.c.b A Datatyp(siz) R M Lvl/name

     0-0-0/w SBIN              1 ISN_FOR_EXP_SRC

  ****  Section 030 RoData Z8IL$PRINT_ERROR

  ****  Scalars and arrays  ****
OctLoc.c.b A Datatyp(siz) R M Lvl/name                 OctLoc.c.b A Datatyp(siz) R M Lvl/name

 25651-0-0/c CHAR(70)    r     1 DEFAULT_MSG               12-0-0/c STRC(6543)  r     1 ERRMSG_TABLE_0
   317-0-0/c STRC(36468) r     1 ERRMSG_TABLE_1          2410-0-0/c STRC(12123) r     1 ERRMSG_TABLE_2
  3161-0-0/c STRC(14274) r     1 ERRMSG_TABLE_3          4032-0-0/c STRC(55503) r     1 ERRMSG_TABLE_4
PL6.E3A0      #005=Z8IL$PRINT_ERROR File=Z8IL.:Z8A6TSI                           SAT 08/09/97 13:31 Page:234
  7205-0-0/c STRC(64665) r     1 ERRMSG_TABLE_5         12757-0-0/c STRC(55260) r     1 ERRMSG_TABLE_6
 16123-0-0/c STRC(51885) r     1 ERRMSG_TABLE_7         21132-0-0/c STRC(65151) r     1 ERRMSG_TABLE_8
 24716-0-0/c STRC(15255) r     1 ERRMSG_TABLE_9
   300-0-0/w PTR         r     1 ERRMSG_TABLE_ADDRS_0(0:14)
  2304-0-0/w PTR         r     1 ERRMSG_TABLE_ADDRS_1(0:67)
  3131-0-0/w PTR         r     1 ERRMSG_TABLE_ADDRS_2(0:23)
  3776-0-0/w PTR         r     1 ERRMSG_TABLE_ADDRS_3(0:27)
  7040-0-0/w PTR         r     1 ERRMSG_TABLE_ADDRS_4(0:100)
 12612-0-0/w PTR         r     1 ERRMSG_TABLE_ADDRS_5(0:100)
 15756-0-0/w PTR         r     1 ERRMSG_TABLE_ADDRS_6(0:100)
 20765-0-0/w PTR         r     1 ERRMSG_TABLE_ADDRS_7(0:100)
 24554-0-0/w PTR         r     1 ERRMSG_TABLE_ADDRS_8(0:97)
 25566-0-0/w PTR         r     1 ERRMSG_TABLE_ADDRS_9(0:30)
 25625-0-0/w PTR         r     1 ERR_TABLES(0:9)
 25637-0-0/w SBIN        r     1 ERR_TABLE_LENGTH(0:9)
     0-0-0/w SBIN        r     1 SEVERITY_OF_ERROR(0:9)
 25673-0-0/c CHAR(5)     r     1 STARS(0:5)

  ****  Section 031 LblCom COMP_SUMMARY_COUNT

  ****  Scalars and arrays  ****
OctLoc.c.b A Datatyp(siz) R M Lvl/name                 OctLoc.c.b A Datatyp(siz) R M Lvl/name

     0-0-0/w SBIN        r     1 COMP_SUMMARY_COUNT(0:5)

  ****  Auto variables  ****

  ****  Scalars and arrays  ****
OctLoc.c.b A Datatyp(siz) R M Lvl/name                 OctLoc.c.b A Datatyp(siz) R M Lvl/name

   171-0-0/w PTR         r     1 @N                         3-0-0/w PTR         r     1 @OUTPUT_ERR_1
     4-0-0/w PTR         r     1 @OUTPUT_ERR_2            161-0-0/w SBIN        r     1 ACCUM_NUM_ERRORS
   163-0-0/b BIT         r     1 ERROR_FOR_LINE           172-0-0/w PTR         r     1 ERRP$
    60-0-0/c CHAR        r     1 ERR_COL(0:255)            60-0-0/c CHAR(256)   r     1 ERR_COL_LINE
   173-0-0/c STRC(2817)  r     1 ERR_LINE_FORMAT          314-0-0/w PTR         r     1 ERR_TABLE$
   167-0-0/w SBIN        r     1 I                        162-0-0/w SBIN        r     1 LAST_MSG_NUM
   160-0-0/w UBIN        r     1 MAX_ERR_COL              316-0-0/w PTR         r     1 MSG$
PL6.E3A0      #005=Z8IL$PRINT_ERROR File=Z8IL.:Z8A6TSI                           SAT 08/09/97 13:31 Page:235
     6-0-0/w STRC(1512)  r     1 MSG_ARRAY                315-0-0/w SBIN        r     1 MSG_LENGTH
    *0-0-0/w SBIN        r     1 N                        313-0-0/w SBIN        r     1 NERR_IN_TABLE
     5-0-0/w SBIN        r     1 NTABLE                    *0-0-0/w EPTR        r     1 OUTPUT_ERR_1
    *0-0-0/w EPTR        r     1 OUTPUT_ERR_2             322-0-0/w SBIN        r     1 PAR_MSG_LEN
   323-0-0/w PTR         r     1 PLUG$                    325-0-0/w SBIN        r     1 PLUG_LEN
   324-0-0/w SBIN        r     1 PLUG_NUM                 321-0-0/w SBIN        r     1 TXT_LEN_REM
   312-0-0/w SBIN        r     1 TXT_LEN_TOT

  ****  SYMREF variables  ****

  ****  Scalars and arrays  ****
OctLoc.c.b A Datatyp(siz) R M Lvl/name                 OctLoc.c.b A Datatyp(siz) R M Lvl/name

     0-0-0/c CHAR        r     1 BLANK                      0-0-0/d STRC(13248)       1 COMCOM
     0-0-0/c STRC(297)         1 DEF_LISTING_SUB_HEADING
     0-0-0/w PTR               1 PLINE_PTR$

  ****  BASED and DCB variables  ****

  ****  Scalars and arrays  ****
OctLoc.c.b A Datatyp(siz) R M Lvl/name                 OctLoc.c.b A Datatyp(siz) R M Lvl/name

     0-0-0/w PTR         r     1 BASED_ERR_TABLE(0:100)
     0-0-0/c ACHR              1 BUFFER_LINE                0-0-0/w CHAR(4096)        1 CHARS
     0-0-0/w STRC(72)          1 CONT                       0-0-0/w ASTR(180)   r     1 DNT
     0-0-0/w STRC(540)   r     1 ERR                        0-0-0/c ACHR              1 ERR_TXT
     0-0-0/w ASTR(396)   r     1 EXP_SRC_BUFF               0-0-0/w ASTR(396)   r     1 FILL_BUFFER
     0-0-0/c ACHR              1 LISTING_SUB_HEADING        0-0-0/c ACHR              1 LISTING_SUB_HEADING1
     0-0-0/c ACHR              1 LISTING_SUB_HEADING2       0-0-0/w STRC(36864)       1 PAGE
     0-0-0/c ACHR        r     1 PAR_MSG                    0-0-0/c CHAR        r     1 PLUG_CHAR
     0-0-0/c ACHR        r     1 REM_MSG


   Procedure Z8IL$PRINT_ERROR requires 391 words for executable code.
   Procedure Z8IL$PRINT_ERROR requires 218 words of local(AUTO) storage.

PL6.E3A0      #006=Z8IL$HANDLE_OVERFLOW_LINE File=Z8IL.:Z8A6TSI                  SAT 08/09/97 13:35 Page:236
     1522        1        /*T***********************************************************/
     1523        2        /*T*                                                         */
     1524        3        /*T* Copyright (c) Bull HN Information Systems Inc., 1997    */
     1525        4        /*T*                                                         */
     1526        5        /*T***********************************************************/
     1527        6        Z8IL$HANDLE_OVERFLOW_LINE: PROC (LINE$, LENGTH, OP);
     1528        7
     1529        8        /*D*
     1530        9               NAME: Z8IL$HANDLE_OVERFLOW_LINE
     1531       10        DESCRIPTION: Print overflow lines by breaking the long line into
     1532       11                       multiple short lines which may be printed directly.
     1533       12        */
     1534       13
     1535       14
     1536       15    1          DCL LINE$   PTR;
     1537       16    1          DCL LENGTH  SBIN WORD;
     1538       17    1          DCL OP      EPTR;
     1539       18
     1540       19        %EQU PHASE = 5;
     1541       20        %INCLUDE Z8A_DEFC;
     1542       88        %INCLUDE Z8A_SUPP_MAC;
     1543     2488        %INCLUDE Z8A_COMCOM;
     1544     3138        % INCLUDE Z9I_PREPROC;
     1545     3158
     1546     3159    1   DCL NEW_LENGTH   SBIN WORD;
     1547     3160    1   DCL RES_LENGTH   SBIN WORD;
     1548     3161    1   DCL BL$          PTR;  /* Begin line to be printed */
     1549     3162    1   DCL EL$          PTR;  /* End line to be printed */
     1550     3163    1   DCL BLANK_FIELD  CHAR(%LINE_OVERFLOW_INDENT) UNAL BASED (BL$);
     1551     3164    1   DCL SAVE_FIELD   CHAR(%LINE_OVERFLOW_INDENT) UNAL;
     1552     3165    1   DCL BLANKS       CHAR(%LINE_OVERFLOW_INDENT) UNAL CONSTANT INIT(' ');
     1553     3166
     1554     3167        /* Find break, if any, in text within 30 characters before
     1555     3168           pointer P which marks the end of a line of length N.
     1556     3169        */
     1557     3170
     1558     3171    1   FIND_BREAK_IN_TEXT: PROC(P$, N);
PL6.E3A0      #006=Z8IL$HANDLE_OVERFLOW_LINE File=Z8IL.:Z8A6TSI                  SAT 08/09/97 13:35 Page:237
     1559     3172
     1560     3173    2          DCL P$           PTR;
     1561     3174    2          DCL N            SBIN WORD;
     1562     3175
     1563     3176        %EQU SWIDTH = 30;   /* Search width for break char */
     1564     3177    2          DCL Q$           PTR;
     1565     3178    2          DCL M            SBIN WORD;
     1566     3179    2          DCL QC           CHAR(1) BASED (Q$);
     1567     3180
     1568     3181    2   Q$ = P$;
     1569     3182    2   M  = %SWIDTH;
     1570     3183
     1571     3184    3   DO WHILE (((QC>='A' AND QC<='Z')
     1572     3185    3                  OR (QC>='a' AND QC<='z')
     1573     3186    3                  OR (QC>='0' AND QC <='9')
     1574     3187    3                  OR (QC='-'))
     1575     3188    3               AND (M > 0));
     1576     3189    3     Q$  = PINCRC(Q$, -1);
     1577     3190    3     M   = M-1;
     1578     3191    3   END;
     1579     3192    2   IF M=0 THEN
     1580     3193    2     M = %SWIDTH;
     1581     3194    2   ELSE
     1582     3195    2     IF M ~= %SWIDTH THEN
     1583     3196    2       M = M + 1;
     1584     3197
     1585     3198    2   P$  = PINCRC(P$, M-%SWIDTH);
     1586     3199    2   N   = N+M-%SWIDTH;
     1587     3200
     1588     3201    2   END FIND_BREAK_IN_TEXT;
     1589     3202
     1590     3203
     1591     3204
     1592     3205        /* Start body of hand_overflow_line */
     1593     3206
     1594     3207    1   BL$        = LINE$;
     1595     3208    1   EL$        = PINCRC(BL$,%MAX_LISTING_LINE_LENGTH);
PL6.E3A0      #006=Z8IL$HANDLE_OVERFLOW_LINE File=Z8IL.:Z8A6TSI                  SAT 08/09/97 13:35 Page:238
     1596     3209    1   NEW_LENGTH = %MAX_LISTING_LINE_LENGTH;
     1597     3210    1   RES_LENGTH = LENGTH;
     1598     3211    1   CALL FIND_BREAK_IN_TEXT(EL$, NEW_LENGTH);
     1599     3212    1   CALL OP(BL$, NEW_LENGTH);
     1600     3213    1   RES_LENGTH = RES_LENGTH - NEW_LENGTH;
     1601     3214
     1602     3215    2   DO WHILE (RES_LENGTH > 0);
     1603     3216    2     BL$          = PINCRC (EL$, - %LINE_OVERFLOW_INDENT);
     1604     3217    2     SAVE_FIELD   = BLANK_FIELD;
     1605     3218    2     BLANK_FIELD  = BLANKS;
     1606     3219    2     NEW_LENGTH   = MINIMUM(RES_LENGTH+%LINE_OVERFLOW_INDENT,
     1607     3220    2                          %MAX_LISTING_LINE_LENGTH);
     1608     3221    2     EL$          = PINCRC(BL$, NEW_LENGTH);
     1609     3222    2     IF RES_LENGTH + %LINE_OVERFLOW_INDENT > %MAX_LISTING_LINE_LENGTH THEN
     1610     3223    2       CALL FIND_BREAK_IN_TEXT (EL$, NEW_LENGTH);
     1611     3224    2     CALL OP(BL$, NEW_LENGTH);
     1612     3225    2     BLANK_FIELD  = SAVE_FIELD;
     1613     3226    2     RES_LENGTH   = RES_LENGTH - NEW_LENGTH + %LINE_OVERFLOW_INDENT;
     1614     3227    2   END; /* WHILE */
     1615     3228
     1616     3229    1   END Z8IL$HANDLE_OVERFLOW_LINE;

PL6.E3A0      #006=Z8IL$HANDLE_OVERFLOW_LINE File=Z8IL.:Z8A6TSI                  SAT 08/09/97 13:35 Page:239
--  Include file information  --

   Z9I_PREPROC.:Z8A6TOU  is referenced.
   Z8A_COMCOM.:Z8A6TOU  cannot be made into a system file and is referenced.
   X8A_COM_MACS.:X8A6TOU  is referenced.
   Z8A_NAMES.:Z8A6TOU  is referenced.
   Z8A_SUPP_MAC.:Z8A6TOU  is referenced.
   Z8A_DEFC.:Z8A6TOU  cannot be made into a system file and is referenced.
      No diagnostics issued in procedure Z8IL$HANDLE_OVERFLOW_LINE.

   Procedure Z8IL$HANDLE_OVERFLOW_LINE requires 148 words for executable code.
   Procedure Z8IL$HANDLE_OVERFLOW_LINE requires 24 words of local(AUTO) storage.

    No errors detected in file Z8IL.:Z8A6TSI    .

PL6.E3A0      #006=Z8IL$HANDLE_OVERFLOW_LINE File=Z8IL.:Z8A6TSI                  SAT 08/09/97 13:35 Page:240

 Object Unit name= Z8IL$HANDLE_OVERFLOW_LINE                  File name= Z8IL.:Z8A6TOU
 UTS= AUG 09 '97 13:35:09.08 SAT                              Compiler= PL-6/E31         Sev=      00
 SharedLib= :SHARED_SYSTEM                                    Alt SharedLib=


    ****  Control sections  ****

 Sect   Type Bound  Init  Size OctSiz  Section name(segment info)
    0  LblCom even  none     1      1  ITERATION
    1  RoData even  UTS      5      5  Z8IL$HANDLE_OVERFLOW_LINE
    2   Proc  even  none   148    224  Z8IL$HANDLE_OVERFLOW_LINE
    3  RoData even  none    11     13  Z8IL$HANDLE_OVERFLOW_LINE

    ****  Entry defs  ****

                              Check   Calling
                             calling  sequence
  Sect OctLoc Primary Altret sequence   type   Parms  Name
     2      0   yes            yes      Std        3  Z8IL$HANDLE_OVERFLOW_LINE

  ****  Entry refs  ****

         Check        Calling
        calling       sequence
Altret sequence SRef   type   Args  Name
                       nStd      0 X66_AUTO_3
                       nStd      0 X66_ARET

  ****  Data refs  ****

  Flags:  r = read only, s = secondary
Flgs Name                             Flgs Name                             Flgs Name
     COMCOM
PL6.E3A0      #006=Z8IL$HANDLE_OVERFLOW_LINE File=Z8IL.:Z8A6TSI                  SAT 08/09/97 13:35 Page:241


     1522        1        /*T***********************************************************/
     1523        2        /*T*                                                         */
     1524        3        /*T* Copyright (c) Bull HN Information Systems Inc., 1997    */
     1525        4        /*T*                                                         */
     1526        5        /*T***********************************************************/
     1527        6        Z8IL$HANDLE_OVERFLOW_LINE: PROC (LINE$, LENGTH, OP);

      6  2 000000   000000 700200 xent  Z8IL$HANDLE* TSX0  ! X66_AUTO_3
         2 000001   000030 000003                    ZERO    24,3
         2 000002   000106 710000 2                  TRA     s:3207

     1528        7
     1529        8        /*D*
     1530        9               NAME: Z8IL$HANDLE_OVERFLOW_LINE
     1531       10        DESCRIPTION: Print overflow lines by breaking the long line into
     1532       11                       multiple short lines which may be printed directly.
     1533       12        */
     1534       13
     1535       14
     1536       15    1          DCL LINE$   PTR;
     1537       16    1          DCL LENGTH  SBIN WORD;
     1538       17    1          DCL OP      EPTR;
     1539       18
     1540       19        %EQU PHASE = 5;
     1541       20        %INCLUDE Z8A_DEFC;
     1542       88        %INCLUDE Z8A_SUPP_MAC;
     1543     2488        %INCLUDE Z8A_COMCOM;
     1544     3138        % INCLUDE Z9I_PREPROC;
     1545     3158
     1546     3159    1   DCL NEW_LENGTH   SBIN WORD;
     1547     3160    1   DCL RES_LENGTH   SBIN WORD;
     1548     3161    1   DCL BL$          PTR;  /* Begin line to be printed */
     1549     3162    1   DCL EL$          PTR;  /* End line to be printed */
     1550     3163    1   DCL BLANK_FIELD  CHAR(%LINE_OVERFLOW_INDENT) UNAL BASED (BL$);
     1551     3164    1   DCL SAVE_FIELD   CHAR(%LINE_OVERFLOW_INDENT) UNAL;
     1552     3165    1   DCL BLANKS       CHAR(%LINE_OVERFLOW_INDENT) UNAL CONSTANT INIT(' ');
PL6.E3A0      #006=Z8IL$HANDLE_OVERFLOW_LINE File=Z8IL.:Z8A6TSI                  SAT 08/09/97 13:35 Page:242
     1553     3166
     1554     3167        /* Find break, if any, in text within 30 characters before
     1555     3168           pointer P which marks the end of a line of length N.
     1556     3169        */
     1557     3170
     1558     3171    1   FIND_BREAK_IN_TEXT: PROC(P$, N);

   3171  2 000003   200020 741300       FIND_BREAK_* STX1  ! SAVE_FIELD+6,,AUTO

     1559     3172
     1560     3173    2          DCL P$           PTR;
     1561     3174    2          DCL N            SBIN WORD;
     1562     3175
     1563     3176        %EQU SWIDTH = 30;   /* Search width for break char */
     1564     3177    2          DCL Q$           PTR;
     1565     3178    2          DCL M            SBIN WORD;
     1566     3179    2          DCL QC           CHAR(1) BASED (Q$);
     1567     3180
     1568     3181    2   Q$ = P$;

   3181  2 000004   200021 470500                    LDP0    @P$,,AUTO
         2 000005   000000 236100                    LDQ     0,,PR0
         2 000006   200023 756100                    STQ     Q$,,AUTO

     1569     3182    2   M  = %SWIDTH;

   3182  2 000007   000036 235007                    LDA     30,DL
         2 000010   200024 755100                    STA     M,,AUTO

     1570     3183
     1571     3184    3   DO WHILE (((QC>='A' AND QC<='Z')

   3184  2 000011   000017 710000 2                  TRA     s:3191

     1572     3185    3                  OR (QC>='a' AND QC<='z')
     1573     3186    3                  OR (QC>='0' AND QC <='9')
     1574     3187    3                  OR (QC='-'))
PL6.E3A0      #006=Z8IL$HANDLE_OVERFLOW_LINE File=Z8IL.:Z8A6TSI                  SAT 08/09/97 13:35 Page:243
     1575     3188    3               AND (M > 0));
     1576     3189    3     Q$  = PINCRC(Q$, -1);

   3189  2 000012   200023 236100                    LDQ     Q$,,AUTO
         2 000013   000000 036000 3                  ADLQ    0
         2 000014   200023 756100                    STQ     Q$,,AUTO

     1577     3190    3     M   = M-1;

   3190  2 000015   000001 336007                    LCQ     1,DL
         2 000016   200024 056100                    ASQ     M,,AUTO

     1578     3191    3   END;

   3191  2 000017   200023 470500                    LDP0    Q$,,AUTO
         2 000020   040000 106500                    CMPC    fill='040'O
         2 000021   000000 000001                    ADSC9   0,,PR0                   cn=0,n=1
         2 000022   000001 000001 3                  ADSC9   1                        cn=0,n=1
         2 000023   000030 602000 2                  TNC     s:3191+9
         2 000024   040100 106400                    CMPC    fill='040'O
         2 000025   000002 000001 3                  ADSC9   2                        cn=0,n=1
         2 000026   000000 000001                    ADSC9   0,,PR0                   cn=0,n=1
         2 000027   000054 603000 2                  TRC     s:3191+29
         2 000030   040000 106500                    CMPC    fill='040'O
         2 000031   000000 000001                    ADSC9   0,,PR0                   cn=0,n=1
         2 000032   000003 000001 3                  ADSC9   3                        cn=0,n=1
         2 000033   000040 602000 2                  TNC     s:3191+17
         2 000034   040100 106400                    CMPC    fill='040'O
         2 000035   000004 000001 3                  ADSC9   4                        cn=0,n=1
         2 000036   000000 000001                    ADSC9   0,,PR0                   cn=0,n=1
         2 000037   000054 603000 2                  TRC     s:3191+29
         2 000040   040000 106500                    CMPC    fill='040'O
         2 000041   000000 000001                    ADSC9   0,,PR0                   cn=0,n=1
         2 000042   000005 000001 3                  ADSC9   5                        cn=0,n=1
         2 000043   000050 602000 2                  TNC     s:3191+25
         2 000044   040100 106400                    CMPC    fill='040'O
         2 000045   000006 000001 3                  ADSC9   6                        cn=0,n=1
PL6.E3A0      #006=Z8IL$HANDLE_OVERFLOW_LINE File=Z8IL.:Z8A6TSI                  SAT 08/09/97 13:35 Page:244
         2 000046   000000 000001                    ADSC9   0,,PR0                   cn=0,n=1
         2 000047   000054 603000 2                  TRC     s:3191+29
         2 000050   040000 106500                    CMPC    fill='040'O
         2 000051   000000 000001                    ADSC9   0,,PR0                   cn=0,n=1
         2 000052   000007 000001 3                  ADSC9   7                        cn=0,n=1
         2 000053   000056 601000 2                  TNZ     s:3192
         2 000054   200024 235100                    LDA     M,,AUTO
         2 000055   000012 605400 2                  TPNZ    s:3189

     1579     3192    2   IF M=0 THEN

   3192  2 000056   200024 235100                    LDA     M,,AUTO
         2 000057   000063 601000 2                  TNZ     s:3195

     1580     3193    2     M = %SWIDTH;

   3193  2 000060   000036 236007                    LDQ     30,DL
         2 000061   200024 756100                    STQ     M,,AUTO
         2 000062   000066 710000 2                  TRA     s:3198

     1581     3194    2   ELSE
     1582     3195    2     IF M ~= %SWIDTH THEN

   3195  2 000063   000036 115007                    CMPA    30,DL
         2 000064   000066 600000 2                  TZE     s:3198

     1583     3196    2       M = M + 1;

   3196  2 000065   200024 054100                    AOS     M,,AUTO

     1584     3197
     1585     3198    2   P$  = PINCRC(P$, M-%SWIDTH);

   3198  2 000066   200021 471500                    LDP1    @P$,,AUTO
         2 000067   100000 473500                    LDP3    0,,PR1
         2 000070   200024 236100                    LDQ     M,,AUTO
         2 000071   000011 402007                    MPY     9,DL
PL6.E3A0      #006=Z8IL$HANDLE_OVERFLOW_LINE File=Z8IL.:Z8A6TSI                  SAT 08/09/97 13:35 Page:245
         2 000072   000416 136007                    SBLQ    270,DL
         2 000073   000075 605000 2                  TPL     s:3198+7
         2 000074   000044 036003                    ADLQ    36,DU
         2 000075   300000 503506                    ABD     0,QL,PR3
         2 000076   100000 453500                    STP3    0,,PR1

     1586     3199    2   N   = N+M-%SWIDTH;

   3199  2 000077   200022 474500                    LDP4    @N,,AUTO
         2 000100   400000 236100                    LDQ     0,,PR4
         2 000101   200024 036100                    ADLQ    M,,AUTO
         2 000102   000036 136007                    SBLQ    30,DL
         2 000103   400000 756100                    STQ     0,,PR4

     1587     3200
     1588     3201    2   END FIND_BREAK_IN_TEXT;

   3201  2 000104   200020 221300                    LDX1  ! SAVE_FIELD+6,,AUTO
         2 000105   000001 702211                    TSX2  ! 1,X1

     1589     3202
     1590     3203
     1591     3204
     1592     3205        /* Start body of hand_overflow_line */
     1593     3206
     1594     3207    1   BL$        = LINE$;

   3207  2 000106   200003 470500                    LDP0    @LINE$,,AUTO
         2 000107   000000 236100                    LDQ     0,,PR0
         2 000110   200010 756100                    STQ     BL$,,AUTO

     1595     3208    1   EL$        = PINCRC(BL$,%MAX_LISTING_LINE_LENGTH);

   3208  2 000111   000010 036000 3                  ADLQ    8
         2 000112   200011 756100                    STQ     EL$,,AUTO

     1596     3209    1   NEW_LENGTH = %MAX_LISTING_LINE_LENGTH;
PL6.E3A0      #006=Z8IL$HANDLE_OVERFLOW_LINE File=Z8IL.:Z8A6TSI                  SAT 08/09/97 13:35 Page:246

   3209  2 000113   000155 235007                    LDA     109,DL
         2 000114   200006 755100                    STA     NEW_LENGTH,,AUTO

     1597     3210    1   RES_LENGTH = LENGTH;

   3210  2 000115   200004 471500                    LDP1    @LENGTH,,AUTO
         2 000116   100000 235100                    LDA     0,,PR1
         2 000117   200007 755100                    STA     RES_LENGTH,,AUTO

     1598     3211    1   CALL FIND_BREAK_IN_TEXT(EL$, NEW_LENGTH);

   3211  2 000120   200006 633500                    EPPR3   NEW_LENGTH,,AUTO
         2 000121   200022 453500                    STP3    @P$+1,,AUTO
         2 000122   200011 634500                    EPPR4   EL$,,AUTO
         2 000123   200021 454500                    STP4    SAVE_FIELD+7,,AUTO
         2 000124   000003 701000 2                  TSX1    FIND_BREAK_IN_TEXT
         2 000125   000000 011000                    NOP     0

     1599     3212    1   CALL OP(BL$, NEW_LENGTH);

   3212  2 000126   200006 630500                    EPPR0   NEW_LENGTH,,AUTO
         2 000127   200027 450500                    STP0    M+3,,AUTO
         2 000130   200010 631500                    EPPR1   BL$,,AUTO
         2 000131   200026 451500                    STP1    M+2,,AUTO
         2 000132   200026 630500                    EPPR0   M+2,,AUTO
         2 000133   200005 473500                    LDP3    @OP,,AUTO
         2 000134   300000 220100                    LDX0    0,,PR3
         2 000135   000011 631400 3                  EPPR1   9
         2 000136   000000 701010                    TSX1    0,X0
         2 000137   000000 011000                    NOP     0

     1600     3213    1   RES_LENGTH = RES_LENGTH - NEW_LENGTH;

   3213  2 000140   200007 236100                    LDQ     RES_LENGTH,,AUTO
         2 000141   200006 136100                    SBLQ    NEW_LENGTH,,AUTO
         2 000142   200007 756100                    STQ     RES_LENGTH,,AUTO
PL6.E3A0      #006=Z8IL$HANDLE_OVERFLOW_LINE File=Z8IL.:Z8A6TSI                  SAT 08/09/97 13:35 Page:247

     1601     3214
     1602     3215    2   DO WHILE (RES_LENGTH > 0);

   3215  2 000143   000223 604400 2                  TMOZ    s:3229

     1603     3216    2     BL$          = PINCRC (EL$, - %LINE_OVERFLOW_INDENT);

   3216  2 000144   200011 236100                    LDQ     EL$,,AUTO
         2 000145   000012 036000 3                  ADLQ    10
         2 000146   200010 756100                    STQ     BL$,,AUTO

     1604     3217    2     SAVE_FIELD   = BLANK_FIELD;

   3217  2 000147   200010 470500                    LDP0    BL$,,AUTO
         2 000150   040100 100500                    MLR     fill='040'O
         2 000151   000000 000023                    ADSC9   0,,PR0                   cn=0,n=19
         2 000152   200012 000023                    ADSC9   SAVE_FIELD,,AUTO         cn=0,n=19

     1605     3218    2     BLANK_FIELD  = BLANKS;

   3218  2 000153   040100 100400                    MLR     fill='040'O
         2 000154   000000 000023 1                  ADSC9   BLANKS                   cn=0,n=19
         2 000155   000000 000023                    ADSC9   0,,PR0                   cn=0,n=19

     1606     3219    2     NEW_LENGTH   = MINIMUM(RES_LENGTH+%LINE_OVERFLOW_INDENT,

   3219  2 000156   200007 236100                    LDQ     RES_LENGTH,,AUTO
         2 000157   000023 036007                    ADLQ    19,DL
         2 000160   000155 116007                    CMPQ    109,DL
         2 000161   000163 604400 2                  TMOZ    s:3219+5
         2 000162   000155 236007                    LDQ     109,DL
         2 000163   200006 756100                    STQ     NEW_LENGTH,,AUTO

     1607     3220    2                          %MAX_LISTING_LINE_LENGTH);
     1608     3221    2     EL$          = PINCRC(BL$, NEW_LENGTH);

PL6.E3A0      #006=Z8IL$HANDLE_OVERFLOW_LINE File=Z8IL.:Z8A6TSI                  SAT 08/09/97 13:35 Page:248
   3221  2 000164   000020 736000                    QLS     16
         2 000165   200010 036100                    ADLQ    BL$,,AUTO
         2 000166   200011 756100                    STQ     EL$,,AUTO

     1609     3222    2     IF RES_LENGTH + %LINE_OVERFLOW_INDENT > %MAX_LISTING_LINE_LENGTH THEN

   3222  2 000167   200007 235100                    LDA     RES_LENGTH,,AUTO
         2 000170   000132 115007                    CMPA    90,DL
         2 000171   000200 604400 2                  TMOZ    s:3224

     1610     3223    2       CALL FIND_BREAK_IN_TEXT (EL$, NEW_LENGTH);

   3223  2 000172   200006 630500                    EPPR0   NEW_LENGTH,,AUTO
         2 000173   200022 450500                    STP0    @P$+1,,AUTO
         2 000174   200011 631500                    EPPR1   EL$,,AUTO
         2 000175   200021 451500                    STP1    SAVE_FIELD+7,,AUTO
         2 000176   000003 701000 2                  TSX1    FIND_BREAK_IN_TEXT
         2 000177   000000 011000                    NOP     0

     1611     3224    2     CALL OP(BL$, NEW_LENGTH);

   3224  2 000200   200006 630500                    EPPR0   NEW_LENGTH,,AUTO
         2 000201   200027 450500                    STP0    M+3,,AUTO
         2 000202   200010 631500                    EPPR1   BL$,,AUTO
         2 000203   200026 451500                    STP1    M+2,,AUTO
         2 000204   200026 630500                    EPPR0   M+2,,AUTO
         2 000205   200005 473500                    LDP3    @OP,,AUTO
         2 000206   300000 220100                    LDX0    0,,PR3
         2 000207   000011 631400 3                  EPPR1   9
         2 000210   000000 701010                    TSX1    0,X0
         2 000211   000000 011000                    NOP     0

     1612     3225    2     BLANK_FIELD  = SAVE_FIELD;

   3225  2 000212   200010 470500                    LDP0    BL$,,AUTO
         2 000213   040100 100500                    MLR     fill='040'O
         2 000214   200012 000023                    ADSC9   SAVE_FIELD,,AUTO         cn=0,n=19
PL6.E3A0      #006=Z8IL$HANDLE_OVERFLOW_LINE File=Z8IL.:Z8A6TSI                  SAT 08/09/97 13:35 Page:249
         2 000215   000000 000023                    ADSC9   0,,PR0                   cn=0,n=19

     1613     3226    2     RES_LENGTH   = RES_LENGTH - NEW_LENGTH + %LINE_OVERFLOW_INDENT;

   3226  2 000216   200007 236100                    LDQ     RES_LENGTH,,AUTO
         2 000217   200006 136100                    SBLQ    NEW_LENGTH,,AUTO
         2 000220   000023 036007                    ADLQ    19,DL
         2 000221   200007 756100                    STQ     RES_LENGTH,,AUTO

     1614     3227    2   END; /* WHILE */

   3227  2 000222   000144 605400 2                  TPNZ    s:3216

     1615     3228
     1616     3229    1   END Z8IL$HANDLE_OVERFLOW_LINE;

   3229  2 000223   000000 702200 xent               TSX2  ! X66_ARET

PL6.E3A0      #006=Z8IL$HANDLE_OVERFLOW_LINE File=Z8IL.:Z8A6TSI                  SAT 08/09/97 13:35 Page:250
--  Include file information  --

   Z9I_PREPROC.:Z8A6TOU  is referenced.
   Z8A_COMCOM.:Z8A6TOU  cannot be made into a system file and is referenced.
   X8A_COM_MACS.:X8A6TOU  is referenced.
   Z8A_NAMES.:Z8A6TOU  is referenced.
   Z8A_SUPP_MAC.:Z8A6TOU  is referenced.
   Z8A_DEFC.:Z8A6TOU  cannot be made into a system file and is referenced.
      No diagnostics issued in procedure Z8IL$HANDLE_OVERFLOW_LINE.
PL6.E3A0      #006=Z8IL$HANDLE_OVERFLOW_LINE File=Z8IL.:Z8A6TSI                  SAT 08/09/97 13:35 Page:251

 **** Variables and constants ****

  ****  Section 000 LblCom ITERATION

  ****  Scalars and arrays  ****
OctLoc.c.b A Datatyp(siz) R M Lvl/name                 OctLoc.c.b A Datatyp(siz) R M Lvl/name

     0-0-0/w SBIN              1 ITERATION

  ****  Section 001 RoData Z8IL$HANDLE_OVERFLOW_LINE

  ****  Scalars and arrays  ****
OctLoc.c.b A Datatyp(siz) R M Lvl/name                 OctLoc.c.b A Datatyp(siz) R M Lvl/name

     0-0-0/c CHAR(19)    r     1 BLANKS

  ****  Auto variables  ****

  ****  Scalars and arrays  ****
OctLoc.c.b A Datatyp(siz) R M Lvl/name                 OctLoc.c.b A Datatyp(siz) R M Lvl/name

     4-0-0/w PTR         r     1 @LENGTH                    3-0-0/w PTR         r     1 @LINE$
    22-0-0/w PTR         r     1 @N                         5-0-0/w PTR         r     1 @OP
    21-0-0/w PTR         r     1 @P$                       10-0-0/w PTR         r     1 BL$
    11-0-0/w PTR         r     1 EL$                       *0-0-0/w SBIN        r     1 LENGTH
    *0-0-0/w PTR         r     1 LINE$                     24-0-0/w SBIN        r     1 M
    *0-0-0/w SBIN        r     1 N                          6-0-0/w SBIN        r     1 NEW_LENGTH
    *0-0-0/w EPTR        r     1 OP                        *0-0-0/w PTR         r     1 P$
    23-0-0/w PTR         r     1 Q$                         7-0-0/w SBIN        r     1 RES_LENGTH
    12-0-0/c CHAR(19)    r     1 SAVE_FIELD

  ****  SYMREF variables  ****

  ****  Scalars and arrays  ****
OctLoc.c.b A Datatyp(siz) R M Lvl/name                 OctLoc.c.b A Datatyp(siz) R M Lvl/name

     0-0-0/d STRC(13248)       1 COMCOM
PL6.E3A0      #006=Z8IL$HANDLE_OVERFLOW_LINE File=Z8IL.:Z8A6TSI                  SAT 08/09/97 13:35 Page:252

  ****  BASED and DCB variables  ****

  ****  Scalars and arrays  ****
OctLoc.c.b A Datatyp(siz) R M Lvl/name                 OctLoc.c.b A Datatyp(siz) R M Lvl/name

     0-0-0/c CHAR(19)    r     1 BLANK_FIELD                0-0-0/w CHAR(4096)        1 CHARS
     0-0-0/w STRC(72)          1 CONT                       0-0-0/w STRC(36864)       1 PAGE
     0-0-0/c CHAR        r     1 QC


   Procedure Z8IL$HANDLE_OVERFLOW_LINE requires 148 words for executable code.
   Procedure Z8IL$HANDLE_OVERFLOW_LINE requires 24 words of local(AUTO) storage.

    No errors detected in file Z8IL.:Z8A6TSI    .
