VERSION A06

PL6.E3A0      #001=Z8IO$OUTPUT_ARRAY File=Z8IO.:Z8A6TSI                          SAT 08/09/97 13:27 Page:1
        1        1        /*T***********************************************************/
        2        2        /*T*                                                         */
        3        3        /*T* Copyright (c) Bull HN Information Systems Inc., 1997    */
        4        4        /*T*                                                         */
        5        5        /*T***********************************************************/
        6        6         /*=================*/
        7        7           Z8IO$OUTPUT_ARRAY: PROC (QLT$$, ST$$, CURRENT_SA, CURRENT_CN, SECT_NUMBER);
        8        8         /*=================*/
        9        9
       10       10        %EQU PHASE = 5;
       11       11
       12       12        %INCLUDE Z8A_DEFC;
       13       80        %INCLUDE Z8A_SUPP_MAC;
       14     2480        %INCLUDE Z8A_TYPES;
       15     2654        %INCLUDE Z8A_ST;
       16     6313        %INCLUDE Z8A_QLT;
       17     6419        %INCLUDE Z8A_LTS;
       18     8496
       19     8497
       20     8498    1   DCL Z9IO$OUTPUT_WORD ENTRY (3);
       21     8499    1   DCL Z9AU$MOVE_NUMERIC     ENTRY(4);
       22     8500    1   DCL Z9AU$MOVE_C3_NUMERIC  ENTRY(4);
       23     8501    1   DCL Z9AU$MOVE_GBCD        ENTRY(4);
       24     8502    1   DCL Z9AU$MOVE_EBCDIC      ENTRY(4);
       25     8503
       26     8504    1   DCL SECT_NUMBER        SBIN WORD;
       27     8505    1   DCL QLT$$              PTR;
       28     8506    1   DCL ST$$               PTR;
       29     8507    1   DCL CURRENT_SA         SBIN WORD;
       30     8508    1   DCL CURRENT_CN         SBIN WORD;
       31     8509    1   DCL OLD_SA             SBIN WORD STATIC INIT (0);
       32     8510    1   DCL BITS_IN_BUFFER     SBIN WORD STATIC INIT (0);
       33     8511    1   DCL STRING$$           PTR;
       34     8512    1   DCL BUFFER             SBIN WORD STATIC INIT (0);
       35     8513    1   DCL CHAR_BUFFER        REDEF BUFFER CHAR (4);
       36     8514    1   DCL BCD_BUFFER (0:5)   REDEF BUFFER BIT (6);
       37     8515    1   DCL BCD$CHARS (0:63)   BIT (6) BASED;
PL6.E3A0      #001=Z8IO$OUTPUT_ARRAY File=Z8IO.:Z8A6TSI                          SAT 08/09/97 13:27 Page:2
       38     8516    1   DCL MVN_BUFFER (0 : 63) SBIN WORD;
       39     8517    1   DCL CONST$$            PTR;
       40     8518    1   DCL 1 TYPE   ALIGNED,
       41     8519               %TYPE_DESC;
       42     8553    1   DCL LENGTH_IN_WORDS    SBIN WORD;
       43     8554    1   DCL T_LENGTH           SBIN WORD;
       44     8555        %EJECT;
PL6.E3A0      #001=Z8IO$OUTPUT_ARRAY File=Z8IO.:Z8A6TSI                          SAT 08/09/97 13:27 Page:3
       45     8556
       46     8557         /*===================*/
       47     8558    1      ALPHANUMERIC_PRESET:  PROC(TARGET_LENGTH);
       48     8559         /*===================*/
       49     8560
       50     8561
       51     8562    2   DCL TARGET_LENGTH      SBIN WORD;
       52     8563    2   DCL TOTAL_MOVED        SBIN WORD;
       53     8564    2   DCL SOURCE             SBIN WORD;
       54     8565    2   DCL TARGET             SBIN WORD;
       55     8566
       56     8567
       57     8568    2        TOTAL_MOVED = 0;
       58     8569    2        SOURCE      = 0;
       59     8570
       60     8571
       61     8572    2        TARGET = CURRENT_CN;
       62     8573
       63     8574    3   LP:  DO WHILE(TOTAL_MOVED < TARGET_LENGTH);
       64     8575    3          IF SOURCE >= CONST$$ -> CONST.ADSC.N THEN
       65     8576    3            IF CONST$$ -> CONST.B.ALL THEN
       66     8577    3              SOURCE = 0;
       67     8578    3            ELSE
       68     8579    4              DO;
       69     8580    5                DO WHILE(TARGET_LENGTH > TOTAL_MOVED);
       70     8581    5                  IF ST$$ -> SCALAR.B.KANJI THEN
       71     8582    5                    SUBSTR(CHAR_BUFFER,TARGET,1) = %KANJI_SPACE ;
       72     8583    5                  ELSE IF ST$$ -> SCALAR.TYPE = %TYE OR ST$$ -> SCALAR.TYPE = %TYF THEN
       73     8584    5                    SUBSTR(CHAR_BUFFER,TARGET,1) = BITASC('100'O); /* EBCDIC space */
       74     8585    5                  ELSE
       75     8586    5                    SUBSTR(CHAR_BUFFER,TARGET,1) = ' ';
       76     8587
       77     8588    5                  TARGET = TARGET + 1;
       78     8589    5                  TOTAL_MOVED = TOTAL_MOVED + 1;
       79     8590
       80     8591    5                  IF TARGET = 4 THEN
       81     8592    6                    DO;
PL6.E3A0      #001=Z8IO$OUTPUT_ARRAY File=Z8IO.:Z8A6TSI                          SAT 08/09/97 13:27 Page:4
       82     8593    6                      CALL Z9IO$OUTPUT_WORD(SECT_NUMBER, OLD_SA, CHAR_BUFFER);
       83     8594    6                      TARGET = 0;
       84     8595    6                      OLD_SA = OLD_SA + 1;
       85     8596    6                    END;
       86     8597    5                END /* While */;
       87     8598
       88     8599    4                EXIT LP;
       89     8600    4              END;
       90     8601
       91     8602    3          SUBSTR(CHAR_BUFFER,TARGET,1) = SUBSTR(STRING$$ -> CHARS,SOURCE,1);
       92     8603
       93     8604    3          TOTAL_MOVED = TOTAL_MOVED + 1;
       94     8605    3          SOURCE = SOURCE + 1;
       95     8606    3          TARGET = TARGET + 1;
       96     8607
       97     8608    3          IF TARGET = 4 THEN
       98     8609    4            DO;
       99     8610    4              CALL Z9IO$OUTPUT_WORD(SECT_NUMBER, OLD_SA, CHAR_BUFFER);
      100     8611    4              TARGET = 0;
      101     8612    4              OLD_SA = OLD_SA + 1;
      102     8613    4            END;
      103     8614
      104     8615    3        END /* While */;
      105     8616
      106     8617    2        BITS_IN_BUFFER = TARGET * 9;
      107     8618
      108     8619
      109     8620    2   END ALPHANUMERIC_PRESET;
      110     8621        %EJECT;
PL6.E3A0      #001=Z8IO$OUTPUT_ARRAY File=Z8IO.:Z8A6TSI                          SAT 08/09/97 13:27 Page:5
      111     8622          /*===========*/
      112     8623    1       GBCD_PRESET:  PROC(TARGET_LENGTH);
      113     8624          /*===========*/
      114     8625
      115     8626
      116     8627    2    DCL TARGET_LENGTH      SBIN WORD;
      117     8628    2    DCL TOTAL_MOVED        SBIN WORD;
      118     8629    2    DCL SOURCE             SBIN WORD;
      119     8630    2    DCL TARGET             SBIN WORD;
      120     8631
      121     8632
      122     8633    2         TOTAL_MOVED = 0;
      123     8634    2         SOURCE      = 0;
      124     8635
      125     8636
      126     8637    2         TARGET = CURRENT_CN;
      127     8638
      128     8639    3    LP:  DO WHILE(TOTAL_MOVED < TARGET_LENGTH);
      129     8640    3           IF SOURCE >= CONST$$ -> CONST.ADSC.N THEN
      130     8641    3             IF CONST$$ -> CONST.B.ALL THEN
      131     8642    3               SOURCE = 0;
      132     8643    3             ELSE
      133     8644    4               DO;
      134     8645    5                 DO WHILE(TARGET_LENGTH > TOTAL_MOVED);
      135     8646    5                   BCD_BUFFER(TARGET) = '20'O; /* BCD space */
      136     8647
      137     8648    5                   TARGET = TARGET + 1;
      138     8649    5                   TOTAL_MOVED = TOTAL_MOVED + 1;
      139     8650
      140     8651    5                   IF TARGET = 6 THEN
      141     8652    6                     DO;
      142     8653    6                       CALL Z9IO$OUTPUT_WORD(SECT_NUMBER, OLD_SA, CHAR_BUFFER);
      143     8654    6                       TARGET = 0;
      144     8655    6                       OLD_SA = OLD_SA + 1;
      145     8656    6                     END;
      146     8657    5                 END /* While */;
      147     8658
PL6.E3A0      #001=Z8IO$OUTPUT_ARRAY File=Z8IO.:Z8A6TSI                          SAT 08/09/97 13:27 Page:6
      148     8659    4                 EXIT LP;
      149     8660    4               END;
      150     8661
      151     8662    3           BCD_BUFFER(TARGET) = STRING$$ -> BCD$CHARS(SOURCE);
      152     8663
      153     8664    3           TARGET = TARGET + 1;
      154     8665    3           TOTAL_MOVED = TOTAL_MOVED + 1;
      155     8666    3           SOURCE = SOURCE + 1;
      156     8667
      157     8668    3           IF TARGET = 6 THEN
      158     8669    4             DO;
      159     8670    4               CALL Z9IO$OUTPUT_WORD(SECT_NUMBER, OLD_SA, CHAR_BUFFER);
      160     8671    4               TARGET = 0;
      161     8672    4               OLD_SA = OLD_SA + 1;
      162     8673    4             END;
      163     8674
      164     8675    3         END /* While */;
      165     8676
      166     8677    2         BITS_IN_BUFFER = TARGET * 6;
      167     8678
      168     8679
      169     8680    2    END GBCD_PRESET;
      170     8681        %EJECT;
PL6.E3A0      #001=Z8IO$OUTPUT_ARRAY File=Z8IO.:Z8A6TSI                          SAT 08/09/97 13:27 Page:7
      171     8682
      172     8683         /*=====*/
      173     8684    1      FLUSH:  PROC (STRING$, OFFSET, LENGTH);
      174     8685         /*=====*/
      175     8686
      176     8687    2   DCL STRING$        PTR;
      177     8688    2   DCL OFFSET         SBIN WORD;
      178     8689    2   DCL LENGTH         SBIN WORD;
      179     8690    2   DCL I              SBIN WORD;
      180     8691    2   DCL 1 STRING  ALIGNED BASED (STRING$),
      181     8692    2         2 WORDS (0 : %PAGE_SIZE)  BIT (36) UNAL;
      182     8693
      183     8694
      184     8695
      185     8696    3      DO I = 0 TO LENGTH - 1;
      186     8697
      187     8698    3         CALL Z9IO$OUTPUT_WORD(SECT_NUMBER, OFFSET + I, STRING.WORDS(I));
      188     8699
      189     8700    3      END;
      190     8701    2    END FLUSH;
      191     8702        %EJECT;
PL6.E3A0      #001=Z8IO$OUTPUT_ARRAY File=Z8IO.:Z8A6TSI                          SAT 08/09/97 13:27 Page:8
      192     8703
      193     8704
      194     8705           /* MAIN PROGRAM */
      195     8706
      196     8707    1      IF OLD_SA ~= CURRENT_SA OR
      197     8708    1         (OLD_SA = 0  AND  QLT$$ = ADDR(NIL)) THEN
      198     8709    2        DO;
      199     8710    2          IF BITS_IN_BUFFER ~= 0 THEN
      200     8711    3            DO;
      201     8712    3              CALL Z9IO$OUTPUT_WORD (SECT_NUMBER, OLD_SA, BUFFER);
      202     8713
      203     8714    3              BUFFER = 0;
      204     8715    3              BITS_IN_BUFFER = 0;
      205     8716    3            END;
      206     8717
      207     8718    2          OLD_SA = CURRENT_SA;
      208     8719    2        END;
      209     8720
      210     8721    1      IF QLT$$ = ADDR(NIL) THEN
      211     8722    1        RETURN;
      212     8723
      213     8724    1      STRING$$ = QLT$$ -> QLT.ARRAY_VALUE$ -> ARRAY_PRESET_LTS.STRING$;
      214     8725    1      CONST$$ = QLT$$ -> QLT.ARRAY_VALUE$ -> ARRAY_PRESET_LTS.CONSTANT$;
      215     8726
      216     8727    2      DO CASE (ST$$ -> ST.TYPE);
      217     8728    2        CASE (%TYI, %TYR, %TYQ, %TYP);
      218     8729
      219     8730    2          CALL FLUSH (STRING$$, OLD_SA, (CONST$$ -> CONST.NDSC.N/4));
      220     8731
      221     8732    2        CASE (%TYO, %TYH, %TYJ, %TYK);
      222     8733
      223     8734    2          CALL ALPHANUMERIC_PRESET (BINBIT(ST$$ -> ST.NDSC.N, 36));
      224     8735
      225     8736    2        CASE (%TYA, %TYE);
      226     8737
      227     8738               %GET_ADSC_LEN (ST$ = ST$$,
      228     8739                              RTN = T_LENGTH);
PL6.E3A0      #001=Z8IO$OUTPUT_ARRAY File=Z8IO.:Z8A6TSI                          SAT 08/09/97 13:27 Page:9
      229     8750    2          CALL ALPHANUMERIC_PRESET (T_LENGTH);
      230     8751
      231     8752    2        CASE (%TYB);
      232     8753
      233     8754               %GET_ADSC_LEN (ST$ = ST$$,
      234     8755                              RTN = T_LENGTH);
      235     8766    2          CALL GBCD_PRESET (T_LENGTH);
      236     8767
      237     8768    2        CASE (%TYC);
      238     8769
      239     8770    2          IF ST$$ -> VARIABLE.B.SUB_CLASS.EDITED THEN
      240     8771    2            CALL GBCD_PRESET (BINBIT (ST$$ -> ST.NDSC.N, 36));
      241     8772    2          ELSE
      242     8773    3            DO;
      243     8774    3              MVN_BUFFER(0) = BUFFER;
      244     8775    3              TYPE.DESC.DESCL = ST$$ -> ST.DESCL;
      245     8776    3              TYPE.DESC.NDSC.CN = CURRENT_CN;
      246     8777
      247     8778    3              CALL Z9AU$MOVE_GBCD ( CONST$$ -> CONST.NDSC,
      248     8779    3                                    TYPE.DESC.NDSC,
      249     8780    3                                    STRING$$,
      250     8781    3                                    ADDR(MVN_BUFFER));
      251     8782
      252     8783    3              BITS_IN_BUFFER = (TYPE.DESC.NDSC.N + TYPE.DESC.NDSC.CN)*6;
      253     8784
      254     8785    3              LENGTH_IN_WORDS = BITS_IN_BUFFER/36;
      255     8786
      256     8787    3              CALL FLUSH (ADDR(MVN_BUFFER), CURRENT_SA, LENGTH_IN_WORDS);
      257     8788
      258     8789    3              BUFFER = MVN_BUFFER (LENGTH_IN_WORDS);
      259     8790    3              OLD_SA = CURRENT_SA + LENGTH_IN_WORDS;
      260     8791    3              BITS_IN_BUFFER = MOD (BITS_IN_BUFFER, 36);
      261     8792    3            END;
      262     8793
      263     8794    2        CASE (%TYD, %TYF);
      264     8795
      265     8796    2          IF ST$$ -> VARIABLE.B.SUB_CLASS.EDITED THEN
PL6.E3A0      #001=Z8IO$OUTPUT_ARRAY File=Z8IO.:Z8A6TSI                          SAT 08/09/97 13:27 Page:10
      266     8797    2            CALL ALPHANUMERIC_PRESET (BINBIT (ST$$ -> ST.NDSC.N, 36));
      267     8798    2          ELSE
      268     8799    3            DO;
      269     8800    3              MVN_BUFFER(0) = BUFFER;
      270     8801    3              TYPE.DESC.DESCL = ST$$ -> ST.DESCL;
      271     8802    3              TYPE.DESC.NDSC.CN = CURRENT_CN;
      272     8803
      273     8804    3              IF ST$$ -> ST.TYPE = %TYF THEN
      274     8805    4                DO;
      275     8806    4                  CALL Z9AU$MOVE_EBCDIC ( CONST$$ -> CONST.NDSC,
      276     8807    4                                          TYPE.DESC.NDSC,
      277     8808    4                                          STRING$$,
      278     8809    4                                          ADDR(MVN_BUFFER));
      279     8810    4                  BITS_IN_BUFFER = (TYPE.DESC.NDSC.N + TYPE.DESC.ADSC.CN)*9;
      280     8811    4                END;
      281     8812    3              ELSE
      282     8813    4                DO;
      283     8814    4                  IF ST$$ -> VARIABLE.B.P THEN
      284     8815    4                    CALL Z9AU$MOVE_C3_NUMERIC ( CONST$$ -> CONST.NDSC,
      285     8816    4                                                TYPE.DESC.NDSC,
      286     8817    4                                                STRING$$,
      287     8818    4                                                ADDR(MVN_BUFFER));
      288     8819    4                  ELSE
      289     8820    4                    CALL Z9AU$MOVE_NUMERIC ( CONST$$ -> CONST.NDSC,
      290     8821    4                                             TYPE.DESC.NDSC,
      291     8822    4                                             STRING$$,
      292     8823    4                                             ADDR(MVN_BUFFER));
      293     8824
      294     8825    4                  IF TYPE.DESC.NDSC.TN = %NDSC4 THEN
      295     8826    4                    BITS_IN_BUFFER = ((TYPE.DESC.NDSC.N + TYPE.DESC.NDSC.CN)*9 +1)/2;
      296     8827    4                  ELSE
      297     8828                           /* TYPE.DESC.ADSC.CN is the actual byte number */
      298     8829    4                    BITS_IN_BUFFER = (TYPE.DESC.NDSC.N + TYPE.DESC.ADSC.CN)*9;
      299     8830    4                END;
      300     8831
      301     8832    3              LENGTH_IN_WORDS = BITS_IN_BUFFER/36;
      302     8833
PL6.E3A0      #001=Z8IO$OUTPUT_ARRAY File=Z8IO.:Z8A6TSI                          SAT 08/09/97 13:27 Page:11
      303     8834    3              CALL FLUSH (ADDR(MVN_BUFFER), CURRENT_SA, LENGTH_IN_WORDS);
      304     8835
      305     8836    3              BUFFER = MVN_BUFFER (LENGTH_IN_WORDS);
      306     8837    3              OLD_SA = CURRENT_SA + LENGTH_IN_WORDS;
      307     8838    3              BITS_IN_BUFFER = MOD (BITS_IN_BUFFER, 36);
      308     8839    3            END;
      309     8840
      310     8841    2        CASE (ELSE);
      311     8842               /* ERROR */
      312     8843
      313     8844    2      END; /*  DO CASE */
      314     8845
      315     8846    1      IF BITS_IN_BUFFER = 0 THEN
      316     8847    1        BUFFER = 0;
      317     8848
      318     8849    1      RETURN;
      319     8850    1    END Z8IO$OUTPUT_ARRAY;
      320     8851
      321     8852        %EOD;

PL6.E3A0      #001=Z8IO$OUTPUT_ARRAY File=Z8IO.:Z8A6TSI                          SAT 08/09/97 13:27 Page:12
--  Include file information  --

   Z8A_LTS.:Z8A6TOU  cannot be made into a system file and is referenced.
   Z8A_QLT.:Z8A6TOU  cannot be made into a system file and is referenced.
   Z8A_ST.:Z8A6TOU  cannot be made into a system file and is referenced.
   Z8A_TYPES.:Z8A6TOU  is referenced.
   X8A_COM_MACS.:X8A6TOU  is referenced.
   Z8A_NAMES.:Z8A6TOU  is referenced.
   Z8A_SUPP_MAC.:Z8A6TOU  is referenced.
   Z8A_DEFC.:Z8A6TOU  cannot be made into a system file and is referenced.
      No diagnostics issued in procedure Z8IO$OUTPUT_ARRAY.

   Procedure Z8IO$OUTPUT_ARRAY requires 568 words for executable code.
   Procedure Z8IO$OUTPUT_ARRAY requires 106 words of local(AUTO) storage.

PL6.E3A0      #001=Z8IO$OUTPUT_ARRAY File=Z8IO.:Z8A6TSI                          SAT 08/09/97 13:27 Page:13

 Object Unit name= Z8IO$OUTPUT_ARRAY                          File name= Z8IO.:Z8A6TOU
 UTS= AUG 09 '97 13:27:48.04 SAT                              Compiler= PL-6/E31         Sev=      00
 SharedLib= :SHARED_SYSTEM                                    Alt SharedLib=


    ****  Control sections  ****

 Sect   Type Bound  Init  Size OctSiz  Section name(segment info)
    0  LblCom even  none     1      1  ITERATION
    1  LblCom even  none     1      1  ST$
    2  LblCom even  none     5      5  ST_
    3  LblCom even  none     1      1  QLT$
    4  LblCom even  none     1      1  PREV_01_QLT$
    5  LblCom even  none     5      5  QLT_
    6  LblCom even  none     1      1  LTS$
    7  LblCom even  none     5      5  LTS_
    8   Data  even  none     3      3  Z8IO$OUTPUT_ARRAY
    9   Proc  even  none   568   1070  Z8IO$OUTPUT_ARRAY
   10  RoData even  none    11     13  Z8IO$OUTPUT_ARRAY

    ****  Entry defs  ****

                              Check   Calling
                             calling  sequence
  Sect OctLoc Primary Altret sequence   type   Parms  Name
     9      0   yes            yes      Std        5  Z8IO$OUTPUT_ARRAY
PL6.E3A0      #001=Z8IO$OUTPUT_ARRAY File=Z8IO.:Z8A6TSI                          SAT 08/09/97 13:27 Page:14

  ****  Entry refs  ****

         Check        Calling
        calling       sequence
Altret sequence SRef   type   Args  Name
         yes           Std       3 Z9IO$OUTPUT_WORD
         yes           Std       4 Z9AU$MOVE_C3_NUMERIC
         yes           Std       4 Z9AU$MOVE_NUMERIC
         yes           Std       4 Z9AU$MOVE_GBCD
         yes           Std       4 Z9AU$MOVE_EBCDIC
                       nStd      0 X66_AUTO_5
                       nStd      0 X66_ARET

  ****  Data refs  ****

  Flags:  r = read only, s = secondary
Flgs Name                             Flgs Name                             Flgs Name
r    LTS_STEP

  ****  Segment refs  ****

  Flags:  r = read only, s = secondary
Flgs Name                             Flgs Name                             Flgs Name
     NULLSID                               ISSID
PL6.E3A0      #001=Z8IO$OUTPUT_ARRAY File=Z8IO.:Z8A6TSI                          SAT 08/09/97 13:27 Page:15


        1        1        /*T***********************************************************/
        2        2        /*T*                                                         */
        3        3        /*T* Copyright (c) Bull HN Information Systems Inc., 1997    */
        4        4        /*T*                                                         */
        5        5        /*T***********************************************************/
        6        6         /*=================*/
        7        7           Z8IO$OUTPUT_ARRAY: PROC (QLT$$, ST$$, CURRENT_SA, CURRENT_CN, SECT_NUMBER);

      7  9 000000   000000 700200 xent  Z8IO$OUTPUT* TSX0  ! X66_AUTO_5
         9 000001   000152 000005                    ZERO    106,5
         9 000002   000340 710000 9                  TRA     s:8707

        8        8         /*=================*/
        9        9
       10       10        %EQU PHASE = 5;
       11       11
       12       12        %INCLUDE Z8A_DEFC;
       13       80        %INCLUDE Z8A_SUPP_MAC;
       14     2480        %INCLUDE Z8A_TYPES;
       15     2654        %INCLUDE Z8A_ST;
       16     6313        %INCLUDE Z8A_QLT;
       17     6419        %INCLUDE Z8A_LTS;
       18     8496
       19     8497
       20     8498    1   DCL Z9IO$OUTPUT_WORD ENTRY (3);
       21     8499    1   DCL Z9AU$MOVE_NUMERIC     ENTRY(4);
       22     8500    1   DCL Z9AU$MOVE_C3_NUMERIC  ENTRY(4);
       23     8501    1   DCL Z9AU$MOVE_GBCD        ENTRY(4);
       24     8502    1   DCL Z9AU$MOVE_EBCDIC      ENTRY(4);
       25     8503
       26     8504    1   DCL SECT_NUMBER        SBIN WORD;
       27     8505    1   DCL QLT$$              PTR;
       28     8506    1   DCL ST$$               PTR;
       29     8507    1   DCL CURRENT_SA         SBIN WORD;
       30     8508    1   DCL CURRENT_CN         SBIN WORD;
       31     8509    1   DCL OLD_SA             SBIN WORD STATIC INIT (0);
PL6.E3A0      #001=Z8IO$OUTPUT_ARRAY File=Z8IO.:Z8A6TSI                          SAT 08/09/97 13:27 Page:16
       32     8510    1   DCL BITS_IN_BUFFER     SBIN WORD STATIC INIT (0);
       33     8511    1   DCL STRING$$           PTR;
       34     8512    1   DCL BUFFER             SBIN WORD STATIC INIT (0);
       35     8513    1   DCL CHAR_BUFFER        REDEF BUFFER CHAR (4);
       36     8514    1   DCL BCD_BUFFER (0:5)   REDEF BUFFER BIT (6);
       37     8515    1   DCL BCD$CHARS (0:63)   BIT (6) BASED;
       38     8516    1   DCL MVN_BUFFER (0 : 63) SBIN WORD;
       39     8517    1   DCL CONST$$            PTR;
       40     8518    1   DCL 1 TYPE   ALIGNED,
       41     8519               %TYPE_DESC;
       42     8553    1   DCL LENGTH_IN_WORDS    SBIN WORD;
       43     8554    1   DCL T_LENGTH           SBIN WORD;
       44     8555        %EJECT;
PL6.E3A0      #001=Z8IO$OUTPUT_ARRAY File=Z8IO.:Z8A6TSI                          SAT 08/09/97 13:27 Page:17
       45     8556
       46     8557         /*===================*/
       47     8558    1      ALPHANUMERIC_PRESET:  PROC(TARGET_LENGTH);

   8558  9 000003   200120 741300       ALPHANUMERI* STX1  ! T_LENGTH+1,,AUTO

       48     8559         /*===================*/
       49     8560
       50     8561
       51     8562    2   DCL TARGET_LENGTH      SBIN WORD;
       52     8563    2   DCL TOTAL_MOVED        SBIN WORD;
       53     8564    2   DCL SOURCE             SBIN WORD;
       54     8565    2   DCL TARGET             SBIN WORD;
       55     8566
       56     8567
       57     8568    2        TOTAL_MOVED = 0;

   8568  9 000004   200122 450100                    STZ     TOTAL_MOVED,,AUTO

       58     8569    2        SOURCE      = 0;

   8569  9 000005   200123 450100                    STZ     SOURCE,,AUTO

       59     8570
       60     8571
       61     8572    2        TARGET = CURRENT_CN;

   8572  9 000006   200006 470500                    LDP0    @CURRENT_CN,,AUTO
         9 000007   000000 235100                    LDA     0,,PR0
         9 000010   200124 755100                    STA     TARGET,,AUTO

       62     8573
       63     8574    3   LP:  DO WHILE(TOTAL_MOVED < TARGET_LENGTH);

   8574  9 000011   200121 471500       LP           LDP1    @TARGET_LENGTH,,AUTO
         9 000012   200122 236100                    LDQ     TOTAL_MOVED,,AUTO
         9 000013   100000 116100                    CMPQ    0,,PR1
PL6.E3A0      #001=Z8IO$OUTPUT_ARRAY File=Z8IO.:Z8A6TSI                          SAT 08/09/97 13:27 Page:18
         9 000014   000143 605000 9                  TPL     s:8617

       64     8575    3          IF SOURCE >= CONST$$ -> CONST.ADSC.N THEN

   8575  9 000015   200111 470500                    LDP0    CONST$$,,AUTO
         9 000016   000001 236100                    LDQ     1,,PR0
         9 000017   007777 376007                    ANQ     4095,DL
         9 000020   200123 116100                    CMPQ    SOURCE,,AUTO
         9 000021   000110 605400 9                  TPNZ    s:8602

       65     8576    3            IF CONST$$ -> CONST.B.ALL THEN

   8576  9 000022   000003 236100                    LDQ     3,,PR0
         9 000023   040000 316003                    CANQ    16384,DU
         9 000024   000027 600000 9                  TZE     s:8580

       66     8577    3              SOURCE = 0;

   8577  9 000025   200123 450100                    STZ     SOURCE,,AUTO
         9 000026   000110 710000 9                  TRA     s:8602

       67     8578    3            ELSE
       68     8579    4              DO;

       69     8580    5                DO WHILE(TARGET_LENGTH > TOTAL_MOVED);

   8580  9 000027   200121 471500                    LDP1    @TARGET_LENGTH,,AUTO
         9 000030   100000 236100                    LDQ     0,,PR1
         9 000031   200122 116100                    CMPQ    TOTAL_MOVED,,AUTO
         9 000032   000107 604400 9                  TMOZ    s:8599

       70     8581    5                  IF ST$$ -> SCALAR.B.KANJI THEN

   8581  9 000033   200004 470500                    LDP0    @ST$$,,AUTO
         9 000034   000000 471500                    LDP1    0,,PR0
         9 000035   100003 236100                    LDQ     3,,PR1
         9 000036   001000 316007                    CANQ    512,DL
PL6.E3A0      #001=Z8IO$OUTPUT_ARRAY File=Z8IO.:Z8A6TSI                          SAT 08/09/97 13:27 Page:19
         9 000037   000045 600000 9                  TZE     s:8583

       71     8582    5                    SUBSTR(CHAR_BUFFER,TARGET,1) = %KANJI_SPACE ;

   8582  9 000040   200124 235100                    LDA     TARGET,,AUTO
         9 000041   040005 100400                    MLR     fill='040'O
         9 000042   000000 000001 10                 ADSC9   0                        cn=0,n=1
         9 000043   000002 000001 8                  ADSC9   BUFFER,A                 cn=0,n=1
         9 000044   000063 710000 9                  TRA     s:8588

       72     8583    5                 ELSE IF ST$$ -> SCALAR.TYPE = %TYE OR ST$$ -> SCALAR.TYPE = %TYF THEN

   8583  9 000045   100002 220100                    LDX0    2,,PR1
         9 000046   000006 100003                    CMPX0   6,DU
         9 000047   000052 600000 9                  TZE     s:8584
         9 000050   000013 100003                    CMPX0   11,DU
         9 000051   000057 601000 9                  TNZ     s:8586

       73     8584    5                    SUBSTR(CHAR_BUFFER,TARGET,1) = BITASC('100'O); /* EBCDIC space */

   8584  9 000052   200124 235100                    LDA     TARGET,,AUTO
         9 000053   040005 100400                    MLR     fill='040'O
         9 000054   000001 000001 10                 ADSC9   1                        cn=0,n=1
         9 000055   000002 000001 8                  ADSC9   BUFFER,A                 cn=0,n=1
         9 000056   000063 710000 9                  TRA     s:8588

       74     8585    5                  ELSE
       75     8586    5                    SUBSTR(CHAR_BUFFER,TARGET,1) = ' ';

   8586  9 000057   200124 235100                    LDA     TARGET,,AUTO
         9 000060   040005 100400                    MLR     fill='040'O
         9 000061   000002 000001 10                 ADSC9   2                        cn=0,n=1
         9 000062   000002 000001 8                  ADSC9   BUFFER,A                 cn=0,n=1

       76     8587
       77     8588    5                  TARGET = TARGET + 1;

PL6.E3A0      #001=Z8IO$OUTPUT_ARRAY File=Z8IO.:Z8A6TSI                          SAT 08/09/97 13:27 Page:20
   8588  9 000063   200124 054100                    AOS     TARGET,,AUTO

       78     8589    5                  TOTAL_MOVED = TOTAL_MOVED + 1;

   8589  9 000064   200122 054100                    AOS     TOTAL_MOVED,,AUTO

       79     8590
       80     8591    5                  IF TARGET = 4 THEN

   8591  9 000065   200124 235100                    LDA     TARGET,,AUTO
         9 000066   000004 115007                    CMPA    4,DL
         9 000067   000103 601000 9                  TNZ     s:8597

       81     8592    6                    DO;

       82     8593    6                      CALL Z9IO$OUTPUT_WORD(SECT_NUMBER, OLD_SA, CHAR_BUFFER);

   8593  9 000070   000004 236000 10                 LDQ     4
         9 000071   200130 756100                    STQ     I+4,,AUTO
         9 000072   000005 236000 10                 LDQ     5
         9 000073   200007 235100                    LDA     @SECT_NUMBER,,AUTO
         9 000074   200126 757100                    STAQ    I+2,,AUTO
         9 000075   200126 630500                    EPPR0   I+2,,AUTO
         9 000076   000003 631400 10                 EPPR1   3
         9 000077   000000 701000 xent               TSX1    Z9IO$OUTPUT_WORD
         9 000100   000000 011000                    NOP     0

       83     8594    6                      TARGET = 0;

   8594  9 000101   200124 450100                    STZ     TARGET,,AUTO

       84     8595    6                      OLD_SA = OLD_SA + 1;

   8595  9 000102   000000 054000 8                  AOS     OLD_SA

       85     8596    6                    END;

PL6.E3A0      #001=Z8IO$OUTPUT_ARRAY File=Z8IO.:Z8A6TSI                          SAT 08/09/97 13:27 Page:21
       86     8597    5                END /* While */;

   8597  9 000103   200121 470500                    LDP0    @TARGET_LENGTH,,AUTO
         9 000104   000000 236100                    LDQ     0,,PR0
         9 000105   200122 116100                    CMPQ    TOTAL_MOVED,,AUTO
         9 000106   000033 605400 9                  TPNZ    s:8581

       87     8598
       88     8599    4                EXIT LP;

   8599  9 000107   000143 710000 9                  TRA     s:8617

       89     8600    4              END;
       90     8601
       91     8602    3          SUBSTR(CHAR_BUFFER,TARGET,1) = SUBSTR(STRING$$ -> CHARS,SOURCE,1);

   8602  9 000110   200010 471500                    LDP1    STRING$$,,AUTO
         9 000111   200123 235100                    LDA     SOURCE,,AUTO
         9 000112   200124 236100                    LDQ     TARGET,,AUTO
         9 000113   040006 100505                    MLR     fill='040'O
         9 000114   100000 000001                    ADSC9   0,A,PR1                  cn=0,n=1
         9 000115   000002 000001 8                  ADSC9   BUFFER,Q                 cn=0,n=1

       92     8603
       93     8604    3          TOTAL_MOVED = TOTAL_MOVED + 1;

   8604  9 000116   200122 054100                    AOS     TOTAL_MOVED,,AUTO

       94     8605    3          SOURCE = SOURCE + 1;

   8605  9 000117   200123 054100                    AOS     SOURCE,,AUTO

       95     8606    3          TARGET = TARGET + 1;

   8606  9 000120   200124 054100                    AOS     TARGET,,AUTO

       96     8607
PL6.E3A0      #001=Z8IO$OUTPUT_ARRAY File=Z8IO.:Z8A6TSI                          SAT 08/09/97 13:27 Page:22
       97     8608    3          IF TARGET = 4 THEN

   8608  9 000121   200124 235100                    LDA     TARGET,,AUTO
         9 000122   000004 115007                    CMPA    4,DL
         9 000123   000137 601000 9                  TNZ     s:8615

       98     8609    4            DO;

       99     8610    4              CALL Z9IO$OUTPUT_WORD(SECT_NUMBER, OLD_SA, CHAR_BUFFER);

   8610  9 000124   000004 236000 10                 LDQ     4
         9 000125   200130 756100                    STQ     I+4,,AUTO
         9 000126   000005 236000 10                 LDQ     5
         9 000127   200007 235100                    LDA     @SECT_NUMBER,,AUTO
         9 000130   200126 757100                    STAQ    I+2,,AUTO
         9 000131   200126 630500                    EPPR0   I+2,,AUTO
         9 000132   000003 631400 10                 EPPR1   3
         9 000133   000000 701000 xent               TSX1    Z9IO$OUTPUT_WORD
         9 000134   000000 011000                    NOP     0

      100     8611    4              TARGET = 0;

   8611  9 000135   200124 450100                    STZ     TARGET,,AUTO

      101     8612    4              OLD_SA = OLD_SA + 1;

   8612  9 000136   000000 054000 8                  AOS     OLD_SA

      102     8613    4            END;

      103     8614
      104     8615    3        END /* While */;

   8615  9 000137   200121 470500                    LDP0    @TARGET_LENGTH,,AUTO
         9 000140   200122 236100                    LDQ     TOTAL_MOVED,,AUTO
         9 000141   000000 116100                    CMPQ    0,,PR0
         9 000142   000015 604000 9                  TMI     s:8575
PL6.E3A0      #001=Z8IO$OUTPUT_ARRAY File=Z8IO.:Z8A6TSI                          SAT 08/09/97 13:27 Page:23

      105     8616
      106     8617    2        BITS_IN_BUFFER = TARGET * 9;

   8617  9 000143   200124 236100                    LDQ     TARGET,,AUTO
         9 000144   000011 402007                    MPY     9,DL
         9 000145   000001 756000 8                  STQ     BITS_IN_BUFFER

      107     8618
      108     8619
      109     8620    2   END ALPHANUMERIC_PRESET;

   8620  9 000146   200120 221300                    LDX1  ! T_LENGTH+1,,AUTO
         9 000147   000001 702211                    TSX2  ! 1,X1

      110     8621        %EJECT;
PL6.E3A0      #001=Z8IO$OUTPUT_ARRAY File=Z8IO.:Z8A6TSI                          SAT 08/09/97 13:27 Page:24
      111     8622          /*===========*/
      112     8623    1       GBCD_PRESET:  PROC(TARGET_LENGTH);

   8623  9 000150   200120 741300       GBCD_PRESET  STX1  ! T_LENGTH+1,,AUTO

      113     8624          /*===========*/
      114     8625
      115     8626
      116     8627    2    DCL TARGET_LENGTH      SBIN WORD;
      117     8628    2    DCL TOTAL_MOVED        SBIN WORD;
      118     8629    2    DCL SOURCE             SBIN WORD;
      119     8630    2    DCL TARGET             SBIN WORD;
      120     8631
      121     8632
      122     8633    2         TOTAL_MOVED = 0;

   8633  9 000151   200122 450100                    STZ     TOTAL_MOVED,,AUTO

      123     8634    2         SOURCE      = 0;

   8634  9 000152   200123 450100                    STZ     SOURCE,,AUTO

      124     8635
      125     8636
      126     8637    2         TARGET = CURRENT_CN;

   8637  9 000153   200006 470500                    LDP0    @CURRENT_CN,,AUTO
         9 000154   000000 235100                    LDA     0,,PR0
         9 000155   200124 755100                    STA     TARGET,,AUTO

      127     8638
      128     8639    3    LP:  DO WHILE(TOTAL_MOVED < TARGET_LENGTH);

   8639  9 000156   200121 471500       LP           LDP1    @TARGET_LENGTH,,AUTO
         9 000157   200122 236100                    LDQ     TOTAL_MOVED,,AUTO
         9 000160   100000 116100                    CMPQ    0,,PR1
         9 000161   000300 605000 9                  TPL     s:8677
PL6.E3A0      #001=Z8IO$OUTPUT_ARRAY File=Z8IO.:Z8A6TSI                          SAT 08/09/97 13:27 Page:25

      129     8640    3           IF SOURCE >= CONST$$ -> CONST.ADSC.N THEN

   8640  9 000162   200111 470500                    LDP0    CONST$$,,AUTO
         9 000163   000001 236100                    LDQ     1,,PR0
         9 000164   007777 376007                    ANQ     4095,DL
         9 000165   200123 116100                    CMPQ    SOURCE,,AUTO
         9 000166   000233 605400 9                  TPNZ    s:8662

      130     8641    3             IF CONST$$ -> CONST.B.ALL THEN

   8641  9 000167   000003 236100                    LDQ     3,,PR0
         9 000170   040000 316003                    CANQ    16384,DU
         9 000171   000174 600000 9                  TZE     s:8645

      131     8642    3               SOURCE = 0;

   8642  9 000172   200123 450100                    STZ     SOURCE,,AUTO
         9 000173   000233 710000 9                  TRA     s:8662

      132     8643    3             ELSE
      133     8644    4               DO;

      134     8645    5                 DO WHILE(TARGET_LENGTH > TOTAL_MOVED);

   8645  9 000174   200121 471500                    LDP1    @TARGET_LENGTH,,AUTO
         9 000175   100000 236100                    LDQ     0,,PR1
         9 000176   200122 116100                    CMPQ    TOTAL_MOVED,,AUTO
         9 000177   000232 604400 9                  TMOZ    s:8659

      135     8646    5                   BCD_BUFFER(TARGET) = '20'O; /* BCD space */

   8646  9 000200   200124 235100                    LDA     TARGET,,AUTO
         9 000201   000203 605000 9                  TPL     s:8646+3
         9 000202   000006 035003                    ADLA    6,DU
         9 000203   000005 100400                    MLR     fill='000'O
         9 000204   000006 020001 10                 ADSC6   6                        cn=0,n=1
PL6.E3A0      #001=Z8IO$OUTPUT_ARRAY File=Z8IO.:Z8A6TSI                          SAT 08/09/97 13:27 Page:26
         9 000205   000002 020001 8                  ADSC6   BUFFER,A                 cn=0,n=1

      136     8647
      137     8648    5                   TARGET = TARGET + 1;

   8648  9 000206   200124 054100                    AOS     TARGET,,AUTO

      138     8649    5                   TOTAL_MOVED = TOTAL_MOVED + 1;

   8649  9 000207   200122 054100                    AOS     TOTAL_MOVED,,AUTO

      139     8650
      140     8651    5                   IF TARGET = 6 THEN

   8651  9 000210   200124 235100                    LDA     TARGET,,AUTO
         9 000211   000006 115007                    CMPA    6,DL
         9 000212   000226 601000 9                  TNZ     s:8657

      141     8652    6                     DO;

      142     8653    6                       CALL Z9IO$OUTPUT_WORD(SECT_NUMBER, OLD_SA, CHAR_BUFFER);

   8653  9 000213   000004 236000 10                 LDQ     4
         9 000214   200130 756100                    STQ     I+4,,AUTO
         9 000215   000005 236000 10                 LDQ     5
         9 000216   200007 235100                    LDA     @SECT_NUMBER,,AUTO
         9 000217   200126 757100                    STAQ    I+2,,AUTO
         9 000220   200126 630500                    EPPR0   I+2,,AUTO
         9 000221   000003 631400 10                 EPPR1   3
         9 000222   000000 701000 xent               TSX1    Z9IO$OUTPUT_WORD
         9 000223   000000 011000                    NOP     0

      143     8654    6                       TARGET = 0;

   8654  9 000224   200124 450100                    STZ     TARGET,,AUTO

      144     8655    6                       OLD_SA = OLD_SA + 1;
PL6.E3A0      #001=Z8IO$OUTPUT_ARRAY File=Z8IO.:Z8A6TSI                          SAT 08/09/97 13:27 Page:27

   8655  9 000225   000000 054000 8                  AOS     OLD_SA

      145     8656    6                     END;

      146     8657    5                 END /* While */;

   8657  9 000226   200121 470500                    LDP0    @TARGET_LENGTH,,AUTO
         9 000227   000000 236100                    LDQ     0,,PR0
         9 000230   200122 116100                    CMPQ    TOTAL_MOVED,,AUTO
         9 000231   000200 605400 9                  TPNZ    s:8646

      147     8658
      148     8659    4                 EXIT LP;

   8659  9 000232   000300 710000 9                  TRA     s:8677

      149     8660    4               END;
      150     8661
      151     8662    3           BCD_BUFFER(TARGET) = STRING$$ -> BCD$CHARS(SOURCE);

   8662  9 000233   200123 236100                    LDQ     SOURCE,,AUTO
         9 000234   000006 402007                    MPY     6,DL
         9 000235   000000 116003                    CMPQ    0,DU
         9 000236   000240 605000 9                  TPL     s:8662+5
         9 000237   000044 036003                    ADLQ    36,DU
         9 000240   200126 756100                    STQ     I+2,,AUTO
         9 000241   200124 236100                    LDQ     TARGET,,AUTO
         9 000242   000006 402007                    MPY     6,DL
         9 000243   000000 116003                    CMPQ    0,DU
         9 000244   000246 605000 9                  TPL     s:8662+11
         9 000245   000044 036003                    ADLQ    36,DU
         9 000246   200010 471500                    LDP1    STRING$$,,AUTO
         9 000247   200126 235100                    LDA     I+2,,AUTO
         9 000250   003006 060505                    CSL     bolr='003'O
         9 000251   100000 000006                    BDSC    0,A,PR1                  by=0,bit=0,n=6
         9 000252   000002 000006 8                  BDSC    BUFFER,Q                 by=0,bit=0,n=6
PL6.E3A0      #001=Z8IO$OUTPUT_ARRAY File=Z8IO.:Z8A6TSI                          SAT 08/09/97 13:27 Page:28

      152     8663
      153     8664    3           TARGET = TARGET + 1;

   8664  9 000253   200124 054100                    AOS     TARGET,,AUTO

      154     8665    3           TOTAL_MOVED = TOTAL_MOVED + 1;

   8665  9 000254   200122 054100                    AOS     TOTAL_MOVED,,AUTO

      155     8666    3           SOURCE = SOURCE + 1;

   8666  9 000255   200123 054100                    AOS     SOURCE,,AUTO

      156     8667
      157     8668    3           IF TARGET = 6 THEN

   8668  9 000256   200124 235100                    LDA     TARGET,,AUTO
         9 000257   000006 115007                    CMPA    6,DL
         9 000260   000274 601000 9                  TNZ     s:8675

      158     8669    4             DO;

      159     8670    4               CALL Z9IO$OUTPUT_WORD(SECT_NUMBER, OLD_SA, CHAR_BUFFER);

   8670  9 000261   000004 236000 10                 LDQ     4
         9 000262   200130 756100                    STQ     I+4,,AUTO
         9 000263   000005 236000 10                 LDQ     5
         9 000264   200007 235100                    LDA     @SECT_NUMBER,,AUTO
         9 000265   200126 757100                    STAQ    I+2,,AUTO
         9 000266   200126 630500                    EPPR0   I+2,,AUTO
         9 000267   000003 631400 10                 EPPR1   3
         9 000270   000000 701000 xent               TSX1    Z9IO$OUTPUT_WORD
         9 000271   000000 011000                    NOP     0

      160     8671    4               TARGET = 0;

PL6.E3A0      #001=Z8IO$OUTPUT_ARRAY File=Z8IO.:Z8A6TSI                          SAT 08/09/97 13:27 Page:29
   8671  9 000272   200124 450100                    STZ     TARGET,,AUTO

      161     8672    4               OLD_SA = OLD_SA + 1;

   8672  9 000273   000000 054000 8                  AOS     OLD_SA

      162     8673    4             END;

      163     8674
      164     8675    3         END /* While */;

   8675  9 000274   200121 470500                    LDP0    @TARGET_LENGTH,,AUTO
         9 000275   200122 236100                    LDQ     TOTAL_MOVED,,AUTO
         9 000276   000000 116100                    CMPQ    0,,PR0
         9 000277   000162 604000 9                  TMI     s:8640

      165     8676
      166     8677    2         BITS_IN_BUFFER = TARGET * 6;

   8677  9 000300   200124 236100                    LDQ     TARGET,,AUTO
         9 000301   000006 402007                    MPY     6,DL
         9 000302   000001 756000 8                  STQ     BITS_IN_BUFFER

      167     8678
      168     8679
      169     8680    2    END GBCD_PRESET;

   8680  9 000303   200120 221300                    LDX1  ! T_LENGTH+1,,AUTO
         9 000304   000001 702211                    TSX2  ! 1,X1

      170     8681        %EJECT;
PL6.E3A0      #001=Z8IO$OUTPUT_ARRAY File=Z8IO.:Z8A6TSI                          SAT 08/09/97 13:27 Page:30
      171     8682
      172     8683         /*=====*/
      173     8684    1      FLUSH:  PROC (STRING$, OFFSET, LENGTH);

   8684  9 000305   200120 741300       FLUSH        STX1  ! T_LENGTH+1,,AUTO

      174     8685         /*=====*/
      175     8686
      176     8687    2   DCL STRING$        PTR;
      177     8688    2   DCL OFFSET         SBIN WORD;
      178     8689    2   DCL LENGTH         SBIN WORD;
      179     8690    2   DCL I              SBIN WORD;
      180     8691    2   DCL 1 STRING  ALIGNED BASED (STRING$),
      181     8692    2         2 WORDS (0 : %PAGE_SIZE)  BIT (36) UNAL;
      182     8693
      183     8694
      184     8695
      185     8696    3      DO I = 0 TO LENGTH - 1;

   8696  9 000306   200124 450100                    STZ     I,,AUTO
         9 000307   000332 710000 9                  TRA     s:8700+1

      186     8697
      187     8698    3         CALL Z9IO$OUTPUT_WORD(SECT_NUMBER, OFFSET + I, STRING.WORDS(I));

   8698  9 000310   200122 470500                    LDP0    @OFFSET,,AUTO
         9 000311   000000 236100                    LDQ     0,,PR0
         9 000312   200124 036100                    ADLQ    I,,AUTO
         9 000313   200121 471500                    LDP1    @STRING$,,AUTO
         9 000314   100000 473500                    LDP3    0,,PR1
         9 000315   200126 756100                    STQ     I+2,,AUTO
         9 000316   200124 720100                    LXL0    I,,AUTO
         9 000317   300000 634510                    EPPR4   0,X0,PR3
         9 000320   200131 454500                    STP4    I+5,,AUTO
         9 000321   200126 633500                    EPPR3   I+2,,AUTO
         9 000322   200130 453500                    STP3    I+4,,AUTO
         9 000323   200007 236100                    LDQ     @SECT_NUMBER,,AUTO
PL6.E3A0      #001=Z8IO$OUTPUT_ARRAY File=Z8IO.:Z8A6TSI                          SAT 08/09/97 13:27 Page:31
         9 000324   200127 756100                    STQ     I+3,,AUTO
         9 000325   200127 630500                    EPPR0   I+3,,AUTO
         9 000326   000003 631400 10                 EPPR1   3
         9 000327   000000 701000 xent               TSX1    Z9IO$OUTPUT_WORD
         9 000330   000000 011000                    NOP     0

      188     8699
      189     8700    3      END;

   8700  9 000331   200124 054100                    AOS     I,,AUTO
         9 000332   200123 470500                    LDP0    @LENGTH,,AUTO
         9 000333   200124 236100                    LDQ     I,,AUTO
         9 000334   000000 116100                    CMPQ    0,,PR0
         9 000335   000310 604000 9                  TMI     s:8698

      190     8701    2    END FLUSH;

   8701  9 000336   200120 221300                    LDX1  ! T_LENGTH+1,,AUTO
         9 000337   000001 702211                    TSX2  ! 1,X1

      191     8702        %EJECT;
PL6.E3A0      #001=Z8IO$OUTPUT_ARRAY File=Z8IO.:Z8A6TSI                          SAT 08/09/97 13:27 Page:32
      192     8703
      193     8704
      194     8705           /* MAIN PROGRAM */
      195     8706
      196     8707    1      IF OLD_SA ~= CURRENT_SA OR

   8707  9 000340   200005 470500                    LDP0    @CURRENT_SA,,AUTO
         9 000341   000000 236000 8                  LDQ     OLD_SA
         9 000342   000000 116100                    CMPQ    0,,PR0
         9 000343   000352 601000 9                  TNZ     s:8710
         9 000344   000000 116003                    CMPQ    0,DU
         9 000345   000372 601000 9                  TNZ     s:8721
         9 000346   200003 471500                    LDP1    @QLT$$,,AUTO
         9 000347   100000 236100                    LDQ     0,,PR1
         9 000350   000007 116000 10                 CMPQ    7
         9 000351   000372 601000 9                  TNZ     s:8721

      197     8708    1         (OLD_SA = 0  AND  QLT$$ = ADDR(NIL)) THEN
      198     8709    2        DO;

      199     8710    2          IF BITS_IN_BUFFER ~= 0 THEN

   8710  9 000352   000001 235000 8                  LDA     BITS_IN_BUFFER
         9 000353   000367 600000 9                  TZE     s:8718

      200     8711    3            DO;

      201     8712    3              CALL Z9IO$OUTPUT_WORD (SECT_NUMBER, OLD_SA, BUFFER);

   8712  9 000354   000004 236000 10                 LDQ     4
         9 000355   200130 756100                    STQ     I+4,,AUTO
         9 000356   000005 236000 10                 LDQ     5
         9 000357   200007 235100                    LDA     @SECT_NUMBER,,AUTO
         9 000360   200126 757100                    STAQ    I+2,,AUTO
         9 000361   200126 630500                    EPPR0   I+2,,AUTO
         9 000362   000003 631400 10                 EPPR1   3
         9 000363   000000 701000 xent               TSX1    Z9IO$OUTPUT_WORD
PL6.E3A0      #001=Z8IO$OUTPUT_ARRAY File=Z8IO.:Z8A6TSI                          SAT 08/09/97 13:27 Page:33
         9 000364   000000 011000                    NOP     0

      202     8713
      203     8714    3              BUFFER = 0;

   8714  9 000365   000002 450000 8                  STZ     BUFFER

      204     8715    3              BITS_IN_BUFFER = 0;

   8715  9 000366   000001 450000 8                  STZ     BITS_IN_BUFFER

      205     8716    3            END;

      206     8717
      207     8718    2          OLD_SA = CURRENT_SA;

   8718  9 000367   200005 470500                    LDP0    @CURRENT_SA,,AUTO
         9 000370   000000 235100                    LDA     0,,PR0
         9 000371   000000 755000 8                  STA     OLD_SA

      208     8719    2        END;

      209     8720
      210     8721    1      IF QLT$$ = ADDR(NIL) THEN

   8721  9 000372   200003 471500                    LDP1    @QLT$$,,AUTO
         9 000373   100000 236100                    LDQ     0,,PR1
         9 000374   000007 116000 10                 CMPQ    7
         9 000375   000377 601000 9                  TNZ     s:8724

      211     8722    1        RETURN;

   8722  9 000376   000000 702200 xent               TSX2  ! X66_ARET

      212     8723
      213     8724    1      STRING$$ = QLT$$ -> QLT.ARRAY_VALUE$ -> ARRAY_PRESET_LTS.STRING$;

PL6.E3A0      #001=Z8IO$OUTPUT_ARRAY File=Z8IO.:Z8A6TSI                          SAT 08/09/97 13:27 Page:34
   8724  9 000377   100000 473500                    LDP3    0,,PR1
         9 000400   300005 474500                    LDP4    5,,PR3
         9 000401   400002 236100                    LDQ     2,,PR4
         9 000402   200010 756100                    STQ     STRING$$,,AUTO

      214     8725    1      CONST$$ = QLT$$ -> QLT.ARRAY_VALUE$ -> ARRAY_PRESET_LTS.CONSTANT$;

   8725  9 000403   100000 473500                    LDP3    0,,PR1
         9 000404   300005 474500                    LDP4    5,,PR3
         9 000405   400001 236100                    LDQ     1,,PR4
         9 000406   200111 756100                    STQ     CONST$$,,AUTO

      215     8726
      216     8727    2      DO CASE (ST$$ -> ST.TYPE);

   8727  9 000407   200004 475500                    LDP5    @ST$$,,AUTO
         9 000410   500000 476500                    LDP6    0,,PR5
         9 000411   600002 220100                    LDX0    2,,PR6
         9 000412   000024 100003                    CMPX0   20,DU
         9 000413   000415 602010 9                  TNC     s:8727+6,X0
         9 000414   001064 710000 9                  TRA     s:8846
         9 000415   000652 710000 9                  TRA     s:8796
         9 000416   000441 710000 9                  TRA     s:8730
         9 000417   000457 710000 9                  TRA     s:8734
         9 000420   000457 710000 9                  TRA     s:8734
         9 000421   000441 710000 9                  TRA     s:8730
         9 000422   000441 710000 9                  TRA     s:8730
         9 000423   000467 710000 9                  TRA     s:8741
         9 000424   000457 710000 9                  TRA     s:8734
         9 000425   000467 710000 9                  TRA     s:8741
         9 000426   001064 710000 9                  TRA     s:8846
         9 000427   001064 710000 9                  TRA     s:8846
         9 000430   000652 710000 9                  TRA     s:8796
         9 000431   000515 710000 9                  TRA     s:8757
         9 000432   001064 710000 9                  TRA     s:8846
         9 000433   001064 710000 9                  TRA     s:8846
         9 000434   000457 710000 9                  TRA     s:8734
PL6.E3A0      #001=Z8IO$OUTPUT_ARRAY File=Z8IO.:Z8A6TSI                          SAT 08/09/97 13:27 Page:35
         9 000435   001064 710000 9                  TRA     s:8846
         9 000436   001064 710000 9                  TRA     s:8846
         9 000437   000441 710000 9                  TRA     s:8730
         9 000440   000543 710000 9                  TRA     s:8770

      217     8728    2        CASE (%TYI, %TYR, %TYQ, %TYP);

      218     8729
      219     8730    2          CALL FLUSH (STRING$$, OLD_SA, (CONST$$ -> CONST.NDSC.N/4));

   8730  9 000441   200111 477500                    LDP7    CONST$$,,AUTO
         9 000442   700001 236100                    LDQ     1,,PR7
         9 000443   000077 376007                    ANQ     63,DL
         9 000444   000002 772000                    QRL     2
         9 000445   200136 756100                    STQ     I+10,,AUTO
         9 000446   200136 633500                    EPPR3   I+10,,AUTO
         9 000447   200123 453500                    STP3    @OFFSET+1,,AUTO
         9 000450   000005 236000 10                 LDQ     5
         9 000451   200122 756100                    STQ     @STRING$+1,,AUTO
         9 000452   200010 634500                    EPPR4   STRING$$,,AUTO
         9 000453   200121 454500                    STP4    T_LENGTH+2,,AUTO
         9 000454   000305 701000 9                  TSX1    FLUSH
         9 000455   000000 011000                    NOP     0
         9 000456   001064 710000 9                  TRA     s:8846

      220     8731
      221     8732    2        CASE (%TYO, %TYH, %TYJ, %TYK);

      222     8733
      223     8734    2          CALL ALPHANUMERIC_PRESET (BINBIT(ST$$ -> ST.NDSC.N, 36));

   8734  9 000457   600001 236100                    LDQ     1,,PR6
         9 000460   000077 376007                    ANQ     63,DL
         9 000461   200140 756100                    STQ     I+12,,AUTO
         9 000462   200140 633500                    EPPR3   I+12,,AUTO
         9 000463   200121 453500                    STP3    T_LENGTH+2,,AUTO
         9 000464   000003 701000 9                  TSX1    ALPHANUMERIC_PRESET
PL6.E3A0      #001=Z8IO$OUTPUT_ARRAY File=Z8IO.:Z8A6TSI                          SAT 08/09/97 13:27 Page:36
         9 000465   000000 011000                    NOP     0
         9 000466   001064 710000 9                  TRA     s:8846

      224     8735
      225     8736    2        CASE (%TYA, %TYE);

      226     8737
      227     8738               %GET_ADSC_LEN (ST$ = ST$$,
      228     8739                              RTN = T_LENGTH);

   8741  9 000467   600003 236100                    LDQ     3,,PR6
         9 000470   004000 316003                    CANQ    2048,DU
         9 000471   000505 600000 9                  TZE     s:8747

   8742  9 000472   600005 477500                    LDP7    5,,PR6
         9 000473   700000 221100                    LDX1    0,,PR7
         9 000474   001105 101003                    CMPX1   581,DU
         9 000475   000502 601000 9                  TNZ     s:8745

   8743  9 000476   700003 470500                    LDP0    3,,PR7
         9 000477   000001 235100                    LDA     1,,PR0
         9 000500   200117 755100                    STA     T_LENGTH,,AUTO
         9 000501   000510 710000 9                  TRA     s:8750

   8745  9 000502   700001 235100                    LDA     1,,PR7
         9 000503   200117 755100                    STA     T_LENGTH,,AUTO
         9 000504   000510 710000 9                  TRA     s:8750

   8747  9 000505   600001 236100                    LDQ     1,,PR6
         9 000506   007777 376007                    ANQ     4095,DL
         9 000507   200117 756100                    STQ     T_LENGTH,,AUTO

      229     8750    2          CALL ALPHANUMERIC_PRESET (T_LENGTH);

   8750  9 000510   200117 630500                    EPPR0   T_LENGTH,,AUTO
         9 000511   200121 450500                    STP0    T_LENGTH+2,,AUTO
         9 000512   000003 701000 9                  TSX1    ALPHANUMERIC_PRESET
PL6.E3A0      #001=Z8IO$OUTPUT_ARRAY File=Z8IO.:Z8A6TSI                          SAT 08/09/97 13:27 Page:37
         9 000513   000000 011000                    NOP     0
         9 000514   001064 710000 9                  TRA     s:8846

      230     8751
      231     8752    2        CASE (%TYB);

      232     8753
      233     8754               %GET_ADSC_LEN (ST$ = ST$$,
      234     8755                              RTN = T_LENGTH);

   8757  9 000515   600003 236100                    LDQ     3,,PR6
         9 000516   004000 316003                    CANQ    2048,DU
         9 000517   000533 600000 9                  TZE     s:8763

   8758  9 000520   600005 477500                    LDP7    5,,PR6
         9 000521   700000 221100                    LDX1    0,,PR7
         9 000522   001105 101003                    CMPX1   581,DU
         9 000523   000530 601000 9                  TNZ     s:8761

   8759  9 000524   700003 470500                    LDP0    3,,PR7
         9 000525   000001 235100                    LDA     1,,PR0
         9 000526   200117 755100                    STA     T_LENGTH,,AUTO
         9 000527   000536 710000 9                  TRA     s:8766

   8761  9 000530   700001 235100                    LDA     1,,PR7
         9 000531   200117 755100                    STA     T_LENGTH,,AUTO
         9 000532   000536 710000 9                  TRA     s:8766

   8763  9 000533   600001 236100                    LDQ     1,,PR6
         9 000534   007777 376007                    ANQ     4095,DL
         9 000535   200117 756100                    STQ     T_LENGTH,,AUTO

      235     8766    2          CALL GBCD_PRESET (T_LENGTH);

   8766  9 000536   200117 630500                    EPPR0   T_LENGTH,,AUTO
         9 000537   200121 450500                    STP0    T_LENGTH+2,,AUTO
         9 000540   000150 701000 9                  TSX1    GBCD_PRESET
PL6.E3A0      #001=Z8IO$OUTPUT_ARRAY File=Z8IO.:Z8A6TSI                          SAT 08/09/97 13:27 Page:38
         9 000541   000000 011000                    NOP     0
         9 000542   001064 710000 9                  TRA     s:8846

      236     8767
      237     8768    2        CASE (%TYC);

      238     8769
      239     8770    2          IF ST$$ -> VARIABLE.B.SUB_CLASS.EDITED THEN

   8770  9 000543   600003 236100                    LDQ     3,,PR6
         9 000544   000004 316007                    CANQ    4,DL
         9 000545   000556 600000 9                  TZE     s:8774

      240     8771    2            CALL GBCD_PRESET (BINBIT (ST$$ -> ST.NDSC.N, 36));

   8771  9 000546   600001 236100                    LDQ     1,,PR6
         9 000547   000077 376007                    ANQ     63,DL
         9 000550   200142 756100                    STQ     I+14,,AUTO
         9 000551   200142 633500                    EPPR3   I+14,,AUTO
         9 000552   200121 453500                    STP3    T_LENGTH+2,,AUTO
         9 000553   000150 701000 9                  TSX1    GBCD_PRESET
         9 000554   000000 011000                    NOP     0
         9 000555   001064 710000 9                  TRA     s:8846

      241     8772    2          ELSE
      242     8773    3            DO;

      243     8774    3              MVN_BUFFER(0) = BUFFER;

   8774  9 000556   000002 235000 8                  LDA     BUFFER
         9 000557   200011 755100                    STA     MVN_BUFFER,,AUTO

      244     8775    3              TYPE.DESC.DESCL = ST$$ -> ST.DESCL;

   8775  9 000560   500000 473500                    LDP3    0,,PR5
         9 000561   300001 720100                    LXL0    1,,PR3
         9 000562   200113 440100                    SXL0    TYPE+1,,AUTO
PL6.E3A0      #001=Z8IO$OUTPUT_ARRAY File=Z8IO.:Z8A6TSI                          SAT 08/09/97 13:27 Page:39

      245     8776    3              TYPE.DESC.NDSC.CN = CURRENT_CN;

   8776  9 000563   200006 473500                    LDP3    @CURRENT_CN,,AUTO
         9 000564   300000 236100                    LDQ     0,,PR3
         9 000565   000017 736000                    QLS     15
         9 000566   200113 676100                    ERQ     TYPE+1,,AUTO
         9 000567   700000 376007                    ANQ     -32768,DL
         9 000570   200113 656100                    ERSQ    TYPE+1,,AUTO

      246     8777
      247     8778    3              CALL Z9AU$MOVE_GBCD ( CONST$$ -> CONST.NDSC,

   8778  9 000571   200011 634500                    EPPR4   MVN_BUFFER,,AUTO
         9 000572   200126 454500                    STP4    I+2,,AUTO
         9 000573   200126 636500                    EPPR6   I+2,,AUTO
         9 000574   200133 456500                    STP6    I+7,,AUTO
         9 000575   200010 637500                    EPPR7   STRING$$,,AUTO
         9 000576   200132 457500                    STP7    I+6,,AUTO
         9 000577   200134 452500                    STP2    I+8,,AUTO
         9 000600   200134 236100                    LDQ     I+8,,AUTO
         9 000601   000011 036000 10                 ADLQ    9
         9 000602   200131 756100                    STQ     I+5,,AUTO
         9 000603   200111 236100                    LDQ     CONST$$,,AUTO
         9 000604   000012 036000 10                 ADLQ    10
         9 000605   200130 756100                    STQ     I+4,,AUTO
         9 000606   200130 630500                    EPPR0   I+4,,AUTO
         9 000607   000010 631400 10                 EPPR1   8
         9 000610   000000 701000 xent               TSX1    Z9AU$MOVE_GBCD
         9 000611   000000 011000                    NOP     0

      248     8779    3                                    TYPE.DESC.NDSC,
      249     8780    3                                    STRING$$,
      250     8781    3                                    ADDR(MVN_BUFFER));
      251     8782
      252     8783    3              BITS_IN_BUFFER = (TYPE.DESC.NDSC.N + TYPE.DESC.NDSC.CN)*6;

PL6.E3A0      #001=Z8IO$OUTPUT_ARRAY File=Z8IO.:Z8A6TSI                          SAT 08/09/97 13:27 Page:40
   8783  9 000612   200113 236100                    LDQ     TYPE+1,,AUTO
         9 000613   000017 772000                    QRL     15
         9 000614   000007 376007                    ANQ     7,DL
         9 000615   200126 756100                    STQ     I+2,,AUTO
         9 000616   200113 236100                    LDQ     TYPE+1,,AUTO
         9 000617   000077 376007                    ANQ     63,DL
         9 000620   200126 036100                    ADLQ    I+2,,AUTO
         9 000621   000006 402007                    MPY     6,DL
         9 000622   000001 756000 8                  STQ     BITS_IN_BUFFER

      253     8784
      254     8785    3              LENGTH_IN_WORDS = BITS_IN_BUFFER/36;

   8785  9 000623   000044 506007                    DIV     36,DL
         9 000624   200116 756100                    STQ     LENGTH_IN_WORDS,,AUTO

      255     8786
      256     8787    3              CALL FLUSH (ADDR(MVN_BUFFER), CURRENT_SA, LENGTH_IN_WORDS);

   8787  9 000625   200011 630500                    EPPR0   MVN_BUFFER,,AUTO
         9 000626   200144 450500                    STP0    I+16,,AUTO
         9 000627   200116 631500                    EPPR1   LENGTH_IN_WORDS,,AUTO
         9 000630   200123 451500                    STP1    @OFFSET+1,,AUTO
         9 000631   200005 236100                    LDQ     @CURRENT_SA,,AUTO
         9 000632   200122 756100                    STQ     @STRING$+1,,AUTO
         9 000633   200144 633500                    EPPR3   I+16,,AUTO
         9 000634   200121 453500                    STP3    T_LENGTH+2,,AUTO
         9 000635   000305 701000 9                  TSX1    FLUSH
         9 000636   000000 011000                    NOP     0

      257     8788
      258     8789    3              BUFFER = MVN_BUFFER (LENGTH_IN_WORDS);

   8789  9 000637   200116 720100                    LXL0    LENGTH_IN_WORDS,,AUTO
         9 000640   200011 235110                    LDA     MVN_BUFFER,X0,AUTO
         9 000641   000002 755000 8                  STA     BUFFER

PL6.E3A0      #001=Z8IO$OUTPUT_ARRAY File=Z8IO.:Z8A6TSI                          SAT 08/09/97 13:27 Page:41
      259     8790    3              OLD_SA = CURRENT_SA + LENGTH_IN_WORDS;

   8790  9 000642   200005 470500                    LDP0    @CURRENT_SA,,AUTO
         9 000643   000000 236100                    LDQ     0,,PR0
         9 000644   200116 036100                    ADLQ    LENGTH_IN_WORDS,,AUTO
         9 000645   000000 756000 8                  STQ     OLD_SA

      260     8791    3              BITS_IN_BUFFER = MOD (BITS_IN_BUFFER, 36);

   8791  9 000646   000001 236000 8                  LDQ     BITS_IN_BUFFER
         9 000647   000044 506007                    DIV     36,DL
         9 000650   000001 755000 8                  STA     BITS_IN_BUFFER

      261     8792    3            END;

   8792  9 000651   001064 710000 9                  TRA     s:8846

      262     8793
      263     8794    2        CASE (%TYD, %TYF);

      264     8795
      265     8796    2          IF ST$$ -> VARIABLE.B.SUB_CLASS.EDITED THEN

   8796  9 000652   600003 236100                    LDQ     3,,PR6
         9 000653   000004 316007                    CANQ    4,DL
         9 000654   000665 600000 9                  TZE     s:8800

      266     8797    2            CALL ALPHANUMERIC_PRESET (BINBIT (ST$$ -> ST.NDSC.N, 36));

   8797  9 000655   600001 236100                    LDQ     1,,PR6
         9 000656   000077 376007                    ANQ     63,DL
         9 000657   200146 756100                    STQ     I+18,,AUTO
         9 000660   200146 633500                    EPPR3   I+18,,AUTO
         9 000661   200121 453500                    STP3    T_LENGTH+2,,AUTO
         9 000662   000003 701000 9                  TSX1    ALPHANUMERIC_PRESET
         9 000663   000000 011000                    NOP     0
         9 000664   001064 710000 9                  TRA     s:8846
PL6.E3A0      #001=Z8IO$OUTPUT_ARRAY File=Z8IO.:Z8A6TSI                          SAT 08/09/97 13:27 Page:42

      267     8798    2          ELSE
      268     8799    3            DO;

      269     8800    3              MVN_BUFFER(0) = BUFFER;

   8800  9 000665   000002 235000 8                  LDA     BUFFER
         9 000666   200011 755100                    STA     MVN_BUFFER,,AUTO

      270     8801    3              TYPE.DESC.DESCL = ST$$ -> ST.DESCL;

   8801  9 000667   500000 473500                    LDP3    0,,PR5
         9 000670   300001 720100                    LXL0    1,,PR3
         9 000671   200113 440100                    SXL0    TYPE+1,,AUTO

      271     8802    3              TYPE.DESC.NDSC.CN = CURRENT_CN;

   8802  9 000672   200006 473500                    LDP3    @CURRENT_CN,,AUTO
         9 000673   300000 236100                    LDQ     0,,PR3
         9 000674   000017 736000                    QLS     15
         9 000675   200113 676100                    ERQ     TYPE+1,,AUTO
         9 000676   700000 376007                    ANQ     -32768,DL
         9 000677   200113 656100                    ERSQ    TYPE+1,,AUTO

      272     8803
      273     8804    3              IF ST$$ -> ST.TYPE = %TYF THEN

   8804  9 000700   500000 474500                    LDP4    0,,PR5
         9 000701   400002 220100                    LDX0    2,,PR4
         9 000702   000013 100003                    CMPX0   11,DU
         9 000703   000737 601000 9                  TNZ     s:8814

      274     8805    4                DO;

      275     8806    4                  CALL Z9AU$MOVE_EBCDIC ( CONST$$ -> CONST.NDSC,

   8806  9 000704   200011 636500                    EPPR6   MVN_BUFFER,,AUTO
PL6.E3A0      #001=Z8IO$OUTPUT_ARRAY File=Z8IO.:Z8A6TSI                          SAT 08/09/97 13:27 Page:43
         9 000705   200126 456500                    STP6    I+2,,AUTO
         9 000706   200126 634500                    EPPR4   I+2,,AUTO
         9 000707   200133 454500                    STP4    I+7,,AUTO
         9 000710   200010 637500                    EPPR7   STRING$$,,AUTO
         9 000711   200132 457500                    STP7    I+6,,AUTO
         9 000712   200134 452500                    STP2    I+8,,AUTO
         9 000713   200134 236100                    LDQ     I+8,,AUTO
         9 000714   000011 036000 10                 ADLQ    9
         9 000715   200131 756100                    STQ     I+5,,AUTO
         9 000716   200111 236100                    LDQ     CONST$$,,AUTO
         9 000717   000012 036000 10                 ADLQ    10
         9 000720   200130 756100                    STQ     I+4,,AUTO
         9 000721   200130 630500                    EPPR0   I+4,,AUTO
         9 000722   000010 631400 10                 EPPR1   8
         9 000723   000000 701000 xent               TSX1    Z9AU$MOVE_EBCDIC
         9 000724   000000 011000                    NOP     0

      276     8807    4                                          TYPE.DESC.NDSC,
      277     8808    4                                          STRING$$,
      278     8809    4                                          ADDR(MVN_BUFFER));
      279     8810    4                  BITS_IN_BUFFER = (TYPE.DESC.NDSC.N + TYPE.DESC.ADSC.CN)*9;

   8810  9 000725   200113 236100                    LDQ     TYPE+1,,AUTO
         9 000726   000020 772000                    QRL     16
         9 000727   000003 376007                    ANQ     3,DL
         9 000730   200126 756100                    STQ     I+2,,AUTO
         9 000731   200113 236100                    LDQ     TYPE+1,,AUTO
         9 000732   000077 376007                    ANQ     63,DL
         9 000733   200126 036100                    ADLQ    I+2,,AUTO
         9 000734   000011 402007                    MPY     9,DL
         9 000735   000001 756000 8                  STQ     BITS_IN_BUFFER

      280     8811    4                END;

   8811  9 000736   001035 710000 9                  TRA     s:8832

      281     8812    3              ELSE
PL6.E3A0      #001=Z8IO$OUTPUT_ARRAY File=Z8IO.:Z8A6TSI                          SAT 08/09/97 13:27 Page:44
      282     8813    4                DO;

      283     8814    4                  IF ST$$ -> VARIABLE.B.P THEN

   8814  9 000737   400003 236100                    LDQ     3,,PR4
         9 000740   000020 316003                    CANQ    16,DU
         9 000741   000764 600000 9                  TZE     s:8820

      284     8815    4                    CALL Z9AU$MOVE_C3_NUMERIC ( CONST$$ -> CONST.NDSC,

   8815  9 000742   200011 636500                    EPPR6   MVN_BUFFER,,AUTO
         9 000743   200126 456500                    STP6    I+2,,AUTO
         9 000744   200126 634500                    EPPR4   I+2,,AUTO
         9 000745   200133 454500                    STP4    I+7,,AUTO
         9 000746   200010 637500                    EPPR7   STRING$$,,AUTO
         9 000747   200132 457500                    STP7    I+6,,AUTO
         9 000750   200134 452500                    STP2    I+8,,AUTO
         9 000751   200134 236100                    LDQ     I+8,,AUTO
         9 000752   000011 036000 10                 ADLQ    9
         9 000753   200131 756100                    STQ     I+5,,AUTO
         9 000754   200111 236100                    LDQ     CONST$$,,AUTO
         9 000755   000012 036000 10                 ADLQ    10
         9 000756   200130 756100                    STQ     I+4,,AUTO
         9 000757   200130 630500                    EPPR0   I+4,,AUTO
         9 000760   000010 631400 10                 EPPR1   8
         9 000761   000000 701000 xent               TSX1    Z9AU$MOVE_C3_NUMERIC
         9 000762   000000 011000                    NOP     0
         9 000763   001005 710000 9                  TRA     s:8825

      285     8816    4                                                TYPE.DESC.NDSC,
      286     8817    4                                                STRING$$,
      287     8818    4                                                ADDR(MVN_BUFFER));
      288     8819    4                  ELSE
      289     8820    4                    CALL Z9AU$MOVE_NUMERIC ( CONST$$ -> CONST.NDSC,

   8820  9 000764   200011 636500                    EPPR6   MVN_BUFFER,,AUTO
         9 000765   200126 456500                    STP6    I+2,,AUTO
PL6.E3A0      #001=Z8IO$OUTPUT_ARRAY File=Z8IO.:Z8A6TSI                          SAT 08/09/97 13:27 Page:45
         9 000766   200126 634500                    EPPR4   I+2,,AUTO
         9 000767   200133 454500                    STP4    I+7,,AUTO
         9 000770   200010 637500                    EPPR7   STRING$$,,AUTO
         9 000771   200132 457500                    STP7    I+6,,AUTO
         9 000772   200134 452500                    STP2    I+8,,AUTO
         9 000773   200134 236100                    LDQ     I+8,,AUTO
         9 000774   000011 036000 10                 ADLQ    9
         9 000775   200131 756100                    STQ     I+5,,AUTO
         9 000776   200111 236100                    LDQ     CONST$$,,AUTO
         9 000777   000012 036000 10                 ADLQ    10
         9 001000   200130 756100                    STQ     I+4,,AUTO
         9 001001   200130 630500                    EPPR0   I+4,,AUTO
         9 001002   000010 631400 10                 EPPR1   8
         9 001003   000000 701000 xent               TSX1    Z9AU$MOVE_NUMERIC
         9 001004   000000 011000                    NOP     0

      290     8821    4                                             TYPE.DESC.NDSC,
      291     8822    4                                             STRING$$,
      292     8823    4                                             ADDR(MVN_BUFFER));
      293     8824
      294     8825    4                  IF TYPE.DESC.NDSC.TN = %NDSC4 THEN

   8825  9 001005   200113 236100                    LDQ     TYPE+1,,AUTO
         9 001006   040000 316007                    CANQ    16384,DL
         9 001007   001024 600000 9                  TZE     s:8829

      295     8826    4                    BITS_IN_BUFFER = ((TYPE.DESC.NDSC.N + TYPE.DESC.NDSC.CN)*9 +1)/2;

   8826  9 001010   200113 236100                    LDQ     TYPE+1,,AUTO
         9 001011   000017 772000                    QRL     15
         9 001012   000007 376007                    ANQ     7,DL
         9 001013   200126 756100                    STQ     I+2,,AUTO
         9 001014   200113 236100                    LDQ     TYPE+1,,AUTO
         9 001015   000077 376007                    ANQ     63,DL
         9 001016   200126 036100                    ADLQ    I+2,,AUTO
         9 001017   000011 402007                    MPY     9,DL
         9 001020   000001 036007                    ADLQ    1,DL
PL6.E3A0      #001=Z8IO$OUTPUT_ARRAY File=Z8IO.:Z8A6TSI                          SAT 08/09/97 13:27 Page:46
         9 001021   000001 772000                    QRL     1
         9 001022   000001 756000 8                  STQ     BITS_IN_BUFFER
         9 001023   001035 710000 9                  TRA     s:8832

      296     8827    4                  ELSE
      297     8828                           /* TYPE.DESC.ADSC.CN is the actual byte number */
      298     8829    4                    BITS_IN_BUFFER = (TYPE.DESC.NDSC.N + TYPE.DESC.ADSC.CN)*9;

   8829  9 001024   200113 236100                    LDQ     TYPE+1,,AUTO
         9 001025   000020 772000                    QRL     16
         9 001026   000003 376007                    ANQ     3,DL
         9 001027   200126 756100                    STQ     I+2,,AUTO
         9 001030   200113 236100                    LDQ     TYPE+1,,AUTO
         9 001031   000077 376007                    ANQ     63,DL
         9 001032   200126 036100                    ADLQ    I+2,,AUTO
         9 001033   000011 402007                    MPY     9,DL
         9 001034   000001 756000 8                  STQ     BITS_IN_BUFFER

      299     8830    4                END;

      300     8831
      301     8832    3              LENGTH_IN_WORDS = BITS_IN_BUFFER/36;

   8832  9 001035   000044 506007                    DIV     36,DL
         9 001036   200116 756100                    STQ     LENGTH_IN_WORDS,,AUTO

      302     8833
      303     8834    3              CALL FLUSH (ADDR(MVN_BUFFER), CURRENT_SA, LENGTH_IN_WORDS);

   8834  9 001037   200011 630500                    EPPR0   MVN_BUFFER,,AUTO
         9 001040   200150 450500                    STP0    I+20,,AUTO
         9 001041   200116 631500                    EPPR1   LENGTH_IN_WORDS,,AUTO
         9 001042   200123 451500                    STP1    @OFFSET+1,,AUTO
         9 001043   200005 236100                    LDQ     @CURRENT_SA,,AUTO
         9 001044   200122 756100                    STQ     @STRING$+1,,AUTO
         9 001045   200150 633500                    EPPR3   I+20,,AUTO
         9 001046   200121 453500                    STP3    T_LENGTH+2,,AUTO
PL6.E3A0      #001=Z8IO$OUTPUT_ARRAY File=Z8IO.:Z8A6TSI                          SAT 08/09/97 13:27 Page:47
         9 001047   000305 701000 9                  TSX1    FLUSH
         9 001050   000000 011000                    NOP     0

      304     8835
      305     8836    3              BUFFER = MVN_BUFFER (LENGTH_IN_WORDS);

   8836  9 001051   200116 720100                    LXL0    LENGTH_IN_WORDS,,AUTO
         9 001052   200011 235110                    LDA     MVN_BUFFER,X0,AUTO
         9 001053   000002 755000 8                  STA     BUFFER

      306     8837    3              OLD_SA = CURRENT_SA + LENGTH_IN_WORDS;

   8837  9 001054   200005 470500                    LDP0    @CURRENT_SA,,AUTO
         9 001055   000000 236100                    LDQ     0,,PR0
         9 001056   200116 036100                    ADLQ    LENGTH_IN_WORDS,,AUTO
         9 001057   000000 756000 8                  STQ     OLD_SA

      307     8838    3              BITS_IN_BUFFER = MOD (BITS_IN_BUFFER, 36);

   8838  9 001060   000001 236000 8                  LDQ     BITS_IN_BUFFER
         9 001061   000044 506007                    DIV     36,DL
         9 001062   000001 755000 8                  STA     BITS_IN_BUFFER

      308     8839    3            END;

   8839  9 001063   001064 710000 9                  TRA     s:8846

      309     8840
      310     8841    2        CASE (ELSE);

      311     8842               /* ERROR */
      312     8843
      313     8844    2      END; /*  DO CASE */

      314     8845
      315     8846    1      IF BITS_IN_BUFFER = 0 THEN

PL6.E3A0      #001=Z8IO$OUTPUT_ARRAY File=Z8IO.:Z8A6TSI                          SAT 08/09/97 13:27 Page:48
   8846  9 001064   000001 235000 8                  LDA     BITS_IN_BUFFER
         9 001065   001067 601000 9                  TNZ     s:8849

      316     8847    1        BUFFER = 0;

   8847  9 001066   000002 450000 8                  STZ     BUFFER

      317     8848
      318     8849    1      RETURN;

   8849  9 001067   000000 702200 xent               TSX2  ! X66_ARET
      319     8850    1    END Z8IO$OUTPUT_ARRAY;
      320     8851
      321     8852        %EOD;

PL6.E3A0      #001=Z8IO$OUTPUT_ARRAY File=Z8IO.:Z8A6TSI                          SAT 08/09/97 13:27 Page:49
--  Include file information  --

   Z8A_LTS.:Z8A6TOU  cannot be made into a system file and is referenced.
   Z8A_QLT.:Z8A6TOU  cannot be made into a system file and is referenced.
   Z8A_ST.:Z8A6TOU  cannot be made into a system file and is referenced.
   Z8A_TYPES.:Z8A6TOU  is referenced.
   X8A_COM_MACS.:X8A6TOU  is referenced.
   Z8A_NAMES.:Z8A6TOU  is referenced.
   Z8A_SUPP_MAC.:Z8A6TOU  is referenced.
   Z8A_DEFC.:Z8A6TOU  cannot be made into a system file and is referenced.
      No diagnostics issued in procedure Z8IO$OUTPUT_ARRAY.
PL6.E3A0      #001=Z8IO$OUTPUT_ARRAY File=Z8IO.:Z8A6TSI                          SAT 08/09/97 13:27 Page:50

 **** Variables and constants ****

  ****  Section 000 LblCom ITERATION

  ****  Scalars and arrays  ****
OctLoc.c.b A Datatyp(siz) R M Lvl/name                 OctLoc.c.b A Datatyp(siz) R M Lvl/name

     0-0-0/w SBIN              1 ITERATION

  ****  Section 001 LblCom ST$

  ****  Scalars and arrays  ****
OctLoc.c.b A Datatyp(siz) R M Lvl/name                 OctLoc.c.b A Datatyp(siz) R M Lvl/name

     0-0-0/w PTR         r     1 ST$

  ****  Section 002 LblCom ST_

  ****  Scalars and arrays  ****
OctLoc.c.b A Datatyp(siz) R M Lvl/name                 OctLoc.c.b A Datatyp(siz) R M Lvl/name

     0-0-0/w STRC(180)         1 ST_

  ****  Section 003 LblCom QLT$

  ****  Scalars and arrays  ****
OctLoc.c.b A Datatyp(siz) R M Lvl/name                 OctLoc.c.b A Datatyp(siz) R M Lvl/name

     0-0-0/w PTR         r     1 QLT$

  ****  Section 004 LblCom PREV_01_QLT$

  ****  Scalars and arrays  ****
OctLoc.c.b A Datatyp(siz) R M Lvl/name                 OctLoc.c.b A Datatyp(siz) R M Lvl/name

     0-0-0/w PTR               1 PREV_01_QLT$

PL6.E3A0      #001=Z8IO$OUTPUT_ARRAY File=Z8IO.:Z8A6TSI                          SAT 08/09/97 13:27 Page:51
  ****  Section 005 LblCom QLT_

  ****  Scalars and arrays  ****
OctLoc.c.b A Datatyp(siz) R M Lvl/name                 OctLoc.c.b A Datatyp(siz) R M Lvl/name

     0-0-0/w STRC(180)         1 QLT_

  ****  Section 006 LblCom LTS$

  ****  Scalars and arrays  ****
OctLoc.c.b A Datatyp(siz) R M Lvl/name                 OctLoc.c.b A Datatyp(siz) R M Lvl/name

     0-0-0/w PTR               1 LONG_ITEM$                 0-0-0/w PTR         r     1 LTS$

  ****  Section 007 LblCom LTS_

  ****  Scalars and arrays  ****
OctLoc.c.b A Datatyp(siz) R M Lvl/name                 OctLoc.c.b A Datatyp(siz) R M Lvl/name

     0-0-0/w STRC(180)         1 LTS_

  ****  Section 008  Data  Z8IO$OUTPUT_ARRAY

  ****  Scalars and arrays  ****
OctLoc.c.b A Datatyp(siz) R M Lvl/name                 OctLoc.c.b A Datatyp(siz) R M Lvl/name

     2-0-0/w BIT (6)     r     1 BCD_BUFFER(0:5)
     1-0-0/w SBIN        r     1 BITS_IN_BUFFER             2-0-0/w SBIN        r     1 BUFFER
     2-0-0/w CHAR(4)     r     1 CHAR_BUFFER                0-0-0/w SBIN        r     1 OLD_SA

  ****  Auto variables  ****

  ****  Scalars and arrays  ****
OctLoc.c.b A Datatyp(siz) R M Lvl/name                 OctLoc.c.b A Datatyp(siz) R M Lvl/name

     6-0-0/w PTR         r     1 @CURRENT_CN                5-0-0/w PTR         r     1 @CURRENT_SA
   123-0-0/w PTR         r     1 @LENGTH                  122-0-0/w PTR         r     1 @OFFSET
PL6.E3A0      #001=Z8IO$OUTPUT_ARRAY File=Z8IO.:Z8A6TSI                          SAT 08/09/97 13:27 Page:52
     3-0-0/w PTR         r     1 @QLT$$                     7-0-0/w PTR         r     1 @SECT_NUMBER
     4-0-0/w PTR         r     1 @ST$$                    121-0-0/w PTR         r     1 @STRING$
   121-0-0/w PTR         r     1 @TARGET_LENGTH           121-0-0/w PTR         r     1 @TARGET_LENGTH
   111-0-0/w PTR         r     1 CONST$$                   *0-0-0/w SBIN        r     1 CURRENT_CN
    *0-0-0/w SBIN        r     1 CURRENT_SA               124-0-0/w SBIN        r     1 I
    *0-0-0/w SBIN        r     1 LENGTH                   116-0-0/w SBIN        r     1 LENGTH_IN_WORDS
    11-0-0/w SBIN        r     1 MVN_BUFFER(0:63)
    *0-0-0/w SBIN        r     1 OFFSET                    *0-0-0/w PTR         r     1 QLT$$
    *0-0-0/w SBIN        r     1 SECT_NUMBER              123-0-0/w SBIN        r     1 SOURCE
   123-0-0/w SBIN        r     1 SOURCE                    *0-0-0/w PTR         r     1 ST$$
    *0-0-0/w PTR         r     1 STRING$                   10-0-0/w PTR         r     1 STRING$$
   124-0-0/w SBIN        r     1 TARGET                   124-0-0/w SBIN        r     1 TARGET
    *0-0-0/w SBIN        r     1 TARGET_LENGTH             *0-0-0/w SBIN        r     1 TARGET_LENGTH
   122-0-0/w SBIN        r     1 TOTAL_MOVED              122-0-0/w SBIN        r     1 TOTAL_MOVED
   112-0-0/w STRC(144)   r     1 TYPE                     117-0-0/w SBIN        r     1 T_LENGTH

  ****  SYMREF variables  ****

  ****  Scalars and arrays  ****
OctLoc.c.b A Datatyp(siz) R M Lvl/name                 OctLoc.c.b A Datatyp(siz) R M Lvl/name

     0-0-0/w UBIN              1 LTS_STEP(0:37)

  ****  BASED and DCB variables  ****

  ****  Scalars and arrays  ****
OctLoc.c.b A Datatyp(siz) R M Lvl/name                 OctLoc.c.b A Datatyp(siz) R M Lvl/name

     0-0-0/w STRC(396)         1 ALPHABET                   0-0-0/w STRC(144)         1 ALTER_LTS
     0-0-0/w STRC(3672)        1 ALT_KEY                    0-0-0/w STRC(36864)       1 ARGLIST
     0-0-0/w STRC(396)         1 ARRAY                      0-0-0/w STRC(180)   r     1 ARRAY_PRESET_LTS
     0-0-0/w STRC(288)         1 BASE_LTS
     0-0-0/b BIT (6)     r     1 BCD$CHARS(0:63)
     0-0-0/w STRC(396)         1 BLOCK                      0-0-0/w STRC(144)         1 BT
     0-0-0/w STRC(396)         1 CD                         0-0-0/w STRC(288)         1 CD_LTS
     0-0-0/w CHAR(4096)  r     1 CHARS                      0-0-0/w STRC(396)         1 CLASS
     0-0-0/w STRC(396)         1 CONDITION                  0-0-0/w STRC(396)   r     1 CONST
PL6.E3A0      #001=Z8IO$OUTPUT_ARRAY File=Z8IO.:Z8A6TSI                          SAT 08/09/97 13:27 Page:53
     0-0-0/w STRC(72)          1 CONT                       0-0-0/w STRC(540)         1 CONTROL_NAME_LTS
     0-0-0/w STRC(1872)        1 COPY_FILE                  0-0-0/w STRC(396)         1 DB
     0-0-0/w STRC(396)         1 DCB_                       0-0-0/w STRC(108)         1 DEPENDING_SIZE
     0-0-0/w STRC(5472)        1 DIMS                       0-0-0/w STRC(396)         1 DML_ITEM
     0-0-0/w STRC(216)         1 DML_REC                    0-0-0/w STRC(73836)       1 EVALUATE
     0-0-0/w STRC(396)         1 FD                         0-0-0/w STRC(1692)        1 FILE_LTS
     0-0-0/w STRC(108)         1 INDEXES                    0-0-0/w STRC(360)         1 INIT_LTS
     0-0-0/w STRC(396)         1 INTDEF                     0-0-0/w STRC(180)         1 IO_RESTORE_CHAIN
     0-0-0/w STRC(144)         1 KEY                        0-0-0/w STRC(396)         1 LABEL
     0-0-0/w STRC(36864)       1 LCNST                      0-0-0/w STRC(72)    r     1 LONG
     0-0-0/w STRC        r     1 LTS                        0-0-0/w STRC(360)   r     1 LTSS
     0-0-0/w STRC(36936)       1 LTS_PTR_ARRAY              0-0-0/w STRC(396)         1 MNEMONIC
     0-0-0/w STRC(144)         1 NEL                        0-0-0/w STRC(216)         1 OPEN_LTS
     0-0-0/w STRC(36864)       1 PAGE                       0-0-0/w STRC(396)         1 PARA
     0-0-0/w STRC(144)         1 PRIME                      0-0-0/w STRC(396)         1 PROC_
     0-0-0/w STRC(396)         1 PROC_DEF                   0-0-0/w STRC(900)         1 PROC_SUPP
     0-0-0/w STRC(216)   r     1 QLT                        0-0-0/w STRC(396)         1 RD
     0-0-0/w STRC(216)         1 REF                        0-0-0/w STRC(108)         1 RENAMES
     0-0-0/w STRC(720)         1 REPORT_01_LTS              0-0-0/w STRC(432)         1 REPORT_ELEM_LTS
     0-0-0/w STRC(252)         1 REPORT_GRP_LTS             0-0-0/w STRC(1332)        1 REPORT_LTS
     0-0-0/w STRC(144)         1 RVA_LTS                    0-0-0/w STRC(396)   r     1 SCALAR
     0-0-0/w STRC(396)         1 SD                         0-0-0/w STRC(396)         1 SECTION
     0-0-0/w STRC(396)         1 SEGMENT                    0-0-0/w STRC(360)         1 SEGMENT_LTS
     0-0-0/w STRC(396)   r     1 ST                         0-0-0/w STRC(36900) r     1 STRING
     0-0-0/w STRC(252)         1 SUM_LTS                    0-0-0/w STRC(396)         1 SWITCH
     0-0-0/w STRC(396)         1 SYMBOLIC_CHAR              0-0-0/w STRC(396)         1 SYMDEF_
     0-0-0/w STRC(396)         1 SYMREF_                    0-0-0/w STRC(396)         1 TEMP
     0-0-0/d STRC(612)         1 USE                        0-0-0/w STRC(252)         1 USE_SUPP
     0-0-0/w STRC(396)   r     1 VARIABLE


   Procedure Z8IO$OUTPUT_ARRAY requires 568 words for executable code.
   Procedure Z8IO$OUTPUT_ARRAY requires 106 words of local(AUTO) storage.

PL6.E3A0      #002=Z8IO$PROCESS_ARRAY File=Z8IO.:Z8A6TSI                         SAT 08/09/97 13:29 Page:54
      322        1        /*T***********************************************************/
      323        2        /*T*                                                         */
      324        3        /*T* Copyright (c) Bull HN Information Systems Inc., 1997    */
      325        4        /*T*                                                         */
      326        5        /*T***********************************************************/
      327        6
      328        7         /*==================*/
      329        8           Z8IO$PROCESS_ARRAY: PROC(OBJ_LAB$,  SECT_NUMBER);
      330        9         /*==================*/
      331       10
      332       11        %EQU PHASE = 5;
      333       12
      334       13        %INCLUDE Z8A_DEFC;
      335       81        %INCLUDE Z8A_SUPP_MAC;
      336     2481        %INCLUDE Z8A_ST;
      337     6140        %INCLUDE Z8A_QLT;
      338     6246        %INCLUDE Z8A_LTS;
      339     8323        %INCLUDE Z8A_OBJ;
      340     8820
      341     8821
      342     8822    1   DCL SECT_NUMBER    SBIN WORD;
      343     8823    1   DCL OBJ_LAB$       PTR;
      344     8824    1   DCL QLT$$          PTR;
      345     8825    1   DCL LAST_OFFSET    SBIN WORD;
      346     8826
      347     8827    1   DCL Z8IO$PRESET_ARRAY  ENTRY (2);
      348     8828    1   DCL Z8IO$OUTPUT_ARRAY  ENTRY (5);
      349     8829
      350     8830
      351     8831    1      QLT$$ = OBJ_LAB$ -> OBJ_LAB.ST$ -> ARRAY.QLT$;
      352     8832
      353     8833    2      DO WHILE (QLT$$ -> QLT.FATHER ~= ADDR(NIL));
      354     8834    2        QLT$$ = QLT$$ -> QLT.FATHER;
      355     8835    2      END;
      356     8836
      357     8837    1      CALL Z8IO$PRESET_ARRAY (QLT$$ -> QLT.SON, SECT_NUMBER);
      358     8838
PL6.E3A0      #002=Z8IO$PROCESS_ARRAY File=Z8IO.:Z8A6TSI                         SAT 08/09/97 13:29 Page:55
      359     8839           /* Flush out the buffer */
      360     8840
      361     8841    1      CALL Z8IO$OUTPUT_ARRAY (ADDR(NIL), ADDR(NIL), -1, 0, SECT_NUMBER);
      362     8842
      363     8843    1      LAST_OFFSET = QLT$$ -> QLT.ARRAY_VALUE$ -> ARRAY_PRESET_LTS.LAST_OFFSET;
      364     8844
      365     8845    2      DO WHILE ('1'B);
      366     8846
      367     8847             %STEP_OBJ (POINTER = OBJ_LAB$);
      368     8871
      369     8872    3        DO CASE (OBJ_LAB$ -> OBJ.ID);
      370     8873    3          CASE (%ORG, %LAB, %LINE);
      371     8874                 /* OK */
      372     8875
      373     8876    3          CASE (%WORD);
      374     8877
      375     8878    3          IF OBJ_LAB$ -> OBJ_WORD.OFFSET >= LAST_OFFSET THEN
      376     8879    3            RETURN;
      377     8880
      378     8881    3          CASE (ELSE);
      379     8882                 /* MIGHT BE AN ERROR */
      380     8883
      381     8884    3        END; /* DO CASE */
      382     8885    2      END; /* DO WHILE */
      383     8886
      384     8887    1    END Z8IO$PROCESS_ARRAY;
      385     8888
      386     8889        %EOD;

PL6.E3A0      #002=Z8IO$PROCESS_ARRAY File=Z8IO.:Z8A6TSI                         SAT 08/09/97 13:29 Page:56
--  Include file information  --

   Z8A_OBJ.:Z8A6TOU  cannot be made into a system file and is referenced.
   Z8A_LTS.:Z8A6TOU  cannot be made into a system file and is referenced.
   Z8A_QLT.:Z8A6TOU  cannot be made into a system file and is referenced.
   Z8A_ST.:Z8A6TOU  cannot be made into a system file and is referenced.
   X8A_COM_MACS.:X8A6TOU  is referenced.
   Z8A_NAMES.:Z8A6TOU  is referenced.
   Z8A_SUPP_MAC.:Z8A6TOU  is referenced.
   Z8A_DEFC.:Z8A6TOU  cannot be made into a system file and is referenced.
      No diagnostics issued in procedure Z8IO$PROCESS_ARRAY.

   Procedure Z8IO$PROCESS_ARRAY requires 89 words for executable code.
   Procedure Z8IO$PROCESS_ARRAY requires 16 words of local(AUTO) storage.

PL6.E3A0      #002=Z8IO$PROCESS_ARRAY File=Z8IO.:Z8A6TSI                         SAT 08/09/97 13:29 Page:57

 Object Unit name= Z8IO$PROCESS_ARRAY                         File name= Z8IO.:Z8A6TOU
 UTS= AUG 09 '97 13:29:24.80 SAT                              Compiler= PL-6/E31         Sev=      00
 SharedLib= :SHARED_SYSTEM                                    Alt SharedLib=


    ****  Control sections  ****

 Sect   Type Bound  Init  Size OctSiz  Section name(segment info)
    0  LblCom even  none     1      1  ITERATION
    1  LblCom even  none     1      1  ST$
    2  LblCom even  none     5      5  ST_
    3  LblCom even  none     1      1  QLT$
    4  LblCom even  none     1      1  PREV_01_QLT$
    5  LblCom even  none     5      5  QLT_
    6  LblCom even  none     1      1  LTS$
    7  LblCom even  none     5      5  LTS_
    8  LblCom even  none     1      1  OBJ$
    9  LblCom even  none     1      1  PAGING_OBJ
   10  LblCom even  none     1      1  OBJ_PAGE_COUNT
   11  LblCom even  none     1      1  OBJ_FINISHED
   12  LblCom even  none     1      1  OBJ_SEG_SIZE
   13  LblCom even  none     1      1  OBJ_TOP_NEW_SEG
   14  LblCom even  none     1      1  OBJ_LAST_REGULAR_PAGE
   15  LblCom even  none     5      5  OBJ_
   16   Proc  even  none    89    131  Z8IO$PROCESS_ARRAY
   17  RoData even  none     8     10  Z8IO$PROCESS_ARRAY

    ****  Entry defs  ****

                              Check   Calling
                             calling  sequence
  Sect OctLoc Primary Altret sequence   type   Parms  Name
    16      0   yes            yes      Std        2  Z8IO$PROCESS_ARRAY
PL6.E3A0      #002=Z8IO$PROCESS_ARRAY File=Z8IO.:Z8A6TSI                         SAT 08/09/97 13:29 Page:58

  ****  Entry refs  ****

         Check        Calling
        calling       sequence
Altret sequence SRef   type   Args  Name
         yes           Std       2 Z8IO$PRESET_ARRAY
         yes           Std       5 Z8IO$OUTPUT_ARRAY
 yes     yes           Std       0 Z9HF$READ_OBJ_PAGE
         yes           Std       0 Z9HF$CLOSE_OBJ
                       nStd      0 X66_AUTO_2
                       nStd      0 X66_ARET

  ****  Data refs  ****

  Flags:  r = read only, s = secondary
Flgs Name                             Flgs Name                             Flgs Name
r    LTS_STEP                         r    OBJ_STEP

  ****  Segment refs  ****

  Flags:  r = read only, s = secondary
Flgs Name                             Flgs Name                             Flgs Name
     NULLSID                               ISSID
PL6.E3A0      #002=Z8IO$PROCESS_ARRAY File=Z8IO.:Z8A6TSI                         SAT 08/09/97 13:29 Page:59


      322        1        /*T***********************************************************/
      323        2        /*T*                                                         */
      324        3        /*T* Copyright (c) Bull HN Information Systems Inc., 1997    */
      325        4        /*T*                                                         */
      326        5        /*T***********************************************************/
      327        6
      328        7         /*==================*/
      329        8           Z8IO$PROCESS_ARRAY: PROC(OBJ_LAB$,  SECT_NUMBER);

      8 16 000000   000000 700200 xent  Z8IO$PROCES* TSX0  ! X66_AUTO_2
        16 000001   000020 000002                    ZERO    16,2

      330        9         /*==================*/
      331       10
      332       11        %EQU PHASE = 5;
      333       12
      334       13        %INCLUDE Z8A_DEFC;
      335       81        %INCLUDE Z8A_SUPP_MAC;
      336     2481        %INCLUDE Z8A_ST;
      337     6140        %INCLUDE Z8A_QLT;
      338     6246        %INCLUDE Z8A_LTS;
      339     8323        %INCLUDE Z8A_OBJ;
      340     8820
      341     8821
      342     8822    1   DCL SECT_NUMBER    SBIN WORD;
      343     8823    1   DCL OBJ_LAB$       PTR;
      344     8824    1   DCL QLT$$          PTR;
      345     8825    1   DCL LAST_OFFSET    SBIN WORD;
      346     8826
      347     8827    1   DCL Z8IO$PRESET_ARRAY  ENTRY (2);
      348     8828    1   DCL Z8IO$OUTPUT_ARRAY  ENTRY (5);
      349     8829
      350     8830
      351     8831    1      QLT$$ = OBJ_LAB$ -> OBJ_LAB.ST$ -> ARRAY.QLT$;

   8831 16 000002   200003 470500                    LDP0    @OBJ_LAB$,,AUTO
PL6.E3A0      #002=Z8IO$PROCESS_ARRAY File=Z8IO.:Z8A6TSI                         SAT 08/09/97 13:29 Page:60
        16 000003   000000 471500                    LDP1    0,,PR0
        16 000004   100001 473500                    LDP3    1,,PR1
        16 000005   300007 236100                    LDQ     7,,PR3
        16 000006   200005 756100                    STQ     QLT$$,,AUTO

      352     8832
      353     8833    2      DO WHILE (QLT$$ -> QLT.FATHER ~= ADDR(NIL));

   8833 16 000007   000013 710000 16                 TRA     s:8835

      354     8834    2        QLT$$ = QLT$$ -> QLT.FATHER;

   8834 16 000010   200005 470500                    LDP0    QLT$$,,AUTO
        16 000011   000001 236100                    LDQ     1,,PR0
        16 000012   200005 756100                    STQ     QLT$$,,AUTO

      355     8835    2      END;

   8835 16 000013   200005 470500                    LDP0    QLT$$,,AUTO
        16 000014   000001 236100                    LDQ     1,,PR0
        16 000015   000000 116000 17                 CMPQ    0
        16 000016   000010 601000 16                 TNZ     s:8834

      356     8836
      357     8837    1      CALL Z8IO$PRESET_ARRAY (QLT$$ -> QLT.SON, SECT_NUMBER);

   8837 16 000017   200004 236100                    LDQ     @SECT_NUMBER,,AUTO
        16 000020   200011 756100                    STQ     LAST_OFFSET+3,,AUTO
        16 000021   200005 236100                    LDQ     QLT$$,,AUTO
        16 000022   000003 036003                    ADLQ    3,DU
        16 000023   200010 756100                    STQ     LAST_OFFSET+2,,AUTO
        16 000024   200010 630500                    EPPR0   LAST_OFFSET+2,,AUTO
        16 000025   000001 631400 17                 EPPR1   1
        16 000026   000000 701000 xent               TSX1    Z8IO$PRESET_ARRAY
        16 000027   000000 011000                    NOP     0

      358     8838
PL6.E3A0      #002=Z8IO$PROCESS_ARRAY File=Z8IO.:Z8A6TSI                         SAT 08/09/97 13:29 Page:61
      359     8839           /* Flush out the buffer */
      360     8840
      361     8841    1      CALL Z8IO$OUTPUT_ARRAY (ADDR(NIL), ADDR(NIL), -1, 0, SECT_NUMBER);

   8841 16 000030   000000 236000 17                 LDQ     0
        16 000031   200010 756100                    STQ     LAST_OFFSET+2,,AUTO
        16 000032   200011 756100                    STQ     LAST_OFFSET+3,,AUTO
        16 000033   200004 236100                    LDQ     @SECT_NUMBER,,AUTO
        16 000034   200016 756100                    STQ     LAST_OFFSET+8,,AUTO
        16 000035   000006 237000 17                 LDAQ    6
        16 000036   200014 757100                    STAQ    LAST_OFFSET+6,,AUTO
        16 000037   200011 630500                    EPPR0   LAST_OFFSET+3,,AUTO
        16 000040   200013 450500                    STP0    LAST_OFFSET+5,,AUTO
        16 000041   200010 631500                    EPPR1   LAST_OFFSET+2,,AUTO
        16 000042   200012 451500                    STP1    LAST_OFFSET+4,,AUTO
        16 000043   200012 630500                    EPPR0   LAST_OFFSET+4,,AUTO
        16 000044   000002 631400 17                 EPPR1   2
        16 000045   000000 701000 xent               TSX1    Z8IO$OUTPUT_ARRAY
        16 000046   000000 011000                    NOP     0

      362     8842
      363     8843    1      LAST_OFFSET = QLT$$ -> QLT.ARRAY_VALUE$ -> ARRAY_PRESET_LTS.LAST_OFFSET;

   8843 16 000047   200005 470500                    LDP0    QLT$$,,AUTO
        16 000050   000005 471500                    LDP1    5,,PR0
        16 000051   100004 235100                    LDA     4,,PR1
        16 000052   200006 755100                    STA     LAST_OFFSET,,AUTO

      364     8844
      365     8845    2      DO WHILE ('1'B);

      366     8846
      367     8847             %STEP_OBJ (POINTER = OBJ_LAB$);

   8849 16 000053   200003 470500                    LDP0    @OBJ_LAB$,,AUTO
        16 000054   000000 471500                    LDP1    0,,PR0
        16 000055   100000 220100                    LDX0    0,,PR1
PL6.E3A0      #002=Z8IO$PROCESS_ARRAY File=Z8IO.:Z8A6TSI                         SAT 08/09/97 13:29 Page:62
        16 000056   776770 721010 xsym               LXL1    OBJ_STEP-520,X0
        16 000057   100000 633511                    EPPR3   0,X1,PR1
        16 000060   000000 453500                    STP3    0,,PR0

   8850 16 000061   300000 220100                    LDX0    0,,PR3
        16 000062   000115 601000 16                 TNZ     s:8872

   8852 16 000063   000000 234000 9                  SZN     PAGING_OBJ
        16 000064   000103 605000 16                 TPL     s:8864

   8854 16 000065   000004 631400 17                 EPPR1   4
        16 000066   000000 701000 xent               TSX1    Z9HF$READ_OBJ_PAGE
        16 000067   000074 702000 16                 TSX2    s:8859

   8856 16 000070   000001 236000 15                 LDQ     OBJ_+1
        16 000071   200003 470500                    LDP0    @OBJ_LAB$,,AUTO
        16 000072   000000 756100                    STQ     0,,PR0

   8857 16 000073   000102 710000 16                 TRA     s:8862

   8859 16 000074   000004 631400 17                 EPPR1   4
        16 000075   000000 701000 xent               TSX1    Z9HF$CLOSE_OBJ
        16 000076   000000 011000                    NOP     0

   8860 16 000077   000000 236000 17                 LDQ     0
        16 000100   200003 470500                    LDP0    @OBJ_LAB$,,AUTO
        16 000101   000000 756100                    STQ     0,,PR0

   8862 16 000102   000115 710000 16                 TRA     s:8872

   8864 16 000103   000002 236000 15                 LDQ     OBJ_+2
        16 000104   000022 736000                    QLS     18
        16 000105   000001 036000 15                 ADLQ    OBJ_+1
        16 000106   000000 116100                    CMPQ    0,,PR0
        16 000107   000113 601000 16                 TNZ     s:8867

   8865 16 000110   000000 236000 17                 LDQ     0
PL6.E3A0      #002=Z8IO$PROCESS_ARRAY File=Z8IO.:Z8A6TSI                         SAT 08/09/97 13:29 Page:63
        16 000111   000000 756100                    STQ     0,,PR0
        16 000112   000115 710000 16                 TRA     s:8872

   8867 16 000113   300001 236100                    LDQ     1,,PR3
        16 000114   000000 756100                    STQ     0,,PR0

      368     8871
      369     8872    3        DO CASE (OBJ_LAB$ -> OBJ.ID);

   8872 16 000115   000000 471500                    LDP1    0,,PR0
        16 000116   100000 236100                    LDQ     0,,PR1
        16 000117   000022 772000                    QRL     18
        16 000120   001012 136007                    SBLQ    522,DL
        16 000121   000001 116007                    CMPQ    1,DL
        16 000122   000124 602006 16                 TNC     s:8872+7,QL
        16 000123   000053 710000 16                 TRA     s:8849
        16 000124   000125 710000 16                 TRA     s:8878

      370     8873    3          CASE (%ORG, %LAB, %LINE);

      371     8874                 /* OK */
      372     8875
      373     8876    3          CASE (%WORD);

      374     8877
      375     8878    3          IF OBJ_LAB$ -> OBJ_WORD.OFFSET >= LAST_OFFSET THEN

   8878 16 000125   100001 236100                    LDQ     1,,PR1
        16 000126   200006 116100                    CMPQ    LAST_OFFSET,,AUTO
        16 000127   000053 604000 16                 TMI     s:8849

      376     8879    3            RETURN;

   8879 16 000130   000000 702200 xent               TSX2  ! X66_ARET
      377     8880
      378     8881    3          CASE (ELSE);
      379     8882                 /* MIGHT BE AN ERROR */
PL6.E3A0      #002=Z8IO$PROCESS_ARRAY File=Z8IO.:Z8A6TSI                         SAT 08/09/97 13:29 Page:64
      380     8883
      381     8884    3        END; /* DO CASE */
      382     8885    2      END; /* DO WHILE */
      383     8886
      384     8887    1    END Z8IO$PROCESS_ARRAY;
      385     8888
      386     8889        %EOD;

PL6.E3A0      #002=Z8IO$PROCESS_ARRAY File=Z8IO.:Z8A6TSI                         SAT 08/09/97 13:29 Page:65
--  Include file information  --

   Z8A_OBJ.:Z8A6TOU  cannot be made into a system file and is referenced.
   Z8A_LTS.:Z8A6TOU  cannot be made into a system file and is referenced.
   Z8A_QLT.:Z8A6TOU  cannot be made into a system file and is referenced.
   Z8A_ST.:Z8A6TOU  cannot be made into a system file and is referenced.
   X8A_COM_MACS.:X8A6TOU  is referenced.
   Z8A_NAMES.:Z8A6TOU  is referenced.
   Z8A_SUPP_MAC.:Z8A6TOU  is referenced.
   Z8A_DEFC.:Z8A6TOU  cannot be made into a system file and is referenced.
      No diagnostics issued in procedure Z8IO$PROCESS_ARRAY.
PL6.E3A0      #002=Z8IO$PROCESS_ARRAY File=Z8IO.:Z8A6TSI                         SAT 08/09/97 13:29 Page:66

 **** Variables and constants ****

  ****  Section 000 LblCom ITERATION

  ****  Scalars and arrays  ****
OctLoc.c.b A Datatyp(siz) R M Lvl/name                 OctLoc.c.b A Datatyp(siz) R M Lvl/name

     0-0-0/w SBIN              1 ITERATION

  ****  Section 001 LblCom ST$

  ****  Scalars and arrays  ****
OctLoc.c.b A Datatyp(siz) R M Lvl/name                 OctLoc.c.b A Datatyp(siz) R M Lvl/name

     0-0-0/w PTR         r     1 ST$

  ****  Section 002 LblCom ST_

  ****  Scalars and arrays  ****
OctLoc.c.b A Datatyp(siz) R M Lvl/name                 OctLoc.c.b A Datatyp(siz) R M Lvl/name

     0-0-0/w STRC(180)         1 ST_

  ****  Section 003 LblCom QLT$

  ****  Scalars and arrays  ****
OctLoc.c.b A Datatyp(siz) R M Lvl/name                 OctLoc.c.b A Datatyp(siz) R M Lvl/name

     0-0-0/w PTR         r     1 QLT$

  ****  Section 004 LblCom PREV_01_QLT$

  ****  Scalars and arrays  ****
OctLoc.c.b A Datatyp(siz) R M Lvl/name                 OctLoc.c.b A Datatyp(siz) R M Lvl/name

     0-0-0/w PTR               1 PREV_01_QLT$

PL6.E3A0      #002=Z8IO$PROCESS_ARRAY File=Z8IO.:Z8A6TSI                         SAT 08/09/97 13:29 Page:67
  ****  Section 005 LblCom QLT_

  ****  Scalars and arrays  ****
OctLoc.c.b A Datatyp(siz) R M Lvl/name                 OctLoc.c.b A Datatyp(siz) R M Lvl/name

     0-0-0/w STRC(180)         1 QLT_

  ****  Section 006 LblCom LTS$

  ****  Scalars and arrays  ****
OctLoc.c.b A Datatyp(siz) R M Lvl/name                 OctLoc.c.b A Datatyp(siz) R M Lvl/name

     0-0-0/w PTR               1 LONG_ITEM$                 0-0-0/w PTR         r     1 LTS$

  ****  Section 007 LblCom LTS_

  ****  Scalars and arrays  ****
OctLoc.c.b A Datatyp(siz) R M Lvl/name                 OctLoc.c.b A Datatyp(siz) R M Lvl/name

     0-0-0/w STRC(180)         1 LTS_

  ****  Section 008 LblCom OBJ$

  ****  Scalars and arrays  ****
OctLoc.c.b A Datatyp(siz) R M Lvl/name                 OctLoc.c.b A Datatyp(siz) R M Lvl/name

     0-0-0/w PTR         r     1 OBJ$

  ****  Section 009 LblCom PAGING_OBJ

  ****  Scalars and arrays  ****
OctLoc.c.b A Datatyp(siz) R M Lvl/name                 OctLoc.c.b A Datatyp(siz) R M Lvl/name

     0-0-0/w BIT         r     1 PAGING_OBJ

  ****  Section 010 LblCom OBJ_PAGE_COUNT

PL6.E3A0      #002=Z8IO$PROCESS_ARRAY File=Z8IO.:Z8A6TSI                         SAT 08/09/97 13:29 Page:68
  ****  Scalars and arrays  ****
OctLoc.c.b A Datatyp(siz) R M Lvl/name                 OctLoc.c.b A Datatyp(siz) R M Lvl/name

     0-0-0/w SBIN              1 OBJ_PAGE_COUNT

  ****  Section 011 LblCom OBJ_FINISHED

  ****  Scalars and arrays  ****
OctLoc.c.b A Datatyp(siz) R M Lvl/name                 OctLoc.c.b A Datatyp(siz) R M Lvl/name

     0-0-0/w BIT               1 OBJ_FINISHED

  ****  Section 012 LblCom OBJ_SEG_SIZE

  ****  Scalars and arrays  ****
OctLoc.c.b A Datatyp(siz) R M Lvl/name                 OctLoc.c.b A Datatyp(siz) R M Lvl/name

     0-0-0/w SBIN              1 OBJ_SEG_SIZE

  ****  Section 013 LblCom OBJ_TOP_NEW_SEG

  ****  Scalars and arrays  ****
OctLoc.c.b A Datatyp(siz) R M Lvl/name                 OctLoc.c.b A Datatyp(siz) R M Lvl/name

     0-0-0/w PTR               1 OBJ_TOP_NEW_SEG

  ****  Section 014 LblCom OBJ_LAST_REGULAR_PAGE

  ****  Scalars and arrays  ****
OctLoc.c.b A Datatyp(siz) R M Lvl/name                 OctLoc.c.b A Datatyp(siz) R M Lvl/name

     0-0-0/w PTR               1 OBJ_LAST_REGULAR_PAGE

  ****  Section 015 LblCom OBJ_

  ****  Scalars and arrays  ****
OctLoc.c.b A Datatyp(siz) R M Lvl/name                 OctLoc.c.b A Datatyp(siz) R M Lvl/name
PL6.E3A0      #002=Z8IO$PROCESS_ARRAY File=Z8IO.:Z8A6TSI                         SAT 08/09/97 13:29 Page:69

     0-0-0/w STRC(180)   r     1 OBJ_

  ****  Auto variables  ****

  ****  Scalars and arrays  ****
OctLoc.c.b A Datatyp(siz) R M Lvl/name                 OctLoc.c.b A Datatyp(siz) R M Lvl/name

     3-0-0/w PTR         r     1 @OBJ_LAB$                  4-0-0/w PTR         r     1 @SECT_NUMBER
     6-0-0/w SBIN        r     1 LAST_OFFSET               *0-0-0/w PTR         r     1 OBJ_LAB$
     5-0-0/w PTR         r     1 QLT$$                     *0-0-0/w SBIN        r     1 SECT_NUMBER

  ****  SYMREF variables  ****

  ****  Scalars and arrays  ****
OctLoc.c.b A Datatyp(siz) R M Lvl/name                 OctLoc.c.b A Datatyp(siz) R M Lvl/name

     0-0-0/w UBIN              1 LTS_STEP(0:37)
     0-0-0/w UBIN        r     1 OBJ_STEP(0:4)

  ****  BASED and DCB variables  ****

  ****  Scalars and arrays  ****
OctLoc.c.b A Datatyp(siz) R M Lvl/name                 OctLoc.c.b A Datatyp(siz) R M Lvl/name

     0-0-0/w STRC(396)         1 ALPHABET                   0-0-0/w STRC(144)         1 ALTER_LTS
     0-0-0/w STRC(3672)        1 ALT_KEY                    0-0-0/w STRC(36864)       1 ARGLIST
     0-0-0/w STRC(396)   r     1 ARRAY                      0-0-0/w STRC(180)   r     1 ARRAY_PRESET_LTS
     0-0-0/w STRC(288)         1 BASE_LTS                   0-0-0/w STRC(396)         1 BLOCK
     0-0-0/w STRC(144)         1 BT                         0-0-0/w STRC(396)         1 CD
     0-0-0/w STRC(288)         1 CD_LTS                     0-0-0/w CHAR(4096)        1 CHARS
     0-0-0/w STRC(396)         1 CLASS                      0-0-0/w STRC(396)         1 CONDITION
     0-0-0/w STRC(396)         1 CONST                      0-0-0/w STRC(72)    r     1 CONT
     0-0-0/w STRC(540)         1 CONTROL_NAME_LTS           0-0-0/w STRC(1872)        1 COPY_FILE
     0-0-0/w STRC(396)         1 DB                         0-0-0/w STRC(396)         1 DCB_
     0-0-0/w STRC(108)         1 DEPENDING_SIZE             0-0-0/w STRC(5472)        1 DIMS
     0-0-0/w STRC(396)         1 DML_ITEM                   0-0-0/w STRC(216)         1 DML_REC
PL6.E3A0      #002=Z8IO$PROCESS_ARRAY File=Z8IO.:Z8A6TSI                         SAT 08/09/97 13:29 Page:70
     0-0-0/w STRC(73836)       1 EVALUATE                   0-0-0/w STRC(396)         1 FD
     0-0-0/w STRC(1692)        1 FILE_LTS                   0-0-0/w STRC(108)         1 INDEXES
     0-0-0/w STRC(360)         1 INIT_LTS                   0-0-0/w STRC(396)         1 INTDEF
     0-0-0/w STRC(180)         1 IO_RESTORE_CHAIN           0-0-0/w STRC(144)         1 KEY
     0-0-0/w STRC(396)         1 LABEL                      0-0-0/w STRC(36864)       1 LCNST
     0-0-0/w STRC(72)          1 LONG                       0-0-0/w STRC              1 LTS
     0-0-0/w STRC(360)         1 LTSS                       0-0-0/w STRC(36936)       1 LTS_PTR_ARRAY
     0-0-0/w STRC(396)         1 MNEMONIC                   0-0-0/w STRC(144)         1 NEL
     0-0-0/w STRC        r     1 OBJ                        0-0-0/w STRC(72)    r     1 OBJ_LAB
     0-0-0/w STRC(108)         1 OBJ_LINE                   0-0-0/w STRC(72)          1 OBJ_ORG
     0-0-0/w STRC(72)          1 OBJ_SCOPE                  0-0-0/w STRC(144)   r     1 OBJ_WORD
     0-0-0/w STRC(216)         1 OPEN_LTS                   0-0-0/w STRC(36864)       1 PAGE
     0-0-0/w STRC(396)         1 PARA                       0-0-0/w STRC(144)         1 PRIME
     0-0-0/w STRC(396)         1 PROC_                      0-0-0/w STRC(396)         1 PROC_DEF
     0-0-0/w STRC(900)         1 PROC_SUPP                  0-0-0/w STRC(216)   r     1 QLT
     0-0-0/w STRC(396)         1 RD                         0-0-0/w STRC(216)         1 REF
     0-0-0/w STRC(108)         1 RENAMES                    0-0-0/w STRC(720)         1 REPORT_01_LTS
     0-0-0/w STRC(432)         1 REPORT_ELEM_LTS            0-0-0/w STRC(252)         1 REPORT_GRP_LTS
     0-0-0/w STRC(1332)        1 REPORT_LTS                 0-0-0/w STRC(144)         1 RVA_LTS
     0-0-0/w STRC(396)         1 SCALAR                     0-0-0/w STRC(396)         1 SD
     0-0-0/w STRC(396)         1 SECTION                    0-0-0/w STRC(396)         1 SEGMENT
     0-0-0/w STRC(360)         1 SEGMENT_LTS                0-0-0/w STRC(396)         1 ST
     0-0-0/w STRC(252)         1 SUM_LTS                    0-0-0/w STRC(396)         1 SWITCH
     0-0-0/w STRC(396)         1 SYMBOLIC_CHAR              0-0-0/w STRC(396)         1 SYMDEF_
     0-0-0/w STRC(396)         1 SYMREF_                    0-0-0/w STRC(396)         1 TEMP
     0-0-0/d STRC(612)         1 USE                        0-0-0/w STRC(252)         1 USE_SUPP
     0-0-0/w STRC(396)         1 VARIABLE


   Procedure Z8IO$PROCESS_ARRAY requires 89 words for executable code.
   Procedure Z8IO$PROCESS_ARRAY requires 16 words of local(AUTO) storage.

PL6.E3A0      #003=Z8IO$PRESET_ARRAY File=Z8IO.:Z8A6TSI                          SAT 08/09/97 13:30 Page:71
      387        1        /*T***********************************************************/
      388        2        /*T*                                                         */
      389        3        /*T* Copyright (c) Bull HN Information Systems Inc., 1997    */
      390        4        /*T*                                                         */
      391        5        /*T***********************************************************/
      392        6
      393        7         /*=================*/
      394        8           Z8IO$PRESET_ARRAY: PROC (NODE$, SECT_NUMBER);
      395        9         /*=================*/
      396       10
      397       11        %EQU PHASE = 5;
      398       12
      399       13        %INCLUDE Z8A_DEFC;
      400       81        %INCLUDE Z8A_SUPP_MAC;
      401     2481        %INCLUDE Z8A_TYPES;
      402     2655        %INCLUDE Z8A_ST;
      403     6314        %INCLUDE Z8A_QLT;
      404     6420        %INCLUDE Z8A_LTS;
      405     8497
      406     8498
      407     8499    1   DCL NODE$      PTR;
      408     8500    1   DCL SECT_NUMBER    SBIN WORD;
      409     8501    1   DCL QLT$$          PTR;
      410     8502    1   DCL U_INDEX  (0 : 49) SBIN WORD STATIC;
      411     8503    1   DCL ST$$           PTR;
      412     8504    1   DCL DIMS_LTS$      PTR;
      413     8505    1   DCL DIM#           SBIN WORD;
      414     8506    1   DCL NO_DIMS#       SBIN WORD;
      415     8507    1   DCL OFFSET         SBIN WORD;
      416     8508    1   DCL I              SBIN WORD;
      417     8509    1   DCL J              SBIN WORD;
      418     8510    1   DCL ACTUAL_SA      SBIN WORD;
      419     8511    1   DCL ACTUAL_CN      SBIN WORD;
      420     8512
      421     8513    1   DCL Z8IO$OUTPUT_ARRAY  ENTRY (5);
      422     8514
      423     8515
PL6.E3A0      #003=Z8IO$PRESET_ARRAY File=Z8IO.:Z8A6TSI                          SAT 08/09/97 13:30 Page:72
      424     8516        %EJECT;
PL6.E3A0      #003=Z8IO$PRESET_ARRAY File=Z8IO.:Z8A6TSI                          SAT 08/09/97 13:30 Page:73
      425     8517
      426     8518         /*====================*/
      427     8519    1      PROCESS_ARRAY_VALUED:  PROC;
      428     8520         /*====================*/
      429     8521
      430     8522
      431     8523    2      IF ST$$ -> ST.ID = %ARRAY THEN
      432     8524    3        DO;   /* calculate the actual offset */
      433     8525    3          OFFSET = - DIMS_LTS$ -> DIMS.OD.TOTAL_SPAN;
      434     8526
      435     8527    4          DO J = 1 TO NO_DIMS#;
      436     8528    4            OFFSET = OFFSET + (DIMS_LTS$ -> DIMS.D.SPAN(J) * U_INDEX(J));
      437     8529    4          END;
      438     8530
      439     8531                   /* calculate the SA, CN */
      440     8532
      441     8533    4          DO CASE (ST$$ -> ST.TYPE);
      442     8534    4            CASE (%TYI, %TYR, %TYQ, %TYX, %TYP);
      443     8535
      444     8536    4              ACTUAL_SA = OFFSET + QLT$$ -> QLT.ST$ -> ST.SA;
      445     8537
      446     8538    4            CASE (%TYD);
      447     8539
      448     8540    4              IF ST$$ -> VARIABLE.NDSC.TN THEN
      449     8541    5                DO;
      450     8542    5                  OFFSET = OFFSET + ST$$ -> ST.NDSC.CN;
      451     8543    5                  ACTUAL_SA = ST$$ -> ST.SA + OFFSET/8 ;
      452     8544    5                  ACTUAL_CN = MOD(OFFSET, 8);
      453     8545    5                END;
      454     8546    4              ELSE
      455     8547    5                DO;
      456     8548    5                  OFFSET = OFFSET + ST$$ -> ST.ADSC.CN;
      457     8549    5                  ACTUAL_SA = ST$$ -> ST.SA + OFFSET/4 ;
      458     8550    5                  ACTUAL_CN = (MOD(OFFSET, 4)) * 2;   /*#29692*/
      459     8551    5                END;
      460     8552
      461     8553    4            CASE (%TYB, %TYC);
PL6.E3A0      #003=Z8IO$PRESET_ARRAY File=Z8IO.:Z8A6TSI                          SAT 08/09/97 13:30 Page:74
      462     8554
      463     8555    4              OFFSET = OFFSET + ST$$ -> ST.NDSC.CN;
      464     8556    4              ACTUAL_SA = ST$$ -> ST.SA + OFFSET/6;
      465     8557    4              ACTUAL_CN = MOD(OFFSET, 6);
      466     8558
      467     8559    4            CASE (%TYF);
      468     8560
      469     8561    4              OFFSET = OFFSET + ST$$ -> ST.ADSC.CN;
      470     8562    4              ACTUAL_SA = ST$$ -> ST.SA + OFFSET/4 ;
      471     8563    4              ACTUAL_CN = (MOD(OFFSET, 4)) * 2;   /*#29692*/
      472     8564
      473     8565    4            CASE (ELSE);
      474     8566
      475     8567    4              OFFSET = OFFSET + ST$$ -> ST.ADSC.CN;
      476     8568    4              ACTUAL_SA = ST$$ -> ST.SA + OFFSET/4 ;
      477     8569    4              ACTUAL_CN = MOD(OFFSET, 4);
      478     8570
      479     8571    4          END; /* DO CASE */
      480     8572    3        END; /* IF ... %ARRAY */
      481     8573    2      ELSE  /* not an array */
      482     8574    3        DO;
      483     8575    3          ACTUAL_SA = ST$$ -> ST.SA ;
      484     8576
      485     8577    4          DO CASE (ST$$ -> ST.TYPE);
      486     8578    4            CASE (%TYD, %TYF, %TYB, %TYC);
      487     8579    4              ACTUAL_CN = ST$$ -> ST.NDSC.CN ;
      488     8580    4            CASE (ELSE);
      489     8581    4              ACTUAL_CN = ST$$ -> ST.ADSC.CN ;
      490     8582    4          END;
      491     8583
      492     8584    3        END;
      493     8585
      494     8586    2        CALL Z8IO$OUTPUT_ARRAY (QLT$$, ST$$, ACTUAL_SA, ACTUAL_CN, SECT_NUMBER);
      495     8587
      496     8588    2    END PROCESS_ARRAY_VALUED;
      497     8589        %EJECT;
PL6.E3A0      #003=Z8IO$PRESET_ARRAY File=Z8IO.:Z8A6TSI                          SAT 08/09/97 13:30 Page:75
      498     8590
      499     8591
      500     8592               /* main program */
      501     8593
      502     8594    1      QLT$$ = NODE$;
      503     8595
      504     8596    2      DO WHILE (QLT$$ ~= ADDR(NIL));
      505     8597
      506     8598    2        ST$$ = QLT$$ -> QLT.ST$;
      507     8599
      508     8600    2        IF ST$$ -> ST.ID = %ARRAY THEN
      509     8601    3          DO;
      510     8602                 %GET_LTS (@ID = %DIMS,
      511     8603                           @ST$ = ST$$,
      512     8604                           @RETURN$ = DIMS_LTS$);
      513     8647
      514     8648                 %FIND_LAST_DIM (POINTER = DIMS_LTS$,
      515     8649                                 VARIABLE = NO_DIMS#);
      516     8654
      517     8655    3          END;
      518     8656
      519     8657    2        IF QLT$$ -> QLT.B.OCCURS THEN
      520     8658    3          DO;
      521     8659    3            DIM# = DIMS_LTS$ -> DIMS.D.DIM(NO_DIMS#);
      522     8660
      523     8661    4            DO I = 1 TO DIM#;
      524     8662
      525     8663    4              U_INDEX(NO_DIMS#) = I;
      526     8664
      527     8665    4              IF QLT$$ -> QLT.B.ARRAY_VALUED THEN
      528     8666    4                CALL PROCESS_ARRAY_VALUED;
      529     8667    4              ELSE
      530     8668    4                CALL Z8IO$PRESET_ARRAY (QLT$$ -> QLT.SON, SECT_NUMBER);
      531     8669
      532     8670    4            END;
      533     8671    3          END;
      534     8672    2        ELSE
PL6.E3A0      #003=Z8IO$PRESET_ARRAY File=Z8IO.:Z8A6TSI                          SAT 08/09/97 13:30 Page:76
      535     8673    3          DO;
      536     8674    3            IF QLT$$ -> QLT.B.ARRAY_VALUED THEN
      537     8675    3              CALL PROCESS_ARRAY_VALUED;
      538     8676    3            ELSE
      539     8677    3              IF NOT ST$$ -> ARRAY.B.ELEMENTARY THEN
      540     8678    3                CALL Z8IO$PRESET_ARRAY (QLT$$ -> QLT.SON, SECT_NUMBER);
      541     8679    3          END;
      542     8680
      543     8681    2        QLT$$ = QLT$$ -> QLT.BROTHER;
      544     8682
      545     8683    2      END;   /* DO WHILE */
      546     8684
      547     8685    1    END Z8IO$PRESET_ARRAY;
      548     8686

PL6.E3A0      #003=Z8IO$PRESET_ARRAY File=Z8IO.:Z8A6TSI                          SAT 08/09/97 13:30 Page:77
--  Include file information  --

   Z8A_LTS.:Z8A6TOU  cannot be made into a system file and is referenced.
   Z8A_QLT.:Z8A6TOU  cannot be made into a system file and is referenced.
   Z8A_ST.:Z8A6TOU  cannot be made into a system file and is referenced.
   Z8A_TYPES.:Z8A6TOU  is referenced.
   X8A_COM_MACS.:X8A6TOU  is referenced.
   Z8A_NAMES.:Z8A6TOU  is referenced.
   Z8A_SUPP_MAC.:Z8A6TOU  is referenced.
   Z8A_DEFC.:Z8A6TOU  cannot be made into a system file and is referenced.
      No diagnostics issued in procedure Z8IO$PRESET_ARRAY.

   Procedure Z8IO$PRESET_ARRAY requires 296 words for executable code.
   Procedure Z8IO$PRESET_ARRAY requires 24 words of local(AUTO) storage.

    No errors detected in file Z8IO.:Z8A6TSI    .

PL6.E3A0      #003=Z8IO$PRESET_ARRAY File=Z8IO.:Z8A6TSI                          SAT 08/09/97 13:30 Page:78

 Object Unit name= Z8IO$PRESET_ARRAY                          File name= Z8IO.:Z8A6TOU
 UTS= AUG 09 '97 13:30:31.48 SAT                              Compiler= PL-6/E31         Sev=      00
 SharedLib= :SHARED_SYSTEM                                    Alt SharedLib=


    ****  Control sections  ****

 Sect   Type Bound  Init  Size OctSiz  Section name(segment info)
    0  LblCom even  none     1      1  ITERATION
    1  LblCom even  none     1      1  ST$
    2  LblCom even  none     5      5  ST_
    3  LblCom even  none     1      1  QLT$
    4  LblCom even  none     1      1  PREV_01_QLT$
    5  LblCom even  none     5      5  QLT_
    6  LblCom even  none     1      1  LTS$
    7  LblCom even  none     5      5  LTS_
    8   Data  even  none    50     62  Z8IO$PRESET_ARRAY
    9   Proc  even  none   296    450  Z8IO$PRESET_ARRAY
   10  RoData even  none     3      3  Z8IO$PRESET_ARRAY

    ****  Entry defs  ****

                              Check   Calling
                             calling  sequence
  Sect OctLoc Primary Altret sequence   type   Parms  Name
     9      0   yes            yes      Std        2  Z8IO$PRESET_ARRAY

  ****  Entry refs  ****

         Check        Calling
        calling       sequence
Altret sequence SRef   type   Args  Name
         yes           Std       5 Z8IO$OUTPUT_ARRAY
                       nStd      0 X66_AUTO_2
                       nStd      0 X66_ARET
PL6.E3A0      #003=Z8IO$PRESET_ARRAY File=Z8IO.:Z8A6TSI                          SAT 08/09/97 13:30 Page:79

  ****  Data refs  ****

  Flags:  r = read only, s = secondary
Flgs Name                             Flgs Name                             Flgs Name
r    LTS_STEP

  ****  Segment refs  ****

  Flags:  r = read only, s = secondary
Flgs Name                             Flgs Name                             Flgs Name
     NULLSID
PL6.E3A0      #003=Z8IO$PRESET_ARRAY File=Z8IO.:Z8A6TSI                          SAT 08/09/97 13:30 Page:80


      387        1        /*T***********************************************************/
      388        2        /*T*                                                         */
      389        3        /*T* Copyright (c) Bull HN Information Systems Inc., 1997    */
      390        4        /*T*                                                         */
      391        5        /*T***********************************************************/
      392        6
      393        7         /*=================*/
      394        8           Z8IO$PRESET_ARRAY: PROC (NODE$, SECT_NUMBER);

      8  9 000000   000000 700200 xent  Z8IO$PRESET* TSX0  ! X66_AUTO_2
         9 000001   000030 000002                    ZERO    24,2
         9 000002   000311 710000 9                  TRA     s:8594

      395        9         /*=================*/
      396       10
      397       11        %EQU PHASE = 5;
      398       12
      399       13        %INCLUDE Z8A_DEFC;
      400       81        %INCLUDE Z8A_SUPP_MAC;
      401     2481        %INCLUDE Z8A_TYPES;
      402     2655        %INCLUDE Z8A_ST;
      403     6314        %INCLUDE Z8A_QLT;
      404     6420        %INCLUDE Z8A_LTS;
      405     8497
      406     8498
      407     8499    1   DCL NODE$      PTR;
      408     8500    1   DCL SECT_NUMBER    SBIN WORD;
      409     8501    1   DCL QLT$$          PTR;
      410     8502    1   DCL U_INDEX  (0 : 49) SBIN WORD STATIC;
      411     8503    1   DCL ST$$           PTR;
      412     8504    1   DCL DIMS_LTS$      PTR;
      413     8505    1   DCL DIM#           SBIN WORD;
      414     8506    1   DCL NO_DIMS#       SBIN WORD;
      415     8507    1   DCL OFFSET         SBIN WORD;
      416     8508    1   DCL I              SBIN WORD;
      417     8509    1   DCL J              SBIN WORD;
PL6.E3A0      #003=Z8IO$PRESET_ARRAY File=Z8IO.:Z8A6TSI                          SAT 08/09/97 13:30 Page:81
      418     8510    1   DCL ACTUAL_SA      SBIN WORD;
      419     8511    1   DCL ACTUAL_CN      SBIN WORD;
      420     8512
      421     8513    1   DCL Z8IO$OUTPUT_ARRAY  ENTRY (5);
      422     8514
      423     8515
      424     8516        %EJECT;
PL6.E3A0      #003=Z8IO$PRESET_ARRAY File=Z8IO.:Z8A6TSI                          SAT 08/09/97 13:30 Page:82
      425     8517
      426     8518         /*====================*/
      427     8519    1      PROCESS_ARRAY_VALUED:  PROC;

   8519  9 000003   200020 741300       PROCESS_ARR* STX1  ! ACTUAL_CN+2,,AUTO

      428     8520         /*====================*/
      429     8521
      430     8522
      431     8523    2      IF ST$$ -> ST.ID = %ARRAY THEN

   8523  9 000004   200006 470500                    LDP0    ST$$,,AUTO
         9 000005   000000 220100                    LDX0    0,,PR0
         9 000006   000765 100003                    CMPX0   501,DU
         9 000007   000225 601000 9                  TNZ     s:8575

      432     8524    3        DO;   /* calculate the actual offset */

      433     8525    3          OFFSET = - DIMS_LTS$ -> DIMS.OD.TOTAL_SPAN;

   8525  9 000010   200007 471500                    LDP1    DIMS_LTS$,,AUTO
         9 000011   100004 235100                    LDA     4,,PR1
         9 000012   000000 531000                    NEG     0
         9 000013   200012 755100                    STA     OFFSET,,AUTO

      434     8526
      435     8527    4          DO J = 1 TO NO_DIMS#;

   8527  9 000014   000001 236007                    LDQ     1,DL
         9 000015   200014 756100                    STQ     J,,AUTO
         9 000016   000030 710000 9                  TRA     s:8529+1

      436     8528    4            OFFSET = OFFSET + (DIMS_LTS$ -> DIMS.D.SPAN(J) * U_INDEX(J));

   8528  9 000017   200014 720100                    LXL0    J,,AUTO
         9 000020   200014 236100                    LDQ     J,,AUTO
         9 000021   000003 402007                    MPY     3,DL
PL6.E3A0      #003=Z8IO$PRESET_ARRAY File=Z8IO.:Z8A6TSI                          SAT 08/09/97 13:30 Page:83
         9 000022   200007 470500                    LDP0    DIMS_LTS$,,AUTO
         9 000023   000002 236106                    LDQ     2,QL,PR0
         9 000024   000000 402010 8                  MPY     U_INDEX,X0
         9 000025   200012 036100                    ADLQ    OFFSET,,AUTO
         9 000026   200012 756100                    STQ     OFFSET,,AUTO

      437     8529    4          END;

   8529  9 000027   200014 054100                    AOS     J,,AUTO
         9 000030   200014 236100                    LDQ     J,,AUTO
         9 000031   200011 116100                    CMPQ    NO_DIMS#,,AUTO
         9 000032   000017 604400 9                  TMOZ    s:8528

      438     8530
      439     8531                   /* calculate the SA, CN */
      440     8532
      441     8533    4          DO CASE (ST$$ -> ST.TYPE);

   8533  9 000033   200006 470500                    LDP0    ST$$,,AUTO
         9 000034   000002 220100                    LDX0    2,,PR0
         9 000035   000024 100003                    CMPX0   20,DU
         9 000036   000040 602010 9                  TNC     s:8533+5,X0
         9 000037   000204 710000 9                  TRA     s:8567
         9 000040   000073 710000 9                  TRA     s:8540
         9 000041   000064 710000 9                  TRA     s:8536
         9 000042   000204 710000 9                  TRA     s:8567
         9 000043   000204 710000 9                  TRA     s:8567
         9 000044   000064 710000 9                  TRA     s:8536
         9 000045   000064 710000 9                  TRA     s:8536
         9 000046   000204 710000 9                  TRA     s:8567
         9 000047   000204 710000 9                  TRA     s:8567
         9 000050   000204 710000 9                  TRA     s:8567
         9 000051   000064 710000 9                  TRA     s:8536
         9 000052   000204 710000 9                  TRA     s:8567
         9 000053   000162 710000 9                  TRA     s:8561
         9 000054   000141 710000 9                  TRA     s:8555
         9 000055   000204 710000 9                  TRA     s:8567
PL6.E3A0      #003=Z8IO$PRESET_ARRAY File=Z8IO.:Z8A6TSI                          SAT 08/09/97 13:30 Page:84
         9 000056   000204 710000 9                  TRA     s:8567
         9 000057   000204 710000 9                  TRA     s:8567
         9 000060   000204 710000 9                  TRA     s:8567
         9 000061   000204 710000 9                  TRA     s:8567
         9 000062   000064 710000 9                  TRA     s:8536
         9 000063   000141 710000 9                  TRA     s:8555

      442     8534    4            CASE (%TYI, %TYR, %TYQ, %TYX, %TYP);

      443     8535
      444     8536    4              ACTUAL_SA = OFFSET + QLT$$ -> QLT.ST$ -> ST.SA;

   8536  9 000064   200005 471500                    LDP1    QLT$$,,AUTO
         9 000065   100004 473500                    LDP3    4,,PR1
         9 000066   300001 236100                    LDQ     1,,PR3
         9 000067   000022 772000                    QRL     18
         9 000070   200012 036100                    ADLQ    OFFSET,,AUTO
         9 000071   200015 756100                    STQ     ACTUAL_SA,,AUTO
         9 000072   000271 710000 9                  TRA     s:8586

      445     8537
      446     8538    4            CASE (%TYD);

      447     8539
      448     8540    4              IF ST$$ -> VARIABLE.NDSC.TN THEN

   8540  9 000073   000001 236100                    LDQ     1,,PR0
         9 000074   040000 316007                    CANQ    16384,DL
         9 000075   000117 600000 9                  TZE     s:8548

      449     8541    5                DO;

      450     8542    5                  OFFSET = OFFSET + ST$$ -> ST.NDSC.CN;

   8542  9 000076   000001 236100                    LDQ     1,,PR0
         9 000077   000017 772000                    QRL     15
         9 000100   000007 376007                    ANQ     7,DL
PL6.E3A0      #003=Z8IO$PRESET_ARRAY File=Z8IO.:Z8A6TSI                          SAT 08/09/97 13:30 Page:85
         9 000101   200012 036100                    ADLQ    OFFSET,,AUTO
         9 000102   200012 756100                    STQ     OFFSET,,AUTO

      451     8543    5                  ACTUAL_SA = ST$$ -> ST.SA + OFFSET/8 ;

   8543  9 000103   000010 506007                    DIV     8,DL
         9 000104   200022 756100                    STQ     ACTUAL_CN+4,,AUTO
         9 000105   000001 236100                    LDQ     1,,PR0
         9 000106   000022 772000                    QRL     18
         9 000107   200023 756100                    STQ     ACTUAL_CN+5,,AUTO
         9 000110   200022 236100                    LDQ     ACTUAL_CN+4,,AUTO
         9 000111   200023 036100                    ADLQ    ACTUAL_CN+5,,AUTO
         9 000112   200015 756100                    STQ     ACTUAL_SA,,AUTO

      452     8544    5                  ACTUAL_CN = MOD(OFFSET, 8);

   8544  9 000113   200012 236100                    LDQ     OFFSET,,AUTO
         9 000114   000010 506007                    DIV     8,DL
         9 000115   200016 755100                    STA     ACTUAL_CN,,AUTO

      453     8545    5                END;

   8545  9 000116   000271 710000 9                  TRA     s:8586

      454     8546    4              ELSE
      455     8547    5                DO;

      456     8548    5                  OFFSET = OFFSET + ST$$ -> ST.ADSC.CN;

   8548  9 000117   000001 236100                    LDQ     1,,PR0
         9 000120   000020 772000                    QRL     16
         9 000121   000003 376007                    ANQ     3,DL
         9 000122   200012 036100                    ADLQ    OFFSET,,AUTO
         9 000123   200012 756100                    STQ     OFFSET,,AUTO

      457     8549    5                  ACTUAL_SA = ST$$ -> ST.SA + OFFSET/4 ;

PL6.E3A0      #003=Z8IO$PRESET_ARRAY File=Z8IO.:Z8A6TSI                          SAT 08/09/97 13:30 Page:86
   8549  9 000124   000004 506007                    DIV     4,DL
         9 000125   200022 756100                    STQ     ACTUAL_CN+4,,AUTO
         9 000126   000001 236100                    LDQ     1,,PR0
         9 000127   000022 772000                    QRL     18
         9 000130   200023 756100                    STQ     ACTUAL_CN+5,,AUTO
         9 000131   200022 236100                    LDQ     ACTUAL_CN+4,,AUTO
         9 000132   200023 036100                    ADLQ    ACTUAL_CN+5,,AUTO
         9 000133   200015 756100                    STQ     ACTUAL_SA,,AUTO

      458     8550    5                  ACTUAL_CN = (MOD(OFFSET, 4)) * 2;   /*#29692*/

   8550  9 000134   200012 236100                    LDQ     OFFSET,,AUTO
         9 000135   000004 506007                    DIV     4,DL
         9 000136   000001 735000                    ALS     1
         9 000137   200016 755100                    STA     ACTUAL_CN,,AUTO

      459     8551    5                END;

   8551  9 000140   000271 710000 9                  TRA     s:8586

      460     8552
      461     8553    4            CASE (%TYB, %TYC);

      462     8554
      463     8555    4              OFFSET = OFFSET + ST$$ -> ST.NDSC.CN;

   8555  9 000141   000001 236100                    LDQ     1,,PR0
         9 000142   000017 772000                    QRL     15
         9 000143   000007 376007                    ANQ     7,DL
         9 000144   200012 036100                    ADLQ    OFFSET,,AUTO
         9 000145   200012 756100                    STQ     OFFSET,,AUTO

      464     8556    4              ACTUAL_SA = ST$$ -> ST.SA + OFFSET/6;

   8556  9 000146   000006 506007                    DIV     6,DL
         9 000147   200022 756100                    STQ     ACTUAL_CN+4,,AUTO
         9 000150   000001 236100                    LDQ     1,,PR0
PL6.E3A0      #003=Z8IO$PRESET_ARRAY File=Z8IO.:Z8A6TSI                          SAT 08/09/97 13:30 Page:87
         9 000151   000022 772000                    QRL     18
         9 000152   200023 756100                    STQ     ACTUAL_CN+5,,AUTO
         9 000153   200022 236100                    LDQ     ACTUAL_CN+4,,AUTO
         9 000154   200023 036100                    ADLQ    ACTUAL_CN+5,,AUTO
         9 000155   200015 756100                    STQ     ACTUAL_SA,,AUTO

      465     8557    4              ACTUAL_CN = MOD(OFFSET, 6);

   8557  9 000156   200012 236100                    LDQ     OFFSET,,AUTO
         9 000157   000006 506007                    DIV     6,DL
         9 000160   200016 755100                    STA     ACTUAL_CN,,AUTO
         9 000161   000271 710000 9                  TRA     s:8586

      466     8558
      467     8559    4            CASE (%TYF);

      468     8560
      469     8561    4              OFFSET = OFFSET + ST$$ -> ST.ADSC.CN;

   8561  9 000162   000001 236100                    LDQ     1,,PR0
         9 000163   000020 772000                    QRL     16
         9 000164   000003 376007                    ANQ     3,DL
         9 000165   200012 036100                    ADLQ    OFFSET,,AUTO
         9 000166   200012 756100                    STQ     OFFSET,,AUTO

      470     8562    4              ACTUAL_SA = ST$$ -> ST.SA + OFFSET/4 ;

   8562  9 000167   000004 506007                    DIV     4,DL
         9 000170   200022 756100                    STQ     ACTUAL_CN+4,,AUTO
         9 000171   000001 236100                    LDQ     1,,PR0
         9 000172   000022 772000                    QRL     18
         9 000173   200023 756100                    STQ     ACTUAL_CN+5,,AUTO
         9 000174   200022 236100                    LDQ     ACTUAL_CN+4,,AUTO
         9 000175   200023 036100                    ADLQ    ACTUAL_CN+5,,AUTO
         9 000176   200015 756100                    STQ     ACTUAL_SA,,AUTO

      471     8563    4              ACTUAL_CN = (MOD(OFFSET, 4)) * 2;   /*#29692*/
PL6.E3A0      #003=Z8IO$PRESET_ARRAY File=Z8IO.:Z8A6TSI                          SAT 08/09/97 13:30 Page:88

   8563  9 000177   200012 236100                    LDQ     OFFSET,,AUTO
         9 000200   000004 506007                    DIV     4,DL
         9 000201   000001 735000                    ALS     1
         9 000202   200016 755100                    STA     ACTUAL_CN,,AUTO
         9 000203   000271 710000 9                  TRA     s:8586

      472     8564
      473     8565    4            CASE (ELSE);

      474     8566
      475     8567    4              OFFSET = OFFSET + ST$$ -> ST.ADSC.CN;

   8567  9 000204   000001 236100                    LDQ     1,,PR0
         9 000205   000020 772000                    QRL     16
         9 000206   000003 376007                    ANQ     3,DL
         9 000207   200012 036100                    ADLQ    OFFSET,,AUTO
         9 000210   200012 756100                    STQ     OFFSET,,AUTO

      476     8568    4              ACTUAL_SA = ST$$ -> ST.SA + OFFSET/4 ;

   8568  9 000211   000004 506007                    DIV     4,DL
         9 000212   200022 756100                    STQ     ACTUAL_CN+4,,AUTO
         9 000213   000001 236100                    LDQ     1,,PR0
         9 000214   000022 772000                    QRL     18
         9 000215   200023 756100                    STQ     ACTUAL_CN+5,,AUTO
         9 000216   200022 236100                    LDQ     ACTUAL_CN+4,,AUTO
         9 000217   200023 036100                    ADLQ    ACTUAL_CN+5,,AUTO
         9 000220   200015 756100                    STQ     ACTUAL_SA,,AUTO

      477     8569    4              ACTUAL_CN = MOD(OFFSET, 4);

   8569  9 000221   200012 236100                    LDQ     OFFSET,,AUTO
         9 000222   000004 506007                    DIV     4,DL
         9 000223   200016 755100                    STA     ACTUAL_CN,,AUTO

      478     8570
PL6.E3A0      #003=Z8IO$PRESET_ARRAY File=Z8IO.:Z8A6TSI                          SAT 08/09/97 13:30 Page:89
      479     8571    4          END; /* DO CASE */

      480     8572    3        END; /* IF ... %ARRAY */

   8572  9 000224   000271 710000 9                  TRA     s:8586

      481     8573    2      ELSE  /* not an array */
      482     8574    3        DO;

      483     8575    3          ACTUAL_SA = ST$$ -> ST.SA ;

   8575  9 000225   000001 236100                    LDQ     1,,PR0
         9 000226   000022 772000                    QRL     18
         9 000227   200015 756100                    STQ     ACTUAL_SA,,AUTO

      484     8576
      485     8577    4          DO CASE (ST$$ -> ST.TYPE);

   8577  9 000230   000002 220100                    LDX0    2,,PR0
         9 000231   000024 100003                    CMPX0   20,DU
         9 000232   000234 602010 9                  TNC     s:8577+4,X0
         9 000233   000265 710000 9                  TRA     s:8581
         9 000234   000260 710000 9                  TRA     s:8579
         9 000235   000265 710000 9                  TRA     s:8581
         9 000236   000265 710000 9                  TRA     s:8581
         9 000237   000265 710000 9                  TRA     s:8581
         9 000240   000265 710000 9                  TRA     s:8581
         9 000241   000265 710000 9                  TRA     s:8581
         9 000242   000265 710000 9                  TRA     s:8581
         9 000243   000265 710000 9                  TRA     s:8581
         9 000244   000265 710000 9                  TRA     s:8581
         9 000245   000265 710000 9                  TRA     s:8581
         9 000246   000265 710000 9                  TRA     s:8581
         9 000247   000260 710000 9                  TRA     s:8579
         9 000250   000260 710000 9                  TRA     s:8579
         9 000251   000265 710000 9                  TRA     s:8581
         9 000252   000265 710000 9                  TRA     s:8581
PL6.E3A0      #003=Z8IO$PRESET_ARRAY File=Z8IO.:Z8A6TSI                          SAT 08/09/97 13:30 Page:90
         9 000253   000265 710000 9                  TRA     s:8581
         9 000254   000265 710000 9                  TRA     s:8581
         9 000255   000265 710000 9                  TRA     s:8581
         9 000256   000265 710000 9                  TRA     s:8581
         9 000257   000260 710000 9                  TRA     s:8579

      486     8578    4            CASE (%TYD, %TYF, %TYB, %TYC);

      487     8579    4              ACTUAL_CN = ST$$ -> ST.NDSC.CN ;

   8579  9 000260   000001 236100                    LDQ     1,,PR0
         9 000261   000017 772000                    QRL     15
         9 000262   000007 376007                    ANQ     7,DL
         9 000263   200016 756100                    STQ     ACTUAL_CN,,AUTO
         9 000264   000271 710000 9                  TRA     s:8586

      488     8580    4            CASE (ELSE);

      489     8581    4              ACTUAL_CN = ST$$ -> ST.ADSC.CN ;

   8581  9 000265   000001 236100                    LDQ     1,,PR0
         9 000266   000020 772000                    QRL     16
         9 000267   000003 376007                    ANQ     3,DL
         9 000270   200016 756100                    STQ     ACTUAL_CN,,AUTO

      490     8582    4          END;

      491     8583
      492     8584    3        END;

      493     8585
      494     8586    2        CALL Z8IO$OUTPUT_ARRAY (QLT$$, ST$$, ACTUAL_SA, ACTUAL_CN, SECT_NUMBER);

   8586  9 000271   200004 236100                    LDQ     @SECT_NUMBER,,AUTO
         9 000272   200026 756100                    STQ     ACTUAL_CN+8,,AUTO
         9 000273   200016 631500                    EPPR1   ACTUAL_CN,,AUTO
         9 000274   200025 451500                    STP1    ACTUAL_CN+7,,AUTO
PL6.E3A0      #003=Z8IO$PRESET_ARRAY File=Z8IO.:Z8A6TSI                          SAT 08/09/97 13:30 Page:91
         9 000275   200015 633500                    EPPR3   ACTUAL_SA,,AUTO
         9 000276   200024 453500                    STP3    ACTUAL_CN+6,,AUTO
         9 000277   200006 634500                    EPPR4   ST$$,,AUTO
         9 000300   200023 454500                    STP4    ACTUAL_CN+5,,AUTO
         9 000301   200005 635500                    EPPR5   QLT$$,,AUTO
         9 000302   200022 455500                    STP5    ACTUAL_CN+4,,AUTO
         9 000303   200022 630500                    EPPR0   ACTUAL_CN+4,,AUTO
         9 000304   000000 631400 10                 EPPR1   0
         9 000305   000000 701000 xent               TSX1    Z8IO$OUTPUT_ARRAY
         9 000306   000000 011000                    NOP     0

      495     8587
      496     8588    2    END PROCESS_ARRAY_VALUED;

   8588  9 000307   200020 221300                    LDX1  ! ACTUAL_CN+2,,AUTO
         9 000310   000001 702211                    TSX2  ! 1,X1

      497     8589        %EJECT;
PL6.E3A0      #003=Z8IO$PRESET_ARRAY File=Z8IO.:Z8A6TSI                          SAT 08/09/97 13:30 Page:92
      498     8590
      499     8591
      500     8592               /* main program */
      501     8593
      502     8594    1      QLT$$ = NODE$;

   8594  9 000311   200003 470500                    LDP0    @NODE$,,AUTO
         9 000312   000000 236100                    LDQ     0,,PR0
         9 000313   200005 756100                    STQ     QLT$$,,AUTO

      503     8595
      504     8596    2      DO WHILE (QLT$$ ~= ADDR(NIL));

   8596  9 000314   000445 710000 9                  TRA     s:8683

      505     8597
      506     8598    2        ST$$ = QLT$$ -> QLT.ST$;

   8598  9 000315   200005 470500                    LDP0    QLT$$,,AUTO
         9 000316   000004 236100                    LDQ     4,,PR0
         9 000317   200006 756100                    STQ     ST$$,,AUTO

      507     8599
      508     8600    2        IF ST$$ -> ST.ID = %ARRAY THEN

   8600  9 000320   200006 471500                    LDP1    ST$$,,AUTO
         9 000321   100000 220100                    LDX0    0,,PR1
         9 000322   000765 100003                    CMPX0   501,DU
         9 000323   000356 601000 9                  TNZ     s:8657

      509     8601    3          DO;

      510     8602                 %GET_LTS (@ID = %DIMS,
      511     8603                           @ST$ = ST$$,
      512     8604                           @RETURN$ = DIMS_LTS$);

   8606  9 000324   100005 236100                    LDQ     5,,PR1
PL6.E3A0      #003=Z8IO$PRESET_ARRAY File=Z8IO.:Z8A6TSI                          SAT 08/09/97 13:30 Page:93
         9 000325   000001 116000 10                 CMPQ    1
         9 000326   000336 600000 9                  TZE     s:8640
         9 000327   100005 473500                    LDP3    5,,PR1
         9 000330   300000 221100                    LDX1    0,,PR3
         9 000331   001105 101003                    CMPX1   581,DU
         9 000332   000336 601000 9                  TNZ     s:8640

   8610  9 000333   300001 236100                    LDQ     1,,PR3
         9 000334   200007 756100                    STQ     DIMS_LTS$,,AUTO

   8638  9 000335   000350 710000 9                  TRA     s:8651

   8640  9 000336   000001 116000 10                 CMPQ    1
         9 000337   000346 600000 9                  TZE     s:8644
         9 000340   100005 473500                    LDP3    5,,PR1
         9 000341   300000 221100                    LDX1    0,,PR3
         9 000342   001104 101003                    CMPX1   580,DU
         9 000343   000346 601000 9                  TNZ     s:8644

   8642  9 000344   200007 756100                    STQ     DIMS_LTS$,,AUTO
         9 000345   000350 710000 9                  TRA     s:8651

   8644  9 000346   000001 236000 10                 LDQ     1
         9 000347   200007 756100                    STQ     DIMS_LTS$,,AUTO

      513     8647
      514     8648                 %FIND_LAST_DIM (POINTER = DIMS_LTS$,
      515     8649                                 VARIABLE = NO_DIMS#);

   8651  9 000350   200007 473500                    LDP3    DIMS_LTS$,,AUTO
         9 000351   300000 236100                    LDQ     0,,PR3
         9 000352   777777 376007                    ANQ     -1,DL
         9 000353   000005 136007                    SBLQ    5,DL
         9 000354   000003 506007                    DIV     3,DL
         9 000355   200011 756100                    STQ     NO_DIMS#,,AUTO

      516     8654
PL6.E3A0      #003=Z8IO$PRESET_ARRAY File=Z8IO.:Z8A6TSI                          SAT 08/09/97 13:30 Page:94
      517     8655    3          END;

      518     8656
      519     8657    2        IF QLT$$ -> QLT.B.OCCURS THEN

   8657  9 000356   000000 236100                    LDQ     0,,PR0
         9 000357   400000 316007                    CANQ    -131072,DL
         9 000360   000421 600000 9                  TZE     s:8674

      520     8658    3          DO;

      521     8659    3            DIM# = DIMS_LTS$ -> DIMS.D.DIM(NO_DIMS#);

   8659  9 000361   200011 236100                    LDQ     NO_DIMS#,,AUTO
         9 000362   000003 402007                    MPY     3,DL
         9 000363   200007 473500                    LDP3    DIMS_LTS$,,AUTO
         9 000364   300003 235106                    LDA     3,QL,PR3
         9 000365   200010 755100                    STA     DIM#,,AUTO

      522     8660
      523     8661    4            DO I = 1 TO DIM#;

   8661  9 000366   000001 235007                    LDA     1,DL
         9 000367   200013 755100                    STA     I,,AUTO
         9 000370   000415 710000 9                  TRA     s:8670+1

      524     8662
      525     8663    4              U_INDEX(NO_DIMS#) = I;

   8663  9 000371   200011 720100                    LXL0    NO_DIMS#,,AUTO
         9 000372   200013 235100                    LDA     I,,AUTO
         9 000373   000000 755010 8                  STA     U_INDEX,X0

      526     8664
      527     8665    4              IF QLT$$ -> QLT.B.ARRAY_VALUED THEN

   8665  9 000374   200005 470500                    LDP0    QLT$$,,AUTO
PL6.E3A0      #003=Z8IO$PRESET_ARRAY File=Z8IO.:Z8A6TSI                          SAT 08/09/97 13:30 Page:95
         9 000375   000000 236100                    LDQ     0,,PR0
         9 000376   020000 316007                    CANQ    8192,DL
         9 000377   000403 600000 9                  TZE     s:8668

      528     8666    4                CALL PROCESS_ARRAY_VALUED;

   8666  9 000400   000003 701000 9                  TSX1    PROCESS_ARRAY_VALUED
         9 000401   000000 011000                    NOP     0
         9 000402   000414 710000 9                  TRA     s:8670

      529     8667    4              ELSE
      530     8668    4                CALL Z8IO$PRESET_ARRAY (QLT$$ -> QLT.SON, SECT_NUMBER);

   8668  9 000403   200004 236100                    LDQ     @SECT_NUMBER,,AUTO
         9 000404   200023 756100                    STQ     ACTUAL_CN+5,,AUTO
         9 000405   200005 236100                    LDQ     QLT$$,,AUTO
         9 000406   000003 036003                    ADLQ    3,DU
         9 000407   200022 756100                    STQ     ACTUAL_CN+4,,AUTO
         9 000410   200022 630500                    EPPR0   ACTUAL_CN+4,,AUTO
         9 000411   000002 631400 10                 EPPR1   2
         9 000412   000000 701000 9                  TSX1    s:8
         9 000413   000000 011000                    NOP     0

      531     8669
      532     8670    4            END;

   8670  9 000414   200013 054100                    AOS     I,,AUTO
         9 000415   200013 236100                    LDQ     I,,AUTO
         9 000416   200010 116100                    CMPQ    DIM#,,AUTO
         9 000417   000371 604400 9                  TMOZ    s:8663

      533     8671    3          END;

   8671  9 000420   000442 710000 9                  TRA     s:8681

      534     8672    2        ELSE
      535     8673    3          DO;
PL6.E3A0      #003=Z8IO$PRESET_ARRAY File=Z8IO.:Z8A6TSI                          SAT 08/09/97 13:30 Page:96

      536     8674    3            IF QLT$$ -> QLT.B.ARRAY_VALUED THEN

   8674  9 000421   020000 316007                    CANQ    8192,DL
         9 000422   000426 600000 9                  TZE     s:8677

      537     8675    3              CALL PROCESS_ARRAY_VALUED;

   8675  9 000423   000003 701000 9                  TSX1    PROCESS_ARRAY_VALUED
         9 000424   000000 011000                    NOP     0
         9 000425   000442 710000 9                  TRA     s:8681

      538     8676    3            ELSE
      539     8677    3              IF NOT ST$$ -> ARRAY.B.ELEMENTARY THEN

   8677  9 000426   100003 236100                    LDQ     3,,PR1
         9 000427   010000 316003                    CANQ    4096,DU
         9 000430   000442 601000 9                  TNZ     s:8681

      540     8678    3                CALL Z8IO$PRESET_ARRAY (QLT$$ -> QLT.SON, SECT_NUMBER);

   8678  9 000431   200004 236100                    LDQ     @SECT_NUMBER,,AUTO
         9 000432   200023 756100                    STQ     ACTUAL_CN+5,,AUTO
         9 000433   200005 236100                    LDQ     QLT$$,,AUTO
         9 000434   000003 036003                    ADLQ    3,DU
         9 000435   200022 756100                    STQ     ACTUAL_CN+4,,AUTO
         9 000436   200022 630500                    EPPR0   ACTUAL_CN+4,,AUTO
         9 000437   000002 631400 10                 EPPR1   2
         9 000440   000000 701000 9                  TSX1    s:8
         9 000441   000000 011000                    NOP     0

      541     8679    3          END;

      542     8680
      543     8681    2        QLT$$ = QLT$$ -> QLT.BROTHER;

   8681  9 000442   200005 470500                    LDP0    QLT$$,,AUTO
PL6.E3A0      #003=Z8IO$PRESET_ARRAY File=Z8IO.:Z8A6TSI                          SAT 08/09/97 13:30 Page:97
         9 000443   000002 236100                    LDQ     2,,PR0
         9 000444   200005 756100                    STQ     QLT$$,,AUTO

      544     8682
      545     8683    2      END;   /* DO WHILE */

   8683  9 000445   000001 116000 10                 CMPQ    1
         9 000446   000315 601000 9                  TNZ     s:8598

      546     8684
      547     8685    1    END Z8IO$PRESET_ARRAY;

   8685  9 000447   000000 702200 xent               TSX2  ! X66_ARET
      548     8686

PL6.E3A0      #003=Z8IO$PRESET_ARRAY File=Z8IO.:Z8A6TSI                          SAT 08/09/97 13:30 Page:98
--  Include file information  --

   Z8A_LTS.:Z8A6TOU  cannot be made into a system file and is referenced.
   Z8A_QLT.:Z8A6TOU  cannot be made into a system file and is referenced.
   Z8A_ST.:Z8A6TOU  cannot be made into a system file and is referenced.
   Z8A_TYPES.:Z8A6TOU  is referenced.
   X8A_COM_MACS.:X8A6TOU  is referenced.
   Z8A_NAMES.:Z8A6TOU  is referenced.
   Z8A_SUPP_MAC.:Z8A6TOU  is referenced.
   Z8A_DEFC.:Z8A6TOU  cannot be made into a system file and is referenced.
      No diagnostics issued in procedure Z8IO$PRESET_ARRAY.
PL6.E3A0      #003=Z8IO$PRESET_ARRAY File=Z8IO.:Z8A6TSI                          SAT 08/09/97 13:30 Page:99

 **** Variables and constants ****

  ****  Section 000 LblCom ITERATION

  ****  Scalars and arrays  ****
OctLoc.c.b A Datatyp(siz) R M Lvl/name                 OctLoc.c.b A Datatyp(siz) R M Lvl/name

     0-0-0/w SBIN              1 ITERATION

  ****  Section 001 LblCom ST$

  ****  Scalars and arrays  ****
OctLoc.c.b A Datatyp(siz) R M Lvl/name                 OctLoc.c.b A Datatyp(siz) R M Lvl/name

     0-0-0/w PTR         r     1 ST$

  ****  Section 002 LblCom ST_

  ****  Scalars and arrays  ****
OctLoc.c.b A Datatyp(siz) R M Lvl/name                 OctLoc.c.b A Datatyp(siz) R M Lvl/name

     0-0-0/w STRC(180)         1 ST_

  ****  Section 003 LblCom QLT$

  ****  Scalars and arrays  ****
OctLoc.c.b A Datatyp(siz) R M Lvl/name                 OctLoc.c.b A Datatyp(siz) R M Lvl/name

     0-0-0/w PTR         r     1 QLT$

  ****  Section 004 LblCom PREV_01_QLT$

  ****  Scalars and arrays  ****
OctLoc.c.b A Datatyp(siz) R M Lvl/name                 OctLoc.c.b A Datatyp(siz) R M Lvl/name

     0-0-0/w PTR               1 PREV_01_QLT$

PL6.E3A0      #003=Z8IO$PRESET_ARRAY File=Z8IO.:Z8A6TSI                          SAT 08/09/97 13:30 Page:100
  ****  Section 005 LblCom QLT_

  ****  Scalars and arrays  ****
OctLoc.c.b A Datatyp(siz) R M Lvl/name                 OctLoc.c.b A Datatyp(siz) R M Lvl/name

     0-0-0/w STRC(180)         1 QLT_

  ****  Section 006 LblCom LTS$

  ****  Scalars and arrays  ****
OctLoc.c.b A Datatyp(siz) R M Lvl/name                 OctLoc.c.b A Datatyp(siz) R M Lvl/name

     0-0-0/w PTR               1 LONG_ITEM$                 0-0-0/w PTR         r     1 LTS$

  ****  Section 007 LblCom LTS_

  ****  Scalars and arrays  ****
OctLoc.c.b A Datatyp(siz) R M Lvl/name                 OctLoc.c.b A Datatyp(siz) R M Lvl/name

     0-0-0/w STRC(180)         1 LTS_

  ****  Section 008  Data  Z8IO$PRESET_ARRAY

  ****  Scalars and arrays  ****
OctLoc.c.b A Datatyp(siz) R M Lvl/name                 OctLoc.c.b A Datatyp(siz) R M Lvl/name

     0-0-0/w SBIN        r     1 U_INDEX(0:49)

  ****  Auto variables  ****

  ****  Scalars and arrays  ****
OctLoc.c.b A Datatyp(siz) R M Lvl/name                 OctLoc.c.b A Datatyp(siz) R M Lvl/name

     3-0-0/w PTR         r     1 @NODE$                     4-0-0/w PTR         r     1 @SECT_NUMBER
    16-0-0/w SBIN        r     1 ACTUAL_CN                 15-0-0/w SBIN        r     1 ACTUAL_SA
    10-0-0/w SBIN        r     1 DIM#                       7-0-0/w PTR         r     1 DIMS_LTS$
    13-0-0/w SBIN        r     1 I                         14-0-0/w SBIN        r     1 J
PL6.E3A0      #003=Z8IO$PRESET_ARRAY File=Z8IO.:Z8A6TSI                          SAT 08/09/97 13:30 Page:101
    *0-0-0/w PTR         r     1 NODE$                     11-0-0/w SBIN        r     1 NO_DIMS#
    12-0-0/w SBIN        r     1 OFFSET                     5-0-0/w PTR         r     1 QLT$$
    *0-0-0/w SBIN        r     1 SECT_NUMBER                6-0-0/w PTR         r     1 ST$$

  ****  SYMREF variables  ****

  ****  Scalars and arrays  ****
OctLoc.c.b A Datatyp(siz) R M Lvl/name                 OctLoc.c.b A Datatyp(siz) R M Lvl/name

     0-0-0/w UBIN              1 LTS_STEP(0:37)

  ****  BASED and DCB variables  ****

  ****  Scalars and arrays  ****
OctLoc.c.b A Datatyp(siz) R M Lvl/name                 OctLoc.c.b A Datatyp(siz) R M Lvl/name

     0-0-0/w STRC(396)         1 ALPHABET                   0-0-0/w STRC(144)         1 ALTER_LTS
     0-0-0/w STRC(3672)        1 ALT_KEY                    0-0-0/w STRC(36864)       1 ARGLIST
     0-0-0/w STRC(396)   r     1 ARRAY                      0-0-0/w STRC(180)         1 ARRAY_PRESET_LTS
     0-0-0/w STRC(288)         1 BASE_LTS                   0-0-0/w STRC(396)         1 BLOCK
     0-0-0/w STRC(144)         1 BT                         0-0-0/w STRC(396)         1 CD
     0-0-0/w STRC(288)         1 CD_LTS                     0-0-0/w CHAR(4096)        1 CHARS
     0-0-0/w STRC(396)         1 CLASS                      0-0-0/w STRC(396)         1 CONDITION
     0-0-0/w STRC(396)         1 CONST                      0-0-0/w STRC(72)          1 CONT
     0-0-0/w STRC(540)         1 CONTROL_NAME_LTS           0-0-0/w STRC(1872)        1 COPY_FILE
     0-0-0/w STRC(396)         1 DB                         0-0-0/w STRC(396)         1 DCB_
     0-0-0/w STRC(108)         1 DEPENDING_SIZE             0-0-0/w STRC(5472)  r     1 DIMS
     0-0-0/w STRC(396)         1 DML_ITEM                   0-0-0/w STRC(216)         1 DML_REC
     0-0-0/w STRC(73836)       1 EVALUATE                   0-0-0/w STRC(396)         1 FD
     0-0-0/w STRC(1692)        1 FILE_LTS                   0-0-0/w STRC(108)         1 INDEXES
     0-0-0/w STRC(360)         1 INIT_LTS                   0-0-0/w STRC(396)         1 INTDEF
     0-0-0/w STRC(180)         1 IO_RESTORE_CHAIN           0-0-0/w STRC(144)         1 KEY
     0-0-0/w STRC(396)         1 LABEL                      0-0-0/w STRC(36864)       1 LCNST
     0-0-0/w STRC(72)          1 LONG                       0-0-0/w STRC        r     1 LTS
     0-0-0/w STRC(360)   r     1 LTSS                       0-0-0/w STRC(36936)       1 LTS_PTR_ARRAY
     0-0-0/w STRC(396)         1 MNEMONIC                   0-0-0/w STRC(144)         1 NEL
     0-0-0/w STRC(216)         1 OPEN_LTS                   0-0-0/w STRC(36864)       1 PAGE
PL6.E3A0      #003=Z8IO$PRESET_ARRAY File=Z8IO.:Z8A6TSI                          SAT 08/09/97 13:30 Page:102
     0-0-0/w STRC(396)         1 PARA                       0-0-0/w STRC(144)         1 PRIME
     0-0-0/w STRC(396)         1 PROC_                      0-0-0/w STRC(396)         1 PROC_DEF
     0-0-0/w STRC(900)         1 PROC_SUPP                  0-0-0/w STRC(216)   r     1 QLT
     0-0-0/w STRC(396)         1 RD                         0-0-0/w STRC(216)         1 REF
     0-0-0/w STRC(108)         1 RENAMES                    0-0-0/w STRC(720)         1 REPORT_01_LTS
     0-0-0/w STRC(432)         1 REPORT_ELEM_LTS            0-0-0/w STRC(252)         1 REPORT_GRP_LTS
     0-0-0/w STRC(1332)        1 REPORT_LTS                 0-0-0/w STRC(144)         1 RVA_LTS
     0-0-0/w STRC(396)         1 SCALAR                     0-0-0/w STRC(396)         1 SD
     0-0-0/w STRC(396)         1 SECTION                    0-0-0/w STRC(396)         1 SEGMENT
     0-0-0/w STRC(360)         1 SEGMENT_LTS                0-0-0/w STRC(396)   r     1 ST
     0-0-0/w STRC(252)         1 SUM_LTS                    0-0-0/w STRC(396)         1 SWITCH
     0-0-0/w STRC(396)         1 SYMBOLIC_CHAR              0-0-0/w STRC(396)         1 SYMDEF_
     0-0-0/w STRC(396)         1 SYMREF_                    0-0-0/w STRC(396)         1 TEMP
     0-0-0/d STRC(612)         1 USE                        0-0-0/w STRC(252)         1 USE_SUPP
     0-0-0/w STRC(396)   r     1 VARIABLE


   Procedure Z8IO$PRESET_ARRAY requires 296 words for executable code.
   Procedure Z8IO$PRESET_ARRAY requires 24 words of local(AUTO) storage.

    No errors detected in file Z8IO.:Z8A6TSI    .
