VERSION A06

PL6.E3A0      #001=Z8IU$BLANK_ZERO File=Z8IU.:Z8A6TSI                            SAT 08/09/97 13:30 Page:1
        1        1        /*M* Z8IU Annotator Utilities */
        2        2        /*T***********************************************************/
        3        3        /*T*                                                         */
        4        4        /*T* Copyright (c) Bull HN Information Systems Inc., 1997    */
        5        5        /*T*                                                         */
        6        6        /*T***********************************************************/
        7        7
        8        8
        9        9
       10       10
       11       11        /*P*
       12       12               NAME: Z8IU
       13       13            PURPOSE: General purpose utilities to be used by the Annotator.
       14       14        */
       15       15
       16       16
       17       17        /*D*
       18       18
       19       19                  NAME: Z8IU$BLANK_ZERO
       20       20           DESCRIPTION: Accept a pointer to a character, then change all
       21       21                           successive zeroes to blanks until a non-zero
       22       22                           character is encountered.
       23       23
       24       24        */
       25       25
       26       26        Z8IU$BLANK_ZERO: PROC (C$);
       27       27
       28       28    1          DCL C$ PTR;
       29       29
       30       30    1          DCL C CHAR(1) BASED (C$);
       31       31
       32       32    2   DO WHILE (C = '0');
       33       33
       34       34    2          C = ' ';
       35       35    2          C$ = PINCRC (C$,1);
       36       36
       37       37    2   END; /* DO */
PL6.E3A0      #001=Z8IU$BLANK_ZERO File=Z8IU.:Z8A6TSI                            SAT 08/09/97 13:30 Page:2
       38       38
       39       39    1   END Z8IU$BLANK_ZERO;
       40       40        %EOD;

PL6.E3A0      #001=Z8IU$BLANK_ZERO File=Z8IU.:Z8A6TSI                            SAT 08/09/97 13:30 Page:3
      No diagnostics issued in procedure Z8IU$BLANK_ZERO.

   Procedure Z8IU$BLANK_ZERO requires 22 words for executable code.
   Procedure Z8IU$BLANK_ZERO requires 4 words of local(AUTO) storage.

PL6.E3A0      #001=Z8IU$BLANK_ZERO File=Z8IU.:Z8A6TSI                            SAT 08/09/97 13:30 Page:4

 Object Unit name= Z8IU$BLANK_ZERO                            File name= Z8IU.:Z8A6TOU
 UTS= AUG 09 '97 13:30:00.52 SAT                              Compiler= PL-6/E31         Sev=      00
 SharedLib= :SHARED_SYSTEM                                    Alt SharedLib=


    ****  Control sections  ****

 Sect   Type Bound  Init  Size OctSiz  Section name(segment info)
    0   Proc  even  none    22     26  Z8IU$BLANK_ZERO
    1  RoData even  none     2      2  Z8IU$BLANK_ZERO

    ****  Entry defs  ****

                              Check   Calling
                             calling  sequence
  Sect OctLoc Primary Altret sequence   type   Parms  Name
     0      0   yes            yes      Std        1  Z8IU$BLANK_ZERO

  ****  Entry refs  ****

         Check        Calling
        calling       sequence
Altret sequence SRef   type   Args  Name
                       nStd      0 X66_AUTO_1
                       nStd      0 X66_ARET
PL6.E3A0      #001=Z8IU$BLANK_ZERO File=Z8IU.:Z8A6TSI                            SAT 08/09/97 13:30 Page:5


        1        1        /*M* Z8IU Annotator Utilities */
        2        2        /*T***********************************************************/
        3        3        /*T*                                                         */
        4        4        /*T* Copyright (c) Bull HN Information Systems Inc., 1997    */
        5        5        /*T*                                                         */
        6        6        /*T***********************************************************/
        7        7
        8        8
        9        9
       10       10
       11       11        /*P*
       12       12               NAME: Z8IU
       13       13            PURPOSE: General purpose utilities to be used by the Annotator.
       14       14        */
       15       15
       16       16
       17       17        /*D*
       18       18
       19       19                  NAME: Z8IU$BLANK_ZERO
       20       20           DESCRIPTION: Accept a pointer to a character, then change all
       21       21                           successive zeroes to blanks until a non-zero
       22       22                           character is encountered.
       23       23
       24       24        */
       25       25
       26       26        Z8IU$BLANK_ZERO: PROC (C$);

     26  0 000000   000000 700200 xent  Z8IU$BLANK_* TSX0  ! X66_AUTO_1
         0 000001   000004 000001                    ZERO    4,1

       27       27
       28       28    1          DCL C$ PTR;
       29       29
       30       30    1          DCL C CHAR(1) BASED (C$);
       31       31
       32       32    2   DO WHILE (C = '0');
PL6.E3A0      #001=Z8IU$BLANK_ZERO File=Z8IU.:Z8A6TSI                            SAT 08/09/97 13:30 Page:6

     32  0 000002   200003 470500                    LDP0    @C$,,AUTO
         0 000003   000000 471500                    LDP1    0,,PR0
         0 000004   040000 106500                    CMPC    fill='040'O
         0 000005   100000 000001                    ADSC9   0,,PR1                   cn=0,n=1
         0 000006   000000 000001 1                  ADSC9   0                        cn=0,n=1
         0 000007   000025 601000 0                  TNZ     s:39

       33       33
       34       34    2          C = ' ';

     34  0 000010   200003 470500                    LDP0    @C$,,AUTO
         0 000011   000000 471500                    LDP1    0,,PR0
         0 000012   040100 100400                    MLR     fill='040'O
         0 000013   000001 000001 1                  ADSC9   1                        cn=0,n=1
         0 000014   100000 000001                    ADSC9   0,,PR1                   cn=0,n=1

       35       35    2          C$ = PINCRC (C$,1);

     35  0 000015   000000 236100                    LDQ     0,,PR0
         0 000016   200000 036007                    ADLQ    65536,DL
         0 000017   000000 756100                    STQ     0,,PR0

       36       36
       37       37    2   END; /* DO */

     37  0 000020   000000 471500                    LDP1    0,,PR0
         0 000021   040000 106500                    CMPC    fill='040'O
         0 000022   100000 000001                    ADSC9   0,,PR1                   cn=0,n=1
         0 000023   000000 000001 1                  ADSC9   0                        cn=0,n=1
         0 000024   000010 600000 0                  TZE     s:34

       38       38
       39       39    1   END Z8IU$BLANK_ZERO;

     39  0 000025   000000 702200 xent               TSX2  ! X66_ARET
       40       40        %EOD;
PL6.E3A0      #001=Z8IU$BLANK_ZERO File=Z8IU.:Z8A6TSI                            SAT 08/09/97 13:30 Page:7

PL6.E3A0      #001=Z8IU$BLANK_ZERO File=Z8IU.:Z8A6TSI                            SAT 08/09/97 13:30 Page:8
      No diagnostics issued in procedure Z8IU$BLANK_ZERO.
PL6.E3A0      #001=Z8IU$BLANK_ZERO File=Z8IU.:Z8A6TSI                            SAT 08/09/97 13:30 Page:9

 **** Variables and constants ****

  ****  Auto variables  ****

  ****  Scalars and arrays  ****
OctLoc.c.b A Datatyp(siz) R M Lvl/name                 OctLoc.c.b A Datatyp(siz) R M Lvl/name

     3-0-0/w PTR         r     1 @C$                       *0-0-0/w PTR         r     1 C$

  ****  BASED and DCB variables  ****

  ****  Scalars and arrays  ****
OctLoc.c.b A Datatyp(siz) R M Lvl/name                 OctLoc.c.b A Datatyp(siz) R M Lvl/name

     0-0-0/c CHAR        r     1 C


   Procedure Z8IU$BLANK_ZERO requires 22 words for executable code.
   Procedure Z8IU$BLANK_ZERO requires 4 words of local(AUTO) storage.

PL6.E3A0      #002=Z8IU$CONVERT_DEC_LEFT File=Z8IU.:Z8A6TSI                      SAT 08/09/97 13:30 Page:10
       41        1        /*T***********************************************************/
       42        2        /*T*                                                         */
       43        3        /*T* Copyright (c) Bull HN Information Systems Inc., 1997    */
       44        4        /*T*                                                         */
       45        5        /*T***********************************************************/
       46        6        Z8IU$CONVERT_DEC_LEFT: PROC(P_TEXT,P_BINARY,P_NO_DIGITS,P_NEXT_TEXT$);
       47        7
       48        8        /*D*     NAME:     Z8IU$CONVERT_DEC_LEFT
       49        9                 INPUT:
       50       10                      P_TXT
       51       11                      P_BINARY
       52       12                      P_NO_DIGITS
       53       13                 OUTPUT:
       54       14                      P_NEXT_TXT$
       55       15                 INTERFACE:
       56       16                      NONE
       57       17                 DESCRIPTION:   THIS ROUITNE WILL CONVERT A SIGNED NUMBER TO
       58       18                      PRINTABLE NUMBER WITH A LEADING - SIGN IF NEGATIVE.
       59       19                      IT WILL REMOVER ANY LEADING ZEROS.
       60       20        */
       61       21
       62       22    1   DCL P_TEXT       CHAR(12);
       63       23    1   DCL P_BINARY     SBIN;
       64       24    1   DCL P_NO_DIGITS  UBIN;
       65       25    1   DCL P_NEXT_TEXT$ PTR;
       66       26
       67       27    1   DCL DIGIT_OFFSET UBIN;
       68       28    1   DCL TEMP_CHAR12  CHAR(12);
       69       29    1   DCL TEMP_UBIN    UBIN;
       70       30                                                /*
       71       31                                                Convert number to decimal
       72       32                                                ignoring sign
       73       33                                                */
       74       34    1           CALL BINCHAR(TEMP_CHAR12,P_BINARY);
       75       35
       76       36    1           IF P_BINARY<0 THEN
       77       37    2             DO;
PL6.E3A0      #002=Z8IU$CONVERT_DEC_LEFT File=Z8IU.:Z8A6TSI                      SAT 08/09/97 13:30 Page:11
       78       38    2                CALL INSERT(P_TEXT,0,1,'-');
       79       39    2                DIGIT_OFFSET=1;
       80       40    2              END;
       81       41    1           ELSE
       82       42    1              DIGIT_OFFSET=0;
       83       43
       84       44    2           DO TEMP_UBIN=SIZEC(TEMP_CHAR12)-P_NO_DIGITS TO 10;
       85       45    2              IF SUBSTR(TEMP_CHAR12,TEMP_UBIN,1)~='0' THEN
       86       46    2                 GOTO DIGIT_FOUND;
       87       47    2            END;
       88       48    1           TEMP_UBIN=11;
       89       49
       90       50    1   DIGIT_FOUND: ;
       91       51    1           CALL INSERT(P_TEXT,DIGIT_OFFSET,SIZEC(TEMP_CHAR12)-TEMP_UBIN,
       92       52    1             SUBSTR(TEMP_CHAR12,TEMP_UBIN));
       93       53    1           IF ADDR(P_NEXT_TEXT$)~=ADDR(NIL) THEN
       94       54    1              P_NEXT_TEXT$=PINCRC(P_NEXT_TEXT$,DIGIT_OFFSET+SIZEC(TEMP_CHAR12)-
                54                       TEMP_UBIN);
       95       55    1           RETURN;
       96       56
       97       57    1   END Z8IU$CONVERT_DEC_LEFT;
       98       58        %EOD;

PL6.E3A0      #002=Z8IU$CONVERT_DEC_LEFT File=Z8IU.:Z8A6TSI                      SAT 08/09/97 13:30 Page:12
      No diagnostics issued in procedure Z8IU$CONVERT_DEC_LEFT.

   Procedure Z8IU$CONVERT_DEC_LEFT requires 56 words for executable code.
   Procedure Z8IU$CONVERT_DEC_LEFT requires 12 words of local(AUTO) storage.

PL6.E3A0      #002=Z8IU$CONVERT_DEC_LEFT File=Z8IU.:Z8A6TSI                      SAT 08/09/97 13:30 Page:13

 Object Unit name= Z8IU$CONVERT_DEC_LEFT                      File name= Z8IU.:Z8A6TOU
 UTS= AUG 09 '97 13:30:04.32 SAT                              Compiler= PL-6/E31         Sev=      00
 SharedLib= :SHARED_SYSTEM                                    Alt SharedLib=


    ****  Control sections  ****

 Sect   Type Bound  Init  Size OctSiz  Section name(segment info)
    0   Proc  even  none    56     70  Z8IU$CONVERT_DEC_LEFT
    1  RoData even  none     4      4  Z8IU$CONVERT_DEC_LEFT

    ****  Entry defs  ****

                              Check   Calling
                             calling  sequence
  Sect OctLoc Primary Altret sequence   type   Parms  Name
     0      0   yes            yes      Std        4  Z8IU$CONVERT_DEC_LEFT

  ****  Entry refs  ****

         Check        Calling
        calling       sequence
Altret sequence SRef   type   Args  Name
                       nStd      0 X66_AUTO_4
                       nStd      0 X66_ARET

  ****  Segment refs  ****

  Flags:  r = read only, s = secondary
Flgs Name                             Flgs Name                             Flgs Name
     NULLSID
PL6.E3A0      #002=Z8IU$CONVERT_DEC_LEFT File=Z8IU.:Z8A6TSI                      SAT 08/09/97 13:30 Page:14


       41        1        /*T***********************************************************/
       42        2        /*T*                                                         */
       43        3        /*T* Copyright (c) Bull HN Information Systems Inc., 1997    */
       44        4        /*T*                                                         */
       45        5        /*T***********************************************************/
       46        6        Z8IU$CONVERT_DEC_LEFT: PROC(P_TEXT,P_BINARY,P_NO_DIGITS,P_NEXT_TEXT$);

      6  0 000000   000000 700200 xent  Z8IU$CONVER* TSX0  ! X66_AUTO_4
         0 000001   000014 000004                    ZERO    12,4

       47        7
       48        8        /*D*     NAME:     Z8IU$CONVERT_DEC_LEFT
       49        9                 INPUT:
       50       10                      P_TXT
       51       11                      P_BINARY
       52       12                      P_NO_DIGITS
       53       13                 OUTPUT:
       54       14                      P_NEXT_TXT$
       55       15                 INTERFACE:
       56       16                      NONE
       57       17                 DESCRIPTION:   THIS ROUITNE WILL CONVERT A SIGNED NUMBER TO
       58       18                      PRINTABLE NUMBER WITH A LEADING - SIGN IF NEGATIVE.
       59       19                      IT WILL REMOVER ANY LEADING ZEROS.
       60       20        */
       61       21
       62       22    1   DCL P_TEXT       CHAR(12);
       63       23    1   DCL P_BINARY     SBIN;
       64       24    1   DCL P_NO_DIGITS  UBIN;
       65       25    1   DCL P_NEXT_TEXT$ PTR;
       66       26
       67       27    1   DCL DIGIT_OFFSET UBIN;
       68       28    1   DCL TEMP_CHAR12  CHAR(12);
       69       29    1   DCL TEMP_UBIN    UBIN;
       70       30                                                /*
       71       31                                                Convert number to decimal
       72       32                                                ignoring sign
PL6.E3A0      #002=Z8IU$CONVERT_DEC_LEFT File=Z8IU.:Z8A6TSI                      SAT 08/09/97 13:30 Page:15
       73       33                                                */
       74       34    1           CALL BINCHAR(TEMP_CHAR12,P_BINARY);

     34  0 000002   200004 470500                    LDP0    @P_BINARY,,AUTO
         0 000003   000100 301500                    BTD
         0 000004   000000 000004                    NDSC9   0,,PR0                   cn=0,s=lsgnf,sf=0,n=4
         0 000005   200010 030014                    NDSC9   TEMP_CHAR12,,AUTO        cn=0,s=nosgn,sf=0,n=12

       75       35
       76       36    1           IF P_BINARY<0 THEN

     36  0 000006   000000 235100                    LDA     0,,PR0
         0 000007   000017 605000 0                  TPL     s:42

       77       37    2             DO;

       78       38    2                CALL INSERT(P_TEXT,0,1,'-');

     38  0 000010   200003 471500                    LDP1    @P_TEXT,,AUTO
         0 000011   040100 100400                    MLR     fill='040'O
         0 000012   000000 000001 1                  ADSC9   0                        cn=0,n=1
         0 000013   100000 000001                    ADSC9   0,,PR1                   cn=0,n=1

       79       39    2                DIGIT_OFFSET=1;

     39  0 000014   000001 235007                    LDA     1,DL
         0 000015   200007 755100                    STA     DIGIT_OFFSET,,AUTO

       80       40    2              END;

     40  0 000016   000020 710000 0                  TRA     s:44

       81       41    1           ELSE
       82       42    1              DIGIT_OFFSET=0;

     42  0 000017   200007 450100                    STZ     DIGIT_OFFSET,,AUTO

PL6.E3A0      #002=Z8IU$CONVERT_DEC_LEFT File=Z8IU.:Z8A6TSI                      SAT 08/09/97 13:30 Page:16
       83       43
       84       44    2           DO TEMP_UBIN=SIZEC(TEMP_CHAR12)-P_NO_DIGITS TO 10;

     44  0 000020   200005 471500                    LDP1    @P_NO_DIGITS,,AUTO
         0 000021   100000 235100                    LDA     0,,PR1
         0 000022   000001 675000 1                  ERA     1
         0 000023   000015 035007                    ADLA    13,DL
         0 000024   200013 755100                    STA     TEMP_UBIN,,AUTO
         0 000025   000035 710000 0                  TRA     s:47+2

       85       45    2              IF SUBSTR(TEMP_CHAR12,TEMP_UBIN,1)~='0' THEN

     45  0 000026   200013 235100                    LDA     TEMP_UBIN,,AUTO
         0 000027   040000 106505                    CMPC    fill='040'O
         0 000030   200010 000001                    ADSC9   TEMP_CHAR12,A,AUTO       cn=0,n=1
         0 000031   000002 000001 1                  ADSC9   2                        cn=0,n=1
         0 000032   000041 601000 0                  TNZ     DIGIT_FOUND

       86       46    2                 GOTO DIGIT_FOUND;
       87       47    2            END;

     47  0 000033   000001 035007                    ADLA    1,DL
         0 000034   200013 755100                    STA     TEMP_UBIN,,AUTO
         0 000035   000013 115007                    CMPA    11,DL
         0 000036   000026 602000 0                  TNC     s:45

       88       48    1           TEMP_UBIN=11;

     48  0 000037   000013 236007                    LDQ     11,DL
         0 000040   200013 756100                    STQ     TEMP_UBIN,,AUTO

     48  0 000041                       DIGIT_FOUND  null
       89       49
       90       50    1   DIGIT_FOUND: ;
       91       51    1           CALL INSERT(P_TEXT,DIGIT_OFFSET,SIZEC(TEMP_CHAR12)-TEMP_UBIN,

     51  0 000041   200013 720100                    LXL0    TEMP_UBIN,,AUTO
PL6.E3A0      #002=Z8IU$CONVERT_DEC_LEFT File=Z8IU.:Z8A6TSI                      SAT 08/09/97 13:30 Page:17
         0 000042   777763 620010                    EAX0    -13,X0
         0 000043   777777 660003                    ERX0    -1,DU
         0 000044   200013 235100                    LDA     TEMP_UBIN,,AUTO
         0 000045   200003 470500                    LDP0    @P_TEXT,,AUTO
         0 000046   200007 236100                    LDQ     DIGIT_OFFSET,,AUTO
         0 000047   040146 100545                    MLR     fill='040'O
         0 000050   200010 000010                    ADSC9   TEMP_CHAR12,A,AUTO       cn=0,n=*X0
         0 000051   000000 000010                    ADSC9   0,Q,PR0                  cn=0,n=*X0

       92       52    1             SUBSTR(TEMP_CHAR12,TEMP_UBIN));
       93       53    1           IF ADDR(P_NEXT_TEXT$)~=ADDR(NIL) THEN

     53  0 000052   200006 236100                    LDQ     @P_NEXT_TEXT$,,AUTO
         0 000053   000003 116000 1                  CMPQ    3
         0 000054   000067 600000 0                  TZE     s:55

       94       54    1              P_NEXT_TEXT$=PINCRC(P_NEXT_TEXT$,DIGIT_OFFSET+SIZEC(TEMP_CHAR12)-
                54                       TEMP_UBIN);

     54  0 000055   200007 236100                    LDQ     DIGIT_OFFSET,,AUTO
         0 000056   200013 136100                    SBLQ    TEMP_UBIN,,AUTO
         0 000057   200006 471500                    LDP1    @P_NEXT_TEXT$,,AUTO
         0 000060   100000 473500                    LDP3    0,,PR1
         0 000061   000011 402007                    MPY     9,DL
         0 000062   000000 116003                    CMPQ    0,DU
         0 000063   000065 605000 0                  TPL     s:54+8
         0 000064   000044 036003                    ADLQ    36,DU
         0 000065   300003 503506                    ABD     3,QL,PR3
         0 000066   100000 453500                    STP3    0,,PR1

       95       55    1           RETURN;

     55  0 000067   000000 702200 xent               TSX2  ! X66_ARET
       96       56
       97       57    1   END Z8IU$CONVERT_DEC_LEFT;
       98       58        %EOD;

PL6.E3A0      #002=Z8IU$CONVERT_DEC_LEFT File=Z8IU.:Z8A6TSI                      SAT 08/09/97 13:30 Page:18
      No diagnostics issued in procedure Z8IU$CONVERT_DEC_LEFT.
PL6.E3A0      #002=Z8IU$CONVERT_DEC_LEFT File=Z8IU.:Z8A6TSI                      SAT 08/09/97 13:30 Page:19

 **** Variables and constants ****

  ****  Auto variables  ****

  ****  Scalars and arrays  ****
OctLoc.c.b A Datatyp(siz) R M Lvl/name                 OctLoc.c.b A Datatyp(siz) R M Lvl/name

     4-0-0/w PTR         r     1 @P_BINARY                  6-0-0/w PTR         r     1 @P_NEXT_TEXT$
     5-0-0/w PTR         r     1 @P_NO_DIGITS               3-0-0/w PTR         r     1 @P_TEXT
     7-0-0/w UBIN        r     1 DIGIT_OFFSET              *0-0-0/w SBIN        r     1 P_BINARY
    *0-0-0/w PTR         r     1 P_NEXT_TEXT$              *0-0-0/w UBIN        r     1 P_NO_DIGITS
    *0-0-0/c CHAR(12)    r     1 P_TEXT                    10-0-0/c CHAR(12)    r     1 TEMP_CHAR12
    13-0-0/w UBIN        r     1 TEMP_UBIN


   Procedure Z8IU$CONVERT_DEC_LEFT requires 56 words for executable code.
   Procedure Z8IU$CONVERT_DEC_LEFT requires 12 words of local(AUTO) storage.

PL6.E3A0      #003=Z8IU$CONVERT_OCTAL File=Z8IU.:Z8A6TSI                         SAT 08/09/97 13:30 Page:20
       99        1        /*T***********************************************************/
      100        2        /*T*                                                         */
      101        3        /*T* Copyright (c) Bull HN Information Systems Inc., 1997    */
      102        4        /*T*                                                         */
      103        5        /*T***********************************************************/
      104        6        Z8IU$CONVERT_OCTAL: PROC(P_TEXT,P_BINARY);
      105        7
      106        8        /*D*     NAME:     Z8IU$CONVERT_OCTAL
      107        9                 PURPOSE:  THIS ROUTINE WILL CONVERT A BINARY NUMBER TO
      108       10                      6 CHARACTER PRINTABLE OCTAL.
      109       11                 ENTRY POINTS:
      110       12                      Z8IU$CONVERT_OCTAL_SUP
      111       13                 INPUT:
      112       14                      P_BINARY
      113       15                 OUTPUT:
      114       16                      P_TEXT
      115       17                 INTERFACE:     NONE
      116       18                 DESCRIPTION:   THE Z8IU$CONVERT_OCTAL ROUTINE WILL CONVERT A
      117       19                      BINARY NUMBER TO PRINTABLE OCTAL IN TWO FORMATS.
      118       20                      IF Z8IU$CONVERT_OCTAL IS CALLED, SIX OCTAL DIGITS WILL
      119       21                      BE RETURNED.  IF Z8IU$CONVERT_OCTAL_SUP IS CALLED, SIX
      120       22                      OCATL DIGITS WITH LEADING ZERO SUPPRESSION WILL
      121       23                      RETURNED.
      122       24        */
      123       25
      124       26    1   DCL P_TEXT CHAR(6);
      125       27
      126       28    1   DCL MOP6(0:1) BIT(9) CONSTANT INIT('105'O,'327'O /*Mvzbn,mvc7*/);
      127       29                                                /*
      128       30                                                */
      129       31    1   DCL TXT(0:5) CHAR(1);
      130       32    1   DCL TXTX REDEF TXT CHAR(6);
      131       33    1   DCL 1 P_BINARY ALIGNED,
      132       34    1         2 * BIT(18),
      133       35    1         2 D0(0:5) UBIN(3) UNAL;
      134       36    1   DCL ZEROSUPFLG BIT(1);
      135       37                                                /*
PL6.E3A0      #003=Z8IU$CONVERT_OCTAL File=Z8IU.:Z8A6TSI                         SAT 08/09/97 13:30 Page:21
      136       38                                                */
      137       39    1           ZEROSUPFLG='0'B;
      138       40    1           GOTO CVT1;
      139       41                                                /*
      140       42                                                The following entry is for
      141       43                                                zero suppression
      142       44                                                */
      143       45    1   Z8IU$CONVERT_OCTAL_SUP: ENTRY(P_TEXT,P_BINARY);
      144       46    1           ZEROSUPFLG='1'B;
      145       47    1   CVT1:
      146       48    1           TXT(0)=BINASC(P_BINARY.D0(0)+ASCBIN('0'));
      147       49    1           TXT(1)=BINASC(P_BINARY.D0(1)+ASCBIN('0'));
      148       50    1           TXT(2)=BINASC(P_BINARY.D0(2)+ASCBIN('0'));
      149       51    1           TXT(3)=BINASC(P_BINARY.D0(3)+ASCBIN('0'));
      150       52    1           TXT(4)=BINASC(P_BINARY.D0(4)+ASCBIN('0'));
      151       53    1           TXT(5)=BINASC(P_BINARY.D0(5)+ASCBIN('0'));
      152       54    1           IF ZEROSUPFLG THEN
      153       55    1              CALL EDITCHAR(P_TEXT,0,6,MOP6,TXTX);
      154       56    1           ELSE
      155       57    1              P_TEXT=TXTX;
      156       58    1           RETURN;
      157       59    1   END Z8IU$CONVERT_OCTAL;

PL6.E3A0      #003=Z8IU$CONVERT_OCTAL File=Z8IU.:Z8A6TSI                         SAT 08/09/97 13:30 Page:22
      No diagnostics issued in procedure Z8IU$CONVERT_OCTAL.

   Procedure Z8IU$CONVERT_OCTAL requires 67 words for executable code.
   Procedure Z8IU$CONVERT_OCTAL requires 8 words of local(AUTO) storage.

    No errors detected in file Z8IU.:Z8A6TSI    .

PL6.E3A0      #003=Z8IU$CONVERT_OCTAL File=Z8IU.:Z8A6TSI                         SAT 08/09/97 13:30 Page:23

 Object Unit name= Z8IU$CONVERT_OCTAL                         File name= Z8IU.:Z8A6TOU
 UTS= AUG 09 '97 13:30:10.60 SAT                              Compiler= PL-6/E31         Sev=      00
 SharedLib= :SHARED_SYSTEM                                    Alt SharedLib=


    ****  Control sections  ****

 Sect   Type Bound  Init  Size OctSiz  Section name(segment info)
    0  RoData even  UTS      1      1  Z8IU$CONVERT_OCTAL
    1   Proc  even  none    67    103  Z8IU$CONVERT_OCTAL
    2  RoData even  none     1      1  Z8IU$CONVERT_OCTAL

    ****  Entry defs  ****

                              Check   Calling
                             calling  sequence
  Sect OctLoc Primary Altret sequence   type   Parms  Name
     1      0   yes            yes      Std        2  Z8IU$CONVERT_OCTAL
     1      4                  yes      Std        2  Z8IU$CONVERT_OCTAL_SUP

  ****  Entry refs  ****

         Check        Calling
        calling       sequence
Altret sequence SRef   type   Args  Name
                       nStd      0 X66_AUTO_2
                       nStd      0 X66_ARET
PL6.E3A0      #003=Z8IU$CONVERT_OCTAL File=Z8IU.:Z8A6TSI                         SAT 08/09/97 13:30 Page:24


       99        1        /*T***********************************************************/
      100        2        /*T*                                                         */
      101        3        /*T* Copyright (c) Bull HN Information Systems Inc., 1997    */
      102        4        /*T*                                                         */
      103        5        /*T***********************************************************/
      104        6        Z8IU$CONVERT_OCTAL: PROC(P_TEXT,P_BINARY);

      6  1 000000   000000 700200 xent  Z8IU$CONVER* TSX0  ! X66_AUTO_2
         1 000001   000010 000002                    ZERO    8,2

      105        7
      106        8        /*D*     NAME:     Z8IU$CONVERT_OCTAL
      107        9                 PURPOSE:  THIS ROUTINE WILL CONVERT A BINARY NUMBER TO
      108       10                      6 CHARACTER PRINTABLE OCTAL.
      109       11                 ENTRY POINTS:
      110       12                      Z8IU$CONVERT_OCTAL_SUP
      111       13                 INPUT:
      112       14                      P_BINARY
      113       15                 OUTPUT:
      114       16                      P_TEXT
      115       17                 INTERFACE:     NONE
      116       18                 DESCRIPTION:   THE Z8IU$CONVERT_OCTAL ROUTINE WILL CONVERT A
      117       19                      BINARY NUMBER TO PRINTABLE OCTAL IN TWO FORMATS.
      118       20                      IF Z8IU$CONVERT_OCTAL IS CALLED, SIX OCTAL DIGITS WILL
      119       21                      BE RETURNED.  IF Z8IU$CONVERT_OCTAL_SUP IS CALLED, SIX
      120       22                      OCATL DIGITS WITH LEADING ZERO SUPPRESSION WILL
      121       23                      RETURNED.
      122       24        */
      123       25
      124       26    1   DCL P_TEXT CHAR(6);
      125       27
      126       28    1   DCL MOP6(0:1) BIT(9) CONSTANT INIT('105'O,'327'O /*Mvzbn,mvc7*/);
      127       29                                                /*
      128       30                                                */
      129       31    1   DCL TXT(0:5) CHAR(1);
      130       32    1   DCL TXTX REDEF TXT CHAR(6);
PL6.E3A0      #003=Z8IU$CONVERT_OCTAL File=Z8IU.:Z8A6TSI                         SAT 08/09/97 13:30 Page:25
      131       33    1   DCL 1 P_BINARY ALIGNED,
      132       34    1         2 * BIT(18),
      133       35    1         2 D0(0:5) UBIN(3) UNAL;
      134       36    1   DCL ZEROSUPFLG BIT(1);
      135       37                                                /*
      136       38                                                */
      137       39    1           ZEROSUPFLG='0'B;

     39  1 000002   200007 450100                    STZ     ZEROSUPFLG,,AUTO

      138       40    1           GOTO CVT1;

     40  1 000003   000010 710000 1                  TRA     CVT1

      139       41                                                /*
      140       42                                                The following entry is for
      141       43                                                zero suppression
      142       44                                                */
      143       45    1   Z8IU$CONVERT_OCTAL_SUP: ENTRY(P_TEXT,P_BINARY);

     45  1 000004   000000 700200 xent  Z8IU$CONVER* TSX0  ! X66_AUTO_2
         1 000005   000010 000002                    ZERO    8,2

      144       46    1           ZEROSUPFLG='1'B;

     46  1 000006   400000 236003                    LDQ     -131072,DU
         1 000007   200007 756100                    STQ     ZEROSUPFLG,,AUTO

      145       47    1   CVT1:
      146       48    1           TXT(0)=BINASC(P_BINARY.D0(0)+ASCBIN('0'));

     48  1 000010   200004 470500       CVT1         LDP0    @P_BINARY,,AUTO
         1 000011   000000 236100                    LDQ     0,,PR0
         1 000012   000017 772000                    QRL     15
         1 000013   000007 376007                    ANQ     7,DL
         1 000014   000060 036007                    ADLQ    48,DL
         1 000015   000033 736000                    QLS     27
PL6.E3A0      #003=Z8IU$CONVERT_OCTAL File=Z8IU.:Z8A6TSI                         SAT 08/09/97 13:30 Page:26
         1 000016   000000 276000 2                  ORQ     0
         1 000017   200005 552140                    STBQ    TXT,'40'O,AUTO

      147       49    1           TXT(1)=BINASC(P_BINARY.D0(1)+ASCBIN('0'));

     49  1 000020   000000 236100                    LDQ     0,,PR0
         1 000021   000014 772000                    QRL     12
         1 000022   000007 376007                    ANQ     7,DL
         1 000023   000060 036007                    ADLQ    48,DL
         1 000024   000033 736000                    QLS     27
         1 000025   000000 276000 2                  ORQ     0
         1 000026   000011 772000                    QRL     9
         1 000027   200005 552120                    STBQ    TXT,'20'O,AUTO

      148       50    1           TXT(2)=BINASC(P_BINARY.D0(2)+ASCBIN('0'));

     50  1 000030   000000 236100                    LDQ     0,,PR0
         1 000031   000011 772000                    QRL     9
         1 000032   000007 376007                    ANQ     7,DL
         1 000033   000060 036007                    ADLQ    48,DL
         1 000034   000033 736000                    QLS     27
         1 000035   000000 276000 2                  ORQ     0
         1 000036   000022 772000                    QRL     18
         1 000037   200005 552110                    STBQ    TXT,'10'O,AUTO

      149       51    1           TXT(3)=BINASC(P_BINARY.D0(3)+ASCBIN('0'));

     51  1 000040   000000 236100                    LDQ     0,,PR0
         1 000041   000006 772000                    QRL     6
         1 000042   000007 376007                    ANQ     7,DL
         1 000043   000060 036007                    ADLQ    48,DL
         1 000044   000033 736000                    QLS     27
         1 000045   000000 276000 2                  ORQ     0
         1 000046   000033 772000                    QRL     27
         1 000047   200005 552104                    STBQ    TXT,'04'O,AUTO

      150       52    1           TXT(4)=BINASC(P_BINARY.D0(4)+ASCBIN('0'));
PL6.E3A0      #003=Z8IU$CONVERT_OCTAL File=Z8IU.:Z8A6TSI                         SAT 08/09/97 13:30 Page:27

     52  1 000050   000000 236100                    LDQ     0,,PR0
         1 000051   000003 772000                    QRL     3
         1 000052   000007 376007                    ANQ     7,DL
         1 000053   000060 036007                    ADLQ    48,DL
         1 000054   000033 736000                    QLS     27
         1 000055   000000 276000 2                  ORQ     0
         1 000056   200006 552140                    STBQ    TXT+1,'40'O,AUTO

      151       53    1           TXT(5)=BINASC(P_BINARY.D0(5)+ASCBIN('0'));

     53  1 000057   000000 236100                    LDQ     0,,PR0
         1 000060   000007 376007                    ANQ     7,DL
         1 000061   000060 036007                    ADLQ    48,DL
         1 000062   000033 736000                    QLS     27
         1 000063   000000 276000 2                  ORQ     0
         1 000064   000011 772000                    QRL     9
         1 000065   200006 552120                    STBQ    TXT+1,'20'O,AUTO

      152       54    1           IF ZEROSUPFLG THEN

     54  1 000066   200007 234100                    SZN     ZEROSUPFLG,,AUTO
         1 000067   000076 605000 1                  TPL     s:57

      153       55    1              CALL EDITCHAR(P_TEXT,0,6,MOP6,TXTX);

     55  1 000070   200003 471500                    LDP1    @P_TEXT,,AUTO
         1 000071   100000 024500                    MVNE
         1 000072   200005 030006                    NDSC9   TXT,,AUTO                cn=0,s=nosgn,sf=0,n=6
         1 000073   000000 000002 0                  ADSC9   MOP6                     cn=0,n=2
         1 000074   100000 000006                    ADSC9   0,,PR1                   cn=0,n=6
         1 000075   000102 710000 1                  TRA     s:58

      154       56    1           ELSE
      155       57    1              P_TEXT=TXTX;

     57  1 000076   200003 471500                    LDP1    @P_TEXT,,AUTO
PL6.E3A0      #003=Z8IU$CONVERT_OCTAL File=Z8IU.:Z8A6TSI                         SAT 08/09/97 13:30 Page:28
         1 000077   040100 100500                    MLR     fill='040'O
         1 000100   200005 000006                    ADSC9   TXT,,AUTO                cn=0,n=6
         1 000101   100000 000006                    ADSC9   0,,PR1                   cn=0,n=6

      156       58    1           RETURN;

     58  1 000102   000000 702200 xent               TSX2  ! X66_ARET
      157       59    1   END Z8IU$CONVERT_OCTAL;

PL6.E3A0      #003=Z8IU$CONVERT_OCTAL File=Z8IU.:Z8A6TSI                         SAT 08/09/97 13:30 Page:29
      No diagnostics issued in procedure Z8IU$CONVERT_OCTAL.
PL6.E3A0      #003=Z8IU$CONVERT_OCTAL File=Z8IU.:Z8A6TSI                         SAT 08/09/97 13:30 Page:30

 **** Variables and constants ****

  ****  Section 000 RoData Z8IU$CONVERT_OCTAL

  ****  Scalars and arrays  ****
OctLoc.c.b A Datatyp(siz) R M Lvl/name                 OctLoc.c.b A Datatyp(siz) R M Lvl/name

     0-0-0/b BIT (9)     r     1 MOP6(0:1)

  ****  Auto variables  ****

  ****  Scalars and arrays  ****
OctLoc.c.b A Datatyp(siz) R M Lvl/name                 OctLoc.c.b A Datatyp(siz) R M Lvl/name

     4-0-0/w PTR         r     1 @P_BINARY                  3-0-0/w PTR         r     1 @P_TEXT
    *0-0-0/w STRC        r     1 P_BINARY                  *0-0-0/c CHAR(6)     r     1 P_TEXT
     5-0-0/c CHAR        r     1 TXT(0:5)                   5-0-0/c CHAR(6)     r     1 TXTX
     7-0-0/b BIT         r     1 ZEROSUPFLG


   Procedure Z8IU$CONVERT_OCTAL requires 67 words for executable code.
   Procedure Z8IU$CONVERT_OCTAL requires 8 words of local(AUTO) storage.

    No errors detected in file Z8IU.:Z8A6TSI    .
