VERSION A06

PL6.E3A0      #001=Z8JT$TABLE_DUMP File=Z8JT.:Z8A6TSI                            SAT 08/09/97 13:32 Page:1
        1        1        /*M* Z8JT$TABLE_DUMP -- Dumps I. L. Tables */
        2        2        /*T***********************************************************/
        3        3        /*T*                                                         */
        4        4        /*T* Copyright (c) Bull HN Information Systems Inc., 1997    */
        5        5        /*T*                                                         */
        6        6        /*T***********************************************************/
        7        7
        8        8
        9        9        /*P*   NAME: Z8JT$TABLE_DUMP
       10       10            PURPOSE: Print out the various tables (ILS, ILL, etc.),
       11       11                     COMCOM and compiler timings.
       12       12        */
       13       13
       14       14        /*D*   NAME: Z8JT$TABLE_DUMP
       15       15               CALL: CALL Z8JT$TABLE_DUMP
       16       16          INTERFACE: Z9AL -- Prints a line.
       17       17        DESCRIPTION::
       18       18
       19       19           YE OLDE TABLE DUMPER:
       20       20           == ==== ===== ======
       21       21
       22       22           DUMP EACH ITEM IN EACH TABLE (ILL, ETT, ST, ETC.)
       23       23           IN THE FOLLOWING FORMAT:
       24       24
       25       25             LOC NAME WORD1 WORD2 ...
       26       26              6 1 8    12  1  12  ...
       27       27
       28       28           THIS MODULE ALSO CONTAINS THE ENTRY Z8JT$DUMP_TIMES
       29       29           CALLED BY THE EXEC WHEN THE "STATS" OPTION IS ON.
       30       30        */
       31       31
       32       32        %EJECT;
PL6.E3A0      #001=Z8JT$TABLE_DUMP File=Z8JT.:Z8A6TSI                            SAT 08/09/97 13:32 Page:2
       33       33        /*---------------*/
       34       34          Z8JT$TABLE_DUMP:     PROC;
       35       35        /*---------------*/
       36       36
       37       37        %MACRO SET_TIME (I = I) ;
       38       38
       39       39                 CALL BINCHAR (CHAR10, COMCOM.TIMES(I)) ;
       40       40                 TIME.SECONDS = SUBSTR (CHAR10, 0, 4) ;
       41       41                 TIME.MILLIS  = SUBSTR (CHAR10, 4, 3) ;
       42       42                 TIME.MICROS  = SUBSTR (CHAR10, 7, 3) ;
       43       43
       44       44                 /* BLANK WHEN ZERO "SECONDS" A LA PIC ZZZ9 */
       45       45
       46       46                 ZERO = '1'B ;
       47       47                 DO J = 0 TO 2 ;
       48       48                   IF ZERO THEN DO ;
       49       49                     IF SUBSTR (TIME.SECONDS, J, 1) = '0'
       50       50                     THEN SUBSTR (TIME.SECONDS, J, 1) = ' ' ;
       51       51                     ELSE ZERO = '0'B ;
       52       52                   END ;
       53       53                 END ;
       54       54
       55       55                 /* COMPUTE LINES PER MINUTE */
       56       56
       57       57                 J = COMCOM.TIMES (I) / 1000 ; /* Milli-seconds */
       58       58                 IF J = 0
       59       59                 THEN J = 9999999 ;
       60       60                 ELSE J = COMCOM.LINES.SOURCE * 60000 / J ;
       61       61
       62       62                 IF J > 999999
       63       63                 THEN CHAR10 = '9999999999' ;
       64       64                 ELSE CALL BINCHAR (CHAR10, J) ;
       65       65
       66       66                 TIME.LPM1 = SUBSTR (CHAR10, 4, 3) ;
       67       67                 TIME.LPM2 = SUBSTR (CHAR10, 7, 3) ;
       68       68
       69       69                 /* BLANK WHEN ZERO "LPM1" A LA PIC ZZ9 */
PL6.E3A0      #001=Z8JT$TABLE_DUMP File=Z8JT.:Z8A6TSI                            SAT 08/09/97 13:32 Page:3
       70       70
       71       71                 ZERO = '1'B ;
       72       72                 DO J = 0 TO 1 ;
       73       73                   IF ZERO THEN DO ;
       74       74                     IF SUBSTR (TIME.LPM1, J, 1) = '0'
       75       75                     THEN SUBSTR (TIME.LPM1, J, 1) = ' ' ;
       76       76                     ELSE ZERO = '0'B ;
       77       77                   END ;
       78       78                 END ;
       79       79
       80       80        %MEND ;
       81       81        %MACRO DUMP_ITEM;
       82       82            DO;
       83       83                 LENGTH = ILL_STEP (PTR$->ILL.ID - %FIRST_ILL) ;
       84       84                 CALL Z8JT$DUMP_ITEM ( PTR$, LENGTH );
       85       85            END;
       86       86        %MEND;
       87       87        %EJECT;
PL6.E3A0      #001=Z8JT$TABLE_DUMP File=Z8JT.:Z8A6TSI                            SAT 08/09/97 13:32 Page:4
       88       88
       89       89        %EQU PHASE = 6 ;
       90       90
       91       91            %INCLUDE Z8A_DEFC ;
       92      159            %SET INITIALIZE = TRUE;
       93      160            %INCLUDE Z8A_SUPP_MAC ;
       94     2560            %SET INITIALIZE = FALSE;
       95     2561            %INCLUDE Z8A_DPI ;
       96     2645            %INCLUDE Z8A_ERR ;
       97     2714            %INCLUDE Z8A_ILL ;
       98     3407            %INCLUDE Z8A_ILS ;
       99     3516            %INCLUDE Z8A_OBJ ;
      100     4013            %INCLUDE Z8A_ETT ;
      101     4314            %INCLUDE Z8E_HEAPINFO ;
      102     4352            %INCLUDE Z8A_ST ;
      103     8011            %INCLUDE Z8A_LTS;
      104    10088            %INCLUDE Z8A_DNT ;
      105    10309            %INCLUDE Z8A_QLT ;
      106    10415            %INCLUDE Z8A_GST ;
      107    10475            %INCLUDE Z8A_XREF ;
      108    10547            %INCLUDE Z8A_COMCOM ;
      109    11197
      110    11198
      111    11199
      112    11200        %EQU LINE1 =  7 ; /* # OF WORDS PER LINE */
      113    11201        %EQU LINE2 = 14 ; /* # OF WORDS PER 2 LINES */
      114    11202
      115    11203    1   DCL   LENGTH UBIN WORD STATIC ; /* LENGTH OF ITEM IN WORDS */
      116    11204    1   DCL   PTR$   PTR       STATIC ; /* POINTER TO ITEM         */
      117    11205    1   DCL   PTR_U  REDEF PTR$ UBIN WORD ;
      118    11206    1   DCL   I      SBIN WORD AUTO   ; /* TEMP                    */
      119    11207    1   DCL   J      SBIN WORD ;
      120    11208    1   DCL   CURRENT_LINE      SBIN WORD;
      121    11209    1   DCL   ZERO   BIT (1) ;
      122    11210    1   DCL   CHAR10 CHAR (10) ;
      123    11211    1   DCL   OBUF   CHAR (120) EXT;    /* BUFFER TO WRITE         */
      124    11212
PL6.E3A0      #001=Z8JT$TABLE_DUMP File=Z8JT.:Z8A6TSI                            SAT 08/09/97 13:32 Page:5
      125    11213    1   DCL 1  TIME    REDEF OBUF,   /* USED BY DUMP_TIMES ROUTINE */
      126    11214    1        2 PHASE   CHAR  (6) UNAL,
      127    11215    1        2 NUMBER  CHAR  (1) UNAL,
      128    11216    1        2 BLANK   CHAR  (1) UNAL,
      129    11217    1        2 SECONDS CHAR  (4) UNAL,
      130    11218    1        2 DECIMAL CHAR  (1) UNAL,
      131    11219    1        2 MILLIS  CHAR  (3) UNAL,
      132    11220    1        2 COMMA   CHAR  (1) UNAL,
      133    11221    1        2 MICROS  CHAR  (3) UNAL,
      134    11222    1        2 SEKONDS CHAR  (9) UNAL,
      135    11223    1        2 BLANC   CHAR  (1) UNAL,
      136    11224    1        2 LPM1    CHAR  (3) UNAL,
      137    11225    1        2 COMA    CHAR  (1) UNAL,
      138    11226    1        2 LPM2    CHAR  (3) UNAL,
      139    11227    1        2 LPM     CHAR  (6) UNAL,
      140    11228    1        2 BLANK2  CHAR  (1) UNAL,
      141    11229    1        2 ALOCATD CHAR  (3) UNAL,
      142    11230    1        2 K       CHAR  (1) UNAL,
      143    11231    1        2 *       CHAR (72) UNAL ;
      144    11232
      145    11233    1   DCL 1   CLINE REDEF OBUF, /* A Line of COMCOM  info */
      146    11234    1        2  NAME  CHAR (15) UNAL,
      147    11235    1        2  BIT_  (0:103) CHAR (1) UNAL,
      148    11236    1        2  W     (0:7) REDEF BIT_,
      149    11237    1         3 WORD@ CHAR (12) UNAL,
      150    11238    1         3 *     CHAR  (1) UNAL,
      151    11239    1        2  *     CHAR  (1) UNAL ;
      152    11240
      153    11241    1   DCL 1   TABLE          REDEF OBUF,
      154    11242    1        2  LENGTH_OF      CHAR (10) UNAL, /* "Length of " */
      155    11243    1        2  NAME           CHAR (3)  UNAL, /* "DNT" for example */
      156    11244    1        2  TABLE_IS       CHAR (10) UNAL, /* " table is " */
      157    11245    1        2  AMOUNT         CHAR (4)  UNAL, /* "1012" for example */
      158    11246    1        2  K              CHAR (2)  UNAL, /* "K." */
      159    11247    1        2  *              CHAR (91) UNAL ;
      160    11248
      161    11249    1   DCL   WORDS  (0:999) UBIN WORD BASED (PTR$) ;
PL6.E3A0      #001=Z8JT$TABLE_DUMP File=Z8JT.:Z8A6TSI                            SAT 08/09/97 13:32 Page:6
      162    11250
      163    11251    1       DCL Z9AL$DUMP_LINE               ENTRY;
      164    11252    1       DCL Z9AL$WRITE_BLANK_LINE        ENTRY;
      165    11253    1       DCL Z9AL$FORM_FEED               ENTRY;
      166    11254    1       DCL X8CO$CONV_TO_OCTAL           ENTRY(2);
      167    11255    1       DCL X8CO$CONV_TO_OCTAL_HALF      ENTRY(2);
      168    11256    1       DCL Z8JT$DUMP_ITEM               ENTRY(2);
      169    11257        %EJECT;
PL6.E3A0      #001=Z8JT$TABLE_DUMP File=Z8JT.:Z8A6TSI                            SAT 08/09/97 13:32 Page:7
      170    11258    1          CALL Z9AL$WRITE_BLANK_LINE ;
      171    11259    1          OBUF = COMCOM.LINE1 ; /* Compiler Invocation Line */
      172    11260    1          CALL Z9AL$DUMP_LINE ;
      173    11261    1          CALL Z9AL$WRITE_BLANK_LINE ;
      174    11262
      175    11263    1          OBUF = '<COMCOM>  DUMP' ;
      176    11264    1          CALL Z9AL$DUMP_LINE ;
      177    11265    1          CALL DUMP_COMCOM ;
      178    11266    1          CALL Z9AL$WRITE_BLANK_LINE ;
      179    11267
      180    11268    1          OBUF =
      181    11269    1          '<ERR> DUMP         ID     N     NUMBER        LINE COLUMN' ;
      182    11270    1          CALL Z9AL$DUMP_LINE ;
      183    11271    1          CALL DUMP_ERR ;
      184    11272    1          CALL Z9AL$WRITE_BLANK_LINE ;
      185    11273
      186    11274        %EJECT;
PL6.E3A0      #001=Z8JT$TABLE_DUMP File=Z8JT.:Z8A6TSI                            SAT 08/09/97 13:32 Page:8
      187    11275        /*V*                   Dump_DPI_Table
      188    11276
      189    11277                The DPI table gets dumped if prior to phase 4.  After phase 4
      190    11278                the DPI table has been pooled and no longer exists.
      191    11279        */
      192    11280    1          OBUF =
      193    11281    1          '<ILS> DUMP         ID    SEQNO       B  RDEF   NEXT         ILL$';
      194    11282    1          CALL Z9AL$DUMP_LINE ;
      195    11283    1          IF  COMCOM.CURRENT.PHASE = 2
      196    11284    1          OR  COMCOM.CURRENT.PHASE = 3 THEN
      197    11285    1            CALL DUMP_ILS;
      198    11286    1          ELSE
      199    11287    1            CALL DUMP_ILS2;
      200    11288    1          CALL Z9AL$WRITE_BLANK_LINE ;
      201    11289
      202    11290    1          IF COMCOM.CURRENT.PHASE < 4 THEN
      203    11291    2            DO;
      204    11292    2              OBUF = '<DPI> Table        ID    RDEF   DNAME        NEXT';
      205    11293    2              CALL Z9AL$DUMP_LINE;
      206    11294    2              CALL DUMP_DPI;
      207    11295    2              CALL Z9AL$WRITE_BLANK_LINE;
      208    11296    2            END;
      209    11297        %EJECT;
PL6.E3A0      #001=Z8JT$TABLE_DUMP File=Z8JT.:Z8A6TSI                            SAT 08/09/97 13:32 Page:9
      210    11298    1          OBUF =
      211    11299    1          '<ILL> DUMP         ID    CODE      LOP          ROP          TO_';
      212    11300    1          CALL Z9AL$DUMP_LINE ;
      213    11301    1          IF COMCOM.CURRENT.PHASE = 2
      214    11302    1          OR COMCOM.CURRENT.PHASE = 3 THEN
      215    11303    1            CALL DUMP_ILL;
      216    11304    1          ELSE
      217    11305    1            CALL DUMP_ILL2;
      218    11306    1          CALL Z9AL$WRITE_BLANK_LINE ;
      219    11307
      220    11308    1          OBUF =
      221    11309    1    '<ETT> DUMP         ID   T/COUNT    LOP          ROP         ADDO        CMPSC CMPN
             11309        I';
      222    11310    1          CALL Z9AL$DUMP_LINE ;
      223    11311    1          CALL DUMP_ETT ;
      224    11312    1          CALL Z9AL$WRITE_BLANK_LINE ;
      225    11313
      226    11314    1          OBUF =
      227    11315    1    '<ST> DUMP              ID   STC     SA DESCL   TYPE   REF ATTR           NEXT
             11315            LTS$         DNT$' ;
      228    11316    1          CALL Z9AL$DUMP_LINE ;
      229    11317    1          CALL DUMP_ST ;
      230    11318    1          CALL Z9AL$WRITE_BLANK_LINE ;
      231    11319
      232    11320    1          OBUF =
      233    11321    1     '<LTS> DUMP             ID     N    DN2              SPAN0         DIM0 INDEX$(0)'
             11321                   ;
      234    11322    1          CALL Z9AL$DUMP_LINE ;
      235    11323    1          CALL DUMP_LTS ;
      236    11324    1          CALL Z9AL$WRITE_BLANK_LINE ;
      237    11325
      238    11326    1          OBUF =
      239    11327    1    '<QLT> DUMP             ID     B FATHER       BROTHER         SON          ST$
             11327            DNT$' ;
      240    11328    1          CALL Z9AL$DUMP_LINE ;
      241    11329    1          CALL DUMP_QLT ;
      242    11330    1          CALL Z9AL$WRITE_BLANK_LINE ;
PL6.E3A0      #001=Z8JT$TABLE_DUMP File=Z8JT.:Z8A6TSI                            SAT 08/09/97 13:32 Page:10
      243    11331        %EJECT;
PL6.E3A0      #001=Z8JT$TABLE_DUMP File=Z8JT.:Z8A6TSI                            SAT 08/09/97 13:32 Page:11
      244    11332
      245    11333    1          OBUF =
      246    11334    1          '<GST> DUMP             ID COUNT ROP_OF_SSOP    NEXT' ;
      247    11335    1          CALL Z9AL$DUMP_LINE ;
      248    11336    1          CALL DUMP_GST ;
      249    11337    1          CALL Z9AL$WRITE_BLANK_LINE ;
      250    11338
      251    11339    1          OBUF =
      252    11340    1          '<OBJ> DUMP             ID KEY BLK   INST          ST_PTR' ;
      253    11341    1          CALL Z9AL$DUMP_LINE ;
      254    11342    2          IF COMCOM.OB.OBJ THEN DO ;
      255    11343    2            CALL DUMP_OBJ ;
      256    11344    2          END ;
      257    11345    2          ELSE DO ;
      258    11346    2            OBUF = 'Use the OBJ option to get an OBJ dump' ;
      259    11347    2            CALL Z9AL$DUMP_LINE ;
      260    11348    2          END ;
      261    11349    1          CALL Z9AL$WRITE_BLANK_LINE ;
      262    11350
      263    11351    1          OBUF =
      264    11352    1    '<DNT> DUMP             ID     N    PST         NEXT       ATTR    RW_NO  SIZE  NAM
             11352        E' ;
      265    11353    1          CALL Z9AL$DUMP_LINE ;
      266    11354    2          IF COMCOM.OB.LEXEMES THEN DO ;
      267    11355    2            CALL DUMP_DNT ;
      268    11356    2          END ;
      269    11357    2          ELSE DO ; /* LEXEMES option is off */
      270    11358    2            OBUF = 'Use the LEXEMES option to get a DNT dump' ;
      271    11359    2            CALL Z9AL$DUMP_LINE ;
      272    11360    2          END ;
      273    11361    1          CALL Z9AL$FORM_FEED ;
      274    11362
      275    11363    1          RETURN ;
      276    11364
      277    11365        %EJECT;
PL6.E3A0      #001=Z8JT$TABLE_DUMP File=Z8JT.:Z8A6TSI                            SAT 08/09/97 13:32 Page:12
      278    11366        /*---------------*/
      279    11367    1     Z8JT$DUMP_TIMES:     ENTRY;
      280    11368        /*---------------*/
      281    11369
      282    11370        /*D*   NAME: Z8JT$DUMP_TIMES
      283    11371               CALL: CALL Z8JT$DUMP_TIMES
      284    11372          INTERFACE: Calls Z9AL$DUMP_LINE to print a line.
      285    11373                     Calls Z9AL$WRITE_BLANK_LINE to print a blank line.
      286    11374
      287    11375             INPUTS: COMCOM.TIMES(0:5) -- TIME IN MICRO-SECONDS.
      288    11376             ======                       (TIMES(0) = TOTAL TIME).
      289    11377
      290    11378        DESCRIPTION: Prints the processor times and core used
      291    11379                     for each phase. Called when the user specifies
      292    11380                     the STATS option.  Also prints the size of each table.
      293    11381        */
      294    11382
      295    11383    1          CALL Z9AL$WRITE_BLANK_LINE ;
      296    11384    1          OBUF = ' ';
      297    11385
      298    11386    1          TIME.PHASE = 'PHASE ' ;
      299    11387    1          TIME.DECIMAL = '.' ;
      300    11388    1          TIME.COMMA = ',' ;
      301    11389    1          TIME.SEKONDS = ' SECONDS.' ;
      302    11390    1          TIME.LPM = ' L/M. ' ;
      303    11391    1          TIME.COMA = ',' ;
      304    11392    1          TIME.K    = 'K' ;
      305    11393
      306    11394    2          DO I = 1 TO 5 ;
      307    11395
      308    11396                 /* Print Allocated Memory in "K" Units per Phase */
      309    11397
      310    11398    2            COMCOM.IL_SPACE (I) = (COMCOM.IL_SPACE (I) + 1023) / 1024 ;
      311    11399    2            CALL BINCHAR (TIME.ALOCATD, COMCOM.IL_SPACE (I)) ;
      312    11400    3            IF SUBSTR (TIME.ALOCATD, 0, 1) = '0' THEN DO ; /* PIC ZZ9 */
      313    11401    3              SUBSTR (TIME.ALOCATD, 0, 1) = ' ' ;
      314    11402    4              IF SUBSTR (TIME.ALOCATD, 1, 1) = '0' THEN DO ;
PL6.E3A0      #001=Z8JT$TABLE_DUMP File=Z8JT.:Z8A6TSI                            SAT 08/09/97 13:32 Page:13
      315    11403    4                SUBSTR (TIME.ALOCATD, 1, 1) = ' ' ;
      316    11404    4              END ;
      317    11405    3            END ;
      318    11406
      319    11407    2            CALL BINCHAR (TIME.NUMBER, I) ;
      320    11408                 %SET_TIME (I = I) ;
      321    11442    2            CALL Z9AL$DUMP_LINE ;
      322    11443
      323    11444    2          END ;
      324    11445
      325    11446    1          TIME.PHASE = 'TOTAL ' ;
      326    11447    1          TIME.NUMBER = ' ' ;
      327    11448    1          TIME.ALOCATD = '   ' ;
      328    11449    1          TIME.K       = ' ' ;
      329    11450               %SET_TIME (I = 0) ;
      330    11484    1          CALL Z9AL$DUMP_LINE ;
      331    11485
      332    11486    1          CALL Z9AL$WRITE_BLANK_LINE ;
      333    11487
      334    11488    1          OBUF = ' ' ;
      335    11489    1          TABLE.LENGTH_OF = 'Length of ' ;
      336    11490    1          TABLE.TABLE_IS  = ' table is ' ;
      337    11491    1          TABLE.K         = 'K.' ;
      338    11492
      339    11493    1          TABLE.NAME = 'DNT' ;
      340    11494    1          CALL GET_TABLE_SIZE (ADDR(DNT_), TABLE.AMOUNT) ;
      341    11495    1          CALL Z9AL$DUMP_LINE ;
      342    11496
      343    11497    1          TABLE.NAME = 'DPI' ;
      344    11498    1          CALL GET_TABLE_SIZE (ADDR(DPI_), TABLE.AMOUNT) ;
      345    11499    1          CALL Z9AL$DUMP_LINE ;
      346    11500
      347    11501    1          TABLE.NAME = 'ERR' ;
      348    11502    1          CALL GET_TABLE_SIZE (ADDR(ERR_), TABLE.AMOUNT) ;
      349    11503    1          CALL Z9AL$DUMP_LINE ;
      350    11504
      351    11505    1          TABLE.NAME = 'ETT' ;
PL6.E3A0      #001=Z8JT$TABLE_DUMP File=Z8JT.:Z8A6TSI                            SAT 08/09/97 13:32 Page:14
      352    11506    1          CALL GET_TABLE_SIZE (ADDR(ETT_), TABLE.AMOUNT) ;
      353    11507    1          CALL Z9AL$DUMP_LINE ;
      354    11508
      355    11509    1          TABLE.NAME = 'GST' ;
      356    11510    1          CALL GET_TABLE_SIZE (ADDR(GST_), TABLE.AMOUNT) ;
      357    11511    1          CALL Z9AL$DUMP_LINE ;
      358    11512
      359    11513    1          TABLE.NAME = 'ILL' ;
      360    11514    1          CALL GET_TABLE_SIZE (ADDR(ILL_), TABLE.AMOUNT) ;
      361    11515    1          CALL Z9AL$DUMP_LINE ;
      362    11516
      363    11517    1          TABLE.NAME = 'ILS' ;
      364    11518    1          CALL GET_TABLE_SIZE (ADDR(ILS_), TABLE.AMOUNT) ;
      365    11519    1          CALL Z9AL$DUMP_LINE ;
      366    11520
      367    11521    1          TABLE.NAME = 'LTS' ;
      368    11522    1          CALL GET_TABLE_SIZE (ADDR(LTS_), TABLE.AMOUNT) ;
      369    11523    1          CALL Z9AL$DUMP_LINE ;
      370    11524
      371    11525    1          TABLE.NAME = 'OBJ' ;
      372    11526    1          CALL GET_TABLE_SIZE (ADDR(OBJ_), TABLE.AMOUNT) ;
      373    11527    1          CALL Z9AL$DUMP_LINE ;
      374    11528
      375    11529    1          TABLE.NAME = 'QLT' ;
      376    11530    1          CALL GET_TABLE_SIZE (ADDR(QLT_), TABLE.AMOUNT) ;
      377    11531    1          CALL Z9AL$DUMP_LINE ;
      378    11532
      379    11533    1          TABLE.NAME = 'ST ' ;
      380    11534    1          CALL GET_TABLE_SIZE (ADDR(ST_) , TABLE.AMOUNT) ;
      381    11535    1          CALL Z9AL$DUMP_LINE ;
      382    11536
      383    11537    1          TABLE.NAME = 'XRF' ;
      384    11538    1          CALL GET_TABLE_SIZE (ADDR(XREF_), TABLE.AMOUNT) ;
      385    11539    1          CALL Z9AL$DUMP_LINE ;
      386    11540
      387    11541    1          TABLE.NAME = 'HEP' ;
      388    11542    1          CALL GET_TABLE_SIZE (ADDR(HEAP_), TABLE.AMOUNT) ;
PL6.E3A0      #001=Z8JT$TABLE_DUMP File=Z8JT.:Z8A6TSI                            SAT 08/09/97 13:32 Page:15
      389    11543    1          CALL Z9AL$DUMP_LINE ;
      390    11544
      391    11545    1   RETURN ; /* END OF Z8JT$DUMP_TIMES */
      392    11546
      393    11547        %EJECT;
PL6.E3A0      #001=Z8JT$TABLE_DUMP File=Z8JT.:Z8A6TSI                            SAT 08/09/97 13:32 Page:16
      394    11548    1   GET_TABLE_SIZE : PROC (TABLE$, AMOUNT) ;
      395    11549
      396    11550    2   DCL    TABLE$  PTR ;
      397    11551    2   DCL    AMOUNT  CHAR (3) ;
      398    11552
      399    11553    2   DCL 1  TABLE   ALIGNED BASED (TABLE$),
      400    11554    2        2 TOP     PTR,
      401    11555    2        2 FIRST   PTR,
      402    11556    2        2 BOTTOM  UBIN WORD UNAL,
      403    11557    2        2 FLOOR   UBIN WORD UNAL,
      404    11558    2        2 SIZE    UBIN WORD UNAL ;
      405    11559
      406    11560    2          CALL BINCHAR (AMOUNT, TABLE$ -> TABLE.SIZE) ;
      407    11561
      408    11562    3          IF SUBSTR (AMOUNT, 0, 1) = '0' THEN DO ; /* PIC ZZ9 */
      409    11563    3            SUBSTR (AMOUNT, 0, 1) = ' ' ;
      410    11564    4            IF SUBSTR (AMOUNT, 1, 1) = '0' THEN DO ;
      411    11565    4              SUBSTR (AMOUNT, 1, 1) = ' ' ;
      412    11566    4            END ;
      413    11567    3          END ; /* PIC ZZ9 */
      414    11568
      415    11569    2   END GET_TABLE_SIZE ;
      416    11570
      417    11571        %EJECT;
PL6.E3A0      #001=Z8JT$TABLE_DUMP File=Z8JT.:Z8A6TSI                            SAT 08/09/97 13:32 Page:17
      418    11572    1   DUMP_ILL: PROC ; /* DUMP THE <ILL> TABLE */
      419    11573
      420    11574
      421    11575    2          CURRENT_LINE = COMCOM.CURRENT.LINE;
      422    11576               %TOP_ILL (POINTER = PTR$) ;
      423    11581
      424    11582    3          DO WHILE (PTR$ ~= ADDR(NIL)) ;
      425    11583
      426    11584    3            IF  PTR$->ILL.ID = %LINOI
      427    11585    3            AND PTR$->LINOI.LINE_NO ~= CURRENT_LINE THEN
      428    11586    3              CALL DUMP_LINOI;
      429    11587                 %DUMP_ITEM;
      430    11593
      431    11594                 %STEP_ILL (POINTER = PTR$) ;
      432    11605
      433    11606    3          END;  /* while */
      434    11607
      435    11608    2   END DUMP_ILL ;
      436    11609
      437    11610        %EJECT;
PL6.E3A0      #001=Z8JT$TABLE_DUMP File=Z8JT.:Z8A6TSI                            SAT 08/09/97 13:32 Page:18
      438    11611    1   DUMP_ILL2: PROC ; /* DUMP THE <ILL> TABLE */
      439    11612
      440    11613
      441    11614    2          ILS$ = COMCOM.FIRST_ILS;
      442    11615    3          DO WHILE (ILS$ ~= ADDR(NIL)) ;
      443    11616    3            PTR$ = ILS.ILL$;
      444    11617    3            IF PTR$ ~= ADDR(NIL) THEN
      445    11618    4              DO;
      446    11619    5                DO WHILE( PTR$->ILL.ID = %CCOSU);
      447    11620                       %DUMP_ITEM;
      448    11626    5                  PTR$ = PTR$-> CCOSU.ILL$;
      449    11627    5                END;  /* WHILE */
      450    11628
      451    11629    4                IF  PTR$->ILL.ID = %LINOI
      452    11630    4                AND PTR$->LINOI.LINE_NO ~= CURRENT_LINE THEN
      453    11631    4                  CALL DUMP_LINOI;
      454    11632
      455    11633                     %DUMP_ITEM;
      456    11639    4              END;
      457    11640    3            ILS$ = ILS$ -> ILS.NEXT;
      458    11641    3            PTR$ = ILS$ ;          /* - - - - - - - - - - */
      459    11642    3            IF PTR_U = 0 THEN      /*  Prevent F0 Abort   */
      460    11643    3              ILS$ = ADDR(NIL) ;   /* - - - - - - - - - - */
      461    11644    3          END;  /* while */
      462    11645
      463    11646    2   END DUMP_ILL2 ;
      464    11647
      465    11648        %EJECT;
PL6.E3A0      #001=Z8JT$TABLE_DUMP File=Z8JT.:Z8A6TSI                            SAT 08/09/97 13:32 Page:19
      466    11649    1     DUMP_LINOI:    PROC ;
      467    11650
      468    11651    2       DCL TEMP7       CHAR(7);
      469    11652
      470    11653    2        CURRENT_LINE = PTR$->LINOI.LINE_NO ;
      471    11654    2        CALL Z9AL$WRITE_BLANK_LINE ;
      472    11655    2        OBUF = '************     LINE NO.                ************' ;
      473    11656    2        CALL BINCHAR (TEMP7, CURRENT_LINE) ;
      474    11657
      475    11658             /* BLANK WHEN ZERO LINE# A LA PIC ZZZZZZ9 */
      476    11659
      477    11660    2        ZERO = '1'B ;
      478    11661    3        DO J = 0 TO 5 ;
      479    11662    4          IF ZERO THEN DO ;
      480    11663    4            IF SUBSTR (TEMP7, J, 1) = '0'
      481    11664    4            THEN SUBSTR (TEMP7, J, 1) = ' ' ;
      482    11665    4            ELSE ZERO = '0'B ;
      483    11666    4          END ;
      484    11667    3        END ;
      485    11668
      486    11669    2        SUBSTR (OBUF, 25, 7) = TEMP7 ;
      487    11670    2        CALL Z9AL$DUMP_LINE ;
      488    11671    2     END DUMP_LINOI;  /* PROC */
      489    11672        %EJECT;
PL6.E3A0      #001=Z8JT$TABLE_DUMP File=Z8JT.:Z8A6TSI                            SAT 08/09/97 13:32 Page:20
      490    11673    1   DUMP_ILS: PROC ; /* DUMP THE <ILS> TABLE */
      491    11674
      492    11675               %TOP_ILS (POINTER = PTR$) ;
      493    11680
      494    11681    3          DO WHILE (PTR$ ~= ADDR(NIL)) ;
      495    11682
      496    11683    3            LENGTH = ILS_STEP_TABLE (PTR$->ILS.ID - %FIRST_ILS) ;
      497    11684    3            CALL Z8JT$DUMP_ITEM ( PTR$, LENGTH );
      498    11685                 %STEP_ILS (POINTER = PTR$) ;
      499    11695    3            IF PTR_U = 0 THEN      /* Prevent   */
      500    11696    3              PTR$ = ADDR(NIL) ;   /* F0 Abort  */
      501    11697
      502    11698    3          END;  /* while */
      503    11699
      504    11700    2   END DUMP_ILS ;
      505    11701
      506    11702        %EJECT;
PL6.E3A0      #001=Z8JT$TABLE_DUMP File=Z8JT.:Z8A6TSI                            SAT 08/09/97 13:32 Page:21
      507    11703    1   DUMP_ILS2: PROC ; /* DUMP THE <ILS> TABLE */
      508    11704
      509    11705    2          PTR$ = COMCOM.FIRST_ILS;
      510    11706
      511    11707    3          DO WHILE (PTR$ ~= ADDR(NIL)) ;
      512    11708
      513    11709    3            LENGTH = ILS_STEP_TABLE (PTR$->ILS.ID - %FIRST_ILS) ;
      514    11710    3            CALL Z8JT$DUMP_ITEM ( PTR$, LENGTH );
      515    11711    3            PTR$ = PTR$ -> ILS.NEXT;
      516    11712
      517    11713    3          END;  /* while */
      518    11714
      519    11715    2   END DUMP_ILS2;
      520    11716
      521    11717        %EJECT;
PL6.E3A0      #001=Z8JT$TABLE_DUMP File=Z8JT.:Z8A6TSI                            SAT 08/09/97 13:32 Page:22
      522    11718    1   DUMP_DPI: PROC ; /* DUMP THE <DPI> TABLE */
      523    11719
      524    11720               %TOP_DPI (POINTER = PTR$) ;
      525    11725
      526    11726    3          DO WHILE (PTR$ ~= ADDR(NIL)) ;
      527    11727
      528    11728    3            LENGTH = SIZEW( DPI );
      529    11729    3            CALL Z8JT$DUMP_ITEM ( PTR$, LENGTH );
      530    11730                 %STEP_DPI (POINTER = PTR$) ;
      531    11740
      532    11741    3          END;  /* while */
      533    11742
      534    11743    2   END DUMP_DPI ;
      535    11744
      536    11745        %EJECT;
PL6.E3A0      #001=Z8JT$TABLE_DUMP File=Z8JT.:Z8A6TSI                            SAT 08/09/97 13:32 Page:23
      537    11746    1   DUMP_OBJ: PROC ; /* DUMP THE <OBJ> TABLE */
      538    11747
      539    11748               %TOP_OBJ (POINTER = PTR$) ;
      540    11764
      541    11765    3          DO WHILE (PTR$ ~= ADDR(NIL)) ;
      542    11766
      543    11767    3            LENGTH = OBJ_STEP(PTR$->OBJ.ID - %FIRST_OBJ);
      544    11768    3            CALL Z8JT$DUMP_ITEM ( PTR$, LENGTH );
      545    11769                 %STEP_OBJ (POINTER = PTR$) ;
      546    11793
      547    11794    3          END;  /* while */
      548    11795
      549    11796    2   END DUMP_OBJ ;
      550    11797
      551    11798        %EJECT;
PL6.E3A0      #001=Z8JT$TABLE_DUMP File=Z8JT.:Z8A6TSI                            SAT 08/09/97 13:32 Page:24
      552    11799    1   DUMP_ETT: PROC ; /* DUMP THE <ETT> TABLE */
      553    11800
      554    11801               %TOP_ETT (POINTER = PTR$) ;
      555    11806    2          LENGTH = SIZEW(ETT);
      556    11807
      557    11808    3          DO WHILE (PTR$ ~= ADDR(NIL)) ;
      558    11809
      559    11810    3            CALL Z8JT$DUMP_ITEM ( PTR$, LENGTH );
      560    11811                 %STEP_ETT (POINTER = PTR$) ;
      561    11821
      562    11822    3          END;  /* while */
      563    11823
      564    11824    2   END DUMP_ETT ;
      565    11825
      566    11826        %EJECT;
PL6.E3A0      #001=Z8JT$TABLE_DUMP File=Z8JT.:Z8A6TSI                            SAT 08/09/97 13:32 Page:25
      567    11827    1   DUMP_ST: PROC ; /* DUMP THE <ST> TABLE */
      568    11828
      569    11829               %TOP_ST (POINTER = PTR$) ;
      570    11834    2          LENGTH = SIZEW(ST);
      571    11835
      572    11836    3          DO WHILE (PTR$ ~= ADDR(NIL)) ;
      573    11837
      574    11838    3            CALL Z8JT$DUMP_ITEM ( PTR$, LENGTH );
      575    11839                 %STEP_ST (POINTER = PTR$) ;
      576    11849
      577    11850    3          END;  /* while */
      578    11851
      579    11852    2   END DUMP_ST ;
      580    11853
      581    11854        %EJECT;
PL6.E3A0      #001=Z8JT$TABLE_DUMP File=Z8JT.:Z8A6TSI                            SAT 08/09/97 13:32 Page:26
      582    11855    1   DUMP_LTS: PROC ; /* DUMP THE <LTS> TABLE */
      583    11856
      584    11857               %TOP_LTS (POINTER = PTR$) ;
      585    11862
      586    11863    3          DO WHILE (PTR$ ~= ADDR(NIL)) ;
      587    11864
      588    11865    3            LENGTH = LTS_STEP (PTR$->LTS.ID - %FIRST_LTS) ;
      589    11866    3            IF LENGTH = 0
      590    11867    3            THEN LENGTH = PTR$->LTS.N ;
      591    11868    3            CALL Z8JT$DUMP_ITEM ( PTR$, LENGTH );
      592    11869                 %STEP_LTS (POINTER = PTR$) ;
      593    11882
      594    11883    3          END;  /* while */
      595    11884
      596    11885    2   END DUMP_LTS ;
      597    11886
      598    11887        %EJECT;
PL6.E3A0      #001=Z8JT$TABLE_DUMP File=Z8JT.:Z8A6TSI                            SAT 08/09/97 13:32 Page:27
      599    11888    1   DUMP_DNT: PROC ; /* DUMP THE <DNT> TABLE */
      600    11889
      601    11890               %TOP_DNT (POINTER = PTR$) ;
      602    11895
      603    11896    3          DO WHILE (PTR$ ~= ADDR(NIL)) ;
      604    11897
      605    11898    3            LENGTH = PTR$->DNT.N ;
      606    11899    3            CALL Z8JT$DUMP_ITEM ( PTR$, LENGTH );
      607    11900                 %STEP_DNT (POINTER = PTR$) ;
      608    11910
      609    11911    3          END;  /* while */
      610    11912
      611    11913    2   END DUMP_DNT ;
      612    11914
      613    11915        %EJECT;
PL6.E3A0      #001=Z8JT$TABLE_DUMP File=Z8JT.:Z8A6TSI                            SAT 08/09/97 13:32 Page:28
      614    11916    1   DUMP_QLT: PROC ; /* DUMP THE <QLT> TABLE */
      615    11917
      616    11918               %TOP_QLT (POINTER = PTR$) ;
      617    11923    2          LENGTH = SIZEW(QLT);
      618    11924
      619    11925    3          DO WHILE (PTR$ ~= ADDR(NIL)) ;
      620    11926
      621    11927    3            CALL Z8JT$DUMP_ITEM ( PTR$, LENGTH );
      622    11928                 %STEP_QLT (POINTER = PTR$) ;
      623    11938
      624    11939    3          END;  /* while */
      625    11940
      626    11941    2   END DUMP_QLT ;
      627    11942
      628    11943        %EJECT;
PL6.E3A0      #001=Z8JT$TABLE_DUMP File=Z8JT.:Z8A6TSI                            SAT 08/09/97 13:32 Page:29
      629    11944    1   DUMP_GST: PROC ; /* DUMP THE <GST> TABLE */
      630    11945
      631    11946               %TOP_GST (POINTER = PTR$) ;
      632    11951    2          LENGTH = %GSA_SIZE ;
      633    11952
      634    11953    3          DO WHILE (PTR$ ~= ADDR(NIL)) ;
      635    11954
      636    11955    3            CALL Z8JT$DUMP_ITEM ( PTR$, LENGTH );
      637    11956                 %STEP_GST (POINTER = PTR$) ;
      638    11966
      639    11967    3          END;  /* while */
      640    11968
      641    11969    2   END DUMP_GST ;
      642    11970
      643    11971        %EJECT;
PL6.E3A0      #001=Z8JT$TABLE_DUMP File=Z8JT.:Z8A6TSI                            SAT 08/09/97 13:32 Page:30
      644    11972    1   DUMP_ERR: PROC ; /* DUMP THE <ERR> TABLE */
      645    11973
      646    11974               %TOP_ERR (POINTER = PTR$) ;
      647    11979
      648    11980    3          DO WHILE (PTR$ ~= ADDR(NIL)) ;
      649    11981
      650    11982    3            LENGTH = PTR$->ERR.N ;
      651    11983    3            CALL Z8JT$DUMP_ITEM ( PTR$, LENGTH );
      652    11984                 %STEP_ERR (POINTER = PTR$) ;
      653    11994
      654    11995    3          END;  /* while */
      655    11996
      656    11997    2   END DUMP_ERR ;
      657    11998
      658    11999        %EJECT;
PL6.E3A0      #001=Z8JT$TABLE_DUMP File=Z8JT.:Z8A6TSI                            SAT 08/09/97 13:32 Page:31
      659    12000    1   DUMP_COMCOM: PROC ;
      660    12001
      661    12002    2          OBUF = ' ' ;
      662    12003
      663    12004    2          CLINE.NAME = 'ESC' ;
      664    12005    2          CALL X8CO$CONV_TO_OCTAL (COMCOM.ESC, CLINE.W.WORD@(0)) ;
      665    12006    2          CALL Z9AL$DUMP_LINE ;
      666    12007
      667    12008    2          CLINE.NAME = 'FIRST_ILS' ;
      668    12009    2          CALL X8CO$CONV_TO_OCTAL (COMCOM.FIRST_ILS, CLINE.W.WORD@(0)) ;
      669    12010    2          CALL Z9AL$DUMP_LINE ;
      670    12011    2          OBUF = ' ' ;
      671    12012
      672    12013    2          CLINE.NAME = 'OPTION_BITS' ;
      673    12014    3          DO I = 0 TO 5 ;
      674    12015    4            DO J = 0 TO 11 ;
      675    12016    4              IF COMCOM.OPTION_BITS (I*12 + J) = '1'B
      676    12017    4              THEN CLINE.BIT_(I*13 + J) = '1' ;
      677    12018    4              ELSE CLINE.BIT_(I*13 + J) = '0' ;
      678    12019    4            END ;
      679    12020    3          END ;
      680    12021    2          CALL Z9AL$DUMP_LINE ;
      681    12022    2          OBUF = ' ' ;
      682    12023
      683    12024    2          CALL Z9AL$DUMP_LINE;
      684    12025    2          OBUF = ' ';
      685    12026
      686    12027
      687    12028    2          CLINE.NAME = 'FILL' ;
      688    12029    2          CALL X8CO$CONV_TO_OCTAL (COMCOM.EIS.FILL, CLINE.W.WORD@(0)) ;
      689    12030    2          CALL Z9AL$DUMP_LINE ;
      690    12031    2          OBUF = ' ' ;
      691    12032
      692    12033    2          CLINE.NAME = 'D_ZERO & D_ONE' ;
      693    12034    2          CALL X8CO$CONV_TO_OCTAL (COMCOM.D_ZERO, CLINE.W.WORD@(0)) ;
      694    12035    2          CALL X8CO$CONV_TO_OCTAL (COMCOM.D_ONE,  CLINE.W.WORD@(1)) ;
      695    12036    2          CALL Z9AL$DUMP_LINE ;
PL6.E3A0      #001=Z8JT$TABLE_DUMP File=Z8JT.:Z8A6TSI                            SAT 08/09/97 13:32 Page:32
      696    12037    2          OBUF = ' ' ;
      697    12038
      698    12039    2          CLINE.NAME = 'TIMES' ;
      699    12040    3          DO I = 0 TO 5 ;
      700    12041    3            CALL X8CO$CONV_TO_OCTAL (COMCOM.TIMES(I), CLINE.W.WORD@(I)) ;
      701    12042    3          END ;
      702    12043    2          CALL Z9AL$DUMP_LINE ;
      703    12044    2          OBUF = ' ' ;
      704    12045
      705    12046    2          CLINE.NAME = 'LINES, CURRENT ' ;
      706    12047    2          CALL X8CO$CONV_TO_OCTAL (COMCOM.LINES.SOURCE, CLINE.W.WORD@(0)) ;
      707    12048    2          CALL X8CO$CONV_TO_OCTAL (COMCOM.CURRENT.PHASE, CLINE.W.WORD@(1)) ;
      708    12049    2          CALL X8CO$CONV_TO_OCTAL (CURRENT_LINE, CLINE.W.WORD@(2)) ;
      709    12050    2          CALL X8CO$CONV_TO_OCTAL (COMCOM.CURRENT.COLUMN, CLINE.W.WORD@(3)) ;
      710    12051    2          CALL Z9AL$DUMP_LINE ;
      711    12052    2          OBUF = ' ' ;
      712    12053
      713    12054             /*
      714    12055               CLINE.NAME = 'SYMREFC & SYMREF$' ;
      715    12056               CALL X8CO$CONV_TO_OCTAL (COMCOM.SYMREFC, CLINE.W.WORD@(0)) ;
      716    12057               CALL X8CO$CONV_TO_OCTAL (COMCOM.SYMREF$, CLINE.W.WORD@(1)) ;
      717    12058               CALL Z9AL$DUMP_LINE ;
      718    12059               OBUF = ' ' ;
      719    12060             */
      720    12061
      721    12062    2          CLINE.NAME = 'COMPILE' ;
      722    12063    2          PTR$ = ADDR( COMCOM.COMPILE );
      723    12064    3          DO I = 0 TO 4 ;
      724    12065    3            CALL X8CO$CONV_TO_OCTAL (PTR$->WORDS(I), CLINE.W.WORD@(I)) ;
      725    12066    3          END ;
      726    12067    2          CALL Z9AL$DUMP_LINE ;
      727    12068    2          OBUF = ' ' ;
      728    12069
      729    12070    2          CLINE.NAME = 'BLOCKC, BLOCK$' ;
      730    12071    2          CALL X8CO$CONV_TO_OCTAL (COMCOM.BLOCKC, CLINE.W.WORD@(0)) ;
      731    12072    2          CALL X8CO$CONV_TO_OCTAL (COMCOM.BLOCK$, CLINE.W.WORD@(1)) ;
      732    12073    2          CALL Z9AL$DUMP_LINE ;
PL6.E3A0      #001=Z8JT$TABLE_DUMP File=Z8JT.:Z8A6TSI                            SAT 08/09/97 13:32 Page:33
      733    12074    2          OBUF = ' ' ;
      734    12075
      735    12076    2          CLINE.NAME = 'PROC$,PROC_END ' ;
      736    12077    2          CALL X8CO$CONV_TO_OCTAL (COMCOM.OU_EXTERNAL_NAME$, CLINE.W.WORD@(0)) ;
      737    12078    2          CALL X8CO$CONV_TO_OCTAL (COMCOM.PROC_END, CLINE.W.WORD@(1)) ;
      738    12079    2          CALL Z9AL$DUMP_LINE ;
      739    12080    2          OBUF = ' ' ;
      740    12081
      741    12082    2          CLINE.NAME = 'SEGMENT$' ;
      742    12083    3          DO I = 0 TO 6 ;
      743    12084    3            CALL X8CO$CONV_TO_OCTAL (COMCOM.SEGMENT$(I), CLINE.W.WORD@(I)) ;
      744    12085    3          END ;
      745    12086    2          CALL Z9AL$DUMP_LINE ;
      746    12087    2          OBUF = ' ' ;
      747    12088
      748    12089    2          CLINE.NAME = 'SGMC,SDFC,SDF$' ;
      749    12090    2          CALL X8CO$CONV_TO_OCTAL (COMCOM.SEGMENTC, CLINE.W.WORD@(0)) ;
      750    12091    2          CALL X8CO$CONV_TO_OCTAL (COMCOM.SYMDEFC, CLINE.W.WORD@(1)) ;
      751    12092    2          CALL X8CO$CONV_TO_OCTAL (COMCOM.SYMDEF$, CLINE.W.WORD@(2)) ;
      752    12093    2          CALL Z9AL$DUMP_LINE ;
      753    12094    2          OBUF = ' ' ;
      754    12095
      755    12096    2          CLINE.NAME = 'MAX ARGS, PRMS ' ;
      756    12097    2          CALL X8CO$CONV_TO_OCTAL (COMCOM.MAX_ARGS, CLINE.W.WORD@(0)) ;
      757    12098    2          CALL X8CO$CONV_TO_OCTAL (COMCOM.MAX_PARAMS, CLINE.W.WORD@(1)) ;
      758    12099    2          CALL Z9AL$DUMP_LINE ;
      759    12100    2          OBUF = ' ' ;
      760    12101
      761    12102    2          CLINE.NAME = 'H_LBL & PLUGS. ' ;
      762    12103    2          CALL X8CO$CONV_TO_OCTAL (COMCOM.H_LBL, CLINE.W.WORD@(0)) ;
      763    12104    2          CALL X8CO$CONV_TO_OCTAL (COMCOM.PLUGS_USED, CLINE.W.WORD@(1)) ;
      764    12105    2          CALL Z9AL$DUMP_LINE ;
      765    12106    2          OBUF = ' ' ;
      766    12107
      767    12108    2          CLINE.NAME = 'H_BASE' ;
      768    12109    2          CALL X8CO$CONV_TO_OCTAL (COMCOM.H_BASE, CLINE.W.WORD@(0)) ;
      769    12110    2          CALL Z9AL$DUMP_LINE ;
PL6.E3A0      #001=Z8JT$TABLE_DUMP File=Z8JT.:Z8A6TSI                            SAT 08/09/97 13:32 Page:34
      770    12111    2          OBUF = ' ' ;
      771    12112
      772    12113    2          CLINE.NAME = 'IL_SPACE' ;
      773    12114    3          DO I = 0 TO 5 ;
      774    12115    3            CALL X8CO$CONV_TO_OCTAL (COMCOM.IL_SPACE(I), CLINE.W.WORD@(I)) ;
      775    12116    3          END ;
      776    12117    2          CALL Z9AL$DUMP_LINE ;
      777    12118    2          OBUF = ' ' ;
      778    12119
      779    12120    2          CLINE.NAME = 'H_DO & H_BRNCH' ;
      780    12121    2          CALL X8CO$CONV_TO_OCTAL (COMCOM.H_DO, CLINE.W.WORD@(0)) ;
      781    12122    2          CALL X8CO$CONV_TO_OCTAL (COMCOM.H_BRANCH, CLINE.W.WORD@(1)) ;
      782    12123    2          CALL Z9AL$DUMP_LINE ;
      783    12124    2          OBUF = ' ' ;
      784    12125
      785    12126    2          CLINE.NAME = 'LINE1' ;
      786    12127    2          SUBSTR (OBUF, 15, 105) = COMCOM.LINE1 ;
      787    12128    2          CALL Z9AL$DUMP_LINE ;
      788    12129    2          OBUF = ' ' ;
      789    12130
      790    12131    2          CLINE.NAME = 'ESC_LIST' ;
      791    12132    3          DO I = 0 TO 4 ;
      792    12133    3            CALL X8CO$CONV_TO_OCTAL (COMCOM.ESC_LIST(I), CLINE.W.WORD@(I)) ;
      793    12134    3          END ;
      794    12135    2          CALL Z9AL$DUMP_LINE ;
      795    12136    2          OBUF = ' ' ;
      796    12137
      797    12138    2          CLINE.NAME = 'REDEF&SEVERITY' ;
      798    12139    2          CALL X8CO$CONV_TO_OCTAL (COMCOM.COMMON_REDEF, CLINE.W.WORD@(0));
      799    12140    2          CALL X8CO$CONV_TO_OCTAL (COMCOM.SEVERITY, CLINE.W.WORD@(1)) ;
      800    12141    2          CALL Z9AL$DUMP_LINE ;
      801    12142    2          OBUF = ' ' ;
      802    12143
      803    12144    2   END DUMP_COMCOM ;
      804    12145    1   END Z8JT$TABLE_DUMP;
      805    12146        %EOD;

PL6.E3A0      #001=Z8JT$TABLE_DUMP File=Z8JT.:Z8A6TSI                            SAT 08/09/97 13:32 Page:35
--  Include file information  --

   Z8A_COMCOM.:Z8A6TOU  cannot be made into a system file and is referenced.
   Z8A_XREF.:Z8A6TOU  cannot be made into a system file and is referenced.
   Z8A_GST.:Z8A6TOU  cannot be made into a system file and is referenced.
   Z8A_QLT.:Z8A6TOU  cannot be made into a system file and is referenced.
   Z8A_DNT.:Z8A6TOU  cannot be made into a system file and is referenced.
   Z8A_LTS.:Z8A6TOU  cannot be made into a system file and is referenced.
   Z8A_ST.:Z8A6TOU  cannot be made into a system file and is referenced.
   Z8E_HEAPINFO.:Z8A6TOU  cannot be made into a system file and is referenced.
   Z8A_ETT.:Z8A6TOU  cannot be made into a system file and is referenced.
   Z8A_OBJ.:Z8A6TOU  cannot be made into a system file and is referenced.
   Z8A_ILS.:Z8A6TOU  cannot be made into a system file and is referenced.
   Z8A_ILL.:Z8A6TOU  cannot be made into a system file and is referenced.
   Z8A_ERR.:Z8A6TOU  cannot be made into a system file and is referenced.
   Z8A_DPI.:Z8A6TOU  cannot be made into a system file and is referenced.
   X8A_COM_MACS.:X8A6TOU  is referenced.
   Z8A_NAMES.:Z8A6TOU  cannot be made into a system file and is referenced.
   Z8A_SUPP_MAC.:Z8A6TOU  is referenced.
   Z8A_DEFC.:Z8A6TOU  cannot be made into a system file and is referenced.
      No diagnostics issued in procedure Z8JT$TABLE_DUMP.

   Procedure Z8JT$TABLE_DUMP requires 1607 words for executable code.
   Procedure Z8JT$TABLE_DUMP requires 32 words of local(AUTO) storage.

PL6.E3A0      #001=Z8JT$TABLE_DUMP File=Z8JT.:Z8A6TSI                            SAT 08/09/97 13:32 Page:36

 Object Unit name= Z8JT$TABLE_DUMP                            File name= Z8JT.:Z8A6TOU
 UTS= AUG 09 '97 13:32:29.32 SAT                              Compiler= PL-6/E31         Sev=      00
 SharedLib= :SHARED_SYSTEM                                    Alt SharedLib=


    ****  Control sections  ****

 Sect   Type Bound  Init  Size OctSiz  Section name(segment info)
    0  LblCom even  none     1      1  ITERATION
    1  RoData even  UTS   2124   4114  Z8JT$TABLE_DUMP
    2  LblCom even  none     1      1  DPI$
    3  LblCom even  none     5      5  DPI_
    4  LblCom even  none     1      1  ERR$
    5  LblCom even  none     1      1  ERR_HEAD
    6  LblCom even  none     1      1  ERR_TAIL
    7  LblCom even  none     1      1  MAX_ERROR_GENERATED
    8  LblCom even  none     5      5  ERR_
    9  LblCom even  none     1      1  ILL$
   10  LblCom even  none     5      5  ILL_
   11  LblCom even  none     1      1  ILS$
   12  LblCom even  none     5      5  ILS_
   13  LblCom even  none     1      1  OBJ$
   14  LblCom even  none     1      1  PAGING_OBJ
   15  LblCom even  none     1      1  OBJ_PAGE_COUNT
   16  LblCom even  none     1      1  OBJ_FINISHED
   17  LblCom even  none     1      1  OBJ_SEG_SIZE
   18  LblCom even  none     1      1  OBJ_TOP_NEW_SEG
   19  LblCom even  none     1      1  OBJ_LAST_REGULAR_PAGE
   20  LblCom even  none     5      5  OBJ_
   21  LblCom even  none     1      1  ETT$
   22  LblCom even  none     1      1  HEAD_ETT$
   23  LblCom even  none   512   1000  ETT_BUCKETS
   24  LblCom even  none     5      5  ETT_
   25  LblCom even  none   101    145  HEAP_POOL
   26  LblCom even  none     1      1  HEAP_WORDS_ALLOCATED
   27  LblCom even  none     5      5  HEAP_
   28  LblCom even  none     1      1  HEAP$
PL6.E3A0      #001=Z8JT$TABLE_DUMP File=Z8JT.:Z8A6TSI                            SAT 08/09/97 13:32 Page:37
   29  LblCom even  none     1      1  ST$
   30  LblCom even  none     5      5  ST_
   31  LblCom even  none     1      1  LTS$
   32  LblCom even  none     5      5  LTS_
   33  LblCom even  none     1      1  DNT$
   34  LblCom even  none     5      5  DNT_
   35  LblCom even  none     1      1  DNT_BUCKET_NUMBER
   36  LblCom even  none     1      1  DNT_OF_1$
   37  LblCom even  none     1      1  QLT$
   38  LblCom even  none     1      1  PREV_01_QLT$
   39  LblCom even  none     5      5  QLT_
   40  LblCom even  none     1      1  GST$
   41  LblCom even  none     5      5  GST_
   42  LblCom even  none     1      1  XREF$
   43  LblCom even  none     5      5  XREF_
   44   Data  even  none     2      2  Z8JT$TABLE_DUMP
   45  LblCom even  none    30     36  OBUF
   46   Proc  even  none  1607   3107  Z8JT$TABLE_DUMP
   47  RoData even  none    79    117  Z8JT$TABLE_DUMP

    ****  Entry defs  ****

                              Check   Calling
                             calling  sequence
  Sect OctLoc Primary Altret sequence   type   Parms  Name
    46      0   yes            yes      Std        0  Z8JT$TABLE_DUMP
    46    270                  yes      Std        0  Z8JT$DUMP_TIMES

  ****  Data defs  ****

 Sect OctLoc  Name                           Sect OctLoc  Name
    1      0  NAMES
PL6.E3A0      #001=Z8JT$TABLE_DUMP File=Z8JT.:Z8A6TSI                            SAT 08/09/97 13:32 Page:38

  ****  Entry refs  ****

         Check        Calling
        calling       sequence
Altret sequence SRef   type   Args  Name
         yes           Std       0 Z9AL$WRITE_BLANK_LINE
         yes           Std       0 Z9AL$DUMP_LINE
         yes           Std       0 Z9AL$FORM_FEED
         yes           Std       2 Z8JT$DUMP_ITEM
         yes           Std       1 Z9HF$WRITE_OBJ_PAGE
         yes           Std       0 Z9HF$CLOSE_OBJ
         yes           Std       0 Z9HF$OPEN_OBJ_INPUT
 yes     yes           Std       0 Z9HF$READ_OBJ_PAGE
         yes           Std       2 X8CO$CONV_TO_OCTAL
                       nStd      0 X66_AUTO_0
                       nStd      0 X66_ARET

  ****  Data refs  ****

  Flags:  r = read only, s = secondary
Flgs Name                             Flgs Name                             Flgs Name
r    ILL_STEP                         r    ILS_STEP_TABLE                   r    OBJ_STEP
r    LTS_STEP                              COMCOM

  ****  Segment refs  ****

  Flags:  r = read only, s = secondary
Flgs Name                             Flgs Name                             Flgs Name
     NULLSID                               ISSID
PL6.E3A0      #001=Z8JT$TABLE_DUMP File=Z8JT.:Z8A6TSI                            SAT 08/09/97 13:32 Page:39


        1        1        /*M* Z8JT$TABLE_DUMP -- Dumps I. L. Tables */
        2        2        /*T***********************************************************/
        3        3        /*T*                                                         */
        4        4        /*T* Copyright (c) Bull HN Information Systems Inc., 1997    */
        5        5        /*T*                                                         */
        6        6        /*T***********************************************************/
        7        7
        8        8
        9        9        /*P*   NAME: Z8JT$TABLE_DUMP
       10       10            PURPOSE: Print out the various tables (ILS, ILL, etc.),
       11       11                     COMCOM and compiler timings.
       12       12        */
       13       13
       14       14        /*D*   NAME: Z8JT$TABLE_DUMP
       15       15               CALL: CALL Z8JT$TABLE_DUMP
       16       16          INTERFACE: Z9AL -- Prints a line.
       17       17        DESCRIPTION::
       18       18
       19       19           YE OLDE TABLE DUMPER:
       20       20           == ==== ===== ======
       21       21
       22       22           DUMP EACH ITEM IN EACH TABLE (ILL, ETT, ST, ETC.)
       23       23           IN THE FOLLOWING FORMAT:
       24       24
       25       25             LOC NAME WORD1 WORD2 ...
       26       26              6 1 8    12  1  12  ...
       27       27
       28       28           THIS MODULE ALSO CONTAINS THE ENTRY Z8JT$DUMP_TIMES
       29       29           CALLED BY THE EXEC WHEN THE "STATS" OPTION IS ON.
       30       30        */
       31       31
       32       32        %EJECT;
PL6.E3A0      #001=Z8JT$TABLE_DUMP File=Z8JT.:Z8A6TSI                            SAT 08/09/97 13:32 Page:40
       33       33        /*---------------*/
       34       34          Z8JT$TABLE_DUMP:     PROC;

     34 46 000000   000000 700200 xent  Z8JT$TABLE_* TSX0  ! X66_AUTO_0
        46 000001   000040 000000                    ZERO    32,0

       35       35        /*---------------*/
       36       36
       37       37        %MACRO SET_TIME (I = I) ;
       38       38
       39       39                 CALL BINCHAR (CHAR10, COMCOM.TIMES(I)) ;
       40       40                 TIME.SECONDS = SUBSTR (CHAR10, 0, 4) ;
       41       41                 TIME.MILLIS  = SUBSTR (CHAR10, 4, 3) ;
       42       42                 TIME.MICROS  = SUBSTR (CHAR10, 7, 3) ;
       43       43
       44       44                 /* BLANK WHEN ZERO "SECONDS" A LA PIC ZZZ9 */
       45       45
       46       46                 ZERO = '1'B ;
       47       47                 DO J = 0 TO 2 ;
       48       48                   IF ZERO THEN DO ;
       49       49                     IF SUBSTR (TIME.SECONDS, J, 1) = '0'
       50       50                     THEN SUBSTR (TIME.SECONDS, J, 1) = ' ' ;
       51       51                     ELSE ZERO = '0'B ;
       52       52                   END ;
       53       53                 END ;
       54       54
       55       55                 /* COMPUTE LINES PER MINUTE */
       56       56
       57       57                 J = COMCOM.TIMES (I) / 1000 ; /* Milli-seconds */
       58       58                 IF J = 0
       59       59                 THEN J = 9999999 ;
       60       60                 ELSE J = COMCOM.LINES.SOURCE * 60000 / J ;
       61       61
       62       62                 IF J > 999999
       63       63                 THEN CHAR10 = '9999999999' ;
       64       64                 ELSE CALL BINCHAR (CHAR10, J) ;
       65       65
PL6.E3A0      #001=Z8JT$TABLE_DUMP File=Z8JT.:Z8A6TSI                            SAT 08/09/97 13:32 Page:41
       66       66                 TIME.LPM1 = SUBSTR (CHAR10, 4, 3) ;
       67       67                 TIME.LPM2 = SUBSTR (CHAR10, 7, 3) ;
       68       68
       69       69                 /* BLANK WHEN ZERO "LPM1" A LA PIC ZZ9 */
       70       70
       71       71                 ZERO = '1'B ;
       72       72                 DO J = 0 TO 1 ;
       73       73                   IF ZERO THEN DO ;
       74       74                     IF SUBSTR (TIME.LPM1, J, 1) = '0'
       75       75                     THEN SUBSTR (TIME.LPM1, J, 1) = ' ' ;
       76       76                     ELSE ZERO = '0'B ;
       77       77                   END ;
       78       78                 END ;
       79       79
       80       80        %MEND ;
       81       81        %MACRO DUMP_ITEM;
       82       82            DO;
       83       83                 LENGTH = ILL_STEP (PTR$->ILL.ID - %FIRST_ILL) ;
       84       84                 CALL Z8JT$DUMP_ITEM ( PTR$, LENGTH );
       85       85            END;
       86       86        %MEND;
       87       87        %EJECT;
PL6.E3A0      #001=Z8JT$TABLE_DUMP File=Z8JT.:Z8A6TSI                            SAT 08/09/97 13:32 Page:42
       88       88
       89       89        %EQU PHASE = 6 ;
       90       90
       91       91            %INCLUDE Z8A_DEFC ;
       92      159            %SET INITIALIZE = TRUE;
       93      160            %INCLUDE Z8A_SUPP_MAC ;
       94     2560            %SET INITIALIZE = FALSE;
       95     2561            %INCLUDE Z8A_DPI ;
       96     2645            %INCLUDE Z8A_ERR ;
       97     2714            %INCLUDE Z8A_ILL ;
       98     3407            %INCLUDE Z8A_ILS ;
       99     3516            %INCLUDE Z8A_OBJ ;
      100     4013            %INCLUDE Z8A_ETT ;
      101     4314            %INCLUDE Z8E_HEAPINFO ;
      102     4352            %INCLUDE Z8A_ST ;
      103     8011            %INCLUDE Z8A_LTS;
      104    10088            %INCLUDE Z8A_DNT ;
      105    10309            %INCLUDE Z8A_QLT ;
      106    10415            %INCLUDE Z8A_GST ;
      107    10475            %INCLUDE Z8A_XREF ;
      108    10547            %INCLUDE Z8A_COMCOM ;
      109    11197
      110    11198
      111    11199
      112    11200        %EQU LINE1 =  7 ; /* # OF WORDS PER LINE */
      113    11201        %EQU LINE2 = 14 ; /* # OF WORDS PER 2 LINES */
      114    11202
      115    11203    1   DCL   LENGTH UBIN WORD STATIC ; /* LENGTH OF ITEM IN WORDS */
      116    11204    1   DCL   PTR$   PTR       STATIC ; /* POINTER TO ITEM         */
      117    11205    1   DCL   PTR_U  REDEF PTR$ UBIN WORD ;
      118    11206    1   DCL   I      SBIN WORD AUTO   ; /* TEMP                    */
      119    11207    1   DCL   J      SBIN WORD ;
      120    11208    1   DCL   CURRENT_LINE      SBIN WORD;
      121    11209    1   DCL   ZERO   BIT (1) ;
      122    11210    1   DCL   CHAR10 CHAR (10) ;
      123    11211    1   DCL   OBUF   CHAR (120) EXT;    /* BUFFER TO WRITE         */
      124    11212
PL6.E3A0      #001=Z8JT$TABLE_DUMP File=Z8JT.:Z8A6TSI                            SAT 08/09/97 13:32 Page:43
      125    11213    1   DCL 1  TIME    REDEF OBUF,   /* USED BY DUMP_TIMES ROUTINE */
      126    11214    1        2 PHASE   CHAR  (6) UNAL,
      127    11215    1        2 NUMBER  CHAR  (1) UNAL,
      128    11216    1        2 BLANK   CHAR  (1) UNAL,
      129    11217    1        2 SECONDS CHAR  (4) UNAL,
      130    11218    1        2 DECIMAL CHAR  (1) UNAL,
      131    11219    1        2 MILLIS  CHAR  (3) UNAL,
      132    11220    1        2 COMMA   CHAR  (1) UNAL,
      133    11221    1        2 MICROS  CHAR  (3) UNAL,
      134    11222    1        2 SEKONDS CHAR  (9) UNAL,
      135    11223    1        2 BLANC   CHAR  (1) UNAL,
      136    11224    1        2 LPM1    CHAR  (3) UNAL,
      137    11225    1        2 COMA    CHAR  (1) UNAL,
      138    11226    1        2 LPM2    CHAR  (3) UNAL,
      139    11227    1        2 LPM     CHAR  (6) UNAL,
      140    11228    1        2 BLANK2  CHAR  (1) UNAL,
      141    11229    1        2 ALOCATD CHAR  (3) UNAL,
      142    11230    1        2 K       CHAR  (1) UNAL,
      143    11231    1        2 *       CHAR (72) UNAL ;
      144    11232
      145    11233    1   DCL 1   CLINE REDEF OBUF, /* A Line of COMCOM  info */
      146    11234    1        2  NAME  CHAR (15) UNAL,
      147    11235    1        2  BIT_  (0:103) CHAR (1) UNAL,
      148    11236    1        2  W     (0:7) REDEF BIT_,
      149    11237    1         3 WORD@ CHAR (12) UNAL,
      150    11238    1         3 *     CHAR  (1) UNAL,
      151    11239    1        2  *     CHAR  (1) UNAL ;
      152    11240
      153    11241    1   DCL 1   TABLE          REDEF OBUF,
      154    11242    1        2  LENGTH_OF      CHAR (10) UNAL, /* "Length of " */
      155    11243    1        2  NAME           CHAR (3)  UNAL, /* "DNT" for example */
      156    11244    1        2  TABLE_IS       CHAR (10) UNAL, /* " table is " */
      157    11245    1        2  AMOUNT         CHAR (4)  UNAL, /* "1012" for example */
      158    11246    1        2  K              CHAR (2)  UNAL, /* "K." */
      159    11247    1        2  *              CHAR (91) UNAL ;
      160    11248
      161    11249    1   DCL   WORDS  (0:999) UBIN WORD BASED (PTR$) ;
PL6.E3A0      #001=Z8JT$TABLE_DUMP File=Z8JT.:Z8A6TSI                            SAT 08/09/97 13:32 Page:44
      162    11250
      163    11251    1       DCL Z9AL$DUMP_LINE               ENTRY;
      164    11252    1       DCL Z9AL$WRITE_BLANK_LINE        ENTRY;
      165    11253    1       DCL Z9AL$FORM_FEED               ENTRY;
      166    11254    1       DCL X8CO$CONV_TO_OCTAL           ENTRY(2);
      167    11255    1       DCL X8CO$CONV_TO_OCTAL_HALF      ENTRY(2);
      168    11256    1       DCL Z8JT$DUMP_ITEM               ENTRY(2);
      169    11257        %EJECT;
PL6.E3A0      #001=Z8JT$TABLE_DUMP File=Z8JT.:Z8A6TSI                            SAT 08/09/97 13:32 Page:45
      170    11258    1          CALL Z9AL$WRITE_BLANK_LINE ;

  11258 46 000002   000000 631400 47                 EPPR1   0
        46 000003   000000 701000 xent               TSX1    Z9AL$WRITE_BLANK_LINE
        46 000004   000000 011000                    NOP     0

      171    11259    1          OBUF = COMCOM.LINE1 ; /* Compiler Invocation Line */

  11259 46 000005   040000 100400                    MLR     fill='040'O
        46 000006   000334 000120 xsym               ADSC9   COMCOM+220               cn=0,n=80
        46 000007   000000 000170 45                 ADSC9   OBUF                     cn=0,n=120

      172    11260    1          CALL Z9AL$DUMP_LINE ;

  11260 46 000010   000000 631400 47                 EPPR1   0
        46 000011   000000 701000 xent               TSX1    Z9AL$DUMP_LINE
        46 000012   000000 011000                    NOP     0

      173    11261    1          CALL Z9AL$WRITE_BLANK_LINE ;

  11261 46 000013   000000 631400 47                 EPPR1   0
        46 000014   000000 701000 xent               TSX1    Z9AL$WRITE_BLANK_LINE
        46 000015   000000 011000                    NOP     0

      174    11262
      175    11263    1          OBUF = '<COMCOM>  DUMP' ;

  11263 46 000016   040000 100400                    MLR     fill='040'O
        46 000017   003410 000016 1                  ADSC9   NAMES+1800               cn=0,n=14
        46 000020   000000 000170 45                 ADSC9   OBUF                     cn=0,n=120

      176    11264    1          CALL Z9AL$DUMP_LINE ;

  11264 46 000021   000000 631400 47                 EPPR1   0
        46 000022   000000 701000 xent               TSX1    Z9AL$DUMP_LINE
        46 000023   000000 011000                    NOP     0

PL6.E3A0      #001=Z8JT$TABLE_DUMP File=Z8JT.:Z8A6TSI                            SAT 08/09/97 13:32 Page:46
      177    11265    1          CALL DUMP_COMCOM ;

  11265 46 000024   002257 701000 46                 TSX1    DUMP_COMCOM
        46 000025   000000 011000                    NOP     0

      178    11266    1          CALL Z9AL$WRITE_BLANK_LINE ;

  11266 46 000026   000000 631400 47                 EPPR1   0
        46 000027   000000 701000 xent               TSX1    Z9AL$WRITE_BLANK_LINE
        46 000030   000000 011000                    NOP     0

      179    11267
      180    11268    1          OBUF =

  11268 46 000031   040000 100400                    MLR     fill='040'O
        46 000032   003414 000071 1                  ADSC9   NAMES+1804               cn=0,n=57
        46 000033   000000 000170 45                 ADSC9   OBUF                     cn=0,n=120

      181    11269    1          '<ERR> DUMP         ID     N     NUMBER        LINE COLUMN' ;
      182    11270    1          CALL Z9AL$DUMP_LINE ;

  11270 46 000034   000000 631400 47                 EPPR1   0
        46 000035   000000 701000 xent               TSX1    Z9AL$DUMP_LINE
        46 000036   000000 011000                    NOP     0

      183    11271    1          CALL DUMP_ERR ;

  11271 46 000037   002214 701000 46                 TSX1    DUMP_ERR
        46 000040   000000 011000                    NOP     0

      184    11272    1          CALL Z9AL$WRITE_BLANK_LINE ;

  11272 46 000041   000000 631400 47                 EPPR1   0
        46 000042   000000 701000 xent               TSX1    Z9AL$WRITE_BLANK_LINE
        46 000043   000000 011000                    NOP     0

      185    11273
PL6.E3A0      #001=Z8JT$TABLE_DUMP File=Z8JT.:Z8A6TSI                            SAT 08/09/97 13:32 Page:47
      186    11274        %EJECT;
PL6.E3A0      #001=Z8JT$TABLE_DUMP File=Z8JT.:Z8A6TSI                            SAT 08/09/97 13:32 Page:48
      187    11275        /*V*                   Dump_DPI_Table
      188    11276
      189    11277                The DPI table gets dumped if prior to phase 4.  After phase 4
      190    11278                the DPI table has been pooled and no longer exists.
      191    11279        */
      192    11280    1          OBUF =

  11280 46 000044   040000 100400                    MLR     fill='040'O
        46 000045   003433 000100 1                  ADSC9   NAMES+1819               cn=0,n=64
        46 000046   000000 000170 45                 ADSC9   OBUF                     cn=0,n=120

      193    11281    1          '<ILS> DUMP         ID    SEQNO       B  RDEF   NEXT         ILL$';
      194    11282    1          CALL Z9AL$DUMP_LINE ;

  11282 46 000047   000000 631400 47                 EPPR1   0
        46 000050   000000 701000 xent               TSX1    Z9AL$DUMP_LINE
        46 000051   000000 011000                    NOP     0

      195    11283    1          IF  COMCOM.CURRENT.PHASE = 2

  11283 46 000052   000132 235000 xsym               LDA     COMCOM+90
        46 000053   000002 115007                    CMPA    2,DL
        46 000054   000057 600000 46                 TZE     s:11285
        46 000055   000003 115007                    CMPA    3,DL
        46 000056   000062 601000 46                 TNZ     s:11287

      196    11284    1          OR  COMCOM.CURRENT.PHASE = 3 THEN
      197    11285    1            CALL DUMP_ILS;

  11285 46 000057   001437 701000 46                 TSX1    DUMP_ILS
        46 000060   000000 011000                    NOP     0
        46 000061   000064 710000 46                 TRA     s:11288

      198    11286    1          ELSE
      199    11287    1            CALL DUMP_ILS2;

  11287 46 000062   001507 701000 46                 TSX1    DUMP_ILS2
PL6.E3A0      #001=Z8JT$TABLE_DUMP File=Z8JT.:Z8A6TSI                            SAT 08/09/97 13:32 Page:49
        46 000063   000000 011000                    NOP     0

      200    11288    1          CALL Z9AL$WRITE_BLANK_LINE ;

  11288 46 000064   000000 631400 47                 EPPR1   0
        46 000065   000000 701000 xent               TSX1    Z9AL$WRITE_BLANK_LINE
        46 000066   000000 011000                    NOP     0

      201    11289
      202    11290    1          IF COMCOM.CURRENT.PHASE < 4 THEN

  11290 46 000067   000132 235000 xsym               LDA     COMCOM+90
        46 000070   000004 115007                    CMPA    4,DL
        46 000071   000105 603000 46                 TRC     s:11298

      203    11291    2            DO;

      204    11292    2              OBUF = '<DPI> Table        ID    RDEF   DNAME        NEXT';

  11292 46 000072   040000 100400                    MLR     fill='040'O
        46 000073   003453 000061 1                  ADSC9   NAMES+1835               cn=0,n=49
        46 000074   000000 000170 45                 ADSC9   OBUF                     cn=0,n=120

      205    11293    2              CALL Z9AL$DUMP_LINE;

  11293 46 000075   000000 631400 47                 EPPR1   0
        46 000076   000000 701000 xent               TSX1    Z9AL$DUMP_LINE
        46 000077   000000 011000                    NOP     0

      206    11294    2              CALL DUMP_DPI;

  11294 46 000100   001532 701000 46                 TSX1    DUMP_DPI
        46 000101   000000 011000                    NOP     0

      207    11295    2              CALL Z9AL$WRITE_BLANK_LINE;

  11295 46 000102   000000 631400 47                 EPPR1   0
PL6.E3A0      #001=Z8JT$TABLE_DUMP File=Z8JT.:Z8A6TSI                            SAT 08/09/97 13:32 Page:50
        46 000103   000000 701000 xent               TSX1    Z9AL$WRITE_BLANK_LINE
        46 000104   000000 011000                    NOP     0

      208    11296    2            END;

      209    11297        %EJECT;
PL6.E3A0      #001=Z8JT$TABLE_DUMP File=Z8JT.:Z8A6TSI                            SAT 08/09/97 13:32 Page:51
      210    11298    1          OBUF =

  11298 46 000105   040000 100400                    MLR     fill='040'O
        46 000106   003470 000100 1                  ADSC9   NAMES+1848               cn=0,n=64
        46 000107   000000 000170 45                 ADSC9   OBUF                     cn=0,n=120

      211    11299    1          '<ILL> DUMP         ID    CODE      LOP          ROP          TO_';
      212    11300    1          CALL Z9AL$DUMP_LINE ;

  11300 46 000110   000000 631400 47                 EPPR1   0
        46 000111   000000 701000 xent               TSX1    Z9AL$DUMP_LINE
        46 000112   000000 011000                    NOP     0

      213    11301    1          IF COMCOM.CURRENT.PHASE = 2

  11301 46 000113   000132 235000 xsym               LDA     COMCOM+90
        46 000114   000002 115007                    CMPA    2,DL
        46 000115   000120 600000 46                 TZE     s:11303
        46 000116   000003 115007                    CMPA    3,DL
        46 000117   000123 601000 46                 TNZ     s:11305

      214    11302    1          OR COMCOM.CURRENT.PHASE = 3 THEN
      215    11303    1            CALL DUMP_ILL;

  11303 46 000120   001212 701000 46                 TSX1    DUMP_ILL
        46 000121   000000 011000                    NOP     0
        46 000122   000125 710000 46                 TRA     s:11306

      216    11304    1          ELSE
      217    11305    1            CALL DUMP_ILL2;

  11305 46 000123   001274 701000 46                 TSX1    DUMP_ILL2
        46 000124   000000 011000                    NOP     0

      218    11306    1          CALL Z9AL$WRITE_BLANK_LINE ;

  11306 46 000125   000000 631400 47                 EPPR1   0
PL6.E3A0      #001=Z8JT$TABLE_DUMP File=Z8JT.:Z8A6TSI                            SAT 08/09/97 13:32 Page:52
        46 000126   000000 701000 xent               TSX1    Z9AL$WRITE_BLANK_LINE
        46 000127   000000 011000                    NOP     0

      219    11307
      220    11308    1          OBUF =

  11308 46 000130   040000 100400                    MLR     fill='040'O
        46 000131   003510 000123 1                  ADSC9   NAMES+1864               cn=0,n=83
        46 000132   000000 000170 45                 ADSC9   OBUF                     cn=0,n=120

      221    11309    1    '<ETT> DUMP         ID   T/COUNT    LOP          ROP         ADDO       CMPSC CMPN
             11309        I';
      222    11310    1          CALL Z9AL$DUMP_LINE ;

  11310 46 000133   000000 631400 47                 EPPR1   0
        46 000134   000000 701000 xent               TSX1    Z9AL$DUMP_LINE
        46 000135   000000 011000                    NOP     0

      223    11311    1          CALL DUMP_ETT ;

  11311 46 000136   001677 701000 46                 TSX1    DUMP_ETT
        46 000137   000000 011000                    NOP     0

      224    11312    1          CALL Z9AL$WRITE_BLANK_LINE ;

  11312 46 000140   000000 631400 47                 EPPR1   0
        46 000141   000000 701000 xent               TSX1    Z9AL$WRITE_BLANK_LINE
        46 000142   000000 011000                    NOP     0

      225    11313
      226    11314    1          OBUF =

  11314 46 000143   040000 100400                    MLR     fill='040'O
        46 000144   003535 000147 1                  ADSC9   NAMES+1885               cn=0,n=103
        46 000145   000000 000170 45                 ADSC9   OBUF                     cn=0,n=120

      227    11315    1    '<ST> DUMP              ID   STC     SA DESCL   TYPE   REF ATTR           NEXT
PL6.E3A0      #001=Z8JT$TABLE_DUMP File=Z8JT.:Z8A6TSI                            SAT 08/09/97 13:32 Page:53
             11315            LTS$         DNT$' ;
      228    11316    1          CALL Z9AL$DUMP_LINE ;

  11316 46 000146   000000 631400 47                 EPPR1   0
        46 000147   000000 701000 xent               TSX1    Z9AL$DUMP_LINE
        46 000150   000000 011000                    NOP     0

      229    11317    1          CALL DUMP_ST ;

  11317 46 000151   001736 701000 46                 TSX1    DUMP_ST
        46 000152   000000 011000                    NOP     0

      230    11318    1          CALL Z9AL$WRITE_BLANK_LINE ;

  11318 46 000153   000000 631400 47                 EPPR1   0
        46 000154   000000 701000 xent               TSX1    Z9AL$WRITE_BLANK_LINE
        46 000155   000000 011000                    NOP     0

      231    11319
      232    11320    1          OBUF =

  11320 46 000156   040000 100400                    MLR     fill='040'O
        46 000157   003567 000120 1                  ADSC9   NAMES+1911               cn=0,n=80
        46 000160   000000 000170 45                 ADSC9   OBUF                     cn=0,n=120

      233    11321    1     '<LTS> DUMP             ID     N    DN2              SPAN0        DIM0 INDEX$(0)'
             11321                   ;
      234    11322    1          CALL Z9AL$DUMP_LINE ;

  11322 46 000161   000000 631400 47                 EPPR1   0
        46 000162   000000 701000 xent               TSX1    Z9AL$DUMP_LINE
        46 000163   000000 011000                    NOP     0

      235    11323    1          CALL DUMP_LTS ;

  11323 46 000164   001775 701000 46                 TSX1    DUMP_LTS
        46 000165   000000 011000                    NOP     0
PL6.E3A0      #001=Z8JT$TABLE_DUMP File=Z8JT.:Z8A6TSI                            SAT 08/09/97 13:32 Page:54

      236    11324    1          CALL Z9AL$WRITE_BLANK_LINE ;

  11324 46 000166   000000 631400 47                 EPPR1   0
        46 000167   000000 701000 xent               TSX1    Z9AL$WRITE_BLANK_LINE
        46 000170   000000 011000                    NOP     0

      237    11325
      238    11326    1          OBUF =

  11326 46 000171   040000 100400                    MLR     fill='040'O
        46 000172   003613 000132 1                  ADSC9   NAMES+1931               cn=0,n=90
        46 000173   000000 000170 45                 ADSC9   OBUF                     cn=0,n=120

      239    11327    1    '<QLT> DUMP             ID     B FATHER       BROTHER         SON          ST$
             11327            DNT$' ;
      240    11328    1          CALL Z9AL$DUMP_LINE ;

  11328 46 000174   000000 631400 47                 EPPR1   0
        46 000175   000000 701000 xent               TSX1    Z9AL$DUMP_LINE
        46 000176   000000 011000                    NOP     0

      241    11329    1          CALL DUMP_QLT ;

  11329 46 000177   002116 701000 46                 TSX1    DUMP_QLT
        46 000200   000000 011000                    NOP     0

      242    11330    1          CALL Z9AL$WRITE_BLANK_LINE ;

  11330 46 000201   000000 631400 47                 EPPR1   0
        46 000202   000000 701000 xent               TSX1    Z9AL$WRITE_BLANK_LINE
        46 000203   000000 011000                    NOP     0

      243    11331        %EJECT;
PL6.E3A0      #001=Z8JT$TABLE_DUMP File=Z8JT.:Z8A6TSI                            SAT 08/09/97 13:32 Page:55
      244    11332
      245    11333    1          OBUF =

  11333 46 000204   040000 100400                    MLR     fill='040'O
        46 000205   003642 000063 1                  ADSC9   NAMES+1954               cn=0,n=51
        46 000206   000000 000170 45                 ADSC9   OBUF                     cn=0,n=120

      246    11334    1          '<GST> DUMP             ID COUNT ROP_OF_SSOP    NEXT' ;
      247    11335    1          CALL Z9AL$DUMP_LINE ;

  11335 46 000207   000000 631400 47                 EPPR1   0
        46 000210   000000 701000 xent               TSX1    Z9AL$DUMP_LINE
        46 000211   000000 011000                    NOP     0

      248    11336    1          CALL DUMP_GST ;

  11336 46 000212   002155 701000 46                 TSX1    DUMP_GST
        46 000213   000000 011000                    NOP     0

      249    11337    1          CALL Z9AL$WRITE_BLANK_LINE ;

  11337 46 000214   000000 631400 47                 EPPR1   0
        46 000215   000000 701000 xent               TSX1    Z9AL$WRITE_BLANK_LINE
        46 000216   000000 011000                    NOP     0

      250    11338
      251    11339    1          OBUF =

  11339 46 000217   040000 100400                    MLR     fill='040'O
        46 000220   003657 000070 1                  ADSC9   NAMES+1967               cn=0,n=56
        46 000221   000000 000170 45                 ADSC9   OBUF                     cn=0,n=120

      252    11340    1          '<OBJ> DUMP             ID KEY BLK   INST          ST_PTR' ;
      253    11341    1          CALL Z9AL$DUMP_LINE ;

  11341 46 000222   000000 631400 47                 EPPR1   0
        46 000223   000000 701000 xent               TSX1    Z9AL$DUMP_LINE
PL6.E3A0      #001=Z8JT$TABLE_DUMP File=Z8JT.:Z8A6TSI                            SAT 08/09/97 13:32 Page:56
        46 000224   000000 011000                    NOP     0

      254    11342    2          IF COMCOM.OB.OBJ THEN DO ;

  11342 46 000225   000102 234000 xsym               SZN     COMCOM+66
        46 000226   000232 605000 46                 TPL     s:11346

      255    11343    2            CALL DUMP_OBJ ;

  11343 46 000227   001571 701000 46                 TSX1    DUMP_OBJ
        46 000230   000000 011000                    NOP     0

      256    11344    2          END ;

  11344 46 000231   000240 710000 46                 TRA     s:11349

      257    11345    2          ELSE DO ;

      258    11346    2            OBUF = 'Use the OBJ option to get an OBJ dump' ;

  11346 46 000232   040000 100400                    MLR     fill='040'O
        46 000233   003675 000045 1                  ADSC9   NAMES+1981               cn=0,n=37
        46 000234   000000 000170 45                 ADSC9   OBUF                     cn=0,n=120

      259    11347    2            CALL Z9AL$DUMP_LINE ;

  11347 46 000235   000000 631400 47                 EPPR1   0
        46 000236   000000 701000 xent               TSX1    Z9AL$DUMP_LINE
        46 000237   000000 011000                    NOP     0

      260    11348    2          END ;

      261    11349    1          CALL Z9AL$WRITE_BLANK_LINE ;

  11349 46 000240   000000 631400 47                 EPPR1   0
        46 000241   000000 701000 xent               TSX1    Z9AL$WRITE_BLANK_LINE
        46 000242   000000 011000                    NOP     0
PL6.E3A0      #001=Z8JT$TABLE_DUMP File=Z8JT.:Z8A6TSI                            SAT 08/09/97 13:32 Page:57

      262    11350
      263    11351    1          OBUF =

  11351 46 000243   040000 100400                    MLR     fill='040'O
        46 000244   003707 000123 1                  ADSC9   NAMES+1991               cn=0,n=83
        46 000245   000000 000170 45                 ADSC9   OBUF                     cn=0,n=120

      264    11352    1    '<DNT> DUMP             ID     N    PST         NEXT       ATTR    RW_NO  SIZE NAM
             11352        E' ;
      265    11353    1          CALL Z9AL$DUMP_LINE ;

  11353 46 000246   000000 631400 47                 EPPR1   0
        46 000247   000000 701000 xent               TSX1    Z9AL$DUMP_LINE
        46 000250   000000 011000                    NOP     0

      266    11354    2          IF COMCOM.OB.LEXEMES THEN DO ;

  11354 46 000251   000076 234000 xsym               SZN     COMCOM+62
        46 000252   000256 605000 46                 TPL     s:11358

      267    11355    2            CALL DUMP_DNT ;

  11355 46 000253   002053 701000 46                 TSX1    DUMP_DNT
        46 000254   000000 011000                    NOP     0

      268    11356    2          END ;

  11356 46 000255   000264 710000 46                 TRA     s:11361

      269    11357    2          ELSE DO ; /* LEXEMES option is off */

      270    11358    2            OBUF = 'Use the LEXEMES option to get a DNT dump' ;

  11358 46 000256   040000 100400                    MLR     fill='040'O
        46 000257   003734 000050 1                  ADSC9   NAMES+2012               cn=0,n=40
        46 000260   000000 000170 45                 ADSC9   OBUF                     cn=0,n=120
PL6.E3A0      #001=Z8JT$TABLE_DUMP File=Z8JT.:Z8A6TSI                            SAT 08/09/97 13:32 Page:58

      271    11359    2            CALL Z9AL$DUMP_LINE ;

  11359 46 000261   000000 631400 47                 EPPR1   0
        46 000262   000000 701000 xent               TSX1    Z9AL$DUMP_LINE
        46 000263   000000 011000                    NOP     0

      272    11360    2          END ;

      273    11361    1          CALL Z9AL$FORM_FEED ;

  11361 46 000264   000000 631400 47                 EPPR1   0
        46 000265   000000 701000 xent               TSX1    Z9AL$FORM_FEED
        46 000266   000000 011000                    NOP     0

      274    11362
      275    11363    1          RETURN ;

  11363 46 000267   000000 702200 xent               TSX2  ! X66_ARET

      276    11364
      277    11365        %EJECT;
PL6.E3A0      #001=Z8JT$TABLE_DUMP File=Z8JT.:Z8A6TSI                            SAT 08/09/97 13:32 Page:59
      278    11366        /*---------------*/
      279    11367    1     Z8JT$DUMP_TIMES:     ENTRY;

  11367 46 000270   000000 700200 xent  Z8JT$DUMP_T* TSX0  ! X66_AUTO_0
        46 000271   000040 000000                    ZERO    32,0

      280    11368        /*---------------*/
      281    11369
      282    11370        /*D*   NAME: Z8JT$DUMP_TIMES
      283    11371               CALL: CALL Z8JT$DUMP_TIMES
      284    11372          INTERFACE: Calls Z9AL$DUMP_LINE to print a line.
      285    11373                     Calls Z9AL$WRITE_BLANK_LINE to print a blank line.
      286    11374
      287    11375             INPUTS: COMCOM.TIMES(0:5) -- TIME IN MICRO-SECONDS.
      288    11376             ======                       (TIMES(0) = TOTAL TIME).
      289    11377
      290    11378        DESCRIPTION: Prints the processor times and core used
      291    11379                     for each phase. Called when the user specifies
      292    11380                     the STATS option.  Also prints the size of each table.
      293    11381        */
      294    11382
      295    11383    1          CALL Z9AL$WRITE_BLANK_LINE ;

  11383 46 000272   000000 631400 47                 EPPR1   0
        46 000273   000000 701000 xent               TSX1    Z9AL$WRITE_BLANK_LINE
        46 000274   000000 011000                    NOP     0

      296    11384    1          OBUF = ' ';

  11384 46 000275   040000 100400                    MLR     fill='040'O
        46 000276   000001 000001 47                 ADSC9   1                        cn=0,n=1
        46 000277   000000 000170 45                 ADSC9   OBUF                     cn=0,n=120

      297    11385
      298    11386    1          TIME.PHASE = 'PHASE ' ;

  11386 46 000300   040000 100400                    MLR     fill='040'O
PL6.E3A0      #001=Z8JT$TABLE_DUMP File=Z8JT.:Z8A6TSI                            SAT 08/09/97 13:32 Page:60
        46 000301   003746 000006 1                  ADSC9   NAMES+2022               cn=0,n=6
        46 000302   000000 000006 45                 ADSC9   OBUF                     cn=0,n=6

      299    11387    1          TIME.DECIMAL = '.' ;

  11387 46 000303   056000 236003                    LDQ     23552,DU
        46 000304   000003 552040 45                 STBQ    OBUF+3,'40'O

      300    11388    1          TIME.COMMA = ',' ;

  11388 46 000305   054000 236003                    LDQ     22528,DU
        46 000306   000004 552040 45                 STBQ    OBUF+4,'40'O

      301    11389    1          TIME.SEKONDS = ' SECONDS.' ;

  11389 46 000307   040000 100400                    MLR     fill='040'O
        46 000310   003750 000011 1                  ADSC9   NAMES+2024               cn=0,n=9
        46 000311   000005 000011 45                 ADSC9   OBUF+5                   cn=0,n=9

      302    11390    1          TIME.LPM = ' L/M. ' ;

  11390 46 000312   040000 100400                    MLR     fill='040'O
        46 000313   003753 000006 1                  ADSC9   NAMES+2027               cn=0,n=6
        46 000314   000011 200006 45                 ADSC9   OBUF+9                   cn=1,n=6

      303    11391    1          TIME.COMA = ',' ;

  11391 46 000315   000054 236003                    LDQ     44,DU
        46 000316   000010 552020 45                 STBQ    OBUF+8,'20'O

      304    11392    1          TIME.K    = 'K' ;

  11392 46 000317   000113 236007                    LDQ     75,DL
        46 000320   000013 552004 45                 STBQ    OBUF+11,'04'O

      305    11393
      306    11394    2          DO I = 1 TO 5 ;
PL6.E3A0      #001=Z8JT$TABLE_DUMP File=Z8JT.:Z8A6TSI                            SAT 08/09/97 13:32 Page:61

  11394 46 000321   000001 235007                    LDA     1,DL
        46 000322   200003 755100                    STA     I,,AUTO

      307    11395
      308    11396                 /* Print Allocated Memory in "K" Units per Phase */
      309    11397
      310    11398    2            COMCOM.IL_SPACE (I) = (COMCOM.IL_SPACE (I) + 1023) / 1024 ;

  11398 46 000323   200003 720100                    LXL0    I,,AUTO
        46 000324   000324 236010 xsym               LDQ     COMCOM+212,X0
        46 000325   001777 036007                    ADLQ    1023,DL
        46 000326   002000 506007                    DIV     1024,DL
        46 000327   000324 756010 xsym               STQ     COMCOM+212,X0

      311    11399    2            CALL BINCHAR (TIME.ALOCATD, COMCOM.IL_SPACE (I)) ;

  11399 46 000330   200003 235100                    LDA     I,,AUTO
        46 000331   000002 735000                    ALS     2
        46 000332   000000 301405                    BTD
        46 000333   000324 000004 xsym               NDSC9   COMCOM+212,A             cn=0,s=lsgnf,sf=0,n=4
        46 000334   000013 030003 45                 NDSC9   OBUF+11                  cn=0,s=nosgn,sf=0,n=3

      312    11400    3            IF SUBSTR (TIME.ALOCATD, 0, 1) = '0' THEN DO ; /* PIC ZZ9 */

  11400 46 000335   000013 236000 45                 LDQ     OBUF+11
        46 000336   777000 376003                    ANQ     -512,DU
        46 000337   060000 116003                    CMPQ    24576,DU
        46 000340   000351 601000 46                 TNZ     s:11407

      313    11401    3              SUBSTR (TIME.ALOCATD, 0, 1) = ' ' ;

  11401 46 000341   040000 236003                    LDQ     16384,DU
        46 000342   000013 552040 45                 STBQ    OBUF+11,'40'O

      314    11402    4              IF SUBSTR (TIME.ALOCATD, 1, 1) = '0' THEN DO ;

PL6.E3A0      #001=Z8JT$TABLE_DUMP File=Z8JT.:Z8A6TSI                            SAT 08/09/97 13:32 Page:62
  11402 46 000343   000013 236000 45                 LDQ     OBUF+11
        46 000344   000777 376003                    ANQ     511,DU
        46 000345   000060 116003                    CMPQ    48,DU
        46 000346   000351 601000 46                 TNZ     s:11407

      315    11403    4                SUBSTR (TIME.ALOCATD, 1, 1) = ' ' ;

  11403 46 000347   000040 236003                    LDQ     32,DU
        46 000350   000013 552020 45                 STBQ    OBUF+11,'20'O

      316    11404    4              END ;

      317    11405    3            END ;

      318    11406
      319    11407    2            CALL BINCHAR (TIME.NUMBER, I) ;

  11407 46 000351   000000 301500                    BTD
        46 000352   200003 000004                    NDSC9   I,,AUTO                  cn=0,s=lsgnf,sf=0,n=4
        46 000353   000001 430001 45                 NDSC9   OBUF+1                   cn=2,s=nosgn,sf=0,n=1

      320    11408                 %SET_TIME (I = I) ;

  11409 46 000354   000365 235010 xsym               LDA     COMCOM+245,X0
        46 000355   000044 773000                    LRL     36
        46 000356   200020 757100                    STAQ    TEMP7+3,,AUTO
        46 000357   000100 301500                    BTD
        46 000360   200020 000010                    NDSC9   TEMP7+3,,AUTO            cn=0,s=lsgnf,sf=0,n=8
        46 000361   200007 030012                    NDSC9   CHAR10,,AUTO             cn=0,s=nosgn,sf=0,n=10

  11410 46 000362   200007 236100                    LDQ     CHAR10,,AUTO
        46 000363   000002 756000 45                 STQ     OBUF+2

  11411 46 000364   200010 236100                    LDQ     CHAR10+1,,AUTO
        46 000365   000011 772000                    QRL     9
        46 000366   000003 552034 45                 STBQ    OBUF+3,'34'O

PL6.E3A0      #001=Z8JT$TABLE_DUMP File=Z8JT.:Z8A6TSI                            SAT 08/09/97 13:32 Page:63
  11412 46 000367   200010 235100                    LDA     CHAR10+1,,AUTO
        46 000370   200011 236100                    LDQ     CHAR10+2,,AUTO
        46 000371   000011 773000                    LRL     9
        46 000372   000002 376000 47                 ANQ     2
        46 000373   000040 276007                    ORQ     32,DL
        46 000374   000011 772000                    QRL     9
        46 000375   000004 552034 45                 STBQ    OBUF+4,'34'O

  11414 46 000376   400000 236003                    LDQ     -131072,DU
        46 000377   200006 756100                    STQ     ZERO,,AUTO

  11415 46 000400   200004 450100                    STZ     J,,AUTO

  11416 46 000401   200006 234100                    SZN     ZERO,,AUTO
        46 000402   000415 605000 46                 TPL     s:11421

  11417 46 000403   200004 235100                    LDA     J,,AUTO
        46 000404   040000 106405                    CMPC    fill='040'O
        46 000405   000002 000001 45                 ADSC9   OBUF+2,A                 cn=0,n=1
        46 000406   000003 000001 47                 ADSC9   3                        cn=0,n=1
        46 000407   000414 601000 46                 TNZ     s:11419

  11418 46 000410   040005 100400                    MLR     fill='040'O
        46 000411   000001 000001 47                 ADSC9   1                        cn=0,n=1
        46 000412   000002 000001 45                 ADSC9   OBUF+2,A                 cn=0,n=1
        46 000413   000415 710000 46                 TRA     s:11421

  11419 46 000414   200006 450100                    STZ     ZERO,,AUTO

  11421 46 000415   200004 054100                    AOS     J,,AUTO
        46 000416   200004 235100                    LDA     J,,AUTO
        46 000417   000002 115007                    CMPA    2,DL
        46 000420   000401 604400 46                 TMOZ    s:11416

  11423 46 000421   200003 720100                    LXL0    I,,AUTO
        46 000422   000365 236010 xsym               LDQ     COMCOM+245,X0
        46 000423   000001 772000                    QRL     1
PL6.E3A0      #001=Z8JT$TABLE_DUMP File=Z8JT.:Z8A6TSI                            SAT 08/09/97 13:32 Page:64
        46 000424   000764 506007                    DIV     500,DL
        46 000425   200004 756100                    STQ     J,,AUTO

  11424 46 000426   000000 116003                    CMPQ    0,DU
        46 000427   000433 601000 46                 TNZ     s:11426

  11425 46 000430   000004 235000 47                 LDA     4
        46 000431   200004 755100                    STA     J,,AUTO
        46 000432   000437 710000 46                 TRA     s:11427

  11426 46 000433   000131 236000 xsym               LDQ     COMCOM+89
        46 000434   165140 402007                    MPY     60000,DL
        46 000435   200004 506100                    DIV     J,,AUTO
        46 000436   200004 756100                    STQ     J,,AUTO

  11427 46 000437   200004 235100                    LDA     J,,AUTO
        46 000440   000005 115000 47                 CMPA    5
        46 000441   000446 604400 46                 TMOZ    s:11429

  11428 46 000442   040100 100400                    MLR     fill='040'O
        46 000443   003755 000012 1                  ADSC9   NAMES+2029               cn=0,n=10
        46 000444   200007 000012                    ADSC9   CHAR10,,AUTO             cn=0,n=10
        46 000445   000451 710000 46                 TRA     s:11430

  11429 46 000446   000100 301500                    BTD
        46 000447   200004 000004                    NDSC9   J,,AUTO                  cn=0,s=lsgnf,sf=0,n=4
        46 000450   200007 030012                    NDSC9   CHAR10,,AUTO             cn=0,s=nosgn,sf=0,n=10

  11430 46 000451   040000 100500                    MLR     fill='040'O
        46 000452   200010 000003                    ADSC9   CHAR10+1,,AUTO           cn=0,n=3
        46 000453   000007 400003 45                 ADSC9   OBUF+7                   cn=2,n=3

  11431 46 000454   040000 100500                    MLR     fill='040'O
        46 000455   200010 600003                    ADSC9   CHAR10+1,,AUTO           cn=3,n=3
        46 000456   000010 400003 45                 ADSC9   OBUF+8                   cn=2,n=3

  11433 46 000457   400000 236003                    LDQ     -131072,DU
PL6.E3A0      #001=Z8JT$TABLE_DUMP File=Z8JT.:Z8A6TSI                            SAT 08/09/97 13:32 Page:65
        46 000460   200006 756100                    STQ     ZERO,,AUTO

  11434 46 000461   200004 450100                    STZ     J,,AUTO

  11435 46 000462   200006 234100                    SZN     ZERO,,AUTO
        46 000463   000476 605000 46                 TPL     s:11440

  11436 46 000464   200004 235100                    LDA     J,,AUTO
        46 000465   040000 106405                    CMPC    fill='040'O
        46 000466   000007 400001 45                 ADSC9   OBUF+7,A                 cn=2,n=1
        46 000467   000003 000001 47                 ADSC9   3                        cn=0,n=1
        46 000470   000475 601000 46                 TNZ     s:11438

  11437 46 000471   040005 100400                    MLR     fill='040'O
        46 000472   000001 000001 47                 ADSC9   1                        cn=0,n=1
        46 000473   000007 400001 45                 ADSC9   OBUF+7,A                 cn=2,n=1
        46 000474   000476 710000 46                 TRA     s:11440

  11438 46 000475   200006 450100                    STZ     ZERO,,AUTO

  11440 46 000476   200004 054100                    AOS     J,,AUTO
        46 000477   200004 235100                    LDA     J,,AUTO
        46 000500   000001 115007                    CMPA    1,DL
        46 000501   000462 604400 46                 TMOZ    s:11435

      321    11442    2            CALL Z9AL$DUMP_LINE ;

  11442 46 000502   000000 631400 47                 EPPR1   0
        46 000503   000000 701000 xent               TSX1    Z9AL$DUMP_LINE
        46 000504   000000 011000                    NOP     0

      322    11443
      323    11444    2          END ;

  11444 46 000505   200003 054100                    AOS     I,,AUTO
        46 000506   200003 235100                    LDA     I,,AUTO
        46 000507   000005 115007                    CMPA    5,DL
PL6.E3A0      #001=Z8JT$TABLE_DUMP File=Z8JT.:Z8A6TSI                            SAT 08/09/97 13:32 Page:66
        46 000510   000323 604400 46                 TMOZ    s:11398

      324    11445
      325    11446    1          TIME.PHASE = 'TOTAL ' ;

  11446 46 000511   040000 100400                    MLR     fill='040'O
        46 000512   003760 000006 1                  ADSC9   NAMES+2032               cn=0,n=6
        46 000513   000000 000006 45                 ADSC9   OBUF                     cn=0,n=6

      326    11447    1          TIME.NUMBER = ' ' ;

  11447 46 000514   040000 236007                    LDQ     16384,DL
        46 000515   000001 552010 45                 STBQ    OBUF+1,'10'O

      327    11448    1          TIME.ALOCATD = '   ' ;

  11448 46 000516   003712 236000 1                  LDQ     NAMES+1994
        46 000517   000013 552070 45                 STBQ    OBUF+11,'70'O

      328    11449    1          TIME.K       = ' ' ;

  11449 46 000520   000040 236007                    LDQ     32,DL
        46 000521   000013 552004 45                 STBQ    OBUF+11,'04'O

      329    11450               %SET_TIME (I = 0) ;

  11451 46 000522   000365 235000 xsym               LDA     COMCOM+245
        46 000523   000044 773000                    LRL     36
        46 000524   200020 757100                    STAQ    TEMP7+3,,AUTO
        46 000525   000100 301500                    BTD
        46 000526   200020 000010                    NDSC9   TEMP7+3,,AUTO            cn=0,s=lsgnf,sf=0,n=8
        46 000527   200007 030012                    NDSC9   CHAR10,,AUTO             cn=0,s=nosgn,sf=0,n=10

  11452 46 000530   200007 236100                    LDQ     CHAR10,,AUTO
        46 000531   000002 756000 45                 STQ     OBUF+2

  11453 46 000532   200010 236100                    LDQ     CHAR10+1,,AUTO
PL6.E3A0      #001=Z8JT$TABLE_DUMP File=Z8JT.:Z8A6TSI                            SAT 08/09/97 13:32 Page:67
        46 000533   000011 772000                    QRL     9
        46 000534   000003 552034 45                 STBQ    OBUF+3,'34'O

  11454 46 000535   200010 235100                    LDA     CHAR10+1,,AUTO
        46 000536   200011 236100                    LDQ     CHAR10+2,,AUTO
        46 000537   000011 773000                    LRL     9
        46 000540   000002 376000 47                 ANQ     2
        46 000541   000040 276007                    ORQ     32,DL
        46 000542   000011 772000                    QRL     9
        46 000543   000004 552034 45                 STBQ    OBUF+4,'34'O

  11456 46 000544   400000 236003                    LDQ     -131072,DU
        46 000545   200006 756100                    STQ     ZERO,,AUTO

  11457 46 000546   200004 450100                    STZ     J,,AUTO

  11458 46 000547   200006 234100                    SZN     ZERO,,AUTO
        46 000550   000563 605000 46                 TPL     s:11463

  11459 46 000551   200004 235100                    LDA     J,,AUTO
        46 000552   040000 106405                    CMPC    fill='040'O
        46 000553   000002 000001 45                 ADSC9   OBUF+2,A                 cn=0,n=1
        46 000554   000003 000001 47                 ADSC9   3                        cn=0,n=1
        46 000555   000562 601000 46                 TNZ     s:11461

  11460 46 000556   040005 100400                    MLR     fill='040'O
        46 000557   000001 000001 47                 ADSC9   1                        cn=0,n=1
        46 000560   000002 000001 45                 ADSC9   OBUF+2,A                 cn=0,n=1
        46 000561   000563 710000 46                 TRA     s:11463

  11461 46 000562   200006 450100                    STZ     ZERO,,AUTO

  11463 46 000563   200004 054100                    AOS     J,,AUTO
        46 000564   200004 235100                    LDA     J,,AUTO
        46 000565   000002 115007                    CMPA    2,DL
        46 000566   000547 604400 46                 TMOZ    s:11458

PL6.E3A0      #001=Z8JT$TABLE_DUMP File=Z8JT.:Z8A6TSI                            SAT 08/09/97 13:32 Page:68
  11465 46 000567   000365 236000 xsym               LDQ     COMCOM+245
        46 000570   000001 772000                    QRL     1
        46 000571   000764 506007                    DIV     500,DL
        46 000572   200004 756100                    STQ     J,,AUTO

  11466 46 000573   000000 116003                    CMPQ    0,DU
        46 000574   000600 601000 46                 TNZ     s:11468

  11467 46 000575   000004 235000 47                 LDA     4
        46 000576   200004 755100                    STA     J,,AUTO
        46 000577   000604 710000 46                 TRA     s:11469

  11468 46 000600   000131 236000 xsym               LDQ     COMCOM+89
        46 000601   165140 402007                    MPY     60000,DL
        46 000602   200004 506100                    DIV     J,,AUTO
        46 000603   200004 756100                    STQ     J,,AUTO

  11469 46 000604   200004 235100                    LDA     J,,AUTO
        46 000605   000005 115000 47                 CMPA    5
        46 000606   000613 604400 46                 TMOZ    s:11471

  11470 46 000607   040100 100400                    MLR     fill='040'O
        46 000610   003755 000012 1                  ADSC9   NAMES+2029               cn=0,n=10
        46 000611   200007 000012                    ADSC9   CHAR10,,AUTO             cn=0,n=10
        46 000612   000616 710000 46                 TRA     s:11472

  11471 46 000613   000100 301500                    BTD
        46 000614   200004 000004                    NDSC9   J,,AUTO                  cn=0,s=lsgnf,sf=0,n=4
        46 000615   200007 030012                    NDSC9   CHAR10,,AUTO             cn=0,s=nosgn,sf=0,n=10

  11472 46 000616   040000 100500                    MLR     fill='040'O
        46 000617   200010 000003                    ADSC9   CHAR10+1,,AUTO           cn=0,n=3
        46 000620   000007 400003 45                 ADSC9   OBUF+7                   cn=2,n=3

  11473 46 000621   040000 100500                    MLR     fill='040'O
        46 000622   200010 600003                    ADSC9   CHAR10+1,,AUTO           cn=3,n=3
        46 000623   000010 400003 45                 ADSC9   OBUF+8                   cn=2,n=3
PL6.E3A0      #001=Z8JT$TABLE_DUMP File=Z8JT.:Z8A6TSI                            SAT 08/09/97 13:32 Page:69

  11475 46 000624   400000 236003                    LDQ     -131072,DU
        46 000625   200006 756100                    STQ     ZERO,,AUTO

  11476 46 000626   200004 450100                    STZ     J,,AUTO

  11477 46 000627   200006 234100                    SZN     ZERO,,AUTO
        46 000630   000643 605000 46                 TPL     s:11482

  11478 46 000631   200004 235100                    LDA     J,,AUTO
        46 000632   040000 106405                    CMPC    fill='040'O
        46 000633   000007 400001 45                 ADSC9   OBUF+7,A                 cn=2,n=1
        46 000634   000003 000001 47                 ADSC9   3                        cn=0,n=1
        46 000635   000642 601000 46                 TNZ     s:11480

  11479 46 000636   040005 100400                    MLR     fill='040'O
        46 000637   000001 000001 47                 ADSC9   1                        cn=0,n=1
        46 000640   000007 400001 45                 ADSC9   OBUF+7,A                 cn=2,n=1
        46 000641   000643 710000 46                 TRA     s:11482

  11480 46 000642   200006 450100                    STZ     ZERO,,AUTO

  11482 46 000643   200004 054100                    AOS     J,,AUTO
        46 000644   200004 235100                    LDA     J,,AUTO
        46 000645   000001 115007                    CMPA    1,DL
        46 000646   000627 604400 46                 TMOZ    s:11477

      330    11484    1          CALL Z9AL$DUMP_LINE ;

  11484 46 000647   000000 631400 47                 EPPR1   0
        46 000650   000000 701000 xent               TSX1    Z9AL$DUMP_LINE
        46 000651   000000 011000                    NOP     0

      331    11485
      332    11486    1          CALL Z9AL$WRITE_BLANK_LINE ;

  11486 46 000652   000000 631400 47                 EPPR1   0
PL6.E3A0      #001=Z8JT$TABLE_DUMP File=Z8JT.:Z8A6TSI                            SAT 08/09/97 13:32 Page:70
        46 000653   000000 701000 xent               TSX1    Z9AL$WRITE_BLANK_LINE
        46 000654   000000 011000                    NOP     0

      333    11487
      334    11488    1          OBUF = ' ' ;

  11488 46 000655   040000 100400                    MLR     fill='040'O
        46 000656   000001 000001 47                 ADSC9   1                        cn=0,n=1
        46 000657   000000 000170 45                 ADSC9   OBUF                     cn=0,n=120

      335    11489    1          TABLE.LENGTH_OF = 'Length of ' ;

  11489 46 000660   040000 100400                    MLR     fill='040'O
        46 000661   003762 000012 1                  ADSC9   NAMES+2034               cn=0,n=10
        46 000662   000000 000012 45                 ADSC9   OBUF                     cn=0,n=10

      336    11490    1          TABLE.TABLE_IS  = ' table is ' ;

  11490 46 000663   040000 100400                    MLR     fill='040'O
        46 000664   003765 000012 1                  ADSC9   NAMES+2037               cn=0,n=10
        46 000665   000003 200012 45                 ADSC9   OBUF+3                   cn=1,n=10

      337    11491    1          TABLE.K         = 'K.' ;

  11491 46 000666   040000 100400                    MLR     fill='040'O
        46 000667   003770 000002 1                  ADSC9   NAMES+2040               cn=0,n=2
        46 000670   000006 600002 45                 ADSC9   OBUF+6                   cn=3,n=2

      338    11492
      339    11493    1          TABLE.NAME = 'DNT' ;

  11493 46 000671   040000 100400                    MLR     fill='040'O
        46 000672   003744 000003 1                  ADSC9   NAMES+2020               cn=0,n=3
        46 000673   000002 400003 45                 ADSC9   OBUF+2                   cn=2,n=3

      340    11494    1          CALL GET_TABLE_SIZE (ADDR(DNT_), TABLE.AMOUNT) ;

PL6.E3A0      #001=Z8JT$TABLE_DUMP File=Z8JT.:Z8A6TSI                            SAT 08/09/97 13:32 Page:71
  11494 46 000674   000006 236000 47                 LDQ     6
        46 000675   200022 756100                    STQ     TEMP7+5,,AUTO
        46 000676   000007 236000 47                 LDQ     7
        46 000677   200014 756100                    STQ     @TABLE$+1,,AUTO
        46 000700   200022 630500                    EPPR0   TEMP7+5,,AUTO
        46 000701   200013 450500                    STP0    CHAR10+4,,AUTO
        46 000702   001160 701000 46                 TSX1    GET_TABLE_SIZE
        46 000703   000000 011000                    NOP     0

      341    11495    1          CALL Z9AL$DUMP_LINE ;

  11495 46 000704   000000 631400 47                 EPPR1   0
        46 000705   000000 701000 xent               TSX1    Z9AL$DUMP_LINE
        46 000706   000000 011000                    NOP     0

      342    11496
      343    11497    1          TABLE.NAME = 'DPI' ;

  11497 46 000707   040000 100400                    MLR     fill='040'O
        46 000710   003771 000003 1                  ADSC9   NAMES+2041               cn=0,n=3
        46 000711   000002 400003 45                 ADSC9   OBUF+2                   cn=2,n=3

      344    11498    1          CALL GET_TABLE_SIZE (ADDR(DPI_), TABLE.AMOUNT) ;

  11498 46 000712   000010 236000 47                 LDQ     8
        46 000713   200023 756100                    STQ     TEMP7+6,,AUTO
        46 000714   000007 236000 47                 LDQ     7
        46 000715   200014 756100                    STQ     @TABLE$+1,,AUTO
        46 000716   200023 630500                    EPPR0   TEMP7+6,,AUTO
        46 000717   200013 450500                    STP0    CHAR10+4,,AUTO
        46 000720   001160 701000 46                 TSX1    GET_TABLE_SIZE
        46 000721   000000 011000                    NOP     0

      345    11499    1          CALL Z9AL$DUMP_LINE ;

  11499 46 000722   000000 631400 47                 EPPR1   0
        46 000723   000000 701000 xent               TSX1    Z9AL$DUMP_LINE
PL6.E3A0      #001=Z8JT$TABLE_DUMP File=Z8JT.:Z8A6TSI                            SAT 08/09/97 13:32 Page:72
        46 000724   000000 011000                    NOP     0

      346    11500
      347    11501    1          TABLE.NAME = 'ERR' ;

  11501 46 000725   040000 100400                    MLR     fill='040'O
        46 000726   003772 000003 1                  ADSC9   NAMES+2042               cn=0,n=3
        46 000727   000002 400003 45                 ADSC9   OBUF+2                   cn=2,n=3

      348    11502    1          CALL GET_TABLE_SIZE (ADDR(ERR_), TABLE.AMOUNT) ;

  11502 46 000730   000011 236000 47                 LDQ     9
        46 000731   200024 756100                    STQ     TEMP7+7,,AUTO
        46 000732   000007 236000 47                 LDQ     7
        46 000733   200014 756100                    STQ     @TABLE$+1,,AUTO
        46 000734   200024 630500                    EPPR0   TEMP7+7,,AUTO
        46 000735   200013 450500                    STP0    CHAR10+4,,AUTO
        46 000736   001160 701000 46                 TSX1    GET_TABLE_SIZE
        46 000737   000000 011000                    NOP     0

      349    11503    1          CALL Z9AL$DUMP_LINE ;

  11503 46 000740   000000 631400 47                 EPPR1   0
        46 000741   000000 701000 xent               TSX1    Z9AL$DUMP_LINE
        46 000742   000000 011000                    NOP     0

      350    11504
      351    11505    1          TABLE.NAME = 'ETT' ;

  11505 46 000743   040000 100400                    MLR     fill='040'O
        46 000744   003773 000003 1                  ADSC9   NAMES+2043               cn=0,n=3
        46 000745   000002 400003 45                 ADSC9   OBUF+2                   cn=2,n=3

      352    11506    1          CALL GET_TABLE_SIZE (ADDR(ETT_), TABLE.AMOUNT) ;

  11506 46 000746   000012 236000 47                 LDQ     10
        46 000747   200025 756100                    STQ     TEMP7+8,,AUTO
PL6.E3A0      #001=Z8JT$TABLE_DUMP File=Z8JT.:Z8A6TSI                            SAT 08/09/97 13:32 Page:73
        46 000750   000007 236000 47                 LDQ     7
        46 000751   200014 756100                    STQ     @TABLE$+1,,AUTO
        46 000752   200025 630500                    EPPR0   TEMP7+8,,AUTO
        46 000753   200013 450500                    STP0    CHAR10+4,,AUTO
        46 000754   001160 701000 46                 TSX1    GET_TABLE_SIZE
        46 000755   000000 011000                    NOP     0

      353    11507    1          CALL Z9AL$DUMP_LINE ;

  11507 46 000756   000000 631400 47                 EPPR1   0
        46 000757   000000 701000 xent               TSX1    Z9AL$DUMP_LINE
        46 000760   000000 011000                    NOP     0

      354    11508
      355    11509    1          TABLE.NAME = 'GST' ;

  11509 46 000761   040000 100400                    MLR     fill='040'O
        46 000762   003774 000003 1                  ADSC9   NAMES+2044               cn=0,n=3
        46 000763   000002 400003 45                 ADSC9   OBUF+2                   cn=2,n=3

      356    11510    1          CALL GET_TABLE_SIZE (ADDR(GST_), TABLE.AMOUNT) ;

  11510 46 000764   000013 236000 47                 LDQ     11
        46 000765   200026 756100                    STQ     TEMP7+9,,AUTO
        46 000766   000007 236000 47                 LDQ     7
        46 000767   200014 756100                    STQ     @TABLE$+1,,AUTO
        46 000770   200026 630500                    EPPR0   TEMP7+9,,AUTO
        46 000771   200013 450500                    STP0    CHAR10+4,,AUTO
        46 000772   001160 701000 46                 TSX1    GET_TABLE_SIZE
        46 000773   000000 011000                    NOP     0

      357    11511    1          CALL Z9AL$DUMP_LINE ;

  11511 46 000774   000000 631400 47                 EPPR1   0
        46 000775   000000 701000 xent               TSX1    Z9AL$DUMP_LINE
        46 000776   000000 011000                    NOP     0

PL6.E3A0      #001=Z8JT$TABLE_DUMP File=Z8JT.:Z8A6TSI                            SAT 08/09/97 13:32 Page:74
      358    11512
      359    11513    1          TABLE.NAME = 'ILL' ;

  11513 46 000777   040000 100400                    MLR     fill='040'O
        46 001000   003775 000003 1                  ADSC9   NAMES+2045               cn=0,n=3
        46 001001   000002 400003 45                 ADSC9   OBUF+2                   cn=2,n=3

      360    11514    1          CALL GET_TABLE_SIZE (ADDR(ILL_), TABLE.AMOUNT) ;

  11514 46 001002   000014 236000 47                 LDQ     12
        46 001003   200027 756100                    STQ     TEMP7+10,,AUTO
        46 001004   000007 236000 47                 LDQ     7
        46 001005   200014 756100                    STQ     @TABLE$+1,,AUTO
        46 001006   200027 630500                    EPPR0   TEMP7+10,,AUTO
        46 001007   200013 450500                    STP0    CHAR10+4,,AUTO
        46 001010   001160 701000 46                 TSX1    GET_TABLE_SIZE
        46 001011   000000 011000                    NOP     0

      361    11515    1          CALL Z9AL$DUMP_LINE ;

  11515 46 001012   000000 631400 47                 EPPR1   0
        46 001013   000000 701000 xent               TSX1    Z9AL$DUMP_LINE
        46 001014   000000 011000                    NOP     0

      362    11516
      363    11517    1          TABLE.NAME = 'ILS' ;

  11517 46 001015   040000 100400                    MLR     fill='040'O
        46 001016   003776 000003 1                  ADSC9   NAMES+2046               cn=0,n=3
        46 001017   000002 400003 45                 ADSC9   OBUF+2                   cn=2,n=3

      364    11518    1          CALL GET_TABLE_SIZE (ADDR(ILS_), TABLE.AMOUNT) ;

  11518 46 001020   000015 236000 47                 LDQ     13
        46 001021   200030 756100                    STQ     TEMP7+11,,AUTO
        46 001022   000007 236000 47                 LDQ     7
        46 001023   200014 756100                    STQ     @TABLE$+1,,AUTO
PL6.E3A0      #001=Z8JT$TABLE_DUMP File=Z8JT.:Z8A6TSI                            SAT 08/09/97 13:32 Page:75
        46 001024   200030 630500                    EPPR0   TEMP7+11,,AUTO
        46 001025   200013 450500                    STP0    CHAR10+4,,AUTO
        46 001026   001160 701000 46                 TSX1    GET_TABLE_SIZE
        46 001027   000000 011000                    NOP     0

      365    11519    1          CALL Z9AL$DUMP_LINE ;

  11519 46 001030   000000 631400 47                 EPPR1   0
        46 001031   000000 701000 xent               TSX1    Z9AL$DUMP_LINE
        46 001032   000000 011000                    NOP     0

      366    11520
      367    11521    1          TABLE.NAME = 'LTS' ;

  11521 46 001033   040000 100400                    MLR     fill='040'O
        46 001034   003777 000003 1                  ADSC9   NAMES+2047               cn=0,n=3
        46 001035   000002 400003 45                 ADSC9   OBUF+2                   cn=2,n=3

      368    11522    1          CALL GET_TABLE_SIZE (ADDR(LTS_), TABLE.AMOUNT) ;

  11522 46 001036   000016 236000 47                 LDQ     14
        46 001037   200031 756100                    STQ     TEMP7+12,,AUTO
        46 001040   000007 236000 47                 LDQ     7
        46 001041   200014 756100                    STQ     @TABLE$+1,,AUTO
        46 001042   200031 630500                    EPPR0   TEMP7+12,,AUTO
        46 001043   200013 450500                    STP0    CHAR10+4,,AUTO
        46 001044   001160 701000 46                 TSX1    GET_TABLE_SIZE
        46 001045   000000 011000                    NOP     0

      369    11523    1          CALL Z9AL$DUMP_LINE ;

  11523 46 001046   000000 631400 47                 EPPR1   0
        46 001047   000000 701000 xent               TSX1    Z9AL$DUMP_LINE
        46 001050   000000 011000                    NOP     0

      370    11524
      371    11525    1          TABLE.NAME = 'OBJ' ;
PL6.E3A0      #001=Z8JT$TABLE_DUMP File=Z8JT.:Z8A6TSI                            SAT 08/09/97 13:32 Page:76

  11525 46 001051   040000 100400                    MLR     fill='040'O
        46 001052   004000 000003 1                  ADSC9   NAMES+2048               cn=0,n=3
        46 001053   000002 400003 45                 ADSC9   OBUF+2                   cn=2,n=3

      372    11526    1          CALL GET_TABLE_SIZE (ADDR(OBJ_), TABLE.AMOUNT) ;

  11526 46 001054   000017 236000 47                 LDQ     15
        46 001055   200032 756100                    STQ     TEMP7+13,,AUTO
        46 001056   000007 236000 47                 LDQ     7
        46 001057   200014 756100                    STQ     @TABLE$+1,,AUTO
        46 001060   200032 630500                    EPPR0   TEMP7+13,,AUTO
        46 001061   200013 450500                    STP0    CHAR10+4,,AUTO
        46 001062   001160 701000 46                 TSX1    GET_TABLE_SIZE
        46 001063   000000 011000                    NOP     0

      373    11527    1          CALL Z9AL$DUMP_LINE ;

  11527 46 001064   000000 631400 47                 EPPR1   0
        46 001065   000000 701000 xent               TSX1    Z9AL$DUMP_LINE
        46 001066   000000 011000                    NOP     0

      374    11528
      375    11529    1          TABLE.NAME = 'QLT' ;

  11529 46 001067   040000 100400                    MLR     fill='040'O
        46 001070   004001 000003 1                  ADSC9   NAMES+2049               cn=0,n=3
        46 001071   000002 400003 45                 ADSC9   OBUF+2                   cn=2,n=3

      376    11530    1          CALL GET_TABLE_SIZE (ADDR(QLT_), TABLE.AMOUNT) ;

  11530 46 001072   000020 236000 47                 LDQ     16
        46 001073   200033 756100                    STQ     TEMP7+14,,AUTO
        46 001074   000007 236000 47                 LDQ     7
        46 001075   200014 756100                    STQ     @TABLE$+1,,AUTO
        46 001076   200033 630500                    EPPR0   TEMP7+14,,AUTO
        46 001077   200013 450500                    STP0    CHAR10+4,,AUTO
PL6.E3A0      #001=Z8JT$TABLE_DUMP File=Z8JT.:Z8A6TSI                            SAT 08/09/97 13:32 Page:77
        46 001100   001160 701000 46                 TSX1    GET_TABLE_SIZE
        46 001101   000000 011000                    NOP     0

      377    11531    1          CALL Z9AL$DUMP_LINE ;

  11531 46 001102   000000 631400 47                 EPPR1   0
        46 001103   000000 701000 xent               TSX1    Z9AL$DUMP_LINE
        46 001104   000000 011000                    NOP     0

      378    11532
      379    11533    1          TABLE.NAME = 'ST ' ;

  11533 46 001105   040000 100400                    MLR     fill='040'O
        46 001106   003720 000003 1                  ADSC9   NAMES+2000               cn=0,n=3
        46 001107   000002 400003 45                 ADSC9   OBUF+2                   cn=2,n=3

      380    11534    1          CALL GET_TABLE_SIZE (ADDR(ST_) , TABLE.AMOUNT) ;

  11534 46 001110   000021 236000 47                 LDQ     17
        46 001111   200034 756100                    STQ     TEMP7+15,,AUTO
        46 001112   000007 236000 47                 LDQ     7
        46 001113   200014 756100                    STQ     @TABLE$+1,,AUTO
        46 001114   200034 630500                    EPPR0   TEMP7+15,,AUTO
        46 001115   200013 450500                    STP0    CHAR10+4,,AUTO
        46 001116   001160 701000 46                 TSX1    GET_TABLE_SIZE
        46 001117   000000 011000                    NOP     0

      381    11535    1          CALL Z9AL$DUMP_LINE ;

  11535 46 001120   000000 631400 47                 EPPR1   0
        46 001121   000000 701000 xent               TSX1    Z9AL$DUMP_LINE
        46 001122   000000 011000                    NOP     0

      382    11536
      383    11537    1          TABLE.NAME = 'XRF' ;

  11537 46 001123   040000 100400                    MLR     fill='040'O
PL6.E3A0      #001=Z8JT$TABLE_DUMP File=Z8JT.:Z8A6TSI                            SAT 08/09/97 13:32 Page:78
        46 001124   004002 000003 1                  ADSC9   NAMES+2050               cn=0,n=3
        46 001125   000002 400003 45                 ADSC9   OBUF+2                   cn=2,n=3

      384    11538    1          CALL GET_TABLE_SIZE (ADDR(XREF_), TABLE.AMOUNT) ;

  11538 46 001126   000022 236000 47                 LDQ     18
        46 001127   200035 756100                    STQ     TEMP7+16,,AUTO
        46 001130   000007 236000 47                 LDQ     7
        46 001131   200014 756100                    STQ     @TABLE$+1,,AUTO
        46 001132   200035 630500                    EPPR0   TEMP7+16,,AUTO
        46 001133   200013 450500                    STP0    CHAR10+4,,AUTO
        46 001134   001160 701000 46                 TSX1    GET_TABLE_SIZE
        46 001135   000000 011000                    NOP     0

      385    11539    1          CALL Z9AL$DUMP_LINE ;

  11539 46 001136   000000 631400 47                 EPPR1   0
        46 001137   000000 701000 xent               TSX1    Z9AL$DUMP_LINE
        46 001140   000000 011000                    NOP     0

      386    11540
      387    11541    1          TABLE.NAME = 'HEP' ;

  11541 46 001141   040000 100400                    MLR     fill='040'O
        46 001142   004003 000003 1                  ADSC9   NAMES+2051               cn=0,n=3
        46 001143   000002 400003 45                 ADSC9   OBUF+2                   cn=2,n=3

      388    11542    1          CALL GET_TABLE_SIZE (ADDR(HEAP_), TABLE.AMOUNT) ;

  11542 46 001144   000023 236000 47                 LDQ     19
        46 001145   200036 756100                    STQ     TEMP7+17,,AUTO
        46 001146   000007 236000 47                 LDQ     7
        46 001147   200014 756100                    STQ     @TABLE$+1,,AUTO
        46 001150   200036 630500                    EPPR0   TEMP7+17,,AUTO
        46 001151   200013 450500                    STP0    CHAR10+4,,AUTO
        46 001152   001160 701000 46                 TSX1    GET_TABLE_SIZE
        46 001153   000000 011000                    NOP     0
PL6.E3A0      #001=Z8JT$TABLE_DUMP File=Z8JT.:Z8A6TSI                            SAT 08/09/97 13:32 Page:79

      389    11543    1          CALL Z9AL$DUMP_LINE ;

  11543 46 001154   000000 631400 47                 EPPR1   0
        46 001155   000000 701000 xent               TSX1    Z9AL$DUMP_LINE
        46 001156   000000 011000                    NOP     0

      390    11544
      391    11545    1   RETURN ; /* END OF Z8JT$DUMP_TIMES */

  11545 46 001157   000000 702200 xent               TSX2  ! X66_ARET

      392    11546
      393    11547        %EJECT;
PL6.E3A0      #001=Z8JT$TABLE_DUMP File=Z8JT.:Z8A6TSI                            SAT 08/09/97 13:32 Page:80
      394    11548    1   GET_TABLE_SIZE : PROC (TABLE$, AMOUNT) ;

  11548 46 001160   200012 741300       GET_TABLE_S* STX1  ! CHAR10+3,,AUTO

      395    11549
      396    11550    2   DCL    TABLE$  PTR ;
      397    11551    2   DCL    AMOUNT  CHAR (3) ;
      398    11552
      399    11553    2   DCL 1  TABLE   ALIGNED BASED (TABLE$),
      400    11554    2        2 TOP     PTR,
      401    11555    2        2 FIRST   PTR,
      402    11556    2        2 BOTTOM  UBIN WORD UNAL,
      403    11557    2        2 FLOOR   UBIN WORD UNAL,
      404    11558    2        2 SIZE    UBIN WORD UNAL ;
      405    11559
      406    11560    2          CALL BINCHAR (AMOUNT, TABLE$ -> TABLE.SIZE) ;

  11560 46 001161   200013 470500                    LDP0    @TABLE$,,AUTO
        46 001162   000000 471500                    LDP1    0,,PR0
        46 001163   100004 235100                    LDA     4,,PR1
        46 001164   000044 773000                    LRL     36
        46 001165   200020 757100                    STAQ    TEMP7+3,,AUTO
        46 001166   200014 471500                    LDP1    @AMOUNT,,AUTO
        46 001167   000100 301500                    BTD
        46 001170   200020 000010                    NDSC9   TEMP7+3,,AUTO            cn=0,s=lsgnf,sf=0,n=8
        46 001171   100000 030003                    NDSC9   0,,PR1                   cn=0,s=nosgn,sf=0,n=3

      407    11561
      408    11562    3          IF SUBSTR (AMOUNT, 0, 1) = '0' THEN DO ; /* PIC ZZ9 */

  11562 46 001172   040000 106500                    CMPC    fill='040'O
        46 001173   100000 000001                    ADSC9   0,,PR1                   cn=0,n=1
        46 001174   000003 000001 47                 ADSC9   3                        cn=0,n=1
        46 001175   001210 601000 46                 TNZ     s:11569

      409    11563    3            SUBSTR (AMOUNT, 0, 1) = ' ' ;

PL6.E3A0      #001=Z8JT$TABLE_DUMP File=Z8JT.:Z8A6TSI                            SAT 08/09/97 13:32 Page:81
  11563 46 001176   040100 100400                    MLR     fill='040'O
        46 001177   000001 000001 47                 ADSC9   1                        cn=0,n=1
        46 001200   100000 000001                    ADSC9   0,,PR1                   cn=0,n=1

      410    11564    4            IF SUBSTR (AMOUNT, 1, 1) = '0' THEN DO ;

  11564 46 001201   040000 106500                    CMPC    fill='040'O
        46 001202   100000 200001                    ADSC9   0,,PR1                   cn=1,n=1
        46 001203   000003 000001 47                 ADSC9   3                        cn=0,n=1
        46 001204   001210 601000 46                 TNZ     s:11569

      411    11565    4              SUBSTR (AMOUNT, 1, 1) = ' ' ;

  11565 46 001205   040100 100400                    MLR     fill='040'O
        46 001206   000001 000001 47                 ADSC9   1                        cn=0,n=1
        46 001207   100000 200001                    ADSC9   0,,PR1                   cn=1,n=1

      412    11566    4            END ;

      413    11567    3          END ; /* PIC ZZ9 */

      414    11568
      415    11569    2   END GET_TABLE_SIZE ;

  11569 46 001210   200012 221300                    LDX1  ! CHAR10+3,,AUTO
        46 001211   000001 702211                    TSX2  ! 1,X1

      416    11570
      417    11571        %EJECT;
PL6.E3A0      #001=Z8JT$TABLE_DUMP File=Z8JT.:Z8A6TSI                            SAT 08/09/97 13:32 Page:82
      418    11572    1   DUMP_ILL: PROC ; /* DUMP THE <ILL> TABLE */

  11572 46 001212   200012 741300       DUMP_ILL     STX1  ! CHAR10+3,,AUTO

      419    11573
      420    11574
      421    11575    2          CURRENT_LINE = COMCOM.CURRENT.LINE;

  11575 46 001213   000133 235000 xsym               LDA     COMCOM+91
        46 001214   200005 755100                    STA     CURRENT_LINE,,AUTO

      422    11576               %TOP_ILL (POINTER = PTR$) ;

  11578 46 001215   000000 236000 10                 LDQ     ILL_
        46 001216   000001 756000 44                 STQ     PTR$

      423    11581
      424    11582    3          DO WHILE (PTR$ ~= ADDR(NIL)) ;

  11582 46 001217   001267 710000 46                 TRA     s:11606

      425    11583
      426    11584    3            IF  PTR$->ILL.ID = %LINOI

  11584 46 001220   000001 470400 44                 LDP0    PTR$
        46 001221   000000 220100                    LDX0    0,,PR0
        46 001222   000373 100003                    CMPX0   251,DU
        46 001223   001232 601000 46                 TNZ     s:11589
        46 001224   000001 236100                    LDQ     1,,PR0
        46 001225   777777 376007                    ANQ     -1,DL
        46 001226   200005 116100                    CMPQ    CURRENT_LINE,,AUTO
        46 001227   001232 600000 46                 TZE     s:11589

      427    11585    3            AND PTR$->LINOI.LINE_NO ~= CURRENT_LINE THEN
      428    11586    3              CALL DUMP_LINOI;

  11586 46 001230   001366 701000 46                 TSX1    DUMP_LINOI
PL6.E3A0      #001=Z8JT$TABLE_DUMP File=Z8JT.:Z8A6TSI                            SAT 08/09/97 13:32 Page:83
        46 001231   000000 011000                    NOP     0

      429    11587                 %DUMP_ITEM;

  11589 46 001232   000001 470400 44                 LDP0    PTR$
        46 001233   000000 220100                    LDX0    0,,PR0
        46 001234   777552 235010 xsym               LDA     ILL_STEP-150,X0
        46 001235   000000 755000 44                 STA     LENGTH

  11590 46 001236   000025 630400 47                 EPPR0   21
        46 001237   000024 631400 47                 EPPR1   20
        46 001240   000000 701000 xent               TSX1    Z8JT$DUMP_ITEM
        46 001241   000000 011000                    NOP     0

      430    11593
      431    11594                 %STEP_ILL (POINTER = PTR$) ;

  11596 46 001242   000001 470400 44                 LDP0    PTR$
        46 001243   000000 220100                    LDX0    0,,PR0
        46 001244   777552 235010 xsym               LDA     ILL_STEP-150,X0
        46 001245   000000 755000 0                  STA     ITERATION

  11597 46 001246   000000 236000 0                  LDQ     ITERATION
        46 001247   000022 736000                    QLS     18
        46 001250   000001 036000 44                 ADLQ    PTR$
        46 001251   000001 756000 44                 STQ     PTR$

  11598 46 001252   000002 236000 10                 LDQ     ILL_+2
        46 001253   000022 736000                    QLS     18
        46 001254   000001 036000 10                 ADLQ    ILL_+1
        46 001255   000001 116000 44                 CMPQ    PTR$
        46 001256   001262 601000 46                 TNZ     s:11601

  11599 46 001257   000027 236000 47                 LDQ     23
        46 001260   000001 756000 44                 STQ     PTR$
        46 001261   001267 710000 46                 TRA     s:11606

PL6.E3A0      #001=Z8JT$TABLE_DUMP File=Z8JT.:Z8A6TSI                            SAT 08/09/97 13:32 Page:84
  11601 46 001262   000001 470400 44                 LDP0    PTR$
        46 001263   000000 220100                    LDX0    0,,PR0
        46 001264   001267 601000 46                 TNZ     s:11606

  11602 46 001265   000001 236100                    LDQ     1,,PR0
        46 001266   000001 756000 44                 STQ     PTR$

      432    11605
      433    11606    3          END;  /* while */

  11606 46 001267   000001 236000 44                 LDQ     PTR$
        46 001270   000027 116000 47                 CMPQ    23
        46 001271   001220 601000 46                 TNZ     s:11584

      434    11607
      435    11608    2   END DUMP_ILL ;

  11608 46 001272   200012 221300                    LDX1  ! CHAR10+3,,AUTO
        46 001273   000001 702211                    TSX2  ! 1,X1

      436    11609
      437    11610        %EJECT;
PL6.E3A0      #001=Z8JT$TABLE_DUMP File=Z8JT.:Z8A6TSI                            SAT 08/09/97 13:32 Page:85
      438    11611    1   DUMP_ILL2: PROC ; /* DUMP THE <ILL> TABLE */

  11611 46 001274   200012 741300       DUMP_ILL2    STX1  ! CHAR10+3,,AUTO

      439    11612
      440    11613
      441    11614    2          ILS$ = COMCOM.FIRST_ILS;

  11614 46 001275   000010 236000 xsym               LDQ     COMCOM+8
        46 001276   000000 756000 11                 STQ     ILS$

      442    11615    3          DO WHILE (ILS$ ~= ADDR(NIL)) ;

  11615 46 001277   001362 710000 46                 TRA     s:11644

      443    11616    3            PTR$ = ILS.ILL$;

  11616 46 001300   000000 470400 11                 LDP0    ILS$
        46 001301   000003 236100                    LDQ     3,,PR0
        46 001302   000001 756000 44                 STQ     PTR$

      444    11617    3            IF PTR$ ~= ADDR(NIL) THEN

  11617 46 001303   000027 116000 47                 CMPQ    23
        46 001304   001352 600000 46                 TZE     s:11640

      445    11618    4              DO;

      446    11619    5                DO WHILE( PTR$->ILL.ID = %CCOSU);

  11619 46 001305   000001 471400 44                 LDP1    PTR$
        46 001306   100000 220100                    LDX0    0,,PR1
        46 001307   000342 100003                    CMPX0   226,DU
        46 001310   001330 601000 46                 TNZ     s:11629

      447    11620                       %DUMP_ITEM;

PL6.E3A0      #001=Z8JT$TABLE_DUMP File=Z8JT.:Z8A6TSI                            SAT 08/09/97 13:32 Page:86
  11622 46 001311   000001 470400 44                 LDP0    PTR$
        46 001312   000000 220100                    LDX0    0,,PR0
        46 001313   777552 235010 xsym               LDA     ILL_STEP-150,X0
        46 001314   000000 755000 44                 STA     LENGTH

  11623 46 001315   000025 630400 47                 EPPR0   21
        46 001316   000024 631400 47                 EPPR1   20
        46 001317   000000 701000 xent               TSX1    Z8JT$DUMP_ITEM
        46 001320   000000 011000                    NOP     0

      448    11626    5                  PTR$ = PTR$-> CCOSU.ILL$;

  11626 46 001321   000001 470400 44                 LDP0    PTR$
        46 001322   000003 236100                    LDQ     3,,PR0
        46 001323   000001 756000 44                 STQ     PTR$

      449    11627    5                END;  /* WHILE */

  11627 46 001324   000001 470400 44                 LDP0    PTR$
        46 001325   000000 220100                    LDX0    0,,PR0
        46 001326   000342 100003                    CMPX0   226,DU
        46 001327   001311 600000 46                 TZE     s:11622

      450    11628
      451    11629    4                IF  PTR$->ILL.ID = %LINOI

  11629 46 001330   000001 470400 44                 LDP0    PTR$
        46 001331   000000 220100                    LDX0    0,,PR0
        46 001332   000373 100003                    CMPX0   251,DU
        46 001333   001342 601000 46                 TNZ     s:11635
        46 001334   000001 236100                    LDQ     1,,PR0
        46 001335   777777 376007                    ANQ     -1,DL
        46 001336   200005 116100                    CMPQ    CURRENT_LINE,,AUTO
        46 001337   001342 600000 46                 TZE     s:11635

      452    11630    4                AND PTR$->LINOI.LINE_NO ~= CURRENT_LINE THEN
      453    11631    4                  CALL DUMP_LINOI;
PL6.E3A0      #001=Z8JT$TABLE_DUMP File=Z8JT.:Z8A6TSI                            SAT 08/09/97 13:32 Page:87

  11631 46 001340   001366 701000 46                 TSX1    DUMP_LINOI
        46 001341   000000 011000                    NOP     0

      454    11632
      455    11633                     %DUMP_ITEM;

  11635 46 001342   000001 470400 44                 LDP0    PTR$
        46 001343   000000 220100                    LDX0    0,,PR0
        46 001344   777552 235010 xsym               LDA     ILL_STEP-150,X0
        46 001345   000000 755000 44                 STA     LENGTH

  11636 46 001346   000025 630400 47                 EPPR0   21
        46 001347   000024 631400 47                 EPPR1   20
        46 001350   000000 701000 xent               TSX1    Z8JT$DUMP_ITEM
        46 001351   000000 011000                    NOP     0

      456    11639    4              END;

      457    11640    3            ILS$ = ILS$ -> ILS.NEXT;

  11640 46 001352   000000 470400 11                 LDP0    ILS$
        46 001353   000002 236100                    LDQ     2,,PR0
        46 001354   000000 756000 11                 STQ     ILS$

      458    11641    3            PTR$ = ILS$ ;          /* - - - - - - - - - - */

  11641 46 001355   000001 756000 44                 STQ     PTR$

      459    11642    3            IF PTR_U = 0 THEN      /*  Prevent F0 Abort   */

  11642 46 001356   000001 235000 44                 LDA     PTR$
        46 001357   001362 601000 46                 TNZ     s:11644

      460    11643    3              ILS$ = ADDR(NIL) ;   /* - - - - - - - - - - */

  11643 46 001360   000027 236000 47                 LDQ     23
PL6.E3A0      #001=Z8JT$TABLE_DUMP File=Z8JT.:Z8A6TSI                            SAT 08/09/97 13:32 Page:88
        46 001361   000000 756000 11                 STQ     ILS$

      461    11644    3          END;  /* while */

  11644 46 001362   000027 116000 47                 CMPQ    23
        46 001363   001300 601000 46                 TNZ     s:11616

      462    11645
      463    11646    2   END DUMP_ILL2 ;

  11646 46 001364   200012 221300                    LDX1  ! CHAR10+3,,AUTO
        46 001365   000001 702211                    TSX2  ! 1,X1

      464    11647
      465    11648        %EJECT;
PL6.E3A0      #001=Z8JT$TABLE_DUMP File=Z8JT.:Z8A6TSI                            SAT 08/09/97 13:32 Page:89
      466    11649    1     DUMP_LINOI:    PROC ;

  11649 46 001366   200014 741300       DUMP_LINOI   STX1  ! @AMOUNT,,AUTO

      467    11650
      468    11651    2       DCL TEMP7       CHAR(7);
      469    11652
      470    11653    2        CURRENT_LINE = PTR$->LINOI.LINE_NO ;

  11653 46 001367   000001 470400 44                 LDP0    PTR$
        46 001370   000001 236100                    LDQ     1,,PR0
        46 001371   777777 376007                    ANQ     -1,DL
        46 001372   200005 756100                    STQ     CURRENT_LINE,,AUTO

      471    11654    2        CALL Z9AL$WRITE_BLANK_LINE ;

  11654 46 001373   000000 631400 47                 EPPR1   0
        46 001374   000000 701000 xent               TSX1    Z9AL$WRITE_BLANK_LINE
        46 001375   000000 011000                    NOP     0

      472    11655    2        OBUF = '************     LINE NO.                ************' ;

  11655 46 001376   040000 100400                    MLR     fill='040'O
        46 001377   004004 000065 1                  ADSC9   NAMES+2052               cn=0,n=53
        46 001400   000000 000170 45                 ADSC9   OBUF                     cn=0,n=120

      473    11656    2        CALL BINCHAR (TEMP7, CURRENT_LINE) ;

  11656 46 001401   000100 301500                    BTD
        46 001402   200005 000004                    NDSC9   CURRENT_LINE,,AUTO       cn=0,s=lsgnf,sf=0,n=4
        46 001403   200015 030007                    NDSC9   TEMP7,,AUTO              cn=0,s=nosgn,sf=0,n=7

      474    11657
      475    11658             /* BLANK WHEN ZERO LINE# A LA PIC ZZZZZZ9 */
      476    11659
      477    11660    2        ZERO = '1'B ;

PL6.E3A0      #001=Z8JT$TABLE_DUMP File=Z8JT.:Z8A6TSI                            SAT 08/09/97 13:32 Page:90
  11660 46 001404   400000 236003                    LDQ     -131072,DU
        46 001405   200006 756100                    STQ     ZERO,,AUTO

      478    11661    3        DO J = 0 TO 5 ;

  11661 46 001406   200004 450100                    STZ     J,,AUTO

      479    11662    4          IF ZERO THEN DO ;

  11662 46 001407   200006 234100                    SZN     ZERO,,AUTO
        46 001410   001423 605000 46                 TPL     s:11667

      480    11663    4            IF SUBSTR (TEMP7, J, 1) = '0'

  11663 46 001411   200004 235100                    LDA     J,,AUTO
        46 001412   040000 106505                    CMPC    fill='040'O
        46 001413   200015 000001                    ADSC9   TEMP7,A,AUTO             cn=0,n=1
        46 001414   000003 000001 47                 ADSC9   3                        cn=0,n=1
        46 001415   001422 601000 46                 TNZ     s:11665

      481    11664    4            THEN SUBSTR (TEMP7, J, 1) = ' ' ;

  11664 46 001416   040105 100400                    MLR     fill='040'O
        46 001417   000001 000001 47                 ADSC9   1                        cn=0,n=1
        46 001420   200015 000001                    ADSC9   TEMP7,A,AUTO             cn=0,n=1
        46 001421   001423 710000 46                 TRA     s:11667

      482    11665    4            ELSE ZERO = '0'B ;

  11665 46 001422   200006 450100                    STZ     ZERO,,AUTO

      483    11666    4          END ;

      484    11667    3        END ;

  11667 46 001423   200004 054100                    AOS     J,,AUTO
        46 001424   200004 235100                    LDA     J,,AUTO
PL6.E3A0      #001=Z8JT$TABLE_DUMP File=Z8JT.:Z8A6TSI                            SAT 08/09/97 13:32 Page:91
        46 001425   000005 115007                    CMPA    5,DL
        46 001426   001407 604400 46                 TMOZ    s:11662

      485    11668
      486    11669    2        SUBSTR (OBUF, 25, 7) = TEMP7 ;

  11669 46 001427   040000 100500                    MLR     fill='040'O
        46 001430   200015 000007                    ADSC9   TEMP7,,AUTO              cn=0,n=7
        46 001431   000006 200007 45                 ADSC9   OBUF+6                   cn=1,n=7

      487    11670    2        CALL Z9AL$DUMP_LINE ;

  11670 46 001432   000000 631400 47                 EPPR1   0
        46 001433   000000 701000 xent               TSX1    Z9AL$DUMP_LINE
        46 001434   000000 011000                    NOP     0

      488    11671    2     END DUMP_LINOI;  /* PROC */

  11671 46 001435   200014 221300                    LDX1  ! @AMOUNT,,AUTO
        46 001436   000001 702211                    TSX2  ! 1,X1

      489    11672        %EJECT;
PL6.E3A0      #001=Z8JT$TABLE_DUMP File=Z8JT.:Z8A6TSI                            SAT 08/09/97 13:32 Page:92
      490    11673    1   DUMP_ILS: PROC ; /* DUMP THE <ILS> TABLE */

  11673 46 001437   200012 741300       DUMP_ILS     STX1  ! CHAR10+3,,AUTO

      491    11674
      492    11675               %TOP_ILS (POINTER = PTR$) ;

  11677 46 001440   000000 236000 12                 LDQ     ILS_
        46 001441   000001 756000 44                 STQ     PTR$

      493    11680
      494    11681    3          DO WHILE (PTR$ ~= ADDR(NIL)) ;

  11681 46 001442   001502 710000 46                 TRA     s:11698

      495    11682
      496    11683    3            LENGTH = ILS_STEP_TABLE (PTR$->ILS.ID - %FIRST_ILS) ;

  11683 46 001443   000001 470400 44                 LDP0    PTR$
        46 001444   000000 220100                    LDX0    0,,PR0
        46 001445   777040 235010 xsym               LDA     ILS_STEP_TABLE-480,X0
        46 001446   000000 755000 44                 STA     LENGTH

      497    11684    3            CALL Z8JT$DUMP_ITEM ( PTR$, LENGTH );

  11684 46 001447   000025 630400 47                 EPPR0   21
        46 001450   000024 631400 47                 EPPR1   20
        46 001451   000000 701000 xent               TSX1    Z8JT$DUMP_ITEM
        46 001452   000000 011000                    NOP     0

      498    11685                 %STEP_ILS (POINTER = PTR$) ;

  11687 46 001453   000001 470400 44                 LDP0    PTR$
        46 001454   000000 220100                    LDX0    0,,PR0
        46 001455   777040 721010 xsym               LXL1    ILS_STEP_TABLE-480,X0
        46 001456   000000 636011                    EAQ     0,X1
        46 001457   000001 036000 44                 ADLQ    PTR$
PL6.E3A0      #001=Z8JT$TABLE_DUMP File=Z8JT.:Z8A6TSI                            SAT 08/09/97 13:32 Page:93
        46 001460   000001 756000 44                 STQ     PTR$

  11688 46 001461   000002 236000 12                 LDQ     ILS_+2
        46 001462   000022 736000                    QLS     18
        46 001463   000001 036000 12                 ADLQ    ILS_+1
        46 001464   000001 116000 44                 CMPQ    PTR$
        46 001465   001471 601000 46                 TNZ     s:11691

  11689 46 001466   000027 236000 47                 LDQ     23
        46 001467   000001 756000 44                 STQ     PTR$
        46 001470   001476 710000 46                 TRA     s:11695

  11691 46 001471   000001 470400 44                 LDP0    PTR$
        46 001472   000000 220100                    LDX0    0,,PR0
        46 001473   001476 601000 46                 TNZ     s:11695

  11692 46 001474   000001 236100                    LDQ     1,,PR0
        46 001475   000001 756000 44                 STQ     PTR$

      499    11695    3            IF PTR_U = 0 THEN      /* Prevent   */

  11695 46 001476   000001 235000 44                 LDA     PTR$
        46 001477   001502 601000 46                 TNZ     s:11698

      500    11696    3              PTR$ = ADDR(NIL) ;   /* F0 Abort  */

  11696 46 001500   000027 236000 47                 LDQ     23
        46 001501   000001 756000 44                 STQ     PTR$

      501    11697
      502    11698    3          END;  /* while */

  11698 46 001502   000001 236000 44                 LDQ     PTR$
        46 001503   000027 116000 47                 CMPQ    23
        46 001504   001443 601000 46                 TNZ     s:11683

      503    11699
PL6.E3A0      #001=Z8JT$TABLE_DUMP File=Z8JT.:Z8A6TSI                            SAT 08/09/97 13:32 Page:94
      504    11700    2   END DUMP_ILS ;

  11700 46 001505   200012 221300                    LDX1  ! CHAR10+3,,AUTO
        46 001506   000001 702211                    TSX2  ! 1,X1

      505    11701
      506    11702        %EJECT;
PL6.E3A0      #001=Z8JT$TABLE_DUMP File=Z8JT.:Z8A6TSI                            SAT 08/09/97 13:32 Page:95
      507    11703    1   DUMP_ILS2: PROC ; /* DUMP THE <ILS> TABLE */

  11703 46 001507   200012 741300       DUMP_ILS2    STX1  ! CHAR10+3,,AUTO

      508    11704
      509    11705    2          PTR$ = COMCOM.FIRST_ILS;

  11705 46 001510   000010 236000 xsym               LDQ     COMCOM+8
        46 001511   000001 756000 44                 STQ     PTR$

      510    11706
      511    11707    3          DO WHILE (PTR$ ~= ADDR(NIL)) ;

  11707 46 001512   001526 710000 46                 TRA     s:11713

      512    11708
      513    11709    3            LENGTH = ILS_STEP_TABLE (PTR$->ILS.ID - %FIRST_ILS) ;

  11709 46 001513   000001 470400 44                 LDP0    PTR$
        46 001514   000000 220100                    LDX0    0,,PR0
        46 001515   777040 235010 xsym               LDA     ILS_STEP_TABLE-480,X0
        46 001516   000000 755000 44                 STA     LENGTH

      514    11710    3            CALL Z8JT$DUMP_ITEM ( PTR$, LENGTH );

  11710 46 001517   000025 630400 47                 EPPR0   21
        46 001520   000024 631400 47                 EPPR1   20
        46 001521   000000 701000 xent               TSX1    Z8JT$DUMP_ITEM
        46 001522   000000 011000                    NOP     0

      515    11711    3            PTR$ = PTR$ -> ILS.NEXT;

  11711 46 001523   000001 470400 44                 LDP0    PTR$
        46 001524   000002 236100                    LDQ     2,,PR0
        46 001525   000001 756000 44                 STQ     PTR$

      516    11712
PL6.E3A0      #001=Z8JT$TABLE_DUMP File=Z8JT.:Z8A6TSI                            SAT 08/09/97 13:32 Page:96
      517    11713    3          END;  /* while */

  11713 46 001526   000027 116000 47                 CMPQ    23
        46 001527   001513 601000 46                 TNZ     s:11709

      518    11714
      519    11715    2   END DUMP_ILS2;

  11715 46 001530   200012 221300                    LDX1  ! CHAR10+3,,AUTO
        46 001531   000001 702211                    TSX2  ! 1,X1

      520    11716
      521    11717        %EJECT;
PL6.E3A0      #001=Z8JT$TABLE_DUMP File=Z8JT.:Z8A6TSI                            SAT 08/09/97 13:32 Page:97
      522    11718    1   DUMP_DPI: PROC ; /* DUMP THE <DPI> TABLE */

  11718 46 001532   200012 741300       DUMP_DPI     STX1  ! CHAR10+3,,AUTO

      523    11719
      524    11720               %TOP_DPI (POINTER = PTR$) ;

  11722 46 001533   000000 236000 3                  LDQ     DPI_
        46 001534   000001 756000 44                 STQ     PTR$

      525    11725
      526    11726    3          DO WHILE (PTR$ ~= ADDR(NIL)) ;

  11726 46 001535   001564 710000 46                 TRA     s:11741

      527    11727
      528    11728    3            LENGTH = SIZEW( DPI );

  11728 46 001536   000003 235007                    LDA     3,DL
        46 001537   000000 755000 44                 STA     LENGTH

      529    11729    3            CALL Z8JT$DUMP_ITEM ( PTR$, LENGTH );

  11729 46 001540   000025 630400 47                 EPPR0   21
        46 001541   000024 631400 47                 EPPR1   20
        46 001542   000000 701000 xent               TSX1    Z8JT$DUMP_ITEM
        46 001543   000000 011000                    NOP     0

      530    11730                 %STEP_DPI (POINTER = PTR$) ;

  11732 46 001544   000001 236000 44                 LDQ     PTR$
        46 001545   000003 036003                    ADLQ    3,DU
        46 001546   000001 756000 44                 STQ     PTR$

  11733 46 001547   000002 236000 3                  LDQ     DPI_+2
        46 001550   000022 736000                    QLS     18
        46 001551   000001 036000 3                  ADLQ    DPI_+1
PL6.E3A0      #001=Z8JT$TABLE_DUMP File=Z8JT.:Z8A6TSI                            SAT 08/09/97 13:32 Page:98
        46 001552   000001 116000 44                 CMPQ    PTR$
        46 001553   001557 601000 46                 TNZ     s:11736

  11734 46 001554   000027 236000 47                 LDQ     23
        46 001555   000001 756000 44                 STQ     PTR$
        46 001556   001564 710000 46                 TRA     s:11741

  11736 46 001557   000001 470400 44                 LDP0    PTR$
        46 001560   000000 220100                    LDX0    0,,PR0
        46 001561   001564 601000 46                 TNZ     s:11741

  11737 46 001562   000001 236100                    LDQ     1,,PR0
        46 001563   000001 756000 44                 STQ     PTR$

      531    11740
      532    11741    3          END;  /* while */

  11741 46 001564   000001 236000 44                 LDQ     PTR$
        46 001565   000027 116000 47                 CMPQ    23
        46 001566   001536 601000 46                 TNZ     s:11728

      533    11742
      534    11743    2   END DUMP_DPI ;

  11743 46 001567   200012 221300                    LDX1  ! CHAR10+3,,AUTO
        46 001570   000001 702211                    TSX2  ! 1,X1

      535    11744
      536    11745        %EJECT;
PL6.E3A0      #001=Z8JT$TABLE_DUMP File=Z8JT.:Z8A6TSI                            SAT 08/09/97 13:32 Page:99
      537    11746    1   DUMP_OBJ: PROC ; /* DUMP THE <OBJ> TABLE */

  11746 46 001571   200012 741300       DUMP_OBJ     STX1  ! CHAR10+3,,AUTO

      538    11747
      539    11748               %TOP_OBJ (POINTER = PTR$) ;

  11750 46 001572   000000 234000 14                 SZN     PAGING_OBJ
        46 001573   001617 605000 46                 TPL     s:11761

  11752 46 001574   000000 236000 16                 LDQ     OBJ_FINISHED
        46 001575   400000 376003                    ANQ     -131072,DU
        46 001576   400000 676003                    ERQ     -131072,DU
        46 001577   001606 600000 46                 TZE     s:11757

  11754 46 001600   000031 630400 47                 EPPR0   25
        46 001601   000030 631400 47                 EPPR1   24
        46 001602   000000 701000 xent               TSX1    Z9HF$WRITE_OBJ_PAGE
        46 001603   000000 011000                    NOP     0

  11755 46 001604   400000 236003                    LDQ     -131072,DU
        46 001605   000000 756000 16                 STQ     OBJ_FINISHED

  11757 46 001606   000000 631400 47                 EPPR1   0
        46 001607   000000 701000 xent               TSX1    Z9HF$CLOSE_OBJ
        46 001610   000000 011000                    NOP     0

  11758 46 001611   000000 631400 47                 EPPR1   0
        46 001612   000000 701000 xent               TSX1    Z9HF$OPEN_OBJ_INPUT
        46 001613   000000 011000                    NOP     0

  11759 46 001614   000000 631400 47                 EPPR1   0
        46 001615   000000 701000 xent               TSX1    Z9HF$READ_OBJ_PAGE
        46 001616   000000 011000                    NOP     0

  11761 46 001617   000000 236000 20                 LDQ     OBJ_
        46 001620   000001 756000 44                 STQ     PTR$
PL6.E3A0      #001=Z8JT$TABLE_DUMP File=Z8JT.:Z8A6TSI                            SAT 08/09/97 13:32 Page:100

      540    11764
      541    11765    3          DO WHILE (PTR$ ~= ADDR(NIL)) ;

  11765 46 001621   001673 710000 46                 TRA     s:11794

      542    11766
      543    11767    3            LENGTH = OBJ_STEP(PTR$->OBJ.ID - %FIRST_OBJ);

  11767 46 001622   000001 470400 44                 LDP0    PTR$
        46 001623   000000 220100                    LDX0    0,,PR0
        46 001624   776770 235010 xsym               LDA     OBJ_STEP-520,X0
        46 001625   000000 755000 44                 STA     LENGTH

      544    11768    3            CALL Z8JT$DUMP_ITEM ( PTR$, LENGTH );

  11768 46 001626   000025 630400 47                 EPPR0   21
        46 001627   000024 631400 47                 EPPR1   20
        46 001630   000000 701000 xent               TSX1    Z8JT$DUMP_ITEM
        46 001631   000000 011000                    NOP     0

      545    11769                 %STEP_OBJ (POINTER = PTR$) ;

  11771 46 001632   000001 470400 44                 LDP0    PTR$
        46 001633   000000 220100                    LDX0    0,,PR0
        46 001634   776770 721010 xsym               LXL1    OBJ_STEP-520,X0
        46 001635   000000 636011                    EAQ     0,X1
        46 001636   000001 036000 44                 ADLQ    PTR$
        46 001637   000001 756000 44                 STQ     PTR$

  11772 46 001640   000001 470400 44                 LDP0    PTR$
        46 001641   000000 220100                    LDX0    0,,PR0
        46 001642   001673 601000 46                 TNZ     s:11794

  11774 46 001643   000000 234000 14                 SZN     PAGING_OBJ
        46 001644   001661 605000 46                 TPL     s:11786

PL6.E3A0      #001=Z8JT$TABLE_DUMP File=Z8JT.:Z8A6TSI                            SAT 08/09/97 13:32 Page:101
  11776 46 001645   000000 631400 47                 EPPR1   0
        46 001646   000000 701000 xent               TSX1    Z9HF$READ_OBJ_PAGE
        46 001647   001653 702000 46                 TSX2    s:11781

  11778 46 001650   000001 236000 20                 LDQ     OBJ_+1
        46 001651   000001 756000 44                 STQ     PTR$

  11779 46 001652   001660 710000 46                 TRA     s:11784

  11781 46 001653   000000 631400 47                 EPPR1   0
        46 001654   000000 701000 xent               TSX1    Z9HF$CLOSE_OBJ
        46 001655   000000 011000                    NOP     0

  11782 46 001656   000027 236000 47                 LDQ     23
        46 001657   000001 756000 44                 STQ     PTR$

  11784 46 001660   001673 710000 46                 TRA     s:11794

  11786 46 001661   000002 236000 20                 LDQ     OBJ_+2
        46 001662   000022 736000                    QLS     18
        46 001663   000001 036000 20                 ADLQ    OBJ_+1
        46 001664   000001 116000 44                 CMPQ    PTR$
        46 001665   001671 601000 46                 TNZ     s:11789

  11787 46 001666   000027 236000 47                 LDQ     23
        46 001667   000001 756000 44                 STQ     PTR$
        46 001670   001673 710000 46                 TRA     s:11794

  11789 46 001671   000001 236100                    LDQ     1,,PR0
        46 001672   000001 756000 44                 STQ     PTR$

      546    11793
      547    11794    3          END;  /* while */

  11794 46 001673   000027 116000 47                 CMPQ    23
        46 001674   001622 601000 46                 TNZ     s:11767

PL6.E3A0      #001=Z8JT$TABLE_DUMP File=Z8JT.:Z8A6TSI                            SAT 08/09/97 13:32 Page:102
      548    11795
      549    11796    2   END DUMP_OBJ ;

  11796 46 001675   200012 221300                    LDX1  ! CHAR10+3,,AUTO
        46 001676   000001 702211                    TSX2  ! 1,X1

      550    11797
      551    11798        %EJECT;
PL6.E3A0      #001=Z8JT$TABLE_DUMP File=Z8JT.:Z8A6TSI                            SAT 08/09/97 13:32 Page:103
      552    11799    1   DUMP_ETT: PROC ; /* DUMP THE <ETT> TABLE */

  11799 46 001677   200012 741300       DUMP_ETT     STX1  ! CHAR10+3,,AUTO

      553    11800
      554    11801               %TOP_ETT (POINTER = PTR$) ;

  11803 46 001700   000000 236000 24                 LDQ     ETT_
        46 001701   000001 756000 44                 STQ     PTR$

      555    11806    2          LENGTH = SIZEW(ETT);

  11806 46 001702   000005 235007                    LDA     5,DL
        46 001703   000000 755000 44                 STA     LENGTH

      556    11807
      557    11808    3          DO WHILE (PTR$ ~= ADDR(NIL)) ;

  11808 46 001704   001731 710000 46                 TRA     s:11822

      558    11809
      559    11810    3            CALL Z8JT$DUMP_ITEM ( PTR$, LENGTH );

  11810 46 001705   000025 630400 47                 EPPR0   21
        46 001706   000024 631400 47                 EPPR1   20
        46 001707   000000 701000 xent               TSX1    Z8JT$DUMP_ITEM
        46 001710   000000 011000                    NOP     0

      560    11811                 %STEP_ETT (POINTER = PTR$) ;

  11813 46 001711   000001 236000 44                 LDQ     PTR$
        46 001712   000005 036003                    ADLQ    5,DU
        46 001713   000001 756000 44                 STQ     PTR$

  11814 46 001714   000002 236000 24                 LDQ     ETT_+2
        46 001715   000022 736000                    QLS     18
        46 001716   000001 036000 24                 ADLQ    ETT_+1
PL6.E3A0      #001=Z8JT$TABLE_DUMP File=Z8JT.:Z8A6TSI                            SAT 08/09/97 13:32 Page:104
        46 001717   000001 116000 44                 CMPQ    PTR$
        46 001720   001724 601000 46                 TNZ     s:11817

  11815 46 001721   000027 236000 47                 LDQ     23
        46 001722   000001 756000 44                 STQ     PTR$
        46 001723   001731 710000 46                 TRA     s:11822

  11817 46 001724   000001 470400 44                 LDP0    PTR$
        46 001725   000000 220100                    LDX0    0,,PR0
        46 001726   001731 601000 46                 TNZ     s:11822

  11818 46 001727   000001 236100                    LDQ     1,,PR0
        46 001730   000001 756000 44                 STQ     PTR$

      561    11821
      562    11822    3          END;  /* while */

  11822 46 001731   000001 236000 44                 LDQ     PTR$
        46 001732   000027 116000 47                 CMPQ    23
        46 001733   001705 601000 46                 TNZ     s:11810

      563    11823
      564    11824    2   END DUMP_ETT ;

  11824 46 001734   200012 221300                    LDX1  ! CHAR10+3,,AUTO
        46 001735   000001 702211                    TSX2  ! 1,X1

      565    11825
      566    11826        %EJECT;
PL6.E3A0      #001=Z8JT$TABLE_DUMP File=Z8JT.:Z8A6TSI                            SAT 08/09/97 13:32 Page:105
      567    11827    1   DUMP_ST: PROC ; /* DUMP THE <ST> TABLE */

  11827 46 001736   200012 741300       DUMP_ST      STX1  ! CHAR10+3,,AUTO

      568    11828
      569    11829               %TOP_ST (POINTER = PTR$) ;

  11831 46 001737   000000 236000 30                 LDQ     ST_
        46 001740   000001 756000 44                 STQ     PTR$

      570    11834    2          LENGTH = SIZEW(ST);

  11834 46 001741   000013 235007                    LDA     11,DL
        46 001742   000000 755000 44                 STA     LENGTH

      571    11835
      572    11836    3          DO WHILE (PTR$ ~= ADDR(NIL)) ;

  11836 46 001743   001770 710000 46                 TRA     s:11850

      573    11837
      574    11838    3            CALL Z8JT$DUMP_ITEM ( PTR$, LENGTH );

  11838 46 001744   000025 630400 47                 EPPR0   21
        46 001745   000024 631400 47                 EPPR1   20
        46 001746   000000 701000 xent               TSX1    Z8JT$DUMP_ITEM
        46 001747   000000 011000                    NOP     0

      575    11839                 %STEP_ST (POINTER = PTR$) ;

  11841 46 001750   000001 236000 44                 LDQ     PTR$
        46 001751   000013 036003                    ADLQ    11,DU
        46 001752   000001 756000 44                 STQ     PTR$

  11842 46 001753   000002 236000 30                 LDQ     ST_+2
        46 001754   000022 736000                    QLS     18
        46 001755   000001 036000 30                 ADLQ    ST_+1
PL6.E3A0      #001=Z8JT$TABLE_DUMP File=Z8JT.:Z8A6TSI                            SAT 08/09/97 13:32 Page:106
        46 001756   000001 116000 44                 CMPQ    PTR$
        46 001757   001763 601000 46                 TNZ     s:11845

  11843 46 001760   000027 236000 47                 LDQ     23
        46 001761   000001 756000 44                 STQ     PTR$
        46 001762   001770 710000 46                 TRA     s:11850

  11845 46 001763   000001 470400 44                 LDP0    PTR$
        46 001764   000000 220100                    LDX0    0,,PR0
        46 001765   001770 601000 46                 TNZ     s:11850

  11846 46 001766   000001 236100                    LDQ     1,,PR0
        46 001767   000001 756000 44                 STQ     PTR$

      576    11849
      577    11850    3          END;  /* while */

  11850 46 001770   000001 236000 44                 LDQ     PTR$
        46 001771   000027 116000 47                 CMPQ    23
        46 001772   001744 601000 46                 TNZ     s:11838

      578    11851
      579    11852    2   END DUMP_ST ;

  11852 46 001773   200012 221300                    LDX1  ! CHAR10+3,,AUTO
        46 001774   000001 702211                    TSX2  ! 1,X1

      580    11853
      581    11854        %EJECT;
PL6.E3A0      #001=Z8JT$TABLE_DUMP File=Z8JT.:Z8A6TSI                            SAT 08/09/97 13:32 Page:107
      582    11855    1   DUMP_LTS: PROC ; /* DUMP THE <LTS> TABLE */

  11855 46 001775   200012 741300       DUMP_LTS     STX1  ! CHAR10+3,,AUTO

      583    11856
      584    11857               %TOP_LTS (POINTER = PTR$) ;

  11859 46 001776   000000 236000 32                 LDQ     LTS_
        46 001777   000001 756000 44                 STQ     PTR$

      585    11862
      586    11863    3          DO WHILE (PTR$ ~= ADDR(NIL)) ;

  11863 46 002000   002046 710000 46                 TRA     s:11883

      587    11864
      588    11865    3            LENGTH = LTS_STEP (PTR$->LTS.ID - %FIRST_LTS) ;

  11865 46 002001   000001 470400 44                 LDP0    PTR$
        46 002002   000000 220100                    LDX0    0,,PR0
        46 002003   776716 235010 xsym               LDA     LTS_STEP-562,X0
        46 002004   000000 755000 44                 STA     LENGTH

      589    11866    3            IF LENGTH = 0

  11866 46 002005   002011 601000 46                 TNZ     s:11868

      590    11867    3            THEN LENGTH = PTR$->LTS.N ;

  11867 46 002006   000000 236100                    LDQ     0,,PR0
        46 002007   777777 376007                    ANQ     -1,DL
        46 002010   000000 756000 44                 STQ     LENGTH

      591    11868    3            CALL Z8JT$DUMP_ITEM ( PTR$, LENGTH );

  11868 46 002011   000025 630400 47                 EPPR0   21
        46 002012   000024 631400 47                 EPPR1   20
PL6.E3A0      #001=Z8JT$TABLE_DUMP File=Z8JT.:Z8A6TSI                            SAT 08/09/97 13:32 Page:108
        46 002013   000000 701000 xent               TSX1    Z8JT$DUMP_ITEM
        46 002014   000000 011000                    NOP     0

      592    11869                 %STEP_LTS (POINTER = PTR$) ;

  11871 46 002015   000001 470400 44                 LDP0    PTR$
        46 002016   000000 220100                    LDX0    0,,PR0
        46 002017   776716 235010 xsym               LDA     LTS_STEP-562,X0
        46 002020   000000 755000 0                  STA     ITERATION

  11872 46 002021   002025 601000 46                 TNZ     s:11874

  11873 46 002022   000000 236100                    LDQ     0,,PR0
        46 002023   777777 376007                    ANQ     -1,DL
        46 002024   000000 756000 0                  STQ     ITERATION

  11874 46 002025   000000 236000 0                  LDQ     ITERATION
        46 002026   000022 736000                    QLS     18
        46 002027   000001 036000 44                 ADLQ    PTR$
        46 002030   000001 756000 44                 STQ     PTR$

  11875 46 002031   000002 236000 32                 LDQ     LTS_+2
        46 002032   000022 736000                    QLS     18
        46 002033   000001 036000 32                 ADLQ    LTS_+1
        46 002034   000001 116000 44                 CMPQ    PTR$
        46 002035   002041 601000 46                 TNZ     s:11878

  11876 46 002036   000027 236000 47                 LDQ     23
        46 002037   000001 756000 44                 STQ     PTR$
        46 002040   002046 710000 46                 TRA     s:11883

  11878 46 002041   000001 470400 44                 LDP0    PTR$
        46 002042   000000 220100                    LDX0    0,,PR0
        46 002043   002046 601000 46                 TNZ     s:11883

  11879 46 002044   000001 236100                    LDQ     1,,PR0
        46 002045   000001 756000 44                 STQ     PTR$
PL6.E3A0      #001=Z8JT$TABLE_DUMP File=Z8JT.:Z8A6TSI                            SAT 08/09/97 13:32 Page:109

      593    11882
      594    11883    3          END;  /* while */

  11883 46 002046   000001 236000 44                 LDQ     PTR$
        46 002047   000027 116000 47                 CMPQ    23
        46 002050   002001 601000 46                 TNZ     s:11865

      595    11884
      596    11885    2   END DUMP_LTS ;

  11885 46 002051   200012 221300                    LDX1  ! CHAR10+3,,AUTO
        46 002052   000001 702211                    TSX2  ! 1,X1

      597    11886
      598    11887        %EJECT;
PL6.E3A0      #001=Z8JT$TABLE_DUMP File=Z8JT.:Z8A6TSI                            SAT 08/09/97 13:32 Page:110
      599    11888    1   DUMP_DNT: PROC ; /* DUMP THE <DNT> TABLE */

  11888 46 002053   200012 741300       DUMP_DNT     STX1  ! CHAR10+3,,AUTO

      600    11889
      601    11890               %TOP_DNT (POINTER = PTR$) ;

  11892 46 002054   000000 236000 34                 LDQ     DNT_
        46 002055   000001 756000 44                 STQ     PTR$

      602    11895
      603    11896    3          DO WHILE (PTR$ ~= ADDR(NIL)) ;

  11896 46 002056   002111 710000 46                 TRA     s:11911

      604    11897
      605    11898    3            LENGTH = PTR$->DNT.N ;

  11898 46 002057   000001 470400 44                 LDP0    PTR$
        46 002060   000000 236100                    LDQ     0,,PR0
        46 002061   777777 376007                    ANQ     -1,DL
        46 002062   000000 756000 44                 STQ     LENGTH

      606    11899    3            CALL Z8JT$DUMP_ITEM ( PTR$, LENGTH );

  11899 46 002063   000025 630400 47                 EPPR0   21
        46 002064   000024 631400 47                 EPPR1   20
        46 002065   000000 701000 xent               TSX1    Z8JT$DUMP_ITEM
        46 002066   000000 011000                    NOP     0

      607    11900                 %STEP_DNT (POINTER = PTR$) ;

  11902 46 002067   000001 470400 44                 LDP0    PTR$
        46 002070   000000 720100                    LXL0    0,,PR0
        46 002071   000000 636010                    EAQ     0,X0
        46 002072   000001 036000 44                 ADLQ    PTR$
        46 002073   000001 756000 44                 STQ     PTR$
PL6.E3A0      #001=Z8JT$TABLE_DUMP File=Z8JT.:Z8A6TSI                            SAT 08/09/97 13:32 Page:111

  11903 46 002074   000002 236000 34                 LDQ     DNT_+2
        46 002075   000022 736000                    QLS     18
        46 002076   000001 036000 34                 ADLQ    DNT_+1
        46 002077   000001 116000 44                 CMPQ    PTR$
        46 002100   002104 601000 46                 TNZ     s:11906

  11904 46 002101   000027 236000 47                 LDQ     23
        46 002102   000001 756000 44                 STQ     PTR$
        46 002103   002111 710000 46                 TRA     s:11911

  11906 46 002104   000001 470400 44                 LDP0    PTR$
        46 002105   000000 220100                    LDX0    0,,PR0
        46 002106   002111 601000 46                 TNZ     s:11911

  11907 46 002107   000001 236100                    LDQ     1,,PR0
        46 002110   000001 756000 44                 STQ     PTR$

      608    11910
      609    11911    3          END;  /* while */

  11911 46 002111   000001 236000 44                 LDQ     PTR$
        46 002112   000027 116000 47                 CMPQ    23
        46 002113   002057 601000 46                 TNZ     s:11898

      610    11912
      611    11913    2   END DUMP_DNT ;

  11913 46 002114   200012 221300                    LDX1  ! CHAR10+3,,AUTO
        46 002115   000001 702211                    TSX2  ! 1,X1

      612    11914
      613    11915        %EJECT;
PL6.E3A0      #001=Z8JT$TABLE_DUMP File=Z8JT.:Z8A6TSI                            SAT 08/09/97 13:32 Page:112
      614    11916    1   DUMP_QLT: PROC ; /* DUMP THE <QLT> TABLE */

  11916 46 002116   200012 741300       DUMP_QLT     STX1  ! CHAR10+3,,AUTO

      615    11917
      616    11918               %TOP_QLT (POINTER = PTR$) ;

  11920 46 002117   000000 236000 39                 LDQ     QLT_
        46 002120   000001 756000 44                 STQ     PTR$

      617    11923    2          LENGTH = SIZEW(QLT);

  11923 46 002121   000006 235007                    LDA     6,DL
        46 002122   000000 755000 44                 STA     LENGTH

      618    11924
      619    11925    3          DO WHILE (PTR$ ~= ADDR(NIL)) ;

  11925 46 002123   002150 710000 46                 TRA     s:11939

      620    11926
      621    11927    3            CALL Z8JT$DUMP_ITEM ( PTR$, LENGTH );

  11927 46 002124   000025 630400 47                 EPPR0   21
        46 002125   000024 631400 47                 EPPR1   20
        46 002126   000000 701000 xent               TSX1    Z8JT$DUMP_ITEM
        46 002127   000000 011000                    NOP     0

      622    11928                 %STEP_QLT (POINTER = PTR$) ;

  11930 46 002130   000001 236000 44                 LDQ     PTR$
        46 002131   000006 036003                    ADLQ    6,DU
        46 002132   000001 756000 44                 STQ     PTR$

  11931 46 002133   000002 236000 39                 LDQ     QLT_+2
        46 002134   000022 736000                    QLS     18
        46 002135   000001 036000 39                 ADLQ    QLT_+1
PL6.E3A0      #001=Z8JT$TABLE_DUMP File=Z8JT.:Z8A6TSI                            SAT 08/09/97 13:32 Page:113
        46 002136   000001 116000 44                 CMPQ    PTR$
        46 002137   002143 601000 46                 TNZ     s:11934

  11932 46 002140   000027 236000 47                 LDQ     23
        46 002141   000001 756000 44                 STQ     PTR$
        46 002142   002150 710000 46                 TRA     s:11939

  11934 46 002143   000001 470400 44                 LDP0    PTR$
        46 002144   000000 220100                    LDX0    0,,PR0
        46 002145   002150 601000 46                 TNZ     s:11939

  11935 46 002146   000001 236100                    LDQ     1,,PR0
        46 002147   000001 756000 44                 STQ     PTR$

      623    11938
      624    11939    3          END;  /* while */

  11939 46 002150   000001 236000 44                 LDQ     PTR$
        46 002151   000027 116000 47                 CMPQ    23
        46 002152   002124 601000 46                 TNZ     s:11927

      625    11940
      626    11941    2   END DUMP_QLT ;

  11941 46 002153   200012 221300                    LDX1  ! CHAR10+3,,AUTO
        46 002154   000001 702211                    TSX2  ! 1,X1

      627    11942
      628    11943        %EJECT;
PL6.E3A0      #001=Z8JT$TABLE_DUMP File=Z8JT.:Z8A6TSI                            SAT 08/09/97 13:32 Page:114
      629    11944    1   DUMP_GST: PROC ; /* DUMP THE <GST> TABLE */

  11944 46 002155   200012 741300       DUMP_GST     STX1  ! CHAR10+3,,AUTO

      630    11945
      631    11946               %TOP_GST (POINTER = PTR$) ;

  11948 46 002156   000000 236000 41                 LDQ     GST_
        46 002157   000001 756000 44                 STQ     PTR$

      632    11951    2          LENGTH = %GSA_SIZE ;

  11951 46 002160   000003 235007                    LDA     3,DL
        46 002161   000000 755000 44                 STA     LENGTH

      633    11952
      634    11953    3          DO WHILE (PTR$ ~= ADDR(NIL)) ;

  11953 46 002162   002207 710000 46                 TRA     s:11967

      635    11954
      636    11955    3            CALL Z8JT$DUMP_ITEM ( PTR$, LENGTH );

  11955 46 002163   000025 630400 47                 EPPR0   21
        46 002164   000024 631400 47                 EPPR1   20
        46 002165   000000 701000 xent               TSX1    Z8JT$DUMP_ITEM
        46 002166   000000 011000                    NOP     0

      637    11956                 %STEP_GST (POINTER = PTR$) ;

  11958 46 002167   000001 236000 44                 LDQ     PTR$
        46 002170   000003 036003                    ADLQ    3,DU
        46 002171   000001 756000 44                 STQ     PTR$

  11959 46 002172   000002 236000 41                 LDQ     GST_+2
        46 002173   000022 736000                    QLS     18
        46 002174   000001 036000 41                 ADLQ    GST_+1
PL6.E3A0      #001=Z8JT$TABLE_DUMP File=Z8JT.:Z8A6TSI                            SAT 08/09/97 13:32 Page:115
        46 002175   000001 116000 44                 CMPQ    PTR$
        46 002176   002202 601000 46                 TNZ     s:11962

  11960 46 002177   000027 236000 47                 LDQ     23
        46 002200   000001 756000 44                 STQ     PTR$
        46 002201   002207 710000 46                 TRA     s:11967

  11962 46 002202   000001 470400 44                 LDP0    PTR$
        46 002203   000000 220100                    LDX0    0,,PR0
        46 002204   002207 601000 46                 TNZ     s:11967

  11963 46 002205   000001 236100                    LDQ     1,,PR0
        46 002206   000001 756000 44                 STQ     PTR$

      638    11966
      639    11967    3          END;  /* while */

  11967 46 002207   000001 236000 44                 LDQ     PTR$
        46 002210   000027 116000 47                 CMPQ    23
        46 002211   002163 601000 46                 TNZ     s:11955

      640    11968
      641    11969    2   END DUMP_GST ;

  11969 46 002212   200012 221300                    LDX1  ! CHAR10+3,,AUTO
        46 002213   000001 702211                    TSX2  ! 1,X1

      642    11970
      643    11971        %EJECT;
PL6.E3A0      #001=Z8JT$TABLE_DUMP File=Z8JT.:Z8A6TSI                            SAT 08/09/97 13:32 Page:116
      644    11972    1   DUMP_ERR: PROC ; /* DUMP THE <ERR> TABLE */

  11972 46 002214   200012 741300       DUMP_ERR     STX1  ! CHAR10+3,,AUTO

      645    11973
      646    11974               %TOP_ERR (POINTER = PTR$) ;

  11976 46 002215   000000 236000 8                  LDQ     ERR_
        46 002216   000001 756000 44                 STQ     PTR$

      647    11979
      648    11980    3          DO WHILE (PTR$ ~= ADDR(NIL)) ;

  11980 46 002217   002252 710000 46                 TRA     s:11995

      649    11981
      650    11982    3            LENGTH = PTR$->ERR.N ;

  11982 46 002220   000001 470400 44                 LDP0    PTR$
        46 002221   000000 236100                    LDQ     0,,PR0
        46 002222   777777 376007                    ANQ     -1,DL
        46 002223   000000 756000 44                 STQ     LENGTH

      651    11983    3            CALL Z8JT$DUMP_ITEM ( PTR$, LENGTH );

  11983 46 002224   000025 630400 47                 EPPR0   21
        46 002225   000024 631400 47                 EPPR1   20
        46 002226   000000 701000 xent               TSX1    Z8JT$DUMP_ITEM
        46 002227   000000 011000                    NOP     0

      652    11984                 %STEP_ERR (POINTER = PTR$) ;

  11986 46 002230   000001 470400 44                 LDP0    PTR$
        46 002231   000000 720100                    LXL0    0,,PR0
        46 002232   000000 636010                    EAQ     0,X0
        46 002233   000001 036000 44                 ADLQ    PTR$
        46 002234   000001 756000 44                 STQ     PTR$
PL6.E3A0      #001=Z8JT$TABLE_DUMP File=Z8JT.:Z8A6TSI                            SAT 08/09/97 13:32 Page:117

  11987 46 002235   000002 236000 8                  LDQ     ERR_+2
        46 002236   000022 736000                    QLS     18
        46 002237   000001 036000 8                  ADLQ    ERR_+1
        46 002240   000001 116000 44                 CMPQ    PTR$
        46 002241   002245 601000 46                 TNZ     s:11990

  11988 46 002242   000027 236000 47                 LDQ     23
        46 002243   000001 756000 44                 STQ     PTR$
        46 002244   002252 710000 46                 TRA     s:11995

  11990 46 002245   000001 470400 44                 LDP0    PTR$
        46 002246   000000 220100                    LDX0    0,,PR0
        46 002247   002252 601000 46                 TNZ     s:11995

  11991 46 002250   000001 236100                    LDQ     1,,PR0
        46 002251   000001 756000 44                 STQ     PTR$

      653    11994
      654    11995    3          END;  /* while */

  11995 46 002252   000001 236000 44                 LDQ     PTR$
        46 002253   000027 116000 47                 CMPQ    23
        46 002254   002220 601000 46                 TNZ     s:11982

      655    11996
      656    11997    2   END DUMP_ERR ;

  11997 46 002255   200012 221300                    LDX1  ! CHAR10+3,,AUTO
        46 002256   000001 702211                    TSX2  ! 1,X1

      657    11998
      658    11999        %EJECT;
PL6.E3A0      #001=Z8JT$TABLE_DUMP File=Z8JT.:Z8A6TSI                            SAT 08/09/97 13:32 Page:118
      659    12000    1   DUMP_COMCOM: PROC ;

  12000 46 002257   200012 741300       DUMP_COMCOM  STX1  ! CHAR10+3,,AUTO

      660    12001
      661    12002    2          OBUF = ' ' ;

  12002 46 002260   040000 100400                    MLR     fill='040'O
        46 002261   000001 000001 47                 ADSC9   1                        cn=0,n=1
        46 002262   000000 000170 45                 ADSC9   OBUF                     cn=0,n=120

      662    12003
      663    12004    2          CLINE.NAME = 'ESC' ;

  12004 46 002263   040000 100400                    MLR     fill='040'O
        46 002264   004022 000003 1                  ADSC9   NAMES+2066               cn=0,n=3
        46 002265   000000 000017 45                 ADSC9   OBUF                     cn=0,n=15

      664    12005    2          CALL X8CO$CONV_TO_OCTAL (COMCOM.ESC, CLINE.W.WORD@(0)) ;

  12005 46 002266   000032 630400 47                 EPPR0   26
        46 002267   000024 631400 47                 EPPR1   20
        46 002270   000000 701000 xent               TSX1    X8CO$CONV_TO_OCTAL
        46 002271   000000 011000                    NOP     0

      665    12006    2          CALL Z9AL$DUMP_LINE ;

  12006 46 002272   000000 631400 47                 EPPR1   0
        46 002273   000000 701000 xent               TSX1    Z9AL$DUMP_LINE
        46 002274   000000 011000                    NOP     0

      666    12007
      667    12008    2          CLINE.NAME = 'FIRST_ILS' ;

  12008 46 002275   040000 100400                    MLR     fill='040'O
        46 002276   004023 000011 1                  ADSC9   NAMES+2067               cn=0,n=9
        46 002277   000000 000017 45                 ADSC9   OBUF                     cn=0,n=15
PL6.E3A0      #001=Z8JT$TABLE_DUMP File=Z8JT.:Z8A6TSI                            SAT 08/09/97 13:32 Page:119

      668    12009    2          CALL X8CO$CONV_TO_OCTAL (COMCOM.FIRST_ILS, CLINE.W.WORD@(0)) ;

  12009 46 002300   000034 630400 47                 EPPR0   28
        46 002301   000024 631400 47                 EPPR1   20
        46 002302   000000 701000 xent               TSX1    X8CO$CONV_TO_OCTAL
        46 002303   000000 011000                    NOP     0

      669    12010    2          CALL Z9AL$DUMP_LINE ;

  12010 46 002304   000000 631400 47                 EPPR1   0
        46 002305   000000 701000 xent               TSX1    Z9AL$DUMP_LINE
        46 002306   000000 011000                    NOP     0

      670    12011    2          OBUF = ' ' ;

  12011 46 002307   040000 100400                    MLR     fill='040'O
        46 002310   000001 000001 47                 ADSC9   1                        cn=0,n=1
        46 002311   000000 000170 45                 ADSC9   OBUF                     cn=0,n=120

      671    12012
      672    12013    2          CLINE.NAME = 'OPTION_BITS' ;

  12013 46 002312   040000 100400                    MLR     fill='040'O
        46 002313   004026 000013 1                  ADSC9   NAMES+2070               cn=0,n=11
        46 002314   000000 000017 45                 ADSC9   OBUF                     cn=0,n=15

      673    12014    3          DO I = 0 TO 5 ;

  12014 46 002315   200003 450100                    STZ     I,,AUTO

      674    12015    4            DO J = 0 TO 11 ;

  12015 46 002316   200004 450100                    STZ     J,,AUTO

      675    12016    4              IF COMCOM.OPTION_BITS (I*12 + J) = '1'B

PL6.E3A0      #001=Z8JT$TABLE_DUMP File=Z8JT.:Z8A6TSI                            SAT 08/09/97 13:32 Page:120
  12016 46 002317   200003 236100                    LDQ     I,,AUTO
        46 002320   000014 402007                    MPY     12,DL
        46 002321   200004 036100                    ADLQ    J,,AUTO
        46 002322   000011 234006 xsym               SZN     COMCOM+9,QL
        46 002323   002333 605000 46                 TPL     s:12018

      676    12017    4              THEN CLINE.BIT_(I*13 + J) = '1' ;

  12017 46 002324   200003 236100                    LDQ     I,,AUTO
        46 002325   000015 402007                    MPY     13,DL
        46 002326   200004 036100                    ADLQ    J,,AUTO
        46 002327   040006 100400                    MLR     fill='040'O
        46 002330   000036 000001 47                 ADSC9   30                       cn=0,n=1
        46 002331   000003 600001 45                 ADSC9   OBUF+3,Q                 cn=3,n=1
        46 002332   002341 710000 46                 TRA     s:12019

      677    12018    4              ELSE CLINE.BIT_(I*13 + J) = '0' ;

  12018 46 002333   200003 236100                    LDQ     I,,AUTO
        46 002334   000015 402007                    MPY     13,DL
        46 002335   200004 036100                    ADLQ    J,,AUTO
        46 002336   040006 100400                    MLR     fill='040'O
        46 002337   000003 000001 47                 ADSC9   3                        cn=0,n=1
        46 002340   000003 600001 45                 ADSC9   OBUF+3,Q                 cn=3,n=1

      678    12019    4            END ;

  12019 46 002341   200004 054100                    AOS     J,,AUTO
        46 002342   200004 235100                    LDA     J,,AUTO
        46 002343   000013 115007                    CMPA    11,DL
        46 002344   002317 604400 46                 TMOZ    s:12016

      679    12020    3          END ;

  12020 46 002345   200003 054100                    AOS     I,,AUTO
        46 002346   200003 236100                    LDQ     I,,AUTO
        46 002347   000005 116007                    CMPQ    5,DL
PL6.E3A0      #001=Z8JT$TABLE_DUMP File=Z8JT.:Z8A6TSI                            SAT 08/09/97 13:32 Page:121
        46 002350   002316 604400 46                 TMOZ    s:12015

      680    12021    2          CALL Z9AL$DUMP_LINE ;

  12021 46 002351   000000 631400 47                 EPPR1   0
        46 002352   000000 701000 xent               TSX1    Z9AL$DUMP_LINE
        46 002353   000000 011000                    NOP     0

      681    12022    2          OBUF = ' ' ;

  12022 46 002354   040000 100400                    MLR     fill='040'O
        46 002355   000001 000001 47                 ADSC9   1                        cn=0,n=1
        46 002356   000000 000170 45                 ADSC9   OBUF                     cn=0,n=120

      682    12023
      683    12024    2          CALL Z9AL$DUMP_LINE;

  12024 46 002357   000000 631400 47                 EPPR1   0
        46 002360   000000 701000 xent               TSX1    Z9AL$DUMP_LINE
        46 002361   000000 011000                    NOP     0

      684    12025    2          OBUF = ' ';

  12025 46 002362   040000 100400                    MLR     fill='040'O
        46 002363   000001 000001 47                 ADSC9   1                        cn=0,n=1
        46 002364   000000 000170 45                 ADSC9   OBUF                     cn=0,n=120

      685    12026
      686    12027
      687    12028    2          CLINE.NAME = 'FILL' ;

  12028 46 002365   040000 100400                    MLR     fill='040'O
        46 002366   004031 000004 1                  ADSC9   NAMES+2073               cn=0,n=4
        46 002367   000000 000017 45                 ADSC9   OBUF                     cn=0,n=15

      688    12029    2          CALL X8CO$CONV_TO_OCTAL (COMCOM.EIS.FILL, CLINE.W.WORD@(0)) ;

PL6.E3A0      #001=Z8JT$TABLE_DUMP File=Z8JT.:Z8A6TSI                            SAT 08/09/97 13:32 Page:122
  12029 46 002370   000037 630400 47                 EPPR0   31
        46 002371   000024 631400 47                 EPPR1   20
        46 002372   000000 701000 xent               TSX1    X8CO$CONV_TO_OCTAL
        46 002373   000000 011000                    NOP     0

      689    12030    2          CALL Z9AL$DUMP_LINE ;

  12030 46 002374   000000 631400 47                 EPPR1   0
        46 002375   000000 701000 xent               TSX1    Z9AL$DUMP_LINE
        46 002376   000000 011000                    NOP     0

      690    12031    2          OBUF = ' ' ;

  12031 46 002377   040000 100400                    MLR     fill='040'O
        46 002400   000001 000001 47                 ADSC9   1                        cn=0,n=1
        46 002401   000000 000170 45                 ADSC9   OBUF                     cn=0,n=120

      691    12032
      692    12033    2          CLINE.NAME = 'D_ZERO & D_ONE' ;

  12033 46 002402   040000 100400                    MLR     fill='040'O
        46 002403   004032 000016 1                  ADSC9   NAMES+2074               cn=0,n=14
        46 002404   000000 000017 45                 ADSC9   OBUF                     cn=0,n=15

      693    12034    2          CALL X8CO$CONV_TO_OCTAL (COMCOM.D_ZERO, CLINE.W.WORD@(0)) ;

  12034 46 002405   000041 630400 47                 EPPR0   33
        46 002406   000024 631400 47                 EPPR1   20
        46 002407   000000 701000 xent               TSX1    X8CO$CONV_TO_OCTAL
        46 002410   000000 011000                    NOP     0

      694    12035    2          CALL X8CO$CONV_TO_OCTAL (COMCOM.D_ONE,  CLINE.W.WORD@(1)) ;

  12035 46 002411   000043 630400 47                 EPPR0   35
        46 002412   000024 631400 47                 EPPR1   20
        46 002413   000000 701000 xent               TSX1    X8CO$CONV_TO_OCTAL
        46 002414   000000 011000                    NOP     0
PL6.E3A0      #001=Z8JT$TABLE_DUMP File=Z8JT.:Z8A6TSI                            SAT 08/09/97 13:32 Page:123

      695    12036    2          CALL Z9AL$DUMP_LINE ;

  12036 46 002415   000000 631400 47                 EPPR1   0
        46 002416   000000 701000 xent               TSX1    Z9AL$DUMP_LINE
        46 002417   000000 011000                    NOP     0

      696    12037    2          OBUF = ' ' ;

  12037 46 002420   040000 100400                    MLR     fill='040'O
        46 002421   000001 000001 47                 ADSC9   1                        cn=0,n=1
        46 002422   000000 000170 45                 ADSC9   OBUF                     cn=0,n=120

      697    12038
      698    12039    2          CLINE.NAME = 'TIMES' ;

  12039 46 002423   040000 100400                    MLR     fill='040'O
        46 002424   004036 000005 1                  ADSC9   NAMES+2078               cn=0,n=5
        46 002425   000000 000017 45                 ADSC9   OBUF                     cn=0,n=15

      699    12040    3          DO I = 0 TO 5 ;

  12040 46 002426   200003 450100                    STZ     I,,AUTO

      700    12041    3            CALL X8CO$CONV_TO_OCTAL (COMCOM.TIMES(I), CLINE.W.WORD@(I)) ;

  12041 46 002427   200003 236100                    LDQ     I,,AUTO
        46 002430   000045 402000 47                 MPY     37
        46 002431   000033 036000 47                 ADLQ    27
        46 002432   200021 756100                    STQ     TEMP7+4,,AUTO
        46 002433   200003 720100                    LXL0    I,,AUTO
        46 002434   000365 630410 xsym               EPPR0   COMCOM+245,X0
        46 002435   200020 450500                    STP0    TEMP7+3,,AUTO
        46 002436   200020 630500                    EPPR0   TEMP7+3,,AUTO
        46 002437   000024 631400 47                 EPPR1   20
        46 002440   000000 701000 xent               TSX1    X8CO$CONV_TO_OCTAL
        46 002441   000000 011000                    NOP     0
PL6.E3A0      #001=Z8JT$TABLE_DUMP File=Z8JT.:Z8A6TSI                            SAT 08/09/97 13:32 Page:124

      701    12042    3          END ;

  12042 46 002442   200003 054100                    AOS     I,,AUTO
        46 002443   200003 235100                    LDA     I,,AUTO
        46 002444   000005 115007                    CMPA    5,DL
        46 002445   002427 604400 46                 TMOZ    s:12041

      702    12043    2          CALL Z9AL$DUMP_LINE ;

  12043 46 002446   000000 631400 47                 EPPR1   0
        46 002447   000000 701000 xent               TSX1    Z9AL$DUMP_LINE
        46 002450   000000 011000                    NOP     0

      703    12044    2          OBUF = ' ' ;

  12044 46 002451   040000 100400                    MLR     fill='040'O
        46 002452   000001 000001 47                 ADSC9   1                        cn=0,n=1
        46 002453   000000 000170 45                 ADSC9   OBUF                     cn=0,n=120

      704    12045
      705    12046    2          CLINE.NAME = 'LINES, CURRENT ' ;

  12046 46 002454   040000 100400                    MLR     fill='040'O
        46 002455   004040 000017 1                  ADSC9   NAMES+2080               cn=0,n=15
        46 002456   000000 000017 45                 ADSC9   OBUF                     cn=0,n=15

      706    12047    2          CALL X8CO$CONV_TO_OCTAL (COMCOM.LINES.SOURCE, CLINE.W.WORD@(0)) ;

  12047 46 002457   000046 630400 47                 EPPR0   38
        46 002460   000024 631400 47                 EPPR1   20
        46 002461   000000 701000 xent               TSX1    X8CO$CONV_TO_OCTAL
        46 002462   000000 011000                    NOP     0

      707    12048    2          CALL X8CO$CONV_TO_OCTAL (COMCOM.CURRENT.PHASE, CLINE.W.WORD@(1)) ;

  12048 46 002463   000050 630400 47                 EPPR0   40
PL6.E3A0      #001=Z8JT$TABLE_DUMP File=Z8JT.:Z8A6TSI                            SAT 08/09/97 13:32 Page:125
        46 002464   000024 631400 47                 EPPR1   20
        46 002465   000000 701000 xent               TSX1    X8CO$CONV_TO_OCTAL
        46 002466   000000 011000                    NOP     0

      708    12049    2          CALL X8CO$CONV_TO_OCTAL (CURRENT_LINE, CLINE.W.WORD@(2)) ;

  12049 46 002467   000052 236000 47                 LDQ     42
        46 002470   200021 756100                    STQ     TEMP7+4,,AUTO
        46 002471   200005 630500                    EPPR0   CURRENT_LINE,,AUTO
        46 002472   200020 450500                    STP0    TEMP7+3,,AUTO
        46 002473   200020 630500                    EPPR0   TEMP7+3,,AUTO
        46 002474   000024 631400 47                 EPPR1   20
        46 002475   000000 701000 xent               TSX1    X8CO$CONV_TO_OCTAL
        46 002476   000000 011000                    NOP     0

      709    12050    2          CALL X8CO$CONV_TO_OCTAL (COMCOM.CURRENT.COLUMN, CLINE.W.WORD@(3)) ;

  12050 46 002477   000053 630400 47                 EPPR0   43
        46 002500   000024 631400 47                 EPPR1   20
        46 002501   000000 701000 xent               TSX1    X8CO$CONV_TO_OCTAL
        46 002502   000000 011000                    NOP     0

      710    12051    2          CALL Z9AL$DUMP_LINE ;

  12051 46 002503   000000 631400 47                 EPPR1   0
        46 002504   000000 701000 xent               TSX1    Z9AL$DUMP_LINE
        46 002505   000000 011000                    NOP     0

      711    12052    2          OBUF = ' ' ;

  12052 46 002506   040000 100400                    MLR     fill='040'O
        46 002507   000001 000001 47                 ADSC9   1                        cn=0,n=1
        46 002510   000000 000170 45                 ADSC9   OBUF                     cn=0,n=120

      712    12053
      713    12054             /*
      714    12055               CLINE.NAME = 'SYMREFC & SYMREF$' ;
PL6.E3A0      #001=Z8JT$TABLE_DUMP File=Z8JT.:Z8A6TSI                            SAT 08/09/97 13:32 Page:126
      715    12056               CALL X8CO$CONV_TO_OCTAL (COMCOM.SYMREFC, CLINE.W.WORD@(0)) ;
      716    12057               CALL X8CO$CONV_TO_OCTAL (COMCOM.SYMREF$, CLINE.W.WORD@(1)) ;
      717    12058               CALL Z9AL$DUMP_LINE ;
      718    12059               OBUF = ' ' ;
      719    12060             */
      720    12061
      721    12062    2          CLINE.NAME = 'COMPILE' ;

  12062 46 002511   040000 100400                    MLR     fill='040'O
        46 002512   004044 000007 1                  ADSC9   NAMES+2084               cn=0,n=7
        46 002513   000000 000017 45                 ADSC9   OBUF                     cn=0,n=15

      722    12063    2          PTR$ = ADDR( COMCOM.COMPILE );

  12063 46 002514   000055 236000 47                 LDQ     45
        46 002515   000001 756000 44                 STQ     PTR$

      723    12064    3          DO I = 0 TO 4 ;

  12064 46 002516   200003 450100                    STZ     I,,AUTO

      724    12065    3            CALL X8CO$CONV_TO_OCTAL (PTR$->WORDS(I), CLINE.W.WORD@(I)) ;

  12065 46 002517   200003 236100                    LDQ     I,,AUTO
        46 002520   000045 402000 47                 MPY     37
        46 002521   000033 036000 47                 ADLQ    27
        46 002522   200021 756100                    STQ     TEMP7+4,,AUTO
        46 002523   200003 236100                    LDQ     I,,AUTO
        46 002524   000022 736000                    QLS     18
        46 002525   000001 036000 44                 ADLQ    PTR$
        46 002526   200020 756100                    STQ     TEMP7+3,,AUTO
        46 002527   200020 630500                    EPPR0   TEMP7+3,,AUTO
        46 002530   000024 631400 47                 EPPR1   20
        46 002531   000000 701000 xent               TSX1    X8CO$CONV_TO_OCTAL
        46 002532   000000 011000                    NOP     0

      725    12066    3          END ;
PL6.E3A0      #001=Z8JT$TABLE_DUMP File=Z8JT.:Z8A6TSI                            SAT 08/09/97 13:32 Page:127

  12066 46 002533   200003 054100                    AOS     I,,AUTO
        46 002534   200003 235100                    LDA     I,,AUTO
        46 002535   000004 115007                    CMPA    4,DL
        46 002536   002517 604400 46                 TMOZ    s:12065

      726    12067    2          CALL Z9AL$DUMP_LINE ;

  12067 46 002537   000000 631400 47                 EPPR1   0
        46 002540   000000 701000 xent               TSX1    Z9AL$DUMP_LINE
        46 002541   000000 011000                    NOP     0

      727    12068    2          OBUF = ' ' ;

  12068 46 002542   040000 100400                    MLR     fill='040'O
        46 002543   000001 000001 47                 ADSC9   1                        cn=0,n=1
        46 002544   000000 000170 45                 ADSC9   OBUF                     cn=0,n=120

      728    12069
      729    12070    2          CLINE.NAME = 'BLOCKC, BLOCK$' ;

  12070 46 002545   040000 100400                    MLR     fill='040'O
        46 002546   004046 000016 1                  ADSC9   NAMES+2086               cn=0,n=14
        46 002547   000000 000017 45                 ADSC9   OBUF                     cn=0,n=15

      730    12071    2          CALL X8CO$CONV_TO_OCTAL (COMCOM.BLOCKC, CLINE.W.WORD@(0)) ;

  12071 46 002550   000056 630400 47                 EPPR0   46
        46 002551   000024 631400 47                 EPPR1   20
        46 002552   000000 701000 xent               TSX1    X8CO$CONV_TO_OCTAL
        46 002553   000000 011000                    NOP     0

      731    12072    2          CALL X8CO$CONV_TO_OCTAL (COMCOM.BLOCK$, CLINE.W.WORD@(1)) ;

  12072 46 002554   000060 630400 47                 EPPR0   48
        46 002555   000024 631400 47                 EPPR1   20
        46 002556   000000 701000 xent               TSX1    X8CO$CONV_TO_OCTAL
PL6.E3A0      #001=Z8JT$TABLE_DUMP File=Z8JT.:Z8A6TSI                            SAT 08/09/97 13:32 Page:128
        46 002557   000000 011000                    NOP     0

      732    12073    2          CALL Z9AL$DUMP_LINE ;

  12073 46 002560   000000 631400 47                 EPPR1   0
        46 002561   000000 701000 xent               TSX1    Z9AL$DUMP_LINE
        46 002562   000000 011000                    NOP     0

      733    12074    2          OBUF = ' ' ;

  12074 46 002563   040000 100400                    MLR     fill='040'O
        46 002564   000001 000001 47                 ADSC9   1                        cn=0,n=1
        46 002565   000000 000170 45                 ADSC9   OBUF                     cn=0,n=120

      734    12075
      735    12076    2          CLINE.NAME = 'PROC$,PROC_END ' ;

  12076 46 002566   040000 100400                    MLR     fill='040'O
        46 002567   004052 000017 1                  ADSC9   NAMES+2090               cn=0,n=15
        46 002570   000000 000017 45                 ADSC9   OBUF                     cn=0,n=15

      736    12077    2          CALL X8CO$CONV_TO_OCTAL (COMCOM.OU_EXTERNAL_NAME$, CLINE.W.WORD@(0)) ;

  12077 46 002571   000062 630400 47                 EPPR0   50
        46 002572   000024 631400 47                 EPPR1   20
        46 002573   000000 701000 xent               TSX1    X8CO$CONV_TO_OCTAL
        46 002574   000000 011000                    NOP     0

      737    12078    2          CALL X8CO$CONV_TO_OCTAL (COMCOM.PROC_END, CLINE.W.WORD@(1)) ;

  12078 46 002575   000064 630400 47                 EPPR0   52
        46 002576   000024 631400 47                 EPPR1   20
        46 002577   000000 701000 xent               TSX1    X8CO$CONV_TO_OCTAL
        46 002600   000000 011000                    NOP     0

      738    12079    2          CALL Z9AL$DUMP_LINE ;

PL6.E3A0      #001=Z8JT$TABLE_DUMP File=Z8JT.:Z8A6TSI                            SAT 08/09/97 13:32 Page:129
  12079 46 002601   000000 631400 47                 EPPR1   0
        46 002602   000000 701000 xent               TSX1    Z9AL$DUMP_LINE
        46 002603   000000 011000                    NOP     0

      739    12080    2          OBUF = ' ' ;

  12080 46 002604   040000 100400                    MLR     fill='040'O
        46 002605   000001 000001 47                 ADSC9   1                        cn=0,n=1
        46 002606   000000 000170 45                 ADSC9   OBUF                     cn=0,n=120

      740    12081
      741    12082    2          CLINE.NAME = 'SEGMENT$' ;

  12082 46 002607   040000 100400                    MLR     fill='040'O
        46 002610   004056 000010 1                  ADSC9   NAMES+2094               cn=0,n=8
        46 002611   000000 000017 45                 ADSC9   OBUF                     cn=0,n=15

      742    12083    3          DO I = 0 TO 6 ;

  12083 46 002612   200003 450100                    STZ     I,,AUTO

      743    12084    3            CALL X8CO$CONV_TO_OCTAL (COMCOM.SEGMENT$(I), CLINE.W.WORD@(I)) ;

  12084 46 002613   200003 236100                    LDQ     I,,AUTO
        46 002614   000045 402000 47                 MPY     37
        46 002615   000033 036000 47                 ADLQ    27
        46 002616   200021 756100                    STQ     TEMP7+4,,AUTO
        46 002617   200003 720100                    LXL0    I,,AUTO
        46 002620   000150 630410 xsym               EPPR0   COMCOM+104,X0
        46 002621   200020 450500                    STP0    TEMP7+3,,AUTO
        46 002622   200020 630500                    EPPR0   TEMP7+3,,AUTO
        46 002623   000024 631400 47                 EPPR1   20
        46 002624   000000 701000 xent               TSX1    X8CO$CONV_TO_OCTAL
        46 002625   000000 011000                    NOP     0

      744    12085    3          END ;

PL6.E3A0      #001=Z8JT$TABLE_DUMP File=Z8JT.:Z8A6TSI                            SAT 08/09/97 13:32 Page:130
  12085 46 002626   200003 054100                    AOS     I,,AUTO
        46 002627   200003 235100                    LDA     I,,AUTO
        46 002630   000006 115007                    CMPA    6,DL
        46 002631   002613 604400 46                 TMOZ    s:12084

      745    12086    2          CALL Z9AL$DUMP_LINE ;

  12086 46 002632   000000 631400 47                 EPPR1   0
        46 002633   000000 701000 xent               TSX1    Z9AL$DUMP_LINE
        46 002634   000000 011000                    NOP     0

      746    12087    2          OBUF = ' ' ;

  12087 46 002635   040000 100400                    MLR     fill='040'O
        46 002636   000001 000001 47                 ADSC9   1                        cn=0,n=1
        46 002637   000000 000170 45                 ADSC9   OBUF                     cn=0,n=120

      747    12088
      748    12089    2          CLINE.NAME = 'SGMC,SDFC,SDF$' ;

  12089 46 002640   040000 100400                    MLR     fill='040'O
        46 002641   004060 000016 1                  ADSC9   NAMES+2096               cn=0,n=14
        46 002642   000000 000017 45                 ADSC9   OBUF                     cn=0,n=15

      749    12090    2          CALL X8CO$CONV_TO_OCTAL (COMCOM.SEGMENTC, CLINE.W.WORD@(0)) ;

  12090 46 002643   000066 630400 47                 EPPR0   54
        46 002644   000024 631400 47                 EPPR1   20
        46 002645   000000 701000 xent               TSX1    X8CO$CONV_TO_OCTAL
        46 002646   000000 011000                    NOP     0

      750    12091    2          CALL X8CO$CONV_TO_OCTAL (COMCOM.SYMDEFC, CLINE.W.WORD@(1)) ;

  12091 46 002647   000070 630400 47                 EPPR0   56
        46 002650   000024 631400 47                 EPPR1   20
        46 002651   000000 701000 xent               TSX1    X8CO$CONV_TO_OCTAL
        46 002652   000000 011000                    NOP     0
PL6.E3A0      #001=Z8JT$TABLE_DUMP File=Z8JT.:Z8A6TSI                            SAT 08/09/97 13:32 Page:131

      751    12092    2          CALL X8CO$CONV_TO_OCTAL (COMCOM.SYMDEF$, CLINE.W.WORD@(2)) ;

  12092 46 002653   000072 630400 47                 EPPR0   58
        46 002654   000024 631400 47                 EPPR1   20
        46 002655   000000 701000 xent               TSX1    X8CO$CONV_TO_OCTAL
        46 002656   000000 011000                    NOP     0

      752    12093    2          CALL Z9AL$DUMP_LINE ;

  12093 46 002657   000000 631400 47                 EPPR1   0
        46 002660   000000 701000 xent               TSX1    Z9AL$DUMP_LINE
        46 002661   000000 011000                    NOP     0

      753    12094    2          OBUF = ' ' ;

  12094 46 002662   040000 100400                    MLR     fill='040'O
        46 002663   000001 000001 47                 ADSC9   1                        cn=0,n=1
        46 002664   000000 000170 45                 ADSC9   OBUF                     cn=0,n=120

      754    12095
      755    12096    2          CLINE.NAME = 'MAX ARGS, PRMS ' ;

  12096 46 002665   040000 100400                    MLR     fill='040'O
        46 002666   004064 000017 1                  ADSC9   NAMES+2100               cn=0,n=15
        46 002667   000000 000017 45                 ADSC9   OBUF                     cn=0,n=15

      756    12097    2          CALL X8CO$CONV_TO_OCTAL (COMCOM.MAX_ARGS, CLINE.W.WORD@(0)) ;

  12097 46 002670   000074 630400 47                 EPPR0   60
        46 002671   000024 631400 47                 EPPR1   20
        46 002672   000000 701000 xent               TSX1    X8CO$CONV_TO_OCTAL
        46 002673   000000 011000                    NOP     0

      757    12098    2          CALL X8CO$CONV_TO_OCTAL (COMCOM.MAX_PARAMS, CLINE.W.WORD@(1)) ;

  12098 46 002674   000076 630400 47                 EPPR0   62
PL6.E3A0      #001=Z8JT$TABLE_DUMP File=Z8JT.:Z8A6TSI                            SAT 08/09/97 13:32 Page:132
        46 002675   000024 631400 47                 EPPR1   20
        46 002676   000000 701000 xent               TSX1    X8CO$CONV_TO_OCTAL
        46 002677   000000 011000                    NOP     0

      758    12099    2          CALL Z9AL$DUMP_LINE ;

  12099 46 002700   000000 631400 47                 EPPR1   0
        46 002701   000000 701000 xent               TSX1    Z9AL$DUMP_LINE
        46 002702   000000 011000                    NOP     0

      759    12100    2          OBUF = ' ' ;

  12100 46 002703   040000 100400                    MLR     fill='040'O
        46 002704   000001 000001 47                 ADSC9   1                        cn=0,n=1
        46 002705   000000 000170 45                 ADSC9   OBUF                     cn=0,n=120

      760    12101
      761    12102    2          CLINE.NAME = 'H_LBL & PLUGS. ' ;

  12102 46 002706   040000 100400                    MLR     fill='040'O
        46 002707   004070 000017 1                  ADSC9   NAMES+2104               cn=0,n=15
        46 002710   000000 000017 45                 ADSC9   OBUF                     cn=0,n=15

      762    12103    2          CALL X8CO$CONV_TO_OCTAL (COMCOM.H_LBL, CLINE.W.WORD@(0)) ;

  12103 46 002711   000100 630400 47                 EPPR0   64
        46 002712   000024 631400 47                 EPPR1   20
        46 002713   000000 701000 xent               TSX1    X8CO$CONV_TO_OCTAL
        46 002714   000000 011000                    NOP     0

      763    12104    2          CALL X8CO$CONV_TO_OCTAL (COMCOM.PLUGS_USED, CLINE.W.WORD@(1)) ;

  12104 46 002715   000102 630400 47                 EPPR0   66
        46 002716   000024 631400 47                 EPPR1   20
        46 002717   000000 701000 xent               TSX1    X8CO$CONV_TO_OCTAL
        46 002720   000000 011000                    NOP     0

PL6.E3A0      #001=Z8JT$TABLE_DUMP File=Z8JT.:Z8A6TSI                            SAT 08/09/97 13:32 Page:133
      764    12105    2          CALL Z9AL$DUMP_LINE ;

  12105 46 002721   000000 631400 47                 EPPR1   0
        46 002722   000000 701000 xent               TSX1    Z9AL$DUMP_LINE
        46 002723   000000 011000                    NOP     0

      765    12106    2          OBUF = ' ' ;

  12106 46 002724   040000 100400                    MLR     fill='040'O
        46 002725   000001 000001 47                 ADSC9   1                        cn=0,n=1
        46 002726   000000 000170 45                 ADSC9   OBUF                     cn=0,n=120

      766    12107
      767    12108    2          CLINE.NAME = 'H_BASE' ;

  12108 46 002727   040000 100400                    MLR     fill='040'O
        46 002730   004074 000006 1                  ADSC9   NAMES+2108               cn=0,n=6
        46 002731   000000 000017 45                 ADSC9   OBUF                     cn=0,n=15

      768    12109    2          CALL X8CO$CONV_TO_OCTAL (COMCOM.H_BASE, CLINE.W.WORD@(0)) ;

  12109 46 002732   000104 630400 47                 EPPR0   68
        46 002733   000024 631400 47                 EPPR1   20
        46 002734   000000 701000 xent               TSX1    X8CO$CONV_TO_OCTAL
        46 002735   000000 011000                    NOP     0

      769    12110    2          CALL Z9AL$DUMP_LINE ;

  12110 46 002736   000000 631400 47                 EPPR1   0
        46 002737   000000 701000 xent               TSX1    Z9AL$DUMP_LINE
        46 002740   000000 011000                    NOP     0

      770    12111    2          OBUF = ' ' ;

  12111 46 002741   040000 100400                    MLR     fill='040'O
        46 002742   000001 000001 47                 ADSC9   1                        cn=0,n=1
        46 002743   000000 000170 45                 ADSC9   OBUF                     cn=0,n=120
PL6.E3A0      #001=Z8JT$TABLE_DUMP File=Z8JT.:Z8A6TSI                            SAT 08/09/97 13:32 Page:134

      771    12112
      772    12113    2          CLINE.NAME = 'IL_SPACE' ;

  12113 46 002744   040000 100400                    MLR     fill='040'O
        46 002745   004076 000010 1                  ADSC9   NAMES+2110               cn=0,n=8
        46 002746   000000 000017 45                 ADSC9   OBUF                     cn=0,n=15

      773    12114    3          DO I = 0 TO 5 ;

  12114 46 002747   200003 450100                    STZ     I,,AUTO

      774    12115    3            CALL X8CO$CONV_TO_OCTAL (COMCOM.IL_SPACE(I), CLINE.W.WORD@(I)) ;

  12115 46 002750   200003 236100                    LDQ     I,,AUTO
        46 002751   000045 402000 47                 MPY     37
        46 002752   000033 036000 47                 ADLQ    27
        46 002753   200021 756100                    STQ     TEMP7+4,,AUTO
        46 002754   200003 720100                    LXL0    I,,AUTO
        46 002755   000324 630410 xsym               EPPR0   COMCOM+212,X0
        46 002756   200020 450500                    STP0    TEMP7+3,,AUTO
        46 002757   200020 630500                    EPPR0   TEMP7+3,,AUTO
        46 002760   000024 631400 47                 EPPR1   20
        46 002761   000000 701000 xent               TSX1    X8CO$CONV_TO_OCTAL
        46 002762   000000 011000                    NOP     0

      775    12116    3          END ;

  12116 46 002763   200003 054100                    AOS     I,,AUTO
        46 002764   200003 235100                    LDA     I,,AUTO
        46 002765   000005 115007                    CMPA    5,DL
        46 002766   002750 604400 46                 TMOZ    s:12115

      776    12117    2          CALL Z9AL$DUMP_LINE ;

  12117 46 002767   000000 631400 47                 EPPR1   0
        46 002770   000000 701000 xent               TSX1    Z9AL$DUMP_LINE
PL6.E3A0      #001=Z8JT$TABLE_DUMP File=Z8JT.:Z8A6TSI                            SAT 08/09/97 13:32 Page:135
        46 002771   000000 011000                    NOP     0

      777    12118    2          OBUF = ' ' ;

  12118 46 002772   040000 100400                    MLR     fill='040'O
        46 002773   000001 000001 47                 ADSC9   1                        cn=0,n=1
        46 002774   000000 000170 45                 ADSC9   OBUF                     cn=0,n=120

      778    12119
      779    12120    2          CLINE.NAME = 'H_DO & H_BRNCH' ;

  12120 46 002775   040000 100400                    MLR     fill='040'O
        46 002776   004100 000016 1                  ADSC9   NAMES+2112               cn=0,n=14
        46 002777   000000 000017 45                 ADSC9   OBUF                     cn=0,n=15

      780    12121    2          CALL X8CO$CONV_TO_OCTAL (COMCOM.H_DO, CLINE.W.WORD@(0)) ;

  12121 46 003000   000106 630400 47                 EPPR0   70
        46 003001   000024 631400 47                 EPPR1   20
        46 003002   000000 701000 xent               TSX1    X8CO$CONV_TO_OCTAL
        46 003003   000000 011000                    NOP     0

      781    12122    2          CALL X8CO$CONV_TO_OCTAL (COMCOM.H_BRANCH, CLINE.W.WORD@(1)) ;

  12122 46 003004   000110 630400 47                 EPPR0   72
        46 003005   000024 631400 47                 EPPR1   20
        46 003006   000000 701000 xent               TSX1    X8CO$CONV_TO_OCTAL
        46 003007   000000 011000                    NOP     0

      782    12123    2          CALL Z9AL$DUMP_LINE ;

  12123 46 003010   000000 631400 47                 EPPR1   0
        46 003011   000000 701000 xent               TSX1    Z9AL$DUMP_LINE
        46 003012   000000 011000                    NOP     0

      783    12124    2          OBUF = ' ' ;

PL6.E3A0      #001=Z8JT$TABLE_DUMP File=Z8JT.:Z8A6TSI                            SAT 08/09/97 13:32 Page:136
  12124 46 003013   040000 100400                    MLR     fill='040'O
        46 003014   000001 000001 47                 ADSC9   1                        cn=0,n=1
        46 003015   000000 000170 45                 ADSC9   OBUF                     cn=0,n=120

      784    12125
      785    12126    2          CLINE.NAME = 'LINE1' ;

  12126 46 003016   040000 100400                    MLR     fill='040'O
        46 003017   004104 000005 1                  ADSC9   NAMES+2116               cn=0,n=5
        46 003020   000000 000017 45                 ADSC9   OBUF                     cn=0,n=15

      786    12127    2          SUBSTR (OBUF, 15, 105) = COMCOM.LINE1 ;

  12127 46 003021   040000 100400                    MLR     fill='040'O
        46 003022   000334 000120 xsym               ADSC9   COMCOM+220               cn=0,n=80
        46 003023   000003 600151 45                 ADSC9   OBUF+3                   cn=3,n=105

      787    12128    2          CALL Z9AL$DUMP_LINE ;

  12128 46 003024   000000 631400 47                 EPPR1   0
        46 003025   000000 701000 xent               TSX1    Z9AL$DUMP_LINE
        46 003026   000000 011000                    NOP     0

      788    12129    2          OBUF = ' ' ;

  12129 46 003027   040000 100400                    MLR     fill='040'O
        46 003030   000001 000001 47                 ADSC9   1                        cn=0,n=1
        46 003031   000000 000170 45                 ADSC9   OBUF                     cn=0,n=120

      789    12130
      790    12131    2          CLINE.NAME = 'ESC_LIST' ;

  12131 46 003032   040000 100400                    MLR     fill='040'O
        46 003033   004106 000010 1                  ADSC9   NAMES+2118               cn=0,n=8
        46 003034   000000 000017 45                 ADSC9   OBUF                     cn=0,n=15

      791    12132    3          DO I = 0 TO 4 ;
PL6.E3A0      #001=Z8JT$TABLE_DUMP File=Z8JT.:Z8A6TSI                            SAT 08/09/97 13:32 Page:137

  12132 46 003035   200003 450100                    STZ     I,,AUTO

      792    12133    3            CALL X8CO$CONV_TO_OCTAL (COMCOM.ESC_LIST(I), CLINE.W.WORD@(I)) ;

  12133 46 003036   200003 236100                    LDQ     I,,AUTO
        46 003037   000045 402000 47                 MPY     37
        46 003040   000033 036000 47                 ADLQ    27
        46 003041   200021 756100                    STQ     TEMP7+4,,AUTO
        46 003042   200003 236100                    LDQ     I,,AUTO
        46 003043   000023 736000                    QLS     19
        46 003044   000112 036000 47                 ADLQ    74
        46 003045   200020 756100                    STQ     TEMP7+3,,AUTO
        46 003046   200020 630500                    EPPR0   TEMP7+3,,AUTO
        46 003047   000024 631400 47                 EPPR1   20
        46 003050   000000 701000 xent               TSX1    X8CO$CONV_TO_OCTAL
        46 003051   000000 011000                    NOP     0

      793    12134    3          END ;

  12134 46 003052   200003 054100                    AOS     I,,AUTO
        46 003053   200003 235100                    LDA     I,,AUTO
        46 003054   000004 115007                    CMPA    4,DL
        46 003055   003036 604400 46                 TMOZ    s:12133

      794    12135    2          CALL Z9AL$DUMP_LINE ;

  12135 46 003056   000000 631400 47                 EPPR1   0
        46 003057   000000 701000 xent               TSX1    Z9AL$DUMP_LINE
        46 003060   000000 011000                    NOP     0

      795    12136    2          OBUF = ' ' ;

  12136 46 003061   040000 100400                    MLR     fill='040'O
        46 003062   000001 000001 47                 ADSC9   1                        cn=0,n=1
        46 003063   000000 000170 45                 ADSC9   OBUF                     cn=0,n=120

PL6.E3A0      #001=Z8JT$TABLE_DUMP File=Z8JT.:Z8A6TSI                            SAT 08/09/97 13:32 Page:138
      796    12137
      797    12138    2          CLINE.NAME = 'REDEF&SEVERITY' ;

  12138 46 003064   040000 100400                    MLR     fill='040'O
        46 003065   004110 000016 1                  ADSC9   NAMES+2120               cn=0,n=14
        46 003066   000000 000017 45                 ADSC9   OBUF                     cn=0,n=15

      798    12139    2          CALL X8CO$CONV_TO_OCTAL (COMCOM.COMMON_REDEF, CLINE.W.WORD@(0));

  12139 46 003067   000113 630400 47                 EPPR0   75
        46 003070   000024 631400 47                 EPPR1   20
        46 003071   000000 701000 xent               TSX1    X8CO$CONV_TO_OCTAL
        46 003072   000000 011000                    NOP     0

      799    12140    2          CALL X8CO$CONV_TO_OCTAL (COMCOM.SEVERITY, CLINE.W.WORD@(1)) ;

  12140 46 003073   000115 630400 47                 EPPR0   77
        46 003074   000024 631400 47                 EPPR1   20
        46 003075   000000 701000 xent               TSX1    X8CO$CONV_TO_OCTAL
        46 003076   000000 011000                    NOP     0

      800    12141    2          CALL Z9AL$DUMP_LINE ;

  12141 46 003077   000000 631400 47                 EPPR1   0
        46 003100   000000 701000 xent               TSX1    Z9AL$DUMP_LINE
        46 003101   000000 011000                    NOP     0

      801    12142    2          OBUF = ' ' ;

  12142 46 003102   040000 100400                    MLR     fill='040'O
        46 003103   000001 000001 47                 ADSC9   1                        cn=0,n=1
        46 003104   000000 000170 45                 ADSC9   OBUF                     cn=0,n=120

      802    12143
      803    12144    2   END DUMP_COMCOM ;

  12144 46 003105   200012 221300                    LDX1  ! CHAR10+3,,AUTO
PL6.E3A0      #001=Z8JT$TABLE_DUMP File=Z8JT.:Z8A6TSI                            SAT 08/09/97 13:32 Page:139
        46 003106   000001 702211                    TSX2  ! 1,X1
      804    12145    1   END Z8JT$TABLE_DUMP;
      805    12146        %EOD;

PL6.E3A0      #001=Z8JT$TABLE_DUMP File=Z8JT.:Z8A6TSI                            SAT 08/09/97 13:32 Page:140
--  Include file information  --

   Z8A_COMCOM.:Z8A6TOU  cannot be made into a system file and is referenced.
   Z8A_XREF.:Z8A6TOU  cannot be made into a system file and is referenced.
   Z8A_GST.:Z8A6TOU  cannot be made into a system file and is referenced.
   Z8A_QLT.:Z8A6TOU  cannot be made into a system file and is referenced.
   Z8A_DNT.:Z8A6TOU  cannot be made into a system file and is referenced.
   Z8A_LTS.:Z8A6TOU  cannot be made into a system file and is referenced.
   Z8A_ST.:Z8A6TOU  cannot be made into a system file and is referenced.
   Z8E_HEAPINFO.:Z8A6TOU  cannot be made into a system file and is referenced.
   Z8A_ETT.:Z8A6TOU  cannot be made into a system file and is referenced.
   Z8A_OBJ.:Z8A6TOU  cannot be made into a system file and is referenced.
   Z8A_ILS.:Z8A6TOU  cannot be made into a system file and is referenced.
   Z8A_ILL.:Z8A6TOU  cannot be made into a system file and is referenced.
   Z8A_ERR.:Z8A6TOU  cannot be made into a system file and is referenced.
   Z8A_DPI.:Z8A6TOU  cannot be made into a system file and is referenced.
   X8A_COM_MACS.:X8A6TOU  is referenced.
   Z8A_NAMES.:Z8A6TOU  cannot be made into a system file and is referenced.
   Z8A_SUPP_MAC.:Z8A6TOU  is referenced.
   Z8A_DEFC.:Z8A6TOU  cannot be made into a system file and is referenced.
      No diagnostics issued in procedure Z8JT$TABLE_DUMP.
PL6.E3A0      #001=Z8JT$TABLE_DUMP File=Z8JT.:Z8A6TSI                            SAT 08/09/97 13:32 Page:141

 **** Variables and constants ****

  ****  Section 000 LblCom ITERATION

  ****  Scalars and arrays  ****
OctLoc.c.b A Datatyp(siz) R M Lvl/name                 OctLoc.c.b A Datatyp(siz) R M Lvl/name

     0-0-0/w SBIN        r     1 ITERATION

  ****  Section 001 RoData Z8JT$TABLE_DUMP

  ****  Scalars and arrays  ****
OctLoc.c.b A Datatyp(siz) R M Lvl/name                 OctLoc.c.b A Datatyp(siz) R M Lvl/name

     0-0-0/c CHAR(12)          1 NAMES(0:599)

  ****  Section 002 LblCom DPI$

  ****  Scalars and arrays  ****
OctLoc.c.b A Datatyp(siz) R M Lvl/name                 OctLoc.c.b A Datatyp(siz) R M Lvl/name

     0-0-0/w PTR         r     1 DPI$

  ****  Section 003 LblCom DPI_

  ****  Scalars and arrays  ****
OctLoc.c.b A Datatyp(siz) R M Lvl/name                 OctLoc.c.b A Datatyp(siz) R M Lvl/name

     0-0-0/w STRC(180)   r     1 DPI_

  ****  Section 004 LblCom ERR$

  ****  Scalars and arrays  ****
OctLoc.c.b A Datatyp(siz) R M Lvl/name                 OctLoc.c.b A Datatyp(siz) R M Lvl/name

     0-0-0/w PTR         r     1 ERR$

PL6.E3A0      #001=Z8JT$TABLE_DUMP File=Z8JT.:Z8A6TSI                            SAT 08/09/97 13:32 Page:142
  ****  Section 005 LblCom ERR_HEAD

  ****  Scalars and arrays  ****
OctLoc.c.b A Datatyp(siz) R M Lvl/name                 OctLoc.c.b A Datatyp(siz) R M Lvl/name

     0-0-0/w PTR               1 ERR_HEAD

  ****  Section 006 LblCom ERR_TAIL

  ****  Scalars and arrays  ****
OctLoc.c.b A Datatyp(siz) R M Lvl/name                 OctLoc.c.b A Datatyp(siz) R M Lvl/name

     0-0-0/w PTR               1 ERR_TAIL

  ****  Section 007 LblCom MAX_ERROR_GENERATED

  ****  Scalars and arrays  ****
OctLoc.c.b A Datatyp(siz) R M Lvl/name                 OctLoc.c.b A Datatyp(siz) R M Lvl/name

     0-0-0/w SBIN              1 MAX_ERROR_GENERATED

  ****  Section 008 LblCom ERR_

  ****  Scalars and arrays  ****
OctLoc.c.b A Datatyp(siz) R M Lvl/name                 OctLoc.c.b A Datatyp(siz) R M Lvl/name

     0-0-0/w STRC(180)   r     1 ERR_

  ****  Section 009 LblCom ILL$

  ****  Scalars and arrays  ****
OctLoc.c.b A Datatyp(siz) R M Lvl/name                 OctLoc.c.b A Datatyp(siz) R M Lvl/name

     0-0-0/w PTR         r     1 ILL$

  ****  Section 010 LblCom ILL_

PL6.E3A0      #001=Z8JT$TABLE_DUMP File=Z8JT.:Z8A6TSI                            SAT 08/09/97 13:32 Page:143
  ****  Scalars and arrays  ****
OctLoc.c.b A Datatyp(siz) R M Lvl/name                 OctLoc.c.b A Datatyp(siz) R M Lvl/name

     0-0-0/w STRC(180)   r     1 ILL_

  ****  Section 011 LblCom ILS$

  ****  Scalars and arrays  ****
OctLoc.c.b A Datatyp(siz) R M Lvl/name                 OctLoc.c.b A Datatyp(siz) R M Lvl/name

     0-0-0/w PTR         r     1 ILS$

  ****  Section 012 LblCom ILS_

  ****  Scalars and arrays  ****
OctLoc.c.b A Datatyp(siz) R M Lvl/name                 OctLoc.c.b A Datatyp(siz) R M Lvl/name

     0-0-0/w STRC(180)   r     1 ILS_

  ****  Section 013 LblCom OBJ$

  ****  Scalars and arrays  ****
OctLoc.c.b A Datatyp(siz) R M Lvl/name                 OctLoc.c.b A Datatyp(siz) R M Lvl/name

     0-0-0/w PTR         r     1 OBJ$

  ****  Section 014 LblCom PAGING_OBJ

  ****  Scalars and arrays  ****
OctLoc.c.b A Datatyp(siz) R M Lvl/name                 OctLoc.c.b A Datatyp(siz) R M Lvl/name

     0-0-0/w BIT         r     1 PAGING_OBJ

  ****  Section 015 LblCom OBJ_PAGE_COUNT

  ****  Scalars and arrays  ****
OctLoc.c.b A Datatyp(siz) R M Lvl/name                 OctLoc.c.b A Datatyp(siz) R M Lvl/name
PL6.E3A0      #001=Z8JT$TABLE_DUMP File=Z8JT.:Z8A6TSI                            SAT 08/09/97 13:32 Page:144

     0-0-0/w SBIN              1 OBJ_PAGE_COUNT

  ****  Section 016 LblCom OBJ_FINISHED

  ****  Scalars and arrays  ****
OctLoc.c.b A Datatyp(siz) R M Lvl/name                 OctLoc.c.b A Datatyp(siz) R M Lvl/name

     0-0-0/w BIT         r     1 OBJ_FINISHED

  ****  Section 017 LblCom OBJ_SEG_SIZE

  ****  Scalars and arrays  ****
OctLoc.c.b A Datatyp(siz) R M Lvl/name                 OctLoc.c.b A Datatyp(siz) R M Lvl/name

     0-0-0/w SBIN              1 OBJ_SEG_SIZE

  ****  Section 018 LblCom OBJ_TOP_NEW_SEG

  ****  Scalars and arrays  ****
OctLoc.c.b A Datatyp(siz) R M Lvl/name                 OctLoc.c.b A Datatyp(siz) R M Lvl/name

     0-0-0/w PTR               1 OBJ_TOP_NEW_SEG

  ****  Section 019 LblCom OBJ_LAST_REGULAR_PAGE

  ****  Scalars and arrays  ****
OctLoc.c.b A Datatyp(siz) R M Lvl/name                 OctLoc.c.b A Datatyp(siz) R M Lvl/name

     0-0-0/w PTR               1 OBJ_LAST_REGULAR_PAGE

  ****  Section 020 LblCom OBJ_

  ****  Scalars and arrays  ****
OctLoc.c.b A Datatyp(siz) R M Lvl/name                 OctLoc.c.b A Datatyp(siz) R M Lvl/name

     0-0-0/w STRC(180)   r     1 OBJ_
PL6.E3A0      #001=Z8JT$TABLE_DUMP File=Z8JT.:Z8A6TSI                            SAT 08/09/97 13:32 Page:145

  ****  Section 021 LblCom ETT$

  ****  Scalars and arrays  ****
OctLoc.c.b A Datatyp(siz) R M Lvl/name                 OctLoc.c.b A Datatyp(siz) R M Lvl/name

     0-0-0/w PTR         r     1 ETT$

  ****  Section 022 LblCom HEAD_ETT$

  ****  Scalars and arrays  ****
OctLoc.c.b A Datatyp(siz) R M Lvl/name                 OctLoc.c.b A Datatyp(siz) R M Lvl/name

     0-0-0/w PTR               1 HEAD_ETT$

  ****  Section 023 LblCom ETT_BUCKETS

  ****  Scalars and arrays  ****
OctLoc.c.b A Datatyp(siz) R M Lvl/name                 OctLoc.c.b A Datatyp(siz) R M Lvl/name

     0-0-0/w PTR               1 ETT_BUCKETS(0:511)

  ****  Section 024 LblCom ETT_

  ****  Scalars and arrays  ****
OctLoc.c.b A Datatyp(siz) R M Lvl/name                 OctLoc.c.b A Datatyp(siz) R M Lvl/name

     0-0-0/w STRC(180)   r     1 ETT_

  ****  Section 025 LblCom HEAP_POOL

  ****  Scalars and arrays  ****
OctLoc.c.b A Datatyp(siz) R M Lvl/name                 OctLoc.c.b A Datatyp(siz) R M Lvl/name

     0-0-0/w PTR               1 HEAP_POOL(0:100)

  ****  Section 026 LblCom HEAP_WORDS_ALLOCATED
PL6.E3A0      #001=Z8JT$TABLE_DUMP File=Z8JT.:Z8A6TSI                            SAT 08/09/97 13:32 Page:146

  ****  Scalars and arrays  ****
OctLoc.c.b A Datatyp(siz) R M Lvl/name                 OctLoc.c.b A Datatyp(siz) R M Lvl/name

     0-0-0/w SBIN              1 HEAP_WORDS_ALLOCATED

  ****  Section 027 LblCom HEAP_

  ****  Scalars and arrays  ****
OctLoc.c.b A Datatyp(siz) R M Lvl/name                 OctLoc.c.b A Datatyp(siz) R M Lvl/name

     0-0-0/w STRC(180)   r     1 HEAP_

  ****  Section 028 LblCom HEAP$

  ****  Scalars and arrays  ****
OctLoc.c.b A Datatyp(siz) R M Lvl/name                 OctLoc.c.b A Datatyp(siz) R M Lvl/name

     0-0-0/w PTR               1 HEAP$

  ****  Section 029 LblCom ST$

  ****  Scalars and arrays  ****
OctLoc.c.b A Datatyp(siz) R M Lvl/name                 OctLoc.c.b A Datatyp(siz) R M Lvl/name

     0-0-0/w PTR         r     1 ST$

  ****  Section 030 LblCom ST_

  ****  Scalars and arrays  ****
OctLoc.c.b A Datatyp(siz) R M Lvl/name                 OctLoc.c.b A Datatyp(siz) R M Lvl/name

     0-0-0/w STRC(180)   r     1 ST_

  ****  Section 031 LblCom LTS$

  ****  Scalars and arrays  ****
PL6.E3A0      #001=Z8JT$TABLE_DUMP File=Z8JT.:Z8A6TSI                            SAT 08/09/97 13:32 Page:147
OctLoc.c.b A Datatyp(siz) R M Lvl/name                 OctLoc.c.b A Datatyp(siz) R M Lvl/name

     0-0-0/w PTR               1 LONG_ITEM$                 0-0-0/w PTR         r     1 LTS$

  ****  Section 032 LblCom LTS_

  ****  Scalars and arrays  ****
OctLoc.c.b A Datatyp(siz) R M Lvl/name                 OctLoc.c.b A Datatyp(siz) R M Lvl/name

     0-0-0/w STRC(180)   r     1 LTS_

  ****  Section 033 LblCom DNT$

  ****  Scalars and arrays  ****
OctLoc.c.b A Datatyp(siz) R M Lvl/name                 OctLoc.c.b A Datatyp(siz) R M Lvl/name

     0-0-0/w PTR         r     1 DNT$

  ****  Section 034 LblCom DNT_

  ****  Scalars and arrays  ****
OctLoc.c.b A Datatyp(siz) R M Lvl/name                 OctLoc.c.b A Datatyp(siz) R M Lvl/name

     0-0-0/w STRC(180)   r     1 DNT_

  ****  Section 035 LblCom DNT_BUCKET_NUMBER

  ****  Scalars and arrays  ****
OctLoc.c.b A Datatyp(siz) R M Lvl/name                 OctLoc.c.b A Datatyp(siz) R M Lvl/name

     0-0-0/w UBIN              1 DNT_BUCKET_NUMBER

  ****  Section 036 LblCom DNT_OF_1$

  ****  Scalars and arrays  ****
OctLoc.c.b A Datatyp(siz) R M Lvl/name                 OctLoc.c.b A Datatyp(siz) R M Lvl/name

PL6.E3A0      #001=Z8JT$TABLE_DUMP File=Z8JT.:Z8A6TSI                            SAT 08/09/97 13:32 Page:148
     0-0-0/w PTR               1 DNT_OF_1$

  ****  Section 037 LblCom QLT$

  ****  Scalars and arrays  ****
OctLoc.c.b A Datatyp(siz) R M Lvl/name                 OctLoc.c.b A Datatyp(siz) R M Lvl/name

     0-0-0/w PTR         r     1 QLT$

  ****  Section 038 LblCom PREV_01_QLT$

  ****  Scalars and arrays  ****
OctLoc.c.b A Datatyp(siz) R M Lvl/name                 OctLoc.c.b A Datatyp(siz) R M Lvl/name

     0-0-0/w PTR               1 PREV_01_QLT$

  ****  Section 039 LblCom QLT_

  ****  Scalars and arrays  ****
OctLoc.c.b A Datatyp(siz) R M Lvl/name                 OctLoc.c.b A Datatyp(siz) R M Lvl/name

     0-0-0/w STRC(180)   r     1 QLT_

  ****  Section 040 LblCom GST$

  ****  Scalars and arrays  ****
OctLoc.c.b A Datatyp(siz) R M Lvl/name                 OctLoc.c.b A Datatyp(siz) R M Lvl/name

     0-0-0/w PTR         r     1 GST$

  ****  Section 041 LblCom GST_

  ****  Scalars and arrays  ****
OctLoc.c.b A Datatyp(siz) R M Lvl/name                 OctLoc.c.b A Datatyp(siz) R M Lvl/name

     0-0-0/w STRC(180)   r     1 GST_

PL6.E3A0      #001=Z8JT$TABLE_DUMP File=Z8JT.:Z8A6TSI                            SAT 08/09/97 13:32 Page:149
  ****  Section 042 LblCom XREF$

  ****  Scalars and arrays  ****
OctLoc.c.b A Datatyp(siz) R M Lvl/name                 OctLoc.c.b A Datatyp(siz) R M Lvl/name

     0-0-0/w PTR         r     1 XREF$

  ****  Section 043 LblCom XREF_

  ****  Scalars and arrays  ****
OctLoc.c.b A Datatyp(siz) R M Lvl/name                 OctLoc.c.b A Datatyp(siz) R M Lvl/name

     0-0-0/w STRC(180)   r     1 XREF_

  ****  Section 044  Data  Z8JT$TABLE_DUMP

  ****  Scalars and arrays  ****
OctLoc.c.b A Datatyp(siz) R M Lvl/name                 OctLoc.c.b A Datatyp(siz) R M Lvl/name

     0-0-0/w UBIN        r     1 LENGTH                     1-0-0/w PTR         r     1 PTR$
     1-0-0/w UBIN        r     1 PTR_U

  ****  Section 045 LblCom OBUF

  ****  Scalars and arrays  ****
OctLoc.c.b A Datatyp(siz) R M Lvl/name                 OctLoc.c.b A Datatyp(siz) R M Lvl/name

     0-0-0/c STRC(1080)  r     1 CLINE                      0-0-0/c CHAR(120)   r     1 OBUF
     0-0-0/c STRC(1080)  r     1 TABLE                      0-0-0/c STRC(1080)  r     1 TIME

  ****  Auto variables  ****

  ****  Scalars and arrays  ****
OctLoc.c.b A Datatyp(siz) R M Lvl/name                 OctLoc.c.b A Datatyp(siz) R M Lvl/name

    14-0-0/w PTR         r     1 @AMOUNT                   13-0-0/w PTR         r     1 @TABLE$
    *0-0-0/c CHAR(3)     r     1 AMOUNT                     7-0-0/c CHAR(10)    r     1 CHAR10
PL6.E3A0      #001=Z8JT$TABLE_DUMP File=Z8JT.:Z8A6TSI                            SAT 08/09/97 13:32 Page:150
     5-0-0/w SBIN        r     1 CURRENT_LINE               3-0-0/w SBIN        r     1 I
     4-0-0/w SBIN        r     1 J                         *0-0-0/w PTR         r     1 TABLE$
    15-0-0/c CHAR(7)     r     1 TEMP7                      6-0-0/b BIT         r     1 ZERO

  ****  SYMREF variables  ****

  ****  Scalars and arrays  ****
OctLoc.c.b A Datatyp(siz) R M Lvl/name                 OctLoc.c.b A Datatyp(siz) R M Lvl/name

     0-0-0/d STRC(13248) r     1 COMCOM                     0-0-0/w UBIN        r     1 ILL_STEP(0:144)
     0-0-0/w UBIN        r     1 ILS_STEP_TABLE(0:2)
     0-0-0/w UBIN        r     1 LTS_STEP(0:37)
     0-0-0/w UBIN        r     1 OBJ_STEP(0:4)

  ****  BASED and DCB variables  ****

  ****  Scalars and arrays  ****
OctLoc.c.b A Datatyp(siz) R M Lvl/name                 OctLoc.c.b A Datatyp(siz) R M Lvl/name

     0-0-0/w STRC(108)         1 ACCEPT_DISPLAY             0-0-0/w STRC(396)         1 ALPHABET
     0-0-0/w STRC(144)         1 ALTER_LTS                  0-0-0/w STRC(3672)        1 ALT_KEY
     0-0-0/w STRC(36864)       1 ARGLIST                    0-0-0/w STRC(396)         1 ARRAY
     0-0-0/w STRC(180)         1 ARRAY_PRESET_LTS           0-0-0/w STRC(288)         1 BASE_LTS
     0-0-0/w STRC(108)         1 BINARY_ILL                 0-0-0/w STRC(396)         1 BLOCK
     0-0-0/w STRC(144)         1 BRANCH_ILL                 0-0-0/w STRC(144)         1 BT
     0-0-0/w STRC(216)   r     1 CCOSU                      0-0-0/w STRC(396)         1 CD
     0-0-0/w STRC(288)         1 CD_LTS                     0-0-0/w CHAR(4096)        1 CHARS
     0-0-0/w STRC(396)         1 CLASS                      0-0-0/w STRC(108)         1 CODED_MOVE
     0-0-0/w STRC(396)         1 CONDITION                  0-0-0/w STRC(396)         1 CONST
     0-0-0/w STRC(72)    r     1 CONT                       0-0-0/w STRC(540)         1 CONTROL_NAME_LTS
     0-0-0/w STRC(1872)        1 COPY_FILE                  0-0-0/w STRC(396)         1 DB
     0-0-0/w STRC(396)         1 DCB_                       0-0-0/w STRC(144)         1 DEFLB
     0-0-0/w STRC(108)         1 DEPENDING_SIZE             0-0-0/w STRC(5472)        1 DIMS
     0-0-0/w STRC(396)         1 DML_ITEM                   0-0-0/w STRC(216)         1 DML_REC
     0-0-0/w ASTR(180)   r     1 DNT                        0-0-0/w STRC(144)         1 DOEND
     0-0-0/w STRC(396)         1 DO_N                       0-0-0/w STRC(108)   r     1 DPI
     0-0-0/w STRC(180)         1 DV4I                       0-0-0/w STRC(180)         1 ENTRY_ILL
PL6.E3A0      #001=Z8JT$TABLE_DUMP File=Z8JT.:Z8A6TSI                            SAT 08/09/97 13:32 Page:151
     0-0-0/w STRC(540)   r     1 ERR                        0-0-0/w STRC(180)   r     1 ETT
     0-0-0/w STRC(108)         1 EVALU                      0-0-0/w STRC(73836)       1 EVALUATE
     0-0-0/w STRC(396)         1 FD                         0-0-0/w STRC(1692)        1 FILE_LTS
     0-0-0/w STRC(144)         1 GO                         0-0-0/w STRC(108)   r     1 GST
     0-0-0/w STRC(72)          1 HEAP_CELL                  0-0-0/w STRC(180)   r     1 ILL
     0-0-0/w STRC              1 ILL_NO_OPS                 0-0-0/w STRC(180)   r     1 ILS
     0-0-0/w STRC(108)         1 INDEXES                    0-0-0/w STRC(360)         1 INIT_LTS
     0-0-0/w STRC(396)         1 INTDEF                     0-0-0/w STRC(180)         1 IO_RESTORE_CHAIN
     0-0-0/w STRC(144)         1 KEY                        0-0-0/w STRC(396)         1 LABEL
     0-0-0/w STRC(36864)       1 LCNST                      0-0-0/w STRC(108)   r     1 LINOI
     0-0-0/w STRC(72)          1 LONG                       0-0-0/w STRC        r     1 LTS
     0-0-0/w STRC(360)         1 LTSS                       0-0-0/w STRC(36936)       1 LTS_PTR_ARRAY
     0-0-0/w STRC(72)          1 MFILL                      0-0-0/w STRC(396)         1 MNEMONIC
     0-0-0/w STRC(180)         1 MULTI_GO                   0-0-0/w STRC(180)         1 MVEAL
     0-0-0/w STRC(108)         1 MVFIL                      0-0-0/w STRC(72)          1 MVIIS
     0-0-0/w STRC(144)         1 NEL                        0-0-0/w STRC        r     1 OBJ
     0-0-0/w STRC(72)          1 OBJ_LAB                    0-0-0/w STRC(108)         1 OBJ_LINE
     0-0-0/w STRC(72)          1 OBJ_ORG                    0-0-0/w STRC(72)          1 OBJ_SCOPE
     0-0-0/w STRC(144)         1 OBJ_WORD                   0-0-0/w STRC(216)         1 OPEN_LTS
     0-0-0/w STRC(144)         1 OPN                        0-0-0/w STRC(180)         1 OS_CALL
     0-0-0/w STRC(36864)       1 PAGE                       0-0-0/w STRC(396)         1 PARA
     0-0-0/w STRC(216)         1 PFORM                      0-0-0/w STRC(144)         1 PINC
     0-0-0/w STRC(144)         1 PREOFF                     0-0-0/w STRC(108)         1 PRESET
     0-0-0/w STRC(144)         1 PRIME                      0-0-0/w STRC(396)         1 PROC_
     0-0-0/w STRC(396)         1 PROC_DEF                   0-0-0/w STRC(900)         1 PROC_SUPP
     0-0-0/w STRC(144)         1 P_A_PRESET                 0-0-0/w STRC(144)         1 P_P_PRESET
     0-0-0/w STRC(216)   r     1 QLT                        0-0-0/w STRC(396)         1 RD
     0-0-0/w STRC(216)         1 REF                        0-0-0/w STRC(144)         1 REMEM
     0-0-0/w STRC(108)         1 RENAMES                    0-0-0/w STRC(720)         1 REPORT_01_LTS
     0-0-0/w STRC(432)         1 REPORT_ELEM_LTS            0-0-0/w STRC(252)         1 REPORT_GRP_LTS
     0-0-0/w STRC(1332)        1 REPORT_LTS                 0-0-0/w STRC(144)         1 RVA_LTS
     0-0-0/w STRC(396)         1 SCALAR                     0-0-0/w STRC(144)         1 SCOPE
     0-0-0/w STRC(396)         1 SD                         0-0-0/w STRC(216)         1 SEARCH_
     0-0-0/w STRC(396)         1 SECTION                    0-0-0/w STRC(396)         1 SEGMENT
     0-0-0/w STRC(360)         1 SEGMENT_LTS                0-0-0/w STRC(396)   r     1 ST
     0-0-0/w STRC(72)          1 STP2                       0-0-0/w STRC(252)         1 SUM_LTS
     0-0-0/w STRC(396)         1 SWITCH                     0-0-0/w STRC(396)         1 SYMBOLIC_CHAR
PL6.E3A0      #001=Z8JT$TABLE_DUMP File=Z8JT.:Z8A6TSI                            SAT 08/09/97 13:32 Page:152
     0-0-0/w STRC(396)         1 SYMDEF_                    0-0-0/w STRC(396)         1 SYMREF_
     0-0-0/w STRC(180)   r     1 TABLE                      0-0-0/w STRC(396)         1 TEMP
     0-0-0/w STRC(144)         1 TRINARY_ILL                0-0-0/w STRC(72)          1 UNARY_ILL
     0-0-0/d STRC(612)         1 USE                        0-0-0/w STRC(216)         1 USER_CALL
     0-0-0/w STRC(252)         1 USE_SUPP                   0-0-0/w STRC(108)         1 VAL
     0-0-0/w STRC(108)         1 VAL_END                    0-0-0/w STRC(396)         1 VARIABLE
     0-0-0/w STRC(72)          1 WHEN                       0-0-0/w UBIN        r     1 WORDS(0:999)
     0-0-0/w STRC(72)          1 XREF


   Procedure Z8JT$TABLE_DUMP requires 1607 words for executable code.
   Procedure Z8JT$TABLE_DUMP requires 32 words of local(AUTO) storage.

PL6.E3A0      #002=Z8JT$DUMP_ITEM File=Z8JT.:Z8A6TSI                             SAT 08/09/97 13:35 Page:153
      806        1        /*T***********************************************************/
      807        2        /*T*                                                         */
      808        3        /*T* Copyright (c) Bull HN Information Systems Inc., 1997    */
      809        4        /*T*                                                         */
      810        5        /*T***********************************************************/
      811        6
      812        7        /*--------------*/
      813        8          Z8JT$DUMP_ITEM:      PROC (PTR$, LENGTH);
      814        9        /*--------------*/
      815       10
      816       11        /*F*       NAME:       Z8JT$DUMP_ITEM
      817       12
      818       13            DESCRIPTION: Internal routine to dump a table item.
      819       14
      820       15           INPUTS: PTR$ ---- POINTER TO THE ITEM.
      821       16           ======  LENGTH -- LENGTH OF THE ITEM IN WORDS.
      822       17
      823       18        */
      824       19
      825       20            %EQU PHASE = 6;
      826       21            %INCLUDE Z8A_DEFC;
      827       89            %INCLUDE Z8A_SUPP_MAC;
      828     2489            %INCLUDE Z8A_ETT;
      829     2790            %INCLUDE Z8A_DNT;
      830     3011            %INCLUDE Z8A_QLT;
      831     3117            %INCLUDE Z8A_ST ;
      832     6776
      833     6777        %EJECT;
PL6.E3A0      #002=Z8JT$DUMP_ITEM File=Z8JT.:Z8A6TSI                             SAT 08/09/97 13:35 Page:154
      834     6778    1       DCL I              SBIN WORD;
      835     6779    1       DCL J              SBIN WORD;
      836     6780    1       DCL MAX_WORDS_PER_LINE    UBIN WORD CONSTANT INIT(6);
      837     6781
      838     6782    1   DCL   WORDS(0:999)    UBIN WORD BASED(PTR$);
      839     6783    1   DCL   PTR$      PTR;
      840     6784    1   DCL   LENGTH    SBIN WORD;
      841     6785    1   DCL OBUF     CHAR(120) EXT;
      842     6786    1   DCL 1   LINE   REDEF OBUF,
      843     6787    1        2  LOC    CHAR (6) UNAL,     /* LOCATION OF ITEM (OCTAL) */
      844     6788    1        2  *      CHAR (1) UNAL,
      845     6789    1        2  NAME   CHAR (12) UNAL,     /* NAME OF ITEM (EG, BASE)  */
      846     6790    1        2  W      (0:6),
      847     6791    1         3 WORD@  CHAR (12) UNAL ,   /* ONE WORD IN OCTAL        */
      848     6792    1         3 *      CHAR  (1) UNAL,
      849     6793    1        2  *      CHAR  (10) UNAL ;
      850     6794
      851     6795    1       DCL X8CO$CONV_TO_OCTAL      ENTRY(2);
      852     6796    1       DCL X8CO$CONV_TO_OCTAL_HALF ENTRY(2);
      853     6797    1       DCL Z9AL$DUMP_LINE          ENTRY;
      854     6798        %EJECT;
PL6.E3A0      #002=Z8JT$DUMP_ITEM File=Z8JT.:Z8A6TSI                             SAT 08/09/97 13:35 Page:155
      855     6799    1       OBUF = ' ';
      856     6800    1       CALL X8CO$CONV_TO_OCTAL_HALF( PTR$, LINE.LOC );
      857     6801    1       LINE.NAME = NAMES( PTR$-> CONT.ID );
      858     6802    1       J = 0;
      859     6803
      860     6804    2       DO I = 0 TO LENGTH -1;
      861     6805    2         CALL X8CO$CONV_TO_OCTAL( PTR$->WORDS(I),LINE.W.WORD@(J) );
      862     6806    2         IF J = MAX_WORDS_PER_LINE THEN
      863     6807    3           DO;
      864     6808    3             CALL Z9AL$DUMP_LINE;
      865     6809    3             OBUF = ' ';
      866     6810    3             J= 0;
      867     6811    3             LINE.NAME = '........';
      868     6812    3           END;
      869     6813    2         ELSE
      870     6814    2           J = J + 1;
      871     6815    2       END;
      872     6816
      873     6817    1       CALL ADD_ST_NAME;
      874     6818
      875     6819        %EJECT;
PL6.E3A0      #002=Z8JT$DUMP_ITEM File=Z8JT.:Z8A6TSI                             SAT 08/09/97 13:35 Page:156
      876     6820    1     ADD_ST_NAME:  PROC;
      877     6821        /*
      878     6822            Add  names to some items.
      879     6823        */
      880     6824    2       I = 19 +  J * 13;      /* index into obuf */
      881     6825    2       IF  PTR$->CONT.ID >= %FIRST_ST
      882     6826    2       AND PTR$->CONT.ID <= %LAST_ST THEN
      883     6827    2         IF PTR$-> ST.DNT$ ~= ADDR(NIL) THEN
      884     6828    3           DO;
      885     6829    3             DNT$ = PTR$->ST.DNT$ ;
      886     6830    3             IF DNT$->DNT.ID = %LEXEME THEN
      887     6831    3               SUBSTR(OBUF,I,120-I) = DNT$ -> DNT.TEXT.NAME ;
      888     6832    3             CALL Z9AL$DUMP_LINE;
      889     6833    3             RETURN;
      890     6834    3           END;
      891     6835
      892     6836    2       IF  PTR$-> CONT.ID >= %FIRST_QLT
      893     6837    2       AND PTR$-> CONT.ID <= %LAST_QLT THEN
      894     6838    2         IF PTR$-> QLT.DNT$ ~= ADDR(NIL) THEN
      895     6839    3           DO;
      896     6840    3             DNT$ = PTR$-> QLT.DNT$;
      897     6841    3             IF DNT$-> DNT.ID = %LEXEME THEN
      898     6842    3               SUBSTR( OBUF,I,120-I) = DNT$-> DNT.TEXT.NAME;
      899     6843    3             CALL Z9AL$DUMP_LINE;
      900     6844    3             RETURN;
      901     6845    3           END;
      902     6846
      903     6847    2       IF PTR$-> CONT.ID = %BASE
      904     6848    2       OR PTR$-> CONT.ID = %TRIAD THEN
      905     6849    2         IF PTR$-> ETT.LOP-> ST.DNT$ ~= ADDR(NIL) THEN
      906     6850    3           DO;
      907     6851    3             DNT$ = PTR$-> ETT.LOP-> ST.DNT$  ;
      908     6852    3             IF DNT$-> DNT.ID = %LEXEME THEN
      909     6853    3               SUBSTR( OBUF,I,120-I ) = DNT$-> DNT.TEXT.NAME;
      910     6854    3             CALL Z9AL$DUMP_LINE;
      911     6855    3             RETURN;
      912     6856    3           END;
PL6.E3A0      #002=Z8JT$DUMP_ITEM File=Z8JT.:Z8A6TSI                             SAT 08/09/97 13:35 Page:157
      913     6857
      914     6858        /*
      915     6859                None of the above
      916     6860        */
      917     6861
      918     6862    2       CALL Z9AL$DUMP_LINE;
      919     6863
      920     6864
      921     6865    2     END ADD_ST_NAME;  /* proc */
      922     6866    1   END Z8JT$DUMP_ITEM;
      923     6867        %EOD;

PL6.E3A0      #002=Z8JT$DUMP_ITEM File=Z8JT.:Z8A6TSI                             SAT 08/09/97 13:35 Page:158
--  Include file information  --

   Z8A_ST.:Z8A6TOU  cannot be made into a system file and is referenced.
   Z8A_QLT.:Z8A6TOU  cannot be made into a system file and is referenced.
   Z8A_DNT.:Z8A6TOU  cannot be made into a system file and is referenced.
   Z8A_ETT.:Z8A6TOU  cannot be made into a system file and is referenced.
   X8A_COM_MACS.:X8A6TOU  is referenced.
   Z8A_NAMES.:Z8A6TOU  cannot be made into a system file and is referenced.
   Z8A_SUPP_MAC.:Z8A6TOU  is referenced.
   Z8A_DEFC.:Z8A6TOU  cannot be made into a system file and is referenced.
      No diagnostics issued in procedure Z8JT$DUMP_ITEM.

   Procedure Z8JT$DUMP_ITEM requires 152 words for executable code.
   Procedure Z8JT$DUMP_ITEM requires 12 words of local(AUTO) storage.

PL6.E3A0      #002=Z8JT$DUMP_ITEM File=Z8JT.:Z8A6TSI                             SAT 08/09/97 13:35 Page:159

 Object Unit name= Z8JT$DUMP_ITEM                             File name= Z8JT.:Z8A6TOU
 UTS= AUG 09 '97 13:35:12.92 SAT                              Compiler= PL-6/E31         Sev=      00
 SharedLib= :SHARED_SYSTEM                                    Alt SharedLib=


    ****  Control sections  ****

 Sect   Type Bound  Init  Size OctSiz  Section name(segment info)
    0  LblCom even  none     1      1  ITERATION
    1  LblCom even  none     1      1  ETT$
    2  LblCom even  none     1      1  HEAD_ETT$
    3  LblCom even  none   512   1000  ETT_BUCKETS
    4  LblCom even  none     5      5  ETT_
    5  LblCom even  none     1      1  DNT$
    6  LblCom even  none     5      5  DNT_
    7  LblCom even  none     1      1  DNT_BUCKET_NUMBER
    8  LblCom even  none     1      1  DNT_OF_1$
    9  LblCom even  none     1      1  QLT$
   10  LblCom even  none     1      1  PREV_01_QLT$
   11  LblCom even  none     5      5  QLT_
   12  LblCom even  none     1      1  ST$
   13  LblCom even  none     5      5  ST_
   14  RoData even  UTS      3      3  Z8JT$DUMP_ITEM
   15  LblCom even  none    30     36  OBUF
   16   Proc  even  none   152    230  Z8JT$DUMP_ITEM
   17  RoData even  none     7      7  Z8JT$DUMP_ITEM

    ****  Entry defs  ****

                              Check   Calling
                             calling  sequence
  Sect OctLoc Primary Altret sequence   type   Parms  Name
    16      0   yes            yes      Std        2  Z8JT$DUMP_ITEM
PL6.E3A0      #002=Z8JT$DUMP_ITEM File=Z8JT.:Z8A6TSI                             SAT 08/09/97 13:35 Page:160

  ****  Entry refs  ****

         Check        Calling
        calling       sequence
Altret sequence SRef   type   Args  Name
         yes           Std       2 X8CO$CONV_TO_OCTAL_HALF
         yes           Std       0 Z9AL$DUMP_LINE
         yes           Std       2 X8CO$CONV_TO_OCTAL
                       nStd      0 X66_AUTO_2
                       nStd      0 X66_ARET

  ****  Data refs  ****

  Flags:  r = read only, s = secondary
Flgs Name                             Flgs Name                             Flgs Name
r    NAMES

  ****  Segment refs  ****

  Flags:  r = read only, s = secondary
Flgs Name                             Flgs Name                             Flgs Name
     NULLSID                               ISSID
PL6.E3A0      #002=Z8JT$DUMP_ITEM File=Z8JT.:Z8A6TSI                             SAT 08/09/97 13:35 Page:161


      806        1        /*T***********************************************************/
      807        2        /*T*                                                         */
      808        3        /*T* Copyright (c) Bull HN Information Systems Inc., 1997    */
      809        4        /*T*                                                         */
      810        5        /*T***********************************************************/
      811        6
      812        7        /*--------------*/
      813        8          Z8JT$DUMP_ITEM:      PROC (PTR$, LENGTH);

      8 16 000000   000000 700200 xent  Z8JT$DUMP_I* TSX0  ! X66_AUTO_2
        16 000001   000014 000002                    ZERO    12,2

      814        9        /*--------------*/
      815       10
      816       11        /*F*       NAME:       Z8JT$DUMP_ITEM
      817       12
      818       13            DESCRIPTION: Internal routine to dump a table item.
      819       14
      820       15           INPUTS: PTR$ ---- POINTER TO THE ITEM.
      821       16           ======  LENGTH -- LENGTH OF THE ITEM IN WORDS.
      822       17
      823       18        */
      824       19
      825       20            %EQU PHASE = 6;
      826       21            %INCLUDE Z8A_DEFC;
      827       89            %INCLUDE Z8A_SUPP_MAC;
      828     2489            %INCLUDE Z8A_ETT;
      829     2790            %INCLUDE Z8A_DNT;
      830     3011            %INCLUDE Z8A_QLT;
      831     3117            %INCLUDE Z8A_ST ;
      832     6776
      833     6777        %EJECT;
PL6.E3A0      #002=Z8JT$DUMP_ITEM File=Z8JT.:Z8A6TSI                             SAT 08/09/97 13:35 Page:162
      834     6778    1       DCL I              SBIN WORD;
      835     6779    1       DCL J              SBIN WORD;
      836     6780    1       DCL MAX_WORDS_PER_LINE    UBIN WORD CONSTANT INIT(6);
      837     6781
      838     6782    1   DCL   WORDS(0:999)    UBIN WORD BASED(PTR$);
      839     6783    1   DCL   PTR$      PTR;
      840     6784    1   DCL   LENGTH    SBIN WORD;
      841     6785    1   DCL OBUF     CHAR(120) EXT;
      842     6786    1   DCL 1   LINE   REDEF OBUF,
      843     6787    1        2  LOC    CHAR (6) UNAL,     /* LOCATION OF ITEM (OCTAL) */
      844     6788    1        2  *      CHAR (1) UNAL,
      845     6789    1        2  NAME   CHAR (12) UNAL,     /* NAME OF ITEM (EG, BASE)  */
      846     6790    1        2  W      (0:6),
      847     6791    1         3 WORD@  CHAR (12) UNAL ,   /* ONE WORD IN OCTAL        */
      848     6792    1         3 *      CHAR  (1) UNAL,
      849     6793    1        2  *      CHAR  (10) UNAL ;
      850     6794
      851     6795    1       DCL X8CO$CONV_TO_OCTAL      ENTRY(2);
      852     6796    1       DCL X8CO$CONV_TO_OCTAL_HALF ENTRY(2);
      853     6797    1       DCL Z9AL$DUMP_LINE          ENTRY;
      854     6798        %EJECT;
PL6.E3A0      #002=Z8JT$DUMP_ITEM File=Z8JT.:Z8A6TSI                             SAT 08/09/97 13:35 Page:163
      855     6799    1       OBUF = ' ';

   6799 16 000002   040000 100400                    MLR     fill='040'O
        16 000003   000000 000001 17                 ADSC9   0                        cn=0,n=1
        16 000004   000000 000170 15                 ADSC9   OBUF                     cn=0,n=120

      856     6800    1       CALL X8CO$CONV_TO_OCTAL_HALF( PTR$, LINE.LOC );

   6800 16 000005   000002 236000 17                 LDQ     2
        16 000006   200003 235100                    LDA     @PTR$,,AUTO
        16 000007   200012 757100                    STAQ    J+4,,AUTO
        16 000010   200012 630500                    EPPR0   J+4,,AUTO
        16 000011   000001 631400 17                 EPPR1   1
        16 000012   000000 701000 xent               TSX1    X8CO$CONV_TO_OCTAL_HALF
        16 000013   000000 011000                    NOP     0

      857     6801    1       LINE.NAME = NAMES( PTR$-> CONT.ID );

   6801 16 000014   200003 470500                    LDP0    @PTR$,,AUTO
        16 000015   000000 471500                    LDP1    0,,PR0
        16 000016   100000 220100                    LDX0    0,,PR1
        16 000017   100000 020100                    ADLX0   0,,PR1
        16 000020   100000 020100                    ADLX0   0,,PR1
        16 000021   000000 635010                    EAA     0,X0
        16 000022   000020 771000                    ARL     16
        16 000023   040000 100405                    MLR     fill='040'O
        16 000024   000000 000014 xsym               ADSC9   NAMES,A                  cn=0,n=12
        16 000025   000001 600014 15                 ADSC9   OBUF+1                   cn=3,n=12

      858     6802    1       J = 0;

   6802 16 000026   200006 450100                    STZ     J,,AUTO

      859     6803
      860     6804    2       DO I = 0 TO LENGTH -1;

   6804 16 000027   200005 450100                    STZ     I,,AUTO
PL6.E3A0      #002=Z8JT$DUMP_ITEM File=Z8JT.:Z8A6TSI                             SAT 08/09/97 13:35 Page:164
        16 000030   000067 710000 16                 TRA     s:6815+1

      861     6805    2         CALL X8CO$CONV_TO_OCTAL( PTR$->WORDS(I),LINE.W.WORD@(J) );

   6805 16 000031   200003 470500                    LDP0    @PTR$,,AUTO
        16 000032   000000 471500                    LDP1    0,,PR0
        16 000033   200006 236100                    LDQ     J,,AUTO
        16 000034   000004 402000 17                 MPY     4
        16 000035   000003 036000 17                 ADLQ    3
        16 000036   200013 756100                    STQ     J+5,,AUTO
        16 000037   200005 720100                    LXL0    I,,AUTO
        16 000040   100000 633510                    EPPR3   0,X0,PR1
        16 000041   200012 453500                    STP3    J+4,,AUTO
        16 000042   200012 630500                    EPPR0   J+4,,AUTO
        16 000043   000001 631400 17                 EPPR1   1
        16 000044   000000 701000 xent               TSX1    X8CO$CONV_TO_OCTAL
        16 000045   000000 011000                    NOP     0

      862     6806    2         IF J = MAX_WORDS_PER_LINE THEN

   6806 16 000046   200006 236100                    LDQ     J,,AUTO
        16 000047   000065 604000 16                 TMI     s:6814
        16 000050   000000 116000 14                 CMPQ    MAX_WORDS_PER_LINE
        16 000051   000065 601000 16                 TNZ     s:6814

      863     6807    3           DO;

      864     6808    3             CALL Z9AL$DUMP_LINE;

   6808 16 000052   000005 631400 17                 EPPR1   5
        16 000053   000000 701000 xent               TSX1    Z9AL$DUMP_LINE
        16 000054   000000 011000                    NOP     0

      865     6809    3             OBUF = ' ';

   6809 16 000055   040000 100400                    MLR     fill='040'O
        16 000056   000000 000001 17                 ADSC9   0                        cn=0,n=1
PL6.E3A0      #002=Z8JT$DUMP_ITEM File=Z8JT.:Z8A6TSI                             SAT 08/09/97 13:35 Page:165
        16 000057   000000 000170 15                 ADSC9   OBUF                     cn=0,n=120

      866     6810    3             J= 0;

   6810 16 000060   200006 450100                    STZ     J,,AUTO

      867     6811    3             LINE.NAME = '........';

   6811 16 000061   040000 100400                    MLR     fill='040'O
        16 000062   000001 000010 14                 ADSC9   MAX_WORDS_PER_LINE+1     cn=0,n=8
        16 000063   000001 600014 15                 ADSC9   OBUF+1                   cn=3,n=12

      868     6812    3           END;

   6812 16 000064   000066 710000 16                 TRA     s:6815

      869     6813    2         ELSE
      870     6814    2           J = J + 1;

   6814 16 000065   200006 054100                    AOS     J,,AUTO

      871     6815    2       END;

   6815 16 000066   200005 054100                    AOS     I,,AUTO
        16 000067   200004 470500                    LDP0    @LENGTH,,AUTO
        16 000070   200005 236100                    LDQ     I,,AUTO
        16 000071   000000 116100                    CMPQ    0,,PR0
        16 000072   000031 604000 16                 TMI     s:6805

      872     6816
      873     6817    1       CALL ADD_ST_NAME;

   6817 16 000073   000076 701000 16                 TSX1    ADD_ST_NAME
        16 000074   000000 011000                    NOP     0
        16 000075   000227 710000 16                 TRA     s:6866

      874     6818
PL6.E3A0      #002=Z8JT$DUMP_ITEM File=Z8JT.:Z8A6TSI                             SAT 08/09/97 13:35 Page:166
      875     6819        %EJECT;
PL6.E3A0      #002=Z8JT$DUMP_ITEM File=Z8JT.:Z8A6TSI                             SAT 08/09/97 13:35 Page:167
      876     6820    1     ADD_ST_NAME:  PROC;

   6820 16 000076   200010 741300       ADD_ST_NAME  STX1  ! J+2,,AUTO

      877     6821        /*
      878     6822            Add  names to some items.
      879     6823        */
      880     6824    2       I = 19 +  J * 13;      /* index into obuf */

   6824 16 000077   200006 236100                    LDQ     J,,AUTO
        16 000100   000015 402007                    MPY     13,DL
        16 000101   000023 036007                    ADLQ    19,DL
        16 000102   200005 756100                    STQ     I,,AUTO

      881     6825    2       IF  PTR$->CONT.ID >= %FIRST_ST

   6825 16 000103   200003 470500                    LDP0    @PTR$,,AUTO
        16 000104   000000 471500                    LDP1    0,,PR0
        16 000105   100000 220100                    LDX0    0,,PR1
        16 000106   000751 100003                    CMPX0   489,DU
        16 000107   000137 602000 16                 TNC     s:6836
        16 000110   001010 100003                    CMPX0   520,DU
        16 000111   000137 603000 16                 TRC     s:6836

      882     6826    2       AND PTR$->CONT.ID <= %LAST_ST THEN
      883     6827    2         IF PTR$-> ST.DNT$ ~= ADDR(NIL) THEN

   6827 16 000112   100006 236100                    LDQ     6,,PR1
        16 000113   000006 116000 17                 CMPQ    6
        16 000114   000137 600000 16                 TZE     s:6836

      884     6828    3           DO;

      885     6829    3             DNT$ = PTR$->ST.DNT$ ;

   6829 16 000115   000000 756000 5                  STQ     DNT$

PL6.E3A0      #002=Z8JT$DUMP_ITEM File=Z8JT.:Z8A6TSI                             SAT 08/09/97 13:35 Page:168
      886     6830    3             IF DNT$->DNT.ID = %LEXEME THEN

   6830 16 000116   000000 471400 5                  LDP1    DNT$
        16 000117   100000 220100                    LDX0    0,,PR1
        16 000120   001046 100003                    CMPX0   550,DU
        16 000121   000132 601000 16                 TNZ     s:6832

      887     6831    3               SUBSTR(OBUF,I,120-I) = DNT$ -> DNT.TEXT.NAME ;

   6831 16 000122   100004 222100                    LDX2    4,,PR1
        16 000123   200005 723100                    LXL3    I,,AUTO
        16 000124   777607 623013                    EAX3    -121,X3
        16 000125   777777 663003                    ERX3    -1,DU
        16 000126   200005 235100                    LDA     I,,AUTO
        16 000127   040045 100540                    MLR     fill='040'O
        16 000130   100004 400012                    ADSC9   4,,PR1                   cn=2,n=*X2
        16 000131   000000 000013 15                 ADSC9   OBUF,A                   cn=0,n=*X3

      888     6832    3             CALL Z9AL$DUMP_LINE;

   6832 16 000132   000005 631400 17                 EPPR1   5
        16 000133   000000 701000 xent               TSX1    Z9AL$DUMP_LINE
        16 000134   000000 011000                    NOP     0

      889     6833    3             RETURN;

   6833 16 000135   200010 221300                    LDX1  ! J+2,,AUTO
        16 000136   000001 702211                    TSX2  ! 1,X1

      890     6834    3           END;
      891     6835
      892     6836    2       IF  PTR$-> CONT.ID >= %FIRST_QLT

   6836 16 000137   001053 100003                    CMPX0   555,DU
        16 000140   000170 602000 16                 TNC     s:6847
        16 000141   001054 100003                    CMPX0   556,DU
        16 000142   000170 603000 16                 TRC     s:6847
PL6.E3A0      #002=Z8JT$DUMP_ITEM File=Z8JT.:Z8A6TSI                             SAT 08/09/97 13:35 Page:169

      893     6837    2       AND PTR$-> CONT.ID <= %LAST_QLT THEN
      894     6838    2         IF PTR$-> QLT.DNT$ ~= ADDR(NIL) THEN

   6838 16 000143   100005 236100                    LDQ     5,,PR1
        16 000144   000006 116000 17                 CMPQ    6
        16 000145   000170 600000 16                 TZE     s:6847

      895     6839    3           DO;

      896     6840    3             DNT$ = PTR$-> QLT.DNT$;

   6840 16 000146   000000 756000 5                  STQ     DNT$

      897     6841    3             IF DNT$-> DNT.ID = %LEXEME THEN

   6841 16 000147   000000 471400 5                  LDP1    DNT$
        16 000150   100000 220100                    LDX0    0,,PR1
        16 000151   001046 100003                    CMPX0   550,DU
        16 000152   000163 601000 16                 TNZ     s:6843

      898     6842    3               SUBSTR( OBUF,I,120-I) = DNT$-> DNT.TEXT.NAME;

   6842 16 000153   100004 222100                    LDX2    4,,PR1
        16 000154   200005 723100                    LXL3    I,,AUTO
        16 000155   777607 623013                    EAX3    -121,X3
        16 000156   777777 663003                    ERX3    -1,DU
        16 000157   200005 235100                    LDA     I,,AUTO
        16 000160   040045 100540                    MLR     fill='040'O
        16 000161   100004 400012                    ADSC9   4,,PR1                   cn=2,n=*X2
        16 000162   000000 000013 15                 ADSC9   OBUF,A                   cn=0,n=*X3

      899     6843    3             CALL Z9AL$DUMP_LINE;

   6843 16 000163   000005 631400 17                 EPPR1   5
        16 000164   000000 701000 xent               TSX1    Z9AL$DUMP_LINE
        16 000165   000000 011000                    NOP     0
PL6.E3A0      #002=Z8JT$DUMP_ITEM File=Z8JT.:Z8A6TSI                             SAT 08/09/97 13:35 Page:170

      900     6844    3             RETURN;

   6844 16 000166   200010 221300                    LDX1  ! J+2,,AUTO
        16 000167   000001 702211                    TSX2  ! 1,X1

      901     6845    3           END;
      902     6846
      903     6847    2       IF PTR$-> CONT.ID = %BASE

   6847 16 000170   000001 100003                    CMPX0   1,DU
        16 000171   000174 600000 16                 TZE     s:6849
        16 000172   000015 100003                    CMPX0   13,DU
        16 000173   000222 601000 16                 TNZ     s:6862

      904     6848    2       OR PTR$-> CONT.ID = %TRIAD THEN
      905     6849    2         IF PTR$-> ETT.LOP-> ST.DNT$ ~= ADDR(NIL) THEN

   6849 16 000174   100001 473500                    LDP3    1,,PR1
        16 000175   300006 236100                    LDQ     6,,PR3
        16 000176   000006 116000 17                 CMPQ    6
        16 000177   000222 600000 16                 TZE     s:6862

      906     6850    3           DO;

      907     6851    3             DNT$ = PTR$-> ETT.LOP-> ST.DNT$  ;

   6851 16 000200   000000 756000 5                  STQ     DNT$

      908     6852    3             IF DNT$-> DNT.ID = %LEXEME THEN

   6852 16 000201   000000 471400 5                  LDP1    DNT$
        16 000202   100000 220100                    LDX0    0,,PR1
        16 000203   001046 100003                    CMPX0   550,DU
        16 000204   000215 601000 16                 TNZ     s:6854

      909     6853    3               SUBSTR( OBUF,I,120-I ) = DNT$-> DNT.TEXT.NAME;
PL6.E3A0      #002=Z8JT$DUMP_ITEM File=Z8JT.:Z8A6TSI                             SAT 08/09/97 13:35 Page:171

   6853 16 000205   100004 222100                    LDX2    4,,PR1
        16 000206   200005 723100                    LXL3    I,,AUTO
        16 000207   777607 623013                    EAX3    -121,X3
        16 000210   777777 663003                    ERX3    -1,DU
        16 000211   200005 235100                    LDA     I,,AUTO
        16 000212   040045 100540                    MLR     fill='040'O
        16 000213   100004 400012                    ADSC9   4,,PR1                   cn=2,n=*X2
        16 000214   000000 000013 15                 ADSC9   OBUF,A                   cn=0,n=*X3

      910     6854    3             CALL Z9AL$DUMP_LINE;

   6854 16 000215   000005 631400 17                 EPPR1   5
        16 000216   000000 701000 xent               TSX1    Z9AL$DUMP_LINE
        16 000217   000000 011000                    NOP     0

      911     6855    3             RETURN;

   6855 16 000220   200010 221300                    LDX1  ! J+2,,AUTO
        16 000221   000001 702211                    TSX2  ! 1,X1

      912     6856    3           END;
      913     6857
      914     6858        /*
      915     6859                None of the above
      916     6860        */
      917     6861
      918     6862    2       CALL Z9AL$DUMP_LINE;

   6862 16 000222   000005 631400 17                 EPPR1   5
        16 000223   000000 701000 xent               TSX1    Z9AL$DUMP_LINE
        16 000224   000000 011000                    NOP     0

      919     6863
      920     6864
      921     6865    2     END ADD_ST_NAME;  /* proc */

PL6.E3A0      #002=Z8JT$DUMP_ITEM File=Z8JT.:Z8A6TSI                             SAT 08/09/97 13:35 Page:172
   6865 16 000225   200010 221300                    LDX1  ! J+2,,AUTO
        16 000226   000001 702211                    TSX2  ! 1,X1

      922     6866    1   END Z8JT$DUMP_ITEM;

   6866 16 000227   000000 702200 xent               TSX2  ! X66_ARET
      923     6867        %EOD;

PL6.E3A0      #002=Z8JT$DUMP_ITEM File=Z8JT.:Z8A6TSI                             SAT 08/09/97 13:35 Page:173
--  Include file information  --

   Z8A_ST.:Z8A6TOU  cannot be made into a system file and is referenced.
   Z8A_QLT.:Z8A6TOU  cannot be made into a system file and is referenced.
   Z8A_DNT.:Z8A6TOU  cannot be made into a system file and is referenced.
   Z8A_ETT.:Z8A6TOU  cannot be made into a system file and is referenced.
   X8A_COM_MACS.:X8A6TOU  is referenced.
   Z8A_NAMES.:Z8A6TOU  cannot be made into a system file and is referenced.
   Z8A_SUPP_MAC.:Z8A6TOU  is referenced.
   Z8A_DEFC.:Z8A6TOU  cannot be made into a system file and is referenced.
      No diagnostics issued in procedure Z8JT$DUMP_ITEM.
PL6.E3A0      #002=Z8JT$DUMP_ITEM File=Z8JT.:Z8A6TSI                             SAT 08/09/97 13:35 Page:174

 **** Variables and constants ****

  ****  Section 000 LblCom ITERATION

  ****  Scalars and arrays  ****
OctLoc.c.b A Datatyp(siz) R M Lvl/name                 OctLoc.c.b A Datatyp(siz) R M Lvl/name

     0-0-0/w SBIN              1 ITERATION

  ****  Section 001 LblCom ETT$

  ****  Scalars and arrays  ****
OctLoc.c.b A Datatyp(siz) R M Lvl/name                 OctLoc.c.b A Datatyp(siz) R M Lvl/name

     0-0-0/w PTR         r     1 ETT$

  ****  Section 002 LblCom HEAD_ETT$

  ****  Scalars and arrays  ****
OctLoc.c.b A Datatyp(siz) R M Lvl/name                 OctLoc.c.b A Datatyp(siz) R M Lvl/name

     0-0-0/w PTR               1 HEAD_ETT$

  ****  Section 003 LblCom ETT_BUCKETS

  ****  Scalars and arrays  ****
OctLoc.c.b A Datatyp(siz) R M Lvl/name                 OctLoc.c.b A Datatyp(siz) R M Lvl/name

     0-0-0/w PTR               1 ETT_BUCKETS(0:511)

  ****  Section 004 LblCom ETT_

  ****  Scalars and arrays  ****
OctLoc.c.b A Datatyp(siz) R M Lvl/name                 OctLoc.c.b A Datatyp(siz) R M Lvl/name

     0-0-0/w STRC(180)         1 ETT_

PL6.E3A0      #002=Z8JT$DUMP_ITEM File=Z8JT.:Z8A6TSI                             SAT 08/09/97 13:35 Page:175
  ****  Section 005 LblCom DNT$

  ****  Scalars and arrays  ****
OctLoc.c.b A Datatyp(siz) R M Lvl/name                 OctLoc.c.b A Datatyp(siz) R M Lvl/name

     0-0-0/w PTR         r     1 DNT$

  ****  Section 006 LblCom DNT_

  ****  Scalars and arrays  ****
OctLoc.c.b A Datatyp(siz) R M Lvl/name                 OctLoc.c.b A Datatyp(siz) R M Lvl/name

     0-0-0/w STRC(180)         1 DNT_

  ****  Section 007 LblCom DNT_BUCKET_NUMBER

  ****  Scalars and arrays  ****
OctLoc.c.b A Datatyp(siz) R M Lvl/name                 OctLoc.c.b A Datatyp(siz) R M Lvl/name

     0-0-0/w UBIN              1 DNT_BUCKET_NUMBER

  ****  Section 008 LblCom DNT_OF_1$

  ****  Scalars and arrays  ****
OctLoc.c.b A Datatyp(siz) R M Lvl/name                 OctLoc.c.b A Datatyp(siz) R M Lvl/name

     0-0-0/w PTR               1 DNT_OF_1$

  ****  Section 009 LblCom QLT$

  ****  Scalars and arrays  ****
OctLoc.c.b A Datatyp(siz) R M Lvl/name                 OctLoc.c.b A Datatyp(siz) R M Lvl/name

     0-0-0/w PTR         r     1 QLT$

  ****  Section 010 LblCom PREV_01_QLT$

PL6.E3A0      #002=Z8JT$DUMP_ITEM File=Z8JT.:Z8A6TSI                             SAT 08/09/97 13:35 Page:176
  ****  Scalars and arrays  ****
OctLoc.c.b A Datatyp(siz) R M Lvl/name                 OctLoc.c.b A Datatyp(siz) R M Lvl/name

     0-0-0/w PTR               1 PREV_01_QLT$

  ****  Section 011 LblCom QLT_

  ****  Scalars and arrays  ****
OctLoc.c.b A Datatyp(siz) R M Lvl/name                 OctLoc.c.b A Datatyp(siz) R M Lvl/name

     0-0-0/w STRC(180)         1 QLT_

  ****  Section 012 LblCom ST$

  ****  Scalars and arrays  ****
OctLoc.c.b A Datatyp(siz) R M Lvl/name                 OctLoc.c.b A Datatyp(siz) R M Lvl/name

     0-0-0/w PTR         r     1 ST$

  ****  Section 013 LblCom ST_

  ****  Scalars and arrays  ****
OctLoc.c.b A Datatyp(siz) R M Lvl/name                 OctLoc.c.b A Datatyp(siz) R M Lvl/name

     0-0-0/w STRC(180)         1 ST_

  ****  Section 014 RoData Z8JT$DUMP_ITEM

  ****  Scalars and arrays  ****
OctLoc.c.b A Datatyp(siz) R M Lvl/name                 OctLoc.c.b A Datatyp(siz) R M Lvl/name

     0-0-0/w UBIN        r     1 MAX_WORDS_PER_LINE

  ****  Section 015 LblCom OBUF

  ****  Scalars and arrays  ****
OctLoc.c.b A Datatyp(siz) R M Lvl/name                 OctLoc.c.b A Datatyp(siz) R M Lvl/name
PL6.E3A0      #002=Z8JT$DUMP_ITEM File=Z8JT.:Z8A6TSI                             SAT 08/09/97 13:35 Page:177

     0-0-0/c STRC(1080)  r     1 LINE                       0-0-0/c CHAR(120)   r     1 OBUF

  ****  Auto variables  ****

  ****  Scalars and arrays  ****
OctLoc.c.b A Datatyp(siz) R M Lvl/name                 OctLoc.c.b A Datatyp(siz) R M Lvl/name

     4-0-0/w PTR         r     1 @LENGTH                    3-0-0/w PTR         r     1 @PTR$
     5-0-0/w SBIN        r     1 I                          6-0-0/w SBIN        r     1 J
    *0-0-0/w SBIN        r     1 LENGTH                    *0-0-0/w PTR         r     1 PTR$

  ****  SYMREF variables  ****

  ****  Scalars and arrays  ****
OctLoc.c.b A Datatyp(siz) R M Lvl/name                 OctLoc.c.b A Datatyp(siz) R M Lvl/name

     0-0-0/c CHAR(12)    r     1 NAMES(0:599)

  ****  BASED and DCB variables  ****

  ****  Scalars and arrays  ****
OctLoc.c.b A Datatyp(siz) R M Lvl/name                 OctLoc.c.b A Datatyp(siz) R M Lvl/name

     0-0-0/w STRC(396)         1 ALPHABET                   0-0-0/w STRC(396)         1 ARRAY
     0-0-0/w STRC(396)         1 BLOCK                      0-0-0/w STRC(396)         1 CD
     0-0-0/w CHAR(4096)        1 CHARS                      0-0-0/w STRC(396)         1 CLASS
     0-0-0/w STRC(396)         1 CONDITION                  0-0-0/w STRC(396)         1 CONST
     0-0-0/w STRC(72)    r     1 CONT                       0-0-0/w STRC(396)         1 DB
     0-0-0/w STRC(396)         1 DCB_                       0-0-0/w STRC(396)         1 DML_ITEM
     0-0-0/w ASTR(180)   r     1 DNT                        0-0-0/w STRC(180)   r     1 ETT
     0-0-0/w STRC(396)         1 FD                         0-0-0/w STRC(396)         1 INTDEF
     0-0-0/w STRC(396)         1 LABEL                      0-0-0/w STRC(396)         1 MNEMONIC
     0-0-0/w STRC(36864)       1 PAGE                       0-0-0/w STRC(396)         1 PARA
     0-0-0/w STRC(396)         1 PROC_                      0-0-0/w STRC(396)         1 PROC_DEF
     0-0-0/w STRC(216)   r     1 QLT                        0-0-0/w STRC(396)         1 RD
     0-0-0/w STRC(396)         1 SCALAR                     0-0-0/w STRC(396)         1 SD
PL6.E3A0      #002=Z8JT$DUMP_ITEM File=Z8JT.:Z8A6TSI                             SAT 08/09/97 13:35 Page:178
     0-0-0/w STRC(396)         1 SECTION                    0-0-0/w STRC(396)         1 SEGMENT
     0-0-0/w STRC(396)   r     1 ST                         0-0-0/w STRC(396)         1 SWITCH
     0-0-0/w STRC(396)         1 SYMBOLIC_CHAR              0-0-0/w STRC(396)         1 SYMDEF_
     0-0-0/w STRC(396)         1 SYMREF_                    0-0-0/w STRC(396)         1 TEMP
     0-0-0/w STRC(396)         1 VARIABLE                   0-0-0/w UBIN        r     1 WORDS(0:999)


   Procedure Z8JT$DUMP_ITEM requires 152 words for executable code.
   Procedure Z8JT$DUMP_ITEM requires 12 words of local(AUTO) storage.

