PL6.E3A0      #003=Z8JT$ONLINE_TABLE_DUMP File=Z8JT.:Z8A6TSI                     SAT 08/09/97 13:36 Page:179
      924        1        /*T***********************************************************/
      925        2        /*T*                                                         */
      926        3        /*T* Copyright (c) Bull HN Information Systems Inc., 1997    */
      927        4        /*T*                                                         */
      928        5        /*T***********************************************************/
      929        6
      930        7        /*----------------------*/
      931        8          Z8JT$ONLINE_TABLE_DUMP:     PROC (P$);
      932        9        /*----------------------*/
      933       10
      934       11            %EQU  PHASE = 6;
      935       12            %INCLUDE Z8A_DEFC;
      936       80            %INCLUDE Z8A_SUPP_MAC;
      937     2480            %INCLUDE Z8A_COMCOM;
      938     3130            %INCLUDE Z8A_DNT;
      939     3351            %INCLUDE Z8A_DPI ;
      940     3435            %INCLUDE Z8A_ERR;
      941     3504            %INCLUDE Z8A_ETT;
      942     3805            %INCLUDE Z8A_GST;
      943     3865            %INCLUDE Z8A_ILL;
      944     4558            %INCLUDE Z8A_ILS;
      945     4667            %INCLUDE Z8A_LTS;
      946     6744            %INCLUDE Z8A_OBJ;
      947     7241            %INCLUDE Z8A_QLT;
      948     7347            %INCLUDE Z8A_ST;
      949    11006            %INCLUDE Z8A_IO_EQUS;
      950    11129
      951    11130            %EQU LINE1 = 7;
      952    11131            %EQU LINE2 = 14;
      953    11132        %EJECT;
PL6.E3A0      #003=Z8JT$ONLINE_TABLE_DUMP File=Z8JT.:Z8A6TSI                     SAT 08/09/97 13:36 Page:180
      954    11133    1       DCL P$             PTR;
      955    11134    1       DCL INBUF          CHAR(80) EXT;
      956    11135    1       DCL OBUF           CHAR(120) EXT;
      957    11136    1       DCL LENGTH         SBIN WORD;
      958    11137
      959    11138    1       DCL Z9AL$WRITE_TERMINAL          ENTRY;
      960    11139    1       DCL Z8JT$DUMP_ITEM               ENTRY(2);
      961    11140    1       DCL Z9AL$DUMP_LINE               ENTRY;
      962    11141    1       DCL Z9AL$WRITE_BLANK_LINE        ENTRY;
      963    11142    1       DCL Z9AL$READ_TERMINAL           ENTRY;
      964    11143    1       DCL X8CO$CONV_TO_OCTAL           ENTRY(2);
      965    11144    1       DCL X8CO$CONV_TO_OCTAL_HALF      ENTRY(2);
      966    11145    1       DCL X8CO$CONV_TO_DECIMAL         ENTRY(2);
      967    11146        %EJECT;
PL6.E3A0      #003=Z8JT$ONLINE_TABLE_DUMP File=Z8JT.:Z8A6TSI                     SAT 08/09/97 13:36 Page:181
      968    11147        /*
      969    11148                   ETT  items
      970    11149        */
      971    11150    1       IF  P$-> CONT.ID >= %FIRST_ETT
      972    11151    1       AND P$-> CONT.ID <= %LAST_ETT THEN
      973    11152    2         DO;
      974    11153    2           LENGTH = SIZEW(ETT);
      975    11154    2           CALL Z8JT$DUMP_ITEM(P$, LENGTH );
      976    11155    2           RETURN;
      977    11156    2         END;
      978    11157
      979    11158        /*
      980    11159                   ILL items
      981    11160        */
      982    11161    1       IF  P$-> CONT.ID >= %FIRST_ILL
      983    11162    1       AND P$-> CONT.ID <= %LAST_ILL THEN
      984    11163    2         DO;
      985    11164    2           LENGTH = ILL_STEP( P$-> ILL.ID - %FIRST_ILL );
      986    11165    2           CALL Z8JT$DUMP_ITEM(P$, LENGTH );
      987    11166    2           RETURN;
      988    11167    2         END;
      989    11168
      990    11169        /*
      991    11170                   ST items
      992    11171        */
      993    11172    1       IF  P$-> CONT.ID >= %FIRST_ST
      994    11173    1       AND P$-> CONT.ID <= %LAST_ST THEN
      995    11174    2         DO;
      996    11175    2           LENGTH = SIZEW(ST);
      997    11176    2           CALL Z8JT$DUMP_ITEM(P$, LENGTH );
      998    11177    2           RETURN;
      999    11178    2         END;
     1000    11179        %EJECT;
PL6.E3A0      #003=Z8JT$ONLINE_TABLE_DUMP File=Z8JT.:Z8A6TSI                     SAT 08/09/97 13:36 Page:182
     1001    11180        /*
     1002    11181                   ILS  items
     1003    11182        */
     1004    11183    1       IF  P$-> CONT.ID >= %FIRST_ILS
     1005    11184    1       AND P$-> CONT.ID <= %LAST_ILS THEN
     1006    11185    2         DO;
     1007    11186    2           LENGTH = ILS_STEP_TABLE( P$-> ILS.ID - %FIRST_ILS );
     1008    11187    2           CALL Z8JT$DUMP_ITEM(P$, LENGTH );
     1009    11188    2           RETURN;
     1010    11189    2         END;
     1011    11190
     1012    11191        /*
     1013    11192                    ERR  items
     1014    11193        */
     1015    11194    1       IF  P$-> CONT.ID >= %FIRST_ERR
     1016    11195    1       AND P$-> CONT.ID <= %LAST_ERR THEN
     1017    11196    2         DO;
     1018    11197    2           LENGTH = P$-> ERR.N;
     1019    11198    2           CALL Z8JT$DUMP_ITEM( P$ , LENGTH );
     1020    11199    2           RETURN;
     1021    11200    2         END;
     1022    11201
     1023    11202        /*
     1024    11203                    DNT  items
     1025    11204        */
     1026    11205    1       IF  P$-> CONT.ID >= %FIRST_DNT
     1027    11206    1       AND P$-> CONT.ID <= %LAST_DNT THEN
     1028    11207    2         DO;
     1029    11208    2           LENGTH = P$-> DNT.N;
     1030    11209    2           CALL Z8JT$DUMP_ITEM( P$ , LENGTH );
     1031    11210    2           RETURN;
     1032    11211    2         END;
     1033    11212        %EJECT;
PL6.E3A0      #003=Z8JT$ONLINE_TABLE_DUMP File=Z8JT.:Z8A6TSI                     SAT 08/09/97 13:36 Page:183
     1034    11213        /*
     1035    11214                    OBJ  items
     1036    11215        */
     1037    11216    1       IF  P$-> CONT.ID >= %FIRST_OBJ
     1038    11217    1       AND P$-> CONT.ID <= %LAST_OBJ THEN
     1039    11218    2         DO;
     1040    11219    2           LENGTH = OBJ_STEP( P$-> OBJ.ID - %FIRST_OBJ );
     1041    11220    2           CALL Z8JT$DUMP_ITEM( P$ , LENGTH );
     1042    11221    2           RETURN;
     1043    11222    2         END;
     1044    11223
     1045    11224        /*
     1046    11225                    GST  items
     1047    11226        */
     1048    11227    1       IF  P$-> CONT.ID >= %FIRST_GST
     1049    11228    1       AND P$-> CONT.ID <= %LAST_GST THEN
     1050    11229    2         DO;
     1051    11230    2           LENGTH = %GSA_SIZE;
     1052    11231    2           CALL Z8JT$DUMP_ITEM( P$ , LENGTH );
     1053    11232    2           RETURN;
     1054    11233    2         END;
     1055    11234
     1056    11235        /*
     1057    11236                    QLT  items
     1058    11237        */
     1059    11238    1       IF  P$-> CONT.ID >= %FIRST_QLT
     1060    11239    1       AND P$-> CONT.ID <= %LAST_QLT THEN
     1061    11240    2         DO;
     1062    11241    2           CALL DUMP_QLT_ONLINE;
     1063    11242    2           RETURN;
     1064    11243    2         END;
     1065    11244        %EJECT;
PL6.E3A0      #003=Z8JT$ONLINE_TABLE_DUMP File=Z8JT.:Z8A6TSI                     SAT 08/09/97 13:36 Page:184
     1066    11245        /*
     1067    11246                    LTS  items
     1068    11247        */
     1069    11248    1       IF  P$-> CONT.ID >= %FIRST_LTS
     1070    11249    1       AND P$-> CONT.ID <= %LAST_LTS THEN
     1071    11250    2         DO;
     1072    11251    3           DO CASE ( P$-> LTS.ID );
     1073    11252
     1074    11253    3             CASE( %LCNST );
     1075    11254    3               CALL DUMP_LCNST_ONLINE;
     1076    11255
     1077    11256    3             CASE( %FILE_LTS );
     1078    11257    3               CALL DUMP_FILE_LTS_ONLINE;
     1079    11258
     1080    11259    3             CASE( ELSE );
     1081    11260    3               LENGTH = LTS_STEP( P$-> LTS.ID - %FIRST_LTS );
     1082    11261    3               IF LENGTH = 0 THEN
     1083    11262    3                 LENGTH = P$-> LTS.N;
     1084    11263    3               CALL Z8JT$DUMP_ITEM( P$, LENGTH );
     1085    11264
     1086    11265    3           END; /* case lts.id */
     1087    11266    2           RETURN;
     1088    11267    2         END;
     1089    11268
     1090    11269            /* IF AN ITEM GETS HERE, JUST DUMP 1 WORD */
     1091    11270
     1092    11271    1      LENGTH = 1;
     1093    11272    1      CALL Z8JT$DUMP_ITEM( P$, LENGTH );
     1094    11273    1      RETURN;
     1095    11274        %EJECT;
PL6.E3A0      #003=Z8JT$ONLINE_TABLE_DUMP File=Z8JT.:Z8A6TSI                     SAT 08/09/97 13:36 Page:185
     1096    11275    1     DUMP_FILE_LTS_ONLINE:  PROC;
     1097    11276
     1098    11277    2       OBUF = '                          File  Lts  Item';
     1099    11278    2       CALL Z9AL$DUMP_LINE;
     1100    11279    2       OBUF = '                          ----  ---  ----';
     1101    11280    2       CALL Z9AL$DUMP_LINE;
     1102    11281    2       CALL Z9AL$WRITE_BLANK_LINE;
     1103    11282
     1104    11283    2       OBUF = 'ST$:';
     1105    11284    2       IF P$-> FILE_LTS.ST$ ~= ADDR(NIL) THEN
     1106    11285    3         DO;
     1107    11286    3           CALL X8CO$CONV_TO_OCTAL( P$-> FILE_LTS.ST$, SUBSTR(OBUF,20,12));
     1108    11287    3           IF P$-> FILE_LTS.ST$->  FD.DNT$ ~= ADDR(NIL) THEN
     1109    11288    3             SUBSTR( OBUF,35,P$-> FILE_LTS.ST$-> FD.DNT$-> DNT.TEXT.LENGTH ) =
     1110    11289    3               P$-> FILE_LTS.ST$-> FD.DNT$-> DNT.TEXT.NAME;
     1111    11290    3         END;
     1112    11291    2       ELSE
     1113    11292    2           SUBSTR ( OBUF,20,3 ) = 'Nil';
     1114    11293    2       CALL Z9AL$DUMP_LINE;
     1115    11294
     1116    11295    2       OBUF = 'FAB_QLT$:';
     1117    11296    2       IF P$-> FILE_LTS.FAB$ = ADDR(NIL) THEN
     1118    11297    2         SUBSTR( OBUF,20,3 ) = 'Nil';
     1119    11298    2       ELSE
     1120    11299    2         CALL X8CO$CONV_TO_OCTAL( P$-> FILE_LTS.FAB$, SUBSTR( OBUF,20,12 ));
     1121    11300
     1122    11301    2       SUBSTR( OBUF,40,20 ) = 'File_LTS_Chain$:';
     1123    11302    2       IF P$-> FILE_LTS.FILE_LTS_CHAIN$ = ADDR(NIL) THEN
     1124    11303    2         SUBSTR( OBUF,60,3 ) = 'Nil';
     1125    11304    2       ELSE
     1126    11305    2         CALL X8CO$CONV_TO_OCTAL( P$-> FILE_LTS.FILE_LTS_CHAIN$, SUBSTR
     1127    11306    2           ( OBUF, 60, 12 ) );
     1128    11307    2       CALL Z9AL$DUMP_LINE;
     1129    11308
     1130    11309
     1131    11310    2       OBUF = 'Assign$:';
     1132    11311    2       IF P$-> FILE_LTS.ASSIGN$ = ADDR(NIL) THEN
PL6.E3A0      #003=Z8JT$ONLINE_TABLE_DUMP File=Z8JT.:Z8A6TSI                     SAT 08/09/97 13:36 Page:186
     1133    11312    2         SUBSTR( OBUF,20,3 ) = 'Nil';
     1134    11313    2       ELSE
     1135    11314    2         CALL X8CO$CONV_TO_OCTAL( P$-> FILE_LTS.ASSIGN$, SUBSTR( OBUF,20,12 ));
     1136    11315
     1137    11316    2       SUBSTR( OBUF,40,20 ) = 'No_of_Areas:';
     1138    11317    2       CALL X8CO$CONV_TO_DECIMAL( P$-> FILE_LTS.NO_OF_AREAS, SUBSTR( OBUF,60,13 ));
     1139    11318    2       CALL Z9AL$DUMP_LINE;
     1140    11319
     1141    11320    2       OBUF = 'Organization:';
     1142    11321    3       DO CASE( P$-> FILE_LTS.ORGANIZATION );
     1143    11322
     1144    11323    3         CASE( %SEQUENTIAL );
     1145    11324    3           SUBSTR( OBUF,20,10 ) = 'Sequential';
     1146    11325
     1147    11326    3         CASE( %RELATIVE );
     1148    11327    3           SUBSTR( OBUF,20,8 ) = 'Relative';
     1149    11328
     1150    11329    3         CASE( %INDEXED );
     1151    11330    3           SUBSTR( OBUF,20,7 ) = 'Indexed';
     1152    11331
     1153    11332    3         CASE( %KEYED );
     1154    11333    3           SUBSTR( OBUF,20,5 ) = 'Keyed';
     1155    11334
     1156    11335    3         CASE( ELSE );
     1157    11336    3           SUBSTR( OBUF,20,4 ) = 'Else';
     1158    11337
     1159    11338    3       END;  /* case */
     1160    11339
     1161    11340    2       SUBSTR( OBUF,40,20 ) = 'Access Mode:';
     1162    11341    3       DO CASE( P$-> FILE_LTS.ACCESS_MODE );
     1163    11342
     1164    11343    3         CASE( %SEQUENTIAL_ACCESS );
     1165    11344    3           SUBSTR( OBUF,60,10 ) = 'Sequential';
     1166    11345
     1167    11346    3         CASE( %RANDOM_ACCESS );
     1168    11347    3           SUBSTR( OBUF,60,6 ) = 'Random';
     1169    11348
PL6.E3A0      #003=Z8JT$ONLINE_TABLE_DUMP File=Z8JT.:Z8A6TSI                     SAT 08/09/97 13:36 Page:187
     1170    11349    3         CASE( ELSE );
     1171    11350    3           SUBSTR( OBUF,60,6 ) = 'Error ';
     1172    11351
     1173    11352    3       END;  /* case */
     1174    11353    2       CALL Z9AL$DUMP_LINE;
     1175    11354
     1176    11355    2       OBUF = 'Pad_char$:';
     1177    11356    2       IF P$-> FILE_LTS.PAD_CHAR$ = ADDR(NIL) THEN
     1178    11357    2         SUBSTR( OBUF,20,3 ) = 'Nil';
     1179    11358    2       ELSE
     1180    11359    2         CALL X8CO$CONV_TO_OCTAL( P$-> FILE_LTS.PAD_CHAR$, SUBSTR( OBUF,20,12 ));
     1181    11360
     1182    11361    2       SUBSTR( OBUF,40,20 ) = 'Record_Delim:';
     1183    11362    2       CALL X8CO$CONV_TO_DECIMAL( P$-> FILE_LTS.RECORD_DELIM,
     1184    11363    2                                  SUBSTR( OBUF,60,13 ));
     1185    11364    2       CALL Z9AL$DUMP_LINE;
     1186    11365
     1187    11366    2       OBUF = 'File_Status$:';
     1188    11367    2       IF P$-> FILE_LTS.FILE_STATUS$ = ADDR(NIL) THEN
     1189    11368    2         SUBSTR( OBUF,20,3 ) = 'Nil';
     1190    11369    2       ELSE
     1191    11370    2         CALL X8CO$CONV_TO_OCTAL( P$-> FILE_LTS.FILE_STATUS$, SUBSTR(OBUF,20,12));
     1192    11371
     1193    11372    2       SUBSTR( OBUF,40,20 ) = 'File_Status2$:';
     1194    11373    2       IF P$-> FILE_LTS.FILE_STATUS2$ = ADDR(NIL) THEN
     1195    11374    2         SUBSTR( OBUF,60,3 ) = 'Nil';
     1196    11375    2       ELSE
     1197    11376    2         CALL X8CO$CONV_TO_OCTAL( P$->FILE_LTS.FILE_STATUS2$, SUBSTR(OBUF,20,12));
     1198    11377    2       CALL Z9AL$DUMP_LINE;
     1199    11378
     1200    11379    2       OBUF = 'Relative_Key$';
     1201    11380    2       IF P$-> FILE_LTS.RELATIVE_KEY$ = ADDR(NIL) THEN
     1202    11381    2         SUBSTR( OBUF,20,3 ) = 'Nil';
     1203    11382    2       ELSE
     1204    11383    2         CALL X8CO$CONV_TO_OCTAL( P$-> FILE_LTS.RELATIVE_KEY$,
     1205    11384    2                                       SUBSTR( OBUF,20,12 ) );
     1206    11385
PL6.E3A0      #003=Z8JT$ONLINE_TABLE_DUMP File=Z8JT.:Z8A6TSI                     SAT 08/09/97 13:36 Page:188
     1207    11386    2       SUBSTR( OBUF,40,20 ) = 'Record_Key$';
     1208    11387    2       IF P$-> FILE_LTS.RECORD_KEY$ = ADDR(NIL) THEN
     1209    11388    2         SUBSTR( OBUF,60,3 ) = 'Nil';
     1210    11389    2       ELSE
     1211    11390    2         CALL X8CO$CONV_TO_OCTAL( P$-> FILE_LTS.RECORD_KEY$,
     1212    11391    2                                       SUBSTR( OBUF,60,12 ) );
     1213    11392    2       CALL Z9AL$DUMP_LINE;
     1214    11393
     1215    11394    2       OBUF = 'Alt_Record_Key$:';
     1216    11395    2       IF P$-> FILE_LTS.ALT_RECORD_KEY$ = ADDR(NIL) THEN
     1217    11396    2         SUBSTR( OBUF,20,3 ) = 'Nil';
     1218    11397    2       ELSE
     1219    11398    2         CALL X8CO$CONV_TO_OCTAL( P$-> FILE_LTS.ALT_RECORD_KEY$,
     1220    11399    2                                       SUBSTR( OBUF,20,12 ) );
     1221    11400
     1222    11401    2       SUBSTR( OBUF,40,20 ) = 'Nominal_Key$';
     1223    11402    2       IF P$-> FILE_LTS.NOMINAL_KEY$ = ADDR(NIL) THEN
     1224    11403    2         SUBSTR( OBUF,60,3 ) = 'Nil';
     1225    11404    2       ELSE
     1226    11405    2         CALL X8CO$CONV_TO_OCTAL( P$-> FILE_LTS.NOMINAL_KEY$,
     1227    11406    2                                       SUBSTR( OBUF,60,12 ) );
     1228    11407    2       CALL Z9AL$DUMP_LINE;
     1229    11408
     1230    11409    2       OBUF = 'Bits:';
     1231    11410    2       CALL X8CO$CONV_TO_OCTAL( P$-> FILE_LTS.ATTR, SUBSTR( OBUF,20,12 ) );
     1232    11411    2       CALL Z9AL$DUMP_LINE;
     1233    11412
     1234    11413    2       OBUF = 'Block Contains:';
     1235    11414    2       CALL X8CO$CONV_TO_DECIMAL( P$-> FILE_LTS.BLOCK_CONTAINS.INT_1,
     1236    11415    2                                  SUBSTR( OBUF,20,13 ) );
     1237    11416    2       CALL X8CO$CONV_TO_DECIMAL( P$-> FILE_LTS.BLOCK_CONTAINS.INT_2,
     1238    11417    2                                  SUBSTR( OBUF,35,13 ) );
     1239    11418    2       CALL Z9AL$DUMP_LINE;
     1240    11419
     1241    11420    2       OBUF = 'Record Contains:';
     1242    11421    2       CALL X8CO$CONV_TO_DECIMAL( P$-> FILE_LTS.RECORD_CONTAINS.INT_1,
     1243    11422    2                                  SUBSTR( OBUF,20,13 ) );
PL6.E3A0      #003=Z8JT$ONLINE_TABLE_DUMP File=Z8JT.:Z8A6TSI                     SAT 08/09/97 13:36 Page:189
     1244    11423    2       CALL X8CO$CONV_TO_DECIMAL( P$-> FILE_LTS.RECORD_CONTAINS.INT_2,
     1245    11424    2                                  SUBSTR( OBUF,35,13 ) );
     1246    11425    2       CALL Z9AL$DUMP_LINE;
     1247    11426
     1248    11427    2       OBUF = 'Depending$:';
     1249    11428    2       IF P$-> FILE_LTS.RECORD_CONTAINS.DEPENDING$ = ADDR(NIL) THEN
     1250    11429    2         SUBSTR( OBUF,20,3 ) = 'Nil';
     1251    11430    2       ELSE
     1252    11431    2         CALL X8CO$CONV_TO_OCTAL( P$-> FILE_LTS.RECORD_CONTAINS.DEPENDING$,
     1253    11432    2                                  SUBSTR( OBUF,20,12 ) );
     1254    11433
     1255    11434    2       SUBSTR( OBUF,40,20 ) = 'Label_Records$';
     1256    11435    2       IF P$-> FILE_LTS.LABEL_RECORDS$ = ADDR(NIL) THEN
     1257    11436    2         SUBSTR( OBUF,60,3 ) = 'Nil';
     1258    11437    2       ELSE
     1259    11438    2         CALL X8CO$CONV_TO_OCTAL
     1260    11439    2         (P$-> FILE_LTS.LABEL_RECORDS$, SUBSTR( OBUF,60,12 ) );
     1261    11440    2       CALL Z9AL$DUMP_LINE;
     1262    11441
     1263    11442    2       OBUF = 'File_Id$:';
     1264    11443    2       IF P$-> FILE_LTS.FILE_ID$ = ADDR(NIL) THEN
     1265    11444    2         SUBSTR( OBUF,20,3 ) = 'Nil';
     1266    11445    2       ELSE
     1267    11446    2         CALL X8CO$CONV_TO_OCTAL( P$-> FILE_LTS.FILE_ID$, SUBSTR( OBUF,20,12 ));
     1268    11447
     1269    11448    2       SUBSTR( OBUF,40,20 ) = 'Retention$:';
     1270    11449    2       IF P$-> FILE_LTS.RETENTION$ = ADDR(NIL) THEN
     1271    11450    2         SUBSTR( OBUF,60,3 ) = 'Nil';
     1272    11451    2       ELSE
     1273    11452    2         CALL X8CO$CONV_TO_OCTAL( P$-> FILE_LTS.RETENTION$,
     1274    11453    2                                  SUBSTR( OBUF,60,12 ) );
     1275    11454    2       CALL Z9AL$DUMP_LINE;
     1276    11455
     1277    11456    2       OBUF = 'Catalog$:';
     1278    11457    2       IF P$-> FILE_LTS.CATALOG$ = ADDR(NIL) THEN
     1279    11458    2         SUBSTR( OBUF,20,3 ) = 'Nil';
     1280    11459    2       ELSE
PL6.E3A0      #003=Z8JT$ONLINE_TABLE_DUMP File=Z8JT.:Z8A6TSI                     SAT 08/09/97 13:36 Page:190
     1281    11460    2         CALL X8CO$CONV_TO_OCTAL( P$-> FILE_LTS.CATALOG$,
     1282    11461    2                                  SUBSTR( OBUF,20,12 ) );
     1283    11462
     1284    11463    2       SUBSTR( OBUF,40,20 ) = 'Data_Record$:';
     1285    11464    2       IF P$-> FILE_LTS.DATA_RECORD$ = ADDR(NIL) THEN
     1286    11465    2         SUBSTR( OBUF,60,3 ) = 'Nil';
     1287    11466    2       ELSE
     1288    11467    2         CALL X8CO$CONV_TO_OCTAL( P$-> FILE_LTS.DATA_RECORD$,
     1289    11468    2                                  SUBSTR( OBUF,60,12 ) );
     1290    11469    2       CALL Z9AL$DUMP_LINE;
     1291    11470
     1292    11471    2       OBUF = 'Linage:';
     1293    11472    2       SUBSTR( OBUF,10,13 ) = 'No_of_lines$:';
     1294    11473    2       IF P$-> FILE_LTS.LINAGE.NO_OF_LINES$ = ADDR(NIL) THEN
     1295    11474    2         SUBSTR( OBUF,27,3 ) = 'Nil';
     1296    11475    2       ELSE
     1297    11476    2         CALL X8CO$CONV_TO_OCTAL( P$-> FILE_LTS.LINAGE.NO_OF_LINES$,
     1298    11477    2                                  SUBSTR( OBUF,27,12 ) );
     1299    11478
     1300    11479    2       SUBSTR( OBUF,47,20 ) = 'Footing$:';
     1301    11480    2       IF P$-> FILE_LTS.LINAGE.FOOTING$ = ADDR(NIL) THEN
     1302    11481    2         SUBSTR( OBUF,67,3 ) = 'Nil';
     1303    11482    2       ELSE
     1304    11483    2         CALL X8CO$CONV_TO_OCTAL( P$-> FILE_LTS.LINAGE.FOOTING$,
     1305    11484    2                                  SUBSTR( OBUF,67,12 ) );
     1306    11485    2       CALL Z9AL$DUMP_LINE;
     1307    11486
     1308    11487    2       OBUF = '          Top$:';
     1309    11488    2       IF P$-> FILE_LTS.LINAGE.TOP$ = ADDR(NIL) THEN
     1310    11489    2         SUBSTR( OBUF,27,3 ) = 'Nil';
     1311    11490    2       ELSE
     1312    11491    2         CALL X8CO$CONV_TO_OCTAL( P$-> FILE_LTS.LINAGE.TOP$,
     1313    11492    2                                  SUBSTR( OBUF,27,12 ) );
     1314    11493
     1315    11494    2       SUBSTR( OBUF,47,20 ) = 'Bottom$:';
     1316    11495    2       IF P$-> FILE_LTS.LINAGE.BOTTOM$ = ADDR(NIL) THEN
     1317    11496    2         SUBSTR( OBUF,67,3 ) = 'Nil';
PL6.E3A0      #003=Z8JT$ONLINE_TABLE_DUMP File=Z8JT.:Z8A6TSI                     SAT 08/09/97 13:36 Page:191
     1318    11497    2       ELSE
     1319    11498    2          CALL X8CO$CONV_TO_OCTAL( P$-> FILE_LTS.LINAGE.BOTTOM$,
     1320    11499    2                                   SUBSTR( OBUF,67,12 ) );
     1321    11500    2       CALL Z9AL$DUMP_LINE;
     1322    11501
     1323    11502    2       OBUF = 'Code_Set$:';
     1324    11503    2       IF P$-> FILE_LTS.CODE_SET$ = ADDR(NIL) THEN
     1325    11504    2         SUBSTR( OBUF,20,3 ) = 'Nil';
     1326    11505    2       ELSE
     1327    11506    2         CALL X8CO$CONV_TO_OCTAL( P$-> FILE_LTS.CODE_SET$, SUBSTR( OBUF,20,12 ));
     1328    11507
     1329    11508    2       SUBSTR( OBUF,40,20 ) = 'Report$:';
     1330    11509    2       IF P$-> FILE_LTS.REPORT$ = ADDR(NIL) THEN
     1331    11510    2         SUBSTR( OBUF,60,3 ) = 'Nil';
     1332    11511    2       ELSE
     1333    11512    2         CALL X8CO$CONV_TO_OCTAL( P$-> FILE_LTS.REPORT$, SUBSTR( OBUF,60,12 ));
     1334    11513    2       CALL Z9AL$DUMP_LINE;
     1335    11514
     1336    11515    2       OBUF = 'Position:';
     1337    11516    2       CALL X8CO$CONV_TO_DECIMAL( P$-> FILE_LTS.POSITION, SUBSTR( OBUF,20,13 ));
     1338    11517
     1339    11518    2       SUBSTR( OBUF,40,20 ) = 'Rerun_Num:';
     1340    11519    2       CALL X8CO$CONV_TO_DECIMAL( P$-> FILE_LTS.RERUN_NUM, SUBSTR( OBUF,60,13 ));
     1341    11520    2       CALL Z9AL$DUMP_LINE;
     1342    11521    2       OBUF = '                         Head$           Link';
     1343    11522    2       CALL Z9AL$DUMP_LINE;
     1344    11523    2       OBUF = 'Same_Record:';
     1345    11524    2       IF P$-> FILE_LTS.SAME_RECORD.HEAD$ = ADDR(NIL) THEN
     1346    11525    2         SUBSTR( OBUF,20,3 ) = 'Nil';
     1347    11526    2       ELSE
     1348    11527    2         CALL X8CO$CONV_TO_OCTAL( P$-> FILE_LTS.SAME_RECORD.HEAD$,
     1349    11528    2                                  SUBSTR( OBUF, 20, 12 ) );
     1350    11529
     1351    11530    2       IF P$-> FILE_LTS.SAME_RECORD.LINK = ADDR(NIL) THEN
     1352    11531    2         SUBSTR( OBUF, 40, 3 ) = 'Nil';
     1353    11532    2       ELSE
     1354    11533    2         CALL X8CO$CONV_TO_OCTAL( P$-> FILE_LTS.SAME_RECORD.LINK,
PL6.E3A0      #003=Z8JT$ONLINE_TABLE_DUMP File=Z8JT.:Z8A6TSI                     SAT 08/09/97 13:36 Page:192
     1355    11534    2                                  SUBSTR( OBUF, 40, 12 ) );
     1356    11535    2       CALL Z9AL$DUMP_LINE;
     1357    11536
     1358    11537    2       OBUF = 'Same_Area:';
     1359    11538    2       IF P$-> FILE_LTS.SAME_AREA.HEAD$ = ADDR(NIL) THEN
     1360    11539    2         SUBSTR( OBUF,20,3 ) = 'Nil';
     1361    11540    2       ELSE
     1362    11541    2         CALL X8CO$CONV_TO_OCTAL( P$-> FILE_LTS.SAME_AREA.HEAD$,
     1363    11542    2                                  SUBSTR( OBUF, 20, 12 ) );
     1364    11543
     1365    11544    2       IF P$-> FILE_LTS.SAME_AREA.LINK = ADDR(NIL) THEN
     1366    11545    2         SUBSTR( OBUF, 40, 3 ) = 'Nil';
     1367    11546    2       ELSE
     1368    11547    2         CALL X8CO$CONV_TO_OCTAL( P$-> FILE_LTS.SAME_AREA.LINK,
     1369    11548    2                                  SUBSTR( OBUF, 40, 12 ) );
     1370    11549    2       CALL Z9AL$DUMP_LINE;
     1371    11550
     1372    11551    2       OBUF = 'Mult_Tape:';
     1373    11552    2       IF P$-> FILE_LTS.MULT_TAPE.HEAD$ = ADDR(NIL) THEN
     1374    11553    2         SUBSTR( OBUF,20,3 ) = 'Nil';
     1375    11554    2       ELSE
     1376    11555    2         CALL X8CO$CONV_TO_OCTAL( P$-> FILE_LTS.MULT_TAPE.HEAD$,
     1377    11556    2                                  SUBSTR( OBUF, 20, 12 ) );
     1378    11557
     1379    11558    2       IF P$-> FILE_LTS.MULT_TAPE.LINK = ADDR(NIL) THEN
     1380    11559    2         SUBSTR( OBUF, 60, 3 ) = 'Nil';
     1381    11560    2       ELSE
     1382    11561    2         CALL X8CO$CONV_TO_OCTAL( P$-> FILE_LTS.MULT_TAPE.LINK,
     1383    11562    2                                  SUBSTR( OBUF, 40, 12 ) );
     1384    11563    2       CALL Z9AL$DUMP_LINE;
     1385    11564
     1386    11565    2     END DUMP_FILE_LTS_ONLINE;
     1387    11566        %EJECT;
PL6.E3A0      #003=Z8JT$ONLINE_TABLE_DUMP File=Z8JT.:Z8A6TSI                     SAT 08/09/97 13:36 Page:193
     1388    11567    1     DUMP_QLT_ONLINE: PROC;
     1389    11568
     1390    11569    2       OBUF = '          QLT  Item';
     1391    11570    2       CALL Z9AL$DUMP_LINE;
     1392    11571    2       OBUF = '          ---  ----';
     1393    11572    2       CALL Z9AL$DUMP_LINE;
     1394    11573
     1395    11574    2       OBUF = 'ID:';
     1396    11575    2       SUBSTR( OBUF,20,8 ) = NAMES( P$-> QLT.ID );
     1397    11576    2       CALL Z9AL$DUMP_LINE;
     1398    11577
     1399    11578    2       OBUF = 'Bits:';
     1400    11579    2       CALL Z9AL$DUMP_LINE;
     1401    11580    2       OBUF = '      Occurs:';
     1402    11581    2       IF P$-> QLT.B.OCCURS THEN
     1403    11582    2         SUBSTR( OBUF,20,2 ) = 'On';
     1404    11583    2       ELSE
     1405    11584    2         SUBSTR( OBUF,20,3 ) = 'Off';
     1406    11585    2       CALL Z9AL$DUMP_LINE;
     1407    11586
     1408    11587    2       OBUF = '      Sync:';
     1409    11588    2       IF P$-> QLT.B.SYNC THEN
     1410    11589    2         SUBSTR( OBUF,20,2 ) = 'On';
     1411    11590    2       ELSE
     1412    11591    2         SUBSTR( OBUF,20,3 ) = 'Off';
     1413    11592    2       CALL Z9AL$DUMP_LINE;
     1414    11593
     1415    11594    2       OBUF = '      Digit:';
     1416    11595    2       IF P$-> QLT.B.DIGIT THEN
     1417    11596    2         SUBSTR( OBUF,20,2 ) = 'On';
     1418    11597    2       ELSE
     1419    11598    2         SUBSTR( OBUF,20,3 ) = 'Off';
     1420    11599    2       CALL Z9AL$DUMP_LINE;
     1421    11600
     1422    11601    2       OBUF = '      Renames:';
     1423    11602    2       IF P$-> QLT.B.RENAMES THEN
     1424    11603    2         SUBSTR ( OBUF,20,2 ) = 'On';
PL6.E3A0      #003=Z8JT$ONLINE_TABLE_DUMP File=Z8JT.:Z8A6TSI                     SAT 08/09/97 13:36 Page:194
     1425    11604    2       ELSE
     1426    11605    2         SUBSTR( OBUF,20,3 ) = 'Off';
     1427    11606    2       CALL Z9AL$DUMP_LINE;
     1428    11607
     1429    11608    2       OBUF = ' ';
     1430    11609    2       CALL Z9AL$DUMP_LINE;
     1431    11610
     1432    11611
     1433    11612    2       OBUF = 'Level:';
     1434    11613    2       CALL X8CO$CONV_TO_DECIMAL( BINBIT( P$->QLT.LEVEL_NO,36 ), SUBSTR( OBUF,20,13 ));
     1435    11614    2       CALL Z9AL$DUMP_LINE;
     1436    11615
     1437    11616    2       OBUF = 'Name:';
     1438    11617    2       SUBSTR( OBUF,20,P$-> QLT.DNT$-> DNT.TEXT.LENGTH ) =
     1439    11618    2             P$-> QLT.DNT$-> DNT.TEXT.NAME ;
     1440    11619    2       CALL Z9AL$DUMP_LINE;
     1441    11620
     1442    11621    2       OBUF = 'Father:';
     1443    11622    2       IF P$-> QLT.FATHER ~= ADDR(NIL) THEN
     1444    11623    3         DO;
     1445    11624    3           CALL X8CO$CONV_TO_OCTAL( P$-> QLT.FATHER, SUBSTR( OBUF,20,12 ));
     1446    11625    3           SUBSTR( OBUF,35,P$-> QLT.FATHER-> QLT.DNT$-> DNT.TEXT.LENGTH ) =
     1447    11626    3                 P$-> QLT.FATHER-> QLT.DNT$-> DNT.TEXT.NAME  ;
     1448    11627    3         END;
     1449    11628    2       ELSE
     1450    11629    2         SUBSTR( OBUF,20,3 ) = 'Nil';
     1451    11630    2       CALL Z9AL$DUMP_LINE;
     1452    11631
     1453    11632    2       OBUF = 'Brother:';
     1454    11633    2       IF P$-> QLT.BROTHER ~= ADDR(NIL) THEN
     1455    11634    3         DO;
     1456    11635    3           CALL X8CO$CONV_TO_OCTAL( P$-> QLT.BROTHER, SUBSTR( OBUF,20,12 ));
     1457    11636    3           SUBSTR( OBUF,35,P$-> QLT.BROTHER-> QLT.DNT$-> DNT.TEXT.LENGTH ) =
     1458    11637    3                 P$-> QLT.BROTHER-> QLT.DNT$-> DNT.TEXT.NAME  ;
     1459    11638    3         END;
     1460    11639    2       ELSE
     1461    11640    2         SUBSTR( OBUF,20,3 ) = 'Nil' ;
PL6.E3A0      #003=Z8JT$ONLINE_TABLE_DUMP File=Z8JT.:Z8A6TSI                     SAT 08/09/97 13:36 Page:195
     1462    11641    2       CALL Z9AL$DUMP_LINE;
     1463    11642
     1464    11643    2       OBUF = 'Son:';
     1465    11644    2       IF P$-> QLT.SON ~= ADDR(NIL) THEN
     1466    11645    3         DO;
     1467    11646    3           CALL X8CO$CONV_TO_OCTAL( P$-> QLT.SON, SUBSTR( OBUF,20,12 ));
     1468    11647    3           SUBSTR( OBUF,35,P$-> QLT.SON-> QLT.DNT$-> DNT.TEXT.LENGTH ) =
     1469    11648    3                 P$-> QLT.SON-> QLT.DNT$-> DNT.TEXT.NAME ;
     1470    11649    3         END;
     1471    11650    2       ELSE
     1472    11651    2         SUBSTR( OBUF,20,3 ) = 'Nil';
     1473    11652    2       CALL Z9AL$DUMP_LINE;
     1474    11653
     1475    11654    2       OBUF = 'St$:';
     1476    11655    2       IF P$-> QLT.ST$ ~= ADDR(NIL) THEN
     1477    11656    2         CALL X8CO$CONV_TO_OCTAL( P$-> QLT.ST$, SUBSTR( OBUF,20,12 ));
     1478    11657    2       ELSE
     1479    11658    2         SUBSTR( OBUF,20,3 ) = 'Nil';
     1480    11659    2       CALL Z9AL$DUMP_LINE;
     1481    11660
     1482    11661    2     END DUMP_QLT_ONLINE;
     1483    11662        %EJECT;
PL6.E3A0      #003=Z8JT$ONLINE_TABLE_DUMP File=Z8JT.:Z8A6TSI                     SAT 08/09/97 13:36 Page:196
     1484    11663    1     DUMP_LCNST_ONLINE:  PROC;
     1485    11664
     1486    11665    2       DCL NO_OF_WRITES   SBIN   WORD;
     1487    11666    2       DCL I              SBIN   WORD;
     1488    11667    2       DCL REMAIN_LEN     SBIN   WORD;
     1489    11668    2       OBUF = 'Character data?';
     1490    11669    2       CALL Z9AL$WRITE_TERMINAL;
     1491    11670    2       OBUF = ' ';
     1492    11671    2       CALL Z9AL$READ_TERMINAL;
     1493    11672    2       IF SUBSTR( INBUF,0,1 ) = 'Y' THEN
     1494    11673    3         DO;
     1495    11674    3           REMAIN_LEN =    (P$->LCNST.N - 1) * 4;
     1496    11675    3           NO_OF_WRITES =  (REMAIN_LEN + 49) / 50;
     1497    11676    4           DO I = 1 TO NO_OF_WRITES;
     1498    11677    4             IF REMAIN_LEN > 49 THEN
     1499    11678    4               SUBSTR( OBUF,10,50 ) = SUBSTR( P$->LCNST.CONST,50 * (I-1),50);
     1500    11679    4             ELSE
     1501    11680    4               SUBSTR( OBUF,10,REMAIN_LEN ) =
     1502    11681    4                     SUBSTR( P$->LCNST.CONST, 50 * (I-1), REMAIN_LEN );
     1503    11682    4             REMAIN_LEN = REMAIN_LEN - 50;
     1504    11683    4             CALL Z9AL$DUMP_LINE;
     1505    11684    4           END;
     1506    11685    3         END;
     1507    11686    2       ELSE
     1508    11687    2           CALL Z8JT$DUMP_ITEM( P$, P$->LCNST.N );  /*  Octal dump of constant */
     1509    11688    2     END DUMP_LCNST_ONLINE;
     1510    11689    1   END Z8JT$ONLINE_TABLE_DUMP;  /* proc */
     1511    11690        %EJECT;
PL6.E3A0      #003=Z8JT$ONLINE_TABLE_DUMP File=Z8JT.:Z8A6TSI                     SAT 08/09/97 13:36 Page:197

PL6.E3A0      #003=Z8JT$ONLINE_TABLE_DUMP File=Z8JT.:Z8A6TSI                     SAT 08/09/97 13:36 Page:198
--  Include file information  --

   Z8A_IO_EQUS.:Z8A6TOU  is referenced.
   Z8A_ST.:Z8A6TOU  cannot be made into a system file and is referenced.
   Z8A_QLT.:Z8A6TOU  cannot be made into a system file and is referenced.
   Z8A_OBJ.:Z8A6TOU  cannot be made into a system file and is referenced.
   Z8A_LTS.:Z8A6TOU  cannot be made into a system file and is referenced.
   Z8A_ILS.:Z8A6TOU  cannot be made into a system file and is referenced.
   Z8A_ILL.:Z8A6TOU  cannot be made into a system file and is referenced.
   Z8A_GST.:Z8A6TOU  cannot be made into a system file and is referenced.
   Z8A_ETT.:Z8A6TOU  cannot be made into a system file and is referenced.
   Z8A_ERR.:Z8A6TOU  cannot be made into a system file and is referenced.
   Z8A_DPI.:Z8A6TOU  cannot be made into a system file and is referenced.
   Z8A_DNT.:Z8A6TOU  cannot be made into a system file and is referenced.
   Z8A_COMCOM.:Z8A6TOU  cannot be made into a system file and is referenced.
   X8A_COM_MACS.:X8A6TOU  is referenced.
   Z8A_NAMES.:Z8A6TOU  cannot be made into a system file and is referenced.
   Z8A_SUPP_MAC.:Z8A6TOU  is referenced.
   Z8A_DEFC.:Z8A6TOU  cannot be made into a system file and is referenced.
      No diagnostics issued in procedure Z8JT$ONLINE_TABLE_DUMP.

   Procedure Z8JT$ONLINE_TABLE_DUMP requires 1328 words for executable code.
   Procedure Z8JT$ONLINE_TABLE_DUMP requires 14 words of local(AUTO) storage.

    No errors detected in file Z8JT.:Z8A6TSI    .

PL6.E3A0      #003=Z8JT$ONLINE_TABLE_DUMP File=Z8JT.:Z8A6TSI                     SAT 08/09/97 13:36 Page:199

 Object Unit name= Z8JT$ONLINE_TABLE_DUMP                     File name= Z8JT.:Z8A6TOU
 UTS= AUG 09 '97 13:36:06.12 SAT                              Compiler= PL-6/E31         Sev=      00
 SharedLib= :SHARED_SYSTEM                                    Alt SharedLib=


    ****  Control sections  ****

 Sect   Type Bound  Init  Size OctSiz  Section name(segment info)
    0  LblCom even  none     1      1  ITERATION
    1  LblCom even  none     1      1  DNT$
    2  LblCom even  none     5      5  DNT_
    3  LblCom even  none     1      1  DNT_BUCKET_NUMBER
    4  LblCom even  none     1      1  DNT_OF_1$
    5  LblCom even  none     1      1  DPI$
    6  LblCom even  none     5      5  DPI_
    7  LblCom even  none     1      1  ERR$
    8  LblCom even  none     1      1  ERR_HEAD
    9  LblCom even  none     1      1  ERR_TAIL
   10  LblCom even  none     1      1  MAX_ERROR_GENERATED
   11  LblCom even  none     5      5  ERR_
   12  LblCom even  none     1      1  ETT$
   13  LblCom even  none     1      1  HEAD_ETT$
   14  LblCom even  none   512   1000  ETT_BUCKETS
   15  LblCom even  none     5      5  ETT_
   16  LblCom even  none     1      1  GST$
   17  LblCom even  none     5      5  GST_
   18  LblCom even  none     1      1  ILL$
   19  LblCom even  none     5      5  ILL_
   20  LblCom even  none     1      1  ILS$
   21  LblCom even  none     5      5  ILS_
   22  LblCom even  none     1      1  LTS$
   23  LblCom even  none     5      5  LTS_
   24  LblCom even  none     1      1  OBJ$
   25  LblCom even  none     1      1  PAGING_OBJ
   26  LblCom even  none     1      1  OBJ_PAGE_COUNT
   27  LblCom even  none     1      1  OBJ_FINISHED
   28  LblCom even  none     1      1  OBJ_SEG_SIZE
PL6.E3A0      #003=Z8JT$ONLINE_TABLE_DUMP File=Z8JT.:Z8A6TSI                     SAT 08/09/97 13:36 Page:200
   29  LblCom even  none     1      1  OBJ_TOP_NEW_SEG
   30  LblCom even  none     1      1  OBJ_LAST_REGULAR_PAGE
   31  LblCom even  none     5      5  OBJ_
   32  LblCom even  none     1      1  QLT$
   33  LblCom even  none     1      1  PREV_01_QLT$
   34  LblCom even  none     5      5  QLT_
   35  LblCom even  none     1      1  ST$
   36  LblCom even  none     5      5  ST_
   37  LblCom even  none    20     24  INBUF
   38  LblCom even  none    30     36  OBUF
   39  RoData even  UTS    204    314  Z8JT$ONLINE_TABLE_DUMP
   40   Proc  even  none  1328   2460  Z8JT$ONLINE_TABLE_DUMP
   41  RoData even  none    11     13  Z8JT$ONLINE_TABLE_DUMP

    ****  Entry defs  ****

                              Check   Calling
                             calling  sequence
  Sect OctLoc Primary Altret sequence   type   Parms  Name
    40      0   yes            yes      Std        1  Z8JT$ONLINE_TABLE_DUMP

  ****  Entry refs  ****

         Check        Calling
        calling       sequence
Altret sequence SRef   type   Args  Name
         yes           Std       2 Z8JT$DUMP_ITEM
         yes           Std       0 Z9AL$DUMP_LINE
         yes           Std       0 Z9AL$WRITE_BLANK_LINE
         yes           Std       2 X8CO$CONV_TO_OCTAL
         yes           Std       2 X8CO$CONV_TO_DECIMAL
         yes           Std       0 Z9AL$WRITE_TERMINAL
         yes           Std       0 Z9AL$READ_TERMINAL
                       nStd      0 X66_AUTO_1
                       nStd      0 X66_ARET
PL6.E3A0      #003=Z8JT$ONLINE_TABLE_DUMP File=Z8JT.:Z8A6TSI                     SAT 08/09/97 13:36 Page:201

  ****  Data refs  ****

  Flags:  r = read only, s = secondary
Flgs Name                             Flgs Name                             Flgs Name
r    NAMES                                 COMCOM                           r    ILL_STEP
r    ILS_STEP_TABLE                   r    LTS_STEP                         r    OBJ_STEP

  ****  Segment refs  ****

  Flags:  r = read only, s = secondary
Flgs Name                             Flgs Name                             Flgs Name
     NULLSID                               ISSID
PL6.E3A0      #003=Z8JT$ONLINE_TABLE_DUMP File=Z8JT.:Z8A6TSI                     SAT 08/09/97 13:36 Page:202


      924        1        /*T***********************************************************/
      925        2        /*T*                                                         */
      926        3        /*T* Copyright (c) Bull HN Information Systems Inc., 1997    */
      927        4        /*T*                                                         */
      928        5        /*T***********************************************************/
      929        6
      930        7        /*----------------------*/
      931        8          Z8JT$ONLINE_TABLE_DUMP:     PROC (P$);

      8 40 000000   000000 700200 xent  Z8JT$ONLINE* TSX0  ! X66_AUTO_1
        40 000001   000016 000001                    ZERO    14,1

      932        9        /*----------------------*/
      933       10
      934       11            %EQU  PHASE = 6;
      935       12            %INCLUDE Z8A_DEFC;
      936       80            %INCLUDE Z8A_SUPP_MAC;
      937     2480            %INCLUDE Z8A_COMCOM;
      938     3130            %INCLUDE Z8A_DNT;
      939     3351            %INCLUDE Z8A_DPI ;
      940     3435            %INCLUDE Z8A_ERR;
      941     3504            %INCLUDE Z8A_ETT;
      942     3805            %INCLUDE Z8A_GST;
      943     3865            %INCLUDE Z8A_ILL;
      944     4558            %INCLUDE Z8A_ILS;
      945     4667            %INCLUDE Z8A_LTS;
      946     6744            %INCLUDE Z8A_OBJ;
      947     7241            %INCLUDE Z8A_QLT;
      948     7347            %INCLUDE Z8A_ST;
      949    11006            %INCLUDE Z8A_IO_EQUS;
      950    11129
      951    11130            %EQU LINE1 = 7;
      952    11131            %EQU LINE2 = 14;
      953    11132        %EJECT;
PL6.E3A0      #003=Z8JT$ONLINE_TABLE_DUMP File=Z8JT.:Z8A6TSI                     SAT 08/09/97 13:36 Page:203
      954    11133    1       DCL P$             PTR;
      955    11134    1       DCL INBUF          CHAR(80) EXT;
      956    11135    1       DCL OBUF           CHAR(120) EXT;
      957    11136    1       DCL LENGTH         SBIN WORD;
      958    11137
      959    11138    1       DCL Z9AL$WRITE_TERMINAL          ENTRY;
      960    11139    1       DCL Z8JT$DUMP_ITEM               ENTRY(2);
      961    11140    1       DCL Z9AL$DUMP_LINE               ENTRY;
      962    11141    1       DCL Z9AL$WRITE_BLANK_LINE        ENTRY;
      963    11142    1       DCL Z9AL$READ_TERMINAL           ENTRY;
      964    11143    1       DCL X8CO$CONV_TO_OCTAL           ENTRY(2);
      965    11144    1       DCL X8CO$CONV_TO_OCTAL_HALF      ENTRY(2);
      966    11145    1       DCL X8CO$CONV_TO_DECIMAL         ENTRY(2);
      967    11146        %EJECT;
PL6.E3A0      #003=Z8JT$ONLINE_TABLE_DUMP File=Z8JT.:Z8A6TSI                     SAT 08/09/97 13:36 Page:204
      968    11147        /*
      969    11148                   ETT  items
      970    11149        */
      971    11150    1       IF  P$-> CONT.ID >= %FIRST_ETT

  11150 40 000002   200003 470500                    LDP0    @P$,,AUTO
        40 000003   000000 471500                    LDP1    0,,PR0
        40 000004   100000 220100                    LDX0    0,,PR1
        40 000005   000023 600000 40                 TZE     s:11161
        40 000006   000202 100003                    CMPX0   130,DU
        40 000007   000023 603000 40                 TRC     s:11161

      972    11151    1       AND P$-> CONT.ID <= %LAST_ETT THEN
      973    11152    2         DO;

      974    11153    2           LENGTH = SIZEW(ETT);

  11153 40 000010   000005 235007                    LDA     5,DL
        40 000011   200004 755100                    STA     LENGTH,,AUTO

      975    11154    2           CALL Z8JT$DUMP_ITEM(P$, LENGTH );

  11154 40 000012   200004 631500                    EPPR1   LENGTH,,AUTO
        40 000013   200013 451500                    STP1    REMAIN_LEN+2,,AUTO
        40 000014   200003 236100                    LDQ     @P$,,AUTO
        40 000015   200012 756100                    STQ     REMAIN_LEN+1,,AUTO
        40 000016   200012 630500                    EPPR0   REMAIN_LEN+1,,AUTO
        40 000017   000001 631400 41                 EPPR1   1
        40 000020   000000 701000 xent               TSX1    Z8JT$DUMP_ITEM
        40 000021   000000 011000                    NOP     0

      976    11155    2           RETURN;

  11155 40 000022   000000 702200 xent               TSX2  ! X66_ARET

      977    11156    2         END;
      978    11157
PL6.E3A0      #003=Z8JT$ONLINE_TABLE_DUMP File=Z8JT.:Z8A6TSI                     SAT 08/09/97 13:36 Page:205
      979    11158        /*
      980    11159                   ILL items
      981    11160        */
      982    11161    1       IF  P$-> CONT.ID >= %FIRST_ILL

  11161 40 000023   000226 100003                    CMPX0   150,DU
        40 000024   000042 602000 40                 TNC     s:11172
        40 000025   000447 100003                    CMPX0   295,DU
        40 000026   000042 603000 40                 TRC     s:11172

      983    11162    1       AND P$-> CONT.ID <= %LAST_ILL THEN
      984    11163    2         DO;

      985    11164    2           LENGTH = ILL_STEP( P$-> ILL.ID - %FIRST_ILL );

  11164 40 000027   777552 235010 xsym               LDA     ILL_STEP-150,X0
        40 000030   200004 755100                    STA     LENGTH,,AUTO

      986    11165    2           CALL Z8JT$DUMP_ITEM(P$, LENGTH );

  11165 40 000031   200004 631500                    EPPR1   LENGTH,,AUTO
        40 000032   200013 451500                    STP1    REMAIN_LEN+2,,AUTO
        40 000033   200003 236100                    LDQ     @P$,,AUTO
        40 000034   200012 756100                    STQ     REMAIN_LEN+1,,AUTO
        40 000035   200012 630500                    EPPR0   REMAIN_LEN+1,,AUTO
        40 000036   000001 631400 41                 EPPR1   1
        40 000037   000000 701000 xent               TSX1    Z8JT$DUMP_ITEM
        40 000040   000000 011000                    NOP     0

      987    11166    2           RETURN;

  11166 40 000041   000000 702200 xent               TSX2  ! X66_ARET

      988    11167    2         END;
      989    11168
      990    11169        /*
      991    11170                   ST items
PL6.E3A0      #003=Z8JT$ONLINE_TABLE_DUMP File=Z8JT.:Z8A6TSI                     SAT 08/09/97 13:36 Page:206
      992    11171        */
      993    11172    1       IF  P$-> CONT.ID >= %FIRST_ST

  11172 40 000042   000751 100003                    CMPX0   489,DU
        40 000043   000061 602000 40                 TNC     s:11183
        40 000044   001010 100003                    CMPX0   520,DU
        40 000045   000061 603000 40                 TRC     s:11183

      994    11173    1       AND P$-> CONT.ID <= %LAST_ST THEN
      995    11174    2         DO;

      996    11175    2           LENGTH = SIZEW(ST);

  11175 40 000046   000013 235007                    LDA     11,DL
        40 000047   200004 755100                    STA     LENGTH,,AUTO

      997    11176    2           CALL Z8JT$DUMP_ITEM(P$, LENGTH );

  11176 40 000050   200004 631500                    EPPR1   LENGTH,,AUTO
        40 000051   200013 451500                    STP1    REMAIN_LEN+2,,AUTO
        40 000052   200003 236100                    LDQ     @P$,,AUTO
        40 000053   200012 756100                    STQ     REMAIN_LEN+1,,AUTO
        40 000054   200012 630500                    EPPR0   REMAIN_LEN+1,,AUTO
        40 000055   000001 631400 41                 EPPR1   1
        40 000056   000000 701000 xent               TSX1    Z8JT$DUMP_ITEM
        40 000057   000000 011000                    NOP     0

      998    11177    2           RETURN;

  11177 40 000060   000000 702200 xent               TSX2  ! X66_ARET

      999    11178    2         END;
     1000    11179        %EJECT;
PL6.E3A0      #003=Z8JT$ONLINE_TABLE_DUMP File=Z8JT.:Z8A6TSI                     SAT 08/09/97 13:36 Page:207
     1001    11180        /*
     1002    11181                   ILS  items
     1003    11182        */
     1004    11183    1       IF  P$-> CONT.ID >= %FIRST_ILS

  11183 40 000061   000740 100003                    CMPX0   480,DU
        40 000062   000100 602000 40                 TNC     s:11194
        40 000063   000743 100003                    CMPX0   483,DU
        40 000064   000100 603000 40                 TRC     s:11194

     1005    11184    1       AND P$-> CONT.ID <= %LAST_ILS THEN
     1006    11185    2         DO;

     1007    11186    2           LENGTH = ILS_STEP_TABLE( P$-> ILS.ID - %FIRST_ILS );

  11186 40 000065   777040 235010 xsym               LDA     ILS_STEP_TABLE-480,X0
        40 000066   200004 755100                    STA     LENGTH,,AUTO

     1008    11187    2           CALL Z8JT$DUMP_ITEM(P$, LENGTH );

  11187 40 000067   200004 631500                    EPPR1   LENGTH,,AUTO
        40 000070   200013 451500                    STP1    REMAIN_LEN+2,,AUTO
        40 000071   200003 236100                    LDQ     @P$,,AUTO
        40 000072   200012 756100                    STQ     REMAIN_LEN+1,,AUTO
        40 000073   200012 630500                    EPPR0   REMAIN_LEN+1,,AUTO
        40 000074   000001 631400 41                 EPPR1   1
        40 000075   000000 701000 xent               TSX1    Z8JT$DUMP_ITEM
        40 000076   000000 011000                    NOP     0

     1009    11188    2           RETURN;

  11188 40 000077   000000 702200 xent               TSX2  ! X66_ARET

     1010    11189    2         END;
     1011    11190
     1012    11191        /*
     1013    11192                    ERR  items
PL6.E3A0      #003=Z8JT$ONLINE_TABLE_DUMP File=Z8JT.:Z8A6TSI                     SAT 08/09/97 13:36 Page:208
     1014    11193        */
     1015    11194    1       IF  P$-> CONT.ID >= %FIRST_ERR

  11194 40 000100   000750 100003                    CMPX0   488,DU
        40 000101   000120 602000 40                 TNC     s:11205
        40 000102   000751 100003                    CMPX0   489,DU
        40 000103   000120 603000 40                 TRC     s:11205

     1016    11195    1       AND P$-> CONT.ID <= %LAST_ERR THEN
     1017    11196    2         DO;

     1018    11197    2           LENGTH = P$-> ERR.N;

  11197 40 000104   100000 236100                    LDQ     0,,PR1
        40 000105   777777 376007                    ANQ     -1,DL
        40 000106   200004 756100                    STQ     LENGTH,,AUTO

     1019    11198    2           CALL Z8JT$DUMP_ITEM( P$ , LENGTH );

  11198 40 000107   200004 631500                    EPPR1   LENGTH,,AUTO
        40 000110   200013 451500                    STP1    REMAIN_LEN+2,,AUTO
        40 000111   200003 236100                    LDQ     @P$,,AUTO
        40 000112   200012 756100                    STQ     REMAIN_LEN+1,,AUTO
        40 000113   200012 630500                    EPPR0   REMAIN_LEN+1,,AUTO
        40 000114   000001 631400 41                 EPPR1   1
        40 000115   000000 701000 xent               TSX1    Z8JT$DUMP_ITEM
        40 000116   000000 011000                    NOP     0

     1020    11199    2           RETURN;

  11199 40 000117   000000 702200 xent               TSX2  ! X66_ARET

     1021    11200    2         END;
     1022    11201
     1023    11202        /*
     1024    11203                    DNT  items
     1025    11204        */
PL6.E3A0      #003=Z8JT$ONLINE_TABLE_DUMP File=Z8JT.:Z8A6TSI                     SAT 08/09/97 13:36 Page:209
     1026    11205    1       IF  P$-> CONT.ID >= %FIRST_DNT

  11205 40 000120   001046 100003                    CMPX0   550,DU
        40 000121   000140 602000 40                 TNC     s:11216
        40 000122   001047 100003                    CMPX0   551,DU
        40 000123   000140 603000 40                 TRC     s:11216

     1027    11206    1       AND P$-> CONT.ID <= %LAST_DNT THEN
     1028    11207    2         DO;

     1029    11208    2           LENGTH = P$-> DNT.N;

  11208 40 000124   100000 236100                    LDQ     0,,PR1
        40 000125   777777 376007                    ANQ     -1,DL
        40 000126   200004 756100                    STQ     LENGTH,,AUTO

     1030    11209    2           CALL Z8JT$DUMP_ITEM( P$ , LENGTH );

  11209 40 000127   200004 631500                    EPPR1   LENGTH,,AUTO
        40 000130   200013 451500                    STP1    REMAIN_LEN+2,,AUTO
        40 000131   200003 236100                    LDQ     @P$,,AUTO
        40 000132   200012 756100                    STQ     REMAIN_LEN+1,,AUTO
        40 000133   200012 630500                    EPPR0   REMAIN_LEN+1,,AUTO
        40 000134   000001 631400 41                 EPPR1   1
        40 000135   000000 701000 xent               TSX1    Z8JT$DUMP_ITEM
        40 000136   000000 011000                    NOP     0

     1031    11210    2           RETURN;

  11210 40 000137   000000 702200 xent               TSX2  ! X66_ARET

     1032    11211    2         END;
     1033    11212        %EJECT;
PL6.E3A0      #003=Z8JT$ONLINE_TABLE_DUMP File=Z8JT.:Z8A6TSI                     SAT 08/09/97 13:36 Page:210
     1034    11213        /*
     1035    11214                    OBJ  items
     1036    11215        */
     1037    11216    1       IF  P$-> CONT.ID >= %FIRST_OBJ

  11216 40 000140   001010 100003                    CMPX0   520,DU
        40 000141   000157 602000 40                 TNC     s:11227
        40 000142   001015 100003                    CMPX0   525,DU
        40 000143   000157 603000 40                 TRC     s:11227

     1038    11217    1       AND P$-> CONT.ID <= %LAST_OBJ THEN
     1039    11218    2         DO;

     1040    11219    2           LENGTH = OBJ_STEP( P$-> OBJ.ID - %FIRST_OBJ );

  11219 40 000144   776770 235010 xsym               LDA     OBJ_STEP-520,X0
        40 000145   200004 755100                    STA     LENGTH,,AUTO

     1041    11220    2           CALL Z8JT$DUMP_ITEM( P$ , LENGTH );

  11220 40 000146   200004 631500                    EPPR1   LENGTH,,AUTO
        40 000147   200013 451500                    STP1    REMAIN_LEN+2,,AUTO
        40 000150   200003 236100                    LDQ     @P$,,AUTO
        40 000151   200012 756100                    STQ     REMAIN_LEN+1,,AUTO
        40 000152   200012 630500                    EPPR0   REMAIN_LEN+1,,AUTO
        40 000153   000001 631400 41                 EPPR1   1
        40 000154   000000 701000 xent               TSX1    Z8JT$DUMP_ITEM
        40 000155   000000 011000                    NOP     0

     1042    11221    2           RETURN;

  11221 40 000156   000000 702200 xent               TSX2  ! X66_ARET

     1043    11222    2         END;
     1044    11223
     1045    11224        /*
     1046    11225                    GST  items
PL6.E3A0      #003=Z8JT$ONLINE_TABLE_DUMP File=Z8JT.:Z8A6TSI                     SAT 08/09/97 13:36 Page:211
     1047    11226        */
     1048    11227    1       IF  P$-> CONT.ID >= %FIRST_GST

  11227 40 000157   001055 100003                    CMPX0   557,DU
        40 000160   000176 602000 40                 TNC     s:11238
        40 000161   001056 100003                    CMPX0   558,DU
        40 000162   000176 603000 40                 TRC     s:11238

     1049    11228    1       AND P$-> CONT.ID <= %LAST_GST THEN
     1050    11229    2         DO;

     1051    11230    2           LENGTH = %GSA_SIZE;

  11230 40 000163   000003 235007                    LDA     3,DL
        40 000164   200004 755100                    STA     LENGTH,,AUTO

     1052    11231    2           CALL Z8JT$DUMP_ITEM( P$ , LENGTH );

  11231 40 000165   200004 631500                    EPPR1   LENGTH,,AUTO
        40 000166   200013 451500                    STP1    REMAIN_LEN+2,,AUTO
        40 000167   200003 236100                    LDQ     @P$,,AUTO
        40 000170   200012 756100                    STQ     REMAIN_LEN+1,,AUTO
        40 000171   200012 630500                    EPPR0   REMAIN_LEN+1,,AUTO
        40 000172   000001 631400 41                 EPPR1   1
        40 000173   000000 701000 xent               TSX1    Z8JT$DUMP_ITEM
        40 000174   000000 011000                    NOP     0

     1053    11232    2           RETURN;

  11232 40 000175   000000 702200 xent               TSX2  ! X66_ARET

     1054    11233    2         END;
     1055    11234
     1056    11235        /*
     1057    11236                    QLT  items
     1058    11237        */
     1059    11238    1       IF  P$-> CONT.ID >= %FIRST_QLT
PL6.E3A0      #003=Z8JT$ONLINE_TABLE_DUMP File=Z8JT.:Z8A6TSI                     SAT 08/09/97 13:36 Page:212

  11238 40 000176   001053 100003                    CMPX0   555,DU
        40 000177   000205 602000 40                 TNC     s:11248
        40 000200   001054 100003                    CMPX0   556,DU
        40 000201   000205 603000 40                 TRC     s:11248

     1060    11239    1       AND P$-> CONT.ID <= %LAST_QLT THEN
     1061    11240    2         DO;

     1062    11241    2           CALL DUMP_QLT_ONLINE;

  11241 40 000202   001751 701000 40                 TSX1    DUMP_QLT_ONLINE
        40 000203   000000 011000                    NOP     0

     1063    11242    2           RETURN;

  11242 40 000204   000000 702200 xent               TSX2  ! X66_ARET

     1064    11243    2         END;
     1065    11244        %EJECT;
PL6.E3A0      #003=Z8JT$ONLINE_TABLE_DUMP File=Z8JT.:Z8A6TSI                     SAT 08/09/97 13:36 Page:213
     1066    11245        /*
     1067    11246                    LTS  items
     1068    11247        */
     1069    11248    1       IF  P$-> CONT.ID >= %FIRST_LTS

  11248 40 000205   001062 100003                    CMPX0   562,DU
        40 000206   000261 602000 40                 TNC     s:11271
        40 000207   001130 100003                    CMPX0   600,DU
        40 000210   000261 603000 40                 TRC     s:11271

     1070    11249    1       AND P$-> CONT.ID <= %LAST_LTS THEN
     1071    11250    2         DO;

     1072    11251    3           DO CASE ( P$-> LTS.ID );

  11251 40 000211   100000 236100                    LDQ     0,,PR1
        40 000212   000022 772000                    QRL     18
        40 000213   001106 136007                    SBLQ    582,DL
        40 000214   000014 116007                    CMPQ    12,DL
        40 000215   000217 602006 40                 TNC     s:11251+6,QL
        40 000216   000241 710000 40                 TRA     s:11260
        40 000217   000233 710000 40                 TRA     s:11254
        40 000220   000241 710000 40                 TRA     s:11260
        40 000221   000241 710000 40                 TRA     s:11260
        40 000222   000241 710000 40                 TRA     s:11260
        40 000223   000241 710000 40                 TRA     s:11260
        40 000224   000241 710000 40                 TRA     s:11260
        40 000225   000241 710000 40                 TRA     s:11260
        40 000226   000241 710000 40                 TRA     s:11260
        40 000227   000241 710000 40                 TRA     s:11260
        40 000230   000241 710000 40                 TRA     s:11260
        40 000231   000241 710000 40                 TRA     s:11260
        40 000232   000236 710000 40                 TRA     s:11257

     1073    11252
     1074    11253    3             CASE( %LCNST );

PL6.E3A0      #003=Z8JT$ONLINE_TABLE_DUMP File=Z8JT.:Z8A6TSI                     SAT 08/09/97 13:36 Page:214
     1075    11254    3               CALL DUMP_LCNST_ONLINE;

  11254 40 000233   002350 701000 40                 TSX1    DUMP_LCNST_ONLINE
        40 000234   000000 011000                    NOP     0
        40 000235   000260 710000 40                 TRA     s:11266

     1076    11255
     1077    11256    3             CASE( %FILE_LTS );

     1078    11257    3               CALL DUMP_FILE_LTS_ONLINE;

  11257 40 000236   000274 701000 40                 TSX1    DUMP_FILE_LTS_ONLINE
        40 000237   000000 011000                    NOP     0
        40 000240   000260 710000 40                 TRA     s:11266

     1079    11258
     1080    11259    3             CASE( ELSE );

     1081    11260    3               LENGTH = LTS_STEP( P$-> LTS.ID - %FIRST_LTS );

  11260 40 000241   776716 235010 xsym               LDA     LTS_STEP-562,X0
        40 000242   200004 755100                    STA     LENGTH,,AUTO

     1082    11261    3               IF LENGTH = 0 THEN

  11261 40 000243   000250 601000 40                 TNZ     s:11263

     1083    11262    3                 LENGTH = P$-> LTS.N;

  11262 40 000244   000000 471500                    LDP1    0,,PR0
        40 000245   100000 236100                    LDQ     0,,PR1
        40 000246   777777 376007                    ANQ     -1,DL
        40 000247   200004 756100                    STQ     LENGTH,,AUTO

     1084    11263    3               CALL Z8JT$DUMP_ITEM( P$, LENGTH );

  11263 40 000250   200004 631500                    EPPR1   LENGTH,,AUTO
PL6.E3A0      #003=Z8JT$ONLINE_TABLE_DUMP File=Z8JT.:Z8A6TSI                     SAT 08/09/97 13:36 Page:215
        40 000251   200013 451500                    STP1    REMAIN_LEN+2,,AUTO
        40 000252   200003 236100                    LDQ     @P$,,AUTO
        40 000253   200012 756100                    STQ     REMAIN_LEN+1,,AUTO
        40 000254   200012 630500                    EPPR0   REMAIN_LEN+1,,AUTO
        40 000255   000001 631400 41                 EPPR1   1
        40 000256   000000 701000 xent               TSX1    Z8JT$DUMP_ITEM
        40 000257   000000 011000                    NOP     0

     1085    11264
     1086    11265    3           END; /* case lts.id */

     1087    11266    2           RETURN;

  11266 40 000260   000000 702200 xent               TSX2  ! X66_ARET

     1088    11267    2         END;
     1089    11268
     1090    11269            /* IF AN ITEM GETS HERE, JUST DUMP 1 WORD */
     1091    11270
     1092    11271    1      LENGTH = 1;

  11271 40 000261   000001 235007                    LDA     1,DL
        40 000262   200004 755100                    STA     LENGTH,,AUTO

     1093    11272    1      CALL Z8JT$DUMP_ITEM( P$, LENGTH );

  11272 40 000263   200004 631500                    EPPR1   LENGTH,,AUTO
        40 000264   200013 451500                    STP1    REMAIN_LEN+2,,AUTO
        40 000265   200003 236100                    LDQ     @P$,,AUTO
        40 000266   200012 756100                    STQ     REMAIN_LEN+1,,AUTO
        40 000267   200012 630500                    EPPR0   REMAIN_LEN+1,,AUTO
        40 000270   000001 631400 41                 EPPR1   1
        40 000271   000000 701000 xent               TSX1    Z8JT$DUMP_ITEM
        40 000272   000000 011000                    NOP     0

     1094    11273    1      RETURN;

PL6.E3A0      #003=Z8JT$ONLINE_TABLE_DUMP File=Z8JT.:Z8A6TSI                     SAT 08/09/97 13:36 Page:216
  11273 40 000273   000000 702200 xent               TSX2  ! X66_ARET

     1095    11274        %EJECT;
PL6.E3A0      #003=Z8JT$ONLINE_TABLE_DUMP File=Z8JT.:Z8A6TSI                     SAT 08/09/97 13:36 Page:217
     1096    11275    1     DUMP_FILE_LTS_ONLINE:  PROC;

  11275 40 000274   200006 741300       DUMP_FILE_L* STX1  ! LENGTH+2,,AUTO

     1097    11276
     1098    11277    2       OBUF = '                          File  Lts  Item';

  11277 40 000275   040000 100400                    MLR     fill='040'O
        40 000276   000000 000051 39                 ADSC9   0                        cn=0,n=41
        40 000277   000000 000170 38                 ADSC9   OBUF                     cn=0,n=120

     1099    11278    2       CALL Z9AL$DUMP_LINE;

  11278 40 000300   000002 631400 41                 EPPR1   2
        40 000301   000000 701000 xent               TSX1    Z9AL$DUMP_LINE
        40 000302   000000 011000                    NOP     0

     1100    11279    2       OBUF = '                          ----  ---  ----';

  11279 40 000303   040000 100400                    MLR     fill='040'O
        40 000304   000013 000051 39                 ADSC9   11                       cn=0,n=41
        40 000305   000000 000170 38                 ADSC9   OBUF                     cn=0,n=120

     1101    11280    2       CALL Z9AL$DUMP_LINE;

  11280 40 000306   000002 631400 41                 EPPR1   2
        40 000307   000000 701000 xent               TSX1    Z9AL$DUMP_LINE
        40 000310   000000 011000                    NOP     0

     1102    11281    2       CALL Z9AL$WRITE_BLANK_LINE;

  11281 40 000311   000002 631400 41                 EPPR1   2
        40 000312   000000 701000 xent               TSX1    Z9AL$WRITE_BLANK_LINE
        40 000313   000000 011000                    NOP     0

     1103    11282
     1104    11283    2       OBUF = 'ST$:';
PL6.E3A0      #003=Z8JT$ONLINE_TABLE_DUMP File=Z8JT.:Z8A6TSI                     SAT 08/09/97 13:36 Page:218

  11283 40 000314   040000 100400                    MLR     fill='040'O
        40 000315   000026 000004 39                 ADSC9   22                       cn=0,n=4
        40 000316   000000 000170 38                 ADSC9   OBUF                     cn=0,n=120

     1105    11284    2       IF P$-> FILE_LTS.ST$ ~= ADDR(NIL) THEN

  11284 40 000317   200003 470500                    LDP0    @P$,,AUTO
        40 000320   000000 471500                    LDP1    0,,PR0
        40 000321   100001 236100                    LDQ     1,,PR1
        40 000322   000000 116000 41                 CMPQ    0
        40 000323   000351 600000 40                 TZE     s:11292

     1106    11285    3         DO;

     1107    11286    3           CALL X8CO$CONV_TO_OCTAL( P$-> FILE_LTS.ST$, SUBSTR(OBUF,20,12));

  11286 40 000324   000003 236000 41                 LDQ     3
        40 000325   200013 756100                    STQ     REMAIN_LEN+2,,AUTO
        40 000326   100001 633500                    EPPR3   1,,PR1
        40 000327   200012 453500                    STP3    REMAIN_LEN+1,,AUTO
        40 000330   200012 630500                    EPPR0   REMAIN_LEN+1,,AUTO
        40 000331   000001 631400 41                 EPPR1   1
        40 000332   000000 701000 xent               TSX1    X8CO$CONV_TO_OCTAL
        40 000333   000000 011000                    NOP     0

     1108    11287    3           IF P$-> FILE_LTS.ST$->  FD.DNT$ ~= ADDR(NIL) THEN

  11287 40 000334   200003 470500                    LDP0    @P$,,AUTO
        40 000335   000000 471500                    LDP1    0,,PR0
        40 000336   100001 473500                    LDP3    1,,PR1
        40 000337   300006 236100                    LDQ     6,,PR3
        40 000340   000000 116000 41                 CMPQ    0
        40 000341   000353 600000 40                 TZE     s:11293

     1109    11288    3             SUBSTR( OBUF,35,P$-> FILE_LTS.ST$-> FD.DNT$-> DNT.TEXT.LENGTH ) =

PL6.E3A0      #003=Z8JT$ONLINE_TABLE_DUMP File=Z8JT.:Z8A6TSI                     SAT 08/09/97 13:36 Page:219
  11288 40 000342   300006 474500                    LDP4    6,,PR3
        40 000343   400004 220100                    LDX0    4,,PR4
        40 000344   400004 221100                    LDX1    4,,PR4
        40 000345   040040 100540                    MLR     fill='040'O
        40 000346   400004 400011                    ADSC9   4,,PR4                   cn=2,n=*X1
        40 000347   000010 600010 38                 ADSC9   OBUF+8                   cn=3,n=*X0

     1110    11289    3               P$-> FILE_LTS.ST$-> FD.DNT$-> DNT.TEXT.NAME;
     1111    11290    3         END;

  11290 40 000350   000353 710000 40                 TRA     s:11293

     1112    11291    2       ELSE
     1113    11292    2           SUBSTR ( OBUF,20,3 ) = 'Nil';

  11292 40 000351   000027 236000 39                 LDQ     23
        40 000352   000005 552070 38                 STBQ    OBUF+5,'70'O

     1114    11293    2       CALL Z9AL$DUMP_LINE;

  11293 40 000353   000002 631400 41                 EPPR1   2
        40 000354   000000 701000 xent               TSX1    Z9AL$DUMP_LINE
        40 000355   000000 011000                    NOP     0

     1115    11294
     1116    11295    2       OBUF = 'FAB_QLT$:';

  11295 40 000356   040000 100400                    MLR     fill='040'O
        40 000357   000030 000011 39                 ADSC9   24                       cn=0,n=9
        40 000360   000000 000170 38                 ADSC9   OBUF                     cn=0,n=120

     1117    11296    2       IF P$-> FILE_LTS.FAB$ = ADDR(NIL) THEN

  11296 40 000361   200003 470500                    LDP0    @P$,,AUTO
        40 000362   000000 471500                    LDP1    0,,PR0
        40 000363   100002 236100                    LDQ     2,,PR1
        40 000364   000000 116000 41                 CMPQ    0
PL6.E3A0      #003=Z8JT$ONLINE_TABLE_DUMP File=Z8JT.:Z8A6TSI                     SAT 08/09/97 13:36 Page:220
        40 000365   000371 601000 40                 TNZ     s:11299

     1118    11297    2         SUBSTR( OBUF,20,3 ) = 'Nil';

  11297 40 000366   000027 236000 39                 LDQ     23
        40 000367   000005 552070 38                 STBQ    OBUF+5,'70'O
        40 000370   000401 710000 40                 TRA     s:11301

     1119    11298    2       ELSE
     1120    11299    2         CALL X8CO$CONV_TO_OCTAL( P$-> FILE_LTS.FAB$, SUBSTR( OBUF,20,12 ));

  11299 40 000371   000003 236000 41                 LDQ     3
        40 000372   200013 756100                    STQ     REMAIN_LEN+2,,AUTO
        40 000373   100002 633500                    EPPR3   2,,PR1
        40 000374   200012 453500                    STP3    REMAIN_LEN+1,,AUTO
        40 000375   200012 630500                    EPPR0   REMAIN_LEN+1,,AUTO
        40 000376   000001 631400 41                 EPPR1   1
        40 000377   000000 701000 xent               TSX1    X8CO$CONV_TO_OCTAL
        40 000400   000000 011000                    NOP     0

     1121    11300
     1122    11301    2       SUBSTR( OBUF,40,20 ) = 'File_LTS_Chain$:';

  11301 40 000401   040000 100400                    MLR     fill='040'O
        40 000402   000033 000020 39                 ADSC9   27                       cn=0,n=16
        40 000403   000012 000024 38                 ADSC9   OBUF+10                  cn=0,n=20

     1123    11302    2       IF P$-> FILE_LTS.FILE_LTS_CHAIN$ = ADDR(NIL) THEN

  11302 40 000404   200003 470500                    LDP0    @P$,,AUTO
        40 000405   000000 471500                    LDP1    0,,PR0
        40 000406   100003 236100                    LDQ     3,,PR1
        40 000407   000000 116000 41                 CMPQ    0
        40 000410   000414 601000 40                 TNZ     s:11305

     1124    11303    2         SUBSTR( OBUF,60,3 ) = 'Nil';

PL6.E3A0      #003=Z8JT$ONLINE_TABLE_DUMP File=Z8JT.:Z8A6TSI                     SAT 08/09/97 13:36 Page:221
  11303 40 000411   000027 236000 39                 LDQ     23
        40 000412   000017 552070 38                 STBQ    OBUF+15,'70'O
        40 000413   000424 710000 40                 TRA     s:11307

     1125    11304    2       ELSE
     1126    11305    2         CALL X8CO$CONV_TO_OCTAL( P$-> FILE_LTS.FILE_LTS_CHAIN$, SUBSTR

  11305 40 000414   000004 236000 41                 LDQ     4
        40 000415   200013 756100                    STQ     REMAIN_LEN+2,,AUTO
        40 000416   100003 633500                    EPPR3   3,,PR1
        40 000417   200012 453500                    STP3    REMAIN_LEN+1,,AUTO
        40 000420   200012 630500                    EPPR0   REMAIN_LEN+1,,AUTO
        40 000421   000001 631400 41                 EPPR1   1
        40 000422   000000 701000 xent               TSX1    X8CO$CONV_TO_OCTAL
        40 000423   000000 011000                    NOP     0

     1127    11306    2           ( OBUF, 60, 12 ) );
     1128    11307    2       CALL Z9AL$DUMP_LINE;

  11307 40 000424   000002 631400 41                 EPPR1   2
        40 000425   000000 701000 xent               TSX1    Z9AL$DUMP_LINE
        40 000426   000000 011000                    NOP     0

     1129    11308
     1130    11309
     1131    11310    2       OBUF = 'Assign$:';

  11310 40 000427   040000 100400                    MLR     fill='040'O
        40 000430   000037 000010 39                 ADSC9   31                       cn=0,n=8
        40 000431   000000 000170 38                 ADSC9   OBUF                     cn=0,n=120

     1132    11311    2       IF P$-> FILE_LTS.ASSIGN$ = ADDR(NIL) THEN

  11311 40 000432   200003 470500                    LDP0    @P$,,AUTO
        40 000433   000000 471500                    LDP1    0,,PR0
        40 000434   100004 236100                    LDQ     4,,PR1
        40 000435   000000 116000 41                 CMPQ    0
PL6.E3A0      #003=Z8JT$ONLINE_TABLE_DUMP File=Z8JT.:Z8A6TSI                     SAT 08/09/97 13:36 Page:222
        40 000436   000442 601000 40                 TNZ     s:11314

     1133    11312    2         SUBSTR( OBUF,20,3 ) = 'Nil';

  11312 40 000437   000027 236000 39                 LDQ     23
        40 000440   000005 552070 38                 STBQ    OBUF+5,'70'O
        40 000441   000452 710000 40                 TRA     s:11316

     1134    11313    2       ELSE
     1135    11314    2         CALL X8CO$CONV_TO_OCTAL( P$-> FILE_LTS.ASSIGN$, SUBSTR( OBUF,20,12 ));

  11314 40 000442   000003 236000 41                 LDQ     3
        40 000443   200013 756100                    STQ     REMAIN_LEN+2,,AUTO
        40 000444   100004 633500                    EPPR3   4,,PR1
        40 000445   200012 453500                    STP3    REMAIN_LEN+1,,AUTO
        40 000446   200012 630500                    EPPR0   REMAIN_LEN+1,,AUTO
        40 000447   000001 631400 41                 EPPR1   1
        40 000450   000000 701000 xent               TSX1    X8CO$CONV_TO_OCTAL
        40 000451   000000 011000                    NOP     0

     1136    11315
     1137    11316    2       SUBSTR( OBUF,40,20 ) = 'No_of_Areas:';

  11316 40 000452   040000 100400                    MLR     fill='040'O
        40 000453   000041 000014 39                 ADSC9   33                       cn=0,n=12
        40 000454   000012 000024 38                 ADSC9   OBUF+10                  cn=0,n=20

     1138    11317    2       CALL X8CO$CONV_TO_DECIMAL( P$-> FILE_LTS.NO_OF_AREAS, SUBSTR( OBUF,60,13 ));

  11317 40 000455   200003 470500                    LDP0    @P$,,AUTO
        40 000456   000000 471500                    LDP1    0,,PR0
        40 000457   000004 236000 41                 LDQ     4
        40 000460   200013 756100                    STQ     REMAIN_LEN+2,,AUTO
        40 000461   100005 633500                    EPPR3   5,,PR1
        40 000462   200012 453500                    STP3    REMAIN_LEN+1,,AUTO
        40 000463   200012 630500                    EPPR0   REMAIN_LEN+1,,AUTO
        40 000464   000001 631400 41                 EPPR1   1
PL6.E3A0      #003=Z8JT$ONLINE_TABLE_DUMP File=Z8JT.:Z8A6TSI                     SAT 08/09/97 13:36 Page:223
        40 000465   000000 701000 xent               TSX1    X8CO$CONV_TO_DECIMAL
        40 000466   000000 011000                    NOP     0

     1139    11318    2       CALL Z9AL$DUMP_LINE;

  11318 40 000467   000002 631400 41                 EPPR1   2
        40 000470   000000 701000 xent               TSX1    Z9AL$DUMP_LINE
        40 000471   000000 011000                    NOP     0

     1140    11319
     1141    11320    2       OBUF = 'Organization:';

  11320 40 000472   040000 100400                    MLR     fill='040'O
        40 000473   000044 000015 39                 ADSC9   36                       cn=0,n=13
        40 000474   000000 000170 38                 ADSC9   OBUF                     cn=0,n=120

     1142    11321    3       DO CASE( P$-> FILE_LTS.ORGANIZATION );

  11321 40 000475   200003 470500                    LDP0    @P$,,AUTO
        40 000476   000000 471500                    LDP1    0,,PR0
        40 000477   100006 235100                    LDA     6,,PR1
        40 000500   000005 115007                    CMPA    5,DL
        40 000501   000503 602005 40                 TNC     s:11321+6,AL
        40 000502   000530 710000 40                 TRA     s:11336
        40 000503   000530 710000 40                 TRA     s:11336
        40 000504   000510 710000 40                 TRA     s:11324
        40 000505   000514 710000 40                 TRA     s:11327
        40 000506   000520 710000 40                 TRA     s:11330
        40 000507   000524 710000 40                 TRA     s:11333

     1143    11322
     1144    11323    3         CASE( %SEQUENTIAL );

     1145    11324    3           SUBSTR( OBUF,20,10 ) = 'Sequential';

  11324 40 000510   040000 100400                    MLR     fill='040'O
        40 000511   000050 000012 39                 ADSC9   40                       cn=0,n=10
PL6.E3A0      #003=Z8JT$ONLINE_TABLE_DUMP File=Z8JT.:Z8A6TSI                     SAT 08/09/97 13:36 Page:224
        40 000512   000005 000012 38                 ADSC9   OBUF+5                   cn=0,n=10
        40 000513   000532 710000 40                 TRA     s:11340

     1146    11325
     1147    11326    3         CASE( %RELATIVE );

     1148    11327    3           SUBSTR( OBUF,20,8 ) = 'Relative';

  11327 40 000514   040000 100400                    MLR     fill='040'O
        40 000515   000053 000010 39                 ADSC9   43                       cn=0,n=8
        40 000516   000005 000010 38                 ADSC9   OBUF+5                   cn=0,n=8
        40 000517   000532 710000 40                 TRA     s:11340

     1149    11328
     1150    11329    3         CASE( %INDEXED );

     1151    11330    3           SUBSTR( OBUF,20,7 ) = 'Indexed';

  11330 40 000520   040000 100400                    MLR     fill='040'O
        40 000521   000055 000007 39                 ADSC9   45                       cn=0,n=7
        40 000522   000005 000007 38                 ADSC9   OBUF+5                   cn=0,n=7
        40 000523   000532 710000 40                 TRA     s:11340

     1152    11331
     1153    11332    3         CASE( %KEYED );

     1154    11333    3           SUBSTR( OBUF,20,5 ) = 'Keyed';

  11333 40 000524   040000 100400                    MLR     fill='040'O
        40 000525   000057 000005 39                 ADSC9   47                       cn=0,n=5
        40 000526   000005 000005 38                 ADSC9   OBUF+5                   cn=0,n=5
        40 000527   000532 710000 40                 TRA     s:11340

     1155    11334
     1156    11335    3         CASE( ELSE );

     1157    11336    3           SUBSTR( OBUF,20,4 ) = 'Else';
PL6.E3A0      #003=Z8JT$ONLINE_TABLE_DUMP File=Z8JT.:Z8A6TSI                     SAT 08/09/97 13:36 Page:225

  11336 40 000530   000061 236000 39                 LDQ     49
        40 000531   000005 756000 38                 STQ     OBUF+5

     1158    11337
     1159    11338    3       END;  /* case */

     1160    11339
     1161    11340    2       SUBSTR( OBUF,40,20 ) = 'Access Mode:';

  11340 40 000532   040000 100400                    MLR     fill='040'O
        40 000533   000062 000014 39                 ADSC9   50                       cn=0,n=12
        40 000534   000012 000024 38                 ADSC9   OBUF+10                  cn=0,n=20

     1162    11341    3       DO CASE( P$-> FILE_LTS.ACCESS_MODE );

  11341 40 000535   000000 471500                    LDP1    0,,PR0
        40 000536   100011 235100                    LDA     9,,PR1
        40 000537   000003 115007                    CMPA    3,DL
        40 000540   000542 602005 40                 TNC     s:11341+5,AL
        40 000541   000555 710000 40                 TRA     s:11350
        40 000542   000555 710000 40                 TRA     s:11350
        40 000543   000545 710000 40                 TRA     s:11344
        40 000544   000551 710000 40                 TRA     s:11347

     1163    11342
     1164    11343    3         CASE( %SEQUENTIAL_ACCESS );

     1165    11344    3           SUBSTR( OBUF,60,10 ) = 'Sequential';

  11344 40 000545   040000 100400                    MLR     fill='040'O
        40 000546   000050 000012 39                 ADSC9   40                       cn=0,n=10
        40 000547   000017 000012 38                 ADSC9   OBUF+15                  cn=0,n=10
        40 000550   000560 710000 40                 TRA     s:11353

     1166    11345
     1167    11346    3         CASE( %RANDOM_ACCESS );
PL6.E3A0      #003=Z8JT$ONLINE_TABLE_DUMP File=Z8JT.:Z8A6TSI                     SAT 08/09/97 13:36 Page:226

     1168    11347    3           SUBSTR( OBUF,60,6 ) = 'Random';

  11347 40 000551   040000 100400                    MLR     fill='040'O
        40 000552   000065 000006 39                 ADSC9   53                       cn=0,n=6
        40 000553   000017 000006 38                 ADSC9   OBUF+15                  cn=0,n=6
        40 000554   000560 710000 40                 TRA     s:11353

     1169    11348
     1170    11349    3         CASE( ELSE );

     1171    11350    3           SUBSTR( OBUF,60,6 ) = 'Error ';

  11350 40 000555   040000 100400                    MLR     fill='040'O
        40 000556   000067 000006 39                 ADSC9   55                       cn=0,n=6
        40 000557   000017 000006 38                 ADSC9   OBUF+15                  cn=0,n=6

     1172    11351
     1173    11352    3       END;  /* case */

     1174    11353    2       CALL Z9AL$DUMP_LINE;

  11353 40 000560   000002 631400 41                 EPPR1   2
        40 000561   000000 701000 xent               TSX1    Z9AL$DUMP_LINE
        40 000562   000000 011000                    NOP     0

     1175    11354
     1176    11355    2       OBUF = 'Pad_char$:';

  11355 40 000563   040000 100400                    MLR     fill='040'O
        40 000564   000071 000012 39                 ADSC9   57                       cn=0,n=10
        40 000565   000000 000170 38                 ADSC9   OBUF                     cn=0,n=120

     1177    11356    2       IF P$-> FILE_LTS.PAD_CHAR$ = ADDR(NIL) THEN

  11356 40 000566   200003 470500                    LDP0    @P$,,AUTO
        40 000567   000000 471500                    LDP1    0,,PR0
PL6.E3A0      #003=Z8JT$ONLINE_TABLE_DUMP File=Z8JT.:Z8A6TSI                     SAT 08/09/97 13:36 Page:227
        40 000570   100007 236100                    LDQ     7,,PR1
        40 000571   000000 116000 41                 CMPQ    0
        40 000572   000576 601000 40                 TNZ     s:11359

     1178    11357    2         SUBSTR( OBUF,20,3 ) = 'Nil';

  11357 40 000573   000027 236000 39                 LDQ     23
        40 000574   000005 552070 38                 STBQ    OBUF+5,'70'O
        40 000575   000606 710000 40                 TRA     s:11361

     1179    11358    2       ELSE
     1180    11359    2         CALL X8CO$CONV_TO_OCTAL( P$-> FILE_LTS.PAD_CHAR$, SUBSTR( OBUF,20,12 ));

  11359 40 000576   000003 236000 41                 LDQ     3
        40 000577   200013 756100                    STQ     REMAIN_LEN+2,,AUTO
        40 000600   100007 633500                    EPPR3   7,,PR1
        40 000601   200012 453500                    STP3    REMAIN_LEN+1,,AUTO
        40 000602   200012 630500                    EPPR0   REMAIN_LEN+1,,AUTO
        40 000603   000001 631400 41                 EPPR1   1
        40 000604   000000 701000 xent               TSX1    X8CO$CONV_TO_OCTAL
        40 000605   000000 011000                    NOP     0

     1181    11360
     1182    11361    2       SUBSTR( OBUF,40,20 ) = 'Record_Delim:';

  11361 40 000606   040000 100400                    MLR     fill='040'O
        40 000607   000074 000015 39                 ADSC9   60                       cn=0,n=13
        40 000610   000012 000024 38                 ADSC9   OBUF+10                  cn=0,n=20

     1183    11362    2       CALL X8CO$CONV_TO_DECIMAL( P$-> FILE_LTS.RECORD_DELIM,

  11362 40 000611   200003 470500                    LDP0    @P$,,AUTO
        40 000612   000000 471500                    LDP1    0,,PR0
        40 000613   000004 236000 41                 LDQ     4
        40 000614   200013 756100                    STQ     REMAIN_LEN+2,,AUTO
        40 000615   100010 633500                    EPPR3   8,,PR1
        40 000616   200012 453500                    STP3    REMAIN_LEN+1,,AUTO
PL6.E3A0      #003=Z8JT$ONLINE_TABLE_DUMP File=Z8JT.:Z8A6TSI                     SAT 08/09/97 13:36 Page:228
        40 000617   200012 630500                    EPPR0   REMAIN_LEN+1,,AUTO
        40 000620   000001 631400 41                 EPPR1   1
        40 000621   000000 701000 xent               TSX1    X8CO$CONV_TO_DECIMAL
        40 000622   000000 011000                    NOP     0

     1184    11363    2                                  SUBSTR( OBUF,60,13 ));
     1185    11364    2       CALL Z9AL$DUMP_LINE;

  11364 40 000623   000002 631400 41                 EPPR1   2
        40 000624   000000 701000 xent               TSX1    Z9AL$DUMP_LINE
        40 000625   000000 011000                    NOP     0

     1186    11365
     1187    11366    2       OBUF = 'File_Status$:';

  11366 40 000626   040000 100400                    MLR     fill='040'O
        40 000627   000100 000015 39                 ADSC9   64                       cn=0,n=13
        40 000630   000000 000170 38                 ADSC9   OBUF                     cn=0,n=120

     1188    11367    2       IF P$-> FILE_LTS.FILE_STATUS$ = ADDR(NIL) THEN

  11367 40 000631   200003 470500                    LDP0    @P$,,AUTO
        40 000632   000000 471500                    LDP1    0,,PR0
        40 000633   100012 236100                    LDQ     10,,PR1
        40 000634   000000 116000 41                 CMPQ    0
        40 000635   000641 601000 40                 TNZ     s:11370

     1189    11368    2         SUBSTR( OBUF,20,3 ) = 'Nil';

  11368 40 000636   000027 236000 39                 LDQ     23
        40 000637   000005 552070 38                 STBQ    OBUF+5,'70'O
        40 000640   000651 710000 40                 TRA     s:11372

     1190    11369    2       ELSE
     1191    11370    2         CALL X8CO$CONV_TO_OCTAL( P$-> FILE_LTS.FILE_STATUS$, SUBSTR(OBUF,20,12));

  11370 40 000641   000003 236000 41                 LDQ     3
PL6.E3A0      #003=Z8JT$ONLINE_TABLE_DUMP File=Z8JT.:Z8A6TSI                     SAT 08/09/97 13:36 Page:229
        40 000642   200013 756100                    STQ     REMAIN_LEN+2,,AUTO
        40 000643   100012 633500                    EPPR3   10,,PR1
        40 000644   200012 453500                    STP3    REMAIN_LEN+1,,AUTO
        40 000645   200012 630500                    EPPR0   REMAIN_LEN+1,,AUTO
        40 000646   000001 631400 41                 EPPR1   1
        40 000647   000000 701000 xent               TSX1    X8CO$CONV_TO_OCTAL
        40 000650   000000 011000                    NOP     0

     1192    11371
     1193    11372    2       SUBSTR( OBUF,40,20 ) = 'File_Status2$:';

  11372 40 000651   040000 100400                    MLR     fill='040'O
        40 000652   000104 000016 39                 ADSC9   68                       cn=0,n=14
        40 000653   000012 000024 38                 ADSC9   OBUF+10                  cn=0,n=20

     1194    11373    2       IF P$-> FILE_LTS.FILE_STATUS2$ = ADDR(NIL) THEN

  11373 40 000654   200003 470500                    LDP0    @P$,,AUTO
        40 000655   000000 471500                    LDP1    0,,PR0
        40 000656   100013 236100                    LDQ     11,,PR1
        40 000657   000000 116000 41                 CMPQ    0
        40 000660   000664 601000 40                 TNZ     s:11376

     1195    11374    2         SUBSTR( OBUF,60,3 ) = 'Nil';

  11374 40 000661   000027 236000 39                 LDQ     23
        40 000662   000017 552070 38                 STBQ    OBUF+15,'70'O
        40 000663   000674 710000 40                 TRA     s:11377

     1196    11375    2       ELSE
     1197    11376    2         CALL X8CO$CONV_TO_OCTAL( P$->FILE_LTS.FILE_STATUS2$, SUBSTR(OBUF,20,12));

  11376 40 000664   000003 236000 41                 LDQ     3
        40 000665   200013 756100                    STQ     REMAIN_LEN+2,,AUTO
        40 000666   100013 633500                    EPPR3   11,,PR1
        40 000667   200012 453500                    STP3    REMAIN_LEN+1,,AUTO
        40 000670   200012 630500                    EPPR0   REMAIN_LEN+1,,AUTO
PL6.E3A0      #003=Z8JT$ONLINE_TABLE_DUMP File=Z8JT.:Z8A6TSI                     SAT 08/09/97 13:36 Page:230
        40 000671   000001 631400 41                 EPPR1   1
        40 000672   000000 701000 xent               TSX1    X8CO$CONV_TO_OCTAL
        40 000673   000000 011000                    NOP     0

     1198    11377    2       CALL Z9AL$DUMP_LINE;

  11377 40 000674   000002 631400 41                 EPPR1   2
        40 000675   000000 701000 xent               TSX1    Z9AL$DUMP_LINE
        40 000676   000000 011000                    NOP     0

     1199    11378
     1200    11379    2       OBUF = 'Relative_Key$';

  11379 40 000677   040000 100400                    MLR     fill='040'O
        40 000700   000110 000015 39                 ADSC9   72                       cn=0,n=13
        40 000701   000000 000170 38                 ADSC9   OBUF                     cn=0,n=120

     1201    11380    2       IF P$-> FILE_LTS.RELATIVE_KEY$ = ADDR(NIL) THEN

  11380 40 000702   200003 470500                    LDP0    @P$,,AUTO
        40 000703   000000 471500                    LDP1    0,,PR0
        40 000704   100014 236100                    LDQ     12,,PR1
        40 000705   000000 116000 41                 CMPQ    0
        40 000706   000712 601000 40                 TNZ     s:11383

     1202    11381    2         SUBSTR( OBUF,20,3 ) = 'Nil';

  11381 40 000707   000027 236000 39                 LDQ     23
        40 000710   000005 552070 38                 STBQ    OBUF+5,'70'O
        40 000711   000722 710000 40                 TRA     s:11386

     1203    11382    2       ELSE
     1204    11383    2         CALL X8CO$CONV_TO_OCTAL( P$-> FILE_LTS.RELATIVE_KEY$,

  11383 40 000712   000003 236000 41                 LDQ     3
        40 000713   200013 756100                    STQ     REMAIN_LEN+2,,AUTO
        40 000714   100014 633500                    EPPR3   12,,PR1
PL6.E3A0      #003=Z8JT$ONLINE_TABLE_DUMP File=Z8JT.:Z8A6TSI                     SAT 08/09/97 13:36 Page:231
        40 000715   200012 453500                    STP3    REMAIN_LEN+1,,AUTO
        40 000716   200012 630500                    EPPR0   REMAIN_LEN+1,,AUTO
        40 000717   000001 631400 41                 EPPR1   1
        40 000720   000000 701000 xent               TSX1    X8CO$CONV_TO_OCTAL
        40 000721   000000 011000                    NOP     0

     1205    11384    2                                       SUBSTR( OBUF,20,12 ) );
     1206    11385
     1207    11386    2       SUBSTR( OBUF,40,20 ) = 'Record_Key$';

  11386 40 000722   040000 100400                    MLR     fill='040'O
        40 000723   000114 000013 39                 ADSC9   76                       cn=0,n=11
        40 000724   000012 000024 38                 ADSC9   OBUF+10                  cn=0,n=20

     1208    11387    2       IF P$-> FILE_LTS.RECORD_KEY$ = ADDR(NIL) THEN

  11387 40 000725   200003 470500                    LDP0    @P$,,AUTO
        40 000726   000000 471500                    LDP1    0,,PR0
        40 000727   100015 236100                    LDQ     13,,PR1
        40 000730   000000 116000 41                 CMPQ    0
        40 000731   000735 601000 40                 TNZ     s:11390

     1209    11388    2         SUBSTR( OBUF,60,3 ) = 'Nil';

  11388 40 000732   000027 236000 39                 LDQ     23
        40 000733   000017 552070 38                 STBQ    OBUF+15,'70'O
        40 000734   000745 710000 40                 TRA     s:11392

     1210    11389    2       ELSE
     1211    11390    2         CALL X8CO$CONV_TO_OCTAL( P$-> FILE_LTS.RECORD_KEY$,

  11390 40 000735   000004 236000 41                 LDQ     4
        40 000736   200013 756100                    STQ     REMAIN_LEN+2,,AUTO
        40 000737   100015 633500                    EPPR3   13,,PR1
        40 000740   200012 453500                    STP3    REMAIN_LEN+1,,AUTO
        40 000741   200012 630500                    EPPR0   REMAIN_LEN+1,,AUTO
        40 000742   000001 631400 41                 EPPR1   1
PL6.E3A0      #003=Z8JT$ONLINE_TABLE_DUMP File=Z8JT.:Z8A6TSI                     SAT 08/09/97 13:36 Page:232
        40 000743   000000 701000 xent               TSX1    X8CO$CONV_TO_OCTAL
        40 000744   000000 011000                    NOP     0

     1212    11391    2                                       SUBSTR( OBUF,60,12 ) );
     1213    11392    2       CALL Z9AL$DUMP_LINE;

  11392 40 000745   000002 631400 41                 EPPR1   2
        40 000746   000000 701000 xent               TSX1    Z9AL$DUMP_LINE
        40 000747   000000 011000                    NOP     0

     1214    11393
     1215    11394    2       OBUF = 'Alt_Record_Key$:';

  11394 40 000750   040000 100400                    MLR     fill='040'O
        40 000751   000117 000020 39                 ADSC9   79                       cn=0,n=16
        40 000752   000000 000170 38                 ADSC9   OBUF                     cn=0,n=120

     1216    11395    2       IF P$-> FILE_LTS.ALT_RECORD_KEY$ = ADDR(NIL) THEN

  11395 40 000753   200003 470500                    LDP0    @P$,,AUTO
        40 000754   000000 471500                    LDP1    0,,PR0
        40 000755   100016 236100                    LDQ     14,,PR1
        40 000756   000000 116000 41                 CMPQ    0
        40 000757   000763 601000 40                 TNZ     s:11398

     1217    11396    2         SUBSTR( OBUF,20,3 ) = 'Nil';

  11396 40 000760   000027 236000 39                 LDQ     23
        40 000761   000005 552070 38                 STBQ    OBUF+5,'70'O
        40 000762   000773 710000 40                 TRA     s:11401

     1218    11397    2       ELSE
     1219    11398    2         CALL X8CO$CONV_TO_OCTAL( P$-> FILE_LTS.ALT_RECORD_KEY$,

  11398 40 000763   000003 236000 41                 LDQ     3
        40 000764   200013 756100                    STQ     REMAIN_LEN+2,,AUTO
        40 000765   100016 633500                    EPPR3   14,,PR1
PL6.E3A0      #003=Z8JT$ONLINE_TABLE_DUMP File=Z8JT.:Z8A6TSI                     SAT 08/09/97 13:36 Page:233
        40 000766   200012 453500                    STP3    REMAIN_LEN+1,,AUTO
        40 000767   200012 630500                    EPPR0   REMAIN_LEN+1,,AUTO
        40 000770   000001 631400 41                 EPPR1   1
        40 000771   000000 701000 xent               TSX1    X8CO$CONV_TO_OCTAL
        40 000772   000000 011000                    NOP     0

     1220    11399    2                                       SUBSTR( OBUF,20,12 ) );
     1221    11400
     1222    11401    2       SUBSTR( OBUF,40,20 ) = 'Nominal_Key$';

  11401 40 000773   040000 100400                    MLR     fill='040'O
        40 000774   000123 000014 39                 ADSC9   83                       cn=0,n=12
        40 000775   000012 000024 38                 ADSC9   OBUF+10                  cn=0,n=20

     1223    11402    2       IF P$-> FILE_LTS.NOMINAL_KEY$ = ADDR(NIL) THEN

  11402 40 000776   200003 470500                    LDP0    @P$,,AUTO
        40 000777   000000 471500                    LDP1    0,,PR0
        40 001000   100020 236100                    LDQ     16,,PR1
        40 001001   000000 116000 41                 CMPQ    0
        40 001002   001006 601000 40                 TNZ     s:11405

     1224    11403    2         SUBSTR( OBUF,60,3 ) = 'Nil';

  11403 40 001003   000027 236000 39                 LDQ     23
        40 001004   000017 552070 38                 STBQ    OBUF+15,'70'O
        40 001005   001016 710000 40                 TRA     s:11407

     1225    11404    2       ELSE
     1226    11405    2         CALL X8CO$CONV_TO_OCTAL( P$-> FILE_LTS.NOMINAL_KEY$,

  11405 40 001006   000004 236000 41                 LDQ     4
        40 001007   200013 756100                    STQ     REMAIN_LEN+2,,AUTO
        40 001010   100020 633500                    EPPR3   16,,PR1
        40 001011   200012 453500                    STP3    REMAIN_LEN+1,,AUTO
        40 001012   200012 630500                    EPPR0   REMAIN_LEN+1,,AUTO
        40 001013   000001 631400 41                 EPPR1   1
PL6.E3A0      #003=Z8JT$ONLINE_TABLE_DUMP File=Z8JT.:Z8A6TSI                     SAT 08/09/97 13:36 Page:234
        40 001014   000000 701000 xent               TSX1    X8CO$CONV_TO_OCTAL
        40 001015   000000 011000                    NOP     0

     1227    11406    2                                       SUBSTR( OBUF,60,12 ) );
     1228    11407    2       CALL Z9AL$DUMP_LINE;

  11407 40 001016   000002 631400 41                 EPPR1   2
        40 001017   000000 701000 xent               TSX1    Z9AL$DUMP_LINE
        40 001020   000000 011000                    NOP     0

     1229    11408
     1230    11409    2       OBUF = 'Bits:';

  11409 40 001021   040000 100400                    MLR     fill='040'O
        40 001022   000126 000005 39                 ADSC9   86                       cn=0,n=5
        40 001023   000000 000170 38                 ADSC9   OBUF                     cn=0,n=120

     1231    11410    2       CALL X8CO$CONV_TO_OCTAL( P$-> FILE_LTS.ATTR, SUBSTR( OBUF,20,12 ) );

  11410 40 001024   200003 470500                    LDP0    @P$,,AUTO
        40 001025   000000 471500                    LDP1    0,,PR0
        40 001026   000003 236000 41                 LDQ     3
        40 001027   200013 756100                    STQ     REMAIN_LEN+2,,AUTO
        40 001030   100017 633500                    EPPR3   15,,PR1
        40 001031   200012 453500                    STP3    REMAIN_LEN+1,,AUTO
        40 001032   200012 630500                    EPPR0   REMAIN_LEN+1,,AUTO
        40 001033   000001 631400 41                 EPPR1   1
        40 001034   000000 701000 xent               TSX1    X8CO$CONV_TO_OCTAL
        40 001035   000000 011000                    NOP     0

     1232    11411    2       CALL Z9AL$DUMP_LINE;

  11411 40 001036   000002 631400 41                 EPPR1   2
        40 001037   000000 701000 xent               TSX1    Z9AL$DUMP_LINE
        40 001040   000000 011000                    NOP     0

     1233    11412
PL6.E3A0      #003=Z8JT$ONLINE_TABLE_DUMP File=Z8JT.:Z8A6TSI                     SAT 08/09/97 13:36 Page:235
     1234    11413    2       OBUF = 'Block Contains:';

  11413 40 001041   040000 100400                    MLR     fill='040'O
        40 001042   000130 000017 39                 ADSC9   88                       cn=0,n=15
        40 001043   000000 000170 38                 ADSC9   OBUF                     cn=0,n=120

     1235    11414    2       CALL X8CO$CONV_TO_DECIMAL( P$-> FILE_LTS.BLOCK_CONTAINS.INT_1,

  11414 40 001044   200003 470500                    LDP0    @P$,,AUTO
        40 001045   000000 471500                    LDP1    0,,PR0
        40 001046   000003 236000 41                 LDQ     3
        40 001047   200013 756100                    STQ     REMAIN_LEN+2,,AUTO
        40 001050   100021 633500                    EPPR3   17,,PR1
        40 001051   200012 453500                    STP3    REMAIN_LEN+1,,AUTO
        40 001052   200012 630500                    EPPR0   REMAIN_LEN+1,,AUTO
        40 001053   000001 631400 41                 EPPR1   1
        40 001054   000000 701000 xent               TSX1    X8CO$CONV_TO_DECIMAL
        40 001055   000000 011000                    NOP     0

     1236    11415    2                                  SUBSTR( OBUF,20,13 ) );
     1237    11416    2       CALL X8CO$CONV_TO_DECIMAL( P$-> FILE_LTS.BLOCK_CONTAINS.INT_2,

  11416 40 001056   200003 470500                    LDP0    @P$,,AUTO
        40 001057   000000 471500                    LDP1    0,,PR0
        40 001060   000005 236000 41                 LDQ     5
        40 001061   200013 756100                    STQ     REMAIN_LEN+2,,AUTO
        40 001062   100022 633500                    EPPR3   18,,PR1
        40 001063   200012 453500                    STP3    REMAIN_LEN+1,,AUTO
        40 001064   200012 630500                    EPPR0   REMAIN_LEN+1,,AUTO
        40 001065   000001 631400 41                 EPPR1   1
        40 001066   000000 701000 xent               TSX1    X8CO$CONV_TO_DECIMAL
        40 001067   000000 011000                    NOP     0

     1238    11417    2                                  SUBSTR( OBUF,35,13 ) );
     1239    11418    2       CALL Z9AL$DUMP_LINE;

  11418 40 001070   000002 631400 41                 EPPR1   2
PL6.E3A0      #003=Z8JT$ONLINE_TABLE_DUMP File=Z8JT.:Z8A6TSI                     SAT 08/09/97 13:36 Page:236
        40 001071   000000 701000 xent               TSX1    Z9AL$DUMP_LINE
        40 001072   000000 011000                    NOP     0

     1240    11419
     1241    11420    2       OBUF = 'Record Contains:';

  11420 40 001073   040000 100400                    MLR     fill='040'O
        40 001074   000134 000020 39                 ADSC9   92                       cn=0,n=16
        40 001075   000000 000170 38                 ADSC9   OBUF                     cn=0,n=120

     1242    11421    2       CALL X8CO$CONV_TO_DECIMAL( P$-> FILE_LTS.RECORD_CONTAINS.INT_1,

  11421 40 001076   200003 470500                    LDP0    @P$,,AUTO
        40 001077   000000 471500                    LDP1    0,,PR0
        40 001100   000003 236000 41                 LDQ     3
        40 001101   200013 756100                    STQ     REMAIN_LEN+2,,AUTO
        40 001102   100023 633500                    EPPR3   19,,PR1
        40 001103   200012 453500                    STP3    REMAIN_LEN+1,,AUTO
        40 001104   200012 630500                    EPPR0   REMAIN_LEN+1,,AUTO
        40 001105   000001 631400 41                 EPPR1   1
        40 001106   000000 701000 xent               TSX1    X8CO$CONV_TO_DECIMAL
        40 001107   000000 011000                    NOP     0

     1243    11422    2                                  SUBSTR( OBUF,20,13 ) );
     1244    11423    2       CALL X8CO$CONV_TO_DECIMAL( P$-> FILE_LTS.RECORD_CONTAINS.INT_2,

  11423 40 001110   200003 470500                    LDP0    @P$,,AUTO
        40 001111   000000 471500                    LDP1    0,,PR0
        40 001112   000005 236000 41                 LDQ     5
        40 001113   200013 756100                    STQ     REMAIN_LEN+2,,AUTO
        40 001114   100024 633500                    EPPR3   20,,PR1
        40 001115   200012 453500                    STP3    REMAIN_LEN+1,,AUTO
        40 001116   200012 630500                    EPPR0   REMAIN_LEN+1,,AUTO
        40 001117   000001 631400 41                 EPPR1   1
        40 001120   000000 701000 xent               TSX1    X8CO$CONV_TO_DECIMAL
        40 001121   000000 011000                    NOP     0

PL6.E3A0      #003=Z8JT$ONLINE_TABLE_DUMP File=Z8JT.:Z8A6TSI                     SAT 08/09/97 13:36 Page:237
     1245    11424    2                                  SUBSTR( OBUF,35,13 ) );
     1246    11425    2       CALL Z9AL$DUMP_LINE;

  11425 40 001122   000002 631400 41                 EPPR1   2
        40 001123   000000 701000 xent               TSX1    Z9AL$DUMP_LINE
        40 001124   000000 011000                    NOP     0

     1247    11426
     1248    11427    2       OBUF = 'Depending$:';

  11427 40 001125   040000 100400                    MLR     fill='040'O
        40 001126   000140 000013 39                 ADSC9   96                       cn=0,n=11
        40 001127   000000 000170 38                 ADSC9   OBUF                     cn=0,n=120

     1249    11428    2       IF P$-> FILE_LTS.RECORD_CONTAINS.DEPENDING$ = ADDR(NIL) THEN

  11428 40 001130   200003 470500                    LDP0    @P$,,AUTO
        40 001131   000000 471500                    LDP1    0,,PR0
        40 001132   100025 236100                    LDQ     21,,PR1
        40 001133   000000 116000 41                 CMPQ    0
        40 001134   001140 601000 40                 TNZ     s:11431

     1250    11429    2         SUBSTR( OBUF,20,3 ) = 'Nil';

  11429 40 001135   000027 236000 39                 LDQ     23
        40 001136   000005 552070 38                 STBQ    OBUF+5,'70'O
        40 001137   001150 710000 40                 TRA     s:11434

     1251    11430    2       ELSE
     1252    11431    2         CALL X8CO$CONV_TO_OCTAL( P$-> FILE_LTS.RECORD_CONTAINS.DEPENDING$,

  11431 40 001140   000003 236000 41                 LDQ     3
        40 001141   200013 756100                    STQ     REMAIN_LEN+2,,AUTO
        40 001142   100025 633500                    EPPR3   21,,PR1
        40 001143   200012 453500                    STP3    REMAIN_LEN+1,,AUTO
        40 001144   200012 630500                    EPPR0   REMAIN_LEN+1,,AUTO
        40 001145   000001 631400 41                 EPPR1   1
PL6.E3A0      #003=Z8JT$ONLINE_TABLE_DUMP File=Z8JT.:Z8A6TSI                     SAT 08/09/97 13:36 Page:238
        40 001146   000000 701000 xent               TSX1    X8CO$CONV_TO_OCTAL
        40 001147   000000 011000                    NOP     0

     1253    11432    2                                  SUBSTR( OBUF,20,12 ) );
     1254    11433
     1255    11434    2       SUBSTR( OBUF,40,20 ) = 'Label_Records$';

  11434 40 001150   040000 100400                    MLR     fill='040'O
        40 001151   000143 000016 39                 ADSC9   99                       cn=0,n=14
        40 001152   000012 000024 38                 ADSC9   OBUF+10                  cn=0,n=20

     1256    11435    2       IF P$-> FILE_LTS.LABEL_RECORDS$ = ADDR(NIL) THEN

  11435 40 001153   200003 470500                    LDP0    @P$,,AUTO
        40 001154   000000 471500                    LDP1    0,,PR0
        40 001155   100026 236100                    LDQ     22,,PR1
        40 001156   000000 116000 41                 CMPQ    0
        40 001157   001163 601000 40                 TNZ     s:11438

     1257    11436    2         SUBSTR( OBUF,60,3 ) = 'Nil';

  11436 40 001160   000027 236000 39                 LDQ     23
        40 001161   000017 552070 38                 STBQ    OBUF+15,'70'O
        40 001162   001173 710000 40                 TRA     s:11440

     1258    11437    2       ELSE
     1259    11438    2         CALL X8CO$CONV_TO_OCTAL

  11438 40 001163   000004 236000 41                 LDQ     4
        40 001164   200013 756100                    STQ     REMAIN_LEN+2,,AUTO
        40 001165   100026 633500                    EPPR3   22,,PR1
        40 001166   200012 453500                    STP3    REMAIN_LEN+1,,AUTO
        40 001167   200012 630500                    EPPR0   REMAIN_LEN+1,,AUTO
        40 001170   000001 631400 41                 EPPR1   1
        40 001171   000000 701000 xent               TSX1    X8CO$CONV_TO_OCTAL
        40 001172   000000 011000                    NOP     0

PL6.E3A0      #003=Z8JT$ONLINE_TABLE_DUMP File=Z8JT.:Z8A6TSI                     SAT 08/09/97 13:36 Page:239
     1260    11439    2         (P$-> FILE_LTS.LABEL_RECORDS$, SUBSTR( OBUF,60,12 ) );
     1261    11440    2       CALL Z9AL$DUMP_LINE;

  11440 40 001173   000002 631400 41                 EPPR1   2
        40 001174   000000 701000 xent               TSX1    Z9AL$DUMP_LINE
        40 001175   000000 011000                    NOP     0

     1262    11441
     1263    11442    2       OBUF = 'File_Id$:';

  11442 40 001176   040000 100400                    MLR     fill='040'O
        40 001177   000147 000011 39                 ADSC9   103                      cn=0,n=9
        40 001200   000000 000170 38                 ADSC9   OBUF                     cn=0,n=120

     1264    11443    2       IF P$-> FILE_LTS.FILE_ID$ = ADDR(NIL) THEN

  11443 40 001201   200003 470500                    LDP0    @P$,,AUTO
        40 001202   000000 471500                    LDP1    0,,PR0
        40 001203   100027 236100                    LDQ     23,,PR1
        40 001204   000000 116000 41                 CMPQ    0
        40 001205   001211 601000 40                 TNZ     s:11446

     1265    11444    2         SUBSTR( OBUF,20,3 ) = 'Nil';

  11444 40 001206   000027 236000 39                 LDQ     23
        40 001207   000005 552070 38                 STBQ    OBUF+5,'70'O
        40 001210   001221 710000 40                 TRA     s:11448

     1266    11445    2       ELSE
     1267    11446    2         CALL X8CO$CONV_TO_OCTAL( P$-> FILE_LTS.FILE_ID$, SUBSTR( OBUF,20,12 ));

  11446 40 001211   000003 236000 41                 LDQ     3
        40 001212   200013 756100                    STQ     REMAIN_LEN+2,,AUTO
        40 001213   100027 633500                    EPPR3   23,,PR1
        40 001214   200012 453500                    STP3    REMAIN_LEN+1,,AUTO
        40 001215   200012 630500                    EPPR0   REMAIN_LEN+1,,AUTO
        40 001216   000001 631400 41                 EPPR1   1
PL6.E3A0      #003=Z8JT$ONLINE_TABLE_DUMP File=Z8JT.:Z8A6TSI                     SAT 08/09/97 13:36 Page:240
        40 001217   000000 701000 xent               TSX1    X8CO$CONV_TO_OCTAL
        40 001220   000000 011000                    NOP     0

     1268    11447
     1269    11448    2       SUBSTR( OBUF,40,20 ) = 'Retention$:';

  11448 40 001221   040000 100400                    MLR     fill='040'O
        40 001222   000152 000013 39                 ADSC9   106                      cn=0,n=11
        40 001223   000012 000024 38                 ADSC9   OBUF+10                  cn=0,n=20

     1270    11449    2       IF P$-> FILE_LTS.RETENTION$ = ADDR(NIL) THEN

  11449 40 001224   200003 470500                    LDP0    @P$,,AUTO
        40 001225   000000 471500                    LDP1    0,,PR0
        40 001226   100030 236100                    LDQ     24,,PR1
        40 001227   000000 116000 41                 CMPQ    0
        40 001230   001234 601000 40                 TNZ     s:11452

     1271    11450    2         SUBSTR( OBUF,60,3 ) = 'Nil';

  11450 40 001231   000027 236000 39                 LDQ     23
        40 001232   000017 552070 38                 STBQ    OBUF+15,'70'O
        40 001233   001244 710000 40                 TRA     s:11454

     1272    11451    2       ELSE
     1273    11452    2         CALL X8CO$CONV_TO_OCTAL( P$-> FILE_LTS.RETENTION$,

  11452 40 001234   000004 236000 41                 LDQ     4
        40 001235   200013 756100                    STQ     REMAIN_LEN+2,,AUTO
        40 001236   100030 633500                    EPPR3   24,,PR1
        40 001237   200012 453500                    STP3    REMAIN_LEN+1,,AUTO
        40 001240   200012 630500                    EPPR0   REMAIN_LEN+1,,AUTO
        40 001241   000001 631400 41                 EPPR1   1
        40 001242   000000 701000 xent               TSX1    X8CO$CONV_TO_OCTAL
        40 001243   000000 011000                    NOP     0

     1274    11453    2                                  SUBSTR( OBUF,60,12 ) );
PL6.E3A0      #003=Z8JT$ONLINE_TABLE_DUMP File=Z8JT.:Z8A6TSI                     SAT 08/09/97 13:36 Page:241
     1275    11454    2       CALL Z9AL$DUMP_LINE;

  11454 40 001244   000002 631400 41                 EPPR1   2
        40 001245   000000 701000 xent               TSX1    Z9AL$DUMP_LINE
        40 001246   000000 011000                    NOP     0

     1276    11455
     1277    11456    2       OBUF = 'Catalog$:';

  11456 40 001247   040000 100400                    MLR     fill='040'O
        40 001250   000155 000011 39                 ADSC9   109                      cn=0,n=9
        40 001251   000000 000170 38                 ADSC9   OBUF                     cn=0,n=120

     1278    11457    2       IF P$-> FILE_LTS.CATALOG$ = ADDR(NIL) THEN

  11457 40 001252   200003 470500                    LDP0    @P$,,AUTO
        40 001253   000000 471500                    LDP1    0,,PR0
        40 001254   100031 236100                    LDQ     25,,PR1
        40 001255   000000 116000 41                 CMPQ    0
        40 001256   001262 601000 40                 TNZ     s:11460

     1279    11458    2         SUBSTR( OBUF,20,3 ) = 'Nil';

  11458 40 001257   000027 236000 39                 LDQ     23
        40 001260   000005 552070 38                 STBQ    OBUF+5,'70'O
        40 001261   001272 710000 40                 TRA     s:11463

     1280    11459    2       ELSE
     1281    11460    2         CALL X8CO$CONV_TO_OCTAL( P$-> FILE_LTS.CATALOG$,

  11460 40 001262   000003 236000 41                 LDQ     3
        40 001263   200013 756100                    STQ     REMAIN_LEN+2,,AUTO
        40 001264   100031 633500                    EPPR3   25,,PR1
        40 001265   200012 453500                    STP3    REMAIN_LEN+1,,AUTO
        40 001266   200012 630500                    EPPR0   REMAIN_LEN+1,,AUTO
        40 001267   000001 631400 41                 EPPR1   1
        40 001270   000000 701000 xent               TSX1    X8CO$CONV_TO_OCTAL
PL6.E3A0      #003=Z8JT$ONLINE_TABLE_DUMP File=Z8JT.:Z8A6TSI                     SAT 08/09/97 13:36 Page:242
        40 001271   000000 011000                    NOP     0

     1282    11461    2                                  SUBSTR( OBUF,20,12 ) );
     1283    11462
     1284    11463    2       SUBSTR( OBUF,40,20 ) = 'Data_Record$:';

  11463 40 001272   040000 100400                    MLR     fill='040'O
        40 001273   000160 000015 39                 ADSC9   112                      cn=0,n=13
        40 001274   000012 000024 38                 ADSC9   OBUF+10                  cn=0,n=20

     1285    11464    2       IF P$-> FILE_LTS.DATA_RECORD$ = ADDR(NIL) THEN

  11464 40 001275   200003 470500                    LDP0    @P$,,AUTO
        40 001276   000000 471500                    LDP1    0,,PR0
        40 001277   100032 236100                    LDQ     26,,PR1
        40 001300   000000 116000 41                 CMPQ    0
        40 001301   001305 601000 40                 TNZ     s:11467

     1286    11465    2         SUBSTR( OBUF,60,3 ) = 'Nil';

  11465 40 001302   000027 236000 39                 LDQ     23
        40 001303   000017 552070 38                 STBQ    OBUF+15,'70'O
        40 001304   001315 710000 40                 TRA     s:11469

     1287    11466    2       ELSE
     1288    11467    2         CALL X8CO$CONV_TO_OCTAL( P$-> FILE_LTS.DATA_RECORD$,

  11467 40 001305   000004 236000 41                 LDQ     4
        40 001306   200013 756100                    STQ     REMAIN_LEN+2,,AUTO
        40 001307   100032 633500                    EPPR3   26,,PR1
        40 001310   200012 453500                    STP3    REMAIN_LEN+1,,AUTO
        40 001311   200012 630500                    EPPR0   REMAIN_LEN+1,,AUTO
        40 001312   000001 631400 41                 EPPR1   1
        40 001313   000000 701000 xent               TSX1    X8CO$CONV_TO_OCTAL
        40 001314   000000 011000                    NOP     0

     1289    11468    2                                  SUBSTR( OBUF,60,12 ) );
PL6.E3A0      #003=Z8JT$ONLINE_TABLE_DUMP File=Z8JT.:Z8A6TSI                     SAT 08/09/97 13:36 Page:243
     1290    11469    2       CALL Z9AL$DUMP_LINE;

  11469 40 001315   000002 631400 41                 EPPR1   2
        40 001316   000000 701000 xent               TSX1    Z9AL$DUMP_LINE
        40 001317   000000 011000                    NOP     0

     1291    11470
     1292    11471    2       OBUF = 'Linage:';

  11471 40 001320   040000 100400                    MLR     fill='040'O
        40 001321   000164 000007 39                 ADSC9   116                      cn=0,n=7
        40 001322   000000 000170 38                 ADSC9   OBUF                     cn=0,n=120

     1293    11472    2       SUBSTR( OBUF,10,13 ) = 'No_of_lines$:';

  11472 40 001323   040000 100400                    MLR     fill='040'O
        40 001324   000166 000015 39                 ADSC9   118                      cn=0,n=13
        40 001325   000002 400015 38                 ADSC9   OBUF+2                   cn=2,n=13

     1294    11473    2       IF P$-> FILE_LTS.LINAGE.NO_OF_LINES$ = ADDR(NIL) THEN

  11473 40 001326   200003 470500                    LDP0    @P$,,AUTO
        40 001327   000000 471500                    LDP1    0,,PR0
        40 001330   100033 236100                    LDQ     27,,PR1
        40 001331   000000 116000 41                 CMPQ    0
        40 001332   001337 601000 40                 TNZ     s:11476

     1295    11474    2         SUBSTR( OBUF,27,3 ) = 'Nil';

  11474 40 001333   040000 100400                    MLR     fill='040'O
        40 001334   000027 000003 39                 ADSC9   23                       cn=0,n=3
        40 001335   000006 600003 38                 ADSC9   OBUF+6                   cn=3,n=3
        40 001336   001347 710000 40                 TRA     s:11479

     1296    11475    2       ELSE
     1297    11476    2         CALL X8CO$CONV_TO_OCTAL( P$-> FILE_LTS.LINAGE.NO_OF_LINES$,

PL6.E3A0      #003=Z8JT$ONLINE_TABLE_DUMP File=Z8JT.:Z8A6TSI                     SAT 08/09/97 13:36 Page:244
  11476 40 001337   000006 236000 41                 LDQ     6
        40 001340   200013 756100                    STQ     REMAIN_LEN+2,,AUTO
        40 001341   100033 633500                    EPPR3   27,,PR1
        40 001342   200012 453500                    STP3    REMAIN_LEN+1,,AUTO
        40 001343   200012 630500                    EPPR0   REMAIN_LEN+1,,AUTO
        40 001344   000001 631400 41                 EPPR1   1
        40 001345   000000 701000 xent               TSX1    X8CO$CONV_TO_OCTAL
        40 001346   000000 011000                    NOP     0

     1298    11477    2                                  SUBSTR( OBUF,27,12 ) );
     1299    11478
     1300    11479    2       SUBSTR( OBUF,47,20 ) = 'Footing$:';

  11479 40 001347   040000 100400                    MLR     fill='040'O
        40 001350   000172 000011 39                 ADSC9   122                      cn=0,n=9
        40 001351   000013 600024 38                 ADSC9   OBUF+11                  cn=3,n=20

     1301    11480    2       IF P$-> FILE_LTS.LINAGE.FOOTING$ = ADDR(NIL) THEN

  11480 40 001352   200003 470500                    LDP0    @P$,,AUTO
        40 001353   000000 471500                    LDP1    0,,PR0
        40 001354   100034 236100                    LDQ     28,,PR1
        40 001355   000000 116000 41                 CMPQ    0
        40 001356   001363 601000 40                 TNZ     s:11483

     1302    11481    2         SUBSTR( OBUF,67,3 ) = 'Nil';

  11481 40 001357   040000 100400                    MLR     fill='040'O
        40 001360   000027 000003 39                 ADSC9   23                       cn=0,n=3
        40 001361   000020 600003 38                 ADSC9   OBUF+16                  cn=3,n=3
        40 001362   001373 710000 40                 TRA     s:11485

     1303    11482    2       ELSE
     1304    11483    2         CALL X8CO$CONV_TO_OCTAL( P$-> FILE_LTS.LINAGE.FOOTING$,

  11483 40 001363   000007 236000 41                 LDQ     7
        40 001364   200013 756100                    STQ     REMAIN_LEN+2,,AUTO
PL6.E3A0      #003=Z8JT$ONLINE_TABLE_DUMP File=Z8JT.:Z8A6TSI                     SAT 08/09/97 13:36 Page:245
        40 001365   100034 633500                    EPPR3   28,,PR1
        40 001366   200012 453500                    STP3    REMAIN_LEN+1,,AUTO
        40 001367   200012 630500                    EPPR0   REMAIN_LEN+1,,AUTO
        40 001370   000001 631400 41                 EPPR1   1
        40 001371   000000 701000 xent               TSX1    X8CO$CONV_TO_OCTAL
        40 001372   000000 011000                    NOP     0

     1305    11484    2                                  SUBSTR( OBUF,67,12 ) );
     1306    11485    2       CALL Z9AL$DUMP_LINE;

  11485 40 001373   000002 631400 41                 EPPR1   2
        40 001374   000000 701000 xent               TSX1    Z9AL$DUMP_LINE
        40 001375   000000 011000                    NOP     0

     1307    11486
     1308    11487    2       OBUF = '          Top$:';

  11487 40 001376   040000 100400                    MLR     fill='040'O
        40 001377   000175 000017 39                 ADSC9   125                      cn=0,n=15
        40 001400   000000 000170 38                 ADSC9   OBUF                     cn=0,n=120

     1309    11488    2       IF P$-> FILE_LTS.LINAGE.TOP$ = ADDR(NIL) THEN

  11488 40 001401   200003 470500                    LDP0    @P$,,AUTO
        40 001402   000000 471500                    LDP1    0,,PR0
        40 001403   100035 236100                    LDQ     29,,PR1
        40 001404   000000 116000 41                 CMPQ    0
        40 001405   001412 601000 40                 TNZ     s:11491

     1310    11489    2         SUBSTR( OBUF,27,3 ) = 'Nil';

  11489 40 001406   040000 100400                    MLR     fill='040'O
        40 001407   000027 000003 39                 ADSC9   23                       cn=0,n=3
        40 001410   000006 600003 38                 ADSC9   OBUF+6                   cn=3,n=3
        40 001411   001422 710000 40                 TRA     s:11494

     1311    11490    2       ELSE
PL6.E3A0      #003=Z8JT$ONLINE_TABLE_DUMP File=Z8JT.:Z8A6TSI                     SAT 08/09/97 13:36 Page:246
     1312    11491    2         CALL X8CO$CONV_TO_OCTAL( P$-> FILE_LTS.LINAGE.TOP$,

  11491 40 001412   000006 236000 41                 LDQ     6
        40 001413   200013 756100                    STQ     REMAIN_LEN+2,,AUTO
        40 001414   100035 633500                    EPPR3   29,,PR1
        40 001415   200012 453500                    STP3    REMAIN_LEN+1,,AUTO
        40 001416   200012 630500                    EPPR0   REMAIN_LEN+1,,AUTO
        40 001417   000001 631400 41                 EPPR1   1
        40 001420   000000 701000 xent               TSX1    X8CO$CONV_TO_OCTAL
        40 001421   000000 011000                    NOP     0

     1313    11492    2                                  SUBSTR( OBUF,27,12 ) );
     1314    11493
     1315    11494    2       SUBSTR( OBUF,47,20 ) = 'Bottom$:';

  11494 40 001422   040000 100400                    MLR     fill='040'O
        40 001423   000201 000010 39                 ADSC9   129                      cn=0,n=8
        40 001424   000013 600024 38                 ADSC9   OBUF+11                  cn=3,n=20

     1316    11495    2       IF P$-> FILE_LTS.LINAGE.BOTTOM$ = ADDR(NIL) THEN

  11495 40 001425   200003 470500                    LDP0    @P$,,AUTO
        40 001426   000000 471500                    LDP1    0,,PR0
        40 001427   100036 236100                    LDQ     30,,PR1
        40 001430   000000 116000 41                 CMPQ    0
        40 001431   001436 601000 40                 TNZ     s:11498

     1317    11496    2         SUBSTR( OBUF,67,3 ) = 'Nil';

  11496 40 001432   040000 100400                    MLR     fill='040'O
        40 001433   000027 000003 39                 ADSC9   23                       cn=0,n=3
        40 001434   000020 600003 38                 ADSC9   OBUF+16                  cn=3,n=3
        40 001435   001446 710000 40                 TRA     s:11500

     1318    11497    2       ELSE
     1319    11498    2          CALL X8CO$CONV_TO_OCTAL( P$-> FILE_LTS.LINAGE.BOTTOM$,

PL6.E3A0      #003=Z8JT$ONLINE_TABLE_DUMP File=Z8JT.:Z8A6TSI                     SAT 08/09/97 13:36 Page:247
  11498 40 001436   000007 236000 41                 LDQ     7
        40 001437   200013 756100                    STQ     REMAIN_LEN+2,,AUTO
        40 001440   100036 633500                    EPPR3   30,,PR1
        40 001441   200012 453500                    STP3    REMAIN_LEN+1,,AUTO
        40 001442   200012 630500                    EPPR0   REMAIN_LEN+1,,AUTO
        40 001443   000001 631400 41                 EPPR1   1
        40 001444   000000 701000 xent               TSX1    X8CO$CONV_TO_OCTAL
        40 001445   000000 011000                    NOP     0

     1320    11499    2                                   SUBSTR( OBUF,67,12 ) );
     1321    11500    2       CALL Z9AL$DUMP_LINE;

  11500 40 001446   000002 631400 41                 EPPR1   2
        40 001447   000000 701000 xent               TSX1    Z9AL$DUMP_LINE
        40 001450   000000 011000                    NOP     0

     1322    11501
     1323    11502    2       OBUF = 'Code_Set$:';

  11502 40 001451   040000 100400                    MLR     fill='040'O
        40 001452   000203 000012 39                 ADSC9   131                      cn=0,n=10
        40 001453   000000 000170 38                 ADSC9   OBUF                     cn=0,n=120

     1324    11503    2       IF P$-> FILE_LTS.CODE_SET$ = ADDR(NIL) THEN

  11503 40 001454   200003 470500                    LDP0    @P$,,AUTO
        40 001455   000000 471500                    LDP1    0,,PR0
        40 001456   100037 236100                    LDQ     31,,PR1
        40 001457   000000 116000 41                 CMPQ    0
        40 001460   001464 601000 40                 TNZ     s:11506

     1325    11504    2         SUBSTR( OBUF,20,3 ) = 'Nil';

  11504 40 001461   000027 236000 39                 LDQ     23
        40 001462   000005 552070 38                 STBQ    OBUF+5,'70'O
        40 001463   001474 710000 40                 TRA     s:11508

PL6.E3A0      #003=Z8JT$ONLINE_TABLE_DUMP File=Z8JT.:Z8A6TSI                     SAT 08/09/97 13:36 Page:248
     1326    11505    2       ELSE
     1327    11506    2         CALL X8CO$CONV_TO_OCTAL( P$-> FILE_LTS.CODE_SET$, SUBSTR( OBUF,20,12 ));

  11506 40 001464   000003 236000 41                 LDQ     3
        40 001465   200013 756100                    STQ     REMAIN_LEN+2,,AUTO
        40 001466   100037 633500                    EPPR3   31,,PR1
        40 001467   200012 453500                    STP3    REMAIN_LEN+1,,AUTO
        40 001470   200012 630500                    EPPR0   REMAIN_LEN+1,,AUTO
        40 001471   000001 631400 41                 EPPR1   1
        40 001472   000000 701000 xent               TSX1    X8CO$CONV_TO_OCTAL
        40 001473   000000 011000                    NOP     0

     1328    11507
     1329    11508    2       SUBSTR( OBUF,40,20 ) = 'Report$:';

  11508 40 001474   040000 100400                    MLR     fill='040'O
        40 001475   000206 000010 39                 ADSC9   134                      cn=0,n=8
        40 001476   000012 000024 38                 ADSC9   OBUF+10                  cn=0,n=20

     1330    11509    2       IF P$-> FILE_LTS.REPORT$ = ADDR(NIL) THEN

  11509 40 001477   200003 470500                    LDP0    @P$,,AUTO
        40 001500   000000 471500                    LDP1    0,,PR0
        40 001501   100040 236100                    LDQ     32,,PR1
        40 001502   000000 116000 41                 CMPQ    0
        40 001503   001507 601000 40                 TNZ     s:11512

     1331    11510    2         SUBSTR( OBUF,60,3 ) = 'Nil';

  11510 40 001504   000027 236000 39                 LDQ     23
        40 001505   000017 552070 38                 STBQ    OBUF+15,'70'O
        40 001506   001517 710000 40                 TRA     s:11513

     1332    11511    2       ELSE
     1333    11512    2         CALL X8CO$CONV_TO_OCTAL( P$-> FILE_LTS.REPORT$, SUBSTR( OBUF,60,12 ));

  11512 40 001507   000004 236000 41                 LDQ     4
PL6.E3A0      #003=Z8JT$ONLINE_TABLE_DUMP File=Z8JT.:Z8A6TSI                     SAT 08/09/97 13:36 Page:249
        40 001510   200013 756100                    STQ     REMAIN_LEN+2,,AUTO
        40 001511   100040 633500                    EPPR3   32,,PR1
        40 001512   200012 453500                    STP3    REMAIN_LEN+1,,AUTO
        40 001513   200012 630500                    EPPR0   REMAIN_LEN+1,,AUTO
        40 001514   000001 631400 41                 EPPR1   1
        40 001515   000000 701000 xent               TSX1    X8CO$CONV_TO_OCTAL
        40 001516   000000 011000                    NOP     0

     1334    11513    2       CALL Z9AL$DUMP_LINE;

  11513 40 001517   000002 631400 41                 EPPR1   2
        40 001520   000000 701000 xent               TSX1    Z9AL$DUMP_LINE
        40 001521   000000 011000                    NOP     0

     1335    11514
     1336    11515    2       OBUF = 'Position:';

  11515 40 001522   040000 100400                    MLR     fill='040'O
        40 001523   000210 000011 39                 ADSC9   136                      cn=0,n=9
        40 001524   000000 000170 38                 ADSC9   OBUF                     cn=0,n=120

     1337    11516    2       CALL X8CO$CONV_TO_DECIMAL( P$-> FILE_LTS.POSITION, SUBSTR( OBUF,20,13 ));

  11516 40 001525   200003 470500                    LDP0    @P$,,AUTO
        40 001526   000000 471500                    LDP1    0,,PR0
        40 001527   000003 236000 41                 LDQ     3
        40 001530   200013 756100                    STQ     REMAIN_LEN+2,,AUTO
        40 001531   100041 633500                    EPPR3   33,,PR1
        40 001532   200012 453500                    STP3    REMAIN_LEN+1,,AUTO
        40 001533   200012 630500                    EPPR0   REMAIN_LEN+1,,AUTO
        40 001534   000001 631400 41                 EPPR1   1
        40 001535   000000 701000 xent               TSX1    X8CO$CONV_TO_DECIMAL
        40 001536   000000 011000                    NOP     0

     1338    11517
     1339    11518    2       SUBSTR( OBUF,40,20 ) = 'Rerun_Num:';

PL6.E3A0      #003=Z8JT$ONLINE_TABLE_DUMP File=Z8JT.:Z8A6TSI                     SAT 08/09/97 13:36 Page:250
  11518 40 001537   040000 100400                    MLR     fill='040'O
        40 001540   000213 000012 39                 ADSC9   139                      cn=0,n=10
        40 001541   000012 000024 38                 ADSC9   OBUF+10                  cn=0,n=20

     1340    11519    2       CALL X8CO$CONV_TO_DECIMAL( P$-> FILE_LTS.RERUN_NUM, SUBSTR( OBUF,60,13 ));

  11519 40 001542   200003 470500                    LDP0    @P$,,AUTO
        40 001543   000000 471500                    LDP1    0,,PR0
        40 001544   000004 236000 41                 LDQ     4
        40 001545   200013 756100                    STQ     REMAIN_LEN+2,,AUTO
        40 001546   100050 633500                    EPPR3   40,,PR1
        40 001547   200012 453500                    STP3    REMAIN_LEN+1,,AUTO
        40 001550   200012 630500                    EPPR0   REMAIN_LEN+1,,AUTO
        40 001551   000001 631400 41                 EPPR1   1
        40 001552   000000 701000 xent               TSX1    X8CO$CONV_TO_DECIMAL
        40 001553   000000 011000                    NOP     0

     1341    11520    2       CALL Z9AL$DUMP_LINE;

  11520 40 001554   000002 631400 41                 EPPR1   2
        40 001555   000000 701000 xent               TSX1    Z9AL$DUMP_LINE
        40 001556   000000 011000                    NOP     0

     1342    11521    2       OBUF = '                         Head$           Link';

  11521 40 001557   040000 100400                    MLR     fill='040'O
        40 001560   000216 000055 39                 ADSC9   142                      cn=0,n=45
        40 001561   000000 000170 38                 ADSC9   OBUF                     cn=0,n=120

     1343    11522    2       CALL Z9AL$DUMP_LINE;

  11522 40 001562   000002 631400 41                 EPPR1   2
        40 001563   000000 701000 xent               TSX1    Z9AL$DUMP_LINE
        40 001564   000000 011000                    NOP     0

     1344    11523    2       OBUF = 'Same_Record:';

PL6.E3A0      #003=Z8JT$ONLINE_TABLE_DUMP File=Z8JT.:Z8A6TSI                     SAT 08/09/97 13:36 Page:251
  11523 40 001565   040000 100400                    MLR     fill='040'O
        40 001566   000232 000014 39                 ADSC9   154                      cn=0,n=12
        40 001567   000000 000170 38                 ADSC9   OBUF                     cn=0,n=120

     1345    11524    2       IF P$-> FILE_LTS.SAME_RECORD.HEAD$ = ADDR(NIL) THEN

  11524 40 001570   200003 470500                    LDP0    @P$,,AUTO
        40 001571   000000 471500                    LDP1    0,,PR0
        40 001572   100042 236100                    LDQ     34,,PR1
        40 001573   000000 116000 41                 CMPQ    0
        40 001574   001600 601000 40                 TNZ     s:11527

     1346    11525    2         SUBSTR( OBUF,20,3 ) = 'Nil';

  11525 40 001575   000027 236000 39                 LDQ     23
        40 001576   000005 552070 38                 STBQ    OBUF+5,'70'O
        40 001577   001610 710000 40                 TRA     s:11530

     1347    11526    2       ELSE
     1348    11527    2         CALL X8CO$CONV_TO_OCTAL( P$-> FILE_LTS.SAME_RECORD.HEAD$,

  11527 40 001600   000003 236000 41                 LDQ     3
        40 001601   200013 756100                    STQ     REMAIN_LEN+2,,AUTO
        40 001602   100042 633500                    EPPR3   34,,PR1
        40 001603   200012 453500                    STP3    REMAIN_LEN+1,,AUTO
        40 001604   200012 630500                    EPPR0   REMAIN_LEN+1,,AUTO
        40 001605   000001 631400 41                 EPPR1   1
        40 001606   000000 701000 xent               TSX1    X8CO$CONV_TO_OCTAL
        40 001607   000000 011000                    NOP     0

     1349    11528    2                                  SUBSTR( OBUF, 20, 12 ) );
     1350    11529
     1351    11530    2       IF P$-> FILE_LTS.SAME_RECORD.LINK = ADDR(NIL) THEN

  11530 40 001610   200003 470500                    LDP0    @P$,,AUTO
        40 001611   000000 471500                    LDP1    0,,PR0
        40 001612   100043 236100                    LDQ     35,,PR1
PL6.E3A0      #003=Z8JT$ONLINE_TABLE_DUMP File=Z8JT.:Z8A6TSI                     SAT 08/09/97 13:36 Page:252
        40 001613   000000 116000 41                 CMPQ    0
        40 001614   001620 601000 40                 TNZ     s:11533

     1352    11531    2         SUBSTR( OBUF, 40, 3 ) = 'Nil';

  11531 40 001615   000027 236000 39                 LDQ     23
        40 001616   000012 552070 38                 STBQ    OBUF+10,'70'O
        40 001617   001630 710000 40                 TRA     s:11535

     1353    11532    2       ELSE
     1354    11533    2         CALL X8CO$CONV_TO_OCTAL( P$-> FILE_LTS.SAME_RECORD.LINK,

  11533 40 001620   000010 236000 41                 LDQ     8
        40 001621   200013 756100                    STQ     REMAIN_LEN+2,,AUTO
        40 001622   100043 633500                    EPPR3   35,,PR1
        40 001623   200012 453500                    STP3    REMAIN_LEN+1,,AUTO
        40 001624   200012 630500                    EPPR0   REMAIN_LEN+1,,AUTO
        40 001625   000001 631400 41                 EPPR1   1
        40 001626   000000 701000 xent               TSX1    X8CO$CONV_TO_OCTAL
        40 001627   000000 011000                    NOP     0

     1355    11534    2                                  SUBSTR( OBUF, 40, 12 ) );
     1356    11535    2       CALL Z9AL$DUMP_LINE;

  11535 40 001630   000002 631400 41                 EPPR1   2
        40 001631   000000 701000 xent               TSX1    Z9AL$DUMP_LINE
        40 001632   000000 011000                    NOP     0

     1357    11536
     1358    11537    2       OBUF = 'Same_Area:';

  11537 40 001633   040000 100400                    MLR     fill='040'O
        40 001634   000235 000012 39                 ADSC9   157                      cn=0,n=10
        40 001635   000000 000170 38                 ADSC9   OBUF                     cn=0,n=120

     1359    11538    2       IF P$-> FILE_LTS.SAME_AREA.HEAD$ = ADDR(NIL) THEN

PL6.E3A0      #003=Z8JT$ONLINE_TABLE_DUMP File=Z8JT.:Z8A6TSI                     SAT 08/09/97 13:36 Page:253
  11538 40 001636   200003 470500                    LDP0    @P$,,AUTO
        40 001637   000000 471500                    LDP1    0,,PR0
        40 001640   100044 236100                    LDQ     36,,PR1
        40 001641   000000 116000 41                 CMPQ    0
        40 001642   001646 601000 40                 TNZ     s:11541

     1360    11539    2         SUBSTR( OBUF,20,3 ) = 'Nil';

  11539 40 001643   000027 236000 39                 LDQ     23
        40 001644   000005 552070 38                 STBQ    OBUF+5,'70'O
        40 001645   001656 710000 40                 TRA     s:11544

     1361    11540    2       ELSE
     1362    11541    2         CALL X8CO$CONV_TO_OCTAL( P$-> FILE_LTS.SAME_AREA.HEAD$,

  11541 40 001646   000003 236000 41                 LDQ     3
        40 001647   200013 756100                    STQ     REMAIN_LEN+2,,AUTO
        40 001650   100044 633500                    EPPR3   36,,PR1
        40 001651   200012 453500                    STP3    REMAIN_LEN+1,,AUTO
        40 001652   200012 630500                    EPPR0   REMAIN_LEN+1,,AUTO
        40 001653   000001 631400 41                 EPPR1   1
        40 001654   000000 701000 xent               TSX1    X8CO$CONV_TO_OCTAL
        40 001655   000000 011000                    NOP     0

     1363    11542    2                                  SUBSTR( OBUF, 20, 12 ) );
     1364    11543
     1365    11544    2       IF P$-> FILE_LTS.SAME_AREA.LINK = ADDR(NIL) THEN

  11544 40 001656   200003 470500                    LDP0    @P$,,AUTO
        40 001657   000000 471500                    LDP1    0,,PR0
        40 001660   100045 236100                    LDQ     37,,PR1
        40 001661   000000 116000 41                 CMPQ    0
        40 001662   001666 601000 40                 TNZ     s:11547

     1366    11545    2         SUBSTR( OBUF, 40, 3 ) = 'Nil';

  11545 40 001663   000027 236000 39                 LDQ     23
PL6.E3A0      #003=Z8JT$ONLINE_TABLE_DUMP File=Z8JT.:Z8A6TSI                     SAT 08/09/97 13:36 Page:254
        40 001664   000012 552070 38                 STBQ    OBUF+10,'70'O
        40 001665   001676 710000 40                 TRA     s:11549

     1367    11546    2       ELSE
     1368    11547    2         CALL X8CO$CONV_TO_OCTAL( P$-> FILE_LTS.SAME_AREA.LINK,

  11547 40 001666   000010 236000 41                 LDQ     8
        40 001667   200013 756100                    STQ     REMAIN_LEN+2,,AUTO
        40 001670   100045 633500                    EPPR3   37,,PR1
        40 001671   200012 453500                    STP3    REMAIN_LEN+1,,AUTO
        40 001672   200012 630500                    EPPR0   REMAIN_LEN+1,,AUTO
        40 001673   000001 631400 41                 EPPR1   1
        40 001674   000000 701000 xent               TSX1    X8CO$CONV_TO_OCTAL
        40 001675   000000 011000                    NOP     0

     1369    11548    2                                  SUBSTR( OBUF, 40, 12 ) );
     1370    11549    2       CALL Z9AL$DUMP_LINE;

  11549 40 001676   000002 631400 41                 EPPR1   2
        40 001677   000000 701000 xent               TSX1    Z9AL$DUMP_LINE
        40 001700   000000 011000                    NOP     0

     1371    11550
     1372    11551    2       OBUF = 'Mult_Tape:';

  11551 40 001701   040000 100400                    MLR     fill='040'O
        40 001702   000240 000012 39                 ADSC9   160                      cn=0,n=10
        40 001703   000000 000170 38                 ADSC9   OBUF                     cn=0,n=120

     1373    11552    2       IF P$-> FILE_LTS.MULT_TAPE.HEAD$ = ADDR(NIL) THEN

  11552 40 001704   200003 470500                    LDP0    @P$,,AUTO
        40 001705   000000 471500                    LDP1    0,,PR0
        40 001706   100046 236100                    LDQ     38,,PR1
        40 001707   000000 116000 41                 CMPQ    0
        40 001710   001714 601000 40                 TNZ     s:11555

PL6.E3A0      #003=Z8JT$ONLINE_TABLE_DUMP File=Z8JT.:Z8A6TSI                     SAT 08/09/97 13:36 Page:255
     1374    11553    2         SUBSTR( OBUF,20,3 ) = 'Nil';

  11553 40 001711   000027 236000 39                 LDQ     23
        40 001712   000005 552070 38                 STBQ    OBUF+5,'70'O
        40 001713   001724 710000 40                 TRA     s:11558

     1375    11554    2       ELSE
     1376    11555    2         CALL X8CO$CONV_TO_OCTAL( P$-> FILE_LTS.MULT_TAPE.HEAD$,

  11555 40 001714   000003 236000 41                 LDQ     3
        40 001715   200013 756100                    STQ     REMAIN_LEN+2,,AUTO
        40 001716   100046 633500                    EPPR3   38,,PR1
        40 001717   200012 453500                    STP3    REMAIN_LEN+1,,AUTO
        40 001720   200012 630500                    EPPR0   REMAIN_LEN+1,,AUTO
        40 001721   000001 631400 41                 EPPR1   1
        40 001722   000000 701000 xent               TSX1    X8CO$CONV_TO_OCTAL
        40 001723   000000 011000                    NOP     0

     1377    11556    2                                  SUBSTR( OBUF, 20, 12 ) );
     1378    11557
     1379    11558    2       IF P$-> FILE_LTS.MULT_TAPE.LINK = ADDR(NIL) THEN

  11558 40 001724   200003 470500                    LDP0    @P$,,AUTO
        40 001725   000000 471500                    LDP1    0,,PR0
        40 001726   100047 236100                    LDQ     39,,PR1
        40 001727   000000 116000 41                 CMPQ    0
        40 001730   001734 601000 40                 TNZ     s:11561

     1380    11559    2         SUBSTR( OBUF, 60, 3 ) = 'Nil';

  11559 40 001731   000027 236000 39                 LDQ     23
        40 001732   000017 552070 38                 STBQ    OBUF+15,'70'O
        40 001733   001744 710000 40                 TRA     s:11563

     1381    11560    2       ELSE
     1382    11561    2         CALL X8CO$CONV_TO_OCTAL( P$-> FILE_LTS.MULT_TAPE.LINK,

PL6.E3A0      #003=Z8JT$ONLINE_TABLE_DUMP File=Z8JT.:Z8A6TSI                     SAT 08/09/97 13:36 Page:256
  11561 40 001734   000010 236000 41                 LDQ     8
        40 001735   200013 756100                    STQ     REMAIN_LEN+2,,AUTO
        40 001736   100047 633500                    EPPR3   39,,PR1
        40 001737   200012 453500                    STP3    REMAIN_LEN+1,,AUTO
        40 001740   200012 630500                    EPPR0   REMAIN_LEN+1,,AUTO
        40 001741   000001 631400 41                 EPPR1   1
        40 001742   000000 701000 xent               TSX1    X8CO$CONV_TO_OCTAL
        40 001743   000000 011000                    NOP     0

     1383    11562    2                                  SUBSTR( OBUF, 40, 12 ) );
     1384    11563    2       CALL Z9AL$DUMP_LINE;

  11563 40 001744   000002 631400 41                 EPPR1   2
        40 001745   000000 701000 xent               TSX1    Z9AL$DUMP_LINE
        40 001746   000000 011000                    NOP     0

     1385    11564
     1386    11565    2     END DUMP_FILE_LTS_ONLINE;

  11565 40 001747   200006 221300                    LDX1  ! LENGTH+2,,AUTO
        40 001750   000001 702211                    TSX2  ! 1,X1

     1387    11566        %EJECT;
PL6.E3A0      #003=Z8JT$ONLINE_TABLE_DUMP File=Z8JT.:Z8A6TSI                     SAT 08/09/97 13:36 Page:257
     1388    11567    1     DUMP_QLT_ONLINE: PROC;

  11567 40 001751   200006 741300       DUMP_QLT_ON* STX1  ! LENGTH+2,,AUTO

     1389    11568
     1390    11569    2       OBUF = '          QLT  Item';

  11569 40 001752   040000 100400                    MLR     fill='040'O
        40 001753   000243 000023 39                 ADSC9   163                      cn=0,n=19
        40 001754   000000 000170 38                 ADSC9   OBUF                     cn=0,n=120

     1391    11570    2       CALL Z9AL$DUMP_LINE;

  11570 40 001755   000002 631400 41                 EPPR1   2
        40 001756   000000 701000 xent               TSX1    Z9AL$DUMP_LINE
        40 001757   000000 011000                    NOP     0

     1392    11571    2       OBUF = '          ---  ----';

  11571 40 001760   040000 100400                    MLR     fill='040'O
        40 001761   000250 000023 39                 ADSC9   168                      cn=0,n=19
        40 001762   000000 000170 38                 ADSC9   OBUF                     cn=0,n=120

     1393    11572    2       CALL Z9AL$DUMP_LINE;

  11572 40 001763   000002 631400 41                 EPPR1   2
        40 001764   000000 701000 xent               TSX1    Z9AL$DUMP_LINE
        40 001765   000000 011000                    NOP     0

     1394    11573
     1395    11574    2       OBUF = 'ID:';

  11574 40 001766   040000 100400                    MLR     fill='040'O
        40 001767   000255 000003 39                 ADSC9   173                      cn=0,n=3
        40 001770   000000 000170 38                 ADSC9   OBUF                     cn=0,n=120

     1396    11575    2       SUBSTR( OBUF,20,8 ) = NAMES( P$-> QLT.ID );
PL6.E3A0      #003=Z8JT$ONLINE_TABLE_DUMP File=Z8JT.:Z8A6TSI                     SAT 08/09/97 13:36 Page:258

  11575 40 001771   200003 470500                    LDP0    @P$,,AUTO
        40 001772   000000 471500                    LDP1    0,,PR0
        40 001773   100000 220100                    LDX0    0,,PR1
        40 001774   100000 020100                    ADLX0   0,,PR1
        40 001775   100000 020100                    ADLX0   0,,PR1
        40 001776   000000 635010                    EAA     0,X0
        40 001777   000020 771000                    ARL     16
        40 002000   040000 100405                    MLR     fill='040'O
        40 002001   000000 000010 xsym               ADSC9   NAMES,A                  cn=0,n=8
        40 002002   000005 000010 38                 ADSC9   OBUF+5                   cn=0,n=8

     1397    11576    2       CALL Z9AL$DUMP_LINE;

  11576 40 002003   000002 631400 41                 EPPR1   2
        40 002004   000000 701000 xent               TSX1    Z9AL$DUMP_LINE
        40 002005   000000 011000                    NOP     0

     1398    11577
     1399    11578    2       OBUF = 'Bits:';

  11578 40 002006   040000 100400                    MLR     fill='040'O
        40 002007   000126 000005 39                 ADSC9   86                       cn=0,n=5
        40 002010   000000 000170 38                 ADSC9   OBUF                     cn=0,n=120

     1400    11579    2       CALL Z9AL$DUMP_LINE;

  11579 40 002011   000002 631400 41                 EPPR1   2
        40 002012   000000 701000 xent               TSX1    Z9AL$DUMP_LINE
        40 002013   000000 011000                    NOP     0

     1401    11580    2       OBUF = '      Occurs:';

  11580 40 002014   040000 100400                    MLR     fill='040'O
        40 002015   000256 000015 39                 ADSC9   174                      cn=0,n=13
        40 002016   000000 000170 38                 ADSC9   OBUF                     cn=0,n=120

PL6.E3A0      #003=Z8JT$ONLINE_TABLE_DUMP File=Z8JT.:Z8A6TSI                     SAT 08/09/97 13:36 Page:259
     1402    11581    2       IF P$-> QLT.B.OCCURS THEN

  11581 40 002017   200003 470500                    LDP0    @P$,,AUTO
        40 002020   000000 471500                    LDP1    0,,PR0
        40 002021   100000 236100                    LDQ     0,,PR1
        40 002022   400000 316007                    CANQ    -131072,DL
        40 002023   002027 600000 40                 TZE     s:11584

     1403    11582    2         SUBSTR( OBUF,20,2 ) = 'On';

  11582 40 002024   000262 220000 39                 LDX0    178
        40 002025   000005 740000 38                 STX0    OBUF+5
        40 002026   002031 710000 40                 TRA     s:11585

     1404    11583    2       ELSE
     1405    11584    2         SUBSTR( OBUF,20,3 ) = 'Off';

  11584 40 002027   000263 236000 39                 LDQ     179
        40 002030   000005 552070 38                 STBQ    OBUF+5,'70'O

     1406    11585    2       CALL Z9AL$DUMP_LINE;

  11585 40 002031   000002 631400 41                 EPPR1   2
        40 002032   000000 701000 xent               TSX1    Z9AL$DUMP_LINE
        40 002033   000000 011000                    NOP     0

     1407    11586
     1408    11587    2       OBUF = '      Sync:';

  11587 40 002034   040000 100400                    MLR     fill='040'O
        40 002035   000264 000013 39                 ADSC9   180                      cn=0,n=11
        40 002036   000000 000170 38                 ADSC9   OBUF                     cn=0,n=120

     1409    11588    2       IF P$-> QLT.B.SYNC THEN

  11588 40 002037   200003 470500                    LDP0    @P$,,AUTO
        40 002040   000000 471500                    LDP1    0,,PR0
PL6.E3A0      #003=Z8JT$ONLINE_TABLE_DUMP File=Z8JT.:Z8A6TSI                     SAT 08/09/97 13:36 Page:260
        40 002041   100000 236100                    LDQ     0,,PR1
        40 002042   200000 316007                    CANQ    65536,DL
        40 002043   002047 600000 40                 TZE     s:11591

     1410    11589    2         SUBSTR( OBUF,20,2 ) = 'On';

  11589 40 002044   000262 220000 39                 LDX0    178
        40 002045   000005 740000 38                 STX0    OBUF+5
        40 002046   002051 710000 40                 TRA     s:11592

     1411    11590    2       ELSE
     1412    11591    2         SUBSTR( OBUF,20,3 ) = 'Off';

  11591 40 002047   000263 236000 39                 LDQ     179
        40 002050   000005 552070 38                 STBQ    OBUF+5,'70'O

     1413    11592    2       CALL Z9AL$DUMP_LINE;

  11592 40 002051   000002 631400 41                 EPPR1   2
        40 002052   000000 701000 xent               TSX1    Z9AL$DUMP_LINE
        40 002053   000000 011000                    NOP     0

     1414    11593
     1415    11594    2       OBUF = '      Digit:';

  11594 40 002054   040000 100400                    MLR     fill='040'O
        40 002055   000267 000014 39                 ADSC9   183                      cn=0,n=12
        40 002056   000000 000170 38                 ADSC9   OBUF                     cn=0,n=120

     1416    11595    2       IF P$-> QLT.B.DIGIT THEN

  11595 40 002057   200003 470500                    LDP0    @P$,,AUTO
        40 002060   000000 471500                    LDP1    0,,PR0
        40 002061   100000 236100                    LDQ     0,,PR1
        40 002062   100000 316007                    CANQ    32768,DL
        40 002063   002067 600000 40                 TZE     s:11598

PL6.E3A0      #003=Z8JT$ONLINE_TABLE_DUMP File=Z8JT.:Z8A6TSI                     SAT 08/09/97 13:36 Page:261
     1417    11596    2         SUBSTR( OBUF,20,2 ) = 'On';

  11596 40 002064   000262 220000 39                 LDX0    178
        40 002065   000005 740000 38                 STX0    OBUF+5
        40 002066   002071 710000 40                 TRA     s:11599

     1418    11597    2       ELSE
     1419    11598    2         SUBSTR( OBUF,20,3 ) = 'Off';

  11598 40 002067   000263 236000 39                 LDQ     179
        40 002070   000005 552070 38                 STBQ    OBUF+5,'70'O

     1420    11599    2       CALL Z9AL$DUMP_LINE;

  11599 40 002071   000002 631400 41                 EPPR1   2
        40 002072   000000 701000 xent               TSX1    Z9AL$DUMP_LINE
        40 002073   000000 011000                    NOP     0

     1421    11600
     1422    11601    2       OBUF = '      Renames:';

  11601 40 002074   040000 100400                    MLR     fill='040'O
        40 002075   000272 000016 39                 ADSC9   186                      cn=0,n=14
        40 002076   000000 000170 38                 ADSC9   OBUF                     cn=0,n=120

     1423    11602    2       IF P$-> QLT.B.RENAMES THEN

  11602 40 002077   200003 470500                    LDP0    @P$,,AUTO
        40 002100   000000 471500                    LDP1    0,,PR0
        40 002101   100000 236100                    LDQ     0,,PR1
        40 002102   040000 316007                    CANQ    16384,DL
        40 002103   002107 600000 40                 TZE     s:11605

     1424    11603    2         SUBSTR ( OBUF,20,2 ) = 'On';

  11603 40 002104   000262 220000 39                 LDX0    178
        40 002105   000005 740000 38                 STX0    OBUF+5
PL6.E3A0      #003=Z8JT$ONLINE_TABLE_DUMP File=Z8JT.:Z8A6TSI                     SAT 08/09/97 13:36 Page:262
        40 002106   002111 710000 40                 TRA     s:11606

     1425    11604    2       ELSE
     1426    11605    2         SUBSTR( OBUF,20,3 ) = 'Off';

  11605 40 002107   000263 236000 39                 LDQ     179
        40 002110   000005 552070 38                 STBQ    OBUF+5,'70'O

     1427    11606    2       CALL Z9AL$DUMP_LINE;

  11606 40 002111   000002 631400 41                 EPPR1   2
        40 002112   000000 701000 xent               TSX1    Z9AL$DUMP_LINE
        40 002113   000000 011000                    NOP     0

     1428    11607
     1429    11608    2       OBUF = ' ';

  11608 40 002114   040000 100400                    MLR     fill='040'O
        40 002115   000011 000001 41                 ADSC9   9                        cn=0,n=1
        40 002116   000000 000170 38                 ADSC9   OBUF                     cn=0,n=120

     1430    11609    2       CALL Z9AL$DUMP_LINE;

  11609 40 002117   000002 631400 41                 EPPR1   2
        40 002120   000000 701000 xent               TSX1    Z9AL$DUMP_LINE
        40 002121   000000 011000                    NOP     0

     1431    11610
     1432    11611
     1433    11612    2       OBUF = 'Level:';

  11612 40 002122   040000 100400                    MLR     fill='040'O
        40 002123   000276 000006 39                 ADSC9   190                      cn=0,n=6
        40 002124   000000 000170 38                 ADSC9   OBUF                     cn=0,n=120

     1434    11613    2      CALL X8CO$CONV_TO_DECIMAL( BINBIT( P$->QLT.LEVEL_NO,36 ), SUBSTR( OBUF,20,13 ));

PL6.E3A0      #003=Z8JT$ONLINE_TABLE_DUMP File=Z8JT.:Z8A6TSI                     SAT 08/09/97 13:36 Page:263
  11613 40 002125   200003 470500                    LDP0    @P$,,AUTO
        40 002126   000000 471500                    LDP1    0,,PR0
        40 002127   100000 236100                    LDQ     0,,PR1
        40 002130   000777 376007                    ANQ     511,DL
        40 002131   200012 756100                    STQ     REMAIN_LEN+1,,AUTO
        40 002132   000003 236000 41                 LDQ     3
        40 002133   200015 756100                    STQ     REMAIN_LEN+4,,AUTO
        40 002134   200012 631500                    EPPR1   REMAIN_LEN+1,,AUTO
        40 002135   200014 451500                    STP1    REMAIN_LEN+3,,AUTO
        40 002136   200014 630500                    EPPR0   REMAIN_LEN+3,,AUTO
        40 002137   000001 631400 41                 EPPR1   1
        40 002140   000000 701000 xent               TSX1    X8CO$CONV_TO_DECIMAL
        40 002141   000000 011000                    NOP     0

     1435    11614    2       CALL Z9AL$DUMP_LINE;

  11614 40 002142   000002 631400 41                 EPPR1   2
        40 002143   000000 701000 xent               TSX1    Z9AL$DUMP_LINE
        40 002144   000000 011000                    NOP     0

     1436    11615
     1437    11616    2       OBUF = 'Name:';

  11616 40 002145   040000 100400                    MLR     fill='040'O
        40 002146   000300 000005 39                 ADSC9   192                      cn=0,n=5
        40 002147   000000 000170 38                 ADSC9   OBUF                     cn=0,n=120

     1438    11617    2       SUBSTR( OBUF,20,P$-> QLT.DNT$-> DNT.TEXT.LENGTH ) =

  11617 40 002150   200003 470500                    LDP0    @P$,,AUTO
        40 002151   000000 471500                    LDP1    0,,PR0
        40 002152   100005 473500                    LDP3    5,,PR1
        40 002153   300004 220100                    LDX0    4,,PR3
        40 002154   300004 221100                    LDX1    4,,PR3
        40 002155   040040 100540                    MLR     fill='040'O
        40 002156   300004 400011                    ADSC9   4,,PR3                   cn=2,n=*X1
        40 002157   000005 000010 38                 ADSC9   OBUF+5                   cn=0,n=*X0
PL6.E3A0      #003=Z8JT$ONLINE_TABLE_DUMP File=Z8JT.:Z8A6TSI                     SAT 08/09/97 13:36 Page:264

     1439    11618    2             P$-> QLT.DNT$-> DNT.TEXT.NAME ;
     1440    11619    2       CALL Z9AL$DUMP_LINE;

  11619 40 002160   000002 631400 41                 EPPR1   2
        40 002161   000000 701000 xent               TSX1    Z9AL$DUMP_LINE
        40 002162   000000 011000                    NOP     0

     1441    11620
     1442    11621    2       OBUF = 'Father:';

  11621 40 002163   040000 100400                    MLR     fill='040'O
        40 002164   000302 000007 39                 ADSC9   194                      cn=0,n=7
        40 002165   000000 000170 38                 ADSC9   OBUF                     cn=0,n=120

     1443    11622    2       IF P$-> QLT.FATHER ~= ADDR(NIL) THEN

  11622 40 002166   200003 470500                    LDP0    @P$,,AUTO
        40 002167   000000 471500                    LDP1    0,,PR0
        40 002170   100001 236100                    LDQ     1,,PR1
        40 002171   000000 116000 41                 CMPQ    0
        40 002172   002215 600000 40                 TZE     s:11629

     1444    11623    3         DO;

     1445    11624    3           CALL X8CO$CONV_TO_OCTAL( P$-> QLT.FATHER, SUBSTR( OBUF,20,12 ));

  11624 40 002173   000003 236000 41                 LDQ     3
        40 002174   200013 756100                    STQ     REMAIN_LEN+2,,AUTO
        40 002175   100001 633500                    EPPR3   1,,PR1
        40 002176   200012 453500                    STP3    REMAIN_LEN+1,,AUTO
        40 002177   200012 630500                    EPPR0   REMAIN_LEN+1,,AUTO
        40 002200   000001 631400 41                 EPPR1   1
        40 002201   000000 701000 xent               TSX1    X8CO$CONV_TO_OCTAL
        40 002202   000000 011000                    NOP     0

     1446    11625    3           SUBSTR( OBUF,35,P$-> QLT.FATHER-> QLT.DNT$-> DNT.TEXT.LENGTH ) =
PL6.E3A0      #003=Z8JT$ONLINE_TABLE_DUMP File=Z8JT.:Z8A6TSI                     SAT 08/09/97 13:36 Page:265

  11625 40 002203   200003 470500                    LDP0    @P$,,AUTO
        40 002204   000000 471500                    LDP1    0,,PR0
        40 002205   100001 473500                    LDP3    1,,PR1
        40 002206   300005 474500                    LDP4    5,,PR3
        40 002207   400004 220100                    LDX0    4,,PR4
        40 002210   400004 221100                    LDX1    4,,PR4
        40 002211   040040 100540                    MLR     fill='040'O
        40 002212   400004 400011                    ADSC9   4,,PR4                   cn=2,n=*X1
        40 002213   000010 600010 38                 ADSC9   OBUF+8                   cn=3,n=*X0

     1447    11626    3                 P$-> QLT.FATHER-> QLT.DNT$-> DNT.TEXT.NAME  ;
     1448    11627    3         END;

  11627 40 002214   002217 710000 40                 TRA     s:11630

     1449    11628    2       ELSE
     1450    11629    2         SUBSTR( OBUF,20,3 ) = 'Nil';

  11629 40 002215   000027 236000 39                 LDQ     23
        40 002216   000005 552070 38                 STBQ    OBUF+5,'70'O

     1451    11630    2       CALL Z9AL$DUMP_LINE;

  11630 40 002217   000002 631400 41                 EPPR1   2
        40 002220   000000 701000 xent               TSX1    Z9AL$DUMP_LINE
        40 002221   000000 011000                    NOP     0

     1452    11631
     1453    11632    2       OBUF = 'Brother:';

  11632 40 002222   040000 100400                    MLR     fill='040'O
        40 002223   000304 000010 39                 ADSC9   196                      cn=0,n=8
        40 002224   000000 000170 38                 ADSC9   OBUF                     cn=0,n=120

     1454    11633    2       IF P$-> QLT.BROTHER ~= ADDR(NIL) THEN

PL6.E3A0      #003=Z8JT$ONLINE_TABLE_DUMP File=Z8JT.:Z8A6TSI                     SAT 08/09/97 13:36 Page:266
  11633 40 002225   200003 470500                    LDP0    @P$,,AUTO
        40 002226   000000 471500                    LDP1    0,,PR0
        40 002227   100002 236100                    LDQ     2,,PR1
        40 002230   000000 116000 41                 CMPQ    0
        40 002231   002254 600000 40                 TZE     s:11640

     1455    11634    3         DO;

     1456    11635    3           CALL X8CO$CONV_TO_OCTAL( P$-> QLT.BROTHER, SUBSTR( OBUF,20,12 ));

  11635 40 002232   000003 236000 41                 LDQ     3
        40 002233   200013 756100                    STQ     REMAIN_LEN+2,,AUTO
        40 002234   100002 633500                    EPPR3   2,,PR1
        40 002235   200012 453500                    STP3    REMAIN_LEN+1,,AUTO
        40 002236   200012 630500                    EPPR0   REMAIN_LEN+1,,AUTO
        40 002237   000001 631400 41                 EPPR1   1
        40 002240   000000 701000 xent               TSX1    X8CO$CONV_TO_OCTAL
        40 002241   000000 011000                    NOP     0

     1457    11636    3           SUBSTR( OBUF,35,P$-> QLT.BROTHER-> QLT.DNT$-> DNT.TEXT.LENGTH ) =

  11636 40 002242   200003 470500                    LDP0    @P$,,AUTO
        40 002243   000000 471500                    LDP1    0,,PR0
        40 002244   100002 473500                    LDP3    2,,PR1
        40 002245   300005 474500                    LDP4    5,,PR3
        40 002246   400004 220100                    LDX0    4,,PR4
        40 002247   400004 221100                    LDX1    4,,PR4
        40 002250   040040 100540                    MLR     fill='040'O
        40 002251   400004 400011                    ADSC9   4,,PR4                   cn=2,n=*X1
        40 002252   000010 600010 38                 ADSC9   OBUF+8                   cn=3,n=*X0

     1458    11637    3                 P$-> QLT.BROTHER-> QLT.DNT$-> DNT.TEXT.NAME  ;
     1459    11638    3         END;

  11638 40 002253   002256 710000 40                 TRA     s:11641

     1460    11639    2       ELSE
PL6.E3A0      #003=Z8JT$ONLINE_TABLE_DUMP File=Z8JT.:Z8A6TSI                     SAT 08/09/97 13:36 Page:267
     1461    11640    2         SUBSTR( OBUF,20,3 ) = 'Nil' ;

  11640 40 002254   000027 236000 39                 LDQ     23
        40 002255   000005 552070 38                 STBQ    OBUF+5,'70'O

     1462    11641    2       CALL Z9AL$DUMP_LINE;

  11641 40 002256   000002 631400 41                 EPPR1   2
        40 002257   000000 701000 xent               TSX1    Z9AL$DUMP_LINE
        40 002260   000000 011000                    NOP     0

     1463    11642
     1464    11643    2       OBUF = 'Son:';

  11643 40 002261   040000 100400                    MLR     fill='040'O
        40 002262   000306 000004 39                 ADSC9   198                      cn=0,n=4
        40 002263   000000 000170 38                 ADSC9   OBUF                     cn=0,n=120

     1465    11644    2       IF P$-> QLT.SON ~= ADDR(NIL) THEN

  11644 40 002264   200003 470500                    LDP0    @P$,,AUTO
        40 002265   000000 471500                    LDP1    0,,PR0
        40 002266   100003 236100                    LDQ     3,,PR1
        40 002267   000000 116000 41                 CMPQ    0
        40 002270   002313 600000 40                 TZE     s:11651

     1466    11645    3         DO;

     1467    11646    3           CALL X8CO$CONV_TO_OCTAL( P$-> QLT.SON, SUBSTR( OBUF,20,12 ));

  11646 40 002271   000003 236000 41                 LDQ     3
        40 002272   200013 756100                    STQ     REMAIN_LEN+2,,AUTO
        40 002273   100003 633500                    EPPR3   3,,PR1
        40 002274   200012 453500                    STP3    REMAIN_LEN+1,,AUTO
        40 002275   200012 630500                    EPPR0   REMAIN_LEN+1,,AUTO
        40 002276   000001 631400 41                 EPPR1   1
        40 002277   000000 701000 xent               TSX1    X8CO$CONV_TO_OCTAL
PL6.E3A0      #003=Z8JT$ONLINE_TABLE_DUMP File=Z8JT.:Z8A6TSI                     SAT 08/09/97 13:36 Page:268
        40 002300   000000 011000                    NOP     0

     1468    11647    3           SUBSTR( OBUF,35,P$-> QLT.SON-> QLT.DNT$-> DNT.TEXT.LENGTH ) =

  11647 40 002301   200003 470500                    LDP0    @P$,,AUTO
        40 002302   000000 471500                    LDP1    0,,PR0
        40 002303   100003 473500                    LDP3    3,,PR1
        40 002304   300005 474500                    LDP4    5,,PR3
        40 002305   400004 220100                    LDX0    4,,PR4
        40 002306   400004 221100                    LDX1    4,,PR4
        40 002307   040040 100540                    MLR     fill='040'O
        40 002310   400004 400011                    ADSC9   4,,PR4                   cn=2,n=*X1
        40 002311   000010 600010 38                 ADSC9   OBUF+8                   cn=3,n=*X0

     1469    11648    3                 P$-> QLT.SON-> QLT.DNT$-> DNT.TEXT.NAME ;
     1470    11649    3         END;

  11649 40 002312   002315 710000 40                 TRA     s:11652

     1471    11650    2       ELSE
     1472    11651    2         SUBSTR( OBUF,20,3 ) = 'Nil';

  11651 40 002313   000027 236000 39                 LDQ     23
        40 002314   000005 552070 38                 STBQ    OBUF+5,'70'O

     1473    11652    2       CALL Z9AL$DUMP_LINE;

  11652 40 002315   000002 631400 41                 EPPR1   2
        40 002316   000000 701000 xent               TSX1    Z9AL$DUMP_LINE
        40 002317   000000 011000                    NOP     0

     1474    11653
     1475    11654    2       OBUF = 'St$:';

  11654 40 002320   040000 100400                    MLR     fill='040'O
        40 002321   000307 000004 39                 ADSC9   199                      cn=0,n=4
        40 002322   000000 000170 38                 ADSC9   OBUF                     cn=0,n=120
PL6.E3A0      #003=Z8JT$ONLINE_TABLE_DUMP File=Z8JT.:Z8A6TSI                     SAT 08/09/97 13:36 Page:269

     1476    11655    2       IF P$-> QLT.ST$ ~= ADDR(NIL) THEN

  11655 40 002323   200003 470500                    LDP0    @P$,,AUTO
        40 002324   000000 471500                    LDP1    0,,PR0
        40 002325   100004 236100                    LDQ     4,,PR1
        40 002326   000000 116000 41                 CMPQ    0
        40 002327   002341 600000 40                 TZE     s:11658

     1477    11656    2         CALL X8CO$CONV_TO_OCTAL( P$-> QLT.ST$, SUBSTR( OBUF,20,12 ));

  11656 40 002330   000003 236000 41                 LDQ     3
        40 002331   200013 756100                    STQ     REMAIN_LEN+2,,AUTO
        40 002332   100004 633500                    EPPR3   4,,PR1
        40 002333   200012 453500                    STP3    REMAIN_LEN+1,,AUTO
        40 002334   200012 630500                    EPPR0   REMAIN_LEN+1,,AUTO
        40 002335   000001 631400 41                 EPPR1   1
        40 002336   000000 701000 xent               TSX1    X8CO$CONV_TO_OCTAL
        40 002337   000000 011000                    NOP     0
        40 002340   002343 710000 40                 TRA     s:11659

     1478    11657    2       ELSE
     1479    11658    2         SUBSTR( OBUF,20,3 ) = 'Nil';

  11658 40 002341   000027 236000 39                 LDQ     23
        40 002342   000005 552070 38                 STBQ    OBUF+5,'70'O

     1480    11659    2       CALL Z9AL$DUMP_LINE;

  11659 40 002343   000002 631400 41                 EPPR1   2
        40 002344   000000 701000 xent               TSX1    Z9AL$DUMP_LINE
        40 002345   000000 011000                    NOP     0

     1481    11660
     1482    11661    2     END DUMP_QLT_ONLINE;

  11661 40 002346   200006 221300                    LDX1  ! LENGTH+2,,AUTO
PL6.E3A0      #003=Z8JT$ONLINE_TABLE_DUMP File=Z8JT.:Z8A6TSI                     SAT 08/09/97 13:36 Page:270
        40 002347   000001 702211                    TSX2  ! 1,X1

     1483    11662        %EJECT;
PL6.E3A0      #003=Z8JT$ONLINE_TABLE_DUMP File=Z8JT.:Z8A6TSI                     SAT 08/09/97 13:36 Page:271
     1484    11663    1     DUMP_LCNST_ONLINE:  PROC;

  11663 40 002350   200006 741300       DUMP_LCNST_* STX1  ! LENGTH+2,,AUTO

     1485    11664
     1486    11665    2       DCL NO_OF_WRITES   SBIN   WORD;
     1487    11666    2       DCL I              SBIN   WORD;
     1488    11667    2       DCL REMAIN_LEN     SBIN   WORD;
     1489    11668    2       OBUF = 'Character data?';

  11668 40 002351   040000 100400                    MLR     fill='040'O
        40 002352   000310 000017 39                 ADSC9   200                      cn=0,n=15
        40 002353   000000 000170 38                 ADSC9   OBUF                     cn=0,n=120

     1490    11669    2       CALL Z9AL$WRITE_TERMINAL;

  11669 40 002354   000002 631400 41                 EPPR1   2
        40 002355   000000 701000 xent               TSX1    Z9AL$WRITE_TERMINAL
        40 002356   000000 011000                    NOP     0

     1491    11670    2       OBUF = ' ';

  11670 40 002357   040000 100400                    MLR     fill='040'O
        40 002360   000011 000001 41                 ADSC9   9                        cn=0,n=1
        40 002361   000000 000170 38                 ADSC9   OBUF                     cn=0,n=120

     1492    11671    2       CALL Z9AL$READ_TERMINAL;

  11671 40 002362   000002 631400 41                 EPPR1   2
        40 002363   000000 701000 xent               TSX1    Z9AL$READ_TERMINAL
        40 002364   000000 011000                    NOP     0

     1493    11672    2       IF SUBSTR( INBUF,0,1 ) = 'Y' THEN

  11672 40 002365   000000 236000 37                 LDQ     INBUF
        40 002366   777000 376003                    ANQ     -512,DU
        40 002367   131000 116003                    CMPQ    45568,DU
PL6.E3A0      #003=Z8JT$ONLINE_TABLE_DUMP File=Z8JT.:Z8A6TSI                     SAT 08/09/97 13:36 Page:272
        40 002370   002443 601000 40                 TNZ     s:11687

     1494    11673    3         DO;

     1495    11674    3           REMAIN_LEN =    (P$->LCNST.N - 1) * 4;

  11674 40 002371   200003 470500                    LDP0    @P$,,AUTO
        40 002372   000000 471500                    LDP1    0,,PR0
        40 002373   100000 236100                    LDQ     0,,PR1
        40 002374   000002 736000                    QLS     2
        40 002375   000012 376000 41                 ANQ     10
        40 002376   000004 136007                    SBLQ    4,DL
        40 002377   200011 756100                    STQ     REMAIN_LEN,,AUTO

     1496    11675    3           NO_OF_WRITES =  (REMAIN_LEN + 49) / 50;

  11675 40 002400   000061 036007                    ADLQ    49,DL
        40 002401   000062 506007                    DIV     50,DL
        40 002402   200007 756100                    STQ     NO_OF_WRITES,,AUTO

     1497    11676    4           DO I = 1 TO NO_OF_WRITES;

  11676 40 002403   000001 235007                    LDA     1,DL
        40 002404   200010 755100                    STA     I,,AUTO
        40 002405   002437 710000 40                 TRA     s:11684+1

     1498    11677    4             IF REMAIN_LEN > 49 THEN

  11677 40 002406   200011 235100                    LDA     REMAIN_LEN,,AUTO
        40 002407   000061 115007                    CMPA    49,DL
        40 002410   002421 604400 40                 TMOZ    s:11680

     1499    11678    4               SUBSTR( OBUF,10,50 ) = SUBSTR( P$->LCNST.CONST,50 * (I-1),50);

  11678 40 002411   200003 470500                    LDP0    @P$,,AUTO
        40 002412   000000 471500                    LDP1    0,,PR0
        40 002413   200010 236100                    LDQ     I,,AUTO
PL6.E3A0      #003=Z8JT$ONLINE_TABLE_DUMP File=Z8JT.:Z8A6TSI                     SAT 08/09/97 13:36 Page:273
        40 002414   000062 402007                    MPY     50,DL
        40 002415   040000 100506                    MLR     fill='040'O
        40 002416   177764 400062                    ADSC9   -12,Q,PR1                cn=2,n=50
        40 002417   000002 400062 38                 ADSC9   OBUF+2                   cn=2,n=50
        40 002420   002431 710000 40                 TRA     s:11682

     1500    11679    4             ELSE
     1501    11680    4               SUBSTR( OBUF,10,REMAIN_LEN ) =

  11680 40 002421   200003 470500                    LDP0    @P$,,AUTO
        40 002422   000000 471500                    LDP1    0,,PR0
        40 002423   200010 236100                    LDQ     I,,AUTO
        40 002424   000062 402007                    MPY     50,DL
        40 002425   200011 720100                    LXL0    REMAIN_LEN,,AUTO
        40 002426   040040 100546                    MLR     fill='040'O
        40 002427   177764 400010                    ADSC9   -12,Q,PR1                cn=2,n=*X0
        40 002430   000002 400010 38                 ADSC9   OBUF+2                   cn=2,n=*X0

     1502    11681    4                     SUBSTR( P$->LCNST.CONST, 50 * (I-1), REMAIN_LEN );
     1503    11682    4             REMAIN_LEN = REMAIN_LEN - 50;

  11682 40 002431   000062 336007                    LCQ     50,DL
        40 002432   200011 056100                    ASQ     REMAIN_LEN,,AUTO

     1504    11683    4             CALL Z9AL$DUMP_LINE;

  11683 40 002433   000002 631400 41                 EPPR1   2
        40 002434   000000 701000 xent               TSX1    Z9AL$DUMP_LINE
        40 002435   000000 011000                    NOP     0

     1505    11684    4           END;

  11684 40 002436   200010 054100                    AOS     I,,AUTO
        40 002437   200010 236100                    LDQ     I,,AUTO
        40 002440   200007 116100                    CMPQ    NO_OF_WRITES,,AUTO
        40 002441   002406 604400 40                 TMOZ    s:11677

PL6.E3A0      #003=Z8JT$ONLINE_TABLE_DUMP File=Z8JT.:Z8A6TSI                     SAT 08/09/97 13:36 Page:274
     1506    11685    3         END;

  11685 40 002442   002456 710000 40                 TRA     s:11688

     1507    11686    2       ELSE
     1508    11687    2           CALL Z8JT$DUMP_ITEM( P$, P$->LCNST.N );  /*  Octal dump of constant */

  11687 40 002443   200003 470500                    LDP0    @P$,,AUTO
        40 002444   000000 471500                    LDP1    0,,PR0
        40 002445   200014 451500                    STP1    REMAIN_LEN+3,,AUTO
        40 002446   200014 236100                    LDQ     REMAIN_LEN+3,,AUTO
        40 002447   400000 036007                    ADLQ    -131072,DL
        40 002450   200003 235100                    LDA     @P$,,AUTO
        40 002451   200012 757100                    STAQ    REMAIN_LEN+1,,AUTO
        40 002452   200012 630500                    EPPR0   REMAIN_LEN+1,,AUTO
        40 002453   000001 631400 41                 EPPR1   1
        40 002454   000000 701000 xent               TSX1    Z8JT$DUMP_ITEM
        40 002455   000000 011000                    NOP     0

     1509    11688    2     END DUMP_LCNST_ONLINE;

  11688 40 002456   200006 221300                    LDX1  ! LENGTH+2,,AUTO
        40 002457   000001 702211                    TSX2  ! 1,X1
     1510    11689    1   END Z8JT$ONLINE_TABLE_DUMP;  /* proc */
     1511    11690        %EJECT;
PL6.E3A0      #003=Z8JT$ONLINE_TABLE_DUMP File=Z8JT.:Z8A6TSI                     SAT 08/09/97 13:36 Page:275

PL6.E3A0      #003=Z8JT$ONLINE_TABLE_DUMP File=Z8JT.:Z8A6TSI                     SAT 08/09/97 13:36 Page:276
--  Include file information  --

   Z8A_IO_EQUS.:Z8A6TOU  is referenced.
   Z8A_ST.:Z8A6TOU  cannot be made into a system file and is referenced.
   Z8A_QLT.:Z8A6TOU  cannot be made into a system file and is referenced.
   Z8A_OBJ.:Z8A6TOU  cannot be made into a system file and is referenced.
   Z8A_LTS.:Z8A6TOU  cannot be made into a system file and is referenced.
   Z8A_ILS.:Z8A6TOU  cannot be made into a system file and is referenced.
   Z8A_ILL.:Z8A6TOU  cannot be made into a system file and is referenced.
   Z8A_GST.:Z8A6TOU  cannot be made into a system file and is referenced.
   Z8A_ETT.:Z8A6TOU  cannot be made into a system file and is referenced.
   Z8A_ERR.:Z8A6TOU  cannot be made into a system file and is referenced.
   Z8A_DPI.:Z8A6TOU  cannot be made into a system file and is referenced.
   Z8A_DNT.:Z8A6TOU  cannot be made into a system file and is referenced.
   Z8A_COMCOM.:Z8A6TOU  cannot be made into a system file and is referenced.
   X8A_COM_MACS.:X8A6TOU  is referenced.
   Z8A_NAMES.:Z8A6TOU  cannot be made into a system file and is referenced.
   Z8A_SUPP_MAC.:Z8A6TOU  is referenced.
   Z8A_DEFC.:Z8A6TOU  cannot be made into a system file and is referenced.
      No diagnostics issued in procedure Z8JT$ONLINE_TABLE_DUMP.
PL6.E3A0      #003=Z8JT$ONLINE_TABLE_DUMP File=Z8JT.:Z8A6TSI                     SAT 08/09/97 13:36 Page:277

 **** Variables and constants ****

  ****  Section 000 LblCom ITERATION

  ****  Scalars and arrays  ****
OctLoc.c.b A Datatyp(siz) R M Lvl/name                 OctLoc.c.b A Datatyp(siz) R M Lvl/name

     0-0-0/w SBIN              1 ITERATION

  ****  Section 001 LblCom DNT$

  ****  Scalars and arrays  ****
OctLoc.c.b A Datatyp(siz) R M Lvl/name                 OctLoc.c.b A Datatyp(siz) R M Lvl/name

     0-0-0/w PTR         r     1 DNT$

  ****  Section 002 LblCom DNT_

  ****  Scalars and arrays  ****
OctLoc.c.b A Datatyp(siz) R M Lvl/name                 OctLoc.c.b A Datatyp(siz) R M Lvl/name

     0-0-0/w STRC(180)         1 DNT_

  ****  Section 003 LblCom DNT_BUCKET_NUMBER

  ****  Scalars and arrays  ****
OctLoc.c.b A Datatyp(siz) R M Lvl/name                 OctLoc.c.b A Datatyp(siz) R M Lvl/name

     0-0-0/w UBIN              1 DNT_BUCKET_NUMBER

  ****  Section 004 LblCom DNT_OF_1$

  ****  Scalars and arrays  ****
OctLoc.c.b A Datatyp(siz) R M Lvl/name                 OctLoc.c.b A Datatyp(siz) R M Lvl/name

     0-0-0/w PTR               1 DNT_OF_1$

PL6.E3A0      #003=Z8JT$ONLINE_TABLE_DUMP File=Z8JT.:Z8A6TSI                     SAT 08/09/97 13:36 Page:278
  ****  Section 005 LblCom DPI$

  ****  Scalars and arrays  ****
OctLoc.c.b A Datatyp(siz) R M Lvl/name                 OctLoc.c.b A Datatyp(siz) R M Lvl/name

     0-0-0/w PTR         r     1 DPI$

  ****  Section 006 LblCom DPI_

  ****  Scalars and arrays  ****
OctLoc.c.b A Datatyp(siz) R M Lvl/name                 OctLoc.c.b A Datatyp(siz) R M Lvl/name

     0-0-0/w STRC(180)         1 DPI_

  ****  Section 007 LblCom ERR$

  ****  Scalars and arrays  ****
OctLoc.c.b A Datatyp(siz) R M Lvl/name                 OctLoc.c.b A Datatyp(siz) R M Lvl/name

     0-0-0/w PTR         r     1 ERR$

  ****  Section 008 LblCom ERR_HEAD

  ****  Scalars and arrays  ****
OctLoc.c.b A Datatyp(siz) R M Lvl/name                 OctLoc.c.b A Datatyp(siz) R M Lvl/name

     0-0-0/w PTR               1 ERR_HEAD

  ****  Section 009 LblCom ERR_TAIL

  ****  Scalars and arrays  ****
OctLoc.c.b A Datatyp(siz) R M Lvl/name                 OctLoc.c.b A Datatyp(siz) R M Lvl/name

     0-0-0/w PTR               1 ERR_TAIL

  ****  Section 010 LblCom MAX_ERROR_GENERATED

PL6.E3A0      #003=Z8JT$ONLINE_TABLE_DUMP File=Z8JT.:Z8A6TSI                     SAT 08/09/97 13:36 Page:279
  ****  Scalars and arrays  ****
OctLoc.c.b A Datatyp(siz) R M Lvl/name                 OctLoc.c.b A Datatyp(siz) R M Lvl/name

     0-0-0/w SBIN              1 MAX_ERROR_GENERATED

  ****  Section 011 LblCom ERR_

  ****  Scalars and arrays  ****
OctLoc.c.b A Datatyp(siz) R M Lvl/name                 OctLoc.c.b A Datatyp(siz) R M Lvl/name

     0-0-0/w STRC(180)         1 ERR_

  ****  Section 012 LblCom ETT$

  ****  Scalars and arrays  ****
OctLoc.c.b A Datatyp(siz) R M Lvl/name                 OctLoc.c.b A Datatyp(siz) R M Lvl/name

     0-0-0/w PTR         r     1 ETT$

  ****  Section 013 LblCom HEAD_ETT$

  ****  Scalars and arrays  ****
OctLoc.c.b A Datatyp(siz) R M Lvl/name                 OctLoc.c.b A Datatyp(siz) R M Lvl/name

     0-0-0/w PTR               1 HEAD_ETT$

  ****  Section 014 LblCom ETT_BUCKETS

  ****  Scalars and arrays  ****
OctLoc.c.b A Datatyp(siz) R M Lvl/name                 OctLoc.c.b A Datatyp(siz) R M Lvl/name

     0-0-0/w PTR               1 ETT_BUCKETS(0:511)

  ****  Section 015 LblCom ETT_

  ****  Scalars and arrays  ****
OctLoc.c.b A Datatyp(siz) R M Lvl/name                 OctLoc.c.b A Datatyp(siz) R M Lvl/name
PL6.E3A0      #003=Z8JT$ONLINE_TABLE_DUMP File=Z8JT.:Z8A6TSI                     SAT 08/09/97 13:36 Page:280

     0-0-0/w STRC(180)         1 ETT_

  ****  Section 016 LblCom GST$

  ****  Scalars and arrays  ****
OctLoc.c.b A Datatyp(siz) R M Lvl/name                 OctLoc.c.b A Datatyp(siz) R M Lvl/name

     0-0-0/w PTR         r     1 GST$

  ****  Section 017 LblCom GST_

  ****  Scalars and arrays  ****
OctLoc.c.b A Datatyp(siz) R M Lvl/name                 OctLoc.c.b A Datatyp(siz) R M Lvl/name

     0-0-0/w STRC(180)         1 GST_

  ****  Section 018 LblCom ILL$

  ****  Scalars and arrays  ****
OctLoc.c.b A Datatyp(siz) R M Lvl/name                 OctLoc.c.b A Datatyp(siz) R M Lvl/name

     0-0-0/w PTR         r     1 ILL$

  ****  Section 019 LblCom ILL_

  ****  Scalars and arrays  ****
OctLoc.c.b A Datatyp(siz) R M Lvl/name                 OctLoc.c.b A Datatyp(siz) R M Lvl/name

     0-0-0/w STRC(180)         1 ILL_

  ****  Section 020 LblCom ILS$

  ****  Scalars and arrays  ****
OctLoc.c.b A Datatyp(siz) R M Lvl/name                 OctLoc.c.b A Datatyp(siz) R M Lvl/name

     0-0-0/w PTR         r     1 ILS$
PL6.E3A0      #003=Z8JT$ONLINE_TABLE_DUMP File=Z8JT.:Z8A6TSI                     SAT 08/09/97 13:36 Page:281

  ****  Section 021 LblCom ILS_

  ****  Scalars and arrays  ****
OctLoc.c.b A Datatyp(siz) R M Lvl/name                 OctLoc.c.b A Datatyp(siz) R M Lvl/name

     0-0-0/w STRC(180)         1 ILS_

  ****  Section 022 LblCom LTS$

  ****  Scalars and arrays  ****
OctLoc.c.b A Datatyp(siz) R M Lvl/name                 OctLoc.c.b A Datatyp(siz) R M Lvl/name

     0-0-0/w PTR               1 LONG_ITEM$                 0-0-0/w PTR         r     1 LTS$

  ****  Section 023 LblCom LTS_

  ****  Scalars and arrays  ****
OctLoc.c.b A Datatyp(siz) R M Lvl/name                 OctLoc.c.b A Datatyp(siz) R M Lvl/name

     0-0-0/w STRC(180)         1 LTS_

  ****  Section 024 LblCom OBJ$

  ****  Scalars and arrays  ****
OctLoc.c.b A Datatyp(siz) R M Lvl/name                 OctLoc.c.b A Datatyp(siz) R M Lvl/name

     0-0-0/w PTR         r     1 OBJ$

  ****  Section 025 LblCom PAGING_OBJ

  ****  Scalars and arrays  ****
OctLoc.c.b A Datatyp(siz) R M Lvl/name                 OctLoc.c.b A Datatyp(siz) R M Lvl/name

     0-0-0/w BIT               1 PAGING_OBJ

  ****  Section 026 LblCom OBJ_PAGE_COUNT
PL6.E3A0      #003=Z8JT$ONLINE_TABLE_DUMP File=Z8JT.:Z8A6TSI                     SAT 08/09/97 13:36 Page:282

  ****  Scalars and arrays  ****
OctLoc.c.b A Datatyp(siz) R M Lvl/name                 OctLoc.c.b A Datatyp(siz) R M Lvl/name

     0-0-0/w SBIN              1 OBJ_PAGE_COUNT

  ****  Section 027 LblCom OBJ_FINISHED

  ****  Scalars and arrays  ****
OctLoc.c.b A Datatyp(siz) R M Lvl/name                 OctLoc.c.b A Datatyp(siz) R M Lvl/name

     0-0-0/w BIT               1 OBJ_FINISHED

  ****  Section 028 LblCom OBJ_SEG_SIZE

  ****  Scalars and arrays  ****
OctLoc.c.b A Datatyp(siz) R M Lvl/name                 OctLoc.c.b A Datatyp(siz) R M Lvl/name

     0-0-0/w SBIN              1 OBJ_SEG_SIZE

  ****  Section 029 LblCom OBJ_TOP_NEW_SEG

  ****  Scalars and arrays  ****
OctLoc.c.b A Datatyp(siz) R M Lvl/name                 OctLoc.c.b A Datatyp(siz) R M Lvl/name

     0-0-0/w PTR               1 OBJ_TOP_NEW_SEG

  ****  Section 030 LblCom OBJ_LAST_REGULAR_PAGE

  ****  Scalars and arrays  ****
OctLoc.c.b A Datatyp(siz) R M Lvl/name                 OctLoc.c.b A Datatyp(siz) R M Lvl/name

     0-0-0/w PTR               1 OBJ_LAST_REGULAR_PAGE

  ****  Section 031 LblCom OBJ_

  ****  Scalars and arrays  ****
PL6.E3A0      #003=Z8JT$ONLINE_TABLE_DUMP File=Z8JT.:Z8A6TSI                     SAT 08/09/97 13:36 Page:283
OctLoc.c.b A Datatyp(siz) R M Lvl/name                 OctLoc.c.b A Datatyp(siz) R M Lvl/name

     0-0-0/w STRC(180)         1 OBJ_

  ****  Section 032 LblCom QLT$

  ****  Scalars and arrays  ****
OctLoc.c.b A Datatyp(siz) R M Lvl/name                 OctLoc.c.b A Datatyp(siz) R M Lvl/name

     0-0-0/w PTR         r     1 QLT$

  ****  Section 033 LblCom PREV_01_QLT$

  ****  Scalars and arrays  ****
OctLoc.c.b A Datatyp(siz) R M Lvl/name                 OctLoc.c.b A Datatyp(siz) R M Lvl/name

     0-0-0/w PTR               1 PREV_01_QLT$

  ****  Section 034 LblCom QLT_

  ****  Scalars and arrays  ****
OctLoc.c.b A Datatyp(siz) R M Lvl/name                 OctLoc.c.b A Datatyp(siz) R M Lvl/name

     0-0-0/w STRC(180)         1 QLT_

  ****  Section 035 LblCom ST$

  ****  Scalars and arrays  ****
OctLoc.c.b A Datatyp(siz) R M Lvl/name                 OctLoc.c.b A Datatyp(siz) R M Lvl/name

     0-0-0/w PTR         r     1 ST$

  ****  Section 036 LblCom ST_

  ****  Scalars and arrays  ****
OctLoc.c.b A Datatyp(siz) R M Lvl/name                 OctLoc.c.b A Datatyp(siz) R M Lvl/name

PL6.E3A0      #003=Z8JT$ONLINE_TABLE_DUMP File=Z8JT.:Z8A6TSI                     SAT 08/09/97 13:36 Page:284
     0-0-0/w STRC(180)         1 ST_

  ****  Section 037 LblCom INBUF

  ****  Scalars and arrays  ****
OctLoc.c.b A Datatyp(siz) R M Lvl/name                 OctLoc.c.b A Datatyp(siz) R M Lvl/name

     0-0-0/c CHAR(80)    r     1 INBUF

  ****  Section 038 LblCom OBUF

  ****  Scalars and arrays  ****
OctLoc.c.b A Datatyp(siz) R M Lvl/name                 OctLoc.c.b A Datatyp(siz) R M Lvl/name

     0-0-0/c CHAR(120)   r     1 OBUF

  ****  Auto variables  ****

  ****  Scalars and arrays  ****
OctLoc.c.b A Datatyp(siz) R M Lvl/name                 OctLoc.c.b A Datatyp(siz) R M Lvl/name

     3-0-0/w PTR         r     1 @P$                       10-0-0/w SBIN        r     1 I
     4-0-0/w SBIN        r     1 LENGTH                     7-0-0/w SBIN        r     1 NO_OF_WRITES
    *0-0-0/w PTR         r     1 P$                        11-0-0/w SBIN        r     1 REMAIN_LEN

  ****  SYMREF variables  ****

  ****  Scalars and arrays  ****
OctLoc.c.b A Datatyp(siz) R M Lvl/name                 OctLoc.c.b A Datatyp(siz) R M Lvl/name

     0-0-0/d STRC(13248)       1 COMCOM                     0-0-0/w UBIN        r     1 ILL_STEP(0:144)
     0-0-0/w UBIN        r     1 ILS_STEP_TABLE(0:2)
     0-0-0/w UBIN        r     1 LTS_STEP(0:37)
     0-0-0/c CHAR(12)    r     1 NAMES(0:599)
     0-0-0/w UBIN        r     1 OBJ_STEP(0:4)

  ****  BASED and DCB variables  ****
PL6.E3A0      #003=Z8JT$ONLINE_TABLE_DUMP File=Z8JT.:Z8A6TSI                     SAT 08/09/97 13:36 Page:285

  ****  Scalars and arrays  ****
OctLoc.c.b A Datatyp(siz) R M Lvl/name                 OctLoc.c.b A Datatyp(siz) R M Lvl/name

     0-0-0/w STRC(108)         1 ACCEPT_DISPLAY             0-0-0/w STRC(396)         1 ALPHABET
     0-0-0/w STRC(144)         1 ALTER_LTS                  0-0-0/w STRC(3672)        1 ALT_KEY
     0-0-0/w STRC(36864)       1 ARGLIST                    0-0-0/w STRC(396)         1 ARRAY
     0-0-0/w STRC(180)         1 ARRAY_PRESET_LTS           0-0-0/w STRC(288)         1 BASE_LTS
     0-0-0/w STRC(108)         1 BINARY_ILL                 0-0-0/w STRC(396)         1 BLOCK
     0-0-0/w STRC(144)         1 BRANCH_ILL                 0-0-0/w STRC(144)         1 BT
     0-0-0/w STRC(216)         1 CCOSU                      0-0-0/w STRC(396)         1 CD
     0-0-0/w STRC(288)         1 CD_LTS                     0-0-0/w CHAR(4096)        1 CHARS
     0-0-0/w STRC(396)         1 CLASS                      0-0-0/w STRC(108)         1 CODED_MOVE
     0-0-0/w STRC(396)         1 CONDITION                  0-0-0/w STRC(396)         1 CONST
     0-0-0/w STRC(72)    r     1 CONT                       0-0-0/w STRC(540)         1 CONTROL_NAME_LTS
     0-0-0/w STRC(1872)        1 COPY_FILE                  0-0-0/w STRC(396)         1 DB
     0-0-0/w STRC(396)         1 DCB_                       0-0-0/w STRC(144)         1 DEFLB
     0-0-0/w STRC(108)         1 DEPENDING_SIZE             0-0-0/w STRC(5472)        1 DIMS
     0-0-0/w STRC(396)         1 DML_ITEM                   0-0-0/w STRC(216)         1 DML_REC
     0-0-0/w ASTR(180)   r     1 DNT                        0-0-0/w STRC(144)         1 DOEND
     0-0-0/w STRC(396)         1 DO_N                       0-0-0/w STRC(108)         1 DPI
     0-0-0/w STRC(180)         1 DV4I                       0-0-0/w STRC(180)         1 ENTRY_ILL
     0-0-0/w STRC(540)   r     1 ERR                        0-0-0/w STRC(180)   r     1 ETT
     0-0-0/w STRC(108)         1 EVALU                      0-0-0/w STRC(73836)       1 EVALUATE
     0-0-0/w STRC(396)   r     1 FD                         0-0-0/w STRC(1692)  r     1 FILE_LTS
     0-0-0/w STRC(144)         1 GO                         0-0-0/w STRC(108)         1 GST
     0-0-0/w STRC(180)   r     1 ILL                        0-0-0/w STRC              1 ILL_NO_OPS
     0-0-0/w STRC(180)   r     1 ILS                        0-0-0/w STRC(108)         1 INDEXES
     0-0-0/w STRC(360)         1 INIT_LTS                   0-0-0/w STRC(396)         1 INTDEF
     0-0-0/w STRC(180)         1 IO_RESTORE_CHAIN           0-0-0/w STRC(144)         1 KEY
     0-0-0/w STRC(396)         1 LABEL                      0-0-0/w STRC(36864) r     1 LCNST
     0-0-0/w STRC(108)         1 LINOI                      0-0-0/w STRC(72)          1 LONG
     0-0-0/w STRC        r     1 LTS                        0-0-0/w STRC(360)         1 LTSS
     0-0-0/w STRC(36936)       1 LTS_PTR_ARRAY              0-0-0/w STRC(72)          1 MFILL
     0-0-0/w STRC(396)         1 MNEMONIC                   0-0-0/w STRC(180)         1 MULTI_GO
     0-0-0/w STRC(180)         1 MVEAL                      0-0-0/w STRC(108)         1 MVFIL
     0-0-0/w STRC(72)          1 MVIIS                      0-0-0/w STRC(144)         1 NEL
PL6.E3A0      #003=Z8JT$ONLINE_TABLE_DUMP File=Z8JT.:Z8A6TSI                     SAT 08/09/97 13:36 Page:286
     0-0-0/w STRC        r     1 OBJ                        0-0-0/w STRC(72)          1 OBJ_LAB
     0-0-0/w STRC(108)         1 OBJ_LINE                   0-0-0/w STRC(72)          1 OBJ_ORG
     0-0-0/w STRC(72)          1 OBJ_SCOPE                  0-0-0/w STRC(144)         1 OBJ_WORD
     0-0-0/w STRC(216)         1 OPEN_LTS                   0-0-0/w STRC(144)         1 OPN
     0-0-0/w STRC(180)         1 OS_CALL                    0-0-0/w STRC(36864)       1 PAGE
     0-0-0/w STRC(396)         1 PARA                       0-0-0/w STRC(216)         1 PFORM
     0-0-0/w STRC(144)         1 PINC                       0-0-0/w STRC(144)         1 PREOFF
     0-0-0/w STRC(108)         1 PRESET                     0-0-0/w STRC(144)         1 PRIME
     0-0-0/w STRC(396)         1 PROC_                      0-0-0/w STRC(396)         1 PROC_DEF
     0-0-0/w STRC(900)         1 PROC_SUPP                  0-0-0/w STRC(144)         1 P_A_PRESET
     0-0-0/w STRC(144)         1 P_P_PRESET                 0-0-0/w STRC(216)   r     1 QLT
     0-0-0/w STRC(396)         1 RD                         0-0-0/w STRC(216)         1 REF
     0-0-0/w STRC(144)         1 REMEM                      0-0-0/w STRC(108)         1 RENAMES
     0-0-0/w STRC(720)         1 REPORT_01_LTS              0-0-0/w STRC(432)         1 REPORT_ELEM_LTS
     0-0-0/w STRC(252)         1 REPORT_GRP_LTS             0-0-0/w STRC(1332)        1 REPORT_LTS
     0-0-0/w STRC(144)         1 RVA_LTS                    0-0-0/w STRC(396)         1 SCALAR
     0-0-0/w STRC(144)         1 SCOPE                      0-0-0/w STRC(396)         1 SD
     0-0-0/w STRC(216)         1 SEARCH_                    0-0-0/w STRC(396)         1 SECTION
     0-0-0/w STRC(396)         1 SEGMENT                    0-0-0/w STRC(360)         1 SEGMENT_LTS
     0-0-0/w STRC(396)   r     1 ST                         0-0-0/w STRC(72)          1 STP2
     0-0-0/w STRC(252)         1 SUM_LTS                    0-0-0/w STRC(396)         1 SWITCH
     0-0-0/w STRC(396)         1 SYMBOLIC_CHAR              0-0-0/w STRC(396)         1 SYMDEF_
     0-0-0/w STRC(396)         1 SYMREF_                    0-0-0/w STRC(396)         1 TEMP
     0-0-0/w STRC(144)         1 TRINARY_ILL                0-0-0/w STRC(72)          1 UNARY_ILL
     0-0-0/d STRC(612)         1 USE                        0-0-0/w STRC(216)         1 USER_CALL
     0-0-0/w STRC(252)         1 USE_SUPP                   0-0-0/w STRC(108)         1 VAL
     0-0-0/w STRC(108)         1 VAL_END                    0-0-0/w STRC(396)         1 VARIABLE
     0-0-0/w STRC(72)          1 WHEN


   Procedure Z8JT$ONLINE_TABLE_DUMP requires 1328 words for executable code.
   Procedure Z8JT$ONLINE_TABLE_DUMP requires 14 words of local(AUTO) storage.

    No errors detected in file Z8JT.:Z8A6TSI    .
