PL6.E3A0      #001=Z8JW$WALK_TREE File=Z8JW.:Z8A6TSI                             SAT 08/09/97 13:33 Page:1
        1        1        /*M*  Z8JW$WALK_TREE                                                     */
        2        2        /*T***********************************************************/
        3        3        /*T*                                                         */
        4        4        /*T* Copyright (c) Bull HN Information Systems Inc., 1997    */
        5        5        /*T*                                                         */
        6        6        /*T***********************************************************/
        7        7
        8        8        Z8JW$WALK_TREE: PROC ( ID$ , OP_ARG, PRINT_ARG);
        9        9
       10       10        /*P*
       11       11
       12       12                   NAME: Z8JW$WALK_TREE
       13       13                PURPOSE: To aid debugging by presenting various compiler information
       14       14                         in its internal tree representation.
       15       15        */
       16       16        /*D*
       17       17                   NAME: Z8JW$WALK_TREE
       18       18                   CALL:
       19       19                         CALL Z8JW$TREE_WALKER ( ID$, OP_ARG, PRINT_ARG );
       20       20
       21       21              INTERFACE:         Internal
       22       22                                 --------
       23       23
       24       24                         1) PRINT_ITEM           -- prints an ill or ett item.
       25       25                         2) PRINT_ST_ITEM        -- prints a symbol table item.
       26       26                         3) PRINT_ABS_ITEM       -- prints an abstract syntax
       27       27                                                    tree item.
       28       28                         4) PRINT_DATA           -- prints data found in ROPCON.
       29       29                         5) PRINT_CODE           -- prints symbolic codes
       30       30                                                    assosciated with certain items.
       31       31                         6) PRINT_AND_CLEAR      -- prints OBUF then clears the
       32       32                                                    appropriate portion.
       33       33                         7) BRANCH_BUILDER       -- adjusts verticle tree
       34       34                                                     branches in OBUF.
       35       35
       36       36                                 External
       37       37                                 --------
PL6.E3A0      #001=Z8JW$WALK_TREE File=Z8JW.:Z8A6TSI                             SAT 08/09/97 13:33 Page:2
       38       38
       39       39
       40       40                  INPUT:   1)  ID$          -- pointer to current item.
       41       41                           2)  OP_ARG       -- current item's type
       42       42                                               ( ROP, LOP, FIRST ).
       43       43                           3)  PRINT_ARG    -- current print position.
       44       44
       45       45                 OUTPUT:  One tree per call.
       46       46                SCRATCH:  none
       47       47              REFERENCE:
       48       48        */
       49       49        %EJECT;
PL6.E3A0      #001=Z8JW$WALK_TREE File=Z8JW.:Z8A6TSI                             SAT 08/09/97 13:33 Page:3
       50       50        /*F*
       51       51                  NAME :    Z8JW$TREE_WALKER
       52       52            DESCRIPTION:
       53       53                         THIS MODULE RECURSIVELY WALKS THE TRIAD TREE AND
       54       54                   PRINTS IT IN A TREE FORMAT.  THE MAIN DRIVE OF THE
       55       55                   TREE WALKER IS A CASE STATEMENT WHICH BREAKS DOWN ALL
       56       56                   ITEMS INTO THE FOLLOWING CATAGORIES:
       57       57
       58       58                       1) Items with TWO operands: ROP AND LOP.
       59       59                       2) Items with THREE operands: ROP, LOP, AND TO_.
       60       60                       3) Items with FOUR operands: ROP, LOP, TO_, AND REMAINDER.
       61       61                       4) Items with TWO operands: LOP AND DATA.
       62       62                       5) Items with NO operands.
       63       63                       6) ITEMS THAT ARE SYMBOL TABLE ITEMS.
       64       64
       65       65                   THE BASIC LOGIC BEHIND THIS MODULE IS TO SEARCH EACH
       66       66                   BRANCH OF THE TREE UNTIL A LEAF (SYMBOL TABLE ITEM,
       67       67                   DATA, NIL POINTER) IS FOUND.  THE LEAF IS THEN PRINTED
       68       68                   AND THE ALGORITHM RETURNS TO THE PREVIOUS LEVEL AND
       69       69                   PRINTS THAT ITEM.  THIS CONTINUES UNTIL THE COMPLETE
       70       70                   TREE IS EXPANDED AND PRINTED IN A HORIZONTAL FASHION.
       71       71                   AS SHOWN BELOW:
       72       72
       73       73                                 :-- REMAINDER
       74       74                                 !
       75       75                                 !
       76       76                                 :-- TO_
       77       77                                 !
       78       78                                 !
       79       79                                 :-- ROP
       80       80                                 !
       81       81                           ITEM--!
       82       82                                 !
       83       83                                 :-- LOP
       84       84
       85       85                   THE CURRENT ITEM WILL ALWAYS APPEAR BETWEEN THE
       86       86                   ROP AND LOP.  THEREFORE; IF THE TREE IS VIEWED VERTICALLY
PL6.E3A0      #001=Z8JW$WALK_TREE File=Z8JW.:Z8A6TSI                             SAT 08/09/97 13:33 Page:4
       87       87                   BY TURNING THE PAGE THE ROP IS ON THE RIGHT:
       88       88
       89       89                             ITEM
       90       90                              !
       91       91                              !
       92       92                    :-------------:-------:-------------:
       93       93                    !             !       !             !
       94       94                   LOP           ROP     TO_        REMAINDER
       95       95
       96       96        */
       97       97        %EJECT;
PL6.E3A0      #001=Z8JW$WALK_TREE File=Z8JW.:Z8A6TSI                             SAT 08/09/97 13:33 Page:5
       98       98            %EQU PHASE = 6;
       99       99            %EQU LOWER = 3;
      100      100            %EQU FIRST = 2;
      101      101            %EQU ROP   = 1;
      102      102            %EQU LOP   = 0;
      103      103            %INCLUDE Z8A_DEFC;
      104      171            %INCLUDE Z8A_SUPP_MAC;
      105     2571            %INCLUDE Z8A_ILL;
      106     3264            %INCLUDE Z8A_ILS;
      107     3373            %INCLUDE Z8A_ETT;
      108     3674            %INCLUDE Z8A_ST;
      109     7333            %INCLUDE Z8A_LTS;
      110     9410            %INCLUDE Z8A_DNT;
      111     9631            %INCLUDE Z8A_QLT;
      112     9737            %INCLUDE Z8A_TYPES;
      113     9911            %INCLUDE Z8A_COMCOM;
      114    10561            %INCLUDE Z8E_STACKS;         /* For abstract syntax treewalker  */
      115    12827
      116    12828    1       DCL Z9AL$DUMP_LINE        ENTRY;
      117    12829    1       DCL Z9AL$WRITE_TERMINAL   ENTRY;
      118    12830    1       DCL X8CO$CONV_TO_OCTAL    ENTRY(2);
      119    12831    1       DCL X8CO$CONV_TO_OCTAL_HALF      ENTRY(2);
      120    12832    1       DCL X8CO$CONV_TO_DECIMAL  ENTRY(2);
      121    12833    1       DCL Z9JW$CHECK_PTR        ENTRY(1) ALTRET;
      122    12834
      123    12835    1       DCL ID$          PTR;
      124    12836    1       DCL PRINT_NDX    SBIN WORD ;
      125    12837    1       DCL PRINT_ARG    SBIN WORD ;
      126    12838    1       DCL CHAR12       CHAR(12);
      127    12839    1       DCL CHAR13       CHAR(13);
      128    12840    1       DCL OBUF         CHAR(120) EXT;
      129    12841    1       DCL STRING       CHAR(120);
      130    12842    1       DCL OP           UBIN WORD;
      131    12843    1       DCL OP_ARG       UBIN WORD;
      132    12844    1       DCL J            SBIN WORD;
      133    12845    1       DCL ARGS#        UBIN WORD;
      134    12846    1       DCL LOWER_TREES  BIT(1) STATIC INIT(FALSE);
PL6.E3A0      #001=Z8JW$WALK_TREE File=Z8JW.:Z8A6TSI                             SAT 08/09/97 13:33 Page:6
      135    12847    1       DCL ADDRESS      UBIN WORD STATIC;
      136    12848    1       DCL ABSTRACT     BIT(1)    STATIC;
      137    12849
      138    12850        %EJECT;
PL6.E3A0      #001=Z8JW$WALK_TREE File=Z8JW.:Z8A6TSI                             SAT 08/09/97 13:33 Page:7
      139    12851    1       PRINT_NDX = PRINT_ARG + 8;
      140    12852    1       OP = OP_ARG;
      141    12853    1       CALL Z9JW$CHECK_PTR( ID$ )
      142    12854    1       WHENALTRETURN
      143    12855    2         DO;
      144    12856    2           SUBSTR( OBUF,PRINT_NDX,24) = ':--**** Bad pointer ****';
      145    12857    2           CALL PRINT_AND_CLEAR( PRINT_NDX, 24 );
      146    12858    2           CALL BRANCH_BUILDER( PRINT_NDX, OP );
      147    12859    2           RETURN;
      148    12860    2         END;
      149    12861
      150    12862    2         DO CASE ( ID$ -> ILL.ID );
      151    12863        %EJECT;
PL6.E3A0      #001=Z8JW$WALK_TREE File=Z8JW.:Z8A6TSI                             SAT 08/09/97 13:33 Page:8
      152    12864
      153    12865          /*      Items with TWO operands: ROP, LOP                      */
      154    12866
      155    12867    2           CASE ( %AD2D, %AD2DR, %AD2I, %SB2D, %SB2DR, %SB2I, %MP2D,
      156    12868    2                  %MP2DR, %MP2I, %DV2D, %DV2DR, %DV2I, %DV2IR, %MVDD,
      157    12869    2                  %MVDDR, %MVII, %MVPP, %MVRR, %MVQQ, %MVRL, %MVHH, %MVID,
      158    12870    2                  %MVAN,  %MVOD, %MVQD, %MVRD, %PFORM, %SUB_END, %SUB_ENTRY,
      159    12871    2                  %MVJJ, %MVDO, %MVDQ, %MVDR, %MVDI, %USER_CALL, %EVAL,
      160    12872    2                  %MVIK,  %INITV, %INCRV, %MIND, %MINR, %MINQ,
      161    12873    2                  %MVKI, %MVJI, %REMEM, %MVFIL,
      162    12874    2                  %OR2I, %ALTER, %SIZ, %SSOP, %MODI, %CMPC,
      163    12875    2                  %SBCHK, %OCCHK, %CMGR, %CMGQ, %CMPQ, %ANDI, %EXRR,
      164    12876    2                  %EXRI, %EXQQ, %EXQI, %ADQ, %SBQ, %MPQ, %DVQ, %INDEX,
      165    12877    2                  %ADD, %ADI, %SBD, %SBI, %MPD, %MPI, %DVD, %DVI, %MINI,
      166    12878    2                  %DVDR, %EXDIO, %ADR, %SBR, %MPR, %DVR, %EXII, %EXDI,
      167    12879    2                  %EXDD, %CMPI, %CMPD, %CMPA, %CMPR, %CMGP, %OS_CALL,
      168    12880    2                  %AD2O, %AD2OR, %MP2O, %MP2OR, %SB2O, %SB2OR, %DV2O,
      169    12881    2                  %DV2OR, %MVOO, %CMPO, %ADO, %SBO, %MPO, %DVO, %DVOR,
      170    12882    2                  %MVOOR, %MVDOR, %MVODR, %REFMOD, %CMK, %CMK1, %CMPT,
      171    12883    2                  %CMPAA, %CMPAO, %CMGI, %ORI );
      172    12884
      173    12885        /*              Expand the ROP of the current item.             */
      174    12886
      175    12887    2             IF ID$ -> ILL.ROP  = ADDR(NIL) THEN
      176    12888    2               CALL PRINT_ITEM ( ADDR(NIL), %ROP );
      177    12889    2             ELSE
      178    12890    2               CALL Z8JW$WALK_TREE ( ID$ -> ILL.ROP, %ROP, PRINT_NDX );
      179    12891
      180    12892        /*               Print the current item.                       */
      181    12893
      182    12894    2             CALL PRINT_ITEM ( ID$ ,OP );
      183    12895
      184    12896        /*               Expand the LOP of the current item.            */
      185    12897
      186    12898    2             IF ID$ -> ILL.LOP = ADDR(NIL) THEN
      187    12899    2               CALL PRINT_ITEM ( ADDR(NIL) , %LOP );
      188    12900    2             ELSE
PL6.E3A0      #001=Z8JW$WALK_TREE File=Z8JW.:Z8A6TSI                             SAT 08/09/97 13:33 Page:9
      189    12901    2               CALL Z8JW$WALK_TREE ( ID$ -> ILL.LOP , %LOP, PRINT_NDX );
      190    12902        %EJECT;
PL6.E3A0      #001=Z8JW$WALK_TREE File=Z8JW.:Z8A6TSI                             SAT 08/09/97 13:33 Page:10
      191    12903    2           CASE ( %RENAMES );
      192    12904
      193    12905        /*              Expand the ROP of the current item.             */
      194    12906
      195    12907    2             IF ID$ -> RENAMES.START_ST$  = ADDR(NIL) THEN
      196    12908    2               CALL PRINT_ITEM ( ADDR(NIL), %ROP );
      197    12909    2             ELSE
      198    12910    2               CALL Z8JW$WALK_TREE ( ID$ -> RENAMES.START_ST$, %ROP, PRINT_NDX );
      199    12911
      200    12912        /*               Print the current item.                       */
      201    12913
      202    12914    2             CALL PRINT_ITEM ( ID$ ,OP );
      203    12915
      204    12916        /*               Expand the LOP of the current item.            */
      205    12917
      206    12918    2             IF ID$ -> RENAMES.END_ST$ = ADDR(NIL) THEN
      207    12919    2               CALL PRINT_ITEM ( ADDR(NIL) , %LOP );
      208    12920    2             ELSE
      209    12921    2               CALL Z8JW$WALK_TREE ( ID$ -> RENAMES.END_ST$ , %LOP, PRINT_NDX );
      210    12922        %EJECT;
PL6.E3A0      #001=Z8JW$WALK_TREE File=Z8JW.:Z8A6TSI                             SAT 08/09/97 13:33 Page:11
      211    12923    2           CASE ( %PRESET, %PTR_SET, %PREOFF );
      212    12924
      213    12925        /*              Expand the ROP of the current item.             */
      214    12926
      215    12927    2             IF ID$ -> ILL.ROP  = ADDR(NIL) THEN
      216    12928    2               CALL PRINT_ITEM ( ADDR(NIL), %ROP );
      217    12929    2             ELSE
      218    12930    2               CALL Z8JW$WALK_TREE ( ID$ -> ILL.ROP, %ROP, PRINT_NDX );
      219    12931
      220    12932    2             CALL X8CO$CONV_TO_DECIMAL( BINBIT(ID$-> PRESET.OFFSET,36), CHAR13 );
      221    12933    2             SUBSTR( OBUF,PRINT_NDX+12,5 ) = '(Off=';
      222    12934    2             SUBSTR( OBUF,PRINT_NDX+17,6 ) = SUBSTR( CHAR13,7,6 );
      223    12935
      224    12936    2             IF ID$-> ILL.ID = %PREOFF THEN
      225    12937    3               DO;
      226    12938    3                 SUBSTR( OBUF,PRINT_NDX+23,15) = ',n=            )';
      227    12939    3                 CALL X8CO$CONV_TO_DECIMAL( ID$-> PREOFF.N, CHAR13 );
      228    12940    3                 SUBSTR( OBUF,PRINT_NDX+26,12 ) = SUBSTR( CHAR13,1,12 );
      229    12941    3               END;
      230    12942    2             ELSE
      231    12943    2                SUBSTR( OBUF,PRINT_NDX+23,1 ) = ')';
      232    12944
      233    12945        /*               Print the current item.                       */
      234    12946
      235    12947    2             CALL PRINT_ITEM ( ID$ ,OP );
      236    12948
      237    12949        /*               Clear offset and length(n)                     */
      238    12950
      239    12951    2             SUBSTR( OBUF,PRINT_NDX+12,50 ) = ' ';
      240    12952
      241    12953        /*               Expand the LOP of the current item.            */
      242    12954
      243    12955    2             IF ID$ -> ILL.LOP = ADDR(NIL) THEN
      244    12956    2               CALL PRINT_ITEM ( ADDR(NIL) , %LOP );
      245    12957    2             ELSE
      246    12958    2               CALL Z8JW$WALK_TREE ( ID$ -> ILL.LOP , %LOP, PRINT_NDX );
      247    12959        %EJECT;
PL6.E3A0      #001=Z8JW$WALK_TREE File=Z8JW.:Z8A6TSI                             SAT 08/09/97 13:33 Page:12
      248    12960    2           CASE (%P_A_PRESET);
      249    12961
      250    12962        /*              Evaluate the TO_ of the current item.               */
      251    12963
      252    12964    2             IF ID$ -> ILL.TO_  = ADDR(NIL) THEN
      253    12965    2               CALL PRINT_ITEM ( ADDR(NIL), %ROP );
      254    12966    2             ELSE
      255    12967    2               CALL Z8JW$WALK_TREE (ID$-> ILL.TO_, %ROP, PRINT_NDX);
      256    12968
      257    12969    2             CALL PRINT_DATA (ID$, %ROP);  /* print the ropcon */
      258    12970
      259    12971    2             CALL X8CO$CONV_TO_DECIMAL( BINBIT(ID$-> PRESET.OFFSET,36), CHAR13 );
      260    12972    2             SUBSTR( OBUF,PRINT_NDX+12,5 ) = '(Off=';
      261    12973    2             SUBSTR( OBUF,PRINT_NDX+17,6 ) = SUBSTR( CHAR13,7,6 );
      262    12974
      263    12975    2                SUBSTR( OBUF,PRINT_NDX+23,1 ) = ')';
      264    12976
      265    12977        /*               Print the current item.                       */
      266    12978
      267    12979    2             CALL PRINT_ITEM ( ID$ ,OP );
      268    12980
      269    12981        /*               Clear offset and length(n)                     */
      270    12982
      271    12983    2             SUBSTR( OBUF,PRINT_NDX+12,50 ) = ' ';
      272    12984
      273    12985        /*               Expand the LOP of the current item.            */
      274    12986
      275    12987    2             IF ID$ -> ILL.LOP = ADDR(NIL) THEN
      276    12988    2               CALL PRINT_ITEM ( ADDR(NIL) , %LOP );
      277    12989    2             ELSE
      278    12990    2               CALL Z8JW$WALK_TREE ( ID$ -> ILL.LOP , %LOP, PRINT_NDX );
      279    12991        %EJECT;
PL6.E3A0      #001=Z8JW$WALK_TREE File=Z8JW.:Z8A6TSI                             SAT 08/09/97 13:33 Page:13
      280    12992        /*  Special case:  PROC_                                            */
      281    12993
      282    12994    2       CASE ( %PROC_ );
      283    12995
      284    12996    2         IF ID$-> PROC_.SON ~= ADDR(NIL) THEN
      285    12997    2           CALL Z8JW$WALK_TREE( ID$-> PROC_.SON, %ROP, PRINT_NDX );
      286    12998
      287    12999    2         SUBSTR( OBUF, PRINT_NDX+9, 1 ) = '(';
      288    13000    2         SUBSTR( OBUF, PRINT_NDX+10, ID$-> PROC_.PROC_DEF$-> SYMREF_.DNT$-> DNT.TEXT.
             13000                  LENGTH )
      289    13001    2                = ID$-> PROC_.PROC_DEF$-> SYMREF_.DNT$-> DNT.TEXT.NAME;
      290    13002    2         SUBSTR( OBUF, PRINT_NDX+10 + ID$-> PROC_.PROC_DEF$->
      291    13003    2               SYMREF_.DNT$-> DNT.TEXT.LENGTH,1 ) = ')';
      292    13004    2         CALL PRINT_ITEM( ID$, OP );
      293    13005    2         SUBSTR( OBUF,PRINT_NDX+9, 32 ) = ' ';
      294    13006
      295    13007    2         IF ID$-> PROC_.BROTHER ~= ADDR(NIL) THEN
      296    13008    2           CALL Z8JW$WALK_TREE( ID$-> PROC_.BROTHER, %LOP, PRINT_NDX );
      297    13009
      298    13010        %EJECT;
PL6.E3A0      #001=Z8JW$WALK_TREE File=Z8JW.:Z8A6TSI                             SAT 08/09/97 13:33 Page:14
      299    13011    2           CASE ( %QUAL );
      300    13012
      301    13013        /*           Print the Father of the current item                   */
      302    13014
      303    13015    2             IF ID$-> QLT.FATHER = ADDR(NIL) THEN
      304    13016    2               CALL PRINT_ITEM( ADDR(NIL), %ROP );
      305    13017    2             ELSE
      306    13018    2               CALL PRINT_DNT_NAME( ID$-> QLT.FATHER-> QLT.DNT$, %ROP );
      307    13019
      308    13020        /*           Print the current item                                 */
      309    13021
      310    13022    2             SUBSTR( OBUF, PRINT_NDX+9, 1 ) = '(';
      311    13023    2             SUBSTR( OBUF, PRINT_NDX+10, ID$->QLT.DNT$-> DNT.TEXT.LENGTH ) =
      312    13024    2                ID$-> QLT.DNT$-> DNT.TEXT.NAME ;
      313    13025    2              SUBSTR( OBUF, PRINT_NDX+10 + ID$->QLT.DNT$->DNT.TEXT.LENGTH, 1) = ')';
      314    13026    2             CALL PRINT_ITEM( ID$, OP );
      315    13027    2             SUBSTR( OBUF, PRINT_NDX+9, 32 ) = ' ';
      316    13028
      317    13029        /*           Print the sons of the current item                     */
      318    13030    2             IF ID$-> QLT.SON = ADDR(NIL) THEN
      319    13031    2               CALL PRINT_ITEM( ADDR(NIL), %LOP );
      320    13032    2             ELSE
      321    13033    2               CALL Z8JW$WALK_TREE( ID$-> QLT.SON, %LOP, PRINT_NDX );
      322    13034
      323    13035        /*              Expand the ROP of the current item.             */
      324    13036    2             IF ID$-> QLT.FATHER = ADDR(NIL) THEN
      325    13037    3               DO;
      326    13038    3                SUBSTR( OBUF, PRINT_NDX+9, 1 ) = '(';
      327    13039    3                SUBSTR( OBUF, PRINT_NDX+10, ID$->QLT.BROTHER->QLT.DNT$->
      328    13040    3                  DNT.TEXT.LENGTH ) = ID$-> QLT.BROTHER-> QLT.DNT$->
      329    13041    3                  DNT.TEXT.NAME;
      330    13042    3                SUBSTR( OBUF, PRINT_NDX+10 + ID$-> QLT.BROTHER->
      331    13043    3                    QLT.DNT$-> DNT.TEXT.LENGTH, 1 ) = ')';
      332    13044    3                CALL PRINT_ITEM( ID$-> QLT.BROTHER, OP );
      333    13045    3                SUBSTR( OBUF, PRINT_NDX+9, 32 ) = ' ';
      334    13046    3               END;
      335    13047    2            ELSE
PL6.E3A0      #001=Z8JW$WALK_TREE File=Z8JW.:Z8A6TSI                             SAT 08/09/97 13:33 Page:15
      336    13048    2               IF ID$-> QLT.BROTHER ~= ADDR(NIL) THEN
      337    13049    2                 CALL Z8JW$WALK_TREE( ID$-> QLT.BROTHER, %LOP, PRINT_NDX-8);
      338    13050        %EJECT;
PL6.E3A0      #001=Z8JW$WALK_TREE File=Z8JW.:Z8A6TSI                             SAT 08/09/97 13:33 Page:16
      339    13051    2           CASE ( %BASE );
      340    13052
      341    13053    2             IF ID$ -> ILL.ROP  = ADDR(NIL)
      342    13054    2             OR COMCOM.CURRENT.PHASE = 1 THEN
      343    13055    2               CALL PRINT_ITEM ( ADDR(NIL), %ROP );
      344    13056    2             ELSE
      345    13057    2               CALL Z8JW$WALK_TREE ( ID$ -> ILL.ROP, %ROP, PRINT_NDX );
      346    13058
      347    13059        /*               Print the current item.                       */
      348    13060
      349    13061    2             CALL PRINT_ITEM ( ID$ ,OP );
      350    13062
      351    13063        /*               Expand the LOP of the current item.            */
      352    13064
      353    13065    2             IF ID$ -> ILL.LOP = ADDR(NIL) THEN
      354    13066    2               CALL PRINT_ITEM ( ADDR(NIL) , %LOP );
      355    13067    2             ELSE
      356    13068    2               CALL Z8JW$WALK_TREE ( ID$ -> ILL.LOP , %LOP, PRINT_NDX );
      357    13069        %EJECT;
PL6.E3A0      #001=Z8JW$WALK_TREE File=Z8JW.:Z8A6TSI                             SAT 08/09/97 13:33 Page:17
      358    13070    2           CASE( %ACCEP, %DISPL, %GO, %MVANO, %MVIH, %MVIJ );
      359    13071
      360    13072        /*              Expand the ROP of the current item.             */
      361    13073
      362    13074    2             IF ID$ -> ILL.ROP  = ADDR(NIL) THEN
      363    13075    2               CALL PRINT_ITEM ( ADDR(NIL), %ROP );
      364    13076    2             ELSE
      365    13077    2               CALL Z8JW$WALK_TREE ( ID$ -> ILL.ROP, %ROP, PRINT_NDX );
      366    13078
      367    13079        /*               Print the current item.                       */
      368    13080
      369    13081    2             CALL PRINT_CODE ( ID$ );
      370    13082    2             CALL PRINT_ITEM ( ID$ ,OP );
      371    13083    2             SUBSTR( OBUF,PRINT_NDX+9,20 ) = ' '; /* Remove codes */
      372    13084
      373    13085        /*               Expand the LOP of the current item.            */
      374    13086
      375    13087    2             IF ID$ -> ILL.LOP = ADDR(NIL) THEN
      376    13088    2               CALL PRINT_ITEM ( ADDR(NIL) , %LOP );
      377    13089    2             ELSE
      378    13090    2               CALL Z8JW$WALK_TREE ( ID$ -> ILL.LOP , %LOP, PRINT_NDX );
      379    13091        %EJECT;
PL6.E3A0      #001=Z8JW$WALK_TREE File=Z8JW.:Z8A6TSI                             SAT 08/09/97 13:33 Page:18
      380    13092          /*      Items with THREE operands: ROP, LOP, TO_              */
      381    13093
      382    13094    2           CASE ( %MVEAN, %MVEDD, %AD3D, %AD3DR, %SB3D, %SB3DR, %MP3D,
      383    13095    2                  %AD3O, %AD3OR, %MP3O, %MP3OR, %SB3O, %SB3OR, %DV3O,
      384    13096    2                  %MP3DR, %DV3D, %DV3DR, %MVDDD, %DV3OR, %MVT, %P_P_PRESET);
      385    13097    2            IF ID$ -> ILL.TO_ = ADDR(NIL) THEN
      386    13098    2               CALL PRINT_ITEM ( ADDR(NIL), %ROP );
      387    13099    2             ELSE
      388    13100    2               CALL Z8JW$WALK_TREE ( ID$ -> ILL.TO_, %ROP, PRINT_NDX );
      389    13101
      390    13102        /*              Expand the ROP of the current item.             */
      391    13103
      392    13104    2             IF ID$ -> ILL.ROP  = ADDR(NIL) THEN
      393    13105    2               CALL PRINT_ITEM ( ADDR(NIL), %ROP );
      394    13106    2             ELSE
      395    13107    2               CALL Z8JW$WALK_TREE ( ID$ -> ILL.ROP, %ROP, PRINT_NDX );
      396    13108
      397    13109        /*               Print the current item.                       */
      398    13110
      399    13111    2             CALL PRINT_ITEM ( ID$ ,OP );
      400    13112
      401    13113        /*               Expand the LOP of the current item.            */
      402    13114
      403    13115    2             IF ID$ -> ILL.LOP = ADDR(NIL) THEN
      404    13116    2               CALL PRINT_ITEM ( ADDR(NIL) , %LOP );
      405    13117    2             ELSE
      406    13118    2               CALL Z8JW$WALK_TREE ( ID$ -> ILL.LOP , %LOP, PRINT_NDX );
      407    13119
      408    13120        %EJECT;
PL6.E3A0      #001=Z8JW$WALK_TREE File=Z8JW.:Z8A6TSI                             SAT 08/09/97 13:33 Page:19
      409    13121          /*      Special case MVEAL                                    */
      410    13122
      411    13123    2           CASE ( %MVEAL );
      412    13124
      413    13125    2            IF ID$-> ILL.DESCRIPTOR$ = ADDR(NIL) THEN
      414    13126    2              CALL PRINT_ITEM( ADDR(NIL), %ROP );
      415    13127    2            ELSE
      416    13128    2              CALL Z8JW$WALK_TREE( ID$-> ILL.DESCRIPTOR$, %ROP, PRINT_NDX );
      417    13129
      418    13130    2            IF ID$ -> ILL.TO_ = ADDR(NIL) THEN
      419    13131    2               CALL PRINT_ITEM ( ADDR(NIL), %ROP );
      420    13132    2             ELSE
      421    13133    2               CALL Z8JW$WALK_TREE ( ID$ -> ILL.TO_, %ROP, PRINT_NDX );
      422    13134
      423    13135        /*              Expand the ROP of the current item.             */
      424    13136
      425    13137    2             IF ID$ -> ILL.ROP  = ADDR(NIL) THEN
      426    13138    2               CALL PRINT_ITEM ( ADDR(NIL), %ROP );
      427    13139    2             ELSE
      428    13140    2               CALL Z8JW$WALK_TREE ( ID$ -> ILL.ROP, %ROP, PRINT_NDX );
      429    13141
      430    13142        /*               Print the current item.                       */
      431    13143
      432    13144    2             CALL PRINT_ITEM ( ID$ ,OP );
      433    13145
      434    13146        /*               Expand the LOP of the current item.            */
      435    13147
      436    13148    2             IF ID$ -> ILL.LOP = ADDR(NIL) THEN
      437    13149    2               CALL PRINT_ITEM ( ADDR(NIL) , %LOP );
      438    13150    2             ELSE
      439    13151    2               CALL Z8JW$WALK_TREE ( ID$ -> ILL.LOP , %LOP, PRINT_NDX );
      440    13152
      441    13153        %EJECT;
PL6.E3A0      #001=Z8JW$WALK_TREE File=Z8JW.:Z8A6TSI                             SAT 08/09/97 13:33 Page:20
      442    13154          /*      Items with FOUR operands: ROP, LOP, TO_, REMAINDER     */
      443    13155
      444    13156    2           CASE ( %DV4I );
      445    13157    2             IF ID$ -> ILL.REMAINDER  = ADDR(NIL) THEN
      446    13158    2               CALL PRINT_ITEM ( ADDR(NIL), %ROP );
      447    13159    2             ELSE
      448    13160    2               CALL Z8JW$WALK_TREE ( ID$ -> ILL.REMAINDER, %ROP, PRINT_NDX );
      449    13161
      450    13162    2            IF ID$ -> ILL.TO_ = ADDR(NIL) THEN
      451    13163    2               CALL PRINT_ITEM ( ADDR(NIL), %ROP );
      452    13164    2             ELSE
      453    13165    2               CALL Z8JW$WALK_TREE ( ID$ -> ILL.TO_, %ROP, PRINT_NDX );
      454    13166
      455    13167        /*              Expand the ROP of the current item.             */
      456    13168
      457    13169    2             IF ID$ -> ILL.ROP  = ADDR(NIL) THEN
      458    13170    2               CALL PRINT_ITEM ( ADDR(NIL), %ROP );
      459    13171    2             ELSE
      460    13172    2               CALL Z8JW$WALK_TREE ( ID$ -> ILL.ROP, %ROP, PRINT_NDX );
      461    13173
      462    13174        /*               Print the current item.                       */
      463    13175
      464    13176    2             CALL PRINT_ITEM ( ID$ ,OP );
      465    13177
      466    13178        /*               Expand the LOP of the current item.            */
      467    13179
      468    13180    2             IF ID$ -> ILL.LOP = ADDR(NIL) THEN
      469    13181    2               CALL PRINT_ITEM ( ADDR(NIL) , %LOP );
      470    13182    2             ELSE
      471    13183    2               CALL Z8JW$WALK_TREE ( ID$ -> ILL.LOP , %LOP, PRINT_NDX );
      472    13184
      473    13185
      474    13186        %EJECT;
PL6.E3A0      #001=Z8JW$WALK_TREE File=Z8JW.:Z8A6TSI                             SAT 08/09/97 13:33 Page:21
      475    13187        /*    Items with FIVE operands: ROP, LOP, TO_, TABLEVAL, ALTRET_ */
      476    13188
      477    13189    2           CASE ( %SEARCH );
      478    13190
      479    13191        /*                 Expand ALTRET_ if present                       */
      480    13192
      481    13193    2             IF ID$-> SEARCH_.ALTRET_ = ADDR(NIL) THEN
      482    13194    2               CALL PRINT_ITEM ( ADDR(NIL), %ROP );
      483    13195    2             ELSE
      484    13196    2               CALL Z8JW$WALK_TREE ( ID$-> SEARCH_.ALTRET_, %ROP, PRINT_NDX );
      485    13197
      486    13198        /*                 Expand TABLEVAL if present                      */
      487    13199
      488    13200    2             IF ID$-> SEARCH_.TABLEVAL = ADDR(NIL) THEN
      489    13201    2               CALL PRINT_ITEM( ADDR(NIL), %ROP );
      490    13202    2             ELSE
      491    13203    2               CALL Z8JW$WALK_TREE ( ID$-> SEARCH_.TABLEVAL, %ROP, PRINT_NDX );
      492    13204
      493    13205        /*                 Expand  TO_ if present                          */
      494    13206
      495    13207    2             IF ID$ -> ILL.TO_ = ADDR(NIL) THEN
      496    13208    2               CALL PRINT_ITEM ( ADDR(NIL), %ROP );
      497    13209    2             ELSE
      498    13210    2               CALL Z8JW$WALK_TREE ( ID$ -> ILL.TO_, %ROP, PRINT_NDX );
      499    13211
      500    13212        /*              Expand the ROP of the current item.             */
      501    13213
      502    13214    2             IF ID$ -> ILL.ROP  = ADDR(NIL) THEN
      503    13215    2               CALL PRINT_ITEM ( ADDR(NIL), %ROP );
      504    13216    2             ELSE
      505    13217    2               CALL Z8JW$WALK_TREE ( ID$ -> ILL.ROP, %ROP, PRINT_NDX );
      506    13218
      507    13219        /*               Print the current item.                       */
      508    13220
      509    13221    2             CALL PRINT_ITEM ( ID$ ,OP );
      510    13222
      511    13223        /*               Expand the LOP of the current item.            */
PL6.E3A0      #001=Z8JW$WALK_TREE File=Z8JW.:Z8A6TSI                             SAT 08/09/97 13:33 Page:22
      512    13224
      513    13225    2             IF ID$ -> ILL.LOP = ADDR(NIL) THEN
      514    13226    2               CALL PRINT_ITEM ( ADDR(NIL) , %LOP );
      515    13227    2             ELSE
      516    13228    2               CALL Z8JW$WALK_TREE ( ID$ -> ILL.LOP , %LOP, PRINT_NDX );
      517    13229
      518    13230        %EJECT;
PL6.E3A0      #001=Z8JW$WALK_TREE File=Z8JW.:Z8A6TSI                             SAT 08/09/97 13:33 Page:23
      519    13231          /*      Items with ONE operand: LOP                            */
      520    13232    2           CASE ( %DEFLB, %MFILL, %ON_SWITCH, %OFF_SWITCH, %SUB_PREP,
      521    13233    2                  %WHEN, %FISS, %OFF, %DAN, %DNA, %ASC_BIN, %BIN_ASC, %D96,
      522    13234    2                  %DESC, %MPD10, %TRIAD, %ARGP, %ESC, %CVIK, %CFILLR,
      523    13235    2                  %CFILL, %CVDDD, %CVIH, %CVID9, %CVDSF, %RNDQ, %GO_SUB,
      524    13236    2                  %MPI2, %USQ, %USD, %USI, %USR, %CVDO, %CVII, %CVDD, %STP2, %CVDF,
      525    13237    2                  %RNDD, %CVRR, %RNDR, %TRN, %DVI2, %CVT, %CVAA, %EXIT_PROG,
      526    13238    2                  %CV49, %CVID4, %CVOD4, %CVRD4, %CVQD4, %CVDI, %SHIFT_L,
      527    13239    2                  %CVRI, %CVQI, %CVDRR, %CVIR, %CVQR, %CVDQR, %SHIFT_R,
      528    13240    2                  %CVIQ, %CVRQ, %CVIJ, %CVOD9, %CVQD9, %CVRD9, %VAL, %RNDO, %ADDR );
      529    13241
      530    13242    2             IF ID$ -> ILL.ID <= %LAST_ETT THEN
      531    13243    2               CALL PRINT_DATA ( ID$, %ROP);
      532    13244    2             ELSE
      533    13245    2               CALL PRINT_ITEM ( ADDR(NIL), %ROP);
      534    13246
      535    13247        /*               Print the current item.                       */
      536    13248
      537    13249    2             CALL PRINT_ITEM ( ID$ ,OP );
      538    13250
      539    13251        /*               Expand the LOP of the current item.            */
      540    13252
      541    13253    2             IF ID$ -> ILL.LOP = ADDR(NIL) THEN
      542    13254    2               CALL PRINT_ITEM ( ADDR(NIL) , %LOP );
      543    13255    2             ELSE
      544    13256    2               CALL Z8JW$WALK_TREE ( ID$ -> ILL.LOP , %LOP, PRINT_NDX );
      545    13257
      546    13258        %EJECT;
PL6.E3A0      #001=Z8JW$WALK_TREE File=Z8JW.:Z8A6TSI                             SAT 08/09/97 13:33 Page:24
      547    13259          /*      Items with TWO operands: LOP & ROPCON -- data           */
      548    13260    2           CASE ( %PINC );
      549    13261
      550    13262    2             CALL PRINT_DATA ( ID$, %ROP);
      551    13263
      552    13264        /*               Print the current item.                       */
      553    13265
      554    13266    2             CALL PRINT_ITEM ( ID$ ,OP );
      555    13267
      556    13268        /*               Expand the LOP of the current item.            */
      557    13269
      558    13270    2             IF ID$ -> ILL.LOP = ADDR(NIL) THEN
      559    13271    2               CALL PRINT_ITEM ( ADDR(NIL) , %LOP );
      560    13272    2             ELSE
      561    13273    2               CALL Z8JW$WALK_TREE ( ID$ -> ILL.LOP , %LOP, PRINT_NDX );
      562    13274
      563    13275        %EJECT;
PL6.E3A0      #001=Z8JW$WALK_TREE File=Z8JW.:Z8A6TSI                             SAT 08/09/97 13:33 Page:25
      564    13276    2            CASE ( %DO2 );
      565    13277
      566    13278    2              CALL PRINT_ITEM( ADDR(NIL), %ROP );
      567    13279    2              CALL PRINT_ITEM( ID$, OP );
      568    13280    2              IF ID$->DO_N.TIMES$ ~= ADDR(NIL) THEN
      569    13281    2                CALL Z8JW$WALK_TREE( ID$->DO_N.TIMES$, %LOP, PRINT_NDX );
      570    13282
      571    13283        %EJECT;
PL6.E3A0      #001=Z8JW$WALK_TREE File=Z8JW.:Z8A6TSI                             SAT 08/09/97 13:33 Page:26
      572    13284    2       CASE( %SCOPE );
      573    13285
      574    13286    2         CALL PRINT_ITEM( ADDR(NIL), %ROP );
      575    13287    2         CALL PRINT_ITEM( ID$, OP );
      576    13288    2         IF ID$-> SCOPE.PROC$ ~= ADDR(NIL) THEN
      577    13289    2           CALL Z8JW$WALK_TREE( ID$-> SCOPE.PROC$, %LOP, PRINT_NDX );
      578    13290
      579    13291        %EJECT;
PL6.E3A0      #001=Z8JW$WALK_TREE File=Z8JW.:Z8A6TSI                             SAT 08/09/97 13:33 Page:27
      580    13292    2            CASE ( %DO5 );
      581    13293
      582    13294    2              IF ID$->DO_N.BY$ = ADDR(NIL) THEN
      583    13295    2                CALL PRINT_ITEM( ADDR(NIL), %ROP );
      584    13296    2              ELSE
      585    13297    2                CALL Z8JW$WALK_TREE( ID$-> DO_N.BY$, %ROP, PRINT_NDX );
      586    13298        /*
      587    13299                Step  using From$
      588    13300        */
      589    13301    2              IF ID$->DO_N.FROM$ = ADDR(NIL) THEN
      590    13302    2                CALL PRINT_ITEM( ADDR(NIL), %ROP );
      591    13303    2              ELSE
      592    13304    2                CALL Z8JW$WALK_TREE( ID$-> DO_N.FROM$, %ROP, PRINT_NDX );
      593    13305        /*
      594    13306                Print the DO5 item
      595    13307        */
      596    13308    2              CALL PRINT_ITEM ( ID$, OP );
      597    13309        /*
      598    13310                Step using varying$
      599    13311        */
      600    13312    2              IF ID$-> DO_N.VARYING$ = ADDR(NIL) THEN
      601    13313    2                CALL PRINT_ITEM( ADDR(NIL), %LOP );
      602    13314    2              ELSE
      603    13315    2                CALL Z8JW$WALK_TREE( ID$-> DO_N.VARYING$, %LOP, PRINT_NDX );
      604    13316
      605    13317        %EJECT;
PL6.E3A0      #001=Z8JW$WALK_TREE File=Z8JW.:Z8A6TSI                             SAT 08/09/97 13:33 Page:28
      606    13318        /*
      607    13319                     Items with 2 operands: ROPCON, LOP + symbolic codes.
      608    13320        */
      609    13321    2           CASE ( %CVHI, %CVJI, %CVKI );
      610    13322
      611    13323        /*
      612    13324                   Print the symbolic code from ROPCON.
      613    13325        */
      614    13326
      615    13327    2             CALL PRINT_CODE ( ID$ );
      616    13328    2             CALL PRINT_AND_CLEAR( PRINT_NDX+8, 13, OP);
      617    13329    2             CALL BRANCH_BUILDER( %ROP, PRINT_NDX+8 );
      618    13330
      619    13331        /*               Print the current item.                       */
      620    13332
      621    13333    2             CALL PRINT_ITEM ( ID$ ,OP );
      622    13334
      623    13335        /*               Expand the LOP of the current item.            */
      624    13336
      625    13337    2             IF ID$ -> ILL.LOP = ADDR(NIL) THEN
      626    13338    2               CALL PRINT_ITEM ( ADDR(NIL) , %LOP );
      627    13339    2             ELSE
      628    13340    2               CALL Z8JW$WALK_TREE ( ID$ -> ILL.LOP , %LOP, PRINT_NDX );
      629    13341
      630    13342
      631    13343        %EJECT;
PL6.E3A0      #001=Z8JW$WALK_TREE File=Z8JW.:Z8A6TSI                             SAT 08/09/97 13:33 Page:29
      632    13344    2           CASE ( %ARGLIST );
      633    13345
      634    13346    2             ARGS# = ID$-> ARGLIST.N -1;
      635    13347    2             IF ARGS# = 1
      636    13348    2             OR ARGS# = 0 THEN
      637    13349    2               CALL BRANCH_BUILDER ( %ROP,PRINT_NDX + 8);
      638    13350    2             ELSE
      639    13351    3               DO J = ARGS# -1 DOWNTO 1;
      640    13352    3                 IF ID$-> ARGLIST.ARG$(J) = ADDR(NIL) THEN
      641    13353    3                   CALL PRINT_ITEM ( ADDR(NIL), %ROP );
      642    13354    3                 ELSE
      643    13355    3                   CALL Z8JW$WALK_TREE ( ID$-> ARGLIST.ARG$(J), %ROP, PRINT_NDX);
      644    13356    3               END;
      645    13357
      646    13358            /*     Print the current item.  */
      647    13359
      648    13360    2             CALL PRINT_ITEM (ID$, OP);
      649    13361
      650    13362            /*V*  TREAT LAST ARG AS IF IT WERE THE LOP */
      651    13363
      652    13364    2             IF ID$-> ARGLIST.ARG$(0) = ADDR(NIL)
      653    13365    2             OR ARGS# = 0 THEN
      654    13366    2               CALL PRINT_ITEM ( ADDR(NIL), %LOP );
      655    13367    2             ELSE
      656    13368    2               CALL Z8JW$WALK_TREE ( ID$-> ARGLIST.ARG$(0), %LOP, PRINT_NDX);
      657    13369
      658    13370
      659    13371        %EJECT;
PL6.E3A0      #001=Z8JW$WALK_TREE File=Z8JW.:Z8A6TSI                             SAT 08/09/97 13:33 Page:30
      660    13372    2         CASE ( %CMPAS );
      661    13373
      662    13374    2           CALL PRINT_CODE ( ID$ );
      663    13375    2           CALL PRINT_AND_CLEAR( PRINT_NDX+8, 13, OP );
      664    13376    2           CALL BRANCH_BUILDER( %ROP, PRINT_NDX+8 );
      665    13377    2           CALL PRINT_ITEM ( ID$, OP );
      666    13378    2           CALL Z8JW$WALK_TREE ( ID$ -> ETT.LOP, %LOP, PRINT_NDX );
      667    13379
      668    13380        %EJECT;
PL6.E3A0      #001=Z8JW$WALK_TREE File=Z8JW.:Z8A6TSI                             SAT 08/09/97 13:33 Page:31
      669    13381        /*
      670    13382             Special Case:  INTDEF, SYMDEF_
      671    13383        */
      672    13384
      673    13385    2       CASE ( %INTDEF, %SYMDEF_ );
      674    13386
      675    13387    2         IF ID$-> INTDEF.ARGLIST$ = ADDR(NIL) THEN
      676    13388    2           CALL PRINT_ITEM ( ADDR(NIL), %ROP );
      677    13389    2         ELSE
      678    13390    2           CALL Z8JW$WALK_TREE ( ID$-> INTDEF.ARGLIST$, %ROP, PRINT_NDX );
      679    13391
      680    13392        /*
      681    13393             Print the current item and its name ( dnt$->dnt.text.name )
      682    13394        */
      683    13395
      684    13396    2         IF ID$-> INTDEF.DNT$ ~= ADDR(NIL) THEN
      685    13397    3           DO;
      686    13398    3             SUBSTR( OBUF,PRINT_NDX+9,1 ) = '(';
      687    13399    3             SUBSTR (OBUF,PRINT_NDX+10,ID$-> INTDEF.DNT$-> DNT.TEXT.LENGTH) =
      688    13400    3                                       ID$-> INTDEF.DNT$-> DNT.TEXT.NAME;
      689    13401    3             SUBSTR (OBUF,PRINT_NDX+10+ID$-> INTDEF.DNT$-> DNT.TEXT.LENGTH,1) = ')';
      690    13402    3           END;
      691    13403
      692    13404    2         CALL PRINT_ITEM ( ID$, OP );
      693    13405    2         SUBSTR (OBUF,PRINT_NDX+9,ID$-> INTDEF.DNT$-> DNT.TEXT.LENGTH+2) = ' ';
      694    13406
      695    13407
      696    13408        %EJECT;
PL6.E3A0      #001=Z8JW$WALK_TREE File=Z8JW.:Z8A6TSI                             SAT 08/09/97 13:33 Page:32
      697    13409    2         CASE ( %CCOSU, %EVALP );
      698    13410
      699    13411    2           IF ID$->CCOSU.EVEX = ADDR(NIL) THEN
      700    13412    2             CALL PRINT_ITEM( ADDR(NIL), %ROP );
      701    13413    2           ELSE
      702    13414    2             CALL Z8JW$WALK_TREE( ID$-> CCOSU.EVEX, %ROP, PRINT_NDX );
      703    13415
      704    13416        /*
      705    13417                      Print item and its count.
      706    13418        */
      707    13419
      708    13420    2           CALL X8CO$CONV_TO_OCTAL(  ID$-> CCOSU.CNTE, CHAR12 );
      709    13421    2           SUBSTR (OBUF,PRINT_NDX+9,8) = '-cnte = ';
      710    13422    2           SUBSTR (OBUF,PRINT_NDX+17,6) = SUBSTR( CHAR12,6,6 );
      711    13423    2           CALL PRINT_ITEM( ID$, OP);
      712    13424    2           SUBSTR( OBUF,PRINT_NDX+8,13) = ' ';
      713    13425
      714    13426        /*
      715    13427                      Print B (bits) field.
      716    13428        */
      717    13429
      718    13430    2           CALL X8CO$CONV_TO_OCTAL(  ID$->CCOSU.B, CHAR12 );
      719    13431    2           SUBSTR( OBUF,PRINT_NDX+8,9 ) = ':-Bits = ';
      720    13432    2           SUBSTR( OBUF,PRINT_NDX+17,12) = CHAR12;
      721    13433    2           CALL PRINT_AND_CLEAR ( PRINT_NDX+8, 25, %LOP );
      722    13434
      723    13435        %EJECT;
PL6.E3A0      #001=Z8JW$WALK_TREE File=Z8JW.:Z8A6TSI                             SAT 08/09/97 13:33 Page:33
      724    13436          /*      Items with NO operands                                 */
      725    13437    2           CASE ( %EVALU, %STOP, %END, %ENTRY, %OPN, %DO1, %DO3, %DO4,
      726    13438    2                  %DOEND, %OPA, %STOPL, %USE_ENTRY, %USE_END, %PEND,
      727    13439    2                  %END_PROG, %VAL_END, %AUTO );
      728    13440    2             CALL PRINT_ITEM ( ID$, OP );
      729    13441
      730    13442
      731    13443
      732    13444    2            CASE( %LCNST);
      733    13445
      734    13446    2              SUBSTR( OBUF,PRINT_NDX + 10,45 ) =
             13446                       'Use online table dump to get long constants.';
      735    13447    2              CALL PRINT_ITEM( ID$, OP );
      736    13448    2              SUBSTR( OBUF,PRINT_NDX+10,45 ) = ' ';   /* Remove message */
      737    13449
      738    13450        %EJECT;
PL6.E3A0      #001=Z8JW$WALK_TREE File=Z8JW.:Z8A6TSI                             SAT 08/09/97 13:33 Page:34
      739    13451
      740    13452            /* Symbol table items */
      741    13453
      742    13454    2           CASE ( %TEMP, %ARRAY, %SCALAR, %CONST, %SEGMENT, %SWITCH,
      743    13455    2                  %SECTION, %PARA, %SYMREF_, %BLOCK, %DCB_, %CSIB, %CONDITION,
      744    13456    2                  %FD, %SD, %CD, %RD, %REALM, %DML_SET, %DML_KEY, %PRIVACY_KEY,
      745    13457    2                  %INDUCT, %POINTER, %SYM_CHAR, %ALPHABET, %CLASS, %MNEMONIC );
      746    13458
      747    13459    2              CALL PRINT_ST_ITEM ( ID$, OP );
      748    13460
      749    13461
      750    13462
      751    13463    2         CASE ( %LEXEME );
      752    13464
      753    13465    2           SUBSTR( OBUF,PRINT_NDX+8,2 ) = ' [';
      754    13466    2           SUBSTR( OBUF,PRINT_NDX+10, ID$->DNT.TEXT.LENGTH ) =
      755    13467    2                   ID$-> DNT.TEXT.NAME;
      756    13468    2           SUBSTR( OBUF,PRINT_NDX+10 + ID$->DNT.TEXT.LENGTH, 1) = ']';
      757    13469    2           CALL PRINT_ITEM( ID$, OP );
      758    13470    2           SUBSTR( OBUF,PRINT_NDX+8  + ID$->DNT.TEXT.LENGTH ) = ' ';
      759    13471
      760    13472        %EJECT;
PL6.E3A0      #001=Z8JW$WALK_TREE File=Z8JW.:Z8A6TSI                             SAT 08/09/97 13:33 Page:35
      761    13473    2           CASE (ELSE);
      762    13474                /* ERROR */
      763    13475    2           STRING = OBUF;        /*  SAVE OBUF  */
      764    13476    2           OBUF = 'Unknown ID encountered; ID = ';
      765    13477    2           CALL X8CO$CONV_TO_OCTAL(ID$->ILL.ID, CHAR12);
      766    13478    2           SUBSTR(OBUF,30,6) = SUBSTR(CHAR12,0,6);
      767    13479    2           CALL Z9AL$DUMP_LINE;   /* WRITE OBUF */
      768    13480    2           IF ID$-> ILL.ID <= %Z8A_NAMES_SIZE THEN
      769    13481    3             DO;
      770    13482    3               OBUF = 'Test access of Z8A_NAMES; ID = ';
      771    13483    3               SUBSTR( OBUF,35,8 ) = NAMES( ID$-> ILL.ID ) ;
      772    13484    3             END;
      773    13485    2           ELSE
      774    13486    2               OBUF = 'ID is illegal !!';
      775    13487    2           CALL Z9AL$DUMP_LINE;   /* write obuf */
      776    13488    2           OBUF = STRING;       /* RESTORE OBUF AND CONTINUE TREEWALK */
      777    13489    2           CALL BRANCH_BUILDER ( %ROP, PRINT_NDX );
      778    13490
      779    13491    2         END;  /* DO CASE */
      780    13492    1         RETURN;
      781    13493        %EJECT;
PL6.E3A0      #001=Z8JW$WALK_TREE File=Z8JW.:Z8A6TSI                             SAT 08/09/97 13:33 Page:36
      782    13494    1   Z8JW$ABSTRACT_TREES: ENTRY( ID$, OP_ARG, PRINT_ARG );
      783    13495
      784    13496
      785    13497    1       PRINT_NDX = PRINT_ARG + 10;
      786    13498    1       OP = OP_ARG;
      787    13499    1       ABSTRACT = TRUE;
      788    13500    1       IF OP_ARG = %LOWER THEN
      789    13501    1         LOWER_TREES = TRUE;
      790    13502
      791    13503    2       DO CASE( ID$ -> LX_LIST.ID );
      792    13504
      793    13505    2         CASE( %LX_LIST );
      794    13506
      795    13507    2           IF ID$ -> LX_LIST.LINK ~= ADDR(NIL) THEN
      796    13508    2             CALL PRINT_AST_ITEM( ID$, %ROP );
      797    13509    2           ELSE
      798    13510    2             CALL PRINT_AST_ITEM( ID$, %LOP );
      799    13511    2           IF ID$ -> LX_LIST.HEAD$ ~= ADDR(NIL) THEN
      800    13512    2             CALL Z8JW$ABSTRACT_TREES( ID$-> LX_LIST.HEAD$, %ROP, PRINT_NDX );
      801    13513    2           IF ID$ -> LX_LIST.LINK ~= ADDR(NIL) THEN
      802    13514    2             CALL Z8JW$ABSTRACT_TREES( ID$-> LX_LIST.LINK, %ROP, PRINT_NDX-10);
      803    13515        %EJECT;
PL6.E3A0      #001=Z8JW$WALK_TREE File=Z8JW.:Z8A6TSI                             SAT 08/09/97 13:33 Page:37
      804    13516    2         CASE( %LX_TERMINAL );
      805    13517
      806    13518    2           IF ID$-> LX_TERMINAL.LINK ~= ADDR(NIL) THEN
      807    13519    3             DO;
      808    13520    3               CALL PRINT_AST_ITEM( ID$, %ROP );
      809    13521    3               CALL Z8JW$ABSTRACT_TREES( ID$->LX_TERMINAL.LINK, OP, PRINT_NDX-10);
      810    13522    3             END;
      811    13523    2           ELSE
      812    13524    2             CALL PRINT_AST_ITEM( ID$, %LOP );
      813    13525        %EJECT;
PL6.E3A0      #001=Z8JW$WALK_TREE File=Z8JW.:Z8A6TSI                             SAT 08/09/97 13:33 Page:38
      814    13526    2         CASE( %LX_ETT_ITEM );
      815    13527
      816    13528    2           IF ID$-> LX_ETT_ITEM.LINK ~= ADDR(NIL) THEN
      817    13529    3             DO;
      818    13530    3               CALL PRINT_AST_ITEM( ID$, %ROP);
      819    13531    3               CALL Z8JW$ABSTRACT_TREES( ID$-> LX_ETT_ITEM.LINK, OP, PRINT_NDX-10);
      820    13532    3             END;
      821    13533    2           ELSE
      822    13534    2             CALL PRINT_AST_ITEM( ID$, %LOP);
      823    13535        %EJECT;
PL6.E3A0      #001=Z8JW$WALK_TREE File=Z8JW.:Z8A6TSI                             SAT 08/09/97 13:33 Page:39
      824    13536    2         CASE( %LX_LARGE );
      825    13537
      826    13538    2           IF ID$ -> LX_LARGE.LINK ~= ADDR(NIL) THEN
      827    13539    3             DO;
      828    13540    3               CALL PRINT_AST_ITEM( ID$, %ROP );
      829    13541    3               CALL Z8JW$ABSTRACT_TREES( ID$->LX_LARGE.LINK, OP, PRINT_NDX-10 );
      830    13542    3             END;
      831    13543    2           ELSE
      832    13544    2             CALL PRINT_AST_ITEM( ID$, %LOP );
      833    13545        %EJECT;
PL6.E3A0      #001=Z8JW$WALK_TREE File=Z8JW.:Z8A6TSI                             SAT 08/09/97 13:33 Page:40
      834    13546    2         CASE( %BINARY_OP );
      835    13547
      836    13548    2           IF ID$-> BINARY_OP.ROP$ ~= ADDR(NIL) THEN
      837    13549    2             CALL Z8JW$ABSTRACT_TREES( ID$->BINARY_OP.ROP$, %ROP, PRINT_NDX);
      838    13550    2           IF ID$-> BINARY_OP.LINK ~= ADDR(NIL) THEN
      839    13551    2             CALL PRINT_AST_ITEM( ID$, %ROP);
      840    13552    2           ELSE
      841    13553    2             CALL PRINT_AST_ITEM( ID$, %LOP);
      842    13554
      843    13555    2           IF ID$-> BINARY_OP.LOP$ ~= ADDR(NIL) THEN
      844    13556    3             DO;
      845    13557    3               CALL BRANCH_BUILDER( %ROP, PRINT_NDX+10 );
      846    13558    3               CALL Z8JW$ABSTRACT_TREES( ID$->BINARY_OP.LOP$, %LOP, PRINT_NDX );
      847    13559    3             END;
      848    13560    2           IF ID$-> BINARY_OP.LINK ~= ADDR(NIL) THEN
      849    13561    2             CALL Z8JW$ABSTRACT_TREES( ID$->BINARY_OP.LINK, OP, PRINT_NDX-10 );
      850    13562        %EJECT;
PL6.E3A0      #001=Z8JW$WALK_TREE File=Z8JW.:Z8A6TSI                             SAT 08/09/97 13:33 Page:41
      851    13563    2         CASE( %UNARY_OP );
      852    13564
      853    13565    2           IF ID$-> UNARY_OP.LINK ~= ADDR(NIL) THEN
      854    13566    2             CALL PRINT_AST_ITEM( ID$, %ROP );
      855    13567    2           ELSE
      856    13568    2             CALL PRINT_AST_ITEM( ID$, %LOP );
      857    13569
      858    13570    2           IF ID$-> UNARY_OP.LOP$ ~= ADDR(NIL) THEN
      859    13571    3             DO;
      860    13572    3               CALL BRANCH_BUILDER( %ROP, PRINT_NDX+10 );
      861    13573    3               CALL Z8JW$ABSTRACT_TREES( ID$->UNARY_OP.LOP$, %LOP, PRINT_NDX);
      862    13574    3             END;
      863    13575
      864    13576    2           IF ID$-> UNARY_OP.LINK ~= ADDR(NIL) THEN
      865    13577    2             CALL Z8JW$ABSTRACT_TREES( ID$->UNARY_OP.LINK, OP, PRINT_NDX-10 );
      866    13578        %EJECT;
PL6.E3A0      #001=Z8JW$WALK_TREE File=Z8JW.:Z8A6TSI                             SAT 08/09/97 13:33 Page:42
      867    13579    2         CASE( %ILS_LIST );
      868    13580
      869    13581    2           IF ID$-> ILS_LIST.LINK ~= ADDR(NIL) THEN
      870    13582    2             CALL PRINT_AST_ITEM( ID$, %ROP );
      871    13583    2           ELSE
      872    13584    2             CALL PRINT_AST_ITEM( ID$, %LOP );
      873    13585
      874    13586    2           IF ID$-> ILS_LIST.HEAD$ ~= ADDR(NIL) THEN
      875    13587    2             CALL Z8JW$ABSTRACT_TREES( ID$-> ILS_LIST.HEAD$, OP, PRINT_NDX-10 );
      876    13588
      877    13589    2           IF ID$-> ILS_LIST.LINK ~= ADDR(NIL) THEN
      878    13590    2            CALL Z8JW$ABSTRACT_TREES( ID$->ILS_LIST.LINK, OP, PRINT_NDX-10 );
      879    13591        %EJECT;
PL6.E3A0      #001=Z8JW$WALK_TREE File=Z8JW.:Z8A6TSI                             SAT 08/09/97 13:33 Page:43
      880    13592    2         CASE( ELSE );
      881    13593    2           STRING = OBUF;
      882    13594    2           OBUF = 'Unknown ID encountered:  ID = ';
      883    13595    2           CALL X8CO$CONV_TO_OCTAL( ID$->LX_LIST.ID, CHAR12);
      884    13596    2           SUBSTR( OBUF,30,3) = SUBSTR( CHAR12,2,3 );
      885    13597    2           CALL Z9AL$DUMP_LINE;
      886    13598    2           OBUF = STRING;         /* Restore obuf */
      887    13599    2           CALL BRANCH_BUILDER ( %ROP, PRINT_NDX );
      888    13600
      889    13601    2       END;  /*  case lx$-> lx_list.id */
      890    13602    1       RETURN;
      891    13603        %EJECT;
PL6.E3A0      #001=Z8JW$WALK_TREE File=Z8JW.:Z8A6TSI                             SAT 08/09/97 13:33 Page:44
      892    13604        /*I*     NAME:         PRINT_ITEM
      893    13605                               ---------------
      894    13606                 THIS ROUTINE SETS UP OBUF TO BE PRINTED FOR ALL
      895    13607                 NAMED AND NIL ITEMS, THEN CALLS THE PRINT ROUTINE TO
      896    13608                 TO PRINT AND CLEAR OBUF.  LASTLY, A CALL IS MADE TO
      897    13609                 THE ROUTINE WHICH RESETS VERTICAL TREE BRANCHES.
      898    13610
      899    13611
      900    13612        */
      901    13613    1     PRINT_ITEM: PROC ( ID$, OP);
      902    13614
      903    13615    2       DCL ID$   PTR;
      904    13616    2       DCL OP        UBIN WORD;
      905    13617    2       DCL I         SBIN WORD;
      906    13618    2       DCL NAME_LENGTH SBIN WORD;
      907    13619    2       DCL MAX_LENGTH  SBIN WORD;
      908    13620
      909    13621        %EJECT;
PL6.E3A0      #001=Z8JW$WALK_TREE File=Z8JW.:Z8A6TSI                             SAT 08/09/97 13:33 Page:45
      910    13622    2       IF ID$ ~= ADDR(NIL) THEN
      911    13623    3         DO;
      912    13624
      913    13625            /*V*                     HORIZONTAL TREE BRANCHES
      914    13626                                     ---------- ---- --------
      915    13627                    CHECK FOR TREE LEAF, IF LEAF PUT IN A SHORTENED
      916    13628                    FILL CHARACTER TO ELIMINATE TRAILING DASHES.
      917    13629            */
      918    13630
      919    13631    3           IF ID$-> ILL.ID >  %LAST_ILL
      920    13632    3           AND ID$-> ILL.ID ~= %ARGLIST THEN
      921    13633    4             DO;
      922    13634    4               SUBSTR (OBUF, PRINT_NDX, 8) = ':--'; /* SHORT FILL */
      923    13635    4               MAX_LENGTH = 7;      /* ALLOW FULL NAME LENGTH */
      924    13636    4             END;
      925    13637    3           ELSE
      926    13638    4             DO;
      927    13639    4               MAX_LENGTH = 4;  /* CUT LENGTH TO RETAIN DASHES */
      928    13640    4               SUBSTR (OBUF, PRINT_NDX, 8) = ':-------';  /*LONG FILLER */
      929    13641    4             END;
      930    13642
      931    13643           /*V*                     NAMED ITEMS
      932    13644                                    ----- -----
      933    13645                DETERMINE LENGTH OF NAME AND PLACE INTO OBUF BETWEEN
      934    13646                HORIZONTAL TREE BRANCHES.  CONVERT LOCATION TO OCTAL
      935    13647                AND PLACE INTO FRONT OF OBUF.  PRINT AND CLEAR OBUF.
      936    13648                SET VERTICAL TREE BRANCHES AS NEEDED.
      937    13649
      938    13650            */
      939    13651
      940    13652
      941    13653
      942    13654
      943    13655    3           NAME_LENGTH = 0;
      944    13656    4           DO I = 0 TO MAX_LENGTH;
      945    13657    4             IF SUBSTR(NAMES(ID$ -> ILL.ID),I,1) ~= ' ' THEN
      946    13658    4               NAME_LENGTH = NAME_LENGTH + 1;
PL6.E3A0      #001=Z8JW$WALK_TREE File=Z8JW.:Z8A6TSI                             SAT 08/09/97 13:33 Page:46
      947    13659    4           END; /* DO TO */
      948    13660
      949    13661    3           SUBSTR(OBUF,PRINT_NDX+2, NAME_LENGTH) =
      950    13662    3                SUBSTR( NAMES(ID$ -> ILL.ID),0,NAME_LENGTH );
      951    13663    3           CALL X8CO$CONV_TO_OCTAL (ID$, CHAR12 );
      952    13664    3           CALL PRINT_ADDRESS( ID$ );
      953    13665    3           CALL PRINT_AND_CLEAR( PRINT_NDX, 8, OP );
      954    13666    3           CALL BRANCH_BUILDER( OP, PRINT_NDX );
      955    13667    3         END; /*  IF DO... */
      956    13668
      957    13669
      958    13670            /*V*                    NIL ITEMS
      959    13671                                    --- -----
      960    13672                 INSERT THE NIL MESSAGE INTO OBUF, BLANK THE LOCATION #
      961    13673                 IN OBUF, PRINT AND CLEAR OBUF. THEN INSERT VERTICAL
      962    13674                 BRANCHES IF NEEDED.
      963    13675            */
      964    13676
      965    13677    2       ELSE
      966    13678    3         DO;
      967    13679    3           SUBSTR ( OBUF,PRINT_NDX+8, 8 ) = ':--  NIL';
      968    13680    3           CALL PRINT_ADDRESS( ADDR(NIL) );
      969    13681    3           CALL PRINT_AND_CLEAR ( PRINT_NDX+8, 8, OP );
      970    13682    3           CALL BRANCH_BUILDER ( OP, PRINT_NDX+8 );
      971    13683    3         END; /* ELSE DO */
      972    13684
      973    13685
      974    13686
      975    13687    2     END PRINT_ITEM; /* END PROC */
      976    13688
      977    13689        %EJECT;
PL6.E3A0      #001=Z8JW$WALK_TREE File=Z8JW.:Z8A6TSI                             SAT 08/09/97 13:33 Page:47
      978    13690        /*I*     NAME:         PRINT_ST_ITEM
      979    13691                               ------------------
      980    13692
      981    13693                THIS ROUTINE INSERTS EXTERNAL SYMBOL NAMES ENCLOSED
      982    13694                IN BRACKETS INTO OBUF FOR ALL SYMBOL TABLE ITEMS WHICH
      983    13695                HAVE EXTERNAL SYMBOL S ASSOCIATED WITH THEM.  THEN A
      984    13696                CALL IS MADE TO PRINT_ITEM TO SET UP THE REST OF OBUF.
      985    13697
      986    13698        */
      987    13699    1     PRINT_ST_ITEM: PROC ( ID$, OP );
      988    13700    2       DCL ID$   PTR;
      989    13701    2       DCL OP        UBIN WORD;
      990    13702    2       DCL I         SBIN WORD;
      991    13703
      992    13704
      993    13705            /*V*  DETERMINE IF ITEM IS A SYMBOL TABLE ITEM WHICH
      994    13706                  HAS AN EXTERNAL SYMBOL NAME ASSOCIATED WITH.  IF SO,
      995    13707                  THEN INSERT THAT NAME INTO OBUF.
      996    13708
      997    13709            */
      998    13710
      999    13711
     1000    13712
     1001    13713    2       IF  ID$ -> ST.ID >= %FIRST_ST
     1002    13714    2       AND ID$ -> ST.ID <= %LAST_ST THEN
     1003    13715    3         DO;
     1004    13716    3           IF  ID$ -> ST.DNT$ = ADDR(NIL) THEN
     1005    13717    4             DO;
     1006    13718    4               CALL X8CO$CONV_TO_OCTAL( ID$-> CONST.CONSTI.WORD1, CHAR12);
     1007    13719    4               SUBSTR( OBUF,PRINT_NDX+10,12 ) = CHAR12;
     1008    13720    4               CALL X8CO$CONV_TO_OCTAL( ID$-> CONST.CONSTI.WORD2, CHAR12 );
     1009    13721    4               SUBSTR( OBUF,PRINT_NDX+22,1) = ' ';
     1010    13722    4               SUBSTR( OBUF,PRINT_NDX+23,12) = CHAR12;
     1011    13723    4             END;
     1012    13724    3           ELSE
     1013    13725    4             DO;
     1014    13726    4               DNT$ = ID$ -> ST.DNT$;
PL6.E3A0      #001=Z8JW$WALK_TREE File=Z8JW.:Z8A6TSI                             SAT 08/09/97 13:33 Page:48
     1015    13727    4               IF DNT$ -> DNT.ID = %LEXEME THEN
     1016    13728    4                 SUBSTR( OBUF, PRINT_NDX+10, 25) = DNT$ -> DNT.TEXT.NAME;
     1017    13729    4             END;
     1018    13730    3          END;
     1019    13731            /*V*
     1020    13732              PUT BRACKETS AROUND  DNT.TEXT.NAME  IN OBUF.
     1021    13733            */
     1022    13734
     1023    13735    2       SUBSTR (OBUF, PRINT_NDX+8, 2) = ' [';
     1024    13736    3       DO I = PRINT_NDX+35 DOWNTO PRINT_NDX+10;
     1025    13737    3         IF SUBSTR(OBUF, I, 1) ~= ' ' THEN
     1026    13738    3           EXIT;
     1027    13739    3       END;
     1028    13740    2       SUBSTR (OBUF, I+1, 1) = ']';
     1029    13741
     1030    13742
     1031    13743    2       CALL PRINT_ITEM ( ID$, OP );
     1032    13744    2       SUBSTR(OBUF, PRINT_NDX+1, 40) = ' ';  /* CLEAR REST OF OBUF */
     1033    13745
     1034    13746    2     END PRINT_ST_ITEM;  /* END PROC */
     1035    13747        %EJECT;
PL6.E3A0      #001=Z8JW$WALK_TREE File=Z8JW.:Z8A6TSI                             SAT 08/09/97 13:33 Page:49
     1036    13748        /*I*     NAME:         PRINT_DATA
     1037    13749                               ---------------
     1038    13750              THIS ROUTINE DETERMINES IF THERE IS DATA, IF SO; THE
     1039    13751              DATA IS CONVERTED TO OCTAL AND PLACED INTO OBUF AS FOLLOWS:
     1040    13752                   :-FIRST HALF <SPACE> SECOND HALF
     1041    13753              THEN OBUF IS PRINTED AND CLEARED AND VERTICAL TREE BRANCHES
     1042    13754              ARE RESET.
     1043    13755
     1044    13756        */
     1045    13757
     1046    13758    1     PRINT_DATA: PROC ( PTR$, OP);
     1047    13759
     1048    13760    2       DCL PTR$       PTR;
     1049    13761    2       DCL OP         UBIN WORD;
     1050    13762
     1051    13763    2       IF PTR$ -> ETT.ROP = ADDR(NIL) THEN
     1052    13764    2         CALL PRINT_ITEM ( ADDR(NIL), OP);
     1053    13765    2       ELSE
     1054    13766    3         DO;
     1055    13767    3           CALL X8CO$CONV_TO_OCTAL ( PTR$-> ETT.ROPCON , CHAR12 );
     1056    13768    3           SUBSTR (OBUF, 0, 6) = ' ';
     1057    13769    3           SUBSTR (OBUF, PRINT_NDX+8, 2) = ':-';
     1058    13770    3           SUBSTR(OBUF,PRINT_NDX+10,6) = SUBSTR(CHAR12,0,6);
     1059    13771    3           SUBSTR (OBUF, PRINT_NDX+16, 1) = ' ';
     1060    13772    3           SUBSTR (OBUF, PRINT_NDX+17, 6) = SUBSTR (CHAR12, 6, 6);
     1061    13773    3           CALL PRINT_AND_CLEAR ( PRINT_NDX+8, 8, OP );
     1062    13774    3           SUBSTR(OBUF,PRINT_NDX+8,16) = ' '; /* CLEAR OBUF */
     1063    13775    3           CALL BRANCH_BUILDER ( OP, PRINT_NDX+8 );
     1064    13776    3         END;
     1065    13777
     1066    13778    2     END PRINT_DATA;  /* END PROC */
     1067    13779        %EJECT;
PL6.E3A0      #001=Z8JW$WALK_TREE File=Z8JW.:Z8A6TSI                             SAT 08/09/97 13:33 Page:50
     1068    13780    1     PRINT_DNT_NAME: PROC(DNT$, OP);
     1069    13781
     1070    13782    2       DCL DNT$           PTR;
     1071    13783    2       DCL OP             SBIN WORD;
     1072    13784
     1073    13785    2       IF DNT$ = ADDR(NIL) THEN
     1074    13786    3         DO;
     1075    13787    3           SUBSTR( OBUF,PRINT_NDX+8,22 ) = ':- *** Dnt$ is nil ***';
     1076    13788    3           CALL PRINT_AND_CLEAR( PRINT_NDX+8, 22 );
     1077    13789    3           CALL BRANCH_BUILDER( OP, PRINT_NDX+8 );
     1078    13790    3         END;
     1079    13791    2       ELSE
     1080    13792    3         DO;
     1081    13793    3           SUBSTR( OBUF,PRINT_NDX+8,2 ) = ':-';
     1082    13794    3           SUBSTR( OBUF,PRINT_NDX+10,DNT$-> DNT.TEXT.LENGTH ) =
     1083    13795    3                                     DNT$-> DNT.TEXT.NAME;
     1084    13796    3           J = DNT$-> DNT.TEXT.LENGTH + 2;
     1085    13797    3           CALL PRINT_AND_CLEAR( PRINT_NDX+8, J );
     1086    13798    3           CALL BRANCH_BUILDER ( OP, PRINT_NDX+8 );
     1087    13799    3         END;
     1088    13800
     1089    13801    2     END PRINT_DNT_NAME;  /* proc */
     1090    13802        %EJECT;
PL6.E3A0      #001=Z8JW$WALK_TREE File=Z8JW.:Z8A6TSI                             SAT 08/09/97 13:33 Page:51
     1091    13803    1   PRINT_CODE: PROC( ID$ );
     1092    13804
     1093    13805    2       DCL ID$    PTR;
     1094    13806    2       DCL CHAR6  CHAR(6);
     1095    13807    2       DCL MVANO_CMPAS_CODE UBIN;
     1096    13808
     1097    13809    3       DO CASE ( ID$-> ILL.ID );
     1098    13810
     1099    13811    3         CASE( %MVIH, %MVIJ );
     1100    13812    3           SUBSTR( OBUF,PRINT_NDX+9,5 ) = '(Byte ';
     1101    13813    3           CALL BINCHAR( CHAR6, ID$-> ILL.CODE );
     1102    13814    3           SUBSTR( OBUF,PRINT_NDX+15,1 ) = SUBSTR( CHAR6,5,1 );
     1103    13815    3           SUBSTR( OBUF,PRINT_NDX+16,1 ) = ')';
     1104    13816
     1105    13817    3         CASE( %ACCEP );
     1106    13818    4           DO CASE ( ID$-> ILL.CODE );
     1107    13819    4             CASE( %ACCEPT_DATE );
     1108    13820    4               SUBSTR( OBUF,PRINT_NDX+9,6 ) =  '(Date)';
     1109    13821    4             CASE( %ACCEPT_DAY );
     1110    13822    4               SUBSTR( OBUF, PRINT_NDX+9,5 ) = '(Day)';
     1111    13823    4             CASE( %ACCEPT_TIME );
     1112    13824    4               SUBSTR( OBUF,PRINT_NDX+9,6 ) = '(Time)';
     1113    13825    4             CASE( %ACCEPT_DAY_OF_WEEK );
     1114    13826    4               SUBSTR( OBUF,PRINT_NDX+9,9 ) = '(Weekday)';
     1115    13827    4             CASE( %ACCEPT_SYSIN );
     1116    13828    4               SUBSTR( OBUF,PRINT_NDX+9,7 ) = '(Sysin)';
     1117    13829    4             CASE( %ACCEPT_CONSOLE );
     1118    13830    4               SUBSTR( OBUF,PRINT_NDX+9,9 ) = '(Console)';
     1119    13831    4             CASE( ELSE );
     1120    13832    4               SUBSTR( OBUF,PRINT_NDX+9,15 ) = '(Error in code)';
     1121    13833
     1122    13834    4           END; /* case ill.code */
     1123    13835
     1124    13836        %EJECT;
PL6.E3A0      #001=Z8JW$WALK_TREE File=Z8JW.:Z8A6TSI                             SAT 08/09/97 13:33 Page:52
     1125    13837    3         CASE ( %MVANO, %CMPAS );
     1126    13838    3           IF ID$-> ILL.ID = %MVANO
     1127    13839    3             THEN MVANO_CMPAS_CODE = ID$-> ILL.CODE;
     1128    13840    3             ELSE MVANO_CMPAS_CODE = ID$-> ETT.ROPCON;
     1129    13841    4           DO CASE ( MVANO_CMPAS_CODE );
     1130    13842    4             CASE ( %MVANO_UPPER_TO_UPPER );
     1131    13843    4               SUBSTR( OBUF,PRINT_NDX+9,7 ) = '(Up Up)';
     1132    13844    4             CASE ( %MVANO_UPPER_TO_LOWER );
     1133    13845    4               SUBSTR( OBUF,PRINT_NDX+9,8 ) = '(Up Low)';
     1134    13846    4             CASE ( %MVANO_LOWER_TO_UPPER );
     1135    13847    4               SUBSTR( OBUF,PRINT_NDX+9,8 ) = '(Low Up)';
     1136    13848    4             CASE ( %MVANO_LOWER_TO_LOWER );
     1137    13849    4               SUBSTR( OBUF,PRINT_NDX+9,9 ) = '(Low Low)';
     1138    13850    4             CASE ( %MVANO_WORD_TO_WORD );
     1139    13851    4               SUBSTR( OBUF,PRINT_NDX+9,11 ) = '(Word Word)';
     1140    13852    4             CASE ( %MVANO_EVEN_TO_EVEN );
     1141    13853    4               SUBSTR( OBUF,PRINT_NDX+9,11 ) = '(Even Even)';
     1142    13854    4             CASE ( %MVANO_EVEN_TO_ODD );
     1143    13855    4               SUBSTR( OBUF,PRINT_NDX+9,10) = '(Even Odd)';
     1144    13856    4             CASE ( %MVANO_ODD_TO_EVEN );
     1145    13857    4               SUBSTR( OBUF,PRINT_NDX+9,9 ) = '(Odd Odd)';
     1146    13858    4             CASE ( %MVANO_BYTE_0 );
     1147    13859    4               SUBSTR( OBUF,PRINT_NDX+9,8 ) = '(Byte 0)';
     1148    13860    4             CASE ( %MVANO_BYTE_1 );
     1149    13861    4               SUBSTR( OBUF,PRINT_NDX+9,8 ) = '(Byte 1)';
     1150    13862    4             CASE ( %MVANO_BYTE_2 );
     1151    13863    4               SUBSTR( OBUF,PRINT_NDX+9,8 ) = '(Byte 2)';
     1152    13864    4             CASE ( %MVANO_BYTE_3 );
     1153    13865    4               SUBSTR( OBUF,PRINT_NDX+9,8 ) = '(Byte 3)';
     1154    13866    4             CASE ( %MVANO_BYTES_1_2 );
     1155    13867    4               SUBSTR( OBUF,PRINT_NDX+9,11) = '(Bytes 1,2)';
     1156    13868    4             CASE ( %MVANO_BYTES_0_2 );
     1157    13869    4               SUBSTR( OBUF,PRINT_NDX+9,11) = '(Bytes 0,2)';
     1158    13870    4             CASE ( %MVANO_BYTES_1_3 );
     1159    13871    4               SUBSTR( OBUF,PRINT_NDX+9,11) = '(Bytes 1,3)';
     1160    13872    4             CASE ( %MVANO_BYTES_0_1 );
     1161    13873    4               SUBSTR( OBUF,PRINT_NDX+9,11 ) = '(Bytes 0,1)';
PL6.E3A0      #001=Z8JW$WALK_TREE File=Z8JW.:Z8A6TSI                             SAT 08/09/97 13:33 Page:53
     1162    13874    4             CASE ( %MVANO_BYTES_2_3 );
     1163    13875    4               SUBSTR( OBUF,PRINT_NDX+9,11 ) = '(Bytes 2,3)';
     1164    13876    4             CASE( ELSE );
     1165    13877    4               SUBSTR( OBUF,PRINT_NDX+9,15 ) = '(Error in code)';
     1166    13878    4           END;  /* case  ill.code  */
     1167    13879    3           IF ID$-> ETT.ID = %CMPAS THEN
     1168    13880    3             SUBSTR( OBUF,PRINT_NDX+8,1 ) = ':';
     1169    13881        %EJECT;
PL6.E3A0      #001=Z8JW$WALK_TREE File=Z8JW.:Z8A6TSI                             SAT 08/09/97 13:33 Page:54
     1170    13882    3         CASE ( %GO );
     1171    13883    4           DO CASE( ID$-> ILL.CODE );
     1172    13884    4             CASE( %GO_UNCONDITIONAL );
     1173    13885    4               SUBSTR( OBUF,PRINT_NDX+9,8 ) = '(Uncond)';
     1174    13886    4             CASE( %GO_LESS_THAN );
     1175    13887    4               SUBSTR( OBUF,PRINT_NDX+9,3 ) = '(<)';
     1176    13888    4             CASE ( %GO_GREATER_THAN );
     1177    13889    4               SUBSTR( OBUF,PRINT_NDX+9,3 ) = '(>)';
     1178    13890    4             CASE ( %GO_GREATER_THAN_OR_EQUAL );
     1179    13891    4               SUBSTR( OBUF,PRINT_NDX+9,4 ) = '(>=)';
     1180    13892    4             CASE ( %GO_LESS_THAN_OR_EQUAL );
     1181    13893    4               SUBSTR( OBUF,PRINT_NDX+9,4 ) = '(<=)';
     1182    13894    4             CASE ( %GO_NOT_EQUAL );
     1183    13895    4               SUBSTR( OBUF,PRINT_NDX+9,4 ) = '(<>)';
     1184    13896    4             CASE ( %GO_EQUAL );
     1185    13897    4               SUBSTR( OBUF,PRINT_NDX+9,3 ) = '(=)';
     1186    13898    4             CASE ( %GO_CLASS );
     1187    13899    4               SUBSTR( OBUF,PRINT_NDX+9,7 ) = '(Class)';
     1188    13900    4             CASE ( %GO_NOT_CLASS );
     1189    13901    4               SUBSTR( OBUF,PRINT_NDX+9,11) = '(Not Class)';
     1190    13902    4             CASE ( %GO_OVERFLOW );
     1191    13903    4               SUBSTR( OBUF,PRINT_NDX+9,10) = '(Overflow)';
     1192    13904    4             CASE ( %GO_MPI_OVERFLOW );
     1193    13905    4               SUBSTR( OBUF,PRINT_NDX+9,14) = '(Mpi overflow)';
     1194    13906    4             CASE ( %GO_OVERFLOW_OFF );
     1195    13907    4               SUBSTR( OBUF,PRINT_NDX+9,14) = '(Overflow off)';
     1196    13908    4             CASE ( %GO_FLT_OVERFLOW_OFF );
     1197    13909    4               SUBSTR( OBUF,PRINT_NDX+9,18) = '(Flt overflow off)';
     1198    13910    4             CASE ( %GO_PFORM_BYCHK );
     1199    13911    4               SUBSTR( OBUF,PRINT_NDX+9,13) = '(Pform bychk)';
     1200    13912    4             CASE ( %GO_ALTERED );
     1201    13913    4               SUBSTR( OBUF,PRINT_NDX+9,9 ) = '(Altered)';
     1202    13914    4             CASE ( %GO_SWITCH_ON );
     1203    13915    4               SUBSTR( OBUF,PRINT_NDX+9,10) = '(Check on)';
     1204    13916    4             CASE ( %GO_SWITCH_OFF );
     1205    13917    4               SUBSTR( OBUF,PRINT_NDX+9,11 ) = '(Check off)';
     1206    13918    4             CASE ( %GO_FLAG_FALSE );
PL6.E3A0      #001=Z8JW$WALK_TREE File=Z8JW.:Z8A6TSI                             SAT 08/09/97 13:33 Page:55
     1207    13919    4               SUBSTR( OBUF,PRINT_NDX+9,12) = '(Flag false)';
     1208    13920    4             CASE ( %GO_LESS_THAN_LOGICAL );
     1209    13921    4               SUBSTR( OBUF,PRINT_NDX+9,19) = '(Less Than Logical)';
     1210    13922    4             CASE (%GO_FLT_OVERFLOW);
     1211    13923    4               SUBSTR (OBUF, PRINT_NDX+9,14) = '(Flt overflow)';
     1212    13924    4             CASE ( ELSE );
     1213    13925    4               SUBSTR( OBUF,PRINT_NDX+9,15 ) = '(Error in code)';
     1214    13926    4           END;  /* case ill.code */
     1215    13927        %EJECT;
PL6.E3A0      #001=Z8JW$WALK_TREE File=Z8JW.:Z8A6TSI                             SAT 08/09/97 13:33 Page:56
     1216    13928    3         CASE ( %DISPL );
     1217    13929    4           DO CASE( ID$-> ILL.CODE );
     1218    13930    4             CASE ( %DISPLAY_SYSOUT );
     1219    13931    4               SUBSTR( OBUF,PRINT_NDX+9,8) = '(Sysout)';
     1220    13932    4             CASE ( %DISPLAY_SYSOUT_NO_ADV );
     1221    13933    4               SUBSTR ( OBUF,PRINT_NDX+9,15 ) = '(Sysout no adv)';
     1222    13934    4             CASE ( %DISPLAY_CONSOLE );
     1223    13935    4               SUBSTR ( OBUF,PRINT_NDX+9,9 ) = '(Console)';
     1224    13936    4             CASE( ELSE );
     1225    13937    4               SUBSTR( OBUF,PRINT_NDX+9,15 ) = '(Error in code)';
     1226    13938    4           END;  /* case ill.code */
     1227    13939        %EJECT;
PL6.E3A0      #001=Z8JW$WALK_TREE File=Z8JW.:Z8A6TSI                             SAT 08/09/97 13:33 Page:57
     1228    13940    3           CASE ( %CVHI );
     1229    13941    4             DO CASE( ID$-> ETT.ROPCON );
     1230    13942
     1231    13943    4               CASE ( %CVHI_UPPER );
     1232    13944    4                 SUBSTR( OBUF,PRINT_NDX+8,10 ) = ':- (Upper)';
     1233    13945
     1234    13946    4               CASE ( %CVHI_LOWER );
     1235    13947    4                 SUBSTR( OBUF,PRINT_NDX+8,10 ) = ':- (Lower)';
     1236    13948
     1237    13949    4               CASE ( %CVHI_UNKNOWN );
     1238    13950    4                 SUBSTR( OBUF,PRINT_NDX+8,12 ) = ':- (Unknown)';
     1239    13951
     1240    13952    4               CASE (ELSE);
     1241    13953    4                 SUBSTR( OBUF,PRINT_NDX+8,10 ) = ':- (Error)';
     1242    13954
     1243    13955    4             END;  /* case ill.code */
     1244    13956        %EJECT;
PL6.E3A0      #001=Z8JW$WALK_TREE File=Z8JW.:Z8A6TSI                             SAT 08/09/97 13:33 Page:58
     1245    13957
     1246    13958    3           CASE ( %CVKI );
     1247    13959    4             DO CASE ( ID$-> ETT.ROPCON );
     1248    13960
     1249    13961    4               CASE ( %CVKI_BYTE0 );
     1250    13962    4                 SUBSTR( OBUF,PRINT_NDX+8,10 ) = ':- (Byte0)';
     1251    13963
     1252    13964    4               CASE ( %CVKI_BYTE1 );
     1253    13965    4                 SUBSTR( OBUF,PRINT_NDX+8,10 ) = ':- (Byte1)';
     1254    13966
     1255    13967    4               CASE ( %CVKI_BYTE2 );
     1256    13968    4                 SUBSTR( OBUF,PRINT_NDX+8,10 ) = ':- (Byte2)';
     1257    13969
     1258    13970    4               CASE ( %CVKI_BYTE3 );
     1259    13971    4                 SUBSTR( OBUF,PRINT_NDX+8,10 ) = ':- (Byte3)';
     1260    13972
     1261    13973    4               CASE ( %CVKI_UNKNOWN );
     1262    13974    4                 SUBSTR( OBUF,PRINT_NDX+8,12 ) = ':- (Unknown)';
     1263    13975
     1264    13976    4               CASE (ELSE);
     1265    13977    4                 SUBSTR( OBUF,PRINT_NDX+8,10 ) = ':- (Error)';
     1266    13978
     1267    13979    4             END; /* case ill.code */
     1268    13980        %EJECT;
PL6.E3A0      #001=Z8JW$WALK_TREE File=Z8JW.:Z8A6TSI                             SAT 08/09/97 13:33 Page:59
     1269    13981    3           CASE ( %CVJI );
     1270    13982    4             DO CASE( ID$-> ETT.ROPCON );
     1271    13983
     1272    13984    4               CASE ( %CVJI_BYTE0 );
     1273    13985    4                 SUBSTR( OBUF,PRINT_NDX+8,10 ) = ':- (Byte0)';
     1274    13986
     1275    13987    4               CASE ( %CVJI_BYTE1 );
     1276    13988    4                 SUBSTR( OBUF,PRINT_NDX+8,10 ) = ':- (Byte1)';
     1277    13989
     1278    13990    4               CASE ( %CVJI_BYTE2 );
     1279    13991    4                 SUBSTR( OBUF,PRINT_NDX+8,10 ) = ':- (Byte2)';
     1280    13992
     1281    13993    4               CASE ( %CVJI_BYTE3 );
     1282    13994    4                 SUBSTR( OBUF,PRINT_NDX+8,10 ) = ':- (Byte3)';
     1283    13995
     1284    13996    4               CASE ( %CVJI_UNKNOWN );
     1285    13997    4                 SUBSTR( OBUF,PRINT_NDX+8,12 ) = ':- (Unknown)';
     1286    13998
     1287    13999    4               CASE (ELSE);
     1288    14000    4                 SUBSTR( OBUF,PRINT_NDX+8,10 ) = ':- (Error)';
     1289    14001    4           END;  /* case ett.ropcon */
     1290    14002
     1291    14003    3       END; /* case ill.id */
     1292    14004    2   END PRINT_CODE;  /* proc */
     1293    14005        %EJECT;
PL6.E3A0      #001=Z8JW$WALK_TREE File=Z8JW.:Z8A6TSI                             SAT 08/09/97 13:33 Page:60
     1294    14006    1     PRINT_ADDRESS: PROC( ID$ );
     1295    14007
     1296    14008    2       DCL ID$   PTR;
     1297    14009    2       DCL COLUMN UBIN WORD;
     1298    14010
     1299    14011    2       IF ABSTRACT THEN
     1300    14012    2         COLUMN = ADDRESS;
     1301    14013    2       ELSE
     1302    14014    2         COLUMN = 0;
     1303    14015
     1304    14016    2         IF ID$ ~= ADDR(NIL) THEN
     1305    14017    3           DO;
     1306    14018    3             CALL X8CO$CONV_TO_OCTAL( ID$, CHAR12 );
     1307    14019    3             SUBSTR( OBUF,COLUMN,6 ) = SUBSTR( CHAR12,0,6 );
     1308    14020    3           END;
     1309    14021    2         ELSE
     1310    14022    2           SUBSTR( OBUF,COLUMN,6 ) = ' ';
     1311    14023
     1312    14024    2     END PRINT_ADDRESS;   /* proc */
     1313    14025        %EJECT;
PL6.E3A0      #001=Z8JW$WALK_TREE File=Z8JW.:Z8A6TSI                             SAT 08/09/97 13:33 Page:61
     1314    14026        /*I*     NAME:         PRINT_AND_CLEAR
     1315    14027                               --------------------
     1316    14028               THIS ROUTINE DETERMINES IF THE ROOT OF THE TREE IS
     1317    14029               BEING PRINTED.  IF SO, THE LEADING FILL CHARARTERS ARE
     1318    14030               REMOVED AND THE CALL TO Z9AL$DUMP_LINE IS MADE TO PRINT
     1319    14031               OBUF.  IF OBUF DOES NOT CONTAIN THE ROOT IT IS PRINTED
     1320    14032               AS IS.  IN BOTH CASES,  THE ITEM'S NAME IS CLEARED FROM
     1321    14033               OBUF -- LEAVING VERTICAL TREE BRANCHES INTACT.
     1322    14034
     1323    14035        */
     1324    14036
     1325    14037
     1326    14038    1     PRINT_AND_CLEAR: PROC ( COLUMN, LENGTH, OP );
     1327    14039
     1328    14040    2       DCL COLUMN       UBIN WORD;
     1329    14041    2       DCL LENGTH       UBIN WORD;
     1330    14042    2       DCL OP           UBIN WORD;
     1331    14043
     1332    14044
     1333    14045
     1334    14046            /*V*  INTERACTIVE TREES? */
     1335    14047
     1336    14048    2       CALL Z9AL$DUMP_LINE;
     1337    14049
     1338    14050            /* CLEAR ITEM FROM OBUF */
     1339    14051
     1340    14052    2       SUBSTR( OBUF,COLUMN, LENGTH ) = ' ';
     1341    14053    2       SUBSTR( OBUF,0,6 ) = ' ';
     1342    14054
     1343    14055    2     END PRINT_AND_CLEAR; /*END PROC */
     1344    14056        %EJECT;
PL6.E3A0      #001=Z8JW$WALK_TREE File=Z8JW.:Z8A6TSI                             SAT 08/09/97 13:33 Page:62
     1345    14057        /*I*     NAME:         BRANCH_BUILDER
     1346    14058                               -------------------
     1347    14059
     1348    14060               THIS ROUTINE DETERMINES THE PLACEMENT OF VERTICAL TREE
     1349    14061               BRANCHES.  IF THE LINE JUST PRINTED CONTAINED A ROP, A
     1350    14062               VERTICAL BRANCH IS STARTED.  OTHERWISE,  IF THE LINE
     1351    14063               CONTAINED A LOP THEN A BRANCH IS ENDED.   THE ONLY OTHER
     1352    14064               CASE IS WHEN THE LINE CONTAINED A ROOT AND IT IS IGNORED.
     1353    14065
     1354    14066
     1355    14067        */
     1356    14068
     1357    14069    1     BRANCH_BUILDER: PROC ( OP, COLUMN );
     1358    14070
     1359    14071    2       DCL OP     UBIN WORD;
     1360    14072    2       DCL COLUMN UBIN WORD;
     1361    14073
     1362    14074    2       IF OP = %ROP THEN
     1363    14075    2         SUBSTR ( OBUF, COLUMN, 1) = '!';
     1364    14076    2       ELSE
     1365    14077    2         IF OP = %LOP THEN
     1366    14078    2           SUBSTR ( OBUF, COLUMN, 1) = ' ';
     1367    14079
     1368    14080
     1369    14081    2     END BRANCH_BUILDER;  /* PROC */
     1370    14082        %EJECT;
PL6.E3A0      #001=Z8JW$WALK_TREE File=Z8JW.:Z8A6TSI                             SAT 08/09/97 13:33 Page:63
     1371    14083    1     PRINT_AST_ITEM:  PROC ( ID$, OP );
     1372    14084
     1373    14085    2       DCL ID$                PTR;
     1374    14086    2       DCL OP                 UBIN WORD;
     1375    14087
     1376    14088    3       DO CASE ( ID$-> LX_LIST.ID );
     1377    14089
     1378    14090    3         CASE ( %LX_LIST );
     1379    14091
     1380    14092    3           CALL PRINT_AND_CLEAR( 120, 1, OP );
     1381    14093    3           CALL BRANCH_BUILDER( %ROP, PRINT_NDX+10 );
     1382    14094    3           SUBSTR( OBUF,PRINT_NDX,10 ) = ':-LX_LIST-';
     1383    14095    3           CALL X8CO$CONV_TO_OCTAL_HALF( ID$, SUBSTR( OBUF,0,6) );
     1384    14096    3           CALL PRINT_AND_CLEAR( PRINT_NDX, 10, OP );
     1385    14097    3           CALL BRANCH_BUILDER ( OP, PRINT_NDX );
     1386    14098        %EJECT;
PL6.E3A0      #001=Z8JW$WALK_TREE File=Z8JW.:Z8A6TSI                             SAT 08/09/97 13:33 Page:64
     1387    14099    3         CASE ( %ILS_LIST );
     1388    14100
     1389    14101    3           CALL PRINT_AND_CLEAR( 120, 1, OP);
     1390    14102    3           CALL BRANCH_BUILDER( %ROP, PRINT_NDX+10 );
     1391    14103    3           SUBSTR( OBUF,PRINT_NDX,10 ) = ':-ILS_LIS-';
     1392    14104    3           CALL X8CO$CONV_TO_OCTAL_HALF( ID$, SUBSTR( OBUF,0,6) );
     1393    14105    3           CALL PRINT_AND_CLEAR( PRINT_NDX, 10, OP );
     1394    14106    3           CALL BRANCH_BUILDER( OP, PRINT_NDX );
     1395    14107
     1396    14108        %EJECT;
PL6.E3A0      #001=Z8JW$WALK_TREE File=Z8JW.:Z8A6TSI                             SAT 08/09/97 13:33 Page:65
     1397    14109    3         CASE( %LX_LARGE );
     1398    14110
     1399    14111    3           CALL PRINT_AND_CLEAR( 120, 1, OP );
     1400    14112    3           CALL BRANCH_BUILDER( %ROP, PRINT_NDX+10 );
     1401    14113    3           SUBSTR( OBUF,PRINT_NDX,10 ) = ':-LX_LARG-';
     1402    14114    3           CALL X8CO$CONV_TO_OCTAL_HALF( ID$, SUBSTR( OBUF,0,6) );
     1403    14115    3           CALL PRINT_AND_CLEAR( PRINT_NDX,10,OP );
     1404    14116    3           CALL BRANCH_BUILDER( OP, PRINT_NDX );
     1405    14117
     1406    14118        %EJECT;
PL6.E3A0      #001=Z8JW$WALK_TREE File=Z8JW.:Z8A6TSI                             SAT 08/09/97 13:33 Page:66
     1407    14119    3         CASE( %BINARY_OP );
     1408    14120
     1409    14121    3           CALL PRINT_AND_CLEAR( 120, 1, OP );       /*  Blank line   */
     1410    14122    3           CALL PRINT_OP;
     1411    14123    3           CALL PRINT_AND_CLEAR( PRINT_NDX+10,23, OP);
     1412    14124    3           SUBSTR( OBUF, PRINT_NDX,10 ) = ':-BIN_OP--';
     1413    14125    3           CALL X8CO$CONV_TO_OCTAL_HALF( ID$, SUBSTR( OBUF,0,6) );
     1414    14126    3           CALL PRINT_LINE;
     1415    14127    3           CALL PRINT_AND_CLEAR( PRINT_NDX,23, OP);
     1416    14128    3           CALL BRANCH_BUILDER( OP, PRINT_NDX );
     1417    14129    3           CALL PRINT_COLUMN;
     1418    14130    3           CALL PRINT_AND_CLEAR( PRINT_NDX+10,23, OP);
     1419    14131
     1420    14132        %EJECT;
PL6.E3A0      #001=Z8JW$WALK_TREE File=Z8JW.:Z8A6TSI                             SAT 08/09/97 13:33 Page:67
     1421    14133    3         CASE( %UNARY_OP );
     1422    14134
     1423    14135    3           CALL PRINT_AND_CLEAR( 120, 1, OP );       /*  Blank line   */
     1424    14136    3           CALL PRINT_OP;
     1425    14137    3           CALL PRINT_AND_CLEAR( PRINT_NDX+10,23, OP);
     1426    14138    3           SUBSTR( OBUF, PRINT_NDX, 10 ) = ':-UNI_OP--';
     1427    14139    3           CALL X8CO$CONV_TO_OCTAL_HALF( ID$, SUBSTR( OBUF,0,6) );
     1428    14140    3           CALL PRINT_LINE;
     1429    14141    3           CALL PRINT_AND_CLEAR( PRINT_NDX, 30, OP );
     1430    14142    3           CALL BRANCH_BUILDER( OP, PRINT_NDX );
     1431    14143    3           CALL PRINT_COLUMN;
     1432    14144    3           CALL PRINT_AND_CLEAR( PRINT_NDX+10,23, OP);
     1433    14145
     1434    14146        %EJECT;
PL6.E3A0      #001=Z8JW$WALK_TREE File=Z8JW.:Z8A6TSI                             SAT 08/09/97 13:33 Page:68
     1435    14147    3         CASE ( %LX_TERMINAL );
     1436    14148
     1437    14149    3           CALL PRINT_AND_CLEAR( 120, 1, OP );       /*  Blank line   */
     1438    14150    3           IF ID$-> LX_TERMINAL.ST$ ~= ADDR( NIL ) THEN
     1439    14151    4             DO;
     1440    14152    4               SUBSTR( OBUF,PRINT_NDX+10,9 ) = ':-ST$->  ';
     1441    14153    4               SUBSTR( OBUF,PRINT_NDX+19,10) = NAMES( ID$-> ETT.ID );
     1442    14154    4               CALL PRINT_AND_CLEAR( PRINT_NDX+10, 23, OP );
     1443    14155    4             END;
     1444    14156        /*
     1445    14157                    Print  DNT$
     1446    14158        */
     1447    14159
     1448    14160    3           IF ID$-> LX_TERMINAL.DNT$ ~= ADDR(NIL) THEN
     1449    14161    4             DO;
     1450    14162    4               SUBSTR( OBUF,PRINT_NDX+10,9 ) = ':-DNT$-> ';
     1451    14163    4               SUBSTR( OBUF,PRINT_NDX+19,ID$->LX_TERMINAL.DNT$->DNT.TEXT.LENGTH ) =
     1452    14164    4                      ID$-> LX_TERMINAL.DNT$->DNT.TEXT.NAME;
     1453    14165    4               CALL PRINT_AND_CLEAR( PRINT_NDX+12, 23, OP );
     1454    14166    4             END;
     1455    14167    3           CALL PRINT_SYMBOL;
     1456    14168    3           CALL PRINT_AND_CLEAR( PRINT_NDX+10,23, OP);
     1457    14169    3           SUBSTR( OBUF,PRINT_NDX,10 ) = ':-LX_TERM-';
     1458    14170    3           CALL X8CO$CONV_TO_OCTAL_HALF( ID$, SUBSTR( OBUF,0,6) );
     1459    14171    3           CALL PRINT_TYPE;
     1460    14172    3           CALL PRINT_AND_CLEAR( PRINT_NDX, 20, OP);
     1461    14173    3           CALL BRANCH_BUILDER( OP, PRINT_NDX );
     1462    14174    3           CALL PRINT_LINE;
     1463    14175    3           CALL PRINT_AND_CLEAR( PRINT_NDX+10,23, OP);
     1464    14176    3           CALL PRINT_COLUMN;
     1465    14177    3           CALL PRINT_AND_CLEAR( PRINT_NDX+10,23, OP);
     1466    14178        %EJECT;
PL6.E3A0      #001=Z8JW$WALK_TREE File=Z8JW.:Z8A6TSI                             SAT 08/09/97 13:33 Page:69
     1467    14179    3         CASE ( %LX_ETT_ITEM );
     1468    14180
     1469    14181    3           CALL PRINT_AND_CLEAR( 120, 1, OP );       /*  Blank line   */
     1470    14182    3           CALL PRINT_TYPE;
     1471    14183    3           CALL PRINT_AND_CLEAR( PRINT_NDX+10, 23, OP);
     1472    14184    3           SUBSTR( OBUF,PRINT_NDX,10 ) = ':-LX_ETT--';
     1473    14185    3           CALL X8CO$CONV_TO_OCTAL_HALF( ID$, SUBSTR( OBUF,0,6) );
     1474    14186    3           CALL PRINT_LINE;
     1475    14187    3           CALL PRINT_AND_CLEAR( PRINT_NDX, 30, OP);
     1476    14188    3           CALL BRANCH_BUILDER( OP, PRINT_NDX );
     1477    14189    3           CALL PRINT_COLUMN;
     1478    14190    3           CALL PRINT_AND_CLEAR( PRINT_NDX+10, 23, OP);
     1479    14191    3           IF ID$-> LX_ETT_ITEM.ETT$ ~= ADDR(NIL) THEN
     1480    14192    4             DO;
     1481    14193    4               IF LOWER_TREES THEN
     1482    14194    5                 DO;
     1483    14195    5                   SUBSTR( OBUF,PRINT_NDX+10,22 ) = ':-ETT$-> ............';
     1484    14196    5                   CALL PRINT_AND_CLEAR( PRINT_NDX+10, 30, OP);
     1485    14197    5                   ADDRESS = PRINT_NDX+23;
     1486    14198    5                   CALL Z8JW$WALK_TREE( ID$->LX_ETT_ITEM.ETT$, %LOP, PRINT_NDX+23 );
     1487    14199    5                   SUBSTR( OBUF,PRINT_NDX+23,8 ) = ' ';   /* clear address */
     1488    14200    5                 END;
     1489    14201    4               ELSE
     1490    14202    5                 DO;
     1491    14203    5                   SUBSTR( OBUF,PRINT_NDX+10,9 ) = ':-ETT$-> ';
     1492    14204    5                   SUBSTR( OBUF,PRINT_NDX+19,8 ) = NAMES( ID$->LX_ETT_ITEM.ETT$->ETT.ID
             14204                            );
     1493    14205    5                   CALL PRINT_AND_CLEAR( PRINT_NDX+10, 23, OP);
     1494    14206    5                 END;
     1495    14207    4             END;
     1496    14208    3       END;  /* case */
     1497    14209
     1498    14210        %EJECT;
PL6.E3A0      #001=Z8JW$WALK_TREE File=Z8JW.:Z8A6TSI                             SAT 08/09/97 13:33 Page:70
     1499    14211    2     PRINT_SYMBOL: PROC;
     1500    14212
     1501    14213        /*
     1502    14214                     Print   symbol
     1503    14215        */
     1504    14216
     1505    14217    3       SUBSTR( OBUF,PRINT_NDX+10,9 ) = ':-Symbol ';
     1506    14218    3        CALL X8CO$CONV_TO_DECIMAL (ID$->LX_TERMINAL.SYMBOL, CHAR13);
     1507    14219    3        SUBSTR( OBUF,PRINT_NDX+19,13 ) = CHAR13;
     1508    14220    3     END PRINT_SYMBOL;  /* proc */
     1509    14221        %EJECT;
PL6.E3A0      #001=Z8JW$WALK_TREE File=Z8JW.:Z8A6TSI                             SAT 08/09/97 13:33 Page:71
     1510    14222    2     PRINT_TYPE: PROC;
     1511    14223
     1512    14224        /*
     1513    14225                     Print   type
     1514    14226        */
     1515    14227
     1516    14228    3        SUBSTR( OBUF,PRINT_NDX+10,9 ) = ':-Type   ';
     1517    14229    4         DO CASE( ID$-> LX_TERMINAL.TYPE );
     1518    14230
     1519    14231    4           CASE( %TYD );
     1520    14232    4             SUBSTR( OBUF,PRINT_NDX+19,3 ) = 'TYD';
     1521    14233    4           CASE( %TYI );
     1522    14234    4             SUBSTR( OBUF,PRINT_NDX+19,3 ) = 'TYI';
     1523    14235    4           CASE( %TYJ );
     1524    14236    4             SUBSTR( OBUF,PRINT_NDX+19,3 ) = 'TYJ';
     1525    14237    4           CASE( %TYO );
     1526    14238    4             SUBSTR( OBUF,PRINT_NDX+19,3 ) = 'TYO';
     1527    14239    4           CASE( %TYR );
     1528    14240    4             SUBSTR( OBUF,PRINT_NDX+19,3 ) = 'TYR';
     1529    14241    4           CASE( %TYQ );
     1530    14242    4             SUBSTR( OBUF,PRINT_NDX+19,3 ) = 'TYQ';
     1531    14243    4           CASE( %TYE );
     1532    14244    4             SUBSTR( OBUF,PRINT_NDX+19,3 ) = 'TYE';
     1533    14245    4           CASE( %TYH );
     1534    14246    4             SUBSTR( OBUF,PRINT_NDX+19,3 ) = 'TYH';
     1535    14247    4           CASE( %TYA );
     1536    14248    4             SUBSTR( OBUF,PRINT_NDX+19,3 ) = 'TYA';
     1537    14249    4           CASE( %TYX );
     1538    14250    4             SUBSTR( OBUF,PRINT_NDX+19,3 ) = 'TYX';
     1539    14251    4           CASE( %TYY );
     1540    14252    4             SUBSTR( OBUF,PRINT_NDX+19,3 ) = 'TYY';
     1541    14253    4           CASE( %TYM );
     1542    14254    4             SUBSTR( OBUF,PRINT_NDX+19,3 ) = 'TYM';
     1543    14255    4           CASE( %TYT );
     1544    14256    4             SUBSTR( OBUF,PRINT_NDX+19,3 ) = 'TYT';
     1545    14257    4           CASE( %TYP );
     1546    14258    4             SUBSTR( OBUF,PRINT_NDX+19,3 ) = 'TYP';
PL6.E3A0      #001=Z8JW$WALK_TREE File=Z8JW.:Z8A6TSI                             SAT 08/09/97 13:33 Page:72
     1547    14259    4           CASE( %TYK );
     1548    14260    4             SUBSTR( OBUF,PRINT_NDX+19,3 ) = 'TYK';
     1549    14261    4           CASE( %TYF );
     1550    14262    4             SUBSTR( OBUF,PRINT_NDX+19,3 ) = 'TYF';
     1551    14263    4           CASE( %TYB );
     1552    14264    4             SUBSTR( OBUF,PRINT_NDX+19,3 ) = 'TYB';
     1553    14265    4           CASE( %TYC );
     1554    14266    4             SUBSTR( OBUF,PRINT_NDX+19,3 ) = 'TYC';
     1555    14267
     1556    14268    4         END;  /* case */
     1557    14269    3     END PRINT_TYPE; /* proc */
     1558    14270        %EJECT;
PL6.E3A0      #001=Z8JW$WALK_TREE File=Z8JW.:Z8A6TSI                             SAT 08/09/97 13:33 Page:73
     1559    14271    2     PRINT_LINE: PROC;
     1560    14272
     1561    14273        /*
     1562    14274                     Print   line number
     1563    14275        */
     1564    14276
     1565    14277    3        SUBSTR( OBUF,PRINT_NDX+10,9 ) = ':-Line   ';
     1566    14278    3        CALL X8CO$CONV_TO_DECIMAL (ID$->LX_TERMINAL.LINE, CHAR13);
     1567    14279    3        SUBSTR( OBUF,PRINT_NDX+19,13 ) = CHAR13;
     1568    14280    3     END PRINT_LINE;
     1569    14281        %EJECT;
PL6.E3A0      #001=Z8JW$WALK_TREE File=Z8JW.:Z8A6TSI                             SAT 08/09/97 13:33 Page:74
     1570    14282    2     PRINT_COLUMN: PROC;
     1571    14283
     1572    14284        /*
     1573    14285                     Print   column number
     1574    14286        */
     1575    14287
     1576    14288    3        SUBSTR( OBUF,PRINT_NDX+10,9 ) = ':-Column ';
     1577    14289    3        CALL X8CO$CONV_TO_DECIMAL (ID$->LX_TERMINAL.COLUMN, CHAR13);
     1578    14290    3        SUBSTR( OBUF,PRINT_NDX+19,13 ) = CHAR13;
     1579    14291
     1580    14292    3     END PRINT_COLUMN; /* proc */
     1581    14293        %EJECT;
PL6.E3A0      #001=Z8JW$WALK_TREE File=Z8JW.:Z8A6TSI                             SAT 08/09/97 13:33 Page:75
     1582    14294    2     PRINT_OP: PROC;
     1583    14295
     1584    14296    3        SUBSTR( OBUF,PRINT_NDX+10,9 ) = ':-Op     ';
     1585    14297    4       DO CASE( ID$-> BINARY_OP.OP );
     1586    14298    4         CASE( %OP_NOT );
     1587    14299    4           SUBSTR( OBUF,PRINT_NDX+19,3 ) = 'not';
     1588    14300    4         CASE( %OP_UNARY_MINUS );
     1589    14301    4           SUBSTR( OBUF,PRINT_NDX+19,9 ) = 'unary (-)';
     1590    14302    4         CASE( %OP_PAREN );
     1591    14303    4           SUBSTR( OBUF,PRINT_NDX+19,5 ) = 'paren';
     1592    14304    4         CASE( %OP_OWNER );
     1593    14305    4           SUBSTR( OBUF,PRINT_NDX+19,5 ) = 'owner';
     1594    14306    4         CASE( %OP_MEMBER );
     1595    14307    4           SUBSTR( OBUF,PRINT_NDX+19,6 ) = 'member';
     1596    14308    4         CASE( %OP_TENANT ) ;
     1597    14309    4           SUBSTR( OBUF,PRINT_NDX+19,6 ) = 'tenant';
     1598    14310    4         CASE( %OP_NUMERIC );
     1599    14311    4           SUBSTR( OBUF,PRINT_NDX+19,7 ) = 'numeric';
     1600    14312    4         CASE( %OP_ALPHABETIC );
     1601    14313    4           SUBSTR( OBUF,PRINT_NDX+19,5 ) = 'alpha';
     1602    14314    4         CASE( %OP_ALPHABETIC_LOWER );
     1603    14315    4           SUBSTR( OBUF,PRINT_NDX+19,11 ) = 'alpha lower';
     1604    14316    4         CASE( %OP_ALPHABETIC_UPPER );
     1605    14317    4           SUBSTR( OBUF,PRINT_NDX+19,11 ) = 'alpha upper';
     1606    14318    4         CASE( %OP_POSITIVE ) ;
     1607    14319    4           SUBSTR( OBUF,PRINT_NDX+19,9 ) = 'positive ';
     1608    14320    4         CASE( %OP_NEGATIVE );
     1609    14321    4           SUBSTR( OBUF,PRINT_NDX+19,8 ) = 'negative';
     1610    14322    4         CASE( %OP_ZERO );
     1611    14323    4           SUBSTR( OBUF,PRINT_NDX+19,4 ) = 'zero';
     1612    14324    4         CASE( %OP_EMPTY );
     1613    14325    4           SUBSTR( OBUF,PRINT_NDX+19,5 ) = 'empty';
     1614    14326    4         CASE( %OP_AND );
     1615    14327    4           SUBSTR( OBUF,PRINT_NDX+19,3 ) = 'and';
     1616    14328    4         CASE( %OP_OR );
     1617    14329    4           SUBSTR( OBUF,PRINT_NDX+19,2 ) = 'or';
     1618    14330    4         CASE( %OP_PLUS );
PL6.E3A0      #001=Z8JW$WALK_TREE File=Z8JW.:Z8A6TSI                             SAT 08/09/97 13:33 Page:76
     1619    14331    4           SUBSTR( OBUF,PRINT_NDX+19,1 ) = '+';
     1620    14332    4         CASE( %OP_BINARY_MINUS );
     1621    14333    4           SUBSTR( OBUF,PRINT_NDX+19,10 ) = 'binary (-)';
     1622    14334    4         CASE( %OP_STAR );
     1623    14335    4           SUBSTR( OBUF,PRINT_NDX+19,1 ) = '*';
     1624    14336    4         CASE( %OP_SLASH );
     1625    14337    4           SUBSTR( OBUF,PRINT_NDX+19,1 ) = '/';
     1626    14338    4         CASE( %OP_STAR_STAR );
     1627    14339    4           SUBSTR( OBUF,PRINT_NDX+19,2 ) = '**';
     1628    14340    4         CASE( %OP_THRU ) ;
     1629    14341    4           SUBSTR( OBUF,PRINT_NDX+19,4 ) = 'thru';
     1630    14342    4         CASE( %OP_LESS_THAN );
     1631    14343    4           SUBSTR( OBUF,PRINT_NDX+19,1 ) = '<';
     1632    14344    4         CASE( %OP_EQUAL );
     1633    14345    4           SUBSTR( OBUF,PRINT_NDX+19,1 ) = '=';
     1634    14346    4         CASE( %OP_GREATER_THAN );
     1635    14347    4           SUBSTR( OBUF,PRINT_NDX+19,1 ) = '>';
     1636    14348    4         CASE( %OP_NOT_EQUAL );
     1637    14349    4           SUBSTR( OBUF,PRINT_NDX+19,2 ) = '<>';
     1638    14350    4         CASE( %OP_LESS_THAN_OR_EQUAL );
     1639    14351    4           SUBSTR( OBUF,PRINT_NDX+19,2 ) = '<=';
     1640    14352    4         CASE( %OP_GREATER_THAN_OR_EQUAL );
     1641    14353    4           SUBSTR( OBUF,PRINT_NDX+19,2 ) = '>=';
     1642    14354    4         CASE( %OP_MINIMUM );
     1643    14355    4           SUBSTR( OBUF,PRINT_NDX+19,7 ) = 'minimum';
     1644    14356    4         CASE( %OP_INDEX );
     1645    14357    4           SUBSTR( OBUF,PRINT_NDX+19,5 ) = 'index';
     1646    14358    4         CASE( %OP_SWITCH_IS_ON );
     1647    14359    4           SUBSTR( OBUF,PRINT_NDX+19,9 ) = 'switch on';
     1648    14360    4         CASE( %OP_SWITCH_IS_OFF );
     1649    14361    4           SUBSTR( OBUF,PRINT_NDX+19,10 ) = 'switch off';
     1650    14362    4         CASE( %OP_SET_SWITCH_ON );
     1651    14363    4           SUBSTR( OBUF,PRINT_NDX+19,10 ) = 'set switch';
     1652    14364    4         CASE( %OP_SET_SWITCH_OFF );
     1653    14365    4           SUBSTR( OBUF,PRINT_NDX+19,12 ) = 'reset switch';
     1654    14366    4         CASE( %OP_USER_CLASS );
     1655    14367    4           SUBSTR( OBUF,PRINT_NDX+19,10 ) = 'user class';
PL6.E3A0      #001=Z8JW$WALK_TREE File=Z8JW.:Z8A6TSI                             SAT 08/09/97 13:33 Page:77
     1656    14368    4       END;  /* case op */
     1657    14369
     1658    14370    3     END;  /* proc */
     1659    14371        %EJECT;
PL6.E3A0      #001=Z8JW$WALK_TREE File=Z8JW.:Z8A6TSI                             SAT 08/09/97 13:33 Page:78
     1660    14372    2     END PRINT_AST_ITEM; /* proc */
     1661    14373    1   END Z8JW$WALK_TREE;  /* proc */
     1662    14374        %EJECT;
PL6.E3A0      #001=Z8JW$WALK_TREE File=Z8JW.:Z8A6TSI                             SAT 08/09/97 13:33 Page:79

PL6.E3A0      #001=Z8JW$WALK_TREE File=Z8JW.:Z8A6TSI                             SAT 08/09/97 13:33 Page:80
--  Include file information  --

   Z8A_LEX_SYMB.:Z8A6TOU  cannot be made into a system file and is referenced.
   Z8E_STACKS.:Z8A6TOU  cannot be made into a system file and is referenced.
   Z8A_COMCOM.:Z8A6TOU  cannot be made into a system file and is referenced.
   Z8A_TYPES.:Z8A6TOU  is referenced.
   Z8A_QLT.:Z8A6TOU  cannot be made into a system file and is referenced.
   Z8A_DNT.:Z8A6TOU  cannot be made into a system file and is referenced.
   Z8A_LTS.:Z8A6TOU  cannot be made into a system file and is referenced.
   Z8A_ST.:Z8A6TOU  cannot be made into a system file and is referenced.
   Z8A_ETT.:Z8A6TOU  cannot be made into a system file and is referenced.
   Z8A_ILS.:Z8A6TOU  cannot be made into a system file and is referenced.
   Z8A_ILL.:Z8A6TOU  cannot be made into a system file and is referenced.
   X8A_COM_MACS.:X8A6TOU  is referenced.
   Z8A_NAMES.:Z8A6TOU  cannot be made into a system file and is referenced.
   Z8A_SUPP_MAC.:Z8A6TOU  is referenced.
   Z8A_DEFC.:Z8A6TOU  cannot be made into a system file and is referenced.
      No diagnostics issued in procedure Z8JW$WALK_TREE.

   Procedure Z8JW$WALK_TREE requires 4681 words for executable code.
   Procedure Z8JW$WALK_TREE requires 144 words of local(AUTO) storage.

    No errors detected in file Z8JW.:Z8A6TSI    .

PL6.E3A0      #001=Z8JW$WALK_TREE File=Z8JW.:Z8A6TSI                             SAT 08/09/97 13:33 Page:81

 Object Unit name= Z8JW$WALK_TREE                             File name= Z8JW.:Z8A6TOU
 UTS= AUG 09 '97 13:33:37.56 SAT                              Compiler= PL-6/E31         Sev=      00
 SharedLib= :SHARED_SYSTEM                                    Alt SharedLib=


    ****  Control sections  ****

 Sect   Type Bound  Init  Size OctSiz  Section name(segment info)
    0  LblCom even  none     1      1  ITERATION
    1  LblCom even  none     1      1  ILL$
    2  LblCom even  none     5      5  ILL_
    3  LblCom even  none     1      1  ILS$
    4  LblCom even  none     5      5  ILS_
    5  LblCom even  none     1      1  ETT$
    6  LblCom even  none     1      1  HEAD_ETT$
    7  LblCom even  none   512   1000  ETT_BUCKETS
    8  LblCom even  none     5      5  ETT_
    9  LblCom even  none     1      1  ST$
   10  LblCom even  none     5      5  ST_
   11  LblCom even  none     1      1  LTS$
   12  LblCom even  none     5      5  LTS_
   13  LblCom even  none     1      1  DNT$
   14  LblCom even  none     5      5  DNT_
   15  LblCom even  none     1      1  DNT_BUCKET_NUMBER
   16  LblCom even  none     1      1  DNT_OF_1$
   17  LblCom even  none     1      1  QLT$
   18  LblCom even  none     1      1  PREV_01_QLT$
   19  LblCom even  none     5      5  QLT_
   20  LblCom even  none    90    132  LEX_SYMBOL
   21  LblCom even  none     1      1  CURRENT_LEX_SYMBOL$
   22  LblCom even  none    90    132  TEMP_LEX_SYMBOL
   23  LblCom even  none    90    132  TEMP_LEX_SYMBOL2
   24  LblCom even  none    30     36  OBUF
   25   Data  even  none     3      3  Z8JW$WALK_TREE
   26  RoData even  UTS    346    532  Z8JW$WALK_TREE
   27   Proc  even  none  4681  11111  Z8JW$WALK_TREE
   28  RoData even  none    42     52  Z8JW$WALK_TREE
PL6.E3A0      #001=Z8JW$WALK_TREE File=Z8JW.:Z8A6TSI                             SAT 08/09/97 13:33 Page:82

    ****  Entry defs  ****

                              Check   Calling
                             calling  sequence
  Sect OctLoc Primary Altret sequence   type   Parms  Name
    27      0   yes            yes      Std        3  Z8JW$WALK_TREE
    27   4365                  yes      Std        3  Z8JW$ABSTRACT_TREES

  ****  Entry refs  ****

         Check        Calling
        calling       sequence
Altret sequence SRef   type   Args  Name
 yes     yes           Std       1 Z9JW$CHECK_PTR
         yes           Std       0 Z9AL$DUMP_LINE
         yes           Std       2 X8CO$CONV_TO_OCTAL
         yes           Std       2 X8CO$CONV_TO_DECIMAL
         yes           Std       2 X8CO$CONV_TO_OCTAL_HALF
                       nStd      0 X66_AUTO_3
                       nStd      0 X66_ARET

  ****  Data refs  ****

  Flags:  r = read only, s = secondary
Flgs Name                             Flgs Name                             Flgs Name
r    NAMES                            r    ILL_STEP                         r    ILS_STEP_TABLE
r    LTS_STEP                              COMCOM

  ****  Segment refs  ****

  Flags:  r = read only, s = secondary
Flgs Name                             Flgs Name                             Flgs Name
     NULLSID                               ISSID
PL6.E3A0      #001=Z8JW$WALK_TREE File=Z8JW.:Z8A6TSI                             SAT 08/09/97 13:33 Page:83


        1        1        /*M*  Z8JW$WALK_TREE                                                     */
        2        2        /*T***********************************************************/
        3        3        /*T*                                                         */
        4        4        /*T* Copyright (c) Bull HN Information Systems Inc., 1997    */
        5        5        /*T*                                                         */
        6        6        /*T***********************************************************/
        7        7
        8        8        Z8JW$WALK_TREE: PROC ( ID$ , OP_ARG, PRINT_ARG);

      8 27 000000   000000 700200 xent  Z8JW$WALK_T* TSX0  ! X66_AUTO_3
        27 000001   000220 000003                    ZERO    144,3

        9        9
       10       10        /*P*
       11       11
       12       12                   NAME: Z8JW$WALK_TREE
       13       13                PURPOSE: To aid debugging by presenting various compiler information
       14       14                         in its internal tree representation.
       15       15        */
       16       16        /*D*
       17       17                   NAME: Z8JW$WALK_TREE
       18       18                   CALL:
       19       19                         CALL Z8JW$TREE_WALKER ( ID$, OP_ARG, PRINT_ARG );
       20       20
       21       21              INTERFACE:         Internal
       22       22                                 --------
       23       23
       24       24                         1) PRINT_ITEM           -- prints an ill or ett item.
       25       25                         2) PRINT_ST_ITEM        -- prints a symbol table item.
       26       26                         3) PRINT_ABS_ITEM       -- prints an abstract syntax
       27       27                                                    tree item.
       28       28                         4) PRINT_DATA           -- prints data found in ROPCON.
       29       29                         5) PRINT_CODE           -- prints symbolic codes
       30       30                                                    assosciated with certain items.
       31       31                         6) PRINT_AND_CLEAR      -- prints OBUF then clears the
       32       32                                                    appropriate portion.
PL6.E3A0      #001=Z8JW$WALK_TREE File=Z8JW.:Z8A6TSI                             SAT 08/09/97 13:33 Page:84
       33       33                         7) BRANCH_BUILDER       -- adjusts verticle tree
       34       34                                                     branches in OBUF.
       35       35
       36       36                                 External
       37       37                                 --------
       38       38
       39       39
       40       40                  INPUT:   1)  ID$          -- pointer to current item.
       41       41                           2)  OP_ARG       -- current item's type
       42       42                                               ( ROP, LOP, FIRST ).
       43       43                           3)  PRINT_ARG    -- current print position.
       44       44
       45       45                 OUTPUT:  One tree per call.
       46       46                SCRATCH:  none
       47       47              REFERENCE:
       48       48        */
       49       49        %EJECT;
PL6.E3A0      #001=Z8JW$WALK_TREE File=Z8JW.:Z8A6TSI                             SAT 08/09/97 13:33 Page:85
       50       50        /*F*
       51       51                  NAME :    Z8JW$TREE_WALKER
       52       52            DESCRIPTION:
       53       53                         THIS MODULE RECURSIVELY WALKS THE TRIAD TREE AND
       54       54                   PRINTS IT IN A TREE FORMAT.  THE MAIN DRIVE OF THE
       55       55                   TREE WALKER IS A CASE STATEMENT WHICH BREAKS DOWN ALL
       56       56                   ITEMS INTO THE FOLLOWING CATAGORIES:
       57       57
       58       58                       1) Items with TWO operands: ROP AND LOP.
       59       59                       2) Items with THREE operands: ROP, LOP, AND TO_.
       60       60                       3) Items with FOUR operands: ROP, LOP, TO_, AND REMAINDER.
       61       61                       4) Items with TWO operands: LOP AND DATA.
       62       62                       5) Items with NO operands.
       63       63                       6) ITEMS THAT ARE SYMBOL TABLE ITEMS.
       64       64
       65       65                   THE BASIC LOGIC BEHIND THIS MODULE IS TO SEARCH EACH
       66       66                   BRANCH OF THE TREE UNTIL A LEAF (SYMBOL TABLE ITEM,
       67       67                   DATA, NIL POINTER) IS FOUND.  THE LEAF IS THEN PRINTED
       68       68                   AND THE ALGORITHM RETURNS TO THE PREVIOUS LEVEL AND
       69       69                   PRINTS THAT ITEM.  THIS CONTINUES UNTIL THE COMPLETE
       70       70                   TREE IS EXPANDED AND PRINTED IN A HORIZONTAL FASHION.
       71       71                   AS SHOWN BELOW:
       72       72
       73       73                                 :-- REMAINDER
       74       74                                 !
       75       75                                 !
       76       76                                 :-- TO_
       77       77                                 !
       78       78                                 !
       79       79                                 :-- ROP
       80       80                                 !
       81       81                           ITEM--!
       82       82                                 !
       83       83                                 :-- LOP
       84       84
       85       85                   THE CURRENT ITEM WILL ALWAYS APPEAR BETWEEN THE
       86       86                   ROP AND LOP.  THEREFORE; IF THE TREE IS VIEWED VERTICALLY
PL6.E3A0      #001=Z8JW$WALK_TREE File=Z8JW.:Z8A6TSI                             SAT 08/09/97 13:33 Page:86
       87       87                   BY TURNING THE PAGE THE ROP IS ON THE RIGHT:
       88       88
       89       89                             ITEM
       90       90                              !
       91       91                              !
       92       92                    :-------------:-------:-------------:
       93       93                    !             !       !             !
       94       94                   LOP           ROP     TO_        REMAINDER
       95       95
       96       96        */
       97       97        %EJECT;
PL6.E3A0      #001=Z8JW$WALK_TREE File=Z8JW.:Z8A6TSI                             SAT 08/09/97 13:33 Page:87
       98       98            %EQU PHASE = 6;
       99       99            %EQU LOWER = 3;
      100      100            %EQU FIRST = 2;
      101      101            %EQU ROP   = 1;
      102      102            %EQU LOP   = 0;
      103      103            %INCLUDE Z8A_DEFC;
      104      171            %INCLUDE Z8A_SUPP_MAC;
      105     2571            %INCLUDE Z8A_ILL;
      106     3264            %INCLUDE Z8A_ILS;
      107     3373            %INCLUDE Z8A_ETT;
      108     3674            %INCLUDE Z8A_ST;
      109     7333            %INCLUDE Z8A_LTS;
      110     9410            %INCLUDE Z8A_DNT;
      111     9631            %INCLUDE Z8A_QLT;
      112     9737            %INCLUDE Z8A_TYPES;
      113     9911            %INCLUDE Z8A_COMCOM;
      114    10561            %INCLUDE Z8E_STACKS;         /* For abstract syntax treewalker  */
      115    12827
      116    12828    1       DCL Z9AL$DUMP_LINE        ENTRY;
      117    12829    1       DCL Z9AL$WRITE_TERMINAL   ENTRY;
      118    12830    1       DCL X8CO$CONV_TO_OCTAL    ENTRY(2);
      119    12831    1       DCL X8CO$CONV_TO_OCTAL_HALF      ENTRY(2);
      120    12832    1       DCL X8CO$CONV_TO_DECIMAL  ENTRY(2);
      121    12833    1       DCL Z9JW$CHECK_PTR        ENTRY(1) ALTRET;
      122    12834
      123    12835    1       DCL ID$          PTR;
      124    12836    1       DCL PRINT_NDX    SBIN WORD ;
      125    12837    1       DCL PRINT_ARG    SBIN WORD ;
      126    12838    1       DCL CHAR12       CHAR(12);
      127    12839    1       DCL CHAR13       CHAR(13);
      128    12840    1       DCL OBUF         CHAR(120) EXT;
      129    12841    1       DCL STRING       CHAR(120);
      130    12842    1       DCL OP           UBIN WORD;
      131    12843    1       DCL OP_ARG       UBIN WORD;
      132    12844    1       DCL J            SBIN WORD;
      133    12845    1       DCL ARGS#        UBIN WORD;
      134    12846    1       DCL LOWER_TREES  BIT(1) STATIC INIT(FALSE);
PL6.E3A0      #001=Z8JW$WALK_TREE File=Z8JW.:Z8A6TSI                             SAT 08/09/97 13:33 Page:88
      135    12847    1       DCL ADDRESS      UBIN WORD STATIC;
      136    12848    1       DCL ABSTRACT     BIT(1)    STATIC;
      137    12849
      138    12850        %EJECT;
PL6.E3A0      #001=Z8JW$WALK_TREE File=Z8JW.:Z8A6TSI                             SAT 08/09/97 13:33 Page:89
      139    12851    1       PRINT_NDX = PRINT_ARG + 8;

  12851 27 000002   200005 470500                    LDP0    @PRINT_ARG,,AUTO
        27 000003   000000 235100                    LDA     0,,PR0
        27 000004   000010 035007                    ADLA    8,DL
        27 000005   200006 755100                    STA     PRINT_NDX,,AUTO

      140    12852    1       OP = OP_ARG;

  12852 27 000006   200004 471500                    LDP1    @OP_ARG,,AUTO
        27 000007   100000 235100                    LDA     0,,PR1
        27 000010   200054 755100                    STA     OP,,AUTO

      141    12853    1       CALL Z9JW$CHECK_PTR( ID$ )

  12853 27 000011   200003 630500                    EPPR0   @ID$,,AUTO
        27 000012   000000 631400 28                 EPPR1   0
        27 000013   000000 701000 xent               TSX1    Z9JW$CHECK_PTR
        27 000014   000016 702000 27                 TSX2    s:12856
        27 000015   000040 710000 27                 TRA     s:12862

      142    12854    1       WHENALTRETURN
      143    12855    2         DO;

      144    12856    2           SUBSTR( OBUF,PRINT_NDX,24) = ':--**** Bad pointer ****';

  12856 27 000016   200006 235100                    LDA     PRINT_NDX,,AUTO
        27 000017   040005 100400                    MLR     fill='040'O
        27 000020   000000 000030 26                 ADSC9   0                        cn=0,n=24
        27 000021   000000 000030 24                 ADSC9   OBUF,A                   cn=0,n=24

      145    12857    2           CALL PRINT_AND_CLEAR( PRINT_NDX, 24 );

  12857 27 000022   000002 236000 28                 LDQ     2
        27 000023   000003 235000 28                 LDA     3
        27 000024   200074 757100                    STAQ    @OP+1,,AUTO
        27 000025   200006 630500                    EPPR0   PRINT_NDX,,AUTO
PL6.E3A0      #001=Z8JW$WALK_TREE File=Z8JW.:Z8A6TSI                             SAT 08/09/97 13:33 Page:90
        27 000026   200073 450500                    STP0    MAX_LENGTH+2,,AUTO
        27 000027   007235 701000 27                 TSX1    PRINT_AND_CLEAR
        27 000030   000000 011000                    NOP     0

      146    12858    2           CALL BRANCH_BUILDER( PRINT_NDX, OP );

  12858 27 000031   200054 630500                    EPPR0   OP,,AUTO
        27 000032   200074 450500                    STP0    @OP+1,,AUTO
        27 000033   200006 631500                    EPPR1   PRINT_NDX,,AUTO
        27 000034   200073 451500                    STP1    MAX_LENGTH+2,,AUTO
        27 000035   007255 701000 27                 TSX1    BRANCH_BUILDER
        27 000036   000000 011000                    NOP     0

      147    12859    2           RETURN;

  12859 27 000037   000000 702200 xent               TSX2  ! X66_ARET

      148    12860    2         END;
      149    12861
      150    12862    2         DO CASE ( ID$ -> ILL.ID );

  12862 27 000040   200003 470500                    LDP0    @ID$,,AUTO
        27 000041   000000 471500                    LDP1    0,,PR0
        27 000042   100000 220100                    LDX0    0,,PR1
        27 000043   001120 100003                    CMPX0   592,DU
        27 000044   000046 602010 27                 TNC     s:12862+6,X0
        27 000045   004277 710000 27                 TRA     s:13475
        27 000046   004277 710000 27                 TRA     s:13475
        27 000047   002131 710000 27                 TRA     s:13053
        27 000050   003142 710000 27                 TRA     s:13242
        27 000051   003142 710000 27                 TRA     s:13242
        27 000052   001166 710000 27                 TRA     s:12887
        27 000053   001166 710000 27                 TRA     s:12887
        27 000054   003142 710000 27                 TRA     s:13242
        27 000055   003142 710000 27                 TRA     s:13242
        27 000056   003142 710000 27                 TRA     s:13242
        27 000057   003142 710000 27                 TRA     s:13242
PL6.E3A0      #001=Z8JW$WALK_TREE File=Z8JW.:Z8A6TSI                             SAT 08/09/97 13:33 Page:91
        27 000060   001166 710000 27                 TRA     s:12887
        27 000061   004277 710000 27                 TRA     s:13475
        27 000062   003142 710000 27                 TRA     s:13242
        27 000063   003142 710000 27                 TRA     s:13242
        27 000064   003142 710000 27                 TRA     s:13242
        27 000065   003142 710000 27                 TRA     s:13242
        27 000066   003142 710000 27                 TRA     s:13242
        27 000067   001166 710000 27                 TRA     s:12887
        27 000070   003142 710000 27                 TRA     s:13242
        27 000071   003142 710000 27                 TRA     s:13242
        27 000072   003500 710000 27                 TRA     s:13327
        27 000073   003142 710000 27                 TRA     s:13242
        27 000074   003142 710000 27                 TRA     s:13242
        27 000075   001166 710000 27                 TRA     s:12887
        27 000076   001166 710000 27                 TRA     s:12887
        27 000077   001166 710000 27                 TRA     s:12887
        27 000100   001166 710000 27                 TRA     s:12887
        27 000101   001166 710000 27                 TRA     s:12887
        27 000102   001166 710000 27                 TRA     s:12887
        27 000103   003142 710000 27                 TRA     s:13242
        27 000104   003142 710000 27                 TRA     s:13242
        27 000105   003142 710000 27                 TRA     s:13242
        27 000106   003142 710000 27                 TRA     s:13242
        27 000107   001166 710000 27                 TRA     s:12887
        27 000110   001166 710000 27                 TRA     s:12887
        27 000111   001166 710000 27                 TRA     s:12887
        27 000112   001166 710000 27                 TRA     s:12887
        27 000113   001166 710000 27                 TRA     s:12887
        27 000114   001166 710000 27                 TRA     s:12887
        27 000115   001166 710000 27                 TRA     s:12887
        27 000116   001166 710000 27                 TRA     s:12887
        27 000117   003142 710000 27                 TRA     s:13242
        27 000120   003142 710000 27                 TRA     s:13242
        27 000121   001166 710000 27                 TRA     s:12887
        27 000122   001166 710000 27                 TRA     s:12887
        27 000123   001166 710000 27                 TRA     s:12887
        27 000124   001166 710000 27                 TRA     s:12887
PL6.E3A0      #001=Z8JW$WALK_TREE File=Z8JW.:Z8A6TSI                             SAT 08/09/97 13:33 Page:92
        27 000125   001166 710000 27                 TRA     s:12887
        27 000126   001166 710000 27                 TRA     s:12887
        27 000127   001166 710000 27                 TRA     s:12887
        27 000130   001166 710000 27                 TRA     s:12887
        27 000131   001166 710000 27                 TRA     s:12887
        27 000132   001166 710000 27                 TRA     s:12887
        27 000133   003142 710000 27                 TRA     s:13242
        27 000134   003142 710000 27                 TRA     s:13242
        27 000135   001166 710000 27                 TRA     s:12887
        27 000136   001166 710000 27                 TRA     s:12887
        27 000137   001166 710000 27                 TRA     s:12887
        27 000140   001166 710000 27                 TRA     s:12887
        27 000141   003142 710000 27                 TRA     s:13242
        27 000142   003142 710000 27                 TRA     s:13242
        27 000143   001166 710000 27                 TRA     s:12887
        27 000144   001166 710000 27                 TRA     s:12887
        27 000145   001166 710000 27                 TRA     s:12887
        27 000146   003142 710000 27                 TRA     s:13242
        27 000147   003142 710000 27                 TRA     s:13242
        27 000150   003142 710000 27                 TRA     s:13242
        27 000151   003142 710000 27                 TRA     s:13242
        27 000152   003142 710000 27                 TRA     s:13242
        27 000153   003142 710000 27                 TRA     s:13242
        27 000154   001166 710000 27                 TRA     s:12887
        27 000155   001166 710000 27                 TRA     s:12887
        27 000156   001166 710000 27                 TRA     s:12887
        27 000157   001166 710000 27                 TRA     s:12887
        27 000160   001166 710000 27                 TRA     s:12887
        27 000161   001166 710000 27                 TRA     s:12887
        27 000162   003142 710000 27                 TRA     s:13242
        27 000163   003142 710000 27                 TRA     s:13242
        27 000164   001166 710000 27                 TRA     s:12887
        27 000165   004277 710000 27                 TRA     s:13475
        27 000166   004277 710000 27                 TRA     s:13475
        27 000167   001166 710000 27                 TRA     s:12887
        27 000170   003712 710000 27                 TRA     s:13374
        27 000171   001166 710000 27                 TRA     s:12887
PL6.E3A0      #001=Z8JW$WALK_TREE File=Z8JW.:Z8A6TSI                             SAT 08/09/97 13:33 Page:93
        27 000172   003142 710000 27                 TRA     s:13242
        27 000173   003142 710000 27                 TRA     s:13242
        27 000174   003142 710000 27                 TRA     s:13242
        27 000175   003142 710000 27                 TRA     s:13242
        27 000176   003142 710000 27                 TRA     s:13242
        27 000177   003142 710000 27                 TRA     s:13242
        27 000200   003142 710000 27                 TRA     s:13242
        27 000201   003500 710000 27                 TRA     s:13327
        27 000202   003500 710000 27                 TRA     s:13327
        27 000203   003142 710000 27                 TRA     s:13242
        27 000204   003142 710000 27                 TRA     s:13242
        27 000205   003142 710000 27                 TRA     s:13242
        27 000206   003142 710000 27                 TRA     s:13242
        27 000207   003142 710000 27                 TRA     s:13242
        27 000210   003142 710000 27                 TRA     s:13242
        27 000211   003142 710000 27                 TRA     s:13242
        27 000212   003142 710000 27                 TRA     s:13242
        27 000213   003142 710000 27                 TRA     s:13242
        27 000214   001166 710000 27                 TRA     s:12887
        27 000215   003142 710000 27                 TRA     s:13242
        27 000216   003142 710000 27                 TRA     s:13242
        27 000217   003142 710000 27                 TRA     s:13242
        27 000220   001166 710000 27                 TRA     s:12887
        27 000221   001166 710000 27                 TRA     s:12887
        27 000222   001166 710000 27                 TRA     s:12887
        27 000223   001166 710000 27                 TRA     s:12887
        27 000224   001166 710000 27                 TRA     s:12887
        27 000225   003142 710000 27                 TRA     s:13242
        27 000226   003142 710000 27                 TRA     s:13242
        27 000227   003142 710000 27                 TRA     s:13242
        27 000230   003142 710000 27                 TRA     s:13242
        27 000231   001166 710000 27                 TRA     s:12887
        27 000232   001166 710000 27                 TRA     s:12887
        27 000233   001166 710000 27                 TRA     s:12887
        27 000234   001166 710000 27                 TRA     s:12887
        27 000235   001166 710000 27                 TRA     s:12887
        27 000236   001166 710000 27                 TRA     s:12887
PL6.E3A0      #001=Z8JW$WALK_TREE File=Z8JW.:Z8A6TSI                             SAT 08/09/97 13:33 Page:94
        27 000237   001166 710000 27                 TRA     s:12887
        27 000240   004277 710000 27                 TRA     s:13475
        27 000241   004277 710000 27                 TRA     s:13475
        27 000242   003142 710000 27                 TRA     s:13242
        27 000243   003142 710000 27                 TRA     s:13242
        27 000244   004200 710000 27                 TRA     s:13440
        27 000245   001166 710000 27                 TRA     s:12887
        27 000246   001166 710000 27                 TRA     s:12887
        27 000247   001166 710000 27                 TRA     s:12887
        27 000250   004277 710000 27                 TRA     s:13475
        27 000251   004277 710000 27                 TRA     s:13475
        27 000252   004277 710000 27                 TRA     s:13475
        27 000253   004277 710000 27                 TRA     s:13475
        27 000254   004277 710000 27                 TRA     s:13475
        27 000255   004277 710000 27                 TRA     s:13475
        27 000256   004277 710000 27                 TRA     s:13475
        27 000257   004277 710000 27                 TRA     s:13475
        27 000260   004277 710000 27                 TRA     s:13475
        27 000261   004277 710000 27                 TRA     s:13475
        27 000262   004277 710000 27                 TRA     s:13475
        27 000263   004277 710000 27                 TRA     s:13475
        27 000264   004277 710000 27                 TRA     s:13475
        27 000265   004277 710000 27                 TRA     s:13475
        27 000266   004277 710000 27                 TRA     s:13475
        27 000267   004277 710000 27                 TRA     s:13475
        27 000270   004277 710000 27                 TRA     s:13475
        27 000271   004277 710000 27                 TRA     s:13475
        27 000272   004277 710000 27                 TRA     s:13475
        27 000273   004277 710000 27                 TRA     s:13475
        27 000274   001166 710000 27                 TRA     s:12887
        27 000275   001166 710000 27                 TRA     s:12887
        27 000276   001166 710000 27                 TRA     s:12887
        27 000277   001166 710000 27                 TRA     s:12887
        27 000300   001166 710000 27                 TRA     s:12887
        27 000301   001166 710000 27                 TRA     s:12887
        27 000302   001166 710000 27                 TRA     s:12887
        27 000303   001166 710000 27                 TRA     s:12887
PL6.E3A0      #001=Z8JW$WALK_TREE File=Z8JW.:Z8A6TSI                             SAT 08/09/97 13:33 Page:95
        27 000304   001166 710000 27                 TRA     s:12887
        27 000305   001166 710000 27                 TRA     s:12887
        27 000306   001166 710000 27                 TRA     s:12887
        27 000307   001166 710000 27                 TRA     s:12887
        27 000310   001166 710000 27                 TRA     s:12887
        27 000311   001166 710000 27                 TRA     s:12887
        27 000312   001166 710000 27                 TRA     s:12887
        27 000313   001166 710000 27                 TRA     s:12887
        27 000314   001166 710000 27                 TRA     s:12887
        27 000315   001166 710000 27                 TRA     s:12887
        27 000316   001166 710000 27                 TRA     s:12887
        27 000317   001166 710000 27                 TRA     s:12887
        27 000320   001166 710000 27                 TRA     s:12887
        27 000321   002221 710000 27                 TRA     s:13074
        27 000322   001166 710000 27                 TRA     s:12887
        27 000323   002221 710000 27                 TRA     s:13074
        27 000324   002221 710000 27                 TRA     s:13074
        27 000325   001166 710000 27                 TRA     s:12887
        27 000326   001166 710000 27                 TRA     s:12887
        27 000327   001166 710000 27                 TRA     s:12887
        27 000330   001166 710000 27                 TRA     s:12887
        27 000331   001166 710000 27                 TRA     s:12887
        27 000332   001166 710000 27                 TRA     s:12887
        27 000333   001166 710000 27                 TRA     s:12887
        27 000334   001166 710000 27                 TRA     s:12887
        27 000335   004277 710000 27                 TRA     s:13475
        27 000336   003142 710000 27                 TRA     s:13242
        27 000337   001166 710000 27                 TRA     s:12887
        27 000340   001166 710000 27                 TRA     s:12887
        27 000341   001166 710000 27                 TRA     s:12887
        27 000342   003222 710000 27                 TRA     s:13262
        27 000343   001166 710000 27                 TRA     s:12887
        27 000344   004277 710000 27                 TRA     s:13475
        27 000345   004277 710000 27                 TRA     s:13475
        27 000346   004277 710000 27                 TRA     s:13475
        27 000347   004277 710000 27                 TRA     s:13475
        27 000350   004277 710000 27                 TRA     s:13475
PL6.E3A0      #001=Z8JW$WALK_TREE File=Z8JW.:Z8A6TSI                             SAT 08/09/97 13:33 Page:96
        27 000351   004277 710000 27                 TRA     s:13475
        27 000352   004277 710000 27                 TRA     s:13475
        27 000353   004277 710000 27                 TRA     s:13475
        27 000354   004277 710000 27                 TRA     s:13475
        27 000355   004277 710000 27                 TRA     s:13475
        27 000356   004277 710000 27                 TRA     s:13475
        27 000357   004277 710000 27                 TRA     s:13475
        27 000360   004277 710000 27                 TRA     s:13475
        27 000361   001166 710000 27                 TRA     s:12887
        27 000362   003142 710000 27                 TRA     s:13242
        27 000363   002316 710000 27                 TRA     s:13097
        27 000364   002433 710000 27                 TRA     s:13125
        27 000365   002316 710000 27                 TRA     s:13097
        27 000366   002316 710000 27                 TRA     s:13097
        27 000367   002316 710000 27                 TRA     s:13097
        27 000370   002316 710000 27                 TRA     s:13097
        27 000371   002316 710000 27                 TRA     s:13097
        27 000372   002316 710000 27                 TRA     s:13097
        27 000373   002316 710000 27                 TRA     s:13097
        27 000374   002316 710000 27                 TRA     s:13097
        27 000375   002316 710000 27                 TRA     s:13097
        27 000376   002316 710000 27                 TRA     s:13097
        27 000377   004277 710000 27                 TRA     s:13475
        27 000400   002600 710000 27                 TRA     s:13157
        27 000401   004277 710000 27                 TRA     s:13475
        27 000402   004277 710000 27                 TRA     s:13475
        27 000403   004277 710000 27                 TRA     s:13475
        27 000404   002316 710000 27                 TRA     s:13097
        27 000405   004200 710000 27                 TRA     s:13440
        27 000406   004200 710000 27                 TRA     s:13440
        27 000407   004063 710000 27                 TRA     s:13411
        27 000410   004063 710000 27                 TRA     s:13411
        27 000411   001340 710000 27                 TRA     s:12927
        27 000412   002221 710000 27                 TRA     s:13074
        27 000413   004277 710000 27                 TRA     s:13475
        27 000414   003142 710000 27                 TRA     s:13242
        27 000415   001166 710000 27                 TRA     s:12887
PL6.E3A0      #001=Z8JW$WALK_TREE File=Z8JW.:Z8A6TSI                             SAT 08/09/97 13:33 Page:97
        27 000416   001166 710000 27                 TRA     s:12887
        27 000417   004277 710000 27                 TRA     s:13475
        27 000420   004277 710000 27                 TRA     s:13475
        27 000421   004200 710000 27                 TRA     s:13440
        27 000422   003142 710000 27                 TRA     s:13242
        27 000423   003142 710000 27                 TRA     s:13242
        27 000424   003142 710000 27                 TRA     s:13242
        27 000425   001166 710000 27                 TRA     s:12887
        27 000426   001166 710000 27                 TRA     s:12887
        27 000427   003142 710000 27                 TRA     s:13242
        27 000430   001166 710000 27                 TRA     s:12887
        27 000431   001166 710000 27                 TRA     s:12887
        27 000432   004200 710000 27                 TRA     s:13440
        27 000433   004200 710000 27                 TRA     s:13440
        27 000434   003142 710000 27                 TRA     s:13242
        27 000435   003142 710000 27                 TRA     s:13242
        27 000436   004200 710000 27                 TRA     s:13440
        27 000437   002221 710000 27                 TRA     s:13074
        27 000440   002221 710000 27                 TRA     s:13074
        27 000441   004277 710000 27                 TRA     s:13475
        27 000442   004200 710000 27                 TRA     s:13440
        27 000443   004200 710000 27                 TRA     s:13440
        27 000444   003267 710000 27                 TRA     s:13278
        27 000445   004200 710000 27                 TRA     s:13440
        27 000446   004200 710000 27                 TRA     s:13440
        27 000447   003363 710000 27                 TRA     s:13294
        27 000450   001166 710000 27                 TRA     s:12887
        27 000451   004200 710000 27                 TRA     s:13440
        27 000452   001166 710000 27                 TRA     s:12887
        27 000453   004277 710000 27                 TRA     s:13475
        27 000454   004277 710000 27                 TRA     s:13475
        27 000455   004200 710000 27                 TRA     s:13440
        27 000456   003142 710000 27                 TRA     s:13242
        27 000457   001166 710000 27                 TRA     s:12887
        27 000460   001166 710000 27                 TRA     s:12887
        27 000461   002745 710000 27                 TRA     s:13193
        27 000462   002316 710000 27                 TRA     s:13097
PL6.E3A0      #001=Z8JW$WALK_TREE File=Z8JW.:Z8A6TSI                             SAT 08/09/97 13:33 Page:98
        27 000463   001166 710000 27                 TRA     s:12887
        27 000464   001166 710000 27                 TRA     s:12887
        27 000465   001166 710000 27                 TRA     s:12887
        27 000466   001340 710000 27                 TRA     s:12927
        27 000467   004200 710000 27                 TRA     s:13440
        27 000470   001340 710000 27                 TRA     s:12927
        27 000471   001166 710000 27                 TRA     s:12887
        27 000472   001166 710000 27                 TRA     s:12887
        27 000473   001166 710000 27                 TRA     s:12887
        27 000474   002316 710000 27                 TRA     s:13097
        27 000475   002316 710000 27                 TRA     s:13097
        27 000476   001166 710000 27                 TRA     s:12887
        27 000477   001166 710000 27                 TRA     s:12887
        27 000500   002316 710000 27                 TRA     s:13097
        27 000501   002316 710000 27                 TRA     s:13097
        27 000502   001166 710000 27                 TRA     s:12887
        27 000503   001166 710000 27                 TRA     s:12887
        27 000504   002316 710000 27                 TRA     s:13097
        27 000505   002316 710000 27                 TRA     s:13097
        27 000506   001166 710000 27                 TRA     s:12887
        27 000507   001166 710000 27                 TRA     s:12887
        27 000510   002316 710000 27                 TRA     s:13097
        27 000511   002316 710000 27                 TRA     s:13097
        27 000512   004200 710000 27                 TRA     s:13440
        27 000513   003325 710000 27                 TRA     s:13286
        27 000514   001506 710000 27                 TRA     s:12964
        27 000515   004277 710000 27                 TRA     s:13475
        27 000516   004277 710000 27                 TRA     s:13475
        27 000517   004277 710000 27                 TRA     s:13475
        27 000520   004277 710000 27                 TRA     s:13475
        27 000521   004277 710000 27                 TRA     s:13475
        27 000522   004277 710000 27                 TRA     s:13475
        27 000523   004277 710000 27                 TRA     s:13475
        27 000524   004277 710000 27                 TRA     s:13475
        27 000525   004277 710000 27                 TRA     s:13475
        27 000526   004277 710000 27                 TRA     s:13475
        27 000527   004277 710000 27                 TRA     s:13475
PL6.E3A0      #001=Z8JW$WALK_TREE File=Z8JW.:Z8A6TSI                             SAT 08/09/97 13:33 Page:99
        27 000530   004277 710000 27                 TRA     s:13475
        27 000531   004277 710000 27                 TRA     s:13475
        27 000532   004277 710000 27                 TRA     s:13475
        27 000533   004277 710000 27                 TRA     s:13475
        27 000534   004277 710000 27                 TRA     s:13475
        27 000535   004277 710000 27                 TRA     s:13475
        27 000536   004277 710000 27                 TRA     s:13475
        27 000537   004277 710000 27                 TRA     s:13475
        27 000540   004277 710000 27                 TRA     s:13475
        27 000541   004277 710000 27                 TRA     s:13475
        27 000542   004277 710000 27                 TRA     s:13475
        27 000543   004277 710000 27                 TRA     s:13475
        27 000544   004277 710000 27                 TRA     s:13475
        27 000545   004277 710000 27                 TRA     s:13475
        27 000546   004277 710000 27                 TRA     s:13475
        27 000547   004277 710000 27                 TRA     s:13475
        27 000550   004277 710000 27                 TRA     s:13475
        27 000551   004277 710000 27                 TRA     s:13475
        27 000552   004277 710000 27                 TRA     s:13475
        27 000553   004277 710000 27                 TRA     s:13475
        27 000554   004277 710000 27                 TRA     s:13475
        27 000555   004277 710000 27                 TRA     s:13475
        27 000556   004277 710000 27                 TRA     s:13475
        27 000557   004277 710000 27                 TRA     s:13475
        27 000560   004277 710000 27                 TRA     s:13475
        27 000561   004277 710000 27                 TRA     s:13475
        27 000562   004277 710000 27                 TRA     s:13475
        27 000563   004277 710000 27                 TRA     s:13475
        27 000564   004277 710000 27                 TRA     s:13475
        27 000565   004277 710000 27                 TRA     s:13475
        27 000566   004277 710000 27                 TRA     s:13475
        27 000567   004277 710000 27                 TRA     s:13475
        27 000570   004277 710000 27                 TRA     s:13475
        27 000571   004277 710000 27                 TRA     s:13475
        27 000572   004277 710000 27                 TRA     s:13475
        27 000573   004277 710000 27                 TRA     s:13475
        27 000574   004277 710000 27                 TRA     s:13475
PL6.E3A0      #001=Z8JW$WALK_TREE File=Z8JW.:Z8A6TSI                             SAT 08/09/97 13:33 Page:100
        27 000575   004277 710000 27                 TRA     s:13475
        27 000576   004277 710000 27                 TRA     s:13475
        27 000577   004277 710000 27                 TRA     s:13475
        27 000600   004277 710000 27                 TRA     s:13475
        27 000601   004277 710000 27                 TRA     s:13475
        27 000602   004277 710000 27                 TRA     s:13475
        27 000603   004277 710000 27                 TRA     s:13475
        27 000604   004277 710000 27                 TRA     s:13475
        27 000605   004277 710000 27                 TRA     s:13475
        27 000606   004277 710000 27                 TRA     s:13475
        27 000607   004277 710000 27                 TRA     s:13475
        27 000610   004277 710000 27                 TRA     s:13475
        27 000611   004277 710000 27                 TRA     s:13475
        27 000612   004277 710000 27                 TRA     s:13475
        27 000613   004277 710000 27                 TRA     s:13475
        27 000614   004277 710000 27                 TRA     s:13475
        27 000615   004277 710000 27                 TRA     s:13475
        27 000616   004277 710000 27                 TRA     s:13475
        27 000617   004277 710000 27                 TRA     s:13475
        27 000620   004277 710000 27                 TRA     s:13475
        27 000621   004277 710000 27                 TRA     s:13475
        27 000622   004277 710000 27                 TRA     s:13475
        27 000623   004277 710000 27                 TRA     s:13475
        27 000624   004277 710000 27                 TRA     s:13475
        27 000625   004277 710000 27                 TRA     s:13475
        27 000626   004277 710000 27                 TRA     s:13475
        27 000627   004277 710000 27                 TRA     s:13475
        27 000630   004277 710000 27                 TRA     s:13475
        27 000631   004277 710000 27                 TRA     s:13475
        27 000632   004277 710000 27                 TRA     s:13475
        27 000633   004277 710000 27                 TRA     s:13475
        27 000634   004277 710000 27                 TRA     s:13475
        27 000635   004277 710000 27                 TRA     s:13475
        27 000636   004277 710000 27                 TRA     s:13475
        27 000637   004277 710000 27                 TRA     s:13475
        27 000640   004277 710000 27                 TRA     s:13475
        27 000641   004277 710000 27                 TRA     s:13475
PL6.E3A0      #001=Z8JW$WALK_TREE File=Z8JW.:Z8A6TSI                             SAT 08/09/97 13:33 Page:101
        27 000642   004277 710000 27                 TRA     s:13475
        27 000643   004277 710000 27                 TRA     s:13475
        27 000644   004277 710000 27                 TRA     s:13475
        27 000645   004277 710000 27                 TRA     s:13475
        27 000646   004277 710000 27                 TRA     s:13475
        27 000647   004277 710000 27                 TRA     s:13475
        27 000650   004277 710000 27                 TRA     s:13475
        27 000651   004277 710000 27                 TRA     s:13475
        27 000652   004277 710000 27                 TRA     s:13475
        27 000653   004277 710000 27                 TRA     s:13475
        27 000654   004277 710000 27                 TRA     s:13475
        27 000655   004277 710000 27                 TRA     s:13475
        27 000656   004277 710000 27                 TRA     s:13475
        27 000657   004277 710000 27                 TRA     s:13475
        27 000660   004277 710000 27                 TRA     s:13475
        27 000661   004277 710000 27                 TRA     s:13475
        27 000662   004277 710000 27                 TRA     s:13475
        27 000663   004277 710000 27                 TRA     s:13475
        27 000664   004277 710000 27                 TRA     s:13475
        27 000665   004277 710000 27                 TRA     s:13475
        27 000666   004277 710000 27                 TRA     s:13475
        27 000667   004277 710000 27                 TRA     s:13475
        27 000670   004277 710000 27                 TRA     s:13475
        27 000671   004277 710000 27                 TRA     s:13475
        27 000672   004277 710000 27                 TRA     s:13475
        27 000673   004277 710000 27                 TRA     s:13475
        27 000674   004277 710000 27                 TRA     s:13475
        27 000675   004277 710000 27                 TRA     s:13475
        27 000676   004277 710000 27                 TRA     s:13475
        27 000677   004277 710000 27                 TRA     s:13475
        27 000700   004277 710000 27                 TRA     s:13475
        27 000701   004277 710000 27                 TRA     s:13475
        27 000702   004277 710000 27                 TRA     s:13475
        27 000703   004277 710000 27                 TRA     s:13475
        27 000704   004277 710000 27                 TRA     s:13475
        27 000705   004277 710000 27                 TRA     s:13475
        27 000706   004277 710000 27                 TRA     s:13475
PL6.E3A0      #001=Z8JW$WALK_TREE File=Z8JW.:Z8A6TSI                             SAT 08/09/97 13:33 Page:102
        27 000707   004277 710000 27                 TRA     s:13475
        27 000710   004277 710000 27                 TRA     s:13475
        27 000711   004277 710000 27                 TRA     s:13475
        27 000712   004277 710000 27                 TRA     s:13475
        27 000713   004277 710000 27                 TRA     s:13475
        27 000714   004277 710000 27                 TRA     s:13475
        27 000715   004277 710000 27                 TRA     s:13475
        27 000716   004277 710000 27                 TRA     s:13475
        27 000717   004277 710000 27                 TRA     s:13475
        27 000720   004277 710000 27                 TRA     s:13475
        27 000721   004277 710000 27                 TRA     s:13475
        27 000722   004277 710000 27                 TRA     s:13475
        27 000723   004277 710000 27                 TRA     s:13475
        27 000724   004277 710000 27                 TRA     s:13475
        27 000725   004277 710000 27                 TRA     s:13475
        27 000726   004277 710000 27                 TRA     s:13475
        27 000727   004277 710000 27                 TRA     s:13475
        27 000730   004277 710000 27                 TRA     s:13475
        27 000731   004277 710000 27                 TRA     s:13475
        27 000732   004277 710000 27                 TRA     s:13475
        27 000733   004277 710000 27                 TRA     s:13475
        27 000734   004277 710000 27                 TRA     s:13475
        27 000735   004277 710000 27                 TRA     s:13475
        27 000736   004277 710000 27                 TRA     s:13475
        27 000737   004277 710000 27                 TRA     s:13475
        27 000740   004277 710000 27                 TRA     s:13475
        27 000741   004277 710000 27                 TRA     s:13475
        27 000742   004277 710000 27                 TRA     s:13475
        27 000743   004277 710000 27                 TRA     s:13475
        27 000744   004277 710000 27                 TRA     s:13475
        27 000745   004277 710000 27                 TRA     s:13475
        27 000746   004277 710000 27                 TRA     s:13475
        27 000747   004277 710000 27                 TRA     s:13475
        27 000750   004277 710000 27                 TRA     s:13475
        27 000751   004277 710000 27                 TRA     s:13475
        27 000752   004277 710000 27                 TRA     s:13475
        27 000753   004277 710000 27                 TRA     s:13475
PL6.E3A0      #001=Z8JW$WALK_TREE File=Z8JW.:Z8A6TSI                             SAT 08/09/97 13:33 Page:103
        27 000754   004277 710000 27                 TRA     s:13475
        27 000755   004277 710000 27                 TRA     s:13475
        27 000756   004277 710000 27                 TRA     s:13475
        27 000757   004277 710000 27                 TRA     s:13475
        27 000760   004277 710000 27                 TRA     s:13475
        27 000761   004277 710000 27                 TRA     s:13475
        27 000762   004277 710000 27                 TRA     s:13475
        27 000763   004277 710000 27                 TRA     s:13475
        27 000764   004277 710000 27                 TRA     s:13475
        27 000765   004277 710000 27                 TRA     s:13475
        27 000766   004277 710000 27                 TRA     s:13475
        27 000767   004277 710000 27                 TRA     s:13475
        27 000770   004277 710000 27                 TRA     s:13475
        27 000771   004277 710000 27                 TRA     s:13475
        27 000772   004277 710000 27                 TRA     s:13475
        27 000773   004277 710000 27                 TRA     s:13475
        27 000774   004277 710000 27                 TRA     s:13475
        27 000775   004277 710000 27                 TRA     s:13475
        27 000776   004277 710000 27                 TRA     s:13475
        27 000777   004277 710000 27                 TRA     s:13475
        27 001000   004277 710000 27                 TRA     s:13475
        27 001001   004277 710000 27                 TRA     s:13475
        27 001002   004277 710000 27                 TRA     s:13475
        27 001003   004277 710000 27                 TRA     s:13475
        27 001004   004277 710000 27                 TRA     s:13475
        27 001005   004277 710000 27                 TRA     s:13475
        27 001006   004200 710000 27                 TRA     s:13440
        27 001007   004277 710000 27                 TRA     s:13475
        27 001010   004200 710000 27                 TRA     s:13440
        27 001011   004277 710000 27                 TRA     s:13475
        27 001012   004277 710000 27                 TRA     s:13475
        27 001013   004277 710000 27                 TRA     s:13475
        27 001014   004277 710000 27                 TRA     s:13475
        27 001015   004277 710000 27                 TRA     s:13475
        27 001016   004277 710000 27                 TRA     s:13475
        27 001017   004226 710000 27                 TRA     s:13459
        27 001020   004226 710000 27                 TRA     s:13459
PL6.E3A0      #001=Z8JW$WALK_TREE File=Z8JW.:Z8A6TSI                             SAT 08/09/97 13:33 Page:104
        27 001021   004226 710000 27                 TRA     s:13459
        27 001022   004226 710000 27                 TRA     s:13459
        27 001023   004226 710000 27                 TRA     s:13459
        27 001024   001634 710000 27                 TRA     s:12996
        27 001025   004226 710000 27                 TRA     s:13459
        27 001026   004226 710000 27                 TRA     s:13459
        27 001027   004226 710000 27                 TRA     s:13459
        27 001030   004226 710000 27                 TRA     s:13459
        27 001031   004226 710000 27                 TRA     s:13459
        27 001032   004226 710000 27                 TRA     s:13459
        27 001033   004226 710000 27                 TRA     s:13459
        27 001034   004226 710000 27                 TRA     s:13459
        27 001035   004226 710000 27                 TRA     s:13459
        27 001036   004226 710000 27                 TRA     s:13459
        27 001037   004226 710000 27                 TRA     s:13459
        27 001040   004226 710000 27                 TRA     s:13459
        27 001041   003765 710000 27                 TRA     s:13387
        27 001042   004226 710000 27                 TRA     s:13459
        27 001043   004226 710000 27                 TRA     s:13459
        27 001044   003765 710000 27                 TRA     s:13387
        27 001045   004226 710000 27                 TRA     s:13459
        27 001046   004226 710000 27                 TRA     s:13459
        27 001047   004226 710000 27                 TRA     s:13459
        27 001050   004226 710000 27                 TRA     s:13459
        27 001051   004226 710000 27                 TRA     s:13459
        27 001052   004226 710000 27                 TRA     s:13459
        27 001053   004226 710000 27                 TRA     s:13459
        27 001054   004277 710000 27                 TRA     s:13475
        27 001055   004226 710000 27                 TRA     s:13459
        27 001056   004277 710000 27                 TRA     s:13475
        27 001057   004277 710000 27                 TRA     s:13475
        27 001060   004277 710000 27                 TRA     s:13475
        27 001061   004277 710000 27                 TRA     s:13475
        27 001062   004277 710000 27                 TRA     s:13475
        27 001063   004277 710000 27                 TRA     s:13475
        27 001064   004277 710000 27                 TRA     s:13475
        27 001065   004277 710000 27                 TRA     s:13475
PL6.E3A0      #001=Z8JW$WALK_TREE File=Z8JW.:Z8A6TSI                             SAT 08/09/97 13:33 Page:105
        27 001066   004277 710000 27                 TRA     s:13475
        27 001067   004277 710000 27                 TRA     s:13475
        27 001070   004277 710000 27                 TRA     s:13475
        27 001071   004277 710000 27                 TRA     s:13475
        27 001072   004277 710000 27                 TRA     s:13475
        27 001073   004277 710000 27                 TRA     s:13475
        27 001074   004277 710000 27                 TRA     s:13475
        27 001075   004277 710000 27                 TRA     s:13475
        27 001076   004277 710000 27                 TRA     s:13475
        27 001077   004277 710000 27                 TRA     s:13475
        27 001100   004277 710000 27                 TRA     s:13475
        27 001101   004277 710000 27                 TRA     s:13475
        27 001102   004277 710000 27                 TRA     s:13475
        27 001103   004277 710000 27                 TRA     s:13475
        27 001104   004277 710000 27                 TRA     s:13475
        27 001105   004277 710000 27                 TRA     s:13475
        27 001106   004277 710000 27                 TRA     s:13475
        27 001107   004277 710000 27                 TRA     s:13475
        27 001110   004277 710000 27                 TRA     s:13475
        27 001111   004277 710000 27                 TRA     s:13475
        27 001112   004277 710000 27                 TRA     s:13475
        27 001113   004277 710000 27                 TRA     s:13475
        27 001114   004235 710000 27                 TRA     s:13465
        27 001115   004277 710000 27                 TRA     s:13475
        27 001116   004277 710000 27                 TRA     s:13475
        27 001117   004277 710000 27                 TRA     s:13475
        27 001120   004277 710000 27                 TRA     s:13475
        27 001121   001731 710000 27                 TRA     s:13015
        27 001122   004277 710000 27                 TRA     s:13475
        27 001123   004277 710000 27                 TRA     s:13475
        27 001124   004277 710000 27                 TRA     s:13475
        27 001125   004277 710000 27                 TRA     s:13475
        27 001126   004277 710000 27                 TRA     s:13475
        27 001127   004277 710000 27                 TRA     s:13475
        27 001130   004277 710000 27                 TRA     s:13475
        27 001131   004277 710000 27                 TRA     s:13475
        27 001132   004277 710000 27                 TRA     s:13475
PL6.E3A0      #001=Z8JW$WALK_TREE File=Z8JW.:Z8A6TSI                             SAT 08/09/97 13:33 Page:106
        27 001133   004277 710000 27                 TRA     s:13475
        27 001134   004277 710000 27                 TRA     s:13475
        27 001135   004277 710000 27                 TRA     s:13475
        27 001136   004277 710000 27                 TRA     s:13475
        27 001137   004277 710000 27                 TRA     s:13475
        27 001140   004277 710000 27                 TRA     s:13475
        27 001141   004277 710000 27                 TRA     s:13475
        27 001142   004277 710000 27                 TRA     s:13475
        27 001143   004277 710000 27                 TRA     s:13475
        27 001144   004277 710000 27                 TRA     s:13475
        27 001145   004277 710000 27                 TRA     s:13475
        27 001146   004277 710000 27                 TRA     s:13475
        27 001147   004277 710000 27                 TRA     s:13475
        27 001150   004277 710000 27                 TRA     s:13475
        27 001151   004277 710000 27                 TRA     s:13475
        27 001152   004277 710000 27                 TRA     s:13475
        27 001153   004277 710000 27                 TRA     s:13475
        27 001154   004207 710000 27                 TRA     s:13446
        27 001155   004277 710000 27                 TRA     s:13475
        27 001156   004277 710000 27                 TRA     s:13475
        27 001157   004277 710000 27                 TRA     s:13475
        27 001160   003567 710000 27                 TRA     s:13346
        27 001161   004277 710000 27                 TRA     s:13475
        27 001162   004277 710000 27                 TRA     s:13475
        27 001163   004277 710000 27                 TRA     s:13475
        27 001164   004277 710000 27                 TRA     s:13475
        27 001165   001253 710000 27                 TRA     s:12907

      151    12863        %EJECT;
PL6.E3A0      #001=Z8JW$WALK_TREE File=Z8JW.:Z8A6TSI                             SAT 08/09/97 13:33 Page:107
      152    12864
      153    12865          /*      Items with TWO operands: ROP, LOP                      */
      154    12866
      155    12867    2           CASE ( %AD2D, %AD2DR, %AD2I, %SB2D, %SB2DR, %SB2I, %MP2D,

      156    12868    2                  %MP2DR, %MP2I, %DV2D, %DV2DR, %DV2I, %DV2IR, %MVDD,
      157    12869    2                  %MVDDR, %MVII, %MVPP, %MVRR, %MVQQ, %MVRL, %MVHH, %MVID,
      158    12870    2                  %MVAN,  %MVOD, %MVQD, %MVRD, %PFORM, %SUB_END, %SUB_ENTRY,
      159    12871    2                  %MVJJ, %MVDO, %MVDQ, %MVDR, %MVDI, %USER_CALL, %EVAL,
      160    12872    2                  %MVIK,  %INITV, %INCRV, %MIND, %MINR, %MINQ,
      161    12873    2                  %MVKI, %MVJI, %REMEM, %MVFIL,
      162    12874    2                  %OR2I, %ALTER, %SIZ, %SSOP, %MODI, %CMPC,
      163    12875    2                  %SBCHK, %OCCHK, %CMGR, %CMGQ, %CMPQ, %ANDI, %EXRR,
      164    12876    2                  %EXRI, %EXQQ, %EXQI, %ADQ, %SBQ, %MPQ, %DVQ, %INDEX,
      165    12877    2                  %ADD, %ADI, %SBD, %SBI, %MPD, %MPI, %DVD, %DVI, %MINI,
      166    12878    2                  %DVDR, %EXDIO, %ADR, %SBR, %MPR, %DVR, %EXII, %EXDI,
      167    12879    2                  %EXDD, %CMPI, %CMPD, %CMPA, %CMPR, %CMGP, %OS_CALL,
      168    12880    2                  %AD2O, %AD2OR, %MP2O, %MP2OR, %SB2O, %SB2OR, %DV2O,
      169    12881    2                  %DV2OR, %MVOO, %CMPO, %ADO, %SBO, %MPO, %DVO, %DVOR,
      170    12882    2                  %MVOOR, %MVDOR, %MVODR, %REFMOD, %CMK, %CMK1, %CMPT,
      171    12883    2                  %CMPAA, %CMPAO, %CMGI, %ORI );
      172    12884
      173    12885        /*              Expand the ROP of the current item.             */
      174    12886
      175    12887    2             IF ID$ -> ILL.ROP  = ADDR(NIL) THEN

  12887 27 001166   100002 236100                    LDQ     2,,PR1
        27 001167   000002 116000 28                 CMPQ    2
        27 001170   001202 601000 27                 TNZ     s:12890

      176    12888    2               CALL PRINT_ITEM ( ADDR(NIL), %ROP );

  12888 27 001171   000002 236000 28                 LDQ     2
        27 001172   200102 756100                    STQ     @OP+5,,AUTO
        27 001173   000005 236000 28                 LDQ     5
        27 001174   200066 756100                    STQ     @ID$+1,,AUTO
        27 001175   200102 631500                    EPPR1   @OP+5,,AUTO
PL6.E3A0      #001=Z8JW$WALK_TREE File=Z8JW.:Z8A6TSI                             SAT 08/09/97 13:33 Page:108
        27 001176   200065 451500                    STP1    MVANO_CMPAS_CODE+1,,AUTO
        27 001177   005200 701000 27                 TSX1    PRINT_ITEM
        27 001200   000000 011000                    NOP     0
        27 001201   001214 710000 27                 TRA     s:12894

      177    12889    2             ELSE
      178    12890    2               CALL Z8JW$WALK_TREE ( ID$ -> ILL.ROP, %ROP, PRINT_NDX );

  12890 27 001202   200006 633500                    EPPR3   PRINT_NDX,,AUTO
        27 001203   200100 453500                    STP3    @OP+3,,AUTO
        27 001204   000005 236000 28                 LDQ     5
        27 001205   200077 756100                    STQ     @OP+2,,AUTO
        27 001206   100002 634500                    EPPR4   2,,PR1
        27 001207   200076 454500                    STP4    @OP+1,,AUTO
        27 001210   200076 630500                    EPPR0   @OP+1,,AUTO
        27 001211   000006 631400 28                 EPPR1   6
        27 001212   000000 701000 27                 TSX1    s:8
        27 001213   000000 011000                    NOP     0

      179    12891
      180    12892        /*               Print the current item.                       */
      181    12893
      182    12894    2             CALL PRINT_ITEM ( ID$ ,OP );

  12894 27 001214   200054 630500                    EPPR0   OP,,AUTO
        27 001215   200066 450500                    STP0    @ID$+1,,AUTO
        27 001216   200003 236100                    LDQ     @ID$,,AUTO
        27 001217   200065 756100                    STQ     MVANO_CMPAS_CODE+1,,AUTO
        27 001220   005200 701000 27                 TSX1    PRINT_ITEM
        27 001221   000000 011000                    NOP     0

      183    12895
      184    12896        /*               Expand the LOP of the current item.            */
      185    12897
      186    12898    2             IF ID$ -> ILL.LOP = ADDR(NIL) THEN

  12898 27 001222   200003 470500                    LDP0    @ID$,,AUTO
PL6.E3A0      #001=Z8JW$WALK_TREE File=Z8JW.:Z8A6TSI                             SAT 08/09/97 13:33 Page:109
        27 001223   000000 471500                    LDP1    0,,PR0
        27 001224   100001 236100                    LDQ     1,,PR1
        27 001225   000002 116000 28                 CMPQ    2
        27 001226   001240 601000 27                 TNZ     s:12901

      187    12899    2               CALL PRINT_ITEM ( ADDR(NIL) , %LOP );

  12899 27 001227   000002 236000 28                 LDQ     2
        27 001230   200103 756100                    STQ     @OP+6,,AUTO
        27 001231   000010 236000 28                 LDQ     8
        27 001232   200066 756100                    STQ     @ID$+1,,AUTO
        27 001233   200103 631500                    EPPR1   @OP+6,,AUTO
        27 001234   200065 451500                    STP1    MVANO_CMPAS_CODE+1,,AUTO
        27 001235   005200 701000 27                 TSX1    PRINT_ITEM
        27 001236   000000 011000                    NOP     0
        27 001237   004364 710000 27                 TRA     s:13492

      188    12900    2             ELSE
      189    12901    2               CALL Z8JW$WALK_TREE ( ID$ -> ILL.LOP , %LOP, PRINT_NDX );

  12901 27 001240   200006 633500                    EPPR3   PRINT_NDX,,AUTO
        27 001241   200100 453500                    STP3    @OP+3,,AUTO
        27 001242   000010 236000 28                 LDQ     8
        27 001243   200077 756100                    STQ     @OP+2,,AUTO
        27 001244   100001 634500                    EPPR4   1,,PR1
        27 001245   200076 454500                    STP4    @OP+1,,AUTO
        27 001246   200076 630500                    EPPR0   @OP+1,,AUTO
        27 001247   000006 631400 28                 EPPR1   6
        27 001250   000000 701000 27                 TSX1    s:8
        27 001251   000000 011000                    NOP     0
        27 001252   004364 710000 27                 TRA     s:13492

      190    12902        %EJECT;
PL6.E3A0      #001=Z8JW$WALK_TREE File=Z8JW.:Z8A6TSI                             SAT 08/09/97 13:33 Page:110
      191    12903    2           CASE ( %RENAMES );

      192    12904
      193    12905        /*              Expand the ROP of the current item.             */
      194    12906
      195    12907    2             IF ID$ -> RENAMES.START_ST$  = ADDR(NIL) THEN

  12907 27 001253   100001 236100                    LDQ     1,,PR1
        27 001254   000002 116000 28                 CMPQ    2
        27 001255   001267 601000 27                 TNZ     s:12910

      196    12908    2               CALL PRINT_ITEM ( ADDR(NIL), %ROP );

  12908 27 001256   000002 236000 28                 LDQ     2
        27 001257   200104 756100                    STQ     @OP+7,,AUTO
        27 001260   000005 236000 28                 LDQ     5
        27 001261   200066 756100                    STQ     @ID$+1,,AUTO
        27 001262   200104 631500                    EPPR1   @OP+7,,AUTO
        27 001263   200065 451500                    STP1    MVANO_CMPAS_CODE+1,,AUTO
        27 001264   005200 701000 27                 TSX1    PRINT_ITEM
        27 001265   000000 011000                    NOP     0
        27 001266   001301 710000 27                 TRA     s:12914

      197    12909    2             ELSE
      198    12910    2               CALL Z8JW$WALK_TREE ( ID$ -> RENAMES.START_ST$, %ROP, PRINT_NDX );

  12910 27 001267   200006 633500                    EPPR3   PRINT_NDX,,AUTO
        27 001270   200100 453500                    STP3    @OP+3,,AUTO
        27 001271   000005 236000 28                 LDQ     5
        27 001272   200077 756100                    STQ     @OP+2,,AUTO
        27 001273   100001 634500                    EPPR4   1,,PR1
        27 001274   200076 454500                    STP4    @OP+1,,AUTO
        27 001275   200076 630500                    EPPR0   @OP+1,,AUTO
        27 001276   000006 631400 28                 EPPR1   6
        27 001277   000000 701000 27                 TSX1    s:8
        27 001300   000000 011000                    NOP     0

PL6.E3A0      #001=Z8JW$WALK_TREE File=Z8JW.:Z8A6TSI                             SAT 08/09/97 13:33 Page:111
      199    12911
      200    12912        /*               Print the current item.                       */
      201    12913
      202    12914    2             CALL PRINT_ITEM ( ID$ ,OP );

  12914 27 001301   200054 630500                    EPPR0   OP,,AUTO
        27 001302   200066 450500                    STP0    @ID$+1,,AUTO
        27 001303   200003 236100                    LDQ     @ID$,,AUTO
        27 001304   200065 756100                    STQ     MVANO_CMPAS_CODE+1,,AUTO
        27 001305   005200 701000 27                 TSX1    PRINT_ITEM
        27 001306   000000 011000                    NOP     0

      203    12915
      204    12916        /*               Expand the LOP of the current item.            */
      205    12917
      206    12918    2             IF ID$ -> RENAMES.END_ST$ = ADDR(NIL) THEN

  12918 27 001307   200003 470500                    LDP0    @ID$,,AUTO
        27 001310   000000 471500                    LDP1    0,,PR0
        27 001311   100002 236100                    LDQ     2,,PR1
        27 001312   000002 116000 28                 CMPQ    2
        27 001313   001325 601000 27                 TNZ     s:12921

      207    12919    2               CALL PRINT_ITEM ( ADDR(NIL) , %LOP );

  12919 27 001314   000002 236000 28                 LDQ     2
        27 001315   200105 756100                    STQ     @OP+8,,AUTO
        27 001316   000010 236000 28                 LDQ     8
        27 001317   200066 756100                    STQ     @ID$+1,,AUTO
        27 001320   200105 631500                    EPPR1   @OP+8,,AUTO
        27 001321   200065 451500                    STP1    MVANO_CMPAS_CODE+1,,AUTO
        27 001322   005200 701000 27                 TSX1    PRINT_ITEM
        27 001323   000000 011000                    NOP     0
        27 001324   004364 710000 27                 TRA     s:13492

      208    12920    2             ELSE
      209    12921    2               CALL Z8JW$WALK_TREE ( ID$ -> RENAMES.END_ST$ , %LOP, PRINT_NDX );
PL6.E3A0      #001=Z8JW$WALK_TREE File=Z8JW.:Z8A6TSI                             SAT 08/09/97 13:33 Page:112

  12921 27 001325   200006 633500                    EPPR3   PRINT_NDX,,AUTO
        27 001326   200100 453500                    STP3    @OP+3,,AUTO
        27 001327   000010 236000 28                 LDQ     8
        27 001330   200077 756100                    STQ     @OP+2,,AUTO
        27 001331   100002 634500                    EPPR4   2,,PR1
        27 001332   200076 454500                    STP4    @OP+1,,AUTO
        27 001333   200076 630500                    EPPR0   @OP+1,,AUTO
        27 001334   000006 631400 28                 EPPR1   6
        27 001335   000000 701000 27                 TSX1    s:8
        27 001336   000000 011000                    NOP     0
        27 001337   004364 710000 27                 TRA     s:13492

      210    12922        %EJECT;
PL6.E3A0      #001=Z8JW$WALK_TREE File=Z8JW.:Z8A6TSI                             SAT 08/09/97 13:33 Page:113
      211    12923    2           CASE ( %PRESET, %PTR_SET, %PREOFF );

      212    12924
      213    12925        /*              Expand the ROP of the current item.             */
      214    12926
      215    12927    2             IF ID$ -> ILL.ROP  = ADDR(NIL) THEN

  12927 27 001340   100002 236100                    LDQ     2,,PR1
        27 001341   000002 116000 28                 CMPQ    2
        27 001342   001354 601000 27                 TNZ     s:12930

      216    12928    2               CALL PRINT_ITEM ( ADDR(NIL), %ROP );

  12928 27 001343   000002 236000 28                 LDQ     2
        27 001344   200106 756100                    STQ     @OP+9,,AUTO
        27 001345   000005 236000 28                 LDQ     5
        27 001346   200066 756100                    STQ     @ID$+1,,AUTO
        27 001347   200106 631500                    EPPR1   @OP+9,,AUTO
        27 001350   200065 451500                    STP1    MVANO_CMPAS_CODE+1,,AUTO
        27 001351   005200 701000 27                 TSX1    PRINT_ITEM
        27 001352   000000 011000                    NOP     0
        27 001353   001366 710000 27                 TRA     s:12932

      217    12929    2             ELSE
      218    12930    2               CALL Z8JW$WALK_TREE ( ID$ -> ILL.ROP, %ROP, PRINT_NDX );

  12930 27 001354   200006 633500                    EPPR3   PRINT_NDX,,AUTO
        27 001355   200100 453500                    STP3    @OP+3,,AUTO
        27 001356   000005 236000 28                 LDQ     5
        27 001357   200077 756100                    STQ     @OP+2,,AUTO
        27 001360   100002 634500                    EPPR4   2,,PR1
        27 001361   200076 454500                    STP4    @OP+1,,AUTO
        27 001362   200076 630500                    EPPR0   @OP+1,,AUTO
        27 001363   000006 631400 28                 EPPR1   6
        27 001364   000000 701000 27                 TSX1    s:8
        27 001365   000000 011000                    NOP     0

PL6.E3A0      #001=Z8JW$WALK_TREE File=Z8JW.:Z8A6TSI                             SAT 08/09/97 13:33 Page:114
      219    12931
      220    12932    2             CALL X8CO$CONV_TO_DECIMAL( BINBIT(ID$-> PRESET.OFFSET,36), CHAR13 );

  12932 27 001366   200003 470500                    LDP0    @ID$,,AUTO
        27 001367   000000 471500                    LDP1    0,,PR0
        27 001370   100000 236100                    LDQ     0,,PR1
        27 001371   777777 376007                    ANQ     -1,DL
        27 001372   200076 756100                    STQ     @OP+1,,AUTO
        27 001373   200012 631500                    EPPR1   CHAR13,,AUTO
        27 001374   200101 451500                    STP1    @OP+4,,AUTO
        27 001375   200076 633500                    EPPR3   @OP+1,,AUTO
        27 001376   200100 453500                    STP3    @OP+3,,AUTO
        27 001377   200100 630500                    EPPR0   @OP+3,,AUTO
        27 001400   000011 631400 28                 EPPR1   9
        27 001401   000000 701000 xent               TSX1    X8CO$CONV_TO_DECIMAL
        27 001402   000000 011000                    NOP     0

      221    12933    2             SUBSTR( OBUF,PRINT_NDX+12,5 ) = '(Off=';

  12933 27 001403   200006 235100                    LDA     PRINT_NDX,,AUTO
        27 001404   040005 100400                    MLR     fill='040'O
        27 001405   000006 000005 26                 ADSC9   6                        cn=0,n=5
        27 001406   000003 000005 24                 ADSC9   OBUF+3,A                 cn=0,n=5

      222    12934    2             SUBSTR( OBUF,PRINT_NDX+17,6 ) = SUBSTR( CHAR13,7,6 );

  12934 27 001407   040005 100500                    MLR     fill='040'O
        27 001410   200013 600006                    ADSC9   CHAR13+1,,AUTO           cn=3,n=6
        27 001411   000004 200006 24                 ADSC9   OBUF+4,A                 cn=1,n=6

      223    12935
      224    12936    2             IF ID$-> ILL.ID = %PREOFF THEN

  12936 27 001412   200003 470500                    LDP0    @ID$,,AUTO
        27 001413   000000 471500                    LDP1    0,,PR0
        27 001414   100000 220100                    LDX0    0,,PR1
        27 001415   000420 100003                    CMPX0   272,DU
PL6.E3A0      #001=Z8JW$WALK_TREE File=Z8JW.:Z8A6TSI                             SAT 08/09/97 13:33 Page:115
        27 001416   001440 601000 27                 TNZ     s:12943

      225    12937    3               DO;

      226    12938    3                 SUBSTR( OBUF,PRINT_NDX+23,15) = ',n=            )';

  12938 27 001417   040005 100400                    MLR     fill='040'O
        27 001420   000010 000017 26                 ADSC9   8                        cn=0,n=15
        27 001421   000005 600017 24                 ADSC9   OBUF+5,A                 cn=3,n=15

      227    12939    3                 CALL X8CO$CONV_TO_DECIMAL( ID$-> PREOFF.N, CHAR13 );

  12939 27 001422   000000 471500                    LDP1    0,,PR0
        27 001423   200012 633500                    EPPR3   CHAR13,,AUTO
        27 001424   200077 453500                    STP3    @OP+2,,AUTO
        27 001425   100003 634500                    EPPR4   3,,PR1
        27 001426   200076 454500                    STP4    @OP+1,,AUTO
        27 001427   200076 630500                    EPPR0   @OP+1,,AUTO
        27 001430   000011 631400 28                 EPPR1   9
        27 001431   000000 701000 xent               TSX1    X8CO$CONV_TO_DECIMAL
        27 001432   000000 011000                    NOP     0

      228    12940    3                 SUBSTR( OBUF,PRINT_NDX+26,12 ) = SUBSTR( CHAR13,1,12 );

  12940 27 001433   200006 235100                    LDA     PRINT_NDX,,AUTO
        27 001434   040005 100500                    MLR     fill='040'O
        27 001435   200012 200014                    ADSC9   CHAR13,,AUTO             cn=1,n=12
        27 001436   000006 400014 24                 ADSC9   OBUF+6,A                 cn=2,n=12

      229    12941    3               END;

  12941 27 001437   001443 710000 27                 TRA     s:12947

      230    12942    2             ELSE
      231    12943    2                SUBSTR( OBUF,PRINT_NDX+23,1 ) = ')';

  12943 27 001440   040005 100400                    MLR     fill='040'O
PL6.E3A0      #001=Z8JW$WALK_TREE File=Z8JW.:Z8A6TSI                             SAT 08/09/97 13:33 Page:116
        27 001441   000012 000001 28                 ADSC9   10                       cn=0,n=1
        27 001442   000005 600001 24                 ADSC9   OBUF+5,A                 cn=3,n=1

      232    12944
      233    12945        /*               Print the current item.                       */
      234    12946
      235    12947    2             CALL PRINT_ITEM ( ID$ ,OP );

  12947 27 001443   200054 630500                    EPPR0   OP,,AUTO
        27 001444   200066 450500                    STP0    @ID$+1,,AUTO
        27 001445   200003 236100                    LDQ     @ID$,,AUTO
        27 001446   200065 756100                    STQ     MVANO_CMPAS_CODE+1,,AUTO
        27 001447   005200 701000 27                 TSX1    PRINT_ITEM
        27 001450   000000 011000                    NOP     0

      236    12948
      237    12949        /*               Clear offset and length(n)                     */
      238    12950
      239    12951    2             SUBSTR( OBUF,PRINT_NDX+12,50 ) = ' ';

  12951 27 001451   200006 235100                    LDA     PRINT_NDX,,AUTO
        27 001452   040005 100400                    MLR     fill='040'O
        27 001453   000013 000001 28                 ADSC9   11                       cn=0,n=1
        27 001454   000003 000062 24                 ADSC9   OBUF+3,A                 cn=0,n=50

      240    12952
      241    12953        /*               Expand the LOP of the current item.            */
      242    12954
      243    12955    2             IF ID$ -> ILL.LOP = ADDR(NIL) THEN

  12955 27 001455   200003 470500                    LDP0    @ID$,,AUTO
        27 001456   000000 471500                    LDP1    0,,PR0
        27 001457   100001 236100                    LDQ     1,,PR1
        27 001460   000002 116000 28                 CMPQ    2
        27 001461   001473 601000 27                 TNZ     s:12958

      244    12956    2               CALL PRINT_ITEM ( ADDR(NIL) , %LOP );
PL6.E3A0      #001=Z8JW$WALK_TREE File=Z8JW.:Z8A6TSI                             SAT 08/09/97 13:33 Page:117

  12956 27 001462   000002 236000 28                 LDQ     2
        27 001463   200107 756100                    STQ     @OP+10,,AUTO
        27 001464   000010 236000 28                 LDQ     8
        27 001465   200066 756100                    STQ     @ID$+1,,AUTO
        27 001466   200107 631500                    EPPR1   @OP+10,,AUTO
        27 001467   200065 451500                    STP1    MVANO_CMPAS_CODE+1,,AUTO
        27 001470   005200 701000 27                 TSX1    PRINT_ITEM
        27 001471   000000 011000                    NOP     0
        27 001472   004364 710000 27                 TRA     s:13492

      245    12957    2             ELSE
      246    12958    2               CALL Z8JW$WALK_TREE ( ID$ -> ILL.LOP , %LOP, PRINT_NDX );

  12958 27 001473   200006 633500                    EPPR3   PRINT_NDX,,AUTO
        27 001474   200100 453500                    STP3    @OP+3,,AUTO
        27 001475   000010 236000 28                 LDQ     8
        27 001476   200077 756100                    STQ     @OP+2,,AUTO
        27 001477   100001 634500                    EPPR4   1,,PR1
        27 001500   200076 454500                    STP4    @OP+1,,AUTO
        27 001501   200076 630500                    EPPR0   @OP+1,,AUTO
        27 001502   000006 631400 28                 EPPR1   6
        27 001503   000000 701000 27                 TSX1    s:8
        27 001504   000000 011000                    NOP     0
        27 001505   004364 710000 27                 TRA     s:13492

      247    12959        %EJECT;
PL6.E3A0      #001=Z8JW$WALK_TREE File=Z8JW.:Z8A6TSI                             SAT 08/09/97 13:33 Page:118
      248    12960    2           CASE (%P_A_PRESET);

      249    12961
      250    12962        /*              Evaluate the TO_ of the current item.               */
      251    12963
      252    12964    2             IF ID$ -> ILL.TO_  = ADDR(NIL) THEN

  12964 27 001506   100003 236100                    LDQ     3,,PR1
        27 001507   000002 116000 28                 CMPQ    2
        27 001510   001522 601000 27                 TNZ     s:12967

      253    12965    2               CALL PRINT_ITEM ( ADDR(NIL), %ROP );

  12965 27 001511   000002 236000 28                 LDQ     2
        27 001512   200110 756100                    STQ     @OP+11,,AUTO
        27 001513   000005 236000 28                 LDQ     5
        27 001514   200066 756100                    STQ     @ID$+1,,AUTO
        27 001515   200110 631500                    EPPR1   @OP+11,,AUTO
        27 001516   200065 451500                    STP1    MVANO_CMPAS_CODE+1,,AUTO
        27 001517   005200 701000 27                 TSX1    PRINT_ITEM
        27 001520   000000 011000                    NOP     0
        27 001521   001534 710000 27                 TRA     s:12969

      254    12966    2             ELSE
      255    12967    2               CALL Z8JW$WALK_TREE (ID$-> ILL.TO_, %ROP, PRINT_NDX);

  12967 27 001522   200006 633500                    EPPR3   PRINT_NDX,,AUTO
        27 001523   200100 453500                    STP3    @OP+3,,AUTO
        27 001524   000005 236000 28                 LDQ     5
        27 001525   200077 756100                    STQ     @OP+2,,AUTO
        27 001526   100003 634500                    EPPR4   3,,PR1
        27 001527   200076 454500                    STP4    @OP+1,,AUTO
        27 001530   200076 630500                    EPPR0   @OP+1,,AUTO
        27 001531   000006 631400 28                 EPPR1   6
        27 001532   000000 701000 27                 TSX1    s:8
        27 001533   000000 011000                    NOP     0

PL6.E3A0      #001=Z8JW$WALK_TREE File=Z8JW.:Z8A6TSI                             SAT 08/09/97 13:33 Page:119
      256    12968
      257    12969    2             CALL PRINT_DATA (ID$, %ROP);  /* print the ropcon */

  12969 27 001534   000005 236000 28                 LDQ     5
        27 001535   200062 756100                    STQ     @ID$+1,,AUTO
        27 001536   200003 236100                    LDQ     @ID$,,AUTO
        27 001537   200061 756100                    STQ     ARGS#+3,,AUTO
        27 001540   005505 701000 27                 TSX1    PRINT_DATA
        27 001541   000000 011000                    NOP     0

      258    12970
      259    12971    2             CALL X8CO$CONV_TO_DECIMAL( BINBIT(ID$-> PRESET.OFFSET,36), CHAR13 );

  12971 27 001542   200003 470500                    LDP0    @ID$,,AUTO
        27 001543   000000 471500                    LDP1    0,,PR0
        27 001544   100000 236100                    LDQ     0,,PR1
        27 001545   777777 376007                    ANQ     -1,DL
        27 001546   200076 756100                    STQ     @OP+1,,AUTO
        27 001547   200012 631500                    EPPR1   CHAR13,,AUTO
        27 001550   200101 451500                    STP1    @OP+4,,AUTO
        27 001551   200076 633500                    EPPR3   @OP+1,,AUTO
        27 001552   200100 453500                    STP3    @OP+3,,AUTO
        27 001553   200100 630500                    EPPR0   @OP+3,,AUTO
        27 001554   000011 631400 28                 EPPR1   9
        27 001555   000000 701000 xent               TSX1    X8CO$CONV_TO_DECIMAL
        27 001556   000000 011000                    NOP     0

      260    12972    2             SUBSTR( OBUF,PRINT_NDX+12,5 ) = '(Off=';

  12972 27 001557   200006 235100                    LDA     PRINT_NDX,,AUTO
        27 001560   040005 100400                    MLR     fill='040'O
        27 001561   000006 000005 26                 ADSC9   6                        cn=0,n=5
        27 001562   000003 000005 24                 ADSC9   OBUF+3,A                 cn=0,n=5

      261    12973    2             SUBSTR( OBUF,PRINT_NDX+17,6 ) = SUBSTR( CHAR13,7,6 );

  12973 27 001563   040005 100500                    MLR     fill='040'O
PL6.E3A0      #001=Z8JW$WALK_TREE File=Z8JW.:Z8A6TSI                             SAT 08/09/97 13:33 Page:120
        27 001564   200013 600006                    ADSC9   CHAR13+1,,AUTO           cn=3,n=6
        27 001565   000004 200006 24                 ADSC9   OBUF+4,A                 cn=1,n=6

      262    12974
      263    12975    2                SUBSTR( OBUF,PRINT_NDX+23,1 ) = ')';

  12975 27 001566   040005 100400                    MLR     fill='040'O
        27 001567   000012 000001 28                 ADSC9   10                       cn=0,n=1
        27 001570   000005 600001 24                 ADSC9   OBUF+5,A                 cn=3,n=1

      264    12976
      265    12977        /*               Print the current item.                       */
      266    12978
      267    12979    2             CALL PRINT_ITEM ( ID$ ,OP );

  12979 27 001571   200054 630500                    EPPR0   OP,,AUTO
        27 001572   200066 450500                    STP0    @ID$+1,,AUTO
        27 001573   200003 236100                    LDQ     @ID$,,AUTO
        27 001574   200065 756100                    STQ     MVANO_CMPAS_CODE+1,,AUTO
        27 001575   005200 701000 27                 TSX1    PRINT_ITEM
        27 001576   000000 011000                    NOP     0

      268    12980
      269    12981        /*               Clear offset and length(n)                     */
      270    12982
      271    12983    2             SUBSTR( OBUF,PRINT_NDX+12,50 ) = ' ';

  12983 27 001577   200006 235100                    LDA     PRINT_NDX,,AUTO
        27 001600   040005 100400                    MLR     fill='040'O
        27 001601   000013 000001 28                 ADSC9   11                       cn=0,n=1
        27 001602   000003 000062 24                 ADSC9   OBUF+3,A                 cn=0,n=50

      272    12984
      273    12985        /*               Expand the LOP of the current item.            */
      274    12986
      275    12987    2             IF ID$ -> ILL.LOP = ADDR(NIL) THEN

PL6.E3A0      #001=Z8JW$WALK_TREE File=Z8JW.:Z8A6TSI                             SAT 08/09/97 13:33 Page:121
  12987 27 001603   200003 470500                    LDP0    @ID$,,AUTO
        27 001604   000000 471500                    LDP1    0,,PR0
        27 001605   100001 236100                    LDQ     1,,PR1
        27 001606   000002 116000 28                 CMPQ    2
        27 001607   001621 601000 27                 TNZ     s:12990

      276    12988    2               CALL PRINT_ITEM ( ADDR(NIL) , %LOP );

  12988 27 001610   000002 236000 28                 LDQ     2
        27 001611   200111 756100                    STQ     @OP+12,,AUTO
        27 001612   000010 236000 28                 LDQ     8
        27 001613   200066 756100                    STQ     @ID$+1,,AUTO
        27 001614   200111 631500                    EPPR1   @OP+12,,AUTO
        27 001615   200065 451500                    STP1    MVANO_CMPAS_CODE+1,,AUTO
        27 001616   005200 701000 27                 TSX1    PRINT_ITEM
        27 001617   000000 011000                    NOP     0
        27 001620   004364 710000 27                 TRA     s:13492

      277    12989    2             ELSE
      278    12990    2               CALL Z8JW$WALK_TREE ( ID$ -> ILL.LOP , %LOP, PRINT_NDX );

  12990 27 001621   200006 633500                    EPPR3   PRINT_NDX,,AUTO
        27 001622   200100 453500                    STP3    @OP+3,,AUTO
        27 001623   000010 236000 28                 LDQ     8
        27 001624   200077 756100                    STQ     @OP+2,,AUTO
        27 001625   100001 634500                    EPPR4   1,,PR1
        27 001626   200076 454500                    STP4    @OP+1,,AUTO
        27 001627   200076 630500                    EPPR0   @OP+1,,AUTO
        27 001630   000006 631400 28                 EPPR1   6
        27 001631   000000 701000 27                 TSX1    s:8
        27 001632   000000 011000                    NOP     0
        27 001633   004364 710000 27                 TRA     s:13492

      279    12991        %EJECT;
PL6.E3A0      #001=Z8JW$WALK_TREE File=Z8JW.:Z8A6TSI                             SAT 08/09/97 13:33 Page:122
      280    12992        /*  Special case:  PROC_                                            */
      281    12993
      282    12994    2       CASE ( %PROC_ );

      283    12995
      284    12996    2         IF ID$-> PROC_.SON ~= ADDR(NIL) THEN

  12996 27 001634   100007 236100                    LDQ     7,,PR1
        27 001635   000002 116000 28                 CMPQ    2
        27 001636   001651 600000 27                 TZE     s:12999

      285    12997    2           CALL Z8JW$WALK_TREE( ID$-> PROC_.SON, %ROP, PRINT_NDX );

  12997 27 001637   200006 633500                    EPPR3   PRINT_NDX,,AUTO
        27 001640   200100 453500                    STP3    @OP+3,,AUTO
        27 001641   000005 236000 28                 LDQ     5
        27 001642   200077 756100                    STQ     @OP+2,,AUTO
        27 001643   100007 634500                    EPPR4   7,,PR1
        27 001644   200076 454500                    STP4    @OP+1,,AUTO
        27 001645   200076 630500                    EPPR0   @OP+1,,AUTO
        27 001646   000006 631400 28                 EPPR1   6
        27 001647   000000 701000 27                 TSX1    s:8
        27 001650   000000 011000                    NOP     0

      286    12998
      287    12999    2         SUBSTR( OBUF, PRINT_NDX+9, 1 ) = '(';

  12999 27 001651   200006 235100                    LDA     PRINT_NDX,,AUTO
        27 001652   040005 100400                    MLR     fill='040'O
        27 001653   000014 000001 28                 ADSC9   12                       cn=0,n=1
        27 001654   000002 200001 24                 ADSC9   OBUF+2,A                 cn=1,n=1

      288    13000    2         SUBSTR( OBUF, PRINT_NDX+10, ID$-> PROC_.PROC_DEF$-> SYMREF_.DNT$-> DNT.TEXT.
             13000                  LENGTH )

  13000 27 001655   200003 470500                    LDP0    @ID$,,AUTO
        27 001656   000000 471500                    LDP1    0,,PR0
PL6.E3A0      #001=Z8JW$WALK_TREE File=Z8JW.:Z8A6TSI                             SAT 08/09/97 13:33 Page:123
        27 001657   100006 473500                    LDP3    6,,PR1
        27 001660   300006 474500                    LDP4    6,,PR3
        27 001661   400004 220100                    LDX0    4,,PR4
        27 001662   400004 221100                    LDX1    4,,PR4
        27 001663   040045 100540                    MLR     fill='040'O
        27 001664   400004 400011                    ADSC9   4,,PR4                   cn=2,n=*X1
        27 001665   000002 400010 24                 ADSC9   OBUF+2,A                 cn=2,n=*X0

      289    13001    2                = ID$-> PROC_.PROC_DEF$-> SYMREF_.DNT$-> DNT.TEXT.NAME;
      290    13002    2         SUBSTR( OBUF, PRINT_NDX+10 + ID$-> PROC_.PROC_DEF$->

  13002 27 001666   000000 471500                    LDP1    0,,PR0
        27 001667   100006 473500                    LDP3    6,,PR1
        27 001670   300006 474500                    LDP4    6,,PR3
        27 001671   400004 236100                    LDQ     4,,PR4
        27 001672   000022 772000                    QRL     18
        27 001673   200006 036100                    ADLQ    PRINT_NDX,,AUTO
        27 001674   040006 100400                    MLR     fill='040'O
        27 001675   000012 000001 28                 ADSC9   10                       cn=0,n=1
        27 001676   000002 400001 24                 ADSC9   OBUF+2,Q                 cn=2,n=1

      291    13003    2               SYMREF_.DNT$-> DNT.TEXT.LENGTH,1 ) = ')';
      292    13004    2         CALL PRINT_ITEM( ID$, OP );

  13004 27 001677   200054 631500                    EPPR1   OP,,AUTO
        27 001700   200066 451500                    STP1    @ID$+1,,AUTO
        27 001701   200003 236100                    LDQ     @ID$,,AUTO
        27 001702   200065 756100                    STQ     MVANO_CMPAS_CODE+1,,AUTO
        27 001703   005200 701000 27                 TSX1    PRINT_ITEM
        27 001704   000000 011000                    NOP     0

      293    13005    2         SUBSTR( OBUF,PRINT_NDX+9, 32 ) = ' ';

  13005 27 001705   200006 235100                    LDA     PRINT_NDX,,AUTO
        27 001706   040005 100400                    MLR     fill='040'O
        27 001707   000013 000001 28                 ADSC9   11                       cn=0,n=1
        27 001710   000002 200040 24                 ADSC9   OBUF+2,A                 cn=1,n=32
PL6.E3A0      #001=Z8JW$WALK_TREE File=Z8JW.:Z8A6TSI                             SAT 08/09/97 13:33 Page:124

      294    13006
      295    13007    2         IF ID$-> PROC_.BROTHER ~= ADDR(NIL) THEN

  13007 27 001711   200003 470500                    LDP0    @ID$,,AUTO
        27 001712   000000 471500                    LDP1    0,,PR0
        27 001713   100010 236100                    LDQ     8,,PR1
        27 001714   000002 116000 28                 CMPQ    2
        27 001715   004364 600000 27                 TZE     s:13492

      296    13008    2           CALL Z8JW$WALK_TREE( ID$-> PROC_.BROTHER, %LOP, PRINT_NDX );

  13008 27 001716   200006 633500                    EPPR3   PRINT_NDX,,AUTO
        27 001717   200100 453500                    STP3    @OP+3,,AUTO
        27 001720   000010 236000 28                 LDQ     8
        27 001721   200077 756100                    STQ     @OP+2,,AUTO
        27 001722   100010 634500                    EPPR4   8,,PR1
        27 001723   200076 454500                    STP4    @OP+1,,AUTO
        27 001724   200076 630500                    EPPR0   @OP+1,,AUTO
        27 001725   000006 631400 28                 EPPR1   6
        27 001726   000000 701000 27                 TSX1    s:8
        27 001727   000000 011000                    NOP     0
        27 001730   004364 710000 27                 TRA     s:13492

      297    13009
      298    13010        %EJECT;
PL6.E3A0      #001=Z8JW$WALK_TREE File=Z8JW.:Z8A6TSI                             SAT 08/09/97 13:33 Page:125
      299    13011    2           CASE ( %QUAL );

      300    13012
      301    13013        /*           Print the Father of the current item                   */
      302    13014
      303    13015    2             IF ID$-> QLT.FATHER = ADDR(NIL) THEN

  13015 27 001731   100001 236100                    LDQ     1,,PR1
        27 001732   000002 116000 28                 CMPQ    2
        27 001733   001745 601000 27                 TNZ     s:13018

      304    13016    2               CALL PRINT_ITEM( ADDR(NIL), %ROP );

  13016 27 001734   000002 236000 28                 LDQ     2
        27 001735   200112 756100                    STQ     @OP+13,,AUTO
        27 001736   000005 236000 28                 LDQ     5
        27 001737   200066 756100                    STQ     @ID$+1,,AUTO
        27 001740   200112 631500                    EPPR1   @OP+13,,AUTO
        27 001741   200065 451500                    STP1    MVANO_CMPAS_CODE+1,,AUTO
        27 001742   005200 701000 27                 TSX1    PRINT_ITEM
        27 001743   000000 011000                    NOP     0
        27 001744   001754 710000 27                 TRA     s:13022

      305    13017    2             ELSE
      306    13018    2               CALL PRINT_DNT_NAME( ID$-> QLT.FATHER-> QLT.DNT$, %ROP );

  13018 27 001745   100001 473500                    LDP3    1,,PR1
        27 001746   000005 236000 28                 LDQ     5
        27 001747   200062 756100                    STQ     @ID$+1,,AUTO
        27 001750   300005 631500                    EPPR1   5,,PR3
        27 001751   200061 451500                    STP1    ARGS#+3,,AUTO
        27 001752   005603 701000 27                 TSX1    PRINT_DNT_NAME
        27 001753   000000 011000                    NOP     0

      307    13019
      308    13020        /*           Print the current item                                 */
      309    13021
PL6.E3A0      #001=Z8JW$WALK_TREE File=Z8JW.:Z8A6TSI                             SAT 08/09/97 13:33 Page:126
      310    13022    2             SUBSTR( OBUF, PRINT_NDX+9, 1 ) = '(';

  13022 27 001754   200006 235100                    LDA     PRINT_NDX,,AUTO
        27 001755   040005 100400                    MLR     fill='040'O
        27 001756   000014 000001 28                 ADSC9   12                       cn=0,n=1
        27 001757   000002 200001 24                 ADSC9   OBUF+2,A                 cn=1,n=1

      311    13023    2             SUBSTR( OBUF, PRINT_NDX+10, ID$->QLT.DNT$-> DNT.TEXT.LENGTH ) =

  13023 27 001760   200003 470500                    LDP0    @ID$,,AUTO
        27 001761   000000 471500                    LDP1    0,,PR0
        27 001762   100005 473500                    LDP3    5,,PR1
        27 001763   300004 220100                    LDX0    4,,PR3
        27 001764   300004 221100                    LDX1    4,,PR3
        27 001765   040045 100540                    MLR     fill='040'O
        27 001766   300004 400011                    ADSC9   4,,PR3                   cn=2,n=*X1
        27 001767   000002 400010 24                 ADSC9   OBUF+2,A                 cn=2,n=*X0

      312    13024    2                ID$-> QLT.DNT$-> DNT.TEXT.NAME ;
      313    13025    2              SUBSTR( OBUF, PRINT_NDX+10 + ID$->QLT.DNT$->DNT.TEXT.LENGTH, 1) = ')';

  13025 27 001770   000000 471500                    LDP1    0,,PR0
        27 001771   100005 473500                    LDP3    5,,PR1
        27 001772   300004 236100                    LDQ     4,,PR3
        27 001773   000022 772000                    QRL     18
        27 001774   200006 036100                    ADLQ    PRINT_NDX,,AUTO
        27 001775   040006 100400                    MLR     fill='040'O
        27 001776   000012 000001 28                 ADSC9   10                       cn=0,n=1
        27 001777   000002 400001 24                 ADSC9   OBUF+2,Q                 cn=2,n=1

      314    13026    2             CALL PRINT_ITEM( ID$, OP );

  13026 27 002000   200054 631500                    EPPR1   OP,,AUTO
        27 002001   200066 451500                    STP1    @ID$+1,,AUTO
        27 002002   200003 236100                    LDQ     @ID$,,AUTO
        27 002003   200065 756100                    STQ     MVANO_CMPAS_CODE+1,,AUTO
        27 002004   005200 701000 27                 TSX1    PRINT_ITEM
PL6.E3A0      #001=Z8JW$WALK_TREE File=Z8JW.:Z8A6TSI                             SAT 08/09/97 13:33 Page:127
        27 002005   000000 011000                    NOP     0

      315    13027    2             SUBSTR( OBUF, PRINT_NDX+9, 32 ) = ' ';

  13027 27 002006   200006 235100                    LDA     PRINT_NDX,,AUTO
        27 002007   040005 100400                    MLR     fill='040'O
        27 002010   000013 000001 28                 ADSC9   11                       cn=0,n=1
        27 002011   000002 200040 24                 ADSC9   OBUF+2,A                 cn=1,n=32

      316    13028
      317    13029        /*           Print the sons of the current item                     */
      318    13030    2             IF ID$-> QLT.SON = ADDR(NIL) THEN

  13030 27 002012   200003 470500                    LDP0    @ID$,,AUTO
        27 002013   000000 471500                    LDP1    0,,PR0
        27 002014   100003 236100                    LDQ     3,,PR1
        27 002015   000002 116000 28                 CMPQ    2
        27 002016   002030 601000 27                 TNZ     s:13033

      319    13031    2               CALL PRINT_ITEM( ADDR(NIL), %LOP );

  13031 27 002017   000002 236000 28                 LDQ     2
        27 002020   200113 756100                    STQ     @OP+14,,AUTO
        27 002021   000010 236000 28                 LDQ     8
        27 002022   200066 756100                    STQ     @ID$+1,,AUTO
        27 002023   200113 631500                    EPPR1   @OP+14,,AUTO
        27 002024   200065 451500                    STP1    MVANO_CMPAS_CODE+1,,AUTO
        27 002025   005200 701000 27                 TSX1    PRINT_ITEM
        27 002026   000000 011000                    NOP     0
        27 002027   002042 710000 27                 TRA     s:13036

      320    13032    2             ELSE
      321    13033    2               CALL Z8JW$WALK_TREE( ID$-> QLT.SON, %LOP, PRINT_NDX );

  13033 27 002030   200006 633500                    EPPR3   PRINT_NDX,,AUTO
        27 002031   200100 453500                    STP3    @OP+3,,AUTO
        27 002032   000010 236000 28                 LDQ     8
PL6.E3A0      #001=Z8JW$WALK_TREE File=Z8JW.:Z8A6TSI                             SAT 08/09/97 13:33 Page:128
        27 002033   200077 756100                    STQ     @OP+2,,AUTO
        27 002034   100003 634500                    EPPR4   3,,PR1
        27 002035   200076 454500                    STP4    @OP+1,,AUTO
        27 002036   200076 630500                    EPPR0   @OP+1,,AUTO
        27 002037   000006 631400 28                 EPPR1   6
        27 002040   000000 701000 27                 TSX1    s:8
        27 002041   000000 011000                    NOP     0

      322    13034
      323    13035        /*              Expand the ROP of the current item.             */
      324    13036    2             IF ID$-> QLT.FATHER = ADDR(NIL) THEN

  13036 27 002042   200003 470500                    LDP0    @ID$,,AUTO
        27 002043   000000 471500                    LDP1    0,,PR0
        27 002044   100001 236100                    LDQ     1,,PR1
        27 002045   000002 116000 28                 CMPQ    2
        27 002046   002110 601000 27                 TNZ     s:13048

      325    13037    3               DO;

      326    13038    3                SUBSTR( OBUF, PRINT_NDX+9, 1 ) = '(';

  13038 27 002047   200006 235100                    LDA     PRINT_NDX,,AUTO
        27 002050   040005 100400                    MLR     fill='040'O
        27 002051   000014 000001 28                 ADSC9   12                       cn=0,n=1
        27 002052   000002 200001 24                 ADSC9   OBUF+2,A                 cn=1,n=1

      327    13039    3                SUBSTR( OBUF, PRINT_NDX+10, ID$->QLT.BROTHER->QLT.DNT$->

  13039 27 002053   000000 471500                    LDP1    0,,PR0
        27 002054   100002 473500                    LDP3    2,,PR1
        27 002055   300005 474500                    LDP4    5,,PR3
        27 002056   400004 220100                    LDX0    4,,PR4
        27 002057   400004 221100                    LDX1    4,,PR4
        27 002060   040045 100540                    MLR     fill='040'O
        27 002061   400004 400011                    ADSC9   4,,PR4                   cn=2,n=*X1
        27 002062   000002 400010 24                 ADSC9   OBUF+2,A                 cn=2,n=*X0
PL6.E3A0      #001=Z8JW$WALK_TREE File=Z8JW.:Z8A6TSI                             SAT 08/09/97 13:33 Page:129

      328    13040    3                  DNT.TEXT.LENGTH ) = ID$-> QLT.BROTHER-> QLT.DNT$->
      329    13041    3                  DNT.TEXT.NAME;
      330    13042    3                SUBSTR( OBUF, PRINT_NDX+10 + ID$-> QLT.BROTHER->

  13042 27 002063   000000 471500                    LDP1    0,,PR0
        27 002064   100002 473500                    LDP3    2,,PR1
        27 002065   300005 474500                    LDP4    5,,PR3
        27 002066   400004 236100                    LDQ     4,,PR4
        27 002067   000022 772000                    QRL     18
        27 002070   200006 036100                    ADLQ    PRINT_NDX,,AUTO
        27 002071   040006 100400                    MLR     fill='040'O
        27 002072   000012 000001 28                 ADSC9   10                       cn=0,n=1
        27 002073   000002 400001 24                 ADSC9   OBUF+2,Q                 cn=2,n=1

      331    13043    3                    QLT.DNT$-> DNT.TEXT.LENGTH, 1 ) = ')';
      332    13044    3                CALL PRINT_ITEM( ID$-> QLT.BROTHER, OP );

  13044 27 002074   000000 471500                    LDP1    0,,PR0
        27 002075   200054 633500                    EPPR3   OP,,AUTO
        27 002076   200066 453500                    STP3    @ID$+1,,AUTO
        27 002077   100002 634500                    EPPR4   2,,PR1
        27 002100   200065 454500                    STP4    MVANO_CMPAS_CODE+1,,AUTO
        27 002101   005200 701000 27                 TSX1    PRINT_ITEM
        27 002102   000000 011000                    NOP     0

      333    13045    3                SUBSTR( OBUF, PRINT_NDX+9, 32 ) = ' ';

  13045 27 002103   200006 235100                    LDA     PRINT_NDX,,AUTO
        27 002104   040005 100400                    MLR     fill='040'O
        27 002105   000013 000001 28                 ADSC9   11                       cn=0,n=1
        27 002106   000002 200040 24                 ADSC9   OBUF+2,A                 cn=1,n=32

      334    13046    3               END;

  13046 27 002107   004364 710000 27                 TRA     s:13492

PL6.E3A0      #001=Z8JW$WALK_TREE File=Z8JW.:Z8A6TSI                             SAT 08/09/97 13:33 Page:130
      335    13047    2            ELSE
      336    13048    2               IF ID$-> QLT.BROTHER ~= ADDR(NIL) THEN

  13048 27 002110   100002 236100                    LDQ     2,,PR1
        27 002111   000002 116000 28                 CMPQ    2
        27 002112   004364 600000 27                 TZE     s:13492

      337    13049    2                 CALL Z8JW$WALK_TREE( ID$-> QLT.BROTHER, %LOP, PRINT_NDX-8);

  13049 27 002113   200006 235100                    LDA     PRINT_NDX,,AUTO
        27 002114   000010 135007                    SBLA    8,DL
        27 002115   200076 755100                    STA     @OP+1,,AUTO
        27 002116   200076 633500                    EPPR3   @OP+1,,AUTO
        27 002117   200101 453500                    STP3    @OP+4,,AUTO
        27 002120   000010 236000 28                 LDQ     8
        27 002121   200100 756100                    STQ     @OP+3,,AUTO
        27 002122   100002 634500                    EPPR4   2,,PR1
        27 002123   200077 454500                    STP4    @OP+2,,AUTO
        27 002124   200077 630500                    EPPR0   @OP+2,,AUTO
        27 002125   000006 631400 28                 EPPR1   6
        27 002126   000000 701000 27                 TSX1    s:8
        27 002127   000000 011000                    NOP     0
        27 002130   004364 710000 27                 TRA     s:13492

      338    13050        %EJECT;
PL6.E3A0      #001=Z8JW$WALK_TREE File=Z8JW.:Z8A6TSI                             SAT 08/09/97 13:33 Page:131
      339    13051    2           CASE ( %BASE );

      340    13052
      341    13053    2             IF ID$ -> ILL.ROP  = ADDR(NIL)

  13053 27 002131   100002 236100                    LDQ     2,,PR1
        27 002132   000002 116000 28                 CMPQ    2
        27 002133   002137 600000 27                 TZE     s:13055
        27 002134   000132 235000 xsym               LDA     COMCOM+90
        27 002135   000001 115007                    CMPA    1,DL
        27 002136   002150 601000 27                 TNZ     s:13057

      342    13054    2             OR COMCOM.CURRENT.PHASE = 1 THEN
      343    13055    2               CALL PRINT_ITEM ( ADDR(NIL), %ROP );

  13055 27 002137   000002 236000 28                 LDQ     2
        27 002140   200114 756100                    STQ     @OP+15,,AUTO
        27 002141   000005 236000 28                 LDQ     5
        27 002142   200066 756100                    STQ     @ID$+1,,AUTO
        27 002143   200114 631500                    EPPR1   @OP+15,,AUTO
        27 002144   200065 451500                    STP1    MVANO_CMPAS_CODE+1,,AUTO
        27 002145   005200 701000 27                 TSX1    PRINT_ITEM
        27 002146   000000 011000                    NOP     0
        27 002147   002162 710000 27                 TRA     s:13061

      344    13056    2             ELSE
      345    13057    2               CALL Z8JW$WALK_TREE ( ID$ -> ILL.ROP, %ROP, PRINT_NDX );

  13057 27 002150   200006 633500                    EPPR3   PRINT_NDX,,AUTO
        27 002151   200100 453500                    STP3    @OP+3,,AUTO
        27 002152   000005 236000 28                 LDQ     5
        27 002153   200077 756100                    STQ     @OP+2,,AUTO
        27 002154   100002 634500                    EPPR4   2,,PR1
        27 002155   200076 454500                    STP4    @OP+1,,AUTO
        27 002156   200076 630500                    EPPR0   @OP+1,,AUTO
        27 002157   000006 631400 28                 EPPR1   6
        27 002160   000000 701000 27                 TSX1    s:8
PL6.E3A0      #001=Z8JW$WALK_TREE File=Z8JW.:Z8A6TSI                             SAT 08/09/97 13:33 Page:132
        27 002161   000000 011000                    NOP     0

      346    13058
      347    13059        /*               Print the current item.                       */
      348    13060
      349    13061    2             CALL PRINT_ITEM ( ID$ ,OP );

  13061 27 002162   200054 630500                    EPPR0   OP,,AUTO
        27 002163   200066 450500                    STP0    @ID$+1,,AUTO
        27 002164   200003 236100                    LDQ     @ID$,,AUTO
        27 002165   200065 756100                    STQ     MVANO_CMPAS_CODE+1,,AUTO
        27 002166   005200 701000 27                 TSX1    PRINT_ITEM
        27 002167   000000 011000                    NOP     0

      350    13062
      351    13063        /*               Expand the LOP of the current item.            */
      352    13064
      353    13065    2             IF ID$ -> ILL.LOP = ADDR(NIL) THEN

  13065 27 002170   200003 470500                    LDP0    @ID$,,AUTO
        27 002171   000000 471500                    LDP1    0,,PR0
        27 002172   100001 236100                    LDQ     1,,PR1
        27 002173   000002 116000 28                 CMPQ    2
        27 002174   002206 601000 27                 TNZ     s:13068

      354    13066    2               CALL PRINT_ITEM ( ADDR(NIL) , %LOP );

  13066 27 002175   000002 236000 28                 LDQ     2
        27 002176   200115 756100                    STQ     @OP+16,,AUTO
        27 002177   000010 236000 28                 LDQ     8
        27 002200   200066 756100                    STQ     @ID$+1,,AUTO
        27 002201   200115 631500                    EPPR1   @OP+16,,AUTO
        27 002202   200065 451500                    STP1    MVANO_CMPAS_CODE+1,,AUTO
        27 002203   005200 701000 27                 TSX1    PRINT_ITEM
        27 002204   000000 011000                    NOP     0
        27 002205   004364 710000 27                 TRA     s:13492

PL6.E3A0      #001=Z8JW$WALK_TREE File=Z8JW.:Z8A6TSI                             SAT 08/09/97 13:33 Page:133
      355    13067    2             ELSE
      356    13068    2               CALL Z8JW$WALK_TREE ( ID$ -> ILL.LOP , %LOP, PRINT_NDX );

  13068 27 002206   200006 633500                    EPPR3   PRINT_NDX,,AUTO
        27 002207   200100 453500                    STP3    @OP+3,,AUTO
        27 002210   000010 236000 28                 LDQ     8
        27 002211   200077 756100                    STQ     @OP+2,,AUTO
        27 002212   100001 634500                    EPPR4   1,,PR1
        27 002213   200076 454500                    STP4    @OP+1,,AUTO
        27 002214   200076 630500                    EPPR0   @OP+1,,AUTO
        27 002215   000006 631400 28                 EPPR1   6
        27 002216   000000 701000 27                 TSX1    s:8
        27 002217   000000 011000                    NOP     0
        27 002220   004364 710000 27                 TRA     s:13492

      357    13069        %EJECT;
PL6.E3A0      #001=Z8JW$WALK_TREE File=Z8JW.:Z8A6TSI                             SAT 08/09/97 13:33 Page:134
      358    13070    2           CASE( %ACCEP, %DISPL, %GO, %MVANO, %MVIH, %MVIJ );

      359    13071
      360    13072        /*              Expand the ROP of the current item.             */
      361    13073
      362    13074    2             IF ID$ -> ILL.ROP  = ADDR(NIL) THEN

  13074 27 002221   100002 236100                    LDQ     2,,PR1
        27 002222   000002 116000 28                 CMPQ    2
        27 002223   002235 601000 27                 TNZ     s:13077

      363    13075    2               CALL PRINT_ITEM ( ADDR(NIL), %ROP );

  13075 27 002224   000002 236000 28                 LDQ     2
        27 002225   200116 756100                    STQ     @OP+17,,AUTO
        27 002226   000005 236000 28                 LDQ     5
        27 002227   200066 756100                    STQ     @ID$+1,,AUTO
        27 002230   200116 631500                    EPPR1   @OP+17,,AUTO
        27 002231   200065 451500                    STP1    MVANO_CMPAS_CODE+1,,AUTO
        27 002232   005200 701000 27                 TSX1    PRINT_ITEM
        27 002233   000000 011000                    NOP     0
        27 002234   002247 710000 27                 TRA     s:13081

      364    13076    2             ELSE
      365    13077    2               CALL Z8JW$WALK_TREE ( ID$ -> ILL.ROP, %ROP, PRINT_NDX );

  13077 27 002235   200006 633500                    EPPR3   PRINT_NDX,,AUTO
        27 002236   200100 453500                    STP3    @OP+3,,AUTO
        27 002237   000005 236000 28                 LDQ     5
        27 002240   200077 756100                    STQ     @OP+2,,AUTO
        27 002241   100002 634500                    EPPR4   2,,PR1
        27 002242   200076 454500                    STP4    @OP+1,,AUTO
        27 002243   200076 630500                    EPPR0   @OP+1,,AUTO
        27 002244   000006 631400 28                 EPPR1   6
        27 002245   000000 701000 27                 TSX1    s:8
        27 002246   000000 011000                    NOP     0

PL6.E3A0      #001=Z8JW$WALK_TREE File=Z8JW.:Z8A6TSI                             SAT 08/09/97 13:33 Page:135
      366    13078
      367    13079        /*               Print the current item.                       */
      368    13080
      369    13081    2             CALL PRINT_CODE ( ID$ );

  13081 27 002247   200003 236100                    LDQ     @ID$,,AUTO
        27 002250   200061 756100                    STQ     ARGS#+3,,AUTO
        27 002251   005703 701000 27                 TSX1    PRINT_CODE
        27 002252   000000 011000                    NOP     0

      370    13082    2             CALL PRINT_ITEM ( ID$ ,OP );

  13082 27 002253   200054 630500                    EPPR0   OP,,AUTO
        27 002254   200066 450500                    STP0    @ID$+1,,AUTO
        27 002255   200003 236100                    LDQ     @ID$,,AUTO
        27 002256   200065 756100                    STQ     MVANO_CMPAS_CODE+1,,AUTO
        27 002257   005200 701000 27                 TSX1    PRINT_ITEM
        27 002260   000000 011000                    NOP     0

      371    13083    2             SUBSTR( OBUF,PRINT_NDX+9,20 ) = ' '; /* Remove codes */

  13083 27 002261   200006 235100                    LDA     PRINT_NDX,,AUTO
        27 002262   040005 100400                    MLR     fill='040'O
        27 002263   000013 000001 28                 ADSC9   11                       cn=0,n=1
        27 002264   000002 200024 24                 ADSC9   OBUF+2,A                 cn=1,n=20

      372    13084
      373    13085        /*               Expand the LOP of the current item.            */
      374    13086
      375    13087    2             IF ID$ -> ILL.LOP = ADDR(NIL) THEN

  13087 27 002265   200003 470500                    LDP0    @ID$,,AUTO
        27 002266   000000 471500                    LDP1    0,,PR0
        27 002267   100001 236100                    LDQ     1,,PR1
        27 002270   000002 116000 28                 CMPQ    2
        27 002271   002303 601000 27                 TNZ     s:13090

PL6.E3A0      #001=Z8JW$WALK_TREE File=Z8JW.:Z8A6TSI                             SAT 08/09/97 13:33 Page:136
      376    13088    2               CALL PRINT_ITEM ( ADDR(NIL) , %LOP );

  13088 27 002272   000002 236000 28                 LDQ     2
        27 002273   200117 756100                    STQ     @OP+18,,AUTO
        27 002274   000010 236000 28                 LDQ     8
        27 002275   200066 756100                    STQ     @ID$+1,,AUTO
        27 002276   200117 631500                    EPPR1   @OP+18,,AUTO
        27 002277   200065 451500                    STP1    MVANO_CMPAS_CODE+1,,AUTO
        27 002300   005200 701000 27                 TSX1    PRINT_ITEM
        27 002301   000000 011000                    NOP     0
        27 002302   004364 710000 27                 TRA     s:13492

      377    13089    2             ELSE
      378    13090    2               CALL Z8JW$WALK_TREE ( ID$ -> ILL.LOP , %LOP, PRINT_NDX );

  13090 27 002303   200006 633500                    EPPR3   PRINT_NDX,,AUTO
        27 002304   200100 453500                    STP3    @OP+3,,AUTO
        27 002305   000010 236000 28                 LDQ     8
        27 002306   200077 756100                    STQ     @OP+2,,AUTO
        27 002307   100001 634500                    EPPR4   1,,PR1
        27 002310   200076 454500                    STP4    @OP+1,,AUTO
        27 002311   200076 630500                    EPPR0   @OP+1,,AUTO
        27 002312   000006 631400 28                 EPPR1   6
        27 002313   000000 701000 27                 TSX1    s:8
        27 002314   000000 011000                    NOP     0
        27 002315   004364 710000 27                 TRA     s:13492

      379    13091        %EJECT;
PL6.E3A0      #001=Z8JW$WALK_TREE File=Z8JW.:Z8A6TSI                             SAT 08/09/97 13:33 Page:137
      380    13092          /*      Items with THREE operands: ROP, LOP, TO_              */
      381    13093
      382    13094    2           CASE ( %MVEAN, %MVEDD, %AD3D, %AD3DR, %SB3D, %SB3DR, %MP3D,

      383    13095    2                  %AD3O, %AD3OR, %MP3O, %MP3OR, %SB3O, %SB3OR, %DV3O,
      384    13096    2                  %MP3DR, %DV3D, %DV3DR, %MVDDD, %DV3OR, %MVT, %P_P_PRESET);
      385    13097    2            IF ID$ -> ILL.TO_ = ADDR(NIL) THEN

  13097 27 002316   100003 236100                    LDQ     3,,PR1
        27 002317   000002 116000 28                 CMPQ    2
        27 002320   002332 601000 27                 TNZ     s:13100

      386    13098    2               CALL PRINT_ITEM ( ADDR(NIL), %ROP );

  13098 27 002321   000002 236000 28                 LDQ     2
        27 002322   200120 756100                    STQ     @OP+19,,AUTO
        27 002323   000005 236000 28                 LDQ     5
        27 002324   200066 756100                    STQ     @ID$+1,,AUTO
        27 002325   200120 631500                    EPPR1   @OP+19,,AUTO
        27 002326   200065 451500                    STP1    MVANO_CMPAS_CODE+1,,AUTO
        27 002327   005200 701000 27                 TSX1    PRINT_ITEM
        27 002330   000000 011000                    NOP     0
        27 002331   002344 710000 27                 TRA     s:13104

      387    13099    2             ELSE
      388    13100    2               CALL Z8JW$WALK_TREE ( ID$ -> ILL.TO_, %ROP, PRINT_NDX );

  13100 27 002332   200006 633500                    EPPR3   PRINT_NDX,,AUTO
        27 002333   200100 453500                    STP3    @OP+3,,AUTO
        27 002334   000005 236000 28                 LDQ     5
        27 002335   200077 756100                    STQ     @OP+2,,AUTO
        27 002336   100003 634500                    EPPR4   3,,PR1
        27 002337   200076 454500                    STP4    @OP+1,,AUTO
        27 002340   200076 630500                    EPPR0   @OP+1,,AUTO
        27 002341   000006 631400 28                 EPPR1   6
        27 002342   000000 701000 27                 TSX1    s:8
        27 002343   000000 011000                    NOP     0
PL6.E3A0      #001=Z8JW$WALK_TREE File=Z8JW.:Z8A6TSI                             SAT 08/09/97 13:33 Page:138

      389    13101
      390    13102        /*              Expand the ROP of the current item.             */
      391    13103
      392    13104    2             IF ID$ -> ILL.ROP  = ADDR(NIL) THEN

  13104 27 002344   200003 470500                    LDP0    @ID$,,AUTO
        27 002345   000000 471500                    LDP1    0,,PR0
        27 002346   100002 236100                    LDQ     2,,PR1
        27 002347   000002 116000 28                 CMPQ    2
        27 002350   002362 601000 27                 TNZ     s:13107

      393    13105    2               CALL PRINT_ITEM ( ADDR(NIL), %ROP );

  13105 27 002351   000002 236000 28                 LDQ     2
        27 002352   200121 756100                    STQ     @OP+20,,AUTO
        27 002353   000005 236000 28                 LDQ     5
        27 002354   200066 756100                    STQ     @ID$+1,,AUTO
        27 002355   200121 631500                    EPPR1   @OP+20,,AUTO
        27 002356   200065 451500                    STP1    MVANO_CMPAS_CODE+1,,AUTO
        27 002357   005200 701000 27                 TSX1    PRINT_ITEM
        27 002360   000000 011000                    NOP     0
        27 002361   002374 710000 27                 TRA     s:13111

      394    13106    2             ELSE
      395    13107    2               CALL Z8JW$WALK_TREE ( ID$ -> ILL.ROP, %ROP, PRINT_NDX );

  13107 27 002362   200006 633500                    EPPR3   PRINT_NDX,,AUTO
        27 002363   200100 453500                    STP3    @OP+3,,AUTO
        27 002364   000005 236000 28                 LDQ     5
        27 002365   200077 756100                    STQ     @OP+2,,AUTO
        27 002366   100002 634500                    EPPR4   2,,PR1
        27 002367   200076 454500                    STP4    @OP+1,,AUTO
        27 002370   200076 630500                    EPPR0   @OP+1,,AUTO
        27 002371   000006 631400 28                 EPPR1   6
        27 002372   000000 701000 27                 TSX1    s:8
        27 002373   000000 011000                    NOP     0
PL6.E3A0      #001=Z8JW$WALK_TREE File=Z8JW.:Z8A6TSI                             SAT 08/09/97 13:33 Page:139

      396    13108
      397    13109        /*               Print the current item.                       */
      398    13110
      399    13111    2             CALL PRINT_ITEM ( ID$ ,OP );

  13111 27 002374   200054 630500                    EPPR0   OP,,AUTO
        27 002375   200066 450500                    STP0    @ID$+1,,AUTO
        27 002376   200003 236100                    LDQ     @ID$,,AUTO
        27 002377   200065 756100                    STQ     MVANO_CMPAS_CODE+1,,AUTO
        27 002400   005200 701000 27                 TSX1    PRINT_ITEM
        27 002401   000000 011000                    NOP     0

      400    13112
      401    13113        /*               Expand the LOP of the current item.            */
      402    13114
      403    13115    2             IF ID$ -> ILL.LOP = ADDR(NIL) THEN

  13115 27 002402   200003 470500                    LDP0    @ID$,,AUTO
        27 002403   000000 471500                    LDP1    0,,PR0
        27 002404   100001 236100                    LDQ     1,,PR1
        27 002405   000002 116000 28                 CMPQ    2
        27 002406   002420 601000 27                 TNZ     s:13118

      404    13116    2               CALL PRINT_ITEM ( ADDR(NIL) , %LOP );

  13116 27 002407   000002 236000 28                 LDQ     2
        27 002410   200122 756100                    STQ     @OP+21,,AUTO
        27 002411   000010 236000 28                 LDQ     8
        27 002412   200066 756100                    STQ     @ID$+1,,AUTO
        27 002413   200122 631500                    EPPR1   @OP+21,,AUTO
        27 002414   200065 451500                    STP1    MVANO_CMPAS_CODE+1,,AUTO
        27 002415   005200 701000 27                 TSX1    PRINT_ITEM
        27 002416   000000 011000                    NOP     0
        27 002417   004364 710000 27                 TRA     s:13492

      405    13117    2             ELSE
PL6.E3A0      #001=Z8JW$WALK_TREE File=Z8JW.:Z8A6TSI                             SAT 08/09/97 13:33 Page:140
      406    13118    2               CALL Z8JW$WALK_TREE ( ID$ -> ILL.LOP , %LOP, PRINT_NDX );

  13118 27 002420   200006 633500                    EPPR3   PRINT_NDX,,AUTO
        27 002421   200100 453500                    STP3    @OP+3,,AUTO
        27 002422   000010 236000 28                 LDQ     8
        27 002423   200077 756100                    STQ     @OP+2,,AUTO
        27 002424   100001 634500                    EPPR4   1,,PR1
        27 002425   200076 454500                    STP4    @OP+1,,AUTO
        27 002426   200076 630500                    EPPR0   @OP+1,,AUTO
        27 002427   000006 631400 28                 EPPR1   6
        27 002430   000000 701000 27                 TSX1    s:8
        27 002431   000000 011000                    NOP     0
        27 002432   004364 710000 27                 TRA     s:13492

      407    13119
      408    13120        %EJECT;
PL6.E3A0      #001=Z8JW$WALK_TREE File=Z8JW.:Z8A6TSI                             SAT 08/09/97 13:33 Page:141
      409    13121          /*      Special case MVEAL                                    */
      410    13122
      411    13123    2           CASE ( %MVEAL );

      412    13124
      413    13125    2            IF ID$-> ILL.DESCRIPTOR$ = ADDR(NIL) THEN

  13125 27 002433   100004 236100                    LDQ     4,,PR1
        27 002434   000002 116000 28                 CMPQ    2
        27 002435   002447 601000 27                 TNZ     s:13128

      414    13126    2              CALL PRINT_ITEM( ADDR(NIL), %ROP );

  13126 27 002436   000002 236000 28                 LDQ     2
        27 002437   200123 756100                    STQ     @OP+22,,AUTO
        27 002440   000005 236000 28                 LDQ     5
        27 002441   200066 756100                    STQ     @ID$+1,,AUTO
        27 002442   200123 631500                    EPPR1   @OP+22,,AUTO
        27 002443   200065 451500                    STP1    MVANO_CMPAS_CODE+1,,AUTO
        27 002444   005200 701000 27                 TSX1    PRINT_ITEM
        27 002445   000000 011000                    NOP     0
        27 002446   002461 710000 27                 TRA     s:13130

      415    13127    2            ELSE
      416    13128    2              CALL Z8JW$WALK_TREE( ID$-> ILL.DESCRIPTOR$, %ROP, PRINT_NDX );

  13128 27 002447   200006 633500                    EPPR3   PRINT_NDX,,AUTO
        27 002450   200100 453500                    STP3    @OP+3,,AUTO
        27 002451   000005 236000 28                 LDQ     5
        27 002452   200077 756100                    STQ     @OP+2,,AUTO
        27 002453   100004 634500                    EPPR4   4,,PR1
        27 002454   200076 454500                    STP4    @OP+1,,AUTO
        27 002455   200076 630500                    EPPR0   @OP+1,,AUTO
        27 002456   000006 631400 28                 EPPR1   6
        27 002457   000000 701000 27                 TSX1    s:8
        27 002460   000000 011000                    NOP     0

PL6.E3A0      #001=Z8JW$WALK_TREE File=Z8JW.:Z8A6TSI                             SAT 08/09/97 13:33 Page:142
      417    13129
      418    13130    2            IF ID$ -> ILL.TO_ = ADDR(NIL) THEN

  13130 27 002461   200003 470500                    LDP0    @ID$,,AUTO
        27 002462   000000 471500                    LDP1    0,,PR0
        27 002463   100003 236100                    LDQ     3,,PR1
        27 002464   000002 116000 28                 CMPQ    2
        27 002465   002477 601000 27                 TNZ     s:13133

      419    13131    2               CALL PRINT_ITEM ( ADDR(NIL), %ROP );

  13131 27 002466   000002 236000 28                 LDQ     2
        27 002467   200124 756100                    STQ     @OP+23,,AUTO
        27 002470   000005 236000 28                 LDQ     5
        27 002471   200066 756100                    STQ     @ID$+1,,AUTO
        27 002472   200124 631500                    EPPR1   @OP+23,,AUTO
        27 002473   200065 451500                    STP1    MVANO_CMPAS_CODE+1,,AUTO
        27 002474   005200 701000 27                 TSX1    PRINT_ITEM
        27 002475   000000 011000                    NOP     0
        27 002476   002511 710000 27                 TRA     s:13137

      420    13132    2             ELSE
      421    13133    2               CALL Z8JW$WALK_TREE ( ID$ -> ILL.TO_, %ROP, PRINT_NDX );

  13133 27 002477   200006 633500                    EPPR3   PRINT_NDX,,AUTO
        27 002500   200100 453500                    STP3    @OP+3,,AUTO
        27 002501   000005 236000 28                 LDQ     5
        27 002502   200077 756100                    STQ     @OP+2,,AUTO
        27 002503   100003 634500                    EPPR4   3,,PR1
        27 002504   200076 454500                    STP4    @OP+1,,AUTO
        27 002505   200076 630500                    EPPR0   @OP+1,,AUTO
        27 002506   000006 631400 28                 EPPR1   6
        27 002507   000000 701000 27                 TSX1    s:8
        27 002510   000000 011000                    NOP     0

      422    13134
      423    13135        /*              Expand the ROP of the current item.             */
PL6.E3A0      #001=Z8JW$WALK_TREE File=Z8JW.:Z8A6TSI                             SAT 08/09/97 13:33 Page:143
      424    13136
      425    13137    2             IF ID$ -> ILL.ROP  = ADDR(NIL) THEN

  13137 27 002511   200003 470500                    LDP0    @ID$,,AUTO
        27 002512   000000 471500                    LDP1    0,,PR0
        27 002513   100002 236100                    LDQ     2,,PR1
        27 002514   000002 116000 28                 CMPQ    2
        27 002515   002527 601000 27                 TNZ     s:13140

      426    13138    2               CALL PRINT_ITEM ( ADDR(NIL), %ROP );

  13138 27 002516   000002 236000 28                 LDQ     2
        27 002517   200125 756100                    STQ     @OP+24,,AUTO
        27 002520   000005 236000 28                 LDQ     5
        27 002521   200066 756100                    STQ     @ID$+1,,AUTO
        27 002522   200125 631500                    EPPR1   @OP+24,,AUTO
        27 002523   200065 451500                    STP1    MVANO_CMPAS_CODE+1,,AUTO
        27 002524   005200 701000 27                 TSX1    PRINT_ITEM
        27 002525   000000 011000                    NOP     0
        27 002526   002541 710000 27                 TRA     s:13144

      427    13139    2             ELSE
      428    13140    2               CALL Z8JW$WALK_TREE ( ID$ -> ILL.ROP, %ROP, PRINT_NDX );

  13140 27 002527   200006 633500                    EPPR3   PRINT_NDX,,AUTO
        27 002530   200100 453500                    STP3    @OP+3,,AUTO
        27 002531   000005 236000 28                 LDQ     5
        27 002532   200077 756100                    STQ     @OP+2,,AUTO
        27 002533   100002 634500                    EPPR4   2,,PR1
        27 002534   200076 454500                    STP4    @OP+1,,AUTO
        27 002535   200076 630500                    EPPR0   @OP+1,,AUTO
        27 002536   000006 631400 28                 EPPR1   6
        27 002537   000000 701000 27                 TSX1    s:8
        27 002540   000000 011000                    NOP     0

      429    13141
      430    13142        /*               Print the current item.                       */
PL6.E3A0      #001=Z8JW$WALK_TREE File=Z8JW.:Z8A6TSI                             SAT 08/09/97 13:33 Page:144
      431    13143
      432    13144    2             CALL PRINT_ITEM ( ID$ ,OP );

  13144 27 002541   200054 630500                    EPPR0   OP,,AUTO
        27 002542   200066 450500                    STP0    @ID$+1,,AUTO
        27 002543   200003 236100                    LDQ     @ID$,,AUTO
        27 002544   200065 756100                    STQ     MVANO_CMPAS_CODE+1,,AUTO
        27 002545   005200 701000 27                 TSX1    PRINT_ITEM
        27 002546   000000 011000                    NOP     0

      433    13145
      434    13146        /*               Expand the LOP of the current item.            */
      435    13147
      436    13148    2             IF ID$ -> ILL.LOP = ADDR(NIL) THEN

  13148 27 002547   200003 470500                    LDP0    @ID$,,AUTO
        27 002550   000000 471500                    LDP1    0,,PR0
        27 002551   100001 236100                    LDQ     1,,PR1
        27 002552   000002 116000 28                 CMPQ    2
        27 002553   002565 601000 27                 TNZ     s:13151

      437    13149    2               CALL PRINT_ITEM ( ADDR(NIL) , %LOP );

  13149 27 002554   000002 236000 28                 LDQ     2
        27 002555   200126 756100                    STQ     @OP+25,,AUTO
        27 002556   000010 236000 28                 LDQ     8
        27 002557   200066 756100                    STQ     @ID$+1,,AUTO
        27 002560   200126 631500                    EPPR1   @OP+25,,AUTO
        27 002561   200065 451500                    STP1    MVANO_CMPAS_CODE+1,,AUTO
        27 002562   005200 701000 27                 TSX1    PRINT_ITEM
        27 002563   000000 011000                    NOP     0
        27 002564   004364 710000 27                 TRA     s:13492

      438    13150    2             ELSE
      439    13151    2               CALL Z8JW$WALK_TREE ( ID$ -> ILL.LOP , %LOP, PRINT_NDX );

  13151 27 002565   200006 633500                    EPPR3   PRINT_NDX,,AUTO
PL6.E3A0      #001=Z8JW$WALK_TREE File=Z8JW.:Z8A6TSI                             SAT 08/09/97 13:33 Page:145
        27 002566   200100 453500                    STP3    @OP+3,,AUTO
        27 002567   000010 236000 28                 LDQ     8
        27 002570   200077 756100                    STQ     @OP+2,,AUTO
        27 002571   100001 634500                    EPPR4   1,,PR1
        27 002572   200076 454500                    STP4    @OP+1,,AUTO
        27 002573   200076 630500                    EPPR0   @OP+1,,AUTO
        27 002574   000006 631400 28                 EPPR1   6
        27 002575   000000 701000 27                 TSX1    s:8
        27 002576   000000 011000                    NOP     0
        27 002577   004364 710000 27                 TRA     s:13492

      440    13152
      441    13153        %EJECT;
PL6.E3A0      #001=Z8JW$WALK_TREE File=Z8JW.:Z8A6TSI                             SAT 08/09/97 13:33 Page:146
      442    13154          /*      Items with FOUR operands: ROP, LOP, TO_, REMAINDER     */
      443    13155
      444    13156    2           CASE ( %DV4I );

      445    13157    2             IF ID$ -> ILL.REMAINDER  = ADDR(NIL) THEN

  13157 27 002600   100004 236100                    LDQ     4,,PR1
        27 002601   000002 116000 28                 CMPQ    2
        27 002602   002614 601000 27                 TNZ     s:13160

      446    13158    2               CALL PRINT_ITEM ( ADDR(NIL), %ROP );

  13158 27 002603   000002 236000 28                 LDQ     2
        27 002604   200127 756100                    STQ     @OP+26,,AUTO
        27 002605   000005 236000 28                 LDQ     5
        27 002606   200066 756100                    STQ     @ID$+1,,AUTO
        27 002607   200127 631500                    EPPR1   @OP+26,,AUTO
        27 002610   200065 451500                    STP1    MVANO_CMPAS_CODE+1,,AUTO
        27 002611   005200 701000 27                 TSX1    PRINT_ITEM
        27 002612   000000 011000                    NOP     0
        27 002613   002626 710000 27                 TRA     s:13162

      447    13159    2             ELSE
      448    13160    2               CALL Z8JW$WALK_TREE ( ID$ -> ILL.REMAINDER, %ROP, PRINT_NDX );

  13160 27 002614   200006 633500                    EPPR3   PRINT_NDX,,AUTO
        27 002615   200100 453500                    STP3    @OP+3,,AUTO
        27 002616   000005 236000 28                 LDQ     5
        27 002617   200077 756100                    STQ     @OP+2,,AUTO
        27 002620   100004 634500                    EPPR4   4,,PR1
        27 002621   200076 454500                    STP4    @OP+1,,AUTO
        27 002622   200076 630500                    EPPR0   @OP+1,,AUTO
        27 002623   000006 631400 28                 EPPR1   6
        27 002624   000000 701000 27                 TSX1    s:8
        27 002625   000000 011000                    NOP     0

      449    13161
PL6.E3A0      #001=Z8JW$WALK_TREE File=Z8JW.:Z8A6TSI                             SAT 08/09/97 13:33 Page:147
      450    13162    2            IF ID$ -> ILL.TO_ = ADDR(NIL) THEN

  13162 27 002626   200003 470500                    LDP0    @ID$,,AUTO
        27 002627   000000 471500                    LDP1    0,,PR0
        27 002630   100003 236100                    LDQ     3,,PR1
        27 002631   000002 116000 28                 CMPQ    2
        27 002632   002644 601000 27                 TNZ     s:13165

      451    13163    2               CALL PRINT_ITEM ( ADDR(NIL), %ROP );

  13163 27 002633   000002 236000 28                 LDQ     2
        27 002634   200130 756100                    STQ     @OP+27,,AUTO
        27 002635   000005 236000 28                 LDQ     5
        27 002636   200066 756100                    STQ     @ID$+1,,AUTO
        27 002637   200130 631500                    EPPR1   @OP+27,,AUTO
        27 002640   200065 451500                    STP1    MVANO_CMPAS_CODE+1,,AUTO
        27 002641   005200 701000 27                 TSX1    PRINT_ITEM
        27 002642   000000 011000                    NOP     0
        27 002643   002656 710000 27                 TRA     s:13169

      452    13164    2             ELSE
      453    13165    2               CALL Z8JW$WALK_TREE ( ID$ -> ILL.TO_, %ROP, PRINT_NDX );

  13165 27 002644   200006 633500                    EPPR3   PRINT_NDX,,AUTO
        27 002645   200100 453500                    STP3    @OP+3,,AUTO
        27 002646   000005 236000 28                 LDQ     5
        27 002647   200077 756100                    STQ     @OP+2,,AUTO
        27 002650   100003 634500                    EPPR4   3,,PR1
        27 002651   200076 454500                    STP4    @OP+1,,AUTO
        27 002652   200076 630500                    EPPR0   @OP+1,,AUTO
        27 002653   000006 631400 28                 EPPR1   6
        27 002654   000000 701000 27                 TSX1    s:8
        27 002655   000000 011000                    NOP     0

      454    13166
      455    13167        /*              Expand the ROP of the current item.             */
      456    13168
PL6.E3A0      #001=Z8JW$WALK_TREE File=Z8JW.:Z8A6TSI                             SAT 08/09/97 13:33 Page:148
      457    13169    2             IF ID$ -> ILL.ROP  = ADDR(NIL) THEN

  13169 27 002656   200003 470500                    LDP0    @ID$,,AUTO
        27 002657   000000 471500                    LDP1    0,,PR0
        27 002660   100002 236100                    LDQ     2,,PR1
        27 002661   000002 116000 28                 CMPQ    2
        27 002662   002674 601000 27                 TNZ     s:13172

      458    13170    2               CALL PRINT_ITEM ( ADDR(NIL), %ROP );

  13170 27 002663   000002 236000 28                 LDQ     2
        27 002664   200131 756100                    STQ     @OP+28,,AUTO
        27 002665   000005 236000 28                 LDQ     5
        27 002666   200066 756100                    STQ     @ID$+1,,AUTO
        27 002667   200131 631500                    EPPR1   @OP+28,,AUTO
        27 002670   200065 451500                    STP1    MVANO_CMPAS_CODE+1,,AUTO
        27 002671   005200 701000 27                 TSX1    PRINT_ITEM
        27 002672   000000 011000                    NOP     0
        27 002673   002706 710000 27                 TRA     s:13176

      459    13171    2             ELSE
      460    13172    2               CALL Z8JW$WALK_TREE ( ID$ -> ILL.ROP, %ROP, PRINT_NDX );

  13172 27 002674   200006 633500                    EPPR3   PRINT_NDX,,AUTO
        27 002675   200100 453500                    STP3    @OP+3,,AUTO
        27 002676   000005 236000 28                 LDQ     5
        27 002677   200077 756100                    STQ     @OP+2,,AUTO
        27 002700   100002 634500                    EPPR4   2,,PR1
        27 002701   200076 454500                    STP4    @OP+1,,AUTO
        27 002702   200076 630500                    EPPR0   @OP+1,,AUTO
        27 002703   000006 631400 28                 EPPR1   6
        27 002704   000000 701000 27                 TSX1    s:8
        27 002705   000000 011000                    NOP     0

      461    13173
      462    13174        /*               Print the current item.                       */
      463    13175
PL6.E3A0      #001=Z8JW$WALK_TREE File=Z8JW.:Z8A6TSI                             SAT 08/09/97 13:33 Page:149
      464    13176    2             CALL PRINT_ITEM ( ID$ ,OP );

  13176 27 002706   200054 630500                    EPPR0   OP,,AUTO
        27 002707   200066 450500                    STP0    @ID$+1,,AUTO
        27 002710   200003 236100                    LDQ     @ID$,,AUTO
        27 002711   200065 756100                    STQ     MVANO_CMPAS_CODE+1,,AUTO
        27 002712   005200 701000 27                 TSX1    PRINT_ITEM
        27 002713   000000 011000                    NOP     0

      465    13177
      466    13178        /*               Expand the LOP of the current item.            */
      467    13179
      468    13180    2             IF ID$ -> ILL.LOP = ADDR(NIL) THEN

  13180 27 002714   200003 470500                    LDP0    @ID$,,AUTO
        27 002715   000000 471500                    LDP1    0,,PR0
        27 002716   100001 236100                    LDQ     1,,PR1
        27 002717   000002 116000 28                 CMPQ    2
        27 002720   002732 601000 27                 TNZ     s:13183

      469    13181    2               CALL PRINT_ITEM ( ADDR(NIL) , %LOP );

  13181 27 002721   000002 236000 28                 LDQ     2
        27 002722   200132 756100                    STQ     @OP+29,,AUTO
        27 002723   000010 236000 28                 LDQ     8
        27 002724   200066 756100                    STQ     @ID$+1,,AUTO
        27 002725   200132 631500                    EPPR1   @OP+29,,AUTO
        27 002726   200065 451500                    STP1    MVANO_CMPAS_CODE+1,,AUTO
        27 002727   005200 701000 27                 TSX1    PRINT_ITEM
        27 002730   000000 011000                    NOP     0
        27 002731   004364 710000 27                 TRA     s:13492

      470    13182    2             ELSE
      471    13183    2               CALL Z8JW$WALK_TREE ( ID$ -> ILL.LOP , %LOP, PRINT_NDX );

  13183 27 002732   200006 633500                    EPPR3   PRINT_NDX,,AUTO
        27 002733   200100 453500                    STP3    @OP+3,,AUTO
PL6.E3A0      #001=Z8JW$WALK_TREE File=Z8JW.:Z8A6TSI                             SAT 08/09/97 13:33 Page:150
        27 002734   000010 236000 28                 LDQ     8
        27 002735   200077 756100                    STQ     @OP+2,,AUTO
        27 002736   100001 634500                    EPPR4   1,,PR1
        27 002737   200076 454500                    STP4    @OP+1,,AUTO
        27 002740   200076 630500                    EPPR0   @OP+1,,AUTO
        27 002741   000006 631400 28                 EPPR1   6
        27 002742   000000 701000 27                 TSX1    s:8
        27 002743   000000 011000                    NOP     0
        27 002744   004364 710000 27                 TRA     s:13492

      472    13184
      473    13185
      474    13186        %EJECT;
PL6.E3A0      #001=Z8JW$WALK_TREE File=Z8JW.:Z8A6TSI                             SAT 08/09/97 13:33 Page:151
      475    13187        /*    Items with FIVE operands: ROP, LOP, TO_, TABLEVAL, ALTRET_ */
      476    13188
      477    13189    2           CASE ( %SEARCH );

      478    13190
      479    13191        /*                 Expand ALTRET_ if present                       */
      480    13192
      481    13193    2             IF ID$-> SEARCH_.ALTRET_ = ADDR(NIL) THEN

  13193 27 002745   100005 236100                    LDQ     5,,PR1
        27 002746   000002 116000 28                 CMPQ    2
        27 002747   002761 601000 27                 TNZ     s:13196

      482    13194    2               CALL PRINT_ITEM ( ADDR(NIL), %ROP );

  13194 27 002750   000002 236000 28                 LDQ     2
        27 002751   200133 756100                    STQ     @OP+30,,AUTO
        27 002752   000005 236000 28                 LDQ     5
        27 002753   200066 756100                    STQ     @ID$+1,,AUTO
        27 002754   200133 631500                    EPPR1   @OP+30,,AUTO
        27 002755   200065 451500                    STP1    MVANO_CMPAS_CODE+1,,AUTO
        27 002756   005200 701000 27                 TSX1    PRINT_ITEM
        27 002757   000000 011000                    NOP     0
        27 002760   002773 710000 27                 TRA     s:13200

      483    13195    2             ELSE
      484    13196    2               CALL Z8JW$WALK_TREE ( ID$-> SEARCH_.ALTRET_, %ROP, PRINT_NDX );

  13196 27 002761   200006 633500                    EPPR3   PRINT_NDX,,AUTO
        27 002762   200100 453500                    STP3    @OP+3,,AUTO
        27 002763   000005 236000 28                 LDQ     5
        27 002764   200077 756100                    STQ     @OP+2,,AUTO
        27 002765   100005 634500                    EPPR4   5,,PR1
        27 002766   200076 454500                    STP4    @OP+1,,AUTO
        27 002767   200076 630500                    EPPR0   @OP+1,,AUTO
        27 002770   000006 631400 28                 EPPR1   6
        27 002771   000000 701000 27                 TSX1    s:8
PL6.E3A0      #001=Z8JW$WALK_TREE File=Z8JW.:Z8A6TSI                             SAT 08/09/97 13:33 Page:152
        27 002772   000000 011000                    NOP     0

      485    13197
      486    13198        /*                 Expand TABLEVAL if present                      */
      487    13199
      488    13200    2             IF ID$-> SEARCH_.TABLEVAL = ADDR(NIL) THEN

  13200 27 002773   200003 470500                    LDP0    @ID$,,AUTO
        27 002774   000000 471500                    LDP1    0,,PR0
        27 002775   100004 236100                    LDQ     4,,PR1
        27 002776   000002 116000 28                 CMPQ    2
        27 002777   003011 601000 27                 TNZ     s:13203

      489    13201    2               CALL PRINT_ITEM( ADDR(NIL), %ROP );

  13201 27 003000   000002 236000 28                 LDQ     2
        27 003001   200134 756100                    STQ     @OP+31,,AUTO
        27 003002   000005 236000 28                 LDQ     5
        27 003003   200066 756100                    STQ     @ID$+1,,AUTO
        27 003004   200134 631500                    EPPR1   @OP+31,,AUTO
        27 003005   200065 451500                    STP1    MVANO_CMPAS_CODE+1,,AUTO
        27 003006   005200 701000 27                 TSX1    PRINT_ITEM
        27 003007   000000 011000                    NOP     0
        27 003010   003023 710000 27                 TRA     s:13207

      490    13202    2             ELSE
      491    13203    2               CALL Z8JW$WALK_TREE ( ID$-> SEARCH_.TABLEVAL, %ROP, PRINT_NDX );

  13203 27 003011   200006 633500                    EPPR3   PRINT_NDX,,AUTO
        27 003012   200100 453500                    STP3    @OP+3,,AUTO
        27 003013   000005 236000 28                 LDQ     5
        27 003014   200077 756100                    STQ     @OP+2,,AUTO
        27 003015   100004 634500                    EPPR4   4,,PR1
        27 003016   200076 454500                    STP4    @OP+1,,AUTO
        27 003017   200076 630500                    EPPR0   @OP+1,,AUTO
        27 003020   000006 631400 28                 EPPR1   6
        27 003021   000000 701000 27                 TSX1    s:8
PL6.E3A0      #001=Z8JW$WALK_TREE File=Z8JW.:Z8A6TSI                             SAT 08/09/97 13:33 Page:153
        27 003022   000000 011000                    NOP     0

      492    13204
      493    13205        /*                 Expand  TO_ if present                          */
      494    13206
      495    13207    2             IF ID$ -> ILL.TO_ = ADDR(NIL) THEN

  13207 27 003023   200003 470500                    LDP0    @ID$,,AUTO
        27 003024   000000 471500                    LDP1    0,,PR0
        27 003025   100003 236100                    LDQ     3,,PR1
        27 003026   000002 116000 28                 CMPQ    2
        27 003027   003041 601000 27                 TNZ     s:13210

      496    13208    2               CALL PRINT_ITEM ( ADDR(NIL), %ROP );

  13208 27 003030   000002 236000 28                 LDQ     2
        27 003031   200135 756100                    STQ     @OP+32,,AUTO
        27 003032   000005 236000 28                 LDQ     5
        27 003033   200066 756100                    STQ     @ID$+1,,AUTO
        27 003034   200135 631500                    EPPR1   @OP+32,,AUTO
        27 003035   200065 451500                    STP1    MVANO_CMPAS_CODE+1,,AUTO
        27 003036   005200 701000 27                 TSX1    PRINT_ITEM
        27 003037   000000 011000                    NOP     0
        27 003040   003053 710000 27                 TRA     s:13214

      497    13209    2             ELSE
      498    13210    2               CALL Z8JW$WALK_TREE ( ID$ -> ILL.TO_, %ROP, PRINT_NDX );

  13210 27 003041   200006 633500                    EPPR3   PRINT_NDX,,AUTO
        27 003042   200100 453500                    STP3    @OP+3,,AUTO
        27 003043   000005 236000 28                 LDQ     5
        27 003044   200077 756100                    STQ     @OP+2,,AUTO
        27 003045   100003 634500                    EPPR4   3,,PR1
        27 003046   200076 454500                    STP4    @OP+1,,AUTO
        27 003047   200076 630500                    EPPR0   @OP+1,,AUTO
        27 003050   000006 631400 28                 EPPR1   6
        27 003051   000000 701000 27                 TSX1    s:8
PL6.E3A0      #001=Z8JW$WALK_TREE File=Z8JW.:Z8A6TSI                             SAT 08/09/97 13:33 Page:154
        27 003052   000000 011000                    NOP     0

      499    13211
      500    13212        /*              Expand the ROP of the current item.             */
      501    13213
      502    13214    2             IF ID$ -> ILL.ROP  = ADDR(NIL) THEN

  13214 27 003053   200003 470500                    LDP0    @ID$,,AUTO
        27 003054   000000 471500                    LDP1    0,,PR0
        27 003055   100002 236100                    LDQ     2,,PR1
        27 003056   000002 116000 28                 CMPQ    2
        27 003057   003071 601000 27                 TNZ     s:13217

      503    13215    2               CALL PRINT_ITEM ( ADDR(NIL), %ROP );

  13215 27 003060   000002 236000 28                 LDQ     2
        27 003061   200136 756100                    STQ     @OP+33,,AUTO
        27 003062   000005 236000 28                 LDQ     5
        27 003063   200066 756100                    STQ     @ID$+1,,AUTO
        27 003064   200136 631500                    EPPR1   @OP+33,,AUTO
        27 003065   200065 451500                    STP1    MVANO_CMPAS_CODE+1,,AUTO
        27 003066   005200 701000 27                 TSX1    PRINT_ITEM
        27 003067   000000 011000                    NOP     0
        27 003070   003103 710000 27                 TRA     s:13221

      504    13216    2             ELSE
      505    13217    2               CALL Z8JW$WALK_TREE ( ID$ -> ILL.ROP, %ROP, PRINT_NDX );

  13217 27 003071   200006 633500                    EPPR3   PRINT_NDX,,AUTO
        27 003072   200100 453500                    STP3    @OP+3,,AUTO
        27 003073   000005 236000 28                 LDQ     5
        27 003074   200077 756100                    STQ     @OP+2,,AUTO
        27 003075   100002 634500                    EPPR4   2,,PR1
        27 003076   200076 454500                    STP4    @OP+1,,AUTO
        27 003077   200076 630500                    EPPR0   @OP+1,,AUTO
        27 003100   000006 631400 28                 EPPR1   6
        27 003101   000000 701000 27                 TSX1    s:8
PL6.E3A0      #001=Z8JW$WALK_TREE File=Z8JW.:Z8A6TSI                             SAT 08/09/97 13:33 Page:155
        27 003102   000000 011000                    NOP     0

      506    13218
      507    13219        /*               Print the current item.                       */
      508    13220
      509    13221    2             CALL PRINT_ITEM ( ID$ ,OP );

  13221 27 003103   200054 630500                    EPPR0   OP,,AUTO
        27 003104   200066 450500                    STP0    @ID$+1,,AUTO
        27 003105   200003 236100                    LDQ     @ID$,,AUTO
        27 003106   200065 756100                    STQ     MVANO_CMPAS_CODE+1,,AUTO
        27 003107   005200 701000 27                 TSX1    PRINT_ITEM
        27 003110   000000 011000                    NOP     0

      510    13222
      511    13223        /*               Expand the LOP of the current item.            */
      512    13224
      513    13225    2             IF ID$ -> ILL.LOP = ADDR(NIL) THEN

  13225 27 003111   200003 470500                    LDP0    @ID$,,AUTO
        27 003112   000000 471500                    LDP1    0,,PR0
        27 003113   100001 236100                    LDQ     1,,PR1
        27 003114   000002 116000 28                 CMPQ    2
        27 003115   003127 601000 27                 TNZ     s:13228

      514    13226    2               CALL PRINT_ITEM ( ADDR(NIL) , %LOP );

  13226 27 003116   000002 236000 28                 LDQ     2
        27 003117   200137 756100                    STQ     @OP+34,,AUTO
        27 003120   000010 236000 28                 LDQ     8
        27 003121   200066 756100                    STQ     @ID$+1,,AUTO
        27 003122   200137 631500                    EPPR1   @OP+34,,AUTO
        27 003123   200065 451500                    STP1    MVANO_CMPAS_CODE+1,,AUTO
        27 003124   005200 701000 27                 TSX1    PRINT_ITEM
        27 003125   000000 011000                    NOP     0
        27 003126   004364 710000 27                 TRA     s:13492

PL6.E3A0      #001=Z8JW$WALK_TREE File=Z8JW.:Z8A6TSI                             SAT 08/09/97 13:33 Page:156
      515    13227    2             ELSE
      516    13228    2               CALL Z8JW$WALK_TREE ( ID$ -> ILL.LOP , %LOP, PRINT_NDX );

  13228 27 003127   200006 633500                    EPPR3   PRINT_NDX,,AUTO
        27 003130   200100 453500                    STP3    @OP+3,,AUTO
        27 003131   000010 236000 28                 LDQ     8
        27 003132   200077 756100                    STQ     @OP+2,,AUTO
        27 003133   100001 634500                    EPPR4   1,,PR1
        27 003134   200076 454500                    STP4    @OP+1,,AUTO
        27 003135   200076 630500                    EPPR0   @OP+1,,AUTO
        27 003136   000006 631400 28                 EPPR1   6
        27 003137   000000 701000 27                 TSX1    s:8
        27 003140   000000 011000                    NOP     0
        27 003141   004364 710000 27                 TRA     s:13492

      517    13229
      518    13230        %EJECT;
PL6.E3A0      #001=Z8JW$WALK_TREE File=Z8JW.:Z8A6TSI                             SAT 08/09/97 13:33 Page:157
      519    13231          /*      Items with ONE operand: LOP                            */
      520    13232    2           CASE ( %DEFLB, %MFILL, %ON_SWITCH, %OFF_SWITCH, %SUB_PREP,

      521    13233    2                  %WHEN, %FISS, %OFF, %DAN, %DNA, %ASC_BIN, %BIN_ASC, %D96,
      522    13234    2                  %DESC, %MPD10, %TRIAD, %ARGP, %ESC, %CVIK, %CFILLR,
      523    13235    2                  %CFILL, %CVDDD, %CVIH, %CVID9, %CVDSF, %RNDQ, %GO_SUB,
      524    13236    2                  %MPI2, %USQ, %USD, %USI, %USR, %CVDO, %CVII, %CVDD, %STP2, %CVDF,
      525    13237    2                  %RNDD, %CVRR, %RNDR, %TRN, %DVI2, %CVT, %CVAA, %EXIT_PROG,
      526    13238    2                  %CV49, %CVID4, %CVOD4, %CVRD4, %CVQD4, %CVDI, %SHIFT_L,
      527    13239    2                  %CVRI, %CVQI, %CVDRR, %CVIR, %CVQR, %CVDQR, %SHIFT_R,
      528    13240    2                  %CVIQ, %CVRQ, %CVIJ, %CVOD9, %CVQD9, %CVRD9, %VAL, %RNDO, %ADDR );
      529    13241
      530    13242    2             IF ID$ -> ILL.ID <= %LAST_ETT THEN

  13242 27 003142   000202 100003                    CMPX0   130,DU
        27 003143   003153 603000 27                 TRC     s:13245

      531    13243    2               CALL PRINT_DATA ( ID$, %ROP);

  13243 27 003144   000005 236000 28                 LDQ     5
        27 003145   200062 756100                    STQ     @ID$+1,,AUTO
        27 003146   200003 236100                    LDQ     @ID$,,AUTO
        27 003147   200061 756100                    STQ     ARGS#+3,,AUTO
        27 003150   005505 701000 27                 TSX1    PRINT_DATA
        27 003151   000000 011000                    NOP     0
        27 003152   003163 710000 27                 TRA     s:13249

      532    13244    2             ELSE
      533    13245    2               CALL PRINT_ITEM ( ADDR(NIL), %ROP);

  13245 27 003153   000002 236000 28                 LDQ     2
        27 003154   200140 756100                    STQ     @OP+35,,AUTO
        27 003155   000005 236000 28                 LDQ     5
        27 003156   200066 756100                    STQ     @ID$+1,,AUTO
        27 003157   200140 631500                    EPPR1   @OP+35,,AUTO
        27 003160   200065 451500                    STP1    MVANO_CMPAS_CODE+1,,AUTO
        27 003161   005200 701000 27                 TSX1    PRINT_ITEM
PL6.E3A0      #001=Z8JW$WALK_TREE File=Z8JW.:Z8A6TSI                             SAT 08/09/97 13:33 Page:158
        27 003162   000000 011000                    NOP     0

      534    13246
      535    13247        /*               Print the current item.                       */
      536    13248
      537    13249    2             CALL PRINT_ITEM ( ID$ ,OP );

  13249 27 003163   200054 630500                    EPPR0   OP,,AUTO
        27 003164   200066 450500                    STP0    @ID$+1,,AUTO
        27 003165   200003 236100                    LDQ     @ID$,,AUTO
        27 003166   200065 756100                    STQ     MVANO_CMPAS_CODE+1,,AUTO
        27 003167   005200 701000 27                 TSX1    PRINT_ITEM
        27 003170   000000 011000                    NOP     0

      538    13250
      539    13251        /*               Expand the LOP of the current item.            */
      540    13252
      541    13253    2             IF ID$ -> ILL.LOP = ADDR(NIL) THEN

  13253 27 003171   200003 470500                    LDP0    @ID$,,AUTO
        27 003172   000000 471500                    LDP1    0,,PR0
        27 003173   100001 236100                    LDQ     1,,PR1
        27 003174   000002 116000 28                 CMPQ    2
        27 003175   003207 601000 27                 TNZ     s:13256

      542    13254    2               CALL PRINT_ITEM ( ADDR(NIL) , %LOP );

  13254 27 003176   000002 236000 28                 LDQ     2
        27 003177   200141 756100                    STQ     @OP+36,,AUTO
        27 003200   000010 236000 28                 LDQ     8
        27 003201   200066 756100                    STQ     @ID$+1,,AUTO
        27 003202   200141 631500                    EPPR1   @OP+36,,AUTO
        27 003203   200065 451500                    STP1    MVANO_CMPAS_CODE+1,,AUTO
        27 003204   005200 701000 27                 TSX1    PRINT_ITEM
        27 003205   000000 011000                    NOP     0
        27 003206   004364 710000 27                 TRA     s:13492

PL6.E3A0      #001=Z8JW$WALK_TREE File=Z8JW.:Z8A6TSI                             SAT 08/09/97 13:33 Page:159
      543    13255    2             ELSE
      544    13256    2               CALL Z8JW$WALK_TREE ( ID$ -> ILL.LOP , %LOP, PRINT_NDX );

  13256 27 003207   200006 633500                    EPPR3   PRINT_NDX,,AUTO
        27 003210   200100 453500                    STP3    @OP+3,,AUTO
        27 003211   000010 236000 28                 LDQ     8
        27 003212   200077 756100                    STQ     @OP+2,,AUTO
        27 003213   100001 634500                    EPPR4   1,,PR1
        27 003214   200076 454500                    STP4    @OP+1,,AUTO
        27 003215   200076 630500                    EPPR0   @OP+1,,AUTO
        27 003216   000006 631400 28                 EPPR1   6
        27 003217   000000 701000 27                 TSX1    s:8
        27 003220   000000 011000                    NOP     0
        27 003221   004364 710000 27                 TRA     s:13492

      545    13257
      546    13258        %EJECT;
PL6.E3A0      #001=Z8JW$WALK_TREE File=Z8JW.:Z8A6TSI                             SAT 08/09/97 13:33 Page:160
      547    13259          /*      Items with TWO operands: LOP & ROPCON -- data           */
      548    13260    2           CASE ( %PINC );

      549    13261
      550    13262    2             CALL PRINT_DATA ( ID$, %ROP);

  13262 27 003222   000005 236000 28                 LDQ     5
        27 003223   200062 756100                    STQ     @ID$+1,,AUTO
        27 003224   200003 236100                    LDQ     @ID$,,AUTO
        27 003225   200061 756100                    STQ     ARGS#+3,,AUTO
        27 003226   005505 701000 27                 TSX1    PRINT_DATA
        27 003227   000000 011000                    NOP     0

      551    13263
      552    13264        /*               Print the current item.                       */
      553    13265
      554    13266    2             CALL PRINT_ITEM ( ID$ ,OP );

  13266 27 003230   200054 630500                    EPPR0   OP,,AUTO
        27 003231   200066 450500                    STP0    @ID$+1,,AUTO
        27 003232   200003 236100                    LDQ     @ID$,,AUTO
        27 003233   200065 756100                    STQ     MVANO_CMPAS_CODE+1,,AUTO
        27 003234   005200 701000 27                 TSX1    PRINT_ITEM
        27 003235   000000 011000                    NOP     0

      555    13267
      556    13268        /*               Expand the LOP of the current item.            */
      557    13269
      558    13270    2             IF ID$ -> ILL.LOP = ADDR(NIL) THEN

  13270 27 003236   200003 470500                    LDP0    @ID$,,AUTO
        27 003237   000000 471500                    LDP1    0,,PR0
        27 003240   100001 236100                    LDQ     1,,PR1
        27 003241   000002 116000 28                 CMPQ    2
        27 003242   003254 601000 27                 TNZ     s:13273

      559    13271    2               CALL PRINT_ITEM ( ADDR(NIL) , %LOP );
PL6.E3A0      #001=Z8JW$WALK_TREE File=Z8JW.:Z8A6TSI                             SAT 08/09/97 13:33 Page:161

  13271 27 003243   000002 236000 28                 LDQ     2
        27 003244   200142 756100                    STQ     @OP+37,,AUTO
        27 003245   000010 236000 28                 LDQ     8
        27 003246   200066 756100                    STQ     @ID$+1,,AUTO
        27 003247   200142 631500                    EPPR1   @OP+37,,AUTO
        27 003250   200065 451500                    STP1    MVANO_CMPAS_CODE+1,,AUTO
        27 003251   005200 701000 27                 TSX1    PRINT_ITEM
        27 003252   000000 011000                    NOP     0
        27 003253   004364 710000 27                 TRA     s:13492

      560    13272    2             ELSE
      561    13273    2               CALL Z8JW$WALK_TREE ( ID$ -> ILL.LOP , %LOP, PRINT_NDX );

  13273 27 003254   200006 633500                    EPPR3   PRINT_NDX,,AUTO
        27 003255   200100 453500                    STP3    @OP+3,,AUTO
        27 003256   000010 236000 28                 LDQ     8
        27 003257   200077 756100                    STQ     @OP+2,,AUTO
        27 003260   100001 634500                    EPPR4   1,,PR1
        27 003261   200076 454500                    STP4    @OP+1,,AUTO
        27 003262   200076 630500                    EPPR0   @OP+1,,AUTO
        27 003263   000006 631400 28                 EPPR1   6
        27 003264   000000 701000 27                 TSX1    s:8
        27 003265   000000 011000                    NOP     0
        27 003266   004364 710000 27                 TRA     s:13492

      562    13274
      563    13275        %EJECT;
PL6.E3A0      #001=Z8JW$WALK_TREE File=Z8JW.:Z8A6TSI                             SAT 08/09/97 13:33 Page:162
      564    13276    2            CASE ( %DO2 );

      565    13277
      566    13278    2              CALL PRINT_ITEM( ADDR(NIL), %ROP );

  13278 27 003267   000002 236000 28                 LDQ     2
        27 003270   200143 756100                    STQ     @OP+38,,AUTO
        27 003271   000005 236000 28                 LDQ     5
        27 003272   200066 756100                    STQ     @ID$+1,,AUTO
        27 003273   200143 631500                    EPPR1   @OP+38,,AUTO
        27 003274   200065 451500                    STP1    MVANO_CMPAS_CODE+1,,AUTO
        27 003275   005200 701000 27                 TSX1    PRINT_ITEM
        27 003276   000000 011000                    NOP     0

      567    13279    2              CALL PRINT_ITEM( ID$, OP );

  13279 27 003277   200054 630500                    EPPR0   OP,,AUTO
        27 003300   200066 450500                    STP0    @ID$+1,,AUTO
        27 003301   200003 236100                    LDQ     @ID$,,AUTO
        27 003302   200065 756100                    STQ     MVANO_CMPAS_CODE+1,,AUTO
        27 003303   005200 701000 27                 TSX1    PRINT_ITEM
        27 003304   000000 011000                    NOP     0

      568    13280    2              IF ID$->DO_N.TIMES$ ~= ADDR(NIL) THEN

  13280 27 003305   200003 470500                    LDP0    @ID$,,AUTO
        27 003306   000000 471500                    LDP1    0,,PR0
        27 003307   100007 236100                    LDQ     7,,PR1
        27 003310   000002 116000 28                 CMPQ    2
        27 003311   004364 600000 27                 TZE     s:13492

      569    13281    2                CALL Z8JW$WALK_TREE( ID$->DO_N.TIMES$, %LOP, PRINT_NDX );

  13281 27 003312   200006 633500                    EPPR3   PRINT_NDX,,AUTO
        27 003313   200100 453500                    STP3    @OP+3,,AUTO
        27 003314   000010 236000 28                 LDQ     8
        27 003315   200077 756100                    STQ     @OP+2,,AUTO
PL6.E3A0      #001=Z8JW$WALK_TREE File=Z8JW.:Z8A6TSI                             SAT 08/09/97 13:33 Page:163
        27 003316   100007 634500                    EPPR4   7,,PR1
        27 003317   200076 454500                    STP4    @OP+1,,AUTO
        27 003320   200076 630500                    EPPR0   @OP+1,,AUTO
        27 003321   000006 631400 28                 EPPR1   6
        27 003322   000000 701000 27                 TSX1    s:8
        27 003323   000000 011000                    NOP     0
        27 003324   004364 710000 27                 TRA     s:13492

      570    13282
      571    13283        %EJECT;
PL6.E3A0      #001=Z8JW$WALK_TREE File=Z8JW.:Z8A6TSI                             SAT 08/09/97 13:33 Page:164
      572    13284    2       CASE( %SCOPE );

      573    13285
      574    13286    2         CALL PRINT_ITEM( ADDR(NIL), %ROP );

  13286 27 003325   000002 236000 28                 LDQ     2
        27 003326   200144 756100                    STQ     @OP+39,,AUTO
        27 003327   000005 236000 28                 LDQ     5
        27 003330   200066 756100                    STQ     @ID$+1,,AUTO
        27 003331   200144 631500                    EPPR1   @OP+39,,AUTO
        27 003332   200065 451500                    STP1    MVANO_CMPAS_CODE+1,,AUTO
        27 003333   005200 701000 27                 TSX1    PRINT_ITEM
        27 003334   000000 011000                    NOP     0

      575    13287    2         CALL PRINT_ITEM( ID$, OP );

  13287 27 003335   200054 630500                    EPPR0   OP,,AUTO
        27 003336   200066 450500                    STP0    @ID$+1,,AUTO
        27 003337   200003 236100                    LDQ     @ID$,,AUTO
        27 003340   200065 756100                    STQ     MVANO_CMPAS_CODE+1,,AUTO
        27 003341   005200 701000 27                 TSX1    PRINT_ITEM
        27 003342   000000 011000                    NOP     0

      576    13288    2         IF ID$-> SCOPE.PROC$ ~= ADDR(NIL) THEN

  13288 27 003343   200003 470500                    LDP0    @ID$,,AUTO
        27 003344   000000 471500                    LDP1    0,,PR0
        27 003345   100001 236100                    LDQ     1,,PR1
        27 003346   000002 116000 28                 CMPQ    2
        27 003347   004364 600000 27                 TZE     s:13492

      577    13289    2           CALL Z8JW$WALK_TREE( ID$-> SCOPE.PROC$, %LOP, PRINT_NDX );

  13289 27 003350   200006 633500                    EPPR3   PRINT_NDX,,AUTO
        27 003351   200100 453500                    STP3    @OP+3,,AUTO
        27 003352   000010 236000 28                 LDQ     8
        27 003353   200077 756100                    STQ     @OP+2,,AUTO
PL6.E3A0      #001=Z8JW$WALK_TREE File=Z8JW.:Z8A6TSI                             SAT 08/09/97 13:33 Page:165
        27 003354   100001 634500                    EPPR4   1,,PR1
        27 003355   200076 454500                    STP4    @OP+1,,AUTO
        27 003356   200076 630500                    EPPR0   @OP+1,,AUTO
        27 003357   000006 631400 28                 EPPR1   6
        27 003360   000000 701000 27                 TSX1    s:8
        27 003361   000000 011000                    NOP     0
        27 003362   004364 710000 27                 TRA     s:13492

      578    13290
      579    13291        %EJECT;
PL6.E3A0      #001=Z8JW$WALK_TREE File=Z8JW.:Z8A6TSI                             SAT 08/09/97 13:33 Page:166
      580    13292    2            CASE ( %DO5 );

      581    13293
      582    13294    2              IF ID$->DO_N.BY$ = ADDR(NIL) THEN

  13294 27 003363   100012 236100                    LDQ     10,,PR1
        27 003364   000002 116000 28                 CMPQ    2
        27 003365   003377 601000 27                 TNZ     s:13297

      583    13295    2                CALL PRINT_ITEM( ADDR(NIL), %ROP );

  13295 27 003366   000002 236000 28                 LDQ     2
        27 003367   200145 756100                    STQ     @OP+40,,AUTO
        27 003370   000005 236000 28                 LDQ     5
        27 003371   200066 756100                    STQ     @ID$+1,,AUTO
        27 003372   200145 631500                    EPPR1   @OP+40,,AUTO
        27 003373   200065 451500                    STP1    MVANO_CMPAS_CODE+1,,AUTO
        27 003374   005200 701000 27                 TSX1    PRINT_ITEM
        27 003375   000000 011000                    NOP     0
        27 003376   003411 710000 27                 TRA     s:13301

      584    13296    2              ELSE
      585    13297    2                CALL Z8JW$WALK_TREE( ID$-> DO_N.BY$, %ROP, PRINT_NDX );

  13297 27 003377   200006 633500                    EPPR3   PRINT_NDX,,AUTO
        27 003400   200100 453500                    STP3    @OP+3,,AUTO
        27 003401   000005 236000 28                 LDQ     5
        27 003402   200077 756100                    STQ     @OP+2,,AUTO
        27 003403   100012 634500                    EPPR4   10,,PR1
        27 003404   200076 454500                    STP4    @OP+1,,AUTO
        27 003405   200076 630500                    EPPR0   @OP+1,,AUTO
        27 003406   000006 631400 28                 EPPR1   6
        27 003407   000000 701000 27                 TSX1    s:8
        27 003410   000000 011000                    NOP     0

      586    13298        /*
      587    13299                Step  using From$
PL6.E3A0      #001=Z8JW$WALK_TREE File=Z8JW.:Z8A6TSI                             SAT 08/09/97 13:33 Page:167
      588    13300        */
      589    13301    2              IF ID$->DO_N.FROM$ = ADDR(NIL) THEN

  13301 27 003411   200003 470500                    LDP0    @ID$,,AUTO
        27 003412   000000 471500                    LDP1    0,,PR0
        27 003413   100011 236100                    LDQ     9,,PR1
        27 003414   000002 116000 28                 CMPQ    2
        27 003415   003427 601000 27                 TNZ     s:13304

      590    13302    2                CALL PRINT_ITEM( ADDR(NIL), %ROP );

  13302 27 003416   000002 236000 28                 LDQ     2
        27 003417   200146 756100                    STQ     @OP+41,,AUTO
        27 003420   000005 236000 28                 LDQ     5
        27 003421   200066 756100                    STQ     @ID$+1,,AUTO
        27 003422   200146 631500                    EPPR1   @OP+41,,AUTO
        27 003423   200065 451500                    STP1    MVANO_CMPAS_CODE+1,,AUTO
        27 003424   005200 701000 27                 TSX1    PRINT_ITEM
        27 003425   000000 011000                    NOP     0
        27 003426   003441 710000 27                 TRA     s:13308

      591    13303    2              ELSE
      592    13304    2                CALL Z8JW$WALK_TREE( ID$-> DO_N.FROM$, %ROP, PRINT_NDX );

  13304 27 003427   200006 633500                    EPPR3   PRINT_NDX,,AUTO
        27 003430   200100 453500                    STP3    @OP+3,,AUTO
        27 003431   000005 236000 28                 LDQ     5
        27 003432   200077 756100                    STQ     @OP+2,,AUTO
        27 003433   100011 634500                    EPPR4   9,,PR1
        27 003434   200076 454500                    STP4    @OP+1,,AUTO
        27 003435   200076 630500                    EPPR0   @OP+1,,AUTO
        27 003436   000006 631400 28                 EPPR1   6
        27 003437   000000 701000 27                 TSX1    s:8
        27 003440   000000 011000                    NOP     0

      593    13305        /*
      594    13306                Print the DO5 item
PL6.E3A0      #001=Z8JW$WALK_TREE File=Z8JW.:Z8A6TSI                             SAT 08/09/97 13:33 Page:168
      595    13307        */
      596    13308    2              CALL PRINT_ITEM ( ID$, OP );

  13308 27 003441   200054 630500                    EPPR0   OP,,AUTO
        27 003442   200066 450500                    STP0    @ID$+1,,AUTO
        27 003443   200003 236100                    LDQ     @ID$,,AUTO
        27 003444   200065 756100                    STQ     MVANO_CMPAS_CODE+1,,AUTO
        27 003445   005200 701000 27                 TSX1    PRINT_ITEM
        27 003446   000000 011000                    NOP     0

      597    13309        /*
      598    13310                Step using varying$
      599    13311        */
      600    13312    2              IF ID$-> DO_N.VARYING$ = ADDR(NIL) THEN

  13312 27 003447   200003 470500                    LDP0    @ID$,,AUTO
        27 003450   000000 471500                    LDP1    0,,PR0
        27 003451   100010 236100                    LDQ     8,,PR1
        27 003452   000002 116000 28                 CMPQ    2
        27 003453   003465 601000 27                 TNZ     s:13315

      601    13313    2                CALL PRINT_ITEM( ADDR(NIL), %LOP );

  13313 27 003454   000002 236000 28                 LDQ     2
        27 003455   200147 756100                    STQ     @OP+42,,AUTO
        27 003456   000010 236000 28                 LDQ     8
        27 003457   200066 756100                    STQ     @ID$+1,,AUTO
        27 003460   200147 631500                    EPPR1   @OP+42,,AUTO
        27 003461   200065 451500                    STP1    MVANO_CMPAS_CODE+1,,AUTO
        27 003462   005200 701000 27                 TSX1    PRINT_ITEM
        27 003463   000000 011000                    NOP     0
        27 003464   004364 710000 27                 TRA     s:13492

      602    13314    2              ELSE
      603    13315    2                CALL Z8JW$WALK_TREE( ID$-> DO_N.VARYING$, %LOP, PRINT_NDX );

  13315 27 003465   200006 633500                    EPPR3   PRINT_NDX,,AUTO
PL6.E3A0      #001=Z8JW$WALK_TREE File=Z8JW.:Z8A6TSI                             SAT 08/09/97 13:33 Page:169
        27 003466   200100 453500                    STP3    @OP+3,,AUTO
        27 003467   000010 236000 28                 LDQ     8
        27 003470   200077 756100                    STQ     @OP+2,,AUTO
        27 003471   100010 634500                    EPPR4   8,,PR1
        27 003472   200076 454500                    STP4    @OP+1,,AUTO
        27 003473   200076 630500                    EPPR0   @OP+1,,AUTO
        27 003474   000006 631400 28                 EPPR1   6
        27 003475   000000 701000 27                 TSX1    s:8
        27 003476   000000 011000                    NOP     0
        27 003477   004364 710000 27                 TRA     s:13492

      604    13316
      605    13317        %EJECT;
PL6.E3A0      #001=Z8JW$WALK_TREE File=Z8JW.:Z8A6TSI                             SAT 08/09/97 13:33 Page:170
      606    13318        /*
      607    13319                     Items with 2 operands: ROPCON, LOP + symbolic codes.
      608    13320        */
      609    13321    2           CASE ( %CVHI, %CVJI, %CVKI );

      610    13322
      611    13323        /*
      612    13324                   Print the symbolic code from ROPCON.
      613    13325        */
      614    13326
      615    13327    2             CALL PRINT_CODE ( ID$ );

  13327 27 003500   200003 236100                    LDQ     @ID$,,AUTO
        27 003501   200061 756100                    STQ     ARGS#+3,,AUTO
        27 003502   005703 701000 27                 TSX1    PRINT_CODE
        27 003503   000000 011000                    NOP     0

      616    13328    2             CALL PRINT_AND_CLEAR( PRINT_NDX+8, 13, OP);

  13328 27 003504   200006 235100                    LDA     PRINT_NDX,,AUTO
        27 003505   000010 035007                    ADLA    8,DL
        27 003506   200150 755100                    STA     @OP+43,,AUTO
        27 003507   200054 630500                    EPPR0   OP,,AUTO
        27 003510   200075 450500                    STP0    @COLUMN+1,,AUTO
        27 003511   000016 236000 28                 LDQ     14
        27 003512   200074 756100                    STQ     @OP+1,,AUTO
        27 003513   200150 631500                    EPPR1   @OP+43,,AUTO
        27 003514   200073 451500                    STP1    MAX_LENGTH+2,,AUTO
        27 003515   007235 701000 27                 TSX1    PRINT_AND_CLEAR
        27 003516   000000 011000                    NOP     0

      617    13329    2             CALL BRANCH_BUILDER( %ROP, PRINT_NDX+8 );

  13329 27 003517   200006 235100                    LDA     PRINT_NDX,,AUTO
        27 003520   000010 035007                    ADLA    8,DL
        27 003521   200151 755100                    STA     @OP+44,,AUTO
        27 003522   200151 630500                    EPPR0   @OP+44,,AUTO
PL6.E3A0      #001=Z8JW$WALK_TREE File=Z8JW.:Z8A6TSI                             SAT 08/09/97 13:33 Page:171
        27 003523   200074 450500                    STP0    @OP+1,,AUTO
        27 003524   000005 236000 28                 LDQ     5
        27 003525   200073 756100                    STQ     MAX_LENGTH+2,,AUTO
        27 003526   007255 701000 27                 TSX1    BRANCH_BUILDER
        27 003527   000000 011000                    NOP     0

      618    13330
      619    13331        /*               Print the current item.                       */
      620    13332
      621    13333    2             CALL PRINT_ITEM ( ID$ ,OP );

  13333 27 003530   200054 630500                    EPPR0   OP,,AUTO
        27 003531   200066 450500                    STP0    @ID$+1,,AUTO
        27 003532   200003 236100                    LDQ     @ID$,,AUTO
        27 003533   200065 756100                    STQ     MVANO_CMPAS_CODE+1,,AUTO
        27 003534   005200 701000 27                 TSX1    PRINT_ITEM
        27 003535   000000 011000                    NOP     0

      622    13334
      623    13335        /*               Expand the LOP of the current item.            */
      624    13336
      625    13337    2             IF ID$ -> ILL.LOP = ADDR(NIL) THEN

  13337 27 003536   200003 470500                    LDP0    @ID$,,AUTO
        27 003537   000000 471500                    LDP1    0,,PR0
        27 003540   100001 236100                    LDQ     1,,PR1
        27 003541   000002 116000 28                 CMPQ    2
        27 003542   003554 601000 27                 TNZ     s:13340

      626    13338    2               CALL PRINT_ITEM ( ADDR(NIL) , %LOP );

  13338 27 003543   000002 236000 28                 LDQ     2
        27 003544   200152 756100                    STQ     @OP+45,,AUTO
        27 003545   000010 236000 28                 LDQ     8
        27 003546   200066 756100                    STQ     @ID$+1,,AUTO
        27 003547   200152 631500                    EPPR1   @OP+45,,AUTO
        27 003550   200065 451500                    STP1    MVANO_CMPAS_CODE+1,,AUTO
PL6.E3A0      #001=Z8JW$WALK_TREE File=Z8JW.:Z8A6TSI                             SAT 08/09/97 13:33 Page:172
        27 003551   005200 701000 27                 TSX1    PRINT_ITEM
        27 003552   000000 011000                    NOP     0
        27 003553   004364 710000 27                 TRA     s:13492

      627    13339    2             ELSE
      628    13340    2               CALL Z8JW$WALK_TREE ( ID$ -> ILL.LOP , %LOP, PRINT_NDX );

  13340 27 003554   200006 633500                    EPPR3   PRINT_NDX,,AUTO
        27 003555   200100 453500                    STP3    @OP+3,,AUTO
        27 003556   000010 236000 28                 LDQ     8
        27 003557   200077 756100                    STQ     @OP+2,,AUTO
        27 003560   100001 634500                    EPPR4   1,,PR1
        27 003561   200076 454500                    STP4    @OP+1,,AUTO
        27 003562   200076 630500                    EPPR0   @OP+1,,AUTO
        27 003563   000006 631400 28                 EPPR1   6
        27 003564   000000 701000 27                 TSX1    s:8
        27 003565   000000 011000                    NOP     0
        27 003566   004364 710000 27                 TRA     s:13492

      629    13341
      630    13342
      631    13343        %EJECT;
PL6.E3A0      #001=Z8JW$WALK_TREE File=Z8JW.:Z8A6TSI                             SAT 08/09/97 13:33 Page:173
      632    13344    2           CASE ( %ARGLIST );

      633    13345
      634    13346    2             ARGS# = ID$-> ARGLIST.N -1;

  13346 27 003567   100000 236100                    LDQ     0,,PR1
        27 003570   777777 376007                    ANQ     -1,DL
        27 003571   000001 136007                    SBLQ    1,DL
        27 003572   200056 756100                    STQ     ARGS#,,AUTO

      635    13347    2             IF ARGS# = 1

  13347 27 003573   000001 116007                    CMPQ    1,DL
        27 003574   003577 600000 27                 TZE     s:13349
        27 003575   000000 116003                    CMPQ    0,DU
        27 003576   003611 601000 27                 TNZ     s:13351

      636    13348    2             OR ARGS# = 0 THEN
      637    13349    2               CALL BRANCH_BUILDER ( %ROP,PRINT_NDX + 8);

  13349 27 003577   200006 235100                    LDA     PRINT_NDX,,AUTO
        27 003600   000010 035007                    ADLA    8,DL
        27 003601   200153 755100                    STA     @OP+46,,AUTO
        27 003602   200153 631500                    EPPR1   @OP+46,,AUTO
        27 003603   200074 451500                    STP1    @OP+1,,AUTO
        27 003604   000005 236000 28                 LDQ     5
        27 003605   200073 756100                    STQ     MAX_LENGTH+2,,AUTO
        27 003606   007255 701000 27                 TSX1    BRANCH_BUILDER
        27 003607   000000 011000                    NOP     0
        27 003610   003651 710000 27                 TRA     s:13360

      638    13350    2             ELSE
      639    13351    3               DO J = ARGS# -1 DOWNTO 1;

  13351 27 003611   000001 136007                    SBLQ    1,DL
        27 003612   200055 756100                    STQ     J,,AUTO
        27 003613   003647 710000 27                 TRA     s:13356+2
PL6.E3A0      #001=Z8JW$WALK_TREE File=Z8JW.:Z8A6TSI                             SAT 08/09/97 13:33 Page:174

      640    13352    3                 IF ID$-> ARGLIST.ARG$(J) = ADDR(NIL) THEN

  13352 27 003614   200003 470500                    LDP0    @ID$,,AUTO
        27 003615   000000 471500                    LDP1    0,,PR0
        27 003616   200055 720100                    LXL0    J,,AUTO
        27 003617   100001 236110                    LDQ     1,X0,PR1
        27 003620   000002 116000 28                 CMPQ    2
        27 003621   003633 601000 27                 TNZ     s:13355

      641    13353    3                   CALL PRINT_ITEM ( ADDR(NIL), %ROP );

  13353 27 003622   000002 236000 28                 LDQ     2
        27 003623   200154 756100                    STQ     @OP+47,,AUTO
        27 003624   000005 236000 28                 LDQ     5
        27 003625   200066 756100                    STQ     @ID$+1,,AUTO
        27 003626   200154 631500                    EPPR1   @OP+47,,AUTO
        27 003627   200065 451500                    STP1    MVANO_CMPAS_CODE+1,,AUTO
        27 003630   005200 701000 27                 TSX1    PRINT_ITEM
        27 003631   000000 011000                    NOP     0
        27 003632   003645 710000 27                 TRA     s:13356

      642    13354    3                 ELSE
      643    13355    3                   CALL Z8JW$WALK_TREE ( ID$-> ARGLIST.ARG$(J), %ROP, PRINT_NDX);

  13355 27 003633   200006 633500                    EPPR3   PRINT_NDX,,AUTO
        27 003634   200100 453500                    STP3    @OP+3,,AUTO
        27 003635   000005 236000 28                 LDQ     5
        27 003636   200077 756100                    STQ     @OP+2,,AUTO
        27 003637   100001 634510                    EPPR4   1,X0,PR1
        27 003640   200076 454500                    STP4    @OP+1,,AUTO
        27 003641   200076 630500                    EPPR0   @OP+1,,AUTO
        27 003642   000006 631400 28                 EPPR1   6
        27 003643   000000 701000 27                 TSX1    s:8
        27 003644   000000 011000                    NOP     0

      644    13356    3               END;
PL6.E3A0      #001=Z8JW$WALK_TREE File=Z8JW.:Z8A6TSI                             SAT 08/09/97 13:33 Page:175

  13356 27 003645   000001 336007                    LCQ     1,DL
        27 003646   200055 056100                    ASQ     J,,AUTO
        27 003647   200055 235100                    LDA     J,,AUTO
        27 003650   003614 605400 27                 TPNZ    s:13352

      645    13357
      646    13358            /*     Print the current item.  */
      647    13359
      648    13360    2             CALL PRINT_ITEM (ID$, OP);

  13360 27 003651   200054 630500                    EPPR0   OP,,AUTO
        27 003652   200066 450500                    STP0    @ID$+1,,AUTO
        27 003653   200003 236100                    LDQ     @ID$,,AUTO
        27 003654   200065 756100                    STQ     MVANO_CMPAS_CODE+1,,AUTO
        27 003655   005200 701000 27                 TSX1    PRINT_ITEM
        27 003656   000000 011000                    NOP     0

      649    13361
      650    13362            /*V*  TREAT LAST ARG AS IF IT WERE THE LOP */
      651    13363
      652    13364    2             IF ID$-> ARGLIST.ARG$(0) = ADDR(NIL)

  13364 27 003657   200003 470500                    LDP0    @ID$,,AUTO
        27 003660   000000 471500                    LDP1    0,,PR0
        27 003661   100001 236100                    LDQ     1,,PR1
        27 003662   000002 116000 28                 CMPQ    2
        27 003663   003666 600000 27                 TZE     s:13366
        27 003664   200056 235100                    LDA     ARGS#,,AUTO
        27 003665   003677 601000 27                 TNZ     s:13368

      653    13365    2             OR ARGS# = 0 THEN
      654    13366    2               CALL PRINT_ITEM ( ADDR(NIL), %LOP );

  13366 27 003666   000002 236000 28                 LDQ     2
        27 003667   200155 756100                    STQ     @OP+48,,AUTO
        27 003670   000010 236000 28                 LDQ     8
PL6.E3A0      #001=Z8JW$WALK_TREE File=Z8JW.:Z8A6TSI                             SAT 08/09/97 13:33 Page:176
        27 003671   200066 756100                    STQ     @ID$+1,,AUTO
        27 003672   200155 631500                    EPPR1   @OP+48,,AUTO
        27 003673   200065 451500                    STP1    MVANO_CMPAS_CODE+1,,AUTO
        27 003674   005200 701000 27                 TSX1    PRINT_ITEM
        27 003675   000000 011000                    NOP     0
        27 003676   004364 710000 27                 TRA     s:13492

      655    13367    2             ELSE
      656    13368    2               CALL Z8JW$WALK_TREE ( ID$-> ARGLIST.ARG$(0), %LOP, PRINT_NDX);

  13368 27 003677   200006 633500                    EPPR3   PRINT_NDX,,AUTO
        27 003700   200100 453500                    STP3    @OP+3,,AUTO
        27 003701   000010 236000 28                 LDQ     8
        27 003702   200077 756100                    STQ     @OP+2,,AUTO
        27 003703   100001 634500                    EPPR4   1,,PR1
        27 003704   200076 454500                    STP4    @OP+1,,AUTO
        27 003705   200076 630500                    EPPR0   @OP+1,,AUTO
        27 003706   000006 631400 28                 EPPR1   6
        27 003707   000000 701000 27                 TSX1    s:8
        27 003710   000000 011000                    NOP     0
        27 003711   004364 710000 27                 TRA     s:13492

      657    13369
      658    13370
      659    13371        %EJECT;
PL6.E3A0      #001=Z8JW$WALK_TREE File=Z8JW.:Z8A6TSI                             SAT 08/09/97 13:33 Page:177
      660    13372    2         CASE ( %CMPAS );

      661    13373
      662    13374    2           CALL PRINT_CODE ( ID$ );

  13374 27 003712   200003 236100                    LDQ     @ID$,,AUTO
        27 003713   200061 756100                    STQ     ARGS#+3,,AUTO
        27 003714   005703 701000 27                 TSX1    PRINT_CODE
        27 003715   000000 011000                    NOP     0

      663    13375    2           CALL PRINT_AND_CLEAR( PRINT_NDX+8, 13, OP );

  13375 27 003716   200006 235100                    LDA     PRINT_NDX,,AUTO
        27 003717   000010 035007                    ADLA    8,DL
        27 003720   200156 755100                    STA     @OP+49,,AUTO
        27 003721   200054 630500                    EPPR0   OP,,AUTO
        27 003722   200075 450500                    STP0    @COLUMN+1,,AUTO
        27 003723   000016 236000 28                 LDQ     14
        27 003724   200074 756100                    STQ     @OP+1,,AUTO
        27 003725   200156 631500                    EPPR1   @OP+49,,AUTO
        27 003726   200073 451500                    STP1    MAX_LENGTH+2,,AUTO
        27 003727   007235 701000 27                 TSX1    PRINT_AND_CLEAR
        27 003730   000000 011000                    NOP     0

      664    13376    2           CALL BRANCH_BUILDER( %ROP, PRINT_NDX+8 );

  13376 27 003731   200006 235100                    LDA     PRINT_NDX,,AUTO
        27 003732   000010 035007                    ADLA    8,DL
        27 003733   200157 755100                    STA     @OP+50,,AUTO
        27 003734   200157 630500                    EPPR0   @OP+50,,AUTO
        27 003735   200074 450500                    STP0    @OP+1,,AUTO
        27 003736   000005 236000 28                 LDQ     5
        27 003737   200073 756100                    STQ     MAX_LENGTH+2,,AUTO
        27 003740   007255 701000 27                 TSX1    BRANCH_BUILDER
        27 003741   000000 011000                    NOP     0

      665    13377    2           CALL PRINT_ITEM ( ID$, OP );
PL6.E3A0      #001=Z8JW$WALK_TREE File=Z8JW.:Z8A6TSI                             SAT 08/09/97 13:33 Page:178

  13377 27 003742   200054 630500                    EPPR0   OP,,AUTO
        27 003743   200066 450500                    STP0    @ID$+1,,AUTO
        27 003744   200003 236100                    LDQ     @ID$,,AUTO
        27 003745   200065 756100                    STQ     MVANO_CMPAS_CODE+1,,AUTO
        27 003746   005200 701000 27                 TSX1    PRINT_ITEM
        27 003747   000000 011000                    NOP     0

      666    13378    2           CALL Z8JW$WALK_TREE ( ID$ -> ETT.LOP, %LOP, PRINT_NDX );

  13378 27 003750   200003 470500                    LDP0    @ID$,,AUTO
        27 003751   000000 471500                    LDP1    0,,PR0
        27 003752   200006 633500                    EPPR3   PRINT_NDX,,AUTO
        27 003753   200100 453500                    STP3    @OP+3,,AUTO
        27 003754   000010 236000 28                 LDQ     8
        27 003755   200077 756100                    STQ     @OP+2,,AUTO
        27 003756   100001 634500                    EPPR4   1,,PR1
        27 003757   200076 454500                    STP4    @OP+1,,AUTO
        27 003760   200076 630500                    EPPR0   @OP+1,,AUTO
        27 003761   000006 631400 28                 EPPR1   6
        27 003762   000000 701000 27                 TSX1    s:8
        27 003763   000000 011000                    NOP     0
        27 003764   004364 710000 27                 TRA     s:13492

      667    13379
      668    13380        %EJECT;
PL6.E3A0      #001=Z8JW$WALK_TREE File=Z8JW.:Z8A6TSI                             SAT 08/09/97 13:33 Page:179
      669    13381        /*
      670    13382             Special Case:  INTDEF, SYMDEF_
      671    13383        */
      672    13384
      673    13385    2       CASE ( %INTDEF, %SYMDEF_ );

      674    13386
      675    13387    2         IF ID$-> INTDEF.ARGLIST$ = ADDR(NIL) THEN

  13387 27 003765   100005 236100                    LDQ     5,,PR1
        27 003766   000002 116000 28                 CMPQ    2
        27 003767   004001 601000 27                 TNZ     s:13390

      676    13388    2           CALL PRINT_ITEM ( ADDR(NIL), %ROP );

  13388 27 003770   000002 236000 28                 LDQ     2
        27 003771   200160 756100                    STQ     @OP+51,,AUTO
        27 003772   000005 236000 28                 LDQ     5
        27 003773   200066 756100                    STQ     @ID$+1,,AUTO
        27 003774   200160 631500                    EPPR1   @OP+51,,AUTO
        27 003775   200065 451500                    STP1    MVANO_CMPAS_CODE+1,,AUTO
        27 003776   005200 701000 27                 TSX1    PRINT_ITEM
        27 003777   000000 011000                    NOP     0
        27 004000   004013 710000 27                 TRA     s:13396

      677    13389    2         ELSE
      678    13390    2           CALL Z8JW$WALK_TREE ( ID$-> INTDEF.ARGLIST$, %ROP, PRINT_NDX );

  13390 27 004001   200006 633500                    EPPR3   PRINT_NDX,,AUTO
        27 004002   200100 453500                    STP3    @OP+3,,AUTO
        27 004003   000005 236000 28                 LDQ     5
        27 004004   200077 756100                    STQ     @OP+2,,AUTO
        27 004005   100005 634500                    EPPR4   5,,PR1
        27 004006   200076 454500                    STP4    @OP+1,,AUTO
        27 004007   200076 630500                    EPPR0   @OP+1,,AUTO
        27 004010   000006 631400 28                 EPPR1   6
        27 004011   000000 701000 27                 TSX1    s:8
PL6.E3A0      #001=Z8JW$WALK_TREE File=Z8JW.:Z8A6TSI                             SAT 08/09/97 13:33 Page:180
        27 004012   000000 011000                    NOP     0

      679    13391
      680    13392        /*
      681    13393             Print the current item and its name ( dnt$->dnt.text.name )
      682    13394        */
      683    13395
      684    13396    2         IF ID$-> INTDEF.DNT$ ~= ADDR(NIL) THEN

  13396 27 004013   200003 470500                    LDP0    @ID$,,AUTO
        27 004014   000000 471500                    LDP1    0,,PR0
        27 004015   100006 236100                    LDQ     6,,PR1
        27 004016   000002 116000 28                 CMPQ    2
        27 004017   004043 600000 27                 TZE     s:13404

      685    13397    3           DO;

      686    13398    3             SUBSTR( OBUF,PRINT_NDX+9,1 ) = '(';

  13398 27 004020   200006 235100                    LDA     PRINT_NDX,,AUTO
        27 004021   040005 100400                    MLR     fill='040'O
        27 004022   000014 000001 28                 ADSC9   12                       cn=0,n=1
        27 004023   000002 200001 24                 ADSC9   OBUF+2,A                 cn=1,n=1

      687    13399    3             SUBSTR (OBUF,PRINT_NDX+10,ID$-> INTDEF.DNT$-> DNT.TEXT.LENGTH) =

  13399 27 004024   000000 471500                    LDP1    0,,PR0
        27 004025   100006 473500                    LDP3    6,,PR1
        27 004026   300004 220100                    LDX0    4,,PR3
        27 004027   300004 221100                    LDX1    4,,PR3
        27 004030   040045 100540                    MLR     fill='040'O
        27 004031   300004 400011                    ADSC9   4,,PR3                   cn=2,n=*X1
        27 004032   000002 400010 24                 ADSC9   OBUF+2,A                 cn=2,n=*X0

      688    13400    3                                       ID$-> INTDEF.DNT$-> DNT.TEXT.NAME;
      689    13401    3             SUBSTR (OBUF,PRINT_NDX+10+ID$-> INTDEF.DNT$-> DNT.TEXT.LENGTH,1) = ')';

PL6.E3A0      #001=Z8JW$WALK_TREE File=Z8JW.:Z8A6TSI                             SAT 08/09/97 13:33 Page:181
  13401 27 004033   000000 471500                    LDP1    0,,PR0
        27 004034   100006 473500                    LDP3    6,,PR1
        27 004035   300004 236100                    LDQ     4,,PR3
        27 004036   000022 772000                    QRL     18
        27 004037   200006 036100                    ADLQ    PRINT_NDX,,AUTO
        27 004040   040006 100400                    MLR     fill='040'O
        27 004041   000012 000001 28                 ADSC9   10                       cn=0,n=1
        27 004042   000002 400001 24                 ADSC9   OBUF+2,Q                 cn=2,n=1

      690    13402    3           END;

      691    13403
      692    13404    2         CALL PRINT_ITEM ( ID$, OP );

  13404 27 004043   200054 631500                    EPPR1   OP,,AUTO
        27 004044   200066 451500                    STP1    @ID$+1,,AUTO
        27 004045   200003 236100                    LDQ     @ID$,,AUTO
        27 004046   200065 756100                    STQ     MVANO_CMPAS_CODE+1,,AUTO
        27 004047   005200 701000 27                 TSX1    PRINT_ITEM
        27 004050   000000 011000                    NOP     0

      693    13405    2         SUBSTR (OBUF,PRINT_NDX+9,ID$-> INTDEF.DNT$-> DNT.TEXT.LENGTH+2) = ' ';

  13405 27 004051   200003 470500                    LDP0    @ID$,,AUTO
        27 004052   000000 471500                    LDP1    0,,PR0
        27 004053   100006 473500                    LDP3    6,,PR1
        27 004054   300004 220100                    LDX0    4,,PR3
        27 004055   000002 621010                    EAX1    2,X0
        27 004056   200006 235100                    LDA     PRINT_NDX,,AUTO
        27 004057   040045 100400                    MLR     fill='040'O
        27 004060   000013 000001 28                 ADSC9   11                       cn=0,n=1
        27 004061   000002 200011 24                 ADSC9   OBUF+2,A                 cn=1,n=*X1
        27 004062   004364 710000 27                 TRA     s:13492

      694    13406
      695    13407
      696    13408        %EJECT;
PL6.E3A0      #001=Z8JW$WALK_TREE File=Z8JW.:Z8A6TSI                             SAT 08/09/97 13:33 Page:182
      697    13409    2         CASE ( %CCOSU, %EVALP );

      698    13410
      699    13411    2           IF ID$->CCOSU.EVEX = ADDR(NIL) THEN

  13411 27 004063   100004 236100                    LDQ     4,,PR1
        27 004064   000002 116000 28                 CMPQ    2
        27 004065   004077 601000 27                 TNZ     s:13414

      700    13412    2             CALL PRINT_ITEM( ADDR(NIL), %ROP );

  13412 27 004066   000002 236000 28                 LDQ     2
        27 004067   200161 756100                    STQ     @OP+52,,AUTO
        27 004070   000005 236000 28                 LDQ     5
        27 004071   200066 756100                    STQ     @ID$+1,,AUTO
        27 004072   200161 631500                    EPPR1   @OP+52,,AUTO
        27 004073   200065 451500                    STP1    MVANO_CMPAS_CODE+1,,AUTO
        27 004074   005200 701000 27                 TSX1    PRINT_ITEM
        27 004075   000000 011000                    NOP     0
        27 004076   004111 710000 27                 TRA     s:13420

      701    13413    2           ELSE
      702    13414    2             CALL Z8JW$WALK_TREE( ID$-> CCOSU.EVEX, %ROP, PRINT_NDX );

  13414 27 004077   200006 633500                    EPPR3   PRINT_NDX,,AUTO
        27 004100   200100 453500                    STP3    @OP+3,,AUTO
        27 004101   000005 236000 28                 LDQ     5
        27 004102   200077 756100                    STQ     @OP+2,,AUTO
        27 004103   100004 634500                    EPPR4   4,,PR1
        27 004104   200076 454500                    STP4    @OP+1,,AUTO
        27 004105   200076 630500                    EPPR0   @OP+1,,AUTO
        27 004106   000006 631400 28                 EPPR1   6
        27 004107   000000 701000 27                 TSX1    s:8
        27 004110   000000 011000                    NOP     0

      703    13415
      704    13416        /*
PL6.E3A0      #001=Z8JW$WALK_TREE File=Z8JW.:Z8A6TSI                             SAT 08/09/97 13:33 Page:183
      705    13417                      Print item and its count.
      706    13418        */
      707    13419
      708    13420    2           CALL X8CO$CONV_TO_OCTAL(  ID$-> CCOSU.CNTE, CHAR12 );

  13420 27 004111   200003 470500                    LDP0    @ID$,,AUTO
        27 004112   000000 471500                    LDP1    0,,PR0
        27 004113   200007 633500                    EPPR3   CHAR12,,AUTO
        27 004114   200077 453500                    STP3    @OP+2,,AUTO
        27 004115   200100 451500                    STP1    @OP+3,,AUTO
        27 004116   200100 236100                    LDQ     @OP+3,,AUTO
        27 004117   400000 036007                    ADLQ    -131072,DL
        27 004120   200076 756100                    STQ     @OP+1,,AUTO
        27 004121   200076 630500                    EPPR0   @OP+1,,AUTO
        27 004122   000011 631400 28                 EPPR1   9
        27 004123   000000 701000 xent               TSX1    X8CO$CONV_TO_OCTAL
        27 004124   000000 011000                    NOP     0

      709    13421    2           SUBSTR (OBUF,PRINT_NDX+9,8) = '-cnte = ';

  13421 27 004125   200006 235100                    LDA     PRINT_NDX,,AUTO
        27 004126   040005 100400                    MLR     fill='040'O
        27 004127   000014 000010 26                 ADSC9   12                       cn=0,n=8
        27 004130   000002 200010 24                 ADSC9   OBUF+2,A                 cn=1,n=8

      710    13422    2           SUBSTR (OBUF,PRINT_NDX+17,6) = SUBSTR( CHAR12,6,6 );

  13422 27 004131   040005 100500                    MLR     fill='040'O
        27 004132   200010 400006                    ADSC9   CHAR12+1,,AUTO           cn=2,n=6
        27 004133   000004 200006 24                 ADSC9   OBUF+4,A                 cn=1,n=6

      711    13423    2           CALL PRINT_ITEM( ID$, OP);

  13423 27 004134   200054 630500                    EPPR0   OP,,AUTO
        27 004135   200066 450500                    STP0    @ID$+1,,AUTO
        27 004136   200003 236100                    LDQ     @ID$,,AUTO
        27 004137   200065 756100                    STQ     MVANO_CMPAS_CODE+1,,AUTO
PL6.E3A0      #001=Z8JW$WALK_TREE File=Z8JW.:Z8A6TSI                             SAT 08/09/97 13:33 Page:184
        27 004140   005200 701000 27                 TSX1    PRINT_ITEM
        27 004141   000000 011000                    NOP     0

      712    13424    2           SUBSTR( OBUF,PRINT_NDX+8,13) = ' ';

  13424 27 004142   200006 235100                    LDA     PRINT_NDX,,AUTO
        27 004143   040005 100400                    MLR     fill='040'O
        27 004144   000013 000001 28                 ADSC9   11                       cn=0,n=1
        27 004145   000002 000015 24                 ADSC9   OBUF+2,A                 cn=0,n=13

      713    13425
      714    13426        /*
      715    13427                      Print B (bits) field.
      716    13428        */
      717    13429
      718    13430    2           CALL X8CO$CONV_TO_OCTAL(  ID$->CCOSU.B, CHAR12 );

  13430 27 004146   200003 470500                    LDP0    @ID$,,AUTO
        27 004147   000000 471500                    LDP1    0,,PR0
        27 004150   200007 633500                    EPPR3   CHAR12,,AUTO
        27 004151   200077 453500                    STP3    @OP+2,,AUTO
        27 004152   100002 634500                    EPPR4   2,,PR1
        27 004153   200076 454500                    STP4    @OP+1,,AUTO
        27 004154   200076 630500                    EPPR0   @OP+1,,AUTO
        27 004155   000011 631400 28                 EPPR1   9
        27 004156   000000 701000 xent               TSX1    X8CO$CONV_TO_OCTAL
        27 004157   000000 011000                    NOP     0

      719    13431    2           SUBSTR( OBUF,PRINT_NDX+8,9 ) = ':-Bits = ';

  13431 27 004160   200006 235100                    LDA     PRINT_NDX,,AUTO
        27 004161   040005 100400                    MLR     fill='040'O
        27 004162   000016 000011 26                 ADSC9   14                       cn=0,n=9
        27 004163   000002 000011 24                 ADSC9   OBUF+2,A                 cn=0,n=9

      720    13432    2           SUBSTR( OBUF,PRINT_NDX+17,12) = CHAR12;

PL6.E3A0      #001=Z8JW$WALK_TREE File=Z8JW.:Z8A6TSI                             SAT 08/09/97 13:33 Page:185
  13432 27 004164   040005 100500                    MLR     fill='040'O
        27 004165   200007 000014                    ADSC9   CHAR12,,AUTO             cn=0,n=12
        27 004166   000004 200014 24                 ADSC9   OBUF+4,A                 cn=1,n=12

      721    13433    2           CALL PRINT_AND_CLEAR ( PRINT_NDX+8, 25, %LOP );

  13433 27 004167   000010 035007                    ADLA    8,DL
        27 004170   200162 755100                    STA     @OP+53,,AUTO
        27 004171   000020 237000 28                 LDAQ    16
        27 004172   200074 757100                    STAQ    @OP+1,,AUTO
        27 004173   200162 630500                    EPPR0   @OP+53,,AUTO
        27 004174   200073 450500                    STP0    MAX_LENGTH+2,,AUTO
        27 004175   007235 701000 27                 TSX1    PRINT_AND_CLEAR
        27 004176   000000 011000                    NOP     0
        27 004177   004364 710000 27                 TRA     s:13492

      722    13434
      723    13435        %EJECT;
PL6.E3A0      #001=Z8JW$WALK_TREE File=Z8JW.:Z8A6TSI                             SAT 08/09/97 13:33 Page:186
      724    13436          /*      Items with NO operands                                 */
      725    13437    2           CASE ( %EVALU, %STOP, %END, %ENTRY, %OPN, %DO1, %DO3, %DO4,

      726    13438    2                  %DOEND, %OPA, %STOPL, %USE_ENTRY, %USE_END, %PEND,
      727    13439    2                  %END_PROG, %VAL_END, %AUTO );
      728    13440    2             CALL PRINT_ITEM ( ID$, OP );

  13440 27 004200   200054 633500                    EPPR3   OP,,AUTO
        27 004201   200066 453500                    STP3    @ID$+1,,AUTO
        27 004202   200003 236100                    LDQ     @ID$,,AUTO
        27 004203   200065 756100                    STQ     MVANO_CMPAS_CODE+1,,AUTO
        27 004204   005200 701000 27                 TSX1    PRINT_ITEM
        27 004205   000000 011000                    NOP     0
        27 004206   004364 710000 27                 TRA     s:13492

      729    13441
      730    13442
      731    13443
      732    13444    2            CASE( %LCNST);

      733    13445
      734    13446    2              SUBSTR( OBUF,PRINT_NDX + 10,45 ) =
             13446                       'Use online table dump to get long constants.';

  13446 27 004207   200006 235100                    LDA     PRINT_NDX,,AUTO
        27 004210   040005 100400                    MLR     fill='040'O
        27 004211   000021 000054 26                 ADSC9   17                       cn=0,n=44
        27 004212   000002 400055 24                 ADSC9   OBUF+2,A                 cn=2,n=45

      735    13447    2              CALL PRINT_ITEM( ID$, OP );

  13447 27 004213   200054 631500                    EPPR1   OP,,AUTO
        27 004214   200066 451500                    STP1    @ID$+1,,AUTO
        27 004215   200003 236100                    LDQ     @ID$,,AUTO
        27 004216   200065 756100                    STQ     MVANO_CMPAS_CODE+1,,AUTO
        27 004217   005200 701000 27                 TSX1    PRINT_ITEM
        27 004220   000000 011000                    NOP     0
PL6.E3A0      #001=Z8JW$WALK_TREE File=Z8JW.:Z8A6TSI                             SAT 08/09/97 13:33 Page:187

      736    13448    2              SUBSTR( OBUF,PRINT_NDX+10,45 ) = ' ';   /* Remove message */

  13448 27 004221   200006 235100                    LDA     PRINT_NDX,,AUTO
        27 004222   040005 100400                    MLR     fill='040'O
        27 004223   000013 000001 28                 ADSC9   11                       cn=0,n=1
        27 004224   000002 400055 24                 ADSC9   OBUF+2,A                 cn=2,n=45
        27 004225   004364 710000 27                 TRA     s:13492

      737    13449
      738    13450        %EJECT;
PL6.E3A0      #001=Z8JW$WALK_TREE File=Z8JW.:Z8A6TSI                             SAT 08/09/97 13:33 Page:188
      739    13451
      740    13452            /* Symbol table items */
      741    13453
      742    13454    2           CASE ( %TEMP, %ARRAY, %SCALAR, %CONST, %SEGMENT, %SWITCH,

      743    13455    2                  %SECTION, %PARA, %SYMREF_, %BLOCK, %DCB_, %CSIB, %CONDITION,
      744    13456    2                  %FD, %SD, %CD, %RD, %REALM, %DML_SET, %DML_KEY, %PRIVACY_KEY,
      745    13457    2                  %INDUCT, %POINTER, %SYM_CHAR, %ALPHABET, %CLASS, %MNEMONIC );
      746    13458
      747    13459    2              CALL PRINT_ST_ITEM ( ID$, OP );

  13459 27 004226   200054 633500                    EPPR3   OP,,AUTO
        27 004227   200062 453500                    STP3    @ID$+1,,AUTO
        27 004230   200003 236100                    LDQ     @ID$,,AUTO
        27 004231   200061 756100                    STQ     ARGS#+3,,AUTO
        27 004232   005360 701000 27                 TSX1    PRINT_ST_ITEM
        27 004233   000000 011000                    NOP     0
        27 004234   004364 710000 27                 TRA     s:13492

      748    13460
      749    13461
      750    13462
      751    13463    2         CASE ( %LEXEME );

      752    13464
      753    13465    2           SUBSTR( OBUF,PRINT_NDX+8,2 ) = ' [';

  13465 27 004235   200006 235100                    LDA     PRINT_NDX,,AUTO
        27 004236   040005 100400                    MLR     fill='040'O
        27 004237   000034 000002 26                 ADSC9   28                       cn=0,n=2
        27 004240   000002 000002 24                 ADSC9   OBUF+2,A                 cn=0,n=2

      754    13466    2           SUBSTR( OBUF,PRINT_NDX+10, ID$->DNT.TEXT.LENGTH ) =

  13466 27 004241   000000 471500                    LDP1    0,,PR0
        27 004242   100004 220100                    LDX0    4,,PR1
        27 004243   100004 221100                    LDX1    4,,PR1
PL6.E3A0      #001=Z8JW$WALK_TREE File=Z8JW.:Z8A6TSI                             SAT 08/09/97 13:33 Page:189
        27 004244   040045 100540                    MLR     fill='040'O
        27 004245   100004 400011                    ADSC9   4,,PR1                   cn=2,n=*X1
        27 004246   000002 400010 24                 ADSC9   OBUF+2,A                 cn=2,n=*X0

      755    13467    2                   ID$-> DNT.TEXT.NAME;
      756    13468    2           SUBSTR( OBUF,PRINT_NDX+10 + ID$->DNT.TEXT.LENGTH, 1) = ']';

  13468 27 004247   000000 471500                    LDP1    0,,PR0
        27 004250   100004 236100                    LDQ     4,,PR1
        27 004251   000022 772000                    QRL     18
        27 004252   200006 036100                    ADLQ    PRINT_NDX,,AUTO
        27 004253   040006 100400                    MLR     fill='040'O
        27 004254   000022 000001 28                 ADSC9   18                       cn=0,n=1
        27 004255   000002 400001 24                 ADSC9   OBUF+2,Q                 cn=2,n=1

      757    13469    2           CALL PRINT_ITEM( ID$, OP );

  13469 27 004256   200054 631500                    EPPR1   OP,,AUTO
        27 004257   200066 451500                    STP1    @ID$+1,,AUTO
        27 004260   200003 236100                    LDQ     @ID$,,AUTO
        27 004261   200065 756100                    STQ     MVANO_CMPAS_CODE+1,,AUTO
        27 004262   005200 701000 27                 TSX1    PRINT_ITEM
        27 004263   000000 011000                    NOP     0

      758    13470    2           SUBSTR( OBUF,PRINT_NDX+8  + ID$->DNT.TEXT.LENGTH ) = ' ';

  13470 27 004264   200003 470500                    LDP0    @ID$,,AUTO
        27 004265   000000 471500                    LDP1    0,,PR0
        27 004266   100004 236100                    LDQ     4,,PR1
        27 004267   000022 772000                    QRL     18
        27 004270   200006 036100                    ADLQ    PRINT_NDX,,AUTO
        27 004271   777617 620006                    EAX0    -113,QL
        27 004272   777777 660003                    ERX0    -1,DU
        27 004273   040046 100400                    MLR     fill='040'O
        27 004274   000013 000001 28                 ADSC9   11                       cn=0,n=1
        27 004275   000002 000010 24                 ADSC9   OBUF+2,Q                 cn=0,n=*X0
        27 004276   004364 710000 27                 TRA     s:13492
PL6.E3A0      #001=Z8JW$WALK_TREE File=Z8JW.:Z8A6TSI                             SAT 08/09/97 13:33 Page:190

      759    13471
      760    13472        %EJECT;
PL6.E3A0      #001=Z8JW$WALK_TREE File=Z8JW.:Z8A6TSI                             SAT 08/09/97 13:33 Page:191
      761    13473    2           CASE (ELSE);

      762    13474                /* ERROR */
      763    13475    2           STRING = OBUF;        /*  SAVE OBUF  */

  13475 27 004277   040100 100400                    MLR     fill='040'O
        27 004300   000000 000170 24                 ADSC9   OBUF                     cn=0,n=120
        27 004301   200016 000170                    ADSC9   STRING,,AUTO             cn=0,n=120

      764    13476    2           OBUF = 'Unknown ID encountered; ID = ';

  13476 27 004302   040000 100400                    MLR     fill='040'O
        27 004303   000035 000035 26                 ADSC9   29                       cn=0,n=29
        27 004304   000000 000170 24                 ADSC9   OBUF                     cn=0,n=120

      765    13477    2           CALL X8CO$CONV_TO_OCTAL(ID$->ILL.ID, CHAR12);

  13477 27 004305   000000 471500                    LDP1    0,,PR0
        27 004306   200007 633500                    EPPR3   CHAR12,,AUTO
        27 004307   200077 453500                    STP3    @OP+2,,AUTO
        27 004310   200076 451500                    STP1    @OP+1,,AUTO
        27 004311   200076 630500                    EPPR0   @OP+1,,AUTO
        27 004312   000011 631400 28                 EPPR1   9
        27 004313   000000 701000 xent               TSX1    X8CO$CONV_TO_OCTAL
        27 004314   000000 011000                    NOP     0

      766    13478    2           SUBSTR(OBUF,30,6) = SUBSTR(CHAR12,0,6);

  13478 27 004315   040000 100500                    MLR     fill='040'O
        27 004316   200007 000006                    ADSC9   CHAR12,,AUTO             cn=0,n=6
        27 004317   000007 400006 24                 ADSC9   OBUF+7                   cn=2,n=6

      767    13479    2           CALL Z9AL$DUMP_LINE;   /* WRITE OBUF */

  13479 27 004320   000007 631400 28                 EPPR1   7
        27 004321   000000 701000 xent               TSX1    Z9AL$DUMP_LINE
        27 004322   000000 011000                    NOP     0
PL6.E3A0      #001=Z8JW$WALK_TREE File=Z8JW.:Z8A6TSI                             SAT 08/09/97 13:33 Page:192

      768    13480    2           IF ID$-> ILL.ID <= %Z8A_NAMES_SIZE THEN

  13480 27 004323   200003 470500                    LDP0    @ID$,,AUTO
        27 004324   000000 471500                    LDP1    0,,PR0
        27 004325   100000 220100                    LDX0    0,,PR1
        27 004326   001130 100003                    CMPX0   600,DU
        27 004327   004345 603000 27                 TRC     s:13486

      769    13481    3             DO;

      770    13482    3               OBUF = 'Test access of Z8A_NAMES; ID = ';

  13482 27 004330   040000 100400                    MLR     fill='040'O
        27 004331   000045 000037 26                 ADSC9   37                       cn=0,n=31
        27 004332   000000 000170 24                 ADSC9   OBUF                     cn=0,n=120

      771    13483    3               SUBSTR( OBUF,35,8 ) = NAMES( ID$-> ILL.ID ) ;

  13483 27 004333   000000 471500                    LDP1    0,,PR0
        27 004334   100000 220100                    LDX0    0,,PR1
        27 004335   100000 020100                    ADLX0   0,,PR1
        27 004336   100000 020100                    ADLX0   0,,PR1
        27 004337   000000 635010                    EAA     0,X0
        27 004340   000020 771000                    ARL     16
        27 004341   040000 100405                    MLR     fill='040'O
        27 004342   000000 000010 xsym               ADSC9   NAMES,A                  cn=0,n=8
        27 004343   000010 600010 24                 ADSC9   OBUF+8                   cn=3,n=8

      772    13484    3             END;

  13484 27 004344   004350 710000 27                 TRA     s:13487

      773    13485    2           ELSE
      774    13486    2               OBUF = 'ID is illegal !!';

  13486 27 004345   040000 100400                    MLR     fill='040'O
PL6.E3A0      #001=Z8JW$WALK_TREE File=Z8JW.:Z8A6TSI                             SAT 08/09/97 13:33 Page:193
        27 004346   000055 000020 26                 ADSC9   45                       cn=0,n=16
        27 004347   000000 000170 24                 ADSC9   OBUF                     cn=0,n=120

      775    13487    2           CALL Z9AL$DUMP_LINE;   /* write obuf */

  13487 27 004350   000007 631400 28                 EPPR1   7
        27 004351   000000 701000 xent               TSX1    Z9AL$DUMP_LINE
        27 004352   000000 011000                    NOP     0

      776    13488    2           OBUF = STRING;       /* RESTORE OBUF AND CONTINUE TREEWALK */

  13488 27 004353   040000 100500                    MLR     fill='040'O
        27 004354   200016 000170                    ADSC9   STRING,,AUTO             cn=0,n=120
        27 004355   000000 000170 24                 ADSC9   OBUF                     cn=0,n=120

      777    13489    2           CALL BRANCH_BUILDER ( %ROP, PRINT_NDX );

  13489 27 004356   200006 630500                    EPPR0   PRINT_NDX,,AUTO
        27 004357   200074 450500                    STP0    @OP+1,,AUTO
        27 004360   000005 236000 28                 LDQ     5
        27 004361   200073 756100                    STQ     MAX_LENGTH+2,,AUTO
        27 004362   007255 701000 27                 TSX1    BRANCH_BUILDER
        27 004363   000000 011000                    NOP     0

      778    13490
      779    13491    2         END;  /* DO CASE */

      780    13492    1         RETURN;

  13492 27 004364   000000 702200 xent               TSX2  ! X66_ARET

      781    13493        %EJECT;
PL6.E3A0      #001=Z8JW$WALK_TREE File=Z8JW.:Z8A6TSI                             SAT 08/09/97 13:33 Page:194
      782    13494    1   Z8JW$ABSTRACT_TREES: ENTRY( ID$, OP_ARG, PRINT_ARG );

  13494 27 004365   000000 700200 xent  Z8JW$ABSTRA* TSX0  ! X66_AUTO_3
        27 004366   000220 000003                    ZERO    144,3

      783    13495
      784    13496
      785    13497    1       PRINT_NDX = PRINT_ARG + 10;

  13497 27 004367   200005 470500                    LDP0    @PRINT_ARG,,AUTO
        27 004370   000000 235100                    LDA     0,,PR0
        27 004371   000012 035007                    ADLA    10,DL
        27 004372   200006 755100                    STA     PRINT_NDX,,AUTO

      786    13498    1       OP = OP_ARG;

  13498 27 004373   200004 471500                    LDP1    @OP_ARG,,AUTO
        27 004374   100000 235100                    LDA     0,,PR1
        27 004375   200054 755100                    STA     OP,,AUTO

      787    13499    1       ABSTRACT = TRUE;

  13499 27 004376   400000 236003                    LDQ     -131072,DU
        27 004377   000002 756000 25                 STQ     ABSTRACT

      788    13500    1       IF OP_ARG = %LOWER THEN

  13500 27 004400   100000 235100                    LDA     0,,PR1
        27 004401   000003 115007                    CMPA    3,DL
        27 004402   004404 601000 27                 TNZ     s:13503

      789    13501    1         LOWER_TREES = TRUE;

  13501 27 004403   000000 756000 25                 STQ     LOWER_TREES

      790    13502
      791    13503    2       DO CASE( ID$ -> LX_LIST.ID );
PL6.E3A0      #001=Z8JW$WALK_TREE File=Z8JW.:Z8A6TSI                             SAT 08/09/97 13:33 Page:195

  13503 27 004404   200003 473500                    LDP3    @ID$,,AUTO
        27 004405   300000 474500                    LDP4    0,,PR3
        27 004406   400000 220100                    LDX0    0,,PR4
        27 004407   000010 100003                    CMPX0   8,DU
        27 004410   004412 602010 27                 TNC     s:13503+6,X0
        27 004411   005142 710000 27                 TRA     s:13593
        27 004412   004504 710000 27                 TRA     s:13518
        27 004413   004604 710000 27                 TRA     s:13538
        27 004414   004422 710000 27                 TRA     s:13507
        27 004415   005142 710000 27                 TRA     s:13593
        27 004416   004544 710000 27                 TRA     s:13528
        27 004417   004644 710000 27                 TRA     s:13548
        27 004420   004760 710000 27                 TRA     s:13565
        27 004421   005055 710000 27                 TRA     s:13581

      792    13504
      793    13505    2         CASE( %LX_LIST );

      794    13506
      795    13507    2           IF ID$ -> LX_LIST.LINK ~= ADDR(NIL) THEN

  13507 27 004422   400007 236100                    LDQ     7,,PR4
        27 004423   000002 116000 28                 CMPQ    2
        27 004424   004434 600000 27                 TZE     s:13510

      796    13508    2             CALL PRINT_AST_ITEM( ID$, %ROP );

  13508 27 004425   000005 236000 28                 LDQ     5
        27 004426   200062 756100                    STQ     @ID$+1,,AUTO
        27 004427   200003 236100                    LDQ     @ID$,,AUTO
        27 004430   200061 756100                    STQ     ARGS#+3,,AUTO
        27 004431   007300 701000 27                 TSX1    PRINT_AST_ITEM
        27 004432   000000 011000                    NOP     0
        27 004433   004442 710000 27                 TRA     s:13511

      797    13509    2           ELSE
PL6.E3A0      #001=Z8JW$WALK_TREE File=Z8JW.:Z8A6TSI                             SAT 08/09/97 13:33 Page:196
      798    13510    2             CALL PRINT_AST_ITEM( ID$, %LOP );

  13510 27 004434   000010 236000 28                 LDQ     8
        27 004435   200062 756100                    STQ     @ID$+1,,AUTO
        27 004436   200003 236100                    LDQ     @ID$,,AUTO
        27 004437   200061 756100                    STQ     ARGS#+3,,AUTO
        27 004440   007300 701000 27                 TSX1    PRINT_AST_ITEM
        27 004441   000000 011000                    NOP     0

      799    13511    2           IF ID$ -> LX_LIST.HEAD$ ~= ADDR(NIL) THEN

  13511 27 004442   200003 470500                    LDP0    @ID$,,AUTO
        27 004443   000000 471500                    LDP1    0,,PR0
        27 004444   100004 236100                    LDQ     4,,PR1
        27 004445   000002 116000 28                 CMPQ    2
        27 004446   004461 600000 27                 TZE     s:13513

      800    13512    2             CALL Z8JW$ABSTRACT_TREES( ID$-> LX_LIST.HEAD$, %ROP, PRINT_NDX );

  13512 27 004447   200006 633500                    EPPR3   PRINT_NDX,,AUTO
        27 004450   200100 453500                    STP3    @OP+3,,AUTO
        27 004451   000005 236000 28                 LDQ     5
        27 004452   200077 756100                    STQ     @OP+2,,AUTO
        27 004453   100004 634500                    EPPR4   4,,PR1
        27 004454   200076 454500                    STP4    @OP+1,,AUTO
        27 004455   200076 630500                    EPPR0   @OP+1,,AUTO
        27 004456   000006 631400 28                 EPPR1   6
        27 004457   004365 701000 27                 TSX1    s:13494
        27 004460   000000 011000                    NOP     0

      801    13513    2           IF ID$ -> LX_LIST.LINK ~= ADDR(NIL) THEN

  13513 27 004461   200003 470500                    LDP0    @ID$,,AUTO
        27 004462   000000 471500                    LDP1    0,,PR0
        27 004463   100007 236100                    LDQ     7,,PR1
        27 004464   000002 116000 28                 CMPQ    2
        27 004465   005177 600000 27                 TZE     s:13602
PL6.E3A0      #001=Z8JW$WALK_TREE File=Z8JW.:Z8A6TSI                             SAT 08/09/97 13:33 Page:197

      802    13514    2             CALL Z8JW$ABSTRACT_TREES( ID$-> LX_LIST.LINK, %ROP, PRINT_NDX-10);

  13514 27 004466   200006 235100                    LDA     PRINT_NDX,,AUTO
        27 004467   000012 135007                    SBLA    10,DL
        27 004470   200076 755100                    STA     @OP+1,,AUTO
        27 004471   200076 633500                    EPPR3   @OP+1,,AUTO
        27 004472   200101 453500                    STP3    @OP+4,,AUTO
        27 004473   000005 236000 28                 LDQ     5
        27 004474   200100 756100                    STQ     @OP+3,,AUTO
        27 004475   100007 634500                    EPPR4   7,,PR1
        27 004476   200077 454500                    STP4    @OP+2,,AUTO
        27 004477   200077 630500                    EPPR0   @OP+2,,AUTO
        27 004500   000006 631400 28                 EPPR1   6
        27 004501   004365 701000 27                 TSX1    s:13494
        27 004502   000000 011000                    NOP     0
        27 004503   005177 710000 27                 TRA     s:13602

      803    13515        %EJECT;
PL6.E3A0      #001=Z8JW$WALK_TREE File=Z8JW.:Z8A6TSI                             SAT 08/09/97 13:33 Page:198
      804    13516    2         CASE( %LX_TERMINAL );

      805    13517
      806    13518    2           IF ID$-> LX_TERMINAL.LINK ~= ADDR(NIL) THEN

  13518 27 004504   400007 236100                    LDQ     7,,PR4
        27 004505   000002 116000 28                 CMPQ    2
        27 004506   004535 600000 27                 TZE     s:13524

      807    13519    3             DO;

      808    13520    3               CALL PRINT_AST_ITEM( ID$, %ROP );

  13520 27 004507   000005 236000 28                 LDQ     5
        27 004510   200062 756100                    STQ     @ID$+1,,AUTO
        27 004511   200003 236100                    LDQ     @ID$,,AUTO
        27 004512   200061 756100                    STQ     ARGS#+3,,AUTO
        27 004513   007300 701000 27                 TSX1    PRINT_AST_ITEM
        27 004514   000000 011000                    NOP     0

      809    13521    3               CALL Z8JW$ABSTRACT_TREES( ID$->LX_TERMINAL.LINK, OP, PRINT_NDX-10);

  13521 27 004515   200003 470500                    LDP0    @ID$,,AUTO
        27 004516   000000 471500                    LDP1    0,,PR0
        27 004517   200006 235100                    LDA     PRINT_NDX,,AUTO
        27 004520   000012 135007                    SBLA    10,DL
        27 004521   200076 755100                    STA     @OP+1,,AUTO
        27 004522   200076 633500                    EPPR3   @OP+1,,AUTO
        27 004523   200101 453500                    STP3    @OP+4,,AUTO
        27 004524   200054 634500                    EPPR4   OP,,AUTO
        27 004525   200100 454500                    STP4    @OP+3,,AUTO
        27 004526   100007 635500                    EPPR5   7,,PR1
        27 004527   200077 455500                    STP5    @OP+2,,AUTO
        27 004530   200077 630500                    EPPR0   @OP+2,,AUTO
        27 004531   000006 631400 28                 EPPR1   6
        27 004532   004365 701000 27                 TSX1    s:13494
        27 004533   000000 011000                    NOP     0
PL6.E3A0      #001=Z8JW$WALK_TREE File=Z8JW.:Z8A6TSI                             SAT 08/09/97 13:33 Page:199

      810    13522    3             END;

  13522 27 004534   005177 710000 27                 TRA     s:13602

      811    13523    2           ELSE
      812    13524    2             CALL PRINT_AST_ITEM( ID$, %LOP );

  13524 27 004535   000010 236000 28                 LDQ     8
        27 004536   200062 756100                    STQ     @ID$+1,,AUTO
        27 004537   200003 236100                    LDQ     @ID$,,AUTO
        27 004540   200061 756100                    STQ     ARGS#+3,,AUTO
        27 004541   007300 701000 27                 TSX1    PRINT_AST_ITEM
        27 004542   000000 011000                    NOP     0
        27 004543   005177 710000 27                 TRA     s:13602

      813    13525        %EJECT;
PL6.E3A0      #001=Z8JW$WALK_TREE File=Z8JW.:Z8A6TSI                             SAT 08/09/97 13:33 Page:200
      814    13526    2         CASE( %LX_ETT_ITEM );

      815    13527
      816    13528    2           IF ID$-> LX_ETT_ITEM.LINK ~= ADDR(NIL) THEN

  13528 27 004544   400007 236100                    LDQ     7,,PR4
        27 004545   000002 116000 28                 CMPQ    2
        27 004546   004575 600000 27                 TZE     s:13534

      817    13529    3             DO;

      818    13530    3               CALL PRINT_AST_ITEM( ID$, %ROP);

  13530 27 004547   000005 236000 28                 LDQ     5
        27 004550   200062 756100                    STQ     @ID$+1,,AUTO
        27 004551   200003 236100                    LDQ     @ID$,,AUTO
        27 004552   200061 756100                    STQ     ARGS#+3,,AUTO
        27 004553   007300 701000 27                 TSX1    PRINT_AST_ITEM
        27 004554   000000 011000                    NOP     0

      819    13531    3               CALL Z8JW$ABSTRACT_TREES( ID$-> LX_ETT_ITEM.LINK, OP, PRINT_NDX-10);

  13531 27 004555   200003 470500                    LDP0    @ID$,,AUTO
        27 004556   000000 471500                    LDP1    0,,PR0
        27 004557   200006 235100                    LDA     PRINT_NDX,,AUTO
        27 004560   000012 135007                    SBLA    10,DL
        27 004561   200076 755100                    STA     @OP+1,,AUTO
        27 004562   200076 633500                    EPPR3   @OP+1,,AUTO
        27 004563   200101 453500                    STP3    @OP+4,,AUTO
        27 004564   200054 634500                    EPPR4   OP,,AUTO
        27 004565   200100 454500                    STP4    @OP+3,,AUTO
        27 004566   100007 635500                    EPPR5   7,,PR1
        27 004567   200077 455500                    STP5    @OP+2,,AUTO
        27 004570   200077 630500                    EPPR0   @OP+2,,AUTO
        27 004571   000006 631400 28                 EPPR1   6
        27 004572   004365 701000 27                 TSX1    s:13494
        27 004573   000000 011000                    NOP     0
PL6.E3A0      #001=Z8JW$WALK_TREE File=Z8JW.:Z8A6TSI                             SAT 08/09/97 13:33 Page:201

      820    13532    3             END;

  13532 27 004574   005177 710000 27                 TRA     s:13602

      821    13533    2           ELSE
      822    13534    2             CALL PRINT_AST_ITEM( ID$, %LOP);

  13534 27 004575   000010 236000 28                 LDQ     8
        27 004576   200062 756100                    STQ     @ID$+1,,AUTO
        27 004577   200003 236100                    LDQ     @ID$,,AUTO
        27 004600   200061 756100                    STQ     ARGS#+3,,AUTO
        27 004601   007300 701000 27                 TSX1    PRINT_AST_ITEM
        27 004602   000000 011000                    NOP     0
        27 004603   005177 710000 27                 TRA     s:13602

      823    13535        %EJECT;
PL6.E3A0      #001=Z8JW$WALK_TREE File=Z8JW.:Z8A6TSI                             SAT 08/09/97 13:33 Page:202
      824    13536    2         CASE( %LX_LARGE );

      825    13537
      826    13538    2           IF ID$ -> LX_LARGE.LINK ~= ADDR(NIL) THEN

  13538 27 004604   400007 236100                    LDQ     7,,PR4
        27 004605   000002 116000 28                 CMPQ    2
        27 004606   004635 600000 27                 TZE     s:13544

      827    13539    3             DO;

      828    13540    3               CALL PRINT_AST_ITEM( ID$, %ROP );

  13540 27 004607   000005 236000 28                 LDQ     5
        27 004610   200062 756100                    STQ     @ID$+1,,AUTO
        27 004611   200003 236100                    LDQ     @ID$,,AUTO
        27 004612   200061 756100                    STQ     ARGS#+3,,AUTO
        27 004613   007300 701000 27                 TSX1    PRINT_AST_ITEM
        27 004614   000000 011000                    NOP     0

      829    13541    3               CALL Z8JW$ABSTRACT_TREES( ID$->LX_LARGE.LINK, OP, PRINT_NDX-10 );

  13541 27 004615   200003 470500                    LDP0    @ID$,,AUTO
        27 004616   000000 471500                    LDP1    0,,PR0
        27 004617   200006 235100                    LDA     PRINT_NDX,,AUTO
        27 004620   000012 135007                    SBLA    10,DL
        27 004621   200076 755100                    STA     @OP+1,,AUTO
        27 004622   200076 633500                    EPPR3   @OP+1,,AUTO
        27 004623   200101 453500                    STP3    @OP+4,,AUTO
        27 004624   200054 634500                    EPPR4   OP,,AUTO
        27 004625   200100 454500                    STP4    @OP+3,,AUTO
        27 004626   100007 635500                    EPPR5   7,,PR1
        27 004627   200077 455500                    STP5    @OP+2,,AUTO
        27 004630   200077 630500                    EPPR0   @OP+2,,AUTO
        27 004631   000006 631400 28                 EPPR1   6
        27 004632   004365 701000 27                 TSX1    s:13494
        27 004633   000000 011000                    NOP     0
PL6.E3A0      #001=Z8JW$WALK_TREE File=Z8JW.:Z8A6TSI                             SAT 08/09/97 13:33 Page:203

      830    13542    3             END;

  13542 27 004634   005177 710000 27                 TRA     s:13602

      831    13543    2           ELSE
      832    13544    2             CALL PRINT_AST_ITEM( ID$, %LOP );

  13544 27 004635   000010 236000 28                 LDQ     8
        27 004636   200062 756100                    STQ     @ID$+1,,AUTO
        27 004637   200003 236100                    LDQ     @ID$,,AUTO
        27 004640   200061 756100                    STQ     ARGS#+3,,AUTO
        27 004641   007300 701000 27                 TSX1    PRINT_AST_ITEM
        27 004642   000000 011000                    NOP     0
        27 004643   005177 710000 27                 TRA     s:13602

      833    13545        %EJECT;
PL6.E3A0      #001=Z8JW$WALK_TREE File=Z8JW.:Z8A6TSI                             SAT 08/09/97 13:33 Page:204
      834    13546    2         CASE( %BINARY_OP );

      835    13547
      836    13548    2           IF ID$-> BINARY_OP.ROP$ ~= ADDR(NIL) THEN

  13548 27 004644   400002 236100                    LDQ     2,,PR4
        27 004645   000002 116000 28                 CMPQ    2
        27 004646   004661 600000 27                 TZE     s:13550

      837    13549    2             CALL Z8JW$ABSTRACT_TREES( ID$->BINARY_OP.ROP$, %ROP, PRINT_NDX);

  13549 27 004647   200006 635500                    EPPR5   PRINT_NDX,,AUTO
        27 004650   200100 455500                    STP5    @OP+3,,AUTO
        27 004651   000005 236000 28                 LDQ     5
        27 004652   200077 756100                    STQ     @OP+2,,AUTO
        27 004653   400002 636500                    EPPR6   2,,PR4
        27 004654   200076 456500                    STP6    @OP+1,,AUTO
        27 004655   200076 630500                    EPPR0   @OP+1,,AUTO
        27 004656   000006 631400 28                 EPPR1   6
        27 004657   004365 701000 27                 TSX1    s:13494
        27 004660   000000 011000                    NOP     0

      838    13550    2           IF ID$-> BINARY_OP.LINK ~= ADDR(NIL) THEN

  13550 27 004661   200003 470500                    LDP0    @ID$,,AUTO
        27 004662   000000 471500                    LDP1    0,,PR0
        27 004663   100007 236100                    LDQ     7,,PR1
        27 004664   000002 116000 28                 CMPQ    2
        27 004665   004675 600000 27                 TZE     s:13553

      839    13551    2             CALL PRINT_AST_ITEM( ID$, %ROP);

  13551 27 004666   000005 236000 28                 LDQ     5
        27 004667   200062 756100                    STQ     @ID$+1,,AUTO
        27 004670   200003 236100                    LDQ     @ID$,,AUTO
        27 004671   200061 756100                    STQ     ARGS#+3,,AUTO
        27 004672   007300 701000 27                 TSX1    PRINT_AST_ITEM
PL6.E3A0      #001=Z8JW$WALK_TREE File=Z8JW.:Z8A6TSI                             SAT 08/09/97 13:33 Page:205
        27 004673   000000 011000                    NOP     0
        27 004674   004703 710000 27                 TRA     s:13555

      840    13552    2           ELSE
      841    13553    2             CALL PRINT_AST_ITEM( ID$, %LOP);

  13553 27 004675   000010 236000 28                 LDQ     8
        27 004676   200062 756100                    STQ     @ID$+1,,AUTO
        27 004677   200003 236100                    LDQ     @ID$,,AUTO
        27 004700   200061 756100                    STQ     ARGS#+3,,AUTO
        27 004701   007300 701000 27                 TSX1    PRINT_AST_ITEM
        27 004702   000000 011000                    NOP     0

      842    13554
      843    13555    2           IF ID$-> BINARY_OP.LOP$ ~= ADDR(NIL) THEN

  13555 27 004703   200003 470500                    LDP0    @ID$,,AUTO
        27 004704   000000 471500                    LDP1    0,,PR0
        27 004705   100001 236100                    LDQ     1,,PR1
        27 004706   000002 116000 28                 CMPQ    2
        27 004707   004735 600000 27                 TZE     s:13560

      844    13556    3             DO;

      845    13557    3               CALL BRANCH_BUILDER( %ROP, PRINT_NDX+10 );

  13557 27 004710   200006 235100                    LDA     PRINT_NDX,,AUTO
        27 004711   000012 035007                    ADLA    10,DL
        27 004712   200163 755100                    STA     @OP+54,,AUTO
        27 004713   200163 631500                    EPPR1   @OP+54,,AUTO
        27 004714   200074 451500                    STP1    @OP+1,,AUTO
        27 004715   000005 236000 28                 LDQ     5
        27 004716   200073 756100                    STQ     MAX_LENGTH+2,,AUTO
        27 004717   007255 701000 27                 TSX1    BRANCH_BUILDER
        27 004720   000000 011000                    NOP     0

      846    13558    3               CALL Z8JW$ABSTRACT_TREES( ID$->BINARY_OP.LOP$, %LOP, PRINT_NDX );
PL6.E3A0      #001=Z8JW$WALK_TREE File=Z8JW.:Z8A6TSI                             SAT 08/09/97 13:33 Page:206

  13558 27 004721   200003 470500                    LDP0    @ID$,,AUTO
        27 004722   000000 471500                    LDP1    0,,PR0
        27 004723   200006 633500                    EPPR3   PRINT_NDX,,AUTO
        27 004724   200100 453500                    STP3    @OP+3,,AUTO
        27 004725   000010 236000 28                 LDQ     8
        27 004726   200077 756100                    STQ     @OP+2,,AUTO
        27 004727   100001 634500                    EPPR4   1,,PR1
        27 004730   200076 454500                    STP4    @OP+1,,AUTO
        27 004731   200076 630500                    EPPR0   @OP+1,,AUTO
        27 004732   000006 631400 28                 EPPR1   6
        27 004733   004365 701000 27                 TSX1    s:13494
        27 004734   000000 011000                    NOP     0

      847    13559    3             END;

      848    13560    2           IF ID$-> BINARY_OP.LINK ~= ADDR(NIL) THEN

  13560 27 004735   200003 470500                    LDP0    @ID$,,AUTO
        27 004736   000000 471500                    LDP1    0,,PR0
        27 004737   100007 236100                    LDQ     7,,PR1
        27 004740   000002 116000 28                 CMPQ    2
        27 004741   005177 600000 27                 TZE     s:13602

      849    13561    2             CALL Z8JW$ABSTRACT_TREES( ID$->BINARY_OP.LINK, OP, PRINT_NDX-10 );

  13561 27 004742   200006 235100                    LDA     PRINT_NDX,,AUTO
        27 004743   000012 135007                    SBLA    10,DL
        27 004744   200076 755100                    STA     @OP+1,,AUTO
        27 004745   200076 633500                    EPPR3   @OP+1,,AUTO
        27 004746   200101 453500                    STP3    @OP+4,,AUTO
        27 004747   200054 634500                    EPPR4   OP,,AUTO
        27 004750   200100 454500                    STP4    @OP+3,,AUTO
        27 004751   100007 635500                    EPPR5   7,,PR1
        27 004752   200077 455500                    STP5    @OP+2,,AUTO
        27 004753   200077 630500                    EPPR0   @OP+2,,AUTO
        27 004754   000006 631400 28                 EPPR1   6
PL6.E3A0      #001=Z8JW$WALK_TREE File=Z8JW.:Z8A6TSI                             SAT 08/09/97 13:33 Page:207
        27 004755   004365 701000 27                 TSX1    s:13494
        27 004756   000000 011000                    NOP     0
        27 004757   005177 710000 27                 TRA     s:13602

      850    13562        %EJECT;
PL6.E3A0      #001=Z8JW$WALK_TREE File=Z8JW.:Z8A6TSI                             SAT 08/09/97 13:33 Page:208
      851    13563    2         CASE( %UNARY_OP );

      852    13564
      853    13565    2           IF ID$-> UNARY_OP.LINK ~= ADDR(NIL) THEN

  13565 27 004760   400007 236100                    LDQ     7,,PR4
        27 004761   000002 116000 28                 CMPQ    2
        27 004762   004772 600000 27                 TZE     s:13568

      854    13566    2             CALL PRINT_AST_ITEM( ID$, %ROP );

  13566 27 004763   000005 236000 28                 LDQ     5
        27 004764   200062 756100                    STQ     @ID$+1,,AUTO
        27 004765   200003 236100                    LDQ     @ID$,,AUTO
        27 004766   200061 756100                    STQ     ARGS#+3,,AUTO
        27 004767   007300 701000 27                 TSX1    PRINT_AST_ITEM
        27 004770   000000 011000                    NOP     0
        27 004771   005000 710000 27                 TRA     s:13570

      855    13567    2           ELSE
      856    13568    2             CALL PRINT_AST_ITEM( ID$, %LOP );

  13568 27 004772   000010 236000 28                 LDQ     8
        27 004773   200062 756100                    STQ     @ID$+1,,AUTO
        27 004774   200003 236100                    LDQ     @ID$,,AUTO
        27 004775   200061 756100                    STQ     ARGS#+3,,AUTO
        27 004776   007300 701000 27                 TSX1    PRINT_AST_ITEM
        27 004777   000000 011000                    NOP     0

      857    13569
      858    13570    2           IF ID$-> UNARY_OP.LOP$ ~= ADDR(NIL) THEN

  13570 27 005000   200003 470500                    LDP0    @ID$,,AUTO
        27 005001   000000 471500                    LDP1    0,,PR0
        27 005002   100001 236100                    LDQ     1,,PR1
        27 005003   000002 116000 28                 CMPQ    2
        27 005004   005032 600000 27                 TZE     s:13576
PL6.E3A0      #001=Z8JW$WALK_TREE File=Z8JW.:Z8A6TSI                             SAT 08/09/97 13:33 Page:209

      859    13571    3             DO;

      860    13572    3               CALL BRANCH_BUILDER( %ROP, PRINT_NDX+10 );

  13572 27 005005   200006 235100                    LDA     PRINT_NDX,,AUTO
        27 005006   000012 035007                    ADLA    10,DL
        27 005007   200164 755100                    STA     @OP+55,,AUTO
        27 005010   200164 631500                    EPPR1   @OP+55,,AUTO
        27 005011   200074 451500                    STP1    @OP+1,,AUTO
        27 005012   000005 236000 28                 LDQ     5
        27 005013   200073 756100                    STQ     MAX_LENGTH+2,,AUTO
        27 005014   007255 701000 27                 TSX1    BRANCH_BUILDER
        27 005015   000000 011000                    NOP     0

      861    13573    3               CALL Z8JW$ABSTRACT_TREES( ID$->UNARY_OP.LOP$, %LOP, PRINT_NDX);

  13573 27 005016   200003 470500                    LDP0    @ID$,,AUTO
        27 005017   000000 471500                    LDP1    0,,PR0
        27 005020   200006 633500                    EPPR3   PRINT_NDX,,AUTO
        27 005021   200100 453500                    STP3    @OP+3,,AUTO
        27 005022   000010 236000 28                 LDQ     8
        27 005023   200077 756100                    STQ     @OP+2,,AUTO
        27 005024   100001 634500                    EPPR4   1,,PR1
        27 005025   200076 454500                    STP4    @OP+1,,AUTO
        27 005026   200076 630500                    EPPR0   @OP+1,,AUTO
        27 005027   000006 631400 28                 EPPR1   6
        27 005030   004365 701000 27                 TSX1    s:13494
        27 005031   000000 011000                    NOP     0

      862    13574    3             END;

      863    13575
      864    13576    2           IF ID$-> UNARY_OP.LINK ~= ADDR(NIL) THEN

  13576 27 005032   200003 470500                    LDP0    @ID$,,AUTO
        27 005033   000000 471500                    LDP1    0,,PR0
PL6.E3A0      #001=Z8JW$WALK_TREE File=Z8JW.:Z8A6TSI                             SAT 08/09/97 13:33 Page:210
        27 005034   100007 236100                    LDQ     7,,PR1
        27 005035   000002 116000 28                 CMPQ    2
        27 005036   005177 600000 27                 TZE     s:13602

      865    13577    2             CALL Z8JW$ABSTRACT_TREES( ID$->UNARY_OP.LINK, OP, PRINT_NDX-10 );

  13577 27 005037   200006 235100                    LDA     PRINT_NDX,,AUTO
        27 005040   000012 135007                    SBLA    10,DL
        27 005041   200076 755100                    STA     @OP+1,,AUTO
        27 005042   200076 633500                    EPPR3   @OP+1,,AUTO
        27 005043   200101 453500                    STP3    @OP+4,,AUTO
        27 005044   200054 634500                    EPPR4   OP,,AUTO
        27 005045   200100 454500                    STP4    @OP+3,,AUTO
        27 005046   100007 635500                    EPPR5   7,,PR1
        27 005047   200077 455500                    STP5    @OP+2,,AUTO
        27 005050   200077 630500                    EPPR0   @OP+2,,AUTO
        27 005051   000006 631400 28                 EPPR1   6
        27 005052   004365 701000 27                 TSX1    s:13494
        27 005053   000000 011000                    NOP     0
        27 005054   005177 710000 27                 TRA     s:13602

      866    13578        %EJECT;
PL6.E3A0      #001=Z8JW$WALK_TREE File=Z8JW.:Z8A6TSI                             SAT 08/09/97 13:33 Page:211
      867    13579    2         CASE( %ILS_LIST );

      868    13580
      869    13581    2           IF ID$-> ILS_LIST.LINK ~= ADDR(NIL) THEN

  13581 27 005055   400007 236100                    LDQ     7,,PR4
        27 005056   000002 116000 28                 CMPQ    2
        27 005057   005067 600000 27                 TZE     s:13584

      870    13582    2             CALL PRINT_AST_ITEM( ID$, %ROP );

  13582 27 005060   000005 236000 28                 LDQ     5
        27 005061   200062 756100                    STQ     @ID$+1,,AUTO
        27 005062   200003 236100                    LDQ     @ID$,,AUTO
        27 005063   200061 756100                    STQ     ARGS#+3,,AUTO
        27 005064   007300 701000 27                 TSX1    PRINT_AST_ITEM
        27 005065   000000 011000                    NOP     0
        27 005066   005075 710000 27                 TRA     s:13586

      871    13583    2           ELSE
      872    13584    2             CALL PRINT_AST_ITEM( ID$, %LOP );

  13584 27 005067   000010 236000 28                 LDQ     8
        27 005070   200062 756100                    STQ     @ID$+1,,AUTO
        27 005071   200003 236100                    LDQ     @ID$,,AUTO
        27 005072   200061 756100                    STQ     ARGS#+3,,AUTO
        27 005073   007300 701000 27                 TSX1    PRINT_AST_ITEM
        27 005074   000000 011000                    NOP     0

      873    13585
      874    13586    2           IF ID$-> ILS_LIST.HEAD$ ~= ADDR(NIL) THEN

  13586 27 005075   200003 470500                    LDP0    @ID$,,AUTO
        27 005076   000000 471500                    LDP1    0,,PR0
        27 005077   100001 236100                    LDQ     1,,PR1
        27 005100   000002 116000 28                 CMPQ    2
        27 005101   005117 600000 27                 TZE     s:13589
PL6.E3A0      #001=Z8JW$WALK_TREE File=Z8JW.:Z8A6TSI                             SAT 08/09/97 13:33 Page:212

      875    13587    2             CALL Z8JW$ABSTRACT_TREES( ID$-> ILS_LIST.HEAD$, OP, PRINT_NDX-10 );

  13587 27 005102   200006 235100                    LDA     PRINT_NDX,,AUTO
        27 005103   000012 135007                    SBLA    10,DL
        27 005104   200076 755100                    STA     @OP+1,,AUTO
        27 005105   200076 633500                    EPPR3   @OP+1,,AUTO
        27 005106   200101 453500                    STP3    @OP+4,,AUTO
        27 005107   200054 634500                    EPPR4   OP,,AUTO
        27 005110   200100 454500                    STP4    @OP+3,,AUTO
        27 005111   100001 635500                    EPPR5   1,,PR1
        27 005112   200077 455500                    STP5    @OP+2,,AUTO
        27 005113   200077 630500                    EPPR0   @OP+2,,AUTO
        27 005114   000006 631400 28                 EPPR1   6
        27 005115   004365 701000 27                 TSX1    s:13494
        27 005116   000000 011000                    NOP     0

      876    13588
      877    13589    2           IF ID$-> ILS_LIST.LINK ~= ADDR(NIL) THEN

  13589 27 005117   200003 470500                    LDP0    @ID$,,AUTO
        27 005120   000000 471500                    LDP1    0,,PR0
        27 005121   100007 236100                    LDQ     7,,PR1
        27 005122   000002 116000 28                 CMPQ    2
        27 005123   005177 600000 27                 TZE     s:13602

      878    13590    2            CALL Z8JW$ABSTRACT_TREES( ID$->ILS_LIST.LINK, OP, PRINT_NDX-10 );

  13590 27 005124   200006 235100                    LDA     PRINT_NDX,,AUTO
        27 005125   000012 135007                    SBLA    10,DL
        27 005126   200076 755100                    STA     @OP+1,,AUTO
        27 005127   200076 633500                    EPPR3   @OP+1,,AUTO
        27 005130   200101 453500                    STP3    @OP+4,,AUTO
        27 005131   200054 634500                    EPPR4   OP,,AUTO
        27 005132   200100 454500                    STP4    @OP+3,,AUTO
        27 005133   100007 635500                    EPPR5   7,,PR1
        27 005134   200077 455500                    STP5    @OP+2,,AUTO
PL6.E3A0      #001=Z8JW$WALK_TREE File=Z8JW.:Z8A6TSI                             SAT 08/09/97 13:33 Page:213
        27 005135   200077 630500                    EPPR0   @OP+2,,AUTO
        27 005136   000006 631400 28                 EPPR1   6
        27 005137   004365 701000 27                 TSX1    s:13494
        27 005140   000000 011000                    NOP     0
        27 005141   005177 710000 27                 TRA     s:13602

      879    13591        %EJECT;
PL6.E3A0      #001=Z8JW$WALK_TREE File=Z8JW.:Z8A6TSI                             SAT 08/09/97 13:33 Page:214
      880    13592    2         CASE( ELSE );

      881    13593    2           STRING = OBUF;

  13593 27 005142   040100 100400                    MLR     fill='040'O
        27 005143   000000 000170 24                 ADSC9   OBUF                     cn=0,n=120
        27 005144   200016 000170                    ADSC9   STRING,,AUTO             cn=0,n=120

      882    13594    2           OBUF = 'Unknown ID encountered:  ID = ';

  13594 27 005145   040000 100400                    MLR     fill='040'O
        27 005146   000061 000036 26                 ADSC9   49                       cn=0,n=30
        27 005147   000000 000170 24                 ADSC9   OBUF                     cn=0,n=120

      883    13595    2           CALL X8CO$CONV_TO_OCTAL( ID$->LX_LIST.ID, CHAR12);

  13595 27 005150   300000 474500                    LDP4    0,,PR3
        27 005151   200007 635500                    EPPR5   CHAR12,,AUTO
        27 005152   200077 455500                    STP5    @OP+2,,AUTO
        27 005153   200076 454500                    STP4    @OP+1,,AUTO
        27 005154   200076 630500                    EPPR0   @OP+1,,AUTO
        27 005155   000011 631400 28                 EPPR1   9
        27 005156   000000 701000 xent               TSX1    X8CO$CONV_TO_OCTAL
        27 005157   000000 011000                    NOP     0

      884    13596    2           SUBSTR( OBUF,30,3) = SUBSTR( CHAR12,2,3 );

  13596 27 005160   040000 100500                    MLR     fill='040'O
        27 005161   200007 400003                    ADSC9   CHAR12,,AUTO             cn=2,n=3
        27 005162   000007 400003 24                 ADSC9   OBUF+7                   cn=2,n=3

      885    13597    2           CALL Z9AL$DUMP_LINE;

  13597 27 005163   000007 631400 28                 EPPR1   7
        27 005164   000000 701000 xent               TSX1    Z9AL$DUMP_LINE
        27 005165   000000 011000                    NOP     0

PL6.E3A0      #001=Z8JW$WALK_TREE File=Z8JW.:Z8A6TSI                             SAT 08/09/97 13:33 Page:215
      886    13598    2           OBUF = STRING;         /* Restore obuf */

  13598 27 005166   040000 100500                    MLR     fill='040'O
        27 005167   200016 000170                    ADSC9   STRING,,AUTO             cn=0,n=120
        27 005170   000000 000170 24                 ADSC9   OBUF                     cn=0,n=120

      887    13599    2           CALL BRANCH_BUILDER ( %ROP, PRINT_NDX );

  13599 27 005171   200006 630500                    EPPR0   PRINT_NDX,,AUTO
        27 005172   200074 450500                    STP0    @OP+1,,AUTO
        27 005173   000005 236000 28                 LDQ     5
        27 005174   200073 756100                    STQ     MAX_LENGTH+2,,AUTO
        27 005175   007255 701000 27                 TSX1    BRANCH_BUILDER
        27 005176   000000 011000                    NOP     0

      888    13600
      889    13601    2       END;  /*  case lx$-> lx_list.id */

      890    13602    1       RETURN;

  13602 27 005177   000000 702200 xent               TSX2  ! X66_ARET

      891    13603        %EJECT;
PL6.E3A0      #001=Z8JW$WALK_TREE File=Z8JW.:Z8A6TSI                             SAT 08/09/97 13:33 Page:216
      892    13604        /*I*     NAME:         PRINT_ITEM
      893    13605                               ---------------
      894    13606                 THIS ROUTINE SETS UP OBUF TO BE PRINTED FOR ALL
      895    13607                 NAMED AND NIL ITEMS, THEN CALLS THE PRINT ROUTINE TO
      896    13608                 TO PRINT AND CLEAR OBUF.  LASTLY, A CALL IS MADE TO
      897    13609                 THE ROUTINE WHICH RESETS VERTICAL TREE BRANCHES.
      898    13610
      899    13611
      900    13612        */
      901    13613    1     PRINT_ITEM: PROC ( ID$, OP);

  13613 27 005200   200064 741300       PRINT_ITEM   STX1  ! I+1,,AUTO

      902    13614
      903    13615    2       DCL ID$   PTR;
      904    13616    2       DCL OP        UBIN WORD;
      905    13617    2       DCL I         SBIN WORD;
      906    13618    2       DCL NAME_LENGTH SBIN WORD;
      907    13619    2       DCL MAX_LENGTH  SBIN WORD;
      908    13620
      909    13621        %EJECT;
PL6.E3A0      #001=Z8JW$WALK_TREE File=Z8JW.:Z8A6TSI                             SAT 08/09/97 13:33 Page:217
      910    13622    2       IF ID$ ~= ADDR(NIL) THEN

  13622 27 005201   200065 470500                    LDP0    @ID$,,AUTO
        27 005202   000000 236100                    LDQ     0,,PR0
        27 005203   000002 116000 28                 CMPQ    2
        27 005204   005321 600000 27                 TZE     s:13679

      911    13623    3         DO;

      912    13624
      913    13625            /*V*                     HORIZONTAL TREE BRANCHES
      914    13626                                     ---------- ---- --------
      915    13627                    CHECK FOR TREE LEAF, IF LEAF PUT IN A SHORTENED
      916    13628                    FILL CHARACTER TO ELIMINATE TRAILING DASHES.
      917    13629            */
      918    13630
      919    13631    3           IF ID$-> ILL.ID >  %LAST_ILL

  13631 27 005205   000000 471500                    LDP1    0,,PR0
        27 005206   100000 220100                    LDX0    0,,PR1
        27 005207   000447 100003                    CMPX0   295,DU
        27 005210   005222 602000 27                 TNC     s:13639
        27 005211   001112 100003                    CMPX0   586,DU
        27 005212   005222 600000 27                 TZE     s:13639

      920    13632    3           AND ID$-> ILL.ID ~= %ARGLIST THEN
      921    13633    4             DO;

      922    13634    4               SUBSTR (OBUF, PRINT_NDX, 8) = ':--'; /* SHORT FILL */

  13634 27 005213   200006 235100                    LDA     PRINT_NDX,,AUTO
        27 005214   040005 100400                    MLR     fill='040'O
        27 005215   000000 000003 26                 ADSC9   0                        cn=0,n=3
        27 005216   000000 000010 24                 ADSC9   OBUF,A                   cn=0,n=8

      923    13635    4               MAX_LENGTH = 7;      /* ALLOW FULL NAME LENGTH */

PL6.E3A0      #001=Z8JW$WALK_TREE File=Z8JW.:Z8A6TSI                             SAT 08/09/97 13:33 Page:218
  13635 27 005217   000007 236007                    LDQ     7,DL
        27 005220   200071 756100                    STQ     MAX_LENGTH,,AUTO

      924    13636    4             END;

  13636 27 005221   005230 710000 27                 TRA     s:13655

      925    13637    3           ELSE
      926    13638    4             DO;

      927    13639    4               MAX_LENGTH = 4;  /* CUT LENGTH TO RETAIN DASHES */

  13639 27 005222   000004 235007                    LDA     4,DL
        27 005223   200071 755100                    STA     MAX_LENGTH,,AUTO

      928    13640    4               SUBSTR (OBUF, PRINT_NDX, 8) = ':-------';  /*LONG FILLER */

  13640 27 005224   200006 235100                    LDA     PRINT_NDX,,AUTO
        27 005225   040005 100400                    MLR     fill='040'O
        27 005226   000071 000010 26                 ADSC9   57                       cn=0,n=8
        27 005227   000000 000010 24                 ADSC9   OBUF,A                   cn=0,n=8

      929    13641    4             END;

      930    13642
      931    13643           /*V*                     NAMED ITEMS
      932    13644                                    ----- -----
      933    13645                DETERMINE LENGTH OF NAME AND PLACE INTO OBUF BETWEEN
      934    13646                HORIZONTAL TREE BRANCHES.  CONVERT LOCATION TO OCTAL
      935    13647                AND PLACE INTO FRONT OF OBUF.  PRINT AND CLEAR OBUF.
      936    13648                SET VERTICAL TREE BRANCHES AS NEEDED.
      937    13649
      938    13650            */
      939    13651
      940    13652
      941    13653
      942    13654
PL6.E3A0      #001=Z8JW$WALK_TREE File=Z8JW.:Z8A6TSI                             SAT 08/09/97 13:33 Page:219
      943    13655    3           NAME_LENGTH = 0;

  13655 27 005230   200070 450100                    STZ     NAME_LENGTH,,AUTO

      944    13656    4           DO I = 0 TO MAX_LENGTH;

  13656 27 005231   200067 450100                    STZ     I,,AUTO
        27 005232   005251 710000 27                 TRA     s:13659+1

      945    13657    4             IF SUBSTR(NAMES(ID$ -> ILL.ID),I,1) ~= ' ' THEN

  13657 27 005233   200065 470500                    LDP0    @ID$,,AUTO
        27 005234   000000 471500                    LDP1    0,,PR0
        27 005235   100000 220100                    LDX0    0,,PR1
        27 005236   100000 020100                    ADLX0   0,,PR1
        27 005237   100000 020100                    ADLX0   0,,PR1
        27 005240   000000 636010                    EAQ     0,X0
        27 005241   000020 772000                    QRL     16
        27 005242   200067 036100                    ADLQ    I,,AUTO
        27 005243   040000 106406                    CMPC    fill='040'O
        27 005244   000000 000001 xsym               ADSC9   NAMES,Q                  cn=0,n=1
        27 005245   000013 000001 28                 ADSC9   11                       cn=0,n=1
        27 005246   005250 600000 27                 TZE     s:13659

      946    13658    4               NAME_LENGTH = NAME_LENGTH + 1;

  13658 27 005247   200070 054100                    AOS     NAME_LENGTH,,AUTO

      947    13659    4           END; /* DO TO */

  13659 27 005250   200067 054100                    AOS     I,,AUTO
        27 005251   200067 236100                    LDQ     I,,AUTO
        27 005252   200071 116100                    CMPQ    MAX_LENGTH,,AUTO
        27 005253   005233 604400 27                 TMOZ    s:13657

      948    13660
      949    13661    3           SUBSTR(OBUF,PRINT_NDX+2, NAME_LENGTH) =
PL6.E3A0      #001=Z8JW$WALK_TREE File=Z8JW.:Z8A6TSI                             SAT 08/09/97 13:33 Page:220

  13661 27 005254   000000 471500                    LDP1    0,,PR0
        27 005255   100000 220100                    LDX0    0,,PR1
        27 005256   100000 020100                    ADLX0   0,,PR1
        27 005257   100000 020100                    ADLX0   0,,PR1
        27 005260   000000 635010                    EAA     0,X0
        27 005261   000020 771000                    ARL     16
        27 005262   200070 721100                    LXL1    NAME_LENGTH,,AUTO
        27 005263   200006 236100                    LDQ     PRINT_NDX,,AUTO
        27 005264   040046 100445                    MLR     fill='040'O
        27 005265   000000 000011 xsym               ADSC9   NAMES,A                  cn=0,n=*X1
        27 005266   000000 400011 24                 ADSC9   OBUF,Q                   cn=2,n=*X1

      950    13662    3                SUBSTR( NAMES(ID$ -> ILL.ID),0,NAME_LENGTH );
      951    13663    3           CALL X8CO$CONV_TO_OCTAL (ID$, CHAR12 );

  13663 27 005267   200007 631500                    EPPR1   CHAR12,,AUTO
        27 005270   200077 451500                    STP1    @OP+2,,AUTO
        27 005271   200065 236100                    LDQ     @ID$,,AUTO
        27 005272   200076 756100                    STQ     @OP+1,,AUTO
        27 005273   200076 630500                    EPPR0   @OP+1,,AUTO
        27 005274   000011 631400 28                 EPPR1   9
        27 005275   000000 701000 xent               TSX1    X8CO$CONV_TO_OCTAL
        27 005276   000000 011000                    NOP     0

      952    13664    3           CALL PRINT_ADDRESS( ID$ );

  13664 27 005277   200065 236100                    LDQ     @ID$,,AUTO
        27 005300   200073 756100                    STQ     MAX_LENGTH+2,,AUTO
        27 005301   007177 701000 27                 TSX1    PRINT_ADDRESS
        27 005302   000000 011000                    NOP     0

      953    13665    3           CALL PRINT_AND_CLEAR( PRINT_NDX, 8, OP );

  13665 27 005303   200066 236100                    LDQ     @OP,,AUTO
        27 005304   000024 235000 28                 LDA     20
        27 005305   200074 757100                    STAQ    @OP+1,,AUTO
PL6.E3A0      #001=Z8JW$WALK_TREE File=Z8JW.:Z8A6TSI                             SAT 08/09/97 13:33 Page:221
        27 005306   200006 630500                    EPPR0   PRINT_NDX,,AUTO
        27 005307   200073 450500                    STP0    MAX_LENGTH+2,,AUTO
        27 005310   007235 701000 27                 TSX1    PRINT_AND_CLEAR
        27 005311   000000 011000                    NOP     0

      954    13666    3           CALL BRANCH_BUILDER( OP, PRINT_NDX );

  13666 27 005312   200006 630500                    EPPR0   PRINT_NDX,,AUTO
        27 005313   200074 450500                    STP0    @OP+1,,AUTO
        27 005314   200066 236100                    LDQ     @OP,,AUTO
        27 005315   200073 756100                    STQ     MAX_LENGTH+2,,AUTO
        27 005316   007255 701000 27                 TSX1    BRANCH_BUILDER
        27 005317   000000 011000                    NOP     0

      955    13667    3         END; /*  IF DO... */

  13667 27 005320   005356 710000 27                 TRA     s:13687

      956    13668
      957    13669
      958    13670            /*V*                    NIL ITEMS
      959    13671                                    --- -----
      960    13672                 INSERT THE NIL MESSAGE INTO OBUF, BLANK THE LOCATION #
      961    13673                 IN OBUF, PRINT AND CLEAR OBUF. THEN INSERT VERTICAL
      962    13674                 BRANCHES IF NEEDED.
      963    13675            */
      964    13676
      965    13677    2       ELSE
      966    13678    3         DO;

      967    13679    3           SUBSTR ( OBUF,PRINT_NDX+8, 8 ) = ':--  NIL';

  13679 27 005321   200006 235100                    LDA     PRINT_NDX,,AUTO
        27 005322   040005 100400                    MLR     fill='040'O
        27 005323   000073 000010 26                 ADSC9   59                       cn=0,n=8
        27 005324   000002 000010 24                 ADSC9   OBUF+2,A                 cn=0,n=8

PL6.E3A0      #001=Z8JW$WALK_TREE File=Z8JW.:Z8A6TSI                             SAT 08/09/97 13:33 Page:222
      968    13680    3           CALL PRINT_ADDRESS( ADDR(NIL) );

  13680 27 005325   000002 236000 28                 LDQ     2
        27 005326   200165 756100                    STQ     @OP+56,,AUTO
        27 005327   200165 631500                    EPPR1   @OP+56,,AUTO
        27 005330   200073 451500                    STP1    MAX_LENGTH+2,,AUTO
        27 005331   007177 701000 27                 TSX1    PRINT_ADDRESS
        27 005332   000000 011000                    NOP     0

      969    13681    3           CALL PRINT_AND_CLEAR ( PRINT_NDX+8, 8, OP );

  13681 27 005333   200006 235100                    LDA     PRINT_NDX,,AUTO
        27 005334   000010 035007                    ADLA    8,DL
        27 005335   200166 755100                    STA     @OP+57,,AUTO
        27 005336   200066 236100                    LDQ     @OP,,AUTO
        27 005337   000024 235000 28                 LDA     20
        27 005340   200074 757100                    STAQ    @OP+1,,AUTO
        27 005341   200166 630500                    EPPR0   @OP+57,,AUTO
        27 005342   200073 450500                    STP0    MAX_LENGTH+2,,AUTO
        27 005343   007235 701000 27                 TSX1    PRINT_AND_CLEAR
        27 005344   000000 011000                    NOP     0

      970    13682    3           CALL BRANCH_BUILDER ( OP, PRINT_NDX+8 );

  13682 27 005345   200006 235100                    LDA     PRINT_NDX,,AUTO
        27 005346   000010 035007                    ADLA    8,DL
        27 005347   200167 755100                    STA     @OP+58,,AUTO
        27 005350   200167 630500                    EPPR0   @OP+58,,AUTO
        27 005351   200074 450500                    STP0    @OP+1,,AUTO
        27 005352   200066 236100                    LDQ     @OP,,AUTO
        27 005353   200073 756100                    STQ     MAX_LENGTH+2,,AUTO
        27 005354   007255 701000 27                 TSX1    BRANCH_BUILDER
        27 005355   000000 011000                    NOP     0

      971    13683    3         END; /* ELSE DO */

      972    13684
PL6.E3A0      #001=Z8JW$WALK_TREE File=Z8JW.:Z8A6TSI                             SAT 08/09/97 13:33 Page:223
      973    13685
      974    13686
      975    13687    2     END PRINT_ITEM; /* END PROC */

  13687 27 005356   200064 221300                    LDX1  ! I+1,,AUTO
        27 005357   000001 702211                    TSX2  ! 1,X1

      976    13688
      977    13689        %EJECT;
PL6.E3A0      #001=Z8JW$WALK_TREE File=Z8JW.:Z8A6TSI                             SAT 08/09/97 13:33 Page:224
      978    13690        /*I*     NAME:         PRINT_ST_ITEM
      979    13691                               ------------------
      980    13692
      981    13693                THIS ROUTINE INSERTS EXTERNAL SYMBOL NAMES ENCLOSED
      982    13694                IN BRACKETS INTO OBUF FOR ALL SYMBOL TABLE ITEMS WHICH
      983    13695                HAVE EXTERNAL SYMBOL S ASSOCIATED WITH THEM.  THEN A
      984    13696                CALL IS MADE TO PRINT_ITEM TO SET UP THE REST OF OBUF.
      985    13697
      986    13698        */
      987    13699    1     PRINT_ST_ITEM: PROC ( ID$, OP );

  13699 27 005360   200060 741300       PRINT_ST_IT* STX1  ! ARGS#+2,,AUTO

      988    13700    2       DCL ID$   PTR;
      989    13701    2       DCL OP        UBIN WORD;
      990    13702    2       DCL I         SBIN WORD;
      991    13703
      992    13704
      993    13705            /*V*  DETERMINE IF ITEM IS A SYMBOL TABLE ITEM WHICH
      994    13706                  HAS AN EXTERNAL SYMBOL NAME ASSOCIATED WITH.  IF SO,
      995    13707                  THEN INSERT THAT NAME INTO OBUF.
      996    13708
      997    13709            */
      998    13710
      999    13711
     1000    13712
     1001    13713    2       IF  ID$ -> ST.ID >= %FIRST_ST

  13713 27 005361   200061 470500                    LDP0    @ID$,,AUTO
        27 005362   000000 471500                    LDP1    0,,PR0
        27 005363   100000 220100                    LDX0    0,,PR1
        27 005364   000751 100003                    CMPX0   489,DU
        27 005365   005443 602000 27                 TNC     s:13735
        27 005366   001010 100003                    CMPX0   520,DU
        27 005367   005443 603000 27                 TRC     s:13735

     1002    13714    2       AND ID$ -> ST.ID <= %LAST_ST THEN
PL6.E3A0      #001=Z8JW$WALK_TREE File=Z8JW.:Z8A6TSI                             SAT 08/09/97 13:33 Page:225
     1003    13715    3         DO;

     1004    13716    3           IF  ID$ -> ST.DNT$ = ADDR(NIL) THEN

  13716 27 005370   100006 236100                    LDQ     6,,PR1
        27 005371   000002 116000 28                 CMPQ    2
        27 005372   005431 601000 27                 TNZ     s:13726

     1005    13717    4             DO;

     1006    13718    4               CALL X8CO$CONV_TO_OCTAL( ID$-> CONST.CONSTI.WORD1, CHAR12);

  13718 27 005373   200007 633500                    EPPR3   CHAR12,,AUTO
        27 005374   200077 453500                    STP3    @OP+2,,AUTO
        27 005375   100010 634500                    EPPR4   8,,PR1
        27 005376   200076 454500                    STP4    @OP+1,,AUTO
        27 005377   200076 630500                    EPPR0   @OP+1,,AUTO
        27 005400   000011 631400 28                 EPPR1   9
        27 005401   000000 701000 xent               TSX1    X8CO$CONV_TO_OCTAL
        27 005402   000000 011000                    NOP     0

     1007    13719    4               SUBSTR( OBUF,PRINT_NDX+10,12 ) = CHAR12;

  13719 27 005403   200006 235100                    LDA     PRINT_NDX,,AUTO
        27 005404   040005 100500                    MLR     fill='040'O
        27 005405   200007 000014                    ADSC9   CHAR12,,AUTO             cn=0,n=12
        27 005406   000002 400014 24                 ADSC9   OBUF+2,A                 cn=2,n=12

     1008    13720    4               CALL X8CO$CONV_TO_OCTAL( ID$-> CONST.CONSTI.WORD2, CHAR12 );

  13720 27 005407   200061 470500                    LDP0    @ID$,,AUTO
        27 005410   000000 471500                    LDP1    0,,PR0
        27 005411   200007 633500                    EPPR3   CHAR12,,AUTO
        27 005412   200077 453500                    STP3    @OP+2,,AUTO
        27 005413   100011 634500                    EPPR4   9,,PR1
        27 005414   200076 454500                    STP4    @OP+1,,AUTO
        27 005415   200076 630500                    EPPR0   @OP+1,,AUTO
PL6.E3A0      #001=Z8JW$WALK_TREE File=Z8JW.:Z8A6TSI                             SAT 08/09/97 13:33 Page:226
        27 005416   000011 631400 28                 EPPR1   9
        27 005417   000000 701000 xent               TSX1    X8CO$CONV_TO_OCTAL
        27 005420   000000 011000                    NOP     0

     1009    13721    4               SUBSTR( OBUF,PRINT_NDX+22,1) = ' ';

  13721 27 005421   200006 235100                    LDA     PRINT_NDX,,AUTO
        27 005422   040005 100400                    MLR     fill='040'O
        27 005423   000013 000001 28                 ADSC9   11                       cn=0,n=1
        27 005424   000005 400001 24                 ADSC9   OBUF+5,A                 cn=2,n=1

     1010    13722    4               SUBSTR( OBUF,PRINT_NDX+23,12) = CHAR12;

  13722 27 005425   040005 100500                    MLR     fill='040'O
        27 005426   200007 000014                    ADSC9   CHAR12,,AUTO             cn=0,n=12
        27 005427   000005 600014 24                 ADSC9   OBUF+5,A                 cn=3,n=12

     1011    13723    4             END;

  13723 27 005430   005443 710000 27                 TRA     s:13735

     1012    13724    3           ELSE
     1013    13725    4             DO;

     1014    13726    4               DNT$ = ID$ -> ST.DNT$;

  13726 27 005431   000000 756000 13                 STQ     DNT$

     1015    13727    4               IF DNT$ -> DNT.ID = %LEXEME THEN

  13727 27 005432   000000 471400 13                 LDP1    DNT$
        27 005433   100000 220100                    LDX0    0,,PR1
        27 005434   001046 100003                    CMPX0   550,DU
        27 005435   005443 601000 27                 TNZ     s:13735

     1016    13728    4                 SUBSTR( OBUF, PRINT_NDX+10, 25) = DNT$ -> DNT.TEXT.NAME;

PL6.E3A0      #001=Z8JW$WALK_TREE File=Z8JW.:Z8A6TSI                             SAT 08/09/97 13:33 Page:227
  13728 27 005436   100004 222100                    LDX2    4,,PR1
        27 005437   200006 235100                    LDA     PRINT_NDX,,AUTO
        27 005440   040005 100540                    MLR     fill='040'O
        27 005441   100004 400012                    ADSC9   4,,PR1                   cn=2,n=*X2
        27 005442   000002 400031 24                 ADSC9   OBUF+2,A                 cn=2,n=25

     1017    13729    4             END;

     1018    13730    3          END;

     1019    13731            /*V*
     1020    13732              PUT BRACKETS AROUND  DNT.TEXT.NAME  IN OBUF.
     1021    13733            */
     1022    13734
     1023    13735    2       SUBSTR (OBUF, PRINT_NDX+8, 2) = ' [';

  13735 27 005443   200006 235100                    LDA     PRINT_NDX,,AUTO
        27 005444   040005 100400                    MLR     fill='040'O
        27 005445   000034 000002 26                 ADSC9   28                       cn=0,n=2
        27 005446   000002 000002 24                 ADSC9   OBUF+2,A                 cn=0,n=2

     1024    13736    3       DO I = PRINT_NDX+35 DOWNTO PRINT_NDX+10;

  13736 27 005447   000043 035007                    ADLA    35,DL
        27 005450   200063 755100                    STA     I,,AUTO
        27 005451   005461 710000 27                 TRA     s:13739+2

     1025    13737    3         IF SUBSTR(OBUF, I, 1) ~= ' ' THEN

  13737 27 005452   200063 235100                    LDA     I,,AUTO
        27 005453   040000 106405                    CMPC    fill='040'O
        27 005454   000000 000001 24                 ADSC9   OBUF,A                   cn=0,n=1
        27 005455   000013 000001 28                 ADSC9   11                       cn=0,n=1
        27 005456   005465 601000 27                 TNZ     s:13740

     1026    13738    3           EXIT;
     1027    13739    3       END;
PL6.E3A0      #001=Z8JW$WALK_TREE File=Z8JW.:Z8A6TSI                             SAT 08/09/97 13:33 Page:228

  13739 27 005457   000001 336007                    LCQ     1,DL
        27 005460   200063 056100                    ASQ     I,,AUTO
        27 005461   200006 236100                    LDQ     PRINT_NDX,,AUTO
        27 005462   000012 036007                    ADLQ    10,DL
        27 005463   200063 116100                    CMPQ    I,,AUTO
        27 005464   005452 604400 27                 TMOZ    s:13737

     1028    13740    2       SUBSTR (OBUF, I+1, 1) = ']';

  13740 27 005465   200063 235100                    LDA     I,,AUTO
        27 005466   040005 100400                    MLR     fill='040'O
        27 005467   000022 000001 28                 ADSC9   18                       cn=0,n=1
        27 005470   000000 200001 24                 ADSC9   OBUF,A                   cn=1,n=1

     1029    13741
     1030    13742
     1031    13743    2       CALL PRINT_ITEM ( ID$, OP );

  13743 27 005471   200062 236100                    LDQ     @OP,,AUTO
        27 005472   200066 756100                    STQ     @OP,,AUTO
        27 005473   200061 236100                    LDQ     @ID$,,AUTO
        27 005474   200065 756100                    STQ     @ID$,,AUTO
        27 005475   005200 701000 27                 TSX1    PRINT_ITEM
        27 005476   000000 011000                    NOP     0

     1032    13744    2       SUBSTR(OBUF, PRINT_NDX+1, 40) = ' ';  /* CLEAR REST OF OBUF */

  13744 27 005477   200006 235100                    LDA     PRINT_NDX,,AUTO
        27 005500   040005 100400                    MLR     fill='040'O
        27 005501   000013 000001 28                 ADSC9   11                       cn=0,n=1
        27 005502   000000 200050 24                 ADSC9   OBUF,A                   cn=1,n=40

     1033    13745
     1034    13746    2     END PRINT_ST_ITEM;  /* END PROC */

  13746 27 005503   200060 221300                    LDX1  ! ARGS#+2,,AUTO
PL6.E3A0      #001=Z8JW$WALK_TREE File=Z8JW.:Z8A6TSI                             SAT 08/09/97 13:33 Page:229
        27 005504   000001 702211                    TSX2  ! 1,X1

     1035    13747        %EJECT;
PL6.E3A0      #001=Z8JW$WALK_TREE File=Z8JW.:Z8A6TSI                             SAT 08/09/97 13:33 Page:230
     1036    13748        /*I*     NAME:         PRINT_DATA
     1037    13749                               ---------------
     1038    13750              THIS ROUTINE DETERMINES IF THERE IS DATA, IF SO; THE
     1039    13751              DATA IS CONVERTED TO OCTAL AND PLACED INTO OBUF AS FOLLOWS:
     1040    13752                   :-FIRST HALF <SPACE> SECOND HALF
     1041    13753              THEN OBUF IS PRINTED AND CLEARED AND VERTICAL TREE BRANCHES
     1042    13754              ARE RESET.
     1043    13755
     1044    13756        */
     1045    13757
     1046    13758    1     PRINT_DATA: PROC ( PTR$, OP);

  13758 27 005505   200060 741300       PRINT_DATA   STX1  ! ARGS#+2,,AUTO

     1047    13759
     1048    13760    2       DCL PTR$       PTR;
     1049    13761    2       DCL OP         UBIN WORD;
     1050    13762
     1051    13763    2       IF PTR$ -> ETT.ROP = ADDR(NIL) THEN

  13763 27 005506   200061 470500                    LDP0    @PTR$,,AUTO
        27 005507   000000 471500                    LDP1    0,,PR0
        27 005510   100002 236100                    LDQ     2,,PR1
        27 005511   000002 116000 28                 CMPQ    2
        27 005512   005524 601000 27                 TNZ     s:13767

     1052    13764    2         CALL PRINT_ITEM ( ADDR(NIL), OP);

  13764 27 005513   000002 236000 28                 LDQ     2
        27 005514   200170 756100                    STQ     @OP+59,,AUTO
        27 005515   200062 236100                    LDQ     @OP,,AUTO
        27 005516   200066 756100                    STQ     @OP,,AUTO
        27 005517   200170 631500                    EPPR1   @OP+59,,AUTO
        27 005520   200065 451500                    STP1    @ID$,,AUTO
        27 005521   005200 701000 27                 TSX1    PRINT_ITEM
        27 005522   000000 011000                    NOP     0
        27 005523   005601 710000 27                 TRA     s:13778
PL6.E3A0      #001=Z8JW$WALK_TREE File=Z8JW.:Z8A6TSI                             SAT 08/09/97 13:33 Page:231

     1053    13765    2       ELSE
     1054    13766    3         DO;

     1055    13767    3           CALL X8CO$CONV_TO_OCTAL ( PTR$-> ETT.ROPCON , CHAR12 );

  13767 27 005524   200007 633500                    EPPR3   CHAR12,,AUTO
        27 005525   200077 453500                    STP3    @OP+2,,AUTO
        27 005526   100002 634500                    EPPR4   2,,PR1
        27 005527   200076 454500                    STP4    @OP+1,,AUTO
        27 005530   200076 630500                    EPPR0   @OP+1,,AUTO
        27 005531   000011 631400 28                 EPPR1   9
        27 005532   000000 701000 xent               TSX1    X8CO$CONV_TO_OCTAL
        27 005533   000000 011000                    NOP     0

     1056    13768    3           SUBSTR (OBUF, 0, 6) = ' ';

  13768 27 005534   040000 100400                    MLR     fill='040'O
        27 005535   000013 000001 28                 ADSC9   11                       cn=0,n=1
        27 005536   000000 000006 24                 ADSC9   OBUF                     cn=0,n=6

     1057    13769    3           SUBSTR (OBUF, PRINT_NDX+8, 2) = ':-';

  13769 27 005537   200006 235100                    LDA     PRINT_NDX,,AUTO
        27 005540   040005 100400                    MLR     fill='040'O
        27 005541   000000 000002 26                 ADSC9   0                        cn=0,n=2
        27 005542   000002 000002 24                 ADSC9   OBUF+2,A                 cn=0,n=2

     1058    13770    3           SUBSTR(OBUF,PRINT_NDX+10,6) = SUBSTR(CHAR12,0,6);

  13770 27 005543   040005 100500                    MLR     fill='040'O
        27 005544   200007 000006                    ADSC9   CHAR12,,AUTO             cn=0,n=6
        27 005545   000002 400006 24                 ADSC9   OBUF+2,A                 cn=2,n=6

     1059    13771    3           SUBSTR (OBUF, PRINT_NDX+16, 1) = ' ';

  13771 27 005546   040005 100400                    MLR     fill='040'O
PL6.E3A0      #001=Z8JW$WALK_TREE File=Z8JW.:Z8A6TSI                             SAT 08/09/97 13:33 Page:232
        27 005547   000013 000001 28                 ADSC9   11                       cn=0,n=1
        27 005550   000004 000001 24                 ADSC9   OBUF+4,A                 cn=0,n=1

     1060    13772    3           SUBSTR (OBUF, PRINT_NDX+17, 6) = SUBSTR (CHAR12, 6, 6);

  13772 27 005551   040005 100500                    MLR     fill='040'O
        27 005552   200010 400006                    ADSC9   CHAR12+1,,AUTO           cn=2,n=6
        27 005553   000004 200006 24                 ADSC9   OBUF+4,A                 cn=1,n=6

     1061    13773    3           CALL PRINT_AND_CLEAR ( PRINT_NDX+8, 8, OP );

  13773 27 005554   000010 035007                    ADLA    8,DL
        27 005555   200171 755100                    STA     @OP+60,,AUTO
        27 005556   200062 236100                    LDQ     @OP,,AUTO
        27 005557   000024 235000 28                 LDA     20
        27 005560   200074 757100                    STAQ    @OP+1,,AUTO
        27 005561   200171 630500                    EPPR0   @OP+60,,AUTO
        27 005562   200073 450500                    STP0    MAX_LENGTH+2,,AUTO
        27 005563   007235 701000 27                 TSX1    PRINT_AND_CLEAR
        27 005564   000000 011000                    NOP     0

     1062    13774    3           SUBSTR(OBUF,PRINT_NDX+8,16) = ' '; /* CLEAR OBUF */

  13774 27 005565   200006 235100                    LDA     PRINT_NDX,,AUTO
        27 005566   040005 100400                    MLR     fill='040'O
        27 005567   000013 000001 28                 ADSC9   11                       cn=0,n=1
        27 005570   000002 000020 24                 ADSC9   OBUF+2,A                 cn=0,n=16

     1063    13775    3           CALL BRANCH_BUILDER ( OP, PRINT_NDX+8 );

  13775 27 005571   000010 035007                    ADLA    8,DL
        27 005572   200172 755100                    STA     @OP+61,,AUTO
        27 005573   200172 630500                    EPPR0   @OP+61,,AUTO
        27 005574   200074 450500                    STP0    @OP+1,,AUTO
        27 005575   200062 236100                    LDQ     @OP,,AUTO
        27 005576   200073 756100                    STQ     MAX_LENGTH+2,,AUTO
        27 005577   007255 701000 27                 TSX1    BRANCH_BUILDER
PL6.E3A0      #001=Z8JW$WALK_TREE File=Z8JW.:Z8A6TSI                             SAT 08/09/97 13:33 Page:233
        27 005600   000000 011000                    NOP     0

     1064    13776    3         END;

     1065    13777
     1066    13778    2     END PRINT_DATA;  /* END PROC */

  13778 27 005601   200060 221300                    LDX1  ! ARGS#+2,,AUTO
        27 005602   000001 702211                    TSX2  ! 1,X1

     1067    13779        %EJECT;
PL6.E3A0      #001=Z8JW$WALK_TREE File=Z8JW.:Z8A6TSI                             SAT 08/09/97 13:33 Page:234
     1068    13780    1     PRINT_DNT_NAME: PROC(DNT$, OP);

  13780 27 005603   200060 741300       PRINT_DNT_N* STX1  ! ARGS#+2,,AUTO

     1069    13781
     1070    13782    2       DCL DNT$           PTR;
     1071    13783    2       DCL OP             SBIN WORD;
     1072    13784
     1073    13785    2       IF DNT$ = ADDR(NIL) THEN

  13785 27 005604   200061 470500                    LDP0    @DNT$,,AUTO
        27 005605   000000 236100                    LDQ     0,,PR0
        27 005606   000002 116000 28                 CMPQ    2
        27 005607   005637 601000 27                 TNZ     s:13793

     1074    13786    3         DO;

     1075    13787    3           SUBSTR( OBUF,PRINT_NDX+8,22 ) = ':- *** Dnt$ is nil ***';

  13787 27 005610   200006 235100                    LDA     PRINT_NDX,,AUTO
        27 005611   040005 100400                    MLR     fill='040'O
        27 005612   000075 000026 26                 ADSC9   61                       cn=0,n=22
        27 005613   000002 000026 24                 ADSC9   OBUF+2,A                 cn=0,n=22

     1076    13788    3           CALL PRINT_AND_CLEAR( PRINT_NDX+8, 22 );

  13788 27 005614   000010 035007                    ADLA    8,DL
        27 005615   200173 755100                    STA     @OP+62,,AUTO
        27 005616   000002 236000 28                 LDQ     2
        27 005617   000026 235000 28                 LDA     22
        27 005620   200074 757100                    STAQ    @OP+1,,AUTO
        27 005621   200173 631500                    EPPR1   @OP+62,,AUTO
        27 005622   200073 451500                    STP1    MAX_LENGTH+2,,AUTO
        27 005623   007235 701000 27                 TSX1    PRINT_AND_CLEAR
        27 005624   000000 011000                    NOP     0

     1077    13789    3           CALL BRANCH_BUILDER( OP, PRINT_NDX+8 );
PL6.E3A0      #001=Z8JW$WALK_TREE File=Z8JW.:Z8A6TSI                             SAT 08/09/97 13:33 Page:235

  13789 27 005625   200006 235100                    LDA     PRINT_NDX,,AUTO
        27 005626   000010 035007                    ADLA    8,DL
        27 005627   200174 755100                    STA     @OP+63,,AUTO
        27 005630   200174 630500                    EPPR0   @OP+63,,AUTO
        27 005631   200074 450500                    STP0    @OP+1,,AUTO
        27 005632   200062 236100                    LDQ     @OP,,AUTO
        27 005633   200073 756100                    STQ     MAX_LENGTH+2,,AUTO
        27 005634   007255 701000 27                 TSX1    BRANCH_BUILDER
        27 005635   000000 011000                    NOP     0

     1078    13790    3         END;

  13790 27 005636   005701 710000 27                 TRA     s:13801

     1079    13791    2       ELSE
     1080    13792    3         DO;

     1081    13793    3           SUBSTR( OBUF,PRINT_NDX+8,2 ) = ':-';

  13793 27 005637   200006 235100                    LDA     PRINT_NDX,,AUTO
        27 005640   040005 100400                    MLR     fill='040'O
        27 005641   000000 000002 26                 ADSC9   0                        cn=0,n=2
        27 005642   000002 000002 24                 ADSC9   OBUF+2,A                 cn=0,n=2

     1082    13794    3           SUBSTR( OBUF,PRINT_NDX+10,DNT$-> DNT.TEXT.LENGTH ) =

  13794 27 005643   000000 471500                    LDP1    0,,PR0
        27 005644   100004 220100                    LDX0    4,,PR1
        27 005645   100004 222100                    LDX2    4,,PR1
        27 005646   040045 100540                    MLR     fill='040'O
        27 005647   100004 400012                    ADSC9   4,,PR1                   cn=2,n=*X2
        27 005650   000002 400010 24                 ADSC9   OBUF+2,A                 cn=2,n=*X0

     1083    13795    3                                     DNT$-> DNT.TEXT.NAME;
     1084    13796    3           J = DNT$-> DNT.TEXT.LENGTH + 2;

PL6.E3A0      #001=Z8JW$WALK_TREE File=Z8JW.:Z8A6TSI                             SAT 08/09/97 13:33 Page:236
  13796 27 005651   000000 471500                    LDP1    0,,PR0
        27 005652   100004 236100                    LDQ     4,,PR1
        27 005653   000022 772000                    QRL     18
        27 005654   000002 036007                    ADLQ    2,DL
        27 005655   200055 756100                    STQ     J,,AUTO

     1085    13797    3           CALL PRINT_AND_CLEAR( PRINT_NDX+8, J );

  13797 27 005656   000010 035007                    ADLA    8,DL
        27 005657   200175 755100                    STA     @OP+64,,AUTO
        27 005660   000002 236000 28                 LDQ     2
        27 005661   200075 756100                    STQ     @COLUMN+1,,AUTO
        27 005662   200055 631500                    EPPR1   J,,AUTO
        27 005663   200074 451500                    STP1    @OP+1,,AUTO
        27 005664   200175 633500                    EPPR3   @OP+64,,AUTO
        27 005665   200073 453500                    STP3    MAX_LENGTH+2,,AUTO
        27 005666   007235 701000 27                 TSX1    PRINT_AND_CLEAR
        27 005667   000000 011000                    NOP     0

     1086    13798    3           CALL BRANCH_BUILDER ( OP, PRINT_NDX+8 );

  13798 27 005670   200006 235100                    LDA     PRINT_NDX,,AUTO
        27 005671   000010 035007                    ADLA    8,DL
        27 005672   200176 755100                    STA     @OP+65,,AUTO
        27 005673   200176 630500                    EPPR0   @OP+65,,AUTO
        27 005674   200074 450500                    STP0    @OP+1,,AUTO
        27 005675   200062 236100                    LDQ     @OP,,AUTO
        27 005676   200073 756100                    STQ     MAX_LENGTH+2,,AUTO
        27 005677   007255 701000 27                 TSX1    BRANCH_BUILDER
        27 005700   000000 011000                    NOP     0

     1087    13799    3         END;

     1088    13800
     1089    13801    2     END PRINT_DNT_NAME;  /* proc */

  13801 27 005701   200060 221300                    LDX1  ! ARGS#+2,,AUTO
PL6.E3A0      #001=Z8JW$WALK_TREE File=Z8JW.:Z8A6TSI                             SAT 08/09/97 13:33 Page:237
        27 005702   000001 702211                    TSX2  ! 1,X1

     1090    13802        %EJECT;
PL6.E3A0      #001=Z8JW$WALK_TREE File=Z8JW.:Z8A6TSI                             SAT 08/09/97 13:33 Page:238
     1091    13803    1   PRINT_CODE: PROC( ID$ );

  13803 27 005703   200060 741300       PRINT_CODE   STX1  ! ARGS#+2,,AUTO

     1092    13804
     1093    13805    2       DCL ID$    PTR;
     1094    13806    2       DCL CHAR6  CHAR(6);
     1095    13807    2       DCL MVANO_CMPAS_CODE UBIN;
     1096    13808
     1097    13809    3       DO CASE ( ID$-> ILL.ID );

  13809 27 005704   200061 470500                    LDP0    @ID$,,AUTO
        27 005705   000000 471500                    LDP1    0,,PR0
        27 005706   100000 236100                    LDQ     0,,PR1
        27 005707   000022 772000                    QRL     18
        27 005710   000024 136007                    SBLQ    20,DL
        27 005711   000347 116007                    CMPQ    231,DL
        27 005712   005714 602006 27                 TNC     s:13809+8,QL
        27 005713   007176 710000 27                 TRA     s:14004
        27 005714   007061 710000 27                 TRA     s:13959
        27 005715   007176 710000 27                 TRA     s:14004
        27 005716   007176 710000 27                 TRA     s:14004
        27 005717   007176 710000 27                 TRA     s:14004
        27 005720   007176 710000 27                 TRA     s:14004
        27 005721   007176 710000 27                 TRA     s:14004
        27 005722   007176 710000 27                 TRA     s:14004
        27 005723   007176 710000 27                 TRA     s:14004
        27 005724   007176 710000 27                 TRA     s:14004
        27 005725   007176 710000 27                 TRA     s:14004
        27 005726   007176 710000 27                 TRA     s:14004
        27 005727   007176 710000 27                 TRA     s:14004
        27 005730   007176 710000 27                 TRA     s:14004
        27 005731   007176 710000 27                 TRA     s:14004
        27 005732   007176 710000 27                 TRA     s:14004
        27 005733   007176 710000 27                 TRA     s:14004
        27 005734   007176 710000 27                 TRA     s:14004
        27 005735   007176 710000 27                 TRA     s:14004
PL6.E3A0      #001=Z8JW$WALK_TREE File=Z8JW.:Z8A6TSI                             SAT 08/09/97 13:33 Page:239
        27 005736   007176 710000 27                 TRA     s:14004
        27 005737   007176 710000 27                 TRA     s:14004
        27 005740   007176 710000 27                 TRA     s:14004
        27 005741   007176 710000 27                 TRA     s:14004
        27 005742   007176 710000 27                 TRA     s:14004
        27 005743   007176 710000 27                 TRA     s:14004
        27 005744   007176 710000 27                 TRA     s:14004
        27 005745   007176 710000 27                 TRA     s:14004
        27 005746   007176 710000 27                 TRA     s:14004
        27 005747   007176 710000 27                 TRA     s:14004
        27 005750   007176 710000 27                 TRA     s:14004
        27 005751   007176 710000 27                 TRA     s:14004
        27 005752   007176 710000 27                 TRA     s:14004
        27 005753   007176 710000 27                 TRA     s:14004
        27 005754   007176 710000 27                 TRA     s:14004
        27 005755   007176 710000 27                 TRA     s:14004
        27 005756   007176 710000 27                 TRA     s:14004
        27 005757   007176 710000 27                 TRA     s:14004
        27 005760   007176 710000 27                 TRA     s:14004
        27 005761   007176 710000 27                 TRA     s:14004
        27 005762   007176 710000 27                 TRA     s:14004
        27 005763   007176 710000 27                 TRA     s:14004
        27 005764   007176 710000 27                 TRA     s:14004
        27 005765   007176 710000 27                 TRA     s:14004
        27 005766   007176 710000 27                 TRA     s:14004
        27 005767   007176 710000 27                 TRA     s:14004
        27 005770   007176 710000 27                 TRA     s:14004
        27 005771   007176 710000 27                 TRA     s:14004
        27 005772   007176 710000 27                 TRA     s:14004
        27 005773   007176 710000 27                 TRA     s:14004
        27 005774   007176 710000 27                 TRA     s:14004
        27 005775   007176 710000 27                 TRA     s:14004
        27 005776   007176 710000 27                 TRA     s:14004
        27 005777   007176 710000 27                 TRA     s:14004
        27 006000   007176 710000 27                 TRA     s:14004
        27 006001   007176 710000 27                 TRA     s:14004
        27 006002   007176 710000 27                 TRA     s:14004
PL6.E3A0      #001=Z8JW$WALK_TREE File=Z8JW.:Z8A6TSI                             SAT 08/09/97 13:33 Page:240
        27 006003   007176 710000 27                 TRA     s:14004
        27 006004   007176 710000 27                 TRA     s:14004
        27 006005   007176 710000 27                 TRA     s:14004
        27 006006   007176 710000 27                 TRA     s:14004
        27 006007   007176 710000 27                 TRA     s:14004
        27 006010   007176 710000 27                 TRA     s:14004
        27 006011   007176 710000 27                 TRA     s:14004
        27 006012   006364 710000 27                 TRA     s:13838
        27 006013   007176 710000 27                 TRA     s:14004
        27 006014   007176 710000 27                 TRA     s:14004
        27 006015   007176 710000 27                 TRA     s:14004
        27 006016   007176 710000 27                 TRA     s:14004
        27 006017   007176 710000 27                 TRA     s:14004
        27 006020   007176 710000 27                 TRA     s:14004
        27 006021   007176 710000 27                 TRA     s:14004
        27 006022   007176 710000 27                 TRA     s:14004
        27 006023   007130 710000 27                 TRA     s:13982
        27 006024   007026 710000 27                 TRA     s:13941
        27 006025   007176 710000 27                 TRA     s:14004
        27 006026   007176 710000 27                 TRA     s:14004
        27 006027   007176 710000 27                 TRA     s:14004
        27 006030   007176 710000 27                 TRA     s:14004
        27 006031   007176 710000 27                 TRA     s:14004
        27 006032   007176 710000 27                 TRA     s:14004
        27 006033   007176 710000 27                 TRA     s:14004
        27 006034   007176 710000 27                 TRA     s:14004
        27 006035   007176 710000 27                 TRA     s:14004
        27 006036   007176 710000 27                 TRA     s:14004
        27 006037   007176 710000 27                 TRA     s:14004
        27 006040   007176 710000 27                 TRA     s:14004
        27 006041   007176 710000 27                 TRA     s:14004
        27 006042   007176 710000 27                 TRA     s:14004
        27 006043   007176 710000 27                 TRA     s:14004
        27 006044   007176 710000 27                 TRA     s:14004
        27 006045   007176 710000 27                 TRA     s:14004
        27 006046   007176 710000 27                 TRA     s:14004
        27 006047   007176 710000 27                 TRA     s:14004
PL6.E3A0      #001=Z8JW$WALK_TREE File=Z8JW.:Z8A6TSI                             SAT 08/09/97 13:33 Page:241
        27 006050   007176 710000 27                 TRA     s:14004
        27 006051   007176 710000 27                 TRA     s:14004
        27 006052   007176 710000 27                 TRA     s:14004
        27 006053   007176 710000 27                 TRA     s:14004
        27 006054   007176 710000 27                 TRA     s:14004
        27 006055   007176 710000 27                 TRA     s:14004
        27 006056   007176 710000 27                 TRA     s:14004
        27 006057   007176 710000 27                 TRA     s:14004
        27 006060   007176 710000 27                 TRA     s:14004
        27 006061   007176 710000 27                 TRA     s:14004
        27 006062   007176 710000 27                 TRA     s:14004
        27 006063   007176 710000 27                 TRA     s:14004
        27 006064   007176 710000 27                 TRA     s:14004
        27 006065   007176 710000 27                 TRA     s:14004
        27 006066   007176 710000 27                 TRA     s:14004
        27 006067   007176 710000 27                 TRA     s:14004
        27 006070   007176 710000 27                 TRA     s:14004
        27 006071   007176 710000 27                 TRA     s:14004
        27 006072   007176 710000 27                 TRA     s:14004
        27 006073   007176 710000 27                 TRA     s:14004
        27 006074   007176 710000 27                 TRA     s:14004
        27 006075   007176 710000 27                 TRA     s:14004
        27 006076   007176 710000 27                 TRA     s:14004
        27 006077   007176 710000 27                 TRA     s:14004
        27 006100   007176 710000 27                 TRA     s:14004
        27 006101   007176 710000 27                 TRA     s:14004
        27 006102   007176 710000 27                 TRA     s:14004
        27 006103   007176 710000 27                 TRA     s:14004
        27 006104   007176 710000 27                 TRA     s:14004
        27 006105   007176 710000 27                 TRA     s:14004
        27 006106   007176 710000 27                 TRA     s:14004
        27 006107   007176 710000 27                 TRA     s:14004
        27 006110   007176 710000 27                 TRA     s:14004
        27 006111   007176 710000 27                 TRA     s:14004
        27 006112   007176 710000 27                 TRA     s:14004
        27 006113   007176 710000 27                 TRA     s:14004
        27 006114   007176 710000 27                 TRA     s:14004
PL6.E3A0      #001=Z8JW$WALK_TREE File=Z8JW.:Z8A6TSI                             SAT 08/09/97 13:33 Page:242
        27 006115   007176 710000 27                 TRA     s:14004
        27 006116   007176 710000 27                 TRA     s:14004
        27 006117   007176 710000 27                 TRA     s:14004
        27 006120   007176 710000 27                 TRA     s:14004
        27 006121   007176 710000 27                 TRA     s:14004
        27 006122   007176 710000 27                 TRA     s:14004
        27 006123   007176 710000 27                 TRA     s:14004
        27 006124   007176 710000 27                 TRA     s:14004
        27 006125   007176 710000 27                 TRA     s:14004
        27 006126   007176 710000 27                 TRA     s:14004
        27 006127   007176 710000 27                 TRA     s:14004
        27 006130   007176 710000 27                 TRA     s:14004
        27 006131   007176 710000 27                 TRA     s:14004
        27 006132   007176 710000 27                 TRA     s:14004
        27 006133   007176 710000 27                 TRA     s:14004
        27 006134   007176 710000 27                 TRA     s:14004
        27 006135   007176 710000 27                 TRA     s:14004
        27 006136   007176 710000 27                 TRA     s:14004
        27 006137   007176 710000 27                 TRA     s:14004
        27 006140   007176 710000 27                 TRA     s:14004
        27 006141   007176 710000 27                 TRA     s:14004
        27 006142   007176 710000 27                 TRA     s:14004
        27 006143   006263 710000 27                 TRA     s:13812
        27 006144   007176 710000 27                 TRA     s:14004
        27 006145   006364 710000 27                 TRA     s:13838
        27 006146   006263 710000 27                 TRA     s:13812
        27 006147   007176 710000 27                 TRA     s:14004
        27 006150   007176 710000 27                 TRA     s:14004
        27 006151   007176 710000 27                 TRA     s:14004
        27 006152   007176 710000 27                 TRA     s:14004
        27 006153   007176 710000 27                 TRA     s:14004
        27 006154   007176 710000 27                 TRA     s:14004
        27 006155   007176 710000 27                 TRA     s:14004
        27 006156   007176 710000 27                 TRA     s:14004
        27 006157   007176 710000 27                 TRA     s:14004
        27 006160   007176 710000 27                 TRA     s:14004
        27 006161   007176 710000 27                 TRA     s:14004
PL6.E3A0      #001=Z8JW$WALK_TREE File=Z8JW.:Z8A6TSI                             SAT 08/09/97 13:33 Page:243
        27 006162   007176 710000 27                 TRA     s:14004
        27 006163   007176 710000 27                 TRA     s:14004
        27 006164   007176 710000 27                 TRA     s:14004
        27 006165   007176 710000 27                 TRA     s:14004
        27 006166   007176 710000 27                 TRA     s:14004
        27 006167   007176 710000 27                 TRA     s:14004
        27 006170   007176 710000 27                 TRA     s:14004
        27 006171   007176 710000 27                 TRA     s:14004
        27 006172   007176 710000 27                 TRA     s:14004
        27 006173   007176 710000 27                 TRA     s:14004
        27 006174   007176 710000 27                 TRA     s:14004
        27 006175   007176 710000 27                 TRA     s:14004
        27 006176   007176 710000 27                 TRA     s:14004
        27 006177   007176 710000 27                 TRA     s:14004
        27 006200   007176 710000 27                 TRA     s:14004
        27 006201   007176 710000 27                 TRA     s:14004
        27 006202   007176 710000 27                 TRA     s:14004
        27 006203   007176 710000 27                 TRA     s:14004
        27 006204   007176 710000 27                 TRA     s:14004
        27 006205   007176 710000 27                 TRA     s:14004
        27 006206   007176 710000 27                 TRA     s:14004
        27 006207   007176 710000 27                 TRA     s:14004
        27 006210   007176 710000 27                 TRA     s:14004
        27 006211   007176 710000 27                 TRA     s:14004
        27 006212   007176 710000 27                 TRA     s:14004
        27 006213   007176 710000 27                 TRA     s:14004
        27 006214   007176 710000 27                 TRA     s:14004
        27 006215   007176 710000 27                 TRA     s:14004
        27 006216   007176 710000 27                 TRA     s:14004
        27 006217   007176 710000 27                 TRA     s:14004
        27 006220   007176 710000 27                 TRA     s:14004
        27 006221   007176 710000 27                 TRA     s:14004
        27 006222   007176 710000 27                 TRA     s:14004
        27 006223   007176 710000 27                 TRA     s:14004
        27 006224   007176 710000 27                 TRA     s:14004
        27 006225   007176 710000 27                 TRA     s:14004
        27 006226   007176 710000 27                 TRA     s:14004
PL6.E3A0      #001=Z8JW$WALK_TREE File=Z8JW.:Z8A6TSI                             SAT 08/09/97 13:33 Page:244
        27 006227   007176 710000 27                 TRA     s:14004
        27 006230   007176 710000 27                 TRA     s:14004
        27 006231   007176 710000 27                 TRA     s:14004
        27 006232   007176 710000 27                 TRA     s:14004
        27 006233   007176 710000 27                 TRA     s:14004
        27 006234   006564 710000 27                 TRA     s:13883
        27 006235   007176 710000 27                 TRA     s:14004
        27 006236   007176 710000 27                 TRA     s:14004
        27 006237   007176 710000 27                 TRA     s:14004
        27 006240   007176 710000 27                 TRA     s:14004
        27 006241   007176 710000 27                 TRA     s:14004
        27 006242   007176 710000 27                 TRA     s:14004
        27 006243   007176 710000 27                 TRA     s:14004
        27 006244   007176 710000 27                 TRA     s:14004
        27 006245   007176 710000 27                 TRA     s:14004
        27 006246   007176 710000 27                 TRA     s:14004
        27 006247   007176 710000 27                 TRA     s:14004
        27 006250   007176 710000 27                 TRA     s:14004
        27 006251   007176 710000 27                 TRA     s:14004
        27 006252   007176 710000 27                 TRA     s:14004
        27 006253   007176 710000 27                 TRA     s:14004
        27 006254   007176 710000 27                 TRA     s:14004
        27 006255   007176 710000 27                 TRA     s:14004
        27 006256   007176 710000 27                 TRA     s:14004
        27 006257   007176 710000 27                 TRA     s:14004
        27 006260   007176 710000 27                 TRA     s:14004
        27 006261   006307 710000 27                 TRA     s:13818
        27 006262   006773 710000 27                 TRA     s:13929

     1098    13810
     1099    13811    3         CASE( %MVIH, %MVIJ );

     1100    13812    3           SUBSTR( OBUF,PRINT_NDX+9,5 ) = '(Byte ';

  13812 27 006263   200006 235100                    LDA     PRINT_NDX,,AUTO
        27 006264   040005 100400                    MLR     fill='040'O
        27 006265   000103 000005 26                 ADSC9   67                       cn=0,n=5
PL6.E3A0      #001=Z8JW$WALK_TREE File=Z8JW.:Z8A6TSI                             SAT 08/09/97 13:33 Page:245
        27 006266   000002 200005 24                 ADSC9   OBUF+2,A                 cn=1,n=5

     1101    13813    3           CALL BINCHAR( CHAR6, ID$-> ILL.CODE );

  13813 27 006267   000000 471500                    LDP1    0,,PR0
        27 006270   100000 236100                    LDQ     0,,PR1
        27 006271   777777 376007                    ANQ     -1,DL
        27 006272   000000 235003                    LDA     0,DU
        27 006273   200076 757100                    STAQ    @OP+1,,AUTO
        27 006274   000100 301500                    BTD
        27 006275   200076 000010                    NDSC9   @OP+1,,AUTO              cn=0,s=lsgnf,sf=0,n=8
        27 006276   200062 030006                    NDSC9   CHAR6,,AUTO              cn=0,s=nosgn,sf=0,n=6

     1102    13814    3           SUBSTR( OBUF,PRINT_NDX+15,1 ) = SUBSTR( CHAR6,5,1 );

  13814 27 006277   200006 236100                    LDQ     PRINT_NDX,,AUTO
        27 006300   040006 100500                    MLR     fill='040'O
        27 006301   200063 200001                    ADSC9   I,,AUTO                  cn=1,n=1
        27 006302   000003 600001 24                 ADSC9   OBUF+3,Q                 cn=3,n=1

     1103    13815    3           SUBSTR( OBUF,PRINT_NDX+16,1 ) = ')';

  13815 27 006303   040006 100400                    MLR     fill='040'O
        27 006304   000012 000001 28                 ADSC9   10                       cn=0,n=1
        27 006305   000004 000001 24                 ADSC9   OBUF+4,Q                 cn=0,n=1
        27 006306   007176 710000 27                 TRA     s:14004

     1104    13816
     1105    13817    3         CASE( %ACCEP );

     1106    13818    4           DO CASE ( ID$-> ILL.CODE );

  13818 27 006307   100000 720100                    LXL0    0,,PR1
        27 006310   000006 100003                    CMPX0   6,DU
        27 006311   006313 602010 27                 TNC     s:13818+4,X0
        27 006312   006357 710000 27                 TRA     s:13832
        27 006313   006321 710000 27                 TRA     s:13820
PL6.E3A0      #001=Z8JW$WALK_TREE File=Z8JW.:Z8A6TSI                             SAT 08/09/97 13:33 Page:246
        27 006314   006326 710000 27                 TRA     s:13822
        27 006315   006333 710000 27                 TRA     s:13824
        27 006316   006340 710000 27                 TRA     s:13826
        27 006317   006345 710000 27                 TRA     s:13828
        27 006320   006352 710000 27                 TRA     s:13830

     1107    13819    4             CASE( %ACCEPT_DATE );

     1108    13820    4               SUBSTR( OBUF,PRINT_NDX+9,6 ) =  '(Date)';

  13820 27 006321   200006 235100                    LDA     PRINT_NDX,,AUTO
        27 006322   040005 100400                    MLR     fill='040'O
        27 006323   000105 000006 26                 ADSC9   69                       cn=0,n=6
        27 006324   000002 200006 24                 ADSC9   OBUF+2,A                 cn=1,n=6
        27 006325   007176 710000 27                 TRA     s:14004

     1109    13821    4             CASE( %ACCEPT_DAY );

     1110    13822    4               SUBSTR( OBUF, PRINT_NDX+9,5 ) = '(Day)';

  13822 27 006326   200006 235100                    LDA     PRINT_NDX,,AUTO
        27 006327   040005 100400                    MLR     fill='040'O
        27 006330   000107 000005 26                 ADSC9   71                       cn=0,n=5
        27 006331   000002 200005 24                 ADSC9   OBUF+2,A                 cn=1,n=5
        27 006332   007176 710000 27                 TRA     s:14004

     1111    13823    4             CASE( %ACCEPT_TIME );

     1112    13824    4               SUBSTR( OBUF,PRINT_NDX+9,6 ) = '(Time)';

  13824 27 006333   200006 235100                    LDA     PRINT_NDX,,AUTO
        27 006334   040005 100400                    MLR     fill='040'O
        27 006335   000111 000006 26                 ADSC9   73                       cn=0,n=6
        27 006336   000002 200006 24                 ADSC9   OBUF+2,A                 cn=1,n=6
        27 006337   007176 710000 27                 TRA     s:14004

     1113    13825    4             CASE( %ACCEPT_DAY_OF_WEEK );
PL6.E3A0      #001=Z8JW$WALK_TREE File=Z8JW.:Z8A6TSI                             SAT 08/09/97 13:33 Page:247

     1114    13826    4               SUBSTR( OBUF,PRINT_NDX+9,9 ) = '(Weekday)';

  13826 27 006340   200006 235100                    LDA     PRINT_NDX,,AUTO
        27 006341   040005 100400                    MLR     fill='040'O
        27 006342   000113 000011 26                 ADSC9   75                       cn=0,n=9
        27 006343   000002 200011 24                 ADSC9   OBUF+2,A                 cn=1,n=9
        27 006344   007176 710000 27                 TRA     s:14004

     1115    13827    4             CASE( %ACCEPT_SYSIN );

     1116    13828    4               SUBSTR( OBUF,PRINT_NDX+9,7 ) = '(Sysin)';

  13828 27 006345   200006 235100                    LDA     PRINT_NDX,,AUTO
        27 006346   040005 100400                    MLR     fill='040'O
        27 006347   000116 000007 26                 ADSC9   78                       cn=0,n=7
        27 006350   000002 200007 24                 ADSC9   OBUF+2,A                 cn=1,n=7
        27 006351   007176 710000 27                 TRA     s:14004

     1117    13829    4             CASE( %ACCEPT_CONSOLE );

     1118    13830    4               SUBSTR( OBUF,PRINT_NDX+9,9 ) = '(Console)';

  13830 27 006352   200006 235100                    LDA     PRINT_NDX,,AUTO
        27 006353   040005 100400                    MLR     fill='040'O
        27 006354   000120 000011 26                 ADSC9   80                       cn=0,n=9
        27 006355   000002 200011 24                 ADSC9   OBUF+2,A                 cn=1,n=9
        27 006356   007176 710000 27                 TRA     s:14004

     1119    13831    4             CASE( ELSE );

     1120    13832    4               SUBSTR( OBUF,PRINT_NDX+9,15 ) = '(Error in code)';

  13832 27 006357   200006 235100                    LDA     PRINT_NDX,,AUTO
        27 006360   040005 100400                    MLR     fill='040'O
        27 006361   000123 000017 26                 ADSC9   83                       cn=0,n=15
        27 006362   000002 200017 24                 ADSC9   OBUF+2,A                 cn=1,n=15
PL6.E3A0      #001=Z8JW$WALK_TREE File=Z8JW.:Z8A6TSI                             SAT 08/09/97 13:33 Page:248

     1121    13833
     1122    13834    4           END; /* case ill.code */

  13834 27 006363   007176 710000 27                 TRA     s:14004

     1123    13835
     1124    13836        %EJECT;
PL6.E3A0      #001=Z8JW$WALK_TREE File=Z8JW.:Z8A6TSI                             SAT 08/09/97 13:33 Page:249
     1125    13837    3         CASE ( %MVANO, %CMPAS );

     1126    13838    3           IF ID$-> ILL.ID = %MVANO

  13838 27 006364   100000 220100                    LDX0    0,,PR1
        27 006365   000255 100003                    CMPX0   173,DU
        27 006366   006373 601000 27                 TNZ     s:13840

     1127    13839    3             THEN MVANO_CMPAS_CODE = ID$-> ILL.CODE;

  13839 27 006367   100000 236100                    LDQ     0,,PR1
        27 006370   777777 376007                    ANQ     -1,DL
        27 006371   200064 756100                    STQ     MVANO_CMPAS_CODE,,AUTO
        27 006372   006375 710000 27                 TRA     s:13841

     1128    13840    3             ELSE MVANO_CMPAS_CODE = ID$-> ETT.ROPCON;

  13840 27 006373   100002 235100                    LDA     2,,PR1
        27 006374   200064 755100                    STA     MVANO_CMPAS_CODE,,AUTO

     1129    13841    4           DO CASE ( MVANO_CMPAS_CODE );

  13841 27 006375   200064 235100                    LDA     MVANO_CMPAS_CODE,,AUTO
        27 006376   000022 115007                    CMPA    18,DL
        27 006377   006401 602005 27                 TNC     s:13841+4,AL
        27 006400   006550 710000 27                 TRA     s:13877
        27 006401   006423 710000 27                 TRA     s:13843
        27 006402   006430 710000 27                 TRA     s:13845
        27 006403   006435 710000 27                 TRA     s:13847
        27 006404   006442 710000 27                 TRA     s:13849
        27 006405   006447 710000 27                 TRA     s:13851
        27 006406   006454 710000 27                 TRA     s:13853
        27 006407   006461 710000 27                 TRA     s:13855
        27 006410   006466 710000 27                 TRA     s:13857
        27 006411   006550 710000 27                 TRA     s:13877
        27 006412   006473 710000 27                 TRA     s:13859
        27 006413   006500 710000 27                 TRA     s:13861
PL6.E3A0      #001=Z8JW$WALK_TREE File=Z8JW.:Z8A6TSI                             SAT 08/09/97 13:33 Page:250
        27 006414   006505 710000 27                 TRA     s:13863
        27 006415   006512 710000 27                 TRA     s:13865
        27 006416   006517 710000 27                 TRA     s:13867
        27 006417   006524 710000 27                 TRA     s:13869
        27 006420   006531 710000 27                 TRA     s:13871
        27 006421   006536 710000 27                 TRA     s:13873
        27 006422   006543 710000 27                 TRA     s:13875

     1130    13842    4             CASE ( %MVANO_UPPER_TO_UPPER );

     1131    13843    4               SUBSTR( OBUF,PRINT_NDX+9,7 ) = '(Up Up)';

  13843 27 006423   200006 236100                    LDQ     PRINT_NDX,,AUTO
        27 006424   040006 100400                    MLR     fill='040'O
        27 006425   000127 000007 26                 ADSC9   87                       cn=0,n=7
        27 006426   000002 200007 24                 ADSC9   OBUF+2,Q                 cn=1,n=7
        27 006427   006554 710000 27                 TRA     s:13879

     1132    13844    4             CASE ( %MVANO_UPPER_TO_LOWER );

     1133    13845    4               SUBSTR( OBUF,PRINT_NDX+9,8 ) = '(Up Low)';

  13845 27 006430   200006 236100                    LDQ     PRINT_NDX,,AUTO
        27 006431   040006 100400                    MLR     fill='040'O
        27 006432   000131 000010 26                 ADSC9   89                       cn=0,n=8
        27 006433   000002 200010 24                 ADSC9   OBUF+2,Q                 cn=1,n=8
        27 006434   006554 710000 27                 TRA     s:13879

     1134    13846    4             CASE ( %MVANO_LOWER_TO_UPPER );

     1135    13847    4               SUBSTR( OBUF,PRINT_NDX+9,8 ) = '(Low Up)';

  13847 27 006435   200006 236100                    LDQ     PRINT_NDX,,AUTO
        27 006436   040006 100400                    MLR     fill='040'O
        27 006437   000133 000010 26                 ADSC9   91                       cn=0,n=8
        27 006440   000002 200010 24                 ADSC9   OBUF+2,Q                 cn=1,n=8
        27 006441   006554 710000 27                 TRA     s:13879
PL6.E3A0      #001=Z8JW$WALK_TREE File=Z8JW.:Z8A6TSI                             SAT 08/09/97 13:33 Page:251

     1136    13848    4             CASE ( %MVANO_LOWER_TO_LOWER );

     1137    13849    4               SUBSTR( OBUF,PRINT_NDX+9,9 ) = '(Low Low)';

  13849 27 006442   200006 236100                    LDQ     PRINT_NDX,,AUTO
        27 006443   040006 100400                    MLR     fill='040'O
        27 006444   000135 000011 26                 ADSC9   93                       cn=0,n=9
        27 006445   000002 200011 24                 ADSC9   OBUF+2,Q                 cn=1,n=9
        27 006446   006554 710000 27                 TRA     s:13879

     1138    13850    4             CASE ( %MVANO_WORD_TO_WORD );

     1139    13851    4               SUBSTR( OBUF,PRINT_NDX+9,11 ) = '(Word Word)';

  13851 27 006447   200006 236100                    LDQ     PRINT_NDX,,AUTO
        27 006450   040006 100400                    MLR     fill='040'O
        27 006451   000140 000013 26                 ADSC9   96                       cn=0,n=11
        27 006452   000002 200013 24                 ADSC9   OBUF+2,Q                 cn=1,n=11
        27 006453   006554 710000 27                 TRA     s:13879

     1140    13852    4             CASE ( %MVANO_EVEN_TO_EVEN );

     1141    13853    4               SUBSTR( OBUF,PRINT_NDX+9,11 ) = '(Even Even)';

  13853 27 006454   200006 236100                    LDQ     PRINT_NDX,,AUTO
        27 006455   040006 100400                    MLR     fill='040'O
        27 006456   000143 000013 26                 ADSC9   99                       cn=0,n=11
        27 006457   000002 200013 24                 ADSC9   OBUF+2,Q                 cn=1,n=11
        27 006460   006554 710000 27                 TRA     s:13879

     1142    13854    4             CASE ( %MVANO_EVEN_TO_ODD );

     1143    13855    4               SUBSTR( OBUF,PRINT_NDX+9,10) = '(Even Odd)';

  13855 27 006461   200006 236100                    LDQ     PRINT_NDX,,AUTO
        27 006462   040006 100400                    MLR     fill='040'O
PL6.E3A0      #001=Z8JW$WALK_TREE File=Z8JW.:Z8A6TSI                             SAT 08/09/97 13:33 Page:252
        27 006463   000146 000012 26                 ADSC9   102                      cn=0,n=10
        27 006464   000002 200012 24                 ADSC9   OBUF+2,Q                 cn=1,n=10
        27 006465   006554 710000 27                 TRA     s:13879

     1144    13856    4             CASE ( %MVANO_ODD_TO_EVEN );

     1145    13857    4               SUBSTR( OBUF,PRINT_NDX+9,9 ) = '(Odd Odd)';

  13857 27 006466   200006 236100                    LDQ     PRINT_NDX,,AUTO
        27 006467   040006 100400                    MLR     fill='040'O
        27 006470   000151 000011 26                 ADSC9   105                      cn=0,n=9
        27 006471   000002 200011 24                 ADSC9   OBUF+2,Q                 cn=1,n=9
        27 006472   006554 710000 27                 TRA     s:13879

     1146    13858    4             CASE ( %MVANO_BYTE_0 );

     1147    13859    4               SUBSTR( OBUF,PRINT_NDX+9,8 ) = '(Byte 0)';

  13859 27 006473   200006 236100                    LDQ     PRINT_NDX,,AUTO
        27 006474   040006 100400                    MLR     fill='040'O
        27 006475   000154 000010 26                 ADSC9   108                      cn=0,n=8
        27 006476   000002 200010 24                 ADSC9   OBUF+2,Q                 cn=1,n=8
        27 006477   006554 710000 27                 TRA     s:13879

     1148    13860    4             CASE ( %MVANO_BYTE_1 );

     1149    13861    4               SUBSTR( OBUF,PRINT_NDX+9,8 ) = '(Byte 1)';

  13861 27 006500   200006 236100                    LDQ     PRINT_NDX,,AUTO
        27 006501   040006 100400                    MLR     fill='040'O
        27 006502   000156 000010 26                 ADSC9   110                      cn=0,n=8
        27 006503   000002 200010 24                 ADSC9   OBUF+2,Q                 cn=1,n=8
        27 006504   006554 710000 27                 TRA     s:13879

     1150    13862    4             CASE ( %MVANO_BYTE_2 );

     1151    13863    4               SUBSTR( OBUF,PRINT_NDX+9,8 ) = '(Byte 2)';
PL6.E3A0      #001=Z8JW$WALK_TREE File=Z8JW.:Z8A6TSI                             SAT 08/09/97 13:33 Page:253

  13863 27 006505   200006 236100                    LDQ     PRINT_NDX,,AUTO
        27 006506   040006 100400                    MLR     fill='040'O
        27 006507   000160 000010 26                 ADSC9   112                      cn=0,n=8
        27 006510   000002 200010 24                 ADSC9   OBUF+2,Q                 cn=1,n=8
        27 006511   006554 710000 27                 TRA     s:13879

     1152    13864    4             CASE ( %MVANO_BYTE_3 );

     1153    13865    4               SUBSTR( OBUF,PRINT_NDX+9,8 ) = '(Byte 3)';

  13865 27 006512   200006 236100                    LDQ     PRINT_NDX,,AUTO
        27 006513   040006 100400                    MLR     fill='040'O
        27 006514   000162 000010 26                 ADSC9   114                      cn=0,n=8
        27 006515   000002 200010 24                 ADSC9   OBUF+2,Q                 cn=1,n=8
        27 006516   006554 710000 27                 TRA     s:13879

     1154    13866    4             CASE ( %MVANO_BYTES_1_2 );

     1155    13867    4               SUBSTR( OBUF,PRINT_NDX+9,11) = '(Bytes 1,2)';

  13867 27 006517   200006 236100                    LDQ     PRINT_NDX,,AUTO
        27 006520   040006 100400                    MLR     fill='040'O
        27 006521   000164 000013 26                 ADSC9   116                      cn=0,n=11
        27 006522   000002 200013 24                 ADSC9   OBUF+2,Q                 cn=1,n=11
        27 006523   006554 710000 27                 TRA     s:13879

     1156    13868    4             CASE ( %MVANO_BYTES_0_2 );

     1157    13869    4               SUBSTR( OBUF,PRINT_NDX+9,11) = '(Bytes 0,2)';

  13869 27 006524   200006 236100                    LDQ     PRINT_NDX,,AUTO
        27 006525   040006 100400                    MLR     fill='040'O
        27 006526   000167 000013 26                 ADSC9   119                      cn=0,n=11
        27 006527   000002 200013 24                 ADSC9   OBUF+2,Q                 cn=1,n=11
        27 006530   006554 710000 27                 TRA     s:13879

PL6.E3A0      #001=Z8JW$WALK_TREE File=Z8JW.:Z8A6TSI                             SAT 08/09/97 13:33 Page:254
     1158    13870    4             CASE ( %MVANO_BYTES_1_3 );

     1159    13871    4               SUBSTR( OBUF,PRINT_NDX+9,11) = '(Bytes 1,3)';

  13871 27 006531   200006 236100                    LDQ     PRINT_NDX,,AUTO
        27 006532   040006 100400                    MLR     fill='040'O
        27 006533   000172 000013 26                 ADSC9   122                      cn=0,n=11
        27 006534   000002 200013 24                 ADSC9   OBUF+2,Q                 cn=1,n=11
        27 006535   006554 710000 27                 TRA     s:13879

     1160    13872    4             CASE ( %MVANO_BYTES_0_1 );

     1161    13873    4               SUBSTR( OBUF,PRINT_NDX+9,11 ) = '(Bytes 0,1)';

  13873 27 006536   200006 236100                    LDQ     PRINT_NDX,,AUTO
        27 006537   040006 100400                    MLR     fill='040'O
        27 006540   000175 000013 26                 ADSC9   125                      cn=0,n=11
        27 006541   000002 200013 24                 ADSC9   OBUF+2,Q                 cn=1,n=11
        27 006542   006554 710000 27                 TRA     s:13879

     1162    13874    4             CASE ( %MVANO_BYTES_2_3 );

     1163    13875    4               SUBSTR( OBUF,PRINT_NDX+9,11 ) = '(Bytes 2,3)';

  13875 27 006543   200006 236100                    LDQ     PRINT_NDX,,AUTO
        27 006544   040006 100400                    MLR     fill='040'O
        27 006545   000200 000013 26                 ADSC9   128                      cn=0,n=11
        27 006546   000002 200013 24                 ADSC9   OBUF+2,Q                 cn=1,n=11
        27 006547   006554 710000 27                 TRA     s:13879

     1164    13876    4             CASE( ELSE );

     1165    13877    4               SUBSTR( OBUF,PRINT_NDX+9,15 ) = '(Error in code)';

  13877 27 006550   200006 236100                    LDQ     PRINT_NDX,,AUTO
        27 006551   040006 100400                    MLR     fill='040'O
        27 006552   000123 000017 26                 ADSC9   83                       cn=0,n=15
PL6.E3A0      #001=Z8JW$WALK_TREE File=Z8JW.:Z8A6TSI                             SAT 08/09/97 13:33 Page:255
        27 006553   000002 200017 24                 ADSC9   OBUF+2,Q                 cn=1,n=15

     1166    13878    4           END;  /* case  ill.code  */

     1167    13879    3           IF ID$-> ETT.ID = %CMPAS THEN

  13879 27 006554   000000 471500                    LDP1    0,,PR0
        27 006555   100000 220100                    LDX0    0,,PR1
        27 006556   000122 100003                    CMPX0   82,DU
        27 006557   007176 601000 27                 TNZ     s:14004

     1168    13880    3             SUBSTR( OBUF,PRINT_NDX+8,1 ) = ':';

  13880 27 006560   040006 100400                    MLR     fill='040'O
        27 006561   000027 000001 28                 ADSC9   23                       cn=0,n=1
        27 006562   000002 000001 24                 ADSC9   OBUF+2,Q                 cn=0,n=1
        27 006563   007176 710000 27                 TRA     s:14004

     1169    13881        %EJECT;
PL6.E3A0      #001=Z8JW$WALK_TREE File=Z8JW.:Z8A6TSI                             SAT 08/09/97 13:33 Page:256
     1170    13882    3         CASE ( %GO );

     1171    13883    4           DO CASE( ID$-> ILL.CODE );

  13883 27 006564   100000 720100                    LXL0    0,,PR1
        27 006565   000032 100003                    CMPX0   26,DU
        27 006566   006570 602010 27                 TNC     s:13883+4,X0
        27 006567   006766 710000 27                 TRA     s:13925
        27 006570   006622 710000 27                 TRA     s:13885
        27 006571   006627 710000 27                 TRA     s:13887
        27 006572   006766 710000 27                 TRA     s:13925
        27 006573   006634 710000 27                 TRA     s:13889
        27 006574   006766 710000 27                 TRA     s:13925
        27 006575   006646 710000 27                 TRA     s:13893
        27 006576   006766 710000 27                 TRA     s:13925
        27 006577   006641 710000 27                 TRA     s:13891
        27 006600   006766 710000 27                 TRA     s:13925
        27 006601   006660 710000 27                 TRA     s:13897
        27 006602   006653 710000 27                 TRA     s:13895
        27 006603   006665 710000 27                 TRA     s:13899
        27 006604   006672 710000 27                 TRA     s:13901
        27 006605   006677 710000 27                 TRA     s:13903
        27 006606   006747 710000 27                 TRA     s:13919
        27 006607   006704 710000 27                 TRA     s:13905
        27 006610   006730 710000 27                 TRA     s:13913
        27 006611   006723 710000 27                 TRA     s:13911
        27 006612   006766 710000 27                 TRA     s:13925
        27 006613   006716 710000 27                 TRA     s:13909
        27 006614   006711 710000 27                 TRA     s:13907
        27 006615   006735 710000 27                 TRA     s:13915
        27 006616   006742 710000 27                 TRA     s:13917
        27 006617   006754 710000 27                 TRA     s:13921
        27 006620   006766 710000 27                 TRA     s:13925
        27 006621   006761 710000 27                 TRA     s:13923

     1172    13884    4             CASE( %GO_UNCONDITIONAL );

PL6.E3A0      #001=Z8JW$WALK_TREE File=Z8JW.:Z8A6TSI                             SAT 08/09/97 13:33 Page:257
     1173    13885    4               SUBSTR( OBUF,PRINT_NDX+9,8 ) = '(Uncond)';

  13885 27 006622   200006 235100                    LDA     PRINT_NDX,,AUTO
        27 006623   040005 100400                    MLR     fill='040'O
        27 006624   000203 000010 26                 ADSC9   131                      cn=0,n=8
        27 006625   000002 200010 24                 ADSC9   OBUF+2,A                 cn=1,n=8
        27 006626   007176 710000 27                 TRA     s:14004

     1174    13886    4             CASE( %GO_LESS_THAN );

     1175    13887    4               SUBSTR( OBUF,PRINT_NDX+9,3 ) = '(<)';

  13887 27 006627   200006 235100                    LDA     PRINT_NDX,,AUTO
        27 006630   040005 100400                    MLR     fill='040'O
        27 006631   000205 000003 26                 ADSC9   133                      cn=0,n=3
        27 006632   000002 200003 24                 ADSC9   OBUF+2,A                 cn=1,n=3
        27 006633   007176 710000 27                 TRA     s:14004

     1176    13888    4             CASE ( %GO_GREATER_THAN );

     1177    13889    4               SUBSTR( OBUF,PRINT_NDX+9,3 ) = '(>)';

  13889 27 006634   200006 235100                    LDA     PRINT_NDX,,AUTO
        27 006635   040005 100400                    MLR     fill='040'O
        27 006636   000206 000003 26                 ADSC9   134                      cn=0,n=3
        27 006637   000002 200003 24                 ADSC9   OBUF+2,A                 cn=1,n=3
        27 006640   007176 710000 27                 TRA     s:14004

     1178    13890    4             CASE ( %GO_GREATER_THAN_OR_EQUAL );

     1179    13891    4               SUBSTR( OBUF,PRINT_NDX+9,4 ) = '(>=)';

  13891 27 006641   200006 235100                    LDA     PRINT_NDX,,AUTO
        27 006642   040005 100400                    MLR     fill='040'O
        27 006643   000207 000004 26                 ADSC9   135                      cn=0,n=4
        27 006644   000002 200004 24                 ADSC9   OBUF+2,A                 cn=1,n=4
        27 006645   007176 710000 27                 TRA     s:14004
PL6.E3A0      #001=Z8JW$WALK_TREE File=Z8JW.:Z8A6TSI                             SAT 08/09/97 13:33 Page:258

     1180    13892    4             CASE ( %GO_LESS_THAN_OR_EQUAL );

     1181    13893    4               SUBSTR( OBUF,PRINT_NDX+9,4 ) = '(<=)';

  13893 27 006646   200006 235100                    LDA     PRINT_NDX,,AUTO
        27 006647   040005 100400                    MLR     fill='040'O
        27 006650   000210 000004 26                 ADSC9   136                      cn=0,n=4
        27 006651   000002 200004 24                 ADSC9   OBUF+2,A                 cn=1,n=4
        27 006652   007176 710000 27                 TRA     s:14004

     1182    13894    4             CASE ( %GO_NOT_EQUAL );

     1183    13895    4               SUBSTR( OBUF,PRINT_NDX+9,4 ) = '(<>)';

  13895 27 006653   200006 235100                    LDA     PRINT_NDX,,AUTO
        27 006654   040005 100400                    MLR     fill='040'O
        27 006655   000211 000004 26                 ADSC9   137                      cn=0,n=4
        27 006656   000002 200004 24                 ADSC9   OBUF+2,A                 cn=1,n=4
        27 006657   007176 710000 27                 TRA     s:14004

     1184    13896    4             CASE ( %GO_EQUAL );

     1185    13897    4               SUBSTR( OBUF,PRINT_NDX+9,3 ) = '(=)';

  13897 27 006660   200006 235100                    LDA     PRINT_NDX,,AUTO
        27 006661   040005 100400                    MLR     fill='040'O
        27 006662   000212 000003 26                 ADSC9   138                      cn=0,n=3
        27 006663   000002 200003 24                 ADSC9   OBUF+2,A                 cn=1,n=3
        27 006664   007176 710000 27                 TRA     s:14004

     1186    13898    4             CASE ( %GO_CLASS );

     1187    13899    4               SUBSTR( OBUF,PRINT_NDX+9,7 ) = '(Class)';

  13899 27 006665   200006 235100                    LDA     PRINT_NDX,,AUTO
        27 006666   040005 100400                    MLR     fill='040'O
PL6.E3A0      #001=Z8JW$WALK_TREE File=Z8JW.:Z8A6TSI                             SAT 08/09/97 13:33 Page:259
        27 006667   000213 000007 26                 ADSC9   139                      cn=0,n=7
        27 006670   000002 200007 24                 ADSC9   OBUF+2,A                 cn=1,n=7
        27 006671   007176 710000 27                 TRA     s:14004

     1188    13900    4             CASE ( %GO_NOT_CLASS );

     1189    13901    4               SUBSTR( OBUF,PRINT_NDX+9,11) = '(Not Class)';

  13901 27 006672   200006 235100                    LDA     PRINT_NDX,,AUTO
        27 006673   040005 100400                    MLR     fill='040'O
        27 006674   000215 000013 26                 ADSC9   141                      cn=0,n=11
        27 006675   000002 200013 24                 ADSC9   OBUF+2,A                 cn=1,n=11
        27 006676   007176 710000 27                 TRA     s:14004

     1190    13902    4             CASE ( %GO_OVERFLOW );

     1191    13903    4               SUBSTR( OBUF,PRINT_NDX+9,10) = '(Overflow)';

  13903 27 006677   200006 235100                    LDA     PRINT_NDX,,AUTO
        27 006700   040005 100400                    MLR     fill='040'O
        27 006701   000220 000012 26                 ADSC9   144                      cn=0,n=10
        27 006702   000002 200012 24                 ADSC9   OBUF+2,A                 cn=1,n=10
        27 006703   007176 710000 27                 TRA     s:14004

     1192    13904    4             CASE ( %GO_MPI_OVERFLOW );

     1193    13905    4               SUBSTR( OBUF,PRINT_NDX+9,14) = '(Mpi overflow)';

  13905 27 006704   200006 235100                    LDA     PRINT_NDX,,AUTO
        27 006705   040005 100400                    MLR     fill='040'O
        27 006706   000223 000016 26                 ADSC9   147                      cn=0,n=14
        27 006707   000002 200016 24                 ADSC9   OBUF+2,A                 cn=1,n=14
        27 006710   007176 710000 27                 TRA     s:14004

     1194    13906    4             CASE ( %GO_OVERFLOW_OFF );

     1195    13907    4               SUBSTR( OBUF,PRINT_NDX+9,14) = '(Overflow off)';
PL6.E3A0      #001=Z8JW$WALK_TREE File=Z8JW.:Z8A6TSI                             SAT 08/09/97 13:33 Page:260

  13907 27 006711   200006 235100                    LDA     PRINT_NDX,,AUTO
        27 006712   040005 100400                    MLR     fill='040'O
        27 006713   000227 000016 26                 ADSC9   151                      cn=0,n=14
        27 006714   000002 200016 24                 ADSC9   OBUF+2,A                 cn=1,n=14
        27 006715   007176 710000 27                 TRA     s:14004

     1196    13908    4             CASE ( %GO_FLT_OVERFLOW_OFF );

     1197    13909    4               SUBSTR( OBUF,PRINT_NDX+9,18) = '(Flt overflow off)';

  13909 27 006716   200006 235100                    LDA     PRINT_NDX,,AUTO
        27 006717   040005 100400                    MLR     fill='040'O
        27 006720   000233 000022 26                 ADSC9   155                      cn=0,n=18
        27 006721   000002 200022 24                 ADSC9   OBUF+2,A                 cn=1,n=18
        27 006722   007176 710000 27                 TRA     s:14004

     1198    13910    4             CASE ( %GO_PFORM_BYCHK );

     1199    13911    4               SUBSTR( OBUF,PRINT_NDX+9,13) = '(Pform bychk)';

  13911 27 006723   200006 235100                    LDA     PRINT_NDX,,AUTO
        27 006724   040005 100400                    MLR     fill='040'O
        27 006725   000240 000015 26                 ADSC9   160                      cn=0,n=13
        27 006726   000002 200015 24                 ADSC9   OBUF+2,A                 cn=1,n=13
        27 006727   007176 710000 27                 TRA     s:14004

     1200    13912    4             CASE ( %GO_ALTERED );

     1201    13913    4               SUBSTR( OBUF,PRINT_NDX+9,9 ) = '(Altered)';

  13913 27 006730   200006 235100                    LDA     PRINT_NDX,,AUTO
        27 006731   040005 100400                    MLR     fill='040'O
        27 006732   000244 000011 26                 ADSC9   164                      cn=0,n=9
        27 006733   000002 200011 24                 ADSC9   OBUF+2,A                 cn=1,n=9
        27 006734   007176 710000 27                 TRA     s:14004

PL6.E3A0      #001=Z8JW$WALK_TREE File=Z8JW.:Z8A6TSI                             SAT 08/09/97 13:33 Page:261
     1202    13914    4             CASE ( %GO_SWITCH_ON );

     1203    13915    4               SUBSTR( OBUF,PRINT_NDX+9,10) = '(Check on)';

  13915 27 006735   200006 235100                    LDA     PRINT_NDX,,AUTO
        27 006736   040005 100400                    MLR     fill='040'O
        27 006737   000247 000012 26                 ADSC9   167                      cn=0,n=10
        27 006740   000002 200012 24                 ADSC9   OBUF+2,A                 cn=1,n=10
        27 006741   007176 710000 27                 TRA     s:14004

     1204    13916    4             CASE ( %GO_SWITCH_OFF );

     1205    13917    4               SUBSTR( OBUF,PRINT_NDX+9,11 ) = '(Check off)';

  13917 27 006742   200006 235100                    LDA     PRINT_NDX,,AUTO
        27 006743   040005 100400                    MLR     fill='040'O
        27 006744   000252 000013 26                 ADSC9   170                      cn=0,n=11
        27 006745   000002 200013 24                 ADSC9   OBUF+2,A                 cn=1,n=11
        27 006746   007176 710000 27                 TRA     s:14004

     1206    13918    4             CASE ( %GO_FLAG_FALSE );

     1207    13919    4               SUBSTR( OBUF,PRINT_NDX+9,12) = '(Flag false)';

  13919 27 006747   200006 235100                    LDA     PRINT_NDX,,AUTO
        27 006750   040005 100400                    MLR     fill='040'O
        27 006751   000255 000014 26                 ADSC9   173                      cn=0,n=12
        27 006752   000002 200014 24                 ADSC9   OBUF+2,A                 cn=1,n=12
        27 006753   007176 710000 27                 TRA     s:14004

     1208    13920    4             CASE ( %GO_LESS_THAN_LOGICAL );

     1209    13921    4               SUBSTR( OBUF,PRINT_NDX+9,19) = '(Less Than Logical)';

  13921 27 006754   200006 235100                    LDA     PRINT_NDX,,AUTO
        27 006755   040005 100400                    MLR     fill='040'O
        27 006756   000260 000023 26                 ADSC9   176                      cn=0,n=19
PL6.E3A0      #001=Z8JW$WALK_TREE File=Z8JW.:Z8A6TSI                             SAT 08/09/97 13:33 Page:262
        27 006757   000002 200023 24                 ADSC9   OBUF+2,A                 cn=1,n=19
        27 006760   007176 710000 27                 TRA     s:14004

     1210    13922    4             CASE (%GO_FLT_OVERFLOW);

     1211    13923    4               SUBSTR (OBUF, PRINT_NDX+9,14) = '(Flt overflow)';

  13923 27 006761   200006 235100                    LDA     PRINT_NDX,,AUTO
        27 006762   040005 100400                    MLR     fill='040'O
        27 006763   000265 000016 26                 ADSC9   181                      cn=0,n=14
        27 006764   000002 200016 24                 ADSC9   OBUF+2,A                 cn=1,n=14
        27 006765   007176 710000 27                 TRA     s:14004

     1212    13924    4             CASE ( ELSE );

     1213    13925    4               SUBSTR( OBUF,PRINT_NDX+9,15 ) = '(Error in code)';

  13925 27 006766   200006 235100                    LDA     PRINT_NDX,,AUTO
        27 006767   040005 100400                    MLR     fill='040'O
        27 006770   000123 000017 26                 ADSC9   83                       cn=0,n=15
        27 006771   000002 200017 24                 ADSC9   OBUF+2,A                 cn=1,n=15

     1214    13926    4           END;  /* case ill.code */

  13926 27 006772   007176 710000 27                 TRA     s:14004

     1215    13927        %EJECT;
PL6.E3A0      #001=Z8JW$WALK_TREE File=Z8JW.:Z8A6TSI                             SAT 08/09/97 13:33 Page:263
     1216    13928    3         CASE ( %DISPL );

     1217    13929    4           DO CASE( ID$-> ILL.CODE );

  13929 27 006773   100000 720100                    LXL0    0,,PR1
        27 006774   000003 100003                    CMPX0   3,DU
        27 006775   006777 602010 27                 TNC     s:13929+4,X0
        27 006776   007021 710000 27                 TRA     s:13937
        27 006777   007002 710000 27                 TRA     s:13931
        27 007000   007007 710000 27                 TRA     s:13933
        27 007001   007014 710000 27                 TRA     s:13935

     1218    13930    4             CASE ( %DISPLAY_SYSOUT );

     1219    13931    4               SUBSTR( OBUF,PRINT_NDX+9,8) = '(Sysout)';

  13931 27 007002   200006 235100                    LDA     PRINT_NDX,,AUTO
        27 007003   040005 100400                    MLR     fill='040'O
        27 007004   000271 000010 26                 ADSC9   185                      cn=0,n=8
        27 007005   000002 200010 24                 ADSC9   OBUF+2,A                 cn=1,n=8
        27 007006   007176 710000 27                 TRA     s:14004

     1220    13932    4             CASE ( %DISPLAY_SYSOUT_NO_ADV );

     1221    13933    4               SUBSTR ( OBUF,PRINT_NDX+9,15 ) = '(Sysout no adv)';

  13933 27 007007   200006 235100                    LDA     PRINT_NDX,,AUTO
        27 007010   040005 100400                    MLR     fill='040'O
        27 007011   000273 000017 26                 ADSC9   187                      cn=0,n=15
        27 007012   000002 200017 24                 ADSC9   OBUF+2,A                 cn=1,n=15
        27 007013   007176 710000 27                 TRA     s:14004

     1222    13934    4             CASE ( %DISPLAY_CONSOLE );

     1223    13935    4               SUBSTR ( OBUF,PRINT_NDX+9,9 ) = '(Console)';

  13935 27 007014   200006 235100                    LDA     PRINT_NDX,,AUTO
PL6.E3A0      #001=Z8JW$WALK_TREE File=Z8JW.:Z8A6TSI                             SAT 08/09/97 13:33 Page:264
        27 007015   040005 100400                    MLR     fill='040'O
        27 007016   000120 000011 26                 ADSC9   80                       cn=0,n=9
        27 007017   000002 200011 24                 ADSC9   OBUF+2,A                 cn=1,n=9
        27 007020   007176 710000 27                 TRA     s:14004

     1224    13936    4             CASE( ELSE );

     1225    13937    4               SUBSTR( OBUF,PRINT_NDX+9,15 ) = '(Error in code)';

  13937 27 007021   200006 235100                    LDA     PRINT_NDX,,AUTO
        27 007022   040005 100400                    MLR     fill='040'O
        27 007023   000123 000017 26                 ADSC9   83                       cn=0,n=15
        27 007024   000002 200017 24                 ADSC9   OBUF+2,A                 cn=1,n=15

     1226    13938    4           END;  /* case ill.code */

  13938 27 007025   007176 710000 27                 TRA     s:14004

     1227    13939        %EJECT;
PL6.E3A0      #001=Z8JW$WALK_TREE File=Z8JW.:Z8A6TSI                             SAT 08/09/97 13:33 Page:265
     1228    13940    3           CASE ( %CVHI );

     1229    13941    4             DO CASE( ID$-> ETT.ROPCON );

  13941 27 007026   100002 235100                    LDA     2,,PR1
        27 007027   000003 115007                    CMPA    3,DL
        27 007030   007032 602005 27                 TNC     s:13941+4,AL
        27 007031   007054 710000 27                 TRA     s:13953
        27 007032   007035 710000 27                 TRA     s:13944
        27 007033   007042 710000 27                 TRA     s:13947
        27 007034   007047 710000 27                 TRA     s:13950

     1230    13942
     1231    13943    4               CASE ( %CVHI_UPPER );

     1232    13944    4                 SUBSTR( OBUF,PRINT_NDX+8,10 ) = ':- (Upper)';

  13944 27 007035   200006 235100                    LDA     PRINT_NDX,,AUTO
        27 007036   040005 100400                    MLR     fill='040'O
        27 007037   000277 000012 26                 ADSC9   191                      cn=0,n=10
        27 007040   000002 000012 24                 ADSC9   OBUF+2,A                 cn=0,n=10
        27 007041   007176 710000 27                 TRA     s:14004

     1233    13945
     1234    13946    4               CASE ( %CVHI_LOWER );

     1235    13947    4                 SUBSTR( OBUF,PRINT_NDX+8,10 ) = ':- (Lower)';

  13947 27 007042   200006 235100                    LDA     PRINT_NDX,,AUTO
        27 007043   040005 100400                    MLR     fill='040'O
        27 007044   000302 000012 26                 ADSC9   194                      cn=0,n=10
        27 007045   000002 000012 24                 ADSC9   OBUF+2,A                 cn=0,n=10
        27 007046   007176 710000 27                 TRA     s:14004

     1236    13948
     1237    13949    4               CASE ( %CVHI_UNKNOWN );

PL6.E3A0      #001=Z8JW$WALK_TREE File=Z8JW.:Z8A6TSI                             SAT 08/09/97 13:33 Page:266
     1238    13950    4                 SUBSTR( OBUF,PRINT_NDX+8,12 ) = ':- (Unknown)';

  13950 27 007047   200006 235100                    LDA     PRINT_NDX,,AUTO
        27 007050   040005 100400                    MLR     fill='040'O
        27 007051   000305 000014 26                 ADSC9   197                      cn=0,n=12
        27 007052   000002 000014 24                 ADSC9   OBUF+2,A                 cn=0,n=12
        27 007053   007176 710000 27                 TRA     s:14004

     1239    13951
     1240    13952    4               CASE (ELSE);

     1241    13953    4                 SUBSTR( OBUF,PRINT_NDX+8,10 ) = ':- (Error)';

  13953 27 007054   200006 235100                    LDA     PRINT_NDX,,AUTO
        27 007055   040005 100400                    MLR     fill='040'O
        27 007056   000310 000012 26                 ADSC9   200                      cn=0,n=10
        27 007057   000002 000012 24                 ADSC9   OBUF+2,A                 cn=0,n=10

     1242    13954
     1243    13955    4             END;  /* case ill.code */

  13955 27 007060   007176 710000 27                 TRA     s:14004

     1244    13956        %EJECT;
PL6.E3A0      #001=Z8JW$WALK_TREE File=Z8JW.:Z8A6TSI                             SAT 08/09/97 13:33 Page:267
     1245    13957
     1246    13958    3           CASE ( %CVKI );

     1247    13959    4             DO CASE ( ID$-> ETT.ROPCON );

  13959 27 007061   100002 235100                    LDA     2,,PR1
        27 007062   000005 115007                    CMPA    5,DL
        27 007063   007065 602005 27                 TNC     s:13959+4,AL
        27 007064   007123 710000 27                 TRA     s:13977
        27 007065   007072 710000 27                 TRA     s:13962
        27 007066   007077 710000 27                 TRA     s:13965
        27 007067   007104 710000 27                 TRA     s:13968
        27 007070   007111 710000 27                 TRA     s:13971
        27 007071   007116 710000 27                 TRA     s:13974

     1248    13960
     1249    13961    4               CASE ( %CVKI_BYTE0 );

     1250    13962    4                 SUBSTR( OBUF,PRINT_NDX+8,10 ) = ':- (Byte0)';

  13962 27 007072   200006 235100                    LDA     PRINT_NDX,,AUTO
        27 007073   040005 100400                    MLR     fill='040'O
        27 007074   000313 000012 26                 ADSC9   203                      cn=0,n=10
        27 007075   000002 000012 24                 ADSC9   OBUF+2,A                 cn=0,n=10
        27 007076   007176 710000 27                 TRA     s:14004

     1251    13963
     1252    13964    4               CASE ( %CVKI_BYTE1 );

     1253    13965    4                 SUBSTR( OBUF,PRINT_NDX+8,10 ) = ':- (Byte1)';

  13965 27 007077   200006 235100                    LDA     PRINT_NDX,,AUTO
        27 007100   040005 100400                    MLR     fill='040'O
        27 007101   000316 000012 26                 ADSC9   206                      cn=0,n=10
        27 007102   000002 000012 24                 ADSC9   OBUF+2,A                 cn=0,n=10
        27 007103   007176 710000 27                 TRA     s:14004

PL6.E3A0      #001=Z8JW$WALK_TREE File=Z8JW.:Z8A6TSI                             SAT 08/09/97 13:33 Page:268
     1254    13966
     1255    13967    4               CASE ( %CVKI_BYTE2 );

     1256    13968    4                 SUBSTR( OBUF,PRINT_NDX+8,10 ) = ':- (Byte2)';

  13968 27 007104   200006 235100                    LDA     PRINT_NDX,,AUTO
        27 007105   040005 100400                    MLR     fill='040'O
        27 007106   000321 000012 26                 ADSC9   209                      cn=0,n=10
        27 007107   000002 000012 24                 ADSC9   OBUF+2,A                 cn=0,n=10
        27 007110   007176 710000 27                 TRA     s:14004

     1257    13969
     1258    13970    4               CASE ( %CVKI_BYTE3 );

     1259    13971    4                 SUBSTR( OBUF,PRINT_NDX+8,10 ) = ':- (Byte3)';

  13971 27 007111   200006 235100                    LDA     PRINT_NDX,,AUTO
        27 007112   040005 100400                    MLR     fill='040'O
        27 007113   000324 000012 26                 ADSC9   212                      cn=0,n=10
        27 007114   000002 000012 24                 ADSC9   OBUF+2,A                 cn=0,n=10
        27 007115   007176 710000 27                 TRA     s:14004

     1260    13972
     1261    13973    4               CASE ( %CVKI_UNKNOWN );

     1262    13974    4                 SUBSTR( OBUF,PRINT_NDX+8,12 ) = ':- (Unknown)';

  13974 27 007116   200006 235100                    LDA     PRINT_NDX,,AUTO
        27 007117   040005 100400                    MLR     fill='040'O
        27 007120   000327 000014 26                 ADSC9   215                      cn=0,n=12
        27 007121   000002 000014 24                 ADSC9   OBUF+2,A                 cn=0,n=12
        27 007122   007176 710000 27                 TRA     s:14004

     1263    13975
     1264    13976    4               CASE (ELSE);

     1265    13977    4                 SUBSTR( OBUF,PRINT_NDX+8,10 ) = ':- (Error)';
PL6.E3A0      #001=Z8JW$WALK_TREE File=Z8JW.:Z8A6TSI                             SAT 08/09/97 13:33 Page:269

  13977 27 007123   200006 235100                    LDA     PRINT_NDX,,AUTO
        27 007124   040005 100400                    MLR     fill='040'O
        27 007125   000332 000012 26                 ADSC9   218                      cn=0,n=10
        27 007126   000002 000012 24                 ADSC9   OBUF+2,A                 cn=0,n=10

     1266    13978
     1267    13979    4             END; /* case ill.code */

  13979 27 007127   007176 710000 27                 TRA     s:14004

     1268    13980        %EJECT;
PL6.E3A0      #001=Z8JW$WALK_TREE File=Z8JW.:Z8A6TSI                             SAT 08/09/97 13:33 Page:270
     1269    13981    3           CASE ( %CVJI );

     1270    13982    4             DO CASE( ID$-> ETT.ROPCON );

  13982 27 007130   100002 235100                    LDA     2,,PR1
        27 007131   000005 115007                    CMPA    5,DL
        27 007132   007134 602005 27                 TNC     s:13982+4,AL
        27 007133   007172 710000 27                 TRA     s:14000
        27 007134   007141 710000 27                 TRA     s:13985
        27 007135   007146 710000 27                 TRA     s:13988
        27 007136   007153 710000 27                 TRA     s:13991
        27 007137   007160 710000 27                 TRA     s:13994
        27 007140   007165 710000 27                 TRA     s:13997

     1271    13983
     1272    13984    4               CASE ( %CVJI_BYTE0 );

     1273    13985    4                 SUBSTR( OBUF,PRINT_NDX+8,10 ) = ':- (Byte0)';

  13985 27 007141   200006 235100                    LDA     PRINT_NDX,,AUTO
        27 007142   040005 100400                    MLR     fill='040'O
        27 007143   000313 000012 26                 ADSC9   203                      cn=0,n=10
        27 007144   000002 000012 24                 ADSC9   OBUF+2,A                 cn=0,n=10
        27 007145   007176 710000 27                 TRA     s:14004

     1274    13986
     1275    13987    4               CASE ( %CVJI_BYTE1 );

     1276    13988    4                 SUBSTR( OBUF,PRINT_NDX+8,10 ) = ':- (Byte1)';

  13988 27 007146   200006 235100                    LDA     PRINT_NDX,,AUTO
        27 007147   040005 100400                    MLR     fill='040'O
        27 007150   000316 000012 26                 ADSC9   206                      cn=0,n=10
        27 007151   000002 000012 24                 ADSC9   OBUF+2,A                 cn=0,n=10
        27 007152   007176 710000 27                 TRA     s:14004

     1277    13989
PL6.E3A0      #001=Z8JW$WALK_TREE File=Z8JW.:Z8A6TSI                             SAT 08/09/97 13:33 Page:271
     1278    13990    4               CASE ( %CVJI_BYTE2 );

     1279    13991    4                 SUBSTR( OBUF,PRINT_NDX+8,10 ) = ':- (Byte2)';

  13991 27 007153   200006 235100                    LDA     PRINT_NDX,,AUTO
        27 007154   040005 100400                    MLR     fill='040'O
        27 007155   000321 000012 26                 ADSC9   209                      cn=0,n=10
        27 007156   000002 000012 24                 ADSC9   OBUF+2,A                 cn=0,n=10
        27 007157   007176 710000 27                 TRA     s:14004

     1280    13992
     1281    13993    4               CASE ( %CVJI_BYTE3 );

     1282    13994    4                 SUBSTR( OBUF,PRINT_NDX+8,10 ) = ':- (Byte3)';

  13994 27 007160   200006 235100                    LDA     PRINT_NDX,,AUTO
        27 007161   040005 100400                    MLR     fill='040'O
        27 007162   000324 000012 26                 ADSC9   212                      cn=0,n=10
        27 007163   000002 000012 24                 ADSC9   OBUF+2,A                 cn=0,n=10
        27 007164   007176 710000 27                 TRA     s:14004

     1283    13995
     1284    13996    4               CASE ( %CVJI_UNKNOWN );

     1285    13997    4                 SUBSTR( OBUF,PRINT_NDX+8,12 ) = ':- (Unknown)';

  13997 27 007165   200006 235100                    LDA     PRINT_NDX,,AUTO
        27 007166   040005 100400                    MLR     fill='040'O
        27 007167   000327 000014 26                 ADSC9   215                      cn=0,n=12
        27 007170   000002 000014 24                 ADSC9   OBUF+2,A                 cn=0,n=12
        27 007171   007176 710000 27                 TRA     s:14004

     1286    13998
     1287    13999    4               CASE (ELSE);

     1288    14000    4                 SUBSTR( OBUF,PRINT_NDX+8,10 ) = ':- (Error)';

PL6.E3A0      #001=Z8JW$WALK_TREE File=Z8JW.:Z8A6TSI                             SAT 08/09/97 13:33 Page:272
  14000 27 007172   200006 235100                    LDA     PRINT_NDX,,AUTO
        27 007173   040005 100400                    MLR     fill='040'O
        27 007174   000332 000012 26                 ADSC9   218                      cn=0,n=10
        27 007175   000002 000012 24                 ADSC9   OBUF+2,A                 cn=0,n=10

     1289    14001    4           END;  /* case ett.ropcon */

     1290    14002
     1291    14003    3       END; /* case ill.id */

     1292    14004    2   END PRINT_CODE;  /* proc */

  14004 27 007176   000001 702211                    TSX2  ! 1,X1

     1293    14005        %EJECT;
PL6.E3A0      #001=Z8JW$WALK_TREE File=Z8JW.:Z8A6TSI                             SAT 08/09/97 13:33 Page:273
     1294    14006    1     PRINT_ADDRESS: PROC( ID$ );

  14006 27 007177   200072 741300       PRINT_ADDRE* STX1  ! MAX_LENGTH+1,,AUTO

     1295    14007
     1296    14008    2       DCL ID$   PTR;
     1297    14009    2       DCL COLUMN UBIN WORD;
     1298    14010
     1299    14011    2       IF ABSTRACT THEN

  14011 27 007200   000002 234000 25                 SZN     ABSTRACT
        27 007201   007205 605000 27                 TPL     s:14014

     1300    14012    2         COLUMN = ADDRESS;

  14012 27 007202   000001 235000 25                 LDA     ADDRESS
        27 007203   200074 755100                    STA     COLUMN,,AUTO
        27 007204   007206 710000 27                 TRA     s:14016

     1301    14013    2       ELSE
     1302    14014    2         COLUMN = 0;

  14014 27 007205   200074 450100                    STZ     COLUMN,,AUTO

     1303    14015
     1304    14016    2         IF ID$ ~= ADDR(NIL) THEN

  14016 27 007206   200073 470500                    LDP0    @ID$,,AUTO
        27 007207   000000 236100                    LDQ     0,,PR0
        27 007210   000002 116000 28                 CMPQ    2
        27 007211   007227 600000 27                 TZE     s:14022

     1305    14017    3           DO;

     1306    14018    3             CALL X8CO$CONV_TO_OCTAL( ID$, CHAR12 );

  14018 27 007212   200007 631500                    EPPR1   CHAR12,,AUTO
PL6.E3A0      #001=Z8JW$WALK_TREE File=Z8JW.:Z8A6TSI                             SAT 08/09/97 13:33 Page:274
        27 007213   200077 451500                    STP1    @OP+2,,AUTO
        27 007214   200073 236100                    LDQ     @ID$,,AUTO
        27 007215   200076 756100                    STQ     @OP+1,,AUTO
        27 007216   200076 630500                    EPPR0   @OP+1,,AUTO
        27 007217   000011 631400 28                 EPPR1   9
        27 007220   000000 701000 xent               TSX1    X8CO$CONV_TO_OCTAL
        27 007221   000000 011000                    NOP     0

     1307    14019    3             SUBSTR( OBUF,COLUMN,6 ) = SUBSTR( CHAR12,0,6 );

  14019 27 007222   200074 235100                    LDA     COLUMN,,AUTO
        27 007223   040005 100500                    MLR     fill='040'O
        27 007224   200007 000006                    ADSC9   CHAR12,,AUTO             cn=0,n=6
        27 007225   000000 000006 24                 ADSC9   OBUF,A                   cn=0,n=6

     1308    14020    3           END;

  14020 27 007226   007233 710000 27                 TRA     s:14024

     1309    14021    2         ELSE
     1310    14022    2           SUBSTR( OBUF,COLUMN,6 ) = ' ';

  14022 27 007227   200074 235100                    LDA     COLUMN,,AUTO
        27 007230   040005 100400                    MLR     fill='040'O
        27 007231   000013 000001 28                 ADSC9   11                       cn=0,n=1
        27 007232   000000 000006 24                 ADSC9   OBUF,A                   cn=0,n=6

     1311    14023
     1312    14024    2     END PRINT_ADDRESS;   /* proc */

  14024 27 007233   200072 221300                    LDX1  ! MAX_LENGTH+1,,AUTO
        27 007234   000001 702211                    TSX2  ! 1,X1

     1313    14025        %EJECT;
PL6.E3A0      #001=Z8JW$WALK_TREE File=Z8JW.:Z8A6TSI                             SAT 08/09/97 13:33 Page:275
     1314    14026        /*I*     NAME:         PRINT_AND_CLEAR
     1315    14027                               --------------------
     1316    14028               THIS ROUTINE DETERMINES IF THE ROOT OF THE TREE IS
     1317    14029               BEING PRINTED.  IF SO, THE LEADING FILL CHARARTERS ARE
     1318    14030               REMOVED AND THE CALL TO Z9AL$DUMP_LINE IS MADE TO PRINT
     1319    14031               OBUF.  IF OBUF DOES NOT CONTAIN THE ROOT IT IS PRINTED
     1320    14032               AS IS.  IN BOTH CASES,  THE ITEM'S NAME IS CLEARED FROM
     1321    14033               OBUF -- LEAVING VERTICAL TREE BRANCHES INTACT.
     1322    14034
     1323    14035        */
     1324    14036
     1325    14037
     1326    14038    1     PRINT_AND_CLEAR: PROC ( COLUMN, LENGTH, OP );

  14038 27 007235   200072 741300       PRINT_AND_C* STX1  ! MAX_LENGTH+1,,AUTO

     1327    14039
     1328    14040    2       DCL COLUMN       UBIN WORD;
     1329    14041    2       DCL LENGTH       UBIN WORD;
     1330    14042    2       DCL OP           UBIN WORD;
     1331    14043
     1332    14044
     1333    14045
     1334    14046            /*V*  INTERACTIVE TREES? */
     1335    14047
     1336    14048    2       CALL Z9AL$DUMP_LINE;

  14048 27 007236   000007 631400 28                 EPPR1   7
        27 007237   000000 701000 xent               TSX1    Z9AL$DUMP_LINE
        27 007240   000000 011000                    NOP     0

     1337    14049
     1338    14050            /* CLEAR ITEM FROM OBUF */
     1339    14051
     1340    14052    2       SUBSTR( OBUF,COLUMN, LENGTH ) = ' ';

  14052 27 007241   200073 470500                    LDP0    @COLUMN,,AUTO
PL6.E3A0      #001=Z8JW$WALK_TREE File=Z8JW.:Z8A6TSI                             SAT 08/09/97 13:33 Page:276
        27 007242   000000 235100                    LDA     0,,PR0
        27 007243   200074 471500                    LDP1    @LENGTH,,AUTO
        27 007244   100000 720100                    LXL0    0,,PR1
        27 007245   040045 100400                    MLR     fill='040'O
        27 007246   000013 000001 28                 ADSC9   11                       cn=0,n=1
        27 007247   000000 000010 24                 ADSC9   OBUF,A                   cn=0,n=*X0

     1341    14053    2       SUBSTR( OBUF,0,6 ) = ' ';

  14053 27 007250   040000 100400                    MLR     fill='040'O
        27 007251   000013 000001 28                 ADSC9   11                       cn=0,n=1
        27 007252   000000 000006 24                 ADSC9   OBUF                     cn=0,n=6

     1342    14054
     1343    14055    2     END PRINT_AND_CLEAR; /*END PROC */

  14055 27 007253   200072 221300                    LDX1  ! MAX_LENGTH+1,,AUTO
        27 007254   000001 702211                    TSX2  ! 1,X1

     1344    14056        %EJECT;
PL6.E3A0      #001=Z8JW$WALK_TREE File=Z8JW.:Z8A6TSI                             SAT 08/09/97 13:33 Page:277
     1345    14057        /*I*     NAME:         BRANCH_BUILDER
     1346    14058                               -------------------
     1347    14059
     1348    14060               THIS ROUTINE DETERMINES THE PLACEMENT OF VERTICAL TREE
     1349    14061               BRANCHES.  IF THE LINE JUST PRINTED CONTAINED A ROP, A
     1350    14062               VERTICAL BRANCH IS STARTED.  OTHERWISE,  IF THE LINE
     1351    14063               CONTAINED A LOP THEN A BRANCH IS ENDED.   THE ONLY OTHER
     1352    14064               CASE IS WHEN THE LINE CONTAINED A ROOT AND IT IS IGNORED.
     1353    14065
     1354    14066
     1355    14067        */
     1356    14068
     1357    14069    1     BRANCH_BUILDER: PROC ( OP, COLUMN );

  14069 27 007255   200072 741300       BRANCH_BUIL* STX1  ! MAX_LENGTH+1,,AUTO

     1358    14070
     1359    14071    2       DCL OP     UBIN WORD;
     1360    14072    2       DCL COLUMN UBIN WORD;
     1361    14073
     1362    14074    2       IF OP = %ROP THEN

  14074 27 007256   200073 470500                    LDP0    @OP,,AUTO
        27 007257   000000 235100                    LDA     0,,PR0
        27 007260   000001 115007                    CMPA    1,DL
        27 007261   007270 601000 27                 TNZ     s:14077

     1363    14075    2         SUBSTR ( OBUF, COLUMN, 1) = '!';

  14075 27 007262   200074 471500                    LDP1    @COLUMN,,AUTO
        27 007263   100000 235100                    LDA     0,,PR1
        27 007264   040005 100400                    MLR     fill='040'O
        27 007265   000030 000001 28                 ADSC9   24                       cn=0,n=1
        27 007266   000000 000001 24                 ADSC9   OBUF,A                   cn=0,n=1
        27 007267   007277 710000 27                 TRA     s:14081

     1364    14076    2       ELSE
PL6.E3A0      #001=Z8JW$WALK_TREE File=Z8JW.:Z8A6TSI                             SAT 08/09/97 13:33 Page:278
     1365    14077    2         IF OP = %LOP THEN

  14077 27 007270   000000 115003                    CMPA    0,DU
        27 007271   007277 601000 27                 TNZ     s:14081

     1366    14078    2           SUBSTR ( OBUF, COLUMN, 1) = ' ';

  14078 27 007272   200074 471500                    LDP1    @COLUMN,,AUTO
        27 007273   100000 235100                    LDA     0,,PR1
        27 007274   040005 100400                    MLR     fill='040'O
        27 007275   000013 000001 28                 ADSC9   11                       cn=0,n=1
        27 007276   000000 000001 24                 ADSC9   OBUF,A                   cn=0,n=1

     1367    14079
     1368    14080
     1369    14081    2     END BRANCH_BUILDER;  /* PROC */

  14081 27 007277   000001 702211                    TSX2  ! 1,X1

     1370    14082        %EJECT;
PL6.E3A0      #001=Z8JW$WALK_TREE File=Z8JW.:Z8A6TSI                             SAT 08/09/97 13:33 Page:279
     1371    14083    1     PRINT_AST_ITEM:  PROC ( ID$, OP );

  14083 27 007300   200060 741300       PRINT_AST_I* STX1  ! ARGS#+2,,AUTO

     1372    14084
     1373    14085    2       DCL ID$                PTR;
     1374    14086    2       DCL OP                 UBIN WORD;
     1375    14087
     1376    14088    3       DO CASE ( ID$-> LX_LIST.ID );

  14088 27 007301   200061 470500                    LDP0    @ID$,,AUTO
        27 007302   000000 471500                    LDP1    0,,PR0
        27 007303   100000 220100                    LDX0    0,,PR1
        27 007304   000010 100003                    CMPX0   8,DU
        27 007305   007307 602010 27                 TNC     s:14088+6,X0
        27 007306   010261 710000 27                 TRA     s:14208
        27 007307   007676 710000 27                 TRA     s:14149
        27 007310   007441 710000 27                 TRA     s:14111
        27 007311   007317 710000 27                 TRA     s:14092
        27 007312   010261 710000 27                 TRA     s:14208
        27 007313   010070 710000 27                 TRA     s:14181
        27 007314   007512 710000 27                 TRA     s:14121
        27 007315   007604 710000 27                 TRA     s:14135
        27 007316   007370 710000 27                 TRA     s:14101

     1377    14089
     1378    14090    3         CASE ( %LX_LIST );

     1379    14091
     1380    14092    3           CALL PRINT_AND_CLEAR( 120, 1, OP );

  14092 27 007317   200062 236100                    LDQ     @OP,,AUTO
        27 007320   000005 235000 28                 LDA     5
        27 007321   200074 757100                    STAQ    @COLUMN,,AUTO
        27 007322   000032 236000 28                 LDQ     26
        27 007323   200073 756100                    STQ     @OP,,AUTO
        27 007324   007235 701000 27                 TSX1    PRINT_AND_CLEAR
PL6.E3A0      #001=Z8JW$WALK_TREE File=Z8JW.:Z8A6TSI                             SAT 08/09/97 13:33 Page:280
        27 007325   000000 011000                    NOP     0

     1381    14093    3           CALL BRANCH_BUILDER( %ROP, PRINT_NDX+10 );

  14093 27 007326   200006 235100                    LDA     PRINT_NDX,,AUTO
        27 007327   000012 035007                    ADLA    10,DL
        27 007330   200177 755100                    STA     @OP+66,,AUTO
        27 007331   200177 630500                    EPPR0   @OP+66,,AUTO
        27 007332   200074 450500                    STP0    @COLUMN,,AUTO
        27 007333   000005 236000 28                 LDQ     5
        27 007334   200073 756100                    STQ     @OP,,AUTO
        27 007335   007255 701000 27                 TSX1    BRANCH_BUILDER
        27 007336   000000 011000                    NOP     0

     1382    14094    3           SUBSTR( OBUF,PRINT_NDX,10 ) = ':-LX_LIST-';

  14094 27 007337   200006 235100                    LDA     PRINT_NDX,,AUTO
        27 007340   040005 100400                    MLR     fill='040'O
        27 007341   000335 000012 26                 ADSC9   221                      cn=0,n=10
        27 007342   000000 000012 24                 ADSC9   OBUF,A                   cn=0,n=10

     1383    14095    3           CALL X8CO$CONV_TO_OCTAL_HALF( ID$, SUBSTR( OBUF,0,6) );

  14095 27 007343   000033 236000 28                 LDQ     27
        27 007344   200061 235100                    LDA     @ID$,,AUTO
        27 007345   200076 757100                    STAQ    @OP+1,,AUTO
        27 007346   200076 630500                    EPPR0   @OP+1,,AUTO
        27 007347   000011 631400 28                 EPPR1   9
        27 007350   000000 701000 xent               TSX1    X8CO$CONV_TO_OCTAL_HALF
        27 007351   000000 011000                    NOP     0

     1384    14096    3           CALL PRINT_AND_CLEAR( PRINT_NDX, 10, OP );

  14096 27 007352   200062 236100                    LDQ     @OP,,AUTO
        27 007353   000035 235000 28                 LDA     29
        27 007354   200074 757100                    STAQ    @COLUMN,,AUTO
        27 007355   200006 630500                    EPPR0   PRINT_NDX,,AUTO
PL6.E3A0      #001=Z8JW$WALK_TREE File=Z8JW.:Z8A6TSI                             SAT 08/09/97 13:33 Page:281
        27 007356   200073 450500                    STP0    @OP,,AUTO
        27 007357   007235 701000 27                 TSX1    PRINT_AND_CLEAR
        27 007360   000000 011000                    NOP     0

     1385    14097    3           CALL BRANCH_BUILDER ( OP, PRINT_NDX );

  14097 27 007361   200006 630500                    EPPR0   PRINT_NDX,,AUTO
        27 007362   200074 450500                    STP0    @COLUMN,,AUTO
        27 007363   200062 236100                    LDQ     @OP,,AUTO
        27 007364   200073 756100                    STQ     @OP,,AUTO
        27 007365   007255 701000 27                 TSX1    BRANCH_BUILDER
        27 007366   000000 011000                    NOP     0
        27 007367   010261 710000 27                 TRA     s:14208

     1386    14098        %EJECT;
PL6.E3A0      #001=Z8JW$WALK_TREE File=Z8JW.:Z8A6TSI                             SAT 08/09/97 13:33 Page:282
     1387    14099    3         CASE ( %ILS_LIST );

     1388    14100
     1389    14101    3           CALL PRINT_AND_CLEAR( 120, 1, OP);

  14101 27 007370   200062 236100                    LDQ     @OP,,AUTO
        27 007371   000005 235000 28                 LDA     5
        27 007372   200074 757100                    STAQ    @COLUMN,,AUTO
        27 007373   000032 236000 28                 LDQ     26
        27 007374   200073 756100                    STQ     @OP,,AUTO
        27 007375   007235 701000 27                 TSX1    PRINT_AND_CLEAR
        27 007376   000000 011000                    NOP     0

     1390    14102    3           CALL BRANCH_BUILDER( %ROP, PRINT_NDX+10 );

  14102 27 007377   200006 235100                    LDA     PRINT_NDX,,AUTO
        27 007400   000012 035007                    ADLA    10,DL
        27 007401   200200 755100                    STA     @OP+67,,AUTO
        27 007402   200200 630500                    EPPR0   @OP+67,,AUTO
        27 007403   200074 450500                    STP0    @COLUMN,,AUTO
        27 007404   000005 236000 28                 LDQ     5
        27 007405   200073 756100                    STQ     @OP,,AUTO
        27 007406   007255 701000 27                 TSX1    BRANCH_BUILDER
        27 007407   000000 011000                    NOP     0

     1391    14103    3           SUBSTR( OBUF,PRINT_NDX,10 ) = ':-ILS_LIS-';

  14103 27 007410   200006 235100                    LDA     PRINT_NDX,,AUTO
        27 007411   040005 100400                    MLR     fill='040'O
        27 007412   000340 000012 26                 ADSC9   224                      cn=0,n=10
        27 007413   000000 000012 24                 ADSC9   OBUF,A                   cn=0,n=10

     1392    14104    3           CALL X8CO$CONV_TO_OCTAL_HALF( ID$, SUBSTR( OBUF,0,6) );

  14104 27 007414   000033 236000 28                 LDQ     27
        27 007415   200061 235100                    LDA     @ID$,,AUTO
        27 007416   200076 757100                    STAQ    @OP+1,,AUTO
PL6.E3A0      #001=Z8JW$WALK_TREE File=Z8JW.:Z8A6TSI                             SAT 08/09/97 13:33 Page:283
        27 007417   200076 630500                    EPPR0   @OP+1,,AUTO
        27 007420   000011 631400 28                 EPPR1   9
        27 007421   000000 701000 xent               TSX1    X8CO$CONV_TO_OCTAL_HALF
        27 007422   000000 011000                    NOP     0

     1393    14105    3           CALL PRINT_AND_CLEAR( PRINT_NDX, 10, OP );

  14105 27 007423   200062 236100                    LDQ     @OP,,AUTO
        27 007424   000035 235000 28                 LDA     29
        27 007425   200074 757100                    STAQ    @COLUMN,,AUTO
        27 007426   200006 630500                    EPPR0   PRINT_NDX,,AUTO
        27 007427   200073 450500                    STP0    @OP,,AUTO
        27 007430   007235 701000 27                 TSX1    PRINT_AND_CLEAR
        27 007431   000000 011000                    NOP     0

     1394    14106    3           CALL BRANCH_BUILDER( OP, PRINT_NDX );

  14106 27 007432   200006 630500                    EPPR0   PRINT_NDX,,AUTO
        27 007433   200074 450500                    STP0    @COLUMN,,AUTO
        27 007434   200062 236100                    LDQ     @OP,,AUTO
        27 007435   200073 756100                    STQ     @OP,,AUTO
        27 007436   007255 701000 27                 TSX1    BRANCH_BUILDER
        27 007437   000000 011000                    NOP     0
        27 007440   010261 710000 27                 TRA     s:14208

     1395    14107
     1396    14108        %EJECT;
PL6.E3A0      #001=Z8JW$WALK_TREE File=Z8JW.:Z8A6TSI                             SAT 08/09/97 13:33 Page:284
     1397    14109    3         CASE( %LX_LARGE );

     1398    14110
     1399    14111    3           CALL PRINT_AND_CLEAR( 120, 1, OP );

  14111 27 007441   200062 236100                    LDQ     @OP,,AUTO
        27 007442   000005 235000 28                 LDA     5
        27 007443   200074 757100                    STAQ    @COLUMN,,AUTO
        27 007444   000032 236000 28                 LDQ     26
        27 007445   200073 756100                    STQ     @OP,,AUTO
        27 007446   007235 701000 27                 TSX1    PRINT_AND_CLEAR
        27 007447   000000 011000                    NOP     0

     1400    14112    3           CALL BRANCH_BUILDER( %ROP, PRINT_NDX+10 );

  14112 27 007450   200006 235100                    LDA     PRINT_NDX,,AUTO
        27 007451   000012 035007                    ADLA    10,DL
        27 007452   200201 755100                    STA     @OP+68,,AUTO
        27 007453   200201 630500                    EPPR0   @OP+68,,AUTO
        27 007454   200074 450500                    STP0    @COLUMN,,AUTO
        27 007455   000005 236000 28                 LDQ     5
        27 007456   200073 756100                    STQ     @OP,,AUTO
        27 007457   007255 701000 27                 TSX1    BRANCH_BUILDER
        27 007460   000000 011000                    NOP     0

     1401    14113    3           SUBSTR( OBUF,PRINT_NDX,10 ) = ':-LX_LARG-';

  14113 27 007461   200006 235100                    LDA     PRINT_NDX,,AUTO
        27 007462   040005 100400                    MLR     fill='040'O
        27 007463   000343 000012 26                 ADSC9   227                      cn=0,n=10
        27 007464   000000 000012 24                 ADSC9   OBUF,A                   cn=0,n=10

     1402    14114    3           CALL X8CO$CONV_TO_OCTAL_HALF( ID$, SUBSTR( OBUF,0,6) );

  14114 27 007465   000033 236000 28                 LDQ     27
        27 007466   200061 235100                    LDA     @ID$,,AUTO
        27 007467   200076 757100                    STAQ    @OP+1,,AUTO
PL6.E3A0      #001=Z8JW$WALK_TREE File=Z8JW.:Z8A6TSI                             SAT 08/09/97 13:33 Page:285
        27 007470   200076 630500                    EPPR0   @OP+1,,AUTO
        27 007471   000011 631400 28                 EPPR1   9
        27 007472   000000 701000 xent               TSX1    X8CO$CONV_TO_OCTAL_HALF
        27 007473   000000 011000                    NOP     0

     1403    14115    3           CALL PRINT_AND_CLEAR( PRINT_NDX,10,OP );

  14115 27 007474   200062 236100                    LDQ     @OP,,AUTO
        27 007475   000035 235000 28                 LDA     29
        27 007476   200074 757100                    STAQ    @COLUMN,,AUTO
        27 007477   200006 630500                    EPPR0   PRINT_NDX,,AUTO
        27 007500   200073 450500                    STP0    @OP,,AUTO
        27 007501   007235 701000 27                 TSX1    PRINT_AND_CLEAR
        27 007502   000000 011000                    NOP     0

     1404    14116    3           CALL BRANCH_BUILDER( OP, PRINT_NDX );

  14116 27 007503   200006 630500                    EPPR0   PRINT_NDX,,AUTO
        27 007504   200074 450500                    STP0    @COLUMN,,AUTO
        27 007505   200062 236100                    LDQ     @OP,,AUTO
        27 007506   200073 756100                    STQ     @OP,,AUTO
        27 007507   007255 701000 27                 TSX1    BRANCH_BUILDER
        27 007510   000000 011000                    NOP     0
        27 007511   010261 710000 27                 TRA     s:14208

     1405    14117
     1406    14118        %EJECT;
PL6.E3A0      #001=Z8JW$WALK_TREE File=Z8JW.:Z8A6TSI                             SAT 08/09/97 13:33 Page:286
     1407    14119    3         CASE( %BINARY_OP );

     1408    14120
     1409    14121    3           CALL PRINT_AND_CLEAR( 120, 1, OP );       /*  Blank line   */

  14121 27 007512   200062 236100                    LDQ     @OP,,AUTO
        27 007513   000005 235000 28                 LDA     5
        27 007514   200074 757100                    STAQ    @COLUMN,,AUTO
        27 007515   000032 236000 28                 LDQ     26
        27 007516   200073 756100                    STQ     @OP,,AUTO
        27 007517   007235 701000 27                 TSX1    PRINT_AND_CLEAR
        27 007520   000000 011000                    NOP     0

     1410    14122    3           CALL PRINT_OP;

  14122 27 007521   010552 701000 27                 TSX1    PRINT_OP
        27 007522   000000 011000                    NOP     0

     1411    14123    3           CALL PRINT_AND_CLEAR( PRINT_NDX+10,23, OP);

  14123 27 007523   200006 235100                    LDA     PRINT_NDX,,AUTO
        27 007524   000012 035007                    ADLA    10,DL
        27 007525   200202 755100                    STA     @OP+69,,AUTO
        27 007526   200062 236100                    LDQ     @OP,,AUTO
        27 007527   000037 235000 28                 LDA     31
        27 007530   200074 757100                    STAQ    @COLUMN,,AUTO
        27 007531   200202 630500                    EPPR0   @OP+69,,AUTO
        27 007532   200073 450500                    STP0    @OP,,AUTO
        27 007533   007235 701000 27                 TSX1    PRINT_AND_CLEAR
        27 007534   000000 011000                    NOP     0

     1412    14124    3           SUBSTR( OBUF, PRINT_NDX,10 ) = ':-BIN_OP--';

  14124 27 007535   200006 235100                    LDA     PRINT_NDX,,AUTO
        27 007536   040005 100400                    MLR     fill='040'O
        27 007537   000346 000012 26                 ADSC9   230                      cn=0,n=10
        27 007540   000000 000012 24                 ADSC9   OBUF,A                   cn=0,n=10
PL6.E3A0      #001=Z8JW$WALK_TREE File=Z8JW.:Z8A6TSI                             SAT 08/09/97 13:33 Page:287

     1413    14125    3           CALL X8CO$CONV_TO_OCTAL_HALF( ID$, SUBSTR( OBUF,0,6) );

  14125 27 007541   000033 236000 28                 LDQ     27
        27 007542   200061 235100                    LDA     @ID$,,AUTO
        27 007543   200076 757100                    STAQ    @OP+1,,AUTO
        27 007544   200076 630500                    EPPR0   @OP+1,,AUTO
        27 007545   000011 631400 28                 EPPR1   9
        27 007546   000000 701000 xent               TSX1    X8CO$CONV_TO_OCTAL_HALF
        27 007547   000000 011000                    NOP     0

     1414    14126    3           CALL PRINT_LINE;

  14126 27 007550   010500 701000 27                 TSX1    PRINT_LINE
        27 007551   000000 011000                    NOP     0

     1415    14127    3           CALL PRINT_AND_CLEAR( PRINT_NDX,23, OP);

  14127 27 007552   200062 236100                    LDQ     @OP,,AUTO
        27 007553   000037 235000 28                 LDA     31
        27 007554   200074 757100                    STAQ    @COLUMN,,AUTO
        27 007555   200006 630500                    EPPR0   PRINT_NDX,,AUTO
        27 007556   200073 450500                    STP0    @OP,,AUTO
        27 007557   007235 701000 27                 TSX1    PRINT_AND_CLEAR
        27 007560   000000 011000                    NOP     0

     1416    14128    3           CALL BRANCH_BUILDER( OP, PRINT_NDX );

  14128 27 007561   200006 630500                    EPPR0   PRINT_NDX,,AUTO
        27 007562   200074 450500                    STP0    @COLUMN,,AUTO
        27 007563   200062 236100                    LDQ     @OP,,AUTO
        27 007564   200073 756100                    STQ     @OP,,AUTO
        27 007565   007255 701000 27                 TSX1    BRANCH_BUILDER
        27 007566   000000 011000                    NOP     0

     1417    14129    3           CALL PRINT_COLUMN;

PL6.E3A0      #001=Z8JW$WALK_TREE File=Z8JW.:Z8A6TSI                             SAT 08/09/97 13:33 Page:288
  14129 27 007567   010525 701000 27                 TSX1    PRINT_COLUMN
        27 007570   000000 011000                    NOP     0

     1418    14130    3           CALL PRINT_AND_CLEAR( PRINT_NDX+10,23, OP);

  14130 27 007571   200006 235100                    LDA     PRINT_NDX,,AUTO
        27 007572   000012 035007                    ADLA    10,DL
        27 007573   200203 755100                    STA     @OP+70,,AUTO
        27 007574   200062 236100                    LDQ     @OP,,AUTO
        27 007575   000037 235000 28                 LDA     31
        27 007576   200074 757100                    STAQ    @COLUMN,,AUTO
        27 007577   200203 630500                    EPPR0   @OP+70,,AUTO
        27 007600   200073 450500                    STP0    @OP,,AUTO
        27 007601   007235 701000 27                 TSX1    PRINT_AND_CLEAR
        27 007602   000000 011000                    NOP     0
        27 007603   010261 710000 27                 TRA     s:14208

     1419    14131
     1420    14132        %EJECT;
PL6.E3A0      #001=Z8JW$WALK_TREE File=Z8JW.:Z8A6TSI                             SAT 08/09/97 13:33 Page:289
     1421    14133    3         CASE( %UNARY_OP );

     1422    14134
     1423    14135    3           CALL PRINT_AND_CLEAR( 120, 1, OP );       /*  Blank line   */

  14135 27 007604   200062 236100                    LDQ     @OP,,AUTO
        27 007605   000005 235000 28                 LDA     5
        27 007606   200074 757100                    STAQ    @COLUMN,,AUTO
        27 007607   000032 236000 28                 LDQ     26
        27 007610   200073 756100                    STQ     @OP,,AUTO
        27 007611   007235 701000 27                 TSX1    PRINT_AND_CLEAR
        27 007612   000000 011000                    NOP     0

     1424    14136    3           CALL PRINT_OP;

  14136 27 007613   010552 701000 27                 TSX1    PRINT_OP
        27 007614   000000 011000                    NOP     0

     1425    14137    3           CALL PRINT_AND_CLEAR( PRINT_NDX+10,23, OP);

  14137 27 007615   200006 235100                    LDA     PRINT_NDX,,AUTO
        27 007616   000012 035007                    ADLA    10,DL
        27 007617   200204 755100                    STA     @OP+71,,AUTO
        27 007620   200062 236100                    LDQ     @OP,,AUTO
        27 007621   000037 235000 28                 LDA     31
        27 007622   200074 757100                    STAQ    @COLUMN,,AUTO
        27 007623   200204 630500                    EPPR0   @OP+71,,AUTO
        27 007624   200073 450500                    STP0    @OP,,AUTO
        27 007625   007235 701000 27                 TSX1    PRINT_AND_CLEAR
        27 007626   000000 011000                    NOP     0

     1426    14138    3           SUBSTR( OBUF, PRINT_NDX, 10 ) = ':-UNI_OP--';

  14138 27 007627   200006 235100                    LDA     PRINT_NDX,,AUTO
        27 007630   040005 100400                    MLR     fill='040'O
        27 007631   000351 000012 26                 ADSC9   233                      cn=0,n=10
        27 007632   000000 000012 24                 ADSC9   OBUF,A                   cn=0,n=10
PL6.E3A0      #001=Z8JW$WALK_TREE File=Z8JW.:Z8A6TSI                             SAT 08/09/97 13:33 Page:290

     1427    14139    3           CALL X8CO$CONV_TO_OCTAL_HALF( ID$, SUBSTR( OBUF,0,6) );

  14139 27 007633   000033 236000 28                 LDQ     27
        27 007634   200061 235100                    LDA     @ID$,,AUTO
        27 007635   200076 757100                    STAQ    @OP+1,,AUTO
        27 007636   200076 630500                    EPPR0   @OP+1,,AUTO
        27 007637   000011 631400 28                 EPPR1   9
        27 007640   000000 701000 xent               TSX1    X8CO$CONV_TO_OCTAL_HALF
        27 007641   000000 011000                    NOP     0

     1428    14140    3           CALL PRINT_LINE;

  14140 27 007642   010500 701000 27                 TSX1    PRINT_LINE
        27 007643   000000 011000                    NOP     0

     1429    14141    3           CALL PRINT_AND_CLEAR( PRINT_NDX, 30, OP );

  14141 27 007644   200062 236100                    LDQ     @OP,,AUTO
        27 007645   000041 235000 28                 LDA     33
        27 007646   200074 757100                    STAQ    @COLUMN,,AUTO
        27 007647   200006 630500                    EPPR0   PRINT_NDX,,AUTO
        27 007650   200073 450500                    STP0    @OP,,AUTO
        27 007651   007235 701000 27                 TSX1    PRINT_AND_CLEAR
        27 007652   000000 011000                    NOP     0

     1430    14142    3           CALL BRANCH_BUILDER( OP, PRINT_NDX );

  14142 27 007653   200006 630500                    EPPR0   PRINT_NDX,,AUTO
        27 007654   200074 450500                    STP0    @COLUMN,,AUTO
        27 007655   200062 236100                    LDQ     @OP,,AUTO
        27 007656   200073 756100                    STQ     @OP,,AUTO
        27 007657   007255 701000 27                 TSX1    BRANCH_BUILDER
        27 007660   000000 011000                    NOP     0

     1431    14143    3           CALL PRINT_COLUMN;

PL6.E3A0      #001=Z8JW$WALK_TREE File=Z8JW.:Z8A6TSI                             SAT 08/09/97 13:33 Page:291
  14143 27 007661   010525 701000 27                 TSX1    PRINT_COLUMN
        27 007662   000000 011000                    NOP     0

     1432    14144    3           CALL PRINT_AND_CLEAR( PRINT_NDX+10,23, OP);

  14144 27 007663   200006 235100                    LDA     PRINT_NDX,,AUTO
        27 007664   000012 035007                    ADLA    10,DL
        27 007665   200205 755100                    STA     @OP+72,,AUTO
        27 007666   200062 236100                    LDQ     @OP,,AUTO
        27 007667   000037 235000 28                 LDA     31
        27 007670   200074 757100                    STAQ    @COLUMN,,AUTO
        27 007671   200205 630500                    EPPR0   @OP+72,,AUTO
        27 007672   200073 450500                    STP0    @OP,,AUTO
        27 007673   007235 701000 27                 TSX1    PRINT_AND_CLEAR
        27 007674   000000 011000                    NOP     0
        27 007675   010261 710000 27                 TRA     s:14208

     1433    14145
     1434    14146        %EJECT;
PL6.E3A0      #001=Z8JW$WALK_TREE File=Z8JW.:Z8A6TSI                             SAT 08/09/97 13:33 Page:292
     1435    14147    3         CASE ( %LX_TERMINAL );

     1436    14148
     1437    14149    3           CALL PRINT_AND_CLEAR( 120, 1, OP );       /*  Blank line   */

  14149 27 007676   200062 236100                    LDQ     @OP,,AUTO
        27 007677   000005 235000 28                 LDA     5
        27 007700   200074 757100                    STAQ    @COLUMN,,AUTO
        27 007701   000032 236000 28                 LDQ     26
        27 007702   200073 756100                    STQ     @OP,,AUTO
        27 007703   007235 701000 27                 TSX1    PRINT_AND_CLEAR
        27 007704   000000 011000                    NOP     0

     1438    14150    3           IF ID$-> LX_TERMINAL.ST$ ~= ADDR( NIL ) THEN

  14150 27 007705   200061 470500                    LDP0    @ID$,,AUTO
        27 007706   000000 471500                    LDP1    0,,PR0
        27 007707   100001 236100                    LDQ     1,,PR1
        27 007710   000002 116000 28                 CMPQ    2
        27 007711   007740 600000 27                 TZE     s:14160

     1439    14151    4             DO;

     1440    14152    4               SUBSTR( OBUF,PRINT_NDX+10,9 ) = ':-ST$->  ';

  14152 27 007712   200006 235100                    LDA     PRINT_NDX,,AUTO
        27 007713   040005 100400                    MLR     fill='040'O
        27 007714   000354 000011 26                 ADSC9   236                      cn=0,n=9
        27 007715   000002 400011 24                 ADSC9   OBUF+2,A                 cn=2,n=9

     1441    14153    4               SUBSTR( OBUF,PRINT_NDX+19,10) = NAMES( ID$-> ETT.ID );

  14153 27 007716   000000 471500                    LDP1    0,,PR0
        27 007717   100000 220100                    LDX0    0,,PR1
        27 007720   100000 020100                    ADLX0   0,,PR1
        27 007721   100000 020100                    ADLX0   0,,PR1
        27 007722   000000 636010                    EAQ     0,X0
PL6.E3A0      #001=Z8JW$WALK_TREE File=Z8JW.:Z8A6TSI                             SAT 08/09/97 13:33 Page:293
        27 007723   000020 772000                    QRL     16
        27 007724   040005 100406                    MLR     fill='040'O
        27 007725   000000 000012 xsym               ADSC9   NAMES,Q                  cn=0,n=10
        27 007726   000004 600012 24                 ADSC9   OBUF+4,A                 cn=3,n=10

     1442    14154    4               CALL PRINT_AND_CLEAR( PRINT_NDX+10, 23, OP );

  14154 27 007727   000012 035007                    ADLA    10,DL
        27 007730   200206 755100                    STA     @OP+73,,AUTO
        27 007731   200062 236100                    LDQ     @OP,,AUTO
        27 007732   000037 235000 28                 LDA     31
        27 007733   200074 757100                    STAQ    @COLUMN,,AUTO
        27 007734   200206 631500                    EPPR1   @OP+73,,AUTO
        27 007735   200073 451500                    STP1    @OP,,AUTO
        27 007736   007235 701000 27                 TSX1    PRINT_AND_CLEAR
        27 007737   000000 011000                    NOP     0

     1443    14155    4             END;

     1444    14156        /*
     1445    14157                    Print  DNT$
     1446    14158        */
     1447    14159
     1448    14160    3           IF ID$-> LX_TERMINAL.DNT$ ~= ADDR(NIL) THEN

  14160 27 007740   200061 470500                    LDP0    @ID$,,AUTO
        27 007741   000000 471500                    LDP1    0,,PR0
        27 007742   100002 236100                    LDQ     2,,PR1
        27 007743   000002 116000 28                 CMPQ    2
        27 007744   007771 600000 27                 TZE     s:14167

     1449    14161    4             DO;

     1450    14162    4               SUBSTR( OBUF,PRINT_NDX+10,9 ) = ':-DNT$-> ';

  14162 27 007745   200006 235100                    LDA     PRINT_NDX,,AUTO
        27 007746   040005 100400                    MLR     fill='040'O
PL6.E3A0      #001=Z8JW$WALK_TREE File=Z8JW.:Z8A6TSI                             SAT 08/09/97 13:33 Page:294
        27 007747   000357 000011 26                 ADSC9   239                      cn=0,n=9
        27 007750   000002 400011 24                 ADSC9   OBUF+2,A                 cn=2,n=9

     1451    14163    4               SUBSTR( OBUF,PRINT_NDX+19,ID$->LX_TERMINAL.DNT$->DNT.TEXT.LENGTH ) =

  14163 27 007751   000000 471500                    LDP1    0,,PR0
        27 007752   100002 473500                    LDP3    2,,PR1
        27 007753   300004 220100                    LDX0    4,,PR3
        27 007754   300004 221100                    LDX1    4,,PR3
        27 007755   040045 100540                    MLR     fill='040'O
        27 007756   300004 400011                    ADSC9   4,,PR3                   cn=2,n=*X1
        27 007757   000004 600010 24                 ADSC9   OBUF+4,A                 cn=3,n=*X0

     1452    14164    4                      ID$-> LX_TERMINAL.DNT$->DNT.TEXT.NAME;
     1453    14165    4               CALL PRINT_AND_CLEAR( PRINT_NDX+12, 23, OP );

  14165 27 007760   000014 035007                    ADLA    12,DL
        27 007761   200207 755100                    STA     @OP+74,,AUTO
        27 007762   200062 236100                    LDQ     @OP,,AUTO
        27 007763   000037 235000 28                 LDA     31
        27 007764   200074 757100                    STAQ    @COLUMN,,AUTO
        27 007765   200207 631500                    EPPR1   @OP+74,,AUTO
        27 007766   200073 451500                    STP1    @OP,,AUTO
        27 007767   007235 701000 27                 TSX1    PRINT_AND_CLEAR
        27 007770   000000 011000                    NOP     0

     1454    14166    4             END;

     1455    14167    3           CALL PRINT_SYMBOL;

  14167 27 007771   010262 701000 27                 TSX1    PRINT_SYMBOL
        27 007772   000000 011000                    NOP     0

     1456    14168    3           CALL PRINT_AND_CLEAR( PRINT_NDX+10,23, OP);

  14168 27 007773   200006 235100                    LDA     PRINT_NDX,,AUTO
        27 007774   000012 035007                    ADLA    10,DL
PL6.E3A0      #001=Z8JW$WALK_TREE File=Z8JW.:Z8A6TSI                             SAT 08/09/97 13:33 Page:295
        27 007775   200210 755100                    STA     @OP+75,,AUTO
        27 007776   200062 236100                    LDQ     @OP,,AUTO
        27 007777   000037 235000 28                 LDA     31
        27 010000   200074 757100                    STAQ    @COLUMN,,AUTO
        27 010001   200210 630500                    EPPR0   @OP+75,,AUTO
        27 010002   200073 450500                    STP0    @OP,,AUTO
        27 010003   007235 701000 27                 TSX1    PRINT_AND_CLEAR
        27 010004   000000 011000                    NOP     0

     1457    14169    3           SUBSTR( OBUF,PRINT_NDX,10 ) = ':-LX_TERM-';

  14169 27 010005   200006 235100                    LDA     PRINT_NDX,,AUTO
        27 010006   040005 100400                    MLR     fill='040'O
        27 010007   000362 000012 26                 ADSC9   242                      cn=0,n=10
        27 010010   000000 000012 24                 ADSC9   OBUF,A                   cn=0,n=10

     1458    14170    3           CALL X8CO$CONV_TO_OCTAL_HALF( ID$, SUBSTR( OBUF,0,6) );

  14170 27 010011   000033 236000 28                 LDQ     27
        27 010012   200061 235100                    LDA     @ID$,,AUTO
        27 010013   200076 757100                    STAQ    @OP+1,,AUTO
        27 010014   200076 630500                    EPPR0   @OP+1,,AUTO
        27 010015   000011 631400 28                 EPPR1   9
        27 010016   000000 701000 xent               TSX1    X8CO$CONV_TO_OCTAL_HALF
        27 010017   000000 011000                    NOP     0

     1459    14171    3           CALL PRINT_TYPE;

  14171 27 010020   010307 701000 27                 TSX1    PRINT_TYPE
        27 010021   000000 011000                    NOP     0

     1460    14172    3           CALL PRINT_AND_CLEAR( PRINT_NDX, 20, OP);

  14172 27 010022   200062 236100                    LDQ     @OP,,AUTO
        27 010023   000043 235000 28                 LDA     35
        27 010024   200074 757100                    STAQ    @COLUMN,,AUTO
        27 010025   200006 630500                    EPPR0   PRINT_NDX,,AUTO
PL6.E3A0      #001=Z8JW$WALK_TREE File=Z8JW.:Z8A6TSI                             SAT 08/09/97 13:33 Page:296
        27 010026   200073 450500                    STP0    @OP,,AUTO
        27 010027   007235 701000 27                 TSX1    PRINT_AND_CLEAR
        27 010030   000000 011000                    NOP     0

     1461    14173    3           CALL BRANCH_BUILDER( OP, PRINT_NDX );

  14173 27 010031   200006 630500                    EPPR0   PRINT_NDX,,AUTO
        27 010032   200074 450500                    STP0    @COLUMN,,AUTO
        27 010033   200062 236100                    LDQ     @OP,,AUTO
        27 010034   200073 756100                    STQ     @OP,,AUTO
        27 010035   007255 701000 27                 TSX1    BRANCH_BUILDER
        27 010036   000000 011000                    NOP     0

     1462    14174    3           CALL PRINT_LINE;

  14174 27 010037   010500 701000 27                 TSX1    PRINT_LINE
        27 010040   000000 011000                    NOP     0

     1463    14175    3           CALL PRINT_AND_CLEAR( PRINT_NDX+10,23, OP);

  14175 27 010041   200006 235100                    LDA     PRINT_NDX,,AUTO
        27 010042   000012 035007                    ADLA    10,DL
        27 010043   200211 755100                    STA     @OP+76,,AUTO
        27 010044   200062 236100                    LDQ     @OP,,AUTO
        27 010045   000037 235000 28                 LDA     31
        27 010046   200074 757100                    STAQ    @COLUMN,,AUTO
        27 010047   200211 630500                    EPPR0   @OP+76,,AUTO
        27 010050   200073 450500                    STP0    @OP,,AUTO
        27 010051   007235 701000 27                 TSX1    PRINT_AND_CLEAR
        27 010052   000000 011000                    NOP     0

     1464    14176    3           CALL PRINT_COLUMN;

  14176 27 010053   010525 701000 27                 TSX1    PRINT_COLUMN
        27 010054   000000 011000                    NOP     0

     1465    14177    3           CALL PRINT_AND_CLEAR( PRINT_NDX+10,23, OP);
PL6.E3A0      #001=Z8JW$WALK_TREE File=Z8JW.:Z8A6TSI                             SAT 08/09/97 13:33 Page:297

  14177 27 010055   200006 235100                    LDA     PRINT_NDX,,AUTO
        27 010056   000012 035007                    ADLA    10,DL
        27 010057   200212 755100                    STA     @OP+77,,AUTO
        27 010060   200062 236100                    LDQ     @OP,,AUTO
        27 010061   000037 235000 28                 LDA     31
        27 010062   200074 757100                    STAQ    @COLUMN,,AUTO
        27 010063   200212 630500                    EPPR0   @OP+77,,AUTO
        27 010064   200073 450500                    STP0    @OP,,AUTO
        27 010065   007235 701000 27                 TSX1    PRINT_AND_CLEAR
        27 010066   000000 011000                    NOP     0
        27 010067   010261 710000 27                 TRA     s:14208

     1466    14178        %EJECT;
PL6.E3A0      #001=Z8JW$WALK_TREE File=Z8JW.:Z8A6TSI                             SAT 08/09/97 13:33 Page:298
     1467    14179    3         CASE ( %LX_ETT_ITEM );

     1468    14180
     1469    14181    3           CALL PRINT_AND_CLEAR( 120, 1, OP );       /*  Blank line   */

  14181 27 010070   200062 236100                    LDQ     @OP,,AUTO
        27 010071   000005 235000 28                 LDA     5
        27 010072   200074 757100                    STAQ    @COLUMN,,AUTO
        27 010073   000032 236000 28                 LDQ     26
        27 010074   200073 756100                    STQ     @OP,,AUTO
        27 010075   007235 701000 27                 TSX1    PRINT_AND_CLEAR
        27 010076   000000 011000                    NOP     0

     1470    14182    3           CALL PRINT_TYPE;

  14182 27 010077   010307 701000 27                 TSX1    PRINT_TYPE
        27 010100   000000 011000                    NOP     0

     1471    14183    3           CALL PRINT_AND_CLEAR( PRINT_NDX+10, 23, OP);

  14183 27 010101   200006 235100                    LDA     PRINT_NDX,,AUTO
        27 010102   000012 035007                    ADLA    10,DL
        27 010103   200213 755100                    STA     @OP+78,,AUTO
        27 010104   200062 236100                    LDQ     @OP,,AUTO
        27 010105   000037 235000 28                 LDA     31
        27 010106   200074 757100                    STAQ    @COLUMN,,AUTO
        27 010107   200213 630500                    EPPR0   @OP+78,,AUTO
        27 010110   200073 450500                    STP0    @OP,,AUTO
        27 010111   007235 701000 27                 TSX1    PRINT_AND_CLEAR
        27 010112   000000 011000                    NOP     0

     1472    14184    3           SUBSTR( OBUF,PRINT_NDX,10 ) = ':-LX_ETT--';

  14184 27 010113   200006 235100                    LDA     PRINT_NDX,,AUTO
        27 010114   040005 100400                    MLR     fill='040'O
        27 010115   000365 000012 26                 ADSC9   245                      cn=0,n=10
        27 010116   000000 000012 24                 ADSC9   OBUF,A                   cn=0,n=10
PL6.E3A0      #001=Z8JW$WALK_TREE File=Z8JW.:Z8A6TSI                             SAT 08/09/97 13:33 Page:299

     1473    14185    3           CALL X8CO$CONV_TO_OCTAL_HALF( ID$, SUBSTR( OBUF,0,6) );

  14185 27 010117   000033 236000 28                 LDQ     27
        27 010120   200061 235100                    LDA     @ID$,,AUTO
        27 010121   200076 757100                    STAQ    @OP+1,,AUTO
        27 010122   200076 630500                    EPPR0   @OP+1,,AUTO
        27 010123   000011 631400 28                 EPPR1   9
        27 010124   000000 701000 xent               TSX1    X8CO$CONV_TO_OCTAL_HALF
        27 010125   000000 011000                    NOP     0

     1474    14186    3           CALL PRINT_LINE;

  14186 27 010126   010500 701000 27                 TSX1    PRINT_LINE
        27 010127   000000 011000                    NOP     0

     1475    14187    3           CALL PRINT_AND_CLEAR( PRINT_NDX, 30, OP);

  14187 27 010130   200062 236100                    LDQ     @OP,,AUTO
        27 010131   000041 235000 28                 LDA     33
        27 010132   200074 757100                    STAQ    @COLUMN,,AUTO
        27 010133   200006 630500                    EPPR0   PRINT_NDX,,AUTO
        27 010134   200073 450500                    STP0    @OP,,AUTO
        27 010135   007235 701000 27                 TSX1    PRINT_AND_CLEAR
        27 010136   000000 011000                    NOP     0

     1476    14188    3           CALL BRANCH_BUILDER( OP, PRINT_NDX );

  14188 27 010137   200006 630500                    EPPR0   PRINT_NDX,,AUTO
        27 010140   200074 450500                    STP0    @COLUMN,,AUTO
        27 010141   200062 236100                    LDQ     @OP,,AUTO
        27 010142   200073 756100                    STQ     @OP,,AUTO
        27 010143   007255 701000 27                 TSX1    BRANCH_BUILDER
        27 010144   000000 011000                    NOP     0

     1477    14189    3           CALL PRINT_COLUMN;

PL6.E3A0      #001=Z8JW$WALK_TREE File=Z8JW.:Z8A6TSI                             SAT 08/09/97 13:33 Page:300
  14189 27 010145   010525 701000 27                 TSX1    PRINT_COLUMN
        27 010146   000000 011000                    NOP     0

     1478    14190    3           CALL PRINT_AND_CLEAR( PRINT_NDX+10, 23, OP);

  14190 27 010147   200006 235100                    LDA     PRINT_NDX,,AUTO
        27 010150   000012 035007                    ADLA    10,DL
        27 010151   200214 755100                    STA     @OP+79,,AUTO
        27 010152   200062 236100                    LDQ     @OP,,AUTO
        27 010153   000037 235000 28                 LDA     31
        27 010154   200074 757100                    STAQ    @COLUMN,,AUTO
        27 010155   200214 630500                    EPPR0   @OP+79,,AUTO
        27 010156   200073 450500                    STP0    @OP,,AUTO
        27 010157   007235 701000 27                 TSX1    PRINT_AND_CLEAR
        27 010160   000000 011000                    NOP     0

     1479    14191    3           IF ID$-> LX_ETT_ITEM.ETT$ ~= ADDR(NIL) THEN

  14191 27 010161   200061 470500                    LDP0    @ID$,,AUTO
        27 010162   000000 471500                    LDP1    0,,PR0
        27 010163   100001 236100                    LDQ     1,,PR1
        27 010164   000002 116000 28                 CMPQ    2
        27 010165   010261 600000 27                 TZE     s:14208

     1480    14192    4             DO;

     1481    14193    4               IF LOWER_TREES THEN

  14193 27 010166   000000 234000 25                 SZN     LOWER_TREES
        27 010167   010232 605000 27                 TPL     s:14203

     1482    14194    5                 DO;

     1483    14195    5                   SUBSTR( OBUF,PRINT_NDX+10,22 ) = ':-ETT$-> ............';

  14195 27 010170   200006 235100                    LDA     PRINT_NDX,,AUTO
        27 010171   040005 100400                    MLR     fill='040'O
PL6.E3A0      #001=Z8JW$WALK_TREE File=Z8JW.:Z8A6TSI                             SAT 08/09/97 13:33 Page:301
        27 010172   000370 000025 26                 ADSC9   248                      cn=0,n=21
        27 010173   000002 400026 24                 ADSC9   OBUF+2,A                 cn=2,n=22

     1484    14196    5                   CALL PRINT_AND_CLEAR( PRINT_NDX+10, 30, OP);

  14196 27 010174   000012 035007                    ADLA    10,DL
        27 010175   200215 755100                    STA     @OP+80,,AUTO
        27 010176   200062 236100                    LDQ     @OP,,AUTO
        27 010177   000041 235000 28                 LDA     33
        27 010200   200074 757100                    STAQ    @COLUMN,,AUTO
        27 010201   200215 631500                    EPPR1   @OP+80,,AUTO
        27 010202   200073 451500                    STP1    @OP,,AUTO
        27 010203   007235 701000 27                 TSX1    PRINT_AND_CLEAR
        27 010204   000000 011000                    NOP     0

     1485    14197    5                   ADDRESS = PRINT_NDX+23;

  14197 27 010205   200006 235100                    LDA     PRINT_NDX,,AUTO
        27 010206   000027 035007                    ADLA    23,DL
        27 010207   000001 755000 25                 STA     ADDRESS

     1486    14198    5                   CALL Z8JW$WALK_TREE( ID$->LX_ETT_ITEM.ETT$, %LOP, PRINT_NDX+23 );

  14198 27 010210   200061 470500                    LDP0    @ID$,,AUTO
        27 010211   000000 471500                    LDP1    0,,PR0
        27 010212   200076 755100                    STA     @OP+1,,AUTO
        27 010213   200076 633500                    EPPR3   @OP+1,,AUTO
        27 010214   200101 453500                    STP3    @OP+4,,AUTO
        27 010215   000010 236000 28                 LDQ     8
        27 010216   200100 756100                    STQ     @OP+3,,AUTO
        27 010217   100001 634500                    EPPR4   1,,PR1
        27 010220   200077 454500                    STP4    @OP+2,,AUTO
        27 010221   200077 630500                    EPPR0   @OP+2,,AUTO
        27 010222   000006 631400 28                 EPPR1   6
        27 010223   000000 701000 27                 TSX1    s:8
        27 010224   000000 011000                    NOP     0

PL6.E3A0      #001=Z8JW$WALK_TREE File=Z8JW.:Z8A6TSI                             SAT 08/09/97 13:33 Page:302
     1487    14199    5                   SUBSTR( OBUF,PRINT_NDX+23,8 ) = ' ';   /* clear address */

  14199 27 010225   200006 235100                    LDA     PRINT_NDX,,AUTO
        27 010226   040005 100400                    MLR     fill='040'O
        27 010227   000013 000001 28                 ADSC9   11                       cn=0,n=1
        27 010230   000005 600010 24                 ADSC9   OBUF+5,A                 cn=3,n=8

     1488    14200    5                 END;

  14200 27 010231   010261 710000 27                 TRA     s:14208

     1489    14201    4               ELSE
     1490    14202    5                 DO;

     1491    14203    5                   SUBSTR( OBUF,PRINT_NDX+10,9 ) = ':-ETT$-> ';

  14203 27 010232   200006 235100                    LDA     PRINT_NDX,,AUTO
        27 010233   040005 100400                    MLR     fill='040'O
        27 010234   000370 000011 26                 ADSC9   248                      cn=0,n=9
        27 010235   000002 400011 24                 ADSC9   OBUF+2,A                 cn=2,n=9

     1492    14204    5                  SUBSTR( OBUF,PRINT_NDX+19,8 ) = NAMES( ID$->LX_ETT_ITEM.ETT$->ETT.ID
             14204                            );

  14204 27 010236   000000 471500                    LDP1    0,,PR0
        27 010237   100001 473500                    LDP3    1,,PR1
        27 010240   300000 220100                    LDX0    0,,PR3
        27 010241   300000 020100                    ADLX0   0,,PR3
        27 010242   300000 020100                    ADLX0   0,,PR3
        27 010243   000000 636010                    EAQ     0,X0
        27 010244   000020 772000                    QRL     16
        27 010245   040005 100406                    MLR     fill='040'O
        27 010246   000000 000010 xsym               ADSC9   NAMES,Q                  cn=0,n=8
        27 010247   000004 600010 24                 ADSC9   OBUF+4,A                 cn=3,n=8

     1493    14205    5                   CALL PRINT_AND_CLEAR( PRINT_NDX+10, 23, OP);

PL6.E3A0      #001=Z8JW$WALK_TREE File=Z8JW.:Z8A6TSI                             SAT 08/09/97 13:33 Page:303
  14205 27 010250   000012 035007                    ADLA    10,DL
        27 010251   200216 755100                    STA     @OP+81,,AUTO
        27 010252   200062 236100                    LDQ     @OP,,AUTO
        27 010253   000037 235000 28                 LDA     31
        27 010254   200074 757100                    STAQ    @COLUMN,,AUTO
        27 010255   200216 631500                    EPPR1   @OP+81,,AUTO
        27 010256   200073 451500                    STP1    @OP,,AUTO
        27 010257   007235 701000 27                 TSX1    PRINT_AND_CLEAR
        27 010260   000000 011000                    NOP     0

     1494    14206    5                 END;

     1495    14207    4             END;

     1496    14208    3       END;  /* case */

  14208 27 010261   011107 710000 27                 TRA     s:14372

     1497    14209
     1498    14210        %EJECT;
PL6.E3A0      #001=Z8JW$WALK_TREE File=Z8JW.:Z8A6TSI                             SAT 08/09/97 13:33 Page:304
     1499    14211    2     PRINT_SYMBOL: PROC;

  14211 27 010262   200064 741300       PRINT_SYMBOL STX1  ! MVANO_CMPAS_CODE,,AUTO

     1500    14212
     1501    14213        /*
     1502    14214                     Print   symbol
     1503    14215        */
     1504    14216
     1505    14217    3       SUBSTR( OBUF,PRINT_NDX+10,9 ) = ':-Symbol ';

  14217 27 010263   200006 235100                    LDA     PRINT_NDX,,AUTO
        27 010264   040005 100400                    MLR     fill='040'O
        27 010265   000376 000011 26                 ADSC9   254                      cn=0,n=9
        27 010266   000002 400011 24                 ADSC9   OBUF+2,A                 cn=2,n=9

     1506    14218    3        CALL X8CO$CONV_TO_DECIMAL (ID$->LX_TERMINAL.SYMBOL, CHAR13);

  14218 27 010267   200061 470500                    LDP0    @ID$,,AUTO
        27 010270   000000 471500                    LDP1    0,,PR0
        27 010271   200012 633500                    EPPR3   CHAR13,,AUTO
        27 010272   200077 453500                    STP3    @OP+2,,AUTO
        27 010273   100003 634500                    EPPR4   3,,PR1
        27 010274   200076 454500                    STP4    @OP+1,,AUTO
        27 010275   200076 630500                    EPPR0   @OP+1,,AUTO
        27 010276   000011 631400 28                 EPPR1   9
        27 010277   000000 701000 xent               TSX1    X8CO$CONV_TO_DECIMAL
        27 010300   000000 011000                    NOP     0

     1507    14219    3        SUBSTR( OBUF,PRINT_NDX+19,13 ) = CHAR13;

  14219 27 010301   200006 235100                    LDA     PRINT_NDX,,AUTO
        27 010302   040005 100500                    MLR     fill='040'O
        27 010303   200012 000015                    ADSC9   CHAR13,,AUTO             cn=0,n=13
        27 010304   000004 600015 24                 ADSC9   OBUF+4,A                 cn=3,n=13

     1508    14220    3     END PRINT_SYMBOL;  /* proc */
PL6.E3A0      #001=Z8JW$WALK_TREE File=Z8JW.:Z8A6TSI                             SAT 08/09/97 13:33 Page:305

  14220 27 010305   200064 221300                    LDX1  ! MVANO_CMPAS_CODE,,AUTO
        27 010306   000001 702211                    TSX2  ! 1,X1

     1509    14221        %EJECT;
PL6.E3A0      #001=Z8JW$WALK_TREE File=Z8JW.:Z8A6TSI                             SAT 08/09/97 13:33 Page:306
     1510    14222    2     PRINT_TYPE: PROC;

  14222 27 010307   200064 741300       PRINT_TYPE   STX1  ! MVANO_CMPAS_CODE,,AUTO

     1511    14223
     1512    14224        /*
     1513    14225                     Print   type
     1514    14226        */
     1515    14227
     1516    14228    3        SUBSTR( OBUF,PRINT_NDX+10,9 ) = ':-Type   ';

  14228 27 010310   200006 235100                    LDA     PRINT_NDX,,AUTO
        27 010311   040005 100400                    MLR     fill='040'O
        27 010312   000401 000011 26                 ADSC9   257                      cn=0,n=9
        27 010313   000002 400011 24                 ADSC9   OBUF+2,A                 cn=2,n=9

     1517    14229    4         DO CASE( ID$-> LX_TERMINAL.TYPE );

  14229 27 010314   200061 470500                    LDP0    @ID$,,AUTO
        27 010315   000000 471500                    LDP1    0,,PR0
        27 010316   100004 235100                    LDA     4,,PR1
        27 010317   000024 115007                    CMPA    20,DL
        27 010320   010322 602005 27                 TNC     s:14229+6,AL
        27 010321   010477 710000 27                 TRA     s:14269
        27 010322   010346 710000 27                 TRA     s:14232
        27 010323   010353 710000 27                 TRA     s:14234
        27 010324   010360 710000 27                 TRA     s:14236
        27 010325   010365 710000 27                 TRA     s:14238
        27 010326   010372 710000 27                 TRA     s:14240
        27 010327   010377 710000 27                 TRA     s:14242
        27 010330   010404 710000 27                 TRA     s:14244
        27 010331   010411 710000 27                 TRA     s:14246
        27 010332   010416 710000 27                 TRA     s:14248
        27 010333   010423 710000 27                 TRA     s:14250
        27 010334   010430 710000 27                 TRA     s:14252
        27 010335   010461 710000 27                 TRA     s:14262
        27 010336   010466 710000 27                 TRA     s:14264
PL6.E3A0      #001=Z8JW$WALK_TREE File=Z8JW.:Z8A6TSI                             SAT 08/09/97 13:33 Page:307
        27 010337   010442 710000 27                 TRA     s:14256
        27 010340   010477 710000 27                 TRA     s:14269
        27 010341   010454 710000 27                 TRA     s:14260
        27 010342   010477 710000 27                 TRA     s:14269
        27 010343   010435 710000 27                 TRA     s:14254
        27 010344   010447 710000 27                 TRA     s:14258
        27 010345   010473 710000 27                 TRA     s:14266

     1518    14230
     1519    14231    4           CASE( %TYD );

     1520    14232    4             SUBSTR( OBUF,PRINT_NDX+19,3 ) = 'TYD';

  14232 27 010346   200006 236100                    LDQ     PRINT_NDX,,AUTO
        27 010347   040006 100400                    MLR     fill='040'O
        27 010350   000404 000003 26                 ADSC9   260                      cn=0,n=3
        27 010351   000004 600003 24                 ADSC9   OBUF+4,Q                 cn=3,n=3
        27 010352   010477 710000 27                 TRA     s:14269

     1521    14233    4           CASE( %TYI );

     1522    14234    4             SUBSTR( OBUF,PRINT_NDX+19,3 ) = 'TYI';

  14234 27 010353   200006 236100                    LDQ     PRINT_NDX,,AUTO
        27 010354   040006 100400                    MLR     fill='040'O
        27 010355   000405 000003 26                 ADSC9   261                      cn=0,n=3
        27 010356   000004 600003 24                 ADSC9   OBUF+4,Q                 cn=3,n=3
        27 010357   010477 710000 27                 TRA     s:14269

     1523    14235    4           CASE( %TYJ );

     1524    14236    4             SUBSTR( OBUF,PRINT_NDX+19,3 ) = 'TYJ';

  14236 27 010360   200006 236100                    LDQ     PRINT_NDX,,AUTO
        27 010361   040006 100400                    MLR     fill='040'O
        27 010362   000406 000003 26                 ADSC9   262                      cn=0,n=3
        27 010363   000004 600003 24                 ADSC9   OBUF+4,Q                 cn=3,n=3
PL6.E3A0      #001=Z8JW$WALK_TREE File=Z8JW.:Z8A6TSI                             SAT 08/09/97 13:33 Page:308
        27 010364   010477 710000 27                 TRA     s:14269

     1525    14237    4           CASE( %TYO );

     1526    14238    4             SUBSTR( OBUF,PRINT_NDX+19,3 ) = 'TYO';

  14238 27 010365   200006 236100                    LDQ     PRINT_NDX,,AUTO
        27 010366   040006 100400                    MLR     fill='040'O
        27 010367   000407 000003 26                 ADSC9   263                      cn=0,n=3
        27 010370   000004 600003 24                 ADSC9   OBUF+4,Q                 cn=3,n=3
        27 010371   010477 710000 27                 TRA     s:14269

     1527    14239    4           CASE( %TYR );

     1528    14240    4             SUBSTR( OBUF,PRINT_NDX+19,3 ) = 'TYR';

  14240 27 010372   200006 236100                    LDQ     PRINT_NDX,,AUTO
        27 010373   040006 100400                    MLR     fill='040'O
        27 010374   000410 000003 26                 ADSC9   264                      cn=0,n=3
        27 010375   000004 600003 24                 ADSC9   OBUF+4,Q                 cn=3,n=3
        27 010376   010477 710000 27                 TRA     s:14269

     1529    14241    4           CASE( %TYQ );

     1530    14242    4             SUBSTR( OBUF,PRINT_NDX+19,3 ) = 'TYQ';

  14242 27 010377   200006 236100                    LDQ     PRINT_NDX,,AUTO
        27 010400   040006 100400                    MLR     fill='040'O
        27 010401   000411 000003 26                 ADSC9   265                      cn=0,n=3
        27 010402   000004 600003 24                 ADSC9   OBUF+4,Q                 cn=3,n=3
        27 010403   010477 710000 27                 TRA     s:14269

     1531    14243    4           CASE( %TYE );

     1532    14244    4             SUBSTR( OBUF,PRINT_NDX+19,3 ) = 'TYE';

  14244 27 010404   200006 236100                    LDQ     PRINT_NDX,,AUTO
PL6.E3A0      #001=Z8JW$WALK_TREE File=Z8JW.:Z8A6TSI                             SAT 08/09/97 13:33 Page:309
        27 010405   040006 100400                    MLR     fill='040'O
        27 010406   000412 000003 26                 ADSC9   266                      cn=0,n=3
        27 010407   000004 600003 24                 ADSC9   OBUF+4,Q                 cn=3,n=3
        27 010410   010477 710000 27                 TRA     s:14269

     1533    14245    4           CASE( %TYH );

     1534    14246    4             SUBSTR( OBUF,PRINT_NDX+19,3 ) = 'TYH';

  14246 27 010411   200006 236100                    LDQ     PRINT_NDX,,AUTO
        27 010412   040006 100400                    MLR     fill='040'O
        27 010413   000413 000003 26                 ADSC9   267                      cn=0,n=3
        27 010414   000004 600003 24                 ADSC9   OBUF+4,Q                 cn=3,n=3
        27 010415   010477 710000 27                 TRA     s:14269

     1535    14247    4           CASE( %TYA );

     1536    14248    4             SUBSTR( OBUF,PRINT_NDX+19,3 ) = 'TYA';

  14248 27 010416   200006 236100                    LDQ     PRINT_NDX,,AUTO
        27 010417   040006 100400                    MLR     fill='040'O
        27 010420   000414 000003 26                 ADSC9   268                      cn=0,n=3
        27 010421   000004 600003 24                 ADSC9   OBUF+4,Q                 cn=3,n=3
        27 010422   010477 710000 27                 TRA     s:14269

     1537    14249    4           CASE( %TYX );

     1538    14250    4             SUBSTR( OBUF,PRINT_NDX+19,3 ) = 'TYX';

  14250 27 010423   200006 236100                    LDQ     PRINT_NDX,,AUTO
        27 010424   040006 100400                    MLR     fill='040'O
        27 010425   000415 000003 26                 ADSC9   269                      cn=0,n=3
        27 010426   000004 600003 24                 ADSC9   OBUF+4,Q                 cn=3,n=3
        27 010427   010477 710000 27                 TRA     s:14269

     1539    14251    4           CASE( %TYY );

PL6.E3A0      #001=Z8JW$WALK_TREE File=Z8JW.:Z8A6TSI                             SAT 08/09/97 13:33 Page:310
     1540    14252    4             SUBSTR( OBUF,PRINT_NDX+19,3 ) = 'TYY';

  14252 27 010430   200006 236100                    LDQ     PRINT_NDX,,AUTO
        27 010431   040006 100400                    MLR     fill='040'O
        27 010432   000416 000003 26                 ADSC9   270                      cn=0,n=3
        27 010433   000004 600003 24                 ADSC9   OBUF+4,Q                 cn=3,n=3
        27 010434   010477 710000 27                 TRA     s:14269

     1541    14253    4           CASE( %TYM );

     1542    14254    4             SUBSTR( OBUF,PRINT_NDX+19,3 ) = 'TYM';

  14254 27 010435   200006 236100                    LDQ     PRINT_NDX,,AUTO
        27 010436   040006 100400                    MLR     fill='040'O
        27 010437   000417 000003 26                 ADSC9   271                      cn=0,n=3
        27 010440   000004 600003 24                 ADSC9   OBUF+4,Q                 cn=3,n=3
        27 010441   010477 710000 27                 TRA     s:14269

     1543    14255    4           CASE( %TYT );

     1544    14256    4             SUBSTR( OBUF,PRINT_NDX+19,3 ) = 'TYT';

  14256 27 010442   200006 236100                    LDQ     PRINT_NDX,,AUTO
        27 010443   040006 100400                    MLR     fill='040'O
        27 010444   000420 000003 26                 ADSC9   272                      cn=0,n=3
        27 010445   000004 600003 24                 ADSC9   OBUF+4,Q                 cn=3,n=3
        27 010446   010477 710000 27                 TRA     s:14269

     1545    14257    4           CASE( %TYP );

     1546    14258    4             SUBSTR( OBUF,PRINT_NDX+19,3 ) = 'TYP';

  14258 27 010447   200006 236100                    LDQ     PRINT_NDX,,AUTO
        27 010450   040006 100400                    MLR     fill='040'O
        27 010451   000421 000003 26                 ADSC9   273                      cn=0,n=3
        27 010452   000004 600003 24                 ADSC9   OBUF+4,Q                 cn=3,n=3
        27 010453   010477 710000 27                 TRA     s:14269
PL6.E3A0      #001=Z8JW$WALK_TREE File=Z8JW.:Z8A6TSI                             SAT 08/09/97 13:33 Page:311

     1547    14259    4           CASE( %TYK );

     1548    14260    4             SUBSTR( OBUF,PRINT_NDX+19,3 ) = 'TYK';

  14260 27 010454   200006 236100                    LDQ     PRINT_NDX,,AUTO
        27 010455   040006 100400                    MLR     fill='040'O
        27 010456   000422 000003 26                 ADSC9   274                      cn=0,n=3
        27 010457   000004 600003 24                 ADSC9   OBUF+4,Q                 cn=3,n=3
        27 010460   010477 710000 27                 TRA     s:14269

     1549    14261    4           CASE( %TYF );

     1550    14262    4             SUBSTR( OBUF,PRINT_NDX+19,3 ) = 'TYF';

  14262 27 010461   200006 236100                    LDQ     PRINT_NDX,,AUTO
        27 010462   040006 100400                    MLR     fill='040'O
        27 010463   000423 000003 26                 ADSC9   275                      cn=0,n=3
        27 010464   000004 600003 24                 ADSC9   OBUF+4,Q                 cn=3,n=3
        27 010465   010477 710000 27                 TRA     s:14269

     1551    14263    4           CASE( %TYB );

     1552    14264    4             SUBSTR( OBUF,PRINT_NDX+19,3 ) = 'TYB';

  14264 27 010466   200006 236100                    LDQ     PRINT_NDX,,AUTO
        27 010467   040006 100400                    MLR     fill='040'O
        27 010470   000424 000003 26                 ADSC9   276                      cn=0,n=3
        27 010471   000004 600003 24                 ADSC9   OBUF+4,Q                 cn=3,n=3
        27 010472   010477 710000 27                 TRA     s:14269

     1553    14265    4           CASE( %TYC );

     1554    14266    4             SUBSTR( OBUF,PRINT_NDX+19,3 ) = 'TYC';

  14266 27 010473   200006 236100                    LDQ     PRINT_NDX,,AUTO
        27 010474   040006 100400                    MLR     fill='040'O
PL6.E3A0      #001=Z8JW$WALK_TREE File=Z8JW.:Z8A6TSI                             SAT 08/09/97 13:33 Page:312
        27 010475   000425 000003 26                 ADSC9   277                      cn=0,n=3
        27 010476   000004 600003 24                 ADSC9   OBUF+4,Q                 cn=3,n=3

     1555    14267
     1556    14268    4         END;  /* case */

     1557    14269    3     END PRINT_TYPE; /* proc */

  14269 27 010477   000001 702211                    TSX2  ! 1,X1

     1558    14270        %EJECT;
PL6.E3A0      #001=Z8JW$WALK_TREE File=Z8JW.:Z8A6TSI                             SAT 08/09/97 13:33 Page:313
     1559    14271    2     PRINT_LINE: PROC;

  14271 27 010500   200064 741300       PRINT_LINE   STX1  ! MVANO_CMPAS_CODE,,AUTO

     1560    14272
     1561    14273        /*
     1562    14274                     Print   line number
     1563    14275        */
     1564    14276
     1565    14277    3        SUBSTR( OBUF,PRINT_NDX+10,9 ) = ':-Line   ';

  14277 27 010501   200006 235100                    LDA     PRINT_NDX,,AUTO
        27 010502   040005 100400                    MLR     fill='040'O
        27 010503   000426 000011 26                 ADSC9   278                      cn=0,n=9
        27 010504   000002 400011 24                 ADSC9   OBUF+2,A                 cn=2,n=9

     1566    14278    3        CALL X8CO$CONV_TO_DECIMAL (ID$->LX_TERMINAL.LINE, CHAR13);

  14278 27 010505   200061 470500                    LDP0    @ID$,,AUTO
        27 010506   000000 471500                    LDP1    0,,PR0
        27 010507   200012 633500                    EPPR3   CHAR13,,AUTO
        27 010510   200077 453500                    STP3    @OP+2,,AUTO
        27 010511   100005 634500                    EPPR4   5,,PR1
        27 010512   200076 454500                    STP4    @OP+1,,AUTO
        27 010513   200076 630500                    EPPR0   @OP+1,,AUTO
        27 010514   000011 631400 28                 EPPR1   9
        27 010515   000000 701000 xent               TSX1    X8CO$CONV_TO_DECIMAL
        27 010516   000000 011000                    NOP     0

     1567    14279    3        SUBSTR( OBUF,PRINT_NDX+19,13 ) = CHAR13;

  14279 27 010517   200006 235100                    LDA     PRINT_NDX,,AUTO
        27 010520   040005 100500                    MLR     fill='040'O
        27 010521   200012 000015                    ADSC9   CHAR13,,AUTO             cn=0,n=13
        27 010522   000004 600015 24                 ADSC9   OBUF+4,A                 cn=3,n=13

     1568    14280    3     END PRINT_LINE;
PL6.E3A0      #001=Z8JW$WALK_TREE File=Z8JW.:Z8A6TSI                             SAT 08/09/97 13:33 Page:314

  14280 27 010523   200064 221300                    LDX1  ! MVANO_CMPAS_CODE,,AUTO
        27 010524   000001 702211                    TSX2  ! 1,X1

     1569    14281        %EJECT;
PL6.E3A0      #001=Z8JW$WALK_TREE File=Z8JW.:Z8A6TSI                             SAT 08/09/97 13:33 Page:315
     1570    14282    2     PRINT_COLUMN: PROC;

  14282 27 010525   200064 741300       PRINT_COLUMN STX1  ! MVANO_CMPAS_CODE,,AUTO

     1571    14283
     1572    14284        /*
     1573    14285                     Print   column number
     1574    14286        */
     1575    14287
     1576    14288    3        SUBSTR( OBUF,PRINT_NDX+10,9 ) = ':-Column ';

  14288 27 010526   200006 235100                    LDA     PRINT_NDX,,AUTO
        27 010527   040005 100400                    MLR     fill='040'O
        27 010530   000431 000011 26                 ADSC9   281                      cn=0,n=9
        27 010531   000002 400011 24                 ADSC9   OBUF+2,A                 cn=2,n=9

     1577    14289    3        CALL X8CO$CONV_TO_DECIMAL (ID$->LX_TERMINAL.COLUMN, CHAR13);

  14289 27 010532   200061 470500                    LDP0    @ID$,,AUTO
        27 010533   000000 471500                    LDP1    0,,PR0
        27 010534   200012 633500                    EPPR3   CHAR13,,AUTO
        27 010535   200077 453500                    STP3    @OP+2,,AUTO
        27 010536   100006 634500                    EPPR4   6,,PR1
        27 010537   200076 454500                    STP4    @OP+1,,AUTO
        27 010540   200076 630500                    EPPR0   @OP+1,,AUTO
        27 010541   000011 631400 28                 EPPR1   9
        27 010542   000000 701000 xent               TSX1    X8CO$CONV_TO_DECIMAL
        27 010543   000000 011000                    NOP     0

     1578    14290    3        SUBSTR( OBUF,PRINT_NDX+19,13 ) = CHAR13;

  14290 27 010544   200006 235100                    LDA     PRINT_NDX,,AUTO
        27 010545   040005 100500                    MLR     fill='040'O
        27 010546   200012 000015                    ADSC9   CHAR13,,AUTO             cn=0,n=13
        27 010547   000004 600015 24                 ADSC9   OBUF+4,A                 cn=3,n=13

     1579    14291
PL6.E3A0      #001=Z8JW$WALK_TREE File=Z8JW.:Z8A6TSI                             SAT 08/09/97 13:33 Page:316
     1580    14292    3     END PRINT_COLUMN; /* proc */

  14292 27 010550   200064 221300                    LDX1  ! MVANO_CMPAS_CODE,,AUTO
        27 010551   000001 702211                    TSX2  ! 1,X1

     1581    14293        %EJECT;
PL6.E3A0      #001=Z8JW$WALK_TREE File=Z8JW.:Z8A6TSI                             SAT 08/09/97 13:33 Page:317
     1582    14294    2     PRINT_OP: PROC;

  14294 27 010552   200064 741300       PRINT_OP     STX1  ! MVANO_CMPAS_CODE,,AUTO

     1583    14295
     1584    14296    3        SUBSTR( OBUF,PRINT_NDX+10,9 ) = ':-Op     ';

  14296 27 010553   200006 235100                    LDA     PRINT_NDX,,AUTO
        27 010554   040005 100400                    MLR     fill='040'O
        27 010555   000434 000011 26                 ADSC9   284                      cn=0,n=9
        27 010556   000002 400011 24                 ADSC9   OBUF+2,A                 cn=2,n=9

     1585    14297    4       DO CASE( ID$-> BINARY_OP.OP );

  14297 27 010557   200061 470500                    LDP0    @ID$,,AUTO
        27 010560   000000 471500                    LDP1    0,,PR0
        27 010561   100003 235100                    LDA     3,,PR1
        27 010562   000043 115007                    CMPA    35,DL
        27 010563   010565 602005 27                 TNC     s:14297+6,AL
        27 010564   011106 710000 27                 TRA     s:14370
        27 010565   010630 710000 27                 TRA     s:14299
        27 010566   010635 710000 27                 TRA     s:14301
        27 010567   010642 710000 27                 TRA     s:14303
        27 010570   010647 710000 27                 TRA     s:14305
        27 010571   010654 710000 27                 TRA     s:14307
        27 010572   010661 710000 27                 TRA     s:14309
        27 010573   010666 710000 27                 TRA     s:14311
        27 010574   010673 710000 27                 TRA     s:14313
        27 010575   010700 710000 27                 TRA     s:14315
        27 010576   010705 710000 27                 TRA     s:14317
        27 010577   010712 710000 27                 TRA     s:14319
        27 010600   010717 710000 27                 TRA     s:14321
        27 010601   010724 710000 27                 TRA     s:14323
        27 010602   010731 710000 27                 TRA     s:14325
        27 010603   010736 710000 27                 TRA     s:14327
        27 010604   010743 710000 27                 TRA     s:14329
        27 010605   010750 710000 27                 TRA     s:14331
PL6.E3A0      #001=Z8JW$WALK_TREE File=Z8JW.:Z8A6TSI                             SAT 08/09/97 13:33 Page:318
        27 010606   010755 710000 27                 TRA     s:14333
        27 010607   010762 710000 27                 TRA     s:14335
        27 010610   010767 710000 27                 TRA     s:14337
        27 010611   010774 710000 27                 TRA     s:14339
        27 010612   011001 710000 27                 TRA     s:14341
        27 010613   011006 710000 27                 TRA     s:14343
        27 010614   011013 710000 27                 TRA     s:14345
        27 010615   011020 710000 27                 TRA     s:14347
        27 010616   011025 710000 27                 TRA     s:14349
        27 010617   011032 710000 27                 TRA     s:14351
        27 010620   011037 710000 27                 TRA     s:14353
        27 010621   011044 710000 27                 TRA     s:14355
        27 010622   011051 710000 27                 TRA     s:14357
        27 010623   011056 710000 27                 TRA     s:14359
        27 010624   011063 710000 27                 TRA     s:14361
        27 010625   011070 710000 27                 TRA     s:14363
        27 010626   011075 710000 27                 TRA     s:14365
        27 010627   011102 710000 27                 TRA     s:14367

     1586    14298    4         CASE( %OP_NOT );

     1587    14299    4           SUBSTR( OBUF,PRINT_NDX+19,3 ) = 'not';

  14299 27 010630   200006 236100                    LDQ     PRINT_NDX,,AUTO
        27 010631   040006 100400                    MLR     fill='040'O
        27 010632   000437 000003 26                 ADSC9   287                      cn=0,n=3
        27 010633   000004 600003 24                 ADSC9   OBUF+4,Q                 cn=3,n=3
        27 010634   011106 710000 27                 TRA     s:14370

     1588    14300    4         CASE( %OP_UNARY_MINUS );

     1589    14301    4           SUBSTR( OBUF,PRINT_NDX+19,9 ) = 'unary (-)';

  14301 27 010635   200006 236100                    LDQ     PRINT_NDX,,AUTO
        27 010636   040006 100400                    MLR     fill='040'O
        27 010637   000440 000011 26                 ADSC9   288                      cn=0,n=9
        27 010640   000004 600011 24                 ADSC9   OBUF+4,Q                 cn=3,n=9
PL6.E3A0      #001=Z8JW$WALK_TREE File=Z8JW.:Z8A6TSI                             SAT 08/09/97 13:33 Page:319
        27 010641   011106 710000 27                 TRA     s:14370

     1590    14302    4         CASE( %OP_PAREN );

     1591    14303    4           SUBSTR( OBUF,PRINT_NDX+19,5 ) = 'paren';

  14303 27 010642   200006 236100                    LDQ     PRINT_NDX,,AUTO
        27 010643   040006 100400                    MLR     fill='040'O
        27 010644   000443 000005 26                 ADSC9   291                      cn=0,n=5
        27 010645   000004 600005 24                 ADSC9   OBUF+4,Q                 cn=3,n=5
        27 010646   011106 710000 27                 TRA     s:14370

     1592    14304    4         CASE( %OP_OWNER );

     1593    14305    4           SUBSTR( OBUF,PRINT_NDX+19,5 ) = 'owner';

  14305 27 010647   200006 236100                    LDQ     PRINT_NDX,,AUTO
        27 010650   040006 100400                    MLR     fill='040'O
        27 010651   000445 000005 26                 ADSC9   293                      cn=0,n=5
        27 010652   000004 600005 24                 ADSC9   OBUF+4,Q                 cn=3,n=5
        27 010653   011106 710000 27                 TRA     s:14370

     1594    14306    4         CASE( %OP_MEMBER );

     1595    14307    4           SUBSTR( OBUF,PRINT_NDX+19,6 ) = 'member';

  14307 27 010654   200006 236100                    LDQ     PRINT_NDX,,AUTO
        27 010655   040006 100400                    MLR     fill='040'O
        27 010656   000447 000006 26                 ADSC9   295                      cn=0,n=6
        27 010657   000004 600006 24                 ADSC9   OBUF+4,Q                 cn=3,n=6
        27 010660   011106 710000 27                 TRA     s:14370

     1596    14308    4         CASE( %OP_TENANT ) ;

     1597    14309    4           SUBSTR( OBUF,PRINT_NDX+19,6 ) = 'tenant';

  14309 27 010661   200006 236100                    LDQ     PRINT_NDX,,AUTO
PL6.E3A0      #001=Z8JW$WALK_TREE File=Z8JW.:Z8A6TSI                             SAT 08/09/97 13:33 Page:320
        27 010662   040006 100400                    MLR     fill='040'O
        27 010663   000451 000006 26                 ADSC9   297                      cn=0,n=6
        27 010664   000004 600006 24                 ADSC9   OBUF+4,Q                 cn=3,n=6
        27 010665   011106 710000 27                 TRA     s:14370

     1598    14310    4         CASE( %OP_NUMERIC );

     1599    14311    4           SUBSTR( OBUF,PRINT_NDX+19,7 ) = 'numeric';

  14311 27 010666   200006 236100                    LDQ     PRINT_NDX,,AUTO
        27 010667   040006 100400                    MLR     fill='040'O
        27 010670   000453 000007 26                 ADSC9   299                      cn=0,n=7
        27 010671   000004 600007 24                 ADSC9   OBUF+4,Q                 cn=3,n=7
        27 010672   011106 710000 27                 TRA     s:14370

     1600    14312    4         CASE( %OP_ALPHABETIC );

     1601    14313    4           SUBSTR( OBUF,PRINT_NDX+19,5 ) = 'alpha';

  14313 27 010673   200006 236100                    LDQ     PRINT_NDX,,AUTO
        27 010674   040006 100400                    MLR     fill='040'O
        27 010675   000455 000005 26                 ADSC9   301                      cn=0,n=5
        27 010676   000004 600005 24                 ADSC9   OBUF+4,Q                 cn=3,n=5
        27 010677   011106 710000 27                 TRA     s:14370

     1602    14314    4         CASE( %OP_ALPHABETIC_LOWER );

     1603    14315    4           SUBSTR( OBUF,PRINT_NDX+19,11 ) = 'alpha lower';

  14315 27 010700   200006 236100                    LDQ     PRINT_NDX,,AUTO
        27 010701   040006 100400                    MLR     fill='040'O
        27 010702   000457 000013 26                 ADSC9   303                      cn=0,n=11
        27 010703   000004 600013 24                 ADSC9   OBUF+4,Q                 cn=3,n=11
        27 010704   011106 710000 27                 TRA     s:14370

     1604    14316    4         CASE( %OP_ALPHABETIC_UPPER );

PL6.E3A0      #001=Z8JW$WALK_TREE File=Z8JW.:Z8A6TSI                             SAT 08/09/97 13:33 Page:321
     1605    14317    4           SUBSTR( OBUF,PRINT_NDX+19,11 ) = 'alpha upper';

  14317 27 010705   200006 236100                    LDQ     PRINT_NDX,,AUTO
        27 010706   040006 100400                    MLR     fill='040'O
        27 010707   000462 000013 26                 ADSC9   306                      cn=0,n=11
        27 010710   000004 600013 24                 ADSC9   OBUF+4,Q                 cn=3,n=11
        27 010711   011106 710000 27                 TRA     s:14370

     1606    14318    4         CASE( %OP_POSITIVE ) ;

     1607    14319    4           SUBSTR( OBUF,PRINT_NDX+19,9 ) = 'positive ';

  14319 27 010712   200006 236100                    LDQ     PRINT_NDX,,AUTO
        27 010713   040006 100400                    MLR     fill='040'O
        27 010714   000465 000011 26                 ADSC9   309                      cn=0,n=9
        27 010715   000004 600011 24                 ADSC9   OBUF+4,Q                 cn=3,n=9
        27 010716   011106 710000 27                 TRA     s:14370

     1608    14320    4         CASE( %OP_NEGATIVE );

     1609    14321    4           SUBSTR( OBUF,PRINT_NDX+19,8 ) = 'negative';

  14321 27 010717   200006 236100                    LDQ     PRINT_NDX,,AUTO
        27 010720   040006 100400                    MLR     fill='040'O
        27 010721   000470 000010 26                 ADSC9   312                      cn=0,n=8
        27 010722   000004 600010 24                 ADSC9   OBUF+4,Q                 cn=3,n=8
        27 010723   011106 710000 27                 TRA     s:14370

     1610    14322    4         CASE( %OP_ZERO );

     1611    14323    4           SUBSTR( OBUF,PRINT_NDX+19,4 ) = 'zero';

  14323 27 010724   200006 236100                    LDQ     PRINT_NDX,,AUTO
        27 010725   040006 100400                    MLR     fill='040'O
        27 010726   000472 000004 26                 ADSC9   314                      cn=0,n=4
        27 010727   000004 600004 24                 ADSC9   OBUF+4,Q                 cn=3,n=4
        27 010730   011106 710000 27                 TRA     s:14370
PL6.E3A0      #001=Z8JW$WALK_TREE File=Z8JW.:Z8A6TSI                             SAT 08/09/97 13:33 Page:322

     1612    14324    4         CASE( %OP_EMPTY );

     1613    14325    4           SUBSTR( OBUF,PRINT_NDX+19,5 ) = 'empty';

  14325 27 010731   200006 236100                    LDQ     PRINT_NDX,,AUTO
        27 010732   040006 100400                    MLR     fill='040'O
        27 010733   000473 000005 26                 ADSC9   315                      cn=0,n=5
        27 010734   000004 600005 24                 ADSC9   OBUF+4,Q                 cn=3,n=5
        27 010735   011106 710000 27                 TRA     s:14370

     1614    14326    4         CASE( %OP_AND );

     1615    14327    4           SUBSTR( OBUF,PRINT_NDX+19,3 ) = 'and';

  14327 27 010736   200006 236100                    LDQ     PRINT_NDX,,AUTO
        27 010737   040006 100400                    MLR     fill='040'O
        27 010740   000475 000003 26                 ADSC9   317                      cn=0,n=3
        27 010741   000004 600003 24                 ADSC9   OBUF+4,Q                 cn=3,n=3
        27 010742   011106 710000 27                 TRA     s:14370

     1616    14328    4         CASE( %OP_OR );

     1617    14329    4           SUBSTR( OBUF,PRINT_NDX+19,2 ) = 'or';

  14329 27 010743   200006 236100                    LDQ     PRINT_NDX,,AUTO
        27 010744   040006 100400                    MLR     fill='040'O
        27 010745   000476 000002 26                 ADSC9   318                      cn=0,n=2
        27 010746   000004 600002 24                 ADSC9   OBUF+4,Q                 cn=3,n=2
        27 010747   011106 710000 27                 TRA     s:14370

     1618    14330    4         CASE( %OP_PLUS );

     1619    14331    4           SUBSTR( OBUF,PRINT_NDX+19,1 ) = '+';

  14331 27 010750   200006 236100                    LDQ     PRINT_NDX,,AUTO
        27 010751   040006 100400                    MLR     fill='040'O
PL6.E3A0      #001=Z8JW$WALK_TREE File=Z8JW.:Z8A6TSI                             SAT 08/09/97 13:33 Page:323
        27 010752   000044 000001 28                 ADSC9   36                       cn=0,n=1
        27 010753   000004 600001 24                 ADSC9   OBUF+4,Q                 cn=3,n=1
        27 010754   011106 710000 27                 TRA     s:14370

     1620    14332    4         CASE( %OP_BINARY_MINUS );

     1621    14333    4           SUBSTR( OBUF,PRINT_NDX+19,10 ) = 'binary (-)';

  14333 27 010755   200006 236100                    LDQ     PRINT_NDX,,AUTO
        27 010756   040006 100400                    MLR     fill='040'O
        27 010757   000477 000012 26                 ADSC9   319                      cn=0,n=10
        27 010760   000004 600012 24                 ADSC9   OBUF+4,Q                 cn=3,n=10
        27 010761   011106 710000 27                 TRA     s:14370

     1622    14334    4         CASE( %OP_STAR );

     1623    14335    4           SUBSTR( OBUF,PRINT_NDX+19,1 ) = '*';

  14335 27 010762   200006 236100                    LDQ     PRINT_NDX,,AUTO
        27 010763   040006 100400                    MLR     fill='040'O
        27 010764   000045 000001 28                 ADSC9   37                       cn=0,n=1
        27 010765   000004 600001 24                 ADSC9   OBUF+4,Q                 cn=3,n=1
        27 010766   011106 710000 27                 TRA     s:14370

     1624    14336    4         CASE( %OP_SLASH );

     1625    14337    4           SUBSTR( OBUF,PRINT_NDX+19,1 ) = '/';

  14337 27 010767   200006 236100                    LDQ     PRINT_NDX,,AUTO
        27 010770   040006 100400                    MLR     fill='040'O
        27 010771   000046 000001 28                 ADSC9   38                       cn=0,n=1
        27 010772   000004 600001 24                 ADSC9   OBUF+4,Q                 cn=3,n=1
        27 010773   011106 710000 27                 TRA     s:14370

     1626    14338    4         CASE( %OP_STAR_STAR );

     1627    14339    4           SUBSTR( OBUF,PRINT_NDX+19,2 ) = '**';
PL6.E3A0      #001=Z8JW$WALK_TREE File=Z8JW.:Z8A6TSI                             SAT 08/09/97 13:33 Page:324

  14339 27 010774   200006 236100                    LDQ     PRINT_NDX,,AUTO
        27 010775   040006 100400                    MLR     fill='040'O
        27 010776   000502 000002 26                 ADSC9   322                      cn=0,n=2
        27 010777   000004 600002 24                 ADSC9   OBUF+4,Q                 cn=3,n=2
        27 011000   011106 710000 27                 TRA     s:14370

     1628    14340    4         CASE( %OP_THRU ) ;

     1629    14341    4           SUBSTR( OBUF,PRINT_NDX+19,4 ) = 'thru';

  14341 27 011001   200006 236100                    LDQ     PRINT_NDX,,AUTO
        27 011002   040006 100400                    MLR     fill='040'O
        27 011003   000503 000004 26                 ADSC9   323                      cn=0,n=4
        27 011004   000004 600004 24                 ADSC9   OBUF+4,Q                 cn=3,n=4
        27 011005   011106 710000 27                 TRA     s:14370

     1630    14342    4         CASE( %OP_LESS_THAN );

     1631    14343    4           SUBSTR( OBUF,PRINT_NDX+19,1 ) = '<';

  14343 27 011006   200006 236100                    LDQ     PRINT_NDX,,AUTO
        27 011007   040006 100400                    MLR     fill='040'O
        27 011010   000047 000001 28                 ADSC9   39                       cn=0,n=1
        27 011011   000004 600001 24                 ADSC9   OBUF+4,Q                 cn=3,n=1
        27 011012   011106 710000 27                 TRA     s:14370

     1632    14344    4         CASE( %OP_EQUAL );

     1633    14345    4           SUBSTR( OBUF,PRINT_NDX+19,1 ) = '=';

  14345 27 011013   200006 236100                    LDQ     PRINT_NDX,,AUTO
        27 011014   040006 100400                    MLR     fill='040'O
        27 011015   000050 000001 28                 ADSC9   40                       cn=0,n=1
        27 011016   000004 600001 24                 ADSC9   OBUF+4,Q                 cn=3,n=1
        27 011017   011106 710000 27                 TRA     s:14370

PL6.E3A0      #001=Z8JW$WALK_TREE File=Z8JW.:Z8A6TSI                             SAT 08/09/97 13:33 Page:325
     1634    14346    4         CASE( %OP_GREATER_THAN );

     1635    14347    4           SUBSTR( OBUF,PRINT_NDX+19,1 ) = '>';

  14347 27 011020   200006 236100                    LDQ     PRINT_NDX,,AUTO
        27 011021   040006 100400                    MLR     fill='040'O
        27 011022   000051 000001 28                 ADSC9   41                       cn=0,n=1
        27 011023   000004 600001 24                 ADSC9   OBUF+4,Q                 cn=3,n=1
        27 011024   011106 710000 27                 TRA     s:14370

     1636    14348    4         CASE( %OP_NOT_EQUAL );

     1637    14349    4           SUBSTR( OBUF,PRINT_NDX+19,2 ) = '<>';

  14349 27 011025   200006 236100                    LDQ     PRINT_NDX,,AUTO
        27 011026   040006 100400                    MLR     fill='040'O
        27 011027   000504 000002 26                 ADSC9   324                      cn=0,n=2
        27 011030   000004 600002 24                 ADSC9   OBUF+4,Q                 cn=3,n=2
        27 011031   011106 710000 27                 TRA     s:14370

     1638    14350    4         CASE( %OP_LESS_THAN_OR_EQUAL );

     1639    14351    4           SUBSTR( OBUF,PRINT_NDX+19,2 ) = '<=';

  14351 27 011032   200006 236100                    LDQ     PRINT_NDX,,AUTO
        27 011033   040006 100400                    MLR     fill='040'O
        27 011034   000505 000002 26                 ADSC9   325                      cn=0,n=2
        27 011035   000004 600002 24                 ADSC9   OBUF+4,Q                 cn=3,n=2
        27 011036   011106 710000 27                 TRA     s:14370

     1640    14352    4         CASE( %OP_GREATER_THAN_OR_EQUAL );

     1641    14353    4           SUBSTR( OBUF,PRINT_NDX+19,2 ) = '>=';

  14353 27 011037   200006 236100                    LDQ     PRINT_NDX,,AUTO
        27 011040   040006 100400                    MLR     fill='040'O
        27 011041   000506 000002 26                 ADSC9   326                      cn=0,n=2
PL6.E3A0      #001=Z8JW$WALK_TREE File=Z8JW.:Z8A6TSI                             SAT 08/09/97 13:33 Page:326
        27 011042   000004 600002 24                 ADSC9   OBUF+4,Q                 cn=3,n=2
        27 011043   011106 710000 27                 TRA     s:14370

     1642    14354    4         CASE( %OP_MINIMUM );

     1643    14355    4           SUBSTR( OBUF,PRINT_NDX+19,7 ) = 'minimum';

  14355 27 011044   200006 236100                    LDQ     PRINT_NDX,,AUTO
        27 011045   040006 100400                    MLR     fill='040'O
        27 011046   000507 000007 26                 ADSC9   327                      cn=0,n=7
        27 011047   000004 600007 24                 ADSC9   OBUF+4,Q                 cn=3,n=7
        27 011050   011106 710000 27                 TRA     s:14370

     1644    14356    4         CASE( %OP_INDEX );

     1645    14357    4           SUBSTR( OBUF,PRINT_NDX+19,5 ) = 'index';

  14357 27 011051   200006 236100                    LDQ     PRINT_NDX,,AUTO
        27 011052   040006 100400                    MLR     fill='040'O
        27 011053   000511 000005 26                 ADSC9   329                      cn=0,n=5
        27 011054   000004 600005 24                 ADSC9   OBUF+4,Q                 cn=3,n=5
        27 011055   011106 710000 27                 TRA     s:14370

     1646    14358    4         CASE( %OP_SWITCH_IS_ON );

     1647    14359    4           SUBSTR( OBUF,PRINT_NDX+19,9 ) = 'switch on';

  14359 27 011056   200006 236100                    LDQ     PRINT_NDX,,AUTO
        27 011057   040006 100400                    MLR     fill='040'O
        27 011060   000513 000011 26                 ADSC9   331                      cn=0,n=9
        27 011061   000004 600011 24                 ADSC9   OBUF+4,Q                 cn=3,n=9
        27 011062   011106 710000 27                 TRA     s:14370

     1648    14360    4         CASE( %OP_SWITCH_IS_OFF );

     1649    14361    4           SUBSTR( OBUF,PRINT_NDX+19,10 ) = 'switch off';

PL6.E3A0      #001=Z8JW$WALK_TREE File=Z8JW.:Z8A6TSI                             SAT 08/09/97 13:33 Page:327
  14361 27 011063   200006 236100                    LDQ     PRINT_NDX,,AUTO
        27 011064   040006 100400                    MLR     fill='040'O
        27 011065   000516 000012 26                 ADSC9   334                      cn=0,n=10
        27 011066   000004 600012 24                 ADSC9   OBUF+4,Q                 cn=3,n=10
        27 011067   011106 710000 27                 TRA     s:14370

     1650    14362    4         CASE( %OP_SET_SWITCH_ON );

     1651    14363    4           SUBSTR( OBUF,PRINT_NDX+19,10 ) = 'set switch';

  14363 27 011070   200006 236100                    LDQ     PRINT_NDX,,AUTO
        27 011071   040006 100400                    MLR     fill='040'O
        27 011072   000521 000012 26                 ADSC9   337                      cn=0,n=10
        27 011073   000004 600012 24                 ADSC9   OBUF+4,Q                 cn=3,n=10
        27 011074   011106 710000 27                 TRA     s:14370

     1652    14364    4         CASE( %OP_SET_SWITCH_OFF );

     1653    14365    4           SUBSTR( OBUF,PRINT_NDX+19,12 ) = 'reset switch';

  14365 27 011075   200006 236100                    LDQ     PRINT_NDX,,AUTO
        27 011076   040006 100400                    MLR     fill='040'O
        27 011077   000524 000014 26                 ADSC9   340                      cn=0,n=12
        27 011100   000004 600014 24                 ADSC9   OBUF+4,Q                 cn=3,n=12
        27 011101   011106 710000 27                 TRA     s:14370

     1654    14366    4         CASE( %OP_USER_CLASS );

     1655    14367    4           SUBSTR( OBUF,PRINT_NDX+19,10 ) = 'user class';

  14367 27 011102   200006 236100                    LDQ     PRINT_NDX,,AUTO
        27 011103   040006 100400                    MLR     fill='040'O
        27 011104   000527 000012 26                 ADSC9   343                      cn=0,n=10
        27 011105   000004 600012 24                 ADSC9   OBUF+4,Q                 cn=3,n=10

     1656    14368    4       END;  /* case op */

PL6.E3A0      #001=Z8JW$WALK_TREE File=Z8JW.:Z8A6TSI                             SAT 08/09/97 13:33 Page:328
     1657    14369
     1658    14370    3     END;  /* proc */

  14370 27 011106   000001 702211                    TSX2  ! 1,X1

     1659    14371        %EJECT;
PL6.E3A0      #001=Z8JW$WALK_TREE File=Z8JW.:Z8A6TSI                             SAT 08/09/97 13:33 Page:329
     1660    14372    2     END PRINT_AST_ITEM; /* proc */

  14372 27 011107   200060 221300                    LDX1  ! ARGS#+2,,AUTO
        27 011110   000001 702211                    TSX2  ! 1,X1
     1661    14373    1   END Z8JW$WALK_TREE;  /* proc */
     1662    14374        %EJECT;
PL6.E3A0      #001=Z8JW$WALK_TREE File=Z8JW.:Z8A6TSI                             SAT 08/09/97 13:33 Page:330

PL6.E3A0      #001=Z8JW$WALK_TREE File=Z8JW.:Z8A6TSI                             SAT 08/09/97 13:33 Page:331
--  Include file information  --

   Z8A_LEX_SYMB.:Z8A6TOU  cannot be made into a system file and is referenced.
   Z8E_STACKS.:Z8A6TOU  cannot be made into a system file and is referenced.
   Z8A_COMCOM.:Z8A6TOU  cannot be made into a system file and is referenced.
   Z8A_TYPES.:Z8A6TOU  is referenced.
   Z8A_QLT.:Z8A6TOU  cannot be made into a system file and is referenced.
   Z8A_DNT.:Z8A6TOU  cannot be made into a system file and is referenced.
   Z8A_LTS.:Z8A6TOU  cannot be made into a system file and is referenced.
   Z8A_ST.:Z8A6TOU  cannot be made into a system file and is referenced.
   Z8A_ETT.:Z8A6TOU  cannot be made into a system file and is referenced.
   Z8A_ILS.:Z8A6TOU  cannot be made into a system file and is referenced.
   Z8A_ILL.:Z8A6TOU  cannot be made into a system file and is referenced.
   X8A_COM_MACS.:X8A6TOU  is referenced.
   Z8A_NAMES.:Z8A6TOU  cannot be made into a system file and is referenced.
   Z8A_SUPP_MAC.:Z8A6TOU  is referenced.
   Z8A_DEFC.:Z8A6TOU  cannot be made into a system file and is referenced.
      No diagnostics issued in procedure Z8JW$WALK_TREE.
PL6.E3A0      #001=Z8JW$WALK_TREE File=Z8JW.:Z8A6TSI                             SAT 08/09/97 13:33 Page:332

 **** Variables and constants ****

  ****  Section 000 LblCom ITERATION

  ****  Scalars and arrays  ****
OctLoc.c.b A Datatyp(siz) R M Lvl/name                 OctLoc.c.b A Datatyp(siz) R M Lvl/name

     0-0-0/w SBIN              1 ITERATION

  ****  Section 001 LblCom ILL$

  ****  Scalars and arrays  ****
OctLoc.c.b A Datatyp(siz) R M Lvl/name                 OctLoc.c.b A Datatyp(siz) R M Lvl/name

     0-0-0/w PTR         r     1 ILL$

  ****  Section 002 LblCom ILL_

  ****  Scalars and arrays  ****
OctLoc.c.b A Datatyp(siz) R M Lvl/name                 OctLoc.c.b A Datatyp(siz) R M Lvl/name

     0-0-0/w STRC(180)         1 ILL_

  ****  Section 003 LblCom ILS$

  ****  Scalars and arrays  ****
OctLoc.c.b A Datatyp(siz) R M Lvl/name                 OctLoc.c.b A Datatyp(siz) R M Lvl/name

     0-0-0/w PTR         r     1 ILS$

  ****  Section 004 LblCom ILS_

  ****  Scalars and arrays  ****
OctLoc.c.b A Datatyp(siz) R M Lvl/name                 OctLoc.c.b A Datatyp(siz) R M Lvl/name

     0-0-0/w STRC(180)         1 ILS_

PL6.E3A0      #001=Z8JW$WALK_TREE File=Z8JW.:Z8A6TSI                             SAT 08/09/97 13:33 Page:333
  ****  Section 005 LblCom ETT$

  ****  Scalars and arrays  ****
OctLoc.c.b A Datatyp(siz) R M Lvl/name                 OctLoc.c.b A Datatyp(siz) R M Lvl/name

     0-0-0/w PTR         r     1 ETT$

  ****  Section 006 LblCom HEAD_ETT$

  ****  Scalars and arrays  ****
OctLoc.c.b A Datatyp(siz) R M Lvl/name                 OctLoc.c.b A Datatyp(siz) R M Lvl/name

     0-0-0/w PTR               1 HEAD_ETT$

  ****  Section 007 LblCom ETT_BUCKETS

  ****  Scalars and arrays  ****
OctLoc.c.b A Datatyp(siz) R M Lvl/name                 OctLoc.c.b A Datatyp(siz) R M Lvl/name

     0-0-0/w PTR               1 ETT_BUCKETS(0:511)

  ****  Section 008 LblCom ETT_

  ****  Scalars and arrays  ****
OctLoc.c.b A Datatyp(siz) R M Lvl/name                 OctLoc.c.b A Datatyp(siz) R M Lvl/name

     0-0-0/w STRC(180)         1 ETT_

  ****  Section 009 LblCom ST$

  ****  Scalars and arrays  ****
OctLoc.c.b A Datatyp(siz) R M Lvl/name                 OctLoc.c.b A Datatyp(siz) R M Lvl/name

     0-0-0/w PTR         r     1 ST$

  ****  Section 010 LblCom ST_

PL6.E3A0      #001=Z8JW$WALK_TREE File=Z8JW.:Z8A6TSI                             SAT 08/09/97 13:33 Page:334
  ****  Scalars and arrays  ****
OctLoc.c.b A Datatyp(siz) R M Lvl/name                 OctLoc.c.b A Datatyp(siz) R M Lvl/name

     0-0-0/w STRC(180)         1 ST_

  ****  Section 011 LblCom LTS$

  ****  Scalars and arrays  ****
OctLoc.c.b A Datatyp(siz) R M Lvl/name                 OctLoc.c.b A Datatyp(siz) R M Lvl/name

     0-0-0/w PTR               1 LONG_ITEM$                 0-0-0/w PTR         r     1 LTS$

  ****  Section 012 LblCom LTS_

  ****  Scalars and arrays  ****
OctLoc.c.b A Datatyp(siz) R M Lvl/name                 OctLoc.c.b A Datatyp(siz) R M Lvl/name

     0-0-0/w STRC(180)         1 LTS_

  ****  Section 013 LblCom DNT$

  ****  Scalars and arrays  ****
OctLoc.c.b A Datatyp(siz) R M Lvl/name                 OctLoc.c.b A Datatyp(siz) R M Lvl/name

     0-0-0/w PTR         r     1 DNT$

  ****  Section 014 LblCom DNT_

  ****  Scalars and arrays  ****
OctLoc.c.b A Datatyp(siz) R M Lvl/name                 OctLoc.c.b A Datatyp(siz) R M Lvl/name

     0-0-0/w STRC(180)         1 DNT_

  ****  Section 015 LblCom DNT_BUCKET_NUMBER

  ****  Scalars and arrays  ****
OctLoc.c.b A Datatyp(siz) R M Lvl/name                 OctLoc.c.b A Datatyp(siz) R M Lvl/name
PL6.E3A0      #001=Z8JW$WALK_TREE File=Z8JW.:Z8A6TSI                             SAT 08/09/97 13:33 Page:335

     0-0-0/w UBIN              1 DNT_BUCKET_NUMBER

  ****  Section 016 LblCom DNT_OF_1$

  ****  Scalars and arrays  ****
OctLoc.c.b A Datatyp(siz) R M Lvl/name                 OctLoc.c.b A Datatyp(siz) R M Lvl/name

     0-0-0/w PTR               1 DNT_OF_1$

  ****  Section 017 LblCom QLT$

  ****  Scalars and arrays  ****
OctLoc.c.b A Datatyp(siz) R M Lvl/name                 OctLoc.c.b A Datatyp(siz) R M Lvl/name

     0-0-0/w PTR         r     1 QLT$

  ****  Section 018 LblCom PREV_01_QLT$

  ****  Scalars and arrays  ****
OctLoc.c.b A Datatyp(siz) R M Lvl/name                 OctLoc.c.b A Datatyp(siz) R M Lvl/name

     0-0-0/w PTR               1 PREV_01_QLT$

  ****  Section 019 LblCom QLT_

  ****  Scalars and arrays  ****
OctLoc.c.b A Datatyp(siz) R M Lvl/name                 OctLoc.c.b A Datatyp(siz) R M Lvl/name

     0-0-0/w STRC(180)         1 QLT_

  ****  Section 020 LblCom LEX_SYMBOL

  ****  Scalars and arrays  ****
OctLoc.c.b A Datatyp(siz) R M Lvl/name                 OctLoc.c.b A Datatyp(siz) R M Lvl/name

     0-0-0/w STRC(3240)  r     1 LEX_SYMBOL                 0-0-0/w STRC(3240)        1 LEX_SYMBOL_WORDS
PL6.E3A0      #001=Z8JW$WALK_TREE File=Z8JW.:Z8A6TSI                             SAT 08/09/97 13:33 Page:336

  ****  Section 021 LblCom CURRENT_LEX_SYMBOL$

  ****  Scalars and arrays  ****
OctLoc.c.b A Datatyp(siz) R M Lvl/name                 OctLoc.c.b A Datatyp(siz) R M Lvl/name

     0-0-0/w PTR         r     1 CURRENT_LEX_SYMBOL$

  ****  Section 022 LblCom TEMP_LEX_SYMBOL

  ****  Scalars and arrays  ****
OctLoc.c.b A Datatyp(siz) R M Lvl/name                 OctLoc.c.b A Datatyp(siz) R M Lvl/name

     0-0-0/w STRC(3240)        1 TEMP_LEX_SYMBOL

  ****  Section 023 LblCom TEMP_LEX_SYMBOL2

  ****  Scalars and arrays  ****
OctLoc.c.b A Datatyp(siz) R M Lvl/name                 OctLoc.c.b A Datatyp(siz) R M Lvl/name

     0-0-0/w STRC(3240)        1 TEMP_LEX_SYMBOL2

  ****  Section 024 LblCom OBUF

  ****  Scalars and arrays  ****
OctLoc.c.b A Datatyp(siz) R M Lvl/name                 OctLoc.c.b A Datatyp(siz) R M Lvl/name

     0-0-0/c CHAR(120)   r     1 OBUF

  ****  Section 025  Data  Z8JW$WALK_TREE

  ****  Scalars and arrays  ****
OctLoc.c.b A Datatyp(siz) R M Lvl/name                 OctLoc.c.b A Datatyp(siz) R M Lvl/name

     2-0-0/b BIT         r     1 ABSTRACT                   1-0-0/w UBIN        r     1 ADDRESS
     0-0-0/b BIT         r     1 LOWER_TREES

PL6.E3A0      #001=Z8JW$WALK_TREE File=Z8JW.:Z8A6TSI                             SAT 08/09/97 13:33 Page:337
  ****  Auto variables  ****

  ****  Scalars and arrays  ****
OctLoc.c.b A Datatyp(siz) R M Lvl/name                 OctLoc.c.b A Datatyp(siz) R M Lvl/name

    73-0-0/w PTR         r     1 @COLUMN                   74-0-0/w PTR         r     1 @COLUMN
    61-0-0/w PTR         r     1 @DNT$                      3-0-0/w PTR         r     1 @ID$
    65-0-0/w PTR         r     1 @ID$                      61-0-0/w PTR         r     1 @ID$
    61-0-0/w PTR         r     1 @ID$                      73-0-0/w PTR         r     1 @ID$
    61-0-0/w PTR         r     1 @ID$                      74-0-0/w PTR         r     1 @LENGTH
    66-0-0/w PTR         r     1 @OP                       62-0-0/w PTR         r     1 @OP
    62-0-0/w PTR         r     1 @OP                       62-0-0/w PTR         r     1 @OP
    75-0-0/w PTR         r     1 @OP                       73-0-0/w PTR         r     1 @OP
    62-0-0/w PTR         r     1 @OP                        4-0-0/w PTR         r     1 @OP_ARG
     5-0-0/w PTR         r     1 @PRINT_ARG                61-0-0/w PTR         r     1 @PTR$
    56-0-0/w UBIN        r     1 ARGS#                      7-0-0/c CHAR(12)    r     1 CHAR12
    12-0-0/c CHAR(13)    r     1 CHAR13                    62-0-0/c CHAR(6)     r     1 CHAR6
    74-0-0/w UBIN        r     1 COLUMN                    *0-0-0/w UBIN        r     1 COLUMN
    *0-0-0/w UBIN        r     1 COLUMN                    *0-0-0/w PTR         r     1 DNT$
    67-0-0/w SBIN        r     1 I                         63-0-0/w SBIN        r     1 I
    *0-0-0/w PTR         r     1 ID$                       *0-0-0/w PTR         r     1 ID$
    *0-0-0/w PTR         r     1 ID$                       *0-0-0/w PTR         r     1 ID$
    *0-0-0/w PTR         r     1 ID$                       *0-0-0/w PTR         r     1 ID$
    55-0-0/w SBIN        r     1 J                         *0-0-0/w UBIN        r     1 LENGTH
    71-0-0/w SBIN        r     1 MAX_LENGTH                64-0-0/w UBIN        r     1 MVANO_CMPAS_CODE
    70-0-0/w SBIN        r     1 NAME_LENGTH               54-0-0/w UBIN        r     1 OP
    *0-0-0/w UBIN        r     1 OP                        *0-0-0/w UBIN        r     1 OP
    *0-0-0/w UBIN        r     1 OP                        *0-0-0/w SBIN        r     1 OP
    *0-0-0/w UBIN        r     1 OP                        *0-0-0/w UBIN        r     1 OP
    *0-0-0/w UBIN        r     1 OP                        *0-0-0/w UBIN        r     1 OP_ARG
    *0-0-0/w SBIN        r     1 PRINT_ARG                  6-0-0/w SBIN        r     1 PRINT_NDX
    *0-0-0/w PTR         r     1 PTR$                      16-0-0/c CHAR(120)   r     1 STRING

  ****  SYMREF variables  ****

  ****  Scalars and arrays  ****
OctLoc.c.b A Datatyp(siz) R M Lvl/name                 OctLoc.c.b A Datatyp(siz) R M Lvl/name
PL6.E3A0      #001=Z8JW$WALK_TREE File=Z8JW.:Z8A6TSI                             SAT 08/09/97 13:33 Page:338

     0-0-0/d STRC(13248) r     1 COMCOM                     0-0-0/w UBIN              1 ILL_STEP(0:144)
     0-0-0/w UBIN              1 ILS_STEP_TABLE(0:2)
     0-0-0/w UBIN              1 LTS_STEP(0:37)
     0-0-0/c CHAR(12)    r     1 NAMES(0:599)

  ****  BASED and DCB variables  ****

  ****  Scalars and arrays  ****
OctLoc.c.b A Datatyp(siz) R M Lvl/name                 OctLoc.c.b A Datatyp(siz) R M Lvl/name

     0-0-0/w STRC(108)         1 ACCEPT_DISPLAY             0-0-0/w STRC(288)         1 ADD_STMT
     0-0-0/w STRC(396)         1 ALPHABET                   0-0-0/w STRC(144)         1 ALTER_LTS
     0-0-0/w STRC(3672)        1 ALT_KEY                    0-0-0/w STRC(36864) r     1 ARGLIST
     0-0-0/w STRC(396)         1 ARRAY                      0-0-0/w STRC(180)         1 ARRAY_PRESET_LTS
     0-0-0/w ASTR(324)   r     1 BASED_LEX_SYMBOL
     0-0-0/w STRC(360)         1 BASED_LEX_SYMBOL_WORDS
     0-0-0/w STRC(288)         1 BASE_LTS                   0-0-0/w STRC(108)         1 BINARY_ILL
     0-0-0/w STRC(288)   r     1 BINARY_OP                  0-0-0/w STRC(396)         1 BLOCK
     0-0-0/w STRC(144)         1 BRANCH_ILL                 0-0-0/w STRC(144)         1 BT
     0-0-0/w STRC(288)         1 CALL_STMT                  0-0-0/w STRC(216)   r     1 CCOSU
     0-0-0/w STRC(396)         1 CD                         0-0-0/w STRC(288)         1 CD_LTS
     0-0-0/w CHAR(4096)        1 CHARS                      0-0-0/w STRC(396)         1 CLASS
     0-0-0/w STRC(108)         1 CODED_MOVE                 0-0-0/w STRC(288)         1 COMPUTE_STMT
     0-0-0/w STRC(396)         1 CONDITION                  0-0-0/w STRC(396)   r     1 CONST
     0-0-0/w STRC(72)          1 CONT                       0-0-0/w STRC(540)         1 CONTROL_NAME_LTS
     0-0-0/w STRC(1872)        1 COPY_FILE                  0-0-0/w STRC(396)         1 DB
     0-0-0/w STRC(396)         1 DCB_                       0-0-0/w STRC(288)         1 DEFERED_IDENTIFIER
     0-0-0/w STRC(252)         1 DEFERED_ID_TREE            0-0-0/w STRC(288)         1 DEFERED_QUAL_ID
     0-0-0/w STRC(288)         1 DEFERED_SUM_CLAUSE
     0-0-0/w STRC(288)         1 DEFERED_SUM_CLAUSE_LIST
     0-0-0/w STRC(144)         1 DEFLB                      0-0-0/w STRC(288)         1 DELETE_STMT
     0-0-0/w STRC(108)         1 DEPENDING_SIZE             0-0-0/w STRC(5472)        1 DIMS
     0-0-0/w STRC(288)         1 DIVIDE_STMT                0-0-0/w STRC(396)         1 DML_ITEM
     0-0-0/w STRC(216)         1 DML_REC                    0-0-0/w ASTR(180)   r     1 DNT
     0-0-0/w STRC(144)         1 DOEND                      0-0-0/w STRC(396)   r     1 DO_N
     0-0-0/w STRC(180)         1 DV4I                       0-0-0/w STRC(180)         1 ENTRY_ILL
PL6.E3A0      #001=Z8JW$WALK_TREE File=Z8JW.:Z8A6TSI                             SAT 08/09/97 13:33 Page:339
     0-0-0/w STRC(180)   r     1 ETT                        0-0-0/w STRC(108)         1 EVALU
     0-0-0/w STRC(73836)       1 EVALUATE                   0-0-0/w STRC(396)         1 FD
     0-0-0/w STRC(1692)        1 FILE_LTS                   0-0-0/w STRC(144)         1 GO
     0-0-0/w STRC(180)   r     1 ILL                        0-0-0/w STRC              1 ILL_NO_OPS
     0-0-0/w STRC(180)         1 ILS                        0-0-0/w STRC(288)   r     1 ILS_LIST
     0-0-0/w STRC(108)         1 INDEXES                    0-0-0/w STRC(360)         1 INIT_LTS
     0-0-0/w STRC(288)         1 INSPECT_1_STMT             0-0-0/w STRC(288)         1 INSPECT_2_STMT
     0-0-0/w STRC(288)         1 INSPECT_4_STMT             0-0-0/w STRC(396)   r     1 INTDEF
     0-0-0/w STRC(180)         1 IO_RESTORE_CHAIN           0-0-0/w STRC(144)         1 KEY
     0-0-0/w STRC(396)         1 LABEL                      0-0-0/w STRC(288)         1 LA_ITEM
     0-0-0/w STRC(36864)       1 LCNST                      0-0-0/w STRC(108)         1 LINOI
     0-0-0/w STRC(72)          1 LONG                       0-0-0/w STRC              1 LTS
     0-0-0/w STRC(360)         1 LTSS                       0-0-0/w STRC(36936)       1 LTS_PTR_ARRAY
     0-0-0/w STRC(504)         1 LX_CD_INPUT                0-0-0/w STRC(324)         1 LX_CD_I_O
     0-0-0/w STRC(396)         1 LX_CD_OUTPUT               0-0-0/w STRC(288)   r     1 LX_ETT_ITEM
     0-0-0/w STRC(288)         1 LX_ITEM                    0-0-0/w STRC(288)   r     1 LX_LARGE
     0-0-0/w STRC(288)   r     1 LX_LIST                    0-0-0/w STRC(1224)        1 LX_REC_DECL
     0-0-0/w STRC(864)         1 LX_REPORT_REC              0-0-0/w STRC(288)   r     1 LX_TERMINAL
     0-0-0/w STRC(72)          1 MFILL                      0-0-0/w STRC(396)         1 MNEMONIC
     0-0-0/w STRC(288)         1 MULTIPLY_STMT              0-0-0/w STRC(180)         1 MULTI_GO
     0-0-0/w STRC(180)         1 MVEAL                      0-0-0/w STRC(108)         1 MVFIL
     0-0-0/w STRC(72)          1 MVIIS                      0-0-0/w STRC(144)         1 NEL
     0-0-0/w STRC(216)         1 OPEN_LTS                   0-0-0/w STRC(144)         1 OPN
     0-0-0/w STRC(180)         1 OS_CALL                    0-0-0/w STRC(36864)       1 PAGE
     0-0-0/w STRC(396)         1 PARA                       0-0-0/w STRC(216)         1 PFORM
     0-0-0/w STRC(144)         1 PINC                       0-0-0/w STRC(144)   r     1 PREOFF
     0-0-0/w STRC(108)   r     1 PRESET                     0-0-0/w STRC(144)         1 PRIME
     0-0-0/w STRC(396)   r     1 PROC_                      0-0-0/w STRC(396)         1 PROC_DEF
     0-0-0/w STRC(900)         1 PROC_SUPP                  0-0-0/w STRC(144)         1 P_A_PRESET
     0-0-0/w STRC(144)         1 P_P_PRESET                 0-0-0/w STRC(216)   r     1 QLT
     0-0-0/w STRC(396)         1 RD                         0-0-0/w STRC(288)         1 READ_STMT
     0-0-0/w STRC(216)         1 REF                        0-0-0/w STRC(144)         1 REMEM
     0-0-0/w STRC(108)   r     1 RENAMES                    0-0-0/w STRC(720)         1 REPORT_01_LTS
     0-0-0/w STRC(432)         1 REPORT_ELEM_LTS            0-0-0/w STRC(252)         1 REPORT_GRP_LTS
     0-0-0/w STRC(1332)        1 REPORT_LTS                 0-0-0/w STRC(288)         1 REWRITE_STMT
     0-0-0/w STRC(144)         1 RVA_LTS                    0-0-0/w STRC(396)         1 SCALAR
     0-0-0/w STRC(144)   r     1 SCOPE                      0-0-0/w STRC(396)         1 SD
PL6.E3A0      #001=Z8JW$WALK_TREE File=Z8JW.:Z8A6TSI                             SAT 08/09/97 13:33 Page:340
     0-0-0/w STRC(216)   r     1 SEARCH_                    0-0-0/w STRC(396)         1 SECTION
     0-0-0/w STRC(396)         1 SEGMENT                    0-0-0/w STRC(360)         1 SEGMENT_LTS
     0-0-0/w STRC(396)   r     1 ST                         0-0-0/w STRC(288)         1 START_STMT
     0-0-0/w STRC(72)          1 STP2                       0-0-0/w STRC(252)         1 STRING_STMT
     0-0-0/w STRC(288)         1 SUBTRACT_STMT              0-0-0/w STRC(252)         1 SUM_LTS
     0-0-0/w STRC(396)         1 SWITCH                     0-0-0/w STRC(396)         1 SYMBOLIC_CHAR
     0-0-0/w STRC(396)         1 SYMDEF_                    0-0-0/w STRC(396)   r     1 SYMREF_
     0-0-0/w STRC(396)         1 TEMP                       0-0-0/w STRC(144)         1 TRINARY_ILL
     0-0-0/w STRC(72)          1 UNARY_ILL                  0-0-0/w STRC(288)   r     1 UNARY_OP
     0-0-0/w STRC(288)         1 UNSTRING_STMT              0-0-0/d STRC(612)         1 USE
     0-0-0/w STRC(216)         1 USER_CALL                  0-0-0/w STRC(252)         1 USE_SUPP
     0-0-0/w STRC(108)         1 VAL                        0-0-0/w STRC(108)         1 VAL_END
     0-0-0/w STRC(396)         1 VARIABLE                   0-0-0/w STRC(72)          1 WHEN
     0-0-0/w STRC(288)         1 WRITE_STMT


   Procedure Z8JW$WALK_TREE requires 4681 words for executable code.
   Procedure Z8JW$WALK_TREE requires 144 words of local(AUTO) storage.

    No errors detected in file Z8JW.:Z8A6TSI    .
