PL6.E3A0      #002=Z8PA$OUTPUT_XREF File=Z8PA.:Z8A6TSI                           SAT 08/09/97 09:42 Page:350
     2372        1        /*T***********************************************************/
     2373        2        /*T*                                                         */
     2374        3        /*T* Copyright (c) Bull HN Information Systems Inc., 1997    */
     2375        4        /*T*                                                         */
     2376        5        /*T***********************************************************/
     2377        6         Z8PA$OUTPUT_XREF : PROC(TOP_TREE);
     2378        7         /*D*
     2379        8              NAME: Z8PA$OUTPUT_XREF
     2380        9              CALL:
     2381       10                   CALL Z8PA$OUTPUT_XREF(TOP_TREE);
     2382       11              PARAMETERS:
     2383       12                   TOP_TREE
     2384       13                     Input parameter that gives the top of the subtree to be output.
     2385       14              ENVIRONMENT:
     2386       15                   None.
     2387       16              INPUT:
     2388       17                   LABEL_TABLE
     2389       18              OUTPUT:
     2390       19                   The cross reference to label references to M$LO;
     2391       20              SCRATCH:
     2392       21                   None.
     2393       22              DESCRIPTION:
     2394       23                   This is a recurisve procedure which outputs the cross reference
     2395       24                   to the listing file. The recursion is started in GENERATE_XREF,
     2396       25                   which also outputs the header and key.
     2397       26         */
     2398       27
     2399       28    1        DCL TOP_TREE PTR;
     2400       29    1        DCL POS PTR;
     2401       30
     2402       31             %INCLUDE Z8P_SCAN_EXT;
     2403      220             %INCLUDE Z8P_SEMAN_EX;
     2404      289             %DCBPTR;
     2405      299
     2406      300    1        POS = TOP_TREE;
     2407      301
     2408      302    1        IF POS->LABEL_TABLE.LLINK ~= ADDR(NIL) THEN
PL6.E3A0      #002=Z8PA$OUTPUT_XREF File=Z8PA.:Z8A6TSI                           SAT 08/09/97 09:42 Page:351
     2409      303    1          CALL Z8PA$OUTPUT_XREF(POS->LABEL_TABLE.LLINK);
     2410      304
     2411      305    1        CALL OUTPUT_REFS(POS);
     2412      306
     2413      307    1        IF POS->LABEL_TABLE.RLINK ~= ADDR(NIL) THEN
     2414      308    1          CALL Z8PA$OUTPUT_XREF(POS->LABEL_TABLE.RLINK);
     2415      309
     2416      310    1        OUTPUT_REFS : PROC(POS);
     2417      311    2           DCL POS PTR;
     2418      312    2           DCL DEF_PNT CHAR(6);
     2419      313    2           DCL DEF_OUT CHAR(100);
     2420      314                %EQU REFS_OUT = 7;
     2421      315    2           DCL REF_LINE(0:%REFS_OUT) CHAR(6);
     2422      316    2           DCL REF_CNT UBIN;
     2423      317    2           DCL CNT PTR;
     2424      318
     2425      319    2           CALL DEC_TO_OCT_SUP(DEF_PNT,POS->LABEL_TABLE.LOCATION);
     2426      320    2           CALL CONCAT(DEF_OUT,POS->LABEL_TABLE.NAME,' ',POS->LABEL_TABLE.TYPE,'   ',
               320                    DEF_PNT);
     2427      321
     2428      322    2           CNT = POS->LABEL_TABLE.FIRST_REF;
     2429      323    2           CALL INIT_REF_LINE;
     2430      324
     2431      325    3           DO UNTIL (CNT = ADDR(NIL));
     2432      326    3              IF REF_CNT > %REFS_OUT THEN
     2433      327    4                 DO;
     2434      328    4                    CALL OUTPUT_REF_LINE;
     2435      329    4                    CALL INIT_REF_LINE;
     2436      330    4                 END;
     2437      331    3              CALL DEC_TO_OCT_SUP(REF_LINE(REF_CNT),CNT->REF_LIST.REF);
     2438      332    3              CNT = CNT->REF_LIST.NEXT;
     2439      333    3              REF_CNT = REF_CNT + 1;
     2440      334    3           END;
     2441      335    2           CALL OUTPUT_REF_LINE;
     2442      336
     2443      337    2        OUTPUT_REF_LINE : PROC;
     2444      338
PL6.E3A0      #002=Z8PA$OUTPUT_XREF File=Z8PA.:Z8A6TSI                           SAT 08/09/97 09:42 Page:352
     2445      339    3           DCL CNT1 SBIN;
     2446      340    3           BUFFER = DEF_OUT;
     2447      341
     2448      342    4           DO CNT1 = 0 TO %REFS_OUT;
     2449      343    4              CALL INSERT(BUFFER,%LABEL_LENGTH + 13 + (CNT1 * 7),,REF_LINE(CNT1));
     2450      344    4           END;
     2451      345
     2452      346                %OUTPUT_STR;
     2453      357    3           DEF_OUT = ' ';
     2454      358    3        END OUTPUT_REF_LINE;
     2455      359
     2456      360
     2457      361    2        INIT_REF_LINE : PROC;
     2458      362    3           DCL CNT1 UBIN;
     2459      363
     2460      364    4           DO CNT1 = 0 TO %REFS_OUT;
     2461      365    4              REF_LINE(CNT1) = ' ';
     2462      366    4           END;
     2463      367
     2464      368    3           REF_CNT = 0;
     2465      369    3        END INIT_REF_LINE;
     2466      370    2      END OUTPUT_REFS;
     2467      371    1    END Z8PA$OUTPUT_XREF;
     2468      372         %EOD;

PL6.E3A0      #002=Z8PA$OUTPUT_XREF File=Z8PA.:Z8A6TSI                           SAT 08/09/97 09:42 Page:353
--  Include file information  --

   Z8P_SEMAN_EX.:Z8A6TOU  cannot be made into a system file and is referenced.
   Z9P_IO_EXT.:Z8A6TOU  cannot be made into a system file and is referenced.
   Z8P_SCAN_EXT.:Z8A6TOU  cannot be made into a system file and is referenced.
      No diagnostics issued in procedure Z8PA$OUTPUT_XREF.

   Procedure Z8PA$OUTPUT_XREF requires 159 words for executable code.
   Procedure Z8PA$OUTPUT_XREF requires 92 words of local(AUTO) storage.

PL6.E3A0      #002=Z8PA$OUTPUT_XREF File=Z8PA.:Z8A6TSI                           SAT 08/09/97 09:42 Page:354

 Object Unit name= Z8PA$OUTPUT_XREF                           File name= Z8PA.:Z8A6TOU
 UTS= AUG 09 '97 09:42:38.28 SAT                              Compiler= PL-6/E31         Sev=      00
 SharedLib= :SHARED_SYSTEM                                    Alt SharedLib=


    ****  Control sections  ****

 Sect   Type Bound  Init  Size OctSiz  Section name(segment info)
    0  LblCom even  none     1      1  OUT_DCBN
    1  LblCom even  none     1      1  SAVE_OUT_DCBN
    2  LblCom even  none     1      1  SAVE_DCBN2
    3   DCB   even  none     0      0  M$OU
    4   DCB   even  none     0      0  M$SO
    5   DCB   even  none     0      0  M$LO
    6   DCB   even  none     0      0  M$SI
    7   DCB   even  none     0      0  M$UI
    8   DCB   even  none     0      0  M$DO
    9  LblCom even  none     1      1  ERR_SEV
   10  LblCom even  none     1      1  OPTIONS
   11  LblCom even  none     1      1  DO_REQ
   12  LblCom even  none    26     32  OPTIONS_TEXT
   13  LblCom even  none   128    200  INSTR
   14  LblCom even  none     1      1  INSTR_LISTED
   15  LblCom even  none     1      1  INSTR_LEN
   16  LblCom even  none     1      1  INSTR_INDX
   17  LblCom even  none     1      1  EOF_FLAG
   18  LblCom even  none     5      5  KEY_REC
   19  LblCom even  none     1      1  LINES_OUT
   20  LblCom even  none    25     31  HEADER_LINE1
   21  LblCom even  none    25     31  HEADER_LINE3
   22  LblCom even  none    25     31  HEADER_LINE2
   23  LblCom even  none     1      1  MAX_LINES_PER_PAGE
   24  LblCom even  none    28     34  LINE
   25  LblCom even  none     1      1  LINELEN
   26  LblCom even  none     1      1  PHASE
   27  LblCom even  none     1      1  ERROR_COUNT
   28  RoData even  UTS      1      1  Z8PA$OUTPUT_XREF
PL6.E3A0      #002=Z8PA$OUTPUT_XREF File=Z8PA.:Z8A6TSI                           SAT 08/09/97 09:42 Page:355
   29   Proc  even  none   159    237  Z8PA$OUTPUT_XREF
   30  RoData even  none     5      5  Z8PA$OUTPUT_XREF

    ****  Entry defs  ****

                              Check   Calling
                             calling  sequence
  Sect OctLoc Primary Altret sequence   type   Parms  Name
    29      0   yes            yes      Std        1  Z8PA$OUTPUT_XREF

  ****  Entry refs  ****

         Check        Calling
        calling       sequence
Altret sequence SRef   type   Args  Name
         yes           Std       2 DEC_TO_OCT_SUP
         yes           Std       2 OUTPUT
                       nStd      0 X66_AUTO_1
                       nStd      0 X66_ARET

  ****  Data refs  ****

  Flags:  r = read only, s = secondary
Flgs Name                             Flgs Name                             Flgs Name
     M$OU                                  M$SO                                  M$LO
     M$SI                                  M$UI                                  M$DO
     Z8PS$M$OU$                            Z8PS$M$LO$                            Z8PS$M$DO$
     Z8PS$M$SO$                            Z8PS$M$OU#                            Z8PS$M$LO#
     Z8PS$M$DO#                            Z8PS$M$SO#

  ****  Segment refs  ****

  Flags:  r = read only, s = secondary
Flgs Name                             Flgs Name                             Flgs Name
     NULLSID
PL6.E3A0      #002=Z8PA$OUTPUT_XREF File=Z8PA.:Z8A6TSI                           SAT 08/09/97 09:42 Page:356


     2372        1        /*T***********************************************************/
     2373        2        /*T*                                                         */
     2374        3        /*T* Copyright (c) Bull HN Information Systems Inc., 1997    */
     2375        4        /*T*                                                         */
     2376        5        /*T***********************************************************/
     2377        6         Z8PA$OUTPUT_XREF : PROC(TOP_TREE);

      6 29 000000   000000 700200 xent  Z8PA$OUTPUT* TSX0  ! X66_AUTO_1
        29 000001   000134 000001                    ZERO    92,1

     2378        7         /*D*
     2379        8              NAME: Z8PA$OUTPUT_XREF
     2380        9              CALL:
     2381       10                   CALL Z8PA$OUTPUT_XREF(TOP_TREE);
     2382       11              PARAMETERS:
     2383       12                   TOP_TREE
     2384       13                     Input parameter that gives the top of the subtree to be output.
     2385       14              ENVIRONMENT:
     2386       15                   None.
     2387       16              INPUT:
     2388       17                   LABEL_TABLE
     2389       18              OUTPUT:
     2390       19                   The cross reference to label references to M$LO;
     2391       20              SCRATCH:
     2392       21                   None.
     2393       22              DESCRIPTION:
     2394       23                   This is a recurisve procedure which outputs the cross reference
     2395       24                   to the listing file. The recursion is started in GENERATE_XREF,
     2396       25                   which also outputs the header and key.
     2397       26         */
     2398       27
     2399       28    1        DCL TOP_TREE PTR;
     2400       29    1        DCL POS PTR;
     2401       30
     2402       31             %INCLUDE Z8P_SCAN_EXT;
     2403      220             %INCLUDE Z8P_SEMAN_EX;
PL6.E3A0      #002=Z8PA$OUTPUT_XREF File=Z8PA.:Z8A6TSI                           SAT 08/09/97 09:42 Page:357
     2404      289             %DCBPTR;
     2405      299
     2406      300    1        POS = TOP_TREE;

    300 29 000002   200003 470500                    LDP0    @TOP_TREE,,AUTO
        29 000003   000000 236100                    LDQ     0,,PR0
        29 000004   200004 756100                    STQ     POS,,AUTO

     2407      301
     2408      302    1        IF POS->LABEL_TABLE.LLINK ~= ADDR(NIL) THEN

    302 29 000005   200004 471500                    LDP1    POS,,AUTO
        29 000006   100015 236100                    LDQ     13,,PR1
        29 000007   000000 116000 30                 CMPQ    0
        29 000010   000020 600000 29                 TZE     s:305

     2409      303    1          CALL Z8PA$OUTPUT_XREF(POS->LABEL_TABLE.LLINK);

    303 29 000011   200004 236100                    LDQ     POS,,AUTO
        29 000012   000015 036003                    ADLQ    13,DU
        29 000013   200130 756100                    STQ     CNT1+1,,AUTO
        29 000014   200130 630500                    EPPR0   CNT1+1,,AUTO
        29 000015   000001 631400 30                 EPPR1   1
        29 000016   000000 701000 29                 TSX1    s:6
        29 000017   000000 011000                    NOP     0

     2410      304
     2411      305    1        CALL OUTPUT_REFS(POS);

    305 29 000020   200004 630500                    EPPR0   POS,,AUTO
        29 000021   200053 450500                    STP0    LEN+3,,AUTO
        29 000022   000040 701000 29                 TSX1    OUTPUT_REFS
        29 000023   000000 011000                    NOP     0

     2412      306
     2413      307    1        IF POS->LABEL_TABLE.RLINK ~= ADDR(NIL) THEN

PL6.E3A0      #002=Z8PA$OUTPUT_XREF File=Z8PA.:Z8A6TSI                           SAT 08/09/97 09:42 Page:358
    307 29 000024   200004 470500                    LDP0    POS,,AUTO
        29 000025   000014 236100                    LDQ     12,,PR0
        29 000026   000000 116000 30                 CMPQ    0
        29 000027   000037 600000 29                 TZE     s:308+7

     2414      308    1          CALL Z8PA$OUTPUT_XREF(POS->LABEL_TABLE.RLINK);

    308 29 000030   200004 236100                    LDQ     POS,,AUTO
        29 000031   000014 036003                    ADLQ    12,DU
        29 000032   200130 756100                    STQ     CNT1+1,,AUTO
        29 000033   200130 630500                    EPPR0   CNT1+1,,AUTO
        29 000034   000001 631400 30                 EPPR1   1
        29 000035   000000 701000 29                 TSX1    s:6
        29 000036   000000 011000                    NOP     0
        29 000037   000236 710000 29                 TRA     s:371

     2415      309
     2416      310    1        OUTPUT_REFS : PROC(POS);

    310 29 000040   200052 741300       OUTPUT_REFS  STX1  ! LEN+2,,AUTO

     2417      311    2           DCL POS PTR;
     2418      312    2           DCL DEF_PNT CHAR(6);
     2419      313    2           DCL DEF_OUT CHAR(100);
     2420      314                %EQU REFS_OUT = 7;
     2421      315    2           DCL REF_LINE(0:%REFS_OUT) CHAR(6);
     2422      316    2           DCL REF_CNT UBIN;
     2423      317    2           DCL CNT PTR;
     2424      318
     2425      319    2           CALL DEC_TO_OCT_SUP(DEF_PNT,POS->LABEL_TABLE.LOCATION);

    319 29 000041   200053 470500                    LDP0    @POS,,AUTO
        29 000042   000000 471500                    LDP1    0,,PR0
        29 000043   100010 633500                    EPPR3   8,,PR1
        29 000044   200131 453500                    STP3    CNT1+2,,AUTO
        29 000045   200054 631500                    EPPR1   DEF_PNT,,AUTO
        29 000046   200130 451500                    STP1    CNT1+1,,AUTO
PL6.E3A0      #002=Z8PA$OUTPUT_XREF File=Z8PA.:Z8A6TSI                           SAT 08/09/97 09:42 Page:359
        29 000047   200130 630500                    EPPR0   CNT1+1,,AUTO
        29 000050   000002 631400 30                 EPPR1   2
        29 000051   000000 701000 xent               TSX1    DEC_TO_OCT_SUP
        29 000052   000000 011000                    NOP     0

     2426      320    2           CALL CONCAT(DEF_OUT,POS->LABEL_TABLE.NAME,' ',POS->LABEL_TABLE.TYPE,'   ',
               320                    DEF_PNT);

    320 29 000053   200053 470500                    LDP0    @POS,,AUTO
        29 000054   000000 471500                    LDP1    0,,PR0
        29 000055   040100 100500                    MLR     fill='040'O
        29 000056   100000 000036                    ADSC9   0,,PR1                   cn=0,n=30
        29 000057   200056 000036                    ADSC9   DEF_OUT,,AUTO            cn=0,n=30
        29 000060   040000 236007                    LDQ     16384,DL
        29 000061   200065 552110                    STBQ    DEF_OUT+7,'10'O,AUTO
        29 000062   040100 100500                    MLR     fill='040'O
        29 000063   100013 000002                    ADSC9   11,,PR1                  cn=0,n=2
        29 000064   200065 600002                    ADSC9   DEF_OUT+7,,AUTO          cn=3,n=2
        29 000065   000000 236000 28                 LDQ     0
        29 000066   000011 772000                    QRL     9
        29 000067   200066 552134                    STBQ    DEF_OUT+8,'34'O,AUTO
        29 000070   040100 100500                    MLR     fill='040'O
        29 000071   200054 000006                    ADSC9   DEF_PNT,,AUTO            cn=0,n=6
        29 000072   200067 000100                    ADSC9   DEF_OUT+9,,AUTO          cn=0,n=64

     2427      321
     2428      322    2           CNT = POS->LABEL_TABLE.FIRST_REF;

    322 29 000073   200053 470500                    LDP0    @POS,,AUTO
        29 000074   000000 471500                    LDP1    0,,PR0
        29 000075   100011 236100                    LDQ     9,,PR1
        29 000076   200124 756100                    STQ     CNT,,AUTO

     2429      323    2           CALL INIT_REF_LINE;

    323 29 000077   000215 701000 29                 TSX1    INIT_REF_LINE
        29 000100   000000 011000                    NOP     0
PL6.E3A0      #002=Z8PA$OUTPUT_XREF File=Z8PA.:Z8A6TSI                           SAT 08/09/97 09:42 Page:360

     2430      324
     2431      325    3           DO UNTIL (CNT = ADDR(NIL));

     2432      326    3              IF REF_CNT > %REFS_OUT THEN

    326 29 000101   200123 235100                    LDA     REF_CNT,,AUTO
        29 000102   000010 115007                    CMPA    8,DL
        29 000103   000110 602000 29                 TNC     s:331

     2433      327    4                 DO;

     2434      328    4                    CALL OUTPUT_REF_LINE;

    328 29 000104   000137 701000 29                 TSX1    OUTPUT_REF_LINE
        29 000105   000000 011000                    NOP     0

     2435      329    4                    CALL INIT_REF_LINE;

    329 29 000106   000215 701000 29                 TSX1    INIT_REF_LINE
        29 000107   000000 011000                    NOP     0

     2436      330    4                 END;

     2437      331    3              CALL DEC_TO_OCT_SUP(REF_LINE(REF_CNT),CNT->REF_LIST.REF);

    331 29 000110   200124 236100                    LDQ     CNT,,AUTO
        29 000111   200131 756100                    STQ     CNT1+2,,AUTO
        29 000112   200132 452500                    STP2    CNT1+3,,AUTO
        29 000113   200123 236100                    LDQ     REF_CNT,,AUTO
        29 000114   000003 402000 30                 MPY     3
        29 000115   000107 036003                    ADLQ    71,DU
        29 000116   200132 036100                    ADLQ    CNT1+3,,AUTO
        29 000117   200130 756100                    STQ     CNT1+1,,AUTO
        29 000120   200130 630500                    EPPR0   CNT1+1,,AUTO
        29 000121   000002 631400 30                 EPPR1   2
        29 000122   000000 701000 xent               TSX1    DEC_TO_OCT_SUP
PL6.E3A0      #002=Z8PA$OUTPUT_XREF File=Z8PA.:Z8A6TSI                           SAT 08/09/97 09:42 Page:361
        29 000123   000000 011000                    NOP     0

     2438      332    3              CNT = CNT->REF_LIST.NEXT;

    332 29 000124   200124 470500                    LDP0    CNT,,AUTO
        29 000125   000001 236100                    LDQ     1,,PR0
        29 000126   200124 756100                    STQ     CNT,,AUTO

     2439      333    3              REF_CNT = REF_CNT + 1;

    333 29 000127   200123 235100                    LDA     REF_CNT,,AUTO
        29 000130   000001 035007                    ADLA    1,DL
        29 000131   200123 755100                    STA     REF_CNT,,AUTO

     2440      334    3           END;

    334 29 000132   000000 116000 30                 CMPQ    0
        29 000133   000101 601000 29                 TNZ     s:326

     2441      335    2           CALL OUTPUT_REF_LINE;

    335 29 000134   000137 701000 29                 TSX1    OUTPUT_REF_LINE
        29 000135   000000 011000                    NOP     0
        29 000136   000234 710000 29                 TRA     s:370

     2442      336
     2443      337    2        OUTPUT_REF_LINE : PROC;

    337 29 000137   200126 741300       OUTPUT_REF_* STX1  ! CNT+2,,AUTO

     2444      338
     2445      339    3           DCL CNT1 SBIN;
     2446      340    3           BUFFER = DEF_OUT;

    340 29 000140   040100 100500                    MLR     fill='040'O
        29 000141   200056 000144                    ADSC9   DEF_OUT,,AUTO            cn=0,n=100
        29 000142   200005 000214                    ADSC9   BUFFER,,AUTO             cn=0,n=140
PL6.E3A0      #002=Z8PA$OUTPUT_XREF File=Z8PA.:Z8A6TSI                           SAT 08/09/97 09:42 Page:362

     2447      341
     2448      342    4           DO CNT1 = 0 TO %REFS_OUT;

    342 29 000143   200127 450100                    STZ     CNT1,,AUTO

     2449      343    4              CALL INSERT(BUFFER,%LABEL_LENGTH + 13 + (CNT1 * 7),,REF_LINE(CNT1));

    343 29 000144   200127 236100                    LDQ     CNT1,,AUTO
        29 000145   000006 402007                    MPY     6,DL
        29 000146   200130 756100                    STQ     CNT1+1,,AUTO
        29 000147   000000 236003                    LDQ     0,DU
        29 000150   200127 136100                    SBLQ    CNT1,,AUTO
        29 000151   000007 402007                    MPY     7,DL
        29 000152   000141 620006                    EAX0    97,QL
        29 000153   200127 236100                    LDQ     CNT1,,AUTO
        29 000154   000007 402007                    MPY     7,DL
        29 000155   200130 235100                    LDA     CNT1+1,,AUTO
        29 000156   040146 100505                    MLR     fill='040'O
        29 000157   200107 000006                    ADSC9   REF_LINE,A,AUTO          cn=0,n=6
        29 000160   200017 600010                    ADSC9   BUFFER+10,Q,AUTO         cn=3,n=*X0

     2450      344    4           END;

    344 29 000161   200127 054100                    AOS     CNT1,,AUTO
        29 000162   200127 235100                    LDA     CNT1,,AUTO
        29 000163   000007 115007                    CMPA    7,DL
        29 000164   000144 604400 29                 TMOZ    s:343

     2451      345
     2452      346                %OUTPUT_STR;

    351 29 000165   000000 236000 0                  LDQ     OUT_DCBN
        29 000166   000176 604000 29                 TMI     s:353
        29 000167   000000 116000 xsym               CMPQ    Z8PS$M$OU#
        29 000170   000176 601000 29                 TNZ     s:353
        29 000171   000000 236000 10                 LDQ     OPTIONS
PL6.E3A0      #002=Z8PA$OUTPUT_XREF File=Z8PA.:Z8A6TSI                           SAT 08/09/97 09:42 Page:363
        29 000172   000002 736000                    QLS     2
        29 000173   400000 376003                    ANQ     -131072,DU
        29 000174   400000 676003                    ERQ     -131072,DU
        29 000175   000210 601000 29                 TNZ     s:357

    353 29 000176   000214 236007                    LDQ     140,DL
        29 000177   200050 756100                    STQ     LEN,,AUTO

    354 29 000200   200050 630500                    EPPR0   LEN,,AUTO
        29 000201   200131 450500                    STP0    CNT1+2,,AUTO
        29 000202   200005 631500                    EPPR1   BUFFER,,AUTO
        29 000203   200130 451500                    STP1    CNT1+1,,AUTO
        29 000204   200130 630500                    EPPR0   CNT1+1,,AUTO
        29 000205   000002 631400 30                 EPPR1   2
        29 000206   000000 701000 xent               TSX1    OUTPUT
        29 000207   000000 011000                    NOP     0

     2453      357    3           DEF_OUT = ' ';

    357 29 000210   040100 100400                    MLR     fill='040'O
        29 000211   000004 000001 30                 ADSC9   4                        cn=0,n=1
        29 000212   200056 000144                    ADSC9   DEF_OUT,,AUTO            cn=0,n=100

     2454      358    3        END OUTPUT_REF_LINE;

    358 29 000213   200126 221300                    LDX1  ! CNT+2,,AUTO
        29 000214   000001 702211                    TSX2  ! 1,X1

     2455      359
     2456      360
     2457      361    2        INIT_REF_LINE : PROC;

    361 29 000215   200126 741300       INIT_REF_LI* STX1  ! CNT+2,,AUTO

     2458      362    3           DCL CNT1 UBIN;
     2459      363
     2460      364    4           DO CNT1 = 0 TO %REFS_OUT;
PL6.E3A0      #002=Z8PA$OUTPUT_XREF File=Z8PA.:Z8A6TSI                           SAT 08/09/97 09:42 Page:364

    364 29 000216   200127 450100                    STZ     CNT1,,AUTO

     2461      365    4              REF_LINE(CNT1) = ' ';

    365 29 000217   200127 236100                    LDQ     CNT1,,AUTO
        29 000220   000006 402007                    MPY     6,DL
        29 000221   040106 100400                    MLR     fill='040'O
        29 000222   000004 000001 30                 ADSC9   4                        cn=0,n=1
        29 000223   200107 000006                    ADSC9   REF_LINE,Q,AUTO          cn=0,n=6

     2462      366    4           END;

    366 29 000224   200127 235100                    LDA     CNT1,,AUTO
        29 000225   000001 035007                    ADLA    1,DL
        29 000226   200127 755100                    STA     CNT1,,AUTO
        29 000227   000010 115007                    CMPA    8,DL
        29 000230   000217 602000 29                 TNC     s:365

     2463      367
     2464      368    3           REF_CNT = 0;

    368 29 000231   200123 450100                    STZ     REF_CNT,,AUTO

     2465      369    3        END INIT_REF_LINE;

    369 29 000232   200126 221300                    LDX1  ! CNT+2,,AUTO
        29 000233   000001 702211                    TSX2  ! 1,X1

     2466      370    2      END OUTPUT_REFS;

    370 29 000234   200052 221300                    LDX1  ! LEN+2,,AUTO
        29 000235   000001 702211                    TSX2  ! 1,X1

     2467      371    1    END Z8PA$OUTPUT_XREF;

    371 29 000236   000000 702200 xent               TSX2  ! X66_ARET
PL6.E3A0      #002=Z8PA$OUTPUT_XREF File=Z8PA.:Z8A6TSI                           SAT 08/09/97 09:42 Page:365
     2468      372         %EOD;

PL6.E3A0      #002=Z8PA$OUTPUT_XREF File=Z8PA.:Z8A6TSI                           SAT 08/09/97 09:42 Page:366
--  Include file information  --

   Z8P_SEMAN_EX.:Z8A6TOU  cannot be made into a system file and is referenced.
   Z9P_IO_EXT.:Z8A6TOU  cannot be made into a system file and is referenced.
   Z8P_SCAN_EXT.:Z8A6TOU  cannot be made into a system file and is referenced.
      No diagnostics issued in procedure Z8PA$OUTPUT_XREF.
PL6.E3A0      #002=Z8PA$OUTPUT_XREF File=Z8PA.:Z8A6TSI                           SAT 08/09/97 09:42 Page:367

 **** Variables and constants ****

  ****  Section 000 LblCom OUT_DCBN

  ****  Scalars and arrays  ****
OctLoc.c.b A Datatyp(siz) R M Lvl/name                 OctLoc.c.b A Datatyp(siz) R M Lvl/name

     0-0-0/w SBIN        r     1 OUT_DCBN

  ****  Section 001 LblCom SAVE_OUT_DCBN

  ****  Scalars and arrays  ****
OctLoc.c.b A Datatyp(siz) R M Lvl/name                 OctLoc.c.b A Datatyp(siz) R M Lvl/name

     0-0-0/w SBIN              1 SAVE_OUT_DCBN

  ****  Section 002 LblCom SAVE_DCBN2

  ****  Scalars and arrays  ****
OctLoc.c.b A Datatyp(siz) R M Lvl/name                 OctLoc.c.b A Datatyp(siz) R M Lvl/name

     0-0-0/w SBIN              1 SAVE_DCBN2

  ****  Section 009 LblCom ERR_SEV

  ****  Scalars and arrays  ****
OctLoc.c.b A Datatyp(siz) R M Lvl/name                 OctLoc.c.b A Datatyp(siz) R M Lvl/name

     0-0-0/w SBIN              1 ERR_SEV

  ****  Section 010 LblCom OPTIONS

  ****  Scalars and arrays  ****
OctLoc.c.b A Datatyp(siz) R M Lvl/name                 OctLoc.c.b A Datatyp(siz) R M Lvl/name

     0-0-0/b BIT         r     1 OPTIONS(0:25)

PL6.E3A0      #002=Z8PA$OUTPUT_XREF File=Z8PA.:Z8A6TSI                           SAT 08/09/97 09:42 Page:368
  ****  Section 011 LblCom DO_REQ

  ****  Scalars and arrays  ****
OctLoc.c.b A Datatyp(siz) R M Lvl/name                 OctLoc.c.b A Datatyp(siz) R M Lvl/name

     0-0-0/b BIT               1 DO_REQ

  ****  Section 012 LblCom OPTIONS_TEXT

  ****  Scalars and arrays  ****
OctLoc.c.b A Datatyp(siz) R M Lvl/name                 OctLoc.c.b A Datatyp(siz) R M Lvl/name

     0-0-0/c CHAR(4)           1 OPTIONS_TEXT(0:25)

  ****  Section 013 LblCom INSTR

  ****  Scalars and arrays  ****
OctLoc.c.b A Datatyp(siz) R M Lvl/name                 OctLoc.c.b A Datatyp(siz) R M Lvl/name

     0-0-0/c CHAR              1 INSTR(0:511)               0-0-0/c CHAR(512)         1 INSTRCHR

  ****  Section 014 LblCom INSTR_LISTED

  ****  Scalars and arrays  ****
OctLoc.c.b A Datatyp(siz) R M Lvl/name                 OctLoc.c.b A Datatyp(siz) R M Lvl/name

     0-0-0/b BIT               1 INSTR_LISTED

  ****  Section 015 LblCom INSTR_LEN

  ****  Scalars and arrays  ****
OctLoc.c.b A Datatyp(siz) R M Lvl/name                 OctLoc.c.b A Datatyp(siz) R M Lvl/name

     0-0-0/w SBIN              1 INSTR_LEN

  ****  Section 016 LblCom INSTR_INDX

PL6.E3A0      #002=Z8PA$OUTPUT_XREF File=Z8PA.:Z8A6TSI                           SAT 08/09/97 09:42 Page:369
  ****  Scalars and arrays  ****
OctLoc.c.b A Datatyp(siz) R M Lvl/name                 OctLoc.c.b A Datatyp(siz) R M Lvl/name

     0-0-0/w SBIN              1 INSTR_INDX

  ****  Section 017 LblCom EOF_FLAG

  ****  Scalars and arrays  ****
OctLoc.c.b A Datatyp(siz) R M Lvl/name                 OctLoc.c.b A Datatyp(siz) R M Lvl/name

     0-0-0/b BIT               1 EOF_FLAG

  ****  Section 018 LblCom KEY_REC

  ****  Scalars and arrays  ****
OctLoc.c.b A Datatyp(siz) R M Lvl/name                 OctLoc.c.b A Datatyp(siz) R M Lvl/name

     0-0-0/c CHAR(20)          1 KEY_REC

  ****  Section 019 LblCom LINES_OUT

  ****  Scalars and arrays  ****
OctLoc.c.b A Datatyp(siz) R M Lvl/name                 OctLoc.c.b A Datatyp(siz) R M Lvl/name

     0-0-0/w SBIN              1 LINES_OUT

  ****  Section 020 LblCom HEADER_LINE1

  ****  Scalars and arrays  ****
OctLoc.c.b A Datatyp(siz) R M Lvl/name                 OctLoc.c.b A Datatyp(siz) R M Lvl/name

     0-0-0/c CHAR(100)         1 HEADER_LINE1

  ****  Section 021 LblCom HEADER_LINE3

  ****  Scalars and arrays  ****
OctLoc.c.b A Datatyp(siz) R M Lvl/name                 OctLoc.c.b A Datatyp(siz) R M Lvl/name
PL6.E3A0      #002=Z8PA$OUTPUT_XREF File=Z8PA.:Z8A6TSI                           SAT 08/09/97 09:42 Page:370

     0-0-0/c CHAR(100)         1 HEADER_LINE3

  ****  Section 022 LblCom HEADER_LINE2

  ****  Scalars and arrays  ****
OctLoc.c.b A Datatyp(siz) R M Lvl/name                 OctLoc.c.b A Datatyp(siz) R M Lvl/name

     0-0-0/c CHAR(100)         1 HEADER_LINE2

  ****  Section 023 LblCom MAX_LINES_PER_PAGE

  ****  Scalars and arrays  ****
OctLoc.c.b A Datatyp(siz) R M Lvl/name                 OctLoc.c.b A Datatyp(siz) R M Lvl/name

     0-0-0/w UBIN              1 MAX_LINES_PER_PAGE

  ****  Section 024 LblCom LINE

  ****  Scalars and arrays  ****
OctLoc.c.b A Datatyp(siz) R M Lvl/name                 OctLoc.c.b A Datatyp(siz) R M Lvl/name

     0-0-0/c CHAR(109)         1 LINE

  ****  Section 025 LblCom LINELEN

  ****  Scalars and arrays  ****
OctLoc.c.b A Datatyp(siz) R M Lvl/name                 OctLoc.c.b A Datatyp(siz) R M Lvl/name

     0-0-0/w SBIN              1 LINELEN

  ****  Section 026 LblCom PHASE

  ****  Scalars and arrays  ****
OctLoc.c.b A Datatyp(siz) R M Lvl/name                 OctLoc.c.b A Datatyp(siz) R M Lvl/name

     0-0-0/w SBIN              1 PHASE
PL6.E3A0      #002=Z8PA$OUTPUT_XREF File=Z8PA.:Z8A6TSI                           SAT 08/09/97 09:42 Page:371

  ****  Section 027 LblCom ERROR_COUNT

  ****  Scalars and arrays  ****
OctLoc.c.b A Datatyp(siz) R M Lvl/name                 OctLoc.c.b A Datatyp(siz) R M Lvl/name

     0-0-0/w SBIN              1 ERROR_COUNT

  ****  Auto variables  ****

  ****  Scalars and arrays  ****
OctLoc.c.b A Datatyp(siz) R M Lvl/name                 OctLoc.c.b A Datatyp(siz) R M Lvl/name

    53-0-0/w PTR         r     1 @POS                       3-0-0/w PTR         r     1 @TOP_TREE
     5-0-0/c CHAR(140)   r     1 BUFFER                   124-0-0/w PTR         r     1 CNT
   127-0-0/w SBIN        r     1 CNT1                     127-0-0/w UBIN        r     1 CNT1
    56-0-0/c CHAR(100)   r     1 DEF_OUT                   54-0-0/c CHAR(6)     r     1 DEF_PNT
    50-0-0/w UBIN        r     1 LEN                        4-0-0/w PTR         r     1 POS
    *0-0-0/w PTR         r     1 POS                      123-0-0/w UBIN        r     1 REF_CNT
   107-0-0/c CHAR(6)     r     1 REF_LINE(0:7)
    *0-0-0/w PTR         r     1 TOP_TREE

  ****  SYMREF variables  ****

  ****  Scalars and arrays  ****
OctLoc.c.b A Datatyp(siz) R M Lvl/name                 OctLoc.c.b A Datatyp(siz) R M Lvl/name

     0-0-0/w UBIN              1 Z8PS$M$DO#                 0-0-0/w PTR               1 Z8PS$M$DO$
     0-0-0/w UBIN              1 Z8PS$M$LO#                 0-0-0/w PTR               1 Z8PS$M$LO$
     0-0-0/w UBIN        r     1 Z8PS$M$OU#                 0-0-0/w PTR               1 Z8PS$M$OU$
     0-0-0/w UBIN              1 Z8PS$M$SO#                 0-0-0/w PTR               1 Z8PS$M$SO$

  ****  BASED and DCB variables  ****

  ****  Scalars and arrays  ****
OctLoc.c.b A Datatyp(siz) R M Lvl/name                 OctLoc.c.b A Datatyp(siz) R M Lvl/name

PL6.E3A0      #002=Z8PA$OUTPUT_XREF File=Z8PA.:Z8A6TSI                           SAT 08/09/97 09:42 Page:372
     0-0-0/w STRC(504)   r     1 LABEL_TABLE                0-0-0N  NULL        r     1 M$DO
     0-0-0N  NULL        r     1 M$LO                       0-0-0N  NULL        r     1 M$OU
     0-0-0N  NULL        r     1 M$SI                       0-0-0N  NULL        r     1 M$SO
     0-0-0N  NULL        r     1 M$UI                       0-0-0/w STRC(144)   r     1 REF_LIST


   Procedure Z8PA$OUTPUT_XREF requires 159 words for executable code.
   Procedure Z8PA$OUTPUT_XREF requires 92 words of local(AUTO) storage.

PL6.E3A0      #003=Z8PA$OUTPUT_JMP_DEST File=Z8PA.:Z8A6TSI                       SAT 08/09/97 09:42 Page:373
     2469        1        /*T***********************************************************/
     2470        2        /*T*                                                         */
     2471        3        /*T* Copyright (c) Bull HN Information Systems Inc., 1997    */
     2472        4        /*T*                                                         */
     2473        5        /*T***********************************************************/
     2474        6         Z8PA$OUTPUT_JMP_DEST : PROC(TABLE);
     2475        7         /*D*
     2476        8              NAME: Z8PA$OUTPUT_JMP_DEST
     2477        9              CALL:
     2478       10                   CALL Z8PA$OUTPUT_JMP_DEST(TABLE);
     2479       11              INPUT:
     2480       12                   REF_LIST, LABEL_TABLE
     2481       13              PARAMETERS:
     2482       14                   TABLE
     2483       15                     Points to the label table to use in getting the jmp destinations.
     2484       16              DESCRIPTION:
     2485       17                   Anytime a label is an operand of a pseudo-code directive
     2486       18                   (as in the JMP directive) a preprocessor variable is created
     2487       19                   and output to the object table in place of the label.  This procedure
     2488       20                   creates preprocessor directives that define the value of the created
     2489       21                   variables.  The directives are output to M$SO.  As this
     2490       22                   procedure steps throgh the label table it also returns
     2491       23                   each REF_list to the free space list for REF_LISTs. Called by
     2492       24                   GEN_JMP_DEST in Z8PA$SEMANTICS.
     2493       25         */
     2494       26             %INCLUDE Z8P_SCAN_EXT;
     2495      215             %INCLUDE Z8P_SEMAN_EX;
     2496      284             %DCBPTR;
     2497      294    1        DCL Z8PA$ERROR_PROC ENTRY(1);
     2498      295    1        DCL TABLE PTR;
     2499      296    1        DCL CNT PTR;
     2500      297    1        DCL POS PTR;
     2501      298    1        DCL TOP PTR;
     2502      299    1        DCL BOT PTR;
     2503      300    1        DCL MESS CHAR(%MESS_LEN);
     2504      301    1        DCL DEST_CHAR CHAR(8);
     2505      302    1        DCL ACTUAL_DEST SBIN HALF;
PL6.E3A0      #003=Z8PA$OUTPUT_JMP_DEST File=Z8PA.:Z8A6TSI                       SAT 08/09/97 09:42 Page:374
     2506      303    1        DCL ACTUAL_DEST_OUT REDEF ACTUAL_DEST UBIN HALF;
     2507      304
     2508      305
     2509      306
     2510      307    1        POS = TABLE;
     2511      308
     2512      309    1        IF POS->LABEL_TABLE.RLINK ~= ADDR(NIL) THEN
     2513      310    1          CALL Z8PA$OUTPUT_JMP_DEST(POS->LABEL_TABLE.RLINK);
     2514      311
     2515      312    1        CALL OUT_DEST;
     2516      313
     2517      314    1        IF POS->LABEL_TABLE.LLINK ~= ADDR(NIL) THEN
     2518      315    1          CALL Z8PA$OUTPUT_JMP_DEST(POS->LABEL_TABLE.LLINK);
     2519      316
     2520      317    1        OUT_DEST : PROC;
     2521      318    2          IF POS->LABEL_TABLE.LOCATION = -1 THEN
     2522      319    3            DO;
     2523      320    3              CALL CONCAT(MESS,%MESS7,POS->LABEL_TABLE.NAME);
     2524      321    3              CALL Z8PA$ERROR_PROC(MESS);
     2525      322    3            END;
     2526      323    2          ELSE
     2527      324    3            DO;
     2528      325    3              CNT = POS->LABEL_TABLE.FIRST_REF;
     2529      326    3              IF CNT ~= ADDR(NIL) THEN
     2530      327    3                TOP = CNT;
     2531      328    3              ELSE
     2532      329    3                TOP = ADDR(NIL);
     2533      330    4              DO UNTIL(CNT = ADDR(NIL));
     2534      331    4                IF CNT->REF_LIST.DEST ~= 'EMPTY' THEN
     2535      332    5                  DO;
     2536      333    5                    ACTUAL_DEST = POS->LABEL_TABLE.LOCATION - CNT->REF_LIST.REF;
     2537      334    5                    CALL BINXCHAR(DEST_CHAR,ACTUAL_DEST_OUT);
     2538      335    5                    CALL CONCAT(BUFFER,'%EQU D',CNT->REF_LIST.DEST,' = ',DEST_CHAR,';')
               335                             ;
     2539      336                         %OUTPUT_STR;
     2540      347    5                  END;
     2541      348    4                  BOT = CNT;
PL6.E3A0      #003=Z8PA$OUTPUT_JMP_DEST File=Z8PA.:Z8A6TSI                       SAT 08/09/97 09:42 Page:375
     2542      349    4                CNT = CNT->REF_LIST.NEXT;
     2543      350    4              END;
     2544      351         /*        IF TOP ~= ADDR(NIL) THEN
     2545      352                     DO;
     2546      353                       BOT->REF_LIST.NEXT = TOP_FREE_RL;
     2547      354                       TOP_FREE_RL = TOP;
     2548      355                     END; */
     2549      356    3            END;
     2550      357    2        END OUT_DEST;
     2551      358    1    END Z8PA$OUTPUT_JMP_DEST;
     2552      359         %EOD;

PL6.E3A0      #003=Z8PA$OUTPUT_JMP_DEST File=Z8PA.:Z8A6TSI                       SAT 08/09/97 09:42 Page:376
--  Include file information  --

   Z8P_SEMAN_EX.:Z8A6TOU  cannot be made into a system file and is referenced.
   Z9P_IO_EXT.:Z8A6TOU  cannot be made into a system file and is referenced.
   Z8P_SCAN_EXT.:Z8A6TOU  cannot be made into a system file and is referenced.
      No diagnostics issued in procedure Z8PA$OUTPUT_JMP_DEST.

   Procedure Z8PA$OUTPUT_JMP_DEST requires 117 words for executable code.
   Procedure Z8PA$OUTPUT_JMP_DEST requires 66 words of local(AUTO) storage.

PL6.E3A0      #003=Z8PA$OUTPUT_JMP_DEST File=Z8PA.:Z8A6TSI                       SAT 08/09/97 09:42 Page:377

 Object Unit name= Z8PA$OUTPUT_JMP_DEST                       File name= Z8PA.:Z8A6TOU
 UTS= AUG 09 '97 09:42:53.52 SAT                              Compiler= PL-6/E31         Sev=      00
 SharedLib= :SHARED_SYSTEM                                    Alt SharedLib=


    ****  Control sections  ****

 Sect   Type Bound  Init  Size OctSiz  Section name(segment info)
    0  LblCom even  none     1      1  OUT_DCBN
    1  LblCom even  none     1      1  SAVE_OUT_DCBN
    2  LblCom even  none     1      1  SAVE_DCBN2
    3   DCB   even  none     0      0  M$OU
    4   DCB   even  none     0      0  M$SO
    5   DCB   even  none     0      0  M$LO
    6   DCB   even  none     0      0  M$SI
    7   DCB   even  none     0      0  M$UI
    8   DCB   even  none     0      0  M$DO
    9  LblCom even  none     1      1  ERR_SEV
   10  LblCom even  none     1      1  OPTIONS
   11  LblCom even  none     1      1  DO_REQ
   12  LblCom even  none    26     32  OPTIONS_TEXT
   13  LblCom even  none   128    200  INSTR
   14  LblCom even  none     1      1  INSTR_LISTED
   15  LblCom even  none     1      1  INSTR_LEN
   16  LblCom even  none     1      1  INSTR_INDX
   17  LblCom even  none     1      1  EOF_FLAG
   18  LblCom even  none     5      5  KEY_REC
   19  LblCom even  none     1      1  LINES_OUT
   20  LblCom even  none    25     31  HEADER_LINE1
   21  LblCom even  none    25     31  HEADER_LINE3
   22  LblCom even  none    25     31  HEADER_LINE2
   23  LblCom even  none     1      1  MAX_LINES_PER_PAGE
   24  LblCom even  none    28     34  LINE
   25  LblCom even  none     1      1  LINELEN
   26  LblCom even  none     1      1  PHASE
   27  LblCom even  none     1      1  ERROR_COUNT
   28  RoData even  UTS     13     15  Z8PA$OUTPUT_JMP_DEST
PL6.E3A0      #003=Z8PA$OUTPUT_JMP_DEST File=Z8PA.:Z8A6TSI                       SAT 08/09/97 09:42 Page:378
   29   Proc  even  none   117    165  Z8PA$OUTPUT_JMP_DEST
   30  RoData even  none     5      5  Z8PA$OUTPUT_JMP_DEST

    ****  Entry defs  ****

                              Check   Calling
                             calling  sequence
  Sect OctLoc Primary Altret sequence   type   Parms  Name
    29      0   yes            yes      Std        1  Z8PA$OUTPUT_JMP_DEST

  ****  Entry refs  ****

         Check        Calling
        calling       sequence
Altret sequence SRef   type   Args  Name
         yes           Std       1 Z8PA$ERROR_PROC
         yes           Std       2 OUTPUT
                       nStd      0 X66_AUTO_1
                       nStd      0 X66_ARET

  ****  Data refs  ****

  Flags:  r = read only, s = secondary
Flgs Name                             Flgs Name                             Flgs Name
     M$OU                                  M$SO                                  M$LO
     M$SI                                  M$UI                                  M$DO
     Z8PS$M$OU$                            Z8PS$M$LO$                            Z8PS$M$DO$
     Z8PS$M$SO$                            Z8PS$M$OU#                            Z8PS$M$LO#
     Z8PS$M$DO#                            Z8PS$M$SO#

  ****  Segment refs  ****

  Flags:  r = read only, s = secondary
Flgs Name                             Flgs Name                             Flgs Name
     NULLSID
PL6.E3A0      #003=Z8PA$OUTPUT_JMP_DEST File=Z8PA.:Z8A6TSI                       SAT 08/09/97 09:42 Page:379


     2469        1        /*T***********************************************************/
     2470        2        /*T*                                                         */
     2471        3        /*T* Copyright (c) Bull HN Information Systems Inc., 1997    */
     2472        4        /*T*                                                         */
     2473        5        /*T***********************************************************/
     2474        6         Z8PA$OUTPUT_JMP_DEST : PROC(TABLE);

      6 29 000000   000000 700200 xent  Z8PA$OUTPUT* TSX0  ! X66_AUTO_1
        29 000001   000102 000001                    ZERO    66,1

     2475        7         /*D*
     2476        8              NAME: Z8PA$OUTPUT_JMP_DEST
     2477        9              CALL:
     2478       10                   CALL Z8PA$OUTPUT_JMP_DEST(TABLE);
     2479       11              INPUT:
     2480       12                   REF_LIST, LABEL_TABLE
     2481       13              PARAMETERS:
     2482       14                   TABLE
     2483       15                     Points to the label table to use in getting the jmp destinations.
     2484       16              DESCRIPTION:
     2485       17                   Anytime a label is an operand of a pseudo-code directive
     2486       18                   (as in the JMP directive) a preprocessor variable is created
     2487       19                   and output to the object table in place of the label.  This procedure
     2488       20                   creates preprocessor directives that define the value of the created
     2489       21                   variables.  The directives are output to M$SO.  As this
     2490       22                   procedure steps throgh the label table it also returns
     2491       23                   each REF_list to the free space list for REF_LISTs. Called by
     2492       24                   GEN_JMP_DEST in Z8PA$SEMANTICS.
     2493       25         */
     2494       26             %INCLUDE Z8P_SCAN_EXT;
     2495      215             %INCLUDE Z8P_SEMAN_EX;
     2496      284             %DCBPTR;
     2497      294    1        DCL Z8PA$ERROR_PROC ENTRY(1);
     2498      295    1        DCL TABLE PTR;
     2499      296    1        DCL CNT PTR;
     2500      297    1        DCL POS PTR;
PL6.E3A0      #003=Z8PA$OUTPUT_JMP_DEST File=Z8PA.:Z8A6TSI                       SAT 08/09/97 09:42 Page:380
     2501      298    1        DCL TOP PTR;
     2502      299    1        DCL BOT PTR;
     2503      300    1        DCL MESS CHAR(%MESS_LEN);
     2504      301    1        DCL DEST_CHAR CHAR(8);
     2505      302    1        DCL ACTUAL_DEST SBIN HALF;
     2506      303    1        DCL ACTUAL_DEST_OUT REDEF ACTUAL_DEST UBIN HALF;
     2507      304
     2508      305
     2509      306
     2510      307    1        POS = TABLE;

    307 29 000002   200003 470500                    LDP0    @TABLE,,AUTO
        29 000003   000000 236100                    LDQ     0,,PR0
        29 000004   200051 756100                    STQ     POS,,AUTO

     2511      308
     2512      309    1        IF POS->LABEL_TABLE.RLINK ~= ADDR(NIL) THEN

    309 29 000005   200051 471500                    LDP1    POS,,AUTO
        29 000006   100014 236100                    LDQ     12,,PR1
        29 000007   000000 116000 30                 CMPQ    0
        29 000010   000020 600000 29                 TZE     s:312

     2513      310    1          CALL Z8PA$OUTPUT_JMP_DEST(POS->LABEL_TABLE.RLINK);

    310 29 000011   200051 236100                    LDQ     POS,,AUTO
        29 000012   000014 036003                    ADLQ    12,DU
        29 000013   200100 756100                    STQ     ACTUAL_DEST+3,,AUTO
        29 000014   200100 630500                    EPPR0   ACTUAL_DEST+3,,AUTO
        29 000015   000001 631400 30                 EPPR1   1
        29 000016   000000 701000 29                 TSX1    s:6
        29 000017   000000 011000                    NOP     0

     2514      311
     2515      312    1        CALL OUT_DEST;

    312 29 000020   000036 701000 29                 TSX1    OUT_DEST
PL6.E3A0      #003=Z8PA$OUTPUT_JMP_DEST File=Z8PA.:Z8A6TSI                       SAT 08/09/97 09:42 Page:381
        29 000021   000000 011000                    NOP     0

     2516      313
     2517      314    1        IF POS->LABEL_TABLE.LLINK ~= ADDR(NIL) THEN

    314 29 000022   200051 470500                    LDP0    POS,,AUTO
        29 000023   000015 236100                    LDQ     13,,PR0
        29 000024   000000 116000 30                 CMPQ    0
        29 000025   000035 600000 29                 TZE     s:315+7

     2518      315    1          CALL Z8PA$OUTPUT_JMP_DEST(POS->LABEL_TABLE.LLINK);

    315 29 000026   200051 236100                    LDQ     POS,,AUTO
        29 000027   000015 036003                    ADLQ    13,DU
        29 000030   200100 756100                    STQ     ACTUAL_DEST+3,,AUTO
        29 000031   200100 630500                    EPPR0   ACTUAL_DEST+3,,AUTO
        29 000032   000001 631400 30                 EPPR1   1
        29 000033   000000 701000 29                 TSX1    s:6
        29 000034   000000 011000                    NOP     0
        29 000035   000164 710000 29                 TRA     s:358

     2519      316
     2520      317    1        OUT_DEST : PROC;

    317 29 000036   200076 741300       OUT_DEST     STX1  ! ACTUAL_DEST+1,,AUTO

     2521      318    2          IF POS->LABEL_TABLE.LOCATION = -1 THEN

    318 29 000037   200051 470500                    LDP0    POS,,AUTO
        29 000040   000010 235100                    LDA     8,,PR0
        29 000041   000002 115000 30                 CMPA    2
        29 000042   000060 601000 29                 TNZ     s:325

     2522      319    3            DO;

     2523      320    3              CALL CONCAT(MESS,%MESS7,POS->LABEL_TABLE.NAME);

PL6.E3A0      #003=Z8PA$OUTPUT_JMP_DEST File=Z8PA.:Z8A6TSI                       SAT 08/09/97 09:42 Page:382
    320 29 000043   040100 100400                    MLR     fill='040'O
        29 000044   000000 000040 28                 ADSC9   0                        cn=0,n=32
        29 000045   200054 000040                    ADSC9   MESS,,AUTO               cn=0,n=32
        29 000046   040100 100500                    MLR     fill='040'O
        29 000047   000000 000034                    ADSC9   0,,PR0                   cn=0,n=28
        29 000050   200064 000034                    ADSC9   MESS+8,,AUTO             cn=0,n=28

     2524      321    3              CALL Z8PA$ERROR_PROC(MESS);

    321 29 000051   200054 630500                    EPPR0   MESS,,AUTO
        29 000052   200100 450500                    STP0    ACTUAL_DEST+3,,AUTO
        29 000053   200100 630500                    EPPR0   ACTUAL_DEST+3,,AUTO
        29 000054   000001 631400 30                 EPPR1   1
        29 000055   000000 701000 xent               TSX1    Z8PA$ERROR_PROC
        29 000056   000000 011000                    NOP     0

     2525      322    3            END;

    322 29 000057   000162 710000 29                 TRA     s:357

     2526      323    2          ELSE
     2527      324    3            DO;

     2528      325    3              CNT = POS->LABEL_TABLE.FIRST_REF;

    325 29 000060   000011 236100                    LDQ     9,,PR0
        29 000061   200050 756100                    STQ     CNT,,AUTO

     2529      326    3              IF CNT ~= ADDR(NIL) THEN

    326 29 000062   000000 116000 30                 CMPQ    0
        29 000063   000066 600000 29                 TZE     s:329

     2530      327    3                TOP = CNT;

    327 29 000064   200052 756100                    STQ     TOP,,AUTO
        29 000065   000070 710000 29                 TRA     s:331
PL6.E3A0      #003=Z8PA$OUTPUT_JMP_DEST File=Z8PA.:Z8A6TSI                       SAT 08/09/97 09:42 Page:383

     2531      328    3              ELSE
     2532      329    3                TOP = ADDR(NIL);

    329 29 000066   000000 236000 30                 LDQ     0
        29 000067   200052 756100                    STQ     TOP,,AUTO

     2533      330    4              DO UNTIL(CNT = ADDR(NIL));

     2534      331    4                IF CNT->REF_LIST.DEST ~= 'EMPTY' THEN

    331 29 000070   200050 470500                    LDP0    CNT,,AUTO
        29 000071   040000 106500                    CMPC    fill='040'O
        29 000072   000002 000010                    ADSC9   2,,PR0                   cn=0,n=8
        29 000073   000010 000005 28                 ADSC9   8                        cn=0,n=5
        29 000074   000153 600000 29                 TZE     s:348

     2535      332    5                  DO;

     2536      333    5                    ACTUAL_DEST = POS->LABEL_TABLE.LOCATION - CNT->REF_LIST.REF;

    333 29 000075   200051 471500                    LDP1    POS,,AUTO
        29 000076   100010 236100                    LDQ     8,,PR1
        29 000077   000000 136100                    SBLQ    0,,PR0
        29 000100   000000 620006                    EAX0    0,QL
        29 000101   200075 740100                    STX0    ACTUAL_DEST,,AUTO

     2537      334    5                    CALL BINXCHAR(DEST_CHAR,ACTUAL_DEST_OUT);

    334 29 000102   200075 235100                    LDA     ACTUAL_DEST,,AUTO
        29 000103   000022 771000                    ARL     18
        29 000104   000044 773000                    LRL     36
        29 000105   200100 757100                    STAQ    ACTUAL_DEST+3,,AUTO
        29 000106   000100 301500                    BTD
        29 000107   200100 000010                    NDSC9   ACTUAL_DEST+3,,AUTO      cn=0,s=lsgnf,sf=0,n=8
        29 000110   200073 010010                    NDSC9   DEST_CHAR,,AUTO          cn=0,s=lsgns,sf=0,n=8

PL6.E3A0      #003=Z8PA$OUTPUT_JMP_DEST File=Z8PA.:Z8A6TSI                       SAT 08/09/97 09:42 Page:384
     2538      335    5                   CALL CONCAT(BUFFER,'%EQU D',CNT->REF_LIST.DEST,' = ',DEST_CHAR,';')
               335                             ;

    335 29 000111   040100 100400                    MLR     fill='040'O
        29 000112   000012 000006 28                 ADSC9   10                       cn=0,n=6
        29 000113   200004 000006                    ADSC9   BUFFER,,AUTO             cn=0,n=6
        29 000114   040100 100500                    MLR     fill='040'O
        29 000115   000002 000010                    ADSC9   2,,PR0                   cn=0,n=8
        29 000116   200005 400010                    ADSC9   BUFFER+1,,AUTO           cn=2,n=8
        29 000117   040100 100400                    MLR     fill='040'O
        29 000120   000014 000003 28                 ADSC9   12                       cn=0,n=3
        29 000121   200007 400003                    ADSC9   BUFFER+3,,AUTO           cn=2,n=3
        29 000122   040100 100500                    MLR     fill='040'O
        29 000123   200073 000010                    ADSC9   DEST_CHAR,,AUTO          cn=0,n=8
        29 000124   200010 200010                    ADSC9   BUFFER+4,,AUTO           cn=1,n=8
        29 000125   040100 100400                    MLR     fill='040'O
        29 000126   000003 000001 30                 ADSC9   3                        cn=0,n=1
        29 000127   200012 200163                    ADSC9   BUFFER+6,,AUTO           cn=1,n=115

     2539      336                         %OUTPUT_STR;

    341 29 000130   000000 236000 0                  LDQ     OUT_DCBN
        29 000131   000141 604000 29                 TMI     s:343
        29 000132   000000 116000 xsym               CMPQ    Z8PS$M$OU#
        29 000133   000141 601000 29                 TNZ     s:343
        29 000134   000000 236000 10                 LDQ     OPTIONS
        29 000135   000002 736000                    QLS     2
        29 000136   400000 376003                    ANQ     -131072,DU
        29 000137   400000 676003                    ERQ     -131072,DU
        29 000140   000153 601000 29                 TNZ     s:348

    343 29 000141   000214 235007                    LDA     140,DL
        29 000142   200047 755100                    STA     LEN,,AUTO

    344 29 000143   200047 630500                    EPPR0   LEN,,AUTO
        29 000144   200101 450500                    STP0    ACTUAL_DEST+4,,AUTO
        29 000145   200004 631500                    EPPR1   BUFFER,,AUTO
PL6.E3A0      #003=Z8PA$OUTPUT_JMP_DEST File=Z8PA.:Z8A6TSI                       SAT 08/09/97 09:42 Page:385
        29 000146   200100 451500                    STP1    ACTUAL_DEST+3,,AUTO
        29 000147   200100 630500                    EPPR0   ACTUAL_DEST+3,,AUTO
        29 000150   000004 631400 30                 EPPR1   4
        29 000151   000000 701000 xent               TSX1    OUTPUT
        29 000152   000000 011000                    NOP     0

     2540      347    5                  END;

     2541      348    4                  BOT = CNT;

    348 29 000153   200050 236100                    LDQ     CNT,,AUTO
        29 000154   200053 756100                    STQ     BOT,,AUTO

     2542      349    4                CNT = CNT->REF_LIST.NEXT;

    349 29 000155   200050 470500                    LDP0    CNT,,AUTO
        29 000156   000001 236100                    LDQ     1,,PR0
        29 000157   200050 756100                    STQ     CNT,,AUTO

     2543      350    4              END;

    350 29 000160   000000 116000 30                 CMPQ    0
        29 000161   000070 601000 29                 TNZ     s:331

     2544      351         /*        IF TOP ~= ADDR(NIL) THEN
     2545      352                     DO;
     2546      353                       BOT->REF_LIST.NEXT = TOP_FREE_RL;
     2547      354                       TOP_FREE_RL = TOP;
     2548      355                     END; */
     2549      356    3            END;

     2550      357    2        END OUT_DEST;

    357 29 000162   200076 221300                    LDX1  ! ACTUAL_DEST+1,,AUTO
        29 000163   000001 702211                    TSX2  ! 1,X1

     2551      358    1    END Z8PA$OUTPUT_JMP_DEST;
PL6.E3A0      #003=Z8PA$OUTPUT_JMP_DEST File=Z8PA.:Z8A6TSI                       SAT 08/09/97 09:42 Page:386

    358 29 000164   000000 702200 xent               TSX2  ! X66_ARET
     2552      359         %EOD;

PL6.E3A0      #003=Z8PA$OUTPUT_JMP_DEST File=Z8PA.:Z8A6TSI                       SAT 08/09/97 09:42 Page:387
--  Include file information  --

   Z8P_SEMAN_EX.:Z8A6TOU  cannot be made into a system file and is referenced.
   Z9P_IO_EXT.:Z8A6TOU  cannot be made into a system file and is referenced.
   Z8P_SCAN_EXT.:Z8A6TOU  cannot be made into a system file and is referenced.
      No diagnostics issued in procedure Z8PA$OUTPUT_JMP_DEST.
PL6.E3A0      #003=Z8PA$OUTPUT_JMP_DEST File=Z8PA.:Z8A6TSI                       SAT 08/09/97 09:42 Page:388

 **** Variables and constants ****

  ****  Section 000 LblCom OUT_DCBN

  ****  Scalars and arrays  ****
OctLoc.c.b A Datatyp(siz) R M Lvl/name                 OctLoc.c.b A Datatyp(siz) R M Lvl/name

     0-0-0/w SBIN        r     1 OUT_DCBN

  ****  Section 001 LblCom SAVE_OUT_DCBN

  ****  Scalars and arrays  ****
OctLoc.c.b A Datatyp(siz) R M Lvl/name                 OctLoc.c.b A Datatyp(siz) R M Lvl/name

     0-0-0/w SBIN              1 SAVE_OUT_DCBN

  ****  Section 002 LblCom SAVE_DCBN2

  ****  Scalars and arrays  ****
OctLoc.c.b A Datatyp(siz) R M Lvl/name                 OctLoc.c.b A Datatyp(siz) R M Lvl/name

     0-0-0/w SBIN              1 SAVE_DCBN2

  ****  Section 009 LblCom ERR_SEV

  ****  Scalars and arrays  ****
OctLoc.c.b A Datatyp(siz) R M Lvl/name                 OctLoc.c.b A Datatyp(siz) R M Lvl/name

     0-0-0/w SBIN              1 ERR_SEV

  ****  Section 010 LblCom OPTIONS

  ****  Scalars and arrays  ****
OctLoc.c.b A Datatyp(siz) R M Lvl/name                 OctLoc.c.b A Datatyp(siz) R M Lvl/name

     0-0-0/b BIT         r     1 OPTIONS(0:25)

PL6.E3A0      #003=Z8PA$OUTPUT_JMP_DEST File=Z8PA.:Z8A6TSI                       SAT 08/09/97 09:42 Page:389
  ****  Section 011 LblCom DO_REQ

  ****  Scalars and arrays  ****
OctLoc.c.b A Datatyp(siz) R M Lvl/name                 OctLoc.c.b A Datatyp(siz) R M Lvl/name

     0-0-0/b BIT               1 DO_REQ

  ****  Section 012 LblCom OPTIONS_TEXT

  ****  Scalars and arrays  ****
OctLoc.c.b A Datatyp(siz) R M Lvl/name                 OctLoc.c.b A Datatyp(siz) R M Lvl/name

     0-0-0/c CHAR(4)           1 OPTIONS_TEXT(0:25)

  ****  Section 013 LblCom INSTR

  ****  Scalars and arrays  ****
OctLoc.c.b A Datatyp(siz) R M Lvl/name                 OctLoc.c.b A Datatyp(siz) R M Lvl/name

     0-0-0/c CHAR              1 INSTR(0:511)               0-0-0/c CHAR(512)         1 INSTRCHR

  ****  Section 014 LblCom INSTR_LISTED

  ****  Scalars and arrays  ****
OctLoc.c.b A Datatyp(siz) R M Lvl/name                 OctLoc.c.b A Datatyp(siz) R M Lvl/name

     0-0-0/b BIT               1 INSTR_LISTED

  ****  Section 015 LblCom INSTR_LEN

  ****  Scalars and arrays  ****
OctLoc.c.b A Datatyp(siz) R M Lvl/name                 OctLoc.c.b A Datatyp(siz) R M Lvl/name

     0-0-0/w SBIN              1 INSTR_LEN

  ****  Section 016 LblCom INSTR_INDX

PL6.E3A0      #003=Z8PA$OUTPUT_JMP_DEST File=Z8PA.:Z8A6TSI                       SAT 08/09/97 09:42 Page:390
  ****  Scalars and arrays  ****
OctLoc.c.b A Datatyp(siz) R M Lvl/name                 OctLoc.c.b A Datatyp(siz) R M Lvl/name

     0-0-0/w SBIN              1 INSTR_INDX

  ****  Section 017 LblCom EOF_FLAG

  ****  Scalars and arrays  ****
OctLoc.c.b A Datatyp(siz) R M Lvl/name                 OctLoc.c.b A Datatyp(siz) R M Lvl/name

     0-0-0/b BIT               1 EOF_FLAG

  ****  Section 018 LblCom KEY_REC

  ****  Scalars and arrays  ****
OctLoc.c.b A Datatyp(siz) R M Lvl/name                 OctLoc.c.b A Datatyp(siz) R M Lvl/name

     0-0-0/c CHAR(20)          1 KEY_REC

  ****  Section 019 LblCom LINES_OUT

  ****  Scalars and arrays  ****
OctLoc.c.b A Datatyp(siz) R M Lvl/name                 OctLoc.c.b A Datatyp(siz) R M Lvl/name

     0-0-0/w SBIN              1 LINES_OUT

  ****  Section 020 LblCom HEADER_LINE1

  ****  Scalars and arrays  ****
OctLoc.c.b A Datatyp(siz) R M Lvl/name                 OctLoc.c.b A Datatyp(siz) R M Lvl/name

     0-0-0/c CHAR(100)         1 HEADER_LINE1

  ****  Section 021 LblCom HEADER_LINE3

  ****  Scalars and arrays  ****
OctLoc.c.b A Datatyp(siz) R M Lvl/name                 OctLoc.c.b A Datatyp(siz) R M Lvl/name
PL6.E3A0      #003=Z8PA$OUTPUT_JMP_DEST File=Z8PA.:Z8A6TSI                       SAT 08/09/97 09:42 Page:391

     0-0-0/c CHAR(100)         1 HEADER_LINE3

  ****  Section 022 LblCom HEADER_LINE2

  ****  Scalars and arrays  ****
OctLoc.c.b A Datatyp(siz) R M Lvl/name                 OctLoc.c.b A Datatyp(siz) R M Lvl/name

     0-0-0/c CHAR(100)         1 HEADER_LINE2

  ****  Section 023 LblCom MAX_LINES_PER_PAGE

  ****  Scalars and arrays  ****
OctLoc.c.b A Datatyp(siz) R M Lvl/name                 OctLoc.c.b A Datatyp(siz) R M Lvl/name

     0-0-0/w UBIN              1 MAX_LINES_PER_PAGE

  ****  Section 024 LblCom LINE

  ****  Scalars and arrays  ****
OctLoc.c.b A Datatyp(siz) R M Lvl/name                 OctLoc.c.b A Datatyp(siz) R M Lvl/name

     0-0-0/c CHAR(109)         1 LINE

  ****  Section 025 LblCom LINELEN

  ****  Scalars and arrays  ****
OctLoc.c.b A Datatyp(siz) R M Lvl/name                 OctLoc.c.b A Datatyp(siz) R M Lvl/name

     0-0-0/w SBIN              1 LINELEN

  ****  Section 026 LblCom PHASE

  ****  Scalars and arrays  ****
OctLoc.c.b A Datatyp(siz) R M Lvl/name                 OctLoc.c.b A Datatyp(siz) R M Lvl/name

     0-0-0/w SBIN              1 PHASE
PL6.E3A0      #003=Z8PA$OUTPUT_JMP_DEST File=Z8PA.:Z8A6TSI                       SAT 08/09/97 09:42 Page:392

  ****  Section 027 LblCom ERROR_COUNT

  ****  Scalars and arrays  ****
OctLoc.c.b A Datatyp(siz) R M Lvl/name                 OctLoc.c.b A Datatyp(siz) R M Lvl/name

     0-0-0/w SBIN              1 ERROR_COUNT

  ****  Auto variables  ****

  ****  Scalars and arrays  ****
OctLoc.c.b A Datatyp(siz) R M Lvl/name                 OctLoc.c.b A Datatyp(siz) R M Lvl/name

     3-0-0/w PTR         r     1 @TABLE                    75-0-0/w SBIN(18)    r     1 ACTUAL_DEST
    75-0-0/w UBIN(18)    r     1 ACTUAL_DEST_OUT           53-0-0/w PTR         r     1 BOT
     4-0-0/c CHAR(140)   r     1 BUFFER                    50-0-0/w PTR         r     1 CNT
    73-0-0/c CHAR(8)     r     1 DEST_CHAR                 47-0-0/w UBIN        r     1 LEN
    54-0-0/c CHAR(60)    r     1 MESS                      51-0-0/w PTR         r     1 POS
    *0-0-0/w PTR         r     1 TABLE                     52-0-0/w PTR         r     1 TOP

  ****  SYMREF variables  ****

  ****  Scalars and arrays  ****
OctLoc.c.b A Datatyp(siz) R M Lvl/name                 OctLoc.c.b A Datatyp(siz) R M Lvl/name

     0-0-0/w UBIN              1 Z8PS$M$DO#                 0-0-0/w PTR               1 Z8PS$M$DO$
     0-0-0/w UBIN              1 Z8PS$M$LO#                 0-0-0/w PTR               1 Z8PS$M$LO$
     0-0-0/w UBIN        r     1 Z8PS$M$OU#                 0-0-0/w PTR               1 Z8PS$M$OU$
     0-0-0/w UBIN              1 Z8PS$M$SO#                 0-0-0/w PTR               1 Z8PS$M$SO$

  ****  BASED and DCB variables  ****

  ****  Scalars and arrays  ****
OctLoc.c.b A Datatyp(siz) R M Lvl/name                 OctLoc.c.b A Datatyp(siz) R M Lvl/name

     0-0-0/w STRC(504)   r     1 LABEL_TABLE                0-0-0N  NULL        r     1 M$DO
     0-0-0N  NULL        r     1 M$LO                       0-0-0N  NULL        r     1 M$OU
PL6.E3A0      #003=Z8PA$OUTPUT_JMP_DEST File=Z8PA.:Z8A6TSI                       SAT 08/09/97 09:42 Page:393
     0-0-0N  NULL        r     1 M$SI                       0-0-0N  NULL        r     1 M$SO
     0-0-0N  NULL        r     1 M$UI                       0-0-0/w STRC(144)   r     1 REF_LIST


   Procedure Z8PA$OUTPUT_JMP_DEST requires 117 words for executable code.
   Procedure Z8PA$OUTPUT_JMP_DEST requires 66 words of local(AUTO) storage.

PL6.E3A0      #004=Z8PA$ERROR_PROC File=Z8PA.:Z8A6TSI                            SAT 08/09/97 09:43 Page:394
     2553        1        /*T***********************************************************/
     2554        2        /*T*                                                         */
     2555        3        /*T* Copyright (c) Bull HN Information Systems Inc., 1997    */
     2556        4        /*T*                                                         */
     2557        5        /*T***********************************************************/
     2558        6         Z8PA$ERROR_PROC : PROC(MESSAGE);
     2559        7         /*D*
     2560        8              NAME: Z8PA$ERROR_PROC
     2561        9              PURPOSE:
     2562       10                   Output an error message to M$LO when a semantic error is detected or
     2563       11                   when an internal assembler error occurs.
     2564       12              CALL:
     2565       13                   CALL Z8PA$ERROR_PROC(MESSAGE);
     2566       14              PARAMETERS:
     2567       15                   MESSAGE
     2568       16                     A 60 character string stating what error occured.
     2569       17                     Some messages have been predefined at the beginning of the module.
     2570       18              DESCRIPTION:
     2571       19                   Z8PA$ERROR_PROC will output the message and will tell what line we are
     2572       20                   currently processing along with what directive was being processed
     2573       21                   when the error occured.  The message will unfortunately usually
     2574       22                   appear a line or two after the line where the error occured.
     2575       23         */
     2576       24             %INCLUDE Z8P_SEMAN_EX;
     2577       93             %INCLUDE Z8P_SCAN_EXT;
     2578      282             %DCBPTR;
     2579      292    1        DCL MESSAGE CHAR(%MESS_LEN);
     2580      293    1        DCL OCTNUM CHAR(6);
     2581      294    1        DCL CURRENT_OT_POS UBIN WORD ALIGNED EXT;
     2582      295    1        DCL FORCE_LIST ENTRY;
     2583      296
     2584      297    1        ERROR_COUNT = ERROR_COUNT + 1;
     2585      298             %SAVE_DCB;
     2586      301             %SELECT_LO;
     2587      304    1        CALL FORCE_LIST;
     2588      305    1        BUFFER = ' ';
     2589      306             %OUTPUT_STR;
PL6.E3A0      #004=Z8PA$ERROR_PROC File=Z8PA.:Z8A6TSI                            SAT 08/09/97 09:43 Page:395
     2590      317    1        CALL CONCAT(BUFFER,'Semantic error: ',MESSAGE);
     2591      318             %OUTPUT_STR;
     2592      329    1        IF PHASE = %PARSING THEN
     2593      330    1          CALL CONCAT(BUFFER,SUBSTR(KEY_REC,0,10),'  Semantic error: ',MESSAGE);
     2594      331    1        ELSE
     2595      332    1          CALL CONCAT(BUFFER,'          ','  Semantic error: ',MESSAGE);
     2596      333             %OUTSTR_DO;
     2597      350             %RESET_DCB;
     2598      353    1    END Z8PA$ERROR_PROC;
     2599      354
     2600      355         %EOD;

PL6.E3A0      #004=Z8PA$ERROR_PROC File=Z8PA.:Z8A6TSI                            SAT 08/09/97 09:43 Page:396
--  Include file information  --

   Z9P_IO_EXT.:Z8A6TOU  cannot be made into a system file and is referenced.
   Z8P_SCAN_EXT.:Z8A6TOU  cannot be made into a system file and is referenced.
   Z8P_SEMAN_EX.:Z8A6TOU  cannot be made into a system file and is referenced.
      No diagnostics issued in procedure Z8PA$ERROR_PROC.

   Procedure Z8PA$ERROR_PROC requires 105 words for executable code.
   Procedure Z8PA$ERROR_PROC requires 44 words of local(AUTO) storage.

PL6.E3A0      #004=Z8PA$ERROR_PROC File=Z8PA.:Z8A6TSI                            SAT 08/09/97 09:43 Page:397

 Object Unit name= Z8PA$ERROR_PROC                            File name= Z8PA.:Z8A6TOU
 UTS= AUG 09 '97 09:43:07.64 SAT                              Compiler= PL-6/E31         Sev=      00
 SharedLib= :SHARED_SYSTEM                                    Alt SharedLib=


    ****  Control sections  ****

 Sect   Type Bound  Init  Size OctSiz  Section name(segment info)
    0  LblCom even  none     1      1  OUT_DCBN
    1  LblCom even  none     1      1  SAVE_OUT_DCBN
    2  LblCom even  none     1      1  SAVE_DCBN2
    3   DCB   even  none     0      0  M$OU
    4   DCB   even  none     0      0  M$SO
    5   DCB   even  none     0      0  M$LO
    6   DCB   even  none     0      0  M$SI
    7   DCB   even  none     0      0  M$UI
    8   DCB   even  none     0      0  M$DO
    9  LblCom even  none     1      1  ERR_SEV
   10  LblCom even  none     1      1  OPTIONS
   11  LblCom even  none     1      1  DO_REQ
   12  LblCom even  none    26     32  OPTIONS_TEXT
   13  LblCom even  none   128    200  INSTR
   14  LblCom even  none     1      1  INSTR_LISTED
   15  LblCom even  none     1      1  INSTR_LEN
   16  LblCom even  none     1      1  INSTR_INDX
   17  LblCom even  none     1      1  EOF_FLAG
   18  LblCom even  none     5      5  KEY_REC
   19  LblCom even  none     1      1  LINES_OUT
   20  LblCom even  none    25     31  HEADER_LINE1
   21  LblCom even  none    25     31  HEADER_LINE3
   22  LblCom even  none    25     31  HEADER_LINE2
   23  LblCom even  none     1      1  MAX_LINES_PER_PAGE
   24  LblCom even  none    28     34  LINE
   25  LblCom even  none     1      1  LINELEN
   26  LblCom even  none     1      1  PHASE
   27  LblCom even  none     1      1  ERROR_COUNT
   28  LblCom even  none     1      1  CURRENT_OT_POS
PL6.E3A0      #004=Z8PA$ERROR_PROC File=Z8PA.:Z8A6TSI                            SAT 08/09/97 09:43 Page:398
   29  RoData even  UTS     12     14  Z8PA$ERROR_PROC
   30   Proc  even  none   105    151  Z8PA$ERROR_PROC
   31  RoData even  none     3      3  Z8PA$ERROR_PROC

    ****  Entry defs  ****

                              Check   Calling
                             calling  sequence
  Sect OctLoc Primary Altret sequence   type   Parms  Name
    30      0   yes            yes      Std        1  Z8PA$ERROR_PROC

  ****  Entry refs  ****

         Check        Calling
        calling       sequence
Altret sequence SRef   type   Args  Name
         yes           Std       0 FORCE_LIST
         yes           Std       2 OUTPUT
                       nStd      0 X66_AUTO_1
                       nStd      0 X66_ARET

  ****  Data refs  ****

  Flags:  r = read only, s = secondary
Flgs Name                             Flgs Name                             Flgs Name
     M$OU                                  M$SO                                  M$LO
     M$SI                                  M$UI                                  M$DO
     Z8PS$M$OU$                            Z8PS$M$LO$                            Z8PS$M$DO$
     Z8PS$M$SO$                            Z8PS$M$OU#                            Z8PS$M$LO#
     Z8PS$M$DO#                            Z8PS$M$SO#
PL6.E3A0      #004=Z8PA$ERROR_PROC File=Z8PA.:Z8A6TSI                            SAT 08/09/97 09:43 Page:399


     2553        1        /*T***********************************************************/
     2554        2        /*T*                                                         */
     2555        3        /*T* Copyright (c) Bull HN Information Systems Inc., 1997    */
     2556        4        /*T*                                                         */
     2557        5        /*T***********************************************************/
     2558        6         Z8PA$ERROR_PROC : PROC(MESSAGE);

      6 30 000000   000000 700200 xent  Z8PA$ERROR_* TSX0  ! X66_AUTO_1
        30 000001   000054 000001                    ZERO    44,1

     2559        7         /*D*
     2560        8              NAME: Z8PA$ERROR_PROC
     2561        9              PURPOSE:
     2562       10                   Output an error message to M$LO when a semantic error is detected or
     2563       11                   when an internal assembler error occurs.
     2564       12              CALL:
     2565       13                   CALL Z8PA$ERROR_PROC(MESSAGE);
     2566       14              PARAMETERS:
     2567       15                   MESSAGE
     2568       16                     A 60 character string stating what error occured.
     2569       17                     Some messages have been predefined at the beginning of the module.
     2570       18              DESCRIPTION:
     2571       19                   Z8PA$ERROR_PROC will output the message and will tell what line we are
     2572       20                   currently processing along with what directive was being processed
     2573       21                   when the error occured.  The message will unfortunately usually
     2574       22                   appear a line or two after the line where the error occured.
     2575       23         */
     2576       24             %INCLUDE Z8P_SEMAN_EX;
     2577       93             %INCLUDE Z8P_SCAN_EXT;
     2578      282             %DCBPTR;
     2579      292    1        DCL MESSAGE CHAR(%MESS_LEN);
     2580      293    1        DCL OCTNUM CHAR(6);
     2581      294    1        DCL CURRENT_OT_POS UBIN WORD ALIGNED EXT;
     2582      295    1        DCL FORCE_LIST ENTRY;
     2583      296
     2584      297    1        ERROR_COUNT = ERROR_COUNT + 1;
PL6.E3A0      #004=Z8PA$ERROR_PROC File=Z8PA.:Z8A6TSI                            SAT 08/09/97 09:43 Page:400

    297 30 000002   000000 054000 27                 AOS     ERROR_COUNT

     2585      298             %SAVE_DCB;

    299 30 000003   000000 235000 0                  LDA     OUT_DCBN
        30 000004   000000 755000 1                  STA     SAVE_OUT_DCBN

     2586      301             %SELECT_LO;

    302 30 000005   000000 236000 xsym               LDQ     Z8PS$M$LO#
        30 000006   000000 756000 0                  STQ     OUT_DCBN

     2587      304    1        CALL FORCE_LIST;

    304 30 000007   000000 631400 31                 EPPR1   0
        30 000010   000000 701000 xent               TSX1    FORCE_LIST
        30 000011   000000 011000                    NOP     0

     2588      305    1        BUFFER = ' ';

    305 30 000012   040100 100400                    MLR     fill='040'O
        30 000013   000001 000001 31                 ADSC9   1                        cn=0,n=1
        30 000014   200004 000214                    ADSC9   BUFFER,,AUTO             cn=0,n=140

     2589      306             %OUTPUT_STR;

    311 30 000015   000000 236000 0                  LDQ     OUT_DCBN
        30 000016   000026 604000 30                 TMI     s:313
        30 000017   000000 116000 xsym               CMPQ    Z8PS$M$OU#
        30 000020   000026 601000 30                 TNZ     s:313
        30 000021   000000 236000 10                 LDQ     OPTIONS
        30 000022   000002 736000                    QLS     2
        30 000023   400000 376003                    ANQ     -131072,DU
        30 000024   400000 676003                    ERQ     -131072,DU
        30 000025   000040 601000 30                 TNZ     s:317

PL6.E3A0      #004=Z8PA$ERROR_PROC File=Z8PA.:Z8A6TSI                            SAT 08/09/97 09:43 Page:401
    313 30 000026   000214 235007                    LDA     140,DL
        30 000027   200047 755100                    STA     LEN,,AUTO

    314 30 000030   200047 630500                    EPPR0   LEN,,AUTO
        30 000031   200053 450500                    STP0    OCTNUM+3,,AUTO
        30 000032   200004 631500                    EPPR1   BUFFER,,AUTO
        30 000033   200052 451500                    STP1    OCTNUM+2,,AUTO
        30 000034   200052 630500                    EPPR0   OCTNUM+2,,AUTO
        30 000035   000002 631400 31                 EPPR1   2
        30 000036   000000 701000 xent               TSX1    OUTPUT
        30 000037   000000 011000                    NOP     0

     2590      317    1        CALL CONCAT(BUFFER,'Semantic error: ',MESSAGE);

    317 30 000040   040100 100400                    MLR     fill='040'O
        30 000041   000000 000020 29                 ADSC9   0                        cn=0,n=16
        30 000042   200004 000020                    ADSC9   BUFFER,,AUTO             cn=0,n=16
        30 000043   200003 470500                    LDP0    @MESSAGE,,AUTO
        30 000044   040100 100500                    MLR     fill='040'O
        30 000045   000000 000074                    ADSC9   0,,PR0                   cn=0,n=60
        30 000046   200010 000174                    ADSC9   BUFFER+4,,AUTO           cn=0,n=124

     2591      318             %OUTPUT_STR;

    323 30 000047   000000 236000 0                  LDQ     OUT_DCBN
        30 000050   000060 604000 30                 TMI     s:325
        30 000051   000000 116000 xsym               CMPQ    Z8PS$M$OU#
        30 000052   000060 601000 30                 TNZ     s:325
        30 000053   000000 236000 10                 LDQ     OPTIONS
        30 000054   000002 736000                    QLS     2
        30 000055   400000 376003                    ANQ     -131072,DU
        30 000056   400000 676003                    ERQ     -131072,DU
        30 000057   000072 601000 30                 TNZ     s:329

    325 30 000060   000214 235007                    LDA     140,DL
        30 000061   200047 755100                    STA     LEN,,AUTO

PL6.E3A0      #004=Z8PA$ERROR_PROC File=Z8PA.:Z8A6TSI                            SAT 08/09/97 09:43 Page:402
    326 30 000062   200047 630500                    EPPR0   LEN,,AUTO
        30 000063   200053 450500                    STP0    OCTNUM+3,,AUTO
        30 000064   200004 631500                    EPPR1   BUFFER,,AUTO
        30 000065   200052 451500                    STP1    OCTNUM+2,,AUTO
        30 000066   200052 630500                    EPPR0   OCTNUM+2,,AUTO
        30 000067   000002 631400 31                 EPPR1   2
        30 000070   000000 701000 xent               TSX1    OUTPUT
        30 000071   000000 011000                    NOP     0

     2592      329    1        IF PHASE = %PARSING THEN

    329 30 000072   000000 235000 26                 LDA     PHASE
        30 000073   000001 115007                    CMPA    1,DL
        30 000074   000110 601000 30                 TNZ     s:332

     2593      330    1          CALL CONCAT(BUFFER,SUBSTR(KEY_REC,0,10),'  Semantic error: ',MESSAGE);

    330 30 000075   040100 100400                    MLR     fill='040'O
        30 000076   000000 000012 18                 ADSC9   KEY_REC                  cn=0,n=10
        30 000077   200004 000012                    ADSC9   BUFFER,,AUTO             cn=0,n=10
        30 000100   040100 100400                    MLR     fill='040'O
        30 000101   000004 000022 29                 ADSC9   4                        cn=0,n=18
        30 000102   200006 400022                    ADSC9   BUFFER+2,,AUTO           cn=2,n=18
        30 000103   200003 470500                    LDP0    @MESSAGE,,AUTO
        30 000104   040100 100500                    MLR     fill='040'O
        30 000105   000000 000074                    ADSC9   0,,PR0                   cn=0,n=60
        30 000106   200013 000160                    ADSC9   BUFFER+7,,AUTO           cn=0,n=112
        30 000107   000122 710000 30                 TRA     s:334

     2594      331    1        ELSE
     2595      332    1          CALL CONCAT(BUFFER,'          ','  Semantic error: ',MESSAGE);

    332 30 000110   040100 100400                    MLR     fill='040'O
        30 000111   000011 000012 29                 ADSC9   9                        cn=0,n=10
        30 000112   200004 000012                    ADSC9   BUFFER,,AUTO             cn=0,n=10
        30 000113   040100 100400                    MLR     fill='040'O
        30 000114   000004 000022 29                 ADSC9   4                        cn=0,n=18
PL6.E3A0      #004=Z8PA$ERROR_PROC File=Z8PA.:Z8A6TSI                            SAT 08/09/97 09:43 Page:403
        30 000115   200006 400022                    ADSC9   BUFFER+2,,AUTO           cn=2,n=18
        30 000116   200003 470500                    LDP0    @MESSAGE,,AUTO
        30 000117   040100 100500                    MLR     fill='040'O
        30 000120   000000 000074                    ADSC9   0,,PR0                   cn=0,n=60
        30 000121   200013 000160                    ADSC9   BUFFER+7,,AUTO           cn=0,n=112

     2596      333             %OUTSTR_DO;

    334 30 000122   000000 234000 11                 SZN     DO_REQ
        30 000123   000146 605000 30                 TPL     s:351

    337 30 000124   000000 235000 0                  LDA     OUT_DCBN
        30 000125   000000 755000 2                  STA     SAVE_DCBN2

    340 30 000126   000000 236000 xsym               LDQ     Z8PS$M$DO#
        30 000127   000000 756000 0                  STQ     OUT_DCBN

    342 30 000130   000214 235007                    LDA     140,DL
        30 000131   200047 755100                    STA     LEN,,AUTO

    343 30 000132   200047 630500                    EPPR0   LEN,,AUTO
        30 000133   200053 450500                    STP0    OCTNUM+3,,AUTO
        30 000134   200004 631500                    EPPR1   BUFFER,,AUTO
        30 000135   200052 451500                    STP1    OCTNUM+2,,AUTO
        30 000136   200052 630500                    EPPR0   OCTNUM+2,,AUTO
        30 000137   000002 631400 31                 EPPR1   2
        30 000140   000000 701000 xent               TSX1    OUTPUT
        30 000141   000000 011000                    NOP     0

    344 30 000142   000214 235007                    LDA     140,DL
        30 000143   200047 755100                    STA     LEN,,AUTO

    346 30 000144   000000 236000 2                  LDQ     SAVE_DCBN2
        30 000145   000000 756000 0                  STQ     OUT_DCBN

     2597      350             %RESET_DCB;

PL6.E3A0      #004=Z8PA$ERROR_PROC File=Z8PA.:Z8A6TSI                            SAT 08/09/97 09:43 Page:404
    351 30 000146   000000 235000 1                  LDA     SAVE_OUT_DCBN
        30 000147   000000 755000 0                  STA     OUT_DCBN

     2598      353    1    END Z8PA$ERROR_PROC;

    353 30 000150   000000 702200 xent               TSX2  ! X66_ARET
     2599      354
     2600      355         %EOD;

PL6.E3A0      #004=Z8PA$ERROR_PROC File=Z8PA.:Z8A6TSI                            SAT 08/09/97 09:43 Page:405
--  Include file information  --

   Z9P_IO_EXT.:Z8A6TOU  cannot be made into a system file and is referenced.
   Z8P_SCAN_EXT.:Z8A6TOU  cannot be made into a system file and is referenced.
   Z8P_SEMAN_EX.:Z8A6TOU  cannot be made into a system file and is referenced.
      No diagnostics issued in procedure Z8PA$ERROR_PROC.
PL6.E3A0      #004=Z8PA$ERROR_PROC File=Z8PA.:Z8A6TSI                            SAT 08/09/97 09:43 Page:406

 **** Variables and constants ****

  ****  Section 000 LblCom OUT_DCBN

  ****  Scalars and arrays  ****
OctLoc.c.b A Datatyp(siz) R M Lvl/name                 OctLoc.c.b A Datatyp(siz) R M Lvl/name

     0-0-0/w SBIN        r     1 OUT_DCBN

  ****  Section 001 LblCom SAVE_OUT_DCBN

  ****  Scalars and arrays  ****
OctLoc.c.b A Datatyp(siz) R M Lvl/name                 OctLoc.c.b A Datatyp(siz) R M Lvl/name

     0-0-0/w SBIN        r     1 SAVE_OUT_DCBN

  ****  Section 002 LblCom SAVE_DCBN2

  ****  Scalars and arrays  ****
OctLoc.c.b A Datatyp(siz) R M Lvl/name                 OctLoc.c.b A Datatyp(siz) R M Lvl/name

     0-0-0/w SBIN        r     1 SAVE_DCBN2

  ****  Section 009 LblCom ERR_SEV

  ****  Scalars and arrays  ****
OctLoc.c.b A Datatyp(siz) R M Lvl/name                 OctLoc.c.b A Datatyp(siz) R M Lvl/name

     0-0-0/w SBIN              1 ERR_SEV

  ****  Section 010 LblCom OPTIONS

  ****  Scalars and arrays  ****
OctLoc.c.b A Datatyp(siz) R M Lvl/name                 OctLoc.c.b A Datatyp(siz) R M Lvl/name

     0-0-0/b BIT         r     1 OPTIONS(0:25)

PL6.E3A0      #004=Z8PA$ERROR_PROC File=Z8PA.:Z8A6TSI                            SAT 08/09/97 09:43 Page:407
  ****  Section 011 LblCom DO_REQ

  ****  Scalars and arrays  ****
OctLoc.c.b A Datatyp(siz) R M Lvl/name                 OctLoc.c.b A Datatyp(siz) R M Lvl/name

     0-0-0/b BIT         r     1 DO_REQ

  ****  Section 012 LblCom OPTIONS_TEXT

  ****  Scalars and arrays  ****
OctLoc.c.b A Datatyp(siz) R M Lvl/name                 OctLoc.c.b A Datatyp(siz) R M Lvl/name

     0-0-0/c CHAR(4)           1 OPTIONS_TEXT(0:25)

  ****  Section 013 LblCom INSTR

  ****  Scalars and arrays  ****
OctLoc.c.b A Datatyp(siz) R M Lvl/name                 OctLoc.c.b A Datatyp(siz) R M Lvl/name

     0-0-0/c CHAR              1 INSTR(0:511)               0-0-0/c CHAR(512)         1 INSTRCHR

  ****  Section 014 LblCom INSTR_LISTED

  ****  Scalars and arrays  ****
OctLoc.c.b A Datatyp(siz) R M Lvl/name                 OctLoc.c.b A Datatyp(siz) R M Lvl/name

     0-0-0/b BIT               1 INSTR_LISTED

  ****  Section 015 LblCom INSTR_LEN

  ****  Scalars and arrays  ****
OctLoc.c.b A Datatyp(siz) R M Lvl/name                 OctLoc.c.b A Datatyp(siz) R M Lvl/name

     0-0-0/w SBIN              1 INSTR_LEN

  ****  Section 016 LblCom INSTR_INDX

PL6.E3A0      #004=Z8PA$ERROR_PROC File=Z8PA.:Z8A6TSI                            SAT 08/09/97 09:43 Page:408
  ****  Scalars and arrays  ****
OctLoc.c.b A Datatyp(siz) R M Lvl/name                 OctLoc.c.b A Datatyp(siz) R M Lvl/name

     0-0-0/w SBIN              1 INSTR_INDX

  ****  Section 017 LblCom EOF_FLAG

  ****  Scalars and arrays  ****
OctLoc.c.b A Datatyp(siz) R M Lvl/name                 OctLoc.c.b A Datatyp(siz) R M Lvl/name

     0-0-0/b BIT               1 EOF_FLAG

  ****  Section 018 LblCom KEY_REC

  ****  Scalars and arrays  ****
OctLoc.c.b A Datatyp(siz) R M Lvl/name                 OctLoc.c.b A Datatyp(siz) R M Lvl/name

     0-0-0/c CHAR(20)    r     1 KEY_REC

  ****  Section 019 LblCom LINES_OUT

  ****  Scalars and arrays  ****
OctLoc.c.b A Datatyp(siz) R M Lvl/name                 OctLoc.c.b A Datatyp(siz) R M Lvl/name

     0-0-0/w SBIN              1 LINES_OUT

  ****  Section 020 LblCom HEADER_LINE1

  ****  Scalars and arrays  ****
OctLoc.c.b A Datatyp(siz) R M Lvl/name                 OctLoc.c.b A Datatyp(siz) R M Lvl/name

     0-0-0/c CHAR(100)         1 HEADER_LINE1

  ****  Section 021 LblCom HEADER_LINE3

  ****  Scalars and arrays  ****
OctLoc.c.b A Datatyp(siz) R M Lvl/name                 OctLoc.c.b A Datatyp(siz) R M Lvl/name
PL6.E3A0      #004=Z8PA$ERROR_PROC File=Z8PA.:Z8A6TSI                            SAT 08/09/97 09:43 Page:409

     0-0-0/c CHAR(100)         1 HEADER_LINE3

  ****  Section 022 LblCom HEADER_LINE2

  ****  Scalars and arrays  ****
OctLoc.c.b A Datatyp(siz) R M Lvl/name                 OctLoc.c.b A Datatyp(siz) R M Lvl/name

     0-0-0/c CHAR(100)         1 HEADER_LINE2

  ****  Section 023 LblCom MAX_LINES_PER_PAGE

  ****  Scalars and arrays  ****
OctLoc.c.b A Datatyp(siz) R M Lvl/name                 OctLoc.c.b A Datatyp(siz) R M Lvl/name

     0-0-0/w UBIN              1 MAX_LINES_PER_PAGE

  ****  Section 024 LblCom LINE

  ****  Scalars and arrays  ****
OctLoc.c.b A Datatyp(siz) R M Lvl/name                 OctLoc.c.b A Datatyp(siz) R M Lvl/name

     0-0-0/c CHAR(109)         1 LINE

  ****  Section 025 LblCom LINELEN

  ****  Scalars and arrays  ****
OctLoc.c.b A Datatyp(siz) R M Lvl/name                 OctLoc.c.b A Datatyp(siz) R M Lvl/name

     0-0-0/w SBIN              1 LINELEN

  ****  Section 026 LblCom PHASE

  ****  Scalars and arrays  ****
OctLoc.c.b A Datatyp(siz) R M Lvl/name                 OctLoc.c.b A Datatyp(siz) R M Lvl/name

     0-0-0/w SBIN        r     1 PHASE
PL6.E3A0      #004=Z8PA$ERROR_PROC File=Z8PA.:Z8A6TSI                            SAT 08/09/97 09:43 Page:410

  ****  Section 027 LblCom ERROR_COUNT

  ****  Scalars and arrays  ****
OctLoc.c.b A Datatyp(siz) R M Lvl/name                 OctLoc.c.b A Datatyp(siz) R M Lvl/name

     0-0-0/w SBIN        r     1 ERROR_COUNT

  ****  Section 028 LblCom CURRENT_OT_POS

  ****  Scalars and arrays  ****
OctLoc.c.b A Datatyp(siz) R M Lvl/name                 OctLoc.c.b A Datatyp(siz) R M Lvl/name

     0-0-0/w UBIN              1 CURRENT_OT_POS

  ****  Auto variables  ****

  ****  Scalars and arrays  ****
OctLoc.c.b A Datatyp(siz) R M Lvl/name                 OctLoc.c.b A Datatyp(siz) R M Lvl/name

     3-0-0/w PTR         r     1 @MESSAGE                   4-0-0/c CHAR(140)   r     1 BUFFER
    47-0-0/w UBIN        r     1 LEN                       *0-0-0/c CHAR(60)    r     1 MESSAGE
    50-0-0/c CHAR(6)           1 OCTNUM

  ****  SYMREF variables  ****

  ****  Scalars and arrays  ****
OctLoc.c.b A Datatyp(siz) R M Lvl/name                 OctLoc.c.b A Datatyp(siz) R M Lvl/name

     0-0-0/w UBIN        r     1 Z8PS$M$DO#                 0-0-0/w PTR               1 Z8PS$M$DO$
     0-0-0/w UBIN        r     1 Z8PS$M$LO#                 0-0-0/w PTR               1 Z8PS$M$LO$
     0-0-0/w UBIN        r     1 Z8PS$M$OU#                 0-0-0/w PTR               1 Z8PS$M$OU$
     0-0-0/w UBIN              1 Z8PS$M$SO#                 0-0-0/w PTR               1 Z8PS$M$SO$

  ****  BASED and DCB variables  ****

  ****  Scalars and arrays  ****
PL6.E3A0      #004=Z8PA$ERROR_PROC File=Z8PA.:Z8A6TSI                            SAT 08/09/97 09:43 Page:411
OctLoc.c.b A Datatyp(siz) R M Lvl/name                 OctLoc.c.b A Datatyp(siz) R M Lvl/name

     0-0-0/w STRC(504)         1 LABEL_TABLE                0-0-0N  NULL        r     1 M$DO
     0-0-0N  NULL        r     1 M$LO                       0-0-0N  NULL        r     1 M$OU
     0-0-0N  NULL        r     1 M$SI                       0-0-0N  NULL        r     1 M$SO
     0-0-0N  NULL        r     1 M$UI                       0-0-0/w STRC(144)         1 REF_LIST


   Procedure Z8PA$ERROR_PROC requires 105 words for executable code.
   Procedure Z8PA$ERROR_PROC requires 44 words of local(AUTO) storage.

PL6.E3A0      #005=Z8PA$WRAPUP File=Z8PA.:Z8A6TSI                                SAT 08/09/97 09:43 Page:412
     2601        1        /*T***********************************************************/
     2602        2        /*T*                                                         */
     2603        3        /*T* Copyright (c) Bull HN Information Systems Inc., 1997    */
     2604        4        /*T*                                                         */
     2605        5        /*T***********************************************************/
     2606        6         Z8PA$WRAPUP : PROC;
     2607        7         /*D*
     2608        8              NAME: Z8PA$WRAPUP
     2609        9              CALL:
     2610       10                   CALL Z8PA$WRAPUP;
     2611       11              DESCRIPTION:
     2612       12                   The main purpose of this routine is to output a statement of
     2613       13                   how many errors were found in the source program.  This statement
     2614       14                   is output to M$LO  and M$ME;
     2615       15         */
     2616       16
     2617       17             %INCLUDE Z8A_SYS_FILE;
     2618     6292             %INCLUDE Z8P_SCAN_EXT;
     2619     6481             %INCLUDE Z8P_SEMAN_EX;
     2620     6550             %DCBPTR;
     2621     6560
     2622     6561    1        DCL CHAR_NUM CHAR(4);
     2623     6562
     2624     6563             %IF GCOS;
     2625     6564 C           %FPT_CLOSE(FPTN=CLOSE_OU,DCB=%M$OU);
     2626     6565 C           %FPT_CLOSE(FPTN=CLOSE_SO,DCB=%M$SO);
     2627     6566 C
     2628     6567 C           CALL M$CLOSE(CLOSE_OU)
     2629     6568 C             WHENALTRETURN DO;
     2630     6569 C               BUFFER = 'Cannot close *S';
     2631     6570 C               %OUTPUT_STR;
     2632     6571 C               %OUTSTR_DO;
     2633     6572 C             END;
     2634     6573 C           CALL M$CLOSE(CLOSE_SO)
     2635     6574 C             WHENALTRETURN DO;
     2636     6575 C               BUFFER = 'Cannot close K*';
     2637     6576 C               %OUTPUT_STR;
PL6.E3A0      #005=Z8PA$WRAPUP File=Z8PA.:Z8A6TSI                                SAT 08/09/97 09:43 Page:413
     2638     6577 C               %OUTSTR_DO;
     2639     6578 C             END;
     2640     6579             %ENDIF;
     2641     6580
     2642     6581             %SELECT_LO;
     2643     6584
     2644     6585    1        BUFFER = ' ';
     2645     6586
     2646     6587             %OUTPUT_STR;
     2647     6598
     2648     6599             %OUTSTR_DO;
     2649     6616
     2650     6617    1        IF ERROR_COUNT = 0 THEN
     2651     6618    1          BUFFER = 'No errors were found.';
     2652     6619    1        ELSE
     2653     6620    1          IF ERROR_COUNT = 1 THEN
     2654     6621    1            BUFFER = 'One error was found.';
     2655     6622    1          ELSE
     2656     6623    2            DO;
     2657     6624    2              CALL BINCHAR(CHAR_NUM,ERROR_COUNT);
     2658     6625    2              CALL BLANK_ZERO(ADDR(CHAR_NUM),4);
     2659     6626    2              CALL CONCAT(BUFFER,'There were ',CHAR_NUM,' errors found.');
     2660     6627    2            END;
     2661     6628
     2662     6629
     2663     6630             %OUTPUT_STR;
     2664     6641             %OUTSTR_DO;
     2665     6658
     2666     6659    1    END Z8PA$WRAPUP;

PL6.E3A0      #005=Z8PA$WRAPUP File=Z8PA.:Z8A6TSI                                SAT 08/09/97 09:43 Page:414
--  Include file information  --

   Z8P_SEMAN_EX.:Z8A6TOU  cannot be made into a system file and is referenced.
   Z9P_IO_EXT.:Z8A6TOU  cannot be made into a system file and is referenced.
   Z8P_SCAN_EXT.:Z8A6TOU  cannot be made into a system file and is referenced.
   CP_6_SUBS.:LIB_E04  is referenced.
   CP_6_C.:LIB_E04  is referenced.
   CP_6.:LIB_E04  cannot be made into a system file and is referenced.
   Z9A_FLAGS.:Z8A6TOU  is referenced.
   Z8A_SYS_FILE.:Z8A6TOU  is referenced.
      No diagnostics issued in procedure Z8PA$WRAPUP.

   Procedure Z8PA$WRAPUP requires 120 words for executable code.
   Procedure Z8PA$WRAPUP requires 44 words of local(AUTO) storage.

    No errors detected in file Z8PA.:Z8A6TSI    .

PL6.E3A0      #005=Z8PA$WRAPUP File=Z8PA.:Z8A6TSI                                SAT 08/09/97 09:43 Page:415

 Object Unit name= Z8PA$WRAPUP                                File name= Z8PA.:Z8A6TOU
 UTS= AUG 09 '97 09:43:20.00 SAT                              Compiler= PL-6/E31         Sev=      00
 SharedLib= :SHARED_SYSTEM                                    Alt SharedLib=


    ****  Control sections  ****

 Sect   Type Bound  Init  Size OctSiz  Section name(segment info)
    0   DCB   even  none     0      0  M$UC
    1  LblCom even  none     1      1  OUT_DCBN
    2  LblCom even  none     1      1  SAVE_OUT_DCBN
    3  LblCom even  none     1      1  SAVE_DCBN2
    4   DCB   even  none     0      0  M$OU
    5   DCB   even  none     0      0  M$SO
    6   DCB   even  none     0      0  M$LO
    7   DCB   even  none     0      0  M$SI
    8   DCB   even  none     0      0  M$UI
    9   DCB   even  none     0      0  M$DO
   10  LblCom even  none     1      1  ERR_SEV
   11  LblCom even  none     1      1  OPTIONS
   12  LblCom even  none     1      1  DO_REQ
   13  LblCom even  none    26     32  OPTIONS_TEXT
   14  LblCom even  none   128    200  INSTR
   15  LblCom even  none     1      1  INSTR_LISTED
   16  LblCom even  none     1      1  INSTR_LEN
   17  LblCom even  none     1      1  INSTR_INDX
   18  LblCom even  none     1      1  EOF_FLAG
   19  LblCom even  none     5      5  KEY_REC
   20  LblCom even  none     1      1  LINES_OUT
   21  LblCom even  none    25     31  HEADER_LINE1
   22  LblCom even  none    25     31  HEADER_LINE3
   23  LblCom even  none    25     31  HEADER_LINE2
   24  LblCom even  none     1      1  MAX_LINES_PER_PAGE
   25  LblCom even  none    28     34  LINE
   26  LblCom even  none     1      1  LINELEN
   27  LblCom even  none     1      1  PHASE
   28  LblCom even  none     1      1  ERROR_COUNT
PL6.E3A0      #005=Z8PA$WRAPUP File=Z8PA.:Z8A6TSI                                SAT 08/09/97 09:43 Page:416
   29  RoData even  UTS     18     22  Z8PA$WRAPUP
   30   Proc  even  none   120    170  Z8PA$WRAPUP
   31  RoData even  none     4      4  Z8PA$WRAPUP

    ****  Entry defs  ****

                              Check   Calling
                             calling  sequence
  Sect OctLoc Primary Altret sequence   type   Parms  Name
    30      0   yes            yes      Std        0  Z8PA$WRAPUP

  ****  Entry refs  ****

         Check        Calling
        calling       sequence
Altret sequence SRef   type   Args  Name
         yes           Std       2 OUTPUT
         yes           Std       2 BLANK_ZERO
                       nStd      0 X66_AUTO_0
                       nStd      0 X66_ARET

  ****  Data refs  ****

  Flags:  r = read only, s = secondary
Flgs Name                             Flgs Name                             Flgs Name
     M$UC                                  M$OU                                  M$SO
     M$LO                                  M$SI                                  M$UI
     M$DO                                  Z8PS$M$OU$                            Z8PS$M$LO$
     Z8PS$M$DO$                            Z8PS$M$SO$                            Z8PS$M$OU#
     Z8PS$M$LO#                            Z8PS$M$DO#                            Z8PS$M$SO#

  ****  Segment refs  ****

  Flags:  r = read only, s = secondary
Flgs Name                             Flgs Name                             Flgs Name
     ISSID
PL6.E3A0      #005=Z8PA$WRAPUP File=Z8PA.:Z8A6TSI                                SAT 08/09/97 09:43 Page:417


     2601        1        /*T***********************************************************/
     2602        2        /*T*                                                         */
     2603        3        /*T* Copyright (c) Bull HN Information Systems Inc., 1997    */
     2604        4        /*T*                                                         */
     2605        5        /*T***********************************************************/
     2606        6         Z8PA$WRAPUP : PROC;

      6 30 000000   000000 700200 xent  Z8PA$WRAPUP  TSX0  ! X66_AUTO_0
        30 000001   000054 000000                    ZERO    44,0

     2607        7         /*D*
     2608        8              NAME: Z8PA$WRAPUP
     2609        9              CALL:
     2610       10                   CALL Z8PA$WRAPUP;
     2611       11              DESCRIPTION:
     2612       12                   The main purpose of this routine is to output a statement of
     2613       13                   how many errors were found in the source program.  This statement
     2614       14                   is output to M$LO  and M$ME;
     2615       15         */
     2616       16
     2617       17             %INCLUDE Z8A_SYS_FILE;
     2618     6292             %INCLUDE Z8P_SCAN_EXT;
     2619     6481             %INCLUDE Z8P_SEMAN_EX;
     2620     6550             %DCBPTR;
     2621     6560
     2622     6561    1        DCL CHAR_NUM CHAR(4);
     2623     6562
     2624     6563             %IF GCOS;
     2625     6564 C           %FPT_CLOSE(FPTN=CLOSE_OU,DCB=%M$OU);
     2626     6565 C           %FPT_CLOSE(FPTN=CLOSE_SO,DCB=%M$SO);
     2627     6566 C
     2628     6567 C           CALL M$CLOSE(CLOSE_OU)
     2629     6568 C             WHENALTRETURN DO;
     2630     6569 C               BUFFER = 'Cannot close *S';
     2631     6570 C               %OUTPUT_STR;
     2632     6571 C               %OUTSTR_DO;
PL6.E3A0      #005=Z8PA$WRAPUP File=Z8PA.:Z8A6TSI                                SAT 08/09/97 09:43 Page:418
     2633     6572 C             END;
     2634     6573 C           CALL M$CLOSE(CLOSE_SO)
     2635     6574 C             WHENALTRETURN DO;
     2636     6575 C               BUFFER = 'Cannot close K*';
     2637     6576 C               %OUTPUT_STR;
     2638     6577 C               %OUTSTR_DO;
     2639     6578 C             END;
     2640     6579             %ENDIF;
     2641     6580
     2642     6581             %SELECT_LO;

   6582 30 000002   000000 235000 xsym               LDA     Z8PS$M$LO#
        30 000003   000000 755000 1                  STA     OUT_DCBN

     2643     6584
     2644     6585    1        BUFFER = ' ';

   6585 30 000004   040100 100400                    MLR     fill='040'O
        30 000005   000000 000001 31                 ADSC9   0                        cn=0,n=1
        30 000006   200003 000214                    ADSC9   BUFFER,,AUTO             cn=0,n=140

     2645     6586
     2646     6587             %OUTPUT_STR;

   6592 30 000007   000000 236000 1                  LDQ     OUT_DCBN
        30 000010   000020 604000 30                 TMI     s:6594
        30 000011   000000 116000 xsym               CMPQ    Z8PS$M$OU#
        30 000012   000020 601000 30                 TNZ     s:6594
        30 000013   000000 236000 11                 LDQ     OPTIONS
        30 000014   000002 736000                    QLS     2
        30 000015   400000 376003                    ANQ     -131072,DU
        30 000016   400000 676003                    ERQ     -131072,DU
        30 000017   000032 601000 30                 TNZ     s:6600

   6594 30 000020   000214 236007                    LDQ     140,DL
        30 000021   200046 756100                    STQ     LEN,,AUTO

PL6.E3A0      #005=Z8PA$WRAPUP File=Z8PA.:Z8A6TSI                                SAT 08/09/97 09:43 Page:419
   6595 30 000022   200046 630500                    EPPR0   LEN,,AUTO
        30 000023   200051 450500                    STP0    CHAR_NUM+2,,AUTO
        30 000024   200003 631500                    EPPR1   BUFFER,,AUTO
        30 000025   200050 451500                    STP1    CHAR_NUM+1,,AUTO
        30 000026   200050 630500                    EPPR0   CHAR_NUM+1,,AUTO
        30 000027   000001 631400 31                 EPPR1   1
        30 000030   000000 701000 xent               TSX1    OUTPUT
        30 000031   000000 011000                    NOP     0

     2647     6598
     2648     6599             %OUTSTR_DO;

   6600 30 000032   000000 234000 12                 SZN     DO_REQ
        30 000033   000056 605000 30                 TPL     s:6617

   6603 30 000034   000000 235000 1                  LDA     OUT_DCBN
        30 000035   000000 755000 3                  STA     SAVE_DCBN2

   6606 30 000036   000000 236000 xsym               LDQ     Z8PS$M$DO#
        30 000037   000000 756000 1                  STQ     OUT_DCBN

   6608 30 000040   000214 235007                    LDA     140,DL
        30 000041   200046 755100                    STA     LEN,,AUTO

   6609 30 000042   200046 630500                    EPPR0   LEN,,AUTO
        30 000043   200051 450500                    STP0    CHAR_NUM+2,,AUTO
        30 000044   200003 631500                    EPPR1   BUFFER,,AUTO
        30 000045   200050 451500                    STP1    CHAR_NUM+1,,AUTO
        30 000046   200050 630500                    EPPR0   CHAR_NUM+1,,AUTO
        30 000047   000001 631400 31                 EPPR1   1
        30 000050   000000 701000 xent               TSX1    OUTPUT
        30 000051   000000 011000                    NOP     0

   6610 30 000052   000214 235007                    LDA     140,DL
        30 000053   200046 755100                    STA     LEN,,AUTO

   6612 30 000054   000000 236000 3                  LDQ     SAVE_DCBN2
PL6.E3A0      #005=Z8PA$WRAPUP File=Z8PA.:Z8A6TSI                                SAT 08/09/97 09:43 Page:420
        30 000055   000000 756000 1                  STQ     OUT_DCBN

     2649     6616
     2650     6617    1        IF ERROR_COUNT = 0 THEN

   6617 30 000056   000000 235000 28                 LDA     ERROR_COUNT
        30 000057   000064 601000 30                 TNZ     s:6620

     2651     6618    1          BUFFER = 'No errors were found.';

   6618 30 000060   040100 100400                    MLR     fill='040'O
        30 000061   000000 000025 29                 ADSC9   0                        cn=0,n=21
        30 000062   200003 000214                    ADSC9   BUFFER,,AUTO             cn=0,n=140
        30 000063   000120 710000 30                 TRA     s:6635

     2652     6619    1        ELSE
     2653     6620    1          IF ERROR_COUNT = 1 THEN

   6620 30 000064   000001 115007                    CMPA    1,DL
        30 000065   000072 601000 30                 TNZ     s:6624

     2654     6621    1            BUFFER = 'One error was found.';

   6621 30 000066   040100 100400                    MLR     fill='040'O
        30 000067   000006 000024 29                 ADSC9   6                        cn=0,n=20
        30 000070   200003 000214                    ADSC9   BUFFER,,AUTO             cn=0,n=140
        30 000071   000120 710000 30                 TRA     s:6635

     2655     6622    1          ELSE
     2656     6623    2            DO;

     2657     6624    2              CALL BINCHAR(CHAR_NUM,ERROR_COUNT);

   6624 30 000072   000100 301400                    BTD
        30 000073   000000 000004 28                 NDSC9   ERROR_COUNT              cn=0,s=lsgnf,sf=0,n=4
        30 000074   200047 030004                    NDSC9   CHAR_NUM,,AUTO           cn=0,s=nosgn,sf=0,n=4

PL6.E3A0      #005=Z8PA$WRAPUP File=Z8PA.:Z8A6TSI                                SAT 08/09/97 09:43 Page:421
     2658     6625    2              CALL BLANK_ZERO(ADDR(CHAR_NUM),4);

   6625 30 000075   200047 630500                    EPPR0   CHAR_NUM,,AUTO
        30 000076   200050 450500                    STP0    CHAR_NUM+1,,AUTO
        30 000077   000003 236000 31                 LDQ     3
        30 000100   200053 756100                    STQ     CHAR_NUM+4,,AUTO
        30 000101   200050 631500                    EPPR1   CHAR_NUM+1,,AUTO
        30 000102   200052 451500                    STP1    CHAR_NUM+3,,AUTO
        30 000103   200052 630500                    EPPR0   CHAR_NUM+3,,AUTO
        30 000104   000001 631400 31                 EPPR1   1
        30 000105   000000 701000 xent               TSX1    BLANK_ZERO
        30 000106   000000 011000                    NOP     0

     2659     6626    2              CALL CONCAT(BUFFER,'There were ',CHAR_NUM,' errors found.');

   6626 30 000107   040100 100400                    MLR     fill='040'O
        30 000110   000013 000013 29                 ADSC9   11                       cn=0,n=11
        30 000111   200003 000013                    ADSC9   BUFFER,,AUTO             cn=0,n=11
        30 000112   040100 100500                    MLR     fill='040'O
        30 000113   200047 000004                    ADSC9   CHAR_NUM,,AUTO           cn=0,n=4
        30 000114   200005 600004                    ADSC9   BUFFER+2,,AUTO           cn=3,n=4
        30 000115   040100 100400                    MLR     fill='040'O
        30 000116   000016 000016 29                 ADSC9   14                       cn=0,n=14
        30 000117   200006 600175                    ADSC9   BUFFER+3,,AUTO           cn=3,n=125

     2660     6627    2            END;

     2661     6628
     2662     6629
     2663     6630             %OUTPUT_STR;

   6635 30 000120   000000 236000 1                  LDQ     OUT_DCBN
        30 000121   000131 604000 30                 TMI     s:6637
        30 000122   000000 116000 xsym               CMPQ    Z8PS$M$OU#
        30 000123   000131 601000 30                 TNZ     s:6637
        30 000124   000000 236000 11                 LDQ     OPTIONS
        30 000125   000002 736000                    QLS     2
PL6.E3A0      #005=Z8PA$WRAPUP File=Z8PA.:Z8A6TSI                                SAT 08/09/97 09:43 Page:422
        30 000126   400000 376003                    ANQ     -131072,DU
        30 000127   400000 676003                    ERQ     -131072,DU
        30 000130   000143 601000 30                 TNZ     s:6642

   6637 30 000131   000214 235007                    LDA     140,DL
        30 000132   200046 755100                    STA     LEN,,AUTO

   6638 30 000133   200046 630500                    EPPR0   LEN,,AUTO
        30 000134   200051 450500                    STP0    CHAR_NUM+2,,AUTO
        30 000135   200003 631500                    EPPR1   BUFFER,,AUTO
        30 000136   200050 451500                    STP1    CHAR_NUM+1,,AUTO
        30 000137   200050 630500                    EPPR0   CHAR_NUM+1,,AUTO
        30 000140   000001 631400 31                 EPPR1   1
        30 000141   000000 701000 xent               TSX1    OUTPUT
        30 000142   000000 011000                    NOP     0

     2664     6641             %OUTSTR_DO;

   6642 30 000143   000000 234000 12                 SZN     DO_REQ
        30 000144   000167 605000 30                 TPL     s:6659

   6645 30 000145   000000 235000 1                  LDA     OUT_DCBN
        30 000146   000000 755000 3                  STA     SAVE_DCBN2

   6648 30 000147   000000 236000 xsym               LDQ     Z8PS$M$DO#
        30 000150   000000 756000 1                  STQ     OUT_DCBN

   6650 30 000151   000214 235007                    LDA     140,DL
        30 000152   200046 755100                    STA     LEN,,AUTO

   6651 30 000153   200046 630500                    EPPR0   LEN,,AUTO
        30 000154   200051 450500                    STP0    CHAR_NUM+2,,AUTO
        30 000155   200003 631500                    EPPR1   BUFFER,,AUTO
        30 000156   200050 451500                    STP1    CHAR_NUM+1,,AUTO
        30 000157   200050 630500                    EPPR0   CHAR_NUM+1,,AUTO
        30 000160   000001 631400 31                 EPPR1   1
        30 000161   000000 701000 xent               TSX1    OUTPUT
PL6.E3A0      #005=Z8PA$WRAPUP File=Z8PA.:Z8A6TSI                                SAT 08/09/97 09:43 Page:423
        30 000162   000000 011000                    NOP     0

   6652 30 000163   000214 235007                    LDA     140,DL
        30 000164   200046 755100                    STA     LEN,,AUTO

   6654 30 000165   000000 236000 3                  LDQ     SAVE_DCBN2
        30 000166   000000 756000 1                  STQ     OUT_DCBN

     2665     6658
     2666     6659    1    END Z8PA$WRAPUP;

   6659 30 000167   000000 702200 xent               TSX2  ! X66_ARET

PL6.E3A0      #005=Z8PA$WRAPUP File=Z8PA.:Z8A6TSI                                SAT 08/09/97 09:43 Page:424
--  Include file information  --

   Z8P_SEMAN_EX.:Z8A6TOU  cannot be made into a system file and is referenced.
   Z9P_IO_EXT.:Z8A6TOU  cannot be made into a system file and is referenced.
   Z8P_SCAN_EXT.:Z8A6TOU  cannot be made into a system file and is referenced.
   CP_6_SUBS.:LIB_E04  is referenced.
   CP_6_C.:LIB_E04  is referenced.
   CP_6.:LIB_E04  cannot be made into a system file and is referenced.
   Z9A_FLAGS.:Z8A6TOU  is referenced.
   Z8A_SYS_FILE.:Z8A6TOU  is referenced.
      No diagnostics issued in procedure Z8PA$WRAPUP.
PL6.E3A0      #005=Z8PA$WRAPUP File=Z8PA.:Z8A6TSI                                SAT 08/09/97 09:43 Page:425

 **** Variables and constants ****

  ****  Section 001 LblCom OUT_DCBN

  ****  Scalars and arrays  ****
OctLoc.c.b A Datatyp(siz) R M Lvl/name                 OctLoc.c.b A Datatyp(siz) R M Lvl/name

     0-0-0/w SBIN        r     1 OUT_DCBN

  ****  Section 002 LblCom SAVE_OUT_DCBN

  ****  Scalars and arrays  ****
OctLoc.c.b A Datatyp(siz) R M Lvl/name                 OctLoc.c.b A Datatyp(siz) R M Lvl/name

     0-0-0/w SBIN              1 SAVE_OUT_DCBN

  ****  Section 003 LblCom SAVE_DCBN2

  ****  Scalars and arrays  ****
OctLoc.c.b A Datatyp(siz) R M Lvl/name                 OctLoc.c.b A Datatyp(siz) R M Lvl/name

     0-0-0/w SBIN        r     1 SAVE_DCBN2

  ****  Section 010 LblCom ERR_SEV

  ****  Scalars and arrays  ****
OctLoc.c.b A Datatyp(siz) R M Lvl/name                 OctLoc.c.b A Datatyp(siz) R M Lvl/name

     0-0-0/w SBIN              1 ERR_SEV

  ****  Section 011 LblCom OPTIONS

  ****  Scalars and arrays  ****
OctLoc.c.b A Datatyp(siz) R M Lvl/name                 OctLoc.c.b A Datatyp(siz) R M Lvl/name

     0-0-0/b BIT         r     1 OPTIONS(0:25)

PL6.E3A0      #005=Z8PA$WRAPUP File=Z8PA.:Z8A6TSI                                SAT 08/09/97 09:43 Page:426
  ****  Section 012 LblCom DO_REQ

  ****  Scalars and arrays  ****
OctLoc.c.b A Datatyp(siz) R M Lvl/name                 OctLoc.c.b A Datatyp(siz) R M Lvl/name

     0-0-0/b BIT         r     1 DO_REQ

  ****  Section 013 LblCom OPTIONS_TEXT

  ****  Scalars and arrays  ****
OctLoc.c.b A Datatyp(siz) R M Lvl/name                 OctLoc.c.b A Datatyp(siz) R M Lvl/name

     0-0-0/c CHAR(4)           1 OPTIONS_TEXT(0:25)

  ****  Section 014 LblCom INSTR

  ****  Scalars and arrays  ****
OctLoc.c.b A Datatyp(siz) R M Lvl/name                 OctLoc.c.b A Datatyp(siz) R M Lvl/name

     0-0-0/c CHAR              1 INSTR(0:511)               0-0-0/c CHAR(512)         1 INSTRCHR

  ****  Section 015 LblCom INSTR_LISTED

  ****  Scalars and arrays  ****
OctLoc.c.b A Datatyp(siz) R M Lvl/name                 OctLoc.c.b A Datatyp(siz) R M Lvl/name

     0-0-0/b BIT               1 INSTR_LISTED

  ****  Section 016 LblCom INSTR_LEN

  ****  Scalars and arrays  ****
OctLoc.c.b A Datatyp(siz) R M Lvl/name                 OctLoc.c.b A Datatyp(siz) R M Lvl/name

     0-0-0/w SBIN              1 INSTR_LEN

  ****  Section 017 LblCom INSTR_INDX

PL6.E3A0      #005=Z8PA$WRAPUP File=Z8PA.:Z8A6TSI                                SAT 08/09/97 09:43 Page:427
  ****  Scalars and arrays  ****
OctLoc.c.b A Datatyp(siz) R M Lvl/name                 OctLoc.c.b A Datatyp(siz) R M Lvl/name

     0-0-0/w SBIN              1 INSTR_INDX

  ****  Section 018 LblCom EOF_FLAG

  ****  Scalars and arrays  ****
OctLoc.c.b A Datatyp(siz) R M Lvl/name                 OctLoc.c.b A Datatyp(siz) R M Lvl/name

     0-0-0/b BIT               1 EOF_FLAG

  ****  Section 019 LblCom KEY_REC

  ****  Scalars and arrays  ****
OctLoc.c.b A Datatyp(siz) R M Lvl/name                 OctLoc.c.b A Datatyp(siz) R M Lvl/name

     0-0-0/c CHAR(20)          1 KEY_REC

  ****  Section 020 LblCom LINES_OUT

  ****  Scalars and arrays  ****
OctLoc.c.b A Datatyp(siz) R M Lvl/name                 OctLoc.c.b A Datatyp(siz) R M Lvl/name

     0-0-0/w SBIN              1 LINES_OUT

  ****  Section 021 LblCom HEADER_LINE1

  ****  Scalars and arrays  ****
OctLoc.c.b A Datatyp(siz) R M Lvl/name                 OctLoc.c.b A Datatyp(siz) R M Lvl/name

     0-0-0/c CHAR(100)         1 HEADER_LINE1

  ****  Section 022 LblCom HEADER_LINE3

  ****  Scalars and arrays  ****
OctLoc.c.b A Datatyp(siz) R M Lvl/name                 OctLoc.c.b A Datatyp(siz) R M Lvl/name
PL6.E3A0      #005=Z8PA$WRAPUP File=Z8PA.:Z8A6TSI                                SAT 08/09/97 09:43 Page:428

     0-0-0/c CHAR(100)         1 HEADER_LINE3

  ****  Section 023 LblCom HEADER_LINE2

  ****  Scalars and arrays  ****
OctLoc.c.b A Datatyp(siz) R M Lvl/name                 OctLoc.c.b A Datatyp(siz) R M Lvl/name

     0-0-0/c CHAR(100)         1 HEADER_LINE2

  ****  Section 024 LblCom MAX_LINES_PER_PAGE

  ****  Scalars and arrays  ****
OctLoc.c.b A Datatyp(siz) R M Lvl/name                 OctLoc.c.b A Datatyp(siz) R M Lvl/name

     0-0-0/w UBIN              1 MAX_LINES_PER_PAGE

  ****  Section 025 LblCom LINE

  ****  Scalars and arrays  ****
OctLoc.c.b A Datatyp(siz) R M Lvl/name                 OctLoc.c.b A Datatyp(siz) R M Lvl/name

     0-0-0/c CHAR(109)         1 LINE

  ****  Section 026 LblCom LINELEN

  ****  Scalars and arrays  ****
OctLoc.c.b A Datatyp(siz) R M Lvl/name                 OctLoc.c.b A Datatyp(siz) R M Lvl/name

     0-0-0/w SBIN              1 LINELEN

  ****  Section 027 LblCom PHASE

  ****  Scalars and arrays  ****
OctLoc.c.b A Datatyp(siz) R M Lvl/name                 OctLoc.c.b A Datatyp(siz) R M Lvl/name

     0-0-0/w SBIN              1 PHASE
PL6.E3A0      #005=Z8PA$WRAPUP File=Z8PA.:Z8A6TSI                                SAT 08/09/97 09:43 Page:429

  ****  Section 028 LblCom ERROR_COUNT

  ****  Scalars and arrays  ****
OctLoc.c.b A Datatyp(siz) R M Lvl/name                 OctLoc.c.b A Datatyp(siz) R M Lvl/name

     0-0-0/w SBIN        r     1 ERROR_COUNT

  ****  Auto variables  ****

  ****  Scalars and arrays  ****
OctLoc.c.b A Datatyp(siz) R M Lvl/name                 OctLoc.c.b A Datatyp(siz) R M Lvl/name

     3-0-0/c CHAR(140)   r     1 BUFFER                    47-0-0/c CHAR(4)     r     1 CHAR_NUM
    46-0-0/w UBIN        r     1 LEN

  ****  SYMREF variables  ****

  ****  Scalars and arrays  ****
OctLoc.c.b A Datatyp(siz) R M Lvl/name                 OctLoc.c.b A Datatyp(siz) R M Lvl/name

     0-0-0/w UBIN        r     1 Z8PS$M$DO#                 0-0-0/w PTR               1 Z8PS$M$DO$
     0-0-0/w UBIN        r     1 Z8PS$M$LO#                 0-0-0/w PTR               1 Z8PS$M$LO$
     0-0-0/w UBIN        r     1 Z8PS$M$OU#                 0-0-0/w PTR               1 Z8PS$M$OU$
     0-0-0/w UBIN              1 Z8PS$M$SO#                 0-0-0/w PTR               1 Z8PS$M$SO$

  ****  BASED and DCB variables  ****

  ****  Scalars and arrays  ****
OctLoc.c.b A Datatyp(siz) R M Lvl/name                 OctLoc.c.b A Datatyp(siz) R M Lvl/name

     0-0-0/w STRC(504)         1 LABEL_TABLE                0-0-0N  NULL        r     1 M$DO
     0-0-0N  NULL        r     1 M$LO                       0-0-0N  NULL        r     1 M$OU
     0-0-0N  NULL        r     1 M$SI                       0-0-0N  NULL        r     1 M$SO
     0-0-0N  NULL        r     1 M$UC                       0-0-0N  NULL        r     1 M$UI
     0-0-0/w STRC(144)         1 REF_LIST

PL6.E3A0      #005=Z8PA$WRAPUP File=Z8PA.:Z8A6TSI                                SAT 08/09/97 09:43 Page:430

   Procedure Z8PA$WRAPUP requires 120 words for executable code.
   Procedure Z8PA$WRAPUP requires 44 words of local(AUTO) storage.

    No errors detected in file Z8PA.:Z8A6TSI    .
