PL6.E3A0      #001=PARSER File=Z8PP.:Z8A6TSI                                     SAT 08/09/97 09:40 Page:1
        1        1         /*M* PROTOTYPE LR PARSER */
        2        2        /*T***********************************************************/
        3        3        /*T*                                                         */
        4        4        /*T* Copyright (c) Bull HN Information Systems Inc., 1997    */
        5        5        /*T*                                                         */
        6        6        /*T***********************************************************/
        7        7
        8        8
        9        9         /*P*
       10       10              NAME: PARSER
       11       11           PURPOSE: Provide front end parsing for the LALR(1)
       12       12                    input.
       13       13         */
       14       14
       15       15
       16       16
       17       17         PARSER : PROC;
       18       18
       19       19
       20       20         /*D*
       21       21                NAME: PARSER
       22       22         DESCRIPTION: Using LR parse tables generated by the LALR1 parser,
       23       23              parse the language input, execute semantic actions to build appropriate trees,
       24       24                        symbol table, etc of a compiler. necessary for later phases.
       25       25                        For a description of the LR parsing technique, see
       26       26                        Aho & Ullman - Principles of Compiler Design - Section 6.
       27       27                        For a description of the parse tables used, see Section
       28       28                        6.8 and Section 3.8 of that book.
       29       29
       30       30                       This particular implementation uses a token stacking
       31       31                        scheme compatible with the parser implemented by Dave Ward on
       32       32                        Multics, in order to use the same semantic actions with
       33       33                        little change;
       34       34
       35       35                      Using this parser as a model, customization can be done to support
       36       36                        most any type of context for the parser.  Changes may need to be
       37       37                      be made for error messages, abnormal termination, semantic extensions,
PL6.E3A0      #001=PARSER File=Z8PP.:Z8A6TSI                                     SAT 08/09/97 09:40 Page:2
       38       38                         etc.
       39       39         */
       40       40
       41       41
       42       42
       43       43
       44       44         /* Two routines need to be supplied for custom parsers:
       45       45
       46       46              Z8PA$SEMANTICS:
       47       47
       48       48                   The routine to execute a semantic action.  One parameter
       49       49                   is passed -- the semantic action number derived from the
       50       50                   action given in the grammar.  Usually the Z8PA$SEMANTICS  routine is
       51       51                   one large case statement on symbolic action numbers.  All
       52       52                   semantic routines may have access to the lexical token stack and
       53       53                   semantic stack, if required.
       54       54
       55       55              SCANNER:
       56       56
       57       57                   The routine to obtain the next token from the input.
       58       58                   One parameter is passed -- the token structure to be returned.
       59       59
       60       60         */
       61       61
       62       62
       63       63
       64       64
       65       65         /* This file may be used to customize the standard parser
       66       66            provided with the LALR1 parser generator.  Ideally, no
       67       67            modifications need to be made to the parser itself, so that
       68       68            newly released revisions may be installed without modification
       69       69            of the parser body.
       70       70         */
       71       71
       72       72         /* Any declarations to be inserted after the parse tables may be
       73       73            given here.
       74       74         */
PL6.E3A0      #001=PARSER File=Z8PP.:Z8A6TSI                                     SAT 08/09/97 09:40 Page:3
       75       75         %INCLUDE SCDPDA_SUBS;
       76      469         %INCLUDE Z8P_PARS_STK;
       77      512         %INCLUDE Z8P_P_STATE;
       78      575         %INCLUDE Z8A_SYS_FILE;
       79     6850         %INCLUDE Z8P_SCAN_EXT;
       80     7039
       81     7040    1    DCL SCANNER   ENTRY(1);
       82     7041
       83     7042    1    DCL FORCE_LIST ENTRY;
       84     7043    1    DCL FLUSH ENTRY;
       85     7044    1    DCL OUT_STR ENTRY(2);
       86     7045    1    DCL Z8PA$SEMANTICS ENTRY(1);
       87     7046
       88     7047
       89     7048         %EJECT;
PL6.E3A0      #001=PARSER File=Z8PP.:Z8A6TSI                                     SAT 08/09/97 09:40 Page:4
       90     7049         /* The following macros and code may need to be customized
       91     7050            for a specific application.
       92     7051         */
       93     7052
       94     7053         /* Posssible error conditions and messages */
       95     7054
       96     7055         %EQU E$PARSE_STACK_OVERFLOW_ERROR = 0;
       97     7056         %EQU E$SEMANTIC_TOKEN_STACK_OVERFLW = 1;
       98     7057         %EQU E$RED_STACK_OVERFLOW_ERROR = 2;
       99     7058         %EQU E$PARSE_ERROR = 3;
      100     7059         %EQU E$UNEXP_EOF_DURING_RECOVERY = 4;
      101     7060         %EQU E$PARSING_RESUMED = 5;
      102     7061         %EQU E$SYNTAX_INS = 6;
      103     7062         %EQU E$SYNTAX_REP = 7;
      104     7063         %EQU E$SYNTAX_DEL = 8;
      105     7064         %EQU E$CORRECTION_FAILURE = 9;
      106     7065
      107     7066         %MACRO TERMINATE;
      108     7067           /* Insert code for abnormal termination of parser */
      109     7068           CALL M$ERR;
      110     7069         %MEND;
      111     7070
      112     7071
      113     7072         %EQU DI_CHAR_LEN_MAX = 100;  /* Maximum length of an error plug-in */
      114     7073
      115     7074
      116     7075         /* Define the structure of a DNT ENTRY.  This will
      117     7076            contain arbitrary text used in error messages
      118     7077            and other token text manipulations.
      119     7078         */
      120     7079    1    DCL 1 DNT BASED ALIGNED,
      121     7080    1          2 TEXT,
      122     7081    1            3 LENGTH SBIN WORD,
      123     7082    1            3 NAME CHAR(DNT.TEXT.LENGTH);
      124     7083
      125     7084
      126     7085         %MACRO ERRORPROC;
PL6.E3A0      #001=PARSER File=Z8PP.:Z8A6TSI                                     SAT 08/09/97 09:40 Page:5
      127     7086         ERROR : PROC(ERROR_TYPE, PLUG1$, PLUG2$);
      128     7087
      129     7088         %TSTRING_SYMREFS;
      130     7089
      131     7090         DCL ERROR_TYPE SBIN WORD;
      132     7091         DCL PLUG1$ PTR;  /* TO DNT */
      133     7092         DCL PLUG2$ PTR;  /* TO DNT */
      134     7093
      135     7094         DCL DIAG ENTRY(6);
      136     7095         DCL I SBIN;
      137     7096         %SET BLANK70='
              7096         ';
      138     7097         %SET BLANK140=CONCAT(BLANK70,BLANK70);
      139     7098         %VLP_TEXTC(FPTN=TEXTCHAR1,STCLASS=STATIC,TEXT=%BLANK140);
      140     7099         %VLP_TEXTC(FPTN=TEXTCHAR2,STCLASS=STATIC,TEXT=%BLANK140);
      141     7100         %VLP_TEXTC(FPTN=P_OVFL,TEXT=' ERROR =>   Parse stack overflowed');
      142     7101         %VLP_TEXTC(FPTN=SEM_OVFL,TEXT=' ERROR =>   Semantic stack overflowed');
      143     7102         %VLP_TEXTC(FPTN=RED_OVFL,TEXT=' ERROR =>   Reduction stack overflowed');
      144     7103         %VLP_TEXTC(FPTN=SKIP_1,TEXT=' ERROR =>   Syntax error while reading ');
      145     7104         %VLP_TEXTC(FPTN=SKIP_2,TEXT=' - Input is being skipped');
      146     7105         %VLP_TEXTC(FPTN=RECOV_EOF,TEXT=' ERROR =>   Unexpected end of file during recovery'
              7105        );
      147     7106         %VLP_TEXTC(FPTN=RESUME_PARSE,TEXT=' ERROR =>   Parsing has been resumed with ');
      148     7107         %VLP_TEXTC(FPTN=INS_BEF_1,TEXT=' ERROR =>   Syntax error: ');
      149     7108         %VLP_TEXTC(FPTN=INS_BEF_2,TEXT=' has been inserted before ');
      150     7109         %VLP_TEXTC(FPTN=REPL_2,TEXT=' is incorrect and has been replaced by ');
      151     7110         %VLP_TEXTC(FPTN=DEL_2,TEXT=' is incorrect and has been deleted');
      152     7111         %VLP_TEXTC(FPTN=CANT_RECOVER,TEXT=' ERROR =>   The compiler could not recover from
              7111        this error');
      153     7112
      154     7113         /* ERROR LOCATION IS SET WITH THE RESET_ERROR_LOC MACRO BEFORE
      155     7114            THE ERROR PROCEDURE IS CALLED */
      156     7115
      157     7116         CALL FORCE_LIST;
      158     7117         CALL FLUSH;
      159     7118
      160     7119         DO I = 1 TO ERRCOL - 1 + LENGTHC(KEY_REC) ;
PL6.E3A0      #001=PARSER File=Z8PP.:Z8A6TSI                                     SAT 08/09/97 09:40 Page:6
      161     7120           %OUT_STR(S="' '");
      162     7121         END;
      163     7122         %OUT_STR(S="'1'");
      164     7123         CALL FLUSH;
      165     7124
      166     7125         DO CASE(ERROR_TYPE);
      167     7126
      168     7127           CASE(%E$PARSE_STACK_OVERFLOW_ERROR);
      169     7128
      170     7129               /* MSG =>   PARSE STACK OVERFLOWED */
      171     7130               CALL DIAG(15,P_OVFL);
      172     7131
      173     7132           CASE(%E$SEMANTIC_TOKEN_STACK_OVERFLW);
      174     7133
      175     7134               /* MSG =>   SEMANTIC STACK OVERFLOW */
      176     7135               CALL DIAG(15,SEM_OVFL);
      177     7136
      178     7137           CASE(%E$RED_STACK_OVERFLOW_ERROR);
      179     7138
      180     7139               /* MSG =>   REDUCTION STACK OVERFLOW ERROR */
      181     7140               CALL DIAG(15,RED_OVFL);
      182     7141
      183     7142           CASE(%E$PARSE_ERROR);
      184     7143
      185     7144               /* MSG =>   SYNTAX ERROR OCCURRED - INPUT IS BEING SKIPPED */
      186     7145               IF LA_STK.DNTPTR(LA_GET) = ADDR(NIL) THEN DO;
      187     7146                    TEXTCHAR1.L# = TERM_STRING.LEN(LA_STK.SYMBOL(LA_GET));
      188     7147                    TEXTCHAR1.TEXT# =
      189     7148                                   SUBSTR(TSTRING_SPACE,TERM_STRING.INDX
      190     7149                                            (LA_STK.SYMBOL(LA_GET)),
      191     7150                                          TERM_STRING.LEN(LA_STK.SYMBOL(LA_GET)));
      192     7151                                END;
      193     7152                   ELSE DO;
      194     7153                       TEXTCHAR1.L# = LA_STK.DNTPTR(LA_GET) -> DNT.TEXT.LENGTH;
      195     7154                       TEXTCHAR1.TEXT# = LA_STK.DNTPTR(LA_GET) -> DNT.TEXT.NAME;
      196     7155                           END;
      197     7156               CALL DIAG(6,SKIP_1,TEXTCHAR1,SKIP_2);
PL6.E3A0      #001=PARSER File=Z8PP.:Z8A6TSI                                     SAT 08/09/97 09:40 Page:7
      198     7157
      199     7158           CASE(%E$UNEXP_EOF_DURING_RECOVERY);
      200     7159
      201     7160               /* MSG =>   UNEXPECTED END_OF_FILE DURING ERROR_RECOVERY */
      202     7161               CALL DIAG(6,RECOV_EOF);
      203     7162
      204     7163           CASE(%E$PARSING_RESUMED);
      205     7164
      206     7165               /* MSG =>   PARSING HAS BEEN RESUMED AT THIS POINT */
      207     7166               IF LA_STK.DNTPTR(LA_GET) = ADDR(NIL) THEN DO;
      208     7167                    TEXTCHAR1.L# = TERM_STRING.LEN(LA_STK.SYMBOL(LA_GET));
      209     7168                    TEXTCHAR1.TEXT# =
      210     7169                                   SUBSTR(TSTRING_SPACE,TERM_STRING.INDX
      211     7170                                            (LA_STK.SYMBOL(LA_GET)),
      212     7171                                          TERM_STRING.LEN(LA_STK.SYMBOL(LA_GET)));
      213     7172                                END;
      214     7173                   ELSE DO;
      215     7174                        TEXTCHAR1.L# = LA_STK.DNTPTR(LA_GET) -> DNT.TEXT.LENGTH;
      216     7175                        TEXTCHAR1.TEXT# = LA_STK.DNTPTR(LA_GET) -> DNT.TEXT.NAME;
      217     7176                           END;
      218     7177               CALL DIAG(0,RESUME_PARSE,TEXTCHAR1);
      219     7178
      220     7179           CASE(%E$SYNTAX_INS);
      221     7180
      222     7181               /* MSG =>   SYNTAX ERROR: =PLUG1$= HAS BEEN INSERTED BEFORE =PLUG2$= */
      223     7182               TEXTCHAR1.L# = PLUG1$->DNT.TEXT.LENGTH;
      224     7183               TEXTCHAR1.TEXT# = PLUG1$->DNT.TEXT.NAME;
      225     7184               TEXTCHAR2.L# = PLUG2$->DNT.TEXT.LENGTH;
      226     7185               TEXTCHAR2.TEXT# = PLUG2$->DNT.TEXT.NAME;
      227     7186               CALL DIAG(6,INS_BEF_1,TEXTCHAR1,INS_BEF_2,TEXTCHAR2);
      228     7187
      229     7188           CASE(%E$SYNTAX_REP);
      230     7189
      231     7190               /* MSG =>   =PLUG1$= IS INCORRECT AND HAS BEEN REPLACED BY =PLUG2$= */
      232     7191               TEXTCHAR1.L# = PLUG1$->DNT.TEXT.LENGTH;
      233     7192               TEXTCHAR1.TEXT# = PLUG1$->DNT.TEXT.NAME;
      234     7193               TEXTCHAR2.L# = PLUG2$->DNT.TEXT.LENGTH;
PL6.E3A0      #001=PARSER File=Z8PP.:Z8A6TSI                                     SAT 08/09/97 09:40 Page:8
      235     7194               TEXTCHAR2.TEXT# = PLUG2$->DNT.TEXT.NAME;
      236     7195               CALL DIAG(6,INS_BEF_1,TEXTCHAR1,REPL_2,TEXTCHAR2);
      237     7196
      238     7197           CASE(%E$SYNTAX_DEL);
      239     7198
      240     7199               /* MSG =>   =PLUG1$= IS INCORRECT AND HAS BEEN DELETED */
      241     7200               TEXTCHAR1.L# = PLUG1$->DNT.TEXT.LENGTH;
      242     7201               TEXTCHAR1.TEXT# = PLUG1$->DNT.TEXT.NAME;
      243     7202               CALL DIAG(6,INS_BEF_1,TEXTCHAR1,DEL_2);
      244     7203
      245     7204           CASE(%E$CORRECTION_FAILURE);
      246     7205
      247     7206               /* MSG =>   THE COMPILER COULD NOT RECOVER FROM THIS ERROR */
      248     7207               CALL DIAG(15,CANT_RECOVER);
      249     7208
      250     7209         END;  /* CASE */
      251     7210
      252     7211         END ERROR;
      253     7212         %MEND;
      254     7213
      255     7214
      256     7215         %MACRO RESET_ERROR_LOC(L=0,C=0);
      257     7216
      258     7217           /* RESET THE LINE & COLUMN TO THE POINT OF ERROR */
      259     7218           DO;
      260     7219              ERRLINE = L;
      261     7220              ERRCOL  = C;
      262     7221           END;
      263     7222         %MEND;
      264     7223
      265     7224
      266     7225
      267     7226         %IF LOCALLY_LEAST_COST_RECOVERY;
      268     7227         %MACRO CREATE_DUMMY_TOKEN_PROC;
      269     7228         CREATE_DUMMY_TOKEN : PROC(LA_PUT,
      270     7229                                   SYM_TO_BE_INSERTED,
      271     7230                                   LINE_IN_ERROR,
PL6.E3A0      #001=PARSER File=Z8PP.:Z8A6TSI                                     SAT 08/09/97 09:40 Page:9
      272     7231                                   COL_IN_ERROR);
      273     7232
      274     7233         /* CREATE A DUMMY TOKEN FOR ERROR CORRECTION */
      275     7234
      276     7235         %TSTRING_SYMREFS;
      277     7236         DCL LA_PUT SBIN WORD;  /* INDEX INTO LA_STKAT WHICH POINT TO INSERT TOKEN */
      278     7237         DCL SYM_TO_BE_INSERTED SBIN WORD;
      279     7238         DCL LINE_IN_ERROR SBIN WORD;
      280     7239         DCL COL_IN_ERROR SBIN WORD;
      281     7240
      282     7241         DCL SYMLEN SBIN WORD;
      283     7242         DCL NEWLEN SBIN WORD;
      284     7243         DCL TEXTCHAR CHAR(140);
      285     7244         DCL NEW$ PTR;
      286     7245
      287     7246         SYMLEN = TERM_STRING.LEN(SYM_TO_BE_INSERTED);
      288     7247         NEWLEN = (LENGTHC(DNT.TEXT.LENGTH) + SYMLEN + 7) / 4;
      289     7248         CALL GETNEW(NEW$,NEWLEN);
      290     7249         NEW$->DNT.TEXT.LENGTH = SYMLEN;
      291     7250         NEW$->DNT.TEXT.NAME = SUBSTR(TSTRING_SPACE,TERM_STRING.INDX(SYM_TO_BE_INSERTED),
      292     7251                                      TERM_STRING.LEN(SYM_TO_BE_INSERTED));
      293     7252         IF NEW$->DNT.TEXT.NAME= 'INTEGER' THEN
      294     7253           NEW$->DNT.TEXT.NAME = '0000000';
      295     7254
      296     7255         LA_STK.DNTPTR(LA_PUT) = NEW$;
      297     7256         LA_STK.SYMPTR(LA_PUT) = ADDR(NIL);
      298     7257         LA_STK.SYMBOL(LA_PUT) = SYM_TO_BE_INSERTED;
      299     7258         LA_STK.LINE(LA_PUT) = LINE_IN_ERROR;
      300     7259         LA_STK.COLUMN(LA_PUT) = COL_IN_ERROR;
      301     7260
      302     7261         END CREATE_DUMMY_TOKEN;
      303     7262         %MEND;
      304     7263         %ENDIF;
      305     7264
      306     7265         %MACRO CREATE_DUMMY_TOKEN;
      307     7266           CALL CREATE_DUMMY_TOKEN (LA_PUT,
      308     7267                                    BINBIT(CORRECTION.SYM(CORRECTION.INDX), 36),
PL6.E3A0      #001=PARSER File=Z8PP.:Z8A6TSI                                     SAT 08/09/97 09:40 Page:10
      309     7268                                    ERRLINE,
      310     7269                                    ERRCOL);
      311     7270         %MEND;
      312     7271
      313     7272
      314     7273         %MACRO CREATE_EMPTY_TERMINAL_ON_LX_STK;
      315     7274           DO;
      316     7275             /* LX_STK(LX_TOP) may be filled in to an empty terminal value
      317     7276                      if required */
      318     7277           END;
      319     7278         %MEND;
      320     7279
      321     7280
      322     7281         %MACRO ALTERNATE_ENTRY_TO_PARSER;
      323     7282
      324     7283           /* For name changes to parser;
      325     7284                 for example:
      326     7285                      Z8EP$PARSE : ENTRY;
      327     7286           */
      328     7287
      329     7288         %MEND;
      330     7289
      331     7290
      332     7291         /* Set up the trial parse length to try a sample parse on
      333     7292            any proposed correction during error recovery.  The specified
      334     7293            number designates how many tokens to parse past the proposed
      335     7294            correction.  If the trial parse fails, the cost to insert these
      336     7295            symbols will be doubled.  This will encourage deletion of
      337     7296            symbols when multiple corrections need to be made in adjacent
      338     7297            contexts.  Setting trial  parse length to 0 will disable
      339     7298            the trial parse.
      340     7299         */
      341     7300         %EQU TRIAL_PARSE_LENGTH = 0;
      342     7301
      343     7302
      344     7303         %MACRO LAST_SHIFTED_LOC(L=0,C=0);
      345     7304
PL6.E3A0      #001=PARSER File=Z8PP.:Z8A6TSI                                     SAT 08/09/97 09:40 Page:11
      346     7305           /* Set the location of the last shifted token which differs
      347     7306              from the location of the last token scanned when error
      348     7307              correction is done.
      349     7308           */
      350     7309           DO;
      351     7310             ERRLINE = L;
      352     7311             ERRCOL = C;
      353     7312           END;
      354     7313         %MEND;
      355     7314
      356     7315
      357     7316         %MACRO CALL_Z8PA$SEMANTICS(A=0);
      358     7317
      359     7318           /* Call the semantics routine with the designated action.
      360     7319           */
      361     7320
      362     7321           CALL Z8PA$SEMANTICS(A);
      363     7322
      364     7323         %MEND;
      365     7324
      366     7325
      367     7326         %MACRO CALL_SCANNER;
      368     7327
      369     7328           /* Call the scanner to obtain the next token.  The token should be
      370     7329              placed in LA_STK(LA_PUT).
      371     7330           */
      372     7331           CALL SCANNER(ADDR(LA_STK(LA_PUT)));
      373     7332
      374     7333         %MEND;
      375     7334
      376     7335
      377     7336
      378     7337
      379     7338
      380     7339         %INCLUDE Z8P_PARS_MAC;
      381    19132
      382    19133         %IF LOCALLY_LEAST_COST_RECOVERY;
PL6.E3A0      #001=PARSER File=Z8PP.:Z8A6TSI                                     SAT 08/09/97 09:40 Page:12
      383    19134         %INCLUDE Z8P_PARS_EC;
      384    20547         %CREATE_DUMMY_TOKEN_PROC;
      385    20582         %ENDIF;
      386    20583
      387    20584         %ERRORPROC;
      388    20888
      389    20889         %EJECT;
PL6.E3A0      #001=PARSER File=Z8PP.:Z8A6TSI                                     SAT 08/09/97 09:40 Page:13
      390    20890
      391    20891         %ALTERNATE_ENTRY_TO_PARSER;
      392    20897
      393    20898
      394    20899
      395    20900                /* Initialize circular list of lookahead tokens for fast
      396    20901                    additions and retrieval. */
      397    20902
      398    20903    2    DO INDX = 0 TO %LA_MAX - 1;
      399    20904    2      LA_STK.LINK(INDX) = INDX + 1;
      400    20905    2    END;
      401    20906    1    LA_STK.LINK(%LA_MAX) = 0;
      402    20907
      403    20908         %IF LOCALLY_LEAST_COST_RECOVERY;
      404    20909    1      RED_STACK_TOP = 0;
      405    20910    1      IED_FLAG = '0'B;
      406    20911         %ENDIF;
      407    20912    1    PARSE_STACK_IDX = 0;
      408    20913    1    STATE = 1;
      409    20914    1    LX_TOP          = 0;
      410    20915    1    PARSE_STACK(PARSE_STACK_IDX)  = STATE;
      411    20916         %EJECT;
PL6.E3A0      #001=PARSER File=Z8PP.:Z8A6TSI                                     SAT 08/09/97 09:40 Page:14
      412    20917         /*
      413    20918              BEGIN INTERPRETATION...
      414    20919         */
      415    20920
      416    20921    2    DO WHILE '1'B;
      417    20922
      418    20923           %GET_ACTION_ITEM;
      419    21084
      420    21085
      421    21086    2      IF ACTION > 0 THEN
      422    21087             %SHIFT;
      423    21269    2      ELSE
      424    21270    2        IF ACTION < 0 THEN
      425    21271               %REDUCE;
      426    21566    2        ELSE    /* Error occurred */
      427    21567               %RECOVERY;
      428    21605
      429    21606    2    END;  /* While */
      430    21607
      431    21608
      432    21609           /* The above loop should never fall thru;  it terminates in the
      433    21610                shift action when the next state is zero.
      434    21611           */
      435    21612
      436    21613    1    END PARSER;
      437    21614         %EOD;

PL6.E3A0      #001=PARSER File=Z8PP.:Z8A6TSI                                     SAT 08/09/97 09:40 Page:15
--  Include file information  --

   Z8P_PARS_EC.:Z8A6TOU  cannot be made into a system file and is referenced.
   Z8P_PARS_STS.:Z8A6TOU  is referenced.
   Z8P_PARS_MAC.:Z8A6TOU  cannot be made into a system file and is referenced.
   Z9P_IO_EXT.:Z8A6TOU  cannot be made into a system file and is referenced.
   Z8P_SCAN_EXT.:Z8A6TOU  cannot be made into a system file and is referenced.
   CP_6_SUBS.:LIB_E04  is referenced.
   CP_6_C.:LIB_E04  is referenced.
   CP_6.:LIB_E04  cannot be made into a system file and is referenced.
   Z9A_FLAGS.:Z8A6TOU  is referenced.
   Z8A_SYS_FILE.:Z8A6TOU  is referenced.
   Z8P_P_STATE.:Z8A6TOU  cannot be made into a system file and is referenced.
   Z8P_PARS_STK.:Z8A6TOU  cannot be made into a system file and is referenced.
   SCDPDA_SUBS.:Z8A6TOU  is referenced.
      No diagnostics issued in procedure PARSER.

   Procedure PARSER requires 2909 words for executable code.
   Procedure PARSER requires 830 words of local(AUTO) storage.

PL6.E3A0      #001=PARSER File=Z8PP.:Z8A6TSI                                     SAT 08/09/97 09:40 Page:16

 Object Unit name= PARSER                                     File name= Z8PP.:Z8A6TOU
 UTS= AUG 09 '97 09:40:04.48 SAT                              Compiler= PL-6/E31         Sev=      00
 SharedLib= :SHARED_SYSTEM                                    Alt SharedLib=


    ****  Control sections  ****

 Sect   Type Bound  Init  Size OctSiz  Section name(segment info)
    0  LblCom even  none   306    462  LA_STK
    1  LblCom even  none     1      1  LX_TOP
    2  LblCom even  none   306    462  LX_STK
    3  LblCom even  none     1      1  STATE
    4  LblCom even  none     1      1  LA_CNT
    5  LblCom even  none     1      1  LA_PUT
    6  LblCom even  none     1      1  LA_GET
    7  LblCom even  none     1      1  REDUCTION
    8  LblCom even  none   501    765  PARSE_STACK
    9  LblCom even  none     1      1  PARSE_STACK_IDX
   10  LblCom even  none     1      1  ERRLINE
   11  LblCom even  none     1      1  ERRCOL
   12  LblCom even  none     1      1  ERR_LA_GET
   13  LblCom even  none     1      1  ERR_LA_PUT
   14  LblCom even  none     1      1  ERR_LA_CNT
   15  LblCom even  none     1      1  ERR_RECOVERY_IN_PROGRESS
   16  LblCom even  none     1      1  PARSE_ERROR_COUNT
   17  LblCom even  none   501    765  ALT_PARSE_STACK
   18  LblCom even  none     1      1  ALT_PARSE_STACK_IDX
   19  LblCom even  none   501    765  RED_STACK
   20  LblCom even  none     1      1  RED_STACK_TOP
   21  LblCom even  none     1      1  IED_FLAG
   22  LblCom even  none     1      1  ALT_LX_TOP
   23  LblCom even  none    53     65  CORRECTION
   24   DCB   even  none     0      0  M$UC
   25  LblCom even  none     1      1  OUT_DCBN
   26  LblCom even  none     1      1  SAVE_OUT_DCBN
   27  LblCom even  none     1      1  SAVE_DCBN2
   28   DCB   even  none     0      0  M$OU
PL6.E3A0      #001=PARSER File=Z8PP.:Z8A6TSI                                     SAT 08/09/97 09:40 Page:17
   29   DCB   even  none     0      0  M$SO
   30   DCB   even  none     0      0  M$LO
   31   DCB   even  none     0      0  M$SI
   32   DCB   even  none     0      0  M$UI
   33   DCB   even  none     0      0  M$DO
   34  LblCom even  none     1      1  ERR_SEV
   35  LblCom even  none     1      1  OPTIONS
   36  LblCom even  none     1      1  DO_REQ
   37  LblCom even  none    26     32  OPTIONS_TEXT
   38  LblCom even  none   128    200  INSTR
   39  LblCom even  none     1      1  INSTR_LISTED
   40  LblCom even  none     1      1  INSTR_LEN
   41  LblCom even  none     1      1  INSTR_INDX
   42  LblCom even  none     1      1  EOF_FLAG
   43  LblCom even  none     5      5  KEY_REC
   44  LblCom even  none     1      1  LINES_OUT
   45  LblCom even  none    25     31  HEADER_LINE1
   46  LblCom even  none    25     31  HEADER_LINE3
   47  LblCom even  none    25     31  HEADER_LINE2
   48  LblCom even  none     1      1  MAX_LINES_PER_PAGE
   49  LblCom even  none    28     34  LINE
   50  LblCom even  none     1      1  LINELEN
   51  LblCom even  none     1      1  PHASE
   52  LblCom even  none     1      1  ERROR_COUNT
   53   Data  even  none   145    221  PARSER
   54  RoData even  UTS    241    361  PARSER
   55   Proc  even  none  2909   5535  PARSER
   56  RoData even  none    96    140  PARSER

    ****  Entry defs  ****

                              Check   Calling
                             calling  sequence
  Sect OctLoc Primary Altret sequence   type   Parms  Name
    55      0   yes            yes      Std        0  PARSER
PL6.E3A0      #001=PARSER File=Z8PP.:Z8A6TSI                                     SAT 08/09/97 09:40 Page:18

  ****  Entry refs  ****

         Check        Calling
        calling       sequence
Altret sequence SRef   type   Args  Name
         yes           Std       1 SCANNER
         yes           Std       1 Z8PA$SEMANTICS
         yes           Std       0 FORCE_LIST
         yes           Std       0 FLUSH
         yes           Std       6 DIAG
         yes           Std       2 OUT_STR
         yes           Std       2 GETNEW
         yes           Std       6 DIAG
                       nStd      0 X66_AUTO_0
                       nStd      0 X66_ARET

  ****  Data refs  ****

  Flags:  r = read only, s = secondary
Flgs Name                             Flgs Name                             Flgs Name
     M$UC                                  M$OU                                  M$SO
     M$LO                                  M$SI                                  M$UI
     M$DO                             r    PRODR                            r    ACTION_COL
r    ACTION_ROW                       r    GOTO_COL                         r    GOTO_ROW
r    DEL_COST                         r    LCS                              r    LCS_ELEM
r    LCP                              r    LCP_UBOUND                       r    LCP_ELEM
r    ITEM                             r    STATE_ITEM                       r    PATH
r    PATH_ELEM                        r    TERM_STRING                      r    TSTRING_SPACE
r    TERM_STRING                      r    TSTRING_SPACE                    r    TERM_STRING
r    TSTRING_SPACE                    r    TERM_STRING                      r    TSTRING_SPACE

  ****  Segment refs  ****

  Flags:  r = read only, s = secondary
Flgs Name                             Flgs Name                             Flgs Name
     NULLSID                               ISSID
PL6.E3A0      #001=PARSER File=Z8PP.:Z8A6TSI                                     SAT 08/09/97 09:40 Page:19


        1        1         /*M* PROTOTYPE LR PARSER */
        2        2        /*T***********************************************************/
        3        3        /*T*                                                         */
        4        4        /*T* Copyright (c) Bull HN Information Systems Inc., 1997    */
        5        5        /*T*                                                         */
        6        6        /*T***********************************************************/
        7        7
        8        8
        9        9         /*P*
       10       10              NAME: PARSER
       11       11           PURPOSE: Provide front end parsing for the LALR(1)
       12       12                    input.
       13       13         */
       14       14
       15       15
       16       16
       17       17         PARSER : PROC;

     17 55 000000   000000 700200 xent  PARSER       TSX0  ! X66_AUTO_0
        55 000001   001476 000000                    ZERO    830,0
        55 000002   004420 710000 55                 TRA     s:20903

       18       18
       19       19
       20       20         /*D*
       21       21                NAME: PARSER
       22       22         DESCRIPTION: Using LR parse tables generated by the LALR1 parser,
       23       23             parse the language input, execute semantic actions to build appropriate trees,
       24       24                        symbol table, etc of a compiler. necessary for later phases.
       25       25                        For a description of the LR parsing technique, see
       26       26                        Aho & Ullman - Principles of Compiler Design - Section 6.
       27       27                        For a description of the parse tables used, see Section
       28       28                        6.8 and Section 3.8 of that book.
       29       29
       30       30                       This particular implementation uses a token stacking
       31       31                        scheme compatible with the parser implemented by Dave Ward on
PL6.E3A0      #001=PARSER File=Z8PP.:Z8A6TSI                                     SAT 08/09/97 09:40 Page:20
       32       32                        Multics, in order to use the same semantic actions with
       33       33                        little change;
       34       34
       35       35                      Using this parser as a model, customization can be done to support
       36       36                        most any type of context for the parser.  Changes may need to be
       37       37                     be made for error messages, abnormal termination, semantic extensions,
       38       38                         etc.
       39       39         */
       40       40
       41       41
       42       42
       43       43
       44       44         /* Two routines need to be supplied for custom parsers:
       45       45
       46       46              Z8PA$SEMANTICS:
       47       47
       48       48                   The routine to execute a semantic action.  One parameter
       49       49                   is passed -- the semantic action number derived from the
       50       50                   action given in the grammar.  Usually the Z8PA$SEMANTICS  routine is
       51       51                   one large case statement on symbolic action numbers.  All
       52       52                   semantic routines may have access to the lexical token stack and
       53       53                   semantic stack, if required.
       54       54
       55       55              SCANNER:
       56       56
       57       57                   The routine to obtain the next token from the input.
       58       58                   One parameter is passed -- the token structure to be returned.
       59       59
       60       60         */
       61       61
       62       62
       63       63
       64       64
       65       65         /* This file may be used to customize the standard parser
       66       66            provided with the LALR1 parser generator.  Ideally, no
       67       67            modifications need to be made to the parser itself, so that
       68       68            newly released revisions may be installed without modification
PL6.E3A0      #001=PARSER File=Z8PP.:Z8A6TSI                                     SAT 08/09/97 09:40 Page:21
       69       69            of the parser body.
       70       70         */
       71       71
       72       72         /* Any declarations to be inserted after the parse tables may be
       73       73            given here.
       74       74         */
       75       75         %INCLUDE SCDPDA_SUBS;
       76      469         %INCLUDE Z8P_PARS_STK;
       77      512         %INCLUDE Z8P_P_STATE;
       78      575         %INCLUDE Z8A_SYS_FILE;
       79     6850         %INCLUDE Z8P_SCAN_EXT;
       80     7039
       81     7040    1    DCL SCANNER   ENTRY(1);
       82     7041
       83     7042    1    DCL FORCE_LIST ENTRY;
       84     7043    1    DCL FLUSH ENTRY;
       85     7044    1    DCL OUT_STR ENTRY(2);
       86     7045    1    DCL Z8PA$SEMANTICS ENTRY(1);
       87     7046
       88     7047
       89     7048         %EJECT;
PL6.E3A0      #001=PARSER File=Z8PP.:Z8A6TSI                                     SAT 08/09/97 09:40 Page:22
       90     7049         /* The following macros and code may need to be customized
       91     7050            for a specific application.
       92     7051         */
       93     7052
       94     7053         /* Posssible error conditions and messages */
       95     7054
       96     7055         %EQU E$PARSE_STACK_OVERFLOW_ERROR = 0;
       97     7056         %EQU E$SEMANTIC_TOKEN_STACK_OVERFLW = 1;
       98     7057         %EQU E$RED_STACK_OVERFLOW_ERROR = 2;
       99     7058         %EQU E$PARSE_ERROR = 3;
      100     7059         %EQU E$UNEXP_EOF_DURING_RECOVERY = 4;
      101     7060         %EQU E$PARSING_RESUMED = 5;
      102     7061         %EQU E$SYNTAX_INS = 6;
      103     7062         %EQU E$SYNTAX_REP = 7;
      104     7063         %EQU E$SYNTAX_DEL = 8;
      105     7064         %EQU E$CORRECTION_FAILURE = 9;
      106     7065
      107     7066         %MACRO TERMINATE;
      108     7067           /* Insert code for abnormal termination of parser */
      109     7068           CALL M$ERR;
      110     7069         %MEND;
      111     7070
      112     7071
      113     7072         %EQU DI_CHAR_LEN_MAX = 100;  /* Maximum length of an error plug-in */
      114     7073
      115     7074
      116     7075         /* Define the structure of a DNT ENTRY.  This will
      117     7076            contain arbitrary text used in error messages
      118     7077            and other token text manipulations.
      119     7078         */
      120     7079    1    DCL 1 DNT BASED ALIGNED,
      121     7080    1          2 TEXT,
      122     7081    1            3 LENGTH SBIN WORD,
      123     7082    1            3 NAME CHAR(DNT.TEXT.LENGTH);
      124     7083
      125     7084
      126     7085         %MACRO ERRORPROC;
PL6.E3A0      #001=PARSER File=Z8PP.:Z8A6TSI                                     SAT 08/09/97 09:40 Page:23
      127     7086         ERROR : PROC(ERROR_TYPE, PLUG1$, PLUG2$);
      128     7087
      129     7088         %TSTRING_SYMREFS;
      130     7089
      131     7090         DCL ERROR_TYPE SBIN WORD;
      132     7091         DCL PLUG1$ PTR;  /* TO DNT */
      133     7092         DCL PLUG2$ PTR;  /* TO DNT */
      134     7093
      135     7094         DCL DIAG ENTRY(6);
      136     7095         DCL I SBIN;
      137     7096         %SET BLANK70='
              7096         ';
      138     7097         %SET BLANK140=CONCAT(BLANK70,BLANK70);
      139     7098         %VLP_TEXTC(FPTN=TEXTCHAR1,STCLASS=STATIC,TEXT=%BLANK140);
      140     7099         %VLP_TEXTC(FPTN=TEXTCHAR2,STCLASS=STATIC,TEXT=%BLANK140);
      141     7100         %VLP_TEXTC(FPTN=P_OVFL,TEXT=' ERROR =>   Parse stack overflowed');
      142     7101         %VLP_TEXTC(FPTN=SEM_OVFL,TEXT=' ERROR =>   Semantic stack overflowed');
      143     7102         %VLP_TEXTC(FPTN=RED_OVFL,TEXT=' ERROR =>   Reduction stack overflowed');
      144     7103         %VLP_TEXTC(FPTN=SKIP_1,TEXT=' ERROR =>   Syntax error while reading ');
      145     7104         %VLP_TEXTC(FPTN=SKIP_2,TEXT=' - Input is being skipped');
      146     7105         %VLP_TEXTC(FPTN=RECOV_EOF,TEXT=' ERROR =>  Unexpected end of file during recovery'
              7105        );
      147     7106         %VLP_TEXTC(FPTN=RESUME_PARSE,TEXT=' ERROR =>   Parsing has been resumed with ');
      148     7107         %VLP_TEXTC(FPTN=INS_BEF_1,TEXT=' ERROR =>   Syntax error: ');
      149     7108         %VLP_TEXTC(FPTN=INS_BEF_2,TEXT=' has been inserted before ');
      150     7109         %VLP_TEXTC(FPTN=REPL_2,TEXT=' is incorrect and has been replaced by ');
      151     7110         %VLP_TEXTC(FPTN=DEL_2,TEXT=' is incorrect and has been deleted');
      152     7111         %VLP_TEXTC(FPTN=CANT_RECOVER,TEXT=' ERROR =>   The compiler could not recover from
              7111        this error');
      153     7112
      154     7113         /* ERROR LOCATION IS SET WITH THE RESET_ERROR_LOC MACRO BEFORE
      155     7114            THE ERROR PROCEDURE IS CALLED */
      156     7115
      157     7116         CALL FORCE_LIST;
      158     7117         CALL FLUSH;
      159     7118
      160     7119         DO I = 1 TO ERRCOL - 1 + LENGTHC(KEY_REC) ;
PL6.E3A0      #001=PARSER File=Z8PP.:Z8A6TSI                                     SAT 08/09/97 09:40 Page:24
      161     7120           %OUT_STR(S="' '");
      162     7121         END;
      163     7122         %OUT_STR(S="'1'");
      164     7123         CALL FLUSH;
      165     7124
      166     7125         DO CASE(ERROR_TYPE);
      167     7126
      168     7127           CASE(%E$PARSE_STACK_OVERFLOW_ERROR);
      169     7128
      170     7129               /* MSG =>   PARSE STACK OVERFLOWED */
      171     7130               CALL DIAG(15,P_OVFL);
      172     7131
      173     7132           CASE(%E$SEMANTIC_TOKEN_STACK_OVERFLW);
      174     7133
      175     7134               /* MSG =>   SEMANTIC STACK OVERFLOW */
      176     7135               CALL DIAG(15,SEM_OVFL);
      177     7136
      178     7137           CASE(%E$RED_STACK_OVERFLOW_ERROR);
      179     7138
      180     7139               /* MSG =>   REDUCTION STACK OVERFLOW ERROR */
      181     7140               CALL DIAG(15,RED_OVFL);
      182     7141
      183     7142           CASE(%E$PARSE_ERROR);
      184     7143
      185     7144               /* MSG =>   SYNTAX ERROR OCCURRED - INPUT IS BEING SKIPPED */
      186     7145               IF LA_STK.DNTPTR(LA_GET) = ADDR(NIL) THEN DO;
      187     7146                    TEXTCHAR1.L# = TERM_STRING.LEN(LA_STK.SYMBOL(LA_GET));
      188     7147                    TEXTCHAR1.TEXT# =
      189     7148                                   SUBSTR(TSTRING_SPACE,TERM_STRING.INDX
      190     7149                                            (LA_STK.SYMBOL(LA_GET)),
      191     7150                                          TERM_STRING.LEN(LA_STK.SYMBOL(LA_GET)));
      192     7151                                END;
      193     7152                   ELSE DO;
      194     7153                       TEXTCHAR1.L# = LA_STK.DNTPTR(LA_GET) -> DNT.TEXT.LENGTH;
      195     7154                       TEXTCHAR1.TEXT# = LA_STK.DNTPTR(LA_GET) -> DNT.TEXT.NAME;
      196     7155                           END;
      197     7156               CALL DIAG(6,SKIP_1,TEXTCHAR1,SKIP_2);
PL6.E3A0      #001=PARSER File=Z8PP.:Z8A6TSI                                     SAT 08/09/97 09:40 Page:25
      198     7157
      199     7158           CASE(%E$UNEXP_EOF_DURING_RECOVERY);
      200     7159
      201     7160               /* MSG =>   UNEXPECTED END_OF_FILE DURING ERROR_RECOVERY */
      202     7161               CALL DIAG(6,RECOV_EOF);
      203     7162
      204     7163           CASE(%E$PARSING_RESUMED);
      205     7164
      206     7165               /* MSG =>   PARSING HAS BEEN RESUMED AT THIS POINT */
      207     7166               IF LA_STK.DNTPTR(LA_GET) = ADDR(NIL) THEN DO;
      208     7167                    TEXTCHAR1.L# = TERM_STRING.LEN(LA_STK.SYMBOL(LA_GET));
      209     7168                    TEXTCHAR1.TEXT# =
      210     7169                                   SUBSTR(TSTRING_SPACE,TERM_STRING.INDX
      211     7170                                            (LA_STK.SYMBOL(LA_GET)),
      212     7171                                          TERM_STRING.LEN(LA_STK.SYMBOL(LA_GET)));
      213     7172                                END;
      214     7173                   ELSE DO;
      215     7174                        TEXTCHAR1.L# = LA_STK.DNTPTR(LA_GET) -> DNT.TEXT.LENGTH;
      216     7175                        TEXTCHAR1.TEXT# = LA_STK.DNTPTR(LA_GET) -> DNT.TEXT.NAME;
      217     7176                           END;
      218     7177               CALL DIAG(0,RESUME_PARSE,TEXTCHAR1);
      219     7178
      220     7179           CASE(%E$SYNTAX_INS);
      221     7180
      222     7181               /* MSG =>   SYNTAX ERROR: =PLUG1$= HAS BEEN INSERTED BEFORE =PLUG2$= */
      223     7182               TEXTCHAR1.L# = PLUG1$->DNT.TEXT.LENGTH;
      224     7183               TEXTCHAR1.TEXT# = PLUG1$->DNT.TEXT.NAME;
      225     7184               TEXTCHAR2.L# = PLUG2$->DNT.TEXT.LENGTH;
      226     7185               TEXTCHAR2.TEXT# = PLUG2$->DNT.TEXT.NAME;
      227     7186               CALL DIAG(6,INS_BEF_1,TEXTCHAR1,INS_BEF_2,TEXTCHAR2);
      228     7187
      229     7188           CASE(%E$SYNTAX_REP);
      230     7189
      231     7190               /* MSG =>   =PLUG1$= IS INCORRECT AND HAS BEEN REPLACED BY =PLUG2$= */
      232     7191               TEXTCHAR1.L# = PLUG1$->DNT.TEXT.LENGTH;
      233     7192               TEXTCHAR1.TEXT# = PLUG1$->DNT.TEXT.NAME;
      234     7193               TEXTCHAR2.L# = PLUG2$->DNT.TEXT.LENGTH;
PL6.E3A0      #001=PARSER File=Z8PP.:Z8A6TSI                                     SAT 08/09/97 09:40 Page:26
      235     7194               TEXTCHAR2.TEXT# = PLUG2$->DNT.TEXT.NAME;
      236     7195               CALL DIAG(6,INS_BEF_1,TEXTCHAR1,REPL_2,TEXTCHAR2);
      237     7196
      238     7197           CASE(%E$SYNTAX_DEL);
      239     7198
      240     7199               /* MSG =>   =PLUG1$= IS INCORRECT AND HAS BEEN DELETED */
      241     7200               TEXTCHAR1.L# = PLUG1$->DNT.TEXT.LENGTH;
      242     7201               TEXTCHAR1.TEXT# = PLUG1$->DNT.TEXT.NAME;
      243     7202               CALL DIAG(6,INS_BEF_1,TEXTCHAR1,DEL_2);
      244     7203
      245     7204           CASE(%E$CORRECTION_FAILURE);
      246     7205
      247     7206               /* MSG =>   THE COMPILER COULD NOT RECOVER FROM THIS ERROR */
      248     7207               CALL DIAG(15,CANT_RECOVER);
      249     7208
      250     7209         END;  /* CASE */
      251     7210
      252     7211         END ERROR;
      253     7212         %MEND;
      254     7213
      255     7214
      256     7215         %MACRO RESET_ERROR_LOC(L=0,C=0);
      257     7216
      258     7217           /* RESET THE LINE & COLUMN TO THE POINT OF ERROR */
      259     7218           DO;
      260     7219              ERRLINE = L;
      261     7220              ERRCOL  = C;
      262     7221           END;
      263     7222         %MEND;
      264     7223
      265     7224
      266     7225
      267     7226         %IF LOCALLY_LEAST_COST_RECOVERY;
      268     7227         %MACRO CREATE_DUMMY_TOKEN_PROC;
      269     7228         CREATE_DUMMY_TOKEN : PROC(LA_PUT,
      270     7229                                   SYM_TO_BE_INSERTED,
      271     7230                                   LINE_IN_ERROR,
PL6.E3A0      #001=PARSER File=Z8PP.:Z8A6TSI                                     SAT 08/09/97 09:40 Page:27
      272     7231                                   COL_IN_ERROR);
      273     7232
      274     7233         /* CREATE A DUMMY TOKEN FOR ERROR CORRECTION */
      275     7234
      276     7235         %TSTRING_SYMREFS;
      277     7236         DCL LA_PUT SBIN WORD;  /* INDEX INTO LA_STKAT WHICH POINT TO INSERT TOKEN */
      278     7237         DCL SYM_TO_BE_INSERTED SBIN WORD;
      279     7238         DCL LINE_IN_ERROR SBIN WORD;
      280     7239         DCL COL_IN_ERROR SBIN WORD;
      281     7240
      282     7241         DCL SYMLEN SBIN WORD;
      283     7242         DCL NEWLEN SBIN WORD;
      284     7243         DCL TEXTCHAR CHAR(140);
      285     7244         DCL NEW$ PTR;
      286     7245
      287     7246         SYMLEN = TERM_STRING.LEN(SYM_TO_BE_INSERTED);
      288     7247         NEWLEN = (LENGTHC(DNT.TEXT.LENGTH) + SYMLEN + 7) / 4;
      289     7248         CALL GETNEW(NEW$,NEWLEN);
      290     7249         NEW$->DNT.TEXT.LENGTH = SYMLEN;
      291     7250         NEW$->DNT.TEXT.NAME = SUBSTR(TSTRING_SPACE,TERM_STRING.INDX(SYM_TO_BE_INSERTED),
      292     7251                                      TERM_STRING.LEN(SYM_TO_BE_INSERTED));
      293     7252         IF NEW$->DNT.TEXT.NAME= 'INTEGER' THEN
      294     7253           NEW$->DNT.TEXT.NAME = '0000000';
      295     7254
      296     7255         LA_STK.DNTPTR(LA_PUT) = NEW$;
      297     7256         LA_STK.SYMPTR(LA_PUT) = ADDR(NIL);
      298     7257         LA_STK.SYMBOL(LA_PUT) = SYM_TO_BE_INSERTED;
      299     7258         LA_STK.LINE(LA_PUT) = LINE_IN_ERROR;
      300     7259         LA_STK.COLUMN(LA_PUT) = COL_IN_ERROR;
      301     7260
      302     7261         END CREATE_DUMMY_TOKEN;
      303     7262         %MEND;
      304     7263         %ENDIF;
      305     7264
      306     7265         %MACRO CREATE_DUMMY_TOKEN;
      307     7266           CALL CREATE_DUMMY_TOKEN (LA_PUT,
      308     7267                                    BINBIT(CORRECTION.SYM(CORRECTION.INDX), 36),
PL6.E3A0      #001=PARSER File=Z8PP.:Z8A6TSI                                     SAT 08/09/97 09:40 Page:28
      309     7268                                    ERRLINE,
      310     7269                                    ERRCOL);
      311     7270         %MEND;
      312     7271
      313     7272
      314     7273         %MACRO CREATE_EMPTY_TERMINAL_ON_LX_STK;
      315     7274           DO;
      316     7275             /* LX_STK(LX_TOP) may be filled in to an empty terminal value
      317     7276                      if required */
      318     7277           END;
      319     7278         %MEND;
      320     7279
      321     7280
      322     7281         %MACRO ALTERNATE_ENTRY_TO_PARSER;
      323     7282
      324     7283           /* For name changes to parser;
      325     7284                 for example:
      326     7285                      Z8EP$PARSE : ENTRY;
      327     7286           */
      328     7287
      329     7288         %MEND;
      330     7289
      331     7290
      332     7291         /* Set up the trial parse length to try a sample parse on
      333     7292            any proposed correction during error recovery.  The specified
      334     7293            number designates how many tokens to parse past the proposed
      335     7294            correction.  If the trial parse fails, the cost to insert these
      336     7295            symbols will be doubled.  This will encourage deletion of
      337     7296            symbols when multiple corrections need to be made in adjacent
      338     7297            contexts.  Setting trial  parse length to 0 will disable
      339     7298            the trial parse.
      340     7299         */
      341     7300         %EQU TRIAL_PARSE_LENGTH = 0;
      342     7301
      343     7302
      344     7303         %MACRO LAST_SHIFTED_LOC(L=0,C=0);
      345     7304
PL6.E3A0      #001=PARSER File=Z8PP.:Z8A6TSI                                     SAT 08/09/97 09:40 Page:29
      346     7305           /* Set the location of the last shifted token which differs
      347     7306              from the location of the last token scanned when error
      348     7307              correction is done.
      349     7308           */
      350     7309           DO;
      351     7310             ERRLINE = L;
      352     7311             ERRCOL = C;
      353     7312           END;
      354     7313         %MEND;
      355     7314
      356     7315
      357     7316         %MACRO CALL_Z8PA$SEMANTICS(A=0);
      358     7317
      359     7318           /* Call the semantics routine with the designated action.
      360     7319           */
      361     7320
      362     7321           CALL Z8PA$SEMANTICS(A);
      363     7322
      364     7323         %MEND;
      365     7324
      366     7325
      367     7326         %MACRO CALL_SCANNER;
      368     7327
      369     7328           /* Call the scanner to obtain the next token.  The token should be
      370     7329              placed in LA_STK(LA_PUT).
      371     7330           */
      372     7331           CALL SCANNER(ADDR(LA_STK(LA_PUT)));
      373     7332
      374     7333         %MEND;
      375     7334
      376     7335
      377     7336
      378     7337
      379     7338
      380     7339         %INCLUDE Z8P_PARS_MAC;
      381    19132
      382    19133         %IF LOCALLY_LEAST_COST_RECOVERY;
PL6.E3A0      #001=PARSER File=Z8PP.:Z8A6TSI                                     SAT 08/09/97 09:40 Page:30
      383    19134         %INCLUDE Z8P_PARS_EC;

  19140 55 000003   200010 741300       LOCALLY_LEA* STX1  ! INDX+1,,AUTO
        55 000004   003443 710000 55                 TRA     s:20453

  19229 55 000005   201436 741300       ERROR        STX1  ! @PREVSTATE+1,,AUTO

  19455 55 000006   000000 631400 56                 EPPR1   0
        55 000007   000000 701000 xent               TSX1    FORCE_LIST
        55 000010   000000 011000                    NOP     0

  19456 55 000011   000000 631400 56                 EPPR1   0
        55 000012   000000 701000 xent               TSX1    FLUSH
        55 000013   000000 011000                    NOP     0

  19457 55 000014   000001 235007                    LDA     1,DL
        55 000015   201442 755100                    STA     I,,AUTO
        55 000016   000024 710000 55                 TRA     s:19461+1

  19459 55 000017   000004 630400 56                 EPPR0   4
        55 000020   000001 631400 56                 EPPR1   1
        55 000021   000000 701000 xent               TSX1    OUT_STR
        55 000022   000000 011000                    NOP     0

  19461 55 000023   201442 054100                    AOS     I,,AUTO
        55 000024   000000 236000 11                 LDQ     ERRCOL
        55 000025   000023 036007                    ADLQ    19,DL
        55 000026   201442 116100                    CMPQ    I,,AUTO
        55 000027   000017 605000 55                 TPL     s:19459

  19463 55 000030   000007 630400 56                 EPPR0   7
        55 000031   000001 631400 56                 EPPR1   1
        55 000032   000000 701000 xent               TSX1    OUT_STR
        55 000033   000000 011000                    NOP     0

  19465 55 000034   000000 631400 56                 EPPR1   0
        55 000035   000000 701000 xent               TSX1    FLUSH
PL6.E3A0      #001=PARSER File=Z8PP.:Z8A6TSI                                     SAT 08/09/97 09:40 Page:31
        55 000036   000000 011000                    NOP     0

  19466 55 000037   201437 470500                    LDP0    @ERROR_TYPE,,AUTO
        55 000040   000000 235100                    LDA     0,,PR0
        55 000041   000012 115007                    CMPA    10,DL
        55 000042   000044 602005 55                 TNC     s:19466+5,AL
        55 000043   000401 710000 55                 TRA     s:19530
        55 000044   000056 710000 55                 TRA     s:19469
        55 000045   000063 710000 55                 TRA     s:19472
        55 000046   000070 710000 55                 TRA     s:19475
        55 000047   000075 710000 55                 TRA     s:19478
        55 000050   000172 710000 55                 TRA     s:19492
        55 000051   000177 710000 55                 TRA     s:19495
        55 000052   000274 710000 55                 TRA     s:19509
        55 000053   000325 710000 55                 TRA     s:19516
        55 000054   000356 710000 55                 TRA     s:19523
        55 000055   000375 710000 55                 TRA     s:19528

  19469 55 000056   000012 630400 56                 EPPR0   10
        55 000057   000001 631400 56                 EPPR1   1
        55 000060   000000 701000 xent               TSX1    DIAG
        55 000061   000000 011000                    NOP     0
        55 000062   000401 710000 55                 TRA     s:19530

  19472 55 000063   000014 630400 56                 EPPR0   12
        55 000064   000001 631400 56                 EPPR1   1
        55 000065   000000 701000 xent               TSX1    DIAG
        55 000066   000000 011000                    NOP     0
        55 000067   000401 710000 55                 TRA     s:19530

  19475 55 000070   000016 630400 56                 EPPR0   14
        55 000071   000001 631400 56                 EPPR1   1
        55 000072   000000 701000 xent               TSX1    DIAG
        55 000073   000000 011000                    NOP     0
        55 000074   000401 710000 55                 TRA     s:19530

  19478 55 000075   000000 236000 6                  LDQ     LA_GET
PL6.E3A0      #001=PARSER File=Z8PP.:Z8A6TSI                                     SAT 08/09/97 09:40 Page:32
        55 000076   000006 402007                    MPY     6,DL
        55 000077   000001 236006 0                  LDQ     LA_STK+1,QL
        55 000100   000020 116000 56                 CMPQ    16
        55 000101   000150 601000 55                 TNZ     s:19486

  19479 55 000102   000000 236000 6                  LDQ     LA_GET
        55 000103   000006 402007                    MPY     6,DL
        55 000104   000002 236006 0                  LDQ     LA_STK+2,QL
        55 000105   000017 402007                    MPY     15,DL
        55 000106   000000 116003                    CMPQ    0,DU
        55 000107   000111 605000 55                 TPL     s:19479+7
        55 000110   000044 036003                    ADLQ    36,DU
        55 000111   003000 061406                    CSR     bolr='003'O
        55 000112   000000 210005 xsym               BDSC    TERM_STRING,Q            by=1,bit=1,n=5
        55 000113   000000 000011 53                 BDSC    TEXTCHAR1                by=0,bit=0,n=9

  19480 55 000114   000000 236000 6                  LDQ     LA_GET
        55 000115   000006 402007                    MPY     6,DL
        55 000116   000002 236006 0                  LDQ     LA_STK+2,QL
        55 000117   000017 402007                    MPY     15,DL
        55 000120   201444 756100                    STQ     I+2,,AUTO
        55 000121   000000 236000 6                  LDQ     LA_GET
        55 000122   000006 402007                    MPY     6,DL
        55 000123   000002 236006 0                  LDQ     LA_STK+2,QL
        55 000124   000017 402007                    MPY     15,DL
        55 000125   201444 235100                    LDA     I+2,,AUTO
        55 000126   000130 605000 55                 TPL     s:19480+12
        55 000127   000044 035003                    ADLA    36,DU
        55 000130   003100 061405                    CSR     bolr='003'O
        55 000131   000000 000012 xsym               BDSC    TERM_STRING,A            by=0,bit=0,n=10
        55 000132   201445 000044                    BDSC    I+3,,AUTO                by=0,bit=0,n=36
        55 000133   201446 756100                    STQ     I+4,,AUTO
        55 000134   201445 236100                    LDQ     I+3,,AUTO
        55 000135   201446 235100                    LDA     I+4,,AUTO
        55 000136   000140 605000 55                 TPL     s:19480+20
        55 000137   000044 035003                    ADLA    36,DU
        55 000140   003100 061405                    CSR     bolr='003'O
PL6.E3A0      #001=PARSER File=Z8PP.:Z8A6TSI                                     SAT 08/09/97 09:40 Page:33
        55 000141   000000 210005 xsym               BDSC    TERM_STRING,A            by=1,bit=1,n=5
        55 000142   201447 000022                    BDSC    I+5,,AUTO                by=0,bit=0,n=18
        55 000143   201447 220100                    LDX0    I+5,,AUTO
        55 000144   040000 100446                    MLR     fill='040'O
        55 000145   000000 000010 xsym               ADSC9   TSTRING_SPACE,Q          cn=0,n=*X0
        55 000146   000000 200214 53                 ADSC9   TEXTCHAR1                cn=1,n=140

  19484 55 000147   000165 710000 55                 TRA     s:19489

  19486 55 000150   000000 236000 6                  LDQ     LA_GET
        55 000151   000006 402007                    MPY     6,DL
        55 000152   000001 471406 0                  LDP1    LA_STK+1,QL
        55 000153   100000 236100                    LDQ     0,,PR1
        55 000154   000033 736000                    QLS     27
        55 000155   000000 552040 53                 STBQ    TEXTCHAR1,'40'O

  19487 55 000156   000000 236000 6                  LDQ     LA_GET
        55 000157   000006 402007                    MPY     6,DL
        55 000160   000001 471406 0                  LDP1    LA_STK+1,QL
        55 000161   100000 720100                    LXL0    0,,PR1
        55 000162   040000 100540                    MLR     fill='040'O
        55 000163   100001 000010                    ADSC9   1,,PR1                   cn=0,n=*X0
        55 000164   000000 200214 53                 ADSC9   TEXTCHAR1                cn=1,n=140

  19489 55 000165   000023 630400 56                 EPPR0   19
        55 000166   000021 631400 56                 EPPR1   17
        55 000167   000000 701000 xent               TSX1    DIAG
        55 000170   000000 011000                    NOP     0
        55 000171   000401 710000 55                 TRA     s:19530

  19492 55 000172   000027 630400 56                 EPPR0   23
        55 000173   000001 631400 56                 EPPR1   1
        55 000174   000000 701000 xent               TSX1    DIAG
        55 000175   000000 011000                    NOP     0
        55 000176   000401 710000 55                 TRA     s:19530

  19495 55 000177   000000 236000 6                  LDQ     LA_GET
PL6.E3A0      #001=PARSER File=Z8PP.:Z8A6TSI                                     SAT 08/09/97 09:40 Page:34
        55 000200   000006 402007                    MPY     6,DL
        55 000201   000001 236006 0                  LDQ     LA_STK+1,QL
        55 000202   000020 116000 56                 CMPQ    16
        55 000203   000252 601000 55                 TNZ     s:19503

  19496 55 000204   000000 236000 6                  LDQ     LA_GET
        55 000205   000006 402007                    MPY     6,DL
        55 000206   000002 236006 0                  LDQ     LA_STK+2,QL
        55 000207   000017 402007                    MPY     15,DL
        55 000210   000000 116003                    CMPQ    0,DU
        55 000211   000213 605000 55                 TPL     s:19496+7
        55 000212   000044 036003                    ADLQ    36,DU
        55 000213   003000 061406                    CSR     bolr='003'O
        55 000214   000000 210005 xsym               BDSC    TERM_STRING,Q            by=1,bit=1,n=5
        55 000215   000000 000011 53                 BDSC    TEXTCHAR1                by=0,bit=0,n=9

  19497 55 000216   000000 236000 6                  LDQ     LA_GET
        55 000217   000006 402007                    MPY     6,DL
        55 000220   000002 236006 0                  LDQ     LA_STK+2,QL
        55 000221   000017 402007                    MPY     15,DL
        55 000222   201444 756100                    STQ     I+2,,AUTO
        55 000223   000000 236000 6                  LDQ     LA_GET
        55 000224   000006 402007                    MPY     6,DL
        55 000225   000002 236006 0                  LDQ     LA_STK+2,QL
        55 000226   000017 402007                    MPY     15,DL
        55 000227   201444 235100                    LDA     I+2,,AUTO
        55 000230   000232 605000 55                 TPL     s:19497+12
        55 000231   000044 035003                    ADLA    36,DU
        55 000232   003100 061405                    CSR     bolr='003'O
        55 000233   000000 000012 xsym               BDSC    TERM_STRING,A            by=0,bit=0,n=10
        55 000234   201445 000044                    BDSC    I+3,,AUTO                by=0,bit=0,n=36
        55 000235   201446 756100                    STQ     I+4,,AUTO
        55 000236   201445 236100                    LDQ     I+3,,AUTO
        55 000237   201446 235100                    LDA     I+4,,AUTO
        55 000240   000242 605000 55                 TPL     s:19497+20
        55 000241   000044 035003                    ADLA    36,DU
        55 000242   003100 061405                    CSR     bolr='003'O
PL6.E3A0      #001=PARSER File=Z8PP.:Z8A6TSI                                     SAT 08/09/97 09:40 Page:35
        55 000243   000000 210005 xsym               BDSC    TERM_STRING,A            by=1,bit=1,n=5
        55 000244   201447 000022                    BDSC    I+5,,AUTO                by=0,bit=0,n=18
        55 000245   201447 220100                    LDX0    I+5,,AUTO
        55 000246   040000 100446                    MLR     fill='040'O
        55 000247   000000 000010 xsym               ADSC9   TSTRING_SPACE,Q          cn=0,n=*X0
        55 000250   000000 200214 53                 ADSC9   TEXTCHAR1                cn=1,n=140

  19501 55 000251   000267 710000 55                 TRA     s:19506

  19503 55 000252   000000 236000 6                  LDQ     LA_GET
        55 000253   000006 402007                    MPY     6,DL
        55 000254   000001 471406 0                  LDP1    LA_STK+1,QL
        55 000255   100000 236100                    LDQ     0,,PR1
        55 000256   000033 736000                    QLS     27
        55 000257   000000 552040 53                 STBQ    TEXTCHAR1,'40'O

  19504 55 000260   000000 236000 6                  LDQ     LA_GET
        55 000261   000006 402007                    MPY     6,DL
        55 000262   000001 471406 0                  LDP1    LA_STK+1,QL
        55 000263   100000 720100                    LXL0    0,,PR1
        55 000264   040000 100540                    MLR     fill='040'O
        55 000265   100001 000010                    ADSC9   1,,PR1                   cn=0,n=*X0
        55 000266   000000 200214 53                 ADSC9   TEXTCHAR1                cn=1,n=140

  19506 55 000267   000032 630400 56                 EPPR0   26
        55 000270   000031 631400 56                 EPPR1   25
        55 000271   000000 701000 xent               TSX1    DIAG
        55 000272   000000 011000                    NOP     0
        55 000273   000401 710000 55                 TRA     s:19530

  19509 55 000274   201440 471500                    LDP1    @PLUG1$,,AUTO
        55 000275   100000 473500                    LDP3    0,,PR1
        55 000276   300000 236100                    LDQ     0,,PR3
        55 000277   000033 736000                    QLS     27
        55 000300   000000 552040 53                 STBQ    TEXTCHAR1,'40'O

  19510 55 000301   100000 473500                    LDP3    0,,PR1
PL6.E3A0      #001=PARSER File=Z8PP.:Z8A6TSI                                     SAT 08/09/97 09:40 Page:36
        55 000302   300000 720100                    LXL0    0,,PR3
        55 000303   040000 100540                    MLR     fill='040'O
        55 000304   300001 000010                    ADSC9   1,,PR3                   cn=0,n=*X0
        55 000305   000000 200214 53                 ADSC9   TEXTCHAR1                cn=1,n=140

  19511 55 000306   201441 473500                    LDP3    @PLUG2$,,AUTO
        55 000307   300000 474500                    LDP4    0,,PR3
        55 000310   400000 236100                    LDQ     0,,PR4
        55 000311   000033 736000                    QLS     27
        55 000312   000044 552040 53                 STBQ    TEXTCHAR2,'40'O

  19512 55 000313   300000 474500                    LDP4    0,,PR3
        55 000314   400000 720100                    LXL0    0,,PR4
        55 000315   040000 100540                    MLR     fill='040'O
        55 000316   400001 000010                    ADSC9   1,,PR4                   cn=0,n=*X0
        55 000317   000044 200214 53                 ADSC9   TEXTCHAR2                cn=1,n=140

  19513 55 000320   000036 630400 56                 EPPR0   30
        55 000321   000035 631400 56                 EPPR1   29
        55 000322   000000 701000 xent               TSX1    DIAG
        55 000323   000000 011000                    NOP     0
        55 000324   000401 710000 55                 TRA     s:19530

  19516 55 000325   201440 471500                    LDP1    @PLUG1$,,AUTO
        55 000326   100000 473500                    LDP3    0,,PR1
        55 000327   300000 236100                    LDQ     0,,PR3
        55 000330   000033 736000                    QLS     27
        55 000331   000000 552040 53                 STBQ    TEXTCHAR1,'40'O

  19517 55 000332   100000 473500                    LDP3    0,,PR1
        55 000333   300000 720100                    LXL0    0,,PR3
        55 000334   040000 100540                    MLR     fill='040'O
        55 000335   300001 000010                    ADSC9   1,,PR3                   cn=0,n=*X0
        55 000336   000000 200214 53                 ADSC9   TEXTCHAR1                cn=1,n=140

  19518 55 000337   201441 473500                    LDP3    @PLUG2$,,AUTO
        55 000340   300000 474500                    LDP4    0,,PR3
PL6.E3A0      #001=PARSER File=Z8PP.:Z8A6TSI                                     SAT 08/09/97 09:40 Page:37
        55 000341   400000 236100                    LDQ     0,,PR4
        55 000342   000033 736000                    QLS     27
        55 000343   000044 552040 53                 STBQ    TEXTCHAR2,'40'O

  19519 55 000344   300000 474500                    LDP4    0,,PR3
        55 000345   400000 720100                    LXL0    0,,PR4
        55 000346   040000 100540                    MLR     fill='040'O
        55 000347   400001 000010                    ADSC9   1,,PR4                   cn=0,n=*X0
        55 000350   000044 200214 53                 ADSC9   TEXTCHAR2                cn=1,n=140

  19520 55 000351   000043 630400 56                 EPPR0   35
        55 000352   000035 631400 56                 EPPR1   29
        55 000353   000000 701000 xent               TSX1    DIAG
        55 000354   000000 011000                    NOP     0
        55 000355   000401 710000 55                 TRA     s:19530

  19523 55 000356   201440 471500                    LDP1    @PLUG1$,,AUTO
        55 000357   100000 473500                    LDP3    0,,PR1
        55 000360   300000 236100                    LDQ     0,,PR3
        55 000361   000033 736000                    QLS     27
        55 000362   000000 552040 53                 STBQ    TEXTCHAR1,'40'O

  19524 55 000363   100000 473500                    LDP3    0,,PR1
        55 000364   300000 720100                    LXL0    0,,PR3
        55 000365   040000 100540                    MLR     fill='040'O
        55 000366   300001 000010                    ADSC9   1,,PR3                   cn=0,n=*X0
        55 000367   000000 200214 53                 ADSC9   TEXTCHAR1                cn=1,n=140

  19525 55 000370   000050 630400 56                 EPPR0   40
        55 000371   000021 631400 56                 EPPR1   17
        55 000372   000000 701000 xent               TSX1    DIAG
        55 000373   000000 011000                    NOP     0
        55 000374   000401 710000 55                 TRA     s:19530

  19528 55 000375   000054 630400 56                 EPPR0   44
        55 000376   000001 631400 56                 EPPR1   1
        55 000377   000000 701000 xent               TSX1    DIAG
PL6.E3A0      #001=PARSER File=Z8PP.:Z8A6TSI                                     SAT 08/09/97 09:40 Page:38
        55 000400   000000 011000                    NOP     0

  19530 55 000401   201436 221300                    LDX1  ! @PREVSTATE+1,,AUTO
        55 000402   000001 702211                    TSX2  ! 1,X1

  19535 55 000403   200176 741300       CREATE_LARG* STX1  ! ACCUM_INS_TO_SYM+2,,AUTO

  19547 55 000404   000000 235000 6                  LDA     LA_GET
        55 000405   200177 755100                    STA     OLA_GET,,AUTO

  19549 55 000406   000000 236000 6                  LDQ     LA_GET
        55 000407   000006 402007                    MPY     6,DL
        55 000410   000005 236006 0                  LDQ     LA_STK+5,QL
        55 000411   000003 402007                    MPY     3,DL
        55 000412   000001 736000                    QLS     1
        55 000413   000005 236006 0                  LDQ     LA_STK+5,QL
        55 000414   000417 604000 55                 TMI     s:19551
        55 000415   000000 116000 5                  CMPQ    LA_PUT
        55 000416   000434 600000 55                 TZE     s:19555

  19551 55 000417   000000 236000 6                  LDQ     LA_GET
        55 000420   000006 402007                    MPY     6,DL
        55 000421   000005 235006 0                  LDA     LA_STK+5,QL
        55 000422   000000 755000 6                  STA     LA_GET

  19553 55 000423   000000 236000 6                  LDQ     LA_GET
        55 000424   000006 402007                    MPY     6,DL
        55 000425   000005 236006 0                  LDQ     LA_STK+5,QL
        55 000426   000003 402007                    MPY     3,DL
        55 000427   000001 736000                    QLS     1
        55 000430   000005 236006 0                  LDQ     LA_STK+5,QL
        55 000431   000417 604000 55                 TMI     s:19551
        55 000432   000000 116000 5                  CMPQ    LA_PUT
        55 000433   000417 601000 55                 TNZ     s:19551

  19555 55 000434   000000 236000 6                  LDQ     LA_GET
        55 000435   000006 402007                    MPY     6,DL
PL6.E3A0      #001=PARSER File=Z8PP.:Z8A6TSI                                     SAT 08/09/97 09:40 Page:39
        55 000436   000005 235006 0                  LDA     LA_STK+5,QL
        55 000437   200200 755100                    STA     OLINK,,AUTO

  19556 55 000440   200177 236100                    LDQ     OLA_GET,,AUTO
        55 000441   000030 402007                    MPY     24,DL
        55 000442   201444 756100                    STQ     I+2,,AUTO
        55 000443   000000 236000 6                  LDQ     LA_GET
        55 000444   000030 402007                    MPY     24,DL
        55 000445   201444 235100                    LDA     I+2,,AUTO
        55 000446   000006 100405                    MLR     fill='000'O
        55 000447   000000 000030 0                  ADSC9   LA_STK,A                 cn=0,n=24
        55 000450   000000 000030 0                  ADSC9   LA_STK,Q                 cn=0,n=24

  19557 55 000451   000000 236000 6                  LDQ     LA_GET
        55 000452   000006 402007                    MPY     6,DL
        55 000453   200200 235100                    LDA     OLINK,,AUTO
        55 000454   000005 755006 0                  STA     LA_STK+5,QL

  19558 55 000455   200174 755100                    STA     ACCUM_INS_TO_SYM,,AUTO

  19559 55 000456   200103 755100                    STA     LR+2,,AUTO

  19560 55 000457   000002 235007                    LDA     2,DL
        55 000460   200172 755100                    STA     ACCUM_DEL_LEN,,AUTO

  19561 55 000461   000002 236006 0                  LDQ     LA_STK+2,QL
        55 000462   000021 402007                    MPY     17,DL
        55 000463   000000 116003                    CMPQ    0,DU
        55 000464   000466 605000 55                 TPL     s:19561+5
        55 000465   000044 036003                    ADLQ    36,DU
        55 000466   003100 061406                    CSR     bolr='003'O
        55 000467   000000 000021 xsym               BDSC    DEL_COST,Q               by=0,bit=0,n=17
        55 000470   200173 000044                    BDSC    ACCUM_DEL_COST,,AUTO     by=0,bit=0,n=36

  19562 55 000471   200173 235100                    LDA     ACCUM_DEL_COST,,AUTO
        55 000472   200102 755100                    STA     LR+1,,AUTO

PL6.E3A0      #001=PARSER File=Z8PP.:Z8A6TSI                                     SAT 08/09/97 09:40 Page:40
  19563 55 000473   200172 236100                    LDQ     ACCUM_DEL_LEN,,AUTO
        55 000474   200101 756100                    STQ     LR,,AUTO

  19564 55 000475   000002 235007                    LDA     2,DL
        55 000476   000000 755000 4                  STA     LA_CNT

  19566 55 000477   400000 236003                    LDQ     -131072,DU
        55 000500   200171 756100                    STQ     LARGE_DELETION,,AUTO

  19569 55 000501   200176 221300                    LDX1  ! ACCUM_INS_TO_SYM+2,,AUTO
        55 000502   000001 702211                    TSX2  ! 1,X1

  19573 55 000503   201434 741300       ABORT_CORRE* STX1  ! PELEM+1,,AUTO

  19581 55 000504   000000 450000 10                 STZ     ERRLINE

  19582 55 000505   000000 450000 11                 STZ     ERRCOL

  19585 55 000506   000020 236000 56                 LDQ     16
        55 000507   000020 235000 56                 LDA     16
        55 000510   201440 757100                    STAQ    @PLUG1$,,AUTO
        55 000511   000057 236000 56                 LDQ     47
        55 000512   201437 756100                    STQ     @ERROR_TYPE,,AUTO
        55 000513   000005 701000 55                 TSX1    ERROR
        55 000514   000000 011000                    NOP     0

  19588 55 000515   000002 713400                    CLIMB   err
        55 000516   000000 401760                    pmme    nvectors=0

  19592 55 000517   201434 221300                    LDX1  ! PELEM+1,,AUTO
        55 000520   000001 702211                    TSX2  ! 1,X1

  19594 55 000521   200322 741300       CALC_CORREC* STX1  ! INS_BEF_DNT$+1,,AUTO

  19613 55 000522   000000 450000 23                 STZ     CORRECTION

  19614 55 000523   000001 450000 23                 STZ     CORRECTION+1
PL6.E3A0      #001=PARSER File=Z8PP.:Z8A6TSI                                     SAT 08/09/97 09:40 Page:41

  19616 55 000524   200324 450100                    STZ     I,,AUTO
        55 000525   000635 710000 55                 TRA     s:19627+1

  19617 55 000526   200324 235100                    LDA     I,,AUTO
        55 000527   000001 735000                    ALS     1
        55 000530   200323 470500                    LDP0    @LRC,,AUTO
        55 000531   000100 100505                    MLR     fill='000'O
        55 000532   000005 000002                    ADSC9   5,A,PR0                  cn=0,n=2
        55 000533   201444 000004                    ADSC9   I+2,,AUTO                cn=0,n=4
        55 000534   201444 236100                    LDQ     I+2,,AUTO
        55 000535   000022 732000                    QRS     18
        55 000536   000036 402007                    MPY     30,DL
        55 000537   000000 116003                    CMPQ    0,DU
        55 000540   000542 605000 55                 TPL     s:19617+12
        55 000541   000044 036003                    ADLQ    36,DU
        55 000542   003100 061406                    CSR     bolr='003'O
        55 000543   000000 300011 xsym               BDSC    LCS,Q                    by=1,bit=8,n=9
        55 000544   200325 000044                    BDSC    J,,AUTO                  by=0,bit=0,n=36
        55 000545   000571 710000 55                 TRA     s:19626+1

  19620 55 000546   000000 235000 23                 LDA     CORRECTION
        55 000547   000144 115007                    CMPA    100,DL
        55 000550   000570 605000 55                 TPL     s:19626

  19622 55 000551   200325 236100                    LDQ     J,,AUTO
        55 000552   000003 736000                    QLS     3
        55 000553   000555 605000 55                 TPL     s:19622+4
        55 000554   000044 036003                    ADLQ    36,DU
        55 000555   201444 756100                    STQ     I+2,,AUTO
        55 000556   000000 236000 23                 LDQ     CORRECTION
        55 000557   000022 402007                    MPY     18,DL
        55 000560   000000 116003                    CMPQ    0,DU
        55 000561   000563 605000 55                 TPL     s:19622+10
        55 000562   000044 036003                    ADLQ    36,DU
        55 000563   201444 235100                    LDA     I+2,,AUTO
        55 000564   003006 061405                    CSR     bolr='003'O
PL6.E3A0      #001=PARSER File=Z8PP.:Z8A6TSI                                     SAT 08/09/97 09:40 Page:42
        55 000565   000000 000010 xsym               BDSC    LCS_ELEM,A               by=0,bit=0,n=8
        55 000566   000002 000022 23                 BDSC    CORRECTION+2,Q           by=0,bit=0,n=18

  19623 55 000567   000000 054000 23                 AOS     CORRECTION

  19626 55 000570   200325 054100                    AOS     J,,AUTO
        55 000571   200324 235100                    LDA     I,,AUTO
        55 000572   000001 735000                    ALS     1
        55 000573   200323 470500                    LDP0    @LRC,,AUTO
        55 000574   000100 100505                    MLR     fill='000'O
        55 000575   000005 000002                    ADSC9   5,A,PR0                  cn=0,n=2
        55 000576   201444 000004                    ADSC9   I+2,,AUTO                cn=0,n=4
        55 000577   201444 236100                    LDQ     I+2,,AUTO
        55 000600   000022 732000                    QRS     18
        55 000601   000036 402007                    MPY     30,DL
        55 000602   200324 235100                    LDA     I,,AUTO
        55 000603   000001 735000                    ALS     1
        55 000604   000100 100505                    MLR     fill='000'O
        55 000605   000005 000002                    ADSC9   5,A,PR0                  cn=0,n=2
        55 000606   201445 000004                    ADSC9   I+3,,AUTO                cn=0,n=4
        55 000607   201446 756100                    STQ     I+4,,AUTO
        55 000610   201445 236100                    LDQ     I+3,,AUTO
        55 000611   000022 732000                    QRS     18
        55 000612   000036 402007                    MPY     30,DL
        55 000613   000000 116003                    CMPQ    0,DU
        55 000614   000616 605000 55                 TPL     s:19626+22
        55 000615   000044 036003                    ADLQ    36,DU
        55 000616   003100 061406                    CSR     bolr='003'O
        55 000617   000000 500004 xsym               BDSC    LCS,Q                    by=2,bit=8,n=4
        55 000620   201447 000044                    BDSC    I+5,,AUTO                by=0,bit=0,n=36
        55 000621   201446 235100                    LDA     I+4,,AUTO
        55 000622   000624 605000 55                 TPL     s:19626+28
        55 000623   000044 035003                    ADLA    36,DU
        55 000624   003100 061405                    CSR     bolr='003'O
        55 000625   000000 300011 xsym               BDSC    LCS,A                    by=1,bit=8,n=9
        55 000626   201450 000044                    BDSC    I+6,,AUTO                by=0,bit=0,n=36
        55 000627   201450 236100                    LDQ     I+6,,AUTO
PL6.E3A0      #001=PARSER File=Z8PP.:Z8A6TSI                                     SAT 08/09/97 09:40 Page:43
        55 000630   201447 036100                    ADLQ    I+5,,AUTO
        55 000631   000546 604000 55                 TMI     s:19620
        55 000632   200325 116100                    CMPQ    J,,AUTO
        55 000633   000546 605400 55                 TPNZ    s:19620

  19627 55 000634   200324 054100                    AOS     I,,AUTO
        55 000635   200323 470500                    LDP0    @LRC,,AUTO
        55 000636   200324 236100                    LDQ     I,,AUTO
        55 000637   000003 116100                    CMPQ    3,,PR0
        55 000640   000526 604000 55                 TMI     s:19617

  19630 55 000641   200322 221300                    LDX1  ! INS_BEF_DNT$+1,,AUTO
        55 000642   000001 702211                    TSX2  ! 1,X1

  19632 55 000643   200176 741300       GIVE_CORREC* STX1  ! ACCUM_INS_TO_SYM+2,,AUTO
        55 000644   001371 710000 55                 TRA     s:19821

  19661 55 000645   200326 741300       PACK_TERM    STX1  ! J+1,,AUTO

  19677 55 000646   200327 470500                    LDP0    @DI,,AUTO
        55 000647   000000 235100                    LDA     0,,PR0
        55 000650   000144 115007                    CMPA    100,DL
        55 000651   000660 605000 55                 TPL     s:19683
        55 000652   000000 115003                    CMPA    0,DU
        55 000653   000660 604400 55                 TMOZ    s:19683

  19679 55 000654   040105 100400                    MLR     fill='040'O
        55 000655   000002 000001 56                 ADSC9   2                        cn=0,n=1
        55 000656   000001 000001                    ADSC9   1,A,PR0                  cn=0,n=1

  19680 55 000657   000000 054100                    AOS     0,,PR0

  19683 55 000660   200331 471500                    LDP1    @PT_LEN,,AUTO
        55 000661   000144 236007                    LDQ     100,DL
        55 000662   000000 136100                    SBLQ    0,,PR0
        55 000663   100000 116100                    CMPQ    0,,PR1
        55 000664   000701 604000 55                 TMI     s:19689
PL6.E3A0      #001=PARSER File=Z8PP.:Z8A6TSI                                     SAT 08/09/97 09:40 Page:44

  19685 55 000665   000000 235100                    LDA     0,,PR0
        55 000666   200332 473500                    LDP3    @PT_PTR,,AUTO
        55 000667   300000 474500                    LDP4    0,,PR3
        55 000670   100000 720100                    LXL0    0,,PR1
        55 000671   000000 621006                    EAX1    0,QL
        55 000672   040145 100540                    MLR     fill='040'O
        55 000673   400000 000010                    ADSC9   0,,PR4                   cn=0,n=*X0
        55 000674   000001 000011                    ADSC9   1,A,PR0                  cn=0,n=*X1

  19686 55 000675   000000 236100                    LDQ     0,,PR0
        55 000676   100000 036100                    ADLQ    0,,PR1
        55 000677   000000 756100                    STQ     0,,PR0

  19687 55 000700   000756 710000 55                 TRA     s:19704

  19689 55 000701   200330 473500                    LDP3    @DI_CHAR_OVERFLOW,,AUTO
        55 000702   300000 235100                    LDA     0,,PR3
        55 000703   000727 604400 55                 TMOZ    s:19697

  19691 55 000704   201444 755100                    STA     I+2,,AUTO
        55 000705   300000 235100                    LDA     0,,PR3
        55 000706   000060 675000 56                 ERA     48
        55 000707   000145 035007                    ADLA    101,DL
        55 000710   200332 474500                    LDP4    @PT_PTR,,AUTO
        55 000711   400000 475500                    LDP5    0,,PR4
        55 000712   100000 720100                    LXL0    0,,PR1
        55 000713   000000 621005                    EAX1    0,AL
        55 000714   201444 235100                    LDA     I+2,,AUTO
        55 000715   040145 100540                    MLR     fill='040'O
        55 000716   500000 000010                    ADSC9   0,,PR5                   cn=0,n=*X0
        55 000717   000001 000011                    ADSC9   1,A,PR0                  cn=0,n=*X1

  19692 55 000720   300000 236100                    LDQ     0,,PR3
        55 000721   100000 036100                    ADLQ    0,,PR1
        55 000722   000144 116007                    CMPQ    100,DL
        55 000723   000725 604400 55                 TMOZ    s:19692+5
PL6.E3A0      #001=PARSER File=Z8PP.:Z8A6TSI                                     SAT 08/09/97 09:40 Page:45
        55 000724   000144 236007                    LDQ     100,DL
        55 000725   000000 756100                    STQ     0,,PR0

  19694 55 000726   000756 710000 55                 TRA     s:19704

  19697 55 000727   040100 100400                    MLR     fill='040'O
        55 000730   000354 000004 54                 ADSC9   CANT_RECOVER+15          cn=0,n=4
        55 000731   000015 000064                    ADSC9   13,,PR0                  cn=0,n=52

  19698 55 000732   000064 235007                    LDA     52,DL
        55 000733   300000 755100                    STA     0,,PR3

  19699 55 000734   201444 755100                    STA     I+2,,AUTO
        55 000735   300000 235100                    LDA     0,,PR3
        55 000736   000060 675000 56                 ERA     48
        55 000737   000145 035007                    ADLA    101,DL
        55 000740   200332 474500                    LDP4    @PT_PTR,,AUTO
        55 000741   400000 475500                    LDP5    0,,PR4
        55 000742   100000 720100                    LXL0    0,,PR1
        55 000743   000000 621005                    EAX1    0,AL
        55 000744   201444 235100                    LDA     I+2,,AUTO
        55 000745   040145 100540                    MLR     fill='040'O
        55 000746   500000 000010                    ADSC9   0,,PR5                   cn=0,n=*X0
        55 000747   000001 000011                    ADSC9   1,A,PR0                  cn=0,n=*X1

  19700 55 000750   300000 236100                    LDQ     0,,PR3
        55 000751   100000 036100                    ADLQ    0,,PR1
        55 000752   000144 116007                    CMPQ    100,DL
        55 000753   000755 604400 55                 TMOZ    s:19700+5
        55 000754   000144 236007                    LDQ     100,DL
        55 000755   000000 756100                    STQ     0,,PR0

  19704 55 000756   200326 221300                    LDX1  ! J+1,,AUTO
        55 000757   000001 702211                    TSX2  ! 1,X1

  19709 55 000760   200322 741300       CREATE_DEL_* STX1  ! INS_BEF_DNT$+1,,AUTO
        55 000761   001072 710000 55                 TRA     s:19737
PL6.E3A0      #001=PARSER File=Z8PP.:Z8A6TSI                                     SAT 08/09/97 09:40 Page:46

  19717 55 000762   200324 741300       PACK_DEL_TE* STX1  ! I,,AUTO

  19720 55 000763   000000 236000 6                  LDQ     LA_GET
        55 000764   000006 402007                    MPY     6,DL
        55 000765   000001 236006 0                  LDQ     LA_STK+1,QL
        55 000766   000020 116000 56                 CMPQ    16
        55 000767   001052 601000 55                 TNZ     s:19726

  19721 55 000770   000000 236000 6                  LDQ     LA_GET
        55 000771   000006 402007                    MPY     6,DL
        55 000772   000002 236006 0                  LDQ     LA_STK+2,QL
        55 000773   000017 402007                    MPY     15,DL
        55 000774   000000 116003                    CMPQ    0,DU
        55 000775   000777 605000 55                 TPL     s:19721+7
        55 000776   000044 036003                    ADLQ    36,DU
        55 000777   003100 061406                    CSR     bolr='003'O
        55 001000   000000 210005 xsym               BDSC    TERM_STRING,Q            by=1,bit=1,n=5
        55 001001   201444 000044                    BDSC    I+2,,AUTO                by=0,bit=0,n=36
        55 001002   201444 236100                    LDQ     I+2,,AUTO
        55 001003   201445 756100                    STQ     I+3,,AUTO
        55 001004   000000 236000 6                  LDQ     LA_GET
        55 001005   000006 402007                    MPY     6,DL
        55 001006   000002 236006 0                  LDQ     LA_STK+2,QL
        55 001007   000017 402007                    MPY     15,DL
        55 001010   201447 756100                    STQ     I+5,,AUTO
        55 001011   000000 116003                    CMPQ    0,DU
        55 001012   001014 605000 55                 TPL     s:19721+20
        55 001013   000044 036003                    ADLQ    36,DU
        55 001014   003100 061406                    CSR     bolr='003'O
        55 001015   000000 000012 xsym               BDSC    TERM_STRING,Q            by=0,bit=0,n=10
        55 001016   201446 000044                    BDSC    I+4,,AUTO                by=0,bit=0,n=36
        55 001017   201446 236100                    LDQ     I+4,,AUTO
        55 001020   201447 235100                    LDA     I+5,,AUTO
        55 001021   001023 605000 55                 TPL     s:19721+27
        55 001022   000044 035003                    ADLA    36,DU
        55 001023   003100 061405                    CSR     bolr='003'O
PL6.E3A0      #001=PARSER File=Z8PP.:Z8A6TSI                                     SAT 08/09/97 09:40 Page:47
        55 001024   000000 000012 xsym               BDSC    TERM_STRING,A            by=0,bit=0,n=10
        55 001025   201450 000022                    BDSC    I+6,,AUTO                by=0,bit=0,n=18
        55 001026   001560 220003                    LDX0    880,DU
        55 001027   201450 120100                    SBLX0   I+6,,AUTO
        55 001030   201451 756100                    STQ     I+7,,AUTO
        55 001031   201445 236100                    LDQ     I+3,,AUTO
        55 001032   201454 756100                    STQ     I+10,,AUTO
        55 001033   201451 236100                    LDQ     I+7,,AUTO
        55 001034   000020 736000                    QLS     16
        55 001035   000061 036000 56                 ADLQ    49
        55 001036   201456 756100                    STQ     I+12,,AUTO
        55 001037   201456 630500                    EPPR0   I+12,,AUTO
        55 001040   200332 450500                    STP0    @PT_PTR,,AUTO
        55 001041   201454 631500                    EPPR1   I+10,,AUTO
        55 001042   200331 451500                    STP1    @PT_LEN,,AUTO
        55 001043   200177 633500                    EPPR3   DEL_CHAR_OVERFLOW,,AUTO
        55 001044   200330 453500                    STP3    @DI_CHAR_OVERFLOW,,AUTO
        55 001045   200200 634500                    EPPR4   DEL,,AUTO
        55 001046   200327 454500                    STP4    @DI,,AUTO
        55 001047   000645 701000 55                 TSX1    PACK_TERM
        55 001050   000000 011000                    NOP     0
        55 001051   001070 710000 55                 TRA     s:19732

  19726 55 001052   000000 236000 6                  LDQ     LA_GET
        55 001053   000006 402007                    MPY     6,DL
        55 001054   000001 470406 0                  LDP0    LA_STK+1,QL
        55 001055   000001 631500                    EPPR1   1,,PR0
        55 001056   201457 451500                    STP1    I+13,,AUTO
        55 001057   201457 633500                    EPPR3   I+13,,AUTO
        55 001060   200332 453500                    STP3    @PT_PTR,,AUTO
        55 001061   200331 450500                    STP0    @PT_LEN,,AUTO
        55 001062   200177 634500                    EPPR4   DEL_CHAR_OVERFLOW,,AUTO
        55 001063   200330 454500                    STP4    @DI_CHAR_OVERFLOW,,AUTO
        55 001064   200200 635500                    EPPR5   DEL,,AUTO
        55 001065   200327 455500                    STP5    @DI,,AUTO
        55 001066   000645 701000 55                 TSX1    PACK_TERM
        55 001067   000000 011000                    NOP     0
PL6.E3A0      #001=PARSER File=Z8PP.:Z8A6TSI                                     SAT 08/09/97 09:40 Page:48

  19732 55 001070   200324 221300                    LDX1  ! I,,AUTO
        55 001071   000001 702211                    TSX2  ! 1,X1

  19737 55 001072   000020 236000 56                 LDQ     16
        55 001073   200317 756100                    STQ     DEL_DNT$,,AUTO

  19738 55 001074   200200 450100                    STZ     DEL,,AUTO

  19739 55 001075   200177 450100                    STZ     DEL_CHAR_OVERFLOW,,AUTO

  19741 55 001076   200011 235100                    LDA     LC,,AUTO
        55 001077   001151 604400 55                 TMOZ    s:19768

  19743 55 001100   200171 234100                    SZN     LARGE_DELETION,,AUTO
        55 001101   001131 605000 55                 TPL     s:19755

  19745 55 001102   000762 701000 55                 TSX1    PACK_DEL_TERM
        55 001103   000000 011000                    NOP     0

  19746 55 001104   000063 236000 56                 LDQ     51
        55 001105   201460 756100                    STQ     I+14,,AUTO
        55 001106   201460 630500                    EPPR0   I+14,,AUTO
        55 001107   200332 450500                    STP0    @PT_PTR,,AUTO
        55 001110   000064 236000 56                 LDQ     52
        55 001111   200331 756100                    STQ     @PT_LEN,,AUTO
        55 001112   200177 631500                    EPPR1   DEL_CHAR_OVERFLOW,,AUTO
        55 001113   200330 451500                    STP1    @DI_CHAR_OVERFLOW,,AUTO
        55 001114   200200 633500                    EPPR3   DEL,,AUTO
        55 001115   200327 453500                    STP3    @DI,,AUTO
        55 001116   000645 701000 55                 TSX1    PACK_TERM
        55 001117   000000 011000                    NOP     0

  19750 55 001120   200200 235100                    LDA     DEL,,AUTO
        55 001121   200177 755100                    STA     DEL_CHAR_OVERFLOW,,AUTO

  19751 55 001122   000000 236000 6                  LDQ     LA_GET
PL6.E3A0      #001=PARSER File=Z8PP.:Z8A6TSI                                     SAT 08/09/97 09:40 Page:49
        55 001123   000006 402007                    MPY     6,DL
        55 001124   000005 235006 0                  LDA     LA_STK+5,QL
        55 001125   000000 755000 6                  STA     LA_GET

  19752 55 001126   000001 336007                    LCQ     1,DL
        55 001127   000000 056000 4                  ASQ     LA_CNT

  19753 55 001130   200011 056100                    ASQ     LC,,AUTO

  19755 55 001131   200011 235100                    LDA     LC,,AUTO
        55 001132   001145 604400 55                 TMOZ    s:19762

  19756 55 001133   000762 701000 55                 TSX1    PACK_DEL_TERM
        55 001134   000000 011000                    NOP     0

  19757 55 001135   000000 236000 6                  LDQ     LA_GET
        55 001136   000006 402007                    MPY     6,DL
        55 001137   000005 235006 0                  LDA     LA_STK+5,QL
        55 001140   000000 755000 6                  STA     LA_GET

  19758 55 001141   000001 336007                    LCQ     1,DL
        55 001142   000000 056000 4                  ASQ     LA_CNT

  19759 55 001143   200011 056100                    ASQ     LC,,AUTO

  19760 55 001144   001133 605400 55                 TPNZ    s:19756

  19762 55 001145   200200 235100                    LDA     DEL,,AUTO
        55 001146   001151 604400 55                 TMOZ    s:19768

  19764 55 001147   200200 630500                    EPPR0   DEL,,AUTO
        55 001150   200317 450500                    STP0    DEL_DNT$,,AUTO

  19768 55 001151   200322 221300                    LDX1  ! INS_BEF_DNT$+1,,AUTO
        55 001152   000001 702211                    TSX2  ! 1,X1

  19772 55 001153   200322 741300       CREATE_INS_* STX1  ! INS_BEF_DNT$+1,,AUTO
PL6.E3A0      #001=PARSER File=Z8PP.:Z8A6TSI                                     SAT 08/09/97 09:40 Page:50

  19779 55 001154   000020 236000 56                 LDQ     16
        55 001155   200320 756100                    STQ     INS_DNT$,,AUTO

  19780 55 001156   200321 756100                    STQ     INS_BEF_DNT$,,AUTO

  19781 55 001157   200233 450100                    STZ     INS,,AUTO

  19782 55 001160   200232 450100                    STZ     INS_CHAR_OVERFLOW,,AUTO

  19784 55 001161   000000 235000 23                 LDA     CORRECTION
        55 001162   001367 604400 55                 TMOZ    s:19813

  19786 55 001163   200323 450100                    STZ     I,,AUTO
        55 001164   001257 710000 55                 TRA     s:19791+1

  19787 55 001165   200323 235100                    LDA     I,,AUTO
        55 001166   000001 735000                    ALS     1
        55 001167   000100 100405                    MLR     fill='000'O
        55 001170   000002 000002 23                 ADSC9   CORRECTION+2,A           cn=0,n=2
        55 001171   201444 000004                    ADSC9   I+2,,AUTO                cn=0,n=4
        55 001172   201444 236100                    LDQ     I+2,,AUTO
        55 001173   000022 732000                    QRS     18
        55 001174   000017 402007                    MPY     15,DL
        55 001175   000000 116003                    CMPQ    0,DU
        55 001176   001200 605000 55                 TPL     s:19787+11
        55 001177   000044 036003                    ADLQ    36,DU
        55 001200   003100 061406                    CSR     bolr='003'O
        55 001201   000000 210005 xsym               BDSC    TERM_STRING,Q            by=1,bit=1,n=5
        55 001202   201445 000044                    BDSC    I+3,,AUTO                by=0,bit=0,n=36
        55 001203   201445 236100                    LDQ     I+3,,AUTO
        55 001204   200323 235100                    LDA     I,,AUTO
        55 001205   000001 735000                    ALS     1
        55 001206   000100 100405                    MLR     fill='000'O
        55 001207   000002 000002 23                 ADSC9   CORRECTION+2,A           cn=0,n=2
        55 001210   201446 000004                    ADSC9   I+4,,AUTO                cn=0,n=4
        55 001211   201447 756100                    STQ     I+5,,AUTO
PL6.E3A0      #001=PARSER File=Z8PP.:Z8A6TSI                                     SAT 08/09/97 09:40 Page:51
        55 001212   201446 236100                    LDQ     I+4,,AUTO
        55 001213   000022 732000                    QRS     18
        55 001214   000017 402007                    MPY     15,DL
        55 001215   201451 756100                    STQ     I+7,,AUTO
        55 001216   000000 116003                    CMPQ    0,DU
        55 001217   001221 605000 55                 TPL     s:19787+28
        55 001220   000044 036003                    ADLQ    36,DU
        55 001221   003100 061406                    CSR     bolr='003'O
        55 001222   000000 000012 xsym               BDSC    TERM_STRING,Q            by=0,bit=0,n=10
        55 001223   201450 000044                    BDSC    I+6,,AUTO                by=0,bit=0,n=36
        55 001224   201450 236100                    LDQ     I+6,,AUTO
        55 001225   201451 235100                    LDA     I+7,,AUTO
        55 001226   001230 605000 55                 TPL     s:19787+35
        55 001227   000044 035003                    ADLA    36,DU
        55 001230   003100 061405                    CSR     bolr='003'O
        55 001231   000000 000012 xsym               BDSC    TERM_STRING,A            by=0,bit=0,n=10
        55 001232   201452 000022                    BDSC    I+8,,AUTO                by=0,bit=0,n=18
        55 001233   001560 220003                    LDX0    880,DU
        55 001234   201452 120100                    SBLX0   I+8,,AUTO
        55 001235   201453 756100                    STQ     I+9,,AUTO
        55 001236   201447 236100                    LDQ     I+5,,AUTO
        55 001237   201462 756100                    STQ     I+16,,AUTO
        55 001240   201453 236100                    LDQ     I+9,,AUTO
        55 001241   000020 736000                    QLS     16
        55 001242   000061 036000 56                 ADLQ    49
        55 001243   201464 756100                    STQ     I+18,,AUTO
        55 001244   201464 630500                    EPPR0   I+18,,AUTO
        55 001245   200332 450500                    STP0    @PT_PTR,,AUTO
        55 001246   201462 631500                    EPPR1   I+16,,AUTO
        55 001247   200331 451500                    STP1    @PT_LEN,,AUTO
        55 001250   200232 633500                    EPPR3   INS_CHAR_OVERFLOW,,AUTO
        55 001251   200330 453500                    STP3    @DI_CHAR_OVERFLOW,,AUTO
        55 001252   200233 634500                    EPPR4   INS,,AUTO
        55 001253   200327 454500                    STP4    @DI,,AUTO
        55 001254   000645 701000 55                 TSX1    PACK_TERM
        55 001255   000000 011000                    NOP     0

PL6.E3A0      #001=PARSER File=Z8PP.:Z8A6TSI                                     SAT 08/09/97 09:40 Page:52
  19791 55 001256   200323 054100                    AOS     I,,AUTO
        55 001257   200323 236100                    LDQ     I,,AUTO
        55 001260   000000 116000 23                 CMPQ    CORRECTION
        55 001261   001165 604000 55                 TMI     s:19787

  19793 55 001262   200233 235100                    LDA     INS,,AUTO
        55 001263   001266 604400 55                 TMOZ    s:19797

  19795 55 001264   200233 630500                    EPPR0   INS,,AUTO
        55 001265   200320 450500                    STP0    INS_DNT$,,AUTO

  19797 55 001266   000000 236000 6                  LDQ     LA_GET
        55 001267   000006 402007                    MPY     6,DL
        55 001270   000001 236006 0                  LDQ     LA_STK+1,QL
        55 001271   000020 116000 56                 CMPQ    16
        55 001272   001345 601000 55                 TNZ     s:19805

  19799 55 001273   000000 236000 6                  LDQ     LA_GET
        55 001274   000006 402007                    MPY     6,DL
        55 001275   000002 236006 0                  LDQ     LA_STK+2,QL
        55 001276   000017 402007                    MPY     15,DL
        55 001277   000000 116003                    CMPQ    0,DU
        55 001300   001302 605000 55                 TPL     s:19799+7
        55 001301   000044 036003                    ADLQ    36,DU
        55 001302   003100 061406                    CSR     bolr='003'O
        55 001303   000000 210005 xsym               BDSC    TERM_STRING,Q            by=1,bit=1,n=5
        55 001304   201444 000044                    BDSC    I+2,,AUTO                by=0,bit=0,n=36
        55 001305   201444 236100                    LDQ     I+2,,AUTO
        55 001306   000144 116007                    CMPQ    100,DL
        55 001307   001312 602000 55                 TNC     s:19799+15
        55 001310   001312 600000 55                 TZE     s:19799+15
        55 001311   000144 236007                    LDQ     100,DL
        55 001312   200265 756100                    STQ     BEF,,AUTO

  19800 55 001313   000000 236000 6                  LDQ     LA_GET
        55 001314   000006 402007                    MPY     6,DL
        55 001315   000002 236006 0                  LDQ     LA_STK+2,QL
PL6.E3A0      #001=PARSER File=Z8PP.:Z8A6TSI                                     SAT 08/09/97 09:40 Page:53
        55 001316   000017 402007                    MPY     15,DL
        55 001317   201445 756100                    STQ     I+3,,AUTO
        55 001320   000000 116003                    CMPQ    0,DU
        55 001321   001323 605000 55                 TPL     s:19800+8
        55 001322   000044 036003                    ADLQ    36,DU
        55 001323   003100 061406                    CSR     bolr='003'O
        55 001324   000000 000012 xsym               BDSC    TERM_STRING,Q            by=0,bit=0,n=10
        55 001325   201444 000044                    BDSC    I+2,,AUTO                by=0,bit=0,n=36
        55 001326   201444 236100                    LDQ     I+2,,AUTO
        55 001327   201445 235100                    LDA     I+3,,AUTO
        55 001330   001332 605000 55                 TPL     s:19800+15
        55 001331   000044 035003                    ADLA    36,DU
        55 001332   003100 061405                    CSR     bolr='003'O
        55 001333   000000 000012 xsym               BDSC    TERM_STRING,A            by=0,bit=0,n=10
        55 001334   201446 000022                    BDSC    I+4,,AUTO                by=0,bit=0,n=18
        55 001335   001560 220003                    LDX0    880,DU
        55 001336   201446 120100                    SBLX0   I+4,,AUTO
        55 001337   040100 100446                    MLR     fill='040'O
        55 001340   000000 000010 xsym               ADSC9   TSTRING_SPACE,Q          cn=0,n=*X0
        55 001341   200266 000144                    ADSC9   BEF+1,,AUTO              cn=0,n=100

  19801 55 001342   200265 630500                    EPPR0   BEF,,AUTO
        55 001343   200321 450500                    STP0    INS_BEF_DNT$,,AUTO

  19802 55 001344   001367 710000 55                 TRA     s:19813

  19805 55 001345   000000 236000 6                  LDQ     LA_GET
        55 001346   000006 402007                    MPY     6,DL
        55 001347   000001 470406 0                  LDP0    LA_STK+1,QL
        55 001350   000144 236007                    LDQ     100,DL
        55 001351   001354 604000 55                 TMI     s:19805+7
        55 001352   000000 116100                    CMPQ    0,,PR0
        55 001353   001355 604400 55                 TMOZ    s:19805+8
        55 001354   000000 236100                    LDQ     0,,PR0
        55 001355   200265 756100                    STQ     BEF,,AUTO

  19807 55 001356   000000 236000 6                  LDQ     LA_GET
PL6.E3A0      #001=PARSER File=Z8PP.:Z8A6TSI                                     SAT 08/09/97 09:40 Page:54
        55 001357   000006 402007                    MPY     6,DL
        55 001360   000001 470406 0                  LDP0    LA_STK+1,QL
        55 001361   000000 720100                    LXL0    0,,PR0
        55 001362   040100 100540                    MLR     fill='040'O
        55 001363   000001 000010                    ADSC9   1,,PR0                   cn=0,n=*X0
        55 001364   200266 000144                    ADSC9   BEF+1,,AUTO              cn=0,n=100

  19808 55 001365   200265 631500                    EPPR1   BEF,,AUTO
        55 001366   200321 451500                    STP1    INS_BEF_DNT$,,AUTO

  19813 55 001367   200322 221300                    LDX1  ! INS_BEF_DNT$+1,,AUTO
        55 001370   000001 702211                    TSX2  ! 1,X1

  19821 55 001371   000000 450000 10                 STZ     ERRLINE

  19822 55 001372   000000 450000 11                 STZ     ERRCOL

  19826 55 001373   200011 630500                    EPPR0   LC,,AUTO
        55 001374   200323 450500                    STP0    @LRC,,AUTO
        55 001375   000521 701000 55                 TSX1    CALC_CORRECTION
        55 001376   000000 011000                    NOP     0

  19827 55 001377   000760 701000 55                 TSX1    CREATE_DEL_DNT
        55 001400   000000 011000                    NOP     0

  19828 55 001401   001153 701000 55                 TSX1    CREATE_INS_DNT
        55 001402   000000 011000                    NOP     0

  19830 55 001403   200317 236100                    LDQ     DEL_DNT$,,AUTO
        55 001404   000020 116000 56                 CMPQ    16
        55 001405   001417 601000 55                 TNZ     s:19833

  19831 55 001406   200321 630500                    EPPR0   INS_BEF_DNT$,,AUTO
        55 001407   201441 450500                    STP0    @PLUG2$,,AUTO
        55 001410   200320 631500                    EPPR1   INS_DNT$,,AUTO
        55 001411   201440 451500                    STP1    @PLUG1$,,AUTO
        55 001412   000023 236000 56                 LDQ     19
PL6.E3A0      #001=PARSER File=Z8PP.:Z8A6TSI                                     SAT 08/09/97 09:40 Page:55
        55 001413   201437 756100                    STQ     @ERROR_TYPE,,AUTO
        55 001414   000005 701000 55                 TSX1    ERROR
        55 001415   000000 011000                    NOP     0
        55 001416   001443 710000 55                 TRA     s:19838

  19833 55 001417   200320 236100                    LDQ     INS_DNT$,,AUTO
        55 001420   000020 116000 56                 CMPQ    16
        55 001421   001433 601000 55                 TNZ     s:19836

  19834 55 001422   000020 236000 56                 LDQ     16
        55 001423   201441 756100                    STQ     @PLUG2$,,AUTO
        55 001424   200317 630500                    EPPR0   DEL_DNT$,,AUTO
        55 001425   201440 450500                    STP0    @PLUG1$,,AUTO
        55 001426   000066 236000 56                 LDQ     54
        55 001427   201437 756100                    STQ     @ERROR_TYPE,,AUTO
        55 001430   000005 701000 55                 TSX1    ERROR
        55 001431   000000 011000                    NOP     0
        55 001432   001443 710000 55                 TRA     s:19838

  19836 55 001433   200320 630500                    EPPR0   INS_DNT$,,AUTO
        55 001434   201441 450500                    STP0    @PLUG2$,,AUTO
        55 001435   200317 631500                    EPPR1   DEL_DNT$,,AUTO
        55 001436   201440 451500                    STP1    @PLUG1$,,AUTO
        55 001437   000070 236000 56                 LDQ     56
        55 001440   201437 756100                    STQ     @ERROR_TYPE,,AUTO
        55 001441   000005 701000 55                 TSX1    ERROR
        55 001442   000000 011000                    NOP     0

  19838 55 001443   000000 235000 23                 LDA     CORRECTION
        55 001444   001456 604400 55                 TMOZ    s:19847

  19840 55 001445   000000 236000 6                  LDQ     LA_GET
        55 001446   000000 756000 12                 STQ     ERR_LA_GET

  19841 55 001447   000000 235000 5                  LDA     LA_PUT
        55 001450   000000 755000 13                 STA     ERR_LA_PUT

PL6.E3A0      #001=PARSER File=Z8PP.:Z8A6TSI                                     SAT 08/09/97 09:40 Page:56
  19842 55 001451   000000 235000 4                  LDA     LA_CNT
        55 001452   000000 755000 14                 STA     ERR_LA_CNT

  19843 55 001453   000000 450000 4                  STZ     LA_CNT

  19844 55 001454   000000 235000 5                  LDA     LA_PUT
        55 001455   000000 755000 6                  STA     LA_GET

  19847 55 001456   200176 221300                    LDX1  ! ACCUM_INS_TO_SYM+2,,AUTO
        55 001457   000001 702211                    TSX2  ! 1,X1

  20014 55 001460   200176 741300       LR_INSERT    STX1  ! ACCUM_INS_TO_SYM+2,,AUTO
        55 001461   001634 710000 55                 TRA     s:20183

  20113 55 001462   201434 741300       INITSTAGES   STX1  ! PELEM+1,,AUTO

  20119 55 001463   201435 450100                    STZ     I,,AUTO

  20121 55 001464   201435 236100                    LDQ     I,,AUTO
        55 001465   000064 402007                    MPY     52,DL
        55 001466   200236 630506                    EPPR0   LCC_SPACE,QL,AUTO
        55 001467   201435 720100                    LXL0    I,,AUTO
        55 001470   200222 450510                    STP0    STAGE1$,X0,AUTO

  20122 55 001471   200726 631506                    EPPR1   @PT_PTR+252,QL,AUTO
        55 001472   200230 451510                    STP1    STAGE2$,X0,AUTO

  20124 55 001473   201435 054100                    AOS     I,,AUTO
        55 001474   201435 235100                    LDA     I,,AUTO
        55 001475   000005 115007                    CMPA    5,DL
        55 001476   001464 604400 55                 TMOZ    s:20121

  20126 55 001477   200222 630500                    EPPR0   STAGE1$,,AUTO
        55 001500   200220 450500                    STP0    CURRSTAGE$,,AUTO

  20127 55 001501   200230 631500                    EPPR1   STAGE2$,,AUTO
        55 001502   200221 451500                    STP1    NEXTSTAGE$,,AUTO
PL6.E3A0      #001=PARSER File=Z8PP.:Z8A6TSI                                     SAT 08/09/97 09:40 Page:57

  20128 55 001503   001511 701000 55                 TSX1    NEWSTAGE
        55 001504   000000 011000                    NOP     0

  20129 55 001505   001511 701000 55                 TSX1    NEWSTAGE
        55 001506   000000 011000                    NOP     0

  20131 55 001507   201434 221300                    LDX1  ! PELEM+1,,AUTO
        55 001510   000001 702211                    TSX2  ! 1,X1

  20134 55 001511   201436 741300       NEWSTAGE     STX1  ! @PREVSTATE+1,,AUTO

  20140 55 001512   200221 236100                    LDQ     NEXTSTAGE$,,AUTO
        55 001513   201440 756100                    STQ     TPTR,,AUTO

  20141 55 001514   200220 236100                    LDQ     CURRSTAGE$,,AUTO
        55 001515   200221 756100                    STQ     NEXTSTAGE$,,AUTO

  20142 55 001516   201440 236100                    LDQ     TPTR,,AUTO
        55 001517   200220 756100                    STQ     CURRSTAGE$,,AUTO

  20144 55 001520   201437 450100                    STZ     I,,AUTO

  20146 55 001521   200221 470500                    LDP0    NEXTSTAGE$,,AUTO
        55 001522   201437 720100                    LXL0    I,,AUTO
        55 001523   000000 471510                    LDP1    0,X0,PR0
        55 001524   000100 101400                    MRL     fill='000'O
        55 001525   000071 000004 56                 ADSC9   57                       cn=0,n=4
        55 001526   100000 000002                    ADSC9   0,,PR1                   cn=0,n=2

  20147 55 001527   000000 471510                    LDP1    0,X0,PR0
        55 001530   000100 101400                    MRL     fill='000'O
        55 001531   000000 000004 56                 ADSC9   0                        cn=0,n=4
        55 001532   100000 400002                    ADSC9   0,,PR1                   cn=2,n=2

  20149 55 001533   201437 054100                    AOS     I,,AUTO
        55 001534   201437 235100                    LDA     I,,AUTO
PL6.E3A0      #001=PARSER File=Z8PP.:Z8A6TSI                                     SAT 08/09/97 09:40 Page:58
        55 001535   000005 115007                    CMPA    5,DL
        55 001536   001521 604400 55                 TMOZ    s:20146

  20151 55 001537   201436 221300                    LDX1  ! @PREVSTATE+1,,AUTO
        55 001540   000001 702211                    TSX2  ! 1,X1

  20155 55 001541   201434 741300       FINDPRED     STX1  ! PELEM+1,,AUTO

  20165 55 001542   201435 470500                    LDP0    @PREVSTATE,,AUTO
        55 001543   000000 235100                    LDA     0,,PR0
        55 001544   000002 735000                    ALS     2
        55 001545   001547 605000 55                 TPL     s:20165+5
        55 001546   000006 035003                    ADLA    6,DU
        55 001547   000100 101405                    MRL     fill='000'O
        55 001550   777777 420002 xsym               ADSC6   STATE_ITEM-1,A           cn=4,n=2
        55 001551   201444 020006                    ADSC6   I+2,,AUTO                cn=0,n=6
        55 001552   201444 236100                    LDQ     I+2,,AUTO
        55 001553   000001 036007                    ADLQ    1,DL
        55 001554   201440 756100                    STQ     I,,AUTO

  20167 55 001555   001557 710000 55                 TRA     s:20170

  20169 55 001556   201440 054100                    AOS     I,,AUTO

  20170 55 001557   201436 470500                    LDP0    @SUCCSTATE,,AUTO
        55 001560   201440 236100                    LDQ     I,,AUTO
        55 001561   000033 402007                    MPY     27,DL
        55 001562   000000 116003                    CMPQ    0,DU
        55 001563   001565 605000 55                 TPL     s:20170+6
        55 001564   000044 036003                    ADLQ    36,DU
        55 001565   003100 060406                    CSL     bolr='003'O
        55 001566   000000 000013 xsym               BDSC    ITEM,Q                   by=0,bit=0,n=11
        55 001567   201444 000044                    BDSC    I+2,,AUTO                by=0,bit=0,n=36
        55 001570   201444 236100                    LDQ     I+2,,AUTO
        55 001571   000031 732000                    QRS     25
        55 001572   000000 116100                    CMPQ    0,,PR0
        55 001573   001556 601000 55                 TNZ     s:20169
PL6.E3A0      #001=PARSER File=Z8PP.:Z8A6TSI                                     SAT 08/09/97 09:40 Page:59
        55 001574   201437 471500                    LDP1    @ITM,,AUTO
        55 001575   201440 236100                    LDQ     I,,AUTO
        55 001576   000033 402007                    MPY     27,DL
        55 001577   000000 116003                    CMPQ    0,DU
        55 001600   001602 605000 55                 TPL     s:20170+19
        55 001601   000044 036003                    ADLQ    36,DU
        55 001602   003100 061406                    CSR     bolr='003'O
        55 001603   000000 220003 xsym               BDSC    ITEM,Q                   by=1,bit=2,n=3
        55 001604   201445 000044                    BDSC    I+3,,AUTO                by=0,bit=0,n=36
        55 001605   201445 236100                    LDQ     I+3,,AUTO
        55 001606   100000 116100                    CMPQ    0,,PR1
        55 001607   001556 601000 55                 TNZ     s:20169

  20172 55 001610   201440 235100                    LDA     I,,AUTO
        55 001611   201417 755100                    STA     PRED_ITEM,,AUTO

  20173 55 001612   201435 473500                    LDP3    @PREVSTATE,,AUTO
        55 001613   300000 235100                    LDA     0,,PR3
        55 001614   000002 735000                    ALS     2
        55 001615   400000 220003                    LDX0    -131072,DU
        55 001616   000000 115003                    CMPA    0,DU
        55 001617   001621 605000 55                 TPL     s:20173+7
        55 001620   000006 035003                    ADLA    6,DU
        55 001621   000100 101405                    MRL     fill='000'O
        55 001622   000000 020002 xsym               ADSC6   STATE_ITEM,A             cn=0,n=2
        55 001623   201444 020006                    ADSC6   I+2,,AUTO                cn=0,n=6
        55 001624   201444 236100                    LDQ     I+2,,AUTO
        55 001625   201440 116100                    CMPQ    I,,AUTO
        55 001626   001630 604000 55                 TMI     s:20173+14
        55 001627   000000 220003                    LDX0    0,DU
        55 001630   000000 636010                    EAQ     0,X0
        55 001631   201420 756100                    STQ     PRED_CLOSURE,,AUTO

  20175 55 001632   201434 221300                    LDX1  ! PELEM+1,,AUTO
        55 001633   000001 702211                    TSX2  ! 1,X1

  20183 55 001634   001462 701000 55                 TSX1    INITSTAGES
PL6.E3A0      #001=PARSER File=Z8PP.:Z8A6TSI                                     SAT 08/09/97 09:40 Page:60
        55 001635   000000 011000                    NOP     0

  20185 55 001636   000000 235000 9                  LDA     PARSE_STACK_IDX
        55 001637   000022 731000                    ARS     18
        55 001640   200201 755100                    STA     K,,AUTO

  20187 55 001641   303237 236007                    LDQ     99999,DL
        55 001642   200105 756100                    STQ     LR+4,,AUTO

  20188 55 001643   200104 450100                    STZ     LR+3,,AUTO

  20193 55 001644   000000 235005 8                  LDA     PARSE_STACK,AL
        55 001645   000002 735000                    ALS     2
        55 001646   001650 605000 55                 TPL     s:20193+4
        55 001647   000006 035003                    ADLA    6,DU
        55 001650   000100 101405                    MRL     fill='000'O
        55 001651   777777 420002 xsym               ADSC6   STATE_ITEM-1,A           cn=4,n=2
        55 001652   201444 020006                    ADSC6   I+2,,AUTO                cn=0,n=6
        55 001653   201444 236100                    LDQ     I+2,,AUTO
        55 001654   000001 036007                    ADLQ    1,DL
        55 001655   200206 756100                    STQ     LOWBASIS,,AUTO

  20194 55 001656   000000 220000 9                  LDX0    PARSE_STACK_IDX
        55 001657   000000 235010 8                  LDA     PARSE_STACK,X0
        55 001660   000002 735000                    ALS     2
        55 001661   001663 605000 55                 TPL     s:20194+5
        55 001662   000006 035003                    ADLA    6,DU
        55 001663   000100 101405                    MRL     fill='000'O
        55 001664   000000 020002 xsym               ADSC6   STATE_ITEM,A             cn=0,n=2
        55 001665   200207 020006                    ADSC6   HIGHBASIS,,AUTO          cn=0,n=6

  20197 55 001666   303237 235007                    LDA     99999,DL
        55 001667   200211 755100                    STA     MINCOST,,AUTO

  20199 55 001670   200177 756100                    STQ     I,,AUTO
        55 001671   002163 710000 55                 TRA     s:20251+1

PL6.E3A0      #001=PARSER File=Z8PP.:Z8A6TSI                                     SAT 08/09/97 09:40 Page:61
  20204 55 001672   200177 236100                    LDQ     I,,AUTO
        55 001673   200206 136100                    SBLQ    LOWBASIS,,AUTO
        55 001674   200220 470500                    LDP0    CURRSTAGE$,,AUTO
        55 001675   000000 471506                    LDP1    0,QL,PR0
        55 001676   200177 236100                    LDQ     I,,AUTO
        55 001677   000033 402007                    MPY     27,DL
        55 001700   000000 116003                    CMPQ    0,DU
        55 001701   001703 605000 55                 TPL     s:20204+9
        55 001702   000044 036003                    ADLQ    36,DU
        55 001703   003100 061406                    CSR     bolr='003'O
        55 001704   000000 450004 xsym               BDSC    ITEM,Q                   by=2,bit=5,n=4
        55 001705   100000 400022                    BDSC    0,,PR1                   by=2,bit=0,n=18

  20205 55 001706   200202 450100                    STZ     I2,,AUTO

  20206 55 001707   200216 450100                    STZ     TRYCOST,,AUTO

  20207 55 001710   200177 236100                    LDQ     I,,AUTO
        55 001711   200206 136100                    SBLQ    LOWBASIS,,AUTO
        55 001712   000000 471506                    LDP1    0,QL,PR0
        55 001713   000100 101400                    MRL     fill='000'O
        55 001714   000000 000004 56                 ADSC9   0                        cn=0,n=4
        55 001715   100000 000002                    ADSC9   0,,PR1                   cn=0,n=2

  20209 55 001716   200177 236100                    LDQ     I,,AUTO
        55 001717   000033 402007                    MPY     27,DL
        55 001720   000000 116003                    CMPQ    0,DU
        55 001721   001723 605000 55                 TPL     s:20209+5
        55 001722   000044 036003                    ADLQ    36,DU
        55 001723   003100 061406                    CSR     bolr='003'O
        55 001724   000000 250011 xsym               BDSC    ITEM,Q                   by=1,bit=5,n=9
        55 001725   200200 000044                    BDSC    J,,AUTO                  by=0,bit=0,n=36
        55 001726   002135 710000 55                 TRA     s:20249+1

  20213 55 001727   200103 236100                    LDQ     LR+2,,AUTO
        55 001730   000006 402007                    MPY     6,DL
        55 001731   000002 235006 0                  LDA     LA_STK+2,QL
PL6.E3A0      #001=PARSER File=Z8PP.:Z8A6TSI                                     SAT 08/09/97 09:40 Page:62
        55 001732   000001 735000                    ALS     1
        55 001733   001735 605000 55                 TPL     s:20213+6
        55 001734   000006 035003                    ADLA    6,DU
        55 001735   000100 101405                    MRL     fill='000'O
        55 001736   000000 020002 xsym               ADSC6   LCP_UBOUND,A             cn=0,n=2
        55 001737   200203 020006                    ADSC6   H,,AUTO                  cn=0,n=6

  20214 55 001740   000002 235006 0                  LDA     LA_STK+2,QL
        55 001741   000001 735000                    ALS     1
        55 001742   001744 605000 55                 TPL     s:20214+4
        55 001743   000006 035003                    ADLA    6,DU
        55 001744   000100 101405                    MRL     fill='000'O
        55 001745   777777 420002 xsym               ADSC6   LCP_UBOUND-1,A           cn=4,n=2
        55 001746   201444 020006                    ADSC6   I+2,,AUTO                cn=0,n=6
        55 001747   201444 236100                    LDQ     I+2,,AUTO
        55 001750   000001 036007                    ADLQ    1,DL
        55 001751   200204 756100                    STQ     L,,AUTO

  20215 55 001752   000001 335007                    LCA     1,DL
        55 001753   200215 755100                    STA     LCP_ELEM_RET,,AUTO

  20216 55 001754   200203 116100                    CMPQ    H,,AUTO
        55 001755   001757 600000 55                 TZE     s:20217
        55 001756   002032 603000 55                 TRC     s:20232

  20217 55 001757   200204 236100                    LDQ     L,,AUTO
        55 001760   200203 036100                    ADLQ    H,,AUTO
        55 001761   000001 772000                    QRL     1
        55 001762   200205 756100                    STQ     M,,AUTO

  20218 55 001763   000047 402007                    MPY     39,DL
        55 001764   003100 061406                    CSR     bolr='003'O
        55 001765   000000 000022 xsym               BDSC    LCP,Q                    by=0,bit=0,n=18
        55 001766   201444 000044                    BDSC    I+2,,AUTO                by=0,bit=0,n=36
        55 001767   200200 235100                    LDA     J,,AUTO
        55 001770   000100 101405                    MRL     fill='000'O
        55 001771   000000 000001 xsym               ADSC9   PATH_ELEM,A              cn=0,n=1
PL6.E3A0      #001=PARSER File=Z8PP.:Z8A6TSI                                     SAT 08/09/97 09:40 Page:63
        55 001772   201445 000004                    ADSC9   I+3,,AUTO                cn=0,n=4
        55 001773   201445 236100                    LDQ     I+3,,AUTO
        55 001774   201444 116100                    CMPQ    I+2,,AUTO
        55 001775   002004 601000 55                 TNZ     s:20224

  20220 55 001776   200205 236100                    LDQ     M,,AUTO
        55 001777   200215 756100                    STQ     LCP_ELEM_RET,,AUTO

  20221 55 002000   200204 235100                    LDA     L,,AUTO
        55 002001   000001 135007                    SBLA    1,DL
        55 002002   200203 755100                    STA     H,,AUTO

  20222 55 002003   002027 710000 55                 TRA     s:20228

  20224 55 002004   200205 236100                    LDQ     M,,AUTO
        55 002005   000047 402007                    MPY     39,DL
        55 002006   003100 061406                    CSR     bolr='003'O
        55 002007   000000 000022 xsym               BDSC    LCP,Q                    by=0,bit=0,n=18
        55 002010   201444 000044                    BDSC    I+2,,AUTO                by=0,bit=0,n=36
        55 002011   200200 235100                    LDA     J,,AUTO
        55 002012   000100 101405                    MRL     fill='000'O
        55 002013   000000 000001 xsym               ADSC9   PATH_ELEM,A              cn=0,n=1
        55 002014   201445 000004                    ADSC9   I+3,,AUTO                cn=0,n=4
        55 002015   201445 236100                    LDQ     I+3,,AUTO
        55 002016   201444 116100                    CMPQ    I+2,,AUTO
        55 002017   002024 605000 55                 TPL     s:20227

  20225 55 002020   200205 236100                    LDQ     M,,AUTO
        55 002021   000001 136007                    SBLQ    1,DL
        55 002022   200203 756100                    STQ     H,,AUTO
        55 002023   002027 710000 55                 TRA     s:20228

  20227 55 002024   200205 235100                    LDA     M,,AUTO
        55 002025   000001 035007                    ADLA    1,DL
        55 002026   200204 755100                    STA     L,,AUTO

  20228 55 002027   200203 236100                    LDQ     H,,AUTO
PL6.E3A0      #001=PARSER File=Z8PP.:Z8A6TSI                                     SAT 08/09/97 09:40 Page:64
        55 002030   200204 116100                    CMPQ    L,,AUTO
        55 002031   001757 603000 55                 TRC     s:20217

  20232 55 002032   200215 235100                    LDA     LCP_ELEM_RET,,AUTO
        55 002033   002070 604000 55                 TMI     s:20244

  20234 55 002034   200177 236100                    LDQ     I,,AUTO
        55 002035   200206 136100                    SBLQ    LOWBASIS,,AUTO
        55 002036   200220 470500                    LDP0    CURRSTAGE$,,AUTO
        55 002037   000000 471506                    LDP1    0,QL,PR0
        55 002040   200215 236100                    LDQ     LCP_ELEM_RET,,AUTO
        55 002041   000047 402007                    MPY     39,DL
        55 002042   000000 116003                    CMPQ    0,DU
        55 002043   002045 605000 55                 TPL     s:20234+9
        55 002044   000044 036003                    ADLQ    36,DU
        55 002045   003100 061406                    CSR     bolr='003'O
        55 002046   000000 400010 xsym               BDSC    LCP,Q                    by=2,bit=0,n=8
        55 002047   201444 000044                    BDSC    I+2,,AUTO                by=0,bit=0,n=36
        55 002050   000100 100500                    MLR     fill='000'O
        55 002051   100000 000002                    ADSC9   0,,PR1                   cn=0,n=2
        55 002052   201445 000004                    ADSC9   I+3,,AUTO                cn=0,n=4
        55 002053   201445 236100                    LDQ     I+3,,AUTO
        55 002054   000022 732000                    QRS     18
        55 002055   201444 036100                    ADLQ    I+2,,AUTO
        55 002056   200216 756100                    STQ     TRYCOST,,AUTO

  20235 55 002057   200211 116100                    CMPQ    MINCOST,,AUTO
        55 002060   002070 605000 55                 TPL     s:20244

  20237 55 002061   200177 235100                    LDA     I,,AUTO
        55 002062   200210 755100                    STA     MINITEM,,AUTO

  20238 55 002063   200200 235100                    LDA     J,,AUTO
        55 002064   200212 755100                    STA     MINPOS,,AUTO

  20239 55 002065   200211 756100                    STQ     MINCOST,,AUTO

PL6.E3A0      #001=PARSER File=Z8PP.:Z8A6TSI                                     SAT 08/09/97 09:40 Page:65
  20240 55 002066   200215 235100                    LDA     LCP_ELEM_RET,,AUTO
        55 002067   200213 755100                    STA     MINLCPINDX,,AUTO

  20244 55 002070   200177 236100                    LDQ     I,,AUTO
        55 002071   200206 136100                    SBLQ    LOWBASIS,,AUTO
        55 002072   200220 470500                    LDP0    CURRSTAGE$,,AUTO
        55 002073   000000 471506                    LDP1    0,QL,PR0
        55 002074   200177 236100                    LDQ     I,,AUTO
        55 002075   200206 136100                    SBLQ    LOWBASIS,,AUTO
        55 002076   000000 473506                    LDP3    0,QL,PR0
        55 002077   200200 235100                    LDA     J,,AUTO
        55 002100   000100 101405                    MRL     fill='000'O
        55 002101   000000 000001 xsym               ADSC9   PATH_ELEM,A              cn=0,n=1
        55 002102   201444 000004                    ADSC9   I+2,,AUTO                cn=0,n=4
        55 002103   201444 236100                    LDQ     I+2,,AUTO
        55 002104   000036 402007                    MPY     30,DL
        55 002105   003100 061406                    CSR     bolr='003'O
        55 002106   000000 000021 xsym               BDSC    LCS,Q                    by=0,bit=0,n=17
        55 002107   201445 000044                    BDSC    I+3,,AUTO                by=0,bit=0,n=36
        55 002110   000100 100500                    MLR     fill='000'O
        55 002111   300000 000002                    ADSC9   0,,PR3                   cn=0,n=2
        55 002112   201446 000004                    ADSC9   I+4,,AUTO                cn=0,n=4
        55 002113   201446 236100                    LDQ     I+4,,AUTO
        55 002114   000022 732000                    QRS     18
        55 002115   201445 036100                    ADLQ    I+3,,AUTO
        55 002116   201447 756100                    STQ     I+5,,AUTO
        55 002117   000100 101500                    MRL     fill='000'O
        55 002120   201447 000004                    ADSC9   I+5,,AUTO                cn=0,n=4
        55 002121   100000 000002                    ADSC9   0,,PR1                   cn=0,n=2

  20246 55 002122   200177 236100                    LDQ     I,,AUTO
        55 002123   200206 136100                    SBLQ    LOWBASIS,,AUTO
        55 002124   000000 471506                    LDP1    0,QL,PR0
        55 002125   200202 235100                    LDA     I2,,AUTO
        55 002126   000001 735000                    ALS     1
        55 002127   200200 236100                    LDQ     J,,AUTO
        55 002130   000105 101406                    MRL     fill='000'O
PL6.E3A0      #001=PARSER File=Z8PP.:Z8A6TSI                                     SAT 08/09/97 09:40 Page:66
        55 002131   000000 000001 xsym               ADSC9   PATH_ELEM,Q              cn=0,n=1
        55 002132   100001 000002                    ADSC9   1,A,PR1                  cn=0,n=2

  20248 55 002133   200202 054100                    AOS     I2,,AUTO

  20249 55 002134   200200 054100                    AOS     J,,AUTO
        55 002135   200177 236100                    LDQ     I,,AUTO
        55 002136   000033 402007                    MPY     27,DL
        55 002137   000000 116003                    CMPQ    0,DU
        55 002140   002142 605000 55                 TPL     s:20249+6
        55 002141   000044 036003                    ADLQ    36,DU
        55 002142   003100 061406                    CSR     bolr='003'O
        55 002143   000000 450004 xsym               BDSC    ITEM,Q                   by=2,bit=5,n=4
        55 002144   201444 000044                    BDSC    I+2,,AUTO                by=0,bit=0,n=36
        55 002145   200177 236100                    LDQ     I,,AUTO
        55 002146   000033 402007                    MPY     27,DL
        55 002147   000000 116003                    CMPQ    0,DU
        55 002150   002152 605000 55                 TPL     s:20249+14
        55 002151   000044 036003                    ADLQ    36,DU
        55 002152   003100 061406                    CSR     bolr='003'O
        55 002153   000000 250011 xsym               BDSC    ITEM,Q                   by=1,bit=5,n=9
        55 002154   201445 000044                    BDSC    I+3,,AUTO                by=0,bit=0,n=36
        55 002155   201445 236100                    LDQ     I+3,,AUTO
        55 002156   201444 036100                    ADLQ    I+2,,AUTO
        55 002157   001727 604000 55                 TMI     s:20213
        55 002160   200200 116100                    CMPQ    J,,AUTO
        55 002161   001727 605400 55                 TPNZ    s:20213

  20251 55 002162   200177 054100                    AOS     I,,AUTO
        55 002163   200177 236100                    LDQ     I,,AUTO
        55 002164   200207 116100                    CMPQ    HIGHBASIS,,AUTO
        55 002165   001672 604400 55                 TMOZ    s:20204

  20255 55 002166   200211 235100                    LDA     MINCOST,,AUTO
        55 002167   303237 115007                    CMPA    99999,DL
        55 002170   002303 605000 55                 TPL     s:20281

PL6.E3A0      #001=PARSER File=Z8PP.:Z8A6TSI                                     SAT 08/09/97 09:40 Page:67
  20257 55 002171   200105 755100                    STA     LR+4,,AUTO

  20258 55 002172   200104 450100                    STZ     LR+3,,AUTO

  20260 55 002173   200210 236100                    LDQ     MINITEM,,AUTO
        55 002174   000033 402007                    MPY     27,DL
        55 002175   000000 116003                    CMPQ    0,DU
        55 002176   002200 605000 55                 TPL     s:20260+5
        55 002177   000044 036003                    ADLQ    36,DU
        55 002200   003100 061406                    CSR     bolr='003'O
        55 002201   000000 250011 xsym               BDSC    ITEM,Q                   by=1,bit=5,n=9
        55 002202   200200 000044                    BDSC    J,,AUTO                  by=0,bit=0,n=36
        55 002203   002214 710000 55                 TRA     s:20265+1

  20262 55 002204   200104 235100                    LDA     LR+3,,AUTO
        55 002205   000001 735000                    ALS     1
        55 002206   200200 236100                    LDQ     J,,AUTO
        55 002207   000105 101406                    MRL     fill='000'O
        55 002210   000000 000001 xsym               ADSC9   PATH_ELEM,Q              cn=0,n=1
        55 002211   200106 000002                    ADSC9   LR+5,A,AUTO              cn=0,n=2

  20263 55 002212   200104 054100                    AOS     LR+3,,AUTO

  20265 55 002213   200200 054100                    AOS     J,,AUTO
        55 002214   200200 236100                    LDQ     J,,AUTO
        55 002215   200212 116100                    CMPQ    MINPOS,,AUTO
        55 002216   002204 604000 55                 TMI     s:20262

  20269 55 002217   200213 236100                    LDQ     MINLCPINDX,,AUTO
        55 002220   000047 402007                    MPY     39,DL
        55 002221   000000 116003                    CMPQ    0,DU
        55 002222   002224 605000 55                 TPL     s:20269+5
        55 002223   000044 036003                    ADLQ    36,DU
        55 002224   003100 061406                    CSR     bolr='003'O
        55 002225   000000 700004 xsym               BDSC    LCP,Q                    by=3,bit=8,n=4
        55 002226   201444 000044                    BDSC    I+2,,AUTO                by=0,bit=0,n=36
        55 002227   201444 236100                    LDQ     I+2,,AUTO
PL6.E3A0      #001=PARSER File=Z8PP.:Z8A6TSI                                     SAT 08/09/97 09:40 Page:68
        55 002230   200104 036100                    ADLQ    LR+3,,AUTO
        55 002231   000144 116007                    CMPQ    100,DL
        55 002232   002235 604400 55                 TMOZ    s:20272

  20270 55 002233   000503 701000 55                 TSX1    ABORT_CORRECTION
        55 002234   000000 011000                    NOP     0

  20272 55 002235   200213 236100                    LDQ     MINLCPINDX,,AUTO
        55 002236   000047 402007                    MPY     39,DL
        55 002237   000000 116003                    CMPQ    0,DU
        55 002240   002242 605000 55                 TPL     s:20272+5
        55 002241   000044 036003                    ADLQ    36,DU
        55 002242   003100 061406                    CSR     bolr='003'O
        55 002243   000000 500011 xsym               BDSC    LCP,Q                    by=2,bit=8,n=9
        55 002244   200200 000044                    BDSC    J,,AUTO                  by=0,bit=0,n=36
        55 002245   002256 710000 55                 TRA     s:20278+1

  20275 55 002246   200104 235100                    LDA     LR+3,,AUTO
        55 002247   000001 735000                    ALS     1
        55 002250   200200 236100                    LDQ     J,,AUTO
        55 002251   000105 101406                    MRL     fill='000'O
        55 002252   000000 000001 xsym               ADSC9   LCP_ELEM,Q               cn=0,n=1
        55 002253   200106 000002                    ADSC9   LR+5,A,AUTO              cn=0,n=2

  20276 55 002254   200104 054100                    AOS     LR+3,,AUTO

  20278 55 002255   200200 054100                    AOS     J,,AUTO
        55 002256   200213 236100                    LDQ     MINLCPINDX,,AUTO
        55 002257   000047 402007                    MPY     39,DL
        55 002260   000000 116003                    CMPQ    0,DU
        55 002261   002263 605000 55                 TPL     s:20278+6
        55 002262   000044 036003                    ADLQ    36,DU
        55 002263   003100 061406                    CSR     bolr='003'O
        55 002264   000000 700004 xsym               BDSC    LCP,Q                    by=3,bit=8,n=4
        55 002265   201444 000044                    BDSC    I+2,,AUTO                by=0,bit=0,n=36
        55 002266   200213 236100                    LDQ     MINLCPINDX,,AUTO
        55 002267   000047 402007                    MPY     39,DL
PL6.E3A0      #001=PARSER File=Z8PP.:Z8A6TSI                                     SAT 08/09/97 09:40 Page:69
        55 002270   000000 116003                    CMPQ    0,DU
        55 002271   002273 605000 55                 TPL     s:20278+14
        55 002272   000044 036003                    ADLQ    36,DU
        55 002273   003100 061406                    CSR     bolr='003'O
        55 002274   000000 500011 xsym               BDSC    LCP,Q                    by=2,bit=8,n=9
        55 002275   201445 000044                    BDSC    I+3,,AUTO                by=0,bit=0,n=36
        55 002276   201445 236100                    LDQ     I+3,,AUTO
        55 002277   201444 036100                    ADLQ    I+2,,AUTO
        55 002300   002246 604000 55                 TMI     s:20275
        55 002301   200200 116100                    CMPQ    J,,AUTO
        55 002302   002246 605400 55                 TPNZ    s:20275

  20281 55 002303   400000 220003                    LDX0    -131072,DU
        55 002304   200201 235100                    LDA     K,,AUTO
        55 002305   002307 605400 55                 TPNZ    s:20281+4
        55 002306   000000 220003                    LDX0    0,DU
        55 002307   000000 636010                    EAQ     0,X0
        55 002310   201421 756100                    STQ     WORTHCONTINUING,,AUTO

  20283 55 002311   201421 234100                    SZN     WORTHCONTINUING,,AUTO
        55 002312   003441 605000 55                 TPL     s:20446

  20285 55 002313   201421 450100                    STZ     WORTHCONTINUING,,AUTO

  20291 55 002314   200201 720100                    LXL0    K,,AUTO
        55 002315   000000 235010 8                  LDA     PARSE_STACK,X0
        55 002316   000002 735000                    ALS     2
        55 002317   002321 605000 55                 TPL     s:20291+5
        55 002320   000006 035003                    ADLA    6,DU
        55 002321   000100 101405                    MRL     fill='000'O
        55 002322   777777 420002 xsym               ADSC6   STATE_ITEM-1,A           cn=4,n=2
        55 002323   201444 020006                    ADSC6   I+2,,AUTO                cn=0,n=6
        55 002324   201444 236100                    LDQ     I+2,,AUTO
        55 002325   000001 036007                    ADLQ    1,DL
        55 002326   201422 756100                    STQ     CURRLOWBASIS,,AUTO

  20292 55 002327   000000 235010 8                  LDA     PARSE_STACK,X0
PL6.E3A0      #001=PARSER File=Z8PP.:Z8A6TSI                                     SAT 08/09/97 09:40 Page:70
        55 002330   000002 735000                    ALS     2
        55 002331   002333 605000 55                 TPL     s:20292+4
        55 002332   000006 035003                    ADLA    6,DU
        55 002333   000100 101405                    MRL     fill='000'O
        55 002334   000000 020002 xsym               ADSC6   STATE_ITEM,A             cn=0,n=2
        55 002335   201423 020006                    ADSC6   CURRHIGHBASIS,,AUTO      cn=0,n=6

  20296 55 002336   201424 450100                    STZ     ITM,,AUTO
        55 002337   003421 710000 55                 TRA     s:20432+1

  20298 55 002340   200220 470500                    LDP0    CURRSTAGE$,,AUTO
        55 002341   201424 720100                    LXL0    ITM,,AUTO
        55 002342   000000 471510                    LDP1    0,X0,PR0
        55 002343   000100 100500                    MLR     fill='000'O
        55 002344   100000 000002                    ADSC9   0,,PR1                   cn=0,n=2
        55 002345   201444 000004                    ADSC9   I+2,,AUTO                cn=0,n=4
        55 002346   201444 236100                    LDQ     I+2,,AUTO
        55 002347   000022 732000                    QRS     18
        55 002350   200105 116100                    CMPQ    LR+4,,AUTO
        55 002351   003420 605000 55                 TPL     s:20432

  20300 55 002352   400000 236003                    LDQ     -131072,DU
        55 002353   201421 756100                    STQ     WORTHCONTINUING,,AUTO

  20302 55 002354   201424 631500                    EPPR1   ITM,,AUTO
        55 002355   201437 451500                    STP1    @ERROR_TYPE,,AUTO
        55 002356   200201 721100                    LXL1    K,,AUTO
        55 002357   000000 633411 8                  EPPR3   PARSE_STACK,X1
        55 002360   201436 453500                    STP3    @PREVSTATE+1,,AUTO
        55 002361   777777 634411 8                  EPPR4   PARSE_STACK-1,X1
        55 002362   201435 454500                    STP4    PELEM+2,,AUTO
        55 002363   001541 701000 55                 TSX1    FINDPRED
        55 002364   000000 011000                    NOP     0

  20310 55 002365   200201 720100                    LXL0    K,,AUTO
        55 002366   777777 235010 8                  LDA     PARSE_STACK-1,X0
        55 002367   000002 735000                    ALS     2
PL6.E3A0      #001=PARSER File=Z8PP.:Z8A6TSI                                     SAT 08/09/97 09:40 Page:71
        55 002370   002372 605000 55                 TPL     s:20310+5
        55 002371   000006 035003                    ADLA    6,DU
        55 002372   000100 101405                    MRL     fill='000'O
        55 002373   777777 420002 xsym               ADSC6   STATE_ITEM-1,A           cn=4,n=2
        55 002374   201444 020006                    ADSC6   I+2,,AUTO                cn=0,n=6
        55 002375   201444 236100                    LDQ     I+2,,AUTO
        55 002376   000001 036007                    ADLQ    1,DL
        55 002377   201425 756100                    STQ     NEXTLOWBASIS,,AUTO

  20311 55 002400   777777 235010 8                  LDA     PARSE_STACK-1,X0
        55 002401   000002 735000                    ALS     2
        55 002402   002404 605000 55                 TPL     s:20311+4
        55 002403   000006 035003                    ADLA    6,DU
        55 002404   000100 101405                    MRL     fill='000'O
        55 002405   000000 020002 xsym               ADSC6   STATE_ITEM,A             cn=0,n=2
        55 002406   201426 020006                    ADSC6   NEXTHIGHBASIS,,AUTO      cn=0,n=6

  20315 55 002407   201420 234100                    SZN     PRED_CLOSURE,,AUTO
        55 002410   003365 605000 55                 TPL     s:20429

  20318 55 002411   201427 450100                    STZ     NEXTITEM,,AUTO
        55 002412   002705 710000 55                 TRA     s:20349+1

  20322 55 002413   201417 236100                    LDQ     PRED_ITEM,,AUTO
        55 002414   000033 402007                    MPY     27,DL
        55 002415   000000 116003                    CMPQ    0,DU
        55 002416   002420 605000 55                 TPL     s:20322+5
        55 002417   000044 036003                    ADLQ    36,DU
        55 002420   003100 061406                    CSR     bolr='003'O
        55 002421   000000 250011 xsym               BDSC    ITEM,Q                   by=1,bit=5,n=9
        55 002422   201444 000044                    BDSC    I+2,,AUTO                by=0,bit=0,n=36
        55 002423   201444 236100                    LDQ     I+2,,AUTO
        55 002424   201427 036100                    ADLQ    NEXTITEM,,AUTO
        55 002425   201430 756100                    STQ     P,,AUTO

  20324 55 002426   000016 402007                    MPY     14,DL
        55 002427   000000 116003                    CMPQ    0,DU
PL6.E3A0      #001=PARSER File=Z8PP.:Z8A6TSI                                     SAT 08/09/97 09:40 Page:72
        55 002430   002432 605000 55                 TPL     s:20324+4
        55 002431   000044 036003                    ADLQ    36,DU
        55 002432   003100 060406                    CSL     bolr='003'O
        55 002433   000000 000012 xsym               BDSC    PATH,Q                   by=0,bit=0,n=10
        55 002434   201444 000044                    BDSC    I+2,,AUTO                by=0,bit=0,n=36
        55 002435   201444 236100                    LDQ     I+2,,AUTO
        55 002436   000032 732000                    QRS     26
        55 002437   000000 116003                    CMPQ    0,DU
        55 002440   002444 605000 55                 TPL     s:20328

  20325 55 002441   303237 235007                    LDA     99999,DL
        55 002442   201432 755100                    STA     PATH_COST,,AUTO
        55 002443   002523 710000 55                 TRA     s:20333

  20328 55 002444   201432 450100                    STZ     PATH_COST,,AUTO

  20329 55 002445   201430 236100                    LDQ     P,,AUTO
        55 002446   000016 402007                    MPY     14,DL
        55 002447   000000 116003                    CMPQ    0,DU
        55 002450   002452 605000 55                 TPL     s:20329+5
        55 002451   000044 036003                    ADLQ    36,DU
        55 002452   003100 060406                    CSL     bolr='003'O
        55 002453   000000 000012 xsym               BDSC    PATH,Q                   by=0,bit=0,n=10
        55 002454   201444 000044                    BDSC    I+2,,AUTO                by=0,bit=0,n=36
        55 002455   201444 236100                    LDQ     I+2,,AUTO
        55 002456   000032 732000                    QRS     26
        55 002457   201431 756100                    STQ     PE,,AUTO
        55 002460   002476 710000 55                 TRA     s:20331+1

  20330 55 002461   201431 235100                    LDA     PE,,AUTO
        55 002462   000100 101405                    MRL     fill='000'O
        55 002463   000000 000001 xsym               ADSC9   PATH_ELEM,A              cn=0,n=1
        55 002464   201444 000004                    ADSC9   I+2,,AUTO                cn=0,n=4
        55 002465   201444 236100                    LDQ     I+2,,AUTO
        55 002466   000036 402007                    MPY     30,DL
        55 002467   003100 061406                    CSR     bolr='003'O
        55 002470   000000 000021 xsym               BDSC    LCS,Q                    by=0,bit=0,n=17
PL6.E3A0      #001=PARSER File=Z8PP.:Z8A6TSI                                     SAT 08/09/97 09:40 Page:73
        55 002471   201445 000044                    BDSC    I+3,,AUTO                by=0,bit=0,n=36
        55 002472   201445 236100                    LDQ     I+3,,AUTO
        55 002473   201432 036100                    ADLQ    PATH_COST,,AUTO
        55 002474   201432 756100                    STQ     PATH_COST,,AUTO

  20331 55 002475   201431 054100                    AOS     PE,,AUTO
        55 002476   201430 236100                    LDQ     P,,AUTO
        55 002477   000016 402007                    MPY     14,DL
        55 002500   000000 116003                    CMPQ    0,DU
        55 002501   002503 605000 55                 TPL     s:20331+6
        55 002502   000044 036003                    ADLQ    36,DU
        55 002503   003100 061406                    CSR     bolr='003'O
        55 002504   000000 210004 xsym               BDSC    PATH,Q                   by=1,bit=1,n=4
        55 002505   201444 000044                    BDSC    I+2,,AUTO                by=0,bit=0,n=36
        55 002506   201430 236100                    LDQ     P,,AUTO
        55 002507   000016 402007                    MPY     14,DL
        55 002510   000000 116003                    CMPQ    0,DU
        55 002511   002513 605000 55                 TPL     s:20331+14
        55 002512   000044 036003                    ADLQ    36,DU
        55 002513   003100 060406                    CSL     bolr='003'O
        55 002514   000000 000012 xsym               BDSC    PATH,Q                   by=0,bit=0,n=10
        55 002515   201445 000044                    BDSC    I+3,,AUTO                by=0,bit=0,n=36
        55 002516   201445 236100                    LDQ     I+3,,AUTO
        55 002517   000032 732000                    QRS     26
        55 002520   201444 036100                    ADLQ    I+2,,AUTO
        55 002521   201431 116100                    CMPQ    PE,,AUTO
        55 002522   002461 605400 55                 TPNZ    s:20330

  20333 55 002523   200220 470500                    LDP0    CURRSTAGE$,,AUTO
        55 002524   201424 720100                    LXL0    ITM,,AUTO
        55 002525   000000 471510                    LDP1    0,X0,PR0
        55 002526   000100 100500                    MLR     fill='000'O
        55 002527   100000 000002                    ADSC9   0,,PR1                   cn=0,n=2
        55 002530   201444 000004                    ADSC9   I+2,,AUTO                cn=0,n=4
        55 002531   201444 236100                    LDQ     I+2,,AUTO
        55 002532   000022 732000                    QRS     18
        55 002533   201432 036100                    ADLQ    PATH_COST,,AUTO
PL6.E3A0      #001=PARSER File=Z8PP.:Z8A6TSI                                     SAT 08/09/97 09:40 Page:74
        55 002534   200221 471500                    LDP1    NEXTSTAGE$,,AUTO
        55 002535   201427 721100                    LXL1    NEXTITEM,,AUTO
        55 002536   100000 473511                    LDP3    0,X1,PR1
        55 002537   000100 100500                    MLR     fill='000'O
        55 002540   300000 000002                    ADSC9   0,,PR3                   cn=0,n=2
        55 002541   201445 000004                    ADSC9   I+3,,AUTO                cn=0,n=4
        55 002542   201446 756100                    STQ     I+4,,AUTO
        55 002543   201445 236100                    LDQ     I+3,,AUTO
        55 002544   000022 732000                    QRS     18
        55 002545   201447 756100                    STQ     I+5,,AUTO
        55 002546   201446 236100                    LDQ     I+4,,AUTO
        55 002547   201447 116100                    CMPQ    I+5,,AUTO
        55 002550   002704 605000 55                 TPL     s:20349

  20336 55 002551   100000 473511                    LDP3    0,X1,PR1
        55 002552   000000 474510                    LDP4    0,X0,PR0
        55 002553   000100 100500                    MLR     fill='000'O
        55 002554   400000 000316                    ADSC9   0,,PR4                   cn=0,n=206
        55 002555   300000 000316                    ADSC9   0,,PR3                   cn=0,n=206

  20338 55 002556   201430 236100                    LDQ     P,,AUTO
        55 002557   000016 402007                    MPY     14,DL
        55 002560   000000 116003                    CMPQ    0,DU
        55 002561   002563 605000 55                 TPL     s:20338+5
        55 002562   000044 036003                    ADLQ    36,DU
        55 002563   003100 060406                    CSL     bolr='003'O
        55 002564   000000 000012 xsym               BDSC    PATH,Q                   by=0,bit=0,n=10
        55 002565   201444 000044                    BDSC    I+2,,AUTO                by=0,bit=0,n=36
        55 002566   201444 236100                    LDQ     I+2,,AUTO
        55 002567   000032 732000                    QRS     26
        55 002570   201431 756100                    STQ     PE,,AUTO
        55 002571   002637 710000 55                 TRA     s:20345+1

  20339 55 002572   200221 470500                    LDP0    NEXTSTAGE$,,AUTO
        55 002573   201427 720100                    LXL0    NEXTITEM,,AUTO
        55 002574   000000 471510                    LDP1    0,X0,PR0
        55 002575   000100 100500                    MLR     fill='000'O
PL6.E3A0      #001=PARSER File=Z8PP.:Z8A6TSI                                     SAT 08/09/97 09:40 Page:75
        55 002576   100000 400002                    ADSC9   0,,PR1                   cn=2,n=2
        55 002577   201444 000004                    ADSC9   I+2,,AUTO                cn=0,n=4
        55 002600   201444 236100                    LDQ     I+2,,AUTO
        55 002601   000022 732000                    QRS     18
        55 002602   000144 116007                    CMPQ    100,DL
        55 002603   002606 604000 55                 TMI     s:20341

  20340 55 002604   000503 701000 55                 TSX1    ABORT_CORRECTION
        55 002605   000000 011000                    NOP     0

  20341 55 002606   200221 470500                    LDP0    NEXTSTAGE$,,AUTO
        55 002607   201427 720100                    LXL0    NEXTITEM,,AUTO
        55 002610   000000 471510                    LDP1    0,X0,PR0
        55 002611   000100 100500                    MLR     fill='000'O
        55 002612   100000 400002                    ADSC9   0,,PR1                   cn=2,n=2
        55 002613   201444 000004                    ADSC9   I+2,,AUTO                cn=0,n=4
        55 002614   201444 236100                    LDQ     I+2,,AUTO
        55 002615   000022 732000                    QRS     18
        55 002616   000001 736000                    QLS     1
        55 002617   201431 235100                    LDA     PE,,AUTO
        55 002620   000106 101405                    MRL     fill='000'O
        55 002621   000000 000001 xsym               ADSC9   PATH_ELEM,A              cn=0,n=1
        55 002622   100001 000002                    ADSC9   1,Q,PR1                  cn=0,n=2

  20343 55 002623   000000 471510                    LDP1    0,X0,PR0
        55 002624   000100 100500                    MLR     fill='000'O
        55 002625   100000 400002                    ADSC9   0,,PR1                   cn=2,n=2
        55 002626   201445 000004                    ADSC9   I+3,,AUTO                cn=0,n=4
        55 002627   201445 236100                    LDQ     I+3,,AUTO
        55 002630   000022 732000                    QRS     18
        55 002631   000001 036007                    ADLQ    1,DL
        55 002632   201444 756100                    STQ     I+2,,AUTO
        55 002633   000100 101500                    MRL     fill='000'O
        55 002634   201444 000004                    ADSC9   I+2,,AUTO                cn=0,n=4
        55 002635   100000 400002                    ADSC9   0,,PR1                   cn=2,n=2

  20345 55 002636   201431 054100                    AOS     PE,,AUTO
PL6.E3A0      #001=PARSER File=Z8PP.:Z8A6TSI                                     SAT 08/09/97 09:40 Page:76
        55 002637   201430 236100                    LDQ     P,,AUTO
        55 002640   000016 402007                    MPY     14,DL
        55 002641   000000 116003                    CMPQ    0,DU
        55 002642   002644 605000 55                 TPL     s:20345+6
        55 002643   000044 036003                    ADLQ    36,DU
        55 002644   003100 061406                    CSR     bolr='003'O
        55 002645   000000 210004 xsym               BDSC    PATH,Q                   by=1,bit=1,n=4
        55 002646   201444 000044                    BDSC    I+2,,AUTO                by=0,bit=0,n=36
        55 002647   201430 236100                    LDQ     P,,AUTO
        55 002650   000016 402007                    MPY     14,DL
        55 002651   000000 116003                    CMPQ    0,DU
        55 002652   002654 605000 55                 TPL     s:20345+14
        55 002653   000044 036003                    ADLQ    36,DU
        55 002654   003100 060406                    CSL     bolr='003'O
        55 002655   000000 000012 xsym               BDSC    PATH,Q                   by=0,bit=0,n=10
        55 002656   201445 000044                    BDSC    I+3,,AUTO                by=0,bit=0,n=36
        55 002657   201445 236100                    LDQ     I+3,,AUTO
        55 002660   000032 732000                    QRS     26
        55 002661   201444 036100                    ADLQ    I+2,,AUTO
        55 002662   201431 116100                    CMPQ    PE,,AUTO
        55 002663   002572 605400 55                 TPNZ    s:20339

  20347 55 002664   200221 470500                    LDP0    NEXTSTAGE$,,AUTO
        55 002665   201427 720100                    LXL0    NEXTITEM,,AUTO
        55 002666   000000 471510                    LDP1    0,X0,PR0
        55 002667   200220 473500                    LDP3    CURRSTAGE$,,AUTO
        55 002670   201424 721100                    LXL1    ITM,,AUTO
        55 002671   300000 474511                    LDP4    0,X1,PR3
        55 002672   000100 100500                    MLR     fill='000'O
        55 002673   400000 000002                    ADSC9   0,,PR4                   cn=0,n=2
        55 002674   201444 000004                    ADSC9   I+2,,AUTO                cn=0,n=4
        55 002675   201444 236100                    LDQ     I+2,,AUTO
        55 002676   000022 732000                    QRS     18
        55 002677   201432 036100                    ADLQ    PATH_COST,,AUTO
        55 002700   201445 756100                    STQ     I+3,,AUTO
        55 002701   000100 101500                    MRL     fill='000'O
        55 002702   201445 000004                    ADSC9   I+3,,AUTO                cn=0,n=4
PL6.E3A0      #001=PARSER File=Z8PP.:Z8A6TSI                                     SAT 08/09/97 09:40 Page:77
        55 002703   100000 000002                    ADSC9   0,,PR1                   cn=0,n=2

  20349 55 002704   201427 054100                    AOS     NEXTITEM,,AUTO
        55 002705   201426 236100                    LDQ     NEXTHIGHBASIS,,AUTO
        55 002706   201425 136100                    SBLQ    NEXTLOWBASIS,,AUTO
        55 002707   201427 116100                    CMPQ    NEXTITEM,,AUTO
        55 002710   002413 605000 55                 TPL     s:20322

  20353 55 002711   200220 470500                    LDP0    CURRSTAGE$,,AUTO
        55 002712   201424 720100                    LXL0    ITM,,AUTO
        55 002713   000000 471510                    LDP1    0,X0,PR0
        55 002714   000100 100500                    MLR     fill='000'O
        55 002715   100000 000002                    ADSC9   0,,PR1                   cn=0,n=2
        55 002716   201444 000004                    ADSC9   I+2,,AUTO                cn=0,n=4
        55 002717   201444 236100                    LDQ     I+2,,AUTO
        55 002720   000022 732000                    QRS     18
        55 002721   200105 116100                    CMPQ    LR+4,,AUTO
        55 002722   003420 605000 55                 TPL     s:20432

  20355 55 002723   303237 235007                    LDA     99999,DL
        55 002724   200211 755100                    STA     MINCOST,,AUTO

  20358 55 002725   201417 236100                    LDQ     PRED_ITEM,,AUTO
        55 002726   000033 402007                    MPY     27,DL
        55 002727   000000 116003                    CMPQ    0,DU
        55 002730   002732 605000 55                 TPL     s:20358+5
        55 002731   000044 036003                    ADLQ    36,DU
        55 002732   003100 061406                    CSR     bolr='003'O
        55 002733   000000 250011 xsym               BDSC    ITEM,Q                   by=1,bit=5,n=9
        55 002734   201430 000044                    BDSC    P,,AUTO                  by=0,bit=0,n=36
        55 002735   003162 710000 55                 TRA     s:20400+1

  20361 55 002736   200216 450100                    STZ     TRYCOST,,AUTO

  20362 55 002737   200217 450100                    STZ     ACCUM_COST,,AUTO

  20363 55 002740   201430 236100                    LDQ     P,,AUTO
PL6.E3A0      #001=PARSER File=Z8PP.:Z8A6TSI                                     SAT 08/09/97 09:40 Page:78
        55 002741   000016 402007                    MPY     14,DL
        55 002742   000000 116003                    CMPQ    0,DU
        55 002743   002745 605000 55                 TPL     s:20363+5
        55 002744   000044 036003                    ADLQ    36,DU
        55 002745   003100 060406                    CSL     bolr='003'O
        55 002746   000000 000012 xsym               BDSC    PATH,Q                   by=0,bit=0,n=10
        55 002747   201444 000044                    BDSC    I+2,,AUTO                by=0,bit=0,n=36
        55 002750   201444 236100                    LDQ     I+2,,AUTO
        55 002751   000032 732000                    QRS     26
        55 002752   000000 116003                    CMPQ    0,DU
        55 002753   003161 604000 55                 TMI     s:20400

  20364 55 002754   201430 236100                    LDQ     P,,AUTO
        55 002755   000016 402007                    MPY     14,DL
        55 002756   000000 116003                    CMPQ    0,DU
        55 002757   002761 605000 55                 TPL     s:20364+5
        55 002760   000044 036003                    ADLQ    36,DU
        55 002761   003100 060406                    CSL     bolr='003'O
        55 002762   000000 000012 xsym               BDSC    PATH,Q                   by=0,bit=0,n=10
        55 002763   201444 000044                    BDSC    I+2,,AUTO                by=0,bit=0,n=36
        55 002764   201444 236100                    LDQ     I+2,,AUTO
        55 002765   000032 732000                    QRS     26
        55 002766   201431 756100                    STQ     PE,,AUTO
        55 002767   003134 710000 55                 TRA     s:20399+1

  20365 55 002770   201431 235100                    LDA     PE,,AUTO
        55 002771   000100 101405                    MRL     fill='000'O
        55 002772   000000 000001 xsym               ADSC9   PATH_ELEM,A              cn=0,n=1
        55 002773   201433 000002                    ADSC9   PELEM,,AUTO              cn=0,n=2

  20368 55 002774   200103 236100                    LDQ     LR+2,,AUTO
        55 002775   000006 402007                    MPY     6,DL
        55 002776   000002 235006 0                  LDA     LA_STK+2,QL
        55 002777   000001 735000                    ALS     1
        55 003000   003002 605000 55                 TPL     s:20368+6
        55 003001   000006 035003                    ADLA    6,DU
        55 003002   000100 101405                    MRL     fill='000'O
PL6.E3A0      #001=PARSER File=Z8PP.:Z8A6TSI                                     SAT 08/09/97 09:40 Page:79
        55 003003   000000 020002 xsym               ADSC6   LCP_UBOUND,A             cn=0,n=2
        55 003004   200203 020006                    ADSC6   H,,AUTO                  cn=0,n=6

  20369 55 003005   000002 235006 0                  LDA     LA_STK+2,QL
        55 003006   000001 735000                    ALS     1
        55 003007   003011 605000 55                 TPL     s:20369+4
        55 003010   000006 035003                    ADLA    6,DU
        55 003011   000100 101405                    MRL     fill='000'O
        55 003012   777777 420002 xsym               ADSC6   LCP_UBOUND-1,A           cn=4,n=2
        55 003013   201444 020006                    ADSC6   I+2,,AUTO                cn=0,n=6
        55 003014   201444 236100                    LDQ     I+2,,AUTO
        55 003015   000001 036007                    ADLQ    1,DL
        55 003016   200204 756100                    STQ     L,,AUTO

  20370 55 003017   000001 335007                    LCA     1,DL
        55 003020   200215 755100                    STA     LCP_ELEM_RET,,AUTO

  20371 55 003021   200203 116100                    CMPQ    H,,AUTO
        55 003022   003024 600000 55                 TZE     s:20372
        55 003023   003071 603000 55                 TRC     s:20387

  20372 55 003024   200204 236100                    LDQ     L,,AUTO
        55 003025   200203 036100                    ADLQ    H,,AUTO
        55 003026   000001 772000                    QRL     1
        55 003027   200205 756100                    STQ     M,,AUTO

  20373 55 003030   000047 402007                    MPY     39,DL
        55 003031   003100 061406                    CSR     bolr='003'O
        55 003032   000000 000022 xsym               BDSC    LCP,Q                    by=0,bit=0,n=18
        55 003033   201444 000044                    BDSC    I+2,,AUTO                by=0,bit=0,n=36
        55 003034   201433 236100                    LDQ     PELEM,,AUTO
        55 003035   000022 772000                    QRL     18
        55 003036   201444 116100                    CMPQ    I+2,,AUTO
        55 003037   003046 601000 55                 TNZ     s:20379

  20375 55 003040   200205 235100                    LDA     M,,AUTO
        55 003041   200215 755100                    STA     LCP_ELEM_RET,,AUTO
PL6.E3A0      #001=PARSER File=Z8PP.:Z8A6TSI                                     SAT 08/09/97 09:40 Page:80

  20376 55 003042   200204 235100                    LDA     L,,AUTO
        55 003043   000001 135007                    SBLA    1,DL
        55 003044   200203 755100                    STA     H,,AUTO

  20377 55 003045   003066 710000 55                 TRA     s:20383

  20379 55 003046   200205 236100                    LDQ     M,,AUTO
        55 003047   000047 402007                    MPY     39,DL
        55 003050   003100 061406                    CSR     bolr='003'O
        55 003051   000000 000022 xsym               BDSC    LCP,Q                    by=0,bit=0,n=18
        55 003052   201444 000044                    BDSC    I+2,,AUTO                by=0,bit=0,n=36
        55 003053   201433 236100                    LDQ     PELEM,,AUTO
        55 003054   000022 772000                    QRL     18
        55 003055   201444 116100                    CMPQ    I+2,,AUTO
        55 003056   003063 605000 55                 TPL     s:20382

  20380 55 003057   200205 235100                    LDA     M,,AUTO
        55 003060   000001 135007                    SBLA    1,DL
        55 003061   200203 755100                    STA     H,,AUTO
        55 003062   003066 710000 55                 TRA     s:20383

  20382 55 003063   200205 235100                    LDA     M,,AUTO
        55 003064   000001 035007                    ADLA    1,DL
        55 003065   200204 755100                    STA     L,,AUTO

  20383 55 003066   200203 236100                    LDQ     H,,AUTO
        55 003067   200204 116100                    CMPQ    L,,AUTO
        55 003070   003024 603000 55                 TRC     s:20372

  20387 55 003071   200215 235100                    LDA     LCP_ELEM_RET,,AUTO
        55 003072   003117 604000 55                 TMI     s:20398

  20389 55 003073   200215 236100                    LDQ     LCP_ELEM_RET,,AUTO
        55 003074   000047 402007                    MPY     39,DL
        55 003075   000000 116003                    CMPQ    0,DU
        55 003076   003100 605000 55                 TPL     s:20389+5
PL6.E3A0      #001=PARSER File=Z8PP.:Z8A6TSI                                     SAT 08/09/97 09:40 Page:81
        55 003077   000044 036003                    ADLQ    36,DU
        55 003100   003100 061406                    CSR     bolr='003'O
        55 003101   000000 400010 xsym               BDSC    LCP,Q                    by=2,bit=0,n=8
        55 003102   201444 000044                    BDSC    I+2,,AUTO                by=0,bit=0,n=36
        55 003103   201444 236100                    LDQ     I+2,,AUTO
        55 003104   200217 036100                    ADLQ    ACCUM_COST,,AUTO
        55 003105   200216 756100                    STQ     TRYCOST,,AUTO

  20390 55 003106   200211 116100                    CMPQ    MINCOST,,AUTO
        55 003107   003117 605000 55                 TPL     s:20398

  20392 55 003110   201430 235100                    LDA     P,,AUTO
        55 003111   200214 755100                    STA     MINPATH,,AUTO

  20393 55 003112   201431 235100                    LDA     PE,,AUTO
        55 003113   200212 755100                    STA     MINPOS,,AUTO

  20394 55 003114   200211 756100                    STQ     MINCOST,,AUTO

  20395 55 003115   200215 235100                    LDA     LCP_ELEM_RET,,AUTO
        55 003116   200213 755100                    STA     MINLCPINDX,,AUTO

  20398 55 003117   201431 235100                    LDA     PE,,AUTO
        55 003120   000100 101405                    MRL     fill='000'O
        55 003121   000000 000001 xsym               ADSC9   PATH_ELEM,A              cn=0,n=1
        55 003122   201444 000004                    ADSC9   I+2,,AUTO                cn=0,n=4
        55 003123   201444 236100                    LDQ     I+2,,AUTO
        55 003124   000036 402007                    MPY     30,DL
        55 003125   003100 061406                    CSR     bolr='003'O
        55 003126   000000 000021 xsym               BDSC    LCS,Q                    by=0,bit=0,n=17
        55 003127   201445 000044                    BDSC    I+3,,AUTO                by=0,bit=0,n=36
        55 003130   201445 236100                    LDQ     I+3,,AUTO
        55 003131   200217 036100                    ADLQ    ACCUM_COST,,AUTO
        55 003132   200217 756100                    STQ     ACCUM_COST,,AUTO

  20399 55 003133   201431 054100                    AOS     PE,,AUTO
        55 003134   201430 236100                    LDQ     P,,AUTO
PL6.E3A0      #001=PARSER File=Z8PP.:Z8A6TSI                                     SAT 08/09/97 09:40 Page:82
        55 003135   000016 402007                    MPY     14,DL
        55 003136   000000 116003                    CMPQ    0,DU
        55 003137   003141 605000 55                 TPL     s:20399+6
        55 003140   000044 036003                    ADLQ    36,DU
        55 003141   003100 061406                    CSR     bolr='003'O
        55 003142   000000 210004 xsym               BDSC    PATH,Q                   by=1,bit=1,n=4
        55 003143   201444 000044                    BDSC    I+2,,AUTO                by=0,bit=0,n=36
        55 003144   201430 236100                    LDQ     P,,AUTO
        55 003145   000016 402007                    MPY     14,DL
        55 003146   000000 116003                    CMPQ    0,DU
        55 003147   003151 605000 55                 TPL     s:20399+14
        55 003150   000044 036003                    ADLQ    36,DU
        55 003151   003100 060406                    CSL     bolr='003'O
        55 003152   000000 000012 xsym               BDSC    PATH,Q                   by=0,bit=0,n=10
        55 003153   201445 000044                    BDSC    I+3,,AUTO                by=0,bit=0,n=36
        55 003154   201445 236100                    LDQ     I+3,,AUTO
        55 003155   000032 732000                    QRS     26
        55 003156   201444 036100                    ADLQ    I+2,,AUTO
        55 003157   201431 116100                    CMPQ    PE,,AUTO
        55 003160   002770 605400 55                 TPNZ    s:20365

  20400 55 003161   201430 054100                    AOS     P,,AUTO
        55 003162   201417 236100                    LDQ     PRED_ITEM,,AUTO
        55 003163   000033 402007                    MPY     27,DL
        55 003164   000000 116003                    CMPQ    0,DU
        55 003165   003167 605000 55                 TPL     s:20400+6
        55 003166   000044 036003                    ADLQ    36,DU
        55 003167   003100 061406                    CSR     bolr='003'O
        55 003170   000000 450004 xsym               BDSC    ITEM,Q                   by=2,bit=5,n=4
        55 003171   201444 000044                    BDSC    I+2,,AUTO                by=0,bit=0,n=36
        55 003172   201417 236100                    LDQ     PRED_ITEM,,AUTO
        55 003173   000033 402007                    MPY     27,DL
        55 003174   000000 116003                    CMPQ    0,DU
        55 003175   003177 605000 55                 TPL     s:20400+14
        55 003176   000044 036003                    ADLQ    36,DU
        55 003177   003100 061406                    CSR     bolr='003'O
        55 003200   000000 250011 xsym               BDSC    ITEM,Q                   by=1,bit=5,n=9
PL6.E3A0      #001=PARSER File=Z8PP.:Z8A6TSI                                     SAT 08/09/97 09:40 Page:83
        55 003201   201445 000044                    BDSC    I+3,,AUTO                by=0,bit=0,n=36
        55 003202   201445 236100                    LDQ     I+3,,AUTO
        55 003203   201444 036100                    ADLQ    I+2,,AUTO
        55 003204   002736 604000 55                 TMI     s:20361
        55 003205   201430 116100                    CMPQ    P,,AUTO
        55 003206   002736 605400 55                 TPNZ    s:20361

  20401 55 003207   200220 470500                    LDP0    CURRSTAGE$,,AUTO
        55 003210   201424 720100                    LXL0    ITM,,AUTO
        55 003211   000000 471510                    LDP1    0,X0,PR0
        55 003212   000100 100500                    MLR     fill='000'O
        55 003213   100000 000002                    ADSC9   0,,PR1                   cn=0,n=2
        55 003214   201444 000004                    ADSC9   I+2,,AUTO                cn=0,n=4
        55 003215   201444 236100                    LDQ     I+2,,AUTO
        55 003216   000022 732000                    QRS     18
        55 003217   200211 036100                    ADLQ    MINCOST,,AUTO
        55 003220   200105 116100                    CMPQ    LR+4,,AUTO
        55 003221   003420 605000 55                 TPL     s:20432

  20404 55 003222   000000 471510                    LDP1    0,X0,PR0
        55 003223   000100 100500                    MLR     fill='000'O
        55 003224   100000 400002                    ADSC9   0,,PR1                   cn=2,n=2
        55 003225   201444 000004                    ADSC9   I+2,,AUTO                cn=0,n=4
        55 003226   201444 236100                    LDQ     I+2,,AUTO
        55 003227   000022 732000                    QRS     18
        55 003230   200104 756100                    STQ     LR+3,,AUTO

  20405 55 003231   000000 471510                    LDP1    0,X0,PR0
        55 003232   000100 100500                    MLR     fill='000'O
        55 003233   100001 000312                    ADSC9   1,,PR1                   cn=0,n=202
        55 003234   200106 000312                    ADSC9   LR+5,,AUTO               cn=0,n=202

  20406 55 003235   000100 100500                    MLR     fill='000'O
        55 003236   100000 000002                    ADSC9   0,,PR1                   cn=0,n=2
        55 003237   201444 000004                    ADSC9   I+2,,AUTO                cn=0,n=4
        55 003240   201444 236100                    LDQ     I+2,,AUTO
        55 003241   000022 732000                    QRS     18
PL6.E3A0      #001=PARSER File=Z8PP.:Z8A6TSI                                     SAT 08/09/97 09:40 Page:84
        55 003242   200211 036100                    ADLQ    MINCOST,,AUTO
        55 003243   200105 756100                    STQ     LR+4,,AUTO

  20408 55 003244   200214 236100                    LDQ     MINPATH,,AUTO
        55 003245   000016 402007                    MPY     14,DL
        55 003246   000000 116003                    CMPQ    0,DU
        55 003247   003251 605000 55                 TPL     s:20408+5
        55 003250   000044 036003                    ADLQ    36,DU
        55 003251   003100 060406                    CSL     bolr='003'O
        55 003252   000000 000012 xsym               BDSC    PATH,Q                   by=0,bit=0,n=10
        55 003253   201444 000044                    BDSC    I+2,,AUTO                by=0,bit=0,n=36
        55 003254   201444 236100                    LDQ     I+2,,AUTO
        55 003255   000032 732000                    QRS     26
        55 003256   201431 756100                    STQ     PE,,AUTO
        55 003257   003275 710000 55                 TRA     s:20413+1

  20409 55 003260   200104 235100                    LDA     LR+3,,AUTO
        55 003261   000144 115007                    CMPA    100,DL
        55 003262   003265 604000 55                 TMI     s:20411

  20410 55 003263   000503 701000 55                 TSX1    ABORT_CORRECTION
        55 003264   000000 011000                    NOP     0

  20411 55 003265   200104 235100                    LDA     LR+3,,AUTO
        55 003266   000001 735000                    ALS     1
        55 003267   201431 236100                    LDQ     PE,,AUTO
        55 003270   000105 101406                    MRL     fill='000'O
        55 003271   000000 000001 xsym               ADSC9   PATH_ELEM,Q              cn=0,n=1
        55 003272   200106 000002                    ADSC9   LR+5,A,AUTO              cn=0,n=2

  20412 55 003273   200104 054100                    AOS     LR+3,,AUTO

  20413 55 003274   201431 054100                    AOS     PE,,AUTO
        55 003275   201431 236100                    LDQ     PE,,AUTO
        55 003276   200212 116100                    CMPQ    MINPOS,,AUTO
        55 003277   003260 604000 55                 TMI     s:20409

PL6.E3A0      #001=PARSER File=Z8PP.:Z8A6TSI                                     SAT 08/09/97 09:40 Page:85
  20414 55 003300   200213 236100                    LDQ     MINLCPINDX,,AUTO
        55 003301   000047 402007                    MPY     39,DL
        55 003302   000000 116003                    CMPQ    0,DU
        55 003303   003305 605000 55                 TPL     s:20414+5
        55 003304   000044 036003                    ADLQ    36,DU
        55 003305   003100 061406                    CSR     bolr='003'O
        55 003306   000000 700004 xsym               BDSC    LCP,Q                    by=3,bit=8,n=4
        55 003307   201444 000044                    BDSC    I+2,,AUTO                by=0,bit=0,n=36
        55 003310   201444 236100                    LDQ     I+2,,AUTO
        55 003311   200104 036100                    ADLQ    LR+3,,AUTO
        55 003312   000144 116007                    CMPQ    100,DL
        55 003313   003316 604400 55                 TMOZ    s:20417

  20415 55 003314   000503 701000 55                 TSX1    ABORT_CORRECTION
        55 003315   000000 011000                    NOP     0

  20417 55 003316   200213 236100                    LDQ     MINLCPINDX,,AUTO
        55 003317   000047 402007                    MPY     39,DL
        55 003320   000000 116003                    CMPQ    0,DU
        55 003321   003323 605000 55                 TPL     s:20417+5
        55 003322   000044 036003                    ADLQ    36,DU
        55 003323   003100 061406                    CSR     bolr='003'O
        55 003324   000000 500011 xsym               BDSC    LCP,Q                    by=2,bit=8,n=9
        55 003325   200177 000044                    BDSC    I,,AUTO                  by=0,bit=0,n=36
        55 003326   003337 710000 55                 TRA     s:20422+1

  20420 55 003327   200104 235100                    LDA     LR+3,,AUTO
        55 003330   000001 735000                    ALS     1
        55 003331   200177 236100                    LDQ     I,,AUTO
        55 003332   000105 101406                    MRL     fill='000'O
        55 003333   000000 000001 xsym               ADSC9   LCP_ELEM,Q               cn=0,n=1
        55 003334   200106 000002                    ADSC9   LR+5,A,AUTO              cn=0,n=2

  20421 55 003335   200104 054100                    AOS     LR+3,,AUTO

  20422 55 003336   200177 054100                    AOS     I,,AUTO
        55 003337   200213 236100                    LDQ     MINLCPINDX,,AUTO
PL6.E3A0      #001=PARSER File=Z8PP.:Z8A6TSI                                     SAT 08/09/97 09:40 Page:86
        55 003340   000047 402007                    MPY     39,DL
        55 003341   000000 116003                    CMPQ    0,DU
        55 003342   003344 605000 55                 TPL     s:20422+6
        55 003343   000044 036003                    ADLQ    36,DU
        55 003344   003100 061406                    CSR     bolr='003'O
        55 003345   000000 700004 xsym               BDSC    LCP,Q                    by=3,bit=8,n=4
        55 003346   201444 000044                    BDSC    I+2,,AUTO                by=0,bit=0,n=36
        55 003347   200213 236100                    LDQ     MINLCPINDX,,AUTO
        55 003350   000047 402007                    MPY     39,DL
        55 003351   000000 116003                    CMPQ    0,DU
        55 003352   003354 605000 55                 TPL     s:20422+14
        55 003353   000044 036003                    ADLQ    36,DU
        55 003354   003100 061406                    CSR     bolr='003'O
        55 003355   000000 500011 xsym               BDSC    LCP,Q                    by=2,bit=8,n=9
        55 003356   201445 000044                    BDSC    I+3,,AUTO                by=0,bit=0,n=36
        55 003357   201445 236100                    LDQ     I+3,,AUTO
        55 003360   201444 036100                    ADLQ    I+2,,AUTO
        55 003361   003327 604000 55                 TMI     s:20420
        55 003362   200177 116100                    CMPQ    I,,AUTO
        55 003363   003327 605400 55                 TPNZ    s:20420

  20426 55 003364   003420 710000 55                 TRA     s:20432

  20429 55 003365   200220 470500                    LDP0    CURRSTAGE$,,AUTO
        55 003366   201424 721100                    LXL1    ITM,,AUTO
        55 003367   000000 471511                    LDP1    0,X1,PR0
        55 003370   201417 236100                    LDQ     PRED_ITEM,,AUTO
        55 003371   201425 136100                    SBLQ    NEXTLOWBASIS,,AUTO
        55 003372   200221 473500                    LDP3    NEXTSTAGE$,,AUTO
        55 003373   300000 474506                    LDP4    0,QL,PR3
        55 003374   000100 100500                    MLR     fill='000'O
        55 003375   400000 000002                    ADSC9   0,,PR4                   cn=0,n=2
        55 003376   201444 000004                    ADSC9   I+2,,AUTO                cn=0,n=4
        55 003377   201444 236100                    LDQ     I+2,,AUTO
        55 003400   000022 732000                    QRS     18
        55 003401   201445 756100                    STQ     I+3,,AUTO
        55 003402   000100 100500                    MLR     fill='000'O
PL6.E3A0      #001=PARSER File=Z8PP.:Z8A6TSI                                     SAT 08/09/97 09:40 Page:87
        55 003403   100000 000002                    ADSC9   0,,PR1                   cn=0,n=2
        55 003404   201446 000004                    ADSC9   I+4,,AUTO                cn=0,n=4
        55 003405   201446 236100                    LDQ     I+4,,AUTO
        55 003406   000022 732000                    QRS     18
        55 003407   201445 116100                    CMPQ    I+3,,AUTO
        55 003410   003420 605000 55                 TPL     s:20432

  20430 55 003411   201417 236100                    LDQ     PRED_ITEM,,AUTO
        55 003412   201425 136100                    SBLQ    NEXTLOWBASIS,,AUTO
        55 003413   300000 471506                    LDP1    0,QL,PR3
        55 003414   000000 474511                    LDP4    0,X1,PR0
        55 003415   000100 100500                    MLR     fill='000'O
        55 003416   400000 000316                    ADSC9   0,,PR4                   cn=0,n=206
        55 003417   100000 000316                    ADSC9   0,,PR1                   cn=0,n=206

  20432 55 003420   201424 054100                    AOS     ITM,,AUTO
        55 003421   201423 236100                    LDQ     CURRHIGHBASIS,,AUTO
        55 003422   201422 136100                    SBLQ    CURRLOWBASIS,,AUTO
        55 003423   201424 116100                    CMPQ    ITM,,AUTO
        55 003424   002340 605000 55                 TPL     s:20298

  20434 55 003425   200201 235100                    LDA     K,,AUTO
        55 003426   000001 115007                    CMPA    1,DL
        55 003427   003431 605400 55                 TPNZ    s:20437

  20435 55 003430   201421 450100                    STZ     WORTHCONTINUING,,AUTO

  20437 55 003431   201421 234100                    SZN     WORTHCONTINUING,,AUTO
        55 003432   003437 605000 55                 TPL     s:20443

  20439 55 003433   000001 336007                    LCQ     1,DL
        55 003434   200201 056100                    ASQ     K,,AUTO

  20440 55 003435   001511 701000 55                 TSX1    NEWSTAGE
        55 003436   000000 011000                    NOP     0

  20443 55 003437   201421 234100                    SZN     WORTHCONTINUING,,AUTO
PL6.E3A0      #001=PARSER File=Z8PP.:Z8A6TSI                                     SAT 08/09/97 09:40 Page:88
        55 003440   002313 604000 55                 TMI     s:20285

  20446 55 003441   200176 221300                    LDX1  ! ACCUM_INS_TO_SYM+2,,AUTO
        55 003442   000001 702211                    TSX2  ! 1,X1

  20453 55 003443   200104 450100                    STZ     LR+3,,AUTO

  20454 55 003444   303237 235007                    LDA     99999,DL
        55 003445   200105 755100                    STA     LR+4,,AUTO

  20455 55 003446   200172 450100                    STZ     ACCUM_DEL_LEN,,AUTO

  20456 55 003447   200173 450100                    STZ     ACCUM_DEL_COST,,AUTO

  20457 55 003450   200172 236100                    LDQ     ACCUM_DEL_LEN,,AUTO
        55 003451   200101 756100                    STQ     LR,,AUTO

  20458 55 003452   200173 235100                    LDA     ACCUM_DEL_COST,,AUTO
        55 003453   200102 755100                    STA     LR+1,,AUTO

  20460 55 003454   200171 450100                    STZ     LARGE_DELETION,,AUTO

  20462 55 003455   000000 235000 6                  LDA     LA_GET
        55 003456   200174 755100                    STA     ACCUM_INS_TO_SYM,,AUTO

  20463 55 003457   200103 755100                    STA     LR+2,,AUTO

  20468 55 003460   001460 701000 55                 TSX1    LR_INSERT
        55 003461   000000 011000                    NOP     0

  20470 55 003462   200105 235100                    LDA     LR+4,,AUTO
        55 003463   303237 115007                    CMPA    99999,DL
        55 003464   003545 604000 55                 TMI     s:20494

  20472 55 003465   200172 054100                    AOS     ACCUM_DEL_LEN,,AUTO

  20473 55 003466   200172 236100                    LDQ     ACCUM_DEL_LEN,,AUTO
PL6.E3A0      #001=PARSER File=Z8PP.:Z8A6TSI                                     SAT 08/09/97 09:40 Page:89
        55 003467   200101 756100                    STQ     LR,,AUTO

  20474 55 003470   000062 116007                    CMPQ    50,DL
        55 003471   003474 604000 55                 TMI     s:20476

  20475 55 003472   000403 701000 55                 TSX1    CREATE_LARGE_DELETION
        55 003473   000000 011000                    NOP     0

  20476 55 003474   200174 236100                    LDQ     ACCUM_INS_TO_SYM,,AUTO
        55 003475   000006 402007                    MPY     6,DL
        55 003476   000002 236006 0                  LDQ     LA_STK+2,QL
        55 003477   000021 402007                    MPY     17,DL
        55 003500   000000 116003                    CMPQ    0,DU
        55 003501   003503 605000 55                 TPL     s:20476+7
        55 003502   000044 036003                    ADLQ    36,DU
        55 003503   003100 061406                    CSR     bolr='003'O
        55 003504   000000 000021 xsym               BDSC    DEL_COST,Q               by=0,bit=0,n=17
        55 003505   201444 000044                    BDSC    I+2,,AUTO                by=0,bit=0,n=36
        55 003506   201444 236100                    LDQ     I+2,,AUTO
        55 003507   200173 036100                    ADLQ    ACCUM_DEL_COST,,AUTO
        55 003510   200173 756100                    STQ     ACCUM_DEL_COST,,AUTO

  20477 55 003511   200102 756100                    STQ     LR+1,,AUTO

  20478 55 003512   303237 116007                    CMPQ    99999,DL
        55 003513   003516 604000 55                 TMI     s:20480

  20479 55 003514   000503 701000 55                 TSX1    ABORT_CORRECTION
        55 003515   000000 011000                    NOP     0

  20480 55 003516   200101 236100                    LDQ     LR,,AUTO
        55 003517   000000 116000 4                  CMPQ    LA_CNT
        55 003520   003540 604000 55                 TMI     s:20491

  20486 55 003521   000000 236000 5                  LDQ     LA_PUT
        55 003522   000006 402003                    MPY     6,DU
        55 003523   000073 036000 56                 ADLQ    59
PL6.E3A0      #001=PARSER File=Z8PP.:Z8A6TSI                                     SAT 08/09/97 09:40 Page:90
        55 003524   201444 756100                    STQ     I+2,,AUTO
        55 003525   201444 630500                    EPPR0   I+2,,AUTO
        55 003526   201445 450500                    STP0    I+3,,AUTO
        55 003527   201445 630500                    EPPR0   I+3,,AUTO
        55 003530   000072 631400 56                 EPPR1   58
        55 003531   000000 701000 xent               TSX1    SCANNER
        55 003532   000000 011000                    NOP     0

  20488 55 003533   000000 236000 5                  LDQ     LA_PUT
        55 003534   000006 402007                    MPY     6,DL
        55 003535   000005 235006 0                  LDA     LA_STK+5,QL
        55 003536   000000 755000 5                  STA     LA_PUT

  20489 55 003537   000000 054000 4                  AOS     LA_CNT

  20491 55 003540   200174 236100                    LDQ     ACCUM_INS_TO_SYM,,AUTO
        55 003541   000006 402007                    MPY     6,DL
        55 003542   000005 235006 0                  LDA     LA_STK+5,QL
        55 003543   200174 755100                    STA     ACCUM_INS_TO_SYM,,AUTO

  20492 55 003544   200103 755100                    STA     LR+2,,AUTO

  20494 55 003545   200105 235100                    LDA     LR+4,,AUTO
        55 003546   303237 115007                    CMPA    99999,DL
        55 003547   003460 605000 55                 TPL     s:20468

  20499 55 003550   000100 100500                    MLR     fill='000'O
        55 003551   200101 000336                    ADSC9   LR,,AUTO                 cn=0,n=222
        55 003552   200011 000336                    ADSC9   LC,,AUTO                 cn=0,n=222

  20501 55 003553   200174 236100                    LDQ     ACCUM_INS_TO_SYM,,AUTO
        55 003554   000006 402007                    MPY     6,DL
        55 003555   000002 236006 0                  LDQ     LA_STK+2,QL
        55 003556   000021 402007                    MPY     17,DL
        55 003557   000000 116003                    CMPQ    0,DU
        55 003560   003562 605000 55                 TPL     s:20501+7
        55 003561   000044 036003                    ADLQ    36,DU
PL6.E3A0      #001=PARSER File=Z8PP.:Z8A6TSI                                     SAT 08/09/97 09:40 Page:91
        55 003562   003100 061406                    CSR     bolr='003'O
        55 003563   000000 000021 xsym               BDSC    DEL_COST,Q               by=0,bit=0,n=17
        55 003564   201444 000044                    BDSC    I+2,,AUTO                by=0,bit=0,n=36
        55 003565   201444 236100                    LDQ     I+2,,AUTO
        55 003566   200173 036100                    ADLQ    ACCUM_DEL_COST,,AUTO
        55 003567   200173 756100                    STQ     ACCUM_DEL_COST,,AUTO

  20502 55 003570   200102 756100                    STQ     LR+1,,AUTO

  20504 55 003571   003656 710000 55                 TRA     s:20541

  20510 55 003572   200172 054100                    AOS     ACCUM_DEL_LEN,,AUTO

  20511 55 003573   200172 235100                    LDA     ACCUM_DEL_LEN,,AUTO
        55 003574   200101 755100                    STA     LR,,AUTO

  20512 55 003575   200101 236100                    LDQ     LR,,AUTO
        55 003576   000000 116000 4                  CMPQ    LA_CNT
        55 003577   003617 604000 55                 TMI     s:20525

  20518 55 003600   000000 236000 5                  LDQ     LA_PUT
        55 003601   000006 402003                    MPY     6,DU
        55 003602   000073 036000 56                 ADLQ    59
        55 003603   201444 756100                    STQ     I+2,,AUTO
        55 003604   201444 630500                    EPPR0   I+2,,AUTO
        55 003605   201445 450500                    STP0    I+3,,AUTO
        55 003606   201445 630500                    EPPR0   I+3,,AUTO
        55 003607   000072 631400 56                 EPPR1   58
        55 003610   000000 701000 xent               TSX1    SCANNER
        55 003611   000000 011000                    NOP     0

  20520 55 003612   000000 236000 5                  LDQ     LA_PUT
        55 003613   000006 402007                    MPY     6,DL
        55 003614   000005 235006 0                  LDA     LA_STK+5,QL
        55 003615   000000 755000 5                  STA     LA_PUT

  20521 55 003616   000000 054000 4                  AOS     LA_CNT
PL6.E3A0      #001=PARSER File=Z8PP.:Z8A6TSI                                     SAT 08/09/97 09:40 Page:92

  20525 55 003617   200174 236100                    LDQ     ACCUM_INS_TO_SYM,,AUTO
        55 003620   000006 402007                    MPY     6,DL
        55 003621   000005 235006 0                  LDA     LA_STK+5,QL
        55 003622   200174 755100                    STA     ACCUM_INS_TO_SYM,,AUTO

  20526 55 003623   200103 755100                    STA     LR+2,,AUTO

  20529 55 003624   001460 701000 55                 TSX1    LR_INSERT
        55 003625   000000 011000                    NOP     0

  20535 55 003626   200105 236100                    LDQ     LR+4,,AUTO
        55 003627   200102 036100                    ADLQ    LR+1,,AUTO
        55 003630   201444 756100                    STQ     I+2,,AUTO
        55 003631   200012 236100                    LDQ     @ERROR_TYPE+1,,AUTO
        55 003632   200015 036100                    ADLQ    I+1,,AUTO
        55 003633   201444 116100                    CMPQ    I+2,,AUTO
        55 003634   003640 604400 55                 TMOZ    s:20538

  20536 55 003635   000100 100500                    MLR     fill='000'O
        55 003636   200101 000336                    ADSC9   LR,,AUTO                 cn=0,n=222
        55 003637   200011 000336                    ADSC9   LC,,AUTO                 cn=0,n=222

  20538 55 003640   200174 236100                    LDQ     ACCUM_INS_TO_SYM,,AUTO
        55 003641   000006 402007                    MPY     6,DL
        55 003642   000002 236006 0                  LDQ     LA_STK+2,QL
        55 003643   000021 402007                    MPY     17,DL
        55 003644   000000 116003                    CMPQ    0,DU
        55 003645   003647 605000 55                 TPL     s:20538+7
        55 003646   000044 036003                    ADLQ    36,DU
        55 003647   003100 061406                    CSR     bolr='003'O
        55 003650   000000 000021 xsym               BDSC    DEL_COST,Q               by=0,bit=0,n=17
        55 003651   201444 000044                    BDSC    I+2,,AUTO                by=0,bit=0,n=36
        55 003652   201444 236100                    LDQ     I+2,,AUTO
        55 003653   200173 036100                    ADLQ    ACCUM_DEL_COST,,AUTO
        55 003654   200173 756100                    STQ     ACCUM_DEL_COST,,AUTO

PL6.E3A0      #001=PARSER File=Z8PP.:Z8A6TSI                                     SAT 08/09/97 09:40 Page:93
  20539 55 003655   200102 756100                    STQ     LR+1,,AUTO

  20541 55 003656   200012 236100                    LDQ     @ERROR_TYPE+1,,AUTO
        55 003657   200015 036100                    ADLQ    I+1,,AUTO
        55 003660   200173 116100                    CMPQ    ACCUM_DEL_COST,,AUTO
        55 003661   003665 604400 55                 TMOZ    s:20543
        55 003662   200172 235100                    LDA     ACCUM_DEL_LEN,,AUTO
        55 003663   000061 115007                    CMPA    49,DL
        55 003664   003572 604000 55                 TMI     s:20510

  20543 55 003665   000643 701000 55                 TSX1    GIVE_CORRECTION_MESSAGE
        55 003666   000000 011000                    NOP     0

  20546 55 003667   200010 221300                    LDX1  ! INDX+1,,AUTO
        55 003670   000001 702211                    TSX2  ! 1,X1

      384    20547         %CREATE_DUMMY_TOKEN_PROC;

  20548 55 003671   200010 741300       CREATE_DUMM* STX1  ! INDX+1,,AUTO

  20567 55 003672   200012 470500                    LDP0    @SYM_TO_BE_INSERTED,,AUTO
        55 003673   000000 236100                    LDQ     0,,PR0
        55 003674   000017 402007                    MPY     15,DL
        55 003675   000000 116003                    CMPQ    0,DU
        55 003676   003700 605000 55                 TPL     s:20567+6
        55 003677   000044 036003                    ADLQ    36,DU
        55 003700   003100 061406                    CSR     bolr='003'O
        55 003701   000000 210005 xsym               BDSC    TERM_STRING,Q            by=1,bit=1,n=5
        55 003702   200015 000044                    BDSC    SYMLEN,,AUTO             by=0,bit=0,n=36

  20568 55 003703   200015 236100                    LDQ     SYMLEN,,AUTO
        55 003704   000013 036007                    ADLQ    11,DL
        55 003705   000004 506007                    DIV     4,DL
        55 003706   200016 756100                    STQ     NEWLEN,,AUTO

  20569 55 003707   200016 631500                    EPPR1   NEWLEN,,AUTO
        55 003710   201445 451500                    STP1    I+3,,AUTO
PL6.E3A0      #001=PARSER File=Z8PP.:Z8A6TSI                                     SAT 08/09/97 09:40 Page:94
        55 003711   200062 633500                    EPPR3   NEW$,,AUTO
        55 003712   201444 453500                    STP3    I+2,,AUTO
        55 003713   201444 630500                    EPPR0   I+2,,AUTO
        55 003714   000001 631400 56                 EPPR1   1
        55 003715   000000 701000 xent               TSX1    GETNEW
        55 003716   000000 011000                    NOP     0

  20570 55 003717   200062 470500                    LDP0    NEW$,,AUTO
        55 003720   200015 235100                    LDA     SYMLEN,,AUTO
        55 003721   000000 755100                    STA     0,,PR0

  20571 55 003722   200062 470500                    LDP0    NEW$,,AUTO
        55 003723   000000 720100                    LXL0    0,,PR0
        55 003724   200012 471500                    LDP1    @SYM_TO_BE_INSERTED,,AUTO
        55 003725   100000 236100                    LDQ     0,,PR1
        55 003726   000017 402007                    MPY     15,DL
        55 003727   201445 756100                    STQ     I+3,,AUTO
        55 003730   000000 116003                    CMPQ    0,DU
        55 003731   003733 605000 55                 TPL     s:20571+9
        55 003732   000044 036003                    ADLQ    36,DU
        55 003733   003100 061406                    CSR     bolr='003'O
        55 003734   000000 000012 xsym               BDSC    TERM_STRING,Q            by=0,bit=0,n=10
        55 003735   201444 000044                    BDSC    I+2,,AUTO                by=0,bit=0,n=36
        55 003736   201444 236100                    LDQ     I+2,,AUTO
        55 003737   201445 235100                    LDA     I+3,,AUTO
        55 003740   003742 605000 55                 TPL     s:20571+16
        55 003741   000044 035003                    ADLA    36,DU
        55 003742   003100 061405                    CSR     bolr='003'O
        55 003743   000000 210005 xsym               BDSC    TERM_STRING,A            by=1,bit=1,n=5
        55 003744   201446 000022                    BDSC    I+4,,AUTO                by=0,bit=0,n=18
        55 003745   201446 221100                    LDX1    I+4,,AUTO
        55 003746   040140 100446                    MLR     fill='040'O
        55 003747   000000 000011 xsym               ADSC9   TSTRING_SPACE,Q          cn=0,n=*X1
        55 003750   000001 000010                    ADSC9   1,,PR0                   cn=0,n=*X0

  20573 55 003751   200062 470500                    LDP0    NEW$,,AUTO
        55 003752   000000 720100                    LXL0    0,,PR0
PL6.E3A0      #001=PARSER File=Z8PP.:Z8A6TSI                                     SAT 08/09/97 09:40 Page:95
        55 003753   040000 106540                    CMPC    fill='040'O
        55 003754   000001 000010                    ADSC9   1,,PR0                   cn=0,n=*X0
        55 003755   000355 000007 54                 ADSC9   CANT_RECOVER+16          cn=0,n=7
        55 003756   003762 601000 55                 TNZ     s:20575

  20574 55 003757   040140 100400                    MLR     fill='040'O
        55 003760   000357 000007 54                 ADSC9   CANT_RECOVER+18          cn=0,n=7
        55 003761   000001 000010                    ADSC9   1,,PR0                   cn=0,n=*X0

  20575 55 003762   200011 470500                    LDP0    @LA_PUT,,AUTO
        55 003763   000000 236100                    LDQ     0,,PR0
        55 003764   000003 402007                    MPY     3,DL
        55 003765   000001 736000                    QLS     1
        55 003766   000000 620006                    EAX0    0,QL
        55 003767   200062 236100                    LDQ     NEW$,,AUTO
        55 003770   000001 756010 0                  STQ     LA_STK+1,X0

  20576 55 003771   000000 236100                    LDQ     0,,PR0
        55 003772   000003 402007                    MPY     3,DL
        55 003773   000001 736000                    QLS     1
        55 003774   000000 620006                    EAX0    0,QL
        55 003775   000020 236000 56                 LDQ     16
        55 003776   000000 756010 0                  STQ     LA_STK,X0

  20577 55 003777   000000 236100                    LDQ     0,,PR0
        55 004000   000003 402007                    MPY     3,DL
        55 004001   000001 736000                    QLS     1
        55 004002   100000 235100                    LDA     0,,PR1
        55 004003   000002 755006 0                  STA     LA_STK+2,QL

  20578 55 004004   000000 236100                    LDQ     0,,PR0
        55 004005   000003 402007                    MPY     3,DL
        55 004006   000001 736000                    QLS     1
        55 004007   200013 473500                    LDP3    @LINE_IN_ERROR,,AUTO
        55 004010   300000 235100                    LDA     0,,PR3
        55 004011   000003 755006 0                  STA     LA_STK+3,QL

PL6.E3A0      #001=PARSER File=Z8PP.:Z8A6TSI                                     SAT 08/09/97 09:40 Page:96
  20579 55 004012   000000 236100                    LDQ     0,,PR0
        55 004013   000003 402007                    MPY     3,DL
        55 004014   000001 736000                    QLS     1
        55 004015   200014 474500                    LDP4    @COL_IN_ERROR,,AUTO
        55 004016   400000 235100                    LDA     0,,PR4
        55 004017   000004 755006 0                  STA     LA_STK+4,QL

  20580 55 004020   200010 221300                    LDX1  ! INDX+1,,AUTO
        55 004021   000001 702211                    TSX2  ! 1,X1

      385    20582         %ENDIF;
      386    20583
      387    20584         %ERRORPROC;

  20585 55 004022   200010 741300       ERROR        STX1  ! INDX+1,,AUTO

  20811 55 004023   000000 631400 56                 EPPR1   0
        55 004024   000000 701000 xent               TSX1    FORCE_LIST
        55 004025   000000 011000                    NOP     0

  20812 55 004026   000000 631400 56                 EPPR1   0
        55 004027   000000 701000 xent               TSX1    FLUSH
        55 004030   000000 011000                    NOP     0

  20813 55 004031   000001 235007                    LDA     1,DL
        55 004032   200014 755100                    STA     I,,AUTO
        55 004033   004041 710000 55                 TRA     s:20817+1

  20815 55 004034   000004 630400 56                 EPPR0   4
        55 004035   000001 631400 56                 EPPR1   1
        55 004036   000000 701000 xent               TSX1    OUT_STR
        55 004037   000000 011000                    NOP     0

  20817 55 004040   200014 054100                    AOS     I,,AUTO
        55 004041   000000 236000 11                 LDQ     ERRCOL
        55 004042   000023 036007                    ADLQ    19,DL
        55 004043   200014 116100                    CMPQ    I,,AUTO
PL6.E3A0      #001=PARSER File=Z8PP.:Z8A6TSI                                     SAT 08/09/97 09:40 Page:97
        55 004044   004034 605000 55                 TPL     s:20815

  20819 55 004045   000007 630400 56                 EPPR0   7
        55 004046   000001 631400 56                 EPPR1   1
        55 004047   000000 701000 xent               TSX1    OUT_STR
        55 004050   000000 011000                    NOP     0

  20821 55 004051   000000 631400 56                 EPPR1   0
        55 004052   000000 701000 xent               TSX1    FLUSH
        55 004053   000000 011000                    NOP     0

  20822 55 004054   200011 470500                    LDP0    @ERROR_TYPE,,AUTO
        55 004055   000000 235100                    LDA     0,,PR0
        55 004056   000012 115007                    CMPA    10,DL
        55 004057   004061 602005 55                 TNC     s:20822+5,AL
        55 004060   004416 710000 55                 TRA     s:20886
        55 004061   004073 710000 55                 TRA     s:20825
        55 004062   004100 710000 55                 TRA     s:20828
        55 004063   004105 710000 55                 TRA     s:20831
        55 004064   004112 710000 55                 TRA     s:20834
        55 004065   004207 710000 55                 TRA     s:20848
        55 004066   004214 710000 55                 TRA     s:20851
        55 004067   004311 710000 55                 TRA     s:20865
        55 004070   004342 710000 55                 TRA     s:20872
        55 004071   004373 710000 55                 TRA     s:20879
        55 004072   004412 710000 55                 TRA     s:20884

  20825 55 004073   000074 630400 56                 EPPR0   60
        55 004074   000001 631400 56                 EPPR1   1
        55 004075   000000 701000 xent               TSX1    DIAG
        55 004076   000000 011000                    NOP     0
        55 004077   004416 710000 55                 TRA     s:20886

  20828 55 004100   000076 630400 56                 EPPR0   62
        55 004101   000001 631400 56                 EPPR1   1
        55 004102   000000 701000 xent               TSX1    DIAG
        55 004103   000000 011000                    NOP     0
PL6.E3A0      #001=PARSER File=Z8PP.:Z8A6TSI                                     SAT 08/09/97 09:40 Page:98
        55 004104   004416 710000 55                 TRA     s:20886

  20831 55 004105   000100 630400 56                 EPPR0   64
        55 004106   000001 631400 56                 EPPR1   1
        55 004107   000000 701000 xent               TSX1    DIAG
        55 004110   000000 011000                    NOP     0
        55 004111   004416 710000 55                 TRA     s:20886

  20834 55 004112   000000 236000 6                  LDQ     LA_GET
        55 004113   000006 402007                    MPY     6,DL
        55 004114   000001 236006 0                  LDQ     LA_STK+1,QL
        55 004115   000020 116000 56                 CMPQ    16
        55 004116   004165 601000 55                 TNZ     s:20842

  20835 55 004117   000000 236000 6                  LDQ     LA_GET
        55 004120   000006 402007                    MPY     6,DL
        55 004121   000002 236006 0                  LDQ     LA_STK+2,QL
        55 004122   000017 402007                    MPY     15,DL
        55 004123   000000 116003                    CMPQ    0,DU
        55 004124   004126 605000 55                 TPL     s:20835+7
        55 004125   000044 036003                    ADLQ    36,DU
        55 004126   003000 061406                    CSR     bolr='003'O
        55 004127   000000 210005 xsym               BDSC    TERM_STRING,Q            by=1,bit=1,n=5
        55 004130   000111 000011 53                 BDSC    TEXTCHAR1                by=0,bit=0,n=9

  20836 55 004131   000000 236000 6                  LDQ     LA_GET
        55 004132   000006 402007                    MPY     6,DL
        55 004133   000002 236006 0                  LDQ     LA_STK+2,QL
        55 004134   000017 402007                    MPY     15,DL
        55 004135   201444 756100                    STQ     I+2,,AUTO
        55 004136   000000 236000 6                  LDQ     LA_GET
        55 004137   000006 402007                    MPY     6,DL
        55 004140   000002 236006 0                  LDQ     LA_STK+2,QL
        55 004141   000017 402007                    MPY     15,DL
        55 004142   201444 235100                    LDA     I+2,,AUTO
        55 004143   004145 605000 55                 TPL     s:20836+12
        55 004144   000044 035003                    ADLA    36,DU
PL6.E3A0      #001=PARSER File=Z8PP.:Z8A6TSI                                     SAT 08/09/97 09:40 Page:99
        55 004145   003100 061405                    CSR     bolr='003'O
        55 004146   000000 000012 xsym               BDSC    TERM_STRING,A            by=0,bit=0,n=10
        55 004147   201445 000044                    BDSC    I+3,,AUTO                by=0,bit=0,n=36
        55 004150   201446 756100                    STQ     I+4,,AUTO
        55 004151   201445 236100                    LDQ     I+3,,AUTO
        55 004152   201446 235100                    LDA     I+4,,AUTO
        55 004153   004155 605000 55                 TPL     s:20836+20
        55 004154   000044 035003                    ADLA    36,DU
        55 004155   003100 061405                    CSR     bolr='003'O
        55 004156   000000 210005 xsym               BDSC    TERM_STRING,A            by=1,bit=1,n=5
        55 004157   201447 000022                    BDSC    I+5,,AUTO                by=0,bit=0,n=18
        55 004160   201447 220100                    LDX0    I+5,,AUTO
        55 004161   040000 100446                    MLR     fill='040'O
        55 004162   000000 000010 xsym               ADSC9   TSTRING_SPACE,Q          cn=0,n=*X0
        55 004163   000111 200214 53                 ADSC9   TEXTCHAR1                cn=1,n=140

  20840 55 004164   004202 710000 55                 TRA     s:20845

  20842 55 004165   000000 236000 6                  LDQ     LA_GET
        55 004166   000006 402007                    MPY     6,DL
        55 004167   000001 471406 0                  LDP1    LA_STK+1,QL
        55 004170   100000 236100                    LDQ     0,,PR1
        55 004171   000033 736000                    QLS     27
        55 004172   000111 552040 53                 STBQ    TEXTCHAR1,'40'O

  20843 55 004173   000000 236000 6                  LDQ     LA_GET
        55 004174   000006 402007                    MPY     6,DL
        55 004175   000001 471406 0                  LDP1    LA_STK+1,QL
        55 004176   100000 720100                    LXL0    0,,PR1
        55 004177   040000 100540                    MLR     fill='040'O
        55 004200   100001 000010                    ADSC9   1,,PR1                   cn=0,n=*X0
        55 004201   000111 200214 53                 ADSC9   TEXTCHAR1                cn=1,n=140

  20845 55 004202   000102 630400 56                 EPPR0   66
        55 004203   000021 631400 56                 EPPR1   17
        55 004204   000000 701000 xent               TSX1    DIAG
        55 004205   000000 011000                    NOP     0
PL6.E3A0      #001=PARSER File=Z8PP.:Z8A6TSI                                     SAT 08/09/97 09:40 Page:100
        55 004206   004416 710000 55                 TRA     s:20886

  20848 55 004207   000106 630400 56                 EPPR0   70
        55 004210   000001 631400 56                 EPPR1   1
        55 004211   000000 701000 xent               TSX1    DIAG
        55 004212   000000 011000                    NOP     0
        55 004213   004416 710000 55                 TRA     s:20886

  20851 55 004214   000000 236000 6                  LDQ     LA_GET
        55 004215   000006 402007                    MPY     6,DL
        55 004216   000001 236006 0                  LDQ     LA_STK+1,QL
        55 004217   000020 116000 56                 CMPQ    16
        55 004220   004267 601000 55                 TNZ     s:20859

  20852 55 004221   000000 236000 6                  LDQ     LA_GET
        55 004222   000006 402007                    MPY     6,DL
        55 004223   000002 236006 0                  LDQ     LA_STK+2,QL
        55 004224   000017 402007                    MPY     15,DL
        55 004225   000000 116003                    CMPQ    0,DU
        55 004226   004230 605000 55                 TPL     s:20852+7
        55 004227   000044 036003                    ADLQ    36,DU
        55 004230   003000 061406                    CSR     bolr='003'O
        55 004231   000000 210005 xsym               BDSC    TERM_STRING,Q            by=1,bit=1,n=5
        55 004232   000111 000011 53                 BDSC    TEXTCHAR1                by=0,bit=0,n=9

  20853 55 004233   000000 236000 6                  LDQ     LA_GET
        55 004234   000006 402007                    MPY     6,DL
        55 004235   000002 236006 0                  LDQ     LA_STK+2,QL
        55 004236   000017 402007                    MPY     15,DL
        55 004237   201444 756100                    STQ     I+2,,AUTO
        55 004240   000000 236000 6                  LDQ     LA_GET
        55 004241   000006 402007                    MPY     6,DL
        55 004242   000002 236006 0                  LDQ     LA_STK+2,QL
        55 004243   000017 402007                    MPY     15,DL
        55 004244   201444 235100                    LDA     I+2,,AUTO
        55 004245   004247 605000 55                 TPL     s:20853+12
        55 004246   000044 035003                    ADLA    36,DU
PL6.E3A0      #001=PARSER File=Z8PP.:Z8A6TSI                                     SAT 08/09/97 09:40 Page:101
        55 004247   003100 061405                    CSR     bolr='003'O
        55 004250   000000 000012 xsym               BDSC    TERM_STRING,A            by=0,bit=0,n=10
        55 004251   201445 000044                    BDSC    I+3,,AUTO                by=0,bit=0,n=36
        55 004252   201446 756100                    STQ     I+4,,AUTO
        55 004253   201445 236100                    LDQ     I+3,,AUTO
        55 004254   201446 235100                    LDA     I+4,,AUTO
        55 004255   004257 605000 55                 TPL     s:20853+20
        55 004256   000044 035003                    ADLA    36,DU
        55 004257   003100 061405                    CSR     bolr='003'O
        55 004260   000000 210005 xsym               BDSC    TERM_STRING,A            by=1,bit=1,n=5
        55 004261   201447 000022                    BDSC    I+5,,AUTO                by=0,bit=0,n=18
        55 004262   201447 220100                    LDX0    I+5,,AUTO
        55 004263   040000 100446                    MLR     fill='040'O
        55 004264   000000 000010 xsym               ADSC9   TSTRING_SPACE,Q          cn=0,n=*X0
        55 004265   000111 200214 53                 ADSC9   TEXTCHAR1                cn=1,n=140

  20857 55 004266   004304 710000 55                 TRA     s:20862

  20859 55 004267   000000 236000 6                  LDQ     LA_GET
        55 004270   000006 402007                    MPY     6,DL
        55 004271   000001 471406 0                  LDP1    LA_STK+1,QL
        55 004272   100000 236100                    LDQ     0,,PR1
        55 004273   000033 736000                    QLS     27
        55 004274   000111 552040 53                 STBQ    TEXTCHAR1,'40'O

  20860 55 004275   000000 236000 6                  LDQ     LA_GET
        55 004276   000006 402007                    MPY     6,DL
        55 004277   000001 471406 0                  LDP1    LA_STK+1,QL
        55 004300   100000 720100                    LXL0    0,,PR1
        55 004301   040000 100540                    MLR     fill='040'O
        55 004302   100001 000010                    ADSC9   1,,PR1                   cn=0,n=*X0
        55 004303   000111 200214 53                 ADSC9   TEXTCHAR1                cn=1,n=140

  20862 55 004304   000110 630400 56                 EPPR0   72
        55 004305   000031 631400 56                 EPPR1   25
        55 004306   000000 701000 xent               TSX1    DIAG
        55 004307   000000 011000                    NOP     0
PL6.E3A0      #001=PARSER File=Z8PP.:Z8A6TSI                                     SAT 08/09/97 09:40 Page:102
        55 004310   004416 710000 55                 TRA     s:20886

  20865 55 004311   200012 471500                    LDP1    @PLUG1$,,AUTO
        55 004312   100000 473500                    LDP3    0,,PR1
        55 004313   300000 236100                    LDQ     0,,PR3
        55 004314   000033 736000                    QLS     27
        55 004315   000111 552040 53                 STBQ    TEXTCHAR1,'40'O

  20866 55 004316   100000 473500                    LDP3    0,,PR1
        55 004317   300000 720100                    LXL0    0,,PR3
        55 004320   040000 100540                    MLR     fill='040'O
        55 004321   300001 000010                    ADSC9   1,,PR3                   cn=0,n=*X0
        55 004322   000111 200214 53                 ADSC9   TEXTCHAR1                cn=1,n=140

  20867 55 004323   200013 473500                    LDP3    @PLUG2$,,AUTO
        55 004324   300000 474500                    LDP4    0,,PR3
        55 004325   400000 236100                    LDQ     0,,PR4
        55 004326   000033 736000                    QLS     27
        55 004327   000155 552040 53                 STBQ    TEXTCHAR2,'40'O

  20868 55 004330   300000 474500                    LDP4    0,,PR3
        55 004331   400000 720100                    LXL0    0,,PR4
        55 004332   040000 100540                    MLR     fill='040'O
        55 004333   400001 000010                    ADSC9   1,,PR4                   cn=0,n=*X0
        55 004334   000155 200214 53                 ADSC9   TEXTCHAR2                cn=1,n=140

  20869 55 004335   000113 630400 56                 EPPR0   75
        55 004336   000035 631400 56                 EPPR1   29
        55 004337   000000 701000 xent               TSX1    DIAG
        55 004340   000000 011000                    NOP     0
        55 004341   004416 710000 55                 TRA     s:20886

  20872 55 004342   200012 471500                    LDP1    @PLUG1$,,AUTO
        55 004343   100000 473500                    LDP3    0,,PR1
        55 004344   300000 236100                    LDQ     0,,PR3
        55 004345   000033 736000                    QLS     27
        55 004346   000111 552040 53                 STBQ    TEXTCHAR1,'40'O
PL6.E3A0      #001=PARSER File=Z8PP.:Z8A6TSI                                     SAT 08/09/97 09:40 Page:103

  20873 55 004347   100000 473500                    LDP3    0,,PR1
        55 004350   300000 720100                    LXL0    0,,PR3
        55 004351   040000 100540                    MLR     fill='040'O
        55 004352   300001 000010                    ADSC9   1,,PR3                   cn=0,n=*X0
        55 004353   000111 200214 53                 ADSC9   TEXTCHAR1                cn=1,n=140

  20874 55 004354   200013 473500                    LDP3    @PLUG2$,,AUTO
        55 004355   300000 474500                    LDP4    0,,PR3
        55 004356   400000 236100                    LDQ     0,,PR4
        55 004357   000033 736000                    QLS     27
        55 004360   000155 552040 53                 STBQ    TEXTCHAR2,'40'O

  20875 55 004361   300000 474500                    LDP4    0,,PR3
        55 004362   400000 720100                    LXL0    0,,PR4
        55 004363   040000 100540                    MLR     fill='040'O
        55 004364   400001 000010                    ADSC9   1,,PR4                   cn=0,n=*X0
        55 004365   000155 200214 53                 ADSC9   TEXTCHAR2                cn=1,n=140

  20876 55 004366   000120 630400 56                 EPPR0   80
        55 004367   000035 631400 56                 EPPR1   29
        55 004370   000000 701000 xent               TSX1    DIAG
        55 004371   000000 011000                    NOP     0
        55 004372   004416 710000 55                 TRA     s:20886

  20879 55 004373   200012 471500                    LDP1    @PLUG1$,,AUTO
        55 004374   100000 473500                    LDP3    0,,PR1
        55 004375   300000 236100                    LDQ     0,,PR3
        55 004376   000033 736000                    QLS     27
        55 004377   000111 552040 53                 STBQ    TEXTCHAR1,'40'O

  20880 55 004400   100000 473500                    LDP3    0,,PR1
        55 004401   300000 720100                    LXL0    0,,PR3
        55 004402   040000 100540                    MLR     fill='040'O
        55 004403   300001 000010                    ADSC9   1,,PR3                   cn=0,n=*X0
        55 004404   000111 200214 53                 ADSC9   TEXTCHAR1                cn=1,n=140

PL6.E3A0      #001=PARSER File=Z8PP.:Z8A6TSI                                     SAT 08/09/97 09:40 Page:104
  20881 55 004405   000125 630400 56                 EPPR0   85
        55 004406   000021 631400 56                 EPPR1   17
        55 004407   000000 701000 xent               TSX1    DIAG
        55 004410   000000 011000                    NOP     0
        55 004411   004416 710000 55                 TRA     s:20886

  20884 55 004412   000131 630400 56                 EPPR0   89
        55 004413   000001 631400 56                 EPPR1   1
        55 004414   000000 701000 xent               TSX1    DIAG
        55 004415   000000 011000                    NOP     0

  20886 55 004416   200010 221300                    LDX1  ! INDX+1,,AUTO
        55 004417   000001 702211                    TSX2  ! 1,X1

      388    20888
      389    20889         %EJECT;
PL6.E3A0      #001=PARSER File=Z8PP.:Z8A6TSI                                     SAT 08/09/97 09:40 Page:105
      390    20890
      391    20891         %ALTERNATE_ENTRY_TO_PARSER;
      392    20897
      393    20898
      394    20899
      395    20900                /* Initialize circular list of lookahead tokens for fast
      396    20901                    additions and retrieval. */
      397    20902
      398    20903    2    DO INDX = 0 TO %LA_MAX - 1;

  20903 55 004420   000000 220003                    LDX0    0,DU
        55 004421   200007 740100                    STX0    INDX,,AUTO
        55 004422   004434 710000 55                 TRA     s:20905+2

      399    20904    2      LA_STK.LINK(INDX) = INDX + 1;

  20904 55 004423   200007 236100                    LDQ     INDX,,AUTO
        55 004424   000022 732000                    QRS     18
        55 004425   000006 402007                    MPY     6,DL
        55 004426   200007 235100                    LDA     INDX,,AUTO
        55 004427   000022 731000                    ARS     18
        55 004430   000001 035007                    ADLA    1,DL
        55 004431   000005 755006 0                  STA     LA_STK+5,QL

      400    20905    2    END;

  20905 55 004432   000000 620005                    EAX0    0,AL
        55 004433   200007 740100                    STX0    INDX,,AUTO
        55 004434   000061 100003                    CMPX0   49,DU
        55 004435   004423 604400 55                 TMOZ    s:20904

      401    20906    1    LA_STK.LINK(%LA_MAX) = 0;

  20906 55 004436   000461 450000 0                  STZ     LA_STK+305

      402    20907
      403    20908         %IF LOCALLY_LEAST_COST_RECOVERY;
PL6.E3A0      #001=PARSER File=Z8PP.:Z8A6TSI                                     SAT 08/09/97 09:40 Page:106
      404    20909    1      RED_STACK_TOP = 0;

  20909 55 004437   000000 450000 20                 STZ     RED_STACK_TOP

      405    20910    1      IED_FLAG = '0'B;

  20910 55 004440   000000 450000 21                 STZ     IED_FLAG

      406    20911         %ENDIF;
      407    20912    1    PARSE_STACK_IDX = 0;

  20912 55 004441   000000 221003                    LDX1    0,DU
        55 004442   000000 741000 9                  STX1    PARSE_STACK_IDX

      408    20913    1    STATE = 1;

  20913 55 004443   000001 222003                    LDX2    1,DU
        55 004444   000000 742000 3                  STX2    STATE

      409    20914    1    LX_TOP          = 0;

  20914 55 004445   000000 450000 1                  STZ     LX_TOP

      410    20915    1    PARSE_STACK(PARSE_STACK_IDX)  = STATE;

  20915 55 004446   000000 235000 3                  LDA     STATE
        55 004447   000022 731000                    ARS     18
        55 004450   000000 755011 8                  STA     PARSE_STACK,X1

      411    20916         %EJECT;
PL6.E3A0      #001=PARSER File=Z8PP.:Z8A6TSI                                     SAT 08/09/97 09:40 Page:107
      412    20917         /*
      413    20918              BEGIN INTERPRETATION...
      414    20919         */
      415    20920
      416    20921    2    DO WHILE '1'B;

      417    20922
      418    20923           %GET_ACTION_ITEM;

  20927 55 004451   000000 220000 3                  LDX0    STATE
        55 004452   000000 721010 xsym               LXL1    ACTION_COL,X0
        55 004453   004457 601000 55                 TNZ     s:20942

  20932 55 004454   000000 222010 xsym               LDX2    ACTION_COL,X0
        55 004455   200006 742100                    STX2    ACTION,,AUTO

  20933 55 004456   004666 710000 55                 TRA     s:21086

  20942 55 004457   000000 235000 4                  LDA     LA_CNT
        55 004460   004551 605400 55                 TPNZ    s:21011

  20943 55 004461   000000 236000 23                 LDQ     CORRECTION
        55 004462   004506 601000 55                 TNZ     s:20955
        55 004463   000001 235000 23                 LDA     CORRECTION+1
        55 004464   004506 601000 55                 TNZ     s:20955

  20949 55 004465   000000 236000 5                  LDQ     LA_PUT
        55 004466   000006 402003                    MPY     6,DU
        55 004467   000073 036000 56                 ADLQ    59
        55 004470   201444 756100                    STQ     I+2,,AUTO
        55 004471   201444 630500                    EPPR0   I+2,,AUTO
        55 004472   201445 450500                    STP0    I+3,,AUTO
        55 004473   201445 630500                    EPPR0   I+3,,AUTO
        55 004474   000072 631400 56                 EPPR1   58
        55 004475   000000 701000 xent               TSX1    SCANNER
        55 004476   000000 011000                    NOP     0

PL6.E3A0      #001=PARSER File=Z8PP.:Z8A6TSI                                     SAT 08/09/97 09:40 Page:108
  20951 55 004477   000000 236000 5                  LDQ     LA_PUT
        55 004500   000006 402007                    MPY     6,DL
        55 004501   000005 235006 0                  LDA     LA_STK+5,QL
        55 004502   000000 755000 5                  STA     LA_PUT

  20952 55 004503   000001 236007                    LDQ     1,DL
        55 004504   000000 756000 4                  STQ     LA_CNT

  20953 55 004505   004551 710000 55                 TRA     s:21011

  20955 55 004506   000000 116003                    CMPQ    0,DU
        55 004507   004542 604400 55                 TMOZ    s:20970

  20958 55 004510   000001 235000 23                 LDA     CORRECTION+1
        55 004511   000001 735000                    ALS     1
        55 004512   000100 100405                    MLR     fill='000'O
        55 004513   000002 000002 23                 ADSC9   CORRECTION+2,A           cn=0,n=2
        55 004514   201444 000004                    ADSC9   I+2,,AUTO                cn=0,n=4
        55 004515   201444 236100                    LDQ     I+2,,AUTO
        55 004516   000022 732000                    QRS     18
        55 004517   201466 756100                    STQ     I+20,,AUTO
        55 004520   000133 236000 56                 LDQ     91
        55 004521   200014 756100                    STQ     @PLUG2$+1,,AUTO
        55 004522   000134 236000 56                 LDQ     92
        55 004523   200013 756100                    STQ     @PLUG1$+1,,AUTO
        55 004524   201466 630500                    EPPR0   I+20,,AUTO
        55 004525   200012 450500                    STP0    @ERROR_TYPE+1,,AUTO
        55 004526   000135 236000 56                 LDQ     93
        55 004527   200011 756100                    STQ     INDX+2,,AUTO
        55 004530   003671 701000 55                 TSX1    CREATE_DUMMY_TOKEN
        55 004531   000000 011000                    NOP     0

  20963 55 004532   000001 336007                    LCQ     1,DL
        55 004533   000000 056000 23                 ASQ     CORRECTION

  20964 55 004534   000001 054000 23                 AOS     CORRECTION+1

PL6.E3A0      #001=PARSER File=Z8PP.:Z8A6TSI                                     SAT 08/09/97 09:40 Page:109
  20965 55 004535   000000 235000 5                  LDA     LA_PUT
        55 004536   000000 755000 6                  STA     LA_GET

  20966 55 004537   000001 235007                    LDA     1,DL
        55 004540   000000 755000 4                  STA     LA_CNT

  20967 55 004541   004551 710000 55                 TRA     s:21011

  20970 55 004542   000001 450000 23                 STZ     CORRECTION+1

  20971 55 004543   000000 235000 14                 LDA     ERR_LA_CNT
        55 004544   000000 755000 4                  STA     LA_CNT

  20972 55 004545   000000 235000 13                 LDA     ERR_LA_PUT
        55 004546   000000 755000 5                  STA     LA_PUT

  20973 55 004547   000000 235000 12                 LDA     ERR_LA_GET
        55 004550   000000 755000 6                  STA     LA_GET

  21011 55 004551   000000 236000 6                  LDQ     LA_GET
        55 004552   000006 402007                    MPY     6,DL
        55 004553   000000 620006                    EAX0    0,QL
        55 004554   000000 221000 3                  LDX1    STATE
        55 004555   000000 236011 xsym               LDQ     ACTION_COL,X1
        55 004556   777777 376007                    ANQ     -1,DL
        55 004557   000002 036010 0                  ADLQ    LA_STK+2,X0
        55 004560   000000 622006                    EAX2    0,QL
        55 004561   200007 742100                    STX2    INDX,,AUTO

  21012 55 004562   000000 235000 3                  LDA     STATE
        55 004563   000022 731000                    ARS     18
        55 004564   201444 755100                    STA     I+2,,AUTO
        55 004565   000000 236012 xsym               LDQ     ACTION_ROW,X2
        55 004566   777777 376007                    ANQ     -1,DL
        55 004567   201444 116100                    CMPQ    I+2,,AUTO
        55 004570   004664 601000 55                 TNZ     s:21080

PL6.E3A0      #001=PARSER File=Z8PP.:Z8A6TSI                                     SAT 08/09/97 09:40 Page:110
  21017 55 004571   000000 223012 xsym               LDX3    ACTION_ROW,X2
        55 004572   200006 743100                    STX3    ACTION,,AUTO

  21018 55 004573   004666 601000 55                 TNZ     s:21086

  21027 55 004574   000000 235000 1                  LDA     LX_TOP
        55 004575   000000 755000 22                 STA     ALT_LX_TOP

  21028 55 004576   000002 336007                    LCQ     2,DL
        55 004577   000000 056000 20                 ASQ     RED_STACK_TOP

  21029 55 004600   000000 224003                    LDX4    0,DU
        55 004601   200007 744100                    STX4    INDX,,AUTO
        55 004602   004651 710000 55                 TRA     s:21050+3

  21030 55 004603   200007 220100                    LDX0    INDX,,AUTO
        55 004604   000001 235010 19                 LDA     RED_STACK+1,X0
        55 004605   000000 755000 1                  STA     LX_TOP

  21031 55 004606   000000 235010 19                 LDA     RED_STACK,X0
        55 004607   000000 755000 7                  STA     REDUCTION

  21032 55 004610   000000 236000 7                  LDQ     REDUCTION
        55 004611   000006 402007                    MPY     6,DL
        55 004612   000100 101406                    MRL     fill='000'O
        55 004613   000001 000002 xsym               ADSC9   PRODR+1,Q                cn=0,n=2
        55 004614   201444 000004                    ADSC9   I+2,,AUTO                cn=0,n=4
        55 004615   201444 236100                    LDQ     I+2,,AUTO
        55 004616   000000 116003                    CMPQ    0,DU
        55 004617   004635 600000 55                 TZE     s:21040

  21037 55 004620   000000 236000 7                  LDQ     REDUCTION
        55 004621   000006 402007                    MPY     6,DL
        55 004622   000100 101406                    MRL     fill='000'O
        55 004623   000001 000002 xsym               ADSC9   PRODR+1,Q                cn=0,n=2
        55 004624   201444 000004                    ADSC9   I+2,,AUTO                cn=0,n=4
        55 004625   201444 236100                    LDQ     I+2,,AUTO
PL6.E3A0      #001=PARSER File=Z8PP.:Z8A6TSI                                     SAT 08/09/97 09:40 Page:111
        55 004626   201446 756100                    STQ     I+4,,AUTO
        55 004627   201446 630500                    EPPR0   I+4,,AUTO
        55 004630   201450 450500                    STP0    I+6,,AUTO
        55 004631   201450 630500                    EPPR0   I+6,,AUTO
        55 004632   000072 631400 56                 EPPR1   58
        55 004633   000000 701000 xent               TSX1    Z8PA$SEMANTICS
        55 004634   000000 011000                    NOP     0

  21040 55 004635   000000 236000 7                  LDQ     REDUCTION
        55 004636   000006 402007                    MPY     6,DL
        55 004637   000100 101406                    MRL     fill='000'O
        55 004640   000000 400002 xsym               ADSC9   PRODR,Q                  cn=2,n=2
        55 004641   201444 000004                    ADSC9   I+2,,AUTO                cn=0,n=4
        55 004642   201444 236100                    LDQ     I+2,,AUTO
        55 004643   000000 116003                    CMPQ    0,DU
        55 004644   004646 601000 55                 TNZ     s:21050

  21042 55 004645   000000 054000 1                  AOS     LX_TOP

  21050 55 004646   200007 220100                    LDX0    INDX,,AUTO
        55 004647   000002 621010                    EAX1    2,X0
        55 004650   200007 741100                    STX1    INDX,,AUTO
        55 004651   200007 236100                    LDQ     INDX,,AUTO
        55 004652   000022 732000                    QRS     18
        55 004653   000000 116000 20                 CMPQ    RED_STACK_TOP
        55 004654   004603 604400 55                 TMOZ    s:21030

  21051 55 004655   000000 450000 20                 STZ     RED_STACK_TOP

  21052 55 004656   000000 235000 22                 LDA     ALT_LX_TOP
        55 004657   000000 755000 1                  STA     LX_TOP

  21053 55 004660   000000 450000 21                 STZ     IED_FLAG

  21068 55 004661   000000 450000 10                 STZ     ERRLINE

  21069 55 004662   000000 450000 11                 STZ     ERRCOL
PL6.E3A0      #001=PARSER File=Z8PP.:Z8A6TSI                                     SAT 08/09/97 09:40 Page:112

  21072 55 004663   000000 702200 xent               TSX2  ! X66_ARET

  21080 55 004664   000000 223011 xsym               LDX3    ACTION_COL,X1
        55 004665   200006 743100                    STX3    ACTION,,AUTO

      419    21084
      420    21085
      421    21086    2      IF ACTION > 0 THEN

  21086 55 004666   200006 220100                    LDX0    ACTION,,AUTO
        55 004667   005143 604400 55                 TMOZ    s:21270

      422    21087             %SHIFT;

  21101 55 004670   000000 235000 1                  LDA     LX_TOP
        55 004671   000000 755000 22                 STA     ALT_LX_TOP

  21102 55 004672   000002 336007                    LCQ     2,DL
        55 004673   000000 056000 20                 ASQ     RED_STACK_TOP

  21103 55 004674   000000 221003                    LDX1    0,DU
        55 004675   200007 741100                    STX1    INDX,,AUTO
        55 004676   004745 710000 55                 TRA     s:21124+3

  21104 55 004677   200007 220100                    LDX0    INDX,,AUTO
        55 004700   000001 235010 19                 LDA     RED_STACK+1,X0
        55 004701   000000 755000 1                  STA     LX_TOP

  21105 55 004702   000000 235010 19                 LDA     RED_STACK,X0
        55 004703   000000 755000 7                  STA     REDUCTION

  21106 55 004704   000000 236000 7                  LDQ     REDUCTION
        55 004705   000006 402007                    MPY     6,DL
        55 004706   000100 101406                    MRL     fill='000'O
        55 004707   000001 000002 xsym               ADSC9   PRODR+1,Q                cn=0,n=2
        55 004710   201444 000004                    ADSC9   I+2,,AUTO                cn=0,n=4
PL6.E3A0      #001=PARSER File=Z8PP.:Z8A6TSI                                     SAT 08/09/97 09:40 Page:113
        55 004711   201444 236100                    LDQ     I+2,,AUTO
        55 004712   000000 116003                    CMPQ    0,DU
        55 004713   004731 600000 55                 TZE     s:21114

  21111 55 004714   000000 236000 7                  LDQ     REDUCTION
        55 004715   000006 402007                    MPY     6,DL
        55 004716   000100 101406                    MRL     fill='000'O
        55 004717   000001 000002 xsym               ADSC9   PRODR+1,Q                cn=0,n=2
        55 004720   201444 000004                    ADSC9   I+2,,AUTO                cn=0,n=4
        55 004721   201444 236100                    LDQ     I+2,,AUTO
        55 004722   201446 756100                    STQ     I+4,,AUTO
        55 004723   201446 630500                    EPPR0   I+4,,AUTO
        55 004724   201450 450500                    STP0    I+6,,AUTO
        55 004725   201450 630500                    EPPR0   I+6,,AUTO
        55 004726   000072 631400 56                 EPPR1   58
        55 004727   000000 701000 xent               TSX1    Z8PA$SEMANTICS
        55 004730   000000 011000                    NOP     0

  21114 55 004731   000000 236000 7                  LDQ     REDUCTION
        55 004732   000006 402007                    MPY     6,DL
        55 004733   000100 101406                    MRL     fill='000'O
        55 004734   000000 400002 xsym               ADSC9   PRODR,Q                  cn=2,n=2
        55 004735   201444 000004                    ADSC9   I+2,,AUTO                cn=0,n=4
        55 004736   201444 236100                    LDQ     I+2,,AUTO
        55 004737   000000 116003                    CMPQ    0,DU
        55 004740   004742 601000 55                 TNZ     s:21124

  21116 55 004741   000000 054000 1                  AOS     LX_TOP

  21124 55 004742   200007 220100                    LDX0    INDX,,AUTO
        55 004743   000002 621010                    EAX1    2,X0
        55 004744   200007 741100                    STX1    INDX,,AUTO
        55 004745   200007 236100                    LDQ     INDX,,AUTO
        55 004746   000022 732000                    QRS     18
        55 004747   000000 116000 20                 CMPQ    RED_STACK_TOP
        55 004750   004677 604400 55                 TMOZ    s:21104

PL6.E3A0      #001=PARSER File=Z8PP.:Z8A6TSI                                     SAT 08/09/97 09:40 Page:114
  21125 55 004751   000000 450000 20                 STZ     RED_STACK_TOP

  21126 55 004752   000000 235000 22                 LDA     ALT_LX_TOP
        55 004753   000000 755000 1                  STA     LX_TOP

  21127 55 004754   000000 450000 21                 STZ     IED_FLAG

  21137 55 004755   000000 235000 4                  LDA     LA_CNT
        55 004756   005047 605400 55                 TPNZ    s:21206

  21138 55 004757   000000 235000 23                 LDA     CORRECTION
        55 004760   005004 601000 55                 TNZ     s:21150
        55 004761   000001 235000 23                 LDA     CORRECTION+1
        55 004762   005004 601000 55                 TNZ     s:21150

  21144 55 004763   000000 236000 5                  LDQ     LA_PUT
        55 004764   000006 402003                    MPY     6,DU
        55 004765   000073 036000 56                 ADLQ    59
        55 004766   201444 756100                    STQ     I+2,,AUTO
        55 004767   201444 630500                    EPPR0   I+2,,AUTO
        55 004770   201445 450500                    STP0    I+3,,AUTO
        55 004771   201445 630500                    EPPR0   I+3,,AUTO
        55 004772   000072 631400 56                 EPPR1   58
        55 004773   000000 701000 xent               TSX1    SCANNER
        55 004774   000000 011000                    NOP     0

  21146 55 004775   000000 236000 5                  LDQ     LA_PUT
        55 004776   000006 402007                    MPY     6,DL
        55 004777   000005 235006 0                  LDA     LA_STK+5,QL
        55 005000   000000 755000 5                  STA     LA_PUT

  21147 55 005001   000001 236007                    LDQ     1,DL
        55 005002   000000 756000 4                  STQ     LA_CNT

  21148 55 005003   005047 710000 55                 TRA     s:21206

  21150 55 005004   000000 235000 23                 LDA     CORRECTION
PL6.E3A0      #001=PARSER File=Z8PP.:Z8A6TSI                                     SAT 08/09/97 09:40 Page:115
        55 005005   005040 604400 55                 TMOZ    s:21165

  21153 55 005006   000001 235000 23                 LDA     CORRECTION+1
        55 005007   000001 735000                    ALS     1
        55 005010   000100 100405                    MLR     fill='000'O
        55 005011   000002 000002 23                 ADSC9   CORRECTION+2,A           cn=0,n=2
        55 005012   201444 000004                    ADSC9   I+2,,AUTO                cn=0,n=4
        55 005013   201444 236100                    LDQ     I+2,,AUTO
        55 005014   000022 732000                    QRS     18
        55 005015   201470 756100                    STQ     I+22,,AUTO
        55 005016   000133 236000 56                 LDQ     91
        55 005017   200014 756100                    STQ     @PLUG2$+1,,AUTO
        55 005020   000134 236000 56                 LDQ     92
        55 005021   200013 756100                    STQ     @PLUG1$+1,,AUTO
        55 005022   201470 630500                    EPPR0   I+22,,AUTO
        55 005023   200012 450500                    STP0    @ERROR_TYPE+1,,AUTO
        55 005024   000135 236000 56                 LDQ     93
        55 005025   200011 756100                    STQ     INDX+2,,AUTO
        55 005026   003671 701000 55                 TSX1    CREATE_DUMMY_TOKEN
        55 005027   000000 011000                    NOP     0

  21158 55 005030   000001 336007                    LCQ     1,DL
        55 005031   000000 056000 23                 ASQ     CORRECTION

  21159 55 005032   000001 054000 23                 AOS     CORRECTION+1

  21160 55 005033   000000 235000 5                  LDA     LA_PUT
        55 005034   000000 755000 6                  STA     LA_GET

  21161 55 005035   000001 235007                    LDA     1,DL
        55 005036   000000 755000 4                  STA     LA_CNT

  21162 55 005037   005047 710000 55                 TRA     s:21206

  21165 55 005040   000001 450000 23                 STZ     CORRECTION+1

  21166 55 005041   000000 235000 14                 LDA     ERR_LA_CNT
PL6.E3A0      #001=PARSER File=Z8PP.:Z8A6TSI                                     SAT 08/09/97 09:40 Page:116
        55 005042   000000 755000 4                  STA     LA_CNT

  21167 55 005043   000000 235000 13                 LDA     ERR_LA_PUT
        55 005044   000000 755000 5                  STA     LA_PUT

  21168 55 005045   000000 235000 12                 LDA     ERR_LA_GET
        55 005046   000000 755000 6                  STA     LA_GET

  21206 55 005047   000000 235000 1                  LDA     LX_TOP
        55 005050   000062 115007                    CMPA    50,DL
        55 005051   005066 601000 55                 TNZ     s:21227

  21215 55 005052   000000 450000 10                 STZ     ERRLINE

  21216 55 005053   000000 450000 11                 STZ     ERRCOL

  21219 55 005054   000020 236000 56                 LDQ     16
        55 005055   000020 235000 56                 LDA     16
        55 005056   200012 757100                    STAQ    @ERROR_TYPE+1,,AUTO
        55 005057   000005 236000 56                 LDQ     5
        55 005060   200011 756100                    STQ     INDX+2,,AUTO
        55 005061   004022 701000 55                 TSX1    ERROR
        55 005062   000000 011000                    NOP     0

  21222 55 005063   000002 713400                    CLIMB   err
        55 005064   000000 401760                    pmme    nvectors=0

  21224 55 005065   000000 702200 xent               TSX2  ! X66_ARET

  21227 55 005066   000000 054000 1                  AOS     LX_TOP

  21228 55 005067   000000 236000 6                  LDQ     LA_GET
        55 005070   000030 402007                    MPY     24,DL
        55 005071   201444 756100                    STQ     I+2,,AUTO
        55 005072   000000 236000 1                  LDQ     LX_TOP
        55 005073   000030 402007                    MPY     24,DL
        55 005074   201444 235100                    LDA     I+2,,AUTO
PL6.E3A0      #001=PARSER File=Z8PP.:Z8A6TSI                                     SAT 08/09/97 09:40 Page:117
        55 005075   000006 100405                    MLR     fill='000'O
        55 005076   000000 000030 0                  ADSC9   LA_STK,A                 cn=0,n=24
        55 005077   000000 000030 2                  ADSC9   LX_STK,Q                 cn=0,n=24

  21229 55 005100   000000 236000 1                  LDQ     LX_TOP
        55 005101   000006 402007                    MPY     6,DL
        55 005102   000000 620006                    EAX0    0,QL
        55 005103   000020 236000 56                 LDQ     16
        55 005104   000005 756010 2                  STQ     LX_STK+5,X0

  21236 55 005105   000000 450000 10                 STZ     ERRLINE

  21237 55 005106   000000 450000 11                 STZ     ERRCOL

  21240 55 005107   000000 221000 9                  LDX1    PARSE_STACK_IDX
        55 005110   000764 101003                    CMPX1   500,DU
        55 005111   005125 601000 55                 TNZ     s:21261

  21248 55 005112   000000 450000 10                 STZ     ERRLINE

  21249 55 005113   000000 450000 11                 STZ     ERRCOL

  21252 55 005114   000020 235000 56                 LDA     16
        55 005115   200012 757100                    STAQ    @ERROR_TYPE+1,,AUTO
        55 005116   000032 236000 56                 LDQ     26
        55 005117   200011 756100                    STQ     INDX+2,,AUTO
        55 005120   004022 701000 55                 TSX1    ERROR
        55 005121   000000 011000                    NOP     0

  21255 55 005122   000002 713400                    CLIMB   err
        55 005123   000000 401760                    pmme    nvectors=0

  21257 55 005124   004451 710000 55                 TRA     s:20927

  21261 55 005125   000001 336007                    LCQ     1,DL
        55 005126   000000 056000 4                  ASQ     LA_CNT

PL6.E3A0      #001=PARSER File=Z8PP.:Z8A6TSI                                     SAT 08/09/97 09:40 Page:118
  21262 55 005127   000000 236000 6                  LDQ     LA_GET
        55 005130   000006 402007                    MPY     6,DL
        55 005131   000005 235006 0                  LDA     LA_STK+5,QL
        55 005132   000000 755000 6                  STA     LA_GET

  21263 55 005133   200006 222100                    LDX2    ACTION,,AUTO
        55 005134   000000 742000 3                  STX2    STATE

  21264 55 005135   000001 623011                    EAX3    1,X1
        55 005136   000000 743000 9                  STX3    PARSE_STACK_IDX

  21265 55 005137   000000 236000 3                  LDQ     STATE
        55 005140   000022 732000                    QRS     18
        55 005141   000000 756013 8                  STQ     PARSE_STACK,X3

  21267 55 005142   004451 710000 55                 TRA     s:20927

      423    21269    2      ELSE
      424    21270    2        IF ACTION < 0 THEN

  21270 55 005143   005503 605000 55                 TPL     s:21574

      425    21271               %REDUCE;

  21280 55 005144   777777 620010                    EAX0    -1,X0
        55 005145   777777 660003                    ERX0    -1,DU
        55 005146   200006 740100                    STX0    ACTION,,AUTO

  21293 55 005147   000000 234000 21                 SZN     IED_FLAG
        55 005150   005170 604000 55                 TMI     s:21312

  21295 55 005151   000000 235000 9                  LDA     PARSE_STACK_IDX
        55 005152   000022 731000                    ARS     18
        55 005153   000000 755000 18                 STA     ALT_PARSE_STACK_IDX

  21296 55 005154   000002 735000                    ALS     2
        55 005155   000004 035007                    ADLA    4,DL
PL6.E3A0      #001=PARSER File=Z8PP.:Z8A6TSI                                     SAT 08/09/97 09:40 Page:119
        55 005156   200003 755100                    STA     PARSE_STACK_IDX_IN_CHARS,,AUTO

  21297 55 005157   000000 621005                    EAX1    0,AL
        55 005160   200003 722100                    LXL2    PARSE_STACK_IDX_IN_CHARS,,AUTO
        55 005161   040040 100440                    MLR     fill='040'O
        55 005162   000000 000011 8                  ADSC9   PARSE_STACK              cn=0,n=*X1
        55 005163   000000 000012 17                 ADSC9   ALT_PARSE_STACK          cn=0,n=*X2

  21299 55 005164   000000 235000 1                  LDA     LX_TOP
        55 005165   000000 755000 22                 STA     ALT_LX_TOP

  21300 55 005166   400000 236003                    LDQ     -131072,DU
        55 005167   000000 756000 21                 STQ     IED_FLAG

  21312 55 005170   000000 235000 20                 LDA     RED_STACK_TOP
        55 005171   000762 115007                    CMPA    498,DL
        55 005172   005204 605000 55                 TPL     s:21326

  21314 55 005173   200006 236100                    LDQ     ACTION,,AUTO
        55 005174   000022 732000                    QRS     18
        55 005175   000000 756005 19                 STQ     RED_STACK,AL

  21315 55 005176   000000 721000 20                 LXL1    RED_STACK_TOP
        55 005177   000000 235000 1                  LDA     LX_TOP
        55 005200   000001 755011 19                 STA     RED_STACK+1,X1

  21316 55 005201   000002 236007                    LDQ     2,DL
        55 005202   000000 056000 20                 ASQ     RED_STACK_TOP

  21317 55 005203   005311 710000 55                 TRA     s:21427

  21326 55 005204   000000 236000 4                  LDQ     LA_CNT
        55 005205   005276 605400 55                 TPNZ    s:21403

  21327 55 005206   000000 235000 23                 LDA     CORRECTION
        55 005207   005233 601000 55                 TNZ     s:21339
        55 005210   000001 235000 23                 LDA     CORRECTION+1
PL6.E3A0      #001=PARSER File=Z8PP.:Z8A6TSI                                     SAT 08/09/97 09:40 Page:120
        55 005211   005233 601000 55                 TNZ     s:21339

  21333 55 005212   000000 236000 5                  LDQ     LA_PUT
        55 005213   000006 402003                    MPY     6,DU
        55 005214   000073 036000 56                 ADLQ    59
        55 005215   201444 756100                    STQ     I+2,,AUTO
        55 005216   201444 630500                    EPPR0   I+2,,AUTO
        55 005217   201445 450500                    STP0    I+3,,AUTO
        55 005220   201445 630500                    EPPR0   I+3,,AUTO
        55 005221   000072 631400 56                 EPPR1   58
        55 005222   000000 701000 xent               TSX1    SCANNER
        55 005223   000000 011000                    NOP     0

  21335 55 005224   000000 236000 5                  LDQ     LA_PUT
        55 005225   000006 402007                    MPY     6,DL
        55 005226   000005 235006 0                  LDA     LA_STK+5,QL
        55 005227   000000 755000 5                  STA     LA_PUT

  21336 55 005230   000001 236007                    LDQ     1,DL
        55 005231   000000 756000 4                  STQ     LA_CNT

  21337 55 005232   005276 710000 55                 TRA     s:21403

  21339 55 005233   000000 235000 23                 LDA     CORRECTION
        55 005234   005267 604400 55                 TMOZ    s:21354

  21342 55 005235   000001 235000 23                 LDA     CORRECTION+1
        55 005236   000001 735000                    ALS     1
        55 005237   000100 100405                    MLR     fill='000'O
        55 005240   000002 000002 23                 ADSC9   CORRECTION+2,A           cn=0,n=2
        55 005241   201444 000004                    ADSC9   I+2,,AUTO                cn=0,n=4
        55 005242   201444 236100                    LDQ     I+2,,AUTO
        55 005243   000022 732000                    QRS     18
        55 005244   201472 756100                    STQ     I+24,,AUTO
        55 005245   000133 236000 56                 LDQ     91
        55 005246   200014 756100                    STQ     @PLUG2$+1,,AUTO
        55 005247   000134 236000 56                 LDQ     92
PL6.E3A0      #001=PARSER File=Z8PP.:Z8A6TSI                                     SAT 08/09/97 09:40 Page:121
        55 005250   200013 756100                    STQ     @PLUG1$+1,,AUTO
        55 005251   201472 630500                    EPPR0   I+24,,AUTO
        55 005252   200012 450500                    STP0    @ERROR_TYPE+1,,AUTO
        55 005253   000135 236000 56                 LDQ     93
        55 005254   200011 756100                    STQ     INDX+2,,AUTO
        55 005255   003671 701000 55                 TSX1    CREATE_DUMMY_TOKEN
        55 005256   000000 011000                    NOP     0

  21347 55 005257   000001 336007                    LCQ     1,DL
        55 005260   000000 056000 23                 ASQ     CORRECTION

  21348 55 005261   000001 054000 23                 AOS     CORRECTION+1

  21349 55 005262   000000 235000 5                  LDA     LA_PUT
        55 005263   000000 755000 6                  STA     LA_GET

  21350 55 005264   000001 235007                    LDA     1,DL
        55 005265   000000 755000 4                  STA     LA_CNT

  21351 55 005266   005276 710000 55                 TRA     s:21403

  21354 55 005267   000001 450000 23                 STZ     CORRECTION+1

  21355 55 005270   000000 235000 14                 LDA     ERR_LA_CNT
        55 005271   000000 755000 4                  STA     LA_CNT

  21356 55 005272   000000 236000 13                 LDQ     ERR_LA_PUT
        55 005273   000000 756000 5                  STQ     LA_PUT

  21357 55 005274   000000 235000 12                 LDA     ERR_LA_GET
        55 005275   000000 755000 6                  STA     LA_GET

  21403 55 005276   000000 450000 10                 STZ     ERRLINE

  21404 55 005277   000000 450000 11                 STZ     ERRCOL

  21407 55 005300   000020 236000 56                 LDQ     16
PL6.E3A0      #001=PARSER File=Z8PP.:Z8A6TSI                                     SAT 08/09/97 09:40 Page:122
        55 005301   000020 235000 56                 LDA     16
        55 005302   200012 757100                    STAQ    @ERROR_TYPE+1,,AUTO
        55 005303   000137 236000 56                 LDQ     95
        55 005304   200011 756100                    STQ     INDX+2,,AUTO
        55 005305   004022 701000 55                 TSX1    ERROR
        55 005306   000000 011000                    NOP     0

  21410 55 005307   000002 713400                    CLIMB   err
        55 005310   000000 401760                    pmme    nvectors=0

  21427 55 005311   200006 236100                    LDQ     ACTION,,AUTO
        55 005312   000022 732000                    QRS     18
        55 005313   000006 402007                    MPY     6,DL
        55 005314   000100 101406                    MRL     fill='000'O
        55 005315   000000 400002 xsym               ADSC9   PRODR,Q                  cn=2,n=2
        55 005316   201444 000004                    ADSC9   I+2,,AUTO                cn=0,n=4
        55 005317   000000 236000 9                  LDQ     PARSE_STACK_IDX
        55 005320   000022 732000                    QRS     18
        55 005321   201444 136100                    SBLQ    I+2,,AUTO
        55 005322   000000 620006                    EAX0    0,QL
        55 005323   000000 740000 9                  STX0    PARSE_STACK_IDX

  21428 55 005324   000000 235000 9                  LDA     PARSE_STACK_IDX
        55 005325   000022 731000                    ARS     18
        55 005326   000001 035007                    ADLA    1,DL
        55 005327   000000 755000 1                  STA     LX_TOP

  21436 55 005330   200006 236100                    LDQ     ACTION,,AUTO
        55 005331   000022 732000                    QRS     18
        55 005332   000006 402007                    MPY     6,DL
        55 005333   000100 100406                    MLR     fill='000'O
        55 005334   000000 000002 xsym               ADSC9   PRODR,Q                  cn=0,n=2
        55 005335   200005 000002                    ADSC9   NT,,AUTO                 cn=0,n=2

  21437 55 005336   200005 221100                    LDX1    NT,,AUTO
        55 005337   000000 722011 xsym               LXL2    GOTO_COL,X1
        55 005340   005344 601000 55                 TNZ     s:21446
PL6.E3A0      #001=PARSER File=Z8PP.:Z8A6TSI                                     SAT 08/09/97 09:40 Page:123

  21442 55 005341   000000 223011 xsym               LDX3    GOTO_COL,X1
        55 005342   000000 743000 3                  STX3    STATE

  21443 55 005343   005365 710000 55                 TRA     s:21463

  21446 55 005344   000000 236011 xsym               LDQ     GOTO_COL,X1
        55 005345   777777 376007                    ANQ     -1,DL
        55 005346   000000 036010 8                  ADLQ    PARSE_STACK,X0
        55 005347   000000 623006                    EAX3    0,QL
        55 005350   200007 743100                    STX3    INDX,,AUTO

  21447 55 005351   200005 235100                    LDA     NT,,AUTO
        55 005352   000022 731000                    ARS     18
        55 005353   201444 755100                    STA     I+2,,AUTO
        55 005354   000000 236013 xsym               LDQ     GOTO_ROW,X3
        55 005355   777777 376007                    ANQ     -1,DL
        55 005356   201444 116100                    CMPQ    I+2,,AUTO
        55 005357   005363 601000 55                 TNZ     s:21459

  21452 55 005360   000000 224013 xsym               LDX4    GOTO_ROW,X3
        55 005361   000000 744000 3                  STX4    STATE

  21453 55 005362   005365 710000 55                 TRA     s:21463

  21459 55 005363   000000 224011 xsym               LDX4    GOTO_COL,X1
        55 005364   000000 744000 3                  STX4    STATE

  21463 55 005365   000764 100003                    CMPX0   500,DU
        55 005366   005475 601000 55                 TNZ     s:21561

  21471 55 005367   000000 235000 4                  LDA     LA_CNT
        55 005370   005461 605400 55                 TPNZ    s:21547

  21472 55 005371   000000 236000 23                 LDQ     CORRECTION
        55 005372   005416 601000 55                 TNZ     s:21484
        55 005373   000001 235000 23                 LDA     CORRECTION+1
PL6.E3A0      #001=PARSER File=Z8PP.:Z8A6TSI                                     SAT 08/09/97 09:40 Page:124
        55 005374   005416 601000 55                 TNZ     s:21484

  21478 55 005375   000000 236000 5                  LDQ     LA_PUT
        55 005376   000006 402003                    MPY     6,DU
        55 005377   000073 036000 56                 ADLQ    59
        55 005400   201444 756100                    STQ     I+2,,AUTO
        55 005401   201444 630500                    EPPR0   I+2,,AUTO
        55 005402   201445 450500                    STP0    I+3,,AUTO
        55 005403   201445 630500                    EPPR0   I+3,,AUTO
        55 005404   000072 631400 56                 EPPR1   58
        55 005405   000000 701000 xent               TSX1    SCANNER
        55 005406   000000 011000                    NOP     0

  21480 55 005407   000000 236000 5                  LDQ     LA_PUT
        55 005410   000006 402007                    MPY     6,DL
        55 005411   000005 235006 0                  LDA     LA_STK+5,QL
        55 005412   000000 755000 5                  STA     LA_PUT

  21481 55 005413   000001 236007                    LDQ     1,DL
        55 005414   000000 756000 4                  STQ     LA_CNT

  21482 55 005415   005461 710000 55                 TRA     s:21547

  21484 55 005416   000000 116003                    CMPQ    0,DU
        55 005417   005452 604400 55                 TMOZ    s:21499

  21487 55 005420   000001 235000 23                 LDA     CORRECTION+1
        55 005421   000001 735000                    ALS     1
        55 005422   000100 100405                    MLR     fill='000'O
        55 005423   000002 000002 23                 ADSC9   CORRECTION+2,A           cn=0,n=2
        55 005424   201444 000004                    ADSC9   I+2,,AUTO                cn=0,n=4
        55 005425   201444 236100                    LDQ     I+2,,AUTO
        55 005426   000022 732000                    QRS     18
        55 005427   201474 756100                    STQ     I+26,,AUTO
        55 005430   000133 236000 56                 LDQ     91
        55 005431   200014 756100                    STQ     @PLUG2$+1,,AUTO
        55 005432   000134 236000 56                 LDQ     92
PL6.E3A0      #001=PARSER File=Z8PP.:Z8A6TSI                                     SAT 08/09/97 09:40 Page:125
        55 005433   200013 756100                    STQ     @PLUG1$+1,,AUTO
        55 005434   201474 630500                    EPPR0   I+26,,AUTO
        55 005435   200012 450500                    STP0    @ERROR_TYPE+1,,AUTO
        55 005436   000135 236000 56                 LDQ     93
        55 005437   200011 756100                    STQ     INDX+2,,AUTO
        55 005440   003671 701000 55                 TSX1    CREATE_DUMMY_TOKEN
        55 005441   000000 011000                    NOP     0

  21492 55 005442   000001 336007                    LCQ     1,DL
        55 005443   000000 056000 23                 ASQ     CORRECTION

  21493 55 005444   000001 054000 23                 AOS     CORRECTION+1

  21494 55 005445   000000 235000 5                  LDA     LA_PUT
        55 005446   000000 755000 6                  STA     LA_GET

  21495 55 005447   000001 235007                    LDA     1,DL
        55 005450   000000 755000 4                  STA     LA_CNT

  21496 55 005451   005461 710000 55                 TRA     s:21547

  21499 55 005452   000001 450000 23                 STZ     CORRECTION+1

  21500 55 005453   000000 235000 14                 LDA     ERR_LA_CNT
        55 005454   000000 755000 4                  STA     LA_CNT

  21501 55 005455   000000 235000 13                 LDA     ERR_LA_PUT
        55 005456   000000 755000 5                  STA     LA_PUT

  21502 55 005457   000000 235000 12                 LDA     ERR_LA_GET
        55 005460   000000 755000 6                  STA     LA_GET

  21547 55 005461   000000 450000 10                 STZ     ERRLINE

  21548 55 005462   000000 450000 11                 STZ     ERRCOL

  21551 55 005463   000020 236000 56                 LDQ     16
PL6.E3A0      #001=PARSER File=Z8PP.:Z8A6TSI                                     SAT 08/09/97 09:40 Page:126
        55 005464   000020 235000 56                 LDA     16
        55 005465   200012 757100                    STAQ    @ERROR_TYPE+1,,AUTO
        55 005466   000032 236000 56                 LDQ     26
        55 005467   200011 756100                    STQ     INDX+2,,AUTO
        55 005470   004022 701000 55                 TSX1    ERROR
        55 005471   000000 011000                    NOP     0

  21554 55 005472   000002 713400                    CLIMB   err
        55 005473   000000 401760                    pmme    nvectors=0

  21558 55 005474   004451 710000 55                 TRA     s:20927

  21561 55 005475   000001 623010                    EAX3    1,X0
        55 005476   000000 743000 9                  STX3    PARSE_STACK_IDX

  21562 55 005477   000000 235000 3                  LDA     STATE
        55 005500   000022 731000                    ARS     18
        55 005501   000000 755013 8                  STA     PARSE_STACK,X3

  21564 55 005502   004451 710000 55                 TRA     s:20927

      426    21566    2        ELSE    /* Error occurred */
      427    21567               %RECOVERY;

  21574 55 005503   400000 236003                    LDQ     -131072,DU
        55 005504   000000 756000 15                 STQ     ERR_RECOVERY_IN_PROGRESS

  21575 55 005505   000000 054000 16                 AOS     PARSE_ERROR_COUNT

  21583 55 005506   000000 234000 21                 SZN     IED_FLAG
        55 005507   005531 605000 55                 TPL     s:21596

  21585 55 005510   000000 721000 18                 LXL1    ALT_PARSE_STACK_IDX
        55 005511   000000 741000 9                  STX1    PARSE_STACK_IDX

  21586 55 005512   000000 235000 18                 LDA     ALT_PARSE_STACK_IDX
        55 005513   000002 735000                    ALS     2
PL6.E3A0      #001=PARSER File=Z8PP.:Z8A6TSI                                     SAT 08/09/97 09:40 Page:127
        55 005514   000004 035007                    ADLA    4,DL
        55 005515   200003 755100                    STA     PARSE_STACK_IDX_IN_CHARS,,AUTO

  21587 55 005516   000000 622005                    EAX2    0,AL
        55 005517   200003 723100                    LXL3    PARSE_STACK_IDX_IN_CHARS,,AUTO
        55 005520   040040 100440                    MLR     fill='040'O
        55 005521   000000 000012 17                 ADSC9   ALT_PARSE_STACK          cn=0,n=*X2
        55 005522   000000 000013 8                  ADSC9   PARSE_STACK              cn=0,n=*X3

  21589 55 005523   000000 235000 22                 LDA     ALT_LX_TOP
        55 005524   000000 755000 1                  STA     LX_TOP

  21590 55 005525   000000 722011 8                  LXL2    PARSE_STACK,X1
        55 005526   000000 742000 3                  STX2    STATE

  21591 55 005527   000000 450000 21                 STZ     IED_FLAG

  21592 55 005530   000000 450000 20                 STZ     RED_STACK_TOP

  21596 55 005531   000003 701000 55                 TSX1    LOCALLY_LEAST_COST_CORRECTION
        55 005532   000000 011000                    NOP     0

  21602 55 005533   000000 450000 15                 STZ     ERR_RECOVERY_IN_PROGRESS

      428    21605
      429    21606    2    END;  /* While */

  21606 55 005534   004451 710000 55                 TRA     s:20927
      430    21607
      431    21608
      432    21609           /* The above loop should never fall thru;  it terminates in the
      433    21610                shift action when the next state is zero.
      434    21611           */
      435    21612
      436    21613    1    END PARSER;
      437    21614         %EOD;

PL6.E3A0      #001=PARSER File=Z8PP.:Z8A6TSI                                     SAT 08/09/97 09:40 Page:128
--  Include file information  --

   Z8P_PARS_EC.:Z8A6TOU  cannot be made into a system file and is referenced.
   Z8P_PARS_STS.:Z8A6TOU  is referenced.
   Z8P_PARS_MAC.:Z8A6TOU  cannot be made into a system file and is referenced.
   Z9P_IO_EXT.:Z8A6TOU  cannot be made into a system file and is referenced.
   Z8P_SCAN_EXT.:Z8A6TOU  cannot be made into a system file and is referenced.
   CP_6_SUBS.:LIB_E04  is referenced.
   CP_6_C.:LIB_E04  is referenced.
   CP_6.:LIB_E04  cannot be made into a system file and is referenced.
   Z9A_FLAGS.:Z8A6TOU  is referenced.
   Z8A_SYS_FILE.:Z8A6TOU  is referenced.
   Z8P_P_STATE.:Z8A6TOU  cannot be made into a system file and is referenced.
   Z8P_PARS_STK.:Z8A6TOU  cannot be made into a system file and is referenced.
   SCDPDA_SUBS.:Z8A6TOU  is referenced.
      No diagnostics issued in procedure PARSER.
PL6.E3A0      #001=PARSER File=Z8PP.:Z8A6TSI                                     SAT 08/09/97 09:40 Page:129

 **** Variables and constants ****

  ****  Section 000 LblCom LA_STK

  ****  Scalars and arrays  ****
OctLoc.c.b A Datatyp(siz) R M Lvl/name                 OctLoc.c.b A Datatyp(siz) R M Lvl/name

     0-0-0/w STRC(216)   r     1 LA_STK(0:50)

  ****  Section 001 LblCom LX_TOP

  ****  Scalars and arrays  ****
OctLoc.c.b A Datatyp(siz) R M Lvl/name                 OctLoc.c.b A Datatyp(siz) R M Lvl/name

     0-0-0/w SBIN        r     1 LX_TOP

  ****  Section 002 LblCom LX_STK

  ****  Scalars and arrays  ****
OctLoc.c.b A Datatyp(siz) R M Lvl/name                 OctLoc.c.b A Datatyp(siz) R M Lvl/name

     0-0-0/w STRC(216)   r     1 LX_STK(0:50)

  ****  Section 003 LblCom STATE

  ****  Scalars and arrays  ****
OctLoc.c.b A Datatyp(siz) R M Lvl/name                 OctLoc.c.b A Datatyp(siz) R M Lvl/name

     0-0-0/w SBIN(18)    r     1 STATE

  ****  Section 004 LblCom LA_CNT

  ****  Scalars and arrays  ****
OctLoc.c.b A Datatyp(siz) R M Lvl/name                 OctLoc.c.b A Datatyp(siz) R M Lvl/name

     0-0-0/w SBIN        r     1 LA_CNT

PL6.E3A0      #001=PARSER File=Z8PP.:Z8A6TSI                                     SAT 08/09/97 09:40 Page:130
  ****  Section 005 LblCom LA_PUT

  ****  Scalars and arrays  ****
OctLoc.c.b A Datatyp(siz) R M Lvl/name                 OctLoc.c.b A Datatyp(siz) R M Lvl/name

     0-0-0/w SBIN        r     1 LA_PUT

  ****  Section 006 LblCom LA_GET

  ****  Scalars and arrays  ****
OctLoc.c.b A Datatyp(siz) R M Lvl/name                 OctLoc.c.b A Datatyp(siz) R M Lvl/name

     0-0-0/w SBIN        r     1 LA_GET

  ****  Section 007 LblCom REDUCTION

  ****  Scalars and arrays  ****
OctLoc.c.b A Datatyp(siz) R M Lvl/name                 OctLoc.c.b A Datatyp(siz) R M Lvl/name

     0-0-0/w SBIN        r     1 REDUCTION

  ****  Section 008 LblCom PARSE_STACK

  ****  Scalars and arrays  ****
OctLoc.c.b A Datatyp(siz) R M Lvl/name                 OctLoc.c.b A Datatyp(siz) R M Lvl/name

     0-0-0/w SBIN        r     1 PARSE_STACK(0:500)

  ****  Section 009 LblCom PARSE_STACK_IDX

  ****  Scalars and arrays  ****
OctLoc.c.b A Datatyp(siz) R M Lvl/name                 OctLoc.c.b A Datatyp(siz) R M Lvl/name

     0-0-0/w SBIN(18)    r     1 PARSE_STACK_IDX

  ****  Section 010 LblCom ERRLINE

PL6.E3A0      #001=PARSER File=Z8PP.:Z8A6TSI                                     SAT 08/09/97 09:40 Page:131
  ****  Scalars and arrays  ****
OctLoc.c.b A Datatyp(siz) R M Lvl/name                 OctLoc.c.b A Datatyp(siz) R M Lvl/name

     0-0-0/w SBIN        r     1 ERRLINE

  ****  Section 011 LblCom ERRCOL

  ****  Scalars and arrays  ****
OctLoc.c.b A Datatyp(siz) R M Lvl/name                 OctLoc.c.b A Datatyp(siz) R M Lvl/name

     0-0-0/w SBIN        r     1 ERRCOL

  ****  Section 012 LblCom ERR_LA_GET

  ****  Scalars and arrays  ****
OctLoc.c.b A Datatyp(siz) R M Lvl/name                 OctLoc.c.b A Datatyp(siz) R M Lvl/name

     0-0-0/w SBIN        r     1 ERR_LA_GET

  ****  Section 013 LblCom ERR_LA_PUT

  ****  Scalars and arrays  ****
OctLoc.c.b A Datatyp(siz) R M Lvl/name                 OctLoc.c.b A Datatyp(siz) R M Lvl/name

     0-0-0/w SBIN        r     1 ERR_LA_PUT

  ****  Section 014 LblCom ERR_LA_CNT

  ****  Scalars and arrays  ****
OctLoc.c.b A Datatyp(siz) R M Lvl/name                 OctLoc.c.b A Datatyp(siz) R M Lvl/name

     0-0-0/w SBIN        r     1 ERR_LA_CNT

  ****  Section 015 LblCom ERR_RECOVERY_IN_PROGRESS

  ****  Scalars and arrays  ****
OctLoc.c.b A Datatyp(siz) R M Lvl/name                 OctLoc.c.b A Datatyp(siz) R M Lvl/name
PL6.E3A0      #001=PARSER File=Z8PP.:Z8A6TSI                                     SAT 08/09/97 09:40 Page:132

     0-0-0/b BIT         r     1 ERR_RECOVERY_IN_PROGRESS

  ****  Section 016 LblCom PARSE_ERROR_COUNT

  ****  Scalars and arrays  ****
OctLoc.c.b A Datatyp(siz) R M Lvl/name                 OctLoc.c.b A Datatyp(siz) R M Lvl/name

     0-0-0/w SBIN        r     1 PARSE_ERROR_COUNT

  ****  Section 017 LblCom ALT_PARSE_STACK

  ****  Scalars and arrays  ****
OctLoc.c.b A Datatyp(siz) R M Lvl/name                 OctLoc.c.b A Datatyp(siz) R M Lvl/name

     0-0-0/w SBIN        r     1 ALT_PARSE_STACK(0:500)

  ****  Section 018 LblCom ALT_PARSE_STACK_IDX

  ****  Scalars and arrays  ****
OctLoc.c.b A Datatyp(siz) R M Lvl/name                 OctLoc.c.b A Datatyp(siz) R M Lvl/name

     0-0-0/w SBIN        r     1 ALT_PARSE_STACK_IDX

  ****  Section 019 LblCom RED_STACK

  ****  Scalars and arrays  ****
OctLoc.c.b A Datatyp(siz) R M Lvl/name                 OctLoc.c.b A Datatyp(siz) R M Lvl/name

     0-0-0/w SBIN        r     1 RED_STACK(0:500)

  ****  Section 020 LblCom RED_STACK_TOP

  ****  Scalars and arrays  ****
OctLoc.c.b A Datatyp(siz) R M Lvl/name                 OctLoc.c.b A Datatyp(siz) R M Lvl/name

     0-0-0/w SBIN        r     1 RED_STACK_TOP
PL6.E3A0      #001=PARSER File=Z8PP.:Z8A6TSI                                     SAT 08/09/97 09:40 Page:133

  ****  Section 021 LblCom IED_FLAG

  ****  Scalars and arrays  ****
OctLoc.c.b A Datatyp(siz) R M Lvl/name                 OctLoc.c.b A Datatyp(siz) R M Lvl/name

     0-0-0/b BIT         r     1 IED_FLAG

  ****  Section 022 LblCom ALT_LX_TOP

  ****  Scalars and arrays  ****
OctLoc.c.b A Datatyp(siz) R M Lvl/name                 OctLoc.c.b A Datatyp(siz) R M Lvl/name

     0-0-0/w SBIN        r     1 ALT_LX_TOP

  ****  Section 023 LblCom CORRECTION

  ****  Scalars and arrays  ****
OctLoc.c.b A Datatyp(siz) R M Lvl/name                 OctLoc.c.b A Datatyp(siz) R M Lvl/name

     0-0-0/w STRC(1890)  r     1 CORRECTION

  ****  Section 025 LblCom OUT_DCBN

  ****  Scalars and arrays  ****
OctLoc.c.b A Datatyp(siz) R M Lvl/name                 OctLoc.c.b A Datatyp(siz) R M Lvl/name

     0-0-0/w SBIN              1 OUT_DCBN

  ****  Section 026 LblCom SAVE_OUT_DCBN

  ****  Scalars and arrays  ****
OctLoc.c.b A Datatyp(siz) R M Lvl/name                 OctLoc.c.b A Datatyp(siz) R M Lvl/name

     0-0-0/w SBIN              1 SAVE_OUT_DCBN

  ****  Section 027 LblCom SAVE_DCBN2
PL6.E3A0      #001=PARSER File=Z8PP.:Z8A6TSI                                     SAT 08/09/97 09:40 Page:134

  ****  Scalars and arrays  ****
OctLoc.c.b A Datatyp(siz) R M Lvl/name                 OctLoc.c.b A Datatyp(siz) R M Lvl/name

     0-0-0/w SBIN              1 SAVE_DCBN2

  ****  Section 034 LblCom ERR_SEV

  ****  Scalars and arrays  ****
OctLoc.c.b A Datatyp(siz) R M Lvl/name                 OctLoc.c.b A Datatyp(siz) R M Lvl/name

     0-0-0/w SBIN              1 ERR_SEV

  ****  Section 035 LblCom OPTIONS

  ****  Scalars and arrays  ****
OctLoc.c.b A Datatyp(siz) R M Lvl/name                 OctLoc.c.b A Datatyp(siz) R M Lvl/name

     0-0-0/b BIT               1 OPTIONS(0:25)

  ****  Section 036 LblCom DO_REQ

  ****  Scalars and arrays  ****
OctLoc.c.b A Datatyp(siz) R M Lvl/name                 OctLoc.c.b A Datatyp(siz) R M Lvl/name

     0-0-0/b BIT               1 DO_REQ

  ****  Section 037 LblCom OPTIONS_TEXT

  ****  Scalars and arrays  ****
OctLoc.c.b A Datatyp(siz) R M Lvl/name                 OctLoc.c.b A Datatyp(siz) R M Lvl/name

     0-0-0/c CHAR(4)           1 OPTIONS_TEXT(0:25)

  ****  Section 038 LblCom INSTR

  ****  Scalars and arrays  ****
PL6.E3A0      #001=PARSER File=Z8PP.:Z8A6TSI                                     SAT 08/09/97 09:40 Page:135
OctLoc.c.b A Datatyp(siz) R M Lvl/name                 OctLoc.c.b A Datatyp(siz) R M Lvl/name

     0-0-0/c CHAR              1 INSTR(0:511)               0-0-0/c CHAR(512)         1 INSTRCHR

  ****  Section 039 LblCom INSTR_LISTED

  ****  Scalars and arrays  ****
OctLoc.c.b A Datatyp(siz) R M Lvl/name                 OctLoc.c.b A Datatyp(siz) R M Lvl/name

     0-0-0/b BIT               1 INSTR_LISTED

  ****  Section 040 LblCom INSTR_LEN

  ****  Scalars and arrays  ****
OctLoc.c.b A Datatyp(siz) R M Lvl/name                 OctLoc.c.b A Datatyp(siz) R M Lvl/name

     0-0-0/w SBIN              1 INSTR_LEN

  ****  Section 041 LblCom INSTR_INDX

  ****  Scalars and arrays  ****
OctLoc.c.b A Datatyp(siz) R M Lvl/name                 OctLoc.c.b A Datatyp(siz) R M Lvl/name

     0-0-0/w SBIN              1 INSTR_INDX

  ****  Section 042 LblCom EOF_FLAG

  ****  Scalars and arrays  ****
OctLoc.c.b A Datatyp(siz) R M Lvl/name                 OctLoc.c.b A Datatyp(siz) R M Lvl/name

     0-0-0/b BIT               1 EOF_FLAG

  ****  Section 043 LblCom KEY_REC

  ****  Scalars and arrays  ****
OctLoc.c.b A Datatyp(siz) R M Lvl/name                 OctLoc.c.b A Datatyp(siz) R M Lvl/name

PL6.E3A0      #001=PARSER File=Z8PP.:Z8A6TSI                                     SAT 08/09/97 09:40 Page:136
     0-0-0/c CHAR(20)    r     1 KEY_REC

  ****  Section 044 LblCom LINES_OUT

  ****  Scalars and arrays  ****
OctLoc.c.b A Datatyp(siz) R M Lvl/name                 OctLoc.c.b A Datatyp(siz) R M Lvl/name

     0-0-0/w SBIN              1 LINES_OUT

  ****  Section 045 LblCom HEADER_LINE1

  ****  Scalars and arrays  ****
OctLoc.c.b A Datatyp(siz) R M Lvl/name                 OctLoc.c.b A Datatyp(siz) R M Lvl/name

     0-0-0/c CHAR(100)         1 HEADER_LINE1

  ****  Section 046 LblCom HEADER_LINE3

  ****  Scalars and arrays  ****
OctLoc.c.b A Datatyp(siz) R M Lvl/name                 OctLoc.c.b A Datatyp(siz) R M Lvl/name

     0-0-0/c CHAR(100)         1 HEADER_LINE3

  ****  Section 047 LblCom HEADER_LINE2

  ****  Scalars and arrays  ****
OctLoc.c.b A Datatyp(siz) R M Lvl/name                 OctLoc.c.b A Datatyp(siz) R M Lvl/name

     0-0-0/c CHAR(100)         1 HEADER_LINE2

  ****  Section 048 LblCom MAX_LINES_PER_PAGE

  ****  Scalars and arrays  ****
OctLoc.c.b A Datatyp(siz) R M Lvl/name                 OctLoc.c.b A Datatyp(siz) R M Lvl/name

     0-0-0/w UBIN              1 MAX_LINES_PER_PAGE

PL6.E3A0      #001=PARSER File=Z8PP.:Z8A6TSI                                     SAT 08/09/97 09:40 Page:137
  ****  Section 049 LblCom LINE

  ****  Scalars and arrays  ****
OctLoc.c.b A Datatyp(siz) R M Lvl/name                 OctLoc.c.b A Datatyp(siz) R M Lvl/name

     0-0-0/c CHAR(109)         1 LINE

  ****  Section 050 LblCom LINELEN

  ****  Scalars and arrays  ****
OctLoc.c.b A Datatyp(siz) R M Lvl/name                 OctLoc.c.b A Datatyp(siz) R M Lvl/name

     0-0-0/w SBIN              1 LINELEN

  ****  Section 051 LblCom PHASE

  ****  Scalars and arrays  ****
OctLoc.c.b A Datatyp(siz) R M Lvl/name                 OctLoc.c.b A Datatyp(siz) R M Lvl/name

     0-0-0/w SBIN              1 PHASE

  ****  Section 052 LblCom ERROR_COUNT

  ****  Scalars and arrays  ****
OctLoc.c.b A Datatyp(siz) R M Lvl/name                 OctLoc.c.b A Datatyp(siz) R M Lvl/name

     0-0-0/w SBIN              1 ERROR_COUNT

  ****  Section 053  Data  PARSER

  ****  Scalars and arrays  ****
OctLoc.c.b A Datatyp(siz) R M Lvl/name                 OctLoc.c.b A Datatyp(siz) R M Lvl/name

   110-0-0/c CHAR(4)     r     1 CONT_STR                   0-0-0/c STRC(1269)  r     1 TEXTCHAR1
   111-0-0/c STRC(1269)  r     1 TEXTCHAR1                 44-0-0/c STRC(1269)  r     1 TEXTCHAR2
   155-0-0/c STRC(1269)  r     1 TEXTCHAR2

PL6.E3A0      #001=PARSER File=Z8PP.:Z8A6TSI                                     SAT 08/09/97 09:40 Page:138
  ****  Section 054 RoData PARSER

  ****  Scalars and arrays  ****
OctLoc.c.b A Datatyp(siz) R M Lvl/name                 OctLoc.c.b A Datatyp(siz) R M Lvl/name

   147-0-0/c STRC(531)   r     1 CANT_RECOVER             335-0-0/c STRC(531)   r     1 CANT_RECOVER
   136-0-0/c STRC(315)   r     1 DEL_2                    324-0-0/c STRC(315)   r     1 DEL_2
   106-0-0/c STRC(243)   r     1 INS_BEF_1                274-0-0/c STRC(243)   r     1 INS_BEF_1
   115-0-0/c STRC(243)   r     1 INS_BEF_2                303-0-0/c STRC(243)   r     1 INS_BEF_2
     0-0-0/c STRC(315)   r     1 P_OVFL                   166-0-0/c STRC(315)   r     1 P_OVFL
    56-0-0/c STRC(459)   r     1 RECOV_EOF                244-0-0/c STRC(459)   r     1 RECOV_EOF
    23-0-0/c STRC(351)   r     1 RED_OVFL                 211-0-0/c STRC(351)   r     1 RED_OVFL
   124-0-0/c STRC(360)   r     1 REPL_2                   312-0-0/c STRC(360)   r     1 REPL_2
    73-0-0/c STRC(387)   r     1 RESUME_PARSE             261-0-0/c STRC(387)   r     1 RESUME_PARSE
    11-0-0/c STRC(342)   r     1 SEM_OVFL                 177-0-0/c STRC(342)   r     1 SEM_OVFL
    35-0-0/c STRC(360)   r     1 SKIP_1                   223-0-0/c STRC(360)   r     1 SKIP_1
    47-0-0/c STRC(234)   r     1 SKIP_2                   235-0-0/c STRC(234)   r     1 SKIP_2

  ****  Auto variables  ****

  ****  Scalars and arrays  ****
OctLoc.c.b A Datatyp(siz) R M Lvl/name                 OctLoc.c.b A Datatyp(siz) R M Lvl/name

    14-0-0/w PTR         r     1 @COL_IN_ERROR            327-0-0/w PTR         r     1 @DI
   330-0-0/w PTR         r     1 @DI_CHAR_OVERFLOW       1437-0-0/w PTR         r     1 @ERROR_TYPE
    11-0-0/w PTR         r     1 @ERROR_TYPE             1437-0-0/w PTR         r     1 @ITM
    11-0-0/w PTR         r     1 @LA_PUT                   13-0-0/w PTR         r     1 @LINE_IN_ERROR
   323-0-0/w PTR         r     1 @LRC                    1440-0-0/w PTR         r     1 @PLUG1$
    12-0-0/w PTR         r     1 @PLUG1$                 1441-0-0/w PTR         r     1 @PLUG2$
    13-0-0/w PTR         r     1 @PLUG2$                 1435-0-0/w PTR         r     1 @PREVSTATE
   331-0-0/w PTR         r     1 @PT_LEN                  332-0-0/w PTR         r     1 @PT_PTR
  1436-0-0/w PTR         r     1 @SUCCSTATE                12-0-0/w PTR         r     1 @SYM_TO_BE_INSERTED
   217-0-0/w SBIN        r     1 ACCUM_COST               173-0-0/w SBIN        r     1 ACCUM_DEL_COST
   172-0-0/w SBIN        r     1 ACCUM_DEL_LEN            174-0-0/w SBIN        r     1 ACCUM_INS_TO_SYM
     6-0-0/w SBIN(18)    r     1 ACTION                   265-0-0/w STRC(936)   r     1 BEF
    *0-0-0/w SBIN        r     1 COL_IN_ERROR            1423-0-0/w SBIN        r     1 CURRHIGHBASIS
  1422-0-0/w SBIN        r     1 CURRLOWBASIS             220-0-0/w PTR         r     1 CURRSTAGE$
PL6.E3A0      #001=PARSER File=Z8PP.:Z8A6TSI                                     SAT 08/09/97 09:40 Page:139
   200-0-0/w STRC(936)   r     1 DEL                      177-0-0/w SBIN        r     1 DEL_CHAR_OVERFLOW
   317-0-0/w PTR         r     1 DEL_DNT$                  *0-0-0/w STRC(936)   r     1 DI
    *0-0-0/w SBIN        r     1 DI_CHAR_OVERFLOW          *0-0-0/w SBIN        r     1 ERROR_TYPE
    *0-0-0/w SBIN        r     1 ERROR_TYPE               203-0-0/w UBIN        r     1 H
   207-0-0/w SBIN        r     1 HIGHBASIS               1442-0-0/w SBIN        r     1 I
   324-0-0/w SBIN        r     1 I                        323-0-0/w SBIN        r     1 I
   177-0-0/w SBIN        r     1 I                       1435-0-0/w SBIN        r     1 I
  1437-0-0/w SBIN        r     1 I                       1440-0-0/w SBIN        r     1 I
    14-0-0/w SBIN        r     1 I                        202-0-0/w SBIN        r     1 I2
     7-0-0/w SBIN(18)    r     1 INDX                     233-0-0/w STRC(936)   r     1 INS
   321-0-0/w PTR         r     1 INS_BEF_DNT$             232-0-0/w SBIN        r     1 INS_CHAR_OVERFLOW
   320-0-0/w PTR         r     1 INS_DNT$                1424-0-0/w SBIN        r     1 ITM
    *0-0-0/w SBIN        r     1 ITM                      325-0-0/w SBIN        r     1 J
   200-0-0/w SBIN        r     1 J                        201-0-0/w SBIN        r     1 K
   204-0-0/w UBIN        r     1 L                        171-0-0/b BIT         r     1 LARGE_DELETION
    *0-0-0/w SBIN        r     1 LA_PUT                    11-0-0/w STRC(1998)  r     1 LC
   236-0-0/w SBIN        r     1 LCC_SPACE(0:624)
   215-0-0/w SBIN        r     1 LCP_ELEM_RET              *0-0-0/w SBIN        r     1 LINE_IN_ERROR
   206-0-0/w SBIN        r     1 LOWBASIS                 101-0-0/w STRC(1998)  r     1 LR
    *0-0-0/w STRC(1998)  r     1 LRC                      205-0-0/w UBIN        r     1 M
   211-0-0/w SBIN        r     1 MINCOST                  210-0-0/w SBIN        r     1 MINITEM
   213-0-0/w SBIN        r     1 MINLCPINDX               214-0-0/w SBIN        r     1 MINPATH
   212-0-0/w SBIN        r     1 MINPOS                    62-0-0/w PTR         r     1 NEW$
    16-0-0/w SBIN        r     1 NEWLEN                  1426-0-0/w SBIN        r     1 NEXTHIGHBASIS
  1427-0-0/w SBIN        r     1 NEXTITEM                1425-0-0/w SBIN        r     1 NEXTLOWBASIS
   221-0-0/w PTR         r     1 NEXTSTAGE$                 5-0-0/w SBIN(18)    r     1 NT
   177-0-0/w SBIN        r     1 OLA_GET                  200-0-0/w SBIN        r     1 OLINK
  1430-0-0/w SBIN        r     1 P
     3-0-0/w SBIN        r     1 PARSE_STACK_IDX_IN_CHARS
  1432-0-0/w SBIN        r     1 PATH_COST               1431-0-0/w SBIN        r     1 PE
  1433-0-0/w UBIN(18)    r     1 PELEM                     *0-0-0/w PTR         r     1 PLUG1$
    *0-0-0/w PTR         r     1 PLUG1$                    *0-0-0/w PTR         r     1 PLUG2$
    *0-0-0/w PTR         r     1 PLUG2$                  1420-0-0/b BIT         r     1 PRED_CLOSURE
  1417-0-0/w SBIN        r     1 PRED_ITEM                 *0-0-0/w SBIN        r     1 PREVSTATE
     4-0-0/w SBIN(18)          1 PSI                       *0-0-0/w SBIN        r     1 PT_LEN
    *0-0-0/w PTR         r     1 PT_PTR
   222-0-0/w PTR         r     1 STAGE1$(0:5)
PL6.E3A0      #001=PARSER File=Z8PP.:Z8A6TSI                                     SAT 08/09/97 09:40 Page:140
   230-0-0/w PTR         r     1 STAGE2$(0:5)
    *0-0-0/w SBIN        r     1 SUCCSTATE                 15-0-0/w SBIN        r     1 SYMLEN
    *0-0-0/w SBIN        r     1 SYM_TO_BE_INSERTED        17-0-0/c CHAR(140)         1 TEXTCHAR
  1440-0-0/w PTR         r     1 TPTR                     216-0-0/w SBIN        r     1 TRYCOST
  1421-0-0/b BIT         r     1 WORTHCONTINUING

  ****  SYMREF variables  ****

  ****  Scalars and arrays  ****
OctLoc.c.b A Datatyp(siz) R M Lvl/name                 OctLoc.c.b A Datatyp(siz) R M Lvl/name

     0-0-0/b STRC        r     1 ACTION_COL(0:548)
     0-0-0/b STRC        r     1 ACTION_ROW(0:1904)
     0-0-0/b UBIN(17)    r     1 DEL_COST(0:209)            0-0-0/b STRC        r     1 GOTO_COL(0:183)
     0-0-0/b STRC        r     1 GOTO_ROW(0:194)            0-0-0/b STRC(27)    r     1 ITEM(0:2330)
     0-0-0/b STRC(39)    r     1 LCP(0:3477)                0-0-0/b UBIN(9)     r     1 LCP_ELEM(0:337)
     0-0-0/b UBIN(12)    r     1 LCP_UBOUND(0:209)
     0-0-0/b STRC(30)    r     1 LCS(0:392)                 0-0-0/b UBIN(8)     r     1 LCS_ELEM(0:317)
     0-0-0/b STRC(14)    r     1 PATH(0:205)
     0-0-0/b UBIN(9)     r     1 PATH_ELEM(0:279)
     0-0-0/b STRC(54)    r     1 PRODR(0:399)
     0-0-0/b STRC(24)    r     1 STATE_ITEM(0:548)
     0-0-0/b STRC(15)    r     1 TERM_STRING(0:209)
     0-0-0/b STRC(15)    r     1 TERM_STRING(0:209)
     0-0-0/b STRC(15)    r     1 TERM_STRING(0:209)
     0-0-0/b STRC(15)    r     1 TERM_STRING(0:209)
     0-0-0/c CHAR(880)   r     1 TSTRING_SPACE              0-0-0/c CHAR(880)   r     1 TSTRING_SPACE
     0-0-0/c CHAR(880)   r     1 TSTRING_SPACE              0-0-0/c CHAR(880)   r     1 TSTRING_SPACE

  ****  BASED and DCB variables  ****

  ****  Scalars and arrays  ****
OctLoc.c.b A Datatyp(siz) R M Lvl/name                 OctLoc.c.b A Datatyp(siz) R M Lvl/name

     0-0-0/w PTR         r     1 CURRSTAGE(0:5)
     0-0-0/w ASTR        r     1 DNT                        0-0-0/h STRC(1854)  r     1 LCC
     0-0-0/w STRC(216)         1 LX_ITEM                    0-0-0N  NULL        r     1 M$DO
PL6.E3A0      #001=PARSER File=Z8PP.:Z8A6TSI                                     SAT 08/09/97 09:40 Page:141
     0-0-0N  NULL        r     1 M$LO                       0-0-0N  NULL        r     1 M$OU
     0-0-0N  NULL        r     1 M$SI                       0-0-0N  NULL        r     1 M$SO
     0-0-0N  NULL        r     1 M$UC                       0-0-0N  NULL        r     1 M$UI
     0-0-0/w PTR         r     1 NEXTSTAGE(0:5)
     0-0-0/c ACHR        r     1 PARSE_STACK_USED           0-0-0/c ACHR        r     1 PT_CHAR


   Procedure PARSER requires 2909 words for executable code.
   Procedure PARSER requires 830 words of local(AUTO) storage.

