VERSION A06

PL6.E3A0      #001=Z9A1$INITIALIZE File=Z9A1.:Z8A6TSI                            SAT 08/09/97 13:35 Page:1
        1        1        /*M*   Z9A1$INITIALIZE   CP6-specific initialization */
        2        2        /*T***********************************************************/
        3        3        /*T*                                                         */
        4        4        /*T* Copyright (c) Bull HN Information Systems Inc., 1997    */
        5        5        /*T*                                                         */
        6        6        /*T***********************************************************/
        7        7        /*X*   MCL=5,MOC,CLM=40,CRM=80,CCC,
        8        8               PLM=0,IND=3,SDI=2,CTI=6,AND,DCI=6,CSU=3,ECU=3,THI=3,DTI=6,STI=3 */
        9        9        /*P*   NAME:           Z9A1$INITIALIZE
       10       10               PURPOSE:        Initializes CP-6-specific stuff.
       11       11               DESCRIPTION:    In CP-6 all that is necessary is to call Z9A8$DCBS
       12       12                               to initialize the needed DCB pointer and number
       13       13                               variables and to inquire, what model is the CP.
       14       14                                                                               */
       15       15        /*D*   NAME:           Z9A1$INITIALIZE
       16       16               CALL:           CALL Z9A1$INITIALIZE;
       17       17               INTERFACE:      Calls Z9A8$DCBS to initialize DCB pointers and
       18       18                               number variables.
       19       19               INPUT:          None.
       20       20               OUTPUT:         None.
       21       21                                                                               */
       22       22        %EJECT;
PL6.E3A0      #001=Z9A1$INITIALIZE File=Z9A1.:Z8A6TSI                            SAT 08/09/97 13:35 Page:2
       23       23        Z9A1$INITIALIZE: PROC ALTRET;
       24       24        %SET PHASE = 0;
       25       25        %INCLUDE Z8A_DEFC;
       26       93        %INCLUDE Z8A_COMCOM;
       27      743        %INCLUDE CP_6;
       28     6303        %INCLUDE CP_6_SUBS;
       29     6843        %INCLUDE B_STRINGS_C;
       30     6972    1   DCL Z9A8$DCBS ENTRY;
       31     6973        %FPT_MONINFO (SITEINFO=VLR_SITEINFO);
       32     6988        %VLR_SITEINFO;
       33     7007          /**/
       34     7008    1   CALL M$MONINFO (FPT_MONINFO);
       35     7009    2   DO CASE (VLR_SITEINFO.CPU_TYPE#);
       36     7010    2      CASE (%DPS90, %DPS90XA, %DPS8000);
       37     7011    2         COMCOM.OB.ELS = TRUE;
       38     7012    2      CASE (%ADP);
       39     7013    2         COMCOM.OB.ELS = TRUE;
       40     7014    2         COMCOM.OB.DPS88 = TRUE;
       41     7015    2   END;
       42     7016    1   CALL Z9A8$DCBS;
       43     7017    1   RETURN;
       44     7018    1   END Z9A1$INITIALIZE;

PL6.E3A0      #001=Z9A1$INITIALIZE File=Z9A1.:Z8A6TSI                            SAT 08/09/97 13:35 Page:3
--  Include file information  --

   B_STRINGS_C.:LIB_E04  is referenced.
   CP_6_SUBS.:LIB_E04  is referenced.
   CP_6_C.:LIB_E04  is referenced.
   CP_6.:LIB_E04  cannot be made into a system file and is referenced.
   Z8A_COMCOM.:Z8A6TOU  cannot be made into a system file and is referenced.
   Z8A_DEFC.:Z8A6TOU  cannot be made into a system file and is referenced.
      No diagnostics issued in procedure Z9A1$INITIALIZE.

   Procedure Z9A1$INITIALIZE requires 28 words for executable code.
   Procedure Z9A1$INITIALIZE requires 4 words of local(AUTO) storage.

    No errors detected in file Z9A1.:Z8A6TSI    .

PL6.E3A0      #001=Z9A1$INITIALIZE File=Z9A1.:Z8A6TSI                            SAT 08/09/97 13:35 Page:4

 Object Unit name= Z9A1$INITIALIZE                            File name= Z9A1.:Z8A6TOU
 UTS= AUG 09 '97 13:35:52.12 SAT                              Compiler= PL-6/E31         Sev=      00
 SharedLib= :SHARED_SYSTEM                                    Alt SharedLib=


    ****  Control sections  ****

 Sect   Type Bound  Init  Size OctSiz  Section name(segment info)
    0  LblCom even  none     1      1  ITERATION
    1   DCB   even  none     0      0  M$UC
    2   Data  even  none    74    112  Z9A1$INITIALIZE
    3   Proc  even  none    28     34  Z9A1$INITIALIZE
    4  RoData even  none     1      1  Z9A1$INITIALIZE

    ****  Entry defs  ****

                              Check   Calling
                             calling  sequence
  Sect OctLoc Primary Altret sequence   type   Parms  Name
     3      0   yes    yes     yes      Std        0  Z9A1$INITIALIZE

  ****  Entry refs  ****

         Check        Calling
        calling       sequence
Altret sequence SRef   type   Args  Name
         yes           Std       0 Z9A8$DCBS
                       nStd      0 X66_AUTO_0
                       nStd      0 X66_ARET

  ****  Data refs  ****

  Flags:  r = read only, s = secondary
Flgs Name                             Flgs Name                             Flgs Name
     COMCOM                                M$UC
PL6.E3A0      #001=Z9A1$INITIALIZE File=Z9A1.:Z8A6TSI                            SAT 08/09/97 13:35 Page:5

  ****  Segment refs  ****

  Flags:  r = read only, s = secondary
Flgs Name                             Flgs Name                             Flgs Name
     ISSID                                 NULLSID
PL6.E3A0      #001=Z9A1$INITIALIZE File=Z9A1.:Z8A6TSI                            SAT 08/09/97 13:35 Page:6


        1        1        /*M*   Z9A1$INITIALIZE   CP6-specific initialization */
        2        2        /*T***********************************************************/
        3        3        /*T*                                                         */
        4        4        /*T* Copyright (c) Bull HN Information Systems Inc., 1997    */
        5        5        /*T*                                                         */
        6        6        /*T***********************************************************/
        7        7        /*X*   MCL=5,MOC,CLM=40,CRM=80,CCC,
        8        8               PLM=0,IND=3,SDI=2,CTI=6,AND,DCI=6,CSU=3,ECU=3,THI=3,DTI=6,STI=3 */
        9        9        /*P*   NAME:           Z9A1$INITIALIZE
       10       10               PURPOSE:        Initializes CP-6-specific stuff.
       11       11               DESCRIPTION:    In CP-6 all that is necessary is to call Z9A8$DCBS
       12       12                               to initialize the needed DCB pointer and number
       13       13                               variables and to inquire, what model is the CP.
       14       14                                                                               */
       15       15        /*D*   NAME:           Z9A1$INITIALIZE
       16       16               CALL:           CALL Z9A1$INITIALIZE;
       17       17               INTERFACE:      Calls Z9A8$DCBS to initialize DCB pointers and
       18       18                               number variables.
       19       19               INPUT:          None.
       20       20               OUTPUT:         None.
       21       21                                                                               */
       22       22        %EJECT;
PL6.E3A0      #001=Z9A1$INITIALIZE File=Z9A1.:Z8A6TSI                            SAT 08/09/97 13:35 Page:7
       23       23        Z9A1$INITIALIZE: PROC ALTRET;

     23  3 000000   000000 700200 xent  Z9A1$INITIA* TSX0  ! X66_AUTO_0
         3 000001   000004 000000                    ZERO    4,0

       24       24        %SET PHASE = 0;
       25       25        %INCLUDE Z8A_DEFC;
       26       93        %INCLUDE Z8A_COMCOM;
       27      743        %INCLUDE CP_6;
       28     6303        %INCLUDE CP_6_SUBS;
       29     6843        %INCLUDE B_STRINGS_C;
       30     6972    1   DCL Z9A8$DCBS ENTRY;
       31     6973        %FPT_MONINFO (SITEINFO=VLR_SITEINFO);
       32     6988        %VLR_SITEINFO;
       33     7007          /**/
       34     7008    1   CALL M$MONINFO (FPT_MONINFO);

   7008  3 000002   000000 630400 2                  EPPR0   FPT_MONINFO
         3 000003   020023 713400                    CLIMB   8211
         3 000004   402400 401760                    pmme    nvectors=6

       35     7009    2   DO CASE (VLR_SITEINFO.CPU_TYPE#);

   7009  3 000005   000103 236000 2                  LDQ     VLR_SITEINFO+55
         3 000006   000011 772000                    QRL     9
         3 000007   000777 376007                    ANQ     511,DL
         3 000010   000007 116007                    CMPQ    7,DL
         3 000011   000013 602006 3                  TNC     s:7009+6,QL
         3 000012   000030 710000 3                  TRA     s:7016
         3 000013   000030 710000 3                  TRA     s:7016
         3 000014   000030 710000 3                  TRA     s:7016
         3 000015   000030 710000 3                  TRA     s:7016
         3 000016   000025 710000 3                  TRA     s:7013
         3 000017   000022 710000 3                  TRA     s:7011
         3 000020   000022 710000 3                  TRA     s:7011
         3 000021   000022 710000 3                  TRA     s:7011

PL6.E3A0      #001=Z9A1$INITIALIZE File=Z9A1.:Z8A6TSI                            SAT 08/09/97 13:35 Page:8
       36     7010    2      CASE (%DPS90, %DPS90XA, %DPS8000);

       37     7011    2         COMCOM.OB.ELS = TRUE;

   7011  3 000022   400000 236003                    LDQ     -131072,DU
         3 000023   000026 256000 xsym               ORSQ    COMCOM+22
         3 000024   000030 710000 3                  TRA     s:7016

       38     7012    2      CASE (%ADP);

       39     7013    2         COMCOM.OB.ELS = TRUE;

   7013  3 000025   400000 236003                    LDQ     -131072,DU
         3 000026   000026 256000 xsym               ORSQ    COMCOM+22

       40     7014    2         COMCOM.OB.DPS88 = TRUE;

   7014  3 000027   000111 256000 xsym               ORSQ    COMCOM+73

       41     7015    2   END;

       42     7016    1   CALL Z9A8$DCBS;

   7016  3 000030   000000 631400 4                  EPPR1   0
         3 000031   000000 701000 xent               TSX1    Z9A8$DCBS
         3 000032   000000 011000                    NOP     0

       43     7017    1   RETURN;

   7017  3 000033   000000 702200 xent               TSX2  ! X66_ARET
       44     7018    1   END Z9A1$INITIALIZE;

PL6.E3A0      #001=Z9A1$INITIALIZE File=Z9A1.:Z8A6TSI                            SAT 08/09/97 13:35 Page:9
--  Include file information  --

   B_STRINGS_C.:LIB_E04  is referenced.
   CP_6_SUBS.:LIB_E04  is referenced.
   CP_6_C.:LIB_E04  is referenced.
   CP_6.:LIB_E04  cannot be made into a system file and is referenced.
   Z8A_COMCOM.:Z8A6TOU  cannot be made into a system file and is referenced.
   Z8A_DEFC.:Z8A6TOU  cannot be made into a system file and is referenced.
      No diagnostics issued in procedure Z9A1$INITIALIZE.
PL6.E3A0      #001=Z9A1$INITIALIZE File=Z9A1.:Z8A6TSI                            SAT 08/09/97 13:35 Page:10

 **** Variables and constants ****

  ****  Section 000 LblCom ITERATION

  ****  Scalars and arrays  ****
OctLoc.c.b A Datatyp(siz) R M Lvl/name                 OctLoc.c.b A Datatyp(siz) R M Lvl/name

     0-0-0/w SBIN              1 ITERATION

  ****  Section 002  Data  Z9A1$INITIALIZE

  ****  Scalars and arrays  ****
OctLoc.c.b A Datatyp(siz) R M Lvl/name                 OctLoc.c.b A Datatyp(siz) R M Lvl/name

     0-0-0/d STRC(432)   r     1 FPT_MONINFO               14-0-0/d STRC(2232)  r     1 VLR_SITEINFO

  ****  SYMREF variables  ****

  ****  Scalars and arrays  ****
OctLoc.c.b A Datatyp(siz) R M Lvl/name                 OctLoc.c.b A Datatyp(siz) R M Lvl/name

     0-0-0/d STRC(13248) r     1 COMCOM

  ****  BASED and DCB variables  ****

  ****  Scalars and arrays  ****
OctLoc.c.b A Datatyp(siz) R M Lvl/name                 OctLoc.c.b A Datatyp(siz) R M Lvl/name

     0-0-0/w CHAR(4096)        1 CHARS                      0-0-0/w STRC(72)          1 CONT
     0-0-0N  NULL        r     1 M$UC                       0-0-0/w STRC(36864)       1 PAGE


   Procedure Z9A1$INITIALIZE requires 28 words for executable code.
   Procedure Z9A1$INITIALIZE requires 4 words of local(AUTO) storage.
PL6.E3A0      #001=Z9A1$INITIALIZE File=Z9A1.:Z8A6TSI                            SAT 08/09/97 13:35 Page:11

    No errors detected in file Z9A1.:Z8A6TSI    .
