VERSION A06

PL6.E3A0      #001=Z9A8$DCBS File=Z9A8.:Z8A6TSI                                  SAT 08/09/97 13:36 Page:1
        1        1        /*M* Z9A8$DCBS - Definition and initialization of DCBs */
        2        2        /*T***********************************************************/
        3        3        /*T*                                                         */
        4        4        /*T* Copyright (c) Bull HN Information Systems Inc., 1997    */
        5        5        /*T*                                                         */
        6        6        /*T***********************************************************/
        7        7        /*X*   MCL=5,MOC,CLM=40,CRM=80,CCC,
        8        8               PLM=0,IND=3,SDI=2,CTI=6,AND,DCI=6,CSU=3,ECU=3,THI=3,DTI=6,STI=3       */
        9        9        /*P*   NAME:           Z9A8$DCBS
       10       10               PURPOSE:        Definition of DCBs and DCB pointers used
       11       11                               by the COBOL-85 compiler.
       12       12               DESCRIPTION:    Invokes the %M$DCB macro to define a DCB
       13       13                               for each file used by the compiler.
       14       14                               Initializes the DCB pointer for each file.
       15       15                                                                                     */
       16       16        /*D*   NAME:           Z9A8$DCBS
       17       17               CALL:
       18       18                               CALL Z9A8$DCBS;
       19       19                                     (called only by Z9A1$INITIALIZE).
       20       20               INTERFACE:      None.
       21       21               INPUT:          None.
       22       22               OUTPUT:
       23       23                               Sets Z9A8$xxxx# to n;
       24       24                               Sets Z9A8$xxxx$ to ADDR(xxxx);
       25       25                               Sets ZV1$DCB.ADDR$(n) to ADDR(xxxx);
       26       26                                         where xxxx is DCB name
       27       27                                         and n is DCB number.
       28       28               DESCRIPTION:    Invokes %INIT$DCB macro to initialize.
       29       29                                                                                     */
       30       30        %EJECT;
PL6.E3A0      #001=Z9A8$DCBS File=Z9A8.:Z8A6TSI                                  SAT 08/09/97 13:36 Page:2
       31       31        Z9A8$DCBS:PROC;
       32       32                                                /**/
       33       33        %SET LISTSUB='1'B;
       34       34        %SET LISTEXP='1'B;
       35       35        %SET LISTMAC='1'B;
       36       36        %INCLUDE Z8A_SYS_FILE;
       37     6311        %INCLUDE Z9A_SUPP_MAC;
       38     6600
       39     6601        %MACRO INIT$DCB(DCBN=,FCG=);
       40     6602        %CHARTEXT(CONCAT(TEXTCHAR(%FCG),'$',TEXTCHAR(%DCBN),'#'))=DCBNUM(DCBN);
       41     6603        %CHARTEXT(CONCAT(TEXTCHAR(%FCG),'$',TEXTCHAR(%DCBN),'$'))=DCBADDR(DCBNUM(DCBN));
       42     6604        %MEND;
       43     6605        %PAGE(ARG=M$SI);
              6606        %LSET LISTDIR='0'B;

              6618    1   /*******************************************************************************
              6619    1   *                                                                              *
              6620    1   *        M$SI              M$SI                                                  *
              6621    1   *                                                                              *
              6622    1   *******************************************************************************/

       44     6626        /*
       45     6627           Source input file
       46     6628           */
       47     6629        %M$DCB (DCBN=M$SI,
       48     6630        ASN=DEVICE,
       49     6631        RES='SI',
       50     6632        FUN=IN,
       51     6633        ACS=SEQUEN);
              6634    1   DCL 1 M$SI DCB,2 ARS# SBIN INIT(0),2 FLPW# REDEF ARS# BIT(36),2 * UBIN INIT(0),2 TYC
              6634            ,3 EGV# BIT(1)INIT('0'B*0),3 OPER# BIT(1)
              6635    1   INIT('0'B*0),3 EOT# BIT(1)INIT('0'B*0),3 BOT# BIT(1)INIT('0'B*0),3 BOF# BIT(1)INIT(
              6635            '0'B*0),3 BLNKTP# BIT(1)INIT('0'B*0),3 EOF# BIT
              6636    1   (1)INIT('0'B*0),3 LD# BIT(1)INIT('0'B*0),3 IOERR# BIT(1)INIT('0'B*0),3 DI# BIT(1)
              6636            INIT('0'B*0),3 EOD# BIT(1)INIT('0'B*0),3 MTRAP# BIT
              6637    1   (1)INIT('0'B*0),3 LDISC# BIT(1)INIT('0'B*0),3 DACT# BIT(1)INIT('0'B*0),3 TIMO# BIT(1
              6637            )INIT('0'B*0),3 PROT# BIT(1)INIT('0'B*0),3 FRAW#
PL6.E3A0      #001=Z9A8$DCBS File=Z9A8.:Z8A6TSI                                  SAT 08/09/97 13:36 Page:3
              6638    1   BIT(1)INIT('0'B*0),3 LAST# BIT(1)INIT('0'B*0),3 CDALRT# BIT(1)INIT('0'B*0),3 XTRARD
              6638            BIT(1)INIT('0'B*0),3 CGKEYV BIT(1)INIT('0'B*0),3
              6639    1   CGLWRV BIT(1)INIT('0'B*0),3 CGFULL BIT(1)INIT('0'B*0),3 CGCRCW BIT(1)INIT('0'B*0),3
              6639            CGCWRV BIT(1)INIT('0'B*0),3 * BIT(11)INIT
              6640    1   ('0'B*0),2 DVBYTE,3 TOP# BIT(1)INIT('0'B),3 * BIT(1)INIT('0'B),3 VFC# BIT(1)INIT(
              6640            '0'B),3 BIN# BIT(1)INIT('0'B),3 TRANS# BIT(1)INIT
              6641    1   ('0'B),3 * BIT(3)INIT('0'B),2 BUPF BIT(1)INIT('0'B),2 RDL0# UBIN(9)UNAL INIT(0),2
              6641            SLIDE# UBIN(9)UNAL INIT(0),2 EOMCHAR# CHAR(1)INIT
              6642    1   (BITASC('501'O)),2 EOMVAL# REDEF EOMCHAR# UNAL,3 VFLG# BIT(1),3 VALUE# UBIN(8)UNAL,2
              6642            FFLG,3 READ# BIT(1)INIT('0'B),3 DELR# BIT(1)
              6643    1   INIT('0'B),3 WNEW# BIT(1)INIT('0'B),3 UPD# BIT(1)INIT('0'B),3 DELF# BIT(1)INIT('0'B)
              6643            ,3 NOLIST# BIT(1)INIT('0'B),3 REATTR# BIT(1)INIT
              6644    1   ('0'B),3 EXEC# BIT(1)INIT('0'B),3 CREATE# BIT(1)INIT('0'B),3 AU# BIT(1)INIT('0'B),3
              6644            AURD# BIT(1)INIT('0'B),3 TCTL# BIT(1)INIT('0'B),
              6645    1   3 * BIT(6)INIT('0'B),2 DDEV,3 LP# BIT(1)INIT('0'B),3 CP# BIT(1)INIT('0'B),3 IC# BIT(
              6645            1)INIT('0'B),3 XEQ# BIT(1)INIT('0'B),3 UCOUT#
              6646    1   BIT(1)INIT('0'B),3 GR# BIT(1)INIT('0'B),3 * BIT(3)INIT('0'B),2 WIDTH# UBIN(9)UNAL
              6646            INIT(0),2 RETRYCNT# UBIN(18)HALIGNED INIT(0),2
              6647    1   DESC,3 DELF# BIT(1)INIT('0'B),3 NOLIST# BIT(1)INIT('0'B),3 BUF# BIT(1)INIT('0'B),3
              6647            ODSTOW# BIT(1)INIT('0'B),3 BAD# BIT(1)INIT('0'B),
              6648    1   3 QS# BIT(1)INIT('0'B),3 * BIT(2)INIT('0'B),3 ARCHIVE# BIT(1)INIT('0'B),3 BUPM# BIT(
              6648            1)INIT('0'B),3 NBUF# BIT(1)INIT('0'B),3 ACTIVE#
              6649    1   BIT(1)INIT('0'B),3 TPB# BIT(1)INIT('0'B),3 TERMINATE# BIT(1)INIT('0'B),3 FETCH# BIT(
              6649            1)INIT('0'B),3 * BIT(3)INIT('0'B),2 SETSTA$ PTR
              6650    1   INIT(ADDR(NIL)),2 LASTSTA$ PTR INIT(ADDR(NIL)),2 TDEXTST$ REDEF LASTSTA$ PTR,2 NAME#
              6650            ,3 L UBIN(9)UNAL INIT(SIZEC(' ')),3 C CHAR(31)
              6651    1   INIT(' '),3 C17 REDEF C UNAL,4 CC CHAR(17),4 * CHAR(14),2 ACCT# CHAR(8)INIT(' '),2
              6651            PASS# CHAR(8)INIT(' '),2 PSN# CHAR(6)INIT
              6652    1   (' '),2 TYPE# CHAR(2)INIT(' '),2 RES# CHAR(4)INIT('SI'),2 RESNT REDEF RES# UNAL,3
              6652            TYP CHAR(2),3 NUM CHAR(2),2 WSN# CHAR(8)ALIGNED
              6653    1   INIT(' '),2 TDSTAT# REDEF WSN# BIT(72),2 IGNOREFSN# BIT(1)INIT('0'B),2 AU# BIT(1)
              6653            INIT('0'B),2 QISS# BIT(1)INIT('0'B),2 LOAD# BIT
              6654    1   (1)INIT('0'B),2 IOERROK# BIT(1)INIT('0'B),2 AMRSETSTA BIT(1)INIT('0'B),2 LSTAOR# BIT
              6654            (1)INIT('0'B),2 VOLACCESS# UBIN(2)UNAL INIT
              6655    1   (0),2 UOPT#(0:8)BIT(1)INIT('0'B,'0'B,'0'B,'0'B,'0'B,'0'B,'0'B,'0'B,'0'B),2 PASSF#
              6655            BIT(1)INIT('0'B),2 CNVRT# BIT(1)
              6656    1   INIT('1'B),2 EBCDIC# BIT(1)INIT('0'B),2 FCI# BIT(1)INIT('0'B),2 FCD# BIT(1)INIT('0'B
PL6.E3A0      #001=Z9A8$DCBS File=Z9A8.:Z8A6TSI                                  SAT 08/09/97 13:36 Page:4
              6656            ),2 AMR# BIT(1)INIT('0'B),2 CTG# BIT(1)INIT
              6657    1   ('0'B),2 EXIST# UBIN(2)UNAL INIT(3),2 SHARE# UBIN(2)UNAL INIT(0),2 COMP# BIT(1)INIT(
              6657            '0'B),2 XTEND# BIT(1)INIT('0'B),2 CVOL#
              6658    1   BIT(1)INIT('0'B),2 BLOCKED# BIT(1)INIT('1'B),2 SPANNED# BIT(1)INIT('1'B),2 BUPM# BIT
              6658            (2)INIT('01'B),2 ORG# UBIN(9)UNAL INIT
              6659    1   (0),2 DVTYPE# REDEF ORG# UBIN(9)UNAL,2 FUN# UBIN(9)UNAL INIT(2),2 ASN# UBIN(9)UNAL
              6659            INIT(3),2 DISP# UBIN(9)UNAL INIT(0),2
              6660    1   BLKL# UBIN(18)UNAL INIT(0),2 RECL# UBIN(18)UNAL INIT(0),2 FSN# UBIN(18)UNAL INIT(0),
              6660            2 DBGDCBNO# REDEF FSN# UBIN(18)UNAL,2
              6661    1   DBGSYSID# REDEF FSN# UBIN(18)UNAL,2 SYSID# REDEF FSN# UBIN(18)UNAL,2 FEXTX UBIN(9)
              6661            UNAL INIT(0),2 BOL# UBIN(9)UNAL INIT(0),2 EXPIRE#
              6662    1   SBIN INIT(0),2 KEYX# UBIN(18)UNAL INIT(0),2 KEYL# UBIN(9)UNAL INIT(0),2 ACS# UBIN(9)
              6662            UNAL INIT(1),2 XTNSIZE# UBIN(18)
              6663    1   UNAL INIT(2),2 LSLIDE# UBIN(9)UNAL INIT(510),2 LRDL0# UBIN(9)UNAL INIT(3),2 SPARE#
              6663            UBIN(9)UNAL INIT(1),2 WSR# UBIN
              6664    1   (9)UNAL INIT(0),2 ATTR# BIT(18) INIT('0'B)/* '0'B */,2 ATTR REDEF ATTR#,3 DENS# BIT(
              6664            9),3
              6665    1   GRLGL# BIT(1),3 TRANSLGL# BIT(1),3 NOXLATE# BIT(1),3 UPPERCASE# BIT(1),3 NATL# BIT(1
              6665            ),3 TRUOVRPRT# BIT(1),3 APL# BIT(1),3 BIN# BIT
              6666    1   (1),3 LOWERCASE# BIT(1),2 TDFLG REDEF ATTR#/*'0'B */,3 SDSK# BIT(1),3 * BIT(17),2
              6666            IXTNSIZE# SBIN WORD INIT
              6667    1   (2),2 CONNCT# REDEF IXTNSIZE# SBIN,2 NRECS# SBIN INIT(0),2 CHANTIME# REDEF NRECS#
              6667            SBIN,2 VOL# UBIN(9)UNAL INIT(0),2
              6668    1   MAXVOL# UBIN(9)UNAL INIT(0),2 CHAIN# UBIN(9)UNAL INIT(0),2 DENSITY# UBIN(9)UNAL INIT
              6668            (0),2 LINES# UBIN(18)UNAL INIT
              6669    1   (0),2 DVFC# CHAR(1)INIT(BINASC(0)),2 SEQ# BIT(1)INIT('0'B),2 SEQCOL# UBIN(8)UNAL
              6669            INIT(73),2 SEQID# CHAR(4)INIT(' '),2 HEADER$
              6670    1   PTR INIT(ADDR(NIL)),2 DQH$ REDEF HEADER$ PTR,2 TAB$ PTR INIT(ADDR(NIL)),2 DCT$ REDEF
              6670            TAB$ PTR,2 FORM$ PTR INIT(ADDR(NIL)),2 MPC$
              6671    1   REDEF FORM$ PTR,2 LDCTX UBIN(18)UNAL INIT(0),2 SETX UBIN(18)UNAL INIT(0),2 DEVADR
              6671            REDEF SETX,3 DVN# UBIN(6)UNAL,3 IOM# UBIN(3)UNAL,3
              6672    1   CHAN# UBIN(9)CALIGNED,2 * BIT(9)CALIGNED INIT('0'B),2 JRNLBYPASS# BIT(1)INIT('0'B),2
              6672            * BIT(4)INIT('0'B),2 GHSTACS# UBIN(4)INIT
              6673    1   (0)UNAL,2 ALTKEYX UBIN(18)UNAL INIT(0),2 CODE16$ PTR INIT(ADDR(NIL)),2 FPRGX UBIN
              6673            HALF HALIGNED INIT(0),2 FIELDX UBIN HALF
              6674    1   HALIGNED INIT(0),2 EVENT SBIN INIT(0),2 VFCCHAR# CHAR(1)CALIGNED INIT(BINASC(0)),2
              6674            KEYTYPE# UBIN(9)CALIGNED INIT(0),2 KFIELDX
PL6.E3A0      #001=Z9A8$DCBS File=Z9A8.:Z8A6TSI                                  SAT 08/09/97 13:36 Page:5
              6675    1   UBIN(18)HALIGNED INIT(0),2 STARTX UBIN(18)HALIGNED INIT(0),2 ACTPOS UBIN(18)HALIGNED
              6675            INIT(0),2 AUTHFFLG REDEF ACTPOS,3 READ# BIT(1),
              6676    1   3 DELR# BIT(1),3 WNEW# BIT(1),3 UPD# BIT(1),3 DELF# BIT(1),3 NOLIST# BIT(1),3
              6676            REATTR# BIT(1),3 EXEC# BIT(1),3 CREATE# BIT(1),3 AU#
              6677    1   BIT(1),3 AURD# BIT(1),3 TCTL# BIT(1),3 * BIT(6),2 DCB# UBIN(9)CALIGNED INIT(0),2 *
              6677            BIT(14)INIT('0'B),2 ANSISPANSEQ# BIT(1)INIT
              6678    1   ('1'B),2 PATH,3 IOM# UBIN(3)UNAL INIT(0),3 CHAN# UBIN(9)UNAL INIT(0),2 IRRECX UBIN(
              6678            18)HALIGNED INIT(0),2 FLDID UBIN(18)
              6679    1   HALIGNED INIT(0),2 BADARS# REDEF FLDID UBIN(18)HALIGNED,2 SEED# BIT(36)INIT('0'B),2
              6679            * UBIN INIT(0),2 FEXT BIT(1)INIT('0'B),2 STARF
              6680    1   BIT(1)INIT('0'B),2 SHARED BIT(1)INIT('0'B),2 FMOD BIT(1)INIT('0'B),2 GTYP UBIN(3)
              6680            UNAL INIT(0),2 EOP UBIN(2)UNAL INIT(0),2 AMFLG,3
              6681    1   ACCF BIT(1)INIT('0'B),3 ACSF BIT(1)INIT('0'B),3 INSF BIT(1)INIT('0'B),3 USRF BIT(1)
              6681            INIT('0'B),3 SNLF BIT(1)INIT('0'B),3 PROF BIT(1)
              6682    1   INIT('0'B),2 SEZ_OK BIT(1)INIT('0'B),2 MUST_CVOL BIT(1)INIT('0'B),2 NEW_FSECT BIT(1)
              6682            INIT('0'B),2 NOEOF BIT(1)INIT('0'B),2 MOUNT
              6683    1   REDEF NOEOF BIT(1),2 OHDR BIT(1)INIT('0'B),2 LDFLG REDEF OHDR BIT(1),2 SPAN BIT(1)
              6683            INIT('0'B),2 OWNER BIT(1)INIT('0'B),2 RA BIT(1)
              6684    1   INIT('0'B),2 RPOS BIT(1)INIT('0'B),2 STARX UBIN(3)UNAL INIT(0),2 CACHE BIT(1)INIT(
              6684            '0'B),2 ENQF BIT(1)INIT('0'B),2 GRPOS BIT(1)INIT
              6685    1   ('0'B),2 CONT BIT(1)INIT('0'B),2 WAIT UBIN(1)UNAL INIT(1),2 TRNC UBIN(2)UNAL INIT(0)
              6685            ,2 AFTRBLK BIT(1)INIT('0'B),2 LSTBLK BIT(1)INIT
              6686    1   ('0'B),2 BORROW SBIN INIT(0),2 LASTKEY$ REDEF BORROW PTR,2 LASTKEY REDEF BORROW SBIN
              6686            ,2 FTAM REDEF BORROW,3 CTX UBIN HALF UNAL,3 USR
              6687    1   UBIN BYTE UNAL,3 PMME UBIN(9)UNAL,2 CFU$ PTR INIT(ADDR(NIL)),2 TDALVL UBIN(3)UNAL
              6687            INIT(0),2 LVL UBIN(3)UNAL INIT(0),2 LPOOL REDEF
              6688    1   LVL UBIN(3)UNAL,2 WRCMP BIT(1)INIT('0'B),2 WCDATA BIT(1)INIT('0'B),2 UCOUT BIT(1)
              6688            INIT('0'B),2 TAPTYP,3 RWASC BIT(1)INIT('0'B),3 CP6F
              6689    1   BIT(1)INIT('0'B),3 USRBUF BIT(1)INIT('0'B),3 HAVLASTKEY BIT(1)INIT('0'B),3 NOCVOL
              6689            BIT(1)INIT('0'B),3 MANAGED BIT(1)INIT('0'B),3
              6690    1   PASTFM BIT(1)INIT('0'B),3 * BIT(2)INIT('0'B),2 CRECX UBIN(18)UNAL INIT(0),2 CBUFNUM
              6690            UBIN(3)UNAL INIT(0),2 IORG UBIN(6)UNAL INIT(0),2
              6691    1   TDA UBIN(27)UNAL INIT(0),2 BYTESLEFT REDEF TDA UBIN(27)UNAL,2 CRECNO SBIN INIT(0),2
              6691            PRECNO SBIN INIT(0),2 CSEED REDEF PRECNO SBIN,2
              6692    1   HASH UBIN(27)UNAL INIT(0),2 FDCM UBIN(9)UNAL INIT(0),2 FCN(0:1),3 F BIT(1)INIT('0'B,
              6692            '0'B),3 CNT UBIN(8)UNAL INIT(0,0),2 BLKLEN UBIN
              6693    1   (18)UNAL INIT(0),2 UB$ PTR INIT(ADDR(NIL)),2 UBYTES UBIN INIT(0),2 FSECT UBIN(18)
PL6.E3A0      #001=Z9A8$DCBS File=Z9A8.:Z8A6TSI                                  SAT 08/09/97 13:36 Page:6
              6693            UNAL INIT(0),2 INDX REDEF FSECT UBIN(18)UNAL,2
              6694    1   FPSTR UBIN(9)UNAL INIT(0),2 STR# UBIN(9)UNAL INIT(0),2 NRECX UBIN(18)UNAL INIT(0),2
              6694            MODCNT REDEF NRECX UBIN(18)UNAL,2 SEGX UBIN(18)
              6695    1   UNAL INIT(0),2 GDISP UBIN INIT(0),2 LOGSEC BIT(1)INIT('0'B),2 PRIVOPN BIT(1)INIT(
              6695            '0'B),2 OLDIOERR UBIN(2)UNAL INIT(0),2 * BIT(21)
              6696    1   INIT('0'B),2 REALSPAN BIT(1),2 DECRYPT BIT(1)INIT('0'B),2 PGINGRAN UBIN BYTE UNAL
              6696            INIT(0),2 IFMT UBIN(9)UNAL INIT(0),2 MEDIA UBIN(9)
              6697    1   UNAL INIT(0),2 IWL,3 TABIWL BIT(1)INIT('0'B),3 SEQIWL BIT(1)INIT('0'B),3 HDRIWL BIT(
              6697            1)INIT('0'B),3 * BIT(3)INIT('0'B),2 CTLCMDIN BIT
              6698    1   (1)INIT('0'B),2 UNIQUEBLD BIT(1)INIT('0'B),2 UPDCNT BIT(1)INIT('0'B),2 IASN UBIN(9)
              6698            UNAL INIT(0),2 MOVED SBIN(18)HALIGNED,2 * UBIN(9)
              6699    1   CALIGNED,2 CX UBIN(9)CALIGNED,2 CWORD CHAR(4)ALIGNED,2 RCSZ UBIN INIT(0),2 FEPSIZ
              6699            REDEF RCSZ,3 BUF UBIN HALF UNAL,3 KEY UBIN HALF
              6700    1   UNAL,2 ID ALIGNED,3 GX UBIN(10)UNAL,3 DA UBIN(26)UNAL,2 FEPIO,3 EVENT UBIN INIT(0),3
              6700            KEYX/* 0 */ UBIN
              6701    1   HALF HALIGNED INIT(0),3 BUFX UBIN HALF HALIGNED INIT(0),3 BPP(0:1)BIT(18)INIT('0'B*0
              6701            ),3 KPP(0:1)BIT(18)INIT('0'B*0),2 AGE SBIN INIT
              6702    1   (0),2 BFR(0:4),3 BUFUP BIT(1)INIT('0'B*0),3 SCRUB BIT(1)INIT('0'B*0),3 CHNG BIT(1)
              6702            INIT('0'B*0),3 CVM BIT(1)INIT('0'B*0),3 BUFX UBIN
              6703    1   (5)UNAL INIT(0*0),3 DA UBIN(27)UNAL INIT(0*0),2 BFR1(0:4)ALIGNED,3 FLAGS,4
              6703            ONE_WORD_HEADER BIT(1)INIT('0'B*0),4 * BIT(8)INIT
              6704    1   ('0'B*0),3 SIZ UBIN(9)UNAL INIT(0*0),3 CX UBIN(18)UNAL INIT(0*0),2 FEPIO2(0:3)UBIN
              6704            ALIGNED,2 FEPIO3(0:3)UBIN ALIGNED,2 * SBIN INIT
              6705    1   (29127),2 DCBNAME DALIGNED,3 X UBIN(3)UNAL,3 S BIT(1),3 L UBIN(5)UNAL,3 N CHAR(M$SI.
              6705            DCBNAME.L);
       52     6707        %PAGE(ARG=M$UI);
              6708        %LSET LISTDIR='0'B;

              6720    1   /*******************************************************************************
              6721    1   *                                                                              *
              6722    1   *        M$UI              M$UI                                                  *
              6723    1   *                                                                              *
              6724    1   *******************************************************************************/

       53     6728        /*
       54     6729           Update input file
       55     6730           */
PL6.E3A0      #001=Z9A8$DCBS File=Z9A8.:Z8A6TSI                                  SAT 08/09/97 13:36 Page:7
       56     6731        %M$DCB (DCBN=M$UI,
       57     6732        ASN=DEVICE,
       58     6733        RES='NO',
       59     6734        FUN=IN,
       60     6735        ACS=SEQUEN);
              6736    1   DCL 1 M$UI DCB,2 ARS# SBIN INIT(0),2 FLPW# REDEF ARS# BIT(36),2 * UBIN INIT(0),2 TYC
              6736            ,3 EGV# BIT(1)INIT('0'B*0),3 OPER# BIT(1)
              6737    1   INIT('0'B*0),3 EOT# BIT(1)INIT('0'B*0),3 BOT# BIT(1)INIT('0'B*0),3 BOF# BIT(1)INIT(
              6737            '0'B*0),3 BLNKTP# BIT(1)INIT('0'B*0),3 EOF# BIT
              6738    1   (1)INIT('0'B*0),3 LD# BIT(1)INIT('0'B*0),3 IOERR# BIT(1)INIT('0'B*0),3 DI# BIT(1)
              6738            INIT('0'B*0),3 EOD# BIT(1)INIT('0'B*0),3 MTRAP# BIT
              6739    1   (1)INIT('0'B*0),3 LDISC# BIT(1)INIT('0'B*0),3 DACT# BIT(1)INIT('0'B*0),3 TIMO# BIT(1
              6739            )INIT('0'B*0),3 PROT# BIT(1)INIT('0'B*0),3 FRAW#
              6740    1   BIT(1)INIT('0'B*0),3 LAST# BIT(1)INIT('0'B*0),3 CDALRT# BIT(1)INIT('0'B*0),3 XTRARD
              6740            BIT(1)INIT('0'B*0),3 CGKEYV BIT(1)INIT('0'B*0),3
              6741    1   CGLWRV BIT(1)INIT('0'B*0),3 CGFULL BIT(1)INIT('0'B*0),3 CGCRCW BIT(1)INIT('0'B*0),3
              6741            CGCWRV BIT(1)INIT('0'B*0),3 * BIT(11)INIT
              6742    1   ('0'B*0),2 DVBYTE,3 TOP# BIT(1)INIT('0'B),3 * BIT(1)INIT('0'B),3 VFC# BIT(1)INIT(
              6742            '0'B),3 BIN# BIT(1)INIT('0'B),3 TRANS# BIT(1)INIT
              6743    1   ('0'B),3 * BIT(3)INIT('0'B),2 BUPF BIT(1)INIT('0'B),2 RDL0# UBIN(9)UNAL INIT(0),2
              6743            SLIDE# UBIN(9)UNAL INIT(0),2 EOMCHAR# CHAR(1)INIT
              6744    1   (BITASC('501'O)),2 EOMVAL# REDEF EOMCHAR# UNAL,3 VFLG# BIT(1),3 VALUE# UBIN(8)UNAL,2
              6744            FFLG,3 READ# BIT(1)INIT('0'B),3 DELR# BIT(1)
              6745    1   INIT('0'B),3 WNEW# BIT(1)INIT('0'B),3 UPD# BIT(1)INIT('0'B),3 DELF# BIT(1)INIT('0'B)
              6745            ,3 NOLIST# BIT(1)INIT('0'B),3 REATTR# BIT(1)INIT
              6746    1   ('0'B),3 EXEC# BIT(1)INIT('0'B),3 CREATE# BIT(1)INIT('0'B),3 AU# BIT(1)INIT('0'B),3
              6746            AURD# BIT(1)INIT('0'B),3 TCTL# BIT(1)INIT('0'B),
              6747    1   3 * BIT(6)INIT('0'B),2 DDEV,3 LP# BIT(1)INIT('0'B),3 CP# BIT(1)INIT('0'B),3 IC# BIT(
              6747            1)INIT('0'B),3 XEQ# BIT(1)INIT('0'B),3 UCOUT#
              6748    1   BIT(1)INIT('0'B),3 GR# BIT(1)INIT('0'B),3 * BIT(3)INIT('0'B),2 WIDTH# UBIN(9)UNAL
              6748            INIT(0),2 RETRYCNT# UBIN(18)HALIGNED INIT(0),2
              6749    1   DESC,3 DELF# BIT(1)INIT('0'B),3 NOLIST# BIT(1)INIT('0'B),3 BUF# BIT(1)INIT('0'B),3
              6749            ODSTOW# BIT(1)INIT('0'B),3 BAD# BIT(1)INIT('0'B),
              6750    1   3 QS# BIT(1)INIT('0'B),3 * BIT(2)INIT('0'B),3 ARCHIVE# BIT(1)INIT('0'B),3 BUPM# BIT(
              6750            1)INIT('0'B),3 NBUF# BIT(1)INIT('0'B),3 ACTIVE#
              6751    1   BIT(1)INIT('0'B),3 TPB# BIT(1)INIT('0'B),3 TERMINATE# BIT(1)INIT('0'B),3 FETCH# BIT(
              6751            1)INIT('0'B),3 * BIT(3)INIT('0'B),2 SETSTA$ PTR
PL6.E3A0      #001=Z9A8$DCBS File=Z9A8.:Z8A6TSI                                  SAT 08/09/97 13:36 Page:8
              6752    1   INIT(ADDR(NIL)),2 LASTSTA$ PTR INIT(ADDR(NIL)),2 TDEXTST$ REDEF LASTSTA$ PTR,2 NAME#
              6752            ,3 L UBIN(9)UNAL INIT(SIZEC(' ')),3 C CHAR(31)
              6753    1   INIT(' '),3 C17 REDEF C UNAL,4 CC CHAR(17),4 * CHAR(14),2 ACCT# CHAR(8)INIT(' '),2
              6753            PASS# CHAR(8)INIT(' '),2 PSN# CHAR(6)INIT
              6754    1   (' '),2 TYPE# CHAR(2)INIT(' '),2 RES# CHAR(4)INIT('NO'),2 RESNT REDEF RES# UNAL,3
              6754            TYP CHAR(2),3 NUM CHAR(2),2 WSN# CHAR(8)ALIGNED
              6755    1   INIT(' '),2 TDSTAT# REDEF WSN# BIT(72),2 IGNOREFSN# BIT(1)INIT('0'B),2 AU# BIT(1)
              6755            INIT('0'B),2 QISS# BIT(1)INIT('0'B),2 LOAD# BIT
              6756    1   (1)INIT('0'B),2 IOERROK# BIT(1)INIT('0'B),2 AMRSETSTA BIT(1)INIT('0'B),2 LSTAOR# BIT
              6756            (1)INIT('0'B),2 VOLACCESS# UBIN(2)UNAL INIT
              6757    1   (0),2 UOPT#(0:8)BIT(1)INIT('0'B,'0'B,'0'B,'0'B,'0'B,'0'B,'0'B,'0'B,'0'B),2 PASSF#
              6757            BIT(1)INIT('0'B),2 CNVRT# BIT(1)
              6758    1   INIT('1'B),2 EBCDIC# BIT(1)INIT('0'B),2 FCI# BIT(1)INIT('0'B),2 FCD# BIT(1)INIT('0'B
              6758            ),2 AMR# BIT(1)INIT('0'B),2 CTG# BIT(1)INIT
              6759    1   ('0'B),2 EXIST# UBIN(2)UNAL INIT(3),2 SHARE# UBIN(2)UNAL INIT(0),2 COMP# BIT(1)INIT(
              6759            '0'B),2 XTEND# BIT(1)INIT('0'B),2 CVOL#
              6760    1   BIT(1)INIT('0'B),2 BLOCKED# BIT(1)INIT('1'B),2 SPANNED# BIT(1)INIT('1'B),2 BUPM# BIT
              6760            (2)INIT('01'B),2 ORG# UBIN(9)UNAL INIT
              6761    1   (0),2 DVTYPE# REDEF ORG# UBIN(9)UNAL,2 FUN# UBIN(9)UNAL INIT(2),2 ASN# UBIN(9)UNAL
              6761            INIT(3),2 DISP# UBIN(9)UNAL INIT(0),2
              6762    1   BLKL# UBIN(18)UNAL INIT(0),2 RECL# UBIN(18)UNAL INIT(0),2 FSN# UBIN(18)UNAL INIT(0),
              6762            2 DBGDCBNO# REDEF FSN# UBIN(18)UNAL,2
              6763    1   DBGSYSID# REDEF FSN# UBIN(18)UNAL,2 SYSID# REDEF FSN# UBIN(18)UNAL,2 FEXTX UBIN(9)
              6763            UNAL INIT(0),2 BOL# UBIN(9)UNAL INIT(0),2 EXPIRE#
              6764    1   SBIN INIT(0),2 KEYX# UBIN(18)UNAL INIT(0),2 KEYL# UBIN(9)UNAL INIT(0),2 ACS# UBIN(9)
              6764            UNAL INIT(1),2 XTNSIZE# UBIN(18)
              6765    1   UNAL INIT(2),2 LSLIDE# UBIN(9)UNAL INIT(510),2 LRDL0# UBIN(9)UNAL INIT(3),2 SPARE#
              6765            UBIN(9)UNAL INIT(1),2 WSR# UBIN
              6766    1   (9)UNAL INIT(0),2 ATTR# BIT(18) INIT('0'B)/* '0'B */,2 ATTR REDEF ATTR#,3 DENS# BIT(
              6766            9),3
              6767    1   GRLGL# BIT(1),3 TRANSLGL# BIT(1),3 NOXLATE# BIT(1),3 UPPERCASE# BIT(1),3 NATL# BIT(1
              6767            ),3 TRUOVRPRT# BIT(1),3 APL# BIT(1),3 BIN# BIT
              6768    1   (1),3 LOWERCASE# BIT(1),2 TDFLG REDEF ATTR#/*'0'B */,3 SDSK# BIT(1),3 * BIT(17),2
              6768            IXTNSIZE# SBIN WORD INIT
              6769    1   (2),2 CONNCT# REDEF IXTNSIZE# SBIN,2 NRECS# SBIN INIT(0),2 CHANTIME# REDEF NRECS#
              6769            SBIN,2 VOL# UBIN(9)UNAL INIT(0),2
              6770    1   MAXVOL# UBIN(9)UNAL INIT(0),2 CHAIN# UBIN(9)UNAL INIT(0),2 DENSITY# UBIN(9)UNAL INIT
PL6.E3A0      #001=Z9A8$DCBS File=Z9A8.:Z8A6TSI                                  SAT 08/09/97 13:36 Page:9
              6770            (0),2 LINES# UBIN(18)UNAL INIT
              6771    1   (0),2 DVFC# CHAR(1)INIT(BINASC(0)),2 SEQ# BIT(1)INIT('0'B),2 SEQCOL# UBIN(8)UNAL
              6771            INIT(73),2 SEQID# CHAR(4)INIT(' '),2 HEADER$
              6772    1   PTR INIT(ADDR(NIL)),2 DQH$ REDEF HEADER$ PTR,2 TAB$ PTR INIT(ADDR(NIL)),2 DCT$ REDEF
              6772            TAB$ PTR,2 FORM$ PTR INIT(ADDR(NIL)),2 MPC$
              6773    1   REDEF FORM$ PTR,2 LDCTX UBIN(18)UNAL INIT(0),2 SETX UBIN(18)UNAL INIT(0),2 DEVADR
              6773            REDEF SETX,3 DVN# UBIN(6)UNAL,3 IOM# UBIN(3)UNAL,3
              6774    1   CHAN# UBIN(9)CALIGNED,2 * BIT(9)CALIGNED INIT('0'B),2 JRNLBYPASS# BIT(1)INIT('0'B),2
              6774            * BIT(4)INIT('0'B),2 GHSTACS# UBIN(4)INIT
              6775    1   (0)UNAL,2 ALTKEYX UBIN(18)UNAL INIT(0),2 CODE16$ PTR INIT(ADDR(NIL)),2 FPRGX UBIN
              6775            HALF HALIGNED INIT(0),2 FIELDX UBIN HALF
              6776    1   HALIGNED INIT(0),2 EVENT SBIN INIT(0),2 VFCCHAR# CHAR(1)CALIGNED INIT(BINASC(0)),2
              6776            KEYTYPE# UBIN(9)CALIGNED INIT(0),2 KFIELDX
              6777    1   UBIN(18)HALIGNED INIT(0),2 STARTX UBIN(18)HALIGNED INIT(0),2 ACTPOS UBIN(18)HALIGNED
              6777            INIT(0),2 AUTHFFLG REDEF ACTPOS,3 READ# BIT(1),
              6778    1   3 DELR# BIT(1),3 WNEW# BIT(1),3 UPD# BIT(1),3 DELF# BIT(1),3 NOLIST# BIT(1),3
              6778            REATTR# BIT(1),3 EXEC# BIT(1),3 CREATE# BIT(1),3 AU#
              6779    1   BIT(1),3 AURD# BIT(1),3 TCTL# BIT(1),3 * BIT(6),2 DCB# UBIN(9)CALIGNED INIT(0),2 *
              6779            BIT(14)INIT('0'B),2 ANSISPANSEQ# BIT(1)INIT
              6780    1   ('1'B),2 PATH,3 IOM# UBIN(3)UNAL INIT(0),3 CHAN# UBIN(9)UNAL INIT(0),2 IRRECX UBIN(
              6780            18)HALIGNED INIT(0),2 FLDID UBIN(18)
              6781    1   HALIGNED INIT(0),2 BADARS# REDEF FLDID UBIN(18)HALIGNED,2 SEED# BIT(36)INIT('0'B),2
              6781            * UBIN INIT(0),2 FEXT BIT(1)INIT('0'B),2 STARF
              6782    1   BIT(1)INIT('0'B),2 SHARED BIT(1)INIT('0'B),2 FMOD BIT(1)INIT('0'B),2 GTYP UBIN(3)
              6782            UNAL INIT(0),2 EOP UBIN(2)UNAL INIT(0),2 AMFLG,3
              6783    1   ACCF BIT(1)INIT('0'B),3 ACSF BIT(1)INIT('0'B),3 INSF BIT(1)INIT('0'B),3 USRF BIT(1)
              6783            INIT('0'B),3 SNLF BIT(1)INIT('0'B),3 PROF BIT(1)
              6784    1   INIT('0'B),2 SEZ_OK BIT(1)INIT('0'B),2 MUST_CVOL BIT(1)INIT('0'B),2 NEW_FSECT BIT(1)
              6784            INIT('0'B),2 NOEOF BIT(1)INIT('0'B),2 MOUNT
              6785    1   REDEF NOEOF BIT(1),2 OHDR BIT(1)INIT('0'B),2 LDFLG REDEF OHDR BIT(1),2 SPAN BIT(1)
              6785            INIT('0'B),2 OWNER BIT(1)INIT('0'B),2 RA BIT(1)
              6786    1   INIT('0'B),2 RPOS BIT(1)INIT('0'B),2 STARX UBIN(3)UNAL INIT(0),2 CACHE BIT(1)INIT(
              6786            '0'B),2 ENQF BIT(1)INIT('0'B),2 GRPOS BIT(1)INIT
              6787    1   ('0'B),2 CONT BIT(1)INIT('0'B),2 WAIT UBIN(1)UNAL INIT(1),2 TRNC UBIN(2)UNAL INIT(0)
              6787            ,2 AFTRBLK BIT(1)INIT('0'B),2 LSTBLK BIT(1)INIT
              6788    1   ('0'B),2 BORROW SBIN INIT(0),2 LASTKEY$ REDEF BORROW PTR,2 LASTKEY REDEF BORROW SBIN
              6788            ,2 FTAM REDEF BORROW,3 CTX UBIN HALF UNAL,3 USR
PL6.E3A0      #001=Z9A8$DCBS File=Z9A8.:Z8A6TSI                                  SAT 08/09/97 13:36 Page:10
              6789    1   UBIN BYTE UNAL,3 PMME UBIN(9)UNAL,2 CFU$ PTR INIT(ADDR(NIL)),2 TDALVL UBIN(3)UNAL
              6789            INIT(0),2 LVL UBIN(3)UNAL INIT(0),2 LPOOL REDEF
              6790    1   LVL UBIN(3)UNAL,2 WRCMP BIT(1)INIT('0'B),2 WCDATA BIT(1)INIT('0'B),2 UCOUT BIT(1)
              6790            INIT('0'B),2 TAPTYP,3 RWASC BIT(1)INIT('0'B),3 CP6F
              6791    1   BIT(1)INIT('0'B),3 USRBUF BIT(1)INIT('0'B),3 HAVLASTKEY BIT(1)INIT('0'B),3 NOCVOL
              6791            BIT(1)INIT('0'B),3 MANAGED BIT(1)INIT('0'B),3
              6792    1   PASTFM BIT(1)INIT('0'B),3 * BIT(2)INIT('0'B),2 CRECX UBIN(18)UNAL INIT(0),2 CBUFNUM
              6792            UBIN(3)UNAL INIT(0),2 IORG UBIN(6)UNAL INIT(0),2
              6793    1   TDA UBIN(27)UNAL INIT(0),2 BYTESLEFT REDEF TDA UBIN(27)UNAL,2 CRECNO SBIN INIT(0),2
              6793            PRECNO SBIN INIT(0),2 CSEED REDEF PRECNO SBIN,2
              6794    1   HASH UBIN(27)UNAL INIT(0),2 FDCM UBIN(9)UNAL INIT(0),2 FCN(0:1),3 F BIT(1)INIT('0'B,
              6794            '0'B),3 CNT UBIN(8)UNAL INIT(0,0),2 BLKLEN UBIN
              6795    1   (18)UNAL INIT(0),2 UB$ PTR INIT(ADDR(NIL)),2 UBYTES UBIN INIT(0),2 FSECT UBIN(18)
              6795            UNAL INIT(0),2 INDX REDEF FSECT UBIN(18)UNAL,2
              6796    1   FPSTR UBIN(9)UNAL INIT(0),2 STR# UBIN(9)UNAL INIT(0),2 NRECX UBIN(18)UNAL INIT(0),2
              6796            MODCNT REDEF NRECX UBIN(18)UNAL,2 SEGX UBIN(18)
              6797    1   UNAL INIT(0),2 GDISP UBIN INIT(0),2 LOGSEC BIT(1)INIT('0'B),2 PRIVOPN BIT(1)INIT(
              6797            '0'B),2 OLDIOERR UBIN(2)UNAL INIT(0),2 * BIT(21)
              6798    1   INIT('0'B),2 REALSPAN BIT(1),2 DECRYPT BIT(1)INIT('0'B),2 PGINGRAN UBIN BYTE UNAL
              6798            INIT(0),2 IFMT UBIN(9)UNAL INIT(0),2 MEDIA UBIN(9)
              6799    1   UNAL INIT(0),2 IWL,3 TABIWL BIT(1)INIT('0'B),3 SEQIWL BIT(1)INIT('0'B),3 HDRIWL BIT(
              6799            1)INIT('0'B),3 * BIT(3)INIT('0'B),2 CTLCMDIN BIT
              6800    1   (1)INIT('0'B),2 UNIQUEBLD BIT(1)INIT('0'B),2 UPDCNT BIT(1)INIT('0'B),2 IASN UBIN(9)
              6800            UNAL INIT(0),2 MOVED SBIN(18)HALIGNED,2 * UBIN(9)
              6801    1   CALIGNED,2 CX UBIN(9)CALIGNED,2 CWORD CHAR(4)ALIGNED,2 RCSZ UBIN INIT(0),2 FEPSIZ
              6801            REDEF RCSZ,3 BUF UBIN HALF UNAL,3 KEY UBIN HALF
              6802    1   UNAL,2 ID ALIGNED,3 GX UBIN(10)UNAL,3 DA UBIN(26)UNAL,2 FEPIO,3 EVENT UBIN INIT(0),3
              6802            KEYX/* 0 */ UBIN
              6803    1   HALF HALIGNED INIT(0),3 BUFX UBIN HALF HALIGNED INIT(0),3 BPP(0:1)BIT(18)INIT('0'B*0
              6803            ),3 KPP(0:1)BIT(18)INIT('0'B*0),2 AGE SBIN INIT
              6804    1   (0),2 BFR(0:4),3 BUFUP BIT(1)INIT('0'B*0),3 SCRUB BIT(1)INIT('0'B*0),3 CHNG BIT(1)
              6804            INIT('0'B*0),3 CVM BIT(1)INIT('0'B*0),3 BUFX UBIN
              6805    1   (5)UNAL INIT(0*0),3 DA UBIN(27)UNAL INIT(0*0),2 BFR1(0:4)ALIGNED,3 FLAGS,4
              6805            ONE_WORD_HEADER BIT(1)INIT('0'B*0),4 * BIT(8)INIT
              6806    1   ('0'B*0),3 SIZ UBIN(9)UNAL INIT(0*0),3 CX UBIN(18)UNAL INIT(0*0),2 FEPIO2(0:3)UBIN
              6806            ALIGNED,2 FEPIO3(0:3)UBIN ALIGNED,2 * SBIN INIT
              6807    1   (29127),2 DCBNAME DALIGNED,3 X UBIN(3)UNAL,3 S BIT(1),3 L UBIN(5)UNAL,3 N CHAR(M$UI.
PL6.E3A0      #001=Z9A8$DCBS File=Z9A8.:Z8A6TSI                                  SAT 08/09/97 13:36 Page:11
              6807            DCBNAME.L);
       61     6809        %PAGE(ARG=M$SO);
              6810        %LSET LISTDIR='0'B;

              6822    1   /*******************************************************************************
              6823    1   *                                                                              *
              6824    1   *        M$SO              M$SO                                                  *
              6825    1   *                                                                              *
              6826    1   *******************************************************************************/

       62     6830        /*
       63     6831           Source output file
       64     6832           */
       65     6833        %M$DCB (DCBN=M$SO,
       66     6834        ASN=DEVICE,
       67     6835        RES='NO',
       68     6836        EXIST=NEWFILE,
       69     6837        FUN=CREATE,
       70     6838        ACS=SEQUEN,
       71     6839        ORG=CONSEC,
       72     6840        DISP=NAMED);
              6841    1   DCL 1 M$SO DCB,2 ARS# SBIN INIT(0),2 FLPW# REDEF ARS# BIT(36),2 * UBIN INIT(0),2 TYC
              6841            ,3 EGV# BIT(1)INIT('0'B*0),3 OPER# BIT(1)
              6842    1   INIT('0'B*0),3 EOT# BIT(1)INIT('0'B*0),3 BOT# BIT(1)INIT('0'B*0),3 BOF# BIT(1)INIT(
              6842            '0'B*0),3 BLNKTP# BIT(1)INIT('0'B*0),3 EOF# BIT
              6843    1   (1)INIT('0'B*0),3 LD# BIT(1)INIT('0'B*0),3 IOERR# BIT(1)INIT('0'B*0),3 DI# BIT(1)
              6843            INIT('0'B*0),3 EOD# BIT(1)INIT('0'B*0),3 MTRAP# BIT
              6844    1   (1)INIT('0'B*0),3 LDISC# BIT(1)INIT('0'B*0),3 DACT# BIT(1)INIT('0'B*0),3 TIMO# BIT(1
              6844            )INIT('0'B*0),3 PROT# BIT(1)INIT('0'B*0),3 FRAW#
              6845    1   BIT(1)INIT('0'B*0),3 LAST# BIT(1)INIT('0'B*0),3 CDALRT# BIT(1)INIT('0'B*0),3 XTRARD
              6845            BIT(1)INIT('0'B*0),3 CGKEYV BIT(1)INIT('0'B*0),3
              6846    1   CGLWRV BIT(1)INIT('0'B*0),3 CGFULL BIT(1)INIT('0'B*0),3 CGCRCW BIT(1)INIT('0'B*0),3
              6846            CGCWRV BIT(1)INIT('0'B*0),3 * BIT(11)INIT
              6847    1   ('0'B*0),2 DVBYTE,3 TOP# BIT(1)INIT('0'B),3 * BIT(1)INIT('0'B),3 VFC# BIT(1)INIT(
              6847            '0'B),3 BIN# BIT(1)INIT('0'B),3 TRANS# BIT(1)INIT
              6848    1   ('0'B),3 * BIT(3)INIT('0'B),2 BUPF BIT(1)INIT('0'B),2 RDL0# UBIN(9)UNAL INIT(0),2
              6848            SLIDE# UBIN(9)UNAL INIT(0),2 EOMCHAR# CHAR(1)INIT
PL6.E3A0      #001=Z9A8$DCBS File=Z9A8.:Z8A6TSI                                  SAT 08/09/97 13:36 Page:12
              6849    1   (BITASC('501'O)),2 EOMVAL# REDEF EOMCHAR# UNAL,3 VFLG# BIT(1),3 VALUE# UBIN(8)UNAL,2
              6849            FFLG,3 READ# BIT(1)INIT('0'B),3 DELR# BIT(1)
              6850    1   INIT('0'B),3 WNEW# BIT(1)INIT('0'B),3 UPD# BIT(1)INIT('0'B),3 DELF# BIT(1)INIT('0'B)
              6850            ,3 NOLIST# BIT(1)INIT('0'B),3 REATTR# BIT(1)INIT
              6851    1   ('0'B),3 EXEC# BIT(1)INIT('0'B),3 CREATE# BIT(1)INIT('0'B),3 AU# BIT(1)INIT('0'B),3
              6851            AURD# BIT(1)INIT('0'B),3 TCTL# BIT(1)INIT('0'B),
              6852    1   3 * BIT(6)INIT('0'B),2 DDEV,3 LP# BIT(1)INIT('0'B),3 CP# BIT(1)INIT('0'B),3 IC# BIT(
              6852            1)INIT('0'B),3 XEQ# BIT(1)INIT('0'B),3 UCOUT#
              6853    1   BIT(1)INIT('0'B),3 GR# BIT(1)INIT('0'B),3 * BIT(3)INIT('0'B),2 WIDTH# UBIN(9)UNAL
              6853            INIT(0),2 RETRYCNT# UBIN(18)HALIGNED INIT(0),2
              6854    1   DESC,3 DELF# BIT(1)INIT('0'B),3 NOLIST# BIT(1)INIT('0'B),3 BUF# BIT(1)INIT('0'B),3
              6854            ODSTOW# BIT(1)INIT('0'B),3 BAD# BIT(1)INIT('0'B),
              6855    1   3 QS# BIT(1)INIT('0'B),3 * BIT(2)INIT('0'B),3 ARCHIVE# BIT(1)INIT('0'B),3 BUPM# BIT(
              6855            1)INIT('0'B),3 NBUF# BIT(1)INIT('0'B),3 ACTIVE#
              6856    1   BIT(1)INIT('0'B),3 TPB# BIT(1)INIT('0'B),3 TERMINATE# BIT(1)INIT('0'B),3 FETCH# BIT(
              6856            1)INIT('0'B),3 * BIT(3)INIT('0'B),2 SETSTA$ PTR
              6857    1   INIT(ADDR(NIL)),2 LASTSTA$ PTR INIT(ADDR(NIL)),2 TDEXTST$ REDEF LASTSTA$ PTR,2 NAME#
              6857            ,3 L UBIN(9)UNAL INIT(SIZEC(' ')),3 C CHAR(31)
              6858    1   INIT(' '),3 C17 REDEF C UNAL,4 CC CHAR(17),4 * CHAR(14),2 ACCT# CHAR(8)INIT(' '),2
              6858            PASS# CHAR(8)INIT(' '),2 PSN# CHAR(6)INIT
              6859    1   (' '),2 TYPE# CHAR(2)INIT(' '),2 RES# CHAR(4)INIT('NO'),2 RESNT REDEF RES# UNAL,3
              6859            TYP CHAR(2),3 NUM CHAR(2),2 WSN# CHAR(8)ALIGNED
              6860    1   INIT(' '),2 TDSTAT# REDEF WSN# BIT(72),2 IGNOREFSN# BIT(1)INIT('0'B),2 AU# BIT(1)
              6860            INIT('0'B),2 QISS# BIT(1)INIT('0'B),2 LOAD# BIT
              6861    1   (1)INIT('0'B),2 IOERROK# BIT(1)INIT('0'B),2 AMRSETSTA BIT(1)INIT('0'B),2 LSTAOR# BIT
              6861            (1)INIT('0'B),2 VOLACCESS# UBIN(2)UNAL INIT
              6862    1   (0),2 UOPT#(0:8)BIT(1)INIT('0'B,'0'B,'0'B,'0'B,'0'B,'0'B,'0'B,'0'B,'0'B),2 PASSF#
              6862            BIT(1)INIT('0'B),2 CNVRT# BIT(1)
              6863    1   INIT('1'B),2 EBCDIC# BIT(1)INIT('0'B),2 FCI# BIT(1)INIT('0'B),2 FCD# BIT(1)INIT('0'B
              6863            ),2 AMR# BIT(1)INIT('0'B),2 CTG# BIT(1)INIT
              6864    1   ('0'B),2 EXIST# UBIN(2)UNAL INIT(3),2 SHARE# UBIN(2)UNAL INIT(0),2 COMP# BIT(1)INIT(
              6864            '0'B),2 XTEND# BIT(1)INIT('0'B),2 CVOL#
              6865    1   BIT(1)INIT('0'B),2 BLOCKED# BIT(1)INIT('1'B),2 SPANNED# BIT(1)INIT('1'B),2 BUPM# BIT
              6865            (2)INIT('01'B),2 ORG# UBIN(9)UNAL INIT
              6866    1   (1),2 DVTYPE# REDEF ORG# UBIN(9)UNAL,2 FUN# UBIN(9)UNAL INIT(3),2 ASN# UBIN(9)UNAL
              6866            INIT(3),2 DISP# UBIN(9)UNAL INIT(2),2
              6867    1   BLKL# UBIN(18)UNAL INIT(0),2 RECL# UBIN(18)UNAL INIT(0),2 FSN# UBIN(18)UNAL INIT(0),
PL6.E3A0      #001=Z9A8$DCBS File=Z9A8.:Z8A6TSI                                  SAT 08/09/97 13:36 Page:13
              6867            2 DBGDCBNO# REDEF FSN# UBIN(18)UNAL,2
              6868    1   DBGSYSID# REDEF FSN# UBIN(18)UNAL,2 SYSID# REDEF FSN# UBIN(18)UNAL,2 FEXTX UBIN(9)
              6868            UNAL INIT(0),2 BOL# UBIN(9)UNAL INIT(0),2 EXPIRE#
              6869    1   SBIN INIT(0),2 KEYX# UBIN(18)UNAL INIT(0),2 KEYL# UBIN(9)UNAL INIT(0),2 ACS# UBIN(9)
              6869            UNAL INIT(1),2 XTNSIZE# UBIN(18)
              6870    1   UNAL INIT(2),2 LSLIDE# UBIN(9)UNAL INIT(510),2 LRDL0# UBIN(9)UNAL INIT(3),2 SPARE#
              6870            UBIN(9)UNAL INIT(1),2 WSR# UBIN
              6871    1   (9)UNAL INIT(0),2 ATTR# BIT(18) INIT('0'B)/* '0'B */,2 ATTR REDEF ATTR#,3 DENS# BIT(
              6871            9),3
              6872    1   GRLGL# BIT(1),3 TRANSLGL# BIT(1),3 NOXLATE# BIT(1),3 UPPERCASE# BIT(1),3 NATL# BIT(1
              6872            ),3 TRUOVRPRT# BIT(1),3 APL# BIT(1),3 BIN# BIT
              6873    1   (1),3 LOWERCASE# BIT(1),2 TDFLG REDEF ATTR#/*'0'B */,3 SDSK# BIT(1),3 * BIT(17),2
              6873            IXTNSIZE# SBIN WORD INIT
              6874    1   (2),2 CONNCT# REDEF IXTNSIZE# SBIN,2 NRECS# SBIN INIT(0),2 CHANTIME# REDEF NRECS#
              6874            SBIN,2 VOL# UBIN(9)UNAL INIT(0),2
              6875    1   MAXVOL# UBIN(9)UNAL INIT(0),2 CHAIN# UBIN(9)UNAL INIT(0),2 DENSITY# UBIN(9)UNAL INIT
              6875            (0),2 LINES# UBIN(18)UNAL INIT
              6876    1   (0),2 DVFC# CHAR(1)INIT(BINASC(0)),2 SEQ# BIT(1)INIT('0'B),2 SEQCOL# UBIN(8)UNAL
              6876            INIT(73),2 SEQID# CHAR(4)INIT(' '),2 HEADER$
              6877    1   PTR INIT(ADDR(NIL)),2 DQH$ REDEF HEADER$ PTR,2 TAB$ PTR INIT(ADDR(NIL)),2 DCT$ REDEF
              6877            TAB$ PTR,2 FORM$ PTR INIT(ADDR(NIL)),2 MPC$
              6878    1   REDEF FORM$ PTR,2 LDCTX UBIN(18)UNAL INIT(0),2 SETX UBIN(18)UNAL INIT(0),2 DEVADR
              6878            REDEF SETX,3 DVN# UBIN(6)UNAL,3 IOM# UBIN(3)UNAL,3
              6879    1   CHAN# UBIN(9)CALIGNED,2 * BIT(9)CALIGNED INIT('0'B),2 JRNLBYPASS# BIT(1)INIT('0'B),2
              6879            * BIT(4)INIT('0'B),2 GHSTACS# UBIN(4)INIT
              6880    1   (0)UNAL,2 ALTKEYX UBIN(18)UNAL INIT(0),2 CODE16$ PTR INIT(ADDR(NIL)),2 FPRGX UBIN
              6880            HALF HALIGNED INIT(0),2 FIELDX UBIN HALF
              6881    1   HALIGNED INIT(0),2 EVENT SBIN INIT(0),2 VFCCHAR# CHAR(1)CALIGNED INIT(BINASC(0)),2
              6881            KEYTYPE# UBIN(9)CALIGNED INIT(0),2 KFIELDX
              6882    1   UBIN(18)HALIGNED INIT(0),2 STARTX UBIN(18)HALIGNED INIT(0),2 ACTPOS UBIN(18)HALIGNED
              6882            INIT(0),2 AUTHFFLG REDEF ACTPOS,3 READ# BIT(1),
              6883    1   3 DELR# BIT(1),3 WNEW# BIT(1),3 UPD# BIT(1),3 DELF# BIT(1),3 NOLIST# BIT(1),3
              6883            REATTR# BIT(1),3 EXEC# BIT(1),3 CREATE# BIT(1),3 AU#
              6884    1   BIT(1),3 AURD# BIT(1),3 TCTL# BIT(1),3 * BIT(6),2 DCB# UBIN(9)CALIGNED INIT(0),2 *
              6884            BIT(14)INIT('0'B),2 ANSISPANSEQ# BIT(1)INIT
              6885    1   ('1'B),2 PATH,3 IOM# UBIN(3)UNAL INIT(0),3 CHAN# UBIN(9)UNAL INIT(0),2 IRRECX UBIN(
              6885            18)HALIGNED INIT(0),2 FLDID UBIN(18)
PL6.E3A0      #001=Z9A8$DCBS File=Z9A8.:Z8A6TSI                                  SAT 08/09/97 13:36 Page:14
              6886    1   HALIGNED INIT(0),2 BADARS# REDEF FLDID UBIN(18)HALIGNED,2 SEED# BIT(36)INIT('0'B),2
              6886            * UBIN INIT(0),2 FEXT BIT(1)INIT('0'B),2 STARF
              6887    1   BIT(1)INIT('0'B),2 SHARED BIT(1)INIT('0'B),2 FMOD BIT(1)INIT('0'B),2 GTYP UBIN(3)
              6887            UNAL INIT(0),2 EOP UBIN(2)UNAL INIT(0),2 AMFLG,3
              6888    1   ACCF BIT(1)INIT('0'B),3 ACSF BIT(1)INIT('0'B),3 INSF BIT(1)INIT('0'B),3 USRF BIT(1)
              6888            INIT('0'B),3 SNLF BIT(1)INIT('0'B),3 PROF BIT(1)
              6889    1   INIT('0'B),2 SEZ_OK BIT(1)INIT('0'B),2 MUST_CVOL BIT(1)INIT('0'B),2 NEW_FSECT BIT(1)
              6889            INIT('0'B),2 NOEOF BIT(1)INIT('0'B),2 MOUNT
              6890    1   REDEF NOEOF BIT(1),2 OHDR BIT(1)INIT('0'B),2 LDFLG REDEF OHDR BIT(1),2 SPAN BIT(1)
              6890            INIT('0'B),2 OWNER BIT(1)INIT('0'B),2 RA BIT(1)
              6891    1   INIT('0'B),2 RPOS BIT(1)INIT('0'B),2 STARX UBIN(3)UNAL INIT(0),2 CACHE BIT(1)INIT(
              6891            '0'B),2 ENQF BIT(1)INIT('0'B),2 GRPOS BIT(1)INIT
              6892    1   ('0'B),2 CONT BIT(1)INIT('0'B),2 WAIT UBIN(1)UNAL INIT(1),2 TRNC UBIN(2)UNAL INIT(0)
              6892            ,2 AFTRBLK BIT(1)INIT('0'B),2 LSTBLK BIT(1)INIT
              6893    1   ('0'B),2 BORROW SBIN INIT(0),2 LASTKEY$ REDEF BORROW PTR,2 LASTKEY REDEF BORROW SBIN
              6893            ,2 FTAM REDEF BORROW,3 CTX UBIN HALF UNAL,3 USR
              6894    1   UBIN BYTE UNAL,3 PMME UBIN(9)UNAL,2 CFU$ PTR INIT(ADDR(NIL)),2 TDALVL UBIN(3)UNAL
              6894            INIT(0),2 LVL UBIN(3)UNAL INIT(0),2 LPOOL REDEF
              6895    1   LVL UBIN(3)UNAL,2 WRCMP BIT(1)INIT('0'B),2 WCDATA BIT(1)INIT('0'B),2 UCOUT BIT(1)
              6895            INIT('0'B),2 TAPTYP,3 RWASC BIT(1)INIT('0'B),3 CP6F
              6896    1   BIT(1)INIT('0'B),3 USRBUF BIT(1)INIT('0'B),3 HAVLASTKEY BIT(1)INIT('0'B),3 NOCVOL
              6896            BIT(1)INIT('0'B),3 MANAGED BIT(1)INIT('0'B),3
              6897    1   PASTFM BIT(1)INIT('0'B),3 * BIT(2)INIT('0'B),2 CRECX UBIN(18)UNAL INIT(0),2 CBUFNUM
              6897            UBIN(3)UNAL INIT(0),2 IORG UBIN(6)UNAL INIT(0),2
              6898    1   TDA UBIN(27)UNAL INIT(0),2 BYTESLEFT REDEF TDA UBIN(27)UNAL,2 CRECNO SBIN INIT(0),2
              6898            PRECNO SBIN INIT(0),2 CSEED REDEF PRECNO SBIN,2
              6899    1   HASH UBIN(27)UNAL INIT(0),2 FDCM UBIN(9)UNAL INIT(0),2 FCN(0:1),3 F BIT(1)INIT('0'B,
              6899            '0'B),3 CNT UBIN(8)UNAL INIT(0,0),2 BLKLEN UBIN
              6900    1   (18)UNAL INIT(0),2 UB$ PTR INIT(ADDR(NIL)),2 UBYTES UBIN INIT(0),2 FSECT UBIN(18)
              6900            UNAL INIT(0),2 INDX REDEF FSECT UBIN(18)UNAL,2
              6901    1   FPSTR UBIN(9)UNAL INIT(0),2 STR# UBIN(9)UNAL INIT(0),2 NRECX UBIN(18)UNAL INIT(0),2
              6901            MODCNT REDEF NRECX UBIN(18)UNAL,2 SEGX UBIN(18)
              6902    1   UNAL INIT(0),2 GDISP UBIN INIT(0),2 LOGSEC BIT(1)INIT('0'B),2 PRIVOPN BIT(1)INIT(
              6902            '0'B),2 OLDIOERR UBIN(2)UNAL INIT(0),2 * BIT(21)
              6903    1   INIT('0'B),2 REALSPAN BIT(1),2 DECRYPT BIT(1)INIT('0'B),2 PGINGRAN UBIN BYTE UNAL
              6903            INIT(0),2 IFMT UBIN(9)UNAL INIT(0),2 MEDIA UBIN(9)
              6904    1   UNAL INIT(0),2 IWL,3 TABIWL BIT(1)INIT('0'B),3 SEQIWL BIT(1)INIT('0'B),3 HDRIWL BIT(
PL6.E3A0      #001=Z9A8$DCBS File=Z9A8.:Z8A6TSI                                  SAT 08/09/97 13:36 Page:15
              6904            1)INIT('0'B),3 * BIT(3)INIT('0'B),2 CTLCMDIN BIT
              6905    1   (1)INIT('0'B),2 UNIQUEBLD BIT(1)INIT('0'B),2 UPDCNT BIT(1)INIT('0'B),2 IASN UBIN(9)
              6905            UNAL INIT(0),2 MOVED SBIN(18)HALIGNED,2 * UBIN(9)
              6906    1   CALIGNED,2 CX UBIN(9)CALIGNED,2 CWORD CHAR(4)ALIGNED,2 RCSZ UBIN INIT(0),2 FEPSIZ
              6906            REDEF RCSZ,3 BUF UBIN HALF UNAL,3 KEY UBIN HALF
              6907    1   UNAL,2 ID ALIGNED,3 GX UBIN(10)UNAL,3 DA UBIN(26)UNAL,2 FEPIO,3 EVENT UBIN INIT(0),3
              6907            KEYX/* 0 */ UBIN
              6908    1   HALF HALIGNED INIT(0),3 BUFX UBIN HALF HALIGNED INIT(0),3 BPP(0:1)BIT(18)INIT('0'B*0
              6908            ),3 KPP(0:1)BIT(18)INIT('0'B*0),2 AGE SBIN INIT
              6909    1   (0),2 BFR(0:4),3 BUFUP BIT(1)INIT('0'B*0),3 SCRUB BIT(1)INIT('0'B*0),3 CHNG BIT(1)
              6909            INIT('0'B*0),3 CVM BIT(1)INIT('0'B*0),3 BUFX UBIN
              6910    1   (5)UNAL INIT(0*0),3 DA UBIN(27)UNAL INIT(0*0),2 BFR1(0:4)ALIGNED,3 FLAGS,4
              6910            ONE_WORD_HEADER BIT(1)INIT('0'B*0),4 * BIT(8)INIT
              6911    1   ('0'B*0),3 SIZ UBIN(9)UNAL INIT(0*0),3 CX UBIN(18)UNAL INIT(0*0),2 FEPIO2(0:3)UBIN
              6911            ALIGNED,2 FEPIO3(0:3)UBIN ALIGNED,2 * SBIN INIT
              6912    1   (29127),2 DCBNAME DALIGNED,3 X UBIN(3)UNAL,3 S BIT(1),3 L UBIN(5)UNAL,3 N CHAR(M$SO.
              6912            DCBNAME.L);
       73     6914        %PAGE(ARG=M$OU);
              6915        %LSET LISTDIR='0'B;

              6927    1   /*******************************************************************************
              6928    1   *                                                                              *
              6929    1   *        M$OU              M$OU                                                  *
              6930    1   *                                                                              *
              6931    1   *******************************************************************************/

       74     6935        /*
       75     6936           Object output file
       76     6937           */
       77     6938        %M$DCB (DCBN=M$OU,
       78     6939        ASN=FILE,
       79     6940        ACS=DIRECT,
       80     6941        ORG=KEYED,
       81     6942        NAME='*G',
       82     6943        TYPE='OC',                              /*#26809*/
       83     6944        FUN=CREATE,
       84     6945        EXIST=NEWFILE,
PL6.E3A0      #001=Z9A8$DCBS File=Z9A8.:Z8A6TSI                                  SAT 08/09/97 13:36 Page:16
       85     6946        DISP=NAMED);
              6947    1   DCL 1 M$OU DCB,2 ARS# SBIN INIT(0),2 FLPW# REDEF ARS# BIT(36),2 * UBIN INIT(0),2 TYC
              6947            ,3 EGV# BIT(1)INIT('0'B*0),3 OPER# BIT(1)
              6948    1   INIT('0'B*0),3 EOT# BIT(1)INIT('0'B*0),3 BOT# BIT(1)INIT('0'B*0),3 BOF# BIT(1)INIT(
              6948            '0'B*0),3 BLNKTP# BIT(1)INIT('0'B*0),3 EOF# BIT
              6949    1   (1)INIT('0'B*0),3 LD# BIT(1)INIT('0'B*0),3 IOERR# BIT(1)INIT('0'B*0),3 DI# BIT(1)
              6949            INIT('0'B*0),3 EOD# BIT(1)INIT('0'B*0),3 MTRAP# BIT
              6950    1   (1)INIT('0'B*0),3 LDISC# BIT(1)INIT('0'B*0),3 DACT# BIT(1)INIT('0'B*0),3 TIMO# BIT(1
              6950            )INIT('0'B*0),3 PROT# BIT(1)INIT('0'B*0),3 FRAW#
              6951    1   BIT(1)INIT('0'B*0),3 LAST# BIT(1)INIT('0'B*0),3 CDALRT# BIT(1)INIT('0'B*0),3 XTRARD
              6951            BIT(1)INIT('0'B*0),3 CGKEYV BIT(1)INIT('0'B*0),3
              6952    1   CGLWRV BIT(1)INIT('0'B*0),3 CGFULL BIT(1)INIT('0'B*0),3 CGCRCW BIT(1)INIT('0'B*0),3
              6952            CGCWRV BIT(1)INIT('0'B*0),3 * BIT(11)INIT
              6953    1   ('0'B*0),2 DVBYTE,3 TOP# BIT(1)INIT('0'B),3 * BIT(1)INIT('0'B),3 VFC# BIT(1)INIT(
              6953            '0'B),3 BIN# BIT(1)INIT('0'B),3 TRANS# BIT(1)INIT
              6954    1   ('0'B),3 * BIT(3)INIT('0'B),2 BUPF BIT(1)INIT('0'B),2 RDL0# UBIN(9)UNAL INIT(0),2
              6954            SLIDE# UBIN(9)UNAL INIT(0),2 EOMCHAR# CHAR(1)INIT
              6955    1   (BITASC('501'O)),2 EOMVAL# REDEF EOMCHAR# UNAL,3 VFLG# BIT(1),3 VALUE# UBIN(8)UNAL,2
              6955            FFLG,3 READ# BIT(1)INIT('0'B),3 DELR# BIT(1)
              6956    1   INIT('0'B),3 WNEW# BIT(1)INIT('0'B),3 UPD# BIT(1)INIT('0'B),3 DELF# BIT(1)INIT('0'B)
              6956            ,3 NOLIST# BIT(1)INIT('0'B),3 REATTR# BIT(1)INIT
              6957    1   ('0'B),3 EXEC# BIT(1)INIT('0'B),3 CREATE# BIT(1)INIT('0'B),3 AU# BIT(1)INIT('0'B),3
              6957            AURD# BIT(1)INIT('0'B),3 TCTL# BIT(1)INIT('0'B),
              6958    1   3 * BIT(6)INIT('0'B),2 DDEV,3 LP# BIT(1)INIT('0'B),3 CP# BIT(1)INIT('0'B),3 IC# BIT(
              6958            1)INIT('0'B),3 XEQ# BIT(1)INIT('0'B),3 UCOUT#
              6959    1   BIT(1)INIT('0'B),3 GR# BIT(1)INIT('0'B),3 * BIT(3)INIT('0'B),2 WIDTH# UBIN(9)UNAL
              6959            INIT(0),2 RETRYCNT# UBIN(18)HALIGNED INIT(0),2
              6960    1   DESC,3 DELF# BIT(1)INIT('0'B),3 NOLIST# BIT(1)INIT('0'B),3 BUF# BIT(1)INIT('0'B),3
              6960            ODSTOW# BIT(1)INIT('0'B),3 BAD# BIT(1)INIT('0'B),
              6961    1   3 QS# BIT(1)INIT('0'B),3 * BIT(2)INIT('0'B),3 ARCHIVE# BIT(1)INIT('0'B),3 BUPM# BIT(
              6961            1)INIT('0'B),3 NBUF# BIT(1)INIT('0'B),3 ACTIVE#
              6962    1   BIT(1)INIT('0'B),3 TPB# BIT(1)INIT('0'B),3 TERMINATE# BIT(1)INIT('0'B),3 FETCH# BIT(
              6962            1)INIT('0'B),3 * BIT(3)INIT('0'B),2 SETSTA$ PTR
              6963    1   INIT(ADDR(NIL)),2 LASTSTA$ PTR INIT(ADDR(NIL)),2 TDEXTST$ REDEF LASTSTA$ PTR,2 NAME#
              6963            ,3 L UBIN(9)UNAL INIT(SIZEC('*G')),3 C CHAR(31)
              6964    1   INIT('*G'),3 C17 REDEF C UNAL,4 CC CHAR(17),4 * CHAR(14),2 ACCT# CHAR(8)INIT(' '),2
              6964            PASS# CHAR(8)INIT(' '),2 PSN# CHAR(6)INIT
PL6.E3A0      #001=Z9A8$DCBS File=Z9A8.:Z8A6TSI                                  SAT 08/09/97 13:36 Page:17
              6965    1   (' '),2 TYPE# CHAR(2)INIT('OC'),2 RES# CHAR(4)INIT('ME'),2 RESNT REDEF RES# UNAL,3
              6965            TYP CHAR(2),3 NUM CHAR(2),2 WSN# CHAR(8)ALIGNED
              6966    1   INIT(' '),2 TDSTAT# REDEF WSN# BIT(72),2 IGNOREFSN# BIT(1)INIT('0'B),2 AU# BIT(1)
              6966            INIT('0'B),2 QISS# BIT(1)INIT('0'B),2 LOAD# BIT
              6967    1   (1)INIT('0'B),2 IOERROK# BIT(1)INIT('0'B),2 AMRSETSTA BIT(1)INIT('0'B),2 LSTAOR# BIT
              6967            (1)INIT('0'B),2 VOLACCESS# UBIN(2)UNAL INIT
              6968    1   (0),2 UOPT#(0:8)BIT(1)INIT('0'B,'0'B,'0'B,'0'B,'0'B,'0'B,'0'B,'0'B,'0'B),2 PASSF#
              6968            BIT(1)INIT('0'B),2 CNVRT# BIT(1)
              6969    1   INIT('1'B),2 EBCDIC# BIT(1)INIT('0'B),2 FCI# BIT(1)INIT('0'B),2 FCD# BIT(1)INIT('0'B
              6969            ),2 AMR# BIT(1)INIT('0'B),2 CTG# BIT(1)INIT
              6970    1   ('0'B),2 EXIST# UBIN(2)UNAL INIT(3),2 SHARE# UBIN(2)UNAL INIT(0),2 COMP# BIT(1)INIT(
              6970            '0'B),2 XTEND# BIT(1)INIT('0'B),2 CVOL#
              6971    1   BIT(1)INIT('0'B),2 BLOCKED# BIT(1)INIT('1'B),2 SPANNED# BIT(1)INIT('1'B),2 BUPM# BIT
              6971            (2)INIT('01'B),2 ORG# UBIN(9)UNAL INIT
              6972    1   (2),2 DVTYPE# REDEF ORG# UBIN(9)UNAL,2 FUN# UBIN(9)UNAL INIT(3),2 ASN# UBIN(9)UNAL
              6972            INIT(1),2 DISP# UBIN(9)UNAL INIT(2),2
              6973    1   BLKL# UBIN(18)UNAL INIT(0),2 RECL# UBIN(18)UNAL INIT(0),2 FSN# UBIN(18)UNAL INIT(0),
              6973            2 DBGDCBNO# REDEF FSN# UBIN(18)UNAL,2
              6974    1   DBGSYSID# REDEF FSN# UBIN(18)UNAL,2 SYSID# REDEF FSN# UBIN(18)UNAL,2 FEXTX UBIN(9)
              6974            UNAL INIT(0),2 BOL# UBIN(9)UNAL INIT(0),2 EXPIRE#
              6975    1   SBIN INIT(0),2 KEYX# UBIN(18)UNAL INIT(0),2 KEYL# UBIN(9)UNAL INIT(0),2 ACS# UBIN(9)
              6975            UNAL INIT(2),2 XTNSIZE# UBIN(18)
              6976    1   UNAL INIT(2),2 LSLIDE# UBIN(9)UNAL INIT(510),2 LRDL0# UBIN(9)UNAL INIT(3),2 SPARE#
              6976            UBIN(9)UNAL INIT(1),2 WSR# UBIN
              6977    1   (9)UNAL INIT(0),2 ATTR# BIT(18) INIT('0'B)/* '0'B */,2 ATTR REDEF ATTR#,3 DENS# BIT(
              6977            9),3
              6978    1   GRLGL# BIT(1),3 TRANSLGL# BIT(1),3 NOXLATE# BIT(1),3 UPPERCASE# BIT(1),3 NATL# BIT(1
              6978            ),3 TRUOVRPRT# BIT(1),3 APL# BIT(1),3 BIN# BIT
              6979    1   (1),3 LOWERCASE# BIT(1),2 TDFLG REDEF ATTR#/*'0'B */,3 SDSK# BIT(1),3 * BIT(17),2
              6979            IXTNSIZE# SBIN WORD INIT
              6980    1   (2),2 CONNCT# REDEF IXTNSIZE# SBIN,2 NRECS# SBIN INIT(0),2 CHANTIME# REDEF NRECS#
              6980            SBIN,2 VOL# UBIN(9)UNAL INIT(0),2
              6981    1   MAXVOL# UBIN(9)UNAL INIT(0),2 CHAIN# UBIN(9)UNAL INIT(0),2 DENSITY# UBIN(9)UNAL INIT
              6981            (0),2 LINES# UBIN(18)UNAL INIT
              6982    1   (0),2 DVFC# CHAR(1)INIT(BINASC(0)),2 SEQ# BIT(1)INIT('0'B),2 SEQCOL# UBIN(8)UNAL
              6982            INIT(73),2 SEQID# CHAR(4)INIT(' '),2 HEADER$
              6983    1   PTR INIT(ADDR(NIL)),2 DQH$ REDEF HEADER$ PTR,2 TAB$ PTR INIT(ADDR(NIL)),2 DCT$ REDEF
PL6.E3A0      #001=Z9A8$DCBS File=Z9A8.:Z8A6TSI                                  SAT 08/09/97 13:36 Page:18
              6983            TAB$ PTR,2 FORM$ PTR INIT(ADDR(NIL)),2 MPC$
              6984    1   REDEF FORM$ PTR,2 LDCTX UBIN(18)UNAL INIT(0),2 SETX UBIN(18)UNAL INIT(0),2 DEVADR
              6984            REDEF SETX,3 DVN# UBIN(6)UNAL,3 IOM# UBIN(3)UNAL,3
              6985    1   CHAN# UBIN(9)CALIGNED,2 * BIT(9)CALIGNED INIT('0'B),2 JRNLBYPASS# BIT(1)INIT('0'B),2
              6985            * BIT(4)INIT('0'B),2 GHSTACS# UBIN(4)INIT
              6986    1   (0)UNAL,2 ALTKEYX UBIN(18)UNAL INIT(0),2 CODE16$ PTR INIT(ADDR(NIL)),2 FPRGX UBIN
              6986            HALF HALIGNED INIT(0),2 FIELDX UBIN HALF
              6987    1   HALIGNED INIT(0),2 EVENT SBIN INIT(0),2 VFCCHAR# CHAR(1)CALIGNED INIT(BINASC(0)),2
              6987            KEYTYPE# UBIN(9)CALIGNED INIT(0),2 KFIELDX
              6988    1   UBIN(18)HALIGNED INIT(0),2 STARTX UBIN(18)HALIGNED INIT(0),2 ACTPOS UBIN(18)HALIGNED
              6988            INIT(0),2 AUTHFFLG REDEF ACTPOS,3 READ# BIT(1),
              6989    1   3 DELR# BIT(1),3 WNEW# BIT(1),3 UPD# BIT(1),3 DELF# BIT(1),3 NOLIST# BIT(1),3
              6989            REATTR# BIT(1),3 EXEC# BIT(1),3 CREATE# BIT(1),3 AU#
              6990    1   BIT(1),3 AURD# BIT(1),3 TCTL# BIT(1),3 * BIT(6),2 DCB# UBIN(9)CALIGNED INIT(0),2 *
              6990            BIT(14)INIT('0'B),2 ANSISPANSEQ# BIT(1)INIT
              6991    1   ('1'B),2 PATH,3 IOM# UBIN(3)UNAL INIT(0),3 CHAN# UBIN(9)UNAL INIT(0),2 IRRECX UBIN(
              6991            18)HALIGNED INIT(0),2 FLDID UBIN(18)
              6992    1   HALIGNED INIT(0),2 BADARS# REDEF FLDID UBIN(18)HALIGNED,2 SEED# BIT(36)INIT('0'B),2
              6992            * UBIN INIT(0),2 FEXT BIT(1)INIT('0'B),2 STARF
              6993    1   BIT(1)INIT('0'B),2 SHARED BIT(1)INIT('0'B),2 FMOD BIT(1)INIT('0'B),2 GTYP UBIN(3)
              6993            UNAL INIT(0),2 EOP UBIN(2)UNAL INIT(0),2 AMFLG,3
              6994    1   ACCF BIT(1)INIT('0'B),3 ACSF BIT(1)INIT('0'B),3 INSF BIT(1)INIT('0'B),3 USRF BIT(1)
              6994            INIT('0'B),3 SNLF BIT(1)INIT('0'B),3 PROF BIT(1)
              6995    1   INIT('0'B),2 SEZ_OK BIT(1)INIT('0'B),2 MUST_CVOL BIT(1)INIT('0'B),2 NEW_FSECT BIT(1)
              6995            INIT('0'B),2 NOEOF BIT(1)INIT('0'B),2 MOUNT
              6996    1   REDEF NOEOF BIT(1),2 OHDR BIT(1)INIT('0'B),2 LDFLG REDEF OHDR BIT(1),2 SPAN BIT(1)
              6996            INIT('0'B),2 OWNER BIT(1)INIT('0'B),2 RA BIT(1)
              6997    1   INIT('0'B),2 RPOS BIT(1)INIT('0'B),2 STARX UBIN(3)UNAL INIT(0),2 CACHE BIT(1)INIT(
              6997            '0'B),2 ENQF BIT(1)INIT('0'B),2 GRPOS BIT(1)INIT
              6998    1   ('0'B),2 CONT BIT(1)INIT('0'B),2 WAIT UBIN(1)UNAL INIT(1),2 TRNC UBIN(2)UNAL INIT(0)
              6998            ,2 AFTRBLK BIT(1)INIT('0'B),2 LSTBLK BIT(1)INIT
              6999    1   ('0'B),2 BORROW SBIN INIT(0),2 LASTKEY$ REDEF BORROW PTR,2 LASTKEY REDEF BORROW SBIN
              6999            ,2 FTAM REDEF BORROW,3 CTX UBIN HALF UNAL,3 USR
              7000    1   UBIN BYTE UNAL,3 PMME UBIN(9)UNAL,2 CFU$ PTR INIT(ADDR(NIL)),2 TDALVL UBIN(3)UNAL
              7000            INIT(0),2 LVL UBIN(3)UNAL INIT(0),2 LPOOL REDEF
              7001    1   LVL UBIN(3)UNAL,2 WRCMP BIT(1)INIT('0'B),2 WCDATA BIT(1)INIT('0'B),2 UCOUT BIT(1)
              7001            INIT('0'B),2 TAPTYP,3 RWASC BIT(1)INIT('0'B),3 CP6F
PL6.E3A0      #001=Z9A8$DCBS File=Z9A8.:Z8A6TSI                                  SAT 08/09/97 13:36 Page:19
              7002    1   BIT(1)INIT('0'B),3 USRBUF BIT(1)INIT('0'B),3 HAVLASTKEY BIT(1)INIT('0'B),3 NOCVOL
              7002            BIT(1)INIT('0'B),3 MANAGED BIT(1)INIT('0'B),3
              7003    1   PASTFM BIT(1)INIT('0'B),3 * BIT(2)INIT('0'B),2 CRECX UBIN(18)UNAL INIT(0),2 CBUFNUM
              7003            UBIN(3)UNAL INIT(0),2 IORG UBIN(6)UNAL INIT(0),2
              7004    1   TDA UBIN(27)UNAL INIT(0),2 BYTESLEFT REDEF TDA UBIN(27)UNAL,2 CRECNO SBIN INIT(0),2
              7004            PRECNO SBIN INIT(0),2 CSEED REDEF PRECNO SBIN,2
              7005    1   HASH UBIN(27)UNAL INIT(0),2 FDCM UBIN(9)UNAL INIT(0),2 FCN(0:1),3 F BIT(1)INIT('0'B,
              7005            '0'B),3 CNT UBIN(8)UNAL INIT(0,0),2 BLKLEN UBIN
              7006    1   (18)UNAL INIT(0),2 UB$ PTR INIT(ADDR(NIL)),2 UBYTES UBIN INIT(0),2 FSECT UBIN(18)
              7006            UNAL INIT(0),2 INDX REDEF FSECT UBIN(18)UNAL,2
              7007    1   FPSTR UBIN(9)UNAL INIT(0),2 STR# UBIN(9)UNAL INIT(0),2 NRECX UBIN(18)UNAL INIT(0),2
              7007            MODCNT REDEF NRECX UBIN(18)UNAL,2 SEGX UBIN(18)
              7008    1   UNAL INIT(0),2 GDISP UBIN INIT(0),2 LOGSEC BIT(1)INIT('0'B),2 PRIVOPN BIT(1)INIT(
              7008            '0'B),2 OLDIOERR UBIN(2)UNAL INIT(0),2 * BIT(21)
              7009    1   INIT('0'B),2 REALSPAN BIT(1),2 DECRYPT BIT(1)INIT('0'B),2 PGINGRAN UBIN BYTE UNAL
              7009            INIT(0),2 IFMT UBIN(9)UNAL INIT(0),2 MEDIA UBIN(9)
              7010    1   UNAL INIT(0),2 IWL,3 TABIWL BIT(1)INIT('0'B),3 SEQIWL BIT(1)INIT('0'B),3 HDRIWL BIT(
              7010            1)INIT('0'B),3 * BIT(3)INIT('0'B),2 CTLCMDIN BIT
              7011    1   (1)INIT('0'B),2 UNIQUEBLD BIT(1)INIT('0'B),2 UPDCNT BIT(1)INIT('0'B),2 IASN UBIN(9)
              7011            UNAL INIT(0),2 MOVED SBIN(18)HALIGNED,2 * UBIN(9)
              7012    1   CALIGNED,2 CX UBIN(9)CALIGNED,2 CWORD CHAR(4)ALIGNED,2 RCSZ UBIN INIT(0),2 FEPSIZ
              7012            REDEF RCSZ,3 BUF UBIN HALF UNAL,3 KEY UBIN HALF
              7013    1   UNAL,2 ID ALIGNED,3 GX UBIN(10)UNAL,3 DA UBIN(26)UNAL,2 FEPIO,3 EVENT UBIN INIT(0),3
              7013            KEYX/* 0 */ UBIN
              7014    1   HALF HALIGNED INIT(0),3 BUFX UBIN HALF HALIGNED INIT(0),3 BPP(0:1)BIT(18)INIT('0'B*0
              7014            ),3 KPP(0:1)BIT(18)INIT('0'B*0),2 AGE SBIN INIT
              7015    1   (0),2 BFR(0:4),3 BUFUP BIT(1)INIT('0'B*0),3 SCRUB BIT(1)INIT('0'B*0),3 CHNG BIT(1)
              7015            INIT('0'B*0),3 CVM BIT(1)INIT('0'B*0),3 BUFX UBIN
              7016    1   (5)UNAL INIT(0*0),3 DA UBIN(27)UNAL INIT(0*0),2 BFR1(0:4)ALIGNED,3 FLAGS,4
              7016            ONE_WORD_HEADER BIT(1)INIT('0'B*0),4 * BIT(8)INIT
              7017    1   ('0'B*0),3 SIZ UBIN(9)UNAL INIT(0*0),3 CX UBIN(18)UNAL INIT(0*0),2 FEPIO2(0:3)UBIN
              7017            ALIGNED,2 FEPIO3(0:3)UBIN ALIGNED,2 * SBIN INIT
              7018    1   (29127),2 DCBNAME DALIGNED,3 X UBIN(3)UNAL,3 S BIT(1),3 L UBIN(5)UNAL,3 N CHAR(M$OU.
              7018            DCBNAME.L);
       86     7020        %PAGE(ARG=M$ES);
              7021        %LSET LISTDIR='0'B;

PL6.E3A0      #001=Z9A8$DCBS File=Z9A8.:Z8A6TSI                                  SAT 08/09/97 13:36 Page:20
              7033    1   /*******************************************************************************
              7034    1   *                                                                              *
              7035    1   *        M$ES              M$ES                                                  *
              7036    1   *                                                                              *
              7037    1   *******************************************************************************/

       87     7041        /*
       88     7042           Extended source file
       89     7043           */
       90     7044        %M$DCB(DCBN=M$ES,
       91     7045        FUN=CREATE,
       92     7046        ACS=SEQUEN,
       93     7047        CTG=NO,
       94     7048        NAME='*ES',
       95     7049        ASN=FILE,
       96     7050        ORG=CONSEC);
              7051    1   DCL 1 M$ES DCB,2 ARS# SBIN INIT(0),2 FLPW# REDEF ARS# BIT(36),2 * UBIN INIT(0),2 TYC
              7051            ,3 EGV# BIT(1)INIT('0'B*0),3 OPER# BIT(1)
              7052    1   INIT('0'B*0),3 EOT# BIT(1)INIT('0'B*0),3 BOT# BIT(1)INIT('0'B*0),3 BOF# BIT(1)INIT(
              7052            '0'B*0),3 BLNKTP# BIT(1)INIT('0'B*0),3 EOF# BIT
              7053    1   (1)INIT('0'B*0),3 LD# BIT(1)INIT('0'B*0),3 IOERR# BIT(1)INIT('0'B*0),3 DI# BIT(1)
              7053            INIT('0'B*0),3 EOD# BIT(1)INIT('0'B*0),3 MTRAP# BIT
              7054    1   (1)INIT('0'B*0),3 LDISC# BIT(1)INIT('0'B*0),3 DACT# BIT(1)INIT('0'B*0),3 TIMO# BIT(1
              7054            )INIT('0'B*0),3 PROT# BIT(1)INIT('0'B*0),3 FRAW#
              7055    1   BIT(1)INIT('0'B*0),3 LAST# BIT(1)INIT('0'B*0),3 CDALRT# BIT(1)INIT('0'B*0),3 XTRARD
              7055            BIT(1)INIT('0'B*0),3 CGKEYV BIT(1)INIT('0'B*0),3
              7056    1   CGLWRV BIT(1)INIT('0'B*0),3 CGFULL BIT(1)INIT('0'B*0),3 CGCRCW BIT(1)INIT('0'B*0),3
              7056            CGCWRV BIT(1)INIT('0'B*0),3 * BIT(11)INIT
              7057    1   ('0'B*0),2 DVBYTE,3 TOP# BIT(1)INIT('0'B),3 * BIT(1)INIT('0'B),3 VFC# BIT(1)INIT(
              7057            '0'B),3 BIN# BIT(1)INIT('0'B),3 TRANS# BIT(1)INIT
              7058    1   ('0'B),3 * BIT(3)INIT('0'B),2 BUPF BIT(1)INIT('0'B),2 RDL0# UBIN(9)UNAL INIT(0),2
              7058            SLIDE# UBIN(9)UNAL INIT(0),2 EOMCHAR# CHAR(1)INIT
              7059    1   (BITASC('501'O)),2 EOMVAL# REDEF EOMCHAR# UNAL,3 VFLG# BIT(1),3 VALUE# UBIN(8)UNAL,2
              7059            FFLG,3 READ# BIT(1)INIT('0'B),3 DELR# BIT(1)
              7060    1   INIT('0'B),3 WNEW# BIT(1)INIT('0'B),3 UPD# BIT(1)INIT('0'B),3 DELF# BIT(1)INIT('0'B)
              7060            ,3 NOLIST# BIT(1)INIT('0'B),3 REATTR# BIT(1)INIT
              7061    1   ('0'B),3 EXEC# BIT(1)INIT('0'B),3 CREATE# BIT(1)INIT('0'B),3 AU# BIT(1)INIT('0'B),3
PL6.E3A0      #001=Z9A8$DCBS File=Z9A8.:Z8A6TSI                                  SAT 08/09/97 13:36 Page:21
              7061            AURD# BIT(1)INIT('0'B),3 TCTL# BIT(1)INIT('0'B),
              7062    1   3 * BIT(6)INIT('0'B),2 DDEV,3 LP# BIT(1)INIT('0'B),3 CP# BIT(1)INIT('0'B),3 IC# BIT(
              7062            1)INIT('0'B),3 XEQ# BIT(1)INIT('0'B),3 UCOUT#
              7063    1   BIT(1)INIT('0'B),3 GR# BIT(1)INIT('0'B),3 * BIT(3)INIT('0'B),2 WIDTH# UBIN(9)UNAL
              7063            INIT(0),2 RETRYCNT# UBIN(18)HALIGNED INIT(0),2
              7064    1   DESC,3 DELF# BIT(1)INIT('0'B),3 NOLIST# BIT(1)INIT('0'B),3 BUF# BIT(1)INIT('0'B),3
              7064            ODSTOW# BIT(1)INIT('0'B),3 BAD# BIT(1)INIT('0'B),
              7065    1   3 QS# BIT(1)INIT('0'B),3 * BIT(2)INIT('0'B),3 ARCHIVE# BIT(1)INIT('0'B),3 BUPM# BIT(
              7065            1)INIT('0'B),3 NBUF# BIT(1)INIT('0'B),3 ACTIVE#
              7066    1   BIT(1)INIT('0'B),3 TPB# BIT(1)INIT('0'B),3 TERMINATE# BIT(1)INIT('0'B),3 FETCH# BIT(
              7066            1)INIT('0'B),3 * BIT(3)INIT('0'B),2 SETSTA$ PTR
              7067    1   INIT(ADDR(NIL)),2 LASTSTA$ PTR INIT(ADDR(NIL)),2 TDEXTST$ REDEF LASTSTA$ PTR,2 NAME#
              7067            ,3 L UBIN(9)UNAL INIT(SIZEC('*ES')),3 C CHAR(31)
              7068    1   INIT('*ES'),3 C17 REDEF C UNAL,4 CC CHAR(17),4 * CHAR(14),2 ACCT# CHAR(8)INIT(' '),2
              7068            PASS# CHAR(8)INIT(' '),2 PSN# CHAR(6)INIT
              7069    1   (' '),2 TYPE# CHAR(2)INIT(' '),2 RES# CHAR(4)INIT('ME'),2 RESNT REDEF RES# UNAL,3
              7069            TYP CHAR(2),3 NUM CHAR(2),2 WSN# CHAR(8)ALIGNED
              7070    1   INIT(' '),2 TDSTAT# REDEF WSN# BIT(72),2 IGNOREFSN# BIT(1)INIT('0'B),2 AU# BIT(1)
              7070            INIT('0'B),2 QISS# BIT(1)INIT('0'B),2 LOAD# BIT
              7071    1   (1)INIT('0'B),2 IOERROK# BIT(1)INIT('0'B),2 AMRSETSTA BIT(1)INIT('0'B),2 LSTAOR# BIT
              7071            (1)INIT('0'B),2 VOLACCESS# UBIN(2)UNAL INIT
              7072    1   (0),2 UOPT#(0:8)BIT(1)INIT('0'B,'0'B,'0'B,'0'B,'0'B,'0'B,'0'B,'0'B,'0'B),2 PASSF#
              7072            BIT(1)INIT('0'B),2 CNVRT# BIT(1)
              7073    1   INIT('1'B),2 EBCDIC# BIT(1)INIT('0'B),2 FCI# BIT(1)INIT('0'B),2 FCD# BIT(1)INIT('0'B
              7073            ),2 AMR# BIT(1)INIT('0'B),2 CTG# BIT(1)INIT
              7074    1   ('0'B),2 EXIST# UBIN(2)UNAL INIT(3),2 SHARE# UBIN(2)UNAL INIT(0),2 COMP# BIT(1)INIT(
              7074            '0'B),2 XTEND# BIT(1)INIT('0'B),2 CVOL#
              7075    1   BIT(1)INIT('0'B),2 BLOCKED# BIT(1)INIT('1'B),2 SPANNED# BIT(1)INIT('1'B),2 BUPM# BIT
              7075            (2)INIT('01'B),2 ORG# UBIN(9)UNAL INIT
              7076    1   (1),2 DVTYPE# REDEF ORG# UBIN(9)UNAL,2 FUN# UBIN(9)UNAL INIT(3),2 ASN# UBIN(9)UNAL
              7076            INIT(1),2 DISP# UBIN(9)UNAL INIT(0),2
              7077    1   BLKL# UBIN(18)UNAL INIT(0),2 RECL# UBIN(18)UNAL INIT(0),2 FSN# UBIN(18)UNAL INIT(0),
              7077            2 DBGDCBNO# REDEF FSN# UBIN(18)UNAL,2
              7078    1   DBGSYSID# REDEF FSN# UBIN(18)UNAL,2 SYSID# REDEF FSN# UBIN(18)UNAL,2 FEXTX UBIN(9)
              7078            UNAL INIT(0),2 BOL# UBIN(9)UNAL INIT(0),2 EXPIRE#
              7079    1   SBIN INIT(0),2 KEYX# UBIN(18)UNAL INIT(0),2 KEYL# UBIN(9)UNAL INIT(0),2 ACS# UBIN(9)
              7079            UNAL INIT(1),2 XTNSIZE# UBIN(18)
PL6.E3A0      #001=Z9A8$DCBS File=Z9A8.:Z8A6TSI                                  SAT 08/09/97 13:36 Page:22
              7080    1   UNAL INIT(2),2 LSLIDE# UBIN(9)UNAL INIT(510),2 LRDL0# UBIN(9)UNAL INIT(3),2 SPARE#
              7080            UBIN(9)UNAL INIT(1),2 WSR# UBIN
              7081    1   (9)UNAL INIT(0),2 ATTR# BIT(18) INIT('0'B)/* '0'B */,2 ATTR REDEF ATTR#,3 DENS# BIT(
              7081            9),3
              7082    1   GRLGL# BIT(1),3 TRANSLGL# BIT(1),3 NOXLATE# BIT(1),3 UPPERCASE# BIT(1),3 NATL# BIT(1
              7082            ),3 TRUOVRPRT# BIT(1),3 APL# BIT(1),3 BIN# BIT
              7083    1   (1),3 LOWERCASE# BIT(1),2 TDFLG REDEF ATTR#/*'0'B */,3 SDSK# BIT(1),3 * BIT(17),2
              7083            IXTNSIZE# SBIN WORD INIT
              7084    1   (2),2 CONNCT# REDEF IXTNSIZE# SBIN,2 NRECS# SBIN INIT(0),2 CHANTIME# REDEF NRECS#
              7084            SBIN,2 VOL# UBIN(9)UNAL INIT(0),2
              7085    1   MAXVOL# UBIN(9)UNAL INIT(0),2 CHAIN# UBIN(9)UNAL INIT(0),2 DENSITY# UBIN(9)UNAL INIT
              7085            (0),2 LINES# UBIN(18)UNAL INIT
              7086    1   (0),2 DVFC# CHAR(1)INIT(BINASC(0)),2 SEQ# BIT(1)INIT('0'B),2 SEQCOL# UBIN(8)UNAL
              7086            INIT(73),2 SEQID# CHAR(4)INIT(' '),2 HEADER$
              7087    1   PTR INIT(ADDR(NIL)),2 DQH$ REDEF HEADER$ PTR,2 TAB$ PTR INIT(ADDR(NIL)),2 DCT$ REDEF
              7087            TAB$ PTR,2 FORM$ PTR INIT(ADDR(NIL)),2 MPC$
              7088    1   REDEF FORM$ PTR,2 LDCTX UBIN(18)UNAL INIT(0),2 SETX UBIN(18)UNAL INIT(0),2 DEVADR
              7088            REDEF SETX,3 DVN# UBIN(6)UNAL,3 IOM# UBIN(3)UNAL,3
              7089    1   CHAN# UBIN(9)CALIGNED,2 * BIT(9)CALIGNED INIT('0'B),2 JRNLBYPASS# BIT(1)INIT('0'B),2
              7089            * BIT(4)INIT('0'B),2 GHSTACS# UBIN(4)INIT
              7090    1   (0)UNAL,2 ALTKEYX UBIN(18)UNAL INIT(0),2 CODE16$ PTR INIT(ADDR(NIL)),2 FPRGX UBIN
              7090            HALF HALIGNED INIT(0),2 FIELDX UBIN HALF
              7091    1   HALIGNED INIT(0),2 EVENT SBIN INIT(0),2 VFCCHAR# CHAR(1)CALIGNED INIT(BINASC(0)),2
              7091            KEYTYPE# UBIN(9)CALIGNED INIT(0),2 KFIELDX
              7092    1   UBIN(18)HALIGNED INIT(0),2 STARTX UBIN(18)HALIGNED INIT(0),2 ACTPOS UBIN(18)HALIGNED
              7092            INIT(0),2 AUTHFFLG REDEF ACTPOS,3 READ# BIT(1),
              7093    1   3 DELR# BIT(1),3 WNEW# BIT(1),3 UPD# BIT(1),3 DELF# BIT(1),3 NOLIST# BIT(1),3
              7093            REATTR# BIT(1),3 EXEC# BIT(1),3 CREATE# BIT(1),3 AU#
              7094    1   BIT(1),3 AURD# BIT(1),3 TCTL# BIT(1),3 * BIT(6),2 DCB# UBIN(9)CALIGNED INIT(0),2 *
              7094            BIT(14)INIT('0'B),2 ANSISPANSEQ# BIT(1)INIT
              7095    1   ('1'B),2 PATH,3 IOM# UBIN(3)UNAL INIT(0),3 CHAN# UBIN(9)UNAL INIT(0),2 IRRECX UBIN(
              7095            18)HALIGNED INIT(0),2 FLDID UBIN(18)
              7096    1   HALIGNED INIT(0),2 BADARS# REDEF FLDID UBIN(18)HALIGNED,2 SEED# BIT(36)INIT('0'B),2
              7096            * UBIN INIT(0),2 FEXT BIT(1)INIT('0'B),2 STARF
              7097    1   BIT(1)INIT('0'B),2 SHARED BIT(1)INIT('0'B),2 FMOD BIT(1)INIT('0'B),2 GTYP UBIN(3)
              7097            UNAL INIT(0),2 EOP UBIN(2)UNAL INIT(0),2 AMFLG,3
              7098    1   ACCF BIT(1)INIT('0'B),3 ACSF BIT(1)INIT('0'B),3 INSF BIT(1)INIT('0'B),3 USRF BIT(1)
PL6.E3A0      #001=Z9A8$DCBS File=Z9A8.:Z8A6TSI                                  SAT 08/09/97 13:36 Page:23
              7098            INIT('0'B),3 SNLF BIT(1)INIT('0'B),3 PROF BIT(1)
              7099    1   INIT('0'B),2 SEZ_OK BIT(1)INIT('0'B),2 MUST_CVOL BIT(1)INIT('0'B),2 NEW_FSECT BIT(1)
              7099            INIT('0'B),2 NOEOF BIT(1)INIT('0'B),2 MOUNT
              7100    1   REDEF NOEOF BIT(1),2 OHDR BIT(1)INIT('0'B),2 LDFLG REDEF OHDR BIT(1),2 SPAN BIT(1)
              7100            INIT('0'B),2 OWNER BIT(1)INIT('0'B),2 RA BIT(1)
              7101    1   INIT('0'B),2 RPOS BIT(1)INIT('0'B),2 STARX UBIN(3)UNAL INIT(0),2 CACHE BIT(1)INIT(
              7101            '0'B),2 ENQF BIT(1)INIT('0'B),2 GRPOS BIT(1)INIT
              7102    1   ('0'B),2 CONT BIT(1)INIT('0'B),2 WAIT UBIN(1)UNAL INIT(1),2 TRNC UBIN(2)UNAL INIT(0)
              7102            ,2 AFTRBLK BIT(1)INIT('0'B),2 LSTBLK BIT(1)INIT
              7103    1   ('0'B),2 BORROW SBIN INIT(0),2 LASTKEY$ REDEF BORROW PTR,2 LASTKEY REDEF BORROW SBIN
              7103            ,2 FTAM REDEF BORROW,3 CTX UBIN HALF UNAL,3 USR
              7104    1   UBIN BYTE UNAL,3 PMME UBIN(9)UNAL,2 CFU$ PTR INIT(ADDR(NIL)),2 TDALVL UBIN(3)UNAL
              7104            INIT(0),2 LVL UBIN(3)UNAL INIT(0),2 LPOOL REDEF
              7105    1   LVL UBIN(3)UNAL,2 WRCMP BIT(1)INIT('0'B),2 WCDATA BIT(1)INIT('0'B),2 UCOUT BIT(1)
              7105            INIT('0'B),2 TAPTYP,3 RWASC BIT(1)INIT('0'B),3 CP6F
              7106    1   BIT(1)INIT('0'B),3 USRBUF BIT(1)INIT('0'B),3 HAVLASTKEY BIT(1)INIT('0'B),3 NOCVOL
              7106            BIT(1)INIT('0'B),3 MANAGED BIT(1)INIT('0'B),3
              7107    1   PASTFM BIT(1)INIT('0'B),3 * BIT(2)INIT('0'B),2 CRECX UBIN(18)UNAL INIT(0),2 CBUFNUM
              7107            UBIN(3)UNAL INIT(0),2 IORG UBIN(6)UNAL INIT(0),2
              7108    1   TDA UBIN(27)UNAL INIT(0),2 BYTESLEFT REDEF TDA UBIN(27)UNAL,2 CRECNO SBIN INIT(0),2
              7108            PRECNO SBIN INIT(0),2 CSEED REDEF PRECNO SBIN,2
              7109    1   HASH UBIN(27)UNAL INIT(0),2 FDCM UBIN(9)UNAL INIT(0),2 FCN(0:1),3 F BIT(1)INIT('0'B,
              7109            '0'B),3 CNT UBIN(8)UNAL INIT(0,0),2 BLKLEN UBIN
              7110    1   (18)UNAL INIT(0),2 UB$ PTR INIT(ADDR(NIL)),2 UBYTES UBIN INIT(0),2 FSECT UBIN(18)
              7110            UNAL INIT(0),2 INDX REDEF FSECT UBIN(18)UNAL,2
              7111    1   FPSTR UBIN(9)UNAL INIT(0),2 STR# UBIN(9)UNAL INIT(0),2 NRECX UBIN(18)UNAL INIT(0),2
              7111            MODCNT REDEF NRECX UBIN(18)UNAL,2 SEGX UBIN(18)
              7112    1   UNAL INIT(0),2 GDISP UBIN INIT(0),2 LOGSEC BIT(1)INIT('0'B),2 PRIVOPN BIT(1)INIT(
              7112            '0'B),2 OLDIOERR UBIN(2)UNAL INIT(0),2 * BIT(21)
              7113    1   INIT('0'B),2 REALSPAN BIT(1),2 DECRYPT BIT(1)INIT('0'B),2 PGINGRAN UBIN BYTE UNAL
              7113            INIT(0),2 IFMT UBIN(9)UNAL INIT(0),2 MEDIA UBIN(9)
              7114    1   UNAL INIT(0),2 IWL,3 TABIWL BIT(1)INIT('0'B),3 SEQIWL BIT(1)INIT('0'B),3 HDRIWL BIT(
              7114            1)INIT('0'B),3 * BIT(3)INIT('0'B),2 CTLCMDIN BIT
              7115    1   (1)INIT('0'B),2 UNIQUEBLD BIT(1)INIT('0'B),2 UPDCNT BIT(1)INIT('0'B),2 IASN UBIN(9)
              7115            UNAL INIT(0),2 MOVED SBIN(18)HALIGNED,2 * UBIN(9)
              7116    1   CALIGNED,2 CX UBIN(9)CALIGNED,2 CWORD CHAR(4)ALIGNED,2 RCSZ UBIN INIT(0),2 FEPSIZ
              7116            REDEF RCSZ,3 BUF UBIN HALF UNAL,3 KEY UBIN HALF
PL6.E3A0      #001=Z9A8$DCBS File=Z9A8.:Z8A6TSI                                  SAT 08/09/97 13:36 Page:24
              7117    1   UNAL,2 ID ALIGNED,3 GX UBIN(10)UNAL,3 DA UBIN(26)UNAL,2 FEPIO,3 EVENT UBIN INIT(0),3
              7117            KEYX/* 0 */ UBIN
              7118    1   HALF HALIGNED INIT(0),3 BUFX UBIN HALF HALIGNED INIT(0),3 BPP(0:1)BIT(18)INIT('0'B*0
              7118            ),3 KPP(0:1)BIT(18)INIT('0'B*0),2 AGE SBIN INIT
              7119    1   (0),2 BFR(0:4),3 BUFUP BIT(1)INIT('0'B*0),3 SCRUB BIT(1)INIT('0'B*0),3 CHNG BIT(1)
              7119            INIT('0'B*0),3 CVM BIT(1)INIT('0'B*0),3 BUFX UBIN
              7120    1   (5)UNAL INIT(0*0),3 DA UBIN(27)UNAL INIT(0*0),2 BFR1(0:4)ALIGNED,3 FLAGS,4
              7120            ONE_WORD_HEADER BIT(1)INIT('0'B*0),4 * BIT(8)INIT
              7121    1   ('0'B*0),3 SIZ UBIN(9)UNAL INIT(0*0),3 CX UBIN(18)UNAL INIT(0*0),2 FEPIO2(0:3)UBIN
              7121            ALIGNED,2 FEPIO3(0:3)UBIN ALIGNED,2 * SBIN INIT
              7122    1   (29127),2 DCBNAME DALIGNED,3 X UBIN(3)UNAL,3 S BIT(1),3 L UBIN(5)UNAL,3 N CHAR(M$ES.
              7122            DCBNAME.L);
       97     7124        %PAGE(ARG=M$LO);
              7125        %LSET LISTDIR='0'B;

              7137    1   /*******************************************************************************
              7138    1   *                                                                              *
              7139    1   *        M$LO              M$LO                                                  *
              7140    1   *                                                                              *
              7141    1   *******************************************************************************/

       98     7145        /*
       99     7146           Listing output file
      100     7147           */
      101     7148        %M$DCB (DCBN=M$LO,
      102     7149        ASN=DEVICE,
      103     7150        RES='LO',
      104     7151        FUN=CREATE,
      105     7152        XTNSIZE=2,
      106     7153        IXTNSIZE=2);
              7154    1   DCL 1 M$LO DCB,2 ARS# SBIN INIT(0),2 FLPW# REDEF ARS# BIT(36),2 * UBIN INIT(0),2 TYC
              7154            ,3 EGV# BIT(1)INIT('0'B*0),3 OPER# BIT(1)
              7155    1   INIT('0'B*0),3 EOT# BIT(1)INIT('0'B*0),3 BOT# BIT(1)INIT('0'B*0),3 BOF# BIT(1)INIT(
              7155            '0'B*0),3 BLNKTP# BIT(1)INIT('0'B*0),3 EOF# BIT
              7156    1   (1)INIT('0'B*0),3 LD# BIT(1)INIT('0'B*0),3 IOERR# BIT(1)INIT('0'B*0),3 DI# BIT(1)
              7156            INIT('0'B*0),3 EOD# BIT(1)INIT('0'B*0),3 MTRAP# BIT
              7157    1   (1)INIT('0'B*0),3 LDISC# BIT(1)INIT('0'B*0),3 DACT# BIT(1)INIT('0'B*0),3 TIMO# BIT(1
PL6.E3A0      #001=Z9A8$DCBS File=Z9A8.:Z8A6TSI                                  SAT 08/09/97 13:36 Page:25
              7157            )INIT('0'B*0),3 PROT# BIT(1)INIT('0'B*0),3 FRAW#
              7158    1   BIT(1)INIT('0'B*0),3 LAST# BIT(1)INIT('0'B*0),3 CDALRT# BIT(1)INIT('0'B*0),3 XTRARD
              7158            BIT(1)INIT('0'B*0),3 CGKEYV BIT(1)INIT('0'B*0),3
              7159    1   CGLWRV BIT(1)INIT('0'B*0),3 CGFULL BIT(1)INIT('0'B*0),3 CGCRCW BIT(1)INIT('0'B*0),3
              7159            CGCWRV BIT(1)INIT('0'B*0),3 * BIT(11)INIT
              7160    1   ('0'B*0),2 DVBYTE,3 TOP# BIT(1)INIT('0'B),3 * BIT(1)INIT('0'B),3 VFC# BIT(1)INIT(
              7160            '0'B),3 BIN# BIT(1)INIT('0'B),3 TRANS# BIT(1)INIT
              7161    1   ('0'B),3 * BIT(3)INIT('0'B),2 BUPF BIT(1)INIT('0'B),2 RDL0# UBIN(9)UNAL INIT(0),2
              7161            SLIDE# UBIN(9)UNAL INIT(0),2 EOMCHAR# CHAR(1)INIT
              7162    1   (BITASC('501'O)),2 EOMVAL# REDEF EOMCHAR# UNAL,3 VFLG# BIT(1),3 VALUE# UBIN(8)UNAL,2
              7162            FFLG,3 READ# BIT(1)INIT('0'B),3 DELR# BIT(1)
              7163    1   INIT('0'B),3 WNEW# BIT(1)INIT('0'B),3 UPD# BIT(1)INIT('0'B),3 DELF# BIT(1)INIT('0'B)
              7163            ,3 NOLIST# BIT(1)INIT('0'B),3 REATTR# BIT(1)INIT
              7164    1   ('0'B),3 EXEC# BIT(1)INIT('0'B),3 CREATE# BIT(1)INIT('0'B),3 AU# BIT(1)INIT('0'B),3
              7164            AURD# BIT(1)INIT('0'B),3 TCTL# BIT(1)INIT('0'B),
              7165    1   3 * BIT(6)INIT('0'B),2 DDEV,3 LP# BIT(1)INIT('0'B),3 CP# BIT(1)INIT('0'B),3 IC# BIT(
              7165            1)INIT('0'B),3 XEQ# BIT(1)INIT('0'B),3 UCOUT#
              7166    1   BIT(1)INIT('0'B),3 GR# BIT(1)INIT('0'B),3 * BIT(3)INIT('0'B),2 WIDTH# UBIN(9)UNAL
              7166            INIT(0),2 RETRYCNT# UBIN(18)HALIGNED INIT(0),2
              7167    1   DESC,3 DELF# BIT(1)INIT('0'B),3 NOLIST# BIT(1)INIT('0'B),3 BUF# BIT(1)INIT('0'B),3
              7167            ODSTOW# BIT(1)INIT('0'B),3 BAD# BIT(1)INIT('0'B),
              7168    1   3 QS# BIT(1)INIT('0'B),3 * BIT(2)INIT('0'B),3 ARCHIVE# BIT(1)INIT('0'B),3 BUPM# BIT(
              7168            1)INIT('0'B),3 NBUF# BIT(1)INIT('0'B),3 ACTIVE#
              7169    1   BIT(1)INIT('0'B),3 TPB# BIT(1)INIT('0'B),3 TERMINATE# BIT(1)INIT('0'B),3 FETCH# BIT(
              7169            1)INIT('0'B),3 * BIT(3)INIT('0'B),2 SETSTA$ PTR
              7170    1   INIT(ADDR(NIL)),2 LASTSTA$ PTR INIT(ADDR(NIL)),2 TDEXTST$ REDEF LASTSTA$ PTR,2 NAME#
              7170            ,3 L UBIN(9)UNAL INIT(SIZEC(' ')),3 C CHAR(31)
              7171    1   INIT(' '),3 C17 REDEF C UNAL,4 CC CHAR(17),4 * CHAR(14),2 ACCT# CHAR(8)INIT(' '),2
              7171            PASS# CHAR(8)INIT(' '),2 PSN# CHAR(6)INIT
              7172    1   (' '),2 TYPE# CHAR(2)INIT(' '),2 RES# CHAR(4)INIT('LO'),2 RESNT REDEF RES# UNAL,3
              7172            TYP CHAR(2),3 NUM CHAR(2),2 WSN# CHAR(8)ALIGNED
              7173    1   INIT(' '),2 TDSTAT# REDEF WSN# BIT(72),2 IGNOREFSN# BIT(1)INIT('0'B),2 AU# BIT(1)
              7173            INIT('0'B),2 QISS# BIT(1)INIT('0'B),2 LOAD# BIT
              7174    1   (1)INIT('0'B),2 IOERROK# BIT(1)INIT('0'B),2 AMRSETSTA BIT(1)INIT('0'B),2 LSTAOR# BIT
              7174            (1)INIT('0'B),2 VOLACCESS# UBIN(2)UNAL INIT
              7175    1   (0),2 UOPT#(0:8)BIT(1)INIT('0'B,'0'B,'0'B,'0'B,'0'B,'0'B,'0'B,'0'B,'0'B),2 PASSF#
              7175            BIT(1)INIT('0'B),2 CNVRT# BIT(1)
PL6.E3A0      #001=Z9A8$DCBS File=Z9A8.:Z8A6TSI                                  SAT 08/09/97 13:36 Page:26
              7176    1   INIT('1'B),2 EBCDIC# BIT(1)INIT('0'B),2 FCI# BIT(1)INIT('0'B),2 FCD# BIT(1)INIT('0'B
              7176            ),2 AMR# BIT(1)INIT('0'B),2 CTG# BIT(1)INIT
              7177    1   ('0'B),2 EXIST# UBIN(2)UNAL INIT(3),2 SHARE# UBIN(2)UNAL INIT(0),2 COMP# BIT(1)INIT(
              7177            '0'B),2 XTEND# BIT(1)INIT('0'B),2 CVOL#
              7178    1   BIT(1)INIT('0'B),2 BLOCKED# BIT(1)INIT('1'B),2 SPANNED# BIT(1)INIT('1'B),2 BUPM# BIT
              7178            (2)INIT('01'B),2 ORG# UBIN(9)UNAL INIT
              7179    1   (0),2 DVTYPE# REDEF ORG# UBIN(9)UNAL,2 FUN# UBIN(9)UNAL INIT(3),2 ASN# UBIN(9)UNAL
              7179            INIT(3),2 DISP# UBIN(9)UNAL INIT(0),2
              7180    1   BLKL# UBIN(18)UNAL INIT(0),2 RECL# UBIN(18)UNAL INIT(0),2 FSN# UBIN(18)UNAL INIT(0),
              7180            2 DBGDCBNO# REDEF FSN# UBIN(18)UNAL,2
              7181    1   DBGSYSID# REDEF FSN# UBIN(18)UNAL,2 SYSID# REDEF FSN# UBIN(18)UNAL,2 FEXTX UBIN(9)
              7181            UNAL INIT(0),2 BOL# UBIN(9)UNAL INIT(0),2 EXPIRE#
              7182    1   SBIN INIT(0),2 KEYX# UBIN(18)UNAL INIT(0),2 KEYL# UBIN(9)UNAL INIT(0),2 ACS# UBIN(9)
              7182            UNAL INIT(0),2 XTNSIZE# UBIN(18)
              7183    1   UNAL INIT(2),2 LSLIDE# UBIN(9)UNAL INIT(510),2 LRDL0# UBIN(9)UNAL INIT(3),2 SPARE#
              7183            UBIN(9)UNAL INIT(1),2 WSR# UBIN
              7184    1   (9)UNAL INIT(0),2 ATTR# BIT(18) INIT('0'B)/* '0'B */,2 ATTR REDEF ATTR#,3 DENS# BIT(
              7184            9),3
              7185    1   GRLGL# BIT(1),3 TRANSLGL# BIT(1),3 NOXLATE# BIT(1),3 UPPERCASE# BIT(1),3 NATL# BIT(1
              7185            ),3 TRUOVRPRT# BIT(1),3 APL# BIT(1),3 BIN# BIT
              7186    1   (1),3 LOWERCASE# BIT(1),2 TDFLG REDEF ATTR#/*'0'B */,3 SDSK# BIT(1),3 * BIT(17),2
              7186            IXTNSIZE# SBIN WORD INIT
              7187    1   (2),2 CONNCT# REDEF IXTNSIZE# SBIN,2 NRECS# SBIN INIT(0),2 CHANTIME# REDEF NRECS#
              7187            SBIN,2 VOL# UBIN(9)UNAL INIT(0),2
              7188    1   MAXVOL# UBIN(9)UNAL INIT(0),2 CHAIN# UBIN(9)UNAL INIT(0),2 DENSITY# UBIN(9)UNAL INIT
              7188            (0),2 LINES# UBIN(18)UNAL INIT
              7189    1   (0),2 DVFC# CHAR(1)INIT(BINASC(0)),2 SEQ# BIT(1)INIT('0'B),2 SEQCOL# UBIN(8)UNAL
              7189            INIT(73),2 SEQID# CHAR(4)INIT(' '),2 HEADER$
              7190    1   PTR INIT(ADDR(NIL)),2 DQH$ REDEF HEADER$ PTR,2 TAB$ PTR INIT(ADDR(NIL)),2 DCT$ REDEF
              7190            TAB$ PTR,2 FORM$ PTR INIT(ADDR(NIL)),2 MPC$
              7191    1   REDEF FORM$ PTR,2 LDCTX UBIN(18)UNAL INIT(0),2 SETX UBIN(18)UNAL INIT(0),2 DEVADR
              7191            REDEF SETX,3 DVN# UBIN(6)UNAL,3 IOM# UBIN(3)UNAL,3
              7192    1   CHAN# UBIN(9)CALIGNED,2 * BIT(9)CALIGNED INIT('0'B),2 JRNLBYPASS# BIT(1)INIT('0'B),2
              7192            * BIT(4)INIT('0'B),2 GHSTACS# UBIN(4)INIT
              7193    1   (0)UNAL,2 ALTKEYX UBIN(18)UNAL INIT(0),2 CODE16$ PTR INIT(ADDR(NIL)),2 FPRGX UBIN
              7193            HALF HALIGNED INIT(0),2 FIELDX UBIN HALF
              7194    1   HALIGNED INIT(0),2 EVENT SBIN INIT(0),2 VFCCHAR# CHAR(1)CALIGNED INIT(BINASC(0)),2
PL6.E3A0      #001=Z9A8$DCBS File=Z9A8.:Z8A6TSI                                  SAT 08/09/97 13:36 Page:27
              7194            KEYTYPE# UBIN(9)CALIGNED INIT(0),2 KFIELDX
              7195    1   UBIN(18)HALIGNED INIT(0),2 STARTX UBIN(18)HALIGNED INIT(0),2 ACTPOS UBIN(18)HALIGNED
              7195            INIT(0),2 AUTHFFLG REDEF ACTPOS,3 READ# BIT(1),
              7196    1   3 DELR# BIT(1),3 WNEW# BIT(1),3 UPD# BIT(1),3 DELF# BIT(1),3 NOLIST# BIT(1),3
              7196            REATTR# BIT(1),3 EXEC# BIT(1),3 CREATE# BIT(1),3 AU#
              7197    1   BIT(1),3 AURD# BIT(1),3 TCTL# BIT(1),3 * BIT(6),2 DCB# UBIN(9)CALIGNED INIT(0),2 *
              7197            BIT(14)INIT('0'B),2 ANSISPANSEQ# BIT(1)INIT
              7198    1   ('1'B),2 PATH,3 IOM# UBIN(3)UNAL INIT(0),3 CHAN# UBIN(9)UNAL INIT(0),2 IRRECX UBIN(
              7198            18)HALIGNED INIT(0),2 FLDID UBIN(18)
              7199    1   HALIGNED INIT(0),2 BADARS# REDEF FLDID UBIN(18)HALIGNED,2 SEED# BIT(36)INIT('0'B),2
              7199            * UBIN INIT(0),2 FEXT BIT(1)INIT('0'B),2 STARF
              7200    1   BIT(1)INIT('0'B),2 SHARED BIT(1)INIT('0'B),2 FMOD BIT(1)INIT('0'B),2 GTYP UBIN(3)
              7200            UNAL INIT(0),2 EOP UBIN(2)UNAL INIT(0),2 AMFLG,3
              7201    1   ACCF BIT(1)INIT('0'B),3 ACSF BIT(1)INIT('0'B),3 INSF BIT(1)INIT('0'B),3 USRF BIT(1)
              7201            INIT('0'B),3 SNLF BIT(1)INIT('0'B),3 PROF BIT(1)
              7202    1   INIT('0'B),2 SEZ_OK BIT(1)INIT('0'B),2 MUST_CVOL BIT(1)INIT('0'B),2 NEW_FSECT BIT(1)
              7202            INIT('0'B),2 NOEOF BIT(1)INIT('0'B),2 MOUNT
              7203    1   REDEF NOEOF BIT(1),2 OHDR BIT(1)INIT('0'B),2 LDFLG REDEF OHDR BIT(1),2 SPAN BIT(1)
              7203            INIT('0'B),2 OWNER BIT(1)INIT('0'B),2 RA BIT(1)
              7204    1   INIT('0'B),2 RPOS BIT(1)INIT('0'B),2 STARX UBIN(3)UNAL INIT(0),2 CACHE BIT(1)INIT(
              7204            '0'B),2 ENQF BIT(1)INIT('0'B),2 GRPOS BIT(1)INIT
              7205    1   ('0'B),2 CONT BIT(1)INIT('0'B),2 WAIT UBIN(1)UNAL INIT(1),2 TRNC UBIN(2)UNAL INIT(0)
              7205            ,2 AFTRBLK BIT(1)INIT('0'B),2 LSTBLK BIT(1)INIT
              7206    1   ('0'B),2 BORROW SBIN INIT(0),2 LASTKEY$ REDEF BORROW PTR,2 LASTKEY REDEF BORROW SBIN
              7206            ,2 FTAM REDEF BORROW,3 CTX UBIN HALF UNAL,3 USR
              7207    1   UBIN BYTE UNAL,3 PMME UBIN(9)UNAL,2 CFU$ PTR INIT(ADDR(NIL)),2 TDALVL UBIN(3)UNAL
              7207            INIT(0),2 LVL UBIN(3)UNAL INIT(0),2 LPOOL REDEF
              7208    1   LVL UBIN(3)UNAL,2 WRCMP BIT(1)INIT('0'B),2 WCDATA BIT(1)INIT('0'B),2 UCOUT BIT(1)
              7208            INIT('0'B),2 TAPTYP,3 RWASC BIT(1)INIT('0'B),3 CP6F
              7209    1   BIT(1)INIT('0'B),3 USRBUF BIT(1)INIT('0'B),3 HAVLASTKEY BIT(1)INIT('0'B),3 NOCVOL
              7209            BIT(1)INIT('0'B),3 MANAGED BIT(1)INIT('0'B),3
              7210    1   PASTFM BIT(1)INIT('0'B),3 * BIT(2)INIT('0'B),2 CRECX UBIN(18)UNAL INIT(0),2 CBUFNUM
              7210            UBIN(3)UNAL INIT(0),2 IORG UBIN(6)UNAL INIT(0),2
              7211    1   TDA UBIN(27)UNAL INIT(0),2 BYTESLEFT REDEF TDA UBIN(27)UNAL,2 CRECNO SBIN INIT(0),2
              7211            PRECNO SBIN INIT(0),2 CSEED REDEF PRECNO SBIN,2
              7212    1   HASH UBIN(27)UNAL INIT(0),2 FDCM UBIN(9)UNAL INIT(0),2 FCN(0:1),3 F BIT(1)INIT('0'B,
              7212            '0'B),3 CNT UBIN(8)UNAL INIT(0,0),2 BLKLEN UBIN
PL6.E3A0      #001=Z9A8$DCBS File=Z9A8.:Z8A6TSI                                  SAT 08/09/97 13:36 Page:28
              7213    1   (18)UNAL INIT(0),2 UB$ PTR INIT(ADDR(NIL)),2 UBYTES UBIN INIT(0),2 FSECT UBIN(18)
              7213            UNAL INIT(0),2 INDX REDEF FSECT UBIN(18)UNAL,2
              7214    1   FPSTR UBIN(9)UNAL INIT(0),2 STR# UBIN(9)UNAL INIT(0),2 NRECX UBIN(18)UNAL INIT(0),2
              7214            MODCNT REDEF NRECX UBIN(18)UNAL,2 SEGX UBIN(18)
              7215    1   UNAL INIT(0),2 GDISP UBIN INIT(0),2 LOGSEC BIT(1)INIT('0'B),2 PRIVOPN BIT(1)INIT(
              7215            '0'B),2 OLDIOERR UBIN(2)UNAL INIT(0),2 * BIT(21)
              7216    1   INIT('0'B),2 REALSPAN BIT(1),2 DECRYPT BIT(1)INIT('0'B),2 PGINGRAN UBIN BYTE UNAL
              7216            INIT(0),2 IFMT UBIN(9)UNAL INIT(0),2 MEDIA UBIN(9)
              7217    1   UNAL INIT(0),2 IWL,3 TABIWL BIT(1)INIT('0'B),3 SEQIWL BIT(1)INIT('0'B),3 HDRIWL BIT(
              7217            1)INIT('0'B),3 * BIT(3)INIT('0'B),2 CTLCMDIN BIT
              7218    1   (1)INIT('0'B),2 UNIQUEBLD BIT(1)INIT('0'B),2 UPDCNT BIT(1)INIT('0'B),2 IASN UBIN(9)
              7218            UNAL INIT(0),2 MOVED SBIN(18)HALIGNED,2 * UBIN(9)
              7219    1   CALIGNED,2 CX UBIN(9)CALIGNED,2 CWORD CHAR(4)ALIGNED,2 RCSZ UBIN INIT(0),2 FEPSIZ
              7219            REDEF RCSZ,3 BUF UBIN HALF UNAL,3 KEY UBIN HALF
              7220    1   UNAL,2 ID ALIGNED,3 GX UBIN(10)UNAL,3 DA UBIN(26)UNAL,2 FEPIO,3 EVENT UBIN INIT(0),3
              7220            KEYX/* 0 */ UBIN
              7221    1   HALF HALIGNED INIT(0),3 BUFX UBIN HALF HALIGNED INIT(0),3 BPP(0:1)BIT(18)INIT('0'B*0
              7221            ),3 KPP(0:1)BIT(18)INIT('0'B*0),2 AGE SBIN INIT
              7222    1   (0),2 BFR(0:4),3 BUFUP BIT(1)INIT('0'B*0),3 SCRUB BIT(1)INIT('0'B*0),3 CHNG BIT(1)
              7222            INIT('0'B*0),3 CVM BIT(1)INIT('0'B*0),3 BUFX UBIN
              7223    1   (5)UNAL INIT(0*0),3 DA UBIN(27)UNAL INIT(0*0),2 BFR1(0:4)ALIGNED,3 FLAGS,4
              7223            ONE_WORD_HEADER BIT(1)INIT('0'B*0),4 * BIT(8)INIT
              7224    1   ('0'B*0),3 SIZ UBIN(9)UNAL INIT(0*0),3 CX UBIN(18)UNAL INIT(0*0),2 FEPIO2(0:3)UBIN
              7224            ALIGNED,2 FEPIO3(0:3)UBIN ALIGNED,2 * SBIN INIT
              7225    1   (29127),2 DCBNAME DALIGNED,3 X UBIN(3)UNAL,3 S BIT(1),3 L UBIN(5)UNAL,3 N CHAR(M$LO.
              7225            DCBNAME.L);
      107     7227        %PAGE(ARG=M$OBJFILE);
              7228        %LSET LISTDIR='0'B;

              7240    1   /*******************************************************************************
              7241    1   *                                                                              *
              7242    1   *        M$OBJFILE              M$OBJFILE                                          *
              7243    1   *                                                                              *
              7244    1   *******************************************************************************/

      108     7248        /*
      109     7249           Object table file
PL6.E3A0      #001=Z9A8$DCBS File=Z9A8.:Z8A6TSI                                  SAT 08/09/97 13:36 Page:29
      110     7250           */
      111     7251        %M$DCB (DCBN=M$OBJFILE,
      112     7252        DISP=NAMED,
      113     7253        NAME='*1',
      114     7254        ASN=FILE,
      115     7255        ORG=CONSEC,
      116     7256        FUN=CREATE,
      117     7257        ACS=SEQUEN);
              7258    1   DCL 1 M$OBJFILE DCB,2 ARS# SBIN INIT(0),2 FLPW# REDEF ARS# BIT(36),2 * UBIN INIT(0),
              7258            2 TYC,3 EGV# BIT(1)INIT('0'B*0),3 OPER# BIT(1)
              7259    1   INIT('0'B*0),3 EOT# BIT(1)INIT('0'B*0),3 BOT# BIT(1)INIT('0'B*0),3 BOF# BIT(1)INIT(
              7259            '0'B*0),3 BLNKTP# BIT(1)INIT('0'B*0),3 EOF# BIT
              7260    1   (1)INIT('0'B*0),3 LD# BIT(1)INIT('0'B*0),3 IOERR# BIT(1)INIT('0'B*0),3 DI# BIT(1)
              7260            INIT('0'B*0),3 EOD# BIT(1)INIT('0'B*0),3 MTRAP# BIT
              7261    1   (1)INIT('0'B*0),3 LDISC# BIT(1)INIT('0'B*0),3 DACT# BIT(1)INIT('0'B*0),3 TIMO# BIT(1
              7261            )INIT('0'B*0),3 PROT# BIT(1)INIT('0'B*0),3 FRAW#
              7262    1   BIT(1)INIT('0'B*0),3 LAST# BIT(1)INIT('0'B*0),3 CDALRT# BIT(1)INIT('0'B*0),3 XTRARD
              7262            BIT(1)INIT('0'B*0),3 CGKEYV BIT(1)INIT('0'B*0),3
              7263    1   CGLWRV BIT(1)INIT('0'B*0),3 CGFULL BIT(1)INIT('0'B*0),3 CGCRCW BIT(1)INIT('0'B*0),3
              7263            CGCWRV BIT(1)INIT('0'B*0),3 * BIT(11)INIT
              7264    1   ('0'B*0),2 DVBYTE,3 TOP# BIT(1)INIT('0'B),3 * BIT(1)INIT('0'B),3 VFC# BIT(1)INIT(
              7264            '0'B),3 BIN# BIT(1)INIT('0'B),3 TRANS# BIT(1)INIT
              7265    1   ('0'B),3 * BIT(3)INIT('0'B),2 BUPF BIT(1)INIT('0'B),2 RDL0# UBIN(9)UNAL INIT(0),2
              7265            SLIDE# UBIN(9)UNAL INIT(0),2 EOMCHAR# CHAR(1)INIT
              7266    1   (BITASC('501'O)),2 EOMVAL# REDEF EOMCHAR# UNAL,3 VFLG# BIT(1),3 VALUE# UBIN(8)UNAL,2
              7266            FFLG,3 READ# BIT(1)INIT('0'B),3 DELR# BIT(1)
              7267    1   INIT('0'B),3 WNEW# BIT(1)INIT('0'B),3 UPD# BIT(1)INIT('0'B),3 DELF# BIT(1)INIT('0'B)
              7267            ,3 NOLIST# BIT(1)INIT('0'B),3 REATTR# BIT(1)INIT
              7268    1   ('0'B),3 EXEC# BIT(1)INIT('0'B),3 CREATE# BIT(1)INIT('0'B),3 AU# BIT(1)INIT('0'B),3
              7268            AURD# BIT(1)INIT('0'B),3 TCTL# BIT(1)INIT('0'B),
              7269    1   3 * BIT(6)INIT('0'B),2 DDEV,3 LP# BIT(1)INIT('0'B),3 CP# BIT(1)INIT('0'B),3 IC# BIT(
              7269            1)INIT('0'B),3 XEQ# BIT(1)INIT('0'B),3 UCOUT#
              7270    1   BIT(1)INIT('0'B),3 GR# BIT(1)INIT('0'B),3 * BIT(3)INIT('0'B),2 WIDTH# UBIN(9)UNAL
              7270            INIT(0),2 RETRYCNT# UBIN(18)HALIGNED INIT(0),2
              7271    1   DESC,3 DELF# BIT(1)INIT('0'B),3 NOLIST# BIT(1)INIT('0'B),3 BUF# BIT(1)INIT('0'B),3
              7271            ODSTOW# BIT(1)INIT('0'B),3 BAD# BIT(1)INIT('0'B),
              7272    1   3 QS# BIT(1)INIT('0'B),3 * BIT(2)INIT('0'B),3 ARCHIVE# BIT(1)INIT('0'B),3 BUPM# BIT(
PL6.E3A0      #001=Z9A8$DCBS File=Z9A8.:Z8A6TSI                                  SAT 08/09/97 13:36 Page:30
              7272            1)INIT('0'B),3 NBUF# BIT(1)INIT('0'B),3 ACTIVE#
              7273    1   BIT(1)INIT('0'B),3 TPB# BIT(1)INIT('0'B),3 TERMINATE# BIT(1)INIT('0'B),3 FETCH# BIT(
              7273            1)INIT('0'B),3 * BIT(3)INIT('0'B),2 SETSTA$ PTR
              7274    1   INIT(ADDR(NIL)),2 LASTSTA$ PTR INIT(ADDR(NIL)),2 TDEXTST$ REDEF LASTSTA$ PTR,2 NAME#
              7274            ,3 L UBIN(9)UNAL INIT(SIZEC('*1')),3 C CHAR(31)
              7275    1   INIT('*1'),3 C17 REDEF C UNAL,4 CC CHAR(17),4 * CHAR(14),2 ACCT# CHAR(8)INIT(' '),2
              7275            PASS# CHAR(8)INIT(' '),2 PSN# CHAR(6)INIT
              7276    1   (' '),2 TYPE# CHAR(2)INIT(' '),2 RES# CHAR(4)INIT('ME'),2 RESNT REDEF RES# UNAL,3
              7276            TYP CHAR(2),3 NUM CHAR(2),2 WSN# CHAR(8)ALIGNED
              7277    1   INIT(' '),2 TDSTAT# REDEF WSN# BIT(72),2 IGNOREFSN# BIT(1)INIT('0'B),2 AU# BIT(1)
              7277            INIT('0'B),2 QISS# BIT(1)INIT('0'B),2 LOAD# BIT
              7278    1   (1)INIT('0'B),2 IOERROK# BIT(1)INIT('0'B),2 AMRSETSTA BIT(1)INIT('0'B),2 LSTAOR# BIT
              7278            (1)INIT('0'B),2 VOLACCESS# UBIN(2)UNAL INIT
              7279    1   (0),2 UOPT#(0:8)BIT(1)INIT('0'B,'0'B,'0'B,'0'B,'0'B,'0'B,'0'B,'0'B,'0'B),2 PASSF#
              7279            BIT(1)INIT('0'B),2 CNVRT# BIT(1)
              7280    1   INIT('1'B),2 EBCDIC# BIT(1)INIT('0'B),2 FCI# BIT(1)INIT('0'B),2 FCD# BIT(1)INIT('0'B
              7280            ),2 AMR# BIT(1)INIT('0'B),2 CTG# BIT(1)INIT
              7281    1   ('0'B),2 EXIST# UBIN(2)UNAL INIT(3),2 SHARE# UBIN(2)UNAL INIT(0),2 COMP# BIT(1)INIT(
              7281            '0'B),2 XTEND# BIT(1)INIT('0'B),2 CVOL#
              7282    1   BIT(1)INIT('0'B),2 BLOCKED# BIT(1)INIT('1'B),2 SPANNED# BIT(1)INIT('1'B),2 BUPM# BIT
              7282            (2)INIT('01'B),2 ORG# UBIN(9)UNAL INIT
              7283    1   (1),2 DVTYPE# REDEF ORG# UBIN(9)UNAL,2 FUN# UBIN(9)UNAL INIT(3),2 ASN# UBIN(9)UNAL
              7283            INIT(1),2 DISP# UBIN(9)UNAL INIT(2),2
              7284    1   BLKL# UBIN(18)UNAL INIT(0),2 RECL# UBIN(18)UNAL INIT(0),2 FSN# UBIN(18)UNAL INIT(0),
              7284            2 DBGDCBNO# REDEF FSN# UBIN(18)UNAL,2
              7285    1   DBGSYSID# REDEF FSN# UBIN(18)UNAL,2 SYSID# REDEF FSN# UBIN(18)UNAL,2 FEXTX UBIN(9)
              7285            UNAL INIT(0),2 BOL# UBIN(9)UNAL INIT(0),2 EXPIRE#
              7286    1   SBIN INIT(0),2 KEYX# UBIN(18)UNAL INIT(0),2 KEYL# UBIN(9)UNAL INIT(0),2 ACS# UBIN(9)
              7286            UNAL INIT(1),2 XTNSIZE# UBIN(18)
              7287    1   UNAL INIT(2),2 LSLIDE# UBIN(9)UNAL INIT(510),2 LRDL0# UBIN(9)UNAL INIT(3),2 SPARE#
              7287            UBIN(9)UNAL INIT(1),2 WSR# UBIN
              7288    1   (9)UNAL INIT(0),2 ATTR# BIT(18) INIT('0'B)/* '0'B */,2 ATTR REDEF ATTR#,3 DENS# BIT(
              7288            9),3
              7289    1   GRLGL# BIT(1),3 TRANSLGL# BIT(1),3 NOXLATE# BIT(1),3 UPPERCASE# BIT(1),3 NATL# BIT(1
              7289            ),3 TRUOVRPRT# BIT(1),3 APL# BIT(1),3 BIN# BIT
              7290    1   (1),3 LOWERCASE# BIT(1),2 TDFLG REDEF ATTR#/*'0'B */,3 SDSK# BIT(1),3 * BIT(17),2
              7290            IXTNSIZE# SBIN WORD INIT
PL6.E3A0      #001=Z9A8$DCBS File=Z9A8.:Z8A6TSI                                  SAT 08/09/97 13:36 Page:31
              7291    1   (2),2 CONNCT# REDEF IXTNSIZE# SBIN,2 NRECS# SBIN INIT(0),2 CHANTIME# REDEF NRECS#
              7291            SBIN,2 VOL# UBIN(9)UNAL INIT(0),2
              7292    1   MAXVOL# UBIN(9)UNAL INIT(0),2 CHAIN# UBIN(9)UNAL INIT(0),2 DENSITY# UBIN(9)UNAL INIT
              7292            (0),2 LINES# UBIN(18)UNAL INIT
              7293    1   (0),2 DVFC# CHAR(1)INIT(BINASC(0)),2 SEQ# BIT(1)INIT('0'B),2 SEQCOL# UBIN(8)UNAL
              7293            INIT(73),2 SEQID# CHAR(4)INIT(' '),2 HEADER$
              7294    1   PTR INIT(ADDR(NIL)),2 DQH$ REDEF HEADER$ PTR,2 TAB$ PTR INIT(ADDR(NIL)),2 DCT$ REDEF
              7294            TAB$ PTR,2 FORM$ PTR INIT(ADDR(NIL)),2 MPC$
              7295    1   REDEF FORM$ PTR,2 LDCTX UBIN(18)UNAL INIT(0),2 SETX UBIN(18)UNAL INIT(0),2 DEVADR
              7295            REDEF SETX,3 DVN# UBIN(6)UNAL,3 IOM# UBIN(3)UNAL,3
              7296    1   CHAN# UBIN(9)CALIGNED,2 * BIT(9)CALIGNED INIT('0'B),2 JRNLBYPASS# BIT(1)INIT('0'B),2
              7296            * BIT(4)INIT('0'B),2 GHSTACS# UBIN(4)INIT
              7297    1   (0)UNAL,2 ALTKEYX UBIN(18)UNAL INIT(0),2 CODE16$ PTR INIT(ADDR(NIL)),2 FPRGX UBIN
              7297            HALF HALIGNED INIT(0),2 FIELDX UBIN HALF
              7298    1   HALIGNED INIT(0),2 EVENT SBIN INIT(0),2 VFCCHAR# CHAR(1)CALIGNED INIT(BINASC(0)),2
              7298            KEYTYPE# UBIN(9)CALIGNED INIT(0),2 KFIELDX
              7299    1   UBIN(18)HALIGNED INIT(0),2 STARTX UBIN(18)HALIGNED INIT(0),2 ACTPOS UBIN(18)HALIGNED
              7299            INIT(0),2 AUTHFFLG REDEF ACTPOS,3 READ# BIT(1),
              7300    1   3 DELR# BIT(1),3 WNEW# BIT(1),3 UPD# BIT(1),3 DELF# BIT(1),3 NOLIST# BIT(1),3
              7300            REATTR# BIT(1),3 EXEC# BIT(1),3 CREATE# BIT(1),3 AU#
              7301    1   BIT(1),3 AURD# BIT(1),3 TCTL# BIT(1),3 * BIT(6),2 DCB# UBIN(9)CALIGNED INIT(0),2 *
              7301            BIT(14)INIT('0'B),2 ANSISPANSEQ# BIT(1)INIT
              7302    1   ('1'B),2 PATH,3 IOM# UBIN(3)UNAL INIT(0),3 CHAN# UBIN(9)UNAL INIT(0),2 IRRECX UBIN(
              7302            18)HALIGNED INIT(0),2 FLDID UBIN(18)
              7303    1   HALIGNED INIT(0),2 BADARS# REDEF FLDID UBIN(18)HALIGNED,2 SEED# BIT(36)INIT('0'B),2
              7303            * UBIN INIT(0),2 FEXT BIT(1)INIT('0'B),2 STARF
              7304    1   BIT(1)INIT('0'B),2 SHARED BIT(1)INIT('0'B),2 FMOD BIT(1)INIT('0'B),2 GTYP UBIN(3)
              7304            UNAL INIT(0),2 EOP UBIN(2)UNAL INIT(0),2 AMFLG,3
              7305    1   ACCF BIT(1)INIT('0'B),3 ACSF BIT(1)INIT('0'B),3 INSF BIT(1)INIT('0'B),3 USRF BIT(1)
              7305            INIT('0'B),3 SNLF BIT(1)INIT('0'B),3 PROF BIT(1)
              7306    1   INIT('0'B),2 SEZ_OK BIT(1)INIT('0'B),2 MUST_CVOL BIT(1)INIT('0'B),2 NEW_FSECT BIT(1)
              7306            INIT('0'B),2 NOEOF BIT(1)INIT('0'B),2 MOUNT
              7307    1   REDEF NOEOF BIT(1),2 OHDR BIT(1)INIT('0'B),2 LDFLG REDEF OHDR BIT(1),2 SPAN BIT(1)
              7307            INIT('0'B),2 OWNER BIT(1)INIT('0'B),2 RA BIT(1)
              7308    1   INIT('0'B),2 RPOS BIT(1)INIT('0'B),2 STARX UBIN(3)UNAL INIT(0),2 CACHE BIT(1)INIT(
              7308            '0'B),2 ENQF BIT(1)INIT('0'B),2 GRPOS BIT(1)INIT
              7309    1   ('0'B),2 CONT BIT(1)INIT('0'B),2 WAIT UBIN(1)UNAL INIT(1),2 TRNC UBIN(2)UNAL INIT(0)
PL6.E3A0      #001=Z9A8$DCBS File=Z9A8.:Z8A6TSI                                  SAT 08/09/97 13:36 Page:32
              7309            ,2 AFTRBLK BIT(1)INIT('0'B),2 LSTBLK BIT(1)INIT
              7310    1   ('0'B),2 BORROW SBIN INIT(0),2 LASTKEY$ REDEF BORROW PTR,2 LASTKEY REDEF BORROW SBIN
              7310            ,2 FTAM REDEF BORROW,3 CTX UBIN HALF UNAL,3 USR
              7311    1   UBIN BYTE UNAL,3 PMME UBIN(9)UNAL,2 CFU$ PTR INIT(ADDR(NIL)),2 TDALVL UBIN(3)UNAL
              7311            INIT(0),2 LVL UBIN(3)UNAL INIT(0),2 LPOOL REDEF
              7312    1   LVL UBIN(3)UNAL,2 WRCMP BIT(1)INIT('0'B),2 WCDATA BIT(1)INIT('0'B),2 UCOUT BIT(1)
              7312            INIT('0'B),2 TAPTYP,3 RWASC BIT(1)INIT('0'B),3 CP6F
              7313    1   BIT(1)INIT('0'B),3 USRBUF BIT(1)INIT('0'B),3 HAVLASTKEY BIT(1)INIT('0'B),3 NOCVOL
              7313            BIT(1)INIT('0'B),3 MANAGED BIT(1)INIT('0'B),3
              7314    1   PASTFM BIT(1)INIT('0'B),3 * BIT(2)INIT('0'B),2 CRECX UBIN(18)UNAL INIT(0),2 CBUFNUM
              7314            UBIN(3)UNAL INIT(0),2 IORG UBIN(6)UNAL INIT(0),2
              7315    1   TDA UBIN(27)UNAL INIT(0),2 BYTESLEFT REDEF TDA UBIN(27)UNAL,2 CRECNO SBIN INIT(0),2
              7315            PRECNO SBIN INIT(0),2 CSEED REDEF PRECNO SBIN,2
              7316    1   HASH UBIN(27)UNAL INIT(0),2 FDCM UBIN(9)UNAL INIT(0),2 FCN(0:1),3 F BIT(1)INIT('0'B,
              7316            '0'B),3 CNT UBIN(8)UNAL INIT(0,0),2 BLKLEN UBIN
              7317    1   (18)UNAL INIT(0),2 UB$ PTR INIT(ADDR(NIL)),2 UBYTES UBIN INIT(0),2 FSECT UBIN(18)
              7317            UNAL INIT(0),2 INDX REDEF FSECT UBIN(18)UNAL,2
              7318    1   FPSTR UBIN(9)UNAL INIT(0),2 STR# UBIN(9)UNAL INIT(0),2 NRECX UBIN(18)UNAL INIT(0),2
              7318            MODCNT REDEF NRECX UBIN(18)UNAL,2 SEGX UBIN(18)
              7319    1   UNAL INIT(0),2 GDISP UBIN INIT(0),2 LOGSEC BIT(1)INIT('0'B),2 PRIVOPN BIT(1)INIT(
              7319            '0'B),2 OLDIOERR UBIN(2)UNAL INIT(0),2 * BIT(21)
              7320    1   INIT('0'B),2 REALSPAN BIT(1),2 DECRYPT BIT(1)INIT('0'B),2 PGINGRAN UBIN BYTE UNAL
              7320            INIT(0),2 IFMT UBIN(9)UNAL INIT(0),2 MEDIA UBIN(9)
              7321    1   UNAL INIT(0),2 IWL,3 TABIWL BIT(1)INIT('0'B),3 SEQIWL BIT(1)INIT('0'B),3 HDRIWL BIT(
              7321            1)INIT('0'B),3 * BIT(3)INIT('0'B),2 CTLCMDIN BIT
              7322    1   (1)INIT('0'B),2 UNIQUEBLD BIT(1)INIT('0'B),2 UPDCNT BIT(1)INIT('0'B),2 IASN UBIN(9)
              7322            UNAL INIT(0),2 MOVED SBIN(18)HALIGNED,2 * UBIN(9)
              7323    1   CALIGNED,2 CX UBIN(9)CALIGNED,2 CWORD CHAR(4)ALIGNED,2 RCSZ UBIN INIT(0),2 FEPSIZ
              7323            REDEF RCSZ,3 BUF UBIN HALF UNAL,3 KEY UBIN HALF
              7324    1   UNAL,2 ID ALIGNED,3 GX UBIN(10)UNAL,3 DA UBIN(26)UNAL,2 FEPIO,3 EVENT UBIN INIT(0),3
              7324            KEYX/* 0 */ UBIN
              7325    1   HALF HALIGNED INIT(0),3 BUFX UBIN HALF HALIGNED INIT(0),3 BPP(0:1)BIT(18)INIT('0'B*0
              7325            ),3 KPP(0:1)BIT(18)INIT('0'B*0),2 AGE SBIN INIT
              7326    1   (0),2 BFR(0:4),3 BUFUP BIT(1)INIT('0'B*0),3 SCRUB BIT(1)INIT('0'B*0),3 CHNG BIT(1)
              7326            INIT('0'B*0),3 CVM BIT(1)INIT('0'B*0),3 BUFX UBIN
              7327    1   (5)UNAL INIT(0*0),3 DA UBIN(27)UNAL INIT(0*0),2 BFR1(0:4)ALIGNED,3 FLAGS,4
              7327            ONE_WORD_HEADER BIT(1)INIT('0'B*0),4 * BIT(8)INIT
PL6.E3A0      #001=Z9A8$DCBS File=Z9A8.:Z8A6TSI                                  SAT 08/09/97 13:36 Page:33
              7328    1   ('0'B*0),3 SIZ UBIN(9)UNAL INIT(0*0),3 CX UBIN(18)UNAL INIT(0*0),2 FEPIO2(0:3)UBIN
              7328            ALIGNED,2 FEPIO3(0:3)UBIN ALIGNED,2 * SBIN INIT
              7329    1   (29127),2 DCBNAME DALIGNED,3 X UBIN(3)UNAL,3 S BIT(1),3 L UBIN(5)UNAL,3 N CHAR(
              7329            M$OBJFILE.DCBNAME.L);
      118     7331        %PAGE(ARG=OTHER DCBS);
              7332        %LSET LISTDIR='0'B;

              7344    1   /*******************************************************************************
              7345    1   *                                                                              *
              7346    1   *        OTHER DCBS              OTHER DCBS                                        *
              7347    1   *                                                                              *
              7348    1   *******************************************************************************/

      119     7352    1   DCL M$DO DCB;
      120     7353    1   DCL M$ME DCB;
      121     7354        %EQU HIDCB=21;
      122     7355
      123     7356        %PAGE(ARG=DCB PTRS AND NUMS,PAGE=YES);
              7357        %LSET LISTDIR='0'B;

PL6.E3A0      #001=Z9A8$DCBS File=Z9A8.:Z8A6TSI                                  SAT 08/09/97 13:36 Page:34
              7369    1   /*******************************************************************************
              7370    1   *                                                                              *
              7371    1   *        DCB PTRS AND NUMS              DCB PTRS AND NUMS                          *
              7372    1   *                                                                              *
              7373    1   *******************************************************************************/

      124     7377        %DCBPTR(STCLASS=STATIC SYMDEF);
              7378        %LSET LISTDIR='0'B;
              7382    1   DCL Z9A8$M$ES$ PTR STATIC SYMDEF;
              7383    1   DCL Z9A8$M$SI$ PTR STATIC SYMDEF;
              7384    1   DCL Z9A8$M$UI$ PTR STATIC SYMDEF;
              7385    1   DCL Z9A8$M$SO$ PTR STATIC SYMDEF;
              7386    1   DCL Z9A8$M$OU$ PTR STATIC SYMDEF;
              7387    1   DCL Z9A8$M$LO$ PTR STATIC SYMDEF;
              7388    1   DCL Z9A8$M$ME$ PTR STATIC SYMDEF;
              7389    1   DCL Z9A8$M$DO$ PTR STATIC SYMDEF;
              7390    1   DCL Z9A8$M$OBJFILE$ PTR STATIC SYMDEF;
              7391    1   DCL Z9A8$M$ES# UBIN STATIC SYMDEF;
              7392    1   DCL Z9A8$M$SI# UBIN STATIC SYMDEF;
              7393    1   DCL Z9A8$M$UI# UBIN STATIC SYMDEF;
              7394    1   DCL Z9A8$M$SO# UBIN STATIC SYMDEF;
              7395    1   DCL Z9A8$M$OU# UBIN STATIC SYMDEF;
              7396    1   DCL Z9A8$M$LO# UBIN STATIC SYMDEF;
              7397    1   DCL Z9A8$M$ME# UBIN STATIC SYMDEF;
              7398    1   DCL Z9A8$M$DO# UBIN STATIC SYMDEF;
              7399    1   DCL Z9A8$M$OBJFILE# UBIN STATIC SYMDEF;
      125     7401        %PAGE(ARG=INITIALIZE DCB POINTERS,PAGE=YES);
              7402        %LSET LISTDIR='0'B;

PL6.E3A0      #001=Z9A8$DCBS File=Z9A8.:Z8A6TSI                                  SAT 08/09/97 13:36 Page:35
              7414    1   /*******************************************************************************
              7415    1   *                                                                              *
              7416    1   *        INITIALIZE DCB POINTERS              INITIALIZE DCB POINTERS              *
              7417    1   *                                                                              *
              7418    1   *******************************************************************************/

      126     7422        %INIT$DCB(DCBN=M$ES,FCG=Z9A8);
              7423    1   Z9A8$M$ES#=DCBNUM(M$ES);
              7424    1   Z9A8$M$ES$=DCBADDR(DCBNUM(M$ES));
      127     7426        %INIT$DCB(DCBN=M$OU,FCG=Z9A8);
              7427    1   Z9A8$M$OU#=DCBNUM(M$OU);
              7428    1   Z9A8$M$OU$=DCBADDR(DCBNUM(M$OU));
      128     7430        %INIT$DCB(DCBN=M$LO,FCG=Z9A8);
              7431    1   Z9A8$M$LO#=DCBNUM(M$LO);
              7432    1   Z9A8$M$LO$=DCBADDR(DCBNUM(M$LO));
      129     7434        %INIT$DCB(DCBN=M$DO,FCG=Z9A8);
              7435    1   Z9A8$M$DO#=DCBNUM(M$DO);
              7436    1   Z9A8$M$DO$=DCBADDR(DCBNUM(M$DO));
      130     7438        %INIT$DCB(DCBN=M$OBJFILE,FCG=Z9A8);
              7439    1   Z9A8$M$OBJFILE#=DCBNUM(M$OBJFILE);
              7440    1   Z9A8$M$OBJFILE$=DCBADDR(DCBNUM(M$OBJFILE));
      131     7442        %INIT$DCB(DCBN=M$SI,FCG=Z9A8);
              7443    1   Z9A8$M$SI#=DCBNUM(M$SI);
              7444    1   Z9A8$M$SI$=DCBADDR(DCBNUM(M$SI));
      132     7446        %INIT$DCB(DCBN=M$UI,FCG=Z9A8);
              7447    1   Z9A8$M$UI#=DCBNUM(M$UI);
              7448    1   Z9A8$M$UI$=DCBADDR(DCBNUM(M$UI));
      133     7450        %INIT$DCB(DCBN=M$SO,FCG=Z9A8);
              7451    1   Z9A8$M$SO#=DCBNUM(M$SO);
              7452    1   Z9A8$M$SO$=DCBADDR(DCBNUM(M$SO));
      134     7454        %INIT$DCB(DCBN=M$ME,FCG=Z9A8);
              7455    1   Z9A8$M$ME#=DCBNUM(M$ME);
              7456    1   Z9A8$M$ME$=DCBADDR(DCBNUM(M$ME));
      135     7458    1   RETURN;
      136     7459    1   END Z9A8$DCBS;

PL6.E3A0      #001=Z9A8$DCBS File=Z9A8.:Z8A6TSI                                  SAT 08/09/97 13:36 Page:36
--  Include file information  --

   Z9A_SUPP_MAC.:Z8A6TOU  is referenced.
   CP_6_SUBS.:LIB_E04  is referenced.
   CP_6_C.:LIB_E04  is referenced.
   CP_6.:LIB_E04  cannot be made into a system file and is referenced.
   Z9A_FLAGS.:Z8A6TOU  is referenced.
   Z8A_SYS_FILE.:Z8A6TOU  is referenced.
      No diagnostics issued in procedure Z9A8$DCBS.

   Procedure Z9A8$DCBS requires 50 words for executable code.
   Procedure Z9A8$DCBS requires 4 words of local(AUTO) storage.

    No errors detected in file Z9A8.:Z8A6TSI    .

PL6.E3A0      #001=Z9A8$DCBS File=Z9A8.:Z8A6TSI                                  SAT 08/09/97 13:36 Page:37

 Object Unit name= Z9A8$DCBS                                  File name= Z9A8.:Z8A6TOU
 UTS= AUG 09 '97 13:36:57.80 SAT                              Compiler= PL-6/E31         Sev=      00
 SharedLib= :SHARED_SYSTEM                                    Alt SharedLib=


    ****  Control sections  ****

 Sect   Type Bound  Init  Size OctSiz  Section name(segment info)
    0   DCB   even  none     0      0  M$UC
    1   DCB   even  none    98    142  M$SI
    2   DCB   even  none    98    142  M$UI
    3   DCB   even  none    98    142  M$SO
    4   DCB   even  none    98    142  M$OU
    5   DCB   even  none    98    142  M$ES
    6   DCB   even  none    98    142  M$LO
    7   DCB   even  none    98    142  M$OBJFILE
    8   DCB   even  none     0      0  M$DO
    9   DCB   even  none     0      0  M$ME
   10   Data  even  none    18     22  Z9A8$DCBS
   11   Proc  even  none    50     62  Z9A8$DCBS
   12  RoData even  none     1      1  Z9A8$DCBS

    ****  Entry defs  ****

                              Check   Calling
                             calling  sequence
  Sect OctLoc Primary Altret sequence   type   Parms  Name
    11      0   yes            yes      Std        0  Z9A8$DCBS
PL6.E3A0      #001=Z9A8$DCBS File=Z9A8.:Z8A6TSI                                  SAT 08/09/97 13:36 Page:38

  ****  Data defs  ****

 Sect OctLoc  Name                           Sect OctLoc  Name
   10      0  Z9A8$M$ES$                        10      1  Z9A8$M$SI$
   10      2  Z9A8$M$UI$                        10      3  Z9A8$M$SO$
   10      4  Z9A8$M$OU$                        10      5  Z9A8$M$LO$
   10      6  Z9A8$M$ME$                        10      7  Z9A8$M$DO$
   10     10  Z9A8$M$OBJFILE$                   10     11  Z9A8$M$ES#
   10     12  Z9A8$M$SI#                        10     13  Z9A8$M$UI#
   10     14  Z9A8$M$SO#                        10     15  Z9A8$M$OU#
   10     16  Z9A8$M$LO#                        10     17  Z9A8$M$ME#
   10     20  Z9A8$M$DO#                        10     21  Z9A8$M$OBJFILE#

  ****  Entry refs  ****

         Check        Calling
        calling       sequence
Altret sequence SRef   type   Args  Name
                       nStd      0 X66_AUTO_0
                       nStd      0 X66_ARET

  ****  Data refs  ****

  Flags:  r = read only, s = secondary
Flgs Name                             Flgs Name                             Flgs Name
     M$UC                                  M$SI                                  M$UI
     M$SO                                  M$OU                                  M$ES
     M$LO                                  M$OBJFILE                             M$DO
     M$ME

  ****  Segment refs  ****

  Flags:  r = read only, s = secondary
Flgs Name                             Flgs Name                             Flgs Name
     NULLSID                               ROSID
PL6.E3A0      #001=Z9A8$DCBS File=Z9A8.:Z8A6TSI                                  SAT 08/09/97 13:36 Page:39


        1        1        /*M* Z9A8$DCBS - Definition and initialization of DCBs */
        2        2        /*T***********************************************************/
        3        3        /*T*                                                         */
        4        4        /*T* Copyright (c) Bull HN Information Systems Inc., 1997    */
        5        5        /*T*                                                         */
        6        6        /*T***********************************************************/
        7        7        /*X*   MCL=5,MOC,CLM=40,CRM=80,CCC,
        8        8               PLM=0,IND=3,SDI=2,CTI=6,AND,DCI=6,CSU=3,ECU=3,THI=3,DTI=6,STI=3       */
        9        9        /*P*   NAME:           Z9A8$DCBS
       10       10               PURPOSE:        Definition of DCBs and DCB pointers used
       11       11                               by the COBOL-85 compiler.
       12       12               DESCRIPTION:    Invokes the %M$DCB macro to define a DCB
       13       13                               for each file used by the compiler.
       14       14                               Initializes the DCB pointer for each file.
       15       15                                                                                     */
       16       16        /*D*   NAME:           Z9A8$DCBS
       17       17               CALL:
       18       18                               CALL Z9A8$DCBS;
       19       19                                     (called only by Z9A1$INITIALIZE).
       20       20               INTERFACE:      None.
       21       21               INPUT:          None.
       22       22               OUTPUT:
       23       23                               Sets Z9A8$xxxx# to n;
       24       24                               Sets Z9A8$xxxx$ to ADDR(xxxx);
       25       25                               Sets ZV1$DCB.ADDR$(n) to ADDR(xxxx);
       26       26                                         where xxxx is DCB name
       27       27                                         and n is DCB number.
       28       28               DESCRIPTION:    Invokes %INIT$DCB macro to initialize.
       29       29                                                                                     */
       30       30        %EJECT;
PL6.E3A0      #001=Z9A8$DCBS File=Z9A8.:Z8A6TSI                                  SAT 08/09/97 13:36 Page:40
       31       31        Z9A8$DCBS:PROC;

     31 11 000000   000000 700200 xent  Z9A8$DCBS    TSX0  ! X66_AUTO_0
        11 000001   000004 000000                    ZERO    4,0

       32       32                                                /**/
       33       33        %SET LISTSUB='1'B;
       34       34        %SET LISTEXP='1'B;
       35       35        %SET LISTMAC='1'B;
       36       36        %INCLUDE Z8A_SYS_FILE;
       37     6311        %INCLUDE Z9A_SUPP_MAC;
       38     6600
       39     6601        %MACRO INIT$DCB(DCBN=,FCG=);
       40     6602        %CHARTEXT(CONCAT(TEXTCHAR(%FCG),'$',TEXTCHAR(%DCBN),'#'))=DCBNUM(DCBN);
       41     6603        %CHARTEXT(CONCAT(TEXTCHAR(%FCG),'$',TEXTCHAR(%DCBN),'$'))=DCBADDR(DCBNUM(DCBN));
       42     6604        %MEND;
       43     6605        %PAGE(ARG=M$SI);
              6606        %LSET LISTDIR='0'B;

              6618    1   /*******************************************************************************
              6619    1   *                                                                              *
              6620    1   *        M$SI              M$SI                                                  *
              6621    1   *                                                                              *
              6622    1   *******************************************************************************/

       44     6626        /*
       45     6627           Source input file
       46     6628           */
       47     6629        %M$DCB (DCBN=M$SI,
       48     6630        ASN=DEVICE,
       49     6631        RES='SI',
       50     6632        FUN=IN,
       51     6633        ACS=SEQUEN);
              6634    1  DCL 1 M$SI DCB,2 ARS# SBIN INIT(0),2 FLPW# REDEF ARS# BIT(36),2 * UBIN INIT(0),2 TYC
              6634            ,3 EGV# BIT(1)INIT('0'B*0),3 OPER# BIT(1)
              6635    1   INIT('0'B*0),3 EOT# BIT(1)INIT('0'B*0),3 BOT# BIT(1)INIT('0'B*0),3 BOF# BIT(1)INIT(
              6635            '0'B*0),3 BLNKTP# BIT(1)INIT('0'B*0),3 EOF# BIT
PL6.E3A0      #001=Z9A8$DCBS File=Z9A8.:Z8A6TSI                                  SAT 08/09/97 13:36 Page:41
              6636    1   (1)INIT('0'B*0),3 LD# BIT(1)INIT('0'B*0),3 IOERR# BIT(1)INIT('0'B*0),3 DI# BIT(1)
              6636            INIT('0'B*0),3 EOD# BIT(1)INIT('0'B*0),3 MTRAP# BIT
              6637    1  (1)INIT('0'B*0),3 LDISC# BIT(1)INIT('0'B*0),3 DACT# BIT(1)INIT('0'B*0),3 TIMO# BIT(1
              6637            )INIT('0'B*0),3 PROT# BIT(1)INIT('0'B*0),3 FRAW#
              6638    1   BIT(1)INIT('0'B*0),3 LAST# BIT(1)INIT('0'B*0),3 CDALRT# BIT(1)INIT('0'B*0),3 XTRARD
              6638            BIT(1)INIT('0'B*0),3 CGKEYV BIT(1)INIT('0'B*0),3
              6639    1   CGLWRV BIT(1)INIT('0'B*0),3 CGFULL BIT(1)INIT('0'B*0),3 CGCRCW BIT(1)INIT('0'B*0),3
              6639            CGCWRV BIT(1)INIT('0'B*0),3 * BIT(11)INIT
              6640    1   ('0'B*0),2 DVBYTE,3 TOP# BIT(1)INIT('0'B),3 * BIT(1)INIT('0'B),3 VFC# BIT(1)INIT(
              6640            '0'B),3 BIN# BIT(1)INIT('0'B),3 TRANS# BIT(1)INIT
              6641    1   ('0'B),3 * BIT(3)INIT('0'B),2 BUPF BIT(1)INIT('0'B),2 RDL0# UBIN(9)UNAL INIT(0),2
              6641            SLIDE# UBIN(9)UNAL INIT(0),2 EOMCHAR# CHAR(1)INIT
              6642    1  (BITASC('501'O)),2 EOMVAL# REDEF EOMCHAR# UNAL,3 VFLG# BIT(1),3 VALUE# UBIN(8)UNAL,2
              6642            FFLG,3 READ# BIT(1)INIT('0'B),3 DELR# BIT(1)
              6643    1  INIT('0'B),3 WNEW# BIT(1)INIT('0'B),3 UPD# BIT(1)INIT('0'B),3 DELF# BIT(1)INIT('0'B)
              6643            ,3 NOLIST# BIT(1)INIT('0'B),3 REATTR# BIT(1)INIT
              6644    1   ('0'B),3 EXEC# BIT(1)INIT('0'B),3 CREATE# BIT(1)INIT('0'B),3 AU# BIT(1)INIT('0'B),3
              6644            AURD# BIT(1)INIT('0'B),3 TCTL# BIT(1)INIT('0'B),
              6645    1  3 * BIT(6)INIT('0'B),2 DDEV,3 LP# BIT(1)INIT('0'B),3 CP# BIT(1)INIT('0'B),3 IC# BIT(
              6645            1)INIT('0'B),3 XEQ# BIT(1)INIT('0'B),3 UCOUT#
              6646    1   BIT(1)INIT('0'B),3 GR# BIT(1)INIT('0'B),3 * BIT(3)INIT('0'B),2 WIDTH# UBIN(9)UNAL
              6646            INIT(0),2 RETRYCNT# UBIN(18)HALIGNED INIT(0),2
              6647    1   DESC,3 DELF# BIT(1)INIT('0'B),3 NOLIST# BIT(1)INIT('0'B),3 BUF# BIT(1)INIT('0'B),3
              6647            ODSTOW# BIT(1)INIT('0'B),3 BAD# BIT(1)INIT('0'B),
              6648    1  3 QS# BIT(1)INIT('0'B),3 * BIT(2)INIT('0'B),3 ARCHIVE# BIT(1)INIT('0'B),3 BUPM# BIT(
              6648            1)INIT('0'B),3 NBUF# BIT(1)INIT('0'B),3 ACTIVE#
              6649    1  BIT(1)INIT('0'B),3 TPB# BIT(1)INIT('0'B),3 TERMINATE# BIT(1)INIT('0'B),3 FETCH# BIT(
              6649            1)INIT('0'B),3 * BIT(3)INIT('0'B),2 SETSTA$ PTR
              6650    1  INIT(ADDR(NIL)),2 LASTSTA$ PTR INIT(ADDR(NIL)),2 TDEXTST$ REDEF LASTSTA$ PTR,2 NAME#
              6650            ,3 L UBIN(9)UNAL INIT(SIZEC(' ')),3 C CHAR(31)
              6651    1   INIT(' '),3 C17 REDEF C UNAL,4 CC CHAR(17),4 * CHAR(14),2 ACCT# CHAR(8)INIT(' '),2
              6651            PASS# CHAR(8)INIT(' '),2 PSN# CHAR(6)INIT
              6652    1   (' '),2 TYPE# CHAR(2)INIT(' '),2 RES# CHAR(4)INIT('SI'),2 RESNT REDEF RES# UNAL,3
              6652            TYP CHAR(2),3 NUM CHAR(2),2 WSN# CHAR(8)ALIGNED
              6653    1   INIT(' '),2 TDSTAT# REDEF WSN# BIT(72),2 IGNOREFSN# BIT(1)INIT('0'B),2 AU# BIT(1)
              6653            INIT('0'B),2 QISS# BIT(1)INIT('0'B),2 LOAD# BIT
              6654    1  (1)INIT('0'B),2 IOERROK# BIT(1)INIT('0'B),2 AMRSETSTA BIT(1)INIT('0'B),2 LSTAOR# BIT
PL6.E3A0      #001=Z9A8$DCBS File=Z9A8.:Z8A6TSI                                  SAT 08/09/97 13:36 Page:42
              6654            (1)INIT('0'B),2 VOLACCESS# UBIN(2)UNAL INIT
              6655    1   (0),2 UOPT#(0:8)BIT(1)INIT('0'B,'0'B,'0'B,'0'B,'0'B,'0'B,'0'B,'0'B,'0'B),2 PASSF#
              6655            BIT(1)INIT('0'B),2 CNVRT# BIT(1)
              6656    1  INIT('1'B),2 EBCDIC# BIT(1)INIT('0'B),2 FCI# BIT(1)INIT('0'B),2 FCD# BIT(1)INIT('0'B
              6656            ),2 AMR# BIT(1)INIT('0'B),2 CTG# BIT(1)INIT
              6657    1  ('0'B),2 EXIST# UBIN(2)UNAL INIT(3),2 SHARE# UBIN(2)UNAL INIT(0),2 COMP# BIT(1)INIT(
              6657            '0'B),2 XTEND# BIT(1)INIT('0'B),2 CVOL#
              6658    1  BIT(1)INIT('0'B),2 BLOCKED# BIT(1)INIT('1'B),2 SPANNED# BIT(1)INIT('1'B),2 BUPM# BIT
              6658            (2)INIT('01'B),2 ORG# UBIN(9)UNAL INIT
              6659    1   (0),2 DVTYPE# REDEF ORG# UBIN(9)UNAL,2 FUN# UBIN(9)UNAL INIT(2),2 ASN# UBIN(9)UNAL
              6659            INIT(3),2 DISP# UBIN(9)UNAL INIT(0),2
              6660    1  BLKL# UBIN(18)UNAL INIT(0),2 RECL# UBIN(18)UNAL INIT(0),2 FSN# UBIN(18)UNAL INIT(0),
              6660            2 DBGDCBNO# REDEF FSN# UBIN(18)UNAL,2
              6661    1   DBGSYSID# REDEF FSN# UBIN(18)UNAL,2 SYSID# REDEF FSN# UBIN(18)UNAL,2 FEXTX UBIN(9)
              6661            UNAL INIT(0),2 BOL# UBIN(9)UNAL INIT(0),2 EXPIRE#
              6662    1  SBIN INIT(0),2 KEYX# UBIN(18)UNAL INIT(0),2 KEYL# UBIN(9)UNAL INIT(0),2 ACS# UBIN(9)
              6662            UNAL INIT(1),2 XTNSIZE# UBIN(18)
              6663    1   UNAL INIT(2),2 LSLIDE# UBIN(9)UNAL INIT(510),2 LRDL0# UBIN(9)UNAL INIT(3),2 SPARE#
              6663            UBIN(9)UNAL INIT(1),2 WSR# UBIN
              6664    1  (9)UNAL INIT(0),2 ATTR# BIT(18) INIT('0'B)/* '0'B */,2 ATTR REDEF ATTR#,3 DENS# BIT(
              6664            9),3
              6665    1  GRLGL# BIT(1),3 TRANSLGL# BIT(1),3 NOXLATE# BIT(1),3 UPPERCASE# BIT(1),3 NATL# BIT(1
              6665            ),3 TRUOVRPRT# BIT(1),3 APL# BIT(1),3 BIN# BIT
              6666    1   (1),3 LOWERCASE# BIT(1),2 TDFLG REDEF ATTR#/*'0'B */,3 SDSK# BIT(1),3 * BIT(17),2
              6666            IXTNSIZE# SBIN WORD INIT
              6667    1   (2),2 CONNCT# REDEF IXTNSIZE# SBIN,2 NRECS# SBIN INIT(0),2 CHANTIME# REDEF NRECS#
              6667            SBIN,2 VOL# UBIN(9)UNAL INIT(0),2
              6668    1  MAXVOL# UBIN(9)UNAL INIT(0),2 CHAIN# UBIN(9)UNAL INIT(0),2 DENSITY# UBIN(9)UNAL INIT
              6668            (0),2 LINES# UBIN(18)UNAL INIT
              6669    1   (0),2 DVFC# CHAR(1)INIT(BINASC(0)),2 SEQ# BIT(1)INIT('0'B),2 SEQCOL# UBIN(8)UNAL
              6669            INIT(73),2 SEQID# CHAR(4)INIT(' '),2 HEADER$
              6670    1  PTR INIT(ADDR(NIL)),2 DQH$ REDEF HEADER$ PTR,2 TAB$ PTR INIT(ADDR(NIL)),2 DCT$ REDEF
              6670            TAB$ PTR,2 FORM$ PTR INIT(ADDR(NIL)),2 MPC$
              6671    1   REDEF FORM$ PTR,2 LDCTX UBIN(18)UNAL INIT(0),2 SETX UBIN(18)UNAL INIT(0),2 DEVADR
              6671            REDEF SETX,3 DVN# UBIN(6)UNAL,3 IOM# UBIN(3)UNAL,3
              6672    1  CHAN# UBIN(9)CALIGNED,2 * BIT(9)CALIGNED INIT('0'B),2 JRNLBYPASS# BIT(1)INIT('0'B),2
              6672            * BIT(4)INIT('0'B),2 GHSTACS# UBIN(4)INIT
PL6.E3A0      #001=Z9A8$DCBS File=Z9A8.:Z8A6TSI                                  SAT 08/09/97 13:36 Page:43
              6673    1   (0)UNAL,2 ALTKEYX UBIN(18)UNAL INIT(0),2 CODE16$ PTR INIT(ADDR(NIL)),2 FPRGX UBIN
              6673            HALF HALIGNED INIT(0),2 FIELDX UBIN HALF
              6674    1   HALIGNED INIT(0),2 EVENT SBIN INIT(0),2 VFCCHAR# CHAR(1)CALIGNED INIT(BINASC(0)),2
              6674            KEYTYPE# UBIN(9)CALIGNED INIT(0),2 KFIELDX
              6675    1  UBIN(18)HALIGNED INIT(0),2 STARTX UBIN(18)HALIGNED INIT(0),2 ACTPOS UBIN(18)HALIGNED
              6675            INIT(0),2 AUTHFFLG REDEF ACTPOS,3 READ# BIT(1),
              6676    1   3 DELR# BIT(1),3 WNEW# BIT(1),3 UPD# BIT(1),3 DELF# BIT(1),3 NOLIST# BIT(1),3
              6676            REATTR# BIT(1),3 EXEC# BIT(1),3 CREATE# BIT(1),3 AU#
              6677    1   BIT(1),3 AURD# BIT(1),3 TCTL# BIT(1),3 * BIT(6),2 DCB# UBIN(9)CALIGNED INIT(0),2 *
              6677            BIT(14)INIT('0'B),2 ANSISPANSEQ# BIT(1)INIT
              6678    1   ('1'B),2 PATH,3 IOM# UBIN(3)UNAL INIT(0),3 CHAN# UBIN(9)UNAL INIT(0),2 IRRECX UBIN(
              6678            18)HALIGNED INIT(0),2 FLDID UBIN(18)
              6679    1   HALIGNED INIT(0),2 BADARS# REDEF FLDID UBIN(18)HALIGNED,2 SEED# BIT(36)INIT('0'B),2
              6679            * UBIN INIT(0),2 FEXT BIT(1)INIT('0'B),2 STARF
              6680    1   BIT(1)INIT('0'B),2 SHARED BIT(1)INIT('0'B),2 FMOD BIT(1)INIT('0'B),2 GTYP UBIN(3)
              6680            UNAL INIT(0),2 EOP UBIN(2)UNAL INIT(0),2 AMFLG,3
              6681    1   ACCF BIT(1)INIT('0'B),3 ACSF BIT(1)INIT('0'B),3 INSF BIT(1)INIT('0'B),3 USRF BIT(1)
              6681            INIT('0'B),3 SNLF BIT(1)INIT('0'B),3 PROF BIT(1)
              6682    1  INIT('0'B),2 SEZ_OK BIT(1)INIT('0'B),2 MUST_CVOL BIT(1)INIT('0'B),2 NEW_FSECT BIT(1)
              6682            INIT('0'B),2 NOEOF BIT(1)INIT('0'B),2 MOUNT
              6683    1   REDEF NOEOF BIT(1),2 OHDR BIT(1)INIT('0'B),2 LDFLG REDEF OHDR BIT(1),2 SPAN BIT(1)
              6683            INIT('0'B),2 OWNER BIT(1)INIT('0'B),2 RA BIT(1)
              6684    1   INIT('0'B),2 RPOS BIT(1)INIT('0'B),2 STARX UBIN(3)UNAL INIT(0),2 CACHE BIT(1)INIT(
              6684            '0'B),2 ENQF BIT(1)INIT('0'B),2 GRPOS BIT(1)INIT
              6685    1  ('0'B),2 CONT BIT(1)INIT('0'B),2 WAIT UBIN(1)UNAL INIT(1),2 TRNC UBIN(2)UNAL INIT(0)
              6685            ,2 AFTRBLK BIT(1)INIT('0'B),2 LSTBLK BIT(1)INIT
              6686    1  ('0'B),2 BORROW SBIN INIT(0),2 LASTKEY$ REDEF BORROW PTR,2 LASTKEY REDEF BORROW SBIN
              6686            ,2 FTAM REDEF BORROW,3 CTX UBIN HALF UNAL,3 USR
              6687    1   UBIN BYTE UNAL,3 PMME UBIN(9)UNAL,2 CFU$ PTR INIT(ADDR(NIL)),2 TDALVL UBIN(3)UNAL
              6687            INIT(0),2 LVL UBIN(3)UNAL INIT(0),2 LPOOL REDEF
              6688    1   LVL UBIN(3)UNAL,2 WRCMP BIT(1)INIT('0'B),2 WCDATA BIT(1)INIT('0'B),2 UCOUT BIT(1)
              6688            INIT('0'B),2 TAPTYP,3 RWASC BIT(1)INIT('0'B),3 CP6F
              6689    1   BIT(1)INIT('0'B),3 USRBUF BIT(1)INIT('0'B),3 HAVLASTKEY BIT(1)INIT('0'B),3 NOCVOL
              6689            BIT(1)INIT('0'B),3 MANAGED BIT(1)INIT('0'B),3
              6690    1   PASTFM BIT(1)INIT('0'B),3 * BIT(2)INIT('0'B),2 CRECX UBIN(18)UNAL INIT(0),2 CBUFNUM
              6690            UBIN(3)UNAL INIT(0),2 IORG UBIN(6)UNAL INIT(0),2
              6691    1   TDA UBIN(27)UNAL INIT(0),2 BYTESLEFT REDEF TDA UBIN(27)UNAL,2 CRECNO SBIN INIT(0),2
PL6.E3A0      #001=Z9A8$DCBS File=Z9A8.:Z8A6TSI                                  SAT 08/09/97 13:36 Page:44
              6691            PRECNO SBIN INIT(0),2 CSEED REDEF PRECNO SBIN,2
              6692    1  HASH UBIN(27)UNAL INIT(0),2 FDCM UBIN(9)UNAL INIT(0),2 FCN(0:1),3 F BIT(1)INIT('0'B,
              6692            '0'B),3 CNT UBIN(8)UNAL INIT(0,0),2 BLKLEN UBIN
              6693    1   (18)UNAL INIT(0),2 UB$ PTR INIT(ADDR(NIL)),2 UBYTES UBIN INIT(0),2 FSECT UBIN(18)
              6693            UNAL INIT(0),2 INDX REDEF FSECT UBIN(18)UNAL,2
              6694    1   FPSTR UBIN(9)UNAL INIT(0),2 STR# UBIN(9)UNAL INIT(0),2 NRECX UBIN(18)UNAL INIT(0),2
              6694            MODCNT REDEF NRECX UBIN(18)UNAL,2 SEGX UBIN(18)
              6695    1   UNAL INIT(0),2 GDISP UBIN INIT(0),2 LOGSEC BIT(1)INIT('0'B),2 PRIVOPN BIT(1)INIT(
              6695            '0'B),2 OLDIOERR UBIN(2)UNAL INIT(0),2 * BIT(21)
              6696    1   INIT('0'B),2 REALSPAN BIT(1),2 DECRYPT BIT(1)INIT('0'B),2 PGINGRAN UBIN BYTE UNAL
              6696            INIT(0),2 IFMT UBIN(9)UNAL INIT(0),2 MEDIA UBIN(9)
              6697    1  UNAL INIT(0),2 IWL,3 TABIWL BIT(1)INIT('0'B),3 SEQIWL BIT(1)INIT('0'B),3 HDRIWL BIT(
              6697            1)INIT('0'B),3 * BIT(3)INIT('0'B),2 CTLCMDIN BIT
              6698    1   (1)INIT('0'B),2 UNIQUEBLD BIT(1)INIT('0'B),2 UPDCNT BIT(1)INIT('0'B),2 IASN UBIN(9)
              6698            UNAL INIT(0),2 MOVED SBIN(18)HALIGNED,2 * UBIN(9)
              6699    1   CALIGNED,2 CX UBIN(9)CALIGNED,2 CWORD CHAR(4)ALIGNED,2 RCSZ UBIN INIT(0),2 FEPSIZ
              6699            REDEF RCSZ,3 BUF UBIN HALF UNAL,3 KEY UBIN HALF
              6700    1  UNAL,2 ID ALIGNED,3 GX UBIN(10)UNAL,3 DA UBIN(26)UNAL,2 FEPIO,3 EVENT UBIN INIT(0),3
              6700            KEYX/* 0 */ UBIN
              6701    1  HALF HALIGNED INIT(0),3 BUFX UBIN HALF HALIGNED INIT(0),3 BPP(0:1)BIT(18)INIT('0'B*0
              6701            ),3 KPP(0:1)BIT(18)INIT('0'B*0),2 AGE SBIN INIT
              6702    1   (0),2 BFR(0:4),3 BUFUP BIT(1)INIT('0'B*0),3 SCRUB BIT(1)INIT('0'B*0),3 CHNG BIT(1)
              6702            INIT('0'B*0),3 CVM BIT(1)INIT('0'B*0),3 BUFX UBIN
              6703    1   (5)UNAL INIT(0*0),3 DA UBIN(27)UNAL INIT(0*0),2 BFR1(0:4)ALIGNED,3 FLAGS,4
              6703            ONE_WORD_HEADER BIT(1)INIT('0'B*0),4 * BIT(8)INIT
              6704    1   ('0'B*0),3 SIZ UBIN(9)UNAL INIT(0*0),3 CX UBIN(18)UNAL INIT(0*0),2 FEPIO2(0:3)UBIN
              6704            ALIGNED,2 FEPIO3(0:3)UBIN ALIGNED,2 * SBIN INIT
              6705    1  (29127),2 DCBNAME DALIGNED,3 X UBIN(3)UNAL,3 S BIT(1),3 L UBIN(5)UNAL,3 N CHAR(M$SI.
              6705            DCBNAME.L);
       52     6707        %PAGE(ARG=M$UI);
              6708        %LSET LISTDIR='0'B;

              6720    1   /*******************************************************************************
              6721    1   *                                                                              *
              6722    1   *        M$UI              M$UI                                                  *
              6723    1   *                                                                              *
              6724    1   *******************************************************************************/
PL6.E3A0      #001=Z9A8$DCBS File=Z9A8.:Z8A6TSI                                  SAT 08/09/97 13:36 Page:45

       53     6728        /*
       54     6729           Update input file
       55     6730           */
       56     6731        %M$DCB (DCBN=M$UI,
       57     6732        ASN=DEVICE,
       58     6733        RES='NO',
       59     6734        FUN=IN,
       60     6735        ACS=SEQUEN);
              6736    1  DCL 1 M$UI DCB,2 ARS# SBIN INIT(0),2 FLPW# REDEF ARS# BIT(36),2 * UBIN INIT(0),2 TYC
              6736            ,3 EGV# BIT(1)INIT('0'B*0),3 OPER# BIT(1)
              6737    1   INIT('0'B*0),3 EOT# BIT(1)INIT('0'B*0),3 BOT# BIT(1)INIT('0'B*0),3 BOF# BIT(1)INIT(
              6737            '0'B*0),3 BLNKTP# BIT(1)INIT('0'B*0),3 EOF# BIT
              6738    1   (1)INIT('0'B*0),3 LD# BIT(1)INIT('0'B*0),3 IOERR# BIT(1)INIT('0'B*0),3 DI# BIT(1)
              6738            INIT('0'B*0),3 EOD# BIT(1)INIT('0'B*0),3 MTRAP# BIT
              6739    1  (1)INIT('0'B*0),3 LDISC# BIT(1)INIT('0'B*0),3 DACT# BIT(1)INIT('0'B*0),3 TIMO# BIT(1
              6739            )INIT('0'B*0),3 PROT# BIT(1)INIT('0'B*0),3 FRAW#
              6740    1   BIT(1)INIT('0'B*0),3 LAST# BIT(1)INIT('0'B*0),3 CDALRT# BIT(1)INIT('0'B*0),3 XTRARD
              6740            BIT(1)INIT('0'B*0),3 CGKEYV BIT(1)INIT('0'B*0),3
              6741    1   CGLWRV BIT(1)INIT('0'B*0),3 CGFULL BIT(1)INIT('0'B*0),3 CGCRCW BIT(1)INIT('0'B*0),3
              6741            CGCWRV BIT(1)INIT('0'B*0),3 * BIT(11)INIT
              6742    1   ('0'B*0),2 DVBYTE,3 TOP# BIT(1)INIT('0'B),3 * BIT(1)INIT('0'B),3 VFC# BIT(1)INIT(
              6742            '0'B),3 BIN# BIT(1)INIT('0'B),3 TRANS# BIT(1)INIT
              6743    1   ('0'B),3 * BIT(3)INIT('0'B),2 BUPF BIT(1)INIT('0'B),2 RDL0# UBIN(9)UNAL INIT(0),2
              6743            SLIDE# UBIN(9)UNAL INIT(0),2 EOMCHAR# CHAR(1)INIT
              6744    1  (BITASC('501'O)),2 EOMVAL# REDEF EOMCHAR# UNAL,3 VFLG# BIT(1),3 VALUE# UBIN(8)UNAL,2
              6744            FFLG,3 READ# BIT(1)INIT('0'B),3 DELR# BIT(1)
              6745    1  INIT('0'B),3 WNEW# BIT(1)INIT('0'B),3 UPD# BIT(1)INIT('0'B),3 DELF# BIT(1)INIT('0'B)
              6745            ,3 NOLIST# BIT(1)INIT('0'B),3 REATTR# BIT(1)INIT
              6746    1   ('0'B),3 EXEC# BIT(1)INIT('0'B),3 CREATE# BIT(1)INIT('0'B),3 AU# BIT(1)INIT('0'B),3
              6746            AURD# BIT(1)INIT('0'B),3 TCTL# BIT(1)INIT('0'B),
              6747    1  3 * BIT(6)INIT('0'B),2 DDEV,3 LP# BIT(1)INIT('0'B),3 CP# BIT(1)INIT('0'B),3 IC# BIT(
              6747            1)INIT('0'B),3 XEQ# BIT(1)INIT('0'B),3 UCOUT#
              6748    1   BIT(1)INIT('0'B),3 GR# BIT(1)INIT('0'B),3 * BIT(3)INIT('0'B),2 WIDTH# UBIN(9)UNAL
              6748            INIT(0),2 RETRYCNT# UBIN(18)HALIGNED INIT(0),2
              6749    1   DESC,3 DELF# BIT(1)INIT('0'B),3 NOLIST# BIT(1)INIT('0'B),3 BUF# BIT(1)INIT('0'B),3
              6749            ODSTOW# BIT(1)INIT('0'B),3 BAD# BIT(1)INIT('0'B),
PL6.E3A0      #001=Z9A8$DCBS File=Z9A8.:Z8A6TSI                                  SAT 08/09/97 13:36 Page:46
              6750    1  3 QS# BIT(1)INIT('0'B),3 * BIT(2)INIT('0'B),3 ARCHIVE# BIT(1)INIT('0'B),3 BUPM# BIT(
              6750            1)INIT('0'B),3 NBUF# BIT(1)INIT('0'B),3 ACTIVE#
              6751    1  BIT(1)INIT('0'B),3 TPB# BIT(1)INIT('0'B),3 TERMINATE# BIT(1)INIT('0'B),3 FETCH# BIT(
              6751            1)INIT('0'B),3 * BIT(3)INIT('0'B),2 SETSTA$ PTR
              6752    1  INIT(ADDR(NIL)),2 LASTSTA$ PTR INIT(ADDR(NIL)),2 TDEXTST$ REDEF LASTSTA$ PTR,2 NAME#
              6752            ,3 L UBIN(9)UNAL INIT(SIZEC(' ')),3 C CHAR(31)
              6753    1   INIT(' '),3 C17 REDEF C UNAL,4 CC CHAR(17),4 * CHAR(14),2 ACCT# CHAR(8)INIT(' '),2
              6753            PASS# CHAR(8)INIT(' '),2 PSN# CHAR(6)INIT
              6754    1   (' '),2 TYPE# CHAR(2)INIT(' '),2 RES# CHAR(4)INIT('NO'),2 RESNT REDEF RES# UNAL,3
              6754            TYP CHAR(2),3 NUM CHAR(2),2 WSN# CHAR(8)ALIGNED
              6755    1   INIT(' '),2 TDSTAT# REDEF WSN# BIT(72),2 IGNOREFSN# BIT(1)INIT('0'B),2 AU# BIT(1)
              6755            INIT('0'B),2 QISS# BIT(1)INIT('0'B),2 LOAD# BIT
              6756    1  (1)INIT('0'B),2 IOERROK# BIT(1)INIT('0'B),2 AMRSETSTA BIT(1)INIT('0'B),2 LSTAOR# BIT
              6756            (1)INIT('0'B),2 VOLACCESS# UBIN(2)UNAL INIT
              6757    1   (0),2 UOPT#(0:8)BIT(1)INIT('0'B,'0'B,'0'B,'0'B,'0'B,'0'B,'0'B,'0'B,'0'B),2 PASSF#
              6757            BIT(1)INIT('0'B),2 CNVRT# BIT(1)
              6758    1  INIT('1'B),2 EBCDIC# BIT(1)INIT('0'B),2 FCI# BIT(1)INIT('0'B),2 FCD# BIT(1)INIT('0'B
              6758            ),2 AMR# BIT(1)INIT('0'B),2 CTG# BIT(1)INIT
              6759    1  ('0'B),2 EXIST# UBIN(2)UNAL INIT(3),2 SHARE# UBIN(2)UNAL INIT(0),2 COMP# BIT(1)INIT(
              6759            '0'B),2 XTEND# BIT(1)INIT('0'B),2 CVOL#
              6760    1  BIT(1)INIT('0'B),2 BLOCKED# BIT(1)INIT('1'B),2 SPANNED# BIT(1)INIT('1'B),2 BUPM# BIT
              6760            (2)INIT('01'B),2 ORG# UBIN(9)UNAL INIT
              6761    1   (0),2 DVTYPE# REDEF ORG# UBIN(9)UNAL,2 FUN# UBIN(9)UNAL INIT(2),2 ASN# UBIN(9)UNAL
              6761            INIT(3),2 DISP# UBIN(9)UNAL INIT(0),2
              6762    1  BLKL# UBIN(18)UNAL INIT(0),2 RECL# UBIN(18)UNAL INIT(0),2 FSN# UBIN(18)UNAL INIT(0),
              6762            2 DBGDCBNO# REDEF FSN# UBIN(18)UNAL,2
              6763    1   DBGSYSID# REDEF FSN# UBIN(18)UNAL,2 SYSID# REDEF FSN# UBIN(18)UNAL,2 FEXTX UBIN(9)
              6763            UNAL INIT(0),2 BOL# UBIN(9)UNAL INIT(0),2 EXPIRE#
              6764    1  SBIN INIT(0),2 KEYX# UBIN(18)UNAL INIT(0),2 KEYL# UBIN(9)UNAL INIT(0),2 ACS# UBIN(9)
              6764            UNAL INIT(1),2 XTNSIZE# UBIN(18)
              6765    1   UNAL INIT(2),2 LSLIDE# UBIN(9)UNAL INIT(510),2 LRDL0# UBIN(9)UNAL INIT(3),2 SPARE#
              6765            UBIN(9)UNAL INIT(1),2 WSR# UBIN
              6766    1  (9)UNAL INIT(0),2 ATTR# BIT(18) INIT('0'B)/* '0'B */,2 ATTR REDEF ATTR#,3 DENS# BIT(
              6766            9),3
              6767    1  GRLGL# BIT(1),3 TRANSLGL# BIT(1),3 NOXLATE# BIT(1),3 UPPERCASE# BIT(1),3 NATL# BIT(1
              6767            ),3 TRUOVRPRT# BIT(1),3 APL# BIT(1),3 BIN# BIT
              6768    1   (1),3 LOWERCASE# BIT(1),2 TDFLG REDEF ATTR#/*'0'B */,3 SDSK# BIT(1),3 * BIT(17),2
PL6.E3A0      #001=Z9A8$DCBS File=Z9A8.:Z8A6TSI                                  SAT 08/09/97 13:36 Page:47
              6768            IXTNSIZE# SBIN WORD INIT
              6769    1   (2),2 CONNCT# REDEF IXTNSIZE# SBIN,2 NRECS# SBIN INIT(0),2 CHANTIME# REDEF NRECS#
              6769            SBIN,2 VOL# UBIN(9)UNAL INIT(0),2
              6770    1  MAXVOL# UBIN(9)UNAL INIT(0),2 CHAIN# UBIN(9)UNAL INIT(0),2 DENSITY# UBIN(9)UNAL INIT
              6770            (0),2 LINES# UBIN(18)UNAL INIT
              6771    1   (0),2 DVFC# CHAR(1)INIT(BINASC(0)),2 SEQ# BIT(1)INIT('0'B),2 SEQCOL# UBIN(8)UNAL
              6771            INIT(73),2 SEQID# CHAR(4)INIT(' '),2 HEADER$
              6772    1  PTR INIT(ADDR(NIL)),2 DQH$ REDEF HEADER$ PTR,2 TAB$ PTR INIT(ADDR(NIL)),2 DCT$ REDEF
              6772            TAB$ PTR,2 FORM$ PTR INIT(ADDR(NIL)),2 MPC$
              6773    1   REDEF FORM$ PTR,2 LDCTX UBIN(18)UNAL INIT(0),2 SETX UBIN(18)UNAL INIT(0),2 DEVADR
              6773            REDEF SETX,3 DVN# UBIN(6)UNAL,3 IOM# UBIN(3)UNAL,3
              6774    1  CHAN# UBIN(9)CALIGNED,2 * BIT(9)CALIGNED INIT('0'B),2 JRNLBYPASS# BIT(1)INIT('0'B),2
              6774            * BIT(4)INIT('0'B),2 GHSTACS# UBIN(4)INIT
              6775    1   (0)UNAL,2 ALTKEYX UBIN(18)UNAL INIT(0),2 CODE16$ PTR INIT(ADDR(NIL)),2 FPRGX UBIN
              6775            HALF HALIGNED INIT(0),2 FIELDX UBIN HALF
              6776    1   HALIGNED INIT(0),2 EVENT SBIN INIT(0),2 VFCCHAR# CHAR(1)CALIGNED INIT(BINASC(0)),2
              6776            KEYTYPE# UBIN(9)CALIGNED INIT(0),2 KFIELDX
              6777    1  UBIN(18)HALIGNED INIT(0),2 STARTX UBIN(18)HALIGNED INIT(0),2 ACTPOS UBIN(18)HALIGNED
              6777            INIT(0),2 AUTHFFLG REDEF ACTPOS,3 READ# BIT(1),
              6778    1   3 DELR# BIT(1),3 WNEW# BIT(1),3 UPD# BIT(1),3 DELF# BIT(1),3 NOLIST# BIT(1),3
              6778            REATTR# BIT(1),3 EXEC# BIT(1),3 CREATE# BIT(1),3 AU#
              6779    1   BIT(1),3 AURD# BIT(1),3 TCTL# BIT(1),3 * BIT(6),2 DCB# UBIN(9)CALIGNED INIT(0),2 *
              6779            BIT(14)INIT('0'B),2 ANSISPANSEQ# BIT(1)INIT
              6780    1   ('1'B),2 PATH,3 IOM# UBIN(3)UNAL INIT(0),3 CHAN# UBIN(9)UNAL INIT(0),2 IRRECX UBIN(
              6780            18)HALIGNED INIT(0),2 FLDID UBIN(18)
              6781    1   HALIGNED INIT(0),2 BADARS# REDEF FLDID UBIN(18)HALIGNED,2 SEED# BIT(36)INIT('0'B),2
              6781            * UBIN INIT(0),2 FEXT BIT(1)INIT('0'B),2 STARF
              6782    1   BIT(1)INIT('0'B),2 SHARED BIT(1)INIT('0'B),2 FMOD BIT(1)INIT('0'B),2 GTYP UBIN(3)
              6782            UNAL INIT(0),2 EOP UBIN(2)UNAL INIT(0),2 AMFLG,3
              6783    1   ACCF BIT(1)INIT('0'B),3 ACSF BIT(1)INIT('0'B),3 INSF BIT(1)INIT('0'B),3 USRF BIT(1)
              6783            INIT('0'B),3 SNLF BIT(1)INIT('0'B),3 PROF BIT(1)
              6784    1  INIT('0'B),2 SEZ_OK BIT(1)INIT('0'B),2 MUST_CVOL BIT(1)INIT('0'B),2 NEW_FSECT BIT(1)
              6784            INIT('0'B),2 NOEOF BIT(1)INIT('0'B),2 MOUNT
              6785    1   REDEF NOEOF BIT(1),2 OHDR BIT(1)INIT('0'B),2 LDFLG REDEF OHDR BIT(1),2 SPAN BIT(1)
              6785            INIT('0'B),2 OWNER BIT(1)INIT('0'B),2 RA BIT(1)
              6786    1   INIT('0'B),2 RPOS BIT(1)INIT('0'B),2 STARX UBIN(3)UNAL INIT(0),2 CACHE BIT(1)INIT(
              6786            '0'B),2 ENQF BIT(1)INIT('0'B),2 GRPOS BIT(1)INIT
PL6.E3A0      #001=Z9A8$DCBS File=Z9A8.:Z8A6TSI                                  SAT 08/09/97 13:36 Page:48
              6787    1  ('0'B),2 CONT BIT(1)INIT('0'B),2 WAIT UBIN(1)UNAL INIT(1),2 TRNC UBIN(2)UNAL INIT(0)
              6787            ,2 AFTRBLK BIT(1)INIT('0'B),2 LSTBLK BIT(1)INIT
              6788    1  ('0'B),2 BORROW SBIN INIT(0),2 LASTKEY$ REDEF BORROW PTR,2 LASTKEY REDEF BORROW SBIN
              6788            ,2 FTAM REDEF BORROW,3 CTX UBIN HALF UNAL,3 USR
              6789    1   UBIN BYTE UNAL,3 PMME UBIN(9)UNAL,2 CFU$ PTR INIT(ADDR(NIL)),2 TDALVL UBIN(3)UNAL
              6789            INIT(0),2 LVL UBIN(3)UNAL INIT(0),2 LPOOL REDEF
              6790    1   LVL UBIN(3)UNAL,2 WRCMP BIT(1)INIT('0'B),2 WCDATA BIT(1)INIT('0'B),2 UCOUT BIT(1)
              6790            INIT('0'B),2 TAPTYP,3 RWASC BIT(1)INIT('0'B),3 CP6F
              6791    1   BIT(1)INIT('0'B),3 USRBUF BIT(1)INIT('0'B),3 HAVLASTKEY BIT(1)INIT('0'B),3 NOCVOL
              6791            BIT(1)INIT('0'B),3 MANAGED BIT(1)INIT('0'B),3
              6792    1   PASTFM BIT(1)INIT('0'B),3 * BIT(2)INIT('0'B),2 CRECX UBIN(18)UNAL INIT(0),2 CBUFNUM
              6792            UBIN(3)UNAL INIT(0),2 IORG UBIN(6)UNAL INIT(0),2
              6793    1   TDA UBIN(27)UNAL INIT(0),2 BYTESLEFT REDEF TDA UBIN(27)UNAL,2 CRECNO SBIN INIT(0),2
              6793            PRECNO SBIN INIT(0),2 CSEED REDEF PRECNO SBIN,2
              6794    1  HASH UBIN(27)UNAL INIT(0),2 FDCM UBIN(9)UNAL INIT(0),2 FCN(0:1),3 F BIT(1)INIT('0'B,
              6794            '0'B),3 CNT UBIN(8)UNAL INIT(0,0),2 BLKLEN UBIN
              6795    1   (18)UNAL INIT(0),2 UB$ PTR INIT(ADDR(NIL)),2 UBYTES UBIN INIT(0),2 FSECT UBIN(18)
              6795            UNAL INIT(0),2 INDX REDEF FSECT UBIN(18)UNAL,2
              6796    1   FPSTR UBIN(9)UNAL INIT(0),2 STR# UBIN(9)UNAL INIT(0),2 NRECX UBIN(18)UNAL INIT(0),2
              6796            MODCNT REDEF NRECX UBIN(18)UNAL,2 SEGX UBIN(18)
              6797    1   UNAL INIT(0),2 GDISP UBIN INIT(0),2 LOGSEC BIT(1)INIT('0'B),2 PRIVOPN BIT(1)INIT(
              6797            '0'B),2 OLDIOERR UBIN(2)UNAL INIT(0),2 * BIT(21)
              6798    1   INIT('0'B),2 REALSPAN BIT(1),2 DECRYPT BIT(1)INIT('0'B),2 PGINGRAN UBIN BYTE UNAL
              6798            INIT(0),2 IFMT UBIN(9)UNAL INIT(0),2 MEDIA UBIN(9)
              6799    1  UNAL INIT(0),2 IWL,3 TABIWL BIT(1)INIT('0'B),3 SEQIWL BIT(1)INIT('0'B),3 HDRIWL BIT(
              6799            1)INIT('0'B),3 * BIT(3)INIT('0'B),2 CTLCMDIN BIT
              6800    1   (1)INIT('0'B),2 UNIQUEBLD BIT(1)INIT('0'B),2 UPDCNT BIT(1)INIT('0'B),2 IASN UBIN(9)
              6800            UNAL INIT(0),2 MOVED SBIN(18)HALIGNED,2 * UBIN(9)
              6801    1   CALIGNED,2 CX UBIN(9)CALIGNED,2 CWORD CHAR(4)ALIGNED,2 RCSZ UBIN INIT(0),2 FEPSIZ
              6801            REDEF RCSZ,3 BUF UBIN HALF UNAL,3 KEY UBIN HALF
              6802    1  UNAL,2 ID ALIGNED,3 GX UBIN(10)UNAL,3 DA UBIN(26)UNAL,2 FEPIO,3 EVENT UBIN INIT(0),3
              6802            KEYX/* 0 */ UBIN
              6803    1  HALF HALIGNED INIT(0),3 BUFX UBIN HALF HALIGNED INIT(0),3 BPP(0:1)BIT(18)INIT('0'B*0
              6803            ),3 KPP(0:1)BIT(18)INIT('0'B*0),2 AGE SBIN INIT
              6804    1   (0),2 BFR(0:4),3 BUFUP BIT(1)INIT('0'B*0),3 SCRUB BIT(1)INIT('0'B*0),3 CHNG BIT(1)
              6804            INIT('0'B*0),3 CVM BIT(1)INIT('0'B*0),3 BUFX UBIN
              6805    1   (5)UNAL INIT(0*0),3 DA UBIN(27)UNAL INIT(0*0),2 BFR1(0:4)ALIGNED,3 FLAGS,4
PL6.E3A0      #001=Z9A8$DCBS File=Z9A8.:Z8A6TSI                                  SAT 08/09/97 13:36 Page:49
              6805            ONE_WORD_HEADER BIT(1)INIT('0'B*0),4 * BIT(8)INIT
              6806    1   ('0'B*0),3 SIZ UBIN(9)UNAL INIT(0*0),3 CX UBIN(18)UNAL INIT(0*0),2 FEPIO2(0:3)UBIN
              6806            ALIGNED,2 FEPIO3(0:3)UBIN ALIGNED,2 * SBIN INIT
              6807    1  (29127),2 DCBNAME DALIGNED,3 X UBIN(3)UNAL,3 S BIT(1),3 L UBIN(5)UNAL,3 N CHAR(M$UI.
              6807            DCBNAME.L);
       61     6809        %PAGE(ARG=M$SO);
              6810        %LSET LISTDIR='0'B;

              6822    1   /*******************************************************************************
              6823    1   *                                                                              *
              6824    1   *        M$SO              M$SO                                                  *
              6825    1   *                                                                              *
              6826    1   *******************************************************************************/

       62     6830        /*
       63     6831           Source output file
       64     6832           */
       65     6833        %M$DCB (DCBN=M$SO,
       66     6834        ASN=DEVICE,
       67     6835        RES='NO',
       68     6836        EXIST=NEWFILE,
       69     6837        FUN=CREATE,
       70     6838        ACS=SEQUEN,
       71     6839        ORG=CONSEC,
       72     6840        DISP=NAMED);
              6841    1  DCL 1 M$SO DCB,2 ARS# SBIN INIT(0),2 FLPW# REDEF ARS# BIT(36),2 * UBIN INIT(0),2 TYC
              6841            ,3 EGV# BIT(1)INIT('0'B*0),3 OPER# BIT(1)
              6842    1   INIT('0'B*0),3 EOT# BIT(1)INIT('0'B*0),3 BOT# BIT(1)INIT('0'B*0),3 BOF# BIT(1)INIT(
              6842            '0'B*0),3 BLNKTP# BIT(1)INIT('0'B*0),3 EOF# BIT
              6843    1   (1)INIT('0'B*0),3 LD# BIT(1)INIT('0'B*0),3 IOERR# BIT(1)INIT('0'B*0),3 DI# BIT(1)
              6843            INIT('0'B*0),3 EOD# BIT(1)INIT('0'B*0),3 MTRAP# BIT
              6844    1  (1)INIT('0'B*0),3 LDISC# BIT(1)INIT('0'B*0),3 DACT# BIT(1)INIT('0'B*0),3 TIMO# BIT(1
              6844            )INIT('0'B*0),3 PROT# BIT(1)INIT('0'B*0),3 FRAW#
              6845    1   BIT(1)INIT('0'B*0),3 LAST# BIT(1)INIT('0'B*0),3 CDALRT# BIT(1)INIT('0'B*0),3 XTRARD
              6845            BIT(1)INIT('0'B*0),3 CGKEYV BIT(1)INIT('0'B*0),3
              6846    1   CGLWRV BIT(1)INIT('0'B*0),3 CGFULL BIT(1)INIT('0'B*0),3 CGCRCW BIT(1)INIT('0'B*0),3
              6846            CGCWRV BIT(1)INIT('0'B*0),3 * BIT(11)INIT
PL6.E3A0      #001=Z9A8$DCBS File=Z9A8.:Z8A6TSI                                  SAT 08/09/97 13:36 Page:50
              6847    1   ('0'B*0),2 DVBYTE,3 TOP# BIT(1)INIT('0'B),3 * BIT(1)INIT('0'B),3 VFC# BIT(1)INIT(
              6847            '0'B),3 BIN# BIT(1)INIT('0'B),3 TRANS# BIT(1)INIT
              6848    1   ('0'B),3 * BIT(3)INIT('0'B),2 BUPF BIT(1)INIT('0'B),2 RDL0# UBIN(9)UNAL INIT(0),2
              6848            SLIDE# UBIN(9)UNAL INIT(0),2 EOMCHAR# CHAR(1)INIT
              6849    1  (BITASC('501'O)),2 EOMVAL# REDEF EOMCHAR# UNAL,3 VFLG# BIT(1),3 VALUE# UBIN(8)UNAL,2
              6849            FFLG,3 READ# BIT(1)INIT('0'B),3 DELR# BIT(1)
              6850    1  INIT('0'B),3 WNEW# BIT(1)INIT('0'B),3 UPD# BIT(1)INIT('0'B),3 DELF# BIT(1)INIT('0'B)
              6850            ,3 NOLIST# BIT(1)INIT('0'B),3 REATTR# BIT(1)INIT
              6851    1   ('0'B),3 EXEC# BIT(1)INIT('0'B),3 CREATE# BIT(1)INIT('0'B),3 AU# BIT(1)INIT('0'B),3
              6851            AURD# BIT(1)INIT('0'B),3 TCTL# BIT(1)INIT('0'B),
              6852    1  3 * BIT(6)INIT('0'B),2 DDEV,3 LP# BIT(1)INIT('0'B),3 CP# BIT(1)INIT('0'B),3 IC# BIT(
              6852            1)INIT('0'B),3 XEQ# BIT(1)INIT('0'B),3 UCOUT#
              6853    1   BIT(1)INIT('0'B),3 GR# BIT(1)INIT('0'B),3 * BIT(3)INIT('0'B),2 WIDTH# UBIN(9)UNAL
              6853            INIT(0),2 RETRYCNT# UBIN(18)HALIGNED INIT(0),2
              6854    1   DESC,3 DELF# BIT(1)INIT('0'B),3 NOLIST# BIT(1)INIT('0'B),3 BUF# BIT(1)INIT('0'B),3
              6854            ODSTOW# BIT(1)INIT('0'B),3 BAD# BIT(1)INIT('0'B),
              6855    1  3 QS# BIT(1)INIT('0'B),3 * BIT(2)INIT('0'B),3 ARCHIVE# BIT(1)INIT('0'B),3 BUPM# BIT(
              6855            1)INIT('0'B),3 NBUF# BIT(1)INIT('0'B),3 ACTIVE#
              6856    1  BIT(1)INIT('0'B),3 TPB# BIT(1)INIT('0'B),3 TERMINATE# BIT(1)INIT('0'B),3 FETCH# BIT(
              6856            1)INIT('0'B),3 * BIT(3)INIT('0'B),2 SETSTA$ PTR
              6857    1  INIT(ADDR(NIL)),2 LASTSTA$ PTR INIT(ADDR(NIL)),2 TDEXTST$ REDEF LASTSTA$ PTR,2 NAME#
              6857            ,3 L UBIN(9)UNAL INIT(SIZEC(' ')),3 C CHAR(31)
              6858    1   INIT(' '),3 C17 REDEF C UNAL,4 CC CHAR(17),4 * CHAR(14),2 ACCT# CHAR(8)INIT(' '),2
              6858            PASS# CHAR(8)INIT(' '),2 PSN# CHAR(6)INIT
              6859    1   (' '),2 TYPE# CHAR(2)INIT(' '),2 RES# CHAR(4)INIT('NO'),2 RESNT REDEF RES# UNAL,3
              6859            TYP CHAR(2),3 NUM CHAR(2),2 WSN# CHAR(8)ALIGNED
              6860    1   INIT(' '),2 TDSTAT# REDEF WSN# BIT(72),2 IGNOREFSN# BIT(1)INIT('0'B),2 AU# BIT(1)
              6860            INIT('0'B),2 QISS# BIT(1)INIT('0'B),2 LOAD# BIT
              6861    1  (1)INIT('0'B),2 IOERROK# BIT(1)INIT('0'B),2 AMRSETSTA BIT(1)INIT('0'B),2 LSTAOR# BIT
              6861            (1)INIT('0'B),2 VOLACCESS# UBIN(2)UNAL INIT
              6862    1   (0),2 UOPT#(0:8)BIT(1)INIT('0'B,'0'B,'0'B,'0'B,'0'B,'0'B,'0'B,'0'B,'0'B),2 PASSF#
              6862            BIT(1)INIT('0'B),2 CNVRT# BIT(1)
              6863    1  INIT('1'B),2 EBCDIC# BIT(1)INIT('0'B),2 FCI# BIT(1)INIT('0'B),2 FCD# BIT(1)INIT('0'B
              6863            ),2 AMR# BIT(1)INIT('0'B),2 CTG# BIT(1)INIT
              6864    1  ('0'B),2 EXIST# UBIN(2)UNAL INIT(3),2 SHARE# UBIN(2)UNAL INIT(0),2 COMP# BIT(1)INIT(
              6864            '0'B),2 XTEND# BIT(1)INIT('0'B),2 CVOL#
              6865    1  BIT(1)INIT('0'B),2 BLOCKED# BIT(1)INIT('1'B),2 SPANNED# BIT(1)INIT('1'B),2 BUPM# BIT
PL6.E3A0      #001=Z9A8$DCBS File=Z9A8.:Z8A6TSI                                  SAT 08/09/97 13:36 Page:51
              6865            (2)INIT('01'B),2 ORG# UBIN(9)UNAL INIT
              6866    1   (1),2 DVTYPE# REDEF ORG# UBIN(9)UNAL,2 FUN# UBIN(9)UNAL INIT(3),2 ASN# UBIN(9)UNAL
              6866            INIT(3),2 DISP# UBIN(9)UNAL INIT(2),2
              6867    1  BLKL# UBIN(18)UNAL INIT(0),2 RECL# UBIN(18)UNAL INIT(0),2 FSN# UBIN(18)UNAL INIT(0),
              6867            2 DBGDCBNO# REDEF FSN# UBIN(18)UNAL,2
              6868    1   DBGSYSID# REDEF FSN# UBIN(18)UNAL,2 SYSID# REDEF FSN# UBIN(18)UNAL,2 FEXTX UBIN(9)
              6868            UNAL INIT(0),2 BOL# UBIN(9)UNAL INIT(0),2 EXPIRE#
              6869    1  SBIN INIT(0),2 KEYX# UBIN(18)UNAL INIT(0),2 KEYL# UBIN(9)UNAL INIT(0),2 ACS# UBIN(9)
              6869            UNAL INIT(1),2 XTNSIZE# UBIN(18)
              6870    1   UNAL INIT(2),2 LSLIDE# UBIN(9)UNAL INIT(510),2 LRDL0# UBIN(9)UNAL INIT(3),2 SPARE#
              6870            UBIN(9)UNAL INIT(1),2 WSR# UBIN
              6871    1  (9)UNAL INIT(0),2 ATTR# BIT(18) INIT('0'B)/* '0'B */,2 ATTR REDEF ATTR#,3 DENS# BIT(
              6871            9),3
              6872    1  GRLGL# BIT(1),3 TRANSLGL# BIT(1),3 NOXLATE# BIT(1),3 UPPERCASE# BIT(1),3 NATL# BIT(1
              6872            ),3 TRUOVRPRT# BIT(1),3 APL# BIT(1),3 BIN# BIT
              6873    1   (1),3 LOWERCASE# BIT(1),2 TDFLG REDEF ATTR#/*'0'B */,3 SDSK# BIT(1),3 * BIT(17),2
              6873            IXTNSIZE# SBIN WORD INIT
              6874    1   (2),2 CONNCT# REDEF IXTNSIZE# SBIN,2 NRECS# SBIN INIT(0),2 CHANTIME# REDEF NRECS#
              6874            SBIN,2 VOL# UBIN(9)UNAL INIT(0),2
              6875    1  MAXVOL# UBIN(9)UNAL INIT(0),2 CHAIN# UBIN(9)UNAL INIT(0),2 DENSITY# UBIN(9)UNAL INIT
              6875            (0),2 LINES# UBIN(18)UNAL INIT
              6876    1   (0),2 DVFC# CHAR(1)INIT(BINASC(0)),2 SEQ# BIT(1)INIT('0'B),2 SEQCOL# UBIN(8)UNAL
              6876            INIT(73),2 SEQID# CHAR(4)INIT(' '),2 HEADER$
              6877    1  PTR INIT(ADDR(NIL)),2 DQH$ REDEF HEADER$ PTR,2 TAB$ PTR INIT(ADDR(NIL)),2 DCT$ REDEF
              6877            TAB$ PTR,2 FORM$ PTR INIT(ADDR(NIL)),2 MPC$
              6878    1   REDEF FORM$ PTR,2 LDCTX UBIN(18)UNAL INIT(0),2 SETX UBIN(18)UNAL INIT(0),2 DEVADR
              6878            REDEF SETX,3 DVN# UBIN(6)UNAL,3 IOM# UBIN(3)UNAL,3
              6879    1  CHAN# UBIN(9)CALIGNED,2 * BIT(9)CALIGNED INIT('0'B),2 JRNLBYPASS# BIT(1)INIT('0'B),2
              6879            * BIT(4)INIT('0'B),2 GHSTACS# UBIN(4)INIT
              6880    1   (0)UNAL,2 ALTKEYX UBIN(18)UNAL INIT(0),2 CODE16$ PTR INIT(ADDR(NIL)),2 FPRGX UBIN
              6880            HALF HALIGNED INIT(0),2 FIELDX UBIN HALF
              6881    1   HALIGNED INIT(0),2 EVENT SBIN INIT(0),2 VFCCHAR# CHAR(1)CALIGNED INIT(BINASC(0)),2
              6881            KEYTYPE# UBIN(9)CALIGNED INIT(0),2 KFIELDX
              6882    1  UBIN(18)HALIGNED INIT(0),2 STARTX UBIN(18)HALIGNED INIT(0),2 ACTPOS UBIN(18)HALIGNED
              6882            INIT(0),2 AUTHFFLG REDEF ACTPOS,3 READ# BIT(1),
              6883    1   3 DELR# BIT(1),3 WNEW# BIT(1),3 UPD# BIT(1),3 DELF# BIT(1),3 NOLIST# BIT(1),3
              6883            REATTR# BIT(1),3 EXEC# BIT(1),3 CREATE# BIT(1),3 AU#
PL6.E3A0      #001=Z9A8$DCBS File=Z9A8.:Z8A6TSI                                  SAT 08/09/97 13:36 Page:52
              6884    1   BIT(1),3 AURD# BIT(1),3 TCTL# BIT(1),3 * BIT(6),2 DCB# UBIN(9)CALIGNED INIT(0),2 *
              6884            BIT(14)INIT('0'B),2 ANSISPANSEQ# BIT(1)INIT
              6885    1   ('1'B),2 PATH,3 IOM# UBIN(3)UNAL INIT(0),3 CHAN# UBIN(9)UNAL INIT(0),2 IRRECX UBIN(
              6885            18)HALIGNED INIT(0),2 FLDID UBIN(18)
              6886    1   HALIGNED INIT(0),2 BADARS# REDEF FLDID UBIN(18)HALIGNED,2 SEED# BIT(36)INIT('0'B),2
              6886            * UBIN INIT(0),2 FEXT BIT(1)INIT('0'B),2 STARF
              6887    1   BIT(1)INIT('0'B),2 SHARED BIT(1)INIT('0'B),2 FMOD BIT(1)INIT('0'B),2 GTYP UBIN(3)
              6887            UNAL INIT(0),2 EOP UBIN(2)UNAL INIT(0),2 AMFLG,3
              6888    1   ACCF BIT(1)INIT('0'B),3 ACSF BIT(1)INIT('0'B),3 INSF BIT(1)INIT('0'B),3 USRF BIT(1)
              6888            INIT('0'B),3 SNLF BIT(1)INIT('0'B),3 PROF BIT(1)
              6889    1  INIT('0'B),2 SEZ_OK BIT(1)INIT('0'B),2 MUST_CVOL BIT(1)INIT('0'B),2 NEW_FSECT BIT(1)
              6889            INIT('0'B),2 NOEOF BIT(1)INIT('0'B),2 MOUNT
              6890    1   REDEF NOEOF BIT(1),2 OHDR BIT(1)INIT('0'B),2 LDFLG REDEF OHDR BIT(1),2 SPAN BIT(1)
              6890            INIT('0'B),2 OWNER BIT(1)INIT('0'B),2 RA BIT(1)
              6891    1   INIT('0'B),2 RPOS BIT(1)INIT('0'B),2 STARX UBIN(3)UNAL INIT(0),2 CACHE BIT(1)INIT(
              6891            '0'B),2 ENQF BIT(1)INIT('0'B),2 GRPOS BIT(1)INIT
              6892    1  ('0'B),2 CONT BIT(1)INIT('0'B),2 WAIT UBIN(1)UNAL INIT(1),2 TRNC UBIN(2)UNAL INIT(0)
              6892            ,2 AFTRBLK BIT(1)INIT('0'B),2 LSTBLK BIT(1)INIT
              6893    1  ('0'B),2 BORROW SBIN INIT(0),2 LASTKEY$ REDEF BORROW PTR,2 LASTKEY REDEF BORROW SBIN
              6893            ,2 FTAM REDEF BORROW,3 CTX UBIN HALF UNAL,3 USR
              6894    1   UBIN BYTE UNAL,3 PMME UBIN(9)UNAL,2 CFU$ PTR INIT(ADDR(NIL)),2 TDALVL UBIN(3)UNAL
              6894            INIT(0),2 LVL UBIN(3)UNAL INIT(0),2 LPOOL REDEF
              6895    1   LVL UBIN(3)UNAL,2 WRCMP BIT(1)INIT('0'B),2 WCDATA BIT(1)INIT('0'B),2 UCOUT BIT(1)
              6895            INIT('0'B),2 TAPTYP,3 RWASC BIT(1)INIT('0'B),3 CP6F
              6896    1   BIT(1)INIT('0'B),3 USRBUF BIT(1)INIT('0'B),3 HAVLASTKEY BIT(1)INIT('0'B),3 NOCVOL
              6896            BIT(1)INIT('0'B),3 MANAGED BIT(1)INIT('0'B),3
              6897    1   PASTFM BIT(1)INIT('0'B),3 * BIT(2)INIT('0'B),2 CRECX UBIN(18)UNAL INIT(0),2 CBUFNUM
              6897            UBIN(3)UNAL INIT(0),2 IORG UBIN(6)UNAL INIT(0),2
              6898    1   TDA UBIN(27)UNAL INIT(0),2 BYTESLEFT REDEF TDA UBIN(27)UNAL,2 CRECNO SBIN INIT(0),2
              6898            PRECNO SBIN INIT(0),2 CSEED REDEF PRECNO SBIN,2
              6899    1  HASH UBIN(27)UNAL INIT(0),2 FDCM UBIN(9)UNAL INIT(0),2 FCN(0:1),3 F BIT(1)INIT('0'B,
              6899            '0'B),3 CNT UBIN(8)UNAL INIT(0,0),2 BLKLEN UBIN
              6900    1   (18)UNAL INIT(0),2 UB$ PTR INIT(ADDR(NIL)),2 UBYTES UBIN INIT(0),2 FSECT UBIN(18)
              6900            UNAL INIT(0),2 INDX REDEF FSECT UBIN(18)UNAL,2
              6901    1   FPSTR UBIN(9)UNAL INIT(0),2 STR# UBIN(9)UNAL INIT(0),2 NRECX UBIN(18)UNAL INIT(0),2
              6901            MODCNT REDEF NRECX UBIN(18)UNAL,2 SEGX UBIN(18)
              6902    1   UNAL INIT(0),2 GDISP UBIN INIT(0),2 LOGSEC BIT(1)INIT('0'B),2 PRIVOPN BIT(1)INIT(
PL6.E3A0      #001=Z9A8$DCBS File=Z9A8.:Z8A6TSI                                  SAT 08/09/97 13:36 Page:53
              6902            '0'B),2 OLDIOERR UBIN(2)UNAL INIT(0),2 * BIT(21)
              6903    1   INIT('0'B),2 REALSPAN BIT(1),2 DECRYPT BIT(1)INIT('0'B),2 PGINGRAN UBIN BYTE UNAL
              6903            INIT(0),2 IFMT UBIN(9)UNAL INIT(0),2 MEDIA UBIN(9)
              6904    1  UNAL INIT(0),2 IWL,3 TABIWL BIT(1)INIT('0'B),3 SEQIWL BIT(1)INIT('0'B),3 HDRIWL BIT(
              6904            1)INIT('0'B),3 * BIT(3)INIT('0'B),2 CTLCMDIN BIT
              6905    1   (1)INIT('0'B),2 UNIQUEBLD BIT(1)INIT('0'B),2 UPDCNT BIT(1)INIT('0'B),2 IASN UBIN(9)
              6905            UNAL INIT(0),2 MOVED SBIN(18)HALIGNED,2 * UBIN(9)
              6906    1   CALIGNED,2 CX UBIN(9)CALIGNED,2 CWORD CHAR(4)ALIGNED,2 RCSZ UBIN INIT(0),2 FEPSIZ
              6906            REDEF RCSZ,3 BUF UBIN HALF UNAL,3 KEY UBIN HALF
              6907    1  UNAL,2 ID ALIGNED,3 GX UBIN(10)UNAL,3 DA UBIN(26)UNAL,2 FEPIO,3 EVENT UBIN INIT(0),3
              6907            KEYX/* 0 */ UBIN
              6908    1  HALF HALIGNED INIT(0),3 BUFX UBIN HALF HALIGNED INIT(0),3 BPP(0:1)BIT(18)INIT('0'B*0
              6908            ),3 KPP(0:1)BIT(18)INIT('0'B*0),2 AGE SBIN INIT
              6909    1   (0),2 BFR(0:4),3 BUFUP BIT(1)INIT('0'B*0),3 SCRUB BIT(1)INIT('0'B*0),3 CHNG BIT(1)
              6909            INIT('0'B*0),3 CVM BIT(1)INIT('0'B*0),3 BUFX UBIN
              6910    1   (5)UNAL INIT(0*0),3 DA UBIN(27)UNAL INIT(0*0),2 BFR1(0:4)ALIGNED,3 FLAGS,4
              6910            ONE_WORD_HEADER BIT(1)INIT('0'B*0),4 * BIT(8)INIT
              6911    1   ('0'B*0),3 SIZ UBIN(9)UNAL INIT(0*0),3 CX UBIN(18)UNAL INIT(0*0),2 FEPIO2(0:3)UBIN
              6911            ALIGNED,2 FEPIO3(0:3)UBIN ALIGNED,2 * SBIN INIT
              6912    1  (29127),2 DCBNAME DALIGNED,3 X UBIN(3)UNAL,3 S BIT(1),3 L UBIN(5)UNAL,3 N CHAR(M$SO.
              6912            DCBNAME.L);
       73     6914        %PAGE(ARG=M$OU);
              6915        %LSET LISTDIR='0'B;

              6927    1   /*******************************************************************************
              6928    1   *                                                                              *
              6929    1   *        M$OU              M$OU                                                  *
              6930    1   *                                                                              *
              6931    1   *******************************************************************************/

       74     6935        /*
       75     6936           Object output file
       76     6937           */
       77     6938        %M$DCB (DCBN=M$OU,
       78     6939        ASN=FILE,
       79     6940        ACS=DIRECT,
       80     6941        ORG=KEYED,
PL6.E3A0      #001=Z9A8$DCBS File=Z9A8.:Z8A6TSI                                  SAT 08/09/97 13:36 Page:54
       81     6942        NAME='*G',
       82     6943        TYPE='OC',                              /*#26809*/
       83     6944        FUN=CREATE,
       84     6945        EXIST=NEWFILE,
       85     6946        DISP=NAMED);
              6947    1  DCL 1 M$OU DCB,2 ARS# SBIN INIT(0),2 FLPW# REDEF ARS# BIT(36),2 * UBIN INIT(0),2 TYC
              6947            ,3 EGV# BIT(1)INIT('0'B*0),3 OPER# BIT(1)
              6948    1   INIT('0'B*0),3 EOT# BIT(1)INIT('0'B*0),3 BOT# BIT(1)INIT('0'B*0),3 BOF# BIT(1)INIT(
              6948            '0'B*0),3 BLNKTP# BIT(1)INIT('0'B*0),3 EOF# BIT
              6949    1   (1)INIT('0'B*0),3 LD# BIT(1)INIT('0'B*0),3 IOERR# BIT(1)INIT('0'B*0),3 DI# BIT(1)
              6949            INIT('0'B*0),3 EOD# BIT(1)INIT('0'B*0),3 MTRAP# BIT
              6950    1  (1)INIT('0'B*0),3 LDISC# BIT(1)INIT('0'B*0),3 DACT# BIT(1)INIT('0'B*0),3 TIMO# BIT(1
              6950            )INIT('0'B*0),3 PROT# BIT(1)INIT('0'B*0),3 FRAW#
              6951    1   BIT(1)INIT('0'B*0),3 LAST# BIT(1)INIT('0'B*0),3 CDALRT# BIT(1)INIT('0'B*0),3 XTRARD
              6951            BIT(1)INIT('0'B*0),3 CGKEYV BIT(1)INIT('0'B*0),3
              6952    1   CGLWRV BIT(1)INIT('0'B*0),3 CGFULL BIT(1)INIT('0'B*0),3 CGCRCW BIT(1)INIT('0'B*0),3
              6952            CGCWRV BIT(1)INIT('0'B*0),3 * BIT(11)INIT
              6953    1   ('0'B*0),2 DVBYTE,3 TOP# BIT(1)INIT('0'B),3 * BIT(1)INIT('0'B),3 VFC# BIT(1)INIT(
              6953            '0'B),3 BIN# BIT(1)INIT('0'B),3 TRANS# BIT(1)INIT
              6954    1   ('0'B),3 * BIT(3)INIT('0'B),2 BUPF BIT(1)INIT('0'B),2 RDL0# UBIN(9)UNAL INIT(0),2
              6954            SLIDE# UBIN(9)UNAL INIT(0),2 EOMCHAR# CHAR(1)INIT
              6955    1  (BITASC('501'O)),2 EOMVAL# REDEF EOMCHAR# UNAL,3 VFLG# BIT(1),3 VALUE# UBIN(8)UNAL,2
              6955            FFLG,3 READ# BIT(1)INIT('0'B),3 DELR# BIT(1)
              6956    1  INIT('0'B),3 WNEW# BIT(1)INIT('0'B),3 UPD# BIT(1)INIT('0'B),3 DELF# BIT(1)INIT('0'B)
              6956            ,3 NOLIST# BIT(1)INIT('0'B),3 REATTR# BIT(1)INIT
              6957    1   ('0'B),3 EXEC# BIT(1)INIT('0'B),3 CREATE# BIT(1)INIT('0'B),3 AU# BIT(1)INIT('0'B),3
              6957            AURD# BIT(1)INIT('0'B),3 TCTL# BIT(1)INIT('0'B),
              6958    1  3 * BIT(6)INIT('0'B),2 DDEV,3 LP# BIT(1)INIT('0'B),3 CP# BIT(1)INIT('0'B),3 IC# BIT(
              6958            1)INIT('0'B),3 XEQ# BIT(1)INIT('0'B),3 UCOUT#
              6959    1   BIT(1)INIT('0'B),3 GR# BIT(1)INIT('0'B),3 * BIT(3)INIT('0'B),2 WIDTH# UBIN(9)UNAL
              6959            INIT(0),2 RETRYCNT# UBIN(18)HALIGNED INIT(0),2
              6960    1   DESC,3 DELF# BIT(1)INIT('0'B),3 NOLIST# BIT(1)INIT('0'B),3 BUF# BIT(1)INIT('0'B),3
              6960            ODSTOW# BIT(1)INIT('0'B),3 BAD# BIT(1)INIT('0'B),
              6961    1  3 QS# BIT(1)INIT('0'B),3 * BIT(2)INIT('0'B),3 ARCHIVE# BIT(1)INIT('0'B),3 BUPM# BIT(
              6961            1)INIT('0'B),3 NBUF# BIT(1)INIT('0'B),3 ACTIVE#
              6962    1  BIT(1)INIT('0'B),3 TPB# BIT(1)INIT('0'B),3 TERMINATE# BIT(1)INIT('0'B),3 FETCH# BIT(
              6962            1)INIT('0'B),3 * BIT(3)INIT('0'B),2 SETSTA$ PTR
PL6.E3A0      #001=Z9A8$DCBS File=Z9A8.:Z8A6TSI                                  SAT 08/09/97 13:36 Page:55
              6963    1  INIT(ADDR(NIL)),2 LASTSTA$ PTR INIT(ADDR(NIL)),2 TDEXTST$ REDEF LASTSTA$ PTR,2 NAME#
              6963            ,3 L UBIN(9)UNAL INIT(SIZEC('*G')),3 C CHAR(31)
              6964    1   INIT('*G'),3 C17 REDEF C UNAL,4 CC CHAR(17),4 * CHAR(14),2 ACCT# CHAR(8)INIT(' '),2
              6964            PASS# CHAR(8)INIT(' '),2 PSN# CHAR(6)INIT
              6965    1   (' '),2 TYPE# CHAR(2)INIT('OC'),2 RES# CHAR(4)INIT('ME'),2 RESNT REDEF RES# UNAL,3
              6965            TYP CHAR(2),3 NUM CHAR(2),2 WSN# CHAR(8)ALIGNED
              6966    1   INIT(' '),2 TDSTAT# REDEF WSN# BIT(72),2 IGNOREFSN# BIT(1)INIT('0'B),2 AU# BIT(1)
              6966            INIT('0'B),2 QISS# BIT(1)INIT('0'B),2 LOAD# BIT
              6967    1  (1)INIT('0'B),2 IOERROK# BIT(1)INIT('0'B),2 AMRSETSTA BIT(1)INIT('0'B),2 LSTAOR# BIT
              6967            (1)INIT('0'B),2 VOLACCESS# UBIN(2)UNAL INIT
              6968    1   (0),2 UOPT#(0:8)BIT(1)INIT('0'B,'0'B,'0'B,'0'B,'0'B,'0'B,'0'B,'0'B,'0'B),2 PASSF#
              6968            BIT(1)INIT('0'B),2 CNVRT# BIT(1)
              6969    1  INIT('1'B),2 EBCDIC# BIT(1)INIT('0'B),2 FCI# BIT(1)INIT('0'B),2 FCD# BIT(1)INIT('0'B
              6969            ),2 AMR# BIT(1)INIT('0'B),2 CTG# BIT(1)INIT
              6970    1  ('0'B),2 EXIST# UBIN(2)UNAL INIT(3),2 SHARE# UBIN(2)UNAL INIT(0),2 COMP# BIT(1)INIT(
              6970            '0'B),2 XTEND# BIT(1)INIT('0'B),2 CVOL#
              6971    1  BIT(1)INIT('0'B),2 BLOCKED# BIT(1)INIT('1'B),2 SPANNED# BIT(1)INIT('1'B),2 BUPM# BIT
              6971            (2)INIT('01'B),2 ORG# UBIN(9)UNAL INIT
              6972    1   (2),2 DVTYPE# REDEF ORG# UBIN(9)UNAL,2 FUN# UBIN(9)UNAL INIT(3),2 ASN# UBIN(9)UNAL
              6972            INIT(1),2 DISP# UBIN(9)UNAL INIT(2),2
              6973    1  BLKL# UBIN(18)UNAL INIT(0),2 RECL# UBIN(18)UNAL INIT(0),2 FSN# UBIN(18)UNAL INIT(0),
              6973            2 DBGDCBNO# REDEF FSN# UBIN(18)UNAL,2
              6974    1   DBGSYSID# REDEF FSN# UBIN(18)UNAL,2 SYSID# REDEF FSN# UBIN(18)UNAL,2 FEXTX UBIN(9)
              6974            UNAL INIT(0),2 BOL# UBIN(9)UNAL INIT(0),2 EXPIRE#
              6975    1  SBIN INIT(0),2 KEYX# UBIN(18)UNAL INIT(0),2 KEYL# UBIN(9)UNAL INIT(0),2 ACS# UBIN(9)
              6975            UNAL INIT(2),2 XTNSIZE# UBIN(18)
              6976    1   UNAL INIT(2),2 LSLIDE# UBIN(9)UNAL INIT(510),2 LRDL0# UBIN(9)UNAL INIT(3),2 SPARE#
              6976            UBIN(9)UNAL INIT(1),2 WSR# UBIN
              6977    1  (9)UNAL INIT(0),2 ATTR# BIT(18) INIT('0'B)/* '0'B */,2 ATTR REDEF ATTR#,3 DENS# BIT(
              6977            9),3
              6978    1  GRLGL# BIT(1),3 TRANSLGL# BIT(1),3 NOXLATE# BIT(1),3 UPPERCASE# BIT(1),3 NATL# BIT(1
              6978            ),3 TRUOVRPRT# BIT(1),3 APL# BIT(1),3 BIN# BIT
              6979    1   (1),3 LOWERCASE# BIT(1),2 TDFLG REDEF ATTR#/*'0'B */,3 SDSK# BIT(1),3 * BIT(17),2
              6979            IXTNSIZE# SBIN WORD INIT
              6980    1   (2),2 CONNCT# REDEF IXTNSIZE# SBIN,2 NRECS# SBIN INIT(0),2 CHANTIME# REDEF NRECS#
              6980            SBIN,2 VOL# UBIN(9)UNAL INIT(0),2
              6981    1  MAXVOL# UBIN(9)UNAL INIT(0),2 CHAIN# UBIN(9)UNAL INIT(0),2 DENSITY# UBIN(9)UNAL INIT
PL6.E3A0      #001=Z9A8$DCBS File=Z9A8.:Z8A6TSI                                  SAT 08/09/97 13:36 Page:56
              6981            (0),2 LINES# UBIN(18)UNAL INIT
              6982    1   (0),2 DVFC# CHAR(1)INIT(BINASC(0)),2 SEQ# BIT(1)INIT('0'B),2 SEQCOL# UBIN(8)UNAL
              6982            INIT(73),2 SEQID# CHAR(4)INIT(' '),2 HEADER$
              6983    1  PTR INIT(ADDR(NIL)),2 DQH$ REDEF HEADER$ PTR,2 TAB$ PTR INIT(ADDR(NIL)),2 DCT$ REDEF
              6983            TAB$ PTR,2 FORM$ PTR INIT(ADDR(NIL)),2 MPC$
              6984    1   REDEF FORM$ PTR,2 LDCTX UBIN(18)UNAL INIT(0),2 SETX UBIN(18)UNAL INIT(0),2 DEVADR
              6984            REDEF SETX,3 DVN# UBIN(6)UNAL,3 IOM# UBIN(3)UNAL,3
              6985    1  CHAN# UBIN(9)CALIGNED,2 * BIT(9)CALIGNED INIT('0'B),2 JRNLBYPASS# BIT(1)INIT('0'B),2
              6985            * BIT(4)INIT('0'B),2 GHSTACS# UBIN(4)INIT
              6986    1   (0)UNAL,2 ALTKEYX UBIN(18)UNAL INIT(0),2 CODE16$ PTR INIT(ADDR(NIL)),2 FPRGX UBIN
              6986            HALF HALIGNED INIT(0),2 FIELDX UBIN HALF
              6987    1   HALIGNED INIT(0),2 EVENT SBIN INIT(0),2 VFCCHAR# CHAR(1)CALIGNED INIT(BINASC(0)),2
              6987            KEYTYPE# UBIN(9)CALIGNED INIT(0),2 KFIELDX
              6988    1  UBIN(18)HALIGNED INIT(0),2 STARTX UBIN(18)HALIGNED INIT(0),2 ACTPOS UBIN(18)HALIGNED
              6988            INIT(0),2 AUTHFFLG REDEF ACTPOS,3 READ# BIT(1),
              6989    1   3 DELR# BIT(1),3 WNEW# BIT(1),3 UPD# BIT(1),3 DELF# BIT(1),3 NOLIST# BIT(1),3
              6989            REATTR# BIT(1),3 EXEC# BIT(1),3 CREATE# BIT(1),3 AU#
              6990    1   BIT(1),3 AURD# BIT(1),3 TCTL# BIT(1),3 * BIT(6),2 DCB# UBIN(9)CALIGNED INIT(0),2 *
              6990            BIT(14)INIT('0'B),2 ANSISPANSEQ# BIT(1)INIT
              6991    1   ('1'B),2 PATH,3 IOM# UBIN(3)UNAL INIT(0),3 CHAN# UBIN(9)UNAL INIT(0),2 IRRECX UBIN(
              6991            18)HALIGNED INIT(0),2 FLDID UBIN(18)
              6992    1   HALIGNED INIT(0),2 BADARS# REDEF FLDID UBIN(18)HALIGNED,2 SEED# BIT(36)INIT('0'B),2
              6992            * UBIN INIT(0),2 FEXT BIT(1)INIT('0'B),2 STARF
              6993    1   BIT(1)INIT('0'B),2 SHARED BIT(1)INIT('0'B),2 FMOD BIT(1)INIT('0'B),2 GTYP UBIN(3)
              6993            UNAL INIT(0),2 EOP UBIN(2)UNAL INIT(0),2 AMFLG,3
              6994    1   ACCF BIT(1)INIT('0'B),3 ACSF BIT(1)INIT('0'B),3 INSF BIT(1)INIT('0'B),3 USRF BIT(1)
              6994            INIT('0'B),3 SNLF BIT(1)INIT('0'B),3 PROF BIT(1)
              6995    1  INIT('0'B),2 SEZ_OK BIT(1)INIT('0'B),2 MUST_CVOL BIT(1)INIT('0'B),2 NEW_FSECT BIT(1)
              6995            INIT('0'B),2 NOEOF BIT(1)INIT('0'B),2 MOUNT
              6996    1   REDEF NOEOF BIT(1),2 OHDR BIT(1)INIT('0'B),2 LDFLG REDEF OHDR BIT(1),2 SPAN BIT(1)
              6996            INIT('0'B),2 OWNER BIT(1)INIT('0'B),2 RA BIT(1)
              6997    1   INIT('0'B),2 RPOS BIT(1)INIT('0'B),2 STARX UBIN(3)UNAL INIT(0),2 CACHE BIT(1)INIT(
              6997            '0'B),2 ENQF BIT(1)INIT('0'B),2 GRPOS BIT(1)INIT
              6998    1  ('0'B),2 CONT BIT(1)INIT('0'B),2 WAIT UBIN(1)UNAL INIT(1),2 TRNC UBIN(2)UNAL INIT(0)
              6998            ,2 AFTRBLK BIT(1)INIT('0'B),2 LSTBLK BIT(1)INIT
              6999    1  ('0'B),2 BORROW SBIN INIT(0),2 LASTKEY$ REDEF BORROW PTR,2 LASTKEY REDEF BORROW SBIN
              6999            ,2 FTAM REDEF BORROW,3 CTX UBIN HALF UNAL,3 USR
PL6.E3A0      #001=Z9A8$DCBS File=Z9A8.:Z8A6TSI                                  SAT 08/09/97 13:36 Page:57
              7000    1   UBIN BYTE UNAL,3 PMME UBIN(9)UNAL,2 CFU$ PTR INIT(ADDR(NIL)),2 TDALVL UBIN(3)UNAL
              7000            INIT(0),2 LVL UBIN(3)UNAL INIT(0),2 LPOOL REDEF
              7001    1   LVL UBIN(3)UNAL,2 WRCMP BIT(1)INIT('0'B),2 WCDATA BIT(1)INIT('0'B),2 UCOUT BIT(1)
              7001            INIT('0'B),2 TAPTYP,3 RWASC BIT(1)INIT('0'B),3 CP6F
              7002    1   BIT(1)INIT('0'B),3 USRBUF BIT(1)INIT('0'B),3 HAVLASTKEY BIT(1)INIT('0'B),3 NOCVOL
              7002            BIT(1)INIT('0'B),3 MANAGED BIT(1)INIT('0'B),3
              7003    1   PASTFM BIT(1)INIT('0'B),3 * BIT(2)INIT('0'B),2 CRECX UBIN(18)UNAL INIT(0),2 CBUFNUM
              7003            UBIN(3)UNAL INIT(0),2 IORG UBIN(6)UNAL INIT(0),2
              7004    1   TDA UBIN(27)UNAL INIT(0),2 BYTESLEFT REDEF TDA UBIN(27)UNAL,2 CRECNO SBIN INIT(0),2
              7004            PRECNO SBIN INIT(0),2 CSEED REDEF PRECNO SBIN,2
              7005    1  HASH UBIN(27)UNAL INIT(0),2 FDCM UBIN(9)UNAL INIT(0),2 FCN(0:1),3 F BIT(1)INIT('0'B,
              7005            '0'B),3 CNT UBIN(8)UNAL INIT(0,0),2 BLKLEN UBIN
              7006    1   (18)UNAL INIT(0),2 UB$ PTR INIT(ADDR(NIL)),2 UBYTES UBIN INIT(0),2 FSECT UBIN(18)
              7006            UNAL INIT(0),2 INDX REDEF FSECT UBIN(18)UNAL,2
              7007    1   FPSTR UBIN(9)UNAL INIT(0),2 STR# UBIN(9)UNAL INIT(0),2 NRECX UBIN(18)UNAL INIT(0),2
              7007            MODCNT REDEF NRECX UBIN(18)UNAL,2 SEGX UBIN(18)
              7008    1   UNAL INIT(0),2 GDISP UBIN INIT(0),2 LOGSEC BIT(1)INIT('0'B),2 PRIVOPN BIT(1)INIT(
              7008            '0'B),2 OLDIOERR UBIN(2)UNAL INIT(0),2 * BIT(21)
              7009    1   INIT('0'B),2 REALSPAN BIT(1),2 DECRYPT BIT(1)INIT('0'B),2 PGINGRAN UBIN BYTE UNAL
              7009            INIT(0),2 IFMT UBIN(9)UNAL INIT(0),2 MEDIA UBIN(9)
              7010    1  UNAL INIT(0),2 IWL,3 TABIWL BIT(1)INIT('0'B),3 SEQIWL BIT(1)INIT('0'B),3 HDRIWL BIT(
              7010            1)INIT('0'B),3 * BIT(3)INIT('0'B),2 CTLCMDIN BIT
              7011    1   (1)INIT('0'B),2 UNIQUEBLD BIT(1)INIT('0'B),2 UPDCNT BIT(1)INIT('0'B),2 IASN UBIN(9)
              7011            UNAL INIT(0),2 MOVED SBIN(18)HALIGNED,2 * UBIN(9)
              7012    1   CALIGNED,2 CX UBIN(9)CALIGNED,2 CWORD CHAR(4)ALIGNED,2 RCSZ UBIN INIT(0),2 FEPSIZ
              7012            REDEF RCSZ,3 BUF UBIN HALF UNAL,3 KEY UBIN HALF
              7013    1  UNAL,2 ID ALIGNED,3 GX UBIN(10)UNAL,3 DA UBIN(26)UNAL,2 FEPIO,3 EVENT UBIN INIT(0),3
              7013            KEYX/* 0 */ UBIN
              7014    1  HALF HALIGNED INIT(0),3 BUFX UBIN HALF HALIGNED INIT(0),3 BPP(0:1)BIT(18)INIT('0'B*0
              7014            ),3 KPP(0:1)BIT(18)INIT('0'B*0),2 AGE SBIN INIT
              7015    1   (0),2 BFR(0:4),3 BUFUP BIT(1)INIT('0'B*0),3 SCRUB BIT(1)INIT('0'B*0),3 CHNG BIT(1)
              7015            INIT('0'B*0),3 CVM BIT(1)INIT('0'B*0),3 BUFX UBIN
              7016    1   (5)UNAL INIT(0*0),3 DA UBIN(27)UNAL INIT(0*0),2 BFR1(0:4)ALIGNED,3 FLAGS,4
              7016            ONE_WORD_HEADER BIT(1)INIT('0'B*0),4 * BIT(8)INIT
              7017    1   ('0'B*0),3 SIZ UBIN(9)UNAL INIT(0*0),3 CX UBIN(18)UNAL INIT(0*0),2 FEPIO2(0:3)UBIN
              7017            ALIGNED,2 FEPIO3(0:3)UBIN ALIGNED,2 * SBIN INIT
              7018    1  (29127),2 DCBNAME DALIGNED,3 X UBIN(3)UNAL,3 S BIT(1),3 L UBIN(5)UNAL,3 N CHAR(M$OU.
PL6.E3A0      #001=Z9A8$DCBS File=Z9A8.:Z8A6TSI                                  SAT 08/09/97 13:36 Page:58
              7018            DCBNAME.L);
       86     7020        %PAGE(ARG=M$ES);
              7021        %LSET LISTDIR='0'B;

              7033    1   /*******************************************************************************
              7034    1   *                                                                              *
              7035    1   *        M$ES              M$ES                                                  *
              7036    1   *                                                                              *
              7037    1   *******************************************************************************/

       87     7041        /*
       88     7042           Extended source file
       89     7043           */
       90     7044        %M$DCB(DCBN=M$ES,
       91     7045        FUN=CREATE,
       92     7046        ACS=SEQUEN,
       93     7047        CTG=NO,
       94     7048        NAME='*ES',
       95     7049        ASN=FILE,
       96     7050        ORG=CONSEC);
              7051    1  DCL 1 M$ES DCB,2 ARS# SBIN INIT(0),2 FLPW# REDEF ARS# BIT(36),2 * UBIN INIT(0),2 TYC
              7051            ,3 EGV# BIT(1)INIT('0'B*0),3 OPER# BIT(1)
              7052    1   INIT('0'B*0),3 EOT# BIT(1)INIT('0'B*0),3 BOT# BIT(1)INIT('0'B*0),3 BOF# BIT(1)INIT(
              7052            '0'B*0),3 BLNKTP# BIT(1)INIT('0'B*0),3 EOF# BIT
              7053    1   (1)INIT('0'B*0),3 LD# BIT(1)INIT('0'B*0),3 IOERR# BIT(1)INIT('0'B*0),3 DI# BIT(1)
              7053            INIT('0'B*0),3 EOD# BIT(1)INIT('0'B*0),3 MTRAP# BIT
              7054    1  (1)INIT('0'B*0),3 LDISC# BIT(1)INIT('0'B*0),3 DACT# BIT(1)INIT('0'B*0),3 TIMO# BIT(1
              7054            )INIT('0'B*0),3 PROT# BIT(1)INIT('0'B*0),3 FRAW#
              7055    1   BIT(1)INIT('0'B*0),3 LAST# BIT(1)INIT('0'B*0),3 CDALRT# BIT(1)INIT('0'B*0),3 XTRARD
              7055            BIT(1)INIT('0'B*0),3 CGKEYV BIT(1)INIT('0'B*0),3
              7056    1   CGLWRV BIT(1)INIT('0'B*0),3 CGFULL BIT(1)INIT('0'B*0),3 CGCRCW BIT(1)INIT('0'B*0),3
              7056            CGCWRV BIT(1)INIT('0'B*0),3 * BIT(11)INIT
              7057    1   ('0'B*0),2 DVBYTE,3 TOP# BIT(1)INIT('0'B),3 * BIT(1)INIT('0'B),3 VFC# BIT(1)INIT(
              7057            '0'B),3 BIN# BIT(1)INIT('0'B),3 TRANS# BIT(1)INIT
              7058    1   ('0'B),3 * BIT(3)INIT('0'B),2 BUPF BIT(1)INIT('0'B),2 RDL0# UBIN(9)UNAL INIT(0),2
              7058            SLIDE# UBIN(9)UNAL INIT(0),2 EOMCHAR# CHAR(1)INIT
              7059    1  (BITASC('501'O)),2 EOMVAL# REDEF EOMCHAR# UNAL,3 VFLG# BIT(1),3 VALUE# UBIN(8)UNAL,2
PL6.E3A0      #001=Z9A8$DCBS File=Z9A8.:Z8A6TSI                                  SAT 08/09/97 13:36 Page:59
              7059            FFLG,3 READ# BIT(1)INIT('0'B),3 DELR# BIT(1)
              7060    1  INIT('0'B),3 WNEW# BIT(1)INIT('0'B),3 UPD# BIT(1)INIT('0'B),3 DELF# BIT(1)INIT('0'B)
              7060            ,3 NOLIST# BIT(1)INIT('0'B),3 REATTR# BIT(1)INIT
              7061    1   ('0'B),3 EXEC# BIT(1)INIT('0'B),3 CREATE# BIT(1)INIT('0'B),3 AU# BIT(1)INIT('0'B),3
              7061            AURD# BIT(1)INIT('0'B),3 TCTL# BIT(1)INIT('0'B),
              7062    1  3 * BIT(6)INIT('0'B),2 DDEV,3 LP# BIT(1)INIT('0'B),3 CP# BIT(1)INIT('0'B),3 IC# BIT(
              7062            1)INIT('0'B),3 XEQ# BIT(1)INIT('0'B),3 UCOUT#
              7063    1   BIT(1)INIT('0'B),3 GR# BIT(1)INIT('0'B),3 * BIT(3)INIT('0'B),2 WIDTH# UBIN(9)UNAL
              7063            INIT(0),2 RETRYCNT# UBIN(18)HALIGNED INIT(0),2
              7064    1   DESC,3 DELF# BIT(1)INIT('0'B),3 NOLIST# BIT(1)INIT('0'B),3 BUF# BIT(1)INIT('0'B),3
              7064            ODSTOW# BIT(1)INIT('0'B),3 BAD# BIT(1)INIT('0'B),
              7065    1  3 QS# BIT(1)INIT('0'B),3 * BIT(2)INIT('0'B),3 ARCHIVE# BIT(1)INIT('0'B),3 BUPM# BIT(
              7065            1)INIT('0'B),3 NBUF# BIT(1)INIT('0'B),3 ACTIVE#
              7066    1  BIT(1)INIT('0'B),3 TPB# BIT(1)INIT('0'B),3 TERMINATE# BIT(1)INIT('0'B),3 FETCH# BIT(
              7066            1)INIT('0'B),3 * BIT(3)INIT('0'B),2 SETSTA$ PTR
              7067    1  INIT(ADDR(NIL)),2 LASTSTA$ PTR INIT(ADDR(NIL)),2 TDEXTST$ REDEF LASTSTA$ PTR,2 NAME#
              7067            ,3 L UBIN(9)UNAL INIT(SIZEC('*ES')),3 C CHAR(31)
              7068    1  INIT('*ES'),3 C17 REDEF C UNAL,4 CC CHAR(17),4 * CHAR(14),2 ACCT# CHAR(8)INIT(' '),2
              7068            PASS# CHAR(8)INIT(' '),2 PSN# CHAR(6)INIT
              7069    1   (' '),2 TYPE# CHAR(2)INIT(' '),2 RES# CHAR(4)INIT('ME'),2 RESNT REDEF RES# UNAL,3
              7069            TYP CHAR(2),3 NUM CHAR(2),2 WSN# CHAR(8)ALIGNED
              7070    1   INIT(' '),2 TDSTAT# REDEF WSN# BIT(72),2 IGNOREFSN# BIT(1)INIT('0'B),2 AU# BIT(1)
              7070            INIT('0'B),2 QISS# BIT(1)INIT('0'B),2 LOAD# BIT
              7071    1  (1)INIT('0'B),2 IOERROK# BIT(1)INIT('0'B),2 AMRSETSTA BIT(1)INIT('0'B),2 LSTAOR# BIT
              7071            (1)INIT('0'B),2 VOLACCESS# UBIN(2)UNAL INIT
              7072    1   (0),2 UOPT#(0:8)BIT(1)INIT('0'B,'0'B,'0'B,'0'B,'0'B,'0'B,'0'B,'0'B,'0'B),2 PASSF#
              7072            BIT(1)INIT('0'B),2 CNVRT# BIT(1)
              7073    1  INIT('1'B),2 EBCDIC# BIT(1)INIT('0'B),2 FCI# BIT(1)INIT('0'B),2 FCD# BIT(1)INIT('0'B
              7073            ),2 AMR# BIT(1)INIT('0'B),2 CTG# BIT(1)INIT
              7074    1  ('0'B),2 EXIST# UBIN(2)UNAL INIT(3),2 SHARE# UBIN(2)UNAL INIT(0),2 COMP# BIT(1)INIT(
              7074            '0'B),2 XTEND# BIT(1)INIT('0'B),2 CVOL#
              7075    1  BIT(1)INIT('0'B),2 BLOCKED# BIT(1)INIT('1'B),2 SPANNED# BIT(1)INIT('1'B),2 BUPM# BIT
              7075            (2)INIT('01'B),2 ORG# UBIN(9)UNAL INIT
              7076    1   (1),2 DVTYPE# REDEF ORG# UBIN(9)UNAL,2 FUN# UBIN(9)UNAL INIT(3),2 ASN# UBIN(9)UNAL
              7076            INIT(1),2 DISP# UBIN(9)UNAL INIT(0),2
              7077    1  BLKL# UBIN(18)UNAL INIT(0),2 RECL# UBIN(18)UNAL INIT(0),2 FSN# UBIN(18)UNAL INIT(0),
              7077            2 DBGDCBNO# REDEF FSN# UBIN(18)UNAL,2
PL6.E3A0      #001=Z9A8$DCBS File=Z9A8.:Z8A6TSI                                  SAT 08/09/97 13:36 Page:60
              7078    1   DBGSYSID# REDEF FSN# UBIN(18)UNAL,2 SYSID# REDEF FSN# UBIN(18)UNAL,2 FEXTX UBIN(9)
              7078            UNAL INIT(0),2 BOL# UBIN(9)UNAL INIT(0),2 EXPIRE#
              7079    1  SBIN INIT(0),2 KEYX# UBIN(18)UNAL INIT(0),2 KEYL# UBIN(9)UNAL INIT(0),2 ACS# UBIN(9)
              7079            UNAL INIT(1),2 XTNSIZE# UBIN(18)
              7080    1   UNAL INIT(2),2 LSLIDE# UBIN(9)UNAL INIT(510),2 LRDL0# UBIN(9)UNAL INIT(3),2 SPARE#
              7080            UBIN(9)UNAL INIT(1),2 WSR# UBIN
              7081    1  (9)UNAL INIT(0),2 ATTR# BIT(18) INIT('0'B)/* '0'B */,2 ATTR REDEF ATTR#,3 DENS# BIT(
              7081            9),3
              7082    1  GRLGL# BIT(1),3 TRANSLGL# BIT(1),3 NOXLATE# BIT(1),3 UPPERCASE# BIT(1),3 NATL# BIT(1
              7082            ),3 TRUOVRPRT# BIT(1),3 APL# BIT(1),3 BIN# BIT
              7083    1   (1),3 LOWERCASE# BIT(1),2 TDFLG REDEF ATTR#/*'0'B */,3 SDSK# BIT(1),3 * BIT(17),2
              7083            IXTNSIZE# SBIN WORD INIT
              7084    1   (2),2 CONNCT# REDEF IXTNSIZE# SBIN,2 NRECS# SBIN INIT(0),2 CHANTIME# REDEF NRECS#
              7084            SBIN,2 VOL# UBIN(9)UNAL INIT(0),2
              7085    1  MAXVOL# UBIN(9)UNAL INIT(0),2 CHAIN# UBIN(9)UNAL INIT(0),2 DENSITY# UBIN(9)UNAL INIT
              7085            (0),2 LINES# UBIN(18)UNAL INIT
              7086    1   (0),2 DVFC# CHAR(1)INIT(BINASC(0)),2 SEQ# BIT(1)INIT('0'B),2 SEQCOL# UBIN(8)UNAL
              7086            INIT(73),2 SEQID# CHAR(4)INIT(' '),2 HEADER$
              7087    1  PTR INIT(ADDR(NIL)),2 DQH$ REDEF HEADER$ PTR,2 TAB$ PTR INIT(ADDR(NIL)),2 DCT$ REDEF
              7087            TAB$ PTR,2 FORM$ PTR INIT(ADDR(NIL)),2 MPC$
              7088    1   REDEF FORM$ PTR,2 LDCTX UBIN(18)UNAL INIT(0),2 SETX UBIN(18)UNAL INIT(0),2 DEVADR
              7088            REDEF SETX,3 DVN# UBIN(6)UNAL,3 IOM# UBIN(3)UNAL,3
              7089    1  CHAN# UBIN(9)CALIGNED,2 * BIT(9)CALIGNED INIT('0'B),2 JRNLBYPASS# BIT(1)INIT('0'B),2
              7089            * BIT(4)INIT('0'B),2 GHSTACS# UBIN(4)INIT
              7090    1   (0)UNAL,2 ALTKEYX UBIN(18)UNAL INIT(0),2 CODE16$ PTR INIT(ADDR(NIL)),2 FPRGX UBIN
              7090            HALF HALIGNED INIT(0),2 FIELDX UBIN HALF
              7091    1   HALIGNED INIT(0),2 EVENT SBIN INIT(0),2 VFCCHAR# CHAR(1)CALIGNED INIT(BINASC(0)),2
              7091            KEYTYPE# UBIN(9)CALIGNED INIT(0),2 KFIELDX
              7092    1  UBIN(18)HALIGNED INIT(0),2 STARTX UBIN(18)HALIGNED INIT(0),2 ACTPOS UBIN(18)HALIGNED
              7092            INIT(0),2 AUTHFFLG REDEF ACTPOS,3 READ# BIT(1),
              7093    1   3 DELR# BIT(1),3 WNEW# BIT(1),3 UPD# BIT(1),3 DELF# BIT(1),3 NOLIST# BIT(1),3
              7093            REATTR# BIT(1),3 EXEC# BIT(1),3 CREATE# BIT(1),3 AU#
              7094    1   BIT(1),3 AURD# BIT(1),3 TCTL# BIT(1),3 * BIT(6),2 DCB# UBIN(9)CALIGNED INIT(0),2 *
              7094            BIT(14)INIT('0'B),2 ANSISPANSEQ# BIT(1)INIT
              7095    1   ('1'B),2 PATH,3 IOM# UBIN(3)UNAL INIT(0),3 CHAN# UBIN(9)UNAL INIT(0),2 IRRECX UBIN(
              7095            18)HALIGNED INIT(0),2 FLDID UBIN(18)
              7096    1   HALIGNED INIT(0),2 BADARS# REDEF FLDID UBIN(18)HALIGNED,2 SEED# BIT(36)INIT('0'B),2
PL6.E3A0      #001=Z9A8$DCBS File=Z9A8.:Z8A6TSI                                  SAT 08/09/97 13:36 Page:61
              7096            * UBIN INIT(0),2 FEXT BIT(1)INIT('0'B),2 STARF
              7097    1   BIT(1)INIT('0'B),2 SHARED BIT(1)INIT('0'B),2 FMOD BIT(1)INIT('0'B),2 GTYP UBIN(3)
              7097            UNAL INIT(0),2 EOP UBIN(2)UNAL INIT(0),2 AMFLG,3
              7098    1   ACCF BIT(1)INIT('0'B),3 ACSF BIT(1)INIT('0'B),3 INSF BIT(1)INIT('0'B),3 USRF BIT(1)
              7098            INIT('0'B),3 SNLF BIT(1)INIT('0'B),3 PROF BIT(1)
              7099    1  INIT('0'B),2 SEZ_OK BIT(1)INIT('0'B),2 MUST_CVOL BIT(1)INIT('0'B),2 NEW_FSECT BIT(1)
              7099            INIT('0'B),2 NOEOF BIT(1)INIT('0'B),2 MOUNT
              7100    1   REDEF NOEOF BIT(1),2 OHDR BIT(1)INIT('0'B),2 LDFLG REDEF OHDR BIT(1),2 SPAN BIT(1)
              7100            INIT('0'B),2 OWNER BIT(1)INIT('0'B),2 RA BIT(1)
              7101    1   INIT('0'B),2 RPOS BIT(1)INIT('0'B),2 STARX UBIN(3)UNAL INIT(0),2 CACHE BIT(1)INIT(
              7101            '0'B),2 ENQF BIT(1)INIT('0'B),2 GRPOS BIT(1)INIT
              7102    1  ('0'B),2 CONT BIT(1)INIT('0'B),2 WAIT UBIN(1)UNAL INIT(1),2 TRNC UBIN(2)UNAL INIT(0)
              7102            ,2 AFTRBLK BIT(1)INIT('0'B),2 LSTBLK BIT(1)INIT
              7103    1  ('0'B),2 BORROW SBIN INIT(0),2 LASTKEY$ REDEF BORROW PTR,2 LASTKEY REDEF BORROW SBIN
              7103            ,2 FTAM REDEF BORROW,3 CTX UBIN HALF UNAL,3 USR
              7104    1   UBIN BYTE UNAL,3 PMME UBIN(9)UNAL,2 CFU$ PTR INIT(ADDR(NIL)),2 TDALVL UBIN(3)UNAL
              7104            INIT(0),2 LVL UBIN(3)UNAL INIT(0),2 LPOOL REDEF
              7105    1   LVL UBIN(3)UNAL,2 WRCMP BIT(1)INIT('0'B),2 WCDATA BIT(1)INIT('0'B),2 UCOUT BIT(1)
              7105            INIT('0'B),2 TAPTYP,3 RWASC BIT(1)INIT('0'B),3 CP6F
              7106    1   BIT(1)INIT('0'B),3 USRBUF BIT(1)INIT('0'B),3 HAVLASTKEY BIT(1)INIT('0'B),3 NOCVOL
              7106            BIT(1)INIT('0'B),3 MANAGED BIT(1)INIT('0'B),3
              7107    1   PASTFM BIT(1)INIT('0'B),3 * BIT(2)INIT('0'B),2 CRECX UBIN(18)UNAL INIT(0),2 CBUFNUM
              7107            UBIN(3)UNAL INIT(0),2 IORG UBIN(6)UNAL INIT(0),2
              7108    1   TDA UBIN(27)UNAL INIT(0),2 BYTESLEFT REDEF TDA UBIN(27)UNAL,2 CRECNO SBIN INIT(0),2
              7108            PRECNO SBIN INIT(0),2 CSEED REDEF PRECNO SBIN,2
              7109    1  HASH UBIN(27)UNAL INIT(0),2 FDCM UBIN(9)UNAL INIT(0),2 FCN(0:1),3 F BIT(1)INIT('0'B,
              7109            '0'B),3 CNT UBIN(8)UNAL INIT(0,0),2 BLKLEN UBIN
              7110    1   (18)UNAL INIT(0),2 UB$ PTR INIT(ADDR(NIL)),2 UBYTES UBIN INIT(0),2 FSECT UBIN(18)
              7110            UNAL INIT(0),2 INDX REDEF FSECT UBIN(18)UNAL,2
              7111    1   FPSTR UBIN(9)UNAL INIT(0),2 STR# UBIN(9)UNAL INIT(0),2 NRECX UBIN(18)UNAL INIT(0),2
              7111            MODCNT REDEF NRECX UBIN(18)UNAL,2 SEGX UBIN(18)
              7112    1   UNAL INIT(0),2 GDISP UBIN INIT(0),2 LOGSEC BIT(1)INIT('0'B),2 PRIVOPN BIT(1)INIT(
              7112            '0'B),2 OLDIOERR UBIN(2)UNAL INIT(0),2 * BIT(21)
              7113    1   INIT('0'B),2 REALSPAN BIT(1),2 DECRYPT BIT(1)INIT('0'B),2 PGINGRAN UBIN BYTE UNAL
              7113            INIT(0),2 IFMT UBIN(9)UNAL INIT(0),2 MEDIA UBIN(9)
              7114    1  UNAL INIT(0),2 IWL,3 TABIWL BIT(1)INIT('0'B),3 SEQIWL BIT(1)INIT('0'B),3 HDRIWL BIT(
              7114            1)INIT('0'B),3 * BIT(3)INIT('0'B),2 CTLCMDIN BIT
PL6.E3A0      #001=Z9A8$DCBS File=Z9A8.:Z8A6TSI                                  SAT 08/09/97 13:36 Page:62
              7115    1   (1)INIT('0'B),2 UNIQUEBLD BIT(1)INIT('0'B),2 UPDCNT BIT(1)INIT('0'B),2 IASN UBIN(9)
              7115            UNAL INIT(0),2 MOVED SBIN(18)HALIGNED,2 * UBIN(9)
              7116    1   CALIGNED,2 CX UBIN(9)CALIGNED,2 CWORD CHAR(4)ALIGNED,2 RCSZ UBIN INIT(0),2 FEPSIZ
              7116            REDEF RCSZ,3 BUF UBIN HALF UNAL,3 KEY UBIN HALF
              7117    1  UNAL,2 ID ALIGNED,3 GX UBIN(10)UNAL,3 DA UBIN(26)UNAL,2 FEPIO,3 EVENT UBIN INIT(0),3
              7117            KEYX/* 0 */ UBIN
              7118    1  HALF HALIGNED INIT(0),3 BUFX UBIN HALF HALIGNED INIT(0),3 BPP(0:1)BIT(18)INIT('0'B*0
              7118            ),3 KPP(0:1)BIT(18)INIT('0'B*0),2 AGE SBIN INIT
              7119    1   (0),2 BFR(0:4),3 BUFUP BIT(1)INIT('0'B*0),3 SCRUB BIT(1)INIT('0'B*0),3 CHNG BIT(1)
              7119            INIT('0'B*0),3 CVM BIT(1)INIT('0'B*0),3 BUFX UBIN
              7120    1   (5)UNAL INIT(0*0),3 DA UBIN(27)UNAL INIT(0*0),2 BFR1(0:4)ALIGNED,3 FLAGS,4
              7120            ONE_WORD_HEADER BIT(1)INIT('0'B*0),4 * BIT(8)INIT
              7121    1   ('0'B*0),3 SIZ UBIN(9)UNAL INIT(0*0),3 CX UBIN(18)UNAL INIT(0*0),2 FEPIO2(0:3)UBIN
              7121            ALIGNED,2 FEPIO3(0:3)UBIN ALIGNED,2 * SBIN INIT
              7122    1  (29127),2 DCBNAME DALIGNED,3 X UBIN(3)UNAL,3 S BIT(1),3 L UBIN(5)UNAL,3 N CHAR(M$ES.
              7122            DCBNAME.L);
       97     7124        %PAGE(ARG=M$LO);
              7125        %LSET LISTDIR='0'B;

              7137    1   /*******************************************************************************
              7138    1   *                                                                              *
              7139    1   *        M$LO              M$LO                                                  *
              7140    1   *                                                                              *
              7141    1   *******************************************************************************/

       98     7145        /*
       99     7146           Listing output file
      100     7147           */
      101     7148        %M$DCB (DCBN=M$LO,
      102     7149        ASN=DEVICE,
      103     7150        RES='LO',
      104     7151        FUN=CREATE,
      105     7152        XTNSIZE=2,
      106     7153        IXTNSIZE=2);
              7154    1  DCL 1 M$LO DCB,2 ARS# SBIN INIT(0),2 FLPW# REDEF ARS# BIT(36),2 * UBIN INIT(0),2 TYC
              7154            ,3 EGV# BIT(1)INIT('0'B*0),3 OPER# BIT(1)
              7155    1   INIT('0'B*0),3 EOT# BIT(1)INIT('0'B*0),3 BOT# BIT(1)INIT('0'B*0),3 BOF# BIT(1)INIT(
PL6.E3A0      #001=Z9A8$DCBS File=Z9A8.:Z8A6TSI                                  SAT 08/09/97 13:36 Page:63
              7155            '0'B*0),3 BLNKTP# BIT(1)INIT('0'B*0),3 EOF# BIT
              7156    1   (1)INIT('0'B*0),3 LD# BIT(1)INIT('0'B*0),3 IOERR# BIT(1)INIT('0'B*0),3 DI# BIT(1)
              7156            INIT('0'B*0),3 EOD# BIT(1)INIT('0'B*0),3 MTRAP# BIT
              7157    1  (1)INIT('0'B*0),3 LDISC# BIT(1)INIT('0'B*0),3 DACT# BIT(1)INIT('0'B*0),3 TIMO# BIT(1
              7157            )INIT('0'B*0),3 PROT# BIT(1)INIT('0'B*0),3 FRAW#
              7158    1   BIT(1)INIT('0'B*0),3 LAST# BIT(1)INIT('0'B*0),3 CDALRT# BIT(1)INIT('0'B*0),3 XTRARD
              7158            BIT(1)INIT('0'B*0),3 CGKEYV BIT(1)INIT('0'B*0),3
              7159    1   CGLWRV BIT(1)INIT('0'B*0),3 CGFULL BIT(1)INIT('0'B*0),3 CGCRCW BIT(1)INIT('0'B*0),3
              7159            CGCWRV BIT(1)INIT('0'B*0),3 * BIT(11)INIT
              7160    1   ('0'B*0),2 DVBYTE,3 TOP# BIT(1)INIT('0'B),3 * BIT(1)INIT('0'B),3 VFC# BIT(1)INIT(
              7160            '0'B),3 BIN# BIT(1)INIT('0'B),3 TRANS# BIT(1)INIT
              7161    1   ('0'B),3 * BIT(3)INIT('0'B),2 BUPF BIT(1)INIT('0'B),2 RDL0# UBIN(9)UNAL INIT(0),2
              7161            SLIDE# UBIN(9)UNAL INIT(0),2 EOMCHAR# CHAR(1)INIT
              7162    1  (BITASC('501'O)),2 EOMVAL# REDEF EOMCHAR# UNAL,3 VFLG# BIT(1),3 VALUE# UBIN(8)UNAL,2
              7162            FFLG,3 READ# BIT(1)INIT('0'B),3 DELR# BIT(1)
              7163    1  INIT('0'B),3 WNEW# BIT(1)INIT('0'B),3 UPD# BIT(1)INIT('0'B),3 DELF# BIT(1)INIT('0'B)
              7163            ,3 NOLIST# BIT(1)INIT('0'B),3 REATTR# BIT(1)INIT
              7164    1   ('0'B),3 EXEC# BIT(1)INIT('0'B),3 CREATE# BIT(1)INIT('0'B),3 AU# BIT(1)INIT('0'B),3
              7164            AURD# BIT(1)INIT('0'B),3 TCTL# BIT(1)INIT('0'B),
              7165    1  3 * BIT(6)INIT('0'B),2 DDEV,3 LP# BIT(1)INIT('0'B),3 CP# BIT(1)INIT('0'B),3 IC# BIT(
              7165            1)INIT('0'B),3 XEQ# BIT(1)INIT('0'B),3 UCOUT#
              7166    1   BIT(1)INIT('0'B),3 GR# BIT(1)INIT('0'B),3 * BIT(3)INIT('0'B),2 WIDTH# UBIN(9)UNAL
              7166            INIT(0),2 RETRYCNT# UBIN(18)HALIGNED INIT(0),2
              7167    1   DESC,3 DELF# BIT(1)INIT('0'B),3 NOLIST# BIT(1)INIT('0'B),3 BUF# BIT(1)INIT('0'B),3
              7167            ODSTOW# BIT(1)INIT('0'B),3 BAD# BIT(1)INIT('0'B),
              7168    1  3 QS# BIT(1)INIT('0'B),3 * BIT(2)INIT('0'B),3 ARCHIVE# BIT(1)INIT('0'B),3 BUPM# BIT(
              7168            1)INIT('0'B),3 NBUF# BIT(1)INIT('0'B),3 ACTIVE#
              7169    1  BIT(1)INIT('0'B),3 TPB# BIT(1)INIT('0'B),3 TERMINATE# BIT(1)INIT('0'B),3 FETCH# BIT(
              7169            1)INIT('0'B),3 * BIT(3)INIT('0'B),2 SETSTA$ PTR
              7170    1  INIT(ADDR(NIL)),2 LASTSTA$ PTR INIT(ADDR(NIL)),2 TDEXTST$ REDEF LASTSTA$ PTR,2 NAME#
              7170            ,3 L UBIN(9)UNAL INIT(SIZEC(' ')),3 C CHAR(31)
              7171    1   INIT(' '),3 C17 REDEF C UNAL,4 CC CHAR(17),4 * CHAR(14),2 ACCT# CHAR(8)INIT(' '),2
              7171            PASS# CHAR(8)INIT(' '),2 PSN# CHAR(6)INIT
              7172    1   (' '),2 TYPE# CHAR(2)INIT(' '),2 RES# CHAR(4)INIT('LO'),2 RESNT REDEF RES# UNAL,3
              7172            TYP CHAR(2),3 NUM CHAR(2),2 WSN# CHAR(8)ALIGNED
              7173    1   INIT(' '),2 TDSTAT# REDEF WSN# BIT(72),2 IGNOREFSN# BIT(1)INIT('0'B),2 AU# BIT(1)
              7173            INIT('0'B),2 QISS# BIT(1)INIT('0'B),2 LOAD# BIT
PL6.E3A0      #001=Z9A8$DCBS File=Z9A8.:Z8A6TSI                                  SAT 08/09/97 13:36 Page:64
              7174    1  (1)INIT('0'B),2 IOERROK# BIT(1)INIT('0'B),2 AMRSETSTA BIT(1)INIT('0'B),2 LSTAOR# BIT
              7174            (1)INIT('0'B),2 VOLACCESS# UBIN(2)UNAL INIT
              7175    1   (0),2 UOPT#(0:8)BIT(1)INIT('0'B,'0'B,'0'B,'0'B,'0'B,'0'B,'0'B,'0'B,'0'B),2 PASSF#
              7175            BIT(1)INIT('0'B),2 CNVRT# BIT(1)
              7176    1  INIT('1'B),2 EBCDIC# BIT(1)INIT('0'B),2 FCI# BIT(1)INIT('0'B),2 FCD# BIT(1)INIT('0'B
              7176            ),2 AMR# BIT(1)INIT('0'B),2 CTG# BIT(1)INIT
              7177    1  ('0'B),2 EXIST# UBIN(2)UNAL INIT(3),2 SHARE# UBIN(2)UNAL INIT(0),2 COMP# BIT(1)INIT(
              7177            '0'B),2 XTEND# BIT(1)INIT('0'B),2 CVOL#
              7178    1  BIT(1)INIT('0'B),2 BLOCKED# BIT(1)INIT('1'B),2 SPANNED# BIT(1)INIT('1'B),2 BUPM# BIT
              7178            (2)INIT('01'B),2 ORG# UBIN(9)UNAL INIT
              7179    1   (0),2 DVTYPE# REDEF ORG# UBIN(9)UNAL,2 FUN# UBIN(9)UNAL INIT(3),2 ASN# UBIN(9)UNAL
              7179            INIT(3),2 DISP# UBIN(9)UNAL INIT(0),2
              7180    1  BLKL# UBIN(18)UNAL INIT(0),2 RECL# UBIN(18)UNAL INIT(0),2 FSN# UBIN(18)UNAL INIT(0),
              7180            2 DBGDCBNO# REDEF FSN# UBIN(18)UNAL,2
              7181    1   DBGSYSID# REDEF FSN# UBIN(18)UNAL,2 SYSID# REDEF FSN# UBIN(18)UNAL,2 FEXTX UBIN(9)
              7181            UNAL INIT(0),2 BOL# UBIN(9)UNAL INIT(0),2 EXPIRE#
              7182    1  SBIN INIT(0),2 KEYX# UBIN(18)UNAL INIT(0),2 KEYL# UBIN(9)UNAL INIT(0),2 ACS# UBIN(9)
              7182            UNAL INIT(0),2 XTNSIZE# UBIN(18)
              7183    1   UNAL INIT(2),2 LSLIDE# UBIN(9)UNAL INIT(510),2 LRDL0# UBIN(9)UNAL INIT(3),2 SPARE#
              7183            UBIN(9)UNAL INIT(1),2 WSR# UBIN
              7184    1  (9)UNAL INIT(0),2 ATTR# BIT(18) INIT('0'B)/* '0'B */,2 ATTR REDEF ATTR#,3 DENS# BIT(
              7184            9),3
              7185    1  GRLGL# BIT(1),3 TRANSLGL# BIT(1),3 NOXLATE# BIT(1),3 UPPERCASE# BIT(1),3 NATL# BIT(1
              7185            ),3 TRUOVRPRT# BIT(1),3 APL# BIT(1),3 BIN# BIT
              7186    1   (1),3 LOWERCASE# BIT(1),2 TDFLG REDEF ATTR#/*'0'B */,3 SDSK# BIT(1),3 * BIT(17),2
              7186            IXTNSIZE# SBIN WORD INIT
              7187    1   (2),2 CONNCT# REDEF IXTNSIZE# SBIN,2 NRECS# SBIN INIT(0),2 CHANTIME# REDEF NRECS#
              7187            SBIN,2 VOL# UBIN(9)UNAL INIT(0),2
              7188    1  MAXVOL# UBIN(9)UNAL INIT(0),2 CHAIN# UBIN(9)UNAL INIT(0),2 DENSITY# UBIN(9)UNAL INIT
              7188            (0),2 LINES# UBIN(18)UNAL INIT
              7189    1   (0),2 DVFC# CHAR(1)INIT(BINASC(0)),2 SEQ# BIT(1)INIT('0'B),2 SEQCOL# UBIN(8)UNAL
              7189            INIT(73),2 SEQID# CHAR(4)INIT(' '),2 HEADER$
              7190    1  PTR INIT(ADDR(NIL)),2 DQH$ REDEF HEADER$ PTR,2 TAB$ PTR INIT(ADDR(NIL)),2 DCT$ REDEF
              7190            TAB$ PTR,2 FORM$ PTR INIT(ADDR(NIL)),2 MPC$
              7191    1   REDEF FORM$ PTR,2 LDCTX UBIN(18)UNAL INIT(0),2 SETX UBIN(18)UNAL INIT(0),2 DEVADR
              7191            REDEF SETX,3 DVN# UBIN(6)UNAL,3 IOM# UBIN(3)UNAL,3
              7192    1  CHAN# UBIN(9)CALIGNED,2 * BIT(9)CALIGNED INIT('0'B),2 JRNLBYPASS# BIT(1)INIT('0'B),2
PL6.E3A0      #001=Z9A8$DCBS File=Z9A8.:Z8A6TSI                                  SAT 08/09/97 13:36 Page:65
              7192            * BIT(4)INIT('0'B),2 GHSTACS# UBIN(4)INIT
              7193    1   (0)UNAL,2 ALTKEYX UBIN(18)UNAL INIT(0),2 CODE16$ PTR INIT(ADDR(NIL)),2 FPRGX UBIN
              7193            HALF HALIGNED INIT(0),2 FIELDX UBIN HALF
              7194    1   HALIGNED INIT(0),2 EVENT SBIN INIT(0),2 VFCCHAR# CHAR(1)CALIGNED INIT(BINASC(0)),2
              7194            KEYTYPE# UBIN(9)CALIGNED INIT(0),2 KFIELDX
              7195    1  UBIN(18)HALIGNED INIT(0),2 STARTX UBIN(18)HALIGNED INIT(0),2 ACTPOS UBIN(18)HALIGNED
              7195            INIT(0),2 AUTHFFLG REDEF ACTPOS,3 READ# BIT(1),
              7196    1   3 DELR# BIT(1),3 WNEW# BIT(1),3 UPD# BIT(1),3 DELF# BIT(1),3 NOLIST# BIT(1),3
              7196            REATTR# BIT(1),3 EXEC# BIT(1),3 CREATE# BIT(1),3 AU#
              7197    1   BIT(1),3 AURD# BIT(1),3 TCTL# BIT(1),3 * BIT(6),2 DCB# UBIN(9)CALIGNED INIT(0),2 *
              7197            BIT(14)INIT('0'B),2 ANSISPANSEQ# BIT(1)INIT
              7198    1   ('1'B),2 PATH,3 IOM# UBIN(3)UNAL INIT(0),3 CHAN# UBIN(9)UNAL INIT(0),2 IRRECX UBIN(
              7198            18)HALIGNED INIT(0),2 FLDID UBIN(18)
              7199    1   HALIGNED INIT(0),2 BADARS# REDEF FLDID UBIN(18)HALIGNED,2 SEED# BIT(36)INIT('0'B),2
              7199            * UBIN INIT(0),2 FEXT BIT(1)INIT('0'B),2 STARF
              7200    1   BIT(1)INIT('0'B),2 SHARED BIT(1)INIT('0'B),2 FMOD BIT(1)INIT('0'B),2 GTYP UBIN(3)
              7200            UNAL INIT(0),2 EOP UBIN(2)UNAL INIT(0),2 AMFLG,3
              7201    1   ACCF BIT(1)INIT('0'B),3 ACSF BIT(1)INIT('0'B),3 INSF BIT(1)INIT('0'B),3 USRF BIT(1)
              7201            INIT('0'B),3 SNLF BIT(1)INIT('0'B),3 PROF BIT(1)
              7202    1  INIT('0'B),2 SEZ_OK BIT(1)INIT('0'B),2 MUST_CVOL BIT(1)INIT('0'B),2 NEW_FSECT BIT(1)
              7202            INIT('0'B),2 NOEOF BIT(1)INIT('0'B),2 MOUNT
              7203    1   REDEF NOEOF BIT(1),2 OHDR BIT(1)INIT('0'B),2 LDFLG REDEF OHDR BIT(1),2 SPAN BIT(1)
              7203            INIT('0'B),2 OWNER BIT(1)INIT('0'B),2 RA BIT(1)
              7204    1   INIT('0'B),2 RPOS BIT(1)INIT('0'B),2 STARX UBIN(3)UNAL INIT(0),2 CACHE BIT(1)INIT(
              7204            '0'B),2 ENQF BIT(1)INIT('0'B),2 GRPOS BIT(1)INIT
              7205    1  ('0'B),2 CONT BIT(1)INIT('0'B),2 WAIT UBIN(1)UNAL INIT(1),2 TRNC UBIN(2)UNAL INIT(0)
              7205            ,2 AFTRBLK BIT(1)INIT('0'B),2 LSTBLK BIT(1)INIT
              7206    1  ('0'B),2 BORROW SBIN INIT(0),2 LASTKEY$ REDEF BORROW PTR,2 LASTKEY REDEF BORROW SBIN
              7206            ,2 FTAM REDEF BORROW,3 CTX UBIN HALF UNAL,3 USR
              7207    1   UBIN BYTE UNAL,3 PMME UBIN(9)UNAL,2 CFU$ PTR INIT(ADDR(NIL)),2 TDALVL UBIN(3)UNAL
              7207            INIT(0),2 LVL UBIN(3)UNAL INIT(0),2 LPOOL REDEF
              7208    1   LVL UBIN(3)UNAL,2 WRCMP BIT(1)INIT('0'B),2 WCDATA BIT(1)INIT('0'B),2 UCOUT BIT(1)
              7208            INIT('0'B),2 TAPTYP,3 RWASC BIT(1)INIT('0'B),3 CP6F
              7209    1   BIT(1)INIT('0'B),3 USRBUF BIT(1)INIT('0'B),3 HAVLASTKEY BIT(1)INIT('0'B),3 NOCVOL
              7209            BIT(1)INIT('0'B),3 MANAGED BIT(1)INIT('0'B),3
              7210    1   PASTFM BIT(1)INIT('0'B),3 * BIT(2)INIT('0'B),2 CRECX UBIN(18)UNAL INIT(0),2 CBUFNUM
              7210            UBIN(3)UNAL INIT(0),2 IORG UBIN(6)UNAL INIT(0),2
PL6.E3A0      #001=Z9A8$DCBS File=Z9A8.:Z8A6TSI                                  SAT 08/09/97 13:36 Page:66
              7211    1   TDA UBIN(27)UNAL INIT(0),2 BYTESLEFT REDEF TDA UBIN(27)UNAL,2 CRECNO SBIN INIT(0),2
              7211            PRECNO SBIN INIT(0),2 CSEED REDEF PRECNO SBIN,2
              7212    1  HASH UBIN(27)UNAL INIT(0),2 FDCM UBIN(9)UNAL INIT(0),2 FCN(0:1),3 F BIT(1)INIT('0'B,
              7212            '0'B),3 CNT UBIN(8)UNAL INIT(0,0),2 BLKLEN UBIN
              7213    1   (18)UNAL INIT(0),2 UB$ PTR INIT(ADDR(NIL)),2 UBYTES UBIN INIT(0),2 FSECT UBIN(18)
              7213            UNAL INIT(0),2 INDX REDEF FSECT UBIN(18)UNAL,2
              7214    1   FPSTR UBIN(9)UNAL INIT(0),2 STR# UBIN(9)UNAL INIT(0),2 NRECX UBIN(18)UNAL INIT(0),2
              7214            MODCNT REDEF NRECX UBIN(18)UNAL,2 SEGX UBIN(18)
              7215    1   UNAL INIT(0),2 GDISP UBIN INIT(0),2 LOGSEC BIT(1)INIT('0'B),2 PRIVOPN BIT(1)INIT(
              7215            '0'B),2 OLDIOERR UBIN(2)UNAL INIT(0),2 * BIT(21)
              7216    1   INIT('0'B),2 REALSPAN BIT(1),2 DECRYPT BIT(1)INIT('0'B),2 PGINGRAN UBIN BYTE UNAL
              7216            INIT(0),2 IFMT UBIN(9)UNAL INIT(0),2 MEDIA UBIN(9)
              7217    1  UNAL INIT(0),2 IWL,3 TABIWL BIT(1)INIT('0'B),3 SEQIWL BIT(1)INIT('0'B),3 HDRIWL BIT(
              7217            1)INIT('0'B),3 * BIT(3)INIT('0'B),2 CTLCMDIN BIT
              7218    1   (1)INIT('0'B),2 UNIQUEBLD BIT(1)INIT('0'B),2 UPDCNT BIT(1)INIT('0'B),2 IASN UBIN(9)
              7218            UNAL INIT(0),2 MOVED SBIN(18)HALIGNED,2 * UBIN(9)
              7219    1   CALIGNED,2 CX UBIN(9)CALIGNED,2 CWORD CHAR(4)ALIGNED,2 RCSZ UBIN INIT(0),2 FEPSIZ
              7219            REDEF RCSZ,3 BUF UBIN HALF UNAL,3 KEY UBIN HALF
              7220    1  UNAL,2 ID ALIGNED,3 GX UBIN(10)UNAL,3 DA UBIN(26)UNAL,2 FEPIO,3 EVENT UBIN INIT(0),3
              7220            KEYX/* 0 */ UBIN
              7221    1  HALF HALIGNED INIT(0),3 BUFX UBIN HALF HALIGNED INIT(0),3 BPP(0:1)BIT(18)INIT('0'B*0
              7221            ),3 KPP(0:1)BIT(18)INIT('0'B*0),2 AGE SBIN INIT
              7222    1   (0),2 BFR(0:4),3 BUFUP BIT(1)INIT('0'B*0),3 SCRUB BIT(1)INIT('0'B*0),3 CHNG BIT(1)
              7222            INIT('0'B*0),3 CVM BIT(1)INIT('0'B*0),3 BUFX UBIN
              7223    1   (5)UNAL INIT(0*0),3 DA UBIN(27)UNAL INIT(0*0),2 BFR1(0:4)ALIGNED,3 FLAGS,4
              7223            ONE_WORD_HEADER BIT(1)INIT('0'B*0),4 * BIT(8)INIT
              7224    1   ('0'B*0),3 SIZ UBIN(9)UNAL INIT(0*0),3 CX UBIN(18)UNAL INIT(0*0),2 FEPIO2(0:3)UBIN
              7224            ALIGNED,2 FEPIO3(0:3)UBIN ALIGNED,2 * SBIN INIT
              7225    1  (29127),2 DCBNAME DALIGNED,3 X UBIN(3)UNAL,3 S BIT(1),3 L UBIN(5)UNAL,3 N CHAR(M$LO.
              7225            DCBNAME.L);
      107     7227        %PAGE(ARG=M$OBJFILE);
              7228        %LSET LISTDIR='0'B;

              7240    1   /*******************************************************************************
              7241    1   *                                                                              *
              7242    1   *        M$OBJFILE              M$OBJFILE                                         *
              7243    1   *                                                                              *
PL6.E3A0      #001=Z9A8$DCBS File=Z9A8.:Z8A6TSI                                  SAT 08/09/97 13:36 Page:67
              7244    1   *******************************************************************************/

      108     7248        /*
      109     7249           Object table file
      110     7250           */
      111     7251        %M$DCB (DCBN=M$OBJFILE,
      112     7252        DISP=NAMED,
      113     7253        NAME='*1',
      114     7254        ASN=FILE,
      115     7255        ORG=CONSEC,
      116     7256        FUN=CREATE,
      117     7257        ACS=SEQUEN);
              7258    1  DCL 1 M$OBJFILE DCB,2 ARS# SBIN INIT(0),2 FLPW# REDEF ARS# BIT(36),2 * UBIN INIT(0),
              7258            2 TYC,3 EGV# BIT(1)INIT('0'B*0),3 OPER# BIT(1)
              7259    1   INIT('0'B*0),3 EOT# BIT(1)INIT('0'B*0),3 BOT# BIT(1)INIT('0'B*0),3 BOF# BIT(1)INIT(
              7259            '0'B*0),3 BLNKTP# BIT(1)INIT('0'B*0),3 EOF# BIT
              7260    1   (1)INIT('0'B*0),3 LD# BIT(1)INIT('0'B*0),3 IOERR# BIT(1)INIT('0'B*0),3 DI# BIT(1)
              7260            INIT('0'B*0),3 EOD# BIT(1)INIT('0'B*0),3 MTRAP# BIT
              7261    1  (1)INIT('0'B*0),3 LDISC# BIT(1)INIT('0'B*0),3 DACT# BIT(1)INIT('0'B*0),3 TIMO# BIT(1
              7261            )INIT('0'B*0),3 PROT# BIT(1)INIT('0'B*0),3 FRAW#
              7262    1   BIT(1)INIT('0'B*0),3 LAST# BIT(1)INIT('0'B*0),3 CDALRT# BIT(1)INIT('0'B*0),3 XTRARD
              7262            BIT(1)INIT('0'B*0),3 CGKEYV BIT(1)INIT('0'B*0),3
              7263    1   CGLWRV BIT(1)INIT('0'B*0),3 CGFULL BIT(1)INIT('0'B*0),3 CGCRCW BIT(1)INIT('0'B*0),3
              7263            CGCWRV BIT(1)INIT('0'B*0),3 * BIT(11)INIT
              7264    1   ('0'B*0),2 DVBYTE,3 TOP# BIT(1)INIT('0'B),3 * BIT(1)INIT('0'B),3 VFC# BIT(1)INIT(
              7264            '0'B),3 BIN# BIT(1)INIT('0'B),3 TRANS# BIT(1)INIT
              7265    1   ('0'B),3 * BIT(3)INIT('0'B),2 BUPF BIT(1)INIT('0'B),2 RDL0# UBIN(9)UNAL INIT(0),2
              7265            SLIDE# UBIN(9)UNAL INIT(0),2 EOMCHAR# CHAR(1)INIT
              7266    1  (BITASC('501'O)),2 EOMVAL# REDEF EOMCHAR# UNAL,3 VFLG# BIT(1),3 VALUE# UBIN(8)UNAL,2
              7266            FFLG,3 READ# BIT(1)INIT('0'B),3 DELR# BIT(1)
              7267    1  INIT('0'B),3 WNEW# BIT(1)INIT('0'B),3 UPD# BIT(1)INIT('0'B),3 DELF# BIT(1)INIT('0'B)
              7267            ,3 NOLIST# BIT(1)INIT('0'B),3 REATTR# BIT(1)INIT
              7268    1   ('0'B),3 EXEC# BIT(1)INIT('0'B),3 CREATE# BIT(1)INIT('0'B),3 AU# BIT(1)INIT('0'B),3
              7268            AURD# BIT(1)INIT('0'B),3 TCTL# BIT(1)INIT('0'B),
              7269    1  3 * BIT(6)INIT('0'B),2 DDEV,3 LP# BIT(1)INIT('0'B),3 CP# BIT(1)INIT('0'B),3 IC# BIT(
              7269            1)INIT('0'B),3 XEQ# BIT(1)INIT('0'B),3 UCOUT#
              7270    1   BIT(1)INIT('0'B),3 GR# BIT(1)INIT('0'B),3 * BIT(3)INIT('0'B),2 WIDTH# UBIN(9)UNAL
PL6.E3A0      #001=Z9A8$DCBS File=Z9A8.:Z8A6TSI                                  SAT 08/09/97 13:36 Page:68
              7270            INIT(0),2 RETRYCNT# UBIN(18)HALIGNED INIT(0),2
              7271    1   DESC,3 DELF# BIT(1)INIT('0'B),3 NOLIST# BIT(1)INIT('0'B),3 BUF# BIT(1)INIT('0'B),3
              7271            ODSTOW# BIT(1)INIT('0'B),3 BAD# BIT(1)INIT('0'B),
              7272    1  3 QS# BIT(1)INIT('0'B),3 * BIT(2)INIT('0'B),3 ARCHIVE# BIT(1)INIT('0'B),3 BUPM# BIT(
              7272            1)INIT('0'B),3 NBUF# BIT(1)INIT('0'B),3 ACTIVE#
              7273    1  BIT(1)INIT('0'B),3 TPB# BIT(1)INIT('0'B),3 TERMINATE# BIT(1)INIT('0'B),3 FETCH# BIT(
              7273            1)INIT('0'B),3 * BIT(3)INIT('0'B),2 SETSTA$ PTR
              7274    1  INIT(ADDR(NIL)),2 LASTSTA$ PTR INIT(ADDR(NIL)),2 TDEXTST$ REDEF LASTSTA$ PTR,2 NAME#
              7274            ,3 L UBIN(9)UNAL INIT(SIZEC('*1')),3 C CHAR(31)
              7275    1   INIT('*1'),3 C17 REDEF C UNAL,4 CC CHAR(17),4 * CHAR(14),2 ACCT# CHAR(8)INIT(' '),2
              7275            PASS# CHAR(8)INIT(' '),2 PSN# CHAR(6)INIT
              7276    1   (' '),2 TYPE# CHAR(2)INIT(' '),2 RES# CHAR(4)INIT('ME'),2 RESNT REDEF RES# UNAL,3
              7276            TYP CHAR(2),3 NUM CHAR(2),2 WSN# CHAR(8)ALIGNED
              7277    1   INIT(' '),2 TDSTAT# REDEF WSN# BIT(72),2 IGNOREFSN# BIT(1)INIT('0'B),2 AU# BIT(1)
              7277            INIT('0'B),2 QISS# BIT(1)INIT('0'B),2 LOAD# BIT
              7278    1  (1)INIT('0'B),2 IOERROK# BIT(1)INIT('0'B),2 AMRSETSTA BIT(1)INIT('0'B),2 LSTAOR# BIT
              7278            (1)INIT('0'B),2 VOLACCESS# UBIN(2)UNAL INIT
              7279    1   (0),2 UOPT#(0:8)BIT(1)INIT('0'B,'0'B,'0'B,'0'B,'0'B,'0'B,'0'B,'0'B,'0'B),2 PASSF#
              7279            BIT(1)INIT('0'B),2 CNVRT# BIT(1)
              7280    1  INIT('1'B),2 EBCDIC# BIT(1)INIT('0'B),2 FCI# BIT(1)INIT('0'B),2 FCD# BIT(1)INIT('0'B
              7280            ),2 AMR# BIT(1)INIT('0'B),2 CTG# BIT(1)INIT
              7281    1  ('0'B),2 EXIST# UBIN(2)UNAL INIT(3),2 SHARE# UBIN(2)UNAL INIT(0),2 COMP# BIT(1)INIT(
              7281            '0'B),2 XTEND# BIT(1)INIT('0'B),2 CVOL#
              7282    1  BIT(1)INIT('0'B),2 BLOCKED# BIT(1)INIT('1'B),2 SPANNED# BIT(1)INIT('1'B),2 BUPM# BIT
              7282            (2)INIT('01'B),2 ORG# UBIN(9)UNAL INIT
              7283    1   (1),2 DVTYPE# REDEF ORG# UBIN(9)UNAL,2 FUN# UBIN(9)UNAL INIT(3),2 ASN# UBIN(9)UNAL
              7283            INIT(1),2 DISP# UBIN(9)UNAL INIT(2),2
              7284    1  BLKL# UBIN(18)UNAL INIT(0),2 RECL# UBIN(18)UNAL INIT(0),2 FSN# UBIN(18)UNAL INIT(0),
              7284            2 DBGDCBNO# REDEF FSN# UBIN(18)UNAL,2
              7285    1   DBGSYSID# REDEF FSN# UBIN(18)UNAL,2 SYSID# REDEF FSN# UBIN(18)UNAL,2 FEXTX UBIN(9)
              7285            UNAL INIT(0),2 BOL# UBIN(9)UNAL INIT(0),2 EXPIRE#
              7286    1  SBIN INIT(0),2 KEYX# UBIN(18)UNAL INIT(0),2 KEYL# UBIN(9)UNAL INIT(0),2 ACS# UBIN(9)
              7286            UNAL INIT(1),2 XTNSIZE# UBIN(18)
              7287    1   UNAL INIT(2),2 LSLIDE# UBIN(9)UNAL INIT(510),2 LRDL0# UBIN(9)UNAL INIT(3),2 SPARE#
              7287            UBIN(9)UNAL INIT(1),2 WSR# UBIN
              7288    1  (9)UNAL INIT(0),2 ATTR# BIT(18) INIT('0'B)/* '0'B */,2 ATTR REDEF ATTR#,3 DENS# BIT(
              7288            9),3
PL6.E3A0      #001=Z9A8$DCBS File=Z9A8.:Z8A6TSI                                  SAT 08/09/97 13:36 Page:69
              7289    1  GRLGL# BIT(1),3 TRANSLGL# BIT(1),3 NOXLATE# BIT(1),3 UPPERCASE# BIT(1),3 NATL# BIT(1
              7289            ),3 TRUOVRPRT# BIT(1),3 APL# BIT(1),3 BIN# BIT
              7290    1   (1),3 LOWERCASE# BIT(1),2 TDFLG REDEF ATTR#/*'0'B */,3 SDSK# BIT(1),3 * BIT(17),2
              7290            IXTNSIZE# SBIN WORD INIT
              7291    1   (2),2 CONNCT# REDEF IXTNSIZE# SBIN,2 NRECS# SBIN INIT(0),2 CHANTIME# REDEF NRECS#
              7291            SBIN,2 VOL# UBIN(9)UNAL INIT(0),2
              7292    1  MAXVOL# UBIN(9)UNAL INIT(0),2 CHAIN# UBIN(9)UNAL INIT(0),2 DENSITY# UBIN(9)UNAL INIT
              7292            (0),2 LINES# UBIN(18)UNAL INIT
              7293    1   (0),2 DVFC# CHAR(1)INIT(BINASC(0)),2 SEQ# BIT(1)INIT('0'B),2 SEQCOL# UBIN(8)UNAL
              7293            INIT(73),2 SEQID# CHAR(4)INIT(' '),2 HEADER$
              7294    1  PTR INIT(ADDR(NIL)),2 DQH$ REDEF HEADER$ PTR,2 TAB$ PTR INIT(ADDR(NIL)),2 DCT$ REDEF
              7294            TAB$ PTR,2 FORM$ PTR INIT(ADDR(NIL)),2 MPC$
              7295    1   REDEF FORM$ PTR,2 LDCTX UBIN(18)UNAL INIT(0),2 SETX UBIN(18)UNAL INIT(0),2 DEVADR
              7295            REDEF SETX,3 DVN# UBIN(6)UNAL,3 IOM# UBIN(3)UNAL,3
              7296    1  CHAN# UBIN(9)CALIGNED,2 * BIT(9)CALIGNED INIT('0'B),2 JRNLBYPASS# BIT(1)INIT('0'B),2
              7296            * BIT(4)INIT('0'B),2 GHSTACS# UBIN(4)INIT
              7297    1   (0)UNAL,2 ALTKEYX UBIN(18)UNAL INIT(0),2 CODE16$ PTR INIT(ADDR(NIL)),2 FPRGX UBIN
              7297            HALF HALIGNED INIT(0),2 FIELDX UBIN HALF
              7298    1   HALIGNED INIT(0),2 EVENT SBIN INIT(0),2 VFCCHAR# CHAR(1)CALIGNED INIT(BINASC(0)),2
              7298            KEYTYPE# UBIN(9)CALIGNED INIT(0),2 KFIELDX
              7299    1  UBIN(18)HALIGNED INIT(0),2 STARTX UBIN(18)HALIGNED INIT(0),2 ACTPOS UBIN(18)HALIGNED
              7299            INIT(0),2 AUTHFFLG REDEF ACTPOS,3 READ# BIT(1),
              7300    1   3 DELR# BIT(1),3 WNEW# BIT(1),3 UPD# BIT(1),3 DELF# BIT(1),3 NOLIST# BIT(1),3
              7300            REATTR# BIT(1),3 EXEC# BIT(1),3 CREATE# BIT(1),3 AU#
              7301    1   BIT(1),3 AURD# BIT(1),3 TCTL# BIT(1),3 * BIT(6),2 DCB# UBIN(9)CALIGNED INIT(0),2 *
              7301            BIT(14)INIT('0'B),2 ANSISPANSEQ# BIT(1)INIT
              7302    1   ('1'B),2 PATH,3 IOM# UBIN(3)UNAL INIT(0),3 CHAN# UBIN(9)UNAL INIT(0),2 IRRECX UBIN(
              7302            18)HALIGNED INIT(0),2 FLDID UBIN(18)
              7303    1   HALIGNED INIT(0),2 BADARS# REDEF FLDID UBIN(18)HALIGNED,2 SEED# BIT(36)INIT('0'B),2
              7303            * UBIN INIT(0),2 FEXT BIT(1)INIT('0'B),2 STARF
              7304    1   BIT(1)INIT('0'B),2 SHARED BIT(1)INIT('0'B),2 FMOD BIT(1)INIT('0'B),2 GTYP UBIN(3)
              7304            UNAL INIT(0),2 EOP UBIN(2)UNAL INIT(0),2 AMFLG,3
              7305    1   ACCF BIT(1)INIT('0'B),3 ACSF BIT(1)INIT('0'B),3 INSF BIT(1)INIT('0'B),3 USRF BIT(1)
              7305            INIT('0'B),3 SNLF BIT(1)INIT('0'B),3 PROF BIT(1)
              7306    1  INIT('0'B),2 SEZ_OK BIT(1)INIT('0'B),2 MUST_CVOL BIT(1)INIT('0'B),2 NEW_FSECT BIT(1)
              7306            INIT('0'B),2 NOEOF BIT(1)INIT('0'B),2 MOUNT
              7307    1   REDEF NOEOF BIT(1),2 OHDR BIT(1)INIT('0'B),2 LDFLG REDEF OHDR BIT(1),2 SPAN BIT(1)
PL6.E3A0      #001=Z9A8$DCBS File=Z9A8.:Z8A6TSI                                  SAT 08/09/97 13:36 Page:70
              7307            INIT('0'B),2 OWNER BIT(1)INIT('0'B),2 RA BIT(1)
              7308    1   INIT('0'B),2 RPOS BIT(1)INIT('0'B),2 STARX UBIN(3)UNAL INIT(0),2 CACHE BIT(1)INIT(
              7308            '0'B),2 ENQF BIT(1)INIT('0'B),2 GRPOS BIT(1)INIT
              7309    1  ('0'B),2 CONT BIT(1)INIT('0'B),2 WAIT UBIN(1)UNAL INIT(1),2 TRNC UBIN(2)UNAL INIT(0)
              7309            ,2 AFTRBLK BIT(1)INIT('0'B),2 LSTBLK BIT(1)INIT
              7310    1  ('0'B),2 BORROW SBIN INIT(0),2 LASTKEY$ REDEF BORROW PTR,2 LASTKEY REDEF BORROW SBIN
              7310            ,2 FTAM REDEF BORROW,3 CTX UBIN HALF UNAL,3 USR
              7311    1   UBIN BYTE UNAL,3 PMME UBIN(9)UNAL,2 CFU$ PTR INIT(ADDR(NIL)),2 TDALVL UBIN(3)UNAL
              7311            INIT(0),2 LVL UBIN(3)UNAL INIT(0),2 LPOOL REDEF
              7312    1   LVL UBIN(3)UNAL,2 WRCMP BIT(1)INIT('0'B),2 WCDATA BIT(1)INIT('0'B),2 UCOUT BIT(1)
              7312            INIT('0'B),2 TAPTYP,3 RWASC BIT(1)INIT('0'B),3 CP6F
              7313    1   BIT(1)INIT('0'B),3 USRBUF BIT(1)INIT('0'B),3 HAVLASTKEY BIT(1)INIT('0'B),3 NOCVOL
              7313            BIT(1)INIT('0'B),3 MANAGED BIT(1)INIT('0'B),3
              7314    1   PASTFM BIT(1)INIT('0'B),3 * BIT(2)INIT('0'B),2 CRECX UBIN(18)UNAL INIT(0),2 CBUFNUM
              7314            UBIN(3)UNAL INIT(0),2 IORG UBIN(6)UNAL INIT(0),2
              7315    1   TDA UBIN(27)UNAL INIT(0),2 BYTESLEFT REDEF TDA UBIN(27)UNAL,2 CRECNO SBIN INIT(0),2
              7315            PRECNO SBIN INIT(0),2 CSEED REDEF PRECNO SBIN,2
              7316    1  HASH UBIN(27)UNAL INIT(0),2 FDCM UBIN(9)UNAL INIT(0),2 FCN(0:1),3 F BIT(1)INIT('0'B,
              7316            '0'B),3 CNT UBIN(8)UNAL INIT(0,0),2 BLKLEN UBIN
              7317    1   (18)UNAL INIT(0),2 UB$ PTR INIT(ADDR(NIL)),2 UBYTES UBIN INIT(0),2 FSECT UBIN(18)
              7317            UNAL INIT(0),2 INDX REDEF FSECT UBIN(18)UNAL,2
              7318    1   FPSTR UBIN(9)UNAL INIT(0),2 STR# UBIN(9)UNAL INIT(0),2 NRECX UBIN(18)UNAL INIT(0),2
              7318            MODCNT REDEF NRECX UBIN(18)UNAL,2 SEGX UBIN(18)
              7319    1   UNAL INIT(0),2 GDISP UBIN INIT(0),2 LOGSEC BIT(1)INIT('0'B),2 PRIVOPN BIT(1)INIT(
              7319            '0'B),2 OLDIOERR UBIN(2)UNAL INIT(0),2 * BIT(21)
              7320    1   INIT('0'B),2 REALSPAN BIT(1),2 DECRYPT BIT(1)INIT('0'B),2 PGINGRAN UBIN BYTE UNAL
              7320            INIT(0),2 IFMT UBIN(9)UNAL INIT(0),2 MEDIA UBIN(9)
              7321    1  UNAL INIT(0),2 IWL,3 TABIWL BIT(1)INIT('0'B),3 SEQIWL BIT(1)INIT('0'B),3 HDRIWL BIT(
              7321            1)INIT('0'B),3 * BIT(3)INIT('0'B),2 CTLCMDIN BIT
              7322    1   (1)INIT('0'B),2 UNIQUEBLD BIT(1)INIT('0'B),2 UPDCNT BIT(1)INIT('0'B),2 IASN UBIN(9)
              7322            UNAL INIT(0),2 MOVED SBIN(18)HALIGNED,2 * UBIN(9)
              7323    1   CALIGNED,2 CX UBIN(9)CALIGNED,2 CWORD CHAR(4)ALIGNED,2 RCSZ UBIN INIT(0),2 FEPSIZ
              7323            REDEF RCSZ,3 BUF UBIN HALF UNAL,3 KEY UBIN HALF
              7324    1  UNAL,2 ID ALIGNED,3 GX UBIN(10)UNAL,3 DA UBIN(26)UNAL,2 FEPIO,3 EVENT UBIN INIT(0),3
              7324            KEYX/* 0 */ UBIN
              7325    1  HALF HALIGNED INIT(0),3 BUFX UBIN HALF HALIGNED INIT(0),3 BPP(0:1)BIT(18)INIT('0'B*0
              7325            ),3 KPP(0:1)BIT(18)INIT('0'B*0),2 AGE SBIN INIT
PL6.E3A0      #001=Z9A8$DCBS File=Z9A8.:Z8A6TSI                                  SAT 08/09/97 13:36 Page:71
              7326    1   (0),2 BFR(0:4),3 BUFUP BIT(1)INIT('0'B*0),3 SCRUB BIT(1)INIT('0'B*0),3 CHNG BIT(1)
              7326            INIT('0'B*0),3 CVM BIT(1)INIT('0'B*0),3 BUFX UBIN
              7327    1   (5)UNAL INIT(0*0),3 DA UBIN(27)UNAL INIT(0*0),2 BFR1(0:4)ALIGNED,3 FLAGS,4
              7327            ONE_WORD_HEADER BIT(1)INIT('0'B*0),4 * BIT(8)INIT
              7328    1   ('0'B*0),3 SIZ UBIN(9)UNAL INIT(0*0),3 CX UBIN(18)UNAL INIT(0*0),2 FEPIO2(0:3)UBIN
              7328            ALIGNED,2 FEPIO3(0:3)UBIN ALIGNED,2 * SBIN INIT
              7329    1   (29127),2 DCBNAME DALIGNED,3 X UBIN(3)UNAL,3 S BIT(1),3 L UBIN(5)UNAL,3 N CHAR(
              7329            M$OBJFILE.DCBNAME.L);
      118     7331        %PAGE(ARG=OTHER DCBS);
              7332        %LSET LISTDIR='0'B;

              7344    1   /*******************************************************************************
              7345    1   *                                                                              *
              7346    1   *        OTHER DCBS              OTHER DCBS                                       *
              7347    1   *                                                                              *
              7348    1   *******************************************************************************/

      119     7352    1   DCL M$DO DCB;
      120     7353    1   DCL M$ME DCB;
      121     7354        %EQU HIDCB=21;
      122     7355
      123     7356        %PAGE(ARG=DCB PTRS AND NUMS,PAGE=YES);
              7357        %LSET LISTDIR='0'B;

PL6.E3A0      #001=Z9A8$DCBS File=Z9A8.:Z8A6TSI                                  SAT 08/09/97 13:36 Page:72
              7369    1   /*******************************************************************************
              7370    1   *                                                                              *
              7371    1   *        DCB PTRS AND NUMS              DCB PTRS AND NUMS                         *
              7372    1   *                                                                              *
              7373    1   *******************************************************************************/

      124     7377        %DCBPTR(STCLASS=STATIC SYMDEF);
              7378        %LSET LISTDIR='0'B;
              7382    1   DCL Z9A8$M$ES$ PTR STATIC SYMDEF;
              7383    1   DCL Z9A8$M$SI$ PTR STATIC SYMDEF;
              7384    1   DCL Z9A8$M$UI$ PTR STATIC SYMDEF;
              7385    1   DCL Z9A8$M$SO$ PTR STATIC SYMDEF;
              7386    1   DCL Z9A8$M$OU$ PTR STATIC SYMDEF;
              7387    1   DCL Z9A8$M$LO$ PTR STATIC SYMDEF;
              7388    1   DCL Z9A8$M$ME$ PTR STATIC SYMDEF;
              7389    1   DCL Z9A8$M$DO$ PTR STATIC SYMDEF;
              7390    1   DCL Z9A8$M$OBJFILE$ PTR STATIC SYMDEF;
              7391    1   DCL Z9A8$M$ES# UBIN STATIC SYMDEF;
              7392    1   DCL Z9A8$M$SI# UBIN STATIC SYMDEF;
              7393    1   DCL Z9A8$M$UI# UBIN STATIC SYMDEF;
              7394    1   DCL Z9A8$M$SO# UBIN STATIC SYMDEF;
              7395    1   DCL Z9A8$M$OU# UBIN STATIC SYMDEF;
              7396    1   DCL Z9A8$M$LO# UBIN STATIC SYMDEF;
              7397    1   DCL Z9A8$M$ME# UBIN STATIC SYMDEF;
              7398    1   DCL Z9A8$M$DO# UBIN STATIC SYMDEF;
              7399    1   DCL Z9A8$M$OBJFILE# UBIN STATIC SYMDEF;
      125     7401        %PAGE(ARG=INITIALIZE DCB POINTERS,PAGE=YES);
              7402        %LSET LISTDIR='0'B;

PL6.E3A0      #001=Z9A8$DCBS File=Z9A8.:Z8A6TSI                                  SAT 08/09/97 13:36 Page:73
              7414    1   /*******************************************************************************
              7415    1   *                                                                              *
              7416    1   *        INITIALIZE DCB POINTERS              INITIALIZE DCB POINTERS             *
              7417    1   *                                                                              *
              7418    1   *******************************************************************************/

      126     7422        %INIT$DCB(DCBN=M$ES,FCG=Z9A8);
              7423    1   Z9A8$M$ES#=DCBNUM(M$ES);

   7423 11 000002   000000 236007 xsym               LDQ     M$ES,DL
        11 000003   000011 756000 10                 STQ     Z9A8$M$ES#

              7424    1   Z9A8$M$ES$=DCBADDR(DCBNUM(M$ES));

   7424 11 000004   000000 236007 xsym               LDQ     M$ES,DL
        11 000005   000000 470400 12                 LDP0    0
        11 000006   000000 471500                    LDP1    0,,PR0
        11 000007   100000 236106                    LDQ     0,QL,PR1
        11 000010   000000 756000 10                 STQ     Z9A8$M$ES$

      127     7426        %INIT$DCB(DCBN=M$OU,FCG=Z9A8);
              7427    1   Z9A8$M$OU#=DCBNUM(M$OU);

   7427 11 000011   000000 236007 xsym               LDQ     M$OU,DL
        11 000012   000015 756000 10                 STQ     Z9A8$M$OU#

              7428    1   Z9A8$M$OU$=DCBADDR(DCBNUM(M$OU));

   7428 11 000013   000000 236007 xsym               LDQ     M$OU,DL
        11 000014   100000 236106                    LDQ     0,QL,PR1
        11 000015   000004 756000 10                 STQ     Z9A8$M$OU$

      128     7430        %INIT$DCB(DCBN=M$LO,FCG=Z9A8);
              7431    1   Z9A8$M$LO#=DCBNUM(M$LO);

   7431 11 000016   000000 236007 xsym               LDQ     M$LO,DL
        11 000017   000016 756000 10                 STQ     Z9A8$M$LO#
PL6.E3A0      #001=Z9A8$DCBS File=Z9A8.:Z8A6TSI                                  SAT 08/09/97 13:36 Page:74

              7432    1   Z9A8$M$LO$=DCBADDR(DCBNUM(M$LO));

   7432 11 000020   000000 236007 xsym               LDQ     M$LO,DL
        11 000021   100000 236106                    LDQ     0,QL,PR1
        11 000022   000005 756000 10                 STQ     Z9A8$M$LO$

      129     7434        %INIT$DCB(DCBN=M$DO,FCG=Z9A8);
              7435    1   Z9A8$M$DO#=DCBNUM(M$DO);

   7435 11 000023   000000 236007 xsym               LDQ     M$DO,DL
        11 000024   000020 756000 10                 STQ     Z9A8$M$DO#

              7436    1   Z9A8$M$DO$=DCBADDR(DCBNUM(M$DO));

   7436 11 000025   000000 236007 xsym               LDQ     M$DO,DL
        11 000026   100000 236106                    LDQ     0,QL,PR1
        11 000027   000007 756000 10                 STQ     Z9A8$M$DO$

      130     7438        %INIT$DCB(DCBN=M$OBJFILE,FCG=Z9A8);
              7439    1   Z9A8$M$OBJFILE#=DCBNUM(M$OBJFILE);

   7439 11 000030   000000 236007 xsym               LDQ     M$OBJFILE,DL
        11 000031   000021 756000 10                 STQ     Z9A8$M$OBJFILE#

              7440    1   Z9A8$M$OBJFILE$=DCBADDR(DCBNUM(M$OBJFILE));

   7440 11 000032   000000 236007 xsym               LDQ     M$OBJFILE,DL
        11 000033   100000 236106                    LDQ     0,QL,PR1
        11 000034   000010 756000 10                 STQ     Z9A8$M$OBJFILE$

      131     7442        %INIT$DCB(DCBN=M$SI,FCG=Z9A8);
              7443    1   Z9A8$M$SI#=DCBNUM(M$SI);

   7443 11 000035   000000 236007 xsym               LDQ     M$SI,DL
        11 000036   000012 756000 10                 STQ     Z9A8$M$SI#

PL6.E3A0      #001=Z9A8$DCBS File=Z9A8.:Z8A6TSI                                  SAT 08/09/97 13:36 Page:75
              7444    1   Z9A8$M$SI$=DCBADDR(DCBNUM(M$SI));

   7444 11 000037   000000 236007 xsym               LDQ     M$SI,DL
        11 000040   100000 236106                    LDQ     0,QL,PR1
        11 000041   000001 756000 10                 STQ     Z9A8$M$SI$

      132     7446        %INIT$DCB(DCBN=M$UI,FCG=Z9A8);
              7447    1   Z9A8$M$UI#=DCBNUM(M$UI);

   7447 11 000042   000000 236007 xsym               LDQ     M$UI,DL
        11 000043   000013 756000 10                 STQ     Z9A8$M$UI#

              7448    1   Z9A8$M$UI$=DCBADDR(DCBNUM(M$UI));

   7448 11 000044   000000 236007 xsym               LDQ     M$UI,DL
        11 000045   100000 236106                    LDQ     0,QL,PR1
        11 000046   000002 756000 10                 STQ     Z9A8$M$UI$

      133     7450        %INIT$DCB(DCBN=M$SO,FCG=Z9A8);
              7451    1   Z9A8$M$SO#=DCBNUM(M$SO);

   7451 11 000047   000000 236007 xsym               LDQ     M$SO,DL
        11 000050   000014 756000 10                 STQ     Z9A8$M$SO#

              7452    1   Z9A8$M$SO$=DCBADDR(DCBNUM(M$SO));

   7452 11 000051   000000 236007 xsym               LDQ     M$SO,DL
        11 000052   100000 236106                    LDQ     0,QL,PR1
        11 000053   000003 756000 10                 STQ     Z9A8$M$SO$

      134     7454        %INIT$DCB(DCBN=M$ME,FCG=Z9A8);
              7455    1   Z9A8$M$ME#=DCBNUM(M$ME);

   7455 11 000054   000000 236007 xsym               LDQ     M$ME,DL
        11 000055   000017 756000 10                 STQ     Z9A8$M$ME#

              7456    1   Z9A8$M$ME$=DCBADDR(DCBNUM(M$ME));
PL6.E3A0      #001=Z9A8$DCBS File=Z9A8.:Z8A6TSI                                  SAT 08/09/97 13:36 Page:76

   7456 11 000056   000000 236007 xsym               LDQ     M$ME,DL
        11 000057   100000 236106                    LDQ     0,QL,PR1
        11 000060   000006 756000 10                 STQ     Z9A8$M$ME$

      135     7458    1   RETURN;

   7458 11 000061   000000 702200 xent               TSX2  ! X66_ARET
      136     7459    1   END Z9A8$DCBS;

PL6.E3A0      #001=Z9A8$DCBS File=Z9A8.:Z8A6TSI                                  SAT 08/09/97 13:36 Page:77
--  Include file information  --

   Z9A_SUPP_MAC.:Z8A6TOU  is referenced.
   CP_6_SUBS.:LIB_E04  is referenced.
   CP_6_C.:LIB_E04  is referenced.
   CP_6.:LIB_E04  cannot be made into a system file and is referenced.
   Z9A_FLAGS.:Z8A6TOU  is referenced.
   Z8A_SYS_FILE.:Z8A6TOU  is referenced.
      No diagnostics issued in procedure Z9A8$DCBS.
PL6.E3A0      #001=Z9A8$DCBS File=Z9A8.:Z8A6TSI                                  SAT 08/09/97 13:36 Page:78

 **** Variables and constants ****

  ****  Section 010  Data  Z9A8$DCBS

  ****  Scalars and arrays  ****
OctLoc.c.b A Datatyp(siz) R M Lvl/name                 OctLoc.c.b A Datatyp(siz) R M Lvl/name

    20-0-0/w UBIN        r     1 Z9A8$M$DO#                 7-0-0/w PTR         r     1 Z9A8$M$DO$
    11-0-0/w UBIN        r     1 Z9A8$M$ES#                 0-0-0/w PTR         r     1 Z9A8$M$ES$
    16-0-0/w UBIN        r     1 Z9A8$M$LO#                 5-0-0/w PTR         r     1 Z9A8$M$LO$
    17-0-0/w UBIN        r     1 Z9A8$M$ME#                 6-0-0/w PTR         r     1 Z9A8$M$ME$
    21-0-0/w UBIN        r     1 Z9A8$M$OBJFILE#           10-0-0/w PTR         r     1 Z9A8$M$OBJFILE$
    15-0-0/w UBIN        r     1 Z9A8$M$OU#                 4-0-0/w PTR         r     1 Z9A8$M$OU$
    12-0-0/w UBIN        r     1 Z9A8$M$SI#                 1-0-0/w PTR         r     1 Z9A8$M$SI$
    14-0-0/w UBIN        r     1 Z9A8$M$SO#                 3-0-0/w PTR         r     1 Z9A8$M$SO$
    13-0-0/w UBIN        r     1 Z9A8$M$UI#                 2-0-0/w PTR         r     1 Z9A8$M$UI$

  ****  BASED and DCB variables  ****

  ****  Scalars and arrays  ****
OctLoc.c.b A Datatyp(siz) R M Lvl/name                 OctLoc.c.b A Datatyp(siz) R M Lvl/name

     0-0-0N  NULL        r     1 M$DO                       0-0-0/d ASTR(3528)  r     1 M$ES
     0-0-0/d ASTR(3528)  r     1 M$LO                       0-0-0N  NULL        r     1 M$ME
     0-0-0/d ASTR(3528)  r     1 M$OBJFILE                  0-0-0/d ASTR(3528)  r     1 M$OU
     0-0-0/d ASTR(3528)  r     1 M$SI                       0-0-0/d ASTR(3528)  r     1 M$SO
     0-0-0N  NULL        r     1 M$UC                       0-0-0/d ASTR(3528)  r     1 M$UI


   Procedure Z9A8$DCBS requires 50 words for executable code.
   Procedure Z9A8$DCBS requires 4 words of local(AUTO) storage.

    No errors detected in file Z9A8.:Z8A6TSI    .
