VERSION A06

PL6.E3A0      #001=Z9AC$CLOSE_LO File=Z9AC.:Z8A6TSI                              SAT 08/09/97 13:38 Page:1
        1        1        /*M* Z9AC -- Close the LO file */
        2        2        /*T***********************************************************/
        3        3        /*T*                                                         */
        4        4        /*T* Copyright (c) Bull HN Information Systems Inc., 1997    */
        5        5        /*T*                                                         */
        6        6        /*T***********************************************************/
        7        7
        8        8
        9        9        /*P*
       10       10
       11       11               NAME: Z9AC$CLOSE_LO
       12       12             AUTHOR: LEE SILVERTHORN
       13       13            PURPOSE: CLOSES THE LISTING FILE AND SAVES IT IF IT HAS BEEN
       14       14                      OPENED.
       15       15
       16       16        */
       17       17
       18       18        /*D*   NAME: Z9AC$CLOSE_LO
       19       19          INTERFACE: M$CLOSE
       20       20        DESCRIPTION: Uses M$CLOSE with a DISP of SAVE to close the LO file.
       21       21
       22       22        */
       23       23
       24       24        Z9AC$CLOSE_LO: PROC NOAUTO;
       25       25
       26       26        %INCLUDE Z8A_SYS_FILE;
       27     6301
       28     6302        %IF CP6;
       29     6303    1   DCL M$LO DCB;
       30     6304        %ENDIF;
       31     6305
       32     6306        % FPT_CLOSE(FPTN=CLOSE_LO,DCB=%M$LO,DISP=SAVE);
       33     6348
       34     6349    1          CALL M$CLOSE(CLOSE_LO);
       35     6350    1          RETURN;
       36     6351
       37     6352    1   END Z9AC$CLOSE_LO;
PL6.E3A0      #001=Z9AC$CLOSE_LO File=Z9AC.:Z8A6TSI                              SAT 08/09/97 13:38 Page:2

PL6.E3A0      #001=Z9AC$CLOSE_LO File=Z9AC.:Z8A6TSI                              SAT 08/09/97 13:38 Page:3
--  Include file information  --

   CP_6_SUBS.:LIB_E04  is referenced.
   CP_6_C.:LIB_E04  is referenced.
   CP_6.:LIB_E04  cannot be made into a system file and is referenced.
   Z9A_FLAGS.:Z8A6TOU  is referenced.
   Z8A_SYS_FILE.:Z8A6TOU  is referenced.
      No diagnostics issued in procedure Z9AC$CLOSE_LO.

   Procedure Z9AC$CLOSE_LO requires 6 words for executable code.
   Procedure Z9AC$CLOSE_LO is declared NOAUTO and requires 32 words of local(STATIC) storage.

    No errors detected in file Z9AC.:Z8A6TSI    .

PL6.E3A0      #001=Z9AC$CLOSE_LO File=Z9AC.:Z8A6TSI                              SAT 08/09/97 13:38 Page:4

 Object Unit name= Z9AC$CLOSE_LO                              File name= Z9AC.:Z8A6TOU
 UTS= AUG 09 '97 13:38:15.88 SAT                              Compiler= PL-6/E31         Sev=      00
 SharedLib= :SHARED_SYSTEM                                    Alt SharedLib=


    ****  Control sections  ****

 Sect   Type Bound  Init  Size OctSiz  Section name(segment info)
    0   Data  even  none    32     40  Z9AC$CLOSE_LO
    1   DCB   even  none     0      0  M$UC
    2   DCB   even  none     0      0  M$LO
    3   Proc  even  none     6      6  Z9AC$CLOSE_LO

    ****  Entry defs  ****

                              Check   Calling
                             calling  sequence
  Sect OctLoc Primary Altret sequence   type   Parms  Name
     3      0   yes            yes      Std        0  Z9AC$CLOSE_LO

  ****  Data refs  ****

  Flags:  r = read only, s = secondary
Flgs Name                             Flgs Name                             Flgs Name
     M$UC                                  M$LO

  ****  Segment refs  ****

  Flags:  r = read only, s = secondary
Flgs Name                             Flgs Name                             Flgs Name
     ISSID                                 NULLSID
PL6.E3A0      #001=Z9AC$CLOSE_LO File=Z9AC.:Z8A6TSI                              SAT 08/09/97 13:38 Page:5


        1        1        /*M* Z9AC -- Close the LO file */
        2        2        /*T***********************************************************/
        3        3        /*T*                                                         */
        4        4        /*T* Copyright (c) Bull HN Information Systems Inc., 1997    */
        5        5        /*T*                                                         */
        6        6        /*T***********************************************************/
        7        7
        8        8
        9        9        /*P*
       10       10
       11       11               NAME: Z9AC$CLOSE_LO
       12       12             AUTHOR: LEE SILVERTHORN
       13       13            PURPOSE: CLOSES THE LISTING FILE AND SAVES IT IF IT HAS BEEN
       14       14                      OPENED.
       15       15
       16       16        */
       17       17
       18       18        /*D*   NAME: Z9AC$CLOSE_LO
       19       19          INTERFACE: M$CLOSE
       20       20        DESCRIPTION: Uses M$CLOSE with a DISP of SAVE to close the LO file.
       21       21
       22       22        */
       23       23
       24       24        Z9AC$CLOSE_LO: PROC NOAUTO;

     24  3 000000   000000 741200 0     Z9AC$CLOSE_* STX1  ! 0

       25       25
       26       26        %INCLUDE Z8A_SYS_FILE;
       27     6301
       28     6302        %IF CP6;
       29     6303    1   DCL M$LO DCB;
       30     6304        %ENDIF;
       31     6305
       32     6306        % FPT_CLOSE(FPTN=CLOSE_LO,DCB=%M$LO,DISP=SAVE);
       33     6348
PL6.E3A0      #001=Z9AC$CLOSE_LO File=Z9AC.:Z8A6TSI                              SAT 08/09/97 13:38 Page:6
       34     6349    1          CALL M$CLOSE(CLOSE_LO);

   6349  3 000001   000002 630400 0                  EPPR0   CLOSE_LO
         3 000002   050001 713400                    CLIMB   close
         3 000003   406000 401760                    pmme    nvectors=13

       35     6350    1          RETURN;

   6350  3 000004   000000 221200 0                  LDX1  ! 0
         3 000005   000001 702211                    TSX2  ! 1,X1
       36     6351
       37     6352    1   END Z9AC$CLOSE_LO;

PL6.E3A0      #001=Z9AC$CLOSE_LO File=Z9AC.:Z8A6TSI                              SAT 08/09/97 13:38 Page:7
--  Include file information  --

   CP_6_SUBS.:LIB_E04  is referenced.
   CP_6_C.:LIB_E04  is referenced.
   CP_6.:LIB_E04  cannot be made into a system file and is referenced.
   Z9A_FLAGS.:Z8A6TOU  is referenced.
   Z8A_SYS_FILE.:Z8A6TOU  is referenced.
      No diagnostics issued in procedure Z9AC$CLOSE_LO.
PL6.E3A0      #001=Z9AC$CLOSE_LO File=Z9AC.:Z8A6TSI                              SAT 08/09/97 13:38 Page:8

 **** Variables and constants ****

  ****  Section 000  Data  Z9AC$CLOSE_LO

  ****  Scalars and arrays  ****
OctLoc.c.b A Datatyp(siz) R M Lvl/name                 OctLoc.c.b A Datatyp(siz) R M Lvl/name

     2-0-0/d STRC(1080)  r     1 CLOSE_LO

  ****  BASED and DCB variables  ****

  ****  Scalars and arrays  ****
OctLoc.c.b A Datatyp(siz) R M Lvl/name                 OctLoc.c.b A Datatyp(siz) R M Lvl/name

     0-0-0N  NULL        r     1 M$LO                       0-0-0N  NULL        r     1 M$UC


   Procedure Z9AC$CLOSE_LO requires 6 words for executable code.
   Procedure Z9AC$CLOSE_LO is declared NOAUTO and requires 32 words of local(STATIC) storage.

    No errors detected in file Z9AC.:Z8A6TSI    .
