VERSION A06

PL6.E3A0      #001=Z9AE$ISSUE_SYSTEM_ERROR File=Z9AE.:Z8A6TSI                    SAT 08/09/97 13:38 Page:1
        1        1        /*M* Z9AE$ISSUE_SYSTEM_ERROR - Report errors given by the CP-6 system. */
        2        2        /*T***********************************************************/
        3        3        /*T*                                                         */
        4        4        /*T* Copyright (c) Bull HN Information Systems Inc., 1997    */
        5        5        /*T*                                                         */
        6        6        /*T***********************************************************/
        7        7        /*P*
        8        8             NAME: Z9AE$ISSUE_SYSTEM_ERROR
        9        9             PURPOSE:
       10       10                  Report an error given by the CP-6 operating system
       11       11                  utilities.
       12       12             DESCRIPTION:
       13       13                  Given the system error word, call the system error
       14       14                  routine to get the error text.  Call Z8AE$ERROR,
       15       15                  passing it the error text, to inform the annotator of
       16       16                  the error.
       17       17        */
       18       18        Z9AE$ISSUE_SYSTEM_ERROR : PROC (ERR, ERR_DCB_NUM);
       19       19
       20       20        /*D*
       21       21               NAME: Z9AE$ISSUE_SYSTEM_ERROR
       22       22        DESCRIPTION: Report an error given by the CP-6 operating system
       23       23                        utilities.
       24       24        */
       25       25
       26       26    1   DCL ERR SBIN WORD;  /* THE SYSTEM ERROR WORD WHICH MAY BE DISPLAYED
       27       27                                    WITH THE DELTA COMMAND: D ERR\J  */
       28       28    1   DCL ERR_DCB_NUM SBIN;  /* DCBNUM of DCB for which error occurred.
       29       29                                  This is an optional parameter. */
       30       30
       31       31    1   DCL Z8AE$ERROR ENTRY(12);
       32       32
       33       33        %EQU PHASE = 1;
       34       34        %INCLUDE Z8A_DEFC;
       35      102        %INCLUDE Z8A_SUPP_MAC;
       36     2502        %INCLUDE Z8A_ERR_NUMS;
       37     3266        %INCLUDE Z8A_DNT;
PL6.E3A0      #001=Z9AE$ISSUE_SYSTEM_ERROR File=Z9AE.:Z8A6TSI                    SAT 08/09/97 13:38 Page:2
       38     3487        %INCLUDE Z8A_SYS_FILE;
       39     9762
       40     9763    1   DCL SYS_MSG_BUF CHAR(240);
       41     9764    1   DCL SYS_MSG_LEN SBIN;
       42     9765    1   DCL L SBIN;                                                /*#39132*/
       43     9766
       44     9767        %FPT_ERRMSG(RESULTS=VLR_ERRMSG);
       45     9794        %VLR_ERRMSG;                                               /*#39132*/
       46     9816
       47     9817    1   SYS_MSG_BUF = ' ';
       48     9818    1   FPT_ERRMSG.BUF_ = VECTOR(SYS_MSG_BUF);
       49     9819    1   FPT_ERRMSG.CODE_ = VECTOR(ERR);
       50     9820
       51     9821    1   IF ADDR(ERR_DCB_NUM) = ADDR(NIL) THEN
       52     9822    1     FPT_ERRMSG.V.DCB# = DCBNUMNIL;
       53     9823    1   ELSE
       54     9824    1     FPT_ERRMSG.V.DCB# = ERR_DCB_NUM;
       55     9825
       56     9826    1   CALL M$ERRMSG(FPT_ERRMSG) ALTRET(SKIP_SYS_ERR);
       57     9827
       58     9828
       59     9829    1   SYS_MSG_LEN = 120;
       60     9830    2   DO WHILE SUBSTR(SYS_MSG_BUF, SYS_MSG_LEN-1,1) = ' ' AND SYS_MSG_LEN > 1;
       61     9831    2     SYS_MSG_LEN = SYS_MSG_LEN - 1;
       62     9832    2   END;
       63     9833
       64     9834    2   IF VLR_ERRMSG.RECCNT > 1 THEN DO;                          /*#39132*/
       65     9835    2     L = 120 - 14; /* Field is 120 columns (121-240) but first 14 all blank */
       66     9836    3     DO WHILE SUBSTR (SYS_MSG_BUF,L+133,1) = ' ';
       67     9837    3       L = L - 1;
       68     9838    3     END;
       69     9839    2     CALL INSERT (SYS_MSG_BUF,SYS_MSG_LEN+1,L,SUBSTR(SYS_MSG_BUF,134,L));
       70     9840    2     SYS_MSG_LEN = SYS_MSG_LEN+L+1;
       71     9841    3     IF NOT VLR_ERRMSG.MSGCOMP THEN DO;
       72     9842    3       CALL INSERT (SYS_MSG_BUF,SYS_MSG_LEN,4,' ...');
       73     9843    3       SYS_MSG_LEN = SYS_MSG_LEN+4;
       74     9844    3     END;
PL6.E3A0      #001=Z9AE$ISSUE_SYSTEM_ERROR File=Z9AE.:Z8A6TSI                    SAT 08/09/97 13:38 Page:3
       75     9845    2   END;
       76     9846
       77     9847        %NEW_DNT ( @SIZE = SYS_MSG_LEN,
       78     9848                      @NAME = SYS_MSG_BUF);
       79     9906
       80     9907    1   CALL Z8AE$ERROR(%E$FATAL_SYSTEM_ERR,,, DNT$);
       81     9908
       82     9909    1   SKIP_SYS_ERR:
       83     9910    1     RETURN;
       84     9911
       85     9912    1   END Z9AE$ISSUE_SYSTEM_ERROR;

PL6.E3A0      #001=Z9AE$ISSUE_SYSTEM_ERROR File=Z9AE.:Z8A6TSI                    SAT 08/09/97 13:38 Page:4
--  Include file information  --

   CP_6_SUBS.:LIB_E04  is referenced.
   CP_6_C.:LIB_E04  is referenced.
   CP_6.:LIB_E04  cannot be made into a system file and is referenced.
   Z9A_FLAGS.:Z8A6TOU  is referenced.
   Z8A_SYS_FILE.:Z8A6TOU  is referenced.
   Z8A_DNT.:Z8A6TOU  cannot be made into a system file and is referenced.
   Z8A_ERR_NUMS.:Z8A6TOU  is referenced.
   X8A_COM_MACS.:X8A6TOU  is referenced.
   Z8A_NAMES.:Z8A6TOU  is referenced.
   Z8A_SUPP_MAC.:Z8A6TOU  is referenced.
   Z8A_DEFC.:Z8A6TOU  cannot be made into a system file and is referenced.
      No diagnostics issued in procedure Z9AE$ISSUE_SYSTEM_ERROR.

   Procedure Z9AE$ISSUE_SYSTEM_ERROR requires 125 words for executable code.
   Procedure Z9AE$ISSUE_SYSTEM_ERROR requires 72 words of local(AUTO) storage.

    No errors detected in file Z9AE.:Z8A6TSI    .

PL6.E3A0      #001=Z9AE$ISSUE_SYSTEM_ERROR File=Z9AE.:Z8A6TSI                    SAT 08/09/97 13:38 Page:5

 Object Unit name= Z9AE$ISSUE_SYSTEM_ERROR                    File name= Z9AE.:Z8A6TOU
 UTS= AUG 09 '97 13:38:42.16 SAT                              Compiler= PL-6/E31         Sev=      00
 SharedLib= :SHARED_SYSTEM                                    Alt SharedLib=


    ****  Control sections  ****

 Sect   Type Bound  Init  Size OctSiz  Section name(segment info)
    0  LblCom even  none     1      1  ITERATION
    1  LblCom even  none     1      1  DNT$
    2  LblCom even  none     5      5  DNT_
    3  LblCom even  none     1      1  DNT_BUCKET_NUMBER
    4  LblCom even  none     1      1  DNT_OF_1$
    5   DCB   even  none     0      0  M$UC
    6   Data  even  none    30     36  Z9AE$ISSUE_SYSTEM_ERROR
    7  RoData even  UTS      1      1  Z9AE$ISSUE_SYSTEM_ERROR
    8   Proc  even  none   125    175  Z9AE$ISSUE_SYSTEM_ERROR
    9  RoData even  none     9     11  Z9AE$ISSUE_SYSTEM_ERROR

    ****  Entry defs  ****

                              Check   Calling
                             calling  sequence
  Sect OctLoc Primary Altret sequence   type   Parms  Name
     8      0   yes            yes      Std        2  Z9AE$ISSUE_SYSTEM_ERROR

  ****  Entry refs  ****

         Check        Calling
        calling       sequence
Altret sequence SRef   type   Args  Name
         yes           Std       1 Z8AR$RESERVER
         yes           Std      12 Z8AE$ERROR
                       nStd      0 X66_AUTO_2
                       nStd      0 X66_ARET
PL6.E3A0      #001=Z9AE$ISSUE_SYSTEM_ERROR File=Z9AE.:Z8A6TSI                    SAT 08/09/97 13:38 Page:6

  ****  Data refs  ****

  Flags:  r = read only, s = secondary
Flgs Name                             Flgs Name                             Flgs Name
     M$UC

  ****  Segment refs  ****

  Flags:  r = read only, s = secondary
Flgs Name                             Flgs Name                             Flgs Name
     NULLSID                               ISSID
PL6.E3A0      #001=Z9AE$ISSUE_SYSTEM_ERROR File=Z9AE.:Z8A6TSI                    SAT 08/09/97 13:38 Page:7


        1        1        /*M* Z9AE$ISSUE_SYSTEM_ERROR - Report errors given by the CP-6 system. */
        2        2        /*T***********************************************************/
        3        3        /*T*                                                         */
        4        4        /*T* Copyright (c) Bull HN Information Systems Inc., 1997    */
        5        5        /*T*                                                         */
        6        6        /*T***********************************************************/
        7        7        /*P*
        8        8             NAME: Z9AE$ISSUE_SYSTEM_ERROR
        9        9             PURPOSE:
       10       10                  Report an error given by the CP-6 operating system
       11       11                  utilities.
       12       12             DESCRIPTION:
       13       13                  Given the system error word, call the system error
       14       14                  routine to get the error text.  Call Z8AE$ERROR,
       15       15                  passing it the error text, to inform the annotator of
       16       16                  the error.
       17       17        */
       18       18        Z9AE$ISSUE_SYSTEM_ERROR : PROC (ERR, ERR_DCB_NUM);

     18  8 000000   000000 700200 xent  Z9AE$ISSUE_* TSX0  ! X66_AUTO_2
         8 000001   000110 000002                    ZERO    72,2

       19       19
       20       20        /*D*
       21       21               NAME: Z9AE$ISSUE_SYSTEM_ERROR
       22       22        DESCRIPTION: Report an error given by the CP-6 operating system
       23       23                        utilities.
       24       24        */
       25       25
       26       26    1   DCL ERR SBIN WORD;  /* THE SYSTEM ERROR WORD WHICH MAY BE DISPLAYED
       27       27                                    WITH THE DELTA COMMAND: D ERR\J  */
       28       28    1   DCL ERR_DCB_NUM SBIN;  /* DCBNUM of DCB for which error occurred.
       29       29                                  This is an optional parameter. */
       30       30
       31       31    1   DCL Z8AE$ERROR ENTRY(12);
       32       32
PL6.E3A0      #001=Z9AE$ISSUE_SYSTEM_ERROR File=Z9AE.:Z8A6TSI                    SAT 08/09/97 13:38 Page:8
       33       33        %EQU PHASE = 1;
       34       34        %INCLUDE Z8A_DEFC;
       35      102        %INCLUDE Z8A_SUPP_MAC;
       36     2502        %INCLUDE Z8A_ERR_NUMS;
       37     3266        %INCLUDE Z8A_DNT;
       38     3487        %INCLUDE Z8A_SYS_FILE;
       39     9762
       40     9763    1   DCL SYS_MSG_BUF CHAR(240);
       41     9764    1   DCL SYS_MSG_LEN SBIN;
       42     9765    1   DCL L SBIN;                                                /*#39132*/
       43     9766
       44     9767        %FPT_ERRMSG(RESULTS=VLR_ERRMSG);
       45     9794        %VLR_ERRMSG;                                               /*#39132*/
       46     9816
       47     9817    1   SYS_MSG_BUF = ' ';

   9817  8 000002   040100 100400                    MLR     fill='040'O
         8 000003   000000 000001 9                  ADSC9   0                        cn=0,n=1
         8 000004   200005 000360                    ADSC9   SYS_MSG_BUF,,AUTO        cn=0,n=240

       48     9818    1   FPT_ERRMSG.BUF_ = VECTOR(SYS_MSG_BUF);

   9818  8 000005   000001 235000 9                  LDA     1
         8 000006   200104 452500                    STP2    L+2,,AUTO
         8 000007   200104 236100                    LDQ     L+2,,AUTO
         8 000010   000005 036003                    ADLQ    5,DU
         8 000011   000004 757000 6                  STAQ    FPT_ERRMSG+4

       49     9819    1   FPT_ERRMSG.CODE_ = VECTOR(ERR);

   9819  8 000012   777640 235007                    LDA     -96,DL
         8 000013   200003 236100                    LDQ     @ERR,,AUTO
         8 000014   000002 757000 6                  STAQ    FPT_ERRMSG+2

       50     9820
       51     9821    1   IF ADDR(ERR_DCB_NUM) = ADDR(NIL) THEN

PL6.E3A0      #001=Z9AE$ISSUE_SYSTEM_ERROR File=Z9AE.:Z8A6TSI                    SAT 08/09/97 13:38 Page:9
   9821  8 000015   200004 236100                    LDQ     @ERR_DCB_NUM,,AUTO
         8 000016   000002 116000 9                  CMPQ    2
         8 000017   000023 601000 8                  TNZ     s:9824

       52     9822    1     FPT_ERRMSG.V.DCB# = DCBNUMNIL;

   9822  8 000020   000000 220003                    LDX0    0,DU
         8 000021   000026 740000 6                  STX0    FPT_ERRMSG+22
         8 000022   000026 710000 8                  TRA     s:9826

       53     9823    1   ELSE
       54     9824    1     FPT_ERRMSG.V.DCB# = ERR_DCB_NUM;

   9824  8 000023   200004 470500                    LDP0    @ERR_DCB_NUM,,AUTO
         8 000024   000000 720100                    LXL0    0,,PR0
         8 000025   000026 740000 6                  STX0    FPT_ERRMSG+22

       55     9825
       56     9826    1   CALL M$ERRMSG(FPT_ERRMSG) ALTRET(SKIP_SYS_ERR);

   9826  8 000026   000000 630400 6                  EPPR0   FPT_ERRMSG
         8 000027   420000 713400                    CLIMB   alt,+8192
         8 000030   405000 401760                    pmme    nvectors=11
         8 000031   000174 702000 8                  TSX2    SKIP_SYS_ERR

       57     9827
       58     9828
       59     9829    1   SYS_MSG_LEN = 120;

   9829  8 000032   000170 235007                    LDA     120,DL
         8 000033   200101 755100                    STA     SYS_MSG_LEN,,AUTO

       60     9830    2   DO WHILE SUBSTR(SYS_MSG_BUF, SYS_MSG_LEN-1,1) = ' ' AND SYS_MSG_LEN > 1;

   9830  8 000034   000037 710000 8                  TRA     s:9832

       61     9831    2     SYS_MSG_LEN = SYS_MSG_LEN - 1;
PL6.E3A0      #001=Z9AE$ISSUE_SYSTEM_ERROR File=Z9AE.:Z8A6TSI                    SAT 08/09/97 13:38 Page:10

   9831  8 000035   000001 336007                    LCQ     1,DL
         8 000036   200101 056100                    ASQ     SYS_MSG_LEN,,AUTO

       62     9832    2   END;

   9832  8 000037   200101 235100                    LDA     SYS_MSG_LEN,,AUTO
         8 000040   040000 106505                    CMPC    fill='040'O
         8 000041   200004 600001                    ADSC9   @ERR_DCB_NUM,A,AUTO      cn=3,n=1
         8 000042   000000 000001 9                  ADSC9   0                        cn=0,n=1
         8 000043   000046 601000 8                  TNZ     s:9834
         8 000044   000001 115007                    CMPA    1,DL
         8 000045   000035 605400 8                  TPNZ    s:9831

       63     9833
       64     9834    2   IF VLR_ERRMSG.RECCNT > 1 THEN DO;                          /*#39132*/

   9834  8 000046   000032 236000 6                  LDQ     VLR_ERRMSG
         8 000047   000777 376007                    ANQ     511,DL
         8 000050   000002 116007                    CMPQ    2,DL
         8 000051   000107 602000 8                  TNC     s:9851

       65     9835    2     L = 120 - 14; /* Field is 120 columns (121-240) but first 14 all blank */

   9835  8 000052   000152 235007                    LDA     106,DL
         8 000053   200102 755100                    STA     L,,AUTO

       66     9836    3     DO WHILE SUBSTR (SYS_MSG_BUF,L+133,1) = ' ';

   9836  8 000054   000057 710000 8                  TRA     s:9838

       67     9837    3       L = L - 1;

   9837  8 000055   000001 336007                    LCQ     1,DL
         8 000056   200102 056100                    ASQ     L,,AUTO

       68     9838    3     END;
PL6.E3A0      #001=Z9AE$ISSUE_SYSTEM_ERROR File=Z9AE.:Z8A6TSI                    SAT 08/09/97 13:38 Page:11

   9838  8 000057   200102 235100                    LDA     L,,AUTO
         8 000060   040000 106505                    CMPC    fill='040'O
         8 000061   200046 200001                    ADSC9   SYS_MSG_BUF+33,A,AUTO    cn=1,n=1
         8 000062   000000 000001 9                  ADSC9   0                        cn=0,n=1
         8 000063   000055 600000 8                  TZE     s:9837

       69     9839    2     CALL INSERT (SYS_MSG_BUF,SYS_MSG_LEN+1,L,SUBSTR(SYS_MSG_BUF,134,L));

   9839  8 000064   000000 620005                    EAX0    0,AL
         8 000065   200102 721100                    LXL1    L,,AUTO
         8 000066   200101 235100                    LDA     SYS_MSG_LEN,,AUTO
         8 000067   040145 100540                    MLR     fill='040'O
         8 000070   200046 400010                    ADSC9   SYS_MSG_BUF+33,,AUTO     cn=2,n=*X0
         8 000071   200005 200011                    ADSC9   SYS_MSG_BUF,A,AUTO       cn=1,n=*X1

       70     9840    2     SYS_MSG_LEN = SYS_MSG_LEN+L+1;

   9840  8 000072   200101 236100                    LDQ     SYS_MSG_LEN,,AUTO
         8 000073   200102 036100                    ADLQ    L,,AUTO
         8 000074   000001 036007                    ADLQ    1,DL
         8 000075   200101 756100                    STQ     SYS_MSG_LEN,,AUTO

       71     9841    3     IF NOT VLR_ERRMSG.MSGCOMP THEN DO;

   9841  8 000076   000032 236000 6                  LDQ     VLR_ERRMSG
         8 000077   020000 316003                    CANQ    8192,DU
         8 000100   000107 601000 8                  TNZ     s:9851

       72     9842    3       CALL INSERT (SYS_MSG_BUF,SYS_MSG_LEN,4,' ...');

   9842  8 000101   200101 235100                    LDA     SYS_MSG_LEN,,AUTO
         8 000102   040105 100400                    MLR     fill='040'O
         8 000103   000000 000004 7                  ADSC9   0                        cn=0,n=4
         8 000104   200005 000004                    ADSC9   SYS_MSG_BUF,A,AUTO       cn=0,n=4

       73     9843    3       SYS_MSG_LEN = SYS_MSG_LEN+4;
PL6.E3A0      #001=Z9AE$ISSUE_SYSTEM_ERROR File=Z9AE.:Z8A6TSI                    SAT 08/09/97 13:38 Page:12

   9843  8 000105   000004 236007                    LDQ     4,DL
         8 000106   200101 056100                    ASQ     SYS_MSG_LEN,,AUTO

       74     9844    3     END;

       75     9845    2   END;

       76     9846
       77     9847        %NEW_DNT ( @SIZE = SYS_MSG_LEN,
       78     9848                      @NAME = SYS_MSG_BUF);

   9851  8 000107   200101 236100                    LDQ     SYS_MSG_LEN,,AUTO
         8 000110   000025 036007                    ADLQ    21,DL
         8 000111   000004 506007                    DIV     4,DL
         8 000112   000000 756000 0                  STQ     ITERATION

   9852  8 000113   000002 036000 2                  ADLQ    DNT_+2
         8 000114   000127 604000 8                  TMI     s:9854
         8 000115   000003 116000 2                  CMPQ    DNT_+3
         8 000116   000127 602000 8                  TNC     s:9854

   9853  8 000117   000004 236000 9                  LDQ     4
         8 000120   200104 756100                    STQ     L+2,,AUTO
         8 000121   200104 630500                    EPPR0   L+2,,AUTO
         8 000122   200105 450500                    STP0    L+3,,AUTO
         8 000123   200105 630500                    EPPR0   L+3,,AUTO
         8 000124   000003 631400 9                  EPPR1   3
         8 000125   000000 701000 xent               TSX1    Z8AR$RESERVER
         8 000126   000000 011000                    NOP     0

   9854  8 000127   000002 236000 2                  LDQ     DNT_+2
         8 000130   000022 736000                    QLS     18
         8 000131   000001 036000 2                  ADLQ    DNT_+1
         8 000132   000000 756000 1                  STQ     DNT$

   9855  8 000133   000002 236000 2                  LDQ     DNT_+2
PL6.E3A0      #001=Z9AE$ISSUE_SYSTEM_ERROR File=Z9AE.:Z8A6TSI                    SAT 08/09/97 13:38 Page:13
         8 000134   000000 036000 0                  ADLQ    ITERATION
         8 000135   000002 756000 2                  STQ     DNT_+2

   9856  8 000136   001046 220003                    LDX0    550,DU
         8 000137   000000 470400 1                  LDP0    DNT$
         8 000140   000000 740100                    STX0    0,,PR0

   9857  8 000141   000000 721000 0                  LXL1    ITERATION
         8 000142   000000 470400 1                  LDP0    DNT$
         8 000143   000000 441100                    SXL1    0,,PR0

   9858  8 000144   200101 721100                    LXL1    SYS_MSG_LEN,,AUTO
         8 000145   000000 470400 1                  LDP0    DNT$
         8 000146   000004 741100                    STX1    4,,PR0

   9861  8 000147   000002 236000 9                  LDQ     2
         8 000150   000001 756100                    STQ     1,,PR0

   9862  8 000151   000002 236000 9                  LDQ     2
         8 000152   000002 756100                    STQ     2,,PR0

   9863  8 000153   000000 222003                    LDX2    0,DU
         8 000154   000003 742100                    STX2    3,,PR0

   9864  8 000155   000000 223003                    LDX3    0,DU
         8 000156   000003 443100                    SXL3    3,,PR0

   9865  8 000157   040140 100500                    MLR     fill='040'O
         8 000160   200005 000360                    ADSC9   SYS_MSG_BUF,,AUTO        cn=0,n=240
         8 000161   000004 400011                    ADSC9   4,,PR0                   cn=2,n=*X1

       79     9906
       80     9907    1   CALL Z8AE$ERROR(%E$FATAL_SYSTEM_ERR,,, DNT$);

   9907  8 000162   000007 236000 9                  LDQ     7
         8 000163   000002 235000 9                  LDA     2
         8 000164   200106 757100                    STAQ    L+4,,AUTO
PL6.E3A0      #001=Z9AE$ISSUE_SYSTEM_ERROR File=Z9AE.:Z8A6TSI                    SAT 08/09/97 13:38 Page:14
         8 000165   000002 236000 9                  LDQ     2
         8 000166   000010 235000 9                  LDA     8
         8 000167   200104 757100                    STAQ    L+2,,AUTO
         8 000170   200104 630500                    EPPR0   L+2,,AUTO
         8 000171   000005 631400 9                  EPPR1   5
         8 000172   000000 701000 xent               TSX1    Z8AE$ERROR
         8 000173   000000 011000                    NOP     0

       81     9908
       82     9909    1   SKIP_SYS_ERR:
       83     9910    1     RETURN;

   9910  8 000174   000000 702200 xent  SKIP_SYS_ERR TSX2  ! X66_ARET
       84     9911
       85     9912    1   END Z9AE$ISSUE_SYSTEM_ERROR;

PL6.E3A0      #001=Z9AE$ISSUE_SYSTEM_ERROR File=Z9AE.:Z8A6TSI                    SAT 08/09/97 13:38 Page:15
--  Include file information  --

   CP_6_SUBS.:LIB_E04  is referenced.
   CP_6_C.:LIB_E04  is referenced.
   CP_6.:LIB_E04  cannot be made into a system file and is referenced.
   Z9A_FLAGS.:Z8A6TOU  is referenced.
   Z8A_SYS_FILE.:Z8A6TOU  is referenced.
   Z8A_DNT.:Z8A6TOU  cannot be made into a system file and is referenced.
   Z8A_ERR_NUMS.:Z8A6TOU  is referenced.
   X8A_COM_MACS.:X8A6TOU  is referenced.
   Z8A_NAMES.:Z8A6TOU  is referenced.
   Z8A_SUPP_MAC.:Z8A6TOU  is referenced.
   Z8A_DEFC.:Z8A6TOU  cannot be made into a system file and is referenced.
      No diagnostics issued in procedure Z9AE$ISSUE_SYSTEM_ERROR.
PL6.E3A0      #001=Z9AE$ISSUE_SYSTEM_ERROR File=Z9AE.:Z8A6TSI                    SAT 08/09/97 13:38 Page:16

 **** Variables and constants ****

  ****  Section 000 LblCom ITERATION

  ****  Scalars and arrays  ****
OctLoc.c.b A Datatyp(siz) R M Lvl/name                 OctLoc.c.b A Datatyp(siz) R M Lvl/name

     0-0-0/w SBIN        r     1 ITERATION

  ****  Section 001 LblCom DNT$

  ****  Scalars and arrays  ****
OctLoc.c.b A Datatyp(siz) R M Lvl/name                 OctLoc.c.b A Datatyp(siz) R M Lvl/name

     0-0-0/w PTR         r     1 DNT$

  ****  Section 002 LblCom DNT_

  ****  Scalars and arrays  ****
OctLoc.c.b A Datatyp(siz) R M Lvl/name                 OctLoc.c.b A Datatyp(siz) R M Lvl/name

     0-0-0/w STRC(180)   r     1 DNT_

  ****  Section 003 LblCom DNT_BUCKET_NUMBER

  ****  Scalars and arrays  ****
OctLoc.c.b A Datatyp(siz) R M Lvl/name                 OctLoc.c.b A Datatyp(siz) R M Lvl/name

     0-0-0/w UBIN              1 DNT_BUCKET_NUMBER

  ****  Section 004 LblCom DNT_OF_1$

  ****  Scalars and arrays  ****
OctLoc.c.b A Datatyp(siz) R M Lvl/name                 OctLoc.c.b A Datatyp(siz) R M Lvl/name

     0-0-0/w PTR               1 DNT_OF_1$

PL6.E3A0      #001=Z9AE$ISSUE_SYSTEM_ERROR File=Z9AE.:Z8A6TSI                    SAT 08/09/97 13:38 Page:17
  ****  Section 006  Data  Z9AE$ISSUE_SYSTEM_ERROR

  ****  Scalars and arrays  ****
OctLoc.c.b A Datatyp(siz) R M Lvl/name                 OctLoc.c.b A Datatyp(siz) R M Lvl/name

     0-0-0/d STRC(936)   r     1 FPT_ERRMSG                32-0-0/d STRC(144)   r     1 VLR_ERRMSG

  ****  Auto variables  ****

  ****  Scalars and arrays  ****
OctLoc.c.b A Datatyp(siz) R M Lvl/name                 OctLoc.c.b A Datatyp(siz) R M Lvl/name

     3-0-0/w PTR         r     1 @ERR                       4-0-0/w PTR         r     1 @ERR_DCB_NUM
    *0-0-0/w SBIN        r     1 ERR                       *0-0-0/w SBIN        r     1 ERR_DCB_NUM
   102-0-0/w SBIN        r     1 L                          5-0-0/c CHAR(240)   r     1 SYS_MSG_BUF
   101-0-0/w SBIN        r     1 SYS_MSG_LEN

  ****  BASED and DCB variables  ****

  ****  Scalars and arrays  ****
OctLoc.c.b A Datatyp(siz) R M Lvl/name                 OctLoc.c.b A Datatyp(siz) R M Lvl/name

     0-0-0/w CHAR(4096)        1 CHARS                      0-0-0/w STRC(72)          1 CONT
     0-0-0/w ASTR(180)   r     1 DNT                        0-0-0N  NULL        r     1 M$UC
     0-0-0/w STRC(36864)       1 PAGE


   Procedure Z9AE$ISSUE_SYSTEM_ERROR requires 125 words for executable code.
   Procedure Z9AE$ISSUE_SYSTEM_ERROR requires 72 words of local(AUTO) storage.

    No errors detected in file Z9AE.:Z8A6TSI    .
