VERSION A06

PL6.E3A0      #001=Z9AL$DUMP_LINE File=Z9AL.:Z8A6TSI                             SAT 08/09/97 13:39 Page:1
        1        1        /*M* Z9AL -- SYSTEM READ AND WRITE INTERFACE ROUTINES */
        2        2        /*T***********************************************************/
        3        3        /*T*                                                         */
        4        4        /*T* Copyright (c) Bull HN Information Systems Inc., 1997    */
        5        5        /*T*                                                         */
        6        6        /*T***********************************************************/
        7        7
        8        8
        9        9        /*P*   NAME: Z9AL$?  -- ONE OF THE FOLLOWING ENTRIES.
       10       10            PURPOSE: Z9AL$DUMP_LINE        -- PRINT ONE LINE TO THE "LO" FILE.
       11       11                     Z9AL$FORM_FEED        -- ADVANCE TO TOP OF PAGE.
       12       12                     Z9AL$WRITE_BLANK_LINE       -- PRINT A BLANK LINE TO "LO" FILE.
       13       13                     Z9AL$WRITE_TERMINAL   -- PRINT A LINE TO A TERMINAL.
       14       14                     Z9AL$READ_TERMINAL    -- READ FROM A TERMINAL.
       15       15
       16       16        */
       17       17
       18       18        /*D*   NAME: Z9AL$DUMP_LINE
       19       19               CALL: CALL Z9AL$DUMP_LINE (Line_to_print) ;
       20       20          INTERFACE: M$WRITE -- Writes the line.
       21       21              INPUT: OBUF (EXTERNAL)  -- The line to print.
       22       22        DESCRIPTION: What more can one say?
       23       23
       24       24        */
       25       25
       26       26        %EJECT;
PL6.E3A0      #001=Z9AL$DUMP_LINE File=Z9AL.:Z8A6TSI                             SAT 08/09/97 13:39 Page:2
       27       27        Z9AL$DUMP_LINE: PROC ; /* PRINT A 120-BYTE LINE */
       28       28
       29       29        %EQU PHASE = 6;
       30       30        %INCLUDE Z8A_SYS_FILE ;
       31     6305        %INCLUDE Z8A_DEFC;
       32     6373        %INCLUDE Z8E_TABLES;
       33     6926
       34     6927    1   DCL Z9AT$TERMINATOR ENTRY;
       35     6928
       36     6929    1   DCL   OBUF        CHAR (120) EXT;
       37     6930    1   DCL   INBUF       CHAR (80)  EXT;
       38     6931    1   DCL   BLANK_BUF   CHAR (1) CONSTANT INIT(' ');
       39     6932    1   DCL   PAGE_BUF    CHAR (1) CONSTANT INIT('P');
       40     6933    1   DCL ME_MSG CHAR (0) CONSTANT INIT ('ERROR ON TERMINAL I/O');
       41     6934    1   DCL LO_MSG CHAR (0) CONSTANT INIT ('ERROR ON WRITING LO');
       42     6935
       43     6936        %IF CP6;
       44     6937    1   DCL   M$LO   DCB ;
       45     6938    1   DCL   M$ME   DCB ;
       46     6939    1   DCL M$DO DCB;
       47     6940        %ENDIF;
       48     6941
       49     6942        %FPT_WRITE (FPTN=WRITELO, VFC=NO, DCB=%M$LO) ;
       50     6973        %FPT_WRITE (FPTN=WRITELO2, VFC=YES, DCB=%M$LO) ;
       51     7004        %FPT_WRITE (FPTN=WRITEME, VFC=NO,  DCB=%M$ME);
       52     7035        %FPT_WRITE (FPTN=WRITEME2, VFC=YES, DCB=%M$ME);
       53     7066        %FPT_READ  (FPTN=READ_ME, DCB=%M$ME);
       54     7105        %FPT_WRITE (FPTN=WRITEDO, VFC=NO, DCB=%M$DO) ;
       55     7136        %EJECT;
PL6.E3A0      #001=Z9AL$DUMP_LINE File=Z9AL.:Z8A6TSI                             SAT 08/09/97 13:39 Page:3
       56     7137    1          WRITELO.BUF_ = VECTOR(OBUF) ;
       57     7138    1          CALL M$WRITE (WRITELO) ALTRET (LO_ERR) ;
       58     7139
       59     7140    1       RETURN;
       60     7141        %EJECT;
PL6.E3A0      #001=Z9AL$DUMP_LINE File=Z9AL.:Z8A6TSI                             SAT 08/09/97 13:39 Page:4
       61     7142
       62     7143    1   Z9AL$FORM_FEED: ENTRY ; /*ADVANCE THE PAGE */
       63     7144
       64     7145    1       WRITELO2.BUF_ = VECTOR ( PAGE_BUF );
       65     7146    1       CALL M$WRITE (WRITELO2) ALTRET (LO_ERR);
       66     7147
       67     7148    1       RETURN;
       68     7149        %EJECT;
PL6.E3A0      #001=Z9AL$DUMP_LINE File=Z9AL.:Z8A6TSI                             SAT 08/09/97 13:39 Page:5
       69     7150    1     Z9AL$WRITE_BLANK_LINE: ENTRY;  /* PRINT A BLANK LINE */
       70     7151
       71     7152    1       WRITELO.BUF_ = VECTOR (BLANK_BUF);
       72     7153    1       CALL M$WRITE (WRITELO) ALTRET (LO_ERR);
       73     7154    1       RETURN;
       74     7155
       75     7156    1   LO_ERR: WRITEDO.BUF_ = VECTOR (LO_MSG) ;
       76     7157    1       CALL M$WRITE (WRITEDO) ALTRET (Z9AL$ABORT) ;
       77     7158    1       RETURN ;
       78     7159        %EJECT;
PL6.E3A0      #001=Z9AL$DUMP_LINE File=Z9AL.:Z8A6TSI                             SAT 08/09/97 13:39 Page:6
       79     7160    1   Z9AL$WRITE_TERMINAL: ENTRY; /* WRITE A LINE TO M$ME */
       80     7161
       81     7162    1       WRITEME.BUF_ = VECTOR (OBUF);
       82     7163    1       CALL M$WRITE (WRITEME) ALTRET (ME_ERR) ;
       83     7164    1       RETURN;
       84     7165        %EJECT;
PL6.E3A0      #001=Z9AL$DUMP_LINE File=Z9AL.:Z8A6TSI                             SAT 08/09/97 13:39 Page:7
       85     7166    1   Z9AL$WRITE_TERMINAL_VFC: ENTRY; /* WRITE A LINE TO M$ME WITH VFC */
       86     7167
       87     7168    1       WRITEME2.BUF_ = VECTOR (OBUF);
       88     7169    1       CALL M$WRITE (WRITEME2) ALTRET (ME_ERR) ;
       89     7170
       90     7171    1       RETURN;
       91     7172        %EJECT;
PL6.E3A0      #001=Z9AL$DUMP_LINE File=Z9AL.:Z8A6TSI                             SAT 08/09/97 13:39 Page:8
       92     7173    1   Z9AL$READ_TERMINAL:  ENTRY;  /* READ FROM TERMINAL */
       93     7174
       94     7175    1       INBUF = ' ';
       95     7176    1       READ_ME.BUF_ = VECTOR (INBUF);
       96     7177    1       CALL M$READ (READ_ME) ALTRET (ME_ERR) ;
       97     7178        /*V*
       98     7179               CONVERT_TO_UPPER:   CONVERTS ALL LOWER CASE INPUT TO UPPER CASE
       99     7180        */
      100     7181
      101     7182    1       CALL XLATE(INBUF,LOWER_TO_UPPER_CASE,INBUF);
      102     7183
      103     7184    1       RETURN;
      104     7185
      105     7186    1   ME_ERR: WRITEDO.BUF_ = VECTOR (ME_MSG) ;
      106     7187    1       CALL M$WRITE (WRITEDO) ALTRET (Z9AL$ABORT) ;
      107     7188    1       RETURN;
      108     7189
      109     7190    1   Z9AL$ABORT: CALL Z9AT$TERMINATOR;
      110     7191    1   END Z9AL$DUMP_LINE ;

PL6.E3A0      #001=Z9AL$DUMP_LINE File=Z9AL.:Z8A6TSI                             SAT 08/09/97 13:39 Page:9
--  Include file information  --

   Z8E_TABLES.:Z8A6TOU  cannot be made into a system file and is referenced.
   Z8A_DEFC.:Z8A6TOU  cannot be made into a system file and is referenced.
   CP_6_SUBS.:LIB_E04  is referenced.
   CP_6_C.:LIB_E04  is referenced.
   CP_6.:LIB_E04  cannot be made into a system file and is referenced.
   Z9A_FLAGS.:Z8A6TOU  is referenced.
   Z8A_SYS_FILE.:Z8A6TOU  is referenced.
      No diagnostics issued in procedure Z9AL$DUMP_LINE.

   Procedure Z9AL$DUMP_LINE requires 79 words for executable code.
   Procedure Z9AL$DUMP_LINE requires 4 words of local(AUTO) storage.

    No errors detected in file Z9AL.:Z8A6TSI    .

PL6.E3A0      #001=Z9AL$DUMP_LINE File=Z9AL.:Z8A6TSI                             SAT 08/09/97 13:39 Page:10

 Object Unit name= Z9AL$DUMP_LINE                             File name= Z9AL.:Z8A6TOU
 UTS= AUG 09 '97 13:39:17.76 SAT                              Compiler= PL-6/E31         Sev=      00
 SharedLib= :SHARED_SYSTEM                                    Alt SharedLib=


    ****  Control sections  ****

 Sect   Type Bound  Init  Size OctSiz  Section name(segment info)
    0   DCB   even  none     0      0  M$UC
    1  LblCom even  none     1      1  ITERATION
    2  LblCom even  none    30     36  OBUF
    3  LblCom even  none    20     24  INBUF
    4  RoData even  UTS     13     15  Z9AL$DUMP_LINE
    5   DCB   even  none     0      0  M$LO
    6   DCB   even  none     0      0  M$ME
    7   DCB   even  none     0      0  M$DO
    8   Data  even  none    74    112  Z9AL$DUMP_LINE
    9   Proc  even  none    79    117  Z9AL$DUMP_LINE
   10  RoData even  none    14     16  Z9AL$DUMP_LINE

    ****  Entry defs  ****

                              Check   Calling
                             calling  sequence
  Sect OctLoc Primary Altret sequence   type   Parms  Name
     9      0   yes            yes      Std        0  Z9AL$DUMP_LINE
     9     11                  yes      Std        0  Z9AL$FORM_FEED
     9     22                  yes      Std        0  Z9AL$WRITE_BLANK_LINE
     9     42                  yes      Std        0  Z9AL$WRITE_TERMINAL
     9     53                  yes      Std        0  Z9AL$WRITE_TERMINAL_VFC
     9     64                  yes      Std        0  Z9AL$READ_TERMINAL
PL6.E3A0      #001=Z9AL$DUMP_LINE File=Z9AL.:Z8A6TSI                             SAT 08/09/97 13:39 Page:11

  ****  Entry refs  ****

         Check        Calling
        calling       sequence
Altret sequence SRef   type   Args  Name
         yes           Std       0 Z9AT$TERMINATOR
                       nStd      0 X66_AUTO_0
                       nStd      0 X66_ARET

  ****  Data refs  ****

  Flags:  r = read only, s = secondary
Flgs Name                             Flgs Name                             Flgs Name
     M$UC                             r    USERWORD_SCAN_TABLE              r    ANSI_USERWORD_SCAN_TABLE
r    ASCII_SEARCH_TABLE               r    BLANK_SCAN_TABLE                 r    DIGIT_SCAN_TABLE
r    LETTER_SEARCH_TABLE              r    DOUBLE_QUOTE_SEARCH_TABLE        r    SINGLE_QUOTE_SEARCH_TABLE
r    DBL_QUOTE_PSEUDO_SEARCH_TABLE    r    SNGL_QUOTE_PSEUDO_SEARCH_TABLE   r    SEPARATORS_TABLE
r    LOWER_TO_UPPER_CASE              r    CURRENCY_SIGN_CHARS                   M$LO
     M$ME                                  M$DO

  ****  Segment refs  ****

  Flags:  r = read only, s = secondary
Flgs Name                             Flgs Name                             Flgs Name
     ISSID                                 NULLSID
PL6.E3A0      #001=Z9AL$DUMP_LINE File=Z9AL.:Z8A6TSI                             SAT 08/09/97 13:39 Page:12


        1        1        /*M* Z9AL -- SYSTEM READ AND WRITE INTERFACE ROUTINES */
        2        2        /*T***********************************************************/
        3        3        /*T*                                                         */
        4        4        /*T* Copyright (c) Bull HN Information Systems Inc., 1997    */
        5        5        /*T*                                                         */
        6        6        /*T***********************************************************/
        7        7
        8        8
        9        9        /*P*   NAME: Z9AL$?  -- ONE OF THE FOLLOWING ENTRIES.
       10       10            PURPOSE: Z9AL$DUMP_LINE        -- PRINT ONE LINE TO THE "LO" FILE.
       11       11                     Z9AL$FORM_FEED        -- ADVANCE TO TOP OF PAGE.
       12       12                     Z9AL$WRITE_BLANK_LINE       -- PRINT A BLANK LINE TO "LO" FILE.
       13       13                     Z9AL$WRITE_TERMINAL   -- PRINT A LINE TO A TERMINAL.
       14       14                     Z9AL$READ_TERMINAL    -- READ FROM A TERMINAL.
       15       15
       16       16        */
       17       17
       18       18        /*D*   NAME: Z9AL$DUMP_LINE
       19       19               CALL: CALL Z9AL$DUMP_LINE (Line_to_print) ;
       20       20          INTERFACE: M$WRITE -- Writes the line.
       21       21              INPUT: OBUF (EXTERNAL)  -- The line to print.
       22       22        DESCRIPTION: What more can one say?
       23       23
       24       24        */
       25       25
       26       26        %EJECT;
PL6.E3A0      #001=Z9AL$DUMP_LINE File=Z9AL.:Z8A6TSI                             SAT 08/09/97 13:39 Page:13
       27       27        Z9AL$DUMP_LINE: PROC ; /* PRINT A 120-BYTE LINE */

     27  9 000000   000000 700200 xent  Z9AL$DUMP_L* TSX0  ! X66_AUTO_0
         9 000001   000004 000000                    ZERO    4,0

       28       28
       29       29        %EQU PHASE = 6;
       30       30        %INCLUDE Z8A_SYS_FILE ;
       31     6305        %INCLUDE Z8A_DEFC;
       32     6373        %INCLUDE Z8E_TABLES;
       33     6926
       34     6927    1   DCL Z9AT$TERMINATOR ENTRY;
       35     6928
       36     6929    1   DCL   OBUF        CHAR (120) EXT;
       37     6930    1   DCL   INBUF       CHAR (80)  EXT;
       38     6931    1   DCL   BLANK_BUF   CHAR (1) CONSTANT INIT(' ');
       39     6932    1   DCL   PAGE_BUF    CHAR (1) CONSTANT INIT('P');
       40     6933    1   DCL ME_MSG CHAR (0) CONSTANT INIT ('ERROR ON TERMINAL I/O');
       41     6934    1   DCL LO_MSG CHAR (0) CONSTANT INIT ('ERROR ON WRITING LO');
       42     6935
       43     6936        %IF CP6;
       44     6937    1   DCL   M$LO   DCB ;
       45     6938    1   DCL   M$ME   DCB ;
       46     6939    1   DCL M$DO DCB;
       47     6940        %ENDIF;
       48     6941
       49     6942        %FPT_WRITE (FPTN=WRITELO, VFC=NO, DCB=%M$LO) ;
       50     6973        %FPT_WRITE (FPTN=WRITELO2, VFC=YES, DCB=%M$LO) ;
       51     7004        %FPT_WRITE (FPTN=WRITEME, VFC=NO,  DCB=%M$ME);
       52     7035        %FPT_WRITE (FPTN=WRITEME2, VFC=YES, DCB=%M$ME);
       53     7066        %FPT_READ  (FPTN=READ_ME, DCB=%M$ME);
       54     7105        %FPT_WRITE (FPTN=WRITEDO, VFC=NO, DCB=%M$DO) ;
       55     7136        %EJECT;
PL6.E3A0      #001=Z9AL$DUMP_LINE File=Z9AL.:Z8A6TSI                             SAT 08/09/97 13:39 Page:14
       56     7137    1          WRITELO.BUF_ = VECTOR(OBUF) ;

   7137  9 000002   000000 237000 10                 LDAQ    0
         9 000003   000004 757000 8                  STAQ    WRITELO+4

       57     7138    1          CALL M$WRITE (WRITELO) ALTRET (LO_ERR) ;

   7138  9 000004   000000 630400 8                  EPPR0   WRITELO
         9 000005   440001 713400                    CLIMB   alt,write
         9 000006   401400 401760                    pmme    nvectors=4
         9 000007   000033 702000 9                  TSX2    LO_ERR

       58     7139
       59     7140    1       RETURN;

   7140  9 000010   000000 702200 xent               TSX2  ! X66_ARET

       60     7141        %EJECT;
PL6.E3A0      #001=Z9AL$DUMP_LINE File=Z9AL.:Z8A6TSI                             SAT 08/09/97 13:39 Page:15
       61     7142
       62     7143    1   Z9AL$FORM_FEED: ENTRY ; /*ADVANCE THE PAGE */

   7143  9 000011   000000 700200 xent  Z9AL$FORM_F* TSX0  ! X66_AUTO_0
         9 000012   000004 000000                    ZERO    4,0

       63     7144
       64     7145    1       WRITELO2.BUF_ = VECTOR ( PAGE_BUF );

   7145  9 000013   000002 237000 10                 LDAQ    2
         9 000014   000020 757000 8                  STAQ    WRITELO2+4

       65     7146    1       CALL M$WRITE (WRITELO2) ALTRET (LO_ERR);

   7146  9 000015   000014 630400 8                  EPPR0   WRITELO2
         9 000016   440001 713400                    CLIMB   alt,write
         9 000017   401400 401760                    pmme    nvectors=4
         9 000020   000033 702000 9                  TSX2    LO_ERR

       66     7147
       67     7148    1       RETURN;

   7148  9 000021   000000 702200 xent               TSX2  ! X66_ARET

       68     7149        %EJECT;
PL6.E3A0      #001=Z9AL$DUMP_LINE File=Z9AL.:Z8A6TSI                             SAT 08/09/97 13:39 Page:16
       69     7150    1     Z9AL$WRITE_BLANK_LINE: ENTRY;  /* PRINT A BLANK LINE */

   7150  9 000022   000000 700200 xent  Z9AL$WRITE_* TSX0  ! X66_AUTO_0
         9 000023   000004 000000                    ZERO    4,0

       70     7151
       71     7152    1       WRITELO.BUF_ = VECTOR (BLANK_BUF);

   7152  9 000024   000004 237000 10                 LDAQ    4
         9 000025   000004 757000 8                  STAQ    WRITELO+4

       72     7153    1       CALL M$WRITE (WRITELO) ALTRET (LO_ERR);

   7153  9 000026   000000 630400 8                  EPPR0   WRITELO
         9 000027   440001 713400                    CLIMB   alt,write
         9 000030   401400 401760                    pmme    nvectors=4
         9 000031   000033 702000 9                  TSX2    LO_ERR

       73     7154    1       RETURN;

   7154  9 000032   000000 702200 xent               TSX2  ! X66_ARET

       74     7155
       75     7156    1   LO_ERR: WRITEDO.BUF_ = VECTOR (LO_MSG) ;

   7156  9 000033   000006 237000 10    LO_ERR       LDAQ    6
         9 000034   000102 757000 8                  STAQ    WRITEDO+4

       76     7157    1       CALL M$WRITE (WRITEDO) ALTRET (Z9AL$ABORT) ;

   7157  9 000035   000076 630400 8                  EPPR0   WRITEDO
         9 000036   440001 713400                    CLIMB   alt,write
         9 000037   401400 401760                    pmme    nvectors=4
         9 000040   000113 702000 9                  TSX2    Z9AL$ABORT

       77     7158    1       RETURN ;

PL6.E3A0      #001=Z9AL$DUMP_LINE File=Z9AL.:Z8A6TSI                             SAT 08/09/97 13:39 Page:17
   7158  9 000041   000000 702200 xent               TSX2  ! X66_ARET

       78     7159        %EJECT;
PL6.E3A0      #001=Z9AL$DUMP_LINE File=Z9AL.:Z8A6TSI                             SAT 08/09/97 13:39 Page:18
       79     7160    1   Z9AL$WRITE_TERMINAL: ENTRY; /* WRITE A LINE TO M$ME */

   7160  9 000042   000000 700200 xent  Z9AL$WRITE_* TSX0  ! X66_AUTO_0
         9 000043   000004 000000                    ZERO    4,0

       80     7161
       81     7162    1       WRITEME.BUF_ = VECTOR (OBUF);

   7162  9 000044   000000 237000 10                 LDAQ    0
         9 000045   000034 757000 8                  STAQ    WRITEME+4

       82     7163    1       CALL M$WRITE (WRITEME) ALTRET (ME_ERR) ;

   7163  9 000046   000030 630400 8                  EPPR0   WRITEME
         9 000047   440001 713400                    CLIMB   alt,write
         9 000050   401400 401760                    pmme    nvectors=4
         9 000051   000104 702000 9                  TSX2    ME_ERR

       83     7164    1       RETURN;

   7164  9 000052   000000 702200 xent               TSX2  ! X66_ARET

       84     7165        %EJECT;
PL6.E3A0      #001=Z9AL$DUMP_LINE File=Z9AL.:Z8A6TSI                             SAT 08/09/97 13:39 Page:19
       85     7166    1   Z9AL$WRITE_TERMINAL_VFC: ENTRY; /* WRITE A LINE TO M$ME WITH VFC */

   7166  9 000053   000000 700200 xent  Z9AL$WRITE_* TSX0  ! X66_AUTO_0
         9 000054   000004 000000                    ZERO    4,0

       86     7167
       87     7168    1       WRITEME2.BUF_ = VECTOR (OBUF);

   7168  9 000055   000000 237000 10                 LDAQ    0
         9 000056   000050 757000 8                  STAQ    WRITEME2+4

       88     7169    1       CALL M$WRITE (WRITEME2) ALTRET (ME_ERR) ;

   7169  9 000057   000044 630400 8                  EPPR0   WRITEME2
         9 000060   440001 713400                    CLIMB   alt,write
         9 000061   401400 401760                    pmme    nvectors=4
         9 000062   000104 702000 9                  TSX2    ME_ERR

       89     7170
       90     7171    1       RETURN;

   7171  9 000063   000000 702200 xent               TSX2  ! X66_ARET

       91     7172        %EJECT;
PL6.E3A0      #001=Z9AL$DUMP_LINE File=Z9AL.:Z8A6TSI                             SAT 08/09/97 13:39 Page:20
       92     7173    1   Z9AL$READ_TERMINAL:  ENTRY;  /* READ FROM TERMINAL */

   7173  9 000064   000000 700200 xent  Z9AL$READ_T* TSX0  ! X66_AUTO_0
         9 000065   000004 000000                    ZERO    4,0

       93     7174
       94     7175    1       INBUF = ' ';

   7175  9 000066   040000 100400                    MLR     fill='040'O
         9 000067   000010 000001 10                 ADSC9   8                        cn=0,n=1
         9 000070   000000 000120 3                  ADSC9   INBUF                    cn=0,n=80

       95     7176    1       READ_ME.BUF_ = VECTOR (INBUF);

   7176  9 000071   000012 237000 10                 LDAQ    10
         9 000072   000064 757000 8                  STAQ    READ_ME+4

       96     7177    1       CALL M$READ (READ_ME) ALTRET (ME_ERR) ;

   7177  9 000073   000060 630400 8                  EPPR0   READ_ME
         9 000074   440000 713400                    CLIMB   alt,read
         9 000075   401400 401760                    pmme    nvectors=4
         9 000076   000104 702000 9                  TSX2    ME_ERR

       97     7178        /*V*
       98     7179               CONVERT_TO_UPPER:   CONVERTS ALL LOWER CASE INPUT TO UPPER CASE
       99     7180        */
      100     7181
      101     7182    1       CALL XLATE(INBUF,LOWER_TO_UPPER_CASE,INBUF);

   7182  9 000077   040000 160400                    MVT     fill='040'O
         9 000100   000000 000120 3                  ADSC9   INBUF                    cn=0,n=80
         9 000101   000000 000120 3                  ADSC9   INBUF                    cn=0,n=80
         9 000102   000000 000000 xsym               ARG     LOWER_TO_UPPER_CASE

      102     7183
      103     7184    1       RETURN;
PL6.E3A0      #001=Z9AL$DUMP_LINE File=Z9AL.:Z8A6TSI                             SAT 08/09/97 13:39 Page:21

   7184  9 000103   000000 702200 xent               TSX2  ! X66_ARET

      104     7185
      105     7186    1   ME_ERR: WRITEDO.BUF_ = VECTOR (ME_MSG) ;

   7186  9 000104   000014 237000 10    ME_ERR       LDAQ    12
         9 000105   000102 757000 8                  STAQ    WRITEDO+4

      106     7187    1       CALL M$WRITE (WRITEDO) ALTRET (Z9AL$ABORT) ;

   7187  9 000106   000076 630400 8                  EPPR0   WRITEDO
         9 000107   440001 713400                    CLIMB   alt,write
         9 000110   401400 401760                    pmme    nvectors=4
         9 000111   000113 702000 9                  TSX2    Z9AL$ABORT

      107     7188    1       RETURN;

   7188  9 000112   000000 702200 xent               TSX2  ! X66_ARET

      108     7189
      109     7190    1   Z9AL$ABORT: CALL Z9AT$TERMINATOR;

   7190  9 000113   000011 631400 10    Z9AL$ABORT   EPPR1   9
         9 000114   000000 701000 xent               TSX1    Z9AT$TERMINATOR
         9 000115   000000 011000                    NOP     0

      110     7191    1   END Z9AL$DUMP_LINE ;

   7191  9 000116   000000 702200 xent               TSX2  ! X66_ARET

PL6.E3A0      #001=Z9AL$DUMP_LINE File=Z9AL.:Z8A6TSI                             SAT 08/09/97 13:39 Page:22
--  Include file information  --

   Z8E_TABLES.:Z8A6TOU  cannot be made into a system file and is referenced.
   Z8A_DEFC.:Z8A6TOU  cannot be made into a system file and is referenced.
   CP_6_SUBS.:LIB_E04  is referenced.
   CP_6_C.:LIB_E04  is referenced.
   CP_6.:LIB_E04  cannot be made into a system file and is referenced.
   Z9A_FLAGS.:Z8A6TOU  is referenced.
   Z8A_SYS_FILE.:Z8A6TOU  is referenced.
      No diagnostics issued in procedure Z9AL$DUMP_LINE.
PL6.E3A0      #001=Z9AL$DUMP_LINE File=Z9AL.:Z8A6TSI                             SAT 08/09/97 13:39 Page:23

 **** Variables and constants ****

  ****  Section 001 LblCom ITERATION

  ****  Scalars and arrays  ****
OctLoc.c.b A Datatyp(siz) R M Lvl/name                 OctLoc.c.b A Datatyp(siz) R M Lvl/name

     0-0-0/w SBIN              1 ITERATION

  ****  Section 002 LblCom OBUF

  ****  Scalars and arrays  ****
OctLoc.c.b A Datatyp(siz) R M Lvl/name                 OctLoc.c.b A Datatyp(siz) R M Lvl/name

     0-0-0/c CHAR(120)   r     1 OBUF

  ****  Section 003 LblCom INBUF

  ****  Scalars and arrays  ****
OctLoc.c.b A Datatyp(siz) R M Lvl/name                 OctLoc.c.b A Datatyp(siz) R M Lvl/name

     0-0-0/c CHAR(80)    r     1 INBUF

  ****  Section 004 RoData Z9AL$DUMP_LINE

  ****  Scalars and arrays  ****
OctLoc.c.b A Datatyp(siz) R M Lvl/name                 OctLoc.c.b A Datatyp(siz) R M Lvl/name

     0-0-0/c CHAR        r     1 BLANK_BUF                 10-0-0/c CHAR(19)    r     1 LO_MSG
     2-0-0/c CHAR(21)    r     1 ME_MSG                     1-0-0/c CHAR        r     1 PAGE_BUF

  ****  Section 008  Data  Z9AL$DUMP_LINE

  ****  Scalars and arrays  ****
OctLoc.c.b A Datatyp(siz) R M Lvl/name                 OctLoc.c.b A Datatyp(siz) R M Lvl/name

    60-0-0/d STRC(504)   r     1 READ_ME                   76-0-0/d STRC(432)   r     1 WRITEDO
PL6.E3A0      #001=Z9AL$DUMP_LINE File=Z9AL.:Z8A6TSI                             SAT 08/09/97 13:39 Page:24
     0-0-0/d STRC(432)   r     1 WRITELO                   14-0-0/d STRC(432)   r     1 WRITELO2
    30-0-0/d STRC(432)   r     1 WRITEME                   44-0-0/d STRC(432)   r     1 WRITEME2

  ****  SYMREF variables  ****

  ****  Scalars and arrays  ****
OctLoc.c.b A Datatyp(siz) R M Lvl/name                 OctLoc.c.b A Datatyp(siz) R M Lvl/name

     0-0-0/w STRC(4608)        1 ANSI_USERWORD_SCAN_TABLE
     0-0-0/w STRC(4608)        1 ASCII_SEARCH_TABLE         0-0-0/w STRC(4608)        1 BLANK_SCAN_TABLE
     0-0-0/c CHAR              1 CURRENCY_SIGN_CHARS(0:511)
     0-0-0/w STRC(4608)        1 DBL_QUOTE_PSEUDO_SEARCH_TABLE
     0-0-0/w STRC(4608)        1 DIGIT_SCAN_TABLE
     0-0-0/w STRC(4608)        1 DOUBLE_QUOTE_SEARCH_TABLE
     0-0-0/w STRC(4608)        1 LETTER_SEARCH_TABLE
     0-0-0/c CHAR        r     1 LOWER_TO_UPPER_CASE(0:511)
     0-0-0/w STRC(4608)        1 SEPARATORS_TABLE
     0-0-0/w STRC(4608)        1 SINGLE_QUOTE_SEARCH_TABLE
     0-0-0/w STRC(4608)        1 SNGL_QUOTE_PSEUDO_SEARCH_TABLE
     0-0-0/w STRC(4608)        1 USERWORD_SCAN_TABLE

  ****  BASED and DCB variables  ****

  ****  Scalars and arrays  ****
OctLoc.c.b A Datatyp(siz) R M Lvl/name                 OctLoc.c.b A Datatyp(siz) R M Lvl/name

     0-0-0/w CHAR(4096)        1 CHARS                      0-0-0/w STRC(72)          1 CONT
     0-0-0N  NULL        r     1 M$DO                       0-0-0N  NULL        r     1 M$LO
     0-0-0N  NULL        r     1 M$ME                       0-0-0N  NULL        r     1 M$UC
     0-0-0/w STRC(36864)       1 PAGE


   Procedure Z9AL$DUMP_LINE requires 79 words for executable code.
   Procedure Z9AL$DUMP_LINE requires 4 words of local(AUTO) storage.
PL6.E3A0      #001=Z9AL$DUMP_LINE File=Z9AL.:Z8A6TSI                             SAT 08/09/97 13:39 Page:25

    No errors detected in file Z9AL.:Z8A6TSI    .
