VERSION A06

PL6.E3A0      #001=Z9AP$BRING_IN_PHASE File=Z9AP.:Z8A6TSI                        SAT 08/09/97 13:40 Page:1
        1        1        /*M* Z9AP$BRING_IN_PHASE -- Start execution of next phase */
        2        2        /*T***********************************************************/
        3        3        /*T*                                                         */
        4        4        /*T* Copyright (c) Bull HN Information Systems Inc., 1997    */
        5        5        /*T*                                                         */
        6        6        /*T***********************************************************/
        7        7
        8        8
        9        9        /*P*
       10       10
       11       11               NAME: Z9AP$BRING_IN_PHASE
       12       12             AUTHOR: MJ GLENN
       13       13            PURPOSE: TO OVERLAY AND START EXECUTION OF THE NEXT PHASE,
       14       14                     AND TO ACCUMULATE THE APPROXIMATE EXECUTION TIME
       15       15                     FOR THAT PHASE.
       16       16        */
       17       17
       18       18        /*D*      NAME: Z9AP$BRING_IN_PHASE
       19       19
       20       20                  CALL: CALL Z9AP$BRING_IN_PHASE (Phase_Number) ;
       21       21
       22       22             INTERFACE: M$XEQTIME -- CPU Time.
       23       23
       24       24           DESCRIPTION: Called six times from Z8AM; the first time
       25       25                        to record the time at which Phase One started,
       26       26                        then once for each phase (1 thru 5).  This
       27       27                        module uses one internal routine --
       28       28                        FIGURE_TIMES.
       29       29        */
       30       30
       31       31        %EJECT;
PL6.E3A0      #001=Z9AP$BRING_IN_PHASE File=Z9AP.:Z8A6TSI                        SAT 08/09/97 13:40 Page:2
       32       32        Z9AP$BRING_IN_PHASE:PROC (PHASE_NO) NOAUTO;
       33       33
       34       34             %EQU PHASE = 0;
       35       35             %INCLUDE Z8A_DEFC;
       36      103             %INCLUDE Z8A_SUPP_MAC;
       37     2503             %INCLUDE Z8A_COMCOM ;
       38     3153
       39     3154    1        DCL PHASE_NO UBIN WORD;
       40     3155    1        DCL Z8E1$PHASE1 ENTRY;
       41     3156    1        DCL Z8F2$PHASE2 ENTRY ;
       42     3157    1        DCL Z8GO$GLOBAL_OPTIMIZER ENTRY ;
       43     3158    1        DCL Z8HR$CODE_GENERATOR ENTRY;
       44     3159    1        DCL Z8JT$TABLE_DUMP ENTRY ;
       45     3160    1        DCL Z8JT$DUMP_TIMES ENTRY;
       46     3161    1        DCL Z8IA ENTRY;
       47     3162    1        DCL Z9BO$OPTIONS_RECOGNITION ENTRY;
       48     3163    1        DCL Z9AM$GET_VIRTUAL_SPACE ENTRY;
       49     3164
       50     3165    1        COMCOM.CURRENT.PHASE = PHASE_NO ;
       51     3166
       52     3167    2        DO CASE(PHASE_NO);
       53     3168    2          CASE(0);
       54     3169    2            CALL Z9BO$OPTIONS_RECOGNITION;
       55     3170    2            IF COMCOM.OB.VIRTUAL THEN
       56     3171    2              CALL Z9AM$GET_VIRTUAL_SPACE;
       57     3172    2          CASE(1);
       58     3173    2            CALL Z8E1$PHASE1;    /* THE FRONT-END */
       59     3174    2            IF COMCOM.OB.O1DUMP
       60     3175    2            THEN CALL Z8JT$TABLE_DUMP ;
       61     3176    2          CASE(2);
       62     3177    2            CALL Z8F2$PHASE2 ; /* THE END OF THE FRONT */
       63     3178    2            IF COMCOM.OB.O2DUMP
       64     3179    2            THEN CALL Z8JT$TABLE_DUMP ;
       65     3180    2          CASE(3);
       66     3181    2            CALL Z8GO$GLOBAL_OPTIMIZER ;
       67     3182    2            IF COMCOM.OB.O3DUMP
       68     3183    2            THEN CALL Z8JT$TABLE_DUMP ;
PL6.E3A0      #001=Z9AP$BRING_IN_PHASE File=Z9AP.:Z8A6TSI                        SAT 08/09/97 13:40 Page:3
       69     3184    2          CASE(4);
       70     3185    2            CALL Z8HR$CODE_GENERATOR;     /* THE BEGINNING OF THE END */
       71     3186    2            IF COMCOM.OB.O4DUMP
       72     3187    2            THEN CALL Z8JT$TABLE_DUMP ;
       73     3188    2          CASE(5);
       74     3189    2            CALL Z8IA;  /* ANNOTATOR */
       75     3190    2        END; /* case */
       76     3191
       77     3192    1        COMCOM.IL_SPACE (PHASE_NO) = COMCOM.IL_SPACE (0) ;
       78     3193
       79     3194    1        IF COMCOM.OB.STATS
       80     3195    1        THEN CALL FIGURE_TIMES;
       81     3196
       82     3197    1        RETURN;
       83     3198
       84     3199        %EJECT;
PL6.E3A0      #001=Z9AP$BRING_IN_PHASE File=Z9AP.:Z8A6TSI                        SAT 08/09/97 13:40 Page:4
       85     3200    1   Z9AP$STATS: ENTRY;
       86     3201    1        CALL Z8JT$DUMP_TIMES;
       87     3202
       88     3203    1        RETURN;
       89     3204
       90     3205        %EJECT;
PL6.E3A0      #001=Z9AP$BRING_IN_PHASE File=Z9AP.:Z8A6TSI                        SAT 08/09/97 13:40 Page:5
       91     3206    1   FIGURE_TIMES:PROC;
       92     3207
       93     3208        %INCLUDE Z8A_SYS_FILE;
       94     9483
       95     9484    2        DCL PREVIOUS UBIN WORD EXT;
       96     9485
       97     9486    2        DCL 1 XEQTIMES STATIC DALIGNED,
       98     9487    2               2 * UBIN WORD UNAL,
       99     9488    2               2 XEQ UBIN WORD UNAL,
      100     9489    2               2 * UBIN WORD UNAL,
      101     9490    2               2 SERV UBIN WORD UNAL;
      102     9491
      103     9492        %FPT_XEQTIME(BUF=XEQTIMES);
      104     9505
      105     9506    2        CALL M$XEQTIME(FPT_XEQTIME);
      106     9507    2        COMCOM.TIMES(PHASE_NO) = XEQTIMES.XEQ - PREVIOUS;
      107     9508    2        PREVIOUS = XEQTIMES.XEQ;
      108     9509    2        RETURN;
      109     9510
      110     9511    2   END FIGURE_TIMES;
      111     9512    1   END Z9AP$BRING_IN_PHASE;

PL6.E3A0      #001=Z9AP$BRING_IN_PHASE File=Z9AP.:Z8A6TSI                        SAT 08/09/97 13:40 Page:6
--  Include file information  --

   CP_6_SUBS.:LIB_E04  is referenced.
   CP_6_C.:LIB_E04  is referenced.
   CP_6.:LIB_E04  cannot be made into a system file and is referenced.
   Z9A_FLAGS.:Z8A6TOU  is referenced.
   Z8A_SYS_FILE.:Z8A6TOU  is referenced.
   Z8A_COMCOM.:Z8A6TOU  cannot be made into a system file and is referenced.
   X8A_COM_MACS.:X8A6TOU  is referenced.
   Z8A_NAMES.:Z8A6TOU  is referenced.
   Z8A_SUPP_MAC.:Z8A6TOU  is referenced.
   Z8A_DEFC.:Z8A6TOU  cannot be made into a system file and is referenced.
      No diagnostics issued in procedure Z9AP$BRING_IN_PHASE.

   Procedure Z9AP$BRING_IN_PHASE requires 93 words for executable code.
   Procedure Z9AP$BRING_IN_PHASE is declared NOAUTO and requires 10 words of local(STATIC) storage.

    No errors detected in file Z9AP.:Z8A6TSI    .

PL6.E3A0      #001=Z9AP$BRING_IN_PHASE File=Z9AP.:Z8A6TSI                        SAT 08/09/97 13:40 Page:7

 Object Unit name= Z9AP$BRING_IN_PHASE                        File name= Z9AP.:Z8A6TOU
 UTS= AUG 09 '97 13:40:04.40 SAT                              Compiler= PL-6/E31         Sev=      00
 SharedLib= :SHARED_SYSTEM                                    Alt SharedLib=


    ****  Control sections  ****

 Sect   Type Bound  Init  Size OctSiz  Section name(segment info)
    0   Data  even  none    10     12  Z9AP$BRING_IN_PHASE
    1  LblCom even  none     1      1  ITERATION
    2   DCB   even  none     0      0  M$UC
    3  LblCom even  none     1      1  PREVIOUS
    4   Proc  even  none    93    135  Z9AP$BRING_IN_PHASE
    5  RoData even  none     1      1  Z9AP$BRING_IN_PHASE

    ****  Entry defs  ****

                              Check   Calling
                             calling  sequence
  Sect OctLoc Primary Altret sequence   type   Parms  Name
     4      0   yes            yes      Std        1  Z9AP$BRING_IN_PHASE
     4    111                  yes      Std        0  Z9AP$STATS
PL6.E3A0      #001=Z9AP$BRING_IN_PHASE File=Z9AP.:Z8A6TSI                        SAT 08/09/97 13:40 Page:8

  ****  Entry refs  ****

         Check        Calling
        calling       sequence
Altret sequence SRef   type   Args  Name
         yes           Std       0 Z9BO$OPTIONS_RECOGNITION
         yes           Std       0 Z9AM$GET_VIRTUAL_SPACE
         yes           Std       0 Z8E1$PHASE1
         yes           Std       0 Z8JT$TABLE_DUMP
         yes           Std       0 Z8HR$CODE_GENERATOR
         yes           Std       0 Z8JT$DUMP_TIMES
         yes           Std       0 Z8IA
         yes           Std       0 Z8F2$PHASE2
         yes           Std       0 Z8GO$GLOBAL_OPTIMIZER
                       nStd      0 X66_STATIC_1

  ****  Data refs  ****

  Flags:  r = read only, s = secondary
Flgs Name                             Flgs Name                             Flgs Name
     COMCOM                                M$UC

  ****  Segment refs  ****

  Flags:  r = read only, s = secondary
Flgs Name                             Flgs Name                             Flgs Name
     ISSID
PL6.E3A0      #001=Z9AP$BRING_IN_PHASE File=Z9AP.:Z8A6TSI                        SAT 08/09/97 13:40 Page:9


        1        1        /*M* Z9AP$BRING_IN_PHASE -- Start execution of next phase */
        2        2        /*T***********************************************************/
        3        3        /*T*                                                         */
        4        4        /*T* Copyright (c) Bull HN Information Systems Inc., 1997    */
        5        5        /*T*                                                         */
        6        6        /*T***********************************************************/
        7        7
        8        8
        9        9        /*P*
       10       10
       11       11               NAME: Z9AP$BRING_IN_PHASE
       12       12             AUTHOR: MJ GLENN
       13       13            PURPOSE: TO OVERLAY AND START EXECUTION OF THE NEXT PHASE,
       14       14                     AND TO ACCUMULATE THE APPROXIMATE EXECUTION TIME
       15       15                     FOR THAT PHASE.
       16       16        */
       17       17
       18       18        /*D*      NAME: Z9AP$BRING_IN_PHASE
       19       19
       20       20                  CALL: CALL Z9AP$BRING_IN_PHASE (Phase_Number) ;
       21       21
       22       22             INTERFACE: M$XEQTIME -- CPU Time.
       23       23
       24       24           DESCRIPTION: Called six times from Z8AM; the first time
       25       25                        to record the time at which Phase One started,
       26       26                        then once for each phase (1 thru 5).  This
       27       27                        module uses one internal routine --
       28       28                        FIGURE_TIMES.
       29       29        */
       30       30
       31       31        %EJECT;
PL6.E3A0      #001=Z9AP$BRING_IN_PHASE File=Z9AP.:Z8A6TSI                        SAT 08/09/97 13:40 Page:10
       32       32        Z9AP$BRING_IN_PHASE:PROC (PHASE_NO) NOAUTO;

     32  4 000000   000000 700200 xent  Z9AP$BRING_* TSX0  ! X66_STATIC_1
         4 000001   000000 000001 0                  ZERO    0,1

       33       33
       34       34             %EQU PHASE = 0;
       35       35             %INCLUDE Z8A_DEFC;
       36      103             %INCLUDE Z8A_SUPP_MAC;
       37     2503             %INCLUDE Z8A_COMCOM ;
       38     3153
       39     3154    1        DCL PHASE_NO UBIN WORD;
       40     3155    1        DCL Z8E1$PHASE1 ENTRY;
       41     3156    1        DCL Z8F2$PHASE2 ENTRY ;
       42     3157    1        DCL Z8GO$GLOBAL_OPTIMIZER ENTRY ;
       43     3158    1        DCL Z8HR$CODE_GENERATOR ENTRY;
       44     3159    1        DCL Z8JT$TABLE_DUMP ENTRY ;
       45     3160    1        DCL Z8JT$DUMP_TIMES ENTRY;
       46     3161    1        DCL Z8IA ENTRY;
       47     3162    1        DCL Z9BO$OPTIONS_RECOGNITION ENTRY;
       48     3163    1        DCL Z9AM$GET_VIRTUAL_SPACE ENTRY;
       49     3164
       50     3165    1        COMCOM.CURRENT.PHASE = PHASE_NO ;

   3165  4 000002   000001 470400 0                  LDP0    @PHASE_NO
         4 000003   000000 235100                    LDA     0,,PR0
         4 000004   000132 755000 xsym               STA     COMCOM+90

       51     3166
       52     3167    2        DO CASE(PHASE_NO);

   3167  4 000005   000000 235100                    LDA     0,,PR0
         4 000006   000006 115007                    CMPA    6,DL
         4 000007   000011 602005 4                  TNC     s:3167+4,AL
         4 000010   000077 710000 4                  TRA     s:3192
         4 000011   000017 710000 4                  TRA     s:3169
         4 000012   000030 710000 4                  TRA     s:3173
PL6.E3A0      #001=Z9AP$BRING_IN_PHASE File=Z9AP.:Z8A6TSI                        SAT 08/09/97 13:40 Page:11
         4 000013   000041 710000 4                  TRA     s:3177
         4 000014   000052 710000 4                  TRA     s:3181
         4 000015   000063 710000 4                  TRA     s:3185
         4 000016   000074 710000 4                  TRA     s:3189

       53     3168    2          CASE(0);

       54     3169    2            CALL Z9BO$OPTIONS_RECOGNITION;

   3169  4 000017   000000 631400 5                  EPPR1   0
         4 000020   000000 701000 xent               TSX1    Z9BO$OPTIONS_RECOGNITION
         4 000021   000000 011000                    NOP     0

       55     3170    2            IF COMCOM.OB.VIRTUAL THEN

   3170  4 000022   000110 234000 xsym               SZN     COMCOM+72
         4 000023   000077 605000 4                  TPL     s:3192

       56     3171    2              CALL Z9AM$GET_VIRTUAL_SPACE;

   3171  4 000024   000000 631400 5                  EPPR1   0
         4 000025   000000 701000 xent               TSX1    Z9AM$GET_VIRTUAL_SPACE
         4 000026   000000 011000                    NOP     0
         4 000027   000077 710000 4                  TRA     s:3192

       57     3172    2          CASE(1);

       58     3173    2            CALL Z8E1$PHASE1;    /* THE FRONT-END */

   3173  4 000030   000000 631400 5                  EPPR1   0
         4 000031   000000 701000 xent               TSX1    Z8E1$PHASE1
         4 000032   000000 011000                    NOP     0

       59     3174    2            IF COMCOM.OB.O1DUMP

   3174  4 000033   000056 234000 xsym               SZN     COMCOM+46
         4 000034   000077 605000 4                  TPL     s:3192
PL6.E3A0      #001=Z9AP$BRING_IN_PHASE File=Z9AP.:Z8A6TSI                        SAT 08/09/97 13:40 Page:12

       60     3175    2            THEN CALL Z8JT$TABLE_DUMP ;

   3175  4 000035   000000 631400 5                  EPPR1   0
         4 000036   000000 701000 xent               TSX1    Z8JT$TABLE_DUMP
         4 000037   000000 011000                    NOP     0
         4 000040   000077 710000 4                  TRA     s:3192

       61     3176    2          CASE(2);

       62     3177    2            CALL Z8F2$PHASE2 ; /* THE END OF THE FRONT */

   3177  4 000041   000000 631400 5                  EPPR1   0
         4 000042   000000 701000 xent               TSX1    Z8F2$PHASE2
         4 000043   000000 011000                    NOP     0

       63     3178    2            IF COMCOM.OB.O2DUMP

   3178  4 000044   000057 234000 xsym               SZN     COMCOM+47
         4 000045   000077 605000 4                  TPL     s:3192

       64     3179    2            THEN CALL Z8JT$TABLE_DUMP ;

   3179  4 000046   000000 631400 5                  EPPR1   0
         4 000047   000000 701000 xent               TSX1    Z8JT$TABLE_DUMP
         4 000050   000000 011000                    NOP     0
         4 000051   000077 710000 4                  TRA     s:3192

       65     3180    2          CASE(3);

       66     3181    2            CALL Z8GO$GLOBAL_OPTIMIZER ;

   3181  4 000052   000000 631400 5                  EPPR1   0
         4 000053   000000 701000 xent               TSX1    Z8GO$GLOBAL_OPTIMIZER
         4 000054   000000 011000                    NOP     0

       67     3182    2            IF COMCOM.OB.O3DUMP
PL6.E3A0      #001=Z9AP$BRING_IN_PHASE File=Z9AP.:Z8A6TSI                        SAT 08/09/97 13:40 Page:13

   3182  4 000055   000060 234000 xsym               SZN     COMCOM+48
         4 000056   000077 605000 4                  TPL     s:3192

       68     3183    2            THEN CALL Z8JT$TABLE_DUMP ;

   3183  4 000057   000000 631400 5                  EPPR1   0
         4 000060   000000 701000 xent               TSX1    Z8JT$TABLE_DUMP
         4 000061   000000 011000                    NOP     0
         4 000062   000077 710000 4                  TRA     s:3192

       69     3184    2          CASE(4);

       70     3185    2            CALL Z8HR$CODE_GENERATOR;     /* THE BEGINNING OF THE END */

   3185  4 000063   000000 631400 5                  EPPR1   0
         4 000064   000000 701000 xent               TSX1    Z8HR$CODE_GENERATOR
         4 000065   000000 011000                    NOP     0

       71     3186    2            IF COMCOM.OB.O4DUMP

   3186  4 000066   000061 234000 xsym               SZN     COMCOM+49
         4 000067   000077 605000 4                  TPL     s:3192

       72     3187    2            THEN CALL Z8JT$TABLE_DUMP ;

   3187  4 000070   000000 631400 5                  EPPR1   0
         4 000071   000000 701000 xent               TSX1    Z8JT$TABLE_DUMP
         4 000072   000000 011000                    NOP     0
         4 000073   000077 710000 4                  TRA     s:3192

       73     3188    2          CASE(5);

       74     3189    2            CALL Z8IA;  /* ANNOTATOR */

   3189  4 000074   000000 631400 5                  EPPR1   0
         4 000075   000000 701000 xent               TSX1    Z8IA
PL6.E3A0      #001=Z9AP$BRING_IN_PHASE File=Z9AP.:Z8A6TSI                        SAT 08/09/97 13:40 Page:14
         4 000076   000000 011000                    NOP     0

       75     3190    2        END; /* case */

       76     3191
       77     3192    1        COMCOM.IL_SPACE (PHASE_NO) = COMCOM.IL_SPACE (0) ;

   3192  4 000077   000001 470400 0                  LDP0    @PHASE_NO
         4 000100   000000 720100                    LXL0    0,,PR0
         4 000101   000324 235000 xsym               LDA     COMCOM+212
         4 000102   000324 755010 xsym               STA     COMCOM+212,X0

       78     3193
       79     3194    1        IF COMCOM.OB.STATS

   3194  4 000103   000052 234000 xsym               SZN     COMCOM+42
         4 000104   000107 605000 4                  TPL     s:3197

       80     3195    1        THEN CALL FIGURE_TIMES;

   3195  4 000105   000120 701000 4                  TSX1    FIGURE_TIMES
         4 000106   000000 011000                    NOP     0

       81     3196
       82     3197    1        RETURN;

   3197  4 000107   000000 221200 0                  LDX1  ! 0
         4 000110   000001 702211                    TSX2  ! 1,X1

       83     3198
       84     3199        %EJECT;
PL6.E3A0      #001=Z9AP$BRING_IN_PHASE File=Z9AP.:Z8A6TSI                        SAT 08/09/97 13:40 Page:15
       85     3200    1   Z9AP$STATS: ENTRY;

   3200  4 000111   000000 700200 xent  Z9AP$STATS   TSX0  ! X66_STATIC_1
         4 000112   000000 000001 0                  ZERO    0,1

       86     3201    1        CALL Z8JT$DUMP_TIMES;

   3201  4 000113   000000 631400 5                  EPPR1   0
         4 000114   000000 701000 xent               TSX1    Z8JT$DUMP_TIMES
         4 000115   000000 011000                    NOP     0

       87     3202
       88     3203    1        RETURN;

   3203  4 000116   000000 221200 0                  LDX1  ! 0
         4 000117   000001 702211                    TSX2  ! 1,X1

       89     3204
       90     3205        %EJECT;
PL6.E3A0      #001=Z9AP$BRING_IN_PHASE File=Z9AP.:Z8A6TSI                        SAT 08/09/97 13:40 Page:16
       91     3206    1   FIGURE_TIMES:PROC;

   3206  4 000120   000002 741200 0     FIGURE_TIMES STX1  ! @PHASE_NO+1

       92     3207
       93     3208        %INCLUDE Z8A_SYS_FILE;
       94     9483
       95     9484    2        DCL PREVIOUS UBIN WORD EXT;
       96     9485
       97     9486    2        DCL 1 XEQTIMES STATIC DALIGNED,
       98     9487    2               2 * UBIN WORD UNAL,
       99     9488    2               2 XEQ UBIN WORD UNAL,
      100     9489    2               2 * UBIN WORD UNAL,
      101     9490    2               2 SERV UBIN WORD UNAL;
      102     9491
      103     9492        %FPT_XEQTIME(BUF=XEQTIMES);
      104     9505
      105     9506    2        CALL M$XEQTIME(FPT_XEQTIME);

   9506  4 000121   000010 630400 0                  EPPR0   FPT_XEQTIME
         4 000122   020011 713400                    CLIMB   8201
         4 000123   400000 401760                    pmme    nvectors=1

      106     9507    2        COMCOM.TIMES(PHASE_NO) = XEQTIMES.XEQ - PREVIOUS;

   9507  4 000124   000001 470400 0                  LDP0    @PHASE_NO
         4 000125   000000 720100                    LXL0    0,,PR0
         4 000126   000005 236000 0                  LDQ     XEQTIMES+1
         4 000127   000000 136000 3                  SBLQ    PREVIOUS
         4 000130   000365 756010 xsym               STQ     COMCOM+245,X0

      107     9508    2        PREVIOUS = XEQTIMES.XEQ;

   9508  4 000131   000005 235000 0                  LDA     XEQTIMES+1
         4 000132   000000 755000 3                  STA     PREVIOUS

      108     9509    2        RETURN;
PL6.E3A0      #001=Z9AP$BRING_IN_PHASE File=Z9AP.:Z8A6TSI                        SAT 08/09/97 13:40 Page:17

   9509  4 000133   000002 221200 0                  LDX1  ! @PHASE_NO+1
         4 000134   000001 702211                    TSX2  ! 1,X1
      109     9510
      110     9511    2   END FIGURE_TIMES;
      111     9512    1   END Z9AP$BRING_IN_PHASE;

PL6.E3A0      #001=Z9AP$BRING_IN_PHASE File=Z9AP.:Z8A6TSI                        SAT 08/09/97 13:40 Page:18
--  Include file information  --

   CP_6_SUBS.:LIB_E04  is referenced.
   CP_6_C.:LIB_E04  is referenced.
   CP_6.:LIB_E04  cannot be made into a system file and is referenced.
   Z9A_FLAGS.:Z8A6TOU  is referenced.
   Z8A_SYS_FILE.:Z8A6TOU  is referenced.
   Z8A_COMCOM.:Z8A6TOU  cannot be made into a system file and is referenced.
   X8A_COM_MACS.:X8A6TOU  is referenced.
   Z8A_NAMES.:Z8A6TOU  is referenced.
   Z8A_SUPP_MAC.:Z8A6TOU  is referenced.
   Z8A_DEFC.:Z8A6TOU  cannot be made into a system file and is referenced.
      No diagnostics issued in procedure Z9AP$BRING_IN_PHASE.
PL6.E3A0      #001=Z9AP$BRING_IN_PHASE File=Z9AP.:Z8A6TSI                        SAT 08/09/97 13:40 Page:19

 **** Variables and constants ****

  ****  Section 000  Data  Z9AP$BRING_IN_PHASE

  ****  Scalars and arrays  ****
OctLoc.c.b A Datatyp(siz) R M Lvl/name                 OctLoc.c.b A Datatyp(siz) R M Lvl/name

     1-0-0/w PTR         r     1 @PHASE_NO                 10-0-0/d STRC(72)    r     1 FPT_XEQTIME
    *0-0-0/w UBIN        r     1 PHASE_NO                   4-0-0/d STRC(144)   r     1 XEQTIMES

  ****  Section 001 LblCom ITERATION

  ****  Scalars and arrays  ****
OctLoc.c.b A Datatyp(siz) R M Lvl/name                 OctLoc.c.b A Datatyp(siz) R M Lvl/name

     0-0-0/w SBIN              1 ITERATION

  ****  Section 003 LblCom PREVIOUS

  ****  Scalars and arrays  ****
OctLoc.c.b A Datatyp(siz) R M Lvl/name                 OctLoc.c.b A Datatyp(siz) R M Lvl/name

     0-0-0/w UBIN        r     1 PREVIOUS

  ****  SYMREF variables  ****

  ****  Scalars and arrays  ****
OctLoc.c.b A Datatyp(siz) R M Lvl/name                 OctLoc.c.b A Datatyp(siz) R M Lvl/name

     0-0-0/d STRC(13248) r     1 COMCOM

  ****  BASED and DCB variables  ****

  ****  Scalars and arrays  ****
OctLoc.c.b A Datatyp(siz) R M Lvl/name                 OctLoc.c.b A Datatyp(siz) R M Lvl/name

     0-0-0/w CHAR(4096)        1 CHARS                      0-0-0/w STRC(72)          1 CONT
PL6.E3A0      #001=Z9AP$BRING_IN_PHASE File=Z9AP.:Z8A6TSI                        SAT 08/09/97 13:40 Page:20
     0-0-0N  NULL        r     1 M$UC                       0-0-0/w STRC(36864)       1 PAGE


   Procedure Z9AP$BRING_IN_PHASE requires 93 words for executable code.
   Procedure Z9AP$BRING_IN_PHASE is declared NOAUTO and requires 10 words of local(STATIC) storage.

    No errors detected in file Z9AP.:Z8A6TSI    .
