VERSION A06

 13:40 08/09/97  FILE=Z9AS.:Z8A6TSI                                                                      1    BMAP - B00
                                         1  *M*    Z9AS$SHRINK_PTR  BMAP routine for shrink operation
                                         2  *T***********************************************************
                                         3  *T*                                                         *
                                         4  *T* Copyright (c) Bull HN Information Systems Inc., 1997    *
                                         5  *T*                                                         *
                                         6  *T***********************************************************
             000000000000                7  PR0    EQU     0
             000000000001                8  PR1    EQU     1
             000000000002                9  PR2    EQU     2
             000000000003               10  PR3    EQU     3
             000000000004               11  PR4    EQU     4
             000000000005               12  PR5    EQU     5
             000000000006               13  PR6    EQU     6
             000000000007               14  PR7    EQU     7
                                        15         ENTREF  X66_AUTO_0
                                        16         ENTREF  X66_AUTO_5
                                        17         ENTREF  X66_ARET

 13:40 08/09/97  FILE=Z9AS.:Z8A6TSI           Z9AS$SHRINK_PTR                                            2    BMAP - B00
                                        18         TTL     Z9AS$SHRINK_PTR
                                        19         ENTDEF  Z9AS$SHRINK_PTR
                                        20  *D*    ENTRY:  Z9AS$SHRINK_PTR
                                        21  *,*    CALL:   CALL Z9AS$SHRINK_PTR (base$, offset, size, new$);
                                        22  *,*    INPUT:  "base$" points to the base of a virtual data segment;
                                        23  *,*            "offset" contains a byte offset into the segment;
                                        24  *,*            "size" contains the byte size of the resulting "shrink"
                                        25  *,*            operation.
                                        26  *,*    OUTPUT: "new$" contains a pointer corresponding to a new entry on
                                        27  *,*            the argument stack, which will contain the shrunken
                                        28  *,*            descriptor.
                                        29  *,*    DESCRIPTION: This routine is used to perform a "normal shrink"
                                        30  *,*            operation on a segment framed by an NSA super-descriptor.
                                        31  *,*            The shrunken descriptor is saved on the hardware argument
                                        32  *,*            stack, and a pointer corresponding to the new AS entry is
                                        33  *,*            returned to the user.
 0 000000  X 000000 7000 00             34  Z9AS$SHRINK_PTR   TSX0    X66_AUTO_5
   000001    000007 000000              35         ZERO    7,0
   000002    2 00005 4715 00            36         LDP1    5,,PR2          Pointer to new size
   000003    1 00000 2361 00            37         LDQ     0,,PR1          Get size
   000004    000020 7360 00             38         QLS     16              Shift byte count into place
   000005    200000 1360 07             39         SBLQ    =O200000,DL     Make "byte count" into "byte bound"
   000006 (0)000021 2760 00             40         ORQ     W1FLGS          Add all flags & "normal shrink" info
   000007 (2)000000 7560 00             41         STQ     SHRVEC          Save in "shrink" vector
   000010    2 00003 4705 00            42         LDP0    3,,PR2          Pointer to "base"
   000011    2 00004 4715 00            43         LDP1    4,,PR2          Pointer to "offset"
   000012    0 00000 4775 00            44         LDP7    0,,PR0          Get "base"
   000013    1 00000 6175 00            45         LDEA7   0,,PR1          Set location field in descriptor
   000014 (2)000000 6764 00             46         LDD6    SHRVEC          Shrink DR7 into DR6, self-id
   000015    000000 1164 00             47         SDR6    0               Push shrunken descriptor onto AS
   000016    2 00006 4735 00            48         LDP3    6,,PR2          Get pointer to result area
   000017    3 00000 4565 00            49         STP6    0,,PR3          Save new pointer
   000020  X 000000 7020 00             50         TSX2    X66_ARET        Return to user

 13:40 08/09/97  FILE=Z9AS.:Z8A6TSI           Constant data for Z9AS$SHRINK_PTR                          3    BMAP - B00
                                        51         TTL     Constant data for Z9AS$SHRINK_PTR
   000021    000000177640               52  W1FLGS OCT     000000177640

 13:40 08/09/97  FILE=Z9AS.:Z8A6TSI           Data area                                                  4    BMAP - B00
                                        53         TTL     Data area
 2 000000                               54         USE     RIU_UTILITY,0
   000000    000000000000               55  SHRVEC OCT     0,000000001777
   000001    000000001777
                                        56         END

  CONTROL SECTION TABLE

   0 CODE   EVEN  000022
   1 RODATA EVEN  000000 LITERALS
   2 DATA   EVEN  000002 RIU_UTILITY

      14 SYMBOLS

       0 MACROS

    SYMBOL SPACE USED   106 WORDS
     MACRO SPACE USED     0 WORDS
   INPUT RECORDS READ   112
 STATEMENTS PROCESSED    48
         ELAPSED TIME  0:02.44
             CPU TIME     0.50 SEC.
        ASSEMBLY RATE  5760 STATEMENTS/CPU MIN.

      NO ERRORS

