VERSION A06

PL6.E3A0      #001=Z9BO$OPTIONS_RECOGNITION File=Z9BO.:Z8A6TSI                   SAT 08/09/97 13:41 Page:1
        1        1        /*M* Z9BO$OPTIONS_RECOGNITION -- Parse Options Line */
        2        2        /*T***********************************************************/
        3        3        /*T*                                                         */
        4        4        /*T* Copyright (c) Bull HN Information Systems Inc., 1997    */
        5        5        /*T*                                                         */
        6        6        /*T***********************************************************/
        7        7
        8        8        /*P*
        9        9             NAME: Z9BO$OPTIONS_RECOGNITION
       10       10             PURPOSE:
       11       11                  Parse the options line (in the compiler invokation line) and
       12       12                  set the option bits.
       13       13             DESCRIPTION:
       14       14                  Call the common options parser. It will call
       15       15                  Z9BO$NON_STANDARD_OPTIONS to set non-standard options.
       16       16                  The CP-6 standard options are set in this module after
       17       17                  return from the common options parser.
       18       18        */
       19       19
       20       20        /*F*
       21       21             NAME: Z9BO$OPTIONS_RECOGNITION
       22       22             PURPOSE:
       23       23                  Parse the option line and set option bits.
       24       24             DESCRIPTION:
       25       25                  Call XUX$COMMON_OPTIONS to parse the option line.
       26       26                  XUX$COMMON_OPTIONS will call Z9BO$NON_STANDARD_OPTIONS
       27       27                  to handle non_standard options.  XUX$COMMON_OPTIONS
       28       28                  uses parse nodes from Z9BG$NSTD_NODES to parse non-standard
       29       29                  options.  When XUX$COMMON_OPTIONS returns the standard
       30       30                  options are set from the XUX$STD_OPTIONS structure.
       31       31             REFERENCE:
       32       32                  Arch. file 12.2, DOC# 0751A-0
       33       33        */
       34       34        /*D*
       35       35             NAME: Z9BO$OPTIONS_RECOGNITION
       36       36             ENTRY:
       37       37                  Z9BO$OPTIONS_RECOGNITION
PL6.E3A0      #001=Z9BO$OPTIONS_RECOGNITION File=Z9BO.:Z8A6TSI                   SAT 08/09/97 13:41 Page:2
       38       38             CALL:
       39       39                  CALL Z9BO$OPTIONS_RECOGNITION
       40       40             INTERFACE:
       41       41                  COMCOM.OB (the option bits)
       42       42             INPUT:
       43       43                  The option line from the invokation line.
       44       44             OUTPUT:
       45       45                  None.
       46       46             DESCRIPTION:
       47       47                  Call XUX$COMMON_OPTIONS to parse the option line.
       48       48                  XUX$COMMON_OPTIONS will call Z9BO$NON_STANDARD_OPTIONS
       49       49                  to handle non_standard options.  XUX$COMMON_OPTIONS
       50       50                  uses parse nodes from Z9BG$NSTD_NODES to parse non-standard
       51       51                  options.  When XUX$COMMON_OPTIONS returns the standard
       52       52                  options are set from the XUX$STD_OPTIONS structure.
       53       53        */
       54       54
       55       55        %EJECT;
PL6.E3A0      #001=Z9BO$OPTIONS_RECOGNITION File=Z9BO.:Z8A6TSI                   SAT 08/09/97 13:41 Page:3
       56       56        Z9BO$OPTIONS_RECOGNITION:PROC;
       57       57
       58       58        %INCLUDE Z8A_SYS_FILE;
       59     6333        %INCLUDE XUX$INTERFACE_M;
       60     7110        %INCLUDE B$JIT_C.:LIBRARY;
       61     7424        %B$JIT0;
       62     7513        %U$JIT1;
       63     7587        %A$JIT6X;
       64     7590    1   DCL B$JIT$ PTR SYMREF;
       65     7591
       66     7592    1   DCL M$DO DCB;
       67     7593    1   DCL M$LO DCB;
       68     7594    1   DCL M$ME DCB;
       69     7595        %FPT_CORRES (FPTN=CORS, DCB1=M$DO, DCB2=M$LO);
       70     7609
       71     7610        %EQU PHASE = 0;
       72     7611        %INCLUDE Z8A_DEFC;
       73     7679        %INCLUDE Z8A_COMCOM;
       74     8329        %INCLUDE Z8A_ERR_NUMS;
       75     9093
       76     9094    1   DCL XUX$COMMON_OPTIONS ENTRY(1) ALTRET;
       77     9095    1   DCL Z8AE$ERROR ENTRY(12);
       78     9096    1   DCL Z9BO$NON_STANDARD_OPTION ENTRY(2);
       79     9097    1   DCL Z9AT$TERMINATOR ENTRY;
       80     9098
       81     9099    1   DCL Z9BG$NSTD_NODES UBIN WORD SYMREF;
       82     9100
       83     9101        %XUX$PARAM (USER_ROUTINE = Z9BO$NON_STANDARD_OPTION,
       84     9102                    USER_NODES   = Z9BG$NSTD_NODES,
       85     9103                    BC_UNIT      = NIL,
       86     9104                    DCB1         = M$DO,
       87     9105                    DCB2         = M$LO );
       88     9246
       89     9247        %XUX$LEGAL_OPTIONS (NSTD = YES,
       90     9248                            UREF = NO,
       91     9249                            BC   = NO);
       92     9376
PL6.E3A0      #001=Z9BO$OPTIONS_RECOGNITION File=Z9BO.:Z8A6TSI                   SAT 08/09/97 13:41 Page:4
       93     9377        %XUX$SRCH_LIST(STCLASS=EXT);
       94     9472
       95     9473        %XUX$STD_OPTIONS;
       96     9637
       97     9638    1       COMCOM.LINE1 = B$JIT.CCBUF;
       98     9639
       99     9640
      100     9641            /* Set defaults for non-standard options */
      101     9642    1       COMCOM.OB.HEX    = %TRUE;               /*  Hex exponent  */
      102     9643
      103     9644    1       CALL XUX$COMMON_OPTIONS (XUX$PARAM)
      104     9645    2         WHENALTRETURN DO;
      105     9646    2            CALL Z9AT$TERMINATOR;
      106     9647    2         END;
      107     9648
      108     9649            /* Set standard options from results of XUX$COMMON_OPTIONS */
      109     9650    1       COMCOM.OB.DM = XUX$STD_OPTIONS.DMAP;
      110     9651    1       COMCOM.OB.MDM = XUX$STD_OPTIONS.MDMAP;
      111     9652    1       COMCOM.OB.LO = XUX$STD_OPTIONS.LO;
      112     9653    1       COMCOM.OB.LISTIN = XUX$STD_OPTIONS.LS;
      113     9654    1       COMCOM.OB.DECK = XUX$STD_OPTIONS.OU;
      114     9655    1       COMCOM.OB.PM  = XUX$STD_OPTIONS.PMAP;
      115     9656    1       COMCOM.OB.DSS  = (XUX$STD_OPTIONS.SCHEMA ~= %XUX$NONE);
      116     9657    1       COMCOM.OB.COMDK  = XUX$STD_OPTIONS.SO;
      117     9658    1       COMCOM.OB.UI = XUX$STD_OPTIONS.UI;
      118     9659    1       COMCOM.OB.OPTUI = XUX$STD_OPTIONS.OPTUI;       /*#30236*/
      119     9660    1       COMCOM.OB.NWARN = ~XUX$STD_OPTIONS.WARN;
      120     9661    1       COMCOM.OB.XREF = (XUX$STD_OPTIONS.XREF ~= %XUX$NONE);
      121     9662    1       COMCOM.OB.LNRSM = (XUX$STD_OPTIONS.UREF ~= %XUX$NONE);
      122     9663
      123     9664    2       IF COMCOM.OB.IBM AND COMCOM.OB.INITIAL THEN DO;
      124     9665    2         CALL Z8AE$ERROR (%E$IBM_INITIAL_ILLEGAL);
      125     9666    2         COMCOM.OB.INITIAL = FALSE;
      126     9667    2       END;
      127     9668
      128     9669    1       IF COMCOM.OB.PM AND NOT
      129     9670    1          (COMCOM.OB.LO.DATA OR COMCOM.OB.LISTOUT.DATA) THEN
PL6.E3A0      #001=Z9BO$OPTIONS_RECOGNITION File=Z9BO.:Z8A6TSI                   SAT 08/09/97 13:41 Page:5
      130     9671    1         COMCOM.OB.LO.CODE = TRUE;
      131     9672
      132     9673    1       IF (COMCOM.OB.DM OR COMCOM.OB.MDM)
      133     9674    1          AND NOT (COMCOM.OB.LO.DATA OR COMCOM.OB.LISTOUT.DATA) THEN
      134     9675    1         COMCOM.OB.LO.DATA = TRUE;
      135     9676
      136     9677    1       IF COMCOM.OB.LO  OR  COMCOM.OB.LISTOUT  OR  COMCOM.OB.DM
      137     9678    1       OR COMCOM.OB.MDM OR COMCOM.OB.PM THEN
      138     9679    1         COMCOM.OB.DECK = TRUE;
      139     9680
      140     9681            /* Skip DO file if same as LO & LISTIN is specified */
      141     9682    1       CALL M$CORRES (CORS)
      142     9683    2        WHENRETURN DO;
      143     9684    2           IF B$JIT.PRFLAGS.COMMENT THEN
      144     9685    2             COMCOM.DO_REQ = '1'B;
      145     9686    2        END;
      146     9687
      147     9688    2        WHENALTRETURN DO;
      148     9689    2           IF B$JIT.PRFLAGS.COMMENT AND NOT COMCOM.OB.LISTIN THEN
      149     9690    2             COMCOM.DO_REQ = '1'B;
      150     9691    2           ELSE
      151     9692    2             COMCOM.DO_REQ = '0'B;
      152     9693    2        END;
      153     9694
      154     9695    1   END Z9BO$OPTIONS_RECOGNITION;
      155     9696        %EOD;

PL6.E3A0      #001=Z9BO$OPTIONS_RECOGNITION File=Z9BO.:Z8A6TSI                   SAT 08/09/97 13:41 Page:6
--  Include file information  --

   Z8A_ERR_NUMS.:Z8A6TOU  is referenced.
   Z8A_COMCOM.:Z8A6TOU  cannot be made into a system file and is referenced.
   Z8A_DEFC.:Z8A6TOU  cannot be made into a system file and is referenced.
   B$JIT_C.:LIBRARY  is referenced.
   XUX$INTERFACE_M.:LIB_E04  is referenced.
   CP_6_SUBS.:LIB_E04  is referenced.
   CP_6_C.:LIB_E04  is referenced.
   CP_6.:LIB_E04  cannot be made into a system file and is referenced.
   Z9A_FLAGS.:Z8A6TOU  is referenced.
   Z8A_SYS_FILE.:Z8A6TOU  is referenced.
      No diagnostics issued in procedure Z9BO$OPTIONS_RECOGNITION.

   Procedure Z9BO$OPTIONS_RECOGNITION requires 140 words for executable code.
   Procedure Z9BO$OPTIONS_RECOGNITION requires 4 words of local(AUTO) storage.

PL6.E3A0      #001=Z9BO$OPTIONS_RECOGNITION File=Z9BO.:Z8A6TSI                   SAT 08/09/97 13:41 Page:7

 Object Unit name= Z9BO$OPTIONS_RECOGNITION                   File name= Z9BO.:Z8A6TOU
 UTS= AUG 09 '97 13:41:46.92 SAT                              Compiler= PL-6/E31         Sev=      00
 SharedLib= :SHARED_SYSTEM                                    Alt SharedLib=


    ****  Control sections  ****

 Sect   Type Bound  Init  Size OctSiz  Section name(segment info)
    0   DCB   even  none     0      0  M$UC
    1   DCB   even  none     0      0  M$DO
    2   DCB   even  none     0      0  M$LO
    3   DCB   even  none     0      0  M$ME
    4   Data  even  none    48     60  Z9BO$OPTIONS_RECOGNITION
    5  LblCom even  none     1      1  ITERATION
    6  RoData even  UTS      2      2  Z9BO$OPTIONS_RECOGNITION
    7  LblCom even  none   192    300  XUX$SRCH_LIST
    8   Proc  even  none   140    214  Z9BO$OPTIONS_RECOGNITION
    9  RoData even  none     6      6  Z9BO$OPTIONS_RECOGNITION

    ****  Entry defs  ****

                              Check   Calling
                             calling  sequence
  Sect OctLoc Primary Altret sequence   type   Parms  Name
     8      0   yes            yes      Std        0  Z9BO$OPTIONS_RECOGNITION

  ****  Entry refs  ****

         Check        Calling
        calling       sequence
Altret sequence SRef   type   Args  Name
         yes           Std       2 Z9BO$NON_STANDARD_OPTION
 yes     yes           Std       1 XUX$COMMON_OPTIONS
         yes           Std       0 Z9AT$TERMINATOR
         yes           Std      12 Z8AE$ERROR
                       nStd      0 X66_AUTO_0
                       nStd      0 X66_ARET
PL6.E3A0      #001=Z9BO$OPTIONS_RECOGNITION File=Z9BO.:Z8A6TSI                   SAT 08/09/97 13:41 Page:8

  ****  Data refs  ****

  Flags:  r = read only, s = secondary
Flgs Name                             Flgs Name                             Flgs Name
     M$UC                                  B$JIT$                                M$DO
     M$LO                                  M$ME                                  COMCOM
     Z9BG$NSTD_NODES

  ****  Segment refs  ****

  Flags:  r = read only, s = secondary
Flgs Name                             Flgs Name                             Flgs Name
     ISSID                                 NULLSID
PL6.E3A0      #001=Z9BO$OPTIONS_RECOGNITION File=Z9BO.:Z8A6TSI                   SAT 08/09/97 13:41 Page:9


        1        1        /*M* Z9BO$OPTIONS_RECOGNITION -- Parse Options Line */
        2        2        /*T***********************************************************/
        3        3        /*T*                                                         */
        4        4        /*T* Copyright (c) Bull HN Information Systems Inc., 1997    */
        5        5        /*T*                                                         */
        6        6        /*T***********************************************************/
        7        7
        8        8        /*P*
        9        9             NAME: Z9BO$OPTIONS_RECOGNITION
       10       10             PURPOSE:
       11       11                  Parse the options line (in the compiler invokation line) and
       12       12                  set the option bits.
       13       13             DESCRIPTION:
       14       14                  Call the common options parser. It will call
       15       15                  Z9BO$NON_STANDARD_OPTIONS to set non-standard options.
       16       16                  The CP-6 standard options are set in this module after
       17       17                  return from the common options parser.
       18       18        */
       19       19
       20       20        /*F*
       21       21             NAME: Z9BO$OPTIONS_RECOGNITION
       22       22             PURPOSE:
       23       23                  Parse the option line and set option bits.
       24       24             DESCRIPTION:
       25       25                  Call XUX$COMMON_OPTIONS to parse the option line.
       26       26                  XUX$COMMON_OPTIONS will call Z9BO$NON_STANDARD_OPTIONS
       27       27                  to handle non_standard options.  XUX$COMMON_OPTIONS
       28       28                  uses parse nodes from Z9BG$NSTD_NODES to parse non-standard
       29       29                  options.  When XUX$COMMON_OPTIONS returns the standard
       30       30                  options are set from the XUX$STD_OPTIONS structure.
       31       31             REFERENCE:
       32       32                  Arch. file 12.2, DOC# 0751A-0
       33       33        */
       34       34        /*D*
       35       35             NAME: Z9BO$OPTIONS_RECOGNITION
       36       36             ENTRY:
PL6.E3A0      #001=Z9BO$OPTIONS_RECOGNITION File=Z9BO.:Z8A6TSI                   SAT 08/09/97 13:41 Page:10
       37       37                  Z9BO$OPTIONS_RECOGNITION
       38       38             CALL:
       39       39                  CALL Z9BO$OPTIONS_RECOGNITION
       40       40             INTERFACE:
       41       41                  COMCOM.OB (the option bits)
       42       42             INPUT:
       43       43                  The option line from the invokation line.
       44       44             OUTPUT:
       45       45                  None.
       46       46             DESCRIPTION:
       47       47                  Call XUX$COMMON_OPTIONS to parse the option line.
       48       48                  XUX$COMMON_OPTIONS will call Z9BO$NON_STANDARD_OPTIONS
       49       49                  to handle non_standard options.  XUX$COMMON_OPTIONS
       50       50                  uses parse nodes from Z9BG$NSTD_NODES to parse non-standard
       51       51                  options.  When XUX$COMMON_OPTIONS returns the standard
       52       52                  options are set from the XUX$STD_OPTIONS structure.
       53       53        */
       54       54
       55       55        %EJECT;
PL6.E3A0      #001=Z9BO$OPTIONS_RECOGNITION File=Z9BO.:Z8A6TSI                   SAT 08/09/97 13:41 Page:11
       56       56        Z9BO$OPTIONS_RECOGNITION:PROC;

     56  8 000000   000000 700200 xent  Z9BO$OPTION* TSX0  ! X66_AUTO_0
         8 000001   000004 000000                    ZERO    4,0

       57       57
       58       58        %INCLUDE Z8A_SYS_FILE;
       59     6333        %INCLUDE XUX$INTERFACE_M;
       60     7110        %INCLUDE B$JIT_C.:LIBRARY;
       61     7424        %B$JIT0;
       62     7513        %U$JIT1;
       63     7587        %A$JIT6X;
       64     7590    1   DCL B$JIT$ PTR SYMREF;
       65     7591
       66     7592    1   DCL M$DO DCB;
       67     7593    1   DCL M$LO DCB;
       68     7594    1   DCL M$ME DCB;
       69     7595        %FPT_CORRES (FPTN=CORS, DCB1=M$DO, DCB2=M$LO);
       70     7609
       71     7610        %EQU PHASE = 0;
       72     7611        %INCLUDE Z8A_DEFC;
       73     7679        %INCLUDE Z8A_COMCOM;
       74     8329        %INCLUDE Z8A_ERR_NUMS;
       75     9093
       76     9094    1   DCL XUX$COMMON_OPTIONS ENTRY(1) ALTRET;
       77     9095    1   DCL Z8AE$ERROR ENTRY(12);
       78     9096    1   DCL Z9BO$NON_STANDARD_OPTION ENTRY(2);
       79     9097    1   DCL Z9AT$TERMINATOR ENTRY;
       80     9098
       81     9099    1   DCL Z9BG$NSTD_NODES UBIN WORD SYMREF;
       82     9100
       83     9101        %XUX$PARAM (USER_ROUTINE = Z9BO$NON_STANDARD_OPTION,
       84     9102                    USER_NODES   = Z9BG$NSTD_NODES,
       85     9103                    BC_UNIT      = NIL,
       86     9104                    DCB1         = M$DO,
       87     9105                    DCB2         = M$LO );
       88     9246
PL6.E3A0      #001=Z9BO$OPTIONS_RECOGNITION File=Z9BO.:Z8A6TSI                   SAT 08/09/97 13:41 Page:12
       89     9247        %XUX$LEGAL_OPTIONS (NSTD = YES,
       90     9248                            UREF = NO,
       91     9249                            BC   = NO);
       92     9376
       93     9377        %XUX$SRCH_LIST(STCLASS=EXT);
       94     9472
       95     9473        %XUX$STD_OPTIONS;
       96     9637
       97     9638    1       COMCOM.LINE1 = B$JIT.CCBUF;

   9638  8 000002   000000 470400 xsym               LDP0    B$JIT$
         8 000003   040000 100500                    MLR     fill='040'O
         8 000004   000033 000120                    ADSC9   27,,PR0                  cn=0,n=80
         8 000005   000334 000120 xsym               ADSC9   COMCOM+220               cn=0,n=80

       98     9639
       99     9640
      100     9641            /* Set defaults for non-standard options */
      101     9642    1       COMCOM.OB.HEX    = %TRUE;               /*  Hex exponent  */

   9642  8 000006   400000 236003                    LDQ     -131072,DU
         8 000007   000027 256000 xsym               ORSQ    COMCOM+23

      102     9643
      103     9644    1       CALL XUX$COMMON_OPTIONS (XUX$PARAM)

   9644  8 000010   000001 630400 9                  EPPR0   1
         8 000011   000000 631400 9                  EPPR1   0
         8 000012   000000 701000 xent               TSX1    XUX$COMMON_OPTIONS
         8 000013   000015 702000 8                  TSX2    s:9646
         8 000014   000020 710000 8                  TRA     s:9650

      104     9645    2         WHENALTRETURN DO;

      105     9646    2            CALL Z9AT$TERMINATOR;

   9646  8 000015   000002 631400 9                  EPPR1   2
PL6.E3A0      #001=Z9BO$OPTIONS_RECOGNITION File=Z9BO.:Z8A6TSI                   SAT 08/09/97 13:41 Page:13
         8 000016   000000 701000 xent               TSX1    Z9AT$TERMINATOR
         8 000017   000000 011000                    NOP     0

      106     9647    2         END;

      107     9648
      108     9649            /* Set standard options from results of XUX$COMMON_OPTIONS */
      109     9650    1       COMCOM.OB.DM = XUX$STD_OPTIONS.DMAP;

   9650  8 000020   000026 236000 4                  LDQ     XUX$STD_OPTIONS+1
         8 000021   000065 756000 xsym               STQ     COMCOM+53

      110     9651    1       COMCOM.OB.MDM = XUX$STD_OPTIONS.MDMAP;

   9651  8 000022   000027 236000 4                  LDQ     XUX$STD_OPTIONS+2
         8 000023   000066 756000 xsym               STQ     COMCOM+54

      111     9652    1       COMCOM.OB.LO = XUX$STD_OPTIONS.LO;

   9652  8 000024   000030 236000 4                  LDQ     XUX$STD_OPTIONS+3
         8 000025   000101 756000 xsym               STQ     COMCOM+65

      112     9653    1       COMCOM.OB.LISTIN = XUX$STD_OPTIONS.LS;

   9653  8 000026   000031 236000 4                  LDQ     XUX$STD_OPTIONS+4
         8 000027   000040 676000 xsym               ERQ     COMCOM+32
         8 000030   400000 376003                    ANQ     -131072,DU
         8 000031   000040 656000 xsym               ERSQ    COMCOM+32

      113     9654    1       COMCOM.OB.DECK = XUX$STD_OPTIONS.OU;

   9654  8 000032   000032 236000 4                  LDQ     XUX$STD_OPTIONS+5
         8 000033   000022 676000 xsym               ERQ     COMCOM+18
         8 000034   400000 376003                    ANQ     -131072,DU
         8 000035   000022 656000 xsym               ERSQ    COMCOM+18

      114     9655    1       COMCOM.OB.PM  = XUX$STD_OPTIONS.PMAP;
PL6.E3A0      #001=Z9BO$OPTIONS_RECOGNITION File=Z9BO.:Z8A6TSI                   SAT 08/09/97 13:41 Page:14

   9655  8 000036   000033 236000 4                  LDQ     XUX$STD_OPTIONS+6
         8 000037   000064 756000 xsym               STQ     COMCOM+52

      115     9656    1       COMCOM.OB.DSS  = (XUX$STD_OPTIONS.SCHEMA ~= %XUX$NONE);

   9656  8 000040   400000 220003                    LDX0    -131072,DU
         8 000041   000034 235000 4                  LDA     XUX$STD_OPTIONS+7
         8 000042   000044 601000 8                  TNZ     s:9656+4
         8 000043   000000 220003                    LDX0    0,DU
         8 000044   000000 636010                    EAQ     0,X0
         8 000045   000024 676000 xsym               ERQ     COMCOM+20
         8 000046   400000 376003                    ANQ     -131072,DU
         8 000047   000024 656000 xsym               ERSQ    COMCOM+20

      116     9657    1       COMCOM.OB.COMDK  = XUX$STD_OPTIONS.SO;

   9657  8 000050   000035 236000 4                  LDQ     XUX$STD_OPTIONS+8
         8 000051   000016 676000 xsym               ERQ     COMCOM+14
         8 000052   400000 376003                    ANQ     -131072,DU
         8 000053   000016 656000 xsym               ERSQ    COMCOM+14

      117     9658    1       COMCOM.OB.UI = XUX$STD_OPTIONS.UI;

   9658  8 000054   000037 236000 4                  LDQ     XUX$STD_OPTIONS+10
         8 000055   000106 676000 xsym               ERQ     COMCOM+70
         8 000056   400000 376003                    ANQ     -131072,DU
         8 000057   000106 656000 xsym               ERSQ    COMCOM+70

      118     9659    1       COMCOM.OB.OPTUI = XUX$STD_OPTIONS.OPTUI;       /*#30236*/

   9659  8 000060   000040 236000 4                  LDQ     XUX$STD_OPTIONS+11
         8 000061   000113 676000 xsym               ERQ     COMCOM+75
         8 000062   400000 376003                    ANQ     -131072,DU
         8 000063   000113 656000 xsym               ERSQ    COMCOM+75

      119     9660    1       COMCOM.OB.NWARN = ~XUX$STD_OPTIONS.WARN;
PL6.E3A0      #001=Z9BO$OPTIONS_RECOGNITION File=Z9BO.:Z8A6TSI                   SAT 08/09/97 13:41 Page:15

   9660  8 000064   000042 236000 4                  LDQ     XUX$STD_OPTIONS+13
         8 000065   400000 376003                    ANQ     -131072,DU
         8 000066   400000 676003                    ERQ     -131072,DU
         8 000067   000047 676000 xsym               ERQ     COMCOM+39
         8 000070   400000 376003                    ANQ     -131072,DU
         8 000071   000047 656000 xsym               ERSQ    COMCOM+39

      120     9661    1       COMCOM.OB.XREF = (XUX$STD_OPTIONS.XREF ~= %XUX$NONE);

   9661  8 000072   400000 220003                    LDX0    -131072,DU
         8 000073   000043 236000 4                  LDQ     XUX$STD_OPTIONS+14
         8 000074   000076 601000 8                  TNZ     s:9661+4
         8 000075   000000 220003                    LDX0    0,DU
         8 000076   000000 636010                    EAQ     0,X0
         8 000077   000055 676000 xsym               ERQ     COMCOM+45
         8 000100   400000 376003                    ANQ     -131072,DU
         8 000101   000055 656000 xsym               ERSQ    COMCOM+45

      121     9662    1       COMCOM.OB.LNRSM = (XUX$STD_OPTIONS.UREF ~= %XUX$NONE);

   9662  8 000102   400000 220003                    LDX0    -131072,DU
         8 000103   000041 236000 4                  LDQ     XUX$STD_OPTIONS+12
         8 000104   000106 601000 8                  TNZ     s:9662+4
         8 000105   000000 220003                    LDX0    0,DU
         8 000106   000000 636010                    EAQ     0,X0
         8 000107   000037 676000 xsym               ERQ     COMCOM+31
         8 000110   400000 376003                    ANQ     -131072,DU
         8 000111   000037 656000 xsym               ERSQ    COMCOM+31

      122     9663
      123     9664    2       IF COMCOM.OB.IBM AND COMCOM.OB.INITIAL THEN DO;

   9664  8 000112   000032 234000 xsym               SZN     COMCOM+26
         8 000113   000124 605000 8                  TPL     s:9669
         8 000114   000021 234000 xsym               SZN     COMCOM+17
         8 000115   000124 605000 8                  TPL     s:9669
PL6.E3A0      #001=Z9BO$OPTIONS_RECOGNITION File=Z9BO.:Z8A6TSI                   SAT 08/09/97 13:41 Page:16

      124     9665    2         CALL Z8AE$ERROR (%E$IBM_INITIAL_ILLEGAL);

   9665  8 000116   000004 630400 9                  EPPR0   4
         8 000117   000000 631400 9                  EPPR1   0
         8 000120   000000 701000 xent               TSX1    Z8AE$ERROR
         8 000121   000000 011000                    NOP     0

      125     9666    2         COMCOM.OB.INITIAL = FALSE;

   9666  8 000122   000005 236000 9                  LDQ     5
         8 000123   000021 356000 xsym               ANSQ    COMCOM+17

      126     9667    2       END;

      127     9668
      128     9669    1       IF COMCOM.OB.PM AND NOT

   9669  8 000124   000064 235000 xsym               LDA     COMCOM+52
         8 000125   000136 600000 8                  TZE     s:9673
         8 000126   000101 236000 xsym               LDQ     COMCOM+65
         8 000127   200000 316003                    CANQ    65536,DU
         8 000130   000136 601000 8                  TNZ     s:9673
         8 000131   000041 236000 xsym               LDQ     COMCOM+33
         8 000132   200000 316003                    CANQ    65536,DU
         8 000133   000136 601000 8                  TNZ     s:9673

      129     9670    1          (COMCOM.OB.LO.DATA OR COMCOM.OB.LISTOUT.DATA) THEN
      130     9671    1         COMCOM.OB.LO.CODE = TRUE;

   9671  8 000134   400000 236003                    LDQ     -131072,DU
         8 000135   000101 256000 xsym               ORSQ    COMCOM+65

      131     9672
      132     9673    1       IF (COMCOM.OB.DM OR COMCOM.OB.MDM)

   9673  8 000136   000065 236000 xsym               LDQ     COMCOM+53
PL6.E3A0      #001=Z9BO$OPTIONS_RECOGNITION File=Z9BO.:Z8A6TSI                   SAT 08/09/97 13:41 Page:17
         8 000137   000142 601000 8                  TNZ     s:9673+4
         8 000140   000066 235000 xsym               LDA     COMCOM+54
         8 000141   000152 600000 8                  TZE     s:9677
         8 000142   000101 236000 xsym               LDQ     COMCOM+65
         8 000143   200000 316003                    CANQ    65536,DU
         8 000144   000152 601000 8                  TNZ     s:9677
         8 000145   000041 236000 xsym               LDQ     COMCOM+33
         8 000146   200000 316003                    CANQ    65536,DU
         8 000147   000152 601000 8                  TNZ     s:9677

      133     9674    1          AND NOT (COMCOM.OB.LO.DATA OR COMCOM.OB.LISTOUT.DATA) THEN
      134     9675    1         COMCOM.OB.LO.DATA = TRUE;

   9675  8 000150   200000 236003                    LDQ     65536,DU
         8 000151   000101 256000 xsym               ORSQ    COMCOM+65

      135     9676
      136     9677    1       IF COMCOM.OB.LO  OR  COMCOM.OB.LISTOUT  OR  COMCOM.OB.DM

   9677  8 000152   000101 235000 xsym               LDA     COMCOM+65
         8 000153   000164 601000 8                  TNZ     s:9679
         8 000154   000041 236000 xsym               LDQ     COMCOM+33
         8 000155   000164 601000 8                  TNZ     s:9679
         8 000156   000065 235000 xsym               LDA     COMCOM+53
         8 000157   000164 601000 8                  TNZ     s:9679
         8 000160   000066 235000 xsym               LDA     COMCOM+54
         8 000161   000164 601000 8                  TNZ     s:9679
         8 000162   000064 235000 xsym               LDA     COMCOM+52
         8 000163   000166 600000 8                  TZE     s:9682

      137     9678    1       OR COMCOM.OB.MDM OR COMCOM.OB.PM THEN
      138     9679    1         COMCOM.OB.DECK = TRUE;

   9679  8 000164   400000 236003                    LDQ     -131072,DU
         8 000165   000022 256000 xsym               ORSQ    COMCOM+18

      139     9680
PL6.E3A0      #001=Z9BO$OPTIONS_RECOGNITION File=Z9BO.:Z8A6TSI                   SAT 08/09/97 13:41 Page:18
      140     9681            /* Skip DO file if same as LO & LISTIN is specified */
      141     9682    1       CALL M$CORRES (CORS)

   9682  8 000166   000000 630400 4                  EPPR0   CORS
         8 000167   460000 713400                    CLIMB   alt,+24576
         8 000170   400000 401760                    pmme    nvectors=1
         8 000171   000201 702000 8                  TSX2    s:9689

      142     9683    2        WHENRETURN DO;

      143     9684    2           IF B$JIT.PRFLAGS.COMMENT THEN

   9684  8 000172   000000 470400 xsym               LDP0    B$JIT$
         8 000173   000030 236100                    LDQ     24,,PR0
         8 000174   020000 316003                    CANQ    8192,DU
         8 000175   000200 600000 8                  TZE     s:9686

      144     9685    2             COMCOM.DO_REQ = '1'B;

   9685  8 000176   400000 236003                    LDQ     -131072,DU
         8 000177   000127 756000 xsym               STQ     COMCOM+87

      145     9686    2        END;

   9686  8 000200   000213 710000 8                  TRA     s:9695

      146     9687
      147     9688    2        WHENALTRETURN DO;

      148     9689    2           IF B$JIT.PRFLAGS.COMMENT AND NOT COMCOM.OB.LISTIN THEN

   9689  8 000201   000000 470400 xsym               LDP0    B$JIT$
         8 000202   000030 236100                    LDQ     24,,PR0
         8 000203   020000 316003                    CANQ    8192,DU
         8 000204   000212 600000 8                  TZE     s:9692
         8 000205   000040 234000 xsym               SZN     COMCOM+32
         8 000206   000212 604000 8                  TMI     s:9692
PL6.E3A0      #001=Z9BO$OPTIONS_RECOGNITION File=Z9BO.:Z8A6TSI                   SAT 08/09/97 13:41 Page:19

      149     9690    2             COMCOM.DO_REQ = '1'B;

   9690  8 000207   400000 236003                    LDQ     -131072,DU
         8 000210   000127 756000 xsym               STQ     COMCOM+87
         8 000211   000213 710000 8                  TRA     s:9695

      150     9691    2           ELSE
      151     9692    2             COMCOM.DO_REQ = '0'B;

   9692  8 000212   000127 450000 xsym               STZ     COMCOM+87

      152     9693    2        END;

      153     9694
      154     9695    1   END Z9BO$OPTIONS_RECOGNITION;

   9695  8 000213   000000 702200 xent               TSX2  ! X66_ARET
      155     9696        %EOD;

PL6.E3A0      #001=Z9BO$OPTIONS_RECOGNITION File=Z9BO.:Z8A6TSI                   SAT 08/09/97 13:41 Page:20
--  Include file information  --

   Z8A_ERR_NUMS.:Z8A6TOU  is referenced.
   Z8A_COMCOM.:Z8A6TOU  cannot be made into a system file and is referenced.
   Z8A_DEFC.:Z8A6TOU  cannot be made into a system file and is referenced.
   B$JIT_C.:LIBRARY  is referenced.
   XUX$INTERFACE_M.:LIB_E04  is referenced.
   CP_6_SUBS.:LIB_E04  is referenced.
   CP_6_C.:LIB_E04  is referenced.
   CP_6.:LIB_E04  cannot be made into a system file and is referenced.
   Z9A_FLAGS.:Z8A6TOU  is referenced.
   Z8A_SYS_FILE.:Z8A6TOU  is referenced.
      No diagnostics issued in procedure Z9BO$OPTIONS_RECOGNITION.
PL6.E3A0      #001=Z9BO$OPTIONS_RECOGNITION File=Z9BO.:Z8A6TSI                   SAT 08/09/97 13:41 Page:21

 **** Variables and constants ****

  ****  Section 004  Data  Z9BO$OPTIONS_RECOGNITION

  ****  Scalars and arrays  ****
OctLoc.c.b A Datatyp(siz) R M Lvl/name                 OctLoc.c.b A Datatyp(siz) R M Lvl/name

     0-0-0/d STRC(144)   r     1 CORS                       4-0-0/w STRC(612)   r     1 XUX$PARAM
    25-0-0/w STRC(972)   r     1 XUX$STD_OPTIONS

  ****  Section 005 LblCom ITERATION

  ****  Scalars and arrays  ****
OctLoc.c.b A Datatyp(siz) R M Lvl/name                 OctLoc.c.b A Datatyp(siz) R M Lvl/name

     0-0-0/w SBIN              1 ITERATION

  ****  Section 006 RoData Z9BO$OPTIONS_RECOGNITION

  ****  Scalars and arrays  ****
OctLoc.c.b A Datatyp(siz) R M Lvl/name                 OctLoc.c.b A Datatyp(siz) R M Lvl/name

     0-0-0/w STRC(72)    r     1 XUX$LEGAL_OPTIONS

  ****  Section 007 LblCom XUX$SRCH_LIST

  ****  Scalars and arrays  ****
OctLoc.c.b A Datatyp(siz) R M Lvl/name                 OctLoc.c.b A Datatyp(siz) R M Lvl/name

     0-0-0/w STRC(6912)  r     1 XUX$SRCH_LIST

  ****  SYMREF variables  ****

  ****  Scalars and arrays  ****
OctLoc.c.b A Datatyp(siz) R M Lvl/name                 OctLoc.c.b A Datatyp(siz) R M Lvl/name

     0-0-0/w PTR         r     1 B$JIT$                     0-0-0/d STRC(13248) r     1 COMCOM
PL6.E3A0      #001=Z9BO$OPTIONS_RECOGNITION File=Z9BO.:Z8A6TSI                   SAT 08/09/97 13:41 Page:22
     0-0-0/w UBIN        r     1 Z9BG$NSTD_NODES

  ****  BASED and DCB variables  ****

  ****  Scalars and arrays  ****
OctLoc.c.b A Datatyp(siz) R M Lvl/name                 OctLoc.c.b A Datatyp(siz) R M Lvl/name

     0-0-0/d STRC(5760)  r     1 B$JIT                      0-0-0/w CHAR(4096)        1 CHARS
     0-0-0/w STRC(72)          1 CONT                       0-0-0N  NULL        r     1 M$DO
     0-0-0N  NULL        r     1 M$LO                       0-0-0N  NULL        r     1 M$ME
     0-0-0N  NULL        r     1 M$UC                       0-0-0/w STRC(36864)       1 PAGE


   Procedure Z9BO$OPTIONS_RECOGNITION requires 140 words for executable code.
   Procedure Z9BO$OPTIONS_RECOGNITION requires 4 words of local(AUTO) storage.

PL6.E3A0      #002=Z9BO$NON_STANDARD_OPTION File=Z9BO.:Z8A6TSI                   SAT 08/09/97 13:42 Page:23
      156        1        /*T***********************************************************/
      157        2        /*T*                                                         */
      158        3        /*T* Copyright (c) Bull HN Information Systems Inc., 1997    */
      159        4        /*T*                                                         */
      160        5        /*T***********************************************************/
      161        6        Z9BO$NON_STANDARD_OPTION : PROC(BLK$, ERRFLAG);
      162        7
      163        8        /*F*
      164        9             NAME: Z9BO$NON_STANDARD_OPTION
      165       10             PURPOSE:
      166       11                  Set bits in COMCOM for non-standard options found on the
      167       12                  invokation line.
      168       13             DESCRIPTION:
      169       14                  Z9BO$NON_STANDARD_OPTIONS will be called by
      170       15                  the common options parser on CP-6 to set the
      171       16                  non-standard option bits in COMCOM.
      172       17        */
      173       18        /*D*
      174       19             NAME: Z9BO$NON_STANDARD_OPTION
      175       20             CALL:
      176       21                  CALL Z9BO$NON_STANDARD_OPTION(=BLK$, =ERRFLAG);
      177       22             PARAMETERS:
      178       23                  BLK$ - Pointer to parse node for option.
      179       24                  ERRFLAG - Bit(1) return variable required to give indication
      180       25                            of error detection.  Currently always returns
      181       26                            false.
      182       27             INPUT:
      183       28                  COMCOM.OB
      184       29             OUTPUT:
      185       30                  COMCOM.OB
      186       31             DESCRIPTION:
      187       32                  Z9BO$NON_STANDARD_OPTION consists mostly of a big case
      188       33                  statement on the code of the input parse node.  The code
      189       34                  indicates which option needs to be handled.
      190       35        */
      191       36
      192       37    1       DCL BLK$ PTR;
PL6.E3A0      #002=Z9BO$NON_STANDARD_OPTION File=Z9BO.:Z8A6TSI                   SAT 08/09/97 13:42 Page:24
      193       38    1       DCL ERRFLAG BIT(1) ALIGNED;
      194       39    1       DCL I SBIN WORD;
      195       40
      196       41    1       DCL Z8AE$ERROR ENTRY(12);
      197       42
      198       43            %EQU PHASE = 0;
      199       44            %INCLUDE Z8A_DEFC;
      200      112            %INCLUDE Z8A_COMCOM;
      201      762            %INCLUDE Z9B_OPTS;
      202      848            %INCLUDE Z8A_ERR_NUMS;
      203     1612
      204     1613            %INCLUDE CP_6;
      205     7173            %INCLUDE XU_MACRO_C;
      206    10267
      207    10268            %PARSE$OUT;
      208    10313            %PARSE$SYM;
      209    10351
      210    10352    1       ERRFLAG = FALSE;
      211    10353
      212    10354    2       DO CASE(BLK$ -> OUT$BLK.CODE);
      213    10355    2         CASE(%OPT_ABDUMP);
      214    10356    2           COMCOM.OB.ABDUMP = TRUE;
      215    10357    2         CASE(%OPT_ALTNO);
      216    10358    2           COMCOM.OB.ALTNO = TRUE;
      217    10359    2         CASE(%OPT_ANSI);
      218    10360    2           COMCOM.OB.FIPS.LEVEL = %HIGH_LEV;
      219    10361    2         CASE(%OPT_ASCIIPRT);
      220    10362    2           COMCOM.OB.ASCIIPRT = TRUE;
      221    10363    2         CASE(%OPT_CHECK);
      222    10364    2           COMCOM.OB.CHECK = TRUE;
      223    10365    2         CASE(%OPT_CLIST);
      224    10366    2           COMCOM.OB.CLIST = TRUE;
      225    10367    2         CASE(%OPT_COBOL_74);
      226    10368    2           COMCOM.OB.COBOL_74 = TRUE;
      227    10369    2         CASE(%OPT_CONTINUE);
      228    10370    2           COMCOM.OB.CONTINUE = TRUE;
      229    10371    2         CASE(%OPT_COUNT);
PL6.E3A0      #002=Z9BO$NON_STANDARD_OPTION File=Z9BO.:Z8A6TSI                   SAT 08/09/97 13:42 Page:25
      230    10372    2           COMCOM.OB.COUNT = TRUE;
      231    10373    2         CASE(%OPT_DPS8);
      232    10374    2           COMCOM.OB.DPS88 = FALSE;
      233    10375    2           COMCOM.OB.ELS   = FALSE;
      234    10376    2           COMCOM.PLATFORM = TRUE;
      235    10377    2         CASE(%OPT_DPS88);
      236    10378    2           COMCOM.OB.DPS88 = TRUE;
      237    10379    2           COMCOM.OB.ELS   = TRUE;
      238    10380    2           COMCOM.PLATFORM = TRUE;
      239    10381    2         CASE(%OPT_DPS90,%OPT_DPS8000,%OPT_DPS9000);
      240    10382    2           COMCOM.OB.DPS88 = FALSE;
      241    10383    2           COMCOM.OB.ELS = TRUE;
      242    10384    2           COMCOM.PLATFORM = TRUE;
      243    10385    2         CASE(%OPT_DSE);
      244    10386    2           COMCOM.OB.DSE = TRUE;
      245    10387    2         CASE(%OPT_ERRLIM);
      246    10388    2           CALL CHARBIN(COMCOM.ERRLIM, SUBSTR(BLK$->OUT$BLK.SUBLK$(0)->
      247    10389    2               OUT$SYM.TEXT,
      248    10390    2               0, MINIMUM(63, BLK$->OUT$BLK.SUBLK$(0)->OUT$SYM.COUNT)));
      249    10391    2         CASE(%OPT_FORMAT);
      250    10392    2           COMCOM.OB.FORMAT = TRUE;
      251    10393    2         CASE(%OPT_HEX);
      252    10394    2           COMCOM.OB.HEX = TRUE;
      253    10395    2         CASE(%OPT_HL);
      254    10396    2           COMCOM.OB.FIPS.LEVEL = %HIGH_LEV;
      255    10397    2         CASE(%OPT_IBM);
      256    10398    2           COMCOM.OB.IBM = TRUE;
      257    10399    2         CASE(%OPT_IDSLIST);
      258    10400    2           COMCOM.OB.IDSLIST = TRUE;
      259    10401    2         CASE(%OPT_IL);
      260    10402    2           COMCOM.OB.FIPS.LEVEL = %INT_LEV;
      261    10403    2         CASE(%OPT_INITIAL);
      262    10404    2           COMCOM.OB.INITIAL = TRUE;
      263    10405    2         CASE(%OPT_IT);
      264    10406    2           COMCOM.OB.IT = TRUE;
      265    10407    2         CASE(%OPT_LEXEMES);
      266    10408    2           COMCOM.OB.LEXEMES = TRUE;
PL6.E3A0      #002=Z9BO$NON_STANDARD_OPTION File=Z9BO.:Z8A6TSI                   SAT 08/09/97 13:42 Page:26
      267    10409    2         CASE(%OPT_LIST);
      268    10410    2           COMCOM.OB.LISTIN = TRUE;
      269    10411    2           COMCOM.OB.LISTOUT.CODE = TRUE;
      270    10412    2           COMCOM.OB.XREF = TRUE;
      271    10413    2         CASE(%OPT_LISTOUT);
      272    10414    2           IF BLK$ -> OUT$BLK.NSUBLKS > 0 THEN
      273    10415    3             DO CASE(BLK$ -> OUT$BLK.SUBLK$(0) -> OUT$BLK.CODE);
      274    10416    3               CASE(%OPT_CODE);
      275    10417    3                 COMCOM.OB.LISTOUT.CODE = TRUE;
      276    10418    3               CASE(%OPT_DATA);
      277    10419    3                 COMCOM.OB.LISTOUT.DATA = TRUE;
      278    10420    3             END;
      279    10421    2           ELSE
      280    10422    3             DO;
      281    10423    3               COMCOM.OB.LISTOUT.CODE = TRUE;
      282    10424    3               COMCOM.OB.LISTOUT.DATA = TRUE;
      283    10425    3             END;
      284    10426    2         CASE(%OPT_LL);
      285    10427    2           COMCOM.OB.FIPS.LEVEL = %LOW_LEV;
      286    10428    2         CASE(%OPT_LU);
      287    10429    2           COMCOM.OB.LU = TRUE;
      288    10430    2         CASE(%OPT_MAP);
      289    10431    2           COMCOM.OB.MAP = TRUE;
      290    10432    2           COMCOM.OB.LISTIN = TRUE;
      291    10433    2         CASE(%OPT_N6UPD);
      292    10434    2           COMCOM.OB.N6UPD = TRUE;
      293    10435    2         CASE(%OPT_NOCANCEL);
      294    10436    2           COMCOM.OB.NOCANCEL = TRUE;
      295    10437    2         CASE(%OPT_NOPTZ);
      296    10438    2           COMCOM.OB.OPTZ = FALSE;
      297    10439    2         CASE(%OPT_NRESET);
      298    10440    2           COMCOM.OB.NRESET = TRUE;
      299    10441    2         CASE(%OPT_OPTZ);
      300    10442    2           COMCOM.OB.OPTZ = TRUE;
      301    10443    2         CASE(%OPT_OBS);
      302    10444    2           COMCOM.OB.FIPS.OBS = TRUE;
      303    10445    2         CASE(%OPT_O1DUMP);
PL6.E3A0      #002=Z9BO$NON_STANDARD_OPTION File=Z9BO.:Z8A6TSI                   SAT 08/09/97 13:42 Page:27
      304    10446    2           COMCOM.OB.O1DUMP = TRUE;
      305    10447    2         CASE(%OPT_O2DUMP);
      306    10448    2           COMCOM.OB.O2DUMP = TRUE;
      307    10449    2         CASE(%OPT_O3DUMP);
      308    10450    2           COMCOM.OB.O3DUMP = TRUE;
      309    10451    2         CASE(%OPT_O4DUMP);
      310    10452    2           COMCOM.OB.O4DUMP = TRUE;
      311    10453    2         CASE(%OPT_OBJ);
      312    10454    2           COMCOM.OB.OBJ = TRUE;
      313    10455    2           COMCOM.OB.O4DUMP = TRUE;
      314    10456    2         CASE(%OPT_PARAM);
      315    10457    2           COMCOM.OB.PARAMETER_CHECK = TRUE;
      316    10458    2         CASE(%OPT_RESEQ);
      317    10459    2           COMCOM.OB.RESEQ = TRUE;
      318    10460    2         CASE(%OPT_RPW);
      319    10461    2           COMCOM.OB.FIPS.RPW = TRUE;
      320    10462    2         CASE(%OPT_SEG1);
      321    10463    2           COMCOM.OB.FIPS.SEG1 = TRUE;
      322    10464    2           COMCOM.OB.FIPS.SEG2 = TRUE;
      323    10465    2         CASE(%OPT_SEG2);
      324    10466    2           COMCOM.OB.FIPS.SEG2 = TRUE;
      325    10467    2         CASE(%OPT_STATS);
      326    10468    2           COMCOM.OB.STATS = TRUE;
      327    10469    2         CASE(%OPT_SUB);
      328    10470    2           COMCOM.OB.SUB = TRUE;
      329    10471    2         CASE(%OPT_SUBCHK);
      330    10472    2           COMCOM.OB.SUBCHK = TRUE;
      331    10473    2         CASE(%OPT_SV1);
      332    10474    2           COMCOM.OB.INFO = TRUE;
      333    10475    2         CASE(%OPT_SV2);
      334    10476    2           COMCOM.OB.SV5 = FALSE;
      335    10477    2         CASE(%OPT_SV3);
      336    10478    2           COMCOM.OB.SV3 = TRUE;
      337    10479    2         CASE(%OPT_SV4);
      338    10480    2           COMCOM.OB.SV4 = TRUE;
      339    10481    2         CASE(%OPT_SV5);
      340    10482    2           COMCOM.OB.SV5 = TRUE;
PL6.E3A0      #002=Z9BO$NON_STANDARD_OPTION File=Z9BO.:Z8A6TSI                   SAT 08/09/97 13:42 Page:28
      341    10483    2         CASE(%OPT_TP);
      342    10484    2           COMCOM.OB.TP = TRUE;
      343    10485    2         CASE(%OPT_TREE);
      344    10486    2           COMCOM.TREE_LINE = SUBSTR(BLK$ -> OUT$BLK.SUBLK$(0) ->
      345    10487    2                            OUT$SYM.TEXT, 0,
      346    10488    2                            MINIMUM(79, BLK$ ->
      347    10489    2                            OUT$BLK.SUBLK$(0) -> OUT$SYM.COUNT));
      348    10490    2         CASE(%OPT_TSS);
      349    10491    2           COMCOM.OB.TSS = TRUE;
      350    10492    2         CASE(%OPT_NDATA);
      351    10493    2           COMCOM.OB.LO.DATA = FALSE;
      352    10494    2           COMCOM.OB.LISTOUT.DATA = FALSE;
      353    10495    2         CASE(%OPT_NLISTOUT);
      354    10496    2           COMCOM.OB.LISTOUT = '0'B;
      355    10497    2         CASE(%OPT_VIRTUAL);
      356    10498    2           COMCOM.OB.VIRTUAL = TRUE;
      357    10499    2         CASE(ELSE);
      358    10500    2           CALL Z8AE$ERROR(%E$UNEXPECTED_CASE);
      359    10501    2       END;  /* CASE(BLK$->OUT$BLK.CODE) */
      360    10502
      361    10503    1   END Z9BO$NON_STANDARD_OPTION;

PL6.E3A0      #002=Z9BO$NON_STANDARD_OPTION File=Z9BO.:Z8A6TSI                   SAT 08/09/97 13:42 Page:29
--  Include file information  --

   XU_MACRO_C.:LIB_E04  is referenced.
   CP_6_C.:LIB_E04  is referenced.
   CP_6.:LIB_E04  cannot be made into a system file and is referenced.
   Z8A_ERR_NUMS.:Z8A6TOU  is referenced.
   Z9B_OPTS.:Z8A6TOU  is referenced.
   Z8A_COMCOM.:Z8A6TOU  cannot be made into a system file and is referenced.
   Z8A_DEFC.:Z8A6TOU  cannot be made into a system file and is referenced.
      No diagnostics issued in procedure Z9BO$NON_STANDARD_OPTION.

   Procedure Z9BO$NON_STANDARD_OPTION requires 332 words for executable code.
   Procedure Z9BO$NON_STANDARD_OPTION requires 6 words of local(AUTO) storage.

    No errors detected in file Z9BO.:Z8A6TSI    .

PL6.E3A0      #002=Z9BO$NON_STANDARD_OPTION File=Z9BO.:Z8A6TSI                   SAT 08/09/97 13:42 Page:30

 Object Unit name= Z9BO$NON_STANDARD_OPTION                   File name= Z9BO.:Z8A6TOU
 UTS= AUG 09 '97 13:42:42.60 SAT                              Compiler= PL-6/E31         Sev=      00
 SharedLib= :SHARED_SYSTEM                                    Alt SharedLib=


    ****  Control sections  ****

 Sect   Type Bound  Init  Size OctSiz  Section name(segment info)
    0  LblCom even  none     1      1  ITERATION
    1   DCB   even  none     0      0  M$UC
    2   Proc  even  none   332    514  Z9BO$NON_STANDARD_OPTION
    3  RoData even  none     5      5  Z9BO$NON_STANDARD_OPTION

    ****  Entry defs  ****

                              Check   Calling
                             calling  sequence
  Sect OctLoc Primary Altret sequence   type   Parms  Name
     2      0   yes            yes      Std        2  Z9BO$NON_STANDARD_OPTION

  ****  Entry refs  ****

         Check        Calling
        calling       sequence
Altret sequence SRef   type   Args  Name
         yes           Std      12 Z8AE$ERROR
                       nStd      0 X66_AUTO_2
                       nStd      0 X66_ARET

  ****  Data refs  ****

  Flags:  r = read only, s = secondary
Flgs Name                             Flgs Name                             Flgs Name
     COMCOM                                M$UC
PL6.E3A0      #002=Z9BO$NON_STANDARD_OPTION File=Z9BO.:Z8A6TSI                   SAT 08/09/97 13:42 Page:31

  ****  Segment refs  ****

  Flags:  r = read only, s = secondary
Flgs Name                             Flgs Name                             Flgs Name
     ISSID
PL6.E3A0      #002=Z9BO$NON_STANDARD_OPTION File=Z9BO.:Z8A6TSI                   SAT 08/09/97 13:42 Page:32


      156        1        /*T***********************************************************/
      157        2        /*T*                                                         */
      158        3        /*T* Copyright (c) Bull HN Information Systems Inc., 1997    */
      159        4        /*T*                                                         */
      160        5        /*T***********************************************************/
      161        6        Z9BO$NON_STANDARD_OPTION : PROC(BLK$, ERRFLAG);

      6  2 000000   000000 700200 xent  Z9BO$NON_ST* TSX0  ! X66_AUTO_2
         2 000001   000006 000002                    ZERO    6,2

      162        7
      163        8        /*F*
      164        9             NAME: Z9BO$NON_STANDARD_OPTION
      165       10             PURPOSE:
      166       11                  Set bits in COMCOM for non-standard options found on the
      167       12                  invokation line.
      168       13             DESCRIPTION:
      169       14                  Z9BO$NON_STANDARD_OPTIONS will be called by
      170       15                  the common options parser on CP-6 to set the
      171       16                  non-standard option bits in COMCOM.
      172       17        */
      173       18        /*D*
      174       19             NAME: Z9BO$NON_STANDARD_OPTION
      175       20             CALL:
      176       21                  CALL Z9BO$NON_STANDARD_OPTION(=BLK$, =ERRFLAG);
      177       22             PARAMETERS:
      178       23                  BLK$ - Pointer to parse node for option.
      179       24                  ERRFLAG - Bit(1) return variable required to give indication
      180       25                            of error detection.  Currently always returns
      181       26                            false.
      182       27             INPUT:
      183       28                  COMCOM.OB
      184       29             OUTPUT:
      185       30                  COMCOM.OB
      186       31             DESCRIPTION:
      187       32                  Z9BO$NON_STANDARD_OPTION consists mostly of a big case
PL6.E3A0      #002=Z9BO$NON_STANDARD_OPTION File=Z9BO.:Z8A6TSI                   SAT 08/09/97 13:42 Page:33
      188       33                  statement on the code of the input parse node.  The code
      189       34                  indicates which option needs to be handled.
      190       35        */
      191       36
      192       37    1       DCL BLK$ PTR;
      193       38    1       DCL ERRFLAG BIT(1) ALIGNED;
      194       39    1       DCL I SBIN WORD;
      195       40
      196       41    1       DCL Z8AE$ERROR ENTRY(12);
      197       42
      198       43            %EQU PHASE = 0;
      199       44            %INCLUDE Z8A_DEFC;
      200      112            %INCLUDE Z8A_COMCOM;
      201      762            %INCLUDE Z9B_OPTS;
      202      848            %INCLUDE Z8A_ERR_NUMS;
      203     1612
      204     1613            %INCLUDE CP_6;
      205     7173            %INCLUDE XU_MACRO_C;
      206    10267
      207    10268            %PARSE$OUT;
      208    10313            %PARSE$SYM;
      209    10351
      210    10352    1       ERRFLAG = FALSE;

  10352  2 000002   200004 470500                    LDP0    @ERRFLAG,,AUTO
         2 000003   000000 450100                    STZ     0,,PR0

      211    10353
      212    10354    2       DO CASE(BLK$ -> OUT$BLK.CODE);

  10354  2 000004   200003 471500                    LDP1    @BLK$,,AUTO
         2 000005   100000 473500                    LDP3    0,,PR1
         2 000006   300000 720100                    LXL0    0,,PR3
         2 000007   000127 100003                    CMPX0   87,DU
         2 000010   000012 602010 2                  TNC     s:10354+6,X0
         2 000011   000507 710000 2                  TRA     s:10500
         2 000012   000507 710000 2                  TRA     s:10500
PL6.E3A0      #002=Z9BO$NON_STANDARD_OPTION File=Z9BO.:Z8A6TSI                   SAT 08/09/97 13:42 Page:34
         2 000013   000141 710000 2                  TRA     s:10356
         2 000014   000144 710000 2                  TRA     s:10358
         2 000015   000147 710000 2                  TRA     s:10360
         2 000016   000152 710000 2                  TRA     s:10362
         2 000017   000207 710000 2                  TRA     s:10382
         2 000020   000174 710000 2                  TRA     s:10374
         2 000021   000155 710000 2                  TRA     s:10364
         2 000022   000343 710000 2                  TRA     s:10436
         2 000023   000507 710000 2                  TRA     s:10500
         2 000024   000163 710000 2                  TRA     s:10368
         2 000025   000507 710000 2                  TRA     s:10500
         2 000026   000220 710000 2                  TRA     s:10388
         2 000027   000166 710000 2                  TRA     s:10370
         2 000030   000171 710000 2                  TRA     s:10372
         2 000031   000507 710000 2                  TRA     s:10500
         2 000032   000340 710000 2                  TRA     s:10434
         2 000033   000207 710000 2                  TRA     s:10382
         2 000034   000357 710000 2                  TRA     s:10444
         2 000035   000413 710000 2                  TRA     s:10463
         2 000036   000354 710000 2                  TRA     s:10442
         2 000037   000215 710000 2                  TRA     s:10386
         2 000040   000507 710000 2                  TRA     s:10500
         2 000041   000257 710000 2                  TRA     s:10404
         2 000042   000207 710000 2                  TRA     s:10382
         2 000043   000507 710000 2                  TRA     s:10500
         2 000044   000235 710000 2                  TRA     s:10392
         2 000045   000240 710000 2                  TRA     s:10394
         2 000046   000346 710000 2                  TRA     s:10438
         2 000047   000246 710000 2                  TRA     s:10398
         2 000050   000251 710000 2                  TRA     s:10400
         2 000051   000420 710000 2                  TRA     s:10466
         2 000052   000410 710000 2                  TRA     s:10461
         2 000053   000262 710000 2                  TRA     s:10406
         2 000054   000243 710000 2                  TRA     s:10396
         2 000055   000254 710000 2                  TRA     s:10402
         2 000056   000326 710000 2                  TRA     s:10427
         2 000057   000265 710000 2                  TRA     s:10408
PL6.E3A0      #002=Z9BO$NON_STANDARD_OPTION File=Z9BO.:Z8A6TSI                   SAT 08/09/97 13:42 Page:35
         2 000060   000270 710000 2                  TRA     s:10410
         2 000061   000275 710000 2                  TRA     s:10414
         2 000062   000507 710000 2                  TRA     s:10500
         2 000063   000507 710000 2                  TRA     s:10500
         2 000064   000202 710000 2                  TRA     s:10378
         2 000065   000334 710000 2                  TRA     s:10431
         2 000066   000331 710000 2                  TRA     s:10429
         2 000067   000507 710000 2                  TRA     s:10500
         2 000070   000160 710000 2                  TRA     s:10366
         2 000071   000507 710000 2                  TRA     s:10500
         2 000072   000351 710000 2                  TRA     s:10440
         2 000073   000442 710000 2                  TRA     s:10478
         2 000074   000362 710000 2                  TRA     s:10446
         2 000075   000365 710000 2                  TRA     s:10448
         2 000076   000370 710000 2                  TRA     s:10450
         2 000077   000373 710000 2                  TRA     s:10452
         2 000100   000376 710000 2                  TRA     s:10454
         2 000101   000507 710000 2                  TRA     s:10500
         2 000102   000507 710000 2                  TRA     s:10500
         2 000103   000507 710000 2                  TRA     s:10500
         2 000104   000405 710000 2                  TRA     s:10459
         2 000105   000434 710000 2                  TRA     s:10474
         2 000106   000423 710000 2                  TRA     s:10468
         2 000107   000426 710000 2                  TRA     s:10470
         2 000110   000431 710000 2                  TRA     s:10472
         2 000111   000437 710000 2                  TRA     s:10476
         2 000112   000507 710000 2                  TRA     s:10500
         2 000113   000445 710000 2                  TRA     s:10480
         2 000114   000450 710000 2                  TRA     s:10482
         2 000115   000507 710000 2                  TRA     s:10500
         2 000116   000453 710000 2                  TRA     s:10484
         2 000117   000456 710000 2                  TRA     s:10486
         2 000120   000473 710000 2                  TRA     s:10491
         2 000121   000507 710000 2                  TRA     s:10500
         2 000122   000507 710000 2                  TRA     s:10500
         2 000123   000507 710000 2                  TRA     s:10500
         2 000124   000507 710000 2                  TRA     s:10500
PL6.E3A0      #002=Z9BO$NON_STANDARD_OPTION File=Z9BO.:Z8A6TSI                   SAT 08/09/97 13:42 Page:36
         2 000125   000476 710000 2                  TRA     s:10493
         2 000126   000507 710000 2                  TRA     s:10500
         2 000127   000507 710000 2                  TRA     s:10500
         2 000130   000502 710000 2                  TRA     s:10496
         2 000131   000504 710000 2                  TRA     s:10498
         2 000132   000507 710000 2                  TRA     s:10500
         2 000133   000507 710000 2                  TRA     s:10500
         2 000134   000507 710000 2                  TRA     s:10500
         2 000135   000507 710000 2                  TRA     s:10500
         2 000136   000507 710000 2                  TRA     s:10500
         2 000137   000507 710000 2                  TRA     s:10500
         2 000140   000402 710000 2                  TRA     s:10457

      213    10355    2         CASE(%OPT_ABDUMP);

      214    10356    2           COMCOM.OB.ABDUMP = TRUE;

  10356  2 000141   400000 236003                    LDQ     -131072,DU
         2 000142   000107 256000 xsym               ORSQ    COMCOM+71
         2 000143   000513 710000 2                  TRA     s:10503

      215    10357    2         CASE(%OPT_ALTNO);

      216    10358    2           COMCOM.OB.ALTNO = TRUE;

  10358  2 000144   400000 236003                    LDQ     -131072,DU
         2 000145   000011 256000 xsym               ORSQ    COMCOM+9
         2 000146   000513 710000 2                  TRA     s:10503

      217    10359    2         CASE(%OPT_ANSI);

      218    10360    2           COMCOM.OB.FIPS.LEVEL = %HIGH_LEV;

  10360  2 000147   000001 221003                    LDX1    1,DU
         2 000150   000036 441000 xsym               SXL1    COMCOM+30
         2 000151   000513 710000 2                  TRA     s:10503

PL6.E3A0      #002=Z9BO$NON_STANDARD_OPTION File=Z9BO.:Z8A6TSI                   SAT 08/09/97 13:42 Page:37
      219    10361    2         CASE(%OPT_ASCIIPRT);

      220    10362    2           COMCOM.OB.ASCIIPRT = TRUE;

  10362  2 000152   400000 236003                    LDQ     -131072,DU
         2 000153   000013 256000 xsym               ORSQ    COMCOM+11
         2 000154   000513 710000 2                  TRA     s:10503

      221    10363    2         CASE(%OPT_CHECK);

      222    10364    2           COMCOM.OB.CHECK = TRUE;

  10364  2 000155   400000 236003                    LDQ     -131072,DU
         2 000156   000072 256000 xsym               ORSQ    COMCOM+58
         2 000157   000513 710000 2                  TRA     s:10503

      223    10365    2         CASE(%OPT_CLIST);

      224    10366    2           COMCOM.OB.CLIST = TRUE;

  10366  2 000160   400000 236003                    LDQ     -131072,DU
         2 000161   000044 256000 xsym               ORSQ    COMCOM+36
         2 000162   000513 710000 2                  TRA     s:10503

      225    10367    2         CASE(%OPT_COBOL_74);

      226    10368    2           COMCOM.OB.COBOL_74 = TRUE;

  10368  2 000163   400000 236003                    LDQ     -131072,DU
         2 000164   000015 256000 xsym               ORSQ    COMCOM+13
         2 000165   000513 710000 2                  TRA     s:10503

      227    10369    2         CASE(%OPT_CONTINUE);

      228    10370    2           COMCOM.OB.CONTINUE = TRUE;

  10370  2 000166   400000 236003                    LDQ     -131072,DU
PL6.E3A0      #002=Z9BO$NON_STANDARD_OPTION File=Z9BO.:Z8A6TSI                   SAT 08/09/97 13:42 Page:38
         2 000167   000100 256000 xsym               ORSQ    COMCOM+64
         2 000170   000513 710000 2                  TRA     s:10503

      229    10371    2         CASE(%OPT_COUNT);

      230    10372    2           COMCOM.OB.COUNT = TRUE;

  10372  2 000171   400000 236003                    LDQ     -131072,DU
         2 000172   000112 756000 xsym               STQ     COMCOM+74
         2 000173   000513 710000 2                  TRA     s:10503

      231    10373    2         CASE(%OPT_DPS8);

      232    10374    2           COMCOM.OB.DPS88 = FALSE;

  10374  2 000174   000000 236000 3                  LDQ     0
         2 000175   000111 356000 xsym               ANSQ    COMCOM+73

      233    10375    2           COMCOM.OB.ELS   = FALSE;

  10375  2 000176   000026 356000 xsym               ANSQ    COMCOM+22

      234    10376    2           COMCOM.PLATFORM = TRUE;

  10376  2 000177   400000 236003                    LDQ     -131072,DU
         2 000200   000452 756000 xsym               STQ     COMCOM+298
         2 000201   000513 710000 2                  TRA     s:10503

      235    10377    2         CASE(%OPT_DPS88);

      236    10378    2           COMCOM.OB.DPS88 = TRUE;

  10378  2 000202   400000 236003                    LDQ     -131072,DU
         2 000203   000111 256000 xsym               ORSQ    COMCOM+73

      237    10379    2           COMCOM.OB.ELS   = TRUE;

PL6.E3A0      #002=Z9BO$NON_STANDARD_OPTION File=Z9BO.:Z8A6TSI                   SAT 08/09/97 13:42 Page:39
  10379  2 000204   000026 256000 xsym               ORSQ    COMCOM+22

      238    10380    2           COMCOM.PLATFORM = TRUE;

  10380  2 000205   000452 756000 xsym               STQ     COMCOM+298
         2 000206   000513 710000 2                  TRA     s:10503

      239    10381    2         CASE(%OPT_DPS90,%OPT_DPS8000,%OPT_DPS9000);

      240    10382    2           COMCOM.OB.DPS88 = FALSE;

  10382  2 000207   000000 236000 3                  LDQ     0
         2 000210   000111 356000 xsym               ANSQ    COMCOM+73

      241    10383    2           COMCOM.OB.ELS = TRUE;

  10383  2 000211   400000 236003                    LDQ     -131072,DU
         2 000212   000026 256000 xsym               ORSQ    COMCOM+22

      242    10384    2           COMCOM.PLATFORM = TRUE;

  10384  2 000213   000452 756000 xsym               STQ     COMCOM+298
         2 000214   000513 710000 2                  TRA     s:10503

      243    10385    2         CASE(%OPT_DSE);

      244    10386    2           COMCOM.OB.DSE = TRUE;

  10386  2 000215   400000 236003                    LDQ     -131072,DU
         2 000216   000023 256000 xsym               ORSQ    COMCOM+19
         2 000217   000513 710000 2                  TRA     s:10503

      245    10387    2         CASE(%OPT_ERRLIM);

      246    10388    2           CALL CHARBIN(COMCOM.ERRLIM, SUBSTR(BLK$->OUT$BLK.SUBLK$(0)->

  10388  2 000220   300003 474500                    LDP4    3,,PR3
PL6.E3A0      #002=Z9BO$NON_STANDARD_OPTION File=Z9BO.:Z8A6TSI                   SAT 08/09/97 13:42 Page:40
         2 000221   400004 236100                    LDQ     4,,PR4
         2 000222   000033 772000                    QRL     27
         2 000223   000077 116007                    CMPQ    63,DL
         2 000224   000230 602000 2                  TNC     s:10388+8
         2 000225   000230 600000 2                  TZE     s:10388+8
         2 000226   000000 621006                    EAX1    0,QL
         2 000227   000077 236007                    LDQ     63,DL
         2 000230   000000 621006                    EAX1    0,QL
         2 000231   000000 305540                    DTB
         2 000232   400004 230011                    NDSC9   4,,PR4                   cn=1,s=nosgn,sf=0,n=*X1
         2 000233   000474 000004 xsym               NDSC9   COMCOM+316               cn=0,s=lsgnf,sf=0,n=4
         2 000234   000513 710000 2                  TRA     s:10503

      247    10389    2               OUT$SYM.TEXT,
      248    10390    2               0, MINIMUM(63, BLK$->OUT$BLK.SUBLK$(0)->OUT$SYM.COUNT)));
      249    10391    2         CASE(%OPT_FORMAT);

      250    10392    2           COMCOM.OB.FORMAT = TRUE;

  10392  2 000235   400000 236003                    LDQ     -131072,DU
         2 000236   000030 256000 xsym               ORSQ    COMCOM+24
         2 000237   000513 710000 2                  TRA     s:10503

      251    10393    2         CASE(%OPT_HEX);

      252    10394    2           COMCOM.OB.HEX = TRUE;

  10394  2 000240   400000 236003                    LDQ     -131072,DU
         2 000241   000027 256000 xsym               ORSQ    COMCOM+23
         2 000242   000513 710000 2                  TRA     s:10503

      253    10395    2         CASE(%OPT_HL);

      254    10396    2           COMCOM.OB.FIPS.LEVEL = %HIGH_LEV;

  10396  2 000243   000001 221003                    LDX1    1,DU
         2 000244   000036 441000 xsym               SXL1    COMCOM+30
PL6.E3A0      #002=Z9BO$NON_STANDARD_OPTION File=Z9BO.:Z8A6TSI                   SAT 08/09/97 13:42 Page:41
         2 000245   000513 710000 2                  TRA     s:10503

      255    10397    2         CASE(%OPT_IBM);

      256    10398    2           COMCOM.OB.IBM = TRUE;

  10398  2 000246   400000 236003                    LDQ     -131072,DU
         2 000247   000032 256000 xsym               ORSQ    COMCOM+26
         2 000250   000513 710000 2                  TRA     s:10503

      257    10399    2         CASE(%OPT_IDSLIST);

      258    10400    2           COMCOM.OB.IDSLIST = TRUE;

  10400  2 000251   400000 236003                    LDQ     -131072,DU
         2 000252   000033 256000 xsym               ORSQ    COMCOM+27
         2 000253   000513 710000 2                  TRA     s:10503

      259    10401    2         CASE(%OPT_IL);

      260    10402    2           COMCOM.OB.FIPS.LEVEL = %INT_LEV;

  10402  2 000254   000002 221003                    LDX1    2,DU
         2 000255   000036 441000 xsym               SXL1    COMCOM+30
         2 000256   000513 710000 2                  TRA     s:10503

      261    10403    2         CASE(%OPT_INITIAL);

      262    10404    2           COMCOM.OB.INITIAL = TRUE;

  10404  2 000257   400000 236003                    LDQ     -131072,DU
         2 000260   000021 256000 xsym               ORSQ    COMCOM+17
         2 000261   000513 710000 2                  TRA     s:10503

      263    10405    2         CASE(%OPT_IT);

      264    10406    2           COMCOM.OB.IT = TRUE;
PL6.E3A0      #002=Z9BO$NON_STANDARD_OPTION File=Z9BO.:Z8A6TSI                   SAT 08/09/97 13:42 Page:42

  10406  2 000262   400000 236003                    LDQ     -131072,DU
         2 000263   000104 256000 xsym               ORSQ    COMCOM+68
         2 000264   000513 710000 2                  TRA     s:10503

      265    10407    2         CASE(%OPT_LEXEMES);

      266    10408    2           COMCOM.OB.LEXEMES = TRUE;

  10408  2 000265   400000 236003                    LDQ     -131072,DU
         2 000266   000076 256000 xsym               ORSQ    COMCOM+62
         2 000267   000513 710000 2                  TRA     s:10503

      267    10409    2         CASE(%OPT_LIST);

      268    10410    2           COMCOM.OB.LISTIN = TRUE;

  10410  2 000270   400000 236003                    LDQ     -131072,DU
         2 000271   000040 256000 xsym               ORSQ    COMCOM+32

      269    10411    2           COMCOM.OB.LISTOUT.CODE = TRUE;

  10411  2 000272   000041 256000 xsym               ORSQ    COMCOM+33

      270    10412    2           COMCOM.OB.XREF = TRUE;

  10412  2 000273   000055 256000 xsym               ORSQ    COMCOM+45
         2 000274   000513 710000 2                  TRA     s:10503

      271    10413    2         CASE(%OPT_LISTOUT);

      272    10414    2           IF BLK$ -> OUT$BLK.NSUBLKS > 0 THEN

  10414  2 000275   300001 221100                    LDX1    1,,PR3
         2 000276   000321 600000 2                  TZE     s:10423

      273    10415    3             DO CASE(BLK$ -> OUT$BLK.SUBLK$(0) -> OUT$BLK.CODE);
PL6.E3A0      #002=Z9BO$NON_STANDARD_OPTION File=Z9BO.:Z8A6TSI                   SAT 08/09/97 13:42 Page:43

  10415  2 000277   300003 474500                    LDP4    3,,PR3
         2 000300   400000 236100                    LDQ     0,,PR4
         2 000301   777777 376007                    ANQ     -1,DL
         2 000302   000013 136007                    SBLQ    11,DL
         2 000303   000005 116007                    CMPQ    5,DL
         2 000304   000306 602006 2                  TNC     s:10415+7,QL
         2 000305   000513 710000 2                  TRA     s:10503
         2 000306   000313 710000 2                  TRA     s:10417
         2 000307   000320 710000 2                  TRA     s:10420
         2 000310   000320 710000 2                  TRA     s:10420
         2 000311   000320 710000 2                  TRA     s:10420
         2 000312   000316 710000 2                  TRA     s:10419

      274    10416    3               CASE(%OPT_CODE);

      275    10417    3                 COMCOM.OB.LISTOUT.CODE = TRUE;

  10417  2 000313   400000 236003                    LDQ     -131072,DU
         2 000314   000041 256000 xsym               ORSQ    COMCOM+33
         2 000315   000513 710000 2                  TRA     s:10503

      276    10418    3               CASE(%OPT_DATA);

      277    10419    3                 COMCOM.OB.LISTOUT.DATA = TRUE;

  10419  2 000316   200000 236003                    LDQ     65536,DU
         2 000317   000041 256000 xsym               ORSQ    COMCOM+33

      278    10420    3             END;

  10420  2 000320   000513 710000 2                  TRA     s:10503

      279    10421    2           ELSE
      280    10422    3             DO;

      281    10423    3               COMCOM.OB.LISTOUT.CODE = TRUE;
PL6.E3A0      #002=Z9BO$NON_STANDARD_OPTION File=Z9BO.:Z8A6TSI                   SAT 08/09/97 13:42 Page:44

  10423  2 000321   400000 236003                    LDQ     -131072,DU
         2 000322   000041 256000 xsym               ORSQ    COMCOM+33

      282    10424    3               COMCOM.OB.LISTOUT.DATA = TRUE;

  10424  2 000323   200000 236003                    LDQ     65536,DU
         2 000324   000041 256000 xsym               ORSQ    COMCOM+33

      283    10425    3             END;

  10425  2 000325   000513 710000 2                  TRA     s:10503

      284    10426    2         CASE(%OPT_LL);

      285    10427    2           COMCOM.OB.FIPS.LEVEL = %LOW_LEV;

  10427  2 000326   000003 221003                    LDX1    3,DU
         2 000327   000036 441000 xsym               SXL1    COMCOM+30
         2 000330   000513 710000 2                  TRA     s:10503

      286    10428    2         CASE(%OPT_LU);

      287    10429    2           COMCOM.OB.LU = TRUE;

  10429  2 000331   400000 236003                    LDQ     -131072,DU
         2 000332   000017 256000 xsym               ORSQ    COMCOM+15
         2 000333   000513 710000 2                  TRA     s:10503

      288    10430    2         CASE(%OPT_MAP);

      289    10431    2           COMCOM.OB.MAP = TRUE;

  10431  2 000334   400000 236003                    LDQ     -131072,DU
         2 000335   000042 256000 xsym               ORSQ    COMCOM+34

      290    10432    2           COMCOM.OB.LISTIN = TRUE;
PL6.E3A0      #002=Z9BO$NON_STANDARD_OPTION File=Z9BO.:Z8A6TSI                   SAT 08/09/97 13:42 Page:45

  10432  2 000336   000040 256000 xsym               ORSQ    COMCOM+32
         2 000337   000513 710000 2                  TRA     s:10503

      291    10433    2         CASE(%OPT_N6UPD);

      292    10434    2           COMCOM.OB.N6UPD = TRUE;

  10434  2 000340   400000 236003                    LDQ     -131072,DU
         2 000341   000117 256000 xsym               ORSQ    COMCOM+79
         2 000342   000513 710000 2                  TRA     s:10503

      293    10435    2         CASE(%OPT_NOCANCEL);

      294    10436    2           COMCOM.OB.NOCANCEL = TRUE;

  10436  2 000343   400000 236003                    LDQ     -131072,DU
         2 000344   000063 256000 xsym               ORSQ    COMCOM+51
         2 000345   000513 710000 2                  TRA     s:10503

      295    10437    2         CASE(%OPT_NOPTZ);

      296    10438    2           COMCOM.OB.OPTZ = FALSE;

  10438  2 000346   000000 236000 3                  LDQ     0
         2 000347   000014 356000 xsym               ANSQ    COMCOM+12
         2 000350   000513 710000 2                  TRA     s:10503

      297    10439    2         CASE(%OPT_NRESET);

      298    10440    2           COMCOM.OB.NRESET = TRUE;

  10440  2 000351   400000 236003                    LDQ     -131072,DU
         2 000352   000046 256000 xsym               ORSQ    COMCOM+38
         2 000353   000513 710000 2                  TRA     s:10503

      299    10441    2         CASE(%OPT_OPTZ);
PL6.E3A0      #002=Z9BO$NON_STANDARD_OPTION File=Z9BO.:Z8A6TSI                   SAT 08/09/97 13:42 Page:46

      300    10442    2           COMCOM.OB.OPTZ = TRUE;

  10442  2 000354   400000 236003                    LDQ     -131072,DU
         2 000355   000014 256000 xsym               ORSQ    COMCOM+12
         2 000356   000513 710000 2                  TRA     s:10503

      301    10443    2         CASE(%OPT_OBS);

      302    10444    2           COMCOM.OB.FIPS.OBS = TRUE;

  10444  2 000357   400000 236003                    LDQ     -131072,DU
         2 000360   000036 256000 xsym               ORSQ    COMCOM+30
         2 000361   000513 710000 2                  TRA     s:10503

      303    10445    2         CASE(%OPT_O1DUMP);

      304    10446    2           COMCOM.OB.O1DUMP = TRUE;

  10446  2 000362   400000 236003                    LDQ     -131072,DU
         2 000363   000056 256000 xsym               ORSQ    COMCOM+46
         2 000364   000513 710000 2                  TRA     s:10503

      305    10447    2         CASE(%OPT_O2DUMP);

      306    10448    2           COMCOM.OB.O2DUMP = TRUE;

  10448  2 000365   400000 236003                    LDQ     -131072,DU
         2 000366   000057 256000 xsym               ORSQ    COMCOM+47
         2 000367   000513 710000 2                  TRA     s:10503

      307    10449    2         CASE(%OPT_O3DUMP);

      308    10450    2           COMCOM.OB.O3DUMP = TRUE;

  10450  2 000370   400000 236003                    LDQ     -131072,DU
         2 000371   000060 256000 xsym               ORSQ    COMCOM+48
PL6.E3A0      #002=Z9BO$NON_STANDARD_OPTION File=Z9BO.:Z8A6TSI                   SAT 08/09/97 13:42 Page:47
         2 000372   000513 710000 2                  TRA     s:10503

      309    10451    2         CASE(%OPT_O4DUMP);

      310    10452    2           COMCOM.OB.O4DUMP = TRUE;

  10452  2 000373   400000 236003                    LDQ     -131072,DU
         2 000374   000061 256000 xsym               ORSQ    COMCOM+49
         2 000375   000513 710000 2                  TRA     s:10503

      311    10453    2         CASE(%OPT_OBJ);

      312    10454    2           COMCOM.OB.OBJ = TRUE;

  10454  2 000376   400000 236003                    LDQ     -131072,DU
         2 000377   000102 256000 xsym               ORSQ    COMCOM+66

      313    10455    2           COMCOM.OB.O4DUMP = TRUE;

  10455  2 000400   000061 256000 xsym               ORSQ    COMCOM+49
         2 000401   000513 710000 2                  TRA     s:10503

      314    10456    2         CASE(%OPT_PARAM);

      315    10457    2           COMCOM.OB.PARAMETER_CHECK = TRUE;

  10457  2 000402   400000 236003                    LDQ     -131072,DU
         2 000403   000115 256000 xsym               ORSQ    COMCOM+77
         2 000404   000513 710000 2                  TRA     s:10503

      316    10458    2         CASE(%OPT_RESEQ);

      317    10459    2           COMCOM.OB.RESEQ = TRUE;

  10459  2 000405   400000 236003                    LDQ     -131072,DU
         2 000406   000051 256000 xsym               ORSQ    COMCOM+41
         2 000407   000513 710000 2                  TRA     s:10503
PL6.E3A0      #002=Z9BO$NON_STANDARD_OPTION File=Z9BO.:Z8A6TSI                   SAT 08/09/97 13:42 Page:48

      318    10460    2         CASE(%OPT_RPW);

      319    10461    2           COMCOM.OB.FIPS.RPW = TRUE;

  10461  2 000410   040000 236003                    LDQ     16384,DU
         2 000411   000036 256000 xsym               ORSQ    COMCOM+30
         2 000412   000513 710000 2                  TRA     s:10503

      320    10462    2         CASE(%OPT_SEG1);

      321    10463    2           COMCOM.OB.FIPS.SEG1 = TRUE;

  10463  2 000413   200000 236003                    LDQ     65536,DU
         2 000414   000036 256000 xsym               ORSQ    COMCOM+30

      322    10464    2           COMCOM.OB.FIPS.SEG2 = TRUE;

  10464  2 000415   100000 236003                    LDQ     32768,DU
         2 000416   000036 256000 xsym               ORSQ    COMCOM+30
         2 000417   000513 710000 2                  TRA     s:10503

      323    10465    2         CASE(%OPT_SEG2);

      324    10466    2           COMCOM.OB.FIPS.SEG2 = TRUE;

  10466  2 000420   100000 236003                    LDQ     32768,DU
         2 000421   000036 256000 xsym               ORSQ    COMCOM+30
         2 000422   000513 710000 2                  TRA     s:10503

      325    10467    2         CASE(%OPT_STATS);

      326    10468    2           COMCOM.OB.STATS = TRUE;

  10468  2 000423   400000 236003                    LDQ     -131072,DU
         2 000424   000052 256000 xsym               ORSQ    COMCOM+42
         2 000425   000513 710000 2                  TRA     s:10503
PL6.E3A0      #002=Z9BO$NON_STANDARD_OPTION File=Z9BO.:Z8A6TSI                   SAT 08/09/97 13:42 Page:49

      327    10469    2         CASE(%OPT_SUB);

      328    10470    2           COMCOM.OB.SUB = TRUE;

  10470  2 000426   400000 236003                    LDQ     -131072,DU
         2 000427   000062 256000 xsym               ORSQ    COMCOM+50
         2 000430   000513 710000 2                  TRA     s:10503

      329    10471    2         CASE(%OPT_SUBCHK);

      330    10472    2           COMCOM.OB.SUBCHK = TRUE;

  10472  2 000431   400000 236003                    LDQ     -131072,DU
         2 000432   000020 256000 xsym               ORSQ    COMCOM+16
         2 000433   000513 710000 2                  TRA     s:10503

      331    10473    2         CASE(%OPT_SV1);

      332    10474    2           COMCOM.OB.INFO = TRUE;

  10474  2 000434   400000 236003                    LDQ     -131072,DU
         2 000435   000034 256000 xsym               ORSQ    COMCOM+28
         2 000436   000513 710000 2                  TRA     s:10503

      333    10475    2         CASE(%OPT_SV2);

      334    10476    2           COMCOM.OB.SV5 = FALSE;

  10476  2 000437   000000 236000 3                  LDQ     0
         2 000440   000071 356000 xsym               ANSQ    COMCOM+57
         2 000441   000513 710000 2                  TRA     s:10503

      335    10477    2         CASE(%OPT_SV3);

      336    10478    2           COMCOM.OB.SV3 = TRUE;

PL6.E3A0      #002=Z9BO$NON_STANDARD_OPTION File=Z9BO.:Z8A6TSI                   SAT 08/09/97 13:42 Page:50
  10478  2 000442   400000 236003                    LDQ     -131072,DU
         2 000443   000047 256000 xsym               ORSQ    COMCOM+39
         2 000444   000513 710000 2                  TRA     s:10503

      337    10479    2         CASE(%OPT_SV4);

      338    10480    2           COMCOM.OB.SV4 = TRUE;

  10480  2 000445   400000 236003                    LDQ     -131072,DU
         2 000446   000070 256000 xsym               ORSQ    COMCOM+56
         2 000447   000513 710000 2                  TRA     s:10503

      339    10481    2         CASE(%OPT_SV5);

      340    10482    2           COMCOM.OB.SV5 = TRUE;

  10482  2 000450   400000 236003                    LDQ     -131072,DU
         2 000451   000071 256000 xsym               ORSQ    COMCOM+57
         2 000452   000513 710000 2                  TRA     s:10503

      341    10483    2         CASE(%OPT_TP);

      342    10484    2           COMCOM.OB.TP = TRUE;

  10484  2 000453   400000 236003                    LDQ     -131072,DU
         2 000454   000053 256000 xsym               ORSQ    COMCOM+43
         2 000455   000513 710000 2                  TRA     s:10503

      343    10485    2         CASE(%OPT_TREE);

      344    10486    2           COMCOM.TREE_LINE = SUBSTR(BLK$ -> OUT$BLK.SUBLK$(0) ->

  10486  2 000456   300003 474500                    LDP4    3,,PR3
         2 000457   400004 236100                    LDQ     4,,PR4
         2 000460   000033 772000                    QRL     27
         2 000461   000117 116007                    CMPQ    79,DL
         2 000462   000466 602000 2                  TNC     s:10486+8
PL6.E3A0      #002=Z9BO$NON_STANDARD_OPTION File=Z9BO.:Z8A6TSI                   SAT 08/09/97 13:42 Page:51
         2 000463   000466 600000 2                  TZE     s:10486+8
         2 000464   000000 621006                    EAX1    0,QL
         2 000465   000117 236007                    LDQ     79,DL
         2 000466   000000 621006                    EAX1    0,QL
         2 000467   040000 100540                    MLR     fill='040'O
         2 000470   400004 200011                    ADSC9   4,,PR4                   cn=1,n=*X1
         2 000471   000376 000124 xsym               ADSC9   COMCOM+254               cn=0,n=84
         2 000472   000513 710000 2                  TRA     s:10503

      345    10487    2                            OUT$SYM.TEXT, 0,
      346    10488    2                            MINIMUM(79, BLK$ ->
      347    10489    2                            OUT$BLK.SUBLK$(0) -> OUT$SYM.COUNT));
      348    10490    2         CASE(%OPT_TSS);

      349    10491    2           COMCOM.OB.TSS = TRUE;

  10491  2 000473   400000 236003                    LDQ     -131072,DU
         2 000474   000054 256000 xsym               ORSQ    COMCOM+44
         2 000475   000513 710000 2                  TRA     s:10503

      350    10492    2         CASE(%OPT_NDATA);

      351    10493    2           COMCOM.OB.LO.DATA = FALSE;

  10493  2 000476   000001 236000 3                  LDQ     1
         2 000477   000101 356000 xsym               ANSQ    COMCOM+65

      352    10494    2           COMCOM.OB.LISTOUT.DATA = FALSE;

  10494  2 000500   000041 356000 xsym               ANSQ    COMCOM+33
         2 000501   000513 710000 2                  TRA     s:10503

      353    10495    2         CASE(%OPT_NLISTOUT);

      354    10496    2           COMCOM.OB.LISTOUT = '0'B;

  10496  2 000502   000041 450000 xsym               STZ     COMCOM+33
PL6.E3A0      #002=Z9BO$NON_STANDARD_OPTION File=Z9BO.:Z8A6TSI                   SAT 08/09/97 13:42 Page:52
         2 000503   000513 710000 2                  TRA     s:10503

      355    10497    2         CASE(%OPT_VIRTUAL);

      356    10498    2           COMCOM.OB.VIRTUAL = TRUE;

  10498  2 000504   400000 236003                    LDQ     -131072,DU
         2 000505   000110 256000 xsym               ORSQ    COMCOM+72
         2 000506   000513 710000 2                  TRA     s:10503

      357    10499    2         CASE(ELSE);

      358    10500    2           CALL Z8AE$ERROR(%E$UNEXPECTED_CASE);

  10500  2 000507   000004 630400 3                  EPPR0   4
         2 000510   000002 631400 3                  EPPR1   2
         2 000511   000000 701000 xent               TSX1    Z8AE$ERROR
         2 000512   000000 011000                    NOP     0

      359    10501    2       END;  /* CASE(BLK$->OUT$BLK.CODE) */

      360    10502
      361    10503    1   END Z9BO$NON_STANDARD_OPTION;

  10503  2 000513   000000 702200 xent               TSX2  ! X66_ARET

PL6.E3A0      #002=Z9BO$NON_STANDARD_OPTION File=Z9BO.:Z8A6TSI                   SAT 08/09/97 13:42 Page:53
--  Include file information  --

   XU_MACRO_C.:LIB_E04  is referenced.
   CP_6_C.:LIB_E04  is referenced.
   CP_6.:LIB_E04  cannot be made into a system file and is referenced.
   Z8A_ERR_NUMS.:Z8A6TOU  is referenced.
   Z9B_OPTS.:Z8A6TOU  is referenced.
   Z8A_COMCOM.:Z8A6TOU  cannot be made into a system file and is referenced.
   Z8A_DEFC.:Z8A6TOU  cannot be made into a system file and is referenced.
      No diagnostics issued in procedure Z9BO$NON_STANDARD_OPTION.
PL6.E3A0      #002=Z9BO$NON_STANDARD_OPTION File=Z9BO.:Z8A6TSI                   SAT 08/09/97 13:42 Page:54

 **** Variables and constants ****

  ****  Section 000 LblCom ITERATION

  ****  Scalars and arrays  ****
OctLoc.c.b A Datatyp(siz) R M Lvl/name                 OctLoc.c.b A Datatyp(siz) R M Lvl/name

     0-0-0/w SBIN              1 ITERATION

  ****  Auto variables  ****

  ****  Scalars and arrays  ****
OctLoc.c.b A Datatyp(siz) R M Lvl/name                 OctLoc.c.b A Datatyp(siz) R M Lvl/name

     3-0-0/w PTR         r     1 @BLK$                      4-0-0/w PTR         r     1 @ERRFLAG
    *0-0-0/w PTR         r     1 BLK$                      *0-0-0/w BIT         r     1 ERRFLAG
     5-0-0/w SBIN              1 I

  ****  SYMREF variables  ****

  ****  Scalars and arrays  ****
OctLoc.c.b A Datatyp(siz) R M Lvl/name                 OctLoc.c.b A Datatyp(siz) R M Lvl/name

     0-0-0/d STRC(13248) r     1 COMCOM

  ****  BASED and DCB variables  ****

  ****  Scalars and arrays  ****
OctLoc.c.b A Datatyp(siz) R M Lvl/name                 OctLoc.c.b A Datatyp(siz) R M Lvl/name

     0-0-0/w CHAR(4096)        1 CHARS                      0-0-0/w STRC(72)          1 CONT
     0-0-0N  NULL        r     1 M$UC                       0-0-0/w STRC(144)   r     1 OUT$BLK
     0-0-0/w ASTR(153)   r     1 OUT$SYM                    0-0-0/w STRC(36864)       1 PAGE


   Procedure Z9BO$NON_STANDARD_OPTION requires 332 words for executable code.
PL6.E3A0      #002=Z9BO$NON_STANDARD_OPTION File=Z9BO.:Z8A6TSI                   SAT 08/09/97 13:42 Page:55
   Procedure Z9BO$NON_STANDARD_OPTION requires 6 words of local(AUTO) storage.

    No errors detected in file Z9BO.:Z8A6TSI    .
