PL6.E3A0      #001=Z9EB$DML_USE File=Z9EB.:Z8A6TSI                               SAT 08/09/97 13:43 Page:1
        1        1        /*M* Z8EB_SI -  Data division module for COBOL-E  DML/IDS II. */
        2        2        /*T***********************************************************/
        3        3        /*T*                                                         */
        4        4        /*T* Copyright (c) Bull HN Information Systems Inc., 1997    */
        5        5        /*T*                                                         */
        6        6        /*T***********************************************************/
        7        7        /*P*
        8        8             NAME: Z8EB_SI
        9        9             PURPOSE:
       10       10                   Builds calls to the IDS routines for DML statements.
       11       11             DESCRIPTION:
       12       12                    Checks for statement errors, builds RVA table and USEP
       13       13                    table, builds parameter lists for calls to IDS routines.
       14       14        */
       15       15        /*F*
       16       16             NAME: Z9EB$DML_USE
       17       17             PURPOSE:
       18       18                    Process the DML USE statement.
       19       19             DESCRIPTION:
       20       20                   Builds the USEP table for USE for DB-EXCEPTION and USE for
       21       21                   PRIVACY.
       22       22        */
       23       23        /*D*
       24       24             NAME: Z9EB$DML_USE
       25       25             CALL:
       26       26                   CALL Z9EB$DML_USE ( LIST$, STATEMENT_TYPE, USE_SECT$, USE_TYPE);
       27       27             PARAMETERS:
       28       28                   LIST$  - Pointer to lx list of status codes or privacy on words
       29       29                   STATEMENT_TYPE   - Type of DB-EXCEPTION
       30       30                   USE_SECT$  - Pointer to use section
       31       31                   USE_TYPE  - Type of USE statement
       32       32             INTERFACE:
       33       33                   Z8AE$ERROR
       34       34                   Z8EC$NEW_CONST_WITH_TYPE_DESC
       35       35                   Z9EB$BUILD_RVA_TABLE
       36       36
       37       37             ENVIRONMENT:
PL6.E3A0      #001=Z9EB$DML_USE File=Z9EB.:Z8A6TSI                               SAT 08/09/97 13:43 Page:2
       38       38                  None.
       39       39             INPUT:
       40       40                   LIST$
       41       41                   STATEMENT_TYPE
       42       42                   USE_SECT$
       43       43                   USE_TYPE
       44       44
       45       45             OUTPUT:
       46       46                   None.
       47       47
       48       48             DESCRIPTION:
       49       49                    Z9EB$DML_USE tests for PRIVACY or DB-EXCEPTION and
       50       50                    goes to the appropiate internal routines.
       51       51        */
       52       52        /*===========*/
       53       53          Z9EB$DML_USE : PROC (LIST$,STATEMENT_TYPE,USE_SECT$,USE_TYPE);
       54       54        /*============*/
       55       55
       56       56    1       DCL  LIST$    PTR;
       57       57    1       DCL STATEMENT_TYPE      SBIN;
       58       58    1       DCL  USE_SECT$   PTR;
       59       59    1       DCL  USE_TYPE    SBIN;
       60       60
       61       61            %EQU PHASE = 1;
       62       62            %INCLUDE Z8A_DEFC;
       63      130            %INCLUDE Z8A_SUPP_MAC;
       64     2530            %INCLUDE Z8A_COMCOM;
       65     3180            %INCLUDE Z8E_STACKS;
       66     5446            %INCLUDE Z8E_O1COM;
       67     6207            %INCLUDE Z8E_MACROS;
       68     6882            %INCLUDE Z8A_ERR_NUMS;
       69     7646            %INCLUDE Z8A_DNT;
       70     7867            %INCLUDE Z8A_ST;
       71    11526            %INCLUDE Z8A_TYPES;
       72    11700            %INCLUDE Z8A_ETT;
       73    12001            %INCLUDE Z8A_ILL;
       74    12694            %INCLUDE Z8A_LTS;
PL6.E3A0      #001=Z9EB$DML_USE File=Z9EB.:Z8A6TSI                               SAT 08/09/97 13:43 Page:3
       75    14771            %INCLUDE Z8E_DML;
       76    14891            %INCLUDE Z8E_WINDOW;
       77    16961
       78    16962    1       DCL Z8AE$ERROR  ENTRY(12);
       79    16963    1       DCL Z8EC$NEW_CONST_WITH_TYPE_DESC   ENTRY(3)  ALTRET;
       80    16964    1       DCL Z9EB$BUILD_RVA_TABLE   ENTRY(2);
       81    16965         %EJECT;
PL6.E3A0      #001=Z9EB$DML_USE File=Z9EB.:Z8A6TSI                               SAT 08/09/97 13:43 Page:4
       82    16966        /*----------------*/
       83    16967    1     BUILD_USEP_TABLE : PROC ( UCW_CONST);
       84    16968        /*----------------*/
       85    16969        /*I*
       86    16970             NAME: BUILD_USEP_TABLE
       87    16971             PURPOSE:
       88    16972                   Preoffs and ptr_sets items into the USEP table.
       89    16973             CALL:
       90    16974                   CALL BUILD_USEP_TABLE ( UCW_CONST );
       91    16975             PARAMETERS:
       92    16976                     UCW_CONST - Word constant describing the specific use
       93    16977             DATA:
       94    16978                     O1COM.USEP$  - Pointer to USEP table
       95    16979                     O1COM.USEP_NUMBER - Number of entries into table
       96    16980             DESCRIPTION:
       97    16981                    BUILD_USEP_TABLE  creates ILLs that preoff the constant
       98    16982                    and ptr_set the use section into the USEP table.  It
       99    16983                    also updates the table entry count.
      100    16984        */
      101    16985    2       DCL UCW_CONST   SBIN WORD;
      102    16986    2       DCL USEP_LENGTH UBIN WORD STATIC INIT(1);
      103    16987        %EJECT;
PL6.E3A0      #001=Z9EB$DML_USE File=Z9EB.:Z8A6TSI                               SAT 08/09/97 13:43 Page:5
      104    16988            %NEW_CONST ( @ST$ = ST$);
      105    17029    2       ST$ -> CONST.CONSTI.WORD1 = UCW_CONST;
      106    17030
      107    17031            %NEW_ILL( @ID = %PREOFF,
      108    17032                      @LOP  = O1COM.USEP$,
      109    17033                      @ROP  = ST$,
      110    17034                      @N    = 1,
      111    17035                      @OFFSET = USEP_LENGTH);
      112    17414
      113    17415    2       USEP_LENGTH = USEP_LENGTH + 1;
      114    17416            %NEW_ILL( @ID   = %P_A_PRESET,
      115    17417                      @OFFSET = USEP_LENGTH,
      116    17418                      @TO   = O1COM.USEP$,
      117    17419                      @ROPCON = 0,
      118    17420                      @LOP  = USE_SECT$);
      119    17799
      120    17800    2       O1COM.USEP_NUMBER = O1COM.USEP_NUMBER + 1;
      121    17801    2       USEP_LENGTH = USEP_LENGTH + 1;
      122    17802                 /*V*  USEP_LENGTH IS INCREMENTED BY 1  */
      123    17803                 /*V*  AFTER EACH ILL BECAUSE A LENGTH  */
      124    17804                 /*V*  OF 1 HAS A ZERO OFFSET.          */
      125    17805            %NEW_USE_LTS ( @POINTER = LTS$);
      126    17911    2       LTS$ -> USE.PROC_CHAIN$ = COMCOM.USE_PROC_CHAIN$;
      127    17912    2       LTS$ -> USE.PROC_LABEL$ = USE_SECT$;
      128    17913    2       COMCOM.USE_PROC_CHAIN$ = LTS$;
      129    17914
      130    17915    2   END BUILD_USEP_TABLE;
      131    17916        %EJECT;
PL6.E3A0      #001=Z9EB$DML_USE File=Z9EB.:Z8A6TSI                               SAT 08/09/97 13:43 Page:6
      132    17917        /*----------------*/
      133    17918    1     USE_DB_STATEMENT : PROC ;
      134    17919        /*----------------*/
      135    17920        /*I*
      136    17921             NAME: USE_DB_STATEMENT
      137    17922             PURPOSE:
      138    17923                   Sets up constant for DB-EXCEPTION and checks for errors
      139    17924             CALL:
      140    17925                   CALL USE_DB_STATE
      141    17926             DATA:
      142    17927                  None.
      143    17928             DESCRIPTION:
      144    17929                   USE_DB_STATEMENT builds the DB-EXCEPTION words for the
      145    17930                   USEP table.  There are three types of exceptions:  ALL,
      146    17931                   OTHER, and indicator.
      147    17932        */
      148    17933    2       DCL   1   DB_EXCEPTION     STATIC,
      149    17934    2               2   ALL        BOOLEAN,
      150    17935    2               2   OTHER      BOOLEAN,
      151    17936    2               2   INDICATOR  BOOLEAN;
      152    17937    2       DCL  FIRST_DB_EXCEPTION   BOOLEAN  STATIC  INIT(%TRUE);
      153    17938    2       DCL  IDENT$     PTR;
      154    17939    2       DCL  RETURN$    PTR;
      155    17940    2       DCL  UCW_WORD     SBIN  WORD;
      156    17941    2       DCL  1  UCW    REDEF  UCW_WORD,
      157    17942    2               2   TYPE    UNAL UBIN(9),
      158    17943    2               2   STATUS_CODE   UNAL UBIN(27);
      159    17944
      160    17945    2       DCL  ERROR_FLAG     BOOLEAN;
      161    17946    2       DCL  1  TYPE_DESC      ALIGNED,
      162    17947                    %TYPE_DESC;
      163    17981        %EJECT;
PL6.E3A0      #001=Z9EB$DML_USE File=Z9EB.:Z8A6TSI                               SAT 08/09/97 13:43 Page:7
      164    17982    2       UCW.TYPE = 3;
      165    17983    2       IF FIRST_DB_EXCEPTION = %TRUE     THEN      /*V*  Build USEP   */
      166    17984    3        DO;
      167    17985    3           FIRST_DB_EXCEPTION = %FALSE;
      168    17986    3           DB_EXCEPTION.ALL = %FALSE;
      169    17987    3           DB_EXCEPTION.OTHER = %FALSE;
      170    17988    3           DB_EXCEPTION.INDICATOR = %FALSE;
      171    17989    3         END;
      172    17990
      173    17991    3       DO CASE (STATEMENT_TYPE);
      174    17992
      175    17993    3          CASE (%DB_EXCEPTION_ALL);
      176    17994    3               IF (DB_EXCEPTION.ALL = %TRUE) OR (DB_EXCEPTION.OTHER = %TRUE) OR
      177    17995    3            (DB_EXCEPTION.INDICATOR = %TRUE)    THEN
      178    17996    3                   CALL Z8AE$ERROR( %E$DB_EXCEPTION_ALL_ERROR);
      179    17997    3               ELSE
      180    17998    4                 DO;
      181    17999    4                   DB_EXCEPTION.ALL = %TRUE;
      182    18000    4                   UCW.STATUS_CODE = 0;
      183    18001    4                   CALL BUILD_USEP_TABLE(UCW_WORD);
      184    18002    4                 END;
      185    18003
      186    18004    3           CASE (%DB_EXCEPTION_OTHER);
      187    18005
      188    18006    3               IF DB_EXCEPTION.OTHER = %TRUE   THEN
      189    18007    3                   CALL Z8AE$ERROR( %E$DB_EXCEPT_OTHER_ERROR);
      190    18008    3               ELSE
      191    18009    3                   IF DB_EXCEPTION.ALL = %TRUE   THEN
      192    18010    3                       CALL Z8AE$ERROR( %E$DB_EXCEPTION_ALL_ERROR);
      193    18011    3                   ELSE
      194    18012    4                    DO;
      195    18013
      196    18014    4                       DB_EXCEPTION.OTHER = %TRUE;
      197    18015    4                       UCW.STATUS_CODE = 0;
      198    18016    4                       CALL BUILD_USEP_TABLE(UCW_WORD);
      199    18017    4                     END;
      200    18018
PL6.E3A0      #001=Z9EB$DML_USE File=Z9EB.:Z8A6TSI                               SAT 08/09/97 13:43 Page:8
      201    18019    3           CASE (%DB_EXCEPTION_INDICATOR);
      202    18020    3               IF DB_EXCEPTION.ALL = %TRUE    THEN
      203    18021    3                   CALL Z8AE$ERROR(%E$DB_EXCEPTION_ALL_ERROR);
      204    18022    3               ELSE
      205    18023    4                 DO;
      206    18024    4                   IDENT$ = LIST$ -> LX_LIST.HEAD$;
      207    18025
      208    18026    5                   DO WHILE IDENT$ ~= ADDR(NIL);
      209    18027    5                       IF IDENT$ -> LX_TERMINAL.DNT$ -> DNT.B.DUPLICATE = %TRUE   THEN
      210    18028    5                         CALL Z8AE$ERROR( %E$DB_EXCEPT_DUPLICATE,
      211    18029    5                                           IDENT$ -> LX_TERMINAL.LINE,
      212    18030    5                                           IDENT$ -> LX_TERMINAL.COLUMN);
      213    18031    5                       ELSE
      214    18032    6                       DO;
      215    18033    6                         IDENT$ -> LX_TERMINAL.DNT$ -> DNT.B.DUPLICATE = %TRUE;
      216    18034    6                         IF (IDENT$ -> LX_TERMINAL.DNT$ -> DNT.TEXT.LENGTH ~= 9) OR
      217    18035    6                           (IDENT$->LX_TERMINAL.DNT$->DNT.TEXT.NAME='"0000000"') THEN
      218    18036    6                             CALL Z8AE$ERROR( %E$DB_EXCEPT_NOT_VALID,
      219    18037    6                                            IDENT$->LX_TERMINAL.LINE,
      220    18038    6                                         IDENT$->LX_TERMINAL.COLUMN);
      221    18039    6                         ELSE
      222    18040    7                           DO;
      223    18041
      224    18042    7                             DB_EXCEPTION.INDICATOR = %TRUE;
      225    18043    7                             TYPE_DESC.TYPE = %TYI;
      226    18044
      227    18045    7                             CALL Z8EC$NEW_CONST_WITH_TYPE_DESC( TYPE_DESC,
      228    18046    7                                                                 IDENT$,
      229    18047    7                                                                 RETURN$)
      230    18048    7                               WHENALTRETURN
      231    18049    8                               DO;
      232    18050    8                                 ERROR_FLAG = %TRUE;
      233    18051    8                               END;
      234    18052    7                             IF ERROR_FLAG = %TRUE   THEN
      235    18053    7                                 ERROR_FLAG = %FALSE;
      236    18054    7                             ELSE
      237    18055    8                               DO;                     /*V* No error in converstion  */
PL6.E3A0      #001=Z9EB$DML_USE File=Z9EB.:Z8A6TSI                               SAT 08/09/97 13:43 Page:9
      238    18056    8                                 UCW_WORD = RETURN$->ETT.LOP->CONST.CONSTI.WORD1;
      239    18057    8                                 UCW.TYPE = 3;
      240    18058    8                                 CALL BUILD_USEP_TABLE(UCW_WORD);
      241    18059    8                               END;
      242    18060    7                           END;
      243    18061    6                       END;
      244    18062    5                       IDENT$ = IDENT$ -> LX_TERMINAL.LINK;
      245    18063    5                   END;      /*V*  WHILE   */
      246    18064    4                 END;
      247    18065    3       END;        /*V*  CASE STATEMENT_TYPE    */
      248    18066    2   END USE_DB_STATEMENT;
      249    18067        %EJECT;
PL6.E3A0      #001=Z9EB$DML_USE File=Z9EB.:Z8A6TSI                               SAT 08/09/97 13:43 Page:10
      250    18068        /*-----------*/
      251    18069    1     USE_PRIVACY :   PROC ;
      252    18070        /*-----------*/
      253    18071        /*I*
      254    18072             NAME: USE_PRIVACY
      255    18073             PURPOSE:
      256    18074                   Handles the USE for PRIVACY statement
      257    18075             CALL:
      258    18076                   CALL USE_PRIVACY
      259    18077             DATA:
      260    18078                  None.
      261    18079             DESCRIPTION:
      262    18080                     USE_PRIVACY determines what type of privacy phrase the
      263    18081                     statement is.  It can be for field items, records, or sets.
      264    18082                     It makes sure the verb specfied is legal for the type of
      265    18083                     phrase.  Also duplicate conditions are checked for.  It calls
      266    18084                     routines to check for these conditions. The USEP table entry
      267    18085                     is built by this routine.
      268    18086        */
      269    18087    2       DCL WORD_LIST$  PTR;
      270    18088    2       DCL FOR_OPTION$ PTR;
      271    18089    2       DCL WORD$       PTR;
      272    18090    2       DCL PRIVACY_PHRASE$ PTR;
      273    18091    2       DCL HEAD$       PTR;
      274    18092    2       DCL IDENT_ST$   PTR;
      275    18093    2       DCL IDENT$      PTR;
      276    18094    2       DCL RVA_TYPE    UBIN(18);
      277    18095    2       DCL VERB_COPY    UBIN(7);
      278    18096
      279    18097    2       DCL DUPLICATE_FLAG  BOOLEAN;
      280    18098    2       DCL VERB        UBIN(7);
      281    18099
      282    18100    2       DCL UCW_CONST   SBIN;
      283    18101    2       DCL 1 UCW_PRIVACY   REDEF   UCW_CONST,
      284    18102    2             2 TYPE        UBIN(9) UNAL,
      285    18103    2             2 VERBS       UBIN(7) UNAL,
      286    18104    2             2 MBZ         UBIN(1) UNAL,
PL6.E3A0      #001=Z9EB$DML_USE File=Z9EB.:Z8A6TSI                               SAT 08/09/97 13:43 Page:11
      287    18105    2             2 SS          UBIN(1) UNAL,
      288    18106    2             2 R           UBIN(18) UNAL;
      289    18107
      290    18108    2       DCL 1 VERB_ ,
      291    18109    2             2  VERBS   UBIN(7) UNAL,
      292    18110    2             2  LIST    REDEF VERBS,
      293    18111    2               3 GET       BOOLEAN,
      294    18112    2               3 MODIFY    BOOLEAN,
      295    18113    2               3 STORE     BOOLEAN,
      296    18114    2               3 ERASE_    BOOLEAN,
      297    18115    2               3 CONNECT   BOOLEAN,
      298    18116    2               3 DISCONNECT BOOLEAN,
      299    18117    2               3 FIND      BOOLEAN,
      300    18118    2             2  *          UBIN(11);
      301    18119
      302    18120    2       DCL PRIVACY_RECORD_ALL  BOOLEAN INIT(%FALSE) STATIC;
      303    18121    2       DCL PRIVACY_SET_ALL     BOOLEAN INIT(%FALSE) STATIC;
      304    18122    2       DCL PRIVACY_FIELD_ALL   BOOLEAN INIT(%FALSE) STATIC;
      305    18123
      306    18124    2       DCL MODIFY_RECORD_ALL       BOOLEAN INIT(%FALSE) STATIC;
      307    18125    2       DCL CONNECT_RECORD_ALL      BOOLEAN INIT(%FALSE) STATIC;
      308    18126    2       DCL DISCONNECT_RECORD_ALL   BOOLEAN INIT(%FALSE) STATIC;
      309    18127    2       DCL STORE_RECORD_ALL        BOOLEAN INIT(%FALSE) STATIC;
      310    18128    2       DCL ERASE_RECORD_ALL        BOOLEAN INIT(%FALSE) STATIC;
      311    18129    2       DCL GET_RECORD_ALL          BOOLEAN INIT(%FALSE) STATIC;
      312    18130    2       DCL FIND_RECORD_ALL         BOOLEAN INIT(%FALSE) STATIC;
      313    18131
      314    18132    2       DCL CONNECT_SET_ALL         BOOLEAN INIT(%FALSE) STATIC;
      315    18133    2       DCL DISCONNECT_SET_ALL      BOOLEAN INIT(%FALSE) STATIC;
      316    18134    2       DCL FIND_SET_ALL            BOOLEAN INIT(%FALSE) STATIC;
      317    18135
      318    18136    2       DCL MODIFY_RECORD       BOOLEAN ;
      319    18137    2       DCL CONNECT_RECORD      BOOLEAN ;
      320    18138    2       DCL DISCONNECT_RECORD   BOOLEAN ;
      321    18139    2       DCL STORE_RECORD        BOOLEAN ;
      322    18140    2       DCL ERASE_RECORD        BOOLEAN ;
      323    18141    2       DCL GET_RECORD          BOOLEAN ;
PL6.E3A0      #001=Z9EB$DML_USE File=Z9EB.:Z8A6TSI                               SAT 08/09/97 13:43 Page:12
      324    18142    2       DCL FIND_RECORD         BOOLEAN ;
      325    18143
      326    18144    2       DCL CONNECT_SET         BOOLEAN ;
      327    18145    2       DCL DISCONNECT_SET      BOOLEAN ;
      328    18146    2       DCL FIND_SET            BOOLEAN ;
      329    18147
      330    18148    2       DCL GET_FIELD           BOOLEAN;
      331    18149    2       DCL MODIFY_FIELD        BOOLEAN;
      332    18150    2       DCL STORE_FIELD         BOOLEAN;
      333    18151
      334    18152        %EJECT;
PL6.E3A0      #001=Z9EB$DML_USE File=Z9EB.:Z8A6TSI                               SAT 08/09/97 13:43 Page:13
      335    18153        /*------------*/
      336    18154    2     RECORD_CHECK :     PROC   ;
      337    18155        /*------------*/
      338    18156
      339    18157    3       IF WORD_LIST$ -> LX_ITEM.ID = %LX_TERMINAL AND WORD_LIST$ -> LX_ITEM.SYMBOL = %
             18157                EMPTY         THEN
      340    18158    3         IF PRIVACY_RECORD_ALL = %FALSE  THEN
      341    18159    4           DO;
      342    18160    4             VERB = %ALL_RECORD_VERBS;
      343    18161    4             PRIVACY_RECORD_ALL = %TRUE;
      344    18162    4             RETURN;
      345    18163    4           END;
      346    18164
      347    18165    3       IF PRIVACY_RECORD_ALL = %TRUE         THEN
      348    18166    4         DO;
      349    18167    4           CALL Z8AE$ERROR(%E$DUPLICATE_RECORD_ALL,
      350    18168    4                           WORD_LIST$ -> LX_LIST.HEAD$ -> LX_ITEM.LINE,
      351    18169    4                           WORD_LIST$ -> LX_LIST.HEAD$ -> LX_ITEM.COLUMN);
      352    18170    4           RETURN;
      353    18171    4         END;
      354    18172
      355    18173    3       DUPLICATE_FLAG = %FALSE;
      356    18174    3       WORD$ = WORD_LIST$ -> LX_LIST.HEAD$;
      357    18175    4       DO WHILE WORD$ ~= ADDR(NIL);
      358    18176
      359    18177    5         DO CASE(WORD$ -> LX_ITEM.SYMBOL);
      360    18178
      361    18179    5           CASE(%RSV_WRD_MODIFY);
      362    18180    5               IF MODIFY_RECORD_ALL = %FALSE        THEN
      363    18181    6                 DO;
      364    18182    6                   MODIFY_RECORD_ALL = %TRUE;
      365    18183    6                   VERB = VERB + %MODIFY;
      366    18184    6                 END;
      367    18185    5               ELSE
      368    18186    5                   DUPLICATE_FLAG = %TRUE;
      369    18187
      370    18188    5           CASE(%RSV_WRD_FIND);
PL6.E3A0      #001=Z9EB$DML_USE File=Z9EB.:Z8A6TSI                               SAT 08/09/97 13:43 Page:14
      371    18189    5               IF FIND_RECORD_ALL = %FALSE        THEN
      372    18190    6                 DO;
      373    18191    6                   FIND_RECORD_ALL = %TRUE;
      374    18192    6                   VERB = VERB + %FIND;
      375    18193    6                 END;
      376    18194    5               ELSE
      377    18195    5                   DUPLICATE_FLAG = %TRUE;
      378    18196
      379    18197    5           CASE(%RSV_WRD_GET);
      380    18198    5               IF GET_RECORD_ALL = %FALSE        THEN
      381    18199    6                 DO;
      382    18200    6                   GET_RECORD_ALL = %TRUE;
      383    18201    6                   VERB = VERB + %GET;
      384    18202    6                 END;
      385    18203    5               ELSE
      386    18204    5                   DUPLICATE_FLAG = %TRUE;
      387    18205
      388    18206    5           CASE(%RSV_WRD_ERASE);
      389    18207    5               IF ERASE_RECORD_ALL = %FALSE        THEN
      390    18208    6                 DO;
      391    18209    6                   ERASE_RECORD_ALL = %TRUE;
      392    18210    6                   VERB = VERB + %ERASE;
      393    18211    6                 END;
      394    18212    5               ELSE
      395    18213    5                   DUPLICATE_FLAG = %TRUE;
      396    18214
      397    18215    5           CASE(%RSV_WRD_STORE);
      398    18216    5               IF STORE_RECORD_ALL = %FALSE        THEN
      399    18217    6                 DO;
      400    18218    6                   STORE_RECORD_ALL = %TRUE;
      401    18219    6                   VERB = VERB + %STORE;
      402    18220    6                 END;
      403    18221    5               ELSE
      404    18222    5                   DUPLICATE_FLAG = %TRUE;
      405    18223
      406    18224    5           CASE(%RSV_WRD_DISCONNECT);
      407    18225    5               IF DISCONNECT_RECORD_ALL = %FALSE        THEN
PL6.E3A0      #001=Z9EB$DML_USE File=Z9EB.:Z8A6TSI                               SAT 08/09/97 13:43 Page:15
      408    18226    6                 DO;
      409    18227    6                   DISCONNECT_RECORD_ALL = %TRUE;
      410    18228    6                   VERB = VERB + %DISCONNECT;
      411    18229    6                 END;
      412    18230    5               ELSE
      413    18231    5                   DUPLICATE_FLAG = %TRUE;
      414    18232
      415    18233    5           CASE(%RSV_WRD_CONNECT);
      416    18234    5               IF CONNECT_RECORD_ALL = %FALSE        THEN
      417    18235    6                 DO;
      418    18236    6                   CONNECT_RECORD_ALL = %TRUE;
      419    18237    6                   VERB = VERB + %CONNECT;
      420    18238    6                 END;
      421    18239    5               ELSE
      422    18240    5                   DUPLICATE_FLAG = %TRUE;
      423    18241
      424    18242
      425    18243    5         END;/*V*      CASE    */
      426    18244
      427    18245    4         IF DUPLICATE_FLAG = %TRUE    THEN
      428    18246    5           DO;
      429    18247    5             CALL Z8AE$ERROR( %E$DUPLICATE_ON_PHRASE,
      430    18248    5                              WORD$ -> LX_ITEM.LINE,
      431    18249    5                              WORD$ -> LX_ITEM.COLUMN);
      432    18250    5             DUPLICATE_FLAG = %FALSE;
      433    18251    5           END;
      434    18252
      435    18253    4         WORD$ = WORD$ -> LX_ITEM.LINK;
      436    18254
      437    18255    4       END;   /*V*  WHILE WORD$ ~= ADDR(NIL) */
      438    18256
      439    18257    3   END RECORD_CHECK;
      440    18258        %EJECT;
PL6.E3A0      #001=Z9EB$DML_USE File=Z9EB.:Z8A6TSI                               SAT 08/09/97 13:43 Page:16
      441    18259        /*---------*/
      442    18260    2     SET_CHECK :  PROC ;
      443    18261        /*---------*/
      444    18262
      445    18263    3       IF WORD_LIST$ -> LX_ITEM.ID = %LX_TERMINAL AND WORD_LIST$ -> LX_ITEM.SYMBOL = %
             18263                EMPTY         THEN
      446    18264    3           IF PRIVACY_SET_ALL = %FALSE  THEN
      447    18265    4             DO;
      448    18266    4               PRIVACY_SET_ALL = %TRUE;
      449    18267    4               VERB = %ALL_SET_VERBS;
      450    18268    4               RETURN;
      451    18269    4             END;
      452    18270
      453    18271    3       IF PRIVACY_SET_ALL = %TRUE         THEN
      454    18272    4         DO;
      455    18273    4           CALL Z8AE$ERROR(%E$DUPLICATE_SET_ALL,
      456    18274    4                           WORD_LIST$ -> LX_LIST.HEAD$ -> LX_ITEM.LINE,
      457    18275    4                           WORD_LIST$ -> LX_LIST.HEAD$ -> LX_ITEM.COLUMN);
      458    18276    4           RETURN;
      459    18277    4         END;
      460    18278
      461    18279    3       DUPLICATE_FLAG = %FALSE;
      462    18280    3       WORD$ = WORD_LIST$ -> LX_LIST.HEAD$;
      463    18281    4       DO WHILE WORD$ ~= ADDR(NIL);
      464    18282
      465    18283    5         DO CASE(WORD$ -> LX_ITEM.SYMBOL);
      466    18284
      467    18285    5           CASE(%RSV_WRD_FIND);
      468    18286    5               IF FIND_SET_ALL = %FALSE        THEN
      469    18287    6                 DO;
      470    18288    6                   FIND_SET_ALL = %TRUE;
      471    18289    6                   VERB = VERB + %FIND;
      472    18290    6                 END;
      473    18291    5               ELSE
      474    18292    5                   DUPLICATE_FLAG = %TRUE;
      475    18293
      476    18294    5           CASE(%RSV_WRD_DISCONNECT);
PL6.E3A0      #001=Z9EB$DML_USE File=Z9EB.:Z8A6TSI                               SAT 08/09/97 13:43 Page:17
      477    18295    5               IF DISCONNECT_SET_ALL = %FALSE        THEN
      478    18296    6                 DO;
      479    18297    6                   DISCONNECT_SET_ALL = %TRUE;
      480    18298    6                   VERB = VERB + %DISCONNECT;
      481    18299    6                 END;
      482    18300    5               ELSE
      483    18301    5                   DUPLICATE_FLAG = %TRUE;
      484    18302
      485    18303    5           CASE(%RSV_WRD_CONNECT);
      486    18304    5               IF CONNECT_SET_ALL = %FALSE        THEN
      487    18305    6                 DO;
      488    18306    6                   CONNECT_SET_ALL = %TRUE;
      489    18307    6                   VERB = VERB + %CONNECT;
      490    18308    6                 END;
      491    18309    5               ELSE
      492    18310    5                   DUPLICATE_FLAG = %TRUE;
      493    18311
      494    18312    5            CASE(ELSE);
      495    18313    5               CALL Z8AE$ERROR(%E$SET_PRIVACY,
      496    18314    5                               WORD$ -> LX_ITEM.LINE,
      497    18315    5                               WORD$ -> LX_ITEM.COLUMN,
      498    18316    5                               WORD$ -> LX_ITEM.DNT$);
      499    18317
      500    18318    5         END;/*V*      CASE    */
      501    18319
      502    18320    4         IF DUPLICATE_FLAG = %TRUE    THEN
      503    18321    5           DO;
      504    18322    5             CALL Z8AE$ERROR( %E$DUPLICATE_ON_PHRASE,
      505    18323    5                              WORD$ -> LX_ITEM.LINE,
      506    18324    5                              WORD$ -> LX_ITEM.COLUMN);
      507    18325    5             DUPLICATE_FLAG = %FALSE;
      508    18326    5           END;
      509    18327
      510    18328    4         WORD$ = WORD$ -> LX_ITEM.LINK;
      511    18329
      512    18330    4       END;    /*V*  WHILE WORD$ ~= ADDR(NIL)  */
      513    18331    3   END SET_CHECK;
PL6.E3A0      #001=Z9EB$DML_USE File=Z9EB.:Z8A6TSI                               SAT 08/09/97 13:43 Page:18
      514    18332        %EJECT;
PL6.E3A0      #001=Z9EB$DML_USE File=Z9EB.:Z8A6TSI                               SAT 08/09/97 13:43 Page:19
      515    18333        /*------------*/
      516    18334    2     RECORD_CHECK_LIST : PROC;
      517    18335        /*------------*/
      518    18336
      519    18337    3       IF WORD_LIST$ -> LX_ITEM.ID = %LX_TERMINAL AND WORD_LIST$ -> LX_ITEM.SYMBOL = %
             18337                EMPTY         THEN
      520    18338    3           IF PRIVACY_RECORD_ALL = %FALSE  THEN
      521    18339    4             DO;
      522    18340    4               VERB = %ALL_RECORD_VERBS;
      523    18341    4               RETURN;
      524    18342    4             END;
      525    18343
      526    18344    3       IF PRIVACY_RECORD_ALL = %TRUE         THEN
      527    18345    4         DO;
      528    18346    4           CALL Z8AE$ERROR(%E$DUPLICATE_RECORD_ALL ,
      529    18347    4                           WORD_LIST$ -> LX_LIST.HEAD$ -> LX_ITEM.LINE,
      530    18348    4                           WORD_LIST$ -> LX_LIST.HEAD$ -> LX_ITEM.COLUMN);
      531    18349    4           RETURN;
      532    18350    4         END;
      533    18351
      534    18352    3       MODIFY_RECORD = %FALSE;
      535    18353    3       CONNECT_RECORD = %FALSE;
      536    18354    3       DISCONNECT_RECORD = %FALSE;
      537    18355    3       STORE_RECORD = %FALSE;
      538    18356    3       ERASE_RECORD = %FALSE;
      539    18357    3       GET_RECORD = %FALSE;
      540    18358    3       FIND_RECORD = %FALSE;
      541    18359    3       DUPLICATE_FLAG = %FALSE;
      542    18360    3       WORD$ = WORD_LIST$ -> LX_LIST.HEAD$;
      543    18361    4       DO WHILE WORD$ ~= ADDR(NIL);
      544    18362
      545    18363    5         DO CASE(WORD$ -> LX_ITEM.SYMBOL);
      546    18364
      547    18365    5           CASE(%RSV_WRD_MODIFY);
      548    18366    5               IF MODIFY_RECORD_ALL = %FALSE  AND MODIFY_RECORD = %FALSE   THEN
      549    18367    6                 DO;
      550    18368    6                   MODIFY_RECORD = %TRUE;
PL6.E3A0      #001=Z9EB$DML_USE File=Z9EB.:Z8A6TSI                               SAT 08/09/97 13:43 Page:20
      551    18369    6                   VERB = VERB + %MODIFY;
      552    18370    6                 END;
      553    18371    5               ELSE
      554    18372    5                   DUPLICATE_FLAG = %TRUE;
      555    18373
      556    18374    5           CASE(%RSV_WRD_FIND);
      557    18375    5               IF FIND_RECORD_ALL = %FALSE  AND FIND_RECORD = %FALSE  THEN
      558    18376    6                 DO;
      559    18377    6                   FIND_RECORD = %TRUE;
      560    18378    6                   VERB = VERB + %FIND;
      561    18379    6                 END;
      562    18380    5               ELSE
      563    18381    5                   DUPLICATE_FLAG = %TRUE;
      564    18382
      565    18383    5           CASE(%RSV_WRD_GET);
      566    18384    5               IF GET_RECORD_ALL = %FALSE  AND GET_RECORD = %FALSE  THEN
      567    18385    6                 DO;
      568    18386    6                   GET_RECORD = %TRUE;
      569    18387    6                   VERB = VERB + %GET;
      570    18388    6                 END;
      571    18389    5               ELSE
      572    18390    5                   DUPLICATE_FLAG = %TRUE;
      573    18391
      574    18392    5           CASE(%RSV_WRD_ERASE);
      575    18393    5               IF ERASE_RECORD_ALL = %FALSE  AND ERASE_RECORD = %TRUE THEN
      576    18394    6                 DO;
      577    18395    6                   ERASE_RECORD = %TRUE;
      578    18396    6                   VERB = VERB + %ERASE;
      579    18397    6                 END;
      580    18398    5               ELSE
      581    18399    5                   DUPLICATE_FLAG = %TRUE;
      582    18400
      583    18401    5           CASE(%RSV_WRD_STORE);
      584    18402    5               IF STORE_RECORD_ALL = %FALSE  AND STORE_RECORD = %FALSE   THEN
      585    18403    6                 DO;
      586    18404    6                   STORE_RECORD = %TRUE;
      587    18405    6                   VERB = VERB + %STORE;
PL6.E3A0      #001=Z9EB$DML_USE File=Z9EB.:Z8A6TSI                               SAT 08/09/97 13:43 Page:21
      588    18406    6                 END;
      589    18407    5               ELSE
      590    18408    5                   DUPLICATE_FLAG = %TRUE;
      591    18409
      592    18410    5           CASE(%RSV_WRD_DISCONNECT);
      593    18411    5               IF DISCONNECT_RECORD_ALL = %FALSE  AND DISCONNECT_RECORD = %FALSE   THEN
      594    18412    6                 DO;
      595    18413    6                   DISCONNECT_RECORD = %TRUE;
      596    18414    6                   VERB = VERB + %DISCONNECT;
      597    18415    6                 END;
      598    18416    5               ELSE
      599    18417    5                   DUPLICATE_FLAG = %TRUE;
      600    18418
      601    18419    5           CASE(%RSV_WRD_CONNECT);
      602    18420    5               IF CONNECT_RECORD_ALL = %FALSE  AND CONNECT_RECORD = %FALSE  THEN
      603    18421    6                 DO;
      604    18422    6                   CONNECT_RECORD = %TRUE;
      605    18423    6                   VERB = VERB + %CONNECT;
      606    18424    6                 END;
      607    18425    5               ELSE
      608    18426    5                   DUPLICATE_FLAG = %TRUE;
      609    18427
      610    18428    5         END;/*V*      CASE    */
      611    18429
      612    18430    4         IF DUPLICATE_FLAG = %TRUE    THEN
      613    18431    5           DO;
      614    18432    5             CALL Z8AE$ERROR( %E$DUPLICATE_ON_PHRASE ,
      615    18433    5                              WORD$ -> LX_ITEM.LINE,
      616    18434    5                              WORD$ -> LX_ITEM.COLUMN);
      617    18435    5             DUPLICATE_FLAG = %FALSE;
      618    18436    5           END;
      619    18437
      620    18438    4         WORD$ = WORD$ -> LX_ITEM.LINK;
      621    18439
      622    18440    4       END;   /*V*  WHILE WORD$ ~= ADDR(NIL) */
      623    18441    3   END RECORD_CHECK_LIST;
      624    18442        %EJECT;
PL6.E3A0      #001=Z9EB$DML_USE File=Z9EB.:Z8A6TSI                               SAT 08/09/97 13:43 Page:22
      625    18443        /*---------*/
      626    18444    2     SET_CHECK_LIST :  PROC ;
      627    18445        /*---------*/
      628    18446
      629    18447    3       IF WORD_LIST$ -> LX_ITEM.ID = %LX_TERMINAL AND WORD_LIST$ -> LX_ITEM.SYMBOL = %
             18447                EMPTY         THEN
      630    18448
      631    18449    3           IF PRIVACY_SET_ALL = %FALSE  THEN
      632    18450    4             DO;
      633    18451    4               PRIVACY_SET_ALL = %TRUE;
      634    18452    4               VERB = %ALL_SET_VERBS;
      635    18453    4               RETURN;
      636    18454    4             END;
      637    18455
      638    18456    3       IF PRIVACY_SET_ALL = %TRUE         THEN
      639    18457    4         DO;
      640    18458    4           CALL Z8AE$ERROR(%E$DUPLICATE_SET_ALL,
      641    18459    4                           WORD_LIST$ -> LX_LIST.HEAD$ -> LX_ITEM.LINE,
      642    18460    4                           WORD_LIST$ -> LX_LIST.HEAD$ -> LX_ITEM.COLUMN);
      643    18461    4           RETURN;
      644    18462    4         END;
      645    18463
      646    18464    3       CONNECT_SET = %FALSE;
      647    18465    3       DISCONNECT_SET = %FALSE;
      648    18466    3       FIND_SET = %FALSE;
      649    18467    3       DUPLICATE_FLAG = %FALSE;
      650    18468    3       WORD$ = WORD_LIST$ -> LX_LIST.HEAD$;
      651    18469    4       DO WHILE WORD$ ~= ADDR(NIL);
      652    18470
      653    18471    5         DO CASE(WORD$ -> LX_ITEM.SYMBOL);
      654    18472
      655    18473    5           CASE(%RSV_WRD_FIND);
      656    18474    5               IF FIND_SET_ALL = %FALSE  AND FIND_SET = %FALSE  THEN
      657    18475    6                 DO;
      658    18476    6                   FIND_SET = %TRUE;
      659    18477    6                   VERB = VERB + %FIND;
      660    18478    6                 END;
PL6.E3A0      #001=Z9EB$DML_USE File=Z9EB.:Z8A6TSI                               SAT 08/09/97 13:43 Page:23
      661    18479    5               ELSE
      662    18480    5                   DUPLICATE_FLAG = %TRUE;
      663    18481
      664    18482    5           CASE(%RSV_WRD_DISCONNECT);
      665    18483    5               IF DISCONNECT_SET_ALL = %FALSE  AND DISCONNECT_SET = %FALSE  THEN
      666    18484    6                 DO;
      667    18485    6                   DISCONNECT_SET = %TRUE;
      668    18486    6                   VERB = VERB + %DISCONNECT;
      669    18487    6                 END;
      670    18488    5               ELSE
      671    18489    5                   DUPLICATE_FLAG = %TRUE;
      672    18490
      673    18491    5           CASE(%RSV_WRD_CONNECT);
      674    18492    5               IF CONNECT_SET_ALL = %FALSE  AND CONNECT_SET = %FALSE  THEN
      675    18493    6                 DO;
      676    18494    6                   CONNECT_SET = %TRUE;
      677    18495    6                   VERB = VERB + %CONNECT;
      678    18496    6                 END;
      679    18497    5               ELSE
      680    18498    5                   DUPLICATE_FLAG = %TRUE;
      681    18499
      682    18500    5            CASE(ELSE);
      683    18501    5               CALL Z8AE$ERROR(%E$SET_PRIVACY,
      684    18502    5                               WORD$ -> LX_ITEM.LINE,
      685    18503    5                               WORD$ -> LX_ITEM.COLUMN,
      686    18504    5                               WORD$ -> LX_ITEM.DNT$);
      687    18505
      688    18506    5         END;/*V*      CASE    */
      689    18507
      690    18508    4         IF DUPLICATE_FLAG = %TRUE    THEN
      691    18509    5           DO;
      692    18510    5             CALL Z8AE$ERROR( %E$DUPLICATE_ON_PHRASE,
      693    18511    5                              WORD$ -> LX_ITEM.LINE,
      694    18512    5                              WORD$ -> LX_ITEM.COLUMN);
      695    18513    5             DUPLICATE_FLAG = %FALSE;
      696    18514    5           END;
      697    18515
PL6.E3A0      #001=Z9EB$DML_USE File=Z9EB.:Z8A6TSI                               SAT 08/09/97 13:43 Page:24
      698    18516    4         WORD$ = WORD$ -> LX_ITEM.LINK;
      699    18517
      700    18518    4       END;    /*V*  WHILE WORD$ ~= ADDR(NIL)  */
      701    18519
      702    18520    3   END SET_CHECK_LIST;
      703    18521        %EJECT;
PL6.E3A0      #001=Z9EB$DML_USE File=Z9EB.:Z8A6TSI                               SAT 08/09/97 13:43 Page:25
      704    18522        /*-----------*/
      705    18523    2     FIELD_CHECK :    PROC  ;
      706    18524        /*-----------*/
      707    18525
      708    18526    3       IF WORD_LIST$ -> LX_ITEM.ID = %LX_TERMINAL AND WORD_LIST$ -> LX_ITEM.SYMBOL = %
             18526                EMPTY         THEN
      709    18527    4         DO;
      710    18528    4           VERB = %ALL_FIELD_VERBS;
      711    18529    4           RETURN;
      712    18530    4         END;
      713    18531
      714    18532    3       GET_FIELD = %FALSE;
      715    18533    3       MODIFY_FIELD = %FALSE;
      716    18534    3       STORE_FIELD = %FALSE;
      717    18535
      718    18536    3       DUPLICATE_FLAG = %FALSE;
      719    18537    3       WORD$ = WORD_LIST$ -> LX_LIST.HEAD$;
      720    18538    4       DO WHILE WORD$ ~= ADDR(NIL);
      721    18539
      722    18540    5         DO CASE(WORD$ -> LX_ITEM.SYMBOL);
      723    18541
      724    18542    5           CASE(%RSV_WRD_GET);
      725    18543    5               IF GET_FIELD = %FALSE        THEN
      726    18544    6                 DO;
      727    18545    6                   GET_FIELD = %TRUE;
      728    18546    6                   VERB = VERB + %GET;
      729    18547    6                 END;
      730    18548    5               ELSE
      731    18549    5                   DUPLICATE_FLAG = %TRUE;
      732    18550
      733    18551    5           CASE(%RSV_WRD_MODIFY);
      734    18552    5               IF MODIFY_FIELD = %FALSE        THEN
      735    18553    6                 DO;
      736    18554    6                   MODIFY_FIELD = %TRUE;
      737    18555    6                   VERB = VERB + %MODIFY;
      738    18556    6                 END;
      739    18557    5               ELSE
PL6.E3A0      #001=Z9EB$DML_USE File=Z9EB.:Z8A6TSI                               SAT 08/09/97 13:43 Page:26
      740    18558    5                   DUPLICATE_FLAG = %TRUE;
      741    18559
      742    18560    5             CASE(ELSE);
      743    18561    5                   CALL Z8AE$ERROR(%E$ITEM_PRIVACY,
      744    18562    5                                   WORD$ -> LX_ITEM.LINE,
      745    18563    5                                   WORD$ -> LX_ITEM.COLUMN,
      746    18564    5                                   WORD$ -> LX_ITEM.DNT$);
      747    18565
      748    18566    5         END;/*V*      CASE    */
      749    18567
      750    18568    4         IF DUPLICATE_FLAG = %TRUE    THEN
      751    18569    5           DO;
      752    18570    5             CALL Z8AE$ERROR( %E$DUPLICATE_ON_PHRASE,
      753    18571    5                              WORD$ -> LX_ITEM.LINE,
      754    18572    5                              WORD$ -> LX_ITEM.COLUMN);
      755    18573    5             DUPLICATE_FLAG = %FALSE;
      756    18574    5           END;
      757    18575
      758    18576    4         WORD$ = WORD$ -> LX_ITEM.LINK;
      759    18577
      760    18578    4       END;    /*V*  WHILE WORD$ ~= ADDR(NIL)  */
      761    18579
      762    18580    3   END FIELD_CHECK;
      763    18581        %EJECT;
PL6.E3A0      #001=Z9EB$DML_USE File=Z9EB.:Z8A6TSI                               SAT 08/09/97 13:43 Page:27
      764    18582    2   PRIVACY_PHRASE$ = LIST$ -> LX_LIST.HEAD$;
      765    18583
      766    18584    3   DO WHILE PRIVACY_PHRASE$ ~= ADDR(NIL);
      767    18585
      768    18586    3       WORD_LIST$ = PRIVACY_PHRASE$ -> LX_LIST.HEAD$;
      769    18587    3       FOR_OPTION$ = PRIVACY_PHRASE$ -> LX_LIST.TAIL$;
      770    18588    3       VERB = 0;
      771    18589    3       UCW_CONST = 0;
      772    18590
      773    18591    4       DO CASE( FOR_OPTION$ -> LX_ITEM.SYMBOL);
      774    18592
      775    18593    4           CASE(%RSV_WRD_RECORDS);
      776    18594
      777    18595    4               CALL RECORD_CHECK;
      778    18596
      779    18597    4               IF VERB ~= 0   THEN
      780    18598    5                 DO;
      781    18599    5                   UCW_PRIVACY.VERBS = VERB;
      782    18600    5                   UCW_PRIVACY.SS = 0;
      783    18601    5                   UCW_PRIVACY.TYPE = %PRIVACY_REC;
      784    18602    5                   UCW_PRIVACY.R     = 0;
      785    18603    5                   CALL BUILD_USEP_TABLE(UCW_CONST);
      786    18604    5                 END;
      787    18605
      788    18606    4           CASE(%RSV_WRD_SETS);
      789    18607    4               CALL SET_CHECK;
      790    18608
      791    18609    4               IF VERB ~= 0    THEN
      792    18610    5                 DO;
      793    18611    5                   UCW_PRIVACY.VERBS = VERB;
      794    18612    5                   UCW_PRIVACY.SS = 0;
      795    18613    5                   UCW_PRIVACY.TYPE = %PRIVACY_SET_#;
      796    18614    5                   UCW_PRIVACY.R     = 0;
      797    18615    5                   CALL BUILD_USEP_TABLE(UCW_CONST);
      798    18616    5                 END;
      799    18617
      800    18618
PL6.E3A0      #001=Z9EB$DML_USE File=Z9EB.:Z8A6TSI                               SAT 08/09/97 13:43 Page:28
      801    18619    4           CASE(ELSE);
      802    18620
      803    18621    4               IDENT$ = FOR_OPTION$ -> LX_LIST.HEAD$;
      804    18622    5               DO WHILE IDENT$ ~= ADDR(NIL);
      805    18623
      806    18624                        %FISH(TRIAD = LIST$ -> LX_ETT_ITEM.ETT$, RTN = IDENT_ST$);
      807    18632    6                   DO CASE(IDENT_ST$ -> ST.ID);
      808    18633
      809    18634    6                       CASE( %SCALAR);
      810    18635
      811    18636    7                          DO CASE(IDENT_ST$ -> SCALAR.B.DML_TYPE);
      812    18637
      813    18638    7                              CASE( %FIELD);
      814    18639
      815    18640    7                                  RVA_TYPE = %RVA_FIELD;
      816    18641    7                                  CALL FIELD_CHECK;
      817    18642    7                                  VERB_COPY = VERB;
      818    18643
      819    18644    7                                  IF VERB ~= 0    THEN
      820    18645    8                                    DO;
      821    18646    8                                      UCW_PRIVACY.TYPE = %PRIVACY_FIELD;
      822    18647    8                                      IF IDENT_ST$ -> SCALAR.B.DML_RVA = %FALSE   THEN
      823    18648    9                                        DO;
      824    18649
      825    18650    9                                          CALL Z9EB$BUILD_RVA_TABLE(IDENT_ST$,RVA_TYPE)
             18650                                                   ;
      826    18651    9                                          UCW_PRIVACY.R = O1COM.RVA_NUMBER;
      827    18652    9                                          O1COM.RVA_LINK$ -> RVA_LTS.VERB = VERB;
      828    18653    9                                        END;
      829    18654    8                                      ELSE
      830    18655    9                                        DO;
      831    18656
      832    18657    9                                          HEAD$ = O1COM.RVA_LINK$;
      833    18658                                               %GET_RVA_LTS(@ST$ = IDENT_ST$,
      834    18659                                                          @LTS$ = LTS$,
      835    18660                                                          @POINTER = HEAD$);
      836    18671
PL6.E3A0      #001=Z9EB$DML_USE File=Z9EB.:Z8A6TSI                               SAT 08/09/97 13:43 Page:29
      837    18672    9                           IF LTS$ -> RVA_LTS.VERBS.GET AND VERB_.LIST.GET    THEN
      838    18673    9                               VERB = VERB - %GET;
      839    18674
      840    18675    9                           IF LTS$ -> RVA_LTS.VERBS.MODIFY AND VERB_.LIST.MODIFY   THEN
      841    18676    9                               VERB = VERB - %MODIFY;
      842    18677
      843    18678
      844    18679    9                                        END;    /*V*    ELSE    */
      845    18680    8                                    END;         /*V*  VERB ~= 0  */
      846    18681
      847    18682    7                 CASE( %RECORD);
      848    18683
      849    18684    7                     RVA_TYPE = %RVA_RECORD;
      850    18685    7                     CALL RECORD_CHECK_LIST;
      851    18686    7                     VERB_COPY = VERB;
      852    18687
      853    18688    7                     IF VERB ~= 0    THEN
      854    18689    8                       DO;
      855    18690    8                         UCW_PRIVACY.TYPE = %PRIVACY_RECORD;
      856    18691    8                         IF IDENT_ST$ -> SCALAR.B.DML_RVA = %FALSE   THEN
      857    18692    9                           DO;
      858    18693    9                             CALL Z9EB$BUILD_RVA_TABLE(IDENT_ST$,RVA_TYPE);
      859    18694    9                             UCW_PRIVACY.R = O1COM.RVA_NUMBER;
      860    18695    9                             O1COM.RVA_LINK$ -> RVA_LTS.VERB = VERB;
      861    18696    9                           END;
      862    18697    8                         ELSE
      863    18698    9                           DO;
      864    18699    9                             HEAD$ = O1COM.RVA_LINK$;
      865    18700                                  %GET_RVA_LTS(@ST$ = IDENT_ST$,
      866    18701                                             @LTS$ = LTS$,
      867    18702                                             @POINTER = HEAD$);
      868    18713
      869    18714    9                  IF LTS$ -> RVA_LTS.VERBS.GET AND VERB_.LIST.GET    THEN
      870    18715    9                      VERB = VERB - %GET;
      871    18716
      872    18717    9                  IF LTS$ -> RVA_LTS.VERBS.MODIFY AND VERB_.LIST.MODIFY    THEN
      873    18718    9                      VERB = VERB - %MODIFY;
PL6.E3A0      #001=Z9EB$DML_USE File=Z9EB.:Z8A6TSI                               SAT 08/09/97 13:43 Page:30
      874    18719
      875    18720    9                  IF LTS$ -> RVA_LTS.VERBS.FIND AND VERB_.LIST.FIND   THEN
      876    18721    9                      VERB = VERB - %FIND;
      877    18722
      878    18723    9                  IF LTS$ -> RVA_LTS.VERBS.CONNECT AND VERB_.LIST.CONNECT    THEN
      879    18724    9                      VERB = VERB - %CONNECT;
      880    18725    9                  IF LTS$ -> RVA_LTS.VERBS.DISCONNECT AND VERB_.LIST.DISCONNECT THEN
      881    18726    9                      VERB = VERB - %DISCONNECT;
      882    18727
      883    18728    9                  IF LTS$ -> RVA_LTS.VERBS.STORE AND VERB_.LIST.STORE  THEN
      884    18729    9                      VERB = VERB - %STORE;
      885    18730
      886    18731    9                  IF LTS$ -> RVA_LTS.VERBS.STORE AND VERB_.LIST.ERASE_  THEN
      887    18732    9                      VERB = VERB - %STORE;
      888    18733
      889    18734                /*     IF VERB ~= VERB_COPY  THEN
      890    18735                           CALL Z8AE$ERROR( 1 );      */
      891    18736
      892    18737    9                  LTS$ -> RVA_LTS.VERB = LTS$ -> RVA_LTS.VERB + VERB;
      893    18738    9                  UCW_PRIVACY.R = LTS$ -> RVA_LTS.OFFSET;
      894    18739
      895    18740    9                               END;    /*V*    ELSE    */
      896    18741    8                           END;         /*V*  VERB ~= 0  */
      897    18742
      898    18743
      899    18744    7                 CASE(ELSE);
      900    18745    7                     CALL Z8AE$ERROR(%E$USE_PRIVACY_TYPE_ERROR,
      901    18746    7                                 IDENT$ -> LX_ITEM.LINE,
      902    18747    7                                 IDENT$ -> LX_ITEM.COLUMN);
      903    18748
      904    18749    7               END;             /*V* CASE    B.DML_TYPE   */
      905    18750        %EJECT;
PL6.E3A0      #001=Z9EB$DML_USE File=Z9EB.:Z8A6TSI                               SAT 08/09/97 13:43 Page:31
      906    18751    6                       CASE(%DML_SET);
      907    18752
      908    18753    6                          RVA_TYPE = %RVA_SET;
      909    18754    6                          CALL SET_CHECK_LIST;
      910    18755    6                          VERB_COPY = VERB;
      911    18756
      912    18757    6                          IF VERB ~= 0  THEN
      913    18758    7                            DO;
      914    18759    7                              UCW_PRIVACY.TYPE = %PRIVACY_SET;
      915    18760    7                              IF IDENT_ST$ -> DML_ITEM.B.DML_RVA = %FALSE    THEN
      916    18761    8                                DO;
      917    18762    8                                  CALL Z9EB$BUILD_RVA_TABLE(IDENT_ST$,RVA_TYPE);
      918    18763    8                                  UCW_PRIVACY.R = O1COM.RVA_NUMBER;
      919    18764    8                                  O1COM.RVA_LINK$ -> RVA_LTS.VERB = VERB;
      920    18765    8                                END;
      921    18766
      922    18767    7                              ELSE
      923    18768    8                                DO;
      924    18769
      925    18770    8                           HEAD$ = O1COM.RVA_LINK$;
      926    18771                                %GET_RVA_LTS(@ST$ = IDENT_ST$, @LTS$ = LTS$, @POINTER =
             18771                                    HEAD$);
      927    18782
      928    18783    8                           IF LTS$ -> RVA_LTS.VERBS.FIND AND  VERB_.LIST.FIND      THEN
      929    18784    8                               VERB = VERB - %FIND;
      930    18785
      931    18786    8                           IF LTS$ -> RVA_LTS.VERBS.CONNECT  AND  VERB_.LIST.CONNECT
             18786                                    THEN
      932    18787    8                               VERB = VERB - %CONNECT;
      933    18788
      934    18789    8                           IF LTS$ -> RVA_LTS.VERBS.DISCONNECT  AND  VERB_.LIST.
             18789                                    DISCONNECT    THEN
      935    18790    8                               VERB = VERB - %DISCONNECT;
      936    18791
      937    18792    8                           IF VERB  ~= VERB_COPY       THEN
      938    18793    8                               CALL Z8AE$ERROR( 1          );
      939    18794
PL6.E3A0      #001=Z9EB$DML_USE File=Z9EB.:Z8A6TSI                               SAT 08/09/97 13:43 Page:32
      940    18795    8                           LTS$ -> RVA_LTS.VERB = LTS$ -> RVA_LTS.VERB + VERB;
      941    18796    8                           UCW_PRIVACY.R = LTS$ -> RVA_LTS.OFFSET;
      942    18797
      943    18798    8                                  END;    /*V*     ELSE DO  */
      944    18799    7                              END;        /*V*   VERB ~= 0  */
      945    18800    6                   END;                 /*V*  CASE    ST.ID   */
      946    18801
      947    18802    5                   IDENT$ = IDENT$ -> LX_ITEM.LINK;
      948    18803
      949    18804    5                   IF VERB ~= 0    THEN
      950    18805    6                     DO;
      951    18806    6                       UCW_PRIVACY.VERBS = VERB;
      952    18807    6                       UCW_PRIVACY.SS = 0;
      953    18808    6                       CALL BUILD_USEP_TABLE(UCW_CONST);
      954    18809    6                     END;
      955    18810
      956    18811    5               END;                    /*V* WHILE IDENTS ~= ADDR(NIL) */
      957    18812
      958    18813    4       END;        /*V*  CASE  LX_ITEM.SYMBOL  */
      959    18814
      960    18815    3       PRIVACY_PHRASE$ = PRIVACY_PHRASE$ -> LX_ITEM.LINK;
      961    18816
      962    18817    3   END;        /*V*  WHILDE LIST$ ~= ADDR(NIL)  */
      963    18818    2   END USE_PRIVACY;
      964    18819        %EJECT;
PL6.E3A0      #001=Z9EB$DML_USE File=Z9EB.:Z8A6TSI                               SAT 08/09/97 13:43 Page:33
      965    18820             /****         MAIN   PROGRAM      ****/
      966    18821
      967    18822    1           IF USE_TYPE = %USE_DB_EXCEPTION            THEN
      968    18823    1               CALL USE_DB_STATEMENT;
      969    18824    1           ELSE
      970    18825    1               CALL USE_PRIVACY;
      971    18826
      972    18827    1   END Z9EB$DML_USE;
      973    18828        %EOD;

PL6.E3A0      #001=Z9EB$DML_USE File=Z9EB.:Z8A6TSI                               SAT 08/09/97 13:43 Page:34
--  Include file information  --

   Z8E_WINDOW.:Z8A6TOU  is referenced.
   Z8E_DML.:Z8A6TOU  is referenced.
   Z8A_LTS.:Z8A6TOU  cannot be made into a system file and is referenced.
   Z8A_ILL.:Z8A6TOU  cannot be made into a system file and is referenced.
   Z8A_ETT.:Z8A6TOU  cannot be made into a system file and is referenced.
   Z8A_TYPES.:Z8A6TOU  is referenced.
   Z8A_ST.:Z8A6TOU  cannot be made into a system file and is referenced.
   Z8A_DNT.:Z8A6TOU  cannot be made into a system file and is referenced.
   Z8A_ERR_NUMS.:Z8A6TOU  is referenced.
   Z8E_NEW_ILL.:Z8A6TOU  is referenced.
   Z8E_MACROS.:Z8A6TOU  cannot be made into a system file and is referenced.
   Z8E_O1COM.:Z8A6TOU  cannot be made into a system file and is referenced.
   Z8A_LEX_SYMB.:Z8A6TOU  cannot be made into a system file and is referenced.
   Z8E_STACKS.:Z8A6TOU  cannot be made into a system file and is referenced.
   Z8A_COMCOM.:Z8A6TOU  cannot be made into a system file and is referenced.
   X8A_COM_MACS.:X8A6TOU  is referenced.
   Z8A_NAMES.:Z8A6TOU  is referenced.
   Z8A_SUPP_MAC.:Z8A6TOU  is referenced.
   Z8A_DEFC.:Z8A6TOU  cannot be made into a system file and is referenced.
      No diagnostics issued in procedure Z9EB$DML_USE.

   Procedure Z9EB$DML_USE requires 2391 words for executable code.
   Procedure Z9EB$DML_USE requires 44 words of local(AUTO) storage.

PL6.E3A0      #001=Z9EB$DML_USE File=Z9EB.:Z8A6TSI                               SAT 08/09/97 13:43 Page:35

 Object Unit name= Z9EB$DML_USE                               File name= Z9EB.:Z8A6TOU
 UTS= AUG 09 '97 13:43:28.44 SAT                              Compiler= PL-6/E31         Sev=      00
 SharedLib= :SHARED_SYSTEM                                    Alt SharedLib=


    ****  Control sections  ****

 Sect   Type Bound  Init  Size OctSiz  Section name(segment info)
    0  LblCom even  none     1      1  ITERATION
    1  LblCom even  none    90    132  LEX_SYMBOL
    2  LblCom even  none     1      1  CURRENT_LEX_SYMBOL$
    3  LblCom even  none    90    132  TEMP_LEX_SYMBOL
    4  LblCom even  none    90    132  TEMP_LEX_SYMBOL2
    5  LblCom even  none     1      1  DNT$
    6  LblCom even  none     5      5  DNT_
    7  LblCom even  none     1      1  DNT_BUCKET_NUMBER
    8  LblCom even  none     1      1  DNT_OF_1$
    9  LblCom even  none     1      1  ST$
   10  LblCom even  none     5      5  ST_
   11  LblCom even  none     1      1  ETT$
   12  LblCom even  none     1      1  HEAD_ETT$
   13  LblCom even  none   512   1000  ETT_BUCKETS
   14  LblCom even  none     5      5  ETT_
   15  LblCom even  none     1      1  ILL$
   16  LblCom even  none     5      5  ILL_
   17  LblCom even  none     1      1  LTS$
   18  LblCom even  none     5      5  LTS_
   19   Data  even  none    16     20  Z9EB$DML_USE
   20  RoData even  UTS      3      3  Z9EB$DML_USE
   21   Proc  even  none  2391   4527  Z9EB$DML_USE
   22  RoData even  none    42     52  Z9EB$DML_USE
PL6.E3A0      #001=Z9EB$DML_USE File=Z9EB.:Z8A6TSI                               SAT 08/09/97 13:43 Page:36

    ****  Entry defs  ****

                              Check   Calling
                             calling  sequence
  Sect OctLoc Primary Altret sequence   type   Parms  Name
    21      0   yes            yes      Std        4  Z9EB$DML_USE

  ****  Entry refs  ****

         Check        Calling
        calling       sequence
Altret sequence SRef   type   Args  Name
         yes           Std       1 Z8AR$RESERVER
         yes           Std       4 Z8AN$NEW_ILL
         yes           Std      12 Z8AE$ERROR
 yes     yes           Std       3 Z8EC$NEW_CONST_WITH_TYPE_DESC
         yes           Std       2 Z9EB$BUILD_RVA_TABLE
                       nStd      0 X66_AUTO_4
                       nStd      0 X66_ARET

  ****  Data refs  ****

  Flags:  r = read only, s = secondary
Flgs Name                             Flgs Name                             Flgs Name
     COMCOM                                O1COM                                 HIER_STK_PTR
     HIER_STK                              PAGE_FORMAT                           REP_STK_PTR
     REP_STK                          r    ILL_STEP                         r    LTS_STEP

  ****  Segment refs  ****

  Flags:  r = read only, s = secondary
Flgs Name                             Flgs Name                             Flgs Name
     ISSID                                 NULLSID
PL6.E3A0      #001=Z9EB$DML_USE File=Z9EB.:Z8A6TSI                               SAT 08/09/97 13:43 Page:37


        1        1        /*M* Z8EB_SI -  Data division module for COBOL-E  DML/IDS II. */
        2        2        /*T***********************************************************/
        3        3        /*T*                                                         */
        4        4        /*T* Copyright (c) Bull HN Information Systems Inc., 1997    */
        5        5        /*T*                                                         */
        6        6        /*T***********************************************************/
        7        7        /*P*
        8        8             NAME: Z8EB_SI
        9        9             PURPOSE:
       10       10                   Builds calls to the IDS routines for DML statements.
       11       11             DESCRIPTION:
       12       12                    Checks for statement errors, builds RVA table and USEP
       13       13                    table, builds parameter lists for calls to IDS routines.
       14       14        */
       15       15        /*F*
       16       16             NAME: Z9EB$DML_USE
       17       17             PURPOSE:
       18       18                    Process the DML USE statement.
       19       19             DESCRIPTION:
       20       20                   Builds the USEP table for USE for DB-EXCEPTION and USE for
       21       21                   PRIVACY.
       22       22        */
       23       23        /*D*
       24       24             NAME: Z9EB$DML_USE
       25       25             CALL:
       26       26                   CALL Z9EB$DML_USE ( LIST$, STATEMENT_TYPE, USE_SECT$, USE_TYPE);
       27       27             PARAMETERS:
       28       28                   LIST$  - Pointer to lx list of status codes or privacy on words
       29       29                   STATEMENT_TYPE   - Type of DB-EXCEPTION
       30       30                   USE_SECT$  - Pointer to use section
       31       31                   USE_TYPE  - Type of USE statement
       32       32             INTERFACE:
       33       33                   Z8AE$ERROR
       34       34                   Z8EC$NEW_CONST_WITH_TYPE_DESC
       35       35                   Z9EB$BUILD_RVA_TABLE
       36       36
PL6.E3A0      #001=Z9EB$DML_USE File=Z9EB.:Z8A6TSI                               SAT 08/09/97 13:43 Page:38
       37       37             ENVIRONMENT:
       38       38                  None.
       39       39             INPUT:
       40       40                   LIST$
       41       41                   STATEMENT_TYPE
       42       42                   USE_SECT$
       43       43                   USE_TYPE
       44       44
       45       45             OUTPUT:
       46       46                   None.
       47       47
       48       48             DESCRIPTION:
       49       49                    Z9EB$DML_USE tests for PRIVACY or DB-EXCEPTION and
       50       50                    goes to the appropiate internal routines.
       51       51        */
       52       52        /*===========*/
       53       53          Z9EB$DML_USE : PROC (LIST$,STATEMENT_TYPE,USE_SECT$,USE_TYPE);

     53 21 000000   000000 700200 xent  Z9EB$DML_USE TSX0  ! X66_AUTO_4
        21 000001   000054 000004                    ZERO    44,4
        21 000002   004515 710000 21                 TRA     s:18822

       54       54        /*============*/
       55       55
       56       56    1       DCL  LIST$    PTR;
       57       57    1       DCL STATEMENT_TYPE      SBIN;
       58       58    1       DCL  USE_SECT$   PTR;
       59       59    1       DCL  USE_TYPE    SBIN;
       60       60
       61       61            %EQU PHASE = 1;
       62       62            %INCLUDE Z8A_DEFC;
       63      130            %INCLUDE Z8A_SUPP_MAC;
       64     2530            %INCLUDE Z8A_COMCOM;
       65     3180            %INCLUDE Z8E_STACKS;
       66     5446            %INCLUDE Z8E_O1COM;
       67     6207            %INCLUDE Z8E_MACROS;
       68     6882            %INCLUDE Z8A_ERR_NUMS;
PL6.E3A0      #001=Z9EB$DML_USE File=Z9EB.:Z8A6TSI                               SAT 08/09/97 13:43 Page:39
       69     7646            %INCLUDE Z8A_DNT;
       70     7867            %INCLUDE Z8A_ST;
       71    11526            %INCLUDE Z8A_TYPES;
       72    11700            %INCLUDE Z8A_ETT;
       73    12001            %INCLUDE Z8A_ILL;
       74    12694            %INCLUDE Z8A_LTS;
       75    14771            %INCLUDE Z8E_DML;
       76    14891            %INCLUDE Z8E_WINDOW;
       77    16961
       78    16962    1       DCL Z8AE$ERROR  ENTRY(12);
       79    16963    1       DCL Z8EC$NEW_CONST_WITH_TYPE_DESC   ENTRY(3)  ALTRET;
       80    16964    1       DCL Z9EB$BUILD_RVA_TABLE   ENTRY(2);
       81    16965         %EJECT;
PL6.E3A0      #001=Z9EB$DML_USE File=Z9EB.:Z8A6TSI                               SAT 08/09/97 13:43 Page:40
       82    16966        /*----------------*/
       83    16967    1     BUILD_USEP_TABLE : PROC ( UCW_CONST);

  16967 21 000003   200044 741300       BUILD_USEP_* STX1  ! STORE_FIELD+1,,AUTO

       84    16968        /*----------------*/
       85    16969        /*I*
       86    16970             NAME: BUILD_USEP_TABLE
       87    16971             PURPOSE:
       88    16972                   Preoffs and ptr_sets items into the USEP table.
       89    16973             CALL:
       90    16974                   CALL BUILD_USEP_TABLE ( UCW_CONST );
       91    16975             PARAMETERS:
       92    16976                     UCW_CONST - Word constant describing the specific use
       93    16977             DATA:
       94    16978                     O1COM.USEP$  - Pointer to USEP table
       95    16979                     O1COM.USEP_NUMBER - Number of entries into table
       96    16980             DESCRIPTION:
       97    16981                    BUILD_USEP_TABLE  creates ILLs that preoff the constant
       98    16982                    and ptr_set the use section into the USEP table.  It
       99    16983                    also updates the table entry count.
      100    16984        */
      101    16985    2       DCL UCW_CONST   SBIN WORD;
      102    16986    2       DCL USEP_LENGTH UBIN WORD STATIC INIT(1);
      103    16987        %EJECT;
PL6.E3A0      #001=Z9EB$DML_USE File=Z9EB.:Z8A6TSI                               SAT 08/09/97 13:43 Page:41
      104    16988            %NEW_CONST ( @ST$ = ST$);

  16992 21 000004   000002 236000 10                 LDQ     ST_+2
        21 000005   000013 036007                    ADLQ    11,DL
        21 000006   000003 116000 10                 CMPQ    ST_+3
        21 000007   000020 604000 21                 TMI     s:16994

  16993 21 000010   000002 236000 22                 LDQ     2
        21 000011   200046 756100                    STQ     @UCW_CONST+1,,AUTO
        21 000012   200046 630500                    EPPR0   @UCW_CONST+1,,AUTO
        21 000013   200047 450500                    STP0    @UCW_CONST+2,,AUTO
        21 000014   200047 630500                    EPPR0   @UCW_CONST+2,,AUTO
        21 000015   000001 631400 22                 EPPR1   1
        21 000016   000000 701000 xent               TSX1    Z8AR$RESERVER
        21 000017   000000 011000                    NOP     0

  16994 21 000020   000002 236000 10                 LDQ     ST_+2
        21 000021   000022 736000                    QLS     18
        21 000022   000001 036000 10                 ADLQ    ST_+1
        21 000023   000000 756000 9                  STQ     ST$

  16995 21 000024   000013 236007                    LDQ     11,DL
        21 000025   000002 056000 10                 ASQ     ST_+2

  16998 21 000026   000767 220003                    LDX0    503,DU
        21 000027   000000 470400 9                  LDP0    ST$
        21 000030   000000 740100                    STX0    0,,PR0

  16999 21 000031   000000 470400 9                  LDP0    ST$
        21 000032   001000 236007                    LDQ     512,DL
        21 000033   000000 552110                    STBQ    0,'10'O,PR0

  17000 21 000034   000000 470400 9                  LDP0    ST$
        21 000035   000126 236000 xsym               LDQ     O1COM+86
        21 000036   000000 552104                    STBQ    0,'04'O,PR0

  17001 21 000037   000001 221003                    LDX1    1,DU
PL6.E3A0      #001=Z9EB$DML_USE File=Z9EB.:Z8A6TSI                               SAT 08/09/97 13:43 Page:42
        21 000040   000000 470400 9                  LDP0    ST$
        21 000041   000002 741100                    STX1    2,,PR0

  17002 21 000042   000003 450100                    STZ     3,,PR0

  17003 21 000043   000000 236000 22                 LDQ     0
        21 000044   000004 756100                    STQ     4,,PR0

  17004 21 000045   000005 756100                    STQ     5,,PR0

  17005 21 000046   000006 756100                    STQ     6,,PR0

      105    17029    2       ST$ -> CONST.CONSTI.WORD1 = UCW_CONST;

  17029 21 000047   200045 471500                    LDP1    @UCW_CONST,,AUTO
        21 000050   100000 235100                    LDA     0,,PR1
        21 000051   000010 755100                    STA     8,,PR0

      106    17030
      107    17031            %NEW_ILL( @ID = %PREOFF,
      108    17032                      @LOP  = O1COM.USEP$,
      109    17033                      @ROP  = ST$,
      110    17034                      @N    = 1,
      111    17035                      @OFFSET = USEP_LENGTH);

  17264 21 000052   000006 236000 22                 LDQ     6
        21 000053   200046 756100                    STQ     @UCW_CONST+1,,AUTO
        21 000054   200046 633500                    EPPR3   @UCW_CONST+1,,AUTO
        21 000055   200053 453500                    STP3    @UCW_CONST+6,,AUTO
        21 000056   000007 236000 22                 LDQ     7
        21 000057   200052 756100                    STQ     @UCW_CONST+5,,AUTO
        21 000060   000010 237000 22                 LDAQ    8
        21 000061   200050 757100                    STAQ    @UCW_CONST+3,,AUTO
        21 000062   200050 630500                    EPPR0   @UCW_CONST+3,,AUTO
        21 000063   000003 631400 22                 EPPR1   3
        21 000064   000000 701000 xent               TSX1    Z8AN$NEW_ILL
        21 000065   000000 011000                    NOP     0
PL6.E3A0      #001=Z9EB$DML_USE File=Z9EB.:Z8A6TSI                               SAT 08/09/97 13:43 Page:43

  17268 21 000066   000000 720000 19                 LXL0    USEP_LENGTH
        21 000067   000000 470400 15                 LDP0    ILL$
        21 000070   000000 440100                    SXL0    0,,PR0

  17273 21 000071   000001 235007                    LDA     1,DL
        21 000072   000000 470400 15                 LDP0    ILL$
        21 000073   000003 755100                    STA     3,,PR0

  17275 21 000074   000073 236000 xsym               LDQ     O1COM+59
        21 000075   000001 756100                    STQ     1,,PR0

  17276 21 000076   000000 236000 9                  LDQ     ST$
        21 000077   000002 756100                    STQ     2,,PR0

      112    17414
      113    17415    2       USEP_LENGTH = USEP_LENGTH + 1;

  17415 21 000100   000000 235000 19                 LDA     USEP_LENGTH
        21 000101   000001 035007                    ADLA    1,DL
        21 000102   000000 755000 19                 STA     USEP_LENGTH

      114    17416            %NEW_ILL( @ID   = %P_A_PRESET,
      115    17417                      @OFFSET = USEP_LENGTH,
      116    17418                      @TO   = O1COM.USEP$,
      117    17419                      @ROPCON = 0,
      118    17420                      @LOP  = USE_SECT$);

  17677 21 000103   000006 236000 22                 LDQ     6
        21 000104   200046 756100                    STQ     @UCW_CONST+1,,AUTO
        21 000105   200046 631500                    EPPR1   @UCW_CONST+1,,AUTO
        21 000106   200053 451500                    STP1    @UCW_CONST+6,,AUTO
        21 000107   000007 236000 22                 LDQ     7
        21 000110   200052 756100                    STQ     @UCW_CONST+5,,AUTO
        21 000111   000014 237000 22                 LDAQ    12
        21 000112   200050 757100                    STAQ    @UCW_CONST+3,,AUTO
        21 000113   200050 630500                    EPPR0   @UCW_CONST+3,,AUTO
PL6.E3A0      #001=Z9EB$DML_USE File=Z9EB.:Z8A6TSI                               SAT 08/09/97 13:43 Page:44
        21 000114   000003 631400 22                 EPPR1   3
        21 000115   000000 701000 xent               TSX1    Z8AN$NEW_ILL
        21 000116   000000 011000                    NOP     0

  17681 21 000117   000000 720000 19                 LXL0    USEP_LENGTH
        21 000120   000000 470400 15                 LDP0    ILL$
        21 000121   000000 440100                    SXL0    0,,PR0

  17683 21 000122   000000 470400 15                 LDP0    ILL$
        21 000123   000002 450100                    STZ     2,,PR0

  17684 21 000124   200005 471500                    LDP1    @USE_SECT$,,AUTO
        21 000125   100000 236100                    LDQ     0,,PR1
        21 000126   000001 756100                    STQ     1,,PR0

  17685 21 000127   000073 236000 xsym               LDQ     O1COM+59
        21 000130   000003 756100                    STQ     3,,PR0

      119    17799
      120    17800    2       O1COM.USEP_NUMBER = O1COM.USEP_NUMBER + 1;

  17800 21 000131   000071 221000 xsym               LDX1    O1COM+57
        21 000132   000001 622011                    EAX2    1,X1
        21 000133   000071 742000 xsym               STX2    O1COM+57

      121    17801    2       USEP_LENGTH = USEP_LENGTH + 1;

  17801 21 000134   000000 235000 19                 LDA     USEP_LENGTH
        21 000135   000001 035007                    ADLA    1,DL
        21 000136   000000 755000 19                 STA     USEP_LENGTH

      122    17802                 /*V*  USEP_LENGTH IS INCREMENTED BY 1  */
      123    17803                 /*V*  AFTER EACH ILL BECAUSE A LENGTH  */
      124    17804                 /*V*  OF 1 HAS A ZERO OFFSET.          */
      125    17805            %NEW_USE_LTS ( @POINTER = LTS$);

  17883 21 000137   000002 236000 18                 LDQ     LTS_+2
PL6.E3A0      #001=Z9EB$DML_USE File=Z9EB.:Z8A6TSI                               SAT 08/09/97 13:43 Page:45
        21 000140   000022 036007                    ADLQ    18,DL
        21 000141   000003 116000 18                 CMPQ    LTS_+3
        21 000142   000153 604000 21                 TMI     s:17885

  17884 21 000143   000013 236000 22                 LDQ     11
        21 000144   200046 756100                    STQ     @UCW_CONST+1,,AUTO
        21 000145   200046 633500                    EPPR3   @UCW_CONST+1,,AUTO
        21 000146   200047 453500                    STP3    @UCW_CONST+2,,AUTO
        21 000147   200047 630500                    EPPR0   @UCW_CONST+2,,AUTO
        21 000150   000001 631400 22                 EPPR1   1
        21 000151   000000 701000 xent               TSX1    Z8AR$RESERVER
        21 000152   000000 011000                    NOP     0

  17885 21 000153   000002 236000 18                 LDQ     LTS_+2
        21 000154   000022 736000                    QLS     18
        21 000155   000001 036000 18                 ADLQ    LTS_+1
        21 000156   000000 756000 17                 STQ     LTS$

  17886 21 000157   000022 236007                    LDQ     18,DL
        21 000160   000002 056000 18                 ASQ     LTS_+2

  17887 21 000161   001100 220003                    LDX0    576,DU
        21 000162   000000 470400 17                 LDP0    LTS$
        21 000163   000000 740100                    STX0    0,,PR0

  17893 21 000164   000000 236000 22                 LDQ     0
        21 000165   000000 470400 17                 LDP0    LTS$
        21 000166   000001 756100                    STQ     1,,PR0

  17895 21 000167   000004 236000 22                 LDQ     4
        21 000170   000002 756100                    STQ     2,,PR0

  17899 21 000171   000000 236000 22                 LDQ     0
        21 000172   000003 756100                    STQ     3,,PR0

  17900 21 000173   000004 756100                    STQ     4,,PR0

PL6.E3A0      #001=Z9EB$DML_USE File=Z9EB.:Z8A6TSI                               SAT 08/09/97 13:43 Page:46
  17901 21 000174   000000 221003                    LDX1    0,DU
        21 000175   000000 441100                    SXL1    0,,PR0

  17902 21 000176   000000 236000 22                 LDQ     0
        21 000177   000000 470400 17                 LDP0    LTS$
        21 000200   000007 756100                    STQ     7,,PR0

  17903 21 000201   000010 756100                    STQ     8,,PR0

  17904 21 000202   000015 756100                    STQ     13,,PR0

  17905 21 000203   000017 756100                    STQ     15,,PR0

  17906 21 000204   000016 756100                    STQ     14,,PR0

  17907 21 000205   000020 741100                    STX1    16,,PR0

  17908 21 000206   000020 441100                    SXL1    16,,PR0

      126    17911    2       LTS$ -> USE.PROC_CHAIN$ = COMCOM.USE_PROC_CHAIN$;

  17911 21 000207   000476 236000 xsym               LDQ     COMCOM+318
        21 000210   000001 756100                    STQ     1,,PR0

      127    17912    2       LTS$ -> USE.PROC_LABEL$ = USE_SECT$;

  17912 21 000211   200005 471500                    LDP1    @USE_SECT$,,AUTO
        21 000212   100000 236100                    LDQ     0,,PR1
        21 000213   000002 756100                    STQ     2,,PR0

      128    17913    2       COMCOM.USE_PROC_CHAIN$ = LTS$;

  17913 21 000214   000000 236000 17                 LDQ     LTS$
        21 000215   000476 756000 xsym               STQ     COMCOM+318

      129    17914
      130    17915    2   END BUILD_USEP_TABLE;
PL6.E3A0      #001=Z9EB$DML_USE File=Z9EB.:Z8A6TSI                               SAT 08/09/97 13:43 Page:47

  17915 21 000216   200044 221300                    LDX1  ! STORE_FIELD+1,,AUTO
        21 000217   000001 702211                    TSX2  ! 1,X1

      131    17916        %EJECT;
PL6.E3A0      #001=Z9EB$DML_USE File=Z9EB.:Z8A6TSI                               SAT 08/09/97 13:43 Page:48
      132    17917        /*----------------*/
      133    17918    1     USE_DB_STATEMENT : PROC ;

  17918 21 000220   200010 741300       USE_DB_STAT* STX1  ! @USE_TYPE+2,,AUTO

      134    17919        /*----------------*/
      135    17920        /*I*
      136    17921             NAME: USE_DB_STATEMENT
      137    17922             PURPOSE:
      138    17923                   Sets up constant for DB-EXCEPTION and checks for errors
      139    17924             CALL:
      140    17925                   CALL USE_DB_STATE
      141    17926             DATA:
      142    17927                  None.
      143    17928             DESCRIPTION:
      144    17929                   USE_DB_STATEMENT builds the DB-EXCEPTION words for the
      145    17930                   USEP table.  There are three types of exceptions:  ALL,
      146    17931                   OTHER, and indicator.
      147    17932        */
      148    17933    2       DCL   1   DB_EXCEPTION     STATIC,
      149    17934    2               2   ALL        BOOLEAN,
      150    17935    2               2   OTHER      BOOLEAN,
      151    17936    2               2   INDICATOR  BOOLEAN;
      152    17937    2       DCL  FIRST_DB_EXCEPTION   BOOLEAN  STATIC  INIT(%TRUE);
      153    17938    2       DCL  IDENT$     PTR;
      154    17939    2       DCL  RETURN$    PTR;
      155    17940    2       DCL  UCW_WORD     SBIN  WORD;
      156    17941    2       DCL  1  UCW    REDEF  UCW_WORD,
      157    17942    2               2   TYPE    UNAL UBIN(9),
      158    17943    2               2   STATUS_CODE   UNAL UBIN(27);
      159    17944
      160    17945    2       DCL  ERROR_FLAG     BOOLEAN;
      161    17946    2       DCL  1  TYPE_DESC      ALIGNED,
      162    17947                    %TYPE_DESC;
      163    17981        %EJECT;
PL6.E3A0      #001=Z9EB$DML_USE File=Z9EB.:Z8A6TSI                               SAT 08/09/97 13:43 Page:49
      164    17982    2       UCW.TYPE = 3;

  17982 21 000221   003000 236003                    LDQ     1536,DU
        21 000222   200013 552140                    STBQ    UCW_WORD,'40'O,AUTO

      165    17983    2       IF FIRST_DB_EXCEPTION = %TRUE     THEN      /*V*  Build USEP   */

  17983 21 000223   000002 234000 19                 SZN     FIRST_DB_EXCEPTION
        21 000224   000234 605000 21                 TPL     s:17991

      166    17984    3        DO;

      167    17985    3           FIRST_DB_EXCEPTION = %FALSE;

  17985 21 000225   000002 450000 19                 STZ     FIRST_DB_EXCEPTION

      168    17986    3           DB_EXCEPTION.ALL = %FALSE;

  17986 21 000226   000016 236000 22                 LDQ     14
        21 000227   000001 356000 19                 ANSQ    DB_EXCEPTION

      169    17987    3           DB_EXCEPTION.OTHER = %FALSE;

  17987 21 000230   000017 236000 22                 LDQ     15
        21 000231   000001 356000 19                 ANSQ    DB_EXCEPTION

      170    17988    3           DB_EXCEPTION.INDICATOR = %FALSE;

  17988 21 000232   000020 236000 22                 LDQ     16
        21 000233   000001 356000 19                 ANSQ    DB_EXCEPTION

      171    17989    3         END;

      172    17990
      173    17991    3       DO CASE (STATEMENT_TYPE);

  17991 21 000234   200004 470500                    LDP0    @STATEMENT_TYPE,,AUTO
PL6.E3A0      #001=Z9EB$DML_USE File=Z9EB.:Z8A6TSI                               SAT 08/09/97 13:43 Page:50
        21 000235   000000 235100                    LDA     0,,PR0
        21 000236   000003 115007                    CMPA    3,DL
        21 000237   000241 602005 21                 TNC     s:17991+5,AL
        21 000240   000451 710000 21                 TRA     s:18066
        21 000241   000244 710000 21                 TRA     s:17994
        21 000242   000271 710000 21                 TRA     s:18006
        21 000243   000321 710000 21                 TRA     s:18020

      174    17992
      175    17993    3          CASE (%DB_EXCEPTION_ALL);

      176    17994    3               IF (DB_EXCEPTION.ALL = %TRUE) OR (DB_EXCEPTION.OTHER = %TRUE) OR

  17994 21 000244   000001 234000 19                 SZN     DB_EXCEPTION
        21 000245   000253 604000 21                 TMI     s:17996
        21 000246   000001 236000 19                 LDQ     DB_EXCEPTION
        21 000247   200000 316003                    CANQ    65536,DU
        21 000250   000253 601000 21                 TNZ     s:17996
        21 000251   100000 316003                    CANQ    32768,DU
        21 000252   000260 600000 21                 TZE     s:17999

      177    17995    3            (DB_EXCEPTION.INDICATOR = %TRUE)    THEN
      178    17996    3                   CALL Z8AE$ERROR( %E$DB_EXCEPTION_ALL_ERROR);

  17996 21 000253   000022 630400 22                 EPPR0   18
        21 000254   000001 631400 22                 EPPR1   1
        21 000255   000000 701000 xent               TSX1    Z8AE$ERROR
        21 000256   000000 011000                    NOP     0
        21 000257   000451 710000 21                 TRA     s:18066

      179    17997    3               ELSE
      180    17998    4                 DO;

      181    17999    4                   DB_EXCEPTION.ALL = %TRUE;

  17999 21 000260   400000 236003                    LDQ     -131072,DU
        21 000261   000001 256000 19                 ORSQ    DB_EXCEPTION
PL6.E3A0      #001=Z9EB$DML_USE File=Z9EB.:Z8A6TSI                               SAT 08/09/97 13:43 Page:51

      182    18000    4                   UCW.STATUS_CODE = 0;

  18000 21 000262   000000 236003                    LDQ     0,DU
        21 000263   200013 552134                    STBQ    UCW_WORD,'34'O,AUTO

      183    18001    4                   CALL BUILD_USEP_TABLE(UCW_WORD);

  18001 21 000264   200013 631500                    EPPR1   UCW_WORD,,AUTO
        21 000265   200045 451500                    STP1    @UCW_CONST,,AUTO
        21 000266   000003 701000 21                 TSX1    BUILD_USEP_TABLE
        21 000267   000000 011000                    NOP     0

      184    18002    4                 END;

  18002 21 000270   000451 710000 21                 TRA     s:18066

      185    18003
      186    18004    3           CASE (%DB_EXCEPTION_OTHER);

      187    18005
      188    18006    3               IF DB_EXCEPTION.OTHER = %TRUE   THEN

  18006 21 000271   000001 236000 19                 LDQ     DB_EXCEPTION
        21 000272   200000 316003                    CANQ    65536,DU
        21 000273   000301 600000 21                 TZE     s:18009

      189    18007    3                   CALL Z8AE$ERROR( %E$DB_EXCEPT_OTHER_ERROR);

  18007 21 000274   000024 630400 22                 EPPR0   20
        21 000275   000001 631400 22                 EPPR1   1
        21 000276   000000 701000 xent               TSX1    Z8AE$ERROR
        21 000277   000000 011000                    NOP     0
        21 000300   000451 710000 21                 TRA     s:18066

      190    18008    3               ELSE
      191    18009    3                   IF DB_EXCEPTION.ALL = %TRUE   THEN
PL6.E3A0      #001=Z9EB$DML_USE File=Z9EB.:Z8A6TSI                               SAT 08/09/97 13:43 Page:52

  18009 21 000301   000001 234000 19                 SZN     DB_EXCEPTION
        21 000302   000310 605000 21                 TPL     s:18014

      192    18010    3                       CALL Z8AE$ERROR( %E$DB_EXCEPTION_ALL_ERROR);

  18010 21 000303   000022 630400 22                 EPPR0   18
        21 000304   000001 631400 22                 EPPR1   1
        21 000305   000000 701000 xent               TSX1    Z8AE$ERROR
        21 000306   000000 011000                    NOP     0
        21 000307   000451 710000 21                 TRA     s:18066

      193    18011    3                   ELSE
      194    18012    4                    DO;

      195    18013
      196    18014    4                       DB_EXCEPTION.OTHER = %TRUE;

  18014 21 000310   200000 236003                    LDQ     65536,DU
        21 000311   000001 256000 19                 ORSQ    DB_EXCEPTION

      197    18015    4                       UCW.STATUS_CODE = 0;

  18015 21 000312   000000 236003                    LDQ     0,DU
        21 000313   200013 552134                    STBQ    UCW_WORD,'34'O,AUTO

      198    18016    4                       CALL BUILD_USEP_TABLE(UCW_WORD);

  18016 21 000314   200013 631500                    EPPR1   UCW_WORD,,AUTO
        21 000315   200045 451500                    STP1    @UCW_CONST,,AUTO
        21 000316   000003 701000 21                 TSX1    BUILD_USEP_TABLE
        21 000317   000000 011000                    NOP     0

      199    18017    4                     END;

  18017 21 000320   000451 710000 21                 TRA     s:18066

PL6.E3A0      #001=Z9EB$DML_USE File=Z9EB.:Z8A6TSI                               SAT 08/09/97 13:43 Page:53
      200    18018
      201    18019    3           CASE (%DB_EXCEPTION_INDICATOR);

      202    18020    3               IF DB_EXCEPTION.ALL = %TRUE    THEN

  18020 21 000321   000001 234000 19                 SZN     DB_EXCEPTION
        21 000322   000330 605000 21                 TPL     s:18024

      203    18021    3                   CALL Z8AE$ERROR(%E$DB_EXCEPTION_ALL_ERROR);

  18021 21 000323   000022 630400 22                 EPPR0   18
        21 000324   000001 631400 22                 EPPR1   1
        21 000325   000000 701000 xent               TSX1    Z8AE$ERROR
        21 000326   000000 011000                    NOP     0
        21 000327   000451 710000 21                 TRA     s:18066

      204    18022    3               ELSE
      205    18023    4                 DO;

      206    18024    4                   IDENT$ = LIST$ -> LX_LIST.HEAD$;

  18024 21 000330   200003 471500                    LDP1    @LIST$,,AUTO
        21 000331   100000 473500                    LDP3    0,,PR1
        21 000332   300004 236100                    LDQ     4,,PR3
        21 000333   200011 756100                    STQ     IDENT$,,AUTO

      207    18025
      208    18026    5                   DO WHILE IDENT$ ~= ADDR(NIL);

  18026 21 000334   000447 710000 21                 TRA     s:18063

      209    18027    5                       IF IDENT$ -> LX_TERMINAL.DNT$ -> DNT.B.DUPLICATE = %TRUE   THEN

  18027 21 000335   200011 470500                    LDP0    IDENT$,,AUTO
        21 000336   000002 471500                    LDP1    2,,PR0
        21 000337   100003 236100                    LDQ     3,,PR1
        21 000340   040000 316003                    CANQ    16384,DU
PL6.E3A0      #001=Z9EB$DML_USE File=Z9EB.:Z8A6TSI                               SAT 08/09/97 13:43 Page:54
        21 000341   000356 600000 21                 TZE     s:18033

      210    18028    5                         CALL Z8AE$ERROR( %E$DB_EXCEPT_DUPLICATE,

  18028 21 000342   200011 236100                    LDQ     IDENT$,,AUTO
        21 000343   000006 036003                    ADLQ    6,DU
        21 000344   200050 756100                    STQ     @UCW_CONST+3,,AUTO
        21 000345   200011 236100                    LDQ     IDENT$,,AUTO
        21 000346   000005 036003                    ADLQ    5,DU
        21 000347   000027 235000 22                 LDA     23
        21 000350   200046 757100                    STAQ    @UCW_CONST+1,,AUTO
        21 000351   200046 630500                    EPPR0   @UCW_CONST+1,,AUTO
        21 000352   000025 631400 22                 EPPR1   21
        21 000353   000000 701000 xent               TSX1    Z8AE$ERROR
        21 000354   000000 011000                    NOP     0
        21 000355   000444 710000 21                 TRA     s:18062

      211    18029    5                                           IDENT$ -> LX_TERMINAL.LINE,
      212    18030    5                                           IDENT$ -> LX_TERMINAL.COLUMN);
      213    18031    5                       ELSE
      214    18032    6                       DO;

      215    18033    6                         IDENT$ -> LX_TERMINAL.DNT$ -> DNT.B.DUPLICATE = %TRUE;

  18033 21 000356   040000 236003                    LDQ     16384,DU
        21 000357   100003 256100                    ORSQ    3,,PR1

      216    18034    6                         IF (IDENT$ -> LX_TERMINAL.DNT$ -> DNT.TEXT.LENGTH ~= 9) OR

  18034 21 000360   200011 470500                    LDP0    IDENT$,,AUTO
        21 000361   000002 471500                    LDP1    2,,PR0
        21 000362   100004 220100                    LDX0    4,,PR1
        21 000363   000011 100003                    CMPX0   9,DU
        21 000364   000371 601000 21                 TNZ     s:18036
        21 000365   040000 106540                    CMPC    fill='040'O
        21 000366   100004 400010                    ADSC9   4,,PR1                   cn=2,n=*X0
        21 000367   000000 000011 20                 ADSC9   0                        cn=0,n=9
PL6.E3A0      #001=Z9EB$DML_USE File=Z9EB.:Z8A6TSI                               SAT 08/09/97 13:43 Page:55
        21 000370   000405 601000 21                 TNZ     s:18042

      217    18035    6                           (IDENT$->LX_TERMINAL.DNT$->DNT.TEXT.NAME='"0000000"') THEN
      218    18036    6                             CALL Z8AE$ERROR( %E$DB_EXCEPT_NOT_VALID,

  18036 21 000371   200011 236100                    LDQ     IDENT$,,AUTO
        21 000372   000006 036003                    ADLQ    6,DU
        21 000373   200050 756100                    STQ     @UCW_CONST+3,,AUTO
        21 000374   200011 236100                    LDQ     IDENT$,,AUTO
        21 000375   000005 036003                    ADLQ    5,DU
        21 000376   000031 235000 22                 LDA     25
        21 000377   200046 757100                    STAQ    @UCW_CONST+1,,AUTO
        21 000400   200046 630500                    EPPR0   @UCW_CONST+1,,AUTO
        21 000401   000025 631400 22                 EPPR1   21
        21 000402   000000 701000 xent               TSX1    Z8AE$ERROR
        21 000403   000000 011000                    NOP     0
        21 000404   000444 710000 21                 TRA     s:18062

      219    18037    6                                            IDENT$->LX_TERMINAL.LINE,
      220    18038    6                                         IDENT$->LX_TERMINAL.COLUMN);
      221    18039    6                         ELSE
      222    18040    7                           DO;

      223    18041
      224    18042    7                             DB_EXCEPTION.INDICATOR = %TRUE;

  18042 21 000405   100000 236003                    LDQ     32768,DU
        21 000406   000001 256000 19                 ORSQ    DB_EXCEPTION

      225    18043    7                             TYPE_DESC.TYPE = %TYI;

  18043 21 000407   000001 235007                    LDA     1,DL
        21 000410   200015 755100                    STA     TYPE_DESC,,AUTO

      226    18044
      227    18045    7                             CALL Z8EC$NEW_CONST_WITH_TYPE_DESC( TYPE_DESC,

PL6.E3A0      #001=Z9EB$DML_USE File=Z9EB.:Z8A6TSI                               SAT 08/09/97 13:43 Page:56
  18045 21 000411   200012 631500                    EPPR1   RETURN$,,AUTO
        21 000412   200050 451500                    STP1    @UCW_CONST+3,,AUTO
        21 000413   200011 633500                    EPPR3   IDENT$,,AUTO
        21 000414   200047 453500                    STP3    @UCW_CONST+2,,AUTO
        21 000415   200015 634500                    EPPR4   TYPE_DESC,,AUTO
        21 000416   200046 454500                    STP4    @UCW_CONST+1,,AUTO
        21 000417   200046 630500                    EPPR0   @UCW_CONST+1,,AUTO
        21 000420   000025 631400 22                 EPPR1   21
        21 000421   000000 701000 xent               TSX1    Z8EC$NEW_CONST_WITH_TYPE_DESC
        21 000422   000424 702000 21                 TSX2    s:18050
        21 000423   000426 710000 21                 TRA     s:18052

      228    18046    7                                                                 IDENT$,
      229    18047    7                                                                 RETURN$)
      230    18048    7                               WHENALTRETURN
      231    18049    8                               DO;

      232    18050    8                                 ERROR_FLAG = %TRUE;

  18050 21 000424   400000 236003                    LDQ     -131072,DU
        21 000425   200014 756100                    STQ     ERROR_FLAG,,AUTO

      233    18051    8                               END;

      234    18052    7                             IF ERROR_FLAG = %TRUE   THEN

  18052 21 000426   200014 234100                    SZN     ERROR_FLAG,,AUTO
        21 000427   000432 605000 21                 TPL     s:18056

      235    18053    7                                 ERROR_FLAG = %FALSE;

  18053 21 000430   200014 450100                    STZ     ERROR_FLAG,,AUTO
        21 000431   000444 710000 21                 TRA     s:18062

      236    18054    7                             ELSE
      237    18055    8                               DO;                     /*V* No error in converstion */

PL6.E3A0      #001=Z9EB$DML_USE File=Z9EB.:Z8A6TSI                               SAT 08/09/97 13:43 Page:57
      238    18056    8                                 UCW_WORD = RETURN$->ETT.LOP->CONST.CONSTI.WORD1;

  18056 21 000432   200012 470500                    LDP0    RETURN$,,AUTO
        21 000433   000001 471500                    LDP1    1,,PR0
        21 000434   100010 235100                    LDA     8,,PR1
        21 000435   200013 755100                    STA     UCW_WORD,,AUTO

      239    18057    8                                 UCW.TYPE = 3;

  18057 21 000436   003000 236003                    LDQ     1536,DU
        21 000437   200013 552140                    STBQ    UCW_WORD,'40'O,AUTO

      240    18058    8                                 CALL BUILD_USEP_TABLE(UCW_WORD);

  18058 21 000440   200013 631500                    EPPR1   UCW_WORD,,AUTO
        21 000441   200045 451500                    STP1    @UCW_CONST,,AUTO
        21 000442   000003 701000 21                 TSX1    BUILD_USEP_TABLE
        21 000443   000000 011000                    NOP     0

      241    18059    8                               END;

      242    18060    7                           END;

      243    18061    6                       END;

      244    18062    5                       IDENT$ = IDENT$ -> LX_TERMINAL.LINK;

  18062 21 000444   200011 470500                    LDP0    IDENT$,,AUTO
        21 000445   000007 236100                    LDQ     7,,PR0
        21 000446   200011 756100                    STQ     IDENT$,,AUTO

      245    18063    5                   END;      /*V*  WHILE   */

  18063 21 000447   000000 116000 22                 CMPQ    0
        21 000450   000335 601000 21                 TNZ     s:18027

      246    18064    4                 END;
PL6.E3A0      #001=Z9EB$DML_USE File=Z9EB.:Z8A6TSI                               SAT 08/09/97 13:43 Page:58

      247    18065    3       END;        /*V*  CASE STATEMENT_TYPE    */

      248    18066    2   END USE_DB_STATEMENT;

  18066 21 000451   200010 221300                    LDX1  ! @USE_TYPE+2,,AUTO
        21 000452   000001 702211                    TSX2  ! 1,X1

      249    18067        %EJECT;
PL6.E3A0      #001=Z9EB$DML_USE File=Z9EB.:Z8A6TSI                               SAT 08/09/97 13:43 Page:59
      250    18068        /*-----------*/
      251    18069    1     USE_PRIVACY :   PROC ;

  18069 21 000453   200010 741300       USE_PRIVACY  STX1  ! @USE_TYPE+2,,AUTO
        21 000454   003512 710000 21                 TRA     s:18582

      252    18070        /*-----------*/
      253    18071        /*I*
      254    18072             NAME: USE_PRIVACY
      255    18073             PURPOSE:
      256    18074                   Handles the USE for PRIVACY statement
      257    18075             CALL:
      258    18076                   CALL USE_PRIVACY
      259    18077             DATA:
      260    18078                  None.
      261    18079             DESCRIPTION:
      262    18080                     USE_PRIVACY determines what type of privacy phrase the
      263    18081                     statement is.  It can be for field items, records, or sets.
      264    18082                     It makes sure the verb specfied is legal for the type of
      265    18083                     phrase.  Also duplicate conditions are checked for.  It calls
      266    18084                     routines to check for these conditions. The USEP table entry
      267    18085                     is built by this routine.
      268    18086        */
      269    18087    2       DCL WORD_LIST$  PTR;
      270    18088    2       DCL FOR_OPTION$ PTR;
      271    18089    2       DCL WORD$       PTR;
      272    18090    2       DCL PRIVACY_PHRASE$ PTR;
      273    18091    2       DCL HEAD$       PTR;
      274    18092    2       DCL IDENT_ST$   PTR;
      275    18093    2       DCL IDENT$      PTR;
      276    18094    2       DCL RVA_TYPE    UBIN(18);
      277    18095    2       DCL VERB_COPY    UBIN(7);
      278    18096
      279    18097    2       DCL DUPLICATE_FLAG  BOOLEAN;
      280    18098    2       DCL VERB        UBIN(7);
      281    18099
      282    18100    2       DCL UCW_CONST   SBIN;
PL6.E3A0      #001=Z9EB$DML_USE File=Z9EB.:Z8A6TSI                               SAT 08/09/97 13:43 Page:60
      283    18101    2       DCL 1 UCW_PRIVACY   REDEF   UCW_CONST,
      284    18102    2             2 TYPE        UBIN(9) UNAL,
      285    18103    2             2 VERBS       UBIN(7) UNAL,
      286    18104    2             2 MBZ         UBIN(1) UNAL,
      287    18105    2             2 SS          UBIN(1) UNAL,
      288    18106    2             2 R           UBIN(18) UNAL;
      289    18107
      290    18108    2       DCL 1 VERB_ ,
      291    18109    2             2  VERBS   UBIN(7) UNAL,
      292    18110    2             2  LIST    REDEF VERBS,
      293    18111    2               3 GET       BOOLEAN,
      294    18112    2               3 MODIFY    BOOLEAN,
      295    18113    2               3 STORE     BOOLEAN,
      296    18114    2               3 ERASE_    BOOLEAN,
      297    18115    2               3 CONNECT   BOOLEAN,
      298    18116    2               3 DISCONNECT BOOLEAN,
      299    18117    2               3 FIND      BOOLEAN,
      300    18118    2             2  *          UBIN(11);
      301    18119
      302    18120    2       DCL PRIVACY_RECORD_ALL  BOOLEAN INIT(%FALSE) STATIC;
      303    18121    2       DCL PRIVACY_SET_ALL     BOOLEAN INIT(%FALSE) STATIC;
      304    18122    2       DCL PRIVACY_FIELD_ALL   BOOLEAN INIT(%FALSE) STATIC;
      305    18123
      306    18124    2       DCL MODIFY_RECORD_ALL       BOOLEAN INIT(%FALSE) STATIC;
      307    18125    2       DCL CONNECT_RECORD_ALL      BOOLEAN INIT(%FALSE) STATIC;
      308    18126    2       DCL DISCONNECT_RECORD_ALL   BOOLEAN INIT(%FALSE) STATIC;
      309    18127    2       DCL STORE_RECORD_ALL        BOOLEAN INIT(%FALSE) STATIC;
      310    18128    2       DCL ERASE_RECORD_ALL        BOOLEAN INIT(%FALSE) STATIC;
      311    18129    2       DCL GET_RECORD_ALL          BOOLEAN INIT(%FALSE) STATIC;
      312    18130    2       DCL FIND_RECORD_ALL         BOOLEAN INIT(%FALSE) STATIC;
      313    18131
      314    18132    2       DCL CONNECT_SET_ALL         BOOLEAN INIT(%FALSE) STATIC;
      315    18133    2       DCL DISCONNECT_SET_ALL      BOOLEAN INIT(%FALSE) STATIC;
      316    18134    2       DCL FIND_SET_ALL            BOOLEAN INIT(%FALSE) STATIC;
      317    18135
      318    18136    2       DCL MODIFY_RECORD       BOOLEAN ;
      319    18137    2       DCL CONNECT_RECORD      BOOLEAN ;
PL6.E3A0      #001=Z9EB$DML_USE File=Z9EB.:Z8A6TSI                               SAT 08/09/97 13:43 Page:61
      320    18138    2       DCL DISCONNECT_RECORD   BOOLEAN ;
      321    18139    2       DCL STORE_RECORD        BOOLEAN ;
      322    18140    2       DCL ERASE_RECORD        BOOLEAN ;
      323    18141    2       DCL GET_RECORD          BOOLEAN ;
      324    18142    2       DCL FIND_RECORD         BOOLEAN ;
      325    18143
      326    18144    2       DCL CONNECT_SET         BOOLEAN ;
      327    18145    2       DCL DISCONNECT_SET      BOOLEAN ;
      328    18146    2       DCL FIND_SET            BOOLEAN ;
      329    18147
      330    18148    2       DCL GET_FIELD           BOOLEAN;
      331    18149    2       DCL MODIFY_FIELD        BOOLEAN;
      332    18150    2       DCL STORE_FIELD         BOOLEAN;
      333    18151
      334    18152        %EJECT;
PL6.E3A0      #001=Z9EB$DML_USE File=Z9EB.:Z8A6TSI                               SAT 08/09/97 13:43 Page:62
      335    18153        /*------------*/
      336    18154    2     RECORD_CHECK :     PROC   ;

  18154 21 000455   200044 741300       RECORD_CHECK STX1  ! STORE_FIELD+1,,AUTO

      337    18155        /*------------*/
      338    18156
      339    18157    3       IF WORD_LIST$ -> LX_ITEM.ID = %LX_TERMINAL AND WORD_LIST$ -> LX_ITEM.SYMBOL = %
             18157                EMPTY         THEN

  18157 21 000456   200011 470500                    LDP0    WORD_LIST$,,AUTO
        21 000457   000000 220100                    LDX0    0,,PR0
        21 000460   000472 601000 21                 TNZ     s:18165
        21 000461   000003 235100                    LDA     3,,PR0
        21 000462   000472 601000 21                 TNZ     s:18165

      340    18158    3         IF PRIVACY_RECORD_ALL = %FALSE  THEN

  18158 21 000463   000003 234000 19                 SZN     PRIVACY_RECORD_ALL
        21 000464   000472 604000 21                 TMI     s:18165

      341    18159    4           DO;

      342    18160    4             VERB = %ALL_RECORD_VERBS;

  18160 21 000465   774000 236003                    LDQ     -2048,DU
        21 000466   200023 756100                    STQ     VERB,,AUTO

      343    18161    4             PRIVACY_RECORD_ALL = %TRUE;

  18161 21 000467   400000 236003                    LDQ     -131072,DU
        21 000470   000003 756000 19                 STQ     PRIVACY_RECORD_ALL

      344    18162    4             RETURN;

  18162 21 000471   000001 702211                    TSX2  ! 1,X1

PL6.E3A0      #001=Z9EB$DML_USE File=Z9EB.:Z8A6TSI                               SAT 08/09/97 13:43 Page:63
      345    18163    4           END;
      346    18164
      347    18165    3       IF PRIVACY_RECORD_ALL = %TRUE         THEN

  18165 21 000472   000003 234000 19                 SZN     PRIVACY_RECORD_ALL
        21 000473   000511 605000 21                 TPL     s:18173

      348    18166    4         DO;

      349    18167    4           CALL Z8AE$ERROR(%E$DUPLICATE_RECORD_ALL,

  18167 21 000474   000004 471500                    LDP1    4,,PR0
        21 000475   100006 633500                    EPPR3   6,,PR1
        21 000476   200050 453500                    STP3    @UCW_CONST+3,,AUTO
        21 000477   100005 634500                    EPPR4   5,,PR1
        21 000500   200047 454500                    STP4    @UCW_CONST+2,,AUTO
        21 000501   000033 236000 22                 LDQ     27
        21 000502   200046 756100                    STQ     @UCW_CONST+1,,AUTO
        21 000503   200046 630500                    EPPR0   @UCW_CONST+1,,AUTO
        21 000504   000025 631400 22                 EPPR1   21
        21 000505   000000 701000 xent               TSX1    Z8AE$ERROR
        21 000506   000000 011000                    NOP     0

      350    18168    4                           WORD_LIST$ -> LX_LIST.HEAD$ -> LX_ITEM.LINE,
      351    18169    4                           WORD_LIST$ -> LX_LIST.HEAD$ -> LX_ITEM.COLUMN);
      352    18170    4           RETURN;

  18170 21 000507   200044 221300                    LDX1  ! STORE_FIELD+1,,AUTO
        21 000510   000001 702211                    TSX2  ! 1,X1

      353    18171    4         END;
      354    18172
      355    18173    3       DUPLICATE_FLAG = %FALSE;

  18173 21 000511   200022 450100                    STZ     DUPLICATE_FLAG,,AUTO

      356    18174    3       WORD$ = WORD_LIST$ -> LX_LIST.HEAD$;
PL6.E3A0      #001=Z9EB$DML_USE File=Z9EB.:Z8A6TSI                               SAT 08/09/97 13:43 Page:64

  18174 21 000512   000004 236100                    LDQ     4,,PR0
        21 000513   200013 756100                    STQ     WORD$,,AUTO

      357    18175    4       DO WHILE WORD$ ~= ADDR(NIL);

  18175 21 000514   001405 710000 21                 TRA     s:18255

      358    18176
      359    18177    5         DO CASE(WORD$ -> LX_ITEM.SYMBOL);

  18177 21 000515   200013 470500                    LDP0    WORD$,,AUTO
        21 000516   000003 235100                    LDA     3,,PR0
        21 000517   000154 135007                    SBLA    108,DL
        21 000520   000507 115007                    CMPA    327,DL
        21 000521   000523 602005 21                 TNC     s:18177+6,AL
        21 000522   001364 710000 21                 TRA     s:18245
        21 000523   001350 710000 21                 TRA     s:18234
        21 000524   001364 710000 21                 TRA     s:18245
        21 000525   001364 710000 21                 TRA     s:18245
        21 000526   001364 710000 21                 TRA     s:18245
        21 000527   001364 710000 21                 TRA     s:18245
        21 000530   001364 710000 21                 TRA     s:18245
        21 000531   001364 710000 21                 TRA     s:18245
        21 000532   001364 710000 21                 TRA     s:18245
        21 000533   001364 710000 21                 TRA     s:18245
        21 000534   001364 710000 21                 TRA     s:18245
        21 000535   001364 710000 21                 TRA     s:18245
        21 000536   001364 710000 21                 TRA     s:18245
        21 000537   001364 710000 21                 TRA     s:18245
        21 000540   001364 710000 21                 TRA     s:18245
        21 000541   001364 710000 21                 TRA     s:18245
        21 000542   001364 710000 21                 TRA     s:18245
        21 000543   001364 710000 21                 TRA     s:18245
        21 000544   001364 710000 21                 TRA     s:18245
        21 000545   001364 710000 21                 TRA     s:18245
        21 000546   001364 710000 21                 TRA     s:18245
PL6.E3A0      #001=Z9EB$DML_USE File=Z9EB.:Z8A6TSI                               SAT 08/09/97 13:43 Page:65
        21 000547   001364 710000 21                 TRA     s:18245
        21 000550   001364 710000 21                 TRA     s:18245
        21 000551   001364 710000 21                 TRA     s:18245
        21 000552   001364 710000 21                 TRA     s:18245
        21 000553   001364 710000 21                 TRA     s:18245
        21 000554   001364 710000 21                 TRA     s:18245
        21 000555   001364 710000 21                 TRA     s:18245
        21 000556   001364 710000 21                 TRA     s:18245
        21 000557   001364 710000 21                 TRA     s:18245
        21 000560   001364 710000 21                 TRA     s:18245
        21 000561   001364 710000 21                 TRA     s:18245
        21 000562   001364 710000 21                 TRA     s:18245
        21 000563   001364 710000 21                 TRA     s:18245
        21 000564   001364 710000 21                 TRA     s:18245
        21 000565   001364 710000 21                 TRA     s:18245
        21 000566   001364 710000 21                 TRA     s:18245
        21 000567   001364 710000 21                 TRA     s:18245
        21 000570   001364 710000 21                 TRA     s:18245
        21 000571   001364 710000 21                 TRA     s:18245
        21 000572   001364 710000 21                 TRA     s:18245
        21 000573   001333 710000 21                 TRA     s:18225
        21 000574   001364 710000 21                 TRA     s:18245
        21 000575   001364 710000 21                 TRA     s:18245
        21 000576   001364 710000 21                 TRA     s:18245
        21 000577   001364 710000 21                 TRA     s:18245
        21 000600   001364 710000 21                 TRA     s:18245
        21 000601   001364 710000 21                 TRA     s:18245
        21 000602   001364 710000 21                 TRA     s:18245
        21 000603   001364 710000 21                 TRA     s:18245
        21 000604   001364 710000 21                 TRA     s:18245
        21 000605   001364 710000 21                 TRA     s:18245
        21 000606   001364 710000 21                 TRA     s:18245
        21 000607   001364 710000 21                 TRA     s:18245
        21 000610   001364 710000 21                 TRA     s:18245
        21 000611   001364 710000 21                 TRA     s:18245
        21 000612   001364 710000 21                 TRA     s:18245
        21 000613   001364 710000 21                 TRA     s:18245
PL6.E3A0      #001=Z9EB$DML_USE File=Z9EB.:Z8A6TSI                               SAT 08/09/97 13:43 Page:66
        21 000614   001364 710000 21                 TRA     s:18245
        21 000615   001364 710000 21                 TRA     s:18245
        21 000616   001364 710000 21                 TRA     s:18245
        21 000617   001364 710000 21                 TRA     s:18245
        21 000620   001364 710000 21                 TRA     s:18245
        21 000621   001364 710000 21                 TRA     s:18245
        21 000622   001364 710000 21                 TRA     s:18245
        21 000623   001364 710000 21                 TRA     s:18245
        21 000624   001364 710000 21                 TRA     s:18245
        21 000625   001364 710000 21                 TRA     s:18245
        21 000626   001364 710000 21                 TRA     s:18245
        21 000627   001364 710000 21                 TRA     s:18245
        21 000630   001364 710000 21                 TRA     s:18245
        21 000631   001364 710000 21                 TRA     s:18245
        21 000632   001364 710000 21                 TRA     s:18245
        21 000633   001364 710000 21                 TRA     s:18245
        21 000634   001364 710000 21                 TRA     s:18245
        21 000635   001364 710000 21                 TRA     s:18245
        21 000636   001364 710000 21                 TRA     s:18245
        21 000637   001364 710000 21                 TRA     s:18245
        21 000640   001364 710000 21                 TRA     s:18245
        21 000641   001364 710000 21                 TRA     s:18245
        21 000642   001364 710000 21                 TRA     s:18245
        21 000643   001364 710000 21                 TRA     s:18245
        21 000644   001364 710000 21                 TRA     s:18245
        21 000645   001364 710000 21                 TRA     s:18245
        21 000646   001301 710000 21                 TRA     s:18207
        21 000647   001364 710000 21                 TRA     s:18245
        21 000650   001364 710000 21                 TRA     s:18245
        21 000651   001364 710000 21                 TRA     s:18245
        21 000652   001364 710000 21                 TRA     s:18245
        21 000653   001364 710000 21                 TRA     s:18245
        21 000654   001364 710000 21                 TRA     s:18245
        21 000655   001364 710000 21                 TRA     s:18245
        21 000656   001364 710000 21                 TRA     s:18245
        21 000657   001364 710000 21                 TRA     s:18245
        21 000660   001364 710000 21                 TRA     s:18245
PL6.E3A0      #001=Z9EB$DML_USE File=Z9EB.:Z8A6TSI                               SAT 08/09/97 13:43 Page:67
        21 000661   001364 710000 21                 TRA     s:18245
        21 000662   001364 710000 21                 TRA     s:18245
        21 000663   001364 710000 21                 TRA     s:18245
        21 000664   001364 710000 21                 TRA     s:18245
        21 000665   001364 710000 21                 TRA     s:18245
        21 000666   001364 710000 21                 TRA     s:18245
        21 000667   001364 710000 21                 TRA     s:18245
        21 000670   001364 710000 21                 TRA     s:18245
        21 000671   001247 710000 21                 TRA     s:18189
        21 000672   001364 710000 21                 TRA     s:18245
        21 000673   001364 710000 21                 TRA     s:18245
        21 000674   001364 710000 21                 TRA     s:18245
        21 000675   001364 710000 21                 TRA     s:18245
        21 000676   001364 710000 21                 TRA     s:18245
        21 000677   001364 710000 21                 TRA     s:18245
        21 000700   001364 710000 21                 TRA     s:18245
        21 000701   001364 710000 21                 TRA     s:18245
        21 000702   001364 710000 21                 TRA     s:18245
        21 000703   001364 710000 21                 TRA     s:18245
        21 000704   001364 710000 21                 TRA     s:18245
        21 000705   001264 710000 21                 TRA     s:18198
        21 000706   001364 710000 21                 TRA     s:18245
        21 000707   001364 710000 21                 TRA     s:18245
        21 000710   001364 710000 21                 TRA     s:18245
        21 000711   001364 710000 21                 TRA     s:18245
        21 000712   001364 710000 21                 TRA     s:18245
        21 000713   001364 710000 21                 TRA     s:18245
        21 000714   001364 710000 21                 TRA     s:18245
        21 000715   001364 710000 21                 TRA     s:18245
        21 000716   001364 710000 21                 TRA     s:18245
        21 000717   001364 710000 21                 TRA     s:18245
        21 000720   001364 710000 21                 TRA     s:18245
        21 000721   001364 710000 21                 TRA     s:18245
        21 000722   001364 710000 21                 TRA     s:18245
        21 000723   001364 710000 21                 TRA     s:18245
        21 000724   001364 710000 21                 TRA     s:18245
        21 000725   001364 710000 21                 TRA     s:18245
PL6.E3A0      #001=Z9EB$DML_USE File=Z9EB.:Z8A6TSI                               SAT 08/09/97 13:43 Page:68
        21 000726   001364 710000 21                 TRA     s:18245
        21 000727   001364 710000 21                 TRA     s:18245
        21 000730   001364 710000 21                 TRA     s:18245
        21 000731   001364 710000 21                 TRA     s:18245
        21 000732   001364 710000 21                 TRA     s:18245
        21 000733   001364 710000 21                 TRA     s:18245
        21 000734   001364 710000 21                 TRA     s:18245
        21 000735   001364 710000 21                 TRA     s:18245
        21 000736   001364 710000 21                 TRA     s:18245
        21 000737   001364 710000 21                 TRA     s:18245
        21 000740   001364 710000 21                 TRA     s:18245
        21 000741   001364 710000 21                 TRA     s:18245
        21 000742   001364 710000 21                 TRA     s:18245
        21 000743   001364 710000 21                 TRA     s:18245
        21 000744   001364 710000 21                 TRA     s:18245
        21 000745   001364 710000 21                 TRA     s:18245
        21 000746   001364 710000 21                 TRA     s:18245
        21 000747   001364 710000 21                 TRA     s:18245
        21 000750   001364 710000 21                 TRA     s:18245
        21 000751   001364 710000 21                 TRA     s:18245
        21 000752   001364 710000 21                 TRA     s:18245
        21 000753   001364 710000 21                 TRA     s:18245
        21 000754   001364 710000 21                 TRA     s:18245
        21 000755   001364 710000 21                 TRA     s:18245
        21 000756   001364 710000 21                 TRA     s:18245
        21 000757   001364 710000 21                 TRA     s:18245
        21 000760   001364 710000 21                 TRA     s:18245
        21 000761   001364 710000 21                 TRA     s:18245
        21 000762   001364 710000 21                 TRA     s:18245
        21 000763   001364 710000 21                 TRA     s:18245
        21 000764   001364 710000 21                 TRA     s:18245
        21 000765   001364 710000 21                 TRA     s:18245
        21 000766   001364 710000 21                 TRA     s:18245
        21 000767   001364 710000 21                 TRA     s:18245
        21 000770   001364 710000 21                 TRA     s:18245
        21 000771   001364 710000 21                 TRA     s:18245
        21 000772   001364 710000 21                 TRA     s:18245
PL6.E3A0      #001=Z9EB$DML_USE File=Z9EB.:Z8A6TSI                               SAT 08/09/97 13:43 Page:69
        21 000773   001364 710000 21                 TRA     s:18245
        21 000774   001364 710000 21                 TRA     s:18245
        21 000775   001364 710000 21                 TRA     s:18245
        21 000776   001364 710000 21                 TRA     s:18245
        21 000777   001364 710000 21                 TRA     s:18245
        21 001000   001364 710000 21                 TRA     s:18245
        21 001001   001364 710000 21                 TRA     s:18245
        21 001002   001364 710000 21                 TRA     s:18245
        21 001003   001364 710000 21                 TRA     s:18245
        21 001004   001364 710000 21                 TRA     s:18245
        21 001005   001364 710000 21                 TRA     s:18245
        21 001006   001364 710000 21                 TRA     s:18245
        21 001007   001364 710000 21                 TRA     s:18245
        21 001010   001364 710000 21                 TRA     s:18245
        21 001011   001364 710000 21                 TRA     s:18245
        21 001012   001364 710000 21                 TRA     s:18245
        21 001013   001364 710000 21                 TRA     s:18245
        21 001014   001232 710000 21                 TRA     s:18180
        21 001015   001364 710000 21                 TRA     s:18245
        21 001016   001364 710000 21                 TRA     s:18245
        21 001017   001364 710000 21                 TRA     s:18245
        21 001020   001364 710000 21                 TRA     s:18245
        21 001021   001364 710000 21                 TRA     s:18245
        21 001022   001364 710000 21                 TRA     s:18245
        21 001023   001364 710000 21                 TRA     s:18245
        21 001024   001364 710000 21                 TRA     s:18245
        21 001025   001364 710000 21                 TRA     s:18245
        21 001026   001364 710000 21                 TRA     s:18245
        21 001027   001364 710000 21                 TRA     s:18245
        21 001030   001364 710000 21                 TRA     s:18245
        21 001031   001364 710000 21                 TRA     s:18245
        21 001032   001364 710000 21                 TRA     s:18245
        21 001033   001364 710000 21                 TRA     s:18245
        21 001034   001364 710000 21                 TRA     s:18245
        21 001035   001364 710000 21                 TRA     s:18245
        21 001036   001364 710000 21                 TRA     s:18245
        21 001037   001364 710000 21                 TRA     s:18245
PL6.E3A0      #001=Z9EB$DML_USE File=Z9EB.:Z8A6TSI                               SAT 08/09/97 13:43 Page:70
        21 001040   001364 710000 21                 TRA     s:18245
        21 001041   001364 710000 21                 TRA     s:18245
        21 001042   001364 710000 21                 TRA     s:18245
        21 001043   001364 710000 21                 TRA     s:18245
        21 001044   001364 710000 21                 TRA     s:18245
        21 001045   001364 710000 21                 TRA     s:18245
        21 001046   001364 710000 21                 TRA     s:18245
        21 001047   001364 710000 21                 TRA     s:18245
        21 001050   001364 710000 21                 TRA     s:18245
        21 001051   001364 710000 21                 TRA     s:18245
        21 001052   001364 710000 21                 TRA     s:18245
        21 001053   001364 710000 21                 TRA     s:18245
        21 001054   001364 710000 21                 TRA     s:18245
        21 001055   001364 710000 21                 TRA     s:18245
        21 001056   001364 710000 21                 TRA     s:18245
        21 001057   001364 710000 21                 TRA     s:18245
        21 001060   001364 710000 21                 TRA     s:18245
        21 001061   001364 710000 21                 TRA     s:18245
        21 001062   001364 710000 21                 TRA     s:18245
        21 001063   001364 710000 21                 TRA     s:18245
        21 001064   001364 710000 21                 TRA     s:18245
        21 001065   001364 710000 21                 TRA     s:18245
        21 001066   001364 710000 21                 TRA     s:18245
        21 001067   001364 710000 21                 TRA     s:18245
        21 001070   001364 710000 21                 TRA     s:18245
        21 001071   001364 710000 21                 TRA     s:18245
        21 001072   001364 710000 21                 TRA     s:18245
        21 001073   001364 710000 21                 TRA     s:18245
        21 001074   001364 710000 21                 TRA     s:18245
        21 001075   001364 710000 21                 TRA     s:18245
        21 001076   001364 710000 21                 TRA     s:18245
        21 001077   001364 710000 21                 TRA     s:18245
        21 001100   001364 710000 21                 TRA     s:18245
        21 001101   001364 710000 21                 TRA     s:18245
        21 001102   001364 710000 21                 TRA     s:18245
        21 001103   001364 710000 21                 TRA     s:18245
        21 001104   001364 710000 21                 TRA     s:18245
PL6.E3A0      #001=Z9EB$DML_USE File=Z9EB.:Z8A6TSI                               SAT 08/09/97 13:43 Page:71
        21 001105   001364 710000 21                 TRA     s:18245
        21 001106   001364 710000 21                 TRA     s:18245
        21 001107   001364 710000 21                 TRA     s:18245
        21 001110   001364 710000 21                 TRA     s:18245
        21 001111   001364 710000 21                 TRA     s:18245
        21 001112   001364 710000 21                 TRA     s:18245
        21 001113   001364 710000 21                 TRA     s:18245
        21 001114   001364 710000 21                 TRA     s:18245
        21 001115   001364 710000 21                 TRA     s:18245
        21 001116   001364 710000 21                 TRA     s:18245
        21 001117   001364 710000 21                 TRA     s:18245
        21 001120   001364 710000 21                 TRA     s:18245
        21 001121   001364 710000 21                 TRA     s:18245
        21 001122   001364 710000 21                 TRA     s:18245
        21 001123   001364 710000 21                 TRA     s:18245
        21 001124   001364 710000 21                 TRA     s:18245
        21 001125   001364 710000 21                 TRA     s:18245
        21 001126   001364 710000 21                 TRA     s:18245
        21 001127   001364 710000 21                 TRA     s:18245
        21 001130   001364 710000 21                 TRA     s:18245
        21 001131   001364 710000 21                 TRA     s:18245
        21 001132   001364 710000 21                 TRA     s:18245
        21 001133   001364 710000 21                 TRA     s:18245
        21 001134   001364 710000 21                 TRA     s:18245
        21 001135   001364 710000 21                 TRA     s:18245
        21 001136   001364 710000 21                 TRA     s:18245
        21 001137   001364 710000 21                 TRA     s:18245
        21 001140   001364 710000 21                 TRA     s:18245
        21 001141   001364 710000 21                 TRA     s:18245
        21 001142   001364 710000 21                 TRA     s:18245
        21 001143   001364 710000 21                 TRA     s:18245
        21 001144   001364 710000 21                 TRA     s:18245
        21 001145   001364 710000 21                 TRA     s:18245
        21 001146   001364 710000 21                 TRA     s:18245
        21 001147   001364 710000 21                 TRA     s:18245
        21 001150   001364 710000 21                 TRA     s:18245
        21 001151   001364 710000 21                 TRA     s:18245
PL6.E3A0      #001=Z9EB$DML_USE File=Z9EB.:Z8A6TSI                               SAT 08/09/97 13:43 Page:72
        21 001152   001364 710000 21                 TRA     s:18245
        21 001153   001364 710000 21                 TRA     s:18245
        21 001154   001364 710000 21                 TRA     s:18245
        21 001155   001364 710000 21                 TRA     s:18245
        21 001156   001364 710000 21                 TRA     s:18245
        21 001157   001364 710000 21                 TRA     s:18245
        21 001160   001364 710000 21                 TRA     s:18245
        21 001161   001364 710000 21                 TRA     s:18245
        21 001162   001364 710000 21                 TRA     s:18245
        21 001163   001364 710000 21                 TRA     s:18245
        21 001164   001364 710000 21                 TRA     s:18245
        21 001165   001364 710000 21                 TRA     s:18245
        21 001166   001364 710000 21                 TRA     s:18245
        21 001167   001364 710000 21                 TRA     s:18245
        21 001170   001364 710000 21                 TRA     s:18245
        21 001171   001364 710000 21                 TRA     s:18245
        21 001172   001364 710000 21                 TRA     s:18245
        21 001173   001364 710000 21                 TRA     s:18245
        21 001174   001364 710000 21                 TRA     s:18245
        21 001175   001364 710000 21                 TRA     s:18245
        21 001176   001364 710000 21                 TRA     s:18245
        21 001177   001364 710000 21                 TRA     s:18245
        21 001200   001364 710000 21                 TRA     s:18245
        21 001201   001364 710000 21                 TRA     s:18245
        21 001202   001364 710000 21                 TRA     s:18245
        21 001203   001364 710000 21                 TRA     s:18245
        21 001204   001364 710000 21                 TRA     s:18245
        21 001205   001364 710000 21                 TRA     s:18245
        21 001206   001364 710000 21                 TRA     s:18245
        21 001207   001364 710000 21                 TRA     s:18245
        21 001210   001364 710000 21                 TRA     s:18245
        21 001211   001364 710000 21                 TRA     s:18245
        21 001212   001364 710000 21                 TRA     s:18245
        21 001213   001364 710000 21                 TRA     s:18245
        21 001214   001364 710000 21                 TRA     s:18245
        21 001215   001364 710000 21                 TRA     s:18245
        21 001216   001364 710000 21                 TRA     s:18245
PL6.E3A0      #001=Z9EB$DML_USE File=Z9EB.:Z8A6TSI                               SAT 08/09/97 13:43 Page:73
        21 001217   001364 710000 21                 TRA     s:18245
        21 001220   001364 710000 21                 TRA     s:18245
        21 001221   001364 710000 21                 TRA     s:18245
        21 001222   001364 710000 21                 TRA     s:18245
        21 001223   001364 710000 21                 TRA     s:18245
        21 001224   001364 710000 21                 TRA     s:18245
        21 001225   001364 710000 21                 TRA     s:18245
        21 001226   001364 710000 21                 TRA     s:18245
        21 001227   001364 710000 21                 TRA     s:18245
        21 001230   001364 710000 21                 TRA     s:18245
        21 001231   001316 710000 21                 TRA     s:18216

      360    18178
      361    18179    5           CASE(%RSV_WRD_MODIFY);

      362    18180    5               IF MODIFY_RECORD_ALL = %FALSE        THEN

  18180 21 001232   000006 234000 19                 SZN     MODIFY_RECORD_ALL
        21 001233   001244 604000 21                 TMI     s:18186

      363    18181    6                 DO;

      364    18182    6                   MODIFY_RECORD_ALL = %TRUE;

  18182 21 001234   400000 236003                    LDQ     -131072,DU
        21 001235   000006 756000 19                 STQ     MODIFY_RECORD_ALL

      365    18183    6                   VERB = VERB + %MODIFY;

  18183 21 001236   200023 236100                    LDQ     VERB,,AUTO
        21 001237   000035 772000                    QRL     29
        21 001240   000040 036007                    ADLQ    32,DL
        21 001241   000035 736000                    QLS     29
        21 001242   200023 756100                    STQ     VERB,,AUTO

      366    18184    6                 END;

PL6.E3A0      #001=Z9EB$DML_USE File=Z9EB.:Z8A6TSI                               SAT 08/09/97 13:43 Page:74
  18184 21 001243   001364 710000 21                 TRA     s:18245

      367    18185    5               ELSE
      368    18186    5                   DUPLICATE_FLAG = %TRUE;

  18186 21 001244   400000 236003                    LDQ     -131072,DU
        21 001245   200022 756100                    STQ     DUPLICATE_FLAG,,AUTO
        21 001246   001364 710000 21                 TRA     s:18245

      369    18187
      370    18188    5           CASE(%RSV_WRD_FIND);

      371    18189    5               IF FIND_RECORD_ALL = %FALSE        THEN

  18189 21 001247   000014 234000 19                 SZN     FIND_RECORD_ALL
        21 001250   001261 604000 21                 TMI     s:18195

      372    18190    6                 DO;

      373    18191    6                   FIND_RECORD_ALL = %TRUE;

  18191 21 001251   400000 236003                    LDQ     -131072,DU
        21 001252   000014 756000 19                 STQ     FIND_RECORD_ALL

      374    18192    6                   VERB = VERB + %FIND;

  18192 21 001253   200023 236100                    LDQ     VERB,,AUTO
        21 001254   000035 772000                    QRL     29
        21 001255   000001 036007                    ADLQ    1,DL
        21 001256   000035 736000                    QLS     29
        21 001257   200023 756100                    STQ     VERB,,AUTO

      375    18193    6                 END;

  18193 21 001260   001364 710000 21                 TRA     s:18245

      376    18194    5               ELSE
PL6.E3A0      #001=Z9EB$DML_USE File=Z9EB.:Z8A6TSI                               SAT 08/09/97 13:43 Page:75
      377    18195    5                   DUPLICATE_FLAG = %TRUE;

  18195 21 001261   400000 236003                    LDQ     -131072,DU
        21 001262   200022 756100                    STQ     DUPLICATE_FLAG,,AUTO
        21 001263   001364 710000 21                 TRA     s:18245

      378    18196
      379    18197    5           CASE(%RSV_WRD_GET);

      380    18198    5               IF GET_RECORD_ALL = %FALSE        THEN

  18198 21 001264   000013 234000 19                 SZN     GET_RECORD_ALL
        21 001265   001276 604000 21                 TMI     s:18204

      381    18199    6                 DO;

      382    18200    6                   GET_RECORD_ALL = %TRUE;

  18200 21 001266   400000 236003                    LDQ     -131072,DU
        21 001267   000013 756000 19                 STQ     GET_RECORD_ALL

      383    18201    6                   VERB = VERB + %GET;

  18201 21 001270   200023 236100                    LDQ     VERB,,AUTO
        21 001271   000035 772000                    QRL     29
        21 001272   000100 036007                    ADLQ    64,DL
        21 001273   000035 736000                    QLS     29
        21 001274   200023 756100                    STQ     VERB,,AUTO

      384    18202    6                 END;

  18202 21 001275   001364 710000 21                 TRA     s:18245

      385    18203    5               ELSE
      386    18204    5                   DUPLICATE_FLAG = %TRUE;

  18204 21 001276   400000 236003                    LDQ     -131072,DU
PL6.E3A0      #001=Z9EB$DML_USE File=Z9EB.:Z8A6TSI                               SAT 08/09/97 13:43 Page:76
        21 001277   200022 756100                    STQ     DUPLICATE_FLAG,,AUTO
        21 001300   001364 710000 21                 TRA     s:18245

      387    18205
      388    18206    5           CASE(%RSV_WRD_ERASE);

      389    18207    5               IF ERASE_RECORD_ALL = %FALSE        THEN

  18207 21 001301   000012 234000 19                 SZN     ERASE_RECORD_ALL
        21 001302   001313 604000 21                 TMI     s:18213

      390    18208    6                 DO;

      391    18209    6                   ERASE_RECORD_ALL = %TRUE;

  18209 21 001303   400000 236003                    LDQ     -131072,DU
        21 001304   000012 756000 19                 STQ     ERASE_RECORD_ALL

      392    18210    6                   VERB = VERB + %ERASE;

  18210 21 001305   200023 236100                    LDQ     VERB,,AUTO
        21 001306   000035 772000                    QRL     29
        21 001307   000010 036007                    ADLQ    8,DL
        21 001310   000035 736000                    QLS     29
        21 001311   200023 756100                    STQ     VERB,,AUTO

      393    18211    6                 END;

  18211 21 001312   001364 710000 21                 TRA     s:18245

      394    18212    5               ELSE
      395    18213    5                   DUPLICATE_FLAG = %TRUE;

  18213 21 001313   400000 236003                    LDQ     -131072,DU
        21 001314   200022 756100                    STQ     DUPLICATE_FLAG,,AUTO
        21 001315   001364 710000 21                 TRA     s:18245

PL6.E3A0      #001=Z9EB$DML_USE File=Z9EB.:Z8A6TSI                               SAT 08/09/97 13:43 Page:77
      396    18214
      397    18215    5           CASE(%RSV_WRD_STORE);

      398    18216    5               IF STORE_RECORD_ALL = %FALSE        THEN

  18216 21 001316   000011 234000 19                 SZN     STORE_RECORD_ALL
        21 001317   001330 604000 21                 TMI     s:18222

      399    18217    6                 DO;

      400    18218    6                   STORE_RECORD_ALL = %TRUE;

  18218 21 001320   400000 236003                    LDQ     -131072,DU
        21 001321   000011 756000 19                 STQ     STORE_RECORD_ALL

      401    18219    6                   VERB = VERB + %STORE;

  18219 21 001322   200023 236100                    LDQ     VERB,,AUTO
        21 001323   000035 772000                    QRL     29
        21 001324   000020 036007                    ADLQ    16,DL
        21 001325   000035 736000                    QLS     29
        21 001326   200023 756100                    STQ     VERB,,AUTO

      402    18220    6                 END;

  18220 21 001327   001364 710000 21                 TRA     s:18245

      403    18221    5               ELSE
      404    18222    5                   DUPLICATE_FLAG = %TRUE;

  18222 21 001330   400000 236003                    LDQ     -131072,DU
        21 001331   200022 756100                    STQ     DUPLICATE_FLAG,,AUTO
        21 001332   001364 710000 21                 TRA     s:18245

      405    18223
      406    18224    5           CASE(%RSV_WRD_DISCONNECT);

PL6.E3A0      #001=Z9EB$DML_USE File=Z9EB.:Z8A6TSI                               SAT 08/09/97 13:43 Page:78
      407    18225    5               IF DISCONNECT_RECORD_ALL = %FALSE        THEN

  18225 21 001333   000010 234000 19                 SZN     DISCONNECT_RECORD_ALL
        21 001334   001345 604000 21                 TMI     s:18231

      408    18226    6                 DO;

      409    18227    6                   DISCONNECT_RECORD_ALL = %TRUE;

  18227 21 001335   400000 236003                    LDQ     -131072,DU
        21 001336   000010 756000 19                 STQ     DISCONNECT_RECORD_ALL

      410    18228    6                   VERB = VERB + %DISCONNECT;

  18228 21 001337   200023 236100                    LDQ     VERB,,AUTO
        21 001340   000035 772000                    QRL     29
        21 001341   000002 036007                    ADLQ    2,DL
        21 001342   000035 736000                    QLS     29
        21 001343   200023 756100                    STQ     VERB,,AUTO

      411    18229    6                 END;

  18229 21 001344   001364 710000 21                 TRA     s:18245

      412    18230    5               ELSE
      413    18231    5                   DUPLICATE_FLAG = %TRUE;

  18231 21 001345   400000 236003                    LDQ     -131072,DU
        21 001346   200022 756100                    STQ     DUPLICATE_FLAG,,AUTO
        21 001347   001364 710000 21                 TRA     s:18245

      414    18232
      415    18233    5           CASE(%RSV_WRD_CONNECT);

      416    18234    5               IF CONNECT_RECORD_ALL = %FALSE        THEN

  18234 21 001350   000007 234000 19                 SZN     CONNECT_RECORD_ALL
PL6.E3A0      #001=Z9EB$DML_USE File=Z9EB.:Z8A6TSI                               SAT 08/09/97 13:43 Page:79
        21 001351   001362 604000 21                 TMI     s:18240

      417    18235    6                 DO;

      418    18236    6                   CONNECT_RECORD_ALL = %TRUE;

  18236 21 001352   400000 236003                    LDQ     -131072,DU
        21 001353   000007 756000 19                 STQ     CONNECT_RECORD_ALL

      419    18237    6                   VERB = VERB + %CONNECT;

  18237 21 001354   200023 236100                    LDQ     VERB,,AUTO
        21 001355   000035 772000                    QRL     29
        21 001356   000004 036007                    ADLQ    4,DL
        21 001357   000035 736000                    QLS     29
        21 001360   200023 756100                    STQ     VERB,,AUTO

      420    18238    6                 END;

  18238 21 001361   001364 710000 21                 TRA     s:18245

      421    18239    5               ELSE
      422    18240    5                   DUPLICATE_FLAG = %TRUE;

  18240 21 001362   400000 236003                    LDQ     -131072,DU
        21 001363   200022 756100                    STQ     DUPLICATE_FLAG,,AUTO

      423    18241
      424    18242
      425    18243    5         END;/*V*      CASE    */

      426    18244
      427    18245    4         IF DUPLICATE_FLAG = %TRUE    THEN

  18245 21 001364   200022 234100                    SZN     DUPLICATE_FLAG,,AUTO
        21 001365   001402 605000 21                 TPL     s:18253

PL6.E3A0      #001=Z9EB$DML_USE File=Z9EB.:Z8A6TSI                               SAT 08/09/97 13:43 Page:80
      428    18246    5           DO;

      429    18247    5             CALL Z8AE$ERROR( %E$DUPLICATE_ON_PHRASE,

  18247 21 001366   200013 236100                    LDQ     WORD$,,AUTO
        21 001367   000006 036003                    ADLQ    6,DU
        21 001370   200050 756100                    STQ     @UCW_CONST+3,,AUTO
        21 001371   200013 236100                    LDQ     WORD$,,AUTO
        21 001372   000005 036003                    ADLQ    5,DU
        21 001373   000035 235000 22                 LDA     29
        21 001374   200046 757100                    STAQ    @UCW_CONST+1,,AUTO
        21 001375   200046 630500                    EPPR0   @UCW_CONST+1,,AUTO
        21 001376   000025 631400 22                 EPPR1   21
        21 001377   000000 701000 xent               TSX1    Z8AE$ERROR
        21 001400   000000 011000                    NOP     0

      430    18248    5                              WORD$ -> LX_ITEM.LINE,
      431    18249    5                              WORD$ -> LX_ITEM.COLUMN);
      432    18250    5             DUPLICATE_FLAG = %FALSE;

  18250 21 001401   200022 450100                    STZ     DUPLICATE_FLAG,,AUTO

      433    18251    5           END;

      434    18252
      435    18253    4         WORD$ = WORD$ -> LX_ITEM.LINK;

  18253 21 001402   200013 470500                    LDP0    WORD$,,AUTO
        21 001403   000007 236100                    LDQ     7,,PR0
        21 001404   200013 756100                    STQ     WORD$,,AUTO

      436    18254
      437    18255    4       END;   /*V*  WHILE WORD$ ~= ADDR(NIL) */

  18255 21 001405   000000 116000 22                 CMPQ    0
        21 001406   000515 601000 21                 TNZ     s:18177

PL6.E3A0      #001=Z9EB$DML_USE File=Z9EB.:Z8A6TSI                               SAT 08/09/97 13:43 Page:81
      438    18256
      439    18257    3   END RECORD_CHECK;

  18257 21 001407   200044 221300                    LDX1  ! STORE_FIELD+1,,AUTO
        21 001410   000001 702211                    TSX2  ! 1,X1

      440    18258        %EJECT;
PL6.E3A0      #001=Z9EB$DML_USE File=Z9EB.:Z8A6TSI                               SAT 08/09/97 13:43 Page:82
      441    18259        /*---------*/
      442    18260    2     SET_CHECK :  PROC ;

  18260 21 001411   200044 741300       SET_CHECK    STX1  ! STORE_FIELD+1,,AUTO

      443    18261        /*---------*/
      444    18262
      445    18263    3       IF WORD_LIST$ -> LX_ITEM.ID = %LX_TERMINAL AND WORD_LIST$ -> LX_ITEM.SYMBOL = %
             18263                EMPTY         THEN

  18263 21 001412   200011 470500                    LDP0    WORD_LIST$,,AUTO
        21 001413   000000 220100                    LDX0    0,,PR0
        21 001414   001426 601000 21                 TNZ     s:18271
        21 001415   000003 235100                    LDA     3,,PR0
        21 001416   001426 601000 21                 TNZ     s:18271

      446    18264    3           IF PRIVACY_SET_ALL = %FALSE  THEN

  18264 21 001417   000004 234000 19                 SZN     PRIVACY_SET_ALL
        21 001420   001426 604000 21                 TMI     s:18271

      447    18265    4             DO;

      448    18266    4               PRIVACY_SET_ALL = %TRUE;

  18266 21 001421   400000 236003                    LDQ     -131072,DU
        21 001422   000004 756000 19                 STQ     PRIVACY_SET_ALL

      449    18267    4               VERB = %ALL_SET_VERBS;

  18267 21 001423   034000 236003                    LDQ     14336,DU
        21 001424   200023 756100                    STQ     VERB,,AUTO

      450    18268    4               RETURN;

  18268 21 001425   000001 702211                    TSX2  ! 1,X1

PL6.E3A0      #001=Z9EB$DML_USE File=Z9EB.:Z8A6TSI                               SAT 08/09/97 13:43 Page:83
      451    18269    4             END;
      452    18270
      453    18271    3       IF PRIVACY_SET_ALL = %TRUE         THEN

  18271 21 001426   000004 234000 19                 SZN     PRIVACY_SET_ALL
        21 001427   001445 605000 21                 TPL     s:18279

      454    18272    4         DO;

      455    18273    4           CALL Z8AE$ERROR(%E$DUPLICATE_SET_ALL,

  18273 21 001430   000004 471500                    LDP1    4,,PR0
        21 001431   100006 633500                    EPPR3   6,,PR1
        21 001432   200050 453500                    STP3    @UCW_CONST+3,,AUTO
        21 001433   100005 634500                    EPPR4   5,,PR1
        21 001434   200047 454500                    STP4    @UCW_CONST+2,,AUTO
        21 001435   000037 236000 22                 LDQ     31
        21 001436   200046 756100                    STQ     @UCW_CONST+1,,AUTO
        21 001437   200046 630500                    EPPR0   @UCW_CONST+1,,AUTO
        21 001440   000025 631400 22                 EPPR1   21
        21 001441   000000 701000 xent               TSX1    Z8AE$ERROR
        21 001442   000000 011000                    NOP     0

      456    18274    4                           WORD_LIST$ -> LX_LIST.HEAD$ -> LX_ITEM.LINE,
      457    18275    4                           WORD_LIST$ -> LX_LIST.HEAD$ -> LX_ITEM.COLUMN);
      458    18276    4           RETURN;

  18276 21 001443   200044 221300                    LDX1  ! STORE_FIELD+1,,AUTO
        21 001444   000001 702211                    TSX2  ! 1,X1

      459    18277    4         END;
      460    18278
      461    18279    3       DUPLICATE_FLAG = %FALSE;

  18279 21 001445   200022 450100                    STZ     DUPLICATE_FLAG,,AUTO

      462    18280    3       WORD$ = WORD_LIST$ -> LX_LIST.HEAD$;
PL6.E3A0      #001=Z9EB$DML_USE File=Z9EB.:Z8A6TSI                               SAT 08/09/97 13:43 Page:84

  18280 21 001446   000004 236100                    LDQ     4,,PR0
        21 001447   200013 756100                    STQ     WORD$,,AUTO

      463    18281    4       DO WHILE WORD$ ~= ADDR(NIL);

  18281 21 001450   001734 710000 21                 TRA     s:18330

      464    18282
      465    18283    5         DO CASE(WORD$ -> LX_ITEM.SYMBOL);

  18283 21 001451   200013 470500                    LDP0    WORD$,,AUTO
        21 001452   000003 235100                    LDA     3,,PR0
        21 001453   000154 135007                    SBLA    108,DL
        21 001454   000147 115007                    CMPA    103,DL
        21 001455   001457 602005 21                 TNC     s:18283+6,AL
        21 001456   001675 710000 21                 TRA     s:18313
        21 001457   001660 710000 21                 TRA     s:18304
        21 001460   001675 710000 21                 TRA     s:18313
        21 001461   001675 710000 21                 TRA     s:18313
        21 001462   001675 710000 21                 TRA     s:18313
        21 001463   001675 710000 21                 TRA     s:18313
        21 001464   001675 710000 21                 TRA     s:18313
        21 001465   001675 710000 21                 TRA     s:18313
        21 001466   001675 710000 21                 TRA     s:18313
        21 001467   001675 710000 21                 TRA     s:18313
        21 001470   001675 710000 21                 TRA     s:18313
        21 001471   001675 710000 21                 TRA     s:18313
        21 001472   001675 710000 21                 TRA     s:18313
        21 001473   001675 710000 21                 TRA     s:18313
        21 001474   001675 710000 21                 TRA     s:18313
        21 001475   001675 710000 21                 TRA     s:18313
        21 001476   001675 710000 21                 TRA     s:18313
        21 001477   001675 710000 21                 TRA     s:18313
        21 001500   001675 710000 21                 TRA     s:18313
        21 001501   001675 710000 21                 TRA     s:18313
        21 001502   001675 710000 21                 TRA     s:18313
PL6.E3A0      #001=Z9EB$DML_USE File=Z9EB.:Z8A6TSI                               SAT 08/09/97 13:43 Page:85
        21 001503   001675 710000 21                 TRA     s:18313
        21 001504   001675 710000 21                 TRA     s:18313
        21 001505   001675 710000 21                 TRA     s:18313
        21 001506   001675 710000 21                 TRA     s:18313
        21 001507   001675 710000 21                 TRA     s:18313
        21 001510   001675 710000 21                 TRA     s:18313
        21 001511   001675 710000 21                 TRA     s:18313
        21 001512   001675 710000 21                 TRA     s:18313
        21 001513   001675 710000 21                 TRA     s:18313
        21 001514   001675 710000 21                 TRA     s:18313
        21 001515   001675 710000 21                 TRA     s:18313
        21 001516   001675 710000 21                 TRA     s:18313
        21 001517   001675 710000 21                 TRA     s:18313
        21 001520   001675 710000 21                 TRA     s:18313
        21 001521   001675 710000 21                 TRA     s:18313
        21 001522   001675 710000 21                 TRA     s:18313
        21 001523   001675 710000 21                 TRA     s:18313
        21 001524   001675 710000 21                 TRA     s:18313
        21 001525   001675 710000 21                 TRA     s:18313
        21 001526   001675 710000 21                 TRA     s:18313
        21 001527   001643 710000 21                 TRA     s:18295
        21 001530   001675 710000 21                 TRA     s:18313
        21 001531   001675 710000 21                 TRA     s:18313
        21 001532   001675 710000 21                 TRA     s:18313
        21 001533   001675 710000 21                 TRA     s:18313
        21 001534   001675 710000 21                 TRA     s:18313
        21 001535   001675 710000 21                 TRA     s:18313
        21 001536   001675 710000 21                 TRA     s:18313
        21 001537   001675 710000 21                 TRA     s:18313
        21 001540   001675 710000 21                 TRA     s:18313
        21 001541   001675 710000 21                 TRA     s:18313
        21 001542   001675 710000 21                 TRA     s:18313
        21 001543   001675 710000 21                 TRA     s:18313
        21 001544   001675 710000 21                 TRA     s:18313
        21 001545   001675 710000 21                 TRA     s:18313
        21 001546   001675 710000 21                 TRA     s:18313
        21 001547   001675 710000 21                 TRA     s:18313
PL6.E3A0      #001=Z9EB$DML_USE File=Z9EB.:Z8A6TSI                               SAT 08/09/97 13:43 Page:86
        21 001550   001675 710000 21                 TRA     s:18313
        21 001551   001675 710000 21                 TRA     s:18313
        21 001552   001675 710000 21                 TRA     s:18313
        21 001553   001675 710000 21                 TRA     s:18313
        21 001554   001675 710000 21                 TRA     s:18313
        21 001555   001675 710000 21                 TRA     s:18313
        21 001556   001675 710000 21                 TRA     s:18313
        21 001557   001675 710000 21                 TRA     s:18313
        21 001560   001675 710000 21                 TRA     s:18313
        21 001561   001675 710000 21                 TRA     s:18313
        21 001562   001675 710000 21                 TRA     s:18313
        21 001563   001675 710000 21                 TRA     s:18313
        21 001564   001675 710000 21                 TRA     s:18313
        21 001565   001675 710000 21                 TRA     s:18313
        21 001566   001675 710000 21                 TRA     s:18313
        21 001567   001675 710000 21                 TRA     s:18313
        21 001570   001675 710000 21                 TRA     s:18313
        21 001571   001675 710000 21                 TRA     s:18313
        21 001572   001675 710000 21                 TRA     s:18313
        21 001573   001675 710000 21                 TRA     s:18313
        21 001574   001675 710000 21                 TRA     s:18313
        21 001575   001675 710000 21                 TRA     s:18313
        21 001576   001675 710000 21                 TRA     s:18313
        21 001577   001675 710000 21                 TRA     s:18313
        21 001600   001675 710000 21                 TRA     s:18313
        21 001601   001675 710000 21                 TRA     s:18313
        21 001602   001675 710000 21                 TRA     s:18313
        21 001603   001675 710000 21                 TRA     s:18313
        21 001604   001675 710000 21                 TRA     s:18313
        21 001605   001675 710000 21                 TRA     s:18313
        21 001606   001675 710000 21                 TRA     s:18313
        21 001607   001675 710000 21                 TRA     s:18313
        21 001610   001675 710000 21                 TRA     s:18313
        21 001611   001675 710000 21                 TRA     s:18313
        21 001612   001675 710000 21                 TRA     s:18313
        21 001613   001675 710000 21                 TRA     s:18313
        21 001614   001675 710000 21                 TRA     s:18313
PL6.E3A0      #001=Z9EB$DML_USE File=Z9EB.:Z8A6TSI                               SAT 08/09/97 13:43 Page:87
        21 001615   001675 710000 21                 TRA     s:18313
        21 001616   001675 710000 21                 TRA     s:18313
        21 001617   001675 710000 21                 TRA     s:18313
        21 001620   001675 710000 21                 TRA     s:18313
        21 001621   001675 710000 21                 TRA     s:18313
        21 001622   001675 710000 21                 TRA     s:18313
        21 001623   001675 710000 21                 TRA     s:18313
        21 001624   001675 710000 21                 TRA     s:18313
        21 001625   001626 710000 21                 TRA     s:18286

      466    18284
      467    18285    5           CASE(%RSV_WRD_FIND);

      468    18286    5               IF FIND_SET_ALL = %FALSE        THEN

  18286 21 001626   000017 234000 19                 SZN     FIND_SET_ALL
        21 001627   001640 604000 21                 TMI     s:18292

      469    18287    6                 DO;

      470    18288    6                   FIND_SET_ALL = %TRUE;

  18288 21 001630   400000 236003                    LDQ     -131072,DU
        21 001631   000017 756000 19                 STQ     FIND_SET_ALL

      471    18289    6                   VERB = VERB + %FIND;

  18289 21 001632   200023 236100                    LDQ     VERB,,AUTO
        21 001633   000035 772000                    QRL     29
        21 001634   000001 036007                    ADLQ    1,DL
        21 001635   000035 736000                    QLS     29
        21 001636   200023 756100                    STQ     VERB,,AUTO

      472    18290    6                 END;

  18290 21 001637   001713 710000 21                 TRA     s:18320

PL6.E3A0      #001=Z9EB$DML_USE File=Z9EB.:Z8A6TSI                               SAT 08/09/97 13:43 Page:88
      473    18291    5               ELSE
      474    18292    5                   DUPLICATE_FLAG = %TRUE;

  18292 21 001640   400000 236003                    LDQ     -131072,DU
        21 001641   200022 756100                    STQ     DUPLICATE_FLAG,,AUTO
        21 001642   001713 710000 21                 TRA     s:18320

      475    18293
      476    18294    5           CASE(%RSV_WRD_DISCONNECT);

      477    18295    5               IF DISCONNECT_SET_ALL = %FALSE        THEN

  18295 21 001643   000016 234000 19                 SZN     DISCONNECT_SET_ALL
        21 001644   001655 604000 21                 TMI     s:18301

      478    18296    6                 DO;

      479    18297    6                   DISCONNECT_SET_ALL = %TRUE;

  18297 21 001645   400000 236003                    LDQ     -131072,DU
        21 001646   000016 756000 19                 STQ     DISCONNECT_SET_ALL

      480    18298    6                   VERB = VERB + %DISCONNECT;

  18298 21 001647   200023 236100                    LDQ     VERB,,AUTO
        21 001650   000035 772000                    QRL     29
        21 001651   000002 036007                    ADLQ    2,DL
        21 001652   000035 736000                    QLS     29
        21 001653   200023 756100                    STQ     VERB,,AUTO

      481    18299    6                 END;

  18299 21 001654   001713 710000 21                 TRA     s:18320

      482    18300    5               ELSE
      483    18301    5                   DUPLICATE_FLAG = %TRUE;

PL6.E3A0      #001=Z9EB$DML_USE File=Z9EB.:Z8A6TSI                               SAT 08/09/97 13:43 Page:89
  18301 21 001655   400000 236003                    LDQ     -131072,DU
        21 001656   200022 756100                    STQ     DUPLICATE_FLAG,,AUTO
        21 001657   001713 710000 21                 TRA     s:18320

      484    18302
      485    18303    5           CASE(%RSV_WRD_CONNECT);

      486    18304    5               IF CONNECT_SET_ALL = %FALSE        THEN

  18304 21 001660   000015 234000 19                 SZN     CONNECT_SET_ALL
        21 001661   001672 604000 21                 TMI     s:18310

      487    18305    6                 DO;

      488    18306    6                   CONNECT_SET_ALL = %TRUE;

  18306 21 001662   400000 236003                    LDQ     -131072,DU
        21 001663   000015 756000 19                 STQ     CONNECT_SET_ALL

      489    18307    6                   VERB = VERB + %CONNECT;

  18307 21 001664   200023 236100                    LDQ     VERB,,AUTO
        21 001665   000035 772000                    QRL     29
        21 001666   000004 036007                    ADLQ    4,DL
        21 001667   000035 736000                    QLS     29
        21 001670   200023 756100                    STQ     VERB,,AUTO

      490    18308    6                 END;

  18308 21 001671   001713 710000 21                 TRA     s:18320

      491    18309    5               ELSE
      492    18310    5                   DUPLICATE_FLAG = %TRUE;

  18310 21 001672   400000 236003                    LDQ     -131072,DU
        21 001673   200022 756100                    STQ     DUPLICATE_FLAG,,AUTO
        21 001674   001713 710000 21                 TRA     s:18320
PL6.E3A0      #001=Z9EB$DML_USE File=Z9EB.:Z8A6TSI                               SAT 08/09/97 13:43 Page:90

      493    18311
      494    18312    5            CASE(ELSE);

      495    18313    5               CALL Z8AE$ERROR(%E$SET_PRIVACY,

  18313 21 001675   200013 236100                    LDQ     WORD$,,AUTO
        21 001676   000002 036003                    ADLQ    2,DU
        21 001677   200051 756100                    STQ     @UCW_CONST+4,,AUTO
        21 001700   200013 236100                    LDQ     WORD$,,AUTO
        21 001701   000006 036003                    ADLQ    6,DU
        21 001702   200050 756100                    STQ     @UCW_CONST+3,,AUTO
        21 001703   200013 236100                    LDQ     WORD$,,AUTO
        21 001704   000005 036003                    ADLQ    5,DU
        21 001705   000041 235000 22                 LDA     33
        21 001706   200046 757100                    STAQ    @UCW_CONST+1,,AUTO
        21 001707   200046 630500                    EPPR0   @UCW_CONST+1,,AUTO
        21 001710   000003 631400 22                 EPPR1   3
        21 001711   000000 701000 xent               TSX1    Z8AE$ERROR
        21 001712   000000 011000                    NOP     0

      496    18314    5                               WORD$ -> LX_ITEM.LINE,
      497    18315    5                               WORD$ -> LX_ITEM.COLUMN,
      498    18316    5                               WORD$ -> LX_ITEM.DNT$);
      499    18317
      500    18318    5         END;/*V*      CASE    */

      501    18319
      502    18320    4         IF DUPLICATE_FLAG = %TRUE    THEN

  18320 21 001713   200022 234100                    SZN     DUPLICATE_FLAG,,AUTO
        21 001714   001731 605000 21                 TPL     s:18328

      503    18321    5           DO;

      504    18322    5             CALL Z8AE$ERROR( %E$DUPLICATE_ON_PHRASE,

PL6.E3A0      #001=Z9EB$DML_USE File=Z9EB.:Z8A6TSI                               SAT 08/09/97 13:43 Page:91
  18322 21 001715   200013 236100                    LDQ     WORD$,,AUTO
        21 001716   000006 036003                    ADLQ    6,DU
        21 001717   200050 756100                    STQ     @UCW_CONST+3,,AUTO
        21 001720   200013 236100                    LDQ     WORD$,,AUTO
        21 001721   000005 036003                    ADLQ    5,DU
        21 001722   000035 235000 22                 LDA     29
        21 001723   200046 757100                    STAQ    @UCW_CONST+1,,AUTO
        21 001724   200046 630500                    EPPR0   @UCW_CONST+1,,AUTO
        21 001725   000025 631400 22                 EPPR1   21
        21 001726   000000 701000 xent               TSX1    Z8AE$ERROR
        21 001727   000000 011000                    NOP     0

      505    18323    5                              WORD$ -> LX_ITEM.LINE,
      506    18324    5                              WORD$ -> LX_ITEM.COLUMN);
      507    18325    5             DUPLICATE_FLAG = %FALSE;

  18325 21 001730   200022 450100                    STZ     DUPLICATE_FLAG,,AUTO

      508    18326    5           END;

      509    18327
      510    18328    4         WORD$ = WORD$ -> LX_ITEM.LINK;

  18328 21 001731   200013 470500                    LDP0    WORD$,,AUTO
        21 001732   000007 236100                    LDQ     7,,PR0
        21 001733   200013 756100                    STQ     WORD$,,AUTO

      511    18329
      512    18330    4       END;    /*V*  WHILE WORD$ ~= ADDR(NIL)  */

  18330 21 001734   000000 116000 22                 CMPQ    0
        21 001735   001451 601000 21                 TNZ     s:18283

      513    18331    3   END SET_CHECK;

  18331 21 001736   200044 221300                    LDX1  ! STORE_FIELD+1,,AUTO
        21 001737   000001 702211                    TSX2  ! 1,X1
PL6.E3A0      #001=Z9EB$DML_USE File=Z9EB.:Z8A6TSI                               SAT 08/09/97 13:43 Page:92

      514    18332        %EJECT;
PL6.E3A0      #001=Z9EB$DML_USE File=Z9EB.:Z8A6TSI                               SAT 08/09/97 13:43 Page:93
      515    18333        /*------------*/
      516    18334    2     RECORD_CHECK_LIST : PROC;

  18334 21 001740   200044 741300       RECORD_CHEC* STX1  ! STORE_FIELD+1,,AUTO

      517    18335        /*------------*/
      518    18336
      519    18337    3       IF WORD_LIST$ -> LX_ITEM.ID = %LX_TERMINAL AND WORD_LIST$ -> LX_ITEM.SYMBOL = %
             18337                EMPTY         THEN

  18337 21 001741   200011 470500                    LDP0    WORD_LIST$,,AUTO
        21 001742   000000 220100                    LDX0    0,,PR0
        21 001743   001753 601000 21                 TNZ     s:18344
        21 001744   000003 235100                    LDA     3,,PR0
        21 001745   001753 601000 21                 TNZ     s:18344

      520    18338    3           IF PRIVACY_RECORD_ALL = %FALSE  THEN

  18338 21 001746   000003 234000 19                 SZN     PRIVACY_RECORD_ALL
        21 001747   001753 604000 21                 TMI     s:18344

      521    18339    4             DO;

      522    18340    4               VERB = %ALL_RECORD_VERBS;

  18340 21 001750   774000 236003                    LDQ     -2048,DU
        21 001751   200023 756100                    STQ     VERB,,AUTO

      523    18341    4               RETURN;

  18341 21 001752   000001 702211                    TSX2  ! 1,X1

      524    18342    4             END;
      525    18343
      526    18344    3       IF PRIVACY_RECORD_ALL = %TRUE         THEN

  18344 21 001753   000003 234000 19                 SZN     PRIVACY_RECORD_ALL
PL6.E3A0      #001=Z9EB$DML_USE File=Z9EB.:Z8A6TSI                               SAT 08/09/97 13:43 Page:94
        21 001754   001772 605000 21                 TPL     s:18352

      527    18345    4         DO;

      528    18346    4           CALL Z8AE$ERROR(%E$DUPLICATE_RECORD_ALL ,

  18346 21 001755   000004 471500                    LDP1    4,,PR0
        21 001756   100006 633500                    EPPR3   6,,PR1
        21 001757   200050 453500                    STP3    @UCW_CONST+3,,AUTO
        21 001760   100005 634500                    EPPR4   5,,PR1
        21 001761   200047 454500                    STP4    @UCW_CONST+2,,AUTO
        21 001762   000033 236000 22                 LDQ     27
        21 001763   200046 756100                    STQ     @UCW_CONST+1,,AUTO
        21 001764   200046 630500                    EPPR0   @UCW_CONST+1,,AUTO
        21 001765   000025 631400 22                 EPPR1   21
        21 001766   000000 701000 xent               TSX1    Z8AE$ERROR
        21 001767   000000 011000                    NOP     0

      529    18347    4                           WORD_LIST$ -> LX_LIST.HEAD$ -> LX_ITEM.LINE,
      530    18348    4                           WORD_LIST$ -> LX_LIST.HEAD$ -> LX_ITEM.COLUMN);
      531    18349    4           RETURN;

  18349 21 001770   200044 221300                    LDX1  ! STORE_FIELD+1,,AUTO
        21 001771   000001 702211                    TSX2  ! 1,X1

      532    18350    4         END;
      533    18351
      534    18352    3       MODIFY_RECORD = %FALSE;

  18352 21 001772   200027 450100                    STZ     MODIFY_RECORD,,AUTO

      535    18353    3       CONNECT_RECORD = %FALSE;

  18353 21 001773   200030 450100                    STZ     CONNECT_RECORD,,AUTO

      536    18354    3       DISCONNECT_RECORD = %FALSE;

PL6.E3A0      #001=Z9EB$DML_USE File=Z9EB.:Z8A6TSI                               SAT 08/09/97 13:43 Page:95
  18354 21 001774   200031 450100                    STZ     DISCONNECT_RECORD,,AUTO

      537    18355    3       STORE_RECORD = %FALSE;

  18355 21 001775   200032 450100                    STZ     STORE_RECORD,,AUTO

      538    18356    3       ERASE_RECORD = %FALSE;

  18356 21 001776   200033 450100                    STZ     ERASE_RECORD,,AUTO

      539    18357    3       GET_RECORD = %FALSE;

  18357 21 001777   200034 450100                    STZ     GET_RECORD,,AUTO

      540    18358    3       FIND_RECORD = %FALSE;

  18358 21 002000   200035 450100                    STZ     FIND_RECORD,,AUTO

      541    18359    3       DUPLICATE_FLAG = %FALSE;

  18359 21 002001   200022 450100                    STZ     DUPLICATE_FLAG,,AUTO

      542    18360    3       WORD$ = WORD_LIST$ -> LX_LIST.HEAD$;

  18360 21 002002   000004 236100                    LDQ     4,,PR0
        21 002003   200013 756100                    STQ     WORD$,,AUTO

      543    18361    4       DO WHILE WORD$ ~= ADDR(NIL);

  18361 21 002004   002713 710000 21                 TRA     s:18440

      544    18362
      545    18363    5         DO CASE(WORD$ -> LX_ITEM.SYMBOL);

  18363 21 002005   200013 470500                    LDP0    WORD$,,AUTO
        21 002006   000003 235100                    LDA     3,,PR0
        21 002007   000154 135007                    SBLA    108,DL
PL6.E3A0      #001=Z9EB$DML_USE File=Z9EB.:Z8A6TSI                               SAT 08/09/97 13:43 Page:96
        21 002010   000507 115007                    CMPA    327,DL
        21 002011   002013 602005 21                 TNC     s:18363+6,AL
        21 002012   002672 710000 21                 TRA     s:18430
        21 002013   002654 710000 21                 TRA     s:18420
        21 002014   002672 710000 21                 TRA     s:18430
        21 002015   002672 710000 21                 TRA     s:18430
        21 002016   002672 710000 21                 TRA     s:18430
        21 002017   002672 710000 21                 TRA     s:18430
        21 002020   002672 710000 21                 TRA     s:18430
        21 002021   002672 710000 21                 TRA     s:18430
        21 002022   002672 710000 21                 TRA     s:18430
        21 002023   002672 710000 21                 TRA     s:18430
        21 002024   002672 710000 21                 TRA     s:18430
        21 002025   002672 710000 21                 TRA     s:18430
        21 002026   002672 710000 21                 TRA     s:18430
        21 002027   002672 710000 21                 TRA     s:18430
        21 002030   002672 710000 21                 TRA     s:18430
        21 002031   002672 710000 21                 TRA     s:18430
        21 002032   002672 710000 21                 TRA     s:18430
        21 002033   002672 710000 21                 TRA     s:18430
        21 002034   002672 710000 21                 TRA     s:18430
        21 002035   002672 710000 21                 TRA     s:18430
        21 002036   002672 710000 21                 TRA     s:18430
        21 002037   002672 710000 21                 TRA     s:18430
        21 002040   002672 710000 21                 TRA     s:18430
        21 002041   002672 710000 21                 TRA     s:18430
        21 002042   002672 710000 21                 TRA     s:18430
        21 002043   002672 710000 21                 TRA     s:18430
        21 002044   002672 710000 21                 TRA     s:18430
        21 002045   002672 710000 21                 TRA     s:18430
        21 002046   002672 710000 21                 TRA     s:18430
        21 002047   002672 710000 21                 TRA     s:18430
        21 002050   002672 710000 21                 TRA     s:18430
        21 002051   002672 710000 21                 TRA     s:18430
        21 002052   002672 710000 21                 TRA     s:18430
        21 002053   002672 710000 21                 TRA     s:18430
        21 002054   002672 710000 21                 TRA     s:18430
PL6.E3A0      #001=Z9EB$DML_USE File=Z9EB.:Z8A6TSI                               SAT 08/09/97 13:43 Page:97
        21 002055   002672 710000 21                 TRA     s:18430
        21 002056   002672 710000 21                 TRA     s:18430
        21 002057   002672 710000 21                 TRA     s:18430
        21 002060   002672 710000 21                 TRA     s:18430
        21 002061   002672 710000 21                 TRA     s:18430
        21 002062   002672 710000 21                 TRA     s:18430
        21 002063   002635 710000 21                 TRA     s:18411
        21 002064   002672 710000 21                 TRA     s:18430
        21 002065   002672 710000 21                 TRA     s:18430
        21 002066   002672 710000 21                 TRA     s:18430
        21 002067   002672 710000 21                 TRA     s:18430
        21 002070   002672 710000 21                 TRA     s:18430
        21 002071   002672 710000 21                 TRA     s:18430
        21 002072   002672 710000 21                 TRA     s:18430
        21 002073   002672 710000 21                 TRA     s:18430
        21 002074   002672 710000 21                 TRA     s:18430
        21 002075   002672 710000 21                 TRA     s:18430
        21 002076   002672 710000 21                 TRA     s:18430
        21 002077   002672 710000 21                 TRA     s:18430
        21 002100   002672 710000 21                 TRA     s:18430
        21 002101   002672 710000 21                 TRA     s:18430
        21 002102   002672 710000 21                 TRA     s:18430
        21 002103   002672 710000 21                 TRA     s:18430
        21 002104   002672 710000 21                 TRA     s:18430
        21 002105   002672 710000 21                 TRA     s:18430
        21 002106   002672 710000 21                 TRA     s:18430
        21 002107   002672 710000 21                 TRA     s:18430
        21 002110   002672 710000 21                 TRA     s:18430
        21 002111   002672 710000 21                 TRA     s:18430
        21 002112   002672 710000 21                 TRA     s:18430
        21 002113   002672 710000 21                 TRA     s:18430
        21 002114   002672 710000 21                 TRA     s:18430
        21 002115   002672 710000 21                 TRA     s:18430
        21 002116   002672 710000 21                 TRA     s:18430
        21 002117   002672 710000 21                 TRA     s:18430
        21 002120   002672 710000 21                 TRA     s:18430
        21 002121   002672 710000 21                 TRA     s:18430
PL6.E3A0      #001=Z9EB$DML_USE File=Z9EB.:Z8A6TSI                               SAT 08/09/97 13:43 Page:98
        21 002122   002672 710000 21                 TRA     s:18430
        21 002123   002672 710000 21                 TRA     s:18430
        21 002124   002672 710000 21                 TRA     s:18430
        21 002125   002672 710000 21                 TRA     s:18430
        21 002126   002672 710000 21                 TRA     s:18430
        21 002127   002672 710000 21                 TRA     s:18430
        21 002130   002672 710000 21                 TRA     s:18430
        21 002131   002672 710000 21                 TRA     s:18430
        21 002132   002672 710000 21                 TRA     s:18430
        21 002133   002672 710000 21                 TRA     s:18430
        21 002134   002672 710000 21                 TRA     s:18430
        21 002135   002672 710000 21                 TRA     s:18430
        21 002136   002577 710000 21                 TRA     s:18393
        21 002137   002672 710000 21                 TRA     s:18430
        21 002140   002672 710000 21                 TRA     s:18430
        21 002141   002672 710000 21                 TRA     s:18430
        21 002142   002672 710000 21                 TRA     s:18430
        21 002143   002672 710000 21                 TRA     s:18430
        21 002144   002672 710000 21                 TRA     s:18430
        21 002145   002672 710000 21                 TRA     s:18430
        21 002146   002672 710000 21                 TRA     s:18430
        21 002147   002672 710000 21                 TRA     s:18430
        21 002150   002672 710000 21                 TRA     s:18430
        21 002151   002672 710000 21                 TRA     s:18430
        21 002152   002672 710000 21                 TRA     s:18430
        21 002153   002672 710000 21                 TRA     s:18430
        21 002154   002672 710000 21                 TRA     s:18430
        21 002155   002672 710000 21                 TRA     s:18430
        21 002156   002672 710000 21                 TRA     s:18430
        21 002157   002672 710000 21                 TRA     s:18430
        21 002160   002672 710000 21                 TRA     s:18430
        21 002161   002541 710000 21                 TRA     s:18375
        21 002162   002672 710000 21                 TRA     s:18430
        21 002163   002672 710000 21                 TRA     s:18430
        21 002164   002672 710000 21                 TRA     s:18430
        21 002165   002672 710000 21                 TRA     s:18430
        21 002166   002672 710000 21                 TRA     s:18430
PL6.E3A0      #001=Z9EB$DML_USE File=Z9EB.:Z8A6TSI                               SAT 08/09/97 13:43 Page:99
        21 002167   002672 710000 21                 TRA     s:18430
        21 002170   002672 710000 21                 TRA     s:18430
        21 002171   002672 710000 21                 TRA     s:18430
        21 002172   002672 710000 21                 TRA     s:18430
        21 002173   002672 710000 21                 TRA     s:18430
        21 002174   002672 710000 21                 TRA     s:18430
        21 002175   002560 710000 21                 TRA     s:18384
        21 002176   002672 710000 21                 TRA     s:18430
        21 002177   002672 710000 21                 TRA     s:18430
        21 002200   002672 710000 21                 TRA     s:18430
        21 002201   002672 710000 21                 TRA     s:18430
        21 002202   002672 710000 21                 TRA     s:18430
        21 002203   002672 710000 21                 TRA     s:18430
        21 002204   002672 710000 21                 TRA     s:18430
        21 002205   002672 710000 21                 TRA     s:18430
        21 002206   002672 710000 21                 TRA     s:18430
        21 002207   002672 710000 21                 TRA     s:18430
        21 002210   002672 710000 21                 TRA     s:18430
        21 002211   002672 710000 21                 TRA     s:18430
        21 002212   002672 710000 21                 TRA     s:18430
        21 002213   002672 710000 21                 TRA     s:18430
        21 002214   002672 710000 21                 TRA     s:18430
        21 002215   002672 710000 21                 TRA     s:18430
        21 002216   002672 710000 21                 TRA     s:18430
        21 002217   002672 710000 21                 TRA     s:18430
        21 002220   002672 710000 21                 TRA     s:18430
        21 002221   002672 710000 21                 TRA     s:18430
        21 002222   002672 710000 21                 TRA     s:18430
        21 002223   002672 710000 21                 TRA     s:18430
        21 002224   002672 710000 21                 TRA     s:18430
        21 002225   002672 710000 21                 TRA     s:18430
        21 002226   002672 710000 21                 TRA     s:18430
        21 002227   002672 710000 21                 TRA     s:18430
        21 002230   002672 710000 21                 TRA     s:18430
        21 002231   002672 710000 21                 TRA     s:18430
        21 002232   002672 710000 21                 TRA     s:18430
        21 002233   002672 710000 21                 TRA     s:18430
PL6.E3A0      #001=Z9EB$DML_USE File=Z9EB.:Z8A6TSI                               SAT 08/09/97 13:43 Page:100
        21 002234   002672 710000 21                 TRA     s:18430
        21 002235   002672 710000 21                 TRA     s:18430
        21 002236   002672 710000 21                 TRA     s:18430
        21 002237   002672 710000 21                 TRA     s:18430
        21 002240   002672 710000 21                 TRA     s:18430
        21 002241   002672 710000 21                 TRA     s:18430
        21 002242   002672 710000 21                 TRA     s:18430
        21 002243   002672 710000 21                 TRA     s:18430
        21 002244   002672 710000 21                 TRA     s:18430
        21 002245   002672 710000 21                 TRA     s:18430
        21 002246   002672 710000 21                 TRA     s:18430
        21 002247   002672 710000 21                 TRA     s:18430
        21 002250   002672 710000 21                 TRA     s:18430
        21 002251   002672 710000 21                 TRA     s:18430
        21 002252   002672 710000 21                 TRA     s:18430
        21 002253   002672 710000 21                 TRA     s:18430
        21 002254   002672 710000 21                 TRA     s:18430
        21 002255   002672 710000 21                 TRA     s:18430
        21 002256   002672 710000 21                 TRA     s:18430
        21 002257   002672 710000 21                 TRA     s:18430
        21 002260   002672 710000 21                 TRA     s:18430
        21 002261   002672 710000 21                 TRA     s:18430
        21 002262   002672 710000 21                 TRA     s:18430
        21 002263   002672 710000 21                 TRA     s:18430
        21 002264   002672 710000 21                 TRA     s:18430
        21 002265   002672 710000 21                 TRA     s:18430
        21 002266   002672 710000 21                 TRA     s:18430
        21 002267   002672 710000 21                 TRA     s:18430
        21 002270   002672 710000 21                 TRA     s:18430
        21 002271   002672 710000 21                 TRA     s:18430
        21 002272   002672 710000 21                 TRA     s:18430
        21 002273   002672 710000 21                 TRA     s:18430
        21 002274   002672 710000 21                 TRA     s:18430
        21 002275   002672 710000 21                 TRA     s:18430
        21 002276   002672 710000 21                 TRA     s:18430
        21 002277   002672 710000 21                 TRA     s:18430
        21 002300   002672 710000 21                 TRA     s:18430
PL6.E3A0      #001=Z9EB$DML_USE File=Z9EB.:Z8A6TSI                               SAT 08/09/97 13:43 Page:101
        21 002301   002672 710000 21                 TRA     s:18430
        21 002302   002672 710000 21                 TRA     s:18430
        21 002303   002672 710000 21                 TRA     s:18430
        21 002304   002522 710000 21                 TRA     s:18366
        21 002305   002672 710000 21                 TRA     s:18430
        21 002306   002672 710000 21                 TRA     s:18430
        21 002307   002672 710000 21                 TRA     s:18430
        21 002310   002672 710000 21                 TRA     s:18430
        21 002311   002672 710000 21                 TRA     s:18430
        21 002312   002672 710000 21                 TRA     s:18430
        21 002313   002672 710000 21                 TRA     s:18430
        21 002314   002672 710000 21                 TRA     s:18430
        21 002315   002672 710000 21                 TRA     s:18430
        21 002316   002672 710000 21                 TRA     s:18430
        21 002317   002672 710000 21                 TRA     s:18430
        21 002320   002672 710000 21                 TRA     s:18430
        21 002321   002672 710000 21                 TRA     s:18430
        21 002322   002672 710000 21                 TRA     s:18430
        21 002323   002672 710000 21                 TRA     s:18430
        21 002324   002672 710000 21                 TRA     s:18430
        21 002325   002672 710000 21                 TRA     s:18430
        21 002326   002672 710000 21                 TRA     s:18430
        21 002327   002672 710000 21                 TRA     s:18430
        21 002330   002672 710000 21                 TRA     s:18430
        21 002331   002672 710000 21                 TRA     s:18430
        21 002332   002672 710000 21                 TRA     s:18430
        21 002333   002672 710000 21                 TRA     s:18430
        21 002334   002672 710000 21                 TRA     s:18430
        21 002335   002672 710000 21                 TRA     s:18430
        21 002336   002672 710000 21                 TRA     s:18430
        21 002337   002672 710000 21                 TRA     s:18430
        21 002340   002672 710000 21                 TRA     s:18430
        21 002341   002672 710000 21                 TRA     s:18430
        21 002342   002672 710000 21                 TRA     s:18430
        21 002343   002672 710000 21                 TRA     s:18430
        21 002344   002672 710000 21                 TRA     s:18430
        21 002345   002672 710000 21                 TRA     s:18430
PL6.E3A0      #001=Z9EB$DML_USE File=Z9EB.:Z8A6TSI                               SAT 08/09/97 13:43 Page:102
        21 002346   002672 710000 21                 TRA     s:18430
        21 002347   002672 710000 21                 TRA     s:18430
        21 002350   002672 710000 21                 TRA     s:18430
        21 002351   002672 710000 21                 TRA     s:18430
        21 002352   002672 710000 21                 TRA     s:18430
        21 002353   002672 710000 21                 TRA     s:18430
        21 002354   002672 710000 21                 TRA     s:18430
        21 002355   002672 710000 21                 TRA     s:18430
        21 002356   002672 710000 21                 TRA     s:18430
        21 002357   002672 710000 21                 TRA     s:18430
        21 002360   002672 710000 21                 TRA     s:18430
        21 002361   002672 710000 21                 TRA     s:18430
        21 002362   002672 710000 21                 TRA     s:18430
        21 002363   002672 710000 21                 TRA     s:18430
        21 002364   002672 710000 21                 TRA     s:18430
        21 002365   002672 710000 21                 TRA     s:18430
        21 002366   002672 710000 21                 TRA     s:18430
        21 002367   002672 710000 21                 TRA     s:18430
        21 002370   002672 710000 21                 TRA     s:18430
        21 002371   002672 710000 21                 TRA     s:18430
        21 002372   002672 710000 21                 TRA     s:18430
        21 002373   002672 710000 21                 TRA     s:18430
        21 002374   002672 710000 21                 TRA     s:18430
        21 002375   002672 710000 21                 TRA     s:18430
        21 002376   002672 710000 21                 TRA     s:18430
        21 002377   002672 710000 21                 TRA     s:18430
        21 002400   002672 710000 21                 TRA     s:18430
        21 002401   002672 710000 21                 TRA     s:18430
        21 002402   002672 710000 21                 TRA     s:18430
        21 002403   002672 710000 21                 TRA     s:18430
        21 002404   002672 710000 21                 TRA     s:18430
        21 002405   002672 710000 21                 TRA     s:18430
        21 002406   002672 710000 21                 TRA     s:18430
        21 002407   002672 710000 21                 TRA     s:18430
        21 002410   002672 710000 21                 TRA     s:18430
        21 002411   002672 710000 21                 TRA     s:18430
        21 002412   002672 710000 21                 TRA     s:18430
PL6.E3A0      #001=Z9EB$DML_USE File=Z9EB.:Z8A6TSI                               SAT 08/09/97 13:43 Page:103
        21 002413   002672 710000 21                 TRA     s:18430
        21 002414   002672 710000 21                 TRA     s:18430
        21 002415   002672 710000 21                 TRA     s:18430
        21 002416   002672 710000 21                 TRA     s:18430
        21 002417   002672 710000 21                 TRA     s:18430
        21 002420   002672 710000 21                 TRA     s:18430
        21 002421   002672 710000 21                 TRA     s:18430
        21 002422   002672 710000 21                 TRA     s:18430
        21 002423   002672 710000 21                 TRA     s:18430
        21 002424   002672 710000 21                 TRA     s:18430
        21 002425   002672 710000 21                 TRA     s:18430
        21 002426   002672 710000 21                 TRA     s:18430
        21 002427   002672 710000 21                 TRA     s:18430
        21 002430   002672 710000 21                 TRA     s:18430
        21 002431   002672 710000 21                 TRA     s:18430
        21 002432   002672 710000 21                 TRA     s:18430
        21 002433   002672 710000 21                 TRA     s:18430
        21 002434   002672 710000 21                 TRA     s:18430
        21 002435   002672 710000 21                 TRA     s:18430
        21 002436   002672 710000 21                 TRA     s:18430
        21 002437   002672 710000 21                 TRA     s:18430
        21 002440   002672 710000 21                 TRA     s:18430
        21 002441   002672 710000 21                 TRA     s:18430
        21 002442   002672 710000 21                 TRA     s:18430
        21 002443   002672 710000 21                 TRA     s:18430
        21 002444   002672 710000 21                 TRA     s:18430
        21 002445   002672 710000 21                 TRA     s:18430
        21 002446   002672 710000 21                 TRA     s:18430
        21 002447   002672 710000 21                 TRA     s:18430
        21 002450   002672 710000 21                 TRA     s:18430
        21 002451   002672 710000 21                 TRA     s:18430
        21 002452   002672 710000 21                 TRA     s:18430
        21 002453   002672 710000 21                 TRA     s:18430
        21 002454   002672 710000 21                 TRA     s:18430
        21 002455   002672 710000 21                 TRA     s:18430
        21 002456   002672 710000 21                 TRA     s:18430
        21 002457   002672 710000 21                 TRA     s:18430
PL6.E3A0      #001=Z9EB$DML_USE File=Z9EB.:Z8A6TSI                               SAT 08/09/97 13:43 Page:104
        21 002460   002672 710000 21                 TRA     s:18430
        21 002461   002672 710000 21                 TRA     s:18430
        21 002462   002672 710000 21                 TRA     s:18430
        21 002463   002672 710000 21                 TRA     s:18430
        21 002464   002672 710000 21                 TRA     s:18430
        21 002465   002672 710000 21                 TRA     s:18430
        21 002466   002672 710000 21                 TRA     s:18430
        21 002467   002672 710000 21                 TRA     s:18430
        21 002470   002672 710000 21                 TRA     s:18430
        21 002471   002672 710000 21                 TRA     s:18430
        21 002472   002672 710000 21                 TRA     s:18430
        21 002473   002672 710000 21                 TRA     s:18430
        21 002474   002672 710000 21                 TRA     s:18430
        21 002475   002672 710000 21                 TRA     s:18430
        21 002476   002672 710000 21                 TRA     s:18430
        21 002477   002672 710000 21                 TRA     s:18430
        21 002500   002672 710000 21                 TRA     s:18430
        21 002501   002672 710000 21                 TRA     s:18430
        21 002502   002672 710000 21                 TRA     s:18430
        21 002503   002672 710000 21                 TRA     s:18430
        21 002504   002672 710000 21                 TRA     s:18430
        21 002505   002672 710000 21                 TRA     s:18430
        21 002506   002672 710000 21                 TRA     s:18430
        21 002507   002672 710000 21                 TRA     s:18430
        21 002510   002672 710000 21                 TRA     s:18430
        21 002511   002672 710000 21                 TRA     s:18430
        21 002512   002672 710000 21                 TRA     s:18430
        21 002513   002672 710000 21                 TRA     s:18430
        21 002514   002672 710000 21                 TRA     s:18430
        21 002515   002672 710000 21                 TRA     s:18430
        21 002516   002672 710000 21                 TRA     s:18430
        21 002517   002672 710000 21                 TRA     s:18430
        21 002520   002672 710000 21                 TRA     s:18430
        21 002521   002616 710000 21                 TRA     s:18402

      546    18364
      547    18365    5           CASE(%RSV_WRD_MODIFY);
PL6.E3A0      #001=Z9EB$DML_USE File=Z9EB.:Z8A6TSI                               SAT 08/09/97 13:43 Page:105

      548    18366    5               IF MODIFY_RECORD_ALL = %FALSE  AND MODIFY_RECORD = %FALSE   THEN

  18366 21 002522   000006 234000 19                 SZN     MODIFY_RECORD_ALL
        21 002523   002536 604000 21                 TMI     s:18372
        21 002524   200027 234100                    SZN     MODIFY_RECORD,,AUTO
        21 002525   002536 604000 21                 TMI     s:18372

      549    18367    6                 DO;

      550    18368    6                   MODIFY_RECORD = %TRUE;

  18368 21 002526   400000 236003                    LDQ     -131072,DU
        21 002527   200027 756100                    STQ     MODIFY_RECORD,,AUTO

      551    18369    6                   VERB = VERB + %MODIFY;

  18369 21 002530   200023 236100                    LDQ     VERB,,AUTO
        21 002531   000035 772000                    QRL     29
        21 002532   000040 036007                    ADLQ    32,DL
        21 002533   000035 736000                    QLS     29
        21 002534   200023 756100                    STQ     VERB,,AUTO

      552    18370    6                 END;

  18370 21 002535   002672 710000 21                 TRA     s:18430

      553    18371    5               ELSE
      554    18372    5                   DUPLICATE_FLAG = %TRUE;

  18372 21 002536   400000 236003                    LDQ     -131072,DU
        21 002537   200022 756100                    STQ     DUPLICATE_FLAG,,AUTO
        21 002540   002672 710000 21                 TRA     s:18430

      555    18373
      556    18374    5           CASE(%RSV_WRD_FIND);

PL6.E3A0      #001=Z9EB$DML_USE File=Z9EB.:Z8A6TSI                               SAT 08/09/97 13:43 Page:106
      557    18375    5               IF FIND_RECORD_ALL = %FALSE  AND FIND_RECORD = %FALSE  THEN

  18375 21 002541   000014 234000 19                 SZN     FIND_RECORD_ALL
        21 002542   002555 604000 21                 TMI     s:18381
        21 002543   200035 234100                    SZN     FIND_RECORD,,AUTO
        21 002544   002555 604000 21                 TMI     s:18381

      558    18376    6                 DO;

      559    18377    6                   FIND_RECORD = %TRUE;

  18377 21 002545   400000 236003                    LDQ     -131072,DU
        21 002546   200035 756100                    STQ     FIND_RECORD,,AUTO

      560    18378    6                   VERB = VERB + %FIND;

  18378 21 002547   200023 236100                    LDQ     VERB,,AUTO
        21 002550   000035 772000                    QRL     29
        21 002551   000001 036007                    ADLQ    1,DL
        21 002552   000035 736000                    QLS     29
        21 002553   200023 756100                    STQ     VERB,,AUTO

      561    18379    6                 END;

  18379 21 002554   002672 710000 21                 TRA     s:18430

      562    18380    5               ELSE
      563    18381    5                   DUPLICATE_FLAG = %TRUE;

  18381 21 002555   400000 236003                    LDQ     -131072,DU
        21 002556   200022 756100                    STQ     DUPLICATE_FLAG,,AUTO
        21 002557   002672 710000 21                 TRA     s:18430

      564    18382
      565    18383    5           CASE(%RSV_WRD_GET);

      566    18384    5               IF GET_RECORD_ALL = %FALSE  AND GET_RECORD = %FALSE  THEN
PL6.E3A0      #001=Z9EB$DML_USE File=Z9EB.:Z8A6TSI                               SAT 08/09/97 13:43 Page:107

  18384 21 002560   000013 234000 19                 SZN     GET_RECORD_ALL
        21 002561   002574 604000 21                 TMI     s:18390
        21 002562   200034 234100                    SZN     GET_RECORD,,AUTO
        21 002563   002574 604000 21                 TMI     s:18390

      567    18385    6                 DO;

      568    18386    6                   GET_RECORD = %TRUE;

  18386 21 002564   400000 236003                    LDQ     -131072,DU
        21 002565   200034 756100                    STQ     GET_RECORD,,AUTO

      569    18387    6                   VERB = VERB + %GET;

  18387 21 002566   200023 236100                    LDQ     VERB,,AUTO
        21 002567   000035 772000                    QRL     29
        21 002570   000100 036007                    ADLQ    64,DL
        21 002571   000035 736000                    QLS     29
        21 002572   200023 756100                    STQ     VERB,,AUTO

      570    18388    6                 END;

  18388 21 002573   002672 710000 21                 TRA     s:18430

      571    18389    5               ELSE
      572    18390    5                   DUPLICATE_FLAG = %TRUE;

  18390 21 002574   400000 236003                    LDQ     -131072,DU
        21 002575   200022 756100                    STQ     DUPLICATE_FLAG,,AUTO
        21 002576   002672 710000 21                 TRA     s:18430

      573    18391
      574    18392    5           CASE(%RSV_WRD_ERASE);

      575    18393    5               IF ERASE_RECORD_ALL = %FALSE  AND ERASE_RECORD = %TRUE THEN

PL6.E3A0      #001=Z9EB$DML_USE File=Z9EB.:Z8A6TSI                               SAT 08/09/97 13:43 Page:108
  18393 21 002577   000012 234000 19                 SZN     ERASE_RECORD_ALL
        21 002600   002613 604000 21                 TMI     s:18399
        21 002601   200033 234100                    SZN     ERASE_RECORD,,AUTO
        21 002602   002613 605000 21                 TPL     s:18399

      576    18394    6                 DO;

      577    18395    6                   ERASE_RECORD = %TRUE;

  18395 21 002603   400000 236003                    LDQ     -131072,DU
        21 002604   200033 756100                    STQ     ERASE_RECORD,,AUTO

      578    18396    6                   VERB = VERB + %ERASE;

  18396 21 002605   200023 236100                    LDQ     VERB,,AUTO
        21 002606   000035 772000                    QRL     29
        21 002607   000010 036007                    ADLQ    8,DL
        21 002610   000035 736000                    QLS     29
        21 002611   200023 756100                    STQ     VERB,,AUTO

      579    18397    6                 END;

  18397 21 002612   002672 710000 21                 TRA     s:18430

      580    18398    5               ELSE
      581    18399    5                   DUPLICATE_FLAG = %TRUE;

  18399 21 002613   400000 236003                    LDQ     -131072,DU
        21 002614   200022 756100                    STQ     DUPLICATE_FLAG,,AUTO
        21 002615   002672 710000 21                 TRA     s:18430

      582    18400
      583    18401    5           CASE(%RSV_WRD_STORE);

      584    18402    5               IF STORE_RECORD_ALL = %FALSE  AND STORE_RECORD = %FALSE   THEN

  18402 21 002616   000011 234000 19                 SZN     STORE_RECORD_ALL
PL6.E3A0      #001=Z9EB$DML_USE File=Z9EB.:Z8A6TSI                               SAT 08/09/97 13:43 Page:109
        21 002617   002632 604000 21                 TMI     s:18408
        21 002620   200032 234100                    SZN     STORE_RECORD,,AUTO
        21 002621   002632 604000 21                 TMI     s:18408

      585    18403    6                 DO;

      586    18404    6                   STORE_RECORD = %TRUE;

  18404 21 002622   400000 236003                    LDQ     -131072,DU
        21 002623   200032 756100                    STQ     STORE_RECORD,,AUTO

      587    18405    6                   VERB = VERB + %STORE;

  18405 21 002624   200023 236100                    LDQ     VERB,,AUTO
        21 002625   000035 772000                    QRL     29
        21 002626   000020 036007                    ADLQ    16,DL
        21 002627   000035 736000                    QLS     29
        21 002630   200023 756100                    STQ     VERB,,AUTO

      588    18406    6                 END;

  18406 21 002631   002672 710000 21                 TRA     s:18430

      589    18407    5               ELSE
      590    18408    5                   DUPLICATE_FLAG = %TRUE;

  18408 21 002632   400000 236003                    LDQ     -131072,DU
        21 002633   200022 756100                    STQ     DUPLICATE_FLAG,,AUTO
        21 002634   002672 710000 21                 TRA     s:18430

      591    18409
      592    18410    5           CASE(%RSV_WRD_DISCONNECT);

      593    18411    5               IF DISCONNECT_RECORD_ALL = %FALSE  AND DISCONNECT_RECORD = %FALSE  THEN

  18411 21 002635   000010 234000 19                 SZN     DISCONNECT_RECORD_ALL
        21 002636   002651 604000 21                 TMI     s:18417
PL6.E3A0      #001=Z9EB$DML_USE File=Z9EB.:Z8A6TSI                               SAT 08/09/97 13:43 Page:110
        21 002637   200031 234100                    SZN     DISCONNECT_RECORD,,AUTO
        21 002640   002651 604000 21                 TMI     s:18417

      594    18412    6                 DO;

      595    18413    6                   DISCONNECT_RECORD = %TRUE;

  18413 21 002641   400000 236003                    LDQ     -131072,DU
        21 002642   200031 756100                    STQ     DISCONNECT_RECORD,,AUTO

      596    18414    6                   VERB = VERB + %DISCONNECT;

  18414 21 002643   200023 236100                    LDQ     VERB,,AUTO
        21 002644   000035 772000                    QRL     29
        21 002645   000002 036007                    ADLQ    2,DL
        21 002646   000035 736000                    QLS     29
        21 002647   200023 756100                    STQ     VERB,,AUTO

      597    18415    6                 END;

  18415 21 002650   002672 710000 21                 TRA     s:18430

      598    18416    5               ELSE
      599    18417    5                   DUPLICATE_FLAG = %TRUE;

  18417 21 002651   400000 236003                    LDQ     -131072,DU
        21 002652   200022 756100                    STQ     DUPLICATE_FLAG,,AUTO
        21 002653   002672 710000 21                 TRA     s:18430

      600    18418
      601    18419    5           CASE(%RSV_WRD_CONNECT);

      602    18420    5               IF CONNECT_RECORD_ALL = %FALSE  AND CONNECT_RECORD = %FALSE  THEN

  18420 21 002654   000007 234000 19                 SZN     CONNECT_RECORD_ALL
        21 002655   002670 604000 21                 TMI     s:18426
        21 002656   200030 234100                    SZN     CONNECT_RECORD,,AUTO
PL6.E3A0      #001=Z9EB$DML_USE File=Z9EB.:Z8A6TSI                               SAT 08/09/97 13:43 Page:111
        21 002657   002670 604000 21                 TMI     s:18426

      603    18421    6                 DO;

      604    18422    6                   CONNECT_RECORD = %TRUE;

  18422 21 002660   400000 236003                    LDQ     -131072,DU
        21 002661   200030 756100                    STQ     CONNECT_RECORD,,AUTO

      605    18423    6                   VERB = VERB + %CONNECT;

  18423 21 002662   200023 236100                    LDQ     VERB,,AUTO
        21 002663   000035 772000                    QRL     29
        21 002664   000004 036007                    ADLQ    4,DL
        21 002665   000035 736000                    QLS     29
        21 002666   200023 756100                    STQ     VERB,,AUTO

      606    18424    6                 END;

  18424 21 002667   002672 710000 21                 TRA     s:18430

      607    18425    5               ELSE
      608    18426    5                   DUPLICATE_FLAG = %TRUE;

  18426 21 002670   400000 236003                    LDQ     -131072,DU
        21 002671   200022 756100                    STQ     DUPLICATE_FLAG,,AUTO

      609    18427
      610    18428    5         END;/*V*      CASE    */

      611    18429
      612    18430    4         IF DUPLICATE_FLAG = %TRUE    THEN

  18430 21 002672   200022 234100                    SZN     DUPLICATE_FLAG,,AUTO
        21 002673   002710 605000 21                 TPL     s:18438

      613    18431    5           DO;
PL6.E3A0      #001=Z9EB$DML_USE File=Z9EB.:Z8A6TSI                               SAT 08/09/97 13:43 Page:112

      614    18432    5             CALL Z8AE$ERROR( %E$DUPLICATE_ON_PHRASE ,

  18432 21 002674   200013 236100                    LDQ     WORD$,,AUTO
        21 002675   000006 036003                    ADLQ    6,DU
        21 002676   200050 756100                    STQ     @UCW_CONST+3,,AUTO
        21 002677   200013 236100                    LDQ     WORD$,,AUTO
        21 002700   000005 036003                    ADLQ    5,DU
        21 002701   000035 235000 22                 LDA     29
        21 002702   200046 757100                    STAQ    @UCW_CONST+1,,AUTO
        21 002703   200046 630500                    EPPR0   @UCW_CONST+1,,AUTO
        21 002704   000025 631400 22                 EPPR1   21
        21 002705   000000 701000 xent               TSX1    Z8AE$ERROR
        21 002706   000000 011000                    NOP     0

      615    18433    5                              WORD$ -> LX_ITEM.LINE,
      616    18434    5                              WORD$ -> LX_ITEM.COLUMN);
      617    18435    5             DUPLICATE_FLAG = %FALSE;

  18435 21 002707   200022 450100                    STZ     DUPLICATE_FLAG,,AUTO

      618    18436    5           END;

      619    18437
      620    18438    4         WORD$ = WORD$ -> LX_ITEM.LINK;

  18438 21 002710   200013 470500                    LDP0    WORD$,,AUTO
        21 002711   000007 236100                    LDQ     7,,PR0
        21 002712   200013 756100                    STQ     WORD$,,AUTO

      621    18439
      622    18440    4       END;   /*V*  WHILE WORD$ ~= ADDR(NIL) */

  18440 21 002713   000000 116000 22                 CMPQ    0
        21 002714   002005 601000 21                 TNZ     s:18363

      623    18441    3   END RECORD_CHECK_LIST;
PL6.E3A0      #001=Z9EB$DML_USE File=Z9EB.:Z8A6TSI                               SAT 08/09/97 13:43 Page:113

  18441 21 002715   200044 221300                    LDX1  ! STORE_FIELD+1,,AUTO
        21 002716   000001 702211                    TSX2  ! 1,X1

      624    18442        %EJECT;
PL6.E3A0      #001=Z9EB$DML_USE File=Z9EB.:Z8A6TSI                               SAT 08/09/97 13:43 Page:114
      625    18443        /*---------*/
      626    18444    2     SET_CHECK_LIST :  PROC ;

  18444 21 002717   200044 741300       SET_CHECK_L* STX1  ! STORE_FIELD+1,,AUTO

      627    18445        /*---------*/
      628    18446
      629    18447    3       IF WORD_LIST$ -> LX_ITEM.ID = %LX_TERMINAL AND WORD_LIST$ -> LX_ITEM.SYMBOL = %
             18447                EMPTY         THEN

  18447 21 002720   200011 470500                    LDP0    WORD_LIST$,,AUTO
        21 002721   000000 220100                    LDX0    0,,PR0
        21 002722   002734 601000 21                 TNZ     s:18456
        21 002723   000003 235100                    LDA     3,,PR0
        21 002724   002734 601000 21                 TNZ     s:18456

      630    18448
      631    18449    3           IF PRIVACY_SET_ALL = %FALSE  THEN

  18449 21 002725   000004 234000 19                 SZN     PRIVACY_SET_ALL
        21 002726   002734 604000 21                 TMI     s:18456

      632    18450    4             DO;

      633    18451    4               PRIVACY_SET_ALL = %TRUE;

  18451 21 002727   400000 236003                    LDQ     -131072,DU
        21 002730   000004 756000 19                 STQ     PRIVACY_SET_ALL

      634    18452    4               VERB = %ALL_SET_VERBS;

  18452 21 002731   034000 236003                    LDQ     14336,DU
        21 002732   200023 756100                    STQ     VERB,,AUTO

      635    18453    4               RETURN;

  18453 21 002733   000001 702211                    TSX2  ! 1,X1
PL6.E3A0      #001=Z9EB$DML_USE File=Z9EB.:Z8A6TSI                               SAT 08/09/97 13:43 Page:115

      636    18454    4             END;
      637    18455
      638    18456    3       IF PRIVACY_SET_ALL = %TRUE         THEN

  18456 21 002734   000004 234000 19                 SZN     PRIVACY_SET_ALL
        21 002735   002753 605000 21                 TPL     s:18464

      639    18457    4         DO;

      640    18458    4           CALL Z8AE$ERROR(%E$DUPLICATE_SET_ALL,

  18458 21 002736   000004 471500                    LDP1    4,,PR0
        21 002737   100006 633500                    EPPR3   6,,PR1
        21 002740   200050 453500                    STP3    @UCW_CONST+3,,AUTO
        21 002741   100005 634500                    EPPR4   5,,PR1
        21 002742   200047 454500                    STP4    @UCW_CONST+2,,AUTO
        21 002743   000037 236000 22                 LDQ     31
        21 002744   200046 756100                    STQ     @UCW_CONST+1,,AUTO
        21 002745   200046 630500                    EPPR0   @UCW_CONST+1,,AUTO
        21 002746   000025 631400 22                 EPPR1   21
        21 002747   000000 701000 xent               TSX1    Z8AE$ERROR
        21 002750   000000 011000                    NOP     0

      641    18459    4                           WORD_LIST$ -> LX_LIST.HEAD$ -> LX_ITEM.LINE,
      642    18460    4                           WORD_LIST$ -> LX_LIST.HEAD$ -> LX_ITEM.COLUMN);
      643    18461    4           RETURN;

  18461 21 002751   200044 221300                    LDX1  ! STORE_FIELD+1,,AUTO
        21 002752   000001 702211                    TSX2  ! 1,X1

      644    18462    4         END;
      645    18463
      646    18464    3       CONNECT_SET = %FALSE;

  18464 21 002753   200036 450100                    STZ     CONNECT_SET,,AUTO

PL6.E3A0      #001=Z9EB$DML_USE File=Z9EB.:Z8A6TSI                               SAT 08/09/97 13:43 Page:116
      647    18465    3       DISCONNECT_SET = %FALSE;

  18465 21 002754   200037 450100                    STZ     DISCONNECT_SET,,AUTO

      648    18466    3       FIND_SET = %FALSE;

  18466 21 002755   200040 450100                    STZ     FIND_SET,,AUTO

      649    18467    3       DUPLICATE_FLAG = %FALSE;

  18467 21 002756   200022 450100                    STZ     DUPLICATE_FLAG,,AUTO

      650    18468    3       WORD$ = WORD_LIST$ -> LX_LIST.HEAD$;

  18468 21 002757   000004 236100                    LDQ     4,,PR0
        21 002760   200013 756100                    STQ     WORD$,,AUTO

      651    18469    4       DO WHILE WORD$ ~= ADDR(NIL);

  18469 21 002761   003253 710000 21                 TRA     s:18518

      652    18470
      653    18471    5         DO CASE(WORD$ -> LX_ITEM.SYMBOL);

  18471 21 002762   200013 470500                    LDP0    WORD$,,AUTO
        21 002763   000003 235100                    LDA     3,,PR0
        21 002764   000154 135007                    SBLA    108,DL
        21 002765   000147 115007                    CMPA    103,DL
        21 002766   002770 602005 21                 TNC     s:18471+6,AL
        21 002767   003214 710000 21                 TRA     s:18501
        21 002770   003175 710000 21                 TRA     s:18492
        21 002771   003214 710000 21                 TRA     s:18501
        21 002772   003214 710000 21                 TRA     s:18501
        21 002773   003214 710000 21                 TRA     s:18501
        21 002774   003214 710000 21                 TRA     s:18501
        21 002775   003214 710000 21                 TRA     s:18501
        21 002776   003214 710000 21                 TRA     s:18501
PL6.E3A0      #001=Z9EB$DML_USE File=Z9EB.:Z8A6TSI                               SAT 08/09/97 13:43 Page:117
        21 002777   003214 710000 21                 TRA     s:18501
        21 003000   003214 710000 21                 TRA     s:18501
        21 003001   003214 710000 21                 TRA     s:18501
        21 003002   003214 710000 21                 TRA     s:18501
        21 003003   003214 710000 21                 TRA     s:18501
        21 003004   003214 710000 21                 TRA     s:18501
        21 003005   003214 710000 21                 TRA     s:18501
        21 003006   003214 710000 21                 TRA     s:18501
        21 003007   003214 710000 21                 TRA     s:18501
        21 003010   003214 710000 21                 TRA     s:18501
        21 003011   003214 710000 21                 TRA     s:18501
        21 003012   003214 710000 21                 TRA     s:18501
        21 003013   003214 710000 21                 TRA     s:18501
        21 003014   003214 710000 21                 TRA     s:18501
        21 003015   003214 710000 21                 TRA     s:18501
        21 003016   003214 710000 21                 TRA     s:18501
        21 003017   003214 710000 21                 TRA     s:18501
        21 003020   003214 710000 21                 TRA     s:18501
        21 003021   003214 710000 21                 TRA     s:18501
        21 003022   003214 710000 21                 TRA     s:18501
        21 003023   003214 710000 21                 TRA     s:18501
        21 003024   003214 710000 21                 TRA     s:18501
        21 003025   003214 710000 21                 TRA     s:18501
        21 003026   003214 710000 21                 TRA     s:18501
        21 003027   003214 710000 21                 TRA     s:18501
        21 003030   003214 710000 21                 TRA     s:18501
        21 003031   003214 710000 21                 TRA     s:18501
        21 003032   003214 710000 21                 TRA     s:18501
        21 003033   003214 710000 21                 TRA     s:18501
        21 003034   003214 710000 21                 TRA     s:18501
        21 003035   003214 710000 21                 TRA     s:18501
        21 003036   003214 710000 21                 TRA     s:18501
        21 003037   003214 710000 21                 TRA     s:18501
        21 003040   003156 710000 21                 TRA     s:18483
        21 003041   003214 710000 21                 TRA     s:18501
        21 003042   003214 710000 21                 TRA     s:18501
        21 003043   003214 710000 21                 TRA     s:18501
PL6.E3A0      #001=Z9EB$DML_USE File=Z9EB.:Z8A6TSI                               SAT 08/09/97 13:43 Page:118
        21 003044   003214 710000 21                 TRA     s:18501
        21 003045   003214 710000 21                 TRA     s:18501
        21 003046   003214 710000 21                 TRA     s:18501
        21 003047   003214 710000 21                 TRA     s:18501
        21 003050   003214 710000 21                 TRA     s:18501
        21 003051   003214 710000 21                 TRA     s:18501
        21 003052   003214 710000 21                 TRA     s:18501
        21 003053   003214 710000 21                 TRA     s:18501
        21 003054   003214 710000 21                 TRA     s:18501
        21 003055   003214 710000 21                 TRA     s:18501
        21 003056   003214 710000 21                 TRA     s:18501
        21 003057   003214 710000 21                 TRA     s:18501
        21 003060   003214 710000 21                 TRA     s:18501
        21 003061   003214 710000 21                 TRA     s:18501
        21 003062   003214 710000 21                 TRA     s:18501
        21 003063   003214 710000 21                 TRA     s:18501
        21 003064   003214 710000 21                 TRA     s:18501
        21 003065   003214 710000 21                 TRA     s:18501
        21 003066   003214 710000 21                 TRA     s:18501
        21 003067   003214 710000 21                 TRA     s:18501
        21 003070   003214 710000 21                 TRA     s:18501
        21 003071   003214 710000 21                 TRA     s:18501
        21 003072   003214 710000 21                 TRA     s:18501
        21 003073   003214 710000 21                 TRA     s:18501
        21 003074   003214 710000 21                 TRA     s:18501
        21 003075   003214 710000 21                 TRA     s:18501
        21 003076   003214 710000 21                 TRA     s:18501
        21 003077   003214 710000 21                 TRA     s:18501
        21 003100   003214 710000 21                 TRA     s:18501
        21 003101   003214 710000 21                 TRA     s:18501
        21 003102   003214 710000 21                 TRA     s:18501
        21 003103   003214 710000 21                 TRA     s:18501
        21 003104   003214 710000 21                 TRA     s:18501
        21 003105   003214 710000 21                 TRA     s:18501
        21 003106   003214 710000 21                 TRA     s:18501
        21 003107   003214 710000 21                 TRA     s:18501
        21 003110   003214 710000 21                 TRA     s:18501
PL6.E3A0      #001=Z9EB$DML_USE File=Z9EB.:Z8A6TSI                               SAT 08/09/97 13:43 Page:119
        21 003111   003214 710000 21                 TRA     s:18501
        21 003112   003214 710000 21                 TRA     s:18501
        21 003113   003214 710000 21                 TRA     s:18501
        21 003114   003214 710000 21                 TRA     s:18501
        21 003115   003214 710000 21                 TRA     s:18501
        21 003116   003214 710000 21                 TRA     s:18501
        21 003117   003214 710000 21                 TRA     s:18501
        21 003120   003214 710000 21                 TRA     s:18501
        21 003121   003214 710000 21                 TRA     s:18501
        21 003122   003214 710000 21                 TRA     s:18501
        21 003123   003214 710000 21                 TRA     s:18501
        21 003124   003214 710000 21                 TRA     s:18501
        21 003125   003214 710000 21                 TRA     s:18501
        21 003126   003214 710000 21                 TRA     s:18501
        21 003127   003214 710000 21                 TRA     s:18501
        21 003130   003214 710000 21                 TRA     s:18501
        21 003131   003214 710000 21                 TRA     s:18501
        21 003132   003214 710000 21                 TRA     s:18501
        21 003133   003214 710000 21                 TRA     s:18501
        21 003134   003214 710000 21                 TRA     s:18501
        21 003135   003214 710000 21                 TRA     s:18501
        21 003136   003137 710000 21                 TRA     s:18474

      654    18472
      655    18473    5           CASE(%RSV_WRD_FIND);

      656    18474    5               IF FIND_SET_ALL = %FALSE  AND FIND_SET = %FALSE  THEN

  18474 21 003137   000017 234000 19                 SZN     FIND_SET_ALL
        21 003140   003153 604000 21                 TMI     s:18480
        21 003141   200040 234100                    SZN     FIND_SET,,AUTO
        21 003142   003153 604000 21                 TMI     s:18480

      657    18475    6                 DO;

      658    18476    6                   FIND_SET = %TRUE;

PL6.E3A0      #001=Z9EB$DML_USE File=Z9EB.:Z8A6TSI                               SAT 08/09/97 13:43 Page:120
  18476 21 003143   400000 236003                    LDQ     -131072,DU
        21 003144   200040 756100                    STQ     FIND_SET,,AUTO

      659    18477    6                   VERB = VERB + %FIND;

  18477 21 003145   200023 236100                    LDQ     VERB,,AUTO
        21 003146   000035 772000                    QRL     29
        21 003147   000001 036007                    ADLQ    1,DL
        21 003150   000035 736000                    QLS     29
        21 003151   200023 756100                    STQ     VERB,,AUTO

      660    18478    6                 END;

  18478 21 003152   003232 710000 21                 TRA     s:18508

      661    18479    5               ELSE
      662    18480    5                   DUPLICATE_FLAG = %TRUE;

  18480 21 003153   400000 236003                    LDQ     -131072,DU
        21 003154   200022 756100                    STQ     DUPLICATE_FLAG,,AUTO
        21 003155   003232 710000 21                 TRA     s:18508

      663    18481
      664    18482    5           CASE(%RSV_WRD_DISCONNECT);

      665    18483    5               IF DISCONNECT_SET_ALL = %FALSE  AND DISCONNECT_SET = %FALSE  THEN

  18483 21 003156   000016 234000 19                 SZN     DISCONNECT_SET_ALL
        21 003157   003172 604000 21                 TMI     s:18489
        21 003160   200037 234100                    SZN     DISCONNECT_SET,,AUTO
        21 003161   003172 604000 21                 TMI     s:18489

      666    18484    6                 DO;

      667    18485    6                   DISCONNECT_SET = %TRUE;

  18485 21 003162   400000 236003                    LDQ     -131072,DU
PL6.E3A0      #001=Z9EB$DML_USE File=Z9EB.:Z8A6TSI                               SAT 08/09/97 13:43 Page:121
        21 003163   200037 756100                    STQ     DISCONNECT_SET,,AUTO

      668    18486    6                   VERB = VERB + %DISCONNECT;

  18486 21 003164   200023 236100                    LDQ     VERB,,AUTO
        21 003165   000035 772000                    QRL     29
        21 003166   000002 036007                    ADLQ    2,DL
        21 003167   000035 736000                    QLS     29
        21 003170   200023 756100                    STQ     VERB,,AUTO

      669    18487    6                 END;

  18487 21 003171   003232 710000 21                 TRA     s:18508

      670    18488    5               ELSE
      671    18489    5                   DUPLICATE_FLAG = %TRUE;

  18489 21 003172   400000 236003                    LDQ     -131072,DU
        21 003173   200022 756100                    STQ     DUPLICATE_FLAG,,AUTO
        21 003174   003232 710000 21                 TRA     s:18508

      672    18490
      673    18491    5           CASE(%RSV_WRD_CONNECT);

      674    18492    5               IF CONNECT_SET_ALL = %FALSE  AND CONNECT_SET = %FALSE  THEN

  18492 21 003175   000015 234000 19                 SZN     CONNECT_SET_ALL
        21 003176   003211 604000 21                 TMI     s:18498
        21 003177   200036 234100                    SZN     CONNECT_SET,,AUTO
        21 003200   003211 604000 21                 TMI     s:18498

      675    18493    6                 DO;

      676    18494    6                   CONNECT_SET = %TRUE;

  18494 21 003201   400000 236003                    LDQ     -131072,DU
        21 003202   200036 756100                    STQ     CONNECT_SET,,AUTO
PL6.E3A0      #001=Z9EB$DML_USE File=Z9EB.:Z8A6TSI                               SAT 08/09/97 13:43 Page:122

      677    18495    6                   VERB = VERB + %CONNECT;

  18495 21 003203   200023 236100                    LDQ     VERB,,AUTO
        21 003204   000035 772000                    QRL     29
        21 003205   000004 036007                    ADLQ    4,DL
        21 003206   000035 736000                    QLS     29
        21 003207   200023 756100                    STQ     VERB,,AUTO

      678    18496    6                 END;

  18496 21 003210   003232 710000 21                 TRA     s:18508

      679    18497    5               ELSE
      680    18498    5                   DUPLICATE_FLAG = %TRUE;

  18498 21 003211   400000 236003                    LDQ     -131072,DU
        21 003212   200022 756100                    STQ     DUPLICATE_FLAG,,AUTO
        21 003213   003232 710000 21                 TRA     s:18508

      681    18499
      682    18500    5            CASE(ELSE);

      683    18501    5               CALL Z8AE$ERROR(%E$SET_PRIVACY,

  18501 21 003214   200013 236100                    LDQ     WORD$,,AUTO
        21 003215   000002 036003                    ADLQ    2,DU
        21 003216   200051 756100                    STQ     @UCW_CONST+4,,AUTO
        21 003217   200013 236100                    LDQ     WORD$,,AUTO
        21 003220   000006 036003                    ADLQ    6,DU
        21 003221   200050 756100                    STQ     @UCW_CONST+3,,AUTO
        21 003222   200013 236100                    LDQ     WORD$,,AUTO
        21 003223   000005 036003                    ADLQ    5,DU
        21 003224   000041 235000 22                 LDA     33
        21 003225   200046 757100                    STAQ    @UCW_CONST+1,,AUTO
        21 003226   200046 630500                    EPPR0   @UCW_CONST+1,,AUTO
        21 003227   000003 631400 22                 EPPR1   3
PL6.E3A0      #001=Z9EB$DML_USE File=Z9EB.:Z8A6TSI                               SAT 08/09/97 13:43 Page:123
        21 003230   000000 701000 xent               TSX1    Z8AE$ERROR
        21 003231   000000 011000                    NOP     0

      684    18502    5                               WORD$ -> LX_ITEM.LINE,
      685    18503    5                               WORD$ -> LX_ITEM.COLUMN,
      686    18504    5                               WORD$ -> LX_ITEM.DNT$);
      687    18505
      688    18506    5         END;/*V*      CASE    */

      689    18507
      690    18508    4         IF DUPLICATE_FLAG = %TRUE    THEN

  18508 21 003232   200022 234100                    SZN     DUPLICATE_FLAG,,AUTO
        21 003233   003250 605000 21                 TPL     s:18516

      691    18509    5           DO;

      692    18510    5             CALL Z8AE$ERROR( %E$DUPLICATE_ON_PHRASE,

  18510 21 003234   200013 236100                    LDQ     WORD$,,AUTO
        21 003235   000006 036003                    ADLQ    6,DU
        21 003236   200050 756100                    STQ     @UCW_CONST+3,,AUTO
        21 003237   200013 236100                    LDQ     WORD$,,AUTO
        21 003240   000005 036003                    ADLQ    5,DU
        21 003241   000035 235000 22                 LDA     29
        21 003242   200046 757100                    STAQ    @UCW_CONST+1,,AUTO
        21 003243   200046 630500                    EPPR0   @UCW_CONST+1,,AUTO
        21 003244   000025 631400 22                 EPPR1   21
        21 003245   000000 701000 xent               TSX1    Z8AE$ERROR
        21 003246   000000 011000                    NOP     0

      693    18511    5                              WORD$ -> LX_ITEM.LINE,
      694    18512    5                              WORD$ -> LX_ITEM.COLUMN);
      695    18513    5             DUPLICATE_FLAG = %FALSE;

  18513 21 003247   200022 450100                    STZ     DUPLICATE_FLAG,,AUTO

PL6.E3A0      #001=Z9EB$DML_USE File=Z9EB.:Z8A6TSI                               SAT 08/09/97 13:43 Page:124
      696    18514    5           END;

      697    18515
      698    18516    4         WORD$ = WORD$ -> LX_ITEM.LINK;

  18516 21 003250   200013 470500                    LDP0    WORD$,,AUTO
        21 003251   000007 236100                    LDQ     7,,PR0
        21 003252   200013 756100                    STQ     WORD$,,AUTO

      699    18517
      700    18518    4       END;    /*V*  WHILE WORD$ ~= ADDR(NIL)  */

  18518 21 003253   000000 116000 22                 CMPQ    0
        21 003254   002762 601000 21                 TNZ     s:18471

      701    18519
      702    18520    3   END SET_CHECK_LIST;

  18520 21 003255   200044 221300                    LDX1  ! STORE_FIELD+1,,AUTO
        21 003256   000001 702211                    TSX2  ! 1,X1

      703    18521        %EJECT;
PL6.E3A0      #001=Z9EB$DML_USE File=Z9EB.:Z8A6TSI                               SAT 08/09/97 13:43 Page:125
      704    18522        /*-----------*/
      705    18523    2     FIELD_CHECK :    PROC  ;

  18523 21 003257   200044 741300       FIELD_CHECK  STX1  ! STORE_FIELD+1,,AUTO

      706    18524        /*-----------*/
      707    18525
      708    18526    3       IF WORD_LIST$ -> LX_ITEM.ID = %LX_TERMINAL AND WORD_LIST$ -> LX_ITEM.SYMBOL = %
             18526                EMPTY         THEN

  18526 21 003260   200011 470500                    LDP0    WORD_LIST$,,AUTO
        21 003261   000000 220100                    LDX0    0,,PR0
        21 003262   003270 601000 21                 TNZ     s:18532
        21 003263   000003 235100                    LDA     3,,PR0
        21 003264   003270 601000 21                 TNZ     s:18532

      709    18527    4         DO;

      710    18528    4           VERB = %ALL_FIELD_VERBS;

  18528 21 003265   700000 236003                    LDQ     -32768,DU
        21 003266   200023 756100                    STQ     VERB,,AUTO

      711    18529    4           RETURN;

  18529 21 003267   000001 702211                    TSX2  ! 1,X1

      712    18530    4         END;
      713    18531
      714    18532    3       GET_FIELD = %FALSE;

  18532 21 003270   200041 450100                    STZ     GET_FIELD,,AUTO

      715    18533    3       MODIFY_FIELD = %FALSE;

  18533 21 003271   200042 450100                    STZ     MODIFY_FIELD,,AUTO

PL6.E3A0      #001=Z9EB$DML_USE File=Z9EB.:Z8A6TSI                               SAT 08/09/97 13:43 Page:126
      716    18534    3       STORE_FIELD = %FALSE;

  18534 21 003272   200043 450100                    STZ     STORE_FIELD,,AUTO

      717    18535
      718    18536    3       DUPLICATE_FLAG = %FALSE;

  18536 21 003273   200022 450100                    STZ     DUPLICATE_FLAG,,AUTO

      719    18537    3       WORD$ = WORD_LIST$ -> LX_LIST.HEAD$;

  18537 21 003274   000004 236100                    LDQ     4,,PR0
        21 003275   200013 756100                    STQ     WORD$,,AUTO

      720    18538    4       DO WHILE WORD$ ~= ADDR(NIL);

  18538 21 003276   003506 710000 21                 TRA     s:18578

      721    18539
      722    18540    5         DO CASE(WORD$ -> LX_ITEM.SYMBOL);

  18540 21 003277   200013 470500                    LDP0    WORD$,,AUTO
        21 003300   000003 235100                    LDA     3,,PR0
        21 003301   000336 135007                    SBLA    222,DL
        21 003302   000110 115007                    CMPA    72,DL
        21 003303   003305 602005 21                 TNC     s:18540+6,AL
        21 003304   003447 710000 21                 TRA     s:18561
        21 003305   003415 710000 21                 TRA     s:18543
        21 003306   003447 710000 21                 TRA     s:18561
        21 003307   003447 710000 21                 TRA     s:18561
        21 003310   003447 710000 21                 TRA     s:18561
        21 003311   003447 710000 21                 TRA     s:18561
        21 003312   003447 710000 21                 TRA     s:18561
        21 003313   003447 710000 21                 TRA     s:18561
        21 003314   003447 710000 21                 TRA     s:18561
        21 003315   003447 710000 21                 TRA     s:18561
        21 003316   003447 710000 21                 TRA     s:18561
PL6.E3A0      #001=Z9EB$DML_USE File=Z9EB.:Z8A6TSI                               SAT 08/09/97 13:43 Page:127
        21 003317   003447 710000 21                 TRA     s:18561
        21 003320   003447 710000 21                 TRA     s:18561
        21 003321   003447 710000 21                 TRA     s:18561
        21 003322   003447 710000 21                 TRA     s:18561
        21 003323   003447 710000 21                 TRA     s:18561
        21 003324   003447 710000 21                 TRA     s:18561
        21 003325   003447 710000 21                 TRA     s:18561
        21 003326   003447 710000 21                 TRA     s:18561
        21 003327   003447 710000 21                 TRA     s:18561
        21 003330   003447 710000 21                 TRA     s:18561
        21 003331   003447 710000 21                 TRA     s:18561
        21 003332   003447 710000 21                 TRA     s:18561
        21 003333   003447 710000 21                 TRA     s:18561
        21 003334   003447 710000 21                 TRA     s:18561
        21 003335   003447 710000 21                 TRA     s:18561
        21 003336   003447 710000 21                 TRA     s:18561
        21 003337   003447 710000 21                 TRA     s:18561
        21 003340   003447 710000 21                 TRA     s:18561
        21 003341   003447 710000 21                 TRA     s:18561
        21 003342   003447 710000 21                 TRA     s:18561
        21 003343   003447 710000 21                 TRA     s:18561
        21 003344   003447 710000 21                 TRA     s:18561
        21 003345   003447 710000 21                 TRA     s:18561
        21 003346   003447 710000 21                 TRA     s:18561
        21 003347   003447 710000 21                 TRA     s:18561
        21 003350   003447 710000 21                 TRA     s:18561
        21 003351   003447 710000 21                 TRA     s:18561
        21 003352   003447 710000 21                 TRA     s:18561
        21 003353   003447 710000 21                 TRA     s:18561
        21 003354   003447 710000 21                 TRA     s:18561
        21 003355   003447 710000 21                 TRA     s:18561
        21 003356   003447 710000 21                 TRA     s:18561
        21 003357   003447 710000 21                 TRA     s:18561
        21 003360   003447 710000 21                 TRA     s:18561
        21 003361   003447 710000 21                 TRA     s:18561
        21 003362   003447 710000 21                 TRA     s:18561
        21 003363   003447 710000 21                 TRA     s:18561
PL6.E3A0      #001=Z9EB$DML_USE File=Z9EB.:Z8A6TSI                               SAT 08/09/97 13:43 Page:128
        21 003364   003447 710000 21                 TRA     s:18561
        21 003365   003447 710000 21                 TRA     s:18561
        21 003366   003447 710000 21                 TRA     s:18561
        21 003367   003447 710000 21                 TRA     s:18561
        21 003370   003447 710000 21                 TRA     s:18561
        21 003371   003447 710000 21                 TRA     s:18561
        21 003372   003447 710000 21                 TRA     s:18561
        21 003373   003447 710000 21                 TRA     s:18561
        21 003374   003447 710000 21                 TRA     s:18561
        21 003375   003447 710000 21                 TRA     s:18561
        21 003376   003447 710000 21                 TRA     s:18561
        21 003377   003447 710000 21                 TRA     s:18561
        21 003400   003447 710000 21                 TRA     s:18561
        21 003401   003447 710000 21                 TRA     s:18561
        21 003402   003447 710000 21                 TRA     s:18561
        21 003403   003447 710000 21                 TRA     s:18561
        21 003404   003447 710000 21                 TRA     s:18561
        21 003405   003447 710000 21                 TRA     s:18561
        21 003406   003447 710000 21                 TRA     s:18561
        21 003407   003447 710000 21                 TRA     s:18561
        21 003410   003447 710000 21                 TRA     s:18561
        21 003411   003447 710000 21                 TRA     s:18561
        21 003412   003447 710000 21                 TRA     s:18561
        21 003413   003447 710000 21                 TRA     s:18561
        21 003414   003432 710000 21                 TRA     s:18552

      723    18541
      724    18542    5           CASE(%RSV_WRD_GET);

      725    18543    5               IF GET_FIELD = %FALSE        THEN

  18543 21 003415   200041 234100                    SZN     GET_FIELD,,AUTO
        21 003416   003427 604000 21                 TMI     s:18549

      726    18544    6                 DO;

      727    18545    6                   GET_FIELD = %TRUE;
PL6.E3A0      #001=Z9EB$DML_USE File=Z9EB.:Z8A6TSI                               SAT 08/09/97 13:43 Page:129

  18545 21 003417   400000 236003                    LDQ     -131072,DU
        21 003420   200041 756100                    STQ     GET_FIELD,,AUTO

      728    18546    6                   VERB = VERB + %GET;

  18546 21 003421   200023 236100                    LDQ     VERB,,AUTO
        21 003422   000035 772000                    QRL     29
        21 003423   000100 036007                    ADLQ    64,DL
        21 003424   000035 736000                    QLS     29
        21 003425   200023 756100                    STQ     VERB,,AUTO

      729    18547    6                 END;

  18547 21 003426   003465 710000 21                 TRA     s:18568

      730    18548    5               ELSE
      731    18549    5                   DUPLICATE_FLAG = %TRUE;

  18549 21 003427   400000 236003                    LDQ     -131072,DU
        21 003430   200022 756100                    STQ     DUPLICATE_FLAG,,AUTO
        21 003431   003465 710000 21                 TRA     s:18568

      732    18550
      733    18551    5           CASE(%RSV_WRD_MODIFY);

      734    18552    5               IF MODIFY_FIELD = %FALSE        THEN

  18552 21 003432   200042 234100                    SZN     MODIFY_FIELD,,AUTO
        21 003433   003444 604000 21                 TMI     s:18558

      735    18553    6                 DO;

      736    18554    6                   MODIFY_FIELD = %TRUE;

  18554 21 003434   400000 236003                    LDQ     -131072,DU
        21 003435   200042 756100                    STQ     MODIFY_FIELD,,AUTO
PL6.E3A0      #001=Z9EB$DML_USE File=Z9EB.:Z8A6TSI                               SAT 08/09/97 13:43 Page:130

      737    18555    6                   VERB = VERB + %MODIFY;

  18555 21 003436   200023 236100                    LDQ     VERB,,AUTO
        21 003437   000035 772000                    QRL     29
        21 003440   000040 036007                    ADLQ    32,DL
        21 003441   000035 736000                    QLS     29
        21 003442   200023 756100                    STQ     VERB,,AUTO

      738    18556    6                 END;

  18556 21 003443   003465 710000 21                 TRA     s:18568

      739    18557    5               ELSE
      740    18558    5                   DUPLICATE_FLAG = %TRUE;

  18558 21 003444   400000 236003                    LDQ     -131072,DU
        21 003445   200022 756100                    STQ     DUPLICATE_FLAG,,AUTO
        21 003446   003465 710000 21                 TRA     s:18568

      741    18559
      742    18560    5             CASE(ELSE);

      743    18561    5                   CALL Z8AE$ERROR(%E$ITEM_PRIVACY,

  18561 21 003447   200013 236100                    LDQ     WORD$,,AUTO
        21 003450   000002 036003                    ADLQ    2,DU
        21 003451   200051 756100                    STQ     @UCW_CONST+4,,AUTO
        21 003452   200013 236100                    LDQ     WORD$,,AUTO
        21 003453   000006 036003                    ADLQ    6,DU
        21 003454   200050 756100                    STQ     @UCW_CONST+3,,AUTO
        21 003455   200013 236100                    LDQ     WORD$,,AUTO
        21 003456   000005 036003                    ADLQ    5,DU
        21 003457   000043 235000 22                 LDA     35
        21 003460   200046 757100                    STAQ    @UCW_CONST+1,,AUTO
        21 003461   200046 630500                    EPPR0   @UCW_CONST+1,,AUTO
        21 003462   000003 631400 22                 EPPR1   3
PL6.E3A0      #001=Z9EB$DML_USE File=Z9EB.:Z8A6TSI                               SAT 08/09/97 13:43 Page:131
        21 003463   000000 701000 xent               TSX1    Z8AE$ERROR
        21 003464   000000 011000                    NOP     0

      744    18562    5                                   WORD$ -> LX_ITEM.LINE,
      745    18563    5                                   WORD$ -> LX_ITEM.COLUMN,
      746    18564    5                                   WORD$ -> LX_ITEM.DNT$);
      747    18565
      748    18566    5         END;/*V*      CASE    */

      749    18567
      750    18568    4         IF DUPLICATE_FLAG = %TRUE    THEN

  18568 21 003465   200022 234100                    SZN     DUPLICATE_FLAG,,AUTO
        21 003466   003503 605000 21                 TPL     s:18576

      751    18569    5           DO;

      752    18570    5             CALL Z8AE$ERROR( %E$DUPLICATE_ON_PHRASE,

  18570 21 003467   200013 236100                    LDQ     WORD$,,AUTO
        21 003470   000006 036003                    ADLQ    6,DU
        21 003471   200050 756100                    STQ     @UCW_CONST+3,,AUTO
        21 003472   200013 236100                    LDQ     WORD$,,AUTO
        21 003473   000005 036003                    ADLQ    5,DU
        21 003474   000035 235000 22                 LDA     29
        21 003475   200046 757100                    STAQ    @UCW_CONST+1,,AUTO
        21 003476   200046 630500                    EPPR0   @UCW_CONST+1,,AUTO
        21 003477   000025 631400 22                 EPPR1   21
        21 003500   000000 701000 xent               TSX1    Z8AE$ERROR
        21 003501   000000 011000                    NOP     0

      753    18571    5                              WORD$ -> LX_ITEM.LINE,
      754    18572    5                              WORD$ -> LX_ITEM.COLUMN);
      755    18573    5             DUPLICATE_FLAG = %FALSE;

  18573 21 003502   200022 450100                    STZ     DUPLICATE_FLAG,,AUTO

PL6.E3A0      #001=Z9EB$DML_USE File=Z9EB.:Z8A6TSI                               SAT 08/09/97 13:43 Page:132
      756    18574    5           END;

      757    18575
      758    18576    4         WORD$ = WORD$ -> LX_ITEM.LINK;

  18576 21 003503   200013 470500                    LDP0    WORD$,,AUTO
        21 003504   000007 236100                    LDQ     7,,PR0
        21 003505   200013 756100                    STQ     WORD$,,AUTO

      759    18577
      760    18578    4       END;    /*V*  WHILE WORD$ ~= ADDR(NIL)  */

  18578 21 003506   000000 116000 22                 CMPQ    0
        21 003507   003277 601000 21                 TNZ     s:18540

      761    18579
      762    18580    3   END FIELD_CHECK;

  18580 21 003510   200044 221300                    LDX1  ! STORE_FIELD+1,,AUTO
        21 003511   000001 702211                    TSX2  ! 1,X1

      763    18581        %EJECT;
PL6.E3A0      #001=Z9EB$DML_USE File=Z9EB.:Z8A6TSI                               SAT 08/09/97 13:43 Page:133
      764    18582    2   PRIVACY_PHRASE$ = LIST$ -> LX_LIST.HEAD$;

  18582 21 003512   200003 470500                    LDP0    @LIST$,,AUTO
        21 003513   000000 471500                    LDP1    0,,PR0
        21 003514   100004 236100                    LDQ     4,,PR1
        21 003515   200014 756100                    STQ     PRIVACY_PHRASE$,,AUTO

      765    18583
      766    18584    3   DO WHILE PRIVACY_PHRASE$ ~= ADDR(NIL);

  18584 21 003516   004511 710000 21                 TRA     s:18817

      767    18585
      768    18586    3       WORD_LIST$ = PRIVACY_PHRASE$ -> LX_LIST.HEAD$;

  18586 21 003517   200014 470500                    LDP0    PRIVACY_PHRASE$,,AUTO
        21 003520   000004 236100                    LDQ     4,,PR0
        21 003521   200011 756100                    STQ     WORD_LIST$,,AUTO

      769    18587    3       FOR_OPTION$ = PRIVACY_PHRASE$ -> LX_LIST.TAIL$;

  18587 21 003522   000001 236100                    LDQ     1,,PR0
        21 003523   200012 756100                    STQ     FOR_OPTION$,,AUTO

      770    18588    3       VERB = 0;

  18588 21 003524   200023 450100                    STZ     VERB,,AUTO

      771    18589    3       UCW_CONST = 0;

  18589 21 003525   200024 450100                    STZ     UCW_CONST,,AUTO

      772    18590
      773    18591    4       DO CASE( FOR_OPTION$ -> LX_ITEM.SYMBOL);

  18591 21 003526   200012 471500                    LDP1    FOR_OPTION$,,AUTO
        21 003527   100003 235100                    LDA     3,,PR1
PL6.E3A0      #001=Z9EB$DML_USE File=Z9EB.:Z8A6TSI                               SAT 08/09/97 13:43 Page:134
        21 003530   000556 135007                    SBLA    366,DL
        21 003531   000064 115007                    CMPA    52,DL
        21 003532   003534 602005 21                 TNC     s:18591+6,AL
        21 003533   003670 710000 21                 TRA     s:18621
        21 003534   003620 710000 21                 TRA     s:18595
        21 003535   003670 710000 21                 TRA     s:18621
        21 003536   003670 710000 21                 TRA     s:18621
        21 003537   003670 710000 21                 TRA     s:18621
        21 003540   003670 710000 21                 TRA     s:18621
        21 003541   003670 710000 21                 TRA     s:18621
        21 003542   003670 710000 21                 TRA     s:18621
        21 003543   003670 710000 21                 TRA     s:18621
        21 003544   003670 710000 21                 TRA     s:18621
        21 003545   003670 710000 21                 TRA     s:18621
        21 003546   003670 710000 21                 TRA     s:18621
        21 003547   003670 710000 21                 TRA     s:18621
        21 003550   003670 710000 21                 TRA     s:18621
        21 003551   003670 710000 21                 TRA     s:18621
        21 003552   003670 710000 21                 TRA     s:18621
        21 003553   003670 710000 21                 TRA     s:18621
        21 003554   003670 710000 21                 TRA     s:18621
        21 003555   003670 710000 21                 TRA     s:18621
        21 003556   003670 710000 21                 TRA     s:18621
        21 003557   003670 710000 21                 TRA     s:18621
        21 003560   003670 710000 21                 TRA     s:18621
        21 003561   003670 710000 21                 TRA     s:18621
        21 003562   003670 710000 21                 TRA     s:18621
        21 003563   003670 710000 21                 TRA     s:18621
        21 003564   003670 710000 21                 TRA     s:18621
        21 003565   003670 710000 21                 TRA     s:18621
        21 003566   003670 710000 21                 TRA     s:18621
        21 003567   003670 710000 21                 TRA     s:18621
        21 003570   003670 710000 21                 TRA     s:18621
        21 003571   003670 710000 21                 TRA     s:18621
        21 003572   003670 710000 21                 TRA     s:18621
        21 003573   003670 710000 21                 TRA     s:18621
        21 003574   003670 710000 21                 TRA     s:18621
PL6.E3A0      #001=Z9EB$DML_USE File=Z9EB.:Z8A6TSI                               SAT 08/09/97 13:43 Page:135
        21 003575   003670 710000 21                 TRA     s:18621
        21 003576   003670 710000 21                 TRA     s:18621
        21 003577   003670 710000 21                 TRA     s:18621
        21 003600   003670 710000 21                 TRA     s:18621
        21 003601   003670 710000 21                 TRA     s:18621
        21 003602   003670 710000 21                 TRA     s:18621
        21 003603   003670 710000 21                 TRA     s:18621
        21 003604   003670 710000 21                 TRA     s:18621
        21 003605   003670 710000 21                 TRA     s:18621
        21 003606   003670 710000 21                 TRA     s:18621
        21 003607   003670 710000 21                 TRA     s:18621
        21 003610   003670 710000 21                 TRA     s:18621
        21 003611   003670 710000 21                 TRA     s:18621
        21 003612   003670 710000 21                 TRA     s:18621
        21 003613   003670 710000 21                 TRA     s:18621
        21 003614   003670 710000 21                 TRA     s:18621
        21 003615   003670 710000 21                 TRA     s:18621
        21 003616   003670 710000 21                 TRA     s:18621
        21 003617   003644 710000 21                 TRA     s:18607

      774    18592
      775    18593    4           CASE(%RSV_WRD_RECORDS);

      776    18594
      777    18595    4               CALL RECORD_CHECK;

  18595 21 003620   000455 701000 21                 TSX1    RECORD_CHECK
        21 003621   000000 011000                    NOP     0

      778    18596
      779    18597    4               IF VERB ~= 0   THEN

  18597 21 003622   200023 236100                    LDQ     VERB,,AUTO
        21 003623   774000 316003                    CANQ    -2048,DU
        21 003624   004506 600000 21                 TZE     s:18815

      780    18598    5                 DO;
PL6.E3A0      #001=Z9EB$DML_USE File=Z9EB.:Z8A6TSI                               SAT 08/09/97 13:43 Page:136

      781    18599    5                   UCW_PRIVACY.VERBS = VERB;

  18599 21 003625   000011 772000                    QRL     9
        21 003626   200024 676100                    ERQ     UCW_CONST,,AUTO
        21 003627   000774 376003                    ANQ     508,DU
        21 003630   200024 656100                    ERSQ    UCW_CONST,,AUTO

      782    18600    5                   UCW_PRIVACY.SS = 0;

  18600 21 003631   000044 236000 22                 LDQ     36
        21 003632   200024 356100                    ANSQ    UCW_CONST,,AUTO

      783    18601    5                   UCW_PRIVACY.TYPE = %PRIVACY_REC;

  18601 21 003633   001000 236003                    LDQ     512,DU
        21 003634   200024 552140                    STBQ    UCW_CONST,'40'O,AUTO

      784    18602    5                   UCW_PRIVACY.R     = 0;

  18602 21 003635   000000 220003                    LDX0    0,DU
        21 003636   200024 440100                    SXL0    UCW_CONST,,AUTO

      785    18603    5                   CALL BUILD_USEP_TABLE(UCW_CONST);

  18603 21 003637   200024 630500                    EPPR0   UCW_CONST,,AUTO
        21 003640   200045 450500                    STP0    @UCW_CONST,,AUTO
        21 003641   000003 701000 21                 TSX1    BUILD_USEP_TABLE
        21 003642   000000 011000                    NOP     0

      786    18604    5                 END;

  18604 21 003643   004506 710000 21                 TRA     s:18815

      787    18605
      788    18606    4           CASE(%RSV_WRD_SETS);

PL6.E3A0      #001=Z9EB$DML_USE File=Z9EB.:Z8A6TSI                               SAT 08/09/97 13:43 Page:137
      789    18607    4               CALL SET_CHECK;

  18607 21 003644   001411 701000 21                 TSX1    SET_CHECK
        21 003645   000000 011000                    NOP     0

      790    18608
      791    18609    4               IF VERB ~= 0    THEN

  18609 21 003646   200023 236100                    LDQ     VERB,,AUTO
        21 003647   774000 316003                    CANQ    -2048,DU
        21 003650   004506 600000 21                 TZE     s:18815

      792    18610    5                 DO;

      793    18611    5                   UCW_PRIVACY.VERBS = VERB;

  18611 21 003651   000011 772000                    QRL     9
        21 003652   200024 676100                    ERQ     UCW_CONST,,AUTO
        21 003653   000774 376003                    ANQ     508,DU
        21 003654   200024 656100                    ERSQ    UCW_CONST,,AUTO

      794    18612    5                   UCW_PRIVACY.SS = 0;

  18612 21 003655   000044 236000 22                 LDQ     36
        21 003656   200024 356100                    ANSQ    UCW_CONST,,AUTO

      795    18613    5                   UCW_PRIVACY.TYPE = %PRIVACY_SET_#;

  18613 21 003657   004000 236003                    LDQ     2048,DU
        21 003660   200024 552140                    STBQ    UCW_CONST,'40'O,AUTO

      796    18614    5                   UCW_PRIVACY.R     = 0;

  18614 21 003661   000000 220003                    LDX0    0,DU
        21 003662   200024 440100                    SXL0    UCW_CONST,,AUTO

      797    18615    5                   CALL BUILD_USEP_TABLE(UCW_CONST);
PL6.E3A0      #001=Z9EB$DML_USE File=Z9EB.:Z8A6TSI                               SAT 08/09/97 13:43 Page:138

  18615 21 003663   200024 630500                    EPPR0   UCW_CONST,,AUTO
        21 003664   200045 450500                    STP0    @UCW_CONST,,AUTO
        21 003665   000003 701000 21                 TSX1    BUILD_USEP_TABLE
        21 003666   000000 011000                    NOP     0

      798    18616    5                 END;

  18616 21 003667   004506 710000 21                 TRA     s:18815

      799    18617
      800    18618
      801    18619    4           CASE(ELSE);

      802    18620
      803    18621    4               IDENT$ = FOR_OPTION$ -> LX_LIST.HEAD$;

  18621 21 003670   100004 236100                    LDQ     4,,PR1
        21 003671   200017 756100                    STQ     IDENT$,,AUTO

      804    18622    5               DO WHILE IDENT$ ~= ADDR(NIL);

  18622 21 003672   004503 710000 21                 TRA     s:18811

      805    18623
      806    18624                        %FISH(TRIAD = LIST$ -> LX_ETT_ITEM.ETT$, RTN = IDENT_ST$);

  18626 21 003673   200003 470500                    LDP0    @LIST$,,AUTO
        21 003674   000000 471500                    LDP1    0,,PR0
        21 003675   100001 236100                    LDQ     1,,PR1
        21 003676   200016 756100                    STQ     IDENT_ST$,,AUTO

  18627 21 003677   200016 471500                    LDP1    IDENT_ST$,,AUTO
        21 003700   100000 220100                    LDX0    0,,PR1
        21 003701   000751 100003                    CMPX0   489,DU
        21 003702   003712 603000 21                 TRC     s:18632

PL6.E3A0      #001=Z9EB$DML_USE File=Z9EB.:Z8A6TSI                               SAT 08/09/97 13:43 Page:139
  18628 21 003703   200016 470500                    LDP0    IDENT_ST$,,AUTO
        21 003704   000001 236100                    LDQ     1,,PR0
        21 003705   200016 756100                    STQ     IDENT_ST$,,AUTO

  18629 21 003706   200016 470500                    LDP0    IDENT_ST$,,AUTO
        21 003707   000000 220100                    LDX0    0,,PR0
        21 003710   000751 100003                    CMPX0   489,DU
        21 003711   003703 602000 21                 TNC     s:18628

      807    18632    6                   DO CASE(IDENT_ST$ -> ST.ID);

  18632 21 003712   200016 470500                    LDP0    IDENT_ST$,,AUTO
        21 003713   000000 236100                    LDQ     0,,PR0
        21 003714   000022 772000                    QRL     18
        21 003715   000753 136007                    SBLQ    491,DL
        21 003716   000014 116007                    CMPQ    12,DL
        21 003717   003721 602006 21                 TNC     s:18632+7,QL
        21 003720   004463 710000 21                 TRA     s:18802
        21 003721   004311 710000 21                 TRA     s:18753
        21 003722   004463 710000 21                 TRA     s:18802
        21 003723   004463 710000 21                 TRA     s:18802
        21 003724   004463 710000 21                 TRA     s:18802
        21 003725   004463 710000 21                 TRA     s:18802
        21 003726   004463 710000 21                 TRA     s:18802
        21 003727   004463 710000 21                 TRA     s:18802
        21 003730   004463 710000 21                 TRA     s:18802
        21 003731   004463 710000 21                 TRA     s:18802
        21 003732   004463 710000 21                 TRA     s:18802
        21 003733   004463 710000 21                 TRA     s:18802
        21 003734   003735 710000 21                 TRA     s:18636

      808    18633
      809    18634    6                       CASE( %SCALAR);

      810    18635
      811    18636    7                          DO CASE(IDENT_ST$ -> SCALAR.B.DML_TYPE);

PL6.E3A0      #001=Z9EB$DML_USE File=Z9EB.:Z8A6TSI                               SAT 08/09/97 13:43 Page:140
  18636 21 003735   000003 236100                    LDQ     3,,PR0
        21 003736   000015 772000                    QRL     13
        21 003737   000007 376007                    ANQ     7,DL
        21 003740   000004 116007                    CMPQ    4,DL
        21 003741   003743 602006 21                 TNC     s:18636+6,QL
        21 003742   004275 710000 21                 TRA     s:18745
        21 003743   004275 710000 21                 TRA     s:18745
        21 003744   003747 710000 21                 TRA     s:18640
        21 003745   004275 710000 21                 TRA     s:18745
        21 003746   004060 710000 21                 TRA     s:18684

      812    18637
      813    18638    7                              CASE( %FIELD);

      814    18639
      815    18640    7                                  RVA_TYPE = %RVA_FIELD;

  18640 21 003747   000003 220003                    LDX0    3,DU
        21 003750   200020 740100                    STX0    RVA_TYPE,,AUTO

      816    18641    7                                  CALL FIELD_CHECK;

  18641 21 003751   003257 701000 21                 TSX1    FIELD_CHECK
        21 003752   000000 011000                    NOP     0

      817    18642    7                                  VERB_COPY = VERB;

  18642 21 003753   200023 236100                    LDQ     VERB,,AUTO
        21 003754   000035 772000                    QRL     29
        21 003755   000035 736000                    QLS     29
        21 003756   200021 756100                    STQ     VERB_COPY,,AUTO

      818    18643
      819    18644    7                                  IF VERB ~= 0    THEN

  18644 21 003757   200023 236100                    LDQ     VERB,,AUTO
        21 003760   774000 316003                    CANQ    -2048,DU
PL6.E3A0      #001=Z9EB$DML_USE File=Z9EB.:Z8A6TSI                               SAT 08/09/97 13:43 Page:141
        21 003761   004463 600000 21                 TZE     s:18802

      820    18645    8                                    DO;

      821    18646    8                                      UCW_PRIVACY.TYPE = %PRIVACY_FIELD;

  18646 21 003762   002000 236003                    LDQ     1024,DU
        21 003763   200024 552140                    STBQ    UCW_CONST,'40'O,AUTO

      822    18647    8                                      IF IDENT_ST$ -> SCALAR.B.DML_RVA = %FALSE   THEN

  18647 21 003764   200016 470500                    LDP0    IDENT_ST$,,AUTO
        21 003765   000003 236100                    LDQ     3,,PR0
        21 003766   002000 316007                    CANQ    1024,DL
        21 003767   004011 601000 21                 TNZ     s:18657

      823    18648    9                                        DO;

      824    18649
      825    18650    9                                         CALL Z9EB$BUILD_RVA_TABLE(IDENT_ST$,RVA_TYPE)
             18650                                                   ;

  18650 21 003770   200020 631500                    EPPR1   RVA_TYPE,,AUTO
        21 003771   200047 451500                    STP1    @UCW_CONST+2,,AUTO
        21 003772   200016 633500                    EPPR3   IDENT_ST$,,AUTO
        21 003773   200046 453500                    STP3    @UCW_CONST+1,,AUTO
        21 003774   200046 630500                    EPPR0   @UCW_CONST+1,,AUTO
        21 003775   000045 631400 22                 EPPR1   37
        21 003776   000000 701000 xent               TSX1    Z9EB$BUILD_RVA_TABLE
        21 003777   000000 011000                    NOP     0

      826    18651    9                                          UCW_PRIVACY.R = O1COM.RVA_NUMBER;

  18651 21 004000   000072 220000 xsym               LDX0    O1COM+58
        21 004001   200024 440100                    SXL0    UCW_CONST,,AUTO

      827    18652    9                                          O1COM.RVA_LINK$ -> RVA_LTS.VERB = VERB;
PL6.E3A0      #001=Z9EB$DML_USE File=Z9EB.:Z8A6TSI                               SAT 08/09/97 13:43 Page:142

  18652 21 004002   000074 470400 xsym               LDP0    O1COM+60
        21 004003   200023 236100                    LDQ     VERB,,AUTO
        21 004004   000022 772000                    QRL     18
        21 004005   000003 676100                    ERQ     3,,PR0
        21 004006   774000 376007                    ANQ     -2048,DL
        21 004007   000003 656100                    ERSQ    3,,PR0

      828    18653    9                                        END;

  18653 21 004010   004463 710000 21                 TRA     s:18802

      829    18654    8                                      ELSE
      830    18655    9                                        DO;

      831    18656
      832    18657    9                                          HEAD$ = O1COM.RVA_LINK$;

  18657 21 004011   000074 236000 xsym               LDQ     O1COM+60
        21 004012   200015 756100                    STQ     HEAD$,,AUTO

      833    18658                                               %GET_RVA_LTS(@ST$ = IDENT_ST$,
      834    18659                                                          @LTS$ = LTS$,
      835    18660                                                          @POINTER = HEAD$);

  18661 21 004013   004027 710000 21                 TRA     s:18669

  18662 21 004014   200015 470500                    LDP0    HEAD$,,AUTO
        21 004015   200016 236100                    LDQ     IDENT_ST$,,AUTO
        21 004016   000001 116100                    CMPQ    1,,PR0
        21 004017   004025 601000 21                 TNZ     s:18668

  18664 21 004020   200015 236100                    LDQ     HEAD$,,AUTO
        21 004021   000000 756000 17                 STQ     LTS$

  18665 21 004022   000000 236000 22                 LDQ     0
        21 004023   200015 756100                    STQ     HEAD$,,AUTO
PL6.E3A0      #001=Z9EB$DML_USE File=Z9EB.:Z8A6TSI                               SAT 08/09/97 13:43 Page:143

  18666 21 004024   004027 710000 21                 TRA     s:18669

  18668 21 004025   000002 236100                    LDQ     2,,PR0
        21 004026   200015 756100                    STQ     HEAD$,,AUTO

  18669 21 004027   000000 116000 22                 CMPQ    0
        21 004030   004014 601000 21                 TNZ     s:18662

      836    18671
      837    18672    9                           IF LTS$ -> RVA_LTS.VERBS.GET AND VERB_.LIST.GET    THEN

  18672 21 004031   000000 470400 17                 LDP0    LTS$
        21 004032   000003 236100                    LDQ     3,,PR0
        21 004033   400000 316007                    CANQ    -131072,DL
        21 004034   004044 600000 21                 TZE     s:18675
        21 004035   200025 234100                    SZN     VERB_,,AUTO
        21 004036   004044 605000 21                 TPL     s:18675

      838    18673    9                               VERB = VERB - %GET;

  18673 21 004037   200023 236100                    LDQ     VERB,,AUTO
        21 004040   000035 772000                    QRL     29
        21 004041   000100 136007                    SBLQ    64,DL
        21 004042   000035 736000                    QLS     29
        21 004043   200023 756100                    STQ     VERB,,AUTO

      839    18674
      840    18675    9                           IF LTS$ -> RVA_LTS.VERBS.MODIFY AND VERB_.LIST.MODIFY  THEN

  18675 21 004044   000003 236100                    LDQ     3,,PR0
        21 004045   200000 316007                    CANQ    65536,DL
        21 004046   004463 600000 21                 TZE     s:18802
        21 004047   200025 236100                    LDQ     VERB_,,AUTO
        21 004050   200000 316003                    CANQ    65536,DU
        21 004051   004463 600000 21                 TZE     s:18802

PL6.E3A0      #001=Z9EB$DML_USE File=Z9EB.:Z8A6TSI                               SAT 08/09/97 13:43 Page:144
      841    18676    9                               VERB = VERB - %MODIFY;

  18676 21 004052   200023 236100                    LDQ     VERB,,AUTO
        21 004053   000035 772000                    QRL     29
        21 004054   000040 136007                    SBLQ    32,DL
        21 004055   000035 736000                    QLS     29
        21 004056   200023 756100                    STQ     VERB,,AUTO

      842    18677
      843    18678
      844    18679    9                                        END;    /*V*    ELSE    */

      845    18680    8                                    END;         /*V*  VERB ~= 0  */

  18680 21 004057   004463 710000 21                 TRA     s:18802

      846    18681
      847    18682    7                 CASE( %RECORD);

      848    18683
      849    18684    7                     RVA_TYPE = %RVA_RECORD;

  18684 21 004060   000002 220003                    LDX0    2,DU
        21 004061   200020 740100                    STX0    RVA_TYPE,,AUTO

      850    18685    7                     CALL RECORD_CHECK_LIST;

  18685 21 004062   001740 701000 21                 TSX1    RECORD_CHECK_LIST
        21 004063   000000 011000                    NOP     0

      851    18686    7                     VERB_COPY = VERB;

  18686 21 004064   200023 236100                    LDQ     VERB,,AUTO
        21 004065   000035 772000                    QRL     29
        21 004066   000035 736000                    QLS     29
        21 004067   200021 756100                    STQ     VERB_COPY,,AUTO

PL6.E3A0      #001=Z9EB$DML_USE File=Z9EB.:Z8A6TSI                               SAT 08/09/97 13:43 Page:145
      852    18687
      853    18688    7                     IF VERB ~= 0    THEN

  18688 21 004070   200023 236100                    LDQ     VERB,,AUTO
        21 004071   774000 316003                    CANQ    -2048,DU
        21 004072   004463 600000 21                 TZE     s:18802

      854    18689    8                       DO;

      855    18690    8                         UCW_PRIVACY.TYPE = %PRIVACY_RECORD;

  18690 21 004073   001000 236003                    LDQ     512,DU
        21 004074   200024 552140                    STBQ    UCW_CONST,'40'O,AUTO

      856    18691    8                         IF IDENT_ST$ -> SCALAR.B.DML_RVA = %FALSE   THEN

  18691 21 004075   200016 470500                    LDP0    IDENT_ST$,,AUTO
        21 004076   000003 236100                    LDQ     3,,PR0
        21 004077   002000 316007                    CANQ    1024,DL
        21 004100   004122 601000 21                 TNZ     s:18699

      857    18692    9                           DO;

      858    18693    9                             CALL Z9EB$BUILD_RVA_TABLE(IDENT_ST$,RVA_TYPE);

  18693 21 004101   200020 631500                    EPPR1   RVA_TYPE,,AUTO
        21 004102   200047 451500                    STP1    @UCW_CONST+2,,AUTO
        21 004103   200016 633500                    EPPR3   IDENT_ST$,,AUTO
        21 004104   200046 453500                    STP3    @UCW_CONST+1,,AUTO
        21 004105   200046 630500                    EPPR0   @UCW_CONST+1,,AUTO
        21 004106   000045 631400 22                 EPPR1   37
        21 004107   000000 701000 xent               TSX1    Z9EB$BUILD_RVA_TABLE
        21 004110   000000 011000                    NOP     0

      859    18694    9                             UCW_PRIVACY.R = O1COM.RVA_NUMBER;

  18694 21 004111   000072 220000 xsym               LDX0    O1COM+58
PL6.E3A0      #001=Z9EB$DML_USE File=Z9EB.:Z8A6TSI                               SAT 08/09/97 13:43 Page:146
        21 004112   200024 440100                    SXL0    UCW_CONST,,AUTO

      860    18695    9                             O1COM.RVA_LINK$ -> RVA_LTS.VERB = VERB;

  18695 21 004113   000074 470400 xsym               LDP0    O1COM+60
        21 004114   200023 236100                    LDQ     VERB,,AUTO
        21 004115   000022 772000                    QRL     18
        21 004116   000003 676100                    ERQ     3,,PR0
        21 004117   774000 376007                    ANQ     -2048,DL
        21 004120   000003 656100                    ERSQ    3,,PR0

      861    18696    9                           END;

  18696 21 004121   004463 710000 21                 TRA     s:18802

      862    18697    8                         ELSE
      863    18698    9                           DO;

      864    18699    9                             HEAD$ = O1COM.RVA_LINK$;

  18699 21 004122   000074 236000 xsym               LDQ     O1COM+60
        21 004123   200015 756100                    STQ     HEAD$,,AUTO

      865    18700                                  %GET_RVA_LTS(@ST$ = IDENT_ST$,
      866    18701                                             @LTS$ = LTS$,
      867    18702                                             @POINTER = HEAD$);

  18703 21 004124   004140 710000 21                 TRA     s:18711

  18704 21 004125   200015 470500                    LDP0    HEAD$,,AUTO
        21 004126   200016 236100                    LDQ     IDENT_ST$,,AUTO
        21 004127   000001 116100                    CMPQ    1,,PR0
        21 004130   004136 601000 21                 TNZ     s:18710

  18706 21 004131   200015 236100                    LDQ     HEAD$,,AUTO
        21 004132   000000 756000 17                 STQ     LTS$

PL6.E3A0      #001=Z9EB$DML_USE File=Z9EB.:Z8A6TSI                               SAT 08/09/97 13:43 Page:147
  18707 21 004133   000000 236000 22                 LDQ     0
        21 004134   200015 756100                    STQ     HEAD$,,AUTO

  18708 21 004135   004140 710000 21                 TRA     s:18711

  18710 21 004136   000002 236100                    LDQ     2,,PR0
        21 004137   200015 756100                    STQ     HEAD$,,AUTO

  18711 21 004140   000000 116000 22                 CMPQ    0
        21 004141   004125 601000 21                 TNZ     s:18704

      868    18713
      869    18714    9                  IF LTS$ -> RVA_LTS.VERBS.GET AND VERB_.LIST.GET    THEN

  18714 21 004142   000000 470400 17                 LDP0    LTS$
        21 004143   000003 236100                    LDQ     3,,PR0
        21 004144   400000 316007                    CANQ    -131072,DL
        21 004145   004155 600000 21                 TZE     s:18717
        21 004146   200025 234100                    SZN     VERB_,,AUTO
        21 004147   004155 605000 21                 TPL     s:18717

      870    18715    9                      VERB = VERB - %GET;

  18715 21 004150   200023 236100                    LDQ     VERB,,AUTO
        21 004151   000035 772000                    QRL     29
        21 004152   000100 136007                    SBLQ    64,DL
        21 004153   000035 736000                    QLS     29
        21 004154   200023 756100                    STQ     VERB,,AUTO

      871    18716
      872    18717    9                  IF LTS$ -> RVA_LTS.VERBS.MODIFY AND VERB_.LIST.MODIFY    THEN

  18717 21 004155   000003 236100                    LDQ     3,,PR0
        21 004156   200000 316007                    CANQ    65536,DL
        21 004157   004170 600000 21                 TZE     s:18720
        21 004160   200025 236100                    LDQ     VERB_,,AUTO
        21 004161   200000 316003                    CANQ    65536,DU
PL6.E3A0      #001=Z9EB$DML_USE File=Z9EB.:Z8A6TSI                               SAT 08/09/97 13:43 Page:148
        21 004162   004170 600000 21                 TZE     s:18720

      873    18718    9                      VERB = VERB - %MODIFY;

  18718 21 004163   200023 236100                    LDQ     VERB,,AUTO
        21 004164   000035 772000                    QRL     29
        21 004165   000040 136007                    SBLQ    32,DL
        21 004166   000035 736000                    QLS     29
        21 004167   200023 756100                    STQ     VERB,,AUTO

      874    18719
      875    18720    9                  IF LTS$ -> RVA_LTS.VERBS.FIND AND VERB_.LIST.FIND   THEN

  18720 21 004170   000003 236100                    LDQ     3,,PR0
        21 004171   004000 316007                    CANQ    2048,DL
        21 004172   004203 600000 21                 TZE     s:18723
        21 004173   200025 236100                    LDQ     VERB_,,AUTO
        21 004174   004000 316003                    CANQ    2048,DU
        21 004175   004203 600000 21                 TZE     s:18723

      876    18721    9                      VERB = VERB - %FIND;

  18721 21 004176   200023 236100                    LDQ     VERB,,AUTO
        21 004177   000035 772000                    QRL     29
        21 004200   000001 136007                    SBLQ    1,DL
        21 004201   000035 736000                    QLS     29
        21 004202   200023 756100                    STQ     VERB,,AUTO

      877    18722
      878    18723    9                  IF LTS$ -> RVA_LTS.VERBS.CONNECT AND VERB_.LIST.CONNECT    THEN

  18723 21 004203   000003 236100                    LDQ     3,,PR0
        21 004204   020000 316007                    CANQ    8192,DL
        21 004205   004216 600000 21                 TZE     s:18725
        21 004206   200025 236100                    LDQ     VERB_,,AUTO
        21 004207   020000 316003                    CANQ    8192,DU
        21 004210   004216 600000 21                 TZE     s:18725
PL6.E3A0      #001=Z9EB$DML_USE File=Z9EB.:Z8A6TSI                               SAT 08/09/97 13:43 Page:149

      879    18724    9                      VERB = VERB - %CONNECT;

  18724 21 004211   200023 236100                    LDQ     VERB,,AUTO
        21 004212   000035 772000                    QRL     29
        21 004213   000004 136007                    SBLQ    4,DL
        21 004214   000035 736000                    QLS     29
        21 004215   200023 756100                    STQ     VERB,,AUTO

      880    18725    9                  IF LTS$ -> RVA_LTS.VERBS.DISCONNECT AND VERB_.LIST.DISCONNECT THEN

  18725 21 004216   000003 236100                    LDQ     3,,PR0
        21 004217   010000 316007                    CANQ    4096,DL
        21 004220   004231 600000 21                 TZE     s:18728
        21 004221   200025 236100                    LDQ     VERB_,,AUTO
        21 004222   010000 316003                    CANQ    4096,DU
        21 004223   004231 600000 21                 TZE     s:18728

      881    18726    9                      VERB = VERB - %DISCONNECT;

  18726 21 004224   200023 236100                    LDQ     VERB,,AUTO
        21 004225   000035 772000                    QRL     29
        21 004226   000002 136007                    SBLQ    2,DL
        21 004227   000035 736000                    QLS     29
        21 004230   200023 756100                    STQ     VERB,,AUTO

      882    18727
      883    18728    9                  IF LTS$ -> RVA_LTS.VERBS.STORE AND VERB_.LIST.STORE  THEN

  18728 21 004231   000003 236100                    LDQ     3,,PR0
        21 004232   100000 316007                    CANQ    32768,DL
        21 004233   004244 600000 21                 TZE     s:18731
        21 004234   200025 236100                    LDQ     VERB_,,AUTO
        21 004235   100000 316003                    CANQ    32768,DU
        21 004236   004244 600000 21                 TZE     s:18731

      884    18729    9                      VERB = VERB - %STORE;
PL6.E3A0      #001=Z9EB$DML_USE File=Z9EB.:Z8A6TSI                               SAT 08/09/97 13:43 Page:150

  18729 21 004237   200023 236100                    LDQ     VERB,,AUTO
        21 004240   000035 772000                    QRL     29
        21 004241   000020 136007                    SBLQ    16,DL
        21 004242   000035 736000                    QLS     29
        21 004243   200023 756100                    STQ     VERB,,AUTO

      885    18730
      886    18731    9                  IF LTS$ -> RVA_LTS.VERBS.STORE AND VERB_.LIST.ERASE_  THEN

  18731 21 004244   000003 236100                    LDQ     3,,PR0
        21 004245   100000 316007                    CANQ    32768,DL
        21 004246   004257 600000 21                 TZE     s:18737
        21 004247   200025 236100                    LDQ     VERB_,,AUTO
        21 004250   040000 316003                    CANQ    16384,DU
        21 004251   004257 600000 21                 TZE     s:18737

      887    18732    9                      VERB = VERB - %STORE;

  18732 21 004252   200023 236100                    LDQ     VERB,,AUTO
        21 004253   000035 772000                    QRL     29
        21 004254   000020 136007                    SBLQ    16,DL
        21 004255   000035 736000                    QLS     29
        21 004256   200023 756100                    STQ     VERB,,AUTO

      888    18733
      889    18734                /*     IF VERB ~= VERB_COPY  THEN
      890    18735                           CALL Z8AE$ERROR( 1 );      */
      891    18736
      892    18737    9                  LTS$ -> RVA_LTS.VERB = LTS$ -> RVA_LTS.VERB + VERB;

  18737 21 004257   200023 236100                    LDQ     VERB,,AUTO
        21 004260   000035 772000                    QRL     29
        21 004261   200046 756100                    STQ     @UCW_CONST+1,,AUTO
        21 004262   000003 236100                    LDQ     3,,PR0
        21 004263   000013 772000                    QRL     11
        21 004264   000177 376007                    ANQ     127,DL
PL6.E3A0      #001=Z9EB$DML_USE File=Z9EB.:Z8A6TSI                               SAT 08/09/97 13:43 Page:151
        21 004265   200046 036100                    ADLQ    @UCW_CONST+1,,AUTO
        21 004266   000013 736000                    QLS     11
        21 004267   000003 676100                    ERQ     3,,PR0
        21 004270   774000 376007                    ANQ     -2048,DL
        21 004271   000003 656100                    ERSQ    3,,PR0

      893    18738    9                  UCW_PRIVACY.R = LTS$ -> RVA_LTS.OFFSET;

  18738 21 004272   000003 220100                    LDX0    3,,PR0
        21 004273   200024 440100                    SXL0    UCW_CONST,,AUTO

      894    18739
      895    18740    9                               END;    /*V*    ELSE    */

      896    18741    8                           END;         /*V*  VERB ~= 0  */

  18741 21 004274   004463 710000 21                 TRA     s:18802

      897    18742
      898    18743
      899    18744    7                 CASE(ELSE);

      900    18745    7                     CALL Z8AE$ERROR(%E$USE_PRIVACY_TYPE_ERROR,

  18745 21 004275   200017 236100                    LDQ     IDENT$,,AUTO
        21 004276   000006 036003                    ADLQ    6,DU
        21 004277   200050 756100                    STQ     @UCW_CONST+3,,AUTO
        21 004300   200017 236100                    LDQ     IDENT$,,AUTO
        21 004301   000005 036003                    ADLQ    5,DU
        21 004302   000047 235000 22                 LDA     39
        21 004303   200046 757100                    STAQ    @UCW_CONST+1,,AUTO
        21 004304   200046 630500                    EPPR0   @UCW_CONST+1,,AUTO
        21 004305   000025 631400 22                 EPPR1   21
        21 004306   000000 701000 xent               TSX1    Z8AE$ERROR
        21 004307   000000 011000                    NOP     0

      901    18746    7                                 IDENT$ -> LX_ITEM.LINE,
PL6.E3A0      #001=Z9EB$DML_USE File=Z9EB.:Z8A6TSI                               SAT 08/09/97 13:43 Page:152
      902    18747    7                                 IDENT$ -> LX_ITEM.COLUMN);
      903    18748
      904    18749    7               END;             /*V* CASE    B.DML_TYPE   */

  18749 21 004310   004463 710000 21                 TRA     s:18802

      905    18750        %EJECT;
PL6.E3A0      #001=Z9EB$DML_USE File=Z9EB.:Z8A6TSI                               SAT 08/09/97 13:43 Page:153
      906    18751    6                       CASE(%DML_SET);

      907    18752
      908    18753    6                          RVA_TYPE = %RVA_SET;

  18753 21 004311   000001 220003                    LDX0    1,DU
        21 004312   200020 740100                    STX0    RVA_TYPE,,AUTO

      909    18754    6                          CALL SET_CHECK_LIST;

  18754 21 004313   002717 701000 21                 TSX1    SET_CHECK_LIST
        21 004314   000000 011000                    NOP     0

      910    18755    6                          VERB_COPY = VERB;

  18755 21 004315   200023 236100                    LDQ     VERB,,AUTO
        21 004316   000035 772000                    QRL     29
        21 004317   000035 736000                    QLS     29
        21 004320   200021 756100                    STQ     VERB_COPY,,AUTO

      911    18756
      912    18757    6                          IF VERB ~= 0  THEN

  18757 21 004321   200023 236100                    LDQ     VERB,,AUTO
        21 004322   774000 316003                    CANQ    -2048,DU
        21 004323   004463 600000 21                 TZE     s:18802

      913    18758    7                            DO;

      914    18759    7                              UCW_PRIVACY.TYPE = %PRIVACY_SET;

  18759 21 004324   002000 236003                    LDQ     1024,DU
        21 004325   200024 552140                    STBQ    UCW_CONST,'40'O,AUTO

      915    18760    7                              IF IDENT_ST$ -> DML_ITEM.B.DML_RVA = %FALSE    THEN

  18760 21 004326   200016 470500                    LDP0    IDENT_ST$,,AUTO
PL6.E3A0      #001=Z9EB$DML_USE File=Z9EB.:Z8A6TSI                               SAT 08/09/97 13:43 Page:154
        21 004327   000003 236100                    LDQ     3,,PR0
        21 004330   002000 316007                    CANQ    1024,DL
        21 004331   004353 601000 21                 TNZ     s:18770

      916    18761    8                                DO;

      917    18762    8                                  CALL Z9EB$BUILD_RVA_TABLE(IDENT_ST$,RVA_TYPE);

  18762 21 004332   200020 631500                    EPPR1   RVA_TYPE,,AUTO
        21 004333   200047 451500                    STP1    @UCW_CONST+2,,AUTO
        21 004334   200016 633500                    EPPR3   IDENT_ST$,,AUTO
        21 004335   200046 453500                    STP3    @UCW_CONST+1,,AUTO
        21 004336   200046 630500                    EPPR0   @UCW_CONST+1,,AUTO
        21 004337   000045 631400 22                 EPPR1   37
        21 004340   000000 701000 xent               TSX1    Z9EB$BUILD_RVA_TABLE
        21 004341   000000 011000                    NOP     0

      918    18763    8                                  UCW_PRIVACY.R = O1COM.RVA_NUMBER;

  18763 21 004342   000072 220000 xsym               LDX0    O1COM+58
        21 004343   200024 440100                    SXL0    UCW_CONST,,AUTO

      919    18764    8                                  O1COM.RVA_LINK$ -> RVA_LTS.VERB = VERB;

  18764 21 004344   000074 470400 xsym               LDP0    O1COM+60
        21 004345   200023 236100                    LDQ     VERB,,AUTO
        21 004346   000022 772000                    QRL     18
        21 004347   000003 676100                    ERQ     3,,PR0
        21 004350   774000 376007                    ANQ     -2048,DL
        21 004351   000003 656100                    ERSQ    3,,PR0

      920    18765    8                                END;

  18765 21 004352   004463 710000 21                 TRA     s:18802

      921    18766
      922    18767    7                              ELSE
PL6.E3A0      #001=Z9EB$DML_USE File=Z9EB.:Z8A6TSI                               SAT 08/09/97 13:43 Page:155
      923    18768    8                                DO;

      924    18769
      925    18770    8                           HEAD$ = O1COM.RVA_LINK$;

  18770 21 004353   000074 236000 xsym               LDQ     O1COM+60
        21 004354   200015 756100                    STQ     HEAD$,,AUTO

      926    18771                                %GET_RVA_LTS(@ST$ = IDENT_ST$, @LTS$ = LTS$, @POINTER =
             18771                                    HEAD$);

  18772 21 004355   004371 710000 21                 TRA     s:18780

  18773 21 004356   200015 470500                    LDP0    HEAD$,,AUTO
        21 004357   200016 236100                    LDQ     IDENT_ST$,,AUTO
        21 004360   000001 116100                    CMPQ    1,,PR0
        21 004361   004367 601000 21                 TNZ     s:18779

  18775 21 004362   200015 236100                    LDQ     HEAD$,,AUTO
        21 004363   000000 756000 17                 STQ     LTS$

  18776 21 004364   000000 236000 22                 LDQ     0
        21 004365   200015 756100                    STQ     HEAD$,,AUTO

  18777 21 004366   004371 710000 21                 TRA     s:18780

  18779 21 004367   000002 236100                    LDQ     2,,PR0
        21 004370   200015 756100                    STQ     HEAD$,,AUTO

  18780 21 004371   000000 116000 22                 CMPQ    0
        21 004372   004356 601000 21                 TNZ     s:18773

      927    18782
      928    18783    8                           IF LTS$ -> RVA_LTS.VERBS.FIND AND  VERB_.LIST.FIND     THEN

  18783 21 004373   000000 470400 17                 LDP0    LTS$
        21 004374   000003 236100                    LDQ     3,,PR0
PL6.E3A0      #001=Z9EB$DML_USE File=Z9EB.:Z8A6TSI                               SAT 08/09/97 13:43 Page:156
        21 004375   004000 316007                    CANQ    2048,DL
        21 004376   004407 600000 21                 TZE     s:18786
        21 004377   200025 236100                    LDQ     VERB_,,AUTO
        21 004400   004000 316003                    CANQ    2048,DU
        21 004401   004407 600000 21                 TZE     s:18786

      929    18784    8                               VERB = VERB - %FIND;

  18784 21 004402   200023 236100                    LDQ     VERB,,AUTO
        21 004403   000035 772000                    QRL     29
        21 004404   000001 136007                    SBLQ    1,DL
        21 004405   000035 736000                    QLS     29
        21 004406   200023 756100                    STQ     VERB,,AUTO

      930    18785
      931    18786    8                           IF LTS$ -> RVA_LTS.VERBS.CONNECT  AND  VERB_.LIST.CONNECT
             18786                                    THEN

  18786 21 004407   000003 236100                    LDQ     3,,PR0
        21 004410   020000 316007                    CANQ    8192,DL
        21 004411   004422 600000 21                 TZE     s:18789
        21 004412   200025 236100                    LDQ     VERB_,,AUTO
        21 004413   020000 316003                    CANQ    8192,DU
        21 004414   004422 600000 21                 TZE     s:18789

      932    18787    8                               VERB = VERB - %CONNECT;

  18787 21 004415   200023 236100                    LDQ     VERB,,AUTO
        21 004416   000035 772000                    QRL     29
        21 004417   000004 136007                    SBLQ    4,DL
        21 004420   000035 736000                    QLS     29
        21 004421   200023 756100                    STQ     VERB,,AUTO

      933    18788
      934    18789    8                           IF LTS$ -> RVA_LTS.VERBS.DISCONNECT  AND  VERB_.LIST.
             18789                                    DISCONNECT    THEN

PL6.E3A0      #001=Z9EB$DML_USE File=Z9EB.:Z8A6TSI                               SAT 08/09/97 13:43 Page:157
  18789 21 004422   000003 236100                    LDQ     3,,PR0
        21 004423   010000 316007                    CANQ    4096,DL
        21 004424   004435 600000 21                 TZE     s:18792
        21 004425   200025 236100                    LDQ     VERB_,,AUTO
        21 004426   010000 316003                    CANQ    4096,DU
        21 004427   004435 600000 21                 TZE     s:18792

      935    18790    8                               VERB = VERB - %DISCONNECT;

  18790 21 004430   200023 236100                    LDQ     VERB,,AUTO
        21 004431   000035 772000                    QRL     29
        21 004432   000002 136007                    SBLQ    2,DL
        21 004433   000035 736000                    QLS     29
        21 004434   200023 756100                    STQ     VERB,,AUTO

      936    18791
      937    18792    8                           IF VERB  ~= VERB_COPY       THEN

  18792 21 004435   200023 236100                    LDQ     VERB,,AUTO
        21 004436   200021 676100                    ERQ     VERB_COPY,,AUTO
        21 004437   774000 376003                    ANQ     -2048,DU
        21 004440   004445 600000 21                 TZE     s:18795

      938    18793    8                               CALL Z8AE$ERROR( 1          );

  18793 21 004441   000051 630400 22                 EPPR0   41
        21 004442   000001 631400 22                 EPPR1   1
        21 004443   000000 701000 xent               TSX1    Z8AE$ERROR
        21 004444   000000 011000                    NOP     0

      939    18794
      940    18795    8                           LTS$ -> RVA_LTS.VERB = LTS$ -> RVA_LTS.VERB + VERB;

  18795 21 004445   200023 236100                    LDQ     VERB,,AUTO
        21 004446   000035 772000                    QRL     29
        21 004447   200046 756100                    STQ     @UCW_CONST+1,,AUTO
        21 004450   000000 470400 17                 LDP0    LTS$
PL6.E3A0      #001=Z9EB$DML_USE File=Z9EB.:Z8A6TSI                               SAT 08/09/97 13:43 Page:158
        21 004451   000003 236100                    LDQ     3,,PR0
        21 004452   000013 772000                    QRL     11
        21 004453   000177 376007                    ANQ     127,DL
        21 004454   200046 036100                    ADLQ    @UCW_CONST+1,,AUTO
        21 004455   000013 736000                    QLS     11
        21 004456   000003 676100                    ERQ     3,,PR0
        21 004457   774000 376007                    ANQ     -2048,DL
        21 004460   000003 656100                    ERSQ    3,,PR0

      941    18796    8                           UCW_PRIVACY.R = LTS$ -> RVA_LTS.OFFSET;

  18796 21 004461   000003 220100                    LDX0    3,,PR0
        21 004462   200024 440100                    SXL0    UCW_CONST,,AUTO

      942    18797
      943    18798    8                                  END;    /*V*     ELSE DO  */

      944    18799    7                              END;        /*V*   VERB ~= 0  */

      945    18800    6                   END;                 /*V*  CASE    ST.ID   */

      946    18801
      947    18802    5                   IDENT$ = IDENT$ -> LX_ITEM.LINK;

  18802 21 004463   200017 470500                    LDP0    IDENT$,,AUTO
        21 004464   000007 236100                    LDQ     7,,PR0
        21 004465   200017 756100                    STQ     IDENT$,,AUTO

      948    18803
      949    18804    5                   IF VERB ~= 0    THEN

  18804 21 004466   200023 236100                    LDQ     VERB,,AUTO
        21 004467   774000 316003                    CANQ    -2048,DU
        21 004470   004503 600000 21                 TZE     s:18811

      950    18805    6                     DO;

PL6.E3A0      #001=Z9EB$DML_USE File=Z9EB.:Z8A6TSI                               SAT 08/09/97 13:43 Page:159
      951    18806    6                       UCW_PRIVACY.VERBS = VERB;

  18806 21 004471   000011 772000                    QRL     9
        21 004472   200024 676100                    ERQ     UCW_CONST,,AUTO
        21 004473   000774 376003                    ANQ     508,DU
        21 004474   200024 656100                    ERSQ    UCW_CONST,,AUTO

      952    18807    6                       UCW_PRIVACY.SS = 0;

  18807 21 004475   000044 236000 22                 LDQ     36
        21 004476   200024 356100                    ANSQ    UCW_CONST,,AUTO

      953    18808    6                       CALL BUILD_USEP_TABLE(UCW_CONST);

  18808 21 004477   200024 630500                    EPPR0   UCW_CONST,,AUTO
        21 004500   200045 450500                    STP0    @UCW_CONST,,AUTO
        21 004501   000003 701000 21                 TSX1    BUILD_USEP_TABLE
        21 004502   000000 011000                    NOP     0

      954    18809    6                     END;

      955    18810
      956    18811    5               END;                    /*V* WHILE IDENTS ~= ADDR(NIL) */

  18811 21 004503   200017 236100                    LDQ     IDENT$,,AUTO
        21 004504   000000 116000 22                 CMPQ    0
        21 004505   003673 601000 21                 TNZ     s:18626

      957    18812
      958    18813    4       END;        /*V*  CASE  LX_ITEM.SYMBOL  */

      959    18814
      960    18815    3       PRIVACY_PHRASE$ = PRIVACY_PHRASE$ -> LX_ITEM.LINK;

  18815 21 004506   200014 470500                    LDP0    PRIVACY_PHRASE$,,AUTO
        21 004507   000007 236100                    LDQ     7,,PR0
        21 004510   200014 756100                    STQ     PRIVACY_PHRASE$,,AUTO
PL6.E3A0      #001=Z9EB$DML_USE File=Z9EB.:Z8A6TSI                               SAT 08/09/97 13:43 Page:160

      961    18816
      962    18817    3   END;        /*V*  WHILDE LIST$ ~= ADDR(NIL)  */

  18817 21 004511   000000 116000 22                 CMPQ    0
        21 004512   003517 601000 21                 TNZ     s:18586

      963    18818    2   END USE_PRIVACY;

  18818 21 004513   200010 221300                    LDX1  ! @USE_TYPE+2,,AUTO
        21 004514   000001 702211                    TSX2  ! 1,X1

      964    18819        %EJECT;
PL6.E3A0      #001=Z9EB$DML_USE File=Z9EB.:Z8A6TSI                               SAT 08/09/97 13:43 Page:161
      965    18820             /****         MAIN   PROGRAM      ****/
      966    18821
      967    18822    1           IF USE_TYPE = %USE_DB_EXCEPTION            THEN

  18822 21 004515   200006 470500                    LDP0    @USE_TYPE,,AUTO
        21 004516   000000 235100                    LDA     0,,PR0
        21 004517   000001 115007                    CMPA    1,DL
        21 004520   004524 601000 21                 TNZ     s:18825

      968    18823    1               CALL USE_DB_STATEMENT;

  18823 21 004521   000220 701000 21                 TSX1    USE_DB_STATEMENT
        21 004522   000000 011000                    NOP     0
        21 004523   004526 710000 21                 TRA     s:18827

      969    18824    1           ELSE
      970    18825    1               CALL USE_PRIVACY;

  18825 21 004524   000453 701000 21                 TSX1    USE_PRIVACY
        21 004525   000000 011000                    NOP     0

      971    18826
      972    18827    1   END Z9EB$DML_USE;

  18827 21 004526   000000 702200 xent               TSX2  ! X66_ARET
      973    18828        %EOD;

PL6.E3A0      #001=Z9EB$DML_USE File=Z9EB.:Z8A6TSI                               SAT 08/09/97 13:43 Page:162
--  Include file information  --

   Z8E_WINDOW.:Z8A6TOU  is referenced.
   Z8E_DML.:Z8A6TOU  is referenced.
   Z8A_LTS.:Z8A6TOU  cannot be made into a system file and is referenced.
   Z8A_ILL.:Z8A6TOU  cannot be made into a system file and is referenced.
   Z8A_ETT.:Z8A6TOU  cannot be made into a system file and is referenced.
   Z8A_TYPES.:Z8A6TOU  is referenced.
   Z8A_ST.:Z8A6TOU  cannot be made into a system file and is referenced.
   Z8A_DNT.:Z8A6TOU  cannot be made into a system file and is referenced.
   Z8A_ERR_NUMS.:Z8A6TOU  is referenced.
   Z8E_NEW_ILL.:Z8A6TOU  is referenced.
   Z8E_MACROS.:Z8A6TOU  cannot be made into a system file and is referenced.
   Z8E_O1COM.:Z8A6TOU  cannot be made into a system file and is referenced.
   Z8A_LEX_SYMB.:Z8A6TOU  cannot be made into a system file and is referenced.
   Z8E_STACKS.:Z8A6TOU  cannot be made into a system file and is referenced.
   Z8A_COMCOM.:Z8A6TOU  cannot be made into a system file and is referenced.
   X8A_COM_MACS.:X8A6TOU  is referenced.
   Z8A_NAMES.:Z8A6TOU  is referenced.
   Z8A_SUPP_MAC.:Z8A6TOU  is referenced.
   Z8A_DEFC.:Z8A6TOU  cannot be made into a system file and is referenced.
      No diagnostics issued in procedure Z9EB$DML_USE.
PL6.E3A0      #001=Z9EB$DML_USE File=Z9EB.:Z8A6TSI                               SAT 08/09/97 13:43 Page:163

 **** Variables and constants ****

  ****  Section 000 LblCom ITERATION

  ****  Scalars and arrays  ****
OctLoc.c.b A Datatyp(siz) R M Lvl/name                 OctLoc.c.b A Datatyp(siz) R M Lvl/name

     0-0-0/w SBIN              1 ITERATION

  ****  Section 001 LblCom LEX_SYMBOL

  ****  Scalars and arrays  ****
OctLoc.c.b A Datatyp(siz) R M Lvl/name                 OctLoc.c.b A Datatyp(siz) R M Lvl/name

     0-0-0/w STRC(3240)  r     1 LEX_SYMBOL                 0-0-0/w STRC(3240)        1 LEX_SYMBOL_WORDS

  ****  Section 002 LblCom CURRENT_LEX_SYMBOL$

  ****  Scalars and arrays  ****
OctLoc.c.b A Datatyp(siz) R M Lvl/name                 OctLoc.c.b A Datatyp(siz) R M Lvl/name

     0-0-0/w PTR         r     1 CURRENT_LEX_SYMBOL$

  ****  Section 003 LblCom TEMP_LEX_SYMBOL

  ****  Scalars and arrays  ****
OctLoc.c.b A Datatyp(siz) R M Lvl/name                 OctLoc.c.b A Datatyp(siz) R M Lvl/name

     0-0-0/w STRC(3240)        1 TEMP_LEX_SYMBOL

  ****  Section 004 LblCom TEMP_LEX_SYMBOL2

  ****  Scalars and arrays  ****
OctLoc.c.b A Datatyp(siz) R M Lvl/name                 OctLoc.c.b A Datatyp(siz) R M Lvl/name

     0-0-0/w STRC(3240)        1 TEMP_LEX_SYMBOL2

PL6.E3A0      #001=Z9EB$DML_USE File=Z9EB.:Z8A6TSI                               SAT 08/09/97 13:43 Page:164
  ****  Section 005 LblCom DNT$

  ****  Scalars and arrays  ****
OctLoc.c.b A Datatyp(siz) R M Lvl/name                 OctLoc.c.b A Datatyp(siz) R M Lvl/name

     0-0-0/w PTR         r     1 DNT$

  ****  Section 006 LblCom DNT_

  ****  Scalars and arrays  ****
OctLoc.c.b A Datatyp(siz) R M Lvl/name                 OctLoc.c.b A Datatyp(siz) R M Lvl/name

     0-0-0/w STRC(180)         1 DNT_

  ****  Section 007 LblCom DNT_BUCKET_NUMBER

  ****  Scalars and arrays  ****
OctLoc.c.b A Datatyp(siz) R M Lvl/name                 OctLoc.c.b A Datatyp(siz) R M Lvl/name

     0-0-0/w UBIN              1 DNT_BUCKET_NUMBER

  ****  Section 008 LblCom DNT_OF_1$

  ****  Scalars and arrays  ****
OctLoc.c.b A Datatyp(siz) R M Lvl/name                 OctLoc.c.b A Datatyp(siz) R M Lvl/name

     0-0-0/w PTR               1 DNT_OF_1$

  ****  Section 009 LblCom ST$

  ****  Scalars and arrays  ****
OctLoc.c.b A Datatyp(siz) R M Lvl/name                 OctLoc.c.b A Datatyp(siz) R M Lvl/name

     0-0-0/w PTR         r     1 ST$

  ****  Section 010 LblCom ST_

PL6.E3A0      #001=Z9EB$DML_USE File=Z9EB.:Z8A6TSI                               SAT 08/09/97 13:43 Page:165
  ****  Scalars and arrays  ****
OctLoc.c.b A Datatyp(siz) R M Lvl/name                 OctLoc.c.b A Datatyp(siz) R M Lvl/name

     0-0-0/w STRC(180)   r     1 ST_

  ****  Section 011 LblCom ETT$

  ****  Scalars and arrays  ****
OctLoc.c.b A Datatyp(siz) R M Lvl/name                 OctLoc.c.b A Datatyp(siz) R M Lvl/name

     0-0-0/w PTR         r     1 ETT$

  ****  Section 012 LblCom HEAD_ETT$

  ****  Scalars and arrays  ****
OctLoc.c.b A Datatyp(siz) R M Lvl/name                 OctLoc.c.b A Datatyp(siz) R M Lvl/name

     0-0-0/w PTR               1 HEAD_ETT$

  ****  Section 013 LblCom ETT_BUCKETS

  ****  Scalars and arrays  ****
OctLoc.c.b A Datatyp(siz) R M Lvl/name                 OctLoc.c.b A Datatyp(siz) R M Lvl/name

     0-0-0/w PTR               1 ETT_BUCKETS(0:511)

  ****  Section 014 LblCom ETT_

  ****  Scalars and arrays  ****
OctLoc.c.b A Datatyp(siz) R M Lvl/name                 OctLoc.c.b A Datatyp(siz) R M Lvl/name

     0-0-0/w STRC(180)         1 ETT_

  ****  Section 015 LblCom ILL$

  ****  Scalars and arrays  ****
OctLoc.c.b A Datatyp(siz) R M Lvl/name                 OctLoc.c.b A Datatyp(siz) R M Lvl/name
PL6.E3A0      #001=Z9EB$DML_USE File=Z9EB.:Z8A6TSI                               SAT 08/09/97 13:43 Page:166

     0-0-0/w PTR         r     1 ILL$

  ****  Section 016 LblCom ILL_

  ****  Scalars and arrays  ****
OctLoc.c.b A Datatyp(siz) R M Lvl/name                 OctLoc.c.b A Datatyp(siz) R M Lvl/name

     0-0-0/w STRC(180)         1 ILL_

  ****  Section 017 LblCom LTS$

  ****  Scalars and arrays  ****
OctLoc.c.b A Datatyp(siz) R M Lvl/name                 OctLoc.c.b A Datatyp(siz) R M Lvl/name

     0-0-0/w PTR               1 LONG_ITEM$                 0-0-0/w PTR         r     1 LTS$

  ****  Section 018 LblCom LTS_

  ****  Scalars and arrays  ****
OctLoc.c.b A Datatyp(siz) R M Lvl/name                 OctLoc.c.b A Datatyp(siz) R M Lvl/name

     0-0-0/w STRC(180)   r     1 LTS_

  ****  Section 019  Data  Z9EB$DML_USE

  ****  Scalars and arrays  ****
OctLoc.c.b A Datatyp(siz) R M Lvl/name                 OctLoc.c.b A Datatyp(siz) R M Lvl/name

     7-0-0/b BIT         r     1 CONNECT_RECORD_ALL        15-0-0/b BIT         r     1 CONNECT_SET_ALL
     1-0-0/b STRC(3)     r     1 DB_EXCEPTION
    10-0-0/b BIT         r     1 DISCONNECT_RECORD_ALL
    16-0-0/b BIT         r     1 DISCONNECT_SET_ALL        12-0-0/b BIT         r     1 ERASE_RECORD_ALL
    14-0-0/b BIT         r     1 FIND_RECORD_ALL           17-0-0/b BIT         r     1 FIND_SET_ALL
     2-0-0/b BIT         r     1 FIRST_DB_EXCEPTION        13-0-0/b BIT         r     1 GET_RECORD_ALL
     6-0-0/b BIT         r     1 MODIFY_RECORD_ALL          5-0-0/b BIT               1 PRIVACY_FIELD_ALL
     3-0-0/b BIT         r     1 PRIVACY_RECORD_ALL         4-0-0/b BIT         r     1 PRIVACY_SET_ALL
PL6.E3A0      #001=Z9EB$DML_USE File=Z9EB.:Z8A6TSI                               SAT 08/09/97 13:43 Page:167
    11-0-0/b BIT         r     1 STORE_RECORD_ALL           0-0-0/w UBIN        r     1 USEP_LENGTH

  ****  Auto variables  ****

  ****  Scalars and arrays  ****
OctLoc.c.b A Datatyp(siz) R M Lvl/name                 OctLoc.c.b A Datatyp(siz) R M Lvl/name

     3-0-0/w PTR         r     1 @LIST$                     4-0-0/w PTR         r     1 @STATEMENT_TYPE
    45-0-0/w PTR         r     1 @UCW_CONST                 5-0-0/w PTR         r     1 @USE_SECT$
     6-0-0/w PTR         r     1 @USE_TYPE                 30-0-0/b BIT         r     1 CONNECT_RECORD
    36-0-0/b BIT         r     1 CONNECT_SET               31-0-0/b BIT         r     1 DISCONNECT_RECORD
    37-0-0/b BIT         r     1 DISCONNECT_SET            22-0-0/b BIT         r     1 DUPLICATE_FLAG
    33-0-0/b BIT         r     1 ERASE_RECORD              14-0-0/b BIT         r     1 ERROR_FLAG
    35-0-0/b BIT         r     1 FIND_RECORD               40-0-0/b BIT         r     1 FIND_SET
    12-0-0/w PTR         r     1 FOR_OPTION$               41-0-0/b BIT         r     1 GET_FIELD
    34-0-0/b BIT         r     1 GET_RECORD                15-0-0/w PTR         r     1 HEAD$
    11-0-0/w PTR         r     1 IDENT$                    17-0-0/w PTR         r     1 IDENT$
    16-0-0/w PTR         r     1 IDENT_ST$                 *0-0-0/w PTR         r     1 LIST$
    42-0-0/b BIT         r     1 MODIFY_FIELD              27-0-0/b BIT         r     1 MODIFY_RECORD
    14-0-0/w PTR         r     1 PRIVACY_PHRASE$           12-0-0/w PTR         r     1 RETURN$
    20-0-0/w UBIN(18)    r     1 RVA_TYPE                  *0-0-0/w SBIN        r     1 STATEMENT_TYPE
    43-0-0/b BIT         r     1 STORE_FIELD               32-0-0/b BIT         r     1 STORE_RECORD
    15-0-0/w STRC(144)   r     1 TYPE_DESC                 13-0-0/w STRC        r     1 UCW
    *0-0-0/w SBIN        r     1 UCW_CONST                 24-0-0/w SBIN        r     1 UCW_CONST
    24-0-0/w STRC        r     1 UCW_PRIVACY               13-0-0/w SBIN        r     1 UCW_WORD
    *0-0-0/w PTR         r     1 USE_SECT$                 *0-0-0/w SBIN        r     1 USE_TYPE
    23-0-0/w UBIN(7)     r     1 VERB                      25-0-0/w STRC(72)    r     1 VERB_
    21-0-0/w UBIN(7)     r     1 VERB_COPY                 13-0-0/w PTR         r     1 WORD$
    11-0-0/w PTR         r     1 WORD_LIST$

  ****  SYMREF variables  ****

  ****  Scalars and arrays  ****
OctLoc.c.b A Datatyp(siz) R M Lvl/name                 OctLoc.c.b A Datatyp(siz) R M Lvl/name

     0-0-0/d STRC(13248) r     1 COMCOM
     0-0-0/w STRC(180)         1 HIER_STK(0:50)
PL6.E3A0      #001=Z9EB$DML_USE File=Z9EB.:Z8A6TSI                               SAT 08/09/97 13:43 Page:168
     0-0-0/w SBIN              1 HIER_STK_PTR               0-0-0/w UBIN              1 ILL_STEP(0:144)
     0-0-0/w UBIN              1 LTS_STEP(0:37)
     0-0-0/d STRC(11580) r     1 O1COM                      0-0-0/w STRC(144)         1 PAGE_FORMAT
     0-0-0/w STRC(153)         1 REP_STK(0:50)              0-0-0/w SBIN              1 REP_STK_PTR

  ****  BASED and DCB variables  ****

  ****  Scalars and arrays  ****
OctLoc.c.b A Datatyp(siz) R M Lvl/name                 OctLoc.c.b A Datatyp(siz) R M Lvl/name

     0-0-0/w STRC(108)         1 ACCEPT_DISPLAY             0-0-0/w STRC(288)         1 ADD_STMT
     0-0-0/w STRC(396)         1 ALPHABET                   0-0-0/w STRC(144)         1 ALTER_LTS
     0-0-0/w STRC(3672)        1 ALT_KEY                    0-0-0/w STRC(36864)       1 ARGLIST
     0-0-0/w STRC(396)         1 ARRAY                      0-0-0/w STRC(180)         1 ARRAY_PRESET_LTS
     0-0-0/w ASTR(324)   r     1 BASED_LEX_SYMBOL
     0-0-0/w STRC(360)         1 BASED_LEX_SYMBOL_WORDS
     0-0-0/w STRC(288)         1 BASE_LTS                   0-0-0/w STRC(108)         1 BINARY_ILL
     0-0-0/w STRC(288)         1 BINARY_OP                  0-0-0/w STRC(396)         1 BLOCK
     0-0-0/w STRC(144)         1 BRANCH_ILL                 0-0-0/w STRC(144)         1 BT
     0-0-0/w STRC(288)         1 CALL_STMT                  0-0-0/w STRC(216)         1 CCOSU
     0-0-0/w STRC(396)         1 CD                         0-0-0/w STRC(288)         1 CD_LTS
     0-0-0/w CHAR(4096)        1 CHARS                      0-0-0/w STRC(396)         1 CLASS
     0-0-0/w STRC(108)         1 CODED_MOVE                 0-0-0/w STRC(288)         1 COMPUTE_STMT
     0-0-0/w STRC(396)         1 CONDITION                  0-0-0/w STRC(396)   r     1 CONST
     0-0-0/w STRC(72)          1 CONT                       0-0-0/w STRC(540)         1 CONTROL_NAME_LTS
     0-0-0/w STRC(1872)        1 COPY_FILE                  0-0-0/w STRC(396)         1 DB
     0-0-0/w STRC(396)         1 DCB_                       0-0-0/w STRC(288)         1 DEFERED_IDENTIFIER
     0-0-0/w STRC(252)         1 DEFERED_ID_TREE            0-0-0/w STRC(288)         1 DEFERED_QUAL_ID
     0-0-0/w STRC(288)         1 DEFERED_SUM_CLAUSE
     0-0-0/w STRC(288)         1 DEFERED_SUM_CLAUSE_LIST
     0-0-0/w STRC(144)         1 DEFLB                      0-0-0/w STRC(288)         1 DELETE_STMT
     0-0-0/w STRC(108)         1 DEPENDING_SIZE             0-0-0/w STRC(5472)        1 DIMS
     0-0-0/w STRC(288)         1 DIVIDE_STMT                0-0-0/w STRC(396)   r     1 DML_ITEM
     0-0-0/w STRC(216)         1 DML_REC                    0-0-0/w ASTR(180)   r     1 DNT
     0-0-0/w STRC(144)         1 DOEND                      0-0-0/w STRC(396)         1 DO_N
     0-0-0/w STRC(180)         1 DV4I                       0-0-0/w STRC(180)         1 ENTRY_ILL
     0-0-0/w STRC(180)   r     1 ETT                        0-0-0/w STRC(108)         1 EVALU
PL6.E3A0      #001=Z9EB$DML_USE File=Z9EB.:Z8A6TSI                               SAT 08/09/97 13:43 Page:169
     0-0-0/w STRC(73836)       1 EVALUATE                   0-0-0/w STRC(396)         1 FD
     0-0-0/w STRC(1692)        1 FILE_LTS                   0-0-0/w STRC(144)         1 GO
     0-0-0/w STRC(180)         1 ILL                        0-0-0/w STRC              1 ILL_NO_OPS
     0-0-0/w STRC(288)   r     1 ILS_LIST                   0-0-0/w STRC(108)         1 INDEXES
     0-0-0/w STRC(360)         1 INIT_LTS                   0-0-0/w STRC(288)         1 INSPECT_1_STMT
     0-0-0/w STRC(288)         1 INSPECT_2_STMT             0-0-0/w STRC(288)         1 INSPECT_4_STMT
     0-0-0/w STRC(396)         1 INTDEF                     0-0-0/w STRC(180)         1 IO_RESTORE_CHAIN
     0-0-0/w STRC(144)         1 KEY                        0-0-0/w STRC(396)         1 LABEL
     0-0-0/w STRC(288)         1 LA_ITEM                    0-0-0/w STRC(36864)       1 LCNST
     0-0-0/w STRC(108)         1 LINOI                      0-0-0/w STRC(72)          1 LONG
     0-0-0/w STRC        r     1 LTS                        0-0-0/w STRC(360)         1 LTSS
     0-0-0/w STRC(36936)       1 LTS_PTR_ARRAY              0-0-0/w STRC(504)         1 LX_CD_INPUT
     0-0-0/w STRC(324)         1 LX_CD_I_O                  0-0-0/w STRC(396)         1 LX_CD_OUTPUT
     0-0-0/w STRC(288)   r     1 LX_ETT_ITEM                0-0-0/w STRC(288)   r     1 LX_ITEM
     0-0-0/w STRC(288)         1 LX_LARGE                   0-0-0/w STRC(288)   r     1 LX_LIST
     0-0-0/w STRC(1224)        1 LX_REC_DECL                0-0-0/w STRC(864)         1 LX_REPORT_REC
     0-0-0/w STRC(288)   r     1 LX_TERMINAL                0-0-0/w STRC(72)          1 MFILL
     0-0-0/w STRC(396)         1 MNEMONIC                   0-0-0/w STRC(288)         1 MULTIPLY_STMT
     0-0-0/w STRC(180)         1 MULTI_GO                   0-0-0/w STRC(180)         1 MVEAL
     0-0-0/w STRC(108)         1 MVFIL                      0-0-0/w STRC(72)          1 MVIIS
     0-0-0/w STRC(144)         1 NEL                        0-0-0/w STRC(216)         1 OPEN_LTS
     0-0-0/w STRC(180)         1 OS_CALL                    0-0-0/w STRC(36864)       1 PAGE
     0-0-0/w STRC(396)         1 PARA                       0-0-0/w STRC(216)         1 PFORM
     0-0-0/w STRC(144)         1 PINC                       0-0-0/w STRC(144)   r     1 PREOFF
     0-0-0/w STRC(108)         1 PRESET                     0-0-0/w STRC(144)         1 PRIME
     0-0-0/w STRC(396)         1 PROC_                      0-0-0/w STRC(396)         1 PROC_DEF
     0-0-0/w STRC(900)         1 PROC_SUPP                  0-0-0/w STRC(144)   r     1 P_A_PRESET
     0-0-0/w STRC(144)         1 P_P_PRESET                 0-0-0/w STRC(396)         1 RD
     0-0-0/w STRC(288)         1 READ_STMT                  0-0-0/w STRC(216)         1 REF
     0-0-0/w STRC(144)         1 REMEM                      0-0-0/w STRC(108)         1 RENAMES
     0-0-0/w STRC(720)         1 REPORT_01_LTS              0-0-0/w STRC(432)         1 REPORT_ELEM_LTS
     0-0-0/w STRC(252)         1 REPORT_GRP_LTS             0-0-0/w STRC(1332)        1 REPORT_LTS
     0-0-0/w STRC(288)         1 REWRITE_STMT               0-0-0/w STRC(144)   r     1 RVA_LTS
     0-0-0/w STRC(396)   r     1 SCALAR                     0-0-0/w STRC(144)         1 SCOPE
     0-0-0/w STRC(396)         1 SD                         0-0-0/w STRC(216)         1 SEARCH_
     0-0-0/w STRC(396)         1 SECTION                    0-0-0/w STRC(396)         1 SEGMENT
     0-0-0/w STRC(360)         1 SEGMENT_LTS                0-0-0/w STRC(396)   r     1 ST
PL6.E3A0      #001=Z9EB$DML_USE File=Z9EB.:Z8A6TSI                               SAT 08/09/97 13:43 Page:170
     0-0-0/w STRC(288)         1 START_STMT                 0-0-0/w STRC(72)          1 STP2
     0-0-0/w STRC(252)         1 STRING_STMT                0-0-0/w STRC(288)         1 SUBTRACT_STMT
     0-0-0/w STRC(252)         1 SUM_LTS                    0-0-0/w STRC(396)         1 SWITCH
     0-0-0/w STRC(396)         1 SYMBOLIC_CHAR              0-0-0/w STRC(396)         1 SYMDEF_
     0-0-0/w STRC(396)         1 SYMREF_                    0-0-0/w STRC(396)         1 TEMP
     0-0-0/w STRC(144)         1 TRINARY_ILL                0-0-0/w STRC(72)          1 UNARY_ILL
     0-0-0/w STRC(288)         1 UNARY_OP                   0-0-0/w STRC(288)         1 UNSTRING_STMT
     0-0-0/d STRC(612)   r     1 USE                        0-0-0/w STRC(216)         1 USER_CALL
     0-0-0/w STRC(252)         1 USE_SUPP                   0-0-0/w STRC(108)         1 VAL
     0-0-0/w STRC(108)         1 VAL_END                    0-0-0/w STRC(396)         1 VARIABLE
     0-0-0/w STRC(72)          1 WHEN                       0-0-0/w STRC(288)         1 WRITE_STMT


   Procedure Z9EB$DML_USE requires 2391 words for executable code.
   Procedure Z9EB$DML_USE requires 44 words of local(AUTO) storage.

