PL6.E3A0      #002=Z9EB$BUILD_DBHIA File=Z9EB.:Z8A6TSI                           SAT 08/09/97 13:47 Page:171
      974        1        /*T***********************************************************/
      975        2        /*T*                                                         */
      976        3        /*T* Copyright (c) Bull HN Information Systems Inc., 1997    */
      977        4        /*T*                                                         */
      978        5        /*T***********************************************************/
      979        6        /*================*/
      980        7          Z9EB$BUILD_DBHIA :    PROC;
      981        8        /*================*/
      982        9
      983       10        /*F*
      984       11            Name:     Z9EB$BUILD_DBHIA
      985       12            Purpose:  System dependent routine used as interface by Z8EN
      986       13                      to build call to DBHIA or DYHIA.
      987       14        */
      988       15
      989       16        %EQU PHASE = 1;
      990       17
      991       18        %INCLUDE Z8A_DEFC;
      992       86        %INCLUDE Z8A_SUPP_MAC;
      993     2486        %INCLUDE Z8E_STACKS;
      994     4752        %INCLUDE Z8E_MACROS;
      995     5427        %INCLUDE Z8E_DML;
      996     5547        %INCLUDE Z8E_O1COM;
      997     6308
      998     6309        %DCL_AUTO_LX_ITEM( @NAME = IA_LX_ITEM );
      999     6313
     1000     6314    1   DCL Z8EU$CREATE_IDENTIFIER_FROM_ST   ENTRY(4);
     1001     6315    1   DCL Z9EB$BUILD_CODE                  ENTRY(3);
     1002     6316
     1003     6317
     1004     6318    1   CALL Z8EU$CREATE_IDENTIFIER_FROM_ST( O1COM.DML_IA$,
     1005     6319    1                                        ADDR(IA_LX_ITEM) );
     1006     6320    1   CALL Z9EB$BUILD_CODE( %DBHIA, 1, ADDR(IA_LX_ITEM) );
     1007     6321
     1008     6322    1   END Z9EB$BUILD_DBHIA;
     1009     6323        %EOD;

PL6.E3A0      #002=Z9EB$BUILD_DBHIA File=Z9EB.:Z8A6TSI                           SAT 08/09/97 13:47 Page:172
--  Include file information  --

   Z8E_O1COM.:Z8A6TOU  cannot be made into a system file and is referenced.
   Z8E_DML.:Z8A6TOU  is referenced.
   Z8E_NEW_ILL.:Z8A6TOU  is referenced.
   Z8E_MACROS.:Z8A6TOU  cannot be made into a system file and is referenced.
   Z8A_LEX_SYMB.:Z8A6TOU  cannot be made into a system file and is referenced.
   Z8E_STACKS.:Z8A6TOU  cannot be made into a system file and is referenced.
   X8A_COM_MACS.:X8A6TOU  is referenced.
   Z8A_NAMES.:Z8A6TOU  is referenced.
   Z8A_SUPP_MAC.:Z8A6TOU  is referenced.
   Z8A_DEFC.:Z8A6TOU  cannot be made into a system file and is referenced.
      No diagnostics issued in procedure Z9EB$BUILD_DBHIA.

   Procedure Z9EB$BUILD_DBHIA requires 25 words for executable code.
   Procedure Z9EB$BUILD_DBHIA requires 16 words of local(AUTO) storage.

PL6.E3A0      #002=Z9EB$BUILD_DBHIA File=Z9EB.:Z8A6TSI                           SAT 08/09/97 13:47 Page:173

 Object Unit name= Z9EB$BUILD_DBHIA                           File name= Z9EB.:Z8A6TOU
 UTS= AUG 09 '97 13:47:02.36 SAT                              Compiler= PL-6/E31         Sev=      00
 SharedLib= :SHARED_SYSTEM                                    Alt SharedLib=


    ****  Control sections  ****

 Sect   Type Bound  Init  Size OctSiz  Section name(segment info)
    0  LblCom even  none     1      1  ITERATION
    1  LblCom even  none    90    132  LEX_SYMBOL
    2  LblCom even  none     1      1  CURRENT_LEX_SYMBOL$
    3  LblCom even  none    90    132  TEMP_LEX_SYMBOL
    4  LblCom even  none    90    132  TEMP_LEX_SYMBOL2
    5  RoData even  UTS      2      2  Z9EB$BUILD_DBHIA
    6   Proc  even  none    25     31  Z9EB$BUILD_DBHIA
    7  RoData even  none     6      6  Z9EB$BUILD_DBHIA

    ****  Entry defs  ****

                              Check   Calling
                             calling  sequence
  Sect OctLoc Primary Altret sequence   type   Parms  Name
     6      0   yes            yes      Std        0  Z9EB$BUILD_DBHIA

  ****  Entry refs  ****

         Check        Calling
        calling       sequence
Altret sequence SRef   type   Args  Name
         yes           Std       4 Z8EU$CREATE_IDENTIFIER_FROM_ST
         yes           Std       3 Z9EB$BUILD_CODE
                       nStd      0 X66_AUTO_0
                       nStd      0 X66_ARET
PL6.E3A0      #002=Z9EB$BUILD_DBHIA File=Z9EB.:Z8A6TSI                           SAT 08/09/97 13:47 Page:174

  ****  Data refs  ****

  Flags:  r = read only, s = secondary
Flgs Name                             Flgs Name                             Flgs Name
     O1COM                                 HIER_STK_PTR                          HIER_STK
     PAGE_FORMAT                           REP_STK_PTR                           REP_STK

  ****  Segment refs  ****

  Flags:  r = read only, s = secondary
Flgs Name                             Flgs Name                             Flgs Name
     ISSID
PL6.E3A0      #002=Z9EB$BUILD_DBHIA File=Z9EB.:Z8A6TSI                           SAT 08/09/97 13:47 Page:175


      974        1        /*T***********************************************************/
      975        2        /*T*                                                         */
      976        3        /*T* Copyright (c) Bull HN Information Systems Inc., 1997    */
      977        4        /*T*                                                         */
      978        5        /*T***********************************************************/
      979        6        /*================*/
      980        7          Z9EB$BUILD_DBHIA :    PROC;

      7  6 000000   000000 700200 xent  Z9EB$BUILD_* TSX0  ! X66_AUTO_0
         6 000001   000020 000000                    ZERO    16,0

      981        8        /*================*/
      982        9
      983       10        /*F*
      984       11            Name:     Z9EB$BUILD_DBHIA
      985       12            Purpose:  System dependent routine used as interface by Z8EN
      986       13                      to build call to DBHIA or DYHIA.
      987       14        */
      988       15
      989       16        %EQU PHASE = 1;
      990       17
      991       18        %INCLUDE Z8A_DEFC;
      992       86        %INCLUDE Z8A_SUPP_MAC;
      993     2486        %INCLUDE Z8E_STACKS;
      994     4752        %INCLUDE Z8E_MACROS;
      995     5427        %INCLUDE Z8E_DML;
      996     5547        %INCLUDE Z8E_O1COM;
      997     6308
      998     6309        %DCL_AUTO_LX_ITEM( @NAME = IA_LX_ITEM );
      999     6313
     1000     6314    1   DCL Z8EU$CREATE_IDENTIFIER_FROM_ST   ENTRY(4);
     1001     6315    1   DCL Z9EB$BUILD_CODE                  ENTRY(3);
     1002     6316
     1003     6317
     1004     6318    1   CALL Z8EU$CREATE_IDENTIFIER_FROM_ST( O1COM.DML_IA$,

PL6.E3A0      #002=Z9EB$BUILD_DBHIA File=Z9EB.:Z8A6TSI                           SAT 08/09/97 13:47 Page:176
   6318  6 000002   200004 630500                    EPPR0   IA_LX_ITEM,,AUTO
         6 000003   200014 450500                    STP0    IA_LX_ITEM+8,,AUTO
         6 000004   200014 631500                    EPPR1   IA_LX_ITEM+8,,AUTO
         6 000005   200017 451500                    STP1    IA_LX_ITEM+11,,AUTO
         6 000006   000001 236000 7                  LDQ     1
         6 000007   200016 756100                    STQ     IA_LX_ITEM+10,,AUTO
         6 000010   200016 630500                    EPPR0   IA_LX_ITEM+10,,AUTO
         6 000011   000000 631400 7                  EPPR1   0
         6 000012   000000 701000 xent               TSX1    Z8EU$CREATE_IDENTIFIER_FROM_ST
         6 000013   000000 011000                    NOP     0

     1005     6319    1                                        ADDR(IA_LX_ITEM) );
     1006     6320    1   CALL Z9EB$BUILD_CODE( %DBHIA, 1, ADDR(IA_LX_ITEM) );

   6320  6 000014   200004 630500                    EPPR0   IA_LX_ITEM,,AUTO
         6 000015   200014 450500                    STP0    IA_LX_ITEM+8,,AUTO
         6 000016   200014 631500                    EPPR1   IA_LX_ITEM+8,,AUTO
         6 000017   200017 451500                    STP1    IA_LX_ITEM+11,,AUTO
         6 000020   000004 236000 7                  LDQ     4
         6 000021   200016 756100                    STQ     IA_LX_ITEM+10,,AUTO
         6 000022   000005 236000 7                  LDQ     5
         6 000023   200015 756100                    STQ     IA_LX_ITEM+9,,AUTO
         6 000024   200015 630500                    EPPR0   IA_LX_ITEM+9,,AUTO
         6 000025   000002 631400 7                  EPPR1   2
         6 000026   000000 701000 xent               TSX1    Z9EB$BUILD_CODE
         6 000027   000000 011000                    NOP     0

     1007     6321
     1008     6322    1   END Z9EB$BUILD_DBHIA;

   6322  6 000030   000000 702200 xent               TSX2  ! X66_ARET
     1009     6323        %EOD;

PL6.E3A0      #002=Z9EB$BUILD_DBHIA File=Z9EB.:Z8A6TSI                           SAT 08/09/97 13:47 Page:177
--  Include file information  --

   Z8E_O1COM.:Z8A6TOU  cannot be made into a system file and is referenced.
   Z8E_DML.:Z8A6TOU  is referenced.
   Z8E_NEW_ILL.:Z8A6TOU  is referenced.
   Z8E_MACROS.:Z8A6TOU  cannot be made into a system file and is referenced.
   Z8A_LEX_SYMB.:Z8A6TOU  cannot be made into a system file and is referenced.
   Z8E_STACKS.:Z8A6TOU  cannot be made into a system file and is referenced.
   X8A_COM_MACS.:X8A6TOU  is referenced.
   Z8A_NAMES.:Z8A6TOU  is referenced.
   Z8A_SUPP_MAC.:Z8A6TOU  is referenced.
   Z8A_DEFC.:Z8A6TOU  cannot be made into a system file and is referenced.
      No diagnostics issued in procedure Z9EB$BUILD_DBHIA.
PL6.E3A0      #002=Z9EB$BUILD_DBHIA File=Z9EB.:Z8A6TSI                           SAT 08/09/97 13:47 Page:178

 **** Variables and constants ****

  ****  Section 000 LblCom ITERATION

  ****  Scalars and arrays  ****
OctLoc.c.b A Datatyp(siz) R M Lvl/name                 OctLoc.c.b A Datatyp(siz) R M Lvl/name

     0-0-0/w SBIN              1 ITERATION

  ****  Section 001 LblCom LEX_SYMBOL

  ****  Scalars and arrays  ****
OctLoc.c.b A Datatyp(siz) R M Lvl/name                 OctLoc.c.b A Datatyp(siz) R M Lvl/name

     0-0-0/w STRC(3240)  r     1 LEX_SYMBOL                 0-0-0/w STRC(3240)        1 LEX_SYMBOL_WORDS

  ****  Section 002 LblCom CURRENT_LEX_SYMBOL$

  ****  Scalars and arrays  ****
OctLoc.c.b A Datatyp(siz) R M Lvl/name                 OctLoc.c.b A Datatyp(siz) R M Lvl/name

     0-0-0/w PTR         r     1 CURRENT_LEX_SYMBOL$

  ****  Section 003 LblCom TEMP_LEX_SYMBOL

  ****  Scalars and arrays  ****
OctLoc.c.b A Datatyp(siz) R M Lvl/name                 OctLoc.c.b A Datatyp(siz) R M Lvl/name

     0-0-0/w STRC(3240)        1 TEMP_LEX_SYMBOL

  ****  Section 004 LblCom TEMP_LEX_SYMBOL2

  ****  Scalars and arrays  ****
OctLoc.c.b A Datatyp(siz) R M Lvl/name                 OctLoc.c.b A Datatyp(siz) R M Lvl/name

     0-0-0/w STRC(3240)        1 TEMP_LEX_SYMBOL2

PL6.E3A0      #002=Z9EB$BUILD_DBHIA File=Z9EB.:Z8A6TSI                           SAT 08/09/97 13:47 Page:179
  ****  Auto variables  ****

  ****  Scalars and arrays  ****
OctLoc.c.b A Datatyp(siz) R M Lvl/name                 OctLoc.c.b A Datatyp(siz) R M Lvl/name

     4-0-0/d STRC(288)   r     1 IA_LX_ITEM

  ****  SYMREF variables  ****

  ****  Scalars and arrays  ****
OctLoc.c.b A Datatyp(siz) R M Lvl/name                 OctLoc.c.b A Datatyp(siz) R M Lvl/name

     0-0-0/w STRC(180)         1 HIER_STK(0:50)
     0-0-0/w SBIN              1 HIER_STK_PTR               0-0-0/d STRC(11580) r     1 O1COM
     0-0-0/w STRC(144)         1 PAGE_FORMAT                0-0-0/w STRC(153)         1 REP_STK(0:50)
     0-0-0/w SBIN              1 REP_STK_PTR

  ****  BASED and DCB variables  ****

  ****  Scalars and arrays  ****
OctLoc.c.b A Datatyp(siz) R M Lvl/name                 OctLoc.c.b A Datatyp(siz) R M Lvl/name

     0-0-0/w STRC(288)         1 ADD_STMT                   0-0-0/w ASTR(324)   r     1 BASED_LEX_SYMBOL
     0-0-0/w STRC(360)         1 BASED_LEX_SYMBOL_WORDS
     0-0-0/w STRC(288)         1 BINARY_OP                  0-0-0/w STRC(288)         1 CALL_STMT
     0-0-0/w CHAR(4096)        1 CHARS                      0-0-0/w STRC(288)         1 COMPUTE_STMT
     0-0-0/w STRC(72)          1 CONT                       0-0-0/w STRC(288)         1 DEFERED_IDENTIFIER
     0-0-0/w STRC(252)         1 DEFERED_ID_TREE            0-0-0/w STRC(288)         1 DEFERED_QUAL_ID
     0-0-0/w STRC(288)         1 DEFERED_SUM_CLAUSE
     0-0-0/w STRC(288)         1 DEFERED_SUM_CLAUSE_LIST
     0-0-0/w STRC(288)         1 DELETE_STMT                0-0-0/w STRC(288)         1 DIVIDE_STMT
     0-0-0/w STRC(288)         1 ILS_LIST                   0-0-0/w STRC(288)         1 INSPECT_1_STMT
     0-0-0/w STRC(288)         1 INSPECT_2_STMT             0-0-0/w STRC(288)         1 INSPECT_4_STMT
     0-0-0/w STRC(288)         1 LA_ITEM                    0-0-0/w STRC(504)         1 LX_CD_INPUT
     0-0-0/w STRC(324)         1 LX_CD_I_O                  0-0-0/w STRC(396)         1 LX_CD_OUTPUT
     0-0-0/w STRC(288)         1 LX_ETT_ITEM                0-0-0/w STRC(288)         1 LX_ITEM
     0-0-0/w STRC(288)         1 LX_LARGE                   0-0-0/w STRC(288)         1 LX_LIST
PL6.E3A0      #002=Z9EB$BUILD_DBHIA File=Z9EB.:Z8A6TSI                           SAT 08/09/97 13:47 Page:180
     0-0-0/w STRC(1224)        1 LX_REC_DECL                0-0-0/w STRC(864)         1 LX_REPORT_REC
     0-0-0/w STRC(288)         1 LX_TERMINAL                0-0-0/w STRC(288)         1 MULTIPLY_STMT
     0-0-0/w STRC(36864)       1 PAGE                       0-0-0/w STRC(288)         1 READ_STMT
     0-0-0/w STRC(288)         1 REWRITE_STMT               0-0-0/w STRC(288)         1 START_STMT
     0-0-0/w STRC(252)         1 STRING_STMT                0-0-0/w STRC(288)         1 SUBTRACT_STMT
     0-0-0/w STRC(288)         1 UNARY_OP                   0-0-0/w STRC(288)         1 UNSTRING_STMT
     0-0-0/w STRC(288)         1 WRITE_STMT


   Procedure Z9EB$BUILD_DBHIA requires 25 words for executable code.
   Procedure Z9EB$BUILD_DBHIA requires 16 words of local(AUTO) storage.

PL6.E3A0      #003=Z9EB$BUILD_CODE File=Z9EB.:Z8A6TSI                            SAT 08/09/97 13:47 Page:181
     1010        1        /*T***********************************************************/
     1011        2        /*T*                                                         */
     1012        3        /*T* Copyright (c) Bull HN Information Systems Inc., 1997    */
     1013        4        /*T*                                                         */
     1014        5        /*T***********************************************************/
     1015        6        /*===============*/
     1016        7          Z9EB$BUILD_CODE :  PROC   (CODE, ARG_COUNT, PARM$);
     1017        8        /*===============*/
     1018        9        /*F*
     1019       10             NAME: Z9EB$BUILD_CODE
     1020       11             PURPOSE:
     1021       12                   Builds call to IDS routines
     1022       13             DESCRIPTION:
     1023       14                   Builds arglist and descriptor and os call to IDS rountines
     1024       15        */
     1025       16        /*D*
     1026       17             NAME: Z9EB$BUILD_CODE
     1027       18             CALL:
     1028       19                    CALL Z9EB$BUILD_CODE( CODE, ARG_COUNT, PARM$ );
     1029       20             PARAMETERS:
     1030       21                    CODE - library code for routine to call
     1031       22                    ARG_COUNT - argument count
     1032       23                    PARM$ - linked list of parameters.
     1033       24             INTERFACE:
     1034       25                    Z9EY$BUILD_RUNTIME_DESCRIPTOR
     1035       26                    Z8EY$BUILD_RUNTIME_ARGLIST
     1036       27                    Z8EO$NEW_SYMREF
     1037       28             ENVIRONMENT:
     1038       29                  None.
     1039       30             INPUT:
     1040       31                    CODE
     1041       32                    ARG_COUNT
     1042       33                    PARM$
     1043       34             OUTPUT:
     1044       35                  None.
     1045       36             SCRATCH:
     1046       37                  None.
PL6.E3A0      #003=Z9EB$BUILD_CODE File=Z9EB.:Z8A6TSI                            SAT 08/09/97 13:47 Page:182
     1047       38             DESCRIPTION:
     1048       39                    The call is a standard CP-6 or GCOS call depending on
     1049       40                    the system in use.
     1050       41        */
     1051       42    1       DCL CODE    CHAR(6);
     1052       43    1       DCL ARG_COUNT   SBIN;
     1053       44    1       DCL PARM$   PTR;
     1054       45
     1055       46    1       DCL RT_DESC_LIST$   PTR;
     1056       47    1       DCL RT_ARG_LIST$    PTR;
     1057       48    1       DCL SYMREF_ST$      PTR;
     1058       49
     1059       50    1       DCL Z9EY$BUILD_RUNTIME_DESCRIPTOR       ENTRY(3);
     1060       51    1       DCL Z8EY$BUILD_RUNTIME_ARGLIST          ENTRY(3);
     1061       52    1       DCL Z8EO$NEW_SYMREF                     ENTRY(3);
     1062       53
     1063       54            %EQU PHASE = 1;
     1064       55            %INCLUDE Z8A_DEFC;
     1065      123            %INCLUDE Z8A_SUPP_MAC;
     1066     2523            %INCLUDE Z8A_ILL;
     1067     3216            %INCLUDE Z8E_STACKS;
     1068     5482            %INCLUDE Z8E_O1COM;
     1069     6243            %INCLUDE Z8E_MACROS;
     1070     6918        %EJECT;
PL6.E3A0      #003=Z9EB$BUILD_CODE File=Z9EB.:Z8A6TSI                            SAT 08/09/97 13:47 Page:183
     1071     6919    1       CALL Z9EY$BUILD_RUNTIME_DESCRIPTOR( PARM$,
     1072     6920    1                      RT_DESC_LIST$,
     1073     6921    1                      ARG_COUNT);
     1074     6922    1       CALL Z8EY$BUILD_RUNTIME_ARGLIST(PARM$,
     1075     6923    1                  RT_ARG_LIST$,
     1076     6924    1                  ARG_COUNT);
     1077     6925    1       CALL Z8EO$NEW_SYMREF( CODE, 6, SYMREF_ST$ );
     1078     6926
     1079     6927            %NEW_ILL(@ID    = %USER_CALL,
     1080     6928                     @ROP   = RT_DESC_LIST$,
     1081     6929                     @LOP   = RT_ARG_LIST$,
     1082     6930                     @DESTINATION$ = SYMREF_ST$);
     1083     7309
     1084     7310    1       RETURN;
     1085     7311    1   END Z9EB$BUILD_CODE;
     1086     7312        %EOD;

PL6.E3A0      #003=Z9EB$BUILD_CODE File=Z9EB.:Z8A6TSI                            SAT 08/09/97 13:47 Page:184
--  Include file information  --

   Z8E_NEW_ILL.:Z8A6TOU  is referenced.
   Z8E_MACROS.:Z8A6TOU  cannot be made into a system file and is referenced.
   Z8E_O1COM.:Z8A6TOU  cannot be made into a system file and is referenced.
   Z8A_LEX_SYMB.:Z8A6TOU  cannot be made into a system file and is referenced.
   Z8E_STACKS.:Z8A6TOU  cannot be made into a system file and is referenced.
   Z8A_ILL.:Z8A6TOU  cannot be made into a system file and is referenced.
   X8A_COM_MACS.:X8A6TOU  is referenced.
   Z8A_NAMES.:Z8A6TOU  is referenced.
   Z8A_SUPP_MAC.:Z8A6TOU  is referenced.
   Z8A_DEFC.:Z8A6TOU  cannot be made into a system file and is referenced.
      No diagnostics issued in procedure Z9EB$BUILD_CODE.

   Procedure Z9EB$BUILD_CODE requires 55 words for executable code.
   Procedure Z9EB$BUILD_CODE requires 16 words of local(AUTO) storage.

PL6.E3A0      #003=Z9EB$BUILD_CODE File=Z9EB.:Z8A6TSI                            SAT 08/09/97 13:47 Page:185

 Object Unit name= Z9EB$BUILD_CODE                            File name= Z9EB.:Z8A6TOU
 UTS= AUG 09 '97 13:47:38.92 SAT                              Compiler= PL-6/E31         Sev=      00
 SharedLib= :SHARED_SYSTEM                                    Alt SharedLib=


    ****  Control sections  ****

 Sect   Type Bound  Init  Size OctSiz  Section name(segment info)
    0  LblCom even  none     1      1  ITERATION
    1  LblCom even  none     1      1  ILL$
    2  LblCom even  none     5      5  ILL_
    3  LblCom even  none    90    132  LEX_SYMBOL
    4  LblCom even  none     1      1  CURRENT_LEX_SYMBOL$
    5  LblCom even  none    90    132  TEMP_LEX_SYMBOL
    6  LblCom even  none    90    132  TEMP_LEX_SYMBOL2
    7   Proc  even  none    55     67  Z9EB$BUILD_CODE
    8  RoData even  none    11     13  Z9EB$BUILD_CODE

    ****  Entry defs  ****

                              Check   Calling
                             calling  sequence
  Sect OctLoc Primary Altret sequence   type   Parms  Name
     7      0   yes            yes      Std        3  Z9EB$BUILD_CODE

  ****  Entry refs  ****

         Check        Calling
        calling       sequence
Altret sequence SRef   type   Args  Name
         yes           Std       3 Z9EY$BUILD_RUNTIME_DESCRIPTOR
         yes           Std       3 Z8EO$NEW_SYMREF
         yes           Std       4 Z8AN$NEW_ILL
         yes           Std       3 Z8EY$BUILD_RUNTIME_ARGLIST
                       nStd      0 X66_AUTO_3
                       nStd      0 X66_ARET
PL6.E3A0      #003=Z9EB$BUILD_CODE File=Z9EB.:Z8A6TSI                            SAT 08/09/97 13:47 Page:186

  ****  Data refs  ****

  Flags:  r = read only, s = secondary
Flgs Name                             Flgs Name                             Flgs Name
r    ILL_STEP                              O1COM                                 HIER_STK_PTR
     HIER_STK                              PAGE_FORMAT                           REP_STK_PTR
     REP_STK

  ****  Segment refs  ****

  Flags:  r = read only, s = secondary
Flgs Name                             Flgs Name                             Flgs Name
     NULLSID                               ISSID
PL6.E3A0      #003=Z9EB$BUILD_CODE File=Z9EB.:Z8A6TSI                            SAT 08/09/97 13:47 Page:187


     1010        1        /*T***********************************************************/
     1011        2        /*T*                                                         */
     1012        3        /*T* Copyright (c) Bull HN Information Systems Inc., 1997    */
     1013        4        /*T*                                                         */
     1014        5        /*T***********************************************************/
     1015        6        /*===============*/
     1016        7          Z9EB$BUILD_CODE :  PROC   (CODE, ARG_COUNT, PARM$);

      7  7 000000   000000 700200 xent  Z9EB$BUILD_* TSX0  ! X66_AUTO_3
         7 000001   000020 000003                    ZERO    16,3

     1017        8        /*===============*/
     1018        9        /*F*
     1019       10             NAME: Z9EB$BUILD_CODE
     1020       11             PURPOSE:
     1021       12                   Builds call to IDS routines
     1022       13             DESCRIPTION:
     1023       14                   Builds arglist and descriptor and os call to IDS rountines
     1024       15        */
     1025       16        /*D*
     1026       17             NAME: Z9EB$BUILD_CODE
     1027       18             CALL:
     1028       19                    CALL Z9EB$BUILD_CODE( CODE, ARG_COUNT, PARM$ );
     1029       20             PARAMETERS:
     1030       21                    CODE - library code for routine to call
     1031       22                    ARG_COUNT - argument count
     1032       23                    PARM$ - linked list of parameters.
     1033       24             INTERFACE:
     1034       25                    Z9EY$BUILD_RUNTIME_DESCRIPTOR
     1035       26                    Z8EY$BUILD_RUNTIME_ARGLIST
     1036       27                    Z8EO$NEW_SYMREF
     1037       28             ENVIRONMENT:
     1038       29                  None.
     1039       30             INPUT:
     1040       31                    CODE
     1041       32                    ARG_COUNT
PL6.E3A0      #003=Z9EB$BUILD_CODE File=Z9EB.:Z8A6TSI                            SAT 08/09/97 13:47 Page:188
     1042       33                    PARM$
     1043       34             OUTPUT:
     1044       35                  None.
     1045       36             SCRATCH:
     1046       37                  None.
     1047       38             DESCRIPTION:
     1048       39                    The call is a standard CP-6 or GCOS call depending on
     1049       40                    the system in use.
     1050       41        */
     1051       42    1       DCL CODE    CHAR(6);
     1052       43    1       DCL ARG_COUNT   SBIN;
     1053       44    1       DCL PARM$   PTR;
     1054       45
     1055       46    1       DCL RT_DESC_LIST$   PTR;
     1056       47    1       DCL RT_ARG_LIST$    PTR;
     1057       48    1       DCL SYMREF_ST$      PTR;
     1058       49
     1059       50    1       DCL Z9EY$BUILD_RUNTIME_DESCRIPTOR       ENTRY(3);
     1060       51    1       DCL Z8EY$BUILD_RUNTIME_ARGLIST          ENTRY(3);
     1061       52    1       DCL Z8EO$NEW_SYMREF                     ENTRY(3);
     1062       53
     1063       54            %EQU PHASE = 1;
     1064       55            %INCLUDE Z8A_DEFC;
     1065      123            %INCLUDE Z8A_SUPP_MAC;
     1066     2523            %INCLUDE Z8A_ILL;
     1067     3216            %INCLUDE Z8E_STACKS;
     1068     5482            %INCLUDE Z8E_O1COM;
     1069     6243            %INCLUDE Z8E_MACROS;
     1070     6918        %EJECT;
PL6.E3A0      #003=Z9EB$BUILD_CODE File=Z9EB.:Z8A6TSI                            SAT 08/09/97 13:47 Page:189
     1071     6919    1       CALL Z9EY$BUILD_RUNTIME_DESCRIPTOR( PARM$,

   6919  7 000002   200004 236100                    LDQ     @ARG_COUNT,,AUTO
         7 000003   200014 756100                    STQ     SYMREF_ST$+4,,AUTO
         7 000004   200006 630500                    EPPR0   RT_DESC_LIST$,,AUTO
         7 000005   200013 450500                    STP0    SYMREF_ST$+3,,AUTO
         7 000006   200005 236100                    LDQ     @PARM$,,AUTO
         7 000007   200012 756100                    STQ     SYMREF_ST$+2,,AUTO
         7 000010   200012 630500                    EPPR0   SYMREF_ST$+2,,AUTO
         7 000011   000000 631400 8                  EPPR1   0
         7 000012   000000 701000 xent               TSX1    Z9EY$BUILD_RUNTIME_DESCRIPTOR
         7 000013   000000 011000                    NOP     0

     1072     6920    1                      RT_DESC_LIST$,
     1073     6921    1                      ARG_COUNT);
     1074     6922    1       CALL Z8EY$BUILD_RUNTIME_ARGLIST(PARM$,

   6922  7 000014   200004 236100                    LDQ     @ARG_COUNT,,AUTO
         7 000015   200014 756100                    STQ     SYMREF_ST$+4,,AUTO
         7 000016   200007 630500                    EPPR0   RT_ARG_LIST$,,AUTO
         7 000017   200013 450500                    STP0    SYMREF_ST$+3,,AUTO
         7 000020   200005 236100                    LDQ     @PARM$,,AUTO
         7 000021   200012 756100                    STQ     SYMREF_ST$+2,,AUTO
         7 000022   200012 630500                    EPPR0   SYMREF_ST$+2,,AUTO
         7 000023   000000 631400 8                  EPPR1   0
         7 000024   000000 701000 xent               TSX1    Z8EY$BUILD_RUNTIME_ARGLIST
         7 000025   000000 011000                    NOP     0

     1075     6923    1                  RT_ARG_LIST$,
     1076     6924    1                  ARG_COUNT);
     1077     6925    1       CALL Z8EO$NEW_SYMREF( CODE, 6, SYMREF_ST$ );

   6925  7 000026   200010 630500                    EPPR0   SYMREF_ST$,,AUTO
         7 000027   200014 450500                    STP0    SYMREF_ST$+4,,AUTO
         7 000030   000002 236000 8                  LDQ     2
         7 000031   200003 235100                    LDA     @CODE,,AUTO
         7 000032   200012 757100                    STAQ    SYMREF_ST$+2,,AUTO
PL6.E3A0      #003=Z9EB$BUILD_CODE File=Z9EB.:Z8A6TSI                            SAT 08/09/97 13:47 Page:190
         7 000033   200012 630500                    EPPR0   SYMREF_ST$+2,,AUTO
         7 000034   000000 631400 8                  EPPR1   0
         7 000035   000000 701000 xent               TSX1    Z8EO$NEW_SYMREF
         7 000036   000000 011000                    NOP     0

     1078     6926
     1079     6927            %NEW_ILL(@ID    = %USER_CALL,
     1080     6928                     @ROP   = RT_DESC_LIST$,
     1081     6929                     @LOP   = RT_ARG_LIST$,
     1082     6930                     @DESTINATION$ = SYMREF_ST$);

   7038  7 000037   000006 236000 8                  LDQ     6
         7 000040   200012 756100                    STQ     SYMREF_ST$+2,,AUTO
         7 000041   200012 630500                    EPPR0   SYMREF_ST$+2,,AUTO
         7 000042   200017 450500                    STP0    SYMREF_ST$+7,,AUTO
         7 000043   000007 236000 8                  LDQ     7
         7 000044   200016 756100                    STQ     SYMREF_ST$+6,,AUTO
         7 000045   000010 237000 8                  LDAQ    8
         7 000046   200014 757100                    STAQ    SYMREF_ST$+4,,AUTO
         7 000047   200014 630500                    EPPR0   SYMREF_ST$+4,,AUTO
         7 000050   000003 631400 8                  EPPR1   3
         7 000051   000000 701000 xent               TSX1    Z8AN$NEW_ILL
         7 000052   000000 011000                    NOP     0

   7039  7 000053   200007 236100                    LDQ     RT_ARG_LIST$,,AUTO
         7 000054   000000 470400 1                  LDP0    ILL$
         7 000055   000001 756100                    STQ     1,,PR0

   7040  7 000056   200006 236100                    LDQ     RT_DESC_LIST$,,AUTO
         7 000057   000002 756100                    STQ     2,,PR0

   7041  7 000060   200010 236100                    LDQ     SYMREF_ST$,,AUTO
         7 000061   000005 756100                    STQ     5,,PR0

   7042  7 000062   000012 236000 8                  LDQ     10
         7 000063   000003 756100                    STQ     3,,PR0

PL6.E3A0      #003=Z9EB$BUILD_CODE File=Z9EB.:Z8A6TSI                            SAT 08/09/97 13:47 Page:191
   7044  7 000064   000012 236000 8                  LDQ     10
         7 000065   000004 756100                    STQ     4,,PR0

     1083     7309
     1084     7310    1       RETURN;

   7310  7 000066   000000 702200 xent               TSX2  ! X66_ARET
     1085     7311    1   END Z9EB$BUILD_CODE;
     1086     7312        %EOD;

PL6.E3A0      #003=Z9EB$BUILD_CODE File=Z9EB.:Z8A6TSI                            SAT 08/09/97 13:47 Page:192
--  Include file information  --

   Z8E_NEW_ILL.:Z8A6TOU  is referenced.
   Z8E_MACROS.:Z8A6TOU  cannot be made into a system file and is referenced.
   Z8E_O1COM.:Z8A6TOU  cannot be made into a system file and is referenced.
   Z8A_LEX_SYMB.:Z8A6TOU  cannot be made into a system file and is referenced.
   Z8E_STACKS.:Z8A6TOU  cannot be made into a system file and is referenced.
   Z8A_ILL.:Z8A6TOU  cannot be made into a system file and is referenced.
   X8A_COM_MACS.:X8A6TOU  is referenced.
   Z8A_NAMES.:Z8A6TOU  is referenced.
   Z8A_SUPP_MAC.:Z8A6TOU  is referenced.
   Z8A_DEFC.:Z8A6TOU  cannot be made into a system file and is referenced.
      No diagnostics issued in procedure Z9EB$BUILD_CODE.
PL6.E3A0      #003=Z9EB$BUILD_CODE File=Z9EB.:Z8A6TSI                            SAT 08/09/97 13:47 Page:193

 **** Variables and constants ****

  ****  Section 000 LblCom ITERATION

  ****  Scalars and arrays  ****
OctLoc.c.b A Datatyp(siz) R M Lvl/name                 OctLoc.c.b A Datatyp(siz) R M Lvl/name

     0-0-0/w SBIN              1 ITERATION

  ****  Section 001 LblCom ILL$

  ****  Scalars and arrays  ****
OctLoc.c.b A Datatyp(siz) R M Lvl/name                 OctLoc.c.b A Datatyp(siz) R M Lvl/name

     0-0-0/w PTR         r     1 ILL$

  ****  Section 002 LblCom ILL_

  ****  Scalars and arrays  ****
OctLoc.c.b A Datatyp(siz) R M Lvl/name                 OctLoc.c.b A Datatyp(siz) R M Lvl/name

     0-0-0/w STRC(180)         1 ILL_

  ****  Section 003 LblCom LEX_SYMBOL

  ****  Scalars and arrays  ****
OctLoc.c.b A Datatyp(siz) R M Lvl/name                 OctLoc.c.b A Datatyp(siz) R M Lvl/name

     0-0-0/w STRC(3240)  r     1 LEX_SYMBOL                 0-0-0/w STRC(3240)        1 LEX_SYMBOL_WORDS

  ****  Section 004 LblCom CURRENT_LEX_SYMBOL$

  ****  Scalars and arrays  ****
OctLoc.c.b A Datatyp(siz) R M Lvl/name                 OctLoc.c.b A Datatyp(siz) R M Lvl/name

     0-0-0/w PTR         r     1 CURRENT_LEX_SYMBOL$

PL6.E3A0      #003=Z9EB$BUILD_CODE File=Z9EB.:Z8A6TSI                            SAT 08/09/97 13:47 Page:194
  ****  Section 005 LblCom TEMP_LEX_SYMBOL

  ****  Scalars and arrays  ****
OctLoc.c.b A Datatyp(siz) R M Lvl/name                 OctLoc.c.b A Datatyp(siz) R M Lvl/name

     0-0-0/w STRC(3240)        1 TEMP_LEX_SYMBOL

  ****  Section 006 LblCom TEMP_LEX_SYMBOL2

  ****  Scalars and arrays  ****
OctLoc.c.b A Datatyp(siz) R M Lvl/name                 OctLoc.c.b A Datatyp(siz) R M Lvl/name

     0-0-0/w STRC(3240)        1 TEMP_LEX_SYMBOL2

  ****  Auto variables  ****

  ****  Scalars and arrays  ****
OctLoc.c.b A Datatyp(siz) R M Lvl/name                 OctLoc.c.b A Datatyp(siz) R M Lvl/name

     4-0-0/w PTR         r     1 @ARG_COUNT                 3-0-0/w PTR         r     1 @CODE
     5-0-0/w PTR         r     1 @PARM$                    *0-0-0/w SBIN        r     1 ARG_COUNT
    *0-0-0/c CHAR(6)     r     1 CODE                      *0-0-0/w PTR         r     1 PARM$
     7-0-0/w PTR         r     1 RT_ARG_LIST$               6-0-0/w PTR         r     1 RT_DESC_LIST$
    10-0-0/w PTR         r     1 SYMREF_ST$

  ****  SYMREF variables  ****

  ****  Scalars and arrays  ****
OctLoc.c.b A Datatyp(siz) R M Lvl/name                 OctLoc.c.b A Datatyp(siz) R M Lvl/name

     0-0-0/w STRC(180)         1 HIER_STK(0:50)
     0-0-0/w SBIN              1 HIER_STK_PTR               0-0-0/w UBIN              1 ILL_STEP(0:144)
     0-0-0/d STRC(11580) r     1 O1COM                      0-0-0/w STRC(144)         1 PAGE_FORMAT
     0-0-0/w STRC(153)         1 REP_STK(0:50)              0-0-0/w SBIN              1 REP_STK_PTR

  ****  BASED and DCB variables  ****

PL6.E3A0      #003=Z9EB$BUILD_CODE File=Z9EB.:Z8A6TSI                            SAT 08/09/97 13:47 Page:195
  ****  Scalars and arrays  ****
OctLoc.c.b A Datatyp(siz) R M Lvl/name                 OctLoc.c.b A Datatyp(siz) R M Lvl/name

     0-0-0/w STRC(108)         1 ACCEPT_DISPLAY             0-0-0/w STRC(288)         1 ADD_STMT
     0-0-0/w ASTR(324)   r     1 BASED_LEX_SYMBOL
     0-0-0/w STRC(360)         1 BASED_LEX_SYMBOL_WORDS
     0-0-0/w STRC(108)         1 BINARY_ILL                 0-0-0/w STRC(288)         1 BINARY_OP
     0-0-0/w STRC(144)         1 BRANCH_ILL                 0-0-0/w STRC(288)         1 CALL_STMT
     0-0-0/w STRC(216)         1 CCOSU                      0-0-0/w CHAR(4096)        1 CHARS
     0-0-0/w STRC(108)         1 CODED_MOVE                 0-0-0/w STRC(288)         1 COMPUTE_STMT
     0-0-0/w STRC(72)          1 CONT                       0-0-0/w STRC(288)         1 DEFERED_IDENTIFIER
     0-0-0/w STRC(252)         1 DEFERED_ID_TREE            0-0-0/w STRC(288)         1 DEFERED_QUAL_ID
     0-0-0/w STRC(288)         1 DEFERED_SUM_CLAUSE
     0-0-0/w STRC(288)         1 DEFERED_SUM_CLAUSE_LIST
     0-0-0/w STRC(144)         1 DEFLB                      0-0-0/w STRC(288)         1 DELETE_STMT
     0-0-0/w STRC(288)         1 DIVIDE_STMT                0-0-0/w STRC(144)         1 DOEND
     0-0-0/w STRC(396)         1 DO_N                       0-0-0/w STRC(180)         1 DV4I
     0-0-0/w STRC(180)         1 ENTRY_ILL                  0-0-0/w STRC(108)         1 EVALU
     0-0-0/w STRC(144)         1 GO                         0-0-0/w STRC(180)         1 ILL
     0-0-0/w STRC              1 ILL_NO_OPS                 0-0-0/w STRC(288)         1 ILS_LIST
     0-0-0/w STRC(288)         1 INSPECT_1_STMT             0-0-0/w STRC(288)         1 INSPECT_2_STMT
     0-0-0/w STRC(288)         1 INSPECT_4_STMT             0-0-0/w STRC(288)         1 LA_ITEM
     0-0-0/w STRC(108)         1 LINOI                      0-0-0/w STRC(504)         1 LX_CD_INPUT
     0-0-0/w STRC(324)         1 LX_CD_I_O                  0-0-0/w STRC(396)         1 LX_CD_OUTPUT
     0-0-0/w STRC(288)         1 LX_ETT_ITEM                0-0-0/w STRC(288)         1 LX_ITEM
     0-0-0/w STRC(288)         1 LX_LARGE                   0-0-0/w STRC(288)         1 LX_LIST
     0-0-0/w STRC(1224)        1 LX_REC_DECL                0-0-0/w STRC(864)         1 LX_REPORT_REC
     0-0-0/w STRC(288)         1 LX_TERMINAL                0-0-0/w STRC(72)          1 MFILL
     0-0-0/w STRC(288)         1 MULTIPLY_STMT              0-0-0/w STRC(180)         1 MULTI_GO
     0-0-0/w STRC(180)         1 MVEAL                      0-0-0/w STRC(108)         1 MVFIL
     0-0-0/w STRC(72)          1 MVIIS                      0-0-0/w STRC(180)         1 OS_CALL
     0-0-0/w STRC(36864)       1 PAGE                       0-0-0/w STRC(216)         1 PFORM
     0-0-0/w STRC(144)         1 PINC                       0-0-0/w STRC(144)         1 PREOFF
     0-0-0/w STRC(108)         1 PRESET                     0-0-0/w STRC(144)         1 P_A_PRESET
     0-0-0/w STRC(144)         1 P_P_PRESET                 0-0-0/w STRC(288)         1 READ_STMT
     0-0-0/w STRC(144)         1 REMEM                      0-0-0/w STRC(288)         1 REWRITE_STMT
     0-0-0/w STRC(144)         1 SCOPE                      0-0-0/w STRC(216)         1 SEARCH_
PL6.E3A0      #003=Z9EB$BUILD_CODE File=Z9EB.:Z8A6TSI                            SAT 08/09/97 13:47 Page:196
     0-0-0/w STRC(288)         1 START_STMT                 0-0-0/w STRC(72)          1 STP2
     0-0-0/w STRC(252)         1 STRING_STMT                0-0-0/w STRC(288)         1 SUBTRACT_STMT
     0-0-0/w STRC(144)         1 TRINARY_ILL                0-0-0/w STRC(72)          1 UNARY_ILL
     0-0-0/w STRC(288)         1 UNARY_OP                   0-0-0/w STRC(288)         1 UNSTRING_STMT
     0-0-0/w STRC(216)   r     1 USER_CALL                  0-0-0/w STRC(108)         1 VAL
     0-0-0/w STRC(108)         1 VAL_END                    0-0-0/w STRC(72)          1 WHEN
     0-0-0/w STRC(288)         1 WRITE_STMT


   Procedure Z9EB$BUILD_CODE requires 55 words for executable code.
   Procedure Z9EB$BUILD_CODE requires 16 words of local(AUTO) storage.

PL6.E3A0      #004=Z9EB$BUILD_RVA_TABLE File=Z9EB.:Z8A6TSI                       SAT 08/09/97 13:48 Page:197
     1087        1        /*T***********************************************************/
     1088        2        /*T*                                                         */
     1089        3        /*T* Copyright (c) Bull HN Information Systems Inc., 1997    */
     1090        4        /*T*                                                         */
     1091        5        /*T***********************************************************/
     1092        6        /*================*/
     1093        7          Z9EB$BUILD_RVA_TABLE :  PROC  ( ITEM$ , RVA_TYPE);
     1094        8        /*================*/
     1095        9        /*F*
     1096       10             NAME: Z9EB$BUILD_RVA_TABLE
     1097       11             PURPOSE:
     1098       12                   Build RVA table entries
     1099       13                   Build RVA table entries
     1100       14             DESCRIPTION:
     1101       15                   Table entries are built depending on the type of item.
     1102       16                   The RVA word has a type field and a name field which is
     1103       17                   the offset into the user work area or the internal name.
     1104       18        */
     1105       19        /*D*
     1106       20             NAME: Z9EB$BUILD_RVA_TABLE
     1107       21             CALL:
     1108       22                   CALL Z9EB$BUILD_RVA_TABLE ( ITEM$, RVA_TYPE );
     1109       23             PARAMETERS:
     1110       24                    ITEM$  -  symbol tabel pointer to item
     1111       25                    RVA_TYPE  - type of item: null, set, realm, record, or field
     1112       26             ENVIRONMENT:
     1113       27                  None.
     1114       28             INPUT:
     1115       29                     ITEM$
     1116       30                     RVA_TYPE
     1117       31             OUTPUT:
     1118       32                  None.
     1119       33             SCRATCH:
     1120       34                  None.
     1121       35             DESCRIPTION:
     1122       36                    BUILD_RVA_TABLE sets up the RVA word and preoffs it into
     1123       37                    the table.  It also builds a LTS item for the item and
PL6.E3A0      #004=Z9EB$BUILD_RVA_TABLE File=Z9EB.:Z8A6TSI                       SAT 08/09/97 13:48 Page:198
     1124       38                    stores the entries offset there.  This is used later when
     1125       39                    the parameter is built.
     1126       40        */
     1127       41    1       DCL ITEM$       PTR;
     1128       42    1       DCL RVA_TYPE    UBIN(18);
     1129       43    1       DCL OFFSET      SBIN;
     1130       44
     1131       45    1       DCL RVA_WORD     SBIN WORD;
     1132       46    1       DCL 1 RVA_ENTRY  REDEF RVA_WORD,
     1133       47    1             2 TYPE    UBIN(18) UNAL,
     1134       48    1             2 NAME    UBIN(18) UNAL;
     1135       49
     1136       50
     1137       51    1       DCL Z8AE$ERROR    ENTRY(12);
     1138       52
     1139       53            %EQU PHASE = 1;
     1140       54            %INCLUDE Z8A_DEFC;
     1141      122            %INCLUDE Z8A_SUPP_MAC;
     1142     2522            %INCLUDE Z8E_STACKS;
     1143     4788            %INCLUDE Z8E_MACROS;
     1144     5463            %INCLUDE Z8A_COMCOM;
     1145     6113            %INCLUDE Z8E_O1COM;
     1146     6874            %INCLUDE Z8A_ST;
     1147    10533            %INCLUDE Z8A_LTS;
     1148    12610            %INCLUDE Z8A_TYPES;
     1149    12784            %INCLUDE Z8A_ILL;
     1150    13477            %INCLUDE Z8E_DML;
     1151    13597            %INCLUDE Z8A_ERR_NUMS;
     1152    14361        %EJECT;
PL6.E3A0      #004=Z9EB$BUILD_RVA_TABLE File=Z9EB.:Z8A6TSI                       SAT 08/09/97 13:48 Page:199
     1153    14362    1       RVA_ENTRY.TYPE = RVA_TYPE;
     1154    14363    2       DO CASE( RVA_TYPE );
     1155    14364
     1156    14365    2           CASE(%RVA_NULL);
     1157    14366    2               RVA_ENTRY.NAME = 0;
     1158    14367    2               O1COM.NILL_RVA = %TRUE;
     1159    14368
     1160    14369    2           CASE(%RVA_SET, %RVA_REALM);
     1161    14370    2               RVA_ENTRY.NAME = ITEM$ -> DML_ITEM.INTERNAL_NAME;
     1162    14371    2               ITEM$ -> DML_ITEM.B.DML_RVA = %TRUE;
     1163    14372
     1164    14373    2           CASE(%RVA_RECORD, %RVA_FIELD );
     1165    14374    2               IF NOT ITEM$ -> SCALAR.B.DML_UWA  THEN       /*#33404*/
     1166    14375    2                 CALL Z8AE$ERROR(%E$ITEM_NOT_IN_SCHEMA,
     1167    14376    2                                 COMCOM.CURRENT.LINE);
     1168    14377    2               ELSE
     1169    14378    2                 ITEM$ -> SCALAR.B.DML_RVA = %TRUE;
     1170    14379
     1171    14380    2               RVA_ENTRY.NAME = ITEM$ -> SCALAR.SA * 8;   /*V*  WORD TO HALF BYTE   */
     1172    14381    3               DO CASE ( ITEM$ -> SCALAR.TYPE );
     1173    14382
     1174    14383    3                   CASE (%TYD);
     1175    14384    3                     IF ITEM$ -> SCALAR.NDSC.TN = '1'B  THEN
     1176    14385    3                       RVA_ENTRY.NAME = RVA_ENTRY.NAME + ITEM$ -> SCALAR.NDSC.CN;
     1177    14386    3                     ELSE
     1178    14387    3                       RVA_ENTRY.NAME = RVA_ENTRY.NAME + (ITEM$ -> SCALAR.ADSC.CN * 2);
     1179    14388
     1180    14389    3                   CASE (%TYA);
     1181    14390    3                       RVA_ENTRY.NAME = RVA_ENTRY.NAME + (ITEM$ -> SCALAR.ADSC.CN * 2);
     1182    14391
     1183    14392    3                   CASE (ELSE);
     1184    14393    3                       RVA_ENTRY.NAME = RVA_ENTRY.NAME + (ITEM$ -> SCALAR.ADSC.CN * 2);
     1185    14394
     1186    14395    3               END;     /*V*     CASE ITEM$ -> SCALAR.TYPE    */
     1187    14396
     1188    14397    2       END;             /*V*     CASE  TYPE                 */
     1189    14398
PL6.E3A0      #004=Z9EB$BUILD_RVA_TABLE File=Z9EB.:Z8A6TSI                       SAT 08/09/97 13:48 Page:200
     1190    14399    1       O1COM.RVA_NUMBER = O1COM.RVA_NUMBER + 1;
     1191    14400            %NEW_CONST ( @ST$ = ST$);
     1192    14441    1       ST$ -> CONST.CONSTI.WORD1 = RVA_WORD;
     1193    14442            %NEW_ILL( @ID   = %PREOFF,
     1194    14443                      @LOP  = O1COM.RVA$,
     1195    14444                      @ROP  = ST$,
     1196    14445                      @N    = 1,
     1197    14446                      @OFFSET = O1COM.RVA_NUMBER);
     1198    14825    1       OFFSET = O1COM.RVA_NUMBER;
     1199    14826            %NEW_RVA_LTS(@ST$ = ITEM$, @OFFSET = OFFSET);
     1200    14919
     1201    14920    1     END Z9EB$BUILD_RVA_TABLE;
     1202    14921        %EOD;

PL6.E3A0      #004=Z9EB$BUILD_RVA_TABLE File=Z9EB.:Z8A6TSI                       SAT 08/09/97 13:48 Page:201
--  Include file information  --

   Z8A_ERR_NUMS.:Z8A6TOU  is referenced.
   Z8E_DML.:Z8A6TOU  is referenced.
   Z8A_ILL.:Z8A6TOU  cannot be made into a system file and is referenced.
   Z8A_TYPES.:Z8A6TOU  is referenced.
   Z8A_LTS.:Z8A6TOU  cannot be made into a system file and is referenced.
   Z8A_ST.:Z8A6TOU  cannot be made into a system file and is referenced.
   Z8E_O1COM.:Z8A6TOU  cannot be made into a system file and is referenced.
   Z8A_COMCOM.:Z8A6TOU  cannot be made into a system file and is referenced.
   Z8E_NEW_ILL.:Z8A6TOU  is referenced.
   Z8E_MACROS.:Z8A6TOU  cannot be made into a system file and is referenced.
   Z8A_LEX_SYMB.:Z8A6TOU  cannot be made into a system file and is referenced.
   Z8E_STACKS.:Z8A6TOU  cannot be made into a system file and is referenced.
   X8A_COM_MACS.:X8A6TOU  is referenced.
   Z8A_NAMES.:Z8A6TOU  is referenced.
   Z8A_SUPP_MAC.:Z8A6TOU  is referenced.
   Z8A_DEFC.:Z8A6TOU  cannot be made into a system file and is referenced.
      No diagnostics issued in procedure Z9EB$BUILD_RVA_TABLE.

   Procedure Z9EB$BUILD_RVA_TABLE requires 200 words for executable code.
   Procedure Z9EB$BUILD_RVA_TABLE requires 14 words of local(AUTO) storage.

PL6.E3A0      #004=Z9EB$BUILD_RVA_TABLE File=Z9EB.:Z8A6TSI                       SAT 08/09/97 13:48 Page:202

 Object Unit name= Z9EB$BUILD_RVA_TABLE                       File name= Z9EB.:Z8A6TOU
 UTS= AUG 09 '97 13:48:29.80 SAT                              Compiler= PL-6/E31         Sev=      00
 SharedLib= :SHARED_SYSTEM                                    Alt SharedLib=


    ****  Control sections  ****

 Sect   Type Bound  Init  Size OctSiz  Section name(segment info)
    0  LblCom even  none     1      1  ITERATION
    1  LblCom even  none    90    132  LEX_SYMBOL
    2  LblCom even  none     1      1  CURRENT_LEX_SYMBOL$
    3  LblCom even  none    90    132  TEMP_LEX_SYMBOL
    4  LblCom even  none    90    132  TEMP_LEX_SYMBOL2
    5  LblCom even  none     1      1  ST$
    6  LblCom even  none     5      5  ST_
    7  LblCom even  none     1      1  LTS$
    8  LblCom even  none     5      5  LTS_
    9  LblCom even  none     1      1  ILL$
   10  LblCom even  none     5      5  ILL_
   11   Proc  even  none   200    310  Z9EB$BUILD_RVA_TABLE
   12  RoData even  none    18     22  Z9EB$BUILD_RVA_TABLE

    ****  Entry defs  ****

                              Check   Calling
                             calling  sequence
  Sect OctLoc Primary Altret sequence   type   Parms  Name
    11      0   yes            yes      Std        2  Z9EB$BUILD_RVA_TABLE
PL6.E3A0      #004=Z9EB$BUILD_RVA_TABLE File=Z9EB.:Z8A6TSI                       SAT 08/09/97 13:48 Page:203

  ****  Entry refs  ****

         Check        Calling
        calling       sequence
Altret sequence SRef   type   Args  Name
         yes           Std      12 Z8AE$ERROR
         yes           Std       1 Z8AR$RESERVER
         yes           Std       4 Z8AN$NEW_ILL
                       nStd      0 X66_AUTO_2
                       nStd      0 X66_ARET

  ****  Data refs  ****

  Flags:  r = read only, s = secondary
Flgs Name                             Flgs Name                             Flgs Name
     COMCOM                                O1COM                                 HIER_STK_PTR
     HIER_STK                              PAGE_FORMAT                           REP_STK_PTR
     REP_STK                          r    LTS_STEP                         r    ILL_STEP

  ****  Segment refs  ****

  Flags:  r = read only, s = secondary
Flgs Name                             Flgs Name                             Flgs Name
     ISSID                                 NULLSID
PL6.E3A0      #004=Z9EB$BUILD_RVA_TABLE File=Z9EB.:Z8A6TSI                       SAT 08/09/97 13:48 Page:204


     1087        1        /*T***********************************************************/
     1088        2        /*T*                                                         */
     1089        3        /*T* Copyright (c) Bull HN Information Systems Inc., 1997    */
     1090        4        /*T*                                                         */
     1091        5        /*T***********************************************************/
     1092        6        /*================*/
     1093        7          Z9EB$BUILD_RVA_TABLE :  PROC  ( ITEM$ , RVA_TYPE);

      7 11 000000   000000 700200 xent  Z9EB$BUILD_* TSX0  ! X66_AUTO_2
        11 000001   000016 000002                    ZERO    14,2

     1094        8        /*================*/
     1095        9        /*F*
     1096       10             NAME: Z9EB$BUILD_RVA_TABLE
     1097       11             PURPOSE:
     1098       12                   Build RVA table entries
     1099       13                   Build RVA table entries
     1100       14             DESCRIPTION:
     1101       15                   Table entries are built depending on the type of item.
     1102       16                   The RVA word has a type field and a name field which is
     1103       17                   the offset into the user work area or the internal name.
     1104       18        */
     1105       19        /*D*
     1106       20             NAME: Z9EB$BUILD_RVA_TABLE
     1107       21             CALL:
     1108       22                   CALL Z9EB$BUILD_RVA_TABLE ( ITEM$, RVA_TYPE );
     1109       23             PARAMETERS:
     1110       24                    ITEM$  -  symbol tabel pointer to item
     1111       25                    RVA_TYPE  - type of item: null, set, realm, record, or field
     1112       26             ENVIRONMENT:
     1113       27                  None.
     1114       28             INPUT:
     1115       29                     ITEM$
     1116       30                     RVA_TYPE
     1117       31             OUTPUT:
     1118       32                  None.
PL6.E3A0      #004=Z9EB$BUILD_RVA_TABLE File=Z9EB.:Z8A6TSI                       SAT 08/09/97 13:48 Page:205
     1119       33             SCRATCH:
     1120       34                  None.
     1121       35             DESCRIPTION:
     1122       36                    BUILD_RVA_TABLE sets up the RVA word and preoffs it into
     1123       37                    the table.  It also builds a LTS item for the item and
     1124       38                    stores the entries offset there.  This is used later when
     1125       39                    the parameter is built.
     1126       40        */
     1127       41    1       DCL ITEM$       PTR;
     1128       42    1       DCL RVA_TYPE    UBIN(18);
     1129       43    1       DCL OFFSET      SBIN;
     1130       44
     1131       45    1       DCL RVA_WORD     SBIN WORD;
     1132       46    1       DCL 1 RVA_ENTRY  REDEF RVA_WORD,
     1133       47    1             2 TYPE    UBIN(18) UNAL,
     1134       48    1             2 NAME    UBIN(18) UNAL;
     1135       49
     1136       50
     1137       51    1       DCL Z8AE$ERROR    ENTRY(12);
     1138       52
     1139       53            %EQU PHASE = 1;
     1140       54            %INCLUDE Z8A_DEFC;
     1141      122            %INCLUDE Z8A_SUPP_MAC;
     1142     2522            %INCLUDE Z8E_STACKS;
     1143     4788            %INCLUDE Z8E_MACROS;
     1144     5463            %INCLUDE Z8A_COMCOM;
     1145     6113            %INCLUDE Z8E_O1COM;
     1146     6874            %INCLUDE Z8A_ST;
     1147    10533            %INCLUDE Z8A_LTS;
     1148    12610            %INCLUDE Z8A_TYPES;
     1149    12784            %INCLUDE Z8A_ILL;
     1150    13477            %INCLUDE Z8E_DML;
     1151    13597            %INCLUDE Z8A_ERR_NUMS;
     1152    14361        %EJECT;
PL6.E3A0      #004=Z9EB$BUILD_RVA_TABLE File=Z9EB.:Z8A6TSI                       SAT 08/09/97 13:48 Page:206
     1153    14362    1       RVA_ENTRY.TYPE = RVA_TYPE;

  14362 11 000002   200004 470500                    LDP0    @RVA_TYPE,,AUTO
        11 000003   000000 220100                    LDX0    0,,PR0
        11 000004   200006 740100                    STX0    RVA_WORD,,AUTO

     1154    14363    2       DO CASE( RVA_TYPE );

  14363 11 000005   000005 100003                    CMPX0   5,DU
        11 000006   000010 602010 11                 TNC     s:14363+3,X0
        11 000007   000143 710000 11                 TRA     s:14399
        11 000010   000022 710000 11                 TRA     s:14370
        11 000011   000022 710000 11                 TRA     s:14370
        11 000012   000031 710000 11                 TRA     s:14374
        11 000013   000031 710000 11                 TRA     s:14374
        11 000014   000015 710000 11                 TRA     s:14366

     1155    14364
     1156    14365    2           CASE(%RVA_NULL);

     1157    14366    2               RVA_ENTRY.NAME = 0;

  14366 11 000015   000000 221003                    LDX1    0,DU
        11 000016   200006 441100                    SXL1    RVA_WORD,,AUTO

     1158    14367    2               O1COM.NILL_RVA = %TRUE;

  14367 11 000017   400000 236003                    LDQ     -131072,DU
        11 000020   000105 756000 xsym               STQ     O1COM+69
        11 000021   000143 710000 11                 TRA     s:14399

     1159    14368
     1160    14369    2           CASE(%RVA_SET, %RVA_REALM);

     1161    14370    2               RVA_ENTRY.NAME = ITEM$ -> DML_ITEM.INTERNAL_NAME;

  14370 11 000022   200003 471500                    LDP1    @ITEM$,,AUTO
PL6.E3A0      #004=Z9EB$BUILD_RVA_TABLE File=Z9EB.:Z8A6TSI                       SAT 08/09/97 13:48 Page:207
        11 000023   100000 473500                    LDP3    0,,PR1
        11 000024   300001 721100                    LXL1    1,,PR3
        11 000025   200006 441100                    SXL1    RVA_WORD,,AUTO

     1162    14371    2               ITEM$ -> DML_ITEM.B.DML_RVA = %TRUE;

  14371 11 000026   002000 236007                    LDQ     1024,DL
        11 000027   300003 256100                    ORSQ    3,,PR3
        11 000030   000143 710000 11                 TRA     s:14399

     1163    14372
     1164    14373    2           CASE(%RVA_RECORD, %RVA_FIELD );

     1165    14374    2               IF NOT ITEM$ -> SCALAR.B.DML_UWA  THEN       /*#33404*/

  14374 11 000031   200003 471500                    LDP1    @ITEM$,,AUTO
        11 000032   100000 473500                    LDP3    0,,PR1
        11 000033   300003 236100                    LDQ     3,,PR3
        11 000034   200000 316007                    CANQ    65536,DL
        11 000035   000043 601000 11                 TNZ     s:14378

     1166    14375    2                 CALL Z8AE$ERROR(%E$ITEM_NOT_IN_SCHEMA,

  14375 11 000036   000002 630400 12                 EPPR0   2
        11 000037   000000 631400 12                 EPPR1   0
        11 000040   000000 701000 xent               TSX1    Z8AE$ERROR
        11 000041   000000 011000                    NOP     0
        11 000042   000045 710000 11                 TRA     s:14380

     1167    14376    2                                 COMCOM.CURRENT.LINE);
     1168    14377    2               ELSE
     1169    14378    2                 ITEM$ -> SCALAR.B.DML_RVA = %TRUE;

  14378 11 000043   002000 236007                    LDQ     1024,DL
        11 000044   300003 256100                    ORSQ    3,,PR3

     1170    14379
PL6.E3A0      #004=Z9EB$BUILD_RVA_TABLE File=Z9EB.:Z8A6TSI                       SAT 08/09/97 13:48 Page:208
     1171    14380    2               RVA_ENTRY.NAME = ITEM$ -> SCALAR.SA * 8;   /*V*  WORD TO HALF BYTE   */

  14380 11 000045   200003 470500                    LDP0    @ITEM$,,AUTO
        11 000046   000000 471500                    LDP1    0,,PR0
        11 000047   100001 236100                    LDQ     1,,PR1
        11 000050   000017 772000                    QRL     15
        11 000051   000004 376000 12                 ANQ     4
        11 000052   000000 620006                    EAX0    0,QL
        11 000053   200006 440100                    SXL0    RVA_WORD,,AUTO

     1172    14381    3               DO CASE ( ITEM$ -> SCALAR.TYPE );

  14381 11 000054   100002 221100                    LDX1    2,,PR1
        11 000055   000011 101003                    CMPX1   9,DU
        11 000056   000060 602011 11                 TNC     s:14381+4,X1
        11 000057   000132 710000 11                 TRA     s:14393
        11 000060   000071 710000 11                 TRA     s:14384
        11 000061   000132 710000 11                 TRA     s:14393
        11 000062   000132 710000 11                 TRA     s:14393
        11 000063   000132 710000 11                 TRA     s:14393
        11 000064   000132 710000 11                 TRA     s:14393
        11 000065   000132 710000 11                 TRA     s:14393
        11 000066   000132 710000 11                 TRA     s:14393
        11 000067   000132 710000 11                 TRA     s:14393
        11 000070   000120 710000 11                 TRA     s:14390

     1173    14382
     1174    14383    3                   CASE (%TYD);

     1175    14384    3                     IF ITEM$ -> SCALAR.NDSC.TN = '1'B  THEN

  14384 11 000071   100001 236100                    LDQ     1,,PR1
        11 000072   040000 316007                    CANQ    16384,DL
        11 000073   000106 600000 11                 TZE     s:14387

     1176    14385    3                       RVA_ENTRY.NAME = RVA_ENTRY.NAME + ITEM$ -> SCALAR.NDSC.CN;

PL6.E3A0      #004=Z9EB$BUILD_RVA_TABLE File=Z9EB.:Z8A6TSI                       SAT 08/09/97 13:48 Page:209
  14385 11 000074   100001 236100                    LDQ     1,,PR1
        11 000075   000017 772000                    QRL     15
        11 000076   000007 376007                    ANQ     7,DL
        11 000077   200010 756100                    STQ     RVA_WORD+2,,AUTO
        11 000100   200006 236100                    LDQ     RVA_WORD,,AUTO
        11 000101   777777 376007                    ANQ     -1,DL
        11 000102   200010 036100                    ADLQ    RVA_WORD+2,,AUTO
        11 000103   000000 621006                    EAX1    0,QL
        11 000104   200006 441100                    SXL1    RVA_WORD,,AUTO
        11 000105   000143 710000 11                 TRA     s:14399

     1177    14386    3                     ELSE
     1178    14387    3                      RVA_ENTRY.NAME = RVA_ENTRY.NAME + (ITEM$ -> SCALAR.ADSC.CN * 2);

  14387 11 000106   200006 236100                    LDQ     RVA_WORD,,AUTO
        11 000107   777777 376007                    ANQ     -1,DL
        11 000110   200010 756100                    STQ     RVA_WORD+2,,AUTO
        11 000111   100001 236100                    LDQ     1,,PR1
        11 000112   000017 772000                    QRL     15
        11 000113   000006 376007                    ANQ     6,DL
        11 000114   200010 036100                    ADLQ    RVA_WORD+2,,AUTO
        11 000115   000000 621006                    EAX1    0,QL
        11 000116   200006 441100                    SXL1    RVA_WORD,,AUTO
        11 000117   000143 710000 11                 TRA     s:14399

     1179    14388
     1180    14389    3                   CASE (%TYA);

     1181    14390    3                      RVA_ENTRY.NAME = RVA_ENTRY.NAME + (ITEM$ -> SCALAR.ADSC.CN * 2);

  14390 11 000120   200006 236100                    LDQ     RVA_WORD,,AUTO
        11 000121   777777 376007                    ANQ     -1,DL
        11 000122   200010 756100                    STQ     RVA_WORD+2,,AUTO
        11 000123   100001 236100                    LDQ     1,,PR1
        11 000124   000017 772000                    QRL     15
        11 000125   000006 376007                    ANQ     6,DL
        11 000126   200010 036100                    ADLQ    RVA_WORD+2,,AUTO
PL6.E3A0      #004=Z9EB$BUILD_RVA_TABLE File=Z9EB.:Z8A6TSI                       SAT 08/09/97 13:48 Page:210
        11 000127   000000 621006                    EAX1    0,QL
        11 000130   200006 441100                    SXL1    RVA_WORD,,AUTO
        11 000131   000143 710000 11                 TRA     s:14399

     1182    14391
     1183    14392    3                   CASE (ELSE);

     1184    14393    3                      RVA_ENTRY.NAME = RVA_ENTRY.NAME + (ITEM$ -> SCALAR.ADSC.CN * 2);

  14393 11 000132   200006 236100                    LDQ     RVA_WORD,,AUTO
        11 000133   777777 376007                    ANQ     -1,DL
        11 000134   200010 756100                    STQ     RVA_WORD+2,,AUTO
        11 000135   100001 236100                    LDQ     1,,PR1
        11 000136   000017 772000                    QRL     15
        11 000137   000006 376007                    ANQ     6,DL
        11 000140   200010 036100                    ADLQ    RVA_WORD+2,,AUTO
        11 000141   000000 621006                    EAX1    0,QL
        11 000142   200006 441100                    SXL1    RVA_WORD,,AUTO

     1185    14394
     1186    14395    3               END;     /*V*     CASE ITEM$ -> SCALAR.TYPE    */

     1187    14396
     1188    14397    2       END;             /*V*     CASE  TYPE                 */

     1189    14398
     1190    14399    1       O1COM.RVA_NUMBER = O1COM.RVA_NUMBER + 1;

  14399 11 000143   000072 220000 xsym               LDX0    O1COM+58
        11 000144   000001 621010                    EAX1    1,X0
        11 000145   000072 741000 xsym               STX1    O1COM+58

     1191    14400            %NEW_CONST ( @ST$ = ST$);

  14404 11 000146   000002 236000 6                  LDQ     ST_+2
        11 000147   000013 036007                    ADLQ    11,DL
        11 000150   000003 116000 6                  CMPQ    ST_+3
PL6.E3A0      #004=Z9EB$BUILD_RVA_TABLE File=Z9EB.:Z8A6TSI                       SAT 08/09/97 13:48 Page:211
        11 000151   000162 604000 11                 TMI     s:14406

  14405 11 000152   000007 236000 12                 LDQ     7
        11 000153   200010 756100                    STQ     RVA_WORD+2,,AUTO
        11 000154   200010 630500                    EPPR0   RVA_WORD+2,,AUTO
        11 000155   200011 450500                    STP0    RVA_WORD+3,,AUTO
        11 000156   200011 630500                    EPPR0   RVA_WORD+3,,AUTO
        11 000157   000006 631400 12                 EPPR1   6
        11 000160   000000 701000 xent               TSX1    Z8AR$RESERVER
        11 000161   000000 011000                    NOP     0

  14406 11 000162   000002 236000 6                  LDQ     ST_+2
        11 000163   000022 736000                    QLS     18
        11 000164   000001 036000 6                  ADLQ    ST_+1
        11 000165   000000 756000 5                  STQ     ST$

  14407 11 000166   000013 236007                    LDQ     11,DL
        11 000167   000002 056000 6                  ASQ     ST_+2

  14410 11 000170   000767 220003                    LDX0    503,DU
        11 000171   000000 470400 5                  LDP0    ST$
        11 000172   000000 740100                    STX0    0,,PR0

  14411 11 000173   000000 470400 5                  LDP0    ST$
        11 000174   001000 236007                    LDQ     512,DL
        11 000175   000000 552110                    STBQ    0,'10'O,PR0

  14412 11 000176   000000 470400 5                  LDP0    ST$
        11 000177   000126 236000 xsym               LDQ     O1COM+86
        11 000200   000000 552104                    STBQ    0,'04'O,PR0

  14413 11 000201   000001 221003                    LDX1    1,DU
        11 000202   000000 470400 5                  LDP0    ST$
        11 000203   000002 741100                    STX1    2,,PR0

  14414 11 000204   000003 450100                    STZ     3,,PR0

PL6.E3A0      #004=Z9EB$BUILD_RVA_TABLE File=Z9EB.:Z8A6TSI                       SAT 08/09/97 13:48 Page:212
  14415 11 000205   000005 236000 12                 LDQ     5
        11 000206   000004 756100                    STQ     4,,PR0

  14416 11 000207   000005 236000 12                 LDQ     5
        11 000210   000005 756100                    STQ     5,,PR0

  14417 11 000211   000005 236000 12                 LDQ     5
        11 000212   000006 756100                    STQ     6,,PR0

     1192    14441    1       ST$ -> CONST.CONSTI.WORD1 = RVA_WORD;

  14441 11 000213   200006 235100                    LDA     RVA_WORD,,AUTO
        11 000214   000010 755100                    STA     8,,PR0

     1193    14442            %NEW_ILL( @ID   = %PREOFF,
     1194    14443                      @LOP  = O1COM.RVA$,
     1195    14444                      @ROP  = ST$,
     1196    14445                      @N    = 1,
     1197    14446                      @OFFSET = O1COM.RVA_NUMBER);

  14675 11 000215   000013 236000 12                 LDQ     11
        11 000216   200010 756100                    STQ     RVA_WORD+2,,AUTO
        11 000217   200010 631500                    EPPR1   RVA_WORD+2,,AUTO
        11 000220   200015 451500                    STP1    RVA_WORD+7,,AUTO
        11 000221   000014 236000 12                 LDQ     12
        11 000222   200014 756100                    STQ     RVA_WORD+6,,AUTO
        11 000223   000016 237000 12                 LDAQ    14
        11 000224   200012 757100                    STAQ    RVA_WORD+4,,AUTO
        11 000225   200012 630500                    EPPR0   RVA_WORD+4,,AUTO
        11 000226   000010 631400 12                 EPPR1   8
        11 000227   000000 701000 xent               TSX1    Z8AN$NEW_ILL
        11 000230   000000 011000                    NOP     0

  14679 11 000231   000072 220000 xsym               LDX0    O1COM+58
        11 000232   000000 470400 9                  LDP0    ILL$
        11 000233   000000 440100                    SXL0    0,,PR0

PL6.E3A0      #004=Z9EB$BUILD_RVA_TABLE File=Z9EB.:Z8A6TSI                       SAT 08/09/97 13:48 Page:213
  14684 11 000234   000001 235007                    LDA     1,DL
        11 000235   000000 470400 9                  LDP0    ILL$
        11 000236   000003 755100                    STA     3,,PR0

  14686 11 000237   000075 236000 xsym               LDQ     O1COM+61
        11 000240   000001 756100                    STQ     1,,PR0

  14687 11 000241   000000 236000 5                  LDQ     ST$
        11 000242   000002 756100                    STQ     2,,PR0

     1198    14825    1       OFFSET = O1COM.RVA_NUMBER;

  14825 11 000243   000072 235000 xsym               LDA     O1COM+58
        11 000244   000022 771000                    ARL     18
        11 000245   200005 755100                    STA     OFFSET,,AUTO

     1199    14826            %NEW_RVA_LTS(@ST$ = ITEM$, @OFFSET = OFFSET);

  14903 11 000246   000002 236000 8                  LDQ     LTS_+2
        11 000247   000004 036007                    ADLQ    4,DL
        11 000250   000003 116000 8                  CMPQ    LTS_+3
        11 000251   000262 604000 11                 TMI     s:14905

  14904 11 000252   000020 236000 12                 LDQ     16
        11 000253   200010 756100                    STQ     RVA_WORD+2,,AUTO
        11 000254   200010 631500                    EPPR1   RVA_WORD+2,,AUTO
        11 000255   200011 451500                    STP1    RVA_WORD+3,,AUTO
        11 000256   200011 630500                    EPPR0   RVA_WORD+3,,AUTO
        11 000257   000006 631400 12                 EPPR1   6
        11 000260   000000 701000 xent               TSX1    Z8AR$RESERVER
        11 000261   000000 011000                    NOP     0

  14905 11 000262   000002 236000 8                  LDQ     LTS_+2
        11 000263   000022 736000                    QLS     18
        11 000264   000001 036000 8                  ADLQ    LTS_+1
        11 000265   000000 756000 7                  STQ     LTS$

PL6.E3A0      #004=Z9EB$BUILD_RVA_TABLE File=Z9EB.:Z8A6TSI                       SAT 08/09/97 13:48 Page:214
  14906 11 000266   000004 236007                    LDQ     4,DL
        11 000267   000002 056000 8                  ASQ     LTS_+2

  14907 11 000270   001075 220003                    LDX0    573,DU
        11 000271   000000 470400 7                  LDP0    LTS$
        11 000272   000000 740100                    STX0    0,,PR0

  14913 11 000273   200003 470500                    LDP0    @ITEM$,,AUTO
        11 000274   000000 236100                    LDQ     0,,PR0
        11 000275   000000 471400 7                  LDP1    LTS$
        11 000276   100001 756100                    STQ     1,,PR1

  14914 11 000277   000074 236000 xsym               LDQ     O1COM+60
        11 000300   100002 756100                    STQ     2,,PR1

  14915 11 000301   000000 236000 7                  LDQ     LTS$
        11 000302   000074 756000 xsym               STQ     O1COM+60

  14916 11 000303   000021 236000 12                 LDQ     17
        11 000304   100003 356100                    ANSQ    3,,PR1

  14917 11 000305   200005 721100                    LXL1    OFFSET,,AUTO
        11 000306   100003 741100                    STX1    3,,PR1

     1200    14919
     1201    14920    1     END Z9EB$BUILD_RVA_TABLE;

  14920 11 000307   000000 702200 xent               TSX2  ! X66_ARET
     1202    14921        %EOD;

PL6.E3A0      #004=Z9EB$BUILD_RVA_TABLE File=Z9EB.:Z8A6TSI                       SAT 08/09/97 13:48 Page:215
--  Include file information  --

   Z8A_ERR_NUMS.:Z8A6TOU  is referenced.
   Z8E_DML.:Z8A6TOU  is referenced.
   Z8A_ILL.:Z8A6TOU  cannot be made into a system file and is referenced.
   Z8A_TYPES.:Z8A6TOU  is referenced.
   Z8A_LTS.:Z8A6TOU  cannot be made into a system file and is referenced.
   Z8A_ST.:Z8A6TOU  cannot be made into a system file and is referenced.
   Z8E_O1COM.:Z8A6TOU  cannot be made into a system file and is referenced.
   Z8A_COMCOM.:Z8A6TOU  cannot be made into a system file and is referenced.
   Z8E_NEW_ILL.:Z8A6TOU  is referenced.
   Z8E_MACROS.:Z8A6TOU  cannot be made into a system file and is referenced.
   Z8A_LEX_SYMB.:Z8A6TOU  cannot be made into a system file and is referenced.
   Z8E_STACKS.:Z8A6TOU  cannot be made into a system file and is referenced.
   X8A_COM_MACS.:X8A6TOU  is referenced.
   Z8A_NAMES.:Z8A6TOU  is referenced.
   Z8A_SUPP_MAC.:Z8A6TOU  is referenced.
   Z8A_DEFC.:Z8A6TOU  cannot be made into a system file and is referenced.
      No diagnostics issued in procedure Z9EB$BUILD_RVA_TABLE.
PL6.E3A0      #004=Z9EB$BUILD_RVA_TABLE File=Z9EB.:Z8A6TSI                       SAT 08/09/97 13:48 Page:216

 **** Variables and constants ****

  ****  Section 000 LblCom ITERATION

  ****  Scalars and arrays  ****
OctLoc.c.b A Datatyp(siz) R M Lvl/name                 OctLoc.c.b A Datatyp(siz) R M Lvl/name

     0-0-0/w SBIN              1 ITERATION

  ****  Section 001 LblCom LEX_SYMBOL

  ****  Scalars and arrays  ****
OctLoc.c.b A Datatyp(siz) R M Lvl/name                 OctLoc.c.b A Datatyp(siz) R M Lvl/name

     0-0-0/w STRC(3240)  r     1 LEX_SYMBOL                 0-0-0/w STRC(3240)        1 LEX_SYMBOL_WORDS

  ****  Section 002 LblCom CURRENT_LEX_SYMBOL$

  ****  Scalars and arrays  ****
OctLoc.c.b A Datatyp(siz) R M Lvl/name                 OctLoc.c.b A Datatyp(siz) R M Lvl/name

     0-0-0/w PTR         r     1 CURRENT_LEX_SYMBOL$

  ****  Section 003 LblCom TEMP_LEX_SYMBOL

  ****  Scalars and arrays  ****
OctLoc.c.b A Datatyp(siz) R M Lvl/name                 OctLoc.c.b A Datatyp(siz) R M Lvl/name

     0-0-0/w STRC(3240)        1 TEMP_LEX_SYMBOL

  ****  Section 004 LblCom TEMP_LEX_SYMBOL2

  ****  Scalars and arrays  ****
OctLoc.c.b A Datatyp(siz) R M Lvl/name                 OctLoc.c.b A Datatyp(siz) R M Lvl/name

     0-0-0/w STRC(3240)        1 TEMP_LEX_SYMBOL2

PL6.E3A0      #004=Z9EB$BUILD_RVA_TABLE File=Z9EB.:Z8A6TSI                       SAT 08/09/97 13:48 Page:217
  ****  Section 005 LblCom ST$

  ****  Scalars and arrays  ****
OctLoc.c.b A Datatyp(siz) R M Lvl/name                 OctLoc.c.b A Datatyp(siz) R M Lvl/name

     0-0-0/w PTR         r     1 ST$

  ****  Section 006 LblCom ST_

  ****  Scalars and arrays  ****
OctLoc.c.b A Datatyp(siz) R M Lvl/name                 OctLoc.c.b A Datatyp(siz) R M Lvl/name

     0-0-0/w STRC(180)   r     1 ST_

  ****  Section 007 LblCom LTS$

  ****  Scalars and arrays  ****
OctLoc.c.b A Datatyp(siz) R M Lvl/name                 OctLoc.c.b A Datatyp(siz) R M Lvl/name

     0-0-0/w PTR               1 LONG_ITEM$                 0-0-0/w PTR         r     1 LTS$

  ****  Section 008 LblCom LTS_

  ****  Scalars and arrays  ****
OctLoc.c.b A Datatyp(siz) R M Lvl/name                 OctLoc.c.b A Datatyp(siz) R M Lvl/name

     0-0-0/w STRC(180)   r     1 LTS_

  ****  Section 009 LblCom ILL$

  ****  Scalars and arrays  ****
OctLoc.c.b A Datatyp(siz) R M Lvl/name                 OctLoc.c.b A Datatyp(siz) R M Lvl/name

     0-0-0/w PTR         r     1 ILL$

  ****  Section 010 LblCom ILL_

PL6.E3A0      #004=Z9EB$BUILD_RVA_TABLE File=Z9EB.:Z8A6TSI                       SAT 08/09/97 13:48 Page:218
  ****  Scalars and arrays  ****
OctLoc.c.b A Datatyp(siz) R M Lvl/name                 OctLoc.c.b A Datatyp(siz) R M Lvl/name

     0-0-0/w STRC(180)         1 ILL_

  ****  Auto variables  ****

  ****  Scalars and arrays  ****
OctLoc.c.b A Datatyp(siz) R M Lvl/name                 OctLoc.c.b A Datatyp(siz) R M Lvl/name

     3-0-0/w PTR         r     1 @ITEM$                     4-0-0/w PTR         r     1 @RVA_TYPE
    *0-0-0/w PTR         r     1 ITEM$                      5-0-0/w SBIN        r     1 OFFSET
     6-0-0/w STRC        r     1 RVA_ENTRY                 *0-0-0/w UBIN(18)    r     1 RVA_TYPE
     6-0-0/w SBIN        r     1 RVA_WORD

  ****  SYMREF variables  ****

  ****  Scalars and arrays  ****
OctLoc.c.b A Datatyp(siz) R M Lvl/name                 OctLoc.c.b A Datatyp(siz) R M Lvl/name

     0-0-0/d STRC(13248) r     1 COMCOM
     0-0-0/w STRC(180)         1 HIER_STK(0:50)
     0-0-0/w SBIN              1 HIER_STK_PTR               0-0-0/w UBIN              1 ILL_STEP(0:144)
     0-0-0/w UBIN              1 LTS_STEP(0:37)
     0-0-0/d STRC(11580) r     1 O1COM                      0-0-0/w STRC(144)         1 PAGE_FORMAT
     0-0-0/w STRC(153)         1 REP_STK(0:50)              0-0-0/w SBIN              1 REP_STK_PTR

  ****  BASED and DCB variables  ****

  ****  Scalars and arrays  ****
OctLoc.c.b A Datatyp(siz) R M Lvl/name                 OctLoc.c.b A Datatyp(siz) R M Lvl/name

     0-0-0/w STRC(108)         1 ACCEPT_DISPLAY             0-0-0/w STRC(288)         1 ADD_STMT
     0-0-0/w STRC(396)         1 ALPHABET                   0-0-0/w STRC(144)         1 ALTER_LTS
     0-0-0/w STRC(3672)        1 ALT_KEY                    0-0-0/w STRC(36864)       1 ARGLIST
     0-0-0/w STRC(396)         1 ARRAY                      0-0-0/w STRC(180)         1 ARRAY_PRESET_LTS
     0-0-0/w ASTR(324)   r     1 BASED_LEX_SYMBOL
PL6.E3A0      #004=Z9EB$BUILD_RVA_TABLE File=Z9EB.:Z8A6TSI                       SAT 08/09/97 13:48 Page:219
     0-0-0/w STRC(360)         1 BASED_LEX_SYMBOL_WORDS
     0-0-0/w STRC(288)         1 BASE_LTS                   0-0-0/w STRC(108)         1 BINARY_ILL
     0-0-0/w STRC(288)         1 BINARY_OP                  0-0-0/w STRC(396)         1 BLOCK
     0-0-0/w STRC(144)         1 BRANCH_ILL                 0-0-0/w STRC(144)         1 BT
     0-0-0/w STRC(288)         1 CALL_STMT                  0-0-0/w STRC(216)         1 CCOSU
     0-0-0/w STRC(396)         1 CD                         0-0-0/w STRC(288)         1 CD_LTS
     0-0-0/w CHAR(4096)        1 CHARS                      0-0-0/w STRC(396)         1 CLASS
     0-0-0/w STRC(108)         1 CODED_MOVE                 0-0-0/w STRC(288)         1 COMPUTE_STMT
     0-0-0/w STRC(396)         1 CONDITION                  0-0-0/w STRC(396)   r     1 CONST
     0-0-0/w STRC(72)          1 CONT                       0-0-0/w STRC(540)         1 CONTROL_NAME_LTS
     0-0-0/w STRC(1872)        1 COPY_FILE                  0-0-0/w STRC(396)         1 DB
     0-0-0/w STRC(396)         1 DCB_                       0-0-0/w STRC(288)         1 DEFERED_IDENTIFIER
     0-0-0/w STRC(252)         1 DEFERED_ID_TREE            0-0-0/w STRC(288)         1 DEFERED_QUAL_ID
     0-0-0/w STRC(288)         1 DEFERED_SUM_CLAUSE
     0-0-0/w STRC(288)         1 DEFERED_SUM_CLAUSE_LIST
     0-0-0/w STRC(144)         1 DEFLB                      0-0-0/w STRC(288)         1 DELETE_STMT
     0-0-0/w STRC(108)         1 DEPENDING_SIZE             0-0-0/w STRC(5472)        1 DIMS
     0-0-0/w STRC(288)         1 DIVIDE_STMT                0-0-0/w STRC(396)   r     1 DML_ITEM
     0-0-0/w STRC(216)         1 DML_REC                    0-0-0/w STRC(144)         1 DOEND
     0-0-0/w STRC(396)         1 DO_N                       0-0-0/w STRC(180)         1 DV4I
     0-0-0/w STRC(180)         1 ENTRY_ILL                  0-0-0/w STRC(108)         1 EVALU
     0-0-0/w STRC(73836)       1 EVALUATE                   0-0-0/w STRC(396)         1 FD
     0-0-0/w STRC(1692)        1 FILE_LTS                   0-0-0/w STRC(144)         1 GO
     0-0-0/w STRC(180)         1 ILL                        0-0-0/w STRC              1 ILL_NO_OPS
     0-0-0/w STRC(288)         1 ILS_LIST                   0-0-0/w STRC(108)         1 INDEXES
     0-0-0/w STRC(360)         1 INIT_LTS                   0-0-0/w STRC(288)         1 INSPECT_1_STMT
     0-0-0/w STRC(288)         1 INSPECT_2_STMT             0-0-0/w STRC(288)         1 INSPECT_4_STMT
     0-0-0/w STRC(396)         1 INTDEF                     0-0-0/w STRC(180)         1 IO_RESTORE_CHAIN
     0-0-0/w STRC(144)         1 KEY                        0-0-0/w STRC(396)         1 LABEL
     0-0-0/w STRC(288)         1 LA_ITEM                    0-0-0/w STRC(36864)       1 LCNST
     0-0-0/w STRC(108)         1 LINOI                      0-0-0/w STRC(72)          1 LONG
     0-0-0/w STRC        r     1 LTS                        0-0-0/w STRC(360)         1 LTSS
     0-0-0/w STRC(36936)       1 LTS_PTR_ARRAY              0-0-0/w STRC(504)         1 LX_CD_INPUT
     0-0-0/w STRC(324)         1 LX_CD_I_O                  0-0-0/w STRC(396)         1 LX_CD_OUTPUT
     0-0-0/w STRC(288)         1 LX_ETT_ITEM                0-0-0/w STRC(288)         1 LX_ITEM
     0-0-0/w STRC(288)         1 LX_LARGE                   0-0-0/w STRC(288)         1 LX_LIST
     0-0-0/w STRC(1224)        1 LX_REC_DECL                0-0-0/w STRC(864)         1 LX_REPORT_REC
PL6.E3A0      #004=Z9EB$BUILD_RVA_TABLE File=Z9EB.:Z8A6TSI                       SAT 08/09/97 13:48 Page:220
     0-0-0/w STRC(288)         1 LX_TERMINAL                0-0-0/w STRC(72)          1 MFILL
     0-0-0/w STRC(396)         1 MNEMONIC                   0-0-0/w STRC(288)         1 MULTIPLY_STMT
     0-0-0/w STRC(180)         1 MULTI_GO                   0-0-0/w STRC(180)         1 MVEAL
     0-0-0/w STRC(108)         1 MVFIL                      0-0-0/w STRC(72)          1 MVIIS
     0-0-0/w STRC(144)         1 NEL                        0-0-0/w STRC(216)         1 OPEN_LTS
     0-0-0/w STRC(180)         1 OS_CALL                    0-0-0/w STRC(36864)       1 PAGE
     0-0-0/w STRC(396)         1 PARA                       0-0-0/w STRC(216)         1 PFORM
     0-0-0/w STRC(144)         1 PINC                       0-0-0/w STRC(144)   r     1 PREOFF
     0-0-0/w STRC(108)         1 PRESET                     0-0-0/w STRC(144)         1 PRIME
     0-0-0/w STRC(396)         1 PROC_                      0-0-0/w STRC(396)         1 PROC_DEF
     0-0-0/w STRC(900)         1 PROC_SUPP                  0-0-0/w STRC(144)         1 P_A_PRESET
     0-0-0/w STRC(144)         1 P_P_PRESET                 0-0-0/w STRC(396)         1 RD
     0-0-0/w STRC(288)         1 READ_STMT                  0-0-0/w STRC(216)         1 REF
     0-0-0/w STRC(144)         1 REMEM                      0-0-0/w STRC(108)         1 RENAMES
     0-0-0/w STRC(720)         1 REPORT_01_LTS              0-0-0/w STRC(432)         1 REPORT_ELEM_LTS
     0-0-0/w STRC(252)         1 REPORT_GRP_LTS             0-0-0/w STRC(1332)        1 REPORT_LTS
     0-0-0/w STRC(288)         1 REWRITE_STMT               0-0-0/w STRC(144)   r     1 RVA_LTS
     0-0-0/w STRC(396)   r     1 SCALAR                     0-0-0/w STRC(144)         1 SCOPE
     0-0-0/w STRC(396)         1 SD                         0-0-0/w STRC(216)         1 SEARCH_
     0-0-0/w STRC(396)         1 SECTION                    0-0-0/w STRC(396)         1 SEGMENT
     0-0-0/w STRC(360)         1 SEGMENT_LTS                0-0-0/w STRC(396)   r     1 ST
     0-0-0/w STRC(288)         1 START_STMT                 0-0-0/w STRC(72)          1 STP2
     0-0-0/w STRC(252)         1 STRING_STMT                0-0-0/w STRC(288)         1 SUBTRACT_STMT
     0-0-0/w STRC(252)         1 SUM_LTS                    0-0-0/w STRC(396)         1 SWITCH
     0-0-0/w STRC(396)         1 SYMBOLIC_CHAR              0-0-0/w STRC(396)         1 SYMDEF_
     0-0-0/w STRC(396)         1 SYMREF_                    0-0-0/w STRC(396)         1 TEMP
     0-0-0/w STRC(144)         1 TRINARY_ILL                0-0-0/w STRC(72)          1 UNARY_ILL
     0-0-0/w STRC(288)         1 UNARY_OP                   0-0-0/w STRC(288)         1 UNSTRING_STMT
     0-0-0/d STRC(612)         1 USE                        0-0-0/w STRC(216)         1 USER_CALL
     0-0-0/w STRC(252)         1 USE_SUPP                   0-0-0/w STRC(108)         1 VAL
     0-0-0/w STRC(108)         1 VAL_END                    0-0-0/w STRC(396)         1 VARIABLE
     0-0-0/w STRC(72)          1 WHEN                       0-0-0/w STRC(288)         1 WRITE_STMT


   Procedure Z9EB$BUILD_RVA_TABLE requires 200 words for executable code.
   Procedure Z9EB$BUILD_RVA_TABLE requires 14 words of local(AUTO) storage.

