PL6.E3A0      #005=Z9EB$DML_STATEMENT File=Z9EB.:Z8A6TSI                         SAT 08/09/97 13:50 Page:221
     1203        1        /*T***********************************************************/
     1204        2        /*T*                                                         */
     1205        3        /*T* Copyright (c) Bull HN Information Systems Inc., 1997    */
     1206        4        /*T*                                                         */
     1207        5        /*T***********************************************************/
     1208        6        /*=========*/
     1209        7          Z9EB$DML_STATEMENT :  PROC ( RECORD_SELECTION$, RETENTION$);
     1210        8        /*=========*/
     1211        9        /*F*
     1212       10             NAME: Z9EB$DML_STATEMENT
     1213       11             PURPOSE:
     1214       12                   Handles the majority of DML statements
     1215       13             DESCRIPTION:
     1216       14                    Checks for errors and set up calls to IDS routines.
     1217       15        */
     1218       16        /*D*
     1219       17             NAME: Z9EB$DML_STATEMENT
     1220       18             ENTRY:
     1221       19                    Z9EB$FIND_DIRECT
     1222       20                    Z9EB$FIND_RELATIVE_OCCURRENCE
     1223       21                    Z9EB$FIND_CALC
     1224       22                    Z9EB$FIND_OWNER
     1225       23                    Z9EB$STORE
     1226       24                    Z9EB$CONNECT
     1227       25                    Z9EB$DISCONNECT
     1228       26                    Z9EB$READY
     1229       27                    Z9EB$MODIFY
     1230       28                    Z9EB$DUPLICATE
     1231       29                    Z9EB$FIND_WITH_KEY
     1232       30                    Z9EB$DB_COMPARE
     1233       31                    Z9EB$COMPARE_EMPTY
     1234       32                    Z9EB$FIND_USING
     1235       33                    Z9EB$FIND_USING_KEY
     1236       34                    Z9EB$FIND_CURRENT
     1237       35                    Z9EB$ERASE
     1238       36                    Z9EB$ACCEPT
     1239       37                    Z9EB$DB_GET_RECORD
PL6.E3A0      #005=Z9EB$DML_STATEMENT File=Z9EB.:Z8A6TSI                         SAT 08/09/97 13:50 Page:222
     1240       38                    Z9EB$DB_GET_FIELD
     1241       39                    Z9EB$FINISH
     1242       40             CALL:
     1243       41                    Z9EB$    ?   (RECORD_SELECTON$, RETENTION$);
     1244       42             PARAMETERS:
     1245       43                    RECORD_SELECTION$  - lx list of identifiers
     1246       44                    RETENTION$ - lx list of retention items, always nill for
     1247       45                                 some statements.
     1248       46             INTERFACE:
     1249       47                  Z8AE$ERROR
     1250       48                  Z8AS$SR_ETT
     1251       49                  Z9EB$BUILD_RVA_TABLE
     1252       50                  Z8EU$CREATE_IDENTIFIER_FROM_ST
     1253       51                  Z8AF$NEW_OFF
     1254       52                  Z9EB$BUILD_CODE
     1255       53                  Z8AC$SEARCH_CONSTANT
     1256       54                  Z8EC$NEW_CONST_WITH_TYPE_DESC
     1257       55                  Z8ED$DIDPOSE_ABSSYN_TREE
     1258       56             ENVIRONMENT:
     1259       57                  None.
     1260       58             INPUT:
     1261       59                   RECORD_SELECTION$
     1262       60                   RETENTION$
     1263       61             OUTPUT:
     1264       62                  None.
     1265       63             SCRATCH:
     1266       64                  None.
     1267       65             DESCRIPTION:
     1268       66                     Checks for errors and sets up the arglists for the IDS calls
     1269       67                     Each entry point does basically the same thing, but each IDS
     1270       68                     routine is just different enough in the number of parameters
     1271       69                     and their order that seperation is needed.
     1272       70        */
     1273       71    1       DCL RECORD_SELECTION$    PTR;
     1274       72    1       DCL RETENTION$  PTR;
     1275       73
     1276       74            %EQU PHASE = 1;
PL6.E3A0      #005=Z9EB$DML_STATEMENT File=Z9EB.:Z8A6TSI                         SAT 08/09/97 13:50 Page:223
     1277       75            %INCLUDE Z8A_DEFC;
     1278      143            %INCLUDE Z8A_SUPP_MAC;
     1279     2543            %INCLUDE Z8E_STACKS;
     1280     4809            %INCLUDE Z8A_COMCOM;
     1281     5459            %INCLUDE Z8E_O1COM;
     1282     6220            %INCLUDE Z8A_ST;
     1283     9879            %INCLUDE Z8A_TYPES;
     1284    10053            %INCLUDE Z8A_ETT;
     1285    10354            %INCLUDE Z8A_LTS;
     1286    12431            %INCLUDE Z8E_DML;
     1287    12551            %INCLUDE Z8A_SRCH;
     1288    12600            %INCLUDE Z8A_ERR_NUMS;
     1289    13364            %INCLUDE Z8E_WINDOW;
     1290    15434            %INCLUDE Z8A_QLT;
     1291    15540
     1292    15541            %DCL_AUTO_LX_ITEM(@NAME = IA_LX_ITEM);
     1293    15545            %DCL_AUTO_LX_ITEM(@NAME = RL_LX_ITEM);
     1294    15549            %DCL_AUTO_LX_ITEM(@NAME = RC_LX_ITEM);
     1295    15553            %DCL_AUTO_LX_ITEM(@NAME = SC_AC_LX_ITEM);
     1296    15557            %DCL_AUTO_LX_ITEM(@NAME = RDC_FC_LX_ITEM);
     1297    15561            %DCL_AUTO_LX_ITEM(@NAME = MC_LX_ITEM);
     1298    15565            %DCL_AUTO_LX_ITEM(@NAME = FL_ID_LX_ITEM);
     1299    15569            %DCL_AUTO_LX_ITEM(@NAME = CW_LX_ITEM);
     1300    15573            %DCL_AUTO_LX_ITEM(@NAME = FA_LX_ITEM);
     1301    15577            %DCL_AUTO_LX_ITEM(@NAME = DD_LX_ITEM);
     1302    15581            %DCL_AUTO_LX_ITEM(@NAME = EC_SL_LX_ITEM);
     1303    15585            %DCL_AUTO_LX_ITEM(@NAME = TEMP_LX_ITEM);
     1304    15589
     1305    15590    1       DCL ARG_COUNT   SBIN;
     1306    15591    1       DCL RVA_TYPE    UBIN(18);
     1307    15592    1       DCL RECORD$     PTR;
     1308    15593    1       DCL DB_KEY$     PTR;
     1309    15594    1       DCL RECORD_ST$  PTR;
     1310    15595    1       DCL DB_KEY_ST$  PTR;
     1311    15596    1       DCL REALM_ST$   PTR;
     1312    15597    1       DCL TAIL$   PTR;
     1313    15598    1       DCL REALM_SET$   PTR;
PL6.E3A0      #005=Z9EB$DML_STATEMENT File=Z9EB.:Z8A6TSI                         SAT 08/09/97 13:50 Page:224
     1314    15599    1       DCL REALM_SET_ST$ PTR;
     1315    15600    1       DCL SET$        PTR;
     1316    15601    1       DCL KEY$        PTR;
     1317    15602    1       DCL KEY_ST$     PTR;
     1318    15603    1       DCL SET_ST$     PTR;
     1319    15604    1       DCL NAME$       PTR;
     1320    15605    1       DCL NAME_ST$    PTR;
     1321    15606    1       DCL CODE         CHAR(6);
     1322    15607    1       DCL 1 MKCN  ALIGNED   EXT,
     1323    15608    1             2 CON           SBIN WORD;
     1324    15609    1       DCL LIST$   PTR;
     1325    15610    1       DCL LIST_HEAD$  PTR;
     1326    15611    1       DCL QLT_FATHER$    PTR;
     1327    15612    1       DCL SON            BOOLEAN;
     1328    15613    1       DCL OPTION_WORD    UBIN;
     1329    15614    1       DCL CODE_TYPE      UBIN;
     1330    15615
     1331    15616    1       DCL CONST_WORD  UBIN WORD;
     1332    15617    1       DCL 1 RDC_WORD  REDEF CONST_WORD,
     1333    15618    1             2 USAGE_TYPE    UBIN(18)  UNAL,
     1334    15619    1             2 ARGUMENTS     UBIN(18)  UNAL;
     1335    15620
     1336    15621    1       DCL 1 TENANT      REDEF CONST_WORD,
     1337    15622    1             2 OWNER     BOOLEAN,
     1338    15623    1             2 MEMBER    BOOLEAN,
     1339    15624    1             2 *         UBIN(34) UNAL;
     1340    15625
     1341    15626    1       DCL 1 FIND_CONTROL    REDEF  CONST_WORD,
     1342    15627    1             2 STATUS        UBIN(18) UNAL,
     1343    15628    1             2 *             UBIN(18) UNAL;
     1344    15629
     1345    15630    1       DCL 1 ERASE_            REDEF CONST_WORD,
     1346    15631    1             2 ALL             BOOLEAN,
     1347    15632    1             2 * (0:34)        BOOLEAN;
     1348    15633
     1349    15634    1       DCL 1 CURRENCY_CONST  REDEF CONST_WORD,
     1350    15635    1             2 CURRENCY      UBIN(18)  UNAL,
PL6.E3A0      #005=Z9EB$DML_STATEMENT File=Z9EB.:Z8A6TSI                         SAT 08/09/97 13:50 Page:225
     1351    15636    1             2 LENGTH        UBIN(18)  UNAL;
     1352    15637
     1353    15638    1       DCL 1 FIELD_LIST    REDEF CONST_WORD,
     1354    15639    1             2 ARGUMENTS   UBIN(18)  UNAL,
     1355    15640    1             2 MBZ         UBIN(18)  UNAL;
     1356    15641
     1357    15642    1       DCL FIELD_LIST$     PTR;
     1358    15643    1       DCL RETENTION_LIST$ PTR;
     1359    15644    1       DCL IDENT_LIST$     PTR;
     1360    15645    1       DCL OPTION$    PTR;
     1361    15646
     1362    15647    1       DCL IDENT$  PTR;
     1363    15648    1       DCL IDENT_ST$   PTR;
     1364    15649    1       DCL ALL_SET_LIST$   PTR;
     1365    15650    1       DCL REC_FIELD_ST$ PTR;
     1366    15651    1       DCL FIELD_ST$       PTR;
     1367    15652    1       DCL ALL_LIST$       PTR;
     1368    15653
     1369    15654    1       DCL COUNT   UBIN(18);
     1370    15655    1       DCL PARM_LIST$  PTR;
     1371    15656
     1372    15657    1       DCL ERROR_FLAG      BOOLEAN;
     1373    15658    1       DCL CONTROL_WORD_CONST     UBIN;
     1374    15659    1       DCL 1 CONTROL_CONST     REDEF CONTROL_WORD_CONST,
     1375    15660    1             2 ONLY            BOOLEAN,
     1376    15661    1             2 ALL             BOOLEAN,
     1377    15662    1             2 *               UBIN(34)  UNAL;
     1378    15663    1       DCL FIELD_LIST_CONTROL     SBIN;
     1379    15664    1       DCL 1 FIELD             REDEF FIELD_LIST_CONTROL,
     1380    15665    1             2 COUNT           UBIN(18) UNAL,
     1381    15666    1             2 *               UBIN(18) UNAL;
     1382    15667
     1383    15668    1       DCL SET_LIST_CONTROL       SBIN;
     1384    15669    1       DCL 1 SET               REDEF SET_LIST_CONTROL,
     1385    15670    1             2 COUNT           UBIN(18) UNAL,
     1386    15671    1             2 *               UBIN(18) UNAL;
     1387    15672    1       DCL Z8AE$ERROR                  ENTRY(12);
PL6.E3A0      #005=Z9EB$DML_STATEMENT File=Z9EB.:Z8A6TSI                         SAT 08/09/97 13:50 Page:226
     1388    15673    1       DCL Z8AS$SR_ETT                 ENTRY(1);
     1389    15674    1       DCL Z9EB$BUILD_RVA_TABLE        ENTRY(2);
     1390    15675    1       DCL Z8EU$CREATE_IDENTIFIER_FROM_ST ENTRY(4);
     1391    15676    1       DCL Z8AF$NEW_OFF                ENTRY(3);
     1392    15677    1       DCL Z9EB$BUILD_CODE             ENTRY(3);
     1393    15678    1       DCL Z8AC$SEARCH_CONSTANT        ENTRY(1);
     1394    15679    1       DCL Z8EC$NEW_CONST_WITH_TYPE_DESC           ENTRY(3)  ALTRET;
     1395    15680    1       DCL Z8ED$DISPOSE_ABSSYN_TREE     ENTRY(1);
     1396    15681         %EJECT;
PL6.E3A0      #005=Z9EB$DML_STATEMENT File=Z9EB.:Z8A6TSI                         SAT 08/09/97 13:50 Page:227
     1397    15682        /*==========*/
     1398    15683    1     MEMBERSHIP :  PROC(RECORD_ST$,SET_ST$,CODE)  ALTRET;
     1399    15684        /*==========*/
     1400    15685        /*I*
     1401    15686             NAME: MEMBERSHIP
     1402    15687             PURPOSE:
     1403    15688                   Determine record set membership conditions.
     1404    15689             CALL:
     1405    15690                   Call MEMBERSHIP( RECORD_ST$, SET_ST$)
     1406    15691             PARAMETERS:
     1407    15692                    RECORD_ST$  - Symbol table pointer to record
     1408    15693                    SET_ST$  - SYMBOL table pointer to set item
     1409    15694             DATA:
     1410    15695                  None.
     1411    15696             DESCRIPTION:
     1412    15697                    The LTS  of the record is looked at to determine if the
     1413    15698                    set has the correct membership qualification.
     1414    15699        */
     1415    15700    2   DCL RECORD_ST$  PTR;
     1416    15701    2   DCL SET_ST$     PTR;
     1417    15702    2   DCL CODE        CHAR(6);
     1418    15703
     1419    15704        %GET_LTS (@ID = %DML_REC, @ST$ = RECORD_ST$, @RETURN$ = LTS$);
     1420    15747
     1421    15748    3   DO WHILE LTS$ ~= ADDR(NIL);
     1422    15749
     1423    15750    3       IF LTS$ -> DML_REC.SET_RELATIONSHIP = %TRUE    THEN
     1424    15751    3           IF SET_ST$ -> DML_ITEM.INTERNAL_NAME = LTS$ -> DML_REC.SET_NAME   THEN
     1425    15752    3             IF LTS$  -> DML_REC.SET_INFO.MEMBERSHIP = %OWNER  THEN
     1426    15753    3               IF CODE = %DBCON    THEN
     1427    15754    3                 RETURN;
     1428    15755    3               ELSE IF CODE = %DBFRS THEN /* FIND, format 4 or 5 */
     1429    15756    3                 IF CODE_TYPE = %SET_CALL AND
     1430    15757    3                     OPTION$ -> LX_ITEM.SYMBOL = %RSV_WRD_CURRENT THEN
     1431    15758    3                   RETURN; /* Format 5, owner of set is legal */
     1432    15759    3                 ELSE
     1433    15760    3                   ALTRETURN;
PL6.E3A0      #005=Z9EB$DML_STATEMENT File=Z9EB.:Z8A6TSI                         SAT 08/09/97 13:50 Page:228
     1434    15761    3               ELSE
     1435    15762    3                 ALTRETURN;
     1436    15763    3             ELSE
     1437    15764    3               RETURN;
     1438    15765
     1439    15766    3       LTS$ = LTS$ -> DML_REC.EXTEND$;
     1440    15767    3   END;
     1441    15768
     1442    15769    2   ALTRETURN;
     1443    15770    2   END MEMBERSHIP;
     1444    15771        %EJECT;
PL6.E3A0      #005=Z9EB$DML_STATEMENT File=Z9EB.:Z8A6TSI                         SAT 08/09/97 13:50 Page:229
     1445    15772        /*==========*/
     1446    15773    1     BUILD_PARM :    PROC  (ITEM_ST$, LX_ITEM$);
     1447    15774        /*==========*/
     1448    15775
     1449    15776    2       DCL ITEM_ST$    PTR;
     1450    15777    2       DCL LX_ITEM$    PTR;
     1451    15778    2       DCL PTR$        PTR;
     1452    15779    2       DCL OFFSET      SBIN;
     1453    15780
     1454    15781    2       PTR$ = O1COM.RVA_LINK$;
     1455    15782            %GET_RVA_LTS( @ST$ = ITEM_ST$, @LTS$ = LTS$, @POINTER = PTR$);
     1456    15793    2       OFFSET = LTS$ -> RVA_LTS.OFFSET * 4;
     1457    15794    2       CALL Z8EU$CREATE_IDENTIFIER_FROM_ST(O1COM.RVA$, LX_ITEM$);
     1458    15795    2       CALL Z8AF$NEW_OFF(LX_ITEM$ -> LX_ETT_ITEM.ETT$, OFFSET, PTR$);
     1459    15796    2       LX_ITEM$ -> LX_ETT_ITEM.ETT$ = PTR$;
     1460    15797
     1461    15798    2   END BUILD_PARM;
     1462    15799        %EJECT;
PL6.E3A0      #005=Z9EB$DML_STATEMENT File=Z9EB.:Z8A6TSI                         SAT 08/09/97 13:50 Page:230
     1463    15800        /*================*/
     1464    15801    1     BUILD_CONST_PARM :  PROC ( CONST_WORD, LX_ITEM$);
     1465    15802        /*================*/
     1466    15803
     1467    15804    2       DCL CONST_WORD  SBIN;
     1468    15805    2       DCL LX_ITEM$    PTR;
     1469    15806    2       DCL RETURN$     PTR;
     1470    15807
     1471    15808    2       MKCN.CON = CONST_WORD;
     1472    15809    2       CALL Z8AC$SEARCH_CONSTANT(RETURN$);
     1473    15810            %INIT_LX_ETT_ITEM (@POINTER = LX_ITEM$,
     1474    15811                               @TYPE = RETURN$ -> SCALAR.TYPE);
     1475    15833
     1476    15834            %SRCH_ETT( @ID = %TRIAD,
     1477    15835                       @LOP = RETURN$,
     1478    15836                       @ROP = "ADDR(NIL)",
     1479    15837                       @ETT$ = LX_ITEM$ -> LX_ETT_ITEM.ETT$);
     1480    15852
     1481    15853    2   END BUILD_CONST_PARM;
     1482    15854        %EJECT;
PL6.E3A0      #005=Z9EB$DML_STATEMENT File=Z9EB.:Z8A6TSI                         SAT 08/09/97 13:50 Page:231
     1483    15855        /*==============*/
     1484    15856    1     BUILD_ETT_PARM :    PROC ( ITEM_ST$, ITEM$);
     1485    15857        /*==============*/
     1486    15858
     1487    15859    2       DCL ITEM_ST$    PTR;
     1488    15860    2       DCL ITEM$       PTR;
     1489    15861    2       DCL PTR$       PTR;
     1490    15862    2       DCL OFFSET      SBIN;
     1491    15863
     1492    15864    2           PTR$ = O1COM.RVA_LINK$;
     1493    15865                %GET_RVA_LTS(@ST$ = ITEM_ST$,@LTS$ = LTS$,@POINTER = PTR$);
     1494    15876    2           OFFSET = LTS$ -> RVA_LTS.OFFSET * 4;
     1495    15877    2           ITEM$ -> LX_ETT_ITEM.TYPE = O1COM.RVA$ -> SCALAR.TYPE;
     1496    15878                %SRCH_ETT(@ID  = %BASE,
     1497    15879                          @LOP = O1COM.RVA$,
     1498    15880                          @ROP = "ADDR(NIL)",
     1499    15881                          @ETT$ = ITEM$ -> LX_ETT_ITEM.ETT$);
     1500    15896    2           CALL Z8AF$NEW_OFF(ITEM$ -> LX_ETT_ITEM.ETT$, OFFSET, PTR$);
     1501    15897    2           ITEM$ ->LX_ETT_ITEM.ETT$ = PTR$;
     1502    15898
     1503    15899    2   END BUILD_ETT_PARM;
     1504    15900        %EJECT;
PL6.E3A0      #005=Z9EB$DML_STATEMENT File=Z9EB.:Z8A6TSI                         SAT 08/09/97 13:50 Page:232
     1505    15901        /*==============*/
     1506    15902    1          RETENTION :    PROC  (HEAD$,LX_ITEM$);
     1507    15903        /*==============*/
     1508    15904
     1509    15905    2       DCL HEAD$       PTR;
     1510    15906    2       DCL LX_ITEM$    PTR;
     1511    15907    2       DCL RETENTION_LIST$   PTR;
     1512    15908    2       DCL RETENTION_WORD_CONST   SBIN;
     1513    15909    2       DCL 1 RETENTION_WORD  REDEF RETENTION_WORD_CONST,
     1514    15910    2             2 *       UBIN(18) UNAL,
     1515    15911    2             2 REALM   BOOLEAN,
     1516    15912    2             2 SET     BOOLEAN,
     1517    15913    2             2 RECORD  BOOLEAN,
     1518    15914    2             2 *       UBIN(7) UNAL,
     1519    15915    2             2 COUNT   UBIN(8) UNAL;
     1520    15916    2       DCL LAST_LX_ITEM$       PTR;
     1521    15917    2       DCL LIST$               PTR;
     1522    15918    2       DCL SET_ST$             PTR;
     1523    15919    2       DCL RVA_TYPE            UBIN(18);
     1524    15920
     1525    15921    2       RVA_TYPE = %RVA_SET;
     1526    15922    2       RETENTION_WORD_CONST = 0;
     1527    15923    2       RETENTION_LIST$ = ADDR(NIL);
     1528    15924    2       LAST_LX_ITEM$ = ADDR(NIL);
     1529    15925
     1530    15926    2       IF HEAD$ ~= ADDR(NIL)            THEN
     1531    15927    2           LIST$ = HEAD$ -> LX_LIST.HEAD$;
     1532    15928    2       ELSE
     1533    15929    2           LIST$ = ADDR(NIL);
     1534    15930
     1535    15931    3       DO WHILE LIST$ ~= ADDR(NIL);
     1536    15932
     1537    15933    4         DO CASE(LIST$ -> LX_ITEM.SYMBOL);
     1538    15934
     1539    15935    4           CASE(%RSV_WRD_REALM);
     1540    15936    4               RETENTION_WORD.REALM = %TRUE;
     1541    15937
PL6.E3A0      #005=Z9EB$DML_STATEMENT File=Z9EB.:Z8A6TSI                         SAT 08/09/97 13:50 Page:233
     1542    15938    4           CASE(%RSV_WRD_SETS);
     1543    15939    4               RETENTION_WORD.SET = %TRUE;
     1544    15940
     1545    15941    4           CASE(%RSV_WRD_RECORD);
     1546    15942    4               RETENTION_WORD.RECORD = %TRUE;
     1547    15943
     1548    15944    4           CASE(ELSE);                     /*V*  SET NAME  */
     1549    15945
     1550    15946    4               IF NOT LIST$ -> LX_ITEM.B.ERROR     THEN
     1551    15947    5                 DO;                          /*#32378*/
     1552    15948
     1553    15949                        %FISH(TRIAD = LIST$ -> LX_ETT_ITEM.ETT$, RTN = SET_ST$);
     1554    15957    5                   IF SET_ST$ -> DML_ITEM.ID ~= %DML_SET      THEN
     1555    15958    5                       CALL Z8AE$ERROR(%E$ITEM_NOT_A_SET,
     1556    15959    5                                       LIST$ -> LX_ITEM.LINE,
     1557    15960    5                                       LIST$ -> LX_ITEM.COLUMN);
     1558    15961    5                   ELSE
     1559    15962    6                     DO;
     1560    15963                                /*V*     NO   ERROR    */
     1561    15964    6                       IF SET_ST$ -> DML_ITEM.B.DML_RVA = %FALSE  THEN
     1562    15965    6                           CALL Z9EB$BUILD_RVA_TABLE(SET_ST$,RVA_TYPE);
     1563    15966
     1564    15967    6                       IF RETENTION_LIST$ = ADDR(NIL)    THEN
     1565    15968    6                           RETENTION_LIST$ = LIST$;
     1566    15969
     1567    15970    6                       CALL BUILD_ETT_PARM( SET_ST$, LIST$);
     1568    15971
     1569    15972    6                       IF LAST_LX_ITEM$ ~= ADDR(NIL)         THEN
     1570    15973    6                           LAST_LX_ITEM$ -> LX_ITEM.LINK = LIST$;
     1571    15974
     1572    15975    6                       LAST_LX_ITEM$ = LIST$;
     1573    15976    6                       RETENTION_WORD.COUNT = RETENTION_WORD.COUNT + 1;
     1574    15977
     1575    15978    6                     END;                  /*V*  NO ERROR   */
     1576    15979    5                 END;
     1577    15980
     1578    15981    4         END;                          /*V*   CASE LX_ITEM.SYMBOL  */
PL6.E3A0      #005=Z9EB$DML_STATEMENT File=Z9EB.:Z8A6TSI                         SAT 08/09/97 13:50 Page:234
     1579    15982
     1580    15983    3         LIST$ = LIST$ -> LX_ITEM.LINK;
     1581    15984
     1582    15985    3       END;                            /*V*   WHILE LIST$ ~= ADDR(NIL)  */
     1583    15986
     1584    15987    2       CALL BUILD_CONST_PARM( RETENTION_WORD_CONST, LX_ITEM$);
     1585    15988
     1586    15989    2       IF HEAD$ = ADDR(NIL)             THEN
     1587    15990    3         DO;
     1588    15991    3           CALL BUILD_CONST_PARM( 0, ADDR(MC_LX_ITEM));
     1589    15992    3           LX_ITEM$ -> LX_ITEM.LINK = ADDR(MC_LX_ITEM);
     1590    15993    3           RETENTION_WORD.COUNT = 1;
     1591    15994    3         END;
     1592    15995    2        ELSE
     1593    15996    2           LX_ITEM$ -> LX_ITEM.LINK = RETENTION_LIST$;
     1594    15997
     1595    15998
     1596    15999    2       LX_ITEM$ -> LX_LIST.COUNT = RETENTION_WORD.COUNT;
     1597    16000
     1598    16001    2   END RETENTION;
     1599    16002        %EJECT;
PL6.E3A0      #005=Z9EB$DML_STATEMENT File=Z9EB.:Z8A6TSI                         SAT 08/09/97 13:50 Page:235
     1600    16003        /*-------------*/
     1601    16004    1     FIND_RELATIVE :  PROC ( CODE, FIND_CONTROL$,RECORD_ST$,REALM_SET_ST$,
     1602    16005        /*-------------*/
     1603    16006    1                                                 RETENTION_LIST$);
     1604    16007    2       DCL CODE        CHAR(6);
     1605    16008    2       DCL FIND_CONTROL$   PTR;
     1606    16009    2       DCL RECORD_ST$     PTR;
     1607    16010    2       DCL REALM_SET_ST$  PTR;
     1608    16011    2       DCL RETENTION_LIST$  PTR;
     1609    16012
     1610    16013
     1611    16014    2       CONST_WORD  = 0;
     1612    16015    2       ARG_COUNT = 5 + ADDR(RL_LX_ITEM) -> LX_LIST.COUNT;
     1613    16016    2       CALL Z8EU$CREATE_IDENTIFIER_FROM_ST(O1COM.DML_IA$,ADDR(IA_LX_ITEM));
     1614    16017
     1615    16018    3       DO CASE(FIND_CONTROL$ -> LX_ITEM.SYMBOL);
     1616    16019    3           CASE(%RSV_WRD_PRIOR);
     1617    16020    3               FIND_CONTROL.STATUS = 0;
     1618    16021    3           CASE(%RSV_WRD_CURRENT);
     1619    16022    3               FIND_CONTROL.STATUS = 1;
     1620    16023    3           CASE(%RSV_WRD_NEXT);
     1621    16024    3               FIND_CONTROL.STATUS = 2;
     1622    16025    3           CASE(ELSE);
     1623    16026    3               CALL Z8AE$ERROR(%E$UNEXPECTED_CASE);
     1624    16027    3       END;     /*V*  CASE  */
     1625    16028
     1626    16029    2       CALL BUILD_CONST_PARM(CONST_WORD, ADDR(RDC_FC_LX_ITEM));
     1627    16030    2       ADDR(IA_LX_ITEM) -> LX_ITEM.LINK = ADDR(RDC_FC_LX_ITEM);
     1628    16031
     1629    16032    2       CALL BUILD_PARM( RECORD_ST$, ADDR(RC_LX_ITEM));
     1630    16033    2       ADDR(RDC_FC_LX_ITEM) -> LX_ITEM.LINK = ADDR(RC_LX_ITEM);
     1631    16034
     1632    16035    2       CALL BUILD_PARM( REALM_SET_ST$, ADDR(SC_AC_LX_ITEM));
     1633    16036    2       ADDR(RC_LX_ITEM) -> LX_ITEM.LINK = ADDR(SC_AC_LX_ITEM);
     1634    16037
     1635    16038    2       ADDR(SC_AC_LX_ITEM) -> LX_ITEM.LINK = ADDR(RL_LX_ITEM);
     1636    16039
PL6.E3A0      #005=Z9EB$DML_STATEMENT File=Z9EB.:Z8A6TSI                         SAT 08/09/97 13:50 Page:236
     1637    16040    2       CALL Z9EB$BUILD_CODE(CODE, ARG_COUNT, ADDR(IA_LX_ITEM));
     1638    16041
     1639    16042    2   END FIND_RELATIVE;
     1640    16043        %EJECT;
PL6.E3A0      #005=Z9EB$DML_STATEMENT File=Z9EB.:Z8A6TSI                         SAT 08/09/97 13:50 Page:237
     1641    16044        /*--------------*/
     1642    16045    1     FIND_OCCURRENCE :PROC (CODE,FIND_CONTROL$,RECORD_ST$,REALM_SET_ST$,RETENTION_LIST$
             16045              );
     1643    16046        /*--------------*/
     1644    16047
     1645    16048    2       DCL CODE        CHAR(6);
     1646    16049    2       DCL FIND_CONTROL$ PTR;
     1647    16050    2       DCL RECORD_ST$     PTR;
     1648    16051    2       DCL REALM_SET_ST$  PTR;
     1649    16052    2       DCL RETENTION_LIST$  PTR;
     1650    16053    2       DCL CONTROL_ST$    PTR;
     1651    16054    2       DCL 1 TYPE_DESC  ALIGNED,
     1652    16055                  %TYPE_DESC;
     1653    16089    2       DCL CONST_WORD     SBIN;
     1654    16090
     1655    16091
     1656    16092    2       ARG_COUNT = 5 + RETENTION_LIST$ -> LX_LIST.COUNT;
     1657    16093    2       CALL Z8EU$CREATE_IDENTIFIER_FROM_ST(O1COM.DML_IA$,ADDR(IA_LX_ITEM));
     1658    16094
     1659    16095    3       DO CASE(FIND_CONTROL$ -> LX_ITEM.SYMBOL);
     1660    16096
     1661    16097    3            CASE(%RSV_WRD_FIRST, %RSV_WRD_LAST);
     1662    16098    3                IF FIND_CONTROL$ -> LX_ITEM.SYMBOL = %RSV_WRD_FIRST   THEN
     1663    16099    3                    CONST_WORD = 1;
     1664    16100    3                ELSE
     1665    16101    3                    CONST_WORD = -1;              /*V*  %RSV_WRD_LAST  */
     1666    16102
     1667    16103    3                CALL BUILD_CONST_PARM( CONST_WORD, ADDR(FL_ID_LX_ITEM) );
     1668    16104
     1669    16105    3            CASE(ELSE);              /*V*      IDENTIFIER     */
     1670    16106
     1671    16107                     %FISH(TRIAD = FIND_CONTROL$ -> LX_ETT_ITEM.ETT$, RTN = CONTROL_ST$);
     1672    16115    3                CALL Z8EU$CREATE_IDENTIFIER_FROM_ST( CONTROL_ST$, ADDR(FL_ID_LX_ITEM) )
             16115                         ;
     1673    16116
     1674    16117    3            CASE(%NUMBER, %NUMERIC_LITERAL);
     1675    16118
PL6.E3A0      #005=Z9EB$DML_STATEMENT File=Z9EB.:Z8A6TSI                         SAT 08/09/97 13:50 Page:238
     1676    16119    3                TYPE_DESC.TYPE = %TYI;
     1677    16120    3                CALL Z8EC$NEW_CONST_WITH_TYPE_DESC(TYPE_DESC,FIND_CONTROL$,CONTROL_ST$)
             16120                         ;
     1678    16121    3                CONTROL_ST$ = CONTROL_ST$ -> ETT.LOP;
     1679    16122    3                CALL Z8EU$CREATE_IDENTIFIER_FROM_ST(CONTROL_ST$, ADDR(FL_ID_LX_ITEM));
     1680    16123
     1681    16124    3       END;     /*V*   CASE   */
     1682    16125
     1683    16126    2       ADDR(IA_LX_ITEM) -> LX_ITEM.LINK = ADDR(FL_ID_LX_ITEM);
     1684    16127
     1685    16128    2       CALL BUILD_PARM( RECORD_ST$, ADDR(RC_LX_ITEM));
     1686    16129    2       ADDR(FL_ID_LX_ITEM) -> LX_ITEM.LINK = ADDR(RC_LX_ITEM);
     1687    16130
     1688    16131    2       CALL BUILD_PARM( REALM_SET_ST$, ADDR(SC_AC_LX_ITEM));
     1689    16132    2       ADDR(RC_LX_ITEM) -> LX_ITEM.LINK = ADDR(SC_AC_LX_ITEM);
     1690    16133
     1691    16134    2       ADDR(SC_AC_LX_ITEM) -> LX_ITEM.LINK = RETENTION_LIST$;
     1692    16135
     1693    16136    2       CALL Z9EB$BUILD_CODE(CODE,ARG_COUNT,ADDR(IA_LX_ITEM));
     1694    16137
     1695    16138    2   END FIND_OCCURRENCE;
     1696    16139        %EJECT;
PL6.E3A0      #005=Z9EB$DML_STATEMENT File=Z9EB.:Z8A6TSI                         SAT 08/09/97 13:50 Page:239
     1697    16140        /*================*/
     1698    16141    1     Z9EB$FIND_DIRECT:    ENTRY (RECORD_SELECTION$, RETENTION$);
     1699    16142        /*================*/
     1700    16143
     1701    16144    1       RECORD$ = RECORD_SELECTION$ -> LX_LIST.HEAD$;
     1702    16145    1       DB_KEY$ = RECORD_SELECTION$ -> LX_LIST.TAIL$;
     1703    16146    1       ERROR_FLAG = %FALSE;
     1704    16147
     1705    16148    1        IF DB_KEY$ -> LX_ITEM.B.ERROR   THEN
     1706    16149    1           ERROR_FLAG = %TRUE;
     1707    16150    1        ELSE
     1708    16151    2         DO;
     1709    16152                %FISH( TRIAD = DB_KEY$ -> LX_ETT_ITEM.ETT$, RTN = DB_KEY_ST$);
     1710    16160
     1711    16161    2           IF DB_KEY_ST$ -> SCALAR.B.DML_TYPE ~= %DATA_BASE_KEY  AND
     1712    16162    2              DB_KEY_ST$ -> SCALAR.B.DML_TYPE ~= %DIRECT_REFERENCE   THEN
     1713    16163    3             DO;
     1714    16164    3               CALL Z8AE$ERROR(%E$ITEM_NOT_DB_KEY,
     1715    16165    3                               DB_KEY$ -> LX_ITEM.LINE,
     1716    16166    3                               DB_KEY$ -> LX_ITEM.COLUMN);
     1717    16167    3               ERROR_FLAG = %TRUE;
     1718    16168    3             END;
     1719    16169    2         END;
     1720    16170
     1721    16171    1       IF RECORD$ -> LX_ITEM.ID =%LX_TERMINAL AND RECORD$ -> LX_ITEM.SYMBOL = %EMPTY
             16171                THEN
     1722    16172    2         DO;
     1723    16173    2           IF O1COM.NILL_RVA = %FALSE          THEN
     1724    16174    3             DO;
     1725    16175    3               RVA_TYPE = %RVA_NULL;
     1726    16176    3               CALL Z9EB$BUILD_RVA_TABLE( ADDR(NIL), RVA_TYPE);
     1727    16177    3             END;
     1728    16178    2           RECORD_ST$ = ADDR(NIL);
     1729    16179    2         END;
     1730    16180
     1731    16181    1       ELSE
     1732    16182    1         IF RECORD$ -> LX_ITEM.B.ERROR   THEN
PL6.E3A0      #005=Z9EB$DML_STATEMENT File=Z9EB.:Z8A6TSI                         SAT 08/09/97 13:50 Page:240
     1733    16183    1             ERROR_FLAG = %TRUE;
     1734    16184    1         ELSE
     1735    16185    2         DO;
     1736    16186                %FISH(TRIAD = RECORD$ -> LX_ETT_ITEM.ETT$, RTN = RECORD_ST$);
     1737    16194    2           IF RECORD_ST$ -> SCALAR.B.DML_TYPE ~= %RECORD    THEN
     1738    16195    3             DO;
     1739    16196    3               CALL Z8AE$ERROR(%E$ITEM_NOT_A_RECORD,
     1740    16197    3                               RECORD$ -> LX_ITEM.LINE,
     1741    16198    3                               RECORD$ -> LX_ITEM.COLUMN);
     1742    16199    3               ERROR_FLAG = %TRUE;
     1743    16200    3             END;
     1744    16201    2           ELSE
     1745    16202    2               IF RECORD_ST$ -> SCALAR.B.DML_RVA = %FALSE     THEN
     1746    16203    3                 DO;
     1747    16204    3                   RVA_TYPE = %RVA_RECORD;
     1748    16205    3                   CALL Z9EB$BUILD_RVA_TABLE( RECORD_ST$, RVA_TYPE);
     1749    16206    3                 END;
     1750    16207    2         END;
     1751    16208
     1752    16209    1       CALL RETENTION(RETENTION$,ADDR(RL_LX_ITEM));
     1753    16210
     1754    16211    1       IF ERROR_FLAG = %TRUE            THEN
     1755    16212    1           RETURN;
     1756    16213
     1757    16214    1       CALL Z8EU$CREATE_IDENTIFIER_FROM_ST(O1COM.DML_IA$, ADDR(IA_LX_ITEM));
     1758    16215    1       CALL BUILD_PARM( RECORD_ST$, ADDR(RC_LX_ITEM));
     1759    16216
     1760    16217    1       ADDR(IA_LX_ITEM) -> LX_ITEM.LINK = ADDR(RC_LX_ITEM);
     1761    16218         /* CALL Z8EU$CREATE_IDENTIFIER_FROM_ST(DB_KEY_ST$,ADDR(FL_ID_LX_ITEM)); */
     1762    16219    1       ADDR(RC_LX_ITEM) -> LX_ITEM.LINK = DB_KEY$;
     1763    16220
     1764    16221    1       DB_KEY$ -> LX_ITEM.LINK = ADDR(RL_LX_ITEM);
     1765    16222    1       ARG_COUNT = 4 + ADDR(RL_LX_ITEM) -> LX_LIST.COUNT;
     1766    16223
     1767    16224    1       CALL Z9EB$BUILD_CODE(%DBFDR,ARG_COUNT,ADDR(IA_LX_ITEM));
     1768    16225
     1769    16226    1       DB_KEY$ -> LX_ITEM.LINK = ADDR(NIL);
PL6.E3A0      #005=Z9EB$DML_STATEMENT File=Z9EB.:Z8A6TSI                         SAT 08/09/97 13:50 Page:241
     1770    16227    1       RETURN;
     1771    16228        %EJECT;
PL6.E3A0      #005=Z9EB$DML_STATEMENT File=Z9EB.:Z8A6TSI                         SAT 08/09/97 13:50 Page:242
     1772    16229        /*============================*/
     1773    16230    1     Z9EB$FIND_RELATIVE_OCCURRENCE : ENTRY ( RECORD_SELECTION$,RETENTION$);
     1774    16231        /*============================*/
     1775    16232
     1776    16233    1       OPTION$ = RECORD_SELECTION$ -> LX_LIST.HEAD$;
     1777    16234    1       RECORD$ = OPTION$ -> LX_ITEM.LINK;
     1778    16235    1       REALM_SET$ = RECORD_SELECTION$ -> LX_LIST.TAIL$;
     1779    16236    1       ERROR_FLAG = %FALSE;
     1780    16237
     1781    16238            /*V*    CHECK RECORD ITEM   */
     1782    16239
     1783    16240    1       IF RECORD$ -> LX_ITEM.ID = %LX_TERMINAL AND RECORD$ -> LX_ITEM.SYMBOL = %EMPTY
             16240                THEN
     1784    16241    2         DO;
     1785    16242    2           IF O1COM.NILL_RVA = %FALSE          THEN
     1786    16243    3             DO;
     1787    16244    3               RVA_TYPE = %RVA_NULL;
     1788    16245    3               CALL Z9EB$BUILD_RVA_TABLE( ADDR(NIL), RVA_TYPE);
     1789    16246    3             END;
     1790    16247    2           RECORD_ST$ = ADDR(NIL);
     1791    16248    2         END;
     1792    16249
     1793    16250    1       ELSE
     1794    16251    1        IF RECORD$ -> LX_ITEM.B.ERROR   THEN
     1795    16252    1           ERROR_FLAG = %TRUE;
     1796    16253    1        ELSE
     1797    16254    2         DO;
     1798    16255                %FISH(TRIAD = RECORD$ -> LX_ETT_ITEM.ETT$, RTN = RECORD_ST$);
     1799    16263    2           IF RECORD_ST$ -> SCALAR.B.DML_TYPE ~= %RECORD    THEN
     1800    16264    3             DO;
     1801    16265    3               CALL Z8AE$ERROR(%E$ITEM_NOT_A_RECORD,
     1802    16266    3                               RECORD$ -> LX_ITEM.LINE,
     1803    16267    3                               RECORD$ -> LX_ITEM.COLUMN);
     1804    16268    3               ERROR_FLAG = %TRUE;
     1805    16269    3             END;
     1806    16270    2           ELSE
     1807    16271    2               IF RECORD_ST$ -> SCALAR.B.DML_RVA = %FALSE     THEN
PL6.E3A0      #005=Z9EB$DML_STATEMENT File=Z9EB.:Z8A6TSI                         SAT 08/09/97 13:50 Page:243
     1808    16272    3                 DO;
     1809    16273    3                   RVA_TYPE = %RVA_RECORD;
     1810    16274    3                   CALL Z9EB$BUILD_RVA_TABLE( RECORD_ST$, RVA_TYPE);
     1811    16275    3                 END;
     1812    16276    2         END;
     1813    16277
     1814    16278            /*V*  CHECK FOR REALM OR SET   */
     1815    16279
     1816    16280    1       IF REALM_SET$ -> LX_ITEM.B.ERROR     THEN
     1817    16281    1          ERROR_FLAG = %TRUE;
     1818    16282    1       ELSE
     1819    16283    2        DO;
     1820    16284               %FISH(TRIAD = REALM_SET$ -> LX_ETT_ITEM.ETT$, RTN= REALM_SET_ST$);
     1821    16292    2          IF REALM_SET_ST$ -> DML_ITEM.ID = %DML_SET   OR REALM_SET_ST$ -> DML_ITEM.ID
             16292                   = %DML_KEY   THEN
     1822    16293    3            DO;
     1823    16294    3              RVA_TYPE = %RVA_SET;
     1824    16295    3              CODE_TYPE = %SET_CALL;
     1825    16296    3            END;
     1826    16297    2          ELSE
     1827    16298    2              IF REALM_SET_ST$ -> DML_ITEM.ID = %REALM    THEN
     1828    16299    3                DO;
     1829    16300    3                  RVA_TYPE = %RVA_REALM;
     1830    16301    3                  CODE_TYPE = %REALM_CALL;
     1831    16302    3                END;
     1832    16303    2              ELSE
     1833    16304    3                DO;
     1834    16305    3                  CALL Z8AE$ERROR(%E$ITEM_NOT_REALM_OR_SET,
     1835    16306    3                                  REALM_SET$ -> LX_ITEM.LINE,
     1836    16307    3                                  REALM_SET$ -> LX_ITEM.COLUMN);
     1837    16308    3                  ERROR_FLAG = %TRUE;
     1838    16309    3                END;
     1839    16310    2        END;
     1840    16311
     1841    16312    1       CALL RETENTION(RETENTION$,ADDR(RL_LX_ITEM));
     1842    16313
     1843    16314    1       IF ERROR_FLAG = %TRUE            THEN
PL6.E3A0      #005=Z9EB$DML_STATEMENT File=Z9EB.:Z8A6TSI                         SAT 08/09/97 13:50 Page:244
     1844    16315    1           RETURN;
     1845    16316
     1846    16317    1       IF RECORD_ST$ ~= ADDR(NIL) AND OPTION$ -> LX_ITEM.SYMBOL ~= %RSV_WRD_CURRENT
             16317                THEN
     1847    16318    1           IF RECORD_ST$ -> SCALAR.LTS$ -> /* Type 4, check location mode */
     1848    16319    1               DML_REC.RECORD_INFO.RECORD_PARTIAL_DESCRIBED THEN
             16319                        /* Indexed -- illegal */
     1849    16320    2             DO;
     1850    16321    2               CALL Z8AE$ERROR(%E$TYPE_4_FIND_ILLEGAL,
     1851    16322    2                               RECORD$ -> LX_ITEM.LINE,
     1852    16323    2                               RECORD$ -> LX_ITEM.COLUMN);
     1853    16324    2               ERROR_FLAG = %TRUE;
     1854    16325    2             END;
     1855    16326
     1856    16327    1       IF RECORD_ST$ ~= ADDR(NIL) THEN
     1857    16328    1         IF REALM_SET_ST$ -> DML_ITEM.ID = %DML_SET THEN
     1858    16329    1           CALL MEMBERSHIP(RECORD_ST$, REALM_SET_ST$, %DBFRS)
     1859    16330    1               WHENALTRETURN
     1860    16331    2                DO;
     1861    16332    2                   CALL Z8AE$ERROR(%E$INVALID_MEMBER,
     1862    16333    2                                   RECORD$ -> LX_ITEM.LINE,
     1863    16334    2                                   RECORD$ -> LX_ITEM.COLUMN);
     1864    16335    2                   ERROR_FLAG = %TRUE;
     1865    16336    2                END;
     1866    16337    1         ELSE
     1867    16338    2   REALM_MEMBERSHIP: DO;
     1868    16339                %GET_LTS (@ID = %DML_REC, @ST$ = RECORD_ST$, @RETURN$ = LTS$);
     1869    16382    3           DO WHILE LTS$ ~= ADDR (NIL);
     1870    16383    3             IF LTS$ -> DML_REC.REALM_RELATIONSHIP THEN
     1871    16384    3               IF REALM_SET_ST$ -> DML_ITEM.INTERNAL_NAME = LTS$ -> DML_REC.REALM_NAME
             16384                        THEN
     1872    16385    3                 EXIT REALM_MEMBERSHIP;
     1873    16386    3             LTS$ = LTS$ -> DML_REC.EXTEND$;
     1874    16387    3           END;
     1875    16388    2           CALL Z8AE$ERROR (%E$NOT_IN_REALM,
     1876    16389    2                            RECORD$ -> LX_ITEM.LINE,
     1877    16390    2                            RECORD$ -> LX_ITEM.COLUMN);
PL6.E3A0      #005=Z9EB$DML_STATEMENT File=Z9EB.:Z8A6TSI                         SAT 08/09/97 13:50 Page:245
     1878    16391    2           ERROR_FLAG = %TRUE;
     1879    16392    2         END; /* REALM_MEMBERSHIP */
     1880    16393
     1881    16394    1       IF ERROR_FLAG = %TRUE            THEN
     1882    16395    1           RETURN;
     1883    16396
     1884    16397    1       IF REALM_SET_ST$ -> DML_ITEM.B.DML_RVA = %FALSE     THEN
     1885    16398    1           CALL Z9EB$BUILD_RVA_TABLE( REALM_SET_ST$, RVA_TYPE);
     1886    16399
     1887    16400    2       DO CASE(OPTION$ -> LX_ITEM.SYMBOL);
     1888    16401
     1889    16402    2           CASE(%RSV_WRD_PRIOR,%RSV_WRD_NEXT,%RSV_WRD_CURRENT);
     1890    16403    2               IF CODE_TYPE = %SET_CALL   THEN
     1891    16404    2                   CODE = %DBFRS;
     1892    16405    2               ELSE
     1893    16406    2                   CODE = %DBFRA;
     1894    16407    2               CALL FIND_RELATIVE(CODE,OPTION$,RECORD_ST$,REALM_SET_ST$,
     1895    16408    2                                                 ADDR(RL_LX_ITEM));
     1896    16409    2           CASE(ELSE);
     1897    16410    2               IF CODE_TYPE = %SET_CALL   THEN
     1898    16411    2                   CODE = %DBFAS;
     1899    16412    2               ELSE
     1900    16413    2                   CODE = %DBFAA;
     1901    16414    2               CALL FIND_OCCURRENCE(CODE,OPTION$,RECORD_ST$,REALM_SET_ST$,
     1902    16415    2                                                 ADDR(RL_LX_ITEM));
     1903    16416    2       END;     /*V*  CASE    */
     1904    16417
     1905    16418    1       RETURN;
     1906    16419        %EJECT;
PL6.E3A0      #005=Z9EB$DML_STATEMENT File=Z9EB.:Z8A6TSI                         SAT 08/09/97 13:50 Page:246
     1907    16420        /*==============*/
     1908    16421    1     Z9EB$DB_FIND_CALC :  ENTRY  (RECORD_SELECTION$, RETENTION$);
     1909    16422        /*==============*/
     1910    16423
     1911    16424    1       RECORD$ = RECORD_SELECTION$ -> LX_LIST.TAIL$;
     1912    16425    1       ERROR_FLAG = %FALSE;
     1913    16426
     1914    16427    1      IF RECORD$ -> LX_ITEM.B.ERROR    THEN
     1915    16428    1          ERROR_FLAG = %TRUE;
     1916    16429    1      ELSE
     1917    16430    2        DO;
     1918    16431               %FISH( TRIAD = RECORD$ -> LX_ETT_ITEM.ETT$, RTN = RECORD_ST$);
     1919    16439    2          IF RECORD_ST$ -> SCALAR.B.DML_TYPE ~= %RECORD    THEN
     1920    16440    3            DO;
     1921    16441    3              CALL Z8AE$ERROR(%E$ITEM_NOT_A_RECORD,
     1922    16442    3                              RECORD$ -> LX_ITEM.LINE,
     1923    16443    3                              RECORD$ -> LX_ITEM.COLUMN);
     1924    16444    3              ERROR_FLAG = %TRUE;
     1925    16445    3            END;
     1926    16446    2         END;
     1927    16447    1      CALL RETENTION(RETENTION$,ADDR(RL_LX_ITEM));
     1928    16448
     1929    16449    1      IF ERROR_FLAG = %FALSE         THEN
     1930    16450    2        DO;
     1931    16451    2           IF RECORD_ST$ -> SCALAR.LTS$ -> DML_REC.RECORD_INFO.LOCATION_MODE_CALC = %
             16451                    FALSE  THEN
     1932    16452    3             DO;
     1933    16453    3               CALL Z8AE$ERROR(%E$LOCATION_MODE_NOT_CALC,
     1934    16454    3                               RECORD$ -> LX_ITEM.LINE,
     1935    16455    3                               RECORD$ -> LX_ITEM.COLUMN);
     1936    16456    3               ERROR_FLAG = %TRUE;
     1937    16457    3             END;
     1938    16458
     1939    16459    2           IF RECORD_ST$ -> SCALAR.B.DML_RVA = %FALSE     THEN
     1940    16460    3             DO;
     1941    16461    3               RVA_TYPE = %RVA_RECORD;
     1942    16462    3               CALL Z9EB$BUILD_RVA_TABLE( RECORD_ST$, RVA_TYPE);
PL6.E3A0      #005=Z9EB$DML_STATEMENT File=Z9EB.:Z8A6TSI                         SAT 08/09/97 13:50 Page:247
     1943    16463    3             END;
     1944    16464
     1945    16465    2           IF RECORD_SELECTION$ -> LX_LIST.HEAD$ -> LX_ITEM.SYMBOL = %RSV_WRD_ANY  THEN
     1946    16466    2               CODE = %DBFDC;
     1947    16467    2           ELSE
     1948    16468    2               CODE = %DBFCD;            /*V* %RSV_WRD_DUPLICATE  */
     1949    16469    2        END;
     1950    16470    1       IF ERROR_FLAG = %FALSE           THEN
     1951    16471    2         DO;
     1952    16472
     1953    16473    2           ARG_COUNT = 3 + ADDR(RL_LX_ITEM) -> LX_LIST.COUNT;
     1954    16474    2           CALL Z8EU$CREATE_IDENTIFIER_FROM_ST(O1COM.DML_IA$,ADDR(IA_LX_ITEM));
     1955    16475
     1956    16476    2           CALL BUILD_PARM( RECORD_ST$, ADDR(RC_LX_ITEM));
     1957    16477    2           ADDR(IA_LX_ITEM) -> LX_ITEM.LINK = ADDR(RC_LX_ITEM);
     1958    16478    2           ADDR(RC_LX_ITEM) -> LX_ITEM.LINK = ADDR(RL_LX_ITEM);
     1959    16479
     1960    16480    2           CALL Z9EB$BUILD_CODE(CODE,ARG_COUNT,ADDR(IA_LX_ITEM));
     1961    16481    2         END;
     1962    16482
     1963    16483    1       RETURN;
     1964    16484        %EJECT;
PL6.E3A0      #005=Z9EB$DML_STATEMENT File=Z9EB.:Z8A6TSI                         SAT 08/09/97 13:50 Page:248
     1965    16485        /*===============*/
     1966    16486    1     Z9EB$FIND_OWNER :  ENTRY  (RECORD_SELECTION$, RETENTION$);
     1967    16487        /*===============*/
     1968    16488
     1969    16489    1       SET$ = RECORD_SELECTION$ -> LX_LIST.HEAD$;
     1970    16490    1       ERROR_FLAG = %FALSE;
     1971    16491
     1972    16492    1       IF SET$ -> LX_ITEM.B.ERROR       THEN
     1973    16493    1           ERROR_FLAG = %TRUE;
     1974    16494    1       ELSE
     1975    16495    2         DO;
     1976    16496               %FISH( TRIAD = SET$ -> LX_ETT_ITEM.ETT$, RTN = SET_ST$);
     1977    16504    2          IF SET_ST$ -> DML_ITEM.ID ~= %DML_SET         THEN
     1978    16505    3            DO;
     1979    16506    3              CALL Z8AE$ERROR(%E$ITEM_NOT_A_SET,
     1980    16507    3                              SET$ -> LX_ITEM.LINE,
     1981    16508    3                              SET$ -> LX_ITEM.COLUMN);
     1982    16509    3              ERROR_FLAG = %TRUE;
     1983    16510    3            END;
     1984    16511    2          ELSE
     1985    16512    2              IF SET_ST$ -> SCALAR.B.DML_RVA = %FALSE     THEN
     1986    16513    3                DO;
     1987    16514    3                  RVA_TYPE = %RVA_SET;
     1988    16515    3                  CALL Z9EB$BUILD_RVA_TABLE( SET_ST$, RVA_TYPE);
     1989    16516    3                END;
     1990    16517    2         END;
     1991    16518
     1992    16519    1       CALL RETENTION(RETENTION$,ADDR(RL_LX_ITEM));
     1993    16520
     1994    16521    1       IF ERROR_FLAG = %TRUE            THEN
     1995    16522    1           RETURN;
     1996    16523
     1997    16524    1       ARG_COUNT = 3 + ADDR(RL_LX_ITEM) -> LX_LIST.COUNT;
     1998    16525    1       CALL Z8EU$CREATE_IDENTIFIER_FROM_ST(O1COM.DML_IA$,ADDR(IA_LX_ITEM));
     1999    16526
     2000    16527    1       CALL BUILD_PARM( SET_ST$, ADDR(RC_LX_ITEM));
     2001    16528    1       ADDR(IA_LX_ITEM) -> LX_ITEM.LINK = ADDR(RC_LX_ITEM);
PL6.E3A0      #005=Z9EB$DML_STATEMENT File=Z9EB.:Z8A6TSI                         SAT 08/09/97 13:50 Page:249
     2002    16529    1       ADDR(RC_LX_ITEM) -> LX_ITEM.LINK = ADDR(RL_LX_ITEM);
     2003    16530
     2004    16531    1       CALL Z9EB$BUILD_CODE(%DBFOR,ARG_COUNT,ADDR(IA_LX_ITEM));
     2005    16532
     2006    16533    1       RETURN;
     2007    16534        %EJECT;
PL6.E3A0      #005=Z9EB$DML_STATEMENT File=Z9EB.:Z8A6TSI                         SAT 08/09/97 13:50 Page:250
     2008    16535        /*==============*/
     2009    16536    1     Z9EB$DML_PRCLC_STMNT :  ENTRY  (RECORD_SELECTION$, RETENTION$);
     2010    16537        /*==============*/
     2011    16538
     2012    16539    1       RECORD$ = RECORD_SELECTION$;
     2013    16540    1       ERROR_FLAG = %FALSE;
     2014    16541
     2015    16542    1      IF RECORD$ -> LX_ITEM.B.ERROR    THEN
     2016    16543    1          ERROR_FLAG = %TRUE;
     2017    16544    1      ELSE
     2018    16545    2        DO;
     2019    16546               %FISH( TRIAD = RECORD$ -> LX_ETT_ITEM.ETT$, RTN = RECORD_ST$);
     2020    16554    2          IF RECORD_ST$ -> SCALAR.B.DML_TYPE ~= %RECORD    THEN
     2021    16555    3            DO;
     2022    16556    3              CALL Z8AE$ERROR(%E$ITEM_NOT_A_RECORD,
     2023    16557    3                              RECORD$ -> LX_ITEM.LINE,
     2024    16558    3                              RECORD$ -> LX_ITEM.COLUMN);
     2025    16559    3              ERROR_FLAG = %TRUE;
     2026    16560    3            END;
     2027    16561    2         END;
     2028    16562    1      CALL RETENTION(RETENTION$,ADDR(RL_LX_ITEM));
     2029    16563
     2030    16564    1      IF ERROR_FLAG = %FALSE         THEN
     2031    16565    2        DO;
     2032    16566    2           IF RECORD_ST$ -> SCALAR.LTS$ -> DML_REC.RECORD_INFO.LOCATION_MODE_CALC = %
             16566                    FALSE  THEN
     2033    16567    3             DO;
     2034    16568    3               CALL Z8AE$ERROR(%E$LOCATION_MODE_NOT_CALC,
     2035    16569    3                               RECORD$ -> LX_ITEM.LINE,
     2036    16570    3                               RECORD$ -> LX_ITEM.COLUMN);
     2037    16571    3               ERROR_FLAG = %TRUE;
     2038    16572    3             END;
     2039    16573
     2040    16574    2           IF RECORD_ST$ -> SCALAR.B.DML_RVA = %FALSE     THEN
     2041    16575    3             DO;
     2042    16576    3               RVA_TYPE = %RVA_RECORD;
     2043    16577    3               CALL Z9EB$BUILD_RVA_TABLE( RECORD_ST$, RVA_TYPE);
PL6.E3A0      #005=Z9EB$DML_STATEMENT File=Z9EB.:Z8A6TSI                         SAT 08/09/97 13:50 Page:251
     2044    16578    3             END;
     2045    16579
     2046    16580    2               CODE = %DBHSH;
     2047    16581    2        END;
     2048    16582    1       IF ERROR_FLAG = %FALSE           THEN
     2049    16583    2         DO;
     2050    16584
     2051    16585    2           ARG_COUNT = 3 + ADDR(RL_LX_ITEM) -> LX_LIST.COUNT;
     2052    16586    2           CALL Z8EU$CREATE_IDENTIFIER_FROM_ST(O1COM.DML_IA$,ADDR(IA_LX_ITEM));
     2053    16587
     2054    16588    2           CALL BUILD_PARM( RECORD_ST$, ADDR(RC_LX_ITEM));
     2055    16589    2           ADDR(IA_LX_ITEM) -> LX_ITEM.LINK = ADDR(RC_LX_ITEM);
     2056    16590    2           ADDR(RC_LX_ITEM) -> LX_ITEM.LINK = ADDR(RL_LX_ITEM);
     2057    16591
     2058    16592    2           CALL Z9EB$BUILD_CODE(CODE,ARG_COUNT,ADDR(IA_LX_ITEM));
     2059    16593    2         END;
     2060    16594
     2061    16595    1       RETURN;
     2062    16596        %EJECT
     2063    16597        /*==========*/
     2064    16598    1     Z9EB$STORE :   ENTRY ( RECORD_SELECTION$, RETENTION$);
     2065    16599        /*==========*/
     2066    16600
     2067    16601    1       ERROR_FLAG = %FALSE;
     2068    16602
     2069    16603    1       IF RECORD_SELECTION$ -> LX_ITEM.B.ERROR   THEN
     2070    16604    1           ERROR_FLAG = %TRUE;
     2071    16605    1       ELSE
     2072    16606    2         DO;
     2073    16607                %FISH(TRIAD = RECORD_SELECTION$ -> LX_ETT_ITEM.ETT$, RTN = RECORD_ST$);
     2074    16615    2           IF RECORD_ST$ -> SCALAR.B.DML_TYPE ~= %RECORD  THEN
     2075    16616    3             DO;
     2076    16617    3               CALL Z8AE$ERROR(%E$ITEM_NOT_A_RECORD,
     2077    16618    3                               RECORD_SELECTION$ -> LX_ITEM.LINE,
     2078    16619    3                               RECORD_SELECTION$ -> LX_ITEM.COLUMN);
     2079    16620    3               ERROR_FLAG = %TRUE;
     2080    16621    3             END;
PL6.E3A0      #005=Z9EB$DML_STATEMENT File=Z9EB.:Z8A6TSI                         SAT 08/09/97 13:50 Page:252
     2081    16622    2           ELSE
     2082    16623    2               IF RECORD_ST$ -> SCALAR.B.DML_RVA = %FALSE     THEN
     2083    16624    3                 DO;
     2084    16625    3                   RVA_TYPE = %RVA_RECORD;
     2085    16626    3                   CALL Z9EB$BUILD_RVA_TABLE(RECORD_ST$,RVA_TYPE);
     2086    16627    3                 END;
     2087    16628    2         END;
     2088    16629
     2089    16630    1       CALL RETENTION(RETENTION$, ADDR(RL_LX_ITEM));
     2090    16631
     2091    16632    1       IF ERROR_FLAG = %FALSE           THEN
     2092    16633    2         DO;
     2093    16634    2           CALL Z8EU$CREATE_IDENTIFIER_FROM_ST(O1COM.DML_IA$,ADDR(IA_LX_ITEM));
     2094    16635
     2095    16636    2           CALL BUILD_PARM( RECORD_ST$, ADDR(RC_LX_ITEM));
     2096    16637    2           ADDR(IA_LX_ITEM) -> LX_ITEM.LINK = ADDR(RC_LX_ITEM);
     2097    16638    2           ADDR(RC_LX_ITEM) -> LX_ITEM.LINK = ADDR(RL_LX_ITEM);
     2098    16639
     2099    16640    2           ARG_COUNT = 3 + ADDR(RL_LX_ITEM) -> LX_LIST.COUNT;
     2100    16641    2           CALL Z9EB$BUILD_CODE(%DBSTO, ARG_COUNT, ADDR(IA_LX_ITEM));
     2101    16642    2         END;
     2102    16643
     2103    16644    1       RETURN;
     2104    16645         %EJECT;
PL6.E3A0      #005=Z9EB$DML_STATEMENT File=Z9EB.:Z8A6TSI                         SAT 08/09/97 13:50 Page:253
     2105    16646        /*============*/
     2106    16647    1     Z9EB$CONNECT :  ENTRY   (RECORD_SELECTION$, RETENTION$);
     2107    16648        /*============*/
     2108    16649
     2109    16650    1       CODE = %DBCON;
     2110    16651    1       GOTO DIS_CONNECT;
     2111    16652
     2112    16653        /*===============*/
     2113    16654    1     Z9EB$DISCONNECT :  ENTRY (RECORD_SELECTION$, RETENTION$);
     2114    16655        /*===============*/
     2115    16656
     2116    16657    1       CODE = %DBDIS;
     2117    16658
     2118    16659    1   DIS_CONNECT:
     2119    16660
     2120    16661    1       ERROR_FLAG = %FALSE;
     2121    16662    1       RECORD$ = RECORD_SELECTION$;
     2122    16663    1       SET$ = RETENTION$;
     2123    16664
     2124    16665    1       IF SET$ -> LX_ITEM.B.ERROR  THEN
     2125    16666    1           ERROR_FLAG = %TRUE;
     2126    16667    1       ELSE
     2127    16668    2         DO;
     2128    16669                %FISH(TRIAD = SET$ -> LX_ETT_ITEM.ETT$, RTN = SET_ST$);
     2129    16677    2           IF SET_ST$ -> DML_ITEM.ID ~= %DML_SET      THEN
     2130    16678    3             DO;
     2131    16679    3               CALL Z8AE$ERROR(%E$ITEM_NOT_A_SET,
     2132    16680    3                               SET$ -> LX_ITEM.LINE,
     2133    16681    3                               SET$ -> LX_ITEM.COLUMN);
     2134    16682    3               ERROR_FLAG = %TRUE;
     2135    16683    3             END;
     2136    16684    2           ELSE
     2137    16685    2               IF SET_ST$ -> DML_ITEM.B.DML_RVA = %FALSE   THEN
     2138    16686    3                 DO;
     2139    16687    3                   RVA_TYPE = %RVA_SET;
     2140    16688    3                   CALL Z9EB$BUILD_RVA_TABLE(SET_ST$,RVA_TYPE);
     2141    16689    3                 END;
PL6.E3A0      #005=Z9EB$DML_STATEMENT File=Z9EB.:Z8A6TSI                         SAT 08/09/97 13:50 Page:254
     2142    16690    2         END;
     2143    16691
     2144    16692    1       IF RECORD$ -> LX_ITEM.B.ERROR   THEN
     2145    16693    1          RETURN;
     2146    16694
     2147    16695    1       IF RECORD$ -> LX_ITEM.ID = %LX_TERMINAL AND RECORD$ -> LX_ITEM.SYMBOL = %EMPTY
             16695                THEN
     2148    16696    2         DO;
     2149    16697    2           IF O1COM.NILL_RVA = %FALSE          THEN
     2150    16698    3             DO;
     2151    16699    3               RVA_TYPE = %RVA_NULL;
     2152    16700    3               CALL Z9EB$BUILD_RVA_TABLE( ADDR(NIL), RVA_TYPE);
     2153    16701    3             END;
     2154    16702    2           RECORD_ST$ = ADDR(NIL);
     2155    16703    2         END;
     2156    16704
     2157    16705    1       ELSE
     2158    16706    2         DO;
     2159    16707                %FISH(TRIAD = RECORD$ -> LX_ETT_ITEM.ETT$, RTN = RECORD_ST$);
     2160    16715    2           IF RECORD_ST$ -> SCALAR.B.DML_TYPE ~= %RECORD    THEN
     2161    16716    3             DO;
     2162    16717    3               CALL Z8AE$ERROR(%E$ITEM_NOT_A_RECORD,
     2163    16718    3                               RECORD$ -> LX_ITEM.LINE,
     2164    16719    3                               RECORD$ -> LX_ITEM.COLUMN);
     2165    16720    3               ERROR_FLAG = %TRUE;
     2166    16721    3             END;
     2167    16722    2           ELSE
     2168    16723    3             DO;
     2169    16724    3               IF RECORD_ST$ -> SCALAR.B.DML_RVA = %FALSE     THEN
     2170    16725    4                 DO;
     2171    16726    4                   RVA_TYPE = %RVA_RECORD;
     2172    16727    4                   CALL Z9EB$BUILD_RVA_TABLE( RECORD_ST$, RVA_TYPE);
     2173    16728    4                 END;
     2174    16729
     2175    16730    3               CALL MEMBERSHIP( RECORD_ST$, SET_ST$,CODE)
     2176    16731    3                  WHENALTRETURN
     2177    16732    4                  DO;
PL6.E3A0      #005=Z9EB$DML_STATEMENT File=Z9EB.:Z8A6TSI                         SAT 08/09/97 13:50 Page:255
     2178    16733    4                    CALL Z8AE$ERROR(%E$INVALID_MEMBER,
     2179    16734    4                                    RECORD$ -> LX_ITEM.LINE,
     2180    16735    4                                    RECORD$ -> LX_ITEM.COLUMN);
     2181    16736    4                     RETURN;
     2182    16737    4                   END;
     2183    16738    3             END;
     2184    16739    2         END;
     2185    16740
     2186    16741    1       IF ERROR_FLAG = %TRUE            THEN
     2187    16742    1           RETURN;
     2188    16743
     2189    16744    1       CALL Z8EU$CREATE_IDENTIFIER_FROM_ST(O1COM.DML_IA$,ADDR(IA_LX_ITEM) );
     2190    16745
     2191    16746    1       CALL BUILD_PARM( RECORD_ST$, ADDR(RC_LX_ITEM));
     2192    16747    1       ADDR(IA_LX_ITEM) -> LX_ITEM.LINK = ADDR(RC_LX_ITEM);
     2193    16748
     2194    16749    1       CALL BUILD_PARM( SET_ST$, ADDR(SC_AC_LX_ITEM));
     2195    16750    1       ADDR(RC_LX_ITEM) -> LX_ITEM.LINK = ADDR(SC_AC_LX_ITEM);
     2196    16751
     2197    16752    1       CALL Z9EB$BUILD_CODE(CODE,3,ADDR(IA_LX_ITEM) );
     2198    16753
     2199    16754    1       RETURN;
     2200    16755        %EJECT;
PL6.E3A0      #005=Z9EB$DML_STATEMENT File=Z9EB.:Z8A6TSI                         SAT 08/09/97 13:50 Page:256
     2201    16756        /*==========*/
     2202    16757    1     Z9EB$READY :  ENTRY (RECORD_SELECTION$, RETENTION$);
     2203    16758        /*==========*/
     2204    16759
     2205    16760    1   CONST_WORD = 0;
     2206    16761    1   OPTION$ = RETENTION$;
     2207    16762    1   LIST$ = RECORD_SELECTION$;
     2208    16763    1   ERROR_FLAG = %FALSE;
     2209    16764    1   IF OPTION$ = ADDR(NIL)  THEN
     2210    16765    1       RDC_WORD.USAGE_TYPE = %RETRIEVAL;                   /*V*  Default */
     2211    16766    1   ELSE
     2212    16767    1       IF OPTION$ -> LX_TERMINAL.SYMBOL = %RSV_WRD_RETRIEVAL THEN
     2213    16768    1           RDC_WORD.USAGE_TYPE = %RETRIEVAL;
     2214    16769    1       ELSE
     2215    16770    1           IF OPTION$ -> LX_TERMINAL.SYMBOL = %RSV_WRD_UPDATE    THEN
     2216    16771    1               RDC_WORD.USAGE_TYPE = %DML_UPDATE;
     2217    16772    1           ELSE
     2218    16773    1               RDC_WORD.USAGE_TYPE = %LOAD;
     2219    16774
     2220    16775    1   ARG_COUNT = 2;
     2221    16776    1   RVA_TYPE = %RVA_REALM;
     2222    16777    1   LIST_HEAD$ = LIST$;
     2223    16778
     2224    16779    1   IF LIST$ -> LX_ITEM.ID = %LX_LIST  THEN
     2225    16780    2     DO;
     2226    16781    2       LIST$ = LIST$ -> LX_LIST.HEAD$;
     2227    16782
     2228    16783    3       DO WHILE LIST$ ~= ADDR(NIL);
     2229    16784    3         IF LIST$ -> LX_ITEM.B.ERROR     THEN
     2230    16785    3             ERROR_FLAG = %TRUE;
     2231    16786    3         ELSE
     2232    16787    4           DO;
     2233    16788                %FISH( TRIAD = LIST$ -> LX_ETT_ITEM.ETT$, RTN = REALM_ST$);
     2234    16796    4           IF REALM_ST$ -> DML_ITEM.ID ~= %REALM   THEN
     2235    16797    5             DO;
     2236    16798    5               CALL Z8AE$ERROR(%E$ITEM_NOT_REALM,
     2237    16799    5                               LIST$ -> LX_ITEM.LINE,
PL6.E3A0      #005=Z9EB$DML_STATEMENT File=Z9EB.:Z8A6TSI                         SAT 08/09/97 13:50 Page:257
     2238    16800    5                               LIST$ -> LX_ITEM.COLUMN);
     2239    16801    5               ERROR_FLAG = %TRUE;
     2240    16802    5             END;
     2241    16803
     2242    16804    4           ELSE
     2243    16805    4               IF (REALM_ST$ -> DML_ITEM.B.TEMP = %TRUE)    AND
     2244    16806    4                                   (RDC_WORD.USAGE_TYPE = %RETRIEVAL)  THEN
     2245    16807    5                 DO;
     2246    16808    5                   CALL Z8AE$ERROR(%E$ERROR_TEMP_REALM_RETRIEVAL,
     2247    16809    5                                  LIST$ -> LX_ITEM.LINE,
     2248    16810    5                                  LIST$ -> LX_ITEM.COLUMN);
     2249    16811    5                   ERROR_FLAG = %TRUE;
     2250    16812    5                 END;
     2251    16813
     2252    16814    4               ELSE
     2253    16815    5                 DO;
     2254    16816    5                   IF REALM_ST$ -> DML_ITEM.B.DML_RVA = %FALSE      THEN
     2255    16817    5                       CALL Z9EB$BUILD_RVA_TABLE(REALM_ST$,RVA_TYPE);
     2256    16818    5                   CALL BUILD_ETT_PARM( REALM_ST$, LIST$);
     2257    16819    5                   ARG_COUNT = ARG_COUNT + 1;
     2258    16820    5                 END;
     2259    16821    4            END;
     2260    16822    3           LIST$ = LIST$ -> LX_ITEM.LINK;
     2261    16823
     2262    16824    3       END;                                   /*V*   WHILE     */
     2263    16825
     2264    16826    2     END;                                     /*V*  IF LX_LIST */
     2265    16827
     2266    16828    1       IF ERROR_FLAG = %TRUE            THEN
     2267    16829    1           RETURN;
     2268    16830
     2269    16831    1       RDC_WORD.ARGUMENTS = ARG_COUNT - 2;
     2270    16832    1       CALL BUILD_CONST_PARM(CONST_WORD, ADDR(RDC_FC_LX_ITEM));
     2271    16833    1       CALL Z8EU$CREATE_IDENTIFIER_FROM_ST( O1COM.DML_IA$, ADDR(IA_LX_ITEM));
     2272    16834
     2273    16835    1       ADDR(IA_LX_ITEM) -> LX_ITEM.LINK = ADDR(RDC_FC_LX_ITEM);
     2274    16836
PL6.E3A0      #005=Z9EB$DML_STATEMENT File=Z9EB.:Z8A6TSI                         SAT 08/09/97 13:50 Page:258
     2275    16837    1       IF LIST_HEAD$ -> LX_ITEM.ID = %LX_LIST        THEN
     2276    16838    1           ADDR( RDC_FC_LX_ITEM) -> LX_ITEM.LINK = LIST_HEAD$ -> LX_LIST.HEAD$;
     2277    16839
     2278    16840    1       CALL Z9EB$BUILD_CODE(%DBRDY,ARG_COUNT,ADDR(IA_LX_ITEM));
     2279    16841
     2280    16842    1       RETURN;
     2281    16843        %EJECT;
PL6.E3A0      #005=Z9EB$DML_STATEMENT File=Z9EB.:Z8A6TSI                         SAT 08/09/97 13:50 Page:259
     2282    16844        /*===========*/
     2283    16845    1     Z9EB$MODIFY :  ENTRY  (RECORD_SELECTION$, RETENTION$);
     2284    16846        /*===========*/
     2285    16847
     2286    16848    1       IDENT$ = RECORD_SELECTION$;
     2287    16849    1       ALL_SET_LIST$ = RETENTION$;
     2288    16850    1       ERROR_FLAG = %FALSE;
     2289    16851    1       CONTROL_WORD_CONST = 0;
     2290    16852    1       FIELD_LIST_CONTROL = 0;
     2291    16853    1       SET_LIST_CONTROL = 0;
     2292    16854    1       RECORD_ST$ = ADDR(NIL);
     2293    16855
     2294    16856    1       IF IDENT$ -> LX_ITEM.ID = %LX_TERMINAL AND IDENT$ -> LX_ITEM.SYMBOL = %EMPTY
             16856                THEN
     2295    16857    1           RECORD_ST$ = ADDR(NIL);
     2296    16858    1       ELSE
     2297    16859    1           IF IDENT$ -> LX_LIST.COUNT = 1      THEN
     2298    16860    1             IF IDENT$ -> LX_ITEM.B.ERROR     THEN
     2299    16861    1                 ERROR_FLAG = %TRUE;
     2300    16862    1             ELSE
     2301    16863    2             DO;
     2302    16864                    %FISH(TRIAD = IDENT$ -> LX_LIST.HEAD$ -> LX_ETT_ITEM.ETT$,
     2303    16865                          RTN = REC_FIELD_ST$);
     2304    16873    3               DO CASE ( REC_FIELD_ST$ -> SCALAR.B.DML_TYPE );
     2305    16874
     2306    16875    3                   CASE (%RECORD);
     2307    16876    3                       RECORD_ST$ = REC_FIELD_ST$;
     2308    16877    3                       FIELD.COUNT = 0;
     2309    16878
     2310    16879    3                   CASE(%FIELD, %DATA_BASE_KEY);
     2311    16880    3                       RECORD_ST$ = ADDR(NIL);
     2312    16881
     2313    16882    3                   CASE(ELSE);
     2314    16883    3                       CALL Z8AE$ERROR(%E$ITEM_NOT_RECORD_FIELD,
     2315    16884    3                             IDENT$ -> LX_LIST.HEAD$ -> LX_ITEM.LINE,
     2316    16885    3                             IDENT$ -> LX_LIST.HEAD$ -> LX_ITEM.COLUMN);
     2317    16886    3                       RECORD_ST$ = ADDR(NIL);
PL6.E3A0      #005=Z9EB$DML_STATEMENT File=Z9EB.:Z8A6TSI                         SAT 08/09/97 13:50 Page:260
     2318    16887    3                       ERROR_FLAG = %TRUE;
     2319    16888
     2320    16889    3               END;      /*V*   CASE     SCALAR.B.DML_TYPE   */
     2321    16890    2             END;          /*V*   IF COUNT = 1                 */
     2322    16891
     2323    16892    1           ELSE
     2324    16893    1               RECORD_ST$ = ADDR(NIL);
     2325    16894
     2326    16895
     2327    16896    1       IF (RECORD_ST$ = ADDR(NIL)) AND (IDENT$ -> LX_ITEM.ID = %LX_LIST)  THEN
     2328    16897    2         DO;
     2329    16898    2           RVA_TYPE = %RVA_FIELD;
     2330    16899    2           LIST$ = IDENT$ -> LX_LIST.HEAD$;
     2331    16900
     2332    16901    3           DO WHILE LIST$ ~= ADDR(NIL);
     2333    16902
     2334    16903    3             IF LIST$ -> LX_ITEM.B.ERROR    THEN
     2335    16904    3                 ERROR_FLAG = %TRUE;
     2336    16905    3             ELSE
     2337    16906    4              DO;
     2338    16907                    %FISH( TRIAD = LIST$ -> LX_ETT_ITEM.ETT$, RTN = FIELD_ST$);
     2339    16915    4               IF FIELD_ST$ -> SCALAR.B.DML_TYPE ~= %FIELD       AND
     2340    16916    4                    FIELD_ST$ -> SCALAR.B.DML_TYPE ~= %DATA_BASE_KEY   THEN
     2341    16917    5                 DO;
     2342    16918    5                   CALL Z8AE$ERROR(%E$ITEM_NOT_FIELD,
     2343    16919    5                                   LIST$ -> LX_ITEM.LINE,
     2344    16920    5                                   LIST$ -> LX_ITEM.COLUMN);
     2345    16921    5                   ERROR_FLAG = %TRUE;
     2346    16922    5                 END;
     2347    16923    4               ELSE
     2348    16924    5                 DO;
     2349    16925    5                   IF FIELD_ST$ -> SCALAR.B.DML_RVA = %FALSE           THEN
     2350    16926    5                       CALL Z9EB$BUILD_RVA_TABLE(FIELD_ST$,RVA_TYPE);
     2351    16927
     2352    16928    5                   CALL BUILD_ETT_PARM( FIELD_ST$, LIST$);
     2353    16929    5                   FIELD.COUNT = FIELD.COUNT + 1;
     2354    16930
PL6.E3A0      #005=Z9EB$DML_STATEMENT File=Z9EB.:Z8A6TSI                         SAT 08/09/97 13:50 Page:261
     2355    16931    5                 END;
     2356    16932    4              END;
     2357    16933
     2358    16934    3               LIST$ = LIST$ -> LX_ITEM.LINK;
     2359    16935    3           END;
     2360    16936
     2361    16937    2         END;                           /*V*    IF    */
     2362    16938
     2363    16939    1       IF ALL_SET_LIST$ -> LX_ITEM.ID = %LX_TERMINAL AND ALL_SET_LIST$ -> LX_ITEM.
             16939                SYMBOL = %EMPTY      THEN
     2364    16940    2         DO;
     2365    16941    2           CONTROL_WORD_CONST = 0;
     2366    16942    2           SET.COUNT = 0;
     2367    16943    2         END;
     2368    16944
     2369    16945    1       ELSE
     2370    16946
     2371    16947    2         DO;
     2372    16948    2           OPTION$ = ALL_SET_LIST$ -> LX_LIST.HEAD$;
     2373    16949    2           ALL_LIST$ = ALL_SET_LIST$ -> LX_LIST.TAIL$;
     2374    16950
     2375    16951    2           IF OPTION$ -> LX_ITEM.SYMBOL = %RSV_WRD_ONLY   THEN
     2376    16952    2               CONTROL_CONST.ONLY = %TRUE;
     2377    16953    2           IF ALL_LIST$ -> LX_ITEM.ID = %LX_TERMINAL AND ALL_LIST$ -> LX_ITEM.SYMBOL =
             16953                    %RSV_WRD_ALL          THEN
     2378    16954    3             DO;
     2379    16955    3               CONTROL_CONST.ALL = %TRUE;
     2380    16956    3               SET.COUNT = 0;
     2381    16957    3             END;
     2382    16958    2           ELSE
     2383    16959
     2384    16960    3             DO;
     2385    16961    3               LIST$ = ALL_LIST$ -> LX_LIST.HEAD$;
     2386    16962    3               RVA_TYPE = %RVA_SET;
     2387    16963    3               SET.COUNT = 0;
     2388    16964
     2389    16965    4               DO WHILE LIST$ ~= ADDR(NIL);
PL6.E3A0      #005=Z9EB$DML_STATEMENT File=Z9EB.:Z8A6TSI                         SAT 08/09/97 13:50 Page:262
     2390    16966    4                 IF LIST$ ->  LX_ITEM.B.ERROR   THEN
     2391    16967    4                    ERROR_FLAG = %TRUE;
     2392    16968    4                 ELSE
     2393    16969    5                   DO;
     2394    16970                            %FISH( TRIAD = LIST$ -> LX_ETT_ITEM.ETT$, RTN = SET_ST$);
     2395    16978    5                       IF SET_ST$ -> DML_ITEM.ID ~= %DML_SET             THEN
     2396    16979    6                         DO;
     2397    16980    6                           CALL Z8AE$ERROR(%E$ITEM_NOT_A_SET,
     2398    16981    6                                           LIST$ -> LX_ITEM.LINE,
     2399    16982    6                                           LIST$ -> LX_ITEM.COLUMN);
     2400    16983    6                           ERROR_FLAG = %TRUE;
     2401    16984    6                         END;
     2402    16985    5                       ELSE
     2403    16986    6                         DO;
     2404    16987    6                           IF SET_ST$ -> SCALAR.B.DML_RVA = %FALSE      THEN
     2405    16988    6                               CALL Z9EB$BUILD_RVA_TABLE(SET_ST$,RVA_TYPE);
     2406    16989    6                           CALL BUILD_ETT_PARM( SET_ST$, LIST$);
     2407    16990    6                           IF RECORD_ST$ ~= ADDR(NIL)   THEN
     2408    16991    6                             CALL MEMBERSHIP(RECORD_ST$,SET_ST$,%DBMOD)
     2409    16992    6                                WHENALTRETURN
     2410    16993    7                                  DO;
     2411    16994    7                                    CALL Z8AE$ERROR(%E$INVALID_MEMBER,
     2412    16995    7                                                    LIST$ -> LX_ITEM.LINE,
     2413    16996    7                                                    LIST$ -> LX_ITEM.COLUMN);
     2414    16997    7                                 END;
     2415    16998    6                         END;
     2416    16999
     2417    17000    5                       SET.COUNT = SET.COUNT + 1;
     2418    17001    5                   END;
     2419    17002    4                   LIST$ = LIST$ -> LX_ITEM.LINK;
     2420    17003    4               END;
     2421    17004    3             END;
     2422    17005    2         END;
     2423    17006
     2424    17007    1       RVA_TYPE = %RVA_RECORD;
     2425    17008    1       IF RECORD_ST$ = ADDR(NIL)    THEN
     2426    17009    2         DO;
PL6.E3A0      #005=Z9EB$DML_STATEMENT File=Z9EB.:Z8A6TSI                         SAT 08/09/97 13:50 Page:263
     2427    17010    2           IF O1COM.NILL_RVA = %FALSE       THEN
     2428    17011    3             DO;
     2429    17012    3               RVA_TYPE = %RVA_NULL;
     2430    17013    3               CALL Z9EB$BUILD_RVA_TABLE(RECORD_ST$,RVA_TYPE);
     2431    17014    3             END;
     2432    17015    2         END;
     2433    17016
     2434    17017    1       ELSE
     2435    17018    1           IF RECORD_ST$ -> SCALAR.B.DML_RVA = %FALSE    THEN
     2436    17019    1               CALL Z9EB$BUILD_RVA_TABLE(RECORD_ST$,RVA_TYPE);
     2437    17020
     2438    17021    1       IF ERROR_FLAG = %FALSE  THEN
     2439    17022    2         DO;
     2440    17023    2           CALL Z8EU$CREATE_IDENTIFIER_FROM_ST(O1COM.DML_IA$,ADDR(IA_LX_ITEM));
     2441    17024
     2442    17025    2           CALL BUILD_PARM( RECORD_ST$, ADDR(RC_LX_ITEM));
     2443    17026    2           ADDR(IA_LX_ITEM) -> LX_ITEM.LINK = ADDR(RC_LX_ITEM);
     2444    17027
     2445    17028    2           CALL BUILD_CONST_PARM( CONTROL_WORD_CONST, ADDR(MC_LX_ITEM));
     2446    17029    2           ADDR(RC_LX_ITEM) -> LX_ITEM.LINK = ADDR(MC_LX_ITEM);
     2447    17030
     2448    17031    2           CALL BUILD_CONST_PARM( FIELD_LIST_CONTROL, ADDR(FL_ID_LX_ITEM));
     2449    17032    2           ADDR(MC_LX_ITEM) -> LX_ITEM.LINK  = ADDR(FL_ID_LX_ITEM);
     2450    17033
     2451    17034    2           CALL BUILD_CONST_PARM( SET_LIST_CONTROL, ADDR(EC_SL_LX_ITEM));
     2452    17035    2           ADDR(FL_ID_LX_ITEM) -> LX_ITEM.LINK = ADDR(EC_SL_LX_ITEM);
     2453    17036
     2454    17037    2           TAIL$ = ADDR(EC_SL_LX_ITEM);
     2455    17038
     2456    17039    2           IF FIELD.COUNT ~= 0  THEN
     2457    17040    3             DO;
     2458    17041    3               TAIL$ -> LX_ITEM.LINK = IDENT$ -> LX_LIST.HEAD$;
     2459    17042    3               TAIL$ = IDENT$ -> LX_LIST.TAIL$;
     2460    17043    3             END;
     2461    17044
     2462    17045    2           IF SET.COUNT ~= 0                THEN
     2463    17046    2               TAIL$ -> LX_ITEM.LINK = ALL_LIST$ -> LX_LIST.HEAD$;
PL6.E3A0      #005=Z9EB$DML_STATEMENT File=Z9EB.:Z8A6TSI                         SAT 08/09/97 13:50 Page:264
     2464    17047
     2465    17048    2           ARG_COUNT = 5 + FIELD.COUNT + SET.COUNT;
     2466    17049    2           CALL Z9EB$BUILD_CODE(%DBMOD, ARG_COUNT, ADDR(IA_LX_ITEM));
     2467    17050    2         END;
     2468    17051
     2469    17052
     2470    17053    1       IF IDENT$ -> LX_ITEM.ID = %LX_LIST           THEN
     2471    17054    2         DO;
     2472    17055    2           IDENT$ -> LX_LIST.TAIL$ -> LX_ITEM.LINK = ADDR(NIL);
     2473    17056    2           CALL Z8ED$DISPOSE_ABSSYN_TREE(IDENT$ -> LX_LIST.HEAD$);
     2474    17057    2         END;
     2475    17058
     2476    17059    1       IF ALL_SET_LIST$ -> LX_ITEM.ID = %LX_LIST    THEN
     2477    17060    2         DO;
     2478    17061    2           IF SET.COUNT ~= 0            THEN
     2479    17062    2             CALL Z8ED$DISPOSE_ABSSYN_TREE(ALL_LIST$ -> LX_LIST.HEAD$);
     2480    17063    2             CALL Z8ED$DISPOSE_ABSSYN_TREE(ALL_SET_LIST$ -> LX_LIST.HEAD$);
     2481    17064    2         END;
     2482    17065
     2483    17066    1       RETURN;
     2484    17067        %EJECT;
PL6.E3A0      #005=Z9EB$DML_STATEMENT File=Z9EB.:Z8A6TSI                         SAT 08/09/97 13:50 Page:265
     2485    17068        /*==============*/
     2486    17069    1     Z9EB$DUPLICATE :    ENTRY  (RECORD_SELECTION$, RETENTION$);
     2487    17070        /*==============*/
     2488    17071
     2489    17072    1       SET$ = RECORD_SELECTION$ -> LX_LIST.HEAD$;
     2490    17073    1       FIELD_LIST$ = RECORD_SELECTION$ -> LX_LIST.TAIL$;
     2491    17074    1       FIELD_LIST_CONTROL = 0;
     2492    17075    1       ERROR_FLAG = %FALSE;
     2493    17076    1       RVA_TYPE = %RVA_SET;
     2494    17077
     2495    17078    1       IF SET$ -> LX_ITEM.B.ERROR   THEN
     2496    17079    1           ERROR_FLAG = %TRUE;
     2497    17080    1       ELSE
     2498    17081    2         DO;
     2499    17082                %FISH(TRIAD = SET$ -> LX_ETT_ITEM.ETT$, RTN = SET_ST$);
     2500    17090    2           IF SET_ST$ -> DML_ITEM.ID ~= %DML_SET     THEN
     2501    17091    3             DO;
     2502    17092    3               CALL Z8AE$ERROR(%E$ITEM_NOT_A_SET,
     2503    17093    3                               SET$ -> LX_ITEM.LINE,
     2504    17094    3                               SET$ -> LX_ITEM.COLUMN);
     2505    17095    3               ERROR_FLAG = %TRUE;
     2506    17096    3             END;
     2507    17097    2           ELSE
     2508    17098    2               IF SET_ST$ -> DML_ITEM.B.DML_RVA = %FALSE     THEN
     2509    17099    2                   CALL Z9EB$BUILD_RVA_TABLE(SET_ST$,RVA_TYPE);
     2510    17100    2         END;
     2511    17101
     2512    17102    1       CALL RETENTION(RETENTION$,ADDR(RL_LX_ITEM));
     2513    17103    1       IF RETENTION$ ~= ADDR(NIL)       THEN
     2514    17104    1           RETENTION_LIST$ = ADDR(RL_LX_ITEM) -> LX_ITEM.LINK;
     2515    17105    1       ELSE
     2516    17106    2         DO;
     2517    17107    2           RETENTION_LIST$ = ADDR(NIL);
     2518    17108    2           ADDR(RL_LX_ITEM) -> LX_LIST.COUNT = 0;
     2519    17109    2         END;
     2520    17110
     2521    17111    1       LIST$ = FIELD_LIST$ -> LX_LIST.HEAD$;
PL6.E3A0      #005=Z9EB$DML_STATEMENT File=Z9EB.:Z8A6TSI                         SAT 08/09/97 13:50 Page:266
     2522    17112    1       RVA_TYPE = %RVA_FIELD;
     2523    17113    2       DO WHILE LIST$ ~= ADDR(NIL);
     2524    17114
     2525    17115    2         IF LIST$ -> LX_ITEM.B.ERROR     THEN
     2526    17116    2            ERROR_FLAG = %TRUE;
     2527    17117    2         ELSE
     2528    17118    3          DO;
     2529    17119                %FISH( TRIAD = LIST$ -> LX_ETT_ITEM.ETT$, RTN = FIELD_ST$);
     2530    17127    3           IF FIELD_ST$ -> SCALAR.B.DML_TYPE ~= %FIELD             THEN
     2531    17128    4             DO;
     2532    17129    4               CALL Z8AE$ERROR(%E$ITEM_NOT_FIELD,
     2533    17130    4                               LIST$ -> LX_ITEM.LINE,
     2534    17131    4                               LIST$ -> LX_ITEM.COLUMN);
     2535    17132    4               ERROR_FLAG = %TRUE;
     2536    17133    4             END;
     2537    17134    3           ELSE
     2538    17135    4             DO;
     2539    17136    4                IF FIELD_ST$ -> SCALAR.B.DML_RVA = %FALSE           THEN
     2540    17137    4                    CALL Z9EB$BUILD_RVA_TABLE(FIELD_ST$,RVA_TYPE);
     2541    17138
     2542    17139    4               CALL BUILD_ETT_PARM( FIELD_ST$, LIST$);
     2543    17140
     2544    17141    4               FIELD.COUNT = FIELD.COUNT + 1;
     2545    17142    4             END;
     2546    17143    3          END;
     2547    17144    2           LIST$ = LIST$ -> LX_ITEM.LINK;
     2548    17145    2       END;
     2549    17146
     2550    17147    1       IF ERROR_FLAG = %FALSE           THEN
     2551    17148    2         DO;
     2552    17149
     2553    17150    2           CALL Z8EU$CREATE_IDENTIFIER_FROM_ST(O1COM.DML_IA$,ADDR(IA_LX_ITEM));
     2554    17151
     2555    17152    2           CALL BUILD_PARM( SET_ST$, ADDR(SC_AC_LX_ITEM));
     2556    17153    2           ADDR(IA_LX_ITEM) -> LX_ITEM.LINK = ADDR(SC_AC_LX_ITEM);
     2557    17154
     2558    17155    2           CALL BUILD_CONST_PARM( FIELD_LIST_CONTROL, ADDR(FL_ID_LX_ITEM));
PL6.E3A0      #005=Z9EB$DML_STATEMENT File=Z9EB.:Z8A6TSI                         SAT 08/09/97 13:50 Page:267
     2559    17156    2           ADDR(SC_AC_LX_ITEM) -> LX_ITEM.LINK = ADDR(FL_ID_LX_ITEM);
     2560    17157    2           ADDR(FL_ID_LX_ITEM) -> LX_ITEM.LINK = ADDR(RL_LX_ITEM);
     2561    17158
     2562    17159    2           ADDR(RL_LX_ITEM) -> LX_ITEM.LINK = FIELD_LIST$ -> LX_LIST.HEAD$;
     2563    17160    2           FIELD_LIST$ -> LX_LIST.TAIL$ -> LX_ITEM.LINK = RETENTION_LIST$;
     2564    17161    2           ARG_COUNT = 4 + FIELD.COUNT + ADDR(RL_LX_ITEM) -> LX_LIST.COUNT;
     2565    17162
     2566    17163    2           CALL Z9EB$BUILD_CODE(%DBFDP, ARG_COUNT, ADDR(IA_LX_ITEM));
     2567    17164
     2568    17165    2           FIELD_LIST$ -> LX_LIST.TAIL$ -> LX_ITEM.LINK = ADDR(NIL);
     2569    17166
     2570    17167    2         END;               /*V*  IF ERROR_FLAG  */
     2571    17168
     2572    17169    1       CALL Z8ED$DISPOSE_ABSSYN_TREE(FIELD_LIST$ -> LX_LIST.HEAD$);
     2573    17170
     2574    17171    1       RETURN;
     2575    17172        %EJECT;
PL6.E3A0      #005=Z9EB$DML_STATEMENT File=Z9EB.:Z8A6TSI                         SAT 08/09/97 13:50 Page:268
     2576    17173        /*==================*/
     2577    17174    1     Z9EB$FIND_WITH_KEY :   ENTRY(RECORD_SELECTION$,RETENTION$);
     2578    17175        /*==================*/
     2579    17176
     2580    17177    1       RECORD$ = RECORD_SELECTION$ -> LX_LIST.HEAD$;
     2581    17178    1       IDENT_LIST$ = RECORD_SELECTION$ -> LX_LIST.TAIL$;
     2582    17179    1       SET$ = RECORD$ -> LX_LIST.LINK;
     2583    17180    1       OPTION$ = SET$ -> LX_ITEM.LINK;
     2584    17181    1       ERROR_FLAG = %FALSE;
     2585    17182    1       FIELD_LIST_CONTROL = 0;
     2586    17183
     2587    17184    1       IF RECORD$ -> LX_ITEM.B.ERROR    OR   SET$ -> LX_ITEM.B.ERROR  THEN
     2588    17185    1           ERROR_FLAG = %TRUE;
     2589    17186    1       ELSE
     2590    17187    2         DO;
     2591    17188                %FISH( TRIAD = RECORD$ -> LX_ETT_ITEM.ETT$, RTN = RECORD_ST$);
     2592    17196                %FISH( TRIAD = SET$ -> LX_ETT_ITEM.ETT$, RTN = SET_ST$);
     2593    17204
     2594    17205    2           IF RECORD_ST$ -> SCALAR.B.DML_TYPE ~= %RECORD    THEN
     2595    17206    3             DO;
     2596    17207    3               CALL Z8AE$ERROR(%E$ITEM_NOT_A_RECORD,
     2597    17208    3                               RECORD$ -> LX_ITEM.LINE,
     2598    17209    3                               RECORD$ -> LX_ITEM.COLUMN);
     2599    17210    3               ERROR_FLAG = %TRUE;
     2600    17211    3             END;
     2601    17212    2           IF SET_ST$ -> DML_ITEM.ID ~= %DML_SET            THEN
     2602    17213    3             DO;
     2603    17214    3               CALL Z8AE$ERROR(%E$ITEM_NOT_A_SET,
     2604    17215    3                               SET$ -> LX_ITEM.LINE,
     2605    17216    3                               SET$ -> LX_ITEM.COLUMN);
     2606    17217    3               ERROR_FLAG = %FALSE;
     2607    17218    3             END;
     2608    17219    2         END;
     2609    17220
     2610    17221    1       IF ERROR_FLAG = %FALSE    THEN
     2611    17222    2         DO;
     2612    17223    2           CALL MEMBERSHIP(RECORD_ST$,SET_ST$,%DBFKY)
PL6.E3A0      #005=Z9EB$DML_STATEMENT File=Z9EB.:Z8A6TSI                         SAT 08/09/97 13:50 Page:269
     2613    17224    2             WHENALTRETURN
     2614    17225    3              DO;
     2615    17226    3                 CALL Z8AE$ERROR(%E$INVALID_MEMBER,
     2616    17227    3                                 RECORD$ -> LX_ITEM.LINE,
     2617    17228    3                                 RECORD$ -> LX_ITEM.COLUMN);
     2618    17229    3              END;
     2619    17230    2           IF RECORD_ST$ -> SCALAR.B.DML_RVA = %FALSE    THEN
     2620    17231    3             DO;
     2621    17232    3               RVA_TYPE = %RVA_RECORD;
     2622    17233    3               CALL Z9EB$BUILD_RVA_TABLE(RECORD_ST$,RVA_TYPE);
     2623    17234    3             END;
     2624    17235
     2625    17236    2           IF SET_ST$ -> DML_ITEM.B.DML_RVA = %FALSE    THEN
     2626    17237    3             DO;
     2627    17238    3               RVA_TYPE = %RVA_SET;
     2628    17239    3               CALL Z9EB$BUILD_RVA_TABLE(SET_ST$, RVA_TYPE);
     2629    17240    3             END;
     2630    17241
     2631    17242    2         END;
     2632    17243
     2633    17244    1       RVA_TYPE = %RVA_FIELD;
     2634    17245    1       IF IDENT_LIST$ -> LX_ITEM.ID = %LX_LIST    THEN
     2635    17246    2         DO;
     2636    17247    2           LIST$ = IDENT_LIST$ -> LX_LIST.HEAD$;
     2637    17248    3           DO WHILE LIST$ ~= ADDR(NIL);
     2638    17249
     2639    17250    3             IF LIST$ -> LX_ITEM.B.ERROR   THEN
     2640    17251    3               ERROR_FLAG = %TRUE;
     2641    17252    3             ELSE
     2642    17253    4               DO;
     2643    17254                      %FISH(TRIAD = LIST$ -> LX_ETT_ITEM.ETT$, RTN = FIELD_ST$);
     2644    17262    4                 IF FIELD_ST$ -> SCALAR.B.DML_TYPE  ~= %FIELD    THEN
     2645    17263    5                   DO;
     2646    17264    5                     CALL Z8AE$ERROR(%E$ITEM_NOT_FIELD,
     2647    17265    5                                     LIST$ -> LX_ITEM.LINE,
     2648    17266    5                                     LIST$ -> LX_ITEM.COLUMN);
     2649    17267    5                     ERROR_FLAG = %TRUE;
PL6.E3A0      #005=Z9EB$DML_STATEMENT File=Z9EB.:Z8A6TSI                         SAT 08/09/97 13:50 Page:270
     2650    17268    5                   END;
     2651    17269    4                 ELSE
     2652    17270    5                   DO;
     2653    17271    5                     SON = %FALSE;
     2654    17272    5                     QLT_FATHER$ = FIELD_ST$ -> SCALAR.QLT$ -> QLT.FATHER;
     2655    17273
     2656    17274    6                     DO UNTIL QLT_FATHER$ = ADDR(NIL);
     2657    17275    6                         IF RECORD_ST$ = QLT_FATHER$ -> QLT.ST$   THEN
     2658    17276    7                           DO;
     2659    17277    7                             SON = %TRUE;
     2660    17278    7                             QLT_FATHER$ = ADDR(NIL);
     2661    17279    7                           END;
     2662    17280    6                         ELSE
     2663    17281    6                             QLT_FATHER$ = QLT_FATHER$ -> QLT.FATHER;
     2664    17282    6                     END;
     2665    17283
     2666    17284    5                     IF SON = %FALSE   THEN
     2667    17285    6                       DO;
     2668    17286    6                         CALL Z8AE$ERROR(%E$FIELD_NOT_IN_RECORD,
     2669    17287    6                                         LIST$ -> LX_ITEM.LINE,
     2670    17288    6                                         LIST$ -> LX_ITEM.COLUMN);
     2671    17289    6                       END;
     2672    17290    5                   END;
     2673    17291    4               END;
     2674    17292
     2675    17293    3               IF ERROR_FLAG = %FALSE       THEN
     2676    17294    4                 DO;
     2677    17295    4                   IF FIELD_ST$ -> SCALAR.B.DML_RVA = %FALSE     THEN
     2678    17296    4                       CALL Z9EB$BUILD_RVA_TABLE(FIELD_ST$,RVA_TYPE);
     2679    17297
     2680    17298    4                   CALL BUILD_ETT_PARM( FIELD_ST$, LIST$);
     2681    17299    4                   FIELD.COUNT = FIELD.COUNT + 1;
     2682    17300    4                 END;
     2683    17301    3               LIST$ = LIST$ -> LX_ITEM.LINK;
     2684    17302    3           END;                             /*V*   WHILE  LIST ~= ADDR(NIL) */
     2685    17303    2         END;
     2686    17304
PL6.E3A0      #005=Z9EB$DML_STATEMENT File=Z9EB.:Z8A6TSI                         SAT 08/09/97 13:50 Page:271
     2687    17305    1       CALL RETENTION(RETENTION$,ADDR(RL_LX_ITEM));
     2688    17306
     2689    17307    1       IF ERROR_FLAG = %FALSE           THEN
     2690    17308    2         DO;
     2691    17309
     2692    17310    2           IF OPTION$ -> LX_ITEM.SYMBOL = %EMPTY    THEN
     2693    17311    2               CODE = %DBFKY;
     2694    17312    2           ELSE
     2695    17313    2               CODE = %DBFKC;
     2696    17314
     2697    17315    2           CALL Z8EU$CREATE_IDENTIFIER_FROM_ST(O1COM.DML_IA$,ADDR(IA_LX_ITEM));
     2698    17316
     2699    17317    2           CALL BUILD_PARM( RECORD_ST$, ADDR(RC_LX_ITEM));
     2700    17318    2           ADDR(IA_LX_ITEM) -> LX_ITEM.LINK = ADDR(RC_LX_ITEM);
     2701    17319
     2702    17320    2           CALL BUILD_PARM( SET_ST$, ADDR(SC_AC_LX_ITEM));
     2703    17321    2           ADDR(RC_LX_ITEM) -> LX_ITEM.LINK = ADDR(SC_AC_LX_ITEM);
     2704    17322
     2705    17323    2           CALL BUILD_CONST_PARM( FIELD_LIST_CONTROL, ADDR(FL_ID_LX_ITEM));
     2706    17324    2           ADDR(SC_AC_LX_ITEM) -> LX_ITEM.LINK = ADDR(FL_ID_LX_ITEM);
     2707    17325
     2708    17326    2           ADDR(FL_ID_LX_ITEM) -> LX_ITEM.LINK = ADDR(RL_LX_ITEM);
     2709    17327
     2710    17328    2           IF RETENTION$ ~= ADDR(NIL)   THEN
     2711    17329    2               RETENTION_LIST$ = ADDR(RL_LX_ITEM) -> LX_ITEM.LINK;
     2712    17330    2           ELSE
     2713    17331    3             DO;
     2714    17332    3               RETENTION_LIST$ = ADDR(NIL);
     2715    17333    3               ADDR(RL_LX_ITEM) -> LX_LIST.COUNT = 0;
     2716    17334    3             END;
     2717    17335
     2718    17336    2           ADDR(RL_LX_ITEM) -> LX_ITEM.LINK = IDENT_LIST$ -> LX_LIST.HEAD$;
     2719    17337
     2720    17338    2           IF FIELD.COUNT ~= 0   THEN
     2721    17339    2               IDENT_LIST$ -> LX_LIST.TAIL$ -> LX_ITEM.LINK = RETENTION_LIST$;
     2722    17340    2           ELSE
     2723    17341    2               ADDR(RL_LX_ITEM) -> LX_ITEM.LINK = RETENTION_LIST$;
PL6.E3A0      #005=Z9EB$DML_STATEMENT File=Z9EB.:Z8A6TSI                         SAT 08/09/97 13:50 Page:272
     2724    17342
     2725    17343    2           ARG_COUNT = 5 + FIELD.COUNT + ADDR(RL_LX_ITEM) -> LX_LIST.COUNT;
     2726    17344
     2727    17345    2           CALL Z9EB$BUILD_CODE(CODE, ARG_COUNT, ADDR(IA_LX_ITEM));
     2728    17346
     2729    17347    2           IF FIELD.COUNT ~= 0  THEN
     2730    17348    2               IDENT_LIST$ -> LX_LIST.TAIL$ -> LX_ITEM.LINK = ADDR(NIL);
     2731    17349
     2732    17350    2         END;                           /*V*  IF ERROR_FLAG   */
     2733    17351
     2734    17352    1       IF IDENT_LIST$ -> LX_ITEM.ID = %LX_LIST   THEN
     2735    17353    1           CALL Z8ED$DISPOSE_ABSSYN_TREE(IDENT_LIST$ -> LX_LIST.HEAD$);
     2736    17354
     2737    17355    1       RETURN;
     2738    17356        %EJECT;
PL6.E3A0      #005=Z9EB$DML_STATEMENT File=Z9EB.:Z8A6TSI                         SAT 08/09/97 13:50 Page:273
     2739    17357        /*============*/
     2740    17358    1     Z9EB$DB_COMPARE :   ENTRY  ( RECORD_SELECTION$,RETENTION$);
     2741    17359        /*============*/
     2742    17360
     2743    17361
     2744    17362    1   SET$ = RECORD_SELECTION$ ->  UNARY_OP.LOP$;
     2745    17363
     2746    17364    1   IF SET$ -> LX_ITEM.ID = %LX_TERMINAL AND  SET$ -> LX_ITEM.SYMBOL = %EMPTY   THEN
     2747    17365    2     DO;
     2748    17366    2       CODE = %DBIFT;
     2749    17367    2       ARG_COUNT = 2;
     2750    17368    2     END;
     2751    17369
     2752    17370    1   ELSE
     2753    17371    2     DO;
     2754    17372    2       ARG_COUNT = 3;
     2755    17373    2       CODE = %DBIST;
     2756    17374    2       RVA_TYPE = %RVA_SET;
     2757    17375
     2758    17376    2       IF SET$ -> LX_ITEM.B.ERROR   THEN
     2759    17377    2          ERROR_FLAG = %TRUE;
     2760    17378    2       ELSE
     2761    17379    3         DO;
     2762    17380                %FISH(TRIAD = SET$ -> LX_ETT_ITEM.ETT$, RTN = SET_ST$);
     2763    17388
     2764    17389    3           IF SET_ST$ -> DML_ITEM.ID ~= %DML_SET    THEN
     2765    17390    4             DO;
     2766    17391    4               CALL Z8AE$ERROR(%E$ITEM_NOT_A_SET,
     2767    17392    4                               SET$ -> LX_ITEM.LINE,
     2768    17393    4                               SET$ -> LX_ITEM.COLUMN);
     2769    17394    4               RETENTION$ = ADDR(NIL);
     2770    17395    4               RETURN;
     2771    17396    4             END;
     2772    17397
     2773    17398    3           IF SET_ST$ -> DML_ITEM.B.DML_RVA = %FALSE   THEN
     2774    17399    3               CALL Z9EB$BUILD_RVA_TABLE( SET_ST$, RVA_TYPE);
     2775    17400    3         END;
PL6.E3A0      #005=Z9EB$DML_STATEMENT File=Z9EB.:Z8A6TSI                         SAT 08/09/97 13:50 Page:274
     2776    17401    2     END;
     2777    17402
     2778    17403    1   CONST_WORD = 0;
     2779    17404    1   IF RECORD_SELECTION$ -> UNARY_OP.OP = %OP_OWNER      OR
     2780    17405    1             RECORD_SELECTION$ -> UNARY_OP.OP = %OP_TENANT    THEN
     2781    17406    1       TENANT.OWNER = %TRUE;
     2782    17407    1   IF RECORD_SELECTION$ -> UNARY_OP.OP = %OP_MEMBER     OR
     2783    17408    1             RECORD_SELECTION$ -> UNARY_OP.OP = %OP_TENANT    THEN
     2784    17409    1       TENANT.MEMBER = %TRUE;
     2785    17410
     2786    17411    1   CALL Z8EU$CREATE_IDENTIFIER_FROM_ST(O1COM.DML_IA$,ADDR(IA_LX_ITEM));
     2787    17412
     2788    17413    1   CALL BUILD_CONST_PARM(CONST_WORD, ADDR(FL_ID_LX_ITEM) );
     2789    17414    1   ADDR(IA_LX_ITEM) -> LX_ITEM.LINK = ADDR(FL_ID_LX_ITEM);
     2790    17415
     2791    17416    1   IF CODE = %DBIST  THEN
     2792    17417    2     DO;
     2793    17418    2       CALL BUILD_PARM(SET_ST$, ADDR(SC_AC_LX_ITEM));
     2794    17419    2       ADDR(FL_ID_LX_ITEM) -> LX_ITEM.LINK = ADDR(SC_AC_LX_ITEM);
     2795    17420    2     END;
     2796    17421
     2797    17422    1   CALL Z9EB$BUILD_CODE(CODE, ARG_COUNT, ADDR(IA_LX_ITEM));
     2798    17423
     2799    17424        /*V*   POINT UNARY_OP.LOP   TO   .UWA + 0     */
     2800    17425
     2801    17426    1   SET$ -> LX_ETT_ITEM.TYPE = %TYI;
     2802    17427        %SRCH_ETT(@ID = %BASE,
     2803    17428                  @LOP  = O1COM.UWA_PLUS_ZERO$,
     2804    17429                  @ROP = "ADDR(NIL)",
     2805    17430                  @ETT$ = SET$ -> LX_ETT_ITEM.ETT$);
     2806    17445    1   SET$ -> LX_ITEM.ID = %LX_ETT_ITEM;
     2807    17446
     2808    17447    1   RETURN;
     2809    17448        %EJECT;
PL6.E3A0      #005=Z9EB$DML_STATEMENT File=Z9EB.:Z8A6TSI                         SAT 08/09/97 13:50 Page:275
     2810    17449        /*==================*/
     2811    17450    1     Z9EB$COMPARE_EMPTY :  ENTRY ( RECORD_SELECTION$, RETENTION$ );
     2812    17451        /*==================*/
     2813    17452
     2814    17453
     2815    17454    1   SET$ = RECORD_SELECTION$ -> UNARY_OP.LOP$;
     2816    17455    1   RVA_TYPE = %RVA_SET;
     2817    17456
     2818    17457    1   IF SET$ -> LX_ITEM.B.ERROR       THEN
     2819    17458    2     DO;
     2820    17459    2       RETENTION$ = ADDR(NIL);
     2821    17460    2       RETURN;
     2822    17461    2     END;
     2823    17462
     2824    17463        %FISH( TRIAD = SET$ -> LX_ETT_ITEM.ETT$, RTN = SET_ST$);
     2825    17471
     2826    17472    1   IF SET_ST$ -> DML_ITEM.ID ~= %DML_SET    THEN
     2827    17473    2     DO;
     2828    17474    2       CALL Z8AE$ERROR(%E$ITEM_NOT_A_SET,
     2829    17475    2                       SET$ -> LX_ITEM.LINE,
     2830    17476    2                       SET$ -> LX_ITEM.COLUMN);
     2831    17477    2       RETENTION$ = ADDR(NIL);
     2832    17478    2       RETURN;
     2833    17479    2     END;
     2834    17480
     2835    17481    1   IF SET_ST$ -> DML_ITEM.B.DML_RVA = %FALSE   THEN
     2836    17482    1       CALL Z9EB$BUILD_RVA_TABLE( SET_ST$, RVA_TYPE);
     2837    17483
     2838    17484    1   CALL Z8EU$CREATE_IDENTIFIER_FROM_ST( O1COM.DML_IA$, ADDR(IA_LX_ITEM));
     2839    17485    1   CALL BUILD_PARM( SET_ST$, ADDR(SC_AC_LX_ITEM));
     2840    17486    1   ADDR(IA_LX_ITEM) -> LX_ITEM.LINK = ADDR(SC_AC_LX_ITEM);
     2841    17487
     2842    17488    1   CALL Z9EB$BUILD_CODE( %DBIFM, 2, ADDR(IA_LX_ITEM));
     2843    17489
     2844    17490    1   SET$ -> LX_ETT_ITEM.TYPE = %TYI;
     2845    17491        %SRCH_ETT(@ID = %BASE,
     2846    17492                  @LOP = O1COM.UWA_PLUS_ZERO$,
PL6.E3A0      #005=Z9EB$DML_STATEMENT File=Z9EB.:Z8A6TSI                         SAT 08/09/97 13:50 Page:276
     2847    17493                  @ROP = "ADDR(NIL)",
     2848    17494                  @ETT$ = SET$ -> LX_ETT_ITEM.ETT$);
     2849    17509
     2850    17510    1   RETURN;
     2851    17511        %EJECT;
PL6.E3A0      #005=Z9EB$DML_STATEMENT File=Z9EB.:Z8A6TSI                         SAT 08/09/97 13:50 Page:277
     2852    17512        /*===============*/
     2853    17513    1    Z9EB$FIND_USING :  ENTRY (RECORD_SELECTION$, RETENTION$);
     2854    17514        /*==============*/
     2855    17515
     2856    17516    1   OPTION$ = RECORD_SELECTION$ -> LX_LIST.HEAD$;
     2857    17517    1   RECORD$ = OPTION$ ->  LX_ITEM.LINK;
     2858    17518    1   KEY$ = RECORD_SELECTION$ -> LX_LIST.TAIL$;
     2859    17519    1   ERROR_FLAG = %FALSE;
     2860    17520    1   ARG_COUNT = 5;
     2861    17521
     2862    17522        /*V*     Check Record Item      */
     2863    17523
     2864    17524    1   IF RECORD$ ->LX_ITEM.ID = %LX_TERMINAL AND  RECORD$ -> LX_ITEM.SYMBOL = %EMPTY  THEN
     2865    17525    2     DO;
     2866    17526    2       IF O1COM.NILL_RVA = %FALSE       THEN
     2867    17527    3         DO;
     2868    17528    3           RVA_TYPE = %RVA_NULL;
     2869    17529    3           CALL Z9EB$BUILD_RVA_TABLE( ADDR(NIL), RVA_TYPE );
     2870    17530    3         END;
     2871    17531    2       RECORD_ST$ = ADDR(NIL);
     2872    17532    2     END;
     2873    17533
     2874    17534    1   ELSE
     2875    17535    1    IF RECORD$ -> LX_ITEM.B.ERROR   THEN
     2876    17536    1       ERROR_FLAG = %TRUE;
     2877    17537    1    ELSE
     2878    17538    2     DO;
     2879    17539            %FISH( TRIAD = RECORD$ -> LX_ETT_ITEM.ETT$, RTN = RECORD_ST$);
     2880    17547    2       IF RECORD_ST$ -> SCALAR.B.DML_TYPE ~= %RECORD    THEN
     2881    17548    3         DO;
     2882    17549    3           CALL Z8AE$ERROR(%E$ITEM_NOT_A_RECORD,
     2883    17550    3                           RECORD$ -> LX_ITEM.LINE,
     2884    17551    3                           RECORD$ -> LX_ITEM.COLUMN);
     2885    17552    3           ERROR_FLAG = %FALSE;
     2886    17553    3         END;
     2887    17554    2       ELSE
     2888    17555    2         IF RECORD_ST$ -> SCALAR.B.DML_RVA = %FALSE         THEN
PL6.E3A0      #005=Z9EB$DML_STATEMENT File=Z9EB.:Z8A6TSI                         SAT 08/09/97 13:50 Page:278
     2889    17556    3           DO;
     2890    17557    3             RVA_TYPE = %RVA_RECORD;
     2891    17558    3             CALL Z9EB$BUILD_RVA_TABLE(RECORD_ST$, RVA_TYPE);
     2892    17559    3           END;
     2893    17560    2     END;
     2894    17561
     2895    17562        /*V*      Check Record Key       */
     2896    17563
     2897    17564    1   IF KEY$ -> LX_ITEM.B.ERROR    THEN
     2898    17565    1      ERROR_FLAG = %TRUE;
     2899    17566    1   ELSE
     2900    17567    2     DO;
     2901    17568            %FISH( TRIAD = KEY$ -> LX_ETT_ITEM.ETT$, RTN = KEY_ST$);
     2902    17576    2       IF KEY_ST$ -> DML_ITEM.ID ~= %DML_KEY       THEN
     2903    17577    3         DO;
     2904    17578    3           CALL Z8AE$ERROR( %E$ITEM_NOT_A_KEY,
     2905    17579    3                           KEY$ -> LX_ITEM.LINE,
     2906    17580    3                           KEY$ -> LX_ITEM.COLUMN);
     2907    17581    3           ERROR_FLAG = %TRUE;
     2908    17582    3         END;
     2909    17583    2     END;
     2910    17584
     2911    17585    1   CALL RETENTION( RETENTION$, ADDR(RL_LX_ITEM));
     2912    17586
     2913    17587    1   IF ERROR_FLAG = %TRUE         THEN
     2914    17588    1       RETURN;
     2915    17589
     2916    17590    1   IF KEY_ST$ -> DML_ITEM.B.DML_RVA = %FALSE   THEN
     2917    17591    2     DO;
     2918    17592    2       RVA_TYPE = %RVA_SET;
     2919    17593    2       CALL Z9EB$BUILD_RVA_TABLE( KEY_ST$, RVA_TYPE);
     2920    17594    2     END;
     2921    17595
     2922    17596    1   CONST_WORD = 0;
     2923    17597    1   ARG_COUNT =  ARG_COUNT + ADDR(RL_LX_ITEM) -> LX_LIST.COUNT;
     2924    17598
     2925    17599    1   CALL Z8EU$CREATE_IDENTIFIER_FROM_ST(O1COM.DML_IA$, ADDR(IA_LX_ITEM));
PL6.E3A0      #005=Z9EB$DML_STATEMENT File=Z9EB.:Z8A6TSI                         SAT 08/09/97 13:50 Page:279
     2926    17600
     2927    17601    1   IF OPTION$ -> LX_ITEM.SYMBOL = %RSV_WRD_FIRST   THEN
     2928    17602    1       FIND_CONTROL.STATUS = 0;
     2929    17603    1   ELSE            /*V*  %RSV_WRD_NEXT  */
     2930    17604    1       FIND_CONTROL.STATUS = 1;
     2931    17605
     2932    17606    1   CALL BUILD_CONST_PARM(CONST_WORD, ADDR(RDC_FC_LX_ITEM));
     2933    17607    1   ADDR(IA_LX_ITEM) -> LX_ITEM.LINK = ADDR(RDC_FC_LX_ITEM);
     2934    17608
     2935    17609    1   CALL BUILD_PARM( RECORD_ST$, ADDR(RC_LX_ITEM));
     2936    17610    1   ADDR(RDC_FC_LX_ITEM) -> LX_ITEM.LINK = ADDR(RC_LX_ITEM);
     2937    17611
     2938    17612    1   CALL BUILD_PARM( KEY_ST$, ADDR(SC_AC_LX_ITEM));
     2939    17613    1   ADDR(RC_LX_ITEM) -> LX_ITEM.LINK = ADDR(SC_AC_LX_ITEM);
     2940    17614
     2941    17615    1   ADDR(SC_AC_LX_ITEM) -> LX_ITEM.LINK = ADDR(RL_LX_ITEM);
     2942    17616
     2943    17617    1   CALL Z9EB$BUILD_CODE(%DBFRI,ARG_COUNT,ADDR(IA_LX_ITEM));
     2944    17618
     2945    17619    1   RETURN;
     2946    17620        %EJECT;
PL6.E3A0      #005=Z9EB$DML_STATEMENT File=Z9EB.:Z8A6TSI                         SAT 08/09/97 13:50 Page:280
     2947    17621        /*==================*/
     2948    17622    1     Z9EB$FIND_USING_KEY :  ENTRY (RECORD_SELECTION$, RETENTION$);
     2949    17623        /*===================*/
     2950    17624
     2951    17625    1   RECORD$ = RECORD_SELECTION$ -> LX_LIST.HEAD$;
     2952    17626    1   KEY$ = RECORD_SELECTION$ -> LX_LIST.TAIL$;
     2953    17627    1   ERROR_FLAG = %FALSE;
     2954    17628
     2955    17629    1   IF KEY$ -> LX_ITEM.B.ERROR   THEN
     2956    17630    1       ERROR_FLAG = %TRUE;
     2957    17631    1   ELSE
     2958    17632    2     DO;
     2959    17633            %FISH( TRIAD = KEY$ -> LX_ETT_ITEM.ETT$, RTN = KEY_ST$);
     2960    17641    2       IF KEY_ST$ -> DML_ITEM.ID ~= %DML_KEY   THEN
     2961    17642    3         DO;
     2962    17643    3           CALL Z8AE$ERROR(%E$ITEM_NOT_A_KEY,
     2963    17644    3                           KEY$ -> LX_ITEM.LINE,
     2964    17645    3                           KEY$ -> LX_ITEM.COLUMN);
     2965    17646    3           ERROR_FLAG = %TRUE;
     2966    17647    3         END;
     2967    17648    2       ELSE
     2968    17649    2        IF KEY_ST$ -> DML_ITEM.B.DML_RVA = %FALSE     THEN
     2969    17650    3         DO;
     2970    17651    3           RVA_TYPE = %RVA_SET;
     2971    17652    3           CALL Z9EB$BUILD_RVA_TABLE(KEY_ST$,RVA_TYPE);
     2972    17653    3         END;
     2973    17654    2     END;
     2974    17655
     2975    17656    1   IF RECORD$ -> LX_ITEM.B.ERROR   THEN
     2976    17657    1       ERROR_FLAG = %TRUE;
     2977    17658    1   ELSE
     2978    17659    2     DO;
     2979    17660            %FISH( TRIAD = RECORD$ -> LX_ETT_ITEM.ETT$, RTN = RECORD_ST$);
     2980    17668    2       IF RECORD_ST$ -> SCALAR.B.DML_TYPE ~= %RECORD    THEN
     2981    17669    3         DO;
     2982    17670    3           CALL Z8AE$ERROR(%E$ITEM_NOT_A_RECORD,
     2983    17671    3                           RECORD$ -> LX_ITEM.LINE,
PL6.E3A0      #005=Z9EB$DML_STATEMENT File=Z9EB.:Z8A6TSI                         SAT 08/09/97 13:50 Page:281
     2984    17672    3                           RECORD$ -> LX_ITEM.COLUMN);
     2985    17673    3           ERROR_FLAG = %TRUE;
     2986    17674    3         END;
     2987    17675    2       ELSE
     2988    17676    2        IF RECORD_ST$ -> SCALAR.B.DML_RVA = %FALSE    THEN
     2989    17677    3         DO;
     2990    17678    3           RVA_TYPE = %RVA_RECORD;
     2991    17679    3           CALL Z9EB$BUILD_RVA_TABLE(RECORD_ST$, RVA_TYPE);
     2992    17680    3         END;
     2993    17681    2     END;
     2994    17682
     2995    17683    1   CALL RETENTION( RETENTION$, ADDR(RL_LX_ITEM));
     2996    17684
     2997    17685    1   IF ERROR_FLAG = %TRUE   THEN
     2998    17686    1      RETURN;
     2999    17687
     3000    17688    1   CALL Z8EU$CREATE_IDENTIFIER_FROM_ST(O1COM.DML_IA$, ADDR(IA_LX_ITEM));
     3001    17689    1   CALL BUILD_PARM(RECORD_ST$, ADDR(RC_LX_ITEM));
     3002    17690    1   ADDR(IA_LX_ITEM) -> LX_ITEM.LINK = ADDR(RC_LX_ITEM);
     3003    17691
     3004    17692    1   CALL BUILD_PARM(KEY_ST$, ADDR(SC_AC_LX_ITEM));
     3005    17693    1   ADDR(RC_LX_ITEM) -> LX_ITEM.LINK = ADDR(SC_AC_LX_ITEM);
     3006    17694    1   ADDR(SC_AC_LX_ITEM) -> LX_ITEM.LINK = ADDR(RL_LX_ITEM);
     3007    17695
     3008    17696    1   ARG_COUNT = 4 + ADDR(RL_LX_ITEM) -> LX_LIST.COUNT;
     3009    17697
     3010    17698    1   CALL Z9EB$BUILD_CODE(%DBFUI,ARG_COUNT,ADDR(IA_LX_ITEM));
     3011    17699
     3012    17700    1   RETURN;
     3013    17701        %EJECT;
PL6.E3A0      #005=Z9EB$DML_STATEMENT File=Z9EB.:Z8A6TSI                         SAT 08/09/97 13:50 Page:282
     3014    17702        /*=================*/
     3015    17703    1     Z9EB$FIND_CURRENT :  ENTRY(RECORD_SELECTION$, RETENTION$);
     3016    17704        /*=================*/
     3017    17705
     3018    17706    1   RECORD$ = RECORD_SELECTION$ -> LX_LIST.HEAD$;
     3019    17707    1   ERROR_FLAG = %FALSE;
     3020    17708
     3021    17709    1   IF RECORD$ -> LX_ITEM.B.ERROR  THEN
     3022    17710    1     ERROR_FLAG = %TRUE;
     3023    17711    1   ELSE
     3024    17712    2     DO;
     3025    17713                                                                   /*#29931*/
     3026    17714    2       IF RECORD$ -> LX_ITEM.ID = %LX_TERMINAL AND RECORD$ -> LX_ITEM.SYMBOL = %EMPTY
             17714                THEN
     3027    17715    3         DO;
     3028    17716    3           ARG_COUNT = 2;
     3029    17717    3           CODE = %DBFCR;
     3030    17718    3         END;
     3031    17719    2       ELSE
     3032    17720    3         DO;
     3033    17721    3           CODE = %DBFCT;
     3034    17722    3           ARG_COUNT = 3;
     3035    17723                %FISH( TRIAD = RECORD$ -> LX_ETT_ITEM.ETT$,
     3036    17724                       RTN = RECORD_ST$);
     3037    17732    3           IF RECORD_ST$ -> VARIABLE.B.DML_TYPE ~= %RECORD   THEN
     3038    17733    4             DO;
     3039    17734    4               CALL Z8AE$ERROR( %E$ITEM_NOT_A_RECORD,
     3040    17735    4                                RECORD$ -> LX_ITEM.LINE,
     3041    17736    4                                RECORD$ -> LX_ITEM.COLUMN);
     3042    17737    4               ERROR_FLAG = %TRUE;
     3043    17738    4             END;
     3044    17739    3           ELSE
     3045    17740    3             IF RECORD_ST$ -> SCALAR.B.DML_RVA = %FALSE     THEN
     3046    17741    4               DO;
     3047    17742    4                 RVA_TYPE = %RVA_RECORD;
     3048    17743    4                 CALL Z9EB$BUILD_RVA_TABLE(RECORD_ST$,RVA_TYPE);
     3049    17744    4               END;
PL6.E3A0      #005=Z9EB$DML_STATEMENT File=Z9EB.:Z8A6TSI                         SAT 08/09/97 13:50 Page:283
     3050    17745
     3051    17746    3         END;
     3052    17747    2     END;
     3053    17748
     3054    17749    1   CALL RETENTION( RETENTION$, ADDR(RL_LX_ITEM));
     3055    17750
     3056    17751    1   IF ERROR_FLAG = %TRUE  THEN
     3057    17752    1     RETURN;
     3058    17753
     3059    17754    1   CALL Z8EU$CREATE_IDENTIFIER_FROM_ST(O1COM.DML_IA$,ADDR(IA_LX_ITEM));
     3060    17755
     3061    17756    1   IF CODE = %DBFCT   THEN
     3062    17757    2     DO;
     3063    17758    2       CALL BUILD_PARM(RECORD_ST$ , ADDR(RC_LX_ITEM));
     3064    17759    2       ADDR(IA_LX_ITEM) -> LX_ITEM.LINK = ADDR(RC_LX_ITEM);
     3065    17760    2       ADDR(RC_LX_ITEM) -> LX_ITEM.LINK = ADDR(RL_LX_ITEM);
     3066    17761    2     END;
     3067    17762    1   ELSE
     3068    17763    1     ADDR(IA_LX_ITEM) -> LX_ITEM.LINK = ADDR(RL_LX_ITEM);
     3069    17764
     3070    17765    1   ARG_COUNT = ARG_COUNT + ADDR(RL_LX_ITEM) -> LX_LIST.COUNT;
     3071    17766
     3072    17767    1   CALL Z9EB$BUILD_CODE(CODE, ARG_COUNT, ADDR(IA_LX_ITEM));
     3073    17768
     3074    17769    1   RETURN;
     3075    17770        %EJECT;
PL6.E3A0      #005=Z9EB$DML_STATEMENT File=Z9EB.:Z8A6TSI                         SAT 08/09/97 13:50 Page:284
     3076    17771        /*==========*/
     3077    17772    1     Z9EB$ERASE :  ENTRY (RECORD_SELECTION$, RETENTION$);
     3078    17773        /*==========*/
     3079    17774
     3080    17775    1       RECORD$ = RECORD_SELECTION$;
     3081    17776
     3082    17777    1       IF RECORD$ -> LX_ITEM.B.ERROR   THEN
     3083    17778    1           RETURN;
     3084    17779
     3085    17780    1       CONST_WORD = 0;
     3086    17781    1       IF RECORD$ -> LX_ITEM.ID = %LX_TERMINAL AND RECORD$ -> LX_ITEM.SYMBOL = %EMPTY
             17781                THEN
     3087    17782    2         DO;
     3088    17783    2           IF O1COM.NILL_RVA = %FALSE          THEN
     3089    17784    3             DO;
     3090    17785    3               RVA_TYPE = %RVA_NULL;
     3091    17786    3               CALL Z9EB$BUILD_RVA_TABLE( ADDR(NIL), RVA_TYPE);
     3092    17787    3             END;
     3093    17788    2           RECORD_ST$ = ADDR(NIL);
     3094    17789    2         END;
     3095    17790
     3096    17791    1       ELSE
     3097    17792
     3098    17793    2         DO;
     3099    17794                %FISH(TRIAD = RECORD$ -> LX_ETT_ITEM.ETT$, RTN = RECORD_ST$);
     3100    17802    2           IF RECORD_ST$ -> SCALAR.B.DML_TYPE ~= %RECORD    THEN
     3101    17803    3             DO;
     3102    17804    3               CALL Z8AE$ERROR(%E$ITEM_NOT_A_RECORD,
     3103    17805    3                               RECORD$ -> LX_ITEM.LINE,
     3104    17806    3                               RECORD$ -> LX_ITEM.COLUMN);
     3105    17807    3               RETURN;
     3106    17808    3             END;
     3107    17809    2           IF RECORD_ST$ -> SCALAR.B.DML_RVA = %FALSE     THEN
     3108    17810    3             DO;
     3109    17811    3               RVA_TYPE = %RVA_RECORD;
     3110    17812    3               CALL Z9EB$BUILD_RVA_TABLE( RECORD_ST$, RVA_TYPE);
     3111    17813    3             END;
PL6.E3A0      #005=Z9EB$DML_STATEMENT File=Z9EB.:Z8A6TSI                         SAT 08/09/97 13:50 Page:285
     3112    17814    2         END;
     3113    17815
     3114    17816    1       IF RETENTION$ -> LX_ITEM.ID =  %ERASE_ALL          THEN
     3115    17817    1           ERASE_.ALL = %TRUE;
     3116    17818
     3117    17819    1       CALL Z8EU$CREATE_IDENTIFIER_FROM_ST(O1COM.DML_IA$,ADDR(IA_LX_ITEM));
     3118    17820    1       CALL BUILD_PARM( RECORD_ST$, ADDR(RC_LX_ITEM));
     3119    17821
     3120    17822    1       ADDR(IA_LX_ITEM) -> LX_ITEM.LINK = ADDR(RC_LX_ITEM);
     3121    17823    1       CALL BUILD_CONST_PARM ( CONST_WORD, ADDR(EC_SL_LX_ITEM));
     3122    17824
     3123    17825    1       ADDR(RC_LX_ITEM) -> LX_ITEM.LINK = ADDR(EC_SL_LX_ITEM);
     3124    17826    1       CALL Z9EB$BUILD_CODE(%DBERS, 3, ADDR(IA_LX_ITEM));
     3125    17827
     3126    17828    1       RETURN;
     3127    17829        %EJECT;
PL6.E3A0      #005=Z9EB$DML_STATEMENT File=Z9EB.:Z8A6TSI                         SAT 08/09/97 13:50 Page:286
     3128    17830        /*===========*/
     3129    17831    1     Z9EB$ACCEPT :   ENTRY (RECORD_SELECTION$, RETENTION$);
     3130    17832        /*===========*/
     3131    17833
     3132    17834    1       OPTION$ = RECORD_SELECTION$ -> LX_LIST.HEAD$;
     3133    17835    1       NAME$ = OPTION$ -> LX_ITEM.LINK;
     3134    17836    1       IDENT$ = RECORD_SELECTION$ -> LX_LIST.TAIL$;
     3135    17837    1       ERROR_FLAG = %FALSE;
     3136    17838    1       CONST_WORD = 0;
     3137    17839    1       OPTION_WORD = OPTION$ -> LX_ITEM.SYMBOL;
     3138    17840    2       DO CASE( OPTION_WORD );
     3139    17841
     3140    17842    2           CASE( %RSV_WRD_CURRENCY );
     3141    17843    2               CODE = %DBACC;
     3142    17844
     3143    17845    2           CASE( %RSV_WRD_REALM_NAME );
     3144    17846    2               CODE = %DBACN;
     3145    17847
     3146    17848    2           CASE( %RSV_WRD_NEXT );
     3147    17849    2               CODE = %DBACC;
     3148    17850    2               CURRENCY_CONST.CURRENCY = %NEXT_OF_SET;
     3149    17851
     3150    17852    2           CASE( %RSV_WRD_PRIOR );
     3151    17853    2               CODE = %DBACC;
     3152    17854    2               CURRENCY_CONST.CURRENCY = %PRIOR_OF_SET;
     3153    17855
     3154    17856    2           CASE( %RSV_WRD_OWNER );
     3155    17857    2               CODE = %DBACC;
     3156    17858    2               CURRENCY_CONST.CURRENCY = %OWNER_OF_SET;
     3157    17859
     3158    17860    2       END;                             /*V*  CASE( OPTION_WORD  */
     3159    17861
     3160    17862    1       IF NAME$ -> LX_ITEM.ID = %LX_TERMINAL AND NAME$ -> LX_ITEM.SYMBOL = %EMPTY  THEN
     3161    17863    2         DO;
     3162    17864    2           CURRENCY_CONST.CURRENCY = %CURRENT_OF_RUN;
     3163    17865    2           NAME_ST$ = ADDR(NIL);
     3164    17866    2           IF O1COM.NILL_RVA = %FALSE   THEN
PL6.E3A0      #005=Z9EB$DML_STATEMENT File=Z9EB.:Z8A6TSI                         SAT 08/09/97 13:50 Page:287
     3165    17867    3             DO;
     3166    17868    3               RVA_TYPE = %RVA_NULL;
     3167    17869    3               CALL Z9EB$BUILD_RVA_TABLE(NAME_ST$, RVA_TYPE);
     3168    17870    3             END;
     3169    17871    2         END;
     3170    17872
     3171    17873    1       ELSE
     3172    17874    1        IF NAME$ -> LX_ITEM.B.ERROR    THEN
     3173    17875    1            ERROR_FLAG = %TRUE;
     3174    17876    1        ELSE
     3175    17877    2         DO;
     3176    17878                %FISH(TRIAD = NAME$ -> LX_ETT_ITEM.ETT$, RTN = NAME_ST$);
     3177    17886    3           DO CASE( NAME_ST$ -> SCALAR.ID );
     3178    17887
     3179    17888    3               CASE( %REALM );
     3180    17889    3                   IF OPTION_WORD ~= %RSV_WRD_CURRENCY   THEN
     3181    17890    4                     DO;
     3182    17891    4                       CALL Z8AE$ERROR(%E$REALM_CURRENCY_ERROR,
     3183    17892    4                                       NAME$ -> LX_ITEM.LINE,
     3184    17893    4                                       NAME$ -> LX_ITEM.COLUMN);
     3185    17894    4                       ERROR_FLAG = %TRUE;
     3186    17895    4                     END;
     3187    17896    3                   CURRENCY_CONST.CURRENCY = %CURRENT_OF_AREA;
     3188    17897    3                   RVA_TYPE = %RVA_REALM;
     3189    17898
     3190    17899    3               CASE( %DML_SET );
     3191    17900    3                   IF OPTION_WORD = %RSV_WRD_CURRENCY   OR
     3192    17901    3                       OPTION_WORD = %RSV_WRD_REALM_NAME   THEN
     3193    17902    3                         CURRENCY_CONST.CURRENCY = %CURRENT_OF_SET;
     3194    17903    3                   RVA_TYPE = %RVA_SET;
     3195    17904
     3196    17905    3               CASE( %SCALAR );
     3197    17906
     3198    17907    4                   DO CASE(NAME_ST$ -> SCALAR.B.DML_TYPE);
     3199    17908
     3200    17909    4                       CASE( %RECORD );
     3201    17910    4                           IF OPTION_WORD ~= %RSV_WRD_CURRENCY   AND
PL6.E3A0      #005=Z9EB$DML_STATEMENT File=Z9EB.:Z8A6TSI                         SAT 08/09/97 13:50 Page:288
     3202    17911    4                               OPTION_WORD ~= %RSV_WRD_REALM_NAME   THEN
     3203    17912    5                             DO;
     3204    17913    5                               CALL Z8AE$ERROR(%E$RECORD_CURRENCY_ERROR,
     3205    17914    5                                               NAME$ -> LX_ITEM.LINE,
     3206    17915    5                                           NAME$ -> LX_ITEM.COLUMN);
     3207    17916    5                               ERROR_FLAG = %TRUE;
     3208    17917    5                             END;
     3209    17918    4                           CURRENCY_CONST.CURRENCY = %CURRENT_OF_RECORD;
     3210    17919    4                           RVA_TYPE = %RVA_RECORD;
     3211    17920
     3212    17921    4                       CASE( %DATA_BASE_KEY, %DIRECT_REFERENCE );
     3213    17922    4                           IF OPTION_WORD ~= %RSV_WRD_REALM_NAME   THEN
     3214    17923    5                             DO;
     3215    17924    5                               CALL Z8AE$ERROR(%E$DB_KEY_CURRENCY_ERROR,
     3216    17925    5                                               NAME$ -> LX_ITEM.LINE,
     3217    17926    5                                       NAME$ -> LX_ITEM.COLUMN);
     3218    17927    5                               ERROR_FLAG = %TRUE;
     3219    17928    5                             END;
     3220    17929    4                           CURRENCY_CONST.CURRENCY = %DB_KEY_CURRENCY;
     3221    17930
     3222    17931    4                       CASE( ELSE );
     3223    17932    4                           CALL Z8AE$ERROR(%E$CURRENCY_ERROR,
     3224    17933    4                                           NAME$ -> LX_ITEM.LINE,
     3225    17934    4                                           NAME$ -> LX_ITEM.COLUMN);
     3226    17935    4                           ERROR_FLAG = %TRUE;
     3227    17936
     3228    17937    4                   END;       /*V*  CASE(NAME_ST$ -> SCALAR.B.DML_TYPE  */
     3229    17938
     3230    17939    3               CASE( ELSE );
     3231    17940    3                   CALL Z8AE$ERROR(%E$CURRENCY_ERROR,
     3232    17941    3                                   NAME$ -> LX_ITEM.LINE,
     3233    17942    3                                   NAME$ -> LX_ITEM.COLUMN);
     3234    17943    3                   ERROR_FLAG = %TRUE;
     3235    17944
     3236    17945    3           END;                  /*V* CASE( NAME_ST$ -> SCALAR.ID ) */
     3237    17946
     3238    17947    2           IF NAME_ST$ -> SCALAR.B.DML_RVA = %FALSE   THEN
PL6.E3A0      #005=Z9EB$DML_STATEMENT File=Z9EB.:Z8A6TSI                         SAT 08/09/97 13:50 Page:289
     3239    17948    2               CALL Z9EB$BUILD_RVA_TABLE(NAME_ST$,RVA_TYPE);
     3240    17949
     3241    17950    2         END;                           /*V*  ELSE   DO  */
     3242    17951    1       IF IDENT$ -> LX_ITEM.B.ERROR  THEN
     3243    17952    1           ERROR_FLAG = %TRUE;
     3244    17953    1       ELSE
     3245    17954    2         DO;
     3246    17955
     3247    17956                %FISH(TRIAD = IDENT$ -> LX_ETT_ITEM.ETT$, RTN = IDENT_ST$);
     3248    17964    3           DO CASE( IDENT_ST$ -> SCALAR.B.DML_TYPE );
     3249    17965
     3250    17966    3               CASE( %DATA_BASE_KEY, %DIRECT_REFERENCE );
     3251    17967    3                   IF CODE = %DBACN      THEN
     3252    17968    4                     DO;
     3253    17969    4                       CALL Z8AE$ERROR(%E$DB_KEY_CURRENCY_ERROR_2,
     3254    17970    4                                       IDENT$ -> LX_ITEM.LINE,
     3255    17971    4                                       IDENT$ -> LX_ITEM.COLUMN);
     3256    17972    4                       ERROR_FLAG = %TRUE;
     3257    17973    4                     END;
     3258    17974
     3259    17975    3               CASE( ELSE );
     3260    17976    3                 IF CODE = %DBACC   THEN
     3261    17977    4                   DO;
     3262    17978    4                      CALL Z8AE$ERROR(%E$DB_KEY_CURRENCY_ERROR_3,
     3263    17979    4                                      IDENT$ -> LX_ITEM.LINE,
     3264    17980    4                                      IDENT$ -> LX_ITEM.COLUMN);
     3265    17981    4                      ERROR_FLAG = %TRUE;
     3266    17982    4                   END;
     3267    17983    3                  ELSE
     3268    17984    3                   IF ( IDENT_ST$ -> SCALAR.TYPE ~= %TYA )  OR
     3269    17985    3                      ( IDENT_ST$ -> SCALAR.B.ELEMENTARY = %FALSE )  THEN
     3270    17986    4                     DO;
     3271    17987    4                       CALL Z8AE$ERROR(%E$ELEMENTARY_CURRENCY_ERROR,
     3272    17988    4                                       IDENT$ -> LX_ITEM.LINE,
     3273    17989    4                                       IDENT$ -> LX_ITEM.COLUMN);
     3274    17990    4                       ERROR_FLAG = %TRUE;
     3275    17991    4                     END;
PL6.E3A0      #005=Z9EB$DML_STATEMENT File=Z9EB.:Z8A6TSI                         SAT 08/09/97 13:50 Page:290
     3276    17992    3                   CURRENCY_CONST.LENGTH = IDENT_ST$ -> SCALAR.ADSC.N;
     3277    17993
     3278    17994    3           END;               /*V*  CASE ( IDENT_ST$ -> SCALAR.B.DML_TYPE  */
     3279    17995    2         END;
     3280    17996
     3281    17997    1       IF ERROR_FLAG = %TRUE            THEN
     3282    17998    1           RETURN;
     3283    17999
     3284    18000    1       CALL Z8EU$CREATE_IDENTIFIER_FROM_ST(O1COM.DML_IA$,ADDR(IA_LX_ITEM));
     3285    18001
     3286    18002    1       CALL BUILD_CONST_PARM( CONST_WORD, ADDR(CW_LX_ITEM));
     3287    18003    1       ADDR(IA_LX_ITEM) -> LX_ITEM.LINK = ADDR(CW_LX_ITEM);
     3288    18004
     3289    18005    1       ADDR(CW_LX_ITEM) -> LX_ITEM.LINK = IDENT$;
     3290    18006
     3291    18007    1       IF ( OPTION_WORD = %RSV_WRD_REALM_NAME ) AND (CURRENCY_CONST.CURRENCY = %
             18007                DB_KEY_CURRENCY) THEN
     3292    18008    1           CALL Z8EU$CREATE_IDENTIFIER_FROM_ST(NAME_ST$,ADDR(DD_LX_ITEM));
     3293    18009    1       ELSE
     3294    18010    1         CALL BUILD_PARM( NAME_ST$, ADDR(DD_LX_ITEM));
     3295    18011
     3296    18012    1       IDENT$ -> LX_ITEM.LINK = ADDR(DD_LX_ITEM);
     3297    18013    1       CALL Z9EB$BUILD_CODE(CODE, 4, ADDR(IA_LX_ITEM));
     3298    18014
     3299    18015    1       IDENT$ -> LX_ITEM.LINK = ADDR(NIL);
     3300    18016    1       RETURN;
     3301    18017        %EJECT;
PL6.E3A0      #005=Z9EB$DML_STATEMENT File=Z9EB.:Z8A6TSI                         SAT 08/09/97 13:50 Page:291
     3302    18018        /*===============*/
     3303    18019    1     Z9EB$DB_GET_RECORD :  ENTRY   (RECORD_SELECTION$, RETENTION$);
     3304    18020        /*===============*/
     3305    18021
     3306    18022    1       RVA_TYPE = %RVA_RECORD;
     3307    18023    1       IF RECORD_SELECTION$ = ADDR(NIL)  THEN
     3308    18024    2         DO;
     3309    18025    2           IF O1COM.NILL_RVA = %FALSE  THEN
     3310    18026    3             DO;
     3311    18027    3               RVA_TYPE = %RVA_NULL;
     3312    18028    3               CALL Z9EB$BUILD_RVA_TABLE(RECORD_SELECTION$, RVA_TYPE);
     3313    18029    3             END;
     3314    18030    2           IDENT_ST$ = ADDR(NIL);
     3315    18031    2         END;
     3316    18032
     3317    18033    1       ELSE
     3318    18034    2         DO;
     3319    18035    2           IF RECORD_SELECTION$ -> LX_ITEM.B.ERROR       THEN
     3320    18036    2               RETURN;
     3321    18037                %FISH( TRIAD = RECORD_SELECTION$ -> LX_ETT_ITEM.ETT$, RTN = IDENT_ST$);
     3322    18045    2           IF IDENT_ST$ -> SCALAR.B.DML_TYPE ~= %RECORD    THEN
     3323    18046    3             DO;
     3324    18047    3               CALL Z8AE$ERROR(%E$ITEM_NOT_A_RECORD,
     3325    18048    3                               RECORD_SELECTION$ -> LX_ITEM.LINE,
     3326    18049    3                               RECORD_SELECTION$ -> LX_ITEM.COLUMN);
     3327    18050    3               RETURN;
     3328    18051    3             END;
     3329    18052    2           IF IDENT_ST$ -> SCALAR.B.DML_RVA = %FALSE      THEN
     3330    18053    2               CALL Z9EB$BUILD_RVA_TABLE(IDENT_ST$, RVA_TYPE);
     3331    18054
     3332    18055    2         END;
     3333    18056
     3334    18057    1       CALL Z8EU$CREATE_IDENTIFIER_FROM_ST(O1COM.DML_IA$, ADDR(IA_LX_ITEM));
     3335    18058    1       CALL BUILD_PARM (IDENT_ST$, ADDR(TEMP_LX_ITEM));
     3336    18059    1       ADDR(IA_LX_ITEM) -> LX_ITEM.LINK = ADDR(TEMP_LX_ITEM);
     3337    18060
     3338    18061    1       CALL Z9EB$BUILD_CODE(%DBGET,2,ADDR(IA_LX_ITEM));
PL6.E3A0      #005=Z9EB$DML_STATEMENT File=Z9EB.:Z8A6TSI                         SAT 08/09/97 13:50 Page:292
     3339    18062
     3340    18063    1       RETURN;
     3341    18064        %EJECT;
PL6.E3A0      #005=Z9EB$DML_STATEMENT File=Z9EB.:Z8A6TSI                         SAT 08/09/97 13:50 Page:293
     3342    18065        /*=================*/
     3343    18066    1     Z9EB$DB_GET_FIELD:  ENTRY (RECORD_SELECTION$, RETENTION$);
     3344    18067        /*=================*/
     3345    18068
     3346    18069    1   LIST_HEAD$ = RECORD_SELECTION$;
     3347    18070    1   ARG_COUNT = 2;
     3348    18071    1   RVA_TYPE = %RVA_FIELD;
     3349    18072    1   LIST$ = LIST_HEAD$ -> LX_LIST.HEAD$;
     3350    18073    1       ERROR_FLAG = %FALSE;
     3351    18074
     3352    18075    2   DO WHILE LIST$ ~= ADDR(NIL);
     3353    18076
     3354    18077    2     IF LIST$ -> LX_ITEM.B.ERROR  THEN
     3355    18078    2        ERROR_FLAG = %TRUE;
     3356    18079    2     ELSE
     3357    18080    3       DO;
     3358    18081            %FISH( TRIAD = LIST$ -> LX_ETT_ITEM.ETT$, RTN = IDENT_ST$);
     3359    18089    3       IF IDENT_ST$ -> SCALAR.B.DML_TYPE ~= %FIELD     AND
     3360    18090    3             IDENT_ST$ -> SCALAR.B.DML_TYPE ~= %DATA_BASE_KEY    THEN
     3361    18091    4         DO;
     3362    18092    4           CALL Z8AE$ERROR(%E$ITEM_NOT_FIELD,
     3363    18093    4                           LIST$ -> LX_ITEM.LINE,
     3364    18094    4                           LIST$ -> LX_ITEM.COLUMN);
     3365    18095    4           ERROR_FLAG = %TRUE;
     3366    18096    4         END;
     3367    18097    3       ELSE
     3368    18098    4         DO;
     3369    18099    4            IF IDENT_ST$ -> SCALAR.B.DML_RVA = %FALSE           THEN
     3370    18100    4                CALL Z9EB$BUILD_RVA_TABLE(IDENT_ST$,RVA_TYPE);
     3371    18101
     3372    18102    4           CALL BUILD_ETT_PARM(IDENT_ST$, LIST$);
     3373    18103
     3374    18104    4           ARG_COUNT = ARG_COUNT + 1;
     3375    18105    4         END;
     3376    18106    3       END;
     3377    18107    2       LIST$ = LIST$ -> LX_ITEM.LINK;
     3378    18108    2   END;
PL6.E3A0      #005=Z9EB$DML_STATEMENT File=Z9EB.:Z8A6TSI                         SAT 08/09/97 13:50 Page:294
     3379    18109
     3380    18110    1       IF ERROR_FLAG = %TRUE            THEN
     3381    18111    1           RETURN;
     3382    18112
     3383    18113    1       FIELD_LIST.ARGUMENTS = ARG_COUNT -2;
     3384    18114    1       CALL BUILD_CONST_PARM (CONST_WORD, ADDR(TEMP_LX_ITEM));
     3385    18115    1       CALL Z8EU$CREATE_IDENTIFIER_FROM_ST( O1COM.DML_IA$,ADDR(IA_LX_ITEM) );
     3386    18116
     3387    18117    1       ADDR(IA_LX_ITEM) -> LX_ITEM.LINK = ADDR( TEMP_LX_ITEM);
     3388    18118    1       ADDR( TEMP_LX_ITEM) -> LX_ITEM.LINK = LIST_HEAD$ -> LX_LIST.HEAD$;
     3389    18119
     3390    18120    1       CALL Z9EB$BUILD_CODE(%DBGTF,ARG_COUNT,ADDR(IA_LX_ITEM));
     3391    18121
     3392    18122    1   RETURN;
     3393    18123        %EJECT;
PL6.E3A0      #005=Z9EB$DML_STATEMENT File=Z9EB.:Z8A6TSI                         SAT 08/09/97 13:50 Page:295
     3394    18124        /*===========*/
     3395    18125    1     Z9EB$FINISH :     ENTRY (RECORD_SELECTION$, RETENTION$);
     3396    18126        /*===========*/
     3397    18127
     3398    18128    1       CONST_WORD = 0;
     3399    18129    1       PARM_LIST$ = ADDR(NIL);
     3400    18130    1       COUNT = 0;
     3401    18131    1       RVA_TYPE = %RVA_REALM;
     3402    18132    1       ERROR_FLAG = %FALSE;
     3403    18133
     3404    18134    1       IF RECORD_SELECTION$ ~= ADDR(NIL)            THEN
     3405    18135    2         DO;
     3406    18136    2           LIST$ = RECORD_SELECTION$ -> LX_LIST.HEAD$;
     3407    18137    2           PARM_LIST$ = LIST$;
     3408    18138
     3409    18139    3           DO WHILE LIST$ ~= ADDR(NIL);
     3410    18140    3             IF LIST$ -> LX_ITEM.B.ERROR    THEN
     3411    18141    3               ERROR_FLAG = %TRUE;
     3412    18142    3             ELSE
     3413    18143    4              DO;
     3414    18144                    %FISH(TRIAD = LIST$ -> LX_ETT_ITEM.ETT$, RTN = IDENT_ST$);
     3415    18152    4               IF IDENT_ST$ -> DML_ITEM.ID ~= %REALM    THEN
     3416    18153    5                 DO;
     3417    18154    5                   CALL Z8AE$ERROR(%E$ITEM_NOT_REALM,
     3418    18155    5                                   LIST$ -> LX_ITEM.LINE,
     3419    18156    5                                   LIST$ -> LX_ITEM.COLUMN);
     3420    18157    5                   ERROR_FLAG = %TRUE;
     3421    18158    5                 END;
     3422    18159    4               ELSE
     3423    18160    5                 DO;
     3424    18161    5                   IF IDENT_ST$ -> DML_ITEM.B.DML_RVA = %FALSE   THEN
     3425    18162    5                       CALL Z9EB$BUILD_RVA_TABLE(IDENT_ST$,RVA_TYPE);
     3426    18163
     3427    18164    5                   CALL BUILD_ETT_PARM(IDENT_ST$, LIST$);
     3428    18165
     3429    18166    5                   COUNT = COUNT + 1;
     3430    18167    5                 END;
PL6.E3A0      #005=Z9EB$DML_STATEMENT File=Z9EB.:Z8A6TSI                         SAT 08/09/97 13:50 Page:296
     3431    18168    4              END;
     3432    18169    3             LIST$ = LIST$ -> LX_ITEM.LINK;
     3433    18170
     3434    18171    3           END;    /*V*  DO  WHILE  LIST ~= ADDR(NIL)   */
     3435    18172
     3436    18173    2         END;      /*V* IF LIST$ ~= ADDR(NIL)           */
     3437    18174
     3438    18175    1       IF ERROR_FLAG = %TRUE         THEN
     3439    18176    1           RETURN;
     3440    18177    1       CALL Z8EU$CREATE_IDENTIFIER_FROM_ST(O1COM.DML_IA$,ADDR(IA_LX_ITEM));
     3441    18178
     3442    18179    1       FIELD_LIST.ARGUMENTS = COUNT;
     3443    18180    1       CALL BUILD_CONST_PARM( CONST_WORD, ADDR(TEMP_LX_ITEM));
     3444    18181
     3445    18182    1       ADDR(IA_LX_ITEM) -> LX_ITEM.LINK = ADDR(TEMP_LX_ITEM);
     3446    18183    1       ADDR(TEMP_LX_ITEM) -> LX_ITEM.LINK = PARM_LIST$;
     3447    18184    1       ARG_COUNT = 2 + COUNT;
     3448    18185
     3449    18186    1       CALL Z9EB$BUILD_CODE(%DBFIN,ARG_COUNT,ADDR(IA_LX_ITEM));
     3450    18187
     3451    18188    1       RETURN;
     3452    18189
     3453    18190    1   END Z9EB$DML_STATEMENT;
     3454    18191        %EJECT;
PL6.E3A0      #005=Z9EB$DML_STATEMENT File=Z9EB.:Z8A6TSI                         SAT 08/09/97 13:50 Page:297

PL6.E3A0      #005=Z9EB$DML_STATEMENT File=Z9EB.:Z8A6TSI                         SAT 08/09/97 13:50 Page:298
--  Include file information  --

   Z8A_QLT.:Z8A6TOU  cannot be made into a system file and is referenced.
   Z8E_WINDOW.:Z8A6TOU  is referenced.
   Z8A_ERR_NUMS.:Z8A6TOU  is referenced.
   Z8A_SRCH.:Z8A6TOU  cannot be made into a system file and is referenced.
   Z8E_DML.:Z8A6TOU  is referenced.
   Z8A_LTS.:Z8A6TOU  cannot be made into a system file and is referenced.
   Z8A_ETT.:Z8A6TOU  cannot be made into a system file and is referenced.
   Z8A_TYPES.:Z8A6TOU  is referenced.
   Z8A_ST.:Z8A6TOU  cannot be made into a system file and is referenced.
   Z8E_O1COM.:Z8A6TOU  cannot be made into a system file and is referenced.
   Z8A_COMCOM.:Z8A6TOU  cannot be made into a system file and is referenced.
   Z8A_LEX_SYMB.:Z8A6TOU  cannot be made into a system file and is referenced.
   Z8E_STACKS.:Z8A6TOU  cannot be made into a system file and is referenced.
   X8A_COM_MACS.:X8A6TOU  is referenced.
   Z8A_NAMES.:Z8A6TOU  is referenced.
   Z8A_SUPP_MAC.:Z8A6TOU  is referenced.
   Z8A_DEFC.:Z8A6TOU  cannot be made into a system file and is referenced.
      No diagnostics issued in procedure Z9EB$DML_STATEMENT.

   Procedure Z9EB$DML_STATEMENT requires 5588 words for executable code.
   Procedure Z9EB$DML_STATEMENT requires 220 words of local(AUTO) storage.

    No errors detected in file Z9EB.:Z8A6TSI    .

PL6.E3A0      #005=Z9EB$DML_STATEMENT File=Z9EB.:Z8A6TSI                         SAT 08/09/97 13:50 Page:299

 Object Unit name= Z9EB$DML_STATEMENT                         File name= Z9EB.:Z8A6TOU
 UTS= AUG 09 '97 13:50:33.12 SAT                              Compiler= PL-6/E31         Sev=      00
 SharedLib= :SHARED_SYSTEM                                    Alt SharedLib=


    ****  Control sections  ****

 Sect   Type Bound  Init  Size OctSiz  Section name(segment info)
    0  LblCom even  none     1      1  ITERATION
    1  LblCom even  none    90    132  LEX_SYMBOL
    2  LblCom even  none     1      1  CURRENT_LEX_SYMBOL$
    3  LblCom even  none    90    132  TEMP_LEX_SYMBOL
    4  LblCom even  none    90    132  TEMP_LEX_SYMBOL2
    5  LblCom even  none     1      1  ST$
    6  LblCom even  none     5      5  ST_
    7  LblCom even  none     1      1  ETT$
    8  LblCom even  none     1      1  HEAD_ETT$
    9  LblCom even  none   512   1000  ETT_BUCKETS
   10  LblCom even  none     5      5  ETT_
   11  LblCom even  none     1      1  LTS$
   12  LblCom even  none     5      5  LTS_
   13  LblCom even  none     3      3  SRCH
   14  LblCom even  none     1      1  QLT$
   15  LblCom even  none     1      1  PREV_01_QLT$
   16  LblCom even  none     5      5  QLT_
   17  LblCom even  none     1      1  MKCN
   18  RoData even  UTS     60     74  Z9EB$DML_STATEMENT
   19   Proc  even  none  5588  12724  Z9EB$DML_STATEMENT
   20  RoData even  none    75    113  Z9EB$DML_STATEMENT
PL6.E3A0      #005=Z9EB$DML_STATEMENT File=Z9EB.:Z8A6TSI                         SAT 08/09/97 13:50 Page:300

    ****  Entry defs  ****

                              Check   Calling
                             calling  sequence
  Sect OctLoc Primary Altret sequence   type   Parms  Name
    19      0   yes            yes      Std        2  Z9EB$DML_STATEMENT
    19   2131                  yes      Std        2  Z9EB$FIND_DIRECT
    19   2412                  yes      Std        2  Z9EB$FIND_RELATIVE_OCCURRENCE
    19   3453                  yes      Std        2  Z9EB$DB_FIND_CALC
    19   3666                  yes      Std        2  Z9EB$FIND_OWNER
    19   4041                  yes      Std        2  Z9EB$DML_PRCLC_STMNT
    19   4241                  yes      Std        2  Z9EB$STORE
    19   4412                  yes      Std        2  Z9EB$CONNECT
    19   4420                  yes      Std        2  Z9EB$DISCONNECT
    19   4731                  yes      Std        2  Z9EB$READY
    19   5201                  yes      Std        2  Z9EB$MODIFY
    19   6063                  yes      Std        2  Z9EB$DUPLICATE
    19   6415                  yes      Std        2  Z9EB$FIND_WITH_KEY
    19   7165                  yes      Std        2  Z9EB$DB_COMPARE
    19   7421                  yes      Std        2  Z9EB$COMPARE_EMPTY
    19   7574                  yes      Std        2  Z9EB$FIND_USING
    19  10125                  yes      Std        2  Z9EB$FIND_USING_KEY
    19  10400                  yes      Std        2  Z9EB$FIND_CURRENT
    19  10602                  yes      Std        2  Z9EB$ERASE
    19  10777                  yes      Std        2  Z9EB$ACCEPT
    19  12170                  yes      Std        2  Z9EB$DB_GET_RECORD
    19  12337                  yes      Std        2  Z9EB$DB_GET_FIELD
    19  12527                  yes      Std        2  Z9EB$FINISH
PL6.E3A0      #005=Z9EB$DML_STATEMENT File=Z9EB.:Z8A6TSI                         SAT 08/09/97 13:50 Page:301

  ****  Entry refs  ****

         Check        Calling
        calling       sequence
Altret sequence SRef   type   Args  Name
         yes           Std      12 Z8AE$ERROR
         yes           Std       2 Z9EB$BUILD_RVA_TABLE
         yes           Std       4 Z8EU$CREATE_IDENTIFIER_FROM_ST
         yes           Std       3 Z9EB$BUILD_CODE
         yes           Std       1 Z8AS$SR_ETT
         yes           Std       1 Z8ED$DISPOSE_ABSSYN_TREE
         yes           Std       3 Z8AF$NEW_OFF
         yes           Std       1 Z8AC$SEARCH_CONSTANT
 yes     yes           Std       3 Z8EC$NEW_CONST_WITH_TYPE_DESC
                       nStd      0 X66_AUTO_2
                       nStd      0 X66_ARET

  ****  Data refs  ****

  Flags:  r = read only, s = secondary
Flgs Name                             Flgs Name                             Flgs Name
     COMCOM                                O1COM                                 HIER_STK_PTR
     HIER_STK                              PAGE_FORMAT                           REP_STK_PTR
     REP_STK                          r    LTS_STEP

  ****  Segment refs  ****

  Flags:  r = read only, s = secondary
Flgs Name                             Flgs Name                             Flgs Name
     ISSID                                 NULLSID
PL6.E3A0      #005=Z9EB$DML_STATEMENT File=Z9EB.:Z8A6TSI                         SAT 08/09/97 13:50 Page:302


     1203        1        /*T***********************************************************/
     1204        2        /*T*                                                         */
     1205        3        /*T* Copyright (c) Bull HN Information Systems Inc., 1997    */
     1206        4        /*T*                                                         */
     1207        5        /*T***********************************************************/
     1208        6        /*=========*/
     1209        7          Z9EB$DML_STATEMENT :  PROC ( RECORD_SELECTION$, RETENTION$);

      7 19 000000   000000 700200 xent  Z9EB$DML_ST* TSX0  ! X66_AUTO_2
        19 000001   000334 000002                    ZERO    220,2
        19 000002   002130 710000 19                 TRA     s:16138+2

     1210        8        /*=========*/
     1211        9        /*F*
     1212       10             NAME: Z9EB$DML_STATEMENT
     1213       11             PURPOSE:
     1214       12                   Handles the majority of DML statements
     1215       13             DESCRIPTION:
     1216       14                    Checks for errors and set up calls to IDS routines.
     1217       15        */
     1218       16        /*D*
     1219       17             NAME: Z9EB$DML_STATEMENT
     1220       18             ENTRY:
     1221       19                    Z9EB$FIND_DIRECT
     1222       20                    Z9EB$FIND_RELATIVE_OCCURRENCE
     1223       21                    Z9EB$FIND_CALC
     1224       22                    Z9EB$FIND_OWNER
     1225       23                    Z9EB$STORE
     1226       24                    Z9EB$CONNECT
     1227       25                    Z9EB$DISCONNECT
     1228       26                    Z9EB$READY
     1229       27                    Z9EB$MODIFY
     1230       28                    Z9EB$DUPLICATE
     1231       29                    Z9EB$FIND_WITH_KEY
     1232       30                    Z9EB$DB_COMPARE
     1233       31                    Z9EB$COMPARE_EMPTY
PL6.E3A0      #005=Z9EB$DML_STATEMENT File=Z9EB.:Z8A6TSI                         SAT 08/09/97 13:50 Page:303
     1234       32                    Z9EB$FIND_USING
     1235       33                    Z9EB$FIND_USING_KEY
     1236       34                    Z9EB$FIND_CURRENT
     1237       35                    Z9EB$ERASE
     1238       36                    Z9EB$ACCEPT
     1239       37                    Z9EB$DB_GET_RECORD
     1240       38                    Z9EB$DB_GET_FIELD
     1241       39                    Z9EB$FINISH
     1242       40             CALL:
     1243       41                    Z9EB$    ?   (RECORD_SELECTON$, RETENTION$);
     1244       42             PARAMETERS:
     1245       43                    RECORD_SELECTION$  - lx list of identifiers
     1246       44                    RETENTION$ - lx list of retention items, always nill for
     1247       45                                 some statements.
     1248       46             INTERFACE:
     1249       47                  Z8AE$ERROR
     1250       48                  Z8AS$SR_ETT
     1251       49                  Z9EB$BUILD_RVA_TABLE
     1252       50                  Z8EU$CREATE_IDENTIFIER_FROM_ST
     1253       51                  Z8AF$NEW_OFF
     1254       52                  Z9EB$BUILD_CODE
     1255       53                  Z8AC$SEARCH_CONSTANT
     1256       54                  Z8EC$NEW_CONST_WITH_TYPE_DESC
     1257       55                  Z8ED$DIDPOSE_ABSSYN_TREE
     1258       56             ENVIRONMENT:
     1259       57                  None.
     1260       58             INPUT:
     1261       59                   RECORD_SELECTION$
     1262       60                   RETENTION$
     1263       61             OUTPUT:
     1264       62                  None.
     1265       63             SCRATCH:
     1266       64                  None.
     1267       65             DESCRIPTION:
     1268       66                     Checks for errors and sets up the arglists for the IDS calls
     1269       67                     Each entry point does basically the same thing, but each IDS
     1270       68                     routine is just different enough in the number of parameters
PL6.E3A0      #005=Z9EB$DML_STATEMENT File=Z9EB.:Z8A6TSI                         SAT 08/09/97 13:50 Page:304
     1271       69                     and their order that seperation is needed.
     1272       70        */
     1273       71    1       DCL RECORD_SELECTION$    PTR;
     1274       72    1       DCL RETENTION$  PTR;
     1275       73
     1276       74            %EQU PHASE = 1;
     1277       75            %INCLUDE Z8A_DEFC;
     1278      143            %INCLUDE Z8A_SUPP_MAC;
     1279     2543            %INCLUDE Z8E_STACKS;
     1280     4809            %INCLUDE Z8A_COMCOM;
     1281     5459            %INCLUDE Z8E_O1COM;
     1282     6220            %INCLUDE Z8A_ST;
     1283     9879            %INCLUDE Z8A_TYPES;
     1284    10053            %INCLUDE Z8A_ETT;
     1285    10354            %INCLUDE Z8A_LTS;
     1286    12431            %INCLUDE Z8E_DML;
     1287    12551            %INCLUDE Z8A_SRCH;
     1288    12600            %INCLUDE Z8A_ERR_NUMS;
     1289    13364            %INCLUDE Z8E_WINDOW;
     1290    15434            %INCLUDE Z8A_QLT;
     1291    15540
     1292    15541            %DCL_AUTO_LX_ITEM(@NAME = IA_LX_ITEM);
     1293    15545            %DCL_AUTO_LX_ITEM(@NAME = RL_LX_ITEM);
     1294    15549            %DCL_AUTO_LX_ITEM(@NAME = RC_LX_ITEM);
     1295    15553            %DCL_AUTO_LX_ITEM(@NAME = SC_AC_LX_ITEM);
     1296    15557            %DCL_AUTO_LX_ITEM(@NAME = RDC_FC_LX_ITEM);
     1297    15561            %DCL_AUTO_LX_ITEM(@NAME = MC_LX_ITEM);
     1298    15565            %DCL_AUTO_LX_ITEM(@NAME = FL_ID_LX_ITEM);
     1299    15569            %DCL_AUTO_LX_ITEM(@NAME = CW_LX_ITEM);
     1300    15573            %DCL_AUTO_LX_ITEM(@NAME = FA_LX_ITEM);
     1301    15577            %DCL_AUTO_LX_ITEM(@NAME = DD_LX_ITEM);
     1302    15581            %DCL_AUTO_LX_ITEM(@NAME = EC_SL_LX_ITEM);
     1303    15585            %DCL_AUTO_LX_ITEM(@NAME = TEMP_LX_ITEM);
     1304    15589
     1305    15590    1       DCL ARG_COUNT   SBIN;
     1306    15591    1       DCL RVA_TYPE    UBIN(18);
     1307    15592    1       DCL RECORD$     PTR;
PL6.E3A0      #005=Z9EB$DML_STATEMENT File=Z9EB.:Z8A6TSI                         SAT 08/09/97 13:50 Page:305
     1308    15593    1       DCL DB_KEY$     PTR;
     1309    15594    1       DCL RECORD_ST$  PTR;
     1310    15595    1       DCL DB_KEY_ST$  PTR;
     1311    15596    1       DCL REALM_ST$   PTR;
     1312    15597    1       DCL TAIL$   PTR;
     1313    15598    1       DCL REALM_SET$   PTR;
     1314    15599    1       DCL REALM_SET_ST$ PTR;
     1315    15600    1       DCL SET$        PTR;
     1316    15601    1       DCL KEY$        PTR;
     1317    15602    1       DCL KEY_ST$     PTR;
     1318    15603    1       DCL SET_ST$     PTR;
     1319    15604    1       DCL NAME$       PTR;
     1320    15605    1       DCL NAME_ST$    PTR;
     1321    15606    1       DCL CODE         CHAR(6);
     1322    15607    1       DCL 1 MKCN  ALIGNED   EXT,
     1323    15608    1             2 CON           SBIN WORD;
     1324    15609    1       DCL LIST$   PTR;
     1325    15610    1       DCL LIST_HEAD$  PTR;
     1326    15611    1       DCL QLT_FATHER$    PTR;
     1327    15612    1       DCL SON            BOOLEAN;
     1328    15613    1       DCL OPTION_WORD    UBIN;
     1329    15614    1       DCL CODE_TYPE      UBIN;
     1330    15615
     1331    15616    1       DCL CONST_WORD  UBIN WORD;
     1332    15617    1       DCL 1 RDC_WORD  REDEF CONST_WORD,
     1333    15618    1             2 USAGE_TYPE    UBIN(18)  UNAL,
     1334    15619    1             2 ARGUMENTS     UBIN(18)  UNAL;
     1335    15620
     1336    15621    1       DCL 1 TENANT      REDEF CONST_WORD,
     1337    15622    1             2 OWNER     BOOLEAN,
     1338    15623    1             2 MEMBER    BOOLEAN,
     1339    15624    1             2 *         UBIN(34) UNAL;
     1340    15625
     1341    15626    1       DCL 1 FIND_CONTROL    REDEF  CONST_WORD,
     1342    15627    1             2 STATUS        UBIN(18) UNAL,
     1343    15628    1             2 *             UBIN(18) UNAL;
     1344    15629
PL6.E3A0      #005=Z9EB$DML_STATEMENT File=Z9EB.:Z8A6TSI                         SAT 08/09/97 13:50 Page:306
     1345    15630    1       DCL 1 ERASE_            REDEF CONST_WORD,
     1346    15631    1             2 ALL             BOOLEAN,
     1347    15632    1             2 * (0:34)        BOOLEAN;
     1348    15633
     1349    15634    1       DCL 1 CURRENCY_CONST  REDEF CONST_WORD,
     1350    15635    1             2 CURRENCY      UBIN(18)  UNAL,
     1351    15636    1             2 LENGTH        UBIN(18)  UNAL;
     1352    15637
     1353    15638    1       DCL 1 FIELD_LIST    REDEF CONST_WORD,
     1354    15639    1             2 ARGUMENTS   UBIN(18)  UNAL,
     1355    15640    1             2 MBZ         UBIN(18)  UNAL;
     1356    15641
     1357    15642    1       DCL FIELD_LIST$     PTR;
     1358    15643    1       DCL RETENTION_LIST$ PTR;
     1359    15644    1       DCL IDENT_LIST$     PTR;
     1360    15645    1       DCL OPTION$    PTR;
     1361    15646
     1362    15647    1       DCL IDENT$  PTR;
     1363    15648    1       DCL IDENT_ST$   PTR;
     1364    15649    1       DCL ALL_SET_LIST$   PTR;
     1365    15650    1       DCL REC_FIELD_ST$ PTR;
     1366    15651    1       DCL FIELD_ST$       PTR;
     1367    15652    1       DCL ALL_LIST$       PTR;
     1368    15653
     1369    15654    1       DCL COUNT   UBIN(18);
     1370    15655    1       DCL PARM_LIST$  PTR;
     1371    15656
     1372    15657    1       DCL ERROR_FLAG      BOOLEAN;
     1373    15658    1       DCL CONTROL_WORD_CONST     UBIN;
     1374    15659    1       DCL 1 CONTROL_CONST     REDEF CONTROL_WORD_CONST,
     1375    15660    1             2 ONLY            BOOLEAN,
     1376    15661    1             2 ALL             BOOLEAN,
     1377    15662    1             2 *               UBIN(34)  UNAL;
     1378    15663    1       DCL FIELD_LIST_CONTROL     SBIN;
     1379    15664    1       DCL 1 FIELD             REDEF FIELD_LIST_CONTROL,
     1380    15665    1             2 COUNT           UBIN(18) UNAL,
     1381    15666    1             2 *               UBIN(18) UNAL;
PL6.E3A0      #005=Z9EB$DML_STATEMENT File=Z9EB.:Z8A6TSI                         SAT 08/09/97 13:50 Page:307
     1382    15667
     1383    15668    1       DCL SET_LIST_CONTROL       SBIN;
     1384    15669    1       DCL 1 SET               REDEF SET_LIST_CONTROL,
     1385    15670    1             2 COUNT           UBIN(18) UNAL,
     1386    15671    1             2 *               UBIN(18) UNAL;
     1387    15672    1       DCL Z8AE$ERROR                  ENTRY(12);
     1388    15673    1       DCL Z8AS$SR_ETT                 ENTRY(1);
     1389    15674    1       DCL Z9EB$BUILD_RVA_TABLE        ENTRY(2);
     1390    15675    1       DCL Z8EU$CREATE_IDENTIFIER_FROM_ST ENTRY(4);
     1391    15676    1       DCL Z8AF$NEW_OFF                ENTRY(3);
     1392    15677    1       DCL Z9EB$BUILD_CODE             ENTRY(3);
     1393    15678    1       DCL Z8AC$SEARCH_CONSTANT        ENTRY(1);
     1394    15679    1       DCL Z8EC$NEW_CONST_WITH_TYPE_DESC           ENTRY(3)  ALTRET;
     1395    15680    1       DCL Z8ED$DISPOSE_ABSSYN_TREE     ENTRY(1);
     1396    15681         %EJECT;
PL6.E3A0      #005=Z9EB$DML_STATEMENT File=Z9EB.:Z8A6TSI                         SAT 08/09/97 13:50 Page:308
     1397    15682        /*==========*/
     1398    15683    1     MEMBERSHIP :  PROC(RECORD_ST$,SET_ST$,CODE)  ALTRET;

  15683 19 000003   200220 741300       MEMBERSHIP   STX1  ! SET_LIST_CONTROL+2,,AUTO

     1399    15684        /*==========*/
     1400    15685        /*I*
     1401    15686             NAME: MEMBERSHIP
     1402    15687             PURPOSE:
     1403    15688                   Determine record set membership conditions.
     1404    15689             CALL:
     1405    15690                   Call MEMBERSHIP( RECORD_ST$, SET_ST$)
     1406    15691             PARAMETERS:
     1407    15692                    RECORD_ST$  - Symbol table pointer to record
     1408    15693                    SET_ST$  - SYMBOL table pointer to set item
     1409    15694             DATA:
     1410    15695                  None.
     1411    15696             DESCRIPTION:
     1412    15697                    The LTS  of the record is looked at to determine if the
     1413    15698                    set has the correct membership qualification.
     1414    15699        */
     1415    15700    2   DCL RECORD_ST$  PTR;
     1416    15701    2   DCL SET_ST$     PTR;
     1417    15702    2   DCL CODE        CHAR(6);
     1418    15703
     1419    15704        %GET_LTS (@ID = %DML_REC, @ST$ = RECORD_ST$, @RETURN$ = LTS$);

  15706 19 000004   200221 470500                    LDP0    @RECORD_ST$,,AUTO
        19 000005   000000 471500                    LDP1    0,,PR0
        19 000006   100005 236100                    LDQ     5,,PR1
        19 000007   000000 116000 20                 CMPQ    0
        19 000010   000020 600000 19                 TZE     s:15740
        19 000011   100005 473500                    LDP3    5,,PR1
        19 000012   300000 220100                    LDX0    0,,PR3
        19 000013   001105 100003                    CMPX0   581,DU
        19 000014   000020 601000 19                 TNZ     s:15740

PL6.E3A0      #005=Z9EB$DML_STATEMENT File=Z9EB.:Z8A6TSI                         SAT 08/09/97 13:50 Page:309
  15730 19 000015   300007 236100                    LDQ     7,,PR3
        19 000016   000000 756000 11                 STQ     LTS$

  15738 19 000017   000032 710000 19                 TRA     s:15748

  15740 19 000020   000000 116000 20                 CMPQ    0
        19 000021   000030 600000 19                 TZE     s:15744
        19 000022   100005 473500                    LDP3    5,,PR1
        19 000023   300000 220100                    LDX0    0,,PR3
        19 000024   001125 100003                    CMPX0   597,DU
        19 000025   000030 601000 19                 TNZ     s:15744

  15742 19 000026   000000 756000 11                 STQ     LTS$
        19 000027   000032 710000 19                 TRA     s:15748

  15744 19 000030   000000 236000 20                 LDQ     0
        19 000031   000000 756000 11                 STQ     LTS$

     1420    15747
     1421    15748    3   DO WHILE LTS$ ~= ADDR(NIL);

  15748 19 000032   000103 710000 19                 TRA     s:15767

     1422    15749
     1423    15750    3       IF LTS$ -> DML_REC.SET_RELATIONSHIP = %TRUE    THEN

  15750 19 000033   000000 470400 11                 LDP0    LTS$
        19 000034   000001 236100                    LDQ     1,,PR0
        19 000035   000010 316003                    CANQ    8,DU
        19 000036   000101 600000 19                 TZE     s:15766

     1424    15751    3           IF SET_ST$ -> DML_ITEM.INTERNAL_NAME = LTS$ -> DML_REC.SET_NAME   THEN

  15751 19 000037   200222 471500                    LDP1    @SET_ST$,,AUTO
        19 000040   100000 473500                    LDP3    0,,PR1
        19 000041   300001 236100                    LDQ     1,,PR3
        19 000042   000003 116100                    CMPQ    3,,PR0
PL6.E3A0      #005=Z9EB$DML_STATEMENT File=Z9EB.:Z8A6TSI                         SAT 08/09/97 13:50 Page:310
        19 000043   000101 601000 19                 TNZ     s:15766

     1425    15752    3             IF LTS$  -> DML_REC.SET_INFO.MEMBERSHIP = %OWNER  THEN

  15752 19 000044   000001 236100                    LDQ     1,,PR0
        19 000045   000600 316003                    CANQ    384,DU
        19 000046   000077 601000 19                 TNZ     s:15764

     1426    15753    3               IF CODE = %DBCON    THEN

  15753 19 000047   200223 474500                    LDP4    @CODE,,AUTO
        19 000050   040000 106500                    CMPC    fill='040'O
        19 000051   400000 000006                    ADSC9   0,,PR4                   cn=0,n=6
        19 000052   000000 000006 18                 ADSC9   0                        cn=0,n=6
        19 000053   000056 601000 19                 TNZ     s:15755

     1427    15754    3                 RETURN;

  15754 19 000054   200220 221300                    LDX1  ! SET_LIST_CONTROL+2,,AUTO
        19 000055   000001 702211                    TSX2  ! 1,X1

     1428    15755    3               ELSE IF CODE = %DBFRS THEN /* FIND, format 4 or 5 */

  15755 19 000056   040000 106500                    CMPC    fill='040'O
        19 000057   400000 000006                    ADSC9   0,,PR4                   cn=0,n=6
        19 000060   000002 000006 18                 ADSC9   2                        cn=0,n=6
        19 000061   000075 601000 19                 TNZ     s:15762

     1429    15756    3                 IF CODE_TYPE = %SET_CALL AND

  15756 19 000062   200175 235100                    LDA     CODE_TYPE,,AUTO
        19 000063   000001 115007                    CMPA    1,DL
        19 000064   000073 601000 19                 TNZ     s:15760
        19 000065   200202 475500                    LDP5    OPTION$,,AUTO
        19 000066   500003 235100                    LDA     3,,PR5
        19 000067   000171 115007                    CMPA    121,DL
        19 000070   000073 601000 19                 TNZ     s:15760
PL6.E3A0      #005=Z9EB$DML_STATEMENT File=Z9EB.:Z8A6TSI                         SAT 08/09/97 13:50 Page:311

     1430    15757    3                     OPTION$ -> LX_ITEM.SYMBOL = %RSV_WRD_CURRENT THEN
     1431    15758    3                   RETURN; /* Format 5, owner of set is legal */

  15758 19 000071   200220 221300                    LDX1  ! SET_LIST_CONTROL+2,,AUTO
        19 000072   000001 702211                    TSX2  ! 1,X1

     1432    15759    3                 ELSE
     1433    15760    3                   ALTRETURN;

  15760 19 000073   200220 221300                    LDX1  ! SET_LIST_CONTROL+2,,AUTO
        19 000074   000000 702211                    TSX2  ! 0,X1

     1434    15761    3               ELSE
     1435    15762    3                 ALTRETURN;

  15762 19 000075   200220 221300                    LDX1  ! SET_LIST_CONTROL+2,,AUTO
        19 000076   000000 702211                    TSX2  ! 0,X1

     1436    15763    3             ELSE
     1437    15764    3               RETURN;

  15764 19 000077   200220 221300                    LDX1  ! SET_LIST_CONTROL+2,,AUTO
        19 000100   000001 702211                    TSX2  ! 1,X1

     1438    15765
     1439    15766    3       LTS$ = LTS$ -> DML_REC.EXTEND$;

  15766 19 000101   000005 236100                    LDQ     5,,PR0
        19 000102   000000 756000 11                 STQ     LTS$

     1440    15767    3   END;

  15767 19 000103   000000 116000 20                 CMPQ    0
        19 000104   000033 601000 19                 TNZ     s:15750

     1441    15768
PL6.E3A0      #005=Z9EB$DML_STATEMENT File=Z9EB.:Z8A6TSI                         SAT 08/09/97 13:50 Page:312
     1442    15769    2   ALTRETURN;

  15769 19 000105   200220 221300                    LDX1  ! SET_LIST_CONTROL+2,,AUTO
        19 000106   000000 702211                    TSX2  ! 0,X1

     1443    15770    2   END MEMBERSHIP;
     1444    15771        %EJECT;
PL6.E3A0      #005=Z9EB$DML_STATEMENT File=Z9EB.:Z8A6TSI                         SAT 08/09/97 13:50 Page:313
     1445    15772        /*==========*/
     1446    15773    1     BUILD_PARM :    PROC  (ITEM_ST$, LX_ITEM$);

  15773 19 000107   200234 741300       BUILD_PARM   STX1  ! CONST_WORD+1,,AUTO

     1447    15774        /*==========*/
     1448    15775
     1449    15776    2       DCL ITEM_ST$    PTR;
     1450    15777    2       DCL LX_ITEM$    PTR;
     1451    15778    2       DCL PTR$        PTR;
     1452    15779    2       DCL OFFSET      SBIN;
     1453    15780
     1454    15781    2       PTR$ = O1COM.RVA_LINK$;

  15781 19 000110   000074 236000 xsym               LDQ     O1COM+60
        19 000111   200237 756100                    STQ     PTR$,,AUTO

     1455    15782            %GET_RVA_LTS( @ST$ = ITEM_ST$, @LTS$ = LTS$, @POINTER = PTR$);

  15783 19 000112   000127 710000 19                 TRA     s:15791

  15784 19 000113   200235 470500                    LDP0    @ITEM_ST$,,AUTO
        19 000114   200237 471500                    LDP1    PTR$,,AUTO
        19 000115   000000 236100                    LDQ     0,,PR0
        19 000116   100001 116100                    CMPQ    1,,PR1
        19 000117   000125 601000 19                 TNZ     s:15790

  15786 19 000120   200237 236100                    LDQ     PTR$,,AUTO
        19 000121   000000 756000 11                 STQ     LTS$

  15787 19 000122   000000 236000 20                 LDQ     0
        19 000123   200237 756100                    STQ     PTR$,,AUTO

  15788 19 000124   000127 710000 19                 TRA     s:15791

  15790 19 000125   100002 236100                    LDQ     2,,PR1
        19 000126   200237 756100                    STQ     PTR$,,AUTO
PL6.E3A0      #005=Z9EB$DML_STATEMENT File=Z9EB.:Z8A6TSI                         SAT 08/09/97 13:50 Page:314

  15791 19 000127   000000 116000 20                 CMPQ    0
        19 000130   000113 601000 19                 TNZ     s:15784

     1456    15793    2       OFFSET = LTS$ -> RVA_LTS.OFFSET * 4;

  15793 19 000131   000000 470400 11                 LDP0    LTS$
        19 000132   000003 236100                    LDQ     3,,PR0
        19 000133   000020 772000                    QRL     16
        19 000134   000001 376000 20                 ANQ     1
        19 000135   200240 756100                    STQ     OFFSET,,AUTO

     1457    15794    2       CALL Z8EU$CREATE_IDENTIFIER_FROM_ST(O1COM.RVA$, LX_ITEM$);

  15794 19 000136   200236 236100                    LDQ     @LX_ITEM$,,AUTO
        19 000137   000003 235000 20                 LDA     3
        19 000140   200242 757100                    STAQ    OFFSET+2,,AUTO
        19 000141   200242 630500                    EPPR0   OFFSET+2,,AUTO
        19 000142   000002 631400 20                 EPPR1   2
        19 000143   000000 701000 xent               TSX1    Z8EU$CREATE_IDENTIFIER_FROM_ST
        19 000144   000000 011000                    NOP     0

     1458    15795    2       CALL Z8AF$NEW_OFF(LX_ITEM$ -> LX_ETT_ITEM.ETT$, OFFSET, PTR$);

  15795 19 000145   200236 470500                    LDP0    @LX_ITEM$,,AUTO
        19 000146   000000 471500                    LDP1    0,,PR0
        19 000147   200237 633500                    EPPR3   PTR$,,AUTO
        19 000150   200244 453500                    STP3    OFFSET+4,,AUTO
        19 000151   200240 634500                    EPPR4   OFFSET,,AUTO
        19 000152   200243 454500                    STP4    OFFSET+3,,AUTO
        19 000153   100001 635500                    EPPR5   1,,PR1
        19 000154   200242 455500                    STP5    OFFSET+2,,AUTO
        19 000155   200242 630500                    EPPR0   OFFSET+2,,AUTO
        19 000156   000004 631400 20                 EPPR1   4
        19 000157   000000 701000 xent               TSX1    Z8AF$NEW_OFF
        19 000160   000000 011000                    NOP     0

PL6.E3A0      #005=Z9EB$DML_STATEMENT File=Z9EB.:Z8A6TSI                         SAT 08/09/97 13:50 Page:315
     1459    15796    2       LX_ITEM$ -> LX_ETT_ITEM.ETT$ = PTR$;

  15796 19 000161   200236 470500                    LDP0    @LX_ITEM$,,AUTO
        19 000162   000000 471500                    LDP1    0,,PR0
        19 000163   200237 236100                    LDQ     PTR$,,AUTO
        19 000164   100001 756100                    STQ     1,,PR1

     1460    15797
     1461    15798    2   END BUILD_PARM;

  15798 19 000165   200234 221300                    LDX1  ! CONST_WORD+1,,AUTO
        19 000166   000001 702211                    TSX2  ! 1,X1

     1462    15799        %EJECT;
PL6.E3A0      #005=Z9EB$DML_STATEMENT File=Z9EB.:Z8A6TSI                         SAT 08/09/97 13:50 Page:316
     1463    15800        /*================*/
     1464    15801    1     BUILD_CONST_PARM :  PROC ( CONST_WORD, LX_ITEM$);

  15801 19 000167   200234 741300       BUILD_CONST* STX1  ! CONST_WORD+1,,AUTO

     1465    15802        /*================*/
     1466    15803
     1467    15804    2       DCL CONST_WORD  SBIN;
     1468    15805    2       DCL LX_ITEM$    PTR;
     1469    15806    2       DCL RETURN$     PTR;
     1470    15807
     1471    15808    2       MKCN.CON = CONST_WORD;

  15808 19 000170   200235 470500                    LDP0    @CONST_WORD,,AUTO
        19 000171   000000 235100                    LDA     0,,PR0
        19 000172   000000 755000 17                 STA     MKCN

     1472    15809    2       CALL Z8AC$SEARCH_CONSTANT(RETURN$);

  15809 19 000173   200237 631500                    EPPR1   RETURN$,,AUTO
        19 000174   200242 451500                    STP1    OFFSET+2,,AUTO
        19 000175   200242 630500                    EPPR0   OFFSET+2,,AUTO
        19 000176   000005 631400 20                 EPPR1   5
        19 000177   000000 701000 xent               TSX1    Z8AC$SEARCH_CONSTANT
        19 000200   000000 011000                    NOP     0

     1473    15810            %INIT_LX_ETT_ITEM (@POINTER = LX_ITEM$,
     1474    15811                               @TYPE = RETURN$ -> SCALAR.TYPE);

  15813 19 000201   200236 470500                    LDP0    @LX_ITEM$,,AUTO
        19 000202   000000 471500                    LDP1    0,,PR0
        19 000203   000004 220003                    LDX0    4,DU
        19 000204   100000 740100                    STX0    0,,PR1

  15814 19 000205   000000 471500                    LDP1    0,,PR0
        19 000206   000000 221003                    LDX1    0,DU
        19 000207   100000 441100                    SXL1    0,,PR1
PL6.E3A0      #005=Z9EB$DML_STATEMENT File=Z9EB.:Z8A6TSI                         SAT 08/09/97 13:50 Page:317

  15815 19 000210   000000 471500                    LDP1    0,,PR0
        19 000211   200237 473500                    LDP3    RETURN$,,AUTO
        19 000212   300002 236100                    LDQ     2,,PR3
        19 000213   000022 772000                    QRL     18
        19 000214   100004 756100                    STQ     4,,PR1

  15816 19 000215   000000 471500                    LDP1    0,,PR0
        19 000216   000000 236000 20                 LDQ     0
        19 000217   100007 756100                    STQ     7,,PR1

  15817 19 000220   000000 471500                    LDP1    0,,PR0
        19 000221   100001 756100                    STQ     1,,PR1

  15818 19 000222   000000 471500                    LDP1    0,,PR0
        19 000223   100002 756100                    STQ     2,,PR1

  15820 19 000224   000000 471500                    LDP1    0,,PR0
        19 000225   000133 235000 xsym               LDA     COMCOM+91
        19 000226   100005 755100                    STA     5,,PR1

  15821 19 000227   000000 471500                    LDP1    0,,PR0
        19 000230   000134 235000 xsym               LDA     COMCOM+92
        19 000231   100006 755100                    STA     6,,PR1

     1475    15833
     1476    15834            %SRCH_ETT( @ID = %TRIAD,
     1477    15835                       @LOP = RETURN$,
     1478    15836                       @ROP = "ADDR(NIL)",
     1479    15837                       @ETT$ = LX_ITEM$ -> LX_ETT_ITEM.ETT$);

  15839 19 000232   000015 235007                    LDA     13,DL
        19 000233   000000 755000 13                 STA     SRCH

  15840 19 000234   200237 236100                    LDQ     RETURN$,,AUTO
        19 000235   000001 756000 13                 STQ     SRCH+1

PL6.E3A0      #005=Z9EB$DML_STATEMENT File=Z9EB.:Z8A6TSI                         SAT 08/09/97 13:50 Page:318
  15842 19 000236   000000 236000 20                 LDQ     0
        19 000237   000002 756000 13                 STQ     SRCH+2

  15849 19 000240   000000 471500                    LDP1    0,,PR0
        19 000241   100001 633500                    EPPR3   1,,PR1
        19 000242   200242 453500                    STP3    OFFSET+2,,AUTO
        19 000243   200242 630500                    EPPR0   OFFSET+2,,AUTO
        19 000244   000005 631400 20                 EPPR1   5
        19 000245   000000 701000 xent               TSX1    Z8AS$SR_ETT
        19 000246   000000 011000                    NOP     0

     1480    15852
     1481    15853    2   END BUILD_CONST_PARM;

  15853 19 000247   200234 221300                    LDX1  ! CONST_WORD+1,,AUTO
        19 000250   000001 702211                    TSX2  ! 1,X1

     1482    15854        %EJECT;
PL6.E3A0      #005=Z9EB$DML_STATEMENT File=Z9EB.:Z8A6TSI                         SAT 08/09/97 13:50 Page:319
     1483    15855        /*==============*/
     1484    15856    1     BUILD_ETT_PARM :    PROC ( ITEM_ST$, ITEM$);

  15856 19 000251   200232 741300       BUILD_ETT_P* STX1  ! RVA_TYPE+2,,AUTO

     1485    15857        /*==============*/
     1486    15858
     1487    15859    2       DCL ITEM_ST$    PTR;
     1488    15860    2       DCL ITEM$       PTR;
     1489    15861    2       DCL PTR$       PTR;
     1490    15862    2       DCL OFFSET      SBIN;
     1491    15863
     1492    15864    2           PTR$ = O1COM.RVA_LINK$;

  15864 19 000252   000074 236000 xsym               LDQ     O1COM+60
        19 000253   200235 756100                    STQ     PTR$,,AUTO

     1493    15865                %GET_RVA_LTS(@ST$ = ITEM_ST$,@LTS$ = LTS$,@POINTER = PTR$);

  15866 19 000254   000271 710000 19                 TRA     s:15874

  15867 19 000255   200233 470500                    LDP0    @ITEM_ST$,,AUTO
        19 000256   200235 471500                    LDP1    PTR$,,AUTO
        19 000257   000000 236100                    LDQ     0,,PR0
        19 000260   100001 116100                    CMPQ    1,,PR1
        19 000261   000267 601000 19                 TNZ     s:15873

  15869 19 000262   200235 236100                    LDQ     PTR$,,AUTO
        19 000263   000000 756000 11                 STQ     LTS$

  15870 19 000264   000000 236000 20                 LDQ     0
        19 000265   200235 756100                    STQ     PTR$,,AUTO

  15871 19 000266   000271 710000 19                 TRA     s:15874

  15873 19 000267   100002 236100                    LDQ     2,,PR1
        19 000270   200235 756100                    STQ     PTR$,,AUTO
PL6.E3A0      #005=Z9EB$DML_STATEMENT File=Z9EB.:Z8A6TSI                         SAT 08/09/97 13:50 Page:320

  15874 19 000271   000000 116000 20                 CMPQ    0
        19 000272   000255 601000 19                 TNZ     s:15867

     1494    15876    2           OFFSET = LTS$ -> RVA_LTS.OFFSET * 4;

  15876 19 000273   000000 470400 11                 LDP0    LTS$
        19 000274   000003 236100                    LDQ     3,,PR0
        19 000275   000020 772000                    QRL     16
        19 000276   000001 376000 20                 ANQ     1
        19 000277   200236 756100                    STQ     OFFSET,,AUTO

     1495    15877    2           ITEM$ -> LX_ETT_ITEM.TYPE = O1COM.RVA$ -> SCALAR.TYPE;

  15877 19 000300   200234 471500                    LDP1    @ITEM$,,AUTO
        19 000301   100000 473500                    LDP3    0,,PR1
        19 000302   000075 474400 xsym               LDP4    O1COM+61
        19 000303   400002 236100                    LDQ     2,,PR4
        19 000304   000022 772000                    QRL     18
        19 000305   300004 756100                    STQ     4,,PR3

     1496    15878                %SRCH_ETT(@ID  = %BASE,
     1497    15879                          @LOP = O1COM.RVA$,
     1498    15880                          @ROP = "ADDR(NIL)",
     1499    15881                          @ETT$ = ITEM$ -> LX_ETT_ITEM.ETT$);

  15883 19 000306   000001 235007                    LDA     1,DL
        19 000307   000000 755000 13                 STA     SRCH

  15884 19 000310   000075 236000 xsym               LDQ     O1COM+61
        19 000311   000001 756000 13                 STQ     SRCH+1

  15886 19 000312   000000 236000 20                 LDQ     0
        19 000313   000002 756000 13                 STQ     SRCH+2

  15893 19 000314   100000 473500                    LDP3    0,,PR1
        19 000315   300001 634500                    EPPR4   1,,PR3
PL6.E3A0      #005=Z9EB$DML_STATEMENT File=Z9EB.:Z8A6TSI                         SAT 08/09/97 13:50 Page:321
        19 000316   200242 454500                    STP4    OFFSET+2,,AUTO
        19 000317   200242 630500                    EPPR0   OFFSET+2,,AUTO
        19 000320   000005 631400 20                 EPPR1   5
        19 000321   000000 701000 xent               TSX1    Z8AS$SR_ETT
        19 000322   000000 011000                    NOP     0

     1500    15896    2           CALL Z8AF$NEW_OFF(ITEM$ -> LX_ETT_ITEM.ETT$, OFFSET, PTR$);

  15896 19 000323   200234 470500                    LDP0    @ITEM$,,AUTO
        19 000324   000000 471500                    LDP1    0,,PR0
        19 000325   200235 633500                    EPPR3   PTR$,,AUTO
        19 000326   200244 453500                    STP3    OFFSET+4,,AUTO
        19 000327   200236 634500                    EPPR4   OFFSET,,AUTO
        19 000330   200243 454500                    STP4    OFFSET+3,,AUTO
        19 000331   100001 635500                    EPPR5   1,,PR1
        19 000332   200242 455500                    STP5    OFFSET+2,,AUTO
        19 000333   200242 630500                    EPPR0   OFFSET+2,,AUTO
        19 000334   000004 631400 20                 EPPR1   4
        19 000335   000000 701000 xent               TSX1    Z8AF$NEW_OFF
        19 000336   000000 011000                    NOP     0

     1501    15897    2           ITEM$ ->LX_ETT_ITEM.ETT$ = PTR$;

  15897 19 000337   200234 470500                    LDP0    @ITEM$,,AUTO
        19 000340   000000 471500                    LDP1    0,,PR0
        19 000341   200235 236100                    LDQ     PTR$,,AUTO
        19 000342   100001 756100                    STQ     1,,PR1

     1502    15898
     1503    15899    2   END BUILD_ETT_PARM;

  15899 19 000343   200232 221300                    LDX1  ! RVA_TYPE+2,,AUTO
        19 000344   000001 702211                    TSX2  ! 1,X1

     1504    15900        %EJECT;
PL6.E3A0      #005=Z9EB$DML_STATEMENT File=Z9EB.:Z8A6TSI                         SAT 08/09/97 13:50 Page:322
     1505    15901        /*==============*/
     1506    15902    1          RETENTION :    PROC  (HEAD$,LX_ITEM$);

  15902 19 000345   200220 741300       RETENTION    STX1  ! SET_LIST_CONTROL+2,,AUTO

     1507    15903        /*==============*/
     1508    15904
     1509    15905    2       DCL HEAD$       PTR;
     1510    15906    2       DCL LX_ITEM$    PTR;
     1511    15907    2       DCL RETENTION_LIST$   PTR;
     1512    15908    2       DCL RETENTION_WORD_CONST   SBIN;
     1513    15909    2       DCL 1 RETENTION_WORD  REDEF RETENTION_WORD_CONST,
     1514    15910    2             2 *       UBIN(18) UNAL,
     1515    15911    2             2 REALM   BOOLEAN,
     1516    15912    2             2 SET     BOOLEAN,
     1517    15913    2             2 RECORD  BOOLEAN,
     1518    15914    2             2 *       UBIN(7) UNAL,
     1519    15915    2             2 COUNT   UBIN(8) UNAL;
     1520    15916    2       DCL LAST_LX_ITEM$       PTR;
     1521    15917    2       DCL LIST$               PTR;
     1522    15918    2       DCL SET_ST$             PTR;
     1523    15919    2       DCL RVA_TYPE            UBIN(18);
     1524    15920
     1525    15921    2       RVA_TYPE = %RVA_SET;

  15921 19 000346   000001 220003                    LDX0    1,DU
        19 000347   200230 740100                    STX0    RVA_TYPE,,AUTO

     1526    15922    2       RETENTION_WORD_CONST = 0;

  15922 19 000350   200224 450100                    STZ     RETENTION_WORD_CONST,,AUTO

     1527    15923    2       RETENTION_LIST$ = ADDR(NIL);

  15923 19 000351   000000 236000 20                 LDQ     0
        19 000352   200223 756100                    STQ     RETENTION_LIST$,,AUTO

PL6.E3A0      #005=Z9EB$DML_STATEMENT File=Z9EB.:Z8A6TSI                         SAT 08/09/97 13:50 Page:323
     1528    15924    2       LAST_LX_ITEM$ = ADDR(NIL);

  15924 19 000353   200225 756100                    STQ     LAST_LX_ITEM$,,AUTO

     1529    15925
     1530    15926    2       IF HEAD$ ~= ADDR(NIL)            THEN

  15926 19 000354   200221 470500                    LDP0    @HEAD$,,AUTO
        19 000355   000000 236100                    LDQ     0,,PR0
        19 000356   000000 116000 20                 CMPQ    0
        19 000357   000364 600000 19                 TZE     s:15929

     1531    15927    2           LIST$ = HEAD$ -> LX_LIST.HEAD$;

  15927 19 000360   000000 471500                    LDP1    0,,PR0
        19 000361   100004 236100                    LDQ     4,,PR1
        19 000362   200226 756100                    STQ     LIST$,,AUTO
        19 000363   000366 710000 19                 TRA     s:15931

     1532    15928    2       ELSE
     1533    15929    2           LIST$ = ADDR(NIL);

  15929 19 000364   000000 236000 20                 LDQ     0
        19 000365   200226 756100                    STQ     LIST$,,AUTO

     1534    15930
     1535    15931    3       DO WHILE LIST$ ~= ADDR(NIL);

  15931 19 000366   000607 710000 19                 TRA     s:15985

     1536    15932
     1537    15933    4         DO CASE(LIST$ -> LX_ITEM.SYMBOL);

  15933 19 000367   200226 470500                    LDP0    LIST$,,AUTO
        19 000370   000003 235100                    LDA     3,,PR0
        19 000371   000550 135007                    SBLA    360,DL
        19 000372   000072 115007                    CMPA    58,DL
PL6.E3A0      #005=Z9EB$DML_STATEMENT File=Z9EB.:Z8A6TSI                         SAT 08/09/97 13:50 Page:324
        19 000373   000375 602005 19                 TNC     s:15933+6,AL
        19 000374   000500 710000 19                 TRA     s:15946
        19 000375   000467 710000 19                 TRA     s:15936
        19 000376   000500 710000 19                 TRA     s:15946
        19 000377   000500 710000 19                 TRA     s:15946
        19 000400   000500 710000 19                 TRA     s:15946
        19 000401   000475 710000 19                 TRA     s:15942
        19 000402   000500 710000 19                 TRA     s:15946
        19 000403   000500 710000 19                 TRA     s:15946
        19 000404   000500 710000 19                 TRA     s:15946
        19 000405   000500 710000 19                 TRA     s:15946
        19 000406   000500 710000 19                 TRA     s:15946
        19 000407   000500 710000 19                 TRA     s:15946
        19 000410   000500 710000 19                 TRA     s:15946
        19 000411   000500 710000 19                 TRA     s:15946
        19 000412   000500 710000 19                 TRA     s:15946
        19 000413   000500 710000 19                 TRA     s:15946
        19 000414   000500 710000 19                 TRA     s:15946
        19 000415   000500 710000 19                 TRA     s:15946
        19 000416   000500 710000 19                 TRA     s:15946
        19 000417   000500 710000 19                 TRA     s:15946
        19 000420   000500 710000 19                 TRA     s:15946
        19 000421   000500 710000 19                 TRA     s:15946
        19 000422   000500 710000 19                 TRA     s:15946
        19 000423   000500 710000 19                 TRA     s:15946
        19 000424   000500 710000 19                 TRA     s:15946
        19 000425   000500 710000 19                 TRA     s:15946
        19 000426   000500 710000 19                 TRA     s:15946
        19 000427   000500 710000 19                 TRA     s:15946
        19 000430   000500 710000 19                 TRA     s:15946
        19 000431   000500 710000 19                 TRA     s:15946
        19 000432   000500 710000 19                 TRA     s:15946
        19 000433   000500 710000 19                 TRA     s:15946
        19 000434   000500 710000 19                 TRA     s:15946
        19 000435   000500 710000 19                 TRA     s:15946
        19 000436   000500 710000 19                 TRA     s:15946
        19 000437   000500 710000 19                 TRA     s:15946
PL6.E3A0      #005=Z9EB$DML_STATEMENT File=Z9EB.:Z8A6TSI                         SAT 08/09/97 13:50 Page:325
        19 000440   000500 710000 19                 TRA     s:15946
        19 000441   000500 710000 19                 TRA     s:15946
        19 000442   000500 710000 19                 TRA     s:15946
        19 000443   000500 710000 19                 TRA     s:15946
        19 000444   000500 710000 19                 TRA     s:15946
        19 000445   000500 710000 19                 TRA     s:15946
        19 000446   000500 710000 19                 TRA     s:15946
        19 000447   000500 710000 19                 TRA     s:15946
        19 000450   000500 710000 19                 TRA     s:15946
        19 000451   000500 710000 19                 TRA     s:15946
        19 000452   000500 710000 19                 TRA     s:15946
        19 000453   000500 710000 19                 TRA     s:15946
        19 000454   000500 710000 19                 TRA     s:15946
        19 000455   000500 710000 19                 TRA     s:15946
        19 000456   000500 710000 19                 TRA     s:15946
        19 000457   000500 710000 19                 TRA     s:15946
        19 000460   000500 710000 19                 TRA     s:15946
        19 000461   000500 710000 19                 TRA     s:15946
        19 000462   000500 710000 19                 TRA     s:15946
        19 000463   000500 710000 19                 TRA     s:15946
        19 000464   000500 710000 19                 TRA     s:15946
        19 000465   000500 710000 19                 TRA     s:15946
        19 000466   000472 710000 19                 TRA     s:15939

     1538    15934
     1539    15935    4           CASE(%RSV_WRD_REALM);

     1540    15936    4               RETENTION_WORD.REALM = %TRUE;

  15936 19 000467   400000 236007                    LDQ     -131072,DL
        19 000470   200224 256100                    ORSQ    RETENTION_WORD_CONST,,AUTO
        19 000471   000604 710000 19                 TRA     s:15983

     1541    15937
     1542    15938    4           CASE(%RSV_WRD_SETS);

     1543    15939    4               RETENTION_WORD.SET = %TRUE;
PL6.E3A0      #005=Z9EB$DML_STATEMENT File=Z9EB.:Z8A6TSI                         SAT 08/09/97 13:50 Page:326

  15939 19 000472   200000 236007                    LDQ     65536,DL
        19 000473   200224 256100                    ORSQ    RETENTION_WORD_CONST,,AUTO
        19 000474   000604 710000 19                 TRA     s:15983

     1544    15940
     1545    15941    4           CASE(%RSV_WRD_RECORD);

     1546    15942    4               RETENTION_WORD.RECORD = %TRUE;

  15942 19 000475   100000 236007                    LDQ     32768,DL
        19 000476   200224 256100                    ORSQ    RETENTION_WORD_CONST,,AUTO
        19 000477   000604 710000 19                 TRA     s:15983

     1547    15943
     1548    15944    4           CASE(ELSE);                     /*V*  SET NAME  */

     1549    15945
     1550    15946    4               IF NOT LIST$ -> LX_ITEM.B.ERROR     THEN

  15946 19 000500   000000 236100                    LDQ     0,,PR0
        19 000501   400000 316007                    CANQ    -131072,DL
        19 000502   000604 601000 19                 TNZ     s:15983

     1551    15947    5                 DO;                          /*#32378*/

     1552    15948
     1553    15949                        %FISH(TRIAD = LIST$ -> LX_ETT_ITEM.ETT$, RTN = SET_ST$);

  15951 19 000503   000001 236100                    LDQ     1,,PR0
        19 000504   200227 756100                    STQ     SET_ST$,,AUTO

  15952 19 000505   200227 471500                    LDP1    SET_ST$,,AUTO
        19 000506   100000 220100                    LDX0    0,,PR1
        19 000507   000751 100003                    CMPX0   489,DU
        19 000510   000520 603000 19                 TRC     s:15957

PL6.E3A0      #005=Z9EB$DML_STATEMENT File=Z9EB.:Z8A6TSI                         SAT 08/09/97 13:50 Page:327
  15953 19 000511   200227 470500                    LDP0    SET_ST$,,AUTO
        19 000512   000001 236100                    LDQ     1,,PR0
        19 000513   200227 756100                    STQ     SET_ST$,,AUTO

  15954 19 000514   200227 470500                    LDP0    SET_ST$,,AUTO
        19 000515   000000 220100                    LDX0    0,,PR0
        19 000516   000751 100003                    CMPX0   489,DU
        19 000517   000511 602000 19                 TNC     s:15953

     1554    15957    5                   IF SET_ST$ -> DML_ITEM.ID ~= %DML_SET      THEN

  15957 19 000520   200227 470500                    LDP0    SET_ST$,,AUTO
        19 000521   000000 220100                    LDX0    0,,PR0
        19 000522   000753 100003                    CMPX0   491,DU
        19 000523   000540 600000 19                 TZE     s:15964

     1555    15958    5                       CALL Z8AE$ERROR(%E$ITEM_NOT_A_SET,

  15958 19 000524   200226 236100                    LDQ     LIST$,,AUTO
        19 000525   000006 036003                    ADLQ    6,DU
        19 000526   200244 756100                    STQ     OFFSET+4,,AUTO
        19 000527   200226 236100                    LDQ     LIST$,,AUTO
        19 000530   000005 036003                    ADLQ    5,DU
        19 000531   000007 235000 20                 LDA     7
        19 000532   200242 757100                    STAQ    OFFSET+2,,AUTO
        19 000533   200242 630500                    EPPR0   OFFSET+2,,AUTO
        19 000534   000004 631400 20                 EPPR1   4
        19 000535   000000 701000 xent               TSX1    Z8AE$ERROR
        19 000536   000000 011000                    NOP     0
        19 000537   000604 710000 19                 TRA     s:15983

     1556    15959    5                                       LIST$ -> LX_ITEM.LINE,
     1557    15960    5                                       LIST$ -> LX_ITEM.COLUMN);
     1558    15961    5                   ELSE
     1559    15962    6                     DO;

     1560    15963                                /*V*     NO   ERROR    */
PL6.E3A0      #005=Z9EB$DML_STATEMENT File=Z9EB.:Z8A6TSI                         SAT 08/09/97 13:50 Page:328
     1561    15964    6                       IF SET_ST$ -> DML_ITEM.B.DML_RVA = %FALSE  THEN

  15964 19 000540   000003 236100                    LDQ     3,,PR0
        19 000541   002000 316007                    CANQ    1024,DL
        19 000542   000553 601000 19                 TNZ     s:15967

     1562    15965    6                           CALL Z9EB$BUILD_RVA_TABLE(SET_ST$,RVA_TYPE);

  15965 19 000543   200230 631500                    EPPR1   RVA_TYPE,,AUTO
        19 000544   200243 451500                    STP1    OFFSET+3,,AUTO
        19 000545   200227 633500                    EPPR3   SET_ST$,,AUTO
        19 000546   200242 453500                    STP3    OFFSET+2,,AUTO
        19 000547   200242 630500                    EPPR0   OFFSET+2,,AUTO
        19 000550   000002 631400 20                 EPPR1   2
        19 000551   000000 701000 xent               TSX1    Z9EB$BUILD_RVA_TABLE
        19 000552   000000 011000                    NOP     0

     1563    15966
     1564    15967    6                       IF RETENTION_LIST$ = ADDR(NIL)    THEN

  15967 19 000553   200223 236100                    LDQ     RETENTION_LIST$,,AUTO
        19 000554   000000 116000 20                 CMPQ    0
        19 000555   000560 601000 19                 TNZ     s:15970

     1565    15968    6                           RETENTION_LIST$ = LIST$;

  15968 19 000556   200226 236100                    LDQ     LIST$,,AUTO
        19 000557   200223 756100                    STQ     RETENTION_LIST$,,AUTO

     1566    15969
     1567    15970    6                       CALL BUILD_ETT_PARM( SET_ST$, LIST$);

  15970 19 000560   200226 630500                    EPPR0   LIST$,,AUTO
        19 000561   200234 450500                    STP0    @ITEM$,,AUTO
        19 000562   200227 631500                    EPPR1   SET_ST$,,AUTO
        19 000563   200233 451500                    STP1    @ITEM_ST$,,AUTO
        19 000564   000251 701000 19                 TSX1    BUILD_ETT_PARM
PL6.E3A0      #005=Z9EB$DML_STATEMENT File=Z9EB.:Z8A6TSI                         SAT 08/09/97 13:50 Page:329
        19 000565   000000 011000                    NOP     0

     1568    15971
     1569    15972    6                       IF LAST_LX_ITEM$ ~= ADDR(NIL)         THEN

  15972 19 000566   200225 236100                    LDQ     LAST_LX_ITEM$,,AUTO
        19 000567   000000 116000 20                 CMPQ    0
        19 000570   000574 600000 19                 TZE     s:15975

     1570    15973    6                           LAST_LX_ITEM$ -> LX_ITEM.LINK = LIST$;

  15973 19 000571   200226 236100                    LDQ     LIST$,,AUTO
        19 000572   200225 470500                    LDP0    LAST_LX_ITEM$,,AUTO
        19 000573   000007 756100                    STQ     7,,PR0

     1571    15974
     1572    15975    6                       LAST_LX_ITEM$ = LIST$;

  15975 19 000574   200226 236100                    LDQ     LIST$,,AUTO
        19 000575   200225 756100                    STQ     LAST_LX_ITEM$,,AUTO

     1573    15976    6                       RETENTION_WORD.COUNT = RETENTION_WORD.COUNT + 1;

  15976 19 000576   200224 236100                    LDQ     RETENTION_WORD_CONST,,AUTO
        19 000577   000377 376007                    ANQ     255,DL
        19 000600   000001 036007                    ADLQ    1,DL
        19 000601   200224 676100                    ERQ     RETENTION_WORD_CONST,,AUTO
        19 000602   000377 376007                    ANQ     255,DL
        19 000603   200224 656100                    ERSQ    RETENTION_WORD_CONST,,AUTO

     1574    15977
     1575    15978    6                     END;                  /*V*  NO ERROR   */

     1576    15979    5                 END;

     1577    15980
     1578    15981    4         END;                          /*V*   CASE LX_ITEM.SYMBOL  */
PL6.E3A0      #005=Z9EB$DML_STATEMENT File=Z9EB.:Z8A6TSI                         SAT 08/09/97 13:50 Page:330

     1579    15982
     1580    15983    3         LIST$ = LIST$ -> LX_ITEM.LINK;

  15983 19 000604   200226 470500                    LDP0    LIST$,,AUTO
        19 000605   000007 236100                    LDQ     7,,PR0
        19 000606   200226 756100                    STQ     LIST$,,AUTO

     1581    15984
     1582    15985    3       END;                            /*V*   WHILE LIST$ ~= ADDR(NIL)  */

  15985 19 000607   000000 116000 20                 CMPQ    0
        19 000610   000367 601000 19                 TNZ     s:15933

     1583    15986
     1584    15987    2       CALL BUILD_CONST_PARM( RETENTION_WORD_CONST, LX_ITEM$);

  15987 19 000611   200222 236100                    LDQ     @LX_ITEM$,,AUTO
        19 000612   200236 756100                    STQ     OFFSET,,AUTO
        19 000613   200224 630500                    EPPR0   RETENTION_WORD_CONST,,AUTO
        19 000614   200235 450500                    STP0    PTR$,,AUTO
        19 000615   000167 701000 19                 TSX1    BUILD_CONST_PARM
        19 000616   000000 011000                    NOP     0

     1585    15988
     1586    15989    2       IF HEAD$ = ADDR(NIL)             THEN

  15989 19 000617   200221 470500                    LDP0    @HEAD$,,AUTO
        19 000620   000000 236100                    LDQ     0,,PR0
        19 000621   000000 116000 20                 CMPQ    0
        19 000622   000644 601000 19                 TNZ     s:15996

     1587    15990    3         DO;

     1588    15991    3           CALL BUILD_CONST_PARM( 0, ADDR(MC_LX_ITEM));

  15991 19 000623   200056 631500                    EPPR1   MC_LX_ITEM,,AUTO
PL6.E3A0      #005=Z9EB$DML_STATEMENT File=Z9EB.:Z8A6TSI                         SAT 08/09/97 13:50 Page:331
        19 000624   200246 451500                    STP1    OFFSET+6,,AUTO
        19 000625   200246 633500                    EPPR3   OFFSET+6,,AUTO
        19 000626   200236 453500                    STP3    OFFSET,,AUTO
        19 000627   000011 236000 20                 LDQ     9
        19 000630   200235 756100                    STQ     PTR$,,AUTO
        19 000631   000167 701000 19                 TSX1    BUILD_CONST_PARM
        19 000632   000000 011000                    NOP     0

     1589    15992    3           LX_ITEM$ -> LX_ITEM.LINK = ADDR(MC_LX_ITEM);

  15992 19 000633   200222 470500                    LDP0    @LX_ITEM$,,AUTO
        19 000634   000000 471500                    LDP1    0,,PR0
        19 000635   200056 633500                    EPPR3   MC_LX_ITEM,,AUTO
        19 000636   100007 453500                    STP3    7,,PR1

     1590    15993    3           RETENTION_WORD.COUNT = 1;

  15993 19 000637   200224 236100                    LDQ     RETENTION_WORD_CONST,,AUTO
        19 000640   000012 376000 20                 ANQ     10
        19 000641   000001 276007                    ORQ     1,DL
        19 000642   200224 756100                    STQ     RETENTION_WORD_CONST,,AUTO

     1591    15994    3         END;

  15994 19 000643   000650 710000 19                 TRA     s:15999

     1592    15995    2        ELSE
     1593    15996    2           LX_ITEM$ -> LX_ITEM.LINK = RETENTION_LIST$;

  15996 19 000644   200222 471500                    LDP1    @LX_ITEM$,,AUTO
        19 000645   100000 473500                    LDP3    0,,PR1
        19 000646   200223 236100                    LDQ     RETENTION_LIST$,,AUTO
        19 000647   300007 756100                    STQ     7,,PR3

     1594    15997
     1595    15998
     1596    15999    2       LX_ITEM$ -> LX_LIST.COUNT = RETENTION_WORD.COUNT;
PL6.E3A0      #005=Z9EB$DML_STATEMENT File=Z9EB.:Z8A6TSI                         SAT 08/09/97 13:50 Page:332

  15999 19 000650   200222 470500                    LDP0    @LX_ITEM$,,AUTO
        19 000651   000000 471500                    LDP1    0,,PR0
        19 000652   200224 236100                    LDQ     RETENTION_WORD_CONST,,AUTO
        19 000653   000377 376007                    ANQ     255,DL
        19 000654   100002 756100                    STQ     2,,PR1

     1597    16000
     1598    16001    2   END RETENTION;

  16001 19 000655   200220 221300                    LDX1  ! SET_LIST_CONTROL+2,,AUTO
        19 000656   000001 702211                    TSX2  ! 1,X1

     1599    16002        %EJECT;
PL6.E3A0      #005=Z9EB$DML_STATEMENT File=Z9EB.:Z8A6TSI                         SAT 08/09/97 13:50 Page:333
     1600    16003        /*-------------*/
     1601    16004    1     FIND_RELATIVE :  PROC ( CODE, FIND_CONTROL$,RECORD_ST$,REALM_SET_ST$,

  16004 19 000657   200220 741300       FIND_RELATI* STX1  ! SET_LIST_CONTROL+2,,AUTO

     1602    16005        /*-------------*/
     1603    16006    1                                                 RETENTION_LIST$);
     1604    16007    2       DCL CODE        CHAR(6);
     1605    16008    2       DCL FIND_CONTROL$   PTR;
     1606    16009    2       DCL RECORD_ST$     PTR;
     1607    16010    2       DCL REALM_SET_ST$  PTR;
     1608    16011    2       DCL RETENTION_LIST$  PTR;
     1609    16012
     1610    16013
     1611    16014    2       CONST_WORD  = 0;

  16014 19 000660   200176 450100                    STZ     CONST_WORD,,AUTO

     1612    16015    2       ARG_COUNT = 5 + ADDR(RL_LX_ITEM) -> LX_LIST.COUNT;

  16015 19 000661   200020 235100                    LDA     RL_LX_ITEM+2,,AUTO
        19 000662   000005 035007                    ADLA    5,DL
        19 000663   200146 755100                    STA     ARG_COUNT,,AUTO

     1613    16016    2       CALL Z8EU$CREATE_IDENTIFIER_FROM_ST(O1COM.DML_IA$,ADDR(IA_LX_ITEM));

  16016 19 000664   200006 630500                    EPPR0   IA_LX_ITEM,,AUTO
        19 000665   200242 450500                    STP0    OFFSET+2,,AUTO
        19 000666   200242 631500                    EPPR1   OFFSET+2,,AUTO
        19 000667   200245 451500                    STP1    OFFSET+5,,AUTO
        19 000670   000013 236000 20                 LDQ     11
        19 000671   200244 756100                    STQ     OFFSET+4,,AUTO
        19 000672   200244 630500                    EPPR0   OFFSET+4,,AUTO
        19 000673   000002 631400 20                 EPPR1   2
        19 000674   000000 701000 xent               TSX1    Z8EU$CREATE_IDENTIFIER_FROM_ST
        19 000675   000000 011000                    NOP     0

PL6.E3A0      #005=Z9EB$DML_STATEMENT File=Z9EB.:Z8A6TSI                         SAT 08/09/97 13:50 Page:334
     1614    16017
     1615    16018    3       DO CASE(FIND_CONTROL$ -> LX_ITEM.SYMBOL);

  16018 19 000676   200222 470500                    LDP0    @FIND_CONTROL$,,AUTO
        19 000677   000000 471500                    LDP1    0,,PR0
        19 000700   100003 235100                    LDA     3,,PR1
        19 000701   000171 135007                    SBLA    121,DL
        19 000702   000340 115007                    CMPA    224,DL
        19 000703   000705 602005 19                 TNC     s:16018+7,AL
        19 000704   001256 710000 19                 TRA     s:16026
        19 000705   001250 710000 19                 TRA     s:16022
        19 000706   001256 710000 19                 TRA     s:16026
        19 000707   001256 710000 19                 TRA     s:16026
        19 000710   001256 710000 19                 TRA     s:16026
        19 000711   001256 710000 19                 TRA     s:16026
        19 000712   001256 710000 19                 TRA     s:16026
        19 000713   001256 710000 19                 TRA     s:16026
        19 000714   001256 710000 19                 TRA     s:16026
        19 000715   001256 710000 19                 TRA     s:16026
        19 000716   001256 710000 19                 TRA     s:16026
        19 000717   001256 710000 19                 TRA     s:16026
        19 000720   001256 710000 19                 TRA     s:16026
        19 000721   001256 710000 19                 TRA     s:16026
        19 000722   001256 710000 19                 TRA     s:16026
        19 000723   001256 710000 19                 TRA     s:16026
        19 000724   001256 710000 19                 TRA     s:16026
        19 000725   001256 710000 19                 TRA     s:16026
        19 000726   001256 710000 19                 TRA     s:16026
        19 000727   001256 710000 19                 TRA     s:16026
        19 000730   001256 710000 19                 TRA     s:16026
        19 000731   001256 710000 19                 TRA     s:16026
        19 000732   001256 710000 19                 TRA     s:16026
        19 000733   001256 710000 19                 TRA     s:16026
        19 000734   001256 710000 19                 TRA     s:16026
        19 000735   001256 710000 19                 TRA     s:16026
        19 000736   001256 710000 19                 TRA     s:16026
        19 000737   001256 710000 19                 TRA     s:16026
PL6.E3A0      #005=Z9EB$DML_STATEMENT File=Z9EB.:Z8A6TSI                         SAT 08/09/97 13:50 Page:335
        19 000740   001256 710000 19                 TRA     s:16026
        19 000741   001256 710000 19                 TRA     s:16026
        19 000742   001256 710000 19                 TRA     s:16026
        19 000743   001256 710000 19                 TRA     s:16026
        19 000744   001256 710000 19                 TRA     s:16026
        19 000745   001256 710000 19                 TRA     s:16026
        19 000746   001256 710000 19                 TRA     s:16026
        19 000747   001256 710000 19                 TRA     s:16026
        19 000750   001256 710000 19                 TRA     s:16026
        19 000751   001256 710000 19                 TRA     s:16026
        19 000752   001256 710000 19                 TRA     s:16026
        19 000753   001256 710000 19                 TRA     s:16026
        19 000754   001256 710000 19                 TRA     s:16026
        19 000755   001256 710000 19                 TRA     s:16026
        19 000756   001256 710000 19                 TRA     s:16026
        19 000757   001256 710000 19                 TRA     s:16026
        19 000760   001256 710000 19                 TRA     s:16026
        19 000761   001256 710000 19                 TRA     s:16026
        19 000762   001256 710000 19                 TRA     s:16026
        19 000763   001256 710000 19                 TRA     s:16026
        19 000764   001256 710000 19                 TRA     s:16026
        19 000765   001256 710000 19                 TRA     s:16026
        19 000766   001256 710000 19                 TRA     s:16026
        19 000767   001256 710000 19                 TRA     s:16026
        19 000770   001256 710000 19                 TRA     s:16026
        19 000771   001256 710000 19                 TRA     s:16026
        19 000772   001256 710000 19                 TRA     s:16026
        19 000773   001256 710000 19                 TRA     s:16026
        19 000774   001256 710000 19                 TRA     s:16026
        19 000775   001256 710000 19                 TRA     s:16026
        19 000776   001256 710000 19                 TRA     s:16026
        19 000777   001256 710000 19                 TRA     s:16026
        19 001000   001256 710000 19                 TRA     s:16026
        19 001001   001256 710000 19                 TRA     s:16026
        19 001002   001256 710000 19                 TRA     s:16026
        19 001003   001256 710000 19                 TRA     s:16026
        19 001004   001256 710000 19                 TRA     s:16026
PL6.E3A0      #005=Z9EB$DML_STATEMENT File=Z9EB.:Z8A6TSI                         SAT 08/09/97 13:50 Page:336
        19 001005   001256 710000 19                 TRA     s:16026
        19 001006   001256 710000 19                 TRA     s:16026
        19 001007   001256 710000 19                 TRA     s:16026
        19 001010   001256 710000 19                 TRA     s:16026
        19 001011   001256 710000 19                 TRA     s:16026
        19 001012   001256 710000 19                 TRA     s:16026
        19 001013   001256 710000 19                 TRA     s:16026
        19 001014   001256 710000 19                 TRA     s:16026
        19 001015   001256 710000 19                 TRA     s:16026
        19 001016   001256 710000 19                 TRA     s:16026
        19 001017   001256 710000 19                 TRA     s:16026
        19 001020   001256 710000 19                 TRA     s:16026
        19 001021   001256 710000 19                 TRA     s:16026
        19 001022   001256 710000 19                 TRA     s:16026
        19 001023   001256 710000 19                 TRA     s:16026
        19 001024   001256 710000 19                 TRA     s:16026
        19 001025   001256 710000 19                 TRA     s:16026
        19 001026   001256 710000 19                 TRA     s:16026
        19 001027   001256 710000 19                 TRA     s:16026
        19 001030   001256 710000 19                 TRA     s:16026
        19 001031   001256 710000 19                 TRA     s:16026
        19 001032   001256 710000 19                 TRA     s:16026
        19 001033   001256 710000 19                 TRA     s:16026
        19 001034   001256 710000 19                 TRA     s:16026
        19 001035   001256 710000 19                 TRA     s:16026
        19 001036   001256 710000 19                 TRA     s:16026
        19 001037   001256 710000 19                 TRA     s:16026
        19 001040   001256 710000 19                 TRA     s:16026
        19 001041   001256 710000 19                 TRA     s:16026
        19 001042   001256 710000 19                 TRA     s:16026
        19 001043   001256 710000 19                 TRA     s:16026
        19 001044   001256 710000 19                 TRA     s:16026
        19 001045   001256 710000 19                 TRA     s:16026
        19 001046   001256 710000 19                 TRA     s:16026
        19 001047   001256 710000 19                 TRA     s:16026
        19 001050   001256 710000 19                 TRA     s:16026
        19 001051   001256 710000 19                 TRA     s:16026
PL6.E3A0      #005=Z9EB$DML_STATEMENT File=Z9EB.:Z8A6TSI                         SAT 08/09/97 13:50 Page:337
        19 001052   001256 710000 19                 TRA     s:16026
        19 001053   001256 710000 19                 TRA     s:16026
        19 001054   001256 710000 19                 TRA     s:16026
        19 001055   001256 710000 19                 TRA     s:16026
        19 001056   001256 710000 19                 TRA     s:16026
        19 001057   001256 710000 19                 TRA     s:16026
        19 001060   001256 710000 19                 TRA     s:16026
        19 001061   001256 710000 19                 TRA     s:16026
        19 001062   001256 710000 19                 TRA     s:16026
        19 001063   001256 710000 19                 TRA     s:16026
        19 001064   001256 710000 19                 TRA     s:16026
        19 001065   001256 710000 19                 TRA     s:16026
        19 001066   001256 710000 19                 TRA     s:16026
        19 001067   001256 710000 19                 TRA     s:16026
        19 001070   001256 710000 19                 TRA     s:16026
        19 001071   001256 710000 19                 TRA     s:16026
        19 001072   001256 710000 19                 TRA     s:16026
        19 001073   001256 710000 19                 TRA     s:16026
        19 001074   001256 710000 19                 TRA     s:16026
        19 001075   001256 710000 19                 TRA     s:16026
        19 001076   001256 710000 19                 TRA     s:16026
        19 001077   001256 710000 19                 TRA     s:16026
        19 001100   001256 710000 19                 TRA     s:16026
        19 001101   001256 710000 19                 TRA     s:16026
        19 001102   001256 710000 19                 TRA     s:16026
        19 001103   001256 710000 19                 TRA     s:16026
        19 001104   001256 710000 19                 TRA     s:16026
        19 001105   001256 710000 19                 TRA     s:16026
        19 001106   001256 710000 19                 TRA     s:16026
        19 001107   001256 710000 19                 TRA     s:16026
        19 001110   001256 710000 19                 TRA     s:16026
        19 001111   001256 710000 19                 TRA     s:16026
        19 001112   001256 710000 19                 TRA     s:16026
        19 001113   001256 710000 19                 TRA     s:16026
        19 001114   001256 710000 19                 TRA     s:16026
        19 001115   001256 710000 19                 TRA     s:16026
        19 001116   001256 710000 19                 TRA     s:16026
PL6.E3A0      #005=Z9EB$DML_STATEMENT File=Z9EB.:Z8A6TSI                         SAT 08/09/97 13:50 Page:338
        19 001117   001256 710000 19                 TRA     s:16026
        19 001120   001256 710000 19                 TRA     s:16026
        19 001121   001256 710000 19                 TRA     s:16026
        19 001122   001256 710000 19                 TRA     s:16026
        19 001123   001256 710000 19                 TRA     s:16026
        19 001124   001256 710000 19                 TRA     s:16026
        19 001125   001256 710000 19                 TRA     s:16026
        19 001126   001256 710000 19                 TRA     s:16026
        19 001127   001256 710000 19                 TRA     s:16026
        19 001130   001256 710000 19                 TRA     s:16026
        19 001131   001256 710000 19                 TRA     s:16026
        19 001132   001256 710000 19                 TRA     s:16026
        19 001133   001256 710000 19                 TRA     s:16026
        19 001134   001256 710000 19                 TRA     s:16026
        19 001135   001256 710000 19                 TRA     s:16026
        19 001136   001256 710000 19                 TRA     s:16026
        19 001137   001256 710000 19                 TRA     s:16026
        19 001140   001256 710000 19                 TRA     s:16026
        19 001141   001256 710000 19                 TRA     s:16026
        19 001142   001256 710000 19                 TRA     s:16026
        19 001143   001256 710000 19                 TRA     s:16026
        19 001144   001256 710000 19                 TRA     s:16026
        19 001145   001256 710000 19                 TRA     s:16026
        19 001146   001256 710000 19                 TRA     s:16026
        19 001147   001256 710000 19                 TRA     s:16026
        19 001150   001256 710000 19                 TRA     s:16026
        19 001151   001256 710000 19                 TRA     s:16026
        19 001152   001256 710000 19                 TRA     s:16026
        19 001153   001256 710000 19                 TRA     s:16026
        19 001154   001256 710000 19                 TRA     s:16026
        19 001155   001256 710000 19                 TRA     s:16026
        19 001156   001256 710000 19                 TRA     s:16026
        19 001157   001256 710000 19                 TRA     s:16026
        19 001160   001256 710000 19                 TRA     s:16026
        19 001161   001256 710000 19                 TRA     s:16026
        19 001162   001256 710000 19                 TRA     s:16026
        19 001163   001256 710000 19                 TRA     s:16026
PL6.E3A0      #005=Z9EB$DML_STATEMENT File=Z9EB.:Z8A6TSI                         SAT 08/09/97 13:50 Page:339
        19 001164   001256 710000 19                 TRA     s:16026
        19 001165   001256 710000 19                 TRA     s:16026
        19 001166   001256 710000 19                 TRA     s:16026
        19 001167   001256 710000 19                 TRA     s:16026
        19 001170   001256 710000 19                 TRA     s:16026
        19 001171   001253 710000 19                 TRA     s:16024
        19 001172   001256 710000 19                 TRA     s:16026
        19 001173   001256 710000 19                 TRA     s:16026
        19 001174   001256 710000 19                 TRA     s:16026
        19 001175   001256 710000 19                 TRA     s:16026
        19 001176   001256 710000 19                 TRA     s:16026
        19 001177   001256 710000 19                 TRA     s:16026
        19 001200   001256 710000 19                 TRA     s:16026
        19 001201   001256 710000 19                 TRA     s:16026
        19 001202   001256 710000 19                 TRA     s:16026
        19 001203   001256 710000 19                 TRA     s:16026
        19 001204   001256 710000 19                 TRA     s:16026
        19 001205   001256 710000 19                 TRA     s:16026
        19 001206   001256 710000 19                 TRA     s:16026
        19 001207   001256 710000 19                 TRA     s:16026
        19 001210   001256 710000 19                 TRA     s:16026
        19 001211   001256 710000 19                 TRA     s:16026
        19 001212   001256 710000 19                 TRA     s:16026
        19 001213   001256 710000 19                 TRA     s:16026
        19 001214   001256 710000 19                 TRA     s:16026
        19 001215   001256 710000 19                 TRA     s:16026
        19 001216   001256 710000 19                 TRA     s:16026
        19 001217   001256 710000 19                 TRA     s:16026
        19 001220   001256 710000 19                 TRA     s:16026
        19 001221   001256 710000 19                 TRA     s:16026
        19 001222   001256 710000 19                 TRA     s:16026
        19 001223   001256 710000 19                 TRA     s:16026
        19 001224   001256 710000 19                 TRA     s:16026
        19 001225   001256 710000 19                 TRA     s:16026
        19 001226   001256 710000 19                 TRA     s:16026
        19 001227   001256 710000 19                 TRA     s:16026
        19 001230   001256 710000 19                 TRA     s:16026
PL6.E3A0      #005=Z9EB$DML_STATEMENT File=Z9EB.:Z8A6TSI                         SAT 08/09/97 13:50 Page:340
        19 001231   001256 710000 19                 TRA     s:16026
        19 001232   001256 710000 19                 TRA     s:16026
        19 001233   001256 710000 19                 TRA     s:16026
        19 001234   001256 710000 19                 TRA     s:16026
        19 001235   001256 710000 19                 TRA     s:16026
        19 001236   001256 710000 19                 TRA     s:16026
        19 001237   001256 710000 19                 TRA     s:16026
        19 001240   001256 710000 19                 TRA     s:16026
        19 001241   001256 710000 19                 TRA     s:16026
        19 001242   001256 710000 19                 TRA     s:16026
        19 001243   001256 710000 19                 TRA     s:16026
        19 001244   001245 710000 19                 TRA     s:16020

     1616    16019    3           CASE(%RSV_WRD_PRIOR);

     1617    16020    3               FIND_CONTROL.STATUS = 0;

  16020 19 001245   000000 220003                    LDX0    0,DU
        19 001246   200176 740100                    STX0    CONST_WORD,,AUTO
        19 001247   001262 710000 19                 TRA     s:16029

     1618    16021    3           CASE(%RSV_WRD_CURRENT);

     1619    16022    3               FIND_CONTROL.STATUS = 1;

  16022 19 001250   000001 220003                    LDX0    1,DU
        19 001251   200176 740100                    STX0    CONST_WORD,,AUTO
        19 001252   001262 710000 19                 TRA     s:16029

     1620    16023    3           CASE(%RSV_WRD_NEXT);

     1621    16024    3               FIND_CONTROL.STATUS = 2;

  16024 19 001253   000002 220003                    LDX0    2,DU
        19 001254   200176 740100                    STX0    CONST_WORD,,AUTO
        19 001255   001262 710000 19                 TRA     s:16029

PL6.E3A0      #005=Z9EB$DML_STATEMENT File=Z9EB.:Z8A6TSI                         SAT 08/09/97 13:50 Page:341
     1622    16025    3           CASE(ELSE);

     1623    16026    3               CALL Z8AE$ERROR(%E$UNEXPECTED_CASE);

  16026 19 001256   000015 630400 20                 EPPR0   13
        19 001257   000005 631400 20                 EPPR1   5
        19 001260   000000 701000 xent               TSX1    Z8AE$ERROR
        19 001261   000000 011000                    NOP     0

     1624    16027    3       END;     /*V*  CASE  */

     1625    16028
     1626    16029    2       CALL BUILD_CONST_PARM(CONST_WORD, ADDR(RDC_FC_LX_ITEM));

  16029 19 001262   200046 630500                    EPPR0   RDC_FC_LX_ITEM,,AUTO
        19 001263   200247 450500                    STP0    OFFSET+7,,AUTO
        19 001264   200247 631500                    EPPR1   OFFSET+7,,AUTO
        19 001265   200236 451500                    STP1    OFFSET,,AUTO
        19 001266   200176 633500                    EPPR3   CONST_WORD,,AUTO
        19 001267   200235 453500                    STP3    PTR$,,AUTO
        19 001270   000167 701000 19                 TSX1    BUILD_CONST_PARM
        19 001271   000000 011000                    NOP     0

     1627    16030    2       ADDR(IA_LX_ITEM) -> LX_ITEM.LINK = ADDR(RDC_FC_LX_ITEM);

  16030 19 001272   200046 630500                    EPPR0   RDC_FC_LX_ITEM,,AUTO
        19 001273   200015 450500                    STP0    IA_LX_ITEM+7,,AUTO

     1628    16031
     1629    16032    2       CALL BUILD_PARM( RECORD_ST$, ADDR(RC_LX_ITEM));

  16032 19 001274   200026 631500                    EPPR1   RC_LX_ITEM,,AUTO
        19 001275   200250 451500                    STP1    OFFSET+8,,AUTO
        19 001276   200250 633500                    EPPR3   OFFSET+8,,AUTO
        19 001277   200236 453500                    STP3    OFFSET,,AUTO
        19 001300   200223 236100                    LDQ     @RECORD_ST$,,AUTO
        19 001301   200235 756100                    STQ     PTR$,,AUTO
PL6.E3A0      #005=Z9EB$DML_STATEMENT File=Z9EB.:Z8A6TSI                         SAT 08/09/97 13:50 Page:342
        19 001302   000107 701000 19                 TSX1    BUILD_PARM
        19 001303   000000 011000                    NOP     0

     1630    16033    2       ADDR(RDC_FC_LX_ITEM) -> LX_ITEM.LINK = ADDR(RC_LX_ITEM);

  16033 19 001304   200026 630500                    EPPR0   RC_LX_ITEM,,AUTO
        19 001305   200055 450500                    STP0    RDC_FC_LX_ITEM+7,,AUTO

     1631    16034
     1632    16035    2       CALL BUILD_PARM( REALM_SET_ST$, ADDR(SC_AC_LX_ITEM));

  16035 19 001306   200036 631500                    EPPR1   SC_AC_LX_ITEM,,AUTO
        19 001307   200251 451500                    STP1    OFFSET+9,,AUTO
        19 001310   200251 633500                    EPPR3   OFFSET+9,,AUTO
        19 001311   200236 453500                    STP3    OFFSET,,AUTO
        19 001312   200224 236100                    LDQ     @REALM_SET_ST$,,AUTO
        19 001313   200235 756100                    STQ     PTR$,,AUTO
        19 001314   000107 701000 19                 TSX1    BUILD_PARM
        19 001315   000000 011000                    NOP     0

     1633    16036    2       ADDR(RC_LX_ITEM) -> LX_ITEM.LINK = ADDR(SC_AC_LX_ITEM);

  16036 19 001316   200036 630500                    EPPR0   SC_AC_LX_ITEM,,AUTO
        19 001317   200035 450500                    STP0    RC_LX_ITEM+7,,AUTO

     1634    16037
     1635    16038    2       ADDR(SC_AC_LX_ITEM) -> LX_ITEM.LINK = ADDR(RL_LX_ITEM);

  16038 19 001320   200016 631500                    EPPR1   RL_LX_ITEM,,AUTO
        19 001321   200045 451500                    STP1    SC_AC_LX_ITEM+7,,AUTO

     1636    16039
     1637    16040    2       CALL Z9EB$BUILD_CODE(CODE, ARG_COUNT, ADDR(IA_LX_ITEM));

  16040 19 001322   200006 633500                    EPPR3   IA_LX_ITEM,,AUTO
        19 001323   200242 453500                    STP3    OFFSET+2,,AUTO
        19 001324   200242 634500                    EPPR4   OFFSET+2,,AUTO
PL6.E3A0      #005=Z9EB$DML_STATEMENT File=Z9EB.:Z8A6TSI                         SAT 08/09/97 13:50 Page:343
        19 001325   200245 454500                    STP4    OFFSET+5,,AUTO
        19 001326   200146 635500                    EPPR5   ARG_COUNT,,AUTO
        19 001327   200244 455500                    STP5    OFFSET+4,,AUTO
        19 001330   200221 236100                    LDQ     @CODE,,AUTO
        19 001331   200243 756100                    STQ     OFFSET+3,,AUTO
        19 001332   200243 630500                    EPPR0   OFFSET+3,,AUTO
        19 001333   000004 631400 20                 EPPR1   4
        19 001334   000000 701000 xent               TSX1    Z9EB$BUILD_CODE
        19 001335   000000 011000                    NOP     0

     1638    16041
     1639    16042    2   END FIND_RELATIVE;

  16042 19 001336   200220 221300                    LDX1  ! SET_LIST_CONTROL+2,,AUTO
        19 001337   000001 702211                    TSX2  ! 1,X1

     1640    16043        %EJECT;
PL6.E3A0      #005=Z9EB$DML_STATEMENT File=Z9EB.:Z8A6TSI                         SAT 08/09/97 13:50 Page:344
     1641    16044        /*--------------*/
     1642    16045    1    FIND_OCCURRENCE :PROC (CODE,FIND_CONTROL$,RECORD_ST$,REALM_SET_ST$,RETENTION_LIST$
             16045              );

  16045 19 001340   200220 741300       FIND_OCCURR* STX1  ! SET_LIST_CONTROL+2,,AUTO

     1643    16046        /*--------------*/
     1644    16047
     1645    16048    2       DCL CODE        CHAR(6);
     1646    16049    2       DCL FIND_CONTROL$ PTR;
     1647    16050    2       DCL RECORD_ST$     PTR;
     1648    16051    2       DCL REALM_SET_ST$  PTR;
     1649    16052    2       DCL RETENTION_LIST$  PTR;
     1650    16053    2       DCL CONTROL_ST$    PTR;
     1651    16054    2       DCL 1 TYPE_DESC  ALIGNED,
     1652    16055                  %TYPE_DESC;
     1653    16089    2       DCL CONST_WORD     SBIN;
     1654    16090
     1655    16091
     1656    16092    2       ARG_COUNT = 5 + RETENTION_LIST$ -> LX_LIST.COUNT;

  16092 19 001341   200225 470500                    LDP0    @RETENTION_LIST$,,AUTO
        19 001342   000000 471500                    LDP1    0,,PR0
        19 001343   100002 235100                    LDA     2,,PR1
        19 001344   000005 035007                    ADLA    5,DL
        19 001345   200146 755100                    STA     ARG_COUNT,,AUTO

     1657    16093    2       CALL Z8EU$CREATE_IDENTIFIER_FROM_ST(O1COM.DML_IA$,ADDR(IA_LX_ITEM));

  16093 19 001346   200006 631500                    EPPR1   IA_LX_ITEM,,AUTO
        19 001347   200242 451500                    STP1    OFFSET+2,,AUTO
        19 001350   200242 633500                    EPPR3   OFFSET+2,,AUTO
        19 001351   200245 453500                    STP3    OFFSET+5,,AUTO
        19 001352   000013 236000 20                 LDQ     11
        19 001353   200244 756100                    STQ     OFFSET+4,,AUTO
        19 001354   200244 630500                    EPPR0   OFFSET+4,,AUTO
        19 001355   000002 631400 20                 EPPR1   2
PL6.E3A0      #005=Z9EB$DML_STATEMENT File=Z9EB.:Z8A6TSI                         SAT 08/09/97 13:50 Page:345
        19 001356   000000 701000 xent               TSX1    Z8EU$CREATE_IDENTIFIER_FROM_ST
        19 001357   000000 011000                    NOP     0

     1658    16094
     1659    16095    3       DO CASE(FIND_CONTROL$ -> LX_ITEM.SYMBOL);

  16095 19 001360   200222 470500                    LDP0    @FIND_CONTROL$,,AUTO
        19 001361   000000 471500                    LDP1    0,,PR0
        19 001362   100003 235100                    LDA     3,,PR1
        19 001363   000025 135007                    SBLA    21,DL
        19 001364   000370 115007                    CMPA    248,DL
        19 001365   001367 602005 19                 TNC     s:16095+7,AL
        19 001366   002000 710000 19                 TRA     s:16109
        19 001367   002030 710000 19                 TRA     s:16119
        19 001370   002030 710000 19                 TRA     s:16119
        19 001371   002000 710000 19                 TRA     s:16109
        19 001372   002000 710000 19                 TRA     s:16109
        19 001373   002000 710000 19                 TRA     s:16109
        19 001374   002000 710000 19                 TRA     s:16109
        19 001375   002000 710000 19                 TRA     s:16109
        19 001376   002000 710000 19                 TRA     s:16109
        19 001377   002000 710000 19                 TRA     s:16109
        19 001400   002000 710000 19                 TRA     s:16109
        19 001401   002000 710000 19                 TRA     s:16109
        19 001402   002000 710000 19                 TRA     s:16109
        19 001403   002000 710000 19                 TRA     s:16109
        19 001404   002000 710000 19                 TRA     s:16109
        19 001405   002000 710000 19                 TRA     s:16109
        19 001406   002000 710000 19                 TRA     s:16109
        19 001407   002000 710000 19                 TRA     s:16109
        19 001410   002000 710000 19                 TRA     s:16109
        19 001411   002000 710000 19                 TRA     s:16109
        19 001412   002000 710000 19                 TRA     s:16109
        19 001413   002000 710000 19                 TRA     s:16109
        19 001414   002000 710000 19                 TRA     s:16109
        19 001415   002000 710000 19                 TRA     s:16109
        19 001416   002000 710000 19                 TRA     s:16109
PL6.E3A0      #005=Z9EB$DML_STATEMENT File=Z9EB.:Z8A6TSI                         SAT 08/09/97 13:50 Page:346
        19 001417   002000 710000 19                 TRA     s:16109
        19 001420   002000 710000 19                 TRA     s:16109
        19 001421   002000 710000 19                 TRA     s:16109
        19 001422   002000 710000 19                 TRA     s:16109
        19 001423   002000 710000 19                 TRA     s:16109
        19 001424   002000 710000 19                 TRA     s:16109
        19 001425   002000 710000 19                 TRA     s:16109
        19 001426   002000 710000 19                 TRA     s:16109
        19 001427   002000 710000 19                 TRA     s:16109
        19 001430   002000 710000 19                 TRA     s:16109
        19 001431   002000 710000 19                 TRA     s:16109
        19 001432   002000 710000 19                 TRA     s:16109
        19 001433   002000 710000 19                 TRA     s:16109
        19 001434   002000 710000 19                 TRA     s:16109
        19 001435   002000 710000 19                 TRA     s:16109
        19 001436   002000 710000 19                 TRA     s:16109
        19 001437   002000 710000 19                 TRA     s:16109
        19 001440   002000 710000 19                 TRA     s:16109
        19 001441   002000 710000 19                 TRA     s:16109
        19 001442   002000 710000 19                 TRA     s:16109
        19 001443   002000 710000 19                 TRA     s:16109
        19 001444   002000 710000 19                 TRA     s:16109
        19 001445   002000 710000 19                 TRA     s:16109
        19 001446   002000 710000 19                 TRA     s:16109
        19 001447   002000 710000 19                 TRA     s:16109
        19 001450   002000 710000 19                 TRA     s:16109
        19 001451   002000 710000 19                 TRA     s:16109
        19 001452   002000 710000 19                 TRA     s:16109
        19 001453   002000 710000 19                 TRA     s:16109
        19 001454   002000 710000 19                 TRA     s:16109
        19 001455   002000 710000 19                 TRA     s:16109
        19 001456   002000 710000 19                 TRA     s:16109
        19 001457   002000 710000 19                 TRA     s:16109
        19 001460   002000 710000 19                 TRA     s:16109
        19 001461   002000 710000 19                 TRA     s:16109
        19 001462   002000 710000 19                 TRA     s:16109
        19 001463   002000 710000 19                 TRA     s:16109
PL6.E3A0      #005=Z9EB$DML_STATEMENT File=Z9EB.:Z8A6TSI                         SAT 08/09/97 13:50 Page:347
        19 001464   002000 710000 19                 TRA     s:16109
        19 001465   002000 710000 19                 TRA     s:16109
        19 001466   002000 710000 19                 TRA     s:16109
        19 001467   002000 710000 19                 TRA     s:16109
        19 001470   002000 710000 19                 TRA     s:16109
        19 001471   002000 710000 19                 TRA     s:16109
        19 001472   002000 710000 19                 TRA     s:16109
        19 001473   002000 710000 19                 TRA     s:16109
        19 001474   002000 710000 19                 TRA     s:16109
        19 001475   002000 710000 19                 TRA     s:16109
        19 001476   002000 710000 19                 TRA     s:16109
        19 001477   002000 710000 19                 TRA     s:16109
        19 001500   002000 710000 19                 TRA     s:16109
        19 001501   002000 710000 19                 TRA     s:16109
        19 001502   002000 710000 19                 TRA     s:16109
        19 001503   002000 710000 19                 TRA     s:16109
        19 001504   002000 710000 19                 TRA     s:16109
        19 001505   002000 710000 19                 TRA     s:16109
        19 001506   002000 710000 19                 TRA     s:16109
        19 001507   002000 710000 19                 TRA     s:16109
        19 001510   002000 710000 19                 TRA     s:16109
        19 001511   002000 710000 19                 TRA     s:16109
        19 001512   002000 710000 19                 TRA     s:16109
        19 001513   002000 710000 19                 TRA     s:16109
        19 001514   002000 710000 19                 TRA     s:16109
        19 001515   002000 710000 19                 TRA     s:16109
        19 001516   002000 710000 19                 TRA     s:16109
        19 001517   002000 710000 19                 TRA     s:16109
        19 001520   002000 710000 19                 TRA     s:16109
        19 001521   002000 710000 19                 TRA     s:16109
        19 001522   002000 710000 19                 TRA     s:16109
        19 001523   002000 710000 19                 TRA     s:16109
        19 001524   002000 710000 19                 TRA     s:16109
        19 001525   002000 710000 19                 TRA     s:16109
        19 001526   002000 710000 19                 TRA     s:16109
        19 001527   002000 710000 19                 TRA     s:16109
        19 001530   002000 710000 19                 TRA     s:16109
PL6.E3A0      #005=Z9EB$DML_STATEMENT File=Z9EB.:Z8A6TSI                         SAT 08/09/97 13:50 Page:348
        19 001531   002000 710000 19                 TRA     s:16109
        19 001532   002000 710000 19                 TRA     s:16109
        19 001533   002000 710000 19                 TRA     s:16109
        19 001534   002000 710000 19                 TRA     s:16109
        19 001535   002000 710000 19                 TRA     s:16109
        19 001536   002000 710000 19                 TRA     s:16109
        19 001537   002000 710000 19                 TRA     s:16109
        19 001540   002000 710000 19                 TRA     s:16109
        19 001541   002000 710000 19                 TRA     s:16109
        19 001542   002000 710000 19                 TRA     s:16109
        19 001543   002000 710000 19                 TRA     s:16109
        19 001544   002000 710000 19                 TRA     s:16109
        19 001545   002000 710000 19                 TRA     s:16109
        19 001546   002000 710000 19                 TRA     s:16109
        19 001547   002000 710000 19                 TRA     s:16109
        19 001550   002000 710000 19                 TRA     s:16109
        19 001551   002000 710000 19                 TRA     s:16109
        19 001552   002000 710000 19                 TRA     s:16109
        19 001553   002000 710000 19                 TRA     s:16109
        19 001554   002000 710000 19                 TRA     s:16109
        19 001555   002000 710000 19                 TRA     s:16109
        19 001556   002000 710000 19                 TRA     s:16109
        19 001557   002000 710000 19                 TRA     s:16109
        19 001560   002000 710000 19                 TRA     s:16109
        19 001561   002000 710000 19                 TRA     s:16109
        19 001562   002000 710000 19                 TRA     s:16109
        19 001563   002000 710000 19                 TRA     s:16109
        19 001564   002000 710000 19                 TRA     s:16109
        19 001565   002000 710000 19                 TRA     s:16109
        19 001566   002000 710000 19                 TRA     s:16109
        19 001567   002000 710000 19                 TRA     s:16109
        19 001570   002000 710000 19                 TRA     s:16109
        19 001571   002000 710000 19                 TRA     s:16109
        19 001572   002000 710000 19                 TRA     s:16109
        19 001573   002000 710000 19                 TRA     s:16109
        19 001574   002000 710000 19                 TRA     s:16109
        19 001575   002000 710000 19                 TRA     s:16109
PL6.E3A0      #005=Z9EB$DML_STATEMENT File=Z9EB.:Z8A6TSI                         SAT 08/09/97 13:50 Page:349
        19 001576   002000 710000 19                 TRA     s:16109
        19 001577   002000 710000 19                 TRA     s:16109
        19 001600   002000 710000 19                 TRA     s:16109
        19 001601   002000 710000 19                 TRA     s:16109
        19 001602   002000 710000 19                 TRA     s:16109
        19 001603   002000 710000 19                 TRA     s:16109
        19 001604   002000 710000 19                 TRA     s:16109
        19 001605   002000 710000 19                 TRA     s:16109
        19 001606   002000 710000 19                 TRA     s:16109
        19 001607   002000 710000 19                 TRA     s:16109
        19 001610   002000 710000 19                 TRA     s:16109
        19 001611   002000 710000 19                 TRA     s:16109
        19 001612   002000 710000 19                 TRA     s:16109
        19 001613   002000 710000 19                 TRA     s:16109
        19 001614   002000 710000 19                 TRA     s:16109
        19 001615   002000 710000 19                 TRA     s:16109
        19 001616   002000 710000 19                 TRA     s:16109
        19 001617   002000 710000 19                 TRA     s:16109
        19 001620   002000 710000 19                 TRA     s:16109
        19 001621   002000 710000 19                 TRA     s:16109
        19 001622   002000 710000 19                 TRA     s:16109
        19 001623   002000 710000 19                 TRA     s:16109
        19 001624   002000 710000 19                 TRA     s:16109
        19 001625   002000 710000 19                 TRA     s:16109
        19 001626   002000 710000 19                 TRA     s:16109
        19 001627   002000 710000 19                 TRA     s:16109
        19 001630   002000 710000 19                 TRA     s:16109
        19 001631   002000 710000 19                 TRA     s:16109
        19 001632   002000 710000 19                 TRA     s:16109
        19 001633   002000 710000 19                 TRA     s:16109
        19 001634   002000 710000 19                 TRA     s:16109
        19 001635   002000 710000 19                 TRA     s:16109
        19 001636   002000 710000 19                 TRA     s:16109
        19 001637   002000 710000 19                 TRA     s:16109
        19 001640   002000 710000 19                 TRA     s:16109
        19 001641   002000 710000 19                 TRA     s:16109
        19 001642   002000 710000 19                 TRA     s:16109
PL6.E3A0      #005=Z9EB$DML_STATEMENT File=Z9EB.:Z8A6TSI                         SAT 08/09/97 13:50 Page:350
        19 001643   002000 710000 19                 TRA     s:16109
        19 001644   002000 710000 19                 TRA     s:16109
        19 001645   002000 710000 19                 TRA     s:16109
        19 001646   002000 710000 19                 TRA     s:16109
        19 001647   002000 710000 19                 TRA     s:16109
        19 001650   002000 710000 19                 TRA     s:16109
        19 001651   002000 710000 19                 TRA     s:16109
        19 001652   002000 710000 19                 TRA     s:16109
        19 001653   002000 710000 19                 TRA     s:16109
        19 001654   002000 710000 19                 TRA     s:16109
        19 001655   002000 710000 19                 TRA     s:16109
        19 001656   002000 710000 19                 TRA     s:16109
        19 001657   002000 710000 19                 TRA     s:16109
        19 001660   002000 710000 19                 TRA     s:16109
        19 001661   002000 710000 19                 TRA     s:16109
        19 001662   002000 710000 19                 TRA     s:16109
        19 001663   002000 710000 19                 TRA     s:16109
        19 001664   002000 710000 19                 TRA     s:16109
        19 001665   002000 710000 19                 TRA     s:16109
        19 001666   001757 710000 19                 TRA     s:16098
        19 001667   002000 710000 19                 TRA     s:16109
        19 001670   002000 710000 19                 TRA     s:16109
        19 001671   002000 710000 19                 TRA     s:16109
        19 001672   002000 710000 19                 TRA     s:16109
        19 001673   002000 710000 19                 TRA     s:16109
        19 001674   002000 710000 19                 TRA     s:16109
        19 001675   002000 710000 19                 TRA     s:16109
        19 001676   002000 710000 19                 TRA     s:16109
        19 001677   002000 710000 19                 TRA     s:16109
        19 001700   002000 710000 19                 TRA     s:16109
        19 001701   002000 710000 19                 TRA     s:16109
        19 001702   002000 710000 19                 TRA     s:16109
        19 001703   002000 710000 19                 TRA     s:16109
        19 001704   002000 710000 19                 TRA     s:16109
        19 001705   002000 710000 19                 TRA     s:16109
        19 001706   002000 710000 19                 TRA     s:16109
        19 001707   002000 710000 19                 TRA     s:16109
PL6.E3A0      #005=Z9EB$DML_STATEMENT File=Z9EB.:Z8A6TSI                         SAT 08/09/97 13:50 Page:351
        19 001710   002000 710000 19                 TRA     s:16109
        19 001711   002000 710000 19                 TRA     s:16109
        19 001712   002000 710000 19                 TRA     s:16109
        19 001713   002000 710000 19                 TRA     s:16109
        19 001714   002000 710000 19                 TRA     s:16109
        19 001715   002000 710000 19                 TRA     s:16109
        19 001716   002000 710000 19                 TRA     s:16109
        19 001717   002000 710000 19                 TRA     s:16109
        19 001720   002000 710000 19                 TRA     s:16109
        19 001721   002000 710000 19                 TRA     s:16109
        19 001722   002000 710000 19                 TRA     s:16109
        19 001723   002000 710000 19                 TRA     s:16109
        19 001724   002000 710000 19                 TRA     s:16109
        19 001725   002000 710000 19                 TRA     s:16109
        19 001726   002000 710000 19                 TRA     s:16109
        19 001727   002000 710000 19                 TRA     s:16109
        19 001730   002000 710000 19                 TRA     s:16109
        19 001731   002000 710000 19                 TRA     s:16109
        19 001732   002000 710000 19                 TRA     s:16109
        19 001733   002000 710000 19                 TRA     s:16109
        19 001734   002000 710000 19                 TRA     s:16109
        19 001735   002000 710000 19                 TRA     s:16109
        19 001736   002000 710000 19                 TRA     s:16109
        19 001737   002000 710000 19                 TRA     s:16109
        19 001740   002000 710000 19                 TRA     s:16109
        19 001741   002000 710000 19                 TRA     s:16109
        19 001742   002000 710000 19                 TRA     s:16109
        19 001743   002000 710000 19                 TRA     s:16109
        19 001744   002000 710000 19                 TRA     s:16109
        19 001745   002000 710000 19                 TRA     s:16109
        19 001746   002000 710000 19                 TRA     s:16109
        19 001747   002000 710000 19                 TRA     s:16109
        19 001750   002000 710000 19                 TRA     s:16109
        19 001751   002000 710000 19                 TRA     s:16109
        19 001752   002000 710000 19                 TRA     s:16109
        19 001753   002000 710000 19                 TRA     s:16109
        19 001754   002000 710000 19                 TRA     s:16109
PL6.E3A0      #005=Z9EB$DML_STATEMENT File=Z9EB.:Z8A6TSI                         SAT 08/09/97 13:50 Page:352
        19 001755   002000 710000 19                 TRA     s:16109
        19 001756   001757 710000 19                 TRA     s:16098

     1660    16096
     1661    16097    3            CASE(%RSV_WRD_FIRST, %RSV_WRD_LAST);

     1662    16098    3                IF FIND_CONTROL$ -> LX_ITEM.SYMBOL = %RSV_WRD_FIRST   THEN

  16098 19 001757   100003 235100                    LDA     3,,PR1
        19 001760   000324 115007                    CMPA    212,DL
        19 001761   001765 601000 19                 TNZ     s:16101

     1663    16099    3                    CONST_WORD = 1;

  16099 19 001762   000001 236007                    LDQ     1,DL
        19 001763   200233 756100                    STQ     CONST_WORD,,AUTO
        19 001764   001767 710000 19                 TRA     s:16103

     1664    16100    3                ELSE
     1665    16101    3                    CONST_WORD = -1;              /*V*  %RSV_WRD_LAST  */

  16101 19 001765   000001 336007                    LCQ     1,DL
        19 001766   200233 756100                    STQ     CONST_WORD,,AUTO

     1666    16102
     1667    16103    3                CALL BUILD_CONST_PARM( CONST_WORD, ADDR(FL_ID_LX_ITEM) );

  16103 19 001767   200066 631500                    EPPR1   FL_ID_LX_ITEM,,AUTO
        19 001770   200252 451500                    STP1    OFFSET+10,,AUTO
        19 001771   200252 633500                    EPPR3   OFFSET+10,,AUTO
        19 001772   200236 453500                    STP3    OFFSET,,AUTO
        19 001773   200233 634500                    EPPR4   CONST_WORD,,AUTO
        19 001774   200235 454500                    STP4    PTR$,,AUTO
        19 001775   000167 701000 19                 TSX1    BUILD_CONST_PARM
        19 001776   000000 011000                    NOP     0
        19 001777   002061 710000 19                 TRA     s:16126

PL6.E3A0      #005=Z9EB$DML_STATEMENT File=Z9EB.:Z8A6TSI                         SAT 08/09/97 13:50 Page:353
     1668    16104
     1669    16105    3            CASE(ELSE);              /*V*      IDENTIFIER     */

     1670    16106
     1671    16107                     %FISH(TRIAD = FIND_CONTROL$ -> LX_ETT_ITEM.ETT$, RTN = CONTROL_ST$);

  16109 19 002000   100001 236100                    LDQ     1,,PR1
        19 002001   200226 756100                    STQ     CONTROL_ST$,,AUTO

  16110 19 002002   200226 471500                    LDP1    CONTROL_ST$,,AUTO
        19 002003   100000 220100                    LDX0    0,,PR1
        19 002004   000751 100003                    CMPX0   489,DU
        19 002005   002015 603000 19                 TRC     s:16115

  16111 19 002006   200226 470500                    LDP0    CONTROL_ST$,,AUTO
        19 002007   000001 236100                    LDQ     1,,PR0
        19 002010   200226 756100                    STQ     CONTROL_ST$,,AUTO

  16112 19 002011   200226 470500                    LDP0    CONTROL_ST$,,AUTO
        19 002012   000000 220100                    LDX0    0,,PR0
        19 002013   000751 100003                    CMPX0   489,DU
        19 002014   002006 602000 19                 TNC     s:16111

     1672    16115    3               CALL Z8EU$CREATE_IDENTIFIER_FROM_ST( CONTROL_ST$, ADDR(FL_ID_LX_ITEM) )
             16115                         ;

  16115 19 002015   200066 630500                    EPPR0   FL_ID_LX_ITEM,,AUTO
        19 002016   200242 450500                    STP0    OFFSET+2,,AUTO
        19 002017   200242 631500                    EPPR1   OFFSET+2,,AUTO
        19 002020   200245 451500                    STP1    OFFSET+5,,AUTO
        19 002021   200226 633500                    EPPR3   CONTROL_ST$,,AUTO
        19 002022   200244 453500                    STP3    OFFSET+4,,AUTO
        19 002023   200244 630500                    EPPR0   OFFSET+4,,AUTO
        19 002024   000002 631400 20                 EPPR1   2
        19 002025   000000 701000 xent               TSX1    Z8EU$CREATE_IDENTIFIER_FROM_ST
        19 002026   000000 011000                    NOP     0
        19 002027   002061 710000 19                 TRA     s:16126
PL6.E3A0      #005=Z9EB$DML_STATEMENT File=Z9EB.:Z8A6TSI                         SAT 08/09/97 13:50 Page:354

     1673    16116
     1674    16117    3            CASE(%NUMBER, %NUMERIC_LITERAL);

     1675    16118
     1676    16119    3                TYPE_DESC.TYPE = %TYI;

  16119 19 002030   000001 236007                    LDQ     1,DL
        19 002031   200227 756100                    STQ     TYPE_DESC,,AUTO

     1677    16120    3               CALL Z8EC$NEW_CONST_WITH_TYPE_DESC(TYPE_DESC,FIND_CONTROL$,CONTROL_ST$)
             16120                         ;

  16120 19 002032   200226 631500                    EPPR1   CONTROL_ST$,,AUTO
        19 002033   200244 451500                    STP1    OFFSET+4,,AUTO
        19 002034   200222 236100                    LDQ     @FIND_CONTROL$,,AUTO
        19 002035   200243 756100                    STQ     OFFSET+3,,AUTO
        19 002036   200227 633500                    EPPR3   TYPE_DESC,,AUTO
        19 002037   200242 453500                    STP3    OFFSET+2,,AUTO
        19 002040   200242 630500                    EPPR0   OFFSET+2,,AUTO
        19 002041   000004 631400 20                 EPPR1   4
        19 002042   000000 701000 xent               TSX1    Z8EC$NEW_CONST_WITH_TYPE_DESC
        19 002043   000000 011000                    NOP     0

     1678    16121    3                CONTROL_ST$ = CONTROL_ST$ -> ETT.LOP;

  16121 19 002044   200226 470500                    LDP0    CONTROL_ST$,,AUTO
        19 002045   000001 236100                    LDQ     1,,PR0
        19 002046   200226 756100                    STQ     CONTROL_ST$,,AUTO

     1679    16122    3                CALL Z8EU$CREATE_IDENTIFIER_FROM_ST(CONTROL_ST$, ADDR(FL_ID_LX_ITEM));

  16122 19 002047   200066 630500                    EPPR0   FL_ID_LX_ITEM,,AUTO
        19 002050   200242 450500                    STP0    OFFSET+2,,AUTO
        19 002051   200242 631500                    EPPR1   OFFSET+2,,AUTO
        19 002052   200245 451500                    STP1    OFFSET+5,,AUTO
        19 002053   200226 633500                    EPPR3   CONTROL_ST$,,AUTO
PL6.E3A0      #005=Z9EB$DML_STATEMENT File=Z9EB.:Z8A6TSI                         SAT 08/09/97 13:50 Page:355
        19 002054   200244 453500                    STP3    OFFSET+4,,AUTO
        19 002055   200244 630500                    EPPR0   OFFSET+4,,AUTO
        19 002056   000002 631400 20                 EPPR1   2
        19 002057   000000 701000 xent               TSX1    Z8EU$CREATE_IDENTIFIER_FROM_ST
        19 002060   000000 011000                    NOP     0

     1680    16123
     1681    16124    3       END;     /*V*   CASE   */

     1682    16125
     1683    16126    2       ADDR(IA_LX_ITEM) -> LX_ITEM.LINK = ADDR(FL_ID_LX_ITEM);

  16126 19 002061   200066 630500                    EPPR0   FL_ID_LX_ITEM,,AUTO
        19 002062   200015 450500                    STP0    IA_LX_ITEM+7,,AUTO

     1684    16127
     1685    16128    2       CALL BUILD_PARM( RECORD_ST$, ADDR(RC_LX_ITEM));

  16128 19 002063   200026 631500                    EPPR1   RC_LX_ITEM,,AUTO
        19 002064   200253 451500                    STP1    OFFSET+11,,AUTO
        19 002065   200253 633500                    EPPR3   OFFSET+11,,AUTO
        19 002066   200236 453500                    STP3    OFFSET,,AUTO
        19 002067   200223 236100                    LDQ     @RECORD_ST$,,AUTO
        19 002070   200235 756100                    STQ     PTR$,,AUTO
        19 002071   000107 701000 19                 TSX1    BUILD_PARM
        19 002072   000000 011000                    NOP     0

     1686    16129    2       ADDR(FL_ID_LX_ITEM) -> LX_ITEM.LINK = ADDR(RC_LX_ITEM);

  16129 19 002073   200026 630500                    EPPR0   RC_LX_ITEM,,AUTO
        19 002074   200075 450500                    STP0    FL_ID_LX_ITEM+7,,AUTO

     1687    16130
     1688    16131    2       CALL BUILD_PARM( REALM_SET_ST$, ADDR(SC_AC_LX_ITEM));

  16131 19 002075   200036 631500                    EPPR1   SC_AC_LX_ITEM,,AUTO
        19 002076   200254 451500                    STP1    OFFSET+12,,AUTO
PL6.E3A0      #005=Z9EB$DML_STATEMENT File=Z9EB.:Z8A6TSI                         SAT 08/09/97 13:50 Page:356
        19 002077   200254 633500                    EPPR3   OFFSET+12,,AUTO
        19 002100   200236 453500                    STP3    OFFSET,,AUTO
        19 002101   200224 236100                    LDQ     @REALM_SET_ST$,,AUTO
        19 002102   200235 756100                    STQ     PTR$,,AUTO
        19 002103   000107 701000 19                 TSX1    BUILD_PARM
        19 002104   000000 011000                    NOP     0

     1689    16132    2       ADDR(RC_LX_ITEM) -> LX_ITEM.LINK = ADDR(SC_AC_LX_ITEM);

  16132 19 002105   200036 630500                    EPPR0   SC_AC_LX_ITEM,,AUTO
        19 002106   200035 450500                    STP0    RC_LX_ITEM+7,,AUTO

     1690    16133
     1691    16134    2       ADDR(SC_AC_LX_ITEM) -> LX_ITEM.LINK = RETENTION_LIST$;

  16134 19 002107   200225 471500                    LDP1    @RETENTION_LIST$,,AUTO
        19 002110   100000 236100                    LDQ     0,,PR1
        19 002111   200045 756100                    STQ     SC_AC_LX_ITEM+7,,AUTO

     1692    16135
     1693    16136    2       CALL Z9EB$BUILD_CODE(CODE,ARG_COUNT,ADDR(IA_LX_ITEM));

  16136 19 002112   200006 633500                    EPPR3   IA_LX_ITEM,,AUTO
        19 002113   200242 453500                    STP3    OFFSET+2,,AUTO
        19 002114   200242 634500                    EPPR4   OFFSET+2,,AUTO
        19 002115   200245 454500                    STP4    OFFSET+5,,AUTO
        19 002116   200146 635500                    EPPR5   ARG_COUNT,,AUTO
        19 002117   200244 455500                    STP5    OFFSET+4,,AUTO
        19 002120   200221 236100                    LDQ     @CODE,,AUTO
        19 002121   200243 756100                    STQ     OFFSET+3,,AUTO
        19 002122   200243 630500                    EPPR0   OFFSET+3,,AUTO
        19 002123   000004 631400 20                 EPPR1   4
        19 002124   000000 701000 xent               TSX1    Z9EB$BUILD_CODE
        19 002125   000000 011000                    NOP     0

     1694    16137
     1695    16138    2   END FIND_OCCURRENCE;
PL6.E3A0      #005=Z9EB$DML_STATEMENT File=Z9EB.:Z8A6TSI                         SAT 08/09/97 13:50 Page:357

  16138 19 002126   200220 221300                    LDX1  ! SET_LIST_CONTROL+2,,AUTO
        19 002127   000001 702211                    TSX2  ! 1,X1
        19 002130   002133 710000 19                 TRA     s:16144

     1696    16139        %EJECT;
PL6.E3A0      #005=Z9EB$DML_STATEMENT File=Z9EB.:Z8A6TSI                         SAT 08/09/97 13:50 Page:358
     1697    16140        /*================*/
     1698    16141    1     Z9EB$FIND_DIRECT:    ENTRY (RECORD_SELECTION$, RETENTION$);

  16141 19 002131   000000 700200 xent  Z9EB$FIND_D* TSX0  ! X66_AUTO_2
        19 002132   000334 000002                    ZERO    220,2

     1699    16142        /*================*/
     1700    16143
     1701    16144    1       RECORD$ = RECORD_SELECTION$ -> LX_LIST.HEAD$;

  16144 19 002133   200003 470500                    LDP0    @RECORD_SELECTION$,,AUTO
        19 002134   000000 471500                    LDP1    0,,PR0
        19 002135   100004 236100                    LDQ     4,,PR1
        19 002136   200150 756100                    STQ     RECORD$,,AUTO

     1702    16145    1       DB_KEY$ = RECORD_SELECTION$ -> LX_LIST.TAIL$;

  16145 19 002137   100001 236100                    LDQ     1,,PR1
        19 002140   200151 756100                    STQ     DB_KEY$,,AUTO

     1703    16146    1       ERROR_FLAG = %FALSE;

  16146 19 002141   200213 450100                    STZ     ERROR_FLAG,,AUTO

     1704    16147
     1705    16148    1        IF DB_KEY$ -> LX_ITEM.B.ERROR   THEN

  16148 19 002142   200151 473500                    LDP3    DB_KEY$,,AUTO
        19 002143   300000 236100                    LDQ     0,,PR3
        19 002144   400000 316007                    CANQ    -131072,DL
        19 002145   002151 600000 19                 TZE     s:16154

     1706    16149    1           ERROR_FLAG = %TRUE;

  16149 19 002146   400000 236003                    LDQ     -131072,DU
        19 002147   200213 756100                    STQ     ERROR_FLAG,,AUTO
        19 002150   002212 710000 19                 TRA     s:16171
PL6.E3A0      #005=Z9EB$DML_STATEMENT File=Z9EB.:Z8A6TSI                         SAT 08/09/97 13:50 Page:359

     1707    16150    1        ELSE
     1708    16151    2         DO;

     1709    16152                %FISH( TRIAD = DB_KEY$ -> LX_ETT_ITEM.ETT$, RTN = DB_KEY_ST$);

  16154 19 002151   300001 236100                    LDQ     1,,PR3
        19 002152   200153 756100                    STQ     DB_KEY_ST$,,AUTO

  16155 19 002153   200153 474500                    LDP4    DB_KEY_ST$,,AUTO
        19 002154   400000 220100                    LDX0    0,,PR4
        19 002155   000751 100003                    CMPX0   489,DU
        19 002156   002166 603000 19                 TRC     s:16161

  16156 19 002157   200153 470500                    LDP0    DB_KEY_ST$,,AUTO
        19 002160   000001 236100                    LDQ     1,,PR0
        19 002161   200153 756100                    STQ     DB_KEY_ST$,,AUTO

  16157 19 002162   200153 470500                    LDP0    DB_KEY_ST$,,AUTO
        19 002163   000000 220100                    LDX0    0,,PR0
        19 002164   000751 100003                    CMPX0   489,DU
        19 002165   002157 602000 19                 TNC     s:16156

     1710    16160
     1711    16161    2           IF DB_KEY_ST$ -> SCALAR.B.DML_TYPE ~= %DATA_BASE_KEY  AND

  16161 19 002166   200153 470500                    LDP0    DB_KEY_ST$,,AUTO
        19 002167   000003 236100                    LDQ     3,,PR0
        19 002170   160000 376007                    ANQ     57344,DL
        19 002171   040000 116007                    CMPQ    16384,DL
        19 002172   002212 600000 19                 TZE     s:16171
        19 002173   120000 116007                    CMPQ    40960,DL
        19 002174   002212 600000 19                 TZE     s:16171

     1712    16162    2              DB_KEY_ST$ -> SCALAR.B.DML_TYPE ~= %DIRECT_REFERENCE   THEN
     1713    16163    3             DO;

PL6.E3A0      #005=Z9EB$DML_STATEMENT File=Z9EB.:Z8A6TSI                         SAT 08/09/97 13:50 Page:360
     1714    16164    3               CALL Z8AE$ERROR(%E$ITEM_NOT_DB_KEY,

  16164 19 002175   200151 236100                    LDQ     DB_KEY$,,AUTO
        19 002176   000006 036003                    ADLQ    6,DU
        19 002177   200244 756100                    STQ     OFFSET+4,,AUTO
        19 002200   200151 236100                    LDQ     DB_KEY$,,AUTO
        19 002201   000005 036003                    ADLQ    5,DU
        19 002202   000017 235000 20                 LDA     15
        19 002203   200242 757100                    STAQ    OFFSET+2,,AUTO
        19 002204   200242 630500                    EPPR0   OFFSET+2,,AUTO
        19 002205   000004 631400 20                 EPPR1   4
        19 002206   000000 701000 xent               TSX1    Z8AE$ERROR
        19 002207   000000 011000                    NOP     0

     1715    16165    3                               DB_KEY$ -> LX_ITEM.LINE,
     1716    16166    3                               DB_KEY$ -> LX_ITEM.COLUMN);
     1717    16167    3               ERROR_FLAG = %TRUE;

  16167 19 002210   400000 236003                    LDQ     -131072,DU
        19 002211   200213 756100                    STQ     ERROR_FLAG,,AUTO

     1718    16168    3             END;

     1719    16169    2         END;

     1720    16170
     1721    16171    1       IF RECORD$ -> LX_ITEM.ID =%LX_TERMINAL AND RECORD$ -> LX_ITEM.SYMBOL = %EMPTY
             16171                THEN

  16171 19 002212   200150 470500                    LDP0    RECORD$,,AUTO
        19 002213   000000 220100                    LDX0    0,,PR0
        19 002214   002240 601000 19                 TNZ     s:16182
        19 002215   000003 235100                    LDA     3,,PR0
        19 002216   002240 601000 19                 TNZ     s:16182

     1722    16172    2         DO;

PL6.E3A0      #005=Z9EB$DML_STATEMENT File=Z9EB.:Z8A6TSI                         SAT 08/09/97 13:50 Page:361
     1723    16173    2           IF O1COM.NILL_RVA = %FALSE          THEN

  16173 19 002217   000105 234000 xsym               SZN     O1COM+69
        19 002220   002235 604000 19                 TMI     s:16178

     1724    16174    3             DO;

     1725    16175    3               RVA_TYPE = %RVA_NULL;

  16175 19 002221   000004 221003                    LDX1    4,DU
        19 002222   200147 741100                    STX1    RVA_TYPE,,AUTO

     1726    16176    3               CALL Z9EB$BUILD_RVA_TABLE( ADDR(NIL), RVA_TYPE);

  16176 19 002223   000000 236000 20                 LDQ     0
        19 002224   200242 756100                    STQ     OFFSET+2,,AUTO
        19 002225   200147 631500                    EPPR1   RVA_TYPE,,AUTO
        19 002226   200245 451500                    STP1    OFFSET+5,,AUTO
        19 002227   200242 633500                    EPPR3   OFFSET+2,,AUTO
        19 002230   200244 453500                    STP3    OFFSET+4,,AUTO
        19 002231   200244 630500                    EPPR0   OFFSET+4,,AUTO
        19 002232   000002 631400 20                 EPPR1   2
        19 002233   000000 701000 xent               TSX1    Z9EB$BUILD_RVA_TABLE
        19 002234   000000 011000                    NOP     0

     1727    16177    3             END;

     1728    16178    2           RECORD_ST$ = ADDR(NIL);

  16178 19 002235   000000 236000 20                 LDQ     0
        19 002236   200152 756100                    STQ     RECORD_ST$,,AUTO

     1729    16179    2         END;

  16179 19 002237   002323 710000 19                 TRA     s:16209

     1730    16180
PL6.E3A0      #005=Z9EB$DML_STATEMENT File=Z9EB.:Z8A6TSI                         SAT 08/09/97 13:50 Page:362
     1731    16181    1       ELSE
     1732    16182    1         IF RECORD$ -> LX_ITEM.B.ERROR   THEN

  16182 19 002240   000000 236100                    LDQ     0,,PR0
        19 002241   400000 316007                    CANQ    -131072,DL
        19 002242   002246 600000 19                 TZE     s:16188

     1733    16183    1             ERROR_FLAG = %TRUE;

  16183 19 002243   400000 236003                    LDQ     -131072,DU
        19 002244   200213 756100                    STQ     ERROR_FLAG,,AUTO
        19 002245   002323 710000 19                 TRA     s:16209

     1734    16184    1         ELSE
     1735    16185    2         DO;

     1736    16186                %FISH(TRIAD = RECORD$ -> LX_ETT_ITEM.ETT$, RTN = RECORD_ST$);

  16188 19 002246   000001 236100                    LDQ     1,,PR0
        19 002247   200152 756100                    STQ     RECORD_ST$,,AUTO

  16189 19 002250   200152 471500                    LDP1    RECORD_ST$,,AUTO
        19 002251   100000 220100                    LDX0    0,,PR1
        19 002252   000751 100003                    CMPX0   489,DU
        19 002253   002263 603000 19                 TRC     s:16194

  16190 19 002254   200152 470500                    LDP0    RECORD_ST$,,AUTO
        19 002255   000001 236100                    LDQ     1,,PR0
        19 002256   200152 756100                    STQ     RECORD_ST$,,AUTO

  16191 19 002257   200152 470500                    LDP0    RECORD_ST$,,AUTO
        19 002260   000000 220100                    LDX0    0,,PR0
        19 002261   000751 100003                    CMPX0   489,DU
        19 002262   002254 602000 19                 TNC     s:16190

     1737    16194    2           IF RECORD_ST$ -> SCALAR.B.DML_TYPE ~= %RECORD    THEN

PL6.E3A0      #005=Z9EB$DML_STATEMENT File=Z9EB.:Z8A6TSI                         SAT 08/09/97 13:50 Page:363
  16194 19 002263   200152 470500                    LDP0    RECORD_ST$,,AUTO
        19 002264   000003 236100                    LDQ     3,,PR0
        19 002265   160000 376007                    ANQ     57344,DL
        19 002266   060000 116007                    CMPQ    24576,DL
        19 002267   002306 600000 19                 TZE     s:16202

     1738    16195    3             DO;

     1739    16196    3               CALL Z8AE$ERROR(%E$ITEM_NOT_A_RECORD,

  16196 19 002270   200150 236100                    LDQ     RECORD$,,AUTO
        19 002271   000006 036003                    ADLQ    6,DU
        19 002272   200244 756100                    STQ     OFFSET+4,,AUTO
        19 002273   200150 236100                    LDQ     RECORD$,,AUTO
        19 002274   000005 036003                    ADLQ    5,DU
        19 002275   000021 235000 20                 LDA     17
        19 002276   200242 757100                    STAQ    OFFSET+2,,AUTO
        19 002277   200242 630500                    EPPR0   OFFSET+2,,AUTO
        19 002300   000004 631400 20                 EPPR1   4
        19 002301   000000 701000 xent               TSX1    Z8AE$ERROR
        19 002302   000000 011000                    NOP     0

     1740    16197    3                               RECORD$ -> LX_ITEM.LINE,
     1741    16198    3                               RECORD$ -> LX_ITEM.COLUMN);
     1742    16199    3               ERROR_FLAG = %TRUE;

  16199 19 002303   400000 236003                    LDQ     -131072,DU
        19 002304   200213 756100                    STQ     ERROR_FLAG,,AUTO

     1743    16200    3             END;

  16200 19 002305   002323 710000 19                 TRA     s:16209

     1744    16201    2           ELSE
     1745    16202    2               IF RECORD_ST$ -> SCALAR.B.DML_RVA = %FALSE     THEN

  16202 19 002306   000003 236100                    LDQ     3,,PR0
PL6.E3A0      #005=Z9EB$DML_STATEMENT File=Z9EB.:Z8A6TSI                         SAT 08/09/97 13:50 Page:364
        19 002307   002000 316007                    CANQ    1024,DL
        19 002310   002323 601000 19                 TNZ     s:16209

     1746    16203    3                 DO;

     1747    16204    3                   RVA_TYPE = %RVA_RECORD;

  16204 19 002311   000002 220003                    LDX0    2,DU
        19 002312   200147 740100                    STX0    RVA_TYPE,,AUTO

     1748    16205    3                   CALL Z9EB$BUILD_RVA_TABLE( RECORD_ST$, RVA_TYPE);

  16205 19 002313   200147 631500                    EPPR1   RVA_TYPE,,AUTO
        19 002314   200243 451500                    STP1    OFFSET+3,,AUTO
        19 002315   200152 633500                    EPPR3   RECORD_ST$,,AUTO
        19 002316   200242 453500                    STP3    OFFSET+2,,AUTO
        19 002317   200242 630500                    EPPR0   OFFSET+2,,AUTO
        19 002320   000002 631400 20                 EPPR1   2
        19 002321   000000 701000 xent               TSX1    Z9EB$BUILD_RVA_TABLE
        19 002322   000000 011000                    NOP     0

     1749    16206    3                 END;

     1750    16207    2         END;

     1751    16208
     1752    16209    1       CALL RETENTION(RETENTION$,ADDR(RL_LX_ITEM));

  16209 19 002323   200016 630500                    EPPR0   RL_LX_ITEM,,AUTO
        19 002324   200255 450500                    STP0    OFFSET+13,,AUTO
        19 002325   200255 631500                    EPPR1   OFFSET+13,,AUTO
        19 002326   200222 451500                    STP1    @CODE+1,,AUTO
        19 002327   200004 236100                    LDQ     @RETENTION$,,AUTO
        19 002330   200221 756100                    STQ     SET_LIST_CONTROL+3,,AUTO
        19 002331   000345 701000 19                 TSX1    RETENTION
        19 002332   000000 011000                    NOP     0

PL6.E3A0      #005=Z9EB$DML_STATEMENT File=Z9EB.:Z8A6TSI                         SAT 08/09/97 13:50 Page:365
     1753    16210
     1754    16211    1       IF ERROR_FLAG = %TRUE            THEN

  16211 19 002333   200213 234100                    SZN     ERROR_FLAG,,AUTO
        19 002334   002336 605000 19                 TPL     s:16214

     1755    16212    1           RETURN;

  16212 19 002335   000000 702200 xent               TSX2  ! X66_ARET

     1756    16213
     1757    16214    1       CALL Z8EU$CREATE_IDENTIFIER_FROM_ST(O1COM.DML_IA$, ADDR(IA_LX_ITEM));

  16214 19 002336   200006 630500                    EPPR0   IA_LX_ITEM,,AUTO
        19 002337   200242 450500                    STP0    OFFSET+2,,AUTO
        19 002340   200242 631500                    EPPR1   OFFSET+2,,AUTO
        19 002341   200245 451500                    STP1    OFFSET+5,,AUTO
        19 002342   000013 236000 20                 LDQ     11
        19 002343   200244 756100                    STQ     OFFSET+4,,AUTO
        19 002344   200244 630500                    EPPR0   OFFSET+4,,AUTO
        19 002345   000002 631400 20                 EPPR1   2
        19 002346   000000 701000 xent               TSX1    Z8EU$CREATE_IDENTIFIER_FROM_ST
        19 002347   000000 011000                    NOP     0

     1758    16215    1       CALL BUILD_PARM( RECORD_ST$, ADDR(RC_LX_ITEM));

  16215 19 002350   200026 630500                    EPPR0   RC_LX_ITEM,,AUTO
        19 002351   200256 450500                    STP0    OFFSET+14,,AUTO
        19 002352   200256 631500                    EPPR1   OFFSET+14,,AUTO
        19 002353   200236 451500                    STP1    PTR$+1,,AUTO
        19 002354   200152 633500                    EPPR3   RECORD_ST$,,AUTO
        19 002355   200235 453500                    STP3    @ITEM$+1,,AUTO
        19 002356   000107 701000 19                 TSX1    BUILD_PARM
        19 002357   000000 011000                    NOP     0

     1759    16216
     1760    16217    1       ADDR(IA_LX_ITEM) -> LX_ITEM.LINK = ADDR(RC_LX_ITEM);
PL6.E3A0      #005=Z9EB$DML_STATEMENT File=Z9EB.:Z8A6TSI                         SAT 08/09/97 13:50 Page:366

  16217 19 002360   200026 630500                    EPPR0   RC_LX_ITEM,,AUTO
        19 002361   200015 450500                    STP0    IA_LX_ITEM+7,,AUTO

     1761    16218         /* CALL Z8EU$CREATE_IDENTIFIER_FROM_ST(DB_KEY_ST$,ADDR(FL_ID_LX_ITEM)); */
     1762    16219    1       ADDR(RC_LX_ITEM) -> LX_ITEM.LINK = DB_KEY$;

  16219 19 002362   200151 236100                    LDQ     DB_KEY$,,AUTO
        19 002363   200035 756100                    STQ     RC_LX_ITEM+7,,AUTO

     1763    16220
     1764    16221    1       DB_KEY$ -> LX_ITEM.LINK = ADDR(RL_LX_ITEM);

  16221 19 002364   200016 631500                    EPPR1   RL_LX_ITEM,,AUTO
        19 002365   200151 473500                    LDP3    DB_KEY$,,AUTO
        19 002366   300007 451500                    STP1    7,,PR3

     1765    16222    1       ARG_COUNT = 4 + ADDR(RL_LX_ITEM) -> LX_LIST.COUNT;

  16222 19 002367   200020 235100                    LDA     RL_LX_ITEM+2,,AUTO
        19 002370   000004 035007                    ADLA    4,DL
        19 002371   200146 755100                    STA     ARG_COUNT,,AUTO

     1766    16223
     1767    16224    1       CALL Z9EB$BUILD_CODE(%DBFDR,ARG_COUNT,ADDR(IA_LX_ITEM));

  16224 19 002372   200006 630500                    EPPR0   IA_LX_ITEM,,AUTO
        19 002373   200242 450500                    STP0    OFFSET+2,,AUTO
        19 002374   200242 631500                    EPPR1   OFFSET+2,,AUTO
        19 002375   200245 451500                    STP1    OFFSET+5,,AUTO
        19 002376   200146 634500                    EPPR4   ARG_COUNT,,AUTO
        19 002377   200244 454500                    STP4    OFFSET+4,,AUTO
        19 002400   000022 236000 20                 LDQ     18
        19 002401   200243 756100                    STQ     OFFSET+3,,AUTO
        19 002402   200243 630500                    EPPR0   OFFSET+3,,AUTO
        19 002403   000004 631400 20                 EPPR1   4
        19 002404   000000 701000 xent               TSX1    Z9EB$BUILD_CODE
PL6.E3A0      #005=Z9EB$DML_STATEMENT File=Z9EB.:Z8A6TSI                         SAT 08/09/97 13:50 Page:367
        19 002405   000000 011000                    NOP     0

     1768    16225
     1769    16226    1       DB_KEY$ -> LX_ITEM.LINK = ADDR(NIL);

  16226 19 002406   000000 236000 20                 LDQ     0
        19 002407   200151 470500                    LDP0    DB_KEY$,,AUTO
        19 002410   000007 756100                    STQ     7,,PR0

     1770    16227    1       RETURN;

  16227 19 002411   000000 702200 xent               TSX2  ! X66_ARET

     1771    16228        %EJECT;
PL6.E3A0      #005=Z9EB$DML_STATEMENT File=Z9EB.:Z8A6TSI                         SAT 08/09/97 13:50 Page:368
     1772    16229        /*============================*/
     1773    16230    1     Z9EB$FIND_RELATIVE_OCCURRENCE : ENTRY ( RECORD_SELECTION$,RETENTION$);

  16230 19 002412   000000 700200 xent  Z9EB$FIND_R* TSX0  ! X66_AUTO_2
        19 002413   000334 000002                    ZERO    220,2

     1774    16231        /*============================*/
     1775    16232
     1776    16233    1       OPTION$ = RECORD_SELECTION$ -> LX_LIST.HEAD$;

  16233 19 002414   200003 470500                    LDP0    @RECORD_SELECTION$,,AUTO
        19 002415   000000 471500                    LDP1    0,,PR0
        19 002416   100004 236100                    LDQ     4,,PR1
        19 002417   200202 756100                    STQ     OPTION$,,AUTO

     1777    16234    1       RECORD$ = OPTION$ -> LX_ITEM.LINK;

  16234 19 002420   200202 471500                    LDP1    OPTION$,,AUTO
        19 002421   100007 236100                    LDQ     7,,PR1
        19 002422   200150 756100                    STQ     RECORD$,,AUTO

     1778    16235    1       REALM_SET$ = RECORD_SELECTION$ -> LX_LIST.TAIL$;

  16235 19 002423   000000 473500                    LDP3    0,,PR0
        19 002424   300001 236100                    LDQ     1,,PR3
        19 002425   200156 756100                    STQ     REALM_SET$,,AUTO

     1779    16236    1       ERROR_FLAG = %FALSE;

  16236 19 002426   200213 450100                    STZ     ERROR_FLAG,,AUTO

     1780    16237
     1781    16238            /*V*    CHECK RECORD ITEM   */
     1782    16239
     1783    16240    1       IF RECORD$ -> LX_ITEM.ID = %LX_TERMINAL AND RECORD$ -> LX_ITEM.SYMBOL = %EMPTY
             16240                THEN

PL6.E3A0      #005=Z9EB$DML_STATEMENT File=Z9EB.:Z8A6TSI                         SAT 08/09/97 13:50 Page:369
  16240 19 002427   200150 474500                    LDP4    RECORD$,,AUTO
        19 002430   400000 220100                    LDX0    0,,PR4
        19 002431   002455 601000 19                 TNZ     s:16251
        19 002432   400003 235100                    LDA     3,,PR4
        19 002433   002455 601000 19                 TNZ     s:16251

     1784    16241    2         DO;

     1785    16242    2           IF O1COM.NILL_RVA = %FALSE          THEN

  16242 19 002434   000105 234000 xsym               SZN     O1COM+69
        19 002435   002452 604000 19                 TMI     s:16247

     1786    16243    3             DO;

     1787    16244    3               RVA_TYPE = %RVA_NULL;

  16244 19 002436   000004 221003                    LDX1    4,DU
        19 002437   200147 741100                    STX1    RVA_TYPE,,AUTO

     1788    16245    3               CALL Z9EB$BUILD_RVA_TABLE( ADDR(NIL), RVA_TYPE);

  16245 19 002440   000000 236000 20                 LDQ     0
        19 002441   200242 756100                    STQ     OFFSET+2,,AUTO
        19 002442   200147 633500                    EPPR3   RVA_TYPE,,AUTO
        19 002443   200245 453500                    STP3    OFFSET+5,,AUTO
        19 002444   200242 635500                    EPPR5   OFFSET+2,,AUTO
        19 002445   200244 455500                    STP5    OFFSET+4,,AUTO
        19 002446   200244 630500                    EPPR0   OFFSET+4,,AUTO
        19 002447   000002 631400 20                 EPPR1   2
        19 002450   000000 701000 xent               TSX1    Z9EB$BUILD_RVA_TABLE
        19 002451   000000 011000                    NOP     0

     1789    16246    3             END;

     1790    16247    2           RECORD_ST$ = ADDR(NIL);

PL6.E3A0      #005=Z9EB$DML_STATEMENT File=Z9EB.:Z8A6TSI                         SAT 08/09/97 13:50 Page:370
  16247 19 002452   000000 236000 20                 LDQ     0
        19 002453   200152 756100                    STQ     RECORD_ST$,,AUTO

     1791    16248    2         END;

  16248 19 002454   002540 710000 19                 TRA     s:16280

     1792    16249
     1793    16250    1       ELSE
     1794    16251    1        IF RECORD$ -> LX_ITEM.B.ERROR   THEN

  16251 19 002455   400000 236100                    LDQ     0,,PR4
        19 002456   400000 316007                    CANQ    -131072,DL
        19 002457   002463 600000 19                 TZE     s:16257

     1795    16252    1           ERROR_FLAG = %TRUE;

  16252 19 002460   400000 236003                    LDQ     -131072,DU
        19 002461   200213 756100                    STQ     ERROR_FLAG,,AUTO
        19 002462   002540 710000 19                 TRA     s:16280

     1796    16253    1        ELSE
     1797    16254    2         DO;

     1798    16255                %FISH(TRIAD = RECORD$ -> LX_ETT_ITEM.ETT$, RTN = RECORD_ST$);

  16257 19 002463   400001 236100                    LDQ     1,,PR4
        19 002464   200152 756100                    STQ     RECORD_ST$,,AUTO

  16258 19 002465   200152 473500                    LDP3    RECORD_ST$,,AUTO
        19 002466   300000 220100                    LDX0    0,,PR3
        19 002467   000751 100003                    CMPX0   489,DU
        19 002470   002500 603000 19                 TRC     s:16263

  16259 19 002471   200152 470500                    LDP0    RECORD_ST$,,AUTO
        19 002472   000001 236100                    LDQ     1,,PR0
        19 002473   200152 756100                    STQ     RECORD_ST$,,AUTO
PL6.E3A0      #005=Z9EB$DML_STATEMENT File=Z9EB.:Z8A6TSI                         SAT 08/09/97 13:50 Page:371

  16260 19 002474   200152 470500                    LDP0    RECORD_ST$,,AUTO
        19 002475   000000 220100                    LDX0    0,,PR0
        19 002476   000751 100003                    CMPX0   489,DU
        19 002477   002471 602000 19                 TNC     s:16259

     1799    16263    2           IF RECORD_ST$ -> SCALAR.B.DML_TYPE ~= %RECORD    THEN

  16263 19 002500   200152 470500                    LDP0    RECORD_ST$,,AUTO
        19 002501   000003 236100                    LDQ     3,,PR0
        19 002502   160000 376007                    ANQ     57344,DL
        19 002503   060000 116007                    CMPQ    24576,DL
        19 002504   002523 600000 19                 TZE     s:16271

     1800    16264    3             DO;

     1801    16265    3               CALL Z8AE$ERROR(%E$ITEM_NOT_A_RECORD,

  16265 19 002505   200150 236100                    LDQ     RECORD$,,AUTO
        19 002506   000006 036003                    ADLQ    6,DU
        19 002507   200244 756100                    STQ     OFFSET+4,,AUTO
        19 002510   200150 236100                    LDQ     RECORD$,,AUTO
        19 002511   000005 036003                    ADLQ    5,DU
        19 002512   000021 235000 20                 LDA     17
        19 002513   200242 757100                    STAQ    OFFSET+2,,AUTO
        19 002514   200242 630500                    EPPR0   OFFSET+2,,AUTO
        19 002515   000004 631400 20                 EPPR1   4
        19 002516   000000 701000 xent               TSX1    Z8AE$ERROR
        19 002517   000000 011000                    NOP     0

     1802    16266    3                               RECORD$ -> LX_ITEM.LINE,
     1803    16267    3                               RECORD$ -> LX_ITEM.COLUMN);
     1804    16268    3               ERROR_FLAG = %TRUE;

  16268 19 002520   400000 236003                    LDQ     -131072,DU
        19 002521   200213 756100                    STQ     ERROR_FLAG,,AUTO

PL6.E3A0      #005=Z9EB$DML_STATEMENT File=Z9EB.:Z8A6TSI                         SAT 08/09/97 13:50 Page:372
     1805    16269    3             END;

  16269 19 002522   002540 710000 19                 TRA     s:16280

     1806    16270    2           ELSE
     1807    16271    2               IF RECORD_ST$ -> SCALAR.B.DML_RVA = %FALSE     THEN

  16271 19 002523   000003 236100                    LDQ     3,,PR0
        19 002524   002000 316007                    CANQ    1024,DL
        19 002525   002540 601000 19                 TNZ     s:16280

     1808    16272    3                 DO;

     1809    16273    3                   RVA_TYPE = %RVA_RECORD;

  16273 19 002526   000002 220003                    LDX0    2,DU
        19 002527   200147 740100                    STX0    RVA_TYPE,,AUTO

     1810    16274    3                   CALL Z9EB$BUILD_RVA_TABLE( RECORD_ST$, RVA_TYPE);

  16274 19 002530   200147 631500                    EPPR1   RVA_TYPE,,AUTO
        19 002531   200243 451500                    STP1    OFFSET+3,,AUTO
        19 002532   200152 633500                    EPPR3   RECORD_ST$,,AUTO
        19 002533   200242 453500                    STP3    OFFSET+2,,AUTO
        19 002534   200242 630500                    EPPR0   OFFSET+2,,AUTO
        19 002535   000002 631400 20                 EPPR1   2
        19 002536   000000 701000 xent               TSX1    Z9EB$BUILD_RVA_TABLE
        19 002537   000000 011000                    NOP     0

     1811    16275    3                 END;

     1812    16276    2         END;

     1813    16277
     1814    16278            /*V*  CHECK FOR REALM OR SET   */
     1815    16279
     1816    16280    1       IF REALM_SET$ -> LX_ITEM.B.ERROR     THEN
PL6.E3A0      #005=Z9EB$DML_STATEMENT File=Z9EB.:Z8A6TSI                         SAT 08/09/97 13:50 Page:373

  16280 19 002540   200156 470500                    LDP0    REALM_SET$,,AUTO
        19 002541   000000 236100                    LDQ     0,,PR0
        19 002542   400000 316007                    CANQ    -131072,DL
        19 002543   002547 600000 19                 TZE     s:16286

     1817    16281    1          ERROR_FLAG = %TRUE;

  16281 19 002544   400000 236003                    LDQ     -131072,DU
        19 002545   200213 756100                    STQ     ERROR_FLAG,,AUTO
        19 002546   002623 710000 19                 TRA     s:16312

     1818    16282    1       ELSE
     1819    16283    2        DO;

     1820    16284               %FISH(TRIAD = REALM_SET$ -> LX_ETT_ITEM.ETT$, RTN= REALM_SET_ST$);

  16286 19 002547   000001 236100                    LDQ     1,,PR0
        19 002550   200157 756100                    STQ     REALM_SET_ST$,,AUTO

  16287 19 002551   200157 471500                    LDP1    REALM_SET_ST$,,AUTO
        19 002552   100000 220100                    LDX0    0,,PR1
        19 002553   000751 100003                    CMPX0   489,DU
        19 002554   002564 603000 19                 TRC     s:16292

  16288 19 002555   200157 470500                    LDP0    REALM_SET_ST$,,AUTO
        19 002556   000001 236100                    LDQ     1,,PR0
        19 002557   200157 756100                    STQ     REALM_SET_ST$,,AUTO

  16289 19 002560   200157 470500                    LDP0    REALM_SET_ST$,,AUTO
        19 002561   000000 220100                    LDX0    0,,PR0
        19 002562   000751 100003                    CMPX0   489,DU
        19 002563   002555 602000 19                 TNC     s:16288

     1821    16292    2          IF REALM_SET_ST$ -> DML_ITEM.ID = %DML_SET   OR REALM_SET_ST$ -> DML_ITEM.ID
             16292                   = %DML_KEY   THEN

PL6.E3A0      #005=Z9EB$DML_STATEMENT File=Z9EB.:Z8A6TSI                         SAT 08/09/97 13:50 Page:374
  16292 19 002564   200157 470500                    LDP0    REALM_SET_ST$,,AUTO
        19 002565   000000 220100                    LDX0    0,,PR0
        19 002566   000753 100003                    CMPX0   491,DU
        19 002567   002572 600000 19                 TZE     s:16294
        19 002570   000754 100003                    CMPX0   492,DU
        19 002571   002577 601000 19                 TNZ     s:16298

     1822    16293    3            DO;

     1823    16294    3              RVA_TYPE = %RVA_SET;

  16294 19 002572   000001 221003                    LDX1    1,DU
        19 002573   200147 741100                    STX1    RVA_TYPE,,AUTO

     1824    16295    3              CODE_TYPE = %SET_CALL;

  16295 19 002574   000001 235007                    LDA     1,DL
        19 002575   200175 755100                    STA     CODE_TYPE,,AUTO

     1825    16296    3            END;

  16296 19 002576   002623 710000 19                 TRA     s:16312

     1826    16297    2          ELSE
     1827    16298    2              IF REALM_SET_ST$ -> DML_ITEM.ID = %REALM    THEN

  16298 19 002577   000752 100003                    CMPX0   490,DU
        19 002600   002606 601000 19                 TNZ     s:16305

     1828    16299    3                DO;

     1829    16300    3                  RVA_TYPE = %RVA_REALM;

  16300 19 002601   000000 221003                    LDX1    0,DU
        19 002602   200147 741100                    STX1    RVA_TYPE,,AUTO

     1830    16301    3                  CODE_TYPE = %REALM_CALL;
PL6.E3A0      #005=Z9EB$DML_STATEMENT File=Z9EB.:Z8A6TSI                         SAT 08/09/97 13:50 Page:375

  16301 19 002603   000002 235007                    LDA     2,DL
        19 002604   200175 755100                    STA     CODE_TYPE,,AUTO

     1831    16302    3                END;

  16302 19 002605   002623 710000 19                 TRA     s:16312

     1832    16303    2              ELSE
     1833    16304    3                DO;

     1834    16305    3                  CALL Z8AE$ERROR(%E$ITEM_NOT_REALM_OR_SET,

  16305 19 002606   200156 236100                    LDQ     REALM_SET$,,AUTO
        19 002607   000006 036003                    ADLQ    6,DU
        19 002610   200244 756100                    STQ     OFFSET+4,,AUTO
        19 002611   200156 236100                    LDQ     REALM_SET$,,AUTO
        19 002612   000005 036003                    ADLQ    5,DU
        19 002613   000024 235000 20                 LDA     20
        19 002614   200242 757100                    STAQ    OFFSET+2,,AUTO
        19 002615   200242 630500                    EPPR0   OFFSET+2,,AUTO
        19 002616   000004 631400 20                 EPPR1   4
        19 002617   000000 701000 xent               TSX1    Z8AE$ERROR
        19 002620   000000 011000                    NOP     0

     1835    16306    3                                  REALM_SET$ -> LX_ITEM.LINE,
     1836    16307    3                                  REALM_SET$ -> LX_ITEM.COLUMN);
     1837    16308    3                  ERROR_FLAG = %TRUE;

  16308 19 002621   400000 236003                    LDQ     -131072,DU
        19 002622   200213 756100                    STQ     ERROR_FLAG,,AUTO

     1838    16309    3                END;

     1839    16310    2        END;

     1840    16311
PL6.E3A0      #005=Z9EB$DML_STATEMENT File=Z9EB.:Z8A6TSI                         SAT 08/09/97 13:50 Page:376
     1841    16312    1       CALL RETENTION(RETENTION$,ADDR(RL_LX_ITEM));

  16312 19 002623   200016 630500                    EPPR0   RL_LX_ITEM,,AUTO
        19 002624   200257 450500                    STP0    OFFSET+15,,AUTO
        19 002625   200257 631500                    EPPR1   OFFSET+15,,AUTO
        19 002626   200222 451500                    STP1    @CODE+1,,AUTO
        19 002627   200004 236100                    LDQ     @RETENTION$,,AUTO
        19 002630   200221 756100                    STQ     SET_LIST_CONTROL+3,,AUTO
        19 002631   000345 701000 19                 TSX1    RETENTION
        19 002632   000000 011000                    NOP     0

     1842    16313
     1843    16314    1       IF ERROR_FLAG = %TRUE            THEN

  16314 19 002633   200213 234100                    SZN     ERROR_FLAG,,AUTO
        19 002634   002636 605000 19                 TPL     s:16317

     1844    16315    1           RETURN;

  16315 19 002635   000000 702200 xent               TSX2  ! X66_ARET

     1845    16316
     1846    16317    1       IF RECORD_ST$ ~= ADDR(NIL) AND OPTION$ -> LX_ITEM.SYMBOL ~= %RSV_WRD_CURRENT
             16317                THEN

  16317 19 002636   200152 236100                    LDQ     RECORD_ST$,,AUTO
        19 002637   000000 116000 20                 CMPQ    0
        19 002640   002667 600000 19                 TZE     s:16327
        19 002641   200202 470500                    LDP0    OPTION$,,AUTO
        19 002642   000003 235100                    LDA     3,,PR0
        19 002643   000171 115007                    CMPA    121,DL
        19 002644   002667 600000 19                 TZE     s:16327

     1847    16318    1           IF RECORD_ST$ -> SCALAR.LTS$ -> /* Type 4, check location mode */

  16318 19 002645   200152 471500                    LDP1    RECORD_ST$,,AUTO
        19 002646   100005 473500                    LDP3    5,,PR1
PL6.E3A0      #005=Z9EB$DML_STATEMENT File=Z9EB.:Z8A6TSI                         SAT 08/09/97 13:50 Page:377
        19 002647   300001 236100                    LDQ     1,,PR3
        19 002650   200000 316003                    CANQ    65536,DU
        19 002651   002667 600000 19                 TZE     s:16327

     1848    16319    1               DML_REC.RECORD_INFO.RECORD_PARTIAL_DESCRIBED THEN
             16319                        /* Indexed -- illegal */
     1849    16320    2             DO;

     1850    16321    2               CALL Z8AE$ERROR(%E$TYPE_4_FIND_ILLEGAL,

  16321 19 002652   200150 236100                    LDQ     RECORD$,,AUTO
        19 002653   000006 036003                    ADLQ    6,DU
        19 002654   200244 756100                    STQ     OFFSET+4,,AUTO
        19 002655   200150 236100                    LDQ     RECORD$,,AUTO
        19 002656   000005 036003                    ADLQ    5,DU
        19 002657   000026 235000 20                 LDA     22
        19 002660   200242 757100                    STAQ    OFFSET+2,,AUTO
        19 002661   200242 630500                    EPPR0   OFFSET+2,,AUTO
        19 002662   000004 631400 20                 EPPR1   4
        19 002663   000000 701000 xent               TSX1    Z8AE$ERROR
        19 002664   000000 011000                    NOP     0

     1851    16322    2                               RECORD$ -> LX_ITEM.LINE,
     1852    16323    2                               RECORD$ -> LX_ITEM.COLUMN);
     1853    16324    2               ERROR_FLAG = %TRUE;

  16324 19 002665   400000 236003                    LDQ     -131072,DU
        19 002666   200213 756100                    STQ     ERROR_FLAG,,AUTO

     1854    16325    2             END;

     1855    16326
     1856    16327    1       IF RECORD_ST$ ~= ADDR(NIL) THEN

  16327 19 002667   200152 236100                    LDQ     RECORD_ST$,,AUTO
        19 002670   000000 116000 20                 CMPQ    0
        19 002671   003004 600000 19                 TZE     s:16394
PL6.E3A0      #005=Z9EB$DML_STATEMENT File=Z9EB.:Z8A6TSI                         SAT 08/09/97 13:50 Page:378

     1857    16328    1         IF REALM_SET_ST$ -> DML_ITEM.ID = %DML_SET THEN

  16328 19 002672   200157 470500                    LDP0    REALM_SET_ST$,,AUTO
        19 002673   000000 220100                    LDX0    0,,PR0
        19 002674   000753 100003                    CMPX0   491,DU
        19 002675   002725 601000 19                 TNZ     REALM_MEMBERSHIP

     1858    16329    1           CALL MEMBERSHIP(RECORD_ST$, REALM_SET_ST$, %DBFRS)

  16329 19 002676   000027 236000 20                 LDQ     23
        19 002677   200223 756100                    STQ     @FIND_CONTROL$+1,,AUTO
        19 002700   200157 631500                    EPPR1   REALM_SET_ST$,,AUTO
        19 002701   200222 451500                    STP1    @CODE+1,,AUTO
        19 002702   200152 633500                    EPPR3   RECORD_ST$,,AUTO
        19 002703   200221 453500                    STP3    SET_LIST_CONTROL+3,,AUTO
        19 002704   000003 701000 19                 TSX1    MEMBERSHIP
        19 002705   002707 702000 19                 TSX2    s:16332
        19 002706   002724 710000 19                 TRA     s:16336

     1859    16330    1               WHENALTRETURN
     1860    16331    2                DO;

     1861    16332    2                   CALL Z8AE$ERROR(%E$INVALID_MEMBER,

  16332 19 002707   200150 236100                    LDQ     RECORD$,,AUTO
        19 002710   000006 036003                    ADLQ    6,DU
        19 002711   200244 756100                    STQ     OFFSET+4,,AUTO
        19 002712   200150 236100                    LDQ     RECORD$,,AUTO
        19 002713   000005 036003                    ADLQ    5,DU
        19 002714   000031 235000 20                 LDA     25
        19 002715   200242 757100                    STAQ    OFFSET+2,,AUTO
        19 002716   200242 630500                    EPPR0   OFFSET+2,,AUTO
        19 002717   000004 631400 20                 EPPR1   4
        19 002720   000000 701000 xent               TSX1    Z8AE$ERROR
        19 002721   000000 011000                    NOP     0

PL6.E3A0      #005=Z9EB$DML_STATEMENT File=Z9EB.:Z8A6TSI                         SAT 08/09/97 13:50 Page:379
     1862    16333    2                                   RECORD$ -> LX_ITEM.LINE,
     1863    16334    2                                   RECORD$ -> LX_ITEM.COLUMN);
     1864    16335    2                   ERROR_FLAG = %TRUE;

  16335 19 002722   400000 236003                    LDQ     -131072,DU
        19 002723   200213 756100                    STQ     ERROR_FLAG,,AUTO

     1865    16336    2                END;

  16336 19 002724   003004 710000 19                 TRA     s:16394

     1866    16337    1         ELSE
     1867    16338    2   REALM_MEMBERSHIP: DO;

  16338 19 002725                       REALM_MEMBE* null
     1868    16339                %GET_LTS (@ID = %DML_REC, @ST$ = RECORD_ST$, @RETURN$ = LTS$);

  16341 19 002725   200152 471500                    LDP1    RECORD_ST$,,AUTO
        19 002726   100005 236100                    LDQ     5,,PR1
        19 002727   000000 116000 20                 CMPQ    0
        19 002730   002740 600000 19                 TZE     s:16375
        19 002731   100005 473500                    LDP3    5,,PR1
        19 002732   300000 221100                    LDX1    0,,PR3
        19 002733   001105 101003                    CMPX1   581,DU
        19 002734   002740 601000 19                 TNZ     s:16375

  16365 19 002735   300007 236100                    LDQ     7,,PR3
        19 002736   000000 756000 11                 STQ     LTS$

  16373 19 002737   002752 710000 19                 TRA     s:16382

  16375 19 002740   000000 116000 20                 CMPQ    0
        19 002741   002750 600000 19                 TZE     s:16379
        19 002742   100005 473500                    LDP3    5,,PR1
        19 002743   300000 221100                    LDX1    0,,PR3
        19 002744   001125 101003                    CMPX1   597,DU
        19 002745   002750 601000 19                 TNZ     s:16379
PL6.E3A0      #005=Z9EB$DML_STATEMENT File=Z9EB.:Z8A6TSI                         SAT 08/09/97 13:50 Page:380

  16377 19 002746   000000 756000 11                 STQ     LTS$
        19 002747   002752 710000 19                 TRA     s:16382

  16379 19 002750   000000 236000 20                 LDQ     0
        19 002751   000000 756000 11                 STQ     LTS$

     1869    16382    3           DO WHILE LTS$ ~= ADDR (NIL);

  16382 19 002752   002765 710000 19                 TRA     s:16387

     1870    16383    3             IF LTS$ -> DML_REC.REALM_RELATIONSHIP THEN

  16383 19 002753   000000 470400 11                 LDP0    LTS$
        19 002754   000001 236100                    LDQ     1,,PR0
        19 002755   000020 316003                    CANQ    16,DU
        19 002756   002763 600000 19                 TZE     s:16386

     1871    16384    3               IF REALM_SET_ST$ -> DML_ITEM.INTERNAL_NAME = LTS$ -> DML_REC.REALM_NAME
             16384                        THEN

  16384 19 002757   200157 471500                    LDP1    REALM_SET_ST$,,AUTO
        19 002760   100001 236100                    LDQ     1,,PR1
        19 002761   000002 116100                    CMPQ    2,,PR0
        19 002762   003004 600000 19                 TZE     s:16394

     1872    16385    3                 EXIT REALM_MEMBERSHIP;
     1873    16386    3             LTS$ = LTS$ -> DML_REC.EXTEND$;

  16386 19 002763   000005 236100                    LDQ     5,,PR0
        19 002764   000000 756000 11                 STQ     LTS$

     1874    16387    3           END;

  16387 19 002765   000000 116000 20                 CMPQ    0
        19 002766   002753 601000 19                 TNZ     s:16383

PL6.E3A0      #005=Z9EB$DML_STATEMENT File=Z9EB.:Z8A6TSI                         SAT 08/09/97 13:50 Page:381
     1875    16388    2           CALL Z8AE$ERROR (%E$NOT_IN_REALM,

  16388 19 002767   200150 236100                    LDQ     RECORD$,,AUTO
        19 002770   000006 036003                    ADLQ    6,DU
        19 002771   200244 756100                    STQ     OFFSET+4,,AUTO
        19 002772   200150 236100                    LDQ     RECORD$,,AUTO
        19 002773   000005 036003                    ADLQ    5,DU
        19 002774   000033 235000 20                 LDA     27
        19 002775   200242 757100                    STAQ    OFFSET+2,,AUTO
        19 002776   200242 630500                    EPPR0   OFFSET+2,,AUTO
        19 002777   000004 631400 20                 EPPR1   4
        19 003000   000000 701000 xent               TSX1    Z8AE$ERROR
        19 003001   000000 011000                    NOP     0

     1876    16389    2                            RECORD$ -> LX_ITEM.LINE,
     1877    16390    2                            RECORD$ -> LX_ITEM.COLUMN);
     1878    16391    2           ERROR_FLAG = %TRUE;

  16391 19 003002   400000 236003                    LDQ     -131072,DU
        19 003003   200213 756100                    STQ     ERROR_FLAG,,AUTO

     1879    16392    2         END; /* REALM_MEMBERSHIP */

     1880    16393
     1881    16394    1       IF ERROR_FLAG = %TRUE            THEN

  16394 19 003004   200213 234100                    SZN     ERROR_FLAG,,AUTO
        19 003005   003007 605000 19                 TPL     s:16397

     1882    16395    1           RETURN;

  16395 19 003006   000000 702200 xent               TSX2  ! X66_ARET

     1883    16396
     1884    16397    1       IF REALM_SET_ST$ -> DML_ITEM.B.DML_RVA = %FALSE     THEN

  16397 19 003007   200157 470500                    LDP0    REALM_SET_ST$,,AUTO
PL6.E3A0      #005=Z9EB$DML_STATEMENT File=Z9EB.:Z8A6TSI                         SAT 08/09/97 13:50 Page:382
        19 003010   000003 236100                    LDQ     3,,PR0
        19 003011   002000 316007                    CANQ    1024,DL
        19 003012   003023 601000 19                 TNZ     s:16400

     1885    16398    1           CALL Z9EB$BUILD_RVA_TABLE( REALM_SET_ST$, RVA_TYPE);

  16398 19 003013   200147 631500                    EPPR1   RVA_TYPE,,AUTO
        19 003014   200243 451500                    STP1    OFFSET+3,,AUTO
        19 003015   200157 633500                    EPPR3   REALM_SET_ST$,,AUTO
        19 003016   200242 453500                    STP3    OFFSET+2,,AUTO
        19 003017   200242 630500                    EPPR0   OFFSET+2,,AUTO
        19 003020   000002 631400 20                 EPPR1   2
        19 003021   000000 701000 xent               TSX1    Z9EB$BUILD_RVA_TABLE
        19 003022   000000 011000                    NOP     0

     1886    16399
     1887    16400    2       DO CASE(OPTION$ -> LX_ITEM.SYMBOL);

  16400 19 003023   200202 470500                    LDP0    OPTION$,,AUTO
        19 003024   000003 235100                    LDA     3,,PR0
        19 003025   000171 135007                    SBLA    121,DL
        19 003026   000340 115007                    CMPA    224,DL
        19 003027   003031 602005 19                 TNC     s:16400+6,AL
        19 003030   003422 710000 19                 TRA     s:16410
        19 003031   003371 710000 19                 TRA     s:16403
        19 003032   003422 710000 19                 TRA     s:16410
        19 003033   003422 710000 19                 TRA     s:16410
        19 003034   003422 710000 19                 TRA     s:16410
        19 003035   003422 710000 19                 TRA     s:16410
        19 003036   003422 710000 19                 TRA     s:16410
        19 003037   003422 710000 19                 TRA     s:16410
        19 003040   003422 710000 19                 TRA     s:16410
        19 003041   003422 710000 19                 TRA     s:16410
        19 003042   003422 710000 19                 TRA     s:16410
        19 003043   003422 710000 19                 TRA     s:16410
        19 003044   003422 710000 19                 TRA     s:16410
        19 003045   003422 710000 19                 TRA     s:16410
PL6.E3A0      #005=Z9EB$DML_STATEMENT File=Z9EB.:Z8A6TSI                         SAT 08/09/97 13:50 Page:383
        19 003046   003422 710000 19                 TRA     s:16410
        19 003047   003422 710000 19                 TRA     s:16410
        19 003050   003422 710000 19                 TRA     s:16410
        19 003051   003422 710000 19                 TRA     s:16410
        19 003052   003422 710000 19                 TRA     s:16410
        19 003053   003422 710000 19                 TRA     s:16410
        19 003054   003422 710000 19                 TRA     s:16410
        19 003055   003422 710000 19                 TRA     s:16410
        19 003056   003422 710000 19                 TRA     s:16410
        19 003057   003422 710000 19                 TRA     s:16410
        19 003060   003422 710000 19                 TRA     s:16410
        19 003061   003422 710000 19                 TRA     s:16410
        19 003062   003422 710000 19                 TRA     s:16410
        19 003063   003422 710000 19                 TRA     s:16410
        19 003064   003422 710000 19                 TRA     s:16410
        19 003065   003422 710000 19                 TRA     s:16410
        19 003066   003422 710000 19                 TRA     s:16410
        19 003067   003422 710000 19                 TRA     s:16410
        19 003070   003422 710000 19                 TRA     s:16410
        19 003071   003422 710000 19                 TRA     s:16410
        19 003072   003422 710000 19                 TRA     s:16410
        19 003073   003422 710000 19                 TRA     s:16410
        19 003074   003422 710000 19                 TRA     s:16410
        19 003075   003422 710000 19                 TRA     s:16410
        19 003076   003422 710000 19                 TRA     s:16410
        19 003077   003422 710000 19                 TRA     s:16410
        19 003100   003422 710000 19                 TRA     s:16410
        19 003101   003422 710000 19                 TRA     s:16410
        19 003102   003422 710000 19                 TRA     s:16410
        19 003103   003422 710000 19                 TRA     s:16410
        19 003104   003422 710000 19                 TRA     s:16410
        19 003105   003422 710000 19                 TRA     s:16410
        19 003106   003422 710000 19                 TRA     s:16410
        19 003107   003422 710000 19                 TRA     s:16410
        19 003110   003422 710000 19                 TRA     s:16410
        19 003111   003422 710000 19                 TRA     s:16410
        19 003112   003422 710000 19                 TRA     s:16410
PL6.E3A0      #005=Z9EB$DML_STATEMENT File=Z9EB.:Z8A6TSI                         SAT 08/09/97 13:50 Page:384
        19 003113   003422 710000 19                 TRA     s:16410
        19 003114   003422 710000 19                 TRA     s:16410
        19 003115   003422 710000 19                 TRA     s:16410
        19 003116   003422 710000 19                 TRA     s:16410
        19 003117   003422 710000 19                 TRA     s:16410
        19 003120   003422 710000 19                 TRA     s:16410
        19 003121   003422 710000 19                 TRA     s:16410
        19 003122   003422 710000 19                 TRA     s:16410
        19 003123   003422 710000 19                 TRA     s:16410
        19 003124   003422 710000 19                 TRA     s:16410
        19 003125   003422 710000 19                 TRA     s:16410
        19 003126   003422 710000 19                 TRA     s:16410
        19 003127   003422 710000 19                 TRA     s:16410
        19 003130   003422 710000 19                 TRA     s:16410
        19 003131   003422 710000 19                 TRA     s:16410
        19 003132   003422 710000 19                 TRA     s:16410
        19 003133   003422 710000 19                 TRA     s:16410
        19 003134   003422 710000 19                 TRA     s:16410
        19 003135   003422 710000 19                 TRA     s:16410
        19 003136   003422 710000 19                 TRA     s:16410
        19 003137   003422 710000 19                 TRA     s:16410
        19 003140   003422 710000 19                 TRA     s:16410
        19 003141   003422 710000 19                 TRA     s:16410
        19 003142   003422 710000 19                 TRA     s:16410
        19 003143   003422 710000 19                 TRA     s:16410
        19 003144   003422 710000 19                 TRA     s:16410
        19 003145   003422 710000 19                 TRA     s:16410
        19 003146   003422 710000 19                 TRA     s:16410
        19 003147   003422 710000 19                 TRA     s:16410
        19 003150   003422 710000 19                 TRA     s:16410
        19 003151   003422 710000 19                 TRA     s:16410
        19 003152   003422 710000 19                 TRA     s:16410
        19 003153   003422 710000 19                 TRA     s:16410
        19 003154   003422 710000 19                 TRA     s:16410
        19 003155   003422 710000 19                 TRA     s:16410
        19 003156   003422 710000 19                 TRA     s:16410
        19 003157   003422 710000 19                 TRA     s:16410
PL6.E3A0      #005=Z9EB$DML_STATEMENT File=Z9EB.:Z8A6TSI                         SAT 08/09/97 13:50 Page:385
        19 003160   003422 710000 19                 TRA     s:16410
        19 003161   003422 710000 19                 TRA     s:16410
        19 003162   003422 710000 19                 TRA     s:16410
        19 003163   003422 710000 19                 TRA     s:16410
        19 003164   003422 710000 19                 TRA     s:16410
        19 003165   003422 710000 19                 TRA     s:16410
        19 003166   003422 710000 19                 TRA     s:16410
        19 003167   003422 710000 19                 TRA     s:16410
        19 003170   003422 710000 19                 TRA     s:16410
        19 003171   003422 710000 19                 TRA     s:16410
        19 003172   003422 710000 19                 TRA     s:16410
        19 003173   003422 710000 19                 TRA     s:16410
        19 003174   003422 710000 19                 TRA     s:16410
        19 003175   003422 710000 19                 TRA     s:16410
        19 003176   003422 710000 19                 TRA     s:16410
        19 003177   003422 710000 19                 TRA     s:16410
        19 003200   003422 710000 19                 TRA     s:16410
        19 003201   003422 710000 19                 TRA     s:16410
        19 003202   003422 710000 19                 TRA     s:16410
        19 003203   003422 710000 19                 TRA     s:16410
        19 003204   003422 710000 19                 TRA     s:16410
        19 003205   003422 710000 19                 TRA     s:16410
        19 003206   003422 710000 19                 TRA     s:16410
        19 003207   003422 710000 19                 TRA     s:16410
        19 003210   003422 710000 19                 TRA     s:16410
        19 003211   003422 710000 19                 TRA     s:16410
        19 003212   003422 710000 19                 TRA     s:16410
        19 003213   003422 710000 19                 TRA     s:16410
        19 003214   003422 710000 19                 TRA     s:16410
        19 003215   003422 710000 19                 TRA     s:16410
        19 003216   003422 710000 19                 TRA     s:16410
        19 003217   003422 710000 19                 TRA     s:16410
        19 003220   003422 710000 19                 TRA     s:16410
        19 003221   003422 710000 19                 TRA     s:16410
        19 003222   003422 710000 19                 TRA     s:16410
        19 003223   003422 710000 19                 TRA     s:16410
        19 003224   003422 710000 19                 TRA     s:16410
PL6.E3A0      #005=Z9EB$DML_STATEMENT File=Z9EB.:Z8A6TSI                         SAT 08/09/97 13:50 Page:386
        19 003225   003422 710000 19                 TRA     s:16410
        19 003226   003422 710000 19                 TRA     s:16410
        19 003227   003422 710000 19                 TRA     s:16410
        19 003230   003422 710000 19                 TRA     s:16410
        19 003231   003422 710000 19                 TRA     s:16410
        19 003232   003422 710000 19                 TRA     s:16410
        19 003233   003422 710000 19                 TRA     s:16410
        19 003234   003422 710000 19                 TRA     s:16410
        19 003235   003422 710000 19                 TRA     s:16410
        19 003236   003422 710000 19                 TRA     s:16410
        19 003237   003422 710000 19                 TRA     s:16410
        19 003240   003422 710000 19                 TRA     s:16410
        19 003241   003422 710000 19                 TRA     s:16410
        19 003242   003422 710000 19                 TRA     s:16410
        19 003243   003422 710000 19                 TRA     s:16410
        19 003244   003422 710000 19                 TRA     s:16410
        19 003245   003422 710000 19                 TRA     s:16410
        19 003246   003422 710000 19                 TRA     s:16410
        19 003247   003422 710000 19                 TRA     s:16410
        19 003250   003422 710000 19                 TRA     s:16410
        19 003251   003422 710000 19                 TRA     s:16410
        19 003252   003422 710000 19                 TRA     s:16410
        19 003253   003422 710000 19                 TRA     s:16410
        19 003254   003422 710000 19                 TRA     s:16410
        19 003255   003422 710000 19                 TRA     s:16410
        19 003256   003422 710000 19                 TRA     s:16410
        19 003257   003422 710000 19                 TRA     s:16410
        19 003260   003422 710000 19                 TRA     s:16410
        19 003261   003422 710000 19                 TRA     s:16410
        19 003262   003422 710000 19                 TRA     s:16410
        19 003263   003422 710000 19                 TRA     s:16410
        19 003264   003422 710000 19                 TRA     s:16410
        19 003265   003422 710000 19                 TRA     s:16410
        19 003266   003422 710000 19                 TRA     s:16410
        19 003267   003422 710000 19                 TRA     s:16410
        19 003270   003422 710000 19                 TRA     s:16410
        19 003271   003422 710000 19                 TRA     s:16410
PL6.E3A0      #005=Z9EB$DML_STATEMENT File=Z9EB.:Z8A6TSI                         SAT 08/09/97 13:50 Page:387
        19 003272   003422 710000 19                 TRA     s:16410
        19 003273   003422 710000 19                 TRA     s:16410
        19 003274   003422 710000 19                 TRA     s:16410
        19 003275   003422 710000 19                 TRA     s:16410
        19 003276   003422 710000 19                 TRA     s:16410
        19 003277   003422 710000 19                 TRA     s:16410
        19 003300   003422 710000 19                 TRA     s:16410
        19 003301   003422 710000 19                 TRA     s:16410
        19 003302   003422 710000 19                 TRA     s:16410
        19 003303   003422 710000 19                 TRA     s:16410
        19 003304   003422 710000 19                 TRA     s:16410
        19 003305   003422 710000 19                 TRA     s:16410
        19 003306   003422 710000 19                 TRA     s:16410
        19 003307   003422 710000 19                 TRA     s:16410
        19 003310   003422 710000 19                 TRA     s:16410
        19 003311   003422 710000 19                 TRA     s:16410
        19 003312   003422 710000 19                 TRA     s:16410
        19 003313   003422 710000 19                 TRA     s:16410
        19 003314   003422 710000 19                 TRA     s:16410
        19 003315   003371 710000 19                 TRA     s:16403
        19 003316   003422 710000 19                 TRA     s:16410
        19 003317   003422 710000 19                 TRA     s:16410
        19 003320   003422 710000 19                 TRA     s:16410
        19 003321   003422 710000 19                 TRA     s:16410
        19 003322   003422 710000 19                 TRA     s:16410
        19 003323   003422 710000 19                 TRA     s:16410
        19 003324   003422 710000 19                 TRA     s:16410
        19 003325   003422 710000 19                 TRA     s:16410
        19 003326   003422 710000 19                 TRA     s:16410
        19 003327   003422 710000 19                 TRA     s:16410
        19 003330   003422 710000 19                 TRA     s:16410
        19 003331   003422 710000 19                 TRA     s:16410
        19 003332   003422 710000 19                 TRA     s:16410
        19 003333   003422 710000 19                 TRA     s:16410
        19 003334   003422 710000 19                 TRA     s:16410
        19 003335   003422 710000 19                 TRA     s:16410
        19 003336   003422 710000 19                 TRA     s:16410
PL6.E3A0      #005=Z9EB$DML_STATEMENT File=Z9EB.:Z8A6TSI                         SAT 08/09/97 13:50 Page:388
        19 003337   003422 710000 19                 TRA     s:16410
        19 003340   003422 710000 19                 TRA     s:16410
        19 003341   003422 710000 19                 TRA     s:16410
        19 003342   003422 710000 19                 TRA     s:16410
        19 003343   003422 710000 19                 TRA     s:16410
        19 003344   003422 710000 19                 TRA     s:16410
        19 003345   003422 710000 19                 TRA     s:16410
        19 003346   003422 710000 19                 TRA     s:16410
        19 003347   003422 710000 19                 TRA     s:16410
        19 003350   003422 710000 19                 TRA     s:16410
        19 003351   003422 710000 19                 TRA     s:16410
        19 003352   003422 710000 19                 TRA     s:16410
        19 003353   003422 710000 19                 TRA     s:16410
        19 003354   003422 710000 19                 TRA     s:16410
        19 003355   003422 710000 19                 TRA     s:16410
        19 003356   003422 710000 19                 TRA     s:16410
        19 003357   003422 710000 19                 TRA     s:16410
        19 003360   003422 710000 19                 TRA     s:16410
        19 003361   003422 710000 19                 TRA     s:16410
        19 003362   003422 710000 19                 TRA     s:16410
        19 003363   003422 710000 19                 TRA     s:16410
        19 003364   003422 710000 19                 TRA     s:16410
        19 003365   003422 710000 19                 TRA     s:16410
        19 003366   003422 710000 19                 TRA     s:16410
        19 003367   003422 710000 19                 TRA     s:16410
        19 003370   003371 710000 19                 TRA     s:16403

     1888    16401
     1889    16402    2           CASE(%RSV_WRD_PRIOR,%RSV_WRD_NEXT,%RSV_WRD_CURRENT);

     1890    16403    2               IF CODE_TYPE = %SET_CALL   THEN

  16403 19 003371   200175 236100                    LDQ     CODE_TYPE,,AUTO
        19 003372   000001 116007                    CMPQ    1,DL
        19 003373   003400 601000 19                 TNZ     s:16406

     1891    16404    2                   CODE = %DBFRS;
PL6.E3A0      #005=Z9EB$DML_STATEMENT File=Z9EB.:Z8A6TSI                         SAT 08/09/97 13:50 Page:389

  16404 19 003374   040100 100400                    MLR     fill='040'O
        19 003375   000002 000006 18                 ADSC9   2                        cn=0,n=6
        19 003376   200166 000006                    ADSC9   CODE,,AUTO               cn=0,n=6
        19 003377   003403 710000 19                 TRA     s:16407

     1892    16405    2               ELSE
     1893    16406    2                   CODE = %DBFRA;

  16406 19 003400   040100 100400                    MLR     fill='040'O
        19 003401   000006 000006 18                 ADSC9   6                        cn=0,n=6
        19 003402   200166 000006                    ADSC9   CODE,,AUTO               cn=0,n=6

     1894    16407    2               CALL FIND_RELATIVE(CODE,OPTION$,RECORD_ST$,REALM_SET_ST$,

  16407 19 003403   200016 631500                    EPPR1   RL_LX_ITEM,,AUTO
        19 003404   200260 451500                    STP1    OFFSET+16,,AUTO
        19 003405   200260 633500                    EPPR3   OFFSET+16,,AUTO
        19 003406   200225 453500                    STP3    @REALM_SET_ST$+1,,AUTO
        19 003407   200157 634500                    EPPR4   REALM_SET_ST$,,AUTO
        19 003410   200224 454500                    STP4    @RECORD_ST$+1,,AUTO
        19 003411   200152 635500                    EPPR5   RECORD_ST$,,AUTO
        19 003412   200223 455500                    STP5    @FIND_CONTROL$+1,,AUTO
        19 003413   200202 636500                    EPPR6   OPTION$,,AUTO
        19 003414   200222 456500                    STP6    @CODE+1,,AUTO
        19 003415   200166 637500                    EPPR7   CODE,,AUTO
        19 003416   200221 457500                    STP7    SET_LIST_CONTROL+3,,AUTO
        19 003417   000657 701000 19                 TSX1    FIND_RELATIVE
        19 003420   000000 011000                    NOP     0
        19 003421   003452 710000 19                 TRA     s:16418

     1895    16408    2                                                 ADDR(RL_LX_ITEM));
     1896    16409    2           CASE(ELSE);

     1897    16410    2               IF CODE_TYPE = %SET_CALL   THEN

  16410 19 003422   200175 236100                    LDQ     CODE_TYPE,,AUTO
PL6.E3A0      #005=Z9EB$DML_STATEMENT File=Z9EB.:Z8A6TSI                         SAT 08/09/97 13:50 Page:390
        19 003423   000001 116007                    CMPQ    1,DL
        19 003424   003431 601000 19                 TNZ     s:16413

     1898    16411    2                   CODE = %DBFAS;

  16411 19 003425   040100 100400                    MLR     fill='040'O
        19 003426   000010 000006 18                 ADSC9   8                        cn=0,n=6
        19 003427   200166 000006                    ADSC9   CODE,,AUTO               cn=0,n=6
        19 003430   003434 710000 19                 TRA     s:16414

     1899    16412    2               ELSE
     1900    16413    2                   CODE = %DBFAA;

  16413 19 003431   040100 100400                    MLR     fill='040'O
        19 003432   000012 000006 18                 ADSC9   10                       cn=0,n=6
        19 003433   200166 000006                    ADSC9   CODE,,AUTO               cn=0,n=6

     1901    16414    2               CALL FIND_OCCURRENCE(CODE,OPTION$,RECORD_ST$,REALM_SET_ST$,

  16414 19 003434   200016 631500                    EPPR1   RL_LX_ITEM,,AUTO
        19 003435   200261 451500                    STP1    OFFSET+17,,AUTO
        19 003436   200261 633500                    EPPR3   OFFSET+17,,AUTO
        19 003437   200225 453500                    STP3    @REALM_SET_ST$+1,,AUTO
        19 003440   200157 634500                    EPPR4   REALM_SET_ST$,,AUTO
        19 003441   200224 454500                    STP4    @RECORD_ST$+1,,AUTO
        19 003442   200152 635500                    EPPR5   RECORD_ST$,,AUTO
        19 003443   200223 455500                    STP5    @FIND_CONTROL$+1,,AUTO
        19 003444   200202 636500                    EPPR6   OPTION$,,AUTO
        19 003445   200222 456500                    STP6    @CODE+1,,AUTO
        19 003446   200166 637500                    EPPR7   CODE,,AUTO
        19 003447   200221 457500                    STP7    SET_LIST_CONTROL+3,,AUTO
        19 003450   001340 701000 19                 TSX1    FIND_OCCURRENCE
        19 003451   000000 011000                    NOP     0

     1902    16415    2                                                 ADDR(RL_LX_ITEM));
     1903    16416    2       END;     /*V*  CASE    */

PL6.E3A0      #005=Z9EB$DML_STATEMENT File=Z9EB.:Z8A6TSI                         SAT 08/09/97 13:50 Page:391
     1904    16417
     1905    16418    1       RETURN;

  16418 19 003452   000000 702200 xent               TSX2  ! X66_ARET

     1906    16419        %EJECT;
PL6.E3A0      #005=Z9EB$DML_STATEMENT File=Z9EB.:Z8A6TSI                         SAT 08/09/97 13:50 Page:392
     1907    16420        /*==============*/
     1908    16421    1     Z9EB$DB_FIND_CALC :  ENTRY  (RECORD_SELECTION$, RETENTION$);

  16421 19 003453   000000 700200 xent  Z9EB$DB_FIN* TSX0  ! X66_AUTO_2
        19 003454   000334 000002                    ZERO    220,2

     1909    16422        /*==============*/
     1910    16423
     1911    16424    1       RECORD$ = RECORD_SELECTION$ -> LX_LIST.TAIL$;

  16424 19 003455   200003 470500                    LDP0    @RECORD_SELECTION$,,AUTO
        19 003456   000000 471500                    LDP1    0,,PR0
        19 003457   100001 236100                    LDQ     1,,PR1
        19 003460   200150 756100                    STQ     RECORD$,,AUTO

     1912    16425    1       ERROR_FLAG = %FALSE;

  16425 19 003461   200213 450100                    STZ     ERROR_FLAG,,AUTO

     1913    16426
     1914    16427    1      IF RECORD$ -> LX_ITEM.B.ERROR    THEN

  16427 19 003462   200150 473500                    LDP3    RECORD$,,AUTO
        19 003463   300000 236100                    LDQ     0,,PR3
        19 003464   400000 316007                    CANQ    -131072,DL
        19 003465   003471 600000 19                 TZE     s:16433

     1915    16428    1          ERROR_FLAG = %TRUE;

  16428 19 003466   400000 236003                    LDQ     -131072,DU
        19 003467   200213 756100                    STQ     ERROR_FLAG,,AUTO
        19 003470   003530 710000 19                 TRA     s:16447

     1916    16429    1      ELSE
     1917    16430    2        DO;

     1918    16431               %FISH( TRIAD = RECORD$ -> LX_ETT_ITEM.ETT$, RTN = RECORD_ST$);
PL6.E3A0      #005=Z9EB$DML_STATEMENT File=Z9EB.:Z8A6TSI                         SAT 08/09/97 13:50 Page:393

  16433 19 003471   300001 236100                    LDQ     1,,PR3
        19 003472   200152 756100                    STQ     RECORD_ST$,,AUTO

  16434 19 003473   200152 471500                    LDP1    RECORD_ST$,,AUTO
        19 003474   100000 220100                    LDX0    0,,PR1
        19 003475   000751 100003                    CMPX0   489,DU
        19 003476   003506 603000 19                 TRC     s:16439

  16435 19 003477   200152 470500                    LDP0    RECORD_ST$,,AUTO
        19 003500   000001 236100                    LDQ     1,,PR0
        19 003501   200152 756100                    STQ     RECORD_ST$,,AUTO

  16436 19 003502   200152 470500                    LDP0    RECORD_ST$,,AUTO
        19 003503   000000 220100                    LDX0    0,,PR0
        19 003504   000751 100003                    CMPX0   489,DU
        19 003505   003477 602000 19                 TNC     s:16435

     1919    16439    2          IF RECORD_ST$ -> SCALAR.B.DML_TYPE ~= %RECORD    THEN

  16439 19 003506   200152 470500                    LDP0    RECORD_ST$,,AUTO
        19 003507   000003 236100                    LDQ     3,,PR0
        19 003510   160000 376007                    ANQ     57344,DL
        19 003511   060000 116007                    CMPQ    24576,DL
        19 003512   003530 600000 19                 TZE     s:16447

     1920    16440    3            DO;

     1921    16441    3              CALL Z8AE$ERROR(%E$ITEM_NOT_A_RECORD,

  16441 19 003513   200150 236100                    LDQ     RECORD$,,AUTO
        19 003514   000006 036003                    ADLQ    6,DU
        19 003515   200244 756100                    STQ     OFFSET+4,,AUTO
        19 003516   200150 236100                    LDQ     RECORD$,,AUTO
        19 003517   000005 036003                    ADLQ    5,DU
        19 003520   000021 235000 20                 LDA     17
        19 003521   200242 757100                    STAQ    OFFSET+2,,AUTO
PL6.E3A0      #005=Z9EB$DML_STATEMENT File=Z9EB.:Z8A6TSI                         SAT 08/09/97 13:50 Page:394
        19 003522   200242 630500                    EPPR0   OFFSET+2,,AUTO
        19 003523   000004 631400 20                 EPPR1   4
        19 003524   000000 701000 xent               TSX1    Z8AE$ERROR
        19 003525   000000 011000                    NOP     0

     1922    16442    3                              RECORD$ -> LX_ITEM.LINE,
     1923    16443    3                              RECORD$ -> LX_ITEM.COLUMN);
     1924    16444    3              ERROR_FLAG = %TRUE;

  16444 19 003526   400000 236003                    LDQ     -131072,DU
        19 003527   200213 756100                    STQ     ERROR_FLAG,,AUTO

     1925    16445    3            END;

     1926    16446    2         END;

     1927    16447    1      CALL RETENTION(RETENTION$,ADDR(RL_LX_ITEM));

  16447 19 003530   200016 630500                    EPPR0   RL_LX_ITEM,,AUTO
        19 003531   200262 450500                    STP0    OFFSET+18,,AUTO
        19 003532   200262 631500                    EPPR1   OFFSET+18,,AUTO
        19 003533   200222 451500                    STP1    @CODE+1,,AUTO
        19 003534   200004 236100                    LDQ     @RETENTION$,,AUTO
        19 003535   200221 756100                    STQ     SET_LIST_CONTROL+3,,AUTO
        19 003536   000345 701000 19                 TSX1    RETENTION
        19 003537   000000 011000                    NOP     0

     1928    16448
     1929    16449    1      IF ERROR_FLAG = %FALSE         THEN

  16449 19 003540   200213 234100                    SZN     ERROR_FLAG,,AUTO
        19 003541   003616 604000 19                 TMI     s:16470

     1930    16450    2        DO;

     1931    16451    2           IF RECORD_ST$ -> SCALAR.LTS$ -> DML_REC.RECORD_INFO.LOCATION_MODE_CALC = %
             16451                    FALSE  THEN
PL6.E3A0      #005=Z9EB$DML_STATEMENT File=Z9EB.:Z8A6TSI                         SAT 08/09/97 13:50 Page:395

  16451 19 003542   200152 470500                    LDP0    RECORD_ST$,,AUTO
        19 003543   000005 471500                    LDP1    5,,PR0
        19 003544   100001 234100                    SZN     1,,PR1
        19 003545   003563 604000 19                 TMI     s:16459

     1932    16452    3             DO;

     1933    16453    3               CALL Z8AE$ERROR(%E$LOCATION_MODE_NOT_CALC,

  16453 19 003546   200150 236100                    LDQ     RECORD$,,AUTO
        19 003547   000006 036003                    ADLQ    6,DU
        19 003550   200244 756100                    STQ     OFFSET+4,,AUTO
        19 003551   200150 236100                    LDQ     RECORD$,,AUTO
        19 003552   000005 036003                    ADLQ    5,DU
        19 003553   000035 235000 20                 LDA     29
        19 003554   200242 757100                    STAQ    OFFSET+2,,AUTO
        19 003555   200242 630500                    EPPR0   OFFSET+2,,AUTO
        19 003556   000004 631400 20                 EPPR1   4
        19 003557   000000 701000 xent               TSX1    Z8AE$ERROR
        19 003560   000000 011000                    NOP     0

     1934    16454    3                               RECORD$ -> LX_ITEM.LINE,
     1935    16455    3                               RECORD$ -> LX_ITEM.COLUMN);
     1936    16456    3               ERROR_FLAG = %TRUE;

  16456 19 003561   400000 236003                    LDQ     -131072,DU
        19 003562   200213 756100                    STQ     ERROR_FLAG,,AUTO

     1937    16457    3             END;

     1938    16458
     1939    16459    2           IF RECORD_ST$ -> SCALAR.B.DML_RVA = %FALSE     THEN

  16459 19 003563   200152 470500                    LDP0    RECORD_ST$,,AUTO
        19 003564   000003 236100                    LDQ     3,,PR0
        19 003565   002000 316007                    CANQ    1024,DL
PL6.E3A0      #005=Z9EB$DML_STATEMENT File=Z9EB.:Z8A6TSI                         SAT 08/09/97 13:50 Page:396
        19 003566   003601 601000 19                 TNZ     s:16465

     1940    16460    3             DO;

     1941    16461    3               RVA_TYPE = %RVA_RECORD;

  16461 19 003567   000002 220003                    LDX0    2,DU
        19 003570   200147 740100                    STX0    RVA_TYPE,,AUTO

     1942    16462    3               CALL Z9EB$BUILD_RVA_TABLE( RECORD_ST$, RVA_TYPE);

  16462 19 003571   200147 631500                    EPPR1   RVA_TYPE,,AUTO
        19 003572   200243 451500                    STP1    OFFSET+3,,AUTO
        19 003573   200152 633500                    EPPR3   RECORD_ST$,,AUTO
        19 003574   200242 453500                    STP3    OFFSET+2,,AUTO
        19 003575   200242 630500                    EPPR0   OFFSET+2,,AUTO
        19 003576   000002 631400 20                 EPPR1   2
        19 003577   000000 701000 xent               TSX1    Z9EB$BUILD_RVA_TABLE
        19 003600   000000 011000                    NOP     0

     1943    16463    3             END;

     1944    16464
     1945    16465    2           IF RECORD_SELECTION$ -> LX_LIST.HEAD$ -> LX_ITEM.SYMBOL = %RSV_WRD_ANY THEN

  16465 19 003601   200003 470500                    LDP0    @RECORD_SELECTION$,,AUTO
        19 003602   000000 471500                    LDP1    0,,PR0
        19 003603   100004 473500                    LDP3    4,,PR1
        19 003604   300003 235100                    LDA     3,,PR3
        19 003605   000062 115007                    CMPA    50,DL
        19 003606   003613 601000 19                 TNZ     s:16468

     1946    16466    2               CODE = %DBFDC;

  16466 19 003607   040100 100400                    MLR     fill='040'O
        19 003610   000014 000006 18                 ADSC9   12                       cn=0,n=6
        19 003611   200166 000006                    ADSC9   CODE,,AUTO               cn=0,n=6
PL6.E3A0      #005=Z9EB$DML_STATEMENT File=Z9EB.:Z8A6TSI                         SAT 08/09/97 13:50 Page:397
        19 003612   003616 710000 19                 TRA     s:16470

     1947    16467    2           ELSE
     1948    16468    2               CODE = %DBFCD;            /*V* %RSV_WRD_DUPLICATE  */

  16468 19 003613   040100 100400                    MLR     fill='040'O
        19 003614   000016 000006 18                 ADSC9   14                       cn=0,n=6
        19 003615   200166 000006                    ADSC9   CODE,,AUTO               cn=0,n=6

     1949    16469    2        END;

     1950    16470    1       IF ERROR_FLAG = %FALSE           THEN

  16470 19 003616   200213 234100                    SZN     ERROR_FLAG,,AUTO
        19 003617   003665 604000 19                 TMI     s:16483

     1951    16471    2         DO;

     1952    16472
     1953    16473    2           ARG_COUNT = 3 + ADDR(RL_LX_ITEM) -> LX_LIST.COUNT;

  16473 19 003620   200020 235100                    LDA     RL_LX_ITEM+2,,AUTO
        19 003621   000003 035007                    ADLA    3,DL
        19 003622   200146 755100                    STA     ARG_COUNT,,AUTO

     1954    16474    2           CALL Z8EU$CREATE_IDENTIFIER_FROM_ST(O1COM.DML_IA$,ADDR(IA_LX_ITEM));

  16474 19 003623   200006 630500                    EPPR0   IA_LX_ITEM,,AUTO
        19 003624   200242 450500                    STP0    OFFSET+2,,AUTO
        19 003625   200242 631500                    EPPR1   OFFSET+2,,AUTO
        19 003626   200245 451500                    STP1    OFFSET+5,,AUTO
        19 003627   000013 236000 20                 LDQ     11
        19 003630   200244 756100                    STQ     OFFSET+4,,AUTO
        19 003631   200244 630500                    EPPR0   OFFSET+4,,AUTO
        19 003632   000002 631400 20                 EPPR1   2
        19 003633   000000 701000 xent               TSX1    Z8EU$CREATE_IDENTIFIER_FROM_ST
        19 003634   000000 011000                    NOP     0
PL6.E3A0      #005=Z9EB$DML_STATEMENT File=Z9EB.:Z8A6TSI                         SAT 08/09/97 13:50 Page:398

     1955    16475
     1956    16476    2           CALL BUILD_PARM( RECORD_ST$, ADDR(RC_LX_ITEM));

  16476 19 003635   200026 630500                    EPPR0   RC_LX_ITEM,,AUTO
        19 003636   200263 450500                    STP0    OFFSET+19,,AUTO
        19 003637   200263 631500                    EPPR1   OFFSET+19,,AUTO
        19 003640   200236 451500                    STP1    PTR$+1,,AUTO
        19 003641   200152 633500                    EPPR3   RECORD_ST$,,AUTO
        19 003642   200235 453500                    STP3    @ITEM$+1,,AUTO
        19 003643   000107 701000 19                 TSX1    BUILD_PARM
        19 003644   000000 011000                    NOP     0

     1957    16477    2           ADDR(IA_LX_ITEM) -> LX_ITEM.LINK = ADDR(RC_LX_ITEM);

  16477 19 003645   200026 630500                    EPPR0   RC_LX_ITEM,,AUTO
        19 003646   200015 450500                    STP0    IA_LX_ITEM+7,,AUTO

     1958    16478    2           ADDR(RC_LX_ITEM) -> LX_ITEM.LINK = ADDR(RL_LX_ITEM);

  16478 19 003647   200016 631500                    EPPR1   RL_LX_ITEM,,AUTO
        19 003650   200035 451500                    STP1    RC_LX_ITEM+7,,AUTO

     1959    16479
     1960    16480    2           CALL Z9EB$BUILD_CODE(CODE,ARG_COUNT,ADDR(IA_LX_ITEM));

  16480 19 003651   200006 633500                    EPPR3   IA_LX_ITEM,,AUTO
        19 003652   200242 453500                    STP3    OFFSET+2,,AUTO
        19 003653   200242 634500                    EPPR4   OFFSET+2,,AUTO
        19 003654   200245 454500                    STP4    OFFSET+5,,AUTO
        19 003655   200146 635500                    EPPR5   ARG_COUNT,,AUTO
        19 003656   200244 455500                    STP5    OFFSET+4,,AUTO
        19 003657   200166 636500                    EPPR6   CODE,,AUTO
        19 003660   200243 456500                    STP6    OFFSET+3,,AUTO
        19 003661   200243 630500                    EPPR0   OFFSET+3,,AUTO
        19 003662   000004 631400 20                 EPPR1   4
        19 003663   000000 701000 xent               TSX1    Z9EB$BUILD_CODE
PL6.E3A0      #005=Z9EB$DML_STATEMENT File=Z9EB.:Z8A6TSI                         SAT 08/09/97 13:50 Page:399
        19 003664   000000 011000                    NOP     0

     1961    16481    2         END;

     1962    16482
     1963    16483    1       RETURN;

  16483 19 003665   000000 702200 xent               TSX2  ! X66_ARET

     1964    16484        %EJECT;
PL6.E3A0      #005=Z9EB$DML_STATEMENT File=Z9EB.:Z8A6TSI                         SAT 08/09/97 13:50 Page:400
     1965    16485        /*===============*/
     1966    16486    1     Z9EB$FIND_OWNER :  ENTRY  (RECORD_SELECTION$, RETENTION$);

  16486 19 003666   000000 700200 xent  Z9EB$FIND_O* TSX0  ! X66_AUTO_2
        19 003667   000334 000002                    ZERO    220,2

     1967    16487        /*===============*/
     1968    16488
     1969    16489    1       SET$ = RECORD_SELECTION$ -> LX_LIST.HEAD$;

  16489 19 003670   200003 470500                    LDP0    @RECORD_SELECTION$,,AUTO
        19 003671   000000 471500                    LDP1    0,,PR0
        19 003672   100004 236100                    LDQ     4,,PR1
        19 003673   200160 756100                    STQ     SET$,,AUTO

     1970    16490    1       ERROR_FLAG = %FALSE;

  16490 19 003674   200213 450100                    STZ     ERROR_FLAG,,AUTO

     1971    16491
     1972    16492    1       IF SET$ -> LX_ITEM.B.ERROR       THEN

  16492 19 003675   200160 473500                    LDP3    SET$,,AUTO
        19 003676   300000 236100                    LDQ     0,,PR3
        19 003677   400000 316007                    CANQ    -131072,DL
        19 003700   003704 600000 19                 TZE     s:16498

     1973    16493    1           ERROR_FLAG = %TRUE;

  16493 19 003701   400000 236003                    LDQ     -131072,DU
        19 003702   200213 756100                    STQ     ERROR_FLAG,,AUTO
        19 003703   003760 710000 19                 TRA     s:16519

     1974    16494    1       ELSE
     1975    16495    2         DO;

     1976    16496               %FISH( TRIAD = SET$ -> LX_ETT_ITEM.ETT$, RTN = SET_ST$);
PL6.E3A0      #005=Z9EB$DML_STATEMENT File=Z9EB.:Z8A6TSI                         SAT 08/09/97 13:50 Page:401

  16498 19 003704   300001 236100                    LDQ     1,,PR3
        19 003705   200163 756100                    STQ     SET_ST$,,AUTO

  16499 19 003706   200163 471500                    LDP1    SET_ST$,,AUTO
        19 003707   100000 220100                    LDX0    0,,PR1
        19 003710   000751 100003                    CMPX0   489,DU
        19 003711   003721 603000 19                 TRC     s:16504

  16500 19 003712   200163 470500                    LDP0    SET_ST$,,AUTO
        19 003713   000001 236100                    LDQ     1,,PR0
        19 003714   200163 756100                    STQ     SET_ST$,,AUTO

  16501 19 003715   200163 470500                    LDP0    SET_ST$,,AUTO
        19 003716   000000 220100                    LDX0    0,,PR0
        19 003717   000751 100003                    CMPX0   489,DU
        19 003720   003712 602000 19                 TNC     s:16500

     1977    16504    2          IF SET_ST$ -> DML_ITEM.ID ~= %DML_SET         THEN

  16504 19 003721   200163 470500                    LDP0    SET_ST$,,AUTO
        19 003722   000000 220100                    LDX0    0,,PR0
        19 003723   000753 100003                    CMPX0   491,DU
        19 003724   003743 600000 19                 TZE     s:16512

     1978    16505    3            DO;

     1979    16506    3              CALL Z8AE$ERROR(%E$ITEM_NOT_A_SET,

  16506 19 003725   200160 236100                    LDQ     SET$,,AUTO
        19 003726   000006 036003                    ADLQ    6,DU
        19 003727   200244 756100                    STQ     OFFSET+4,,AUTO
        19 003730   200160 236100                    LDQ     SET$,,AUTO
        19 003731   000005 036003                    ADLQ    5,DU
        19 003732   000007 235000 20                 LDA     7
        19 003733   200242 757100                    STAQ    OFFSET+2,,AUTO
        19 003734   200242 630500                    EPPR0   OFFSET+2,,AUTO
PL6.E3A0      #005=Z9EB$DML_STATEMENT File=Z9EB.:Z8A6TSI                         SAT 08/09/97 13:50 Page:402
        19 003735   000004 631400 20                 EPPR1   4
        19 003736   000000 701000 xent               TSX1    Z8AE$ERROR
        19 003737   000000 011000                    NOP     0

     1980    16507    3                              SET$ -> LX_ITEM.LINE,
     1981    16508    3                              SET$ -> LX_ITEM.COLUMN);
     1982    16509    3              ERROR_FLAG = %TRUE;

  16509 19 003740   400000 236003                    LDQ     -131072,DU
        19 003741   200213 756100                    STQ     ERROR_FLAG,,AUTO

     1983    16510    3            END;

  16510 19 003742   003760 710000 19                 TRA     s:16519

     1984    16511    2          ELSE
     1985    16512    2              IF SET_ST$ -> SCALAR.B.DML_RVA = %FALSE     THEN

  16512 19 003743   000003 236100                    LDQ     3,,PR0
        19 003744   002000 316007                    CANQ    1024,DL
        19 003745   003760 601000 19                 TNZ     s:16519

     1986    16513    3                DO;

     1987    16514    3                  RVA_TYPE = %RVA_SET;

  16514 19 003746   000001 221003                    LDX1    1,DU
        19 003747   200147 741100                    STX1    RVA_TYPE,,AUTO

     1988    16515    3                  CALL Z9EB$BUILD_RVA_TABLE( SET_ST$, RVA_TYPE);

  16515 19 003750   200147 631500                    EPPR1   RVA_TYPE,,AUTO
        19 003751   200243 451500                    STP1    OFFSET+3,,AUTO
        19 003752   200163 633500                    EPPR3   SET_ST$,,AUTO
        19 003753   200242 453500                    STP3    OFFSET+2,,AUTO
        19 003754   200242 630500                    EPPR0   OFFSET+2,,AUTO
        19 003755   000002 631400 20                 EPPR1   2
PL6.E3A0      #005=Z9EB$DML_STATEMENT File=Z9EB.:Z8A6TSI                         SAT 08/09/97 13:50 Page:403
        19 003756   000000 701000 xent               TSX1    Z9EB$BUILD_RVA_TABLE
        19 003757   000000 011000                    NOP     0

     1989    16516    3                END;

     1990    16517    2         END;

     1991    16518
     1992    16519    1       CALL RETENTION(RETENTION$,ADDR(RL_LX_ITEM));

  16519 19 003760   200016 630500                    EPPR0   RL_LX_ITEM,,AUTO
        19 003761   200264 450500                    STP0    OFFSET+20,,AUTO
        19 003762   200264 631500                    EPPR1   OFFSET+20,,AUTO
        19 003763   200222 451500                    STP1    @CODE+1,,AUTO
        19 003764   200004 236100                    LDQ     @RETENTION$,,AUTO
        19 003765   200221 756100                    STQ     SET_LIST_CONTROL+3,,AUTO
        19 003766   000345 701000 19                 TSX1    RETENTION
        19 003767   000000 011000                    NOP     0

     1993    16520
     1994    16521    1       IF ERROR_FLAG = %TRUE            THEN

  16521 19 003770   200213 234100                    SZN     ERROR_FLAG,,AUTO
        19 003771   003773 605000 19                 TPL     s:16524

     1995    16522    1           RETURN;

  16522 19 003772   000000 702200 xent               TSX2  ! X66_ARET

     1996    16523
     1997    16524    1       ARG_COUNT = 3 + ADDR(RL_LX_ITEM) -> LX_LIST.COUNT;

  16524 19 003773   200020 235100                    LDA     RL_LX_ITEM+2,,AUTO
        19 003774   000003 035007                    ADLA    3,DL
        19 003775   200146 755100                    STA     ARG_COUNT,,AUTO

     1998    16525    1       CALL Z8EU$CREATE_IDENTIFIER_FROM_ST(O1COM.DML_IA$,ADDR(IA_LX_ITEM));
PL6.E3A0      #005=Z9EB$DML_STATEMENT File=Z9EB.:Z8A6TSI                         SAT 08/09/97 13:50 Page:404

  16525 19 003776   200006 630500                    EPPR0   IA_LX_ITEM,,AUTO
        19 003777   200242 450500                    STP0    OFFSET+2,,AUTO
        19 004000   200242 631500                    EPPR1   OFFSET+2,,AUTO
        19 004001   200245 451500                    STP1    OFFSET+5,,AUTO
        19 004002   000013 236000 20                 LDQ     11
        19 004003   200244 756100                    STQ     OFFSET+4,,AUTO
        19 004004   200244 630500                    EPPR0   OFFSET+4,,AUTO
        19 004005   000002 631400 20                 EPPR1   2
        19 004006   000000 701000 xent               TSX1    Z8EU$CREATE_IDENTIFIER_FROM_ST
        19 004007   000000 011000                    NOP     0

     1999    16526
     2000    16527    1       CALL BUILD_PARM( SET_ST$, ADDR(RC_LX_ITEM));

  16527 19 004010   200026 630500                    EPPR0   RC_LX_ITEM,,AUTO
        19 004011   200265 450500                    STP0    OFFSET+21,,AUTO
        19 004012   200265 631500                    EPPR1   OFFSET+21,,AUTO
        19 004013   200236 451500                    STP1    PTR$+1,,AUTO
        19 004014   200163 633500                    EPPR3   SET_ST$,,AUTO
        19 004015   200235 453500                    STP3    @ITEM$+1,,AUTO
        19 004016   000107 701000 19                 TSX1    BUILD_PARM
        19 004017   000000 011000                    NOP     0

     2001    16528    1       ADDR(IA_LX_ITEM) -> LX_ITEM.LINK = ADDR(RC_LX_ITEM);

  16528 19 004020   200026 630500                    EPPR0   RC_LX_ITEM,,AUTO
        19 004021   200015 450500                    STP0    IA_LX_ITEM+7,,AUTO

     2002    16529    1       ADDR(RC_LX_ITEM) -> LX_ITEM.LINK = ADDR(RL_LX_ITEM);

  16529 19 004022   200016 631500                    EPPR1   RL_LX_ITEM,,AUTO
        19 004023   200035 451500                    STP1    RC_LX_ITEM+7,,AUTO

     2003    16530
     2004    16531    1       CALL Z9EB$BUILD_CODE(%DBFOR,ARG_COUNT,ADDR(IA_LX_ITEM));

PL6.E3A0      #005=Z9EB$DML_STATEMENT File=Z9EB.:Z8A6TSI                         SAT 08/09/97 13:50 Page:405
  16531 19 004024   200006 633500                    EPPR3   IA_LX_ITEM,,AUTO
        19 004025   200242 453500                    STP3    OFFSET+2,,AUTO
        19 004026   200242 634500                    EPPR4   OFFSET+2,,AUTO
        19 004027   200245 454500                    STP4    OFFSET+5,,AUTO
        19 004030   200146 635500                    EPPR5   ARG_COUNT,,AUTO
        19 004031   200244 455500                    STP5    OFFSET+4,,AUTO
        19 004032   000036 236000 20                 LDQ     30
        19 004033   200243 756100                    STQ     OFFSET+3,,AUTO
        19 004034   200243 630500                    EPPR0   OFFSET+3,,AUTO
        19 004035   000004 631400 20                 EPPR1   4
        19 004036   000000 701000 xent               TSX1    Z9EB$BUILD_CODE
        19 004037   000000 011000                    NOP     0

     2005    16532
     2006    16533    1       RETURN;

  16533 19 004040   000000 702200 xent               TSX2  ! X66_ARET

     2007    16534        %EJECT;
PL6.E3A0      #005=Z9EB$DML_STATEMENT File=Z9EB.:Z8A6TSI                         SAT 08/09/97 13:50 Page:406
     2008    16535        /*==============*/
     2009    16536    1     Z9EB$DML_PRCLC_STMNT :  ENTRY  (RECORD_SELECTION$, RETENTION$);

  16536 19 004041   000000 700200 xent  Z9EB$DML_PR* TSX0  ! X66_AUTO_2
        19 004042   000334 000002                    ZERO    220,2

     2010    16537        /*==============*/
     2011    16538
     2012    16539    1       RECORD$ = RECORD_SELECTION$;

  16539 19 004043   200003 470500                    LDP0    @RECORD_SELECTION$,,AUTO
        19 004044   000000 236100                    LDQ     0,,PR0
        19 004045   200150 756100                    STQ     RECORD$,,AUTO

     2013    16540    1       ERROR_FLAG = %FALSE;

  16540 19 004046   200213 450100                    STZ     ERROR_FLAG,,AUTO

     2014    16541
     2015    16542    1      IF RECORD$ -> LX_ITEM.B.ERROR    THEN

  16542 19 004047   200150 471500                    LDP1    RECORD$,,AUTO
        19 004050   100000 236100                    LDQ     0,,PR1
        19 004051   400000 316007                    CANQ    -131072,DL
        19 004052   004056 600000 19                 TZE     s:16548

     2016    16543    1          ERROR_FLAG = %TRUE;

  16543 19 004053   400000 236003                    LDQ     -131072,DU
        19 004054   200213 756100                    STQ     ERROR_FLAG,,AUTO
        19 004055   004115 710000 19                 TRA     s:16562

     2017    16544    1      ELSE
     2018    16545    2        DO;

     2019    16546               %FISH( TRIAD = RECORD$ -> LX_ETT_ITEM.ETT$, RTN = RECORD_ST$);

PL6.E3A0      #005=Z9EB$DML_STATEMENT File=Z9EB.:Z8A6TSI                         SAT 08/09/97 13:50 Page:407
  16548 19 004056   100001 236100                    LDQ     1,,PR1
        19 004057   200152 756100                    STQ     RECORD_ST$,,AUTO

  16549 19 004060   200152 473500                    LDP3    RECORD_ST$,,AUTO
        19 004061   300000 220100                    LDX0    0,,PR3
        19 004062   000751 100003                    CMPX0   489,DU
        19 004063   004073 603000 19                 TRC     s:16554

  16550 19 004064   200152 470500                    LDP0    RECORD_ST$,,AUTO
        19 004065   000001 236100                    LDQ     1,,PR0
        19 004066   200152 756100                    STQ     RECORD_ST$,,AUTO

  16551 19 004067   200152 470500                    LDP0    RECORD_ST$,,AUTO
        19 004070   000000 220100                    LDX0    0,,PR0
        19 004071   000751 100003                    CMPX0   489,DU
        19 004072   004064 602000 19                 TNC     s:16550

     2020    16554    2          IF RECORD_ST$ -> SCALAR.B.DML_TYPE ~= %RECORD    THEN

  16554 19 004073   200152 470500                    LDP0    RECORD_ST$,,AUTO
        19 004074   000003 236100                    LDQ     3,,PR0
        19 004075   160000 376007                    ANQ     57344,DL
        19 004076   060000 116007                    CMPQ    24576,DL
        19 004077   004115 600000 19                 TZE     s:16562

     2021    16555    3            DO;

     2022    16556    3              CALL Z8AE$ERROR(%E$ITEM_NOT_A_RECORD,

  16556 19 004100   200150 236100                    LDQ     RECORD$,,AUTO
        19 004101   000006 036003                    ADLQ    6,DU
        19 004102   200244 756100                    STQ     OFFSET+4,,AUTO
        19 004103   200150 236100                    LDQ     RECORD$,,AUTO
        19 004104   000005 036003                    ADLQ    5,DU
        19 004105   000021 235000 20                 LDA     17
        19 004106   200242 757100                    STAQ    OFFSET+2,,AUTO
        19 004107   200242 630500                    EPPR0   OFFSET+2,,AUTO
PL6.E3A0      #005=Z9EB$DML_STATEMENT File=Z9EB.:Z8A6TSI                         SAT 08/09/97 13:50 Page:408
        19 004110   000004 631400 20                 EPPR1   4
        19 004111   000000 701000 xent               TSX1    Z8AE$ERROR
        19 004112   000000 011000                    NOP     0

     2023    16557    3                              RECORD$ -> LX_ITEM.LINE,
     2024    16558    3                              RECORD$ -> LX_ITEM.COLUMN);
     2025    16559    3              ERROR_FLAG = %TRUE;

  16559 19 004113   400000 236003                    LDQ     -131072,DU
        19 004114   200213 756100                    STQ     ERROR_FLAG,,AUTO

     2026    16560    3            END;

     2027    16561    2         END;

     2028    16562    1      CALL RETENTION(RETENTION$,ADDR(RL_LX_ITEM));

  16562 19 004115   200016 630500                    EPPR0   RL_LX_ITEM,,AUTO
        19 004116   200266 450500                    STP0    OFFSET+22,,AUTO
        19 004117   200266 631500                    EPPR1   OFFSET+22,,AUTO
        19 004120   200222 451500                    STP1    @CODE+1,,AUTO
        19 004121   200004 236100                    LDQ     @RETENTION$,,AUTO
        19 004122   200221 756100                    STQ     SET_LIST_CONTROL+3,,AUTO
        19 004123   000345 701000 19                 TSX1    RETENTION
        19 004124   000000 011000                    NOP     0

     2029    16563
     2030    16564    1      IF ERROR_FLAG = %FALSE         THEN

  16564 19 004125   200213 234100                    SZN     ERROR_FLAG,,AUTO
        19 004126   004171 604000 19                 TMI     s:16582

     2031    16565    2        DO;

     2032    16566    2           IF RECORD_ST$ -> SCALAR.LTS$ -> DML_REC.RECORD_INFO.LOCATION_MODE_CALC = %
             16566                    FALSE  THEN

PL6.E3A0      #005=Z9EB$DML_STATEMENT File=Z9EB.:Z8A6TSI                         SAT 08/09/97 13:50 Page:409
  16566 19 004127   200152 470500                    LDP0    RECORD_ST$,,AUTO
        19 004130   000005 471500                    LDP1    5,,PR0
        19 004131   100001 234100                    SZN     1,,PR1
        19 004132   004150 604000 19                 TMI     s:16574

     2033    16567    3             DO;

     2034    16568    3               CALL Z8AE$ERROR(%E$LOCATION_MODE_NOT_CALC,

  16568 19 004133   200150 236100                    LDQ     RECORD$,,AUTO
        19 004134   000006 036003                    ADLQ    6,DU
        19 004135   200244 756100                    STQ     OFFSET+4,,AUTO
        19 004136   200150 236100                    LDQ     RECORD$,,AUTO
        19 004137   000005 036003                    ADLQ    5,DU
        19 004140   000035 235000 20                 LDA     29
        19 004141   200242 757100                    STAQ    OFFSET+2,,AUTO
        19 004142   200242 630500                    EPPR0   OFFSET+2,,AUTO
        19 004143   000004 631400 20                 EPPR1   4
        19 004144   000000 701000 xent               TSX1    Z8AE$ERROR
        19 004145   000000 011000                    NOP     0

     2035    16569    3                               RECORD$ -> LX_ITEM.LINE,
     2036    16570    3                               RECORD$ -> LX_ITEM.COLUMN);
     2037    16571    3               ERROR_FLAG = %TRUE;

  16571 19 004146   400000 236003                    LDQ     -131072,DU
        19 004147   200213 756100                    STQ     ERROR_FLAG,,AUTO

     2038    16572    3             END;

     2039    16573
     2040    16574    2           IF RECORD_ST$ -> SCALAR.B.DML_RVA = %FALSE     THEN

  16574 19 004150   200152 470500                    LDP0    RECORD_ST$,,AUTO
        19 004151   000003 236100                    LDQ     3,,PR0
        19 004152   002000 316007                    CANQ    1024,DL
        19 004153   004166 601000 19                 TNZ     s:16580
PL6.E3A0      #005=Z9EB$DML_STATEMENT File=Z9EB.:Z8A6TSI                         SAT 08/09/97 13:50 Page:410

     2041    16575    3             DO;

     2042    16576    3               RVA_TYPE = %RVA_RECORD;

  16576 19 004154   000002 220003                    LDX0    2,DU
        19 004155   200147 740100                    STX0    RVA_TYPE,,AUTO

     2043    16577    3               CALL Z9EB$BUILD_RVA_TABLE( RECORD_ST$, RVA_TYPE);

  16577 19 004156   200147 631500                    EPPR1   RVA_TYPE,,AUTO
        19 004157   200243 451500                    STP1    OFFSET+3,,AUTO
        19 004160   200152 633500                    EPPR3   RECORD_ST$,,AUTO
        19 004161   200242 453500                    STP3    OFFSET+2,,AUTO
        19 004162   200242 630500                    EPPR0   OFFSET+2,,AUTO
        19 004163   000002 631400 20                 EPPR1   2
        19 004164   000000 701000 xent               TSX1    Z9EB$BUILD_RVA_TABLE
        19 004165   000000 011000                    NOP     0

     2044    16578    3             END;

     2045    16579
     2046    16580    2               CODE = %DBHSH;

  16580 19 004166   040100 100400                    MLR     fill='040'O
        19 004167   000022 000006 18                 ADSC9   18                       cn=0,n=6
        19 004170   200166 000006                    ADSC9   CODE,,AUTO               cn=0,n=6

     2047    16581    2        END;

     2048    16582    1       IF ERROR_FLAG = %FALSE           THEN

  16582 19 004171   200213 234100                    SZN     ERROR_FLAG,,AUTO
        19 004172   004240 604000 19                 TMI     s:16595

     2049    16583    2         DO;

PL6.E3A0      #005=Z9EB$DML_STATEMENT File=Z9EB.:Z8A6TSI                         SAT 08/09/97 13:50 Page:411
     2050    16584
     2051    16585    2           ARG_COUNT = 3 + ADDR(RL_LX_ITEM) -> LX_LIST.COUNT;

  16585 19 004173   200020 235100                    LDA     RL_LX_ITEM+2,,AUTO
        19 004174   000003 035007                    ADLA    3,DL
        19 004175   200146 755100                    STA     ARG_COUNT,,AUTO

     2052    16586    2           CALL Z8EU$CREATE_IDENTIFIER_FROM_ST(O1COM.DML_IA$,ADDR(IA_LX_ITEM));

  16586 19 004176   200006 630500                    EPPR0   IA_LX_ITEM,,AUTO
        19 004177   200242 450500                    STP0    OFFSET+2,,AUTO
        19 004200   200242 631500                    EPPR1   OFFSET+2,,AUTO
        19 004201   200245 451500                    STP1    OFFSET+5,,AUTO
        19 004202   000013 236000 20                 LDQ     11
        19 004203   200244 756100                    STQ     OFFSET+4,,AUTO
        19 004204   200244 630500                    EPPR0   OFFSET+4,,AUTO
        19 004205   000002 631400 20                 EPPR1   2
        19 004206   000000 701000 xent               TSX1    Z8EU$CREATE_IDENTIFIER_FROM_ST
        19 004207   000000 011000                    NOP     0

     2053    16587
     2054    16588    2           CALL BUILD_PARM( RECORD_ST$, ADDR(RC_LX_ITEM));

  16588 19 004210   200026 630500                    EPPR0   RC_LX_ITEM,,AUTO
        19 004211   200267 450500                    STP0    OFFSET+23,,AUTO
        19 004212   200267 631500                    EPPR1   OFFSET+23,,AUTO
        19 004213   200236 451500                    STP1    PTR$+1,,AUTO
        19 004214   200152 633500                    EPPR3   RECORD_ST$,,AUTO
        19 004215   200235 453500                    STP3    @ITEM$+1,,AUTO
        19 004216   000107 701000 19                 TSX1    BUILD_PARM
        19 004217   000000 011000                    NOP     0

     2055    16589    2           ADDR(IA_LX_ITEM) -> LX_ITEM.LINK = ADDR(RC_LX_ITEM);

  16589 19 004220   200026 630500                    EPPR0   RC_LX_ITEM,,AUTO
        19 004221   200015 450500                    STP0    IA_LX_ITEM+7,,AUTO

PL6.E3A0      #005=Z9EB$DML_STATEMENT File=Z9EB.:Z8A6TSI                         SAT 08/09/97 13:50 Page:412
     2056    16590    2           ADDR(RC_LX_ITEM) -> LX_ITEM.LINK = ADDR(RL_LX_ITEM);

  16590 19 004222   200016 631500                    EPPR1   RL_LX_ITEM,,AUTO
        19 004223   200035 451500                    STP1    RC_LX_ITEM+7,,AUTO

     2057    16591
     2058    16592    2           CALL Z9EB$BUILD_CODE(CODE,ARG_COUNT,ADDR(IA_LX_ITEM));

  16592 19 004224   200006 633500                    EPPR3   IA_LX_ITEM,,AUTO
        19 004225   200242 453500                    STP3    OFFSET+2,,AUTO
        19 004226   200242 634500                    EPPR4   OFFSET+2,,AUTO
        19 004227   200245 454500                    STP4    OFFSET+5,,AUTO
        19 004230   200146 635500                    EPPR5   ARG_COUNT,,AUTO
        19 004231   200244 455500                    STP5    OFFSET+4,,AUTO
        19 004232   200166 636500                    EPPR6   CODE,,AUTO
        19 004233   200243 456500                    STP6    OFFSET+3,,AUTO
        19 004234   200243 630500                    EPPR0   OFFSET+3,,AUTO
        19 004235   000004 631400 20                 EPPR1   4
        19 004236   000000 701000 xent               TSX1    Z9EB$BUILD_CODE
        19 004237   000000 011000                    NOP     0

     2059    16593    2         END;

     2060    16594
     2061    16595    1       RETURN;

  16595 19 004240   000000 702200 xent               TSX2  ! X66_ARET

     2062    16596        %EJECT
     2063    16597        /*==========*/
     2064    16598    1     Z9EB$STORE :   ENTRY ( RECORD_SELECTION$, RETENTION$);

  16598 19 004241   000000 700200 xent  Z9EB$STORE   TSX0  ! X66_AUTO_2
        19 004242   000334 000002                    ZERO    220,2

     2065    16599        /*==========*/
     2066    16600
PL6.E3A0      #005=Z9EB$DML_STATEMENT File=Z9EB.:Z8A6TSI                         SAT 08/09/97 13:50 Page:413
     2067    16601    1       ERROR_FLAG = %FALSE;

  16601 19 004243   200213 450100                    STZ     ERROR_FLAG,,AUTO

     2068    16602
     2069    16603    1       IF RECORD_SELECTION$ -> LX_ITEM.B.ERROR   THEN

  16603 19 004244   200003 470500                    LDP0    @RECORD_SELECTION$,,AUTO
        19 004245   000000 471500                    LDP1    0,,PR0
        19 004246   100000 236100                    LDQ     0,,PR1
        19 004247   400000 316007                    CANQ    -131072,DL
        19 004250   004254 600000 19                 TZE     s:16609

     2070    16604    1           ERROR_FLAG = %TRUE;

  16604 19 004251   400000 236003                    LDQ     -131072,DU
        19 004252   200213 756100                    STQ     ERROR_FLAG,,AUTO
        19 004253   004332 710000 19                 TRA     s:16630

     2071    16605    1       ELSE
     2072    16606    2         DO;

     2073    16607                %FISH(TRIAD = RECORD_SELECTION$ -> LX_ETT_ITEM.ETT$, RTN = RECORD_ST$);

  16609 19 004254   100001 236100                    LDQ     1,,PR1
        19 004255   200152 756100                    STQ     RECORD_ST$,,AUTO

  16610 19 004256   200152 471500                    LDP1    RECORD_ST$,,AUTO
        19 004257   100000 220100                    LDX0    0,,PR1
        19 004260   000751 100003                    CMPX0   489,DU
        19 004261   004271 603000 19                 TRC     s:16615

  16611 19 004262   200152 470500                    LDP0    RECORD_ST$,,AUTO
        19 004263   000001 236100                    LDQ     1,,PR0
        19 004264   200152 756100                    STQ     RECORD_ST$,,AUTO

  16612 19 004265   200152 470500                    LDP0    RECORD_ST$,,AUTO
PL6.E3A0      #005=Z9EB$DML_STATEMENT File=Z9EB.:Z8A6TSI                         SAT 08/09/97 13:50 Page:414
        19 004266   000000 220100                    LDX0    0,,PR0
        19 004267   000751 100003                    CMPX0   489,DU
        19 004270   004262 602000 19                 TNC     s:16611

     2074    16615    2           IF RECORD_ST$ -> SCALAR.B.DML_TYPE ~= %RECORD  THEN

  16615 19 004271   200152 470500                    LDP0    RECORD_ST$,,AUTO
        19 004272   000003 236100                    LDQ     3,,PR0
        19 004273   160000 376007                    ANQ     57344,DL
        19 004274   060000 116007                    CMPQ    24576,DL
        19 004275   004315 600000 19                 TZE     s:16623

     2075    16616    3             DO;

     2076    16617    3               CALL Z8AE$ERROR(%E$ITEM_NOT_A_RECORD,

  16617 19 004276   200003 471500                    LDP1    @RECORD_SELECTION$,,AUTO
        19 004277   100000 473500                    LDP3    0,,PR1
        19 004300   300006 634500                    EPPR4   6,,PR3
        19 004301   200244 454500                    STP4    OFFSET+4,,AUTO
        19 004302   300005 635500                    EPPR5   5,,PR3
        19 004303   200243 455500                    STP5    OFFSET+3,,AUTO
        19 004304   000021 236000 20                 LDQ     17
        19 004305   200242 756100                    STQ     OFFSET+2,,AUTO
        19 004306   200242 630500                    EPPR0   OFFSET+2,,AUTO
        19 004307   000004 631400 20                 EPPR1   4
        19 004310   000000 701000 xent               TSX1    Z8AE$ERROR
        19 004311   000000 011000                    NOP     0

     2077    16618    3                               RECORD_SELECTION$ -> LX_ITEM.LINE,
     2078    16619    3                               RECORD_SELECTION$ -> LX_ITEM.COLUMN);
     2079    16620    3               ERROR_FLAG = %TRUE;

  16620 19 004312   400000 236003                    LDQ     -131072,DU
        19 004313   200213 756100                    STQ     ERROR_FLAG,,AUTO

     2080    16621    3             END;
PL6.E3A0      #005=Z9EB$DML_STATEMENT File=Z9EB.:Z8A6TSI                         SAT 08/09/97 13:50 Page:415

  16621 19 004314   004332 710000 19                 TRA     s:16630

     2081    16622    2           ELSE
     2082    16623    2               IF RECORD_ST$ -> SCALAR.B.DML_RVA = %FALSE     THEN

  16623 19 004315   000003 236100                    LDQ     3,,PR0
        19 004316   002000 316007                    CANQ    1024,DL
        19 004317   004332 601000 19                 TNZ     s:16630

     2083    16624    3                 DO;

     2084    16625    3                   RVA_TYPE = %RVA_RECORD;

  16625 19 004320   000002 220003                    LDX0    2,DU
        19 004321   200147 740100                    STX0    RVA_TYPE,,AUTO

     2085    16626    3                   CALL Z9EB$BUILD_RVA_TABLE(RECORD_ST$,RVA_TYPE);

  16626 19 004322   200147 631500                    EPPR1   RVA_TYPE,,AUTO
        19 004323   200243 451500                    STP1    OFFSET+3,,AUTO
        19 004324   200152 633500                    EPPR3   RECORD_ST$,,AUTO
        19 004325   200242 453500                    STP3    OFFSET+2,,AUTO
        19 004326   200242 630500                    EPPR0   OFFSET+2,,AUTO
        19 004327   000002 631400 20                 EPPR1   2
        19 004330   000000 701000 xent               TSX1    Z9EB$BUILD_RVA_TABLE
        19 004331   000000 011000                    NOP     0

     2086    16627    3                 END;

     2087    16628    2         END;

     2088    16629
     2089    16630    1       CALL RETENTION(RETENTION$, ADDR(RL_LX_ITEM));

  16630 19 004332   200016 630500                    EPPR0   RL_LX_ITEM,,AUTO
        19 004333   200270 450500                    STP0    OFFSET+24,,AUTO
PL6.E3A0      #005=Z9EB$DML_STATEMENT File=Z9EB.:Z8A6TSI                         SAT 08/09/97 13:50 Page:416
        19 004334   200270 631500                    EPPR1   OFFSET+24,,AUTO
        19 004335   200222 451500                    STP1    @CODE+1,,AUTO
        19 004336   200004 236100                    LDQ     @RETENTION$,,AUTO
        19 004337   200221 756100                    STQ     SET_LIST_CONTROL+3,,AUTO
        19 004340   000345 701000 19                 TSX1    RETENTION
        19 004341   000000 011000                    NOP     0

     2090    16631
     2091    16632    1       IF ERROR_FLAG = %FALSE           THEN

  16632 19 004342   200213 234100                    SZN     ERROR_FLAG,,AUTO
        19 004343   004411 604000 19                 TMI     s:16644

     2092    16633    2         DO;

     2093    16634    2           CALL Z8EU$CREATE_IDENTIFIER_FROM_ST(O1COM.DML_IA$,ADDR(IA_LX_ITEM));

  16634 19 004344   200006 630500                    EPPR0   IA_LX_ITEM,,AUTO
        19 004345   200242 450500                    STP0    OFFSET+2,,AUTO
        19 004346   200242 631500                    EPPR1   OFFSET+2,,AUTO
        19 004347   200245 451500                    STP1    OFFSET+5,,AUTO
        19 004350   000013 236000 20                 LDQ     11
        19 004351   200244 756100                    STQ     OFFSET+4,,AUTO
        19 004352   200244 630500                    EPPR0   OFFSET+4,,AUTO
        19 004353   000002 631400 20                 EPPR1   2
        19 004354   000000 701000 xent               TSX1    Z8EU$CREATE_IDENTIFIER_FROM_ST
        19 004355   000000 011000                    NOP     0

     2094    16635
     2095    16636    2           CALL BUILD_PARM( RECORD_ST$, ADDR(RC_LX_ITEM));

  16636 19 004356   200026 630500                    EPPR0   RC_LX_ITEM,,AUTO
        19 004357   200271 450500                    STP0    OFFSET+25,,AUTO
        19 004360   200271 631500                    EPPR1   OFFSET+25,,AUTO
        19 004361   200236 451500                    STP1    PTR$+1,,AUTO
        19 004362   200152 633500                    EPPR3   RECORD_ST$,,AUTO
        19 004363   200235 453500                    STP3    @ITEM$+1,,AUTO
PL6.E3A0      #005=Z9EB$DML_STATEMENT File=Z9EB.:Z8A6TSI                         SAT 08/09/97 13:50 Page:417
        19 004364   000107 701000 19                 TSX1    BUILD_PARM
        19 004365   000000 011000                    NOP     0

     2096    16637    2           ADDR(IA_LX_ITEM) -> LX_ITEM.LINK = ADDR(RC_LX_ITEM);

  16637 19 004366   200026 630500                    EPPR0   RC_LX_ITEM,,AUTO
        19 004367   200015 450500                    STP0    IA_LX_ITEM+7,,AUTO

     2097    16638    2           ADDR(RC_LX_ITEM) -> LX_ITEM.LINK = ADDR(RL_LX_ITEM);

  16638 19 004370   200016 631500                    EPPR1   RL_LX_ITEM,,AUTO
        19 004371   200035 451500                    STP1    RC_LX_ITEM+7,,AUTO

     2098    16639
     2099    16640    2           ARG_COUNT = 3 + ADDR(RL_LX_ITEM) -> LX_LIST.COUNT;

  16640 19 004372   200020 235100                    LDA     RL_LX_ITEM+2,,AUTO
        19 004373   000003 035007                    ADLA    3,DL
        19 004374   200146 755100                    STA     ARG_COUNT,,AUTO

     2100    16641    2           CALL Z9EB$BUILD_CODE(%DBSTO, ARG_COUNT, ADDR(IA_LX_ITEM));

  16641 19 004375   200006 633500                    EPPR3   IA_LX_ITEM,,AUTO
        19 004376   200242 453500                    STP3    OFFSET+2,,AUTO
        19 004377   200242 634500                    EPPR4   OFFSET+2,,AUTO
        19 004400   200245 454500                    STP4    OFFSET+5,,AUTO
        19 004401   200146 635500                    EPPR5   ARG_COUNT,,AUTO
        19 004402   200244 455500                    STP5    OFFSET+4,,AUTO
        19 004403   000037 236000 20                 LDQ     31
        19 004404   200243 756100                    STQ     OFFSET+3,,AUTO
        19 004405   200243 630500                    EPPR0   OFFSET+3,,AUTO
        19 004406   000004 631400 20                 EPPR1   4
        19 004407   000000 701000 xent               TSX1    Z9EB$BUILD_CODE
        19 004410   000000 011000                    NOP     0

     2101    16642    2         END;

PL6.E3A0      #005=Z9EB$DML_STATEMENT File=Z9EB.:Z8A6TSI                         SAT 08/09/97 13:50 Page:418
     2102    16643
     2103    16644    1       RETURN;

  16644 19 004411   000000 702200 xent               TSX2  ! X66_ARET

     2104    16645         %EJECT;
PL6.E3A0      #005=Z9EB$DML_STATEMENT File=Z9EB.:Z8A6TSI                         SAT 08/09/97 13:50 Page:419
     2105    16646        /*============*/
     2106    16647    1     Z9EB$CONNECT :  ENTRY   (RECORD_SELECTION$, RETENTION$);

  16647 19 004412   000000 700200 xent  Z9EB$CONNECT TSX0  ! X66_AUTO_2
        19 004413   000334 000002                    ZERO    220,2

     2107    16648        /*============*/
     2108    16649
     2109    16650    1       CODE = %DBCON;

  16650 19 004414   040100 100400                    MLR     fill='040'O
        19 004415   000000 000006 18                 ADSC9   0                        cn=0,n=6
        19 004416   200166 000006                    ADSC9   CODE,,AUTO               cn=0,n=6

     2110    16651    1       GOTO DIS_CONNECT;

  16651 19 004417   004425 710000 19                 TRA     DIS_CONNECT

     2111    16652
     2112    16653        /*===============*/
     2113    16654    1     Z9EB$DISCONNECT :  ENTRY (RECORD_SELECTION$, RETENTION$);

  16654 19 004420   000000 700200 xent  Z9EB$DISCON* TSX0  ! X66_AUTO_2
        19 004421   000334 000002                    ZERO    220,2

     2114    16655        /*===============*/
     2115    16656
     2116    16657    1       CODE = %DBDIS;

  16657 19 004422   040100 100400                    MLR     fill='040'O
        19 004423   000026 000006 18                 ADSC9   22                       cn=0,n=6
        19 004424   200166 000006                    ADSC9   CODE,,AUTO               cn=0,n=6

     2117    16658
     2118    16659    1   DIS_CONNECT:
     2119    16660
     2120    16661    1       ERROR_FLAG = %FALSE;
PL6.E3A0      #005=Z9EB$DML_STATEMENT File=Z9EB.:Z8A6TSI                         SAT 08/09/97 13:50 Page:420

  16661 19 004425   200213 450100       DIS_CONNECT  STZ     ERROR_FLAG,,AUTO

     2121    16662    1       RECORD$ = RECORD_SELECTION$;

  16662 19 004426   200003 470500                    LDP0    @RECORD_SELECTION$,,AUTO
        19 004427   000000 236100                    LDQ     0,,PR0
        19 004430   200150 756100                    STQ     RECORD$,,AUTO

     2122    16663    1       SET$ = RETENTION$;

  16663 19 004431   200004 471500                    LDP1    @RETENTION$,,AUTO
        19 004432   100000 236100                    LDQ     0,,PR1
        19 004433   200160 756100                    STQ     SET$,,AUTO

     2123    16664
     2124    16665    1       IF SET$ -> LX_ITEM.B.ERROR  THEN

  16665 19 004434   200160 473500                    LDP3    SET$,,AUTO
        19 004435   300000 236100                    LDQ     0,,PR3
        19 004436   400000 316007                    CANQ    -131072,DL
        19 004437   004443 600000 19                 TZE     s:16671

     2125    16666    1           ERROR_FLAG = %TRUE;

  16666 19 004440   400000 236003                    LDQ     -131072,DU
        19 004441   200213 756100                    STQ     ERROR_FLAG,,AUTO
        19 004442   004517 710000 19                 TRA     s:16692

     2126    16667    1       ELSE
     2127    16668    2         DO;

     2128    16669                %FISH(TRIAD = SET$ -> LX_ETT_ITEM.ETT$, RTN = SET_ST$);

  16671 19 004443   300001 236100                    LDQ     1,,PR3
        19 004444   200163 756100                    STQ     SET_ST$,,AUTO

PL6.E3A0      #005=Z9EB$DML_STATEMENT File=Z9EB.:Z8A6TSI                         SAT 08/09/97 13:50 Page:421
  16672 19 004445   200163 474500                    LDP4    SET_ST$,,AUTO
        19 004446   400000 220100                    LDX0    0,,PR4
        19 004447   000751 100003                    CMPX0   489,DU
        19 004450   004460 603000 19                 TRC     s:16677

  16673 19 004451   200163 470500                    LDP0    SET_ST$,,AUTO
        19 004452   000001 236100                    LDQ     1,,PR0
        19 004453   200163 756100                    STQ     SET_ST$,,AUTO

  16674 19 004454   200163 470500                    LDP0    SET_ST$,,AUTO
        19 004455   000000 220100                    LDX0    0,,PR0
        19 004456   000751 100003                    CMPX0   489,DU
        19 004457   004451 602000 19                 TNC     s:16673

     2129    16677    2           IF SET_ST$ -> DML_ITEM.ID ~= %DML_SET      THEN

  16677 19 004460   200163 470500                    LDP0    SET_ST$,,AUTO
        19 004461   000000 220100                    LDX0    0,,PR0
        19 004462   000753 100003                    CMPX0   491,DU
        19 004463   004502 600000 19                 TZE     s:16685

     2130    16678    3             DO;

     2131    16679    3               CALL Z8AE$ERROR(%E$ITEM_NOT_A_SET,

  16679 19 004464   200160 236100                    LDQ     SET$,,AUTO
        19 004465   000006 036003                    ADLQ    6,DU
        19 004466   200244 756100                    STQ     OFFSET+4,,AUTO
        19 004467   200160 236100                    LDQ     SET$,,AUTO
        19 004470   000005 036003                    ADLQ    5,DU
        19 004471   000007 235000 20                 LDA     7
        19 004472   200242 757100                    STAQ    OFFSET+2,,AUTO
        19 004473   200242 630500                    EPPR0   OFFSET+2,,AUTO
        19 004474   000004 631400 20                 EPPR1   4
        19 004475   000000 701000 xent               TSX1    Z8AE$ERROR
        19 004476   000000 011000                    NOP     0

PL6.E3A0      #005=Z9EB$DML_STATEMENT File=Z9EB.:Z8A6TSI                         SAT 08/09/97 13:50 Page:422
     2132    16680    3                               SET$ -> LX_ITEM.LINE,
     2133    16681    3                               SET$ -> LX_ITEM.COLUMN);
     2134    16682    3               ERROR_FLAG = %TRUE;

  16682 19 004477   400000 236003                    LDQ     -131072,DU
        19 004500   200213 756100                    STQ     ERROR_FLAG,,AUTO

     2135    16683    3             END;

  16683 19 004501   004517 710000 19                 TRA     s:16692

     2136    16684    2           ELSE
     2137    16685    2               IF SET_ST$ -> DML_ITEM.B.DML_RVA = %FALSE   THEN

  16685 19 004502   000003 236100                    LDQ     3,,PR0
        19 004503   002000 316007                    CANQ    1024,DL
        19 004504   004517 601000 19                 TNZ     s:16692

     2138    16686    3                 DO;

     2139    16687    3                   RVA_TYPE = %RVA_SET;

  16687 19 004505   000001 221003                    LDX1    1,DU
        19 004506   200147 741100                    STX1    RVA_TYPE,,AUTO

     2140    16688    3                   CALL Z9EB$BUILD_RVA_TABLE(SET_ST$,RVA_TYPE);

  16688 19 004507   200147 631500                    EPPR1   RVA_TYPE,,AUTO
        19 004510   200243 451500                    STP1    OFFSET+3,,AUTO
        19 004511   200163 633500                    EPPR3   SET_ST$,,AUTO
        19 004512   200242 453500                    STP3    OFFSET+2,,AUTO
        19 004513   200242 630500                    EPPR0   OFFSET+2,,AUTO
        19 004514   000002 631400 20                 EPPR1   2
        19 004515   000000 701000 xent               TSX1    Z9EB$BUILD_RVA_TABLE
        19 004516   000000 011000                    NOP     0

     2141    16689    3                 END;
PL6.E3A0      #005=Z9EB$DML_STATEMENT File=Z9EB.:Z8A6TSI                         SAT 08/09/97 13:50 Page:423

     2142    16690    2         END;

     2143    16691
     2144    16692    1       IF RECORD$ -> LX_ITEM.B.ERROR   THEN

  16692 19 004517   200150 470500                    LDP0    RECORD$,,AUTO
        19 004520   000000 236100                    LDQ     0,,PR0
        19 004521   400000 316007                    CANQ    -131072,DL
        19 004522   004524 600000 19                 TZE     s:16695

     2145    16693    1          RETURN;

  16693 19 004523   000000 702200 xent               TSX2  ! X66_ARET

     2146    16694
     2147    16695    1       IF RECORD$ -> LX_ITEM.ID = %LX_TERMINAL AND RECORD$ -> LX_ITEM.SYMBOL = %EMPTY
             16695                THEN

  16695 19 004524   000000 220100                    LDX0    0,,PR0
        19 004525   004551 601000 19                 TNZ     s:16709
        19 004526   000003 235100                    LDA     3,,PR0
        19 004527   004551 601000 19                 TNZ     s:16709

     2148    16696    2         DO;

     2149    16697    2           IF O1COM.NILL_RVA = %FALSE          THEN

  16697 19 004530   000105 234000 xsym               SZN     O1COM+69
        19 004531   004546 604000 19                 TMI     s:16702

     2150    16698    3             DO;

     2151    16699    3               RVA_TYPE = %RVA_NULL;

  16699 19 004532   000004 221003                    LDX1    4,DU
        19 004533   200147 741100                    STX1    RVA_TYPE,,AUTO
PL6.E3A0      #005=Z9EB$DML_STATEMENT File=Z9EB.:Z8A6TSI                         SAT 08/09/97 13:50 Page:424

     2152    16700    3               CALL Z9EB$BUILD_RVA_TABLE( ADDR(NIL), RVA_TYPE);

  16700 19 004534   000000 236000 20                 LDQ     0
        19 004535   200242 756100                    STQ     OFFSET+2,,AUTO
        19 004536   200147 631500                    EPPR1   RVA_TYPE,,AUTO
        19 004537   200245 451500                    STP1    OFFSET+5,,AUTO
        19 004540   200242 633500                    EPPR3   OFFSET+2,,AUTO
        19 004541   200244 453500                    STP3    OFFSET+4,,AUTO
        19 004542   200244 630500                    EPPR0   OFFSET+4,,AUTO
        19 004543   000002 631400 20                 EPPR1   2
        19 004544   000000 701000 xent               TSX1    Z9EB$BUILD_RVA_TABLE
        19 004545   000000 011000                    NOP     0

     2153    16701    3             END;

     2154    16702    2           RECORD_ST$ = ADDR(NIL);

  16702 19 004546   000000 236000 20                 LDQ     0
        19 004547   200152 756100                    STQ     RECORD_ST$,,AUTO

     2155    16703    2         END;

  16703 19 004550   004653 710000 19                 TRA     s:16741

     2156    16704
     2157    16705    1       ELSE
     2158    16706    2         DO;

     2159    16707                %FISH(TRIAD = RECORD$ -> LX_ETT_ITEM.ETT$, RTN = RECORD_ST$);

  16709 19 004551   000001 236100                    LDQ     1,,PR0
        19 004552   200152 756100                    STQ     RECORD_ST$,,AUTO

  16710 19 004553   200152 471500                    LDP1    RECORD_ST$,,AUTO
        19 004554   100000 220100                    LDX0    0,,PR1
        19 004555   000751 100003                    CMPX0   489,DU
PL6.E3A0      #005=Z9EB$DML_STATEMENT File=Z9EB.:Z8A6TSI                         SAT 08/09/97 13:50 Page:425
        19 004556   004566 603000 19                 TRC     s:16715

  16711 19 004557   200152 470500                    LDP0    RECORD_ST$,,AUTO
        19 004560   000001 236100                    LDQ     1,,PR0
        19 004561   200152 756100                    STQ     RECORD_ST$,,AUTO

  16712 19 004562   200152 470500                    LDP0    RECORD_ST$,,AUTO
        19 004563   000000 220100                    LDX0    0,,PR0
        19 004564   000751 100003                    CMPX0   489,DU
        19 004565   004557 602000 19                 TNC     s:16711

     2160    16715    2           IF RECORD_ST$ -> SCALAR.B.DML_TYPE ~= %RECORD    THEN

  16715 19 004566   200152 470500                    LDP0    RECORD_ST$,,AUTO
        19 004567   000003 236100                    LDQ     3,,PR0
        19 004570   160000 376007                    ANQ     57344,DL
        19 004571   060000 116007                    CMPQ    24576,DL
        19 004572   004611 600000 19                 TZE     s:16724

     2161    16716    3             DO;

     2162    16717    3               CALL Z8AE$ERROR(%E$ITEM_NOT_A_RECORD,

  16717 19 004573   200150 236100                    LDQ     RECORD$,,AUTO
        19 004574   000006 036003                    ADLQ    6,DU
        19 004575   200244 756100                    STQ     OFFSET+4,,AUTO
        19 004576   200150 236100                    LDQ     RECORD$,,AUTO
        19 004577   000005 036003                    ADLQ    5,DU
        19 004600   000021 235000 20                 LDA     17
        19 004601   200242 757100                    STAQ    OFFSET+2,,AUTO
        19 004602   200242 630500                    EPPR0   OFFSET+2,,AUTO
        19 004603   000004 631400 20                 EPPR1   4
        19 004604   000000 701000 xent               TSX1    Z8AE$ERROR
        19 004605   000000 011000                    NOP     0

     2163    16718    3                               RECORD$ -> LX_ITEM.LINE,
     2164    16719    3                               RECORD$ -> LX_ITEM.COLUMN);
PL6.E3A0      #005=Z9EB$DML_STATEMENT File=Z9EB.:Z8A6TSI                         SAT 08/09/97 13:50 Page:426
     2165    16720    3               ERROR_FLAG = %TRUE;

  16720 19 004606   400000 236003                    LDQ     -131072,DU
        19 004607   200213 756100                    STQ     ERROR_FLAG,,AUTO

     2166    16721    3             END;

  16721 19 004610   004653 710000 19                 TRA     s:16741

     2167    16722    2           ELSE
     2168    16723    3             DO;

     2169    16724    3               IF RECORD_ST$ -> SCALAR.B.DML_RVA = %FALSE     THEN

  16724 19 004611   000003 236100                    LDQ     3,,PR0
        19 004612   002000 316007                    CANQ    1024,DL
        19 004613   004626 601000 19                 TNZ     s:16730

     2170    16725    4                 DO;

     2171    16726    4                   RVA_TYPE = %RVA_RECORD;

  16726 19 004614   000002 220003                    LDX0    2,DU
        19 004615   200147 740100                    STX0    RVA_TYPE,,AUTO

     2172    16727    4                   CALL Z9EB$BUILD_RVA_TABLE( RECORD_ST$, RVA_TYPE);

  16727 19 004616   200147 631500                    EPPR1   RVA_TYPE,,AUTO
        19 004617   200243 451500                    STP1    OFFSET+3,,AUTO
        19 004620   200152 633500                    EPPR3   RECORD_ST$,,AUTO
        19 004621   200242 453500                    STP3    OFFSET+2,,AUTO
        19 004622   200242 630500                    EPPR0   OFFSET+2,,AUTO
        19 004623   000002 631400 20                 EPPR1   2
        19 004624   000000 701000 xent               TSX1    Z9EB$BUILD_RVA_TABLE
        19 004625   000000 011000                    NOP     0

     2173    16728    4                 END;
PL6.E3A0      #005=Z9EB$DML_STATEMENT File=Z9EB.:Z8A6TSI                         SAT 08/09/97 13:50 Page:427

     2174    16729
     2175    16730    3               CALL MEMBERSHIP( RECORD_ST$, SET_ST$,CODE)

  16730 19 004626   200166 630500                    EPPR0   CODE,,AUTO
        19 004627   200223 450500                    STP0    @FIND_CONTROL$+1,,AUTO
        19 004630   200163 631500                    EPPR1   SET_ST$,,AUTO
        19 004631   200222 451500                    STP1    @CODE+1,,AUTO
        19 004632   200152 633500                    EPPR3   RECORD_ST$,,AUTO
        19 004633   200221 453500                    STP3    SET_LIST_CONTROL+3,,AUTO
        19 004634   000003 701000 19                 TSX1    MEMBERSHIP
        19 004635   004637 702000 19                 TSX2    s:16733
        19 004636   004653 710000 19                 TRA     s:16741

     2176    16731    3                  WHENALTRETURN
     2177    16732    4                  DO;

     2178    16733    4                    CALL Z8AE$ERROR(%E$INVALID_MEMBER,

  16733 19 004637   200150 236100                    LDQ     RECORD$,,AUTO
        19 004640   000006 036003                    ADLQ    6,DU
        19 004641   200244 756100                    STQ     OFFSET+4,,AUTO
        19 004642   200150 236100                    LDQ     RECORD$,,AUTO
        19 004643   000005 036003                    ADLQ    5,DU
        19 004644   000031 235000 20                 LDA     25
        19 004645   200242 757100                    STAQ    OFFSET+2,,AUTO
        19 004646   200242 630500                    EPPR0   OFFSET+2,,AUTO
        19 004647   000004 631400 20                 EPPR1   4
        19 004650   000000 701000 xent               TSX1    Z8AE$ERROR
        19 004651   000000 011000                    NOP     0

     2179    16734    4                                    RECORD$ -> LX_ITEM.LINE,
     2180    16735    4                                    RECORD$ -> LX_ITEM.COLUMN);
     2181    16736    4                     RETURN;

  16736 19 004652   000000 702200 xent               TSX2  ! X66_ARET

PL6.E3A0      #005=Z9EB$DML_STATEMENT File=Z9EB.:Z8A6TSI                         SAT 08/09/97 13:50 Page:428
     2182    16737    4                   END;
     2183    16738    3             END;

     2184    16739    2         END;

     2185    16740
     2186    16741    1       IF ERROR_FLAG = %TRUE            THEN

  16741 19 004653   200213 234100                    SZN     ERROR_FLAG,,AUTO
        19 004654   004656 605000 19                 TPL     s:16744

     2187    16742    1           RETURN;

  16742 19 004655   000000 702200 xent               TSX2  ! X66_ARET

     2188    16743
     2189    16744    1       CALL Z8EU$CREATE_IDENTIFIER_FROM_ST(O1COM.DML_IA$,ADDR(IA_LX_ITEM) );

  16744 19 004656   200006 630500                    EPPR0   IA_LX_ITEM,,AUTO
        19 004657   200242 450500                    STP0    OFFSET+2,,AUTO
        19 004660   200242 631500                    EPPR1   OFFSET+2,,AUTO
        19 004661   200245 451500                    STP1    OFFSET+5,,AUTO
        19 004662   000013 236000 20                 LDQ     11
        19 004663   200244 756100                    STQ     OFFSET+4,,AUTO
        19 004664   200244 630500                    EPPR0   OFFSET+4,,AUTO
        19 004665   000002 631400 20                 EPPR1   2
        19 004666   000000 701000 xent               TSX1    Z8EU$CREATE_IDENTIFIER_FROM_ST
        19 004667   000000 011000                    NOP     0

     2190    16745
     2191    16746    1       CALL BUILD_PARM( RECORD_ST$, ADDR(RC_LX_ITEM));

  16746 19 004670   200026 630500                    EPPR0   RC_LX_ITEM,,AUTO
        19 004671   200272 450500                    STP0    OFFSET+26,,AUTO
        19 004672   200272 631500                    EPPR1   OFFSET+26,,AUTO
        19 004673   200236 451500                    STP1    PTR$+1,,AUTO
        19 004674   200152 633500                    EPPR3   RECORD_ST$,,AUTO
PL6.E3A0      #005=Z9EB$DML_STATEMENT File=Z9EB.:Z8A6TSI                         SAT 08/09/97 13:50 Page:429
        19 004675   200235 453500                    STP3    @ITEM$+1,,AUTO
        19 004676   000107 701000 19                 TSX1    BUILD_PARM
        19 004677   000000 011000                    NOP     0

     2192    16747    1       ADDR(IA_LX_ITEM) -> LX_ITEM.LINK = ADDR(RC_LX_ITEM);

  16747 19 004700   200026 630500                    EPPR0   RC_LX_ITEM,,AUTO
        19 004701   200015 450500                    STP0    IA_LX_ITEM+7,,AUTO

     2193    16748
     2194    16749    1       CALL BUILD_PARM( SET_ST$, ADDR(SC_AC_LX_ITEM));

  16749 19 004702   200036 631500                    EPPR1   SC_AC_LX_ITEM,,AUTO
        19 004703   200273 451500                    STP1    OFFSET+27,,AUTO
        19 004704   200273 633500                    EPPR3   OFFSET+27,,AUTO
        19 004705   200236 453500                    STP3    PTR$+1,,AUTO
        19 004706   200163 634500                    EPPR4   SET_ST$,,AUTO
        19 004707   200235 454500                    STP4    @ITEM$+1,,AUTO
        19 004710   000107 701000 19                 TSX1    BUILD_PARM
        19 004711   000000 011000                    NOP     0

     2195    16750    1       ADDR(RC_LX_ITEM) -> LX_ITEM.LINK = ADDR(SC_AC_LX_ITEM);

  16750 19 004712   200036 630500                    EPPR0   SC_AC_LX_ITEM,,AUTO
        19 004713   200035 450500                    STP0    RC_LX_ITEM+7,,AUTO

     2196    16751
     2197    16752    1       CALL Z9EB$BUILD_CODE(CODE,3,ADDR(IA_LX_ITEM) );

  16752 19 004714   200006 631500                    EPPR1   IA_LX_ITEM,,AUTO
        19 004715   200242 451500                    STP1    OFFSET+2,,AUTO
        19 004716   200242 633500                    EPPR3   OFFSET+2,,AUTO
        19 004717   200245 453500                    STP3    OFFSET+5,,AUTO
        19 004720   000041 236000 20                 LDQ     33
        19 004721   200244 756100                    STQ     OFFSET+4,,AUTO
        19 004722   200166 634500                    EPPR4   CODE,,AUTO
        19 004723   200243 454500                    STP4    OFFSET+3,,AUTO
PL6.E3A0      #005=Z9EB$DML_STATEMENT File=Z9EB.:Z8A6TSI                         SAT 08/09/97 13:50 Page:430
        19 004724   200243 630500                    EPPR0   OFFSET+3,,AUTO
        19 004725   000004 631400 20                 EPPR1   4
        19 004726   000000 701000 xent               TSX1    Z9EB$BUILD_CODE
        19 004727   000000 011000                    NOP     0

     2198    16753
     2199    16754    1       RETURN;

  16754 19 004730   000000 702200 xent               TSX2  ! X66_ARET

     2200    16755        %EJECT;
PL6.E3A0      #005=Z9EB$DML_STATEMENT File=Z9EB.:Z8A6TSI                         SAT 08/09/97 13:50 Page:431
     2201    16756        /*==========*/
     2202    16757    1     Z9EB$READY :  ENTRY (RECORD_SELECTION$, RETENTION$);

  16757 19 004731   000000 700200 xent  Z9EB$READY   TSX0  ! X66_AUTO_2
        19 004732   000334 000002                    ZERO    220,2

     2203    16758        /*==========*/
     2204    16759
     2205    16760    1   CONST_WORD = 0;

  16760 19 004733   200176 450100                    STZ     CONST_WORD,,AUTO

     2206    16761    1   OPTION$ = RETENTION$;

  16761 19 004734   200004 470500                    LDP0    @RETENTION$,,AUTO
        19 004735   000000 236100                    LDQ     0,,PR0
        19 004736   200202 756100                    STQ     OPTION$,,AUTO

     2207    16762    1   LIST$ = RECORD_SELECTION$;

  16762 19 004737   200003 471500                    LDP1    @RECORD_SELECTION$,,AUTO
        19 004740   100000 236100                    LDQ     0,,PR1
        19 004741   200170 756100                    STQ     LIST$,,AUTO

     2208    16763    1   ERROR_FLAG = %FALSE;

  16763 19 004742   200213 450100                    STZ     ERROR_FLAG,,AUTO

     2209    16764    1   IF OPTION$ = ADDR(NIL)  THEN

  16764 19 004743   200202 236100                    LDQ     OPTION$,,AUTO
        19 004744   000000 116000 20                 CMPQ    0
        19 004745   004751 601000 19                 TNZ     s:16767

     2210    16765    1       RDC_WORD.USAGE_TYPE = %RETRIEVAL;                   /*V*  Default */

  16765 19 004746   000400 220003                    LDX0    256,DU
PL6.E3A0      #005=Z9EB$DML_STATEMENT File=Z9EB.:Z8A6TSI                         SAT 08/09/97 13:50 Page:432
        19 004747   200176 740100                    STX0    CONST_WORD,,AUTO
        19 004750   004767 710000 19                 TRA     s:16775

     2211    16766    1   ELSE
     2212    16767    1       IF OPTION$ -> LX_TERMINAL.SYMBOL = %RSV_WRD_RETRIEVAL THEN

  16767 19 004751   200202 473500                    LDP3    OPTION$,,AUTO
        19 004752   300003 235100                    LDA     3,,PR3
        19 004753   000606 115007                    CMPA    390,DL
        19 004754   004760 601000 19                 TNZ     s:16770

     2213    16768    1           RDC_WORD.USAGE_TYPE = %RETRIEVAL;

  16768 19 004755   000400 220003                    LDX0    256,DU
        19 004756   200176 740100                    STX0    CONST_WORD,,AUTO
        19 004757   004767 710000 19                 TRA     s:16775

     2214    16769    1       ELSE
     2215    16770    1           IF OPTION$ -> LX_TERMINAL.SYMBOL = %RSV_WRD_UPDATE    THEN

  16770 19 004760   000736 115007                    CMPA    478,DL
        19 004761   004765 601000 19                 TNZ     s:16773

     2216    16771    1               RDC_WORD.USAGE_TYPE = %DML_UPDATE;

  16771 19 004762   000200 220003                    LDX0    128,DU
        19 004763   200176 740100                    STX0    CONST_WORD,,AUTO
        19 004764   004767 710000 19                 TRA     s:16775

     2217    16772    1           ELSE
     2218    16773    1               RDC_WORD.USAGE_TYPE = %LOAD;

  16773 19 004765   000004 220003                    LDX0    4,DU
        19 004766   200176 740100                    STX0    CONST_WORD,,AUTO

     2219    16774
     2220    16775    1   ARG_COUNT = 2;
PL6.E3A0      #005=Z9EB$DML_STATEMENT File=Z9EB.:Z8A6TSI                         SAT 08/09/97 13:50 Page:433

  16775 19 004767   000002 235007                    LDA     2,DL
        19 004770   200146 755100                    STA     ARG_COUNT,,AUTO

     2221    16776    1   RVA_TYPE = %RVA_REALM;

  16776 19 004771   000000 221003                    LDX1    0,DU
        19 004772   200147 741100                    STX1    RVA_TYPE,,AUTO

     2222    16777    1   LIST_HEAD$ = LIST$;

  16777 19 004773   200170 236100                    LDQ     LIST$,,AUTO
        19 004774   200171 756100                    STQ     LIST_HEAD$,,AUTO

     2223    16778
     2224    16779    1   IF LIST$ -> LX_ITEM.ID = %LX_LIST  THEN

  16779 19 004775   200170 473500                    LDP3    LIST$,,AUTO
        19 004776   300000 222100                    LDX2    0,,PR3
        19 004777   000002 102003                    CMPX2   2,DU
        19 005000   005124 601000 19                 TNZ     s:16828

     2225    16780    2     DO;

     2226    16781    2       LIST$ = LIST$ -> LX_LIST.HEAD$;

  16781 19 005001   300004 236100                    LDQ     4,,PR3
        19 005002   200170 756100                    STQ     LIST$,,AUTO

     2227    16782
     2228    16783    3       DO WHILE LIST$ ~= ADDR(NIL);

  16783 19 005003   005122 710000 19                 TRA     s:16824

     2229    16784    3         IF LIST$ -> LX_ITEM.B.ERROR     THEN

  16784 19 005004   200170 470500                    LDP0    LIST$,,AUTO
PL6.E3A0      #005=Z9EB$DML_STATEMENT File=Z9EB.:Z8A6TSI                         SAT 08/09/97 13:50 Page:434
        19 005005   000000 236100                    LDQ     0,,PR0
        19 005006   400000 316007                    CANQ    -131072,DL
        19 005007   005013 600000 19                 TZE     s:16790

     2230    16785    3             ERROR_FLAG = %TRUE;

  16785 19 005010   400000 236003                    LDQ     -131072,DU
        19 005011   200213 756100                    STQ     ERROR_FLAG,,AUTO
        19 005012   005117 710000 19                 TRA     s:16822

     2231    16786    3         ELSE
     2232    16787    4           DO;

     2233    16788                %FISH( TRIAD = LIST$ -> LX_ETT_ITEM.ETT$, RTN = REALM_ST$);

  16790 19 005013   000001 236100                    LDQ     1,,PR0
        19 005014   200154 756100                    STQ     REALM_ST$,,AUTO

  16791 19 005015   200154 471500                    LDP1    REALM_ST$,,AUTO
        19 005016   100000 220100                    LDX0    0,,PR1
        19 005017   000751 100003                    CMPX0   489,DU
        19 005020   005030 603000 19                 TRC     s:16796

  16792 19 005021   200154 470500                    LDP0    REALM_ST$,,AUTO
        19 005022   000001 236100                    LDQ     1,,PR0
        19 005023   200154 756100                    STQ     REALM_ST$,,AUTO

  16793 19 005024   200154 470500                    LDP0    REALM_ST$,,AUTO
        19 005025   000000 220100                    LDX0    0,,PR0
        19 005026   000751 100003                    CMPX0   489,DU
        19 005027   005021 602000 19                 TNC     s:16792

     2234    16796    4           IF REALM_ST$ -> DML_ITEM.ID ~= %REALM   THEN

  16796 19 005030   200154 470500                    LDP0    REALM_ST$,,AUTO
        19 005031   000000 220100                    LDX0    0,,PR0
        19 005032   000752 100003                    CMPX0   490,DU
PL6.E3A0      #005=Z9EB$DML_STATEMENT File=Z9EB.:Z8A6TSI                         SAT 08/09/97 13:50 Page:435
        19 005033   005052 600000 19                 TZE     s:16805

     2235    16797    5             DO;

     2236    16798    5               CALL Z8AE$ERROR(%E$ITEM_NOT_REALM,

  16798 19 005034   200170 236100                    LDQ     LIST$,,AUTO
        19 005035   000006 036003                    ADLQ    6,DU
        19 005036   200244 756100                    STQ     OFFSET+4,,AUTO
        19 005037   200170 236100                    LDQ     LIST$,,AUTO
        19 005040   000005 036003                    ADLQ    5,DU
        19 005041   000043 235000 20                 LDA     35
        19 005042   200242 757100                    STAQ    OFFSET+2,,AUTO
        19 005043   200242 630500                    EPPR0   OFFSET+2,,AUTO
        19 005044   000004 631400 20                 EPPR1   4
        19 005045   000000 701000 xent               TSX1    Z8AE$ERROR
        19 005046   000000 011000                    NOP     0

     2237    16799    5                               LIST$ -> LX_ITEM.LINE,
     2238    16800    5                               LIST$ -> LX_ITEM.COLUMN);
     2239    16801    5               ERROR_FLAG = %TRUE;

  16801 19 005047   400000 236003                    LDQ     -131072,DU
        19 005050   200213 756100                    STQ     ERROR_FLAG,,AUTO

     2240    16802    5             END;

  16802 19 005051   005117 710000 19                 TRA     s:16822

     2241    16803
     2242    16804    4           ELSE
     2243    16805    4               IF (REALM_ST$ -> DML_ITEM.B.TEMP = %TRUE)    AND

  16805 19 005052   000003 236100                    LDQ     3,,PR0
        19 005053   001000 316007                    CANQ    512,DL
        19 005054   005076 600000 19                 TZE     s:16816
        19 005055   200176 221100                    LDX1    CONST_WORD,,AUTO
PL6.E3A0      #005=Z9EB$DML_STATEMENT File=Z9EB.:Z8A6TSI                         SAT 08/09/97 13:50 Page:436
        19 005056   000400 101003                    CMPX1   256,DU
        19 005057   005076 601000 19                 TNZ     s:16816

     2244    16806    4                                   (RDC_WORD.USAGE_TYPE = %RETRIEVAL)  THEN
     2245    16807    5                 DO;

     2246    16808    5                   CALL Z8AE$ERROR(%E$ERROR_TEMP_REALM_RETRIEVAL,

  16808 19 005060   200170 236100                    LDQ     LIST$,,AUTO
        19 005061   000006 036003                    ADLQ    6,DU
        19 005062   200244 756100                    STQ     OFFSET+4,,AUTO
        19 005063   200170 236100                    LDQ     LIST$,,AUTO
        19 005064   000005 036003                    ADLQ    5,DU
        19 005065   000045 235000 20                 LDA     37
        19 005066   200242 757100                    STAQ    OFFSET+2,,AUTO
        19 005067   200242 630500                    EPPR0   OFFSET+2,,AUTO
        19 005070   000004 631400 20                 EPPR1   4
        19 005071   000000 701000 xent               TSX1    Z8AE$ERROR
        19 005072   000000 011000                    NOP     0

     2247    16809    5                                  LIST$ -> LX_ITEM.LINE,
     2248    16810    5                                  LIST$ -> LX_ITEM.COLUMN);
     2249    16811    5                   ERROR_FLAG = %TRUE;

  16811 19 005073   400000 236003                    LDQ     -131072,DU
        19 005074   200213 756100                    STQ     ERROR_FLAG,,AUTO

     2250    16812    5                 END;

  16812 19 005075   005117 710000 19                 TRA     s:16822

     2251    16813
     2252    16814    4               ELSE
     2253    16815    5                 DO;

     2254    16816    5                   IF REALM_ST$ -> DML_ITEM.B.DML_RVA = %FALSE      THEN

PL6.E3A0      #005=Z9EB$DML_STATEMENT File=Z9EB.:Z8A6TSI                         SAT 08/09/97 13:50 Page:437
  16816 19 005076   002000 316007                    CANQ    1024,DL
        19 005077   005110 601000 19                 TNZ     s:16818

     2255    16817    5                       CALL Z9EB$BUILD_RVA_TABLE(REALM_ST$,RVA_TYPE);

  16817 19 005100   200147 631500                    EPPR1   RVA_TYPE,,AUTO
        19 005101   200243 451500                    STP1    OFFSET+3,,AUTO
        19 005102   200154 633500                    EPPR3   REALM_ST$,,AUTO
        19 005103   200242 453500                    STP3    OFFSET+2,,AUTO
        19 005104   200242 630500                    EPPR0   OFFSET+2,,AUTO
        19 005105   000002 631400 20                 EPPR1   2
        19 005106   000000 701000 xent               TSX1    Z9EB$BUILD_RVA_TABLE
        19 005107   000000 011000                    NOP     0

     2256    16818    5                   CALL BUILD_ETT_PARM( REALM_ST$, LIST$);

  16818 19 005110   200170 630500                    EPPR0   LIST$,,AUTO
        19 005111   200234 450500                    STP0    CONST_WORD+1,,AUTO
        19 005112   200154 631500                    EPPR1   REALM_ST$,,AUTO
        19 005113   200233 451500                    STP1    RVA_TYPE+3,,AUTO
        19 005114   000251 701000 19                 TSX1    BUILD_ETT_PARM
        19 005115   000000 011000                    NOP     0

     2257    16819    5                   ARG_COUNT = ARG_COUNT + 1;

  16819 19 005116   200146 054100                    AOS     ARG_COUNT,,AUTO

     2258    16820    5                 END;

     2259    16821    4            END;

     2260    16822    3           LIST$ = LIST$ -> LX_ITEM.LINK;

  16822 19 005117   200170 470500                    LDP0    LIST$,,AUTO
        19 005120   000007 236100                    LDQ     7,,PR0
        19 005121   200170 756100                    STQ     LIST$,,AUTO

PL6.E3A0      #005=Z9EB$DML_STATEMENT File=Z9EB.:Z8A6TSI                         SAT 08/09/97 13:50 Page:438
     2261    16823
     2262    16824    3       END;                                   /*V*   WHILE     */

  16824 19 005122   000000 116000 20                 CMPQ    0
        19 005123   005004 601000 19                 TNZ     s:16784

     2263    16825
     2264    16826    2     END;                                     /*V*  IF LX_LIST */

     2265    16827
     2266    16828    1       IF ERROR_FLAG = %TRUE            THEN

  16828 19 005124   200213 234100                    SZN     ERROR_FLAG,,AUTO
        19 005125   005127 605000 19                 TPL     s:16831

     2267    16829    1           RETURN;

  16829 19 005126   000000 702200 xent               TSX2  ! X66_ARET

     2268    16830
     2269    16831    1       RDC_WORD.ARGUMENTS = ARG_COUNT - 2;

  16831 19 005127   200146 720100                    LXL0    ARG_COUNT,,AUTO
        19 005130   777776 621010                    EAX1    -2,X0
        19 005131   200176 441100                    SXL1    CONST_WORD,,AUTO

     2270    16832    1       CALL BUILD_CONST_PARM(CONST_WORD, ADDR(RDC_FC_LX_ITEM));

  16832 19 005132   200046 630500                    EPPR0   RDC_FC_LX_ITEM,,AUTO
        19 005133   200274 450500                    STP0    OFFSET+28,,AUTO
        19 005134   200274 631500                    EPPR1   OFFSET+28,,AUTO
        19 005135   200236 451500                    STP1    PTR$+1,,AUTO
        19 005136   200176 633500                    EPPR3   CONST_WORD,,AUTO
        19 005137   200235 453500                    STP3    @ITEM$+1,,AUTO
        19 005140   000167 701000 19                 TSX1    BUILD_CONST_PARM
        19 005141   000000 011000                    NOP     0

PL6.E3A0      #005=Z9EB$DML_STATEMENT File=Z9EB.:Z8A6TSI                         SAT 08/09/97 13:50 Page:439
     2271    16833    1       CALL Z8EU$CREATE_IDENTIFIER_FROM_ST( O1COM.DML_IA$, ADDR(IA_LX_ITEM));

  16833 19 005142   200006 630500                    EPPR0   IA_LX_ITEM,,AUTO
        19 005143   200242 450500                    STP0    OFFSET+2,,AUTO
        19 005144   200242 631500                    EPPR1   OFFSET+2,,AUTO
        19 005145   200245 451500                    STP1    OFFSET+5,,AUTO
        19 005146   000013 236000 20                 LDQ     11
        19 005147   200244 756100                    STQ     OFFSET+4,,AUTO
        19 005150   200244 630500                    EPPR0   OFFSET+4,,AUTO
        19 005151   000002 631400 20                 EPPR1   2
        19 005152   000000 701000 xent               TSX1    Z8EU$CREATE_IDENTIFIER_FROM_ST
        19 005153   000000 011000                    NOP     0

     2272    16834
     2273    16835    1       ADDR(IA_LX_ITEM) -> LX_ITEM.LINK = ADDR(RDC_FC_LX_ITEM);

  16835 19 005154   200046 630500                    EPPR0   RDC_FC_LX_ITEM,,AUTO
        19 005155   200015 450500                    STP0    IA_LX_ITEM+7,,AUTO

     2274    16836
     2275    16837    1       IF LIST_HEAD$ -> LX_ITEM.ID = %LX_LIST        THEN

  16837 19 005156   200171 471500                    LDP1    LIST_HEAD$,,AUTO
        19 005157   100000 220100                    LDX0    0,,PR1
        19 005160   000002 100003                    CMPX0   2,DU
        19 005161   005164 601000 19                 TNZ     s:16840

     2276    16838    1           ADDR( RDC_FC_LX_ITEM) -> LX_ITEM.LINK = LIST_HEAD$ -> LX_LIST.HEAD$;

  16838 19 005162   100004 236100                    LDQ     4,,PR1
        19 005163   200055 756100                    STQ     RDC_FC_LX_ITEM+7,,AUTO

     2277    16839
     2278    16840    1       CALL Z9EB$BUILD_CODE(%DBRDY,ARG_COUNT,ADDR(IA_LX_ITEM));

  16840 19 005164   200006 633500                    EPPR3   IA_LX_ITEM,,AUTO
        19 005165   200242 453500                    STP3    OFFSET+2,,AUTO
PL6.E3A0      #005=Z9EB$DML_STATEMENT File=Z9EB.:Z8A6TSI                         SAT 08/09/97 13:50 Page:440
        19 005166   200242 634500                    EPPR4   OFFSET+2,,AUTO
        19 005167   200245 454500                    STP4    OFFSET+5,,AUTO
        19 005170   200146 635500                    EPPR5   ARG_COUNT,,AUTO
        19 005171   200244 455500                    STP5    OFFSET+4,,AUTO
        19 005172   000046 236000 20                 LDQ     38
        19 005173   200243 756100                    STQ     OFFSET+3,,AUTO
        19 005174   200243 630500                    EPPR0   OFFSET+3,,AUTO
        19 005175   000004 631400 20                 EPPR1   4
        19 005176   000000 701000 xent               TSX1    Z9EB$BUILD_CODE
        19 005177   000000 011000                    NOP     0

     2279    16841
     2280    16842    1       RETURN;

  16842 19 005200   000000 702200 xent               TSX2  ! X66_ARET

     2281    16843        %EJECT;
PL6.E3A0      #005=Z9EB$DML_STATEMENT File=Z9EB.:Z8A6TSI                         SAT 08/09/97 13:50 Page:441
     2282    16844        /*===========*/
     2283    16845    1     Z9EB$MODIFY :  ENTRY  (RECORD_SELECTION$, RETENTION$);

  16845 19 005201   000000 700200 xent  Z9EB$MODIFY  TSX0  ! X66_AUTO_2
        19 005202   000334 000002                    ZERO    220,2

     2284    16846        /*===========*/
     2285    16847
     2286    16848    1       IDENT$ = RECORD_SELECTION$;

  16848 19 005203   200003 470500                    LDP0    @RECORD_SELECTION$,,AUTO
        19 005204   000000 236100                    LDQ     0,,PR0
        19 005205   200203 756100                    STQ     IDENT$,,AUTO

     2287    16849    1       ALL_SET_LIST$ = RETENTION$;

  16849 19 005206   200004 471500                    LDP1    @RETENTION$,,AUTO
        19 005207   100000 236100                    LDQ     0,,PR1
        19 005210   200205 756100                    STQ     ALL_SET_LIST$,,AUTO

     2288    16850    1       ERROR_FLAG = %FALSE;

  16850 19 005211   200213 450100                    STZ     ERROR_FLAG,,AUTO

     2289    16851    1       CONTROL_WORD_CONST = 0;

  16851 19 005212   200214 450100                    STZ     CONTROL_WORD_CONST,,AUTO

     2290    16852    1       FIELD_LIST_CONTROL = 0;

  16852 19 005213   200215 450100                    STZ     FIELD_LIST_CONTROL,,AUTO

     2291    16853    1       SET_LIST_CONTROL = 0;

  16853 19 005214   200216 450100                    STZ     SET_LIST_CONTROL,,AUTO

     2292    16854    1       RECORD_ST$ = ADDR(NIL);
PL6.E3A0      #005=Z9EB$DML_STATEMENT File=Z9EB.:Z8A6TSI                         SAT 08/09/97 13:50 Page:442

  16854 19 005215   000000 236000 20                 LDQ     0
        19 005216   200152 756100                    STQ     RECORD_ST$,,AUTO

     2293    16855
     2294    16856    1       IF IDENT$ -> LX_ITEM.ID = %LX_TERMINAL AND IDENT$ -> LX_ITEM.SYMBOL = %EMPTY
             16856                THEN

  16856 19 005217   200203 473500                    LDP3    IDENT$,,AUTO
        19 005220   300000 220100                    LDX0    0,,PR3
        19 005221   005226 601000 19                 TNZ     s:16859
        19 005222   300003 235100                    LDA     3,,PR3
        19 005223   005226 601000 19                 TNZ     s:16859

     2295    16857    1           RECORD_ST$ = ADDR(NIL);

  16857 19 005224   200152 756100                    STQ     RECORD_ST$,,AUTO
        19 005225   005322 710000 19                 TRA     s:16896

     2296    16858    1       ELSE
     2297    16859    1           IF IDENT$ -> LX_LIST.COUNT = 1      THEN

  16859 19 005226   300002 235100                    LDA     2,,PR3
        19 005227   000001 115007                    CMPA    1,DL
        19 005230   005321 601000 19                 TNZ     s:16893

     2298    16860    1             IF IDENT$ -> LX_ITEM.B.ERROR     THEN

  16860 19 005231   300000 236100                    LDQ     0,,PR3
        19 005232   400000 316007                    CANQ    -131072,DL
        19 005233   005237 600000 19                 TZE     s:16867

     2299    16861    1                 ERROR_FLAG = %TRUE;

  16861 19 005234   400000 236003                    LDQ     -131072,DU
        19 005235   200213 756100                    STQ     ERROR_FLAG,,AUTO
        19 005236   005322 710000 19                 TRA     s:16896
PL6.E3A0      #005=Z9EB$DML_STATEMENT File=Z9EB.:Z8A6TSI                         SAT 08/09/97 13:50 Page:443

     2300    16862    1             ELSE
     2301    16863    2             DO;

     2302    16864                    %FISH(TRIAD = IDENT$ -> LX_LIST.HEAD$ -> LX_ETT_ITEM.ETT$,
     2303    16865                          RTN = REC_FIELD_ST$);

  16867 19 005237   300004 474500                    LDP4    4,,PR3
        19 005240   400001 236100                    LDQ     1,,PR4
        19 005241   200206 756100                    STQ     REC_FIELD_ST$,,AUTO

  16868 19 005242   200206 475500                    LDP5    REC_FIELD_ST$,,AUTO
        19 005243   500000 221100                    LDX1    0,,PR5
        19 005244   000751 101003                    CMPX1   489,DU
        19 005245   005255 603000 19                 TRC     s:16873

  16869 19 005246   200206 470500                    LDP0    REC_FIELD_ST$,,AUTO
        19 005247   000001 236100                    LDQ     1,,PR0
        19 005250   200206 756100                    STQ     REC_FIELD_ST$,,AUTO

  16870 19 005251   200206 470500                    LDP0    REC_FIELD_ST$,,AUTO
        19 005252   000000 220100                    LDX0    0,,PR0
        19 005253   000751 100003                    CMPX0   489,DU
        19 005254   005246 602000 19                 TNC     s:16869

     2304    16873    3               DO CASE ( REC_FIELD_ST$ -> SCALAR.B.DML_TYPE );

  16873 19 005255   200206 470500                    LDP0    REC_FIELD_ST$,,AUTO
        19 005256   000003 236100                    LDQ     3,,PR0
        19 005257   000015 772000                    QRL     13
        19 005260   000007 376007                    ANQ     7,DL
        19 005261   000004 116007                    CMPQ    4,DL
        19 005262   005264 602006 19                 TNC     s:16873+7,QL
        19 005263   005300 710000 19                 TRA     s:16883
        19 005264   005300 710000 19                 TRA     s:16883
        19 005265   005275 710000 19                 TRA     s:16880
        19 005266   005275 710000 19                 TRA     s:16880
PL6.E3A0      #005=Z9EB$DML_STATEMENT File=Z9EB.:Z8A6TSI                         SAT 08/09/97 13:50 Page:444
        19 005267   005270 710000 19                 TRA     s:16876

     2305    16874
     2306    16875    3                   CASE (%RECORD);

     2307    16876    3                       RECORD_ST$ = REC_FIELD_ST$;

  16876 19 005270   200206 236100                    LDQ     REC_FIELD_ST$,,AUTO
        19 005271   200152 756100                    STQ     RECORD_ST$,,AUTO

     2308    16877    3                       FIELD.COUNT = 0;

  16877 19 005272   000000 220003                    LDX0    0,DU
        19 005273   200215 740100                    STX0    FIELD_LIST_CONTROL,,AUTO
        19 005274   005322 710000 19                 TRA     s:16896

     2309    16878
     2310    16879    3                   CASE(%FIELD, %DATA_BASE_KEY);

     2311    16880    3                       RECORD_ST$ = ADDR(NIL);

  16880 19 005275   000000 236000 20                 LDQ     0
        19 005276   200152 756100                    STQ     RECORD_ST$,,AUTO
        19 005277   005322 710000 19                 TRA     s:16896

     2312    16881
     2313    16882    3                   CASE(ELSE);

     2314    16883    3                       CALL Z8AE$ERROR(%E$ITEM_NOT_RECORD_FIELD,

  16883 19 005300   200203 471500                    LDP1    IDENT$,,AUTO
        19 005301   100004 473500                    LDP3    4,,PR1
        19 005302   300006 634500                    EPPR4   6,,PR3
        19 005303   200244 454500                    STP4    OFFSET+4,,AUTO
        19 005304   300005 635500                    EPPR5   5,,PR3
        19 005305   200243 455500                    STP5    OFFSET+3,,AUTO
        19 005306   000050 236000 20                 LDQ     40
PL6.E3A0      #005=Z9EB$DML_STATEMENT File=Z9EB.:Z8A6TSI                         SAT 08/09/97 13:50 Page:445
        19 005307   200242 756100                    STQ     OFFSET+2,,AUTO
        19 005310   200242 630500                    EPPR0   OFFSET+2,,AUTO
        19 005311   000004 631400 20                 EPPR1   4
        19 005312   000000 701000 xent               TSX1    Z8AE$ERROR
        19 005313   000000 011000                    NOP     0

     2315    16884    3                             IDENT$ -> LX_LIST.HEAD$ -> LX_ITEM.LINE,
     2316    16885    3                             IDENT$ -> LX_LIST.HEAD$ -> LX_ITEM.COLUMN);
     2317    16886    3                       RECORD_ST$ = ADDR(NIL);

  16886 19 005314   000000 236000 20                 LDQ     0
        19 005315   200152 756100                    STQ     RECORD_ST$,,AUTO

     2318    16887    3                       ERROR_FLAG = %TRUE;

  16887 19 005316   400000 236003                    LDQ     -131072,DU
        19 005317   200213 756100                    STQ     ERROR_FLAG,,AUTO

     2319    16888
     2320    16889    3               END;      /*V*   CASE     SCALAR.B.DML_TYPE   */

     2321    16890    2             END;          /*V*   IF COUNT = 1                 */

  16890 19 005320   005322 710000 19                 TRA     s:16896

     2322    16891
     2323    16892    1           ELSE
     2324    16893    1               RECORD_ST$ = ADDR(NIL);

  16893 19 005321   200152 756100                    STQ     RECORD_ST$,,AUTO

     2325    16894
     2326    16895
     2327    16896    1       IF (RECORD_ST$ = ADDR(NIL)) AND (IDENT$ -> LX_ITEM.ID = %LX_LIST)  THEN

  16896 19 005322   200152 236100                    LDQ     RECORD_ST$,,AUTO
        19 005323   000000 116000 20                 CMPQ    0
PL6.E3A0      #005=Z9EB$DML_STATEMENT File=Z9EB.:Z8A6TSI                         SAT 08/09/97 13:50 Page:446
        19 005324   005440 601000 19                 TNZ     s:16939
        19 005325   200203 470500                    LDP0    IDENT$,,AUTO
        19 005326   000000 220100                    LDX0    0,,PR0
        19 005327   000002 100003                    CMPX0   2,DU
        19 005330   005440 601000 19                 TNZ     s:16939

     2328    16897    2         DO;

     2329    16898    2           RVA_TYPE = %RVA_FIELD;

  16898 19 005331   000003 221003                    LDX1    3,DU
        19 005332   200147 741100                    STX1    RVA_TYPE,,AUTO

     2330    16899    2           LIST$ = IDENT$ -> LX_LIST.HEAD$;

  16899 19 005333   000004 236100                    LDQ     4,,PR0
        19 005334   200170 756100                    STQ     LIST$,,AUTO

     2331    16900
     2332    16901    3           DO WHILE LIST$ ~= ADDR(NIL);

  16901 19 005335   005436 710000 19                 TRA     s:16935

     2333    16902
     2334    16903    3             IF LIST$ -> LX_ITEM.B.ERROR    THEN

  16903 19 005336   200170 470500                    LDP0    LIST$,,AUTO
        19 005337   000000 236100                    LDQ     0,,PR0
        19 005340   400000 316007                    CANQ    -131072,DL
        19 005341   005345 600000 19                 TZE     s:16909

     2335    16904    3                 ERROR_FLAG = %TRUE;

  16904 19 005342   400000 236003                    LDQ     -131072,DU
        19 005343   200213 756100                    STQ     ERROR_FLAG,,AUTO
        19 005344   005433 710000 19                 TRA     s:16934

PL6.E3A0      #005=Z9EB$DML_STATEMENT File=Z9EB.:Z8A6TSI                         SAT 08/09/97 13:50 Page:447
     2336    16905    3             ELSE
     2337    16906    4              DO;

     2338    16907                    %FISH( TRIAD = LIST$ -> LX_ETT_ITEM.ETT$, RTN = FIELD_ST$);

  16909 19 005345   000001 236100                    LDQ     1,,PR0
        19 005346   200207 756100                    STQ     FIELD_ST$,,AUTO

  16910 19 005347   200207 471500                    LDP1    FIELD_ST$,,AUTO
        19 005350   100000 220100                    LDX0    0,,PR1
        19 005351   000751 100003                    CMPX0   489,DU
        19 005352   005362 603000 19                 TRC     s:16915

  16911 19 005353   200207 470500                    LDP0    FIELD_ST$,,AUTO
        19 005354   000001 236100                    LDQ     1,,PR0
        19 005355   200207 756100                    STQ     FIELD_ST$,,AUTO

  16912 19 005356   200207 470500                    LDP0    FIELD_ST$,,AUTO
        19 005357   000000 220100                    LDX0    0,,PR0
        19 005360   000751 100003                    CMPX0   489,DU
        19 005361   005353 602000 19                 TNC     s:16911

     2339    16915    4               IF FIELD_ST$ -> SCALAR.B.DML_TYPE ~= %FIELD       AND

  16915 19 005362   200207 470500                    LDP0    FIELD_ST$,,AUTO
        19 005363   000003 236100                    LDQ     3,,PR0
        19 005364   160000 376007                    ANQ     57344,DL
        19 005365   020000 116007                    CMPQ    8192,DL
        19 005366   005407 600000 19                 TZE     s:16925
        19 005367   040000 116007                    CMPQ    16384,DL
        19 005370   005407 600000 19                 TZE     s:16925

     2340    16916    4                    FIELD_ST$ -> SCALAR.B.DML_TYPE ~= %DATA_BASE_KEY   THEN
     2341    16917    5                 DO;

     2342    16918    5                   CALL Z8AE$ERROR(%E$ITEM_NOT_FIELD,

PL6.E3A0      #005=Z9EB$DML_STATEMENT File=Z9EB.:Z8A6TSI                         SAT 08/09/97 13:50 Page:448
  16918 19 005371   200170 236100                    LDQ     LIST$,,AUTO
        19 005372   000006 036003                    ADLQ    6,DU
        19 005373   200244 756100                    STQ     OFFSET+4,,AUTO
        19 005374   200170 236100                    LDQ     LIST$,,AUTO
        19 005375   000005 036003                    ADLQ    5,DU
        19 005376   000052 235000 20                 LDA     42
        19 005377   200242 757100                    STAQ    OFFSET+2,,AUTO
        19 005400   200242 630500                    EPPR0   OFFSET+2,,AUTO
        19 005401   000004 631400 20                 EPPR1   4
        19 005402   000000 701000 xent               TSX1    Z8AE$ERROR
        19 005403   000000 011000                    NOP     0

     2343    16919    5                                   LIST$ -> LX_ITEM.LINE,
     2344    16920    5                                   LIST$ -> LX_ITEM.COLUMN);
     2345    16921    5                   ERROR_FLAG = %TRUE;

  16921 19 005404   400000 236003                    LDQ     -131072,DU
        19 005405   200213 756100                    STQ     ERROR_FLAG,,AUTO

     2346    16922    5                 END;

  16922 19 005406   005433 710000 19                 TRA     s:16934

     2347    16923    4               ELSE
     2348    16924    5                 DO;

     2349    16925    5                   IF FIELD_ST$ -> SCALAR.B.DML_RVA = %FALSE           THEN

  16925 19 005407   000003 236100                    LDQ     3,,PR0
        19 005410   002000 316007                    CANQ    1024,DL
        19 005411   005422 601000 19                 TNZ     s:16928

     2350    16926    5                       CALL Z9EB$BUILD_RVA_TABLE(FIELD_ST$,RVA_TYPE);

  16926 19 005412   200147 631500                    EPPR1   RVA_TYPE,,AUTO
        19 005413   200243 451500                    STP1    OFFSET+3,,AUTO
        19 005414   200207 633500                    EPPR3   FIELD_ST$,,AUTO
PL6.E3A0      #005=Z9EB$DML_STATEMENT File=Z9EB.:Z8A6TSI                         SAT 08/09/97 13:50 Page:449
        19 005415   200242 453500                    STP3    OFFSET+2,,AUTO
        19 005416   200242 630500                    EPPR0   OFFSET+2,,AUTO
        19 005417   000002 631400 20                 EPPR1   2
        19 005420   000000 701000 xent               TSX1    Z9EB$BUILD_RVA_TABLE
        19 005421   000000 011000                    NOP     0

     2351    16927
     2352    16928    5                   CALL BUILD_ETT_PARM( FIELD_ST$, LIST$);

  16928 19 005422   200170 630500                    EPPR0   LIST$,,AUTO
        19 005423   200234 450500                    STP0    CONST_WORD+1,,AUTO
        19 005424   200207 631500                    EPPR1   FIELD_ST$,,AUTO
        19 005425   200233 451500                    STP1    RVA_TYPE+3,,AUTO
        19 005426   000251 701000 19                 TSX1    BUILD_ETT_PARM
        19 005427   000000 011000                    NOP     0

     2353    16929    5                   FIELD.COUNT = FIELD.COUNT + 1;

  16929 19 005430   200215 220100                    LDX0    FIELD_LIST_CONTROL,,AUTO
        19 005431   000001 621010                    EAX1    1,X0
        19 005432   200215 741100                    STX1    FIELD_LIST_CONTROL,,AUTO

     2354    16930
     2355    16931    5                 END;

     2356    16932    4              END;

     2357    16933
     2358    16934    3               LIST$ = LIST$ -> LX_ITEM.LINK;

  16934 19 005433   200170 470500                    LDP0    LIST$,,AUTO
        19 005434   000007 236100                    LDQ     7,,PR0
        19 005435   200170 756100                    STQ     LIST$,,AUTO

     2359    16935    3           END;

  16935 19 005436   000000 116000 20                 CMPQ    0
PL6.E3A0      #005=Z9EB$DML_STATEMENT File=Z9EB.:Z8A6TSI                         SAT 08/09/97 13:50 Page:450
        19 005437   005336 601000 19                 TNZ     s:16903

     2360    16936
     2361    16937    2         END;                           /*V*    IF    */

     2362    16938
     2363    16939    1       IF ALL_SET_LIST$ -> LX_ITEM.ID = %LX_TERMINAL AND ALL_SET_LIST$ -> LX_ITEM.
             16939                SYMBOL = %EMPTY      THEN

  16939 19 005440   200205 470500                    LDP0    ALL_SET_LIST$,,AUTO
        19 005441   000000 220100                    LDX0    0,,PR0
        19 005442   005451 601000 19                 TNZ     s:16948
        19 005443   000003 235100                    LDA     3,,PR0
        19 005444   005451 601000 19                 TNZ     s:16948

     2364    16940    2         DO;

     2365    16941    2           CONTROL_WORD_CONST = 0;

  16941 19 005445   200214 450100                    STZ     CONTROL_WORD_CONST,,AUTO

     2366    16942    2           SET.COUNT = 0;

  16942 19 005446   000000 220003                    LDX0    0,DU
        19 005447   200216 740100                    STX0    SET_LIST_CONTROL,,AUTO

     2367    16943    2         END;

  16943 19 005450   005633 710000 19                 TRA     s:17007

     2368    16944
     2369    16945    1       ELSE
     2370    16946
     2371    16947    2         DO;

     2372    16948    2           OPTION$ = ALL_SET_LIST$ -> LX_LIST.HEAD$;

PL6.E3A0      #005=Z9EB$DML_STATEMENT File=Z9EB.:Z8A6TSI                         SAT 08/09/97 13:50 Page:451
  16948 19 005451   000004 236100                    LDQ     4,,PR0
        19 005452   200202 756100                    STQ     OPTION$,,AUTO

     2373    16949    2           ALL_LIST$ = ALL_SET_LIST$ -> LX_LIST.TAIL$;

  16949 19 005453   000001 236100                    LDQ     1,,PR0
        19 005454   200210 756100                    STQ     ALL_LIST$,,AUTO

     2374    16950
     2375    16951    2           IF OPTION$ -> LX_ITEM.SYMBOL = %RSV_WRD_ONLY   THEN

  16951 19 005455   200202 471500                    LDP1    OPTION$,,AUTO
        19 005456   100003 235100                    LDA     3,,PR1
        19 005457   000476 115007                    CMPA    318,DL
        19 005460   005463 601000 19                 TNZ     s:16953

     2376    16952    2               CONTROL_CONST.ONLY = %TRUE;

  16952 19 005461   400000 236003                    LDQ     -131072,DU
        19 005462   200214 256100                    ORSQ    CONTROL_WORD_CONST,,AUTO

     2377    16953    2           IF ALL_LIST$ -> LX_ITEM.ID = %LX_TERMINAL AND ALL_LIST$ -> LX_ITEM.SYMBOL =
             16953                    %RSV_WRD_ALL          THEN

  16953 19 005463   200210 473500                    LDP3    ALL_LIST$,,AUTO
        19 005464   300000 220100                    LDX0    0,,PR3
        19 005465   005476 601000 19                 TNZ     s:16961
        19 005466   300003 235100                    LDA     3,,PR3
        19 005467   000046 115007                    CMPA    38,DL
        19 005470   005476 601000 19                 TNZ     s:16961

     2378    16954    3             DO;

     2379    16955    3               CONTROL_CONST.ALL = %TRUE;

  16955 19 005471   200000 236003                    LDQ     65536,DU
        19 005472   200214 256100                    ORSQ    CONTROL_WORD_CONST,,AUTO
PL6.E3A0      #005=Z9EB$DML_STATEMENT File=Z9EB.:Z8A6TSI                         SAT 08/09/97 13:50 Page:452

     2380    16956    3               SET.COUNT = 0;

  16956 19 005473   000000 220003                    LDX0    0,DU
        19 005474   200216 740100                    STX0    SET_LIST_CONTROL,,AUTO

     2381    16957    3             END;

  16957 19 005475   005633 710000 19                 TRA     s:17007

     2382    16958    2           ELSE
     2383    16959
     2384    16960    3             DO;

     2385    16961    3               LIST$ = ALL_LIST$ -> LX_LIST.HEAD$;

  16961 19 005476   300004 236100                    LDQ     4,,PR3
        19 005477   200170 756100                    STQ     LIST$,,AUTO

     2386    16962    3               RVA_TYPE = %RVA_SET;

  16962 19 005500   000001 220003                    LDX0    1,DU
        19 005501   200147 740100                    STX0    RVA_TYPE,,AUTO

     2387    16963    3               SET.COUNT = 0;

  16963 19 005502   000000 221003                    LDX1    0,DU
        19 005503   200216 741100                    STX1    SET_LIST_CONTROL,,AUTO

     2388    16964
     2389    16965    4               DO WHILE LIST$ ~= ADDR(NIL);

  16965 19 005504   005631 710000 19                 TRA     s:17003

     2390    16966    4                 IF LIST$ ->  LX_ITEM.B.ERROR   THEN

  16966 19 005505   200170 470500                    LDP0    LIST$,,AUTO
PL6.E3A0      #005=Z9EB$DML_STATEMENT File=Z9EB.:Z8A6TSI                         SAT 08/09/97 13:50 Page:453
        19 005506   000000 236100                    LDQ     0,,PR0
        19 005507   400000 316007                    CANQ    -131072,DL
        19 005510   005514 600000 19                 TZE     s:16972

     2391    16967    4                    ERROR_FLAG = %TRUE;

  16967 19 005511   400000 236003                    LDQ     -131072,DU
        19 005512   200213 756100                    STQ     ERROR_FLAG,,AUTO
        19 005513   005626 710000 19                 TRA     s:17002

     2392    16968    4                 ELSE
     2393    16969    5                   DO;

     2394    16970                            %FISH( TRIAD = LIST$ -> LX_ETT_ITEM.ETT$, RTN = SET_ST$);

  16972 19 005514   000001 236100                    LDQ     1,,PR0
        19 005515   200163 756100                    STQ     SET_ST$,,AUTO

  16973 19 005516   200163 471500                    LDP1    SET_ST$,,AUTO
        19 005517   100000 220100                    LDX0    0,,PR1
        19 005520   000751 100003                    CMPX0   489,DU
        19 005521   005531 603000 19                 TRC     s:16978

  16974 19 005522   200163 470500                    LDP0    SET_ST$,,AUTO
        19 005523   000001 236100                    LDQ     1,,PR0
        19 005524   200163 756100                    STQ     SET_ST$,,AUTO

  16975 19 005525   200163 470500                    LDP0    SET_ST$,,AUTO
        19 005526   000000 220100                    LDX0    0,,PR0
        19 005527   000751 100003                    CMPX0   489,DU
        19 005530   005522 602000 19                 TNC     s:16974

     2395    16978    5                       IF SET_ST$ -> DML_ITEM.ID ~= %DML_SET             THEN

  16978 19 005531   200163 470500                    LDP0    SET_ST$,,AUTO
        19 005532   000000 220100                    LDX0    0,,PR0
        19 005533   000753 100003                    CMPX0   491,DU
PL6.E3A0      #005=Z9EB$DML_STATEMENT File=Z9EB.:Z8A6TSI                         SAT 08/09/97 13:50 Page:454
        19 005534   005553 600000 19                 TZE     s:16987

     2396    16979    6                         DO;

     2397    16980    6                           CALL Z8AE$ERROR(%E$ITEM_NOT_A_SET,

  16980 19 005535   200170 236100                    LDQ     LIST$,,AUTO
        19 005536   000006 036003                    ADLQ    6,DU
        19 005537   200244 756100                    STQ     OFFSET+4,,AUTO
        19 005540   200170 236100                    LDQ     LIST$,,AUTO
        19 005541   000005 036003                    ADLQ    5,DU
        19 005542   000007 235000 20                 LDA     7
        19 005543   200242 757100                    STAQ    OFFSET+2,,AUTO
        19 005544   200242 630500                    EPPR0   OFFSET+2,,AUTO
        19 005545   000004 631400 20                 EPPR1   4
        19 005546   000000 701000 xent               TSX1    Z8AE$ERROR
        19 005547   000000 011000                    NOP     0

     2398    16981    6                                           LIST$ -> LX_ITEM.LINE,
     2399    16982    6                                           LIST$ -> LX_ITEM.COLUMN);
     2400    16983    6                           ERROR_FLAG = %TRUE;

  16983 19 005550   400000 236003                    LDQ     -131072,DU
        19 005551   200213 756100                    STQ     ERROR_FLAG,,AUTO

     2401    16984    6                         END;

  16984 19 005552   005623 710000 19                 TRA     s:17000

     2402    16985    5                       ELSE
     2403    16986    6                         DO;

     2404    16987    6                           IF SET_ST$ -> SCALAR.B.DML_RVA = %FALSE      THEN

  16987 19 005553   000003 236100                    LDQ     3,,PR0
        19 005554   002000 316007                    CANQ    1024,DL
        19 005555   005566 601000 19                 TNZ     s:16989
PL6.E3A0      #005=Z9EB$DML_STATEMENT File=Z9EB.:Z8A6TSI                         SAT 08/09/97 13:50 Page:455

     2405    16988    6                               CALL Z9EB$BUILD_RVA_TABLE(SET_ST$,RVA_TYPE);

  16988 19 005556   200147 631500                    EPPR1   RVA_TYPE,,AUTO
        19 005557   200243 451500                    STP1    OFFSET+3,,AUTO
        19 005560   200163 633500                    EPPR3   SET_ST$,,AUTO
        19 005561   200242 453500                    STP3    OFFSET+2,,AUTO
        19 005562   200242 630500                    EPPR0   OFFSET+2,,AUTO
        19 005563   000002 631400 20                 EPPR1   2
        19 005564   000000 701000 xent               TSX1    Z9EB$BUILD_RVA_TABLE
        19 005565   000000 011000                    NOP     0

     2406    16989    6                           CALL BUILD_ETT_PARM( SET_ST$, LIST$);

  16989 19 005566   200170 630500                    EPPR0   LIST$,,AUTO
        19 005567   200234 450500                    STP0    CONST_WORD+1,,AUTO
        19 005570   200163 631500                    EPPR1   SET_ST$,,AUTO
        19 005571   200233 451500                    STP1    RVA_TYPE+3,,AUTO
        19 005572   000251 701000 19                 TSX1    BUILD_ETT_PARM
        19 005573   000000 011000                    NOP     0

     2407    16990    6                           IF RECORD_ST$ ~= ADDR(NIL)   THEN

  16990 19 005574   200152 236100                    LDQ     RECORD_ST$,,AUTO
        19 005575   000000 116000 20                 CMPQ    0
        19 005576   005623 600000 19                 TZE     s:17000

     2408    16991    6                             CALL MEMBERSHIP(RECORD_ST$,SET_ST$,%DBMOD)

  16991 19 005577   000053 236000 20                 LDQ     43
        19 005600   200223 756100                    STQ     @FIND_CONTROL$+1,,AUTO
        19 005601   200163 630500                    EPPR0   SET_ST$,,AUTO
        19 005602   200222 450500                    STP0    @CODE+1,,AUTO
        19 005603   200152 631500                    EPPR1   RECORD_ST$,,AUTO
        19 005604   200221 451500                    STP1    SET_LIST_CONTROL+3,,AUTO
        19 005605   000003 701000 19                 TSX1    MEMBERSHIP
        19 005606   005610 702000 19                 TSX2    s:16994
PL6.E3A0      #005=Z9EB$DML_STATEMENT File=Z9EB.:Z8A6TSI                         SAT 08/09/97 13:50 Page:456
        19 005607   005623 710000 19                 TRA     s:17000

     2409    16992    6                                WHENALTRETURN
     2410    16993    7                                  DO;

     2411    16994    7                                    CALL Z8AE$ERROR(%E$INVALID_MEMBER,

  16994 19 005610   200170 236100                    LDQ     LIST$,,AUTO
        19 005611   000006 036003                    ADLQ    6,DU
        19 005612   200244 756100                    STQ     OFFSET+4,,AUTO
        19 005613   200170 236100                    LDQ     LIST$,,AUTO
        19 005614   000005 036003                    ADLQ    5,DU
        19 005615   000031 235000 20                 LDA     25
        19 005616   200242 757100                    STAQ    OFFSET+2,,AUTO
        19 005617   200242 630500                    EPPR0   OFFSET+2,,AUTO
        19 005620   000004 631400 20                 EPPR1   4
        19 005621   000000 701000 xent               TSX1    Z8AE$ERROR
        19 005622   000000 011000                    NOP     0

     2412    16995    7                                                    LIST$ -> LX_ITEM.LINE,
     2413    16996    7                                                    LIST$ -> LX_ITEM.COLUMN);
     2414    16997    7                                 END;

     2415    16998    6                         END;

     2416    16999
     2417    17000    5                       SET.COUNT = SET.COUNT + 1;

  17000 19 005623   200216 220100                    LDX0    SET_LIST_CONTROL,,AUTO
        19 005624   000001 621010                    EAX1    1,X0
        19 005625   200216 741100                    STX1    SET_LIST_CONTROL,,AUTO

     2418    17001    5                   END;

     2419    17002    4                   LIST$ = LIST$ -> LX_ITEM.LINK;

  17002 19 005626   200170 470500                    LDP0    LIST$,,AUTO
PL6.E3A0      #005=Z9EB$DML_STATEMENT File=Z9EB.:Z8A6TSI                         SAT 08/09/97 13:50 Page:457
        19 005627   000007 236100                    LDQ     7,,PR0
        19 005630   200170 756100                    STQ     LIST$,,AUTO

     2420    17003    4               END;

  17003 19 005631   000000 116000 20                 CMPQ    0
        19 005632   005505 601000 19                 TNZ     s:16966

     2421    17004    3             END;

     2422    17005    2         END;

     2423    17006
     2424    17007    1       RVA_TYPE = %RVA_RECORD;

  17007 19 005633   000002 220003                    LDX0    2,DU
        19 005634   200147 740100                    STX0    RVA_TYPE,,AUTO

     2425    17008    1       IF RECORD_ST$ = ADDR(NIL)    THEN

  17008 19 005635   200152 236100                    LDQ     RECORD_ST$,,AUTO
        19 005636   000000 116000 20                 CMPQ    0
        19 005637   005655 601000 19                 TNZ     s:17018

     2426    17009    2         DO;

     2427    17010    2           IF O1COM.NILL_RVA = %FALSE       THEN

  17010 19 005640   000105 234000 xsym               SZN     O1COM+69
        19 005641   005671 604000 19                 TMI     s:17021

     2428    17011    3             DO;

     2429    17012    3               RVA_TYPE = %RVA_NULL;

  17012 19 005642   000004 221003                    LDX1    4,DU
        19 005643   200147 741100                    STX1    RVA_TYPE,,AUTO
PL6.E3A0      #005=Z9EB$DML_STATEMENT File=Z9EB.:Z8A6TSI                         SAT 08/09/97 13:50 Page:458

     2430    17013    3               CALL Z9EB$BUILD_RVA_TABLE(RECORD_ST$,RVA_TYPE);

  17013 19 005644   200147 630500                    EPPR0   RVA_TYPE,,AUTO
        19 005645   200243 450500                    STP0    OFFSET+3,,AUTO
        19 005646   200152 631500                    EPPR1   RECORD_ST$,,AUTO
        19 005647   200242 451500                    STP1    OFFSET+2,,AUTO
        19 005650   200242 630500                    EPPR0   OFFSET+2,,AUTO
        19 005651   000002 631400 20                 EPPR1   2
        19 005652   000000 701000 xent               TSX1    Z9EB$BUILD_RVA_TABLE
        19 005653   000000 011000                    NOP     0

     2431    17014    3             END;

     2432    17015    2         END;

  17015 19 005654   005671 710000 19                 TRA     s:17021

     2433    17016
     2434    17017    1       ELSE
     2435    17018    1           IF RECORD_ST$ -> SCALAR.B.DML_RVA = %FALSE    THEN

  17018 19 005655   200152 470500                    LDP0    RECORD_ST$,,AUTO
        19 005656   000003 236100                    LDQ     3,,PR0
        19 005657   002000 316007                    CANQ    1024,DL
        19 005660   005671 601000 19                 TNZ     s:17021

     2436    17019    1               CALL Z9EB$BUILD_RVA_TABLE(RECORD_ST$,RVA_TYPE);

  17019 19 005661   200147 631500                    EPPR1   RVA_TYPE,,AUTO
        19 005662   200243 451500                    STP1    OFFSET+3,,AUTO
        19 005663   200152 633500                    EPPR3   RECORD_ST$,,AUTO
        19 005664   200242 453500                    STP3    OFFSET+2,,AUTO
        19 005665   200242 630500                    EPPR0   OFFSET+2,,AUTO
        19 005666   000002 631400 20                 EPPR1   2
        19 005667   000000 701000 xent               TSX1    Z9EB$BUILD_RVA_TABLE
        19 005670   000000 011000                    NOP     0
PL6.E3A0      #005=Z9EB$DML_STATEMENT File=Z9EB.:Z8A6TSI                         SAT 08/09/97 13:50 Page:459

     2437    17020
     2438    17021    1       IF ERROR_FLAG = %FALSE  THEN

  17021 19 005671   200213 234100                    SZN     ERROR_FLAG,,AUTO
        19 005672   006020 604000 19                 TMI     s:17053

     2439    17022    2         DO;

     2440    17023    2           CALL Z8EU$CREATE_IDENTIFIER_FROM_ST(O1COM.DML_IA$,ADDR(IA_LX_ITEM));

  17023 19 005673   200006 630500                    EPPR0   IA_LX_ITEM,,AUTO
        19 005674   200242 450500                    STP0    OFFSET+2,,AUTO
        19 005675   200242 631500                    EPPR1   OFFSET+2,,AUTO
        19 005676   200245 451500                    STP1    OFFSET+5,,AUTO
        19 005677   000013 236000 20                 LDQ     11
        19 005700   200244 756100                    STQ     OFFSET+4,,AUTO
        19 005701   200244 630500                    EPPR0   OFFSET+4,,AUTO
        19 005702   000002 631400 20                 EPPR1   2
        19 005703   000000 701000 xent               TSX1    Z8EU$CREATE_IDENTIFIER_FROM_ST
        19 005704   000000 011000                    NOP     0

     2441    17024
     2442    17025    2           CALL BUILD_PARM( RECORD_ST$, ADDR(RC_LX_ITEM));

  17025 19 005705   200026 630500                    EPPR0   RC_LX_ITEM,,AUTO
        19 005706   200275 450500                    STP0    OFFSET+29,,AUTO
        19 005707   200275 631500                    EPPR1   OFFSET+29,,AUTO
        19 005710   200236 451500                    STP1    PTR$+1,,AUTO
        19 005711   200152 633500                    EPPR3   RECORD_ST$,,AUTO
        19 005712   200235 453500                    STP3    @ITEM$+1,,AUTO
        19 005713   000107 701000 19                 TSX1    BUILD_PARM
        19 005714   000000 011000                    NOP     0

     2443    17026    2           ADDR(IA_LX_ITEM) -> LX_ITEM.LINK = ADDR(RC_LX_ITEM);

  17026 19 005715   200026 630500                    EPPR0   RC_LX_ITEM,,AUTO
PL6.E3A0      #005=Z9EB$DML_STATEMENT File=Z9EB.:Z8A6TSI                         SAT 08/09/97 13:50 Page:460
        19 005716   200015 450500                    STP0    IA_LX_ITEM+7,,AUTO

     2444    17027
     2445    17028    2           CALL BUILD_CONST_PARM( CONTROL_WORD_CONST, ADDR(MC_LX_ITEM));

  17028 19 005717   200056 631500                    EPPR1   MC_LX_ITEM,,AUTO
        19 005720   200276 451500                    STP1    OFFSET+30,,AUTO
        19 005721   200276 633500                    EPPR3   OFFSET+30,,AUTO
        19 005722   200236 453500                    STP3    PTR$+1,,AUTO
        19 005723   200214 634500                    EPPR4   CONTROL_WORD_CONST,,AUTO
        19 005724   200235 454500                    STP4    @ITEM$+1,,AUTO
        19 005725   000167 701000 19                 TSX1    BUILD_CONST_PARM
        19 005726   000000 011000                    NOP     0

     2446    17029    2           ADDR(RC_LX_ITEM) -> LX_ITEM.LINK = ADDR(MC_LX_ITEM);

  17029 19 005727   200056 630500                    EPPR0   MC_LX_ITEM,,AUTO
        19 005730   200035 450500                    STP0    RC_LX_ITEM+7,,AUTO

     2447    17030
     2448    17031    2           CALL BUILD_CONST_PARM( FIELD_LIST_CONTROL, ADDR(FL_ID_LX_ITEM));

  17031 19 005731   200066 631500                    EPPR1   FL_ID_LX_ITEM,,AUTO
        19 005732   200277 451500                    STP1    OFFSET+31,,AUTO
        19 005733   200277 633500                    EPPR3   OFFSET+31,,AUTO
        19 005734   200236 453500                    STP3    PTR$+1,,AUTO
        19 005735   200215 634500                    EPPR4   FIELD_LIST_CONTROL,,AUTO
        19 005736   200235 454500                    STP4    @ITEM$+1,,AUTO
        19 005737   000167 701000 19                 TSX1    BUILD_CONST_PARM
        19 005740   000000 011000                    NOP     0

     2449    17032    2           ADDR(MC_LX_ITEM) -> LX_ITEM.LINK  = ADDR(FL_ID_LX_ITEM);

  17032 19 005741   200066 630500                    EPPR0   FL_ID_LX_ITEM,,AUTO
        19 005742   200065 450500                    STP0    MC_LX_ITEM+7,,AUTO

     2450    17033
PL6.E3A0      #005=Z9EB$DML_STATEMENT File=Z9EB.:Z8A6TSI                         SAT 08/09/97 13:50 Page:461
     2451    17034    2           CALL BUILD_CONST_PARM( SET_LIST_CONTROL, ADDR(EC_SL_LX_ITEM));

  17034 19 005743   200126 631500                    EPPR1   EC_SL_LX_ITEM,,AUTO
        19 005744   200300 451500                    STP1    OFFSET+32,,AUTO
        19 005745   200300 633500                    EPPR3   OFFSET+32,,AUTO
        19 005746   200236 453500                    STP3    PTR$+1,,AUTO
        19 005747   200216 634500                    EPPR4   SET_LIST_CONTROL,,AUTO
        19 005750   200235 454500                    STP4    @ITEM$+1,,AUTO
        19 005751   000167 701000 19                 TSX1    BUILD_CONST_PARM
        19 005752   000000 011000                    NOP     0

     2452    17035    2           ADDR(FL_ID_LX_ITEM) -> LX_ITEM.LINK = ADDR(EC_SL_LX_ITEM);

  17035 19 005753   200126 630500                    EPPR0   EC_SL_LX_ITEM,,AUTO
        19 005754   200075 450500                    STP0    FL_ID_LX_ITEM+7,,AUTO

     2453    17036
     2454    17037    2           TAIL$ = ADDR(EC_SL_LX_ITEM);

  17037 19 005755   200126 631500                    EPPR1   EC_SL_LX_ITEM,,AUTO
        19 005756   200155 451500                    STP1    TAIL$,,AUTO

     2455    17038
     2456    17039    2           IF FIELD.COUNT ~= 0  THEN

  17039 19 005757   200215 220100                    LDX0    FIELD_LIST_CONTROL,,AUTO
        19 005760   005766 600000 19                 TZE     s:17045

     2457    17040    3             DO;

     2458    17041    3               TAIL$ -> LX_ITEM.LINK = IDENT$ -> LX_LIST.HEAD$;

  17041 19 005761   200203 473500                    LDP3    IDENT$,,AUTO
        19 005762   300004 236100                    LDQ     4,,PR3
        19 005763   100007 756100                    STQ     7,,PR1

     2459    17042    3               TAIL$ = IDENT$ -> LX_LIST.TAIL$;
PL6.E3A0      #005=Z9EB$DML_STATEMENT File=Z9EB.:Z8A6TSI                         SAT 08/09/97 13:50 Page:462

  17042 19 005764   300001 236100                    LDQ     1,,PR3
        19 005765   200155 756100                    STQ     TAIL$,,AUTO

     2460    17043    3             END;

     2461    17044
     2462    17045    2           IF SET.COUNT ~= 0                THEN

  17045 19 005766   200216 220100                    LDX0    SET_LIST_CONTROL,,AUTO
        19 005767   005774 600000 19                 TZE     s:17048

     2463    17046    2               TAIL$ -> LX_ITEM.LINK = ALL_LIST$ -> LX_LIST.HEAD$;

  17046 19 005770   200210 470500                    LDP0    ALL_LIST$,,AUTO
        19 005771   000004 236100                    LDQ     4,,PR0
        19 005772   200155 471500                    LDP1    TAIL$,,AUTO
        19 005773   100007 756100                    STQ     7,,PR1

     2464    17047
     2465    17048    2           ARG_COUNT = 5 + FIELD.COUNT + SET.COUNT;

  17048 19 005774   200216 235100                    LDA     SET_LIST_CONTROL,,AUTO
        19 005775   000022 771000                    ARL     18
        19 005776   200242 755100                    STA     OFFSET+2,,AUTO
        19 005777   200215 236100                    LDQ     FIELD_LIST_CONTROL,,AUTO
        19 006000   000022 772000                    QRL     18
        19 006001   200242 036100                    ADLQ    OFFSET+2,,AUTO
        19 006002   000005 036007                    ADLQ    5,DL
        19 006003   200146 756100                    STQ     ARG_COUNT,,AUTO

     2466    17049    2           CALL Z9EB$BUILD_CODE(%DBMOD, ARG_COUNT, ADDR(IA_LX_ITEM));

  17049 19 006004   200006 630500                    EPPR0   IA_LX_ITEM,,AUTO
        19 006005   200242 450500                    STP0    OFFSET+2,,AUTO
        19 006006   200242 631500                    EPPR1   OFFSET+2,,AUTO
        19 006007   200245 451500                    STP1    OFFSET+5,,AUTO
PL6.E3A0      #005=Z9EB$DML_STATEMENT File=Z9EB.:Z8A6TSI                         SAT 08/09/97 13:50 Page:463
        19 006010   200146 633500                    EPPR3   ARG_COUNT,,AUTO
        19 006011   200244 453500                    STP3    OFFSET+4,,AUTO
        19 006012   000053 236000 20                 LDQ     43
        19 006013   200243 756100                    STQ     OFFSET+3,,AUTO
        19 006014   200243 630500                    EPPR0   OFFSET+3,,AUTO
        19 006015   000004 631400 20                 EPPR1   4
        19 006016   000000 701000 xent               TSX1    Z9EB$BUILD_CODE
        19 006017   000000 011000                    NOP     0

     2467    17050    2         END;

     2468    17051
     2469    17052
     2470    17053    1       IF IDENT$ -> LX_ITEM.ID = %LX_LIST           THEN

  17053 19 006020   200203 470500                    LDP0    IDENT$,,AUTO
        19 006021   000000 220100                    LDX0    0,,PR0
        19 006022   000002 100003                    CMPX0   2,DU
        19 006023   006036 601000 19                 TNZ     s:17059

     2471    17054    2         DO;

     2472    17055    2           IDENT$ -> LX_LIST.TAIL$ -> LX_ITEM.LINK = ADDR(NIL);

  17055 19 006024   000001 471500                    LDP1    1,,PR0
        19 006025   000000 236000 20                 LDQ     0
        19 006026   100007 756100                    STQ     7,,PR1

     2473    17056    2           CALL Z8ED$DISPOSE_ABSSYN_TREE(IDENT$ -> LX_LIST.HEAD$);

  17056 19 006027   200203 236100                    LDQ     IDENT$,,AUTO
        19 006030   000004 036003                    ADLQ    4,DU
        19 006031   200242 756100                    STQ     OFFSET+2,,AUTO
        19 006032   200242 630500                    EPPR0   OFFSET+2,,AUTO
        19 006033   000005 631400 20                 EPPR1   5
        19 006034   000000 701000 xent               TSX1    Z8ED$DISPOSE_ABSSYN_TREE
        19 006035   000000 011000                    NOP     0
PL6.E3A0      #005=Z9EB$DML_STATEMENT File=Z9EB.:Z8A6TSI                         SAT 08/09/97 13:50 Page:464

     2474    17057    2         END;

     2475    17058
     2476    17059    1       IF ALL_SET_LIST$ -> LX_ITEM.ID = %LX_LIST    THEN

  17059 19 006036   200205 470500                    LDP0    ALL_SET_LIST$,,AUTO
        19 006037   000000 220100                    LDX0    0,,PR0
        19 006040   000002 100003                    CMPX0   2,DU
        19 006041   006062 601000 19                 TNZ     s:17066

     2477    17060    2         DO;

     2478    17061    2           IF SET.COUNT ~= 0            THEN

  17061 19 006042   200216 221100                    LDX1    SET_LIST_CONTROL,,AUTO
        19 006043   006053 600000 19                 TZE     s:17063

     2479    17062    2             CALL Z8ED$DISPOSE_ABSSYN_TREE(ALL_LIST$ -> LX_LIST.HEAD$);

  17062 19 006044   200210 236100                    LDQ     ALL_LIST$,,AUTO
        19 006045   000004 036003                    ADLQ    4,DU
        19 006046   200242 756100                    STQ     OFFSET+2,,AUTO
        19 006047   200242 630500                    EPPR0   OFFSET+2,,AUTO
        19 006050   000005 631400 20                 EPPR1   5
        19 006051   000000 701000 xent               TSX1    Z8ED$DISPOSE_ABSSYN_TREE
        19 006052   000000 011000                    NOP     0

     2480    17063    2             CALL Z8ED$DISPOSE_ABSSYN_TREE(ALL_SET_LIST$ -> LX_LIST.HEAD$);

  17063 19 006053   200205 236100                    LDQ     ALL_SET_LIST$,,AUTO
        19 006054   000004 036003                    ADLQ    4,DU
        19 006055   200242 756100                    STQ     OFFSET+2,,AUTO
        19 006056   200242 630500                    EPPR0   OFFSET+2,,AUTO
        19 006057   000005 631400 20                 EPPR1   5
        19 006060   000000 701000 xent               TSX1    Z8ED$DISPOSE_ABSSYN_TREE
        19 006061   000000 011000                    NOP     0
PL6.E3A0      #005=Z9EB$DML_STATEMENT File=Z9EB.:Z8A6TSI                         SAT 08/09/97 13:50 Page:465

     2481    17064    2         END;

     2482    17065
     2483    17066    1       RETURN;

  17066 19 006062   000000 702200 xent               TSX2  ! X66_ARET

     2484    17067        %EJECT;
PL6.E3A0      #005=Z9EB$DML_STATEMENT File=Z9EB.:Z8A6TSI                         SAT 08/09/97 13:50 Page:466
     2485    17068        /*==============*/
     2486    17069    1     Z9EB$DUPLICATE :    ENTRY  (RECORD_SELECTION$, RETENTION$);

  17069 19 006063   000000 700200 xent  Z9EB$DUPLIC* TSX0  ! X66_AUTO_2
        19 006064   000334 000002                    ZERO    220,2

     2487    17070        /*==============*/
     2488    17071
     2489    17072    1       SET$ = RECORD_SELECTION$ -> LX_LIST.HEAD$;

  17072 19 006065   200003 470500                    LDP0    @RECORD_SELECTION$,,AUTO
        19 006066   000000 471500                    LDP1    0,,PR0
        19 006067   100004 236100                    LDQ     4,,PR1
        19 006070   200160 756100                    STQ     SET$,,AUTO

     2490    17073    1       FIELD_LIST$ = RECORD_SELECTION$ -> LX_LIST.TAIL$;

  17073 19 006071   100001 236100                    LDQ     1,,PR1
        19 006072   200177 756100                    STQ     FIELD_LIST$,,AUTO

     2491    17074    1       FIELD_LIST_CONTROL = 0;

  17074 19 006073   200215 450100                    STZ     FIELD_LIST_CONTROL,,AUTO

     2492    17075    1       ERROR_FLAG = %FALSE;

  17075 19 006074   200213 450100                    STZ     ERROR_FLAG,,AUTO

     2493    17076    1       RVA_TYPE = %RVA_SET;

  17076 19 006075   000001 220003                    LDX0    1,DU
        19 006076   200147 740100                    STX0    RVA_TYPE,,AUTO

     2494    17077
     2495    17078    1       IF SET$ -> LX_ITEM.B.ERROR   THEN

  17078 19 006077   200160 471500                    LDP1    SET$,,AUTO
PL6.E3A0      #005=Z9EB$DML_STATEMENT File=Z9EB.:Z8A6TSI                         SAT 08/09/97 13:50 Page:467
        19 006100   100000 236100                    LDQ     0,,PR1
        19 006101   400000 316007                    CANQ    -131072,DL
        19 006102   006106 600000 19                 TZE     s:17084

     2496    17079    1           ERROR_FLAG = %TRUE;

  17079 19 006103   400000 236003                    LDQ     -131072,DU
        19 006104   200213 756100                    STQ     ERROR_FLAG,,AUTO
        19 006105   006160 710000 19                 TRA     s:17102

     2497    17080    1       ELSE
     2498    17081    2         DO;

     2499    17082                %FISH(TRIAD = SET$ -> LX_ETT_ITEM.ETT$, RTN = SET_ST$);

  17084 19 006106   100001 236100                    LDQ     1,,PR1
        19 006107   200163 756100                    STQ     SET_ST$,,AUTO

  17085 19 006110   200163 473500                    LDP3    SET_ST$,,AUTO
        19 006111   300000 221100                    LDX1    0,,PR3
        19 006112   000751 101003                    CMPX1   489,DU
        19 006113   006123 603000 19                 TRC     s:17090

  17086 19 006114   200163 470500                    LDP0    SET_ST$,,AUTO
        19 006115   000001 236100                    LDQ     1,,PR0
        19 006116   200163 756100                    STQ     SET_ST$,,AUTO

  17087 19 006117   200163 470500                    LDP0    SET_ST$,,AUTO
        19 006120   000000 220100                    LDX0    0,,PR0
        19 006121   000751 100003                    CMPX0   489,DU
        19 006122   006114 602000 19                 TNC     s:17086

     2500    17090    2           IF SET_ST$ -> DML_ITEM.ID ~= %DML_SET     THEN

  17090 19 006123   200163 470500                    LDP0    SET_ST$,,AUTO
        19 006124   000000 220100                    LDX0    0,,PR0
        19 006125   000753 100003                    CMPX0   491,DU
PL6.E3A0      #005=Z9EB$DML_STATEMENT File=Z9EB.:Z8A6TSI                         SAT 08/09/97 13:50 Page:468
        19 006126   006145 600000 19                 TZE     s:17098

     2501    17091    3             DO;

     2502    17092    3               CALL Z8AE$ERROR(%E$ITEM_NOT_A_SET,

  17092 19 006127   200160 236100                    LDQ     SET$,,AUTO
        19 006130   000006 036003                    ADLQ    6,DU
        19 006131   200244 756100                    STQ     OFFSET+4,,AUTO
        19 006132   200160 236100                    LDQ     SET$,,AUTO
        19 006133   000005 036003                    ADLQ    5,DU
        19 006134   000007 235000 20                 LDA     7
        19 006135   200242 757100                    STAQ    OFFSET+2,,AUTO
        19 006136   200242 630500                    EPPR0   OFFSET+2,,AUTO
        19 006137   000004 631400 20                 EPPR1   4
        19 006140   000000 701000 xent               TSX1    Z8AE$ERROR
        19 006141   000000 011000                    NOP     0

     2503    17093    3                               SET$ -> LX_ITEM.LINE,
     2504    17094    3                               SET$ -> LX_ITEM.COLUMN);
     2505    17095    3               ERROR_FLAG = %TRUE;

  17095 19 006142   400000 236003                    LDQ     -131072,DU
        19 006143   200213 756100                    STQ     ERROR_FLAG,,AUTO

     2506    17096    3             END;

  17096 19 006144   006160 710000 19                 TRA     s:17102

     2507    17097    2           ELSE
     2508    17098    2               IF SET_ST$ -> DML_ITEM.B.DML_RVA = %FALSE     THEN

  17098 19 006145   000003 236100                    LDQ     3,,PR0
        19 006146   002000 316007                    CANQ    1024,DL
        19 006147   006160 601000 19                 TNZ     s:17102

     2509    17099    2                   CALL Z9EB$BUILD_RVA_TABLE(SET_ST$,RVA_TYPE);
PL6.E3A0      #005=Z9EB$DML_STATEMENT File=Z9EB.:Z8A6TSI                         SAT 08/09/97 13:50 Page:469

  17099 19 006150   200147 631500                    EPPR1   RVA_TYPE,,AUTO
        19 006151   200243 451500                    STP1    OFFSET+3,,AUTO
        19 006152   200163 633500                    EPPR3   SET_ST$,,AUTO
        19 006153   200242 453500                    STP3    OFFSET+2,,AUTO
        19 006154   200242 630500                    EPPR0   OFFSET+2,,AUTO
        19 006155   000002 631400 20                 EPPR1   2
        19 006156   000000 701000 xent               TSX1    Z9EB$BUILD_RVA_TABLE
        19 006157   000000 011000                    NOP     0

     2510    17100    2         END;

     2511    17101
     2512    17102    1       CALL RETENTION(RETENTION$,ADDR(RL_LX_ITEM));

  17102 19 006160   200016 630500                    EPPR0   RL_LX_ITEM,,AUTO
        19 006161   200301 450500                    STP0    OFFSET+33,,AUTO
        19 006162   200301 631500                    EPPR1   OFFSET+33,,AUTO
        19 006163   200222 451500                    STP1    @CODE+1,,AUTO
        19 006164   200004 236100                    LDQ     @RETENTION$,,AUTO
        19 006165   200221 756100                    STQ     SET_LIST_CONTROL+3,,AUTO
        19 006166   000345 701000 19                 TSX1    RETENTION
        19 006167   000000 011000                    NOP     0

     2513    17103    1       IF RETENTION$ ~= ADDR(NIL)       THEN

  17103 19 006170   200004 470500                    LDP0    @RETENTION$,,AUTO
        19 006171   000000 236100                    LDQ     0,,PR0
        19 006172   000000 116000 20                 CMPQ    0
        19 006173   006177 600000 19                 TZE     s:17107

     2514    17104    1           RETENTION_LIST$ = ADDR(RL_LX_ITEM) -> LX_ITEM.LINK;

  17104 19 006174   200025 236100                    LDQ     RL_LX_ITEM+7,,AUTO
        19 006175   200200 756100                    STQ     RETENTION_LIST$,,AUTO
        19 006176   006202 710000 19                 TRA     s:17111

PL6.E3A0      #005=Z9EB$DML_STATEMENT File=Z9EB.:Z8A6TSI                         SAT 08/09/97 13:50 Page:470
     2515    17105    1       ELSE
     2516    17106    2         DO;

     2517    17107    2           RETENTION_LIST$ = ADDR(NIL);

  17107 19 006177   000000 236000 20                 LDQ     0
        19 006200   200200 756100                    STQ     RETENTION_LIST$,,AUTO

     2518    17108    2           ADDR(RL_LX_ITEM) -> LX_LIST.COUNT = 0;

  17108 19 006201   200020 450100                    STZ     RL_LX_ITEM+2,,AUTO

     2519    17109    2         END;

     2520    17110
     2521    17111    1       LIST$ = FIELD_LIST$ -> LX_LIST.HEAD$;

  17111 19 006202   200177 471500                    LDP1    FIELD_LIST$,,AUTO
        19 006203   100004 236100                    LDQ     4,,PR1
        19 006204   200170 756100                    STQ     LIST$,,AUTO

     2522    17112    1       RVA_TYPE = %RVA_FIELD;

  17112 19 006205   000003 220003                    LDX0    3,DU
        19 006206   200147 740100                    STX0    RVA_TYPE,,AUTO

     2523    17113    2       DO WHILE LIST$ ~= ADDR(NIL);

  17113 19 006207   006306 710000 19                 TRA     s:17145

     2524    17114
     2525    17115    2         IF LIST$ -> LX_ITEM.B.ERROR     THEN

  17115 19 006210   200170 470500                    LDP0    LIST$,,AUTO
        19 006211   000000 236100                    LDQ     0,,PR0
        19 006212   400000 316007                    CANQ    -131072,DL
        19 006213   006217 600000 19                 TZE     s:17121
PL6.E3A0      #005=Z9EB$DML_STATEMENT File=Z9EB.:Z8A6TSI                         SAT 08/09/97 13:50 Page:471

     2526    17116    2            ERROR_FLAG = %TRUE;

  17116 19 006214   400000 236003                    LDQ     -131072,DU
        19 006215   200213 756100                    STQ     ERROR_FLAG,,AUTO
        19 006216   006303 710000 19                 TRA     s:17144

     2527    17117    2         ELSE
     2528    17118    3          DO;

     2529    17119                %FISH( TRIAD = LIST$ -> LX_ETT_ITEM.ETT$, RTN = FIELD_ST$);

  17121 19 006217   000001 236100                    LDQ     1,,PR0
        19 006220   200207 756100                    STQ     FIELD_ST$,,AUTO

  17122 19 006221   200207 471500                    LDP1    FIELD_ST$,,AUTO
        19 006222   100000 220100                    LDX0    0,,PR1
        19 006223   000751 100003                    CMPX0   489,DU
        19 006224   006234 603000 19                 TRC     s:17127

  17123 19 006225   200207 470500                    LDP0    FIELD_ST$,,AUTO
        19 006226   000001 236100                    LDQ     1,,PR0
        19 006227   200207 756100                    STQ     FIELD_ST$,,AUTO

  17124 19 006230   200207 470500                    LDP0    FIELD_ST$,,AUTO
        19 006231   000000 220100                    LDX0    0,,PR0
        19 006232   000751 100003                    CMPX0   489,DU
        19 006233   006225 602000 19                 TNC     s:17123

     2530    17127    3           IF FIELD_ST$ -> SCALAR.B.DML_TYPE ~= %FIELD             THEN

  17127 19 006234   200207 470500                    LDP0    FIELD_ST$,,AUTO
        19 006235   000003 236100                    LDQ     3,,PR0
        19 006236   160000 376007                    ANQ     57344,DL
        19 006237   020000 116007                    CMPQ    8192,DL
        19 006240   006257 600000 19                 TZE     s:17136

PL6.E3A0      #005=Z9EB$DML_STATEMENT File=Z9EB.:Z8A6TSI                         SAT 08/09/97 13:50 Page:472
     2531    17128    4             DO;

     2532    17129    4               CALL Z8AE$ERROR(%E$ITEM_NOT_FIELD,

  17129 19 006241   200170 236100                    LDQ     LIST$,,AUTO
        19 006242   000006 036003                    ADLQ    6,DU
        19 006243   200244 756100                    STQ     OFFSET+4,,AUTO
        19 006244   200170 236100                    LDQ     LIST$,,AUTO
        19 006245   000005 036003                    ADLQ    5,DU
        19 006246   000052 235000 20                 LDA     42
        19 006247   200242 757100                    STAQ    OFFSET+2,,AUTO
        19 006250   200242 630500                    EPPR0   OFFSET+2,,AUTO
        19 006251   000004 631400 20                 EPPR1   4
        19 006252   000000 701000 xent               TSX1    Z8AE$ERROR
        19 006253   000000 011000                    NOP     0

     2533    17130    4                               LIST$ -> LX_ITEM.LINE,
     2534    17131    4                               LIST$ -> LX_ITEM.COLUMN);
     2535    17132    4               ERROR_FLAG = %TRUE;

  17132 19 006254   400000 236003                    LDQ     -131072,DU
        19 006255   200213 756100                    STQ     ERROR_FLAG,,AUTO

     2536    17133    4             END;

  17133 19 006256   006303 710000 19                 TRA     s:17144

     2537    17134    3           ELSE
     2538    17135    4             DO;

     2539    17136    4                IF FIELD_ST$ -> SCALAR.B.DML_RVA = %FALSE           THEN

  17136 19 006257   000003 236100                    LDQ     3,,PR0
        19 006260   002000 316007                    CANQ    1024,DL
        19 006261   006272 601000 19                 TNZ     s:17139

     2540    17137    4                    CALL Z9EB$BUILD_RVA_TABLE(FIELD_ST$,RVA_TYPE);
PL6.E3A0      #005=Z9EB$DML_STATEMENT File=Z9EB.:Z8A6TSI                         SAT 08/09/97 13:50 Page:473

  17137 19 006262   200147 631500                    EPPR1   RVA_TYPE,,AUTO
        19 006263   200243 451500                    STP1    OFFSET+3,,AUTO
        19 006264   200207 633500                    EPPR3   FIELD_ST$,,AUTO
        19 006265   200242 453500                    STP3    OFFSET+2,,AUTO
        19 006266   200242 630500                    EPPR0   OFFSET+2,,AUTO
        19 006267   000002 631400 20                 EPPR1   2
        19 006270   000000 701000 xent               TSX1    Z9EB$BUILD_RVA_TABLE
        19 006271   000000 011000                    NOP     0

     2541    17138
     2542    17139    4               CALL BUILD_ETT_PARM( FIELD_ST$, LIST$);

  17139 19 006272   200170 630500                    EPPR0   LIST$,,AUTO
        19 006273   200234 450500                    STP0    CONST_WORD+1,,AUTO
        19 006274   200207 631500                    EPPR1   FIELD_ST$,,AUTO
        19 006275   200233 451500                    STP1    RVA_TYPE+3,,AUTO
        19 006276   000251 701000 19                 TSX1    BUILD_ETT_PARM
        19 006277   000000 011000                    NOP     0

     2543    17140
     2544    17141    4               FIELD.COUNT = FIELD.COUNT + 1;

  17141 19 006300   200215 220100                    LDX0    FIELD_LIST_CONTROL,,AUTO
        19 006301   000001 621010                    EAX1    1,X0
        19 006302   200215 741100                    STX1    FIELD_LIST_CONTROL,,AUTO

     2545    17142    4             END;

     2546    17143    3          END;

     2547    17144    2           LIST$ = LIST$ -> LX_ITEM.LINK;

  17144 19 006303   200170 470500                    LDP0    LIST$,,AUTO
        19 006304   000007 236100                    LDQ     7,,PR0
        19 006305   200170 756100                    STQ     LIST$,,AUTO

PL6.E3A0      #005=Z9EB$DML_STATEMENT File=Z9EB.:Z8A6TSI                         SAT 08/09/97 13:50 Page:474
     2548    17145    2       END;

  17145 19 006306   000000 116000 20                 CMPQ    0
        19 006307   006210 601000 19                 TNZ     s:17115

     2549    17146
     2550    17147    1       IF ERROR_FLAG = %FALSE           THEN

  17147 19 006310   200213 234100                    SZN     ERROR_FLAG,,AUTO
        19 006311   006405 604000 19                 TMI     s:17169

     2551    17148    2         DO;

     2552    17149
     2553    17150    2           CALL Z8EU$CREATE_IDENTIFIER_FROM_ST(O1COM.DML_IA$,ADDR(IA_LX_ITEM));

  17150 19 006312   200006 630500                    EPPR0   IA_LX_ITEM,,AUTO
        19 006313   200242 450500                    STP0    OFFSET+2,,AUTO
        19 006314   200242 631500                    EPPR1   OFFSET+2,,AUTO
        19 006315   200245 451500                    STP1    OFFSET+5,,AUTO
        19 006316   000013 236000 20                 LDQ     11
        19 006317   200244 756100                    STQ     OFFSET+4,,AUTO
        19 006320   200244 630500                    EPPR0   OFFSET+4,,AUTO
        19 006321   000002 631400 20                 EPPR1   2
        19 006322   000000 701000 xent               TSX1    Z8EU$CREATE_IDENTIFIER_FROM_ST
        19 006323   000000 011000                    NOP     0

     2554    17151
     2555    17152    2           CALL BUILD_PARM( SET_ST$, ADDR(SC_AC_LX_ITEM));

  17152 19 006324   200036 630500                    EPPR0   SC_AC_LX_ITEM,,AUTO
        19 006325   200302 450500                    STP0    OFFSET+34,,AUTO
        19 006326   200302 631500                    EPPR1   OFFSET+34,,AUTO
        19 006327   200236 451500                    STP1    PTR$+1,,AUTO
        19 006330   200163 633500                    EPPR3   SET_ST$,,AUTO
        19 006331   200235 453500                    STP3    @ITEM$+1,,AUTO
        19 006332   000107 701000 19                 TSX1    BUILD_PARM
PL6.E3A0      #005=Z9EB$DML_STATEMENT File=Z9EB.:Z8A6TSI                         SAT 08/09/97 13:50 Page:475
        19 006333   000000 011000                    NOP     0

     2556    17153    2           ADDR(IA_LX_ITEM) -> LX_ITEM.LINK = ADDR(SC_AC_LX_ITEM);

  17153 19 006334   200036 630500                    EPPR0   SC_AC_LX_ITEM,,AUTO
        19 006335   200015 450500                    STP0    IA_LX_ITEM+7,,AUTO

     2557    17154
     2558    17155    2           CALL BUILD_CONST_PARM( FIELD_LIST_CONTROL, ADDR(FL_ID_LX_ITEM));

  17155 19 006336   200066 631500                    EPPR1   FL_ID_LX_ITEM,,AUTO
        19 006337   200303 451500                    STP1    OFFSET+35,,AUTO
        19 006340   200303 633500                    EPPR3   OFFSET+35,,AUTO
        19 006341   200236 453500                    STP3    PTR$+1,,AUTO
        19 006342   200215 634500                    EPPR4   FIELD_LIST_CONTROL,,AUTO
        19 006343   200235 454500                    STP4    @ITEM$+1,,AUTO
        19 006344   000167 701000 19                 TSX1    BUILD_CONST_PARM
        19 006345   000000 011000                    NOP     0

     2559    17156    2           ADDR(SC_AC_LX_ITEM) -> LX_ITEM.LINK = ADDR(FL_ID_LX_ITEM);

  17156 19 006346   200066 630500                    EPPR0   FL_ID_LX_ITEM,,AUTO
        19 006347   200045 450500                    STP0    SC_AC_LX_ITEM+7,,AUTO

     2560    17157    2           ADDR(FL_ID_LX_ITEM) -> LX_ITEM.LINK = ADDR(RL_LX_ITEM);

  17157 19 006350   200016 631500                    EPPR1   RL_LX_ITEM,,AUTO
        19 006351   200075 451500                    STP1    FL_ID_LX_ITEM+7,,AUTO

     2561    17158
     2562    17159    2           ADDR(RL_LX_ITEM) -> LX_ITEM.LINK = FIELD_LIST$ -> LX_LIST.HEAD$;

  17159 19 006352   200177 473500                    LDP3    FIELD_LIST$,,AUTO
        19 006353   300004 236100                    LDQ     4,,PR3
        19 006354   200025 756100                    STQ     RL_LX_ITEM+7,,AUTO

     2563    17160    2           FIELD_LIST$ -> LX_LIST.TAIL$ -> LX_ITEM.LINK = RETENTION_LIST$;
PL6.E3A0      #005=Z9EB$DML_STATEMENT File=Z9EB.:Z8A6TSI                         SAT 08/09/97 13:50 Page:476

  17160 19 006355   300001 474500                    LDP4    1,,PR3
        19 006356   200200 236100                    LDQ     RETENTION_LIST$,,AUTO
        19 006357   400007 756100                    STQ     7,,PR4

     2564    17161    2           ARG_COUNT = 4 + FIELD.COUNT + ADDR(RL_LX_ITEM) -> LX_LIST.COUNT;

  17161 19 006360   200215 236100                    LDQ     FIELD_LIST_CONTROL,,AUTO
        19 006361   000022 772000                    QRL     18
        19 006362   200020 036100                    ADLQ    RL_LX_ITEM+2,,AUTO
        19 006363   000004 036007                    ADLQ    4,DL
        19 006364   200146 756100                    STQ     ARG_COUNT,,AUTO

     2565    17162
     2566    17163    2           CALL Z9EB$BUILD_CODE(%DBFDP, ARG_COUNT, ADDR(IA_LX_ITEM));

  17163 19 006365   200006 630500                    EPPR0   IA_LX_ITEM,,AUTO
        19 006366   200242 450500                    STP0    OFFSET+2,,AUTO
        19 006367   200242 631500                    EPPR1   OFFSET+2,,AUTO
        19 006370   200245 451500                    STP1    OFFSET+5,,AUTO
        19 006371   200146 634500                    EPPR4   ARG_COUNT,,AUTO
        19 006372   200244 454500                    STP4    OFFSET+4,,AUTO
        19 006373   000054 236000 20                 LDQ     44
        19 006374   200243 756100                    STQ     OFFSET+3,,AUTO
        19 006375   200243 630500                    EPPR0   OFFSET+3,,AUTO
        19 006376   000004 631400 20                 EPPR1   4
        19 006377   000000 701000 xent               TSX1    Z9EB$BUILD_CODE
        19 006400   000000 011000                    NOP     0

     2567    17164
     2568    17165    2           FIELD_LIST$ -> LX_LIST.TAIL$ -> LX_ITEM.LINK = ADDR(NIL);

  17165 19 006401   200177 470500                    LDP0    FIELD_LIST$,,AUTO
        19 006402   000001 471500                    LDP1    1,,PR0
        19 006403   000000 236000 20                 LDQ     0
        19 006404   100007 756100                    STQ     7,,PR1

PL6.E3A0      #005=Z9EB$DML_STATEMENT File=Z9EB.:Z8A6TSI                         SAT 08/09/97 13:50 Page:477
     2569    17166
     2570    17167    2         END;               /*V*  IF ERROR_FLAG  */

     2571    17168
     2572    17169    1       CALL Z8ED$DISPOSE_ABSSYN_TREE(FIELD_LIST$ -> LX_LIST.HEAD$);

  17169 19 006405   200177 236100                    LDQ     FIELD_LIST$,,AUTO
        19 006406   000004 036003                    ADLQ    4,DU
        19 006407   200242 756100                    STQ     OFFSET+2,,AUTO
        19 006410   200242 630500                    EPPR0   OFFSET+2,,AUTO
        19 006411   000005 631400 20                 EPPR1   5
        19 006412   000000 701000 xent               TSX1    Z8ED$DISPOSE_ABSSYN_TREE
        19 006413   000000 011000                    NOP     0

     2573    17170
     2574    17171    1       RETURN;

  17171 19 006414   000000 702200 xent               TSX2  ! X66_ARET

     2575    17172        %EJECT;
PL6.E3A0      #005=Z9EB$DML_STATEMENT File=Z9EB.:Z8A6TSI                         SAT 08/09/97 13:50 Page:478
     2576    17173        /*==================*/
     2577    17174    1     Z9EB$FIND_WITH_KEY :   ENTRY(RECORD_SELECTION$,RETENTION$);

  17174 19 006415   000000 700200 xent  Z9EB$FIND_W* TSX0  ! X66_AUTO_2
        19 006416   000334 000002                    ZERO    220,2

     2578    17175        /*==================*/
     2579    17176
     2580    17177    1       RECORD$ = RECORD_SELECTION$ -> LX_LIST.HEAD$;

  17177 19 006417   200003 470500                    LDP0    @RECORD_SELECTION$,,AUTO
        19 006420   000000 471500                    LDP1    0,,PR0
        19 006421   100004 236100                    LDQ     4,,PR1
        19 006422   200150 756100                    STQ     RECORD$,,AUTO

     2581    17178    1       IDENT_LIST$ = RECORD_SELECTION$ -> LX_LIST.TAIL$;

  17178 19 006423   100001 236100                    LDQ     1,,PR1
        19 006424   200201 756100                    STQ     IDENT_LIST$,,AUTO

     2582    17179    1       SET$ = RECORD$ -> LX_LIST.LINK;

  17179 19 006425   200150 473500                    LDP3    RECORD$,,AUTO
        19 006426   300007 236100                    LDQ     7,,PR3
        19 006427   200160 756100                    STQ     SET$,,AUTO

     2583    17180    1       OPTION$ = SET$ -> LX_ITEM.LINK;

  17180 19 006430   200160 474500                    LDP4    SET$,,AUTO
        19 006431   400007 236100                    LDQ     7,,PR4
        19 006432   200202 756100                    STQ     OPTION$,,AUTO

     2584    17181    1       ERROR_FLAG = %FALSE;

  17181 19 006433   200213 450100                    STZ     ERROR_FLAG,,AUTO

     2585    17182    1       FIELD_LIST_CONTROL = 0;
PL6.E3A0      #005=Z9EB$DML_STATEMENT File=Z9EB.:Z8A6TSI                         SAT 08/09/97 13:50 Page:479

  17182 19 006434   200215 450100                    STZ     FIELD_LIST_CONTROL,,AUTO

     2586    17183
     2587    17184    1       IF RECORD$ -> LX_ITEM.B.ERROR    OR   SET$ -> LX_ITEM.B.ERROR  THEN

  17184 19 006435   300000 236100                    LDQ     0,,PR3
        19 006436   400000 316007                    CANQ    -131072,DL
        19 006437   006443 601000 19                 TNZ     s:17185
        19 006440   400000 236100                    LDQ     0,,PR4
        19 006441   400000 316007                    CANQ    -131072,DL
        19 006442   006446 600000 19                 TZE     s:17190

     2588    17185    1           ERROR_FLAG = %TRUE;

  17185 19 006443   400000 236003                    LDQ     -131072,DU
        19 006444   200213 756100                    STQ     ERROR_FLAG,,AUTO
        19 006445   006543 710000 19                 TRA     s:17221

     2589    17186    1       ELSE
     2590    17187    2         DO;

     2591    17188                %FISH( TRIAD = RECORD$ -> LX_ETT_ITEM.ETT$, RTN = RECORD_ST$);

  17190 19 006446   300001 236100                    LDQ     1,,PR3
        19 006447   200152 756100                    STQ     RECORD_ST$,,AUTO

  17191 19 006450   200152 471500                    LDP1    RECORD_ST$,,AUTO
        19 006451   100000 220100                    LDX0    0,,PR1
        19 006452   000751 100003                    CMPX0   489,DU
        19 006453   006463 603000 19                 TRC     s:17198

  17192 19 006454   200152 470500                    LDP0    RECORD_ST$,,AUTO
        19 006455   000001 236100                    LDQ     1,,PR0
        19 006456   200152 756100                    STQ     RECORD_ST$,,AUTO

  17193 19 006457   200152 470500                    LDP0    RECORD_ST$,,AUTO
PL6.E3A0      #005=Z9EB$DML_STATEMENT File=Z9EB.:Z8A6TSI                         SAT 08/09/97 13:50 Page:480
        19 006460   000000 220100                    LDX0    0,,PR0
        19 006461   000751 100003                    CMPX0   489,DU
        19 006462   006454 602000 19                 TNC     s:17192

     2592    17196                %FISH( TRIAD = SET$ -> LX_ETT_ITEM.ETT$, RTN = SET_ST$);

  17198 19 006463   200160 470500                    LDP0    SET$,,AUTO
        19 006464   000001 236100                    LDQ     1,,PR0
        19 006465   200163 756100                    STQ     SET_ST$,,AUTO

  17199 19 006466   200163 471500                    LDP1    SET_ST$,,AUTO
        19 006467   100000 220100                    LDX0    0,,PR1
        19 006470   000751 100003                    CMPX0   489,DU
        19 006471   006501 603000 19                 TRC     s:17205

  17200 19 006472   200163 470500                    LDP0    SET_ST$,,AUTO
        19 006473   000001 236100                    LDQ     1,,PR0
        19 006474   200163 756100                    STQ     SET_ST$,,AUTO

  17201 19 006475   200163 470500                    LDP0    SET_ST$,,AUTO
        19 006476   000000 220100                    LDX0    0,,PR0
        19 006477   000751 100003                    CMPX0   489,DU
        19 006500   006472 602000 19                 TNC     s:17200

     2593    17204
     2594    17205    2           IF RECORD_ST$ -> SCALAR.B.DML_TYPE ~= %RECORD    THEN

  17205 19 006501   200152 470500                    LDP0    RECORD_ST$,,AUTO
        19 006502   000003 236100                    LDQ     3,,PR0
        19 006503   160000 376007                    ANQ     57344,DL
        19 006504   060000 116007                    CMPQ    24576,DL
        19 006505   006523 600000 19                 TZE     s:17212

     2595    17206    3             DO;

     2596    17207    3               CALL Z8AE$ERROR(%E$ITEM_NOT_A_RECORD,

PL6.E3A0      #005=Z9EB$DML_STATEMENT File=Z9EB.:Z8A6TSI                         SAT 08/09/97 13:50 Page:481
  17207 19 006506   200150 236100                    LDQ     RECORD$,,AUTO
        19 006507   000006 036003                    ADLQ    6,DU
        19 006510   200244 756100                    STQ     OFFSET+4,,AUTO
        19 006511   200150 236100                    LDQ     RECORD$,,AUTO
        19 006512   000005 036003                    ADLQ    5,DU
        19 006513   000021 235000 20                 LDA     17
        19 006514   200242 757100                    STAQ    OFFSET+2,,AUTO
        19 006515   200242 630500                    EPPR0   OFFSET+2,,AUTO
        19 006516   000004 631400 20                 EPPR1   4
        19 006517   000000 701000 xent               TSX1    Z8AE$ERROR
        19 006520   000000 011000                    NOP     0

     2597    17208    3                               RECORD$ -> LX_ITEM.LINE,
     2598    17209    3                               RECORD$ -> LX_ITEM.COLUMN);
     2599    17210    3               ERROR_FLAG = %TRUE;

  17210 19 006521   400000 236003                    LDQ     -131072,DU
        19 006522   200213 756100                    STQ     ERROR_FLAG,,AUTO

     2600    17211    3             END;

     2601    17212    2           IF SET_ST$ -> DML_ITEM.ID ~= %DML_SET            THEN

  17212 19 006523   200163 470500                    LDP0    SET_ST$,,AUTO
        19 006524   000000 220100                    LDX0    0,,PR0
        19 006525   000753 100003                    CMPX0   491,DU
        19 006526   006543 600000 19                 TZE     s:17221

     2602    17213    3             DO;

     2603    17214    3               CALL Z8AE$ERROR(%E$ITEM_NOT_A_SET,

  17214 19 006527   200160 236100                    LDQ     SET$,,AUTO
        19 006530   000006 036003                    ADLQ    6,DU
        19 006531   200244 756100                    STQ     OFFSET+4,,AUTO
        19 006532   200160 236100                    LDQ     SET$,,AUTO
        19 006533   000005 036003                    ADLQ    5,DU
PL6.E3A0      #005=Z9EB$DML_STATEMENT File=Z9EB.:Z8A6TSI                         SAT 08/09/97 13:50 Page:482
        19 006534   000007 235000 20                 LDA     7
        19 006535   200242 757100                    STAQ    OFFSET+2,,AUTO
        19 006536   200242 630500                    EPPR0   OFFSET+2,,AUTO
        19 006537   000004 631400 20                 EPPR1   4
        19 006540   000000 701000 xent               TSX1    Z8AE$ERROR
        19 006541   000000 011000                    NOP     0

     2604    17215    3                               SET$ -> LX_ITEM.LINE,
     2605    17216    3                               SET$ -> LX_ITEM.COLUMN);
     2606    17217    3               ERROR_FLAG = %FALSE;

  17217 19 006542   200213 450100                    STZ     ERROR_FLAG,,AUTO

     2607    17218    3             END;

     2608    17219    2         END;

     2609    17220
     2610    17221    1       IF ERROR_FLAG = %FALSE    THEN

  17221 19 006543   200213 234100                    SZN     ERROR_FLAG,,AUTO
        19 006544   006625 604000 19                 TMI     s:17244

     2611    17222    2         DO;

     2612    17223    2           CALL MEMBERSHIP(RECORD_ST$,SET_ST$,%DBFKY)

  17223 19 006545   000055 236000 20                 LDQ     45
        19 006546   200223 756100                    STQ     @FIND_CONTROL$+1,,AUTO
        19 006547   200163 630500                    EPPR0   SET_ST$,,AUTO
        19 006550   200222 450500                    STP0    @CODE+1,,AUTO
        19 006551   200152 631500                    EPPR1   RECORD_ST$,,AUTO
        19 006552   200221 451500                    STP1    SET_LIST_CONTROL+3,,AUTO
        19 006553   000003 701000 19                 TSX1    MEMBERSHIP
        19 006554   006556 702000 19                 TSX2    s:17226
        19 006555   006571 710000 19                 TRA     s:17230

PL6.E3A0      #005=Z9EB$DML_STATEMENT File=Z9EB.:Z8A6TSI                         SAT 08/09/97 13:50 Page:483
     2613    17224    2             WHENALTRETURN
     2614    17225    3              DO;

     2615    17226    3                 CALL Z8AE$ERROR(%E$INVALID_MEMBER,

  17226 19 006556   200150 236100                    LDQ     RECORD$,,AUTO
        19 006557   000006 036003                    ADLQ    6,DU
        19 006560   200244 756100                    STQ     OFFSET+4,,AUTO
        19 006561   200150 236100                    LDQ     RECORD$,,AUTO
        19 006562   000005 036003                    ADLQ    5,DU
        19 006563   000031 235000 20                 LDA     25
        19 006564   200242 757100                    STAQ    OFFSET+2,,AUTO
        19 006565   200242 630500                    EPPR0   OFFSET+2,,AUTO
        19 006566   000004 631400 20                 EPPR1   4
        19 006567   000000 701000 xent               TSX1    Z8AE$ERROR
        19 006570   000000 011000                    NOP     0

     2616    17227    3                                 RECORD$ -> LX_ITEM.LINE,
     2617    17228    3                                 RECORD$ -> LX_ITEM.COLUMN);
     2618    17229    3              END;

     2619    17230    2           IF RECORD_ST$ -> SCALAR.B.DML_RVA = %FALSE    THEN

  17230 19 006571   200152 470500                    LDP0    RECORD_ST$,,AUTO
        19 006572   000003 236100                    LDQ     3,,PR0
        19 006573   002000 316007                    CANQ    1024,DL
        19 006574   006607 601000 19                 TNZ     s:17236

     2620    17231    3             DO;

     2621    17232    3               RVA_TYPE = %RVA_RECORD;

  17232 19 006575   000002 220003                    LDX0    2,DU
        19 006576   200147 740100                    STX0    RVA_TYPE,,AUTO

     2622    17233    3               CALL Z9EB$BUILD_RVA_TABLE(RECORD_ST$,RVA_TYPE);

PL6.E3A0      #005=Z9EB$DML_STATEMENT File=Z9EB.:Z8A6TSI                         SAT 08/09/97 13:50 Page:484
  17233 19 006577   200147 631500                    EPPR1   RVA_TYPE,,AUTO
        19 006600   200243 451500                    STP1    OFFSET+3,,AUTO
        19 006601   200152 633500                    EPPR3   RECORD_ST$,,AUTO
        19 006602   200242 453500                    STP3    OFFSET+2,,AUTO
        19 006603   200242 630500                    EPPR0   OFFSET+2,,AUTO
        19 006604   000002 631400 20                 EPPR1   2
        19 006605   000000 701000 xent               TSX1    Z9EB$BUILD_RVA_TABLE
        19 006606   000000 011000                    NOP     0

     2623    17234    3             END;

     2624    17235
     2625    17236    2           IF SET_ST$ -> DML_ITEM.B.DML_RVA = %FALSE    THEN

  17236 19 006607   200163 470500                    LDP0    SET_ST$,,AUTO
        19 006610   000003 236100                    LDQ     3,,PR0
        19 006611   002000 316007                    CANQ    1024,DL
        19 006612   006625 601000 19                 TNZ     s:17244

     2626    17237    3             DO;

     2627    17238    3               RVA_TYPE = %RVA_SET;

  17238 19 006613   000001 220003                    LDX0    1,DU
        19 006614   200147 740100                    STX0    RVA_TYPE,,AUTO

     2628    17239    3               CALL Z9EB$BUILD_RVA_TABLE(SET_ST$, RVA_TYPE);

  17239 19 006615   200147 631500                    EPPR1   RVA_TYPE,,AUTO
        19 006616   200243 451500                    STP1    OFFSET+3,,AUTO
        19 006617   200163 633500                    EPPR3   SET_ST$,,AUTO
        19 006620   200242 453500                    STP3    OFFSET+2,,AUTO
        19 006621   200242 630500                    EPPR0   OFFSET+2,,AUTO
        19 006622   000002 631400 20                 EPPR1   2
        19 006623   000000 701000 xent               TSX1    Z9EB$BUILD_RVA_TABLE
        19 006624   000000 011000                    NOP     0

PL6.E3A0      #005=Z9EB$DML_STATEMENT File=Z9EB.:Z8A6TSI                         SAT 08/09/97 13:50 Page:485
     2629    17240    3             END;

     2630    17241
     2631    17242    2         END;

     2632    17243
     2633    17244    1       RVA_TYPE = %RVA_FIELD;

  17244 19 006625   000003 220003                    LDX0    3,DU
        19 006626   200147 740100                    STX0    RVA_TYPE,,AUTO

     2634    17245    1       IF IDENT_LIST$ -> LX_ITEM.ID = %LX_LIST    THEN

  17245 19 006627   200201 470500                    LDP0    IDENT_LIST$,,AUTO
        19 006630   000000 221100                    LDX1    0,,PR0
        19 006631   000002 101003                    CMPX1   2,DU
        19 006632   006777 601000 19                 TNZ     s:17305

     2635    17246    2         DO;

     2636    17247    2           LIST$ = IDENT_LIST$ -> LX_LIST.HEAD$;

  17247 19 006633   000004 236100                    LDQ     4,,PR0
        19 006634   200170 756100                    STQ     LIST$,,AUTO

     2637    17248    3           DO WHILE LIST$ ~= ADDR(NIL);

  17248 19 006635   006775 710000 19                 TRA     s:17302

     2638    17249
     2639    17250    3             IF LIST$ -> LX_ITEM.B.ERROR   THEN

  17250 19 006636   200170 470500                    LDP0    LIST$,,AUTO
        19 006637   000000 236100                    LDQ     0,,PR0
        19 006640   400000 316007                    CANQ    -131072,DL
        19 006641   006645 600000 19                 TZE     s:17256

PL6.E3A0      #005=Z9EB$DML_STATEMENT File=Z9EB.:Z8A6TSI                         SAT 08/09/97 13:50 Page:486
     2640    17251    3               ERROR_FLAG = %TRUE;

  17251 19 006642   400000 236003                    LDQ     -131072,DU
        19 006643   200213 756100                    STQ     ERROR_FLAG,,AUTO
        19 006644   006743 710000 19                 TRA     s:17293

     2641    17252    3             ELSE
     2642    17253    4               DO;

     2643    17254                      %FISH(TRIAD = LIST$ -> LX_ETT_ITEM.ETT$, RTN = FIELD_ST$);

  17256 19 006645   000001 236100                    LDQ     1,,PR0
        19 006646   200207 756100                    STQ     FIELD_ST$,,AUTO

  17257 19 006647   200207 471500                    LDP1    FIELD_ST$,,AUTO
        19 006650   100000 220100                    LDX0    0,,PR1
        19 006651   000751 100003                    CMPX0   489,DU
        19 006652   006662 603000 19                 TRC     s:17262

  17258 19 006653   200207 470500                    LDP0    FIELD_ST$,,AUTO
        19 006654   000001 236100                    LDQ     1,,PR0
        19 006655   200207 756100                    STQ     FIELD_ST$,,AUTO

  17259 19 006656   200207 470500                    LDP0    FIELD_ST$,,AUTO
        19 006657   000000 220100                    LDX0    0,,PR0
        19 006660   000751 100003                    CMPX0   489,DU
        19 006661   006653 602000 19                 TNC     s:17258

     2644    17262    4                 IF FIELD_ST$ -> SCALAR.B.DML_TYPE  ~= %FIELD    THEN

  17262 19 006662   200207 470500                    LDP0    FIELD_ST$,,AUTO
        19 006663   000003 236100                    LDQ     3,,PR0
        19 006664   160000 376007                    ANQ     57344,DL
        19 006665   020000 116007                    CMPQ    8192,DL
        19 006666   006705 600000 19                 TZE     s:17271

     2645    17263    5                   DO;
PL6.E3A0      #005=Z9EB$DML_STATEMENT File=Z9EB.:Z8A6TSI                         SAT 08/09/97 13:50 Page:487

     2646    17264    5                     CALL Z8AE$ERROR(%E$ITEM_NOT_FIELD,

  17264 19 006667   200170 236100                    LDQ     LIST$,,AUTO
        19 006670   000006 036003                    ADLQ    6,DU
        19 006671   200244 756100                    STQ     OFFSET+4,,AUTO
        19 006672   200170 236100                    LDQ     LIST$,,AUTO
        19 006673   000005 036003                    ADLQ    5,DU
        19 006674   000052 235000 20                 LDA     42
        19 006675   200242 757100                    STAQ    OFFSET+2,,AUTO
        19 006676   200242 630500                    EPPR0   OFFSET+2,,AUTO
        19 006677   000004 631400 20                 EPPR1   4
        19 006700   000000 701000 xent               TSX1    Z8AE$ERROR
        19 006701   000000 011000                    NOP     0

     2647    17265    5                                     LIST$ -> LX_ITEM.LINE,
     2648    17266    5                                     LIST$ -> LX_ITEM.COLUMN);
     2649    17267    5                     ERROR_FLAG = %TRUE;

  17267 19 006702   400000 236003                    LDQ     -131072,DU
        19 006703   200213 756100                    STQ     ERROR_FLAG,,AUTO

     2650    17268    5                   END;

  17268 19 006704   006743 710000 19                 TRA     s:17293

     2651    17269    4                 ELSE
     2652    17270    5                   DO;

     2653    17271    5                     SON = %FALSE;

  17271 19 006705   200173 450100                    STZ     SON,,AUTO

     2654    17272    5                     QLT_FATHER$ = FIELD_ST$ -> SCALAR.QLT$ -> QLT.FATHER;

  17272 19 006706   000007 471500                    LDP1    7,,PR0
        19 006707   100001 236100                    LDQ     1,,PR1
PL6.E3A0      #005=Z9EB$DML_STATEMENT File=Z9EB.:Z8A6TSI                         SAT 08/09/97 13:50 Page:488
        19 006710   200172 756100                    STQ     QLT_FATHER$,,AUTO

     2655    17273
     2656    17274    6                     DO UNTIL QLT_FATHER$ = ADDR(NIL);

     2657    17275    6                         IF RECORD_ST$ = QLT_FATHER$ -> QLT.ST$   THEN

  17275 19 006711   200172 470500                    LDP0    QLT_FATHER$,,AUTO
        19 006712   200152 236100                    LDQ     RECORD_ST$,,AUTO
        19 006713   000004 116100                    CMPQ    4,,PR0
        19 006714   006722 601000 19                 TNZ     s:17281

     2658    17276    7                           DO;

     2659    17277    7                             SON = %TRUE;

  17277 19 006715   400000 236003                    LDQ     -131072,DU
        19 006716   200173 756100                    STQ     SON,,AUTO

     2660    17278    7                             QLT_FATHER$ = ADDR(NIL);

  17278 19 006717   000000 236000 20                 LDQ     0
        19 006720   200172 756100                    STQ     QLT_FATHER$,,AUTO

     2661    17279    7                           END;

  17279 19 006721   006724 710000 19                 TRA     s:17282

     2662    17280    6                         ELSE
     2663    17281    6                             QLT_FATHER$ = QLT_FATHER$ -> QLT.FATHER;

  17281 19 006722   000001 236100                    LDQ     1,,PR0
        19 006723   200172 756100                    STQ     QLT_FATHER$,,AUTO

     2664    17282    6                     END;

  17282 19 006724   000000 116000 20                 CMPQ    0
PL6.E3A0      #005=Z9EB$DML_STATEMENT File=Z9EB.:Z8A6TSI                         SAT 08/09/97 13:50 Page:489
        19 006725   006711 601000 19                 TNZ     s:17275

     2665    17283
     2666    17284    5                     IF SON = %FALSE   THEN

  17284 19 006726   200173 234100                    SZN     SON,,AUTO
        19 006727   006743 604000 19                 TMI     s:17293

     2667    17285    6                       DO;

     2668    17286    6                         CALL Z8AE$ERROR(%E$FIELD_NOT_IN_RECORD,

  17286 19 006730   200170 236100                    LDQ     LIST$,,AUTO
        19 006731   000006 036003                    ADLQ    6,DU
        19 006732   200244 756100                    STQ     OFFSET+4,,AUTO
        19 006733   200170 236100                    LDQ     LIST$,,AUTO
        19 006734   000005 036003                    ADLQ    5,DU
        19 006735   000057 235000 20                 LDA     47
        19 006736   200242 757100                    STAQ    OFFSET+2,,AUTO
        19 006737   200242 630500                    EPPR0   OFFSET+2,,AUTO
        19 006740   000004 631400 20                 EPPR1   4
        19 006741   000000 701000 xent               TSX1    Z8AE$ERROR
        19 006742   000000 011000                    NOP     0

     2669    17287    6                                         LIST$ -> LX_ITEM.LINE,
     2670    17288    6                                         LIST$ -> LX_ITEM.COLUMN);
     2671    17289    6                       END;

     2672    17290    5                   END;

     2673    17291    4               END;

     2674    17292
     2675    17293    3               IF ERROR_FLAG = %FALSE       THEN

  17293 19 006743   200213 234100                    SZN     ERROR_FLAG,,AUTO
        19 006744   006772 604000 19                 TMI     s:17301
PL6.E3A0      #005=Z9EB$DML_STATEMENT File=Z9EB.:Z8A6TSI                         SAT 08/09/97 13:50 Page:490

     2676    17294    4                 DO;

     2677    17295    4                   IF FIELD_ST$ -> SCALAR.B.DML_RVA = %FALSE     THEN

  17295 19 006745   200207 470500                    LDP0    FIELD_ST$,,AUTO
        19 006746   000003 236100                    LDQ     3,,PR0
        19 006747   002000 316007                    CANQ    1024,DL
        19 006750   006761 601000 19                 TNZ     s:17298

     2678    17296    4                       CALL Z9EB$BUILD_RVA_TABLE(FIELD_ST$,RVA_TYPE);

  17296 19 006751   200147 631500                    EPPR1   RVA_TYPE,,AUTO
        19 006752   200243 451500                    STP1    OFFSET+3,,AUTO
        19 006753   200207 633500                    EPPR3   FIELD_ST$,,AUTO
        19 006754   200242 453500                    STP3    OFFSET+2,,AUTO
        19 006755   200242 630500                    EPPR0   OFFSET+2,,AUTO
        19 006756   000002 631400 20                 EPPR1   2
        19 006757   000000 701000 xent               TSX1    Z9EB$BUILD_RVA_TABLE
        19 006760   000000 011000                    NOP     0

     2679    17297
     2680    17298    4                   CALL BUILD_ETT_PARM( FIELD_ST$, LIST$);

  17298 19 006761   200170 630500                    EPPR0   LIST$,,AUTO
        19 006762   200234 450500                    STP0    CONST_WORD+1,,AUTO
        19 006763   200207 631500                    EPPR1   FIELD_ST$,,AUTO
        19 006764   200233 451500                    STP1    RVA_TYPE+3,,AUTO
        19 006765   000251 701000 19                 TSX1    BUILD_ETT_PARM
        19 006766   000000 011000                    NOP     0

     2681    17299    4                   FIELD.COUNT = FIELD.COUNT + 1;

  17299 19 006767   200215 220100                    LDX0    FIELD_LIST_CONTROL,,AUTO
        19 006770   000001 621010                    EAX1    1,X0
        19 006771   200215 741100                    STX1    FIELD_LIST_CONTROL,,AUTO

PL6.E3A0      #005=Z9EB$DML_STATEMENT File=Z9EB.:Z8A6TSI                         SAT 08/09/97 13:50 Page:491
     2682    17300    4                 END;

     2683    17301    3               LIST$ = LIST$ -> LX_ITEM.LINK;

  17301 19 006772   200170 470500                    LDP0    LIST$,,AUTO
        19 006773   000007 236100                    LDQ     7,,PR0
        19 006774   200170 756100                    STQ     LIST$,,AUTO

     2684    17302    3           END;                             /*V*   WHILE  LIST ~= ADDR(NIL) */

  17302 19 006775   000000 116000 20                 CMPQ    0
        19 006776   006636 601000 19                 TNZ     s:17250

     2685    17303    2         END;

     2686    17304
     2687    17305    1       CALL RETENTION(RETENTION$,ADDR(RL_LX_ITEM));

  17305 19 006777   200016 630500                    EPPR0   RL_LX_ITEM,,AUTO
        19 007000   200304 450500                    STP0    OFFSET+36,,AUTO
        19 007001   200304 631500                    EPPR1   OFFSET+36,,AUTO
        19 007002   200222 451500                    STP1    @CODE+1,,AUTO
        19 007003   200004 236100                    LDQ     @RETENTION$,,AUTO
        19 007004   200221 756100                    STQ     SET_LIST_CONTROL+3,,AUTO
        19 007005   000345 701000 19                 TSX1    RETENTION
        19 007006   000000 011000                    NOP     0

     2688    17306
     2689    17307    1       IF ERROR_FLAG = %FALSE           THEN

  17307 19 007007   200213 234100                    SZN     ERROR_FLAG,,AUTO
        19 007010   007151 604000 19                 TMI     s:17352

     2690    17308    2         DO;

     2691    17309
     2692    17310    2           IF OPTION$ -> LX_ITEM.SYMBOL = %EMPTY    THEN
PL6.E3A0      #005=Z9EB$DML_STATEMENT File=Z9EB.:Z8A6TSI                         SAT 08/09/97 13:50 Page:492

  17310 19 007011   200202 470500                    LDP0    OPTION$,,AUTO
        19 007012   000003 235100                    LDA     3,,PR0
        19 007013   007020 601000 19                 TNZ     s:17313

     2693    17311    2               CODE = %DBFKY;

  17311 19 007014   040100 100400                    MLR     fill='040'O
        19 007015   000036 000006 18                 ADSC9   30                       cn=0,n=6
        19 007016   200166 000006                    ADSC9   CODE,,AUTO               cn=0,n=6
        19 007017   007023 710000 19                 TRA     s:17315

     2694    17312    2           ELSE
     2695    17313    2               CODE = %DBFKC;

  17313 19 007020   040100 100400                    MLR     fill='040'O
        19 007021   000040 000006 18                 ADSC9   32                       cn=0,n=6
        19 007022   200166 000006                    ADSC9   CODE,,AUTO               cn=0,n=6

     2696    17314
     2697    17315    2           CALL Z8EU$CREATE_IDENTIFIER_FROM_ST(O1COM.DML_IA$,ADDR(IA_LX_ITEM));

  17315 19 007023   200006 631500                    EPPR1   IA_LX_ITEM,,AUTO
        19 007024   200242 451500                    STP1    OFFSET+2,,AUTO
        19 007025   200242 633500                    EPPR3   OFFSET+2,,AUTO
        19 007026   200245 453500                    STP3    OFFSET+5,,AUTO
        19 007027   000013 236000 20                 LDQ     11
        19 007030   200244 756100                    STQ     OFFSET+4,,AUTO
        19 007031   200244 630500                    EPPR0   OFFSET+4,,AUTO
        19 007032   000002 631400 20                 EPPR1   2
        19 007033   000000 701000 xent               TSX1    Z8EU$CREATE_IDENTIFIER_FROM_ST
        19 007034   000000 011000                    NOP     0

     2698    17316
     2699    17317    2           CALL BUILD_PARM( RECORD_ST$, ADDR(RC_LX_ITEM));

  17317 19 007035   200026 630500                    EPPR0   RC_LX_ITEM,,AUTO
PL6.E3A0      #005=Z9EB$DML_STATEMENT File=Z9EB.:Z8A6TSI                         SAT 08/09/97 13:50 Page:493
        19 007036   200305 450500                    STP0    OFFSET+37,,AUTO
        19 007037   200305 631500                    EPPR1   OFFSET+37,,AUTO
        19 007040   200236 451500                    STP1    PTR$+1,,AUTO
        19 007041   200152 633500                    EPPR3   RECORD_ST$,,AUTO
        19 007042   200235 453500                    STP3    @ITEM$+1,,AUTO
        19 007043   000107 701000 19                 TSX1    BUILD_PARM
        19 007044   000000 011000                    NOP     0

     2700    17318    2           ADDR(IA_LX_ITEM) -> LX_ITEM.LINK = ADDR(RC_LX_ITEM);

  17318 19 007045   200026 630500                    EPPR0   RC_LX_ITEM,,AUTO
        19 007046   200015 450500                    STP0    IA_LX_ITEM+7,,AUTO

     2701    17319
     2702    17320    2           CALL BUILD_PARM( SET_ST$, ADDR(SC_AC_LX_ITEM));

  17320 19 007047   200036 631500                    EPPR1   SC_AC_LX_ITEM,,AUTO
        19 007050   200306 451500                    STP1    OFFSET+38,,AUTO
        19 007051   200306 633500                    EPPR3   OFFSET+38,,AUTO
        19 007052   200236 453500                    STP3    PTR$+1,,AUTO
        19 007053   200163 634500                    EPPR4   SET_ST$,,AUTO
        19 007054   200235 454500                    STP4    @ITEM$+1,,AUTO
        19 007055   000107 701000 19                 TSX1    BUILD_PARM
        19 007056   000000 011000                    NOP     0

     2703    17321    2           ADDR(RC_LX_ITEM) -> LX_ITEM.LINK = ADDR(SC_AC_LX_ITEM);

  17321 19 007057   200036 630500                    EPPR0   SC_AC_LX_ITEM,,AUTO
        19 007060   200035 450500                    STP0    RC_LX_ITEM+7,,AUTO

     2704    17322
     2705    17323    2           CALL BUILD_CONST_PARM( FIELD_LIST_CONTROL, ADDR(FL_ID_LX_ITEM));

  17323 19 007061   200066 631500                    EPPR1   FL_ID_LX_ITEM,,AUTO
        19 007062   200307 451500                    STP1    OFFSET+39,,AUTO
        19 007063   200307 633500                    EPPR3   OFFSET+39,,AUTO
        19 007064   200236 453500                    STP3    PTR$+1,,AUTO
PL6.E3A0      #005=Z9EB$DML_STATEMENT File=Z9EB.:Z8A6TSI                         SAT 08/09/97 13:50 Page:494
        19 007065   200215 634500                    EPPR4   FIELD_LIST_CONTROL,,AUTO
        19 007066   200235 454500                    STP4    @ITEM$+1,,AUTO
        19 007067   000167 701000 19                 TSX1    BUILD_CONST_PARM
        19 007070   000000 011000                    NOP     0

     2706    17324    2           ADDR(SC_AC_LX_ITEM) -> LX_ITEM.LINK = ADDR(FL_ID_LX_ITEM);

  17324 19 007071   200066 630500                    EPPR0   FL_ID_LX_ITEM,,AUTO
        19 007072   200045 450500                    STP0    SC_AC_LX_ITEM+7,,AUTO

     2707    17325
     2708    17326    2           ADDR(FL_ID_LX_ITEM) -> LX_ITEM.LINK = ADDR(RL_LX_ITEM);

  17326 19 007073   200016 631500                    EPPR1   RL_LX_ITEM,,AUTO
        19 007074   200075 451500                    STP1    FL_ID_LX_ITEM+7,,AUTO

     2709    17327
     2710    17328    2           IF RETENTION$ ~= ADDR(NIL)   THEN

  17328 19 007075   200004 473500                    LDP3    @RETENTION$,,AUTO
        19 007076   300000 236100                    LDQ     0,,PR3
        19 007077   000000 116000 20                 CMPQ    0
        19 007100   007104 600000 19                 TZE     s:17332

     2711    17329    2               RETENTION_LIST$ = ADDR(RL_LX_ITEM) -> LX_ITEM.LINK;

  17329 19 007101   200025 236100                    LDQ     RL_LX_ITEM+7,,AUTO
        19 007102   200200 756100                    STQ     RETENTION_LIST$,,AUTO
        19 007103   007107 710000 19                 TRA     s:17336

     2712    17330    2           ELSE
     2713    17331    3             DO;

     2714    17332    3               RETENTION_LIST$ = ADDR(NIL);

  17332 19 007104   000000 236000 20                 LDQ     0
        19 007105   200200 756100                    STQ     RETENTION_LIST$,,AUTO
PL6.E3A0      #005=Z9EB$DML_STATEMENT File=Z9EB.:Z8A6TSI                         SAT 08/09/97 13:50 Page:495

     2715    17333    3               ADDR(RL_LX_ITEM) -> LX_LIST.COUNT = 0;

  17333 19 007106   200020 450100                    STZ     RL_LX_ITEM+2,,AUTO

     2716    17334    3             END;

     2717    17335
     2718    17336    2           ADDR(RL_LX_ITEM) -> LX_ITEM.LINK = IDENT_LIST$ -> LX_LIST.HEAD$;

  17336 19 007107   200201 474500                    LDP4    IDENT_LIST$,,AUTO
        19 007110   400004 236100                    LDQ     4,,PR4
        19 007111   200025 756100                    STQ     RL_LX_ITEM+7,,AUTO

     2719    17337
     2720    17338    2           IF FIELD.COUNT ~= 0   THEN

  17338 19 007112   200215 220100                    LDX0    FIELD_LIST_CONTROL,,AUTO
        19 007113   007120 600000 19                 TZE     s:17341

     2721    17339    2               IDENT_LIST$ -> LX_LIST.TAIL$ -> LX_ITEM.LINK = RETENTION_LIST$;

  17339 19 007114   400001 475500                    LDP5    1,,PR4
        19 007115   200200 236100                    LDQ     RETENTION_LIST$,,AUTO
        19 007116   500007 756100                    STQ     7,,PR5
        19 007117   007122 710000 19                 TRA     s:17343

     2722    17340    2           ELSE
     2723    17341    2               ADDR(RL_LX_ITEM) -> LX_ITEM.LINK = RETENTION_LIST$;

  17341 19 007120   200200 236100                    LDQ     RETENTION_LIST$,,AUTO
        19 007121   200025 756100                    STQ     RL_LX_ITEM+7,,AUTO

     2724    17342
     2725    17343    2           ARG_COUNT = 5 + FIELD.COUNT + ADDR(RL_LX_ITEM) -> LX_LIST.COUNT;

  17343 19 007122   200215 236100                    LDQ     FIELD_LIST_CONTROL,,AUTO
PL6.E3A0      #005=Z9EB$DML_STATEMENT File=Z9EB.:Z8A6TSI                         SAT 08/09/97 13:50 Page:496
        19 007123   000022 772000                    QRL     18
        19 007124   200020 036100                    ADLQ    RL_LX_ITEM+2,,AUTO
        19 007125   000005 036007                    ADLQ    5,DL
        19 007126   200146 756100                    STQ     ARG_COUNT,,AUTO

     2726    17344
     2727    17345    2           CALL Z9EB$BUILD_CODE(CODE, ARG_COUNT, ADDR(IA_LX_ITEM));

  17345 19 007127   200006 630500                    EPPR0   IA_LX_ITEM,,AUTO
        19 007130   200242 450500                    STP0    OFFSET+2,,AUTO
        19 007131   200242 631500                    EPPR1   OFFSET+2,,AUTO
        19 007132   200245 451500                    STP1    OFFSET+5,,AUTO
        19 007133   200146 635500                    EPPR5   ARG_COUNT,,AUTO
        19 007134   200244 455500                    STP5    OFFSET+4,,AUTO
        19 007135   200166 636500                    EPPR6   CODE,,AUTO
        19 007136   200243 456500                    STP6    OFFSET+3,,AUTO
        19 007137   200243 630500                    EPPR0   OFFSET+3,,AUTO
        19 007140   000004 631400 20                 EPPR1   4
        19 007141   000000 701000 xent               TSX1    Z9EB$BUILD_CODE
        19 007142   000000 011000                    NOP     0

     2728    17346
     2729    17347    2           IF FIELD.COUNT ~= 0  THEN

  17347 19 007143   200215 220100                    LDX0    FIELD_LIST_CONTROL,,AUTO
        19 007144   007151 600000 19                 TZE     s:17352

     2730    17348    2               IDENT_LIST$ -> LX_LIST.TAIL$ -> LX_ITEM.LINK = ADDR(NIL);

  17348 19 007145   200201 470500                    LDP0    IDENT_LIST$,,AUTO
        19 007146   000001 471500                    LDP1    1,,PR0
        19 007147   000000 236000 20                 LDQ     0
        19 007150   100007 756100                    STQ     7,,PR1

     2731    17349
     2732    17350    2         END;                           /*V*  IF ERROR_FLAG   */

PL6.E3A0      #005=Z9EB$DML_STATEMENT File=Z9EB.:Z8A6TSI                         SAT 08/09/97 13:50 Page:497
     2733    17351
     2734    17352    1       IF IDENT_LIST$ -> LX_ITEM.ID = %LX_LIST   THEN

  17352 19 007151   200201 470500                    LDP0    IDENT_LIST$,,AUTO
        19 007152   000000 220100                    LDX0    0,,PR0
        19 007153   000002 100003                    CMPX0   2,DU
        19 007154   007164 601000 19                 TNZ     s:17355

     2735    17353    1           CALL Z8ED$DISPOSE_ABSSYN_TREE(IDENT_LIST$ -> LX_LIST.HEAD$);

  17353 19 007155   200201 236100                    LDQ     IDENT_LIST$,,AUTO
        19 007156   000004 036003                    ADLQ    4,DU
        19 007157   200242 756100                    STQ     OFFSET+2,,AUTO
        19 007160   200242 630500                    EPPR0   OFFSET+2,,AUTO
        19 007161   000005 631400 20                 EPPR1   5
        19 007162   000000 701000 xent               TSX1    Z8ED$DISPOSE_ABSSYN_TREE
        19 007163   000000 011000                    NOP     0

     2736    17354
     2737    17355    1       RETURN;

  17355 19 007164   000000 702200 xent               TSX2  ! X66_ARET

     2738    17356        %EJECT;
PL6.E3A0      #005=Z9EB$DML_STATEMENT File=Z9EB.:Z8A6TSI                         SAT 08/09/97 13:50 Page:498
     2739    17357        /*============*/
     2740    17358    1     Z9EB$DB_COMPARE :   ENTRY  ( RECORD_SELECTION$,RETENTION$);

  17358 19 007165   000000 700200 xent  Z9EB$DB_COM* TSX0  ! X66_AUTO_2
        19 007166   000334 000002                    ZERO    220,2

     2741    17359        /*============*/
     2742    17360
     2743    17361
     2744    17362    1   SET$ = RECORD_SELECTION$ ->  UNARY_OP.LOP$;

  17362 19 007167   200003 470500                    LDP0    @RECORD_SELECTION$,,AUTO
        19 007170   000000 471500                    LDP1    0,,PR0
        19 007171   100001 236100                    LDQ     1,,PR1
        19 007172   200160 756100                    STQ     SET$,,AUTO

     2745    17363
     2746    17364    1   IF SET$ -> LX_ITEM.ID = %LX_TERMINAL AND  SET$ -> LX_ITEM.SYMBOL = %EMPTY   THEN

  17364 19 007173   200160 473500                    LDP3    SET$,,AUTO
        19 007174   300000 220100                    LDX0    0,,PR3
        19 007175   007206 601000 19                 TNZ     s:17372
        19 007176   300003 235100                    LDA     3,,PR3
        19 007177   007206 601000 19                 TNZ     s:17372

     2747    17365    2     DO;

     2748    17366    2       CODE = %DBIFT;

  17366 19 007200   040100 100400                    MLR     fill='040'O
        19 007201   000042 000006 18                 ADSC9   34                       cn=0,n=6
        19 007202   200166 000006                    ADSC9   CODE,,AUTO               cn=0,n=6

     2749    17367    2       ARG_COUNT = 2;

  17367 19 007203   000002 235007                    LDA     2,DL
        19 007204   200146 755100                    STA     ARG_COUNT,,AUTO
PL6.E3A0      #005=Z9EB$DML_STATEMENT File=Z9EB.:Z8A6TSI                         SAT 08/09/97 13:50 Page:499

     2750    17368    2     END;

  17368 19 007205   007276 710000 19                 TRA     s:17403

     2751    17369
     2752    17370    1   ELSE
     2753    17371    2     DO;

     2754    17372    2       ARG_COUNT = 3;

  17372 19 007206   000003 235007                    LDA     3,DL
        19 007207   200146 755100                    STA     ARG_COUNT,,AUTO

     2755    17373    2       CODE = %DBIST;

  17373 19 007210   040100 100400                    MLR     fill='040'O
        19 007211   000044 000006 18                 ADSC9   36                       cn=0,n=6
        19 007212   200166 000006                    ADSC9   CODE,,AUTO               cn=0,n=6

     2756    17374    2       RVA_TYPE = %RVA_SET;

  17374 19 007213   000001 220003                    LDX0    1,DU
        19 007214   200147 740100                    STX0    RVA_TYPE,,AUTO

     2757    17375
     2758    17376    2       IF SET$ -> LX_ITEM.B.ERROR   THEN

  17376 19 007215   300000 236100                    LDQ     0,,PR3
        19 007216   400000 316007                    CANQ    -131072,DL
        19 007217   007223 600000 19                 TZE     s:17382

     2759    17377    2          ERROR_FLAG = %TRUE;

  17377 19 007220   400000 236003                    LDQ     -131072,DU
        19 007221   200213 756100                    STQ     ERROR_FLAG,,AUTO
        19 007222   007276 710000 19                 TRA     s:17403
PL6.E3A0      #005=Z9EB$DML_STATEMENT File=Z9EB.:Z8A6TSI                         SAT 08/09/97 13:50 Page:500

     2760    17378    2       ELSE
     2761    17379    3         DO;

     2762    17380                %FISH(TRIAD = SET$ -> LX_ETT_ITEM.ETT$, RTN = SET_ST$);

  17382 19 007223   300001 236100                    LDQ     1,,PR3
        19 007224   200163 756100                    STQ     SET_ST$,,AUTO

  17383 19 007225   200163 471500                    LDP1    SET_ST$,,AUTO
        19 007226   100000 221100                    LDX1    0,,PR1
        19 007227   000751 101003                    CMPX1   489,DU
        19 007230   007240 603000 19                 TRC     s:17389

  17384 19 007231   200163 470500                    LDP0    SET_ST$,,AUTO
        19 007232   000001 236100                    LDQ     1,,PR0
        19 007233   200163 756100                    STQ     SET_ST$,,AUTO

  17385 19 007234   200163 470500                    LDP0    SET_ST$,,AUTO
        19 007235   000000 220100                    LDX0    0,,PR0
        19 007236   000751 100003                    CMPX0   489,DU
        19 007237   007231 602000 19                 TNC     s:17384

     2763    17388
     2764    17389    3           IF SET_ST$ -> DML_ITEM.ID ~= %DML_SET    THEN

  17389 19 007240   200163 470500                    LDP0    SET_ST$,,AUTO
        19 007241   000000 220100                    LDX0    0,,PR0
        19 007242   000753 100003                    CMPX0   491,DU
        19 007243   007263 600000 19                 TZE     s:17398

     2765    17390    4             DO;

     2766    17391    4               CALL Z8AE$ERROR(%E$ITEM_NOT_A_SET,

  17391 19 007244   200160 236100                    LDQ     SET$,,AUTO
        19 007245   000006 036003                    ADLQ    6,DU
PL6.E3A0      #005=Z9EB$DML_STATEMENT File=Z9EB.:Z8A6TSI                         SAT 08/09/97 13:50 Page:501
        19 007246   200244 756100                    STQ     OFFSET+4,,AUTO
        19 007247   200160 236100                    LDQ     SET$,,AUTO
        19 007250   000005 036003                    ADLQ    5,DU
        19 007251   000007 235000 20                 LDA     7
        19 007252   200242 757100                    STAQ    OFFSET+2,,AUTO
        19 007253   200242 630500                    EPPR0   OFFSET+2,,AUTO
        19 007254   000004 631400 20                 EPPR1   4
        19 007255   000000 701000 xent               TSX1    Z8AE$ERROR
        19 007256   000000 011000                    NOP     0

     2767    17392    4                               SET$ -> LX_ITEM.LINE,
     2768    17393    4                               SET$ -> LX_ITEM.COLUMN);
     2769    17394    4               RETENTION$ = ADDR(NIL);

  17394 19 007257   000000 236000 20                 LDQ     0
        19 007260   200004 470500                    LDP0    @RETENTION$,,AUTO
        19 007261   000000 756100                    STQ     0,,PR0

     2770    17395    4               RETURN;

  17395 19 007262   000000 702200 xent               TSX2  ! X66_ARET

     2771    17396    4             END;
     2772    17397
     2773    17398    3           IF SET_ST$ -> DML_ITEM.B.DML_RVA = %FALSE   THEN

  17398 19 007263   000003 236100                    LDQ     3,,PR0
        19 007264   002000 316007                    CANQ    1024,DL
        19 007265   007276 601000 19                 TNZ     s:17403

     2774    17399    3               CALL Z9EB$BUILD_RVA_TABLE( SET_ST$, RVA_TYPE);

  17399 19 007266   200147 631500                    EPPR1   RVA_TYPE,,AUTO
        19 007267   200243 451500                    STP1    OFFSET+3,,AUTO
        19 007270   200163 633500                    EPPR3   SET_ST$,,AUTO
        19 007271   200242 453500                    STP3    OFFSET+2,,AUTO
        19 007272   200242 630500                    EPPR0   OFFSET+2,,AUTO
PL6.E3A0      #005=Z9EB$DML_STATEMENT File=Z9EB.:Z8A6TSI                         SAT 08/09/97 13:50 Page:502
        19 007273   000002 631400 20                 EPPR1   2
        19 007274   000000 701000 xent               TSX1    Z9EB$BUILD_RVA_TABLE
        19 007275   000000 011000                    NOP     0

     2775    17400    3         END;

     2776    17401    2     END;

     2777    17402
     2778    17403    1   CONST_WORD = 0;

  17403 19 007276   200176 450100                    STZ     CONST_WORD,,AUTO

     2779    17404    1   IF RECORD_SELECTION$ -> UNARY_OP.OP = %OP_OWNER      OR

  17404 19 007277   200003 470500                    LDP0    @RECORD_SELECTION$,,AUTO
        19 007300   000000 471500                    LDP1    0,,PR0
        19 007301   100003 235100                    LDA     3,,PR1
        19 007302   000003 115007                    CMPA    3,DL
        19 007303   007306 600000 19                 TZE     s:17406
        19 007304   000005 115007                    CMPA    5,DL
        19 007305   007310 601000 19                 TNZ     s:17407

     2780    17405    1             RECORD_SELECTION$ -> UNARY_OP.OP = %OP_TENANT    THEN
     2781    17406    1       TENANT.OWNER = %TRUE;

  17406 19 007306   400000 236003                    LDQ     -131072,DU
        19 007307   200176 256100                    ORSQ    CONST_WORD,,AUTO

     2782    17407    1   IF RECORD_SELECTION$ -> UNARY_OP.OP = %OP_MEMBER     OR

  17407 19 007310   000000 471500                    LDP1    0,,PR0
        19 007311   100003 235100                    LDA     3,,PR1
        19 007312   000004 115007                    CMPA    4,DL
        19 007313   007316 600000 19                 TZE     s:17409
        19 007314   000005 115007                    CMPA    5,DL
        19 007315   007320 601000 19                 TNZ     s:17411
PL6.E3A0      #005=Z9EB$DML_STATEMENT File=Z9EB.:Z8A6TSI                         SAT 08/09/97 13:50 Page:503

     2783    17408    1             RECORD_SELECTION$ -> UNARY_OP.OP = %OP_TENANT    THEN
     2784    17409    1       TENANT.MEMBER = %TRUE;

  17409 19 007316   200000 236003                    LDQ     65536,DU
        19 007317   200176 256100                    ORSQ    CONST_WORD,,AUTO

     2785    17410
     2786    17411    1   CALL Z8EU$CREATE_IDENTIFIER_FROM_ST(O1COM.DML_IA$,ADDR(IA_LX_ITEM));

  17411 19 007320   200006 631500                    EPPR1   IA_LX_ITEM,,AUTO
        19 007321   200242 451500                    STP1    OFFSET+2,,AUTO
        19 007322   200242 633500                    EPPR3   OFFSET+2,,AUTO
        19 007323   200245 453500                    STP3    OFFSET+5,,AUTO
        19 007324   000013 236000 20                 LDQ     11
        19 007325   200244 756100                    STQ     OFFSET+4,,AUTO
        19 007326   200244 630500                    EPPR0   OFFSET+4,,AUTO
        19 007327   000002 631400 20                 EPPR1   2
        19 007330   000000 701000 xent               TSX1    Z8EU$CREATE_IDENTIFIER_FROM_ST
        19 007331   000000 011000                    NOP     0

     2787    17412
     2788    17413    1   CALL BUILD_CONST_PARM(CONST_WORD, ADDR(FL_ID_LX_ITEM) );

  17413 19 007332   200066 630500                    EPPR0   FL_ID_LX_ITEM,,AUTO
        19 007333   200310 450500                    STP0    OFFSET+40,,AUTO
        19 007334   200310 631500                    EPPR1   OFFSET+40,,AUTO
        19 007335   200236 451500                    STP1    PTR$+1,,AUTO
        19 007336   200176 633500                    EPPR3   CONST_WORD,,AUTO
        19 007337   200235 453500                    STP3    @ITEM$+1,,AUTO
        19 007340   000167 701000 19                 TSX1    BUILD_CONST_PARM
        19 007341   000000 011000                    NOP     0

     2789    17414    1   ADDR(IA_LX_ITEM) -> LX_ITEM.LINK = ADDR(FL_ID_LX_ITEM);

  17414 19 007342   200066 630500                    EPPR0   FL_ID_LX_ITEM,,AUTO
        19 007343   200015 450500                    STP0    IA_LX_ITEM+7,,AUTO
PL6.E3A0      #005=Z9EB$DML_STATEMENT File=Z9EB.:Z8A6TSI                         SAT 08/09/97 13:50 Page:504

     2790    17415
     2791    17416    1   IF CODE = %DBIST  THEN

  17416 19 007344   040000 106500                    CMPC    fill='040'O
        19 007345   200166 000006                    ADSC9   CODE,,AUTO               cn=0,n=6
        19 007346   000044 000006 18                 ADSC9   36                       cn=0,n=6
        19 007347   007362 601000 19                 TNZ     s:17422

     2792    17417    2     DO;

     2793    17418    2       CALL BUILD_PARM(SET_ST$, ADDR(SC_AC_LX_ITEM));

  17418 19 007350   200036 631500                    EPPR1   SC_AC_LX_ITEM,,AUTO
        19 007351   200311 451500                    STP1    OFFSET+41,,AUTO
        19 007352   200311 633500                    EPPR3   OFFSET+41,,AUTO
        19 007353   200236 453500                    STP3    PTR$+1,,AUTO
        19 007354   200163 634500                    EPPR4   SET_ST$,,AUTO
        19 007355   200235 454500                    STP4    @ITEM$+1,,AUTO
        19 007356   000107 701000 19                 TSX1    BUILD_PARM
        19 007357   000000 011000                    NOP     0

     2794    17419    2       ADDR(FL_ID_LX_ITEM) -> LX_ITEM.LINK = ADDR(SC_AC_LX_ITEM);

  17419 19 007360   200036 630500                    EPPR0   SC_AC_LX_ITEM,,AUTO
        19 007361   200075 450500                    STP0    FL_ID_LX_ITEM+7,,AUTO

     2795    17420    2     END;

     2796    17421
     2797    17422    1   CALL Z9EB$BUILD_CODE(CODE, ARG_COUNT, ADDR(IA_LX_ITEM));

  17422 19 007362   200006 630500                    EPPR0   IA_LX_ITEM,,AUTO
        19 007363   200242 450500                    STP0    OFFSET+2,,AUTO
        19 007364   200242 631500                    EPPR1   OFFSET+2,,AUTO
        19 007365   200245 451500                    STP1    OFFSET+5,,AUTO
        19 007366   200146 633500                    EPPR3   ARG_COUNT,,AUTO
PL6.E3A0      #005=Z9EB$DML_STATEMENT File=Z9EB.:Z8A6TSI                         SAT 08/09/97 13:50 Page:505
        19 007367   200244 453500                    STP3    OFFSET+4,,AUTO
        19 007370   200166 634500                    EPPR4   CODE,,AUTO
        19 007371   200243 454500                    STP4    OFFSET+3,,AUTO
        19 007372   200243 630500                    EPPR0   OFFSET+3,,AUTO
        19 007373   000004 631400 20                 EPPR1   4
        19 007374   000000 701000 xent               TSX1    Z9EB$BUILD_CODE
        19 007375   000000 011000                    NOP     0

     2798    17423
     2799    17424        /*V*   POINT UNARY_OP.LOP   TO   .UWA + 0     */
     2800    17425
     2801    17426    1   SET$ -> LX_ETT_ITEM.TYPE = %TYI;

  17426 19 007376   000001 235007                    LDA     1,DL
        19 007377   200160 470500                    LDP0    SET$,,AUTO
        19 007400   000004 755100                    STA     4,,PR0

     2802    17427        %SRCH_ETT(@ID = %BASE,
     2803    17428                  @LOP  = O1COM.UWA_PLUS_ZERO$,
     2804    17429                  @ROP = "ADDR(NIL)",
     2805    17430                  @ETT$ = SET$ -> LX_ETT_ITEM.ETT$);

  17432 19 007401   000000 755000 13                 STA     SRCH

  17433 19 007402   000101 236000 xsym               LDQ     O1COM+65
        19 007403   000001 756000 13                 STQ     SRCH+1

  17435 19 007404   000000 236000 20                 LDQ     0
        19 007405   000002 756000 13                 STQ     SRCH+2

  17442 19 007406   200160 236100                    LDQ     SET$,,AUTO
        19 007407   000001 036003                    ADLQ    1,DU
        19 007410   200242 756100                    STQ     OFFSET+2,,AUTO
        19 007411   200242 630500                    EPPR0   OFFSET+2,,AUTO
        19 007412   000005 631400 20                 EPPR1   5
        19 007413   000000 701000 xent               TSX1    Z8AS$SR_ETT
        19 007414   000000 011000                    NOP     0
PL6.E3A0      #005=Z9EB$DML_STATEMENT File=Z9EB.:Z8A6TSI                         SAT 08/09/97 13:50 Page:506

     2806    17445    1   SET$ -> LX_ITEM.ID = %LX_ETT_ITEM;

  17445 19 007415   000004 220003                    LDX0    4,DU
        19 007416   200160 470500                    LDP0    SET$,,AUTO
        19 007417   000000 740100                    STX0    0,,PR0

     2807    17446
     2808    17447    1   RETURN;

  17447 19 007420   000000 702200 xent               TSX2  ! X66_ARET

     2809    17448        %EJECT;
PL6.E3A0      #005=Z9EB$DML_STATEMENT File=Z9EB.:Z8A6TSI                         SAT 08/09/97 13:50 Page:507
     2810    17449        /*==================*/
     2811    17450    1     Z9EB$COMPARE_EMPTY :  ENTRY ( RECORD_SELECTION$, RETENTION$ );

  17450 19 007421   000000 700200 xent  Z9EB$COMPAR* TSX0  ! X66_AUTO_2
        19 007422   000334 000002                    ZERO    220,2

     2812    17451        /*==================*/
     2813    17452
     2814    17453
     2815    17454    1   SET$ = RECORD_SELECTION$ -> UNARY_OP.LOP$;

  17454 19 007423   200003 470500                    LDP0    @RECORD_SELECTION$,,AUTO
        19 007424   000000 471500                    LDP1    0,,PR0
        19 007425   100001 236100                    LDQ     1,,PR1
        19 007426   200160 756100                    STQ     SET$,,AUTO

     2816    17455    1   RVA_TYPE = %RVA_SET;

  17455 19 007427   000001 220003                    LDX0    1,DU
        19 007430   200147 740100                    STX0    RVA_TYPE,,AUTO

     2817    17456
     2818    17457    1   IF SET$ -> LX_ITEM.B.ERROR       THEN

  17457 19 007431   200160 471500                    LDP1    SET$,,AUTO
        19 007432   100000 236100                    LDQ     0,,PR1
        19 007433   400000 316007                    CANQ    -131072,DL
        19 007434   007441 600000 19                 TZE     s:17465

     2819    17458    2     DO;

     2820    17459    2       RETENTION$ = ADDR(NIL);

  17459 19 007435   000000 236000 20                 LDQ     0
        19 007436   200004 473500                    LDP3    @RETENTION$,,AUTO
        19 007437   300000 756100                    STQ     0,,PR3

PL6.E3A0      #005=Z9EB$DML_STATEMENT File=Z9EB.:Z8A6TSI                         SAT 08/09/97 13:50 Page:508
     2821    17460    2       RETURN;

  17460 19 007440   000000 702200 xent               TSX2  ! X66_ARET

     2822    17461    2     END;
     2823    17462
     2824    17463        %FISH( TRIAD = SET$ -> LX_ETT_ITEM.ETT$, RTN = SET_ST$);

  17465 19 007441   100001 236100                    LDQ     1,,PR1
        19 007442   200163 756100                    STQ     SET_ST$,,AUTO

  17466 19 007443   200163 473500                    LDP3    SET_ST$,,AUTO
        19 007444   300000 221100                    LDX1    0,,PR3
        19 007445   000751 101003                    CMPX1   489,DU
        19 007446   007456 603000 19                 TRC     s:17472

  17467 19 007447   200163 470500                    LDP0    SET_ST$,,AUTO
        19 007450   000001 236100                    LDQ     1,,PR0
        19 007451   200163 756100                    STQ     SET_ST$,,AUTO

  17468 19 007452   200163 470500                    LDP0    SET_ST$,,AUTO
        19 007453   000000 220100                    LDX0    0,,PR0
        19 007454   000751 100003                    CMPX0   489,DU
        19 007455   007447 602000 19                 TNC     s:17467

     2825    17471
     2826    17472    1   IF SET_ST$ -> DML_ITEM.ID ~= %DML_SET    THEN

  17472 19 007456   200163 470500                    LDP0    SET_ST$,,AUTO
        19 007457   000000 220100                    LDX0    0,,PR0
        19 007460   000753 100003                    CMPX0   491,DU
        19 007461   007501 600000 19                 TZE     s:17481

     2827    17473    2     DO;

     2828    17474    2       CALL Z8AE$ERROR(%E$ITEM_NOT_A_SET,

PL6.E3A0      #005=Z9EB$DML_STATEMENT File=Z9EB.:Z8A6TSI                         SAT 08/09/97 13:50 Page:509
  17474 19 007462   200160 236100                    LDQ     SET$,,AUTO
        19 007463   000006 036003                    ADLQ    6,DU
        19 007464   200244 756100                    STQ     OFFSET+4,,AUTO
        19 007465   200160 236100                    LDQ     SET$,,AUTO
        19 007466   000005 036003                    ADLQ    5,DU
        19 007467   000007 235000 20                 LDA     7
        19 007470   200242 757100                    STAQ    OFFSET+2,,AUTO
        19 007471   200242 630500                    EPPR0   OFFSET+2,,AUTO
        19 007472   000004 631400 20                 EPPR1   4
        19 007473   000000 701000 xent               TSX1    Z8AE$ERROR
        19 007474   000000 011000                    NOP     0

     2829    17475    2                       SET$ -> LX_ITEM.LINE,
     2830    17476    2                       SET$ -> LX_ITEM.COLUMN);
     2831    17477    2       RETENTION$ = ADDR(NIL);

  17477 19 007475   000000 236000 20                 LDQ     0
        19 007476   200004 470500                    LDP0    @RETENTION$,,AUTO
        19 007477   000000 756100                    STQ     0,,PR0

     2832    17478    2       RETURN;

  17478 19 007500   000000 702200 xent               TSX2  ! X66_ARET

     2833    17479    2     END;
     2834    17480
     2835    17481    1   IF SET_ST$ -> DML_ITEM.B.DML_RVA = %FALSE   THEN

  17481 19 007501   000003 236100                    LDQ     3,,PR0
        19 007502   002000 316007                    CANQ    1024,DL
        19 007503   007514 601000 19                 TNZ     s:17484

     2836    17482    1       CALL Z9EB$BUILD_RVA_TABLE( SET_ST$, RVA_TYPE);

  17482 19 007504   200147 631500                    EPPR1   RVA_TYPE,,AUTO
        19 007505   200243 451500                    STP1    OFFSET+3,,AUTO
        19 007506   200163 633500                    EPPR3   SET_ST$,,AUTO
PL6.E3A0      #005=Z9EB$DML_STATEMENT File=Z9EB.:Z8A6TSI                         SAT 08/09/97 13:50 Page:510
        19 007507   200242 453500                    STP3    OFFSET+2,,AUTO
        19 007510   200242 630500                    EPPR0   OFFSET+2,,AUTO
        19 007511   000002 631400 20                 EPPR1   2
        19 007512   000000 701000 xent               TSX1    Z9EB$BUILD_RVA_TABLE
        19 007513   000000 011000                    NOP     0

     2837    17483
     2838    17484    1   CALL Z8EU$CREATE_IDENTIFIER_FROM_ST( O1COM.DML_IA$, ADDR(IA_LX_ITEM));

  17484 19 007514   200006 630500                    EPPR0   IA_LX_ITEM,,AUTO
        19 007515   200242 450500                    STP0    OFFSET+2,,AUTO
        19 007516   200242 631500                    EPPR1   OFFSET+2,,AUTO
        19 007517   200245 451500                    STP1    OFFSET+5,,AUTO
        19 007520   000013 236000 20                 LDQ     11
        19 007521   200244 756100                    STQ     OFFSET+4,,AUTO
        19 007522   200244 630500                    EPPR0   OFFSET+4,,AUTO
        19 007523   000002 631400 20                 EPPR1   2
        19 007524   000000 701000 xent               TSX1    Z8EU$CREATE_IDENTIFIER_FROM_ST
        19 007525   000000 011000                    NOP     0

     2839    17485    1   CALL BUILD_PARM( SET_ST$, ADDR(SC_AC_LX_ITEM));

  17485 19 007526   200036 630500                    EPPR0   SC_AC_LX_ITEM,,AUTO
        19 007527   200312 450500                    STP0    OFFSET+42,,AUTO
        19 007530   200312 631500                    EPPR1   OFFSET+42,,AUTO
        19 007531   200236 451500                    STP1    PTR$+1,,AUTO
        19 007532   200163 633500                    EPPR3   SET_ST$,,AUTO
        19 007533   200235 453500                    STP3    @ITEM$+1,,AUTO
        19 007534   000107 701000 19                 TSX1    BUILD_PARM
        19 007535   000000 011000                    NOP     0

     2840    17486    1   ADDR(IA_LX_ITEM) -> LX_ITEM.LINK = ADDR(SC_AC_LX_ITEM);

  17486 19 007536   200036 630500                    EPPR0   SC_AC_LX_ITEM,,AUTO
        19 007537   200015 450500                    STP0    IA_LX_ITEM+7,,AUTO

     2841    17487
PL6.E3A0      #005=Z9EB$DML_STATEMENT File=Z9EB.:Z8A6TSI                         SAT 08/09/97 13:50 Page:511
     2842    17488    1   CALL Z9EB$BUILD_CODE( %DBIFM, 2, ADDR(IA_LX_ITEM));

  17488 19 007540   200006 631500                    EPPR1   IA_LX_ITEM,,AUTO
        19 007541   200242 451500                    STP1    OFFSET+2,,AUTO
        19 007542   200242 633500                    EPPR3   OFFSET+2,,AUTO
        19 007543   200245 453500                    STP3    OFFSET+5,,AUTO
        19 007544   000061 236000 20                 LDQ     49
        19 007545   200244 756100                    STQ     OFFSET+4,,AUTO
        19 007546   000062 236000 20                 LDQ     50
        19 007547   200243 756100                    STQ     OFFSET+3,,AUTO
        19 007550   200243 630500                    EPPR0   OFFSET+3,,AUTO
        19 007551   000004 631400 20                 EPPR1   4
        19 007552   000000 701000 xent               TSX1    Z9EB$BUILD_CODE
        19 007553   000000 011000                    NOP     0

     2843    17489
     2844    17490    1   SET$ -> LX_ETT_ITEM.TYPE = %TYI;

  17490 19 007554   000001 235007                    LDA     1,DL
        19 007555   200160 470500                    LDP0    SET$,,AUTO
        19 007556   000004 755100                    STA     4,,PR0

     2845    17491        %SRCH_ETT(@ID = %BASE,
     2846    17492                  @LOP = O1COM.UWA_PLUS_ZERO$,
     2847    17493                  @ROP = "ADDR(NIL)",
     2848    17494                  @ETT$ = SET$ -> LX_ETT_ITEM.ETT$);

  17496 19 007557   000000 755000 13                 STA     SRCH

  17497 19 007560   000101 236000 xsym               LDQ     O1COM+65
        19 007561   000001 756000 13                 STQ     SRCH+1

  17499 19 007562   000000 236000 20                 LDQ     0
        19 007563   000002 756000 13                 STQ     SRCH+2

  17506 19 007564   200160 236100                    LDQ     SET$,,AUTO
        19 007565   000001 036003                    ADLQ    1,DU
PL6.E3A0      #005=Z9EB$DML_STATEMENT File=Z9EB.:Z8A6TSI                         SAT 08/09/97 13:50 Page:512
        19 007566   200242 756100                    STQ     OFFSET+2,,AUTO
        19 007567   200242 630500                    EPPR0   OFFSET+2,,AUTO
        19 007570   000005 631400 20                 EPPR1   5
        19 007571   000000 701000 xent               TSX1    Z8AS$SR_ETT
        19 007572   000000 011000                    NOP     0

     2849    17509
     2850    17510    1   RETURN;

  17510 19 007573   000000 702200 xent               TSX2  ! X66_ARET

     2851    17511        %EJECT;
PL6.E3A0      #005=Z9EB$DML_STATEMENT File=Z9EB.:Z8A6TSI                         SAT 08/09/97 13:50 Page:513
     2852    17512        /*===============*/
     2853    17513    1    Z9EB$FIND_USING :  ENTRY (RECORD_SELECTION$, RETENTION$);

  17513 19 007574   000000 700200 xent  Z9EB$FIND_U* TSX0  ! X66_AUTO_2
        19 007575   000334 000002                    ZERO    220,2

     2854    17514        /*==============*/
     2855    17515
     2856    17516    1   OPTION$ = RECORD_SELECTION$ -> LX_LIST.HEAD$;

  17516 19 007576   200003 470500                    LDP0    @RECORD_SELECTION$,,AUTO
        19 007577   000000 471500                    LDP1    0,,PR0
        19 007600   100004 236100                    LDQ     4,,PR1
        19 007601   200202 756100                    STQ     OPTION$,,AUTO

     2857    17517    1   RECORD$ = OPTION$ ->  LX_ITEM.LINK;

  17517 19 007602   200202 471500                    LDP1    OPTION$,,AUTO
        19 007603   100007 236100                    LDQ     7,,PR1
        19 007604   200150 756100                    STQ     RECORD$,,AUTO

     2858    17518    1   KEY$ = RECORD_SELECTION$ -> LX_LIST.TAIL$;

  17518 19 007605   000000 473500                    LDP3    0,,PR0
        19 007606   300001 236100                    LDQ     1,,PR3
        19 007607   200161 756100                    STQ     KEY$,,AUTO

     2859    17519    1   ERROR_FLAG = %FALSE;

  17519 19 007610   200213 450100                    STZ     ERROR_FLAG,,AUTO

     2860    17520    1   ARG_COUNT = 5;

  17520 19 007611   000005 235007                    LDA     5,DL
        19 007612   200146 755100                    STA     ARG_COUNT,,AUTO

     2861    17521
PL6.E3A0      #005=Z9EB$DML_STATEMENT File=Z9EB.:Z8A6TSI                         SAT 08/09/97 13:50 Page:514
     2862    17522        /*V*     Check Record Item      */
     2863    17523
     2864    17524    1   IF RECORD$ ->LX_ITEM.ID = %LX_TERMINAL AND  RECORD$ -> LX_ITEM.SYMBOL = %EMPTY THEN

  17524 19 007613   200150 473500                    LDP3    RECORD$,,AUTO
        19 007614   300000 220100                    LDX0    0,,PR3
        19 007615   007641 601000 19                 TNZ     s:17535
        19 007616   300003 235100                    LDA     3,,PR3
        19 007617   007641 601000 19                 TNZ     s:17535

     2865    17525    2     DO;

     2866    17526    2       IF O1COM.NILL_RVA = %FALSE       THEN

  17526 19 007620   000105 234000 xsym               SZN     O1COM+69
        19 007621   007636 604000 19                 TMI     s:17531

     2867    17527    3         DO;

     2868    17528    3           RVA_TYPE = %RVA_NULL;

  17528 19 007622   000004 221003                    LDX1    4,DU
        19 007623   200147 741100                    STX1    RVA_TYPE,,AUTO

     2869    17529    3           CALL Z9EB$BUILD_RVA_TABLE( ADDR(NIL), RVA_TYPE );

  17529 19 007624   000000 236000 20                 LDQ     0
        19 007625   200242 756100                    STQ     OFFSET+2,,AUTO
        19 007626   200147 634500                    EPPR4   RVA_TYPE,,AUTO
        19 007627   200245 454500                    STP4    OFFSET+5,,AUTO
        19 007630   200242 635500                    EPPR5   OFFSET+2,,AUTO
        19 007631   200244 455500                    STP5    OFFSET+4,,AUTO
        19 007632   200244 630500                    EPPR0   OFFSET+4,,AUTO
        19 007633   000002 631400 20                 EPPR1   2
        19 007634   000000 701000 xent               TSX1    Z9EB$BUILD_RVA_TABLE
        19 007635   000000 011000                    NOP     0

PL6.E3A0      #005=Z9EB$DML_STATEMENT File=Z9EB.:Z8A6TSI                         SAT 08/09/97 13:50 Page:515
     2870    17530    3         END;

     2871    17531    2       RECORD_ST$ = ADDR(NIL);

  17531 19 007636   000000 236000 20                 LDQ     0
        19 007637   200152 756100                    STQ     RECORD_ST$,,AUTO

     2872    17532    2     END;

  17532 19 007640   007723 710000 19                 TRA     s:17564

     2873    17533
     2874    17534    1   ELSE
     2875    17535    1    IF RECORD$ -> LX_ITEM.B.ERROR   THEN

  17535 19 007641   300000 236100                    LDQ     0,,PR3
        19 007642   400000 316007                    CANQ    -131072,DL
        19 007643   007647 600000 19                 TZE     s:17541

     2876    17536    1       ERROR_FLAG = %TRUE;

  17536 19 007644   400000 236003                    LDQ     -131072,DU
        19 007645   200213 756100                    STQ     ERROR_FLAG,,AUTO
        19 007646   007723 710000 19                 TRA     s:17564

     2877    17537    1    ELSE
     2878    17538    2     DO;

     2879    17539            %FISH( TRIAD = RECORD$ -> LX_ETT_ITEM.ETT$, RTN = RECORD_ST$);

  17541 19 007647   300001 236100                    LDQ     1,,PR3
        19 007650   200152 756100                    STQ     RECORD_ST$,,AUTO

  17542 19 007651   200152 474500                    LDP4    RECORD_ST$,,AUTO
        19 007652   400000 220100                    LDX0    0,,PR4
        19 007653   000751 100003                    CMPX0   489,DU
        19 007654   007664 603000 19                 TRC     s:17547
PL6.E3A0      #005=Z9EB$DML_STATEMENT File=Z9EB.:Z8A6TSI                         SAT 08/09/97 13:50 Page:516

  17543 19 007655   200152 470500                    LDP0    RECORD_ST$,,AUTO
        19 007656   000001 236100                    LDQ     1,,PR0
        19 007657   200152 756100                    STQ     RECORD_ST$,,AUTO

  17544 19 007660   200152 470500                    LDP0    RECORD_ST$,,AUTO
        19 007661   000000 220100                    LDX0    0,,PR0
        19 007662   000751 100003                    CMPX0   489,DU
        19 007663   007655 602000 19                 TNC     s:17543

     2880    17547    2       IF RECORD_ST$ -> SCALAR.B.DML_TYPE ~= %RECORD    THEN

  17547 19 007664   200152 470500                    LDP0    RECORD_ST$,,AUTO
        19 007665   000003 236100                    LDQ     3,,PR0
        19 007666   160000 376007                    ANQ     57344,DL
        19 007667   060000 116007                    CMPQ    24576,DL
        19 007670   007706 600000 19                 TZE     s:17555

     2881    17548    3         DO;

     2882    17549    3           CALL Z8AE$ERROR(%E$ITEM_NOT_A_RECORD,

  17549 19 007671   200150 236100                    LDQ     RECORD$,,AUTO
        19 007672   000006 036003                    ADLQ    6,DU
        19 007673   200244 756100                    STQ     OFFSET+4,,AUTO
        19 007674   200150 236100                    LDQ     RECORD$,,AUTO
        19 007675   000005 036003                    ADLQ    5,DU
        19 007676   000021 235000 20                 LDA     17
        19 007677   200242 757100                    STAQ    OFFSET+2,,AUTO
        19 007700   200242 630500                    EPPR0   OFFSET+2,,AUTO
        19 007701   000004 631400 20                 EPPR1   4
        19 007702   000000 701000 xent               TSX1    Z8AE$ERROR
        19 007703   000000 011000                    NOP     0

     2883    17550    3                           RECORD$ -> LX_ITEM.LINE,
     2884    17551    3                           RECORD$ -> LX_ITEM.COLUMN);
     2885    17552    3           ERROR_FLAG = %FALSE;
PL6.E3A0      #005=Z9EB$DML_STATEMENT File=Z9EB.:Z8A6TSI                         SAT 08/09/97 13:50 Page:517

  17552 19 007704   200213 450100                    STZ     ERROR_FLAG,,AUTO

     2886    17553    3         END;

  17553 19 007705   007723 710000 19                 TRA     s:17564

     2887    17554    2       ELSE
     2888    17555    2         IF RECORD_ST$ -> SCALAR.B.DML_RVA = %FALSE         THEN

  17555 19 007706   000003 236100                    LDQ     3,,PR0
        19 007707   002000 316007                    CANQ    1024,DL
        19 007710   007723 601000 19                 TNZ     s:17564

     2889    17556    3           DO;

     2890    17557    3             RVA_TYPE = %RVA_RECORD;

  17557 19 007711   000002 220003                    LDX0    2,DU
        19 007712   200147 740100                    STX0    RVA_TYPE,,AUTO

     2891    17558    3             CALL Z9EB$BUILD_RVA_TABLE(RECORD_ST$, RVA_TYPE);

  17558 19 007713   200147 631500                    EPPR1   RVA_TYPE,,AUTO
        19 007714   200243 451500                    STP1    OFFSET+3,,AUTO
        19 007715   200152 633500                    EPPR3   RECORD_ST$,,AUTO
        19 007716   200242 453500                    STP3    OFFSET+2,,AUTO
        19 007717   200242 630500                    EPPR0   OFFSET+2,,AUTO
        19 007720   000002 631400 20                 EPPR1   2
        19 007721   000000 701000 xent               TSX1    Z9EB$BUILD_RVA_TABLE
        19 007722   000000 011000                    NOP     0

     2892    17559    3           END;

     2893    17560    2     END;

     2894    17561
PL6.E3A0      #005=Z9EB$DML_STATEMENT File=Z9EB.:Z8A6TSI                         SAT 08/09/97 13:50 Page:518
     2895    17562        /*V*      Check Record Key       */
     2896    17563
     2897    17564    1   IF KEY$ -> LX_ITEM.B.ERROR    THEN

  17564 19 007723   200161 470500                    LDP0    KEY$,,AUTO
        19 007724   000000 236100                    LDQ     0,,PR0
        19 007725   400000 316007                    CANQ    -131072,DL
        19 007726   007732 600000 19                 TZE     s:17570

     2898    17565    1      ERROR_FLAG = %TRUE;

  17565 19 007727   400000 236003                    LDQ     -131072,DU
        19 007730   200213 756100                    STQ     ERROR_FLAG,,AUTO
        19 007731   007770 710000 19                 TRA     s:17585

     2899    17566    1   ELSE
     2900    17567    2     DO;

     2901    17568            %FISH( TRIAD = KEY$ -> LX_ETT_ITEM.ETT$, RTN = KEY_ST$);

  17570 19 007732   000001 236100                    LDQ     1,,PR0
        19 007733   200162 756100                    STQ     KEY_ST$,,AUTO

  17571 19 007734   200162 471500                    LDP1    KEY_ST$,,AUTO
        19 007735   100000 220100                    LDX0    0,,PR1
        19 007736   000751 100003                    CMPX0   489,DU
        19 007737   007747 603000 19                 TRC     s:17576

  17572 19 007740   200162 470500                    LDP0    KEY_ST$,,AUTO
        19 007741   000001 236100                    LDQ     1,,PR0
        19 007742   200162 756100                    STQ     KEY_ST$,,AUTO

  17573 19 007743   200162 470500                    LDP0    KEY_ST$,,AUTO
        19 007744   000000 220100                    LDX0    0,,PR0
        19 007745   000751 100003                    CMPX0   489,DU
        19 007746   007740 602000 19                 TNC     s:17572

PL6.E3A0      #005=Z9EB$DML_STATEMENT File=Z9EB.:Z8A6TSI                         SAT 08/09/97 13:50 Page:519
     2902    17576    2       IF KEY_ST$ -> DML_ITEM.ID ~= %DML_KEY       THEN

  17576 19 007747   200162 470500                    LDP0    KEY_ST$,,AUTO
        19 007750   000000 220100                    LDX0    0,,PR0
        19 007751   000754 100003                    CMPX0   492,DU
        19 007752   007770 600000 19                 TZE     s:17585

     2903    17577    3         DO;

     2904    17578    3           CALL Z8AE$ERROR( %E$ITEM_NOT_A_KEY,

  17578 19 007753   200161 236100                    LDQ     KEY$,,AUTO
        19 007754   000006 036003                    ADLQ    6,DU
        19 007755   200244 756100                    STQ     OFFSET+4,,AUTO
        19 007756   200161 236100                    LDQ     KEY$,,AUTO
        19 007757   000005 036003                    ADLQ    5,DU
        19 007760   000064 235000 20                 LDA     52
        19 007761   200242 757100                    STAQ    OFFSET+2,,AUTO
        19 007762   200242 630500                    EPPR0   OFFSET+2,,AUTO
        19 007763   000004 631400 20                 EPPR1   4
        19 007764   000000 701000 xent               TSX1    Z8AE$ERROR
        19 007765   000000 011000                    NOP     0

     2905    17579    3                           KEY$ -> LX_ITEM.LINE,
     2906    17580    3                           KEY$ -> LX_ITEM.COLUMN);
     2907    17581    3           ERROR_FLAG = %TRUE;

  17581 19 007766   400000 236003                    LDQ     -131072,DU
        19 007767   200213 756100                    STQ     ERROR_FLAG,,AUTO

     2908    17582    3         END;

     2909    17583    2     END;

     2910    17584
     2911    17585    1   CALL RETENTION( RETENTION$, ADDR(RL_LX_ITEM));

PL6.E3A0      #005=Z9EB$DML_STATEMENT File=Z9EB.:Z8A6TSI                         SAT 08/09/97 13:50 Page:520
  17585 19 007770   200016 630500                    EPPR0   RL_LX_ITEM,,AUTO
        19 007771   200313 450500                    STP0    OFFSET+43,,AUTO
        19 007772   200313 631500                    EPPR1   OFFSET+43,,AUTO
        19 007773   200222 451500                    STP1    @CODE+1,,AUTO
        19 007774   200004 236100                    LDQ     @RETENTION$,,AUTO
        19 007775   200221 756100                    STQ     SET_LIST_CONTROL+3,,AUTO
        19 007776   000345 701000 19                 TSX1    RETENTION
        19 007777   000000 011000                    NOP     0

     2912    17586
     2913    17587    1   IF ERROR_FLAG = %TRUE         THEN

  17587 19 010000   200213 234100                    SZN     ERROR_FLAG,,AUTO
        19 010001   010003 605000 19                 TPL     s:17590

     2914    17588    1       RETURN;

  17588 19 010002   000000 702200 xent               TSX2  ! X66_ARET

     2915    17589
     2916    17590    1   IF KEY_ST$ -> DML_ITEM.B.DML_RVA = %FALSE   THEN

  17590 19 010003   200162 470500                    LDP0    KEY_ST$,,AUTO
        19 010004   000003 236100                    LDQ     3,,PR0
        19 010005   002000 316007                    CANQ    1024,DL
        19 010006   010021 601000 19                 TNZ     s:17596

     2917    17591    2     DO;

     2918    17592    2       RVA_TYPE = %RVA_SET;

  17592 19 010007   000001 220003                    LDX0    1,DU
        19 010010   200147 740100                    STX0    RVA_TYPE,,AUTO

     2919    17593    2       CALL Z9EB$BUILD_RVA_TABLE( KEY_ST$, RVA_TYPE);

  17593 19 010011   200147 631500                    EPPR1   RVA_TYPE,,AUTO
PL6.E3A0      #005=Z9EB$DML_STATEMENT File=Z9EB.:Z8A6TSI                         SAT 08/09/97 13:50 Page:521
        19 010012   200243 451500                    STP1    OFFSET+3,,AUTO
        19 010013   200162 633500                    EPPR3   KEY_ST$,,AUTO
        19 010014   200242 453500                    STP3    OFFSET+2,,AUTO
        19 010015   200242 630500                    EPPR0   OFFSET+2,,AUTO
        19 010016   000002 631400 20                 EPPR1   2
        19 010017   000000 701000 xent               TSX1    Z9EB$BUILD_RVA_TABLE
        19 010020   000000 011000                    NOP     0

     2920    17594    2     END;

     2921    17595
     2922    17596    1   CONST_WORD = 0;

  17596 19 010021   200176 450100                    STZ     CONST_WORD,,AUTO

     2923    17597    1   ARG_COUNT =  ARG_COUNT + ADDR(RL_LX_ITEM) -> LX_LIST.COUNT;

  17597 19 010022   200146 236100                    LDQ     ARG_COUNT,,AUTO
        19 010023   200020 036100                    ADLQ    RL_LX_ITEM+2,,AUTO
        19 010024   200146 756100                    STQ     ARG_COUNT,,AUTO

     2924    17598
     2925    17599    1   CALL Z8EU$CREATE_IDENTIFIER_FROM_ST(O1COM.DML_IA$, ADDR(IA_LX_ITEM));

  17599 19 010025   200006 630500                    EPPR0   IA_LX_ITEM,,AUTO
        19 010026   200242 450500                    STP0    OFFSET+2,,AUTO
        19 010027   200242 631500                    EPPR1   OFFSET+2,,AUTO
        19 010030   200245 451500                    STP1    OFFSET+5,,AUTO
        19 010031   000013 236000 20                 LDQ     11
        19 010032   200244 756100                    STQ     OFFSET+4,,AUTO
        19 010033   200244 630500                    EPPR0   OFFSET+4,,AUTO
        19 010034   000002 631400 20                 EPPR1   2
        19 010035   000000 701000 xent               TSX1    Z8EU$CREATE_IDENTIFIER_FROM_ST
        19 010036   000000 011000                    NOP     0

     2926    17600
     2927    17601    1   IF OPTION$ -> LX_ITEM.SYMBOL = %RSV_WRD_FIRST   THEN
PL6.E3A0      #005=Z9EB$DML_STATEMENT File=Z9EB.:Z8A6TSI                         SAT 08/09/97 13:50 Page:522

  17601 19 010037   200202 470500                    LDP0    OPTION$,,AUTO
        19 010040   000003 235100                    LDA     3,,PR0
        19 010041   000324 115007                    CMPA    212,DL
        19 010042   010046 601000 19                 TNZ     s:17604

     2928    17602    1       FIND_CONTROL.STATUS = 0;

  17602 19 010043   000000 220003                    LDX0    0,DU
        19 010044   200176 740100                    STX0    CONST_WORD,,AUTO
        19 010045   010050 710000 19                 TRA     s:17606

     2929    17603    1   ELSE            /*V*  %RSV_WRD_NEXT  */
     2930    17604    1       FIND_CONTROL.STATUS = 1;

  17604 19 010046   000001 220003                    LDX0    1,DU
        19 010047   200176 740100                    STX0    CONST_WORD,,AUTO

     2931    17605
     2932    17606    1   CALL BUILD_CONST_PARM(CONST_WORD, ADDR(RDC_FC_LX_ITEM));

  17606 19 010050   200046 631500                    EPPR1   RDC_FC_LX_ITEM,,AUTO
        19 010051   200314 451500                    STP1    OFFSET+44,,AUTO
        19 010052   200314 633500                    EPPR3   OFFSET+44,,AUTO
        19 010053   200236 453500                    STP3    PTR$+1,,AUTO
        19 010054   200176 634500                    EPPR4   CONST_WORD,,AUTO
        19 010055   200235 454500                    STP4    @ITEM$+1,,AUTO
        19 010056   000167 701000 19                 TSX1    BUILD_CONST_PARM
        19 010057   000000 011000                    NOP     0

     2933    17607    1   ADDR(IA_LX_ITEM) -> LX_ITEM.LINK = ADDR(RDC_FC_LX_ITEM);

  17607 19 010060   200046 630500                    EPPR0   RDC_FC_LX_ITEM,,AUTO
        19 010061   200015 450500                    STP0    IA_LX_ITEM+7,,AUTO

     2934    17608
     2935    17609    1   CALL BUILD_PARM( RECORD_ST$, ADDR(RC_LX_ITEM));
PL6.E3A0      #005=Z9EB$DML_STATEMENT File=Z9EB.:Z8A6TSI                         SAT 08/09/97 13:50 Page:523

  17609 19 010062   200026 631500                    EPPR1   RC_LX_ITEM,,AUTO
        19 010063   200315 451500                    STP1    OFFSET+45,,AUTO
        19 010064   200315 633500                    EPPR3   OFFSET+45,,AUTO
        19 010065   200236 453500                    STP3    PTR$+1,,AUTO
        19 010066   200152 634500                    EPPR4   RECORD_ST$,,AUTO
        19 010067   200235 454500                    STP4    @ITEM$+1,,AUTO
        19 010070   000107 701000 19                 TSX1    BUILD_PARM
        19 010071   000000 011000                    NOP     0

     2936    17610    1   ADDR(RDC_FC_LX_ITEM) -> LX_ITEM.LINK = ADDR(RC_LX_ITEM);

  17610 19 010072   200026 630500                    EPPR0   RC_LX_ITEM,,AUTO
        19 010073   200055 450500                    STP0    RDC_FC_LX_ITEM+7,,AUTO

     2937    17611
     2938    17612    1   CALL BUILD_PARM( KEY_ST$, ADDR(SC_AC_LX_ITEM));

  17612 19 010074   200036 631500                    EPPR1   SC_AC_LX_ITEM,,AUTO
        19 010075   200316 451500                    STP1    OFFSET+46,,AUTO
        19 010076   200316 633500                    EPPR3   OFFSET+46,,AUTO
        19 010077   200236 453500                    STP3    PTR$+1,,AUTO
        19 010100   200162 634500                    EPPR4   KEY_ST$,,AUTO
        19 010101   200235 454500                    STP4    @ITEM$+1,,AUTO
        19 010102   000107 701000 19                 TSX1    BUILD_PARM
        19 010103   000000 011000                    NOP     0

     2939    17613    1   ADDR(RC_LX_ITEM) -> LX_ITEM.LINK = ADDR(SC_AC_LX_ITEM);

  17613 19 010104   200036 630500                    EPPR0   SC_AC_LX_ITEM,,AUTO
        19 010105   200035 450500                    STP0    RC_LX_ITEM+7,,AUTO

     2940    17614
     2941    17615    1   ADDR(SC_AC_LX_ITEM) -> LX_ITEM.LINK = ADDR(RL_LX_ITEM);

  17615 19 010106   200016 631500                    EPPR1   RL_LX_ITEM,,AUTO
        19 010107   200045 451500                    STP1    SC_AC_LX_ITEM+7,,AUTO
PL6.E3A0      #005=Z9EB$DML_STATEMENT File=Z9EB.:Z8A6TSI                         SAT 08/09/97 13:50 Page:524

     2942    17616
     2943    17617    1   CALL Z9EB$BUILD_CODE(%DBFRI,ARG_COUNT,ADDR(IA_LX_ITEM));

  17617 19 010110   200006 633500                    EPPR3   IA_LX_ITEM,,AUTO
        19 010111   200242 453500                    STP3    OFFSET+2,,AUTO
        19 010112   200242 634500                    EPPR4   OFFSET+2,,AUTO
        19 010113   200245 454500                    STP4    OFFSET+5,,AUTO
        19 010114   200146 635500                    EPPR5   ARG_COUNT,,AUTO
        19 010115   200244 455500                    STP5    OFFSET+4,,AUTO
        19 010116   000065 236000 20                 LDQ     53
        19 010117   200243 756100                    STQ     OFFSET+3,,AUTO
        19 010120   200243 630500                    EPPR0   OFFSET+3,,AUTO
        19 010121   000004 631400 20                 EPPR1   4
        19 010122   000000 701000 xent               TSX1    Z9EB$BUILD_CODE
        19 010123   000000 011000                    NOP     0

     2944    17618
     2945    17619    1   RETURN;

  17619 19 010124   000000 702200 xent               TSX2  ! X66_ARET

     2946    17620        %EJECT;
PL6.E3A0      #005=Z9EB$DML_STATEMENT File=Z9EB.:Z8A6TSI                         SAT 08/09/97 13:50 Page:525
     2947    17621        /*==================*/
     2948    17622    1     Z9EB$FIND_USING_KEY :  ENTRY (RECORD_SELECTION$, RETENTION$);

  17622 19 010125   000000 700200 xent  Z9EB$FIND_U* TSX0  ! X66_AUTO_2
        19 010126   000334 000002                    ZERO    220,2

     2949    17623        /*===================*/
     2950    17624
     2951    17625    1   RECORD$ = RECORD_SELECTION$ -> LX_LIST.HEAD$;

  17625 19 010127   200003 470500                    LDP0    @RECORD_SELECTION$,,AUTO
        19 010130   000000 471500                    LDP1    0,,PR0
        19 010131   100004 236100                    LDQ     4,,PR1
        19 010132   200150 756100                    STQ     RECORD$,,AUTO

     2952    17626    1   KEY$ = RECORD_SELECTION$ -> LX_LIST.TAIL$;

  17626 19 010133   100001 236100                    LDQ     1,,PR1
        19 010134   200161 756100                    STQ     KEY$,,AUTO

     2953    17627    1   ERROR_FLAG = %FALSE;

  17627 19 010135   200213 450100                    STZ     ERROR_FLAG,,AUTO

     2954    17628
     2955    17629    1   IF KEY$ -> LX_ITEM.B.ERROR   THEN

  17629 19 010136   200161 473500                    LDP3    KEY$,,AUTO
        19 010137   300000 236100                    LDQ     0,,PR3
        19 010140   400000 316007                    CANQ    -131072,DL
        19 010141   010145 600000 19                 TZE     s:17635

     2956    17630    1       ERROR_FLAG = %TRUE;

  17630 19 010142   400000 236003                    LDQ     -131072,DU
        19 010143   200213 756100                    STQ     ERROR_FLAG,,AUTO
        19 010144   010221 710000 19                 TRA     s:17656
PL6.E3A0      #005=Z9EB$DML_STATEMENT File=Z9EB.:Z8A6TSI                         SAT 08/09/97 13:50 Page:526

     2957    17631    1   ELSE
     2958    17632    2     DO;

     2959    17633            %FISH( TRIAD = KEY$ -> LX_ETT_ITEM.ETT$, RTN = KEY_ST$);

  17635 19 010145   300001 236100                    LDQ     1,,PR3
        19 010146   200162 756100                    STQ     KEY_ST$,,AUTO

  17636 19 010147   200162 471500                    LDP1    KEY_ST$,,AUTO
        19 010150   100000 220100                    LDX0    0,,PR1
        19 010151   000751 100003                    CMPX0   489,DU
        19 010152   010162 603000 19                 TRC     s:17641

  17637 19 010153   200162 470500                    LDP0    KEY_ST$,,AUTO
        19 010154   000001 236100                    LDQ     1,,PR0
        19 010155   200162 756100                    STQ     KEY_ST$,,AUTO

  17638 19 010156   200162 470500                    LDP0    KEY_ST$,,AUTO
        19 010157   000000 220100                    LDX0    0,,PR0
        19 010160   000751 100003                    CMPX0   489,DU
        19 010161   010153 602000 19                 TNC     s:17637

     2960    17641    2       IF KEY_ST$ -> DML_ITEM.ID ~= %DML_KEY   THEN

  17641 19 010162   200162 470500                    LDP0    KEY_ST$,,AUTO
        19 010163   000000 220100                    LDX0    0,,PR0
        19 010164   000754 100003                    CMPX0   492,DU
        19 010165   010204 600000 19                 TZE     s:17649

     2961    17642    3         DO;

     2962    17643    3           CALL Z8AE$ERROR(%E$ITEM_NOT_A_KEY,

  17643 19 010166   200161 236100                    LDQ     KEY$,,AUTO
        19 010167   000006 036003                    ADLQ    6,DU
        19 010170   200244 756100                    STQ     OFFSET+4,,AUTO
PL6.E3A0      #005=Z9EB$DML_STATEMENT File=Z9EB.:Z8A6TSI                         SAT 08/09/97 13:50 Page:527
        19 010171   200161 236100                    LDQ     KEY$,,AUTO
        19 010172   000005 036003                    ADLQ    5,DU
        19 010173   000064 235000 20                 LDA     52
        19 010174   200242 757100                    STAQ    OFFSET+2,,AUTO
        19 010175   200242 630500                    EPPR0   OFFSET+2,,AUTO
        19 010176   000004 631400 20                 EPPR1   4
        19 010177   000000 701000 xent               TSX1    Z8AE$ERROR
        19 010200   000000 011000                    NOP     0

     2963    17644    3                           KEY$ -> LX_ITEM.LINE,
     2964    17645    3                           KEY$ -> LX_ITEM.COLUMN);
     2965    17646    3           ERROR_FLAG = %TRUE;

  17646 19 010201   400000 236003                    LDQ     -131072,DU
        19 010202   200213 756100                    STQ     ERROR_FLAG,,AUTO

     2966    17647    3         END;

  17647 19 010203   010221 710000 19                 TRA     s:17656

     2967    17648    2       ELSE
     2968    17649    2        IF KEY_ST$ -> DML_ITEM.B.DML_RVA = %FALSE     THEN

  17649 19 010204   000003 236100                    LDQ     3,,PR0
        19 010205   002000 316007                    CANQ    1024,DL
        19 010206   010221 601000 19                 TNZ     s:17656

     2969    17650    3         DO;

     2970    17651    3           RVA_TYPE = %RVA_SET;

  17651 19 010207   000001 221003                    LDX1    1,DU
        19 010210   200147 741100                    STX1    RVA_TYPE,,AUTO

     2971    17652    3           CALL Z9EB$BUILD_RVA_TABLE(KEY_ST$,RVA_TYPE);

  17652 19 010211   200147 631500                    EPPR1   RVA_TYPE,,AUTO
PL6.E3A0      #005=Z9EB$DML_STATEMENT File=Z9EB.:Z8A6TSI                         SAT 08/09/97 13:50 Page:528
        19 010212   200243 451500                    STP1    OFFSET+3,,AUTO
        19 010213   200162 633500                    EPPR3   KEY_ST$,,AUTO
        19 010214   200242 453500                    STP3    OFFSET+2,,AUTO
        19 010215   200242 630500                    EPPR0   OFFSET+2,,AUTO
        19 010216   000002 631400 20                 EPPR1   2
        19 010217   000000 701000 xent               TSX1    Z9EB$BUILD_RVA_TABLE
        19 010220   000000 011000                    NOP     0

     2972    17653    3         END;

     2973    17654    2     END;

     2974    17655
     2975    17656    1   IF RECORD$ -> LX_ITEM.B.ERROR   THEN

  17656 19 010221   200150 470500                    LDP0    RECORD$,,AUTO
        19 010222   000000 236100                    LDQ     0,,PR0
        19 010223   400000 316007                    CANQ    -131072,DL
        19 010224   010230 600000 19                 TZE     s:17662

     2976    17657    1       ERROR_FLAG = %TRUE;

  17657 19 010225   400000 236003                    LDQ     -131072,DU
        19 010226   200213 756100                    STQ     ERROR_FLAG,,AUTO
        19 010227   010305 710000 19                 TRA     s:17683

     2977    17658    1   ELSE
     2978    17659    2     DO;

     2979    17660            %FISH( TRIAD = RECORD$ -> LX_ETT_ITEM.ETT$, RTN = RECORD_ST$);

  17662 19 010230   000001 236100                    LDQ     1,,PR0
        19 010231   200152 756100                    STQ     RECORD_ST$,,AUTO

  17663 19 010232   200152 471500                    LDP1    RECORD_ST$,,AUTO
        19 010233   100000 220100                    LDX0    0,,PR1
        19 010234   000751 100003                    CMPX0   489,DU
PL6.E3A0      #005=Z9EB$DML_STATEMENT File=Z9EB.:Z8A6TSI                         SAT 08/09/97 13:50 Page:529
        19 010235   010245 603000 19                 TRC     s:17668

  17664 19 010236   200152 470500                    LDP0    RECORD_ST$,,AUTO
        19 010237   000001 236100                    LDQ     1,,PR0
        19 010240   200152 756100                    STQ     RECORD_ST$,,AUTO

  17665 19 010241   200152 470500                    LDP0    RECORD_ST$,,AUTO
        19 010242   000000 220100                    LDX0    0,,PR0
        19 010243   000751 100003                    CMPX0   489,DU
        19 010244   010236 602000 19                 TNC     s:17664

     2980    17668    2       IF RECORD_ST$ -> SCALAR.B.DML_TYPE ~= %RECORD    THEN

  17668 19 010245   200152 470500                    LDP0    RECORD_ST$,,AUTO
        19 010246   000003 236100                    LDQ     3,,PR0
        19 010247   160000 376007                    ANQ     57344,DL
        19 010250   060000 116007                    CMPQ    24576,DL
        19 010251   010270 600000 19                 TZE     s:17676

     2981    17669    3         DO;

     2982    17670    3           CALL Z8AE$ERROR(%E$ITEM_NOT_A_RECORD,

  17670 19 010252   200150 236100                    LDQ     RECORD$,,AUTO
        19 010253   000006 036003                    ADLQ    6,DU
        19 010254   200244 756100                    STQ     OFFSET+4,,AUTO
        19 010255   200150 236100                    LDQ     RECORD$,,AUTO
        19 010256   000005 036003                    ADLQ    5,DU
        19 010257   000021 235000 20                 LDA     17
        19 010260   200242 757100                    STAQ    OFFSET+2,,AUTO
        19 010261   200242 630500                    EPPR0   OFFSET+2,,AUTO
        19 010262   000004 631400 20                 EPPR1   4
        19 010263   000000 701000 xent               TSX1    Z8AE$ERROR
        19 010264   000000 011000                    NOP     0

     2983    17671    3                           RECORD$ -> LX_ITEM.LINE,
     2984    17672    3                           RECORD$ -> LX_ITEM.COLUMN);
PL6.E3A0      #005=Z9EB$DML_STATEMENT File=Z9EB.:Z8A6TSI                         SAT 08/09/97 13:50 Page:530
     2985    17673    3           ERROR_FLAG = %TRUE;

  17673 19 010265   400000 236003                    LDQ     -131072,DU
        19 010266   200213 756100                    STQ     ERROR_FLAG,,AUTO

     2986    17674    3         END;

  17674 19 010267   010305 710000 19                 TRA     s:17683

     2987    17675    2       ELSE
     2988    17676    2        IF RECORD_ST$ -> SCALAR.B.DML_RVA = %FALSE    THEN

  17676 19 010270   000003 236100                    LDQ     3,,PR0
        19 010271   002000 316007                    CANQ    1024,DL
        19 010272   010305 601000 19                 TNZ     s:17683

     2989    17677    3         DO;

     2990    17678    3           RVA_TYPE = %RVA_RECORD;

  17678 19 010273   000002 220003                    LDX0    2,DU
        19 010274   200147 740100                    STX0    RVA_TYPE,,AUTO

     2991    17679    3           CALL Z9EB$BUILD_RVA_TABLE(RECORD_ST$, RVA_TYPE);

  17679 19 010275   200147 631500                    EPPR1   RVA_TYPE,,AUTO
        19 010276   200243 451500                    STP1    OFFSET+3,,AUTO
        19 010277   200152 633500                    EPPR3   RECORD_ST$,,AUTO
        19 010300   200242 453500                    STP3    OFFSET+2,,AUTO
        19 010301   200242 630500                    EPPR0   OFFSET+2,,AUTO
        19 010302   000002 631400 20                 EPPR1   2
        19 010303   000000 701000 xent               TSX1    Z9EB$BUILD_RVA_TABLE
        19 010304   000000 011000                    NOP     0

     2992    17680    3         END;

     2993    17681    2     END;
PL6.E3A0      #005=Z9EB$DML_STATEMENT File=Z9EB.:Z8A6TSI                         SAT 08/09/97 13:50 Page:531

     2994    17682
     2995    17683    1   CALL RETENTION( RETENTION$, ADDR(RL_LX_ITEM));

  17683 19 010305   200016 630500                    EPPR0   RL_LX_ITEM,,AUTO
        19 010306   200317 450500                    STP0    OFFSET+47,,AUTO
        19 010307   200317 631500                    EPPR1   OFFSET+47,,AUTO
        19 010310   200222 451500                    STP1    @CODE+1,,AUTO
        19 010311   200004 236100                    LDQ     @RETENTION$,,AUTO
        19 010312   200221 756100                    STQ     SET_LIST_CONTROL+3,,AUTO
        19 010313   000345 701000 19                 TSX1    RETENTION
        19 010314   000000 011000                    NOP     0

     2996    17684
     2997    17685    1   IF ERROR_FLAG = %TRUE   THEN

  17685 19 010315   200213 234100                    SZN     ERROR_FLAG,,AUTO
        19 010316   010320 605000 19                 TPL     s:17688

     2998    17686    1      RETURN;

  17686 19 010317   000000 702200 xent               TSX2  ! X66_ARET

     2999    17687
     3000    17688    1   CALL Z8EU$CREATE_IDENTIFIER_FROM_ST(O1COM.DML_IA$, ADDR(IA_LX_ITEM));

  17688 19 010320   200006 630500                    EPPR0   IA_LX_ITEM,,AUTO
        19 010321   200242 450500                    STP0    OFFSET+2,,AUTO
        19 010322   200242 631500                    EPPR1   OFFSET+2,,AUTO
        19 010323   200245 451500                    STP1    OFFSET+5,,AUTO
        19 010324   000013 236000 20                 LDQ     11
        19 010325   200244 756100                    STQ     OFFSET+4,,AUTO
        19 010326   200244 630500                    EPPR0   OFFSET+4,,AUTO
        19 010327   000002 631400 20                 EPPR1   2
        19 010330   000000 701000 xent               TSX1    Z8EU$CREATE_IDENTIFIER_FROM_ST
        19 010331   000000 011000                    NOP     0

PL6.E3A0      #005=Z9EB$DML_STATEMENT File=Z9EB.:Z8A6TSI                         SAT 08/09/97 13:50 Page:532
     3001    17689    1   CALL BUILD_PARM(RECORD_ST$, ADDR(RC_LX_ITEM));

  17689 19 010332   200026 630500                    EPPR0   RC_LX_ITEM,,AUTO
        19 010333   200320 450500                    STP0    OFFSET+48,,AUTO
        19 010334   200320 631500                    EPPR1   OFFSET+48,,AUTO
        19 010335   200236 451500                    STP1    PTR$+1,,AUTO
        19 010336   200152 633500                    EPPR3   RECORD_ST$,,AUTO
        19 010337   200235 453500                    STP3    @ITEM$+1,,AUTO
        19 010340   000107 701000 19                 TSX1    BUILD_PARM
        19 010341   000000 011000                    NOP     0

     3002    17690    1   ADDR(IA_LX_ITEM) -> LX_ITEM.LINK = ADDR(RC_LX_ITEM);

  17690 19 010342   200026 630500                    EPPR0   RC_LX_ITEM,,AUTO
        19 010343   200015 450500                    STP0    IA_LX_ITEM+7,,AUTO

     3003    17691
     3004    17692    1   CALL BUILD_PARM(KEY_ST$, ADDR(SC_AC_LX_ITEM));

  17692 19 010344   200036 631500                    EPPR1   SC_AC_LX_ITEM,,AUTO
        19 010345   200321 451500                    STP1    OFFSET+49,,AUTO
        19 010346   200321 633500                    EPPR3   OFFSET+49,,AUTO
        19 010347   200236 453500                    STP3    PTR$+1,,AUTO
        19 010350   200162 634500                    EPPR4   KEY_ST$,,AUTO
        19 010351   200235 454500                    STP4    @ITEM$+1,,AUTO
        19 010352   000107 701000 19                 TSX1    BUILD_PARM
        19 010353   000000 011000                    NOP     0

     3005    17693    1   ADDR(RC_LX_ITEM) -> LX_ITEM.LINK = ADDR(SC_AC_LX_ITEM);

  17693 19 010354   200036 630500                    EPPR0   SC_AC_LX_ITEM,,AUTO
        19 010355   200035 450500                    STP0    RC_LX_ITEM+7,,AUTO

     3006    17694    1   ADDR(SC_AC_LX_ITEM) -> LX_ITEM.LINK = ADDR(RL_LX_ITEM);

  17694 19 010356   200016 631500                    EPPR1   RL_LX_ITEM,,AUTO
        19 010357   200045 451500                    STP1    SC_AC_LX_ITEM+7,,AUTO
PL6.E3A0      #005=Z9EB$DML_STATEMENT File=Z9EB.:Z8A6TSI                         SAT 08/09/97 13:50 Page:533

     3007    17695
     3008    17696    1   ARG_COUNT = 4 + ADDR(RL_LX_ITEM) -> LX_LIST.COUNT;

  17696 19 010360   200020 235100                    LDA     RL_LX_ITEM+2,,AUTO
        19 010361   000004 035007                    ADLA    4,DL
        19 010362   200146 755100                    STA     ARG_COUNT,,AUTO

     3009    17697
     3010    17698    1   CALL Z9EB$BUILD_CODE(%DBFUI,ARG_COUNT,ADDR(IA_LX_ITEM));

  17698 19 010363   200006 633500                    EPPR3   IA_LX_ITEM,,AUTO
        19 010364   200242 453500                    STP3    OFFSET+2,,AUTO
        19 010365   200242 634500                    EPPR4   OFFSET+2,,AUTO
        19 010366   200245 454500                    STP4    OFFSET+5,,AUTO
        19 010367   200146 635500                    EPPR5   ARG_COUNT,,AUTO
        19 010370   200244 455500                    STP5    OFFSET+4,,AUTO
        19 010371   000066 236000 20                 LDQ     54
        19 010372   200243 756100                    STQ     OFFSET+3,,AUTO
        19 010373   200243 630500                    EPPR0   OFFSET+3,,AUTO
        19 010374   000004 631400 20                 EPPR1   4
        19 010375   000000 701000 xent               TSX1    Z9EB$BUILD_CODE
        19 010376   000000 011000                    NOP     0

     3011    17699
     3012    17700    1   RETURN;

  17700 19 010377   000000 702200 xent               TSX2  ! X66_ARET

     3013    17701        %EJECT;
PL6.E3A0      #005=Z9EB$DML_STATEMENT File=Z9EB.:Z8A6TSI                         SAT 08/09/97 13:50 Page:534
     3014    17702        /*=================*/
     3015    17703    1     Z9EB$FIND_CURRENT :  ENTRY(RECORD_SELECTION$, RETENTION$);

  17703 19 010400   000000 700200 xent  Z9EB$FIND_C* TSX0  ! X66_AUTO_2
        19 010401   000334 000002                    ZERO    220,2

     3016    17704        /*=================*/
     3017    17705
     3018    17706    1   RECORD$ = RECORD_SELECTION$ -> LX_LIST.HEAD$;

  17706 19 010402   200003 470500                    LDP0    @RECORD_SELECTION$,,AUTO
        19 010403   000000 471500                    LDP1    0,,PR0
        19 010404   100004 236100                    LDQ     4,,PR1
        19 010405   200150 756100                    STQ     RECORD$,,AUTO

     3019    17707    1   ERROR_FLAG = %FALSE;

  17707 19 010406   200213 450100                    STZ     ERROR_FLAG,,AUTO

     3020    17708
     3021    17709    1   IF RECORD$ -> LX_ITEM.B.ERROR  THEN

  17709 19 010407   200150 473500                    LDP3    RECORD$,,AUTO
        19 010410   300000 236100                    LDQ     0,,PR3
        19 010411   400000 316007                    CANQ    -131072,DL
        19 010412   010416 600000 19                 TZE     s:17714

     3022    17710    1     ERROR_FLAG = %TRUE;

  17710 19 010413   400000 236003                    LDQ     -131072,DU
        19 010414   200213 756100                    STQ     ERROR_FLAG,,AUTO
        19 010415   010512 710000 19                 TRA     s:17749

     3023    17711    1   ELSE
     3024    17712    2     DO;

     3025    17713                                                                   /*#29931*/
PL6.E3A0      #005=Z9EB$DML_STATEMENT File=Z9EB.:Z8A6TSI                         SAT 08/09/97 13:50 Page:535
     3026    17714    2       IF RECORD$ -> LX_ITEM.ID = %LX_TERMINAL AND RECORD$ -> LX_ITEM.SYMBOL = %EMPTY
             17714                THEN

  17714 19 010416   300000 220100                    LDX0    0,,PR3
        19 010417   010430 601000 19                 TNZ     s:17721
        19 010420   300003 235100                    LDA     3,,PR3
        19 010421   010430 601000 19                 TNZ     s:17721

     3027    17715    3         DO;

     3028    17716    3           ARG_COUNT = 2;

  17716 19 010422   000002 235007                    LDA     2,DL
        19 010423   200146 755100                    STA     ARG_COUNT,,AUTO

     3029    17717    3           CODE = %DBFCR;

  17717 19 010424   040100 100400                    MLR     fill='040'O
        19 010425   000054 000006 18                 ADSC9   44                       cn=0,n=6
        19 010426   200166 000006                    ADSC9   CODE,,AUTO               cn=0,n=6

     3030    17718    3         END;

  17718 19 010427   010512 710000 19                 TRA     s:17749

     3031    17719    2       ELSE
     3032    17720    3         DO;

     3033    17721    3           CODE = %DBFCT;

  17721 19 010430   040100 100400                    MLR     fill='040'O
        19 010431   000056 000006 18                 ADSC9   46                       cn=0,n=6
        19 010432   200166 000006                    ADSC9   CODE,,AUTO               cn=0,n=6

     3034    17722    3           ARG_COUNT = 3;

  17722 19 010433   000003 235007                    LDA     3,DL
PL6.E3A0      #005=Z9EB$DML_STATEMENT File=Z9EB.:Z8A6TSI                         SAT 08/09/97 13:50 Page:536
        19 010434   200146 755100                    STA     ARG_COUNT,,AUTO

     3035    17723                %FISH( TRIAD = RECORD$ -> LX_ETT_ITEM.ETT$,
     3036    17724                       RTN = RECORD_ST$);

  17726 19 010435   300001 236100                    LDQ     1,,PR3
        19 010436   200152 756100                    STQ     RECORD_ST$,,AUTO

  17727 19 010437   200152 471500                    LDP1    RECORD_ST$,,AUTO
        19 010440   100000 220100                    LDX0    0,,PR1
        19 010441   000751 100003                    CMPX0   489,DU
        19 010442   010452 603000 19                 TRC     s:17732

  17728 19 010443   200152 470500                    LDP0    RECORD_ST$,,AUTO
        19 010444   000001 236100                    LDQ     1,,PR0
        19 010445   200152 756100                    STQ     RECORD_ST$,,AUTO

  17729 19 010446   200152 470500                    LDP0    RECORD_ST$,,AUTO
        19 010447   000000 220100                    LDX0    0,,PR0
        19 010450   000751 100003                    CMPX0   489,DU
        19 010451   010443 602000 19                 TNC     s:17728

     3037    17732    3           IF RECORD_ST$ -> VARIABLE.B.DML_TYPE ~= %RECORD   THEN

  17732 19 010452   200152 470500                    LDP0    RECORD_ST$,,AUTO
        19 010453   000003 236100                    LDQ     3,,PR0
        19 010454   160000 376007                    ANQ     57344,DL
        19 010455   060000 116007                    CMPQ    24576,DL
        19 010456   010475 600000 19                 TZE     s:17740

     3038    17733    4             DO;

     3039    17734    4               CALL Z8AE$ERROR( %E$ITEM_NOT_A_RECORD,

  17734 19 010457   200150 236100                    LDQ     RECORD$,,AUTO
        19 010460   000006 036003                    ADLQ    6,DU
        19 010461   200244 756100                    STQ     OFFSET+4,,AUTO
PL6.E3A0      #005=Z9EB$DML_STATEMENT File=Z9EB.:Z8A6TSI                         SAT 08/09/97 13:50 Page:537
        19 010462   200150 236100                    LDQ     RECORD$,,AUTO
        19 010463   000005 036003                    ADLQ    5,DU
        19 010464   000021 235000 20                 LDA     17
        19 010465   200242 757100                    STAQ    OFFSET+2,,AUTO
        19 010466   200242 630500                    EPPR0   OFFSET+2,,AUTO
        19 010467   000004 631400 20                 EPPR1   4
        19 010470   000000 701000 xent               TSX1    Z8AE$ERROR
        19 010471   000000 011000                    NOP     0

     3040    17735    4                                RECORD$ -> LX_ITEM.LINE,
     3041    17736    4                                RECORD$ -> LX_ITEM.COLUMN);
     3042    17737    4               ERROR_FLAG = %TRUE;

  17737 19 010472   400000 236003                    LDQ     -131072,DU
        19 010473   200213 756100                    STQ     ERROR_FLAG,,AUTO

     3043    17738    4             END;

  17738 19 010474   010512 710000 19                 TRA     s:17749

     3044    17739    3           ELSE
     3045    17740    3             IF RECORD_ST$ -> SCALAR.B.DML_RVA = %FALSE     THEN

  17740 19 010475   000003 236100                    LDQ     3,,PR0
        19 010476   002000 316007                    CANQ    1024,DL
        19 010477   010512 601000 19                 TNZ     s:17749

     3046    17741    4               DO;

     3047    17742    4                 RVA_TYPE = %RVA_RECORD;

  17742 19 010500   000002 220003                    LDX0    2,DU
        19 010501   200147 740100                    STX0    RVA_TYPE,,AUTO

     3048    17743    4                 CALL Z9EB$BUILD_RVA_TABLE(RECORD_ST$,RVA_TYPE);

  17743 19 010502   200147 631500                    EPPR1   RVA_TYPE,,AUTO
PL6.E3A0      #005=Z9EB$DML_STATEMENT File=Z9EB.:Z8A6TSI                         SAT 08/09/97 13:50 Page:538
        19 010503   200243 451500                    STP1    OFFSET+3,,AUTO
        19 010504   200152 633500                    EPPR3   RECORD_ST$,,AUTO
        19 010505   200242 453500                    STP3    OFFSET+2,,AUTO
        19 010506   200242 630500                    EPPR0   OFFSET+2,,AUTO
        19 010507   000002 631400 20                 EPPR1   2
        19 010510   000000 701000 xent               TSX1    Z9EB$BUILD_RVA_TABLE
        19 010511   000000 011000                    NOP     0

     3049    17744    4               END;

     3050    17745
     3051    17746    3         END;

     3052    17747    2     END;

     3053    17748
     3054    17749    1   CALL RETENTION( RETENTION$, ADDR(RL_LX_ITEM));

  17749 19 010512   200016 630500                    EPPR0   RL_LX_ITEM,,AUTO
        19 010513   200322 450500                    STP0    OFFSET+50,,AUTO
        19 010514   200322 631500                    EPPR1   OFFSET+50,,AUTO
        19 010515   200222 451500                    STP1    @CODE+1,,AUTO
        19 010516   200004 236100                    LDQ     @RETENTION$,,AUTO
        19 010517   200221 756100                    STQ     SET_LIST_CONTROL+3,,AUTO
        19 010520   000345 701000 19                 TSX1    RETENTION
        19 010521   000000 011000                    NOP     0

     3055    17750
     3056    17751    1   IF ERROR_FLAG = %TRUE  THEN

  17751 19 010522   200213 234100                    SZN     ERROR_FLAG,,AUTO
        19 010523   010525 605000 19                 TPL     s:17754

     3057    17752    1     RETURN;

  17752 19 010524   000000 702200 xent               TSX2  ! X66_ARET

PL6.E3A0      #005=Z9EB$DML_STATEMENT File=Z9EB.:Z8A6TSI                         SAT 08/09/97 13:50 Page:539
     3058    17753
     3059    17754    1   CALL Z8EU$CREATE_IDENTIFIER_FROM_ST(O1COM.DML_IA$,ADDR(IA_LX_ITEM));

  17754 19 010525   200006 630500                    EPPR0   IA_LX_ITEM,,AUTO
        19 010526   200242 450500                    STP0    OFFSET+2,,AUTO
        19 010527   200242 631500                    EPPR1   OFFSET+2,,AUTO
        19 010530   200245 451500                    STP1    OFFSET+5,,AUTO
        19 010531   000013 236000 20                 LDQ     11
        19 010532   200244 756100                    STQ     OFFSET+4,,AUTO
        19 010533   200244 630500                    EPPR0   OFFSET+4,,AUTO
        19 010534   000002 631400 20                 EPPR1   2
        19 010535   000000 701000 xent               TSX1    Z8EU$CREATE_IDENTIFIER_FROM_ST
        19 010536   000000 011000                    NOP     0

     3060    17755
     3061    17756    1   IF CODE = %DBFCT   THEN

  17756 19 010537   040000 106500                    CMPC    fill='040'O
        19 010540   200166 000006                    ADSC9   CODE,,AUTO               cn=0,n=6
        19 010541   000056 000006 18                 ADSC9   46                       cn=0,n=6
        19 010542   010560 601000 19                 TNZ     s:17763

     3062    17757    2     DO;

     3063    17758    2       CALL BUILD_PARM(RECORD_ST$ , ADDR(RC_LX_ITEM));

  17758 19 010543   200026 630500                    EPPR0   RC_LX_ITEM,,AUTO
        19 010544   200323 450500                    STP0    OFFSET+51,,AUTO
        19 010545   200323 631500                    EPPR1   OFFSET+51,,AUTO
        19 010546   200236 451500                    STP1    PTR$+1,,AUTO
        19 010547   200152 633500                    EPPR3   RECORD_ST$,,AUTO
        19 010550   200235 453500                    STP3    @ITEM$+1,,AUTO
        19 010551   000107 701000 19                 TSX1    BUILD_PARM
        19 010552   000000 011000                    NOP     0

     3064    17759    2       ADDR(IA_LX_ITEM) -> LX_ITEM.LINK = ADDR(RC_LX_ITEM);

PL6.E3A0      #005=Z9EB$DML_STATEMENT File=Z9EB.:Z8A6TSI                         SAT 08/09/97 13:50 Page:540
  17759 19 010553   200026 630500                    EPPR0   RC_LX_ITEM,,AUTO
        19 010554   200015 450500                    STP0    IA_LX_ITEM+7,,AUTO

     3065    17760    2       ADDR(RC_LX_ITEM) -> LX_ITEM.LINK = ADDR(RL_LX_ITEM);

  17760 19 010555   200016 631500                    EPPR1   RL_LX_ITEM,,AUTO
        19 010556   200035 451500                    STP1    RC_LX_ITEM+7,,AUTO

     3066    17761    2     END;

  17761 19 010557   010562 710000 19                 TRA     s:17765

     3067    17762    1   ELSE
     3068    17763    1     ADDR(IA_LX_ITEM) -> LX_ITEM.LINK = ADDR(RL_LX_ITEM);

  17763 19 010560   200016 630500                    EPPR0   RL_LX_ITEM,,AUTO
        19 010561   200015 450500                    STP0    IA_LX_ITEM+7,,AUTO

     3069    17764
     3070    17765    1   ARG_COUNT = ARG_COUNT + ADDR(RL_LX_ITEM) -> LX_LIST.COUNT;

  17765 19 010562   200146 236100                    LDQ     ARG_COUNT,,AUTO
        19 010563   200020 036100                    ADLQ    RL_LX_ITEM+2,,AUTO
        19 010564   200146 756100                    STQ     ARG_COUNT,,AUTO

     3071    17766
     3072    17767    1   CALL Z9EB$BUILD_CODE(CODE, ARG_COUNT, ADDR(IA_LX_ITEM));

  17767 19 010565   200006 631500                    EPPR1   IA_LX_ITEM,,AUTO
        19 010566   200242 451500                    STP1    OFFSET+2,,AUTO
        19 010567   200242 633500                    EPPR3   OFFSET+2,,AUTO
        19 010570   200245 453500                    STP3    OFFSET+5,,AUTO
        19 010571   200146 634500                    EPPR4   ARG_COUNT,,AUTO
        19 010572   200244 454500                    STP4    OFFSET+4,,AUTO
        19 010573   200166 635500                    EPPR5   CODE,,AUTO
        19 010574   200243 455500                    STP5    OFFSET+3,,AUTO
        19 010575   200243 630500                    EPPR0   OFFSET+3,,AUTO
PL6.E3A0      #005=Z9EB$DML_STATEMENT File=Z9EB.:Z8A6TSI                         SAT 08/09/97 13:50 Page:541
        19 010576   000004 631400 20                 EPPR1   4
        19 010577   000000 701000 xent               TSX1    Z9EB$BUILD_CODE
        19 010600   000000 011000                    NOP     0

     3073    17768
     3074    17769    1   RETURN;

  17769 19 010601   000000 702200 xent               TSX2  ! X66_ARET

     3075    17770        %EJECT;
PL6.E3A0      #005=Z9EB$DML_STATEMENT File=Z9EB.:Z8A6TSI                         SAT 08/09/97 13:50 Page:542
     3076    17771        /*==========*/
     3077    17772    1     Z9EB$ERASE :  ENTRY (RECORD_SELECTION$, RETENTION$);

  17772 19 010602   000000 700200 xent  Z9EB$ERASE   TSX0  ! X66_AUTO_2
        19 010603   000334 000002                    ZERO    220,2

     3078    17773        /*==========*/
     3079    17774
     3080    17775    1       RECORD$ = RECORD_SELECTION$;

  17775 19 010604   200003 470500                    LDP0    @RECORD_SELECTION$,,AUTO
        19 010605   000000 236100                    LDQ     0,,PR0
        19 010606   200150 756100                    STQ     RECORD$,,AUTO

     3081    17776
     3082    17777    1       IF RECORD$ -> LX_ITEM.B.ERROR   THEN

  17777 19 010607   200150 471500                    LDP1    RECORD$,,AUTO
        19 010610   100000 236100                    LDQ     0,,PR1
        19 010611   400000 316007                    CANQ    -131072,DL
        19 010612   010614 600000 19                 TZE     s:17780

     3083    17778    1           RETURN;

  17778 19 010613   000000 702200 xent               TSX2  ! X66_ARET

     3084    17779
     3085    17780    1       CONST_WORD = 0;

  17780 19 010614   200176 450100                    STZ     CONST_WORD,,AUTO

     3086    17781    1       IF RECORD$ -> LX_ITEM.ID = %LX_TERMINAL AND RECORD$ -> LX_ITEM.SYMBOL = %EMPTY
             17781                THEN

  17781 19 010615   100000 220100                    LDX0    0,,PR1
        19 010616   010642 601000 19                 TNZ     s:17796
        19 010617   100003 235100                    LDA     3,,PR1
PL6.E3A0      #005=Z9EB$DML_STATEMENT File=Z9EB.:Z8A6TSI                         SAT 08/09/97 13:50 Page:543
        19 010620   010642 601000 19                 TNZ     s:17796

     3087    17782    2         DO;

     3088    17783    2           IF O1COM.NILL_RVA = %FALSE          THEN

  17783 19 010621   000105 234000 xsym               SZN     O1COM+69
        19 010622   010637 604000 19                 TMI     s:17788

     3089    17784    3             DO;

     3090    17785    3               RVA_TYPE = %RVA_NULL;

  17785 19 010623   000004 221003                    LDX1    4,DU
        19 010624   200147 741100                    STX1    RVA_TYPE,,AUTO

     3091    17786    3               CALL Z9EB$BUILD_RVA_TABLE( ADDR(NIL), RVA_TYPE);

  17786 19 010625   000000 236000 20                 LDQ     0
        19 010626   200242 756100                    STQ     OFFSET+2,,AUTO
        19 010627   200147 633500                    EPPR3   RVA_TYPE,,AUTO
        19 010630   200245 453500                    STP3    OFFSET+5,,AUTO
        19 010631   200242 634500                    EPPR4   OFFSET+2,,AUTO
        19 010632   200244 454500                    STP4    OFFSET+4,,AUTO
        19 010633   200244 630500                    EPPR0   OFFSET+4,,AUTO
        19 010634   000002 631400 20                 EPPR1   2
        19 010635   000000 701000 xent               TSX1    Z9EB$BUILD_RVA_TABLE
        19 010636   000000 011000                    NOP     0

     3092    17787    3             END;

     3093    17788    2           RECORD_ST$ = ADDR(NIL);

  17788 19 010637   000000 236000 20                 LDQ     0
        19 010640   200152 756100                    STQ     RECORD_ST$,,AUTO

     3094    17789    2         END;
PL6.E3A0      #005=Z9EB$DML_STATEMENT File=Z9EB.:Z8A6TSI                         SAT 08/09/97 13:50 Page:544

  17789 19 010641   010715 710000 19                 TRA     s:17816

     3095    17790
     3096    17791    1       ELSE
     3097    17792
     3098    17793    2         DO;

     3099    17794                %FISH(TRIAD = RECORD$ -> LX_ETT_ITEM.ETT$, RTN = RECORD_ST$);

  17796 19 010642   100001 236100                    LDQ     1,,PR1
        19 010643   200152 756100                    STQ     RECORD_ST$,,AUTO

  17797 19 010644   200152 473500                    LDP3    RECORD_ST$,,AUTO
        19 010645   300000 220100                    LDX0    0,,PR3
        19 010646   000751 100003                    CMPX0   489,DU
        19 010647   010657 603000 19                 TRC     s:17802

  17798 19 010650   200152 470500                    LDP0    RECORD_ST$,,AUTO
        19 010651   000001 236100                    LDQ     1,,PR0
        19 010652   200152 756100                    STQ     RECORD_ST$,,AUTO

  17799 19 010653   200152 470500                    LDP0    RECORD_ST$,,AUTO
        19 010654   000000 220100                    LDX0    0,,PR0
        19 010655   000751 100003                    CMPX0   489,DU
        19 010656   010650 602000 19                 TNC     s:17798

     3100    17802    2           IF RECORD_ST$ -> SCALAR.B.DML_TYPE ~= %RECORD    THEN

  17802 19 010657   200152 470500                    LDP0    RECORD_ST$,,AUTO
        19 010660   000003 236100                    LDQ     3,,PR0
        19 010661   160000 376007                    ANQ     57344,DL
        19 010662   060000 116007                    CMPQ    24576,DL
        19 010663   010700 600000 19                 TZE     s:17809

     3101    17803    3             DO;

PL6.E3A0      #005=Z9EB$DML_STATEMENT File=Z9EB.:Z8A6TSI                         SAT 08/09/97 13:50 Page:545
     3102    17804    3               CALL Z8AE$ERROR(%E$ITEM_NOT_A_RECORD,

  17804 19 010664   200150 236100                    LDQ     RECORD$,,AUTO
        19 010665   000006 036003                    ADLQ    6,DU
        19 010666   200244 756100                    STQ     OFFSET+4,,AUTO
        19 010667   200150 236100                    LDQ     RECORD$,,AUTO
        19 010670   000005 036003                    ADLQ    5,DU
        19 010671   000021 235000 20                 LDA     17
        19 010672   200242 757100                    STAQ    OFFSET+2,,AUTO
        19 010673   200242 630500                    EPPR0   OFFSET+2,,AUTO
        19 010674   000004 631400 20                 EPPR1   4
        19 010675   000000 701000 xent               TSX1    Z8AE$ERROR
        19 010676   000000 011000                    NOP     0

     3103    17805    3                               RECORD$ -> LX_ITEM.LINE,
     3104    17806    3                               RECORD$ -> LX_ITEM.COLUMN);
     3105    17807    3               RETURN;

  17807 19 010677   000000 702200 xent               TSX2  ! X66_ARET

     3106    17808    3             END;
     3107    17809    2           IF RECORD_ST$ -> SCALAR.B.DML_RVA = %FALSE     THEN

  17809 19 010700   000003 236100                    LDQ     3,,PR0
        19 010701   002000 316007                    CANQ    1024,DL
        19 010702   010715 601000 19                 TNZ     s:17816

     3108    17810    3             DO;

     3109    17811    3               RVA_TYPE = %RVA_RECORD;

  17811 19 010703   000002 220003                    LDX0    2,DU
        19 010704   200147 740100                    STX0    RVA_TYPE,,AUTO

     3110    17812    3               CALL Z9EB$BUILD_RVA_TABLE( RECORD_ST$, RVA_TYPE);

  17812 19 010705   200147 631500                    EPPR1   RVA_TYPE,,AUTO
PL6.E3A0      #005=Z9EB$DML_STATEMENT File=Z9EB.:Z8A6TSI                         SAT 08/09/97 13:50 Page:546
        19 010706   200243 451500                    STP1    OFFSET+3,,AUTO
        19 010707   200152 633500                    EPPR3   RECORD_ST$,,AUTO
        19 010710   200242 453500                    STP3    OFFSET+2,,AUTO
        19 010711   200242 630500                    EPPR0   OFFSET+2,,AUTO
        19 010712   000002 631400 20                 EPPR1   2
        19 010713   000000 701000 xent               TSX1    Z9EB$BUILD_RVA_TABLE
        19 010714   000000 011000                    NOP     0

     3111    17813    3             END;

     3112    17814    2         END;

     3113    17815
     3114    17816    1       IF RETENTION$ -> LX_ITEM.ID =  %ERASE_ALL          THEN

  17816 19 010715   200004 470500                    LDP0    @RETENTION$,,AUTO
        19 010716   000000 471500                    LDP1    0,,PR0
        19 010717   100000 220100                    LDX0    0,,PR1
        19 010720   000001 100003                    CMPX0   1,DU
        19 010721   010724 601000 19                 TNZ     s:17819

     3115    17817    1           ERASE_.ALL = %TRUE;

  17817 19 010722   400000 236003                    LDQ     -131072,DU
        19 010723   200176 256100                    ORSQ    CONST_WORD,,AUTO

     3116    17818
     3117    17819    1       CALL Z8EU$CREATE_IDENTIFIER_FROM_ST(O1COM.DML_IA$,ADDR(IA_LX_ITEM));

  17819 19 010724   200006 631500                    EPPR1   IA_LX_ITEM,,AUTO
        19 010725   200242 451500                    STP1    OFFSET+2,,AUTO
        19 010726   200242 633500                    EPPR3   OFFSET+2,,AUTO
        19 010727   200245 453500                    STP3    OFFSET+5,,AUTO
        19 010730   000013 236000 20                 LDQ     11
        19 010731   200244 756100                    STQ     OFFSET+4,,AUTO
        19 010732   200244 630500                    EPPR0   OFFSET+4,,AUTO
        19 010733   000002 631400 20                 EPPR1   2
PL6.E3A0      #005=Z9EB$DML_STATEMENT File=Z9EB.:Z8A6TSI                         SAT 08/09/97 13:50 Page:547
        19 010734   000000 701000 xent               TSX1    Z8EU$CREATE_IDENTIFIER_FROM_ST
        19 010735   000000 011000                    NOP     0

     3118    17820    1       CALL BUILD_PARM( RECORD_ST$, ADDR(RC_LX_ITEM));

  17820 19 010736   200026 630500                    EPPR0   RC_LX_ITEM,,AUTO
        19 010737   200324 450500                    STP0    OFFSET+52,,AUTO
        19 010740   200324 631500                    EPPR1   OFFSET+52,,AUTO
        19 010741   200236 451500                    STP1    PTR$+1,,AUTO
        19 010742   200152 633500                    EPPR3   RECORD_ST$,,AUTO
        19 010743   200235 453500                    STP3    @ITEM$+1,,AUTO
        19 010744   000107 701000 19                 TSX1    BUILD_PARM
        19 010745   000000 011000                    NOP     0

     3119    17821
     3120    17822    1       ADDR(IA_LX_ITEM) -> LX_ITEM.LINK = ADDR(RC_LX_ITEM);

  17822 19 010746   200026 630500                    EPPR0   RC_LX_ITEM,,AUTO
        19 010747   200015 450500                    STP0    IA_LX_ITEM+7,,AUTO

     3121    17823    1       CALL BUILD_CONST_PARM ( CONST_WORD, ADDR(EC_SL_LX_ITEM));

  17823 19 010750   200126 631500                    EPPR1   EC_SL_LX_ITEM,,AUTO
        19 010751   200325 451500                    STP1    OFFSET+53,,AUTO
        19 010752   200325 633500                    EPPR3   OFFSET+53,,AUTO
        19 010753   200236 453500                    STP3    PTR$+1,,AUTO
        19 010754   200176 634500                    EPPR4   CONST_WORD,,AUTO
        19 010755   200235 454500                    STP4    @ITEM$+1,,AUTO
        19 010756   000167 701000 19                 TSX1    BUILD_CONST_PARM
        19 010757   000000 011000                    NOP     0

     3122    17824
     3123    17825    1       ADDR(RC_LX_ITEM) -> LX_ITEM.LINK = ADDR(EC_SL_LX_ITEM);

  17825 19 010760   200126 630500                    EPPR0   EC_SL_LX_ITEM,,AUTO
        19 010761   200035 450500                    STP0    RC_LX_ITEM+7,,AUTO

PL6.E3A0      #005=Z9EB$DML_STATEMENT File=Z9EB.:Z8A6TSI                         SAT 08/09/97 13:50 Page:548
     3124    17826    1       CALL Z9EB$BUILD_CODE(%DBERS, 3, ADDR(IA_LX_ITEM));

  17826 19 010762   200006 631500                    EPPR1   IA_LX_ITEM,,AUTO
        19 010763   200242 451500                    STP1    OFFSET+2,,AUTO
        19 010764   200242 633500                    EPPR3   OFFSET+2,,AUTO
        19 010765   200245 453500                    STP3    OFFSET+5,,AUTO
        19 010766   000041 236000 20                 LDQ     33
        19 010767   200244 756100                    STQ     OFFSET+4,,AUTO
        19 010770   000067 236000 20                 LDQ     55
        19 010771   200243 756100                    STQ     OFFSET+3,,AUTO
        19 010772   200243 630500                    EPPR0   OFFSET+3,,AUTO
        19 010773   000004 631400 20                 EPPR1   4
        19 010774   000000 701000 xent               TSX1    Z9EB$BUILD_CODE
        19 010775   000000 011000                    NOP     0

     3125    17827
     3126    17828    1       RETURN;

  17828 19 010776   000000 702200 xent               TSX2  ! X66_ARET

     3127    17829        %EJECT;
PL6.E3A0      #005=Z9EB$DML_STATEMENT File=Z9EB.:Z8A6TSI                         SAT 08/09/97 13:50 Page:549
     3128    17830        /*===========*/
     3129    17831    1     Z9EB$ACCEPT :   ENTRY (RECORD_SELECTION$, RETENTION$);

  17831 19 010777   000000 700200 xent  Z9EB$ACCEPT  TSX0  ! X66_AUTO_2
        19 011000   000334 000002                    ZERO    220,2

     3130    17832        /*===========*/
     3131    17833
     3132    17834    1       OPTION$ = RECORD_SELECTION$ -> LX_LIST.HEAD$;

  17834 19 011001   200003 470500                    LDP0    @RECORD_SELECTION$,,AUTO
        19 011002   000000 471500                    LDP1    0,,PR0
        19 011003   100004 236100                    LDQ     4,,PR1
        19 011004   200202 756100                    STQ     OPTION$,,AUTO

     3133    17835    1       NAME$ = OPTION$ -> LX_ITEM.LINK;

  17835 19 011005   200202 471500                    LDP1    OPTION$,,AUTO
        19 011006   100007 236100                    LDQ     7,,PR1
        19 011007   200164 756100                    STQ     NAME$,,AUTO

     3134    17836    1       IDENT$ = RECORD_SELECTION$ -> LX_LIST.TAIL$;

  17836 19 011010   000000 473500                    LDP3    0,,PR0
        19 011011   300001 236100                    LDQ     1,,PR3
        19 011012   200203 756100                    STQ     IDENT$,,AUTO

     3135    17837    1       ERROR_FLAG = %FALSE;

  17837 19 011013   200213 450100                    STZ     ERROR_FLAG,,AUTO

     3136    17838    1       CONST_WORD = 0;

  17838 19 011014   200176 450100                    STZ     CONST_WORD,,AUTO

     3137    17839    1       OPTION_WORD = OPTION$ -> LX_ITEM.SYMBOL;

PL6.E3A0      #005=Z9EB$DML_STATEMENT File=Z9EB.:Z8A6TSI                         SAT 08/09/97 13:50 Page:550
  17839 19 011015   100003 235100                    LDA     3,,PR1
        19 011016   200174 755100                    STA     OPTION_WORD,,AUTO

     3138    17840    2       DO CASE( OPTION_WORD );

  17840 19 011017   000170 135007                    SBLA    120,DL
        19 011020   000362 115007                    CMPA    242,DL
        19 011021   011023 602005 19                 TNC     s:17840+4,AL
        19 011022   011436 710000 19                 TRA     s:17862
        19 011023   011405 710000 19                 TRA     s:17843
        19 011024   011436 710000 19                 TRA     s:17862
        19 011025   011436 710000 19                 TRA     s:17862
        19 011026   011436 710000 19                 TRA     s:17862
        19 011027   011436 710000 19                 TRA     s:17862
        19 011030   011436 710000 19                 TRA     s:17862
        19 011031   011436 710000 19                 TRA     s:17862
        19 011032   011436 710000 19                 TRA     s:17862
        19 011033   011436 710000 19                 TRA     s:17862
        19 011034   011436 710000 19                 TRA     s:17862
        19 011035   011436 710000 19                 TRA     s:17862
        19 011036   011436 710000 19                 TRA     s:17862
        19 011037   011436 710000 19                 TRA     s:17862
        19 011040   011436 710000 19                 TRA     s:17862
        19 011041   011436 710000 19                 TRA     s:17862
        19 011042   011436 710000 19                 TRA     s:17862
        19 011043   011436 710000 19                 TRA     s:17862
        19 011044   011436 710000 19                 TRA     s:17862
        19 011045   011436 710000 19                 TRA     s:17862
        19 011046   011436 710000 19                 TRA     s:17862
        19 011047   011436 710000 19                 TRA     s:17862
        19 011050   011436 710000 19                 TRA     s:17862
        19 011051   011436 710000 19                 TRA     s:17862
        19 011052   011436 710000 19                 TRA     s:17862
        19 011053   011436 710000 19                 TRA     s:17862
        19 011054   011436 710000 19                 TRA     s:17862
        19 011055   011436 710000 19                 TRA     s:17862
        19 011056   011436 710000 19                 TRA     s:17862
PL6.E3A0      #005=Z9EB$DML_STATEMENT File=Z9EB.:Z8A6TSI                         SAT 08/09/97 13:50 Page:551
        19 011057   011436 710000 19                 TRA     s:17862
        19 011060   011436 710000 19                 TRA     s:17862
        19 011061   011436 710000 19                 TRA     s:17862
        19 011062   011436 710000 19                 TRA     s:17862
        19 011063   011436 710000 19                 TRA     s:17862
        19 011064   011436 710000 19                 TRA     s:17862
        19 011065   011436 710000 19                 TRA     s:17862
        19 011066   011436 710000 19                 TRA     s:17862
        19 011067   011436 710000 19                 TRA     s:17862
        19 011070   011436 710000 19                 TRA     s:17862
        19 011071   011436 710000 19                 TRA     s:17862
        19 011072   011436 710000 19                 TRA     s:17862
        19 011073   011436 710000 19                 TRA     s:17862
        19 011074   011436 710000 19                 TRA     s:17862
        19 011075   011436 710000 19                 TRA     s:17862
        19 011076   011436 710000 19                 TRA     s:17862
        19 011077   011436 710000 19                 TRA     s:17862
        19 011100   011436 710000 19                 TRA     s:17862
        19 011101   011436 710000 19                 TRA     s:17862
        19 011102   011436 710000 19                 TRA     s:17862
        19 011103   011436 710000 19                 TRA     s:17862
        19 011104   011436 710000 19                 TRA     s:17862
        19 011105   011436 710000 19                 TRA     s:17862
        19 011106   011436 710000 19                 TRA     s:17862
        19 011107   011436 710000 19                 TRA     s:17862
        19 011110   011436 710000 19                 TRA     s:17862
        19 011111   011436 710000 19                 TRA     s:17862
        19 011112   011436 710000 19                 TRA     s:17862
        19 011113   011436 710000 19                 TRA     s:17862
        19 011114   011436 710000 19                 TRA     s:17862
        19 011115   011436 710000 19                 TRA     s:17862
        19 011116   011436 710000 19                 TRA     s:17862
        19 011117   011436 710000 19                 TRA     s:17862
        19 011120   011436 710000 19                 TRA     s:17862
        19 011121   011436 710000 19                 TRA     s:17862
        19 011122   011436 710000 19                 TRA     s:17862
        19 011123   011436 710000 19                 TRA     s:17862
PL6.E3A0      #005=Z9EB$DML_STATEMENT File=Z9EB.:Z8A6TSI                         SAT 08/09/97 13:50 Page:552
        19 011124   011436 710000 19                 TRA     s:17862
        19 011125   011436 710000 19                 TRA     s:17862
        19 011126   011436 710000 19                 TRA     s:17862
        19 011127   011436 710000 19                 TRA     s:17862
        19 011130   011436 710000 19                 TRA     s:17862
        19 011131   011436 710000 19                 TRA     s:17862
        19 011132   011436 710000 19                 TRA     s:17862
        19 011133   011436 710000 19                 TRA     s:17862
        19 011134   011436 710000 19                 TRA     s:17862
        19 011135   011436 710000 19                 TRA     s:17862
        19 011136   011436 710000 19                 TRA     s:17862
        19 011137   011436 710000 19                 TRA     s:17862
        19 011140   011436 710000 19                 TRA     s:17862
        19 011141   011436 710000 19                 TRA     s:17862
        19 011142   011436 710000 19                 TRA     s:17862
        19 011143   011436 710000 19                 TRA     s:17862
        19 011144   011436 710000 19                 TRA     s:17862
        19 011145   011436 710000 19                 TRA     s:17862
        19 011146   011436 710000 19                 TRA     s:17862
        19 011147   011436 710000 19                 TRA     s:17862
        19 011150   011436 710000 19                 TRA     s:17862
        19 011151   011436 710000 19                 TRA     s:17862
        19 011152   011436 710000 19                 TRA     s:17862
        19 011153   011436 710000 19                 TRA     s:17862
        19 011154   011436 710000 19                 TRA     s:17862
        19 011155   011436 710000 19                 TRA     s:17862
        19 011156   011436 710000 19                 TRA     s:17862
        19 011157   011436 710000 19                 TRA     s:17862
        19 011160   011436 710000 19                 TRA     s:17862
        19 011161   011436 710000 19                 TRA     s:17862
        19 011162   011436 710000 19                 TRA     s:17862
        19 011163   011436 710000 19                 TRA     s:17862
        19 011164   011436 710000 19                 TRA     s:17862
        19 011165   011436 710000 19                 TRA     s:17862
        19 011166   011436 710000 19                 TRA     s:17862
        19 011167   011436 710000 19                 TRA     s:17862
        19 011170   011436 710000 19                 TRA     s:17862
PL6.E3A0      #005=Z9EB$DML_STATEMENT File=Z9EB.:Z8A6TSI                         SAT 08/09/97 13:50 Page:553
        19 011171   011436 710000 19                 TRA     s:17862
        19 011172   011436 710000 19                 TRA     s:17862
        19 011173   011436 710000 19                 TRA     s:17862
        19 011174   011436 710000 19                 TRA     s:17862
        19 011175   011436 710000 19                 TRA     s:17862
        19 011176   011436 710000 19                 TRA     s:17862
        19 011177   011436 710000 19                 TRA     s:17862
        19 011200   011436 710000 19                 TRA     s:17862
        19 011201   011436 710000 19                 TRA     s:17862
        19 011202   011436 710000 19                 TRA     s:17862
        19 011203   011436 710000 19                 TRA     s:17862
        19 011204   011436 710000 19                 TRA     s:17862
        19 011205   011436 710000 19                 TRA     s:17862
        19 011206   011436 710000 19                 TRA     s:17862
        19 011207   011436 710000 19                 TRA     s:17862
        19 011210   011436 710000 19                 TRA     s:17862
        19 011211   011436 710000 19                 TRA     s:17862
        19 011212   011436 710000 19                 TRA     s:17862
        19 011213   011436 710000 19                 TRA     s:17862
        19 011214   011436 710000 19                 TRA     s:17862
        19 011215   011436 710000 19                 TRA     s:17862
        19 011216   011436 710000 19                 TRA     s:17862
        19 011217   011436 710000 19                 TRA     s:17862
        19 011220   011436 710000 19                 TRA     s:17862
        19 011221   011436 710000 19                 TRA     s:17862
        19 011222   011436 710000 19                 TRA     s:17862
        19 011223   011436 710000 19                 TRA     s:17862
        19 011224   011436 710000 19                 TRA     s:17862
        19 011225   011436 710000 19                 TRA     s:17862
        19 011226   011436 710000 19                 TRA     s:17862
        19 011227   011436 710000 19                 TRA     s:17862
        19 011230   011436 710000 19                 TRA     s:17862
        19 011231   011436 710000 19                 TRA     s:17862
        19 011232   011436 710000 19                 TRA     s:17862
        19 011233   011436 710000 19                 TRA     s:17862
        19 011234   011436 710000 19                 TRA     s:17862
        19 011235   011436 710000 19                 TRA     s:17862
PL6.E3A0      #005=Z9EB$DML_STATEMENT File=Z9EB.:Z8A6TSI                         SAT 08/09/97 13:50 Page:554
        19 011236   011436 710000 19                 TRA     s:17862
        19 011237   011436 710000 19                 TRA     s:17862
        19 011240   011436 710000 19                 TRA     s:17862
        19 011241   011436 710000 19                 TRA     s:17862
        19 011242   011436 710000 19                 TRA     s:17862
        19 011243   011436 710000 19                 TRA     s:17862
        19 011244   011436 710000 19                 TRA     s:17862
        19 011245   011436 710000 19                 TRA     s:17862
        19 011246   011436 710000 19                 TRA     s:17862
        19 011247   011436 710000 19                 TRA     s:17862
        19 011250   011436 710000 19                 TRA     s:17862
        19 011251   011436 710000 19                 TRA     s:17862
        19 011252   011436 710000 19                 TRA     s:17862
        19 011253   011436 710000 19                 TRA     s:17862
        19 011254   011436 710000 19                 TRA     s:17862
        19 011255   011436 710000 19                 TRA     s:17862
        19 011256   011436 710000 19                 TRA     s:17862
        19 011257   011436 710000 19                 TRA     s:17862
        19 011260   011436 710000 19                 TRA     s:17862
        19 011261   011436 710000 19                 TRA     s:17862
        19 011262   011436 710000 19                 TRA     s:17862
        19 011263   011436 710000 19                 TRA     s:17862
        19 011264   011436 710000 19                 TRA     s:17862
        19 011265   011436 710000 19                 TRA     s:17862
        19 011266   011436 710000 19                 TRA     s:17862
        19 011267   011436 710000 19                 TRA     s:17862
        19 011270   011436 710000 19                 TRA     s:17862
        19 011271   011436 710000 19                 TRA     s:17862
        19 011272   011436 710000 19                 TRA     s:17862
        19 011273   011436 710000 19                 TRA     s:17862
        19 011274   011436 710000 19                 TRA     s:17862
        19 011275   011436 710000 19                 TRA     s:17862
        19 011276   011436 710000 19                 TRA     s:17862
        19 011277   011436 710000 19                 TRA     s:17862
        19 011300   011436 710000 19                 TRA     s:17862
        19 011301   011436 710000 19                 TRA     s:17862
        19 011302   011436 710000 19                 TRA     s:17862
PL6.E3A0      #005=Z9EB$DML_STATEMENT File=Z9EB.:Z8A6TSI                         SAT 08/09/97 13:50 Page:555
        19 011303   011436 710000 19                 TRA     s:17862
        19 011304   011436 710000 19                 TRA     s:17862
        19 011305   011436 710000 19                 TRA     s:17862
        19 011306   011436 710000 19                 TRA     s:17862
        19 011307   011436 710000 19                 TRA     s:17862
        19 011310   011415 710000 19                 TRA     s:17849
        19 011311   011436 710000 19                 TRA     s:17862
        19 011312   011436 710000 19                 TRA     s:17862
        19 011313   011436 710000 19                 TRA     s:17862
        19 011314   011436 710000 19                 TRA     s:17862
        19 011315   011436 710000 19                 TRA     s:17862
        19 011316   011436 710000 19                 TRA     s:17862
        19 011317   011436 710000 19                 TRA     s:17862
        19 011320   011436 710000 19                 TRA     s:17862
        19 011321   011436 710000 19                 TRA     s:17862
        19 011322   011436 710000 19                 TRA     s:17862
        19 011323   011436 710000 19                 TRA     s:17862
        19 011324   011436 710000 19                 TRA     s:17862
        19 011325   011436 710000 19                 TRA     s:17862
        19 011326   011436 710000 19                 TRA     s:17862
        19 011327   011436 710000 19                 TRA     s:17862
        19 011330   011436 710000 19                 TRA     s:17862
        19 011331   011436 710000 19                 TRA     s:17862
        19 011332   011436 710000 19                 TRA     s:17862
        19 011333   011436 710000 19                 TRA     s:17862
        19 011334   011436 710000 19                 TRA     s:17862
        19 011335   011436 710000 19                 TRA     s:17862
        19 011336   011436 710000 19                 TRA     s:17862
        19 011337   011436 710000 19                 TRA     s:17862
        19 011340   011436 710000 19                 TRA     s:17862
        19 011341   011436 710000 19                 TRA     s:17862
        19 011342   011436 710000 19                 TRA     s:17862
        19 011343   011436 710000 19                 TRA     s:17862
        19 011344   011431 710000 19                 TRA     s:17857
        19 011345   011436 710000 19                 TRA     s:17862
        19 011346   011436 710000 19                 TRA     s:17862
        19 011347   011436 710000 19                 TRA     s:17862
PL6.E3A0      #005=Z9EB$DML_STATEMENT File=Z9EB.:Z8A6TSI                         SAT 08/09/97 13:50 Page:556
        19 011350   011436 710000 19                 TRA     s:17862
        19 011351   011436 710000 19                 TRA     s:17862
        19 011352   011436 710000 19                 TRA     s:17862
        19 011353   011436 710000 19                 TRA     s:17862
        19 011354   011436 710000 19                 TRA     s:17862
        19 011355   011436 710000 19                 TRA     s:17862
        19 011356   011436 710000 19                 TRA     s:17862
        19 011357   011436 710000 19                 TRA     s:17862
        19 011360   011436 710000 19                 TRA     s:17862
        19 011361   011436 710000 19                 TRA     s:17862
        19 011362   011436 710000 19                 TRA     s:17862
        19 011363   011423 710000 19                 TRA     s:17853
        19 011364   011436 710000 19                 TRA     s:17862
        19 011365   011436 710000 19                 TRA     s:17862
        19 011366   011436 710000 19                 TRA     s:17862
        19 011367   011436 710000 19                 TRA     s:17862
        19 011370   011436 710000 19                 TRA     s:17862
        19 011371   011436 710000 19                 TRA     s:17862
        19 011372   011436 710000 19                 TRA     s:17862
        19 011373   011436 710000 19                 TRA     s:17862
        19 011374   011436 710000 19                 TRA     s:17862
        19 011375   011436 710000 19                 TRA     s:17862
        19 011376   011436 710000 19                 TRA     s:17862
        19 011377   011436 710000 19                 TRA     s:17862
        19 011400   011436 710000 19                 TRA     s:17862
        19 011401   011436 710000 19                 TRA     s:17862
        19 011402   011436 710000 19                 TRA     s:17862
        19 011403   011436 710000 19                 TRA     s:17862
        19 011404   011411 710000 19                 TRA     s:17846

     3139    17841
     3140    17842    2           CASE( %RSV_WRD_CURRENCY );

     3141    17843    2               CODE = %DBACC;

  17843 19 011405   040100 100400                    MLR     fill='040'O
        19 011406   000062 000006 18                 ADSC9   50                       cn=0,n=6
PL6.E3A0      #005=Z9EB$DML_STATEMENT File=Z9EB.:Z8A6TSI                         SAT 08/09/97 13:50 Page:557
        19 011407   200166 000006                    ADSC9   CODE,,AUTO               cn=0,n=6
        19 011410   011436 710000 19                 TRA     s:17862

     3142    17844
     3143    17845    2           CASE( %RSV_WRD_REALM_NAME );

     3144    17846    2               CODE = %DBACN;

  17846 19 011411   040100 100400                    MLR     fill='040'O
        19 011412   000064 000006 18                 ADSC9   52                       cn=0,n=6
        19 011413   200166 000006                    ADSC9   CODE,,AUTO               cn=0,n=6
        19 011414   011436 710000 19                 TRA     s:17862

     3145    17847
     3146    17848    2           CASE( %RSV_WRD_NEXT );

     3147    17849    2               CODE = %DBACC;

  17849 19 011415   040100 100400                    MLR     fill='040'O
        19 011416   000062 000006 18                 ADSC9   50                       cn=0,n=6
        19 011417   200166 000006                    ADSC9   CODE,,AUTO               cn=0,n=6

     3148    17850    2               CURRENCY_CONST.CURRENCY = %NEXT_OF_SET;

  17850 19 011420   000004 220003                    LDX0    4,DU
        19 011421   200176 740100                    STX0    CONST_WORD,,AUTO
        19 011422   011436 710000 19                 TRA     s:17862

     3149    17851
     3150    17852    2           CASE( %RSV_WRD_PRIOR );

     3151    17853    2               CODE = %DBACC;

  17853 19 011423   040100 100400                    MLR     fill='040'O
        19 011424   000062 000006 18                 ADSC9   50                       cn=0,n=6
        19 011425   200166 000006                    ADSC9   CODE,,AUTO               cn=0,n=6

PL6.E3A0      #005=Z9EB$DML_STATEMENT File=Z9EB.:Z8A6TSI                         SAT 08/09/97 13:50 Page:558
     3152    17854    2               CURRENCY_CONST.CURRENCY = %PRIOR_OF_SET;

  17854 19 011426   000005 220003                    LDX0    5,DU
        19 011427   200176 740100                    STX0    CONST_WORD,,AUTO
        19 011430   011436 710000 19                 TRA     s:17862

     3153    17855
     3154    17856    2           CASE( %RSV_WRD_OWNER );

     3155    17857    2               CODE = %DBACC;

  17857 19 011431   040100 100400                    MLR     fill='040'O
        19 011432   000062 000006 18                 ADSC9   50                       cn=0,n=6
        19 011433   200166 000006                    ADSC9   CODE,,AUTO               cn=0,n=6

     3156    17858    2               CURRENCY_CONST.CURRENCY = %OWNER_OF_SET;

  17858 19 011434   000006 220003                    LDX0    6,DU
        19 011435   200176 740100                    STX0    CONST_WORD,,AUTO

     3157    17859
     3158    17860    2       END;                             /*V*  CASE( OPTION_WORD  */

     3159    17861
     3160    17862    1       IF NAME$ -> LX_ITEM.ID = %LX_TERMINAL AND NAME$ -> LX_ITEM.SYMBOL = %EMPTY THEN

  17862 19 011436   200164 473500                    LDP3    NAME$,,AUTO
        19 011437   300000 220100                    LDX0    0,,PR3
        19 011440   011464 601000 19                 TNZ     s:17874
        19 011441   300003 235100                    LDA     3,,PR3
        19 011442   011464 601000 19                 TNZ     s:17874

     3161    17863    2         DO;

     3162    17864    2           CURRENCY_CONST.CURRENCY = %CURRENT_OF_RUN;

  17864 19 011443   000000 221003                    LDX1    0,DU
PL6.E3A0      #005=Z9EB$DML_STATEMENT File=Z9EB.:Z8A6TSI                         SAT 08/09/97 13:50 Page:559
        19 011444   200176 741100                    STX1    CONST_WORD,,AUTO

     3163    17865    2           NAME_ST$ = ADDR(NIL);

  17865 19 011445   000000 236000 20                 LDQ     0
        19 011446   200165 756100                    STQ     NAME_ST$,,AUTO

     3164    17866    2           IF O1COM.NILL_RVA = %FALSE   THEN

  17866 19 011447   000105 234000 xsym               SZN     O1COM+69
        19 011450   011727 604000 19                 TMI     s:17951

     3165    17867    3             DO;

     3166    17868    3               RVA_TYPE = %RVA_NULL;

  17868 19 011451   000004 220003                    LDX0    4,DU
        19 011452   200147 740100                    STX0    RVA_TYPE,,AUTO

     3167    17869    3               CALL Z9EB$BUILD_RVA_TABLE(NAME_ST$, RVA_TYPE);

  17869 19 011453   200147 634500                    EPPR4   RVA_TYPE,,AUTO
        19 011454   200243 454500                    STP4    OFFSET+3,,AUTO
        19 011455   200165 635500                    EPPR5   NAME_ST$,,AUTO
        19 011456   200242 455500                    STP5    OFFSET+2,,AUTO
        19 011457   200242 630500                    EPPR0   OFFSET+2,,AUTO
        19 011460   000002 631400 20                 EPPR1   2
        19 011461   000000 701000 xent               TSX1    Z9EB$BUILD_RVA_TABLE
        19 011462   000000 011000                    NOP     0

     3168    17870    3             END;

     3169    17871    2         END;

  17871 19 011463   011727 710000 19                 TRA     s:17951

     3170    17872
PL6.E3A0      #005=Z9EB$DML_STATEMENT File=Z9EB.:Z8A6TSI                         SAT 08/09/97 13:50 Page:560
     3171    17873    1       ELSE
     3172    17874    1        IF NAME$ -> LX_ITEM.B.ERROR    THEN

  17874 19 011464   300000 236100                    LDQ     0,,PR3
        19 011465   400000 316007                    CANQ    -131072,DL
        19 011466   011472 600000 19                 TZE     s:17880

     3173    17875    1            ERROR_FLAG = %TRUE;

  17875 19 011467   400000 236003                    LDQ     -131072,DU
        19 011470   200213 756100                    STQ     ERROR_FLAG,,AUTO
        19 011471   011727 710000 19                 TRA     s:17951

     3174    17876    1        ELSE
     3175    17877    2         DO;

     3176    17878                %FISH(TRIAD = NAME$ -> LX_ETT_ITEM.ETT$, RTN = NAME_ST$);

  17880 19 011472   300001 236100                    LDQ     1,,PR3
        19 011473   200165 756100                    STQ     NAME_ST$,,AUTO

  17881 19 011474   200165 474500                    LDP4    NAME_ST$,,AUTO
        19 011475   400000 220100                    LDX0    0,,PR4
        19 011476   000751 100003                    CMPX0   489,DU
        19 011477   011507 603000 19                 TRC     s:17886

  17882 19 011500   200165 470500                    LDP0    NAME_ST$,,AUTO
        19 011501   000001 236100                    LDQ     1,,PR0
        19 011502   200165 756100                    STQ     NAME_ST$,,AUTO

  17883 19 011503   200165 470500                    LDP0    NAME_ST$,,AUTO
        19 011504   000000 220100                    LDX0    0,,PR0
        19 011505   000751 100003                    CMPX0   489,DU
        19 011506   011500 602000 19                 TNC     s:17882

     3177    17886    3           DO CASE( NAME_ST$ -> SCALAR.ID );

PL6.E3A0      #005=Z9EB$DML_STATEMENT File=Z9EB.:Z8A6TSI                         SAT 08/09/97 13:50 Page:561
  17886 19 011507   200165 470500                    LDP0    NAME_ST$,,AUTO
        19 011510   000000 236100                    LDQ     0,,PR0
        19 011511   000022 772000                    QRL     18
        19 011512   000752 136007                    SBLQ    490,DL
        19 011513   000015 116007                    CMPQ    13,DL
        19 011514   011516 602006 19                 TNC     s:17886+7,QL
        19 011515   011676 710000 19                 TRA     s:17940
        19 011516   011533 710000 19                 TRA     s:17889
        19 011517   011560 710000 19                 TRA     s:17900
        19 011520   011676 710000 19                 TRA     s:17940
        19 011521   011676 710000 19                 TRA     s:17940
        19 011522   011676 710000 19                 TRA     s:17940
        19 011523   011676 710000 19                 TRA     s:17940
        19 011524   011676 710000 19                 TRA     s:17940
        19 011525   011676 710000 19                 TRA     s:17940
        19 011526   011676 710000 19                 TRA     s:17940
        19 011527   011676 710000 19                 TRA     s:17940
        19 011530   011676 710000 19                 TRA     s:17940
        19 011531   011676 710000 19                 TRA     s:17940
        19 011532   011572 710000 19                 TRA     s:17907

     3178    17887
     3179    17888    3               CASE( %REALM );

     3180    17889    3                   IF OPTION_WORD ~= %RSV_WRD_CURRENCY   THEN

  17889 19 011533   200174 235100                    LDA     OPTION_WORD,,AUTO
        19 011534   000170 115007                    CMPA    120,DL
        19 011535   011553 600000 19                 TZE     s:17896

     3181    17890    4                     DO;

     3182    17891    4                       CALL Z8AE$ERROR(%E$REALM_CURRENCY_ERROR,

  17891 19 011536   200164 236100                    LDQ     NAME$,,AUTO
        19 011537   000006 036003                    ADLQ    6,DU
        19 011540   200244 756100                    STQ     OFFSET+4,,AUTO
PL6.E3A0      #005=Z9EB$DML_STATEMENT File=Z9EB.:Z8A6TSI                         SAT 08/09/97 13:50 Page:562
        19 011541   200164 236100                    LDQ     NAME$,,AUTO
        19 011542   000005 036003                    ADLQ    5,DU
        19 011543   000071 235000 20                 LDA     57
        19 011544   200242 757100                    STAQ    OFFSET+2,,AUTO
        19 011545   200242 630500                    EPPR0   OFFSET+2,,AUTO
        19 011546   000004 631400 20                 EPPR1   4
        19 011547   000000 701000 xent               TSX1    Z8AE$ERROR
        19 011550   000000 011000                    NOP     0

     3183    17892    4                                       NAME$ -> LX_ITEM.LINE,
     3184    17893    4                                       NAME$ -> LX_ITEM.COLUMN);
     3185    17894    4                       ERROR_FLAG = %TRUE;

  17894 19 011551   400000 236003                    LDQ     -131072,DU
        19 011552   200213 756100                    STQ     ERROR_FLAG,,AUTO

     3186    17895    4                     END;

     3187    17896    3                   CURRENCY_CONST.CURRENCY = %CURRENT_OF_AREA;

  17896 19 011553   000002 220003                    LDX0    2,DU
        19 011554   200176 740100                    STX0    CONST_WORD,,AUTO

     3188    17897    3                   RVA_TYPE = %RVA_REALM;

  17897 19 011555   000000 221003                    LDX1    0,DU
        19 011556   200147 741100                    STX1    RVA_TYPE,,AUTO
        19 011557   011713 710000 19                 TRA     s:17947

     3189    17898
     3190    17899    3               CASE( %DML_SET );

     3191    17900    3                   IF OPTION_WORD = %RSV_WRD_CURRENCY   OR

  17900 19 011560   200174 235100                    LDA     OPTION_WORD,,AUTO
        19 011561   000170 115007                    CMPA    120,DL
        19 011562   011565 600000 19                 TZE     s:17902
PL6.E3A0      #005=Z9EB$DML_STATEMENT File=Z9EB.:Z8A6TSI                         SAT 08/09/97 13:50 Page:563
        19 011563   000551 115007                    CMPA    361,DL
        19 011564   011567 601000 19                 TNZ     s:17903

     3192    17901    3                       OPTION_WORD = %RSV_WRD_REALM_NAME   THEN
     3193    17902    3                         CURRENCY_CONST.CURRENCY = %CURRENT_OF_SET;

  17902 19 011565   000003 220003                    LDX0    3,DU
        19 011566   200176 740100                    STX0    CONST_WORD,,AUTO

     3194    17903    3                   RVA_TYPE = %RVA_SET;

  17903 19 011567   000001 220003                    LDX0    1,DU
        19 011570   200147 740100                    STX0    RVA_TYPE,,AUTO
        19 011571   011713 710000 19                 TRA     s:17947

     3195    17904
     3196    17905    3               CASE( %SCALAR );

     3197    17906
     3198    17907    4                   DO CASE(NAME_ST$ -> SCALAR.B.DML_TYPE);

  17907 19 011572   000003 236100                    LDQ     3,,PR0
        19 011573   000015 772000                    QRL     13
        19 011574   000007 376007                    ANQ     7,DL
        19 011575   000006 116007                    CMPQ    6,DL
        19 011576   011600 602006 19                 TNC     s:17907+6,QL
        19 011577   011660 710000 19                 TRA     s:17932
        19 011600   011660 710000 19                 TRA     s:17932
        19 011601   011660 710000 19                 TRA     s:17932
        19 011602   011635 710000 19                 TRA     s:17922
        19 011603   011606 710000 19                 TRA     s:17910
        19 011604   011660 710000 19                 TRA     s:17932
        19 011605   011635 710000 19                 TRA     s:17922

     3199    17908
     3200    17909    4                       CASE( %RECORD );

PL6.E3A0      #005=Z9EB$DML_STATEMENT File=Z9EB.:Z8A6TSI                         SAT 08/09/97 13:50 Page:564
     3201    17910    4                           IF OPTION_WORD ~= %RSV_WRD_CURRENCY   AND

  17910 19 011606   200174 235100                    LDA     OPTION_WORD,,AUTO
        19 011607   000170 115007                    CMPA    120,DL
        19 011610   011630 600000 19                 TZE     s:17918
        19 011611   000551 115007                    CMPA    361,DL
        19 011612   011630 600000 19                 TZE     s:17918

     3202    17911    4                               OPTION_WORD ~= %RSV_WRD_REALM_NAME   THEN
     3203    17912    5                             DO;

     3204    17913    5                               CALL Z8AE$ERROR(%E$RECORD_CURRENCY_ERROR,

  17913 19 011613   200164 236100                    LDQ     NAME$,,AUTO
        19 011614   000006 036003                    ADLQ    6,DU
        19 011615   200244 756100                    STQ     OFFSET+4,,AUTO
        19 011616   200164 236100                    LDQ     NAME$,,AUTO
        19 011617   000005 036003                    ADLQ    5,DU
        19 011620   000073 235000 20                 LDA     59
        19 011621   200242 757100                    STAQ    OFFSET+2,,AUTO
        19 011622   200242 630500                    EPPR0   OFFSET+2,,AUTO
        19 011623   000004 631400 20                 EPPR1   4
        19 011624   000000 701000 xent               TSX1    Z8AE$ERROR
        19 011625   000000 011000                    NOP     0

     3205    17914    5                                               NAME$ -> LX_ITEM.LINE,
     3206    17915    5                                           NAME$ -> LX_ITEM.COLUMN);
     3207    17916    5                               ERROR_FLAG = %TRUE;

  17916 19 011626   400000 236003                    LDQ     -131072,DU
        19 011627   200213 756100                    STQ     ERROR_FLAG,,AUTO

     3208    17917    5                             END;

     3209    17918    4                           CURRENCY_CONST.CURRENCY = %CURRENT_OF_RECORD;

  17918 19 011630   000001 220003                    LDX0    1,DU
PL6.E3A0      #005=Z9EB$DML_STATEMENT File=Z9EB.:Z8A6TSI                         SAT 08/09/97 13:50 Page:565
        19 011631   200176 740100                    STX0    CONST_WORD,,AUTO

     3210    17919    4                           RVA_TYPE = %RVA_RECORD;

  17919 19 011632   000002 221003                    LDX1    2,DU
        19 011633   200147 741100                    STX1    RVA_TYPE,,AUTO
        19 011634   011713 710000 19                 TRA     s:17947

     3211    17920
     3212    17921    4                       CASE( %DATA_BASE_KEY, %DIRECT_REFERENCE );

     3213    17922    4                           IF OPTION_WORD ~= %RSV_WRD_REALM_NAME   THEN

  17922 19 011635   200174 235100                    LDA     OPTION_WORD,,AUTO
        19 011636   000551 115007                    CMPA    361,DL
        19 011637   011655 600000 19                 TZE     s:17929

     3214    17923    5                             DO;

     3215    17924    5                               CALL Z8AE$ERROR(%E$DB_KEY_CURRENCY_ERROR,

  17924 19 011640   200164 236100                    LDQ     NAME$,,AUTO
        19 011641   000006 036003                    ADLQ    6,DU
        19 011642   200244 756100                    STQ     OFFSET+4,,AUTO
        19 011643   200164 236100                    LDQ     NAME$,,AUTO
        19 011644   000005 036003                    ADLQ    5,DU
        19 011645   000075 235000 20                 LDA     61
        19 011646   200242 757100                    STAQ    OFFSET+2,,AUTO
        19 011647   200242 630500                    EPPR0   OFFSET+2,,AUTO
        19 011650   000004 631400 20                 EPPR1   4
        19 011651   000000 701000 xent               TSX1    Z8AE$ERROR
        19 011652   000000 011000                    NOP     0

     3216    17925    5                                               NAME$ -> LX_ITEM.LINE,
     3217    17926    5                                       NAME$ -> LX_ITEM.COLUMN);
     3218    17927    5                               ERROR_FLAG = %TRUE;

PL6.E3A0      #005=Z9EB$DML_STATEMENT File=Z9EB.:Z8A6TSI                         SAT 08/09/97 13:50 Page:566
  17927 19 011653   400000 236003                    LDQ     -131072,DU
        19 011654   200213 756100                    STQ     ERROR_FLAG,,AUTO

     3219    17928    5                             END;

     3220    17929    4                           CURRENCY_CONST.CURRENCY = %DB_KEY_CURRENCY;

  17929 19 011655   000002 220003                    LDX0    2,DU
        19 011656   200176 740100                    STX0    CONST_WORD,,AUTO
        19 011657   011713 710000 19                 TRA     s:17947

     3221    17930
     3222    17931    4                       CASE( ELSE );

     3223    17932    4                           CALL Z8AE$ERROR(%E$CURRENCY_ERROR,

  17932 19 011660   200164 236100                    LDQ     NAME$,,AUTO
        19 011661   000006 036003                    ADLQ    6,DU
        19 011662   200244 756100                    STQ     OFFSET+4,,AUTO
        19 011663   200164 236100                    LDQ     NAME$,,AUTO
        19 011664   000005 036003                    ADLQ    5,DU
        19 011665   000077 235000 20                 LDA     63
        19 011666   200242 757100                    STAQ    OFFSET+2,,AUTO
        19 011667   200242 630500                    EPPR0   OFFSET+2,,AUTO
        19 011670   000004 631400 20                 EPPR1   4
        19 011671   000000 701000 xent               TSX1    Z8AE$ERROR
        19 011672   000000 011000                    NOP     0

     3224    17933    4                                           NAME$ -> LX_ITEM.LINE,
     3225    17934    4                                           NAME$ -> LX_ITEM.COLUMN);
     3226    17935    4                           ERROR_FLAG = %TRUE;

  17935 19 011673   400000 236003                    LDQ     -131072,DU
        19 011674   200213 756100                    STQ     ERROR_FLAG,,AUTO

     3227    17936
     3228    17937    4                   END;       /*V*  CASE(NAME_ST$ -> SCALAR.B.DML_TYPE  */
PL6.E3A0      #005=Z9EB$DML_STATEMENT File=Z9EB.:Z8A6TSI                         SAT 08/09/97 13:50 Page:567

  17937 19 011675   011713 710000 19                 TRA     s:17947

     3229    17938
     3230    17939    3               CASE( ELSE );

     3231    17940    3                   CALL Z8AE$ERROR(%E$CURRENCY_ERROR,

  17940 19 011676   200164 236100                    LDQ     NAME$,,AUTO
        19 011677   000006 036003                    ADLQ    6,DU
        19 011700   200244 756100                    STQ     OFFSET+4,,AUTO
        19 011701   200164 236100                    LDQ     NAME$,,AUTO
        19 011702   000005 036003                    ADLQ    5,DU
        19 011703   000077 235000 20                 LDA     63
        19 011704   200242 757100                    STAQ    OFFSET+2,,AUTO
        19 011705   200242 630500                    EPPR0   OFFSET+2,,AUTO
        19 011706   000004 631400 20                 EPPR1   4
        19 011707   000000 701000 xent               TSX1    Z8AE$ERROR
        19 011710   000000 011000                    NOP     0

     3232    17941    3                                   NAME$ -> LX_ITEM.LINE,
     3233    17942    3                                   NAME$ -> LX_ITEM.COLUMN);
     3234    17943    3                   ERROR_FLAG = %TRUE;

  17943 19 011711   400000 236003                    LDQ     -131072,DU
        19 011712   200213 756100                    STQ     ERROR_FLAG,,AUTO

     3235    17944
     3236    17945    3           END;                  /*V* CASE( NAME_ST$ -> SCALAR.ID ) */

     3237    17946
     3238    17947    2           IF NAME_ST$ -> SCALAR.B.DML_RVA = %FALSE   THEN

  17947 19 011713   200165 470500                    LDP0    NAME_ST$,,AUTO
        19 011714   000003 236100                    LDQ     3,,PR0
        19 011715   002000 316007                    CANQ    1024,DL
        19 011716   011727 601000 19                 TNZ     s:17951
PL6.E3A0      #005=Z9EB$DML_STATEMENT File=Z9EB.:Z8A6TSI                         SAT 08/09/97 13:50 Page:568

     3239    17948    2               CALL Z9EB$BUILD_RVA_TABLE(NAME_ST$,RVA_TYPE);

  17948 19 011717   200147 631500                    EPPR1   RVA_TYPE,,AUTO
        19 011720   200243 451500                    STP1    OFFSET+3,,AUTO
        19 011721   200165 633500                    EPPR3   NAME_ST$,,AUTO
        19 011722   200242 453500                    STP3    OFFSET+2,,AUTO
        19 011723   200242 630500                    EPPR0   OFFSET+2,,AUTO
        19 011724   000002 631400 20                 EPPR1   2
        19 011725   000000 701000 xent               TSX1    Z9EB$BUILD_RVA_TABLE
        19 011726   000000 011000                    NOP     0

     3240    17949
     3241    17950    2         END;                           /*V*  ELSE   DO  */

     3242    17951    1       IF IDENT$ -> LX_ITEM.B.ERROR  THEN

  17951 19 011727   200203 470500                    LDP0    IDENT$,,AUTO
        19 011730   000000 236100                    LDQ     0,,PR0
        19 011731   400000 316007                    CANQ    -131072,DL
        19 011732   011736 600000 19                 TZE     s:17958

     3243    17952    1           ERROR_FLAG = %TRUE;

  17952 19 011733   400000 236003                    LDQ     -131072,DU
        19 011734   200213 756100                    STQ     ERROR_FLAG,,AUTO
        19 011735   012063 710000 19                 TRA     s:17997

     3244    17953    1       ELSE
     3245    17954    2         DO;

     3246    17955
     3247    17956                %FISH(TRIAD = IDENT$ -> LX_ETT_ITEM.ETT$, RTN = IDENT_ST$);

  17958 19 011736   000001 236100                    LDQ     1,,PR0
        19 011737   200204 756100                    STQ     IDENT_ST$,,AUTO

PL6.E3A0      #005=Z9EB$DML_STATEMENT File=Z9EB.:Z8A6TSI                         SAT 08/09/97 13:50 Page:569
  17959 19 011740   200204 471500                    LDP1    IDENT_ST$,,AUTO
        19 011741   100000 220100                    LDX0    0,,PR1
        19 011742   000751 100003                    CMPX0   489,DU
        19 011743   011753 603000 19                 TRC     s:17964

  17960 19 011744   200204 470500                    LDP0    IDENT_ST$,,AUTO
        19 011745   000001 236100                    LDQ     1,,PR0
        19 011746   200204 756100                    STQ     IDENT_ST$,,AUTO

  17961 19 011747   200204 470500                    LDP0    IDENT_ST$,,AUTO
        19 011750   000000 220100                    LDX0    0,,PR0
        19 011751   000751 100003                    CMPX0   489,DU
        19 011752   011744 602000 19                 TNC     s:17960

     3248    17964    3           DO CASE( IDENT_ST$ -> SCALAR.B.DML_TYPE );

  17964 19 011753   200204 470500                    LDP0    IDENT_ST$,,AUTO
        19 011754   000003 236100                    LDQ     3,,PR0
        19 011755   000015 772000                    QRL     13
        19 011756   000007 376007                    ANQ     7,DL
        19 011757   000006 116007                    CMPQ    6,DL
        19 011760   011762 602006 19                 TNC     s:17964+7,QL
        19 011761   012012 710000 19                 TRA     s:17976
        19 011762   012012 710000 19                 TRA     s:17976
        19 011763   012012 710000 19                 TRA     s:17976
        19 011764   011770 710000 19                 TRA     s:17967
        19 011765   012012 710000 19                 TRA     s:17976
        19 011766   012012 710000 19                 TRA     s:17976
        19 011767   011770 710000 19                 TRA     s:17967

     3249    17965
     3250    17966    3               CASE( %DATA_BASE_KEY, %DIRECT_REFERENCE );

     3251    17967    3                   IF CODE = %DBACN      THEN

  17967 19 011770   040000 106500                    CMPC    fill='040'O
        19 011771   200166 000006                    ADSC9   CODE,,AUTO               cn=0,n=6
PL6.E3A0      #005=Z9EB$DML_STATEMENT File=Z9EB.:Z8A6TSI                         SAT 08/09/97 13:50 Page:570
        19 011772   000064 000006 18                 ADSC9   52                       cn=0,n=6
        19 011773   012063 601000 19                 TNZ     s:17997

     3252    17968    4                     DO;

     3253    17969    4                       CALL Z8AE$ERROR(%E$DB_KEY_CURRENCY_ERROR_2,

  17969 19 011774   200203 236100                    LDQ     IDENT$,,AUTO
        19 011775   000006 036003                    ADLQ    6,DU
        19 011776   200244 756100                    STQ     OFFSET+4,,AUTO
        19 011777   200203 236100                    LDQ     IDENT$,,AUTO
        19 012000   000005 036003                    ADLQ    5,DU
        19 012001   000101 235000 20                 LDA     65
        19 012002   200242 757100                    STAQ    OFFSET+2,,AUTO
        19 012003   200242 630500                    EPPR0   OFFSET+2,,AUTO
        19 012004   000004 631400 20                 EPPR1   4
        19 012005   000000 701000 xent               TSX1    Z8AE$ERROR
        19 012006   000000 011000                    NOP     0

     3254    17970    4                                       IDENT$ -> LX_ITEM.LINE,
     3255    17971    4                                       IDENT$ -> LX_ITEM.COLUMN);
     3256    17972    4                       ERROR_FLAG = %TRUE;

  17972 19 012007   400000 236003                    LDQ     -131072,DU
        19 012010   200213 756100                    STQ     ERROR_FLAG,,AUTO

     3257    17973    4                     END;

  17973 19 012011   012063 710000 19                 TRA     s:17997

     3258    17974
     3259    17975    3               CASE( ELSE );

     3260    17976    3                 IF CODE = %DBACC   THEN

  17976 19 012012   040000 106500                    CMPC    fill='040'O
        19 012013   200166 000006                    ADSC9   CODE,,AUTO               cn=0,n=6
PL6.E3A0      #005=Z9EB$DML_STATEMENT File=Z9EB.:Z8A6TSI                         SAT 08/09/97 13:50 Page:571
        19 012014   000062 000006 18                 ADSC9   50                       cn=0,n=6
        19 012015   012034 601000 19                 TNZ     s:17984

     3261    17977    4                   DO;

     3262    17978    4                      CALL Z8AE$ERROR(%E$DB_KEY_CURRENCY_ERROR_3,

  17978 19 012016   200203 236100                    LDQ     IDENT$,,AUTO
        19 012017   000006 036003                    ADLQ    6,DU
        19 012020   200244 756100                    STQ     OFFSET+4,,AUTO
        19 012021   200203 236100                    LDQ     IDENT$,,AUTO
        19 012022   000005 036003                    ADLQ    5,DU
        19 012023   000103 235000 20                 LDA     67
        19 012024   200242 757100                    STAQ    OFFSET+2,,AUTO
        19 012025   200242 630500                    EPPR0   OFFSET+2,,AUTO
        19 012026   000004 631400 20                 EPPR1   4
        19 012027   000000 701000 xent               TSX1    Z8AE$ERROR
        19 012030   000000 011000                    NOP     0

     3263    17979    4                                      IDENT$ -> LX_ITEM.LINE,
     3264    17980    4                                      IDENT$ -> LX_ITEM.COLUMN);
     3265    17981    4                      ERROR_FLAG = %TRUE;

  17981 19 012031   400000 236003                    LDQ     -131072,DU
        19 012032   200213 756100                    STQ     ERROR_FLAG,,AUTO

     3266    17982    4                   END;

  17982 19 012033   012057 710000 19                 TRA     s:17992

     3267    17983    3                  ELSE
     3268    17984    3                   IF ( IDENT_ST$ -> SCALAR.TYPE ~= %TYA )  OR

  17984 19 012034   000002 220100                    LDX0    2,,PR0
        19 012035   000010 100003                    CMPX0   8,DU
        19 012036   012042 601000 19                 TNZ     s:17987
        19 012037   000003 236100                    LDQ     3,,PR0
PL6.E3A0      #005=Z9EB$DML_STATEMENT File=Z9EB.:Z8A6TSI                         SAT 08/09/97 13:50 Page:572
        19 012040   010000 316003                    CANQ    4096,DU
        19 012041   012057 601000 19                 TNZ     s:17992

     3269    17985    3                      ( IDENT_ST$ -> SCALAR.B.ELEMENTARY = %FALSE )  THEN
     3270    17986    4                     DO;

     3271    17987    4                       CALL Z8AE$ERROR(%E$ELEMENTARY_CURRENCY_ERROR,

  17987 19 012042   200203 236100                    LDQ     IDENT$,,AUTO
        19 012043   000006 036003                    ADLQ    6,DU
        19 012044   200244 756100                    STQ     OFFSET+4,,AUTO
        19 012045   200203 236100                    LDQ     IDENT$,,AUTO
        19 012046   000005 036003                    ADLQ    5,DU
        19 012047   000105 235000 20                 LDA     69
        19 012050   200242 757100                    STAQ    OFFSET+2,,AUTO
        19 012051   200242 630500                    EPPR0   OFFSET+2,,AUTO
        19 012052   000004 631400 20                 EPPR1   4
        19 012053   000000 701000 xent               TSX1    Z8AE$ERROR
        19 012054   000000 011000                    NOP     0

     3272    17988    4                                       IDENT$ -> LX_ITEM.LINE,
     3273    17989    4                                       IDENT$ -> LX_ITEM.COLUMN);
     3274    17990    4                       ERROR_FLAG = %TRUE;

  17990 19 012055   400000 236003                    LDQ     -131072,DU
        19 012056   200213 756100                    STQ     ERROR_FLAG,,AUTO

     3275    17991    4                     END;

     3276    17992    3                   CURRENCY_CONST.LENGTH = IDENT_ST$ -> SCALAR.ADSC.N;

  17992 19 012057   200204 470500                    LDP0    IDENT_ST$,,AUTO
        19 012060   000001 720100                    LXL0    1,,PR0
        19 012061   007777 360003                    ANX0    4095,DU
        19 012062   200176 440100                    SXL0    CONST_WORD,,AUTO

     3277    17993
PL6.E3A0      #005=Z9EB$DML_STATEMENT File=Z9EB.:Z8A6TSI                         SAT 08/09/97 13:50 Page:573
     3278    17994    3           END;               /*V*  CASE ( IDENT_ST$ -> SCALAR.B.DML_TYPE  */

     3279    17995    2         END;

     3280    17996
     3281    17997    1       IF ERROR_FLAG = %TRUE            THEN

  17997 19 012063   200213 234100                    SZN     ERROR_FLAG,,AUTO
        19 012064   012066 605000 19                 TPL     s:18000

     3282    17998    1           RETURN;

  17998 19 012065   000000 702200 xent               TSX2  ! X66_ARET

     3283    17999
     3284    18000    1       CALL Z8EU$CREATE_IDENTIFIER_FROM_ST(O1COM.DML_IA$,ADDR(IA_LX_ITEM));

  18000 19 012066   200006 630500                    EPPR0   IA_LX_ITEM,,AUTO
        19 012067   200242 450500                    STP0    OFFSET+2,,AUTO
        19 012070   200242 631500                    EPPR1   OFFSET+2,,AUTO
        19 012071   200245 451500                    STP1    OFFSET+5,,AUTO
        19 012072   000013 236000 20                 LDQ     11
        19 012073   200244 756100                    STQ     OFFSET+4,,AUTO
        19 012074   200244 630500                    EPPR0   OFFSET+4,,AUTO
        19 012075   000002 631400 20                 EPPR1   2
        19 012076   000000 701000 xent               TSX1    Z8EU$CREATE_IDENTIFIER_FROM_ST
        19 012077   000000 011000                    NOP     0

     3285    18001
     3286    18002    1       CALL BUILD_CONST_PARM( CONST_WORD, ADDR(CW_LX_ITEM));

  18002 19 012100   200076 630500                    EPPR0   CW_LX_ITEM,,AUTO
        19 012101   200326 450500                    STP0    OFFSET+54,,AUTO
        19 012102   200326 631500                    EPPR1   OFFSET+54,,AUTO
        19 012103   200236 451500                    STP1    PTR$+1,,AUTO
        19 012104   200176 633500                    EPPR3   CONST_WORD,,AUTO
        19 012105   200235 453500                    STP3    @ITEM$+1,,AUTO
PL6.E3A0      #005=Z9EB$DML_STATEMENT File=Z9EB.:Z8A6TSI                         SAT 08/09/97 13:50 Page:574
        19 012106   000167 701000 19                 TSX1    BUILD_CONST_PARM
        19 012107   000000 011000                    NOP     0

     3287    18003    1       ADDR(IA_LX_ITEM) -> LX_ITEM.LINK = ADDR(CW_LX_ITEM);

  18003 19 012110   200076 630500                    EPPR0   CW_LX_ITEM,,AUTO
        19 012111   200015 450500                    STP0    IA_LX_ITEM+7,,AUTO

     3288    18004
     3289    18005    1       ADDR(CW_LX_ITEM) -> LX_ITEM.LINK = IDENT$;

  18005 19 012112   200203 236100                    LDQ     IDENT$,,AUTO
        19 012113   200105 756100                    STQ     CW_LX_ITEM+7,,AUTO

     3290    18006
     3291    18007    1       IF ( OPTION_WORD = %RSV_WRD_REALM_NAME ) AND (CURRENCY_CONST.CURRENCY = %
             18007                DB_KEY_CURRENCY) THEN

  18007 19 012114   200174 235100                    LDA     OPTION_WORD,,AUTO
        19 012115   000551 115007                    CMPA    361,DL
        19 012116   012135 601000 19                 TNZ     s:18010
        19 012117   200176 220100                    LDX0    CONST_WORD,,AUTO
        19 012120   000002 100003                    CMPX0   2,DU
        19 012121   012135 601000 19                 TNZ     s:18010

     3292    18008    1           CALL Z8EU$CREATE_IDENTIFIER_FROM_ST(NAME_ST$,ADDR(DD_LX_ITEM));

  18008 19 012122   200116 631500                    EPPR1   DD_LX_ITEM,,AUTO
        19 012123   200242 451500                    STP1    OFFSET+2,,AUTO
        19 012124   200242 633500                    EPPR3   OFFSET+2,,AUTO
        19 012125   200245 453500                    STP3    OFFSET+5,,AUTO
        19 012126   200165 634500                    EPPR4   NAME_ST$,,AUTO
        19 012127   200244 454500                    STP4    OFFSET+4,,AUTO
        19 012130   200244 630500                    EPPR0   OFFSET+4,,AUTO
        19 012131   000002 631400 20                 EPPR1   2
        19 012132   000000 701000 xent               TSX1    Z8EU$CREATE_IDENTIFIER_FROM_ST
        19 012133   000000 011000                    NOP     0
PL6.E3A0      #005=Z9EB$DML_STATEMENT File=Z9EB.:Z8A6TSI                         SAT 08/09/97 13:50 Page:575
        19 012134   012145 710000 19                 TRA     s:18012

     3293    18009    1       ELSE
     3294    18010    1         CALL BUILD_PARM( NAME_ST$, ADDR(DD_LX_ITEM));

  18010 19 012135   200116 631500                    EPPR1   DD_LX_ITEM,,AUTO
        19 012136   200327 451500                    STP1    OFFSET+55,,AUTO
        19 012137   200327 633500                    EPPR3   OFFSET+55,,AUTO
        19 012140   200236 453500                    STP3    PTR$+1,,AUTO
        19 012141   200165 634500                    EPPR4   NAME_ST$,,AUTO
        19 012142   200235 454500                    STP4    @ITEM$+1,,AUTO
        19 012143   000107 701000 19                 TSX1    BUILD_PARM
        19 012144   000000 011000                    NOP     0

     3295    18011
     3296    18012    1       IDENT$ -> LX_ITEM.LINK = ADDR(DD_LX_ITEM);

  18012 19 012145   200116 630500                    EPPR0   DD_LX_ITEM,,AUTO
        19 012146   200203 471500                    LDP1    IDENT$,,AUTO
        19 012147   100007 450500                    STP0    7,,PR1

     3297    18013    1       CALL Z9EB$BUILD_CODE(CODE, 4, ADDR(IA_LX_ITEM));

  18013 19 012150   200006 633500                    EPPR3   IA_LX_ITEM,,AUTO
        19 012151   200242 453500                    STP3    OFFSET+2,,AUTO
        19 012152   200242 630500                    EPPR0   OFFSET+2,,AUTO
        19 012153   200245 450500                    STP0    OFFSET+5,,AUTO
        19 012154   000107 236000 20                 LDQ     71
        19 012155   200244 756100                    STQ     OFFSET+4,,AUTO
        19 012156   200166 634500                    EPPR4   CODE,,AUTO
        19 012157   200243 454500                    STP4    OFFSET+3,,AUTO
        19 012160   200243 630500                    EPPR0   OFFSET+3,,AUTO
        19 012161   000004 631400 20                 EPPR1   4
        19 012162   000000 701000 xent               TSX1    Z9EB$BUILD_CODE
        19 012163   000000 011000                    NOP     0

     3298    18014
PL6.E3A0      #005=Z9EB$DML_STATEMENT File=Z9EB.:Z8A6TSI                         SAT 08/09/97 13:50 Page:576
     3299    18015    1       IDENT$ -> LX_ITEM.LINK = ADDR(NIL);

  18015 19 012164   000000 236000 20                 LDQ     0
        19 012165   200203 470500                    LDP0    IDENT$,,AUTO
        19 012166   000007 756100                    STQ     7,,PR0

     3300    18016    1       RETURN;

  18016 19 012167   000000 702200 xent               TSX2  ! X66_ARET

     3301    18017        %EJECT;
PL6.E3A0      #005=Z9EB$DML_STATEMENT File=Z9EB.:Z8A6TSI                         SAT 08/09/97 13:50 Page:577
     3302    18018        /*===============*/
     3303    18019    1     Z9EB$DB_GET_RECORD :  ENTRY   (RECORD_SELECTION$, RETENTION$);

  18019 19 012170   000000 700200 xent  Z9EB$DB_GET* TSX0  ! X66_AUTO_2
        19 012171   000334 000002                    ZERO    220,2

     3304    18020        /*===============*/
     3305    18021
     3306    18022    1       RVA_TYPE = %RVA_RECORD;

  18022 19 012172   000002 220003                    LDX0    2,DU
        19 012173   200147 740100                    STX0    RVA_TYPE,,AUTO

     3307    18023    1       IF RECORD_SELECTION$ = ADDR(NIL)  THEN

  18023 19 012174   200003 470500                    LDP0    @RECORD_SELECTION$,,AUTO
        19 012175   000000 236100                    LDQ     0,,PR0
        19 012176   000000 116000 20                 CMPQ    0
        19 012177   012217 601000 19                 TNZ     s:18035

     3308    18024    2         DO;

     3309    18025    2           IF O1COM.NILL_RVA = %FALSE  THEN

  18025 19 012200   000105 234000 xsym               SZN     O1COM+69
        19 012201   012214 604000 19                 TMI     s:18030

     3310    18026    3             DO;

     3311    18027    3               RVA_TYPE = %RVA_NULL;

  18027 19 012202   000004 221003                    LDX1    4,DU
        19 012203   200147 741100                    STX1    RVA_TYPE,,AUTO

     3312    18028    3               CALL Z9EB$BUILD_RVA_TABLE(RECORD_SELECTION$, RVA_TYPE);

  18028 19 012204   200147 631500                    EPPR1   RVA_TYPE,,AUTO
PL6.E3A0      #005=Z9EB$DML_STATEMENT File=Z9EB.:Z8A6TSI                         SAT 08/09/97 13:50 Page:578
        19 012205   200243 451500                    STP1    OFFSET+3,,AUTO
        19 012206   200003 236100                    LDQ     @RECORD_SELECTION$,,AUTO
        19 012207   200242 756100                    STQ     OFFSET+2,,AUTO
        19 012210   200242 630500                    EPPR0   OFFSET+2,,AUTO
        19 012211   000002 631400 20                 EPPR1   2
        19 012212   000000 701000 xent               TSX1    Z9EB$BUILD_RVA_TABLE
        19 012213   000000 011000                    NOP     0

     3313    18029    3             END;

     3314    18030    2           IDENT_ST$ = ADDR(NIL);

  18030 19 012214   000000 236000 20                 LDQ     0
        19 012215   200204 756100                    STQ     IDENT_ST$,,AUTO

     3315    18031    2         END;

  18031 19 012216   012276 710000 19                 TRA     s:18057

     3316    18032
     3317    18033    1       ELSE
     3318    18034    2         DO;

     3319    18035    2           IF RECORD_SELECTION$ -> LX_ITEM.B.ERROR       THEN

  18035 19 012217   000000 471500                    LDP1    0,,PR0
        19 012220   100000 236100                    LDQ     0,,PR1
        19 012221   400000 316007                    CANQ    -131072,DL
        19 012222   012224 600000 19                 TZE     s:18039

     3320    18036    2               RETURN;

  18036 19 012223   000000 702200 xent               TSX2  ! X66_ARET

     3321    18037                %FISH( TRIAD = RECORD_SELECTION$ -> LX_ETT_ITEM.ETT$, RTN = IDENT_ST$);

  18039 19 012224   100001 236100                    LDQ     1,,PR1
PL6.E3A0      #005=Z9EB$DML_STATEMENT File=Z9EB.:Z8A6TSI                         SAT 08/09/97 13:50 Page:579
        19 012225   200204 756100                    STQ     IDENT_ST$,,AUTO

  18040 19 012226   200204 471500                    LDP1    IDENT_ST$,,AUTO
        19 012227   100000 221100                    LDX1    0,,PR1
        19 012230   000751 101003                    CMPX1   489,DU
        19 012231   012241 603000 19                 TRC     s:18045

  18041 19 012232   200204 470500                    LDP0    IDENT_ST$,,AUTO
        19 012233   000001 236100                    LDQ     1,,PR0
        19 012234   200204 756100                    STQ     IDENT_ST$,,AUTO

  18042 19 012235   200204 470500                    LDP0    IDENT_ST$,,AUTO
        19 012236   000000 220100                    LDX0    0,,PR0
        19 012237   000751 100003                    CMPX0   489,DU
        19 012240   012232 602000 19                 TNC     s:18041

     3322    18045    2           IF IDENT_ST$ -> SCALAR.B.DML_TYPE ~= %RECORD    THEN

  18045 19 012241   200204 470500                    LDP0    IDENT_ST$,,AUTO
        19 012242   000003 236100                    LDQ     3,,PR0
        19 012243   160000 376007                    ANQ     57344,DL
        19 012244   060000 116007                    CMPQ    24576,DL
        19 012245   012263 600000 19                 TZE     s:18052

     3323    18046    3             DO;

     3324    18047    3               CALL Z8AE$ERROR(%E$ITEM_NOT_A_RECORD,

  18047 19 012246   200003 471500                    LDP1    @RECORD_SELECTION$,,AUTO
        19 012247   100000 473500                    LDP3    0,,PR1
        19 012250   300006 634500                    EPPR4   6,,PR3
        19 012251   200244 454500                    STP4    OFFSET+4,,AUTO
        19 012252   300005 635500                    EPPR5   5,,PR3
        19 012253   200243 455500                    STP5    OFFSET+3,,AUTO
        19 012254   000021 236000 20                 LDQ     17
        19 012255   200242 756100                    STQ     OFFSET+2,,AUTO
        19 012256   200242 630500                    EPPR0   OFFSET+2,,AUTO
PL6.E3A0      #005=Z9EB$DML_STATEMENT File=Z9EB.:Z8A6TSI                         SAT 08/09/97 13:50 Page:580
        19 012257   000004 631400 20                 EPPR1   4
        19 012260   000000 701000 xent               TSX1    Z8AE$ERROR
        19 012261   000000 011000                    NOP     0

     3325    18048    3                               RECORD_SELECTION$ -> LX_ITEM.LINE,
     3326    18049    3                               RECORD_SELECTION$ -> LX_ITEM.COLUMN);
     3327    18050    3               RETURN;

  18050 19 012262   000000 702200 xent               TSX2  ! X66_ARET

     3328    18051    3             END;
     3329    18052    2           IF IDENT_ST$ -> SCALAR.B.DML_RVA = %FALSE      THEN

  18052 19 012263   000003 236100                    LDQ     3,,PR0
        19 012264   002000 316007                    CANQ    1024,DL
        19 012265   012276 601000 19                 TNZ     s:18057

     3330    18053    2               CALL Z9EB$BUILD_RVA_TABLE(IDENT_ST$, RVA_TYPE);

  18053 19 012266   200147 631500                    EPPR1   RVA_TYPE,,AUTO
        19 012267   200243 451500                    STP1    OFFSET+3,,AUTO
        19 012270   200204 633500                    EPPR3   IDENT_ST$,,AUTO
        19 012271   200242 453500                    STP3    OFFSET+2,,AUTO
        19 012272   200242 630500                    EPPR0   OFFSET+2,,AUTO
        19 012273   000002 631400 20                 EPPR1   2
        19 012274   000000 701000 xent               TSX1    Z9EB$BUILD_RVA_TABLE
        19 012275   000000 011000                    NOP     0

     3331    18054
     3332    18055    2         END;

     3333    18056
     3334    18057    1       CALL Z8EU$CREATE_IDENTIFIER_FROM_ST(O1COM.DML_IA$, ADDR(IA_LX_ITEM));

  18057 19 012276   200006 630500                    EPPR0   IA_LX_ITEM,,AUTO
        19 012277   200242 450500                    STP0    OFFSET+2,,AUTO
        19 012300   200242 631500                    EPPR1   OFFSET+2,,AUTO
PL6.E3A0      #005=Z9EB$DML_STATEMENT File=Z9EB.:Z8A6TSI                         SAT 08/09/97 13:50 Page:581
        19 012301   200245 451500                    STP1    OFFSET+5,,AUTO
        19 012302   000013 236000 20                 LDQ     11
        19 012303   200244 756100                    STQ     OFFSET+4,,AUTO
        19 012304   200244 630500                    EPPR0   OFFSET+4,,AUTO
        19 012305   000002 631400 20                 EPPR1   2
        19 012306   000000 701000 xent               TSX1    Z8EU$CREATE_IDENTIFIER_FROM_ST
        19 012307   000000 011000                    NOP     0

     3335    18058    1       CALL BUILD_PARM (IDENT_ST$, ADDR(TEMP_LX_ITEM));

  18058 19 012310   200136 630500                    EPPR0   TEMP_LX_ITEM,,AUTO
        19 012311   200330 450500                    STP0    OFFSET+56,,AUTO
        19 012312   200330 631500                    EPPR1   OFFSET+56,,AUTO
        19 012313   200236 451500                    STP1    PTR$+1,,AUTO
        19 012314   200204 633500                    EPPR3   IDENT_ST$,,AUTO
        19 012315   200235 453500                    STP3    @ITEM$+1,,AUTO
        19 012316   000107 701000 19                 TSX1    BUILD_PARM
        19 012317   000000 011000                    NOP     0

     3336    18059    1       ADDR(IA_LX_ITEM) -> LX_ITEM.LINK = ADDR(TEMP_LX_ITEM);

  18059 19 012320   200136 630500                    EPPR0   TEMP_LX_ITEM,,AUTO
        19 012321   200015 450500                    STP0    IA_LX_ITEM+7,,AUTO

     3337    18060
     3338    18061    1       CALL Z9EB$BUILD_CODE(%DBGET,2,ADDR(IA_LX_ITEM));

  18061 19 012322   200006 631500                    EPPR1   IA_LX_ITEM,,AUTO
        19 012323   200242 451500                    STP1    OFFSET+2,,AUTO
        19 012324   200242 633500                    EPPR3   OFFSET+2,,AUTO
        19 012325   200245 453500                    STP3    OFFSET+5,,AUTO
        19 012326   000061 236000 20                 LDQ     49
        19 012327   200244 756100                    STQ     OFFSET+4,,AUTO
        19 012330   000110 236000 20                 LDQ     72
        19 012331   200243 756100                    STQ     OFFSET+3,,AUTO
        19 012332   200243 630500                    EPPR0   OFFSET+3,,AUTO
        19 012333   000004 631400 20                 EPPR1   4
PL6.E3A0      #005=Z9EB$DML_STATEMENT File=Z9EB.:Z8A6TSI                         SAT 08/09/97 13:50 Page:582
        19 012334   000000 701000 xent               TSX1    Z9EB$BUILD_CODE
        19 012335   000000 011000                    NOP     0

     3339    18062
     3340    18063    1       RETURN;

  18063 19 012336   000000 702200 xent               TSX2  ! X66_ARET

     3341    18064        %EJECT;
PL6.E3A0      #005=Z9EB$DML_STATEMENT File=Z9EB.:Z8A6TSI                         SAT 08/09/97 13:50 Page:583
     3342    18065        /*=================*/
     3343    18066    1     Z9EB$DB_GET_FIELD:  ENTRY (RECORD_SELECTION$, RETENTION$);

  18066 19 012337   000000 700200 xent  Z9EB$DB_GET* TSX0  ! X66_AUTO_2
        19 012340   000334 000002                    ZERO    220,2

     3344    18067        /*=================*/
     3345    18068
     3346    18069    1   LIST_HEAD$ = RECORD_SELECTION$;

  18069 19 012341   200003 470500                    LDP0    @RECORD_SELECTION$,,AUTO
        19 012342   000000 236100                    LDQ     0,,PR0
        19 012343   200171 756100                    STQ     LIST_HEAD$,,AUTO

     3347    18070    1   ARG_COUNT = 2;

  18070 19 012344   000002 235007                    LDA     2,DL
        19 012345   200146 755100                    STA     ARG_COUNT,,AUTO

     3348    18071    1   RVA_TYPE = %RVA_FIELD;

  18071 19 012346   000003 220003                    LDX0    3,DU
        19 012347   200147 740100                    STX0    RVA_TYPE,,AUTO

     3349    18072    1   LIST$ = LIST_HEAD$ -> LX_LIST.HEAD$;

  18072 19 012350   200171 471500                    LDP1    LIST_HEAD$,,AUTO
        19 012351   100004 236100                    LDQ     4,,PR1
        19 012352   200170 756100                    STQ     LIST$,,AUTO

     3350    18073    1       ERROR_FLAG = %FALSE;

  18073 19 012353   200213 450100                    STZ     ERROR_FLAG,,AUTO

     3351    18074
     3352    18075    2   DO WHILE LIST$ ~= ADDR(NIL);

PL6.E3A0      #005=Z9EB$DML_STATEMENT File=Z9EB.:Z8A6TSI                         SAT 08/09/97 13:50 Page:584
  18075 19 012354   012453 710000 19                 TRA     s:18108

     3353    18076
     3354    18077    2     IF LIST$ -> LX_ITEM.B.ERROR  THEN

  18077 19 012355   200170 470500                    LDP0    LIST$,,AUTO
        19 012356   000000 236100                    LDQ     0,,PR0
        19 012357   400000 316007                    CANQ    -131072,DL
        19 012360   012364 600000 19                 TZE     s:18083

     3355    18078    2        ERROR_FLAG = %TRUE;

  18078 19 012361   400000 236003                    LDQ     -131072,DU
        19 012362   200213 756100                    STQ     ERROR_FLAG,,AUTO
        19 012363   012450 710000 19                 TRA     s:18107

     3356    18079    2     ELSE
     3357    18080    3       DO;

     3358    18081            %FISH( TRIAD = LIST$ -> LX_ETT_ITEM.ETT$, RTN = IDENT_ST$);

  18083 19 012364   000001 236100                    LDQ     1,,PR0
        19 012365   200204 756100                    STQ     IDENT_ST$,,AUTO

  18084 19 012366   200204 471500                    LDP1    IDENT_ST$,,AUTO
        19 012367   100000 220100                    LDX0    0,,PR1
        19 012370   000751 100003                    CMPX0   489,DU
        19 012371   012401 603000 19                 TRC     s:18089

  18085 19 012372   200204 470500                    LDP0    IDENT_ST$,,AUTO
        19 012373   000001 236100                    LDQ     1,,PR0
        19 012374   200204 756100                    STQ     IDENT_ST$,,AUTO

  18086 19 012375   200204 470500                    LDP0    IDENT_ST$,,AUTO
        19 012376   000000 220100                    LDX0    0,,PR0
        19 012377   000751 100003                    CMPX0   489,DU
        19 012400   012372 602000 19                 TNC     s:18085
PL6.E3A0      #005=Z9EB$DML_STATEMENT File=Z9EB.:Z8A6TSI                         SAT 08/09/97 13:50 Page:585

     3359    18089    3       IF IDENT_ST$ -> SCALAR.B.DML_TYPE ~= %FIELD     AND

  18089 19 012401   200204 470500                    LDP0    IDENT_ST$,,AUTO
        19 012402   000003 236100                    LDQ     3,,PR0
        19 012403   160000 376007                    ANQ     57344,DL
        19 012404   020000 116007                    CMPQ    8192,DL
        19 012405   012426 600000 19                 TZE     s:18099
        19 012406   040000 116007                    CMPQ    16384,DL
        19 012407   012426 600000 19                 TZE     s:18099

     3360    18090    3             IDENT_ST$ -> SCALAR.B.DML_TYPE ~= %DATA_BASE_KEY    THEN
     3361    18091    4         DO;

     3362    18092    4           CALL Z8AE$ERROR(%E$ITEM_NOT_FIELD,

  18092 19 012410   200170 236100                    LDQ     LIST$,,AUTO
        19 012411   000006 036003                    ADLQ    6,DU
        19 012412   200244 756100                    STQ     OFFSET+4,,AUTO
        19 012413   200170 236100                    LDQ     LIST$,,AUTO
        19 012414   000005 036003                    ADLQ    5,DU
        19 012415   000052 235000 20                 LDA     42
        19 012416   200242 757100                    STAQ    OFFSET+2,,AUTO
        19 012417   200242 630500                    EPPR0   OFFSET+2,,AUTO
        19 012420   000004 631400 20                 EPPR1   4
        19 012421   000000 701000 xent               TSX1    Z8AE$ERROR
        19 012422   000000 011000                    NOP     0

     3363    18093    4                           LIST$ -> LX_ITEM.LINE,
     3364    18094    4                           LIST$ -> LX_ITEM.COLUMN);
     3365    18095    4           ERROR_FLAG = %TRUE;

  18095 19 012423   400000 236003                    LDQ     -131072,DU
        19 012424   200213 756100                    STQ     ERROR_FLAG,,AUTO

     3366    18096    4         END;

PL6.E3A0      #005=Z9EB$DML_STATEMENT File=Z9EB.:Z8A6TSI                         SAT 08/09/97 13:50 Page:586
  18096 19 012425   012450 710000 19                 TRA     s:18107

     3367    18097    3       ELSE
     3368    18098    4         DO;

     3369    18099    4            IF IDENT_ST$ -> SCALAR.B.DML_RVA = %FALSE           THEN

  18099 19 012426   000003 236100                    LDQ     3,,PR0
        19 012427   002000 316007                    CANQ    1024,DL
        19 012430   012441 601000 19                 TNZ     s:18102

     3370    18100    4                CALL Z9EB$BUILD_RVA_TABLE(IDENT_ST$,RVA_TYPE);

  18100 19 012431   200147 631500                    EPPR1   RVA_TYPE,,AUTO
        19 012432   200243 451500                    STP1    OFFSET+3,,AUTO
        19 012433   200204 633500                    EPPR3   IDENT_ST$,,AUTO
        19 012434   200242 453500                    STP3    OFFSET+2,,AUTO
        19 012435   200242 630500                    EPPR0   OFFSET+2,,AUTO
        19 012436   000002 631400 20                 EPPR1   2
        19 012437   000000 701000 xent               TSX1    Z9EB$BUILD_RVA_TABLE
        19 012440   000000 011000                    NOP     0

     3371    18101
     3372    18102    4           CALL BUILD_ETT_PARM(IDENT_ST$, LIST$);

  18102 19 012441   200170 630500                    EPPR0   LIST$,,AUTO
        19 012442   200234 450500                    STP0    CONST_WORD+1,,AUTO
        19 012443   200204 631500                    EPPR1   IDENT_ST$,,AUTO
        19 012444   200233 451500                    STP1    RVA_TYPE+3,,AUTO
        19 012445   000251 701000 19                 TSX1    BUILD_ETT_PARM
        19 012446   000000 011000                    NOP     0

     3373    18103
     3374    18104    4           ARG_COUNT = ARG_COUNT + 1;

  18104 19 012447   200146 054100                    AOS     ARG_COUNT,,AUTO

PL6.E3A0      #005=Z9EB$DML_STATEMENT File=Z9EB.:Z8A6TSI                         SAT 08/09/97 13:50 Page:587
     3375    18105    4         END;

     3376    18106    3       END;

     3377    18107    2       LIST$ = LIST$ -> LX_ITEM.LINK;

  18107 19 012450   200170 470500                    LDP0    LIST$,,AUTO
        19 012451   000007 236100                    LDQ     7,,PR0
        19 012452   200170 756100                    STQ     LIST$,,AUTO

     3378    18108    2   END;

  18108 19 012453   000000 116000 20                 CMPQ    0
        19 012454   012355 601000 19                 TNZ     s:18077

     3379    18109
     3380    18110    1       IF ERROR_FLAG = %TRUE            THEN

  18110 19 012455   200213 234100                    SZN     ERROR_FLAG,,AUTO
        19 012456   012460 605000 19                 TPL     s:18113

     3381    18111    1           RETURN;

  18111 19 012457   000000 702200 xent               TSX2  ! X66_ARET

     3382    18112
     3383    18113    1       FIELD_LIST.ARGUMENTS = ARG_COUNT -2;

  18113 19 012460   200146 720100                    LXL0    ARG_COUNT,,AUTO
        19 012461   777776 621010                    EAX1    -2,X0
        19 012462   200176 741100                    STX1    CONST_WORD,,AUTO

     3384    18114    1       CALL BUILD_CONST_PARM (CONST_WORD, ADDR(TEMP_LX_ITEM));

  18114 19 012463   200136 630500                    EPPR0   TEMP_LX_ITEM,,AUTO
        19 012464   200331 450500                    STP0    OFFSET+57,,AUTO
        19 012465   200331 631500                    EPPR1   OFFSET+57,,AUTO
PL6.E3A0      #005=Z9EB$DML_STATEMENT File=Z9EB.:Z8A6TSI                         SAT 08/09/97 13:50 Page:588
        19 012466   200236 451500                    STP1    PTR$+1,,AUTO
        19 012467   200176 633500                    EPPR3   CONST_WORD,,AUTO
        19 012470   200235 453500                    STP3    @ITEM$+1,,AUTO
        19 012471   000167 701000 19                 TSX1    BUILD_CONST_PARM
        19 012472   000000 011000                    NOP     0

     3385    18115    1       CALL Z8EU$CREATE_IDENTIFIER_FROM_ST( O1COM.DML_IA$,ADDR(IA_LX_ITEM) );

  18115 19 012473   200006 630500                    EPPR0   IA_LX_ITEM,,AUTO
        19 012474   200242 450500                    STP0    OFFSET+2,,AUTO
        19 012475   200242 631500                    EPPR1   OFFSET+2,,AUTO
        19 012476   200245 451500                    STP1    OFFSET+5,,AUTO
        19 012477   000013 236000 20                 LDQ     11
        19 012500   200244 756100                    STQ     OFFSET+4,,AUTO
        19 012501   200244 630500                    EPPR0   OFFSET+4,,AUTO
        19 012502   000002 631400 20                 EPPR1   2
        19 012503   000000 701000 xent               TSX1    Z8EU$CREATE_IDENTIFIER_FROM_ST
        19 012504   000000 011000                    NOP     0

     3386    18116
     3387    18117    1       ADDR(IA_LX_ITEM) -> LX_ITEM.LINK = ADDR( TEMP_LX_ITEM);

  18117 19 012505   200136 630500                    EPPR0   TEMP_LX_ITEM,,AUTO
        19 012506   200015 450500                    STP0    IA_LX_ITEM+7,,AUTO

     3388    18118    1       ADDR( TEMP_LX_ITEM) -> LX_ITEM.LINK = LIST_HEAD$ -> LX_LIST.HEAD$;

  18118 19 012507   200171 471500                    LDP1    LIST_HEAD$,,AUTO
        19 012510   100004 236100                    LDQ     4,,PR1
        19 012511   200145 756100                    STQ     TEMP_LX_ITEM+7,,AUTO

     3389    18119
     3390    18120    1       CALL Z9EB$BUILD_CODE(%DBGTF,ARG_COUNT,ADDR(IA_LX_ITEM));

  18120 19 012512   200006 633500                    EPPR3   IA_LX_ITEM,,AUTO
        19 012513   200242 453500                    STP3    OFFSET+2,,AUTO
        19 012514   200242 634500                    EPPR4   OFFSET+2,,AUTO
PL6.E3A0      #005=Z9EB$DML_STATEMENT File=Z9EB.:Z8A6TSI                         SAT 08/09/97 13:50 Page:589
        19 012515   200245 454500                    STP4    OFFSET+5,,AUTO
        19 012516   200146 635500                    EPPR5   ARG_COUNT,,AUTO
        19 012517   200244 455500                    STP5    OFFSET+4,,AUTO
        19 012520   000111 236000 20                 LDQ     73
        19 012521   200243 756100                    STQ     OFFSET+3,,AUTO
        19 012522   200243 630500                    EPPR0   OFFSET+3,,AUTO
        19 012523   000004 631400 20                 EPPR1   4
        19 012524   000000 701000 xent               TSX1    Z9EB$BUILD_CODE
        19 012525   000000 011000                    NOP     0

     3391    18121
     3392    18122    1   RETURN;

  18122 19 012526   000000 702200 xent               TSX2  ! X66_ARET

     3393    18123        %EJECT;
PL6.E3A0      #005=Z9EB$DML_STATEMENT File=Z9EB.:Z8A6TSI                         SAT 08/09/97 13:50 Page:590
     3394    18124        /*===========*/
     3395    18125    1     Z9EB$FINISH :     ENTRY (RECORD_SELECTION$, RETENTION$);

  18125 19 012527   000000 700200 xent  Z9EB$FINISH  TSX0  ! X66_AUTO_2
        19 012530   000334 000002                    ZERO    220,2

     3396    18126        /*===========*/
     3397    18127
     3398    18128    1       CONST_WORD = 0;

  18128 19 012531   200176 450100                    STZ     CONST_WORD,,AUTO

     3399    18129    1       PARM_LIST$ = ADDR(NIL);

  18129 19 012532   000000 236000 20                 LDQ     0
        19 012533   200212 756100                    STQ     PARM_LIST$,,AUTO

     3400    18130    1       COUNT = 0;

  18130 19 012534   000000 220003                    LDX0    0,DU
        19 012535   200211 740100                    STX0    COUNT,,AUTO

     3401    18131    1       RVA_TYPE = %RVA_REALM;

  18131 19 012536   200147 740100                    STX0    RVA_TYPE,,AUTO

     3402    18132    1       ERROR_FLAG = %FALSE;

  18132 19 012537   200213 450100                    STZ     ERROR_FLAG,,AUTO

     3403    18133
     3404    18134    1       IF RECORD_SELECTION$ ~= ADDR(NIL)            THEN

  18134 19 012540   200003 470500                    LDP0    @RECORD_SELECTION$,,AUTO
        19 012541   000000 236100                    LDQ     0,,PR0
        19 012542   000000 116000 20                 CMPQ    0
        19 012543   012650 600000 19                 TZE     s:18175
PL6.E3A0      #005=Z9EB$DML_STATEMENT File=Z9EB.:Z8A6TSI                         SAT 08/09/97 13:50 Page:591

     3405    18135    2         DO;

     3406    18136    2           LIST$ = RECORD_SELECTION$ -> LX_LIST.HEAD$;

  18136 19 012544   000000 471500                    LDP1    0,,PR0
        19 012545   100004 236100                    LDQ     4,,PR1
        19 012546   200170 756100                    STQ     LIST$,,AUTO

     3407    18137    2           PARM_LIST$ = LIST$;

  18137 19 012547   200212 756100                    STQ     PARM_LIST$,,AUTO

     3408    18138
     3409    18139    3           DO WHILE LIST$ ~= ADDR(NIL);

  18139 19 012550   012646 710000 19                 TRA     s:18171

     3410    18140    3             IF LIST$ -> LX_ITEM.B.ERROR    THEN

  18140 19 012551   200170 470500                    LDP0    LIST$,,AUTO
        19 012552   000000 236100                    LDQ     0,,PR0
        19 012553   400000 316007                    CANQ    -131072,DL
        19 012554   012560 600000 19                 TZE     s:18146

     3411    18141    3               ERROR_FLAG = %TRUE;

  18141 19 012555   400000 236003                    LDQ     -131072,DU
        19 012556   200213 756100                    STQ     ERROR_FLAG,,AUTO
        19 012557   012643 710000 19                 TRA     s:18169

     3412    18142    3             ELSE
     3413    18143    4              DO;

     3414    18144                    %FISH(TRIAD = LIST$ -> LX_ETT_ITEM.ETT$, RTN = IDENT_ST$);

  18146 19 012560   000001 236100                    LDQ     1,,PR0
PL6.E3A0      #005=Z9EB$DML_STATEMENT File=Z9EB.:Z8A6TSI                         SAT 08/09/97 13:50 Page:592
        19 012561   200204 756100                    STQ     IDENT_ST$,,AUTO

  18147 19 012562   200204 471500                    LDP1    IDENT_ST$,,AUTO
        19 012563   100000 220100                    LDX0    0,,PR1
        19 012564   000751 100003                    CMPX0   489,DU
        19 012565   012575 603000 19                 TRC     s:18152

  18148 19 012566   200204 470500                    LDP0    IDENT_ST$,,AUTO
        19 012567   000001 236100                    LDQ     1,,PR0
        19 012570   200204 756100                    STQ     IDENT_ST$,,AUTO

  18149 19 012571   200204 470500                    LDP0    IDENT_ST$,,AUTO
        19 012572   000000 220100                    LDX0    0,,PR0
        19 012573   000751 100003                    CMPX0   489,DU
        19 012574   012566 602000 19                 TNC     s:18148

     3415    18152    4               IF IDENT_ST$ -> DML_ITEM.ID ~= %REALM    THEN

  18152 19 012575   200204 470500                    LDP0    IDENT_ST$,,AUTO
        19 012576   000000 220100                    LDX0    0,,PR0
        19 012577   000752 100003                    CMPX0   490,DU
        19 012600   012617 600000 19                 TZE     s:18161

     3416    18153    5                 DO;

     3417    18154    5                   CALL Z8AE$ERROR(%E$ITEM_NOT_REALM,

  18154 19 012601   200170 236100                    LDQ     LIST$,,AUTO
        19 012602   000006 036003                    ADLQ    6,DU
        19 012603   200244 756100                    STQ     OFFSET+4,,AUTO
        19 012604   200170 236100                    LDQ     LIST$,,AUTO
        19 012605   000005 036003                    ADLQ    5,DU
        19 012606   000043 235000 20                 LDA     35
        19 012607   200242 757100                    STAQ    OFFSET+2,,AUTO
        19 012610   200242 630500                    EPPR0   OFFSET+2,,AUTO
        19 012611   000004 631400 20                 EPPR1   4
        19 012612   000000 701000 xent               TSX1    Z8AE$ERROR
PL6.E3A0      #005=Z9EB$DML_STATEMENT File=Z9EB.:Z8A6TSI                         SAT 08/09/97 13:50 Page:593
        19 012613   000000 011000                    NOP     0

     3418    18155    5                                   LIST$ -> LX_ITEM.LINE,
     3419    18156    5                                   LIST$ -> LX_ITEM.COLUMN);
     3420    18157    5                   ERROR_FLAG = %TRUE;

  18157 19 012614   400000 236003                    LDQ     -131072,DU
        19 012615   200213 756100                    STQ     ERROR_FLAG,,AUTO

     3421    18158    5                 END;

  18158 19 012616   012643 710000 19                 TRA     s:18169

     3422    18159    4               ELSE
     3423    18160    5                 DO;

     3424    18161    5                   IF IDENT_ST$ -> DML_ITEM.B.DML_RVA = %FALSE   THEN

  18161 19 012617   000003 236100                    LDQ     3,,PR0
        19 012620   002000 316007                    CANQ    1024,DL
        19 012621   012632 601000 19                 TNZ     s:18164

     3425    18162    5                       CALL Z9EB$BUILD_RVA_TABLE(IDENT_ST$,RVA_TYPE);

  18162 19 012622   200147 631500                    EPPR1   RVA_TYPE,,AUTO
        19 012623   200243 451500                    STP1    OFFSET+3,,AUTO
        19 012624   200204 633500                    EPPR3   IDENT_ST$,,AUTO
        19 012625   200242 453500                    STP3    OFFSET+2,,AUTO
        19 012626   200242 630500                    EPPR0   OFFSET+2,,AUTO
        19 012627   000002 631400 20                 EPPR1   2
        19 012630   000000 701000 xent               TSX1    Z9EB$BUILD_RVA_TABLE
        19 012631   000000 011000                    NOP     0

     3426    18163
     3427    18164    5                   CALL BUILD_ETT_PARM(IDENT_ST$, LIST$);

  18164 19 012632   200170 630500                    EPPR0   LIST$,,AUTO
PL6.E3A0      #005=Z9EB$DML_STATEMENT File=Z9EB.:Z8A6TSI                         SAT 08/09/97 13:50 Page:594
        19 012633   200234 450500                    STP0    CONST_WORD+1,,AUTO
        19 012634   200204 631500                    EPPR1   IDENT_ST$,,AUTO
        19 012635   200233 451500                    STP1    RVA_TYPE+3,,AUTO
        19 012636   000251 701000 19                 TSX1    BUILD_ETT_PARM
        19 012637   000000 011000                    NOP     0

     3428    18165
     3429    18166    5                   COUNT = COUNT + 1;

  18166 19 012640   200211 220100                    LDX0    COUNT,,AUTO
        19 012641   000001 621010                    EAX1    1,X0
        19 012642   200211 741100                    STX1    COUNT,,AUTO

     3430    18167    5                 END;

     3431    18168    4              END;

     3432    18169    3             LIST$ = LIST$ -> LX_ITEM.LINK;

  18169 19 012643   200170 470500                    LDP0    LIST$,,AUTO
        19 012644   000007 236100                    LDQ     7,,PR0
        19 012645   200170 756100                    STQ     LIST$,,AUTO

     3433    18170
     3434    18171    3           END;    /*V*  DO  WHILE  LIST ~= ADDR(NIL)   */

  18171 19 012646   000000 116000 20                 CMPQ    0
        19 012647   012551 601000 19                 TNZ     s:18140

     3435    18172
     3436    18173    2         END;      /*V* IF LIST$ ~= ADDR(NIL)           */

     3437    18174
     3438    18175    1       IF ERROR_FLAG = %TRUE         THEN

  18175 19 012650   200213 234100                    SZN     ERROR_FLAG,,AUTO
        19 012651   012653 605000 19                 TPL     s:18177
PL6.E3A0      #005=Z9EB$DML_STATEMENT File=Z9EB.:Z8A6TSI                         SAT 08/09/97 13:50 Page:595

     3439    18176    1           RETURN;

  18176 19 012652   000000 702200 xent               TSX2  ! X66_ARET

     3440    18177    1       CALL Z8EU$CREATE_IDENTIFIER_FROM_ST(O1COM.DML_IA$,ADDR(IA_LX_ITEM));

  18177 19 012653   200006 630500                    EPPR0   IA_LX_ITEM,,AUTO
        19 012654   200242 450500                    STP0    OFFSET+2,,AUTO
        19 012655   200242 631500                    EPPR1   OFFSET+2,,AUTO
        19 012656   200245 451500                    STP1    OFFSET+5,,AUTO
        19 012657   000013 236000 20                 LDQ     11
        19 012660   200244 756100                    STQ     OFFSET+4,,AUTO
        19 012661   200244 630500                    EPPR0   OFFSET+4,,AUTO
        19 012662   000002 631400 20                 EPPR1   2
        19 012663   000000 701000 xent               TSX1    Z8EU$CREATE_IDENTIFIER_FROM_ST
        19 012664   000000 011000                    NOP     0

     3441    18178
     3442    18179    1       FIELD_LIST.ARGUMENTS = COUNT;

  18179 19 012665   200211 220100                    LDX0    COUNT,,AUTO
        19 012666   200176 740100                    STX0    CONST_WORD,,AUTO

     3443    18180    1       CALL BUILD_CONST_PARM( CONST_WORD, ADDR(TEMP_LX_ITEM));

  18180 19 012667   200136 630500                    EPPR0   TEMP_LX_ITEM,,AUTO
        19 012670   200332 450500                    STP0    OFFSET+58,,AUTO
        19 012671   200332 631500                    EPPR1   OFFSET+58,,AUTO
        19 012672   200236 451500                    STP1    PTR$+1,,AUTO
        19 012673   200176 633500                    EPPR3   CONST_WORD,,AUTO
        19 012674   200235 453500                    STP3    @ITEM$+1,,AUTO
        19 012675   000167 701000 19                 TSX1    BUILD_CONST_PARM
        19 012676   000000 011000                    NOP     0

     3444    18181
     3445    18182    1       ADDR(IA_LX_ITEM) -> LX_ITEM.LINK = ADDR(TEMP_LX_ITEM);
PL6.E3A0      #005=Z9EB$DML_STATEMENT File=Z9EB.:Z8A6TSI                         SAT 08/09/97 13:50 Page:596

  18182 19 012677   200136 630500                    EPPR0   TEMP_LX_ITEM,,AUTO
        19 012700   200015 450500                    STP0    IA_LX_ITEM+7,,AUTO

     3446    18183    1       ADDR(TEMP_LX_ITEM) -> LX_ITEM.LINK = PARM_LIST$;

  18183 19 012701   200212 236100                    LDQ     PARM_LIST$,,AUTO
        19 012702   200145 756100                    STQ     TEMP_LX_ITEM+7,,AUTO

     3447    18184    1       ARG_COUNT = 2 + COUNT;

  18184 19 012703   200211 235100                    LDA     COUNT,,AUTO
        19 012704   000022 771000                    ARL     18
        19 012705   000002 035007                    ADLA    2,DL
        19 012706   200146 755100                    STA     ARG_COUNT,,AUTO

     3448    18185
     3449    18186    1       CALL Z9EB$BUILD_CODE(%DBFIN,ARG_COUNT,ADDR(IA_LX_ITEM));

  18186 19 012707   200006 631500                    EPPR1   IA_LX_ITEM,,AUTO
        19 012710   200242 451500                    STP1    OFFSET+2,,AUTO
        19 012711   200242 633500                    EPPR3   OFFSET+2,,AUTO
        19 012712   200245 453500                    STP3    OFFSET+5,,AUTO
        19 012713   200146 634500                    EPPR4   ARG_COUNT,,AUTO
        19 012714   200244 454500                    STP4    OFFSET+4,,AUTO
        19 012715   000112 236000 20                 LDQ     74
        19 012716   200243 756100                    STQ     OFFSET+3,,AUTO
        19 012717   200243 630500                    EPPR0   OFFSET+3,,AUTO
        19 012720   000004 631400 20                 EPPR1   4
        19 012721   000000 701000 xent               TSX1    Z9EB$BUILD_CODE
        19 012722   000000 011000                    NOP     0

     3450    18187
     3451    18188    1       RETURN;

  18188 19 012723   000000 702200 xent               TSX2  ! X66_ARET
     3452    18189
PL6.E3A0      #005=Z9EB$DML_STATEMENT File=Z9EB.:Z8A6TSI                         SAT 08/09/97 13:50 Page:597
     3453    18190    1   END Z9EB$DML_STATEMENT;
     3454    18191        %EJECT;
PL6.E3A0      #005=Z9EB$DML_STATEMENT File=Z9EB.:Z8A6TSI                         SAT 08/09/97 13:50 Page:598

PL6.E3A0      #005=Z9EB$DML_STATEMENT File=Z9EB.:Z8A6TSI                         SAT 08/09/97 13:50 Page:599
--  Include file information  --

   Z8A_QLT.:Z8A6TOU  cannot be made into a system file and is referenced.
   Z8E_WINDOW.:Z8A6TOU  is referenced.
   Z8A_ERR_NUMS.:Z8A6TOU  is referenced.
   Z8A_SRCH.:Z8A6TOU  cannot be made into a system file and is referenced.
   Z8E_DML.:Z8A6TOU  is referenced.
   Z8A_LTS.:Z8A6TOU  cannot be made into a system file and is referenced.
   Z8A_ETT.:Z8A6TOU  cannot be made into a system file and is referenced.
   Z8A_TYPES.:Z8A6TOU  is referenced.
   Z8A_ST.:Z8A6TOU  cannot be made into a system file and is referenced.
   Z8E_O1COM.:Z8A6TOU  cannot be made into a system file and is referenced.
   Z8A_COMCOM.:Z8A6TOU  cannot be made into a system file and is referenced.
   Z8A_LEX_SYMB.:Z8A6TOU  cannot be made into a system file and is referenced.
   Z8E_STACKS.:Z8A6TOU  cannot be made into a system file and is referenced.
   X8A_COM_MACS.:X8A6TOU  is referenced.
   Z8A_NAMES.:Z8A6TOU  is referenced.
   Z8A_SUPP_MAC.:Z8A6TOU  is referenced.
   Z8A_DEFC.:Z8A6TOU  cannot be made into a system file and is referenced.
      No diagnostics issued in procedure Z9EB$DML_STATEMENT.
PL6.E3A0      #005=Z9EB$DML_STATEMENT File=Z9EB.:Z8A6TSI                         SAT 08/09/97 13:50 Page:600

 **** Variables and constants ****

  ****  Section 000 LblCom ITERATION

  ****  Scalars and arrays  ****
OctLoc.c.b A Datatyp(siz) R M Lvl/name                 OctLoc.c.b A Datatyp(siz) R M Lvl/name

     0-0-0/w SBIN              1 ITERATION

  ****  Section 001 LblCom LEX_SYMBOL

  ****  Scalars and arrays  ****
OctLoc.c.b A Datatyp(siz) R M Lvl/name                 OctLoc.c.b A Datatyp(siz) R M Lvl/name

     0-0-0/w STRC(3240)  r     1 LEX_SYMBOL                 0-0-0/w STRC(3240)        1 LEX_SYMBOL_WORDS

  ****  Section 002 LblCom CURRENT_LEX_SYMBOL$

  ****  Scalars and arrays  ****
OctLoc.c.b A Datatyp(siz) R M Lvl/name                 OctLoc.c.b A Datatyp(siz) R M Lvl/name

     0-0-0/w PTR         r     1 CURRENT_LEX_SYMBOL$

  ****  Section 003 LblCom TEMP_LEX_SYMBOL

  ****  Scalars and arrays  ****
OctLoc.c.b A Datatyp(siz) R M Lvl/name                 OctLoc.c.b A Datatyp(siz) R M Lvl/name

     0-0-0/w STRC(3240)        1 TEMP_LEX_SYMBOL

  ****  Section 004 LblCom TEMP_LEX_SYMBOL2

  ****  Scalars and arrays  ****
OctLoc.c.b A Datatyp(siz) R M Lvl/name                 OctLoc.c.b A Datatyp(siz) R M Lvl/name

     0-0-0/w STRC(3240)        1 TEMP_LEX_SYMBOL2

PL6.E3A0      #005=Z9EB$DML_STATEMENT File=Z9EB.:Z8A6TSI                         SAT 08/09/97 13:50 Page:601
  ****  Section 005 LblCom ST$

  ****  Scalars and arrays  ****
OctLoc.c.b A Datatyp(siz) R M Lvl/name                 OctLoc.c.b A Datatyp(siz) R M Lvl/name

     0-0-0/w PTR         r     1 ST$

  ****  Section 006 LblCom ST_

  ****  Scalars and arrays  ****
OctLoc.c.b A Datatyp(siz) R M Lvl/name                 OctLoc.c.b A Datatyp(siz) R M Lvl/name

     0-0-0/w STRC(180)         1 ST_

  ****  Section 007 LblCom ETT$

  ****  Scalars and arrays  ****
OctLoc.c.b A Datatyp(siz) R M Lvl/name                 OctLoc.c.b A Datatyp(siz) R M Lvl/name

     0-0-0/w PTR         r     1 ETT$

  ****  Section 008 LblCom HEAD_ETT$

  ****  Scalars and arrays  ****
OctLoc.c.b A Datatyp(siz) R M Lvl/name                 OctLoc.c.b A Datatyp(siz) R M Lvl/name

     0-0-0/w PTR               1 HEAD_ETT$

  ****  Section 009 LblCom ETT_BUCKETS

  ****  Scalars and arrays  ****
OctLoc.c.b A Datatyp(siz) R M Lvl/name                 OctLoc.c.b A Datatyp(siz) R M Lvl/name

     0-0-0/w PTR               1 ETT_BUCKETS(0:511)

  ****  Section 010 LblCom ETT_

PL6.E3A0      #005=Z9EB$DML_STATEMENT File=Z9EB.:Z8A6TSI                         SAT 08/09/97 13:50 Page:602
  ****  Scalars and arrays  ****
OctLoc.c.b A Datatyp(siz) R M Lvl/name                 OctLoc.c.b A Datatyp(siz) R M Lvl/name

     0-0-0/w STRC(180)         1 ETT_

  ****  Section 011 LblCom LTS$

  ****  Scalars and arrays  ****
OctLoc.c.b A Datatyp(siz) R M Lvl/name                 OctLoc.c.b A Datatyp(siz) R M Lvl/name

     0-0-0/w PTR               1 LONG_ITEM$                 0-0-0/w PTR         r     1 LTS$

  ****  Section 012 LblCom LTS_

  ****  Scalars and arrays  ****
OctLoc.c.b A Datatyp(siz) R M Lvl/name                 OctLoc.c.b A Datatyp(siz) R M Lvl/name

     0-0-0/w STRC(180)         1 LTS_

  ****  Section 013 LblCom SRCH

  ****  Scalars and arrays  ****
OctLoc.c.b A Datatyp(siz) R M Lvl/name                 OctLoc.c.b A Datatyp(siz) R M Lvl/name

     0-0-0/w STRC(108)   r     1 SRCH

  ****  Section 014 LblCom QLT$

  ****  Scalars and arrays  ****
OctLoc.c.b A Datatyp(siz) R M Lvl/name                 OctLoc.c.b A Datatyp(siz) R M Lvl/name

     0-0-0/w PTR         r     1 QLT$

  ****  Section 015 LblCom PREV_01_QLT$

  ****  Scalars and arrays  ****
OctLoc.c.b A Datatyp(siz) R M Lvl/name                 OctLoc.c.b A Datatyp(siz) R M Lvl/name
PL6.E3A0      #005=Z9EB$DML_STATEMENT File=Z9EB.:Z8A6TSI                         SAT 08/09/97 13:50 Page:603

     0-0-0/w PTR               1 PREV_01_QLT$

  ****  Section 016 LblCom QLT_

  ****  Scalars and arrays  ****
OctLoc.c.b A Datatyp(siz) R M Lvl/name                 OctLoc.c.b A Datatyp(siz) R M Lvl/name

     0-0-0/w STRC(180)         1 QLT_

  ****  Section 017 LblCom MKCN

  ****  Scalars and arrays  ****
OctLoc.c.b A Datatyp(siz) R M Lvl/name                 OctLoc.c.b A Datatyp(siz) R M Lvl/name

     0-0-0/w STRC        r     1 MKCN

  ****  Auto variables  ****

  ****  Scalars and arrays  ****
OctLoc.c.b A Datatyp(siz) R M Lvl/name                 OctLoc.c.b A Datatyp(siz) R M Lvl/name

   223-0-0/w PTR         r     1 @CODE                    221-0-0/w PTR         r     1 @CODE
   221-0-0/w PTR         r     1 @CODE                    235-0-0/w PTR         r     1 @CONST_WORD
   222-0-0/w PTR         r     1 @FIND_CONTROL$           222-0-0/w PTR         r     1 @FIND_CONTROL$
   221-0-0/w PTR         r     1 @HEAD$                   234-0-0/w PTR         r     1 @ITEM$
   235-0-0/w PTR         r     1 @ITEM_ST$                233-0-0/w PTR         r     1 @ITEM_ST$
   236-0-0/w PTR         r     1 @LX_ITEM$                236-0-0/w PTR         r     1 @LX_ITEM$
   222-0-0/w PTR         r     1 @LX_ITEM$                224-0-0/w PTR         r     1 @REALM_SET_ST$
   224-0-0/w PTR         r     1 @REALM_SET_ST$             3-0-0/w PTR         r     1 @RECORD_SELECTION$
   221-0-0/w PTR         r     1 @RECORD_ST$              223-0-0/w PTR         r     1 @RECORD_ST$
   223-0-0/w PTR         r     1 @RECORD_ST$                4-0-0/w PTR         r     1 @RETENTION$
   225-0-0/w PTR         r     1 @RETENTION_LIST$         225-0-0/w PTR         r     1 @RETENTION_LIST$
   222-0-0/w PTR         r     1 @SET_ST$                 210-0-0/w PTR         r     1 ALL_LIST$
   205-0-0/w PTR         r     1 ALL_SET_LIST$            146-0-0/w SBIN        r     1 ARG_COUNT
   166-0-0/c CHAR(6)     r     1 CODE                      *0-0-0/c CHAR(6)     r     1 CODE
    *0-0-0/c CHAR(6)     r     1 CODE                      *0-0-0/c CHAR(6)     r     1 CODE
PL6.E3A0      #005=Z9EB$DML_STATEMENT File=Z9EB.:Z8A6TSI                         SAT 08/09/97 13:50 Page:604
   175-0-0/w UBIN        r     1 CODE_TYPE                176-0-0/w UBIN        r     1 CONST_WORD
    *0-0-0/w SBIN        r     1 CONST_WORD               233-0-0/w SBIN        r     1 CONST_WORD
   214-0-0/w STRC        r     1 CONTROL_CONST            226-0-0/w PTR         r     1 CONTROL_ST$
   214-0-0/w UBIN        r     1 CONTROL_WORD_CONST       211-0-0/w UBIN(18)    r     1 COUNT
   176-0-0/w STRC        r     1 CURRENCY_CONST            76-0-0/d STRC(288)   r     1 CW_LX_ITEM
   151-0-0/w PTR         r     1 DB_KEY$                  153-0-0/w PTR         r     1 DB_KEY_ST$
   116-0-0/d STRC(288)   r     1 DD_LX_ITEM               126-0-0/d STRC(288)   r     1 EC_SL_LX_ITEM
   176-0-0/w STRC        r     1 ERASE_                   213-0-0/b BIT         r     1 ERROR_FLAG
   106-0-0/d STRC(288)         1 FA_LX_ITEM               215-0-0/w STRC        r     1 FIELD
   176-0-0/w STRC        r     1 FIELD_LIST               177-0-0/w PTR         r     1 FIELD_LIST$
   215-0-0/w SBIN        r     1 FIELD_LIST_CONTROL       207-0-0/w PTR         r     1 FIELD_ST$
   176-0-0/w STRC        r     1 FIND_CONTROL              *0-0-0/w PTR         r     1 FIND_CONTROL$
    *0-0-0/w PTR         r     1 FIND_CONTROL$             66-0-0/d STRC(288)   r     1 FL_ID_LX_ITEM
    *0-0-0/w PTR         r     1 HEAD$                      6-0-0/d STRC(288)   r     1 IA_LX_ITEM
   203-0-0/w PTR         r     1 IDENT$                   201-0-0/w PTR         r     1 IDENT_LIST$
   204-0-0/w PTR         r     1 IDENT_ST$                 *0-0-0/w PTR         r     1 ITEM$
    *0-0-0/w PTR         r     1 ITEM_ST$                  *0-0-0/w PTR         r     1 ITEM_ST$
   161-0-0/w PTR         r     1 KEY$                     162-0-0/w PTR         r     1 KEY_ST$
   225-0-0/w PTR         r     1 LAST_LX_ITEM$            170-0-0/w PTR         r     1 LIST$
   226-0-0/w PTR         r     1 LIST$                    171-0-0/w PTR         r     1 LIST_HEAD$
    *0-0-0/w PTR         r     1 LX_ITEM$                  *0-0-0/w PTR         r     1 LX_ITEM$
    *0-0-0/w PTR         r     1 LX_ITEM$                  56-0-0/d STRC(288)   r     1 MC_LX_ITEM
   164-0-0/w PTR         r     1 NAME$                    165-0-0/w PTR         r     1 NAME_ST$
   240-0-0/w SBIN        r     1 OFFSET                   236-0-0/w SBIN        r     1 OFFSET
   202-0-0/w PTR         r     1 OPTION$                  174-0-0/w UBIN        r     1 OPTION_WORD
   212-0-0/w PTR         r     1 PARM_LIST$               237-0-0/w PTR         r     1 PTR$
   235-0-0/w PTR         r     1 PTR$                     172-0-0/w PTR         r     1 QLT_FATHER$
    26-0-0/d STRC(288)   r     1 RC_LX_ITEM                46-0-0/d STRC(288)   r     1 RDC_FC_LX_ITEM
   176-0-0/w STRC        r     1 RDC_WORD                 156-0-0/w PTR         r     1 REALM_SET$
   157-0-0/w PTR         r     1 REALM_SET_ST$             *0-0-0/w PTR         r     1 REALM_SET_ST$
    *0-0-0/w PTR         r     1 REALM_SET_ST$            154-0-0/w PTR         r     1 REALM_ST$
   150-0-0/w PTR         r     1 RECORD$                   *0-0-0/w PTR         r     1 RECORD_SELECTION$
   152-0-0/w PTR         r     1 RECORD_ST$                *0-0-0/w PTR         r     1 RECORD_ST$
    *0-0-0/w PTR         r     1 RECORD_ST$                *0-0-0/w PTR         r     1 RECORD_ST$
   206-0-0/w PTR         r     1 REC_FIELD_ST$             *0-0-0/w PTR         r     1 RETENTION$
   200-0-0/w PTR         r     1 RETENTION_LIST$          223-0-0/w PTR         r     1 RETENTION_LIST$
    *0-0-0/w PTR         r     1 RETENTION_LIST$           *0-0-0/w PTR         r     1 RETENTION_LIST$
PL6.E3A0      #005=Z9EB$DML_STATEMENT File=Z9EB.:Z8A6TSI                         SAT 08/09/97 13:50 Page:605
   224-0-0/w STRC        r     1 RETENTION_WORD           224-0-0/w SBIN        r     1 RETENTION_WORD_CONST
   237-0-0/w PTR         r     1 RETURN$                   16-0-0/d STRC(288)   r     1 RL_LX_ITEM
   147-0-0/w UBIN(18)    r     1 RVA_TYPE                 230-0-0/w UBIN(18)    r     1 RVA_TYPE
    36-0-0/d STRC(288)   r     1 SC_AC_LX_ITEM            216-0-0/w STRC        r     1 SET
   160-0-0/w PTR         r     1 SET$                     216-0-0/w SBIN        r     1 SET_LIST_CONTROL
   163-0-0/w PTR         r     1 SET_ST$                   *0-0-0/w PTR         r     1 SET_ST$
   227-0-0/w PTR         r     1 SET_ST$                  173-0-0/b BIT         r     1 SON
   155-0-0/w PTR         r     1 TAIL$                    136-0-0/d STRC(288)   r     1 TEMP_LX_ITEM
   176-0-0/w STRC        r     1 TENANT                   227-0-0/w STRC(144)   r     1 TYPE_DESC

  ****  SYMREF variables  ****

  ****  Scalars and arrays  ****
OctLoc.c.b A Datatyp(siz) R M Lvl/name                 OctLoc.c.b A Datatyp(siz) R M Lvl/name

     0-0-0/d STRC(13248) r     1 COMCOM
     0-0-0/w STRC(180)         1 HIER_STK(0:50)
     0-0-0/w SBIN              1 HIER_STK_PTR
     0-0-0/w UBIN              1 LTS_STEP(0:37)
     0-0-0/d STRC(11580) r     1 O1COM                      0-0-0/w STRC(144)         1 PAGE_FORMAT
     0-0-0/w STRC(153)         1 REP_STK(0:50)              0-0-0/w SBIN              1 REP_STK_PTR

  ****  BASED and DCB variables  ****

  ****  Scalars and arrays  ****
OctLoc.c.b A Datatyp(siz) R M Lvl/name                 OctLoc.c.b A Datatyp(siz) R M Lvl/name

     0-0-0/w STRC(288)         1 ADD_STMT                   0-0-0/w STRC(396)         1 ALPHABET
     0-0-0/w STRC(144)         1 ALTER_LTS                  0-0-0/w STRC(3672)        1 ALT_KEY
     0-0-0/w STRC(36864)       1 ARGLIST                    0-0-0/w STRC(396)         1 ARRAY
     0-0-0/w STRC(180)         1 ARRAY_PRESET_LTS           0-0-0/w ASTR(324)   r     1 BASED_LEX_SYMBOL
     0-0-0/w STRC(360)         1 BASED_LEX_SYMBOL_WORDS
     0-0-0/w STRC(288)         1 BASE_LTS                   0-0-0/w STRC(288)         1 BINARY_OP
     0-0-0/w STRC(396)         1 BLOCK                      0-0-0/w STRC(144)         1 BT
     0-0-0/w STRC(288)         1 CALL_STMT                  0-0-0/w STRC(396)         1 CD
     0-0-0/w STRC(288)         1 CD_LTS                     0-0-0/w CHAR(4096)        1 CHARS
     0-0-0/w STRC(396)         1 CLASS                      0-0-0/w STRC(288)         1 COMPUTE_STMT
PL6.E3A0      #005=Z9EB$DML_STATEMENT File=Z9EB.:Z8A6TSI                         SAT 08/09/97 13:50 Page:606
     0-0-0/w STRC(396)         1 CONDITION                  0-0-0/w STRC(396)         1 CONST
     0-0-0/w STRC(72)          1 CONT                       0-0-0/w STRC(540)         1 CONTROL_NAME_LTS
     0-0-0/w STRC(1872)        1 COPY_FILE                  0-0-0/w STRC(396)         1 DB
     0-0-0/w STRC(396)         1 DCB_                       0-0-0/w STRC(288)         1 DEFERED_IDENTIFIER
     0-0-0/w STRC(252)         1 DEFERED_ID_TREE            0-0-0/w STRC(288)         1 DEFERED_QUAL_ID
     0-0-0/w STRC(288)         1 DEFERED_SUM_CLAUSE
     0-0-0/w STRC(288)         1 DEFERED_SUM_CLAUSE_LIST
     0-0-0/w STRC(288)         1 DELETE_STMT                0-0-0/w STRC(108)         1 DEPENDING_SIZE
     0-0-0/w STRC(5472)        1 DIMS                       0-0-0/w STRC(288)         1 DIVIDE_STMT
     0-0-0/w STRC(396)   r     1 DML_ITEM                   0-0-0/w STRC(216)   r     1 DML_REC
     0-0-0/w STRC(180)   r     1 ETT                        0-0-0/w STRC(73836)       1 EVALUATE
     0-0-0/w STRC(396)         1 FD                         0-0-0/w STRC(1692)        1 FILE_LTS
     0-0-0/w STRC(288)         1 ILS_LIST                   0-0-0/w STRC(108)         1 INDEXES
     0-0-0/w STRC(360)         1 INIT_LTS                   0-0-0/w STRC(288)         1 INSPECT_1_STMT
     0-0-0/w STRC(288)         1 INSPECT_2_STMT             0-0-0/w STRC(288)         1 INSPECT_4_STMT
     0-0-0/w STRC(396)         1 INTDEF                     0-0-0/w STRC(180)         1 IO_RESTORE_CHAIN
     0-0-0/w STRC(144)         1 KEY                        0-0-0/w STRC(396)         1 LABEL
     0-0-0/w STRC(288)         1 LA_ITEM                    0-0-0/w STRC(36864)       1 LCNST
     0-0-0/w STRC(72)          1 LONG                       0-0-0/w STRC        r     1 LTS
     0-0-0/w STRC(360)   r     1 LTSS                       0-0-0/w STRC(36936)       1 LTS_PTR_ARRAY
     0-0-0/w STRC(504)         1 LX_CD_INPUT                0-0-0/w STRC(324)         1 LX_CD_I_O
     0-0-0/w STRC(396)         1 LX_CD_OUTPUT               0-0-0/w STRC(288)   r     1 LX_ETT_ITEM
     0-0-0/w STRC(288)   r     1 LX_ITEM                    0-0-0/w STRC(288)         1 LX_LARGE
     0-0-0/w STRC(288)   r     1 LX_LIST                    0-0-0/w STRC(1224)        1 LX_REC_DECL
     0-0-0/w STRC(864)         1 LX_REPORT_REC              0-0-0/w STRC(288)   r     1 LX_TERMINAL
     0-0-0/w STRC(396)         1 MNEMONIC                   0-0-0/w STRC(288)         1 MULTIPLY_STMT
     0-0-0/w STRC(144)         1 NEL                        0-0-0/w STRC(216)         1 OPEN_LTS
     0-0-0/w STRC(36864)       1 PAGE                       0-0-0/w STRC(396)         1 PARA
     0-0-0/w STRC(144)         1 PRIME                      0-0-0/w STRC(396)         1 PROC_
     0-0-0/w STRC(396)         1 PROC_DEF                   0-0-0/w STRC(900)         1 PROC_SUPP
     0-0-0/w STRC(216)   r     1 QLT                        0-0-0/w STRC(396)         1 RD
     0-0-0/w STRC(288)         1 READ_STMT                  0-0-0/w STRC(216)         1 REF
     0-0-0/w STRC(108)         1 RENAMES                    0-0-0/w STRC(720)         1 REPORT_01_LTS
     0-0-0/w STRC(432)         1 REPORT_ELEM_LTS            0-0-0/w STRC(252)         1 REPORT_GRP_LTS
     0-0-0/w STRC(1332)        1 REPORT_LTS                 0-0-0/w STRC(288)         1 REWRITE_STMT
     0-0-0/w STRC(144)   r     1 RVA_LTS                    0-0-0/w STRC(396)   r     1 SCALAR
     0-0-0/w STRC(396)         1 SD                         0-0-0/w STRC(396)         1 SECTION
PL6.E3A0      #005=Z9EB$DML_STATEMENT File=Z9EB.:Z8A6TSI                         SAT 08/09/97 13:50 Page:607
     0-0-0/w STRC(396)         1 SEGMENT                    0-0-0/w STRC(360)         1 SEGMENT_LTS
     0-0-0/w STRC(396)         1 ST                         0-0-0/w STRC(288)         1 START_STMT
     0-0-0/w STRC(252)         1 STRING_STMT                0-0-0/w STRC(288)         1 SUBTRACT_STMT
     0-0-0/w STRC(252)         1 SUM_LTS                    0-0-0/w STRC(396)         1 SWITCH
     0-0-0/w STRC(396)         1 SYMBOLIC_CHAR              0-0-0/w STRC(396)         1 SYMDEF_
     0-0-0/w STRC(396)         1 SYMREF_                    0-0-0/w STRC(396)         1 TEMP
     0-0-0/w STRC(288)   r     1 UNARY_OP                   0-0-0/w STRC(288)         1 UNSTRING_STMT
     0-0-0/d STRC(612)         1 USE                        0-0-0/w STRC(252)         1 USE_SUPP
     0-0-0/w STRC(396)   r     1 VARIABLE                   0-0-0/w STRC(288)         1 WRITE_STMT


   Procedure Z9EB$DML_STATEMENT requires 5588 words for executable code.
   Procedure Z9EB$DML_STATEMENT requires 220 words of local(AUTO) storage.

    No errors detected in file Z9EB.:Z8A6TSI    .
