VERSION A06

PL6.E3A0      #001=Z9EM$FILE_ORG File=Z9EM.:Z8A6TSI                              SAT 08/09/97 13:45 Page:1
        1        1        /*M* Z9EM -- System dependant I/O data div checks */
        2        2        /*T***********************************************************/
        3        3        /*T*                                                         */
        4        4        /*T* Copyright (c) Bull HN Information Systems Inc., 1997    */
        5        5        /*T*                                                         */
        6        6        /*T***********************************************************/
        7        7        Z9EM$FILE_ORG: PROC (KEYWORD$, ORG);
        8        8         /*P*
        9        9               NAME : Z9EM$FILE_ORG
       10       10               PURPOSE : To check that the file organization on the source
       11       11                 is valid in the current operating system (CP6).
       12       12         */
       13       13
       14       14             %EQU PHASE = 1;
       15       15
       16       16             %INCLUDE Z8A_DEFC;
       17       84             %INCLUDE Z8A_SUPP_MAC;
       18     2484             %INCLUDE Z8A_COMCOM;
       19     3134             %INCLUDE Z8A_DNT;
       20     3355             %INCLUDE Z8A_IO_EQUS;
       21     3478             %INCLUDE Z8A_LTS;
       22     5555             %INCLUDE Z8A_ERR_NUMS;
       23     6319             %INCLUDE Z8E_MACROS;
       24     6994             %INCLUDE Z8E_STACKS;
       25     9260             %INCLUDE Z8E_O1COM;
       26    10021             %INCLUDE Z8E_WINDOW;
       27    12091
       28    12092    1        DCL Z8AE$ERROR           ENTRY (12);
       29    12093
       30    12094    1        DCL KEYWORD$             PTR;
       31    12095    1        DCL ORG                  SBIN;
       32    12096    1        DCL DNT$_FROM_RSWNO      (0:0) PTR SYMREF READONLY;
       33    12097
       34    12098
       35    12099    2        DO CASE (ORG);
       36    12100    2          CASE (%SEQUENTIAL, %INDEXED, %KEYED, %RELATIVE);
       37    12101    2            O1COM.CURRENT_FILE_LTS$ -> FILE_LTS.ORGANIZATION = ORG;
PL6.E3A0      #001=Z9EM$FILE_ORG File=Z9EM.:Z8A6TSI                              SAT 08/09/97 13:45 Page:2
       38    12102
       39    12103    2          CASE (%OS_SEQUENTIAL, %OS_EBCDIC_SEQUENTIAL, %DOS_SEQUENTIAL);
       40    12104    2            O1COM.CURRENT_FILE_LTS$ -> FILE_LTS.ORGANIZATION = %SEQUENTIAL;
       41    12105    2            O1COM.CURRENT_FILE_LTS$ -> FILE_LTS.B.EBCDIC     = TRUE;
       42    12106
       43    12107    2          CASE (%UFF_SEQUENTIAL,              %ANSI_SEQUENTIAL,
       44    12108    2                %GFRC_SEQUENTIAL,             %MULTICS_STREAM,
       45    12109    2                %H2000_SEQUENTIAL,            %GFRC_C_6000_SEQUENTIAL,
       46    12110    2                %MULTICS_SEQUENTIAL);
       47    12111                 %CONDITIONAL_ERROR (@LX_ITEM$ = KEYWORD$,
       48    12112                                     @ERROR#   = %E$FILE_ORG_NOT_SUPPORTED,
       49    12113                                     @LINE     = KEYWORD$ -> LX_TERMINAL.LINE,
       50    12114                                     @COLUMN   = KEYWORD$ -> LX_TERMINAL.COLUMN,
       51    12115                                     @PLUG1    = "DNT$_FROM_RSWNO (%RSV_WRD_SEQUENTIAL)");
       52    12145
       53    12146    2            O1COM.CURRENT_FILE_LTS$ -> FILE_LTS.ORGANIZATION = %SEQUENTIAL;
       54    12147
       55    12148    2          CASE (%UFF_RELATIVE,                %MULTICS_RELATIVE);
       56    12149                 %CONDITIONAL_ERROR (@LX_ITEM$ = KEYWORD$,
       57    12150                                     @ERROR#   = %E$FILE_ORG_NOT_SUPPORTED,
       58    12151                                     @LINE     = KEYWORD$ -> LX_TERMINAL.LINE,
       59    12152                                     @COLUMN   = KEYWORD$ -> LX_TERMINAL.COLUMN,
       60    12153                                     @PLUG1    = "DNT$_FROM_RSWNO (%RSV_WRD_RELATIVE)");
       61    12183
       62    12184    2            O1COM.CURRENT_FILE_LTS$ -> FILE_LTS.ORGANIZATION = %RELATIVE;
       63    12185
       64    12186    2          CASE (%UFF_INDEXED, %MULTICS_INDEXED, %ISP_C_6000_INDEXED);
       65    12187                 %CONDITIONAL_ERROR (@LX_ITEM$ = KEYWORD$,
       66    12188                                     @ERROR#   = %E$FILE_ORG_NOT_SUPPORTED,
       67    12189                                     @LINE     = KEYWORD$ -> LX_TERMINAL.LINE,
       68    12190                                     @COLUMN   = KEYWORD$ -> LX_TERMINAL.COLUMN,
       69    12191                                     @PLUG1    = "DNT$_FROM_RSWNO (%RSV_WRD_INDEXED)");
       70    12221
       71    12222    2            O1COM.CURRENT_FILE_LTS$ -> FILE_LTS.ORGANIZATION = %INDEXED;
       72    12223
       73    12224    2          CASE (ELSE);
       74    12225    2            CALL Z8AE$ERROR (%E$UNEXPECTED_CASE,
PL6.E3A0      #001=Z9EM$FILE_ORG File=Z9EM.:Z8A6TSI                              SAT 08/09/97 13:45 Page:3
       75    12226    2                             KEYWORD$ -> LX_TERMINAL.LINE,
       76    12227    2                             KEYWORD$ -> LX_TERMINAL.COLUMN);
       77    12228
       78    12229    2            O1COM.CURRENT_FILE_LTS$ -> FILE_LTS.ORGANIZATION = %SEQUENTIAL;
       79    12230
       80    12231    2        END; /* Case */
       81    12232
       82    12233    1   END Z9EM$FILE_ORG;
       83    12234        %EOD;

PL6.E3A0      #001=Z9EM$FILE_ORG File=Z9EM.:Z8A6TSI                              SAT 08/09/97 13:45 Page:4
--  Include file information  --

   Z8E_WINDOW.:Z8A6TOU  is referenced.
   Z8E_O1COM.:Z8A6TOU  cannot be made into a system file and is referenced.
   Z8A_LEX_SYMB.:Z8A6TOU  cannot be made into a system file and is referenced.
   Z8E_STACKS.:Z8A6TOU  cannot be made into a system file and is referenced.
   Z8E_NEW_ILL.:Z8A6TOU  is referenced.
   Z8E_MACROS.:Z8A6TOU  cannot be made into a system file and is referenced.
   Z8A_ERR_NUMS.:Z8A6TOU  is referenced.
   Z8A_LTS.:Z8A6TOU  cannot be made into a system file and is referenced.
   Z8A_IO_EQUS.:Z8A6TOU  is referenced.
   Z8A_DNT.:Z8A6TOU  cannot be made into a system file and is referenced.
   Z8A_COMCOM.:Z8A6TOU  cannot be made into a system file and is referenced.
   X8A_COM_MACS.:X8A6TOU  is referenced.
   Z8A_NAMES.:Z8A6TOU  is referenced.
   Z8A_SUPP_MAC.:Z8A6TOU  is referenced.
   Z8A_DEFC.:Z8A6TOU  cannot be made into a system file and is referenced.
      No diagnostics issued in procedure Z9EM$FILE_ORG.

   Procedure Z9EM$FILE_ORG requires 116 words for executable code.
   Procedure Z9EM$FILE_ORG requires 10 words of local(AUTO) storage.

PL6.E3A0      #001=Z9EM$FILE_ORG File=Z9EM.:Z8A6TSI                              SAT 08/09/97 13:45 Page:5

 Object Unit name= Z9EM$FILE_ORG                              File name= Z9EM.:Z8A6TOU
 UTS= AUG 09 '97 13:45:29.92 SAT                              Compiler= PL-6/E31         Sev=      00
 SharedLib= :SHARED_SYSTEM                                    Alt SharedLib=


    ****  Control sections  ****

 Sect   Type Bound  Init  Size OctSiz  Section name(segment info)
    0  LblCom even  none     1      1  ITERATION
    1  LblCom even  none     1      1  DNT$
    2  LblCom even  none     5      5  DNT_
    3  LblCom even  none     1      1  DNT_BUCKET_NUMBER
    4  LblCom even  none     1      1  DNT_OF_1$
    5  LblCom even  none     1      1  LTS$
    6  LblCom even  none     5      5  LTS_
    7  LblCom even  none    90    132  LEX_SYMBOL
    8  LblCom even  none     1      1  CURRENT_LEX_SYMBOL$
    9  LblCom even  none    90    132  TEMP_LEX_SYMBOL
   10  LblCom even  none    90    132  TEMP_LEX_SYMBOL2
   11   Proc  even  none   116    164  Z9EM$FILE_ORG
   12  RoData even  none     9     11  Z9EM$FILE_ORG

    ****  Entry defs  ****

                              Check   Calling
                             calling  sequence
  Sect OctLoc Primary Altret sequence   type   Parms  Name
    11      0   yes            yes      Std        2  Z9EM$FILE_ORG

  ****  Entry refs  ****

         Check        Calling
        calling       sequence
Altret sequence SRef   type   Args  Name
         yes           Std      12 Z8AE$ERROR
                       nStd      0 X66_AUTO_2
                       nStd      0 X66_ARET
PL6.E3A0      #001=Z9EM$FILE_ORG File=Z9EM.:Z8A6TSI                              SAT 08/09/97 13:45 Page:6

  ****  Data refs  ****

  Flags:  r = read only, s = secondary
Flgs Name                             Flgs Name                             Flgs Name
     COMCOM                           r    LTS_STEP                              O1COM
     HIER_STK_PTR                          HIER_STK                              PAGE_FORMAT
     REP_STK_PTR                           REP_STK                          r    DNT$_FROM_RSWNO

  ****  Segment refs  ****

  Flags:  r = read only, s = secondary
Flgs Name                             Flgs Name                             Flgs Name
     NULLSID                               ISSID
PL6.E3A0      #001=Z9EM$FILE_ORG File=Z9EM.:Z8A6TSI                              SAT 08/09/97 13:45 Page:7


        1        1        /*M* Z9EM -- System dependant I/O data div checks */
        2        2        /*T***********************************************************/
        3        3        /*T*                                                         */
        4        4        /*T* Copyright (c) Bull HN Information Systems Inc., 1997    */
        5        5        /*T*                                                         */
        6        6        /*T***********************************************************/
        7        7        Z9EM$FILE_ORG: PROC (KEYWORD$, ORG);

      7 11 000000   000000 700200 xent  Z9EM$FILE_O* TSX0  ! X66_AUTO_2
        11 000001   000012 000002                    ZERO    10,2

        8        8         /*P*
        9        9               NAME : Z9EM$FILE_ORG
       10       10               PURPOSE : To check that the file organization on the source
       11       11                 is valid in the current operating system (CP6).
       12       12         */
       13       13
       14       14             %EQU PHASE = 1;
       15       15
       16       16             %INCLUDE Z8A_DEFC;
       17       84             %INCLUDE Z8A_SUPP_MAC;
       18     2484             %INCLUDE Z8A_COMCOM;
       19     3134             %INCLUDE Z8A_DNT;
       20     3355             %INCLUDE Z8A_IO_EQUS;
       21     3478             %INCLUDE Z8A_LTS;
       22     5555             %INCLUDE Z8A_ERR_NUMS;
       23     6319             %INCLUDE Z8E_MACROS;
       24     6994             %INCLUDE Z8E_STACKS;
       25     9260             %INCLUDE Z8E_O1COM;
       26    10021             %INCLUDE Z8E_WINDOW;
       27    12091
       28    12092    1        DCL Z8AE$ERROR           ENTRY (12);
       29    12093
       30    12094    1        DCL KEYWORD$             PTR;
       31    12095    1        DCL ORG                  SBIN;
       32    12096    1        DCL DNT$_FROM_RSWNO      (0:0) PTR SYMREF READONLY;
PL6.E3A0      #001=Z9EM$FILE_ORG File=Z9EM.:Z8A6TSI                              SAT 08/09/97 13:45 Page:8
       33    12097
       34    12098
       35    12099    2        DO CASE (ORG);

  12099 11 000002   200004 470500                    LDP0    @ORG,,AUTO
        11 000003   000000 235100                    LDA     0,,PR0
        11 000004   000024 115007                    CMPA    20,DL
        11 000005   000007 602005 11                 TNC     s:12099+5,AL
        11 000006   000144 710000 11                 TRA     s:12225
        11 000007   000144 710000 11                 TRA     s:12225
        11 000010   000033 710000 11                 TRA     s:12101
        11 000011   000033 710000 11                 TRA     s:12101
        11 000012   000033 710000 11                 TRA     s:12101
        11 000013   000033 710000 11                 TRA     s:12101
        11 000014   000045 710000 11                 TRA     s:12125
        11 000015   000045 710000 11                 TRA     s:12125
        11 000016   000045 710000 11                 TRA     s:12125
        11 000017   000036 710000 11                 TRA     s:12104
        11 000020   000045 710000 11                 TRA     s:12125
        11 000021   000072 710000 11                 TRA     s:12163
        11 000022   000117 710000 11                 TRA     s:12201
        11 000023   000045 710000 11                 TRA     s:12125
        11 000024   000036 710000 11                 TRA     s:12104
        11 000025   000117 710000 11                 TRA     s:12201
        11 000026   000045 710000 11                 TRA     s:12125
        11 000027   000036 710000 11                 TRA     s:12104
        11 000030   000072 710000 11                 TRA     s:12163
        11 000031   000045 710000 11                 TRA     s:12125
        11 000032   000117 710000 11                 TRA     s:12201

       36    12100    2          CASE (%SEQUENTIAL, %INDEXED, %KEYED, %RELATIVE);

       37    12101    2            O1COM.CURRENT_FILE_LTS$ -> FILE_LTS.ORGANIZATION = ORG;

  12101 11 000033   000045 471400 xsym               LDP1    O1COM+37
        11 000034   100006 755100                    STA     6,,PR1
        11 000035   000163 710000 11                 TRA     s:12233
PL6.E3A0      #001=Z9EM$FILE_ORG File=Z9EM.:Z8A6TSI                              SAT 08/09/97 13:45 Page:9

       38    12102
       39    12103    2          CASE (%OS_SEQUENTIAL, %OS_EBCDIC_SEQUENTIAL, %DOS_SEQUENTIAL);

       40    12104    2            O1COM.CURRENT_FILE_LTS$ -> FILE_LTS.ORGANIZATION = %SEQUENTIAL;

  12104 11 000036   000001 236007                    LDQ     1,DL
        11 000037   000045 471400 xsym               LDP1    O1COM+37
        11 000040   100006 756100                    STQ     6,,PR1

       41    12105    2            O1COM.CURRENT_FILE_LTS$ -> FILE_LTS.B.EBCDIC     = TRUE;

  12105 11 000041   000045 471400 xsym               LDP1    O1COM+37
        11 000042   004000 236007                    LDQ     2048,DL
        11 000043   100017 256100                    ORSQ    15,,PR1
        11 000044   000163 710000 11                 TRA     s:12233

       42    12106
       43    12107    2          CASE (%UFF_SEQUENTIAL,              %ANSI_SEQUENTIAL,

       44    12108    2                %GFRC_SEQUENTIAL,             %MULTICS_STREAM,
       45    12109    2                %H2000_SEQUENTIAL,            %GFRC_C_6000_SEQUENTIAL,
       46    12110    2                %MULTICS_SEQUENTIAL);
       47    12111                 %CONDITIONAL_ERROR (@LX_ITEM$ = KEYWORD$,
       48    12112                                     @ERROR#   = %E$FILE_ORG_NOT_SUPPORTED,
       49    12113                                     @LINE     = KEYWORD$ -> LX_TERMINAL.LINE,
       50    12114                                     @COLUMN   = KEYWORD$ -> LX_TERMINAL.COLUMN,
       51    12115                                     @PLUG1    = "DNT$_FROM_RSWNO (%RSV_WRD_SEQUENTIAL)");

  12125 11 000045   200003 471500                    LDP1    @KEYWORD$,,AUTO
        11 000046   100000 473500                    LDP3    0,,PR1
        11 000047   300000 236100                    LDQ     0,,PR3
        11 000050   400000 316007                    CANQ    -131072,DL
        11 000051   000066 601000 11                 TNZ     s:12146

  12127 11 000052   000002 236000 12                 LDQ     2
        11 000053   200011 756100                    STQ     @ORG+5,,AUTO
PL6.E3A0      #001=Z9EM$FILE_ORG File=Z9EM.:Z8A6TSI                              SAT 08/09/97 13:45 Page:10
        11 000054   300006 634500                    EPPR4   6,,PR3
        11 000055   200010 454500                    STP4    @ORG+4,,AUTO
        11 000056   300005 635500                    EPPR5   5,,PR3
        11 000057   200007 455500                    STP5    @ORG+3,,AUTO
        11 000060   000003 236000 12                 LDQ     3
        11 000061   200006 756100                    STQ     @ORG+2,,AUTO
        11 000062   200006 630500                    EPPR0   @ORG+2,,AUTO
        11 000063   000000 631400 12                 EPPR1   0
        11 000064   000000 701000 xent               TSX1    Z8AE$ERROR
        11 000065   000000 011000                    NOP     0

       52    12145
       53    12146    2            O1COM.CURRENT_FILE_LTS$ -> FILE_LTS.ORGANIZATION = %SEQUENTIAL;

  12146 11 000066   000001 235007                    LDA     1,DL
        11 000067   000045 470400 xsym               LDP0    O1COM+37
        11 000070   000006 755100                    STA     6,,PR0
        11 000071   000163 710000 11                 TRA     s:12233

       54    12147
       55    12148    2          CASE (%UFF_RELATIVE,                %MULTICS_RELATIVE);

       56    12149                 %CONDITIONAL_ERROR (@LX_ITEM$ = KEYWORD$,
       57    12150                                     @ERROR#   = %E$FILE_ORG_NOT_SUPPORTED,
       58    12151                                     @LINE     = KEYWORD$ -> LX_TERMINAL.LINE,
       59    12152                                     @COLUMN   = KEYWORD$ -> LX_TERMINAL.COLUMN,
       60    12153                                     @PLUG1    = "DNT$_FROM_RSWNO (%RSV_WRD_RELATIVE)");

  12163 11 000072   200003 471500                    LDP1    @KEYWORD$,,AUTO
        11 000073   100000 473500                    LDP3    0,,PR1
        11 000074   300000 236100                    LDQ     0,,PR3
        11 000075   400000 316007                    CANQ    -131072,DL
        11 000076   000113 601000 11                 TNZ     s:12184

  12165 11 000077   000004 236000 12                 LDQ     4
        11 000100   200011 756100                    STQ     @ORG+5,,AUTO
        11 000101   300006 634500                    EPPR4   6,,PR3
PL6.E3A0      #001=Z9EM$FILE_ORG File=Z9EM.:Z8A6TSI                              SAT 08/09/97 13:45 Page:11
        11 000102   200010 454500                    STP4    @ORG+4,,AUTO
        11 000103   300005 635500                    EPPR5   5,,PR3
        11 000104   200007 455500                    STP5    @ORG+3,,AUTO
        11 000105   000003 236000 12                 LDQ     3
        11 000106   200006 756100                    STQ     @ORG+2,,AUTO
        11 000107   200006 630500                    EPPR0   @ORG+2,,AUTO
        11 000110   000000 631400 12                 EPPR1   0
        11 000111   000000 701000 xent               TSX1    Z8AE$ERROR
        11 000112   000000 011000                    NOP     0

       61    12183
       62    12184    2            O1COM.CURRENT_FILE_LTS$ -> FILE_LTS.ORGANIZATION = %RELATIVE;

  12184 11 000113   000002 235007                    LDA     2,DL
        11 000114   000045 470400 xsym               LDP0    O1COM+37
        11 000115   000006 755100                    STA     6,,PR0
        11 000116   000163 710000 11                 TRA     s:12233

       63    12185
       64    12186    2          CASE (%UFF_INDEXED, %MULTICS_INDEXED, %ISP_C_6000_INDEXED);

       65    12187                 %CONDITIONAL_ERROR (@LX_ITEM$ = KEYWORD$,
       66    12188                                     @ERROR#   = %E$FILE_ORG_NOT_SUPPORTED,
       67    12189                                     @LINE     = KEYWORD$ -> LX_TERMINAL.LINE,
       68    12190                                     @COLUMN   = KEYWORD$ -> LX_TERMINAL.COLUMN,
       69    12191                                     @PLUG1    = "DNT$_FROM_RSWNO (%RSV_WRD_INDEXED)");

  12201 11 000117   200003 471500                    LDP1    @KEYWORD$,,AUTO
        11 000120   100000 473500                    LDP3    0,,PR1
        11 000121   300000 236100                    LDQ     0,,PR3
        11 000122   400000 316007                    CANQ    -131072,DL
        11 000123   000140 601000 11                 TNZ     s:12222

  12203 11 000124   000005 236000 12                 LDQ     5
        11 000125   200011 756100                    STQ     @ORG+5,,AUTO
        11 000126   300006 634500                    EPPR4   6,,PR3
        11 000127   200010 454500                    STP4    @ORG+4,,AUTO
PL6.E3A0      #001=Z9EM$FILE_ORG File=Z9EM.:Z8A6TSI                              SAT 08/09/97 13:45 Page:12
        11 000130   300005 635500                    EPPR5   5,,PR3
        11 000131   200007 455500                    STP5    @ORG+3,,AUTO
        11 000132   000003 236000 12                 LDQ     3
        11 000133   200006 756100                    STQ     @ORG+2,,AUTO
        11 000134   200006 630500                    EPPR0   @ORG+2,,AUTO
        11 000135   000000 631400 12                 EPPR1   0
        11 000136   000000 701000 xent               TSX1    Z8AE$ERROR
        11 000137   000000 011000                    NOP     0

       70    12221
       71    12222    2            O1COM.CURRENT_FILE_LTS$ -> FILE_LTS.ORGANIZATION = %INDEXED;

  12222 11 000140   000003 235007                    LDA     3,DL
        11 000141   000045 470400 xsym               LDP0    O1COM+37
        11 000142   000006 755100                    STA     6,,PR0
        11 000143   000163 710000 11                 TRA     s:12233

       72    12223
       73    12224    2          CASE (ELSE);

       74    12225    2            CALL Z8AE$ERROR (%E$UNEXPECTED_CASE,

  12225 11 000144   200003 471500                    LDP1    @KEYWORD$,,AUTO
        11 000145   100000 473500                    LDP3    0,,PR1
        11 000146   300006 634500                    EPPR4   6,,PR3
        11 000147   200010 454500                    STP4    @ORG+4,,AUTO
        11 000150   300005 635500                    EPPR5   5,,PR3
        11 000151   200007 455500                    STP5    @ORG+3,,AUTO
        11 000152   000010 236000 12                 LDQ     8
        11 000153   200006 756100                    STQ     @ORG+2,,AUTO
        11 000154   200006 630500                    EPPR0   @ORG+2,,AUTO
        11 000155   000006 631400 12                 EPPR1   6
        11 000156   000000 701000 xent               TSX1    Z8AE$ERROR
        11 000157   000000 011000                    NOP     0

       75    12226    2                             KEYWORD$ -> LX_TERMINAL.LINE,
       76    12227    2                             KEYWORD$ -> LX_TERMINAL.COLUMN);
PL6.E3A0      #001=Z9EM$FILE_ORG File=Z9EM.:Z8A6TSI                              SAT 08/09/97 13:45 Page:13
       77    12228
       78    12229    2            O1COM.CURRENT_FILE_LTS$ -> FILE_LTS.ORGANIZATION = %SEQUENTIAL;

  12229 11 000160   000001 235007                    LDA     1,DL
        11 000161   000045 470400 xsym               LDP0    O1COM+37
        11 000162   000006 755100                    STA     6,,PR0

       79    12230
       80    12231    2        END; /* Case */

       81    12232
       82    12233    1   END Z9EM$FILE_ORG;

  12233 11 000163   000000 702200 xent               TSX2  ! X66_ARET
       83    12234        %EOD;

PL6.E3A0      #001=Z9EM$FILE_ORG File=Z9EM.:Z8A6TSI                              SAT 08/09/97 13:45 Page:14
--  Include file information  --

   Z8E_WINDOW.:Z8A6TOU  is referenced.
   Z8E_O1COM.:Z8A6TOU  cannot be made into a system file and is referenced.
   Z8A_LEX_SYMB.:Z8A6TOU  cannot be made into a system file and is referenced.
   Z8E_STACKS.:Z8A6TOU  cannot be made into a system file and is referenced.
   Z8E_NEW_ILL.:Z8A6TOU  is referenced.
   Z8E_MACROS.:Z8A6TOU  cannot be made into a system file and is referenced.
   Z8A_ERR_NUMS.:Z8A6TOU  is referenced.
   Z8A_LTS.:Z8A6TOU  cannot be made into a system file and is referenced.
   Z8A_IO_EQUS.:Z8A6TOU  is referenced.
   Z8A_DNT.:Z8A6TOU  cannot be made into a system file and is referenced.
   Z8A_COMCOM.:Z8A6TOU  cannot be made into a system file and is referenced.
   X8A_COM_MACS.:X8A6TOU  is referenced.
   Z8A_NAMES.:Z8A6TOU  is referenced.
   Z8A_SUPP_MAC.:Z8A6TOU  is referenced.
   Z8A_DEFC.:Z8A6TOU  cannot be made into a system file and is referenced.
      No diagnostics issued in procedure Z9EM$FILE_ORG.
PL6.E3A0      #001=Z9EM$FILE_ORG File=Z9EM.:Z8A6TSI                              SAT 08/09/97 13:45 Page:15

 **** Variables and constants ****

  ****  Section 000 LblCom ITERATION

  ****  Scalars and arrays  ****
OctLoc.c.b A Datatyp(siz) R M Lvl/name                 OctLoc.c.b A Datatyp(siz) R M Lvl/name

     0-0-0/w SBIN              1 ITERATION

  ****  Section 001 LblCom DNT$

  ****  Scalars and arrays  ****
OctLoc.c.b A Datatyp(siz) R M Lvl/name                 OctLoc.c.b A Datatyp(siz) R M Lvl/name

     0-0-0/w PTR         r     1 DNT$

  ****  Section 002 LblCom DNT_

  ****  Scalars and arrays  ****
OctLoc.c.b A Datatyp(siz) R M Lvl/name                 OctLoc.c.b A Datatyp(siz) R M Lvl/name

     0-0-0/w STRC(180)         1 DNT_

  ****  Section 003 LblCom DNT_BUCKET_NUMBER

  ****  Scalars and arrays  ****
OctLoc.c.b A Datatyp(siz) R M Lvl/name                 OctLoc.c.b A Datatyp(siz) R M Lvl/name

     0-0-0/w UBIN              1 DNT_BUCKET_NUMBER

  ****  Section 004 LblCom DNT_OF_1$

  ****  Scalars and arrays  ****
OctLoc.c.b A Datatyp(siz) R M Lvl/name                 OctLoc.c.b A Datatyp(siz) R M Lvl/name

     0-0-0/w PTR               1 DNT_OF_1$

PL6.E3A0      #001=Z9EM$FILE_ORG File=Z9EM.:Z8A6TSI                              SAT 08/09/97 13:45 Page:16
  ****  Section 005 LblCom LTS$

  ****  Scalars and arrays  ****
OctLoc.c.b A Datatyp(siz) R M Lvl/name                 OctLoc.c.b A Datatyp(siz) R M Lvl/name

     0-0-0/w PTR               1 LONG_ITEM$                 0-0-0/w PTR         r     1 LTS$

  ****  Section 006 LblCom LTS_

  ****  Scalars and arrays  ****
OctLoc.c.b A Datatyp(siz) R M Lvl/name                 OctLoc.c.b A Datatyp(siz) R M Lvl/name

     0-0-0/w STRC(180)         1 LTS_

  ****  Section 007 LblCom LEX_SYMBOL

  ****  Scalars and arrays  ****
OctLoc.c.b A Datatyp(siz) R M Lvl/name                 OctLoc.c.b A Datatyp(siz) R M Lvl/name

     0-0-0/w STRC(3240)  r     1 LEX_SYMBOL                 0-0-0/w STRC(3240)        1 LEX_SYMBOL_WORDS

  ****  Section 008 LblCom CURRENT_LEX_SYMBOL$

  ****  Scalars and arrays  ****
OctLoc.c.b A Datatyp(siz) R M Lvl/name                 OctLoc.c.b A Datatyp(siz) R M Lvl/name

     0-0-0/w PTR         r     1 CURRENT_LEX_SYMBOL$

  ****  Section 009 LblCom TEMP_LEX_SYMBOL

  ****  Scalars and arrays  ****
OctLoc.c.b A Datatyp(siz) R M Lvl/name                 OctLoc.c.b A Datatyp(siz) R M Lvl/name

     0-0-0/w STRC(3240)        1 TEMP_LEX_SYMBOL

  ****  Section 010 LblCom TEMP_LEX_SYMBOL2

PL6.E3A0      #001=Z9EM$FILE_ORG File=Z9EM.:Z8A6TSI                              SAT 08/09/97 13:45 Page:17
  ****  Scalars and arrays  ****
OctLoc.c.b A Datatyp(siz) R M Lvl/name                 OctLoc.c.b A Datatyp(siz) R M Lvl/name

     0-0-0/w STRC(3240)        1 TEMP_LEX_SYMBOL2

  ****  Auto variables  ****

  ****  Scalars and arrays  ****
OctLoc.c.b A Datatyp(siz) R M Lvl/name                 OctLoc.c.b A Datatyp(siz) R M Lvl/name

     3-0-0/w PTR         r     1 @KEYWORD$                  4-0-0/w PTR         r     1 @ORG
    *0-0-0/w PTR         r     1 KEYWORD$                  *0-0-0/w SBIN        r     1 ORG

  ****  SYMREF variables  ****

  ****  Scalars and arrays  ****
OctLoc.c.b A Datatyp(siz) R M Lvl/name                 OctLoc.c.b A Datatyp(siz) R M Lvl/name

     0-0-0/d STRC(13248)       1 COMCOM
     0-0-0/w PTR         r     1 DNT$_FROM_RSWNO(0:0)
     0-0-0/w STRC(180)         1 HIER_STK(0:50)
     0-0-0/w SBIN              1 HIER_STK_PTR
     0-0-0/w UBIN              1 LTS_STEP(0:37)
     0-0-0/d STRC(11580) r     1 O1COM                      0-0-0/w STRC(144)         1 PAGE_FORMAT
     0-0-0/w STRC(153)         1 REP_STK(0:50)              0-0-0/w SBIN              1 REP_STK_PTR

  ****  BASED and DCB variables  ****

  ****  Scalars and arrays  ****
OctLoc.c.b A Datatyp(siz) R M Lvl/name                 OctLoc.c.b A Datatyp(siz) R M Lvl/name

     0-0-0/w STRC(288)         1 ADD_STMT                   0-0-0/w STRC(144)         1 ALTER_LTS
     0-0-0/w STRC(3672)        1 ALT_KEY                    0-0-0/w STRC(36864)       1 ARGLIST
     0-0-0/w STRC(180)         1 ARRAY_PRESET_LTS           0-0-0/w ASTR(324)   r     1 BASED_LEX_SYMBOL
     0-0-0/w STRC(360)         1 BASED_LEX_SYMBOL_WORDS
     0-0-0/w STRC(288)         1 BASE_LTS                   0-0-0/w STRC(288)         1 BINARY_OP
     0-0-0/w STRC(144)         1 BT                         0-0-0/w STRC(288)         1 CALL_STMT
PL6.E3A0      #001=Z9EM$FILE_ORG File=Z9EM.:Z8A6TSI                              SAT 08/09/97 13:45 Page:18
     0-0-0/w STRC(288)         1 CD_LTS                     0-0-0/w CHAR(4096)        1 CHARS
     0-0-0/w STRC(288)         1 COMPUTE_STMT               0-0-0/w STRC(72)          1 CONT
     0-0-0/w STRC(540)         1 CONTROL_NAME_LTS           0-0-0/w STRC(1872)        1 COPY_FILE
     0-0-0/w STRC(288)         1 DEFERED_IDENTIFIER         0-0-0/w STRC(252)         1 DEFERED_ID_TREE
     0-0-0/w STRC(288)         1 DEFERED_QUAL_ID            0-0-0/w STRC(288)         1 DEFERED_SUM_CLAUSE
     0-0-0/w STRC(288)         1 DEFERED_SUM_CLAUSE_LIST
     0-0-0/w STRC(288)         1 DELETE_STMT                0-0-0/w STRC(108)         1 DEPENDING_SIZE
     0-0-0/w STRC(5472)        1 DIMS                       0-0-0/w STRC(288)         1 DIVIDE_STMT
     0-0-0/w STRC(216)         1 DML_REC                    0-0-0/w ASTR(180)   r     1 DNT
     0-0-0/w STRC(73836)       1 EVALUATE                   0-0-0/w STRC(1692)  r     1 FILE_LTS
     0-0-0/w STRC(288)         1 ILS_LIST                   0-0-0/w STRC(108)         1 INDEXES
     0-0-0/w STRC(360)         1 INIT_LTS                   0-0-0/w STRC(288)         1 INSPECT_1_STMT
     0-0-0/w STRC(288)         1 INSPECT_2_STMT             0-0-0/w STRC(288)         1 INSPECT_4_STMT
     0-0-0/w STRC(180)         1 IO_RESTORE_CHAIN           0-0-0/w STRC(144)         1 KEY
     0-0-0/w STRC(288)         1 LA_ITEM                    0-0-0/w STRC(36864)       1 LCNST
     0-0-0/w STRC(72)          1 LONG                       0-0-0/w STRC              1 LTS
     0-0-0/w STRC(360)         1 LTSS                       0-0-0/w STRC(36936)       1 LTS_PTR_ARRAY
     0-0-0/w STRC(504)         1 LX_CD_INPUT                0-0-0/w STRC(324)         1 LX_CD_I_O
     0-0-0/w STRC(396)         1 LX_CD_OUTPUT               0-0-0/w STRC(288)         1 LX_ETT_ITEM
     0-0-0/w STRC(288)   r     1 LX_ITEM                    0-0-0/w STRC(288)         1 LX_LARGE
     0-0-0/w STRC(288)         1 LX_LIST                    0-0-0/w STRC(1224)        1 LX_REC_DECL
     0-0-0/w STRC(864)         1 LX_REPORT_REC              0-0-0/w STRC(288)   r     1 LX_TERMINAL
     0-0-0/w STRC(288)         1 MULTIPLY_STMT              0-0-0/w STRC(144)         1 NEL
     0-0-0/w STRC(216)         1 OPEN_LTS                   0-0-0/w STRC(36864)       1 PAGE
     0-0-0/w STRC(144)         1 PRIME                      0-0-0/w STRC(900)         1 PROC_SUPP
     0-0-0/w STRC(288)         1 READ_STMT                  0-0-0/w STRC(216)         1 REF
     0-0-0/w STRC(108)         1 RENAMES                    0-0-0/w STRC(720)         1 REPORT_01_LTS
     0-0-0/w STRC(432)         1 REPORT_ELEM_LTS            0-0-0/w STRC(252)         1 REPORT_GRP_LTS
     0-0-0/w STRC(1332)        1 REPORT_LTS                 0-0-0/w STRC(288)         1 REWRITE_STMT
     0-0-0/w STRC(144)         1 RVA_LTS                    0-0-0/w STRC(360)         1 SEGMENT_LTS
     0-0-0/w STRC(288)         1 START_STMT                 0-0-0/w STRC(252)         1 STRING_STMT
     0-0-0/w STRC(288)         1 SUBTRACT_STMT              0-0-0/w STRC(252)         1 SUM_LTS
     0-0-0/w STRC(288)         1 UNARY_OP                   0-0-0/w STRC(288)         1 UNSTRING_STMT
     0-0-0/d STRC(612)         1 USE                        0-0-0/w STRC(252)         1 USE_SUPP
     0-0-0/w STRC(288)         1 WRITE_STMT

PL6.E3A0      #001=Z9EM$FILE_ORG File=Z9EM.:Z8A6TSI                              SAT 08/09/97 13:45 Page:19

   Procedure Z9EM$FILE_ORG requires 116 words for executable code.
   Procedure Z9EM$FILE_ORG requires 10 words of local(AUTO) storage.

PL6.E3A0      #002=Z9EM$VERIFY_DEVICE File=Z9EM.:Z8A6TSI                         SAT 08/09/97 13:46 Page:20
       84        1        /*T***********************************************************/
       85        2        /*T*                                                         */
       86        3        /*T* Copyright (c) Bull HN Information Systems Inc., 1997    */
       87        4        /*T*                                                         */
       88        5        /*T***********************************************************/
       89        6        Z9EM$VERIFY_DEVICE: PROC (DEVICE_LIST$);
       90        7
       91        8         /*P*
       92        9               NAME : Z9EM$VERIFY_DEVICE
       93       10               PURPOSE : To verify the device specified in the source is
       94       11                 valid for the current operating system.
       95       12         */
       96       13
       97       14             %EQU PHASE       = 1;
       98       15
       99       16             %INCLUDE Z8A_DEFC;
      100       84             %INCLUDE Z8A_SUPP_MAC;
      101     2484             %INCLUDE Z8A_COMCOM;
      102     3134             %INCLUDE Z8A_DNT;
      103     3355             %INCLUDE Z8A_ERR_NUMS;
      104     4119             %INCLUDE Z8A_LTS;
      105     6196             %INCLUDE Z8A_IO_EQUS;
      106     6319             %INCLUDE Z8E_STACKS;
      107     8585             %INCLUDE Z8E_O1COM;
      108     9346             %INCLUDE Z8E_WINDOW;
      109    11416             %INCLUDE Z8E_MACROS;
      110    12091
      111    12092    1        DCL DNT$_FROM_RSWNO      (0:0) PTR SYMREF READONLY;
      112    12093
      113    12094    1        DCL Z8AE$ERROR           ENTRY (12);
      114    12095    1        DCL Z9EM$ASSIGN_RECOVERY ENTRY (2);
      115    12096    1        DCL Z9EM$TAPE_CHECK      ENTRY (2) ALTRET;
      116    12097
      117    12098    1        DCL DEVICE_LIST$         PTR; /* Ptr to lx_list */
      118    12099    1        DCL DEVICE$              PTR;
      119    12100    1        DCL LIST$                PTR;
      120    12101        %EJECT;
PL6.E3A0      #002=Z9EM$VERIFY_DEVICE File=Z9EM.:Z8A6TSI                         SAT 08/09/97 13:46 Page:21
      121    12102        /*-------------*/
      122    12103    1     CHECK_FOR_DCB : PROC( DEVICE$ );                /*#34313*/
      123    12104        /*-------------*/
      124    12105
      125    12106    2   DCL DEVICE_LIST$       PTR;
      126    12107    2   DCL DEVICE$            PTR;
      127    12108    2   DCL NAME               CHAR(31);
      128    12109    2   DCL LENGTH             SBIN;
      129    12110    2   DCL POSITION           SBIN;
      130    12111    2   DCL DCB_DNT$           PTR;
      131    12112    2   DCL DEVICE_DNT$        PTR;
      132    12113    2   DCL ASSIGN$            PTR;
      133    12114    2   DCL DEVICE_NAME        CHAR(32);
      134    12115    2   DCL DEVICE_LENGTH      SBIN;
      135    12116
      136    12117
      137    12118    2   DEVICE_DNT$ = DEVICE$ -> LX_TERMINAL.DNT$;
      138    12119    2   DEVICE_NAME = DEVICE_DNT$ -> DNT.TEXT.NAME;
      139    12120    2   DEVICE_LENGTH = DEVICE_DNT$ -> DNT.TEXT.LENGTH;
      140    12121
      141    12122    2   IF SUBSTR( DEVICE_NAME, 0, 4 ) = 'DCB-'    AND
      142    12123    2      DEVICE_LENGTH > 6                          THEN
      143    12124    3     DO;
      144    12125
      145    12126    3       POSITION = 4;
      146    12127    3       LENGTH   = 0;
      147    12128
      148    12129    4       DO WHILE( SUBSTR( DEVICE_NAME, POSITION, 1 ) ~= '-'   AND
      149    12130    4                 ( 4 + LENGTH < DEVICE_LENGTH) );
      150    12131    4         LENGTH = LENGTH + 1;
      151    12132    4         POSITION = POSITION + 1;
      152    12133    4       END;
      153    12134
      154    12135    3       NAME = SUBSTR( DEVICE_NAME, 4, LENGTH );
      155    12136    3       CALL CREATE_DNT( DCB_DNT$, NAME, LENGTH );
      156    12137
      157    12138    3       DCB_DNT$ -> DNT.B.USER_WORD = TRUE;
PL6.E3A0      #002=Z9EM$VERIFY_DEVICE File=Z9EM.:Z8A6TSI                         SAT 08/09/97 13:46 Page:22
      158    12139    3       O1COM.CURRENT_FILE_LTS$ -> FILE_LTS.DCB_DNT$ = DCB_DNT$;
      159    12140
      160    12141    3       LENGTH = LENGTH + 5;   /*  DCB NAME LENGTH + LENGTH( DCB- ) */
      161    12142
      162    12143    3       IF LENGTH < DEVICE_LENGTH   THEN
      163    12144    4         DO;
      164    12145
      165    12146    4           POSITION = LENGTH;
      166    12147    4           LENGTH = DEVICE_LENGTH - POSITION;
      167    12148    4           NAME = SUBSTR( DEVICE_NAME, POSITION, LENGTH );
      168    12149    4           CALL CREATE_DNT( DEVICE_DNT$, NAME, LENGTH );
      169    12150
      170    12151    4           DEVICE$ -> LX_TERMINAL.DNT$ = DEVICE_DNT$;
      171    12152
      172    12153    4         END;
      173    12154    3       ELSE
      174    12155
      175    12156    3         DEVICE$ = DEVICE$ -> LX_TERMINAL.LINK;
      176    12157
      177    12158
      178    12159    3     END;
      179    12160
      180    12161    2   END CHECK_FOR_DCB;
      181    12162        %EJECT;
PL6.E3A0      #002=Z9EM$VERIFY_DEVICE File=Z9EM.:Z8A6TSI                         SAT 08/09/97 13:46 Page:23
      182    12163        /*----------*/
      183    12164    1     CREATE_DNT :PROC( NEW_DNT$,
      184    12165    1   /*----------*/      NAME,
      185    12166    1                       SIZE );
      186    12167
      187    12168    2   DCL NEW_DNT$   PTR;
      188    12169    2   DCL NAME       CHAR(32);
      189    12170    2   DCL SIZE       SBIN;
      190    12171    2   DCL NEW_DNT$$  PTR;
      191    12172
      192    12173    2   DCL Z8AH$NEW_DNT   ENTRY(3);
      193    12174
      194    12175        %DEF_BUCKETS;
      195    12178
      196    12179
      197    12180    2   CALL Z8AH$NEW_DNT( NAME,
      198    12181    2                      SIZE,
      199    12182    2                      NEW_DNT$ );
      200    12183
      201    12184    2   IF NEW_DNT$ -> DNT.B.USER_WORD       THEN
      202    12185    3     DO;
      203    12186    3       CALL Z8AE$ERROR( %E$DUPLICATE_DCB_NAME,
      204    12187    3                        COMCOM.CURRENT.LINE,
      205    12188    3                        COMCOM.CURRENT.COLUMN,
      206    12189    3                        NEW_DNT$ );
      207    12190    3       RETURN;
      208    12191    3     END;
      209    12192    2   IF NEW_DNT$ -> DNT.B.RW  THEN
      210    12193    3     DO;
      211    12194
      212    12195    3       CALL Z8AE$ERROR( %E$RW_USED_AS_DATA_NAME,
      213    12196    3                        COMCOM.CURRENT.LINE,
      214    12197    3                        COMCOM.CURRENT.COLUMN,
      215    12198    3                        NEW_DNT$ );
      216    12199            %NEW_DNT( @SIZE = SIZE,
      217    12200                      @POINTER = NEW_DNT$$,
      218    12201                      @NAME = NAME,
PL6.E3A0      #002=Z9EM$VERIFY_DEVICE File=Z9EM.:Z8A6TSI                         SAT 08/09/97 13:46 Page:24
      219    12202                      @ST$ = "ADDR(NIL)",
      220    12203                      @NEXT = "DNT_BUCKETS(DNT_BUCKET_NUMBER)" );
      221    12261
      222    12262    3       NEW_DNT$$ -> DNT.ATTR = NEW_DNT$ -> DNT.ATTR;
      223    12263    3       NEW_DNT$$ -> DNT.B.USER_WORD = TRUE;
      224    12264    3       NEW_DNT$$ -> DNT.B.RW = FALSE;
      225    12265    3       DNT_BUCKETS(DNT_BUCKET_NUMBER) = NEW_DNT$$;
      226    12266    3       NEW_DNT$ = NEW_DNT$$;
      227    12267
      228    12268    3     END;
      229    12269
      230    12270    2   END CREATE_DNT;
      231    12271        %EJECT;
PL6.E3A0      #002=Z9EM$VERIFY_DEVICE File=Z9EM.:Z8A6TSI                         SAT 08/09/97 13:46 Page:25
      232    12272    1        DEVICE$ = ADDR(NIL);
      233    12273    1        LIST$   = DEVICE_LIST$ -> LX_LIST.HEAD$;
      234    12274
      235    12275    1        CALL CHECK_FOR_DCB( LIST$ );                         /*#34313*/
      236    12276
      237    12277    2        DO WHILE (LIST$ ~= ADDR(NIL));
      238    12278    2   DEVICE_TYPE:
      239    12279    3          DO SELECT (LIST$ -> LX_TERMINAL.DNT$ -> DNT.TEXT.NAME);
      240    12280
      241    12281    3            SELECT (%PRINTER,     %PRINTER_F,     %CARD_READER,
      242    12282    3                    %SYSIN,       %SYSOUT,        %CARD_PUNCH,
      243    12283    3                    %DISK,        %MAGNETIC_TAPE);
      244    12284    3              IF DEVICE$ ~= ADDR(NIL) THEN
      245    12285    4                DO;
      246    12286                       %CONDITIONAL_ERROR (@LX_ITEM$ = LIST$,
      247    12287                                           @ERROR#   = %E$DUP_DD_CLAUSE,
      248    12288                                           @LINE     = LIST$ -> LX_TERMINAL.LINE,
      249    12289                                           @COLUMN   = LIST$ -> LX_TERMINAL.COLUMN,
      250    12290                                           @PLUG1    = "DNT$_FROM_RSWNO(%RSV_WRD_ASSIGN)");
      251    12320
      252    12321    4                  EXIT DEVICE_TYPE;
      253    12322    4                END;
      254    12323
      255    12324                   %NEW_LTS_PTR_ARRAY (@POINTER = DEVICE$,
      256    12325                                       @SIZE    = %MIN_LTS_PTR_ARRAY_SIZE);
      257    12418
      258    12419    3              DEVICE$ -> LTS_PTR_ARRAY.P$ (0) = LIST$ -> LX_TERMINAL.DNT$;
      259    12420
      260    12421    3            SELECT (%DISC);
      261    12422    3              IF DEVICE$ ~= ADDR(NIL) THEN
      262    12423    4                DO;
      263    12424                       %CONDITIONAL_ERROR (@LX_ITEM$ = LIST$,
      264    12425                                           @ERROR#   = %E$DUP_DD_CLAUSE,
      265    12426                                           @LINE     = LIST$ -> LX_TERMINAL.LINE,
      266    12427                                           @COLUMN   = LIST$ -> LX_TERMINAL.COLUMN,
      267    12428                                           @PLUG1    = "DNT$_FROM_RSWNO(%RSV_WRD_ASSIGN)");
      268    12458
PL6.E3A0      #002=Z9EM$VERIFY_DEVICE File=Z9EM.:Z8A6TSI                         SAT 08/09/97 13:46 Page:26
      269    12459    4                  EXIT DEVICE_TYPE;
      270    12460    4                END;
      271    12461
      272    12462    3              CALL Z9EM$ASSIGN_RECOVERY (DEVICE$, DEVICE$);
      273    12463
      274    12464    3            SELECT (ELSE);
      275    12465    3              IF DEVICE$ ~= ADDR(NIL) THEN
      276    12466    4                DO;
      277    12467                       %CONDITIONAL_ERROR (@LX_ITEM$ = LIST$,
      278    12468                                           @ERROR#   = %E$DUP_DD_CLAUSE,
      279    12469                                           @LINE     = LIST$ -> LX_TERMINAL.LINE,
      280    12470                                           @COLUMN   = LIST$ -> LX_TERMINAL.COLUMN,
      281    12471                                           @PLUG1    = "DNT$_FROM_RSWNO(%RSV_WRD_ASSIGN)");
      282    12501
      283    12502    4                  EXIT DEVICE_TYPE;
      284    12503    4                END;
      285    12504
      286    12505                   %CONDITIONAL_ERROR (@LX_ITEM$ = LIST$,
      287    12506                                       @ERROR#   = %E$ILLEGAL_DEVICE,
      288    12507                                       @LINE     = LIST$ -> LX_TERMINAL.LINE,
      289    12508                                       @COLUMN   = LIST$ -> LX_TERMINAL.COLUMN);
      290    12538
      291    12539    3              CALL Z9EM$ASSIGN_RECOVERY (DEVICE$, DEVICE$);
      292    12540
      293    12541    3          END; /* Select */
      294    12542
      295    12543    2          LIST$ = LIST$ -> LX_TERMINAL.LINK;
      296    12544    2        END; /* While */
      297    12545
      298    12546    1        O1COM.CURRENT_FILE_LTS$ -> FILE_LTS.ASSIGN$ = DEVICE$;
      299    12547
      300    12548    1        IF O1COM.CURRENT_FILE_LTS$ -> FILE_LTS.RECORD_DELIM ~= %NOT_SPECIFIED THEN
      301    12549    1          CALL Z9EM$TAPE_CHECK (DEVICE_LIST$ -> LX_LIST.HEAD$,
      302    12550    1                                O1COM.CURRENT_FILE_LTS$);
      303    12551
      304    12552    1   END Z9EM$VERIFY_DEVICE;
      305    12553        %EOD;
PL6.E3A0      #002=Z9EM$VERIFY_DEVICE File=Z9EM.:Z8A6TSI                         SAT 08/09/97 13:46 Page:27

PL6.E3A0      #002=Z9EM$VERIFY_DEVICE File=Z9EM.:Z8A6TSI                         SAT 08/09/97 13:46 Page:28
--  Include file information  --

   Z8E_NEW_ILL.:Z8A6TOU  is referenced.
   Z8E_MACROS.:Z8A6TOU  cannot be made into a system file and is referenced.
   Z8E_WINDOW.:Z8A6TOU  is referenced.
   Z8E_O1COM.:Z8A6TOU  cannot be made into a system file and is referenced.
   Z8A_LEX_SYMB.:Z8A6TOU  cannot be made into a system file and is referenced.
   Z8E_STACKS.:Z8A6TOU  cannot be made into a system file and is referenced.
   Z8A_IO_EQUS.:Z8A6TOU  is referenced.
   Z8A_LTS.:Z8A6TOU  cannot be made into a system file and is referenced.
   Z8A_ERR_NUMS.:Z8A6TOU  is referenced.
   Z8A_DNT.:Z8A6TOU  cannot be made into a system file and is referenced.
   Z8A_COMCOM.:Z8A6TOU  cannot be made into a system file and is referenced.
   X8A_COM_MACS.:X8A6TOU  is referenced.
   Z8A_NAMES.:Z8A6TOU  is referenced.
   Z8A_SUPP_MAC.:Z8A6TOU  is referenced.
   Z8A_DEFC.:Z8A6TOU  cannot be made into a system file and is referenced.
      No diagnostics issued in procedure Z9EM$VERIFY_DEVICE.

   Procedure Z9EM$VERIFY_DEVICE requires 402 words for executable code.
   Procedure Z9EM$VERIFY_DEVICE requires 42 words of local(AUTO) storage.

PL6.E3A0      #002=Z9EM$VERIFY_DEVICE File=Z9EM.:Z8A6TSI                         SAT 08/09/97 13:46 Page:29

 Object Unit name= Z9EM$VERIFY_DEVICE                         File name= Z9EM.:Z8A6TOU
 UTS= AUG 09 '97 13:46:46.84 SAT                              Compiler= PL-6/E31         Sev=      00
 SharedLib= :SHARED_SYSTEM                                    Alt SharedLib=


    ****  Control sections  ****

 Sect   Type Bound  Init  Size OctSiz  Section name(segment info)
    0  LblCom even  none     1      1  ITERATION
    1  LblCom even  none     1      1  DNT$
    2  LblCom even  none     5      5  DNT_
    3  LblCom even  none     1      1  DNT_BUCKET_NUMBER
    4  LblCom even  none     1      1  DNT_OF_1$
    5  LblCom even  none     1      1  LTS$
    6  LblCom even  none     5      5  LTS_
    7  LblCom even  none    90    132  LEX_SYMBOL
    8  LblCom even  none     1      1  CURRENT_LEX_SYMBOL$
    9  LblCom even  none    90    132  TEMP_LEX_SYMBOL
   10  LblCom even  none    90    132  TEMP_LEX_SYMBOL2
   11  RoData even  UTS     22     26  Z9EM$VERIFY_DEVICE
   12   Proc  even  none   402    622  Z9EM$VERIFY_DEVICE
   13  RoData even  none    23     27  Z9EM$VERIFY_DEVICE

    ****  Entry defs  ****

                              Check   Calling
                             calling  sequence
  Sect OctLoc Primary Altret sequence   type   Parms  Name
    12      0   yes            yes      Std        1  Z9EM$VERIFY_DEVICE
PL6.E3A0      #002=Z9EM$VERIFY_DEVICE File=Z9EM.:Z8A6TSI                         SAT 08/09/97 13:46 Page:30

  ****  Entry refs  ****

         Check        Calling
        calling       sequence
Altret sequence SRef   type   Args  Name
         yes           Std      12 Z8AE$ERROR
         yes           Std       2 Z9EM$ASSIGN_RECOVERY
         yes           Std       1 Z8AR$RESERVER
 yes     yes           Std       2 Z9EM$TAPE_CHECK
         yes           Std       3 Z8AH$NEW_DNT
                       nStd      0 X66_AUTO_1
                       nStd      0 X66_ARET

  ****  Data refs  ****

  Flags:  r = read only, s = secondary
Flgs Name                             Flgs Name                             Flgs Name
     COMCOM                           r    LTS_STEP                              O1COM
     HIER_STK_PTR                          HIER_STK                              PAGE_FORMAT
     REP_STK_PTR                           REP_STK                          r    DNT$_FROM_RSWNO
     DNT_BUCKETS

  ****  Segment refs  ****

  Flags:  r = read only, s = secondary
Flgs Name                             Flgs Name                             Flgs Name
     NULLSID                               ISSID
PL6.E3A0      #002=Z9EM$VERIFY_DEVICE File=Z9EM.:Z8A6TSI                         SAT 08/09/97 13:46 Page:31


       84        1        /*T***********************************************************/
       85        2        /*T*                                                         */
       86        3        /*T* Copyright (c) Bull HN Information Systems Inc., 1997    */
       87        4        /*T*                                                         */
       88        5        /*T***********************************************************/
       89        6        Z9EM$VERIFY_DEVICE: PROC (DEVICE_LIST$);

      6 12 000000   000000 700200 xent  Z9EM$VERIFY* TSX0  ! X66_AUTO_1
        12 000001   000052 000001                    ZERO    42,1
        12 000002   000266 710000 12                 TRA     s:12272

       90        7
       91        8         /*P*
       92        9               NAME : Z9EM$VERIFY_DEVICE
       93       10               PURPOSE : To verify the device specified in the source is
       94       11                 valid for the current operating system.
       95       12         */
       96       13
       97       14             %EQU PHASE       = 1;
       98       15
       99       16             %INCLUDE Z8A_DEFC;
      100       84             %INCLUDE Z8A_SUPP_MAC;
      101     2484             %INCLUDE Z8A_COMCOM;
      102     3134             %INCLUDE Z8A_DNT;
      103     3355             %INCLUDE Z8A_ERR_NUMS;
      104     4119             %INCLUDE Z8A_LTS;
      105     6196             %INCLUDE Z8A_IO_EQUS;
      106     6319             %INCLUDE Z8E_STACKS;
      107     8585             %INCLUDE Z8E_O1COM;
      108     9346             %INCLUDE Z8E_WINDOW;
      109    11416             %INCLUDE Z8E_MACROS;
      110    12091
      111    12092    1        DCL DNT$_FROM_RSWNO      (0:0) PTR SYMREF READONLY;
      112    12093
      113    12094    1        DCL Z8AE$ERROR           ENTRY (12);
      114    12095    1        DCL Z9EM$ASSIGN_RECOVERY ENTRY (2);
PL6.E3A0      #002=Z9EM$VERIFY_DEVICE File=Z9EM.:Z8A6TSI                         SAT 08/09/97 13:46 Page:32
      115    12096    1        DCL Z9EM$TAPE_CHECK      ENTRY (2) ALTRET;
      116    12097
      117    12098    1        DCL DEVICE_LIST$         PTR; /* Ptr to lx_list */
      118    12099    1        DCL DEVICE$              PTR;
      119    12100    1        DCL LIST$                PTR;
      120    12101        %EJECT;
PL6.E3A0      #002=Z9EM$VERIFY_DEVICE File=Z9EM.:Z8A6TSI                         SAT 08/09/97 13:46 Page:33
      121    12102        /*-------------*/
      122    12103    1     CHECK_FOR_DCB : PROC( DEVICE$ );                /*#34313*/

  12103 12 000003   200006 741300       CHECK_FOR_D* STX1  ! LIST$+1,,AUTO

      123    12104        /*-------------*/
      124    12105
      125    12106    2   DCL DEVICE_LIST$       PTR;
      126    12107    2   DCL DEVICE$            PTR;
      127    12108    2   DCL NAME               CHAR(31);
      128    12109    2   DCL LENGTH             SBIN;
      129    12110    2   DCL POSITION           SBIN;
      130    12111    2   DCL DCB_DNT$           PTR;
      131    12112    2   DCL DEVICE_DNT$        PTR;
      132    12113    2   DCL ASSIGN$            PTR;
      133    12114    2   DCL DEVICE_NAME        CHAR(32);
      134    12115    2   DCL DEVICE_LENGTH      SBIN;
      135    12116
      136    12117
      137    12118    2   DEVICE_DNT$ = DEVICE$ -> LX_TERMINAL.DNT$;

  12118 12 000004   200007 470500                    LDP0    @DEVICE$,,AUTO
        12 000005   000000 471500                    LDP1    0,,PR0
        12 000006   100002 236100                    LDQ     2,,PR1
        12 000007   200024 756100                    STQ     DEVICE_DNT$,,AUTO

      138    12119    2   DEVICE_NAME = DEVICE_DNT$ -> DNT.TEXT.NAME;

  12119 12 000010   200024 471500                    LDP1    DEVICE_DNT$,,AUTO
        12 000011   100004 220100                    LDX0    4,,PR1
        12 000012   040100 100540                    MLR     fill='040'O
        12 000013   100004 400010                    ADSC9   4,,PR1                   cn=2,n=*X0
        12 000014   200026 000040                    ADSC9   DEVICE_NAME,,AUTO        cn=0,n=32

      139    12120    2   DEVICE_LENGTH = DEVICE_DNT$ -> DNT.TEXT.LENGTH;

  12120 12 000015   100004 236100                    LDQ     4,,PR1
PL6.E3A0      #002=Z9EM$VERIFY_DEVICE File=Z9EM.:Z8A6TSI                         SAT 08/09/97 13:46 Page:34
        12 000016   000022 772000                    QRL     18
        12 000017   200036 756100                    STQ     DEVICE_LENGTH,,AUTO

      140    12121
      141    12122    2   IF SUBSTR( DEVICE_NAME, 0, 4 ) = 'DCB-'    AND

  12122 12 000020   200026 236100                    LDQ     DEVICE_NAME,,AUTO
        12 000021   000000 116000 11                 CMPQ    0
        12 000022   000126 601000 12                 TNZ     s:12161
        12 000023   200036 235100                    LDA     DEVICE_LENGTH,,AUTO
        12 000024   000006 115007                    CMPA    6,DL
        12 000025   000126 604400 12                 TMOZ    s:12161

      142    12123    2      DEVICE_LENGTH > 6                          THEN
      143    12124    3     DO;

      144    12125
      145    12126    3       POSITION = 4;

  12126 12 000026   000004 235007                    LDA     4,DL
        12 000027   200022 755100                    STA     POSITION,,AUTO

      146    12127    3       LENGTH   = 0;

  12127 12 000030   200021 450100                    STZ     LENGTH,,AUTO

      147    12128
      148    12129    4       DO WHILE( SUBSTR( DEVICE_NAME, POSITION, 1 ) ~= '-'   AND

  12129 12 000031   000034 710000 12                 TRA     s:12133

      149    12130    4                 ( 4 + LENGTH < DEVICE_LENGTH) );
      150    12131    4         LENGTH = LENGTH + 1;

  12131 12 000032   200021 054100                    AOS     LENGTH,,AUTO

      151    12132    4         POSITION = POSITION + 1;
PL6.E3A0      #002=Z9EM$VERIFY_DEVICE File=Z9EM.:Z8A6TSI                         SAT 08/09/97 13:46 Page:35

  12132 12 000033   200022 054100                    AOS     POSITION,,AUTO

      152    12133    4       END;

  12133 12 000034   200022 235100                    LDA     POSITION,,AUTO
        12 000035   040000 106505                    CMPC    fill='040'O
        12 000036   200026 000001                    ADSC9   DEVICE_NAME,A,AUTO       cn=0,n=1
        12 000037   000000 000001 13                 ADSC9   0                        cn=0,n=1
        12 000040   000045 600000 12                 TZE     s:12135
        12 000041   200021 236100                    LDQ     LENGTH,,AUTO
        12 000042   000004 036007                    ADLQ    4,DL
        12 000043   200036 116100                    CMPQ    DEVICE_LENGTH,,AUTO
        12 000044   000032 604000 12                 TMI     s:12131

      153    12134
      154    12135    3       NAME = SUBSTR( DEVICE_NAME, 4, LENGTH );

  12135 12 000045   200021 720100                    LXL0    LENGTH,,AUTO
        12 000046   040100 100540                    MLR     fill='040'O
        12 000047   200027 000010                    ADSC9   DEVICE_NAME+1,,AUTO      cn=0,n=*X0
        12 000050   200011 000037                    ADSC9   NAME,,AUTO               cn=0,n=31

      155    12136    3       CALL CREATE_DNT( DCB_DNT$, NAME, LENGTH );

  12136 12 000051   200021 630500                    EPPR0   LENGTH,,AUTO
        12 000052   200043 450500                    STP0    @NAME+1,,AUTO
        12 000053   200011 631500                    EPPR1   NAME,,AUTO
        12 000054   200042 451500                    STP1    @NEW_DNT$+1,,AUTO
        12 000055   200023 633500                    EPPR3   DCB_DNT$,,AUTO
        12 000056   200041 453500                    STP3    DEVICE_LENGTH+3,,AUTO
        12 000057   000130 701000 12                 TSX1    CREATE_DNT
        12 000060   000000 011000                    NOP     0

      156    12137
      157    12138    3       DCB_DNT$ -> DNT.B.USER_WORD = TRUE;

PL6.E3A0      #002=Z9EM$VERIFY_DEVICE File=Z9EM.:Z8A6TSI                         SAT 08/09/97 13:46 Page:36
  12138 12 000061   200023 470500                    LDP0    DCB_DNT$,,AUTO
        12 000062   200000 236003                    LDQ     65536,DU
        12 000063   000003 256100                    ORSQ    3,,PR0

      158    12139    3       O1COM.CURRENT_FILE_LTS$ -> FILE_LTS.DCB_DNT$ = DCB_DNT$;

  12139 12 000064   200023 236100                    LDQ     DCB_DNT$,,AUTO
        12 000065   000045 470400 xsym               LDP0    O1COM+37
        12 000066   000051 756100                    STQ     41,,PR0

      159    12140
      160    12141    3       LENGTH = LENGTH + 5;   /*  DCB NAME LENGTH + LENGTH( DCB- ) */

  12141 12 000067   000005 236007                    LDQ     5,DL
        12 000070   200021 056100                    ASQ     LENGTH,,AUTO

      161    12142
      162    12143    3       IF LENGTH < DEVICE_LENGTH   THEN

  12143 12 000071   200021 236100                    LDQ     LENGTH,,AUTO
        12 000072   200036 116100                    CMPQ    DEVICE_LENGTH,,AUTO
        12 000073   000122 605000 12                 TPL     s:12156

      163    12144    4         DO;

      164    12145
      165    12146    4           POSITION = LENGTH;

  12146 12 000074   200022 756100                    STQ     POSITION,,AUTO

      166    12147    4           LENGTH = DEVICE_LENGTH - POSITION;

  12147 12 000075   200036 236100                    LDQ     DEVICE_LENGTH,,AUTO
        12 000076   200022 136100                    SBLQ    POSITION,,AUTO
        12 000077   200021 756100                    STQ     LENGTH,,AUTO

      167    12148    4           NAME = SUBSTR( DEVICE_NAME, POSITION, LENGTH );
PL6.E3A0      #002=Z9EM$VERIFY_DEVICE File=Z9EM.:Z8A6TSI                         SAT 08/09/97 13:46 Page:37

  12148 12 000100   000000 620006                    EAX0    0,QL
        12 000101   200022 235100                    LDA     POSITION,,AUTO
        12 000102   040100 100545                    MLR     fill='040'O
        12 000103   200026 000010                    ADSC9   DEVICE_NAME,A,AUTO       cn=0,n=*X0
        12 000104   200011 000037                    ADSC9   NAME,,AUTO               cn=0,n=31

      168    12149    4           CALL CREATE_DNT( DEVICE_DNT$, NAME, LENGTH );

  12149 12 000105   200021 631500                    EPPR1   LENGTH,,AUTO
        12 000106   200043 451500                    STP1    @NAME+1,,AUTO
        12 000107   200011 633500                    EPPR3   NAME,,AUTO
        12 000110   200042 453500                    STP3    @NEW_DNT$+1,,AUTO
        12 000111   200024 634500                    EPPR4   DEVICE_DNT$,,AUTO
        12 000112   200041 454500                    STP4    DEVICE_LENGTH+3,,AUTO
        12 000113   000130 701000 12                 TSX1    CREATE_DNT
        12 000114   000000 011000                    NOP     0

      169    12150
      170    12151    4           DEVICE$ -> LX_TERMINAL.DNT$ = DEVICE_DNT$;

  12151 12 000115   200007 470500                    LDP0    @DEVICE$,,AUTO
        12 000116   000000 471500                    LDP1    0,,PR0
        12 000117   200024 236100                    LDQ     DEVICE_DNT$,,AUTO
        12 000120   100002 756100                    STQ     2,,PR1

      171    12152
      172    12153    4         END;

  12153 12 000121   000126 710000 12                 TRA     s:12161

      173    12154    3       ELSE
      174    12155
      175    12156    3         DEVICE$ = DEVICE$ -> LX_TERMINAL.LINK;

  12156 12 000122   200007 471500                    LDP1    @DEVICE$,,AUTO
        12 000123   100000 473500                    LDP3    0,,PR1
PL6.E3A0      #002=Z9EM$VERIFY_DEVICE File=Z9EM.:Z8A6TSI                         SAT 08/09/97 13:46 Page:38
        12 000124   300007 236100                    LDQ     7,,PR3
        12 000125   100000 756100                    STQ     0,,PR1

      176    12157
      177    12158
      178    12159    3     END;

      179    12160
      180    12161    2   END CHECK_FOR_DCB;

  12161 12 000126   200006 221300                    LDX1  ! LIST$+1,,AUTO
        12 000127   000001 702211                    TSX2  ! 1,X1

      181    12162        %EJECT;
PL6.E3A0      #002=Z9EM$VERIFY_DEVICE File=Z9EM.:Z8A6TSI                         SAT 08/09/97 13:46 Page:39
      182    12163        /*----------*/
      183    12164    1     CREATE_DNT :PROC( NEW_DNT$,

  12164 12 000130   200040 741300       CREATE_DNT   STX1  ! DEVICE_LENGTH+2,,AUTO

      184    12165    1   /*----------*/      NAME,
      185    12166    1                       SIZE );
      186    12167
      187    12168    2   DCL NEW_DNT$   PTR;
      188    12169    2   DCL NAME       CHAR(32);
      189    12170    2   DCL SIZE       SBIN;
      190    12171    2   DCL NEW_DNT$$  PTR;
      191    12172
      192    12173    2   DCL Z8AH$NEW_DNT   ENTRY(3);
      193    12174
      194    12175        %DEF_BUCKETS;
      195    12178
      196    12179
      197    12180    2   CALL Z8AH$NEW_DNT( NAME,

  12180 12 000131   200041 236100                    LDQ     @NEW_DNT$,,AUTO
        12 000132   200050 756100                    STQ     NEW_DNT$$+4,,AUTO
        12 000133   200042 237100                    LDAQ    @NAME,,AUTO
        12 000134   200046 757100                    STAQ    NEW_DNT$$+2,,AUTO
        12 000135   200046 630500                    EPPR0   NEW_DNT$$+2,,AUTO
        12 000136   000001 631400 13                 EPPR1   1
        12 000137   000000 701000 xent               TSX1    Z8AH$NEW_DNT
        12 000140   000000 011000                    NOP     0

      198    12181    2                      SIZE,
      199    12182    2                      NEW_DNT$ );
      200    12183
      201    12184    2   IF NEW_DNT$ -> DNT.B.USER_WORD       THEN

  12184 12 000141   200041 470500                    LDP0    @NEW_DNT$,,AUTO
        12 000142   000000 471500                    LDP1    0,,PR0
        12 000143   100003 236100                    LDQ     3,,PR1
PL6.E3A0      #002=Z9EM$VERIFY_DEVICE File=Z9EM.:Z8A6TSI                         SAT 08/09/97 13:46 Page:40
        12 000144   200000 316003                    CANQ    65536,DU
        12 000145   000161 600000 12                 TZE     s:12192

      202    12185    3     DO;

      203    12186    3       CALL Z8AE$ERROR( %E$DUPLICATE_DCB_NAME,

  12186 12 000146   200041 236100                    LDQ     @NEW_DNT$,,AUTO
        12 000147   000004 235000 13                 LDA     4
        12 000150   200050 757100                    STAQ    NEW_DNT$$+4,,AUTO
        12 000151   000006 237000 13                 LDAQ    6
        12 000152   200046 757100                    STAQ    NEW_DNT$$+2,,AUTO
        12 000153   200046 630500                    EPPR0   NEW_DNT$$+2,,AUTO
        12 000154   000002 631400 13                 EPPR1   2
        12 000155   000000 701000 xent               TSX1    Z8AE$ERROR
        12 000156   000000 011000                    NOP     0

      204    12187    3                        COMCOM.CURRENT.LINE,
      205    12188    3                        COMCOM.CURRENT.COLUMN,
      206    12189    3                        NEW_DNT$ );
      207    12190    3       RETURN;

  12190 12 000157   200040 221300                    LDX1  ! DEVICE_LENGTH+2,,AUTO
        12 000160   000001 702211                    TSX2  ! 1,X1

      208    12191    3     END;
      209    12192    2   IF NEW_DNT$ -> DNT.B.RW  THEN

  12192 12 000161   100003 234100                    SZN     3,,PR1
        12 000162   000264 605000 12                 TPL     s:12270

      210    12193    3     DO;

      211    12194
      212    12195    3       CALL Z8AE$ERROR( %E$RW_USED_AS_DATA_NAME,

  12195 12 000163   200041 236100                    LDQ     @NEW_DNT$,,AUTO
PL6.E3A0      #002=Z9EM$VERIFY_DEVICE File=Z9EM.:Z8A6TSI                         SAT 08/09/97 13:46 Page:41
        12 000164   000004 235000 13                 LDA     4
        12 000165   200050 757100                    STAQ    NEW_DNT$$+4,,AUTO
        12 000166   000012 237000 13                 LDAQ    10
        12 000167   200046 757100                    STAQ    NEW_DNT$$+2,,AUTO
        12 000170   200046 630500                    EPPR0   NEW_DNT$$+2,,AUTO
        12 000171   000002 631400 13                 EPPR1   2
        12 000172   000000 701000 xent               TSX1    Z8AE$ERROR
        12 000173   000000 011000                    NOP     0

      213    12196    3                        COMCOM.CURRENT.LINE,
      214    12197    3                        COMCOM.CURRENT.COLUMN,
      215    12198    3                        NEW_DNT$ );
      216    12199            %NEW_DNT( @SIZE = SIZE,
      217    12200                      @POINTER = NEW_DNT$$,
      218    12201                      @NAME = NAME,
      219    12202                      @ST$ = "ADDR(NIL)",
      220    12203                      @NEXT = "DNT_BUCKETS(DNT_BUCKET_NUMBER)" );

  12206 12 000174   200043 470500                    LDP0    @SIZE,,AUTO
        12 000175   000000 236100                    LDQ     0,,PR0
        12 000176   000025 036007                    ADLQ    21,DL
        12 000177   000004 506007                    DIV     4,DL
        12 000200   000000 756000 0                  STQ     ITERATION

  12207 12 000201   000002 036000 2                  ADLQ    DNT_+2
        12 000202   000215 604000 12                 TMI     s:12209
        12 000203   000003 116000 2                  CMPQ    DNT_+3
        12 000204   000215 602000 12                 TNC     s:12209

  12208 12 000205   000014 236000 13                 LDQ     12
        12 000206   200046 756100                    STQ     NEW_DNT$$+2,,AUTO
        12 000207   200046 631500                    EPPR1   NEW_DNT$$+2,,AUTO
        12 000210   200047 451500                    STP1    NEW_DNT$$+3,,AUTO
        12 000211   200047 630500                    EPPR0   NEW_DNT$$+3,,AUTO
        12 000212   000011 631400 13                 EPPR1   9
        12 000213   000000 701000 xent               TSX1    Z8AR$RESERVER
        12 000214   000000 011000                    NOP     0
PL6.E3A0      #002=Z9EM$VERIFY_DEVICE File=Z9EM.:Z8A6TSI                         SAT 08/09/97 13:46 Page:42

  12209 12 000215   000002 236000 2                  LDQ     DNT_+2
        12 000216   000022 736000                    QLS     18
        12 000217   000001 036000 2                  ADLQ    DNT_+1
        12 000220   200044 756100                    STQ     NEW_DNT$$,,AUTO

  12210 12 000221   000002 236000 2                  LDQ     DNT_+2
        12 000222   000000 036000 0                  ADLQ    ITERATION
        12 000223   000002 756000 2                  STQ     DNT_+2

  12211 12 000224   001046 220003                    LDX0    550,DU
        12 000225   200044 470500                    LDP0    NEW_DNT$$,,AUTO
        12 000226   000000 740100                    STX0    0,,PR0

  12212 12 000227   000000 721000 0                  LXL1    ITERATION
        12 000230   000000 441100                    SXL1    0,,PR0

  12213 12 000231   200043 471500                    LDP1    @SIZE,,AUTO
        12 000232   100000 722100                    LXL2    0,,PR1
        12 000233   000004 742100                    STX2    4,,PR0

  12216 12 000234   000015 236000 13                 LDQ     13
        12 000235   000001 756100                    STQ     1,,PR0

  12217 12 000236   000000 723000 3                  LXL3    DNT_BUCKET_NUMBER
        12 000237   000000 236013 xsym               LDQ     DNT_BUCKETS,X3
        12 000240   000002 756100                    STQ     2,,PR0

  12218 12 000241   000000 224003                    LDX4    0,DU
        12 000242   000003 744100                    STX4    3,,PR0

  12219 12 000243   000000 225003                    LDX5    0,DU
        12 000244   000003 445100                    SXL5    3,,PR0

  12220 12 000245   200042 473500                    LDP3    @NAME,,AUTO
        12 000246   040140 100500                    MLR     fill='040'O
        12 000247   300000 000040                    ADSC9   0,,PR3                   cn=0,n=32
PL6.E3A0      #002=Z9EM$VERIFY_DEVICE File=Z9EM.:Z8A6TSI                         SAT 08/09/97 13:46 Page:43
        12 000250   000004 400012                    ADSC9   4,,PR0                   cn=2,n=*X2

      221    12261
      222    12262    3       NEW_DNT$$ -> DNT.ATTR = NEW_DNT$ -> DNT.ATTR;

  12262 12 000251   200041 474500                    LDP4    @NEW_DNT$,,AUTO
        12 000252   400000 475500                    LDP5    0,,PR4
        12 000253   500003 226100                    LDX6    3,,PR5
        12 000254   000003 746100                    STX6    3,,PR0

      223    12263    3       NEW_DNT$$ -> DNT.B.USER_WORD = TRUE;

  12263 12 000255   200000 236003                    LDQ     65536,DU
        12 000256   000003 256100                    ORSQ    3,,PR0

      224    12264    3       NEW_DNT$$ -> DNT.B.RW = FALSE;

  12264 12 000257   000016 236000 13                 LDQ     14
        12 000260   000003 356100                    ANSQ    3,,PR0

      225    12265    3       DNT_BUCKETS(DNT_BUCKET_NUMBER) = NEW_DNT$$;

  12265 12 000261   200044 236100                    LDQ     NEW_DNT$$,,AUTO
        12 000262   000000 756013 xsym               STQ     DNT_BUCKETS,X3

      226    12266    3       NEW_DNT$ = NEW_DNT$$;

  12266 12 000263   400000 756100                    STQ     0,,PR4

      227    12267
      228    12268    3     END;

      229    12269
      230    12270    2   END CREATE_DNT;

  12270 12 000264   200040 221300                    LDX1  ! DEVICE_LENGTH+2,,AUTO
        12 000265   000001 702211                    TSX2  ! 1,X1
PL6.E3A0      #002=Z9EM$VERIFY_DEVICE File=Z9EM.:Z8A6TSI                         SAT 08/09/97 13:46 Page:44

      231    12271        %EJECT;
PL6.E3A0      #002=Z9EM$VERIFY_DEVICE File=Z9EM.:Z8A6TSI                         SAT 08/09/97 13:46 Page:45
      232    12272    1        DEVICE$ = ADDR(NIL);

  12272 12 000266   000015 236000 13                 LDQ     13
        12 000267   200004 756100                    STQ     DEVICE$,,AUTO

      233    12273    1        LIST$   = DEVICE_LIST$ -> LX_LIST.HEAD$;

  12273 12 000270   200003 470500                    LDP0    @DEVICE_LIST$,,AUTO
        12 000271   000000 471500                    LDP1    0,,PR0
        12 000272   100004 236100                    LDQ     4,,PR1
        12 000273   200005 756100                    STQ     LIST$,,AUTO

      234    12274
      235    12275    1        CALL CHECK_FOR_DCB( LIST$ );                         /*#34313*/

  12275 12 000274   200005 631500                    EPPR1   LIST$,,AUTO
        12 000275   200007 451500                    STP1    LIST$+2,,AUTO
        12 000276   000003 701000 12                 TSX1    CHECK_FOR_DCB
        12 000277   000000 011000                    NOP     0

      236    12276
      237    12277    2        DO WHILE (LIST$ ~= ADDR(NIL));

  12277 12 000300   000576 710000 12                 TRA     s:12544

      238    12278    2   DEVICE_TYPE:
      239    12279    3          DO SELECT (LIST$ -> LX_TERMINAL.DNT$ -> DNT.TEXT.NAME);

  12279 12 000301   200005 470500       DEVICE_TYPE  LDP0    LIST$,,AUTO
        12 000302   000002 471500                    LDP1    2,,PR0
        12 000303   100004 220100                    LDX0    4,,PR1
        12 000304   040000 106540                    CMPC    fill='040'O
        12 000305   100004 400010                    ADSC9   4,,PR1                   cn=2,n=*X0
        12 000306   000001 000007 11                 ADSC9   1                        cn=0,n=7
        12 000307   000330 602000 12                 TNC     DEVICE_TYPE+23
        12 000310   000361 600000 12                 TZE     s:12284
        12 000311   040000 106540                    CMPC    fill='040'O
PL6.E3A0      #002=Z9EM$VERIFY_DEVICE File=Z9EM.:Z8A6TSI                         SAT 08/09/97 13:46 Page:46
        12 000312   100004 400010                    ADSC9   4,,PR1                   cn=2,n=*X0
        12 000313   000003 000005 11                 ADSC9   3                        cn=0,n=5
        12 000314   000323 602000 12                 TNC     DEVICE_TYPE+18
        12 000315   000361 600000 12                 TZE     s:12284
        12 000316   040000 106540                    CMPC    fill='040'O
        12 000317   100004 400010                    ADSC9   4,,PR1                   cn=2,n=*X0
        12 000320   000005 000006 11                 ADSC9   5                        cn=0,n=6
        12 000321   000513 601000 12                 TNZ     s:12465
        12 000322   000361 710000 12                 TRA     s:12284
        12 000323   040000 106540                    CMPC    fill='040'O
        12 000324   100004 400010                    ADSC9   4,,PR1                   cn=2,n=*X0
        12 000325   000007 000011 11                 ADSC9   7                        cn=0,n=9
        12 000326   000513 601000 12                 TNZ     s:12465
        12 000327   000361 710000 12                 TRA     s:12284
        12 000330   040000 106540                    CMPC    fill='040'O
        12 000331   100004 400010                    ADSC9   4,,PR1                   cn=2,n=*X0
        12 000332   000012 000013 11                 ADSC9   10                       cn=0,n=11
        12 000333   000354 602000 12                 TNC     DEVICE_TYPE+43
        12 000334   000361 600000 12                 TZE     s:12284
        12 000335   040000 106540                    CMPC    fill='040'O
        12 000336   100004 400010                    ADSC9   4,,PR1                   cn=2,n=*X0
        12 000337   000015 000004 11                 ADSC9   13                       cn=0,n=4
        12 000340   000347 602000 12                 TNC     DEVICE_TYPE+38
        12 000341   000361 600000 12                 TZE     s:12284
        12 000342   040000 106540                    CMPC    fill='040'O
        12 000343   100004 400010                    ADSC9   4,,PR1                   cn=2,n=*X0
        12 000344   000016 000015 11                 ADSC9   14                       cn=0,n=13
        12 000345   000513 601000 12                 TNZ     s:12465
        12 000346   000361 710000 12                 TRA     s:12284
        12 000347   040000 106540                    CMPC    fill='040'O
        12 000350   100004 400010                    ADSC9   4,,PR1                   cn=2,n=*X0
        12 000351   000022 000004 11                 ADSC9   18                       cn=0,n=4
        12 000352   000513 601000 12                 TNZ     s:12465
        12 000353   000453 710000 12                 TRA     s:12422
        12 000354   040000 106540                    CMPC    fill='040'O
        12 000355   100004 400010                    ADSC9   4,,PR1                   cn=2,n=*X0
        12 000356   000023 000012 11                 ADSC9   19                       cn=0,n=10
PL6.E3A0      #002=Z9EM$VERIFY_DEVICE File=Z9EM.:Z8A6TSI                         SAT 08/09/97 13:46 Page:47
        12 000357   000513 601000 12                 TNZ     s:12465
        12 000360   000361 710000 12                 TRA     s:12284

      240    12280
      241    12281    3            SELECT (%PRINTER,     %PRINTER_F,     %CARD_READER,

      242    12282    3                    %SYSIN,       %SYSOUT,        %CARD_PUNCH,
      243    12283    3                    %DISK,        %MAGNETIC_TAPE);
      244    12284    3              IF DEVICE$ ~= ADDR(NIL) THEN

  12284 12 000361   200004 236100                    LDQ     DEVICE$,,AUTO
        12 000362   000015 116000 13                 CMPQ    13
        12 000363   000410 600000 12                 TZE     s:12327

      245    12285    4                DO;

      246    12286                       %CONDITIONAL_ERROR (@LX_ITEM$ = LIST$,
      247    12287                                           @ERROR#   = %E$DUP_DD_CLAUSE,
      248    12288                                           @LINE     = LIST$ -> LX_TERMINAL.LINE,
      249    12289                                           @COLUMN   = LIST$ -> LX_TERMINAL.COLUMN,
      250    12290                                           @PLUG1    = "DNT$_FROM_RSWNO(%RSV_WRD_ASSIGN)");

  12300 12 000364   000000 236100                    LDQ     0,,PR0
        12 000365   400000 316007                    CANQ    -131072,DL
        12 000366   000407 601000 12                 TNZ     s:12321

  12302 12 000367   000020 236000 13                 LDQ     16
        12 000370   200051 756100                    STQ     NEW_DNT$$+5,,AUTO
        12 000371   200005 236100                    LDQ     LIST$,,AUTO
        12 000372   000006 036003                    ADLQ    6,DU
        12 000373   200050 756100                    STQ     NEW_DNT$$+4,,AUTO
        12 000374   200005 236100                    LDQ     LIST$,,AUTO
        12 000375   000005 036003                    ADLQ    5,DU
        12 000376   000021 235000 13                 LDA     17
        12 000377   200046 757100                    STAQ    NEW_DNT$$+2,,AUTO
        12 000400   200046 630500                    EPPR0   NEW_DNT$$+2,,AUTO
        12 000401   000002 631400 13                 EPPR1   2
PL6.E3A0      #002=Z9EM$VERIFY_DEVICE File=Z9EM.:Z8A6TSI                         SAT 08/09/97 13:46 Page:48
        12 000402   000000 701000 xent               TSX1    Z8AE$ERROR
        12 000403   000000 011000                    NOP     0

  12311 12 000404   200005 470500                    LDP0    LIST$,,AUTO
        12 000405   400000 236007                    LDQ     -131072,DL
        12 000406   000000 256100                    ORSQ    0,,PR0

      251    12320
      252    12321    4                  EXIT DEVICE_TYPE;

  12321 12 000407   000573 710000 12                 TRA     s:12543

      253    12322    4                END;
      254    12323
      255    12324                   %NEW_LTS_PTR_ARRAY (@POINTER = DEVICE$,
      256    12325                                       @SIZE    = %MIN_LTS_PTR_ARRAY_SIZE);

  12327 12 000410   000003 235007                    LDA     3,DL
        12 000411   000000 755000 0                  STA     ITERATION

  12405 12 000412   000002 236000 6                  LDQ     LTS_+2
        12 000413   000000 036000 0                  ADLQ    ITERATION
        12 000414   000003 116000 6                  CMPQ    LTS_+3
        12 000415   000426 604000 12                 TMI     s:12407

  12406 12 000416   000022 236000 13                 LDQ     18
        12 000417   200046 756100                    STQ     NEW_DNT$$+2,,AUTO
        12 000420   200046 631500                    EPPR1   NEW_DNT$$+2,,AUTO
        12 000421   200047 451500                    STP1    NEW_DNT$$+3,,AUTO
        12 000422   200047 630500                    EPPR0   NEW_DNT$$+3,,AUTO
        12 000423   000011 631400 13                 EPPR1   9
        12 000424   000000 701000 xent               TSX1    Z8AR$RESERVER
        12 000425   000000 011000                    NOP     0

  12407 12 000426   000002 236000 6                  LDQ     LTS_+2
        12 000427   000022 736000                    QLS     18
        12 000430   000001 036000 6                  ADLQ    LTS_+1
PL6.E3A0      #002=Z9EM$VERIFY_DEVICE File=Z9EM.:Z8A6TSI                         SAT 08/09/97 13:46 Page:49
        12 000431   200004 756100                    STQ     DEVICE$,,AUTO

  12408 12 000432   000002 236000 6                  LDQ     LTS_+2
        12 000433   000000 036000 0                  ADLQ    ITERATION
        12 000434   000002 756000 6                  STQ     LTS_+2

  12409 12 000435   001122 220003                    LDX0    594,DU
        12 000436   200004 470500                    LDP0    DEVICE$,,AUTO
        12 000437   000000 740100                    STX0    0,,PR0

  12411 12 000440   000000 721000 0                  LXL1    ITERATION
        12 000441   200004 470500                    LDP0    DEVICE$,,AUTO
        12 000442   000000 441100                    SXL1    0,,PR0

  12415 12 000443   000015 236000 13                 LDQ     13
        12 000444   200004 470500                    LDP0    DEVICE$,,AUTO
        12 000445   000001 756100                    STQ     1,,PR0

      257    12418
      258    12419    3              DEVICE$ -> LTS_PTR_ARRAY.P$ (0) = LIST$ -> LX_TERMINAL.DNT$;

  12419 12 000446   200005 470500                    LDP0    LIST$,,AUTO
        12 000447   000002 236100                    LDQ     2,,PR0
        12 000450   200004 471500                    LDP1    DEVICE$,,AUTO
        12 000451   100002 756100                    STQ     2,,PR1
        12 000452   000573 710000 12                 TRA     s:12543

      259    12420
      260    12421    3            SELECT (%DISC);

      261    12422    3              IF DEVICE$ ~= ADDR(NIL) THEN

  12422 12 000453   200004 236100                    LDQ     DEVICE$,,AUTO
        12 000454   000015 116000 13                 CMPQ    13
        12 000455   000502 600000 12                 TZE     s:12462

      262    12423    4                DO;
PL6.E3A0      #002=Z9EM$VERIFY_DEVICE File=Z9EM.:Z8A6TSI                         SAT 08/09/97 13:46 Page:50

      263    12424                       %CONDITIONAL_ERROR (@LX_ITEM$ = LIST$,
      264    12425                                           @ERROR#   = %E$DUP_DD_CLAUSE,
      265    12426                                           @LINE     = LIST$ -> LX_TERMINAL.LINE,
      266    12427                                           @COLUMN   = LIST$ -> LX_TERMINAL.COLUMN,
      267    12428                                           @PLUG1    = "DNT$_FROM_RSWNO(%RSV_WRD_ASSIGN)");

  12438 12 000456   000000 236100                    LDQ     0,,PR0
        12 000457   400000 316007                    CANQ    -131072,DL
        12 000460   000501 601000 12                 TNZ     s:12459

  12440 12 000461   000020 236000 13                 LDQ     16
        12 000462   200051 756100                    STQ     NEW_DNT$$+5,,AUTO
        12 000463   200005 236100                    LDQ     LIST$,,AUTO
        12 000464   000006 036003                    ADLQ    6,DU
        12 000465   200050 756100                    STQ     NEW_DNT$$+4,,AUTO
        12 000466   200005 236100                    LDQ     LIST$,,AUTO
        12 000467   000005 036003                    ADLQ    5,DU
        12 000470   000021 235000 13                 LDA     17
        12 000471   200046 757100                    STAQ    NEW_DNT$$+2,,AUTO
        12 000472   200046 630500                    EPPR0   NEW_DNT$$+2,,AUTO
        12 000473   000002 631400 13                 EPPR1   2
        12 000474   000000 701000 xent               TSX1    Z8AE$ERROR
        12 000475   000000 011000                    NOP     0

  12449 12 000476   200005 470500                    LDP0    LIST$,,AUTO
        12 000477   400000 236007                    LDQ     -131072,DL
        12 000500   000000 256100                    ORSQ    0,,PR0

      268    12458
      269    12459    4                  EXIT DEVICE_TYPE;

  12459 12 000501   000573 710000 12                 TRA     s:12543

      270    12460    4                END;
      271    12461
      272    12462    3              CALL Z9EM$ASSIGN_RECOVERY (DEVICE$, DEVICE$);
PL6.E3A0      #002=Z9EM$VERIFY_DEVICE File=Z9EM.:Z8A6TSI                         SAT 08/09/97 13:46 Page:51

  12462 12 000502   200004 633500                    EPPR3   DEVICE$,,AUTO
        12 000503   200047 453500                    STP3    NEW_DNT$$+3,,AUTO
        12 000504   200004 631500                    EPPR1   DEVICE$,,AUTO
        12 000505   200046 451500                    STP1    NEW_DNT$$+2,,AUTO
        12 000506   200046 630500                    EPPR0   NEW_DNT$$+2,,AUTO
        12 000507   000023 631400 13                 EPPR1   19
        12 000510   000000 701000 xent               TSX1    Z9EM$ASSIGN_RECOVERY
        12 000511   000000 011000                    NOP     0
        12 000512   000573 710000 12                 TRA     s:12543

      273    12463
      274    12464    3            SELECT (ELSE);

      275    12465    3              IF DEVICE$ ~= ADDR(NIL) THEN

  12465 12 000513   200004 236100                    LDQ     DEVICE$,,AUTO
        12 000514   000015 116000 13                 CMPQ    13
        12 000515   000542 600000 12                 TZE     s:12518

      276    12466    4                DO;

      277    12467                       %CONDITIONAL_ERROR (@LX_ITEM$ = LIST$,
      278    12468                                           @ERROR#   = %E$DUP_DD_CLAUSE,
      279    12469                                           @LINE     = LIST$ -> LX_TERMINAL.LINE,
      280    12470                                           @COLUMN   = LIST$ -> LX_TERMINAL.COLUMN,
      281    12471                                           @PLUG1    = "DNT$_FROM_RSWNO(%RSV_WRD_ASSIGN)");

  12481 12 000516   000000 236100                    LDQ     0,,PR0
        12 000517   400000 316007                    CANQ    -131072,DL
        12 000520   000541 601000 12                 TNZ     s:12502

  12483 12 000521   000020 236000 13                 LDQ     16
        12 000522   200051 756100                    STQ     NEW_DNT$$+5,,AUTO
        12 000523   200005 236100                    LDQ     LIST$,,AUTO
        12 000524   000006 036003                    ADLQ    6,DU
        12 000525   200050 756100                    STQ     NEW_DNT$$+4,,AUTO
PL6.E3A0      #002=Z9EM$VERIFY_DEVICE File=Z9EM.:Z8A6TSI                         SAT 08/09/97 13:46 Page:52
        12 000526   200005 236100                    LDQ     LIST$,,AUTO
        12 000527   000005 036003                    ADLQ    5,DU
        12 000530   000021 235000 13                 LDA     17
        12 000531   200046 757100                    STAQ    NEW_DNT$$+2,,AUTO
        12 000532   200046 630500                    EPPR0   NEW_DNT$$+2,,AUTO
        12 000533   000002 631400 13                 EPPR1   2
        12 000534   000000 701000 xent               TSX1    Z8AE$ERROR
        12 000535   000000 011000                    NOP     0

  12492 12 000536   200005 470500                    LDP0    LIST$,,AUTO
        12 000537   400000 236007                    LDQ     -131072,DL
        12 000540   000000 256100                    ORSQ    0,,PR0

      282    12501
      283    12502    4                  EXIT DEVICE_TYPE;

  12502 12 000541   000573 710000 12                 TRA     s:12543

      284    12503    4                END;
      285    12504
      286    12505                   %CONDITIONAL_ERROR (@LX_ITEM$ = LIST$,
      287    12506                                       @ERROR#   = %E$ILLEGAL_DEVICE,
      288    12507                                       @LINE     = LIST$ -> LX_TERMINAL.LINE,
      289    12508                                       @COLUMN   = LIST$ -> LX_TERMINAL.COLUMN);

  12518 12 000542   000000 236100                    LDQ     0,,PR0
        12 000543   400000 316007                    CANQ    -131072,DL
        12 000544   000563 601000 12                 TNZ     s:12539

  12520 12 000545   200005 236100                    LDQ     LIST$,,AUTO
        12 000546   000006 036003                    ADLQ    6,DU
        12 000547   200050 756100                    STQ     NEW_DNT$$+4,,AUTO
        12 000550   200005 236100                    LDQ     LIST$,,AUTO
        12 000551   000005 036003                    ADLQ    5,DU
        12 000552   000025 235000 13                 LDA     21
        12 000553   200046 757100                    STAQ    NEW_DNT$$+2,,AUTO
        12 000554   200046 630500                    EPPR0   NEW_DNT$$+2,,AUTO
PL6.E3A0      #002=Z9EM$VERIFY_DEVICE File=Z9EM.:Z8A6TSI                         SAT 08/09/97 13:46 Page:53
        12 000555   000001 631400 13                 EPPR1   1
        12 000556   000000 701000 xent               TSX1    Z8AE$ERROR
        12 000557   000000 011000                    NOP     0

  12529 12 000560   200005 470500                    LDP0    LIST$,,AUTO
        12 000561   400000 236007                    LDQ     -131072,DL
        12 000562   000000 256100                    ORSQ    0,,PR0

      290    12538
      291    12539    3              CALL Z9EM$ASSIGN_RECOVERY (DEVICE$, DEVICE$);

  12539 12 000563   200004 630500                    EPPR0   DEVICE$,,AUTO
        12 000564   200047 450500                    STP0    NEW_DNT$$+3,,AUTO
        12 000565   200004 631500                    EPPR1   DEVICE$,,AUTO
        12 000566   200046 451500                    STP1    NEW_DNT$$+2,,AUTO
        12 000567   200046 630500                    EPPR0   NEW_DNT$$+2,,AUTO
        12 000570   000023 631400 13                 EPPR1   19
        12 000571   000000 701000 xent               TSX1    Z9EM$ASSIGN_RECOVERY
        12 000572   000000 011000                    NOP     0

      292    12540
      293    12541    3          END; /* Select */

      294    12542
      295    12543    2          LIST$ = LIST$ -> LX_TERMINAL.LINK;

  12543 12 000573   200005 470500                    LDP0    LIST$,,AUTO
        12 000574   000007 236100                    LDQ     7,,PR0
        12 000575   200005 756100                    STQ     LIST$,,AUTO

      296    12544    2        END; /* While */

  12544 12 000576   200005 236100                    LDQ     LIST$,,AUTO
        12 000577   000015 116000 13                 CMPQ    13
        12 000600   000301 601000 12                 TNZ     DEVICE_TYPE

      297    12545
PL6.E3A0      #002=Z9EM$VERIFY_DEVICE File=Z9EM.:Z8A6TSI                         SAT 08/09/97 13:46 Page:54
      298    12546    1        O1COM.CURRENT_FILE_LTS$ -> FILE_LTS.ASSIGN$ = DEVICE$;

  12546 12 000601   200004 236100                    LDQ     DEVICE$,,AUTO
        12 000602   000045 470400 xsym               LDP0    O1COM+37
        12 000603   000004 756100                    STQ     4,,PR0

      299    12547
      300    12548    1        IF O1COM.CURRENT_FILE_LTS$ -> FILE_LTS.RECORD_DELIM ~= %NOT_SPECIFIED THEN

  12548 12 000604   000045 470400 xsym               LDP0    O1COM+37
        12 000605   000010 235100                    LDA     8,,PR0
        12 000606   000621 600000 12                 TZE     s:12552

      301    12549    1          CALL Z9EM$TAPE_CHECK (DEVICE_LIST$ -> LX_LIST.HEAD$,

  12549 12 000607   200003 471500                    LDP1    @DEVICE_LIST$,,AUTO
        12 000610   100000 473500                    LDP3    0,,PR1
        12 000611   000026 236000 13                 LDQ     22
        12 000612   200047 756100                    STQ     NEW_DNT$$+3,,AUTO
        12 000613   300004 634500                    EPPR4   4,,PR3
        12 000614   200046 454500                    STP4    NEW_DNT$$+2,,AUTO
        12 000615   200046 630500                    EPPR0   NEW_DNT$$+2,,AUTO
        12 000616   000023 631400 13                 EPPR1   19
        12 000617   000000 701000 xent               TSX1    Z9EM$TAPE_CHECK
        12 000620   000000 011000                    NOP     0

      302    12550    1                                O1COM.CURRENT_FILE_LTS$);
      303    12551
      304    12552    1   END Z9EM$VERIFY_DEVICE;

  12552 12 000621   000000 702200 xent               TSX2  ! X66_ARET
      305    12553        %EOD;

PL6.E3A0      #002=Z9EM$VERIFY_DEVICE File=Z9EM.:Z8A6TSI                         SAT 08/09/97 13:46 Page:55
--  Include file information  --

   Z8E_NEW_ILL.:Z8A6TOU  is referenced.
   Z8E_MACROS.:Z8A6TOU  cannot be made into a system file and is referenced.
   Z8E_WINDOW.:Z8A6TOU  is referenced.
   Z8E_O1COM.:Z8A6TOU  cannot be made into a system file and is referenced.
   Z8A_LEX_SYMB.:Z8A6TOU  cannot be made into a system file and is referenced.
   Z8E_STACKS.:Z8A6TOU  cannot be made into a system file and is referenced.
   Z8A_IO_EQUS.:Z8A6TOU  is referenced.
   Z8A_LTS.:Z8A6TOU  cannot be made into a system file and is referenced.
   Z8A_ERR_NUMS.:Z8A6TOU  is referenced.
   Z8A_DNT.:Z8A6TOU  cannot be made into a system file and is referenced.
   Z8A_COMCOM.:Z8A6TOU  cannot be made into a system file and is referenced.
   X8A_COM_MACS.:X8A6TOU  is referenced.
   Z8A_NAMES.:Z8A6TOU  is referenced.
   Z8A_SUPP_MAC.:Z8A6TOU  is referenced.
   Z8A_DEFC.:Z8A6TOU  cannot be made into a system file and is referenced.
      No diagnostics issued in procedure Z9EM$VERIFY_DEVICE.
PL6.E3A0      #002=Z9EM$VERIFY_DEVICE File=Z9EM.:Z8A6TSI                         SAT 08/09/97 13:46 Page:56

 **** Variables and constants ****

  ****  Section 000 LblCom ITERATION

  ****  Scalars and arrays  ****
OctLoc.c.b A Datatyp(siz) R M Lvl/name                 OctLoc.c.b A Datatyp(siz) R M Lvl/name

     0-0-0/w SBIN        r     1 ITERATION

  ****  Section 001 LblCom DNT$

  ****  Scalars and arrays  ****
OctLoc.c.b A Datatyp(siz) R M Lvl/name                 OctLoc.c.b A Datatyp(siz) R M Lvl/name

     0-0-0/w PTR         r     1 DNT$

  ****  Section 002 LblCom DNT_

  ****  Scalars and arrays  ****
OctLoc.c.b A Datatyp(siz) R M Lvl/name                 OctLoc.c.b A Datatyp(siz) R M Lvl/name

     0-0-0/w STRC(180)   r     1 DNT_

  ****  Section 003 LblCom DNT_BUCKET_NUMBER

  ****  Scalars and arrays  ****
OctLoc.c.b A Datatyp(siz) R M Lvl/name                 OctLoc.c.b A Datatyp(siz) R M Lvl/name

     0-0-0/w UBIN        r     1 DNT_BUCKET_NUMBER

  ****  Section 004 LblCom DNT_OF_1$

  ****  Scalars and arrays  ****
OctLoc.c.b A Datatyp(siz) R M Lvl/name                 OctLoc.c.b A Datatyp(siz) R M Lvl/name

     0-0-0/w PTR               1 DNT_OF_1$

PL6.E3A0      #002=Z9EM$VERIFY_DEVICE File=Z9EM.:Z8A6TSI                         SAT 08/09/97 13:46 Page:57
  ****  Section 005 LblCom LTS$

  ****  Scalars and arrays  ****
OctLoc.c.b A Datatyp(siz) R M Lvl/name                 OctLoc.c.b A Datatyp(siz) R M Lvl/name

     0-0-0/w PTR               1 LONG_ITEM$                 0-0-0/w PTR         r     1 LTS$

  ****  Section 006 LblCom LTS_

  ****  Scalars and arrays  ****
OctLoc.c.b A Datatyp(siz) R M Lvl/name                 OctLoc.c.b A Datatyp(siz) R M Lvl/name

     0-0-0/w STRC(180)   r     1 LTS_

  ****  Section 007 LblCom LEX_SYMBOL

  ****  Scalars and arrays  ****
OctLoc.c.b A Datatyp(siz) R M Lvl/name                 OctLoc.c.b A Datatyp(siz) R M Lvl/name

     0-0-0/w STRC(3240)  r     1 LEX_SYMBOL                 0-0-0/w STRC(3240)        1 LEX_SYMBOL_WORDS

  ****  Section 008 LblCom CURRENT_LEX_SYMBOL$

  ****  Scalars and arrays  ****
OctLoc.c.b A Datatyp(siz) R M Lvl/name                 OctLoc.c.b A Datatyp(siz) R M Lvl/name

     0-0-0/w PTR         r     1 CURRENT_LEX_SYMBOL$

  ****  Section 009 LblCom TEMP_LEX_SYMBOL

  ****  Scalars and arrays  ****
OctLoc.c.b A Datatyp(siz) R M Lvl/name                 OctLoc.c.b A Datatyp(siz) R M Lvl/name

     0-0-0/w STRC(3240)        1 TEMP_LEX_SYMBOL

  ****  Section 010 LblCom TEMP_LEX_SYMBOL2

PL6.E3A0      #002=Z9EM$VERIFY_DEVICE File=Z9EM.:Z8A6TSI                         SAT 08/09/97 13:46 Page:58
  ****  Scalars and arrays  ****
OctLoc.c.b A Datatyp(siz) R M Lvl/name                 OctLoc.c.b A Datatyp(siz) R M Lvl/name

     0-0-0/w STRC(3240)        1 TEMP_LEX_SYMBOL2

  ****  Auto variables  ****

  ****  Scalars and arrays  ****
OctLoc.c.b A Datatyp(siz) R M Lvl/name                 OctLoc.c.b A Datatyp(siz) R M Lvl/name

     7-0-0/w PTR         r     1 @DEVICE$                   3-0-0/w PTR         r     1 @DEVICE_LIST$
    42-0-0/w PTR         r     1 @NAME                     41-0-0/w PTR         r     1 @NEW_DNT$
    43-0-0/w PTR         r     1 @SIZE                     25-0-0/w PTR               1 ASSIGN$
    23-0-0/w PTR         r     1 DCB_DNT$                   4-0-0/w PTR         r     1 DEVICE$
    *0-0-0/w PTR         r     1 DEVICE$                   24-0-0/w PTR         r     1 DEVICE_DNT$
    36-0-0/w SBIN        r     1 DEVICE_LENGTH             *0-0-0/w PTR         r     1 DEVICE_LIST$
    10-0-0/w PTR               1 DEVICE_LIST$              26-0-0/c CHAR(32)    r     1 DEVICE_NAME
    21-0-0/w SBIN        r     1 LENGTH                     5-0-0/w PTR         r     1 LIST$
    11-0-0/c CHAR(31)    r     1 NAME                      *0-0-0/c CHAR(32)    r     1 NAME
    *0-0-0/w PTR         r     1 NEW_DNT$                  44-0-0/w PTR         r     1 NEW_DNT$$
    22-0-0/w SBIN        r     1 POSITION                  *0-0-0/w SBIN        r     1 SIZE

  ****  SYMREF variables  ****

  ****  Scalars and arrays  ****
OctLoc.c.b A Datatyp(siz) R M Lvl/name                 OctLoc.c.b A Datatyp(siz) R M Lvl/name

     0-0-0/d STRC(13248) r     1 COMCOM
     0-0-0/w PTR         r     1 DNT$_FROM_RSWNO(0:0)
     0-0-0/w PTR         r     1 DNT_BUCKETS(0:1128)
     0-0-0/w STRC(180)         1 HIER_STK(0:50)
     0-0-0/w SBIN              1 HIER_STK_PTR
     0-0-0/w UBIN              1 LTS_STEP(0:37)
     0-0-0/d STRC(11580) r     1 O1COM                      0-0-0/w STRC(144)         1 PAGE_FORMAT
     0-0-0/w STRC(153)         1 REP_STK(0:50)              0-0-0/w SBIN              1 REP_STK_PTR

  ****  BASED and DCB variables  ****
PL6.E3A0      #002=Z9EM$VERIFY_DEVICE File=Z9EM.:Z8A6TSI                         SAT 08/09/97 13:46 Page:59

  ****  Scalars and arrays  ****
OctLoc.c.b A Datatyp(siz) R M Lvl/name                 OctLoc.c.b A Datatyp(siz) R M Lvl/name

     0-0-0/w STRC(288)         1 ADD_STMT                   0-0-0/w STRC(144)         1 ALTER_LTS
     0-0-0/w STRC(3672)        1 ALT_KEY                    0-0-0/w STRC(36864)       1 ARGLIST
     0-0-0/w STRC(180)         1 ARRAY_PRESET_LTS           0-0-0/w ASTR(324)   r     1 BASED_LEX_SYMBOL
     0-0-0/w STRC(360)         1 BASED_LEX_SYMBOL_WORDS
     0-0-0/w STRC(288)         1 BASE_LTS                   0-0-0/w STRC(288)         1 BINARY_OP
     0-0-0/w STRC(144)         1 BT                         0-0-0/w STRC(288)         1 CALL_STMT
     0-0-0/w STRC(288)         1 CD_LTS                     0-0-0/w CHAR(4096)        1 CHARS
     0-0-0/w STRC(288)         1 COMPUTE_STMT               0-0-0/w STRC(72)          1 CONT
     0-0-0/w STRC(540)         1 CONTROL_NAME_LTS           0-0-0/w STRC(1872)        1 COPY_FILE
     0-0-0/w STRC(288)         1 DEFERED_IDENTIFIER         0-0-0/w STRC(252)         1 DEFERED_ID_TREE
     0-0-0/w STRC(288)         1 DEFERED_QUAL_ID            0-0-0/w STRC(288)         1 DEFERED_SUM_CLAUSE
     0-0-0/w STRC(288)         1 DEFERED_SUM_CLAUSE_LIST
     0-0-0/w STRC(288)         1 DELETE_STMT                0-0-0/w STRC(108)         1 DEPENDING_SIZE
     0-0-0/w STRC(5472)        1 DIMS                       0-0-0/w STRC(288)         1 DIVIDE_STMT
     0-0-0/w STRC(216)         1 DML_REC                    0-0-0/w ASTR(180)   r     1 DNT
     0-0-0/w STRC(73836)       1 EVALUATE                   0-0-0/w STRC(1692)  r     1 FILE_LTS
     0-0-0/w STRC(288)         1 ILS_LIST                   0-0-0/w STRC(108)         1 INDEXES
     0-0-0/w STRC(360)         1 INIT_LTS                   0-0-0/w STRC(288)         1 INSPECT_1_STMT
     0-0-0/w STRC(288)         1 INSPECT_2_STMT             0-0-0/w STRC(288)         1 INSPECT_4_STMT
     0-0-0/w STRC(180)         1 IO_RESTORE_CHAIN           0-0-0/w STRC(144)         1 KEY
     0-0-0/w STRC(288)         1 LA_ITEM                    0-0-0/w STRC(36864)       1 LCNST
     0-0-0/w STRC(72)          1 LONG                       0-0-0/w STRC        r     1 LTS
     0-0-0/w STRC(360)         1 LTSS                       0-0-0/w STRC(36936) r     1 LTS_PTR_ARRAY
     0-0-0/w STRC(504)         1 LX_CD_INPUT                0-0-0/w STRC(324)         1 LX_CD_I_O
     0-0-0/w STRC(396)         1 LX_CD_OUTPUT               0-0-0/w STRC(288)         1 LX_ETT_ITEM
     0-0-0/w STRC(288)   r     1 LX_ITEM                    0-0-0/w STRC(288)         1 LX_LARGE
     0-0-0/w STRC(288)   r     1 LX_LIST                    0-0-0/w STRC(1224)        1 LX_REC_DECL
     0-0-0/w STRC(864)         1 LX_REPORT_REC              0-0-0/w STRC(288)   r     1 LX_TERMINAL
     0-0-0/w STRC(288)         1 MULTIPLY_STMT              0-0-0/w STRC(144)         1 NEL
     0-0-0/w STRC(216)         1 OPEN_LTS                   0-0-0/w STRC(36864)       1 PAGE
     0-0-0/w STRC(144)         1 PRIME                      0-0-0/w STRC(900)         1 PROC_SUPP
     0-0-0/w STRC(288)         1 READ_STMT                  0-0-0/w STRC(216)         1 REF
     0-0-0/w STRC(108)         1 RENAMES                    0-0-0/w STRC(720)         1 REPORT_01_LTS
PL6.E3A0      #002=Z9EM$VERIFY_DEVICE File=Z9EM.:Z8A6TSI                         SAT 08/09/97 13:46 Page:60
     0-0-0/w STRC(432)         1 REPORT_ELEM_LTS            0-0-0/w STRC(252)         1 REPORT_GRP_LTS
     0-0-0/w STRC(1332)        1 REPORT_LTS                 0-0-0/w STRC(288)         1 REWRITE_STMT
     0-0-0/w STRC(144)         1 RVA_LTS                    0-0-0/w STRC(360)         1 SEGMENT_LTS
     0-0-0/w STRC(288)         1 START_STMT                 0-0-0/w STRC(252)         1 STRING_STMT
     0-0-0/w STRC(288)         1 SUBTRACT_STMT              0-0-0/w STRC(252)         1 SUM_LTS
     0-0-0/w STRC(288)         1 UNARY_OP                   0-0-0/w STRC(288)         1 UNSTRING_STMT
     0-0-0/d STRC(612)         1 USE                        0-0-0/w STRC(252)         1 USE_SUPP
     0-0-0/w STRC(288)         1 WRITE_STMT


   Procedure Z9EM$VERIFY_DEVICE requires 402 words for executable code.
   Procedure Z9EM$VERIFY_DEVICE requires 42 words of local(AUTO) storage.

PL6.E3A0      #003=Z9EM$TAPE_CHECK File=Z9EM.:Z8A6TSI                            SAT 08/09/97 13:48 Page:61
      306        1        /*T***********************************************************/
      307        2        /*T*                                                         */
      308        3        /*T* Copyright (c) Bull HN Information Systems Inc., 1997    */
      309        4        /*T*                                                         */
      310        5        /*T***********************************************************/
      311        6        Z9EM$TAPE_CHECK: PROC (ITEM$, FILE_LTS$) ALTRET;
      312        7         /*P*
      313        8               NAME : Z9EM$TAPE_CHECK
      314        9               PURPOSE : To insure the current device assignment is to
      315       10                 tape. (MAGNETIC-TAPE on cp6).
      316       11         */
      317       12
      318       13             %EQU PHASE = 1;
      319       14
      320       15             %INCLUDE Z8A_DEFC;
      321       83             %INCLUDE Z8A_SUPP_MAC;
      322     2483             %INCLUDE Z8A_COMCOM;
      323     3133             %INCLUDE Z8A_DNT;
      324     3354             %INCLUDE Z8A_IO_EQUS;
      325     3477             %INCLUDE Z8A_LTS;
      326     5554             %INCLUDE Z8A_ERR_NUMS;
      327     6318             %INCLUDE Z8E_MACROS;
      328     6993             %INCLUDE Z8E_STACKS;
      329     9259             %INCLUDE Z8E_O1COM;
      330    10020
      331    10021
      332    10022    1        DCL Z8AE$ERROR           ENTRY (12);
      333    10023    1        DCL ITEM$         PTR;
      334    10024    1        DCL TAPE$         PTR;
      335    10025    1        DCL FILE_LTS$     PTR;
      336    10026
      337    10027
      338    10028    1        TAPE$ = FILE_LTS$ -> FILE_LTS.ASSIGN$;
      339    10029
      340    10030    1        IF TAPE$ -> LTS_PTR_ARRAY.P$ (0) -> DNT.TEXT.NAME = %MAGNETIC_TAPE THEN
      341    10031    1          RETURN;
      342    10032
PL6.E3A0      #003=Z9EM$TAPE_CHECK File=Z9EM.:Z8A6TSI                            SAT 08/09/97 13:48 Page:62
      343    10033             %CONDITIONAL_ERROR (@LX_ITEM$ = ITEM$,
      344    10034                                 @ERROR#   = %E$MUST_BE_TAPE,
      345    10035                                 @LINE     = ITEM$ -> LX_ITEM.LINE,
      346    10036                                 @COLUMN   = ITEM$ -> LX_ITEM.COLUMN);
      347    10066
      348    10067    1        ALTRETURN;
      349    10068
      350    10069    1   Z9EM$MASS_STORAGE_CHECK: ENTRY (ITEM$, FILE_LTS$) ALTRET;
      351    10070
      352    10071    2        DO CASE (FILE_LTS$ -> FILE_LTS.ORGANIZATION);
      353    10072    2          CASE (
      354    10073                     %SET_OF_SEQUENTIAL_ORGANIZATION;
      355    10081    2               );
      356    10082    2            /* Any device is ok */;
      357    10083
      358    10084    2          CASE (ELSE);
      359    10085    2            IF FILE_LTS$ -> FILE_LTS.ASSIGN$ -> LTS_PTR_ARRAY.P$ (0) ->
      360    10086    2            DNT.TEXT.NAME = %DISK THEN
      361    10087    2              RETURN;
      362    10088
      363    10089                 %CONDITIONAL_ERROR (@LX_ITEM$ = ITEM$,
      364    10090                                     @ERROR#   = %E$MUST_BE_DISK,
      365    10091                                     @LINE     = ITEM$ -> LX_ITEM.LINE,
      366    10092                                     @COLUMN   = ITEM$ -> LX_ITEM.COLUMN);
      367    10122    2            ALTRETURN;
      368    10123    2        END; /* Case */
      369    10124
      370    10125    1        RETURN;
      371    10126
      372    10127
      373    10128    1   END Z9EM$TAPE_CHECK;
      374    10129        %EOD;

PL6.E3A0      #003=Z9EM$TAPE_CHECK File=Z9EM.:Z8A6TSI                            SAT 08/09/97 13:48 Page:63
--  Include file information  --

   Z8E_O1COM.:Z8A6TOU  cannot be made into a system file and is referenced.
   Z8A_LEX_SYMB.:Z8A6TOU  cannot be made into a system file and is referenced.
   Z8E_STACKS.:Z8A6TOU  cannot be made into a system file and is referenced.
   Z8E_NEW_ILL.:Z8A6TOU  is referenced.
   Z8E_MACROS.:Z8A6TOU  cannot be made into a system file and is referenced.
   Z8A_ERR_NUMS.:Z8A6TOU  is referenced.
   Z8A_LTS.:Z8A6TOU  cannot be made into a system file and is referenced.
   Z8A_IO_EQUS.:Z8A6TOU  is referenced.
   Z8A_DNT.:Z8A6TOU  cannot be made into a system file and is referenced.
   Z8A_COMCOM.:Z8A6TOU  cannot be made into a system file and is referenced.
   X8A_COM_MACS.:X8A6TOU  is referenced.
   Z8A_NAMES.:Z8A6TOU  is referenced.
   Z8A_SUPP_MAC.:Z8A6TOU  is referenced.
   Z8A_DEFC.:Z8A6TOU  cannot be made into a system file and is referenced.
      No diagnostics issued in procedure Z9EM$TAPE_CHECK.

   Procedure Z9EM$TAPE_CHECK requires 86 words for executable code.
   Procedure Z9EM$TAPE_CHECK requires 10 words of local(AUTO) storage.

PL6.E3A0      #003=Z9EM$TAPE_CHECK File=Z9EM.:Z8A6TSI                            SAT 08/09/97 13:48 Page:64

 Object Unit name= Z9EM$TAPE_CHECK                            File name= Z9EM.:Z8A6TOU
 UTS= AUG 09 '97 13:48:19.56 SAT                              Compiler= PL-6/E31         Sev=      00
 SharedLib= :SHARED_SYSTEM                                    Alt SharedLib=


    ****  Control sections  ****

 Sect   Type Bound  Init  Size OctSiz  Section name(segment info)
    0  LblCom even  none     1      1  ITERATION
    1  LblCom even  none     1      1  DNT$
    2  LblCom even  none     5      5  DNT_
    3  LblCom even  none     1      1  DNT_BUCKET_NUMBER
    4  LblCom even  none     1      1  DNT_OF_1$
    5  LblCom even  none     1      1  LTS$
    6  LblCom even  none     5      5  LTS_
    7  LblCom even  none    90    132  LEX_SYMBOL
    8  LblCom even  none     1      1  CURRENT_LEX_SYMBOL$
    9  LblCom even  none    90    132  TEMP_LEX_SYMBOL
   10  LblCom even  none    90    132  TEMP_LEX_SYMBOL2
   11  RoData even  UTS      5      5  Z9EM$TAPE_CHECK
   12   Proc  even  none    86    126  Z9EM$TAPE_CHECK
   13  RoData even  none     5      5  Z9EM$TAPE_CHECK

    ****  Entry defs  ****

                              Check   Calling
                             calling  sequence
  Sect OctLoc Primary Altret sequence   type   Parms  Name
    12      0   yes    yes     yes      Std        2  Z9EM$TAPE_CHECK
    12     42          yes     yes      Std        2  Z9EM$MASS_STORAGE_CHECK
PL6.E3A0      #003=Z9EM$TAPE_CHECK File=Z9EM.:Z8A6TSI                            SAT 08/09/97 13:48 Page:65

  ****  Entry refs  ****

         Check        Calling
        calling       sequence
Altret sequence SRef   type   Args  Name
         yes           Std      12 Z8AE$ERROR
                       nStd      0 X66_AUTO_2
                       nStd      0 X66_ARET
                       nStd      0 X66_AALT

  ****  Data refs  ****

  Flags:  r = read only, s = secondary
Flgs Name                             Flgs Name                             Flgs Name
     COMCOM                           r    LTS_STEP                              O1COM
     HIER_STK_PTR                          HIER_STK                              PAGE_FORMAT
     REP_STK_PTR                           REP_STK

  ****  Segment refs  ****

  Flags:  r = read only, s = secondary
Flgs Name                             Flgs Name                             Flgs Name
     NULLSID                               ISSID
PL6.E3A0      #003=Z9EM$TAPE_CHECK File=Z9EM.:Z8A6TSI                            SAT 08/09/97 13:48 Page:66


      306        1        /*T***********************************************************/
      307        2        /*T*                                                         */
      308        3        /*T* Copyright (c) Bull HN Information Systems Inc., 1997    */
      309        4        /*T*                                                         */
      310        5        /*T***********************************************************/
      311        6        Z9EM$TAPE_CHECK: PROC (ITEM$, FILE_LTS$) ALTRET;

      6 12 000000   000000 700200 xent  Z9EM$TAPE_C* TSX0  ! X66_AUTO_2
        12 000001   000012 000002                    ZERO    10,2

      312        7         /*P*
      313        8               NAME : Z9EM$TAPE_CHECK
      314        9               PURPOSE : To insure the current device assignment is to
      315       10                 tape. (MAGNETIC-TAPE on cp6).
      316       11         */
      317       12
      318       13             %EQU PHASE = 1;
      319       14
      320       15             %INCLUDE Z8A_DEFC;
      321       83             %INCLUDE Z8A_SUPP_MAC;
      322     2483             %INCLUDE Z8A_COMCOM;
      323     3133             %INCLUDE Z8A_DNT;
      324     3354             %INCLUDE Z8A_IO_EQUS;
      325     3477             %INCLUDE Z8A_LTS;
      326     5554             %INCLUDE Z8A_ERR_NUMS;
      327     6318             %INCLUDE Z8E_MACROS;
      328     6993             %INCLUDE Z8E_STACKS;
      329     9259             %INCLUDE Z8E_O1COM;
      330    10020
      331    10021
      332    10022    1        DCL Z8AE$ERROR           ENTRY (12);
      333    10023    1        DCL ITEM$         PTR;
      334    10024    1        DCL TAPE$         PTR;
      335    10025    1        DCL FILE_LTS$     PTR;
      336    10026
      337    10027
PL6.E3A0      #003=Z9EM$TAPE_CHECK File=Z9EM.:Z8A6TSI                            SAT 08/09/97 13:48 Page:67
      338    10028    1        TAPE$ = FILE_LTS$ -> FILE_LTS.ASSIGN$;

  10028 12 000002   200004 470500                    LDP0    @FILE_LTS$,,AUTO
        12 000003   000000 471500                    LDP1    0,,PR0
        12 000004   100004 236100                    LDQ     4,,PR1
        12 000005   200005 756100                    STQ     TAPE$,,AUTO

      339    10029
      340    10030    1        IF TAPE$ -> LTS_PTR_ARRAY.P$ (0) -> DNT.TEXT.NAME = %MAGNETIC_TAPE THEN

  10030 12 000006   200005 473500                    LDP3    TAPE$,,AUTO
        12 000007   300002 474500                    LDP4    2,,PR3
        12 000010   400004 220100                    LDX0    4,,PR4
        12 000011   040000 106540                    CMPC    fill='040'O
        12 000012   400004 400010                    ADSC9   4,,PR4                   cn=2,n=*X0
        12 000013   000000 000015 11                 ADSC9   0                        cn=0,n=13
        12 000014   000016 601000 12                 TNZ     s:10046

      341    10031    1          RETURN;

  10031 12 000015   000000 702200 xent               TSX2  ! X66_ARET

      342    10032
      343    10033             %CONDITIONAL_ERROR (@LX_ITEM$ = ITEM$,
      344    10034                                 @ERROR#   = %E$MUST_BE_TAPE,
      345    10035                                 @LINE     = ITEM$ -> LX_ITEM.LINE,
      346    10036                                 @COLUMN   = ITEM$ -> LX_ITEM.COLUMN);

  10046 12 000016   200003 475500                    LDP5    @ITEM$,,AUTO
        12 000017   500000 476500                    LDP6    0,,PR5
        12 000020   600000 236100                    LDQ     0,,PR6
        12 000021   400000 316007                    CANQ    -131072,DL
        12 000022   000041 601000 12                 TNZ     s:10067

  10048 12 000023   600006 637500                    EPPR7   6,,PR6
        12 000024   200010 457500                    STP7    TAPE$+3,,AUTO
        12 000025   600005 631500                    EPPR1   5,,PR6
PL6.E3A0      #003=Z9EM$TAPE_CHECK File=Z9EM.:Z8A6TSI                            SAT 08/09/97 13:48 Page:68
        12 000026   200007 451500                    STP1    TAPE$+2,,AUTO
        12 000027   000002 236000 13                 LDQ     2
        12 000030   200006 756100                    STQ     TAPE$+1,,AUTO
        12 000031   200006 630500                    EPPR0   TAPE$+1,,AUTO
        12 000032   000000 631400 13                 EPPR1   0
        12 000033   000000 701000 xent               TSX1    Z8AE$ERROR
        12 000034   000000 011000                    NOP     0

  10057 12 000035   200003 470500                    LDP0    @ITEM$,,AUTO
        12 000036   000000 471500                    LDP1    0,,PR0
        12 000037   400000 236007                    LDQ     -131072,DL
        12 000040   100000 256100                    ORSQ    0,,PR1

      347    10066
      348    10067    1        ALTRETURN;

  10067 12 000041   000000 702200 xent               TSX2  ! X66_AALT

      349    10068
      350    10069    1   Z9EM$MASS_STORAGE_CHECK: ENTRY (ITEM$, FILE_LTS$) ALTRET;

  10069 12 000042   000000 700200 xent  Z9EM$MASS_S* TSX0  ! X66_AUTO_2
        12 000043   000012 000002                    ZERO    10,2

      351    10070
      352    10071    2        DO CASE (FILE_LTS$ -> FILE_LTS.ORGANIZATION);

  10071 12 000044   200004 470500                    LDP0    @FILE_LTS$,,AUTO
        12 000045   000000 471500                    LDP1    0,,PR0
        12 000046   100006 235100                    LDA     6,,PR1
        12 000047   000023 115007                    CMPA    19,DL
        12 000050   000052 602005 12                 TNC     s:10071+6,AL
        12 000051   000075 710000 12                 TRA     s:10085
        12 000052   000075 710000 12                 TRA     s:10085
        12 000053   000125 710000 12                 TRA     s:10125
        12 000054   000075 710000 12                 TRA     s:10085
        12 000055   000075 710000 12                 TRA     s:10085
PL6.E3A0      #003=Z9EM$TAPE_CHECK File=Z9EM.:Z8A6TSI                            SAT 08/09/97 13:48 Page:69
        12 000056   000075 710000 12                 TRA     s:10085
        12 000057   000125 710000 12                 TRA     s:10125
        12 000060   000125 710000 12                 TRA     s:10125
        12 000061   000125 710000 12                 TRA     s:10125
        12 000062   000125 710000 12                 TRA     s:10125
        12 000063   000125 710000 12                 TRA     s:10125
        12 000064   000075 710000 12                 TRA     s:10085
        12 000065   000075 710000 12                 TRA     s:10085
        12 000066   000125 710000 12                 TRA     s:10125
        12 000067   000125 710000 12                 TRA     s:10125
        12 000070   000075 710000 12                 TRA     s:10085
        12 000071   000125 710000 12                 TRA     s:10125
        12 000072   000125 710000 12                 TRA     s:10125
        12 000073   000075 710000 12                 TRA     s:10085
        12 000074   000125 710000 12                 TRA     s:10125

      353    10072    2          CASE (

      354    10073                     %SET_OF_SEQUENTIAL_ORGANIZATION;
      355    10081    2               );
      356    10082    2            /* Any device is ok */;
      357    10083
      358    10084    2          CASE (ELSE);

      359    10085    2            IF FILE_LTS$ -> FILE_LTS.ASSIGN$ -> LTS_PTR_ARRAY.P$ (0) ->

  10085 12 000075   100004 473500                    LDP3    4,,PR1
        12 000076   300002 474500                    LDP4    2,,PR3
        12 000077   400004 220100                    LDX0    4,,PR4
        12 000100   040000 106540                    CMPC    fill='040'O
        12 000101   400004 400010                    ADSC9   4,,PR4                   cn=2,n=*X0
        12 000102   000004 000004 11                 ADSC9   4                        cn=0,n=4
        12 000103   000105 601000 12                 TNZ     s:10102

      360    10086    2            DNT.TEXT.NAME = %DISK THEN
      361    10087    2              RETURN;

PL6.E3A0      #003=Z9EM$TAPE_CHECK File=Z9EM.:Z8A6TSI                            SAT 08/09/97 13:48 Page:70
  10087 12 000104   000000 702200 xent               TSX2  ! X66_ARET

      362    10088
      363    10089                 %CONDITIONAL_ERROR (@LX_ITEM$ = ITEM$,
      364    10090                                     @ERROR#   = %E$MUST_BE_DISK,
      365    10091                                     @LINE     = ITEM$ -> LX_ITEM.LINE,
      366    10092                                     @COLUMN   = ITEM$ -> LX_ITEM.COLUMN);

  10102 12 000105   200003 475500                    LDP5    @ITEM$,,AUTO
        12 000106   500000 476500                    LDP6    0,,PR5
        12 000107   600000 236100                    LDQ     0,,PR6
        12 000110   400000 316007                    CANQ    -131072,DL
        12 000111   000124 601000 12                 TNZ     s:10122

  10104 12 000112   600006 637500                    EPPR7   6,,PR6
        12 000113   200010 457500                    STP7    TAPE$+3,,AUTO
        12 000114   600005 631500                    EPPR1   5,,PR6
        12 000115   200007 451500                    STP1    TAPE$+2,,AUTO
        12 000116   000004 236000 13                 LDQ     4
        12 000117   200006 756100                    STQ     TAPE$+1,,AUTO
        12 000120   200006 630500                    EPPR0   TAPE$+1,,AUTO
        12 000121   000000 631400 13                 EPPR1   0
        12 000122   000000 701000 xent               TSX1    Z8AE$ERROR
        12 000123   000000 011000                    NOP     0

      367    10122    2            ALTRETURN;

  10122 12 000124   000000 702200 xent               TSX2  ! X66_AALT

      368    10123    2        END; /* Case */

      369    10124
      370    10125    1        RETURN;

  10125 12 000125   000000 702200 xent               TSX2  ! X66_ARET
      371    10126
      372    10127
PL6.E3A0      #003=Z9EM$TAPE_CHECK File=Z9EM.:Z8A6TSI                            SAT 08/09/97 13:48 Page:71
      373    10128    1   END Z9EM$TAPE_CHECK;
      374    10129        %EOD;

PL6.E3A0      #003=Z9EM$TAPE_CHECK File=Z9EM.:Z8A6TSI                            SAT 08/09/97 13:48 Page:72
--  Include file information  --

   Z8E_O1COM.:Z8A6TOU  cannot be made into a system file and is referenced.
   Z8A_LEX_SYMB.:Z8A6TOU  cannot be made into a system file and is referenced.
   Z8E_STACKS.:Z8A6TOU  cannot be made into a system file and is referenced.
   Z8E_NEW_ILL.:Z8A6TOU  is referenced.
   Z8E_MACROS.:Z8A6TOU  cannot be made into a system file and is referenced.
   Z8A_ERR_NUMS.:Z8A6TOU  is referenced.
   Z8A_LTS.:Z8A6TOU  cannot be made into a system file and is referenced.
   Z8A_IO_EQUS.:Z8A6TOU  is referenced.
   Z8A_DNT.:Z8A6TOU  cannot be made into a system file and is referenced.
   Z8A_COMCOM.:Z8A6TOU  cannot be made into a system file and is referenced.
   X8A_COM_MACS.:X8A6TOU  is referenced.
   Z8A_NAMES.:Z8A6TOU  is referenced.
   Z8A_SUPP_MAC.:Z8A6TOU  is referenced.
   Z8A_DEFC.:Z8A6TOU  cannot be made into a system file and is referenced.
      No diagnostics issued in procedure Z9EM$TAPE_CHECK.
PL6.E3A0      #003=Z9EM$TAPE_CHECK File=Z9EM.:Z8A6TSI                            SAT 08/09/97 13:48 Page:73

 **** Variables and constants ****

  ****  Section 000 LblCom ITERATION

  ****  Scalars and arrays  ****
OctLoc.c.b A Datatyp(siz) R M Lvl/name                 OctLoc.c.b A Datatyp(siz) R M Lvl/name

     0-0-0/w SBIN              1 ITERATION

  ****  Section 001 LblCom DNT$

  ****  Scalars and arrays  ****
OctLoc.c.b A Datatyp(siz) R M Lvl/name                 OctLoc.c.b A Datatyp(siz) R M Lvl/name

     0-0-0/w PTR         r     1 DNT$

  ****  Section 002 LblCom DNT_

  ****  Scalars and arrays  ****
OctLoc.c.b A Datatyp(siz) R M Lvl/name                 OctLoc.c.b A Datatyp(siz) R M Lvl/name

     0-0-0/w STRC(180)         1 DNT_

  ****  Section 003 LblCom DNT_BUCKET_NUMBER

  ****  Scalars and arrays  ****
OctLoc.c.b A Datatyp(siz) R M Lvl/name                 OctLoc.c.b A Datatyp(siz) R M Lvl/name

     0-0-0/w UBIN              1 DNT_BUCKET_NUMBER

  ****  Section 004 LblCom DNT_OF_1$

  ****  Scalars and arrays  ****
OctLoc.c.b A Datatyp(siz) R M Lvl/name                 OctLoc.c.b A Datatyp(siz) R M Lvl/name

     0-0-0/w PTR               1 DNT_OF_1$

PL6.E3A0      #003=Z9EM$TAPE_CHECK File=Z9EM.:Z8A6TSI                            SAT 08/09/97 13:48 Page:74
  ****  Section 005 LblCom LTS$

  ****  Scalars and arrays  ****
OctLoc.c.b A Datatyp(siz) R M Lvl/name                 OctLoc.c.b A Datatyp(siz) R M Lvl/name

     0-0-0/w PTR               1 LONG_ITEM$                 0-0-0/w PTR         r     1 LTS$

  ****  Section 006 LblCom LTS_

  ****  Scalars and arrays  ****
OctLoc.c.b A Datatyp(siz) R M Lvl/name                 OctLoc.c.b A Datatyp(siz) R M Lvl/name

     0-0-0/w STRC(180)         1 LTS_

  ****  Section 007 LblCom LEX_SYMBOL

  ****  Scalars and arrays  ****
OctLoc.c.b A Datatyp(siz) R M Lvl/name                 OctLoc.c.b A Datatyp(siz) R M Lvl/name

     0-0-0/w STRC(3240)  r     1 LEX_SYMBOL                 0-0-0/w STRC(3240)        1 LEX_SYMBOL_WORDS

  ****  Section 008 LblCom CURRENT_LEX_SYMBOL$

  ****  Scalars and arrays  ****
OctLoc.c.b A Datatyp(siz) R M Lvl/name                 OctLoc.c.b A Datatyp(siz) R M Lvl/name

     0-0-0/w PTR         r     1 CURRENT_LEX_SYMBOL$

  ****  Section 009 LblCom TEMP_LEX_SYMBOL

  ****  Scalars and arrays  ****
OctLoc.c.b A Datatyp(siz) R M Lvl/name                 OctLoc.c.b A Datatyp(siz) R M Lvl/name

     0-0-0/w STRC(3240)        1 TEMP_LEX_SYMBOL

  ****  Section 010 LblCom TEMP_LEX_SYMBOL2

PL6.E3A0      #003=Z9EM$TAPE_CHECK File=Z9EM.:Z8A6TSI                            SAT 08/09/97 13:48 Page:75
  ****  Scalars and arrays  ****
OctLoc.c.b A Datatyp(siz) R M Lvl/name                 OctLoc.c.b A Datatyp(siz) R M Lvl/name

     0-0-0/w STRC(3240)        1 TEMP_LEX_SYMBOL2

  ****  Auto variables  ****

  ****  Scalars and arrays  ****
OctLoc.c.b A Datatyp(siz) R M Lvl/name                 OctLoc.c.b A Datatyp(siz) R M Lvl/name

     4-0-0/w PTR         r     1 @FILE_LTS$                 3-0-0/w PTR         r     1 @ITEM$
    *0-0-0/w PTR         r     1 FILE_LTS$                 *0-0-0/w PTR         r     1 ITEM$
     5-0-0/w PTR         r     1 TAPE$

  ****  SYMREF variables  ****

  ****  Scalars and arrays  ****
OctLoc.c.b A Datatyp(siz) R M Lvl/name                 OctLoc.c.b A Datatyp(siz) R M Lvl/name

     0-0-0/d STRC(13248)       1 COMCOM
     0-0-0/w STRC(180)         1 HIER_STK(0:50)
     0-0-0/w SBIN              1 HIER_STK_PTR
     0-0-0/w UBIN              1 LTS_STEP(0:37)
     0-0-0/d STRC(11580)       1 O1COM                      0-0-0/w STRC(144)         1 PAGE_FORMAT
     0-0-0/w STRC(153)         1 REP_STK(0:50)              0-0-0/w SBIN              1 REP_STK_PTR

  ****  BASED and DCB variables  ****

  ****  Scalars and arrays  ****
OctLoc.c.b A Datatyp(siz) R M Lvl/name                 OctLoc.c.b A Datatyp(siz) R M Lvl/name

     0-0-0/w STRC(288)         1 ADD_STMT                   0-0-0/w STRC(144)         1 ALTER_LTS
     0-0-0/w STRC(3672)        1 ALT_KEY                    0-0-0/w STRC(36864)       1 ARGLIST
     0-0-0/w STRC(180)         1 ARRAY_PRESET_LTS           0-0-0/w ASTR(324)   r     1 BASED_LEX_SYMBOL
     0-0-0/w STRC(360)         1 BASED_LEX_SYMBOL_WORDS
     0-0-0/w STRC(288)         1 BASE_LTS                   0-0-0/w STRC(288)         1 BINARY_OP
     0-0-0/w STRC(144)         1 BT                         0-0-0/w STRC(288)         1 CALL_STMT
PL6.E3A0      #003=Z9EM$TAPE_CHECK File=Z9EM.:Z8A6TSI                            SAT 08/09/97 13:48 Page:76
     0-0-0/w STRC(288)         1 CD_LTS                     0-0-0/w CHAR(4096)        1 CHARS
     0-0-0/w STRC(288)         1 COMPUTE_STMT               0-0-0/w STRC(72)          1 CONT
     0-0-0/w STRC(540)         1 CONTROL_NAME_LTS           0-0-0/w STRC(1872)        1 COPY_FILE
     0-0-0/w STRC(288)         1 DEFERED_IDENTIFIER         0-0-0/w STRC(252)         1 DEFERED_ID_TREE
     0-0-0/w STRC(288)         1 DEFERED_QUAL_ID            0-0-0/w STRC(288)         1 DEFERED_SUM_CLAUSE
     0-0-0/w STRC(288)         1 DEFERED_SUM_CLAUSE_LIST
     0-0-0/w STRC(288)         1 DELETE_STMT                0-0-0/w STRC(108)         1 DEPENDING_SIZE
     0-0-0/w STRC(5472)        1 DIMS                       0-0-0/w STRC(288)         1 DIVIDE_STMT
     0-0-0/w STRC(216)         1 DML_REC                    0-0-0/w ASTR(180)   r     1 DNT
     0-0-0/w STRC(73836)       1 EVALUATE                   0-0-0/w STRC(1692)  r     1 FILE_LTS
     0-0-0/w STRC(288)         1 ILS_LIST                   0-0-0/w STRC(108)         1 INDEXES
     0-0-0/w STRC(360)         1 INIT_LTS                   0-0-0/w STRC(288)         1 INSPECT_1_STMT
     0-0-0/w STRC(288)         1 INSPECT_2_STMT             0-0-0/w STRC(288)         1 INSPECT_4_STMT
     0-0-0/w STRC(180)         1 IO_RESTORE_CHAIN           0-0-0/w STRC(144)         1 KEY
     0-0-0/w STRC(288)         1 LA_ITEM                    0-0-0/w STRC(36864)       1 LCNST
     0-0-0/w STRC(72)          1 LONG                       0-0-0/w STRC              1 LTS
     0-0-0/w STRC(360)         1 LTSS                       0-0-0/w STRC(36936) r     1 LTS_PTR_ARRAY
     0-0-0/w STRC(504)         1 LX_CD_INPUT                0-0-0/w STRC(324)         1 LX_CD_I_O
     0-0-0/w STRC(396)         1 LX_CD_OUTPUT               0-0-0/w STRC(288)         1 LX_ETT_ITEM
     0-0-0/w STRC(288)   r     1 LX_ITEM                    0-0-0/w STRC(288)         1 LX_LARGE
     0-0-0/w STRC(288)         1 LX_LIST                    0-0-0/w STRC(1224)        1 LX_REC_DECL
     0-0-0/w STRC(864)         1 LX_REPORT_REC              0-0-0/w STRC(288)         1 LX_TERMINAL
     0-0-0/w STRC(288)         1 MULTIPLY_STMT              0-0-0/w STRC(144)         1 NEL
     0-0-0/w STRC(216)         1 OPEN_LTS                   0-0-0/w STRC(36864)       1 PAGE
     0-0-0/w STRC(144)         1 PRIME                      0-0-0/w STRC(900)         1 PROC_SUPP
     0-0-0/w STRC(288)         1 READ_STMT                  0-0-0/w STRC(216)         1 REF
     0-0-0/w STRC(108)         1 RENAMES                    0-0-0/w STRC(720)         1 REPORT_01_LTS
     0-0-0/w STRC(432)         1 REPORT_ELEM_LTS            0-0-0/w STRC(252)         1 REPORT_GRP_LTS
     0-0-0/w STRC(1332)        1 REPORT_LTS                 0-0-0/w STRC(288)         1 REWRITE_STMT
     0-0-0/w STRC(144)         1 RVA_LTS                    0-0-0/w STRC(360)         1 SEGMENT_LTS
     0-0-0/w STRC(288)         1 START_STMT                 0-0-0/w STRC(252)         1 STRING_STMT
     0-0-0/w STRC(288)         1 SUBTRACT_STMT              0-0-0/w STRC(252)         1 SUM_LTS
     0-0-0/w STRC(288)         1 UNARY_OP                   0-0-0/w STRC(288)         1 UNSTRING_STMT
     0-0-0/d STRC(612)         1 USE                        0-0-0/w STRC(252)         1 USE_SUPP
     0-0-0/w STRC(288)         1 WRITE_STMT

PL6.E3A0      #003=Z9EM$TAPE_CHECK File=Z9EM.:Z8A6TSI                            SAT 08/09/97 13:48 Page:77

   Procedure Z9EM$TAPE_CHECK requires 86 words for executable code.
   Procedure Z9EM$TAPE_CHECK requires 10 words of local(AUTO) storage.

PL6.E3A0      #004=Z9EM$WITH_CLAUSE File=Z9EM.:Z8A6TSI                           SAT 08/09/97 13:49 Page:78
      375        1        /*T***********************************************************/
      376        2        /*T*                                                         */
      377        3        /*T* Copyright (c) Bull HN Information Systems Inc., 1997    */
      378        4        /*T*                                                         */
      379        5        /*T***********************************************************/
      380        6        Z9EM$WITH_CLAUSE: PROC (ITEM$);
      381        7         /*P*
      382        8               NAME : Z9EM$WITH_CLAUSE
      383        9               PURPOSE : To verify that the WITH clause specified on the FD
      384       10                 is valid for this operating system.
      385       11         */
      386       12
      387       13
      388       14             %EQU PHASE = 1;
      389       15
      390       16             %INCLUDE Z8A_DEFC;
      391       84             %INCLUDE Z8A_SUPP_MAC;
      392     2484             %INCLUDE Z8A_COMCOM;
      393     3134             %INCLUDE Z8A_ERR_NUMS;
      394     3898             %INCLUDE Z8E_STACKS;
      395     6164             %INCLUDE Z8E_MACROS;
      396     6839
      397     6840    1        DCL Z8AE$ERROR           ENTRY (12);
      398     6841
      399     6842    1        DCL ITEM$                PTR;
      400     6843
      401     6844    1   Z9EM$PROCESS_AREA:   ENTRY(ITEM$);
      402     6845    1   Z9EM$NO_PROCESS_AREA:   ENTRY(ITEM$);
      403     6846    1   Z9EM$WITH_BSN:      ENTRY(ITEM$);
      404     6847    1   Z9EM$WITH_SSF:      ENTRY(ITEM$);
      405     6848    1   Z9EM$WITH_UNBANNERED:  ENTRY(ITEM$);
      406     6849
      407     6850             %CONDITIONAL_ERROR (@LX_ITEM$ = ITEM$,
      408     6851                                 @ERROR#   = %E$FEATURE_NOT_SUPPORTED,
      409     6852                                 @LINE     = ITEM$ -> LX_TERMINAL.LINE,
      410     6853                                 @COLUMN   = ITEM$ -> LX_TERMINAL.COLUMN);
      411     6883
PL6.E3A0      #004=Z9EM$WITH_CLAUSE File=Z9EM.:Z8A6TSI                           SAT 08/09/97 13:49 Page:79
      412     6884    1   END Z9EM$WITH_CLAUSE;
      413     6885        %EOD;

PL6.E3A0      #004=Z9EM$WITH_CLAUSE File=Z9EM.:Z8A6TSI                           SAT 08/09/97 13:49 Page:80
--  Include file information  --

   Z8E_NEW_ILL.:Z8A6TOU  is referenced.
   Z8E_MACROS.:Z8A6TOU  cannot be made into a system file and is referenced.
   Z8A_LEX_SYMB.:Z8A6TOU  cannot be made into a system file and is referenced.
   Z8E_STACKS.:Z8A6TOU  cannot be made into a system file and is referenced.
   Z8A_ERR_NUMS.:Z8A6TOU  is referenced.
   Z8A_COMCOM.:Z8A6TOU  cannot be made into a system file and is referenced.
   X8A_COM_MACS.:X8A6TOU  is referenced.
   Z8A_NAMES.:Z8A6TOU  is referenced.
   Z8A_SUPP_MAC.:Z8A6TOU  is referenced.
   Z8A_DEFC.:Z8A6TOU  cannot be made into a system file and is referenced.
      No diagnostics issued in procedure Z9EM$WITH_CLAUSE.

   Procedure Z9EM$WITH_CLAUSE requires 33 words for executable code.
   Procedure Z9EM$WITH_CLAUSE requires 8 words of local(AUTO) storage.

PL6.E3A0      #004=Z9EM$WITH_CLAUSE File=Z9EM.:Z8A6TSI                           SAT 08/09/97 13:49 Page:81

 Object Unit name= Z9EM$WITH_CLAUSE                           File name= Z9EM.:Z8A6TOU
 UTS= AUG 09 '97 13:49:42.68 SAT                              Compiler= PL-6/E31         Sev=      00
 SharedLib= :SHARED_SYSTEM                                    Alt SharedLib=


    ****  Control sections  ****

 Sect   Type Bound  Init  Size OctSiz  Section name(segment info)
    0  LblCom even  none     1      1  ITERATION
    1  LblCom even  none    90    132  LEX_SYMBOL
    2  LblCom even  none     1      1  CURRENT_LEX_SYMBOL$
    3  LblCom even  none    90    132  TEMP_LEX_SYMBOL
    4  LblCom even  none    90    132  TEMP_LEX_SYMBOL2
    5   Proc  even  none    33     41  Z9EM$WITH_CLAUSE
    6  RoData even  none     3      3  Z9EM$WITH_CLAUSE

    ****  Entry defs  ****

                              Check   Calling
                             calling  sequence
  Sect OctLoc Primary Altret sequence   type   Parms  Name
     5      0   yes            yes      Std        1  Z9EM$WITH_CLAUSE
     5      3                  yes      Std        1  Z9EM$PROCESS_AREA
     5      6                  yes      Std        1  Z9EM$NO_PROCESS_AREA
     5     11                  yes      Std        1  Z9EM$WITH_BSN
     5     14                  yes      Std        1  Z9EM$WITH_SSF
     5     17                  yes      Std        1  Z9EM$WITH_UNBANNERED

  ****  Entry refs  ****

         Check        Calling
        calling       sequence
Altret sequence SRef   type   Args  Name
         yes           Std      12 Z8AE$ERROR
                       nStd      0 X66_AUTO_1
                       nStd      0 X66_ARET
PL6.E3A0      #004=Z9EM$WITH_CLAUSE File=Z9EM.:Z8A6TSI                           SAT 08/09/97 13:49 Page:82

  ****  Data refs  ****

  Flags:  r = read only, s = secondary
Flgs Name                             Flgs Name                             Flgs Name
     COMCOM

  ****  Segment refs  ****

  Flags:  r = read only, s = secondary
Flgs Name                             Flgs Name                             Flgs Name
     ISSID
PL6.E3A0      #004=Z9EM$WITH_CLAUSE File=Z9EM.:Z8A6TSI                           SAT 08/09/97 13:49 Page:83


      375        1        /*T***********************************************************/
      376        2        /*T*                                                         */
      377        3        /*T* Copyright (c) Bull HN Information Systems Inc., 1997    */
      378        4        /*T*                                                         */
      379        5        /*T***********************************************************/
      380        6        Z9EM$WITH_CLAUSE: PROC (ITEM$);

      6  5 000000   000000 700200 xent  Z9EM$WITH_C* TSX0  ! X66_AUTO_1
         5 000001   000010 000001                    ZERO    8,1
         5 000002   000005 710000 5                  TRA     s:6844+2

      381        7         /*P*
      382        8               NAME : Z9EM$WITH_CLAUSE
      383        9               PURPOSE : To verify that the WITH clause specified on the FD
      384       10                 is valid for this operating system.
      385       11         */
      386       12
      387       13
      388       14             %EQU PHASE = 1;
      389       15
      390       16             %INCLUDE Z8A_DEFC;
      391       84             %INCLUDE Z8A_SUPP_MAC;
      392     2484             %INCLUDE Z8A_COMCOM;
      393     3134             %INCLUDE Z8A_ERR_NUMS;
      394     3898             %INCLUDE Z8E_STACKS;
      395     6164             %INCLUDE Z8E_MACROS;
      396     6839
      397     6840    1        DCL Z8AE$ERROR           ENTRY (12);
      398     6841
      399     6842    1        DCL ITEM$                PTR;
      400     6843
      401     6844    1   Z9EM$PROCESS_AREA:   ENTRY(ITEM$);

   6844  5 000003   000000 700200 xent  Z9EM$PROCES* TSX0  ! X66_AUTO_1
         5 000004   000010 000001                    ZERO    8,1
         5 000005   000010 710000 5                  TRA     s:6845+2
PL6.E3A0      #004=Z9EM$WITH_CLAUSE File=Z9EM.:Z8A6TSI                           SAT 08/09/97 13:49 Page:84

      402     6845    1   Z9EM$NO_PROCESS_AREA:   ENTRY(ITEM$);

   6845  5 000006   000000 700200 xent  Z9EM$NO_PRO* TSX0  ! X66_AUTO_1
         5 000007   000010 000001                    ZERO    8,1
         5 000010   000013 710000 5                  TRA     s:6846+2

      403     6846    1   Z9EM$WITH_BSN:      ENTRY(ITEM$);

   6846  5 000011   000000 700200 xent  Z9EM$WITH_B* TSX0  ! X66_AUTO_1
         5 000012   000010 000001                    ZERO    8,1
         5 000013   000016 710000 5                  TRA     s:6847+2

      404     6847    1   Z9EM$WITH_SSF:      ENTRY(ITEM$);

   6847  5 000014   000000 700200 xent  Z9EM$WITH_S* TSX0  ! X66_AUTO_1
         5 000015   000010 000001                    ZERO    8,1
         5 000016   000021 710000 5                  TRA     s:6863

      405     6848    1   Z9EM$WITH_UNBANNERED:  ENTRY(ITEM$);

   6848  5 000017   000000 700200 xent  Z9EM$WITH_U* TSX0  ! X66_AUTO_1
         5 000020   000010 000001                    ZERO    8,1

      406     6849
      407     6850             %CONDITIONAL_ERROR (@LX_ITEM$ = ITEM$,
      408     6851                                 @ERROR#   = %E$FEATURE_NOT_SUPPORTED,
      409     6852                                 @LINE     = ITEM$ -> LX_TERMINAL.LINE,
      410     6853                                 @COLUMN   = ITEM$ -> LX_TERMINAL.COLUMN);

   6863  5 000021   200003 470500                    LDP0    @ITEM$,,AUTO
         5 000022   000000 471500                    LDP1    0,,PR0
         5 000023   100000 236100                    LDQ     0,,PR1
         5 000024   400000 316007                    CANQ    -131072,DL
         5 000025   000040 601000 5                  TNZ     s:6884

   6865  5 000026   100006 633500                    EPPR3   6,,PR1
PL6.E3A0      #004=Z9EM$WITH_CLAUSE File=Z9EM.:Z8A6TSI                           SAT 08/09/97 13:49 Page:85
         5 000027   200006 453500                    STP3    @ITEM$+3,,AUTO
         5 000030   100005 634500                    EPPR4   5,,PR1
         5 000031   200005 454500                    STP4    @ITEM$+2,,AUTO
         5 000032   000002 236000 6                  LDQ     2
         5 000033   200004 756100                    STQ     @ITEM$+1,,AUTO
         5 000034   200004 630500                    EPPR0   @ITEM$+1,,AUTO
         5 000035   000000 631400 6                  EPPR1   0
         5 000036   000000 701000 xent               TSX1    Z8AE$ERROR
         5 000037   000000 011000                    NOP     0

      411     6883
      412     6884    1   END Z9EM$WITH_CLAUSE;

   6884  5 000040   000000 702200 xent               TSX2  ! X66_ARET
      413     6885        %EOD;

PL6.E3A0      #004=Z9EM$WITH_CLAUSE File=Z9EM.:Z8A6TSI                           SAT 08/09/97 13:49 Page:86
--  Include file information  --

   Z8E_NEW_ILL.:Z8A6TOU  is referenced.
   Z8E_MACROS.:Z8A6TOU  cannot be made into a system file and is referenced.
   Z8A_LEX_SYMB.:Z8A6TOU  cannot be made into a system file and is referenced.
   Z8E_STACKS.:Z8A6TOU  cannot be made into a system file and is referenced.
   Z8A_ERR_NUMS.:Z8A6TOU  is referenced.
   Z8A_COMCOM.:Z8A6TOU  cannot be made into a system file and is referenced.
   X8A_COM_MACS.:X8A6TOU  is referenced.
   Z8A_NAMES.:Z8A6TOU  is referenced.
   Z8A_SUPP_MAC.:Z8A6TOU  is referenced.
   Z8A_DEFC.:Z8A6TOU  cannot be made into a system file and is referenced.
      No diagnostics issued in procedure Z9EM$WITH_CLAUSE.
PL6.E3A0      #004=Z9EM$WITH_CLAUSE File=Z9EM.:Z8A6TSI                           SAT 08/09/97 13:49 Page:87

 **** Variables and constants ****

  ****  Section 000 LblCom ITERATION

  ****  Scalars and arrays  ****
OctLoc.c.b A Datatyp(siz) R M Lvl/name                 OctLoc.c.b A Datatyp(siz) R M Lvl/name

     0-0-0/w SBIN              1 ITERATION

  ****  Section 001 LblCom LEX_SYMBOL

  ****  Scalars and arrays  ****
OctLoc.c.b A Datatyp(siz) R M Lvl/name                 OctLoc.c.b A Datatyp(siz) R M Lvl/name

     0-0-0/w STRC(3240)  r     1 LEX_SYMBOL                 0-0-0/w STRC(3240)        1 LEX_SYMBOL_WORDS

  ****  Section 002 LblCom CURRENT_LEX_SYMBOL$

  ****  Scalars and arrays  ****
OctLoc.c.b A Datatyp(siz) R M Lvl/name                 OctLoc.c.b A Datatyp(siz) R M Lvl/name

     0-0-0/w PTR         r     1 CURRENT_LEX_SYMBOL$

  ****  Section 003 LblCom TEMP_LEX_SYMBOL

  ****  Scalars and arrays  ****
OctLoc.c.b A Datatyp(siz) R M Lvl/name                 OctLoc.c.b A Datatyp(siz) R M Lvl/name

     0-0-0/w STRC(3240)        1 TEMP_LEX_SYMBOL

  ****  Section 004 LblCom TEMP_LEX_SYMBOL2

  ****  Scalars and arrays  ****
OctLoc.c.b A Datatyp(siz) R M Lvl/name                 OctLoc.c.b A Datatyp(siz) R M Lvl/name

     0-0-0/w STRC(3240)        1 TEMP_LEX_SYMBOL2

PL6.E3A0      #004=Z9EM$WITH_CLAUSE File=Z9EM.:Z8A6TSI                           SAT 08/09/97 13:49 Page:88
  ****  Auto variables  ****

  ****  Scalars and arrays  ****
OctLoc.c.b A Datatyp(siz) R M Lvl/name                 OctLoc.c.b A Datatyp(siz) R M Lvl/name

     3-0-0/w PTR         r     1 @ITEM$                    *0-0-0/w PTR         r     1 ITEM$

  ****  SYMREF variables  ****

  ****  Scalars and arrays  ****
OctLoc.c.b A Datatyp(siz) R M Lvl/name                 OctLoc.c.b A Datatyp(siz) R M Lvl/name

     0-0-0/d STRC(13248)       1 COMCOM

  ****  BASED and DCB variables  ****

  ****  Scalars and arrays  ****
OctLoc.c.b A Datatyp(siz) R M Lvl/name                 OctLoc.c.b A Datatyp(siz) R M Lvl/name

     0-0-0/w STRC(288)         1 ADD_STMT                   0-0-0/w ASTR(324)   r     1 BASED_LEX_SYMBOL
     0-0-0/w STRC(360)         1 BASED_LEX_SYMBOL_WORDS
     0-0-0/w STRC(288)         1 BINARY_OP                  0-0-0/w STRC(288)         1 CALL_STMT
     0-0-0/w CHAR(4096)        1 CHARS                      0-0-0/w STRC(288)         1 COMPUTE_STMT
     0-0-0/w STRC(72)          1 CONT                       0-0-0/w STRC(288)         1 DEFERED_IDENTIFIER
     0-0-0/w STRC(252)         1 DEFERED_ID_TREE            0-0-0/w STRC(288)         1 DEFERED_QUAL_ID
     0-0-0/w STRC(288)         1 DEFERED_SUM_CLAUSE
     0-0-0/w STRC(288)         1 DEFERED_SUM_CLAUSE_LIST
     0-0-0/w STRC(288)         1 DELETE_STMT                0-0-0/w STRC(288)         1 DIVIDE_STMT
     0-0-0/w STRC(288)         1 ILS_LIST                   0-0-0/w STRC(288)         1 INSPECT_1_STMT
     0-0-0/w STRC(288)         1 INSPECT_2_STMT             0-0-0/w STRC(288)         1 INSPECT_4_STMT
     0-0-0/w STRC(288)         1 LA_ITEM                    0-0-0/w STRC(504)         1 LX_CD_INPUT
     0-0-0/w STRC(324)         1 LX_CD_I_O                  0-0-0/w STRC(396)         1 LX_CD_OUTPUT
     0-0-0/w STRC(288)         1 LX_ETT_ITEM                0-0-0/w STRC(288)   r     1 LX_ITEM
     0-0-0/w STRC(288)         1 LX_LARGE                   0-0-0/w STRC(288)         1 LX_LIST
     0-0-0/w STRC(1224)        1 LX_REC_DECL                0-0-0/w STRC(864)         1 LX_REPORT_REC
     0-0-0/w STRC(288)   r     1 LX_TERMINAL                0-0-0/w STRC(288)         1 MULTIPLY_STMT
     0-0-0/w STRC(36864)       1 PAGE                       0-0-0/w STRC(288)         1 READ_STMT
PL6.E3A0      #004=Z9EM$WITH_CLAUSE File=Z9EM.:Z8A6TSI                           SAT 08/09/97 13:49 Page:89
     0-0-0/w STRC(288)         1 REWRITE_STMT               0-0-0/w STRC(288)         1 START_STMT
     0-0-0/w STRC(252)         1 STRING_STMT                0-0-0/w STRC(288)         1 SUBTRACT_STMT
     0-0-0/w STRC(288)         1 UNARY_OP                   0-0-0/w STRC(288)         1 UNSTRING_STMT
     0-0-0/w STRC(288)         1 WRITE_STMT


   Procedure Z9EM$WITH_CLAUSE requires 33 words for executable code.
   Procedure Z9EM$WITH_CLAUSE requires 8 words of local(AUTO) storage.

PL6.E3A0      #005=Z9EM$LABEL_RECORDS File=Z9EM.:Z8A6TSI                         SAT 08/09/97 13:50 Page:90
      414        1        /*T***********************************************************/
      415        2        /*T*                                                         */
      416        3        /*T* Copyright (c) Bull HN Information Systems Inc., 1997    */
      417        4        /*T*                                                         */
      418        5        /*T***********************************************************/
      419        6        Z9EM$LABEL_RECORDS: PROC (KEYWORD$, LABEL$);
      420        7
      421        8         /*P*
      422        9               NAME : Z9EM$LABEL_RECORDS
      423       10               PURPOSE : Checks for the correct modifier on the LABEL RECORDS
      424       11                 clause.  Some modifiers are not allowed on some OS's.
      425       12         */
      426       13
      427       14             %EQU PHASE = 1;
      428       15
      429       16             %INCLUDE Z8A_DEFC;
      430       84             %INCLUDE Z8A_SUPP_MAC;
      431     2484             %INCLUDE Z8A_COMCOM;
      432     3134             %INCLUDE Z8A_DNT;
      433     3355             %INCLUDE Z8A_ERR_NUMS;
      434     4119             %INCLUDE Z8A_LTS;
      435     6196
      436     6197             %INCLUDE Z8E_STACKS;
      437     8463             %INCLUDE Z8E_MACROS;
      438     9138             %INCLUDE Z8E_O1COM;
      439     9899             %INCLUDE Z8E_WINDOW;
      440    11969             %INCLUDE Z8E_ABSSYN;
      441    12175             %INCLUDE Z8E_HEAP;
      442    12231             %INCLUDE Z8A_IO_EQUS;
      443    12354
      444    12355    1        DCL Z8AE$ERROR           ENTRY (12);
      445    12356    1        DCL Z8ED$DISPOSE_ABSSYN_TREE ENTRY (1);
      446    12357
      447    12358    1        DCL KEYWORD$             PTR;
      448    12359    1        DCL LABEL$               PTR;
      449    12360    1        DCL TERM$                PTR;
      450    12361
PL6.E3A0      #005=Z9EM$LABEL_RECORDS File=Z9EM.:Z8A6TSI                         SAT 08/09/97 13:50 Page:91
      451    12362
      452    12363    1        IF O1COM.CURRENT_FILE_LTS$ -> FILE_LTS.B.LABEL_OMITTED
      453    12364    1        OR O1COM.CURRENT_FILE_LTS$ -> FILE_LTS.B.LABEL_STANDARD
      454    12365    1        OR O1COM.CURRENT_FILE_LTS$ -> FILE_LTS.LABEL_RECORDS$ ~= ADDR(NIL) THEN
      455    12366    2          DO;
      456    12367                 %CONDITIONAL_ERROR (@LX_ITEM$ = KEYWORD$,
      457    12368                                     @ERROR#   = %E$DUP_DD_CLAUSE,
      458    12369                                     @LINE     = KEYWORD$ -> LX_TERMINAL.LINE,
      459    12370                                     @COLUMN   = KEYWORD$ -> LX_TERMINAL.COLUMN,
      460    12371                                     @PLUG1    = KEYWORD$ -> LX_TERMINAL.DNT$);
      461    12401
      462    12402    2            RETURN;
      463    12403    2          END;
      464    12404
      465    12405    2        DO CASE (LABEL$ -> LX_ITEM.ID);
      466    12406
      467    12407    2          CASE (%LX_TERMINAL);
      468    12408    3            DO CASE (LABEL$ -> LX_TERMINAL.SYMBOL);
      469    12409
      470    12410    3              CASE (%RSV_WRD_OMITTED);
      471    12411    3                O1COM.CURRENT_FILE_LTS$ -> FILE_LTS.B.LABEL_OMITTED = TRUE;
      472    12412
      473    12413    3              CASE (%RSV_WRD_STANDARD);
      474    12414    3                O1COM.CURRENT_FILE_LTS$ -> FILE_LTS.B.LABEL_STANDARD = TRUE;
      475    12415
      476    12416    3              CASE (ELSE);
      477    12417    3                CALL Z8AE$ERROR (%E$UNEXPECTED_CASE,
      478    12418    3                                 LABEL$ -> LX_TERMINAL.LINE,
      479    12419    3                                 LABEL$ -> LX_TERMINAL.COLUMN);
      480    12420
      481    12421    3            END; /* Case */
      482    12422
      483    12423    2          CASE (%LX_LIST);
      484    12424    2            IF O1COM.CURRENT_FILE_LTS$ -> FILE_LTS.ASSIGN$ ->
      485    12425    2              LTS_PTR_ARRAY.P$(0) -> DNT.TEXT.NAME ~= %MAGNETIC_TAPE THEN
      486    12426    3              DO;
      487    12427    3                TERM$ = LABEL$ -> LX_LIST.HEAD$;
PL6.E3A0      #005=Z9EM$LABEL_RECORDS File=Z9EM.:Z8A6TSI                         SAT 08/09/97 13:50 Page:92
      488    12428
      489    12429                     %CONDITIONAL_ERROR (@LX_ITEM$ = TERM$,
      490    12430                                         @ERROR#   = %E$USER_LABEL_ASSIGN_ERROR,
      491    12431                                         @LINE     = TERM$ -> LX_TERMINAL.LINE,
      492    12432                                         @COLUMN   = TERM$ -> LX_TERMINAL.COLUMN);
      493    12462
      494    12463    3                O1COM.CURRENT_FILE_LTS$ -> FILE_LTS.B.LABEL_STANDARD = TRUE;
      495    12464    3                CALL Z8ED$DISPOSE_ABSSYN_TREE (LABEL$ -> LX_LIST.HEAD$);
      496    12465    3                RETURN;
      497    12466    3              END;
      498    12467    2            ELSE
      499    12468    3              DO;
      500    12469                     %NEW_COPY_LX_ITEM (@FROM$ = LABEL$,
      501    12470                        @TO$   = O1COM.CURRENT_FILE_LTS$ -> FILE_LTS.LABEL_RECORDS$);
      502    12482
      503    12483    3                O1COM.CURRENT_FILE_LTS$ -> FILE_LTS.B.LABEL_STANDARD = TRUE;
      504    12484    3              END;
      505    12485
      506    12486    2          CASE (ELSE);
      507    12487    2            CALL Z8AE$ERROR (%E$UNEXPECTED_CASE,
      508    12488    2                             KEYWORD$ -> LX_TERMINAL.LINE,
      509    12489    2                             KEYWORD$ -> LX_TERMINAL.COLUMN);
      510    12490
      511    12491    2        END; /* Case */
      512    12492
      513    12493    1   END Z9EM$LABEL_RECORDS;
      514    12494        %EOD;

PL6.E3A0      #005=Z9EM$LABEL_RECORDS File=Z9EM.:Z8A6TSI                         SAT 08/09/97 13:50 Page:93
--  Include file information  --

   Z8A_IO_EQUS.:Z8A6TOU  is referenced.
   Z8E_HEAP.:Z8A6TOU  cannot be made into a system file and is referenced.
   Z8E_ABSSYN.:Z8A6TOU  cannot be made into a system file and is referenced.
   Z8E_WINDOW.:Z8A6TOU  is referenced.
   Z8E_O1COM.:Z8A6TOU  cannot be made into a system file and is referenced.
   Z8E_NEW_ILL.:Z8A6TOU  is referenced.
   Z8E_MACROS.:Z8A6TOU  cannot be made into a system file and is referenced.
   Z8A_LEX_SYMB.:Z8A6TOU  cannot be made into a system file and is referenced.
   Z8E_STACKS.:Z8A6TOU  cannot be made into a system file and is referenced.
   Z8A_LTS.:Z8A6TOU  cannot be made into a system file and is referenced.
   Z8A_ERR_NUMS.:Z8A6TOU  is referenced.
   Z8A_DNT.:Z8A6TOU  cannot be made into a system file and is referenced.
   Z8A_COMCOM.:Z8A6TOU  cannot be made into a system file and is referenced.
   X8A_COM_MACS.:X8A6TOU  is referenced.
   Z8A_NAMES.:Z8A6TOU  is referenced.
   Z8A_SUPP_MAC.:Z8A6TOU  is referenced.
   Z8A_DEFC.:Z8A6TOU  cannot be made into a system file and is referenced.
      No diagnostics issued in procedure Z9EM$LABEL_RECORDS.

   Procedure Z9EM$LABEL_RECORDS requires 253 words for executable code.
   Procedure Z9EM$LABEL_RECORDS requires 10 words of local(AUTO) storage.

PL6.E3A0      #005=Z9EM$LABEL_RECORDS File=Z9EM.:Z8A6TSI                         SAT 08/09/97 13:50 Page:94

 Object Unit name= Z9EM$LABEL_RECORDS                         File name= Z9EM.:Z8A6TOU
 UTS= AUG 09 '97 13:50:24.04 SAT                              Compiler= PL-6/E31         Sev=      00
 SharedLib= :SHARED_SYSTEM                                    Alt SharedLib=


    ****  Control sections  ****

 Sect   Type Bound  Init  Size OctSiz  Section name(segment info)
    0  LblCom even  none     1      1  ITERATION
    1  LblCom even  none     1      1  DNT$
    2  LblCom even  none     5      5  DNT_
    3  LblCom even  none     1      1  DNT_BUCKET_NUMBER
    4  LblCom even  none     1      1  DNT_OF_1$
    5  LblCom even  none     1      1  LTS$
    6  LblCom even  none     5      5  LTS_
    7  LblCom even  none    90    132  LEX_SYMBOL
    8  LblCom even  none     1      1  CURRENT_LEX_SYMBOL$
    9  LblCom even  none    90    132  TEMP_LEX_SYMBOL
   10  LblCom even  none    90    132  TEMP_LEX_SYMBOL2
   11  LblCom even  none     8     10  TEMP_LX_NODE
   12  LblCom even  none     1      1  HEAP$
   13  RoData even  UTS      4      4  Z9EM$LABEL_RECORDS
   14   Proc  even  none   253    375  Z9EM$LABEL_RECORDS
   15  RoData even  none    13     15  Z9EM$LABEL_RECORDS

    ****  Entry defs  ****

                              Check   Calling
                             calling  sequence
  Sect OctLoc Primary Altret sequence   type   Parms  Name
    14      0   yes            yes      Std        2  Z9EM$LABEL_RECORDS
PL6.E3A0      #005=Z9EM$LABEL_RECORDS File=Z9EM.:Z8A6TSI                         SAT 08/09/97 13:50 Page:95

  ****  Entry refs  ****

         Check        Calling
        calling       sequence
Altret sequence SRef   type   Args  Name
         yes           Std      12 Z8AE$ERROR
         yes           Std       2 Z8ED$NEW_HEAP
         yes           Std       1 Z8ED$DISPOSE_ABSSYN_TREE
                       nStd      0 X66_AUTO_2
                       nStd      0 X66_ARET

  ****  Data refs  ****

  Flags:  r = read only, s = secondary
Flgs Name                             Flgs Name                             Flgs Name
     COMCOM                           r    LTS_STEP                              O1COM
     HIER_STK_PTR                          HIER_STK                              PAGE_FORMAT
     REP_STK_PTR                           REP_STK

  ****  Segment refs  ****

  Flags:  r = read only, s = secondary
Flgs Name                             Flgs Name                             Flgs Name
     NULLSID                               ISSID
PL6.E3A0      #005=Z9EM$LABEL_RECORDS File=Z9EM.:Z8A6TSI                         SAT 08/09/97 13:50 Page:96


      414        1        /*T***********************************************************/
      415        2        /*T*                                                         */
      416        3        /*T* Copyright (c) Bull HN Information Systems Inc., 1997    */
      417        4        /*T*                                                         */
      418        5        /*T***********************************************************/
      419        6        Z9EM$LABEL_RECORDS: PROC (KEYWORD$, LABEL$);

      6 14 000000   000000 700200 xent  Z9EM$LABEL_* TSX0  ! X66_AUTO_2
        14 000001   000012 000002                    ZERO    10,2

      420        7
      421        8         /*P*
      422        9               NAME : Z9EM$LABEL_RECORDS
      423       10               PURPOSE : Checks for the correct modifier on the LABEL RECORDS
      424       11                 clause.  Some modifiers are not allowed on some OS's.
      425       12         */
      426       13
      427       14             %EQU PHASE = 1;
      428       15
      429       16             %INCLUDE Z8A_DEFC;
      430       84             %INCLUDE Z8A_SUPP_MAC;
      431     2484             %INCLUDE Z8A_COMCOM;
      432     3134             %INCLUDE Z8A_DNT;
      433     3355             %INCLUDE Z8A_ERR_NUMS;
      434     4119             %INCLUDE Z8A_LTS;
      435     6196
      436     6197             %INCLUDE Z8E_STACKS;
      437     8463             %INCLUDE Z8E_MACROS;
      438     9138             %INCLUDE Z8E_O1COM;
      439     9899             %INCLUDE Z8E_WINDOW;
      440    11969             %INCLUDE Z8E_ABSSYN;
      441    12175             %INCLUDE Z8E_HEAP;
      442    12231             %INCLUDE Z8A_IO_EQUS;
      443    12354
      444    12355    1        DCL Z8AE$ERROR           ENTRY (12);
      445    12356    1        DCL Z8ED$DISPOSE_ABSSYN_TREE ENTRY (1);
PL6.E3A0      #005=Z9EM$LABEL_RECORDS File=Z9EM.:Z8A6TSI                         SAT 08/09/97 13:50 Page:97
      446    12357
      447    12358    1        DCL KEYWORD$             PTR;
      448    12359    1        DCL LABEL$               PTR;
      449    12360    1        DCL TERM$                PTR;
      450    12361
      451    12362
      452    12363    1        IF O1COM.CURRENT_FILE_LTS$ -> FILE_LTS.B.LABEL_OMITTED

  12363 14 000002   000045 470400 xsym               LDP0    O1COM+37
        14 000003   000017 236100                    LDQ     15,,PR0
        14 000004   000040 316003                    CANQ    32,DU
        14 000005   000013 601000 14                 TNZ     s:12381
        14 000006   000020 316003                    CANQ    16,DU
        14 000007   000013 601000 14                 TNZ     s:12381
        14 000010   000026 236100                    LDQ     22,,PR0
        14 000011   000000 116000 15                 CMPQ    0
        14 000012   000041 600000 14                 TZE     s:12405

      453    12364    1        OR O1COM.CURRENT_FILE_LTS$ -> FILE_LTS.B.LABEL_STANDARD
      454    12365    1        OR O1COM.CURRENT_FILE_LTS$ -> FILE_LTS.LABEL_RECORDS$ ~= ADDR(NIL) THEN
      455    12366    2          DO;

      456    12367                 %CONDITIONAL_ERROR (@LX_ITEM$ = KEYWORD$,
      457    12368                                     @ERROR#   = %E$DUP_DD_CLAUSE,
      458    12369                                     @LINE     = KEYWORD$ -> LX_TERMINAL.LINE,
      459    12370                                     @COLUMN   = KEYWORD$ -> LX_TERMINAL.COLUMN,
      460    12371                                     @PLUG1    = KEYWORD$ -> LX_TERMINAL.DNT$);

  12381 14 000013   200003 471500                    LDP1    @KEYWORD$,,AUTO
        14 000014   100000 473500                    LDP3    0,,PR1
        14 000015   300000 236100                    LDQ     0,,PR3
        14 000016   400000 316007                    CANQ    -131072,DL
        14 000017   000040 601000 14                 TNZ     s:12402

  12383 14 000020   300002 634500                    EPPR4   2,,PR3
        14 000021   200011 454500                    STP4    TERM$+4,,AUTO
        14 000022   300006 635500                    EPPR5   6,,PR3
PL6.E3A0      #005=Z9EM$LABEL_RECORDS File=Z9EM.:Z8A6TSI                         SAT 08/09/97 13:50 Page:98
        14 000023   200010 455500                    STP5    TERM$+3,,AUTO
        14 000024   300005 636500                    EPPR6   5,,PR3
        14 000025   200007 456500                    STP6    TERM$+2,,AUTO
        14 000026   000003 236000 15                 LDQ     3
        14 000027   200006 756100                    STQ     TERM$+1,,AUTO
        14 000030   200006 630500                    EPPR0   TERM$+1,,AUTO
        14 000031   000001 631400 15                 EPPR1   1
        14 000032   000000 701000 xent               TSX1    Z8AE$ERROR
        14 000033   000000 011000                    NOP     0

  12392 14 000034   200003 470500                    LDP0    @KEYWORD$,,AUTO
        14 000035   000000 471500                    LDP1    0,,PR0
        14 000036   400000 236007                    LDQ     -131072,DL
        14 000037   100000 256100                    ORSQ    0,,PR1

      461    12401
      462    12402    2            RETURN;

  12402 14 000040   000000 702200 xent               TSX2  ! X66_ARET

      463    12403    2          END;
      464    12404
      465    12405    2        DO CASE (LABEL$ -> LX_ITEM.ID);

  12405 14 000041   200004 471500                    LDP1    @LABEL$,,AUTO
        14 000042   100000 473500                    LDP3    0,,PR1
        14 000043   300000 220100                    LDX0    0,,PR3
        14 000044   000003 100003                    CMPX0   3,DU
        14 000045   000047 602010 14                 TNC     s:12405+6,X0
        14 000046   000360 710000 14                 TRA     s:12487
        14 000047   000052 710000 14                 TRA     s:12408
        14 000050   000360 710000 14                 TRA     s:12487
        14 000051   000261 710000 14                 TRA     s:12424

      466    12406
      467    12407    2          CASE (%LX_TERMINAL);

PL6.E3A0      #005=Z9EM$LABEL_RECORDS File=Z9EM.:Z8A6TSI                         SAT 08/09/97 13:50 Page:99
      468    12408    3            DO CASE (LABEL$ -> LX_TERMINAL.SYMBOL);

  12408 14 000052   300003 235100                    LDA     3,,PR3
        14 000053   000474 135007                    SBLA    316,DL
        14 000054   000161 115007                    CMPA    113,DL
        14 000055   000057 602005 14                 TNC     s:12408+5,AL
        14 000056   000246 710000 14                 TRA     s:12417
        14 000057   000240 710000 14                 TRA     s:12411
        14 000060   000246 710000 14                 TRA     s:12417
        14 000061   000246 710000 14                 TRA     s:12417
        14 000062   000246 710000 14                 TRA     s:12417
        14 000063   000246 710000 14                 TRA     s:12417
        14 000064   000246 710000 14                 TRA     s:12417
        14 000065   000246 710000 14                 TRA     s:12417
        14 000066   000246 710000 14                 TRA     s:12417
        14 000067   000246 710000 14                 TRA     s:12417
        14 000070   000246 710000 14                 TRA     s:12417
        14 000071   000246 710000 14                 TRA     s:12417
        14 000072   000246 710000 14                 TRA     s:12417
        14 000073   000246 710000 14                 TRA     s:12417
        14 000074   000246 710000 14                 TRA     s:12417
        14 000075   000246 710000 14                 TRA     s:12417
        14 000076   000246 710000 14                 TRA     s:12417
        14 000077   000246 710000 14                 TRA     s:12417
        14 000100   000246 710000 14                 TRA     s:12417
        14 000101   000246 710000 14                 TRA     s:12417
        14 000102   000246 710000 14                 TRA     s:12417
        14 000103   000246 710000 14                 TRA     s:12417
        14 000104   000246 710000 14                 TRA     s:12417
        14 000105   000246 710000 14                 TRA     s:12417
        14 000106   000246 710000 14                 TRA     s:12417
        14 000107   000246 710000 14                 TRA     s:12417
        14 000110   000246 710000 14                 TRA     s:12417
        14 000111   000246 710000 14                 TRA     s:12417
        14 000112   000246 710000 14                 TRA     s:12417
        14 000113   000246 710000 14                 TRA     s:12417
        14 000114   000246 710000 14                 TRA     s:12417
PL6.E3A0      #005=Z9EM$LABEL_RECORDS File=Z9EM.:Z8A6TSI                         SAT 08/09/97 13:50 Page:100
        14 000115   000246 710000 14                 TRA     s:12417
        14 000116   000246 710000 14                 TRA     s:12417
        14 000117   000246 710000 14                 TRA     s:12417
        14 000120   000246 710000 14                 TRA     s:12417
        14 000121   000246 710000 14                 TRA     s:12417
        14 000122   000246 710000 14                 TRA     s:12417
        14 000123   000246 710000 14                 TRA     s:12417
        14 000124   000246 710000 14                 TRA     s:12417
        14 000125   000246 710000 14                 TRA     s:12417
        14 000126   000246 710000 14                 TRA     s:12417
        14 000127   000246 710000 14                 TRA     s:12417
        14 000130   000246 710000 14                 TRA     s:12417
        14 000131   000246 710000 14                 TRA     s:12417
        14 000132   000246 710000 14                 TRA     s:12417
        14 000133   000246 710000 14                 TRA     s:12417
        14 000134   000246 710000 14                 TRA     s:12417
        14 000135   000246 710000 14                 TRA     s:12417
        14 000136   000246 710000 14                 TRA     s:12417
        14 000137   000246 710000 14                 TRA     s:12417
        14 000140   000246 710000 14                 TRA     s:12417
        14 000141   000246 710000 14                 TRA     s:12417
        14 000142   000246 710000 14                 TRA     s:12417
        14 000143   000246 710000 14                 TRA     s:12417
        14 000144   000246 710000 14                 TRA     s:12417
        14 000145   000246 710000 14                 TRA     s:12417
        14 000146   000246 710000 14                 TRA     s:12417
        14 000147   000246 710000 14                 TRA     s:12417
        14 000150   000246 710000 14                 TRA     s:12417
        14 000151   000246 710000 14                 TRA     s:12417
        14 000152   000246 710000 14                 TRA     s:12417
        14 000153   000246 710000 14                 TRA     s:12417
        14 000154   000246 710000 14                 TRA     s:12417
        14 000155   000246 710000 14                 TRA     s:12417
        14 000156   000246 710000 14                 TRA     s:12417
        14 000157   000246 710000 14                 TRA     s:12417
        14 000160   000246 710000 14                 TRA     s:12417
        14 000161   000246 710000 14                 TRA     s:12417
PL6.E3A0      #005=Z9EM$LABEL_RECORDS File=Z9EM.:Z8A6TSI                         SAT 08/09/97 13:50 Page:101
        14 000162   000246 710000 14                 TRA     s:12417
        14 000163   000246 710000 14                 TRA     s:12417
        14 000164   000246 710000 14                 TRA     s:12417
        14 000165   000246 710000 14                 TRA     s:12417
        14 000166   000246 710000 14                 TRA     s:12417
        14 000167   000246 710000 14                 TRA     s:12417
        14 000170   000246 710000 14                 TRA     s:12417
        14 000171   000246 710000 14                 TRA     s:12417
        14 000172   000246 710000 14                 TRA     s:12417
        14 000173   000246 710000 14                 TRA     s:12417
        14 000174   000246 710000 14                 TRA     s:12417
        14 000175   000246 710000 14                 TRA     s:12417
        14 000176   000246 710000 14                 TRA     s:12417
        14 000177   000246 710000 14                 TRA     s:12417
        14 000200   000246 710000 14                 TRA     s:12417
        14 000201   000246 710000 14                 TRA     s:12417
        14 000202   000246 710000 14                 TRA     s:12417
        14 000203   000246 710000 14                 TRA     s:12417
        14 000204   000246 710000 14                 TRA     s:12417
        14 000205   000246 710000 14                 TRA     s:12417
        14 000206   000246 710000 14                 TRA     s:12417
        14 000207   000246 710000 14                 TRA     s:12417
        14 000210   000246 710000 14                 TRA     s:12417
        14 000211   000246 710000 14                 TRA     s:12417
        14 000212   000246 710000 14                 TRA     s:12417
        14 000213   000246 710000 14                 TRA     s:12417
        14 000214   000246 710000 14                 TRA     s:12417
        14 000215   000246 710000 14                 TRA     s:12417
        14 000216   000246 710000 14                 TRA     s:12417
        14 000217   000246 710000 14                 TRA     s:12417
        14 000220   000246 710000 14                 TRA     s:12417
        14 000221   000246 710000 14                 TRA     s:12417
        14 000222   000246 710000 14                 TRA     s:12417
        14 000223   000246 710000 14                 TRA     s:12417
        14 000224   000246 710000 14                 TRA     s:12417
        14 000225   000246 710000 14                 TRA     s:12417
        14 000226   000246 710000 14                 TRA     s:12417
PL6.E3A0      #005=Z9EM$LABEL_RECORDS File=Z9EM.:Z8A6TSI                         SAT 08/09/97 13:50 Page:102
        14 000227   000246 710000 14                 TRA     s:12417
        14 000230   000246 710000 14                 TRA     s:12417
        14 000231   000246 710000 14                 TRA     s:12417
        14 000232   000246 710000 14                 TRA     s:12417
        14 000233   000246 710000 14                 TRA     s:12417
        14 000234   000246 710000 14                 TRA     s:12417
        14 000235   000246 710000 14                 TRA     s:12417
        14 000236   000246 710000 14                 TRA     s:12417
        14 000237   000243 710000 14                 TRA     s:12414

      469    12409
      470    12410    3              CASE (%RSV_WRD_OMITTED);

      471    12411    3                O1COM.CURRENT_FILE_LTS$ -> FILE_LTS.B.LABEL_OMITTED = TRUE;

  12411 14 000240   000040 236003                    LDQ     32,DU
        14 000241   000017 256100                    ORSQ    15,,PR0
        14 000242   000374 710000 14                 TRA     s:12493

      472    12412
      473    12413    3              CASE (%RSV_WRD_STANDARD);

      474    12414    3                O1COM.CURRENT_FILE_LTS$ -> FILE_LTS.B.LABEL_STANDARD = TRUE;

  12414 14 000243   000020 236003                    LDQ     16,DU
        14 000244   000017 256100                    ORSQ    15,,PR0
        14 000245   000374 710000 14                 TRA     s:12493

      475    12415
      476    12416    3              CASE (ELSE);

      477    12417    3                CALL Z8AE$ERROR (%E$UNEXPECTED_CASE,

  12417 14 000246   300006 634500                    EPPR4   6,,PR3
        14 000247   200010 454500                    STP4    TERM$+3,,AUTO
        14 000250   300005 635500                    EPPR5   5,,PR3
        14 000251   200007 455500                    STP5    TERM$+2,,AUTO
PL6.E3A0      #005=Z9EM$LABEL_RECORDS File=Z9EM.:Z8A6TSI                         SAT 08/09/97 13:50 Page:103
        14 000252   000006 236000 15                 LDQ     6
        14 000253   200006 756100                    STQ     TERM$+1,,AUTO
        14 000254   200006 630500                    EPPR0   TERM$+1,,AUTO
        14 000255   000004 631400 15                 EPPR1   4
        14 000256   000000 701000 xent               TSX1    Z8AE$ERROR
        14 000257   000000 011000                    NOP     0

      478    12418    3                                 LABEL$ -> LX_TERMINAL.LINE,
      479    12419    3                                 LABEL$ -> LX_TERMINAL.COLUMN);
      480    12420
      481    12421    3            END; /* Case */

  12421 14 000260   000374 710000 14                 TRA     s:12493

      482    12422
      483    12423    2          CASE (%LX_LIST);

      484    12424    2            IF O1COM.CURRENT_FILE_LTS$ -> FILE_LTS.ASSIGN$ ->

  12424 14 000261   000004 474500                    LDP4    4,,PR0
        14 000262   400002 475500                    LDP5    2,,PR4
        14 000263   500004 221100                    LDX1    4,,PR5
        14 000264   040000 106540                    CMPC    fill='040'O
        14 000265   500004 400011                    ADSC9   4,,PR5                   cn=2,n=*X1
        14 000266   000000 000015 13                 ADSC9   0                        cn=0,n=13
        14 000267   000330 600000 14                 TZE     s:12475

      485    12425    2              LTS_PTR_ARRAY.P$(0) -> DNT.TEXT.NAME ~= %MAGNETIC_TAPE THEN
      486    12426    3              DO;

      487    12427    3                TERM$ = LABEL$ -> LX_LIST.HEAD$;

  12427 14 000270   300004 236100                    LDQ     4,,PR3
        14 000271   200005 756100                    STQ     TERM$,,AUTO

      488    12428
      489    12429                     %CONDITIONAL_ERROR (@LX_ITEM$ = TERM$,
PL6.E3A0      #005=Z9EM$LABEL_RECORDS File=Z9EM.:Z8A6TSI                         SAT 08/09/97 13:50 Page:104
      490    12430                                         @ERROR#   = %E$USER_LABEL_ASSIGN_ERROR,
      491    12431                                         @LINE     = TERM$ -> LX_TERMINAL.LINE,
      492    12432                                         @COLUMN   = TERM$ -> LX_TERMINAL.COLUMN);

  12442 14 000272   200005 476500                    LDP6    TERM$,,AUTO
        14 000273   600000 236100                    LDQ     0,,PR6
        14 000274   400000 316007                    CANQ    -131072,DL
        14 000275   000314 601000 14                 TNZ     s:12463

  12444 14 000276   200005 236100                    LDQ     TERM$,,AUTO
        14 000277   000006 036003                    ADLQ    6,DU
        14 000300   200010 756100                    STQ     TERM$+3,,AUTO
        14 000301   200005 236100                    LDQ     TERM$,,AUTO
        14 000302   000005 036003                    ADLQ    5,DU
        14 000303   000010 235000 15                 LDA     8
        14 000304   200006 757100                    STAQ    TERM$+1,,AUTO
        14 000305   200006 630500                    EPPR0   TERM$+1,,AUTO
        14 000306   000004 631400 15                 EPPR1   4
        14 000307   000000 701000 xent               TSX1    Z8AE$ERROR
        14 000310   000000 011000                    NOP     0

  12453 14 000311   200005 470500                    LDP0    TERM$,,AUTO
        14 000312   400000 236007                    LDQ     -131072,DL
        14 000313   000000 256100                    ORSQ    0,,PR0

      493    12462
      494    12463    3                O1COM.CURRENT_FILE_LTS$ -> FILE_LTS.B.LABEL_STANDARD = TRUE;

  12463 14 000314   000045 470400 xsym               LDP0    O1COM+37
        14 000315   000020 236003                    LDQ     16,DU
        14 000316   000017 256100                    ORSQ    15,,PR0

      495    12464    3                CALL Z8ED$DISPOSE_ABSSYN_TREE (LABEL$ -> LX_LIST.HEAD$);

  12464 14 000317   200004 470500                    LDP0    @LABEL$,,AUTO
        14 000320   000000 471500                    LDP1    0,,PR0
        14 000321   100004 633500                    EPPR3   4,,PR1
PL6.E3A0      #005=Z9EM$LABEL_RECORDS File=Z9EM.:Z8A6TSI                         SAT 08/09/97 13:50 Page:105
        14 000322   200006 453500                    STP3    TERM$+1,,AUTO
        14 000323   200006 630500                    EPPR0   TERM$+1,,AUTO
        14 000324   000011 631400 15                 EPPR1   9
        14 000325   000000 701000 xent               TSX1    Z8ED$DISPOSE_ABSSYN_TREE
        14 000326   000000 011000                    NOP     0

      496    12465    3                RETURN;

  12465 14 000327   000000 702200 xent               TSX2  ! X66_ARET

      497    12466    3              END;
      498    12467    2            ELSE
      499    12468    3              DO;

      500    12469                     %NEW_COPY_LX_ITEM (@FROM$ = LABEL$,
      501    12470                        @TO$   = O1COM.CURRENT_FILE_LTS$ -> FILE_LTS.LABEL_RECORDS$);

  12475 14 000330   000014 236000 15                 LDQ     12
        14 000331   200007 756100                    STQ     TERM$+2,,AUTO
        14 000332   000045 236000 xsym               LDQ     O1COM+37
        14 000333   000026 036003                    ADLQ    22,DU
        14 000334   200006 756100                    STQ     TERM$+1,,AUTO
        14 000335   200006 630500                    EPPR0   TERM$+1,,AUTO
        14 000336   000012 631400 15                 EPPR1   10
        14 000337   000000 701000 xent               TSX1    Z8ED$NEW_HEAP
        14 000340   000000 011000                    NOP     0

  12478 14 000341   000045 470400 xsym               LDP0    O1COM+37
        14 000342   000026 471500                    LDP1    22,,PR0
        14 000343   200004 473500                    LDP3    @LABEL$,,AUTO
        14 000344   300000 474500                    LDP4    0,,PR3
        14 000345   000100 100500                    MLR     fill='000'O
        14 000346   400000 000040                    ADSC9   0,,PR4                   cn=0,n=32
        14 000347   100000 000040                    ADSC9   0,,PR1                   cn=0,n=32

  12479 14 000350   000045 470400 xsym               LDP0    O1COM+37
        14 000351   000026 471500                    LDP1    22,,PR0
PL6.E3A0      #005=Z9EM$LABEL_RECORDS File=Z9EM.:Z8A6TSI                         SAT 08/09/97 13:50 Page:106
        14 000352   000000 236000 15                 LDQ     0
        14 000353   100007 756100                    STQ     7,,PR1

      502    12482
      503    12483    3                O1COM.CURRENT_FILE_LTS$ -> FILE_LTS.B.LABEL_STANDARD = TRUE;

  12483 14 000354   000045 470400 xsym               LDP0    O1COM+37
        14 000355   000020 236003                    LDQ     16,DU
        14 000356   000017 256100                    ORSQ    15,,PR0

      504    12484    3              END;

  12484 14 000357   000374 710000 14                 TRA     s:12493

      505    12485
      506    12486    2          CASE (ELSE);

      507    12487    2            CALL Z8AE$ERROR (%E$UNEXPECTED_CASE,

  12487 14 000360   200003 474500                    LDP4    @KEYWORD$,,AUTO
        14 000361   400000 475500                    LDP5    0,,PR4
        14 000362   500006 636500                    EPPR6   6,,PR5
        14 000363   200010 456500                    STP6    TERM$+3,,AUTO
        14 000364   500005 633500                    EPPR3   5,,PR5
        14 000365   200007 453500                    STP3    TERM$+2,,AUTO
        14 000366   000006 236000 15                 LDQ     6
        14 000367   200006 756100                    STQ     TERM$+1,,AUTO
        14 000370   200006 630500                    EPPR0   TERM$+1,,AUTO
        14 000371   000004 631400 15                 EPPR1   4
        14 000372   000000 701000 xent               TSX1    Z8AE$ERROR
        14 000373   000000 011000                    NOP     0

      508    12488    2                             KEYWORD$ -> LX_TERMINAL.LINE,
      509    12489    2                             KEYWORD$ -> LX_TERMINAL.COLUMN);
      510    12490
      511    12491    2        END; /* Case */

PL6.E3A0      #005=Z9EM$LABEL_RECORDS File=Z9EM.:Z8A6TSI                         SAT 08/09/97 13:50 Page:107
      512    12492
      513    12493    1   END Z9EM$LABEL_RECORDS;

  12493 14 000374   000000 702200 xent               TSX2  ! X66_ARET
      514    12494        %EOD;

PL6.E3A0      #005=Z9EM$LABEL_RECORDS File=Z9EM.:Z8A6TSI                         SAT 08/09/97 13:50 Page:108
--  Include file information  --

   Z8A_IO_EQUS.:Z8A6TOU  is referenced.
   Z8E_HEAP.:Z8A6TOU  cannot be made into a system file and is referenced.
   Z8E_ABSSYN.:Z8A6TOU  cannot be made into a system file and is referenced.
   Z8E_WINDOW.:Z8A6TOU  is referenced.
   Z8E_O1COM.:Z8A6TOU  cannot be made into a system file and is referenced.
   Z8E_NEW_ILL.:Z8A6TOU  is referenced.
   Z8E_MACROS.:Z8A6TOU  cannot be made into a system file and is referenced.
   Z8A_LEX_SYMB.:Z8A6TOU  cannot be made into a system file and is referenced.
   Z8E_STACKS.:Z8A6TOU  cannot be made into a system file and is referenced.
   Z8A_LTS.:Z8A6TOU  cannot be made into a system file and is referenced.
   Z8A_ERR_NUMS.:Z8A6TOU  is referenced.
   Z8A_DNT.:Z8A6TOU  cannot be made into a system file and is referenced.
   Z8A_COMCOM.:Z8A6TOU  cannot be made into a system file and is referenced.
   X8A_COM_MACS.:X8A6TOU  is referenced.
   Z8A_NAMES.:Z8A6TOU  is referenced.
   Z8A_SUPP_MAC.:Z8A6TOU  is referenced.
   Z8A_DEFC.:Z8A6TOU  cannot be made into a system file and is referenced.
      No diagnostics issued in procedure Z9EM$LABEL_RECORDS.
PL6.E3A0      #005=Z9EM$LABEL_RECORDS File=Z9EM.:Z8A6TSI                         SAT 08/09/97 13:50 Page:109

 **** Variables and constants ****

  ****  Section 000 LblCom ITERATION

  ****  Scalars and arrays  ****
OctLoc.c.b A Datatyp(siz) R M Lvl/name                 OctLoc.c.b A Datatyp(siz) R M Lvl/name

     0-0-0/w SBIN              1 ITERATION

  ****  Section 001 LblCom DNT$

  ****  Scalars and arrays  ****
OctLoc.c.b A Datatyp(siz) R M Lvl/name                 OctLoc.c.b A Datatyp(siz) R M Lvl/name

     0-0-0/w PTR         r     1 DNT$

  ****  Section 002 LblCom DNT_

  ****  Scalars and arrays  ****
OctLoc.c.b A Datatyp(siz) R M Lvl/name                 OctLoc.c.b A Datatyp(siz) R M Lvl/name

     0-0-0/w STRC(180)         1 DNT_

  ****  Section 003 LblCom DNT_BUCKET_NUMBER

  ****  Scalars and arrays  ****
OctLoc.c.b A Datatyp(siz) R M Lvl/name                 OctLoc.c.b A Datatyp(siz) R M Lvl/name

     0-0-0/w UBIN              1 DNT_BUCKET_NUMBER

  ****  Section 004 LblCom DNT_OF_1$

  ****  Scalars and arrays  ****
OctLoc.c.b A Datatyp(siz) R M Lvl/name                 OctLoc.c.b A Datatyp(siz) R M Lvl/name

     0-0-0/w PTR               1 DNT_OF_1$

PL6.E3A0      #005=Z9EM$LABEL_RECORDS File=Z9EM.:Z8A6TSI                         SAT 08/09/97 13:50 Page:110
  ****  Section 005 LblCom LTS$

  ****  Scalars and arrays  ****
OctLoc.c.b A Datatyp(siz) R M Lvl/name                 OctLoc.c.b A Datatyp(siz) R M Lvl/name

     0-0-0/w PTR               1 LONG_ITEM$                 0-0-0/w PTR         r     1 LTS$

  ****  Section 006 LblCom LTS_

  ****  Scalars and arrays  ****
OctLoc.c.b A Datatyp(siz) R M Lvl/name                 OctLoc.c.b A Datatyp(siz) R M Lvl/name

     0-0-0/w STRC(180)         1 LTS_

  ****  Section 007 LblCom LEX_SYMBOL

  ****  Scalars and arrays  ****
OctLoc.c.b A Datatyp(siz) R M Lvl/name                 OctLoc.c.b A Datatyp(siz) R M Lvl/name

     0-0-0/w STRC(3240)  r     1 LEX_SYMBOL                 0-0-0/w STRC(3240)        1 LEX_SYMBOL_WORDS

  ****  Section 008 LblCom CURRENT_LEX_SYMBOL$

  ****  Scalars and arrays  ****
OctLoc.c.b A Datatyp(siz) R M Lvl/name                 OctLoc.c.b A Datatyp(siz) R M Lvl/name

     0-0-0/w PTR         r     1 CURRENT_LEX_SYMBOL$

  ****  Section 009 LblCom TEMP_LEX_SYMBOL

  ****  Scalars and arrays  ****
OctLoc.c.b A Datatyp(siz) R M Lvl/name                 OctLoc.c.b A Datatyp(siz) R M Lvl/name

     0-0-0/w STRC(3240)        1 TEMP_LEX_SYMBOL

  ****  Section 010 LblCom TEMP_LEX_SYMBOL2

PL6.E3A0      #005=Z9EM$LABEL_RECORDS File=Z9EM.:Z8A6TSI                         SAT 08/09/97 13:50 Page:111
  ****  Scalars and arrays  ****
OctLoc.c.b A Datatyp(siz) R M Lvl/name                 OctLoc.c.b A Datatyp(siz) R M Lvl/name

     0-0-0/w STRC(3240)        1 TEMP_LEX_SYMBOL2

  ****  Section 011 LblCom TEMP_LX_NODE

  ****  Scalars and arrays  ****
OctLoc.c.b A Datatyp(siz) R M Lvl/name                 OctLoc.c.b A Datatyp(siz) R M Lvl/name

     0-0-0/d STRC(288)         1 TEMP_LX_NODE

  ****  Section 012 LblCom HEAP$

  ****  Scalars and arrays  ****
OctLoc.c.b A Datatyp(siz) R M Lvl/name                 OctLoc.c.b A Datatyp(siz) R M Lvl/name

     0-0-0/w PTR               1 HEAP$

  ****  Auto variables  ****

  ****  Scalars and arrays  ****
OctLoc.c.b A Datatyp(siz) R M Lvl/name                 OctLoc.c.b A Datatyp(siz) R M Lvl/name

     3-0-0/w PTR         r     1 @KEYWORD$                  4-0-0/w PTR         r     1 @LABEL$
    *0-0-0/w PTR         r     1 KEYWORD$                  *0-0-0/w PTR         r     1 LABEL$
     5-0-0/w PTR         r     1 TERM$

  ****  SYMREF variables  ****

  ****  Scalars and arrays  ****
OctLoc.c.b A Datatyp(siz) R M Lvl/name                 OctLoc.c.b A Datatyp(siz) R M Lvl/name

     0-0-0/d STRC(13248)       1 COMCOM
     0-0-0/w STRC(180)         1 HIER_STK(0:50)
     0-0-0/w SBIN              1 HIER_STK_PTR
     0-0-0/w UBIN              1 LTS_STEP(0:37)
PL6.E3A0      #005=Z9EM$LABEL_RECORDS File=Z9EM.:Z8A6TSI                         SAT 08/09/97 13:50 Page:112
     0-0-0/d STRC(11580) r     1 O1COM                      0-0-0/w STRC(144)         1 PAGE_FORMAT
     0-0-0/w STRC(153)         1 REP_STK(0:50)              0-0-0/w SBIN              1 REP_STK_PTR

  ****  BASED and DCB variables  ****

  ****  Scalars and arrays  ****
OctLoc.c.b A Datatyp(siz) R M Lvl/name                 OctLoc.c.b A Datatyp(siz) R M Lvl/name

     0-0-0/w STRC(288)         1 ADD_STMT                   0-0-0/w STRC(144)         1 ALTER_LTS
     0-0-0/w STRC(3672)        1 ALT_KEY                    0-0-0/w STRC(36864)       1 ARGLIST
     0-0-0/w STRC(180)         1 ARRAY_PRESET_LTS           0-0-0/w ASTR(324)   r     1 BASED_LEX_SYMBOL
     0-0-0/w STRC(360)         1 BASED_LEX_SYMBOL_WORDS
     0-0-0/w STRC(288)         1 BASE_LTS                   0-0-0/w STRC(288)         1 BINARY_OP
     0-0-0/w STRC(144)         1 BT                         0-0-0/w STRC(288)         1 CALL_STMT
     0-0-0/w STRC(288)         1 CD_LTS                     0-0-0/w CHAR(4096)        1 CHARS
     0-0-0/w STRC(288)         1 COMPUTE_STMT               0-0-0/w STRC(72)          1 CONT
     0-0-0/w STRC(540)         1 CONTROL_NAME_LTS           0-0-0/w STRC(1872)        1 COPY_FILE
     0-0-0/w STRC(288)         1 DEFERED_IDENTIFIER         0-0-0/w STRC(252)         1 DEFERED_ID_TREE
     0-0-0/w STRC(288)         1 DEFERED_QUAL_ID            0-0-0/w STRC(288)         1 DEFERED_SUM_CLAUSE
     0-0-0/w STRC(288)         1 DEFERED_SUM_CLAUSE_LIST
     0-0-0/w STRC(288)         1 DELETE_STMT                0-0-0/w STRC(108)         1 DEPENDING_SIZE
     0-0-0/w STRC(5472)        1 DIMS                       0-0-0/w STRC(288)         1 DIVIDE_STMT
     0-0-0/w STRC(216)         1 DML_REC                    0-0-0/w ASTR(180)   r     1 DNT
     0-0-0/w STRC(73836)       1 EVALUATE                   0-0-0/w STRC(1692)  r     1 FILE_LTS
     0-0-0/w STRC(288)         1 ILS_LIST                   0-0-0/w STRC(108)         1 INDEXES
     0-0-0/w STRC(360)         1 INIT_LTS                   0-0-0/w STRC(288)         1 INSPECT_1_STMT
     0-0-0/w STRC(288)         1 INSPECT_2_STMT             0-0-0/w STRC(288)         1 INSPECT_4_STMT
     0-0-0/w STRC(180)         1 IO_RESTORE_CHAIN           0-0-0/w STRC(144)         1 KEY
     0-0-0/w STRC(288)         1 LA_ITEM                    0-0-0/w STRC(36864)       1 LCNST
     0-0-0/w STRC(72)          1 LONG                       0-0-0/w STRC              1 LTS
     0-0-0/w STRC(360)         1 LTSS                       0-0-0/w STRC(36936) r     1 LTS_PTR_ARRAY
     0-0-0/w STRC(504)         1 LX_CD_INPUT                0-0-0/w STRC(324)         1 LX_CD_I_O
     0-0-0/w STRC(396)         1 LX_CD_OUTPUT               0-0-0/w STRC(288)         1 LX_ETT_ITEM
     0-0-0/w STRC(288)   r     1 LX_ITEM                    0-0-0/w STRC(288)         1 LX_LARGE
     0-0-0/w STRC(288)   r     1 LX_LIST                    0-0-0/w STRC(1224)        1 LX_REC_DECL
     0-0-0/w STRC(864)         1 LX_REPORT_REC              0-0-0/w STRC(288)   r     1 LX_TERMINAL
     0-0-0/w STRC(288)         1 MULTIPLY_STMT              0-0-0/w STRC(144)         1 NEL
PL6.E3A0      #005=Z9EM$LABEL_RECORDS File=Z9EM.:Z8A6TSI                         SAT 08/09/97 13:50 Page:113
     0-0-0/w STRC(216)         1 OPEN_LTS                   0-0-0/w STRC(36864)       1 PAGE
     0-0-0/w STRC(144)         1 PRIME                      0-0-0/w STRC(900)         1 PROC_SUPP
     0-0-0/w STRC(288)         1 READ_STMT                  0-0-0/w STRC(216)         1 REF
     0-0-0/w STRC(108)         1 RENAMES                    0-0-0/w STRC(720)         1 REPORT_01_LTS
     0-0-0/w STRC(432)         1 REPORT_ELEM_LTS            0-0-0/w STRC(252)         1 REPORT_GRP_LTS
     0-0-0/w STRC(1332)        1 REPORT_LTS                 0-0-0/w STRC(288)         1 REWRITE_STMT
     0-0-0/w STRC(144)         1 RVA_LTS                    0-0-0/w STRC(360)         1 SEGMENT_LTS
     0-0-0/w STRC(288)         1 START_STMT                 0-0-0/w STRC(252)         1 STRING_STMT
     0-0-0/w STRC(288)         1 SUBTRACT_STMT              0-0-0/w STRC(252)         1 SUM_LTS
     0-0-0/w STRC(288)         1 UNARY_OP                   0-0-0/w STRC(288)         1 UNSTRING_STMT
     0-0-0/d STRC(612)         1 USE                        0-0-0/w STRC(252)         1 USE_SUPP
     0-0-0/w STRC(288)         1 WRITE_STMT


   Procedure Z9EM$LABEL_RECORDS requires 253 words for executable code.
   Procedure Z9EM$LABEL_RECORDS requires 10 words of local(AUTO) storage.

PL6.E3A0      #006=Z9EM$CODE_SET File=Z9EM.:Z8A6TSI                              SAT 08/09/97 13:51 Page:114
      515        1        /*T***********************************************************/
      516        2        /*T*                                                         */
      517        3        /*T* Copyright (c) Bull HN Information Systems Inc., 1997    */
      518        4        /*T*                                                         */
      519        5        /*T***********************************************************/
      520        6        Z9EM$CODE_SET: PROC (TERM$);
      521        7
      522        8         /*P*
      523        9               NAME : Z9EM$CODE_SET
      524       10               PURPOSE : To check which alphabets are allowed in the CODE-SET
      525       11                 clause on CP6|GCOS|MULTICS? .
      526       12         */
      527       13
      528       14             %EQU PHASE = 1;
      529       15
      530       16             %INCLUDE Z8A_DEFC;
      531       84             %INCLUDE Z8A_SUPP_MAC;
      532     2484             %INCLUDE Z8A_COMCOM;
      533     3134             %INCLUDE Z8A_ST;
      534     6793             %INCLUDE Z8A_TYPES;
      535     6967             %INCLUDE Z8A_DNT;
      536     7188             %INCLUDE Z8A_LTS;
      537     9265             %INCLUDE Z8A_ERR_NUMS;
      538    10029
      539    10030             %INCLUDE Z8E_STACKS;
      540    12296             %INCLUDE Z8E_O1COM;
      541    13057             %INCLUDE Z8E_WINDOW;
      542    15127             %INCLUDE Z8E_MACROS;
      543    15802
      544    15803
      545    15804    1        DCL Z8AE$ERROR                  ENTRY (12);
      546    15805
      547    15806    1        DCL CODE_SET$     PTR; /* Ptr to ALPHABET ST item */
      548    15807    1        DCL TERM$         PTR; /* Ptr to lx_term for alphabet */
      549    15808
      550    15809
      551    15810    1        CODE_SET$ = O1COM.CURRENT_FILE_LTS$ -> FILE_LTS.CODE_SET$;
PL6.E3A0      #006=Z9EM$CODE_SET File=Z9EM.:Z8A6TSI                              SAT 08/09/97 13:51 Page:115
      552    15811
      553    15812    1        IF CODE_SET$ = ADDR(NIL) THEN
      554    15813    1          RETURN;
      555    15814
      556    15815    2        DO CASE (CODE_SET$ -> ALPHABET.B.CODE);
      557    15816
      558    15817    2          CASE (%ASCII, %JIS);
      559    15818                 /* Ok */
      560    15819
      561    15820    2          CASE (%EBCDIC);
      562    15821    2            O1COM.CURRENT_FILE_LTS$ -> FILE_LTS.B.EBCDIC_CODE_SET = TRUE;
      563    15822
      564    15823    2          CASE (ELSE);
      565    15824                 %CONDITIONAL_ERROR (@LX_ITEM$ = TERM$,
      566    15825                                     @ERROR#   = %E$FEATURE_NOT_SUPPORTED,
      567    15826                                     @LINE     = TERM$ -> LX_TERMINAL.LINE,
      568    15827                                     @COLUMN   = TERM$ -> LX_TERMINAL.COLUMN);
      569    15857
      570    15858    2        END; /* Case */
      571    15859
      572    15860    1   END Z9EM$CODE_SET;
      573    15861        %EOD;

PL6.E3A0      #006=Z9EM$CODE_SET File=Z9EM.:Z8A6TSI                              SAT 08/09/97 13:51 Page:116
--  Include file information  --

   Z8E_NEW_ILL.:Z8A6TOU  is referenced.
   Z8E_MACROS.:Z8A6TOU  cannot be made into a system file and is referenced.
   Z8E_WINDOW.:Z8A6TOU  is referenced.
   Z8E_O1COM.:Z8A6TOU  cannot be made into a system file and is referenced.
   Z8A_LEX_SYMB.:Z8A6TOU  cannot be made into a system file and is referenced.
   Z8E_STACKS.:Z8A6TOU  cannot be made into a system file and is referenced.
   Z8A_ERR_NUMS.:Z8A6TOU  is referenced.
   Z8A_LTS.:Z8A6TOU  cannot be made into a system file and is referenced.
   Z8A_DNT.:Z8A6TOU  cannot be made into a system file and is referenced.
   Z8A_TYPES.:Z8A6TOU  is referenced.
   Z8A_ST.:Z8A6TOU  cannot be made into a system file and is referenced.
   Z8A_COMCOM.:Z8A6TOU  cannot be made into a system file and is referenced.
   X8A_COM_MACS.:X8A6TOU  is referenced.
   Z8A_NAMES.:Z8A6TOU  is referenced.
   Z8A_SUPP_MAC.:Z8A6TOU  is referenced.
   Z8A_DEFC.:Z8A6TOU  cannot be made into a system file and is referenced.
      No diagnostics issued in procedure Z9EM$CODE_SET.

   Procedure Z9EM$CODE_SET requires 37 words for executable code.
   Procedure Z9EM$CODE_SET requires 10 words of local(AUTO) storage.

PL6.E3A0      #006=Z9EM$CODE_SET File=Z9EM.:Z8A6TSI                              SAT 08/09/97 13:51 Page:117

 Object Unit name= Z9EM$CODE_SET                              File name= Z9EM.:Z8A6TOU
 UTS= AUG 09 '97 13:51:45.92 SAT                              Compiler= PL-6/E31         Sev=      00
 SharedLib= :SHARED_SYSTEM                                    Alt SharedLib=


    ****  Control sections  ****

 Sect   Type Bound  Init  Size OctSiz  Section name(segment info)
    0  LblCom even  none     1      1  ITERATION
    1  LblCom even  none     1      1  ST$
    2  LblCom even  none     5      5  ST_
    3  LblCom even  none     1      1  DNT$
    4  LblCom even  none     5      5  DNT_
    5  LblCom even  none     1      1  DNT_BUCKET_NUMBER
    6  LblCom even  none     1      1  DNT_OF_1$
    7  LblCom even  none     1      1  LTS$
    8  LblCom even  none     5      5  LTS_
    9  LblCom even  none    90    132  LEX_SYMBOL
   10  LblCom even  none     1      1  CURRENT_LEX_SYMBOL$
   11  LblCom even  none    90    132  TEMP_LEX_SYMBOL
   12  LblCom even  none    90    132  TEMP_LEX_SYMBOL2
   13   Proc  even  none    37     45  Z9EM$CODE_SET
   14  RoData even  none     4      4  Z9EM$CODE_SET

    ****  Entry defs  ****

                              Check   Calling
                             calling  sequence
  Sect OctLoc Primary Altret sequence   type   Parms  Name
    13      0   yes            yes      Std        1  Z9EM$CODE_SET
PL6.E3A0      #006=Z9EM$CODE_SET File=Z9EM.:Z8A6TSI                              SAT 08/09/97 13:51 Page:118

  ****  Entry refs  ****

         Check        Calling
        calling       sequence
Altret sequence SRef   type   Args  Name
         yes           Std      12 Z8AE$ERROR
                       nStd      0 X66_AUTO_1
                       nStd      0 X66_ARET

  ****  Data refs  ****

  Flags:  r = read only, s = secondary
Flgs Name                             Flgs Name                             Flgs Name
     COMCOM                           r    LTS_STEP                              O1COM
     HIER_STK_PTR                          HIER_STK                              PAGE_FORMAT
     REP_STK_PTR                           REP_STK

  ****  Segment refs  ****

  Flags:  r = read only, s = secondary
Flgs Name                             Flgs Name                             Flgs Name
     NULLSID                               ISSID
PL6.E3A0      #006=Z9EM$CODE_SET File=Z9EM.:Z8A6TSI                              SAT 08/09/97 13:51 Page:119


      515        1        /*T***********************************************************/
      516        2        /*T*                                                         */
      517        3        /*T* Copyright (c) Bull HN Information Systems Inc., 1997    */
      518        4        /*T*                                                         */
      519        5        /*T***********************************************************/
      520        6        Z9EM$CODE_SET: PROC (TERM$);

      6 13 000000   000000 700200 xent  Z9EM$CODE_S* TSX0  ! X66_AUTO_1
        13 000001   000012 000001                    ZERO    10,1

      521        7
      522        8         /*P*
      523        9               NAME : Z9EM$CODE_SET
      524       10               PURPOSE : To check which alphabets are allowed in the CODE-SET
      525       11                 clause on CP6|GCOS|MULTICS? .
      526       12         */
      527       13
      528       14             %EQU PHASE = 1;
      529       15
      530       16             %INCLUDE Z8A_DEFC;
      531       84             %INCLUDE Z8A_SUPP_MAC;
      532     2484             %INCLUDE Z8A_COMCOM;
      533     3134             %INCLUDE Z8A_ST;
      534     6793             %INCLUDE Z8A_TYPES;
      535     6967             %INCLUDE Z8A_DNT;
      536     7188             %INCLUDE Z8A_LTS;
      537     9265             %INCLUDE Z8A_ERR_NUMS;
      538    10029
      539    10030             %INCLUDE Z8E_STACKS;
      540    12296             %INCLUDE Z8E_O1COM;
      541    13057             %INCLUDE Z8E_WINDOW;
      542    15127             %INCLUDE Z8E_MACROS;
      543    15802
      544    15803
      545    15804    1        DCL Z8AE$ERROR                  ENTRY (12);
      546    15805
PL6.E3A0      #006=Z9EM$CODE_SET File=Z9EM.:Z8A6TSI                              SAT 08/09/97 13:51 Page:120
      547    15806    1        DCL CODE_SET$     PTR; /* Ptr to ALPHABET ST item */
      548    15807    1        DCL TERM$         PTR; /* Ptr to lx_term for alphabet */
      549    15808
      550    15809
      551    15810    1        CODE_SET$ = O1COM.CURRENT_FILE_LTS$ -> FILE_LTS.CODE_SET$;

  15810 13 000002   000045 470400 xsym               LDP0    O1COM+37
        13 000003   000037 236100                    LDQ     31,,PR0
        13 000004   200004 756100                    STQ     CODE_SET$,,AUTO

      552    15811
      553    15812    1        IF CODE_SET$ = ADDR(NIL) THEN

  15812 13 000005   000000 116000 14                 CMPQ    0
        13 000006   000010 601000 13                 TNZ     s:15815

      554    15813    1          RETURN;

  15813 13 000007   000000 702200 xent               TSX2  ! X66_ARET

      555    15814
      556    15815    2        DO CASE (CODE_SET$ -> ALPHABET.B.CODE);

  15815 13 000010   200004 471500                    LDP1    CODE_SET$,,AUTO
        13 000011   100003 720100                    LXL0    3,,PR1
        13 000012   000777 360003                    ANX0    511,DU
        13 000013   000004 100003                    CMPX0   4,DU
        13 000014   000016 602010 13                 TNC     s:15815+6,X0
        13 000015   000025 710000 13                 TRA     s:15837
        13 000016   000044 710000 13                 TRA     s:15860
        13 000017   000044 710000 13                 TRA     s:15860
        13 000020   000025 710000 13                 TRA     s:15837
        13 000021   000022 710000 13                 TRA     s:15821

      557    15816
      558    15817    2          CASE (%ASCII, %JIS);

PL6.E3A0      #006=Z9EM$CODE_SET File=Z9EM.:Z8A6TSI                              SAT 08/09/97 13:51 Page:121
      559    15818                 /* Ok */
      560    15819
      561    15820    2          CASE (%EBCDIC);

      562    15821    2            O1COM.CURRENT_FILE_LTS$ -> FILE_LTS.B.EBCDIC_CODE_SET = TRUE;

  15821 13 000022   002000 236007                    LDQ     1024,DL
        13 000023   000017 256100                    ORSQ    15,,PR0
        13 000024   000044 710000 13                 TRA     s:15860

      563    15822
      564    15823    2          CASE (ELSE);

      565    15824                 %CONDITIONAL_ERROR (@LX_ITEM$ = TERM$,
      566    15825                                     @ERROR#   = %E$FEATURE_NOT_SUPPORTED,
      567    15826                                     @LINE     = TERM$ -> LX_TERMINAL.LINE,
      568    15827                                     @COLUMN   = TERM$ -> LX_TERMINAL.COLUMN);

  15837 13 000025   200003 473500                    LDP3    @TERM$,,AUTO
        13 000026   300000 474500                    LDP4    0,,PR3
        13 000027   400000 236100                    LDQ     0,,PR4
        13 000030   400000 316007                    CANQ    -131072,DL
        13 000031   000044 601000 13                 TNZ     s:15860

  15839 13 000032   400006 635500                    EPPR5   6,,PR4
        13 000033   200010 455500                    STP5    CODE_SET$+4,,AUTO
        13 000034   400005 636500                    EPPR6   5,,PR4
        13 000035   200007 456500                    STP6    CODE_SET$+3,,AUTO
        13 000036   000003 236000 14                 LDQ     3
        13 000037   200006 756100                    STQ     CODE_SET$+2,,AUTO
        13 000040   200006 630500                    EPPR0   CODE_SET$+2,,AUTO
        13 000041   000001 631400 14                 EPPR1   1
        13 000042   000000 701000 xent               TSX1    Z8AE$ERROR
        13 000043   000000 011000                    NOP     0

      569    15857
      570    15858    2        END; /* Case */
PL6.E3A0      #006=Z9EM$CODE_SET File=Z9EM.:Z8A6TSI                              SAT 08/09/97 13:51 Page:122

      571    15859
      572    15860    1   END Z9EM$CODE_SET;

  15860 13 000044   000000 702200 xent               TSX2  ! X66_ARET
      573    15861        %EOD;

PL6.E3A0      #006=Z9EM$CODE_SET File=Z9EM.:Z8A6TSI                              SAT 08/09/97 13:51 Page:123
--  Include file information  --

   Z8E_NEW_ILL.:Z8A6TOU  is referenced.
   Z8E_MACROS.:Z8A6TOU  cannot be made into a system file and is referenced.
   Z8E_WINDOW.:Z8A6TOU  is referenced.
   Z8E_O1COM.:Z8A6TOU  cannot be made into a system file and is referenced.
   Z8A_LEX_SYMB.:Z8A6TOU  cannot be made into a system file and is referenced.
   Z8E_STACKS.:Z8A6TOU  cannot be made into a system file and is referenced.
   Z8A_ERR_NUMS.:Z8A6TOU  is referenced.
   Z8A_LTS.:Z8A6TOU  cannot be made into a system file and is referenced.
   Z8A_DNT.:Z8A6TOU  cannot be made into a system file and is referenced.
   Z8A_TYPES.:Z8A6TOU  is referenced.
   Z8A_ST.:Z8A6TOU  cannot be made into a system file and is referenced.
   Z8A_COMCOM.:Z8A6TOU  cannot be made into a system file and is referenced.
   X8A_COM_MACS.:X8A6TOU  is referenced.
   Z8A_NAMES.:Z8A6TOU  is referenced.
   Z8A_SUPP_MAC.:Z8A6TOU  is referenced.
   Z8A_DEFC.:Z8A6TOU  cannot be made into a system file and is referenced.
      No diagnostics issued in procedure Z9EM$CODE_SET.
PL6.E3A0      #006=Z9EM$CODE_SET File=Z9EM.:Z8A6TSI                              SAT 08/09/97 13:51 Page:124

 **** Variables and constants ****

  ****  Section 000 LblCom ITERATION

  ****  Scalars and arrays  ****
OctLoc.c.b A Datatyp(siz) R M Lvl/name                 OctLoc.c.b A Datatyp(siz) R M Lvl/name

     0-0-0/w SBIN              1 ITERATION

  ****  Section 001 LblCom ST$

  ****  Scalars and arrays  ****
OctLoc.c.b A Datatyp(siz) R M Lvl/name                 OctLoc.c.b A Datatyp(siz) R M Lvl/name

     0-0-0/w PTR         r     1 ST$

  ****  Section 002 LblCom ST_

  ****  Scalars and arrays  ****
OctLoc.c.b A Datatyp(siz) R M Lvl/name                 OctLoc.c.b A Datatyp(siz) R M Lvl/name

     0-0-0/w STRC(180)         1 ST_

  ****  Section 003 LblCom DNT$

  ****  Scalars and arrays  ****
OctLoc.c.b A Datatyp(siz) R M Lvl/name                 OctLoc.c.b A Datatyp(siz) R M Lvl/name

     0-0-0/w PTR         r     1 DNT$

  ****  Section 004 LblCom DNT_

  ****  Scalars and arrays  ****
OctLoc.c.b A Datatyp(siz) R M Lvl/name                 OctLoc.c.b A Datatyp(siz) R M Lvl/name

     0-0-0/w STRC(180)         1 DNT_

PL6.E3A0      #006=Z9EM$CODE_SET File=Z9EM.:Z8A6TSI                              SAT 08/09/97 13:51 Page:125
  ****  Section 005 LblCom DNT_BUCKET_NUMBER

  ****  Scalars and arrays  ****
OctLoc.c.b A Datatyp(siz) R M Lvl/name                 OctLoc.c.b A Datatyp(siz) R M Lvl/name

     0-0-0/w UBIN              1 DNT_BUCKET_NUMBER

  ****  Section 006 LblCom DNT_OF_1$

  ****  Scalars and arrays  ****
OctLoc.c.b A Datatyp(siz) R M Lvl/name                 OctLoc.c.b A Datatyp(siz) R M Lvl/name

     0-0-0/w PTR               1 DNT_OF_1$

  ****  Section 007 LblCom LTS$

  ****  Scalars and arrays  ****
OctLoc.c.b A Datatyp(siz) R M Lvl/name                 OctLoc.c.b A Datatyp(siz) R M Lvl/name

     0-0-0/w PTR               1 LONG_ITEM$                 0-0-0/w PTR         r     1 LTS$

  ****  Section 008 LblCom LTS_

  ****  Scalars and arrays  ****
OctLoc.c.b A Datatyp(siz) R M Lvl/name                 OctLoc.c.b A Datatyp(siz) R M Lvl/name

     0-0-0/w STRC(180)         1 LTS_

  ****  Section 009 LblCom LEX_SYMBOL

  ****  Scalars and arrays  ****
OctLoc.c.b A Datatyp(siz) R M Lvl/name                 OctLoc.c.b A Datatyp(siz) R M Lvl/name

     0-0-0/w STRC(3240)  r     1 LEX_SYMBOL                 0-0-0/w STRC(3240)        1 LEX_SYMBOL_WORDS

  ****  Section 010 LblCom CURRENT_LEX_SYMBOL$

PL6.E3A0      #006=Z9EM$CODE_SET File=Z9EM.:Z8A6TSI                              SAT 08/09/97 13:51 Page:126
  ****  Scalars and arrays  ****
OctLoc.c.b A Datatyp(siz) R M Lvl/name                 OctLoc.c.b A Datatyp(siz) R M Lvl/name

     0-0-0/w PTR         r     1 CURRENT_LEX_SYMBOL$

  ****  Section 011 LblCom TEMP_LEX_SYMBOL

  ****  Scalars and arrays  ****
OctLoc.c.b A Datatyp(siz) R M Lvl/name                 OctLoc.c.b A Datatyp(siz) R M Lvl/name

     0-0-0/w STRC(3240)        1 TEMP_LEX_SYMBOL

  ****  Section 012 LblCom TEMP_LEX_SYMBOL2

  ****  Scalars and arrays  ****
OctLoc.c.b A Datatyp(siz) R M Lvl/name                 OctLoc.c.b A Datatyp(siz) R M Lvl/name

     0-0-0/w STRC(3240)        1 TEMP_LEX_SYMBOL2

  ****  Auto variables  ****

  ****  Scalars and arrays  ****
OctLoc.c.b A Datatyp(siz) R M Lvl/name                 OctLoc.c.b A Datatyp(siz) R M Lvl/name

     3-0-0/w PTR         r     1 @TERM$                     4-0-0/w PTR         r     1 CODE_SET$
    *0-0-0/w PTR         r     1 TERM$

  ****  SYMREF variables  ****

  ****  Scalars and arrays  ****
OctLoc.c.b A Datatyp(siz) R M Lvl/name                 OctLoc.c.b A Datatyp(siz) R M Lvl/name

     0-0-0/d STRC(13248)       1 COMCOM
     0-0-0/w STRC(180)         1 HIER_STK(0:50)
     0-0-0/w SBIN              1 HIER_STK_PTR
     0-0-0/w UBIN              1 LTS_STEP(0:37)
     0-0-0/d STRC(11580) r     1 O1COM                      0-0-0/w STRC(144)         1 PAGE_FORMAT
PL6.E3A0      #006=Z9EM$CODE_SET File=Z9EM.:Z8A6TSI                              SAT 08/09/97 13:51 Page:127
     0-0-0/w STRC(153)         1 REP_STK(0:50)              0-0-0/w SBIN              1 REP_STK_PTR

  ****  BASED and DCB variables  ****

  ****  Scalars and arrays  ****
OctLoc.c.b A Datatyp(siz) R M Lvl/name                 OctLoc.c.b A Datatyp(siz) R M Lvl/name

     0-0-0/w STRC(288)         1 ADD_STMT                   0-0-0/w STRC(396)   r     1 ALPHABET
     0-0-0/w STRC(144)         1 ALTER_LTS                  0-0-0/w STRC(3672)        1 ALT_KEY
     0-0-0/w STRC(36864)       1 ARGLIST                    0-0-0/w STRC(396)         1 ARRAY
     0-0-0/w STRC(180)         1 ARRAY_PRESET_LTS           0-0-0/w ASTR(324)   r     1 BASED_LEX_SYMBOL
     0-0-0/w STRC(360)         1 BASED_LEX_SYMBOL_WORDS
     0-0-0/w STRC(288)         1 BASE_LTS                   0-0-0/w STRC(288)         1 BINARY_OP
     0-0-0/w STRC(396)         1 BLOCK                      0-0-0/w STRC(144)         1 BT
     0-0-0/w STRC(288)         1 CALL_STMT                  0-0-0/w STRC(396)         1 CD
     0-0-0/w STRC(288)         1 CD_LTS                     0-0-0/w CHAR(4096)        1 CHARS
     0-0-0/w STRC(396)         1 CLASS                      0-0-0/w STRC(288)         1 COMPUTE_STMT
     0-0-0/w STRC(396)         1 CONDITION                  0-0-0/w STRC(396)         1 CONST
     0-0-0/w STRC(72)          1 CONT                       0-0-0/w STRC(540)         1 CONTROL_NAME_LTS
     0-0-0/w STRC(1872)        1 COPY_FILE                  0-0-0/w STRC(396)         1 DB
     0-0-0/w STRC(396)         1 DCB_                       0-0-0/w STRC(288)         1 DEFERED_IDENTIFIER
     0-0-0/w STRC(252)         1 DEFERED_ID_TREE            0-0-0/w STRC(288)         1 DEFERED_QUAL_ID
     0-0-0/w STRC(288)         1 DEFERED_SUM_CLAUSE
     0-0-0/w STRC(288)         1 DEFERED_SUM_CLAUSE_LIST
     0-0-0/w STRC(288)         1 DELETE_STMT                0-0-0/w STRC(108)         1 DEPENDING_SIZE
     0-0-0/w STRC(5472)        1 DIMS                       0-0-0/w STRC(288)         1 DIVIDE_STMT
     0-0-0/w STRC(396)         1 DML_ITEM                   0-0-0/w STRC(216)         1 DML_REC
     0-0-0/w ASTR(180)   r     1 DNT                        0-0-0/w STRC(73836)       1 EVALUATE
     0-0-0/w STRC(396)         1 FD                         0-0-0/w STRC(1692)  r     1 FILE_LTS
     0-0-0/w STRC(288)         1 ILS_LIST                   0-0-0/w STRC(108)         1 INDEXES
     0-0-0/w STRC(360)         1 INIT_LTS                   0-0-0/w STRC(288)         1 INSPECT_1_STMT
     0-0-0/w STRC(288)         1 INSPECT_2_STMT             0-0-0/w STRC(288)         1 INSPECT_4_STMT
     0-0-0/w STRC(396)         1 INTDEF                     0-0-0/w STRC(180)         1 IO_RESTORE_CHAIN
     0-0-0/w STRC(144)         1 KEY                        0-0-0/w STRC(396)         1 LABEL
     0-0-0/w STRC(288)         1 LA_ITEM                    0-0-0/w STRC(36864)       1 LCNST
     0-0-0/w STRC(72)          1 LONG                       0-0-0/w STRC              1 LTS
     0-0-0/w STRC(360)         1 LTSS                       0-0-0/w STRC(36936)       1 LTS_PTR_ARRAY
PL6.E3A0      #006=Z9EM$CODE_SET File=Z9EM.:Z8A6TSI                              SAT 08/09/97 13:51 Page:128
     0-0-0/w STRC(504)         1 LX_CD_INPUT                0-0-0/w STRC(324)         1 LX_CD_I_O
     0-0-0/w STRC(396)         1 LX_CD_OUTPUT               0-0-0/w STRC(288)         1 LX_ETT_ITEM
     0-0-0/w STRC(288)   r     1 LX_ITEM                    0-0-0/w STRC(288)         1 LX_LARGE
     0-0-0/w STRC(288)         1 LX_LIST                    0-0-0/w STRC(1224)        1 LX_REC_DECL
     0-0-0/w STRC(864)         1 LX_REPORT_REC              0-0-0/w STRC(288)   r     1 LX_TERMINAL
     0-0-0/w STRC(396)         1 MNEMONIC                   0-0-0/w STRC(288)         1 MULTIPLY_STMT
     0-0-0/w STRC(144)         1 NEL                        0-0-0/w STRC(216)         1 OPEN_LTS
     0-0-0/w STRC(36864)       1 PAGE                       0-0-0/w STRC(396)         1 PARA
     0-0-0/w STRC(144)         1 PRIME                      0-0-0/w STRC(396)         1 PROC_
     0-0-0/w STRC(396)         1 PROC_DEF                   0-0-0/w STRC(900)         1 PROC_SUPP
     0-0-0/w STRC(396)         1 RD                         0-0-0/w STRC(288)         1 READ_STMT
     0-0-0/w STRC(216)         1 REF                        0-0-0/w STRC(108)         1 RENAMES
     0-0-0/w STRC(720)         1 REPORT_01_LTS              0-0-0/w STRC(432)         1 REPORT_ELEM_LTS
     0-0-0/w STRC(252)         1 REPORT_GRP_LTS             0-0-0/w STRC(1332)        1 REPORT_LTS
     0-0-0/w STRC(288)         1 REWRITE_STMT               0-0-0/w STRC(144)         1 RVA_LTS
     0-0-0/w STRC(396)         1 SCALAR                     0-0-0/w STRC(396)         1 SD
     0-0-0/w STRC(396)         1 SECTION                    0-0-0/w STRC(396)         1 SEGMENT
     0-0-0/w STRC(360)         1 SEGMENT_LTS                0-0-0/w STRC(396)         1 ST
     0-0-0/w STRC(288)         1 START_STMT                 0-0-0/w STRC(252)         1 STRING_STMT
     0-0-0/w STRC(288)         1 SUBTRACT_STMT              0-0-0/w STRC(252)         1 SUM_LTS
     0-0-0/w STRC(396)         1 SWITCH                     0-0-0/w STRC(396)         1 SYMBOLIC_CHAR
     0-0-0/w STRC(396)         1 SYMDEF_                    0-0-0/w STRC(396)         1 SYMREF_
     0-0-0/w STRC(396)         1 TEMP                       0-0-0/w STRC(288)         1 UNARY_OP
     0-0-0/w STRC(288)         1 UNSTRING_STMT              0-0-0/d STRC(612)         1 USE
     0-0-0/w STRC(252)         1 USE_SUPP                   0-0-0/w STRC(396)         1 VARIABLE
     0-0-0/w STRC(288)         1 WRITE_STMT


   Procedure Z9EM$CODE_SET requires 37 words for executable code.
   Procedure Z9EM$CODE_SET requires 10 words of local(AUTO) storage.

PL6.E3A0      #007=Z9EM$ASSIGN_RECOVERY File=Z9EM.:Z8A6TSI                       SAT 08/09/97 13:53 Page:129
      574        1        /*T***********************************************************/
      575        2        /*T*                                                         */
      576        3        /*T* Copyright (c) Bull HN Information Systems Inc., 1997    */
      577        4        /*T*                                                         */
      578        5        /*T***********************************************************/
      579        6        Z9EM$ASSIGN_RECOVERY: PROC (P$, FILE$);
      580        7
      581        8         /*P*
      582        9               NAME : Z9EM$ASSIGN_RECOVERY
      583       10               PURPOSE : This is called for error recovery, it makes the
      584       11                 device assignment to DISK for CP6.
      585       12                 The extra parameter is used for GCOS compatibility.
      586       13         */
      587       14
      588       15             %EQU PHASE = 1;
      589       16
      590       17             %INCLUDE Z8A_DEFC;
      591       85             %INCLUDE Z8A_SUPP_MAC;
      592     2485             %INCLUDE Z8A_COMCOM;
      593     3135             %INCLUDE Z8A_DNT;
      594     3356             %INCLUDE Z8A_LTS;
      595     5433             %INCLUDE Z8A_ST;
      596     9092             %INCLUDE Z8A_IO_EQUS;
      597     9215
      598     9216    1        DCL Z8AH$NEW_DNT  ENTRY (3);
      599     9217
      600     9218    1        DCL P$            PTR;
      601     9219    1        DCL DISK$         PTR;
      602     9220    1        DCL FILE$         PTR;
      603     9221
      604     9222
      605     9223    1        CALL Z8AH$NEW_DNT (%DISK, 4, DISK$);
      606     9224
      607     9225             %NEW_LTS_PTR_ARRAY (@POINTER = P$,
      608     9226                                 @SIZE    = %MIN_LTS_PTR_ARRAY_SIZE);
      609     9319
      610     9320    1        P$ -> LTS_PTR_ARRAY.P$ (0) = DISK$;
PL6.E3A0      #007=Z9EM$ASSIGN_RECOVERY File=Z9EM.:Z8A6TSI                       SAT 08/09/97 13:53 Page:130
      611     9321
      612     9322    1   END Z9EM$ASSIGN_RECOVERY;
      613     9323        %EOD;

PL6.E3A0      #007=Z9EM$ASSIGN_RECOVERY File=Z9EM.:Z8A6TSI                       SAT 08/09/97 13:53 Page:131
--  Include file information  --

   Z8A_IO_EQUS.:Z8A6TOU  is referenced.
   Z8A_ST.:Z8A6TOU  cannot be made into a system file and is referenced.
   Z8A_LTS.:Z8A6TOU  cannot be made into a system file and is referenced.
   Z8A_DNT.:Z8A6TOU  cannot be made into a system file and is referenced.
   Z8A_COMCOM.:Z8A6TOU  cannot be made into a system file and is referenced.
   X8A_COM_MACS.:X8A6TOU  is referenced.
   Z8A_NAMES.:Z8A6TOU  is referenced.
   Z8A_SUPP_MAC.:Z8A6TOU  is referenced.
   Z8A_DEFC.:Z8A6TOU  cannot be made into a system file and is referenced.
      No diagnostics issued in procedure Z9EM$ASSIGN_RECOVERY.

   Procedure Z9EM$ASSIGN_RECOVERY requires 45 words for executable code.
   Procedure Z9EM$ASSIGN_RECOVERY requires 10 words of local(AUTO) storage.

PL6.E3A0      #007=Z9EM$ASSIGN_RECOVERY File=Z9EM.:Z8A6TSI                       SAT 08/09/97 13:53 Page:132

 Object Unit name= Z9EM$ASSIGN_RECOVERY                       File name= Z9EM.:Z8A6TOU
 UTS= AUG 09 '97 13:53:39.28 SAT                              Compiler= PL-6/E31         Sev=      00
 SharedLib= :SHARED_SYSTEM                                    Alt SharedLib=


    ****  Control sections  ****

 Sect   Type Bound  Init  Size OctSiz  Section name(segment info)
    0  LblCom even  none     1      1  ITERATION
    1  LblCom even  none     1      1  DNT$
    2  LblCom even  none     5      5  DNT_
    3  LblCom even  none     1      1  DNT_BUCKET_NUMBER
    4  LblCom even  none     1      1  DNT_OF_1$
    5  LblCom even  none     1      1  LTS$
    6  LblCom even  none     5      5  LTS_
    7  LblCom even  none     1      1  ST$
    8  LblCom even  none     5      5  ST_
    9  RoData even  UTS      1      1  Z9EM$ASSIGN_RECOVERY
   10   Proc  even  none    45     55  Z9EM$ASSIGN_RECOVERY
   11  RoData even  none     7      7  Z9EM$ASSIGN_RECOVERY

    ****  Entry defs  ****

                              Check   Calling
                             calling  sequence
  Sect OctLoc Primary Altret sequence   type   Parms  Name
    10      0   yes            yes      Std        2  Z9EM$ASSIGN_RECOVERY

  ****  Entry refs  ****

         Check        Calling
        calling       sequence
Altret sequence SRef   type   Args  Name
         yes           Std       3 Z8AH$NEW_DNT
         yes           Std       1 Z8AR$RESERVER
                       nStd      0 X66_AUTO_2
                       nStd      0 X66_ARET
PL6.E3A0      #007=Z9EM$ASSIGN_RECOVERY File=Z9EM.:Z8A6TSI                       SAT 08/09/97 13:53 Page:133

  ****  Data refs  ****

  Flags:  r = read only, s = secondary
Flgs Name                             Flgs Name                             Flgs Name
     COMCOM                           r    LTS_STEP

  ****  Segment refs  ****

  Flags:  r = read only, s = secondary
Flgs Name                             Flgs Name                             Flgs Name
     NULLSID                               ISSID
PL6.E3A0      #007=Z9EM$ASSIGN_RECOVERY File=Z9EM.:Z8A6TSI                       SAT 08/09/97 13:53 Page:134


      574        1        /*T***********************************************************/
      575        2        /*T*                                                         */
      576        3        /*T* Copyright (c) Bull HN Information Systems Inc., 1997    */
      577        4        /*T*                                                         */
      578        5        /*T***********************************************************/
      579        6        Z9EM$ASSIGN_RECOVERY: PROC (P$, FILE$);

      6 10 000000   000000 700200 xent  Z9EM$ASSIGN* TSX0  ! X66_AUTO_2
        10 000001   000012 000002                    ZERO    10,2

      580        7
      581        8         /*P*
      582        9               NAME : Z9EM$ASSIGN_RECOVERY
      583       10               PURPOSE : This is called for error recovery, it makes the
      584       11                 device assignment to DISK for CP6.
      585       12                 The extra parameter is used for GCOS compatibility.
      586       13         */
      587       14
      588       15             %EQU PHASE = 1;
      589       16
      590       17             %INCLUDE Z8A_DEFC;
      591       85             %INCLUDE Z8A_SUPP_MAC;
      592     2485             %INCLUDE Z8A_COMCOM;
      593     3135             %INCLUDE Z8A_DNT;
      594     3356             %INCLUDE Z8A_LTS;
      595     5433             %INCLUDE Z8A_ST;
      596     9092             %INCLUDE Z8A_IO_EQUS;
      597     9215
      598     9216    1        DCL Z8AH$NEW_DNT  ENTRY (3);
      599     9217
      600     9218    1        DCL P$            PTR;
      601     9219    1        DCL DISK$         PTR;
      602     9220    1        DCL FILE$         PTR;
      603     9221
      604     9222
      605     9223    1        CALL Z8AH$NEW_DNT (%DISK, 4, DISK$);
PL6.E3A0      #007=Z9EM$ASSIGN_RECOVERY File=Z9EM.:Z8A6TSI                       SAT 08/09/97 13:53 Page:135

   9223 10 000002   200005 630500                    EPPR0   DISK$,,AUTO
        10 000003   200010 450500                    STP0    DISK$+3,,AUTO
        10 000004   000002 237000 11                 LDAQ    2
        10 000005   200006 757100                    STAQ    DISK$+1,,AUTO
        10 000006   200006 630500                    EPPR0   DISK$+1,,AUTO
        10 000007   000000 631400 11                 EPPR1   0
        10 000010   000000 701000 xent               TSX1    Z8AH$NEW_DNT
        10 000011   000000 011000                    NOP     0

      606     9224
      607     9225             %NEW_LTS_PTR_ARRAY (@POINTER = P$,
      608     9226                                 @SIZE    = %MIN_LTS_PTR_ARRAY_SIZE);

   9228 10 000012   000003 235007                    LDA     3,DL
        10 000013   000000 755000 0                  STA     ITERATION

   9306 10 000014   000002 236000 6                  LDQ     LTS_+2
        10 000015   000000 036000 0                  ADLQ    ITERATION
        10 000016   000003 116000 6                  CMPQ    LTS_+3
        10 000017   000030 604000 10                 TMI     s:9308

   9307 10 000020   000005 236000 11                 LDQ     5
        10 000021   200006 756100                    STQ     DISK$+1,,AUTO
        10 000022   200006 630500                    EPPR0   DISK$+1,,AUTO
        10 000023   200007 450500                    STP0    DISK$+2,,AUTO
        10 000024   200007 630500                    EPPR0   DISK$+2,,AUTO
        10 000025   000004 631400 11                 EPPR1   4
        10 000026   000000 701000 xent               TSX1    Z8AR$RESERVER
        10 000027   000000 011000                    NOP     0

   9308 10 000030   000002 236000 6                  LDQ     LTS_+2
        10 000031   000022 736000                    QLS     18
        10 000032   000001 036000 6                  ADLQ    LTS_+1
        10 000033   200003 470500                    LDP0    @P$,,AUTO
        10 000034   000000 756100                    STQ     0,,PR0

PL6.E3A0      #007=Z9EM$ASSIGN_RECOVERY File=Z9EM.:Z8A6TSI                       SAT 08/09/97 13:53 Page:136
   9309 10 000035   000002 236000 6                  LDQ     LTS_+2
        10 000036   000000 036000 0                  ADLQ    ITERATION
        10 000037   000002 756000 6                  STQ     LTS_+2

   9310 10 000040   000000 471500                    LDP1    0,,PR0
        10 000041   001122 220003                    LDX0    594,DU
        10 000042   100000 740100                    STX0    0,,PR1

   9312 10 000043   000000 471500                    LDP1    0,,PR0
        10 000044   000000 721000 0                  LXL1    ITERATION
        10 000045   100000 441100                    SXL1    0,,PR1

   9316 10 000046   000000 471500                    LDP1    0,,PR0
        10 000047   000006 236000 11                 LDQ     6
        10 000050   100001 756100                    STQ     1,,PR1

      609     9319
      610     9320    1        P$ -> LTS_PTR_ARRAY.P$ (0) = DISK$;

   9320 10 000051   000000 471500                    LDP1    0,,PR0
        10 000052   200005 236100                    LDQ     DISK$,,AUTO
        10 000053   100002 756100                    STQ     2,,PR1

      611     9321
      612     9322    1   END Z9EM$ASSIGN_RECOVERY;

   9322 10 000054   000000 702200 xent               TSX2  ! X66_ARET
      613     9323        %EOD;

PL6.E3A0      #007=Z9EM$ASSIGN_RECOVERY File=Z9EM.:Z8A6TSI                       SAT 08/09/97 13:53 Page:137
--  Include file information  --

   Z8A_IO_EQUS.:Z8A6TOU  is referenced.
   Z8A_ST.:Z8A6TOU  cannot be made into a system file and is referenced.
   Z8A_LTS.:Z8A6TOU  cannot be made into a system file and is referenced.
   Z8A_DNT.:Z8A6TOU  cannot be made into a system file and is referenced.
   Z8A_COMCOM.:Z8A6TOU  cannot be made into a system file and is referenced.
   X8A_COM_MACS.:X8A6TOU  is referenced.
   Z8A_NAMES.:Z8A6TOU  is referenced.
   Z8A_SUPP_MAC.:Z8A6TOU  is referenced.
   Z8A_DEFC.:Z8A6TOU  cannot be made into a system file and is referenced.
      No diagnostics issued in procedure Z9EM$ASSIGN_RECOVERY.
PL6.E3A0      #007=Z9EM$ASSIGN_RECOVERY File=Z9EM.:Z8A6TSI                       SAT 08/09/97 13:53 Page:138

 **** Variables and constants ****

  ****  Section 000 LblCom ITERATION

  ****  Scalars and arrays  ****
OctLoc.c.b A Datatyp(siz) R M Lvl/name                 OctLoc.c.b A Datatyp(siz) R M Lvl/name

     0-0-0/w SBIN        r     1 ITERATION

  ****  Section 001 LblCom DNT$

  ****  Scalars and arrays  ****
OctLoc.c.b A Datatyp(siz) R M Lvl/name                 OctLoc.c.b A Datatyp(siz) R M Lvl/name

     0-0-0/w PTR         r     1 DNT$

  ****  Section 002 LblCom DNT_

  ****  Scalars and arrays  ****
OctLoc.c.b A Datatyp(siz) R M Lvl/name                 OctLoc.c.b A Datatyp(siz) R M Lvl/name

     0-0-0/w STRC(180)         1 DNT_

  ****  Section 003 LblCom DNT_BUCKET_NUMBER

  ****  Scalars and arrays  ****
OctLoc.c.b A Datatyp(siz) R M Lvl/name                 OctLoc.c.b A Datatyp(siz) R M Lvl/name

     0-0-0/w UBIN              1 DNT_BUCKET_NUMBER

  ****  Section 004 LblCom DNT_OF_1$

  ****  Scalars and arrays  ****
OctLoc.c.b A Datatyp(siz) R M Lvl/name                 OctLoc.c.b A Datatyp(siz) R M Lvl/name

     0-0-0/w PTR               1 DNT_OF_1$

PL6.E3A0      #007=Z9EM$ASSIGN_RECOVERY File=Z9EM.:Z8A6TSI                       SAT 08/09/97 13:53 Page:139
  ****  Section 005 LblCom LTS$

  ****  Scalars and arrays  ****
OctLoc.c.b A Datatyp(siz) R M Lvl/name                 OctLoc.c.b A Datatyp(siz) R M Lvl/name

     0-0-0/w PTR               1 LONG_ITEM$                 0-0-0/w PTR         r     1 LTS$

  ****  Section 006 LblCom LTS_

  ****  Scalars and arrays  ****
OctLoc.c.b A Datatyp(siz) R M Lvl/name                 OctLoc.c.b A Datatyp(siz) R M Lvl/name

     0-0-0/w STRC(180)   r     1 LTS_

  ****  Section 007 LblCom ST$

  ****  Scalars and arrays  ****
OctLoc.c.b A Datatyp(siz) R M Lvl/name                 OctLoc.c.b A Datatyp(siz) R M Lvl/name

     0-0-0/w PTR         r     1 ST$

  ****  Section 008 LblCom ST_

  ****  Scalars and arrays  ****
OctLoc.c.b A Datatyp(siz) R M Lvl/name                 OctLoc.c.b A Datatyp(siz) R M Lvl/name

     0-0-0/w STRC(180)         1 ST_

  ****  Auto variables  ****

  ****  Scalars and arrays  ****
OctLoc.c.b A Datatyp(siz) R M Lvl/name                 OctLoc.c.b A Datatyp(siz) R M Lvl/name

     4-0-0/w PTR         r     1 @FILE$                     3-0-0/w PTR         r     1 @P$
     5-0-0/w PTR         r     1 DISK$                     *0-0-0/w PTR         r     1 FILE$
    *0-0-0/w PTR         r     1 P$

PL6.E3A0      #007=Z9EM$ASSIGN_RECOVERY File=Z9EM.:Z8A6TSI                       SAT 08/09/97 13:53 Page:140
  ****  SYMREF variables  ****

  ****  Scalars and arrays  ****
OctLoc.c.b A Datatyp(siz) R M Lvl/name                 OctLoc.c.b A Datatyp(siz) R M Lvl/name

     0-0-0/d STRC(13248)       1 COMCOM
     0-0-0/w UBIN              1 LTS_STEP(0:37)

  ****  BASED and DCB variables  ****

  ****  Scalars and arrays  ****
OctLoc.c.b A Datatyp(siz) R M Lvl/name                 OctLoc.c.b A Datatyp(siz) R M Lvl/name

     0-0-0/w STRC(396)         1 ALPHABET                   0-0-0/w STRC(144)         1 ALTER_LTS
     0-0-0/w STRC(3672)        1 ALT_KEY                    0-0-0/w STRC(36864)       1 ARGLIST
     0-0-0/w STRC(396)         1 ARRAY                      0-0-0/w STRC(180)         1 ARRAY_PRESET_LTS
     0-0-0/w STRC(288)         1 BASE_LTS                   0-0-0/w STRC(396)         1 BLOCK
     0-0-0/w STRC(144)         1 BT                         0-0-0/w STRC(396)         1 CD
     0-0-0/w STRC(288)         1 CD_LTS                     0-0-0/w CHAR(4096)        1 CHARS
     0-0-0/w STRC(396)         1 CLASS                      0-0-0/w STRC(396)         1 CONDITION
     0-0-0/w STRC(396)         1 CONST                      0-0-0/w STRC(72)          1 CONT
     0-0-0/w STRC(540)         1 CONTROL_NAME_LTS           0-0-0/w STRC(1872)        1 COPY_FILE
     0-0-0/w STRC(396)         1 DB                         0-0-0/w STRC(396)         1 DCB_
     0-0-0/w STRC(108)         1 DEPENDING_SIZE             0-0-0/w STRC(5472)        1 DIMS
     0-0-0/w STRC(396)         1 DML_ITEM                   0-0-0/w STRC(216)         1 DML_REC
     0-0-0/w ASTR(180)   r     1 DNT                        0-0-0/w STRC(73836)       1 EVALUATE
     0-0-0/w STRC(396)         1 FD                         0-0-0/w STRC(1692)        1 FILE_LTS
     0-0-0/w STRC(108)         1 INDEXES                    0-0-0/w STRC(360)         1 INIT_LTS
     0-0-0/w STRC(396)         1 INTDEF                     0-0-0/w STRC(180)         1 IO_RESTORE_CHAIN
     0-0-0/w STRC(144)         1 KEY                        0-0-0/w STRC(396)         1 LABEL
     0-0-0/w STRC(36864)       1 LCNST                      0-0-0/w STRC(72)          1 LONG
     0-0-0/w STRC        r     1 LTS                        0-0-0/w STRC(360)         1 LTSS
     0-0-0/w STRC(36936) r     1 LTS_PTR_ARRAY              0-0-0/w STRC(396)         1 MNEMONIC
     0-0-0/w STRC(144)         1 NEL                        0-0-0/w STRC(216)         1 OPEN_LTS
     0-0-0/w STRC(36864)       1 PAGE                       0-0-0/w STRC(396)         1 PARA
     0-0-0/w STRC(144)         1 PRIME                      0-0-0/w STRC(396)         1 PROC_
     0-0-0/w STRC(396)         1 PROC_DEF                   0-0-0/w STRC(900)         1 PROC_SUPP
PL6.E3A0      #007=Z9EM$ASSIGN_RECOVERY File=Z9EM.:Z8A6TSI                       SAT 08/09/97 13:53 Page:141
     0-0-0/w STRC(396)         1 RD                         0-0-0/w STRC(216)         1 REF
     0-0-0/w STRC(108)         1 RENAMES                    0-0-0/w STRC(720)         1 REPORT_01_LTS
     0-0-0/w STRC(432)         1 REPORT_ELEM_LTS            0-0-0/w STRC(252)         1 REPORT_GRP_LTS
     0-0-0/w STRC(1332)        1 REPORT_LTS                 0-0-0/w STRC(144)         1 RVA_LTS
     0-0-0/w STRC(396)         1 SCALAR                     0-0-0/w STRC(396)         1 SD
     0-0-0/w STRC(396)         1 SECTION                    0-0-0/w STRC(396)         1 SEGMENT
     0-0-0/w STRC(360)         1 SEGMENT_LTS                0-0-0/w STRC(396)         1 ST
     0-0-0/w STRC(252)         1 SUM_LTS                    0-0-0/w STRC(396)         1 SWITCH
     0-0-0/w STRC(396)         1 SYMBOLIC_CHAR              0-0-0/w STRC(396)         1 SYMDEF_
     0-0-0/w STRC(396)         1 SYMREF_                    0-0-0/w STRC(396)         1 TEMP
     0-0-0/d STRC(612)         1 USE                        0-0-0/w STRC(252)         1 USE_SUPP
     0-0-0/w STRC(396)         1 VARIABLE


   Procedure Z9EM$ASSIGN_RECOVERY requires 45 words for executable code.
   Procedure Z9EM$ASSIGN_RECOVERY requires 10 words of local(AUTO) storage.

PL6.E3A0      #008=Z9EM$REPORT_CODE File=Z9EM.:Z8A6TSI                           SAT 08/09/97 13:55 Page:142
      614        1        /*T***********************************************************/
      615        2        /*T*                                                         */
      616        3        /*T* Copyright (c) Bull HN Information Systems Inc., 1997    */
      617        4        /*T*                                                         */
      618        5        /*T***********************************************************/
      619        6        Z9EM$REPORT_CODE: PROC (ITEM$);
      620        7
      621        8         /*P*
      622        9               NAME : Z9EM$REPORT_CODE
      623       10               PURPOSE: Place the lex item for the REPORT CODE clause where it
      624       11                 needs to go. On CP-6, it goes into the bit bucket.
      625       12         */
      626       13
      627       14             %EQU PHASE = 1;
      628       15             %INCLUDE Z8A_DEFC;
      629       83             %INCLUDE Z8E_STACKS;
      630     2349
      631     2350    1        DCL Z8ED$DISPOSE_ABSSYN_TREE ENTRY (1);
      632     2351
      633     2352    1        DCL ITEM$ PTR;
      634     2353
      635     2354    1        CALL Z8ED$DISPOSE_ABSSYN_TREE (ITEM$ -> LX_LIST.HEAD$);
      636     2355
      637     2356    1        RETURN;
      638     2357
      639     2358    1   END Z9EM$REPORT_CODE;

PL6.E3A0      #008=Z9EM$REPORT_CODE File=Z9EM.:Z8A6TSI                           SAT 08/09/97 13:55 Page:143
--  Include file information  --

   Z8A_LEX_SYMB.:Z8A6TOU  cannot be made into a system file and is referenced.
   Z8E_STACKS.:Z8A6TOU  cannot be made into a system file and is referenced.
   Z8A_DEFC.:Z8A6TOU  cannot be made into a system file and is referenced.
      No diagnostics issued in procedure Z9EM$REPORT_CODE.

   Procedure Z9EM$REPORT_CODE requires 11 words for executable code.
   Procedure Z9EM$REPORT_CODE requires 6 words of local(AUTO) storage.

    No errors detected in file Z9EM.:Z8A6TSI    .

PL6.E3A0      #008=Z9EM$REPORT_CODE File=Z9EM.:Z8A6TSI                           SAT 08/09/97 13:55 Page:144

 Object Unit name= Z9EM$REPORT_CODE                           File name= Z9EM.:Z8A6TOU
 UTS= AUG 09 '97 13:55:00.36 SAT                              Compiler= PL-6/E31         Sev=      00
 SharedLib= :SHARED_SYSTEM                                    Alt SharedLib=


    ****  Control sections  ****

 Sect   Type Bound  Init  Size OctSiz  Section name(segment info)
    0  LblCom even  none     1      1  ITERATION
    1  LblCom even  none    90    132  LEX_SYMBOL
    2  LblCom even  none     1      1  CURRENT_LEX_SYMBOL$
    3  LblCom even  none    90    132  TEMP_LEX_SYMBOL
    4  LblCom even  none    90    132  TEMP_LEX_SYMBOL2
    5   Proc  even  none    11     13  Z9EM$REPORT_CODE
    6  RoData even  none     1      1  Z9EM$REPORT_CODE

    ****  Entry defs  ****

                              Check   Calling
                             calling  sequence
  Sect OctLoc Primary Altret sequence   type   Parms  Name
     5      0   yes            yes      Std        1  Z9EM$REPORT_CODE

  ****  Entry refs  ****

         Check        Calling
        calling       sequence
Altret sequence SRef   type   Args  Name
         yes           Std       1 Z8ED$DISPOSE_ABSSYN_TREE
                       nStd      0 X66_AUTO_1
                       nStd      0 X66_ARET
PL6.E3A0      #008=Z9EM$REPORT_CODE File=Z9EM.:Z8A6TSI                           SAT 08/09/97 13:55 Page:145

  ****  Segment refs  ****

  Flags:  r = read only, s = secondary
Flgs Name                             Flgs Name                             Flgs Name
     ISSID
PL6.E3A0      #008=Z9EM$REPORT_CODE File=Z9EM.:Z8A6TSI                           SAT 08/09/97 13:55 Page:146


      614        1        /*T***********************************************************/
      615        2        /*T*                                                         */
      616        3        /*T* Copyright (c) Bull HN Information Systems Inc., 1997    */
      617        4        /*T*                                                         */
      618        5        /*T***********************************************************/
      619        6        Z9EM$REPORT_CODE: PROC (ITEM$);

      6  5 000000   000000 700200 xent  Z9EM$REPORT* TSX0  ! X66_AUTO_1
         5 000001   000006 000001                    ZERO    6,1

      620        7
      621        8         /*P*
      622        9               NAME : Z9EM$REPORT_CODE
      623       10               PURPOSE: Place the lex item for the REPORT CODE clause where it
      624       11                 needs to go. On CP-6, it goes into the bit bucket.
      625       12         */
      626       13
      627       14             %EQU PHASE = 1;
      628       15             %INCLUDE Z8A_DEFC;
      629       83             %INCLUDE Z8E_STACKS;
      630     2349
      631     2350    1        DCL Z8ED$DISPOSE_ABSSYN_TREE ENTRY (1);
      632     2351
      633     2352    1        DCL ITEM$ PTR;
      634     2353
      635     2354    1        CALL Z8ED$DISPOSE_ABSSYN_TREE (ITEM$ -> LX_LIST.HEAD$);

   2354  5 000002   200003 470500                    LDP0    @ITEM$,,AUTO
         5 000003   000000 471500                    LDP1    0,,PR0
         5 000004   100004 633500                    EPPR3   4,,PR1
         5 000005   200004 453500                    STP3    @ITEM$+1,,AUTO
         5 000006   200004 630500                    EPPR0   @ITEM$+1,,AUTO
         5 000007   000000 631400 6                  EPPR1   0
         5 000010   000000 701000 xent               TSX1    Z8ED$DISPOSE_ABSSYN_TREE
         5 000011   000000 011000                    NOP     0

PL6.E3A0      #008=Z9EM$REPORT_CODE File=Z9EM.:Z8A6TSI                           SAT 08/09/97 13:55 Page:147
      636     2355
      637     2356    1        RETURN;

   2356  5 000012   000000 702200 xent               TSX2  ! X66_ARET
      638     2357
      639     2358    1   END Z9EM$REPORT_CODE;

PL6.E3A0      #008=Z9EM$REPORT_CODE File=Z9EM.:Z8A6TSI                           SAT 08/09/97 13:55 Page:148
--  Include file information  --

   Z8A_LEX_SYMB.:Z8A6TOU  cannot be made into a system file and is referenced.
   Z8E_STACKS.:Z8A6TOU  cannot be made into a system file and is referenced.
   Z8A_DEFC.:Z8A6TOU  cannot be made into a system file and is referenced.
      No diagnostics issued in procedure Z9EM$REPORT_CODE.
PL6.E3A0      #008=Z9EM$REPORT_CODE File=Z9EM.:Z8A6TSI                           SAT 08/09/97 13:55 Page:149

 **** Variables and constants ****

  ****  Section 000 LblCom ITERATION

  ****  Scalars and arrays  ****
OctLoc.c.b A Datatyp(siz) R M Lvl/name                 OctLoc.c.b A Datatyp(siz) R M Lvl/name

     0-0-0/w SBIN              1 ITERATION

  ****  Section 001 LblCom LEX_SYMBOL

  ****  Scalars and arrays  ****
OctLoc.c.b A Datatyp(siz) R M Lvl/name                 OctLoc.c.b A Datatyp(siz) R M Lvl/name

     0-0-0/w STRC(3240)  r     1 LEX_SYMBOL                 0-0-0/w STRC(3240)        1 LEX_SYMBOL_WORDS

  ****  Section 002 LblCom CURRENT_LEX_SYMBOL$

  ****  Scalars and arrays  ****
OctLoc.c.b A Datatyp(siz) R M Lvl/name                 OctLoc.c.b A Datatyp(siz) R M Lvl/name

     0-0-0/w PTR         r     1 CURRENT_LEX_SYMBOL$

  ****  Section 003 LblCom TEMP_LEX_SYMBOL

  ****  Scalars and arrays  ****
OctLoc.c.b A Datatyp(siz) R M Lvl/name                 OctLoc.c.b A Datatyp(siz) R M Lvl/name

     0-0-0/w STRC(3240)        1 TEMP_LEX_SYMBOL

  ****  Section 004 LblCom TEMP_LEX_SYMBOL2

  ****  Scalars and arrays  ****
OctLoc.c.b A Datatyp(siz) R M Lvl/name                 OctLoc.c.b A Datatyp(siz) R M Lvl/name

     0-0-0/w STRC(3240)        1 TEMP_LEX_SYMBOL2

PL6.E3A0      #008=Z9EM$REPORT_CODE File=Z9EM.:Z8A6TSI                           SAT 08/09/97 13:55 Page:150
  ****  Auto variables  ****

  ****  Scalars and arrays  ****
OctLoc.c.b A Datatyp(siz) R M Lvl/name                 OctLoc.c.b A Datatyp(siz) R M Lvl/name

     3-0-0/w PTR         r     1 @ITEM$                    *0-0-0/w PTR         r     1 ITEM$

  ****  BASED and DCB variables  ****

  ****  Scalars and arrays  ****
OctLoc.c.b A Datatyp(siz) R M Lvl/name                 OctLoc.c.b A Datatyp(siz) R M Lvl/name

     0-0-0/w STRC(288)         1 ADD_STMT                   0-0-0/w ASTR(324)   r     1 BASED_LEX_SYMBOL
     0-0-0/w STRC(360)         1 BASED_LEX_SYMBOL_WORDS
     0-0-0/w STRC(288)         1 BINARY_OP                  0-0-0/w STRC(288)         1 CALL_STMT
     0-0-0/w CHAR(4096)        1 CHARS                      0-0-0/w STRC(288)         1 COMPUTE_STMT
     0-0-0/w STRC(72)          1 CONT                       0-0-0/w STRC(288)         1 DEFERED_IDENTIFIER
     0-0-0/w STRC(252)         1 DEFERED_ID_TREE            0-0-0/w STRC(288)         1 DEFERED_QUAL_ID
     0-0-0/w STRC(288)         1 DEFERED_SUM_CLAUSE
     0-0-0/w STRC(288)         1 DEFERED_SUM_CLAUSE_LIST
     0-0-0/w STRC(288)         1 DELETE_STMT                0-0-0/w STRC(288)         1 DIVIDE_STMT
     0-0-0/w STRC(288)         1 ILS_LIST                   0-0-0/w STRC(288)         1 INSPECT_1_STMT
     0-0-0/w STRC(288)         1 INSPECT_2_STMT             0-0-0/w STRC(288)         1 INSPECT_4_STMT
     0-0-0/w STRC(288)         1 LA_ITEM                    0-0-0/w STRC(504)         1 LX_CD_INPUT
     0-0-0/w STRC(324)         1 LX_CD_I_O                  0-0-0/w STRC(396)         1 LX_CD_OUTPUT
     0-0-0/w STRC(288)         1 LX_ETT_ITEM                0-0-0/w STRC(288)         1 LX_ITEM
     0-0-0/w STRC(288)         1 LX_LARGE                   0-0-0/w STRC(288)   r     1 LX_LIST
     0-0-0/w STRC(1224)        1 LX_REC_DECL                0-0-0/w STRC(864)         1 LX_REPORT_REC
     0-0-0/w STRC(288)         1 LX_TERMINAL                0-0-0/w STRC(288)         1 MULTIPLY_STMT
     0-0-0/w STRC(36864)       1 PAGE                       0-0-0/w STRC(288)         1 READ_STMT
     0-0-0/w STRC(288)         1 REWRITE_STMT               0-0-0/w STRC(288)         1 START_STMT
     0-0-0/w STRC(252)         1 STRING_STMT                0-0-0/w STRC(288)         1 SUBTRACT_STMT
     0-0-0/w STRC(288)         1 UNARY_OP                   0-0-0/w STRC(288)         1 UNSTRING_STMT
     0-0-0/w STRC(288)         1 WRITE_STMT

PL6.E3A0      #008=Z9EM$REPORT_CODE File=Z9EM.:Z8A6TSI                           SAT 08/09/97 13:55 Page:151

   Procedure Z9EM$REPORT_CODE requires 11 words for executable code.
   Procedure Z9EM$REPORT_CODE requires 6 words of local(AUTO) storage.

    No errors detected in file Z9EM.:Z8A6TSI    .
