PL6.E3A0      #006=Z9EN$SORT File=Z9EN.:Z8A6TSI                                  SAT 08/09/97 13:57 Page:232
     1203        1        /*T***********************************************************/
     1204        2        /*T*                                                         */
     1205        3        /*T* Copyright (c) Bull HN Information Systems Inc., 1997    */
     1206        4        /*T*                                                         */
     1207        5        /*T***********************************************************/
     1208        6        Z9EN$SORT : PROC (FILE_NAME$,
     1209        7                          ASC_DES$,
     1210        8                          COLLATING$,
     1211        9                          INPUT_USE_FILES$,
     1212       10                          OUTPUT_USE_FILES$);
     1213       11
     1214       12        /*P*
     1215       13               NAME : Z9EN$ {SORT|MERGE}
     1216       14               PURPOSE : To create the SORT/MERGE tables and ILL for
     1217       15                 the SORT|MERGE statement.
     1218       16         */
     1219       17
     1220       18    1     DCL FILE_NAME$ PTR;  /* To LX_ETT_ITEM for SORT file */
     1221       19    1     DCL ASC_DES$   PTR;  /* To LX_LIST of LX_LIST of two items
     1222       20                                     1. LX_TERMINAL (ascending/descending)
     1223       21                                     2. LX_LIST of LX_ETT_ITEMS(keys)
     1224       22                               */
     1225       23    1     DCL COLLATING$  PTR;  /* To LX_ETT_ITEM for alphabet st item */
     1226       24
     1227       25    1     DCL INPUT_USE_FILES$  PTR;
     1228       26    1     DCL OUTPUT_USE_FILES$ PTR;
     1229       27                               /* Pointers to either
     1230       28                                     1. LX_LIST of LX_ETT_ITEM (i-o files)
     1231       29                                  or
     1232       30                                     2. ST item for USE label
     1233       31                               */
     1234       32
     1235       33
     1236       34             %EQU PHASE = 1;
     1237       35             %EQU XLATE_CODE = 'X1';
     1238       36             %EQU XLATE_DEFAULT = '  ';
     1239       37             %EQU LIB_SORT_PROC_NAME = 'ZL8$SORT';
PL6.E3A0      #006=Z9EN$SORT File=Z9EN.:Z8A6TSI                                  SAT 08/09/97 13:57 Page:233
     1240       38             %EQU LIB_SORT_PROC_NAME_LENGTH = 8;
     1241       39             %EQU LIB_MERGE_PROC_NAME = 'ZL8$MERGE';
     1242       40             %EQU LIB_MERGE_PROC_NAME_LENGTH = 9;
     1243       41
     1244       42             %INCLUDE ZL_MACRO_C.:LIBRARY;
     1245      692
     1246      693             %INCLUDE Z8A_DEFC;
     1247      761             %INCLUDE Z8A_SUPP_MAC;
     1248     3161             %INCLUDE Z8A_COMCOM;
     1249     3811             %INCLUDE Z8A_ILL;
     1250     4504             %INCLUDE Z8A_DNT;
     1251     4725             %INCLUDE Z8A_ST;
     1252     8384             %INCLUDE Z8A_MKCN;
     1253     8401             %INCLUDE Z8A_LIBRARY;
     1254     8615             %INCLUDE Z8A_QLT;
     1255     8721             %INCLUDE Z8A_LTS;
     1256    10798             %INCLUDE Z8A_ETT;
     1257    11099             %INCLUDE Z8A_TYPES;
     1258    11273             %INCLUDE Z8A_ERR_NUMS;
     1259    12037             %INCLUDE X9A_IO;
     1260    12187             %INCLUDE X9A_MACROS;
     1261    12218
     1262    12219             %INCLUDE Z8E_STACKS;
     1263    14485             %INCLUDE Z8E_O1COM;
     1264    15246             %INCLUDE Z8E_WINDOW;
     1265    17316             %INCLUDE Z8E_MACROS;
     1266    17991
     1267    17992    1        DCL Z8AC$MAKE_TYA_CONST  ENTRY (4);
     1268    17993    1        DCL Z8AT$CREATE_TEMPORARY ENTRY (2);
     1269    17994    1        DCL Z9EY$BUILD_RUNTIME_DESCRIPTOR ENTRY(3);
     1270    17995    1        DCL Z8EY$BUILD_RUNTIME_ARGLIST    ENTRY(3);
     1271    17996    1        DCL Z8EU$CREATE_IDENTIFIER_FROM_ST ENTRY (4);
     1272    17997    1        DCL Z8AC$MAKE_CONST       ENTRY (1);
     1273    17998    1        DCL Z8AE$ERROR           ENTRY (12);
     1274    17999    1        DCL Z8AU$TYPE_DESCRIPTOR ENTRY (2);
     1275    18000    1        DCL Z9EO$RUNTIME_DESC_FROM_ETT ENTRY (5) ALTRET;
     1276    18001    1        DCL Z8EO$NEW_SYMREF            ENTRY (3);
PL6.E3A0      #006=Z9EN$SORT File=Z9EN.:Z8A6TSI                                  SAT 08/09/97 13:57 Page:234
     1277    18002
     1278    18003
     1279    18004             %SORT_TABLE       (FPTN     = CONSTANT_SORT,
     1280    18005                                STCLASS  = CONSTANT);
     1281    18114
     1282    18115             %MERGE_TABLE      (FPTN     = CONSTANT_MERGE,
     1283    18116                                STCLASS  = CONSTANT);
     1284    18210
     1285    18211
     1286    18212    1        DCL I             SBIN;
     1287    18213    1        DCL LEN           SBIN;
     1288    18214             %DCL_AUTO_LX_ITEM (@NAME = PSORT);
     1289    18218             %DCL_AUTO_LX_ITEM (@NAME = PMERGE);
     1290    18222             %DCL_AUTO_LX_ITEM (@NAME = COLLATING_SEQ);
     1291    18226
     1292    18227    1        DCL XLATE_PRESENT BIT(1) ALIGNED;
     1293    18228
     1294    18229    1        DCL SD$$          PTR;
     1295    18230    1        DCL SORT_ST$      PTR;
     1296    18231    1        DCL MERGE_ST$     PTR;
     1297    18232    1        DCL RT_DESC_LIST$ PTR;
     1298    18233    1        DCL RT_ARG_LIST$  PTR;
     1299    18234    1        DCL CONST$        PTR;
     1300    18235    1        DCL INSIZ_ST$     PTR;
     1301    18236    1        DCL MIN_SIZE_ST$  PTR;
     1302    18237    1        DCL COBOL80_ST$   PTR;
     1303    18238    1        DCL FILE_ST$      PTR;
     1304    18239    1        DCL INPUT_BLOCK$  PTR;
     1305    18240    1        DCL OUTPUT_BLOCK$ PTR;
     1306    18241    1        DCL ALPHA_ST$     PTR;
     1307    18242    1        DCL KEYS_ST$      PTR;
     1308    18243    1        DCL ICE_ST$       PTR;
     1309    18244    1        DCL OCE_ST$       PTR;
     1310    18245    1        DCL BASE$         PTR;
     1311    18246
     1312    18247            %EQU MAX_SIZE_OFF = 0;
     1313    18248            %EQU MIN_SIZE_OFF = 2;
PL6.E3A0      #006=Z9EN$SORT File=Z9EN.:Z8A6TSI                                  SAT 08/09/97 13:57 Page:235
     1314    18249            %EQU KEYS_OFF  = 4;
     1315    18250            %EQU XLATE_OFF = 5;
     1316    18251            %EQU INPUT_OFF = 7;
     1317    18252            %EQU OUTPUT_OFF = 8;
     1318    18253            %EQU COLLATE_OFF = 9;
     1319    18254            %EQU COBOL80_OFF = 14;
     1320    18255            %EQU ICE_OFF     = 26;
     1321    18256            %EQU OCE_OFF     = 27;
     1322    18257
     1323    18258    1        DCL P$            PTR;
     1324    18259    1        DCL UBIN_CONST    UBIN BASED;
     1325    18260
     1326    18261    1        DCL FAB$          PTR;
     1327    18262    1        DCL MERGE_STATEMENT  BOOLEAN;
     1328    18263             %EJECT;
PL6.E3A0      #006=Z9EN$SORT File=Z9EN.:Z8A6TSI                                  SAT 08/09/97 13:57 Page:236
     1329    18264        %MACRO UBIN_CONST (@VALUE = ,
     1330    18265                           @RTN$  = );
     1331    18266             DO;
     1332    18267               MKCN.CON = @VALUE;
     1333    18268               CALL Z8AC$MAKE_CONST (@RTN$);
     1334    18269               @RTN$ = @RTN$ -> ETT.LOP;
     1335    18270             END;
     1336    18271        %MEND;
     1337    18272
     1338    18273
     1339    18274        %MACRO KEY_INERDS;
     1340    18275
     1341    18276             2 PREC#           CHAR (2) UNAL,
     1342    18277             2 TYPE#           CHAR (2) UNAL,
     1343    18278             2 START#          UBIN,
     1344    18279             2 LENGTH#         UBIN,
     1345    18280             2 S_CODE#         UBIN (5) UNAL,
     1346    18281             2 L_CODE#         UBIN (4) UNAL,
     1347    18282             2 ORDER#          CHAR (1) UNAL,
     1348    18283             2 XLATE#          CHAR (2) UNAL;
     1349    18284
     1350    18285        %MEND;
     1351    18286        %EJECT;
PL6.E3A0      #006=Z9EN$SORT File=Z9EN.:Z8A6TSI                                  SAT 08/09/97 13:57 Page:237
     1352    18287        /*-------------*/
     1353    18288    1     BUILD_ZL_7480 :  PROC (RETURN$);
     1354    18289        /*-------------*/
     1355    18290
     1356    18291    2   DCL  RETURN$        PTR;
     1357    18292    2   DCL  CHAR_WORD      CHAR(4);
     1358    18293    2   DCL  1 OPTION_WORD  REDEF CHAR_WORD,
     1359    18294    2          2  *         CHAR(2) UNAL,
     1360    18295    2          2  FIX_VAR   CHAR(1) UNAL,
     1361    18296    2          2  COBOL74_E CHAR(1) UNAL;
     1362    18297
     1363    18298        %NEW_CONST( @ST$ = RETURN$,
     1364    18299                    @TYPE = %TYA );
     1365    18340    2   RETURN$ -> CONST.ADSC.N = 4;
     1366    18341
     1367    18342    2   CHAR_WORD = ' ';
     1368    18343    2   IF COMCOM.OB.COBOL_74    THEN
     1369    18344    2       OPTION_WORD.COBOL74_E = '7';
     1370    18345    2   ELSE
     1371    18346    2       OPTION_WORD.COBOL74_E = '8';
     1372    18347
     1373    18348    2    IF SD$$ -> SD.B.OCCURS_DEPENDING   OR  (FAB$ -> FILE_LTS.RECORD_CONTAINS.INT_1 ~=
     1374    18349    2                                       FAB$ -> FILE_LTS.RECORD_CONTAINS.INT_2)  THEN
     1375    18350    2      OPTION_WORD.FIX_VAR = 'V';
     1376    18351    2    ELSE
     1377    18352    2      OPTION_WORD.FIX_VAR = 'F';
     1378    18353    2    RETURN$ -> CONST.CONSTA =  CHAR_WORD;
     1379    18354
     1380    18355
     1381    18356    2   END  BUILD_ZL_7480;
     1382    18357        %EJECT;
PL6.E3A0      #006=Z9EN$SORT File=Z9EN.:Z8A6TSI                                  SAT 08/09/97 13:57 Page:238
     1383    18358    1   BUILD_ZL_FILE: PROC (FILE$, RTN$);
     1384    18359
     1385    18360    2        DCL FILE$         PTR; /* To Lx_ett_item for SD filename */
     1386    18361    2        DCL RTN$          PTR; /* To ST item that represents ZL_FILE */
     1387    18362
     1388    18363             %ZL_FILES         (FPTN    = ZL_FILES,
     1389    18364                                STCLASS = AUTO,
     1390    18365                                N       = 1);
     1391    18382
     1392    18383             %ZL_FILE          (STCLASS = AUTO);
     1393    18437
     1394    18438    2        DCL P$            PTR;
     1395    18439    2        DCL CONST$        PTR;
     1396    18440
     1397    18441    2        DCL SPACES        CHAR (31) CONSTANT INIT
     1398    18442    2                          ('                               ');
     1399    18443
     1400    18444
     1401    18445             %FISH (TRIAD = FILE$ -> LX_ETT_ITEM.ETT$,
     1402    18446                    RTN   = P$);
     1403    18454
     1404    18455    2        ZL_FILES.N# = 1;
     1405    18456    2        ZL_FILES.FILE1.DCBNAME.C# = SPACES;
     1406    18457    2        ZL_FILES.FILE1.DCBNAME.C# = P$ -> SD.DNT$ -> DNT.TEXT.NAME;
     1407    18458    2        ZL_FILES.FILE1.DCBNAME.L# = P$ -> SD.DNT$ -> DNT.TEXT.LENGTH;
     1408    18459
     1409    18460    2        CALL Z8AC$MAKE_TYA_CONST (ZL_FILES,
     1410    18461    2                                  SIZEC (ZL_FILES),
     1411    18462    2                                  0,
     1412    18463    2                                  CONST$);
     1413    18464
     1414    18465    2        CONST$ = CONST$ -> ETT.LOP;
     1415    18466
     1416    18467    2        CALL Z8AT$CREATE_TEMPORARY (%SCALAR, RTN$);
     1417    18468
     1418    18469    2        RTN$ -> SCALAR.ADSC.N   = SIZEC (ZL_FILES);
     1419    18470    2        RTN$ -> SCALAR.TYPE     = %TYA;
PL6.E3A0      #006=Z9EN$SORT File=Z9EN.:Z8A6TSI                                  SAT 08/09/97 13:57 Page:239
     1420    18471    2        RTN$ -> SCALAR.B.CLASS  = %CLASS_ALPHANUMERIC;
     1421    18472
     1422    18473    2        CALL PRESET (%PRESET, RTN$, CONST$, 0);
     1423    18474
     1424    18475    2   END BUILD_ZL_FILE;
     1425    18476        %EJECT;
PL6.E3A0      #006=Z9EN$SORT File=Z9EN.:Z8A6TSI                                  SAT 08/09/97 13:57 Page:240
     1426    18477    1   RESTORE_MERGE_FLAGS: PROC (HEAD$);
     1427    18478
     1428    18479    2       DCL HEAD$   PTR;
     1429    18480    2       DCL P$      PTR;
     1430    18481    2       DCL FD$$    PTR;
     1431    18482    2       DCL FAB$    PTR;
     1432    18483
     1433    18484    2   IF HEAD$ -> LX_ITEM.ID = %LX_LIST     THEN
     1434    18485    3     DO;
     1435    18486
     1436    18487    3       P$ = HEAD$ -> LX_LIST.HEAD$;
     1437    18488    4       DO I = 1 TO HEAD$ -> LX_LIST.COUNT;
     1438    18489
     1439    18490                %FISH(TRIAD = P$ -> LX_ETT_ITEM.ETT$, RTN = FD$$);
     1440    18498    4           IF FD$$ -> ST.ID = %FD AND NOT P$ -> LX_ETT_ITEM.B.ERROR THEN
     1441    18499    5             DO;
     1442    18500
     1443    18501                    %GET_LTS( @ID = %FILE_LTS,
     1444    18502                              @ST$ = FD$$,
     1445    18503                              @RETURN$ = FAB$);
     1446    18546    5               FAB$ -> FILE_LTS.B.MERGE_STATEMENT = %FALSE;
     1447    18547
     1448    18548    5             END;
     1449    18549    4           P$ = P$ -> LX_ITEM.LINK;
     1450    18550    4       END;
     1451    18551    3     END;
     1452    18552    2   END RESTORE_MERGE_FLAGS;
     1453    18553        %EJECT;
PL6.E3A0      #006=Z9EN$SORT File=Z9EN.:Z8A6TSI                                  SAT 08/09/97 13:57 Page:241
     1454    18554    1   BUILD_FILE: PROC (FILE$, PROC$, BLOCK$);
     1455    18555
     1456    18556    2        DCL FILE$         PTR;
     1457    18557    2        DCL PROC$         PTR;
     1458    18558    2        DCL BLOCK$        PTR;
     1459    18559
     1460    18560    2        DCL CONST_ENTADDR_NIL    EPTR CONSTANT INIT(ENTADDR(NIL));
     1461    18561    2        DCL UBIN_ENTADDR_NIL     REDEF CONST_ENTADDR_NIL UBIN;
     1462    18562
     1463    18563    2        DCL P$            PTR;
     1464    18564    2        DCL FD$$          PTR;
     1465    18565    2        DCL FAB$          PTR;
     1466    18566    2        DCL N$            PTR;
     1467    18567    2        DCL I             SBIN;
     1468    18568
     1469    18569
     1470    18570    3        DO CASE (FILE$ -> LX_ITEM.ID);
     1471    18571
     1472    18572    3          CASE (%LX_ETT_ITEM);
     1473    18573    3            BLOCK$ = ADDR(NIL); /* No I or O files */
     1474    18574
     1475    18575                 %FISH (TRIAD = FILE$ -> LX_ETT_ITEM.ETT$,
     1476    18576                        RTN   = PROC$);
     1477    18584
     1478    18585    3          CASE (%LX_LIST);
     1479    18586                 %UBIN_CONST (@VALUE = UBIN_ENTADDR_NIL, @RTN$ = PROC$);
     1480    18593
     1481    18594    3            CALL Z8AT$CREATE_TEMPORARY (%SCALAR, BLOCK$);
     1482    18595
     1483    18596    3            BLOCK$ -> SCALAR.TYPE   = %TYA;
     1484    18597    3            BLOCK$ -> SCALAR.ADSC.N = (FILE$ -> LX_LIST.COUNT + 1) * 4;
     1485    18598    3            BLOCK$ -> SCALAR.B.CLASS= %CLASS_ALPHANUMERIC;
     1486    18599
     1487    18600                 %UBIN_CONST (@VALUE = FILE$ -> LX_LIST.COUNT,
     1488    18601                              @RTN$  = N$);
     1489    18608
     1490    18609    3            CALL PRESET (%PREOFF, BLOCK$, N$, 0);
PL6.E3A0      #006=Z9EN$SORT File=Z9EN.:Z8A6TSI                                  SAT 08/09/97 13:57 Page:242
     1491    18610
     1492    18611    3            P$ = FILE$ -> LX_LIST.HEAD$;
     1493    18612
     1494    18613    4            DO I = 1 TO FILE$ -> LX_LIST.COUNT;
     1495    18614
     1496    18615                   %FISH (TRIAD = P$ -> LX_ETT_ITEM.ETT$,
     1497    18616                          RTN   = FD$$);
     1498    18624
     1499    18625    4              IF FD$$ -> ST.ID = %FD
     1500    18626    4              AND NOT P$ -> LX_ETT_ITEM.B.ERROR THEN
     1501    18627    5                DO;
     1502    18628                       %GET_LTS (@ID      = %FILE_LTS,
     1503    18629                                 @ST$     = FD$$,
     1504    18630                                 @RETURN$ = FAB$);
     1505    18673
     1506    18674    5                  CALL PRESET (%PTR_SET,
     1507    18675    5                               BLOCK$,
     1508    18676    5                               FAB$ -> FILE_LTS.FAB$,
     1509    18677    5                               I);
     1510    18678    5                  IF MERGE_STATEMENT   THEN
     1511    18679    5                      IF FAB$ -> FILE_LTS.B.MERGE_STATEMENT = %TRUE   THEN
     1512    18680    5                          CALL Z8AE$ERROR(%E$MULTIPLE_FILE_ERROR,,P$->LX_ITEM.COLUMN);
     1513    18681    5                      ELSE
     1514    18682    5                          FAB$ -> FILE_LTS.B.MERGE_STATEMENT = %TRUE;
     1515    18683
     1516    18684    5                END;
     1517    18685
     1518    18686    4              P$ = P$ -> LX_ITEM.LINK;
     1519    18687
     1520    18688    4            END; /* DO */
     1521    18689
     1522    18690    3          CASE (ELSE);
     1523    18691    3            CALL Z8AE$ERROR (%E$UNEXPECTED_CASE);
     1524    18692
     1525    18693    3        END; /* Case */
     1526    18694    2   END BUILD_FILE;
     1527    18695        %EJECT;
PL6.E3A0      #006=Z9EN$SORT File=Z9EN.:Z8A6TSI                                  SAT 08/09/97 13:57 Page:243
     1528    18696    1   BUILD_ZL_XLATE: PROC (COLLATING$, RTN$);
     1529    18697
     1530    18698    2        DCL COLLATING$    PTR; /* To lx_ett_item for alphabet_st item */
     1531    18699    2        DCL XLATE$        PTR; /* To lx_ett_item for translate table  */
     1532    18700    2        DCL RTN$          PTR; /* To ST for ZL_XLATE */
     1533    18701
     1534    18702             %ZL_XLATE         (FPTN     = ZL_XLATE,
     1535    18703                                STCLASS  = AUTO,
     1536    18704                                N        = 1);
     1537    18722
     1538    18723             %ZL_TABLE         (STCLASS  = AUTO);
     1539    18754
     1540    18755    2        DCL 1 CHAR_CODE    ALIGNED, /* 1 word aligned with code in first */
     1541    18756    2             2 CODE       CHAR(2) UNAL, /* 2 characters */
     1542    18757    2             2 FILL       CHAR(2) UNAL;
     1543    18758
     1544    18759    2        DCL XLATE_ST$     PTR;
     1545    18760    2        DCL CODE$         PTR;
     1546    18761    2        DCL COLLATING_SEQ$ PTR;
     1547    18762
     1548    18763
     1549    18764
     1550    18765    2       DCL ALP$ PTR;
     1551    18766
     1552    18767    2       XLATE$ = ADDR(NIL);
     1553    18768    2       COLLATING_SEQ$ = O1COM.CURRENT_PROC$ -> PROC_.PROC_SUPP$ -> PROC_SUPP.
             18768                COLLATING_SEQ$;
     1554    18769
     1555    18770    2       ASCII_OPT:
     1556    18771    3         DO;
     1557    18772    3           IF COLLATING$ ~= ADDR(NIL)
     1558    18773    3              AND COLLATING$ -> LX_ITEM.ID = %LX_ETT_ITEM THEN
     1559    18774    4             DO;
     1560    18775                    %FISH (TRIAD = COLLATING$ -> LX_ETT_ITEM.ETT$,
     1561    18776                           RTN = ALP$);
     1562    18784
     1563    18785    4               IF ALP$ -> ST.ID = %ALPHABET THEN
PL6.E3A0      #006=Z9EN$SORT File=Z9EN.:Z8A6TSI                                  SAT 08/09/97 13:57 Page:244
     1564    18786    5                 DO;
     1565    18787    5                   IF ALP$ -> ALPHABET.B.CODE = %ASCII THEN
     1566    18788    5                     EXIT ASCII_OPT;
     1567    18789
     1568    18790                        %INIT_LX_ETT_ITEM (@POINTER = "ADDR(COLLATING_SEQ)",
     1569    18791                                           @TYPE = %TYG,
     1570    18792                                           @ETT$ = ALP$ -> ALPHABET.TABLE_ETT$);
     1571    18814    5                   XLATE$ = ADDR(COLLATING_SEQ);
     1572    18815    5                 END;
     1573    18816    4               ELSE
     1574    18817                      %CONDITIONAL_ERROR (@LX_ITEM$ = COLLATING$,
     1575    18818                                          @ERROR# = %E$ALPHABET_EXPECTED,
     1576    18819                                          @LINE = COLLATING$ -> LX_ETT_ITEM.LINE,
     1577    18820                                          @COLUMN = COLLATING$ -> LX_ETT_ITEM.COLUMN);
     1578    18850    4             END;
     1579    18851
     1580    18852    3           IF XLATE$ = ADDR(NIL)
     1581    18853    3                AND  COLLATING_SEQ$ ~= ADDR(NIL) THEN
     1582    18854    4             DO;
     1583    18855                    %INIT_LX_ETT_ITEM (@POINTER = "ADDR(COLLATING_SEQ)",
     1584    18856                                       @TYPE = %TYG,
     1585    18857                                       @ETT$ = COLLATING_SEQ$ -> ALPHABET.TABLE_ETT$);
     1586    18879    4               XLATE$ = ADDR(COLLATING_SEQ);
     1587    18880    4             END;
     1588    18881    3         END;
     1589    18882
     1590    18883
     1591    18884    2        IF XLATE$ = ADDR(NIL) THEN
     1592    18885    3          DO;
     1593    18886    3            CHAR_CODE.CODE = '  ';
     1594    18887    3            CHAR_CODE.FILL = '  ';
     1595    18888    3            RTN$ = ADDR(NIL);
     1596    18889    3            XLATE_PRESENT = FALSE;
     1597    18890    3            RETURN;
     1598    18891    3          END;
     1599    18892
     1600    18893    2        ELSE
PL6.E3A0      #006=Z9EN$SORT File=Z9EN.:Z8A6TSI                                  SAT 08/09/97 13:57 Page:245
     1601    18894    2            XLATE_PRESENT = TRUE;
     1602    18895
     1603    18896             %FISH (TRIAD = XLATE$ -> LX_ETT_ITEM.ETT$,
     1604    18897                    RTN   = XLATE_ST$);
     1605    18905
     1606    18906    2        CALL Z8AT$CREATE_TEMPORARY (%SCALAR, RTN$);
     1607    18907
     1608    18908    2        RTN$ -> SCALAR.TYPE    = %TYA;
     1609    18909    2        RTN$ -> SCALAR.ADSC.N  = SIZEC (ZL_XLATE);
     1610    18910    2        RTN$ -> SCALAR.B.CLASS = %CLASS_ALPHANUMERIC;
     1611    18911
     1612    18912    2        CALL PRESET (%PREOFF, RTN$, COMCOM.VALUE_1 -> ETT.LOP, 0);
     1613    18913
     1614    18914
     1615    18915    2        CHAR_CODE.FILL = '  ';
     1616    18916    2        CHAR_CODE.CODE = %XLATE_CODE;
     1617    18917
     1618    18918    2        CALL Z8AC$MAKE_TYA_CONST (CHAR_CODE, 4, 0, CODE$);
     1619    18919
     1620    18920    2        CALL PRESET (%PREOFF, RTN$, CODE$ -> ETT.LOP, 1);
     1621    18921
     1622    18922    2        CALL PRESET (%PTR_SET, RTN$, XLATE_ST$, 2);
     1623    18923
     1624    18924    2   END BUILD_ZL_XLATE;
     1625    18925        %EJECT;
PL6.E3A0      #006=Z9EN$SORT File=Z9EN.:Z8A6TSI                                  SAT 08/09/97 13:57 Page:246
     1626    18926    1   BUILD_ZL_KEY: PROC (KEY$, RTN$);
     1627    18927
     1628    18928    2        DCL KEY$          PTR;
     1629    18929    2        DCL RTN$          PTR; /* To ST representing ZL_KEYS */
     1630    18930
     1631    18931    2        DCL I             SBIN;
     1632    18932    2        DCL NEXT          SBIN;
     1633    18933    2        DCL N#            SBIN;
     1634    18934    2        DCL P$            PTR;
     1635    18935    2        DCL K$            PTR;
     1636    18936    2        DCL N$            PTR;
     1637    18937
     1638    18938             %ZL_KEYS          (FPTN   = ZL_KEYS,
     1639    18939                                STCLASS= AUTO);
     1640    18956
     1641    18957             %ZL_KEY           (STCLASS= AUTO);
     1642    19017        %EJECT;
PL6.E3A0      #006=Z9EN$SORT File=Z9EN.:Z8A6TSI                                  SAT 08/09/97 13:57 Page:247
     1643    19018    2        CREATE_KEY: PROC (K$, ASC_DES, NEXT, RTN$);
     1644    19019
     1645    19020    3            DCL RTN$      PTR;
     1646    19021    3            DCL K$        PTR;
     1647    19022    3            DCL ASC_DES   SBIN;
     1648    19023    3            DCL NEXT      SBIN;
     1649    19024
     1650    19025    3            DCL KEY_INERDS$      PTR;
     1651    19026    3            DCL 1 KEY_INERDS     ALIGNED,
     1652    19027                       %KEY_INERDS;
     1653    19037
     1654    19038
     1655    19039
     1656    19040    3            IF NOT XLATE_PRESENT THEN
     1657    19041    3              KEY_INERDS.XLATE# = %XLATE_DEFAULT;
     1658    19042    3            ELSE
     1659    19043    3              KEY_INERDS.XLATE# = %XLATE_CODE;
     1660    19044
     1661    19045    3            IF ASC_DES = %RSV_WRD_DESCENDING THEN
     1662    19046    3              KEY_INERDS.ORDER# = 'D';
     1663    19047    3            ELSE
     1664    19048    3              KEY_INERDS.ORDER# = 'A';
     1665    19049
     1666    19050    3            CALL BINCHAR (KEY_INERDS.PREC#, NEXT);
     1667    19051
     1668    19052    3            CALL CONVERT_KEY (K$, KEY_INERDS);
     1669    19053
     1670    19054    3            CALL Z8AC$MAKE_TYA_CONST (KEY_INERDS,
     1671    19055    3                                      SIZEC (KEY_INERDS),
     1672    19056    3                                      0,
     1673    19057    3                                      KEY_INERDS$);
     1674    19058
     1675    19059                 %NEW_ILL (@ID      = %PREOFF,
     1676    19060                           @LOP     = RTN$,
     1677    19061                           @ROP     = KEY_INERDS$ -> ETT.LOP,
     1678    19062                           @OFFSET  = "((NEXT - 1) * SIZEW (KEY_INERDS)) + 1",
     1679    19063                           @N       = "SIZEW (KEY_INERDS)");
PL6.E3A0      #006=Z9EN$SORT File=Z9EN.:Z8A6TSI                                  SAT 08/09/97 13:57 Page:248
     1680    19442
     1681    19443    3            NEXT = NEXT + 1;
     1682    19444
     1683    19445    3        END CREATE_KEY;
     1684    19446             %EJECT;
PL6.E3A0      #006=Z9EN$SORT File=Z9EN.:Z8A6TSI                                  SAT 08/09/97 13:57 Page:249
     1685    19447    2        CONVERT_KEY: PROC (K$, KEY_INERDS);
     1686    19448
     1687    19449    3             DCL K$            PTR;
     1688    19450    3             DCL 1 KEY_INERDS  ALIGNED,
     1689    19451                        %KEY_INERDS;
     1690    19461
     1691    19462    3             DCL 1 TYPE_DESC   ALIGNED,
     1692    19463                        %TYPE_DESC;
     1693    19497    3             DCL 1 DESC        ALIGNED,
     1694    19498                        %DCL_RT_DESC(@LVL=1,@BLK=NO);
     1695    19520
     1696    19521    3             DCL SA            UBIN;
     1697    19522    3             DCL CN            UBIN;
     1698    19523    3             DCL N             UBIN;
     1699    19524
     1700    19525                  %EQU BYTE_UNITS = 0;
     1701    19526                  %EQU PACKED_UNITS = 1;
     1702    19527                  %EQU BIT_UNITS = 2;
     1703    19528
     1704    19529
     1705    19530    3             CALL Z8AU$TYPE_DESCRIPTOR (K$ -> LX_ETT_ITEM.ETT$, TYPE_DESC);
     1706    19531    3             CALL Z9EO$RUNTIME_DESC_FROM_ETT (K$ -> LX_ETT_ITEM.ETT$, DESC);
     1707    19532
     1708    19533    3             IF TYPE_DESC.DESC.NDSC.TN = %NDSC4 THEN
     1709    19534    3               CN = TYPE_DESC.DESC.NDSC.CN + 1;
     1710    19535    3             ELSE
     1711    19536    3               CN = TYPE_DESC.DESC.ADSC.CN + 1;
     1712    19537    3             SA = TYPE_DESC.DESC.SA;
     1713    19538    3             N  = DESC.DES_W.NDSC.N;
     1714    19539
     1715    19540    3             KEY_INERDS.START# = CN + (SA * 4);
     1716    19541    3             KEY_INERDS.LENGTH# = N;
     1717    19542    3             KEY_INERDS.S_CODE# = %BYTE_UNITS;
     1718    19543    3             KEY_INERDS.L_CODE# = %BYTE_UNITS;
     1719    19544
     1720    19545    4             DO CASE (DESC.DES_W.TYPE);
     1721    19546    4               CASE (%RUNTIME_ASCII, %RUNTIME_KANJI);
PL6.E3A0      #006=Z9EN$SORT File=Z9EN.:Z8A6TSI                                  SAT 08/09/97 13:57 Page:250
     1722    19547    4                 IF TYPE_DESC.SIZ$ ~= ADDR(NIL) THEN
     1723    19548    4                   N = TYPE_DESC.SIZ$ -> ETT.LOP -> CONST.CONSTI.WORD1;
     1724    19549    4                 ELSE
     1725    19550    4                   N = TYPE_DESC.DESC.ADSC.N;
     1726    19551
     1727    19552    4                 KEY_INERDS.LENGTH# = N;
     1728    19553    4                 KEY_INERDS.TYPE#   = 'AN';
     1729    19554
     1730    19555    4               CASE (%RUNTIME_UNPACKED_NO_SIGN);
     1731    19556    4                 KEY_INERDS.TYPE# = 'Z3';
     1732    19557
     1733    19558    4               CASE (%RUNTIME_UNPACKED_LEAD_SIGN);
     1734    19559    4                 KEY_INERDS.TYPE# = 'Z1';
     1735    19560
     1736    19561    4               CASE (%RUNTIME_UNPACKED_TRAIL_SIGN);
     1737    19562    4                 KEY_INERDS.TYPE# = 'Z2';
     1738    19563
     1739    19564    4               CASE (%RUNTIME_UNPACKED_LEAD_OVER);
     1740    19565    4                 KEY_INERDS.TYPE# = 'Z4';
     1741    19566
     1742    19567    4               CASE (%RUNTIME_UNPACKED_TRAIL_OVER);
     1743    19568    4                 KEY_INERDS.TYPE# = 'Z5';
     1744    19569
     1745    19570    4               CASE (%RUNTIME_32_BIT_SIGNED_INTEGER);
     1746    19571    4                 KEY_INERDS.TYPE# = 'C2';
     1747    19572    4                 KEY_INERDS.L_CODE# = %BIT_UNITS;
     1748    19573
     1749    19574    4               CASE (%RUNTIME_16_BIT_SIGNED_INTEGER);
     1750    19575    4                 KEY_INERDS.TYPE# = 'C1';
     1751    19576    4                 KEY_INERDS.L_CODE# = %BIT_UNITS;
     1752    19577
     1753    19578    4               CASE (%RUNTIME_BINARY_FIX_POINT1);
     1754    19579    4                 KEY_INERDS.TYPE# = 'BN';
     1755    19580    4                 KEY_INERDS.L_CODE# = %BIT_UNITS;
     1756    19581
     1757    19582    4               CASE (%RUNTIME_BINARY_FLOAT_SINGLE);
     1758    19583    4                 KEY_INERDS.TYPE# = 'H1';
PL6.E3A0      #006=Z9EN$SORT File=Z9EN.:Z8A6TSI                                  SAT 08/09/97 13:57 Page:251
     1759    19584    4                 KEY_INERDS.L_CODE# = %BIT_UNITS;
     1760    19585
     1761    19586    4               CASE (%RUNTIME_BINARY_FLOAT_DOUBLE);
     1762    19587    4                 KEY_INERDS.TYPE# = 'H2';
     1763    19588    4                 KEY_INERDS.L_CODE# = %BIT_UNITS;
     1764    19589
     1765    19590    4               CASE (%RUNTIME_PACKED_NO_SIGN);
     1766    19591    4                 KEY_INERDS.START# = CN + (SA * 8);
     1767    19592    4                 KEY_INERDS.TYPE# = 'P3';
     1768    19593    4                 KEY_INERDS.L_CODE# = %PACKED_UNITS;
     1769    19594    4                 KEY_INERDS.S_CODE# = %PACKED_UNITS;
     1770    19595
     1771    19596    4               CASE (%RUNTIME_PACKED_LEAD_SIGN, %RUNTIME_PACKED_LEAD_SIGN_EBC);
     1772    19597    4                 KEY_INERDS.START# = CN + (SA * 8);
     1773    19598    4                 KEY_INERDS.TYPE# = 'P1';
     1774    19599    4                 KEY_INERDS.L_CODE# = %PACKED_UNITS;
     1775    19600    4                 KEY_INERDS.S_CODE# = %PACKED_UNITS;
     1776    19601
     1777    19602    4               CASE (%RUNTIME_PACKED_TRAIL_SIGN, %RUNTIME_PACKED_TRAIL_SIGN_EBC);
     1778    19603    4                 KEY_INERDS.START# = CN + (SA * 8);
     1779    19604    4                 KEY_INERDS.TYPE# = 'P2';
     1780    19605    4                 KEY_INERDS.L_CODE# = %PACKED_UNITS;
     1781    19606    4                 KEY_INERDS.S_CODE# = %PACKED_UNITS;
     1782    19607
     1783    19608    4               CASE (%RUNTIME_PACKED_LEAD_FLOAT);
     1784    19609    4                 KEY_INERDS.START# = CN + (SA * 8);
     1785    19610    4                 KEY_INERDS.TYPE# = 'P0';
     1786    19611    4                 KEY_INERDS.L_CODE# = %PACKED_UNITS;
     1787    19612    4                 KEY_INERDS.S_CODE# = %PACKED_UNITS;
     1788    19613
     1789    19614    4               CASE (%RUNTIME_EBCDIC_ALPHANUMERIC, %RUNTIME_GBCD_ALPHANUMERIC,
     1790    19615    4                     %RUNTIME_EBCDIC_NO_SIGN, %RUNTIME_EBCDIC_LEAD_SIGN,
     1791    19616    4                     %RUNTIME_EBCDIC_TRAIL_SIGN, %RUNTIME_EBCDIC_LEAD_OVER,
     1792    19617    4                     %RUNTIME_EBCDIC_TRAIL_OVER, %RUNTIME_GBCD_NO_SIGN,
     1793    19618    4                     %RUNTIME_GBCD_LEAD_SIGN, %RUNTIME_GBCD_TRAIL_SIGN,
     1794    19619    4                     %RUNTIME_GBCD_LEAD_OVER, %RUNTIME_GBCD_TRAIL_OVER);
     1795    19620    4                 CALL Z8AE$ERROR (%E$MUST_BE_DISPLAY,
PL6.E3A0      #006=Z9EN$SORT File=Z9EN.:Z8A6TSI                                  SAT 08/09/97 13:57 Page:252
     1796    19621    4                                  K$ -> LX_ETT_ITEM.LINE,
     1797    19622    4                                  K$ -> LX_ETT_ITEM.COLUMN);
     1798    19623
     1799    19624    4               CASE (ELSE);
     1800    19625    4                 CALL Z8AE$ERROR (%E$ILLEGAL_KEY_TYPE,
     1801    19626    4                                  K$ -> LX_ETT_ITEM.LINE,
     1802    19627    4                                  K$ -> LX_ETT_ITEM.COLUMN);
     1803    19628
     1804    19629    4             END; /* CASE */
     1805    19630
     1806    19631    3        END CONVERT_KEY;
     1807    19632             %EJECT;
PL6.E3A0      #006=Z9EN$SORT File=Z9EN.:Z8A6TSI                                  SAT 08/09/97 13:57 Page:253
     1808    19633    2        N# = 0;
     1809    19634    2        P$ = KEY$ -> LX_LIST.HEAD$;
     1810    19635
     1811    19636    3        DO I = 1 TO KEY$ -> LX_LIST.COUNT;
     1812    19637    3          N# = N# + P$ -> LX_LIST.TAIL$ -> LX_LIST.COUNT;
     1813    19638    3          P$ = P$ -> LX_LIST.LINK;
     1814    19639    3        END; /* DO */
     1815    19640
     1816    19641             /* N# Contains the number of keys */
     1817    19642
     1818    19643    2        CALL Z8AT$CREATE_TEMPORARY (%SCALAR, RTN$);
     1819    19644
     1820    19645    2        RTN$ -> SCALAR.B.CLASS = %CLASS_ALPHANUMERIC;
     1821    19646    2        RTN$ -> SCALAR.TYPE    = %TYA;
     1822    19647    2        RTN$ -> SCALAR.ADSC.N  = (SIZEC (ZL_KEYS.KEY1) * N#) + 4;
     1823    19648
     1824    19649             %UBIN_CONST (@VALUE = N#,
     1825    19650                          @RTN$  = N$);
     1826    19657
     1827    19658    2        CALL PRESET (%PREOFF, RTN$, N$, 0);
     1828    19659
     1829    19660    2        NEXT = 1;
     1830    19661    2        P$ = KEY$ -> LX_LIST.HEAD$;
     1831    19662
     1832    19663    3        DO I = 1 TO KEY$ -> LX_LIST.COUNT;
     1833    19664    3          K$ = P$ -> LX_LIST.TAIL$ -> LX_LIST.HEAD$;
     1834    19665
     1835    19666    4          DO WHILE (K$ ~= ADDR(NIL));
     1836    19667    4            CALL CREATE_KEY (K$,
     1837    19668    4                             P$ -> LX_LIST.HEAD$ -> LX_TERMINAL.SYMBOL,
     1838    19669    4                             NEXT,
     1839    19670    4                             RTN$);
     1840    19671
     1841    19672    4            K$ = K$ -> LX_ITEM.LINK;
     1842    19673    4          END; /* While */
     1843    19674
     1844    19675    3          P$ = P$ -> LX_LIST.LINK;
PL6.E3A0      #006=Z9EN$SORT File=Z9EN.:Z8A6TSI                                  SAT 08/09/97 13:57 Page:254
     1845    19676    3        END; /* Iterated Do */
     1846    19677
     1847    19678    2   END BUILD_ZL_KEY;
     1848    19679        %EJECT;
PL6.E3A0      #006=Z9EN$SORT File=Z9EN.:Z8A6TSI                                  SAT 08/09/97 13:57 Page:255
     1849    19680    1   PRESET: PROC (ID, LOP, ROP, OFF);
     1850    19681
     1851    19682             /*  Preset -- only used for preset, ptr_set, and preoff when
     1852    19683                 N is 1 */
     1853    19684
     1854    19685    2        DCL ID            SBIN;
     1855    19686    2        DCL LOP           PTR;
     1856    19687    2        DCL ROP           PTR;
     1857    19688    2        DCL OFF           SBIN;
     1858    19689
     1859    19690
     1860    19691    3        DO SELECT (ID);
     1861    19692    3          SELECT (%PRESET);
     1862    19693                 %NEW_ILL (@ID      = %PRESET,
     1863    19694                           @LOP     = LOP,
     1864    19695                           @ROP     = ROP);
     1865    20074
     1866    20075    3          SELECT (%PTR_SET);
     1867    20076                 %NEW_ILL (@ID      = %PTR_SET,
     1868    20077                           @LOP     = LOP,
     1869    20078                           @ROP     = ROP,
     1870    20079                           @OFFSET  = OFF);
     1871    20458
     1872    20459    3          SELECT (%PREOFF);
     1873    20460                 %NEW_ILL (@ID      = %PREOFF,
     1874    20461                           @LOP     = LOP,
     1875    20462                           @ROP     = ROP,
     1876    20463                           @OFFSET  = OFF,
     1877    20464                           @N       = 1);
     1878    20843
     1879    20844    3        END; /* SELECT */
     1880    20845    2   END PRESET;
     1881    20846        %EJECT;
PL6.E3A0      #006=Z9EN$SORT File=Z9EN.:Z8A6TSI                                  SAT 08/09/97 13:57 Page:256
     1882    20847        /*
     1883    20848                               Main Body
     1884    20849        */
     1885    20850    1        MERGE_STATEMENT = %FALSE;
     1886    20851
     1887    20852             %FISH (TRIAD = FILE_NAME$ -> LX_ETT_ITEM.ETT$,
     1888    20853                    RTN   = SD$$);
     1889    20861
     1890    20862             %GET_LTS( @ID = %FILE_LTS,
     1891    20863                       @ST$ = SD$$,
     1892    20864                       @RETURN$ = FAB$ );
     1893    20907
     1894    20908        /*   CALL BUILD_ZL_FILE (FILE_NAME$, FILE_ST$); */
     1895    20909    1        CALL BUILD_FILE (INPUT_USE_FILES$, ICE_ST$, INPUT_BLOCK$);
     1896    20910    1        CALL BUILD_FILE (OUTPUT_USE_FILES$, OCE_ST$, OUTPUT_BLOCK$);
     1897    20911    1        CALL BUILD_ZL_XLATE (COLLATING$, ALPHA_ST$);
     1898    20912    1        CALL BUILD_ZL_KEY (ASC_DES$, KEYS_ST$);
     1899    20913    1        CALL BUILD_ZL_7480 ( COBOL80_ST$ );
     1900    20914    1        SD$$ = SD$$ -> SD.QLT$ -> QLT.SON -> QLT.ST$;
     1901    20915
     1902    20916
     1903    20917             %UBIN_CONST (@VALUE = FAB$ -> FILE_LTS.RECORD_CONTAINS.INT_2,
     1904    20918                          @RTN$  = INSIZ_ST$ );
     1905    20925
     1906    20926             %UBIN_CONST (@VALUE = FAB$ -> FILE_LTS.RECORD_CONTAINS.INT_1,
     1907    20927                          @RTN$  = MIN_SIZE_ST$);
     1908    20934
     1909    20935
     1910    20936             /*    Example of how to determin offset of table if it chages  */
     1911    20937
     1912    20938    1        BASE$    = ADDR(CONSTANT_SORT);
     1913    20939        /*   INSIZ$ = ADDR(CONSTANT_SORT.PRIMARY.INSIZ#);
     1914    20940
     1915    20941             INSIZ_OFF    = POFFW (INSIZ$, BASE$);   */
     1916    20942
     1917    20943    1        CALL Z8AT$CREATE_TEMPORARY (%SCALAR, SORT_ST$);
     1918    20944
PL6.E3A0      #006=Z9EN$SORT File=Z9EN.:Z8A6TSI                                  SAT 08/09/97 13:57 Page:257
     1919    20945    1        SORT_ST$ -> SCALAR.TYPE    = %TYA;
     1920    20946    1        SORT_ST$ -> SCALAR.B.CLASS = %CLASS_ALPHANUMERIC;
     1921    20947    1        SORT_ST$ -> SCALAR.ADSC.N  = SIZEC (CONSTANT_SORT);
     1922    20948
     1923    20949    2        DO I = 0 TO SIZEW (CONSTANT_SORT);
     1924    20950    3          DO CASE ( I );
     1925    20951    3            CASE( %MAX_SIZE_OFF );
     1926    20952    3              CALL PRESET (%PREOFF, SORT_ST$, INSIZ_ST$, %MAX_SIZE_OFF);
     1927    20953
     1928    20954    3            CASE( %MIN_SIZE_OFF );
     1929    20955    3              CALL PRESET (%PREOFF, SORT_ST$, MIN_SIZE_ST$, %MIN_SIZE_OFF);
     1930    20956
     1931    20957
     1932    20958            /*    CASE ( %COLLATE_OFF );
     1933    20959                   CALL PRESET (%PTR_SET, SORT_ST$, FILE_ST$, %COLLATE_OFF); */
     1934    20960
     1935    20961    3            CASE ( %KEYS_OFF );
     1936    20962    3              CALL PRESET (%PTR_SET, SORT_ST$, KEYS_ST$, %KEYS_OFF);
     1937    20963
     1938    20964    3            CASE ( %XLATE_OFF );
     1939    20965    3              CALL PRESET (%PTR_SET, SORT_ST$, ALPHA_ST$, %XLATE_OFF);
     1940    20966
     1941    20967    3            CASE ( %INPUT_OFF );
     1942    20968    3              CALL PRESET (%PTR_SET, SORT_ST$, INPUT_BLOCK$, %INPUT_OFF);
     1943    20969
     1944    20970    3            CASE ( %OUTPUT_OFF );
     1945    20971    3              CALL PRESET (%PTR_SET, SORT_ST$, OUTPUT_BLOCK$, %OUTPUT_OFF);
     1946    20972
     1947    20973    3            CASE ( %COBOL80_OFF );
     1948    20974    3              CALL PRESET (%PREOFF, SORT_ST$, COBOL80_ST$, %COBOL80_OFF);
     1949    20975
     1950    20976    3            CASE ( %ICE_OFF );
     1951    20977    3              IF INPUT_BLOCK$ ~= ADDR(NIL) THEN
     1952    20978    3                CALL PRESET (%PREOFF, SORT_ST$, ICE_ST$, %ICE_OFF);
     1953    20979    3              ELSE
     1954    20980    3                CALL PRESET (%PTR_SET, SORT_ST$, ICE_ST$, %ICE_OFF);
     1955    20981
PL6.E3A0      #006=Z9EN$SORT File=Z9EN.:Z8A6TSI                                  SAT 08/09/97 13:57 Page:258
     1956    20982
     1957    20983    3            CASE ( %OCE_OFF );
     1958    20984    3              IF OUTPUT_BLOCK$ ~= ADDR(NIL) THEN
     1959    20985    3                CALL PRESET (%PREOFF, SORT_ST$, OCE_ST$, %OCE_OFF);
     1960    20986    3              ELSE
     1961    20987    3                CALL PRESET (%PTR_SET, SORT_ST$, OCE_ST$, %OCE_OFF);
     1962    20988    3            CASE ( ELSE );
     1963    20989    3              P$ = PINCRW (BASE$, I);
     1964    20990                   %UBIN_CONST (@VALUE = P$ -> UBIN_CONST, @RTN$ = CONST$);
     1965    20997
     1966    20998    3              CALL PRESET (%PREOFF, SORT_ST$, CONST$, I);
     1967    20999
     1968    21000    3         END;                               /*   CASE  I   */
     1969    21001
     1970    21002
     1971    21003    2        END; /* Iterated Do */
     1972    21004
     1973    21005             /* New ill for os_call */
     1974    21006    1        CALL Z8EU$CREATE_IDENTIFIER_FROM_ST (SORT_ST$,
     1975    21007    1                                              ADDR(PSORT));
     1976    21008
     1977    21009    1        CALL Z9EY$BUILD_RUNTIME_DESCRIPTOR (ADDR(PSORT),
     1978    21010    1                                            RT_DESC_LIST$,
     1979    21011    1                                            1);
     1980    21012
     1981    21013    1        CALL Z8EY$BUILD_RUNTIME_ARGLIST (ADDR(PSORT),
     1982    21014    1                                         RT_ARG_LIST$,
     1983    21015    1                                         1);
     1984    21016
     1985    21017        /*   %NEW_ILL (@ID       = %OS_CALL,
     1986    21018                       @CODE     = %OP_SORT,
     1987    21019                       @ROP      = RT_DESC_LIST$,
     1988    21020                       @LOP      = RT_ARG_LIST$);     */
     1989    21021
     1990    21022    1        CALL Z8EO$NEW_SYMREF (%LIB_SORT_PROC_NAME,
     1991    21023    1                              %LIB_SORT_PROC_NAME_LENGTH,
     1992    21024    1                              P$);
PL6.E3A0      #006=Z9EN$SORT File=Z9EN.:Z8A6TSI                                  SAT 08/09/97 13:57 Page:259
     1993    21025
     1994    21026             %NEW_ILL (@ID           = %USER_CALL,
     1995    21027                       @ROP          = RT_DESC_LIST$,
     1996    21028                       @LOP          = RT_ARG_LIST$,
     1997    21029                       @DESTINATION$ = P$);
     1998    21408
     1999    21409
     2000    21410    1        RETURN;
     2001    21411        %EJECT;
PL6.E3A0      #006=Z9EN$SORT File=Z9EN.:Z8A6TSI                                  SAT 08/09/97 13:57 Page:260
     2002    21412    1   Z9EN$MERGE : ENTRY (FILE_NAME$,
     2003    21413    1                       ASC_DES$,
     2004    21414    1                       COLLATING$,
     2005    21415    1                       INPUT_USE_FILES$,
     2006    21416    1                       OUTPUT_USE_FILES$);
     2007    21417        /*
     2008    21418
     2009    21419                               Z9EN$MERGE
     2010    21420
     2011    21421        */
     2012    21422    1        MERGE_STATEMENT = %TRUE;
     2013    21423
     2014    21424             %FISH (TRIAD = FILE_NAME$ -> LX_ETT_ITEM.ETT$,
     2015    21425                    RTN   = SD$$);
     2016    21433
     2017    21434             %GET_LTS( @ID = %FILE_LTS,
     2018    21435                       @ST$ = SD$$,
     2019    21436                       @RETURN$ = FAB$);
     2020    21479    1        FAB$ -> FILE_LTS.B.MERGE_STATEMENT = %TRUE;
     2021    21480
     2022    21481    1        CALL BUILD_FILE (INPUT_USE_FILES$, ICE_ST$, INPUT_BLOCK$);
     2023    21482    1        CALL BUILD_FILE (OUTPUT_USE_FILES$, OCE_ST$, OUTPUT_BLOCK$);
     2024    21483    1        CALL BUILD_ZL_XLATE (COLLATING$, ALPHA_ST$);
     2025    21484    1        CALL BUILD_ZL_KEY (ASC_DES$, KEYS_ST$);
     2026    21485    1        CALL BUILD_ZL_7480 ( COBOL80_ST$ );
     2027    21486
     2028    21487    1        FAB$ -> FILE_LTS.B.MERGE_STATEMENT = %FALSE;
     2029    21488    1        CALL RESTORE_MERGE_FLAGS(INPUT_USE_FILES$);
     2030    21489    1        CALL RESTORE_MERGE_FLAGS(OUTPUT_USE_FILES$);
     2031    21490
     2032    21491    1        SD$$ = SD$$ -> SD.QLT$ -> QLT.SON -> QLT.ST$;
     2033    21492
     2034    21493             %GET_ADSC_LEN (ST$ = SD$$,
     2035    21494                            RTN = LEN);
     2036    21505
     2037    21506             %UBIN_CONST (@VALUE = LEN, @RTN$ = INSIZ_ST$);
     2038    21513
PL6.E3A0      #006=Z9EN$SORT File=Z9EN.:Z8A6TSI                                  SAT 08/09/97 13:57 Page:261
     2039    21514             %UBIN_CONST (@VALUE = FAB$ -> FILE_LTS.RECORD_CONTAINS.INT_1,
     2040    21515                          @RTN$  = MIN_SIZE_ST$);
     2041    21522
     2042    21523             /*    Example of how to determine offset of table if it changes  */
     2043    21524
     2044    21525    1        BASE$    = ADDR(CONSTANT_MERGE);
     2045    21526        /*   INSIZ$ = ADDR(CONSTANT_MERGE.PRIMARY.INSIZ#);
     2046    21527
     2047    21528             INSIZ_OFF    = POFFW (INSIZ$, BASE$);   */
     2048    21529
     2049    21530    1        CALL Z8AT$CREATE_TEMPORARY (%SCALAR, MERGE_ST$);
     2050    21531
     2051    21532    1        MERGE_ST$ -> SCALAR.B.CLASS = %CLASS_ALPHANUMERIC;
     2052    21533    1        MERGE_ST$ -> SCALAR.TYPE    = %TYA;
     2053    21534    1        MERGE_ST$ -> SCALAR.ADSC.N  = SIZEC (CONSTANT_MERGE);
     2054    21535
     2055    21536    2        DO I = 0 TO SIZEW (CONSTANT_SORT);
     2056    21537    3          DO CASE ( I );
     2057    21538    3            CASE( %MAX_SIZE_OFF );
     2058    21539    3              CALL PRESET (%PREOFF, MERGE_ST$, INSIZ_ST$, %MAX_SIZE_OFF);
     2059    21540
     2060    21541    3            CASE ( %MIN_SIZE_OFF );
     2061    21542    3              CALL PRESET (%PREOFF, MERGE_ST$, MIN_SIZE_ST$, %MIN_SIZE_OFF);
     2062    21543
     2063    21544    3            CASE ( %KEYS_OFF );
     2064    21545    3              CALL PRESET (%PTR_SET, MERGE_ST$, KEYS_ST$, %KEYS_OFF);
     2065    21546
     2066    21547    3            CASE ( %XLATE_OFF );
     2067    21548    3              CALL PRESET (%PTR_SET, MERGE_ST$, ALPHA_ST$, %XLATE_OFF);
     2068    21549
     2069    21550    3            CASE ( %INPUT_OFF );
     2070    21551    3              CALL PRESET (%PTR_SET, MERGE_ST$, INPUT_BLOCK$, %INPUT_OFF);
     2071    21552
     2072    21553    3            CASE ( %OUTPUT_OFF );
     2073    21554    3              CALL PRESET (%PTR_SET, MERGE_ST$, OUTPUT_BLOCK$, %OUTPUT_OFF);
     2074    21555
     2075    21556    3            CASE ( %COBOL80_OFF );
PL6.E3A0      #006=Z9EN$SORT File=Z9EN.:Z8A6TSI                                  SAT 08/09/97 13:57 Page:262
     2076    21557    3              CALL PRESET (%PREOFF, MERGE_ST$, COBOL80_ST$, %COBOL80_OFF);
     2077    21558
     2078    21559
     2079    21560    3            CASE ( %OCE_OFF );
     2080    21561    3              IF OUTPUT_BLOCK$ ~= ADDR(NIL) THEN
     2081    21562    3                CALL PRESET (%PREOFF, MERGE_ST$, OCE_ST$, %OCE_OFF);
     2082    21563    3              ELSE
     2083    21564    3                CALL PRESET (%PTR_SET, MERGE_ST$, OCE_ST$, %OCE_OFF);
     2084    21565    3            CASE ( ELSE );
     2085    21566    3              P$ = PINCRW (BASE$, I);
     2086    21567                   %UBIN_CONST (@VALUE = P$ -> UBIN_CONST, @RTN$ = CONST$);
     2087    21574
     2088    21575    3              CALL PRESET (%PREOFF, MERGE_ST$, CONST$, I);
     2089    21576
     2090    21577    3         END;                               /*   CASE  I   */
     2091    21578
     2092    21579
     2093    21580    2        END; /* Iterated Do */
     2094    21581
     2095    21582             /* New ill for os_call */
     2096    21583    1        CALL Z8EU$CREATE_IDENTIFIER_FROM_ST (MERGE_ST$,
     2097    21584    1                                             ADDR(PMERGE));
     2098    21585
     2099    21586    1        CALL Z9EY$BUILD_RUNTIME_DESCRIPTOR (ADDR(PMERGE),
     2100    21587    1                                            RT_DESC_LIST$,
     2101    21588    1                                            1);
     2102    21589
     2103    21590    1        CALL Z8EY$BUILD_RUNTIME_ARGLIST (ADDR(PMERGE),
     2104    21591    1                                         RT_ARG_LIST$,
     2105    21592    1                                         1);
     2106    21593
     2107    21594        /*   %NEW_ILL (@ID     = %OS_CALL,
     2108    21595                       @CODE   = %OP_MERGE,
     2109    21596                       @ROP    = RT_DESC_LIST$,
     2110    21597                       @LOP    = RT_ARG_LIST$);       */
     2111    21598
     2112    21599
PL6.E3A0      #006=Z9EN$SORT File=Z9EN.:Z8A6TSI                                  SAT 08/09/97 13:57 Page:263
     2113    21600    1        CALL Z8EO$NEW_SYMREF (%LIB_MERGE_PROC_NAME,
     2114    21601    1                              %LIB_MERGE_PROC_NAME_LENGTH,
     2115    21602    1                              P$);
     2116    21603
     2117    21604             %NEW_ILL (@ID           = %USER_CALL,
     2118    21605                       @ROP          = RT_DESC_LIST$,
     2119    21606                       @LOP          = RT_ARG_LIST$,
     2120    21607                       @DESTINATION$ = P$);
     2121    21986
     2122    21987    1        RETURN;
     2123    21988
     2124    21989    1   END Z9EN$SORT;
     2125    21990        %EOD;

PL6.E3A0      #006=Z9EN$SORT File=Z9EN.:Z8A6TSI                                  SAT 08/09/97 13:57 Page:264
--  Include file information  --

   Z8E_NEW_ILL.:Z8A6TOU  is referenced.
   Z8E_MACROS.:Z8A6TOU  cannot be made into a system file and is referenced.
   Z8E_WINDOW.:Z8A6TOU  is referenced.
   Z8E_O1COM.:Z8A6TOU  cannot be made into a system file and is referenced.
   Z8A_LEX_SYMB.:Z8A6TOU  cannot be made into a system file and is referenced.
   Z8E_STACKS.:Z8A6TOU  cannot be made into a system file and is referenced.
   X9A_MACROS.:X8A6TOU  is referenced.
   X9A_IO.:X8A6TOU  is referenced.
   Z8A_ERR_NUMS.:Z8A6TOU  is referenced.
   Z8A_TYPES.:Z8A6TOU  is referenced.
   Z8A_ETT.:Z8A6TOU  cannot be made into a system file and is referenced.
   Z8A_LTS.:Z8A6TOU  cannot be made into a system file and is referenced.
   Z8A_QLT.:Z8A6TOU  cannot be made into a system file and is referenced.
   Z8A_LIBRARY.:Z8A6TOU  cannot be made into a system file and is referenced.
   Z8A_MKCN.:Z8A6TOU  cannot be made into a system file and is referenced.
   Z8A_ST.:Z8A6TOU  cannot be made into a system file and is referenced.
   Z8A_DNT.:Z8A6TOU  cannot be made into a system file and is referenced.
   Z8A_ILL.:Z8A6TOU  cannot be made into a system file and is referenced.
   Z8A_COMCOM.:Z8A6TOU  cannot be made into a system file and is referenced.
   X8A_COM_MACS.:X8A6TOU  is referenced.
   Z8A_NAMES.:Z8A6TOU  is referenced.
   Z8A_SUPP_MAC.:Z8A6TOU  is referenced.
   Z8A_DEFC.:Z8A6TOU  cannot be made into a system file and is referenced.
   ZL_MACRO_C.:LIBRARY  is referenced.
      No diagnostics issued in procedure Z9EN$SORT.

   Procedure Z9EN$SORT requires 1885 words for executable code.
   Procedure Z9EN$SORT requires 108 words of local(AUTO) storage.

PL6.E3A0      #006=Z9EN$SORT File=Z9EN.:Z8A6TSI                                  SAT 08/09/97 13:57 Page:265

 Object Unit name= Z9EN$SORT                                  File name= Z9EN.:Z8A6TOU
 UTS= AUG 09 '97 13:57:12.52 SAT                              Compiler= PL-6/E31         Sev=      00
 SharedLib= :SHARED_SYSTEM                                    Alt SharedLib=


    ****  Control sections  ****

 Sect   Type Bound  Init  Size OctSiz  Section name(segment info)
    0  LblCom even  none     1      1  ITERATION
    1  LblCom even  none     1      1  ILL$
    2  LblCom even  none     5      5  ILL_
    3  LblCom even  none     1      1  DNT$
    4  LblCom even  none     5      5  DNT_
    5  LblCom even  none     1      1  DNT_BUCKET_NUMBER
    6  LblCom even  none     1      1  DNT_OF_1$
    7  LblCom even  none     1      1  ST$
    8  LblCom even  none     5      5  ST_
    9  LblCom even  none     2      2  MKCN
   10  LblCom even  none     1      1  QLT$
   11  LblCom even  none     1      1  PREV_01_QLT$
   12  LblCom even  none     5      5  QLT_
   13  LblCom even  none     1      1  LTS$
   14  LblCom even  none     5      5  LTS_
   15  LblCom even  none     1      1  ETT$
   16  LblCom even  none     1      1  HEAD_ETT$
   17  LblCom even  none   512   1000  ETT_BUCKETS
   18  LblCom even  none     5      5  ETT_
   19  LblCom even  none    90    132  LEX_SYMBOL
   20  LblCom even  none     1      1  CURRENT_LEX_SYMBOL$
   21  LblCom even  none    90    132  TEMP_LEX_SYMBOL
   22  LblCom even  none    90    132  TEMP_LEX_SYMBOL2
   23  RoData even  UTS    103    147  Z9EN$SORT
   24   Proc  even  none  1885   3535  Z9EN$SORT
   25  RoData even  none    74    112  Z9EN$SORT
PL6.E3A0      #006=Z9EN$SORT File=Z9EN.:Z8A6TSI                                  SAT 08/09/97 13:57 Page:266

    ****  Entry defs  ****

                              Check   Calling
                             calling  sequence
  Sect OctLoc Primary Altret sequence   type   Parms  Name
    24      0   yes            yes      Std        5  Z9EN$SORT
    24   2735                  yes      Std        5  Z9EN$MERGE

  ****  Entry refs  ****

         Check        Calling
        calling       sequence
Altret sequence SRef   type   Args  Name
         yes           Std       3 Z8EO$NEW_SYMREF
         yes           Std       4 Z8EU$CREATE_IDENTIFIER_FROM_ST
         yes           Std       4 Z8AN$NEW_ILL
         yes           Std       1 Z8AC$MAKE_CONST
         yes           Std       2 Z8AT$CREATE_TEMPORARY
         yes           Std       3 Z9EY$BUILD_RUNTIME_DESCRIPTOR
         yes           Std       3 Z8EY$BUILD_RUNTIME_ARGLIST
         yes           Std       1 Z8AR$RESERVER
         yes           Std       4 Z8AC$MAKE_TYA_CONST
         yes           Std      12 Z8AE$ERROR
         yes           Std       2 Z8AU$TYPE_DESCRIPTOR
 yes     yes           Std       5 Z9EO$RUNTIME_DESC_FROM_ETT
                       nStd      0 X66_AUTO_5
                       nStd      0 X66_ARET

  ****  Data refs  ****

  Flags:  r = read only, s = secondary
Flgs Name                             Flgs Name                             Flgs Name
     COMCOM                           r    ILL_STEP                         r    LTS_STEP
     O1COM                                 HIER_STK_PTR                          HIER_STK
     PAGE_FORMAT                           REP_STK_PTR                           REP_STK
PL6.E3A0      #006=Z9EN$SORT File=Z9EN.:Z8A6TSI                                  SAT 08/09/97 13:57 Page:267

  ****  Segment refs  ****

  Flags:  r = read only, s = secondary
Flgs Name                             Flgs Name                             Flgs Name
     NULLSID                               ISSID
PL6.E3A0      #006=Z9EN$SORT File=Z9EN.:Z8A6TSI                                  SAT 08/09/97 13:57 Page:268


     1203        1        /*T***********************************************************/
     1204        2        /*T*                                                         */
     1205        3        /*T* Copyright (c) Bull HN Information Systems Inc., 1997    */
     1206        4        /*T*                                                         */
     1207        5        /*T***********************************************************/
     1208        6        Z9EN$SORT : PROC (FILE_NAME$,

      6 24 000000   000000 700200 xent  Z9EN$SORT    TSX0  ! X66_AUTO_5
        24 000001   000154 000005                    ZERO    108,5
        24 000002   002146 710000 24                 TRA     s:20850

     1209        7                          ASC_DES$,
     1210        8                          COLLATING$,
     1211        9                          INPUT_USE_FILES$,
     1212       10                          OUTPUT_USE_FILES$);
     1213       11
     1214       12        /*P*
     1215       13               NAME : Z9EN$ {SORT|MERGE}
     1216       14               PURPOSE : To create the SORT/MERGE tables and ILL for
     1217       15                 the SORT|MERGE statement.
     1218       16         */
     1219       17
     1220       18    1     DCL FILE_NAME$ PTR;  /* To LX_ETT_ITEM for SORT file */
     1221       19    1     DCL ASC_DES$   PTR;  /* To LX_LIST of LX_LIST of two items
     1222       20                                     1. LX_TERMINAL (ascending/descending)
     1223       21                                     2. LX_LIST of LX_ETT_ITEMS(keys)
     1224       22                               */
     1225       23    1     DCL COLLATING$  PTR;  /* To LX_ETT_ITEM for alphabet st item */
     1226       24
     1227       25    1     DCL INPUT_USE_FILES$  PTR;
     1228       26    1     DCL OUTPUT_USE_FILES$ PTR;
     1229       27                               /* Pointers to either
     1230       28                                     1. LX_LIST of LX_ETT_ITEM (i-o files)
     1231       29                                  or
     1232       30                                     2. ST item for USE label
     1233       31                               */
PL6.E3A0      #006=Z9EN$SORT File=Z9EN.:Z8A6TSI                                  SAT 08/09/97 13:57 Page:269
     1234       32
     1235       33
     1236       34             %EQU PHASE = 1;
     1237       35             %EQU XLATE_CODE = 'X1';
     1238       36             %EQU XLATE_DEFAULT = '  ';
     1239       37             %EQU LIB_SORT_PROC_NAME = 'ZL8$SORT';
     1240       38             %EQU LIB_SORT_PROC_NAME_LENGTH = 8;
     1241       39             %EQU LIB_MERGE_PROC_NAME = 'ZL8$MERGE';
     1242       40             %EQU LIB_MERGE_PROC_NAME_LENGTH = 9;
     1243       41
     1244       42             %INCLUDE ZL_MACRO_C.:LIBRARY;
     1245      692
     1246      693             %INCLUDE Z8A_DEFC;
     1247      761             %INCLUDE Z8A_SUPP_MAC;
     1248     3161             %INCLUDE Z8A_COMCOM;
     1249     3811             %INCLUDE Z8A_ILL;
     1250     4504             %INCLUDE Z8A_DNT;
     1251     4725             %INCLUDE Z8A_ST;
     1252     8384             %INCLUDE Z8A_MKCN;
     1253     8401             %INCLUDE Z8A_LIBRARY;
     1254     8615             %INCLUDE Z8A_QLT;
     1255     8721             %INCLUDE Z8A_LTS;
     1256    10798             %INCLUDE Z8A_ETT;
     1257    11099             %INCLUDE Z8A_TYPES;
     1258    11273             %INCLUDE Z8A_ERR_NUMS;
     1259    12037             %INCLUDE X9A_IO;
     1260    12187             %INCLUDE X9A_MACROS;
     1261    12218
     1262    12219             %INCLUDE Z8E_STACKS;
     1263    14485             %INCLUDE Z8E_O1COM;
     1264    15246             %INCLUDE Z8E_WINDOW;
     1265    17316             %INCLUDE Z8E_MACROS;
     1266    17991
     1267    17992    1        DCL Z8AC$MAKE_TYA_CONST  ENTRY (4);
     1268    17993    1        DCL Z8AT$CREATE_TEMPORARY ENTRY (2);
     1269    17994    1        DCL Z9EY$BUILD_RUNTIME_DESCRIPTOR ENTRY(3);
     1270    17995    1        DCL Z8EY$BUILD_RUNTIME_ARGLIST    ENTRY(3);
PL6.E3A0      #006=Z9EN$SORT File=Z9EN.:Z8A6TSI                                  SAT 08/09/97 13:57 Page:270
     1271    17996    1        DCL Z8EU$CREATE_IDENTIFIER_FROM_ST ENTRY (4);
     1272    17997    1        DCL Z8AC$MAKE_CONST       ENTRY (1);
     1273    17998    1        DCL Z8AE$ERROR           ENTRY (12);
     1274    17999    1        DCL Z8AU$TYPE_DESCRIPTOR ENTRY (2);
     1275    18000    1        DCL Z9EO$RUNTIME_DESC_FROM_ETT ENTRY (5) ALTRET;
     1276    18001    1        DCL Z8EO$NEW_SYMREF            ENTRY (3);
     1277    18002
     1278    18003
     1279    18004             %SORT_TABLE       (FPTN     = CONSTANT_SORT,
     1280    18005                                STCLASS  = CONSTANT);
     1281    18114
     1282    18115             %MERGE_TABLE      (FPTN     = CONSTANT_MERGE,
     1283    18116                                STCLASS  = CONSTANT);
     1284    18210
     1285    18211
     1286    18212    1        DCL I             SBIN;
     1287    18213    1        DCL LEN           SBIN;
     1288    18214             %DCL_AUTO_LX_ITEM (@NAME = PSORT);
     1289    18218             %DCL_AUTO_LX_ITEM (@NAME = PMERGE);
     1290    18222             %DCL_AUTO_LX_ITEM (@NAME = COLLATING_SEQ);
     1291    18226
     1292    18227    1        DCL XLATE_PRESENT BIT(1) ALIGNED;
     1293    18228
     1294    18229    1        DCL SD$$          PTR;
     1295    18230    1        DCL SORT_ST$      PTR;
     1296    18231    1        DCL MERGE_ST$     PTR;
     1297    18232    1        DCL RT_DESC_LIST$ PTR;
     1298    18233    1        DCL RT_ARG_LIST$  PTR;
     1299    18234    1        DCL CONST$        PTR;
     1300    18235    1        DCL INSIZ_ST$     PTR;
     1301    18236    1        DCL MIN_SIZE_ST$  PTR;
     1302    18237    1        DCL COBOL80_ST$   PTR;
     1303    18238    1        DCL FILE_ST$      PTR;
     1304    18239    1        DCL INPUT_BLOCK$  PTR;
     1305    18240    1        DCL OUTPUT_BLOCK$ PTR;
     1306    18241    1        DCL ALPHA_ST$     PTR;
     1307    18242    1        DCL KEYS_ST$      PTR;
PL6.E3A0      #006=Z9EN$SORT File=Z9EN.:Z8A6TSI                                  SAT 08/09/97 13:57 Page:271
     1308    18243    1        DCL ICE_ST$       PTR;
     1309    18244    1        DCL OCE_ST$       PTR;
     1310    18245    1        DCL BASE$         PTR;
     1311    18246
     1312    18247            %EQU MAX_SIZE_OFF = 0;
     1313    18248            %EQU MIN_SIZE_OFF = 2;
     1314    18249            %EQU KEYS_OFF  = 4;
     1315    18250            %EQU XLATE_OFF = 5;
     1316    18251            %EQU INPUT_OFF = 7;
     1317    18252            %EQU OUTPUT_OFF = 8;
     1318    18253            %EQU COLLATE_OFF = 9;
     1319    18254            %EQU COBOL80_OFF = 14;
     1320    18255            %EQU ICE_OFF     = 26;
     1321    18256            %EQU OCE_OFF     = 27;
     1322    18257
     1323    18258    1        DCL P$            PTR;
     1324    18259    1        DCL UBIN_CONST    UBIN BASED;
     1325    18260
     1326    18261    1        DCL FAB$          PTR;
     1327    18262    1        DCL MERGE_STATEMENT  BOOLEAN;
     1328    18263             %EJECT;
PL6.E3A0      #006=Z9EN$SORT File=Z9EN.:Z8A6TSI                                  SAT 08/09/97 13:57 Page:272
     1329    18264        %MACRO UBIN_CONST (@VALUE = ,
     1330    18265                           @RTN$  = );
     1331    18266             DO;
     1332    18267               MKCN.CON = @VALUE;
     1333    18268               CALL Z8AC$MAKE_CONST (@RTN$);
     1334    18269               @RTN$ = @RTN$ -> ETT.LOP;
     1335    18270             END;
     1336    18271        %MEND;
     1337    18272
     1338    18273
     1339    18274        %MACRO KEY_INERDS;
     1340    18275
     1341    18276             2 PREC#           CHAR (2) UNAL,
     1342    18277             2 TYPE#           CHAR (2) UNAL,
     1343    18278             2 START#          UBIN,
     1344    18279             2 LENGTH#         UBIN,
     1345    18280             2 S_CODE#         UBIN (5) UNAL,
     1346    18281             2 L_CODE#         UBIN (4) UNAL,
     1347    18282             2 ORDER#          CHAR (1) UNAL,
     1348    18283             2 XLATE#          CHAR (2) UNAL;
     1349    18284
     1350    18285        %MEND;
     1351    18286        %EJECT;
PL6.E3A0      #006=Z9EN$SORT File=Z9EN.:Z8A6TSI                                  SAT 08/09/97 13:57 Page:273
     1352    18287        /*-------------*/
     1353    18288    1     BUILD_ZL_7480 :  PROC (RETURN$);

  18288 24 000003   200102 741300       BUILD_ZL_74* STX1  ! MERGE_STATEMENT+2,,AUTO

     1354    18289        /*-------------*/
     1355    18290
     1356    18291    2   DCL  RETURN$        PTR;
     1357    18292    2   DCL  CHAR_WORD      CHAR(4);
     1358    18293    2   DCL  1 OPTION_WORD  REDEF CHAR_WORD,
     1359    18294    2          2  *         CHAR(2) UNAL,
     1360    18295    2          2  FIX_VAR   CHAR(1) UNAL,
     1361    18296    2          2  COBOL74_E CHAR(1) UNAL;
     1362    18297
     1363    18298        %NEW_CONST( @ST$ = RETURN$,
     1364    18299                    @TYPE = %TYA );

  18303 24 000004   000002 236000 8                  LDQ     ST_+2
        24 000005   000013 036007                    ADLQ    11,DL
        24 000006   000003 116000 8                  CMPQ    ST_+3
        24 000007   000020 604000 24                 TMI     s:18305

  18304 24 000010   000002 236000 25                 LDQ     2
        24 000011   200146 756100                    STQ     N+2,,AUTO
        24 000012   200146 630500                    EPPR0   N+2,,AUTO
        24 000013   200147 450500                    STP0    N+3,,AUTO
        24 000014   200147 630500                    EPPR0   N+3,,AUTO
        24 000015   000001 631400 25                 EPPR1   1
        24 000016   000000 701000 xent               TSX1    Z8AR$RESERVER
        24 000017   000000 011000                    NOP     0

  18305 24 000020   000002 236000 8                  LDQ     ST_+2
        24 000021   000022 736000                    QLS     18
        24 000022   000001 036000 8                  ADLQ    ST_+1
        24 000023   200103 470500                    LDP0    @RETURN$,,AUTO
        24 000024   000000 756100                    STQ     0,,PR0

PL6.E3A0      #006=Z9EN$SORT File=Z9EN.:Z8A6TSI                                  SAT 08/09/97 13:57 Page:274
  18306 24 000025   000013 236007                    LDQ     11,DL
        24 000026   000002 056000 8                  ASQ     ST_+2

  18309 24 000027   000000 471500                    LDP1    0,,PR0
        24 000030   000767 220003                    LDX0    503,DU
        24 000031   100000 740100                    STX0    0,,PR1

  18310 24 000032   000000 471500                    LDP1    0,,PR0
        24 000033   001000 236007                    LDQ     512,DL
        24 000034   100000 552110                    STBQ    0,'10'O,PR1

  18311 24 000035   000000 471500                    LDP1    0,,PR0
        24 000036   000126 236000 xsym               LDQ     O1COM+86
        24 000037   100000 552104                    STBQ    0,'04'O,PR1

  18312 24 000040   000000 471500                    LDP1    0,,PR0
        24 000041   000010 221003                    LDX1    8,DU
        24 000042   100002 741100                    STX1    2,,PR1

  18313 24 000043   000000 471500                    LDP1    0,,PR0
        24 000044   100003 450100                    STZ     3,,PR1

  18314 24 000045   000000 471500                    LDP1    0,,PR0
        24 000046   000000 236000 25                 LDQ     0
        24 000047   100004 756100                    STQ     4,,PR1

  18315 24 000050   000000 471500                    LDP1    0,,PR0
        24 000051   100005 756100                    STQ     5,,PR1

  18316 24 000052   000000 471500                    LDP1    0,,PR0
        24 000053   100006 756100                    STQ     6,,PR1

     1365    18340    2   RETURN$ -> CONST.ADSC.N = 4;

  18340 24 000054   000000 471500                    LDP1    0,,PR0
        24 000055   000004 236007                    LDQ     4,DL
        24 000056   100001 752103                    STCQ    1,'03'O,PR1
PL6.E3A0      #006=Z9EN$SORT File=Z9EN.:Z8A6TSI                                  SAT 08/09/97 13:57 Page:275

     1366    18341
     1367    18342    2   CHAR_WORD = ' ';

  18342 24 000057   000003 236000 25                 LDQ     3
        24 000060   200104 756100                    STQ     CHAR_WORD,,AUTO

     1368    18343    2   IF COMCOM.OB.COBOL_74    THEN

  18343 24 000061   000015 234000 xsym               SZN     COMCOM+13
        24 000062   000066 605000 24                 TPL     s:18346

     1369    18344    2       OPTION_WORD.COBOL74_E = '7';

  18344 24 000063   000067 236007                    LDQ     55,DL
        24 000064   200104 552104                    STBQ    CHAR_WORD,'04'O,AUTO
        24 000065   000070 710000 24                 TRA     s:18348

     1370    18345    2   ELSE
     1371    18346    2       OPTION_WORD.COBOL74_E = '8';

  18346 24 000066   000070 236007                    LDQ     56,DL
        24 000067   200104 552104                    STBQ    CHAR_WORD,'04'O,AUTO

     1372    18347
     1373    18348    2    IF SD$$ -> SD.B.OCCURS_DEPENDING   OR  (FAB$ -> FILE_LTS.RECORD_CONTAINS.INT_1 ~=

  18348 24 000070   200055 471500                    LDP1    SD$$,,AUTO
        24 000071   100003 236100                    LDQ     3,,PR1
        24 000072   000200 316003                    CANQ    128,DU
        24 000073   000100 601000 24                 TNZ     s:18350
        24 000074   200077 473500                    LDP3    FAB$,,AUTO
        24 000075   300023 236100                    LDQ     19,,PR3
        24 000076   300024 116100                    CMPQ    20,,PR3
        24 000077   000103 600000 24                 TZE     s:18352

     1374    18349    2                                       FAB$ -> FILE_LTS.RECORD_CONTAINS.INT_2)  THEN
PL6.E3A0      #006=Z9EN$SORT File=Z9EN.:Z8A6TSI                                  SAT 08/09/97 13:57 Page:276
     1375    18350    2      OPTION_WORD.FIX_VAR = 'V';

  18350 24 000100   126000 236007                    LDQ     44032,DL
        24 000101   200104 552110                    STBQ    CHAR_WORD,'10'O,AUTO
        24 000102   000105 710000 24                 TRA     s:18353

     1376    18351    2    ELSE
     1377    18352    2      OPTION_WORD.FIX_VAR = 'F';

  18352 24 000103   106000 236007                    LDQ     35840,DL
        24 000104   200104 552110                    STBQ    CHAR_WORD,'10'O,AUTO

     1378    18353    2    RETURN$ -> CONST.CONSTA =  CHAR_WORD;

  18353 24 000105   000000 473500                    LDP3    0,,PR0
        24 000106   040100 100500                    MLR     fill='040'O
        24 000107   200104 000004                    ADSC9   CHAR_WORD,,AUTO          cn=0,n=4
        24 000110   300010 000010                    ADSC9   8,,PR3                   cn=0,n=8

     1379    18354
     1380    18355
     1381    18356    2   END  BUILD_ZL_7480;

  18356 24 000111   200102 221300                    LDX1  ! MERGE_STATEMENT+2,,AUTO
        24 000112   000001 702211                    TSX2  ! 1,X1

     1382    18357        %EJECT;
PL6.E3A0      #006=Z9EN$SORT File=Z9EN.:Z8A6TSI                                  SAT 08/09/97 13:57 Page:277
     1383    18358    1   BUILD_ZL_FILE: PROC (FILE$, RTN$);

  18358 24 000113   200102 741300       BUILD_ZL_FI* STX1  ! MERGE_STATEMENT+2,,AUTO

     1384    18359
     1385    18360    2        DCL FILE$         PTR; /* To Lx_ett_item for SD filename */
     1386    18361    2        DCL RTN$          PTR; /* To ST item that represents ZL_FILE */
     1387    18362
     1388    18363             %ZL_FILES         (FPTN    = ZL_FILES,
     1389    18364                                STCLASS = AUTO,
     1390    18365                                N       = 1);
     1391    18382
     1392    18383             %ZL_FILE          (STCLASS = AUTO);
     1393    18437
     1394    18438    2        DCL P$            PTR;
     1395    18439    2        DCL CONST$        PTR;
     1396    18440
     1397    18441    2        DCL SPACES        CHAR (31) CONSTANT INIT
     1398    18442    2                          ('                               ');
     1399    18443
     1400    18444
     1401    18445             %FISH (TRIAD = FILE$ -> LX_ETT_ITEM.ETT$,
     1402    18446                    RTN   = P$);

  18448 24 000114   200103 470500                    LDP0    @FILE$,,AUTO
        24 000115   000000 471500                    LDP1    0,,PR0
        24 000116   100001 236100                    LDQ     1,,PR1
        24 000117   200121 756100                    STQ     P$,,AUTO

  18449 24 000120   200121 473500                    LDP3    P$,,AUTO
        24 000121   300000 220100                    LDX0    0,,PR3
        24 000122   000751 100003                    CMPX0   489,DU
        24 000123   000133 603000 24                 TRC     s:18455

  18450 24 000124   200121 470500                    LDP0    P$,,AUTO
        24 000125   000001 236100                    LDQ     1,,PR0
        24 000126   200121 756100                    STQ     P$,,AUTO
PL6.E3A0      #006=Z9EN$SORT File=Z9EN.:Z8A6TSI                                  SAT 08/09/97 13:57 Page:278

  18451 24 000127   200121 470500                    LDP0    P$,,AUTO
        24 000130   000000 220100                    LDX0    0,,PR0
        24 000131   000751 100003                    CMPX0   489,DU
        24 000132   000124 602000 24                 TNC     s:18450

     1403    18454
     1404    18455    2        ZL_FILES.N# = 1;

  18455 24 000133   000001 235007                    LDA     1,DL
        24 000134   200105 755100                    STA     ZL_FILES,,AUTO

     1405    18456    2        ZL_FILES.FILE1.DCBNAME.C# = SPACES;

  18456 24 000135   040100 100400                    MLR     fill='040'O
        24 000136   000110 000037 23                 ADSC9   SPACES                   cn=0,n=31
        24 000137   200106 200037                    ADSC9   I+1,,AUTO                cn=1,n=31

     1406    18457    2        ZL_FILES.FILE1.DCBNAME.C# = P$ -> SD.DNT$ -> DNT.TEXT.NAME;

  18457 24 000140   200121 470500                    LDP0    P$,,AUTO
        24 000141   000006 471500                    LDP1    6,,PR0
        24 000142   100004 220100                    LDX0    4,,PR1
        24 000143   040100 100540                    MLR     fill='040'O
        24 000144   100004 400010                    ADSC9   4,,PR1                   cn=2,n=*X0
        24 000145   200106 200037                    ADSC9   I+1,,AUTO                cn=1,n=31

     1407    18458    2        ZL_FILES.FILE1.DCBNAME.L# = P$ -> SD.DNT$ -> DNT.TEXT.LENGTH;

  18458 24 000146   000006 471500                    LDP1    6,,PR0
        24 000147   100004 236100                    LDQ     4,,PR1
        24 000150   000011 736000                    QLS     9
        24 000151   200106 552140                    STBQ    I+1,'40'O,AUTO

     1408    18459
     1409    18460    2        CALL Z8AC$MAKE_TYA_CONST (ZL_FILES,

PL6.E3A0      #006=Z9EN$SORT File=Z9EN.:Z8A6TSI                                  SAT 08/09/97 13:57 Page:279
  18460 24 000152   200122 631500                    EPPR1   CONST$,,AUTO
        24 000153   200151 451500                    STP1    N+5,,AUTO
        24 000154   000007 236000 25                 LDQ     7
        24 000155   200150 756100                    STQ     N+4,,AUTO
        24 000156   000010 236000 25                 LDQ     8
        24 000157   200147 756100                    STQ     N+3,,AUTO
        24 000160   200105 633500                    EPPR3   ZL_FILES,,AUTO
        24 000161   200146 453500                    STP3    N+2,,AUTO
        24 000162   200146 630500                    EPPR0   N+2,,AUTO
        24 000163   000004 631400 25                 EPPR1   4
        24 000164   000000 701000 xent               TSX1    Z8AC$MAKE_TYA_CONST
        24 000165   000000 011000                    NOP     0

     1410    18461    2                                  SIZEC (ZL_FILES),
     1411    18462    2                                  0,
     1412    18463    2                                  CONST$);
     1413    18464
     1414    18465    2        CONST$ = CONST$ -> ETT.LOP;

  18465 24 000166   200122 470500                    LDP0    CONST$,,AUTO
        24 000167   000001 236100                    LDQ     1,,PR0
        24 000170   200122 756100                    STQ     CONST$,,AUTO

     1415    18466
     1416    18467    2        CALL Z8AT$CREATE_TEMPORARY (%SCALAR, RTN$);

  18467 24 000171   200104 236100                    LDQ     @RTN$,,AUTO
        24 000172   000013 235000 25                 LDA     11
        24 000173   200146 757100                    STAQ    N+2,,AUTO
        24 000174   200146 630500                    EPPR0   N+2,,AUTO
        24 000175   000011 631400 25                 EPPR1   9
        24 000176   000000 701000 xent               TSX1    Z8AT$CREATE_TEMPORARY
        24 000177   000000 011000                    NOP     0

     1417    18468
     1418    18469    2        RTN$ -> SCALAR.ADSC.N   = SIZEC (ZL_FILES);

PL6.E3A0      #006=Z9EN$SORT File=Z9EN.:Z8A6TSI                                  SAT 08/09/97 13:57 Page:280
  18469 24 000200   200104 470500                    LDP0    @RTN$,,AUTO
        24 000201   000000 471500                    LDP1    0,,PR0
        24 000202   000060 236007                    LDQ     48,DL
        24 000203   100001 752103                    STCQ    1,'03'O,PR1

     1419    18470    2        RTN$ -> SCALAR.TYPE     = %TYA;

  18470 24 000204   000000 471500                    LDP1    0,,PR0
        24 000205   000010 220003                    LDX0    8,DU
        24 000206   100002 740100                    STX0    2,,PR1

     1420    18471    2        RTN$ -> SCALAR.B.CLASS  = %CLASS_ALPHANUMERIC;

  18471 24 000207   000000 471500                    LDP1    0,,PR0
        24 000210   100003 236100                    LDQ     3,,PR1
        24 000211   000014 376000 25                 ANQ     12
        24 000212   000003 276007                    ORQ     3,DL
        24 000213   100003 756100                    STQ     3,,PR1

     1421    18472
     1422    18473    2        CALL PRESET (%PRESET, RTN$, CONST$, 0);

  18473 24 000214   000007 236000 25                 LDQ     7
        24 000215   200124 756100                    STQ     @ROP+1,,AUTO
        24 000216   200122 631500                    EPPR1   CONST$,,AUTO
        24 000217   200123 451500                    STP1    @LOP+1,,AUTO
        24 000220   200104 236100                    LDQ     @RTN$,,AUTO
        24 000221   200122 756100                    STQ     CONST$,,AUTO
        24 000222   000016 236000 25                 LDQ     14
        24 000223   200121 756100                    STQ     P$,,AUTO
        24 000224   002020 701000 24                 TSX1    PRESET
        24 000225   000000 011000                    NOP     0

     1423    18474
     1424    18475    2   END BUILD_ZL_FILE;

  18475 24 000226   200102 221300                    LDX1  ! MERGE_STATEMENT+2,,AUTO
PL6.E3A0      #006=Z9EN$SORT File=Z9EN.:Z8A6TSI                                  SAT 08/09/97 13:57 Page:281
        24 000227   000001 702211                    TSX2  ! 1,X1

     1425    18476        %EJECT;
PL6.E3A0      #006=Z9EN$SORT File=Z9EN.:Z8A6TSI                                  SAT 08/09/97 13:57 Page:282
     1426    18477    1   RESTORE_MERGE_FLAGS: PROC (HEAD$);

  18477 24 000230   200102 741300       RESTORE_MER* STX1  ! MERGE_STATEMENT+2,,AUTO

     1427    18478
     1428    18479    2       DCL HEAD$   PTR;
     1429    18480    2       DCL P$      PTR;
     1430    18481    2       DCL FD$$    PTR;
     1431    18482    2       DCL FAB$    PTR;
     1432    18483
     1433    18484    2   IF HEAD$ -> LX_ITEM.ID = %LX_LIST     THEN

  18484 24 000231   200103 470500                    LDP0    @HEAD$,,AUTO
        24 000232   000000 471500                    LDP1    0,,PR0
        24 000233   100000 220100                    LDX0    0,,PR1
        24 000234   000002 100003                    CMPX0   2,DU
        24 000235   000331 601000 24                 TNZ     s:18552

     1434    18485    3     DO;

     1435    18486
     1436    18487    3       P$ = HEAD$ -> LX_LIST.HEAD$;

  18487 24 000236   100004 236100                    LDQ     4,,PR1
        24 000237   200104 756100                    STQ     P$,,AUTO

     1437    18488    4       DO I = 1 TO HEAD$ -> LX_LIST.COUNT;

  18488 24 000240   000001 235007                    LDA     1,DL
        24 000241   200021 755100                    STA     I,,AUTO
        24 000242   000324 710000 24                 TRA     s:18550+1

     1438    18489
     1439    18490                %FISH(TRIAD = P$ -> LX_ETT_ITEM.ETT$, RTN = FD$$);

  18492 24 000243   200104 470500                    LDP0    P$,,AUTO
        24 000244   000001 236100                    LDQ     1,,PR0
PL6.E3A0      #006=Z9EN$SORT File=Z9EN.:Z8A6TSI                                  SAT 08/09/97 13:57 Page:283
        24 000245   200105 756100                    STQ     FD$$,,AUTO

  18493 24 000246   200105 471500                    LDP1    FD$$,,AUTO
        24 000247   100000 220100                    LDX0    0,,PR1
        24 000250   000751 100003                    CMPX0   489,DU
        24 000251   000261 603000 24                 TRC     s:18498

  18494 24 000252   200105 470500                    LDP0    FD$$,,AUTO
        24 000253   000001 236100                    LDQ     1,,PR0
        24 000254   200105 756100                    STQ     FD$$,,AUTO

  18495 24 000255   200105 470500                    LDP0    FD$$,,AUTO
        24 000256   000000 220100                    LDX0    0,,PR0
        24 000257   000751 100003                    CMPX0   489,DU
        24 000260   000252 602000 24                 TNC     s:18494

     1440    18498    4           IF FD$$ -> ST.ID = %FD AND NOT P$ -> LX_ETT_ITEM.B.ERROR THEN

  18498 24 000261   200105 470500                    LDP0    FD$$,,AUTO
        24 000262   000000 220100                    LDX0    0,,PR0
        24 000263   001002 100003                    CMPX0   514,DU
        24 000264   000320 601000 24                 TNZ     s:18549
        24 000265   200104 471500                    LDP1    P$,,AUTO
        24 000266   100000 236100                    LDQ     0,,PR1
        24 000267   400000 316007                    CANQ    -131072,DL
        24 000270   000320 601000 24                 TNZ     s:18549

     1441    18499    5             DO;

     1442    18500
     1443    18501                    %GET_LTS( @ID = %FILE_LTS,
     1444    18502                              @ST$ = FD$$,
     1445    18503                              @RETURN$ = FAB$);

  18505 24 000271   000005 236100                    LDQ     5,,PR0
        24 000272   000000 116000 25                 CMPQ    0
        24 000273   000303 600000 24                 TZE     s:18539
PL6.E3A0      #006=Z9EN$SORT File=Z9EN.:Z8A6TSI                                  SAT 08/09/97 13:57 Page:284
        24 000274   000005 473500                    LDP3    5,,PR0
        24 000275   300000 221100                    LDX1    0,,PR3
        24 000276   001105 101003                    CMPX1   581,DU
        24 000277   000303 601000 24                 TNZ     s:18539

  18519 24 000300   300006 236100                    LDQ     6,,PR3
        24 000301   200106 756100                    STQ     FAB$,,AUTO

  18537 24 000302   000315 710000 24                 TRA     s:18546

  18539 24 000303   000000 116000 25                 CMPQ    0
        24 000304   000313 600000 24                 TZE     s:18543
        24 000305   000005 473500                    LDP3    5,,PR0
        24 000306   300000 221100                    LDX1    0,,PR3
        24 000307   001121 101003                    CMPX1   593,DU
        24 000310   000313 601000 24                 TNZ     s:18543

  18541 24 000311   200106 756100                    STQ     FAB$,,AUTO
        24 000312   000315 710000 24                 TRA     s:18546

  18543 24 000313   000000 236000 25                 LDQ     0
        24 000314   200106 756100                    STQ     FAB$,,AUTO

     1446    18546    5               FAB$ -> FILE_LTS.B.MERGE_STATEMENT = %FALSE;

  18546 24 000315   200106 473500                    LDP3    FAB$,,AUTO
        24 000316   000017 236000 25                 LDQ     15
        24 000317   300017 356100                    ANSQ    15,,PR3

     1447    18547
     1448    18548    5             END;

     1449    18549    4           P$ = P$ -> LX_ITEM.LINK;

  18549 24 000320   200104 471500                    LDP1    P$,,AUTO
        24 000321   100007 236100                    LDQ     7,,PR1
        24 000322   200104 756100                    STQ     P$,,AUTO
PL6.E3A0      #006=Z9EN$SORT File=Z9EN.:Z8A6TSI                                  SAT 08/09/97 13:57 Page:285

     1450    18550    4       END;

  18550 24 000323   200021 054100                    AOS     I,,AUTO
        24 000324   200103 470500                    LDP0    @HEAD$,,AUTO
        24 000325   000000 471500                    LDP1    0,,PR0
        24 000326   200021 236100                    LDQ     I,,AUTO
        24 000327   100002 116100                    CMPQ    2,,PR1
        24 000330   000243 604400 24                 TMOZ    s:18492

     1451    18551    3     END;

     1452    18552    2   END RESTORE_MERGE_FLAGS;

  18552 24 000331   200102 221300                    LDX1  ! MERGE_STATEMENT+2,,AUTO
        24 000332   000001 702211                    TSX2  ! 1,X1

     1453    18553        %EJECT;
PL6.E3A0      #006=Z9EN$SORT File=Z9EN.:Z8A6TSI                                  SAT 08/09/97 13:57 Page:286
     1454    18554    1   BUILD_FILE: PROC (FILE$, PROC$, BLOCK$);

  18554 24 000333   200102 741300       BUILD_FILE   STX1  ! MERGE_STATEMENT+2,,AUTO

     1455    18555
     1456    18556    2        DCL FILE$         PTR;
     1457    18557    2        DCL PROC$         PTR;
     1458    18558    2        DCL BLOCK$        PTR;
     1459    18559
     1460    18560    2        DCL CONST_ENTADDR_NIL    EPTR CONSTANT INIT(ENTADDR(NIL));
     1461    18561    2        DCL UBIN_ENTADDR_NIL     REDEF CONST_ENTADDR_NIL UBIN;
     1462    18562
     1463    18563    2        DCL P$            PTR;
     1464    18564    2        DCL FD$$          PTR;
     1465    18565    2        DCL FAB$          PTR;
     1466    18566    2        DCL N$            PTR;
     1467    18567    2        DCL I             SBIN;
     1468    18568
     1469    18569
     1470    18570    3        DO CASE (FILE$ -> LX_ITEM.ID);

  18570 24 000334   200103 470500                    LDP0    @FILE$,,AUTO
        24 000335   000000 471500                    LDP1    0,,PR0
        24 000336   100000 220100                    LDX0    0,,PR1
        24 000337   000005 100003                    CMPX0   5,DU
        24 000340   000342 602010 24                 TNC     s:18570+6,X0
        24 000341   000611 710000 24                 TRA     s:18691
        24 000342   000611 710000 24                 TRA     s:18691
        24 000343   000611 710000 24                 TRA     s:18691
        24 000344   000373 710000 24                 TRA     s:18588
        24 000345   000611 710000 24                 TRA     s:18691
        24 000346   000347 710000 24                 TRA     s:18573

     1471    18571
     1472    18572    3          CASE (%LX_ETT_ITEM);

     1473    18573    3            BLOCK$ = ADDR(NIL); /* No I or O files */
PL6.E3A0      #006=Z9EN$SORT File=Z9EN.:Z8A6TSI                                  SAT 08/09/97 13:57 Page:287

  18573 24 000347   000000 236000 25                 LDQ     0
        24 000350   200105 473500                    LDP3    @BLOCK$,,AUTO
        24 000351   300000 756100                    STQ     0,,PR3

     1474    18574
     1475    18575                 %FISH (TRIAD = FILE$ -> LX_ETT_ITEM.ETT$,
     1476    18576                        RTN   = PROC$);

  18578 24 000352   000000 471500                    LDP1    0,,PR0
        24 000353   100001 236100                    LDQ     1,,PR1
        24 000354   200104 474500                    LDP4    @PROC$,,AUTO
        24 000355   400000 756100                    STQ     0,,PR4

  18579 24 000356   400000 471500                    LDP1    0,,PR4
        24 000357   100000 220100                    LDX0    0,,PR1
        24 000360   000751 100003                    CMPX0   489,DU
        24 000361   000615 603000 24                 TRC     s:18694

  18580 24 000362   200104 470500                    LDP0    @PROC$,,AUTO
        24 000363   000000 471500                    LDP1    0,,PR0
        24 000364   100001 236100                    LDQ     1,,PR1
        24 000365   000000 756100                    STQ     0,,PR0

  18581 24 000366   000000 471500                    LDP1    0,,PR0
        24 000367   100000 220100                    LDX0    0,,PR1
        24 000370   000751 100003                    CMPX0   489,DU
        24 000371   000362 602000 24                 TNC     s:18580

  18582 24 000372   000615 710000 24                 TRA     s:18694

     1477    18584
     1478    18585    3          CASE (%LX_LIST);

     1479    18586                 %UBIN_CONST (@VALUE = UBIN_ENTADDR_NIL, @RTN$ = PROC$);

  18588 24 000373   000120 235000 23                 LDA     CONST_ENTADDR_NIL
PL6.E3A0      #006=Z9EN$SORT File=Z9EN.:Z8A6TSI                                  SAT 08/09/97 13:57 Page:288
        24 000374   000000 755000 9                  STA     MKCN

  18589 24 000375   200104 630500                    EPPR0   @PROC$,,AUTO
        24 000376   000001 631400 25                 EPPR1   1
        24 000377   000000 701000 xent               TSX1    Z8AC$MAKE_CONST
        24 000400   000000 011000                    NOP     0

  18590 24 000401   200104 470500                    LDP0    @PROC$,,AUTO
        24 000402   000000 471500                    LDP1    0,,PR0
        24 000403   100001 236100                    LDQ     1,,PR1
        24 000404   000000 756100                    STQ     0,,PR0

     1480    18593
     1481    18594    3            CALL Z8AT$CREATE_TEMPORARY (%SCALAR, BLOCK$);

  18594 24 000405   200105 236100                    LDQ     @BLOCK$,,AUTO
        24 000406   000013 235000 25                 LDA     11
        24 000407   200146 757100                    STAQ    N+2,,AUTO
        24 000410   200146 630500                    EPPR0   N+2,,AUTO
        24 000411   000011 631400 25                 EPPR1   9
        24 000412   000000 701000 xent               TSX1    Z8AT$CREATE_TEMPORARY
        24 000413   000000 011000                    NOP     0

     1482    18595
     1483    18596    3            BLOCK$ -> SCALAR.TYPE   = %TYA;

  18596 24 000414   200105 470500                    LDP0    @BLOCK$,,AUTO
        24 000415   000000 471500                    LDP1    0,,PR0
        24 000416   000010 220003                    LDX0    8,DU
        24 000417   100002 740100                    STX0    2,,PR1

     1484    18597    3            BLOCK$ -> SCALAR.ADSC.N = (FILE$ -> LX_LIST.COUNT + 1) * 4;

  18597 24 000420   000000 471500                    LDP1    0,,PR0
        24 000421   200103 473500                    LDP3    @FILE$,,AUTO
        24 000422   300000 474500                    LDP4    0,,PR3
        24 000423   400002 236100                    LDQ     2,,PR4
PL6.E3A0      #006=Z9EN$SORT File=Z9EN.:Z8A6TSI                                  SAT 08/09/97 13:57 Page:289
        24 000424   000002 736000                    QLS     2
        24 000425   000004 036007                    ADLQ    4,DL
        24 000426   100001 752103                    STCQ    1,'03'O,PR1

     1485    18598    3            BLOCK$ -> SCALAR.B.CLASS= %CLASS_ALPHANUMERIC;

  18598 24 000427   000000 471500                    LDP1    0,,PR0
        24 000430   100003 236100                    LDQ     3,,PR1
        24 000431   000014 376000 25                 ANQ     12
        24 000432   000003 276007                    ORQ     3,DL
        24 000433   100003 756100                    STQ     3,,PR1

     1486    18599
     1487    18600                 %UBIN_CONST (@VALUE = FILE$ -> LX_LIST.COUNT,
     1488    18601                              @RTN$  = N$);

  18603 24 000434   300000 471500                    LDP1    0,,PR3
        24 000435   100002 235100                    LDA     2,,PR1
        24 000436   000000 755000 9                  STA     MKCN

  18604 24 000437   200111 631500                    EPPR1   N$,,AUTO
        24 000440   200146 451500                    STP1    N+2,,AUTO
        24 000441   200146 630500                    EPPR0   N+2,,AUTO
        24 000442   000001 631400 25                 EPPR1   1
        24 000443   000000 701000 xent               TSX1    Z8AC$MAKE_CONST
        24 000444   000000 011000                    NOP     0

  18605 24 000445   200111 470500                    LDP0    N$,,AUTO
        24 000446   000001 236100                    LDQ     1,,PR0
        24 000447   200111 756100                    STQ     N$,,AUTO

     1489    18608
     1490    18609    3            CALL PRESET (%PREOFF, BLOCK$, N$, 0);

  18609 24 000450   000007 236000 25                 LDQ     7
        24 000451   200124 756100                    STQ     @ROP+1,,AUTO
        24 000452   200111 630500                    EPPR0   N$,,AUTO
PL6.E3A0      #006=Z9EN$SORT File=Z9EN.:Z8A6TSI                                  SAT 08/09/97 13:57 Page:290
        24 000453   200123 450500                    STP0    @LOP+1,,AUTO
        24 000454   200105 236100                    LDQ     @BLOCK$,,AUTO
        24 000455   200122 756100                    STQ     CONST$,,AUTO
        24 000456   000021 236000 25                 LDQ     17
        24 000457   200121 756100                    STQ     P$,,AUTO
        24 000460   002020 701000 24                 TSX1    PRESET
        24 000461   000000 011000                    NOP     0

     1491    18610
     1492    18611    3            P$ = FILE$ -> LX_LIST.HEAD$;

  18611 24 000462   200103 470500                    LDP0    @FILE$,,AUTO
        24 000463   000000 471500                    LDP1    0,,PR0
        24 000464   100004 236100                    LDQ     4,,PR1
        24 000465   200106 756100                    STQ     P$,,AUTO

     1493    18612
     1494    18613    4            DO I = 1 TO FILE$ -> LX_LIST.COUNT;

  18613 24 000466   000001 235007                    LDA     1,DL
        24 000467   200112 755100                    STA     I,,AUTO
        24 000470   000603 710000 24                 TRA     s:18688+1

     1495    18614
     1496    18615                   %FISH (TRIAD = P$ -> LX_ETT_ITEM.ETT$,
     1497    18616                          RTN   = FD$$);

  18618 24 000471   200106 470500                    LDP0    P$,,AUTO
        24 000472   000001 236100                    LDQ     1,,PR0
        24 000473   200107 756100                    STQ     FD$$,,AUTO

  18619 24 000474   200107 471500                    LDP1    FD$$,,AUTO
        24 000475   100000 220100                    LDX0    0,,PR1
        24 000476   000751 100003                    CMPX0   489,DU
        24 000477   000507 603000 24                 TRC     s:18625

  18620 24 000500   200107 470500                    LDP0    FD$$,,AUTO
PL6.E3A0      #006=Z9EN$SORT File=Z9EN.:Z8A6TSI                                  SAT 08/09/97 13:57 Page:291
        24 000501   000001 236100                    LDQ     1,,PR0
        24 000502   200107 756100                    STQ     FD$$,,AUTO

  18621 24 000503   200107 470500                    LDP0    FD$$,,AUTO
        24 000504   000000 220100                    LDX0    0,,PR0
        24 000505   000751 100003                    CMPX0   489,DU
        24 000506   000500 602000 24                 TNC     s:18620

     1498    18624
     1499    18625    4              IF FD$$ -> ST.ID = %FD

  18625 24 000507   200107 470500                    LDP0    FD$$,,AUTO
        24 000510   000000 220100                    LDX0    0,,PR0
        24 000511   001002 100003                    CMPX0   514,DU
        24 000512   000577 601000 24                 TNZ     s:18686
        24 000513   200106 471500                    LDP1    P$,,AUTO
        24 000514   100000 236100                    LDQ     0,,PR1
        24 000515   400000 316007                    CANQ    -131072,DL
        24 000516   000577 601000 24                 TNZ     s:18686

     1500    18626    4              AND NOT P$ -> LX_ETT_ITEM.B.ERROR THEN
     1501    18627    5                DO;

     1502    18628                       %GET_LTS (@ID      = %FILE_LTS,
     1503    18629                                 @ST$     = FD$$,
     1504    18630                                 @RETURN$ = FAB$);

  18632 24 000517   000005 236100                    LDQ     5,,PR0
        24 000520   000000 116000 25                 CMPQ    0
        24 000521   000531 600000 24                 TZE     s:18666
        24 000522   000005 473500                    LDP3    5,,PR0
        24 000523   300000 221100                    LDX1    0,,PR3
        24 000524   001105 101003                    CMPX1   581,DU
        24 000525   000531 601000 24                 TNZ     s:18666

  18646 24 000526   300006 236100                    LDQ     6,,PR3
        24 000527   200110 756100                    STQ     FAB$,,AUTO
PL6.E3A0      #006=Z9EN$SORT File=Z9EN.:Z8A6TSI                                  SAT 08/09/97 13:57 Page:292

  18664 24 000530   000543 710000 24                 TRA     s:18674

  18666 24 000531   000000 116000 25                 CMPQ    0
        24 000532   000541 600000 24                 TZE     s:18670
        24 000533   000005 473500                    LDP3    5,,PR0
        24 000534   300000 221100                    LDX1    0,,PR3
        24 000535   001121 101003                    CMPX1   593,DU
        24 000536   000541 601000 24                 TNZ     s:18670

  18668 24 000537   200110 756100                    STQ     FAB$,,AUTO
        24 000540   000543 710000 24                 TRA     s:18674

  18670 24 000541   000000 236000 25                 LDQ     0
        24 000542   200110 756100                    STQ     FAB$,,AUTO

     1505    18673
     1506    18674    5                  CALL PRESET (%PTR_SET,

  18674 24 000543   200112 633500                    EPPR3   I,,AUTO
        24 000544   200124 453500                    STP3    @ROP+1,,AUTO
        24 000545   000002 036003                    ADLQ    2,DU
        24 000546   200105 235100                    LDA     @BLOCK$,,AUTO
        24 000547   200122 757100                    STAQ    CONST$,,AUTO
        24 000550   000023 236000 25                 LDQ     19
        24 000551   200121 756100                    STQ     P$,,AUTO
        24 000552   002020 701000 24                 TSX1    PRESET
        24 000553   000000 011000                    NOP     0

     1507    18675    5                               BLOCK$,
     1508    18676    5                               FAB$ -> FILE_LTS.FAB$,
     1509    18677    5                               I);
     1510    18678    5                  IF MERGE_STATEMENT   THEN

  18678 24 000554   200100 234100                    SZN     MERGE_STATEMENT,,AUTO
        24 000555   000577 605000 24                 TPL     s:18686

PL6.E3A0      #006=Z9EN$SORT File=Z9EN.:Z8A6TSI                                  SAT 08/09/97 13:57 Page:293
     1511    18679    5                      IF FAB$ -> FILE_LTS.B.MERGE_STATEMENT = %TRUE   THEN

  18679 24 000556   200110 470500                    LDP0    FAB$,,AUTO
        24 000557   000017 236100                    LDQ     15,,PR0
        24 000560   000200 316007                    CANQ    128,DL
        24 000561   000575 600000 24                 TZE     s:18682

     1512    18680    5                          CALL Z8AE$ERROR(%E$MULTIPLE_FILE_ERROR,,P$->LX_ITEM.COLUMN);

  18680 24 000562   200106 236100                    LDQ     P$,,AUTO
        24 000563   000006 036003                    ADLQ    6,DU
        24 000564   200150 756100                    STQ     N+4,,AUTO
        24 000565   000000 236000 25                 LDQ     0
        24 000566   000026 235000 25                 LDA     22
        24 000567   200146 757100                    STAQ    N+2,,AUTO
        24 000570   200146 630500                    EPPR0   N+2,,AUTO
        24 000571   000024 631400 25                 EPPR1   20
        24 000572   000000 701000 xent               TSX1    Z8AE$ERROR
        24 000573   000000 011000                    NOP     0
        24 000574   000577 710000 24                 TRA     s:18686

     1513    18681    5                      ELSE
     1514    18682    5                          FAB$ -> FILE_LTS.B.MERGE_STATEMENT = %TRUE;

  18682 24 000575   000200 236007                    LDQ     128,DL
        24 000576   000017 256100                    ORSQ    15,,PR0

     1515    18683
     1516    18684    5                END;

     1517    18685
     1518    18686    4              P$ = P$ -> LX_ITEM.LINK;

  18686 24 000577   200106 470500                    LDP0    P$,,AUTO
        24 000600   000007 236100                    LDQ     7,,PR0
        24 000601   200106 756100                    STQ     P$,,AUTO

PL6.E3A0      #006=Z9EN$SORT File=Z9EN.:Z8A6TSI                                  SAT 08/09/97 13:57 Page:294
     1519    18687
     1520    18688    4            END; /* DO */

  18688 24 000602   200112 054100                    AOS     I,,AUTO
        24 000603   200103 470500                    LDP0    @FILE$,,AUTO
        24 000604   000000 471500                    LDP1    0,,PR0
        24 000605   200112 236100                    LDQ     I,,AUTO
        24 000606   100002 116100                    CMPQ    2,,PR1
        24 000607   000471 604400 24                 TMOZ    s:18618
        24 000610   000615 710000 24                 TRA     s:18694

     1521    18689
     1522    18690    3          CASE (ELSE);

     1523    18691    3            CALL Z8AE$ERROR (%E$UNEXPECTED_CASE);

  18691 24 000611   000030 630400 25                 EPPR0   24
        24 000612   000001 631400 25                 EPPR1   1
        24 000613   000000 701000 xent               TSX1    Z8AE$ERROR
        24 000614   000000 011000                    NOP     0

     1524    18692
     1525    18693    3        END; /* Case */

     1526    18694    2   END BUILD_FILE;

  18694 24 000615   200102 221300                    LDX1  ! MERGE_STATEMENT+2,,AUTO
        24 000616   000001 702211                    TSX2  ! 1,X1

     1527    18695        %EJECT;
PL6.E3A0      #006=Z9EN$SORT File=Z9EN.:Z8A6TSI                                  SAT 08/09/97 13:57 Page:295
     1528    18696    1   BUILD_ZL_XLATE: PROC (COLLATING$, RTN$);

  18696 24 000617   200102 741300       BUILD_ZL_XL* STX1  ! MERGE_STATEMENT+2,,AUTO

     1529    18697
     1530    18698    2        DCL COLLATING$    PTR; /* To lx_ett_item for alphabet_st item */
     1531    18699    2        DCL XLATE$        PTR; /* To lx_ett_item for translate table  */
     1532    18700    2        DCL RTN$          PTR; /* To ST for ZL_XLATE */
     1533    18701
     1534    18702             %ZL_XLATE         (FPTN     = ZL_XLATE,
     1535    18703                                STCLASS  = AUTO,
     1536    18704                                N        = 1);
     1537    18722
     1538    18723             %ZL_TABLE         (STCLASS  = AUTO);
     1539    18754
     1540    18755    2        DCL 1 CHAR_CODE    ALIGNED, /* 1 word aligned with code in first */
     1541    18756    2             2 CODE       CHAR(2) UNAL, /* 2 characters */
     1542    18757    2             2 FILL       CHAR(2) UNAL;
     1543    18758
     1544    18759    2        DCL XLATE_ST$     PTR;
     1545    18760    2        DCL CODE$         PTR;
     1546    18761    2        DCL COLLATING_SEQ$ PTR;
     1547    18762
     1548    18763
     1549    18764
     1550    18765    2       DCL ALP$ PTR;
     1551    18766
     1552    18767    2       XLATE$ = ADDR(NIL);

  18767 24 000620   000000 236000 25                 LDQ     0
        24 000621   200105 756100                    STQ     XLATE$,,AUTO

     1553    18768    2       COLLATING_SEQ$ = O1COM.CURRENT_PROC$ -> PROC_.PROC_SUPP$ -> PROC_SUPP.
             18768                COLLATING_SEQ$;

  18768 24 000622   000057 470400 xsym               LDP0    O1COM+47
        24 000623   000001 471500                    LDP1    1,,PR0
PL6.E3A0      #006=Z9EN$SORT File=Z9EN.:Z8A6TSI                                  SAT 08/09/97 13:57 Page:296
        24 000624   100002 236100                    LDQ     2,,PR1
        24 000625   200114 756100                    STQ     COLLATING_SEQ$,,AUTO

     1554    18769
     1555    18770    2       ASCII_OPT:
     1556    18771    3         DO;

  18771 24 000626                       ASCII_OPT    null
     1557    18772    3           IF COLLATING$ ~= ADDR(NIL)

  18772 24 000626   200103 473500                    LDP3    @COLLATING$,,AUTO
        24 000627   300000 236100                    LDQ     0,,PR3
        24 000630   000000 116000 25                 CMPQ    0
        24 000631   000730 600000 24                 TZE     s:18852
        24 000632   300000 474500                    LDP4    0,,PR3
        24 000633   400000 220100                    LDX0    0,,PR4
        24 000634   000004 100003                    CMPX0   4,DU
        24 000635   000730 601000 24                 TNZ     s:18852

     1558    18773    3              AND COLLATING$ -> LX_ITEM.ID = %LX_ETT_ITEM THEN
     1559    18774    4             DO;

     1560    18775                    %FISH (TRIAD = COLLATING$ -> LX_ETT_ITEM.ETT$,
     1561    18776                           RTN = ALP$);

  18778 24 000636   400001 236100                    LDQ     1,,PR4
        24 000637   200115 756100                    STQ     ALP$,,AUTO

  18779 24 000640   200115 475500                    LDP5    ALP$,,AUTO
        24 000641   500000 222100                    LDX2    0,,PR5
        24 000642   000751 102003                    CMPX2   489,DU
        24 000643   000653 603000 24                 TRC     s:18785

  18780 24 000644   200115 470500                    LDP0    ALP$,,AUTO
        24 000645   000001 236100                    LDQ     1,,PR0
        24 000646   200115 756100                    STQ     ALP$,,AUTO

PL6.E3A0      #006=Z9EN$SORT File=Z9EN.:Z8A6TSI                                  SAT 08/09/97 13:57 Page:297
  18781 24 000647   200115 470500                    LDP0    ALP$,,AUTO
        24 000650   000000 220100                    LDX0    0,,PR0
        24 000651   000751 100003                    CMPX0   489,DU
        24 000652   000644 602000 24                 TNC     s:18780

     1562    18784
     1563    18785    4               IF ALP$ -> ST.ID = %ALPHABET THEN

  18785 24 000653   200115 470500                    LDP0    ALP$,,AUTO
        24 000654   000000 220100                    LDX0    0,,PR0
        24 000655   000763 100003                    CMPX0   499,DU
        24 000656   000705 601000 24                 TNZ     s:18830

     1564    18786    5                 DO;

     1565    18787    5                   IF ALP$ -> ALPHABET.B.CODE = %ASCII THEN

  18787 24 000657   000003 236100                    LDQ     3,,PR0
        24 000660   000777 316007                    CANQ    511,DL
        24 000661   000761 600000 24                 TZE     s:18884

     1566    18788    5                     EXIT ASCII_OPT;
     1567    18789
     1568    18790                        %INIT_LX_ETT_ITEM (@POINTER = "ADDR(COLLATING_SEQ)",
     1569    18791                                           @TYPE = %TYG,
     1570    18792                                           @ETT$ = ALP$ -> ALPHABET.TABLE_ETT$);

  18794 24 000662   000004 221003                    LDX1    4,DU
        24 000663   200044 741100                    STX1    COLLATING_SEQ,,AUTO

  18795 24 000664   000000 220003                    LDX0    0,DU
        24 000665   200044 440100                    SXL0    COLLATING_SEQ,,AUTO

  18796 24 000666   000020 235007                    LDA     16,DL
        24 000667   200050 755100                    STA     COLLATING_SEQ+4,,AUTO

  18797 24 000670   000000 236000 25                 LDQ     0
PL6.E3A0      #006=Z9EN$SORT File=Z9EN.:Z8A6TSI                                  SAT 08/09/97 13:57 Page:298
        24 000671   200053 756100                    STQ     COLLATING_SEQ+7,,AUTO

  18798 24 000672   000001 236100                    LDQ     1,,PR0
        24 000673   200045 756100                    STQ     COLLATING_SEQ+1,,AUTO

  18799 24 000674   000000 236000 25                 LDQ     0
        24 000675   200046 756100                    STQ     COLLATING_SEQ+2,,AUTO

  18801 24 000676   000133 235000 xsym               LDA     COMCOM+91
        24 000677   200051 755100                    STA     COLLATING_SEQ+5,,AUTO

  18802 24 000700   000134 235000 xsym               LDA     COMCOM+92
        24 000701   200052 755100                    STA     COLLATING_SEQ+6,,AUTO

     1571    18814    5                   XLATE$ = ADDR(COLLATING_SEQ);

  18814 24 000702   200044 631500                    EPPR1   COLLATING_SEQ,,AUTO
        24 000703   200105 451500                    STP1    XLATE$,,AUTO

     1572    18815    5                 END;

  18815 24 000704   000730 710000 24                 TRA     s:18852

     1573    18816    4               ELSE
     1574    18817                      %CONDITIONAL_ERROR (@LX_ITEM$ = COLLATING$,
     1575    18818                                          @ERROR# = %E$ALPHABET_EXPECTED,
     1576    18819                                          @LINE = COLLATING$ -> LX_ETT_ITEM.LINE,
     1577    18820                                          @COLUMN = COLLATING$ -> LX_ETT_ITEM.COLUMN);

  18830 24 000705   200103 471500                    LDP1    @COLLATING$,,AUTO
        24 000706   100000 473500                    LDP3    0,,PR1
        24 000707   300000 236100                    LDQ     0,,PR3
        24 000710   400000 316007                    CANQ    -131072,DL
        24 000711   000730 601000 24                 TNZ     s:18852

  18832 24 000712   300006 634500                    EPPR4   6,,PR3
        24 000713   200150 454500                    STP4    N+4,,AUTO
PL6.E3A0      #006=Z9EN$SORT File=Z9EN.:Z8A6TSI                                  SAT 08/09/97 13:57 Page:299
        24 000714   300005 635500                    EPPR5   5,,PR3
        24 000715   200147 455500                    STP5    N+3,,AUTO
        24 000716   000032 236000 25                 LDQ     26
        24 000717   200146 756100                    STQ     N+2,,AUTO
        24 000720   200146 630500                    EPPR0   N+2,,AUTO
        24 000721   000024 631400 25                 EPPR1   20
        24 000722   000000 701000 xent               TSX1    Z8AE$ERROR
        24 000723   000000 011000                    NOP     0

  18841 24 000724   200103 470500                    LDP0    @COLLATING$,,AUTO
        24 000725   000000 471500                    LDP1    0,,PR0
        24 000726   400000 236007                    LDQ     -131072,DL
        24 000727   100000 256100                    ORSQ    0,,PR1

     1578    18850    4             END;

     1579    18851
     1580    18852    3           IF XLATE$ = ADDR(NIL)

  18852 24 000730   200105 236100                    LDQ     XLATE$,,AUTO
        24 000731   000000 116000 25                 CMPQ    0
        24 000732   000761 601000 24                 TNZ     s:18884
        24 000733   200114 236100                    LDQ     COLLATING_SEQ$,,AUTO
        24 000734   000000 116000 25                 CMPQ    0
        24 000735   000761 600000 24                 TZE     s:18884

     1581    18853    3                AND  COLLATING_SEQ$ ~= ADDR(NIL) THEN
     1582    18854    4             DO;

     1583    18855                    %INIT_LX_ETT_ITEM (@POINTER = "ADDR(COLLATING_SEQ)",
     1584    18856                                       @TYPE = %TYG,
     1585    18857                                       @ETT$ = COLLATING_SEQ$ -> ALPHABET.TABLE_ETT$);

  18859 24 000736   000004 220003                    LDX0    4,DU
        24 000737   200044 740100                    STX0    COLLATING_SEQ,,AUTO

  18860 24 000740   000000 221003                    LDX1    0,DU
PL6.E3A0      #006=Z9EN$SORT File=Z9EN.:Z8A6TSI                                  SAT 08/09/97 13:57 Page:300
        24 000741   200044 441100                    SXL1    COLLATING_SEQ,,AUTO

  18861 24 000742   000020 235007                    LDA     16,DL
        24 000743   200050 755100                    STA     COLLATING_SEQ+4,,AUTO

  18862 24 000744   000000 236000 25                 LDQ     0
        24 000745   200053 756100                    STQ     COLLATING_SEQ+7,,AUTO

  18863 24 000746   200114 470500                    LDP0    COLLATING_SEQ$,,AUTO
        24 000747   000001 236100                    LDQ     1,,PR0
        24 000750   200045 756100                    STQ     COLLATING_SEQ+1,,AUTO

  18864 24 000751   000000 236000 25                 LDQ     0
        24 000752   200046 756100                    STQ     COLLATING_SEQ+2,,AUTO

  18866 24 000753   000133 235000 xsym               LDA     COMCOM+91
        24 000754   200051 755100                    STA     COLLATING_SEQ+5,,AUTO

  18867 24 000755   000134 235000 xsym               LDA     COMCOM+92
        24 000756   200052 755100                    STA     COLLATING_SEQ+6,,AUTO

     1586    18879    4               XLATE$ = ADDR(COLLATING_SEQ);

  18879 24 000757   200044 631500                    EPPR1   COLLATING_SEQ,,AUTO
        24 000760   200105 451500                    STP1    XLATE$,,AUTO

     1587    18880    4             END;

     1588    18881    3         END;

     1589    18882
     1590    18883
     1591    18884    2        IF XLATE$ = ADDR(NIL) THEN

  18884 24 000761   200105 236100                    LDQ     XLATE$,,AUTO
        24 000762   000000 116000 25                 CMPQ    0
        24 000763   000775 601000 24                 TNZ     s:18894
PL6.E3A0      #006=Z9EN$SORT File=Z9EN.:Z8A6TSI                                  SAT 08/09/97 13:57 Page:301

     1592    18885    3          DO;

     1593    18886    3            CHAR_CODE.CODE = '  ';

  18886 24 000764   000121 220000 23                 LDX0    CONST_ENTADDR_NIL+1
        24 000765   200111 740100                    STX0    CHAR_CODE,,AUTO

     1594    18887    3            CHAR_CODE.FILL = '  ';

  18887 24 000766   200111 440100                    SXL0    CHAR_CODE,,AUTO

     1595    18888    3            RTN$ = ADDR(NIL);

  18888 24 000767   000000 236000 25                 LDQ     0
        24 000770   200104 470500                    LDP0    @RTN$,,AUTO
        24 000771   000000 756100                    STQ     0,,PR0

     1596    18889    3            XLATE_PRESENT = FALSE;

  18889 24 000772   200054 450100                    STZ     XLATE_PRESENT,,AUTO

     1597    18890    3            RETURN;

  18890 24 000773   200102 221300                    LDX1  ! MERGE_STATEMENT+2,,AUTO
        24 000774   000001 702211                    TSX2  ! 1,X1

     1598    18891    3          END;
     1599    18892
     1600    18893    2        ELSE
     1601    18894    2            XLATE_PRESENT = TRUE;

  18894 24 000775   400000 236003                    LDQ     -131072,DU
        24 000776   200054 756100                    STQ     XLATE_PRESENT,,AUTO

     1602    18895
     1603    18896             %FISH (TRIAD = XLATE$ -> LX_ETT_ITEM.ETT$,
PL6.E3A0      #006=Z9EN$SORT File=Z9EN.:Z8A6TSI                                  SAT 08/09/97 13:57 Page:302
     1604    18897                    RTN   = XLATE_ST$);

  18899 24 000777   200105 470500                    LDP0    XLATE$,,AUTO
        24 001000   000001 236100                    LDQ     1,,PR0
        24 001001   200112 756100                    STQ     XLATE_ST$,,AUTO

  18900 24 001002   200112 471500                    LDP1    XLATE_ST$,,AUTO
        24 001003   100000 220100                    LDX0    0,,PR1
        24 001004   000751 100003                    CMPX0   489,DU
        24 001005   001015 603000 24                 TRC     s:18906

  18901 24 001006   200112 470500                    LDP0    XLATE_ST$,,AUTO
        24 001007   000001 236100                    LDQ     1,,PR0
        24 001010   200112 756100                    STQ     XLATE_ST$,,AUTO

  18902 24 001011   200112 470500                    LDP0    XLATE_ST$,,AUTO
        24 001012   000000 220100                    LDX0    0,,PR0
        24 001013   000751 100003                    CMPX0   489,DU
        24 001014   001006 602000 24                 TNC     s:18901

     1605    18905
     1606    18906    2        CALL Z8AT$CREATE_TEMPORARY (%SCALAR, RTN$);

  18906 24 001015   200104 236100                    LDQ     @RTN$,,AUTO
        24 001016   000013 235000 25                 LDA     11
        24 001017   200146 757100                    STAQ    N+2,,AUTO
        24 001020   200146 630500                    EPPR0   N+2,,AUTO
        24 001021   000011 631400 25                 EPPR1   9
        24 001022   000000 701000 xent               TSX1    Z8AT$CREATE_TEMPORARY
        24 001023   000000 011000                    NOP     0

     1607    18907
     1608    18908    2        RTN$ -> SCALAR.TYPE    = %TYA;

  18908 24 001024   200104 470500                    LDP0    @RTN$,,AUTO
        24 001025   000000 471500                    LDP1    0,,PR0
        24 001026   000010 220003                    LDX0    8,DU
PL6.E3A0      #006=Z9EN$SORT File=Z9EN.:Z8A6TSI                                  SAT 08/09/97 13:57 Page:303
        24 001027   100002 740100                    STX0    2,,PR1

     1609    18909    2        RTN$ -> SCALAR.ADSC.N  = SIZEC (ZL_XLATE);

  18909 24 001030   000000 471500                    LDP1    0,,PR0
        24 001031   000014 236007                    LDQ     12,DL
        24 001032   100001 752103                    STCQ    1,'03'O,PR1

     1610    18910    2        RTN$ -> SCALAR.B.CLASS = %CLASS_ALPHANUMERIC;

  18910 24 001033   000000 471500                    LDP1    0,,PR0
        24 001034   100003 236100                    LDQ     3,,PR1
        24 001035   000014 376000 25                 ANQ     12
        24 001036   000003 276007                    ORQ     3,DL
        24 001037   100003 756100                    STQ     3,,PR1

     1611    18911
     1612    18912    2        CALL PRESET (%PREOFF, RTN$, COMCOM.VALUE_1 -> ETT.LOP, 0);

  18912 24 001040   000007 236000 25                 LDQ     7
        24 001041   200124 756100                    STQ     @ROP+1,,AUTO
        24 001042   000125 236000 xsym               LDQ     COMCOM+85
        24 001043   000001 036003                    ADLQ    1,DU
        24 001044   200104 235100                    LDA     @RTN$,,AUTO
        24 001045   200122 757100                    STAQ    CONST$,,AUTO
        24 001046   000021 236000 25                 LDQ     17
        24 001047   200121 756100                    STQ     P$,,AUTO
        24 001050   002020 701000 24                 TSX1    PRESET
        24 001051   000000 011000                    NOP     0

     1613    18913
     1614    18914
     1615    18915    2        CHAR_CODE.FILL = '  ';

  18915 24 001052   000121 220000 23                 LDX0    CONST_ENTADDR_NIL+1
        24 001053   200111 440100                    SXL0    CHAR_CODE,,AUTO

PL6.E3A0      #006=Z9EN$SORT File=Z9EN.:Z8A6TSI                                  SAT 08/09/97 13:57 Page:304
     1616    18916    2        CHAR_CODE.CODE = %XLATE_CODE;

  18916 24 001054   000122 221000 23                 LDX1    CONST_ENTADDR_NIL+2
        24 001055   200111 741100                    STX1    CHAR_CODE,,AUTO

     1617    18917
     1618    18918    2        CALL Z8AC$MAKE_TYA_CONST (CHAR_CODE, 4, 0, CODE$);

  18918 24 001056   200113 630500                    EPPR0   CODE$,,AUTO
        24 001057   200151 450500                    STP0    N+5,,AUTO
        24 001060   000007 236000 25                 LDQ     7
        24 001061   200150 756100                    STQ     N+4,,AUTO
        24 001062   000034 236000 25                 LDQ     28
        24 001063   200147 756100                    STQ     N+3,,AUTO
        24 001064   200111 631500                    EPPR1   CHAR_CODE,,AUTO
        24 001065   200146 451500                    STP1    N+2,,AUTO
        24 001066   200146 630500                    EPPR0   N+2,,AUTO
        24 001067   000004 631400 25                 EPPR1   4
        24 001070   000000 701000 xent               TSX1    Z8AC$MAKE_TYA_CONST
        24 001071   000000 011000                    NOP     0

     1619    18919
     1620    18920    2        CALL PRESET (%PREOFF, RTN$, CODE$ -> ETT.LOP, 1);

  18920 24 001072   000036 236000 25                 LDQ     30
        24 001073   200124 756100                    STQ     @ROP+1,,AUTO
        24 001074   200113 236100                    LDQ     CODE$,,AUTO
        24 001075   000001 036003                    ADLQ    1,DU
        24 001076   200104 235100                    LDA     @RTN$,,AUTO
        24 001077   200122 757100                    STAQ    CONST$,,AUTO
        24 001100   000021 236000 25                 LDQ     17
        24 001101   200121 756100                    STQ     P$,,AUTO
        24 001102   002020 701000 24                 TSX1    PRESET
        24 001103   000000 011000                    NOP     0

     1621    18921
     1622    18922    2        CALL PRESET (%PTR_SET, RTN$, XLATE_ST$, 2);
PL6.E3A0      #006=Z9EN$SORT File=Z9EN.:Z8A6TSI                                  SAT 08/09/97 13:57 Page:305

  18922 24 001104   000040 236000 25                 LDQ     32
        24 001105   200124 756100                    STQ     @ROP+1,,AUTO
        24 001106   200112 630500                    EPPR0   XLATE_ST$,,AUTO
        24 001107   200123 450500                    STP0    @LOP+1,,AUTO
        24 001110   200104 236100                    LDQ     @RTN$,,AUTO
        24 001111   200122 756100                    STQ     CONST$,,AUTO
        24 001112   000023 236000 25                 LDQ     19
        24 001113   200121 756100                    STQ     P$,,AUTO
        24 001114   002020 701000 24                 TSX1    PRESET
        24 001115   000000 011000                    NOP     0

     1623    18923
     1624    18924    2   END BUILD_ZL_XLATE;

  18924 24 001116   200102 221300                    LDX1  ! MERGE_STATEMENT+2,,AUTO
        24 001117   000001 702211                    TSX2  ! 1,X1

     1625    18925        %EJECT;
PL6.E3A0      #006=Z9EN$SORT File=Z9EN.:Z8A6TSI                                  SAT 08/09/97 13:57 Page:306
     1626    18926    1   BUILD_ZL_KEY: PROC (KEY$, RTN$);

  18926 24 001120   200102 741300       BUILD_ZL_KEY STX1  ! MERGE_STATEMENT+2,,AUTO
        24 001121   001650 710000 24                 TRA     s:19633

     1627    18927
     1628    18928    2        DCL KEY$          PTR;
     1629    18929    2        DCL RTN$          PTR; /* To ST representing ZL_KEYS */
     1630    18930
     1631    18931    2        DCL I             SBIN;
     1632    18932    2        DCL NEXT          SBIN;
     1633    18933    2        DCL N#            SBIN;
     1634    18934    2        DCL P$            PTR;
     1635    18935    2        DCL K$            PTR;
     1636    18936    2        DCL N$            PTR;
     1637    18937
     1638    18938             %ZL_KEYS          (FPTN   = ZL_KEYS,
     1639    18939                                STCLASS= AUTO);
     1640    18956
     1641    18957             %ZL_KEY           (STCLASS= AUTO);
     1642    19017        %EJECT;
PL6.E3A0      #006=Z9EN$SORT File=Z9EN.:Z8A6TSI                                  SAT 08/09/97 13:57 Page:307
     1643    19018    2        CREATE_KEY: PROC (K$, ASC_DES, NEXT, RTN$);

  19018 24 001122   200120 741300       CREATE_KEY   STX1  ! ALP$+3,,AUTO

     1644    19019
     1645    19020    3            DCL RTN$      PTR;
     1646    19021    3            DCL K$        PTR;
     1647    19022    3            DCL ASC_DES   SBIN;
     1648    19023    3            DCL NEXT      SBIN;
     1649    19024
     1650    19025    3            DCL KEY_INERDS$      PTR;
     1651    19026    3            DCL 1 KEY_INERDS     ALIGNED,
     1652    19027                       %KEY_INERDS;
     1653    19037
     1654    19038
     1655    19039
     1656    19040    3            IF NOT XLATE_PRESENT THEN

  19040 24 001123   200054 234100                    SZN     XLATE_PRESENT,,AUTO
        24 001124   001130 604000 24                 TMI     s:19043

     1657    19041    3              KEY_INERDS.XLATE# = %XLATE_DEFAULT;

  19041 24 001125   000121 220000 23                 LDX0    CONST_ENTADDR_NIL+1
        24 001126   200131 440100                    SXL0    KEY_INERDS+3,,AUTO
        24 001127   001132 710000 24                 TRA     s:19045

     1658    19042    3            ELSE
     1659    19043    3              KEY_INERDS.XLATE# = %XLATE_CODE;

  19043 24 001130   000122 220000 23                 LDX0    CONST_ENTADDR_NIL+2
        24 001131   200131 440100                    SXL0    KEY_INERDS+3,,AUTO

     1660    19044
     1661    19045    3            IF ASC_DES = %RSV_WRD_DESCENDING THEN

  19045 24 001132   200122 470500                    LDP0    @ASC_DES,,AUTO
PL6.E3A0      #006=Z9EN$SORT File=Z9EN.:Z8A6TSI                                  SAT 08/09/97 13:57 Page:308
        24 001133   000000 235100                    LDA     0,,PR0
        24 001134   000215 115007                    CMPA    141,DL
        24 001135   001141 601000 24                 TNZ     s:19048

     1662    19046    3              KEY_INERDS.ORDER# = 'D';

  19046 24 001136   000104 236003                    LDQ     68,DU
        24 001137   200131 552120                    STBQ    KEY_INERDS+3,'20'O,AUTO
        24 001140   001143 710000 24                 TRA     s:19050

     1663    19047    3            ELSE
     1664    19048    3              KEY_INERDS.ORDER# = 'A';

  19048 24 001141   000101 236003                    LDQ     65,DU
        24 001142   200131 552120                    STBQ    KEY_INERDS+3,'20'O,AUTO

     1665    19049
     1666    19050    3            CALL BINCHAR (KEY_INERDS.PREC#, NEXT);

  19050 24 001143   200123 471500                    LDP1    @NEXT,,AUTO
        24 001144   000100 301500                    BTD
        24 001145   100000 000004                    NDSC9   0,,PR1                   cn=0,s=lsgnf,sf=0,n=4
        24 001146   200126 030002                    NDSC9   KEY_INERDS,,AUTO         cn=0,s=nosgn,sf=0,n=2

     1667    19051
     1668    19052    3            CALL CONVERT_KEY (K$, KEY_INERDS);

  19052 24 001147   200126 633500                    EPPR3   KEY_INERDS,,AUTO
        24 001150   200134 453500                    STP3    @K$+1,,AUTO
        24 001151   200121 236100                    LDQ     @K$,,AUTO
        24 001152   200133 756100                    STQ     KEY_INERDS+5,,AUTO
        24 001153   001227 701000 24                 TSX1    CONVERT_KEY
        24 001154   000000 011000                    NOP     0

     1669    19053
     1670    19054    3            CALL Z8AC$MAKE_TYA_CONST (KEY_INERDS,

PL6.E3A0      #006=Z9EN$SORT File=Z9EN.:Z8A6TSI                                  SAT 08/09/97 13:57 Page:309
  19054 24 001155   200125 630500                    EPPR0   KEY_INERDS$,,AUTO
        24 001156   200151 450500                    STP0    N+5,,AUTO
        24 001157   000007 236000 25                 LDQ     7
        24 001160   200150 756100                    STQ     N+4,,AUTO
        24 001161   000042 236000 25                 LDQ     34
        24 001162   200147 756100                    STQ     N+3,,AUTO
        24 001163   200126 631500                    EPPR1   KEY_INERDS,,AUTO
        24 001164   200146 451500                    STP1    N+2,,AUTO
        24 001165   200146 630500                    EPPR0   N+2,,AUTO
        24 001166   000004 631400 25                 EPPR1   4
        24 001167   000000 701000 xent               TSX1    Z8AC$MAKE_TYA_CONST
        24 001170   000000 011000                    NOP     0

     1671    19055    3                                      SIZEC (KEY_INERDS),
     1672    19056    3                                      0,
     1673    19057    3                                      KEY_INERDS$);
     1674    19058
     1675    19059                 %NEW_ILL (@ID      = %PREOFF,
     1676    19060                           @LOP     = RTN$,
     1677    19061                           @ROP     = KEY_INERDS$ -> ETT.LOP,
     1678    19062                           @OFFSET  = "((NEXT - 1) * SIZEW (KEY_INERDS)) + 1",
     1679    19063                           @N       = "SIZEW (KEY_INERDS)");

  19292 24 001171   000043 236000 25                 LDQ     35
        24 001172   200146 756100                    STQ     N+2,,AUTO
        24 001173   200146 630500                    EPPR0   N+2,,AUTO
        24 001174   200153 450500                    STP0    N+7,,AUTO
        24 001175   000044 236000 25                 LDQ     36
        24 001176   200152 756100                    STQ     N+6,,AUTO
        24 001177   000046 237000 25                 LDAQ    38
        24 001200   200150 757100                    STAQ    N+4,,AUTO
        24 001201   200150 630500                    EPPR0   N+4,,AUTO
        24 001202   000004 631400 25                 EPPR1   4
        24 001203   000000 701000 xent               TSX1    Z8AN$NEW_ILL
        24 001204   000000 011000                    NOP     0

  19296 24 001205   200123 470500                    LDP0    @NEXT,,AUTO
PL6.E3A0      #006=Z9EN$SORT File=Z9EN.:Z8A6TSI                                  SAT 08/09/97 13:57 Page:310
        24 001206   000000 235100                    LDA     0,,PR0
        24 001207   000002 735000                    ALS     2
        24 001210   777775 620005                    EAX0    -3,AL
        24 001211   000000 471400 1                  LDP1    ILL$
        24 001212   100000 440100                    SXL0    0,,PR1

  19301 24 001213   000004 235007                    LDA     4,DL
        24 001214   000000 471400 1                  LDP1    ILL$
        24 001215   100003 755100                    STA     3,,PR1

  19303 24 001216   200124 473500                    LDP3    @RTN$,,AUTO
        24 001217   300000 236100                    LDQ     0,,PR3
        24 001220   100001 756100                    STQ     1,,PR1

  19304 24 001221   200125 474500                    LDP4    KEY_INERDS$,,AUTO
        24 001222   400001 236100                    LDQ     1,,PR4
        24 001223   100002 756100                    STQ     2,,PR1

     1680    19442
     1681    19443    3            NEXT = NEXT + 1;

  19443 24 001224   000000 054100                    AOS     0,,PR0

     1682    19444
     1683    19445    3        END CREATE_KEY;

  19445 24 001225   200120 221300                    LDX1  ! ALP$+3,,AUTO
        24 001226   000001 702211                    TSX2  ! 1,X1

     1684    19446             %EJECT;
PL6.E3A0      #006=Z9EN$SORT File=Z9EN.:Z8A6TSI                                  SAT 08/09/97 13:57 Page:311
     1685    19447    2        CONVERT_KEY: PROC (K$, KEY_INERDS);

  19447 24 001227   200132 741300       CONVERT_KEY  STX1  ! KEY_INERDS+4,,AUTO

     1686    19448
     1687    19449    3             DCL K$            PTR;
     1688    19450    3             DCL 1 KEY_INERDS  ALIGNED,
     1689    19451                        %KEY_INERDS;
     1690    19461
     1691    19462    3             DCL 1 TYPE_DESC   ALIGNED,
     1692    19463                        %TYPE_DESC;
     1693    19497    3             DCL 1 DESC        ALIGNED,
     1694    19498                        %DCL_RT_DESC(@LVL=1,@BLK=NO);
     1695    19520
     1696    19521    3             DCL SA            UBIN;
     1697    19522    3             DCL CN            UBIN;
     1698    19523    3             DCL N             UBIN;
     1699    19524
     1700    19525                  %EQU BYTE_UNITS = 0;
     1701    19526                  %EQU PACKED_UNITS = 1;
     1702    19527                  %EQU BIT_UNITS = 2;
     1703    19528
     1704    19529
     1705    19530    3             CALL Z8AU$TYPE_DESCRIPTOR (K$ -> LX_ETT_ITEM.ETT$, TYPE_DESC);

  19530 24 001230   200133 470500                    LDP0    @K$,,AUTO
        24 001231   000000 471500                    LDP1    0,,PR0
        24 001232   200135 633500                    EPPR3   TYPE_DESC,,AUTO
        24 001233   200147 453500                    STP3    N+3,,AUTO
        24 001234   100001 634500                    EPPR4   1,,PR1
        24 001235   200146 454500                    STP4    N+2,,AUTO
        24 001236   200146 630500                    EPPR0   N+2,,AUTO
        24 001237   000011 631400 25                 EPPR1   9
        24 001240   000000 701000 xent               TSX1    Z8AU$TYPE_DESCRIPTOR
        24 001241   000000 011000                    NOP     0

     1706    19531    3             CALL Z9EO$RUNTIME_DESC_FROM_ETT (K$ -> LX_ETT_ITEM.ETT$, DESC);
PL6.E3A0      #006=Z9EN$SORT File=Z9EN.:Z8A6TSI                                  SAT 08/09/97 13:57 Page:312

  19531 24 001242   200133 470500                    LDP0    @K$,,AUTO
        24 001243   000000 471500                    LDP1    0,,PR0
        24 001244   200141 633500                    EPPR3   DESC,,AUTO
        24 001245   200147 453500                    STP3    N+3,,AUTO
        24 001246   100001 634500                    EPPR4   1,,PR1
        24 001247   200146 454500                    STP4    N+2,,AUTO
        24 001250   200146 630500                    EPPR0   N+2,,AUTO
        24 001251   000011 631400 25                 EPPR1   9
        24 001252   000000 701000 xent               TSX1    Z9EO$RUNTIME_DESC_FROM_ETT
        24 001253   000000 011000                    NOP     0

     1707    19532
     1708    19533    3             IF TYPE_DESC.DESC.NDSC.TN = %NDSC4 THEN

  19533 24 001254   200136 236100                    LDQ     TYPE_DESC+1,,AUTO
        24 001255   040000 316007                    CANQ    16384,DL
        24 001256   001265 600000 24                 TZE     s:19536

     1709    19534    3               CN = TYPE_DESC.DESC.NDSC.CN + 1;

  19534 24 001257   200136 236100                    LDQ     TYPE_DESC+1,,AUTO
        24 001260   000017 772000                    QRL     15
        24 001261   000007 376007                    ANQ     7,DL
        24 001262   000001 036007                    ADLQ    1,DL
        24 001263   200143 756100                    STQ     CN,,AUTO
        24 001264   001272 710000 24                 TRA     s:19537

     1710    19535    3             ELSE
     1711    19536    3               CN = TYPE_DESC.DESC.ADSC.CN + 1;

  19536 24 001265   200136 236100                    LDQ     TYPE_DESC+1,,AUTO
        24 001266   000020 772000                    QRL     16
        24 001267   000003 376007                    ANQ     3,DL
        24 001270   000001 036007                    ADLQ    1,DL
        24 001271   200143 756100                    STQ     CN,,AUTO

PL6.E3A0      #006=Z9EN$SORT File=Z9EN.:Z8A6TSI                                  SAT 08/09/97 13:57 Page:313
     1712    19537    3             SA = TYPE_DESC.DESC.SA;

  19537 24 001272   200136 235100                    LDA     TYPE_DESC+1,,AUTO
        24 001273   000022 771000                    ARL     18
        24 001274   200142 755100                    STA     SA,,AUTO

     1713    19538    3             N  = DESC.DES_W.NDSC.N;

  19538 24 001275   200141 236100                    LDQ     DESC,,AUTO
        24 001276   000077 376007                    ANQ     63,DL
        24 001277   200144 756100                    STQ     N,,AUTO

     1714    19539
     1715    19540    3             KEY_INERDS.START# = CN + (SA * 4);

  19540 24 001300   200142 236100                    LDQ     SA,,AUTO
        24 001301   000002 736000                    QLS     2
        24 001302   200143 036100                    ADLQ    CN,,AUTO
        24 001303   200134 470500                    LDP0    @KEY_INERDS,,AUTO
        24 001304   000001 756100                    STQ     1,,PR0

     1716    19541    3             KEY_INERDS.LENGTH# = N;

  19541 24 001305   200144 235100                    LDA     N,,AUTO
        24 001306   000002 755100                    STA     2,,PR0

     1717    19542    3             KEY_INERDS.S_CODE# = %BYTE_UNITS;

  19542 24 001307   000050 236000 25                 LDQ     40
        24 001310   000003 356100                    ANSQ    3,,PR0

     1718    19543    3             KEY_INERDS.L_CODE# = %BYTE_UNITS;

  19543 24 001311   000051 236000 25                 LDQ     41
        24 001312   000003 356100                    ANSQ    3,,PR0

     1719    19544
PL6.E3A0      #006=Z9EN$SORT File=Z9EN.:Z8A6TSI                                  SAT 08/09/97 13:57 Page:314
     1720    19545    4             DO CASE (DESC.DES_W.TYPE);

  19545 24 001313   200141 220100                    LDX0    DESC,,AUTO
        24 001314   000100 100003                    CMPX0   64,DU
        24 001315   001317 602010 24                 TNC     s:19545+4,X0
        24 001316   001632 710000 24                 TRA     s:19625
        24 001317   001632 710000 24                 TRA     s:19625
        24 001320   001474 710000 24                 TRA     s:19579
        24 001321   001632 710000 24                 TRA     s:19625
        24 001322   001503 710000 24                 TRA     s:19583
        24 001323   001512 710000 24                 TRA     s:19587
        24 001324   001632 710000 24                 TRA     s:19625
        24 001325   001632 710000 24                 TRA     s:19625
        24 001326   001632 710000 24                 TRA     s:19625
        24 001327   001632 710000 24                 TRA     s:19625
        24 001330   001540 710000 24                 TRA     s:19597
        24 001331   001576 710000 24                 TRA     s:19609
        24 001332   001632 710000 24                 TRA     s:19625
        24 001333   001632 710000 24                 TRA     s:19625
        24 001334   001632 710000 24                 TRA     s:19625
        24 001335   001632 710000 24                 TRA     s:19625
        24 001336   001632 710000 24                 TRA     s:19625
        24 001337   001632 710000 24                 TRA     s:19625
        24 001340   001632 710000 24                 TRA     s:19625
        24 001341   001632 710000 24                 TRA     s:19625
        24 001342   001632 710000 24                 TRA     s:19625
        24 001343   001632 710000 24                 TRA     s:19625
        24 001344   001417 710000 24                 TRA     s:19547
        24 001345   001417 710000 24                 TRA     s:19547
        24 001346   001615 710000 24                 TRA     s:19620
        24 001347   001615 710000 24                 TRA     s:19620
        24 001350   001557 710000 24                 TRA     s:19603
        24 001351   001632 710000 24                 TRA     s:19625
        24 001352   001632 710000 24                 TRA     s:19625
        24 001353   001632 710000 24                 TRA     s:19625
        24 001354   001465 710000 24                 TRA     s:19575
        24 001355   001456 710000 24                 TRA     s:19571
PL6.E3A0      #006=Z9EN$SORT File=Z9EN.:Z8A6TSI                                  SAT 08/09/97 13:57 Page:315
        24 001356   001557 710000 24                 TRA     s:19603
        24 001357   001632 710000 24                 TRA     s:19625
        24 001360   001632 710000 24                 TRA     s:19625
        24 001361   001632 710000 24                 TRA     s:19625
        24 001362   001632 710000 24                 TRA     s:19625
        24 001363   001632 710000 24                 TRA     s:19625
        24 001364   001632 710000 24                 TRA     s:19625
        24 001365   001632 710000 24                 TRA     s:19625
        24 001366   001632 710000 24                 TRA     s:19625
        24 001367   001521 710000 24                 TRA     s:19591
        24 001370   001437 710000 24                 TRA     s:19556
        24 001371   001442 710000 24                 TRA     s:19559
        24 001372   001445 710000 24                 TRA     s:19562
        24 001373   001450 710000 24                 TRA     s:19565
        24 001374   001453 710000 24                 TRA     s:19568
        24 001375   001632 710000 24                 TRA     s:19625
        24 001376   001632 710000 24                 TRA     s:19625
        24 001377   001632 710000 24                 TRA     s:19625
        24 001400   001632 710000 24                 TRA     s:19625
        24 001401   001632 710000 24                 TRA     s:19625
        24 001402   001540 710000 24                 TRA     s:19597
        24 001403   001632 710000 24                 TRA     s:19625
        24 001404   001615 710000 24                 TRA     s:19620
        24 001405   001615 710000 24                 TRA     s:19620
        24 001406   001615 710000 24                 TRA     s:19620
        24 001407   001615 710000 24                 TRA     s:19620
        24 001410   001615 710000 24                 TRA     s:19620
        24 001411   001632 710000 24                 TRA     s:19625
        24 001412   001615 710000 24                 TRA     s:19620
        24 001413   001615 710000 24                 TRA     s:19620
        24 001414   001615 710000 24                 TRA     s:19620
        24 001415   001615 710000 24                 TRA     s:19620
        24 001416   001615 710000 24                 TRA     s:19620

     1721    19546    4               CASE (%RUNTIME_ASCII, %RUNTIME_KANJI);

     1722    19547    4                 IF TYPE_DESC.SIZ$ ~= ADDR(NIL) THEN
PL6.E3A0      #006=Z9EN$SORT File=Z9EN.:Z8A6TSI                                  SAT 08/09/97 13:57 Page:316

  19547 24 001417   200137 236100                    LDQ     TYPE_DESC+2,,AUTO
        24 001420   000000 116000 25                 CMPQ    0
        24 001421   001427 600000 24                 TZE     s:19550

     1723    19548    4                   N = TYPE_DESC.SIZ$ -> ETT.LOP -> CONST.CONSTI.WORD1;

  19548 24 001422   200137 471500                    LDP1    TYPE_DESC+2,,AUTO
        24 001423   100001 473500                    LDP3    1,,PR1
        24 001424   300010 235100                    LDA     8,,PR3
        24 001425   200144 755100                    STA     N,,AUTO
        24 001426   001432 710000 24                 TRA     s:19552

     1724    19549    4                 ELSE
     1725    19550    4                   N = TYPE_DESC.DESC.ADSC.N;

  19550 24 001427   200136 236100                    LDQ     TYPE_DESC+1,,AUTO
        24 001430   007777 376007                    ANQ     4095,DL
        24 001431   200144 756100                    STQ     N,,AUTO

     1726    19551
     1727    19552    4                 KEY_INERDS.LENGTH# = N;

  19552 24 001432   200144 235100                    LDA     N,,AUTO
        24 001433   000002 755100                    STA     2,,PR0

     1728    19553    4                 KEY_INERDS.TYPE#   = 'AN';

  19553 24 001434   000123 220000 23                 LDX0    CONST_ENTADDR_NIL+3
        24 001435   000000 440100                    SXL0    0,,PR0
        24 001436   001646 710000 24                 TRA     s:19631

     1729    19554
     1730    19555    4               CASE (%RUNTIME_UNPACKED_NO_SIGN);

     1731    19556    4                 KEY_INERDS.TYPE# = 'Z3';

PL6.E3A0      #006=Z9EN$SORT File=Z9EN.:Z8A6TSI                                  SAT 08/09/97 13:57 Page:317
  19556 24 001437   000124 221000 23                 LDX1    CONST_ENTADDR_NIL+4
        24 001440   000000 441100                    SXL1    0,,PR0
        24 001441   001646 710000 24                 TRA     s:19631

     1732    19557
     1733    19558    4               CASE (%RUNTIME_UNPACKED_LEAD_SIGN);

     1734    19559    4                 KEY_INERDS.TYPE# = 'Z1';

  19559 24 001442   000125 221000 23                 LDX1    CONST_ENTADDR_NIL+5
        24 001443   000000 441100                    SXL1    0,,PR0
        24 001444   001646 710000 24                 TRA     s:19631

     1735    19560
     1736    19561    4               CASE (%RUNTIME_UNPACKED_TRAIL_SIGN);

     1737    19562    4                 KEY_INERDS.TYPE# = 'Z2';

  19562 24 001445   000126 221000 23                 LDX1    CONST_ENTADDR_NIL+6
        24 001446   000000 441100                    SXL1    0,,PR0
        24 001447   001646 710000 24                 TRA     s:19631

     1738    19563
     1739    19564    4               CASE (%RUNTIME_UNPACKED_LEAD_OVER);

     1740    19565    4                 KEY_INERDS.TYPE# = 'Z4';

  19565 24 001450   000127 221000 23                 LDX1    CONST_ENTADDR_NIL+7
        24 001451   000000 441100                    SXL1    0,,PR0
        24 001452   001646 710000 24                 TRA     s:19631

     1741    19566
     1742    19567    4               CASE (%RUNTIME_UNPACKED_TRAIL_OVER);

     1743    19568    4                 KEY_INERDS.TYPE# = 'Z5';

  19568 24 001453   000130 221000 23                 LDX1    CONST_ENTADDR_NIL+8
PL6.E3A0      #006=Z9EN$SORT File=Z9EN.:Z8A6TSI                                  SAT 08/09/97 13:57 Page:318
        24 001454   000000 441100                    SXL1    0,,PR0
        24 001455   001646 710000 24                 TRA     s:19631

     1744    19569
     1745    19570    4               CASE (%RUNTIME_32_BIT_SIGNED_INTEGER);

     1746    19571    4                 KEY_INERDS.TYPE# = 'C2';

  19571 24 001456   000131 221000 23                 LDX1    CONST_ENTADDR_NIL+9
        24 001457   000000 441100                    SXL1    0,,PR0

     1747    19572    4                 KEY_INERDS.L_CODE# = %BIT_UNITS;

  19572 24 001460   000003 236100                    LDQ     3,,PR0
        24 001461   000051 376000 25                 ANQ     41
        24 001462   002000 276003                    ORQ     1024,DU
        24 001463   000003 756100                    STQ     3,,PR0
        24 001464   001646 710000 24                 TRA     s:19631

     1748    19573
     1749    19574    4               CASE (%RUNTIME_16_BIT_SIGNED_INTEGER);

     1750    19575    4                 KEY_INERDS.TYPE# = 'C1';

  19575 24 001465   000132 221000 23                 LDX1    CONST_ENTADDR_NIL+10
        24 001466   000000 441100                    SXL1    0,,PR0

     1751    19576    4                 KEY_INERDS.L_CODE# = %BIT_UNITS;

  19576 24 001467   000003 236100                    LDQ     3,,PR0
        24 001470   000051 376000 25                 ANQ     41
        24 001471   002000 276003                    ORQ     1024,DU
        24 001472   000003 756100                    STQ     3,,PR0
        24 001473   001646 710000 24                 TRA     s:19631

     1752    19577
     1753    19578    4               CASE (%RUNTIME_BINARY_FIX_POINT1);
PL6.E3A0      #006=Z9EN$SORT File=Z9EN.:Z8A6TSI                                  SAT 08/09/97 13:57 Page:319

     1754    19579    4                 KEY_INERDS.TYPE# = 'BN';

  19579 24 001474   000133 221000 23                 LDX1    CONST_ENTADDR_NIL+11
        24 001475   000000 441100                    SXL1    0,,PR0

     1755    19580    4                 KEY_INERDS.L_CODE# = %BIT_UNITS;

  19580 24 001476   000003 236100                    LDQ     3,,PR0
        24 001477   000051 376000 25                 ANQ     41
        24 001500   002000 276003                    ORQ     1024,DU
        24 001501   000003 756100                    STQ     3,,PR0
        24 001502   001646 710000 24                 TRA     s:19631

     1756    19581
     1757    19582    4               CASE (%RUNTIME_BINARY_FLOAT_SINGLE);

     1758    19583    4                 KEY_INERDS.TYPE# = 'H1';

  19583 24 001503   000134 221000 23                 LDX1    CONST_ENTADDR_NIL+12
        24 001504   000000 441100                    SXL1    0,,PR0

     1759    19584    4                 KEY_INERDS.L_CODE# = %BIT_UNITS;

  19584 24 001505   000003 236100                    LDQ     3,,PR0
        24 001506   000051 376000 25                 ANQ     41
        24 001507   002000 276003                    ORQ     1024,DU
        24 001510   000003 756100                    STQ     3,,PR0
        24 001511   001646 710000 24                 TRA     s:19631

     1760    19585
     1761    19586    4               CASE (%RUNTIME_BINARY_FLOAT_DOUBLE);

     1762    19587    4                 KEY_INERDS.TYPE# = 'H2';

  19587 24 001512   000135 221000 23                 LDX1    CONST_ENTADDR_NIL+13
        24 001513   000000 441100                    SXL1    0,,PR0
PL6.E3A0      #006=Z9EN$SORT File=Z9EN.:Z8A6TSI                                  SAT 08/09/97 13:57 Page:320

     1763    19588    4                 KEY_INERDS.L_CODE# = %BIT_UNITS;

  19588 24 001514   000003 236100                    LDQ     3,,PR0
        24 001515   000051 376000 25                 ANQ     41
        24 001516   002000 276003                    ORQ     1024,DU
        24 001517   000003 756100                    STQ     3,,PR0
        24 001520   001646 710000 24                 TRA     s:19631

     1764    19589
     1765    19590    4               CASE (%RUNTIME_PACKED_NO_SIGN);

     1766    19591    4                 KEY_INERDS.START# = CN + (SA * 8);

  19591 24 001521   200142 236100                    LDQ     SA,,AUTO
        24 001522   000003 736000                    QLS     3
        24 001523   200143 036100                    ADLQ    CN,,AUTO
        24 001524   000001 756100                    STQ     1,,PR0

     1767    19592    4                 KEY_INERDS.TYPE# = 'P3';

  19592 24 001525   000136 220000 23                 LDX0    CONST_ENTADDR_NIL+14
        24 001526   000000 440100                    SXL0    0,,PR0

     1768    19593    4                 KEY_INERDS.L_CODE# = %PACKED_UNITS;

  19593 24 001527   000003 236100                    LDQ     3,,PR0
        24 001530   000051 376000 25                 ANQ     41
        24 001531   001000 276003                    ORQ     512,DU
        24 001532   000003 756100                    STQ     3,,PR0

     1769    19594    4                 KEY_INERDS.S_CODE# = %PACKED_UNITS;

  19594 24 001533   000003 236100                    LDQ     3,,PR0
        24 001534   000050 376000 25                 ANQ     40
        24 001535   020000 276003                    ORQ     8192,DU
        24 001536   000003 756100                    STQ     3,,PR0
PL6.E3A0      #006=Z9EN$SORT File=Z9EN.:Z8A6TSI                                  SAT 08/09/97 13:57 Page:321
        24 001537   001646 710000 24                 TRA     s:19631

     1770    19595
     1771    19596    4               CASE (%RUNTIME_PACKED_LEAD_SIGN, %RUNTIME_PACKED_LEAD_SIGN_EBC);

     1772    19597    4                 KEY_INERDS.START# = CN + (SA * 8);

  19597 24 001540   200142 236100                    LDQ     SA,,AUTO
        24 001541   000003 736000                    QLS     3
        24 001542   200143 036100                    ADLQ    CN,,AUTO
        24 001543   000001 756100                    STQ     1,,PR0

     1773    19598    4                 KEY_INERDS.TYPE# = 'P1';

  19598 24 001544   000137 220000 23                 LDX0    CONST_ENTADDR_NIL+15
        24 001545   000000 440100                    SXL0    0,,PR0

     1774    19599    4                 KEY_INERDS.L_CODE# = %PACKED_UNITS;

  19599 24 001546   000003 236100                    LDQ     3,,PR0
        24 001547   000051 376000 25                 ANQ     41
        24 001550   001000 276003                    ORQ     512,DU
        24 001551   000003 756100                    STQ     3,,PR0

     1775    19600    4                 KEY_INERDS.S_CODE# = %PACKED_UNITS;

  19600 24 001552   000003 236100                    LDQ     3,,PR0
        24 001553   000050 376000 25                 ANQ     40
        24 001554   020000 276003                    ORQ     8192,DU
        24 001555   000003 756100                    STQ     3,,PR0
        24 001556   001646 710000 24                 TRA     s:19631

     1776    19601
     1777    19602    4               CASE (%RUNTIME_PACKED_TRAIL_SIGN, %RUNTIME_PACKED_TRAIL_SIGN_EBC);

     1778    19603    4                 KEY_INERDS.START# = CN + (SA * 8);

PL6.E3A0      #006=Z9EN$SORT File=Z9EN.:Z8A6TSI                                  SAT 08/09/97 13:57 Page:322
  19603 24 001557   200142 236100                    LDQ     SA,,AUTO
        24 001560   000003 736000                    QLS     3
        24 001561   200143 036100                    ADLQ    CN,,AUTO
        24 001562   000001 756100                    STQ     1,,PR0

     1779    19604    4                 KEY_INERDS.TYPE# = 'P2';

  19604 24 001563   000140 220000 23                 LDX0    CONST_ENTADDR_NIL+16
        24 001564   000000 440100                    SXL0    0,,PR0

     1780    19605    4                 KEY_INERDS.L_CODE# = %PACKED_UNITS;

  19605 24 001565   000003 236100                    LDQ     3,,PR0
        24 001566   000051 376000 25                 ANQ     41
        24 001567   001000 276003                    ORQ     512,DU
        24 001570   000003 756100                    STQ     3,,PR0

     1781    19606    4                 KEY_INERDS.S_CODE# = %PACKED_UNITS;

  19606 24 001571   000003 236100                    LDQ     3,,PR0
        24 001572   000050 376000 25                 ANQ     40
        24 001573   020000 276003                    ORQ     8192,DU
        24 001574   000003 756100                    STQ     3,,PR0
        24 001575   001646 710000 24                 TRA     s:19631

     1782    19607
     1783    19608    4               CASE (%RUNTIME_PACKED_LEAD_FLOAT);

     1784    19609    4                 KEY_INERDS.START# = CN + (SA * 8);

  19609 24 001576   200142 236100                    LDQ     SA,,AUTO
        24 001577   000003 736000                    QLS     3
        24 001600   200143 036100                    ADLQ    CN,,AUTO
        24 001601   000001 756100                    STQ     1,,PR0

     1785    19610    4                 KEY_INERDS.TYPE# = 'P0';

PL6.E3A0      #006=Z9EN$SORT File=Z9EN.:Z8A6TSI                                  SAT 08/09/97 13:57 Page:323
  19610 24 001602   000141 220000 23                 LDX0    CONST_ENTADDR_NIL+17
        24 001603   000000 440100                    SXL0    0,,PR0

     1786    19611    4                 KEY_INERDS.L_CODE# = %PACKED_UNITS;

  19611 24 001604   000003 236100                    LDQ     3,,PR0
        24 001605   000051 376000 25                 ANQ     41
        24 001606   001000 276003                    ORQ     512,DU
        24 001607   000003 756100                    STQ     3,,PR0

     1787    19612    4                 KEY_INERDS.S_CODE# = %PACKED_UNITS;

  19612 24 001610   000003 236100                    LDQ     3,,PR0
        24 001611   000050 376000 25                 ANQ     40
        24 001612   020000 276003                    ORQ     8192,DU
        24 001613   000003 756100                    STQ     3,,PR0
        24 001614   001646 710000 24                 TRA     s:19631

     1788    19613
     1789    19614    4               CASE (%RUNTIME_EBCDIC_ALPHANUMERIC, %RUNTIME_GBCD_ALPHANUMERIC,

     1790    19615    4                     %RUNTIME_EBCDIC_NO_SIGN, %RUNTIME_EBCDIC_LEAD_SIGN,
     1791    19616    4                     %RUNTIME_EBCDIC_TRAIL_SIGN, %RUNTIME_EBCDIC_LEAD_OVER,
     1792    19617    4                     %RUNTIME_EBCDIC_TRAIL_OVER, %RUNTIME_GBCD_NO_SIGN,
     1793    19618    4                     %RUNTIME_GBCD_LEAD_SIGN, %RUNTIME_GBCD_TRAIL_SIGN,
     1794    19619    4                     %RUNTIME_GBCD_LEAD_OVER, %RUNTIME_GBCD_TRAIL_OVER);
     1795    19620    4                 CALL Z8AE$ERROR (%E$MUST_BE_DISPLAY,

  19620 24 001615   200133 471500                    LDP1    @K$,,AUTO
        24 001616   100000 473500                    LDP3    0,,PR1
        24 001617   300006 634500                    EPPR4   6,,PR3
        24 001620   200150 454500                    STP4    N+4,,AUTO
        24 001621   300005 635500                    EPPR5   5,,PR3
        24 001622   200147 455500                    STP5    N+3,,AUTO
        24 001623   000053 236000 25                 LDQ     43
        24 001624   200146 756100                    STQ     N+2,,AUTO
        24 001625   200146 630500                    EPPR0   N+2,,AUTO
PL6.E3A0      #006=Z9EN$SORT File=Z9EN.:Z8A6TSI                                  SAT 08/09/97 13:57 Page:324
        24 001626   000024 631400 25                 EPPR1   20
        24 001627   000000 701000 xent               TSX1    Z8AE$ERROR
        24 001630   000000 011000                    NOP     0
        24 001631   001646 710000 24                 TRA     s:19631

     1796    19621    4                                  K$ -> LX_ETT_ITEM.LINE,
     1797    19622    4                                  K$ -> LX_ETT_ITEM.COLUMN);
     1798    19623
     1799    19624    4               CASE (ELSE);

     1800    19625    4                 CALL Z8AE$ERROR (%E$ILLEGAL_KEY_TYPE,

  19625 24 001632   200133 471500                    LDP1    @K$,,AUTO
        24 001633   100000 473500                    LDP3    0,,PR1
        24 001634   300006 634500                    EPPR4   6,,PR3
        24 001635   200150 454500                    STP4    N+4,,AUTO
        24 001636   300005 635500                    EPPR5   5,,PR3
        24 001637   200147 455500                    STP5    N+3,,AUTO
        24 001640   000055 236000 25                 LDQ     45
        24 001641   200146 756100                    STQ     N+2,,AUTO
        24 001642   200146 630500                    EPPR0   N+2,,AUTO
        24 001643   000024 631400 25                 EPPR1   20
        24 001644   000000 701000 xent               TSX1    Z8AE$ERROR
        24 001645   000000 011000                    NOP     0

     1801    19626    4                                  K$ -> LX_ETT_ITEM.LINE,
     1802    19627    4                                  K$ -> LX_ETT_ITEM.COLUMN);
     1803    19628
     1804    19629    4             END; /* CASE */

     1805    19630
     1806    19631    3        END CONVERT_KEY;

  19631 24 001646   200132 221300                    LDX1  ! KEY_INERDS+4,,AUTO
        24 001647   000001 702211                    TSX2  ! 1,X1

     1807    19632             %EJECT;
PL6.E3A0      #006=Z9EN$SORT File=Z9EN.:Z8A6TSI                                  SAT 08/09/97 13:57 Page:325
     1808    19633    2        N# = 0;

  19633 24 001650   200107 450100                    STZ     N#,,AUTO

     1809    19634    2        P$ = KEY$ -> LX_LIST.HEAD$;

  19634 24 001651   200103 470500                    LDP0    @KEY$,,AUTO
        24 001652   000000 471500                    LDP1    0,,PR0
        24 001653   100004 236100                    LDQ     4,,PR1
        24 001654   200110 756100                    STQ     P$,,AUTO

     1810    19635
     1811    19636    3        DO I = 1 TO KEY$ -> LX_LIST.COUNT;

  19636 24 001655   000001 235007                    LDA     1,DL
        24 001656   200105 755100                    STA     I,,AUTO
        24 001657   001670 710000 24                 TRA     s:19639+1

     1812    19637    3          N# = N# + P$ -> LX_LIST.TAIL$ -> LX_LIST.COUNT;

  19637 24 001660   200110 470500                    LDP0    P$,,AUTO
        24 001661   000001 471500                    LDP1    1,,PR0
        24 001662   200107 236100                    LDQ     N#,,AUTO
        24 001663   100002 036100                    ADLQ    2,,PR1
        24 001664   200107 756100                    STQ     N#,,AUTO

     1813    19638    3          P$ = P$ -> LX_LIST.LINK;

  19638 24 001665   000007 236100                    LDQ     7,,PR0
        24 001666   200110 756100                    STQ     P$,,AUTO

     1814    19639    3        END; /* DO */

  19639 24 001667   200105 054100                    AOS     I,,AUTO
        24 001670   200103 470500                    LDP0    @KEY$,,AUTO
        24 001671   000000 471500                    LDP1    0,,PR0
        24 001672   200105 236100                    LDQ     I,,AUTO
PL6.E3A0      #006=Z9EN$SORT File=Z9EN.:Z8A6TSI                                  SAT 08/09/97 13:57 Page:326
        24 001673   100002 116100                    CMPQ    2,,PR1
        24 001674   001660 604400 24                 TMOZ    s:19637

     1815    19640
     1816    19641             /* N# Contains the number of keys */
     1817    19642
     1818    19643    2        CALL Z8AT$CREATE_TEMPORARY (%SCALAR, RTN$);

  19643 24 001675   200104 236100                    LDQ     @RTN$,,AUTO
        24 001676   000013 235000 25                 LDA     11
        24 001677   200146 757100                    STAQ    N+2,,AUTO
        24 001700   200146 630500                    EPPR0   N+2,,AUTO
        24 001701   000011 631400 25                 EPPR1   9
        24 001702   000000 701000 xent               TSX1    Z8AT$CREATE_TEMPORARY
        24 001703   000000 011000                    NOP     0

     1819    19644
     1820    19645    2        RTN$ -> SCALAR.B.CLASS = %CLASS_ALPHANUMERIC;

  19645 24 001704   200104 470500                    LDP0    @RTN$,,AUTO
        24 001705   000000 471500                    LDP1    0,,PR0
        24 001706   100003 236100                    LDQ     3,,PR1
        24 001707   000014 376000 25                 ANQ     12
        24 001710   000003 276007                    ORQ     3,DL
        24 001711   100003 756100                    STQ     3,,PR1

     1821    19646    2        RTN$ -> SCALAR.TYPE    = %TYA;

  19646 24 001712   000000 471500                    LDP1    0,,PR0
        24 001713   000010 220003                    LDX0    8,DU
        24 001714   100002 740100                    STX0    2,,PR1

     1822    19647    2        RTN$ -> SCALAR.ADSC.N  = (SIZEC (ZL_KEYS.KEY1) * N#) + 4;

  19647 24 001715   000000 471500                    LDP1    0,,PR0
        24 001716   200107 236100                    LDQ     N#,,AUTO
        24 001717   000004 736000                    QLS     4
PL6.E3A0      #006=Z9EN$SORT File=Z9EN.:Z8A6TSI                                  SAT 08/09/97 13:57 Page:327
        24 001720   000004 036007                    ADLQ    4,DL
        24 001721   100001 752103                    STCQ    1,'03'O,PR1

     1823    19648
     1824    19649             %UBIN_CONST (@VALUE = N#,
     1825    19650                          @RTN$  = N$);

  19652 24 001722   200107 235100                    LDA     N#,,AUTO
        24 001723   000000 755000 9                  STA     MKCN

  19653 24 001724   200112 631500                    EPPR1   N$,,AUTO
        24 001725   200146 451500                    STP1    N+2,,AUTO
        24 001726   200146 630500                    EPPR0   N+2,,AUTO
        24 001727   000001 631400 25                 EPPR1   1
        24 001730   000000 701000 xent               TSX1    Z8AC$MAKE_CONST
        24 001731   000000 011000                    NOP     0

  19654 24 001732   200112 470500                    LDP0    N$,,AUTO
        24 001733   000001 236100                    LDQ     1,,PR0
        24 001734   200112 756100                    STQ     N$,,AUTO

     1826    19657
     1827    19658    2        CALL PRESET (%PREOFF, RTN$, N$, 0);

  19658 24 001735   000007 236000 25                 LDQ     7
        24 001736   200124 756100                    STQ     @ROP+1,,AUTO
        24 001737   200112 630500                    EPPR0   N$,,AUTO
        24 001740   200123 450500                    STP0    @LOP+1,,AUTO
        24 001741   200104 236100                    LDQ     @RTN$,,AUTO
        24 001742   200122 756100                    STQ     CONST$,,AUTO
        24 001743   000021 236000 25                 LDQ     17
        24 001744   200121 756100                    STQ     P$,,AUTO
        24 001745   002020 701000 24                 TSX1    PRESET
        24 001746   000000 011000                    NOP     0

     1828    19659
     1829    19660    2        NEXT = 1;
PL6.E3A0      #006=Z9EN$SORT File=Z9EN.:Z8A6TSI                                  SAT 08/09/97 13:57 Page:328

  19660 24 001747   000001 235007                    LDA     1,DL
        24 001750   200106 755100                    STA     NEXT,,AUTO

     1830    19661    2        P$ = KEY$ -> LX_LIST.HEAD$;

  19661 24 001751   200103 470500                    LDP0    @KEY$,,AUTO
        24 001752   000000 471500                    LDP1    0,,PR0
        24 001753   100004 236100                    LDQ     4,,PR1
        24 001754   200110 756100                    STQ     P$,,AUTO

     1831    19662
     1832    19663    3        DO I = 1 TO KEY$ -> LX_LIST.COUNT;

  19663 24 001755   200105 755100                    STA     I,,AUTO
        24 001756   002011 710000 24                 TRA     s:19676+1

     1833    19664    3          K$ = P$ -> LX_LIST.TAIL$ -> LX_LIST.HEAD$;

  19664 24 001757   200110 470500                    LDP0    P$,,AUTO
        24 001760   000001 471500                    LDP1    1,,PR0
        24 001761   100004 236100                    LDQ     4,,PR1
        24 001762   200111 756100                    STQ     K$,,AUTO

     1834    19665
     1835    19666    4          DO WHILE (K$ ~= ADDR(NIL));

  19666 24 001763   002003 710000 24                 TRA     s:19673

     1836    19667    4            CALL CREATE_KEY (K$,

  19667 24 001764   200110 470500                    LDP0    P$,,AUTO
        24 001765   000004 471500                    LDP1    4,,PR0
        24 001766   200104 236100                    LDQ     @RTN$,,AUTO
        24 001767   200124 756100                    STQ     @ROP+1,,AUTO
        24 001770   200106 633500                    EPPR3   NEXT,,AUTO
        24 001771   200123 453500                    STP3    @LOP+1,,AUTO
PL6.E3A0      #006=Z9EN$SORT File=Z9EN.:Z8A6TSI                                  SAT 08/09/97 13:57 Page:329
        24 001772   100003 634500                    EPPR4   3,,PR1
        24 001773   200122 454500                    STP4    CONST$,,AUTO
        24 001774   200111 631500                    EPPR1   K$,,AUTO
        24 001775   200121 451500                    STP1    P$,,AUTO
        24 001776   001122 701000 24                 TSX1    CREATE_KEY
        24 001777   000000 011000                    NOP     0

     1837    19668    4                             P$ -> LX_LIST.HEAD$ -> LX_TERMINAL.SYMBOL,
     1838    19669    4                             NEXT,
     1839    19670    4                             RTN$);
     1840    19671
     1841    19672    4            K$ = K$ -> LX_ITEM.LINK;

  19672 24 002000   200111 470500                    LDP0    K$,,AUTO
        24 002001   000007 236100                    LDQ     7,,PR0
        24 002002   200111 756100                    STQ     K$,,AUTO

     1842    19673    4          END; /* While */

  19673 24 002003   000000 116000 25                 CMPQ    0
        24 002004   001764 601000 24                 TNZ     s:19667

     1843    19674
     1844    19675    3          P$ = P$ -> LX_LIST.LINK;

  19675 24 002005   200110 470500                    LDP0    P$,,AUTO
        24 002006   000007 236100                    LDQ     7,,PR0
        24 002007   200110 756100                    STQ     P$,,AUTO

     1845    19676    3        END; /* Iterated Do */

  19676 24 002010   200105 054100                    AOS     I,,AUTO
        24 002011   200103 470500                    LDP0    @KEY$,,AUTO
        24 002012   000000 471500                    LDP1    0,,PR0
        24 002013   200105 236100                    LDQ     I,,AUTO
        24 002014   100002 116100                    CMPQ    2,,PR1
        24 002015   001757 604400 24                 TMOZ    s:19664
PL6.E3A0      #006=Z9EN$SORT File=Z9EN.:Z8A6TSI                                  SAT 08/09/97 13:57 Page:330

     1846    19677
     1847    19678    2   END BUILD_ZL_KEY;

  19678 24 002016   200102 221300                    LDX1  ! MERGE_STATEMENT+2,,AUTO
        24 002017   000001 702211                    TSX2  ! 1,X1

     1848    19679        %EJECT;
PL6.E3A0      #006=Z9EN$SORT File=Z9EN.:Z8A6TSI                                  SAT 08/09/97 13:57 Page:331
     1849    19680    1   PRESET: PROC (ID, LOP, ROP, OFF);

  19680 24 002020   200120 741300       PRESET       STX1  ! ALP$+3,,AUTO

     1850    19681
     1851    19682             /*  Preset -- only used for preset, ptr_set, and preoff when
     1852    19683                 N is 1 */
     1853    19684
     1854    19685    2        DCL ID            SBIN;
     1855    19686    2        DCL LOP           PTR;
     1856    19687    2        DCL ROP           PTR;
     1857    19688    2        DCL OFF           SBIN;
     1858    19689
     1859    19690
     1860    19691    3        DO SELECT (ID);

  19691 24 002021   200121 470500                    LDP0    @ID,,AUTO
        24 002022   000000 236100                    LDQ     0,,PR0
        24 002023   000420 116007                    CMPQ    272,DL
        24 002024   002031 604000 24                 TMI     s:19691+8
        24 002025   002113 600000 24                 TZE     s:20693
        24 002026   000422 116007                    CMPQ    274,DL
        24 002027   002144 601000 24                 TNZ     s:20845
        24 002030   002034 710000 24                 TRA     s:19915
        24 002031   000343 116007                    CMPQ    227,DL
        24 002032   002144 601000 24                 TNZ     s:20845
        24 002033   002063 710000 24                 TRA     s:20299

     1861    19692    3          SELECT (%PRESET);

     1862    19693                 %NEW_ILL (@ID      = %PRESET,
     1863    19694                           @LOP     = LOP,
     1864    19695                           @ROP     = ROP);

  19915 24 002034   000043 236000 25                 LDQ     35
        24 002035   200146 756100                    STQ     N+2,,AUTO
        24 002036   200146 631500                    EPPR1   N+2,,AUTO
PL6.E3A0      #006=Z9EN$SORT File=Z9EN.:Z8A6TSI                                  SAT 08/09/97 13:57 Page:332
        24 002037   200153 451500                    STP1    N+7,,AUTO
        24 002040   000044 236000 25                 LDQ     36
        24 002041   200152 756100                    STQ     N+6,,AUTO
        24 002042   000056 237000 25                 LDAQ    46
        24 002043   200150 757100                    STAQ    N+4,,AUTO
        24 002044   200150 630500                    EPPR0   N+4,,AUTO
        24 002045   000004 631400 25                 EPPR1   4
        24 002046   000000 701000 xent               TSX1    Z8AN$NEW_ILL
        24 002047   000000 011000                    NOP     0

  19917 24 002050   000000 220003                    LDX0    0,DU
        24 002051   000000 470400 1                  LDP0    ILL$
        24 002052   000000 440100                    SXL0    0,,PR0

  19921 24 002053   200122 470500                    LDP0    @LOP,,AUTO
        24 002054   000000 236100                    LDQ     0,,PR0
        24 002055   000000 471400 1                  LDP1    ILL$
        24 002056   100001 756100                    STQ     1,,PR1

  19922 24 002057   200123 473500                    LDP3    @ROP,,AUTO
        24 002060   300000 236100                    LDQ     0,,PR3
        24 002061   100002 756100                    STQ     2,,PR1

  20044 24 002062   002144 710000 24                 TRA     s:20845

     1865    20074
     1866    20075    3          SELECT (%PTR_SET);

     1867    20076                 %NEW_ILL (@ID      = %PTR_SET,
     1868    20077                           @LOP     = LOP,
     1869    20078                           @ROP     = ROP,
     1870    20079                           @OFFSET  = OFF);

  20299 24 002063   000043 236000 25                 LDQ     35
        24 002064   200146 756100                    STQ     N+2,,AUTO
        24 002065   200146 631500                    EPPR1   N+2,,AUTO
        24 002066   200153 451500                    STP1    N+7,,AUTO
PL6.E3A0      #006=Z9EN$SORT File=Z9EN.:Z8A6TSI                                  SAT 08/09/97 13:57 Page:333
        24 002067   000044 236000 25                 LDQ     36
        24 002070   200152 756100                    STQ     N+6,,AUTO
        24 002071   000060 237000 25                 LDAQ    48
        24 002072   200150 757100                    STAQ    N+4,,AUTO
        24 002073   200150 630500                    EPPR0   N+4,,AUTO
        24 002074   000004 631400 25                 EPPR1   4
        24 002075   000000 701000 xent               TSX1    Z8AN$NEW_ILL
        24 002076   000000 011000                    NOP     0

  20303 24 002077   200124 470500                    LDP0    @OFF,,AUTO
        24 002100   000000 720100                    LXL0    0,,PR0
        24 002101   000000 471400 1                  LDP1    ILL$
        24 002102   100000 440100                    SXL0    0,,PR1

  20305 24 002103   200122 471500                    LDP1    @LOP,,AUTO
        24 002104   100000 236100                    LDQ     0,,PR1
        24 002105   000000 473400 1                  LDP3    ILL$
        24 002106   300001 756100                    STQ     1,,PR3

  20306 24 002107   200123 474500                    LDP4    @ROP,,AUTO
        24 002110   400000 236100                    LDQ     0,,PR4
        24 002111   300002 756100                    STQ     2,,PR3

  20428 24 002112   002144 710000 24                 TRA     s:20845

     1871    20458
     1872    20459    3          SELECT (%PREOFF);

     1873    20460                 %NEW_ILL (@ID      = %PREOFF,
     1874    20461                           @LOP     = LOP,
     1875    20462                           @ROP     = ROP,
     1876    20463                           @OFFSET  = OFF,
     1877    20464                           @N       = 1);

  20693 24 002113   000043 236000 25                 LDQ     35
        24 002114   200146 756100                    STQ     N+2,,AUTO
        24 002115   200146 631500                    EPPR1   N+2,,AUTO
PL6.E3A0      #006=Z9EN$SORT File=Z9EN.:Z8A6TSI                                  SAT 08/09/97 13:57 Page:334
        24 002116   200153 451500                    STP1    N+7,,AUTO
        24 002117   000044 236000 25                 LDQ     36
        24 002120   200152 756100                    STQ     N+6,,AUTO
        24 002121   000046 237000 25                 LDAQ    38
        24 002122   200150 757100                    STAQ    N+4,,AUTO
        24 002123   200150 630500                    EPPR0   N+4,,AUTO
        24 002124   000004 631400 25                 EPPR1   4
        24 002125   000000 701000 xent               TSX1    Z8AN$NEW_ILL
        24 002126   000000 011000                    NOP     0

  20697 24 002127   200124 470500                    LDP0    @OFF,,AUTO
        24 002130   000000 720100                    LXL0    0,,PR0
        24 002131   000000 471400 1                  LDP1    ILL$
        24 002132   100000 440100                    SXL0    0,,PR1

  20702 24 002133   000001 235007                    LDA     1,DL
        24 002134   000000 471400 1                  LDP1    ILL$
        24 002135   100003 755100                    STA     3,,PR1

  20704 24 002136   200122 473500                    LDP3    @LOP,,AUTO
        24 002137   300000 236100                    LDQ     0,,PR3
        24 002140   100001 756100                    STQ     1,,PR1

  20705 24 002141   200123 474500                    LDP4    @ROP,,AUTO
        24 002142   400000 236100                    LDQ     0,,PR4
        24 002143   100002 756100                    STQ     2,,PR1

     1878    20843
     1879    20844    3        END; /* SELECT */

     1880    20845    2   END PRESET;

  20845 24 002144   200120 221300                    LDX1  ! ALP$+3,,AUTO
        24 002145   000001 702211                    TSX2  ! 1,X1

     1881    20846        %EJECT;
PL6.E3A0      #006=Z9EN$SORT File=Z9EN.:Z8A6TSI                                  SAT 08/09/97 13:57 Page:335
     1882    20847        /*
     1883    20848                               Main Body
     1884    20849        */
     1885    20850    1        MERGE_STATEMENT = %FALSE;

  20850 24 002146   200100 450100                    STZ     MERGE_STATEMENT,,AUTO

     1886    20851
     1887    20852             %FISH (TRIAD = FILE_NAME$ -> LX_ETT_ITEM.ETT$,
     1888    20853                    RTN   = SD$$);

  20855 24 002147   200003 470500                    LDP0    @FILE_NAME$,,AUTO
        24 002150   000000 471500                    LDP1    0,,PR0
        24 002151   100001 236100                    LDQ     1,,PR1
        24 002152   200055 756100                    STQ     SD$$,,AUTO

  20856 24 002153   200055 473500                    LDP3    SD$$,,AUTO
        24 002154   300000 220100                    LDX0    0,,PR3
        24 002155   000751 100003                    CMPX0   489,DU
        24 002156   002166 603000 24                 TRC     s:20866

  20857 24 002157   200055 470500                    LDP0    SD$$,,AUTO
        24 002160   000001 236100                    LDQ     1,,PR0
        24 002161   200055 756100                    STQ     SD$$,,AUTO

  20858 24 002162   200055 470500                    LDP0    SD$$,,AUTO
        24 002163   000000 220100                    LDX0    0,,PR0
        24 002164   000751 100003                    CMPX0   489,DU
        24 002165   002157 602000 24                 TNC     s:20857

     1889    20861
     1890    20862             %GET_LTS( @ID = %FILE_LTS,
     1891    20863                       @ST$ = SD$$,
     1892    20864                       @RETURN$ = FAB$ );

  20866 24 002166   200055 470500                    LDP0    SD$$,,AUTO
        24 002167   000005 236100                    LDQ     5,,PR0
PL6.E3A0      #006=Z9EN$SORT File=Z9EN.:Z8A6TSI                                  SAT 08/09/97 13:57 Page:336
        24 002170   000000 116000 25                 CMPQ    0
        24 002171   002201 600000 24                 TZE     s:20900
        24 002172   000005 471500                    LDP1    5,,PR0
        24 002173   100000 220100                    LDX0    0,,PR1
        24 002174   001105 100003                    CMPX0   581,DU
        24 002175   002201 601000 24                 TNZ     s:20900

  20880 24 002176   100006 236100                    LDQ     6,,PR1
        24 002177   200077 756100                    STQ     FAB$,,AUTO

  20898 24 002200   002213 710000 24                 TRA     s:20909

  20900 24 002201   000000 116000 25                 CMPQ    0
        24 002202   002211 600000 24                 TZE     s:20904
        24 002203   000005 471500                    LDP1    5,,PR0
        24 002204   100000 220100                    LDX0    0,,PR1
        24 002205   001121 100003                    CMPX0   593,DU
        24 002206   002211 601000 24                 TNZ     s:20904

  20902 24 002207   200077 756100                    STQ     FAB$,,AUTO
        24 002210   002213 710000 24                 TRA     s:20909

  20904 24 002211   000000 236000 25                 LDQ     0
        24 002212   200077 756100                    STQ     FAB$,,AUTO

     1893    20907
     1894    20908        /*   CALL BUILD_ZL_FILE (FILE_NAME$, FILE_ST$); */
     1895    20909    1        CALL BUILD_FILE (INPUT_USE_FILES$, ICE_ST$, INPUT_BLOCK$);

  20909 24 002213   200067 631500                    EPPR1   INPUT_BLOCK$,,AUTO
        24 002214   200105 451500                    STP1    @RTN$+1,,AUTO
        24 002215   200073 633500                    EPPR3   ICE_ST$,,AUTO
        24 002216   200104 453500                    STP3    @KEY$+1,,AUTO
        24 002217   200006 236100                    LDQ     @INPUT_USE_FILES$,,AUTO
        24 002220   200103 756100                    STQ     MERGE_STATEMENT+3,,AUTO
        24 002221   000333 701000 24                 TSX1    BUILD_FILE
        24 002222   000000 011000                    NOP     0
PL6.E3A0      #006=Z9EN$SORT File=Z9EN.:Z8A6TSI                                  SAT 08/09/97 13:57 Page:337

     1896    20910    1        CALL BUILD_FILE (OUTPUT_USE_FILES$, OCE_ST$, OUTPUT_BLOCK$);

  20910 24 002223   200070 630500                    EPPR0   OUTPUT_BLOCK$,,AUTO
        24 002224   200105 450500                    STP0    @RTN$+1,,AUTO
        24 002225   200074 631500                    EPPR1   OCE_ST$,,AUTO
        24 002226   200104 451500                    STP1    @KEY$+1,,AUTO
        24 002227   200007 236100                    LDQ     @OUTPUT_USE_FILES$,,AUTO
        24 002230   200103 756100                    STQ     MERGE_STATEMENT+3,,AUTO
        24 002231   000333 701000 24                 TSX1    BUILD_FILE
        24 002232   000000 011000                    NOP     0

     1897    20911    1        CALL BUILD_ZL_XLATE (COLLATING$, ALPHA_ST$);

  20911 24 002233   200071 630500                    EPPR0   ALPHA_ST$,,AUTO
        24 002234   200104 450500                    STP0    @KEY$+1,,AUTO
        24 002235   200005 236100                    LDQ     @COLLATING$,,AUTO
        24 002236   200103 756100                    STQ     MERGE_STATEMENT+3,,AUTO
        24 002237   000617 701000 24                 TSX1    BUILD_ZL_XLATE
        24 002240   000000 011000                    NOP     0

     1898    20912    1        CALL BUILD_ZL_KEY (ASC_DES$, KEYS_ST$);

  20912 24 002241   200072 630500                    EPPR0   KEYS_ST$,,AUTO
        24 002242   200104 450500                    STP0    @KEY$+1,,AUTO
        24 002243   200004 236100                    LDQ     @ASC_DES$,,AUTO
        24 002244   200103 756100                    STQ     MERGE_STATEMENT+3,,AUTO
        24 002245   001120 701000 24                 TSX1    BUILD_ZL_KEY
        24 002246   000000 011000                    NOP     0

     1899    20913    1        CALL BUILD_ZL_7480 ( COBOL80_ST$ );

  20913 24 002247   200065 630500                    EPPR0   COBOL80_ST$,,AUTO
        24 002250   200103 450500                    STP0    MERGE_STATEMENT+3,,AUTO
        24 002251   000003 701000 24                 TSX1    BUILD_ZL_7480
        24 002252   000000 011000                    NOP     0

PL6.E3A0      #006=Z9EN$SORT File=Z9EN.:Z8A6TSI                                  SAT 08/09/97 13:57 Page:338
     1900    20914    1        SD$$ = SD$$ -> SD.QLT$ -> QLT.SON -> QLT.ST$;

  20914 24 002253   200055 470500                    LDP0    SD$$,,AUTO
        24 002254   000007 471500                    LDP1    7,,PR0
        24 002255   100003 473500                    LDP3    3,,PR1
        24 002256   300004 236100                    LDQ     4,,PR3
        24 002257   200055 756100                    STQ     SD$$,,AUTO

     1901    20915
     1902    20916
     1903    20917             %UBIN_CONST (@VALUE = FAB$ -> FILE_LTS.RECORD_CONTAINS.INT_2,
     1904    20918                          @RTN$  = INSIZ_ST$ );

  20920 24 002260   200077 470500                    LDP0    FAB$,,AUTO
        24 002261   000024 235100                    LDA     20,,PR0
        24 002262   000000 755000 9                  STA     MKCN

  20921 24 002263   200063 631500                    EPPR1   INSIZ_ST$,,AUTO
        24 002264   200146 451500                    STP1    N+2,,AUTO
        24 002265   200146 630500                    EPPR0   N+2,,AUTO
        24 002266   000001 631400 25                 EPPR1   1
        24 002267   000000 701000 xent               TSX1    Z8AC$MAKE_CONST
        24 002270   000000 011000                    NOP     0

  20922 24 002271   200063 470500                    LDP0    INSIZ_ST$,,AUTO
        24 002272   000001 236100                    LDQ     1,,PR0
        24 002273   200063 756100                    STQ     INSIZ_ST$,,AUTO

     1905    20925
     1906    20926             %UBIN_CONST (@VALUE = FAB$ -> FILE_LTS.RECORD_CONTAINS.INT_1,
     1907    20927                          @RTN$  = MIN_SIZE_ST$);

  20929 24 002274   200077 470500                    LDP0    FAB$,,AUTO
        24 002275   000023 235100                    LDA     19,,PR0
        24 002276   000000 755000 9                  STA     MKCN

  20930 24 002277   200064 631500                    EPPR1   MIN_SIZE_ST$,,AUTO
PL6.E3A0      #006=Z9EN$SORT File=Z9EN.:Z8A6TSI                                  SAT 08/09/97 13:57 Page:339
        24 002300   200146 451500                    STP1    N+2,,AUTO
        24 002301   200146 630500                    EPPR0   N+2,,AUTO
        24 002302   000001 631400 25                 EPPR1   1
        24 002303   000000 701000 xent               TSX1    Z8AC$MAKE_CONST
        24 002304   000000 011000                    NOP     0

  20931 24 002305   200064 470500                    LDP0    MIN_SIZE_ST$,,AUTO
        24 002306   000001 236100                    LDQ     1,,PR0
        24 002307   200064 756100                    STQ     MIN_SIZE_ST$,,AUTO

     1908    20934
     1909    20935
     1910    20936             /*    Example of how to determin offset of table if it chages  */
     1911    20937
     1912    20938    1        BASE$    = ADDR(CONSTANT_SORT);

  20938 24 002310   000062 236000 25                 LDQ     50
        24 002311   200075 756100                    STQ     BASE$,,AUTO

     1913    20939        /*   INSIZ$ = ADDR(CONSTANT_SORT.PRIMARY.INSIZ#);
     1914    20940
     1915    20941             INSIZ_OFF    = POFFW (INSIZ$, BASE$);   */
     1916    20942
     1917    20943    1        CALL Z8AT$CREATE_TEMPORARY (%SCALAR, SORT_ST$);

  20943 24 002312   200056 630500                    EPPR0   SORT_ST$,,AUTO
        24 002313   200147 450500                    STP0    N+3,,AUTO
        24 002314   000013 236000 25                 LDQ     11
        24 002315   200146 756100                    STQ     N+2,,AUTO
        24 002316   200146 630500                    EPPR0   N+2,,AUTO
        24 002317   000011 631400 25                 EPPR1   9
        24 002320   000000 701000 xent               TSX1    Z8AT$CREATE_TEMPORARY
        24 002321   000000 011000                    NOP     0

     1918    20944
     1919    20945    1        SORT_ST$ -> SCALAR.TYPE    = %TYA;

PL6.E3A0      #006=Z9EN$SORT File=Z9EN.:Z8A6TSI                                  SAT 08/09/97 13:57 Page:340
  20945 24 002322   000010 220003                    LDX0    8,DU
        24 002323   200056 470500                    LDP0    SORT_ST$,,AUTO
        24 002324   000002 740100                    STX0    2,,PR0

     1920    20946    1        SORT_ST$ -> SCALAR.B.CLASS = %CLASS_ALPHANUMERIC;

  20946 24 002325   200056 470500                    LDP0    SORT_ST$,,AUTO
        24 002326   000003 236100                    LDQ     3,,PR0
        24 002327   000014 376000 25                 ANQ     12
        24 002330   000003 276007                    ORQ     3,DL
        24 002331   000003 756100                    STQ     3,,PR0

     1921    20947    1        SORT_ST$ -> SCALAR.ADSC.N  = SIZEC (CONSTANT_SORT);

  20947 24 002332   200056 470500                    LDP0    SORT_ST$,,AUTO
        24 002333   000220 236007                    LDQ     144,DL
        24 002334   000001 752103                    STCQ    1,'03'O,PR0

     1922    20948
     1923    20949    2        DO I = 0 TO SIZEW (CONSTANT_SORT);

  20949 24 002335   200021 450100                    STZ     I,,AUTO
        24 002336   002631 710000 24                 TRA     s:21003+1

     1924    20950    3          DO CASE ( I );

  20950 24 002337   200021 235100                    LDA     I,,AUTO
        24 002340   000034 115007                    CMPA    28,DL
        24 002341   002343 602005 24                 TNC     s:20950+4,AL
        24 002342   002576 710000 24                 TRA     s:20989
        24 002343   002377 710000 24                 TRA     s:20952
        24 002344   002576 710000 24                 TRA     s:20989
        24 002345   002412 710000 24                 TRA     s:20955
        24 002346   002576 710000 24                 TRA     s:20989
        24 002347   002425 710000 24                 TRA     s:20962
        24 002350   002440 710000 24                 TRA     s:20965
        24 002351   002576 710000 24                 TRA     s:20989
PL6.E3A0      #006=Z9EN$SORT File=Z9EN.:Z8A6TSI                                  SAT 08/09/97 13:57 Page:341
        24 002352   002453 710000 24                 TRA     s:20968
        24 002353   002466 710000 24                 TRA     s:20971
        24 002354   002576 710000 24                 TRA     s:20989
        24 002355   002576 710000 24                 TRA     s:20989
        24 002356   002576 710000 24                 TRA     s:20989
        24 002357   002576 710000 24                 TRA     s:20989
        24 002360   002576 710000 24                 TRA     s:20989
        24 002361   002501 710000 24                 TRA     s:20974
        24 002362   002576 710000 24                 TRA     s:20989
        24 002363   002576 710000 24                 TRA     s:20989
        24 002364   002576 710000 24                 TRA     s:20989
        24 002365   002576 710000 24                 TRA     s:20989
        24 002366   002576 710000 24                 TRA     s:20989
        24 002367   002576 710000 24                 TRA     s:20989
        24 002370   002576 710000 24                 TRA     s:20989
        24 002371   002576 710000 24                 TRA     s:20989
        24 002372   002576 710000 24                 TRA     s:20989
        24 002373   002576 710000 24                 TRA     s:20989
        24 002374   002576 710000 24                 TRA     s:20989
        24 002375   002514 710000 24                 TRA     s:20977
        24 002376   002545 710000 24                 TRA     s:20984

     1925    20951    3            CASE( %MAX_SIZE_OFF );

     1926    20952    3              CALL PRESET (%PREOFF, SORT_ST$, INSIZ_ST$, %MAX_SIZE_OFF);

  20952 24 002377   000007 236000 25                 LDQ     7
        24 002400   200124 756100                    STQ     @ROP+1,,AUTO
        24 002401   200063 630500                    EPPR0   INSIZ_ST$,,AUTO
        24 002402   200123 450500                    STP0    @LOP+1,,AUTO
        24 002403   200056 631500                    EPPR1   SORT_ST$,,AUTO
        24 002404   200122 451500                    STP1    @ID+1,,AUTO
        24 002405   000021 236000 25                 LDQ     17
        24 002406   200121 756100                    STQ     ALP$+4,,AUTO
        24 002407   002020 701000 24                 TSX1    PRESET
        24 002410   000000 011000                    NOP     0
        24 002411   002630 710000 24                 TRA     s:21003
PL6.E3A0      #006=Z9EN$SORT File=Z9EN.:Z8A6TSI                                  SAT 08/09/97 13:57 Page:342

     1927    20953
     1928    20954    3            CASE( %MIN_SIZE_OFF );

     1929    20955    3              CALL PRESET (%PREOFF, SORT_ST$, MIN_SIZE_ST$, %MIN_SIZE_OFF);

  20955 24 002412   000040 236000 25                 LDQ     32
        24 002413   200124 756100                    STQ     @ROP+1,,AUTO
        24 002414   200064 630500                    EPPR0   MIN_SIZE_ST$,,AUTO
        24 002415   200123 450500                    STP0    @LOP+1,,AUTO
        24 002416   200056 631500                    EPPR1   SORT_ST$,,AUTO
        24 002417   200122 451500                    STP1    @ID+1,,AUTO
        24 002420   000021 236000 25                 LDQ     17
        24 002421   200121 756100                    STQ     ALP$+4,,AUTO
        24 002422   002020 701000 24                 TSX1    PRESET
        24 002423   000000 011000                    NOP     0
        24 002424   002630 710000 24                 TRA     s:21003

     1930    20956
     1931    20957
     1932    20958            /*    CASE ( %COLLATE_OFF );
     1933    20959                   CALL PRESET (%PTR_SET, SORT_ST$, FILE_ST$, %COLLATE_OFF); */
     1934    20960
     1935    20961    3            CASE ( %KEYS_OFF );

     1936    20962    3              CALL PRESET (%PTR_SET, SORT_ST$, KEYS_ST$, %KEYS_OFF);

  20962 24 002425   000034 236000 25                 LDQ     28
        24 002426   200124 756100                    STQ     @ROP+1,,AUTO
        24 002427   200072 630500                    EPPR0   KEYS_ST$,,AUTO
        24 002430   200123 450500                    STP0    @LOP+1,,AUTO
        24 002431   200056 631500                    EPPR1   SORT_ST$,,AUTO
        24 002432   200122 451500                    STP1    @ID+1,,AUTO
        24 002433   000023 236000 25                 LDQ     19
        24 002434   200121 756100                    STQ     ALP$+4,,AUTO
        24 002435   002020 701000 24                 TSX1    PRESET
        24 002436   000000 011000                    NOP     0
PL6.E3A0      #006=Z9EN$SORT File=Z9EN.:Z8A6TSI                                  SAT 08/09/97 13:57 Page:343
        24 002437   002630 710000 24                 TRA     s:21003

     1937    20963
     1938    20964    3            CASE ( %XLATE_OFF );

     1939    20965    3              CALL PRESET (%PTR_SET, SORT_ST$, ALPHA_ST$, %XLATE_OFF);

  20965 24 002440   000064 236000 25                 LDQ     52
        24 002441   200124 756100                    STQ     @ROP+1,,AUTO
        24 002442   200071 630500                    EPPR0   ALPHA_ST$,,AUTO
        24 002443   200123 450500                    STP0    @LOP+1,,AUTO
        24 002444   200056 631500                    EPPR1   SORT_ST$,,AUTO
        24 002445   200122 451500                    STP1    @ID+1,,AUTO
        24 002446   000023 236000 25                 LDQ     19
        24 002447   200121 756100                    STQ     ALP$+4,,AUTO
        24 002450   002020 701000 24                 TSX1    PRESET
        24 002451   000000 011000                    NOP     0
        24 002452   002630 710000 24                 TRA     s:21003

     1940    20966
     1941    20967    3            CASE ( %INPUT_OFF );

     1942    20968    3              CALL PRESET (%PTR_SET, SORT_ST$, INPUT_BLOCK$, %INPUT_OFF);

  20968 24 002453   000066 236000 25                 LDQ     54
        24 002454   200124 756100                    STQ     @ROP+1,,AUTO
        24 002455   200067 630500                    EPPR0   INPUT_BLOCK$,,AUTO
        24 002456   200123 450500                    STP0    @LOP+1,,AUTO
        24 002457   200056 631500                    EPPR1   SORT_ST$,,AUTO
        24 002460   200122 451500                    STP1    @ID+1,,AUTO
        24 002461   000023 236000 25                 LDQ     19
        24 002462   200121 756100                    STQ     ALP$+4,,AUTO
        24 002463   002020 701000 24                 TSX1    PRESET
        24 002464   000000 011000                    NOP     0
        24 002465   002630 710000 24                 TRA     s:21003

     1943    20969
PL6.E3A0      #006=Z9EN$SORT File=Z9EN.:Z8A6TSI                                  SAT 08/09/97 13:57 Page:344
     1944    20970    3            CASE ( %OUTPUT_OFF );

     1945    20971    3              CALL PRESET (%PTR_SET, SORT_ST$, OUTPUT_BLOCK$, %OUTPUT_OFF);

  20971 24 002466   000070 236000 25                 LDQ     56
        24 002467   200124 756100                    STQ     @ROP+1,,AUTO
        24 002470   200070 630500                    EPPR0   OUTPUT_BLOCK$,,AUTO
        24 002471   200123 450500                    STP0    @LOP+1,,AUTO
        24 002472   200056 631500                    EPPR1   SORT_ST$,,AUTO
        24 002473   200122 451500                    STP1    @ID+1,,AUTO
        24 002474   000023 236000 25                 LDQ     19
        24 002475   200121 756100                    STQ     ALP$+4,,AUTO
        24 002476   002020 701000 24                 TSX1    PRESET
        24 002477   000000 011000                    NOP     0
        24 002500   002630 710000 24                 TRA     s:21003

     1946    20972
     1947    20973    3            CASE ( %COBOL80_OFF );

     1948    20974    3              CALL PRESET (%PREOFF, SORT_ST$, COBOL80_ST$, %COBOL80_OFF);

  20974 24 002501   000072 236000 25                 LDQ     58
        24 002502   200124 756100                    STQ     @ROP+1,,AUTO
        24 002503   200065 630500                    EPPR0   COBOL80_ST$,,AUTO
        24 002504   200123 450500                    STP0    @LOP+1,,AUTO
        24 002505   200056 631500                    EPPR1   SORT_ST$,,AUTO
        24 002506   200122 451500                    STP1    @ID+1,,AUTO
        24 002507   000021 236000 25                 LDQ     17
        24 002510   200121 756100                    STQ     ALP$+4,,AUTO
        24 002511   002020 701000 24                 TSX1    PRESET
        24 002512   000000 011000                    NOP     0
        24 002513   002630 710000 24                 TRA     s:21003

     1949    20975
     1950    20976    3            CASE ( %ICE_OFF );

     1951    20977    3              IF INPUT_BLOCK$ ~= ADDR(NIL) THEN
PL6.E3A0      #006=Z9EN$SORT File=Z9EN.:Z8A6TSI                                  SAT 08/09/97 13:57 Page:345

  20977 24 002514   200067 236100                    LDQ     INPUT_BLOCK$,,AUTO
        24 002515   000000 116000 25                 CMPQ    0
        24 002516   002532 600000 24                 TZE     s:20980

     1952    20978    3                CALL PRESET (%PREOFF, SORT_ST$, ICE_ST$, %ICE_OFF);

  20978 24 002517   000074 236000 25                 LDQ     60
        24 002520   200124 756100                    STQ     @ROP+1,,AUTO
        24 002521   200073 630500                    EPPR0   ICE_ST$,,AUTO
        24 002522   200123 450500                    STP0    @LOP+1,,AUTO
        24 002523   200056 631500                    EPPR1   SORT_ST$,,AUTO
        24 002524   200122 451500                    STP1    @ID+1,,AUTO
        24 002525   000021 236000 25                 LDQ     17
        24 002526   200121 756100                    STQ     ALP$+4,,AUTO
        24 002527   002020 701000 24                 TSX1    PRESET
        24 002530   000000 011000                    NOP     0
        24 002531   002630 710000 24                 TRA     s:21003

     1953    20979    3              ELSE
     1954    20980    3                CALL PRESET (%PTR_SET, SORT_ST$, ICE_ST$, %ICE_OFF);

  20980 24 002532   000074 236000 25                 LDQ     60
        24 002533   200124 756100                    STQ     @ROP+1,,AUTO
        24 002534   200073 630500                    EPPR0   ICE_ST$,,AUTO
        24 002535   200123 450500                    STP0    @LOP+1,,AUTO
        24 002536   200056 631500                    EPPR1   SORT_ST$,,AUTO
        24 002537   200122 451500                    STP1    @ID+1,,AUTO
        24 002540   000023 236000 25                 LDQ     19
        24 002541   200121 756100                    STQ     ALP$+4,,AUTO
        24 002542   002020 701000 24                 TSX1    PRESET
        24 002543   000000 011000                    NOP     0
        24 002544   002630 710000 24                 TRA     s:21003

     1955    20981
     1956    20982
     1957    20983    3            CASE ( %OCE_OFF );
PL6.E3A0      #006=Z9EN$SORT File=Z9EN.:Z8A6TSI                                  SAT 08/09/97 13:57 Page:346

     1958    20984    3              IF OUTPUT_BLOCK$ ~= ADDR(NIL) THEN

  20984 24 002545   200070 236100                    LDQ     OUTPUT_BLOCK$,,AUTO
        24 002546   000000 116000 25                 CMPQ    0
        24 002547   002563 600000 24                 TZE     s:20987

     1959    20985    3                CALL PRESET (%PREOFF, SORT_ST$, OCE_ST$, %OCE_OFF);

  20985 24 002550   000076 236000 25                 LDQ     62
        24 002551   200124 756100                    STQ     @ROP+1,,AUTO
        24 002552   200074 630500                    EPPR0   OCE_ST$,,AUTO
        24 002553   200123 450500                    STP0    @LOP+1,,AUTO
        24 002554   200056 631500                    EPPR1   SORT_ST$,,AUTO
        24 002555   200122 451500                    STP1    @ID+1,,AUTO
        24 002556   000021 236000 25                 LDQ     17
        24 002557   200121 756100                    STQ     ALP$+4,,AUTO
        24 002560   002020 701000 24                 TSX1    PRESET
        24 002561   000000 011000                    NOP     0
        24 002562   002630 710000 24                 TRA     s:21003

     1960    20986    3              ELSE
     1961    20987    3                CALL PRESET (%PTR_SET, SORT_ST$, OCE_ST$, %OCE_OFF);

  20987 24 002563   000076 236000 25                 LDQ     62
        24 002564   200124 756100                    STQ     @ROP+1,,AUTO
        24 002565   200074 630500                    EPPR0   OCE_ST$,,AUTO
        24 002566   200123 450500                    STP0    @LOP+1,,AUTO
        24 002567   200056 631500                    EPPR1   SORT_ST$,,AUTO
        24 002570   200122 451500                    STP1    @ID+1,,AUTO
        24 002571   000023 236000 25                 LDQ     19
        24 002572   200121 756100                    STQ     ALP$+4,,AUTO
        24 002573   002020 701000 24                 TSX1    PRESET
        24 002574   000000 011000                    NOP     0
        24 002575   002630 710000 24                 TRA     s:21003

     1962    20988    3            CASE ( ELSE );
PL6.E3A0      #006=Z9EN$SORT File=Z9EN.:Z8A6TSI                                  SAT 08/09/97 13:57 Page:347

     1963    20989    3              P$ = PINCRW (BASE$, I);

  20989 24 002576   200021 236100                    LDQ     I,,AUTO
        24 002577   000022 736000                    QLS     18
        24 002600   200075 036100                    ADLQ    BASE$,,AUTO
        24 002601   200076 756100                    STQ     P$,,AUTO

     1964    20990                   %UBIN_CONST (@VALUE = P$ -> UBIN_CONST, @RTN$ = CONST$);

  20992 24 002602   200076 470500                    LDP0    P$,,AUTO
        24 002603   000000 235100                    LDA     0,,PR0
        24 002604   000000 755000 9                  STA     MKCN

  20993 24 002605   200062 631500                    EPPR1   CONST$,,AUTO
        24 002606   200146 451500                    STP1    N+2,,AUTO
        24 002607   200146 630500                    EPPR0   N+2,,AUTO
        24 002610   000001 631400 25                 EPPR1   1
        24 002611   000000 701000 xent               TSX1    Z8AC$MAKE_CONST
        24 002612   000000 011000                    NOP     0

  20994 24 002613   200062 470500                    LDP0    CONST$,,AUTO
        24 002614   000001 236100                    LDQ     1,,PR0
        24 002615   200062 756100                    STQ     CONST$,,AUTO

     1965    20997
     1966    20998    3              CALL PRESET (%PREOFF, SORT_ST$, CONST$, I);

  20998 24 002616   200021 630500                    EPPR0   I,,AUTO
        24 002617   200124 450500                    STP0    @ROP+1,,AUTO
        24 002620   200062 631500                    EPPR1   CONST$,,AUTO
        24 002621   200123 451500                    STP1    @LOP+1,,AUTO
        24 002622   200056 633500                    EPPR3   SORT_ST$,,AUTO
        24 002623   200122 453500                    STP3    @ID+1,,AUTO
        24 002624   000021 236000 25                 LDQ     17
        24 002625   200121 756100                    STQ     ALP$+4,,AUTO
        24 002626   002020 701000 24                 TSX1    PRESET
PL6.E3A0      #006=Z9EN$SORT File=Z9EN.:Z8A6TSI                                  SAT 08/09/97 13:57 Page:348
        24 002627   000000 011000                    NOP     0

     1967    20999
     1968    21000    3         END;                               /*   CASE  I   */

     1969    21001
     1970    21002
     1971    21003    2        END; /* Iterated Do */

  21003 24 002630   200021 054100                    AOS     I,,AUTO
        24 002631   200021 235100                    LDA     I,,AUTO
        24 002632   000044 115007                    CMPA    36,DL
        24 002633   002337 604400 24                 TMOZ    s:20950

     1972    21004
     1973    21005             /* New ill for os_call */
     1974    21006    1        CALL Z8EU$CREATE_IDENTIFIER_FROM_ST (SORT_ST$,

  21006 24 002634   200024 630500                    EPPR0   PSORT,,AUTO
        24 002635   200146 450500                    STP0    N+2,,AUTO
        24 002636   200146 631500                    EPPR1   N+2,,AUTO
        24 002637   200151 451500                    STP1    N+5,,AUTO
        24 002640   200056 633500                    EPPR3   SORT_ST$,,AUTO
        24 002641   200150 453500                    STP3    N+4,,AUTO
        24 002642   200150 630500                    EPPR0   N+4,,AUTO
        24 002643   000011 631400 25                 EPPR1   9
        24 002644   000000 701000 xent               TSX1    Z8EU$CREATE_IDENTIFIER_FROM_ST
        24 002645   000000 011000                    NOP     0

     1975    21007    1                                              ADDR(PSORT));
     1976    21008
     1977    21009    1        CALL Z9EY$BUILD_RUNTIME_DESCRIPTOR (ADDR(PSORT),

  21009 24 002646   200024 630500                    EPPR0   PSORT,,AUTO
        24 002647   200146 450500                    STP0    N+2,,AUTO
        24 002650   000036 236000 25                 LDQ     30
        24 002651   200151 756100                    STQ     N+5,,AUTO
PL6.E3A0      #006=Z9EN$SORT File=Z9EN.:Z8A6TSI                                  SAT 08/09/97 13:57 Page:349
        24 002652   200060 631500                    EPPR1   RT_DESC_LIST$,,AUTO
        24 002653   200150 451500                    STP1    N+4,,AUTO
        24 002654   200146 633500                    EPPR3   N+2,,AUTO
        24 002655   200147 453500                    STP3    N+3,,AUTO
        24 002656   200147 630500                    EPPR0   N+3,,AUTO
        24 002657   000024 631400 25                 EPPR1   20
        24 002660   000000 701000 xent               TSX1    Z9EY$BUILD_RUNTIME_DESCRIPTOR
        24 002661   000000 011000                    NOP     0

     1978    21010    1                                            RT_DESC_LIST$,
     1979    21011    1                                            1);
     1980    21012
     1981    21013    1        CALL Z8EY$BUILD_RUNTIME_ARGLIST (ADDR(PSORT),

  21013 24 002662   200024 630500                    EPPR0   PSORT,,AUTO
        24 002663   200146 450500                    STP0    N+2,,AUTO
        24 002664   000036 236000 25                 LDQ     30
        24 002665   200151 756100                    STQ     N+5,,AUTO
        24 002666   200061 631500                    EPPR1   RT_ARG_LIST$,,AUTO
        24 002667   200150 451500                    STP1    N+4,,AUTO
        24 002670   200146 633500                    EPPR3   N+2,,AUTO
        24 002671   200147 453500                    STP3    N+3,,AUTO
        24 002672   200147 630500                    EPPR0   N+3,,AUTO
        24 002673   000024 631400 25                 EPPR1   20
        24 002674   000000 701000 xent               TSX1    Z8EY$BUILD_RUNTIME_ARGLIST
        24 002675   000000 011000                    NOP     0

     1982    21014    1                                         RT_ARG_LIST$,
     1983    21015    1                                         1);
     1984    21016
     1985    21017        /*   %NEW_ILL (@ID       = %OS_CALL,
     1986    21018                       @CODE     = %OP_SORT,
     1987    21019                       @ROP      = RT_DESC_LIST$,
     1988    21020                       @LOP      = RT_ARG_LIST$);     */
     1989    21021
     1990    21022    1        CALL Z8EO$NEW_SYMREF (%LIB_SORT_PROC_NAME,

PL6.E3A0      #006=Z9EN$SORT File=Z9EN.:Z8A6TSI                                  SAT 08/09/97 13:57 Page:350
  21022 24 002676   200076 630500                    EPPR0   P$,,AUTO
        24 002677   200150 450500                    STP0    N+4,,AUTO
        24 002700   000100 237000 25                 LDAQ    64
        24 002701   200146 757100                    STAQ    N+2,,AUTO
        24 002702   200146 630500                    EPPR0   N+2,,AUTO
        24 002703   000024 631400 25                 EPPR1   20
        24 002704   000000 701000 xent               TSX1    Z8EO$NEW_SYMREF
        24 002705   000000 011000                    NOP     0

     1991    21023    1                              %LIB_SORT_PROC_NAME_LENGTH,
     1992    21024    1                              P$);
     1993    21025
     1994    21026             %NEW_ILL (@ID           = %USER_CALL,
     1995    21027                       @ROP          = RT_DESC_LIST$,
     1996    21028                       @LOP          = RT_ARG_LIST$,
     1997    21029                       @DESTINATION$ = P$);

  21137 24 002706   000043 236000 25                 LDQ     35
        24 002707   200146 756100                    STQ     N+2,,AUTO
        24 002710   200146 630500                    EPPR0   N+2,,AUTO
        24 002711   200153 450500                    STP0    N+7,,AUTO
        24 002712   000044 236000 25                 LDQ     36
        24 002713   200152 756100                    STQ     N+6,,AUTO
        24 002714   000104 237000 25                 LDAQ    68
        24 002715   200150 757100                    STAQ    N+4,,AUTO
        24 002716   200150 630500                    EPPR0   N+4,,AUTO
        24 002717   000004 631400 25                 EPPR1   4
        24 002720   000000 701000 xent               TSX1    Z8AN$NEW_ILL
        24 002721   000000 011000                    NOP     0

  21138 24 002722   200061 236100                    LDQ     RT_ARG_LIST$,,AUTO
        24 002723   000000 470400 1                  LDP0    ILL$
        24 002724   000001 756100                    STQ     1,,PR0

  21139 24 002725   200060 236100                    LDQ     RT_DESC_LIST$,,AUTO
        24 002726   000002 756100                    STQ     2,,PR0

PL6.E3A0      #006=Z9EN$SORT File=Z9EN.:Z8A6TSI                                  SAT 08/09/97 13:57 Page:351
  21140 24 002727   200076 236100                    LDQ     P$,,AUTO
        24 002730   000005 756100                    STQ     5,,PR0

  21141 24 002731   000000 236000 25                 LDQ     0
        24 002732   000003 756100                    STQ     3,,PR0

  21143 24 002733   000004 756100                    STQ     4,,PR0

     1998    21408
     1999    21409
     2000    21410    1        RETURN;

  21410 24 002734   000000 702200 xent               TSX2  ! X66_ARET

     2001    21411        %EJECT;
PL6.E3A0      #006=Z9EN$SORT File=Z9EN.:Z8A6TSI                                  SAT 08/09/97 13:57 Page:352
     2002    21412    1   Z9EN$MERGE : ENTRY (FILE_NAME$,

  21412 24 002735   000000 700200 xent  Z9EN$MERGE   TSX0  ! X66_AUTO_5
        24 002736   000154 000005                    ZERO    108,5

     2003    21413    1                       ASC_DES$,
     2004    21414    1                       COLLATING$,
     2005    21415    1                       INPUT_USE_FILES$,
     2006    21416    1                       OUTPUT_USE_FILES$);
     2007    21417        /*
     2008    21418
     2009    21419                               Z9EN$MERGE
     2010    21420
     2011    21421        */
     2012    21422    1        MERGE_STATEMENT = %TRUE;

  21422 24 002737   400000 236003                    LDQ     -131072,DU
        24 002740   200100 756100                    STQ     MERGE_STATEMENT,,AUTO

     2013    21423
     2014    21424             %FISH (TRIAD = FILE_NAME$ -> LX_ETT_ITEM.ETT$,
     2015    21425                    RTN   = SD$$);

  21427 24 002741   200003 470500                    LDP0    @FILE_NAME$,,AUTO
        24 002742   000000 471500                    LDP1    0,,PR0
        24 002743   100001 236100                    LDQ     1,,PR1
        24 002744   200055 756100                    STQ     SD$$,,AUTO

  21428 24 002745   200055 473500                    LDP3    SD$$,,AUTO
        24 002746   300000 220100                    LDX0    0,,PR3
        24 002747   000751 100003                    CMPX0   489,DU
        24 002750   002760 603000 24                 TRC     s:21438

  21429 24 002751   200055 470500                    LDP0    SD$$,,AUTO
        24 002752   000001 236100                    LDQ     1,,PR0
        24 002753   200055 756100                    STQ     SD$$,,AUTO

PL6.E3A0      #006=Z9EN$SORT File=Z9EN.:Z8A6TSI                                  SAT 08/09/97 13:57 Page:353
  21430 24 002754   200055 470500                    LDP0    SD$$,,AUTO
        24 002755   000000 220100                    LDX0    0,,PR0
        24 002756   000751 100003                    CMPX0   489,DU
        24 002757   002751 602000 24                 TNC     s:21429

     2016    21433
     2017    21434             %GET_LTS( @ID = %FILE_LTS,
     2018    21435                       @ST$ = SD$$,
     2019    21436                       @RETURN$ = FAB$);

  21438 24 002760   200055 470500                    LDP0    SD$$,,AUTO
        24 002761   000005 236100                    LDQ     5,,PR0
        24 002762   000000 116000 25                 CMPQ    0
        24 002763   002773 600000 24                 TZE     s:21472
        24 002764   000005 471500                    LDP1    5,,PR0
        24 002765   100000 220100                    LDX0    0,,PR1
        24 002766   001105 100003                    CMPX0   581,DU
        24 002767   002773 601000 24                 TNZ     s:21472

  21452 24 002770   100006 236100                    LDQ     6,,PR1
        24 002771   200077 756100                    STQ     FAB$,,AUTO

  21470 24 002772   003005 710000 24                 TRA     s:21479

  21472 24 002773   000000 116000 25                 CMPQ    0
        24 002774   003003 600000 24                 TZE     s:21476
        24 002775   000005 471500                    LDP1    5,,PR0
        24 002776   100000 220100                    LDX0    0,,PR1
        24 002777   001121 100003                    CMPX0   593,DU
        24 003000   003003 601000 24                 TNZ     s:21476

  21474 24 003001   200077 756100                    STQ     FAB$,,AUTO
        24 003002   003005 710000 24                 TRA     s:21479

  21476 24 003003   000000 236000 25                 LDQ     0
        24 003004   200077 756100                    STQ     FAB$,,AUTO

PL6.E3A0      #006=Z9EN$SORT File=Z9EN.:Z8A6TSI                                  SAT 08/09/97 13:57 Page:354
     2020    21479    1        FAB$ -> FILE_LTS.B.MERGE_STATEMENT = %TRUE;

  21479 24 003005   200077 471500                    LDP1    FAB$,,AUTO
        24 003006   000200 236007                    LDQ     128,DL
        24 003007   100017 256100                    ORSQ    15,,PR1

     2021    21480
     2022    21481    1        CALL BUILD_FILE (INPUT_USE_FILES$, ICE_ST$, INPUT_BLOCK$);

  21481 24 003010   200067 633500                    EPPR3   INPUT_BLOCK$,,AUTO
        24 003011   200105 453500                    STP3    @RTN$+1,,AUTO
        24 003012   200073 634500                    EPPR4   ICE_ST$,,AUTO
        24 003013   200104 454500                    STP4    @KEY$+1,,AUTO
        24 003014   200006 236100                    LDQ     @INPUT_USE_FILES$,,AUTO
        24 003015   200103 756100                    STQ     MERGE_STATEMENT+3,,AUTO
        24 003016   000333 701000 24                 TSX1    BUILD_FILE
        24 003017   000000 011000                    NOP     0

     2023    21482    1        CALL BUILD_FILE (OUTPUT_USE_FILES$, OCE_ST$, OUTPUT_BLOCK$);

  21482 24 003020   200070 630500                    EPPR0   OUTPUT_BLOCK$,,AUTO
        24 003021   200105 450500                    STP0    @RTN$+1,,AUTO
        24 003022   200074 631500                    EPPR1   OCE_ST$,,AUTO
        24 003023   200104 451500                    STP1    @KEY$+1,,AUTO
        24 003024   200007 236100                    LDQ     @OUTPUT_USE_FILES$,,AUTO
        24 003025   200103 756100                    STQ     MERGE_STATEMENT+3,,AUTO
        24 003026   000333 701000 24                 TSX1    BUILD_FILE
        24 003027   000000 011000                    NOP     0

     2024    21483    1        CALL BUILD_ZL_XLATE (COLLATING$, ALPHA_ST$);

  21483 24 003030   200071 630500                    EPPR0   ALPHA_ST$,,AUTO
        24 003031   200104 450500                    STP0    @KEY$+1,,AUTO
        24 003032   200005 236100                    LDQ     @COLLATING$,,AUTO
        24 003033   200103 756100                    STQ     MERGE_STATEMENT+3,,AUTO
        24 003034   000617 701000 24                 TSX1    BUILD_ZL_XLATE
        24 003035   000000 011000                    NOP     0
PL6.E3A0      #006=Z9EN$SORT File=Z9EN.:Z8A6TSI                                  SAT 08/09/97 13:57 Page:355

     2025    21484    1        CALL BUILD_ZL_KEY (ASC_DES$, KEYS_ST$);

  21484 24 003036   200072 630500                    EPPR0   KEYS_ST$,,AUTO
        24 003037   200104 450500                    STP0    @KEY$+1,,AUTO
        24 003040   200004 236100                    LDQ     @ASC_DES$,,AUTO
        24 003041   200103 756100                    STQ     MERGE_STATEMENT+3,,AUTO
        24 003042   001120 701000 24                 TSX1    BUILD_ZL_KEY
        24 003043   000000 011000                    NOP     0

     2026    21485    1        CALL BUILD_ZL_7480 ( COBOL80_ST$ );

  21485 24 003044   200065 630500                    EPPR0   COBOL80_ST$,,AUTO
        24 003045   200103 450500                    STP0    MERGE_STATEMENT+3,,AUTO
        24 003046   000003 701000 24                 TSX1    BUILD_ZL_7480
        24 003047   000000 011000                    NOP     0

     2027    21486
     2028    21487    1        FAB$ -> FILE_LTS.B.MERGE_STATEMENT = %FALSE;

  21487 24 003050   200077 470500                    LDP0    FAB$,,AUTO
        24 003051   000017 236000 25                 LDQ     15
        24 003052   000017 356100                    ANSQ    15,,PR0

     2029    21488    1        CALL RESTORE_MERGE_FLAGS(INPUT_USE_FILES$);

  21488 24 003053   200006 236100                    LDQ     @INPUT_USE_FILES$,,AUTO
        24 003054   200103 756100                    STQ     MERGE_STATEMENT+3,,AUTO
        24 003055   000230 701000 24                 TSX1    RESTORE_MERGE_FLAGS
        24 003056   000000 011000                    NOP     0

     2030    21489    1        CALL RESTORE_MERGE_FLAGS(OUTPUT_USE_FILES$);

  21489 24 003057   200007 236100                    LDQ     @OUTPUT_USE_FILES$,,AUTO
        24 003060   200103 756100                    STQ     MERGE_STATEMENT+3,,AUTO
        24 003061   000230 701000 24                 TSX1    RESTORE_MERGE_FLAGS
        24 003062   000000 011000                    NOP     0
PL6.E3A0      #006=Z9EN$SORT File=Z9EN.:Z8A6TSI                                  SAT 08/09/97 13:57 Page:356

     2031    21490
     2032    21491    1        SD$$ = SD$$ -> SD.QLT$ -> QLT.SON -> QLT.ST$;

  21491 24 003063   200055 470500                    LDP0    SD$$,,AUTO
        24 003064   000007 471500                    LDP1    7,,PR0
        24 003065   100003 473500                    LDP3    3,,PR1
        24 003066   300004 236100                    LDQ     4,,PR3
        24 003067   200055 756100                    STQ     SD$$,,AUTO

     2033    21492
     2034    21493             %GET_ADSC_LEN (ST$ = SD$$,
     2035    21494                            RTN = LEN);

  21496 24 003070   200055 470500                    LDP0    SD$$,,AUTO
        24 003071   000003 236100                    LDQ     3,,PR0
        24 003072   004000 316003                    CANQ    2048,DU
        24 003073   003107 600000 24                 TZE     s:21502

  21497 24 003074   000005 471500                    LDP1    5,,PR0
        24 003075   100000 220100                    LDX0    0,,PR1
        24 003076   001105 100003                    CMPX0   581,DU
        24 003077   003104 601000 24                 TNZ     s:21500

  21498 24 003100   100003 473500                    LDP3    3,,PR1
        24 003101   300001 235100                    LDA     1,,PR3
        24 003102   200022 755100                    STA     LEN,,AUTO
        24 003103   003112 710000 24                 TRA     s:21508

  21500 24 003104   100001 235100                    LDA     1,,PR1
        24 003105   200022 755100                    STA     LEN,,AUTO
        24 003106   003112 710000 24                 TRA     s:21508

  21502 24 003107   000001 236100                    LDQ     1,,PR0
        24 003110   007777 376007                    ANQ     4095,DL
        24 003111   200022 756100                    STQ     LEN,,AUTO

PL6.E3A0      #006=Z9EN$SORT File=Z9EN.:Z8A6TSI                                  SAT 08/09/97 13:57 Page:357
     2036    21505
     2037    21506             %UBIN_CONST (@VALUE = LEN, @RTN$ = INSIZ_ST$);

  21508 24 003112   200022 235100                    LDA     LEN,,AUTO
        24 003113   000000 755000 9                  STA     MKCN

  21509 24 003114   200063 631500                    EPPR1   INSIZ_ST$,,AUTO
        24 003115   200146 451500                    STP1    N+2,,AUTO
        24 003116   200146 630500                    EPPR0   N+2,,AUTO
        24 003117   000001 631400 25                 EPPR1   1
        24 003120   000000 701000 xent               TSX1    Z8AC$MAKE_CONST
        24 003121   000000 011000                    NOP     0

  21510 24 003122   200063 470500                    LDP0    INSIZ_ST$,,AUTO
        24 003123   000001 236100                    LDQ     1,,PR0
        24 003124   200063 756100                    STQ     INSIZ_ST$,,AUTO

     2038    21513
     2039    21514             %UBIN_CONST (@VALUE = FAB$ -> FILE_LTS.RECORD_CONTAINS.INT_1,
     2040    21515                          @RTN$  = MIN_SIZE_ST$);

  21517 24 003125   200077 470500                    LDP0    FAB$,,AUTO
        24 003126   000023 235100                    LDA     19,,PR0
        24 003127   000000 755000 9                  STA     MKCN

  21518 24 003130   200064 631500                    EPPR1   MIN_SIZE_ST$,,AUTO
        24 003131   200146 451500                    STP1    N+2,,AUTO
        24 003132   200146 630500                    EPPR0   N+2,,AUTO
        24 003133   000001 631400 25                 EPPR1   1
        24 003134   000000 701000 xent               TSX1    Z8AC$MAKE_CONST
        24 003135   000000 011000                    NOP     0

  21519 24 003136   200064 470500                    LDP0    MIN_SIZE_ST$,,AUTO
        24 003137   000001 236100                    LDQ     1,,PR0
        24 003140   200064 756100                    STQ     MIN_SIZE_ST$,,AUTO

     2041    21522
PL6.E3A0      #006=Z9EN$SORT File=Z9EN.:Z8A6TSI                                  SAT 08/09/97 13:57 Page:358
     2042    21523             /*    Example of how to determine offset of table if it changes  */
     2043    21524
     2044    21525    1        BASE$    = ADDR(CONSTANT_MERGE);

  21525 24 003141   000103 236000 25                 LDQ     67
        24 003142   200075 756100                    STQ     BASE$,,AUTO

     2045    21526        /*   INSIZ$ = ADDR(CONSTANT_MERGE.PRIMARY.INSIZ#);
     2046    21527
     2047    21528             INSIZ_OFF    = POFFW (INSIZ$, BASE$);   */
     2048    21529
     2049    21530    1        CALL Z8AT$CREATE_TEMPORARY (%SCALAR, MERGE_ST$);

  21530 24 003143   200057 630500                    EPPR0   MERGE_ST$,,AUTO
        24 003144   200147 450500                    STP0    N+3,,AUTO
        24 003145   000013 236000 25                 LDQ     11
        24 003146   200146 756100                    STQ     N+2,,AUTO
        24 003147   200146 630500                    EPPR0   N+2,,AUTO
        24 003150   000011 631400 25                 EPPR1   9
        24 003151   000000 701000 xent               TSX1    Z8AT$CREATE_TEMPORARY
        24 003152   000000 011000                    NOP     0

     2050    21531
     2051    21532    1        MERGE_ST$ -> SCALAR.B.CLASS = %CLASS_ALPHANUMERIC;

  21532 24 003153   200057 470500                    LDP0    MERGE_ST$,,AUTO
        24 003154   000003 236100                    LDQ     3,,PR0
        24 003155   000014 376000 25                 ANQ     12
        24 003156   000003 276007                    ORQ     3,DL
        24 003157   000003 756100                    STQ     3,,PR0

     2052    21533    1        MERGE_ST$ -> SCALAR.TYPE    = %TYA;

  21533 24 003160   000010 220003                    LDX0    8,DU
        24 003161   200057 470500                    LDP0    MERGE_ST$,,AUTO
        24 003162   000002 740100                    STX0    2,,PR0

PL6.E3A0      #006=Z9EN$SORT File=Z9EN.:Z8A6TSI                                  SAT 08/09/97 13:57 Page:359
     2053    21534    1        MERGE_ST$ -> SCALAR.ADSC.N  = SIZEC (CONSTANT_MERGE);

  21534 24 003163   200057 470500                    LDP0    MERGE_ST$,,AUTO
        24 003164   000220 236007                    LDQ     144,DL
        24 003165   000001 752103                    STCQ    1,'03'O,PR0

     2054    21535
     2055    21536    2        DO I = 0 TO SIZEW (CONSTANT_SORT);

  21536 24 003166   200021 450100                    STZ     I,,AUTO
        24 003167   003431 710000 24                 TRA     s:21580+1

     2056    21537    3          DO CASE ( I );

  21537 24 003170   200021 235100                    LDA     I,,AUTO
        24 003171   000034 115007                    CMPA    28,DL
        24 003172   003174 602005 24                 TNC     s:21537+4,AL
        24 003173   003376 710000 24                 TRA     s:21566
        24 003174   003230 710000 24                 TRA     s:21539
        24 003175   003376 710000 24                 TRA     s:21566
        24 003176   003243 710000 24                 TRA     s:21542
        24 003177   003376 710000 24                 TRA     s:21566
        24 003200   003256 710000 24                 TRA     s:21545
        24 003201   003271 710000 24                 TRA     s:21548
        24 003202   003376 710000 24                 TRA     s:21566
        24 003203   003304 710000 24                 TRA     s:21551
        24 003204   003317 710000 24                 TRA     s:21554
        24 003205   003376 710000 24                 TRA     s:21566
        24 003206   003376 710000 24                 TRA     s:21566
        24 003207   003376 710000 24                 TRA     s:21566
        24 003210   003376 710000 24                 TRA     s:21566
        24 003211   003376 710000 24                 TRA     s:21566
        24 003212   003332 710000 24                 TRA     s:21557
        24 003213   003376 710000 24                 TRA     s:21566
        24 003214   003376 710000 24                 TRA     s:21566
        24 003215   003376 710000 24                 TRA     s:21566
        24 003216   003376 710000 24                 TRA     s:21566
PL6.E3A0      #006=Z9EN$SORT File=Z9EN.:Z8A6TSI                                  SAT 08/09/97 13:57 Page:360
        24 003217   003376 710000 24                 TRA     s:21566
        24 003220   003376 710000 24                 TRA     s:21566
        24 003221   003376 710000 24                 TRA     s:21566
        24 003222   003376 710000 24                 TRA     s:21566
        24 003223   003376 710000 24                 TRA     s:21566
        24 003224   003376 710000 24                 TRA     s:21566
        24 003225   003376 710000 24                 TRA     s:21566
        24 003226   003376 710000 24                 TRA     s:21566
        24 003227   003345 710000 24                 TRA     s:21561

     2057    21538    3            CASE( %MAX_SIZE_OFF );

     2058    21539    3              CALL PRESET (%PREOFF, MERGE_ST$, INSIZ_ST$, %MAX_SIZE_OFF);

  21539 24 003230   000007 236000 25                 LDQ     7
        24 003231   200124 756100                    STQ     @ROP+1,,AUTO
        24 003232   200063 630500                    EPPR0   INSIZ_ST$,,AUTO
        24 003233   200123 450500                    STP0    @LOP+1,,AUTO
        24 003234   200057 631500                    EPPR1   MERGE_ST$,,AUTO
        24 003235   200122 451500                    STP1    @ID+1,,AUTO
        24 003236   000021 236000 25                 LDQ     17
        24 003237   200121 756100                    STQ     ALP$+4,,AUTO
        24 003240   002020 701000 24                 TSX1    PRESET
        24 003241   000000 011000                    NOP     0
        24 003242   003430 710000 24                 TRA     s:21580

     2059    21540
     2060    21541    3            CASE ( %MIN_SIZE_OFF );

     2061    21542    3              CALL PRESET (%PREOFF, MERGE_ST$, MIN_SIZE_ST$, %MIN_SIZE_OFF);

  21542 24 003243   000040 236000 25                 LDQ     32
        24 003244   200124 756100                    STQ     @ROP+1,,AUTO
        24 003245   200064 630500                    EPPR0   MIN_SIZE_ST$,,AUTO
        24 003246   200123 450500                    STP0    @LOP+1,,AUTO
        24 003247   200057 631500                    EPPR1   MERGE_ST$,,AUTO
        24 003250   200122 451500                    STP1    @ID+1,,AUTO
PL6.E3A0      #006=Z9EN$SORT File=Z9EN.:Z8A6TSI                                  SAT 08/09/97 13:57 Page:361
        24 003251   000021 236000 25                 LDQ     17
        24 003252   200121 756100                    STQ     ALP$+4,,AUTO
        24 003253   002020 701000 24                 TSX1    PRESET
        24 003254   000000 011000                    NOP     0
        24 003255   003430 710000 24                 TRA     s:21580

     2062    21543
     2063    21544    3            CASE ( %KEYS_OFF );

     2064    21545    3              CALL PRESET (%PTR_SET, MERGE_ST$, KEYS_ST$, %KEYS_OFF);

  21545 24 003256   000034 236000 25                 LDQ     28
        24 003257   200124 756100                    STQ     @ROP+1,,AUTO
        24 003260   200072 630500                    EPPR0   KEYS_ST$,,AUTO
        24 003261   200123 450500                    STP0    @LOP+1,,AUTO
        24 003262   200057 631500                    EPPR1   MERGE_ST$,,AUTO
        24 003263   200122 451500                    STP1    @ID+1,,AUTO
        24 003264   000023 236000 25                 LDQ     19
        24 003265   200121 756100                    STQ     ALP$+4,,AUTO
        24 003266   002020 701000 24                 TSX1    PRESET
        24 003267   000000 011000                    NOP     0
        24 003270   003430 710000 24                 TRA     s:21580

     2065    21546
     2066    21547    3            CASE ( %XLATE_OFF );

     2067    21548    3              CALL PRESET (%PTR_SET, MERGE_ST$, ALPHA_ST$, %XLATE_OFF);

  21548 24 003271   000064 236000 25                 LDQ     52
        24 003272   200124 756100                    STQ     @ROP+1,,AUTO
        24 003273   200071 630500                    EPPR0   ALPHA_ST$,,AUTO
        24 003274   200123 450500                    STP0    @LOP+1,,AUTO
        24 003275   200057 631500                    EPPR1   MERGE_ST$,,AUTO
        24 003276   200122 451500                    STP1    @ID+1,,AUTO
        24 003277   000023 236000 25                 LDQ     19
        24 003300   200121 756100                    STQ     ALP$+4,,AUTO
        24 003301   002020 701000 24                 TSX1    PRESET
PL6.E3A0      #006=Z9EN$SORT File=Z9EN.:Z8A6TSI                                  SAT 08/09/97 13:57 Page:362
        24 003302   000000 011000                    NOP     0
        24 003303   003430 710000 24                 TRA     s:21580

     2068    21549
     2069    21550    3            CASE ( %INPUT_OFF );

     2070    21551    3              CALL PRESET (%PTR_SET, MERGE_ST$, INPUT_BLOCK$, %INPUT_OFF);

  21551 24 003304   000066 236000 25                 LDQ     54
        24 003305   200124 756100                    STQ     @ROP+1,,AUTO
        24 003306   200067 630500                    EPPR0   INPUT_BLOCK$,,AUTO
        24 003307   200123 450500                    STP0    @LOP+1,,AUTO
        24 003310   200057 631500                    EPPR1   MERGE_ST$,,AUTO
        24 003311   200122 451500                    STP1    @ID+1,,AUTO
        24 003312   000023 236000 25                 LDQ     19
        24 003313   200121 756100                    STQ     ALP$+4,,AUTO
        24 003314   002020 701000 24                 TSX1    PRESET
        24 003315   000000 011000                    NOP     0
        24 003316   003430 710000 24                 TRA     s:21580

     2071    21552
     2072    21553    3            CASE ( %OUTPUT_OFF );

     2073    21554    3              CALL PRESET (%PTR_SET, MERGE_ST$, OUTPUT_BLOCK$, %OUTPUT_OFF);

  21554 24 003317   000070 236000 25                 LDQ     56
        24 003320   200124 756100                    STQ     @ROP+1,,AUTO
        24 003321   200070 630500                    EPPR0   OUTPUT_BLOCK$,,AUTO
        24 003322   200123 450500                    STP0    @LOP+1,,AUTO
        24 003323   200057 631500                    EPPR1   MERGE_ST$,,AUTO
        24 003324   200122 451500                    STP1    @ID+1,,AUTO
        24 003325   000023 236000 25                 LDQ     19
        24 003326   200121 756100                    STQ     ALP$+4,,AUTO
        24 003327   002020 701000 24                 TSX1    PRESET
        24 003330   000000 011000                    NOP     0
        24 003331   003430 710000 24                 TRA     s:21580

PL6.E3A0      #006=Z9EN$SORT File=Z9EN.:Z8A6TSI                                  SAT 08/09/97 13:57 Page:363
     2074    21555
     2075    21556    3            CASE ( %COBOL80_OFF );

     2076    21557    3              CALL PRESET (%PREOFF, MERGE_ST$, COBOL80_ST$, %COBOL80_OFF);

  21557 24 003332   000072 236000 25                 LDQ     58
        24 003333   200124 756100                    STQ     @ROP+1,,AUTO
        24 003334   200065 630500                    EPPR0   COBOL80_ST$,,AUTO
        24 003335   200123 450500                    STP0    @LOP+1,,AUTO
        24 003336   200057 631500                    EPPR1   MERGE_ST$,,AUTO
        24 003337   200122 451500                    STP1    @ID+1,,AUTO
        24 003340   000021 236000 25                 LDQ     17
        24 003341   200121 756100                    STQ     ALP$+4,,AUTO
        24 003342   002020 701000 24                 TSX1    PRESET
        24 003343   000000 011000                    NOP     0
        24 003344   003430 710000 24                 TRA     s:21580

     2077    21558
     2078    21559
     2079    21560    3            CASE ( %OCE_OFF );

     2080    21561    3              IF OUTPUT_BLOCK$ ~= ADDR(NIL) THEN

  21561 24 003345   200070 236100                    LDQ     OUTPUT_BLOCK$,,AUTO
        24 003346   000000 116000 25                 CMPQ    0
        24 003347   003363 600000 24                 TZE     s:21564

     2081    21562    3                CALL PRESET (%PREOFF, MERGE_ST$, OCE_ST$, %OCE_OFF);

  21562 24 003350   000076 236000 25                 LDQ     62
        24 003351   200124 756100                    STQ     @ROP+1,,AUTO
        24 003352   200074 630500                    EPPR0   OCE_ST$,,AUTO
        24 003353   200123 450500                    STP0    @LOP+1,,AUTO
        24 003354   200057 631500                    EPPR1   MERGE_ST$,,AUTO
        24 003355   200122 451500                    STP1    @ID+1,,AUTO
        24 003356   000021 236000 25                 LDQ     17
        24 003357   200121 756100                    STQ     ALP$+4,,AUTO
PL6.E3A0      #006=Z9EN$SORT File=Z9EN.:Z8A6TSI                                  SAT 08/09/97 13:57 Page:364
        24 003360   002020 701000 24                 TSX1    PRESET
        24 003361   000000 011000                    NOP     0
        24 003362   003430 710000 24                 TRA     s:21580

     2082    21563    3              ELSE
     2083    21564    3                CALL PRESET (%PTR_SET, MERGE_ST$, OCE_ST$, %OCE_OFF);

  21564 24 003363   000076 236000 25                 LDQ     62
        24 003364   200124 756100                    STQ     @ROP+1,,AUTO
        24 003365   200074 630500                    EPPR0   OCE_ST$,,AUTO
        24 003366   200123 450500                    STP0    @LOP+1,,AUTO
        24 003367   200057 631500                    EPPR1   MERGE_ST$,,AUTO
        24 003370   200122 451500                    STP1    @ID+1,,AUTO
        24 003371   000023 236000 25                 LDQ     19
        24 003372   200121 756100                    STQ     ALP$+4,,AUTO
        24 003373   002020 701000 24                 TSX1    PRESET
        24 003374   000000 011000                    NOP     0
        24 003375   003430 710000 24                 TRA     s:21580

     2084    21565    3            CASE ( ELSE );

     2085    21566    3              P$ = PINCRW (BASE$, I);

  21566 24 003376   200021 236100                    LDQ     I,,AUTO
        24 003377   000022 736000                    QLS     18
        24 003400   200075 036100                    ADLQ    BASE$,,AUTO
        24 003401   200076 756100                    STQ     P$,,AUTO

     2086    21567                   %UBIN_CONST (@VALUE = P$ -> UBIN_CONST, @RTN$ = CONST$);

  21569 24 003402   200076 470500                    LDP0    P$,,AUTO
        24 003403   000000 235100                    LDA     0,,PR0
        24 003404   000000 755000 9                  STA     MKCN

  21570 24 003405   200062 631500                    EPPR1   CONST$,,AUTO
        24 003406   200146 451500                    STP1    N+2,,AUTO
        24 003407   200146 630500                    EPPR0   N+2,,AUTO
PL6.E3A0      #006=Z9EN$SORT File=Z9EN.:Z8A6TSI                                  SAT 08/09/97 13:57 Page:365
        24 003410   000001 631400 25                 EPPR1   1
        24 003411   000000 701000 xent               TSX1    Z8AC$MAKE_CONST
        24 003412   000000 011000                    NOP     0

  21571 24 003413   200062 470500                    LDP0    CONST$,,AUTO
        24 003414   000001 236100                    LDQ     1,,PR0
        24 003415   200062 756100                    STQ     CONST$,,AUTO

     2087    21574
     2088    21575    3              CALL PRESET (%PREOFF, MERGE_ST$, CONST$, I);

  21575 24 003416   200021 630500                    EPPR0   I,,AUTO
        24 003417   200124 450500                    STP0    @ROP+1,,AUTO
        24 003420   200062 631500                    EPPR1   CONST$,,AUTO
        24 003421   200123 451500                    STP1    @LOP+1,,AUTO
        24 003422   200057 633500                    EPPR3   MERGE_ST$,,AUTO
        24 003423   200122 453500                    STP3    @ID+1,,AUTO
        24 003424   000021 236000 25                 LDQ     17
        24 003425   200121 756100                    STQ     ALP$+4,,AUTO
        24 003426   002020 701000 24                 TSX1    PRESET
        24 003427   000000 011000                    NOP     0

     2089    21576
     2090    21577    3         END;                               /*   CASE  I   */

     2091    21578
     2092    21579
     2093    21580    2        END; /* Iterated Do */

  21580 24 003430   200021 054100                    AOS     I,,AUTO
        24 003431   200021 235100                    LDA     I,,AUTO
        24 003432   000044 115007                    CMPA    36,DL
        24 003433   003170 604400 24                 TMOZ    s:21537

     2094    21581
     2095    21582             /* New ill for os_call */
     2096    21583    1        CALL Z8EU$CREATE_IDENTIFIER_FROM_ST (MERGE_ST$,
PL6.E3A0      #006=Z9EN$SORT File=Z9EN.:Z8A6TSI                                  SAT 08/09/97 13:57 Page:366

  21583 24 003434   200034 630500                    EPPR0   PMERGE,,AUTO
        24 003435   200146 450500                    STP0    N+2,,AUTO
        24 003436   200146 631500                    EPPR1   N+2,,AUTO
        24 003437   200151 451500                    STP1    N+5,,AUTO
        24 003440   200057 633500                    EPPR3   MERGE_ST$,,AUTO
        24 003441   200150 453500                    STP3    N+4,,AUTO
        24 003442   200150 630500                    EPPR0   N+4,,AUTO
        24 003443   000011 631400 25                 EPPR1   9
        24 003444   000000 701000 xent               TSX1    Z8EU$CREATE_IDENTIFIER_FROM_ST
        24 003445   000000 011000                    NOP     0

     2097    21584    1                                             ADDR(PMERGE));
     2098    21585
     2099    21586    1        CALL Z9EY$BUILD_RUNTIME_DESCRIPTOR (ADDR(PMERGE),

  21586 24 003446   200034 630500                    EPPR0   PMERGE,,AUTO
        24 003447   200146 450500                    STP0    N+2,,AUTO
        24 003450   000036 236000 25                 LDQ     30
        24 003451   200151 756100                    STQ     N+5,,AUTO
        24 003452   200060 631500                    EPPR1   RT_DESC_LIST$,,AUTO
        24 003453   200150 451500                    STP1    N+4,,AUTO
        24 003454   200146 633500                    EPPR3   N+2,,AUTO
        24 003455   200147 453500                    STP3    N+3,,AUTO
        24 003456   200147 630500                    EPPR0   N+3,,AUTO
        24 003457   000024 631400 25                 EPPR1   20
        24 003460   000000 701000 xent               TSX1    Z9EY$BUILD_RUNTIME_DESCRIPTOR
        24 003461   000000 011000                    NOP     0

     2100    21587    1                                            RT_DESC_LIST$,
     2101    21588    1                                            1);
     2102    21589
     2103    21590    1        CALL Z8EY$BUILD_RUNTIME_ARGLIST (ADDR(PMERGE),

  21590 24 003462   200034 630500                    EPPR0   PMERGE,,AUTO
        24 003463   200146 450500                    STP0    N+2,,AUTO
        24 003464   000036 236000 25                 LDQ     30
PL6.E3A0      #006=Z9EN$SORT File=Z9EN.:Z8A6TSI                                  SAT 08/09/97 13:57 Page:367
        24 003465   200151 756100                    STQ     N+5,,AUTO
        24 003466   200061 631500                    EPPR1   RT_ARG_LIST$,,AUTO
        24 003467   200150 451500                    STP1    N+4,,AUTO
        24 003470   200146 633500                    EPPR3   N+2,,AUTO
        24 003471   200147 453500                    STP3    N+3,,AUTO
        24 003472   200147 630500                    EPPR0   N+3,,AUTO
        24 003473   000024 631400 25                 EPPR1   20
        24 003474   000000 701000 xent               TSX1    Z8EY$BUILD_RUNTIME_ARGLIST
        24 003475   000000 011000                    NOP     0

     2104    21591    1                                         RT_ARG_LIST$,
     2105    21592    1                                         1);
     2106    21593
     2107    21594        /*   %NEW_ILL (@ID     = %OS_CALL,
     2108    21595                       @CODE   = %OP_MERGE,
     2109    21596                       @ROP    = RT_DESC_LIST$,
     2110    21597                       @LOP    = RT_ARG_LIST$);       */
     2111    21598
     2112    21599
     2113    21600    1        CALL Z8EO$NEW_SYMREF (%LIB_MERGE_PROC_NAME,

  21600 24 003476   200076 630500                    EPPR0   P$,,AUTO
        24 003477   200150 450500                    STP0    N+4,,AUTO
        24 003500   000110 237000 25                 LDAQ    72
        24 003501   200146 757100                    STAQ    N+2,,AUTO
        24 003502   200146 630500                    EPPR0   N+2,,AUTO
        24 003503   000024 631400 25                 EPPR1   20
        24 003504   000000 701000 xent               TSX1    Z8EO$NEW_SYMREF
        24 003505   000000 011000                    NOP     0

     2114    21601    1                              %LIB_MERGE_PROC_NAME_LENGTH,
     2115    21602    1                              P$);
     2116    21603
     2117    21604             %NEW_ILL (@ID           = %USER_CALL,
     2118    21605                       @ROP          = RT_DESC_LIST$,
     2119    21606                       @LOP          = RT_ARG_LIST$,
     2120    21607                       @DESTINATION$ = P$);
PL6.E3A0      #006=Z9EN$SORT File=Z9EN.:Z8A6TSI                                  SAT 08/09/97 13:57 Page:368

  21715 24 003506   000043 236000 25                 LDQ     35
        24 003507   200146 756100                    STQ     N+2,,AUTO
        24 003510   200146 630500                    EPPR0   N+2,,AUTO
        24 003511   200153 450500                    STP0    N+7,,AUTO
        24 003512   000044 236000 25                 LDQ     36
        24 003513   200152 756100                    STQ     N+6,,AUTO
        24 003514   000104 237000 25                 LDAQ    68
        24 003515   200150 757100                    STAQ    N+4,,AUTO
        24 003516   200150 630500                    EPPR0   N+4,,AUTO
        24 003517   000004 631400 25                 EPPR1   4
        24 003520   000000 701000 xent               TSX1    Z8AN$NEW_ILL
        24 003521   000000 011000                    NOP     0

  21716 24 003522   200061 236100                    LDQ     RT_ARG_LIST$,,AUTO
        24 003523   000000 470400 1                  LDP0    ILL$
        24 003524   000001 756100                    STQ     1,,PR0

  21717 24 003525   200060 236100                    LDQ     RT_DESC_LIST$,,AUTO
        24 003526   000002 756100                    STQ     2,,PR0

  21718 24 003527   200076 236100                    LDQ     P$,,AUTO
        24 003530   000005 756100                    STQ     5,,PR0

  21719 24 003531   000000 236000 25                 LDQ     0
        24 003532   000003 756100                    STQ     3,,PR0

  21721 24 003533   000004 756100                    STQ     4,,PR0

     2121    21986
     2122    21987    1        RETURN;

  21987 24 003534   000000 702200 xent               TSX2  ! X66_ARET
     2123    21988
     2124    21989    1   END Z9EN$SORT;
     2125    21990        %EOD;

PL6.E3A0      #006=Z9EN$SORT File=Z9EN.:Z8A6TSI                                  SAT 08/09/97 13:57 Page:369
--  Include file information  --

   Z8E_NEW_ILL.:Z8A6TOU  is referenced.
   Z8E_MACROS.:Z8A6TOU  cannot be made into a system file and is referenced.
   Z8E_WINDOW.:Z8A6TOU  is referenced.
   Z8E_O1COM.:Z8A6TOU  cannot be made into a system file and is referenced.
   Z8A_LEX_SYMB.:Z8A6TOU  cannot be made into a system file and is referenced.
   Z8E_STACKS.:Z8A6TOU  cannot be made into a system file and is referenced.
   X9A_MACROS.:X8A6TOU  is referenced.
   X9A_IO.:X8A6TOU  is referenced.
   Z8A_ERR_NUMS.:Z8A6TOU  is referenced.
   Z8A_TYPES.:Z8A6TOU  is referenced.
   Z8A_ETT.:Z8A6TOU  cannot be made into a system file and is referenced.
   Z8A_LTS.:Z8A6TOU  cannot be made into a system file and is referenced.
   Z8A_QLT.:Z8A6TOU  cannot be made into a system file and is referenced.
   Z8A_LIBRARY.:Z8A6TOU  cannot be made into a system file and is referenced.
   Z8A_MKCN.:Z8A6TOU  cannot be made into a system file and is referenced.
   Z8A_ST.:Z8A6TOU  cannot be made into a system file and is referenced.
   Z8A_DNT.:Z8A6TOU  cannot be made into a system file and is referenced.
   Z8A_ILL.:Z8A6TOU  cannot be made into a system file and is referenced.
   Z8A_COMCOM.:Z8A6TOU  cannot be made into a system file and is referenced.
   X8A_COM_MACS.:X8A6TOU  is referenced.
   Z8A_NAMES.:Z8A6TOU  is referenced.
   Z8A_SUPP_MAC.:Z8A6TOU  is referenced.
   Z8A_DEFC.:Z8A6TOU  cannot be made into a system file and is referenced.
   ZL_MACRO_C.:LIBRARY  is referenced.
      No diagnostics issued in procedure Z9EN$SORT.
PL6.E3A0      #006=Z9EN$SORT File=Z9EN.:Z8A6TSI                                  SAT 08/09/97 13:57 Page:370

 **** Variables and constants ****

  ****  Section 000 LblCom ITERATION

  ****  Scalars and arrays  ****
OctLoc.c.b A Datatyp(siz) R M Lvl/name                 OctLoc.c.b A Datatyp(siz) R M Lvl/name

     0-0-0/w SBIN              1 ITERATION

  ****  Section 001 LblCom ILL$

  ****  Scalars and arrays  ****
OctLoc.c.b A Datatyp(siz) R M Lvl/name                 OctLoc.c.b A Datatyp(siz) R M Lvl/name

     0-0-0/w PTR         r     1 ILL$

  ****  Section 002 LblCom ILL_

  ****  Scalars and arrays  ****
OctLoc.c.b A Datatyp(siz) R M Lvl/name                 OctLoc.c.b A Datatyp(siz) R M Lvl/name

     0-0-0/w STRC(180)         1 ILL_

  ****  Section 003 LblCom DNT$

  ****  Scalars and arrays  ****
OctLoc.c.b A Datatyp(siz) R M Lvl/name                 OctLoc.c.b A Datatyp(siz) R M Lvl/name

     0-0-0/w PTR         r     1 DNT$

  ****  Section 004 LblCom DNT_

  ****  Scalars and arrays  ****
OctLoc.c.b A Datatyp(siz) R M Lvl/name                 OctLoc.c.b A Datatyp(siz) R M Lvl/name

     0-0-0/w STRC(180)         1 DNT_

PL6.E3A0      #006=Z9EN$SORT File=Z9EN.:Z8A6TSI                                  SAT 08/09/97 13:57 Page:371
  ****  Section 005 LblCom DNT_BUCKET_NUMBER

  ****  Scalars and arrays  ****
OctLoc.c.b A Datatyp(siz) R M Lvl/name                 OctLoc.c.b A Datatyp(siz) R M Lvl/name

     0-0-0/w UBIN              1 DNT_BUCKET_NUMBER

  ****  Section 006 LblCom DNT_OF_1$

  ****  Scalars and arrays  ****
OctLoc.c.b A Datatyp(siz) R M Lvl/name                 OctLoc.c.b A Datatyp(siz) R M Lvl/name

     0-0-0/w PTR               1 DNT_OF_1$

  ****  Section 007 LblCom ST$

  ****  Scalars and arrays  ****
OctLoc.c.b A Datatyp(siz) R M Lvl/name                 OctLoc.c.b A Datatyp(siz) R M Lvl/name

     0-0-0/w PTR         r     1 ST$

  ****  Section 008 LblCom ST_

  ****  Scalars and arrays  ****
OctLoc.c.b A Datatyp(siz) R M Lvl/name                 OctLoc.c.b A Datatyp(siz) R M Lvl/name

     0-0-0/w STRC(180)   r     1 ST_

  ****  Section 009 LblCom MKCN

  ****  Scalars and arrays  ****
OctLoc.c.b A Datatyp(siz) R M Lvl/name                 OctLoc.c.b A Datatyp(siz) R M Lvl/name

     0-0-0/w STRC(72)    r     1 MKCN

  ****  Section 010 LblCom QLT$

PL6.E3A0      #006=Z9EN$SORT File=Z9EN.:Z8A6TSI                                  SAT 08/09/97 13:57 Page:372
  ****  Scalars and arrays  ****
OctLoc.c.b A Datatyp(siz) R M Lvl/name                 OctLoc.c.b A Datatyp(siz) R M Lvl/name

     0-0-0/w PTR         r     1 QLT$

  ****  Section 011 LblCom PREV_01_QLT$

  ****  Scalars and arrays  ****
OctLoc.c.b A Datatyp(siz) R M Lvl/name                 OctLoc.c.b A Datatyp(siz) R M Lvl/name

     0-0-0/w PTR               1 PREV_01_QLT$

  ****  Section 012 LblCom QLT_

  ****  Scalars and arrays  ****
OctLoc.c.b A Datatyp(siz) R M Lvl/name                 OctLoc.c.b A Datatyp(siz) R M Lvl/name

     0-0-0/w STRC(180)         1 QLT_

  ****  Section 013 LblCom LTS$

  ****  Scalars and arrays  ****
OctLoc.c.b A Datatyp(siz) R M Lvl/name                 OctLoc.c.b A Datatyp(siz) R M Lvl/name

     0-0-0/w PTR               1 LONG_ITEM$                 0-0-0/w PTR         r     1 LTS$

  ****  Section 014 LblCom LTS_

  ****  Scalars and arrays  ****
OctLoc.c.b A Datatyp(siz) R M Lvl/name                 OctLoc.c.b A Datatyp(siz) R M Lvl/name

     0-0-0/w STRC(180)         1 LTS_

  ****  Section 015 LblCom ETT$

  ****  Scalars and arrays  ****
OctLoc.c.b A Datatyp(siz) R M Lvl/name                 OctLoc.c.b A Datatyp(siz) R M Lvl/name
PL6.E3A0      #006=Z9EN$SORT File=Z9EN.:Z8A6TSI                                  SAT 08/09/97 13:57 Page:373

     0-0-0/w PTR         r     1 ETT$

  ****  Section 016 LblCom HEAD_ETT$

  ****  Scalars and arrays  ****
OctLoc.c.b A Datatyp(siz) R M Lvl/name                 OctLoc.c.b A Datatyp(siz) R M Lvl/name

     0-0-0/w PTR               1 HEAD_ETT$

  ****  Section 017 LblCom ETT_BUCKETS

  ****  Scalars and arrays  ****
OctLoc.c.b A Datatyp(siz) R M Lvl/name                 OctLoc.c.b A Datatyp(siz) R M Lvl/name

     0-0-0/w PTR               1 ETT_BUCKETS(0:511)

  ****  Section 018 LblCom ETT_

  ****  Scalars and arrays  ****
OctLoc.c.b A Datatyp(siz) R M Lvl/name                 OctLoc.c.b A Datatyp(siz) R M Lvl/name

     0-0-0/w STRC(180)         1 ETT_

  ****  Section 019 LblCom LEX_SYMBOL

  ****  Scalars and arrays  ****
OctLoc.c.b A Datatyp(siz) R M Lvl/name                 OctLoc.c.b A Datatyp(siz) R M Lvl/name

     0-0-0/w STRC(3240)  r     1 LEX_SYMBOL                 0-0-0/w STRC(3240)        1 LEX_SYMBOL_WORDS

  ****  Section 020 LblCom CURRENT_LEX_SYMBOL$

  ****  Scalars and arrays  ****
OctLoc.c.b A Datatyp(siz) R M Lvl/name                 OctLoc.c.b A Datatyp(siz) R M Lvl/name

     0-0-0/w PTR         r     1 CURRENT_LEX_SYMBOL$
PL6.E3A0      #006=Z9EN$SORT File=Z9EN.:Z8A6TSI                                  SAT 08/09/97 13:57 Page:374

  ****  Section 021 LblCom TEMP_LEX_SYMBOL

  ****  Scalars and arrays  ****
OctLoc.c.b A Datatyp(siz) R M Lvl/name                 OctLoc.c.b A Datatyp(siz) R M Lvl/name

     0-0-0/w STRC(3240)        1 TEMP_LEX_SYMBOL

  ****  Section 022 LblCom TEMP_LEX_SYMBOL2

  ****  Scalars and arrays  ****
OctLoc.c.b A Datatyp(siz) R M Lvl/name                 OctLoc.c.b A Datatyp(siz) R M Lvl/name

     0-0-0/w STRC(3240)        1 TEMP_LEX_SYMBOL2

  ****  Section 023 RoData Z9EN$SORT

  ****  Scalars and arrays  ****
OctLoc.c.b A Datatyp(siz) R M Lvl/name                 OctLoc.c.b A Datatyp(siz) R M Lvl/name

    44-0-0/w STRC(1296)  r     1 CONSTANT_MERGE             0-0-0/w STRC(1296)  r     1 CONSTANT_SORT
   120-0-0/w EPTR        r     1 CONST_ENTADDR_NIL        110-0-0/c CHAR(31)    r     1 SPACES
   120-0-0/w UBIN        r     1 UBIN_ENTADDR_NIL

  ****  Auto variables  ****

  ****  Scalars and arrays  ****
OctLoc.c.b A Datatyp(siz) R M Lvl/name                 OctLoc.c.b A Datatyp(siz) R M Lvl/name

   122-0-0/w PTR         r     1 @ASC_DES                   4-0-0/w PTR         r     1 @ASC_DES$
   105-0-0/w PTR         r     1 @BLOCK$                    5-0-0/w PTR         r     1 @COLLATING$
   103-0-0/w PTR         r     1 @COLLATING$              103-0-0/w PTR         r     1 @FILE$
   103-0-0/w PTR         r     1 @FILE$                     3-0-0/w PTR         r     1 @FILE_NAME$
   103-0-0/w PTR         r     1 @HEAD$                   121-0-0/w PTR         r     1 @ID
     6-0-0/w PTR         r     1 @INPUT_USE_FILES$        121-0-0/w PTR         r     1 @K$
   133-0-0/w PTR         r     1 @K$                      103-0-0/w PTR         r     1 @KEY$
   134-0-0/w PTR         r     1 @KEY_INERDS              122-0-0/w PTR         r     1 @LOP
PL6.E3A0      #006=Z9EN$SORT File=Z9EN.:Z8A6TSI                                  SAT 08/09/97 13:57 Page:375
   123-0-0/w PTR         r     1 @NEXT                    124-0-0/w PTR         r     1 @OFF
     7-0-0/w PTR         r     1 @OUTPUT_USE_FILES$       104-0-0/w PTR         r     1 @PROC$
   103-0-0/w PTR         r     1 @RETURN$                 123-0-0/w PTR         r     1 @ROP
   104-0-0/w PTR         r     1 @RTN$                    104-0-0/w PTR         r     1 @RTN$
   104-0-0/w PTR         r     1 @RTN$                    124-0-0/w PTR         r     1 @RTN$
   115-0-0/w PTR         r     1 ALP$                      71-0-0/w PTR         r     1 ALPHA_ST$
    *0-0-0/w SBIN        r     1 ASC_DES                   *0-0-0/w PTR         r     1 ASC_DES$
    75-0-0/w PTR         r     1 BASE$                     *0-0-0/w PTR         r     1 BLOCK$
   111-0-0/w STRC        r     1 CHAR_CODE                104-0-0/c CHAR(4)     r     1 CHAR_WORD
   143-0-0/w UBIN        r     1 CN                        65-0-0/w PTR         r     1 COBOL80_ST$
   113-0-0/w PTR         r     1 CODE$                     *0-0-0/w PTR         r     1 COLLATING$
    *0-0-0/w PTR         r     1 COLLATING$                44-0-0/d STRC(288)   r     1 COLLATING_SEQ
   114-0-0/w PTR         r     1 COLLATING_SEQ$            62-0-0/w PTR         r     1 CONST$
   122-0-0/w PTR         r     1 CONST$                   141-0-0/w STRC        r     1 DESC
    77-0-0/w PTR         r     1 FAB$                     106-0-0/w PTR         r     1 FAB$
   110-0-0/w PTR         r     1 FAB$                     105-0-0/w PTR         r     1 FD$$
   107-0-0/w PTR         r     1 FD$$                      *0-0-0/w PTR         r     1 FILE$
    *0-0-0/w PTR         r     1 FILE$                     *0-0-0/w PTR         r     1 FILE_NAME$
    66-0-0/w PTR               1 FILE_ST$                  *0-0-0/w PTR         r     1 HEAD$
    21-0-0/w SBIN        r     1 I                        112-0-0/w SBIN        r     1 I
   105-0-0/w SBIN        r     1 I                         73-0-0/w PTR         r     1 ICE_ST$
    *0-0-0/w SBIN        r     1 ID                        67-0-0/w PTR         r     1 INPUT_BLOCK$
    *0-0-0/w PTR         r     1 INPUT_USE_FILES$          63-0-0/w PTR         r     1 INSIZ_ST$
   111-0-0/w PTR         r     1 K$                        *0-0-0/w PTR         r     1 K$
    *0-0-0/w PTR         r     1 K$                        *0-0-0/w PTR         r     1 KEY$
    72-0-0/w PTR         r     1 KEYS_ST$                 126-0-0/w STRC(144)   r     1 KEY_INERDS
    *0-0-0/w STRC(144)   r     1 KEY_INERDS               125-0-0/w PTR         r     1 KEY_INERDS$
    22-0-0/w SBIN        r     1 LEN                       *0-0-0/w PTR         r     1 LOP
    57-0-0/w PTR         r     1 MERGE_ST$                100-0-0/b BIT         r     1 MERGE_STATEMENT
    64-0-0/w PTR         r     1 MIN_SIZE_ST$             144-0-0/w UBIN        r     1 N
   107-0-0/w SBIN        r     1 N#                       111-0-0/w PTR         r     1 N$
   112-0-0/w PTR         r     1 N$                        10-0-0/w STRC(324)         1 NAME
   106-0-0/w SBIN        r     1 NEXT                      *0-0-0/w SBIN        r     1 NEXT
    74-0-0/w PTR         r     1 OCE_ST$                   *0-0-0/w SBIN        r     1 OFF
   104-0-0/c STRC        r     1 OPTION_WORD               70-0-0/w PTR         r     1 OUTPUT_BLOCK$
    *0-0-0/w PTR         r     1 OUTPUT_USE_FILES$         76-0-0/w PTR         r     1 P$
   121-0-0/w PTR         r     1 P$                       104-0-0/w PTR         r     1 P$
PL6.E3A0      #006=Z9EN$SORT File=Z9EN.:Z8A6TSI                                  SAT 08/09/97 13:57 Page:376
   106-0-0/w PTR         r     1 P$                       110-0-0/w PTR         r     1 P$
    34-0-0/d STRC(288)   r     1 PMERGE                    *0-0-0/w PTR         r     1 PROC$
    24-0-0/d STRC(288)   r     1 PSORT                     *0-0-0/w PTR         r     1 RETURN$
    *0-0-0/w PTR         r     1 ROP                       *0-0-0/w PTR         r     1 RTN$
    *0-0-0/w PTR         r     1 RTN$                      *0-0-0/w PTR         r     1 RTN$
    *0-0-0/w PTR         r     1 RTN$                      61-0-0/w PTR         r     1 RT_ARG_LIST$
    60-0-0/w PTR         r     1 RT_DESC_LIST$            142-0-0/w UBIN        r     1 SA
    55-0-0/w PTR         r     1 SD$$                      56-0-0/w PTR         r     1 SORT_ST$
   135-0-0/w STRC(144)   r     1 TYPE_DESC                105-0-0/w PTR         r     1 XLATE$
    54-0-0/w BIT         r     1 XLATE_PRESENT            112-0-0/w PTR         r     1 XLATE_ST$
   105-0-0/w STRC(432)   r     1 ZL_FILES                 113-0-0/w STRC(180)   r     1 ZL_KEYS
   106-0-0/w STRC(108)   r     1 ZL_XLATE

  ****  SYMREF variables  ****

  ****  Scalars and arrays  ****
OctLoc.c.b A Datatyp(siz) R M Lvl/name                 OctLoc.c.b A Datatyp(siz) R M Lvl/name

     0-0-0/d STRC(13248) r     1 COMCOM
     0-0-0/w STRC(180)         1 HIER_STK(0:50)
     0-0-0/w SBIN              1 HIER_STK_PTR               0-0-0/w UBIN              1 ILL_STEP(0:144)
     0-0-0/w UBIN              1 LTS_STEP(0:37)
     0-0-0/d STRC(11580) r     1 O1COM                      0-0-0/w STRC(144)         1 PAGE_FORMAT
     0-0-0/w STRC(153)         1 REP_STK(0:50)              0-0-0/w SBIN              1 REP_STK_PTR

  ****  BASED and DCB variables  ****

  ****  Scalars and arrays  ****
OctLoc.c.b A Datatyp(siz) R M Lvl/name                 OctLoc.c.b A Datatyp(siz) R M Lvl/name

     0-0-0/w STRC(108)         1 ACCEPT_DISPLAY             0-0-0/w STRC(288)         1 ADD_STMT
     0-0-0/w STRC(396)   r     1 ALPHABET                   0-0-0/w STRC(144)         1 ALTER_LTS
     0-0-0/w STRC(3672)        1 ALT_KEY                    0-0-0/w STRC(36864)       1 ARGLIST
     0-0-0/w STRC(396)         1 ARRAY                      0-0-0/w STRC(180)         1 ARRAY_PRESET_LTS
     0-0-0/w ASTR(324)   r     1 BASED_LEX_SYMBOL
     0-0-0/w STRC(360)         1 BASED_LEX_SYMBOL_WORDS
     0-0-0/w STRC(288)         1 BASE_LTS                   0-0-0/w STRC(108)         1 BINARY_ILL
PL6.E3A0      #006=Z9EN$SORT File=Z9EN.:Z8A6TSI                                  SAT 08/09/97 13:57 Page:377
     0-0-0/w STRC(288)         1 BINARY_OP                  0-0-0/w STRC(396)         1 BLOCK
     0-0-0/w STRC(144)         1 BRANCH_ILL                 0-0-0/w STRC(144)         1 BT
     0-0-0/w STRC(288)         1 CALL_STMT                  0-0-0/w STRC(216)         1 CCOSU
     0-0-0/w STRC(396)         1 CD                         0-0-0/w STRC(288)         1 CD_LTS
     0-0-0/w CHAR(4096)        1 CHARS                      0-0-0/w STRC(396)         1 CLASS
     0-0-0/w STRC(108)         1 CODED_MOVE                 0-0-0/w STRC(288)         1 COMPUTE_STMT
     0-0-0/w STRC(396)         1 CONDITION                  0-0-0/w STRC(396)   r     1 CONST
     0-0-0/w STRC(72)          1 CONT                       0-0-0/w STRC(540)         1 CONTROL_NAME_LTS
     0-0-0/w STRC(1872)        1 COPY_FILE                  0-0-0/w STRC(396)         1 DB
     0-0-0/w STRC(396)         1 DCB_                       0-0-0/w STRC(288)         1 DEFERED_IDENTIFIER
     0-0-0/w STRC(252)         1 DEFERED_ID_TREE            0-0-0/w STRC(288)         1 DEFERED_QUAL_ID
     0-0-0/w STRC(288)         1 DEFERED_SUM_CLAUSE
     0-0-0/w STRC(288)         1 DEFERED_SUM_CLAUSE_LIST
     0-0-0/w STRC(144)         1 DEFLB                      0-0-0/w STRC(288)         1 DELETE_STMT
     0-0-0/w STRC(108)         1 DEPENDING_SIZE             0-0-0/w STRC(5472)        1 DIMS
     0-0-0/w STRC(288)         1 DIVIDE_STMT                0-0-0/w STRC(396)         1 DML_ITEM
     0-0-0/w STRC(216)         1 DML_REC                    0-0-0/w ASTR(180)   r     1 DNT
     0-0-0/w STRC(144)         1 DOEND                      0-0-0/w STRC(396)         1 DO_N
     0-0-0/w STRC(180)         1 DV4I                       0-0-0/w STRC(180)         1 ENTRY_ILL
     0-0-0/w STRC(180)   r     1 ETT                        0-0-0/w STRC(108)         1 EVALU
     0-0-0/w STRC(73836)       1 EVALUATE                   0-0-0/w STRC(396)         1 FD
     0-0-0/w STRC(1692)  r     1 FILE_LTS                   0-0-0/w STRC(144)         1 GO
     0-0-0/w STRC(180)         1 ILL                        0-0-0/w STRC              1 ILL_NO_OPS
     0-0-0/w STRC(288)         1 ILS_LIST                   0-0-0/w STRC(108)         1 INDEXES
     0-0-0/w STRC(360)         1 INIT_LTS                   0-0-0/w STRC(288)         1 INSPECT_1_STMT
     0-0-0/w STRC(288)         1 INSPECT_2_STMT             0-0-0/w STRC(288)         1 INSPECT_4_STMT
     0-0-0/w STRC(396)         1 INTDEF                     0-0-0/w STRC(180)         1 IO_RESTORE_CHAIN
     0-0-0/w STRC(144)         1 KEY                        0-0-0/w STRC(396)         1 LABEL
     0-0-0/w STRC(288)         1 LA_ITEM                    0-0-0/w STRC(36864)       1 LCNST
     0-0-0/w STRC(108)         1 LINOI                      0-0-0/w STRC(72)    r     1 LONG
     0-0-0/w STRC        r     1 LTS                        0-0-0/w STRC(360)   r     1 LTSS
     0-0-0/w STRC(36936)       1 LTS_PTR_ARRAY              0-0-0/w STRC(504)         1 LX_CD_INPUT
     0-0-0/w STRC(324)         1 LX_CD_I_O                  0-0-0/w STRC(396)         1 LX_CD_OUTPUT
     0-0-0/w STRC(288)   r     1 LX_ETT_ITEM                0-0-0/w STRC(288)   r     1 LX_ITEM
     0-0-0/w STRC(288)         1 LX_LARGE                   0-0-0/w STRC(288)   r     1 LX_LIST
     0-0-0/w STRC(1224)        1 LX_REC_DECL                0-0-0/w STRC(864)         1 LX_REPORT_REC
     0-0-0/w STRC(288)   r     1 LX_TERMINAL                0-0-0/w STRC(72)          1 MFILL
PL6.E3A0      #006=Z9EN$SORT File=Z9EN.:Z8A6TSI                                  SAT 08/09/97 13:57 Page:378
     0-0-0/w STRC(396)         1 MNEMONIC                   0-0-0/w STRC(288)         1 MULTIPLY_STMT
     0-0-0/w STRC(180)         1 MULTI_GO                   0-0-0/w STRC(180)         1 MVEAL
     0-0-0/w STRC(108)         1 MVFIL                      0-0-0/w STRC(72)          1 MVIIS
     0-0-0/w STRC(144)         1 NEL                        0-0-0/w STRC(216)         1 OPEN_LTS
     0-0-0/w STRC(180)         1 OS_CALL                    0-0-0/w STRC(36864)       1 PAGE
     0-0-0/w STRC(396)         1 PARA                       0-0-0/w STRC(216)         1 PFORM
     0-0-0/w STRC(144)         1 PINC                       0-0-0/w STRC(144)   r     1 PREOFF
     0-0-0/w STRC(108)   r     1 PRESET                     0-0-0/w STRC(144)         1 PRIME
     0-0-0/w STRC(396)   r     1 PROC_                      0-0-0/w STRC(396)         1 PROC_DEF
     0-0-0/w STRC(900)   r     1 PROC_SUPP                  0-0-0/w STRC(144)         1 P_A_PRESET
     0-0-0/w STRC(144)         1 P_P_PRESET                 0-0-0/w STRC(216)   r     1 QLT
     0-0-0/w STRC(396)         1 RD                         0-0-0/w STRC(288)         1 READ_STMT
     0-0-0/w STRC(216)         1 REF                        0-0-0/w STRC(144)         1 REMEM
     0-0-0/w STRC(108)         1 RENAMES                    0-0-0/w STRC(720)         1 REPORT_01_LTS
     0-0-0/w STRC(432)         1 REPORT_ELEM_LTS            0-0-0/w STRC(252)         1 REPORT_GRP_LTS
     0-0-0/w STRC(1332)        1 REPORT_LTS                 0-0-0/w STRC(288)         1 REWRITE_STMT
     0-0-0/w STRC(144)         1 RVA_LTS                    0-0-0/w STRC(396)   r     1 SCALAR
     0-0-0/w STRC(144)         1 SCOPE                      0-0-0/w STRC(396)   r     1 SD
     0-0-0/w STRC(216)         1 SEARCH_                    0-0-0/w STRC(396)         1 SECTION
     0-0-0/w STRC(396)         1 SEGMENT                    0-0-0/w STRC(360)         1 SEGMENT_LTS
     0-0-0/w STRC(396)   r     1 ST                         0-0-0/w STRC(288)         1 START_STMT
     0-0-0/w STRC(72)          1 STP2                       0-0-0/w STRC(252)         1 STRING_STMT
     0-0-0/w STRC(288)         1 SUBTRACT_STMT              0-0-0/w STRC(252)         1 SUM_LTS
     0-0-0/w STRC(396)         1 SWITCH                     0-0-0/w STRC(396)         1 SYMBOLIC_CHAR
     0-0-0/w STRC(396)         1 SYMDEF_                    0-0-0/w STRC(396)         1 SYMREF_
     0-0-0/w STRC(396)         1 TEMP                       0-0-0/w STRC(144)         1 TRINARY_ILL
     0-0-0/w UBIN        r     1 UBIN_CONST                 0-0-0/w STRC(72)          1 UNARY_ILL
     0-0-0/w STRC(288)         1 UNARY_OP                   0-0-0/w STRC(288)         1 UNSTRING_STMT
     0-0-0/d STRC(612)         1 USE                        0-0-0/w STRC(216)   r     1 USER_CALL
     0-0-0/w STRC(252)         1 USE_SUPP                   0-0-0/w STRC(108)         1 VAL
     0-0-0/w STRC(108)         1 VAL_END                    0-0-0/w STRC(396)   r     1 VARIABLE
     0-0-0/w STRC(72)          1 WHEN                       0-0-0/w STRC(288)         1 WRITE_STMT


   Procedure Z9EN$SORT requires 1885 words for executable code.
   Procedure Z9EN$SORT requires 108 words of local(AUTO) storage.

PL6.E3A0      #007=Z9EN$RELEASE File=Z9EN.:Z8A6TSI                               SAT 08/09/97 14:00 Page:379
     2126        1        /*T***********************************************************/
     2127        2        /*T*                                                         */
     2128        3        /*T* Copyright (c) Bull HN Information Systems Inc., 1997    */
     2129        4        /*T*                                                         */
     2130        5        /*T***********************************************************/
     2131        6        Z9EN$RELEASE : PROC (FILE_LTS$,
     2132        7                             RECORD_NAME$,
     2133        8                             RECORD_LENGTH$);
     2134        9
     2135       10         /*P*
     2136       11               NAME : Z9EN$RELEASE
     2137       12               PURPOSE : To create ILL for the RELEASE statement.
     2138       13         */
     2139       14
     2140       15    1     DCL FILE_LTS$ PTR;
     2141       16    1     DCL RECORD_NAME$ PTR;
     2142       17    1     DCL RECORD_LENGTH$ PTR;
     2143       18
     2144       19        %EQU PHASE = 1;
     2145       20            %EQU LIB_RELEASE_NAME = 'ZL4$RELEASE';
     2146       21            %EQU LIB_RELEASE_NAME_LENGTH = 11;
     2147       22
     2148       23        %INCLUDE Z8A_DEFC;
     2149       91        %INCLUDE Z8A_SUPP_MAC;
     2150     2491        %INCLUDE Z8E_STACKS;
     2151     4757        %INCLUDE Z8A_ILL;
     2152     5450        %INCLUDE Z8A_LIBRARY;
     2153     5664        %INCLUDE Z8E_MACROS;
     2154     6339        %INCLUDE Z8E_O1COM;
     2155     7100
     2156     7101    1   DCL Z9EY$BUILD_RUNTIME_DESCRIPTOR ENTRY(3);
     2157     7102    1   DCL Z8EY$BUILD_RUNTIME_ARGLIST ENTRY(3);
     2158     7103    1   DCL Z8EO$NEW_SYMREF            ENTRY (3);
     2159     7104
     2160     7105    1     DCL SV_LINK_RECORD_NAME$ PTR;
     2161     7106    1     DCL SV_LINK_RECORD_LENGTH$ PTR;
     2162     7107    1     DCL RT_DESC_LIST$ PTR;
PL6.E3A0      #007=Z9EN$RELEASE File=Z9EN.:Z8A6TSI                               SAT 08/09/97 14:00 Page:380
     2163     7108    1     DCL RT_ARG_LIST$ PTR;
     2164     7109    1     DCL P$ PTR;
     2165     7110
     2166     7111
     2167     7112    1     SV_LINK_RECORD_NAME$ = RECORD_NAME$ -> LX_ETT_ITEM.LINK;
     2168     7113    1     SV_LINK_RECORD_LENGTH$ = RECORD_LENGTH$ -> LX_ETT_ITEM.LINK;
     2169     7114
     2170     7115    1     RECORD_LENGTH$ -> LX_ETT_ITEM.LINK = ADDR(NIL);
     2171     7116    1     RECORD_NAME$ -> LX_ETT_ITEM.LINK = RECORD_LENGTH$;
     2172     7117
     2173     7118    1     CALL Z9EY$BUILD_RUNTIME_DESCRIPTOR (RECORD_NAME$,
     2174     7119    1                                         RT_DESC_LIST$,
     2175     7120    1                                         2);
     2176     7121    1     CALL Z8EY$BUILD_RUNTIME_ARGLIST (RECORD_NAME$,
     2177     7122    1                                      RT_ARG_LIST$,
     2178     7123    1                                      2);
     2179     7124
     2180     7125        /*%NEW_ILL (@ID = %OS_CALL,
     2181     7126                    @CODE = %OP_RELEASE,
     2182     7127                    @ROP = RT_DESC_LIST$,
     2183     7128                    @LOP = RT_ARG_LIST$);*/
     2184     7129
     2185     7130    1     CALL Z8EO$NEW_SYMREF (%LIB_RELEASE_NAME,
     2186     7131    1                           %LIB_RELEASE_NAME_LENGTH,
     2187     7132    1                           P$);
     2188     7133
     2189     7134          %NEW_ILL (@ID           = %USER_CALL,
     2190     7135                    @ROP          = RT_DESC_LIST$,
     2191     7136                    @LOP          = RT_ARG_LIST$,
     2192     7137                    @DESTINATION$ = P$);
     2193     7516
     2194     7517
     2195     7518    1     RECORD_NAME$ -> LX_ETT_ITEM.LINK = SV_LINK_RECORD_NAME$;
     2196     7519    1     RECORD_LENGTH$ -> LX_ETT_ITEM.LINK = SV_LINK_RECORD_LENGTH$;
     2197     7520
     2198     7521
     2199     7522
PL6.E3A0      #007=Z9EN$RELEASE File=Z9EN.:Z8A6TSI                               SAT 08/09/97 14:00 Page:381
     2200     7523    1   END Z9EN$RELEASE;
     2201     7524        %EOD;

PL6.E3A0      #007=Z9EN$RELEASE File=Z9EN.:Z8A6TSI                               SAT 08/09/97 14:00 Page:382
--  Include file information  --

   Z8E_O1COM.:Z8A6TOU  cannot be made into a system file and is referenced.
   Z8E_NEW_ILL.:Z8A6TOU  is referenced.
   Z8E_MACROS.:Z8A6TOU  cannot be made into a system file and is referenced.
   Z8A_LIBRARY.:Z8A6TOU  cannot be made into a system file and is referenced.
   Z8A_ILL.:Z8A6TOU  cannot be made into a system file and is referenced.
   Z8A_LEX_SYMB.:Z8A6TOU  cannot be made into a system file and is referenced.
   Z8E_STACKS.:Z8A6TOU  cannot be made into a system file and is referenced.
   X8A_COM_MACS.:X8A6TOU  is referenced.
   Z8A_NAMES.:Z8A6TOU  is referenced.
   Z8A_SUPP_MAC.:Z8A6TOU  is referenced.
   Z8A_DEFC.:Z8A6TOU  cannot be made into a system file and is referenced.
      No diagnostics issued in procedure Z9EN$RELEASE.

   Procedure Z9EN$RELEASE requires 74 words for executable code.
   Procedure Z9EN$RELEASE requires 26 words of local(AUTO) storage.

PL6.E3A0      #007=Z9EN$RELEASE File=Z9EN.:Z8A6TSI                               SAT 08/09/97 14:00 Page:383

 Object Unit name= Z9EN$RELEASE                               File name= Z9EN.:Z8A6TOU
 UTS= AUG 09 '97 14:00:45.24 SAT                              Compiler= PL-6/E31         Sev=      00
 SharedLib= :SHARED_SYSTEM                                    Alt SharedLib=


    ****  Control sections  ****

 Sect   Type Bound  Init  Size OctSiz  Section name(segment info)
    0  LblCom even  none     1      1  ITERATION
    1  LblCom even  none    90    132  LEX_SYMBOL
    2  LblCom even  none     1      1  CURRENT_LEX_SYMBOL$
    3  LblCom even  none    90    132  TEMP_LEX_SYMBOL
    4  LblCom even  none    90    132  TEMP_LEX_SYMBOL2
    5  LblCom even  none     1      1  ILL$
    6  LblCom even  none     5      5  ILL_
    7  RoData even  UTS      3      3  Z9EN$RELEASE
    8   Proc  even  none    74    112  Z9EN$RELEASE
    9  RoData even  none    14     16  Z9EN$RELEASE

    ****  Entry defs  ****

                              Check   Calling
                             calling  sequence
  Sect OctLoc Primary Altret sequence   type   Parms  Name
     8      0   yes            yes      Std        3  Z9EN$RELEASE

  ****  Entry refs  ****

         Check        Calling
        calling       sequence
Altret sequence SRef   type   Args  Name
         yes           Std       3 Z9EY$BUILD_RUNTIME_DESCRIPTOR
         yes           Std       3 Z8EO$NEW_SYMREF
         yes           Std       4 Z8AN$NEW_ILL
         yes           Std       3 Z8EY$BUILD_RUNTIME_ARGLIST
                       nStd      0 X66_AUTO_3
                       nStd      0 X66_ARET
PL6.E3A0      #007=Z9EN$RELEASE File=Z9EN.:Z8A6TSI                               SAT 08/09/97 14:00 Page:384

  ****  Data refs  ****

  Flags:  r = read only, s = secondary
Flgs Name                             Flgs Name                             Flgs Name
r    ILL_STEP                              O1COM                                 HIER_STK_PTR
     HIER_STK                              PAGE_FORMAT                           REP_STK_PTR
     REP_STK

  ****  Segment refs  ****

  Flags:  r = read only, s = secondary
Flgs Name                             Flgs Name                             Flgs Name
     ISSID                                 NULLSID
PL6.E3A0      #007=Z9EN$RELEASE File=Z9EN.:Z8A6TSI                               SAT 08/09/97 14:00 Page:385


     2126        1        /*T***********************************************************/
     2127        2        /*T*                                                         */
     2128        3        /*T* Copyright (c) Bull HN Information Systems Inc., 1997    */
     2129        4        /*T*                                                         */
     2130        5        /*T***********************************************************/
     2131        6        Z9EN$RELEASE : PROC (FILE_LTS$,

      6  8 000000   000000 700200 xent  Z9EN$RELEASE TSX0  ! X66_AUTO_3
         8 000001   000032 000003                    ZERO    26,3

     2132        7                             RECORD_NAME$,
     2133        8                             RECORD_LENGTH$);
     2134        9
     2135       10         /*P*
     2136       11               NAME : Z9EN$RELEASE
     2137       12               PURPOSE : To create ILL for the RELEASE statement.
     2138       13         */
     2139       14
     2140       15    1     DCL FILE_LTS$ PTR;
     2141       16    1     DCL RECORD_NAME$ PTR;
     2142       17    1     DCL RECORD_LENGTH$ PTR;
     2143       18
     2144       19        %EQU PHASE = 1;
     2145       20            %EQU LIB_RELEASE_NAME = 'ZL4$RELEASE';
     2146       21            %EQU LIB_RELEASE_NAME_LENGTH = 11;
     2147       22
     2148       23        %INCLUDE Z8A_DEFC;
     2149       91        %INCLUDE Z8A_SUPP_MAC;
     2150     2491        %INCLUDE Z8E_STACKS;
     2151     4757        %INCLUDE Z8A_ILL;
     2152     5450        %INCLUDE Z8A_LIBRARY;
     2153     5664        %INCLUDE Z8E_MACROS;
     2154     6339        %INCLUDE Z8E_O1COM;
     2155     7100
     2156     7101    1   DCL Z9EY$BUILD_RUNTIME_DESCRIPTOR ENTRY(3);
     2157     7102    1   DCL Z8EY$BUILD_RUNTIME_ARGLIST ENTRY(3);
PL6.E3A0      #007=Z9EN$RELEASE File=Z9EN.:Z8A6TSI                               SAT 08/09/97 14:00 Page:386
     2158     7103    1   DCL Z8EO$NEW_SYMREF            ENTRY (3);
     2159     7104
     2160     7105    1     DCL SV_LINK_RECORD_NAME$ PTR;
     2161     7106    1     DCL SV_LINK_RECORD_LENGTH$ PTR;
     2162     7107    1     DCL RT_DESC_LIST$ PTR;
     2163     7108    1     DCL RT_ARG_LIST$ PTR;
     2164     7109    1     DCL P$ PTR;
     2165     7110
     2166     7111
     2167     7112    1     SV_LINK_RECORD_NAME$ = RECORD_NAME$ -> LX_ETT_ITEM.LINK;

   7112  8 000002   200004 470500                    LDP0    @RECORD_NAME$,,AUTO
         8 000003   000000 471500                    LDP1    0,,PR0
         8 000004   100007 236100                    LDQ     7,,PR1
         8 000005   200017 756100                    STQ     SV_LINK_RECORD_NAME$,,AUTO

     2168     7113    1     SV_LINK_RECORD_LENGTH$ = RECORD_LENGTH$ -> LX_ETT_ITEM.LINK;

   7113  8 000006   200005 473500                    LDP3    @RECORD_LENGTH$,,AUTO
         8 000007   300000 474500                    LDP4    0,,PR3
         8 000010   400007 236100                    LDQ     7,,PR4
         8 000011   200020 756100                    STQ     SV_LINK_RECORD_LENGTH$,,AUTO

     2169     7114
     2170     7115    1     RECORD_LENGTH$ -> LX_ETT_ITEM.LINK = ADDR(NIL);

   7115  8 000012   000000 236000 9                  LDQ     0
         8 000013   400007 756100                    STQ     7,,PR4

     2171     7116    1     RECORD_NAME$ -> LX_ETT_ITEM.LINK = RECORD_LENGTH$;

   7116  8 000014   000000 471500                    LDP1    0,,PR0
         8 000015   300000 236100                    LDQ     0,,PR3
         8 000016   100007 756100                    STQ     7,,PR1

     2172     7117
     2173     7118    1     CALL Z9EY$BUILD_RUNTIME_DESCRIPTOR (RECORD_NAME$,
PL6.E3A0      #007=Z9EN$RELEASE File=Z9EN.:Z8A6TSI                               SAT 08/09/97 14:00 Page:387

   7118  8 000017   000003 236000 9                  LDQ     3
         8 000020   200026 756100                    STQ     P$+3,,AUTO
         8 000021   200021 631500                    EPPR1   RT_DESC_LIST$,,AUTO
         8 000022   200025 451500                    STP1    P$+2,,AUTO
         8 000023   200004 236100                    LDQ     @RECORD_NAME$,,AUTO
         8 000024   200024 756100                    STQ     P$+1,,AUTO
         8 000025   200024 630500                    EPPR0   P$+1,,AUTO
         8 000026   000001 631400 9                  EPPR1   1
         8 000027   000000 701000 xent               TSX1    Z9EY$BUILD_RUNTIME_DESCRIPTOR
         8 000030   000000 011000                    NOP     0

     2174     7119    1                                         RT_DESC_LIST$,
     2175     7120    1                                         2);
     2176     7121    1     CALL Z8EY$BUILD_RUNTIME_ARGLIST (RECORD_NAME$,

   7121  8 000031   000003 236000 9                  LDQ     3
         8 000032   200026 756100                    STQ     P$+3,,AUTO
         8 000033   200022 630500                    EPPR0   RT_ARG_LIST$,,AUTO
         8 000034   200025 450500                    STP0    P$+2,,AUTO
         8 000035   200004 236100                    LDQ     @RECORD_NAME$,,AUTO
         8 000036   200024 756100                    STQ     P$+1,,AUTO
         8 000037   200024 630500                    EPPR0   P$+1,,AUTO
         8 000040   000001 631400 9                  EPPR1   1
         8 000041   000000 701000 xent               TSX1    Z8EY$BUILD_RUNTIME_ARGLIST
         8 000042   000000 011000                    NOP     0

     2177     7122    1                                      RT_ARG_LIST$,
     2178     7123    1                                      2);
     2179     7124
     2180     7125        /*%NEW_ILL (@ID = %OS_CALL,
     2181     7126                    @CODE = %OP_RELEASE,
     2182     7127                    @ROP = RT_DESC_LIST$,
     2183     7128                    @LOP = RT_ARG_LIST$);*/
     2184     7129
     2185     7130    1     CALL Z8EO$NEW_SYMREF (%LIB_RELEASE_NAME,

PL6.E3A0      #007=Z9EN$RELEASE File=Z9EN.:Z8A6TSI                               SAT 08/09/97 14:00 Page:388
   7130  8 000043   200023 630500                    EPPR0   P$,,AUTO
         8 000044   200026 450500                    STP0    P$+3,,AUTO
         8 000045   000006 237000 9                  LDAQ    6
         8 000046   200024 757100                    STAQ    P$+1,,AUTO
         8 000047   200024 630500                    EPPR0   P$+1,,AUTO
         8 000050   000001 631400 9                  EPPR1   1
         8 000051   000000 701000 xent               TSX1    Z8EO$NEW_SYMREF
         8 000052   000000 011000                    NOP     0

     2186     7131    1                           %LIB_RELEASE_NAME_LENGTH,
     2187     7132    1                           P$);
     2188     7133
     2189     7134          %NEW_ILL (@ID           = %USER_CALL,
     2190     7135                    @ROP          = RT_DESC_LIST$,
     2191     7136                    @LOP          = RT_ARG_LIST$,
     2192     7137                    @DESTINATION$ = P$);

   7245  8 000053   000012 236000 9                  LDQ     10
         8 000054   200024 756100                    STQ     P$+1,,AUTO
         8 000055   200024 630500                    EPPR0   P$+1,,AUTO
         8 000056   200031 450500                    STP0    P$+6,,AUTO
         8 000057   000013 236000 9                  LDQ     11
         8 000060   200030 756100                    STQ     P$+5,,AUTO
         8 000061   000014 237000 9                  LDAQ    12
         8 000062   200026 757100                    STAQ    P$+3,,AUTO
         8 000063   200026 630500                    EPPR0   P$+3,,AUTO
         8 000064   000005 631400 9                  EPPR1   5
         8 000065   000000 701000 xent               TSX1    Z8AN$NEW_ILL
         8 000066   000000 011000                    NOP     0

   7246  8 000067   200022 236100                    LDQ     RT_ARG_LIST$,,AUTO
         8 000070   000000 470400 5                  LDP0    ILL$
         8 000071   000001 756100                    STQ     1,,PR0

   7247  8 000072   200021 236100                    LDQ     RT_DESC_LIST$,,AUTO
         8 000073   000002 756100                    STQ     2,,PR0

PL6.E3A0      #007=Z9EN$RELEASE File=Z9EN.:Z8A6TSI                               SAT 08/09/97 14:00 Page:389
   7248  8 000074   200023 236100                    LDQ     P$,,AUTO
         8 000075   000005 756100                    STQ     5,,PR0

   7249  8 000076   000000 236000 9                  LDQ     0
         8 000077   000003 756100                    STQ     3,,PR0

   7251  8 000100   000004 756100                    STQ     4,,PR0

     2193     7516
     2194     7517
     2195     7518    1     RECORD_NAME$ -> LX_ETT_ITEM.LINK = SV_LINK_RECORD_NAME$;

   7518  8 000101   200004 471500                    LDP1    @RECORD_NAME$,,AUTO
         8 000102   100000 473500                    LDP3    0,,PR1
         8 000103   200017 236100                    LDQ     SV_LINK_RECORD_NAME$,,AUTO
         8 000104   300007 756100                    STQ     7,,PR3

     2196     7519    1     RECORD_LENGTH$ -> LX_ETT_ITEM.LINK = SV_LINK_RECORD_LENGTH$;

   7519  8 000105   200005 473500                    LDP3    @RECORD_LENGTH$,,AUTO
         8 000106   300000 474500                    LDP4    0,,PR3
         8 000107   200020 236100                    LDQ     SV_LINK_RECORD_LENGTH$,,AUTO
         8 000110   400007 756100                    STQ     7,,PR4

     2197     7520
     2198     7521
     2199     7522
     2200     7523    1   END Z9EN$RELEASE;

   7523  8 000111   000000 702200 xent               TSX2  ! X66_ARET
     2201     7524        %EOD;

PL6.E3A0      #007=Z9EN$RELEASE File=Z9EN.:Z8A6TSI                               SAT 08/09/97 14:00 Page:390
--  Include file information  --

   Z8E_O1COM.:Z8A6TOU  cannot be made into a system file and is referenced.
   Z8E_NEW_ILL.:Z8A6TOU  is referenced.
   Z8E_MACROS.:Z8A6TOU  cannot be made into a system file and is referenced.
   Z8A_LIBRARY.:Z8A6TOU  cannot be made into a system file and is referenced.
   Z8A_ILL.:Z8A6TOU  cannot be made into a system file and is referenced.
   Z8A_LEX_SYMB.:Z8A6TOU  cannot be made into a system file and is referenced.
   Z8E_STACKS.:Z8A6TOU  cannot be made into a system file and is referenced.
   X8A_COM_MACS.:X8A6TOU  is referenced.
   Z8A_NAMES.:Z8A6TOU  is referenced.
   Z8A_SUPP_MAC.:Z8A6TOU  is referenced.
   Z8A_DEFC.:Z8A6TOU  cannot be made into a system file and is referenced.
      No diagnostics issued in procedure Z9EN$RELEASE.
PL6.E3A0      #007=Z9EN$RELEASE File=Z9EN.:Z8A6TSI                               SAT 08/09/97 14:00 Page:391

 **** Variables and constants ****

  ****  Section 000 LblCom ITERATION

  ****  Scalars and arrays  ****
OctLoc.c.b A Datatyp(siz) R M Lvl/name                 OctLoc.c.b A Datatyp(siz) R M Lvl/name

     0-0-0/w SBIN              1 ITERATION

  ****  Section 001 LblCom LEX_SYMBOL

  ****  Scalars and arrays  ****
OctLoc.c.b A Datatyp(siz) R M Lvl/name                 OctLoc.c.b A Datatyp(siz) R M Lvl/name

     0-0-0/w STRC(3240)  r     1 LEX_SYMBOL                 0-0-0/w STRC(3240)        1 LEX_SYMBOL_WORDS

  ****  Section 002 LblCom CURRENT_LEX_SYMBOL$

  ****  Scalars and arrays  ****
OctLoc.c.b A Datatyp(siz) R M Lvl/name                 OctLoc.c.b A Datatyp(siz) R M Lvl/name

     0-0-0/w PTR         r     1 CURRENT_LEX_SYMBOL$

  ****  Section 003 LblCom TEMP_LEX_SYMBOL

  ****  Scalars and arrays  ****
OctLoc.c.b A Datatyp(siz) R M Lvl/name                 OctLoc.c.b A Datatyp(siz) R M Lvl/name

     0-0-0/w STRC(3240)        1 TEMP_LEX_SYMBOL

  ****  Section 004 LblCom TEMP_LEX_SYMBOL2

  ****  Scalars and arrays  ****
OctLoc.c.b A Datatyp(siz) R M Lvl/name                 OctLoc.c.b A Datatyp(siz) R M Lvl/name

     0-0-0/w STRC(3240)        1 TEMP_LEX_SYMBOL2

PL6.E3A0      #007=Z9EN$RELEASE File=Z9EN.:Z8A6TSI                               SAT 08/09/97 14:00 Page:392
  ****  Section 005 LblCom ILL$

  ****  Scalars and arrays  ****
OctLoc.c.b A Datatyp(siz) R M Lvl/name                 OctLoc.c.b A Datatyp(siz) R M Lvl/name

     0-0-0/w PTR         r     1 ILL$

  ****  Section 006 LblCom ILL_

  ****  Scalars and arrays  ****
OctLoc.c.b A Datatyp(siz) R M Lvl/name                 OctLoc.c.b A Datatyp(siz) R M Lvl/name

     0-0-0/w STRC(180)         1 ILL_

  ****  Auto variables  ****

  ****  Scalars and arrays  ****
OctLoc.c.b A Datatyp(siz) R M Lvl/name                 OctLoc.c.b A Datatyp(siz) R M Lvl/name

     3-0-0/w PTR         r     1 @FILE_LTS$                 5-0-0/w PTR         r     1 @RECORD_LENGTH$
     4-0-0/w PTR         r     1 @RECORD_NAME$             *0-0-0/w PTR         r     1 FILE_LTS$
     6-0-0/w STRC(324)         1 NAME                      23-0-0/w PTR         r     1 P$
    *0-0-0/w PTR         r     1 RECORD_LENGTH$            *0-0-0/w PTR         r     1 RECORD_NAME$
    22-0-0/w PTR         r     1 RT_ARG_LIST$              21-0-0/w PTR         r     1 RT_DESC_LIST$
    20-0-0/w PTR         r     1 SV_LINK_RECORD_LENGTH$
    17-0-0/w PTR         r     1 SV_LINK_RECORD_NAME$

  ****  SYMREF variables  ****

  ****  Scalars and arrays  ****
OctLoc.c.b A Datatyp(siz) R M Lvl/name                 OctLoc.c.b A Datatyp(siz) R M Lvl/name

     0-0-0/w STRC(180)         1 HIER_STK(0:50)
     0-0-0/w SBIN              1 HIER_STK_PTR               0-0-0/w UBIN              1 ILL_STEP(0:144)
     0-0-0/d STRC(11580) r     1 O1COM                      0-0-0/w STRC(144)         1 PAGE_FORMAT
     0-0-0/w STRC(153)         1 REP_STK(0:50)              0-0-0/w SBIN              1 REP_STK_PTR

PL6.E3A0      #007=Z9EN$RELEASE File=Z9EN.:Z8A6TSI                               SAT 08/09/97 14:00 Page:393
  ****  BASED and DCB variables  ****

  ****  Scalars and arrays  ****
OctLoc.c.b A Datatyp(siz) R M Lvl/name                 OctLoc.c.b A Datatyp(siz) R M Lvl/name

     0-0-0/w STRC(108)         1 ACCEPT_DISPLAY             0-0-0/w STRC(288)         1 ADD_STMT
     0-0-0/w ASTR(324)   r     1 BASED_LEX_SYMBOL
     0-0-0/w STRC(360)         1 BASED_LEX_SYMBOL_WORDS
     0-0-0/w STRC(108)         1 BINARY_ILL                 0-0-0/w STRC(288)         1 BINARY_OP
     0-0-0/w STRC(144)         1 BRANCH_ILL                 0-0-0/w STRC(288)         1 CALL_STMT
     0-0-0/w STRC(216)         1 CCOSU                      0-0-0/w CHAR(4096)        1 CHARS
     0-0-0/w STRC(108)         1 CODED_MOVE                 0-0-0/w STRC(288)         1 COMPUTE_STMT
     0-0-0/w STRC(72)          1 CONT                       0-0-0/w STRC(288)         1 DEFERED_IDENTIFIER
     0-0-0/w STRC(252)         1 DEFERED_ID_TREE            0-0-0/w STRC(288)         1 DEFERED_QUAL_ID
     0-0-0/w STRC(288)         1 DEFERED_SUM_CLAUSE
     0-0-0/w STRC(288)         1 DEFERED_SUM_CLAUSE_LIST
     0-0-0/w STRC(144)         1 DEFLB                      0-0-0/w STRC(288)         1 DELETE_STMT
     0-0-0/w STRC(288)         1 DIVIDE_STMT                0-0-0/w STRC(144)         1 DOEND
     0-0-0/w STRC(396)         1 DO_N                       0-0-0/w STRC(180)         1 DV4I
     0-0-0/w STRC(180)         1 ENTRY_ILL                  0-0-0/w STRC(108)         1 EVALU
     0-0-0/w STRC(144)         1 GO                         0-0-0/w STRC(180)         1 ILL
     0-0-0/w STRC              1 ILL_NO_OPS                 0-0-0/w STRC(288)         1 ILS_LIST
     0-0-0/w STRC(288)         1 INSPECT_1_STMT             0-0-0/w STRC(288)         1 INSPECT_2_STMT
     0-0-0/w STRC(288)         1 INSPECT_4_STMT             0-0-0/w STRC(288)         1 LA_ITEM
     0-0-0/w STRC(108)         1 LINOI                      0-0-0/w STRC(504)         1 LX_CD_INPUT
     0-0-0/w STRC(324)         1 LX_CD_I_O                  0-0-0/w STRC(396)         1 LX_CD_OUTPUT
     0-0-0/w STRC(288)   r     1 LX_ETT_ITEM                0-0-0/w STRC(288)         1 LX_ITEM
     0-0-0/w STRC(288)         1 LX_LARGE                   0-0-0/w STRC(288)         1 LX_LIST
     0-0-0/w STRC(1224)        1 LX_REC_DECL                0-0-0/w STRC(864)         1 LX_REPORT_REC
     0-0-0/w STRC(288)         1 LX_TERMINAL                0-0-0/w STRC(72)          1 MFILL
     0-0-0/w STRC(288)         1 MULTIPLY_STMT              0-0-0/w STRC(180)         1 MULTI_GO
     0-0-0/w STRC(180)         1 MVEAL                      0-0-0/w STRC(108)         1 MVFIL
     0-0-0/w STRC(72)          1 MVIIS                      0-0-0/w STRC(180)         1 OS_CALL
     0-0-0/w STRC(36864)       1 PAGE                       0-0-0/w STRC(216)         1 PFORM
     0-0-0/w STRC(144)         1 PINC                       0-0-0/w STRC(144)         1 PREOFF
     0-0-0/w STRC(108)         1 PRESET                     0-0-0/w STRC(144)         1 P_A_PRESET
     0-0-0/w STRC(144)         1 P_P_PRESET                 0-0-0/w STRC(288)         1 READ_STMT
PL6.E3A0      #007=Z9EN$RELEASE File=Z9EN.:Z8A6TSI                               SAT 08/09/97 14:00 Page:394
     0-0-0/w STRC(144)         1 REMEM                      0-0-0/w STRC(288)         1 REWRITE_STMT
     0-0-0/w STRC(144)         1 SCOPE                      0-0-0/w STRC(216)         1 SEARCH_
     0-0-0/w STRC(288)         1 START_STMT                 0-0-0/w STRC(72)          1 STP2
     0-0-0/w STRC(252)         1 STRING_STMT                0-0-0/w STRC(288)         1 SUBTRACT_STMT
     0-0-0/w STRC(144)         1 TRINARY_ILL                0-0-0/w STRC(72)          1 UNARY_ILL
     0-0-0/w STRC(288)         1 UNARY_OP                   0-0-0/w STRC(288)         1 UNSTRING_STMT
     0-0-0/w STRC(216)   r     1 USER_CALL                  0-0-0/w STRC(108)         1 VAL
     0-0-0/w STRC(108)         1 VAL_END                    0-0-0/w STRC(72)          1 WHEN
     0-0-0/w STRC(288)         1 WRITE_STMT


   Procedure Z9EN$RELEASE requires 74 words for executable code.
   Procedure Z9EN$RELEASE requires 26 words of local(AUTO) storage.

