PL6.E3A0      #008=Z9EN$TP_SUB_CALL File=Z9EN.:Z8A6TSI                           SAT 08/09/97 14:01 Page:395
     2202        1        /*T***********************************************************/
     2203        2        /*T*                                                         */
     2204        3        /*T* Copyright (c) Bull HN Information Systems Inc., 1997    */
     2205        4        /*T*                                                         */
     2206        5        /*T***********************************************************/
     2207        6         /*================*/
     2208        7           Z9EN$TP_SUB_CALL: PROC (LX_ETT$, SYMREF$, ARG_NO);
     2209        8         /*================*/
     2210        9
     2211       10         /*
     2212       11             This program issue an error message for the SEND or RECEIVE
     2213       12             statements that are not implemented on CP-6 COBOL85 yet.
     2214       13         */
     2215       14
     2216       15
     2217       16        %EQU PHASE = 1;
     2218       17
     2219       18        %INCLUDE Z8A_DEFC;
     2220       86        %INCLUDE Z8A_SUPP_MAC;
     2221     2486        %INCLUDE Z8E_STACKS;
     2222     4752        %INCLUDE Z8E_MACROS;
     2223     5427        %INCLUDE Z8A_ERR_NUMS;
     2224     6191        %INCLUDE Z8E_O1COM;
     2225     6952        %INCLUDE Z8A_ILL;
     2226     7645
     2227     7646
     2228     7647    1   DCL LX_ETT$            PTR;
     2229     7648    1   DCL SYMREF$            PTR;
     2230     7649    1   DCL ARG_NO             SBIN WORD;
     2231     7650    1   DCL RT_DESC_LIST$      PTR;
     2232     7651    1   DCL RT_ARG_LIST$       PTR;
     2233     7652
     2234     7653
     2235     7654    1   DCL Z9EY$BUILD_RUNTIME_DESCRIPTOR ENTRY(3);
     2236     7655    1   DCL Z8EY$BUILD_RUNTIME_ARGLIST    ENTRY(3);
     2237     7656    1   DCL Z8AE$ERROR             ENTRY (12);
     2238     7657
PL6.E3A0      #008=Z9EN$TP_SUB_CALL File=Z9EN.:Z8A6TSI                           SAT 08/09/97 14:01 Page:396
     2239     7658
     2240     7659          /*
     2241     7660           CALL Z8AE$ERROR (%E$NOT_IMPLEMENTED,
     2242     7661                            LX_ETT$ -> LX_ETT_ITEM.LINE,
     2243     7662                            LX_ETT$ -> LX_ETT_ITEM.COLUMN);
     2244     7663          */
     2245     7664
     2246     7665    1      CALL Z9EY$BUILD_RUNTIME_DESCRIPTOR (LX_ETT$,
     2247     7666    1                                          RT_DESC_LIST$,
     2248     7667    1                                          ARG_NO);
     2249     7668
     2250     7669    1      CALL Z8EY$BUILD_RUNTIME_ARGLIST (LX_ETT$,
     2251     7670    1                                       RT_ARG_LIST$,
     2252     7671    1                                       ARG_NO);
     2253     7672
     2254     7673           %NEW_ILL (@ID       = %USER_CALL,
     2255     7674                     @ROP      = RT_DESC_LIST$,
     2256     7675                     @LOP      = RT_ARG_LIST$,
     2257     7676                     @DESTINATION$ = SYMREF$);
     2258     8055
     2259     8056    1    END Z9EN$TP_SUB_CALL;
     2260     8057        %EOD;

PL6.E3A0      #008=Z9EN$TP_SUB_CALL File=Z9EN.:Z8A6TSI                           SAT 08/09/97 14:01 Page:397
--  Include file information  --

   Z8A_ILL.:Z8A6TOU  cannot be made into a system file and is referenced.
   Z8E_O1COM.:Z8A6TOU  cannot be made into a system file and is referenced.
   Z8A_ERR_NUMS.:Z8A6TOU  is referenced.
   Z8E_NEW_ILL.:Z8A6TOU  is referenced.
   Z8E_MACROS.:Z8A6TOU  cannot be made into a system file and is referenced.
   Z8A_LEX_SYMB.:Z8A6TOU  cannot be made into a system file and is referenced.
   Z8E_STACKS.:Z8A6TOU  cannot be made into a system file and is referenced.
   X8A_COM_MACS.:X8A6TOU  is referenced.
   Z8A_NAMES.:Z8A6TOU  is referenced.
   Z8A_SUPP_MAC.:Z8A6TOU  is referenced.
   Z8A_DEFC.:Z8A6TOU  cannot be made into a system file and is referenced.
      No diagnostics issued in procedure Z9EN$TP_SUB_CALL.

   Procedure Z9EN$TP_SUB_CALL requires 47 words for executable code.
   Procedure Z9EN$TP_SUB_CALL requires 14 words of local(AUTO) storage.

PL6.E3A0      #008=Z9EN$TP_SUB_CALL File=Z9EN.:Z8A6TSI                           SAT 08/09/97 14:01 Page:398

 Object Unit name= Z9EN$TP_SUB_CALL                           File name= Z9EN.:Z8A6TOU
 UTS= AUG 09 '97 14:01:34.32 SAT                              Compiler= PL-6/E31         Sev=      00
 SharedLib= :SHARED_SYSTEM                                    Alt SharedLib=


    ****  Control sections  ****

 Sect   Type Bound  Init  Size OctSiz  Section name(segment info)
    0  LblCom even  none     1      1  ITERATION
    1  LblCom even  none    90    132  LEX_SYMBOL
    2  LblCom even  none     1      1  CURRENT_LEX_SYMBOL$
    3  LblCom even  none    90    132  TEMP_LEX_SYMBOL
    4  LblCom even  none    90    132  TEMP_LEX_SYMBOL2
    5  LblCom even  none     1      1  ILL$
    6  LblCom even  none     5      5  ILL_
    7   Proc  even  none    47     57  Z9EN$TP_SUB_CALL
    8  RoData even  none     9     11  Z9EN$TP_SUB_CALL

    ****  Entry defs  ****

                              Check   Calling
                             calling  sequence
  Sect OctLoc Primary Altret sequence   type   Parms  Name
     7      0   yes            yes      Std        3  Z9EN$TP_SUB_CALL

  ****  Entry refs  ****

         Check        Calling
        calling       sequence
Altret sequence SRef   type   Args  Name
         yes           Std       3 Z9EY$BUILD_RUNTIME_DESCRIPTOR
         yes           Std       4 Z8AN$NEW_ILL
         yes           Std       3 Z8EY$BUILD_RUNTIME_ARGLIST
                       nStd      0 X66_AUTO_3
                       nStd      0 X66_ARET
PL6.E3A0      #008=Z9EN$TP_SUB_CALL File=Z9EN.:Z8A6TSI                           SAT 08/09/97 14:01 Page:399

  ****  Data refs  ****

  Flags:  r = read only, s = secondary
Flgs Name                             Flgs Name                             Flgs Name
     O1COM                                 HIER_STK_PTR                          HIER_STK
     PAGE_FORMAT                           REP_STK_PTR                           REP_STK
r    ILL_STEP

  ****  Segment refs  ****

  Flags:  r = read only, s = secondary
Flgs Name                             Flgs Name                             Flgs Name
     ISSID                                 NULLSID
PL6.E3A0      #008=Z9EN$TP_SUB_CALL File=Z9EN.:Z8A6TSI                           SAT 08/09/97 14:01 Page:400


     2202        1        /*T***********************************************************/
     2203        2        /*T*                                                         */
     2204        3        /*T* Copyright (c) Bull HN Information Systems Inc., 1997    */
     2205        4        /*T*                                                         */
     2206        5        /*T***********************************************************/
     2207        6         /*================*/
     2208        7           Z9EN$TP_SUB_CALL: PROC (LX_ETT$, SYMREF$, ARG_NO);

      7  7 000000   000000 700200 xent  Z9EN$TP_SUB* TSX0  ! X66_AUTO_3
         7 000001   000016 000003                    ZERO    14,3

     2209        8         /*================*/
     2210        9
     2211       10         /*
     2212       11             This program issue an error message for the SEND or RECEIVE
     2213       12             statements that are not implemented on CP-6 COBOL85 yet.
     2214       13         */
     2215       14
     2216       15
     2217       16        %EQU PHASE = 1;
     2218       17
     2219       18        %INCLUDE Z8A_DEFC;
     2220       86        %INCLUDE Z8A_SUPP_MAC;
     2221     2486        %INCLUDE Z8E_STACKS;
     2222     4752        %INCLUDE Z8E_MACROS;
     2223     5427        %INCLUDE Z8A_ERR_NUMS;
     2224     6191        %INCLUDE Z8E_O1COM;
     2225     6952        %INCLUDE Z8A_ILL;
     2226     7645
     2227     7646
     2228     7647    1   DCL LX_ETT$            PTR;
     2229     7648    1   DCL SYMREF$            PTR;
     2230     7649    1   DCL ARG_NO             SBIN WORD;
     2231     7650    1   DCL RT_DESC_LIST$      PTR;
     2232     7651    1   DCL RT_ARG_LIST$       PTR;
     2233     7652
PL6.E3A0      #008=Z9EN$TP_SUB_CALL File=Z9EN.:Z8A6TSI                           SAT 08/09/97 14:01 Page:401
     2234     7653
     2235     7654    1   DCL Z9EY$BUILD_RUNTIME_DESCRIPTOR ENTRY(3);
     2236     7655    1   DCL Z8EY$BUILD_RUNTIME_ARGLIST    ENTRY(3);
     2237     7656    1   DCL Z8AE$ERROR             ENTRY (12);
     2238     7657
     2239     7658
     2240     7659          /*
     2241     7660           CALL Z8AE$ERROR (%E$NOT_IMPLEMENTED,
     2242     7661                            LX_ETT$ -> LX_ETT_ITEM.LINE,
     2243     7662                            LX_ETT$ -> LX_ETT_ITEM.COLUMN);
     2244     7663          */
     2245     7664
     2246     7665    1      CALL Z9EY$BUILD_RUNTIME_DESCRIPTOR (LX_ETT$,

   7665  7 000002   200005 236100                    LDQ     @ARG_NO,,AUTO
         7 000003   200012 756100                    STQ     RT_ARG_LIST$+3,,AUTO
         7 000004   200006 630500                    EPPR0   RT_DESC_LIST$,,AUTO
         7 000005   200011 450500                    STP0    RT_ARG_LIST$+2,,AUTO
         7 000006   200003 236100                    LDQ     @LX_ETT$,,AUTO
         7 000007   200010 756100                    STQ     RT_ARG_LIST$+1,,AUTO
         7 000010   200010 630500                    EPPR0   RT_ARG_LIST$+1,,AUTO
         7 000011   000000 631400 8                  EPPR1   0
         7 000012   000000 701000 xent               TSX1    Z9EY$BUILD_RUNTIME_DESCRIPTOR
         7 000013   000000 011000                    NOP     0

     2247     7666    1                                          RT_DESC_LIST$,
     2248     7667    1                                          ARG_NO);
     2249     7668
     2250     7669    1      CALL Z8EY$BUILD_RUNTIME_ARGLIST (LX_ETT$,

   7669  7 000014   200005 236100                    LDQ     @ARG_NO,,AUTO
         7 000015   200012 756100                    STQ     RT_ARG_LIST$+3,,AUTO
         7 000016   200007 630500                    EPPR0   RT_ARG_LIST$,,AUTO
         7 000017   200011 450500                    STP0    RT_ARG_LIST$+2,,AUTO
         7 000020   200003 236100                    LDQ     @LX_ETT$,,AUTO
         7 000021   200010 756100                    STQ     RT_ARG_LIST$+1,,AUTO
         7 000022   200010 630500                    EPPR0   RT_ARG_LIST$+1,,AUTO
PL6.E3A0      #008=Z9EN$TP_SUB_CALL File=Z9EN.:Z8A6TSI                           SAT 08/09/97 14:01 Page:402
         7 000023   000000 631400 8                  EPPR1   0
         7 000024   000000 701000 xent               TSX1    Z8EY$BUILD_RUNTIME_ARGLIST
         7 000025   000000 011000                    NOP     0

     2251     7670    1                                       RT_ARG_LIST$,
     2252     7671    1                                       ARG_NO);
     2253     7672
     2254     7673           %NEW_ILL (@ID       = %USER_CALL,
     2255     7674                     @ROP      = RT_DESC_LIST$,
     2256     7675                     @LOP      = RT_ARG_LIST$,
     2257     7676                     @DESTINATION$ = SYMREF$);

   7784  7 000026   000004 236000 8                  LDQ     4
         7 000027   200010 756100                    STQ     RT_ARG_LIST$+1,,AUTO
         7 000030   200010 630500                    EPPR0   RT_ARG_LIST$+1,,AUTO
         7 000031   200015 450500                    STP0    RT_ARG_LIST$+6,,AUTO
         7 000032   000005 236000 8                  LDQ     5
         7 000033   200014 756100                    STQ     RT_ARG_LIST$+5,,AUTO
         7 000034   000006 237000 8                  LDAQ    6
         7 000035   200012 757100                    STAQ    RT_ARG_LIST$+3,,AUTO
         7 000036   200012 630500                    EPPR0   RT_ARG_LIST$+3,,AUTO
         7 000037   000001 631400 8                  EPPR1   1
         7 000040   000000 701000 xent               TSX1    Z8AN$NEW_ILL
         7 000041   000000 011000                    NOP     0

   7785  7 000042   200007 236100                    LDQ     RT_ARG_LIST$,,AUTO
         7 000043   000000 470400 5                  LDP0    ILL$
         7 000044   000001 756100                    STQ     1,,PR0

   7786  7 000045   200006 236100                    LDQ     RT_DESC_LIST$,,AUTO
         7 000046   000002 756100                    STQ     2,,PR0

   7787  7 000047   200004 471500                    LDP1    @SYMREF$,,AUTO
         7 000050   100000 236100                    LDQ     0,,PR1
         7 000051   000005 756100                    STQ     5,,PR0

   7788  7 000052   000010 236000 8                  LDQ     8
PL6.E3A0      #008=Z9EN$TP_SUB_CALL File=Z9EN.:Z8A6TSI                           SAT 08/09/97 14:01 Page:403
         7 000053   000003 756100                    STQ     3,,PR0

   7790  7 000054   000010 236000 8                  LDQ     8
         7 000055   000004 756100                    STQ     4,,PR0

     2258     8055
     2259     8056    1    END Z9EN$TP_SUB_CALL;

   8056  7 000056   000000 702200 xent               TSX2  ! X66_ARET
     2260     8057        %EOD;

PL6.E3A0      #008=Z9EN$TP_SUB_CALL File=Z9EN.:Z8A6TSI                           SAT 08/09/97 14:01 Page:404
--  Include file information  --

   Z8A_ILL.:Z8A6TOU  cannot be made into a system file and is referenced.
   Z8E_O1COM.:Z8A6TOU  cannot be made into a system file and is referenced.
   Z8A_ERR_NUMS.:Z8A6TOU  is referenced.
   Z8E_NEW_ILL.:Z8A6TOU  is referenced.
   Z8E_MACROS.:Z8A6TOU  cannot be made into a system file and is referenced.
   Z8A_LEX_SYMB.:Z8A6TOU  cannot be made into a system file and is referenced.
   Z8E_STACKS.:Z8A6TOU  cannot be made into a system file and is referenced.
   X8A_COM_MACS.:X8A6TOU  is referenced.
   Z8A_NAMES.:Z8A6TOU  is referenced.
   Z8A_SUPP_MAC.:Z8A6TOU  is referenced.
   Z8A_DEFC.:Z8A6TOU  cannot be made into a system file and is referenced.
      No diagnostics issued in procedure Z9EN$TP_SUB_CALL.
PL6.E3A0      #008=Z9EN$TP_SUB_CALL File=Z9EN.:Z8A6TSI                           SAT 08/09/97 14:01 Page:405

 **** Variables and constants ****

  ****  Section 000 LblCom ITERATION

  ****  Scalars and arrays  ****
OctLoc.c.b A Datatyp(siz) R M Lvl/name                 OctLoc.c.b A Datatyp(siz) R M Lvl/name

     0-0-0/w SBIN              1 ITERATION

  ****  Section 001 LblCom LEX_SYMBOL

  ****  Scalars and arrays  ****
OctLoc.c.b A Datatyp(siz) R M Lvl/name                 OctLoc.c.b A Datatyp(siz) R M Lvl/name

     0-0-0/w STRC(3240)  r     1 LEX_SYMBOL                 0-0-0/w STRC(3240)        1 LEX_SYMBOL_WORDS

  ****  Section 002 LblCom CURRENT_LEX_SYMBOL$

  ****  Scalars and arrays  ****
OctLoc.c.b A Datatyp(siz) R M Lvl/name                 OctLoc.c.b A Datatyp(siz) R M Lvl/name

     0-0-0/w PTR         r     1 CURRENT_LEX_SYMBOL$

  ****  Section 003 LblCom TEMP_LEX_SYMBOL

  ****  Scalars and arrays  ****
OctLoc.c.b A Datatyp(siz) R M Lvl/name                 OctLoc.c.b A Datatyp(siz) R M Lvl/name

     0-0-0/w STRC(3240)        1 TEMP_LEX_SYMBOL

  ****  Section 004 LblCom TEMP_LEX_SYMBOL2

  ****  Scalars and arrays  ****
OctLoc.c.b A Datatyp(siz) R M Lvl/name                 OctLoc.c.b A Datatyp(siz) R M Lvl/name

     0-0-0/w STRC(3240)        1 TEMP_LEX_SYMBOL2

PL6.E3A0      #008=Z9EN$TP_SUB_CALL File=Z9EN.:Z8A6TSI                           SAT 08/09/97 14:01 Page:406
  ****  Section 005 LblCom ILL$

  ****  Scalars and arrays  ****
OctLoc.c.b A Datatyp(siz) R M Lvl/name                 OctLoc.c.b A Datatyp(siz) R M Lvl/name

     0-0-0/w PTR         r     1 ILL$

  ****  Section 006 LblCom ILL_

  ****  Scalars and arrays  ****
OctLoc.c.b A Datatyp(siz) R M Lvl/name                 OctLoc.c.b A Datatyp(siz) R M Lvl/name

     0-0-0/w STRC(180)         1 ILL_

  ****  Auto variables  ****

  ****  Scalars and arrays  ****
OctLoc.c.b A Datatyp(siz) R M Lvl/name                 OctLoc.c.b A Datatyp(siz) R M Lvl/name

     5-0-0/w PTR         r     1 @ARG_NO                    3-0-0/w PTR         r     1 @LX_ETT$
     4-0-0/w PTR         r     1 @SYMREF$                  *0-0-0/w SBIN        r     1 ARG_NO
    *0-0-0/w PTR         r     1 LX_ETT$                    7-0-0/w PTR         r     1 RT_ARG_LIST$
     6-0-0/w PTR         r     1 RT_DESC_LIST$             *0-0-0/w PTR         r     1 SYMREF$

  ****  SYMREF variables  ****

  ****  Scalars and arrays  ****
OctLoc.c.b A Datatyp(siz) R M Lvl/name                 OctLoc.c.b A Datatyp(siz) R M Lvl/name

     0-0-0/w STRC(180)         1 HIER_STK(0:50)
     0-0-0/w SBIN              1 HIER_STK_PTR               0-0-0/w UBIN              1 ILL_STEP(0:144)
     0-0-0/d STRC(11580) r     1 O1COM                      0-0-0/w STRC(144)         1 PAGE_FORMAT
     0-0-0/w STRC(153)         1 REP_STK(0:50)              0-0-0/w SBIN              1 REP_STK_PTR

  ****  BASED and DCB variables  ****

  ****  Scalars and arrays  ****
PL6.E3A0      #008=Z9EN$TP_SUB_CALL File=Z9EN.:Z8A6TSI                           SAT 08/09/97 14:01 Page:407
OctLoc.c.b A Datatyp(siz) R M Lvl/name                 OctLoc.c.b A Datatyp(siz) R M Lvl/name

     0-0-0/w STRC(108)         1 ACCEPT_DISPLAY             0-0-0/w STRC(288)         1 ADD_STMT
     0-0-0/w ASTR(324)   r     1 BASED_LEX_SYMBOL
     0-0-0/w STRC(360)         1 BASED_LEX_SYMBOL_WORDS
     0-0-0/w STRC(108)         1 BINARY_ILL                 0-0-0/w STRC(288)         1 BINARY_OP
     0-0-0/w STRC(144)         1 BRANCH_ILL                 0-0-0/w STRC(288)         1 CALL_STMT
     0-0-0/w STRC(216)         1 CCOSU                      0-0-0/w CHAR(4096)        1 CHARS
     0-0-0/w STRC(108)         1 CODED_MOVE                 0-0-0/w STRC(288)         1 COMPUTE_STMT
     0-0-0/w STRC(72)          1 CONT                       0-0-0/w STRC(288)         1 DEFERED_IDENTIFIER
     0-0-0/w STRC(252)         1 DEFERED_ID_TREE            0-0-0/w STRC(288)         1 DEFERED_QUAL_ID
     0-0-0/w STRC(288)         1 DEFERED_SUM_CLAUSE
     0-0-0/w STRC(288)         1 DEFERED_SUM_CLAUSE_LIST
     0-0-0/w STRC(144)         1 DEFLB                      0-0-0/w STRC(288)         1 DELETE_STMT
     0-0-0/w STRC(288)         1 DIVIDE_STMT                0-0-0/w STRC(144)         1 DOEND
     0-0-0/w STRC(396)         1 DO_N                       0-0-0/w STRC(180)         1 DV4I
     0-0-0/w STRC(180)         1 ENTRY_ILL                  0-0-0/w STRC(108)         1 EVALU
     0-0-0/w STRC(144)         1 GO                         0-0-0/w STRC(180)         1 ILL
     0-0-0/w STRC              1 ILL_NO_OPS                 0-0-0/w STRC(288)         1 ILS_LIST
     0-0-0/w STRC(288)         1 INSPECT_1_STMT             0-0-0/w STRC(288)         1 INSPECT_2_STMT
     0-0-0/w STRC(288)         1 INSPECT_4_STMT             0-0-0/w STRC(288)         1 LA_ITEM
     0-0-0/w STRC(108)         1 LINOI                      0-0-0/w STRC(504)         1 LX_CD_INPUT
     0-0-0/w STRC(324)         1 LX_CD_I_O                  0-0-0/w STRC(396)         1 LX_CD_OUTPUT
     0-0-0/w STRC(288)         1 LX_ETT_ITEM                0-0-0/w STRC(288)         1 LX_ITEM
     0-0-0/w STRC(288)         1 LX_LARGE                   0-0-0/w STRC(288)         1 LX_LIST
     0-0-0/w STRC(1224)        1 LX_REC_DECL                0-0-0/w STRC(864)         1 LX_REPORT_REC
     0-0-0/w STRC(288)         1 LX_TERMINAL                0-0-0/w STRC(72)          1 MFILL
     0-0-0/w STRC(288)         1 MULTIPLY_STMT              0-0-0/w STRC(180)         1 MULTI_GO
     0-0-0/w STRC(180)         1 MVEAL                      0-0-0/w STRC(108)         1 MVFIL
     0-0-0/w STRC(72)          1 MVIIS                      0-0-0/w STRC(180)         1 OS_CALL
     0-0-0/w STRC(36864)       1 PAGE                       0-0-0/w STRC(216)         1 PFORM
     0-0-0/w STRC(144)         1 PINC                       0-0-0/w STRC(144)         1 PREOFF
     0-0-0/w STRC(108)         1 PRESET                     0-0-0/w STRC(144)         1 P_A_PRESET
     0-0-0/w STRC(144)         1 P_P_PRESET                 0-0-0/w STRC(288)         1 READ_STMT
     0-0-0/w STRC(144)         1 REMEM                      0-0-0/w STRC(288)         1 REWRITE_STMT
     0-0-0/w STRC(144)         1 SCOPE                      0-0-0/w STRC(216)         1 SEARCH_
     0-0-0/w STRC(288)         1 START_STMT                 0-0-0/w STRC(72)          1 STP2
PL6.E3A0      #008=Z9EN$TP_SUB_CALL File=Z9EN.:Z8A6TSI                           SAT 08/09/97 14:01 Page:408
     0-0-0/w STRC(252)         1 STRING_STMT                0-0-0/w STRC(288)         1 SUBTRACT_STMT
     0-0-0/w STRC(144)         1 TRINARY_ILL                0-0-0/w STRC(72)          1 UNARY_ILL
     0-0-0/w STRC(288)         1 UNARY_OP                   0-0-0/w STRC(288)         1 UNSTRING_STMT
     0-0-0/w STRC(216)   r     1 USER_CALL                  0-0-0/w STRC(108)         1 VAL
     0-0-0/w STRC(108)         1 VAL_END                    0-0-0/w STRC(72)          1 WHEN
     0-0-0/w STRC(288)         1 WRITE_STMT


   Procedure Z9EN$TP_SUB_CALL requires 47 words for executable code.
   Procedure Z9EN$TP_SUB_CALL requires 14 words of local(AUTO) storage.

PL6.E3A0      #009=Z9EN$SUB_CALL File=Z9EN.:Z8A6TSI                              SAT 08/09/97 14:02 Page:409
     2261        1        /*T***********************************************************/
     2262        2        /*T*                                                         */
     2263        3        /*T* Copyright (c) Bull HN Information Systems Inc., 1997    */
     2264        4        /*T*                                                         */
     2265        5        /*T***********************************************************/
     2266        6         /*=============*/
     2267        7           Z9EN$SUB_CALL: PROC (ARG_LIST$, DESC_LIST$, SYMREF$, ALTRET$, COBOL_74) ;
     2268        8         /*=============*/
     2269        9
     2270       10         /*
     2271       11             This routine is the CP-6 dependent CALL generator.
     2272       12         */
     2273       13
     2274       14
     2275       15        %EQU PHASE = 1;
     2276       16
     2277       17        %INCLUDE Z8A_DEFC;
     2278       85        %INCLUDE Z8A_SUPP_MAC;
     2279     2485        %INCLUDE Z8E_STACKS;
     2280     4751        %INCLUDE Z8E_MACROS;
     2281     5426        %INCLUDE Z8E_O1COM;
     2282     6187        %INCLUDE Z8A_ILL;
     2283     6880
     2284     6881
     2285     6882    1   DCL ARG_LIST$          PTR;
     2286     6883    1   DCL DESC_LIST$         PTR;
     2287     6884    1   DCL SYMREF$            PTR;
     2288     6885    1   DCL ALTRET$            PTR;
     2289     6886    1   DCL COBOL_74           BIT (1) ALIGNED ;
     2290     6887
     2291     6888
     2292     6889           %NEW_ILL (@ID           = %USER_CALL,
     2293     6890                     @ROP          = DESC_LIST$,
     2294     6891                     @LOP          = ARG_LIST$,
     2295     6892                     @DESTINATION$ = SYMREF$,
     2296     6893                     @ALTRET       = ALTRET$) ;
     2297     7272
PL6.E3A0      #009=Z9EN$SUB_CALL File=Z9EN.:Z8A6TSI                              SAT 08/09/97 14:02 Page:410
     2298     7273    1    END Z9EN$SUB_CALL;
     2299     7274        %EOD;

PL6.E3A0      #009=Z9EN$SUB_CALL File=Z9EN.:Z8A6TSI                              SAT 08/09/97 14:02 Page:411
--  Include file information  --

   Z8A_ILL.:Z8A6TOU  cannot be made into a system file and is referenced.
   Z8E_O1COM.:Z8A6TOU  cannot be made into a system file and is referenced.
   Z8E_NEW_ILL.:Z8A6TOU  is referenced.
   Z8E_MACROS.:Z8A6TOU  cannot be made into a system file and is referenced.
   Z8A_LEX_SYMB.:Z8A6TOU  cannot be made into a system file and is referenced.
   Z8E_STACKS.:Z8A6TOU  cannot be made into a system file and is referenced.
   X8A_COM_MACS.:X8A6TOU  is referenced.
   Z8A_NAMES.:Z8A6TOU  is referenced.
   Z8A_SUPP_MAC.:Z8A6TOU  is referenced.
   Z8A_DEFC.:Z8A6TOU  cannot be made into a system file and is referenced.
      No diagnostics issued in procedure Z9EN$SUB_CALL.

   Procedure Z9EN$SUB_CALL requires 30 words for executable code.
   Procedure Z9EN$SUB_CALL requires 14 words of local(AUTO) storage.

PL6.E3A0      #009=Z9EN$SUB_CALL File=Z9EN.:Z8A6TSI                              SAT 08/09/97 14:02 Page:412

 Object Unit name= Z9EN$SUB_CALL                              File name= Z9EN.:Z8A6TOU
 UTS= AUG 09 '97 14:02:20.80 SAT                              Compiler= PL-6/E31         Sev=      00
 SharedLib= :SHARED_SYSTEM                                    Alt SharedLib=


    ****  Control sections  ****

 Sect   Type Bound  Init  Size OctSiz  Section name(segment info)
    0  LblCom even  none     1      1  ITERATION
    1  LblCom even  none    90    132  LEX_SYMBOL
    2  LblCom even  none     1      1  CURRENT_LEX_SYMBOL$
    3  LblCom even  none    90    132  TEMP_LEX_SYMBOL
    4  LblCom even  none    90    132  TEMP_LEX_SYMBOL2
    5  LblCom even  none     1      1  ILL$
    6  LblCom even  none     5      5  ILL_
    7   Proc  even  none    30     36  Z9EN$SUB_CALL
    8  RoData even  none     9     11  Z9EN$SUB_CALL

    ****  Entry defs  ****

                              Check   Calling
                             calling  sequence
  Sect OctLoc Primary Altret sequence   type   Parms  Name
     7      0   yes            yes      Std        5  Z9EN$SUB_CALL

  ****  Entry refs  ****

         Check        Calling
        calling       sequence
Altret sequence SRef   type   Args  Name
         yes           Std       4 Z8AN$NEW_ILL
                       nStd      0 X66_AUTO_5
                       nStd      0 X66_ARET
PL6.E3A0      #009=Z9EN$SUB_CALL File=Z9EN.:Z8A6TSI                              SAT 08/09/97 14:02 Page:413

  ****  Data refs  ****

  Flags:  r = read only, s = secondary
Flgs Name                             Flgs Name                             Flgs Name
     O1COM                                 HIER_STK_PTR                          HIER_STK
     PAGE_FORMAT                           REP_STK_PTR                           REP_STK
r    ILL_STEP

  ****  Segment refs  ****

  Flags:  r = read only, s = secondary
Flgs Name                             Flgs Name                             Flgs Name
     ISSID                                 NULLSID
PL6.E3A0      #009=Z9EN$SUB_CALL File=Z9EN.:Z8A6TSI                              SAT 08/09/97 14:02 Page:414


     2261        1        /*T***********************************************************/
     2262        2        /*T*                                                         */
     2263        3        /*T* Copyright (c) Bull HN Information Systems Inc., 1997    */
     2264        4        /*T*                                                         */
     2265        5        /*T***********************************************************/
     2266        6         /*=============*/
     2267        7           Z9EN$SUB_CALL: PROC (ARG_LIST$, DESC_LIST$, SYMREF$, ALTRET$, COBOL_74) ;

      7  7 000000   000000 700200 xent  Z9EN$SUB_CA* TSX0  ! X66_AUTO_5
         7 000001   000016 000005                    ZERO    14,5

     2268        8         /*=============*/
     2269        9
     2270       10         /*
     2271       11             This routine is the CP-6 dependent CALL generator.
     2272       12         */
     2273       13
     2274       14
     2275       15        %EQU PHASE = 1;
     2276       16
     2277       17        %INCLUDE Z8A_DEFC;
     2278       85        %INCLUDE Z8A_SUPP_MAC;
     2279     2485        %INCLUDE Z8E_STACKS;
     2280     4751        %INCLUDE Z8E_MACROS;
     2281     5426        %INCLUDE Z8E_O1COM;
     2282     6187        %INCLUDE Z8A_ILL;
     2283     6880
     2284     6881
     2285     6882    1   DCL ARG_LIST$          PTR;
     2286     6883    1   DCL DESC_LIST$         PTR;
     2287     6884    1   DCL SYMREF$            PTR;
     2288     6885    1   DCL ALTRET$            PTR;
     2289     6886    1   DCL COBOL_74           BIT (1) ALIGNED ;
     2290     6887
     2291     6888
     2292     6889           %NEW_ILL (@ID           = %USER_CALL,
PL6.E3A0      #009=Z9EN$SUB_CALL File=Z9EN.:Z8A6TSI                              SAT 08/09/97 14:02 Page:415
     2293     6890                     @ROP          = DESC_LIST$,
     2294     6891                     @LOP          = ARG_LIST$,
     2295     6892                     @DESTINATION$ = SYMREF$,
     2296     6893                     @ALTRET       = ALTRET$) ;

   7001  7 000002   000003 236000 8                  LDQ     3
         7 000003   200010 756100                    STQ     @COBOL_74+1,,AUTO
         7 000004   200010 630500                    EPPR0   @COBOL_74+1,,AUTO
         7 000005   200015 450500                    STP0    @COBOL_74+6,,AUTO
         7 000006   000004 236000 8                  LDQ     4
         7 000007   200014 756100                    STQ     @COBOL_74+5,,AUTO
         7 000010   000006 237000 8                  LDAQ    6
         7 000011   200012 757100                    STAQ    @COBOL_74+3,,AUTO
         7 000012   200012 630500                    EPPR0   @COBOL_74+3,,AUTO
         7 000013   000000 631400 8                  EPPR1   0
         7 000014   000000 701000 xent               TSX1    Z8AN$NEW_ILL
         7 000015   000000 011000                    NOP     0

   7002  7 000016   200003 470500                    LDP0    @ARG_LIST$,,AUTO
         7 000017   000000 236100                    LDQ     0,,PR0
         7 000020   000000 471400 5                  LDP1    ILL$
         7 000021   100001 756100                    STQ     1,,PR1

   7003  7 000022   200004 473500                    LDP3    @DESC_LIST$,,AUTO
         7 000023   300000 236100                    LDQ     0,,PR3
         7 000024   100002 756100                    STQ     2,,PR1

   7004  7 000025   200005 474500                    LDP4    @SYMREF$,,AUTO
         7 000026   400000 236100                    LDQ     0,,PR4
         7 000027   100005 756100                    STQ     5,,PR1

   7005  7 000030   000010 236000 8                  LDQ     8
         7 000031   100003 756100                    STQ     3,,PR1

   7009  7 000032   200006 475500                    LDP5    @ALTRET$,,AUTO
         7 000033   500000 236100                    LDQ     0,,PR5
         7 000034   100004 756100                    STQ     4,,PR1
PL6.E3A0      #009=Z9EN$SUB_CALL File=Z9EN.:Z8A6TSI                              SAT 08/09/97 14:02 Page:416

     2297     7272
     2298     7273    1    END Z9EN$SUB_CALL;

   7273  7 000035   000000 702200 xent               TSX2  ! X66_ARET
     2299     7274        %EOD;

PL6.E3A0      #009=Z9EN$SUB_CALL File=Z9EN.:Z8A6TSI                              SAT 08/09/97 14:02 Page:417
--  Include file information  --

   Z8A_ILL.:Z8A6TOU  cannot be made into a system file and is referenced.
   Z8E_O1COM.:Z8A6TOU  cannot be made into a system file and is referenced.
   Z8E_NEW_ILL.:Z8A6TOU  is referenced.
   Z8E_MACROS.:Z8A6TOU  cannot be made into a system file and is referenced.
   Z8A_LEX_SYMB.:Z8A6TOU  cannot be made into a system file and is referenced.
   Z8E_STACKS.:Z8A6TOU  cannot be made into a system file and is referenced.
   X8A_COM_MACS.:X8A6TOU  is referenced.
   Z8A_NAMES.:Z8A6TOU  is referenced.
   Z8A_SUPP_MAC.:Z8A6TOU  is referenced.
   Z8A_DEFC.:Z8A6TOU  cannot be made into a system file and is referenced.
      No diagnostics issued in procedure Z9EN$SUB_CALL.
PL6.E3A0      #009=Z9EN$SUB_CALL File=Z9EN.:Z8A6TSI                              SAT 08/09/97 14:02 Page:418

 **** Variables and constants ****

  ****  Section 000 LblCom ITERATION

  ****  Scalars and arrays  ****
OctLoc.c.b A Datatyp(siz) R M Lvl/name                 OctLoc.c.b A Datatyp(siz) R M Lvl/name

     0-0-0/w SBIN              1 ITERATION

  ****  Section 001 LblCom LEX_SYMBOL

  ****  Scalars and arrays  ****
OctLoc.c.b A Datatyp(siz) R M Lvl/name                 OctLoc.c.b A Datatyp(siz) R M Lvl/name

     0-0-0/w STRC(3240)  r     1 LEX_SYMBOL                 0-0-0/w STRC(3240)        1 LEX_SYMBOL_WORDS

  ****  Section 002 LblCom CURRENT_LEX_SYMBOL$

  ****  Scalars and arrays  ****
OctLoc.c.b A Datatyp(siz) R M Lvl/name                 OctLoc.c.b A Datatyp(siz) R M Lvl/name

     0-0-0/w PTR         r     1 CURRENT_LEX_SYMBOL$

  ****  Section 003 LblCom TEMP_LEX_SYMBOL

  ****  Scalars and arrays  ****
OctLoc.c.b A Datatyp(siz) R M Lvl/name                 OctLoc.c.b A Datatyp(siz) R M Lvl/name

     0-0-0/w STRC(3240)        1 TEMP_LEX_SYMBOL

  ****  Section 004 LblCom TEMP_LEX_SYMBOL2

  ****  Scalars and arrays  ****
OctLoc.c.b A Datatyp(siz) R M Lvl/name                 OctLoc.c.b A Datatyp(siz) R M Lvl/name

     0-0-0/w STRC(3240)        1 TEMP_LEX_SYMBOL2

PL6.E3A0      #009=Z9EN$SUB_CALL File=Z9EN.:Z8A6TSI                              SAT 08/09/97 14:02 Page:419
  ****  Section 005 LblCom ILL$

  ****  Scalars and arrays  ****
OctLoc.c.b A Datatyp(siz) R M Lvl/name                 OctLoc.c.b A Datatyp(siz) R M Lvl/name

     0-0-0/w PTR         r     1 ILL$

  ****  Section 006 LblCom ILL_

  ****  Scalars and arrays  ****
OctLoc.c.b A Datatyp(siz) R M Lvl/name                 OctLoc.c.b A Datatyp(siz) R M Lvl/name

     0-0-0/w STRC(180)         1 ILL_

  ****  Auto variables  ****

  ****  Scalars and arrays  ****
OctLoc.c.b A Datatyp(siz) R M Lvl/name                 OctLoc.c.b A Datatyp(siz) R M Lvl/name

     6-0-0/w PTR         r     1 @ALTRET$                   3-0-0/w PTR         r     1 @ARG_LIST$
     7-0-0/w PTR         r     1 @COBOL_74                  4-0-0/w PTR         r     1 @DESC_LIST$
     5-0-0/w PTR         r     1 @SYMREF$                  *0-0-0/w PTR         r     1 ALTRET$
    *0-0-0/w PTR         r     1 ARG_LIST$                 *0-0-0/w BIT         r     1 COBOL_74
    *0-0-0/w PTR         r     1 DESC_LIST$                *0-0-0/w PTR         r     1 SYMREF$

  ****  SYMREF variables  ****

  ****  Scalars and arrays  ****
OctLoc.c.b A Datatyp(siz) R M Lvl/name                 OctLoc.c.b A Datatyp(siz) R M Lvl/name

     0-0-0/w STRC(180)         1 HIER_STK(0:50)
     0-0-0/w SBIN              1 HIER_STK_PTR               0-0-0/w UBIN              1 ILL_STEP(0:144)
     0-0-0/d STRC(11580) r     1 O1COM                      0-0-0/w STRC(144)         1 PAGE_FORMAT
     0-0-0/w STRC(153)         1 REP_STK(0:50)              0-0-0/w SBIN              1 REP_STK_PTR

  ****  BASED and DCB variables  ****

PL6.E3A0      #009=Z9EN$SUB_CALL File=Z9EN.:Z8A6TSI                              SAT 08/09/97 14:02 Page:420
  ****  Scalars and arrays  ****
OctLoc.c.b A Datatyp(siz) R M Lvl/name                 OctLoc.c.b A Datatyp(siz) R M Lvl/name

     0-0-0/w STRC(108)         1 ACCEPT_DISPLAY             0-0-0/w STRC(288)         1 ADD_STMT
     0-0-0/w ASTR(324)   r     1 BASED_LEX_SYMBOL
     0-0-0/w STRC(360)         1 BASED_LEX_SYMBOL_WORDS
     0-0-0/w STRC(108)         1 BINARY_ILL                 0-0-0/w STRC(288)         1 BINARY_OP
     0-0-0/w STRC(144)         1 BRANCH_ILL                 0-0-0/w STRC(288)         1 CALL_STMT
     0-0-0/w STRC(216)         1 CCOSU                      0-0-0/w CHAR(4096)        1 CHARS
     0-0-0/w STRC(108)         1 CODED_MOVE                 0-0-0/w STRC(288)         1 COMPUTE_STMT
     0-0-0/w STRC(72)          1 CONT                       0-0-0/w STRC(288)         1 DEFERED_IDENTIFIER
     0-0-0/w STRC(252)         1 DEFERED_ID_TREE            0-0-0/w STRC(288)         1 DEFERED_QUAL_ID
     0-0-0/w STRC(288)         1 DEFERED_SUM_CLAUSE
     0-0-0/w STRC(288)         1 DEFERED_SUM_CLAUSE_LIST
     0-0-0/w STRC(144)         1 DEFLB                      0-0-0/w STRC(288)         1 DELETE_STMT
     0-0-0/w STRC(288)         1 DIVIDE_STMT                0-0-0/w STRC(144)         1 DOEND
     0-0-0/w STRC(396)         1 DO_N                       0-0-0/w STRC(180)         1 DV4I
     0-0-0/w STRC(180)         1 ENTRY_ILL                  0-0-0/w STRC(108)         1 EVALU
     0-0-0/w STRC(144)         1 GO                         0-0-0/w STRC(180)         1 ILL
     0-0-0/w STRC              1 ILL_NO_OPS                 0-0-0/w STRC(288)         1 ILS_LIST
     0-0-0/w STRC(288)         1 INSPECT_1_STMT             0-0-0/w STRC(288)         1 INSPECT_2_STMT
     0-0-0/w STRC(288)         1 INSPECT_4_STMT             0-0-0/w STRC(288)         1 LA_ITEM
     0-0-0/w STRC(108)         1 LINOI                      0-0-0/w STRC(504)         1 LX_CD_INPUT
     0-0-0/w STRC(324)         1 LX_CD_I_O                  0-0-0/w STRC(396)         1 LX_CD_OUTPUT
     0-0-0/w STRC(288)         1 LX_ETT_ITEM                0-0-0/w STRC(288)         1 LX_ITEM
     0-0-0/w STRC(288)         1 LX_LARGE                   0-0-0/w STRC(288)         1 LX_LIST
     0-0-0/w STRC(1224)        1 LX_REC_DECL                0-0-0/w STRC(864)         1 LX_REPORT_REC
     0-0-0/w STRC(288)         1 LX_TERMINAL                0-0-0/w STRC(72)          1 MFILL
     0-0-0/w STRC(288)         1 MULTIPLY_STMT              0-0-0/w STRC(180)         1 MULTI_GO
     0-0-0/w STRC(180)         1 MVEAL                      0-0-0/w STRC(108)         1 MVFIL
     0-0-0/w STRC(72)          1 MVIIS                      0-0-0/w STRC(180)         1 OS_CALL
     0-0-0/w STRC(36864)       1 PAGE                       0-0-0/w STRC(216)         1 PFORM
     0-0-0/w STRC(144)         1 PINC                       0-0-0/w STRC(144)         1 PREOFF
     0-0-0/w STRC(108)         1 PRESET                     0-0-0/w STRC(144)         1 P_A_PRESET
     0-0-0/w STRC(144)         1 P_P_PRESET                 0-0-0/w STRC(288)         1 READ_STMT
     0-0-0/w STRC(144)         1 REMEM                      0-0-0/w STRC(288)         1 REWRITE_STMT
     0-0-0/w STRC(144)         1 SCOPE                      0-0-0/w STRC(216)         1 SEARCH_
PL6.E3A0      #009=Z9EN$SUB_CALL File=Z9EN.:Z8A6TSI                              SAT 08/09/97 14:02 Page:421
     0-0-0/w STRC(288)         1 START_STMT                 0-0-0/w STRC(72)          1 STP2
     0-0-0/w STRC(252)         1 STRING_STMT                0-0-0/w STRC(288)         1 SUBTRACT_STMT
     0-0-0/w STRC(144)         1 TRINARY_ILL                0-0-0/w STRC(72)          1 UNARY_ILL
     0-0-0/w STRC(288)         1 UNARY_OP                   0-0-0/w STRC(288)         1 UNSTRING_STMT
     0-0-0/w STRC(216)   r     1 USER_CALL                  0-0-0/w STRC(108)         1 VAL
     0-0-0/w STRC(108)         1 VAL_END                    0-0-0/w STRC(72)          1 WHEN
     0-0-0/w STRC(288)         1 WRITE_STMT


   Procedure Z9EN$SUB_CALL requires 30 words for executable code.
   Procedure Z9EN$SUB_CALL requires 14 words of local(AUTO) storage.

PL6.E3A0      #010=Z9EN$USER_LABEL_PROCEDURES File=Z9EN.:Z8A6TSI                 SAT 08/09/97 14:03 Page:422
     2300        1        /*T***********************************************************/
     2301        2        /*T*                                                         */
     2302        3        /*T* Copyright (c) Bull HN Information Systems Inc., 1997    */
     2303        4        /*T*                                                         */
     2304        5        /*T***********************************************************/
     2305        6
     2306        7         /*==========================*/
     2307        8           Z9EN$USER_LABEL_PROCEDURES: PROC (USE_TYPE,
     2308        9         /*==========================*/      GLOBAL$,
     2309       10                                             BEGIN$,
     2310       11                                             UNIT$,
     2311       12                                             MODE$,
     2312       13                                             OPERAND$,
     2313       14                                             USE_SECT$);
     2314       15
     2315       16        %EQU PHASE = 1;
     2316       17        %EQU FILE_# = 0;
     2317       18        %EQU REEL_# = 12;
     2318       19        %EQU BEFORE_# = 0;
     2319       20        %EQU AFTER_# = 6;
     2320       21        %EQU BEGINNING_# = 0;
     2321       22        %EQU ENDING_# = 3;
     2322       23        %EQU INPUT_# = 0;
     2323       24        %EQU OUTPUT_# = 1;
     2324       25        %EQU EXTEND_# = 2;
     2325       26
     2326       27        %INCLUDE Z8A_DEFC;
     2327       95        %INCLUDE Z8A_SUPP_MAC;
     2328     2495        %INCLUDE Z8E_STACKS;
     2329     4761        %INCLUDE Z8E_O1COM;
     2330     5522        %INCLUDE Z8E_MACROS;
     2331     6197        %INCLUDE Z8A_ERR_NUMS;
     2332     6961        %INCLUDE Z8A_ST;
     2333    10620        %INCLUDE Z8E_WINDOW;
     2334    12690        %INCLUDE Z8A_ETT;
     2335    12991        %INCLUDE Z8A_LTS;
     2336    15068        %INCLUDE Z8A_IO_EQUS;
PL6.E3A0      #010=Z9EN$USER_LABEL_PROCEDURES File=Z9EN.:Z8A6TSI                 SAT 08/09/97 14:03 Page:423
     2337    15191
     2338    15192
     2339    15193    1   DCL USE_TYPE       SBIN WORD;
     2340    15194    1   DCL GLOBAL$        PTR;
     2341    15195    1   DCL BEGIN$         PTR;
     2342    15196    1   DCL UNIT$          PTR;
     2343    15197    1   DCL MODE$          PTR;
     2344    15198    1   DCL OPERAND$       PTR;
     2345    15199    1   DCL USE_SECT$      PTR;
     2346    15200    1   DCL USE_INDEX      SBIN WORD;     /* offset within the table */
     2347    15201    1   DCL USE_ARRAY (0:6)    SBIN WORD; /* store the label proc offsets */
     2348    15202    1   DCL USE_NUMBER     SBIN WORD;     /* number of offsets stored */
     2349    15203    1   DCL I              SBIN WORD;
     2350    15204    1   DCL FILE$          PTR;
     2351    15205    1   DCL FILE_LTS$      PTR;
     2352    15206    1   DCL PTR_ARRAY$     PTR;
     2353    15207    1   DCL FILE_ERROR     BOOLEAN;
     2354    15208
     2355    15209    1   DCL Z8AE$ERROR ENTRY (12);
     2356    15210
     2357    15211        %EJECT;
PL6.E3A0      #010=Z9EN$USER_LABEL_PROCEDURES File=Z9EN.:Z8A6TSI                 SAT 08/09/97 14:03 Page:424
     2358    15212
     2359    15213           %MACRO CREATE_LABEL_EXIT_TABLE;
     2360    15214             DO;
     2361    15215               %NEW_LTS_PTR_ARRAY (@POINTER = PTR_ARRAY$,
     2362    15216                                   @SIZE    = %USER_LABEL_PROC_TABLE_SIZE + 2);
     2363    15217
     2364    15218               DO I = 0 TO %USER_LABEL_PROC_TABLE_SIZE - 1;
     2365    15219                 PTR_ARRAY$ -> LTS_PTR_ARRAY.P$(I) = ADDR(NIL);
     2366    15220               END;
     2367    15221
     2368    15222               FILE_LTS$ -> FILE_LTS.LABEL_EXIT$ = PTR_ARRAY$;
     2369    15223
     2370    15224             END;
     2371    15225           %MEND;
     2372    15226
     2373    15227        %EJECT;
PL6.E3A0      #010=Z9EN$USER_LABEL_PROCEDURES File=Z9EN.:Z8A6TSI                 SAT 08/09/97 14:03 Page:425
     2374    15228
     2375    15229    1      IF GLOBAL$ -> LX_TERMINAL.SYMBOL ~= %EMPTY THEN
     2376    15230             %CONDITIONAL_ERROR (@LX_ITEM$ = GLOBAL$,
     2377    15231                                 @ERROR#   = %E$GLOBAL_INVALID_IN_USE,
     2378    15232                                 @LINE     = GLOBAL$ -> LX_ITEM.LINE,
     2379    15233                                 @COLUMN   = GLOBAL$ -> LX_ITEM.COLUMN);
     2380    15263
     2381    15264    1      IF USE_TYPE = %USE_BEFORE_LABEL THEN
     2382    15265    1        USE_INDEX = %BEFORE_#;
     2383    15266    1      ELSE
     2384    15267    1        USE_INDEX = %AFTER_#;
     2385    15268
     2386    15269    1      IF UNIT$ -> LX_TERMINAL.SYMBOL = %EMPTY OR
     2387    15270    1        UNIT$ -> LX_TERMINAL.SYMBOL = %RSV_WRD_FILE THEN
     2388    15271    1        USE_INDEX = USE_INDEX + %FILE_#;
     2389    15272    1      ELSE
     2390    15273    1        USE_INDEX = USE_INDEX + %REEL_#;
     2391    15274
     2392    15275    1      USE_NUMBER = 0;
     2393    15276
     2394    15277    2      DO CASE (BEGIN$ -> LX_TERMINAL.SYMBOL);
     2395    15278
     2396    15279    2        CASE (%RSV_WRD_BEGINNING);
     2397    15280
     2398    15281    3          DO CASE (MODE$ -> LX_TERMINAL.SYMBOL);
     2399    15282    3            CASE (%RSV_WRD_INPUT);
     2400    15283    3              USE_NUMBER = 1;
     2401    15284    3              USE_ARRAY(1) = USE_INDEX + %INPUT_#;
     2402    15285    3            CASE (%RSV_WRD_OUTPUT);
     2403    15286    3              USE_NUMBER = 1;
     2404    15287    3              USE_ARRAY(1) = USE_INDEX + %OUTPUT_#;
     2405    15288    3            CASE (%RSV_WRD_EXTEND);
     2406    15289    3              USE_NUMBER = 1;
     2407    15290    3              USE_ARRAY(1) = USE_INDEX + %EXTEND_#;
     2408    15291    3            CASE (ELSE);
     2409    15292    3              USE_NUMBER = 3;
     2410    15293    4              DO I = 1 TO 3;
PL6.E3A0      #010=Z9EN$USER_LABEL_PROCEDURES File=Z9EN.:Z8A6TSI                 SAT 08/09/97 14:03 Page:426
     2411    15294    4                USE_ARRAY(I) = USE_INDEX + I - 1;  /* ALL 3 MODES */
     2412    15295    4              END;
     2413    15296    3          END; /* Inner DO CASE */
     2414    15297
     2415    15298    2        CASE (%RSV_WRD_ENDING);
     2416    15299
     2417    15300    2          USE_INDEX = USE_INDEX + %ENDING_#;
     2418    15301
     2419    15302    3          DO CASE (MODE$ -> LX_TERMINAL.SYMBOL);
     2420    15303    3            CASE (%RSV_WRD_INPUT);
     2421    15304    3              USE_NUMBER = 1;
     2422    15305    3              USE_ARRAY(1) = USE_INDEX + %INPUT_#;
     2423    15306    3            CASE (%RSV_WRD_OUTPUT);
     2424    15307    3              USE_NUMBER = 1;
     2425    15308    3              USE_ARRAY(1) = USE_INDEX + %OUTPUT_#;
     2426    15309    3            CASE (%RSV_WRD_EXTEND);
     2427    15310    3              USE_NUMBER = 1;
     2428    15311    3              USE_ARRAY(1) = USE_INDEX + %EXTEND_#;
     2429    15312    3            CASE (ELSE);
     2430    15313    3              USE_NUMBER = 3;
     2431    15314    4              DO I = 1 TO 3;
     2432    15315    4                USE_ARRAY(I) = USE_INDEX + I - 1;  /* ALL 3 MODES */
     2433    15316    4              END;
     2434    15317    3          END; /* Inner DO CASE */
     2435    15318
     2436    15319    2        CASE (ELSE);
     2437    15320
     2438    15321    3          DO CASE (MODE$ -> LX_TERMINAL.SYMBOL);
     2439    15322    3            CASE (%RSV_WRD_INPUT);
     2440    15323    3              USE_NUMBER = 2;
     2441    15324    3              USE_ARRAY(1) = USE_INDEX + %INPUT_# + %BEGINNING_#;
     2442    15325    3              USE_ARRAY(2) = USE_INDEX + %INPUT_# + %ENDING_#;
     2443    15326    3            CASE (%RSV_WRD_OUTPUT);
     2444    15327    3              USE_NUMBER = 2;
     2445    15328    3              USE_ARRAY(1) = USE_INDEX + %OUTPUT_# + %BEGINNING_#;
     2446    15329    3              USE_ARRAY(2) = USE_INDEX + %OUTPUT_# + %ENDING_#;
     2447    15330    3            CASE (%RSV_WRD_EXTEND);
PL6.E3A0      #010=Z9EN$USER_LABEL_PROCEDURES File=Z9EN.:Z8A6TSI                 SAT 08/09/97 14:03 Page:427
     2448    15331    3              USE_NUMBER = 2;
     2449    15332    3              USE_ARRAY(1) = USE_INDEX + %EXTEND_# + %BEGINNING_#;
     2450    15333    3              USE_ARRAY(2) = USE_INDEX + %EXTEND_# + %ENDING_#;
     2451    15334    3            CASE (ELSE);
     2452    15335    3              USE_NUMBER = 6;
     2453    15336    4              DO I= 1 TO 6;
     2454    15337    4                USE_ARRAY(I) = USE_INDEX + I - 1;
     2455    15338    4              END;
     2456    15339    3          END; /* Inner DO CASE */
     2457    15340
     2458    15341    2      END; /* Outer DO CASE */
     2459    15342
     2460    15343    1      FILE$ = OPERAND$ -> LX_LIST.HEAD$;
     2461    15344
     2462    15345    2      DO WHILE (FILE$ ~= ADDR(NIL));
     2463    15346
     2464    15347    2        IF NOT FILE$ -> LX_ETT_ITEM.B.ERROR THEN
     2465    15348    3          DO;
     2466    15349                 %FISH (TRIAD = FILE$ -> LX_ETT_ITEM.ETT$,
     2467    15350                        RTN   = ST$);
     2468    15358
     2469    15359                 %GET_LTS (@ID     = %FILE_LTS,
     2470    15360                           @ST$    = ST$,
     2471    15361                           @RETURN$ = FILE_LTS$);
     2472    15404
     2473    15405    3            IF FILE_LTS$ -> FILE_LTS.LABEL_EXIT$ = ADDR(NIL) THEN
     2474    15406                   %CREATE_LABEL_EXIT_TABLE;
     2475    15508    3            ELSE
     2476    15509    3              PTR_ARRAY$ = FILE_LTS$ -> FILE_LTS.LABEL_EXIT$;
     2477    15510
     2478    15511    3            FILE_ERROR = FALSE;
     2479    15512
     2480    15513    4            DO I = 1 TO USE_NUMBER;
     2481    15514    4              IF PTR_ARRAY$ -> LTS_PTR_ARRAY.P$(USE_ARRAY(I)) ~= ADDR(NIL) THEN
     2482    15515
     2483    15516    5                DO;
     2484    15517    5                  IF NOT FILE_ERROR THEN
PL6.E3A0      #010=Z9EN$USER_LABEL_PROCEDURES File=Z9EN.:Z8A6TSI                 SAT 08/09/97 14:03 Page:428
     2485    15518    5                    CALL Z8AE$ERROR (%E$DUPLICATE_USER_LABEL_PROC,
     2486    15519    5                                     FILE$ -> LX_ETT_ITEM.LINE,
     2487    15520    5                                     FILE$ -> LX_ETT_ITEM.COLUMN);
     2488    15521
     2489    15522    5                  FILE_ERROR = TRUE;
     2490    15523    5                END;
     2491    15524    4              ELSE
     2492    15525    5                DO;
     2493    15526    5                  PTR_ARRAY$ -> LTS_PTR_ARRAY.P$(USE_ARRAY(I)) = USE_SECT$;
     2494    15527    5                END;
     2495    15528
     2496    15529    4            END;  /* DO I = ... */
     2497    15530
     2498    15531    3        END; /* IF NOT ... */
     2499    15532
     2500    15533    2        FILE$ = FILE$ -> LX_ETT_ITEM.LINK;
     2501    15534
     2502    15535    2      END; /* DO WHILE .. */
     2503    15536
     2504    15537    1    END Z9EN$USER_LABEL_PROCEDURES;
     2505    15538        %EOD;

PL6.E3A0      #010=Z9EN$USER_LABEL_PROCEDURES File=Z9EN.:Z8A6TSI                 SAT 08/09/97 14:03 Page:429
--  Include file information  --

   Z8A_IO_EQUS.:Z8A6TOU  is referenced.
   Z8A_LTS.:Z8A6TOU  cannot be made into a system file and is referenced.
   Z8A_ETT.:Z8A6TOU  cannot be made into a system file and is referenced.
   Z8E_WINDOW.:Z8A6TOU  is referenced.
   Z8A_ST.:Z8A6TOU  cannot be made into a system file and is referenced.
   Z8A_ERR_NUMS.:Z8A6TOU  is referenced.
   Z8E_NEW_ILL.:Z8A6TOU  is referenced.
   Z8E_MACROS.:Z8A6TOU  cannot be made into a system file and is referenced.
   Z8E_O1COM.:Z8A6TOU  cannot be made into a system file and is referenced.
   Z8A_LEX_SYMB.:Z8A6TOU  cannot be made into a system file and is referenced.
   Z8E_STACKS.:Z8A6TOU  cannot be made into a system file and is referenced.
   X8A_COM_MACS.:X8A6TOU  is referenced.
   Z8A_NAMES.:Z8A6TOU  is referenced.
   Z8A_SUPP_MAC.:Z8A6TOU  is referenced.
   Z8A_DEFC.:Z8A6TOU  cannot be made into a system file and is referenced.
      No diagnostics issued in procedure Z9EN$USER_LABEL_PROCEDURES.

   Procedure Z9EN$USER_LABEL_PROCEDURES requires 807 words for executable code.
   Procedure Z9EN$USER_LABEL_PROCEDURES requires 28 words of local(AUTO) storage.

PL6.E3A0      #010=Z9EN$USER_LABEL_PROCEDURES File=Z9EN.:Z8A6TSI                 SAT 08/09/97 14:03 Page:430

 Object Unit name= Z9EN$USER_LABEL_PROCEDURES                 File name= Z9EN.:Z8A6TOU
 UTS= AUG 09 '97 14:03:06.56 SAT                              Compiler= PL-6/E31         Sev=      00
 SharedLib= :SHARED_SYSTEM                                    Alt SharedLib=


    ****  Control sections  ****

 Sect   Type Bound  Init  Size OctSiz  Section name(segment info)
    0  LblCom even  none     1      1  ITERATION
    1  LblCom even  none    90    132  LEX_SYMBOL
    2  LblCom even  none     1      1  CURRENT_LEX_SYMBOL$
    3  LblCom even  none    90    132  TEMP_LEX_SYMBOL
    4  LblCom even  none    90    132  TEMP_LEX_SYMBOL2
    5  LblCom even  none     1      1  ST$
    6  LblCom even  none     5      5  ST_
    7  LblCom even  none     1      1  ETT$
    8  LblCom even  none     1      1  HEAD_ETT$
    9  LblCom even  none   512   1000  ETT_BUCKETS
   10  LblCom even  none     5      5  ETT_
   11  LblCom even  none     1      1  LTS$
   12  LblCom even  none     5      5  LTS_
   13   Proc  even  none   807   1447  Z9EN$USER_LABEL_PROCEDURES
   14  RoData even  none     8     10  Z9EN$USER_LABEL_PROCEDURES

    ****  Entry defs  ****

                              Check   Calling
                             calling  sequence
  Sect OctLoc Primary Altret sequence   type   Parms  Name
    13      0   yes            yes      Std        7  Z9EN$USER_LABEL_PROCEDURES
PL6.E3A0      #010=Z9EN$USER_LABEL_PROCEDURES File=Z9EN.:Z8A6TSI                 SAT 08/09/97 14:03 Page:431

  ****  Entry refs  ****

         Check        Calling
        calling       sequence
Altret sequence SRef   type   Args  Name
         yes           Std      12 Z8AE$ERROR
         yes           Std       1 Z8AR$RESERVER
                       nStd      0 X66_AUTO_N
                       nStd      0 X66_ARET

  ****  Data refs  ****

  Flags:  r = read only, s = secondary
Flgs Name                             Flgs Name                             Flgs Name
     O1COM                                 HIER_STK_PTR                          HIER_STK
     PAGE_FORMAT                           REP_STK_PTR                           REP_STK
r    LTS_STEP

  ****  Segment refs  ****

  Flags:  r = read only, s = secondary
Flgs Name                             Flgs Name                             Flgs Name
     ISSID                                 NULLSID
PL6.E3A0      #010=Z9EN$USER_LABEL_PROCEDURES File=Z9EN.:Z8A6TSI                 SAT 08/09/97 14:03 Page:432


     2300        1        /*T***********************************************************/
     2301        2        /*T*                                                         */
     2302        3        /*T* Copyright (c) Bull HN Information Systems Inc., 1997    */
     2303        4        /*T*                                                         */
     2304        5        /*T***********************************************************/
     2305        6
     2306        7         /*==========================*/
     2307        8           Z9EN$USER_LABEL_PROCEDURES: PROC (USE_TYPE,

      8 13 000000   000000 700200 xent  Z9EN$USER_L* TSX0  ! X66_AUTO_N
        13 000001   000034 000007                    ZERO    28,7

     2308        9         /*==========================*/      GLOBAL$,
     2309       10                                             BEGIN$,
     2310       11                                             UNIT$,
     2311       12                                             MODE$,
     2312       13                                             OPERAND$,
     2313       14                                             USE_SECT$);
     2314       15
     2315       16        %EQU PHASE = 1;
     2316       17        %EQU FILE_# = 0;
     2317       18        %EQU REEL_# = 12;
     2318       19        %EQU BEFORE_# = 0;
     2319       20        %EQU AFTER_# = 6;
     2320       21        %EQU BEGINNING_# = 0;
     2321       22        %EQU ENDING_# = 3;
     2322       23        %EQU INPUT_# = 0;
     2323       24        %EQU OUTPUT_# = 1;
     2324       25        %EQU EXTEND_# = 2;
     2325       26
     2326       27        %INCLUDE Z8A_DEFC;
     2327       95        %INCLUDE Z8A_SUPP_MAC;
     2328     2495        %INCLUDE Z8E_STACKS;
     2329     4761        %INCLUDE Z8E_O1COM;
     2330     5522        %INCLUDE Z8E_MACROS;
     2331     6197        %INCLUDE Z8A_ERR_NUMS;
PL6.E3A0      #010=Z9EN$USER_LABEL_PROCEDURES File=Z9EN.:Z8A6TSI                 SAT 08/09/97 14:03 Page:433
     2332     6961        %INCLUDE Z8A_ST;
     2333    10620        %INCLUDE Z8E_WINDOW;
     2334    12690        %INCLUDE Z8A_ETT;
     2335    12991        %INCLUDE Z8A_LTS;
     2336    15068        %INCLUDE Z8A_IO_EQUS;
     2337    15191
     2338    15192
     2339    15193    1   DCL USE_TYPE       SBIN WORD;
     2340    15194    1   DCL GLOBAL$        PTR;
     2341    15195    1   DCL BEGIN$         PTR;
     2342    15196    1   DCL UNIT$          PTR;
     2343    15197    1   DCL MODE$          PTR;
     2344    15198    1   DCL OPERAND$       PTR;
     2345    15199    1   DCL USE_SECT$      PTR;
     2346    15200    1   DCL USE_INDEX      SBIN WORD;     /* offset within the table */
     2347    15201    1   DCL USE_ARRAY (0:6)    SBIN WORD; /* store the label proc offsets */
     2348    15202    1   DCL USE_NUMBER     SBIN WORD;     /* number of offsets stored */
     2349    15203    1   DCL I              SBIN WORD;
     2350    15204    1   DCL FILE$          PTR;
     2351    15205    1   DCL FILE_LTS$      PTR;
     2352    15206    1   DCL PTR_ARRAY$     PTR;
     2353    15207    1   DCL FILE_ERROR     BOOLEAN;
     2354    15208
     2355    15209    1   DCL Z8AE$ERROR ENTRY (12);
     2356    15210
     2357    15211        %EJECT;
PL6.E3A0      #010=Z9EN$USER_LABEL_PROCEDURES File=Z9EN.:Z8A6TSI                 SAT 08/09/97 14:03 Page:434
     2358    15212
     2359    15213           %MACRO CREATE_LABEL_EXIT_TABLE;
     2360    15214             DO;
     2361    15215               %NEW_LTS_PTR_ARRAY (@POINTER = PTR_ARRAY$,
     2362    15216                                   @SIZE    = %USER_LABEL_PROC_TABLE_SIZE + 2);
     2363    15217
     2364    15218               DO I = 0 TO %USER_LABEL_PROC_TABLE_SIZE - 1;
     2365    15219                 PTR_ARRAY$ -> LTS_PTR_ARRAY.P$(I) = ADDR(NIL);
     2366    15220               END;
     2367    15221
     2368    15222               FILE_LTS$ -> FILE_LTS.LABEL_EXIT$ = PTR_ARRAY$;
     2369    15223
     2370    15224             END;
     2371    15225           %MEND;
     2372    15226
     2373    15227        %EJECT;
PL6.E3A0      #010=Z9EN$USER_LABEL_PROCEDURES File=Z9EN.:Z8A6TSI                 SAT 08/09/97 14:03 Page:435
     2374    15228
     2375    15229    1      IF GLOBAL$ -> LX_TERMINAL.SYMBOL ~= %EMPTY THEN

  15229 13 000002   200004 470500                    LDP0    @GLOBAL$,,AUTO
        13 000003   000000 471500                    LDP1    0,,PR0
        13 000004   100003 235100                    LDA     3,,PR1
        13 000005   000027 600000 13                 TZE     s:15264

     2376    15230             %CONDITIONAL_ERROR (@LX_ITEM$ = GLOBAL$,
     2377    15231                                 @ERROR#   = %E$GLOBAL_INVALID_IN_USE,
     2378    15232                                 @LINE     = GLOBAL$ -> LX_ITEM.LINE,
     2379    15233                                 @COLUMN   = GLOBAL$ -> LX_ITEM.COLUMN);

  15243 13 000006   100000 236100                    LDQ     0,,PR1
        13 000007   400000 316007                    CANQ    -131072,DL
        13 000010   000027 601000 13                 TNZ     s:15264

  15245 13 000011   100006 633500                    EPPR3   6,,PR1
        13 000012   200032 453500                    STP3    FILE_ERROR+3,,AUTO
        13 000013   100005 634500                    EPPR4   5,,PR1
        13 000014   200031 454500                    STP4    FILE_ERROR+2,,AUTO
        13 000015   000002 236000 14                 LDQ     2
        13 000016   200030 756100                    STQ     FILE_ERROR+1,,AUTO
        13 000017   200030 630500                    EPPR0   FILE_ERROR+1,,AUTO
        13 000020   000000 631400 14                 EPPR1   0
        13 000021   000000 701000 xent               TSX1    Z8AE$ERROR
        13 000022   000000 011000                    NOP     0

  15254 13 000023   200004 470500                    LDP0    @GLOBAL$,,AUTO
        13 000024   000000 471500                    LDP1    0,,PR0
        13 000025   400000 236007                    LDQ     -131072,DL
        13 000026   100000 256100                    ORSQ    0,,PR1

     2380    15263
     2381    15264    1      IF USE_TYPE = %USE_BEFORE_LABEL THEN

  15264 13 000027   200003 471500                    LDP1    @USE_TYPE,,AUTO
PL6.E3A0      #010=Z9EN$USER_LABEL_PROCEDURES File=Z9EN.:Z8A6TSI                 SAT 08/09/97 14:03 Page:436
        13 000030   100000 235100                    LDA     0,,PR1
        13 000031   000004 115007                    CMPA    4,DL
        13 000032   000035 601000 13                 TNZ     s:15267

     2382    15265    1        USE_INDEX = %BEFORE_#;

  15265 13 000033   200012 450100                    STZ     USE_INDEX,,AUTO
        13 000034   000037 710000 13                 TRA     s:15269

     2383    15266    1      ELSE
     2384    15267    1        USE_INDEX = %AFTER_#;

  15267 13 000035   000006 236007                    LDQ     6,DL
        13 000036   200012 756100                    STQ     USE_INDEX,,AUTO

     2385    15268
     2386    15269    1      IF UNIT$ -> LX_TERMINAL.SYMBOL = %EMPTY OR

  15269 13 000037   200006 473500                    LDP3    @UNIT$,,AUTO
        13 000040   300000 474500                    LDP4    0,,PR3
        13 000041   400003 235100                    LDA     3,,PR4
        13 000042   000045 600000 13                 TZE     s:15271
        13 000043   000314 115007                    CMPA    204,DL
        13 000044   000046 601000 13                 TNZ     s:15273

     2387    15270    1        UNIT$ -> LX_TERMINAL.SYMBOL = %RSV_WRD_FILE THEN
     2388    15271    1        USE_INDEX = USE_INDEX + %FILE_#;

  15271 13 000045   000050 710000 13                 TRA     s:15275

     2389    15272    1      ELSE
     2390    15273    1        USE_INDEX = USE_INDEX + %REEL_#;

  15273 13 000046   000014 236007                    LDQ     12,DL
        13 000047   200012 056100                    ASQ     USE_INDEX,,AUTO

     2391    15274
PL6.E3A0      #010=Z9EN$USER_LABEL_PROCEDURES File=Z9EN.:Z8A6TSI                 SAT 08/09/97 14:03 Page:437
     2392    15275    1      USE_NUMBER = 0;

  15275 13 000050   200022 450100                    STZ     USE_NUMBER,,AUTO

     2393    15276
     2394    15277    2      DO CASE (BEGIN$ -> LX_TERMINAL.SYMBOL);

  15277 13 000051   200005 475500                    LDP5    @BEGIN$,,AUTO
        13 000052   500000 476500                    LDP6    0,,PR5
        13 000053   600003 235100                    LDA     3,,PR6
        13 000054   000076 135007                    SBLA    62,DL
        13 000055   000176 115007                    CMPA    126,DL
        13 000056   000060 602005 13                 TNC     s:15277+7,AL
        13 000057   000771 710000 13                 TRA     s:15321
        13 000060   000256 710000 13                 TRA     s:15281
        13 000061   000771 710000 13                 TRA     s:15321
        13 000062   000771 710000 13                 TRA     s:15321
        13 000063   000771 710000 13                 TRA     s:15321
        13 000064   000771 710000 13                 TRA     s:15321
        13 000065   000771 710000 13                 TRA     s:15321
        13 000066   000771 710000 13                 TRA     s:15321
        13 000067   000771 710000 13                 TRA     s:15321
        13 000070   000771 710000 13                 TRA     s:15321
        13 000071   000771 710000 13                 TRA     s:15321
        13 000072   000771 710000 13                 TRA     s:15321
        13 000073   000771 710000 13                 TRA     s:15321
        13 000074   000771 710000 13                 TRA     s:15321
        13 000075   000771 710000 13                 TRA     s:15321
        13 000076   000771 710000 13                 TRA     s:15321
        13 000077   000771 710000 13                 TRA     s:15321
        13 000100   000771 710000 13                 TRA     s:15321
        13 000101   000771 710000 13                 TRA     s:15321
        13 000102   000771 710000 13                 TRA     s:15321
        13 000103   000771 710000 13                 TRA     s:15321
        13 000104   000771 710000 13                 TRA     s:15321
        13 000105   000771 710000 13                 TRA     s:15321
        13 000106   000771 710000 13                 TRA     s:15321
PL6.E3A0      #010=Z9EN$USER_LABEL_PROCEDURES File=Z9EN.:Z8A6TSI                 SAT 08/09/97 14:03 Page:438
        13 000107   000771 710000 13                 TRA     s:15321
        13 000110   000771 710000 13                 TRA     s:15321
        13 000111   000771 710000 13                 TRA     s:15321
        13 000112   000771 710000 13                 TRA     s:15321
        13 000113   000771 710000 13                 TRA     s:15321
        13 000114   000771 710000 13                 TRA     s:15321
        13 000115   000771 710000 13                 TRA     s:15321
        13 000116   000771 710000 13                 TRA     s:15321
        13 000117   000771 710000 13                 TRA     s:15321
        13 000120   000771 710000 13                 TRA     s:15321
        13 000121   000771 710000 13                 TRA     s:15321
        13 000122   000771 710000 13                 TRA     s:15321
        13 000123   000771 710000 13                 TRA     s:15321
        13 000124   000771 710000 13                 TRA     s:15321
        13 000125   000771 710000 13                 TRA     s:15321
        13 000126   000771 710000 13                 TRA     s:15321
        13 000127   000771 710000 13                 TRA     s:15321
        13 000130   000771 710000 13                 TRA     s:15321
        13 000131   000771 710000 13                 TRA     s:15321
        13 000132   000771 710000 13                 TRA     s:15321
        13 000133   000771 710000 13                 TRA     s:15321
        13 000134   000771 710000 13                 TRA     s:15321
        13 000135   000771 710000 13                 TRA     s:15321
        13 000136   000771 710000 13                 TRA     s:15321
        13 000137   000771 710000 13                 TRA     s:15321
        13 000140   000771 710000 13                 TRA     s:15321
        13 000141   000771 710000 13                 TRA     s:15321
        13 000142   000771 710000 13                 TRA     s:15321
        13 000143   000771 710000 13                 TRA     s:15321
        13 000144   000771 710000 13                 TRA     s:15321
        13 000145   000771 710000 13                 TRA     s:15321
        13 000146   000771 710000 13                 TRA     s:15321
        13 000147   000771 710000 13                 TRA     s:15321
        13 000150   000771 710000 13                 TRA     s:15321
        13 000151   000771 710000 13                 TRA     s:15321
        13 000152   000771 710000 13                 TRA     s:15321
        13 000153   000771 710000 13                 TRA     s:15321
PL6.E3A0      #010=Z9EN$USER_LABEL_PROCEDURES File=Z9EN.:Z8A6TSI                 SAT 08/09/97 14:03 Page:439
        13 000154   000771 710000 13                 TRA     s:15321
        13 000155   000771 710000 13                 TRA     s:15321
        13 000156   000771 710000 13                 TRA     s:15321
        13 000157   000771 710000 13                 TRA     s:15321
        13 000160   000771 710000 13                 TRA     s:15321
        13 000161   000771 710000 13                 TRA     s:15321
        13 000162   000771 710000 13                 TRA     s:15321
        13 000163   000771 710000 13                 TRA     s:15321
        13 000164   000771 710000 13                 TRA     s:15321
        13 000165   000771 710000 13                 TRA     s:15321
        13 000166   000771 710000 13                 TRA     s:15321
        13 000167   000771 710000 13                 TRA     s:15321
        13 000170   000771 710000 13                 TRA     s:15321
        13 000171   000771 710000 13                 TRA     s:15321
        13 000172   000771 710000 13                 TRA     s:15321
        13 000173   000771 710000 13                 TRA     s:15321
        13 000174   000771 710000 13                 TRA     s:15321
        13 000175   000771 710000 13                 TRA     s:15321
        13 000176   000771 710000 13                 TRA     s:15321
        13 000177   000771 710000 13                 TRA     s:15321
        13 000200   000771 710000 13                 TRA     s:15321
        13 000201   000771 710000 13                 TRA     s:15321
        13 000202   000771 710000 13                 TRA     s:15321
        13 000203   000771 710000 13                 TRA     s:15321
        13 000204   000771 710000 13                 TRA     s:15321
        13 000205   000771 710000 13                 TRA     s:15321
        13 000206   000771 710000 13                 TRA     s:15321
        13 000207   000771 710000 13                 TRA     s:15321
        13 000210   000771 710000 13                 TRA     s:15321
        13 000211   000771 710000 13                 TRA     s:15321
        13 000212   000771 710000 13                 TRA     s:15321
        13 000213   000771 710000 13                 TRA     s:15321
        13 000214   000771 710000 13                 TRA     s:15321
        13 000215   000771 710000 13                 TRA     s:15321
        13 000216   000771 710000 13                 TRA     s:15321
        13 000217   000771 710000 13                 TRA     s:15321
        13 000220   000771 710000 13                 TRA     s:15321
PL6.E3A0      #010=Z9EN$USER_LABEL_PROCEDURES File=Z9EN.:Z8A6TSI                 SAT 08/09/97 14:03 Page:440
        13 000221   000771 710000 13                 TRA     s:15321
        13 000222   000771 710000 13                 TRA     s:15321
        13 000223   000771 710000 13                 TRA     s:15321
        13 000224   000771 710000 13                 TRA     s:15321
        13 000225   000771 710000 13                 TRA     s:15321
        13 000226   000771 710000 13                 TRA     s:15321
        13 000227   000771 710000 13                 TRA     s:15321
        13 000230   000771 710000 13                 TRA     s:15321
        13 000231   000771 710000 13                 TRA     s:15321
        13 000232   000771 710000 13                 TRA     s:15321
        13 000233   000771 710000 13                 TRA     s:15321
        13 000234   000771 710000 13                 TRA     s:15321
        13 000235   000771 710000 13                 TRA     s:15321
        13 000236   000771 710000 13                 TRA     s:15321
        13 000237   000771 710000 13                 TRA     s:15321
        13 000240   000771 710000 13                 TRA     s:15321
        13 000241   000771 710000 13                 TRA     s:15321
        13 000242   000771 710000 13                 TRA     s:15321
        13 000243   000771 710000 13                 TRA     s:15321
        13 000244   000771 710000 13                 TRA     s:15321
        13 000245   000771 710000 13                 TRA     s:15321
        13 000246   000771 710000 13                 TRA     s:15321
        13 000247   000771 710000 13                 TRA     s:15321
        13 000250   000771 710000 13                 TRA     s:15321
        13 000251   000771 710000 13                 TRA     s:15321
        13 000252   000771 710000 13                 TRA     s:15321
        13 000253   000771 710000 13                 TRA     s:15321
        13 000254   000771 710000 13                 TRA     s:15321
        13 000255   000523 710000 13                 TRA     s:15300

     2395    15278
     2396    15279    2        CASE (%RSV_WRD_BEGINNING);

     2397    15280
     2398    15281    3          DO CASE (MODE$ -> LX_TERMINAL.SYMBOL);

  15281 13 000256   200007 477500                    LDP7    @MODE$,,AUTO
PL6.E3A0      #010=Z9EN$USER_LABEL_PROCEDURES File=Z9EN.:Z8A6TSI                 SAT 08/09/97 14:03 Page:441
        13 000257   700000 470500                    LDP0    0,,PR7
        13 000260   000003 235100                    LDA     3,,PR0
        13 000261   000310 135007                    SBLA    200,DL
        13 000262   000177 115007                    CMPA    127,DL
        13 000263   000265 602005 13                 TNC     s:15281+7,AL
        13 000264   000505 710000 13                 TRA     s:15292
        13 000265   000477 710000 13                 TRA     s:15289
        13 000266   000505 710000 13                 TRA     s:15292
        13 000267   000505 710000 13                 TRA     s:15292
        13 000270   000505 710000 13                 TRA     s:15292
        13 000271   000505 710000 13                 TRA     s:15292
        13 000272   000505 710000 13                 TRA     s:15292
        13 000273   000505 710000 13                 TRA     s:15292
        13 000274   000505 710000 13                 TRA     s:15292
        13 000275   000505 710000 13                 TRA     s:15292
        13 000276   000505 710000 13                 TRA     s:15292
        13 000277   000505 710000 13                 TRA     s:15292
        13 000300   000505 710000 13                 TRA     s:15292
        13 000301   000505 710000 13                 TRA     s:15292
        13 000302   000505 710000 13                 TRA     s:15292
        13 000303   000505 710000 13                 TRA     s:15292
        13 000304   000505 710000 13                 TRA     s:15292
        13 000305   000505 710000 13                 TRA     s:15292
        13 000306   000505 710000 13                 TRA     s:15292
        13 000307   000505 710000 13                 TRA     s:15292
        13 000310   000505 710000 13                 TRA     s:15292
        13 000311   000505 710000 13                 TRA     s:15292
        13 000312   000505 710000 13                 TRA     s:15292
        13 000313   000505 710000 13                 TRA     s:15292
        13 000314   000505 710000 13                 TRA     s:15292
        13 000315   000505 710000 13                 TRA     s:15292
        13 000316   000505 710000 13                 TRA     s:15292
        13 000317   000505 710000 13                 TRA     s:15292
        13 000320   000505 710000 13                 TRA     s:15292
        13 000321   000505 710000 13                 TRA     s:15292
        13 000322   000505 710000 13                 TRA     s:15292
        13 000323   000505 710000 13                 TRA     s:15292
PL6.E3A0      #010=Z9EN$USER_LABEL_PROCEDURES File=Z9EN.:Z8A6TSI                 SAT 08/09/97 14:03 Page:442
        13 000324   000505 710000 13                 TRA     s:15292
        13 000325   000505 710000 13                 TRA     s:15292
        13 000326   000505 710000 13                 TRA     s:15292
        13 000327   000505 710000 13                 TRA     s:15292
        13 000330   000505 710000 13                 TRA     s:15292
        13 000331   000505 710000 13                 TRA     s:15292
        13 000332   000505 710000 13                 TRA     s:15292
        13 000333   000505 710000 13                 TRA     s:15292
        13 000334   000505 710000 13                 TRA     s:15292
        13 000335   000505 710000 13                 TRA     s:15292
        13 000336   000505 710000 13                 TRA     s:15292
        13 000337   000505 710000 13                 TRA     s:15292
        13 000340   000505 710000 13                 TRA     s:15292
        13 000341   000505 710000 13                 TRA     s:15292
        13 000342   000505 710000 13                 TRA     s:15292
        13 000343   000505 710000 13                 TRA     s:15292
        13 000344   000505 710000 13                 TRA     s:15292
        13 000345   000505 710000 13                 TRA     s:15292
        13 000346   000505 710000 13                 TRA     s:15292
        13 000347   000505 710000 13                 TRA     s:15292
        13 000350   000464 710000 13                 TRA     s:15283
        13 000351   000505 710000 13                 TRA     s:15292
        13 000352   000505 710000 13                 TRA     s:15292
        13 000353   000505 710000 13                 TRA     s:15292
        13 000354   000505 710000 13                 TRA     s:15292
        13 000355   000505 710000 13                 TRA     s:15292
        13 000356   000505 710000 13                 TRA     s:15292
        13 000357   000505 710000 13                 TRA     s:15292
        13 000360   000505 710000 13                 TRA     s:15292
        13 000361   000505 710000 13                 TRA     s:15292
        13 000362   000505 710000 13                 TRA     s:15292
        13 000363   000505 710000 13                 TRA     s:15292
        13 000364   000505 710000 13                 TRA     s:15292
        13 000365   000505 710000 13                 TRA     s:15292
        13 000366   000505 710000 13                 TRA     s:15292
        13 000367   000505 710000 13                 TRA     s:15292
        13 000370   000505 710000 13                 TRA     s:15292
PL6.E3A0      #010=Z9EN$USER_LABEL_PROCEDURES File=Z9EN.:Z8A6TSI                 SAT 08/09/97 14:03 Page:443
        13 000371   000505 710000 13                 TRA     s:15292
        13 000372   000505 710000 13                 TRA     s:15292
        13 000373   000505 710000 13                 TRA     s:15292
        13 000374   000505 710000 13                 TRA     s:15292
        13 000375   000505 710000 13                 TRA     s:15292
        13 000376   000505 710000 13                 TRA     s:15292
        13 000377   000505 710000 13                 TRA     s:15292
        13 000400   000505 710000 13                 TRA     s:15292
        13 000401   000505 710000 13                 TRA     s:15292
        13 000402   000505 710000 13                 TRA     s:15292
        13 000403   000505 710000 13                 TRA     s:15292
        13 000404   000505 710000 13                 TRA     s:15292
        13 000405   000505 710000 13                 TRA     s:15292
        13 000406   000505 710000 13                 TRA     s:15292
        13 000407   000505 710000 13                 TRA     s:15292
        13 000410   000505 710000 13                 TRA     s:15292
        13 000411   000505 710000 13                 TRA     s:15292
        13 000412   000505 710000 13                 TRA     s:15292
        13 000413   000505 710000 13                 TRA     s:15292
        13 000414   000505 710000 13                 TRA     s:15292
        13 000415   000505 710000 13                 TRA     s:15292
        13 000416   000505 710000 13                 TRA     s:15292
        13 000417   000505 710000 13                 TRA     s:15292
        13 000420   000505 710000 13                 TRA     s:15292
        13 000421   000505 710000 13                 TRA     s:15292
        13 000422   000505 710000 13                 TRA     s:15292
        13 000423   000505 710000 13                 TRA     s:15292
        13 000424   000505 710000 13                 TRA     s:15292
        13 000425   000505 710000 13                 TRA     s:15292
        13 000426   000505 710000 13                 TRA     s:15292
        13 000427   000505 710000 13                 TRA     s:15292
        13 000430   000505 710000 13                 TRA     s:15292
        13 000431   000505 710000 13                 TRA     s:15292
        13 000432   000505 710000 13                 TRA     s:15292
        13 000433   000505 710000 13                 TRA     s:15292
        13 000434   000505 710000 13                 TRA     s:15292
        13 000435   000505 710000 13                 TRA     s:15292
PL6.E3A0      #010=Z9EN$USER_LABEL_PROCEDURES File=Z9EN.:Z8A6TSI                 SAT 08/09/97 14:03 Page:444
        13 000436   000505 710000 13                 TRA     s:15292
        13 000437   000505 710000 13                 TRA     s:15292
        13 000440   000505 710000 13                 TRA     s:15292
        13 000441   000505 710000 13                 TRA     s:15292
        13 000442   000505 710000 13                 TRA     s:15292
        13 000443   000505 710000 13                 TRA     s:15292
        13 000444   000505 710000 13                 TRA     s:15292
        13 000445   000505 710000 13                 TRA     s:15292
        13 000446   000505 710000 13                 TRA     s:15292
        13 000447   000505 710000 13                 TRA     s:15292
        13 000450   000505 710000 13                 TRA     s:15292
        13 000451   000505 710000 13                 TRA     s:15292
        13 000452   000505 710000 13                 TRA     s:15292
        13 000453   000505 710000 13                 TRA     s:15292
        13 000454   000505 710000 13                 TRA     s:15292
        13 000455   000505 710000 13                 TRA     s:15292
        13 000456   000505 710000 13                 TRA     s:15292
        13 000457   000505 710000 13                 TRA     s:15292
        13 000460   000505 710000 13                 TRA     s:15292
        13 000461   000505 710000 13                 TRA     s:15292
        13 000462   000505 710000 13                 TRA     s:15292
        13 000463   000471 710000 13                 TRA     s:15286

     2399    15282    3            CASE (%RSV_WRD_INPUT);

     2400    15283    3              USE_NUMBER = 1;

  15283 13 000464   000001 236007                    LDQ     1,DL
        13 000465   200022 756100                    STQ     USE_NUMBER,,AUTO

     2401    15284    3              USE_ARRAY(1) = USE_INDEX + %INPUT_#;

  15284 13 000466   200012 235100                    LDA     USE_INDEX,,AUTO
        13 000467   200014 755100                    STA     USE_ARRAY+1,,AUTO
        13 000470   001245 710000 13                 TRA     s:15343

     2402    15285    3            CASE (%RSV_WRD_OUTPUT);
PL6.E3A0      #010=Z9EN$USER_LABEL_PROCEDURES File=Z9EN.:Z8A6TSI                 SAT 08/09/97 14:03 Page:445

     2403    15286    3              USE_NUMBER = 1;

  15286 13 000471   000001 236007                    LDQ     1,DL
        13 000472   200022 756100                    STQ     USE_NUMBER,,AUTO

     2404    15287    3              USE_ARRAY(1) = USE_INDEX + %OUTPUT_#;

  15287 13 000473   200012 235100                    LDA     USE_INDEX,,AUTO
        13 000474   000001 035007                    ADLA    1,DL
        13 000475   200014 755100                    STA     USE_ARRAY+1,,AUTO
        13 000476   001245 710000 13                 TRA     s:15343

     2405    15288    3            CASE (%RSV_WRD_EXTEND);

     2406    15289    3              USE_NUMBER = 1;

  15289 13 000477   000001 236007                    LDQ     1,DL
        13 000500   200022 756100                    STQ     USE_NUMBER,,AUTO

     2407    15290    3              USE_ARRAY(1) = USE_INDEX + %EXTEND_#;

  15290 13 000501   200012 235100                    LDA     USE_INDEX,,AUTO
        13 000502   000002 035007                    ADLA    2,DL
        13 000503   200014 755100                    STA     USE_ARRAY+1,,AUTO
        13 000504   001245 710000 13                 TRA     s:15343

     2408    15291    3            CASE (ELSE);

     2409    15292    3              USE_NUMBER = 3;

  15292 13 000505   000003 236007                    LDQ     3,DL
        13 000506   200022 756100                    STQ     USE_NUMBER,,AUTO

     2410    15293    4              DO I = 1 TO 3;

  15293 13 000507   000001 235007                    LDA     1,DL
PL6.E3A0      #010=Z9EN$USER_LABEL_PROCEDURES File=Z9EN.:Z8A6TSI                 SAT 08/09/97 14:03 Page:446
        13 000510   200023 755100                    STA     I,,AUTO

     2411    15294    4                USE_ARRAY(I) = USE_INDEX + I - 1;  /* ALL 3 MODES */

  15294 13 000511   200012 236100                    LDQ     USE_INDEX,,AUTO
        13 000512   200023 036100                    ADLQ    I,,AUTO
        13 000513   000001 136007                    SBLQ    1,DL
        13 000514   200023 720100                    LXL0    I,,AUTO
        13 000515   200013 756110                    STQ     USE_ARRAY,X0,AUTO

     2412    15295    4              END;

  15295 13 000516   200023 054100                    AOS     I,,AUTO
        13 000517   200023 235100                    LDA     I,,AUTO
        13 000520   000003 115007                    CMPA    3,DL
        13 000521   000511 604400 13                 TMOZ    s:15294

     2413    15296    3          END; /* Inner DO CASE */

  15296 13 000522   001245 710000 13                 TRA     s:15343

     2414    15297
     2415    15298    2        CASE (%RSV_WRD_ENDING);

     2416    15299
     2417    15300    2          USE_INDEX = USE_INDEX + %ENDING_#;

  15300 13 000523   000003 236007                    LDQ     3,DL
        13 000524   200012 056100                    ASQ     USE_INDEX,,AUTO

     2418    15301
     2419    15302    3          DO CASE (MODE$ -> LX_TERMINAL.SYMBOL);

  15302 13 000525   200007 477500                    LDP7    @MODE$,,AUTO
        13 000526   700000 470500                    LDP0    0,,PR7
        13 000527   000003 235100                    LDA     3,,PR0
        13 000530   000310 135007                    SBLA    200,DL
PL6.E3A0      #010=Z9EN$USER_LABEL_PROCEDURES File=Z9EN.:Z8A6TSI                 SAT 08/09/97 14:03 Page:447
        13 000531   000177 115007                    CMPA    127,DL
        13 000532   000534 602005 13                 TNC     s:15302+7,AL
        13 000533   000754 710000 13                 TRA     s:15313
        13 000534   000746 710000 13                 TRA     s:15310
        13 000535   000754 710000 13                 TRA     s:15313
        13 000536   000754 710000 13                 TRA     s:15313
        13 000537   000754 710000 13                 TRA     s:15313
        13 000540   000754 710000 13                 TRA     s:15313
        13 000541   000754 710000 13                 TRA     s:15313
        13 000542   000754 710000 13                 TRA     s:15313
        13 000543   000754 710000 13                 TRA     s:15313
        13 000544   000754 710000 13                 TRA     s:15313
        13 000545   000754 710000 13                 TRA     s:15313
        13 000546   000754 710000 13                 TRA     s:15313
        13 000547   000754 710000 13                 TRA     s:15313
        13 000550   000754 710000 13                 TRA     s:15313
        13 000551   000754 710000 13                 TRA     s:15313
        13 000552   000754 710000 13                 TRA     s:15313
        13 000553   000754 710000 13                 TRA     s:15313
        13 000554   000754 710000 13                 TRA     s:15313
        13 000555   000754 710000 13                 TRA     s:15313
        13 000556   000754 710000 13                 TRA     s:15313
        13 000557   000754 710000 13                 TRA     s:15313
        13 000560   000754 710000 13                 TRA     s:15313
        13 000561   000754 710000 13                 TRA     s:15313
        13 000562   000754 710000 13                 TRA     s:15313
        13 000563   000754 710000 13                 TRA     s:15313
        13 000564   000754 710000 13                 TRA     s:15313
        13 000565   000754 710000 13                 TRA     s:15313
        13 000566   000754 710000 13                 TRA     s:15313
        13 000567   000754 710000 13                 TRA     s:15313
        13 000570   000754 710000 13                 TRA     s:15313
        13 000571   000754 710000 13                 TRA     s:15313
        13 000572   000754 710000 13                 TRA     s:15313
        13 000573   000754 710000 13                 TRA     s:15313
        13 000574   000754 710000 13                 TRA     s:15313
        13 000575   000754 710000 13                 TRA     s:15313
PL6.E3A0      #010=Z9EN$USER_LABEL_PROCEDURES File=Z9EN.:Z8A6TSI                 SAT 08/09/97 14:03 Page:448
        13 000576   000754 710000 13                 TRA     s:15313
        13 000577   000754 710000 13                 TRA     s:15313
        13 000600   000754 710000 13                 TRA     s:15313
        13 000601   000754 710000 13                 TRA     s:15313
        13 000602   000754 710000 13                 TRA     s:15313
        13 000603   000754 710000 13                 TRA     s:15313
        13 000604   000754 710000 13                 TRA     s:15313
        13 000605   000754 710000 13                 TRA     s:15313
        13 000606   000754 710000 13                 TRA     s:15313
        13 000607   000754 710000 13                 TRA     s:15313
        13 000610   000754 710000 13                 TRA     s:15313
        13 000611   000754 710000 13                 TRA     s:15313
        13 000612   000754 710000 13                 TRA     s:15313
        13 000613   000754 710000 13                 TRA     s:15313
        13 000614   000754 710000 13                 TRA     s:15313
        13 000615   000754 710000 13                 TRA     s:15313
        13 000616   000754 710000 13                 TRA     s:15313
        13 000617   000733 710000 13                 TRA     s:15304
        13 000620   000754 710000 13                 TRA     s:15313
        13 000621   000754 710000 13                 TRA     s:15313
        13 000622   000754 710000 13                 TRA     s:15313
        13 000623   000754 710000 13                 TRA     s:15313
        13 000624   000754 710000 13                 TRA     s:15313
        13 000625   000754 710000 13                 TRA     s:15313
        13 000626   000754 710000 13                 TRA     s:15313
        13 000627   000754 710000 13                 TRA     s:15313
        13 000630   000754 710000 13                 TRA     s:15313
        13 000631   000754 710000 13                 TRA     s:15313
        13 000632   000754 710000 13                 TRA     s:15313
        13 000633   000754 710000 13                 TRA     s:15313
        13 000634   000754 710000 13                 TRA     s:15313
        13 000635   000754 710000 13                 TRA     s:15313
        13 000636   000754 710000 13                 TRA     s:15313
        13 000637   000754 710000 13                 TRA     s:15313
        13 000640   000754 710000 13                 TRA     s:15313
        13 000641   000754 710000 13                 TRA     s:15313
        13 000642   000754 710000 13                 TRA     s:15313
PL6.E3A0      #010=Z9EN$USER_LABEL_PROCEDURES File=Z9EN.:Z8A6TSI                 SAT 08/09/97 14:03 Page:449
        13 000643   000754 710000 13                 TRA     s:15313
        13 000644   000754 710000 13                 TRA     s:15313
        13 000645   000754 710000 13                 TRA     s:15313
        13 000646   000754 710000 13                 TRA     s:15313
        13 000647   000754 710000 13                 TRA     s:15313
        13 000650   000754 710000 13                 TRA     s:15313
        13 000651   000754 710000 13                 TRA     s:15313
        13 000652   000754 710000 13                 TRA     s:15313
        13 000653   000754 710000 13                 TRA     s:15313
        13 000654   000754 710000 13                 TRA     s:15313
        13 000655   000754 710000 13                 TRA     s:15313
        13 000656   000754 710000 13                 TRA     s:15313
        13 000657   000754 710000 13                 TRA     s:15313
        13 000660   000754 710000 13                 TRA     s:15313
        13 000661   000754 710000 13                 TRA     s:15313
        13 000662   000754 710000 13                 TRA     s:15313
        13 000663   000754 710000 13                 TRA     s:15313
        13 000664   000754 710000 13                 TRA     s:15313
        13 000665   000754 710000 13                 TRA     s:15313
        13 000666   000754 710000 13                 TRA     s:15313
        13 000667   000754 710000 13                 TRA     s:15313
        13 000670   000754 710000 13                 TRA     s:15313
        13 000671   000754 710000 13                 TRA     s:15313
        13 000672   000754 710000 13                 TRA     s:15313
        13 000673   000754 710000 13                 TRA     s:15313
        13 000674   000754 710000 13                 TRA     s:15313
        13 000675   000754 710000 13                 TRA     s:15313
        13 000676   000754 710000 13                 TRA     s:15313
        13 000677   000754 710000 13                 TRA     s:15313
        13 000700   000754 710000 13                 TRA     s:15313
        13 000701   000754 710000 13                 TRA     s:15313
        13 000702   000754 710000 13                 TRA     s:15313
        13 000703   000754 710000 13                 TRA     s:15313
        13 000704   000754 710000 13                 TRA     s:15313
        13 000705   000754 710000 13                 TRA     s:15313
        13 000706   000754 710000 13                 TRA     s:15313
        13 000707   000754 710000 13                 TRA     s:15313
PL6.E3A0      #010=Z9EN$USER_LABEL_PROCEDURES File=Z9EN.:Z8A6TSI                 SAT 08/09/97 14:03 Page:450
        13 000710   000754 710000 13                 TRA     s:15313
        13 000711   000754 710000 13                 TRA     s:15313
        13 000712   000754 710000 13                 TRA     s:15313
        13 000713   000754 710000 13                 TRA     s:15313
        13 000714   000754 710000 13                 TRA     s:15313
        13 000715   000754 710000 13                 TRA     s:15313
        13 000716   000754 710000 13                 TRA     s:15313
        13 000717   000754 710000 13                 TRA     s:15313
        13 000720   000754 710000 13                 TRA     s:15313
        13 000721   000754 710000 13                 TRA     s:15313
        13 000722   000754 710000 13                 TRA     s:15313
        13 000723   000754 710000 13                 TRA     s:15313
        13 000724   000754 710000 13                 TRA     s:15313
        13 000725   000754 710000 13                 TRA     s:15313
        13 000726   000754 710000 13                 TRA     s:15313
        13 000727   000754 710000 13                 TRA     s:15313
        13 000730   000754 710000 13                 TRA     s:15313
        13 000731   000754 710000 13                 TRA     s:15313
        13 000732   000740 710000 13                 TRA     s:15307

     2420    15303    3            CASE (%RSV_WRD_INPUT);

     2421    15304    3              USE_NUMBER = 1;

  15304 13 000733   000001 235007                    LDA     1,DL
        13 000734   200022 755100                    STA     USE_NUMBER,,AUTO

     2422    15305    3              USE_ARRAY(1) = USE_INDEX + %INPUT_#;

  15305 13 000735   200012 235100                    LDA     USE_INDEX,,AUTO
        13 000736   200014 755100                    STA     USE_ARRAY+1,,AUTO
        13 000737   001245 710000 13                 TRA     s:15343

     2423    15306    3            CASE (%RSV_WRD_OUTPUT);

     2424    15307    3              USE_NUMBER = 1;

PL6.E3A0      #010=Z9EN$USER_LABEL_PROCEDURES File=Z9EN.:Z8A6TSI                 SAT 08/09/97 14:03 Page:451
  15307 13 000740   000001 235007                    LDA     1,DL
        13 000741   200022 755100                    STA     USE_NUMBER,,AUTO

     2425    15308    3              USE_ARRAY(1) = USE_INDEX + %OUTPUT_#;

  15308 13 000742   200012 235100                    LDA     USE_INDEX,,AUTO
        13 000743   000001 035007                    ADLA    1,DL
        13 000744   200014 755100                    STA     USE_ARRAY+1,,AUTO
        13 000745   001245 710000 13                 TRA     s:15343

     2426    15309    3            CASE (%RSV_WRD_EXTEND);

     2427    15310    3              USE_NUMBER = 1;

  15310 13 000746   000001 235007                    LDA     1,DL
        13 000747   200022 755100                    STA     USE_NUMBER,,AUTO

     2428    15311    3              USE_ARRAY(1) = USE_INDEX + %EXTEND_#;

  15311 13 000750   200012 235100                    LDA     USE_INDEX,,AUTO
        13 000751   000002 035007                    ADLA    2,DL
        13 000752   200014 755100                    STA     USE_ARRAY+1,,AUTO
        13 000753   001245 710000 13                 TRA     s:15343

     2429    15312    3            CASE (ELSE);

     2430    15313    3              USE_NUMBER = 3;

  15313 13 000754   200022 756100                    STQ     USE_NUMBER,,AUTO

     2431    15314    4              DO I = 1 TO 3;

  15314 13 000755   000001 235007                    LDA     1,DL
        13 000756   200023 755100                    STA     I,,AUTO

     2432    15315    4                USE_ARRAY(I) = USE_INDEX + I - 1;  /* ALL 3 MODES */

PL6.E3A0      #010=Z9EN$USER_LABEL_PROCEDURES File=Z9EN.:Z8A6TSI                 SAT 08/09/97 14:03 Page:452
  15315 13 000757   200012 236100                    LDQ     USE_INDEX,,AUTO
        13 000760   200023 036100                    ADLQ    I,,AUTO
        13 000761   000001 136007                    SBLQ    1,DL
        13 000762   200023 720100                    LXL0    I,,AUTO
        13 000763   200013 756110                    STQ     USE_ARRAY,X0,AUTO

     2433    15316    4              END;

  15316 13 000764   200023 054100                    AOS     I,,AUTO
        13 000765   200023 235100                    LDA     I,,AUTO
        13 000766   000003 115007                    CMPA    3,DL
        13 000767   000757 604400 13                 TMOZ    s:15315

     2434    15317    3          END; /* Inner DO CASE */

  15317 13 000770   001245 710000 13                 TRA     s:15343

     2435    15318
     2436    15319    2        CASE (ELSE);

     2437    15320
     2438    15321    3          DO CASE (MODE$ -> LX_TERMINAL.SYMBOL);

  15321 13 000771   200007 477500                    LDP7    @MODE$,,AUTO
        13 000772   700000 470500                    LDP0    0,,PR7
        13 000773   000003 235100                    LDA     3,,PR0
        13 000774   000310 135007                    SBLA    200,DL
        13 000775   000177 115007                    CMPA    127,DL
        13 000776   001000 602005 13                 TNC     s:15321+7,AL
        13 000777   001230 710000 13                 TRA     s:15335
        13 001000   001217 710000 13                 TRA     s:15331
        13 001001   001230 710000 13                 TRA     s:15335
        13 001002   001230 710000 13                 TRA     s:15335
        13 001003   001230 710000 13                 TRA     s:15335
        13 001004   001230 710000 13                 TRA     s:15335
        13 001005   001230 710000 13                 TRA     s:15335
        13 001006   001230 710000 13                 TRA     s:15335
PL6.E3A0      #010=Z9EN$USER_LABEL_PROCEDURES File=Z9EN.:Z8A6TSI                 SAT 08/09/97 14:03 Page:453
        13 001007   001230 710000 13                 TRA     s:15335
        13 001010   001230 710000 13                 TRA     s:15335
        13 001011   001230 710000 13                 TRA     s:15335
        13 001012   001230 710000 13                 TRA     s:15335
        13 001013   001230 710000 13                 TRA     s:15335
        13 001014   001230 710000 13                 TRA     s:15335
        13 001015   001230 710000 13                 TRA     s:15335
        13 001016   001230 710000 13                 TRA     s:15335
        13 001017   001230 710000 13                 TRA     s:15335
        13 001020   001230 710000 13                 TRA     s:15335
        13 001021   001230 710000 13                 TRA     s:15335
        13 001022   001230 710000 13                 TRA     s:15335
        13 001023   001230 710000 13                 TRA     s:15335
        13 001024   001230 710000 13                 TRA     s:15335
        13 001025   001230 710000 13                 TRA     s:15335
        13 001026   001230 710000 13                 TRA     s:15335
        13 001027   001230 710000 13                 TRA     s:15335
        13 001030   001230 710000 13                 TRA     s:15335
        13 001031   001230 710000 13                 TRA     s:15335
        13 001032   001230 710000 13                 TRA     s:15335
        13 001033   001230 710000 13                 TRA     s:15335
        13 001034   001230 710000 13                 TRA     s:15335
        13 001035   001230 710000 13                 TRA     s:15335
        13 001036   001230 710000 13                 TRA     s:15335
        13 001037   001230 710000 13                 TRA     s:15335
        13 001040   001230 710000 13                 TRA     s:15335
        13 001041   001230 710000 13                 TRA     s:15335
        13 001042   001230 710000 13                 TRA     s:15335
        13 001043   001230 710000 13                 TRA     s:15335
        13 001044   001230 710000 13                 TRA     s:15335
        13 001045   001230 710000 13                 TRA     s:15335
        13 001046   001230 710000 13                 TRA     s:15335
        13 001047   001230 710000 13                 TRA     s:15335
        13 001050   001230 710000 13                 TRA     s:15335
        13 001051   001230 710000 13                 TRA     s:15335
        13 001052   001230 710000 13                 TRA     s:15335
        13 001053   001230 710000 13                 TRA     s:15335
PL6.E3A0      #010=Z9EN$USER_LABEL_PROCEDURES File=Z9EN.:Z8A6TSI                 SAT 08/09/97 14:03 Page:454
        13 001054   001230 710000 13                 TRA     s:15335
        13 001055   001230 710000 13                 TRA     s:15335
        13 001056   001230 710000 13                 TRA     s:15335
        13 001057   001230 710000 13                 TRA     s:15335
        13 001060   001230 710000 13                 TRA     s:15335
        13 001061   001230 710000 13                 TRA     s:15335
        13 001062   001230 710000 13                 TRA     s:15335
        13 001063   001177 710000 13                 TRA     s:15323
        13 001064   001230 710000 13                 TRA     s:15335
        13 001065   001230 710000 13                 TRA     s:15335
        13 001066   001230 710000 13                 TRA     s:15335
        13 001067   001230 710000 13                 TRA     s:15335
        13 001070   001230 710000 13                 TRA     s:15335
        13 001071   001230 710000 13                 TRA     s:15335
        13 001072   001230 710000 13                 TRA     s:15335
        13 001073   001230 710000 13                 TRA     s:15335
        13 001074   001230 710000 13                 TRA     s:15335
        13 001075   001230 710000 13                 TRA     s:15335
        13 001076   001230 710000 13                 TRA     s:15335
        13 001077   001230 710000 13                 TRA     s:15335
        13 001100   001230 710000 13                 TRA     s:15335
        13 001101   001230 710000 13                 TRA     s:15335
        13 001102   001230 710000 13                 TRA     s:15335
        13 001103   001230 710000 13                 TRA     s:15335
        13 001104   001230 710000 13                 TRA     s:15335
        13 001105   001230 710000 13                 TRA     s:15335
        13 001106   001230 710000 13                 TRA     s:15335
        13 001107   001230 710000 13                 TRA     s:15335
        13 001110   001230 710000 13                 TRA     s:15335
        13 001111   001230 710000 13                 TRA     s:15335
        13 001112   001230 710000 13                 TRA     s:15335
        13 001113   001230 710000 13                 TRA     s:15335
        13 001114   001230 710000 13                 TRA     s:15335
        13 001115   001230 710000 13                 TRA     s:15335
        13 001116   001230 710000 13                 TRA     s:15335
        13 001117   001230 710000 13                 TRA     s:15335
        13 001120   001230 710000 13                 TRA     s:15335
PL6.E3A0      #010=Z9EN$USER_LABEL_PROCEDURES File=Z9EN.:Z8A6TSI                 SAT 08/09/97 14:03 Page:455
        13 001121   001230 710000 13                 TRA     s:15335
        13 001122   001230 710000 13                 TRA     s:15335
        13 001123   001230 710000 13                 TRA     s:15335
        13 001124   001230 710000 13                 TRA     s:15335
        13 001125   001230 710000 13                 TRA     s:15335
        13 001126   001230 710000 13                 TRA     s:15335
        13 001127   001230 710000 13                 TRA     s:15335
        13 001130   001230 710000 13                 TRA     s:15335
        13 001131   001230 710000 13                 TRA     s:15335
        13 001132   001230 710000 13                 TRA     s:15335
        13 001133   001230 710000 13                 TRA     s:15335
        13 001134   001230 710000 13                 TRA     s:15335
        13 001135   001230 710000 13                 TRA     s:15335
        13 001136   001230 710000 13                 TRA     s:15335
        13 001137   001230 710000 13                 TRA     s:15335
        13 001140   001230 710000 13                 TRA     s:15335
        13 001141   001230 710000 13                 TRA     s:15335
        13 001142   001230 710000 13                 TRA     s:15335
        13 001143   001230 710000 13                 TRA     s:15335
        13 001144   001230 710000 13                 TRA     s:15335
        13 001145   001230 710000 13                 TRA     s:15335
        13 001146   001230 710000 13                 TRA     s:15335
        13 001147   001230 710000 13                 TRA     s:15335
        13 001150   001230 710000 13                 TRA     s:15335
        13 001151   001230 710000 13                 TRA     s:15335
        13 001152   001230 710000 13                 TRA     s:15335
        13 001153   001230 710000 13                 TRA     s:15335
        13 001154   001230 710000 13                 TRA     s:15335
        13 001155   001230 710000 13                 TRA     s:15335
        13 001156   001230 710000 13                 TRA     s:15335
        13 001157   001230 710000 13                 TRA     s:15335
        13 001160   001230 710000 13                 TRA     s:15335
        13 001161   001230 710000 13                 TRA     s:15335
        13 001162   001230 710000 13                 TRA     s:15335
        13 001163   001230 710000 13                 TRA     s:15335
        13 001164   001230 710000 13                 TRA     s:15335
        13 001165   001230 710000 13                 TRA     s:15335
PL6.E3A0      #010=Z9EN$USER_LABEL_PROCEDURES File=Z9EN.:Z8A6TSI                 SAT 08/09/97 14:03 Page:456
        13 001166   001230 710000 13                 TRA     s:15335
        13 001167   001230 710000 13                 TRA     s:15335
        13 001170   001230 710000 13                 TRA     s:15335
        13 001171   001230 710000 13                 TRA     s:15335
        13 001172   001230 710000 13                 TRA     s:15335
        13 001173   001230 710000 13                 TRA     s:15335
        13 001174   001230 710000 13                 TRA     s:15335
        13 001175   001230 710000 13                 TRA     s:15335
        13 001176   001206 710000 13                 TRA     s:15327

     2439    15322    3            CASE (%RSV_WRD_INPUT);

     2440    15323    3              USE_NUMBER = 2;

  15323 13 001177   000002 236007                    LDQ     2,DL
        13 001200   200022 756100                    STQ     USE_NUMBER,,AUTO

     2441    15324    3              USE_ARRAY(1) = USE_INDEX + %INPUT_# + %BEGINNING_#;

  15324 13 001201   200012 235100                    LDA     USE_INDEX,,AUTO
        13 001202   200014 755100                    STA     USE_ARRAY+1,,AUTO

     2442    15325    3              USE_ARRAY(2) = USE_INDEX + %INPUT_# + %ENDING_#;

  15325 13 001203   000003 035007                    ADLA    3,DL
        13 001204   200015 755100                    STA     USE_ARRAY+2,,AUTO
        13 001205   001245 710000 13                 TRA     s:15343

     2443    15326    3            CASE (%RSV_WRD_OUTPUT);

     2444    15327    3              USE_NUMBER = 2;

  15327 13 001206   000002 236007                    LDQ     2,DL
        13 001207   200022 756100                    STQ     USE_NUMBER,,AUTO

     2445    15328    3              USE_ARRAY(1) = USE_INDEX + %OUTPUT_# + %BEGINNING_#;

PL6.E3A0      #010=Z9EN$USER_LABEL_PROCEDURES File=Z9EN.:Z8A6TSI                 SAT 08/09/97 14:03 Page:457
  15328 13 001210   200012 235100                    LDA     USE_INDEX,,AUTO
        13 001211   000001 035007                    ADLA    1,DL
        13 001212   200014 755100                    STA     USE_ARRAY+1,,AUTO

     2446    15329    3              USE_ARRAY(2) = USE_INDEX + %OUTPUT_# + %ENDING_#;

  15329 13 001213   200012 235100                    LDA     USE_INDEX,,AUTO
        13 001214   000004 035007                    ADLA    4,DL
        13 001215   200015 755100                    STA     USE_ARRAY+2,,AUTO
        13 001216   001245 710000 13                 TRA     s:15343

     2447    15330    3            CASE (%RSV_WRD_EXTEND);

     2448    15331    3              USE_NUMBER = 2;

  15331 13 001217   000002 236007                    LDQ     2,DL
        13 001220   200022 756100                    STQ     USE_NUMBER,,AUTO

     2449    15332    3              USE_ARRAY(1) = USE_INDEX + %EXTEND_# + %BEGINNING_#;

  15332 13 001221   200012 235100                    LDA     USE_INDEX,,AUTO
        13 001222   000002 035007                    ADLA    2,DL
        13 001223   200014 755100                    STA     USE_ARRAY+1,,AUTO

     2450    15333    3              USE_ARRAY(2) = USE_INDEX + %EXTEND_# + %ENDING_#;

  15333 13 001224   200012 235100                    LDA     USE_INDEX,,AUTO
        13 001225   000005 035007                    ADLA    5,DL
        13 001226   200015 755100                    STA     USE_ARRAY+2,,AUTO
        13 001227   001245 710000 13                 TRA     s:15343

     2451    15334    3            CASE (ELSE);

     2452    15335    3              USE_NUMBER = 6;

  15335 13 001230   000006 236007                    LDQ     6,DL
        13 001231   200022 756100                    STQ     USE_NUMBER,,AUTO
PL6.E3A0      #010=Z9EN$USER_LABEL_PROCEDURES File=Z9EN.:Z8A6TSI                 SAT 08/09/97 14:03 Page:458

     2453    15336    4              DO I= 1 TO 6;

  15336 13 001232   000001 235007                    LDA     1,DL
        13 001233   200023 755100                    STA     I,,AUTO

     2454    15337    4                USE_ARRAY(I) = USE_INDEX + I - 1;

  15337 13 001234   200012 236100                    LDQ     USE_INDEX,,AUTO
        13 001235   200023 036100                    ADLQ    I,,AUTO
        13 001236   000001 136007                    SBLQ    1,DL
        13 001237   200023 720100                    LXL0    I,,AUTO
        13 001240   200013 756110                    STQ     USE_ARRAY,X0,AUTO

     2455    15338    4              END;

  15338 13 001241   200023 054100                    AOS     I,,AUTO
        13 001242   200023 235100                    LDA     I,,AUTO
        13 001243   000006 115007                    CMPA    6,DL
        13 001244   001234 604400 13                 TMOZ    s:15337

     2456    15339    3          END; /* Inner DO CASE */

     2457    15340
     2458    15341    2      END; /* Outer DO CASE */

     2459    15342
     2460    15343    1      FILE$ = OPERAND$ -> LX_LIST.HEAD$;

  15343 13 001245   200010 470500                    LDP0    @OPERAND$,,AUTO
        13 001246   000000 471500                    LDP1    0,,PR0
        13 001247   100004 236100                    LDQ     4,,PR1
        13 001250   200024 756100                    STQ     FILE$,,AUTO

     2461    15344
     2462    15345    2      DO WHILE (FILE$ ~= ADDR(NIL));

PL6.E3A0      #010=Z9EN$USER_LABEL_PROCEDURES File=Z9EN.:Z8A6TSI                 SAT 08/09/97 14:03 Page:459
  15345 13 001251   001444 710000 13                 TRA     s:15535

     2463    15346
     2464    15347    2        IF NOT FILE$ -> LX_ETT_ITEM.B.ERROR THEN

  15347 13 001252   200024 470500                    LDP0    FILE$,,AUTO
        13 001253   000000 236100                    LDQ     0,,PR0
        13 001254   400000 316007                    CANQ    -131072,DL
        13 001255   001441 601000 13                 TNZ     s:15533

     2465    15348    3          DO;

     2466    15349                 %FISH (TRIAD = FILE$ -> LX_ETT_ITEM.ETT$,
     2467    15350                        RTN   = ST$);

  15352 13 001256   000001 236100                    LDQ     1,,PR0
        13 001257   000000 756000 5                  STQ     ST$

  15353 13 001260   000000 471400 5                  LDP1    ST$
        13 001261   100000 220100                    LDX0    0,,PR1
        13 001262   000751 100003                    CMPX0   489,DU
        13 001263   001273 603000 13                 TRC     s:15363

  15354 13 001264   000000 470400 5                  LDP0    ST$
        13 001265   000001 236100                    LDQ     1,,PR0
        13 001266   000000 756000 5                  STQ     ST$

  15355 13 001267   000000 470400 5                  LDP0    ST$
        13 001270   000000 220100                    LDX0    0,,PR0
        13 001271   000751 100003                    CMPX0   489,DU
        13 001272   001264 602000 13                 TNC     s:15354

     2468    15358
     2469    15359                 %GET_LTS (@ID     = %FILE_LTS,
     2470    15360                           @ST$    = ST$,
     2471    15361                           @RETURN$ = FILE_LTS$);

PL6.E3A0      #010=Z9EN$USER_LABEL_PROCEDURES File=Z9EN.:Z8A6TSI                 SAT 08/09/97 14:03 Page:460
  15363 13 001273   000000 470400 5                  LDP0    ST$
        13 001274   000005 236100                    LDQ     5,,PR0
        13 001275   000003 116000 14                 CMPQ    3
        13 001276   001306 600000 13                 TZE     s:15397
        13 001277   000005 471500                    LDP1    5,,PR0
        13 001300   100000 220100                    LDX0    0,,PR1
        13 001301   001105 100003                    CMPX0   581,DU
        13 001302   001306 601000 13                 TNZ     s:15397

  15377 13 001303   100006 236100                    LDQ     6,,PR1
        13 001304   200025 756100                    STQ     FILE_LTS$,,AUTO

  15395 13 001305   001320 710000 13                 TRA     s:15405

  15397 13 001306   000003 116000 14                 CMPQ    3
        13 001307   001316 600000 13                 TZE     s:15401
        13 001310   000005 471500                    LDP1    5,,PR0
        13 001311   100000 220100                    LDX0    0,,PR1
        13 001312   001121 100003                    CMPX0   593,DU
        13 001313   001316 601000 13                 TNZ     s:15401

  15399 13 001314   200025 756100                    STQ     FILE_LTS$,,AUTO
        13 001315   001320 710000 13                 TRA     s:15405

  15401 13 001316   000003 236000 14                 LDQ     3
        13 001317   200025 756100                    STQ     FILE_LTS$,,AUTO

     2472    15404
     2473    15405    3            IF FILE_LTS$ -> FILE_LTS.LABEL_EXIT$ = ADDR(NIL) THEN

  15405 13 001320   200025 471500                    LDP1    FILE_LTS$,,AUTO
        13 001321   100056 236100                    LDQ     46,,PR1
        13 001322   000003 116000 14                 CMPQ    3
        13 001323   001376 601000 13                 TNZ     s:15509

     2474    15406                   %CREATE_LABEL_EXIT_TABLE;

PL6.E3A0      #010=Z9EN$USER_LABEL_PROCEDURES File=Z9EN.:Z8A6TSI                 SAT 08/09/97 14:03 Page:461
  15411 13 001324   000032 235007                    LDA     26,DL
        13 001325   000000 755000 0                  STA     ITERATION

  15489 13 001326   000002 236000 12                 LDQ     LTS_+2
        13 001327   000000 036000 0                  ADLQ    ITERATION
        13 001330   000003 116000 12                 CMPQ    LTS_+3
        13 001331   001342 604000 13                 TMI     s:15491

  15490 13 001332   000005 236000 14                 LDQ     5
        13 001333   200030 756100                    STQ     FILE_ERROR+1,,AUTO
        13 001334   200030 633500                    EPPR3   FILE_ERROR+1,,AUTO
        13 001335   200031 453500                    STP3    FILE_ERROR+2,,AUTO
        13 001336   200031 630500                    EPPR0   FILE_ERROR+2,,AUTO
        13 001337   000004 631400 14                 EPPR1   4
        13 001340   000000 701000 xent               TSX1    Z8AR$RESERVER
        13 001341   000000 011000                    NOP     0

  15491 13 001342   000002 236000 12                 LDQ     LTS_+2
        13 001343   000022 736000                    QLS     18
        13 001344   000001 036000 12                 ADLQ    LTS_+1
        13 001345   200026 756100                    STQ     PTR_ARRAY$,,AUTO

  15492 13 001346   000002 236000 12                 LDQ     LTS_+2
        13 001347   000000 036000 0                  ADLQ    ITERATION
        13 001350   000002 756000 12                 STQ     LTS_+2

  15493 13 001351   001122 220003                    LDX0    594,DU
        13 001352   200026 470500                    LDP0    PTR_ARRAY$,,AUTO
        13 001353   000000 740100                    STX0    0,,PR0

  15495 13 001354   000000 721000 0                  LXL1    ITERATION
        13 001355   000000 441100                    SXL1    0,,PR0

  15499 13 001356   000003 236000 14                 LDQ     3
        13 001357   000001 756100                    STQ     1,,PR0

  15502 13 001360   200023 450100                    STZ     I,,AUTO
PL6.E3A0      #010=Z9EN$USER_LABEL_PROCEDURES File=Z9EN.:Z8A6TSI                 SAT 08/09/97 14:03 Page:462
        13 001361   001367 710000 13                 TRA     s:15504+1

  15503 13 001362   000003 236000 14                 LDQ     3
        13 001363   200026 470500                    LDP0    PTR_ARRAY$,,AUTO
        13 001364   200023 720100                    LXL0    I,,AUTO
        13 001365   000002 756110                    STQ     2,X0,PR0

  15504 13 001366   200023 054100                    AOS     I,,AUTO
        13 001367   200023 235100                    LDA     I,,AUTO
        13 001370   000027 115007                    CMPA    23,DL
        13 001371   001362 604400 13                 TMOZ    s:15503

  15505 13 001372   200026 236100                    LDQ     PTR_ARRAY$,,AUTO
        13 001373   200025 471500                    LDP1    FILE_LTS$,,AUTO
        13 001374   100056 756100                    STQ     46,,PR1

  15506 13 001375   001377 710000 13                 TRA     s:15511

     2475    15508    3            ELSE
     2476    15509    3              PTR_ARRAY$ = FILE_LTS$ -> FILE_LTS.LABEL_EXIT$;

  15509 13 001376   200026 756100                    STQ     PTR_ARRAY$,,AUTO

     2477    15510
     2478    15511    3            FILE_ERROR = FALSE;

  15511 13 001377   200027 450100                    STZ     FILE_ERROR,,AUTO

     2479    15512
     2480    15513    4            DO I = 1 TO USE_NUMBER;

  15513 13 001400   000001 235007                    LDA     1,DL
        13 001401   200023 755100                    STA     I,,AUTO
        13 001402   001436 710000 13                 TRA     s:15529+1

     2481    15514    4              IF PTR_ARRAY$ -> LTS_PTR_ARRAY.P$(USE_ARRAY(I)) ~= ADDR(NIL) THEN

PL6.E3A0      #010=Z9EN$USER_LABEL_PROCEDURES File=Z9EN.:Z8A6TSI                 SAT 08/09/97 14:03 Page:463
  15514 13 001403   200023 720100                    LXL0    I,,AUTO
        13 001404   200013 235110                    LDA     USE_ARRAY,X0,AUTO
        13 001405   200026 470500                    LDP0    PTR_ARRAY$,,AUTO
        13 001406   000002 236105                    LDQ     2,AL,PR0
        13 001407   000003 116000 14                 CMPQ    3
        13 001410   001431 600000 13                 TZE     s:15526

     2482    15515
     2483    15516    5                DO;

     2484    15517    5                  IF NOT FILE_ERROR THEN

  15517 13 001411   200027 234100                    SZN     FILE_ERROR,,AUTO
        13 001412   001426 604000 13                 TMI     s:15522

     2485    15518    5                    CALL Z8AE$ERROR (%E$DUPLICATE_USER_LABEL_PROC,

  15518 13 001413   200024 236100                    LDQ     FILE$,,AUTO
        13 001414   000006 036003                    ADLQ    6,DU
        13 001415   200032 756100                    STQ     FILE_ERROR+3,,AUTO
        13 001416   200024 236100                    LDQ     FILE$,,AUTO
        13 001417   000005 036003                    ADLQ    5,DU
        13 001420   000007 235000 14                 LDA     7
        13 001421   200030 757100                    STAQ    FILE_ERROR+1,,AUTO
        13 001422   200030 630500                    EPPR0   FILE_ERROR+1,,AUTO
        13 001423   000000 631400 14                 EPPR1   0
        13 001424   000000 701000 xent               TSX1    Z8AE$ERROR
        13 001425   000000 011000                    NOP     0

     2486    15519    5                                     FILE$ -> LX_ETT_ITEM.LINE,
     2487    15520    5                                     FILE$ -> LX_ETT_ITEM.COLUMN);
     2488    15521
     2489    15522    5                  FILE_ERROR = TRUE;

  15522 13 001426   400000 236003                    LDQ     -131072,DU
        13 001427   200027 756100                    STQ     FILE_ERROR,,AUTO

PL6.E3A0      #010=Z9EN$USER_LABEL_PROCEDURES File=Z9EN.:Z8A6TSI                 SAT 08/09/97 14:03 Page:464
     2490    15523    5                END;

  15523 13 001430   001435 710000 13                 TRA     s:15529

     2491    15524    4              ELSE
     2492    15525    5                DO;

     2493    15526    5                  PTR_ARRAY$ -> LTS_PTR_ARRAY.P$(USE_ARRAY(I)) = USE_SECT$;

  15526 13 001431   200013 235110                    LDA     USE_ARRAY,X0,AUTO
        13 001432   200011 471500                    LDP1    @USE_SECT$,,AUTO
        13 001433   100000 236100                    LDQ     0,,PR1
        13 001434   000002 756105                    STQ     2,AL,PR0

     2494    15527    5                END;

     2495    15528
     2496    15529    4            END;  /* DO I = ... */

  15529 13 001435   200023 054100                    AOS     I,,AUTO
        13 001436   200023 236100                    LDQ     I,,AUTO
        13 001437   200022 116100                    CMPQ    USE_NUMBER,,AUTO
        13 001440   001403 604400 13                 TMOZ    s:15514

     2497    15530
     2498    15531    3        END; /* IF NOT ... */

     2499    15532
     2500    15533    2        FILE$ = FILE$ -> LX_ETT_ITEM.LINK;

  15533 13 001441   200024 470500                    LDP0    FILE$,,AUTO
        13 001442   000007 236100                    LDQ     7,,PR0
        13 001443   200024 756100                    STQ     FILE$,,AUTO

     2501    15534
     2502    15535    2      END; /* DO WHILE .. */

PL6.E3A0      #010=Z9EN$USER_LABEL_PROCEDURES File=Z9EN.:Z8A6TSI                 SAT 08/09/97 14:03 Page:465
  15535 13 001444   000003 116000 14                 CMPQ    3
        13 001445   001252 601000 13                 TNZ     s:15347

     2503    15536
     2504    15537    1    END Z9EN$USER_LABEL_PROCEDURES;

  15537 13 001446   000000 702200 xent               TSX2  ! X66_ARET
     2505    15538        %EOD;

PL6.E3A0      #010=Z9EN$USER_LABEL_PROCEDURES File=Z9EN.:Z8A6TSI                 SAT 08/09/97 14:03 Page:466
--  Include file information  --

   Z8A_IO_EQUS.:Z8A6TOU  is referenced.
   Z8A_LTS.:Z8A6TOU  cannot be made into a system file and is referenced.
   Z8A_ETT.:Z8A6TOU  cannot be made into a system file and is referenced.
   Z8E_WINDOW.:Z8A6TOU  is referenced.
   Z8A_ST.:Z8A6TOU  cannot be made into a system file and is referenced.
   Z8A_ERR_NUMS.:Z8A6TOU  is referenced.
   Z8E_NEW_ILL.:Z8A6TOU  is referenced.
   Z8E_MACROS.:Z8A6TOU  cannot be made into a system file and is referenced.
   Z8E_O1COM.:Z8A6TOU  cannot be made into a system file and is referenced.
   Z8A_LEX_SYMB.:Z8A6TOU  cannot be made into a system file and is referenced.
   Z8E_STACKS.:Z8A6TOU  cannot be made into a system file and is referenced.
   X8A_COM_MACS.:X8A6TOU  is referenced.
   Z8A_NAMES.:Z8A6TOU  is referenced.
   Z8A_SUPP_MAC.:Z8A6TOU  is referenced.
   Z8A_DEFC.:Z8A6TOU  cannot be made into a system file and is referenced.
      No diagnostics issued in procedure Z9EN$USER_LABEL_PROCEDURES.
PL6.E3A0      #010=Z9EN$USER_LABEL_PROCEDURES File=Z9EN.:Z8A6TSI                 SAT 08/09/97 14:03 Page:467

 **** Variables and constants ****

  ****  Section 000 LblCom ITERATION

  ****  Scalars and arrays  ****
OctLoc.c.b A Datatyp(siz) R M Lvl/name                 OctLoc.c.b A Datatyp(siz) R M Lvl/name

     0-0-0/w SBIN        r     1 ITERATION

  ****  Section 001 LblCom LEX_SYMBOL

  ****  Scalars and arrays  ****
OctLoc.c.b A Datatyp(siz) R M Lvl/name                 OctLoc.c.b A Datatyp(siz) R M Lvl/name

     0-0-0/w STRC(3240)  r     1 LEX_SYMBOL                 0-0-0/w STRC(3240)        1 LEX_SYMBOL_WORDS

  ****  Section 002 LblCom CURRENT_LEX_SYMBOL$

  ****  Scalars and arrays  ****
OctLoc.c.b A Datatyp(siz) R M Lvl/name                 OctLoc.c.b A Datatyp(siz) R M Lvl/name

     0-0-0/w PTR         r     1 CURRENT_LEX_SYMBOL$

  ****  Section 003 LblCom TEMP_LEX_SYMBOL

  ****  Scalars and arrays  ****
OctLoc.c.b A Datatyp(siz) R M Lvl/name                 OctLoc.c.b A Datatyp(siz) R M Lvl/name

     0-0-0/w STRC(3240)        1 TEMP_LEX_SYMBOL

  ****  Section 004 LblCom TEMP_LEX_SYMBOL2

  ****  Scalars and arrays  ****
OctLoc.c.b A Datatyp(siz) R M Lvl/name                 OctLoc.c.b A Datatyp(siz) R M Lvl/name

     0-0-0/w STRC(3240)        1 TEMP_LEX_SYMBOL2

PL6.E3A0      #010=Z9EN$USER_LABEL_PROCEDURES File=Z9EN.:Z8A6TSI                 SAT 08/09/97 14:03 Page:468
  ****  Section 005 LblCom ST$

  ****  Scalars and arrays  ****
OctLoc.c.b A Datatyp(siz) R M Lvl/name                 OctLoc.c.b A Datatyp(siz) R M Lvl/name

     0-0-0/w PTR         r     1 ST$

  ****  Section 006 LblCom ST_

  ****  Scalars and arrays  ****
OctLoc.c.b A Datatyp(siz) R M Lvl/name                 OctLoc.c.b A Datatyp(siz) R M Lvl/name

     0-0-0/w STRC(180)         1 ST_

  ****  Section 007 LblCom ETT$

  ****  Scalars and arrays  ****
OctLoc.c.b A Datatyp(siz) R M Lvl/name                 OctLoc.c.b A Datatyp(siz) R M Lvl/name

     0-0-0/w PTR         r     1 ETT$

  ****  Section 008 LblCom HEAD_ETT$

  ****  Scalars and arrays  ****
OctLoc.c.b A Datatyp(siz) R M Lvl/name                 OctLoc.c.b A Datatyp(siz) R M Lvl/name

     0-0-0/w PTR               1 HEAD_ETT$

  ****  Section 009 LblCom ETT_BUCKETS

  ****  Scalars and arrays  ****
OctLoc.c.b A Datatyp(siz) R M Lvl/name                 OctLoc.c.b A Datatyp(siz) R M Lvl/name

     0-0-0/w PTR               1 ETT_BUCKETS(0:511)

  ****  Section 010 LblCom ETT_

PL6.E3A0      #010=Z9EN$USER_LABEL_PROCEDURES File=Z9EN.:Z8A6TSI                 SAT 08/09/97 14:03 Page:469
  ****  Scalars and arrays  ****
OctLoc.c.b A Datatyp(siz) R M Lvl/name                 OctLoc.c.b A Datatyp(siz) R M Lvl/name

     0-0-0/w STRC(180)         1 ETT_

  ****  Section 011 LblCom LTS$

  ****  Scalars and arrays  ****
OctLoc.c.b A Datatyp(siz) R M Lvl/name                 OctLoc.c.b A Datatyp(siz) R M Lvl/name

     0-0-0/w PTR               1 LONG_ITEM$                 0-0-0/w PTR         r     1 LTS$

  ****  Section 012 LblCom LTS_

  ****  Scalars and arrays  ****
OctLoc.c.b A Datatyp(siz) R M Lvl/name                 OctLoc.c.b A Datatyp(siz) R M Lvl/name

     0-0-0/w STRC(180)   r     1 LTS_

  ****  Auto variables  ****

  ****  Scalars and arrays  ****
OctLoc.c.b A Datatyp(siz) R M Lvl/name                 OctLoc.c.b A Datatyp(siz) R M Lvl/name

     5-0-0/w PTR         r     1 @BEGIN$                    4-0-0/w PTR         r     1 @GLOBAL$
     7-0-0/w PTR         r     1 @MODE$                    10-0-0/w PTR         r     1 @OPERAND$
     6-0-0/w PTR         r     1 @UNIT$                    11-0-0/w PTR         r     1 @USE_SECT$
     3-0-0/w PTR         r     1 @USE_TYPE                 *0-0-0/w PTR         r     1 BEGIN$
    24-0-0/w PTR         r     1 FILE$                     27-0-0/b BIT         r     1 FILE_ERROR
    25-0-0/w PTR         r     1 FILE_LTS$                 *0-0-0/w PTR         r     1 GLOBAL$
    23-0-0/w SBIN        r     1 I                         *0-0-0/w PTR         r     1 MODE$
    *0-0-0/w PTR         r     1 OPERAND$                  26-0-0/w PTR         r     1 PTR_ARRAY$
    *0-0-0/w PTR         r     1 UNIT$
    13-0-0/w SBIN        r     1 USE_ARRAY(0:6)
    12-0-0/w SBIN        r     1 USE_INDEX                 22-0-0/w SBIN        r     1 USE_NUMBER
    *0-0-0/w PTR         r     1 USE_SECT$                 *0-0-0/w SBIN        r     1 USE_TYPE

PL6.E3A0      #010=Z9EN$USER_LABEL_PROCEDURES File=Z9EN.:Z8A6TSI                 SAT 08/09/97 14:03 Page:470
  ****  SYMREF variables  ****

  ****  Scalars and arrays  ****
OctLoc.c.b A Datatyp(siz) R M Lvl/name                 OctLoc.c.b A Datatyp(siz) R M Lvl/name

     0-0-0/w STRC(180)         1 HIER_STK(0:50)
     0-0-0/w SBIN              1 HIER_STK_PTR
     0-0-0/w UBIN              1 LTS_STEP(0:37)
     0-0-0/d STRC(11580)       1 O1COM                      0-0-0/w STRC(144)         1 PAGE_FORMAT
     0-0-0/w STRC(153)         1 REP_STK(0:50)              0-0-0/w SBIN              1 REP_STK_PTR

  ****  BASED and DCB variables  ****

  ****  Scalars and arrays  ****
OctLoc.c.b A Datatyp(siz) R M Lvl/name                 OctLoc.c.b A Datatyp(siz) R M Lvl/name

     0-0-0/w STRC(288)         1 ADD_STMT                   0-0-0/w STRC(396)         1 ALPHABET
     0-0-0/w STRC(144)         1 ALTER_LTS                  0-0-0/w STRC(3672)        1 ALT_KEY
     0-0-0/w STRC(36864)       1 ARGLIST                    0-0-0/w STRC(396)         1 ARRAY
     0-0-0/w STRC(180)         1 ARRAY_PRESET_LTS           0-0-0/w ASTR(324)   r     1 BASED_LEX_SYMBOL
     0-0-0/w STRC(360)         1 BASED_LEX_SYMBOL_WORDS
     0-0-0/w STRC(288)         1 BASE_LTS                   0-0-0/w STRC(288)         1 BINARY_OP
     0-0-0/w STRC(396)         1 BLOCK                      0-0-0/w STRC(144)         1 BT
     0-0-0/w STRC(288)         1 CALL_STMT                  0-0-0/w STRC(396)         1 CD
     0-0-0/w STRC(288)         1 CD_LTS                     0-0-0/w CHAR(4096)        1 CHARS
     0-0-0/w STRC(396)         1 CLASS                      0-0-0/w STRC(288)         1 COMPUTE_STMT
     0-0-0/w STRC(396)         1 CONDITION                  0-0-0/w STRC(396)         1 CONST
     0-0-0/w STRC(72)          1 CONT                       0-0-0/w STRC(540)         1 CONTROL_NAME_LTS
     0-0-0/w STRC(1872)        1 COPY_FILE                  0-0-0/w STRC(396)         1 DB
     0-0-0/w STRC(396)         1 DCB_                       0-0-0/w STRC(288)         1 DEFERED_IDENTIFIER
     0-0-0/w STRC(252)         1 DEFERED_ID_TREE            0-0-0/w STRC(288)         1 DEFERED_QUAL_ID
     0-0-0/w STRC(288)         1 DEFERED_SUM_CLAUSE
     0-0-0/w STRC(288)         1 DEFERED_SUM_CLAUSE_LIST
     0-0-0/w STRC(288)         1 DELETE_STMT                0-0-0/w STRC(108)         1 DEPENDING_SIZE
     0-0-0/w STRC(5472)        1 DIMS                       0-0-0/w STRC(288)         1 DIVIDE_STMT
     0-0-0/w STRC(396)         1 DML_ITEM                   0-0-0/w STRC(216)         1 DML_REC
     0-0-0/w STRC(180)   r     1 ETT                        0-0-0/w STRC(73836)       1 EVALUATE
PL6.E3A0      #010=Z9EN$USER_LABEL_PROCEDURES File=Z9EN.:Z8A6TSI                 SAT 08/09/97 14:03 Page:471
     0-0-0/w STRC(396)         1 FD                         0-0-0/w STRC(1692)  r     1 FILE_LTS
     0-0-0/w STRC(288)         1 ILS_LIST                   0-0-0/w STRC(108)         1 INDEXES
     0-0-0/w STRC(360)         1 INIT_LTS                   0-0-0/w STRC(288)         1 INSPECT_1_STMT
     0-0-0/w STRC(288)         1 INSPECT_2_STMT             0-0-0/w STRC(288)         1 INSPECT_4_STMT
     0-0-0/w STRC(396)         1 INTDEF                     0-0-0/w STRC(180)         1 IO_RESTORE_CHAIN
     0-0-0/w STRC(144)         1 KEY                        0-0-0/w STRC(396)         1 LABEL
     0-0-0/w STRC(288)         1 LA_ITEM                    0-0-0/w STRC(36864)       1 LCNST
     0-0-0/w STRC(72)          1 LONG                       0-0-0/w STRC        r     1 LTS
     0-0-0/w STRC(360)   r     1 LTSS                       0-0-0/w STRC(36936) r     1 LTS_PTR_ARRAY
     0-0-0/w STRC(504)         1 LX_CD_INPUT                0-0-0/w STRC(324)         1 LX_CD_I_O
     0-0-0/w STRC(396)         1 LX_CD_OUTPUT               0-0-0/w STRC(288)   r     1 LX_ETT_ITEM
     0-0-0/w STRC(288)   r     1 LX_ITEM                    0-0-0/w STRC(288)         1 LX_LARGE
     0-0-0/w STRC(288)   r     1 LX_LIST                    0-0-0/w STRC(1224)        1 LX_REC_DECL
     0-0-0/w STRC(864)         1 LX_REPORT_REC              0-0-0/w STRC(288)   r     1 LX_TERMINAL
     0-0-0/w STRC(396)         1 MNEMONIC                   0-0-0/w STRC(288)         1 MULTIPLY_STMT
     0-0-0/w STRC(144)         1 NEL                        0-0-0/w STRC(216)         1 OPEN_LTS
     0-0-0/w STRC(36864)       1 PAGE                       0-0-0/w STRC(396)         1 PARA
     0-0-0/w STRC(144)         1 PRIME                      0-0-0/w STRC(396)         1 PROC_
     0-0-0/w STRC(396)         1 PROC_DEF                   0-0-0/w STRC(900)         1 PROC_SUPP
     0-0-0/w STRC(396)         1 RD                         0-0-0/w STRC(288)         1 READ_STMT
     0-0-0/w STRC(216)         1 REF                        0-0-0/w STRC(108)         1 RENAMES
     0-0-0/w STRC(720)         1 REPORT_01_LTS              0-0-0/w STRC(432)         1 REPORT_ELEM_LTS
     0-0-0/w STRC(252)         1 REPORT_GRP_LTS             0-0-0/w STRC(1332)        1 REPORT_LTS
     0-0-0/w STRC(288)         1 REWRITE_STMT               0-0-0/w STRC(144)         1 RVA_LTS
     0-0-0/w STRC(396)         1 SCALAR                     0-0-0/w STRC(396)         1 SD
     0-0-0/w STRC(396)         1 SECTION                    0-0-0/w STRC(396)         1 SEGMENT
     0-0-0/w STRC(360)         1 SEGMENT_LTS                0-0-0/w STRC(396)         1 ST
     0-0-0/w STRC(288)         1 START_STMT                 0-0-0/w STRC(252)         1 STRING_STMT
     0-0-0/w STRC(288)         1 SUBTRACT_STMT              0-0-0/w STRC(252)         1 SUM_LTS
     0-0-0/w STRC(396)         1 SWITCH                     0-0-0/w STRC(396)         1 SYMBOLIC_CHAR
     0-0-0/w STRC(396)         1 SYMDEF_                    0-0-0/w STRC(396)         1 SYMREF_
     0-0-0/w STRC(396)         1 TEMP                       0-0-0/w STRC(288)         1 UNARY_OP
     0-0-0/w STRC(288)         1 UNSTRING_STMT              0-0-0/d STRC(612)         1 USE
     0-0-0/w STRC(252)         1 USE_SUPP                   0-0-0/w STRC(396)   r     1 VARIABLE
     0-0-0/w STRC(288)         1 WRITE_STMT

PL6.E3A0      #010=Z9EN$USER_LABEL_PROCEDURES File=Z9EN.:Z8A6TSI                 SAT 08/09/97 14:03 Page:472

   Procedure Z9EN$USER_LABEL_PROCEDURES requires 807 words for executable code.
   Procedure Z9EN$USER_LABEL_PROCEDURES requires 28 words of local(AUTO) storage.

PL6.E3A0      #011=Z9EN$CREATE_MOVE File=Z9EN.:Z8A6TSI                           SAT 08/09/97 14:05 Page:473
     2506        1        /*T***********************************************************/
     2507        2        /*T*                                                         */
     2508        3        /*T* Copyright (c) Bull HN Information Systems Inc., 1997    */
     2509        4        /*T*                                                         */
     2510        5        /*T***********************************************************/
     2511        6        Z9EN$CREATE_MOVE : PROC (FAB_ITEM$,                         /*#42918*/
     2512        7                                 ARGLIST$,
     2513        8                                 FAB_OFFSET,
     2514        9                                 FILE_LTS$);
     2515       10
     2516       11        %EQU PHASE = 1;
     2517       12        %INCLUDE Z8A_DEFC;
     2518       80        %INCLUDE Z9A_FLAGS;
     2519       94        %INCLUDE Z8A_SUPP_MAC;
     2520     2494        %INCLUDE Z8A_ERR_NUMS;
     2521     3258        %INCLUDE Z8A_ILL;
     2522     3951        %INCLUDE Z8A_LTS;
     2523     6028        %INCLUDE Z8A_QLT;
     2524     6134        %INCLUDE Z8A_ST;
     2525     9793        %INCLUDE Z8E_MACROS;
     2526    10468        %INCLUDE Z8E_STACKS;
     2527    12734        %IF NOT EASEE;
     2528    12735        %INCLUDE Z8E_O1COM;
     2529    13496        %ENDIF;
     2530    13497
     2531    13498    1   DCL FAB_ITEM$  PTR;
     2532    13499    1   DCL ARGLIST$   PTR;
     2533    13500    1   DCL FAB_OFFSET SBIN;
     2534    13501    1   DCL FILE_LTS$  PTR;
     2535    13502
     2536    13503    1   DCL ARG$       PTR;
     2537    13504    1   DCL FAB$$      PTR;
     2538    13505    1   DCL RETURN$    PTR;
     2539    13506    1   DCL O1_LEVEL$  PTR;
     2540    13507    1   DCL SON$       PTR;
     2541    13508    1   DCL SA         SBIN;
     2542    13509    1   DCL CN         UBIN;
PL6.E3A0      #011=Z9EN$CREATE_MOVE File=Z9EN.:Z8A6TSI                           SAT 08/09/97 14:05 Page:474
     2543    13510    1   DCL ARG_OFFSET SBIN;
     2544    13511    1   DCL LTS$$      PTR;
     2545    13512
     2546    13513    1   DCL Z8AF$NEW_OFF  ENTRY(3);
     2547    13514    1   DCL Z8AF$NEW_BASE ENTRY(3);
     2548    13515        %EJECT;
PL6.E3A0      #011=Z9EN$CREATE_MOVE File=Z9EN.:Z8A6TSI                           SAT 08/09/97 14:05 Page:475
     2549    13516    1     IF FAB_ITEM$ -> SCALAR.QLT$ -> QLT.LEVEL_NO = 1 THEN
     2550    13517    2       DO;
     2551    13518    2         O1_LEVEL$ = FAB_ITEM$;
     2552    13519    2         SA = 0;
     2553    13520    2         CN = 0;
     2554    13521    2       END;
     2555    13522    1     ELSE
     2556    13523    2       DO;
     2557    13524    2         SON$ = FAB_ITEM$ -> SCALAR.QLT$;
     2558    13525    3         DO UNTIL SON$ -> QLT.LEVEL_NO = 1;
     2559    13526    3           SON$ = SON$ -> QLT.FATHER;
     2560    13527    3         END;
     2561    13528    2         O1_LEVEL$ = SON$ -> QLT.ST$;
     2562    13529    2         SA = FAB_ITEM$ -> SCALAR.SA;
     2563    13530    2         CN = FAB_ITEM$ -> SCALAR.NDSC.CN;
     2564    13531    2       END;
     2565    13532
     2566    13533          %GET_LTS (@ID = %BASE_LTS,
     2567    13534                    @ST$ = O1_LEVEL$,
     2568    13535                    @RETURN$ = LTS$$);
     2569    13578    1     IF ARGLIST$ ~= ADDR (NIL) AND
     2570    13579    1         LTS$$ -> BASE_LTS.SEQ# < ARGLIST$ -> ARGLIST.N THEN
     2571    13580    1       RETURN;
     2572    13581    1     ARG_OFFSET = LTS$$ -> BASE_LTS.SEQ#;
     2573    13582    1     CALL Z8AF$NEW_OFF( O1COM.CURRENT_PROC$ -> PROC_.PSEUDO_STACK$,
     2574    13583    1                        ARG_OFFSET * 4,
     2575    13584    1                        ARG$ );
     2576    13585    1     CALL Z8AF$NEW_BASE( FILE_LTS$ -> FILE_LTS.FAB$,
     2577    13586    1                         ADDR(NIL),
     2578    13587    1                         RETURN$ );
     2579    13588    1     CALL Z8AF$NEW_OFF( RETURN$,
     2580    13589    1                        FAB_OFFSET * 4,
     2581    13590    1                        FAB$$ );
     2582    13591          %NEW_ILL (@ID = %MVII,
     2583    13592                    @LOP = FAB$$,
     2584    13593                    @ROP = ARG$);
     2585    13972    1     IF SA ~= 0 OR CN ~= 0 THEN
PL6.E3A0      #011=Z9EN$CREATE_MOVE File=Z9EN.:Z8A6TSI                           SAT 08/09/97 14:05 Page:476
     2586    13973            %NEW_ILL (@ID = %PINC,
     2587    13974                      @LOP = FAB$$,
     2588    13975                      @ROP = FAB_ITEM$,
     2589    13976                      @ROPCON = SA);
     2590    14355    1   END Z9EN$CREATE_MOVE;
     2591    14356         %EJECT;
PL6.E3A0      #011=Z9EN$CREATE_MOVE File=Z9EN.:Z8A6TSI                           SAT 08/09/97 14:05 Page:477

PL6.E3A0      #011=Z9EN$CREATE_MOVE File=Z9EN.:Z8A6TSI                           SAT 08/09/97 14:05 Page:478
--  Include file information  --

   Z8E_O1COM.:Z8A6TOU  cannot be made into a system file and is referenced.
   Z8A_LEX_SYMB.:Z8A6TOU  cannot be made into a system file and is referenced.
   Z8E_STACKS.:Z8A6TOU  cannot be made into a system file and is referenced.
   Z8E_NEW_ILL.:Z8A6TOU  is referenced.
   Z8E_MACROS.:Z8A6TOU  cannot be made into a system file and is referenced.
   Z8A_ST.:Z8A6TOU  cannot be made into a system file and is referenced.
   Z8A_QLT.:Z8A6TOU  cannot be made into a system file and is referenced.
   Z8A_LTS.:Z8A6TOU  cannot be made into a system file and is referenced.
   Z8A_ILL.:Z8A6TOU  cannot be made into a system file and is referenced.
   Z8A_ERR_NUMS.:Z8A6TOU  is referenced.
   X8A_COM_MACS.:X8A6TOU  is referenced.
   Z8A_NAMES.:Z8A6TOU  is referenced.
   Z8A_SUPP_MAC.:Z8A6TOU  is referenced.
   Z9A_FLAGS.:Z8A6TOU  is referenced.
   Z8A_DEFC.:Z8A6TOU  cannot be made into a system file and is referenced.
      No diagnostics issued in procedure Z9EN$CREATE_MOVE.

   Procedure Z9EN$CREATE_MOVE requires 157 words for executable code.
   Procedure Z9EN$CREATE_MOVE requires 22 words of local(AUTO) storage.

    No errors detected in file Z9EN.:Z8A6TSI    .

PL6.E3A0      #011=Z9EN$CREATE_MOVE File=Z9EN.:Z8A6TSI                           SAT 08/09/97 14:05 Page:479

 Object Unit name= Z9EN$CREATE_MOVE                           File name= Z9EN.:Z8A6TOU
 UTS= AUG 09 '97 14:05:01.36 SAT                              Compiler= PL-6/E31         Sev=      00
 SharedLib= :SHARED_SYSTEM                                    Alt SharedLib=


    ****  Control sections  ****

 Sect   Type Bound  Init  Size OctSiz  Section name(segment info)
    0  LblCom even  none     1      1  ITERATION
    1  LblCom even  none     1      1  ILL$
    2  LblCom even  none     5      5  ILL_
    3  LblCom even  none     1      1  LTS$
    4  LblCom even  none     5      5  LTS_
    5  LblCom even  none     1      1  QLT$
    6  LblCom even  none     1      1  PREV_01_QLT$
    7  LblCom even  none     5      5  QLT_
    8  LblCom even  none     1      1  ST$
    9  LblCom even  none     5      5  ST_
   10  LblCom even  none    90    132  LEX_SYMBOL
   11  LblCom even  none     1      1  CURRENT_LEX_SYMBOL$
   12  LblCom even  none    90    132  TEMP_LEX_SYMBOL
   13  LblCom even  none    90    132  TEMP_LEX_SYMBOL2
   14   Proc  even  none   157    235  Z9EN$CREATE_MOVE
   15  RoData even  none    12     14  Z9EN$CREATE_MOVE

    ****  Entry defs  ****

                              Check   Calling
                             calling  sequence
  Sect OctLoc Primary Altret sequence   type   Parms  Name
    14      0   yes            yes      Std        4  Z9EN$CREATE_MOVE
PL6.E3A0      #011=Z9EN$CREATE_MOVE File=Z9EN.:Z8A6TSI                           SAT 08/09/97 14:05 Page:480

  ****  Entry refs  ****

         Check        Calling
        calling       sequence
Altret sequence SRef   type   Args  Name
         yes           Std       3 Z8AF$NEW_OFF
         yes           Std       3 Z8AF$NEW_BASE
         yes           Std       5 Z8AN$NEW_ILL1
                       nStd      0 X66_AUTO_4
                       nStd      0 X66_ARET

  ****  Data refs  ****

  Flags:  r = read only, s = secondary
Flgs Name                             Flgs Name                             Flgs Name
r    ILL_STEP                         r    LTS_STEP                              O1COM
     HIER_STK_PTR                          HIER_STK                              PAGE_FORMAT
     REP_STK_PTR                           REP_STK

  ****  Segment refs  ****

  Flags:  r = read only, s = secondary
Flgs Name                             Flgs Name                             Flgs Name
     NULLSID                               ISSID
PL6.E3A0      #011=Z9EN$CREATE_MOVE File=Z9EN.:Z8A6TSI                           SAT 08/09/97 14:05 Page:481


     2506        1        /*T***********************************************************/
     2507        2        /*T*                                                         */
     2508        3        /*T* Copyright (c) Bull HN Information Systems Inc., 1997    */
     2509        4        /*T*                                                         */
     2510        5        /*T***********************************************************/
     2511        6        Z9EN$CREATE_MOVE : PROC (FAB_ITEM$,                         /*#42918*/

      6 14 000000   000000 700200 xent  Z9EN$CREATE* TSX0  ! X66_AUTO_4
        14 000001   000026 000004                    ZERO    22,4

     2512        7                                 ARGLIST$,
     2513        8                                 FAB_OFFSET,
     2514        9                                 FILE_LTS$);
     2515       10
     2516       11        %EQU PHASE = 1;
     2517       12        %INCLUDE Z8A_DEFC;
     2518       80        %INCLUDE Z9A_FLAGS;
     2519       94        %INCLUDE Z8A_SUPP_MAC;
     2520     2494        %INCLUDE Z8A_ERR_NUMS;
     2521     3258        %INCLUDE Z8A_ILL;
     2522     3951        %INCLUDE Z8A_LTS;
     2523     6028        %INCLUDE Z8A_QLT;
     2524     6134        %INCLUDE Z8A_ST;
     2525     9793        %INCLUDE Z8E_MACROS;
     2526    10468        %INCLUDE Z8E_STACKS;
     2527    12734        %IF NOT EASEE;
     2528    12735        %INCLUDE Z8E_O1COM;
     2529    13496        %ENDIF;
     2530    13497
     2531    13498    1   DCL FAB_ITEM$  PTR;
     2532    13499    1   DCL ARGLIST$   PTR;
     2533    13500    1   DCL FAB_OFFSET SBIN;
     2534    13501    1   DCL FILE_LTS$  PTR;
     2535    13502
     2536    13503    1   DCL ARG$       PTR;
     2537    13504    1   DCL FAB$$      PTR;
PL6.E3A0      #011=Z9EN$CREATE_MOVE File=Z9EN.:Z8A6TSI                           SAT 08/09/97 14:05 Page:482
     2538    13505    1   DCL RETURN$    PTR;
     2539    13506    1   DCL O1_LEVEL$  PTR;
     2540    13507    1   DCL SON$       PTR;
     2541    13508    1   DCL SA         SBIN;
     2542    13509    1   DCL CN         UBIN;
     2543    13510    1   DCL ARG_OFFSET SBIN;
     2544    13511    1   DCL LTS$$      PTR;
     2545    13512
     2546    13513    1   DCL Z8AF$NEW_OFF  ENTRY(3);
     2547    13514    1   DCL Z8AF$NEW_BASE ENTRY(3);
     2548    13515        %EJECT;
PL6.E3A0      #011=Z9EN$CREATE_MOVE File=Z9EN.:Z8A6TSI                           SAT 08/09/97 14:05 Page:483
     2549    13516    1     IF FAB_ITEM$ -> SCALAR.QLT$ -> QLT.LEVEL_NO = 1 THEN

  13516 14 000002   200003 470500                    LDP0    @FAB_ITEM$,,AUTO
        14 000003   000000 471500                    LDP1    0,,PR0
        14 000004   100007 473500                    LDP3    7,,PR1
        14 000005   300000 236100                    LDQ     0,,PR3
        14 000006   000777 376007                    ANQ     511,DL
        14 000007   000001 116007                    CMPQ    1,DL
        14 000010   000016 601000 14                 TNZ     s:13524

     2550    13517    2       DO;

     2551    13518    2         O1_LEVEL$ = FAB_ITEM$;

  13518 14 000011   000000 236100                    LDQ     0,,PR0
        14 000012   200012 756100                    STQ     O1_LEVEL$,,AUTO

     2552    13519    2         SA = 0;

  13519 14 000013   200014 450100                    STZ     SA,,AUTO

     2553    13520    2         CN = 0;

  13520 14 000014   200015 450100                    STZ     CN,,AUTO

     2554    13521    2       END;

  13521 14 000015   000043 710000 14                 TRA     s:13537

     2555    13522    1     ELSE
     2556    13523    2       DO;

     2557    13524    2         SON$ = FAB_ITEM$ -> SCALAR.QLT$;

  13524 14 000016   100007 236100                    LDQ     7,,PR1
        14 000017   200013 756100                    STQ     SON$,,AUTO

PL6.E3A0      #011=Z9EN$CREATE_MOVE File=Z9EN.:Z8A6TSI                           SAT 08/09/97 14:05 Page:484
     2558    13525    3         DO UNTIL SON$ -> QLT.LEVEL_NO = 1;

     2559    13526    3           SON$ = SON$ -> QLT.FATHER;

  13526 14 000020   200013 470500                    LDP0    SON$,,AUTO
        14 000021   000001 236100                    LDQ     1,,PR0
        14 000022   200013 756100                    STQ     SON$,,AUTO

     2560    13527    3         END;

  13527 14 000023   200013 470500                    LDP0    SON$,,AUTO
        14 000024   000000 236100                    LDQ     0,,PR0
        14 000025   000777 376007                    ANQ     511,DL
        14 000026   000001 116007                    CMPQ    1,DL
        14 000027   000020 601000 14                 TNZ     s:13526

     2561    13528    2         O1_LEVEL$ = SON$ -> QLT.ST$;

  13528 14 000030   000004 236100                    LDQ     4,,PR0
        14 000031   200012 756100                    STQ     O1_LEVEL$,,AUTO

     2562    13529    2         SA = FAB_ITEM$ -> SCALAR.SA;

  13529 14 000032   200003 471500                    LDP1    @FAB_ITEM$,,AUTO
        14 000033   100000 473500                    LDP3    0,,PR1
        14 000034   300001 236100                    LDQ     1,,PR3
        14 000035   000022 772000                    QRL     18
        14 000036   200014 756100                    STQ     SA,,AUTO

     2563    13530    2         CN = FAB_ITEM$ -> SCALAR.NDSC.CN;

  13530 14 000037   300001 236100                    LDQ     1,,PR3
        14 000040   000017 772000                    QRL     15
        14 000041   000007 376007                    ANQ     7,DL
        14 000042   200015 756100                    STQ     CN,,AUTO

     2564    13531    2       END;
PL6.E3A0      #011=Z9EN$CREATE_MOVE File=Z9EN.:Z8A6TSI                           SAT 08/09/97 14:05 Page:485

     2565    13532
     2566    13533          %GET_LTS (@ID = %BASE_LTS,
     2567    13534                    @ST$ = O1_LEVEL$,
     2568    13535                    @RETURN$ = LTS$$);

  13537 14 000043   200012 470500                    LDP0    O1_LEVEL$,,AUTO
        14 000044   000005 236100                    LDQ     5,,PR0
        14 000045   000000 116000 15                 CMPQ    0
        14 000046   000056 600000 14                 TZE     s:13571
        14 000047   000005 471500                    LDP1    5,,PR0
        14 000050   100000 220100                    LDX0    0,,PR1
        14 000051   001105 100003                    CMPX0   581,DU
        14 000052   000056 601000 14                 TNZ     s:13571

  13565 14 000053   100010 236100                    LDQ     8,,PR1
        14 000054   200017 756100                    STQ     LTS$$,,AUTO

  13569 14 000055   000070 710000 14                 TRA     s:13578

  13571 14 000056   000000 116000 15                 CMPQ    0
        14 000057   000066 600000 14                 TZE     s:13575
        14 000060   000005 471500                    LDP1    5,,PR0
        14 000061   100000 220100                    LDX0    0,,PR1
        14 000062   001066 100003                    CMPX0   566,DU
        14 000063   000066 601000 14                 TNZ     s:13575

  13573 14 000064   200017 756100                    STQ     LTS$$,,AUTO
        14 000065   000070 710000 14                 TRA     s:13578

  13575 14 000066   000000 236000 15                 LDQ     0
        14 000067   200017 756100                    STQ     LTS$$,,AUTO

     2569    13578    1     IF ARGLIST$ ~= ADDR (NIL) AND

  13578 14 000070   200004 471500                    LDP1    @ARGLIST$,,AUTO
        14 000071   100000 236100                    LDQ     0,,PR1
PL6.E3A0      #011=Z9EN$CREATE_MOVE File=Z9EN.:Z8A6TSI                           SAT 08/09/97 14:05 Page:486
        14 000072   000000 116000 15                 CMPQ    0
        14 000073   000103 600000 14                 TZE     s:13581
        14 000074   100000 473500                    LDP3    0,,PR1
        14 000075   200017 474500                    LDP4    LTS$$,,AUTO
        14 000076   300000 236100                    LDQ     0,,PR3
        14 000077   777777 376007                    ANQ     -1,DL
        14 000100   400003 116100                    CMPQ    3,,PR4
        14 000101   000103 604400 14                 TMOZ    s:13581

     2570    13579    1         LTS$$ -> BASE_LTS.SEQ# < ARGLIST$ -> ARGLIST.N THEN
     2571    13580    1       RETURN;

  13580 14 000102   000000 702200 xent               TSX2  ! X66_ARET

     2572    13581    1     ARG_OFFSET = LTS$$ -> BASE_LTS.SEQ#;

  13581 14 000103   200017 473500                    LDP3    LTS$$,,AUTO
        14 000104   300003 235100                    LDA     3,,PR3
        14 000105   200016 755100                    STA     ARG_OFFSET,,AUTO

     2573    13582    1     CALL Z8AF$NEW_OFF( O1COM.CURRENT_PROC$ -> PROC_.PSEUDO_STACK$,

  13582 14 000106   000002 735000                    ALS     2
        14 000107   200020 755100                    STA     LTS$$+1,,AUTO
        14 000110   200007 634500                    EPPR4   ARG$,,AUTO
        14 000111   200023 454500                    STP4    LTS$$+4,,AUTO
        14 000112   200020 635500                    EPPR5   LTS$$+1,,AUTO
        14 000113   200022 455500                    STP5    LTS$$+3,,AUTO
        14 000114   000057 236000 xsym               LDQ     O1COM+47
        14 000115   000004 036003                    ADLQ    4,DU
        14 000116   200021 756100                    STQ     LTS$$+2,,AUTO
        14 000117   200021 630500                    EPPR0   LTS$$+2,,AUTO
        14 000120   000001 631400 15                 EPPR1   1
        14 000121   000000 701000 xent               TSX1    Z8AF$NEW_OFF
        14 000122   000000 011000                    NOP     0

     2574    13583    1                        ARG_OFFSET * 4,
PL6.E3A0      #011=Z9EN$CREATE_MOVE File=Z9EN.:Z8A6TSI                           SAT 08/09/97 14:05 Page:487
     2575    13584    1                        ARG$ );
     2576    13585    1     CALL Z8AF$NEW_BASE( FILE_LTS$ -> FILE_LTS.FAB$,

  13585 14 000123   200006 470500                    LDP0    @FILE_LTS$,,AUTO
        14 000124   000000 471500                    LDP1    0,,PR0
        14 000125   000000 236000 15                 LDQ     0
        14 000126   200020 756100                    STQ     LTS$$+1,,AUTO
        14 000127   200011 633500                    EPPR3   RETURN$,,AUTO
        14 000130   200023 453500                    STP3    LTS$$+4,,AUTO
        14 000131   200020 634500                    EPPR4   LTS$$+1,,AUTO
        14 000132   200022 454500                    STP4    LTS$$+3,,AUTO
        14 000133   100002 635500                    EPPR5   2,,PR1
        14 000134   200021 455500                    STP5    LTS$$+2,,AUTO
        14 000135   200021 630500                    EPPR0   LTS$$+2,,AUTO
        14 000136   000001 631400 15                 EPPR1   1
        14 000137   000000 701000 xent               TSX1    Z8AF$NEW_BASE
        14 000140   000000 011000                    NOP     0

     2577    13586    1                         ADDR(NIL),
     2578    13587    1                         RETURN$ );
     2579    13588    1     CALL Z8AF$NEW_OFF( RETURN$,

  13588 14 000141   200005 470500                    LDP0    @FAB_OFFSET,,AUTO
        14 000142   000000 235100                    LDA     0,,PR0
        14 000143   000002 735000                    ALS     2
        14 000144   200020 755100                    STA     LTS$$+1,,AUTO
        14 000145   200010 631500                    EPPR1   FAB$$,,AUTO
        14 000146   200023 451500                    STP1    LTS$$+4,,AUTO
        14 000147   200020 633500                    EPPR3   LTS$$+1,,AUTO
        14 000150   200022 453500                    STP3    LTS$$+3,,AUTO
        14 000151   200011 634500                    EPPR4   RETURN$,,AUTO
        14 000152   200021 454500                    STP4    LTS$$+2,,AUTO
        14 000153   200021 630500                    EPPR0   LTS$$+2,,AUTO
        14 000154   000001 631400 15                 EPPR1   1
        14 000155   000000 701000 xent               TSX1    Z8AF$NEW_OFF
        14 000156   000000 011000                    NOP     0

PL6.E3A0      #011=Z9EN$CREATE_MOVE File=Z9EN.:Z8A6TSI                           SAT 08/09/97 14:05 Page:488
     2580    13589    1                        FAB_OFFSET * 4,
     2581    13590    1                        FAB$$ );
     2582    13591          %NEW_ILL (@ID = %MVII,
     2583    13592                    @LOP = FAB$$,
     2584    13593                    @ROP = ARG$);

  13906 14 000157   000005 236000 15                 LDQ     5
        14 000160   200020 756100                    STQ     LTS$$+1,,AUTO
        14 000161   200010 630500                    EPPR0   FAB$$,,AUTO
        14 000162   200025 450500                    STP0    LTS$$+6,,AUTO
        14 000163   200020 631500                    EPPR1   LTS$$+1,,AUTO
        14 000164   200024 451500                    STP1    LTS$$+5,,AUTO
        14 000165   000006 237000 15                 LDAQ    6
        14 000166   200022 757100                    STAQ    LTS$$+3,,AUTO
        14 000167   000010 236000 15                 LDQ     8
        14 000170   200021 756100                    STQ     LTS$$+2,,AUTO
        14 000171   200021 630500                    EPPR0   LTS$$+2,,AUTO
        14 000172   000002 631400 15                 EPPR1   2
        14 000173   000000 701000 xent               TSX1    Z8AN$NEW_ILL1
        14 000174   000000 011000                    NOP     0

  13909 14 000175   200010 236100                    LDQ     FAB$$,,AUTO
        14 000176   000000 470400 1                  LDP0    ILL$
        14 000177   000001 756100                    STQ     1,,PR0

  13910 14 000200   200007 236100                    LDQ     ARG$,,AUTO
        14 000201   000002 756100                    STQ     2,,PR0

     2585    13972    1     IF SA ~= 0 OR CN ~= 0 THEN

  13972 14 000202   200014 235100                    LDA     SA,,AUTO
        14 000203   000206 601000 14                 TNZ     s:14253
        14 000204   200015 235100                    LDA     CN,,AUTO
        14 000205   000234 600000 14                 TZE     s:14355

     2586    13973            %NEW_ILL (@ID = %PINC,
     2587    13974                      @LOP = FAB$$,
PL6.E3A0      #011=Z9EN$CREATE_MOVE File=Z9EN.:Z8A6TSI                           SAT 08/09/97 14:05 Page:489
     2588    13975                      @ROP = FAB_ITEM$,
     2589    13976                      @ROPCON = SA);

  14253 14 000206   000005 236000 15                 LDQ     5
        14 000207   200020 756100                    STQ     LTS$$+1,,AUTO
        14 000210   200010 631500                    EPPR1   FAB$$,,AUTO
        14 000211   200025 451500                    STP1    LTS$$+6,,AUTO
        14 000212   200020 633500                    EPPR3   LTS$$+1,,AUTO
        14 000213   200024 453500                    STP3    LTS$$+5,,AUTO
        14 000214   000012 237000 15                 LDAQ    10
        14 000215   200022 757100                    STAQ    LTS$$+3,,AUTO
        14 000216   000010 236000 15                 LDQ     8
        14 000217   200021 756100                    STQ     LTS$$+2,,AUTO
        14 000220   200021 630500                    EPPR0   LTS$$+2,,AUTO
        14 000221   000002 631400 15                 EPPR1   2
        14 000222   000000 701000 xent               TSX1    Z8AN$NEW_ILL1
        14 000223   000000 011000                    NOP     0

  14254 14 000224   200010 236100                    LDQ     FAB$$,,AUTO
        14 000225   000000 470400 1                  LDP0    ILL$
        14 000226   000001 756100                    STQ     1,,PR0

  14255 14 000227   200003 471500                    LDP1    @FAB_ITEM$,,AUTO
        14 000230   100000 236100                    LDQ     0,,PR1
        14 000231   000002 756100                    STQ     2,,PR0

  14256 14 000232   200014 235100                    LDA     SA,,AUTO
        14 000233   000003 755100                    STA     3,,PR0

     2590    14355    1   END Z9EN$CREATE_MOVE;

  14355 14 000234   000000 702200 xent               TSX2  ! X66_ARET
     2591    14356         %EJECT;
PL6.E3A0      #011=Z9EN$CREATE_MOVE File=Z9EN.:Z8A6TSI                           SAT 08/09/97 14:05 Page:490

PL6.E3A0      #011=Z9EN$CREATE_MOVE File=Z9EN.:Z8A6TSI                           SAT 08/09/97 14:05 Page:491
--  Include file information  --

   Z8E_O1COM.:Z8A6TOU  cannot be made into a system file and is referenced.
   Z8A_LEX_SYMB.:Z8A6TOU  cannot be made into a system file and is referenced.
   Z8E_STACKS.:Z8A6TOU  cannot be made into a system file and is referenced.
   Z8E_NEW_ILL.:Z8A6TOU  is referenced.
   Z8E_MACROS.:Z8A6TOU  cannot be made into a system file and is referenced.
   Z8A_ST.:Z8A6TOU  cannot be made into a system file and is referenced.
   Z8A_QLT.:Z8A6TOU  cannot be made into a system file and is referenced.
   Z8A_LTS.:Z8A6TOU  cannot be made into a system file and is referenced.
   Z8A_ILL.:Z8A6TOU  cannot be made into a system file and is referenced.
   Z8A_ERR_NUMS.:Z8A6TOU  is referenced.
   X8A_COM_MACS.:X8A6TOU  is referenced.
   Z8A_NAMES.:Z8A6TOU  is referenced.
   Z8A_SUPP_MAC.:Z8A6TOU  is referenced.
   Z9A_FLAGS.:Z8A6TOU  is referenced.
   Z8A_DEFC.:Z8A6TOU  cannot be made into a system file and is referenced.
      No diagnostics issued in procedure Z9EN$CREATE_MOVE.
PL6.E3A0      #011=Z9EN$CREATE_MOVE File=Z9EN.:Z8A6TSI                           SAT 08/09/97 14:05 Page:492

 **** Variables and constants ****

  ****  Section 000 LblCom ITERATION

  ****  Scalars and arrays  ****
OctLoc.c.b A Datatyp(siz) R M Lvl/name                 OctLoc.c.b A Datatyp(siz) R M Lvl/name

     0-0-0/w SBIN              1 ITERATION

  ****  Section 001 LblCom ILL$

  ****  Scalars and arrays  ****
OctLoc.c.b A Datatyp(siz) R M Lvl/name                 OctLoc.c.b A Datatyp(siz) R M Lvl/name

     0-0-0/w PTR         r     1 ILL$

  ****  Section 002 LblCom ILL_

  ****  Scalars and arrays  ****
OctLoc.c.b A Datatyp(siz) R M Lvl/name                 OctLoc.c.b A Datatyp(siz) R M Lvl/name

     0-0-0/w STRC(180)         1 ILL_

  ****  Section 003 LblCom LTS$

  ****  Scalars and arrays  ****
OctLoc.c.b A Datatyp(siz) R M Lvl/name                 OctLoc.c.b A Datatyp(siz) R M Lvl/name

     0-0-0/w PTR               1 LONG_ITEM$                 0-0-0/w PTR         r     1 LTS$

  ****  Section 004 LblCom LTS_

  ****  Scalars and arrays  ****
OctLoc.c.b A Datatyp(siz) R M Lvl/name                 OctLoc.c.b A Datatyp(siz) R M Lvl/name

     0-0-0/w STRC(180)         1 LTS_

PL6.E3A0      #011=Z9EN$CREATE_MOVE File=Z9EN.:Z8A6TSI                           SAT 08/09/97 14:05 Page:493
  ****  Section 005 LblCom QLT$

  ****  Scalars and arrays  ****
OctLoc.c.b A Datatyp(siz) R M Lvl/name                 OctLoc.c.b A Datatyp(siz) R M Lvl/name

     0-0-0/w PTR         r     1 QLT$

  ****  Section 006 LblCom PREV_01_QLT$

  ****  Scalars and arrays  ****
OctLoc.c.b A Datatyp(siz) R M Lvl/name                 OctLoc.c.b A Datatyp(siz) R M Lvl/name

     0-0-0/w PTR               1 PREV_01_QLT$

  ****  Section 007 LblCom QLT_

  ****  Scalars and arrays  ****
OctLoc.c.b A Datatyp(siz) R M Lvl/name                 OctLoc.c.b A Datatyp(siz) R M Lvl/name

     0-0-0/w STRC(180)         1 QLT_

  ****  Section 008 LblCom ST$

  ****  Scalars and arrays  ****
OctLoc.c.b A Datatyp(siz) R M Lvl/name                 OctLoc.c.b A Datatyp(siz) R M Lvl/name

     0-0-0/w PTR         r     1 ST$

  ****  Section 009 LblCom ST_

  ****  Scalars and arrays  ****
OctLoc.c.b A Datatyp(siz) R M Lvl/name                 OctLoc.c.b A Datatyp(siz) R M Lvl/name

     0-0-0/w STRC(180)         1 ST_

  ****  Section 010 LblCom LEX_SYMBOL

PL6.E3A0      #011=Z9EN$CREATE_MOVE File=Z9EN.:Z8A6TSI                           SAT 08/09/97 14:05 Page:494
  ****  Scalars and arrays  ****
OctLoc.c.b A Datatyp(siz) R M Lvl/name                 OctLoc.c.b A Datatyp(siz) R M Lvl/name

     0-0-0/w STRC(3240)  r     1 LEX_SYMBOL                 0-0-0/w STRC(3240)        1 LEX_SYMBOL_WORDS

  ****  Section 011 LblCom CURRENT_LEX_SYMBOL$

  ****  Scalars and arrays  ****
OctLoc.c.b A Datatyp(siz) R M Lvl/name                 OctLoc.c.b A Datatyp(siz) R M Lvl/name

     0-0-0/w PTR         r     1 CURRENT_LEX_SYMBOL$

  ****  Section 012 LblCom TEMP_LEX_SYMBOL

  ****  Scalars and arrays  ****
OctLoc.c.b A Datatyp(siz) R M Lvl/name                 OctLoc.c.b A Datatyp(siz) R M Lvl/name

     0-0-0/w STRC(3240)        1 TEMP_LEX_SYMBOL

  ****  Section 013 LblCom TEMP_LEX_SYMBOL2

  ****  Scalars and arrays  ****
OctLoc.c.b A Datatyp(siz) R M Lvl/name                 OctLoc.c.b A Datatyp(siz) R M Lvl/name

     0-0-0/w STRC(3240)        1 TEMP_LEX_SYMBOL2

  ****  Auto variables  ****

  ****  Scalars and arrays  ****
OctLoc.c.b A Datatyp(siz) R M Lvl/name                 OctLoc.c.b A Datatyp(siz) R M Lvl/name

     4-0-0/w PTR         r     1 @ARGLIST$                  3-0-0/w PTR         r     1 @FAB_ITEM$
     5-0-0/w PTR         r     1 @FAB_OFFSET                6-0-0/w PTR         r     1 @FILE_LTS$
     7-0-0/w PTR         r     1 ARG$                      *0-0-0/w PTR         r     1 ARGLIST$
    16-0-0/w SBIN        r     1 ARG_OFFSET                15-0-0/w UBIN        r     1 CN
    10-0-0/w PTR         r     1 FAB$$                     *0-0-0/w PTR         r     1 FAB_ITEM$
    *0-0-0/w SBIN        r     1 FAB_OFFSET                *0-0-0/w PTR         r     1 FILE_LTS$
PL6.E3A0      #011=Z9EN$CREATE_MOVE File=Z9EN.:Z8A6TSI                           SAT 08/09/97 14:05 Page:495
    17-0-0/w PTR         r     1 LTS$$                     12-0-0/w PTR         r     1 O1_LEVEL$
    11-0-0/w PTR         r     1 RETURN$                   14-0-0/w SBIN        r     1 SA
    13-0-0/w PTR         r     1 SON$

  ****  SYMREF variables  ****

  ****  Scalars and arrays  ****
OctLoc.c.b A Datatyp(siz) R M Lvl/name                 OctLoc.c.b A Datatyp(siz) R M Lvl/name

     0-0-0/w STRC(180)         1 HIER_STK(0:50)
     0-0-0/w SBIN              1 HIER_STK_PTR               0-0-0/w UBIN              1 ILL_STEP(0:144)
     0-0-0/w UBIN              1 LTS_STEP(0:37)
     0-0-0/d STRC(11580) r     1 O1COM                      0-0-0/w STRC(144)         1 PAGE_FORMAT
     0-0-0/w STRC(153)         1 REP_STK(0:50)              0-0-0/w SBIN              1 REP_STK_PTR

  ****  BASED and DCB variables  ****

  ****  Scalars and arrays  ****
OctLoc.c.b A Datatyp(siz) R M Lvl/name                 OctLoc.c.b A Datatyp(siz) R M Lvl/name

     0-0-0/w STRC(108)         1 ACCEPT_DISPLAY             0-0-0/w STRC(288)         1 ADD_STMT
     0-0-0/w STRC(396)         1 ALPHABET                   0-0-0/w STRC(144)         1 ALTER_LTS
     0-0-0/w STRC(3672)        1 ALT_KEY                    0-0-0/w STRC(36864) r     1 ARGLIST
     0-0-0/w STRC(396)         1 ARRAY                      0-0-0/w STRC(180)         1 ARRAY_PRESET_LTS
     0-0-0/w ASTR(324)   r     1 BASED_LEX_SYMBOL
     0-0-0/w STRC(360)         1 BASED_LEX_SYMBOL_WORDS
     0-0-0/w STRC(288)   r     1 BASE_LTS                   0-0-0/w STRC(108)   r     1 BINARY_ILL
     0-0-0/w STRC(288)         1 BINARY_OP                  0-0-0/w STRC(396)         1 BLOCK
     0-0-0/w STRC(144)         1 BRANCH_ILL                 0-0-0/w STRC(144)         1 BT
     0-0-0/w STRC(288)         1 CALL_STMT                  0-0-0/w STRC(216)         1 CCOSU
     0-0-0/w STRC(396)         1 CD                         0-0-0/w STRC(288)         1 CD_LTS
     0-0-0/w CHAR(4096)        1 CHARS                      0-0-0/w STRC(396)         1 CLASS
     0-0-0/w STRC(108)         1 CODED_MOVE                 0-0-0/w STRC(288)         1 COMPUTE_STMT
     0-0-0/w STRC(396)         1 CONDITION                  0-0-0/w STRC(396)         1 CONST
     0-0-0/w STRC(72)          1 CONT                       0-0-0/w STRC(540)         1 CONTROL_NAME_LTS
     0-0-0/w STRC(1872)        1 COPY_FILE                  0-0-0/w STRC(396)         1 DB
     0-0-0/w STRC(396)         1 DCB_                       0-0-0/w STRC(288)         1 DEFERED_IDENTIFIER
PL6.E3A0      #011=Z9EN$CREATE_MOVE File=Z9EN.:Z8A6TSI                           SAT 08/09/97 14:05 Page:496
     0-0-0/w STRC(252)         1 DEFERED_ID_TREE            0-0-0/w STRC(288)         1 DEFERED_QUAL_ID
     0-0-0/w STRC(288)         1 DEFERED_SUM_CLAUSE
     0-0-0/w STRC(288)         1 DEFERED_SUM_CLAUSE_LIST
     0-0-0/w STRC(144)         1 DEFLB                      0-0-0/w STRC(288)         1 DELETE_STMT
     0-0-0/w STRC(108)         1 DEPENDING_SIZE             0-0-0/w STRC(5472)        1 DIMS
     0-0-0/w STRC(288)         1 DIVIDE_STMT                0-0-0/w STRC(396)         1 DML_ITEM
     0-0-0/w STRC(216)         1 DML_REC                    0-0-0/w STRC(144)         1 DOEND
     0-0-0/w STRC(396)         1 DO_N                       0-0-0/w STRC(180)         1 DV4I
     0-0-0/w STRC(180)         1 ENTRY_ILL                  0-0-0/w STRC(108)         1 EVALU
     0-0-0/w STRC(73836)       1 EVALUATE                   0-0-0/w STRC(396)         1 FD
     0-0-0/w STRC(1692)  r     1 FILE_LTS                   0-0-0/w STRC(144)         1 GO
     0-0-0/w STRC(180)         1 ILL                        0-0-0/w STRC              1 ILL_NO_OPS
     0-0-0/w STRC(288)         1 ILS_LIST                   0-0-0/w STRC(108)         1 INDEXES
     0-0-0/w STRC(360)         1 INIT_LTS                   0-0-0/w STRC(288)         1 INSPECT_1_STMT
     0-0-0/w STRC(288)         1 INSPECT_2_STMT             0-0-0/w STRC(288)         1 INSPECT_4_STMT
     0-0-0/w STRC(396)         1 INTDEF                     0-0-0/w STRC(180)         1 IO_RESTORE_CHAIN
     0-0-0/w STRC(144)         1 KEY                        0-0-0/w STRC(396)         1 LABEL
     0-0-0/w STRC(288)         1 LA_ITEM                    0-0-0/w STRC(36864)       1 LCNST
     0-0-0/w STRC(108)         1 LINOI                      0-0-0/w STRC(72)          1 LONG
     0-0-0/w STRC        r     1 LTS                        0-0-0/w STRC(360)   r     1 LTSS
     0-0-0/w STRC(36936)       1 LTS_PTR_ARRAY              0-0-0/w STRC(504)         1 LX_CD_INPUT
     0-0-0/w STRC(324)         1 LX_CD_I_O                  0-0-0/w STRC(396)         1 LX_CD_OUTPUT
     0-0-0/w STRC(288)         1 LX_ETT_ITEM                0-0-0/w STRC(288)         1 LX_ITEM
     0-0-0/w STRC(288)         1 LX_LARGE                   0-0-0/w STRC(288)         1 LX_LIST
     0-0-0/w STRC(1224)        1 LX_REC_DECL                0-0-0/w STRC(864)         1 LX_REPORT_REC
     0-0-0/w STRC(288)         1 LX_TERMINAL                0-0-0/w STRC(72)          1 MFILL
     0-0-0/w STRC(396)         1 MNEMONIC                   0-0-0/w STRC(288)         1 MULTIPLY_STMT
     0-0-0/w STRC(180)         1 MULTI_GO                   0-0-0/w STRC(180)         1 MVEAL
     0-0-0/w STRC(108)         1 MVFIL                      0-0-0/w STRC(72)          1 MVIIS
     0-0-0/w STRC(144)         1 NEL                        0-0-0/w STRC(216)         1 OPEN_LTS
     0-0-0/w STRC(180)         1 OS_CALL                    0-0-0/w STRC(36864)       1 PAGE
     0-0-0/w STRC(396)         1 PARA                       0-0-0/w STRC(216)         1 PFORM
     0-0-0/w STRC(144)   r     1 PINC                       0-0-0/w STRC(144)         1 PREOFF
     0-0-0/w STRC(108)         1 PRESET                     0-0-0/w STRC(144)         1 PRIME
     0-0-0/w STRC(396)   r     1 PROC_                      0-0-0/w STRC(396)         1 PROC_DEF
     0-0-0/w STRC(900)         1 PROC_SUPP                  0-0-0/w STRC(144)         1 P_A_PRESET
     0-0-0/w STRC(144)         1 P_P_PRESET                 0-0-0/w STRC(216)   r     1 QLT
PL6.E3A0      #011=Z9EN$CREATE_MOVE File=Z9EN.:Z8A6TSI                           SAT 08/09/97 14:05 Page:497
     0-0-0/w STRC(396)         1 RD                         0-0-0/w STRC(288)         1 READ_STMT
     0-0-0/w STRC(216)         1 REF                        0-0-0/w STRC(144)         1 REMEM
     0-0-0/w STRC(108)         1 RENAMES                    0-0-0/w STRC(720)         1 REPORT_01_LTS
     0-0-0/w STRC(432)         1 REPORT_ELEM_LTS            0-0-0/w STRC(252)         1 REPORT_GRP_LTS
     0-0-0/w STRC(1332)        1 REPORT_LTS                 0-0-0/w STRC(288)         1 REWRITE_STMT
     0-0-0/w STRC(144)         1 RVA_LTS                    0-0-0/w STRC(396)   r     1 SCALAR
     0-0-0/w STRC(144)         1 SCOPE                      0-0-0/w STRC(396)         1 SD
     0-0-0/w STRC(216)         1 SEARCH_                    0-0-0/w STRC(396)         1 SECTION
     0-0-0/w STRC(396)         1 SEGMENT                    0-0-0/w STRC(360)         1 SEGMENT_LTS
     0-0-0/w STRC(396)         1 ST                         0-0-0/w STRC(288)         1 START_STMT
     0-0-0/w STRC(72)          1 STP2                       0-0-0/w STRC(252)         1 STRING_STMT
     0-0-0/w STRC(288)         1 SUBTRACT_STMT              0-0-0/w STRC(252)         1 SUM_LTS
     0-0-0/w STRC(396)         1 SWITCH                     0-0-0/w STRC(396)         1 SYMBOLIC_CHAR
     0-0-0/w STRC(396)         1 SYMDEF_                    0-0-0/w STRC(396)         1 SYMREF_
     0-0-0/w STRC(396)         1 TEMP                       0-0-0/w STRC(144)         1 TRINARY_ILL
     0-0-0/w STRC(72)          1 UNARY_ILL                  0-0-0/w STRC(288)         1 UNARY_OP
     0-0-0/w STRC(288)         1 UNSTRING_STMT              0-0-0/d STRC(612)         1 USE
     0-0-0/w STRC(216)         1 USER_CALL                  0-0-0/w STRC(252)         1 USE_SUPP
     0-0-0/w STRC(108)         1 VAL                        0-0-0/w STRC(108)         1 VAL_END
     0-0-0/w STRC(396)   r     1 VARIABLE                   0-0-0/w STRC(72)          1 WHEN
     0-0-0/w STRC(288)         1 WRITE_STMT


   Procedure Z9EN$CREATE_MOVE requires 157 words for executable code.
   Procedure Z9EN$CREATE_MOVE requires 22 words of local(AUTO) storage.

    No errors detected in file Z9EN.:Z8A6TSI    .
