PL6.E3A0      #003=Z9EN$WRITE_NEXT File=Z9EN.:Z8A6TSI                            SAT 08/09/97 13:51 Page:112
      583        1        /*T***********************************************************/
      584        2        /*T*                                                         */
      585        3        /*T* Copyright (c) Bull HN Information Systems Inc., 1997    */
      586        4        /*T*                                                         */
      587        5        /*T***********************************************************/
      588        6        Z9EN$WRITE_NEXT : PROC (FILE_LTS$,
      589        7                                INVALID_ILS_LIST$,
      590        8                                VALID_ILS_LIST$,
      591        9                                RECORD_LENGTH$,
      592       10                                LINES$,
      593       11                                ADV_TYPE,
      594       12                                REPORT_CODE);
      595       13
      596       14         /*P*
      597       15               NAME : Z9EN$WRITE_ {NEXT|SEQ|RANDOM}
      598       16               PURPOSE : To create ILL for the WRITE statement.
      599       17         */
      600       18
      601       19    1     DCL FILE_LTS$ PTR;
      602       20    1     DCL RECORD_LENGTH$ PTR;
      603       21    1     DCL LINES$ PTR;
      604       22    1     DCL ADV_TYPE SBIN;
      605       23    1     DCL INVALID_ILS_LIST$ PTR;
      606       24    1     DCL VALID_ILS_LIST$   PTR;
      607       25    1     DCL REPORT_CODE   UBIN WORD;
                25           /*  This is not used in CP6.  It is used in GCOS with UFAS and Report Writer.  */
      608       26
      609       27
      610       28        %EQU PHASE = 1;
      611       29        %INCLUDE Z8A_DEFC;
      612       97        %INCLUDE Z9A_FLAGS;
      613      111        %INCLUDE Z8A_SUPP_MAC;
      614     2511        %INCLUDE Z8E_STACKS;
      615     4777        %INCLUDE Z8E_ILS_LIST;
      616     4861        %INCLUDE Z8A_ILS;
      617     4970        %INCLUDE Z8A_ST;
      618     8629        %INCLUDE Z8A_ETT;
PL6.E3A0      #003=Z9EN$WRITE_NEXT File=Z9EN.:Z8A6TSI                            SAT 08/09/97 13:51 Page:113
      619     8930        %INCLUDE Z8A_ILL;
      620     9623        %INCLUDE Z8A_TYPES;
      621     9797        %INCLUDE Z8E_O1COM;
      622    10558        %INCLUDE Z8E_MACROS;
      623    11233        %INCLUDE Z8A_LTS;
      624    13310        %INCLUDE Z8E_ABSSYN;
      625    13516        %INCLUDE X9A_IO;                                            /*#42918*/
      626    13666        %INCLUDE Z8A_LIBRARY;
      627    13880        %INCLUDE Z8A_COMCOM;
      628    14530        %INCLUDE Z8A_ERR_NUMS;
      629    15294        %INCLUDE Z8A_IO_EQUS;                                       /*#42918*/
      630    15417
      631    15418    1   DCL Z8AE$ERROR ENTRY(12);
      632    15419    1   DCL Z9EY$BUILD_RUNTIME_DESCRIPTOR ENTRY(3);
      633    15420    1   DCL Z8EY$BUILD_RUNTIME_ARGLIST    ENTRY(3);
      634    15421    1   DCL Z8EU$CREATE_IDENTIFIER_FROM_ST ENTRY(4);
      635    15422    1   DCL Z8AC$LX_ETT_ITEM_TYI_CONST ENTRY(2);
      636    15423    1   DCL Z8AT$CREATE_TEMPORARY ENTRY (2);
      637    15424    1   DCL Z8EK$BRANCH ENTRY(1);
      638    15425    1   DCL Z8E7$MOVE ENTRY(2);
      639    15426    1   DCL Z9EN$CREATE_MOVE ENTRY(4);                              /*#42918*/
      640    15427
      641    15428          %DCL_AUTO_LX_ITEM (@NAME = FAB);
      642    15432          %DCL_AUTO_LX_ITEM (@NAME = PLIST);
      643    15436          %DCL_AUTO_LX_ITEM (@NAME = ALTRET_PRESENT);
      644    15440          %DCL_AUTO_LX_ITEM (@NAME = ADV_ARG);
      645    15444          %DCL_AUTO_LX_ITEM (@NAME = LINES_ARG);
      646    15448          %DCL_AUTO_LX_ITEM (@NAME = REC_LEN_ARG);
      647    15452    1     DCL RT_DESC_LIST$ PTR;
      648    15453    1     DCL RT_ARG_LIST$ PTR;
      649    15454    1     DCL ALTRET_LABEL$ PTR;
      650    15455    1     DCL END_LABEL$ PTR;
      651    15456        %EJECT;
PL6.E3A0      #003=Z9EN$WRITE_NEXT File=Z9EN.:Z8A6TSI                            SAT 08/09/97 13:51 Page:114
      652    15457    1     FIRST_SET_UP_WRITE : PROC;
      653    15458
      654    15459    2       IF FILE_LTS$ -> FILE_LTS.FILE_STATUS$ ~= ADDR(NIL) AND  /*#42918*/
      655    15460    2           FILE_LTS$ -> FILE_LTS.FILE_STATUS$ -> SCALAR.B.LINKAGE THEN
      656    15461    2         CALL Z9EN$CREATE_MOVE( FILE_LTS$ -> FILE_LTS.FILE_STATUS$,
      657    15462    2                                O1COM.CURRENT_PROC$ -> PROC_.PROC_DEF$ -> PROC_DEF.
             15462                                         ARGLIST$,
      658    15463    2                                %FILE_STATUS_OFF,
      659    15464    2                                FILE_LTS$ );
      660    15465
      661    15466    2       CALL Z8EU$CREATE_IDENTIFIER_FROM_ST
      662    15467    2                (FILE_LTS$ -> FILE_LTS.FAB$,
      663    15468    2                 ADDR(FAB));
      664    15469
      665    15470    2       IF INVALID_ILS_LIST$ = ADDR(NIL) AND VALID_ILS_LIST$ = ADDR(NIL)  THEN
      666    15471    2         CALL Z8AC$LX_ETT_ITEM_TYI_CONST (FALSE,
      667    15472    2                                          ADDR(ALTRET_PRESENT));
      668    15473    3       ELSE DO;
      669    15474    3         IF COMCOM.OB.FIPS.LEVEL = %LOW_LEV THEN
      670    15475    3           IF VALID_ILS_LIST$ ~= ADDR(NIL) OR INVALID_ILS_LIST$ ~= ADDR(NIL) THEN
      671    15476    3             CALL Z8AE$ERROR (%E$LEVEL_CHECK,
      672    15477    3                              O1COM.LINE_NO,
      673    15478    3                              O1COM.COLUMN_NO);
      674    15479    3         CALL Z8AC$LX_ETT_ITEM_TYI_CONST (TRUE,
      675    15480    3                                          ADDR(ALTRET_PRESENT));
      676    15481    3       END;
      677    15482
      678    15483            %INIT_LX_LIST (@POINTER = "ADDR(PLIST)");
      679    15493
      680    15494            %ADD_LX_ITEM_TO_LIST_HEAD (@FROM$ = "ADDR(FAB)",
      681    15495                                       @LIST$ = "ADDR(PLIST)");
      682    15504
      683    15505            %ADD_LX_ITEM_TO_LIST_TAIL (@FROM$ = "ADDR(ALTRET_PRESENT)",
      684    15506                                       @LIST$ = "ADDR(PLIST)");
      685    15522    2     END FIRST_SET_UP_WRITE;
      686    15523        %EJECT;
PL6.E3A0      #003=Z9EN$WRITE_NEXT File=Z9EN.:Z8A6TSI                            SAT 08/09/97 13:51 Page:115
      687    15524    1     SET_UP_WRITE : PROC;
      688    15525
      689    15526    2       CALL FIRST_SET_UP_WRITE;
      690    15527    2       REC_LEN_ARG = RECORD_LENGTH$ -> LX_ITEM;
      691    15528
      692    15529            %ADD_LX_ITEM_TO_LIST_TAIL (@FROM$ = "ADDR(REC_LEN_ARG)",
      693    15530                                       @LIST$ = "ADDR(PLIST)");
      694    15546
      695    15547    2     END SET_UP_WRITE;
      696    15548        %EJECT;
PL6.E3A0      #003=Z9EN$WRITE_NEXT File=Z9EN.:Z8A6TSI                            SAT 08/09/97 13:51 Page:116
      697    15549    1     FINISH_WRITE : PROC (WRITE_TYPE);
      698    15550
      699    15551    2       DCL WRITE_TYPE SBIN;
      700    15552
      701    15553    3       DO CASE (FILE_LTS$ -> FILE_LTS.ORGANIZATION);           /*#42918*/
      702    15554    3         CASE (
      703    15555                    %SET_OF_RELATIVE_ORGANIZATION;
      704    15559    3              );
      705    15560    3           IF FILE_LTS$ -> FILE_LTS.RELATIVE_KEY$ ~= ADDR(NIL) AND
      706    15561    3               FILE_LTS$ -> FILE_LTS.RELATIVE_KEY$ -> SCALAR.B.LINKAGE THEN
      707    15562    3             CALL Z9EN$CREATE_MOVE( FILE_LTS$ -> FILE_LTS.RELATIVE_KEY$,
      708    15563    3                                    O1COM.CURRENT_PROC$ -> PROC_.PROC_DEF$ -> PROC_DEF.
             15563                                             ARGLIST$,
      709    15564    3                                    %RELATIVE_KEY_OFF,
      710    15565    3                                    FILE_LTS$ );
      711    15566    3       END;
      712    15567
      713    15568    2       CALL Z9EY$BUILD_RUNTIME_DESCRIPTOR (ADDR(PLIST) -> LX_LIST.HEAD$,
      714    15569    2                                           RT_DESC_LIST$,
      715    15570    2                                           ADDR(PLIST) -> LX_LIST.COUNT);
      716    15571
      717    15572    2       CALL Z8EY$BUILD_RUNTIME_ARGLIST (ADDR(PLIST) -> LX_LIST.HEAD$,
      718    15573    2                                        RT_ARG_LIST$,
      719    15574    2                                        ADDR(PLIST) -> LX_LIST.COUNT);
      720    15575
      721    15576    2       CALL Z8AT$CREATE_TEMPORARY (%PARA,
      722    15577    2                                   ALTRET_LABEL$);
      723    15578
      724    15579            %NEW_ILL (@ID = %OS_CALL,
      725    15580                      @CODE = WRITE_TYPE,
      726    15581                      @ROP = RT_DESC_LIST$,
      727    15582                      @LOP = RT_ARG_LIST$,
      728    15583                      @ALTRET = ALTRET_LABEL$);
      729    15962
      730    15963
      731    15964             /* Add in code for AT END, ON INVALID, or NOT clause */
      732    15965
PL6.E3A0      #003=Z9EN$WRITE_NEXT File=Z9EN.:Z8A6TSI                            SAT 08/09/97 13:51 Page:117
      733    15966    2        IF VALID_ILS_LIST$ ~= ADDR(NIL)   THEN
      734    15967               %APPEND_ILS_LIST( @FROM$ = VALID_ILS_LIST$,
      735    15968                                 @TO$ = "ADDR(O1COM.ILS_LIST)" );
      736    15985
      737    15986
      738    15987    2        IF INVALID_ILS_LIST$ ~= ADDR(NIL) THEN
      739    15988    3          DO;
      740    15989    3            IF VALID_ILS_LIST$ ~= ADDR(NIL) AND
      741    15990    3                VALID_ILS_LIST$ -> ILS_LIST.TAIL$ -> ILS.ILL$ -> ILL.ID = %GO AND
      742    15991    3                VALID_ILS_LIST$ -> ILS_LIST.TAIL$ -> ILS.ILL$ -> ILL.CODE = %
             15991                         GO_UNCONDITIONAL THEN
      743    15992    3              END_LABEL$ = ADDR(NIL);
      744    15993    3            ELSE
      745    15994    4              DO;
      746    15995    4                CALL Z8AT$CREATE_TEMPORARY (%PARA,
      747    15996    4                                            END_LABEL$);
      748    15997
      749    15998    4                CALL Z8EK$BRANCH (END_LABEL$);
      750    15999    4              END;
      751    16000
      752    16001                 %NEW_ILL (@ID = %DEFLB,
      753    16002                           @LABEL$ = ALTRET_LABEL$);
      754    16381
      755    16382                 %APPEND_ILS_LIST (@FROM$ = INVALID_ILS_LIST$,
      756    16383                                   @TO$ = "ADDR(O1COM.ILS_LIST)");
      757    16400
      758    16401    3            IF END_LABEL$ ~= ADDR(NIL) THEN
      759    16402                   %NEW_ILL (@ID = %DEFLB,
      760    16403                             @LABEL$ = END_LABEL$);
      761    16782    3          END;
      762    16783    2        ELSE
      763    16784    3          DO;
      764    16785                 %NEW_ILL (@ID = %DEFLB,
      765    16786                           @LABEL$ = ALTRET_LABEL$);
      766    17165    3          END;
      767    17166
      768    17167
PL6.E3A0      #003=Z9EN$WRITE_NEXT File=Z9EN.:Z8A6TSI                            SAT 08/09/97 13:51 Page:118
      769    17168    2     END FINISH_WRITE;
      770    17169        %EJECT;
PL6.E3A0      #003=Z9EN$WRITE_NEXT File=Z9EN.:Z8A6TSI                            SAT 08/09/97 13:51 Page:119
      771    17170        /* Main body of WRITE_NEXT */
      772    17171
      773    17172    1       CALL SET_UP_WRITE;
      774    17173
      775    17174    1       IF FILE_LTS$ -> FILE_LTS.LINAGE.NO_OF_LINES$ ~= ADDR(NIL) AND /*#42918*/
      776    17175    1           FILE_LTS$ -> FILE_LTS.LINAGE.NO_OF_LINES$ -> SCALAR.B.LINKAGE THEN
      777    17176    1         CALL Z9EN$CREATE_MOVE( FILE_LTS$ -> FILE_LTS.LINAGE.NO_OF_LINES$,
      778    17177    1                                O1COM.CURRENT_PROC$ -> PROC_.PROC_DEF$ -> PROC_DEF.
             17177                                         ARGLIST$,
      779    17178    1                                %LINAGE_LINES_OFF,
      780    17179    1                                FILE_LTS$ );
      781    17180
      782    17181    1       IF FILE_LTS$ -> FILE_LTS.LINAGE.FOOTING$ ~= ADDR(NIL) AND
      783    17182    1           FILE_LTS$ -> FILE_LTS.LINAGE.FOOTING$ -> SCALAR.B.LINKAGE THEN
      784    17183    1         CALL Z9EN$CREATE_MOVE( FILE_LTS$ -> FILE_LTS.LINAGE.FOOTING$,
      785    17184    1                                O1COM.CURRENT_PROC$ -> PROC_.PROC_DEF$ -> PROC_DEF.
             17184                                         ARGLIST$,
      786    17185    1                                %FOOTING_OFF,
      787    17186    1                                FILE_LTS$ );
      788    17187
      789    17188    1       IF FILE_LTS$ -> FILE_LTS.LINAGE.TOP$ ~= ADDR(NIL) AND
      790    17189    1           FILE_LTS$ -> FILE_LTS.LINAGE.TOP$ -> SCALAR.B.LINKAGE THEN
      791    17190    1         CALL Z9EN$CREATE_MOVE( FILE_LTS$ -> FILE_LTS.LINAGE.TOP$,
      792    17191    1                                O1COM.CURRENT_PROC$ -> PROC_.PROC_DEF$ -> PROC_DEF.
             17191                                         ARGLIST$,
      793    17192    1                                %TOP_OFF,
      794    17193    1                                FILE_LTS$ );
      795    17194
      796    17195    1       IF FILE_LTS$ -> FILE_LTS.LINAGE.BOTTOM$ ~= ADDR(NIL) AND
      797    17196    1           FILE_LTS$ -> FILE_LTS.LINAGE.BOTTOM$ -> SCALAR.B.LINKAGE THEN
      798    17197    1         CALL Z9EN$CREATE_MOVE( FILE_LTS$ -> FILE_LTS.LINAGE.BOTTOM$,
      799    17198    1                                O1COM.CURRENT_PROC$ -> PROC_.PROC_DEF$ -> PROC_DEF.
             17198                                         ARGLIST$,
      800    17199    1                                %BOTTOM_OFF,
      801    17200    1                                FILE_LTS$ );
      802    17201
      803    17202    1       CALL Z8AC$LX_ETT_ITEM_TYI_CONST (ADV_TYPE,
PL6.E3A0      #003=Z9EN$WRITE_NEXT File=Z9EN.:Z8A6TSI                            SAT 08/09/97 13:51 Page:120
      804    17203    1                                        ADDR(ADV_ARG));
      805    17204
      806    17205            %ADD_LX_ITEM_TO_LIST_TAIL (@FROM$ = "ADDR(ADV_ARG)",
      807    17206                                       @LIST$ = "ADDR(PLIST)");
      808    17222
      809    17223    1       IF LINES$ ~= ADDR(NIL) THEN
      810    17224    2         DO;
      811    17225    2           LINES_ARG = LINES$ -> LX_ITEM;
      812    17226                %ADD_LX_ITEM_TO_LIST_TAIL (@FROM$ = "ADDR(LINES_ARG)",
      813    17227                                           @LIST$ = "ADDR(PLIST)");
      814    17243    2         END;
      815    17244
      816    17245    1       CALL FINISH_WRITE (%OP_WRITE_SEQUENTIAL);
      817    17246
      818    17247    1       RETURN;
      819    17248        %EJECT;
PL6.E3A0      #003=Z9EN$WRITE_NEXT File=Z9EN.:Z8A6TSI                            SAT 08/09/97 13:51 Page:121
      820    17249    1   Z9EN$WRITE_SEQ : ENTRY (FILE_LTS$,
      821    17250    1                           INVALID_ILS_LIST$,
      822    17251    1                           VALID_ILS_LIST$,
      823    17252    1                           RECORD_LENGTH$,
      824    17253    1                           LINES$,
      825    17254    1                           ADV_TYPE,
      826    17255    1                           REPORT_CODE);
      827    17256
      828    17257    1     CALL SET_UP_WRITE;
      829    17258
      830    17259    1     CALL FINISH_WRITE (%OP_WRITE_SEQUENTIAL);
      831    17260
      832    17261    1     RETURN;
      833    17262        %EJECT;
PL6.E3A0      #003=Z9EN$WRITE_NEXT File=Z9EN.:Z8A6TSI                            SAT 08/09/97 13:51 Page:122
      834    17263    1   Z9EN$WRITE_RANDOM : ENTRY (FILE_LTS$,
      835    17264    1                              INVALID_ILS_LIST$,
      836    17265    1                              VALID_ILS_LIST$,
      837    17266    1                              RECORD_LENGTH$,
      838    17267    1                              LINES$,
      839    17268    1                              ADV_TYPE,
      840    17269    1                              REPORT_CODE);
      841    17270
      842    17271    1     CALL SET_UP_WRITE;
      843    17272
      844    17273    1     CALL FINISH_WRITE (%OP_WRITE_RANDOM);
      845    17274
      846    17275    1     RETURN;
      847    17276        %EJECT;
PL6.E3A0      #003=Z9EN$WRITE_NEXT File=Z9EN.:Z8A6TSI                            SAT 08/09/97 13:51 Page:123
      848    17277    1   Z9EN$REWRITE : ENTRY (FILE_LTS$,
      849    17278    1                         INVALID_ILS_LIST$,
      850    17279    1                         VALID_ILS_LIST$,
      851    17280    1                         RECORD_LENGTH$);
      852    17281
      853    17282    1     CALL SET_UP_WRITE;
      854    17283
      855    17284    1     CALL FINISH_WRITE (%OP_REWRITE);
      856    17285
      857    17286    1     RETURN;
      858    17287        %EJECT;
PL6.E3A0      #003=Z9EN$WRITE_NEXT File=Z9EN.:Z8A6TSI                            SAT 08/09/97 13:51 Page:124
      859    17288        /*-------------*/
      860    17289    1   Z9EN$WRITE_PAGE:       ENTRY (FILE_LTS$,
      861    17290    1   /*-------------*/            INVALID_ILS_LIST$,
      862    17291    1                                VALID_ILS_LIST$ );
      863    17292
      864    17293    1       CALL Z8EU$CREATE_IDENTIFIER_FROM_ST
      865    17294    1                (FILE_LTS$ -> FILE_LTS.FAB$,
      866    17295    1                 ADDR(FAB));
      867    17296
      868    17297            %INIT_LX_LIST (@POINTER = "ADDR(PLIST)");
      869    17307
      870    17308            %ADD_LX_ITEM_TO_LIST_HEAD (@FROM$ = "ADDR(FAB)",
      871    17309                                       @LIST$ = "ADDR(PLIST)");
      872    17318
      873    17319    1       CALL FINISH_WRITE (%OP_WRITE_PAGE);
      874    17320
      875    17321    1       RETURN;
      876    17322        %EJECT;
PL6.E3A0      #003=Z9EN$WRITE_NEXT File=Z9EN.:Z8A6TSI                            SAT 08/09/97 13:51 Page:125
      877    17323
      878    17324    1   Z9EN$DELETE : ENTRY (FILE_LTS$,
      879    17325    1                        INVALID_ILS_LIST$,
      880    17326    1                        VALID_ILS_LIST$ );
      881    17327
      882    17328    1     CALL FIRST_SET_UP_WRITE;
      883    17329
      884    17330    1     CALL FINISH_WRITE (%OP_DELETE);
      885    17331
      886    17332    1     RETURN;
      887    17333
      888    17334    1   END Z9EN$WRITE_NEXT;
      889    17335        %EOD;

PL6.E3A0      #003=Z9EN$WRITE_NEXT File=Z9EN.:Z8A6TSI                            SAT 08/09/97 13:51 Page:126
--  Include file information  --

   Z8A_IO_EQUS.:Z8A6TOU  is referenced.
   Z8A_ERR_NUMS.:Z8A6TOU  is referenced.
   Z8A_COMCOM.:Z8A6TOU  cannot be made into a system file and is referenced.
   Z8A_LIBRARY.:Z8A6TOU  cannot be made into a system file and is referenced.
   X9A_IO.:X8A6TOU  is referenced.
   Z8E_ABSSYN.:Z8A6TOU  cannot be made into a system file and is referenced.
   Z8A_LTS.:Z8A6TOU  cannot be made into a system file and is referenced.
   Z8E_NEW_ILL.:Z8A6TOU  is referenced.
   Z8E_MACROS.:Z8A6TOU  cannot be made into a system file and is referenced.
   Z8E_O1COM.:Z8A6TOU  cannot be made into a system file and is referenced.
   Z8A_TYPES.:Z8A6TOU  is referenced.
   Z8A_ILL.:Z8A6TOU  cannot be made into a system file and is referenced.
   Z8A_ETT.:Z8A6TOU  cannot be made into a system file and is referenced.
   Z8A_ST.:Z8A6TOU  cannot be made into a system file and is referenced.
   Z8A_ILS.:Z8A6TOU  cannot be made into a system file and is referenced.
   Z8E_ILS_LIST.:Z8A6TOU  is referenced.
   Z8A_LEX_SYMB.:Z8A6TOU  cannot be made into a system file and is referenced.
   Z8E_STACKS.:Z8A6TOU  cannot be made into a system file and is referenced.
   X8A_COM_MACS.:X8A6TOU  is referenced.
   Z8A_NAMES.:Z8A6TOU  is referenced.
   Z8A_SUPP_MAC.:Z8A6TOU  is referenced.
   Z9A_FLAGS.:Z8A6TOU  is referenced.
   Z8A_DEFC.:Z8A6TOU  cannot be made into a system file and is referenced.
      No diagnostics issued in procedure Z9EN$WRITE_NEXT.

   Procedure Z9EN$WRITE_NEXT requires 569 words for executable code.
   Procedure Z9EN$WRITE_NEXT requires 82 words of local(AUTO) storage.

PL6.E3A0      #003=Z9EN$WRITE_NEXT File=Z9EN.:Z8A6TSI                            SAT 08/09/97 13:51 Page:127

 Object Unit name= Z9EN$WRITE_NEXT                            File name= Z9EN.:Z8A6TOU
 UTS= AUG 09 '97 13:51:45.16 SAT                              Compiler= PL-6/E31         Sev=      00
 SharedLib= :SHARED_SYSTEM                                    Alt SharedLib=


    ****  Control sections  ****

 Sect   Type Bound  Init  Size OctSiz  Section name(segment info)
    0  LblCom even  none     1      1  ITERATION
    1  LblCom even  none    90    132  LEX_SYMBOL
    2  LblCom even  none     1      1  CURRENT_LEX_SYMBOL$
    3  LblCom even  none    90    132  TEMP_LEX_SYMBOL
    4  LblCom even  none    90    132  TEMP_LEX_SYMBOL2
    5  LblCom even  none     1      1  ILS$
    6  LblCom even  none     5      5  ILS_
    7  LblCom even  none     1      1  ST$
    8  LblCom even  none     5      5  ST_
    9  LblCom even  none     1      1  ETT$
   10  LblCom even  none     1      1  HEAD_ETT$
   11  LblCom even  none   512   1000  ETT_BUCKETS
   12  LblCom even  none     5      5  ETT_
   13  LblCom even  none     1      1  ILL$
   14  LblCom even  none     5      5  ILL_
   15  LblCom even  none     1      1  LTS$
   16  LblCom even  none     5      5  LTS_
   17  LblCom even  none     8     10  TEMP_LX_NODE
   18   Proc  even  none   569   1071  Z9EN$WRITE_NEXT
   19  RoData even  none    39     47  Z9EN$WRITE_NEXT
PL6.E3A0      #003=Z9EN$WRITE_NEXT File=Z9EN.:Z8A6TSI                            SAT 08/09/97 13:51 Page:128

    ****  Entry defs  ****

                              Check   Calling
                             calling  sequence
  Sect OctLoc Primary Altret sequence   type   Parms  Name
    18      0   yes            yes      Std        7  Z9EN$WRITE_NEXT
    18    761                  yes      Std        7  Z9EN$WRITE_SEQ
    18    772                  yes      Std        7  Z9EN$WRITE_RANDOM
    18   1003                  yes      Std        4  Z9EN$REWRITE
    18   1014                  yes      Std        3  Z9EN$WRITE_PAGE
    18   1060                  yes      Std        3  Z9EN$DELETE

  ****  Entry refs  ****

         Check        Calling
        calling       sequence
Altret sequence SRef   type   Args  Name
         yes           Std       4 Z8EU$CREATE_IDENTIFIER_FROM_ST
         yes           Std       4 Z9EN$CREATE_MOVE
         yes           Std       2 Z8AC$LX_ETT_ITEM_TYI_CONST
         yes           Std      12 Z8AE$ERROR
         yes           Std       3 Z9EY$BUILD_RUNTIME_DESCRIPTOR
         yes           Std       4 Z8AN$NEW_ILL
         yes           Std       1 Z8EK$BRANCH
         yes           Std       3 Z8EY$BUILD_RUNTIME_ARGLIST
         yes           Std       2 Z8AT$CREATE_TEMPORARY
                       nStd      0 X66_AUTO_N
                       nStd      0 X66_ARET
PL6.E3A0      #003=Z9EN$WRITE_NEXT File=Z9EN.:Z8A6TSI                            SAT 08/09/97 13:51 Page:129

  ****  Data refs  ****

  Flags:  r = read only, s = secondary
Flgs Name                             Flgs Name                             Flgs Name
r    ILS_STEP_TABLE                   r    ILL_STEP                              O1COM
     HIER_STK_PTR                          HIER_STK                              PAGE_FORMAT
     REP_STK_PTR                           REP_STK                          r    LTS_STEP
     COMCOM

  ****  Segment refs  ****

  Flags:  r = read only, s = secondary
Flgs Name                             Flgs Name                             Flgs Name
     ISSID                                 NULLSID
PL6.E3A0      #003=Z9EN$WRITE_NEXT File=Z9EN.:Z8A6TSI                            SAT 08/09/97 13:51 Page:130


      583        1        /*T***********************************************************/
      584        2        /*T*                                                         */
      585        3        /*T* Copyright (c) Bull HN Information Systems Inc., 1997    */
      586        4        /*T*                                                         */
      587        5        /*T***********************************************************/
      588        6        Z9EN$WRITE_NEXT : PROC (FILE_LTS$,

      6 18 000000   000000 700200 xent  Z9EN$WRITE_* TSX0  ! X66_AUTO_N
        18 000001   000122 000007                    ZERO    82,7
        18 000002   000542 710000 18                 TRA     s:17172

      589        7                                INVALID_ILS_LIST$,
      590        8                                VALID_ILS_LIST$,
      591        9                                RECORD_LENGTH$,
      592       10                                LINES$,
      593       11                                ADV_TYPE,
      594       12                                REPORT_CODE);
      595       13
      596       14         /*P*
      597       15               NAME : Z9EN$WRITE_ {NEXT|SEQ|RANDOM}
      598       16               PURPOSE : To create ILL for the WRITE statement.
      599       17         */
      600       18
      601       19    1     DCL FILE_LTS$ PTR;
      602       20    1     DCL RECORD_LENGTH$ PTR;
      603       21    1     DCL LINES$ PTR;
      604       22    1     DCL ADV_TYPE SBIN;
      605       23    1     DCL INVALID_ILS_LIST$ PTR;
      606       24    1     DCL VALID_ILS_LIST$   PTR;
      607       25    1     DCL REPORT_CODE   UBIN WORD;
                25           /*  This is not used in CP6.  It is used in GCOS with UFAS and Report Writer. */
      608       26
      609       27
      610       28        %EQU PHASE = 1;
      611       29        %INCLUDE Z8A_DEFC;
      612       97        %INCLUDE Z9A_FLAGS;
PL6.E3A0      #003=Z9EN$WRITE_NEXT File=Z9EN.:Z8A6TSI                            SAT 08/09/97 13:51 Page:131
      613      111        %INCLUDE Z8A_SUPP_MAC;
      614     2511        %INCLUDE Z8E_STACKS;
      615     4777        %INCLUDE Z8E_ILS_LIST;
      616     4861        %INCLUDE Z8A_ILS;
      617     4970        %INCLUDE Z8A_ST;
      618     8629        %INCLUDE Z8A_ETT;
      619     8930        %INCLUDE Z8A_ILL;
      620     9623        %INCLUDE Z8A_TYPES;
      621     9797        %INCLUDE Z8E_O1COM;
      622    10558        %INCLUDE Z8E_MACROS;
      623    11233        %INCLUDE Z8A_LTS;
      624    13310        %INCLUDE Z8E_ABSSYN;
      625    13516        %INCLUDE X9A_IO;                                            /*#42918*/
      626    13666        %INCLUDE Z8A_LIBRARY;
      627    13880        %INCLUDE Z8A_COMCOM;
      628    14530        %INCLUDE Z8A_ERR_NUMS;
      629    15294        %INCLUDE Z8A_IO_EQUS;                                       /*#42918*/
      630    15417
      631    15418    1   DCL Z8AE$ERROR ENTRY(12);
      632    15419    1   DCL Z9EY$BUILD_RUNTIME_DESCRIPTOR ENTRY(3);
      633    15420    1   DCL Z8EY$BUILD_RUNTIME_ARGLIST    ENTRY(3);
      634    15421    1   DCL Z8EU$CREATE_IDENTIFIER_FROM_ST ENTRY(4);
      635    15422    1   DCL Z8AC$LX_ETT_ITEM_TYI_CONST ENTRY(2);
      636    15423    1   DCL Z8AT$CREATE_TEMPORARY ENTRY (2);
      637    15424    1   DCL Z8EK$BRANCH ENTRY(1);
      638    15425    1   DCL Z8E7$MOVE ENTRY(2);
      639    15426    1   DCL Z9EN$CREATE_MOVE ENTRY(4);                              /*#42918*/
      640    15427
      641    15428          %DCL_AUTO_LX_ITEM (@NAME = FAB);
      642    15432          %DCL_AUTO_LX_ITEM (@NAME = PLIST);
      643    15436          %DCL_AUTO_LX_ITEM (@NAME = ALTRET_PRESENT);
      644    15440          %DCL_AUTO_LX_ITEM (@NAME = ADV_ARG);
      645    15444          %DCL_AUTO_LX_ITEM (@NAME = LINES_ARG);
      646    15448          %DCL_AUTO_LX_ITEM (@NAME = REC_LEN_ARG);
      647    15452    1     DCL RT_DESC_LIST$ PTR;
      648    15453    1     DCL RT_ARG_LIST$ PTR;
      649    15454    1     DCL ALTRET_LABEL$ PTR;
PL6.E3A0      #003=Z9EN$WRITE_NEXT File=Z9EN.:Z8A6TSI                            SAT 08/09/97 13:51 Page:132
      650    15455    1     DCL END_LABEL$ PTR;
      651    15456        %EJECT;
PL6.E3A0      #003=Z9EN$WRITE_NEXT File=Z9EN.:Z8A6TSI                            SAT 08/09/97 13:51 Page:133
      652    15457    1     FIRST_SET_UP_WRITE : PROC;

  15457 18 000003   200112 741300       FIRST_SET_U* STX1  ! @WRITE_TYPE+1,,AUTO

      653    15458
      654    15459    2       IF FILE_LTS$ -> FILE_LTS.FILE_STATUS$ ~= ADDR(NIL) AND  /*#42918*/

  15459 18 000004   200003 470500                    LDP0    @FILE_LTS$,,AUTO
        18 000005   000000 471500                    LDP1    0,,PR0
        18 000006   100012 236100                    LDQ     10,,PR1
        18 000007   000000 116000 19                 CMPQ    0
        18 000010   000032 600000 18                 TZE     s:15466
        18 000011   100012 473500                    LDP3    10,,PR1
        18 000012   300003 236100                    LDQ     3,,PR3
        18 000013   000002 316003                    CANQ    2,DU
        18 000014   000032 600000 18                 TZE     s:15466

      655    15460    2           FILE_LTS$ -> FILE_LTS.FILE_STATUS$ -> SCALAR.B.LINKAGE THEN
      656    15461    2         CALL Z9EN$CREATE_MOVE( FILE_LTS$ -> FILE_LTS.FILE_STATUS$,

  15461 18 000015   000057 474400 xsym               LDP4    O1COM+47
        18 000016   400006 475500                    LDP5    6,,PR4
        18 000017   200003 236100                    LDQ     @FILE_LTS$,,AUTO
        18 000020   000003 235000 19                 LDA     3
        18 000021   200116 757100                    STAQ    @WRITE_TYPE+5,,AUTO
        18 000022   500005 633500                    EPPR3   5,,PR5
        18 000023   200115 453500                    STP3    @WRITE_TYPE+4,,AUTO
        18 000024   100012 635500                    EPPR5   10,,PR1
        18 000025   200114 455500                    STP5    @WRITE_TYPE+3,,AUTO
        18 000026   200114 630500                    EPPR0   @WRITE_TYPE+3,,AUTO
        18 000027   000001 631400 19                 EPPR1   1
        18 000030   000000 701000 xent               TSX1    Z9EN$CREATE_MOVE
        18 000031   000000 011000                    NOP     0

      657    15462    2                                O1COM.CURRENT_PROC$ -> PROC_.PROC_DEF$ -> PROC_DEF.
             15462                                         ARGLIST$,
      658    15463    2                                %FILE_STATUS_OFF,
PL6.E3A0      #003=Z9EN$WRITE_NEXT File=Z9EN.:Z8A6TSI                            SAT 08/09/97 13:51 Page:134
      659    15464    2                                FILE_LTS$ );
      660    15465
      661    15466    2       CALL Z8EU$CREATE_IDENTIFIER_FROM_ST

  15466 18 000032   200003 470500                    LDP0    @FILE_LTS$,,AUTO
        18 000033   000000 471500                    LDP1    0,,PR0
        18 000034   200024 633500                    EPPR3   FAB,,AUTO
        18 000035   200114 453500                    STP3    @WRITE_TYPE+3,,AUTO
        18 000036   200114 634500                    EPPR4   @WRITE_TYPE+3,,AUTO
        18 000037   200117 454500                    STP4    @WRITE_TYPE+6,,AUTO
        18 000040   100002 635500                    EPPR5   2,,PR1
        18 000041   200116 455500                    STP5    @WRITE_TYPE+5,,AUTO
        18 000042   200116 630500                    EPPR0   @WRITE_TYPE+5,,AUTO
        18 000043   000004 631400 19                 EPPR1   4
        18 000044   000000 701000 xent               TSX1    Z8EU$CREATE_IDENTIFIER_FROM_ST
        18 000045   000000 011000                    NOP     0

      662    15467    2                (FILE_LTS$ -> FILE_LTS.FAB$,
      663    15468    2                 ADDR(FAB));
      664    15469
      665    15470    2       IF INVALID_ILS_LIST$ = ADDR(NIL) AND VALID_ILS_LIST$ = ADDR(NIL)  THEN

  15470 18 000046   200004 470500                    LDP0    @INVALID_ILS_LIST$,,AUTO
        18 000047   000000 236100                    LDQ     0,,PR0
        18 000050   000000 116000 19                 CMPQ    0
        18 000051   000071 601000 18                 TNZ     s:15474
        18 000052   200005 471500                    LDP1    @VALID_ILS_LIST$,,AUTO
        18 000053   100000 236100                    LDQ     0,,PR1
        18 000054   000000 116000 19                 CMPQ    0
        18 000055   000071 601000 18                 TNZ     s:15474

      666    15471    2         CALL Z8AC$LX_ETT_ITEM_TYI_CONST (FALSE,

  15471 18 000056   200044 633500                    EPPR3   ALTRET_PRESENT,,AUTO
        18 000057   200114 453500                    STP3    @WRITE_TYPE+3,,AUTO
        18 000060   200114 634500                    EPPR4   @WRITE_TYPE+3,,AUTO
        18 000061   200117 454500                    STP4    @WRITE_TYPE+6,,AUTO
PL6.E3A0      #003=Z9EN$WRITE_NEXT File=Z9EN.:Z8A6TSI                            SAT 08/09/97 13:51 Page:135
        18 000062   000006 236000 19                 LDQ     6
        18 000063   200116 756100                    STQ     @WRITE_TYPE+5,,AUTO
        18 000064   200116 630500                    EPPR0   @WRITE_TYPE+5,,AUTO
        18 000065   000004 631400 19                 EPPR1   4
        18 000066   000000 701000 xent               TSX1    Z8AC$LX_ETT_ITEM_TYI_CONST
        18 000067   000000 011000                    NOP     0
        18 000070   000121 710000 18                 TRA     s:15485

      667    15472    2                                          ADDR(ALTRET_PRESENT));
      668    15473    3       ELSE DO;

      669    15474    3         IF COMCOM.OB.FIPS.LEVEL = %LOW_LEV THEN

  15474 18 000071   000036 720000 xsym               LXL0    COMCOM+30
        18 000072   000003 100003                    CMPX0   3,DU
        18 000073   000107 601000 18                 TNZ     s:15479

      670    15475    3           IF VALID_ILS_LIST$ ~= ADDR(NIL) OR INVALID_ILS_LIST$ ~= ADDR(NIL) THEN

  15475 18 000074   200005 471500                    LDP1    @VALID_ILS_LIST$,,AUTO
        18 000075   100000 236100                    LDQ     0,,PR1
        18 000076   000000 116000 19                 CMPQ    0
        18 000077   000103 601000 18                 TNZ     s:15476
        18 000100   000000 236100                    LDQ     0,,PR0
        18 000101   000000 116000 19                 CMPQ    0
        18 000102   000107 600000 18                 TZE     s:15479

      671    15476    3             CALL Z8AE$ERROR (%E$LEVEL_CHECK,

  15476 18 000103   000011 630400 19                 EPPR0   9
        18 000104   000007 631400 19                 EPPR1   7
        18 000105   000000 701000 xent               TSX1    Z8AE$ERROR
        18 000106   000000 011000                    NOP     0

      672    15477    3                              O1COM.LINE_NO,
      673    15478    3                              O1COM.COLUMN_NO);
      674    15479    3         CALL Z8AC$LX_ETT_ITEM_TYI_CONST (TRUE,
PL6.E3A0      #003=Z9EN$WRITE_NEXT File=Z9EN.:Z8A6TSI                            SAT 08/09/97 13:51 Page:136

  15479 18 000107   200044 630500                    EPPR0   ALTRET_PRESENT,,AUTO
        18 000110   200114 450500                    STP0    @WRITE_TYPE+3,,AUTO
        18 000111   200114 631500                    EPPR1   @WRITE_TYPE+3,,AUTO
        18 000112   200117 451500                    STP1    @WRITE_TYPE+6,,AUTO
        18 000113   000015 236000 19                 LDQ     13
        18 000114   200116 756100                    STQ     @WRITE_TYPE+5,,AUTO
        18 000115   200116 630500                    EPPR0   @WRITE_TYPE+5,,AUTO
        18 000116   000004 631400 19                 EPPR1   4
        18 000117   000000 701000 xent               TSX1    Z8AC$LX_ETT_ITEM_TYI_CONST
        18 000120   000000 011000                    NOP     0

      675    15480    3                                          ADDR(ALTRET_PRESENT));
      676    15481    3       END;

      677    15482
      678    15483            %INIT_LX_LIST (@POINTER = "ADDR(PLIST)");

  15485 18 000121   000002 220003                    LDX0    2,DU
        18 000122   200034 740100                    STX0    PLIST,,AUTO

  15486 18 000123   000000 221003                    LDX1    0,DU
        18 000124   200034 441100                    SXL1    PLIST,,AUTO

  15487 18 000125   000000 236000 19                 LDQ     0
        18 000126   200035 756100                    STQ     PLIST+1,,AUTO

  15488 18 000127   200040 756100                    STQ     PLIST+4,,AUTO

  15489 18 000130   200043 756100                    STQ     PLIST+7,,AUTO

  15490 18 000131   200036 450100                    STZ     PLIST+2,,AUTO

      679    15493
      680    15494            %ADD_LX_ITEM_TO_LIST_HEAD (@FROM$ = "ADDR(FAB)",
      681    15495                                       @LIST$ = "ADDR(PLIST)");

PL6.E3A0      #003=Z9EN$WRITE_NEXT File=Z9EN.:Z8A6TSI                            SAT 08/09/97 13:51 Page:137
  15497 18 000132   200033 756100                    STQ     FAB+7,,AUTO

  15498 18 000133   200024 630500                    EPPR0   FAB,,AUTO
        18 000134   200040 450500                    STP0    PLIST+4,,AUTO

  15499 18 000135   200036 235100                    LDA     PLIST+2,,AUTO
        18 000136   000141 601000 18                 TNZ     s:15501

  15500 18 000137   200024 631500                    EPPR1   FAB,,AUTO
        18 000140   200035 451500                    STP1    PLIST+1,,AUTO

  15501 18 000141   200036 054100                    AOS     PLIST+2,,AUTO

      682    15504
      683    15505            %ADD_LX_ITEM_TO_LIST_TAIL (@FROM$ = "ADDR(ALTRET_PRESENT)",
      684    15506                                       @LIST$ = "ADDR(PLIST)");

  15508 18 000142   200053 756100                    STQ     ALTRET_PRESENT+7,,AUTO

  15509 18 000143   000151 601000 18                 TNZ     s:15516

  15511 18 000144   200044 631500                    EPPR1   ALTRET_PRESENT,,AUTO
        18 000145   200040 451500                    STP1    PLIST+4,,AUTO

  15512 18 000146   200044 630500                    EPPR0   ALTRET_PRESENT,,AUTO
        18 000147   200035 450500                    STP0    PLIST+1,,AUTO

  15513 18 000150   000156 710000 18                 TRA     s:15519

  15516 18 000151   200044 631500                    EPPR1   ALTRET_PRESENT,,AUTO
        18 000152   200035 473500                    LDP3    PLIST+1,,AUTO
        18 000153   300007 451500                    STP1    7,,PR3

  15517 18 000154   200044 630500                    EPPR0   ALTRET_PRESENT,,AUTO
        18 000155   200035 450500                    STP0    PLIST+1,,AUTO

  15519 18 000156   200036 054100                    AOS     PLIST+2,,AUTO
PL6.E3A0      #003=Z9EN$WRITE_NEXT File=Z9EN.:Z8A6TSI                            SAT 08/09/97 13:51 Page:138

      685    15522    2     END FIRST_SET_UP_WRITE;

  15522 18 000157   200112 221300                    LDX1  ! @WRITE_TYPE+1,,AUTO
        18 000160   000001 702211                    TSX2  ! 1,X1

      686    15523        %EJECT;
PL6.E3A0      #003=Z9EN$WRITE_NEXT File=Z9EN.:Z8A6TSI                            SAT 08/09/97 13:51 Page:139
      687    15524    1     SET_UP_WRITE : PROC;

  15524 18 000161   200110 741300       SET_UP_WRITE STX1  ! END_LABEL$+1,,AUTO

      688    15525
      689    15526    2       CALL FIRST_SET_UP_WRITE;

  15526 18 000162   000003 701000 18                 TSX1    FIRST_SET_UP_WRITE
        18 000163   000000 011000                    NOP     0

      690    15527    2       REC_LEN_ARG = RECORD_LENGTH$ -> LX_ITEM;

  15527 18 000164   200006 470500                    LDP0    @RECORD_LENGTH$,,AUTO
        18 000165   000000 471500                    LDP1    0,,PR0
        18 000166   000100 100500                    MLR     fill='000'O
        18 000167   100000 000040                    ADSC9   0,,PR1                   cn=0,n=32
        18 000170   200074 000040                    ADSC9   REC_LEN_ARG,,AUTO        cn=0,n=32

      691    15528
      692    15529            %ADD_LX_ITEM_TO_LIST_TAIL (@FROM$ = "ADDR(REC_LEN_ARG)",
      693    15530                                       @LIST$ = "ADDR(PLIST)");

  15532 18 000171   000000 236000 19                 LDQ     0
        18 000172   200103 756100                    STQ     REC_LEN_ARG+7,,AUTO

  15533 18 000173   200036 235100                    LDA     PLIST+2,,AUTO
        18 000174   000202 601000 18                 TNZ     s:15540

  15535 18 000175   200074 631500                    EPPR1   REC_LEN_ARG,,AUTO
        18 000176   200040 451500                    STP1    PLIST+4,,AUTO

  15536 18 000177   200074 633500                    EPPR3   REC_LEN_ARG,,AUTO
        18 000200   200035 453500                    STP3    PLIST+1,,AUTO

  15537 18 000201   000207 710000 18                 TRA     s:15543

  15540 18 000202   200074 631500                    EPPR1   REC_LEN_ARG,,AUTO
PL6.E3A0      #003=Z9EN$WRITE_NEXT File=Z9EN.:Z8A6TSI                            SAT 08/09/97 13:51 Page:140
        18 000203   200035 473500                    LDP3    PLIST+1,,AUTO
        18 000204   300007 451500                    STP1    7,,PR3

  15541 18 000205   200074 631500                    EPPR1   REC_LEN_ARG,,AUTO
        18 000206   200035 451500                    STP1    PLIST+1,,AUTO

  15543 18 000207   200036 054100                    AOS     PLIST+2,,AUTO

      694    15546
      695    15547    2     END SET_UP_WRITE;

  15547 18 000210   200110 221300                    LDX1  ! END_LABEL$+1,,AUTO
        18 000211   000001 702211                    TSX2  ! 1,X1

      696    15548        %EJECT;
PL6.E3A0      #003=Z9EN$WRITE_NEXT File=Z9EN.:Z8A6TSI                            SAT 08/09/97 13:51 Page:141
      697    15549    1     FINISH_WRITE : PROC (WRITE_TYPE);

  15549 18 000212   200110 741300       FINISH_WRITE STX1  ! END_LABEL$+1,,AUTO

      698    15550
      699    15551    2       DCL WRITE_TYPE SBIN;
      700    15552
      701    15553    3       DO CASE (FILE_LTS$ -> FILE_LTS.ORGANIZATION);           /*#42918*/

  15553 18 000213   200003 470500                    LDP0    @FILE_LTS$,,AUTO
        18 000214   000000 471500                    LDP1    0,,PR0
        18 000215   100006 235100                    LDA     6,,PR1
        18 000216   000022 115007                    CMPA    18,DL
        18 000217   000221 602005 18                 TNC     s:15553+6,AL
        18 000220   000267 710000 18                 TRA     s:15568
        18 000221   000267 710000 18                 TRA     s:15568
        18 000222   000267 710000 18                 TRA     s:15568
        18 000223   000243 710000 18                 TRA     s:15560
        18 000224   000267 710000 18                 TRA     s:15568
        18 000225   000267 710000 18                 TRA     s:15568
        18 000226   000267 710000 18                 TRA     s:15568
        18 000227   000267 710000 18                 TRA     s:15568
        18 000230   000267 710000 18                 TRA     s:15568
        18 000231   000267 710000 18                 TRA     s:15568
        18 000232   000267 710000 18                 TRA     s:15568
        18 000233   000243 710000 18                 TRA     s:15560
        18 000234   000267 710000 18                 TRA     s:15568
        18 000235   000267 710000 18                 TRA     s:15568
        18 000236   000267 710000 18                 TRA     s:15568
        18 000237   000267 710000 18                 TRA     s:15568
        18 000240   000267 710000 18                 TRA     s:15568
        18 000241   000267 710000 18                 TRA     s:15568
        18 000242   000243 710000 18                 TRA     s:15560

      702    15554    3         CASE (

      703    15555                    %SET_OF_RELATIVE_ORGANIZATION;
PL6.E3A0      #003=Z9EN$WRITE_NEXT File=Z9EN.:Z8A6TSI                            SAT 08/09/97 13:51 Page:142
      704    15559    3              );
      705    15560    3           IF FILE_LTS$ -> FILE_LTS.RELATIVE_KEY$ ~= ADDR(NIL) AND

  15560 18 000243   100014 236100                    LDQ     12,,PR1
        18 000244   000000 116000 19                 CMPQ    0
        18 000245   000267 600000 18                 TZE     s:15568
        18 000246   100014 473500                    LDP3    12,,PR1
        18 000247   300003 236100                    LDQ     3,,PR3
        18 000250   000002 316003                    CANQ    2,DU
        18 000251   000267 600000 18                 TZE     s:15568

      706    15561    3               FILE_LTS$ -> FILE_LTS.RELATIVE_KEY$ -> SCALAR.B.LINKAGE THEN
      707    15562    3             CALL Z9EN$CREATE_MOVE( FILE_LTS$ -> FILE_LTS.RELATIVE_KEY$,

  15562 18 000252   000057 474400 xsym               LDP4    O1COM+47
        18 000253   400006 475500                    LDP5    6,,PR4
        18 000254   200003 236100                    LDQ     @FILE_LTS$,,AUTO
        18 000255   000017 235000 19                 LDA     15
        18 000256   200116 757100                    STAQ    @WRITE_TYPE+5,,AUTO
        18 000257   500005 633500                    EPPR3   5,,PR5
        18 000260   200115 453500                    STP3    @WRITE_TYPE+4,,AUTO
        18 000261   100014 635500                    EPPR5   12,,PR1
        18 000262   200114 455500                    STP5    @WRITE_TYPE+3,,AUTO
        18 000263   200114 630500                    EPPR0   @WRITE_TYPE+3,,AUTO
        18 000264   000001 631400 19                 EPPR1   1
        18 000265   000000 701000 xent               TSX1    Z9EN$CREATE_MOVE
        18 000266   000000 011000                    NOP     0

      708    15563    3                                   O1COM.CURRENT_PROC$ -> PROC_.PROC_DEF$ -> PROC_DEF.
             15563                                             ARGLIST$,
      709    15564    3                                    %RELATIVE_KEY_OFF,
      710    15565    3                                    FILE_LTS$ );
      711    15566    3       END;

      712    15567
      713    15568    2       CALL Z9EY$BUILD_RUNTIME_DESCRIPTOR (ADDR(PLIST) -> LX_LIST.HEAD$,

PL6.E3A0      #003=Z9EN$WRITE_NEXT File=Z9EN.:Z8A6TSI                            SAT 08/09/97 13:51 Page:143
  15568 18 000267   200036 630500                    EPPR0   PLIST+2,,AUTO
        18 000270   200116 450500                    STP0    @WRITE_TYPE+5,,AUTO
        18 000271   200104 631500                    EPPR1   RT_DESC_LIST$,,AUTO
        18 000272   200115 451500                    STP1    @WRITE_TYPE+4,,AUTO
        18 000273   200040 633500                    EPPR3   PLIST+4,,AUTO
        18 000274   200114 453500                    STP3    @WRITE_TYPE+3,,AUTO
        18 000275   200114 630500                    EPPR0   @WRITE_TYPE+3,,AUTO
        18 000276   000007 631400 19                 EPPR1   7
        18 000277   000000 701000 xent               TSX1    Z9EY$BUILD_RUNTIME_DESCRIPTOR
        18 000300   000000 011000                    NOP     0

      714    15569    2                                           RT_DESC_LIST$,
      715    15570    2                                           ADDR(PLIST) -> LX_LIST.COUNT);
      716    15571
      717    15572    2       CALL Z8EY$BUILD_RUNTIME_ARGLIST (ADDR(PLIST) -> LX_LIST.HEAD$,

  15572 18 000301   200036 630500                    EPPR0   PLIST+2,,AUTO
        18 000302   200116 450500                    STP0    @WRITE_TYPE+5,,AUTO
        18 000303   200105 631500                    EPPR1   RT_ARG_LIST$,,AUTO
        18 000304   200115 451500                    STP1    @WRITE_TYPE+4,,AUTO
        18 000305   200040 633500                    EPPR3   PLIST+4,,AUTO
        18 000306   200114 453500                    STP3    @WRITE_TYPE+3,,AUTO
        18 000307   200114 630500                    EPPR0   @WRITE_TYPE+3,,AUTO
        18 000310   000007 631400 19                 EPPR1   7
        18 000311   000000 701000 xent               TSX1    Z8EY$BUILD_RUNTIME_ARGLIST
        18 000312   000000 011000                    NOP     0

      718    15573    2                                        RT_ARG_LIST$,
      719    15574    2                                        ADDR(PLIST) -> LX_LIST.COUNT);
      720    15575
      721    15576    2       CALL Z8AT$CREATE_TEMPORARY (%PARA,

  15576 18 000313   200106 630500                    EPPR0   ALTRET_LABEL$,,AUTO
        18 000314   200115 450500                    STP0    @WRITE_TYPE+4,,AUTO
        18 000315   000021 236000 19                 LDQ     17
        18 000316   200114 756100                    STQ     @WRITE_TYPE+3,,AUTO
        18 000317   200114 630500                    EPPR0   @WRITE_TYPE+3,,AUTO
PL6.E3A0      #003=Z9EN$WRITE_NEXT File=Z9EN.:Z8A6TSI                            SAT 08/09/97 13:51 Page:144
        18 000320   000004 631400 19                 EPPR1   4
        18 000321   000000 701000 xent               TSX1    Z8AT$CREATE_TEMPORARY
        18 000322   000000 011000                    NOP     0

      722    15577    2                                   ALTRET_LABEL$);
      723    15578
      724    15579            %NEW_ILL (@ID = %OS_CALL,
      725    15580                      @CODE = WRITE_TYPE,
      726    15581                      @ROP = RT_DESC_LIST$,
      727    15582                      @LOP = RT_ARG_LIST$,
      728    15583                      @ALTRET = ALTRET_LABEL$);

  15673 18 000323   000024 236000 19                 LDQ     20
        18 000324   200114 756100                    STQ     @WRITE_TYPE+3,,AUTO
        18 000325   200114 630500                    EPPR0   @WRITE_TYPE+3,,AUTO
        18 000326   200121 450500                    STP0    @WRITE_TYPE+8,,AUTO
        18 000327   000025 236000 19                 LDQ     21
        18 000330   200120 756100                    STQ     @WRITE_TYPE+7,,AUTO
        18 000331   000026 237000 19                 LDAQ    22
        18 000332   200116 757100                    STAQ    @WRITE_TYPE+5,,AUTO
        18 000333   200116 630500                    EPPR0   @WRITE_TYPE+5,,AUTO
        18 000334   000001 631400 19                 EPPR1   1
        18 000335   000000 701000 xent               TSX1    Z8AN$NEW_ILL
        18 000336   000000 011000                    NOP     0

  15674 18 000337   200111 470500                    LDP0    @WRITE_TYPE,,AUTO
        18 000340   000000 720100                    LXL0    0,,PR0
        18 000341   000000 471400 13                 LDP1    ILL$
        18 000342   100000 440100                    SXL0    0,,PR1

  15675 18 000343   200105 236100                    LDQ     RT_ARG_LIST$,,AUTO
        18 000344   000000 471400 13                 LDP1    ILL$
        18 000345   100001 756100                    STQ     1,,PR1

  15676 18 000346   200104 236100                    LDQ     RT_DESC_LIST$,,AUTO
        18 000347   100002 756100                    STQ     2,,PR1

PL6.E3A0      #003=Z9EN$WRITE_NEXT File=Z9EN.:Z8A6TSI                            SAT 08/09/97 13:51 Page:145
  15688 18 000350   200106 236100                    LDQ     ALTRET_LABEL$,,AUTO
        18 000351   100004 756100                    STQ     4,,PR1

      729    15962
      730    15963
      731    15964             /* Add in code for AT END, ON INVALID, or NOT clause */
      732    15965
      733    15966    2        IF VALID_ILS_LIST$ ~= ADDR(NIL)   THEN

  15966 18 000352   200005 473500                    LDP3    @VALID_ILS_LIST$,,AUTO
        18 000353   300000 236100                    LDQ     0,,PR3
        18 000354   000000 116000 19                 CMPQ    0
        18 000355   000376 600000 18                 TZE     s:15987

      734    15967               %APPEND_ILS_LIST( @FROM$ = VALID_ILS_LIST$,
      735    15968                                 @TO$ = "ADDR(O1COM.ILS_LIST)" );

  15974 18 000356   300000 474500                    LDP4    0,,PR3
        18 000357   400001 236100                    LDQ     1,,PR4
        18 000360   000000 116000 19                 CMPQ    0
        18 000361   000376 600000 18                 TZE     s:15987

  15975 18 000362   000017 236000 xsym               LDQ     O1COM+15
        18 000363   000000 116000 19                 CMPQ    0
        18 000364   000370 601000 18                 TNZ     s:15979

  15976 18 000365   400001 236100                    LDQ     1,,PR4
        18 000366   000017 756000 xsym               STQ     O1COM+15

  15977 18 000367   000373 710000 18                 TRA     s:15981

  15979 18 000370   400001 236100                    LDQ     1,,PR4
        18 000371   000020 475400 xsym               LDP5    O1COM+16
        18 000372   500002 756100                    STQ     2,,PR5

  15981 18 000373   300000 474500                    LDP4    0,,PR3
        18 000374   400002 236100                    LDQ     2,,PR4
PL6.E3A0      #003=Z9EN$WRITE_NEXT File=Z9EN.:Z8A6TSI                            SAT 08/09/97 13:51 Page:146
        18 000375   000020 756000 xsym               STQ     O1COM+16

      736    15985
      737    15986
      738    15987    2        IF INVALID_ILS_LIST$ ~= ADDR(NIL) THEN

  15987 18 000376   200004 474500                    LDP4    @INVALID_ILS_LIST$,,AUTO
        18 000377   400000 236100                    LDQ     0,,PR4
        18 000400   000000 116000 19                 CMPQ    0
        18 000401   000521 600000 18                 TZE     s:17118

      739    15988    3          DO;

      740    15989    3            IF VALID_ILS_LIST$ ~= ADDR(NIL) AND

  15989 18 000402   300000 236100                    LDQ     0,,PR3
        18 000403   000000 116000 19                 CMPQ    0
        18 000404   000420 600000 18                 TZE     s:15995
        18 000405   300000 475500                    LDP5    0,,PR3
        18 000406   500002 476500                    LDP6    2,,PR5
        18 000407   600003 477500                    LDP7    3,,PR6
        18 000410   700000 220100                    LDX0    0,,PR7
        18 000411   000344 100003                    CMPX0   228,DU
        18 000412   000420 601000 18                 TNZ     s:15995
        18 000413   700000 721100                    LXL1    0,,PR7
        18 000414   000420 601000 18                 TNZ     s:15995

      741    15990    3                VALID_ILS_LIST$ -> ILS_LIST.TAIL$ -> ILS.ILL$ -> ILL.ID = %GO AND
      742    15991    3                VALID_ILS_LIST$ -> ILS_LIST.TAIL$ -> ILS.ILL$ -> ILL.CODE = %
             15991                         GO_UNCONDITIONAL THEN
      743    15992    3              END_LABEL$ = ADDR(NIL);

  15992 18 000415   000000 236000 19                 LDQ     0
        18 000416   200107 756100                    STQ     END_LABEL$,,AUTO
        18 000417   000436 710000 18                 TRA     s:16334

      744    15993    3            ELSE
PL6.E3A0      #003=Z9EN$WRITE_NEXT File=Z9EN.:Z8A6TSI                            SAT 08/09/97 13:51 Page:147
      745    15994    4              DO;

      746    15995    4                CALL Z8AT$CREATE_TEMPORARY (%PARA,

  15995 18 000420   200107 635500                    EPPR5   END_LABEL$,,AUTO
        18 000421   200115 455500                    STP5    @WRITE_TYPE+4,,AUTO
        18 000422   000021 236000 19                 LDQ     17
        18 000423   200114 756100                    STQ     @WRITE_TYPE+3,,AUTO
        18 000424   200114 630500                    EPPR0   @WRITE_TYPE+3,,AUTO
        18 000425   000004 631400 19                 EPPR1   4
        18 000426   000000 701000 xent               TSX1    Z8AT$CREATE_TEMPORARY
        18 000427   000000 011000                    NOP     0

      747    15996    4                                            END_LABEL$);
      748    15997
      749    15998    4                CALL Z8EK$BRANCH (END_LABEL$);

  15998 18 000430   200107 630500                    EPPR0   END_LABEL$,,AUTO
        18 000431   200114 450500                    STP0    @WRITE_TYPE+3,,AUTO
        18 000432   200114 630500                    EPPR0   @WRITE_TYPE+3,,AUTO
        18 000433   000030 631400 19                 EPPR1   24
        18 000434   000000 701000 xent               TSX1    Z8EK$BRANCH
        18 000435   000000 011000                    NOP     0

      750    15999    4              END;

      751    16000
      752    16001                 %NEW_ILL (@ID = %DEFLB,
      753    16002                           @LABEL$ = ALTRET_LABEL$);

  16334 18 000436   000024 236000 19                 LDQ     20
        18 000437   200114 756100                    STQ     @WRITE_TYPE+3,,AUTO
        18 000440   200114 630500                    EPPR0   @WRITE_TYPE+3,,AUTO
        18 000441   200121 450500                    STP0    @WRITE_TYPE+8,,AUTO
        18 000442   000025 236000 19                 LDQ     21
        18 000443   200120 756100                    STQ     @WRITE_TYPE+7,,AUTO
        18 000444   000034 237000 19                 LDAQ    28
PL6.E3A0      #003=Z9EN$WRITE_NEXT File=Z9EN.:Z8A6TSI                            SAT 08/09/97 13:51 Page:148
        18 000445   200116 757100                    STAQ    @WRITE_TYPE+5,,AUTO
        18 000446   200116 630500                    EPPR0   @WRITE_TYPE+5,,AUTO
        18 000447   000001 631400 19                 EPPR1   1
        18 000450   000000 701000 xent               TSX1    Z8AN$NEW_ILL
        18 000451   000000 011000                    NOP     0

  16335 18 000452   200106 236100                    LDQ     ALTRET_LABEL$,,AUTO
        18 000453   000000 470400 13                 LDP0    ILL$
        18 000454   000001 756100                    STQ     1,,PR0

      754    16381
      755    16382                 %APPEND_ILS_LIST (@FROM$ = INVALID_ILS_LIST$,
      756    16383                                   @TO$ = "ADDR(O1COM.ILS_LIST)");

  16389 18 000455   200004 471500                    LDP1    @INVALID_ILS_LIST$,,AUTO
        18 000456   100000 473500                    LDP3    0,,PR1
        18 000457   300001 236100                    LDQ     1,,PR3
        18 000460   000000 116000 19                 CMPQ    0
        18 000461   000476 600000 18                 TZE     s:16401

  16390 18 000462   000017 236000 xsym               LDQ     O1COM+15
        18 000463   000000 116000 19                 CMPQ    0
        18 000464   000470 601000 18                 TNZ     s:16394

  16391 18 000465   300001 236100                    LDQ     1,,PR3
        18 000466   000017 756000 xsym               STQ     O1COM+15

  16392 18 000467   000473 710000 18                 TRA     s:16396

  16394 18 000470   300001 236100                    LDQ     1,,PR3
        18 000471   000020 474400 xsym               LDP4    O1COM+16
        18 000472   400002 756100                    STQ     2,,PR4

  16396 18 000473   100000 473500                    LDP3    0,,PR1
        18 000474   300002 236100                    LDQ     2,,PR3
        18 000475   000020 756000 xsym               STQ     O1COM+16

PL6.E3A0      #003=Z9EN$WRITE_NEXT File=Z9EN.:Z8A6TSI                            SAT 08/09/97 13:51 Page:149
      757    16400
      758    16401    3            IF END_LABEL$ ~= ADDR(NIL) THEN

  16401 18 000476   200107 236100                    LDQ     END_LABEL$,,AUTO
        18 000477   000000 116000 19                 CMPQ    0
        18 000500   000540 600000 18                 TZE     s:17168

      759    16402                   %NEW_ILL (@ID = %DEFLB,
      760    16403                             @LABEL$ = END_LABEL$);

  16735 18 000501   000024 236000 19                 LDQ     20
        18 000502   200114 756100                    STQ     @WRITE_TYPE+3,,AUTO
        18 000503   200114 633500                    EPPR3   @WRITE_TYPE+3,,AUTO
        18 000504   200121 453500                    STP3    @WRITE_TYPE+8,,AUTO
        18 000505   000025 236000 19                 LDQ     21
        18 000506   200120 756100                    STQ     @WRITE_TYPE+7,,AUTO
        18 000507   000034 237000 19                 LDAQ    28
        18 000510   200116 757100                    STAQ    @WRITE_TYPE+5,,AUTO
        18 000511   200116 630500                    EPPR0   @WRITE_TYPE+5,,AUTO
        18 000512   000001 631400 19                 EPPR1   1
        18 000513   000000 701000 xent               TSX1    Z8AN$NEW_ILL
        18 000514   000000 011000                    NOP     0

  16736 18 000515   200107 236100                    LDQ     END_LABEL$,,AUTO
        18 000516   000000 470400 13                 LDP0    ILL$
        18 000517   000001 756100                    STQ     1,,PR0

      761    16782    3          END;

  16782 18 000520   000540 710000 18                 TRA     s:17168

      762    16783    2        ELSE
      763    16784    3          DO;

      764    16785                 %NEW_ILL (@ID = %DEFLB,
      765    16786                           @LABEL$ = ALTRET_LABEL$);

PL6.E3A0      #003=Z9EN$WRITE_NEXT File=Z9EN.:Z8A6TSI                            SAT 08/09/97 13:51 Page:150
  17118 18 000521   000024 236000 19                 LDQ     20
        18 000522   200114 756100                    STQ     @WRITE_TYPE+3,,AUTO
        18 000523   200114 635500                    EPPR5   @WRITE_TYPE+3,,AUTO
        18 000524   200121 455500                    STP5    @WRITE_TYPE+8,,AUTO
        18 000525   000025 236000 19                 LDQ     21
        18 000526   200120 756100                    STQ     @WRITE_TYPE+7,,AUTO
        18 000527   000034 237000 19                 LDAQ    28
        18 000530   200116 757100                    STAQ    @WRITE_TYPE+5,,AUTO
        18 000531   200116 630500                    EPPR0   @WRITE_TYPE+5,,AUTO
        18 000532   000001 631400 19                 EPPR1   1
        18 000533   000000 701000 xent               TSX1    Z8AN$NEW_ILL
        18 000534   000000 011000                    NOP     0

  17119 18 000535   200106 236100                    LDQ     ALTRET_LABEL$,,AUTO
        18 000536   000000 470400 13                 LDP0    ILL$
        18 000537   000001 756100                    STQ     1,,PR0

      766    17165    3          END;

      767    17166
      768    17167
      769    17168    2     END FINISH_WRITE;

  17168 18 000540   200110 221300                    LDX1  ! END_LABEL$+1,,AUTO
        18 000541   000001 702211                    TSX2  ! 1,X1

      770    17169        %EJECT;
PL6.E3A0      #003=Z9EN$WRITE_NEXT File=Z9EN.:Z8A6TSI                            SAT 08/09/97 13:51 Page:151
      771    17170        /* Main body of WRITE_NEXT */
      772    17171
      773    17172    1       CALL SET_UP_WRITE;

  17172 18 000542   000161 701000 18                 TSX1    SET_UP_WRITE
        18 000543   000000 011000                    NOP     0

      774    17173
      775    17174    1       IF FILE_LTS$ -> FILE_LTS.LINAGE.NO_OF_LINES$ ~= ADDR(NIL) AND /*#42918*/

  17174 18 000544   200003 470500                    LDP0    @FILE_LTS$,,AUTO
        18 000545   000000 471500                    LDP1    0,,PR0
        18 000546   100033 236100                    LDQ     27,,PR1
        18 000547   000000 116000 19                 CMPQ    0
        18 000550   000572 600000 18                 TZE     s:17181
        18 000551   100033 473500                    LDP3    27,,PR1
        18 000552   300003 236100                    LDQ     3,,PR3
        18 000553   000002 316003                    CANQ    2,DU
        18 000554   000572 600000 18                 TZE     s:17181

      776    17175    1           FILE_LTS$ -> FILE_LTS.LINAGE.NO_OF_LINES$ -> SCALAR.B.LINKAGE THEN
      777    17176    1         CALL Z9EN$CREATE_MOVE( FILE_LTS$ -> FILE_LTS.LINAGE.NO_OF_LINES$,

  17176 18 000555   000057 474400 xsym               LDP4    O1COM+47
        18 000556   400006 475500                    LDP5    6,,PR4
        18 000557   200003 236100                    LDQ     @FILE_LTS$,,AUTO
        18 000560   000036 235000 19                 LDA     30
        18 000561   200116 757100                    STAQ    @WRITE_TYPE+5,,AUTO
        18 000562   500005 633500                    EPPR3   5,,PR5
        18 000563   200115 453500                    STP3    @WRITE_TYPE+4,,AUTO
        18 000564   100033 635500                    EPPR5   27,,PR1
        18 000565   200114 455500                    STP5    @WRITE_TYPE+3,,AUTO
        18 000566   200114 630500                    EPPR0   @WRITE_TYPE+3,,AUTO
        18 000567   000001 631400 19                 EPPR1   1
        18 000570   000000 701000 xent               TSX1    Z9EN$CREATE_MOVE
        18 000571   000000 011000                    NOP     0

PL6.E3A0      #003=Z9EN$WRITE_NEXT File=Z9EN.:Z8A6TSI                            SAT 08/09/97 13:51 Page:152
      778    17177    1                                O1COM.CURRENT_PROC$ -> PROC_.PROC_DEF$ -> PROC_DEF.
             17177                                         ARGLIST$,
      779    17178    1                                %LINAGE_LINES_OFF,
      780    17179    1                                FILE_LTS$ );
      781    17180
      782    17181    1       IF FILE_LTS$ -> FILE_LTS.LINAGE.FOOTING$ ~= ADDR(NIL) AND

  17181 18 000572   200003 470500                    LDP0    @FILE_LTS$,,AUTO
        18 000573   000000 471500                    LDP1    0,,PR0
        18 000574   100034 236100                    LDQ     28,,PR1
        18 000575   000000 116000 19                 CMPQ    0
        18 000576   000620 600000 18                 TZE     s:17188
        18 000577   100034 473500                    LDP3    28,,PR1
        18 000600   300003 236100                    LDQ     3,,PR3
        18 000601   000002 316003                    CANQ    2,DU
        18 000602   000620 600000 18                 TZE     s:17188

      783    17182    1           FILE_LTS$ -> FILE_LTS.LINAGE.FOOTING$ -> SCALAR.B.LINKAGE THEN
      784    17183    1         CALL Z9EN$CREATE_MOVE( FILE_LTS$ -> FILE_LTS.LINAGE.FOOTING$,

  17183 18 000603   000057 474400 xsym               LDP4    O1COM+47
        18 000604   400006 475500                    LDP5    6,,PR4
        18 000605   200003 236100                    LDQ     @FILE_LTS$,,AUTO
        18 000606   000040 235000 19                 LDA     32
        18 000607   200116 757100                    STAQ    @WRITE_TYPE+5,,AUTO
        18 000610   500005 633500                    EPPR3   5,,PR5
        18 000611   200115 453500                    STP3    @WRITE_TYPE+4,,AUTO
        18 000612   100034 635500                    EPPR5   28,,PR1
        18 000613   200114 455500                    STP5    @WRITE_TYPE+3,,AUTO
        18 000614   200114 630500                    EPPR0   @WRITE_TYPE+3,,AUTO
        18 000615   000001 631400 19                 EPPR1   1
        18 000616   000000 701000 xent               TSX1    Z9EN$CREATE_MOVE
        18 000617   000000 011000                    NOP     0

      785    17184    1                                O1COM.CURRENT_PROC$ -> PROC_.PROC_DEF$ -> PROC_DEF.
             17184                                         ARGLIST$,
      786    17185    1                                %FOOTING_OFF,
PL6.E3A0      #003=Z9EN$WRITE_NEXT File=Z9EN.:Z8A6TSI                            SAT 08/09/97 13:51 Page:153
      787    17186    1                                FILE_LTS$ );
      788    17187
      789    17188    1       IF FILE_LTS$ -> FILE_LTS.LINAGE.TOP$ ~= ADDR(NIL) AND

  17188 18 000620   200003 470500                    LDP0    @FILE_LTS$,,AUTO
        18 000621   000000 471500                    LDP1    0,,PR0
        18 000622   100035 236100                    LDQ     29,,PR1
        18 000623   000000 116000 19                 CMPQ    0
        18 000624   000646 600000 18                 TZE     s:17195
        18 000625   100035 473500                    LDP3    29,,PR1
        18 000626   300003 236100                    LDQ     3,,PR3
        18 000627   000002 316003                    CANQ    2,DU
        18 000630   000646 600000 18                 TZE     s:17195

      790    17189    1           FILE_LTS$ -> FILE_LTS.LINAGE.TOP$ -> SCALAR.B.LINKAGE THEN
      791    17190    1         CALL Z9EN$CREATE_MOVE( FILE_LTS$ -> FILE_LTS.LINAGE.TOP$,

  17190 18 000631   000057 474400 xsym               LDP4    O1COM+47
        18 000632   400006 475500                    LDP5    6,,PR4
        18 000633   200003 236100                    LDQ     @FILE_LTS$,,AUTO
        18 000634   000042 235000 19                 LDA     34
        18 000635   200116 757100                    STAQ    @WRITE_TYPE+5,,AUTO
        18 000636   500005 633500                    EPPR3   5,,PR5
        18 000637   200115 453500                    STP3    @WRITE_TYPE+4,,AUTO
        18 000640   100035 635500                    EPPR5   29,,PR1
        18 000641   200114 455500                    STP5    @WRITE_TYPE+3,,AUTO
        18 000642   200114 630500                    EPPR0   @WRITE_TYPE+3,,AUTO
        18 000643   000001 631400 19                 EPPR1   1
        18 000644   000000 701000 xent               TSX1    Z9EN$CREATE_MOVE
        18 000645   000000 011000                    NOP     0

      792    17191    1                                O1COM.CURRENT_PROC$ -> PROC_.PROC_DEF$ -> PROC_DEF.
             17191                                         ARGLIST$,
      793    17192    1                                %TOP_OFF,
      794    17193    1                                FILE_LTS$ );
      795    17194
      796    17195    1       IF FILE_LTS$ -> FILE_LTS.LINAGE.BOTTOM$ ~= ADDR(NIL) AND
PL6.E3A0      #003=Z9EN$WRITE_NEXT File=Z9EN.:Z8A6TSI                            SAT 08/09/97 13:51 Page:154

  17195 18 000646   200003 470500                    LDP0    @FILE_LTS$,,AUTO
        18 000647   000000 471500                    LDP1    0,,PR0
        18 000650   100036 236100                    LDQ     30,,PR1
        18 000651   000000 116000 19                 CMPQ    0
        18 000652   000674 600000 18                 TZE     s:17202
        18 000653   100036 473500                    LDP3    30,,PR1
        18 000654   300003 236100                    LDQ     3,,PR3
        18 000655   000002 316003                    CANQ    2,DU
        18 000656   000674 600000 18                 TZE     s:17202

      797    17196    1           FILE_LTS$ -> FILE_LTS.LINAGE.BOTTOM$ -> SCALAR.B.LINKAGE THEN
      798    17197    1         CALL Z9EN$CREATE_MOVE( FILE_LTS$ -> FILE_LTS.LINAGE.BOTTOM$,

  17197 18 000657   000057 474400 xsym               LDP4    O1COM+47
        18 000660   400006 475500                    LDP5    6,,PR4
        18 000661   200003 236100                    LDQ     @FILE_LTS$,,AUTO
        18 000662   000044 235000 19                 LDA     36
        18 000663   200116 757100                    STAQ    @WRITE_TYPE+5,,AUTO
        18 000664   500005 633500                    EPPR3   5,,PR5
        18 000665   200115 453500                    STP3    @WRITE_TYPE+4,,AUTO
        18 000666   100036 635500                    EPPR5   30,,PR1
        18 000667   200114 455500                    STP5    @WRITE_TYPE+3,,AUTO
        18 000670   200114 630500                    EPPR0   @WRITE_TYPE+3,,AUTO
        18 000671   000001 631400 19                 EPPR1   1
        18 000672   000000 701000 xent               TSX1    Z9EN$CREATE_MOVE
        18 000673   000000 011000                    NOP     0

      799    17198    1                                O1COM.CURRENT_PROC$ -> PROC_.PROC_DEF$ -> PROC_DEF.
             17198                                         ARGLIST$,
      800    17199    1                                %BOTTOM_OFF,
      801    17200    1                                FILE_LTS$ );
      802    17201
      803    17202    1       CALL Z8AC$LX_ETT_ITEM_TYI_CONST (ADV_TYPE,

  17202 18 000674   200054 630500                    EPPR0   ADV_ARG,,AUTO
        18 000675   200114 450500                    STP0    @WRITE_TYPE+3,,AUTO
PL6.E3A0      #003=Z9EN$WRITE_NEXT File=Z9EN.:Z8A6TSI                            SAT 08/09/97 13:51 Page:155
        18 000676   200114 631500                    EPPR1   @WRITE_TYPE+3,,AUTO
        18 000677   200117 451500                    STP1    @WRITE_TYPE+6,,AUTO
        18 000700   200010 236100                    LDQ     @ADV_TYPE,,AUTO
        18 000701   200116 756100                    STQ     @WRITE_TYPE+5,,AUTO
        18 000702   200116 630500                    EPPR0   @WRITE_TYPE+5,,AUTO
        18 000703   000004 631400 19                 EPPR1   4
        18 000704   000000 701000 xent               TSX1    Z8AC$LX_ETT_ITEM_TYI_CONST
        18 000705   000000 011000                    NOP     0

      804    17203    1                                        ADDR(ADV_ARG));
      805    17204
      806    17205            %ADD_LX_ITEM_TO_LIST_TAIL (@FROM$ = "ADDR(ADV_ARG)",
      807    17206                                       @LIST$ = "ADDR(PLIST)");

  17208 18 000706   000000 236000 19                 LDQ     0
        18 000707   200063 756100                    STQ     ADV_ARG+7,,AUTO

  17209 18 000710   200036 235100                    LDA     PLIST+2,,AUTO
        18 000711   000717 601000 18                 TNZ     s:17216

  17211 18 000712   200054 630500                    EPPR0   ADV_ARG,,AUTO
        18 000713   200040 450500                    STP0    PLIST+4,,AUTO

  17212 18 000714   200054 631500                    EPPR1   ADV_ARG,,AUTO
        18 000715   200035 451500                    STP1    PLIST+1,,AUTO

  17213 18 000716   000724 710000 18                 TRA     s:17219

  17216 18 000717   200054 630500                    EPPR0   ADV_ARG,,AUTO
        18 000720   200035 471500                    LDP1    PLIST+1,,AUTO
        18 000721   100007 450500                    STP0    7,,PR1

  17217 18 000722   200054 630500                    EPPR0   ADV_ARG,,AUTO
        18 000723   200035 450500                    STP0    PLIST+1,,AUTO

  17219 18 000724   200036 054100                    AOS     PLIST+2,,AUTO

PL6.E3A0      #003=Z9EN$WRITE_NEXT File=Z9EN.:Z8A6TSI                            SAT 08/09/97 13:51 Page:156
      808    17222
      809    17223    1       IF LINES$ ~= ADDR(NIL) THEN

  17223 18 000725   200007 470500                    LDP0    @LINES$,,AUTO
        18 000726   000000 236100                    LDQ     0,,PR0
        18 000727   000000 116000 19                 CMPQ    0
        18 000730   000754 600000 18                 TZE     s:17245

      810    17224    2         DO;

      811    17225    2           LINES_ARG = LINES$ -> LX_ITEM;

  17225 18 000731   000000 471500                    LDP1    0,,PR0
        18 000732   000100 100500                    MLR     fill='000'O
        18 000733   100000 000040                    ADSC9   0,,PR1                   cn=0,n=32
        18 000734   200064 000040                    ADSC9   LINES_ARG,,AUTO          cn=0,n=32

      812    17226                %ADD_LX_ITEM_TO_LIST_TAIL (@FROM$ = "ADDR(LINES_ARG)",
      813    17227                                           @LIST$ = "ADDR(PLIST)");

  17229 18 000735   000000 236000 19                 LDQ     0
        18 000736   200073 756100                    STQ     LINES_ARG+7,,AUTO

  17230 18 000737   200036 235100                    LDA     PLIST+2,,AUTO
        18 000740   000746 601000 18                 TNZ     s:17237

  17232 18 000741   200064 631500                    EPPR1   LINES_ARG,,AUTO
        18 000742   200040 451500                    STP1    PLIST+4,,AUTO

  17233 18 000743   200064 633500                    EPPR3   LINES_ARG,,AUTO
        18 000744   200035 453500                    STP3    PLIST+1,,AUTO

  17234 18 000745   000753 710000 18                 TRA     s:17240

  17237 18 000746   200064 631500                    EPPR1   LINES_ARG,,AUTO
        18 000747   200035 473500                    LDP3    PLIST+1,,AUTO
        18 000750   300007 451500                    STP1    7,,PR3
PL6.E3A0      #003=Z9EN$WRITE_NEXT File=Z9EN.:Z8A6TSI                            SAT 08/09/97 13:51 Page:157

  17238 18 000751   200064 631500                    EPPR1   LINES_ARG,,AUTO
        18 000752   200035 451500                    STP1    PLIST+1,,AUTO

  17240 18 000753   200036 054100                    AOS     PLIST+2,,AUTO

      814    17243    2         END;

      815    17244
      816    17245    1       CALL FINISH_WRITE (%OP_WRITE_SEQUENTIAL);

  17245 18 000754   000042 236000 19                 LDQ     34
        18 000755   200111 756100                    STQ     END_LABEL$+2,,AUTO
        18 000756   000212 701000 18                 TSX1    FINISH_WRITE
        18 000757   000000 011000                    NOP     0

      817    17246
      818    17247    1       RETURN;

  17247 18 000760   000000 702200 xent               TSX2  ! X66_ARET

      819    17248        %EJECT;
PL6.E3A0      #003=Z9EN$WRITE_NEXT File=Z9EN.:Z8A6TSI                            SAT 08/09/97 13:51 Page:158
      820    17249    1   Z9EN$WRITE_SEQ : ENTRY (FILE_LTS$,

  17249 18 000761   000000 700200 xent  Z9EN$WRITE_* TSX0  ! X66_AUTO_N
        18 000762   000122 000007                    ZERO    82,7

      821    17250    1                           INVALID_ILS_LIST$,
      822    17251    1                           VALID_ILS_LIST$,
      823    17252    1                           RECORD_LENGTH$,
      824    17253    1                           LINES$,
      825    17254    1                           ADV_TYPE,
      826    17255    1                           REPORT_CODE);
      827    17256
      828    17257    1     CALL SET_UP_WRITE;

  17257 18 000763   000161 701000 18                 TSX1    SET_UP_WRITE
        18 000764   000000 011000                    NOP     0

      829    17258
      830    17259    1     CALL FINISH_WRITE (%OP_WRITE_SEQUENTIAL);

  17259 18 000765   000042 236000 19                 LDQ     34
        18 000766   200111 756100                    STQ     END_LABEL$+2,,AUTO
        18 000767   000212 701000 18                 TSX1    FINISH_WRITE
        18 000770   000000 011000                    NOP     0

      831    17260
      832    17261    1     RETURN;

  17261 18 000771   000000 702200 xent               TSX2  ! X66_ARET

      833    17262        %EJECT;
PL6.E3A0      #003=Z9EN$WRITE_NEXT File=Z9EN.:Z8A6TSI                            SAT 08/09/97 13:51 Page:159
      834    17263    1   Z9EN$WRITE_RANDOM : ENTRY (FILE_LTS$,

  17263 18 000772   000000 700200 xent  Z9EN$WRITE_* TSX0  ! X66_AUTO_N
        18 000773   000122 000007                    ZERO    82,7

      835    17264    1                              INVALID_ILS_LIST$,
      836    17265    1                              VALID_ILS_LIST$,
      837    17266    1                              RECORD_LENGTH$,
      838    17267    1                              LINES$,
      839    17268    1                              ADV_TYPE,
      840    17269    1                              REPORT_CODE);
      841    17270
      842    17271    1     CALL SET_UP_WRITE;

  17271 18 000774   000161 701000 18                 TSX1    SET_UP_WRITE
        18 000775   000000 011000                    NOP     0

      843    17272
      844    17273    1     CALL FINISH_WRITE (%OP_WRITE_RANDOM);

  17273 18 000776   000040 236000 19                 LDQ     32
        18 000777   200111 756100                    STQ     END_LABEL$+2,,AUTO
        18 001000   000212 701000 18                 TSX1    FINISH_WRITE
        18 001001   000000 011000                    NOP     0

      845    17274
      846    17275    1     RETURN;

  17275 18 001002   000000 702200 xent               TSX2  ! X66_ARET

      847    17276        %EJECT;
PL6.E3A0      #003=Z9EN$WRITE_NEXT File=Z9EN.:Z8A6TSI                            SAT 08/09/97 13:51 Page:160
      848    17277    1   Z9EN$REWRITE : ENTRY (FILE_LTS$,

  17277 18 001003   000000 700200 xent  Z9EN$REWRITE TSX0  ! X66_AUTO_N
        18 001004   000122 000007                    ZERO    82,7

      849    17278    1                         INVALID_ILS_LIST$,
      850    17279    1                         VALID_ILS_LIST$,
      851    17280    1                         RECORD_LENGTH$);
      852    17281
      853    17282    1     CALL SET_UP_WRITE;

  17282 18 001005   000161 701000 18                 TSX1    SET_UP_WRITE
        18 001006   000000 011000                    NOP     0

      854    17283
      855    17284    1     CALL FINISH_WRITE (%OP_REWRITE);

  17284 18 001007   000044 236000 19                 LDQ     36
        18 001010   200111 756100                    STQ     END_LABEL$+2,,AUTO
        18 001011   000212 701000 18                 TSX1    FINISH_WRITE
        18 001012   000000 011000                    NOP     0

      856    17285
      857    17286    1     RETURN;

  17286 18 001013   000000 702200 xent               TSX2  ! X66_ARET

      858    17287        %EJECT;
PL6.E3A0      #003=Z9EN$WRITE_NEXT File=Z9EN.:Z8A6TSI                            SAT 08/09/97 13:51 Page:161
      859    17288        /*-------------*/
      860    17289    1   Z9EN$WRITE_PAGE:       ENTRY (FILE_LTS$,

  17289 18 001014   000000 700200 xent  Z9EN$WRITE_* TSX0  ! X66_AUTO_N
        18 001015   000122 000007                    ZERO    82,7

      861    17290    1   /*-------------*/            INVALID_ILS_LIST$,
      862    17291    1                                VALID_ILS_LIST$ );
      863    17292
      864    17293    1       CALL Z8EU$CREATE_IDENTIFIER_FROM_ST

  17293 18 001016   200003 470500                    LDP0    @FILE_LTS$,,AUTO
        18 001017   000000 471500                    LDP1    0,,PR0
        18 001020   200024 633500                    EPPR3   FAB,,AUTO
        18 001021   200114 453500                    STP3    @WRITE_TYPE+3,,AUTO
        18 001022   200114 634500                    EPPR4   @WRITE_TYPE+3,,AUTO
        18 001023   200117 454500                    STP4    @WRITE_TYPE+6,,AUTO
        18 001024   100002 635500                    EPPR5   2,,PR1
        18 001025   200116 455500                    STP5    @WRITE_TYPE+5,,AUTO
        18 001026   200116 630500                    EPPR0   @WRITE_TYPE+5,,AUTO
        18 001027   000004 631400 19                 EPPR1   4
        18 001030   000000 701000 xent               TSX1    Z8EU$CREATE_IDENTIFIER_FROM_ST
        18 001031   000000 011000                    NOP     0

      865    17294    1                (FILE_LTS$ -> FILE_LTS.FAB$,
      866    17295    1                 ADDR(FAB));
      867    17296
      868    17297            %INIT_LX_LIST (@POINTER = "ADDR(PLIST)");

  17299 18 001032   000002 220003                    LDX0    2,DU
        18 001033   200034 740100                    STX0    PLIST,,AUTO

  17300 18 001034   000000 221003                    LDX1    0,DU
        18 001035   200034 441100                    SXL1    PLIST,,AUTO

  17301 18 001036   000000 236000 19                 LDQ     0
        18 001037   200035 756100                    STQ     PLIST+1,,AUTO
PL6.E3A0      #003=Z9EN$WRITE_NEXT File=Z9EN.:Z8A6TSI                            SAT 08/09/97 13:51 Page:162

  17302 18 001040   200040 756100                    STQ     PLIST+4,,AUTO

  17303 18 001041   200043 756100                    STQ     PLIST+7,,AUTO

  17304 18 001042   200036 450100                    STZ     PLIST+2,,AUTO

      869    17307
      870    17308            %ADD_LX_ITEM_TO_LIST_HEAD (@FROM$ = "ADDR(FAB)",
      871    17309                                       @LIST$ = "ADDR(PLIST)");

  17311 18 001043   200033 756100                    STQ     FAB+7,,AUTO

  17312 18 001044   200024 630500                    EPPR0   FAB,,AUTO
        18 001045   200040 450500                    STP0    PLIST+4,,AUTO

  17313 18 001046   200036 235100                    LDA     PLIST+2,,AUTO
        18 001047   001052 601000 18                 TNZ     s:17315

  17314 18 001050   200024 631500                    EPPR1   FAB,,AUTO
        18 001051   200035 451500                    STP1    PLIST+1,,AUTO

  17315 18 001052   200036 054100                    AOS     PLIST+2,,AUTO

      872    17318
      873    17319    1       CALL FINISH_WRITE (%OP_WRITE_PAGE);

  17319 18 001053   000017 236000 19                 LDQ     15
        18 001054   200111 756100                    STQ     END_LABEL$+2,,AUTO
        18 001055   000212 701000 18                 TSX1    FINISH_WRITE
        18 001056   000000 011000                    NOP     0

      874    17320
      875    17321    1       RETURN;

  17321 18 001057   000000 702200 xent               TSX2  ! X66_ARET

PL6.E3A0      #003=Z9EN$WRITE_NEXT File=Z9EN.:Z8A6TSI                            SAT 08/09/97 13:51 Page:163
      876    17322        %EJECT;
PL6.E3A0      #003=Z9EN$WRITE_NEXT File=Z9EN.:Z8A6TSI                            SAT 08/09/97 13:51 Page:164
      877    17323
      878    17324    1   Z9EN$DELETE : ENTRY (FILE_LTS$,

  17324 18 001060   000000 700200 xent  Z9EN$DELETE  TSX0  ! X66_AUTO_N
        18 001061   000122 000007                    ZERO    82,7

      879    17325    1                        INVALID_ILS_LIST$,
      880    17326    1                        VALID_ILS_LIST$ );
      881    17327
      882    17328    1     CALL FIRST_SET_UP_WRITE;

  17328 18 001062   000003 701000 18                 TSX1    FIRST_SET_UP_WRITE
        18 001063   000000 011000                    NOP     0

      883    17329
      884    17330    1     CALL FINISH_WRITE (%OP_DELETE);

  17330 18 001064   000046 236000 19                 LDQ     38
        18 001065   200111 756100                    STQ     END_LABEL$+2,,AUTO
        18 001066   000212 701000 18                 TSX1    FINISH_WRITE
        18 001067   000000 011000                    NOP     0

      885    17331
      886    17332    1     RETURN;

  17332 18 001070   000000 702200 xent               TSX2  ! X66_ARET
      887    17333
      888    17334    1   END Z9EN$WRITE_NEXT;
      889    17335        %EOD;

PL6.E3A0      #003=Z9EN$WRITE_NEXT File=Z9EN.:Z8A6TSI                            SAT 08/09/97 13:51 Page:165
--  Include file information  --

   Z8A_IO_EQUS.:Z8A6TOU  is referenced.
   Z8A_ERR_NUMS.:Z8A6TOU  is referenced.
   Z8A_COMCOM.:Z8A6TOU  cannot be made into a system file and is referenced.
   Z8A_LIBRARY.:Z8A6TOU  cannot be made into a system file and is referenced.
   X9A_IO.:X8A6TOU  is referenced.
   Z8E_ABSSYN.:Z8A6TOU  cannot be made into a system file and is referenced.
   Z8A_LTS.:Z8A6TOU  cannot be made into a system file and is referenced.
   Z8E_NEW_ILL.:Z8A6TOU  is referenced.
   Z8E_MACROS.:Z8A6TOU  cannot be made into a system file and is referenced.
   Z8E_O1COM.:Z8A6TOU  cannot be made into a system file and is referenced.
   Z8A_TYPES.:Z8A6TOU  is referenced.
   Z8A_ILL.:Z8A6TOU  cannot be made into a system file and is referenced.
   Z8A_ETT.:Z8A6TOU  cannot be made into a system file and is referenced.
   Z8A_ST.:Z8A6TOU  cannot be made into a system file and is referenced.
   Z8A_ILS.:Z8A6TOU  cannot be made into a system file and is referenced.
   Z8E_ILS_LIST.:Z8A6TOU  is referenced.
   Z8A_LEX_SYMB.:Z8A6TOU  cannot be made into a system file and is referenced.
   Z8E_STACKS.:Z8A6TOU  cannot be made into a system file and is referenced.
   X8A_COM_MACS.:X8A6TOU  is referenced.
   Z8A_NAMES.:Z8A6TOU  is referenced.
   Z8A_SUPP_MAC.:Z8A6TOU  is referenced.
   Z9A_FLAGS.:Z8A6TOU  is referenced.
   Z8A_DEFC.:Z8A6TOU  cannot be made into a system file and is referenced.
      No diagnostics issued in procedure Z9EN$WRITE_NEXT.
PL6.E3A0      #003=Z9EN$WRITE_NEXT File=Z9EN.:Z8A6TSI                            SAT 08/09/97 13:51 Page:166

 **** Variables and constants ****

  ****  Section 000 LblCom ITERATION

  ****  Scalars and arrays  ****
OctLoc.c.b A Datatyp(siz) R M Lvl/name                 OctLoc.c.b A Datatyp(siz) R M Lvl/name

     0-0-0/w SBIN              1 ITERATION

  ****  Section 001 LblCom LEX_SYMBOL

  ****  Scalars and arrays  ****
OctLoc.c.b A Datatyp(siz) R M Lvl/name                 OctLoc.c.b A Datatyp(siz) R M Lvl/name

     0-0-0/w STRC(3240)  r     1 LEX_SYMBOL                 0-0-0/w STRC(3240)        1 LEX_SYMBOL_WORDS

  ****  Section 002 LblCom CURRENT_LEX_SYMBOL$

  ****  Scalars and arrays  ****
OctLoc.c.b A Datatyp(siz) R M Lvl/name                 OctLoc.c.b A Datatyp(siz) R M Lvl/name

     0-0-0/w PTR         r     1 CURRENT_LEX_SYMBOL$

  ****  Section 003 LblCom TEMP_LEX_SYMBOL

  ****  Scalars and arrays  ****
OctLoc.c.b A Datatyp(siz) R M Lvl/name                 OctLoc.c.b A Datatyp(siz) R M Lvl/name

     0-0-0/w STRC(3240)        1 TEMP_LEX_SYMBOL

  ****  Section 004 LblCom TEMP_LEX_SYMBOL2

  ****  Scalars and arrays  ****
OctLoc.c.b A Datatyp(siz) R M Lvl/name                 OctLoc.c.b A Datatyp(siz) R M Lvl/name

     0-0-0/w STRC(3240)        1 TEMP_LEX_SYMBOL2

PL6.E3A0      #003=Z9EN$WRITE_NEXT File=Z9EN.:Z8A6TSI                            SAT 08/09/97 13:51 Page:167
  ****  Section 005 LblCom ILS$

  ****  Scalars and arrays  ****
OctLoc.c.b A Datatyp(siz) R M Lvl/name                 OctLoc.c.b A Datatyp(siz) R M Lvl/name

     0-0-0/w PTR         r     1 ILS$

  ****  Section 006 LblCom ILS_

  ****  Scalars and arrays  ****
OctLoc.c.b A Datatyp(siz) R M Lvl/name                 OctLoc.c.b A Datatyp(siz) R M Lvl/name

     0-0-0/w STRC(180)         1 ILS_

  ****  Section 007 LblCom ST$

  ****  Scalars and arrays  ****
OctLoc.c.b A Datatyp(siz) R M Lvl/name                 OctLoc.c.b A Datatyp(siz) R M Lvl/name

     0-0-0/w PTR         r     1 ST$

  ****  Section 008 LblCom ST_

  ****  Scalars and arrays  ****
OctLoc.c.b A Datatyp(siz) R M Lvl/name                 OctLoc.c.b A Datatyp(siz) R M Lvl/name

     0-0-0/w STRC(180)         1 ST_

  ****  Section 009 LblCom ETT$

  ****  Scalars and arrays  ****
OctLoc.c.b A Datatyp(siz) R M Lvl/name                 OctLoc.c.b A Datatyp(siz) R M Lvl/name

     0-0-0/w PTR         r     1 ETT$

  ****  Section 010 LblCom HEAD_ETT$

PL6.E3A0      #003=Z9EN$WRITE_NEXT File=Z9EN.:Z8A6TSI                            SAT 08/09/97 13:51 Page:168
  ****  Scalars and arrays  ****
OctLoc.c.b A Datatyp(siz) R M Lvl/name                 OctLoc.c.b A Datatyp(siz) R M Lvl/name

     0-0-0/w PTR               1 HEAD_ETT$

  ****  Section 011 LblCom ETT_BUCKETS

  ****  Scalars and arrays  ****
OctLoc.c.b A Datatyp(siz) R M Lvl/name                 OctLoc.c.b A Datatyp(siz) R M Lvl/name

     0-0-0/w PTR               1 ETT_BUCKETS(0:511)

  ****  Section 012 LblCom ETT_

  ****  Scalars and arrays  ****
OctLoc.c.b A Datatyp(siz) R M Lvl/name                 OctLoc.c.b A Datatyp(siz) R M Lvl/name

     0-0-0/w STRC(180)         1 ETT_

  ****  Section 013 LblCom ILL$

  ****  Scalars and arrays  ****
OctLoc.c.b A Datatyp(siz) R M Lvl/name                 OctLoc.c.b A Datatyp(siz) R M Lvl/name

     0-0-0/w PTR         r     1 ILL$

  ****  Section 014 LblCom ILL_

  ****  Scalars and arrays  ****
OctLoc.c.b A Datatyp(siz) R M Lvl/name                 OctLoc.c.b A Datatyp(siz) R M Lvl/name

     0-0-0/w STRC(180)         1 ILL_

  ****  Section 015 LblCom LTS$

  ****  Scalars and arrays  ****
OctLoc.c.b A Datatyp(siz) R M Lvl/name                 OctLoc.c.b A Datatyp(siz) R M Lvl/name
PL6.E3A0      #003=Z9EN$WRITE_NEXT File=Z9EN.:Z8A6TSI                            SAT 08/09/97 13:51 Page:169

     0-0-0/w PTR               1 LONG_ITEM$                 0-0-0/w PTR         r     1 LTS$

  ****  Section 016 LblCom LTS_

  ****  Scalars and arrays  ****
OctLoc.c.b A Datatyp(siz) R M Lvl/name                 OctLoc.c.b A Datatyp(siz) R M Lvl/name

     0-0-0/w STRC(180)         1 LTS_

  ****  Section 017 LblCom TEMP_LX_NODE

  ****  Scalars and arrays  ****
OctLoc.c.b A Datatyp(siz) R M Lvl/name                 OctLoc.c.b A Datatyp(siz) R M Lvl/name

     0-0-0/d STRC(288)         1 TEMP_LX_NODE

  ****  Auto variables  ****

  ****  Scalars and arrays  ****
OctLoc.c.b A Datatyp(siz) R M Lvl/name                 OctLoc.c.b A Datatyp(siz) R M Lvl/name

    10-0-0/w PTR         r     1 @ADV_TYPE                  3-0-0/w PTR         r     1 @FILE_LTS$
     4-0-0/w PTR         r     1 @INVALID_ILS_LIST$         7-0-0/w PTR         r     1 @LINES$
     6-0-0/w PTR         r     1 @RECORD_LENGTH$           11-0-0/w PTR         r     1 @REPORT_CODE
     5-0-0/w PTR         r     1 @VALID_ILS_LIST$         111-0-0/w PTR         r     1 @WRITE_TYPE
    54-0-0/d STRC(288)   r     1 ADV_ARG                   *0-0-0/w SBIN        r     1 ADV_TYPE
   106-0-0/w PTR         r     1 ALTRET_LABEL$             44-0-0/d STRC(288)   r     1 ALTRET_PRESENT
   107-0-0/w PTR         r     1 END_LABEL$                24-0-0/d STRC(288)   r     1 FAB
    *0-0-0/w PTR         r     1 FILE_LTS$                 *0-0-0/w PTR         r     1 INVALID_ILS_LIST$
    *0-0-0/w PTR         r     1 LINES$                    64-0-0/d STRC(288)   r     1 LINES_ARG
    12-0-0/w STRC(324)         1 NAME                      34-0-0/d STRC(288)   r     1 PLIST
    *0-0-0/w PTR         r     1 RECORD_LENGTH$            74-0-0/d STRC(288)   r     1 REC_LEN_ARG
    *0-0-0/w UBIN        r     1 REPORT_CODE              105-0-0/w PTR         r     1 RT_ARG_LIST$
   104-0-0/w PTR         r     1 RT_DESC_LIST$             *0-0-0/w PTR         r     1 VALID_ILS_LIST$
    *0-0-0/w SBIN        r     1 WRITE_TYPE

PL6.E3A0      #003=Z9EN$WRITE_NEXT File=Z9EN.:Z8A6TSI                            SAT 08/09/97 13:51 Page:170
  ****  SYMREF variables  ****

  ****  Scalars and arrays  ****
OctLoc.c.b A Datatyp(siz) R M Lvl/name                 OctLoc.c.b A Datatyp(siz) R M Lvl/name

     0-0-0/d STRC(13248) r     1 COMCOM
     0-0-0/w STRC(180)         1 HIER_STK(0:50)
     0-0-0/w SBIN              1 HIER_STK_PTR               0-0-0/w UBIN              1 ILL_STEP(0:144)
     0-0-0/w UBIN              1 ILS_STEP_TABLE(0:2)
     0-0-0/w UBIN              1 LTS_STEP(0:37)
     0-0-0/d STRC(11580) r     1 O1COM                      0-0-0/w STRC(144)         1 PAGE_FORMAT
     0-0-0/w STRC(153)         1 REP_STK(0:50)              0-0-0/w SBIN              1 REP_STK_PTR

  ****  BASED and DCB variables  ****

  ****  Scalars and arrays  ****
OctLoc.c.b A Datatyp(siz) R M Lvl/name                 OctLoc.c.b A Datatyp(siz) R M Lvl/name

     0-0-0/w STRC(108)         1 ACCEPT_DISPLAY             0-0-0/w STRC(288)         1 ADD_STMT
     0-0-0/w STRC(396)         1 ALPHABET                   0-0-0/w STRC(144)         1 ALTER_LTS
     0-0-0/w STRC(3672)        1 ALT_KEY                    0-0-0/w STRC(36864)       1 ARGLIST
     0-0-0/w STRC(396)         1 ARRAY                      0-0-0/w STRC(180)         1 ARRAY_PRESET_LTS
     0-0-0/w ASTR(324)   r     1 BASED_LEX_SYMBOL
     0-0-0/w STRC(360)         1 BASED_LEX_SYMBOL_WORDS
     0-0-0/w STRC(288)         1 BASE_LTS                   0-0-0/w STRC(108)         1 BINARY_ILL
     0-0-0/w STRC(288)         1 BINARY_OP                  0-0-0/w STRC(396)         1 BLOCK
     0-0-0/w STRC(144)         1 BRANCH_ILL                 0-0-0/w STRC(144)         1 BT
     0-0-0/w STRC(288)         1 CALL_STMT                  0-0-0/w STRC(216)         1 CCOSU
     0-0-0/w STRC(396)         1 CD                         0-0-0/w STRC(288)         1 CD_LTS
     0-0-0/w CHAR(4096)        1 CHARS                      0-0-0/w STRC(396)         1 CLASS
     0-0-0/w STRC(108)         1 CODED_MOVE                 0-0-0/w STRC(288)         1 COMPUTE_STMT
     0-0-0/w STRC(396)         1 CONDITION                  0-0-0/w STRC(396)         1 CONST
     0-0-0/w STRC(72)          1 CONT                       0-0-0/w STRC(540)         1 CONTROL_NAME_LTS
     0-0-0/w STRC(1872)        1 COPY_FILE                  0-0-0/w STRC(396)         1 DB
     0-0-0/w STRC(396)         1 DCB_                       0-0-0/w STRC(288)         1 DEFERED_IDENTIFIER
     0-0-0/w STRC(252)         1 DEFERED_ID_TREE            0-0-0/w STRC(288)         1 DEFERED_QUAL_ID
     0-0-0/w STRC(288)         1 DEFERED_SUM_CLAUSE
PL6.E3A0      #003=Z9EN$WRITE_NEXT File=Z9EN.:Z8A6TSI                            SAT 08/09/97 13:51 Page:171
     0-0-0/w STRC(288)         1 DEFERED_SUM_CLAUSE_LIST
     0-0-0/w STRC(144)   r     1 DEFLB                      0-0-0/w STRC(288)         1 DELETE_STMT
     0-0-0/w STRC(108)         1 DEPENDING_SIZE             0-0-0/w STRC(5472)        1 DIMS
     0-0-0/w STRC(288)         1 DIVIDE_STMT                0-0-0/w STRC(396)         1 DML_ITEM
     0-0-0/w STRC(216)         1 DML_REC                    0-0-0/w STRC(144)         1 DOEND
     0-0-0/w STRC(396)         1 DO_N                       0-0-0/w STRC(180)         1 DV4I
     0-0-0/w STRC(180)         1 ENTRY_ILL                  0-0-0/w STRC(180)         1 ETT
     0-0-0/w STRC(108)         1 EVALU                      0-0-0/w STRC(73836)       1 EVALUATE
     0-0-0/w STRC(396)         1 FD                         0-0-0/w STRC(1692)  r     1 FILE_LTS
     0-0-0/w STRC(144)         1 GO                         0-0-0/w STRC(180)   r     1 ILL
     0-0-0/w STRC              1 ILL_NO_OPS                 0-0-0/w STRC(180)   r     1 ILS
     0-0-0/w STRC(288)   r     1 ILS_LIST                   0-0-0/w STRC(108)         1 INDEXES
     0-0-0/w STRC(360)         1 INIT_LTS                   0-0-0/w STRC(288)         1 INSPECT_1_STMT
     0-0-0/w STRC(288)         1 INSPECT_2_STMT             0-0-0/w STRC(288)         1 INSPECT_4_STMT
     0-0-0/w STRC(396)         1 INTDEF                     0-0-0/w STRC(180)         1 IO_RESTORE_CHAIN
     0-0-0/w STRC(144)         1 KEY                        0-0-0/w STRC(396)         1 LABEL
     0-0-0/w STRC(288)         1 LA_ITEM                    0-0-0/w STRC(36864)       1 LCNST
     0-0-0/w STRC(108)         1 LINOI                      0-0-0/w STRC(72)          1 LONG
     0-0-0/w STRC              1 LTS                        0-0-0/w STRC(360)         1 LTSS
     0-0-0/w STRC(36936)       1 LTS_PTR_ARRAY              0-0-0/w STRC(504)         1 LX_CD_INPUT
     0-0-0/w STRC(324)         1 LX_CD_I_O                  0-0-0/w STRC(396)         1 LX_CD_OUTPUT
     0-0-0/w STRC(288)         1 LX_ETT_ITEM                0-0-0/w STRC(288)   r     1 LX_ITEM
     0-0-0/w STRC(288)         1 LX_LARGE                   0-0-0/w STRC(288)   r     1 LX_LIST
     0-0-0/w STRC(1224)        1 LX_REC_DECL                0-0-0/w STRC(864)         1 LX_REPORT_REC
     0-0-0/w STRC(288)         1 LX_TERMINAL                0-0-0/w STRC(72)          1 MFILL
     0-0-0/w STRC(396)         1 MNEMONIC                   0-0-0/w STRC(288)         1 MULTIPLY_STMT
     0-0-0/w STRC(180)         1 MULTI_GO                   0-0-0/w STRC(180)         1 MVEAL
     0-0-0/w STRC(108)         1 MVFIL                      0-0-0/w STRC(72)          1 MVIIS
     0-0-0/w STRC(144)         1 NEL                        0-0-0/w STRC(216)         1 OPEN_LTS
     0-0-0/w STRC(144)         1 OPN                        0-0-0/w STRC(180)   r     1 OS_CALL
     0-0-0/w STRC(36864)       1 PAGE                       0-0-0/w STRC(396)         1 PARA
     0-0-0/w STRC(216)         1 PFORM                      0-0-0/w STRC(144)         1 PINC
     0-0-0/w STRC(144)         1 PREOFF                     0-0-0/w STRC(108)         1 PRESET
     0-0-0/w STRC(144)         1 PRIME                      0-0-0/w STRC(396)   r     1 PROC_
     0-0-0/w STRC(396)   r     1 PROC_DEF                   0-0-0/w STRC(900)         1 PROC_SUPP
     0-0-0/w STRC(144)         1 P_A_PRESET                 0-0-0/w STRC(144)         1 P_P_PRESET
     0-0-0/w STRC(396)         1 RD                         0-0-0/w STRC(288)         1 READ_STMT
PL6.E3A0      #003=Z9EN$WRITE_NEXT File=Z9EN.:Z8A6TSI                            SAT 08/09/97 13:51 Page:172
     0-0-0/w STRC(216)         1 REF                        0-0-0/w STRC(144)         1 REMEM
     0-0-0/w STRC(108)         1 RENAMES                    0-0-0/w STRC(720)         1 REPORT_01_LTS
     0-0-0/w STRC(432)         1 REPORT_ELEM_LTS            0-0-0/w STRC(252)         1 REPORT_GRP_LTS
     0-0-0/w STRC(1332)        1 REPORT_LTS                 0-0-0/w STRC(288)         1 REWRITE_STMT
     0-0-0/w STRC(144)         1 RVA_LTS                    0-0-0/w STRC(396)   r     1 SCALAR
     0-0-0/w STRC(144)         1 SCOPE                      0-0-0/w STRC(396)         1 SD
     0-0-0/w STRC(216)         1 SEARCH_                    0-0-0/w STRC(396)         1 SECTION
     0-0-0/w STRC(396)         1 SEGMENT                    0-0-0/w STRC(360)         1 SEGMENT_LTS
     0-0-0/w STRC(396)         1 ST                         0-0-0/w STRC(288)         1 START_STMT
     0-0-0/w STRC(72)          1 STP2                       0-0-0/w STRC(252)         1 STRING_STMT
     0-0-0/w STRC(288)         1 SUBTRACT_STMT              0-0-0/w STRC(252)         1 SUM_LTS
     0-0-0/w STRC(396)         1 SWITCH                     0-0-0/w STRC(396)         1 SYMBOLIC_CHAR
     0-0-0/w STRC(396)         1 SYMDEF_                    0-0-0/w STRC(396)         1 SYMREF_
     0-0-0/w STRC(396)         1 TEMP                       0-0-0/w STRC(144)         1 TRINARY_ILL
     0-0-0/w STRC(72)          1 UNARY_ILL                  0-0-0/w STRC(288)         1 UNARY_OP
     0-0-0/w STRC(288)         1 UNSTRING_STMT              0-0-0/d STRC(612)         1 USE
     0-0-0/w STRC(216)         1 USER_CALL                  0-0-0/w STRC(252)         1 USE_SUPP
     0-0-0/w STRC(108)         1 VAL                        0-0-0/w STRC(108)         1 VAL_END
     0-0-0/w STRC(396)         1 VARIABLE                   0-0-0/w STRC(72)          1 WHEN
     0-0-0/w STRC(288)         1 WRITE_STMT


   Procedure Z9EN$WRITE_NEXT requires 569 words for executable code.
   Procedure Z9EN$WRITE_NEXT requires 82 words of local(AUTO) storage.

PL6.E3A0      #004=Z9EN$START_INDEXED File=Z9EN.:Z8A6TSI                         SAT 08/09/97 13:54 Page:173
      890        1        /*T***********************************************************/
      891        2        /*T*                                                         */
      892        3        /*T* Copyright (c) Bull HN Information Systems Inc., 1997    */
      893        4        /*T*                                                         */
      894        5        /*T***********************************************************/
      895        6        Z9EN$START_INDEXED : PROC (FILE_LTS$,
      896        7                                   INVALID_ILS_LIST$,
      897        8                                   VALID_ILS_LIST$,
      898        9                                   COMPARISON_TYPE,
      899       10                                   KEY_ST$,
      900       11                                   KEY_LENGTH);
      901       12
      902       13         /*P*
      903       14               NAME : Z9EN$START_ {INDEXED|RELATIVE}
      904       15               PURPOSE : To create the ILL for the START statement.
      905       16         */
      906       17
      907       18        %EQU PHASE = 1;
      908       19        %INCLUDE Z8A_DEFC;
      909       87        %INCLUDE Z9A_FLAGS;
      910      101        %INCLUDE Z8A_SUPP_MAC;
      911     2501        %INCLUDE Z8E_STACKS;
      912     4767        %INCLUDE Z8E_ILS_LIST;
      913     4851        %INCLUDE Z8A_ILS;
      914     4960        %INCLUDE Z8A_ST;
      915     8619        %INCLUDE Z8A_ETT;
      916     8920        %INCLUDE Z8A_ILL;
      917     9613        %INCLUDE Z8A_TYPES;
      918     9787        %INCLUDE Z8E_O1COM;
      919    10548        %INCLUDE Z8E_MACROS;
      920    11223        %INCLUDE Z8A_LTS;
      921    13300        %INCLUDE Z8E_ABSSYN;
      922    13506        %INCLUDE X9A_IO;                                            /*#42918*/
      923    13656        %INCLUDE Z8A_LIBRARY;
      924    13870        %INCLUDE Z8A_COMCOM;
      925    14520        %INCLUDE Z8A_ERR_NUMS;
      926    15284
PL6.E3A0      #004=Z9EN$START_INDEXED File=Z9EN.:Z8A6TSI                         SAT 08/09/97 13:54 Page:174
      927    15285    1   DCL FILE_LTS$       PTR;
      928    15286    1   DCL INVALID_ILS_LIST$ PTR;
      929    15287    1   DCL VALID_ILS_LIST$ PTR;
      930    15288    1   DCL COMPARISON_TYPE SBIN;
      931    15289    1   DCL KEY_ST$         PTR;
      932    15290        %DCL_AUTO_LX_ITEM( @NAME = KEY_LENGTH );
      933    15294
      934    15295    1   DCL Z8AE$ERROR ENTRY(12);
      935    15296    1   DCL Z9EY$BUILD_RUNTIME_DESCRIPTOR  ENTRY(3);
      936    15297    1   DCL Z8EY$BUILD_RUNTIME_ARGLIST     ENTRY(3);
      937    15298    1   DCL Z8EU$CREATE_IDENTIFIER_FROM_ST ENTRY(4);
      938    15299    1   DCL Z8AC$LX_ETT_ITEM_TYI_CONST     ENTRY(2);
      939    15300    1   DCL Z8AT$CREATE_TEMPORARY          ENTRY(2);
      940    15301    1   DCL Z8EK$BRANCH                    ENTRY(1);
      941    15302    1   DCL Z8E7$MOVE                      ENTRY(2);
      942    15303    1   DCL Z9EN$CREATE_MOVE               ENTRY(4);                /*#42918*/
      943    15304
      944    15305          %DCL_AUTO_LX_ITEM (@NAME = FAB);
      945    15309          %DCL_AUTO_LX_ITEM (@NAME = PLIST);
      946    15313          %DCL_AUTO_LX_ITEM (@NAME = ALTRET_PRESENT);
      947    15317          %DCL_AUTO_LX_ITEM (@NAME = COMP_OP_ARG);
      948    15321          %DCL_AUTO_LX_ITEM (@NAME = KEY_OFFSET_ARG);
      949    15325          %DCL_AUTO_LX_ITEM (@NAME = KEY_LENGTH_ARG);
      950    15329
      951    15330    1     DCL RT_DESC_LIST$ PTR;
      952    15331    1     DCL RT_ARG_LIST$  PTR;
      953    15332    1     DCL ALTRET_LABEL$ PTR;
      954    15333    1     DCL END_LABEL$    PTR;
      955    15334    1     DCL KEY_OFFSET    SBIN;
      956    15335         %EJECT;
PL6.E3A0      #004=Z9EN$START_INDEXED File=Z9EN.:Z8A6TSI                         SAT 08/09/97 13:54 Page:175
      957    15336    1     SET_UP_START : PROC;
      958    15337
      959    15338    2       IF FILE_LTS$ -> FILE_LTS.FILE_STATUS$ ~= ADDR(NIL) AND  /*#42918*/
      960    15339    2           FILE_LTS$ -> FILE_LTS.FILE_STATUS$ -> SCALAR.B.LINKAGE THEN
      961    15340    2         CALL Z9EN$CREATE_MOVE( FILE_LTS$ -> FILE_LTS.FILE_STATUS$,
      962    15341    2                                O1COM.CURRENT_PROC$ -> PROC_.PROC_DEF$ -> PROC_DEF.
             15341                                         ARGLIST$,
      963    15342    2                                %FILE_STATUS_OFF,
      964    15343    2                                FILE_LTS$ );
      965    15344
      966    15345    2       IF COMCOM.OB.FIPS.LEVEL >= %INT_LEV THEN
      967    15346    2         CALL Z8AE$ERROR (%E$LEVEL_CHECK,
      968    15347    2                          O1COM.LINE_NO,
      969    15348    2                          O1COM.COLUMN_NO);
      970    15349
      971    15350    2       CALL Z8EU$CREATE_IDENTIFIER_FROM_ST
      972    15351    2                (FILE_LTS$ -> FILE_LTS.FAB$,
      973    15352    2                 ADDR(FAB));
      974    15353
      975    15354    2       IF INVALID_ILS_LIST$ = ADDR(NIL) AND VALID_ILS_LIST$ = ADDR(NIL)  THEN
      976    15355    2         CALL Z8AC$LX_ETT_ITEM_TYI_CONST (FALSE,
      977    15356    2                                          ADDR(ALTRET_PRESENT));
      978    15357    2       ELSE
      979    15358    2         CALL Z8AC$LX_ETT_ITEM_TYI_CONST (TRUE,
      980    15359    2                                          ADDR(ALTRET_PRESENT));
      981    15360
      982    15361            %INIT_LX_LIST (@POINTER = "ADDR(PLIST)");
      983    15371
      984    15372            %ADD_LX_ITEM_TO_LIST_HEAD (@FROM$ = "ADDR(FAB)",
      985    15373                                       @LIST$ = "ADDR(PLIST)");
      986    15382
      987    15383            %ADD_LX_ITEM_TO_LIST_TAIL (@FROM$ = "ADDR(ALTRET_PRESENT)",
      988    15384                                       @LIST$ = "ADDR(PLIST)");
      989    15400
      990    15401    2       CALL Z8AC$LX_ETT_ITEM_TYI_CONST (COMPARISON_TYPE,
      991    15402    2                                        ADDR(COMP_OP_ARG));
      992    15403
PL6.E3A0      #004=Z9EN$START_INDEXED File=Z9EN.:Z8A6TSI                         SAT 08/09/97 13:54 Page:176
      993    15404            %ADD_LX_ITEM_TO_LIST_TAIL (@FROM$ = "ADDR(COMP_OP_ARG)",
      994    15405                                       @LIST$ = "ADDR(PLIST)");
      995    15421
      996    15422    2     END SET_UP_START;
      997    15423         %EJECT;
PL6.E3A0      #004=Z9EN$START_INDEXED File=Z9EN.:Z8A6TSI                         SAT 08/09/97 13:54 Page:177
      998    15424    1     FINISH_START : PROC (START_OP);
      999    15425
     1000    15426    2       DCL START_OP SBIN;
     1001    15427
     1002    15428
     1003    15429    2       CALL Z9EY$BUILD_RUNTIME_DESCRIPTOR (ADDR(PLIST) -> LX_LIST.HEAD$,
     1004    15430    2                                           RT_DESC_LIST$,
     1005    15431    2                                           ADDR(PLIST) -> LX_LIST.COUNT);
     1006    15432
     1007    15433    2       CALL Z8EY$BUILD_RUNTIME_ARGLIST (ADDR(PLIST) -> LX_LIST.HEAD$,
     1008    15434    2                                        RT_ARG_LIST$,
     1009    15435    2                                        ADDR(PLIST) -> LX_LIST.COUNT);
     1010    15436
     1011    15437    2       CALL Z8AT$CREATE_TEMPORARY (%PARA,
     1012    15438    2                                   ALTRET_LABEL$);
     1013    15439
     1014    15440            %NEW_ILL (@ID = %OS_CALL,
     1015    15441                      @CODE = START_OP,
     1016    15442                      @ROP = RT_DESC_LIST$,
     1017    15443                      @LOP = RT_ARG_LIST$,
     1018    15444                      @ALTRET = ALTRET_LABEL$);
     1019    15823
     1020    15824
     1021    15825             /* Add in code for AT END, INVALID, or NOT clause */
     1022    15826
     1023    15827    2        IF VALID_ILS_LIST$ ~= ADDR(NIL)   THEN
     1024    15828               %APPEND_ILS_LIST( @FROM$ = VALID_ILS_LIST$,
     1025    15829                                 @TO$ = "ADDR(O1COM.ILS_LIST)" );
     1026    15846
     1027    15847    2        IF INVALID_ILS_LIST$ ~= ADDR(NIL) THEN
     1028    15848    3          DO;
     1029    15849    3            IF VALID_ILS_LIST$ ~= ADDR(NIL) AND
     1030    15850    3                VALID_ILS_LIST$ -> ILS_LIST.TAIL$ -> ILS.ILL$ -> ILL.ID = %GO AND
     1031    15851    3                VALID_ILS_LIST$ -> ILS_LIST.TAIL$ -> ILS.ILL$ -> ILL.CODE = %
             15851                         GO_UNCONDITIONAL THEN
     1032    15852    3              END_LABEL$ = ADDR(NIL);
     1033    15853    3            ELSE
PL6.E3A0      #004=Z9EN$START_INDEXED File=Z9EN.:Z8A6TSI                         SAT 08/09/97 13:54 Page:178
     1034    15854    4              DO;
     1035    15855    4                CALL Z8AT$CREATE_TEMPORARY (%PARA,
     1036    15856    4                                            END_LABEL$);
     1037    15857
     1038    15858    4                CALL Z8EK$BRANCH (END_LABEL$);
     1039    15859    4              END;
     1040    15860
     1041    15861                 %NEW_ILL (@ID = %DEFLB,
     1042    15862                           @LABEL$ = ALTRET_LABEL$);
     1043    16241
     1044    16242                 %APPEND_ILS_LIST (@FROM$ = INVALID_ILS_LIST$,
     1045    16243                                   @TO$ = "ADDR(O1COM.ILS_LIST)");
     1046    16260
     1047    16261    3            IF END_LABEL$ ~= ADDR(NIL) THEN
     1048    16262                   %NEW_ILL (@ID = %DEFLB,
     1049    16263                             @LABEL$ = END_LABEL$);
     1050    16642    3          END;
     1051    16643    2        ELSE
     1052    16644    3          DO;
     1053    16645                 %NEW_ILL (@ID = %DEFLB,
     1054    16646                           @LABEL$ = ALTRET_LABEL$);
     1055    17025    3          END;
     1056    17026
     1057    17027
     1058    17028    2     END FINISH_START;
     1059    17029        %EJECT;
PL6.E3A0      #004=Z9EN$START_INDEXED File=Z9EN.:Z8A6TSI                         SAT 08/09/97 13:54 Page:179
     1060    17030        /* Main body of Z9EN$START_INDEXED */
     1061    17031
     1062    17032    1     CALL  SET_UP_START;
     1063    17033
     1064    17034    1     KEY_OFFSET = KEY_ST$ -> SCALAR.SA * 4  +  KEY_ST$ -> SCALAR.ADSC.CN;
     1065    17035    1     CALL Z8AC$LX_ETT_ITEM_TYI_CONST (KEY_OFFSET,
     1066    17036    1                                      ADDR(KEY_OFFSET_ARG));
     1067    17037
     1068    17038          %ADD_LX_ITEM_TO_LIST_TAIL (@FROM$ = "ADDR(KEY_OFFSET_ARG)",
     1069    17039                                     @LIST$ = "ADDR(PLIST)");
     1070    17055
     1071    17056    1     KEY_LENGTH_ARG = KEY_LENGTH;
     1072    17057
     1073    17058          %ADD_LX_ITEM_TO_LIST_TAIL (@FROM$ = "ADDR(KEY_LENGTH_ARG)",
     1074    17059                                     @LIST$ = "ADDR(PLIST)");
     1075    17075
     1076    17076    1     CALL FINISH_START (%OP_START);
     1077    17077
     1078    17078    1     RETURN;
     1079    17079
     1080    17080        %EJECT;
PL6.E3A0      #004=Z9EN$START_INDEXED File=Z9EN.:Z8A6TSI                         SAT 08/09/97 13:54 Page:180
     1081    17081    1   Z9EN$START_RELATIVE : ENTRY (FILE_LTS$,
     1082    17082    1                                INVALID_ILS_LIST$,
     1083    17083    1                                VALID_ILS_LIST$,
     1084    17084    1                                COMPARISON_TYPE,
     1085    17085    1                                KEY_ST$);
     1086    17086
     1087    17087    1       IF FILE_LTS$ -> FILE_LTS.RELATIVE_KEY$ ~= ADDR(NIL) AND /*#42918*/
     1088    17088    1           FILE_LTS$ -> FILE_LTS.RELATIVE_KEY$ -> SCALAR.B.LINKAGE THEN
     1089    17089    1         CALL Z9EN$CREATE_MOVE( FILE_LTS$ -> FILE_LTS.RELATIVE_KEY$,
     1090    17090    1                                O1COM.CURRENT_PROC$ -> PROC_.PROC_DEF$ -> PROC_DEF.
             17090                                         ARGLIST$,
     1091    17091    1                                %RELATIVE_KEY_OFF,
     1092    17092    1                                FILE_LTS$ );
     1093    17093
     1094    17094    1     CALL SET_UP_START;
     1095    17095    1     CALL FINISH_START (%OP_START);
     1096    17096
     1097    17097    1     RETURN;
     1098    17098
     1099    17099    1   END Z9EN$START_INDEXED;
     1100    17100        %EOD;

PL6.E3A0      #004=Z9EN$START_INDEXED File=Z9EN.:Z8A6TSI                         SAT 08/09/97 13:54 Page:181
--  Include file information  --

   Z8A_ERR_NUMS.:Z8A6TOU  is referenced.
   Z8A_COMCOM.:Z8A6TOU  cannot be made into a system file and is referenced.
   Z8A_LIBRARY.:Z8A6TOU  cannot be made into a system file and is referenced.
   X9A_IO.:X8A6TOU  is referenced.
   Z8E_ABSSYN.:Z8A6TOU  cannot be made into a system file and is referenced.
   Z8A_LTS.:Z8A6TOU  cannot be made into a system file and is referenced.
   Z8E_NEW_ILL.:Z8A6TOU  is referenced.
   Z8E_MACROS.:Z8A6TOU  cannot be made into a system file and is referenced.
   Z8E_O1COM.:Z8A6TOU  cannot be made into a system file and is referenced.
   Z8A_TYPES.:Z8A6TOU  is referenced.
   Z8A_ILL.:Z8A6TOU  cannot be made into a system file and is referenced.
   Z8A_ETT.:Z8A6TOU  cannot be made into a system file and is referenced.
   Z8A_ST.:Z8A6TOU  cannot be made into a system file and is referenced.
   Z8A_ILS.:Z8A6TOU  cannot be made into a system file and is referenced.
   Z8E_ILS_LIST.:Z8A6TOU  is referenced.
   Z8A_LEX_SYMB.:Z8A6TOU  cannot be made into a system file and is referenced.
   Z8E_STACKS.:Z8A6TOU  cannot be made into a system file and is referenced.
   X8A_COM_MACS.:X8A6TOU  is referenced.
   Z8A_NAMES.:Z8A6TOU  is referenced.
   Z8A_SUPP_MAC.:Z8A6TOU  is referenced.
   Z9A_FLAGS.:Z8A6TOU  is referenced.
   Z8A_DEFC.:Z8A6TOU  cannot be made into a system file and is referenced.
      No diagnostics issued in procedure Z9EN$START_INDEXED.

   Procedure Z9EN$START_INDEXED requires 394 words for executable code.
   Procedure Z9EN$START_INDEXED requires 80 words of local(AUTO) storage.

PL6.E3A0      #004=Z9EN$START_INDEXED File=Z9EN.:Z8A6TSI                         SAT 08/09/97 13:54 Page:182

 Object Unit name= Z9EN$START_INDEXED                         File name= Z9EN.:Z8A6TOU
 UTS= AUG 09 '97 13:54:15.44 SAT                              Compiler= PL-6/E31         Sev=      00
 SharedLib= :SHARED_SYSTEM                                    Alt SharedLib=


    ****  Control sections  ****

 Sect   Type Bound  Init  Size OctSiz  Section name(segment info)
    0  LblCom even  none     1      1  ITERATION
    1  LblCom even  none    90    132  LEX_SYMBOL
    2  LblCom even  none     1      1  CURRENT_LEX_SYMBOL$
    3  LblCom even  none    90    132  TEMP_LEX_SYMBOL
    4  LblCom even  none    90    132  TEMP_LEX_SYMBOL2
    5  LblCom even  none     1      1  ILS$
    6  LblCom even  none     5      5  ILS_
    7  LblCom even  none     1      1  ST$
    8  LblCom even  none     5      5  ST_
    9  LblCom even  none     1      1  ETT$
   10  LblCom even  none     1      1  HEAD_ETT$
   11  LblCom even  none   512   1000  ETT_BUCKETS
   12  LblCom even  none     5      5  ETT_
   13  LblCom even  none     1      1  ILL$
   14  LblCom even  none     5      5  ILL_
   15  LblCom even  none     1      1  LTS$
   16  LblCom even  none     5      5  LTS_
   17  LblCom even  none     8     10  TEMP_LX_NODE
   18   Proc  even  none   394    612  Z9EN$START_INDEXED
   19  RoData even  none    32     40  Z9EN$START_INDEXED

    ****  Entry defs  ****

                              Check   Calling
                             calling  sequence
  Sect OctLoc Primary Altret sequence   type   Parms  Name
    18      0   yes            yes      Std        6  Z9EN$START_INDEXED
    18    553                  yes      Std        5  Z9EN$START_RELATIVE
PL6.E3A0      #004=Z9EN$START_INDEXED File=Z9EN.:Z8A6TSI                         SAT 08/09/97 13:54 Page:183

  ****  Entry refs  ****

         Check        Calling
        calling       sequence
Altret sequence SRef   type   Args  Name
         yes           Std       2 Z8AC$LX_ETT_ITEM_TYI_CONST
         yes           Std       4 Z9EN$CREATE_MOVE
         yes           Std      12 Z8AE$ERROR
         yes           Std       4 Z8EU$CREATE_IDENTIFIER_FROM_ST
         yes           Std       3 Z9EY$BUILD_RUNTIME_DESCRIPTOR
         yes           Std       4 Z8AN$NEW_ILL
         yes           Std       1 Z8EK$BRANCH
         yes           Std       3 Z8EY$BUILD_RUNTIME_ARGLIST
         yes           Std       2 Z8AT$CREATE_TEMPORARY
                       nStd      0 X66_AUTO_N
                       nStd      0 X66_ARET

  ****  Data refs  ****

  Flags:  r = read only, s = secondary
Flgs Name                             Flgs Name                             Flgs Name
r    ILS_STEP_TABLE                   r    ILL_STEP                              O1COM
     HIER_STK_PTR                          HIER_STK                              PAGE_FORMAT
     REP_STK_PTR                           REP_STK                          r    LTS_STEP
     COMCOM

  ****  Segment refs  ****

  Flags:  r = read only, s = secondary
Flgs Name                             Flgs Name                             Flgs Name
     ISSID                                 NULLSID
PL6.E3A0      #004=Z9EN$START_INDEXED File=Z9EN.:Z8A6TSI                         SAT 08/09/97 13:54 Page:184


      890        1        /*T***********************************************************/
      891        2        /*T*                                                         */
      892        3        /*T* Copyright (c) Bull HN Information Systems Inc., 1997    */
      893        4        /*T*                                                         */
      894        5        /*T***********************************************************/
      895        6        Z9EN$START_INDEXED : PROC (FILE_LTS$,

      6 18 000000   000000 700200 xent  Z9EN$START_* TSX0  ! X66_AUTO_N
        18 000001   000120 000006                    ZERO    80,6
        18 000002   000457 710000 18                 TRA     s:17032

      896        7                                   INVALID_ILS_LIST$,
      897        8                                   VALID_ILS_LIST$,
      898        9                                   COMPARISON_TYPE,
      899       10                                   KEY_ST$,
      900       11                                   KEY_LENGTH);
      901       12
      902       13         /*P*
      903       14               NAME : Z9EN$START_ {INDEXED|RELATIVE}
      904       15               PURPOSE : To create the ILL for the START statement.
      905       16         */
      906       17
      907       18        %EQU PHASE = 1;
      908       19        %INCLUDE Z8A_DEFC;
      909       87        %INCLUDE Z9A_FLAGS;
      910      101        %INCLUDE Z8A_SUPP_MAC;
      911     2501        %INCLUDE Z8E_STACKS;
      912     4767        %INCLUDE Z8E_ILS_LIST;
      913     4851        %INCLUDE Z8A_ILS;
      914     4960        %INCLUDE Z8A_ST;
      915     8619        %INCLUDE Z8A_ETT;
      916     8920        %INCLUDE Z8A_ILL;
      917     9613        %INCLUDE Z8A_TYPES;
      918     9787        %INCLUDE Z8E_O1COM;
      919    10548        %INCLUDE Z8E_MACROS;
      920    11223        %INCLUDE Z8A_LTS;
PL6.E3A0      #004=Z9EN$START_INDEXED File=Z9EN.:Z8A6TSI                         SAT 08/09/97 13:54 Page:185
      921    13300        %INCLUDE Z8E_ABSSYN;
      922    13506        %INCLUDE X9A_IO;                                            /*#42918*/
      923    13656        %INCLUDE Z8A_LIBRARY;
      924    13870        %INCLUDE Z8A_COMCOM;
      925    14520        %INCLUDE Z8A_ERR_NUMS;
      926    15284
      927    15285    1   DCL FILE_LTS$       PTR;
      928    15286    1   DCL INVALID_ILS_LIST$ PTR;
      929    15287    1   DCL VALID_ILS_LIST$ PTR;
      930    15288    1   DCL COMPARISON_TYPE SBIN;
      931    15289    1   DCL KEY_ST$         PTR;
      932    15290        %DCL_AUTO_LX_ITEM( @NAME = KEY_LENGTH );
      933    15294
      934    15295    1   DCL Z8AE$ERROR ENTRY(12);
      935    15296    1   DCL Z9EY$BUILD_RUNTIME_DESCRIPTOR  ENTRY(3);
      936    15297    1   DCL Z8EY$BUILD_RUNTIME_ARGLIST     ENTRY(3);
      937    15298    1   DCL Z8EU$CREATE_IDENTIFIER_FROM_ST ENTRY(4);
      938    15299    1   DCL Z8AC$LX_ETT_ITEM_TYI_CONST     ENTRY(2);
      939    15300    1   DCL Z8AT$CREATE_TEMPORARY          ENTRY(2);
      940    15301    1   DCL Z8EK$BRANCH                    ENTRY(1);
      941    15302    1   DCL Z8E7$MOVE                      ENTRY(2);
      942    15303    1   DCL Z9EN$CREATE_MOVE               ENTRY(4);                /*#42918*/
      943    15304
      944    15305          %DCL_AUTO_LX_ITEM (@NAME = FAB);
      945    15309          %DCL_AUTO_LX_ITEM (@NAME = PLIST);
      946    15313          %DCL_AUTO_LX_ITEM (@NAME = ALTRET_PRESENT);
      947    15317          %DCL_AUTO_LX_ITEM (@NAME = COMP_OP_ARG);
      948    15321          %DCL_AUTO_LX_ITEM (@NAME = KEY_OFFSET_ARG);
      949    15325          %DCL_AUTO_LX_ITEM (@NAME = KEY_LENGTH_ARG);
      950    15329
      951    15330    1     DCL RT_DESC_LIST$ PTR;
      952    15331    1     DCL RT_ARG_LIST$  PTR;
      953    15332    1     DCL ALTRET_LABEL$ PTR;
      954    15333    1     DCL END_LABEL$    PTR;
      955    15334    1     DCL KEY_OFFSET    SBIN;
      956    15335         %EJECT;
PL6.E3A0      #004=Z9EN$START_INDEXED File=Z9EN.:Z8A6TSI                         SAT 08/09/97 13:54 Page:186
      957    15336    1     SET_UP_START : PROC;

  15336 18 000003   200110 741300       SET_UP_START STX1  ! KEY_OFFSET+2,,AUTO

      958    15337
      959    15338    2       IF FILE_LTS$ -> FILE_LTS.FILE_STATUS$ ~= ADDR(NIL) AND  /*#42918*/

  15338 18 000004   200003 470500                    LDP0    @FILE_LTS$,,AUTO
        18 000005   000000 471500                    LDP1    0,,PR0
        18 000006   100012 236100                    LDQ     10,,PR1
        18 000007   000000 116000 19                 CMPQ    0
        18 000010   000032 600000 18                 TZE     s:15345
        18 000011   100012 473500                    LDP3    10,,PR1
        18 000012   300003 236100                    LDQ     3,,PR3
        18 000013   000002 316003                    CANQ    2,DU
        18 000014   000032 600000 18                 TZE     s:15345

      960    15339    2           FILE_LTS$ -> FILE_LTS.FILE_STATUS$ -> SCALAR.B.LINKAGE THEN
      961    15340    2         CALL Z9EN$CREATE_MOVE( FILE_LTS$ -> FILE_LTS.FILE_STATUS$,

  15340 18 000015   000057 474400 xsym               LDP4    O1COM+47
        18 000016   400006 475500                    LDP5    6,,PR4
        18 000017   200003 236100                    LDQ     @FILE_LTS$,,AUTO
        18 000020   000003 235000 19                 LDA     3
        18 000021   200114 757100                    STAQ    @START_OP+3,,AUTO
        18 000022   500005 633500                    EPPR3   5,,PR5
        18 000023   200113 453500                    STP3    @START_OP+2,,AUTO
        18 000024   100012 635500                    EPPR5   10,,PR1
        18 000025   200112 455500                    STP5    @START_OP+1,,AUTO
        18 000026   200112 630500                    EPPR0   @START_OP+1,,AUTO
        18 000027   000001 631400 19                 EPPR1   1
        18 000030   000000 701000 xent               TSX1    Z9EN$CREATE_MOVE
        18 000031   000000 011000                    NOP     0

      962    15341    2                                O1COM.CURRENT_PROC$ -> PROC_.PROC_DEF$ -> PROC_DEF.
             15341                                         ARGLIST$,
      963    15342    2                                %FILE_STATUS_OFF,
PL6.E3A0      #004=Z9EN$START_INDEXED File=Z9EN.:Z8A6TSI                         SAT 08/09/97 13:54 Page:187
      964    15343    2                                FILE_LTS$ );
      965    15344
      966    15345    2       IF COMCOM.OB.FIPS.LEVEL >= %INT_LEV THEN

  15345 18 000032   000036 720000 xsym               LXL0    COMCOM+30
        18 000033   000002 100003                    CMPX0   2,DU
        18 000034   000041 604000 18                 TMI     s:15350

      967    15346    2         CALL Z8AE$ERROR (%E$LEVEL_CHECK,

  15346 18 000035   000006 630400 19                 EPPR0   6
        18 000036   000004 631400 19                 EPPR1   4
        18 000037   000000 701000 xent               TSX1    Z8AE$ERROR
        18 000040   000000 011000                    NOP     0

      968    15347    2                          O1COM.LINE_NO,
      969    15348    2                          O1COM.COLUMN_NO);
      970    15349
      971    15350    2       CALL Z8EU$CREATE_IDENTIFIER_FROM_ST

  15350 18 000041   200003 470500                    LDP0    @FILE_LTS$,,AUTO
        18 000042   000000 471500                    LDP1    0,,PR0
        18 000043   200022 633500                    EPPR3   FAB,,AUTO
        18 000044   200112 453500                    STP3    @START_OP+1,,AUTO
        18 000045   200112 634500                    EPPR4   @START_OP+1,,AUTO
        18 000046   200115 454500                    STP4    @START_OP+4,,AUTO
        18 000047   100002 635500                    EPPR5   2,,PR1
        18 000050   200114 455500                    STP5    @START_OP+3,,AUTO
        18 000051   200114 630500                    EPPR0   @START_OP+3,,AUTO
        18 000052   000011 631400 19                 EPPR1   9
        18 000053   000000 701000 xent               TSX1    Z8EU$CREATE_IDENTIFIER_FROM_ST
        18 000054   000000 011000                    NOP     0

      972    15351    2                (FILE_LTS$ -> FILE_LTS.FAB$,
      973    15352    2                 ADDR(FAB));
      974    15353
      975    15354    2       IF INVALID_ILS_LIST$ = ADDR(NIL) AND VALID_ILS_LIST$ = ADDR(NIL)  THEN
PL6.E3A0      #004=Z9EN$START_INDEXED File=Z9EN.:Z8A6TSI                         SAT 08/09/97 13:54 Page:188

  15354 18 000055   200004 470500                    LDP0    @INVALID_ILS_LIST$,,AUTO
        18 000056   000000 236100                    LDQ     0,,PR0
        18 000057   000000 116000 19                 CMPQ    0
        18 000060   000100 601000 18                 TNZ     s:15358
        18 000061   200005 471500                    LDP1    @VALID_ILS_LIST$,,AUTO
        18 000062   100000 236100                    LDQ     0,,PR1
        18 000063   000000 116000 19                 CMPQ    0
        18 000064   000100 601000 18                 TNZ     s:15358

      976    15355    2         CALL Z8AC$LX_ETT_ITEM_TYI_CONST (FALSE,

  15355 18 000065   200042 633500                    EPPR3   ALTRET_PRESENT,,AUTO
        18 000066   200112 453500                    STP3    @START_OP+1,,AUTO
        18 000067   200112 634500                    EPPR4   @START_OP+1,,AUTO
        18 000070   200115 454500                    STP4    @START_OP+4,,AUTO
        18 000071   000013 236000 19                 LDQ     11
        18 000072   200114 756100                    STQ     @START_OP+3,,AUTO
        18 000073   200114 630500                    EPPR0   @START_OP+3,,AUTO
        18 000074   000011 631400 19                 EPPR1   9
        18 000075   000000 701000 xent               TSX1    Z8AC$LX_ETT_ITEM_TYI_CONST
        18 000076   000000 011000                    NOP     0
        18 000077   000112 710000 18                 TRA     s:15363

      977    15356    2                                          ADDR(ALTRET_PRESENT));
      978    15357    2       ELSE
      979    15358    2         CALL Z8AC$LX_ETT_ITEM_TYI_CONST (TRUE,

  15358 18 000100   200042 631500                    EPPR1   ALTRET_PRESENT,,AUTO
        18 000101   200112 451500                    STP1    @START_OP+1,,AUTO
        18 000102   200112 633500                    EPPR3   @START_OP+1,,AUTO
        18 000103   200115 453500                    STP3    @START_OP+4,,AUTO
        18 000104   000015 236000 19                 LDQ     13
        18 000105   200114 756100                    STQ     @START_OP+3,,AUTO
        18 000106   200114 630500                    EPPR0   @START_OP+3,,AUTO
        18 000107   000011 631400 19                 EPPR1   9
        18 000110   000000 701000 xent               TSX1    Z8AC$LX_ETT_ITEM_TYI_CONST
PL6.E3A0      #004=Z9EN$START_INDEXED File=Z9EN.:Z8A6TSI                         SAT 08/09/97 13:54 Page:189
        18 000111   000000 011000                    NOP     0

      980    15359    2                                          ADDR(ALTRET_PRESENT));
      981    15360
      982    15361            %INIT_LX_LIST (@POINTER = "ADDR(PLIST)");

  15363 18 000112   000002 220003                    LDX0    2,DU
        18 000113   200032 740100                    STX0    PLIST,,AUTO

  15364 18 000114   000000 221003                    LDX1    0,DU
        18 000115   200032 441100                    SXL1    PLIST,,AUTO

  15365 18 000116   000000 236000 19                 LDQ     0
        18 000117   200033 756100                    STQ     PLIST+1,,AUTO

  15366 18 000120   200036 756100                    STQ     PLIST+4,,AUTO

  15367 18 000121   200041 756100                    STQ     PLIST+7,,AUTO

  15368 18 000122   200034 450100                    STZ     PLIST+2,,AUTO

      983    15371
      984    15372            %ADD_LX_ITEM_TO_LIST_HEAD (@FROM$ = "ADDR(FAB)",
      985    15373                                       @LIST$ = "ADDR(PLIST)");

  15375 18 000123   200031 756100                    STQ     FAB+7,,AUTO

  15376 18 000124   200022 630500                    EPPR0   FAB,,AUTO
        18 000125   200036 450500                    STP0    PLIST+4,,AUTO

  15377 18 000126   200034 235100                    LDA     PLIST+2,,AUTO
        18 000127   000132 601000 18                 TNZ     s:15379

  15378 18 000130   200022 631500                    EPPR1   FAB,,AUTO
        18 000131   200033 451500                    STP1    PLIST+1,,AUTO

  15379 18 000132   200034 054100                    AOS     PLIST+2,,AUTO
PL6.E3A0      #004=Z9EN$START_INDEXED File=Z9EN.:Z8A6TSI                         SAT 08/09/97 13:54 Page:190

      986    15382
      987    15383            %ADD_LX_ITEM_TO_LIST_TAIL (@FROM$ = "ADDR(ALTRET_PRESENT)",
      988    15384                                       @LIST$ = "ADDR(PLIST)");

  15386 18 000133   200051 756100                    STQ     ALTRET_PRESENT+7,,AUTO

  15387 18 000134   000142 601000 18                 TNZ     s:15394

  15389 18 000135   200042 631500                    EPPR1   ALTRET_PRESENT,,AUTO
        18 000136   200036 451500                    STP1    PLIST+4,,AUTO

  15390 18 000137   200042 630500                    EPPR0   ALTRET_PRESENT,,AUTO
        18 000140   200033 450500                    STP0    PLIST+1,,AUTO

  15391 18 000141   000147 710000 18                 TRA     s:15397

  15394 18 000142   200042 631500                    EPPR1   ALTRET_PRESENT,,AUTO
        18 000143   200033 473500                    LDP3    PLIST+1,,AUTO
        18 000144   300007 451500                    STP1    7,,PR3

  15395 18 000145   200042 630500                    EPPR0   ALTRET_PRESENT,,AUTO
        18 000146   200033 450500                    STP0    PLIST+1,,AUTO

  15397 18 000147   200034 054100                    AOS     PLIST+2,,AUTO

      989    15400
      990    15401    2       CALL Z8AC$LX_ETT_ITEM_TYI_CONST (COMPARISON_TYPE,

  15401 18 000150   200052 631500                    EPPR1   COMP_OP_ARG,,AUTO
        18 000151   200112 451500                    STP1    @START_OP+1,,AUTO
        18 000152   200112 633500                    EPPR3   @START_OP+1,,AUTO
        18 000153   200115 453500                    STP3    @START_OP+4,,AUTO
        18 000154   200006 236100                    LDQ     @COMPARISON_TYPE,,AUTO
        18 000155   200114 756100                    STQ     @START_OP+3,,AUTO
        18 000156   200114 630500                    EPPR0   @START_OP+3,,AUTO
        18 000157   000011 631400 19                 EPPR1   9
PL6.E3A0      #004=Z9EN$START_INDEXED File=Z9EN.:Z8A6TSI                         SAT 08/09/97 13:54 Page:191
        18 000160   000000 701000 xent               TSX1    Z8AC$LX_ETT_ITEM_TYI_CONST
        18 000161   000000 011000                    NOP     0

      991    15402    2                                        ADDR(COMP_OP_ARG));
      992    15403
      993    15404            %ADD_LX_ITEM_TO_LIST_TAIL (@FROM$ = "ADDR(COMP_OP_ARG)",
      994    15405                                       @LIST$ = "ADDR(PLIST)");

  15407 18 000162   000000 236000 19                 LDQ     0
        18 000163   200061 756100                    STQ     COMP_OP_ARG+7,,AUTO

  15408 18 000164   200034 235100                    LDA     PLIST+2,,AUTO
        18 000165   000173 601000 18                 TNZ     s:15415

  15410 18 000166   200052 630500                    EPPR0   COMP_OP_ARG,,AUTO
        18 000167   200036 450500                    STP0    PLIST+4,,AUTO

  15411 18 000170   200052 631500                    EPPR1   COMP_OP_ARG,,AUTO
        18 000171   200033 451500                    STP1    PLIST+1,,AUTO

  15412 18 000172   000200 710000 18                 TRA     s:15418

  15415 18 000173   200052 630500                    EPPR0   COMP_OP_ARG,,AUTO
        18 000174   200033 471500                    LDP1    PLIST+1,,AUTO
        18 000175   100007 450500                    STP0    7,,PR1

  15416 18 000176   200052 630500                    EPPR0   COMP_OP_ARG,,AUTO
        18 000177   200033 450500                    STP0    PLIST+1,,AUTO

  15418 18 000200   200034 054100                    AOS     PLIST+2,,AUTO

      995    15421
      996    15422    2     END SET_UP_START;

  15422 18 000201   200110 221300                    LDX1  ! KEY_OFFSET+2,,AUTO
        18 000202   000001 702211                    TSX2  ! 1,X1

PL6.E3A0      #004=Z9EN$START_INDEXED File=Z9EN.:Z8A6TSI                         SAT 08/09/97 13:54 Page:192
      997    15423         %EJECT;
PL6.E3A0      #004=Z9EN$START_INDEXED File=Z9EN.:Z8A6TSI                         SAT 08/09/97 13:54 Page:193
      998    15424    1     FINISH_START : PROC (START_OP);

  15424 18 000203   200110 741300       FINISH_START STX1  ! KEY_OFFSET+2,,AUTO

      999    15425
     1000    15426    2       DCL START_OP SBIN;
     1001    15427
     1002    15428
     1003    15429    2       CALL Z9EY$BUILD_RUNTIME_DESCRIPTOR (ADDR(PLIST) -> LX_LIST.HEAD$,

  15429 18 000204   200034 630500                    EPPR0   PLIST+2,,AUTO
        18 000205   200114 450500                    STP0    @START_OP+3,,AUTO
        18 000206   200102 631500                    EPPR1   RT_DESC_LIST$,,AUTO
        18 000207   200113 451500                    STP1    @START_OP+2,,AUTO
        18 000210   200036 633500                    EPPR3   PLIST+4,,AUTO
        18 000211   200112 453500                    STP3    @START_OP+1,,AUTO
        18 000212   200112 630500                    EPPR0   @START_OP+1,,AUTO
        18 000213   000004 631400 19                 EPPR1   4
        18 000214   000000 701000 xent               TSX1    Z9EY$BUILD_RUNTIME_DESCRIPTOR
        18 000215   000000 011000                    NOP     0

     1004    15430    2                                           RT_DESC_LIST$,
     1005    15431    2                                           ADDR(PLIST) -> LX_LIST.COUNT);
     1006    15432
     1007    15433    2       CALL Z8EY$BUILD_RUNTIME_ARGLIST (ADDR(PLIST) -> LX_LIST.HEAD$,

  15433 18 000216   200034 630500                    EPPR0   PLIST+2,,AUTO
        18 000217   200114 450500                    STP0    @START_OP+3,,AUTO
        18 000220   200103 631500                    EPPR1   RT_ARG_LIST$,,AUTO
        18 000221   200113 451500                    STP1    @START_OP+2,,AUTO
        18 000222   200036 633500                    EPPR3   PLIST+4,,AUTO
        18 000223   200112 453500                    STP3    @START_OP+1,,AUTO
        18 000224   200112 630500                    EPPR0   @START_OP+1,,AUTO
        18 000225   000004 631400 19                 EPPR1   4
        18 000226   000000 701000 xent               TSX1    Z8EY$BUILD_RUNTIME_ARGLIST
        18 000227   000000 011000                    NOP     0

PL6.E3A0      #004=Z9EN$START_INDEXED File=Z9EN.:Z8A6TSI                         SAT 08/09/97 13:54 Page:194
     1008    15434    2                                        RT_ARG_LIST$,
     1009    15435    2                                        ADDR(PLIST) -> LX_LIST.COUNT);
     1010    15436
     1011    15437    2       CALL Z8AT$CREATE_TEMPORARY (%PARA,

  15437 18 000230   200104 630500                    EPPR0   ALTRET_LABEL$,,AUTO
        18 000231   200113 450500                    STP0    @START_OP+2,,AUTO
        18 000232   000017 236000 19                 LDQ     15
        18 000233   200112 756100                    STQ     @START_OP+1,,AUTO
        18 000234   200112 630500                    EPPR0   @START_OP+1,,AUTO
        18 000235   000011 631400 19                 EPPR1   9
        18 000236   000000 701000 xent               TSX1    Z8AT$CREATE_TEMPORARY
        18 000237   000000 011000                    NOP     0

     1012    15438    2                                   ALTRET_LABEL$);
     1013    15439
     1014    15440            %NEW_ILL (@ID = %OS_CALL,
     1015    15441                      @CODE = START_OP,
     1016    15442                      @ROP = RT_DESC_LIST$,
     1017    15443                      @LOP = RT_ARG_LIST$,
     1018    15444                      @ALTRET = ALTRET_LABEL$);

  15534 18 000240   000022 236000 19                 LDQ     18
        18 000241   200112 756100                    STQ     @START_OP+1,,AUTO
        18 000242   200112 630500                    EPPR0   @START_OP+1,,AUTO
        18 000243   200117 450500                    STP0    @START_OP+6,,AUTO
        18 000244   000023 236000 19                 LDQ     19
        18 000245   200116 756100                    STQ     @START_OP+5,,AUTO
        18 000246   000024 237000 19                 LDAQ    20
        18 000247   200114 757100                    STAQ    @START_OP+3,,AUTO
        18 000250   200114 630500                    EPPR0   @START_OP+3,,AUTO
        18 000251   000001 631400 19                 EPPR1   1
        18 000252   000000 701000 xent               TSX1    Z8AN$NEW_ILL
        18 000253   000000 011000                    NOP     0

  15535 18 000254   200111 470500                    LDP0    @START_OP,,AUTO
        18 000255   000000 720100                    LXL0    0,,PR0
PL6.E3A0      #004=Z9EN$START_INDEXED File=Z9EN.:Z8A6TSI                         SAT 08/09/97 13:54 Page:195
        18 000256   000000 471400 13                 LDP1    ILL$
        18 000257   100000 440100                    SXL0    0,,PR1

  15536 18 000260   200103 236100                    LDQ     RT_ARG_LIST$,,AUTO
        18 000261   000000 471400 13                 LDP1    ILL$
        18 000262   100001 756100                    STQ     1,,PR1

  15537 18 000263   200102 236100                    LDQ     RT_DESC_LIST$,,AUTO
        18 000264   100002 756100                    STQ     2,,PR1

  15549 18 000265   200104 236100                    LDQ     ALTRET_LABEL$,,AUTO
        18 000266   100004 756100                    STQ     4,,PR1

     1019    15823
     1020    15824
     1021    15825             /* Add in code for AT END, INVALID, or NOT clause */
     1022    15826
     1023    15827    2        IF VALID_ILS_LIST$ ~= ADDR(NIL)   THEN

  15827 18 000267   200005 473500                    LDP3    @VALID_ILS_LIST$,,AUTO
        18 000270   300000 236100                    LDQ     0,,PR3
        18 000271   000000 116000 19                 CMPQ    0
        18 000272   000313 600000 18                 TZE     s:15847

     1024    15828               %APPEND_ILS_LIST( @FROM$ = VALID_ILS_LIST$,
     1025    15829                                 @TO$ = "ADDR(O1COM.ILS_LIST)" );

  15835 18 000273   300000 474500                    LDP4    0,,PR3
        18 000274   400001 236100                    LDQ     1,,PR4
        18 000275   000000 116000 19                 CMPQ    0
        18 000276   000313 600000 18                 TZE     s:15847

  15836 18 000277   000017 236000 xsym               LDQ     O1COM+15
        18 000300   000000 116000 19                 CMPQ    0
        18 000301   000305 601000 18                 TNZ     s:15840

  15837 18 000302   400001 236100                    LDQ     1,,PR4
PL6.E3A0      #004=Z9EN$START_INDEXED File=Z9EN.:Z8A6TSI                         SAT 08/09/97 13:54 Page:196
        18 000303   000017 756000 xsym               STQ     O1COM+15

  15838 18 000304   000310 710000 18                 TRA     s:15842

  15840 18 000305   400001 236100                    LDQ     1,,PR4
        18 000306   000020 475400 xsym               LDP5    O1COM+16
        18 000307   500002 756100                    STQ     2,,PR5

  15842 18 000310   300000 474500                    LDP4    0,,PR3
        18 000311   400002 236100                    LDQ     2,,PR4
        18 000312   000020 756000 xsym               STQ     O1COM+16

     1026    15846
     1027    15847    2        IF INVALID_ILS_LIST$ ~= ADDR(NIL) THEN

  15847 18 000313   200004 474500                    LDP4    @INVALID_ILS_LIST$,,AUTO
        18 000314   400000 236100                    LDQ     0,,PR4
        18 000315   000000 116000 19                 CMPQ    0
        18 000316   000436 600000 18                 TZE     s:16978

     1028    15848    3          DO;

     1029    15849    3            IF VALID_ILS_LIST$ ~= ADDR(NIL) AND

  15849 18 000317   300000 236100                    LDQ     0,,PR3
        18 000320   000000 116000 19                 CMPQ    0
        18 000321   000335 600000 18                 TZE     s:15855
        18 000322   300000 475500                    LDP5    0,,PR3
        18 000323   500002 476500                    LDP6    2,,PR5
        18 000324   600003 477500                    LDP7    3,,PR6
        18 000325   700000 220100                    LDX0    0,,PR7
        18 000326   000344 100003                    CMPX0   228,DU
        18 000327   000335 601000 18                 TNZ     s:15855
        18 000330   700000 721100                    LXL1    0,,PR7
        18 000331   000335 601000 18                 TNZ     s:15855

     1030    15850    3                VALID_ILS_LIST$ -> ILS_LIST.TAIL$ -> ILS.ILL$ -> ILL.ID = %GO AND
PL6.E3A0      #004=Z9EN$START_INDEXED File=Z9EN.:Z8A6TSI                         SAT 08/09/97 13:54 Page:197
     1031    15851    3                VALID_ILS_LIST$ -> ILS_LIST.TAIL$ -> ILS.ILL$ -> ILL.CODE = %
             15851                         GO_UNCONDITIONAL THEN
     1032    15852    3              END_LABEL$ = ADDR(NIL);

  15852 18 000332   000000 236000 19                 LDQ     0
        18 000333   200105 756100                    STQ     END_LABEL$,,AUTO
        18 000334   000353 710000 18                 TRA     s:16194

     1033    15853    3            ELSE
     1034    15854    4              DO;

     1035    15855    4                CALL Z8AT$CREATE_TEMPORARY (%PARA,

  15855 18 000335   200105 635500                    EPPR5   END_LABEL$,,AUTO
        18 000336   200113 455500                    STP5    @START_OP+2,,AUTO
        18 000337   000017 236000 19                 LDQ     15
        18 000340   200112 756100                    STQ     @START_OP+1,,AUTO
        18 000341   200112 630500                    EPPR0   @START_OP+1,,AUTO
        18 000342   000011 631400 19                 EPPR1   9
        18 000343   000000 701000 xent               TSX1    Z8AT$CREATE_TEMPORARY
        18 000344   000000 011000                    NOP     0

     1036    15856    4                                            END_LABEL$);
     1037    15857
     1038    15858    4                CALL Z8EK$BRANCH (END_LABEL$);

  15858 18 000345   200105 630500                    EPPR0   END_LABEL$,,AUTO
        18 000346   200112 450500                    STP0    @START_OP+1,,AUTO
        18 000347   200112 630500                    EPPR0   @START_OP+1,,AUTO
        18 000350   000026 631400 19                 EPPR1   22
        18 000351   000000 701000 xent               TSX1    Z8EK$BRANCH
        18 000352   000000 011000                    NOP     0

     1039    15859    4              END;

     1040    15860
     1041    15861                 %NEW_ILL (@ID = %DEFLB,
PL6.E3A0      #004=Z9EN$START_INDEXED File=Z9EN.:Z8A6TSI                         SAT 08/09/97 13:54 Page:198
     1042    15862                           @LABEL$ = ALTRET_LABEL$);

  16194 18 000353   000022 236000 19                 LDQ     18
        18 000354   200112 756100                    STQ     @START_OP+1,,AUTO
        18 000355   200112 630500                    EPPR0   @START_OP+1,,AUTO
        18 000356   200117 450500                    STP0    @START_OP+6,,AUTO
        18 000357   000023 236000 19                 LDQ     19
        18 000360   200116 756100                    STQ     @START_OP+5,,AUTO
        18 000361   000032 237000 19                 LDAQ    26
        18 000362   200114 757100                    STAQ    @START_OP+3,,AUTO
        18 000363   200114 630500                    EPPR0   @START_OP+3,,AUTO
        18 000364   000001 631400 19                 EPPR1   1
        18 000365   000000 701000 xent               TSX1    Z8AN$NEW_ILL
        18 000366   000000 011000                    NOP     0

  16195 18 000367   200104 236100                    LDQ     ALTRET_LABEL$,,AUTO
        18 000370   000000 470400 13                 LDP0    ILL$
        18 000371   000001 756100                    STQ     1,,PR0

     1043    16241
     1044    16242                 %APPEND_ILS_LIST (@FROM$ = INVALID_ILS_LIST$,
     1045    16243                                   @TO$ = "ADDR(O1COM.ILS_LIST)");

  16249 18 000372   200004 471500                    LDP1    @INVALID_ILS_LIST$,,AUTO
        18 000373   100000 473500                    LDP3    0,,PR1
        18 000374   300001 236100                    LDQ     1,,PR3
        18 000375   000000 116000 19                 CMPQ    0
        18 000376   000413 600000 18                 TZE     s:16261

  16250 18 000377   000017 236000 xsym               LDQ     O1COM+15
        18 000400   000000 116000 19                 CMPQ    0
        18 000401   000405 601000 18                 TNZ     s:16254

  16251 18 000402   300001 236100                    LDQ     1,,PR3
        18 000403   000017 756000 xsym               STQ     O1COM+15

  16252 18 000404   000410 710000 18                 TRA     s:16256
PL6.E3A0      #004=Z9EN$START_INDEXED File=Z9EN.:Z8A6TSI                         SAT 08/09/97 13:54 Page:199

  16254 18 000405   300001 236100                    LDQ     1,,PR3
        18 000406   000020 474400 xsym               LDP4    O1COM+16
        18 000407   400002 756100                    STQ     2,,PR4

  16256 18 000410   100000 473500                    LDP3    0,,PR1
        18 000411   300002 236100                    LDQ     2,,PR3
        18 000412   000020 756000 xsym               STQ     O1COM+16

     1046    16260
     1047    16261    3            IF END_LABEL$ ~= ADDR(NIL) THEN

  16261 18 000413   200105 236100                    LDQ     END_LABEL$,,AUTO
        18 000414   000000 116000 19                 CMPQ    0
        18 000415   000455 600000 18                 TZE     s:17028

     1048    16262                   %NEW_ILL (@ID = %DEFLB,
     1049    16263                             @LABEL$ = END_LABEL$);

  16595 18 000416   000022 236000 19                 LDQ     18
        18 000417   200112 756100                    STQ     @START_OP+1,,AUTO
        18 000420   200112 633500                    EPPR3   @START_OP+1,,AUTO
        18 000421   200117 453500                    STP3    @START_OP+6,,AUTO
        18 000422   000023 236000 19                 LDQ     19
        18 000423   200116 756100                    STQ     @START_OP+5,,AUTO
        18 000424   000032 237000 19                 LDAQ    26
        18 000425   200114 757100                    STAQ    @START_OP+3,,AUTO
        18 000426   200114 630500                    EPPR0   @START_OP+3,,AUTO
        18 000427   000001 631400 19                 EPPR1   1
        18 000430   000000 701000 xent               TSX1    Z8AN$NEW_ILL
        18 000431   000000 011000                    NOP     0

  16596 18 000432   200105 236100                    LDQ     END_LABEL$,,AUTO
        18 000433   000000 470400 13                 LDP0    ILL$
        18 000434   000001 756100                    STQ     1,,PR0

     1050    16642    3          END;
PL6.E3A0      #004=Z9EN$START_INDEXED File=Z9EN.:Z8A6TSI                         SAT 08/09/97 13:54 Page:200

  16642 18 000435   000455 710000 18                 TRA     s:17028

     1051    16643    2        ELSE
     1052    16644    3          DO;

     1053    16645                 %NEW_ILL (@ID = %DEFLB,
     1054    16646                           @LABEL$ = ALTRET_LABEL$);

  16978 18 000436   000022 236000 19                 LDQ     18
        18 000437   200112 756100                    STQ     @START_OP+1,,AUTO
        18 000440   200112 635500                    EPPR5   @START_OP+1,,AUTO
        18 000441   200117 455500                    STP5    @START_OP+6,,AUTO
        18 000442   000023 236000 19                 LDQ     19
        18 000443   200116 756100                    STQ     @START_OP+5,,AUTO
        18 000444   000032 237000 19                 LDAQ    26
        18 000445   200114 757100                    STAQ    @START_OP+3,,AUTO
        18 000446   200114 630500                    EPPR0   @START_OP+3,,AUTO
        18 000447   000001 631400 19                 EPPR1   1
        18 000450   000000 701000 xent               TSX1    Z8AN$NEW_ILL
        18 000451   000000 011000                    NOP     0

  16979 18 000452   200104 236100                    LDQ     ALTRET_LABEL$,,AUTO
        18 000453   000000 470400 13                 LDP0    ILL$
        18 000454   000001 756100                    STQ     1,,PR0

     1055    17025    3          END;

     1056    17026
     1057    17027
     1058    17028    2     END FINISH_START;

  17028 18 000455   200110 221300                    LDX1  ! KEY_OFFSET+2,,AUTO
        18 000456   000001 702211                    TSX2  ! 1,X1

     1059    17029        %EJECT;
PL6.E3A0      #004=Z9EN$START_INDEXED File=Z9EN.:Z8A6TSI                         SAT 08/09/97 13:54 Page:201
     1060    17030        /* Main body of Z9EN$START_INDEXED */
     1061    17031
     1062    17032    1     CALL  SET_UP_START;

  17032 18 000457   000003 701000 18                 TSX1    SET_UP_START
        18 000460   000000 011000                    NOP     0

     1063    17033
     1064    17034    1     KEY_OFFSET = KEY_ST$ -> SCALAR.SA * 4  +  KEY_ST$ -> SCALAR.ADSC.CN;

  17034 18 000461   200007 470500                    LDP0    @KEY_ST$,,AUTO
        18 000462   000000 471500                    LDP1    0,,PR0
        18 000463   100001 236100                    LDQ     1,,PR1
        18 000464   000020 772000                    QRL     16
        18 000465   000003 376007                    ANQ     3,DL
        18 000466   200112 756100                    STQ     @START_OP+1,,AUTO
        18 000467   100001 236100                    LDQ     1,,PR1
        18 000470   000020 772000                    QRL     16
        18 000471   000031 376000 19                 ANQ     25
        18 000472   200112 036100                    ADLQ    @START_OP+1,,AUTO
        18 000473   200106 756100                    STQ     KEY_OFFSET,,AUTO

     1065    17035    1     CALL Z8AC$LX_ETT_ITEM_TYI_CONST (KEY_OFFSET,

  17035 18 000474   200062 631500                    EPPR1   KEY_OFFSET_ARG,,AUTO
        18 000475   200112 451500                    STP1    @START_OP+1,,AUTO
        18 000476   200112 633500                    EPPR3   @START_OP+1,,AUTO
        18 000477   200115 453500                    STP3    @START_OP+4,,AUTO
        18 000500   200106 634500                    EPPR4   KEY_OFFSET,,AUTO
        18 000501   200114 454500                    STP4    @START_OP+3,,AUTO
        18 000502   200114 630500                    EPPR0   @START_OP+3,,AUTO
        18 000503   000011 631400 19                 EPPR1   9
        18 000504   000000 701000 xent               TSX1    Z8AC$LX_ETT_ITEM_TYI_CONST
        18 000505   000000 011000                    NOP     0

     1066    17036    1                                      ADDR(KEY_OFFSET_ARG));
     1067    17037
PL6.E3A0      #004=Z9EN$START_INDEXED File=Z9EN.:Z8A6TSI                         SAT 08/09/97 13:54 Page:202
     1068    17038          %ADD_LX_ITEM_TO_LIST_TAIL (@FROM$ = "ADDR(KEY_OFFSET_ARG)",
     1069    17039                                     @LIST$ = "ADDR(PLIST)");

  17041 18 000506   000000 236000 19                 LDQ     0
        18 000507   200071 756100                    STQ     KEY_OFFSET_ARG+7,,AUTO

  17042 18 000510   200034 235100                    LDA     PLIST+2,,AUTO
        18 000511   000517 601000 18                 TNZ     s:17049

  17044 18 000512   200062 630500                    EPPR0   KEY_OFFSET_ARG,,AUTO
        18 000513   200036 450500                    STP0    PLIST+4,,AUTO

  17045 18 000514   200062 631500                    EPPR1   KEY_OFFSET_ARG,,AUTO
        18 000515   200033 451500                    STP1    PLIST+1,,AUTO

  17046 18 000516   000524 710000 18                 TRA     s:17052

  17049 18 000517   200062 630500                    EPPR0   KEY_OFFSET_ARG,,AUTO
        18 000520   200033 471500                    LDP1    PLIST+1,,AUTO
        18 000521   100007 450500                    STP0    7,,PR1

  17050 18 000522   200062 630500                    EPPR0   KEY_OFFSET_ARG,,AUTO
        18 000523   200033 450500                    STP0    PLIST+1,,AUTO

  17052 18 000524   200034 054100                    AOS     PLIST+2,,AUTO

     1070    17055
     1071    17056    1     KEY_LENGTH_ARG = KEY_LENGTH;

  17056 18 000525   200010 470500                    LDP0    @KEY_LENGTH,,AUTO
        18 000526   000100 100500                    MLR     fill='000'O
        18 000527   000000 000040                    ADSC9   0,,PR0                   cn=0,n=32
        18 000530   200072 000040                    ADSC9   KEY_LENGTH_ARG,,AUTO     cn=0,n=32

     1072    17057
     1073    17058          %ADD_LX_ITEM_TO_LIST_TAIL (@FROM$ = "ADDR(KEY_LENGTH_ARG)",
     1074    17059                                     @LIST$ = "ADDR(PLIST)");
PL6.E3A0      #004=Z9EN$START_INDEXED File=Z9EN.:Z8A6TSI                         SAT 08/09/97 13:54 Page:203

  17061 18 000531   200101 756100                    STQ     KEY_LENGTH_ARG+7,,AUTO

  17062 18 000532   000540 601000 18                 TNZ     s:17069

  17064 18 000533   200072 631500                    EPPR1   KEY_LENGTH_ARG,,AUTO
        18 000534   200036 451500                    STP1    PLIST+4,,AUTO

  17065 18 000535   200072 633500                    EPPR3   KEY_LENGTH_ARG,,AUTO
        18 000536   200033 453500                    STP3    PLIST+1,,AUTO

  17066 18 000537   000545 710000 18                 TRA     s:17072

  17069 18 000540   200072 631500                    EPPR1   KEY_LENGTH_ARG,,AUTO
        18 000541   200033 473500                    LDP3    PLIST+1,,AUTO
        18 000542   300007 451500                    STP1    7,,PR3

  17070 18 000543   200072 631500                    EPPR1   KEY_LENGTH_ARG,,AUTO
        18 000544   200033 451500                    STP1    PLIST+1,,AUTO

  17072 18 000545   200034 054100                    AOS     PLIST+2,,AUTO

     1075    17075
     1076    17076    1     CALL FINISH_START (%OP_START);

  17076 18 000546   000035 236000 19                 LDQ     29
        18 000547   200111 756100                    STQ     KEY_OFFSET+3,,AUTO
        18 000550   000203 701000 18                 TSX1    FINISH_START
        18 000551   000000 011000                    NOP     0

     1077    17077
     1078    17078    1     RETURN;

  17078 18 000552   000000 702200 xent               TSX2  ! X66_ARET

     1079    17079
     1080    17080        %EJECT;
PL6.E3A0      #004=Z9EN$START_INDEXED File=Z9EN.:Z8A6TSI                         SAT 08/09/97 13:54 Page:204
     1081    17081    1   Z9EN$START_RELATIVE : ENTRY (FILE_LTS$,

  17081 18 000553   000000 700200 xent  Z9EN$START_* TSX0  ! X66_AUTO_N
        18 000554   000120 000006                    ZERO    80,6

     1082    17082    1                                INVALID_ILS_LIST$,
     1083    17083    1                                VALID_ILS_LIST$,
     1084    17084    1                                COMPARISON_TYPE,
     1085    17085    1                                KEY_ST$);
     1086    17086
     1087    17087    1       IF FILE_LTS$ -> FILE_LTS.RELATIVE_KEY$ ~= ADDR(NIL) AND /*#42918*/

  17087 18 000555   200003 470500                    LDP0    @FILE_LTS$,,AUTO
        18 000556   000000 471500                    LDP1    0,,PR0
        18 000557   100014 236100                    LDQ     12,,PR1
        18 000560   000000 116000 19                 CMPQ    0
        18 000561   000603 600000 18                 TZE     s:17094
        18 000562   100014 473500                    LDP3    12,,PR1
        18 000563   300003 236100                    LDQ     3,,PR3
        18 000564   000002 316003                    CANQ    2,DU
        18 000565   000603 600000 18                 TZE     s:17094

     1088    17088    1           FILE_LTS$ -> FILE_LTS.RELATIVE_KEY$ -> SCALAR.B.LINKAGE THEN
     1089    17089    1         CALL Z9EN$CREATE_MOVE( FILE_LTS$ -> FILE_LTS.RELATIVE_KEY$,

  17089 18 000566   000057 474400 xsym               LDP4    O1COM+47
        18 000567   400006 475500                    LDP5    6,,PR4
        18 000570   200003 236100                    LDQ     @FILE_LTS$,,AUTO
        18 000571   000037 235000 19                 LDA     31
        18 000572   200114 757100                    STAQ    @START_OP+3,,AUTO
        18 000573   500005 633500                    EPPR3   5,,PR5
        18 000574   200113 453500                    STP3    @START_OP+2,,AUTO
        18 000575   100014 635500                    EPPR5   12,,PR1
        18 000576   200112 455500                    STP5    @START_OP+1,,AUTO
        18 000577   200112 630500                    EPPR0   @START_OP+1,,AUTO
        18 000600   000001 631400 19                 EPPR1   1
        18 000601   000000 701000 xent               TSX1    Z9EN$CREATE_MOVE
PL6.E3A0      #004=Z9EN$START_INDEXED File=Z9EN.:Z8A6TSI                         SAT 08/09/97 13:54 Page:205
        18 000602   000000 011000                    NOP     0

     1090    17090    1                                O1COM.CURRENT_PROC$ -> PROC_.PROC_DEF$ -> PROC_DEF.
             17090                                         ARGLIST$,
     1091    17091    1                                %RELATIVE_KEY_OFF,
     1092    17092    1                                FILE_LTS$ );
     1093    17093
     1094    17094    1     CALL SET_UP_START;

  17094 18 000603   000003 701000 18                 TSX1    SET_UP_START
        18 000604   000000 011000                    NOP     0

     1095    17095    1     CALL FINISH_START (%OP_START);

  17095 18 000605   000035 236000 19                 LDQ     29
        18 000606   200111 756100                    STQ     KEY_OFFSET+3,,AUTO
        18 000607   000203 701000 18                 TSX1    FINISH_START
        18 000610   000000 011000                    NOP     0

     1096    17096
     1097    17097    1     RETURN;

  17097 18 000611   000000 702200 xent               TSX2  ! X66_ARET
     1098    17098
     1099    17099    1   END Z9EN$START_INDEXED;
     1100    17100        %EOD;

PL6.E3A0      #004=Z9EN$START_INDEXED File=Z9EN.:Z8A6TSI                         SAT 08/09/97 13:54 Page:206
--  Include file information  --

   Z8A_ERR_NUMS.:Z8A6TOU  is referenced.
   Z8A_COMCOM.:Z8A6TOU  cannot be made into a system file and is referenced.
   Z8A_LIBRARY.:Z8A6TOU  cannot be made into a system file and is referenced.
   X9A_IO.:X8A6TOU  is referenced.
   Z8E_ABSSYN.:Z8A6TOU  cannot be made into a system file and is referenced.
   Z8A_LTS.:Z8A6TOU  cannot be made into a system file and is referenced.
   Z8E_NEW_ILL.:Z8A6TOU  is referenced.
   Z8E_MACROS.:Z8A6TOU  cannot be made into a system file and is referenced.
   Z8E_O1COM.:Z8A6TOU  cannot be made into a system file and is referenced.
   Z8A_TYPES.:Z8A6TOU  is referenced.
   Z8A_ILL.:Z8A6TOU  cannot be made into a system file and is referenced.
   Z8A_ETT.:Z8A6TOU  cannot be made into a system file and is referenced.
   Z8A_ST.:Z8A6TOU  cannot be made into a system file and is referenced.
   Z8A_ILS.:Z8A6TOU  cannot be made into a system file and is referenced.
   Z8E_ILS_LIST.:Z8A6TOU  is referenced.
   Z8A_LEX_SYMB.:Z8A6TOU  cannot be made into a system file and is referenced.
   Z8E_STACKS.:Z8A6TOU  cannot be made into a system file and is referenced.
   X8A_COM_MACS.:X8A6TOU  is referenced.
   Z8A_NAMES.:Z8A6TOU  is referenced.
   Z8A_SUPP_MAC.:Z8A6TOU  is referenced.
   Z9A_FLAGS.:Z8A6TOU  is referenced.
   Z8A_DEFC.:Z8A6TOU  cannot be made into a system file and is referenced.
      No diagnostics issued in procedure Z9EN$START_INDEXED.
PL6.E3A0      #004=Z9EN$START_INDEXED File=Z9EN.:Z8A6TSI                         SAT 08/09/97 13:54 Page:207

 **** Variables and constants ****

  ****  Section 000 LblCom ITERATION

  ****  Scalars and arrays  ****
OctLoc.c.b A Datatyp(siz) R M Lvl/name                 OctLoc.c.b A Datatyp(siz) R M Lvl/name

     0-0-0/w SBIN              1 ITERATION

  ****  Section 001 LblCom LEX_SYMBOL

  ****  Scalars and arrays  ****
OctLoc.c.b A Datatyp(siz) R M Lvl/name                 OctLoc.c.b A Datatyp(siz) R M Lvl/name

     0-0-0/w STRC(3240)  r     1 LEX_SYMBOL                 0-0-0/w STRC(3240)        1 LEX_SYMBOL_WORDS

  ****  Section 002 LblCom CURRENT_LEX_SYMBOL$

  ****  Scalars and arrays  ****
OctLoc.c.b A Datatyp(siz) R M Lvl/name                 OctLoc.c.b A Datatyp(siz) R M Lvl/name

     0-0-0/w PTR         r     1 CURRENT_LEX_SYMBOL$

  ****  Section 003 LblCom TEMP_LEX_SYMBOL

  ****  Scalars and arrays  ****
OctLoc.c.b A Datatyp(siz) R M Lvl/name                 OctLoc.c.b A Datatyp(siz) R M Lvl/name

     0-0-0/w STRC(3240)        1 TEMP_LEX_SYMBOL

  ****  Section 004 LblCom TEMP_LEX_SYMBOL2

  ****  Scalars and arrays  ****
OctLoc.c.b A Datatyp(siz) R M Lvl/name                 OctLoc.c.b A Datatyp(siz) R M Lvl/name

     0-0-0/w STRC(3240)        1 TEMP_LEX_SYMBOL2

PL6.E3A0      #004=Z9EN$START_INDEXED File=Z9EN.:Z8A6TSI                         SAT 08/09/97 13:54 Page:208
  ****  Section 005 LblCom ILS$

  ****  Scalars and arrays  ****
OctLoc.c.b A Datatyp(siz) R M Lvl/name                 OctLoc.c.b A Datatyp(siz) R M Lvl/name

     0-0-0/w PTR         r     1 ILS$

  ****  Section 006 LblCom ILS_

  ****  Scalars and arrays  ****
OctLoc.c.b A Datatyp(siz) R M Lvl/name                 OctLoc.c.b A Datatyp(siz) R M Lvl/name

     0-0-0/w STRC(180)         1 ILS_

  ****  Section 007 LblCom ST$

  ****  Scalars and arrays  ****
OctLoc.c.b A Datatyp(siz) R M Lvl/name                 OctLoc.c.b A Datatyp(siz) R M Lvl/name

     0-0-0/w PTR         r     1 ST$

  ****  Section 008 LblCom ST_

  ****  Scalars and arrays  ****
OctLoc.c.b A Datatyp(siz) R M Lvl/name                 OctLoc.c.b A Datatyp(siz) R M Lvl/name

     0-0-0/w STRC(180)         1 ST_

  ****  Section 009 LblCom ETT$

  ****  Scalars and arrays  ****
OctLoc.c.b A Datatyp(siz) R M Lvl/name                 OctLoc.c.b A Datatyp(siz) R M Lvl/name

     0-0-0/w PTR         r     1 ETT$

  ****  Section 010 LblCom HEAD_ETT$

PL6.E3A0      #004=Z9EN$START_INDEXED File=Z9EN.:Z8A6TSI                         SAT 08/09/97 13:54 Page:209
  ****  Scalars and arrays  ****
OctLoc.c.b A Datatyp(siz) R M Lvl/name                 OctLoc.c.b A Datatyp(siz) R M Lvl/name

     0-0-0/w PTR               1 HEAD_ETT$

  ****  Section 011 LblCom ETT_BUCKETS

  ****  Scalars and arrays  ****
OctLoc.c.b A Datatyp(siz) R M Lvl/name                 OctLoc.c.b A Datatyp(siz) R M Lvl/name

     0-0-0/w PTR               1 ETT_BUCKETS(0:511)

  ****  Section 012 LblCom ETT_

  ****  Scalars and arrays  ****
OctLoc.c.b A Datatyp(siz) R M Lvl/name                 OctLoc.c.b A Datatyp(siz) R M Lvl/name

     0-0-0/w STRC(180)         1 ETT_

  ****  Section 013 LblCom ILL$

  ****  Scalars and arrays  ****
OctLoc.c.b A Datatyp(siz) R M Lvl/name                 OctLoc.c.b A Datatyp(siz) R M Lvl/name

     0-0-0/w PTR         r     1 ILL$

  ****  Section 014 LblCom ILL_

  ****  Scalars and arrays  ****
OctLoc.c.b A Datatyp(siz) R M Lvl/name                 OctLoc.c.b A Datatyp(siz) R M Lvl/name

     0-0-0/w STRC(180)         1 ILL_

  ****  Section 015 LblCom LTS$

  ****  Scalars and arrays  ****
OctLoc.c.b A Datatyp(siz) R M Lvl/name                 OctLoc.c.b A Datatyp(siz) R M Lvl/name
PL6.E3A0      #004=Z9EN$START_INDEXED File=Z9EN.:Z8A6TSI                         SAT 08/09/97 13:54 Page:210

     0-0-0/w PTR               1 LONG_ITEM$                 0-0-0/w PTR         r     1 LTS$

  ****  Section 016 LblCom LTS_

  ****  Scalars and arrays  ****
OctLoc.c.b A Datatyp(siz) R M Lvl/name                 OctLoc.c.b A Datatyp(siz) R M Lvl/name

     0-0-0/w STRC(180)         1 LTS_

  ****  Section 017 LblCom TEMP_LX_NODE

  ****  Scalars and arrays  ****
OctLoc.c.b A Datatyp(siz) R M Lvl/name                 OctLoc.c.b A Datatyp(siz) R M Lvl/name

     0-0-0/d STRC(288)         1 TEMP_LX_NODE

  ****  Auto variables  ****

  ****  Scalars and arrays  ****
OctLoc.c.b A Datatyp(siz) R M Lvl/name                 OctLoc.c.b A Datatyp(siz) R M Lvl/name

     6-0-0/w PTR         r     1 @COMPARISON_TYPE           3-0-0/w PTR         r     1 @FILE_LTS$
     4-0-0/w PTR         r     1 @INVALID_ILS_LIST$        10-0-0/w PTR         r     1 @KEY_LENGTH
     7-0-0/w PTR         r     1 @KEY_ST$                 111-0-0/w PTR         r     1 @START_OP
     5-0-0/w PTR         r     1 @VALID_ILS_LIST$         104-0-0/w PTR         r     1 ALTRET_LABEL$
    42-0-0/d STRC(288)   r     1 ALTRET_PRESENT            *0-0-0/w SBIN        r     1 COMPARISON_TYPE
    52-0-0/d STRC(288)   r     1 COMP_OP_ARG              105-0-0/w PTR         r     1 END_LABEL$
    22-0-0/d STRC(288)   r     1 FAB                       *0-0-0/w PTR         r     1 FILE_LTS$
    *0-0-0/w PTR         r     1 INVALID_ILS_LIST$         *0-0-0/d STRC(288)   r     1 KEY_LENGTH
    72-0-0/d STRC(288)   r     1 KEY_LENGTH_ARG           106-0-0/w SBIN        r     1 KEY_OFFSET
    62-0-0/d STRC(288)   r     1 KEY_OFFSET_ARG            *0-0-0/w PTR         r     1 KEY_ST$
    11-0-0/w STRC(324)         1 NAME                      32-0-0/d STRC(288)   r     1 PLIST
   103-0-0/w PTR         r     1 RT_ARG_LIST$             102-0-0/w PTR         r     1 RT_DESC_LIST$
    *0-0-0/w SBIN        r     1 START_OP                  *0-0-0/w PTR         r     1 VALID_ILS_LIST$

  ****  SYMREF variables  ****
PL6.E3A0      #004=Z9EN$START_INDEXED File=Z9EN.:Z8A6TSI                         SAT 08/09/97 13:54 Page:211

  ****  Scalars and arrays  ****
OctLoc.c.b A Datatyp(siz) R M Lvl/name                 OctLoc.c.b A Datatyp(siz) R M Lvl/name

     0-0-0/d STRC(13248) r     1 COMCOM
     0-0-0/w STRC(180)         1 HIER_STK(0:50)
     0-0-0/w SBIN              1 HIER_STK_PTR               0-0-0/w UBIN              1 ILL_STEP(0:144)
     0-0-0/w UBIN              1 ILS_STEP_TABLE(0:2)
     0-0-0/w UBIN              1 LTS_STEP(0:37)
     0-0-0/d STRC(11580) r     1 O1COM                      0-0-0/w STRC(144)         1 PAGE_FORMAT
     0-0-0/w STRC(153)         1 REP_STK(0:50)              0-0-0/w SBIN              1 REP_STK_PTR

  ****  BASED and DCB variables  ****

  ****  Scalars and arrays  ****
OctLoc.c.b A Datatyp(siz) R M Lvl/name                 OctLoc.c.b A Datatyp(siz) R M Lvl/name

     0-0-0/w STRC(108)         1 ACCEPT_DISPLAY             0-0-0/w STRC(288)         1 ADD_STMT
     0-0-0/w STRC(396)         1 ALPHABET                   0-0-0/w STRC(144)         1 ALTER_LTS
     0-0-0/w STRC(3672)        1 ALT_KEY                    0-0-0/w STRC(36864)       1 ARGLIST
     0-0-0/w STRC(396)         1 ARRAY                      0-0-0/w STRC(180)         1 ARRAY_PRESET_LTS
     0-0-0/w ASTR(324)   r     1 BASED_LEX_SYMBOL
     0-0-0/w STRC(360)         1 BASED_LEX_SYMBOL_WORDS
     0-0-0/w STRC(288)         1 BASE_LTS                   0-0-0/w STRC(108)         1 BINARY_ILL
     0-0-0/w STRC(288)         1 BINARY_OP                  0-0-0/w STRC(396)         1 BLOCK
     0-0-0/w STRC(144)         1 BRANCH_ILL                 0-0-0/w STRC(144)         1 BT
     0-0-0/w STRC(288)         1 CALL_STMT                  0-0-0/w STRC(216)         1 CCOSU
     0-0-0/w STRC(396)         1 CD                         0-0-0/w STRC(288)         1 CD_LTS
     0-0-0/w CHAR(4096)        1 CHARS                      0-0-0/w STRC(396)         1 CLASS
     0-0-0/w STRC(108)         1 CODED_MOVE                 0-0-0/w STRC(288)         1 COMPUTE_STMT
     0-0-0/w STRC(396)         1 CONDITION                  0-0-0/w STRC(396)         1 CONST
     0-0-0/w STRC(72)          1 CONT                       0-0-0/w STRC(540)         1 CONTROL_NAME_LTS
     0-0-0/w STRC(1872)        1 COPY_FILE                  0-0-0/w STRC(396)         1 DB
     0-0-0/w STRC(396)         1 DCB_                       0-0-0/w STRC(288)         1 DEFERED_IDENTIFIER
     0-0-0/w STRC(252)         1 DEFERED_ID_TREE            0-0-0/w STRC(288)         1 DEFERED_QUAL_ID
     0-0-0/w STRC(288)         1 DEFERED_SUM_CLAUSE
     0-0-0/w STRC(288)         1 DEFERED_SUM_CLAUSE_LIST
PL6.E3A0      #004=Z9EN$START_INDEXED File=Z9EN.:Z8A6TSI                         SAT 08/09/97 13:54 Page:212
     0-0-0/w STRC(144)   r     1 DEFLB                      0-0-0/w STRC(288)         1 DELETE_STMT
     0-0-0/w STRC(108)         1 DEPENDING_SIZE             0-0-0/w STRC(5472)        1 DIMS
     0-0-0/w STRC(288)         1 DIVIDE_STMT                0-0-0/w STRC(396)         1 DML_ITEM
     0-0-0/w STRC(216)         1 DML_REC                    0-0-0/w STRC(144)         1 DOEND
     0-0-0/w STRC(396)         1 DO_N                       0-0-0/w STRC(180)         1 DV4I
     0-0-0/w STRC(180)         1 ENTRY_ILL                  0-0-0/w STRC(180)         1 ETT
     0-0-0/w STRC(108)         1 EVALU                      0-0-0/w STRC(73836)       1 EVALUATE
     0-0-0/w STRC(396)         1 FD                         0-0-0/w STRC(1692)  r     1 FILE_LTS
     0-0-0/w STRC(144)         1 GO                         0-0-0/w STRC(180)   r     1 ILL
     0-0-0/w STRC              1 ILL_NO_OPS                 0-0-0/w STRC(180)   r     1 ILS
     0-0-0/w STRC(288)   r     1 ILS_LIST                   0-0-0/w STRC(108)         1 INDEXES
     0-0-0/w STRC(360)         1 INIT_LTS                   0-0-0/w STRC(288)         1 INSPECT_1_STMT
     0-0-0/w STRC(288)         1 INSPECT_2_STMT             0-0-0/w STRC(288)         1 INSPECT_4_STMT
     0-0-0/w STRC(396)         1 INTDEF                     0-0-0/w STRC(180)         1 IO_RESTORE_CHAIN
     0-0-0/w STRC(144)         1 KEY                        0-0-0/w STRC(396)         1 LABEL
     0-0-0/w STRC(288)         1 LA_ITEM                    0-0-0/w STRC(36864)       1 LCNST
     0-0-0/w STRC(108)         1 LINOI                      0-0-0/w STRC(72)          1 LONG
     0-0-0/w STRC              1 LTS                        0-0-0/w STRC(360)         1 LTSS
     0-0-0/w STRC(36936)       1 LTS_PTR_ARRAY              0-0-0/w STRC(504)         1 LX_CD_INPUT
     0-0-0/w STRC(324)         1 LX_CD_I_O                  0-0-0/w STRC(396)         1 LX_CD_OUTPUT
     0-0-0/w STRC(288)         1 LX_ETT_ITEM                0-0-0/w STRC(288)   r     1 LX_ITEM
     0-0-0/w STRC(288)         1 LX_LARGE                   0-0-0/w STRC(288)   r     1 LX_LIST
     0-0-0/w STRC(1224)        1 LX_REC_DECL                0-0-0/w STRC(864)         1 LX_REPORT_REC
     0-0-0/w STRC(288)         1 LX_TERMINAL                0-0-0/w STRC(72)          1 MFILL
     0-0-0/w STRC(396)         1 MNEMONIC                   0-0-0/w STRC(288)         1 MULTIPLY_STMT
     0-0-0/w STRC(180)         1 MULTI_GO                   0-0-0/w STRC(180)         1 MVEAL
     0-0-0/w STRC(108)         1 MVFIL                      0-0-0/w STRC(72)          1 MVIIS
     0-0-0/w STRC(144)         1 NEL                        0-0-0/w STRC(216)         1 OPEN_LTS
     0-0-0/w STRC(144)         1 OPN                        0-0-0/w STRC(180)   r     1 OS_CALL
     0-0-0/w STRC(36864)       1 PAGE                       0-0-0/w STRC(396)         1 PARA
     0-0-0/w STRC(216)         1 PFORM                      0-0-0/w STRC(144)         1 PINC
     0-0-0/w STRC(144)         1 PREOFF                     0-0-0/w STRC(108)         1 PRESET
     0-0-0/w STRC(144)         1 PRIME                      0-0-0/w STRC(396)   r     1 PROC_
     0-0-0/w STRC(396)   r     1 PROC_DEF                   0-0-0/w STRC(900)         1 PROC_SUPP
     0-0-0/w STRC(144)         1 P_A_PRESET                 0-0-0/w STRC(144)         1 P_P_PRESET
     0-0-0/w STRC(396)         1 RD                         0-0-0/w STRC(288)         1 READ_STMT
     0-0-0/w STRC(216)         1 REF                        0-0-0/w STRC(144)         1 REMEM
PL6.E3A0      #004=Z9EN$START_INDEXED File=Z9EN.:Z8A6TSI                         SAT 08/09/97 13:54 Page:213
     0-0-0/w STRC(108)         1 RENAMES                    0-0-0/w STRC(720)         1 REPORT_01_LTS
     0-0-0/w STRC(432)         1 REPORT_ELEM_LTS            0-0-0/w STRC(252)         1 REPORT_GRP_LTS
     0-0-0/w STRC(1332)        1 REPORT_LTS                 0-0-0/w STRC(288)         1 REWRITE_STMT
     0-0-0/w STRC(144)         1 RVA_LTS                    0-0-0/w STRC(396)   r     1 SCALAR
     0-0-0/w STRC(144)         1 SCOPE                      0-0-0/w STRC(396)         1 SD
     0-0-0/w STRC(216)         1 SEARCH_                    0-0-0/w STRC(396)         1 SECTION
     0-0-0/w STRC(396)         1 SEGMENT                    0-0-0/w STRC(360)         1 SEGMENT_LTS
     0-0-0/w STRC(396)         1 ST                         0-0-0/w STRC(288)         1 START_STMT
     0-0-0/w STRC(72)          1 STP2                       0-0-0/w STRC(252)         1 STRING_STMT
     0-0-0/w STRC(288)         1 SUBTRACT_STMT              0-0-0/w STRC(252)         1 SUM_LTS
     0-0-0/w STRC(396)         1 SWITCH                     0-0-0/w STRC(396)         1 SYMBOLIC_CHAR
     0-0-0/w STRC(396)         1 SYMDEF_                    0-0-0/w STRC(396)         1 SYMREF_
     0-0-0/w STRC(396)         1 TEMP                       0-0-0/w STRC(144)         1 TRINARY_ILL
     0-0-0/w STRC(72)          1 UNARY_ILL                  0-0-0/w STRC(288)         1 UNARY_OP
     0-0-0/w STRC(288)         1 UNSTRING_STMT              0-0-0/d STRC(612)         1 USE
     0-0-0/w STRC(216)         1 USER_CALL                  0-0-0/w STRC(252)         1 USE_SUPP
     0-0-0/w STRC(108)         1 VAL                        0-0-0/w STRC(108)         1 VAL_END
     0-0-0/w STRC(396)         1 VARIABLE                   0-0-0/w STRC(72)          1 WHEN
     0-0-0/w STRC(288)         1 WRITE_STMT


   Procedure Z9EN$START_INDEXED requires 394 words for executable code.
   Procedure Z9EN$START_INDEXED requires 80 words of local(AUTO) storage.

PL6.E3A0      #005=Z9EN$VERIFY_ASSIGN File=Z9EN.:Z8A6TSI                         SAT 08/09/97 13:56 Page:214
     1101        1        /*T***********************************************************/
     1102        2        /*T*                                                         */
     1103        3        /*T* Copyright (c) Bull HN Information Systems Inc., 1997    */
     1104        4        /*T*                                                         */
     1105        5        /*T***********************************************************/
     1106        6        Z9EN$VERIFY_ASSIGN : PROC (FILE_LTS$,
     1107        7                                   VERIFY_TYPE,
     1108        8                                   ERROR#,
     1109        9                                   LINE#,
     1110       10                                   COLUMN#);
     1111       11
     1112       12         /*P*
     1113       13               NAME : Z9EN$VERIFY_ASSIGN
     1114       14               PURPOSE : To check that the device the file is assigned
     1115       15                 is a mass storage device.
     1116       16         */
     1117       17
     1118       18    1     DCL FILE_LTS$   PTR;
     1119       19    1     DCL VERIFY_TYPE SBIN;
     1120       20    1     DCL ERROR#      SBIN;
     1121       21    1     DCL LINE#       SBIN;
     1122       22    1     DCL COLUMN#     SBIN;
     1123       23
     1124       24        %EQU PHASE = 1;
     1125       25        %INCLUDE Z8A_DEFC;
     1126       93        %INCLUDE Z8A_SUPP_MAC;
     1127     2493        %INCLUDE Z8A_DNT;
     1128     2714        %INCLUDE Z8A_LTS;
     1129     4791        %INCLUDE Z8A_IO_EQUS;
     1130     4914        %INCLUDE Z8A_ERR_NUMS;
     1131     5678
     1132     5679    1   DCL Z8AE$ERROR ENTRY(12);
     1133     5680
     1134     5681
     1135     5682    2   DO SELECT (FILE_LTS$ -> FILE_LTS.ASSIGN$ -> LTS_PTR_ARRAY.P$(0) -> DNT.TEXT.NAME);
     1136     5683
     1137     5684    2     SELECT(%DISK);
PL6.E3A0      #005=Z9EN$VERIFY_ASSIGN File=Z9EN.:Z8A6TSI                         SAT 08/09/97 13:56 Page:215
     1138     5685
     1139     5686    3       DO CASE(VERIFY_TYPE);
     1140     5687
     1141     5688    3         CASE(%ASSIGN_INPUT, %ASSIGN_OUTPUT, %ASSIGN_DISK);
     1142     5689    3           ; /* Okay */
     1143     5690    3         CASE(ELSE);
     1144     5691    3           CALL Z8AE$ERROR (ERROR#,
     1145     5692    3                            LINE#,
     1146     5693    3                            COLUMN#);
     1147     5694    3       END;
     1148     5695
     1149     5696    2     SELECT(%PRINTER, %PRINTER_F, %SYSOUT);
     1150     5697
     1151     5698    3       DO CASE(VERIFY_TYPE);
     1152     5699
     1153     5700    3         CASE(%ASSIGN_PRINTER, %ASSIGN_OUTPUT);
     1154     5701    3           ; /* Okay */
     1155     5702    3         CASE(ELSE);
     1156     5703    3           CALL Z8AE$ERROR (ERROR#,
     1157     5704    3                            LINE#,
     1158     5705    3                            COLUMN#);
     1159     5706    3       END;
     1160     5707
     1161     5708    2     SELECT(%SYSIN, %CARD_READER);
     1162     5709
     1163     5710    3       DO CASE(VERIFY_TYPE);
     1164     5711
     1165     5712    3         CASE(%ASSIGN_INPUT);
     1166     5713    3           ; /* Okay */
     1167     5714    3         CASE(ELSE);
     1168     5715    3           CALL Z8AE$ERROR (ERROR#,
     1169     5716    3                            LINE#,
     1170     5717    3                            COLUMN#);
     1171     5718    3       END;
     1172     5719
     1173     5720    2     SELECT(%CARD_PUNCH);
     1174     5721
PL6.E3A0      #005=Z9EN$VERIFY_ASSIGN File=Z9EN.:Z8A6TSI                         SAT 08/09/97 13:56 Page:216
     1175     5722    3       DO CASE(VERIFY_TYPE);
     1176     5723
     1177     5724    3         CASE(%ASSIGN_OUTPUT);
     1178     5725    3           ; /* Okay */
     1179     5726    3         CASE(ELSE);
     1180     5727    3           CALL Z8AE$ERROR (ERROR#,
     1181     5728    3                            LINE#,
     1182     5729    3                            COLUMN#);
     1183     5730    3       END;
     1184     5731
     1185     5732    2     SELECT(%MAGNETIC_TAPE);
     1186     5733
     1187     5734    3       DO CASE(VERIFY_TYPE);
     1188     5735
     1189     5736    3         CASE(%ASSIGN_INPUT, %ASSIGN_OUTPUT);
     1190     5737    3           ; /* Okay */
     1191     5738    3         CASE(ELSE);
     1192     5739    3           CALL Z8AE$ERROR (ERROR#,
     1193     5740    3                            LINE#,
     1194     5741    3                            COLUMN#);
     1195     5742    3       END;
     1196     5743
     1197     5744    2     SELECT(ELSE);
     1198     5745    2       CALL Z8AE$ERROR (%E$UNEXPECTED_CASE);
     1199     5746    2   END; /* DO SELECT */
     1200     5747
     1201     5748    1   END Z9EN$VERIFY_ASSIGN;
     1202     5749        %EOD;

PL6.E3A0      #005=Z9EN$VERIFY_ASSIGN File=Z9EN.:Z8A6TSI                         SAT 08/09/97 13:56 Page:217
--  Include file information  --

   Z8A_ERR_NUMS.:Z8A6TOU  is referenced.
   Z8A_IO_EQUS.:Z8A6TOU  is referenced.
   Z8A_LTS.:Z8A6TOU  cannot be made into a system file and is referenced.
   Z8A_DNT.:Z8A6TOU  cannot be made into a system file and is referenced.
   X8A_COM_MACS.:X8A6TOU  is referenced.
   Z8A_NAMES.:Z8A6TOU  is referenced.
   Z8A_SUPP_MAC.:Z8A6TOU  is referenced.
   Z8A_DEFC.:Z8A6TOU  cannot be made into a system file and is referenced.
      No diagnostics issued in procedure Z9EN$VERIFY_ASSIGN.

   Procedure Z9EN$VERIFY_ASSIGN requires 117 words for executable code.
   Procedure Z9EN$VERIFY_ASSIGN requires 8 words of local(AUTO) storage.

PL6.E3A0      #005=Z9EN$VERIFY_ASSIGN File=Z9EN.:Z8A6TSI                         SAT 08/09/97 13:56 Page:218

 Object Unit name= Z9EN$VERIFY_ASSIGN                         File name= Z9EN.:Z8A6TOU
 UTS= AUG 09 '97 13:56:30.20 SAT                              Compiler= PL-6/E31         Sev=      00
 SharedLib= :SHARED_SYSTEM                                    Alt SharedLib=


    ****  Control sections  ****

 Sect   Type Bound  Init  Size OctSiz  Section name(segment info)
    0  LblCom even  none     1      1  ITERATION
    1  LblCom even  none     1      1  DNT$
    2  LblCom even  none     5      5  DNT_
    3  LblCom even  none     1      1  DNT_BUCKET_NUMBER
    4  LblCom even  none     1      1  DNT_OF_1$
    5  LblCom even  none     1      1  LTS$
    6  LblCom even  none     5      5  LTS_
    7  RoData even  UTS     20     24  Z9EN$VERIFY_ASSIGN
    8   Proc  even  none   117    165  Z9EN$VERIFY_ASSIGN
    9  RoData even  none     4      4  Z9EN$VERIFY_ASSIGN

    ****  Entry defs  ****

                              Check   Calling
                             calling  sequence
  Sect OctLoc Primary Altret sequence   type   Parms  Name
     8      0   yes            yes      Std        5  Z9EN$VERIFY_ASSIGN

  ****  Entry refs  ****

         Check        Calling
        calling       sequence
Altret sequence SRef   type   Args  Name
         yes           Std      12 Z8AE$ERROR
                       nStd      0 X66_AUTO_5
                       nStd      0 X66_ARET
PL6.E3A0      #005=Z9EN$VERIFY_ASSIGN File=Z9EN.:Z8A6TSI                         SAT 08/09/97 13:56 Page:219

  ****  Data refs  ****

  Flags:  r = read only, s = secondary
Flgs Name                             Flgs Name                             Flgs Name
r    LTS_STEP

  ****  Segment refs  ****

  Flags:  r = read only, s = secondary
Flgs Name                             Flgs Name                             Flgs Name
     NULLSID                               ISSID
PL6.E3A0      #005=Z9EN$VERIFY_ASSIGN File=Z9EN.:Z8A6TSI                         SAT 08/09/97 13:56 Page:220


     1101        1        /*T***********************************************************/
     1102        2        /*T*                                                         */
     1103        3        /*T* Copyright (c) Bull HN Information Systems Inc., 1997    */
     1104        4        /*T*                                                         */
     1105        5        /*T***********************************************************/
     1106        6        Z9EN$VERIFY_ASSIGN : PROC (FILE_LTS$,

      6  8 000000   000000 700200 xent  Z9EN$VERIFY* TSX0  ! X66_AUTO_5
         8 000001   000010 000005                    ZERO    8,5

     1107        7                                   VERIFY_TYPE,
     1108        8                                   ERROR#,
     1109        9                                   LINE#,
     1110       10                                   COLUMN#);
     1111       11
     1112       12         /*P*
     1113       13               NAME : Z9EN$VERIFY_ASSIGN
     1114       14               PURPOSE : To check that the device the file is assigned
     1115       15                 is a mass storage device.
     1116       16         */
     1117       17
     1118       18    1     DCL FILE_LTS$   PTR;
     1119       19    1     DCL VERIFY_TYPE SBIN;
     1120       20    1     DCL ERROR#      SBIN;
     1121       21    1     DCL LINE#       SBIN;
     1122       22    1     DCL COLUMN#     SBIN;
     1123       23
     1124       24        %EQU PHASE = 1;
     1125       25        %INCLUDE Z8A_DEFC;
     1126       93        %INCLUDE Z8A_SUPP_MAC;
     1127     2493        %INCLUDE Z8A_DNT;
     1128     2714        %INCLUDE Z8A_LTS;
     1129     4791        %INCLUDE Z8A_IO_EQUS;
     1130     4914        %INCLUDE Z8A_ERR_NUMS;
     1131     5678
     1132     5679    1   DCL Z8AE$ERROR ENTRY(12);
PL6.E3A0      #005=Z9EN$VERIFY_ASSIGN File=Z9EN.:Z8A6TSI                         SAT 08/09/97 13:56 Page:221
     1133     5680
     1134     5681
     1135     5682    2   DO SELECT (FILE_LTS$ -> FILE_LTS.ASSIGN$ -> LTS_PTR_ARRAY.P$(0) -> DNT.TEXT.NAME);

   5682  8 000002   200003 470500                    LDP0    @FILE_LTS$,,AUTO
         8 000003   000000 471500                    LDP1    0,,PR0
         8 000004   100004 473500                    LDP3    4,,PR1
         8 000005   300002 474500                    LDP4    2,,PR3
         8 000006   400004 220100                    LDX0    4,,PR4
         8 000007   040000 106540                    CMPC    fill='040'O
         8 000010   400004 400010                    ADSC9   4,,PR4                   cn=2,n=*X0
         8 000011   000000 000007 7                  ADSC9   0                        cn=0,n=7
         8 000012   000033 602000 8                  TNC     s:5682+25
         8 000013   000075 600000 8                  TZE     s:5698
         8 000014   040000 106540                    CMPC    fill='040'O
         8 000015   400004 400010                    ADSC9   4,,PR4                   cn=2,n=*X0
         8 000016   000002 000005 7                  ADSC9   2                        cn=0,n=5
         8 000017   000026 602000 8                  TNC     s:5682+20
         8 000020   000112 600000 8                  TZE     s:5710
         8 000021   040000 106540                    CMPC    fill='040'O
         8 000022   400004 400010                    ADSC9   4,,PR4                   cn=2,n=*X0
         8 000023   000004 000006 7                  ADSC9   4                        cn=0,n=6
         8 000024   000160 601000 8                  TNZ     s:5745
         8 000025   000075 710000 8                  TRA     s:5698
         8 000026   040000 106540                    CMPC    fill='040'O
         8 000027   400004 400010                    ADSC9   4,,PR4                   cn=2,n=*X0
         8 000030   000006 000011 7                  ADSC9   6                        cn=0,n=9
         8 000031   000160 601000 8                  TNZ     s:5745
         8 000032   000075 710000 8                  TRA     s:5698
         8 000033   040000 106540                    CMPC    fill='040'O
         8 000034   400004 400010                    ADSC9   4,,PR4                   cn=2,n=*X0
         8 000035   000011 000013 7                  ADSC9   9                        cn=0,n=11
         8 000036   000052 602000 8                  TNC     s:5682+40
         8 000037   000112 600000 8                  TZE     s:5710
         8 000040   040000 106540                    CMPC    fill='040'O
         8 000041   400004 400010                    ADSC9   4,,PR4                   cn=2,n=*X0
         8 000042   000014 000004 7                  ADSC9   12                       cn=0,n=4
PL6.E3A0      #005=Z9EN$VERIFY_ASSIGN File=Z9EN.:Z8A6TSI                         SAT 08/09/97 13:56 Page:222
         8 000043   000160 602000 8                  TNC     s:5745
         8 000044   000057 600000 8                  TZE     s:5686
         8 000045   040000 106540                    CMPC    fill='040'O
         8 000046   400004 400010                    ADSC9   4,,PR4                   cn=2,n=*X0
         8 000047   000015 000015 7                  ADSC9   13                       cn=0,n=13
         8 000050   000160 601000 8                  TNZ     s:5745
         8 000051   000143 710000 8                  TRA     s:5734
         8 000052   040000 106540                    CMPC    fill='040'O
         8 000053   400004 400010                    ADSC9   4,,PR4                   cn=2,n=*X0
         8 000054   000021 000012 7                  ADSC9   17                       cn=0,n=10
         8 000055   000160 601000 8                  TNZ     s:5745
         8 000056   000126 710000 8                  TRA     s:5722

     1136     5683
     1137     5684    2     SELECT(%DISK);

     1138     5685
     1139     5686    3       DO CASE(VERIFY_TYPE);

   5686  8 000057   200004 475500                    LDP5    @VERIFY_TYPE,,AUTO
         8 000060   500000 235100                    LDA     0,,PR5
         8 000061   000004 115007                    CMPA    4,DL
         8 000062   000064 602005 8                  TNC     s:5686+5,AL
         8 000063   000070 710000 8                  TRA     s:5691
         8 000064   000070 710000 8                  TRA     s:5691
         8 000065   000074 710000 8                  TRA     s:5694
         8 000066   000074 710000 8                  TRA     s:5694
         8 000067   000074 710000 8                  TRA     s:5694

     1140     5687
     1141     5688    3         CASE(%ASSIGN_INPUT, %ASSIGN_OUTPUT, %ASSIGN_DISK);

     1142     5689    3           ; /* Okay */
     1143     5690    3         CASE(ELSE);

     1144     5691    3           CALL Z8AE$ERROR (ERROR#,

PL6.E3A0      #005=Z9EN$VERIFY_ASSIGN File=Z9EN.:Z8A6TSI                         SAT 08/09/97 13:56 Page:223
   5691  8 000070   200005 630500                    EPPR0   @ERROR#,,AUTO
         8 000071   000000 631400 9                  EPPR1   0
         8 000072   000000 701000 xent               TSX1    Z8AE$ERROR
         8 000073   000000 011000                    NOP     0

     1145     5692    3                            LINE#,
     1146     5693    3                            COLUMN#);
     1147     5694    3       END;

   5694  8 000074   000164 710000 8                  TRA     s:5748

     1148     5695
     1149     5696    2     SELECT(%PRINTER, %PRINTER_F, %SYSOUT);

     1150     5697
     1151     5698    3       DO CASE(VERIFY_TYPE);

   5698  8 000075   200004 475500                    LDP5    @VERIFY_TYPE,,AUTO
         8 000076   500000 235100                    LDA     0,,PR5
         8 000077   000003 115007                    CMPA    3,DL
         8 000100   000102 602005 8                  TNC     s:5698+5,AL
         8 000101   000105 710000 8                  TRA     s:5703
         8 000102   000111 710000 8                  TRA     s:5706
         8 000103   000105 710000 8                  TRA     s:5703
         8 000104   000111 710000 8                  TRA     s:5706

     1152     5699
     1153     5700    3         CASE(%ASSIGN_PRINTER, %ASSIGN_OUTPUT);

     1154     5701    3           ; /* Okay */
     1155     5702    3         CASE(ELSE);

     1156     5703    3           CALL Z8AE$ERROR (ERROR#,

   5703  8 000105   200005 630500                    EPPR0   @ERROR#,,AUTO
         8 000106   000000 631400 9                  EPPR1   0
         8 000107   000000 701000 xent               TSX1    Z8AE$ERROR
PL6.E3A0      #005=Z9EN$VERIFY_ASSIGN File=Z9EN.:Z8A6TSI                         SAT 08/09/97 13:56 Page:224
         8 000110   000000 011000                    NOP     0

     1157     5704    3                            LINE#,
     1158     5705    3                            COLUMN#);
     1159     5706    3       END;

   5706  8 000111   000164 710000 8                  TRA     s:5748

     1160     5707
     1161     5708    2     SELECT(%SYSIN, %CARD_READER);

     1162     5709
     1163     5710    3       DO CASE(VERIFY_TYPE);

   5710  8 000112   200004 475500                    LDP5    @VERIFY_TYPE,,AUTO
         8 000113   500000 235100                    LDA     0,,PR5
         8 000114   000002 115007                    CMPA    2,DL
         8 000115   000117 602005 8                  TNC     s:5710+5,AL
         8 000116   000121 710000 8                  TRA     s:5715
         8 000117   000121 710000 8                  TRA     s:5715
         8 000120   000125 710000 8                  TRA     s:5718

     1164     5711
     1165     5712    3         CASE(%ASSIGN_INPUT);

     1166     5713    3           ; /* Okay */
     1167     5714    3         CASE(ELSE);

     1168     5715    3           CALL Z8AE$ERROR (ERROR#,

   5715  8 000121   200005 630500                    EPPR0   @ERROR#,,AUTO
         8 000122   000000 631400 9                  EPPR1   0
         8 000123   000000 701000 xent               TSX1    Z8AE$ERROR
         8 000124   000000 011000                    NOP     0

     1169     5716    3                            LINE#,
     1170     5717    3                            COLUMN#);
PL6.E3A0      #005=Z9EN$VERIFY_ASSIGN File=Z9EN.:Z8A6TSI                         SAT 08/09/97 13:56 Page:225
     1171     5718    3       END;

   5718  8 000125   000164 710000 8                  TRA     s:5748

     1172     5719
     1173     5720    2     SELECT(%CARD_PUNCH);

     1174     5721
     1175     5722    3       DO CASE(VERIFY_TYPE);

   5722  8 000126   200004 475500                    LDP5    @VERIFY_TYPE,,AUTO
         8 000127   500000 235100                    LDA     0,,PR5
         8 000130   000003 115007                    CMPA    3,DL
         8 000131   000133 602005 8                  TNC     s:5722+5,AL
         8 000132   000136 710000 8                  TRA     s:5727
         8 000133   000136 710000 8                  TRA     s:5727
         8 000134   000136 710000 8                  TRA     s:5727
         8 000135   000142 710000 8                  TRA     s:5730

     1176     5723
     1177     5724    3         CASE(%ASSIGN_OUTPUT);

     1178     5725    3           ; /* Okay */
     1179     5726    3         CASE(ELSE);

     1180     5727    3           CALL Z8AE$ERROR (ERROR#,

   5727  8 000136   200005 630500                    EPPR0   @ERROR#,,AUTO
         8 000137   000000 631400 9                  EPPR1   0
         8 000140   000000 701000 xent               TSX1    Z8AE$ERROR
         8 000141   000000 011000                    NOP     0

     1181     5728    3                            LINE#,
     1182     5729    3                            COLUMN#);
     1183     5730    3       END;

   5730  8 000142   000164 710000 8                  TRA     s:5748
PL6.E3A0      #005=Z9EN$VERIFY_ASSIGN File=Z9EN.:Z8A6TSI                         SAT 08/09/97 13:56 Page:226

     1184     5731
     1185     5732    2     SELECT(%MAGNETIC_TAPE);

     1186     5733
     1187     5734    3       DO CASE(VERIFY_TYPE);

   5734  8 000143   200004 475500                    LDP5    @VERIFY_TYPE,,AUTO
         8 000144   500000 235100                    LDA     0,,PR5
         8 000145   000003 115007                    CMPA    3,DL
         8 000146   000150 602005 8                  TNC     s:5734+5,AL
         8 000147   000153 710000 8                  TRA     s:5739
         8 000150   000153 710000 8                  TRA     s:5739
         8 000151   000157 710000 8                  TRA     s:5742
         8 000152   000157 710000 8                  TRA     s:5742

     1188     5735
     1189     5736    3         CASE(%ASSIGN_INPUT, %ASSIGN_OUTPUT);

     1190     5737    3           ; /* Okay */
     1191     5738    3         CASE(ELSE);

     1192     5739    3           CALL Z8AE$ERROR (ERROR#,

   5739  8 000153   200005 630500                    EPPR0   @ERROR#,,AUTO
         8 000154   000000 631400 9                  EPPR1   0
         8 000155   000000 701000 xent               TSX1    Z8AE$ERROR
         8 000156   000000 011000                    NOP     0

     1193     5740    3                            LINE#,
     1194     5741    3                            COLUMN#);
     1195     5742    3       END;

   5742  8 000157   000164 710000 8                  TRA     s:5748

     1196     5743
     1197     5744    2     SELECT(ELSE);
PL6.E3A0      #005=Z9EN$VERIFY_ASSIGN File=Z9EN.:Z8A6TSI                         SAT 08/09/97 13:56 Page:227

     1198     5745    2       CALL Z8AE$ERROR (%E$UNEXPECTED_CASE);

   5745  8 000160   000003 630400 9                  EPPR0   3
         8 000161   000001 631400 9                  EPPR1   1
         8 000162   000000 701000 xent               TSX1    Z8AE$ERROR
         8 000163   000000 011000                    NOP     0

     1199     5746    2   END; /* DO SELECT */

     1200     5747
     1201     5748    1   END Z9EN$VERIFY_ASSIGN;

   5748  8 000164   000000 702200 xent               TSX2  ! X66_ARET
     1202     5749        %EOD;

PL6.E3A0      #005=Z9EN$VERIFY_ASSIGN File=Z9EN.:Z8A6TSI                         SAT 08/09/97 13:56 Page:228
--  Include file information  --

   Z8A_ERR_NUMS.:Z8A6TOU  is referenced.
   Z8A_IO_EQUS.:Z8A6TOU  is referenced.
   Z8A_LTS.:Z8A6TOU  cannot be made into a system file and is referenced.
   Z8A_DNT.:Z8A6TOU  cannot be made into a system file and is referenced.
   X8A_COM_MACS.:X8A6TOU  is referenced.
   Z8A_NAMES.:Z8A6TOU  is referenced.
   Z8A_SUPP_MAC.:Z8A6TOU  is referenced.
   Z8A_DEFC.:Z8A6TOU  cannot be made into a system file and is referenced.
      No diagnostics issued in procedure Z9EN$VERIFY_ASSIGN.
PL6.E3A0      #005=Z9EN$VERIFY_ASSIGN File=Z9EN.:Z8A6TSI                         SAT 08/09/97 13:56 Page:229

 **** Variables and constants ****

  ****  Section 000 LblCom ITERATION

  ****  Scalars and arrays  ****
OctLoc.c.b A Datatyp(siz) R M Lvl/name                 OctLoc.c.b A Datatyp(siz) R M Lvl/name

     0-0-0/w SBIN              1 ITERATION

  ****  Section 001 LblCom DNT$

  ****  Scalars and arrays  ****
OctLoc.c.b A Datatyp(siz) R M Lvl/name                 OctLoc.c.b A Datatyp(siz) R M Lvl/name

     0-0-0/w PTR         r     1 DNT$

  ****  Section 002 LblCom DNT_

  ****  Scalars and arrays  ****
OctLoc.c.b A Datatyp(siz) R M Lvl/name                 OctLoc.c.b A Datatyp(siz) R M Lvl/name

     0-0-0/w STRC(180)         1 DNT_

  ****  Section 003 LblCom DNT_BUCKET_NUMBER

  ****  Scalars and arrays  ****
OctLoc.c.b A Datatyp(siz) R M Lvl/name                 OctLoc.c.b A Datatyp(siz) R M Lvl/name

     0-0-0/w UBIN              1 DNT_BUCKET_NUMBER

  ****  Section 004 LblCom DNT_OF_1$

  ****  Scalars and arrays  ****
OctLoc.c.b A Datatyp(siz) R M Lvl/name                 OctLoc.c.b A Datatyp(siz) R M Lvl/name

     0-0-0/w PTR               1 DNT_OF_1$

PL6.E3A0      #005=Z9EN$VERIFY_ASSIGN File=Z9EN.:Z8A6TSI                         SAT 08/09/97 13:56 Page:230
  ****  Section 005 LblCom LTS$

  ****  Scalars and arrays  ****
OctLoc.c.b A Datatyp(siz) R M Lvl/name                 OctLoc.c.b A Datatyp(siz) R M Lvl/name

     0-0-0/w PTR               1 LONG_ITEM$                 0-0-0/w PTR         r     1 LTS$

  ****  Section 006 LblCom LTS_

  ****  Scalars and arrays  ****
OctLoc.c.b A Datatyp(siz) R M Lvl/name                 OctLoc.c.b A Datatyp(siz) R M Lvl/name

     0-0-0/w STRC(180)         1 LTS_

  ****  Auto variables  ****

  ****  Scalars and arrays  ****
OctLoc.c.b A Datatyp(siz) R M Lvl/name                 OctLoc.c.b A Datatyp(siz) R M Lvl/name

     7-0-0/w PTR         r     1 @COLUMN#                   5-0-0/w PTR         r     1 @ERROR#
     3-0-0/w PTR         r     1 @FILE_LTS$                 6-0-0/w PTR         r     1 @LINE#
     4-0-0/w PTR         r     1 @VERIFY_TYPE              *0-0-0/w SBIN        r     1 COLUMN#
    *0-0-0/w SBIN        r     1 ERROR#                    *0-0-0/w PTR         r     1 FILE_LTS$
    *0-0-0/w SBIN        r     1 LINE#                     *0-0-0/w SBIN        r     1 VERIFY_TYPE

  ****  SYMREF variables  ****

  ****  Scalars and arrays  ****
OctLoc.c.b A Datatyp(siz) R M Lvl/name                 OctLoc.c.b A Datatyp(siz) R M Lvl/name

     0-0-0/w UBIN              1 LTS_STEP(0:37)

  ****  BASED and DCB variables  ****

  ****  Scalars and arrays  ****
OctLoc.c.b A Datatyp(siz) R M Lvl/name                 OctLoc.c.b A Datatyp(siz) R M Lvl/name

PL6.E3A0      #005=Z9EN$VERIFY_ASSIGN File=Z9EN.:Z8A6TSI                         SAT 08/09/97 13:56 Page:231
     0-0-0/w STRC(144)         1 ALTER_LTS                  0-0-0/w STRC(3672)        1 ALT_KEY
     0-0-0/w STRC(36864)       1 ARGLIST                    0-0-0/w STRC(180)         1 ARRAY_PRESET_LTS
     0-0-0/w STRC(288)         1 BASE_LTS                   0-0-0/w STRC(144)         1 BT
     0-0-0/w STRC(288)         1 CD_LTS                     0-0-0/w CHAR(4096)        1 CHARS
     0-0-0/w STRC(72)          1 CONT                       0-0-0/w STRC(540)         1 CONTROL_NAME_LTS
     0-0-0/w STRC(1872)        1 COPY_FILE                  0-0-0/w STRC(108)         1 DEPENDING_SIZE
     0-0-0/w STRC(5472)        1 DIMS                       0-0-0/w STRC(216)         1 DML_REC
     0-0-0/w ASTR(180)   r     1 DNT                        0-0-0/w STRC(73836)       1 EVALUATE
     0-0-0/w STRC(1692)  r     1 FILE_LTS                   0-0-0/w STRC(108)         1 INDEXES
     0-0-0/w STRC(360)         1 INIT_LTS                   0-0-0/w STRC(180)         1 IO_RESTORE_CHAIN
     0-0-0/w STRC(144)         1 KEY                        0-0-0/w STRC(36864)       1 LCNST
     0-0-0/w STRC(72)          1 LONG                       0-0-0/w STRC              1 LTS
     0-0-0/w STRC(360)         1 LTSS                       0-0-0/w STRC(36936) r     1 LTS_PTR_ARRAY
     0-0-0/w STRC(144)         1 NEL                        0-0-0/w STRC(216)         1 OPEN_LTS
     0-0-0/w STRC(36864)       1 PAGE                       0-0-0/w STRC(144)         1 PRIME
     0-0-0/w STRC(900)         1 PROC_SUPP                  0-0-0/w STRC(216)         1 REF
     0-0-0/w STRC(108)         1 RENAMES                    0-0-0/w STRC(720)         1 REPORT_01_LTS
     0-0-0/w STRC(432)         1 REPORT_ELEM_LTS            0-0-0/w STRC(252)         1 REPORT_GRP_LTS
     0-0-0/w STRC(1332)        1 REPORT_LTS                 0-0-0/w STRC(144)         1 RVA_LTS
     0-0-0/w STRC(360)         1 SEGMENT_LTS                0-0-0/w STRC(252)         1 SUM_LTS
     0-0-0/d STRC(612)         1 USE                        0-0-0/w STRC(252)         1 USE_SUPP


   Procedure Z9EN$VERIFY_ASSIGN requires 117 words for executable code.
   Procedure Z9EN$VERIFY_ASSIGN requires 8 words of local(AUTO) storage.

