VERSION A06

PL6.E3A0      #001=Z9EN$OPEN_FILE File=Z9EN.:Z8A6TSI                             SAT 08/09/97 13:46 Page:1
        1        1        /*M* Z9EN -- System dependant (CP6) I/O setup routines */
        2        2        /*T***********************************************************/
        3        3        /*T*                                                         */
        4        4        /*T* Copyright (c) Bull HN Information Systems Inc., 1997    */
        5        5        /*T*                                                         */
        6        6        /*T***********************************************************/
        7        7
        8        8        /*------------*/
        9        9        Z9EN$OPEN_FILE:        PROC  (FILE$, OPEN_CLOSE_TYPE);
       10       10        /*------------*/
       11       11
       12       12         /*P*
       13       13               NAME : Z9EN$OPEN_FILE
       14       14               PURPOSE : To create ILL for the OPEN <open_type> <file_name>
       15       15                 statement.
       16       16         */
       17       17
       18       18    1     DCL FILE$           PTR;  /* To LX_ETT_ITEM for file */
       19       19    1     DCL OPEN_CLOSE_TYPE SBIN WORD;
       20       20
       21       21        %EQU PHASE = 1;
       22       22        %INCLUDE Z8A_DEFC;
       23       90        %INCLUDE Z9A_FLAGS;
       24      104        %INCLUDE Z8A_SUPP_MAC;
       25     2504        %INCLUDE Z8E_STACKS;
       26     4770        %INCLUDE Z8A_ST;
       27     8429        %INCLUDE Z8A_ETT;
       28     8730        %INCLUDE Z8A_ILL;
       29     9423        %INCLUDE Z8A_TYPES;
       30     9597        %INCLUDE Z8E_O1COM;
       31    10358        %INCLUDE Z8E_MACROS;
       32    11033        %INCLUDE Z8A_LTS;
       33    13110        %INCLUDE Z8E_ABSSYN;
       34    13316        %INCLUDE Z8A_LIBRARY;
       35    13530        %INCLUDE Z8A_ERR_NUMS;
       36    14294        %INCLUDE Z8A_COMCOM;
       37    14944        %INCLUDE X9A_IO;
PL6.E3A0      #001=Z9EN$OPEN_FILE File=Z9EN.:Z8A6TSI                             SAT 08/09/97 13:46 Page:2
       38    15094        %INCLUDE Z8A_IO_EQUS;                                      /*#42918*/
       39    15217
       40    15218    1   DCL Z9EY$BUILD_RUNTIME_DESCRIPTOR  ENTRY(3);
       41    15219    1   DCL Z8EY$BUILD_RUNTIME_ARGLIST     ENTRY(3);
       42    15220    1   DCL Z8EU$CREATE_IDENTIFIER_FROM_ST ENTRY(4);
       43    15221    1   DCL Z8AC$LX_ETT_ITEM_TYI_CONST     ENTRY(2);
       44    15222    1   DCL Z9EN$VERIFY_ASSIGN             ENTRY(5);
       45    15223    1   DCL Z9EN$CREATE_MOVE               ENTRY(4);                /*#42918*/
       46    15224    1   DCL Z8AE$ERROR                     ENTRY(12);
       47    15225
       48    15226          %DCL_AUTO_LX_ITEM (@NAME = FAB);
       49    15230          %DCL_AUTO_LX_ITEM (@NAME = OTYPE);
       50    15234          %DCL_AUTO_LX_ITEM (@NAME = PLIST);
       51    15238
       52    15239    1     DCL RT_DESC_LIST$ PTR;
       53    15240    1     DCL RT_ARG_LIST$  PTR;
       54    15241    1     DCL FILE_LTS$     PTR;
       55    15242        %EJECT;
PL6.E3A0      #001=Z9EN$OPEN_FILE File=Z9EN.:Z8A6TSI                             SAT 08/09/97 13:46 Page:3
       56    15243    1     OPEN_CLOSE_COMMON : PROC (OPEN_CLOSE_OP_CODE);
       57    15244
       58    15245    2       DCL OPEN_CLOSE_OP_CODE SBIN;
       59    15246
       60    15247
       61    15248    2       IF NOT FILE$ -> LX_ETT_ITEM.B.ERROR THEN
       62    15249    3         DO;
       63    15250
       64    15251    3           IF FILE_LTS$ -> FILE_LTS.FILE_STATUS$ ~= ADDR(NIL) AND /*#42918*/
       65    15252    3               FILE_LTS$ -> FILE_LTS.FILE_STATUS$ -> SCALAR.B.LINKAGE THEN
       66    15253    3             CALL Z9EN$CREATE_MOVE( FILE_LTS$ -> FILE_LTS.FILE_STATUS$,
       67    15254    3                                    O1COM.CURRENT_PROC$ -> PROC_.PROC_DEF$ -> PROC_DEF.
             15254                                             ARGLIST$,
       68    15255    3                                    %FILE_STATUS_OFF,
       69    15256    3                                    FILE_LTS$ );
       70    15257
       71    15258    3           CALL Z8EU$CREATE_IDENTIFIER_FROM_ST
       72    15259    3                    (FILE_LTS$ -> FILE_LTS.FAB$,
       73    15260    3                     ADDR(FAB));
       74    15261
       75    15262    3           CALL Z8AC$LX_ETT_ITEM_TYI_CONST (OPEN_CLOSE_TYPE,
       76    15263    3                                            ADDR(OTYPE));
       77    15264
       78    15265                %INIT_LX_LIST (@POINTER = "ADDR(PLIST)");
       79    15275
       80    15276                %ADD_LX_ITEM_TO_LIST_HEAD (@FROM$ = "ADDR(FAB)",
       81    15277                                           @LIST$ = "ADDR(PLIST)");
       82    15286
       83    15287                %ADD_LX_ITEM_TO_LIST_TAIL (@FROM$ = "ADDR(OTYPE)",
       84    15288                                           @LIST$ = "ADDR(PLIST)");
       85    15304
       86    15305    3           CALL Z9EY$BUILD_RUNTIME_DESCRIPTOR (ADDR(PLIST) -> LX_LIST.HEAD$,
       87    15306    3                                               RT_DESC_LIST$,
       88    15307    3                                               2);
       89    15308
       90    15309    3           CALL Z8EY$BUILD_RUNTIME_ARGLIST (ADDR(PLIST) -> LX_LIST.HEAD$,
       91    15310    3                                            RT_ARG_LIST$,
PL6.E3A0      #001=Z9EN$OPEN_FILE File=Z9EN.:Z8A6TSI                             SAT 08/09/97 13:46 Page:4
       92    15311    3                                            2);
       93    15312
       94    15313                %NEW_ILL (@ID = %OS_CALL,
       95    15314                          @CODE = OPEN_CLOSE_OP_CODE,
       96    15315                          @ROP = RT_DESC_LIST$,
       97    15316                          @LOP = RT_ARG_LIST$);
       98    15695    3         END;
       99    15696
      100    15697    2     END OPEN_CLOSE_COMMON;
      101    15698         %EJECT;
PL6.E3A0      #001=Z9EN$OPEN_FILE File=Z9EN.:Z8A6TSI                             SAT 08/09/97 13:46 Page:5
      102    15699        /* Main body of OPEN_FILE */
      103    15700
      104    15701
      105    15702    1     IF COMCOM.OB.FIPS.LEVEL >= %INT_LEV THEN
      106    15703    2       DO CASE (OPEN_CLOSE_TYPE);
      107    15704    2         CASE (%OPEN_INPUT_NO_REWIND, %OPEN_OUTPUT_NO_REWIND, %OPEN_EXTEND);
      108    15705    2           CALL Z8AE$ERROR (%E$LEVEL_CHECK,
      109    15706    2                            O1COM.LINE_NO,
      110    15707    2                            O1COM.COLUMN_NO);
      111    15708    2       END;
      112    15709
      113    15710    1     IF NOT FILE$ -> LX_ETT_ITEM.B.ERROR THEN
      114    15711    2       DO;
      115    15712              %FISH (TRIAD = FILE$ -> LX_ETT_ITEM.ETT$,
      116    15713                     RTN = ST$);
      117    15721
      118    15722              %GET_LTS (@ID = %FILE_LTS,
      119    15723                        @ST$ = ST$,
      120    15724                        @RETURN$ = FILE_LTS$);
      121    15767
      122    15768    3         DO CASE( FILE_LTS$ -> FILE_LTS.ORGANIZATION );       /*#42918*/
      123    15769
      124    15770    3           CASE(
      125    15771                      %SET_OF_SEQUENTIAL_ORGANIZATION;
      126    15779    3                );
      127    15780
      128    15781    3             IF OPEN_CLOSE_TYPE = %OPEN_OUTPUT OR
      129    15782    3                 OPEN_CLOSE_TYPE = %OPEN_OUTPUT_NO_REWIND OR
      130    15783    3                 OPEN_CLOSE_TYPE = %OPEN_EXTEND THEN
      131    15784    4               DO;
      132    15785    4                 IF FILE_LTS$ -> FILE_LTS.LINAGE.NO_OF_LINES$ ~= ADDR(NIL) AND
      133    15786    4                     FILE_LTS$ -> FILE_LTS.LINAGE.NO_OF_LINES$ -> SCALAR.B.LINKAGE THEN
      134    15787    4                   CALL Z9EN$CREATE_MOVE( FILE_LTS$ -> FILE_LTS.LINAGE.NO_OF_LINES$,
      135    15788    4                                          O1COM.CURRENT_PROC$ -> PROC_.PROC_DEF$ ->
             15788                                                   PROC_DEF.ARGLIST$,
      136    15789    4                                          %LINAGE_LINES_OFF,
      137    15790    4                                          FILE_LTS$ );
PL6.E3A0      #001=Z9EN$OPEN_FILE File=Z9EN.:Z8A6TSI                             SAT 08/09/97 13:46 Page:6
      138    15791    4                 IF FILE_LTS$ -> FILE_LTS.LINAGE.FOOTING$ ~= ADDR(NIL) AND
      139    15792    4                     FILE_LTS$ -> FILE_LTS.LINAGE.FOOTING$ -> SCALAR.B.LINKAGE THEN
      140    15793    4                   CALL Z9EN$CREATE_MOVE( FILE_LTS$ -> FILE_LTS.LINAGE.FOOTING$,
      141    15794    4                                          O1COM.CURRENT_PROC$ -> PROC_.PROC_DEF$ ->
             15794                                                   PROC_DEF.ARGLIST$,
      142    15795    4                                          %FOOTING_OFF,
      143    15796    4                                          FILE_LTS$ );
      144    15797    4                 IF FILE_LTS$ -> FILE_LTS.LINAGE.TOP$ ~= ADDR(NIL) AND
      145    15798    4                     FILE_LTS$ -> FILE_LTS.LINAGE.TOP$ -> SCALAR.B.LINKAGE THEN
      146    15799    4                   CALL Z9EN$CREATE_MOVE( FILE_LTS$ -> FILE_LTS.LINAGE.TOP$,
      147    15800    4                                          O1COM.CURRENT_PROC$ -> PROC_.PROC_DEF$ ->
             15800                                                   PROC_DEF.ARGLIST$,
      148    15801    4                                          %TOP_OFF,
      149    15802    4                                          FILE_LTS$ );
      150    15803    4                 IF FILE_LTS$ -> FILE_LTS.LINAGE.BOTTOM$ ~= ADDR(NIL) AND
      151    15804    4                     FILE_LTS$ -> FILE_LTS.LINAGE.BOTTOM$ -> SCALAR.B.LINKAGE THEN
      152    15805    4                   CALL Z9EN$CREATE_MOVE( FILE_LTS$ -> FILE_LTS.LINAGE.BOTTOM$,
      153    15806    4                                          O1COM.CURRENT_PROC$ -> PROC_.PROC_DEF$ ->
             15806                                                   PROC_DEF.ARGLIST$,
      154    15807    4                                          %BOTTOM_OFF,
      155    15808    4                                          FILE_LTS$ );
      156    15809    4               END;
      157    15810
      158    15811    3           CASE(
      159    15812                      %SET_OF_RELATIVE_ORGANIZATION;
      160    15816    3                );
      161    15817
      162    15818    3             IF ( OPEN_CLOSE_TYPE = %OPEN_EXTEND OR
      163    15819    3                  OPEN_CLOSE_TYPE = %OPEN_OUTPUT) AND
      164    15820    3                 FILE_LTS$ -> FILE_LTS.RELATIVE_KEY$ ~= ADDR(NIL) AND
      165    15821    3                 FILE_LTS$ -> FILE_LTS.RELATIVE_KEY$ -> SCALAR.B.LINKAGE THEN
      166    15822    3               CALL Z9EN$CREATE_MOVE( FILE_LTS$ -> FILE_LTS.RELATIVE_KEY$,
      167    15823    3                                      O1COM.CURRENT_PROC$ -> PROC_.PROC_DEF$ ->
             15823                                               PROC_DEF.ARGLIST$,
      168    15824    3                                      %RELATIVE_KEY_OFF,
      169    15825    3                                      FILE_LTS$ );
      170    15826    3         END; /* CASE */
PL6.E3A0      #001=Z9EN$OPEN_FILE File=Z9EN.:Z8A6TSI                             SAT 08/09/97 13:46 Page:7
      171    15827    2       END;
      172    15828    1     CALL OPEN_CLOSE_COMMON (%OP_OPEN);
      173    15829
      174    15830    1     IF NOT FILE$ -> LX_ETT_ITEM.B.ERROR THEN
      175    15831    2       DO CASE(OPEN_CLOSE_TYPE);
      176    15832
      177    15833    2         CASE(%OPEN_INPUT, %OPEN_INPUT_NO_REWIND);
      178    15834
      179    15835    2           IF FILE_LTS$ -> FILE_LTS.REPORT$ ~= ADDR(NIL) THEN
      180    15836    2             IF FILE_LTS$ -> FILE_LTS.REPORT$ -> REPORT_LTS.ST$ ~= ADDR(NIL) THEN
      181    15837    2               CALL Z8AE$ERROR (%E$OPEN_ERR_FOR_REPORT_FILE,
      182    15838    2                                FILE$ -> LX_ETT_ITEM.LINE,
      183    15839    2                                FILE$ -> LX_ETT_ITEM.COLUMN);
      184    15840
      185    15841    2           CALL Z9EN$VERIFY_ASSIGN (FILE_LTS$,
      186    15842    2                                    %ASSIGN_INPUT,
      187    15843    2                                    %E$ASSIGN_OPEN_INPUT,
      188    15844    2                                    FILE$ -> LX_ETT_ITEM.LINE,
      189    15845    2                                    FILE$ -> LX_ETT_ITEM.COLUMN);
      190    15846
      191    15847    2         CASE(%OPEN_OUTPUT, %OPEN_OUTPUT_NO_REWIND);
      192    15848
      193    15849    2           IF FILE_LTS$ -> FILE_LTS.B.OPTIONAL_FILE THEN
      194    15850    2             CALL Z8AE$ERROR (%E$OPEN_OPTIONAL_OUTPUT,
      195    15851    2                              FILE$ -> LX_ETT_ITEM.LINE,
      196    15852    2                              FILE$ -> LX_ETT_ITEM.COLUMN);
      197    15853
      198    15854    2           CALL Z9EN$VERIFY_ASSIGN (FILE_LTS$,
      199    15855    2                                    %ASSIGN_OUTPUT,
      200    15856    2                                    %E$ASSIGN_OPEN_OUTPUT,
      201    15857    2                                    FILE$ -> LX_ETT_ITEM.LINE,
      202    15858    2                                    FILE$ -> LX_ETT_ITEM.COLUMN);
      203    15859
      204    15860    2         CASE(%OPEN_I_O);
      205    15861
      206    15862    2           IF FILE_LTS$ -> FILE_LTS.REPORT$ ~= ADDR(NIL) THEN
      207    15863    2             IF FILE_LTS$ -> FILE_LTS.REPORT$ -> REPORT_LTS.ST$ ~= ADDR(NIL) THEN
PL6.E3A0      #001=Z9EN$OPEN_FILE File=Z9EN.:Z8A6TSI                             SAT 08/09/97 13:46 Page:8
      208    15864    2               CALL Z8AE$ERROR (%E$OPEN_ERR_FOR_REPORT_FILE,
      209    15865    2                                FILE$ -> LX_ETT_ITEM.LINE,
      210    15866    2                                FILE$ -> LX_ETT_ITEM.COLUMN);
      211    15867
      212    15868    2           CALL Z9EN$VERIFY_ASSIGN (FILE_LTS$,
      213    15869    2                                    %ASSIGN_DISK,
      214    15870    2                                    %E$ASSIGN_OPEN_IO,
      215    15871    2                                    FILE$ -> LX_ETT_ITEM.LINE,
      216    15872    2                                    FILE$ -> LX_ETT_ITEM.COLUMN);
      217    15873
      218    15874
      219    15875    2         CASE(%OPEN_EXTEND);
      220    15876
      221    15877    2           CALL Z9EN$VERIFY_ASSIGN (FILE_LTS$,
      222    15878    2                                    %ASSIGN_OUTPUT,
      223    15879    2                                    %E$ASSIGN_OPEN_EXTEND,
      224    15880    2                                    FILE$ -> LX_ETT_ITEM.LINE,
      225    15881    2                                    FILE$ -> LX_ETT_ITEM.COLUMN);
      226    15882    2       END;
      227    15883
      228    15884
      229    15885    1     RETURN;
      230    15886        %EJECT;
PL6.E3A0      #001=Z9EN$OPEN_FILE File=Z9EN.:Z8A6TSI                             SAT 08/09/97 13:46 Page:9
      231    15887    1   Z9EN$CLOSE_FILE : ENTRY (FILE$,
      232    15888    1                           OPEN_CLOSE_TYPE);
      233    15889
      234    15890    1     IF COMCOM.OB.FIPS.LEVEL >= %INT_LEV THEN
      235    15891    2       DO CASE (OPEN_CLOSE_TYPE);
      236    15892    2         CASE (%CLOSE_LOCK, %CLOSE_NO_REWIND, %CLOSE_REEL_REMOVAL, %CLOSE_UNIT_REMOVAL)
             15892                  ;
      237    15893    2           CALL Z8AE$ERROR (%E$LEVEL_CHECK,
      238    15894    2                            O1COM.LINE_NO,
      239    15895    2                            O1COM.COLUMN_NO);
      240    15896    2       END;
      241    15897
      242    15898    1     IF NOT FILE$ -> LX_ETT_ITEM.B.ERROR THEN                 /*#42918*/
      243    15899    2       DO;
      244    15900              %FISH (TRIAD = FILE$ -> LX_ETT_ITEM.ETT$,
      245    15901                     RTN = ST$);
      246    15909
      247    15910              %GET_LTS (@ID = %FILE_LTS,
      248    15911                        @ST$ = ST$,
      249    15912                        @RETURN$ = FILE_LTS$);
      250    15955    2       END;
      251    15956
      252    15957    1     CALL OPEN_CLOSE_COMMON (%OP_CLOSE);
      253    15958
      254    15959    1     RETURN;
      255    15960
      256    15961
      257    15962    1   END Z9EN$OPEN_FILE;
      258    15963        %EOD;

PL6.E3A0      #001=Z9EN$OPEN_FILE File=Z9EN.:Z8A6TSI                             SAT 08/09/97 13:46 Page:10
--  Include file information  --

   Z8A_IO_EQUS.:Z8A6TOU  is referenced.
   X9A_IO.:X8A6TOU  is referenced.
   Z8A_COMCOM.:Z8A6TOU  cannot be made into a system file and is referenced.
   Z8A_ERR_NUMS.:Z8A6TOU  is referenced.
   Z8A_LIBRARY.:Z8A6TOU  cannot be made into a system file and is referenced.
   Z8E_ABSSYN.:Z8A6TOU  cannot be made into a system file and is referenced.
   Z8A_LTS.:Z8A6TOU  cannot be made into a system file and is referenced.
   Z8E_NEW_ILL.:Z8A6TOU  is referenced.
   Z8E_MACROS.:Z8A6TOU  cannot be made into a system file and is referenced.
   Z8E_O1COM.:Z8A6TOU  cannot be made into a system file and is referenced.
   Z8A_TYPES.:Z8A6TOU  is referenced.
   Z8A_ILL.:Z8A6TOU  cannot be made into a system file and is referenced.
   Z8A_ETT.:Z8A6TOU  cannot be made into a system file and is referenced.
   Z8A_ST.:Z8A6TOU  cannot be made into a system file and is referenced.
   Z8A_LEX_SYMB.:Z8A6TOU  cannot be made into a system file and is referenced.
   Z8E_STACKS.:Z8A6TOU  cannot be made into a system file and is referenced.
   X8A_COM_MACS.:X8A6TOU  is referenced.
   Z8A_NAMES.:Z8A6TOU  is referenced.
   Z8A_SUPP_MAC.:Z8A6TOU  is referenced.
   Z9A_FLAGS.:Z8A6TOU  is referenced.
   Z8A_DEFC.:Z8A6TOU  cannot be made into a system file and is referenced.
      No diagnostics issued in procedure Z9EN$OPEN_FILE.

   Procedure Z9EN$OPEN_FILE requires 538 words for executable code.
   Procedure Z9EN$OPEN_FILE requires 50 words of local(AUTO) storage.

PL6.E3A0      #001=Z9EN$OPEN_FILE File=Z9EN.:Z8A6TSI                             SAT 08/09/97 13:46 Page:11

 Object Unit name= Z9EN$OPEN_FILE                             File name= Z9EN.:Z8A6TOU
 UTS= AUG 09 '97 13:46:50.24 SAT                              Compiler= PL-6/E31         Sev=      00
 SharedLib= :SHARED_SYSTEM                                    Alt SharedLib=


    ****  Control sections  ****

 Sect   Type Bound  Init  Size OctSiz  Section name(segment info)
    0  LblCom even  none     1      1  ITERATION
    1  LblCom even  none    90    132  LEX_SYMBOL
    2  LblCom even  none     1      1  CURRENT_LEX_SYMBOL$
    3  LblCom even  none    90    132  TEMP_LEX_SYMBOL
    4  LblCom even  none    90    132  TEMP_LEX_SYMBOL2
    5  LblCom even  none     1      1  ST$
    6  LblCom even  none     5      5  ST_
    7  LblCom even  none     1      1  ETT$
    8  LblCom even  none     1      1  HEAD_ETT$
    9  LblCom even  none   512   1000  ETT_BUCKETS
   10  LblCom even  none     5      5  ETT_
   11  LblCom even  none     1      1  ILL$
   12  LblCom even  none     5      5  ILL_
   13  LblCom even  none     1      1  LTS$
   14  LblCom even  none     5      5  LTS_
   15  LblCom even  none     8     10  TEMP_LX_NODE
   16   Proc  even  none   538   1032  Z9EN$OPEN_FILE
   17  RoData even  none    49     61  Z9EN$OPEN_FILE

    ****  Entry defs  ****

                              Check   Calling
                             calling  sequence
  Sect OctLoc Primary Altret sequence   type   Parms  Name
    16      0   yes            yes      Std        2  Z9EN$OPEN_FILE
    16    731                  yes      Std        2  Z9EN$CLOSE_FILE
PL6.E3A0      #001=Z9EN$OPEN_FILE File=Z9EN.:Z8A6TSI                             SAT 08/09/97 13:46 Page:12

  ****  Entry refs  ****

         Check        Calling
        calling       sequence
Altret sequence SRef   type   Args  Name
         yes           Std      12 Z8AE$ERROR
         yes           Std       4 Z9EN$CREATE_MOVE
         yes           Std       5 Z9EN$VERIFY_ASSIGN
         yes           Std       4 Z8EU$CREATE_IDENTIFIER_FROM_ST
         yes           Std       4 Z8AN$NEW_ILL
         yes           Std       3 Z9EY$BUILD_RUNTIME_DESCRIPTOR
         yes           Std       3 Z8EY$BUILD_RUNTIME_ARGLIST
         yes           Std       2 Z8AC$LX_ETT_ITEM_TYI_CONST
                       nStd      0 X66_AUTO_2
                       nStd      0 X66_ARET

  ****  Data refs  ****

  Flags:  r = read only, s = secondary
Flgs Name                             Flgs Name                             Flgs Name
r    ILL_STEP                              O1COM                                 HIER_STK_PTR
     HIER_STK                              PAGE_FORMAT                           REP_STK_PTR
     REP_STK                          r    LTS_STEP                              COMCOM

  ****  Segment refs  ****

  Flags:  r = read only, s = secondary
Flgs Name                             Flgs Name                             Flgs Name
     ISSID                                 NULLSID
PL6.E3A0      #001=Z9EN$OPEN_FILE File=Z9EN.:Z8A6TSI                             SAT 08/09/97 13:46 Page:13


        1        1        /*M* Z9EN -- System dependant (CP6) I/O setup routines */
        2        2        /*T***********************************************************/
        3        3        /*T*                                                         */
        4        4        /*T* Copyright (c) Bull HN Information Systems Inc., 1997    */
        5        5        /*T*                                                         */
        6        6        /*T***********************************************************/
        7        7
        8        8        /*------------*/
        9        9        Z9EN$OPEN_FILE:        PROC  (FILE$, OPEN_CLOSE_TYPE);

      9 16 000000   000000 700200 xent  Z9EN$OPEN_F* TSX0  ! X66_AUTO_2
        16 000001   000062 000002                    ZERO    50,2
        16 000002   000200 710000 16                 TRA     s:15702

       10       10        /*------------*/
       11       11
       12       12         /*P*
       13       13               NAME : Z9EN$OPEN_FILE
       14       14               PURPOSE : To create ILL for the OPEN <open_type> <file_name>
       15       15                 statement.
       16       16         */
       17       17
       18       18    1     DCL FILE$           PTR;  /* To LX_ETT_ITEM for file */
       19       19    1     DCL OPEN_CLOSE_TYPE SBIN WORD;
       20       20
       21       21        %EQU PHASE = 1;
       22       22        %INCLUDE Z8A_DEFC;
       23       90        %INCLUDE Z9A_FLAGS;
       24      104        %INCLUDE Z8A_SUPP_MAC;
       25     2504        %INCLUDE Z8E_STACKS;
       26     4770        %INCLUDE Z8A_ST;
       27     8429        %INCLUDE Z8A_ETT;
       28     8730        %INCLUDE Z8A_ILL;
       29     9423        %INCLUDE Z8A_TYPES;
       30     9597        %INCLUDE Z8E_O1COM;
       31    10358        %INCLUDE Z8E_MACROS;
PL6.E3A0      #001=Z9EN$OPEN_FILE File=Z9EN.:Z8A6TSI                             SAT 08/09/97 13:46 Page:14
       32    11033        %INCLUDE Z8A_LTS;
       33    13110        %INCLUDE Z8E_ABSSYN;
       34    13316        %INCLUDE Z8A_LIBRARY;
       35    13530        %INCLUDE Z8A_ERR_NUMS;
       36    14294        %INCLUDE Z8A_COMCOM;
       37    14944        %INCLUDE X9A_IO;
       38    15094        %INCLUDE Z8A_IO_EQUS;                                      /*#42918*/
       39    15217
       40    15218    1   DCL Z9EY$BUILD_RUNTIME_DESCRIPTOR  ENTRY(3);
       41    15219    1   DCL Z8EY$BUILD_RUNTIME_ARGLIST     ENTRY(3);
       42    15220    1   DCL Z8EU$CREATE_IDENTIFIER_FROM_ST ENTRY(4);
       43    15221    1   DCL Z8AC$LX_ETT_ITEM_TYI_CONST     ENTRY(2);
       44    15222    1   DCL Z9EN$VERIFY_ASSIGN             ENTRY(5);
       45    15223    1   DCL Z9EN$CREATE_MOVE               ENTRY(4);                /*#42918*/
       46    15224    1   DCL Z8AE$ERROR                     ENTRY(12);
       47    15225
       48    15226          %DCL_AUTO_LX_ITEM (@NAME = FAB);
       49    15230          %DCL_AUTO_LX_ITEM (@NAME = OTYPE);
       50    15234          %DCL_AUTO_LX_ITEM (@NAME = PLIST);
       51    15238
       52    15239    1     DCL RT_DESC_LIST$ PTR;
       53    15240    1     DCL RT_ARG_LIST$  PTR;
       54    15241    1     DCL FILE_LTS$     PTR;
       55    15242        %EJECT;
PL6.E3A0      #001=Z9EN$OPEN_FILE File=Z9EN.:Z8A6TSI                             SAT 08/09/97 13:46 Page:15
       56    15243    1     OPEN_CLOSE_COMMON : PROC (OPEN_CLOSE_OP_CODE);

  15243 16 000003   200052 741300       OPEN_CLOSE_* STX1  ! FILE_LTS$+2,,AUTO

       57    15244
       58    15245    2       DCL OPEN_CLOSE_OP_CODE SBIN;
       59    15246
       60    15247
       61    15248    2       IF NOT FILE$ -> LX_ETT_ITEM.B.ERROR THEN

  15248 16 000004   200003 470500                    LDP0    @FILE$,,AUTO
        16 000005   000000 471500                    LDP1    0,,PR0
        16 000006   100000 236100                    LDQ     0,,PR1
        16 000007   400000 316007                    CANQ    -131072,DL
        16 000010   000176 601000 16                 TNZ     s:15697

       62    15249    3         DO;

       63    15250
       64    15251    3           IF FILE_LTS$ -> FILE_LTS.FILE_STATUS$ ~= ADDR(NIL) AND /*#42918*/

  15251 16 000011   200050 473500                    LDP3    FILE_LTS$,,AUTO
        16 000012   300012 236100                    LDQ     10,,PR3
        16 000013   000000 116000 17                 CMPQ    0
        16 000014   000040 600000 16                 TZE     s:15258
        16 000015   300012 474500                    LDP4    10,,PR3
        16 000016   400003 236100                    LDQ     3,,PR4
        16 000017   000002 316003                    CANQ    2,DU
        16 000020   000040 600000 16                 TZE     s:15258

       65    15252    3               FILE_LTS$ -> FILE_LTS.FILE_STATUS$ -> SCALAR.B.LINKAGE THEN
       66    15253    3             CALL Z9EN$CREATE_MOVE( FILE_LTS$ -> FILE_LTS.FILE_STATUS$,

  15253 16 000021   000057 475400 xsym               LDP5    O1COM+47
        16 000022   500006 476500                    LDP6    6,,PR5
        16 000023   200050 637500                    EPPR7   FILE_LTS$,,AUTO
        16 000024   200057 457500                    STP7    @OPEN_CLOSE_OP_CODE+4,,AUTO
PL6.E3A0      #001=Z9EN$OPEN_FILE File=Z9EN.:Z8A6TSI                             SAT 08/09/97 13:46 Page:16
        16 000025   000003 236000 17                 LDQ     3
        16 000026   200056 756100                    STQ     @OPEN_CLOSE_OP_CODE+3,,AUTO
        16 000027   600005 631500                    EPPR1   5,,PR6
        16 000030   200055 451500                    STP1    @OPEN_CLOSE_OP_CODE+2,,AUTO
        16 000031   200050 236100                    LDQ     FILE_LTS$,,AUTO
        16 000032   000012 036003                    ADLQ    10,DU
        16 000033   200054 756100                    STQ     @OPEN_CLOSE_OP_CODE+1,,AUTO
        16 000034   200054 630500                    EPPR0   @OPEN_CLOSE_OP_CODE+1,,AUTO
        16 000035   000001 631400 17                 EPPR1   1
        16 000036   000000 701000 xent               TSX1    Z9EN$CREATE_MOVE
        16 000037   000000 011000                    NOP     0

       67    15254    3                                   O1COM.CURRENT_PROC$ -> PROC_.PROC_DEF$ -> PROC_DEF.
             15254                                             ARGLIST$,
       68    15255    3                                    %FILE_STATUS_OFF,
       69    15256    3                                    FILE_LTS$ );
       70    15257
       71    15258    3           CALL Z8EU$CREATE_IDENTIFIER_FROM_ST

  15258 16 000040   200016 630500                    EPPR0   FAB,,AUTO
        16 000041   200054 450500                    STP0    @OPEN_CLOSE_OP_CODE+1,,AUTO
        16 000042   200054 631500                    EPPR1   @OPEN_CLOSE_OP_CODE+1,,AUTO
        16 000043   200057 451500                    STP1    @OPEN_CLOSE_OP_CODE+4,,AUTO
        16 000044   200050 236100                    LDQ     FILE_LTS$,,AUTO
        16 000045   000002 036003                    ADLQ    2,DU
        16 000046   200056 756100                    STQ     @OPEN_CLOSE_OP_CODE+3,,AUTO
        16 000047   200056 630500                    EPPR0   @OPEN_CLOSE_OP_CODE+3,,AUTO
        16 000050   000004 631400 17                 EPPR1   4
        16 000051   000000 701000 xent               TSX1    Z8EU$CREATE_IDENTIFIER_FROM_ST
        16 000052   000000 011000                    NOP     0

       72    15259    3                    (FILE_LTS$ -> FILE_LTS.FAB$,
       73    15260    3                     ADDR(FAB));
       74    15261
       75    15262    3           CALL Z8AC$LX_ETT_ITEM_TYI_CONST (OPEN_CLOSE_TYPE,

  15262 16 000053   200026 630500                    EPPR0   OTYPE,,AUTO
PL6.E3A0      #001=Z9EN$OPEN_FILE File=Z9EN.:Z8A6TSI                             SAT 08/09/97 13:46 Page:17
        16 000054   200054 450500                    STP0    @OPEN_CLOSE_OP_CODE+1,,AUTO
        16 000055   200054 631500                    EPPR1   @OPEN_CLOSE_OP_CODE+1,,AUTO
        16 000056   200057 451500                    STP1    @OPEN_CLOSE_OP_CODE+4,,AUTO
        16 000057   200004 236100                    LDQ     @OPEN_CLOSE_TYPE,,AUTO
        16 000060   200056 756100                    STQ     @OPEN_CLOSE_OP_CODE+3,,AUTO
        16 000061   200056 630500                    EPPR0   @OPEN_CLOSE_OP_CODE+3,,AUTO
        16 000062   000004 631400 17                 EPPR1   4
        16 000063   000000 701000 xent               TSX1    Z8AC$LX_ETT_ITEM_TYI_CONST
        16 000064   000000 011000                    NOP     0

       76    15263    3                                            ADDR(OTYPE));
       77    15264
       78    15265                %INIT_LX_LIST (@POINTER = "ADDR(PLIST)");

  15267 16 000065   000002 220003                    LDX0    2,DU
        16 000066   200036 740100                    STX0    PLIST,,AUTO

  15268 16 000067   000000 221003                    LDX1    0,DU
        16 000070   200036 441100                    SXL1    PLIST,,AUTO

  15269 16 000071   000000 236000 17                 LDQ     0
        16 000072   200037 756100                    STQ     PLIST+1,,AUTO

  15270 16 000073   200042 756100                    STQ     PLIST+4,,AUTO

  15271 16 000074   200045 756100                    STQ     PLIST+7,,AUTO

  15272 16 000075   200040 450100                    STZ     PLIST+2,,AUTO

       79    15275
       80    15276                %ADD_LX_ITEM_TO_LIST_HEAD (@FROM$ = "ADDR(FAB)",
       81    15277                                           @LIST$ = "ADDR(PLIST)");

  15279 16 000076   200025 756100                    STQ     FAB+7,,AUTO

  15280 16 000077   200016 630500                    EPPR0   FAB,,AUTO
        16 000100   200042 450500                    STP0    PLIST+4,,AUTO
PL6.E3A0      #001=Z9EN$OPEN_FILE File=Z9EN.:Z8A6TSI                             SAT 08/09/97 13:46 Page:18

  15281 16 000101   200040 235100                    LDA     PLIST+2,,AUTO
        16 000102   000105 601000 16                 TNZ     s:15283

  15282 16 000103   200016 631500                    EPPR1   FAB,,AUTO
        16 000104   200037 451500                    STP1    PLIST+1,,AUTO

  15283 16 000105   200040 054100                    AOS     PLIST+2,,AUTO

       82    15286
       83    15287                %ADD_LX_ITEM_TO_LIST_TAIL (@FROM$ = "ADDR(OTYPE)",
       84    15288                                           @LIST$ = "ADDR(PLIST)");

  15290 16 000106   200035 756100                    STQ     OTYPE+7,,AUTO

  15291 16 000107   000115 601000 16                 TNZ     s:15298

  15293 16 000110   200026 631500                    EPPR1   OTYPE,,AUTO
        16 000111   200042 451500                    STP1    PLIST+4,,AUTO

  15294 16 000112   200026 630500                    EPPR0   OTYPE,,AUTO
        16 000113   200037 450500                    STP0    PLIST+1,,AUTO

  15295 16 000114   000122 710000 16                 TRA     s:15301

  15298 16 000115   200026 631500                    EPPR1   OTYPE,,AUTO
        16 000116   200037 473500                    LDP3    PLIST+1,,AUTO
        16 000117   300007 451500                    STP1    7,,PR3

  15299 16 000120   200026 630500                    EPPR0   OTYPE,,AUTO
        16 000121   200037 450500                    STP0    PLIST+1,,AUTO

  15301 16 000122   200040 054100                    AOS     PLIST+2,,AUTO

       85    15304
       86    15305    3           CALL Z9EY$BUILD_RUNTIME_DESCRIPTOR (ADDR(PLIST) -> LX_LIST.HEAD$,

PL6.E3A0      #001=Z9EN$OPEN_FILE File=Z9EN.:Z8A6TSI                             SAT 08/09/97 13:46 Page:19
  15305 16 000123   000007 236000 17                 LDQ     7
        16 000124   200056 756100                    STQ     @OPEN_CLOSE_OP_CODE+3,,AUTO
        16 000125   200046 631500                    EPPR1   RT_DESC_LIST$,,AUTO
        16 000126   200055 451500                    STP1    @OPEN_CLOSE_OP_CODE+2,,AUTO
        16 000127   200042 633500                    EPPR3   PLIST+4,,AUTO
        16 000130   200054 453500                    STP3    @OPEN_CLOSE_OP_CODE+1,,AUTO
        16 000131   200054 630500                    EPPR0   @OPEN_CLOSE_OP_CODE+1,,AUTO
        16 000132   000005 631400 17                 EPPR1   5
        16 000133   000000 701000 xent               TSX1    Z9EY$BUILD_RUNTIME_DESCRIPTOR
        16 000134   000000 011000                    NOP     0

       87    15306    3                                               RT_DESC_LIST$,
       88    15307    3                                               2);
       89    15308
       90    15309    3           CALL Z8EY$BUILD_RUNTIME_ARGLIST (ADDR(PLIST) -> LX_LIST.HEAD$,

  15309 16 000135   000007 236000 17                 LDQ     7
        16 000136   200056 756100                    STQ     @OPEN_CLOSE_OP_CODE+3,,AUTO
        16 000137   200047 630500                    EPPR0   RT_ARG_LIST$,,AUTO
        16 000140   200055 450500                    STP0    @OPEN_CLOSE_OP_CODE+2,,AUTO
        16 000141   200042 631500                    EPPR1   PLIST+4,,AUTO
        16 000142   200054 451500                    STP1    @OPEN_CLOSE_OP_CODE+1,,AUTO
        16 000143   200054 630500                    EPPR0   @OPEN_CLOSE_OP_CODE+1,,AUTO
        16 000144   000005 631400 17                 EPPR1   5
        16 000145   000000 701000 xent               TSX1    Z8EY$BUILD_RUNTIME_ARGLIST
        16 000146   000000 011000                    NOP     0

       91    15310    3                                            RT_ARG_LIST$,
       92    15311    3                                            2);
       93    15312
       94    15313                %NEW_ILL (@ID = %OS_CALL,
       95    15314                          @CODE = OPEN_CLOSE_OP_CODE,
       96    15315                          @ROP = RT_DESC_LIST$,
       97    15316                          @LOP = RT_ARG_LIST$);

  15406 16 000147   000012 236000 17                 LDQ     10
        16 000150   200054 756100                    STQ     @OPEN_CLOSE_OP_CODE+1,,AUTO
PL6.E3A0      #001=Z9EN$OPEN_FILE File=Z9EN.:Z8A6TSI                             SAT 08/09/97 13:46 Page:20
        16 000151   200054 630500                    EPPR0   @OPEN_CLOSE_OP_CODE+1,,AUTO
        16 000152   200061 450500                    STP0    @OPEN_CLOSE_OP_CODE+6,,AUTO
        16 000153   000013 236000 17                 LDQ     11
        16 000154   200060 756100                    STQ     @OPEN_CLOSE_OP_CODE+5,,AUTO
        16 000155   000014 237000 17                 LDAQ    12
        16 000156   200056 757100                    STAQ    @OPEN_CLOSE_OP_CODE+3,,AUTO
        16 000157   200056 630500                    EPPR0   @OPEN_CLOSE_OP_CODE+3,,AUTO
        16 000160   000001 631400 17                 EPPR1   1
        16 000161   000000 701000 xent               TSX1    Z8AN$NEW_ILL
        16 000162   000000 011000                    NOP     0

  15407 16 000163   200053 470500                    LDP0    @OPEN_CLOSE_OP_CODE,,AUTO
        16 000164   000000 720100                    LXL0    0,,PR0
        16 000165   000000 471400 11                 LDP1    ILL$
        16 000166   100000 440100                    SXL0    0,,PR1

  15408 16 000167   200047 236100                    LDQ     RT_ARG_LIST$,,AUTO
        16 000170   000000 471400 11                 LDP1    ILL$
        16 000171   100001 756100                    STQ     1,,PR1

  15409 16 000172   200046 236100                    LDQ     RT_DESC_LIST$,,AUTO
        16 000173   100002 756100                    STQ     2,,PR1

  15416 16 000174   000000 236000 17                 LDQ     0
        16 000175   100004 756100                    STQ     4,,PR1

       98    15695    3         END;

       99    15696
      100    15697    2     END OPEN_CLOSE_COMMON;

  15697 16 000176   200052 221300                    LDX1  ! FILE_LTS$+2,,AUTO
        16 000177   000001 702211                    TSX2  ! 1,X1

      101    15698         %EJECT;
PL6.E3A0      #001=Z9EN$OPEN_FILE File=Z9EN.:Z8A6TSI                             SAT 08/09/97 13:46 Page:21
      102    15699        /* Main body of OPEN_FILE */
      103    15700
      104    15701
      105    15702    1     IF COMCOM.OB.FIPS.LEVEL >= %INT_LEV THEN

  15702 16 000200   000036 720000 xsym               LXL0    COMCOM+30
        16 000201   000002 100003                    CMPX0   2,DU
        16 000202   000222 604000 16                 TMI     s:15710

      106    15703    2       DO CASE (OPEN_CLOSE_TYPE);

  15703 16 000203   200004 470500                    LDP0    @OPEN_CLOSE_TYPE,,AUTO
        16 000204   000000 235100                    LDA     0,,PR0
        16 000205   000006 115007                    CMPA    6,DL
        16 000206   000210 602005 16                 TNC     s:15703+5,AL
        16 000207   000222 710000 16                 TRA     s:15710
        16 000210   000222 710000 16                 TRA     s:15710
        16 000211   000222 710000 16                 TRA     s:15710
        16 000212   000222 710000 16                 TRA     s:15710
        16 000213   000216 710000 16                 TRA     s:15705
        16 000214   000216 710000 16                 TRA     s:15705
        16 000215   000216 710000 16                 TRA     s:15705

      107    15704    2         CASE (%OPEN_INPUT_NO_REWIND, %OPEN_OUTPUT_NO_REWIND, %OPEN_EXTEND);

      108    15705    2           CALL Z8AE$ERROR (%E$LEVEL_CHECK,

  15705 16 000216   000017 630400 17                 EPPR0   15
        16 000217   000005 631400 17                 EPPR1   5
        16 000220   000000 701000 xent               TSX1    Z8AE$ERROR
        16 000221   000000 011000                    NOP     0

      109    15706    2                            O1COM.LINE_NO,
      110    15707    2                            O1COM.COLUMN_NO);
      111    15708    2       END;

      112    15709
PL6.E3A0      #001=Z9EN$OPEN_FILE File=Z9EN.:Z8A6TSI                             SAT 08/09/97 13:46 Page:22
      113    15710    1     IF NOT FILE$ -> LX_ETT_ITEM.B.ERROR THEN

  15710 16 000222   200003 470500                    LDP0    @FILE$,,AUTO
        16 000223   000000 471500                    LDP1    0,,PR0
        16 000224   100000 236100                    LDQ     0,,PR1
        16 000225   400000 316007                    CANQ    -131072,DL
        16 000226   000521 601000 16                 TNZ     s:15828

      114    15711    2       DO;

      115    15712              %FISH (TRIAD = FILE$ -> LX_ETT_ITEM.ETT$,
      116    15713                     RTN = ST$);

  15715 16 000227   100001 236100                    LDQ     1,,PR1
        16 000230   000000 756000 5                  STQ     ST$

  15716 16 000231   000000 471400 5                  LDP1    ST$
        16 000232   100000 220100                    LDX0    0,,PR1
        16 000233   000751 100003                    CMPX0   489,DU
        16 000234   000244 603000 16                 TRC     s:15726

  15717 16 000235   000000 470400 5                  LDP0    ST$
        16 000236   000001 236100                    LDQ     1,,PR0
        16 000237   000000 756000 5                  STQ     ST$

  15718 16 000240   000000 470400 5                  LDP0    ST$
        16 000241   000000 220100                    LDX0    0,,PR0
        16 000242   000751 100003                    CMPX0   489,DU
        16 000243   000235 602000 16                 TNC     s:15717

      117    15721
      118    15722              %GET_LTS (@ID = %FILE_LTS,
      119    15723                        @ST$ = ST$,
      120    15724                        @RETURN$ = FILE_LTS$);

  15726 16 000244   000000 470400 5                  LDP0    ST$
        16 000245   000005 236100                    LDQ     5,,PR0
PL6.E3A0      #001=Z9EN$OPEN_FILE File=Z9EN.:Z8A6TSI                             SAT 08/09/97 13:46 Page:23
        16 000246   000000 116000 17                 CMPQ    0
        16 000247   000257 600000 16                 TZE     s:15760
        16 000250   000005 471500                    LDP1    5,,PR0
        16 000251   100000 220100                    LDX0    0,,PR1
        16 000252   001105 100003                    CMPX0   581,DU
        16 000253   000257 601000 16                 TNZ     s:15760

  15740 16 000254   100006 236100                    LDQ     6,,PR1
        16 000255   200050 756100                    STQ     FILE_LTS$,,AUTO

  15758 16 000256   000271 710000 16                 TRA     s:15768

  15760 16 000257   000000 116000 17                 CMPQ    0
        16 000260   000267 600000 16                 TZE     s:15764
        16 000261   000005 471500                    LDP1    5,,PR0
        16 000262   100000 220100                    LDX0    0,,PR1
        16 000263   001121 100003                    CMPX0   593,DU
        16 000264   000267 601000 16                 TNZ     s:15764

  15762 16 000265   200050 756100                    STQ     FILE_LTS$,,AUTO
        16 000266   000271 710000 16                 TRA     s:15768

  15764 16 000267   000000 236000 17                 LDQ     0
        16 000270   200050 756100                    STQ     FILE_LTS$,,AUTO

      121    15767
      122    15768    3         DO CASE( FILE_LTS$ -> FILE_LTS.ORGANIZATION );       /*#42918*/

  15768 16 000271   200050 471500                    LDP1    FILE_LTS$,,AUTO
        16 000272   100006 235100                    LDA     6,,PR1
        16 000273   000023 115007                    CMPA    19,DL
        16 000274   000276 602005 16                 TNC     s:15768+5,AL
        16 000275   000521 710000 16                 TRA     s:15828
        16 000276   000521 710000 16                 TRA     s:15828
        16 000277   000321 710000 16                 TRA     s:15781
        16 000300   000465 710000 16                 TRA     s:15818
        16 000301   000521 710000 16                 TRA     s:15828
PL6.E3A0      #001=Z9EN$OPEN_FILE File=Z9EN.:Z8A6TSI                             SAT 08/09/97 13:46 Page:24
        16 000302   000521 710000 16                 TRA     s:15828
        16 000303   000321 710000 16                 TRA     s:15781
        16 000304   000321 710000 16                 TRA     s:15781
        16 000305   000321 710000 16                 TRA     s:15781
        16 000306   000321 710000 16                 TRA     s:15781
        16 000307   000321 710000 16                 TRA     s:15781
        16 000310   000465 710000 16                 TRA     s:15818
        16 000311   000521 710000 16                 TRA     s:15828
        16 000312   000321 710000 16                 TRA     s:15781
        16 000313   000321 710000 16                 TRA     s:15781
        16 000314   000521 710000 16                 TRA     s:15828
        16 000315   000321 710000 16                 TRA     s:15781
        16 000316   000321 710000 16                 TRA     s:15781
        16 000317   000465 710000 16                 TRA     s:15818
        16 000320   000321 710000 16                 TRA     s:15781

      123    15769
      124    15770    3           CASE(

      125    15771                      %SET_OF_SEQUENTIAL_ORGANIZATION;
      126    15779    3                );
      127    15780
      128    15781    3             IF OPEN_CLOSE_TYPE = %OPEN_OUTPUT OR

  15781 16 000321   200004 473500                    LDP3    @OPEN_CLOSE_TYPE,,AUTO
        16 000322   300000 235100                    LDA     0,,PR3
        16 000323   000001 115007                    CMPA    1,DL
        16 000324   000331 600000 16                 TZE     s:15785
        16 000325   000005 115007                    CMPA    5,DL
        16 000326   000331 600000 16                 TZE     s:15785
        16 000327   000003 115007                    CMPA    3,DL
        16 000330   000521 601000 16                 TNZ     s:15828

      129    15782    3                 OPEN_CLOSE_TYPE = %OPEN_OUTPUT_NO_REWIND OR
      130    15783    3                 OPEN_CLOSE_TYPE = %OPEN_EXTEND THEN
      131    15784    4               DO;

PL6.E3A0      #001=Z9EN$OPEN_FILE File=Z9EN.:Z8A6TSI                             SAT 08/09/97 13:46 Page:25
      132    15785    4                 IF FILE_LTS$ -> FILE_LTS.LINAGE.NO_OF_LINES$ ~= ADDR(NIL) AND

  15785 16 000331   100033 236100                    LDQ     27,,PR1
        16 000332   000000 116000 17                 CMPQ    0
        16 000333   000357 600000 16                 TZE     s:15791
        16 000334   100033 474500                    LDP4    27,,PR1
        16 000335   400003 236100                    LDQ     3,,PR4
        16 000336   000002 316003                    CANQ    2,DU
        16 000337   000357 600000 16                 TZE     s:15791

      133    15786    4                    FILE_LTS$ -> FILE_LTS.LINAGE.NO_OF_LINES$ -> SCALAR.B.LINKAGE THEN
      134    15787    4                   CALL Z9EN$CREATE_MOVE( FILE_LTS$ -> FILE_LTS.LINAGE.NO_OF_LINES$,

  15787 16 000340   000057 475400 xsym               LDP5    O1COM+47
        16 000341   500006 476500                    LDP6    6,,PR5
        16 000342   200050 637500                    EPPR7   FILE_LTS$,,AUTO
        16 000343   200057 457500                    STP7    @OPEN_CLOSE_OP_CODE+4,,AUTO
        16 000344   000023 236000 17                 LDQ     19
        16 000345   200056 756100                    STQ     @OPEN_CLOSE_OP_CODE+3,,AUTO
        16 000346   600005 634500                    EPPR4   5,,PR6
        16 000347   200055 454500                    STP4    @OPEN_CLOSE_OP_CODE+2,,AUTO
        16 000350   200050 236100                    LDQ     FILE_LTS$,,AUTO
        16 000351   000033 036003                    ADLQ    27,DU
        16 000352   200054 756100                    STQ     @OPEN_CLOSE_OP_CODE+1,,AUTO
        16 000353   200054 630500                    EPPR0   @OPEN_CLOSE_OP_CODE+1,,AUTO
        16 000354   000001 631400 17                 EPPR1   1
        16 000355   000000 701000 xent               TSX1    Z9EN$CREATE_MOVE
        16 000356   000000 011000                    NOP     0

      135    15788    4                                          O1COM.CURRENT_PROC$ -> PROC_.PROC_DEF$ ->
             15788                                                   PROC_DEF.ARGLIST$,
      136    15789    4                                          %LINAGE_LINES_OFF,
      137    15790    4                                          FILE_LTS$ );
      138    15791    4                 IF FILE_LTS$ -> FILE_LTS.LINAGE.FOOTING$ ~= ADDR(NIL) AND

  15791 16 000357   200050 470500                    LDP0    FILE_LTS$,,AUTO
        16 000360   000034 236100                    LDQ     28,,PR0
PL6.E3A0      #001=Z9EN$OPEN_FILE File=Z9EN.:Z8A6TSI                             SAT 08/09/97 13:46 Page:26
        16 000361   000000 116000 17                 CMPQ    0
        16 000362   000406 600000 16                 TZE     s:15797
        16 000363   000034 471500                    LDP1    28,,PR0
        16 000364   100003 236100                    LDQ     3,,PR1
        16 000365   000002 316003                    CANQ    2,DU
        16 000366   000406 600000 16                 TZE     s:15797

      139    15792    4                     FILE_LTS$ -> FILE_LTS.LINAGE.FOOTING$ -> SCALAR.B.LINKAGE THEN
      140    15793    4                   CALL Z9EN$CREATE_MOVE( FILE_LTS$ -> FILE_LTS.LINAGE.FOOTING$,

  15793 16 000367   000057 473400 xsym               LDP3    O1COM+47
        16 000370   300006 474500                    LDP4    6,,PR3
        16 000371   200050 635500                    EPPR5   FILE_LTS$,,AUTO
        16 000372   200057 455500                    STP5    @OPEN_CLOSE_OP_CODE+4,,AUTO
        16 000373   000025 236000 17                 LDQ     21
        16 000374   200056 756100                    STQ     @OPEN_CLOSE_OP_CODE+3,,AUTO
        16 000375   400005 631500                    EPPR1   5,,PR4
        16 000376   200055 451500                    STP1    @OPEN_CLOSE_OP_CODE+2,,AUTO
        16 000377   200050 236100                    LDQ     FILE_LTS$,,AUTO
        16 000400   000034 036003                    ADLQ    28,DU
        16 000401   200054 756100                    STQ     @OPEN_CLOSE_OP_CODE+1,,AUTO
        16 000402   200054 630500                    EPPR0   @OPEN_CLOSE_OP_CODE+1,,AUTO
        16 000403   000001 631400 17                 EPPR1   1
        16 000404   000000 701000 xent               TSX1    Z9EN$CREATE_MOVE
        16 000405   000000 011000                    NOP     0

      141    15794    4                                          O1COM.CURRENT_PROC$ -> PROC_.PROC_DEF$ ->
             15794                                                   PROC_DEF.ARGLIST$,
      142    15795    4                                          %FOOTING_OFF,
      143    15796    4                                          FILE_LTS$ );
      144    15797    4                 IF FILE_LTS$ -> FILE_LTS.LINAGE.TOP$ ~= ADDR(NIL) AND

  15797 16 000406   200050 470500                    LDP0    FILE_LTS$,,AUTO
        16 000407   000035 236100                    LDQ     29,,PR0
        16 000410   000000 116000 17                 CMPQ    0
        16 000411   000435 600000 16                 TZE     s:15803
        16 000412   000035 471500                    LDP1    29,,PR0
PL6.E3A0      #001=Z9EN$OPEN_FILE File=Z9EN.:Z8A6TSI                             SAT 08/09/97 13:46 Page:27
        16 000413   100003 236100                    LDQ     3,,PR1
        16 000414   000002 316003                    CANQ    2,DU
        16 000415   000435 600000 16                 TZE     s:15803

      145    15798    4                     FILE_LTS$ -> FILE_LTS.LINAGE.TOP$ -> SCALAR.B.LINKAGE THEN
      146    15799    4                   CALL Z9EN$CREATE_MOVE( FILE_LTS$ -> FILE_LTS.LINAGE.TOP$,

  15799 16 000416   000057 473400 xsym               LDP3    O1COM+47
        16 000417   300006 474500                    LDP4    6,,PR3
        16 000420   200050 635500                    EPPR5   FILE_LTS$,,AUTO
        16 000421   200057 455500                    STP5    @OPEN_CLOSE_OP_CODE+4,,AUTO
        16 000422   000027 236000 17                 LDQ     23
        16 000423   200056 756100                    STQ     @OPEN_CLOSE_OP_CODE+3,,AUTO
        16 000424   400005 631500                    EPPR1   5,,PR4
        16 000425   200055 451500                    STP1    @OPEN_CLOSE_OP_CODE+2,,AUTO
        16 000426   200050 236100                    LDQ     FILE_LTS$,,AUTO
        16 000427   000035 036003                    ADLQ    29,DU
        16 000430   200054 756100                    STQ     @OPEN_CLOSE_OP_CODE+1,,AUTO
        16 000431   200054 630500                    EPPR0   @OPEN_CLOSE_OP_CODE+1,,AUTO
        16 000432   000001 631400 17                 EPPR1   1
        16 000433   000000 701000 xent               TSX1    Z9EN$CREATE_MOVE
        16 000434   000000 011000                    NOP     0

      147    15800    4                                          O1COM.CURRENT_PROC$ -> PROC_.PROC_DEF$ ->
             15800                                                   PROC_DEF.ARGLIST$,
      148    15801    4                                          %TOP_OFF,
      149    15802    4                                          FILE_LTS$ );
      150    15803    4                 IF FILE_LTS$ -> FILE_LTS.LINAGE.BOTTOM$ ~= ADDR(NIL) AND

  15803 16 000435   200050 470500                    LDP0    FILE_LTS$,,AUTO
        16 000436   000036 236100                    LDQ     30,,PR0
        16 000437   000000 116000 17                 CMPQ    0
        16 000440   000521 600000 16                 TZE     s:15828
        16 000441   000036 471500                    LDP1    30,,PR0
        16 000442   100003 236100                    LDQ     3,,PR1
        16 000443   000002 316003                    CANQ    2,DU
        16 000444   000521 600000 16                 TZE     s:15828
PL6.E3A0      #001=Z9EN$OPEN_FILE File=Z9EN.:Z8A6TSI                             SAT 08/09/97 13:46 Page:28

      151    15804    4                     FILE_LTS$ -> FILE_LTS.LINAGE.BOTTOM$ -> SCALAR.B.LINKAGE THEN
      152    15805    4                   CALL Z9EN$CREATE_MOVE( FILE_LTS$ -> FILE_LTS.LINAGE.BOTTOM$,

  15805 16 000445   000057 473400 xsym               LDP3    O1COM+47
        16 000446   300006 474500                    LDP4    6,,PR3
        16 000447   200050 635500                    EPPR5   FILE_LTS$,,AUTO
        16 000450   200057 455500                    STP5    @OPEN_CLOSE_OP_CODE+4,,AUTO
        16 000451   000031 236000 17                 LDQ     25
        16 000452   200056 756100                    STQ     @OPEN_CLOSE_OP_CODE+3,,AUTO
        16 000453   400005 631500                    EPPR1   5,,PR4
        16 000454   200055 451500                    STP1    @OPEN_CLOSE_OP_CODE+2,,AUTO
        16 000455   200050 236100                    LDQ     FILE_LTS$,,AUTO
        16 000456   000036 036003                    ADLQ    30,DU
        16 000457   200054 756100                    STQ     @OPEN_CLOSE_OP_CODE+1,,AUTO
        16 000460   200054 630500                    EPPR0   @OPEN_CLOSE_OP_CODE+1,,AUTO
        16 000461   000001 631400 17                 EPPR1   1
        16 000462   000000 701000 xent               TSX1    Z9EN$CREATE_MOVE
        16 000463   000000 011000                    NOP     0

      153    15806    4                                          O1COM.CURRENT_PROC$ -> PROC_.PROC_DEF$ ->
             15806                                                   PROC_DEF.ARGLIST$,
      154    15807    4                                          %BOTTOM_OFF,
      155    15808    4                                          FILE_LTS$ );
      156    15809    4               END;

  15809 16 000464   000521 710000 16                 TRA     s:15828

      157    15810
      158    15811    3           CASE(

      159    15812                      %SET_OF_RELATIVE_ORGANIZATION;
      160    15816    3                );
      161    15817
      162    15818    3             IF ( OPEN_CLOSE_TYPE = %OPEN_EXTEND OR

  15818 16 000465   200004 473500                    LDP3    @OPEN_CLOSE_TYPE,,AUTO
PL6.E3A0      #001=Z9EN$OPEN_FILE File=Z9EN.:Z8A6TSI                             SAT 08/09/97 13:46 Page:29
        16 000466   300000 235100                    LDA     0,,PR3
        16 000467   000003 115007                    CMPA    3,DL
        16 000470   000473 600000 16                 TZE     s:15818+6
        16 000471   000001 115007                    CMPA    1,DL
        16 000472   000521 601000 16                 TNZ     s:15828
        16 000473   100014 236100                    LDQ     12,,PR1
        16 000474   000000 116000 17                 CMPQ    0
        16 000475   000521 600000 16                 TZE     s:15828
        16 000476   100014 474500                    LDP4    12,,PR1
        16 000477   400003 236100                    LDQ     3,,PR4
        16 000500   000002 316003                    CANQ    2,DU
        16 000501   000521 600000 16                 TZE     s:15828

      163    15819    3                  OPEN_CLOSE_TYPE = %OPEN_OUTPUT) AND
      164    15820    3                 FILE_LTS$ -> FILE_LTS.RELATIVE_KEY$ ~= ADDR(NIL) AND
      165    15821    3                 FILE_LTS$ -> FILE_LTS.RELATIVE_KEY$ -> SCALAR.B.LINKAGE THEN
      166    15822    3               CALL Z9EN$CREATE_MOVE( FILE_LTS$ -> FILE_LTS.RELATIVE_KEY$,

  15822 16 000502   000057 475400 xsym               LDP5    O1COM+47
        16 000503   500006 476500                    LDP6    6,,PR5
        16 000504   200050 637500                    EPPR7   FILE_LTS$,,AUTO
        16 000505   200057 457500                    STP7    @OPEN_CLOSE_OP_CODE+4,,AUTO
        16 000506   000033 236000 17                 LDQ     27
        16 000507   200056 756100                    STQ     @OPEN_CLOSE_OP_CODE+3,,AUTO
        16 000510   600005 634500                    EPPR4   5,,PR6
        16 000511   200055 454500                    STP4    @OPEN_CLOSE_OP_CODE+2,,AUTO
        16 000512   200050 236100                    LDQ     FILE_LTS$,,AUTO
        16 000513   000014 036003                    ADLQ    12,DU
        16 000514   200054 756100                    STQ     @OPEN_CLOSE_OP_CODE+1,,AUTO
        16 000515   200054 630500                    EPPR0   @OPEN_CLOSE_OP_CODE+1,,AUTO
        16 000516   000001 631400 17                 EPPR1   1
        16 000517   000000 701000 xent               TSX1    Z9EN$CREATE_MOVE
        16 000520   000000 011000                    NOP     0

      167    15823    3                                      O1COM.CURRENT_PROC$ -> PROC_.PROC_DEF$ ->
             15823                                               PROC_DEF.ARGLIST$,
      168    15824    3                                      %RELATIVE_KEY_OFF,
PL6.E3A0      #001=Z9EN$OPEN_FILE File=Z9EN.:Z8A6TSI                             SAT 08/09/97 13:46 Page:30
      169    15825    3                                      FILE_LTS$ );
      170    15826    3         END; /* CASE */

      171    15827    2       END;

      172    15828    1     CALL OPEN_CLOSE_COMMON (%OP_OPEN);

  15828 16 000521   000035 236000 17                 LDQ     29
        16 000522   200053 756100                    STQ     FILE_LTS$+3,,AUTO
        16 000523   000003 701000 16                 TSX1    OPEN_CLOSE_COMMON
        16 000524   000000 011000                    NOP     0

      173    15829
      174    15830    1     IF NOT FILE$ -> LX_ETT_ITEM.B.ERROR THEN

  15830 16 000525   200003 470500                    LDP0    @FILE$,,AUTO
        16 000526   000000 471500                    LDP1    0,,PR0
        16 000527   100000 236100                    LDQ     0,,PR1
        16 000530   400000 316007                    CANQ    -131072,DL
        16 000531   000730 601000 16                 TNZ     s:15885

      175    15831    2       DO CASE(OPEN_CLOSE_TYPE);

  15831 16 000532   200004 473500                    LDP3    @OPEN_CLOSE_TYPE,,AUTO
        16 000533   300000 235100                    LDA     0,,PR3
        16 000534   000006 115007                    CMPA    6,DL
        16 000535   000537 602005 16                 TNC     s:15831+5,AL
        16 000536   000730 710000 16                 TRA     s:15885
        16 000537   000545 710000 16                 TRA     s:15835
        16 000540   000610 710000 16                 TRA     s:15849
        16 000541   000647 710000 16                 TRA     s:15862
        16 000542   000712 710000 16                 TRA     s:15877
        16 000543   000545 710000 16                 TRA     s:15835
        16 000544   000610 710000 16                 TRA     s:15849

      176    15832
      177    15833    2         CASE(%OPEN_INPUT, %OPEN_INPUT_NO_REWIND);
PL6.E3A0      #001=Z9EN$OPEN_FILE File=Z9EN.:Z8A6TSI                             SAT 08/09/97 13:46 Page:31

      178    15834
      179    15835    2           IF FILE_LTS$ -> FILE_LTS.REPORT$ ~= ADDR(NIL) THEN

  15835 16 000545   200050 474500                    LDP4    FILE_LTS$,,AUTO
        16 000546   400040 236100                    LDQ     32,,PR4
        16 000547   000000 116000 17                 CMPQ    0
        16 000550   000567 600000 16                 TZE     s:15841

      180    15836    2             IF FILE_LTS$ -> FILE_LTS.REPORT$ -> REPORT_LTS.ST$ ~= ADDR(NIL) THEN

  15836 16 000551   400040 475500                    LDP5    32,,PR4
        16 000552   500001 236100                    LDQ     1,,PR5
        16 000553   000000 116000 17                 CMPQ    0
        16 000554   000567 600000 16                 TZE     s:15841

      181    15837    2               CALL Z8AE$ERROR (%E$OPEN_ERR_FOR_REPORT_FILE,

  15837 16 000555   100006 636500                    EPPR6   6,,PR1
        16 000556   200056 456500                    STP6    @OPEN_CLOSE_OP_CODE+3,,AUTO
        16 000557   100005 635500                    EPPR5   5,,PR1
        16 000560   200055 455500                    STP5    @OPEN_CLOSE_OP_CODE+2,,AUTO
        16 000561   000037 236000 17                 LDQ     31
        16 000562   200054 756100                    STQ     @OPEN_CLOSE_OP_CODE+1,,AUTO
        16 000563   200054 630500                    EPPR0   @OPEN_CLOSE_OP_CODE+1,,AUTO
        16 000564   000005 631400 17                 EPPR1   5
        16 000565   000000 701000 xent               TSX1    Z8AE$ERROR
        16 000566   000000 011000                    NOP     0

      182    15838    2                                FILE$ -> LX_ETT_ITEM.LINE,
      183    15839    2                                FILE$ -> LX_ETT_ITEM.COLUMN);
      184    15840
      185    15841    2           CALL Z9EN$VERIFY_ASSIGN (FILE_LTS$,

  15841 16 000567   200003 470500                    LDP0    @FILE$,,AUTO
        16 000570   000000 471500                    LDP1    0,,PR0
        16 000571   100006 633500                    EPPR3   6,,PR1
PL6.E3A0      #001=Z9EN$OPEN_FILE File=Z9EN.:Z8A6TSI                             SAT 08/09/97 13:46 Page:32
        16 000572   200060 453500                    STP3    @OPEN_CLOSE_OP_CODE+5,,AUTO
        16 000573   100005 634500                    EPPR4   5,,PR1
        16 000574   200057 454500                    STP4    @OPEN_CLOSE_OP_CODE+4,,AUTO
        16 000575   000043 236000 17                 LDQ     35
        16 000576   200056 756100                    STQ     @OPEN_CLOSE_OP_CODE+3,,AUTO
        16 000577   000044 236000 17                 LDQ     36
        16 000600   200055 756100                    STQ     @OPEN_CLOSE_OP_CODE+2,,AUTO
        16 000601   200050 631500                    EPPR1   FILE_LTS$,,AUTO
        16 000602   200054 451500                    STP1    @OPEN_CLOSE_OP_CODE+1,,AUTO
        16 000603   200054 630500                    EPPR0   @OPEN_CLOSE_OP_CODE+1,,AUTO
        16 000604   000040 631400 17                 EPPR1   32
        16 000605   000000 701000 xent               TSX1    Z9EN$VERIFY_ASSIGN
        16 000606   000000 011000                    NOP     0
        16 000607   000730 710000 16                 TRA     s:15885

      186    15842    2                                    %ASSIGN_INPUT,
      187    15843    2                                    %E$ASSIGN_OPEN_INPUT,
      188    15844    2                                    FILE$ -> LX_ETT_ITEM.LINE,
      189    15845    2                                    FILE$ -> LX_ETT_ITEM.COLUMN);
      190    15846
      191    15847    2         CASE(%OPEN_OUTPUT, %OPEN_OUTPUT_NO_REWIND);

      192    15848
      193    15849    2           IF FILE_LTS$ -> FILE_LTS.B.OPTIONAL_FILE THEN

  15849 16 000610   200050 474500                    LDP4    FILE_LTS$,,AUTO
        16 000611   400017 236100                    LDQ     15,,PR4
        16 000612   200000 316003                    CANQ    65536,DU
        16 000613   000626 600000 16                 TZE     s:15854

      194    15850    2             CALL Z8AE$ERROR (%E$OPEN_OPTIONAL_OUTPUT,

  15850 16 000614   100006 635500                    EPPR5   6,,PR1
        16 000615   200056 455500                    STP5    @OPEN_CLOSE_OP_CODE+3,,AUTO
        16 000616   100005 636500                    EPPR6   5,,PR1
        16 000617   200055 456500                    STP6    @OPEN_CLOSE_OP_CODE+2,,AUTO
        16 000620   000046 236000 17                 LDQ     38
PL6.E3A0      #001=Z9EN$OPEN_FILE File=Z9EN.:Z8A6TSI                             SAT 08/09/97 13:46 Page:33
        16 000621   200054 756100                    STQ     @OPEN_CLOSE_OP_CODE+1,,AUTO
        16 000622   200054 630500                    EPPR0   @OPEN_CLOSE_OP_CODE+1,,AUTO
        16 000623   000005 631400 17                 EPPR1   5
        16 000624   000000 701000 xent               TSX1    Z8AE$ERROR
        16 000625   000000 011000                    NOP     0

      195    15851    2                              FILE$ -> LX_ETT_ITEM.LINE,
      196    15852    2                              FILE$ -> LX_ETT_ITEM.COLUMN);
      197    15853
      198    15854    2           CALL Z9EN$VERIFY_ASSIGN (FILE_LTS$,

  15854 16 000626   200003 470500                    LDP0    @FILE$,,AUTO
        16 000627   000000 471500                    LDP1    0,,PR0
        16 000630   100006 633500                    EPPR3   6,,PR1
        16 000631   200060 453500                    STP3    @OPEN_CLOSE_OP_CODE+5,,AUTO
        16 000632   100005 634500                    EPPR4   5,,PR1
        16 000633   200057 454500                    STP4    @OPEN_CLOSE_OP_CODE+4,,AUTO
        16 000634   000050 236000 17                 LDQ     40
        16 000635   200056 756100                    STQ     @OPEN_CLOSE_OP_CODE+3,,AUTO
        16 000636   000007 236000 17                 LDQ     7
        16 000637   200055 756100                    STQ     @OPEN_CLOSE_OP_CODE+2,,AUTO
        16 000640   200050 631500                    EPPR1   FILE_LTS$,,AUTO
        16 000641   200054 451500                    STP1    @OPEN_CLOSE_OP_CODE+1,,AUTO
        16 000642   200054 630500                    EPPR0   @OPEN_CLOSE_OP_CODE+1,,AUTO
        16 000643   000040 631400 17                 EPPR1   32
        16 000644   000000 701000 xent               TSX1    Z9EN$VERIFY_ASSIGN
        16 000645   000000 011000                    NOP     0
        16 000646   000730 710000 16                 TRA     s:15885

      199    15855    2                                    %ASSIGN_OUTPUT,
      200    15856    2                                    %E$ASSIGN_OPEN_OUTPUT,
      201    15857    2                                    FILE$ -> LX_ETT_ITEM.LINE,
      202    15858    2                                    FILE$ -> LX_ETT_ITEM.COLUMN);
      203    15859
      204    15860    2         CASE(%OPEN_I_O);

      205    15861
PL6.E3A0      #001=Z9EN$OPEN_FILE File=Z9EN.:Z8A6TSI                             SAT 08/09/97 13:46 Page:34
      206    15862    2           IF FILE_LTS$ -> FILE_LTS.REPORT$ ~= ADDR(NIL) THEN

  15862 16 000647   200050 474500                    LDP4    FILE_LTS$,,AUTO
        16 000650   400040 236100                    LDQ     32,,PR4
        16 000651   000000 116000 17                 CMPQ    0
        16 000652   000671 600000 16                 TZE     s:15868

      207    15863    2             IF FILE_LTS$ -> FILE_LTS.REPORT$ -> REPORT_LTS.ST$ ~= ADDR(NIL) THEN

  15863 16 000653   400040 475500                    LDP5    32,,PR4
        16 000654   500001 236100                    LDQ     1,,PR5
        16 000655   000000 116000 17                 CMPQ    0
        16 000656   000671 600000 16                 TZE     s:15868

      208    15864    2               CALL Z8AE$ERROR (%E$OPEN_ERR_FOR_REPORT_FILE,

  15864 16 000657   100006 636500                    EPPR6   6,,PR1
        16 000660   200056 456500                    STP6    @OPEN_CLOSE_OP_CODE+3,,AUTO
        16 000661   100005 635500                    EPPR5   5,,PR1
        16 000662   200055 455500                    STP5    @OPEN_CLOSE_OP_CODE+2,,AUTO
        16 000663   000037 236000 17                 LDQ     31
        16 000664   200054 756100                    STQ     @OPEN_CLOSE_OP_CODE+1,,AUTO
        16 000665   200054 630500                    EPPR0   @OPEN_CLOSE_OP_CODE+1,,AUTO
        16 000666   000005 631400 17                 EPPR1   5
        16 000667   000000 701000 xent               TSX1    Z8AE$ERROR
        16 000670   000000 011000                    NOP     0

      209    15865    2                                FILE$ -> LX_ETT_ITEM.LINE,
      210    15866    2                                FILE$ -> LX_ETT_ITEM.COLUMN);
      211    15867
      212    15868    2           CALL Z9EN$VERIFY_ASSIGN (FILE_LTS$,

  15868 16 000671   200003 470500                    LDP0    @FILE$,,AUTO
        16 000672   000000 471500                    LDP1    0,,PR0
        16 000673   100006 633500                    EPPR3   6,,PR1
        16 000674   200060 453500                    STP3    @OPEN_CLOSE_OP_CODE+5,,AUTO
        16 000675   100005 634500                    EPPR4   5,,PR1
PL6.E3A0      #001=Z9EN$OPEN_FILE File=Z9EN.:Z8A6TSI                             SAT 08/09/97 13:46 Page:35
        16 000676   200057 454500                    STP4    @OPEN_CLOSE_OP_CODE+4,,AUTO
        16 000677   000053 236000 17                 LDQ     43
        16 000700   200056 756100                    STQ     @OPEN_CLOSE_OP_CODE+3,,AUTO
        16 000701   000054 236000 17                 LDQ     44
        16 000702   200055 756100                    STQ     @OPEN_CLOSE_OP_CODE+2,,AUTO
        16 000703   200050 631500                    EPPR1   FILE_LTS$,,AUTO
        16 000704   200054 451500                    STP1    @OPEN_CLOSE_OP_CODE+1,,AUTO
        16 000705   200054 630500                    EPPR0   @OPEN_CLOSE_OP_CODE+1,,AUTO
        16 000706   000040 631400 17                 EPPR1   32
        16 000707   000000 701000 xent               TSX1    Z9EN$VERIFY_ASSIGN
        16 000710   000000 011000                    NOP     0
        16 000711   000730 710000 16                 TRA     s:15885

      213    15869    2                                    %ASSIGN_DISK,
      214    15870    2                                    %E$ASSIGN_OPEN_IO,
      215    15871    2                                    FILE$ -> LX_ETT_ITEM.LINE,
      216    15872    2                                    FILE$ -> LX_ETT_ITEM.COLUMN);
      217    15873
      218    15874
      219    15875    2         CASE(%OPEN_EXTEND);

      220    15876
      221    15877    2           CALL Z9EN$VERIFY_ASSIGN (FILE_LTS$,

  15877 16 000712   100006 634500                    EPPR4   6,,PR1
        16 000713   200060 454500                    STP4    @OPEN_CLOSE_OP_CODE+5,,AUTO
        16 000714   100005 635500                    EPPR5   5,,PR1
        16 000715   200057 455500                    STP5    @OPEN_CLOSE_OP_CODE+4,,AUTO
        16 000716   000056 236000 17                 LDQ     46
        16 000717   200056 756100                    STQ     @OPEN_CLOSE_OP_CODE+3,,AUTO
        16 000720   000007 236000 17                 LDQ     7
        16 000721   200055 756100                    STQ     @OPEN_CLOSE_OP_CODE+2,,AUTO
        16 000722   200050 631500                    EPPR1   FILE_LTS$,,AUTO
        16 000723   200054 451500                    STP1    @OPEN_CLOSE_OP_CODE+1,,AUTO
        16 000724   200054 630500                    EPPR0   @OPEN_CLOSE_OP_CODE+1,,AUTO
        16 000725   000040 631400 17                 EPPR1   32
        16 000726   000000 701000 xent               TSX1    Z9EN$VERIFY_ASSIGN
PL6.E3A0      #001=Z9EN$OPEN_FILE File=Z9EN.:Z8A6TSI                             SAT 08/09/97 13:46 Page:36
        16 000727   000000 011000                    NOP     0

      222    15878    2                                    %ASSIGN_OUTPUT,
      223    15879    2                                    %E$ASSIGN_OPEN_EXTEND,
      224    15880    2                                    FILE$ -> LX_ETT_ITEM.LINE,
      225    15881    2                                    FILE$ -> LX_ETT_ITEM.COLUMN);
      226    15882    2       END;

      227    15883
      228    15884
      229    15885    1     RETURN;

  15885 16 000730   000000 702200 xent               TSX2  ! X66_ARET

      230    15886        %EJECT;
PL6.E3A0      #001=Z9EN$OPEN_FILE File=Z9EN.:Z8A6TSI                             SAT 08/09/97 13:46 Page:37
      231    15887    1   Z9EN$CLOSE_FILE : ENTRY (FILE$,

  15887 16 000731   000000 700200 xent  Z9EN$CLOSE_* TSX0  ! X66_AUTO_2
        16 000732   000062 000002                    ZERO    50,2

      232    15888    1                           OPEN_CLOSE_TYPE);
      233    15889
      234    15890    1     IF COMCOM.OB.FIPS.LEVEL >= %INT_LEV THEN

  15890 16 000733   000036 720000 xsym               LXL0    COMCOM+30
        16 000734   000002 100003                    CMPX0   2,DU
        16 000735   000756 604000 16                 TMI     s:15898

      235    15891    2       DO CASE (OPEN_CLOSE_TYPE);

  15891 16 000736   200004 470500                    LDP0    @OPEN_CLOSE_TYPE,,AUTO
        16 000737   000000 235100                    LDA     0,,PR0
        16 000740   000007 115007                    CMPA    7,DL
        16 000741   000743 602005 16                 TNC     s:15891+5,AL
        16 000742   000756 710000 16                 TRA     s:15898
        16 000743   000756 710000 16                 TRA     s:15898
        16 000744   000752 710000 16                 TRA     s:15893
        16 000745   000752 710000 16                 TRA     s:15893
        16 000746   000756 710000 16                 TRA     s:15898
        16 000747   000752 710000 16                 TRA     s:15893
        16 000750   000756 710000 16                 TRA     s:15898
        16 000751   000752 710000 16                 TRA     s:15893

      236    15892    2        CASE (%CLOSE_LOCK, %CLOSE_NO_REWIND, %CLOSE_REEL_REMOVAL, %CLOSE_UNIT_REMOVAL)
             15892                  ;

      237    15893    2           CALL Z8AE$ERROR (%E$LEVEL_CHECK,

  15893 16 000752   000017 630400 17                 EPPR0   15
        16 000753   000005 631400 17                 EPPR1   5
        16 000754   000000 701000 xent               TSX1    Z8AE$ERROR
        16 000755   000000 011000                    NOP     0
PL6.E3A0      #001=Z9EN$OPEN_FILE File=Z9EN.:Z8A6TSI                             SAT 08/09/97 13:46 Page:38

      238    15894    2                            O1COM.LINE_NO,
      239    15895    2                            O1COM.COLUMN_NO);
      240    15896    2       END;

      241    15897
      242    15898    1     IF NOT FILE$ -> LX_ETT_ITEM.B.ERROR THEN                 /*#42918*/

  15898 16 000756   200003 470500                    LDP0    @FILE$,,AUTO
        16 000757   000000 471500                    LDP1    0,,PR0
        16 000760   100000 236100                    LDQ     0,,PR1
        16 000761   400000 316007                    CANQ    -131072,DL
        16 000762   001025 601000 16                 TNZ     s:15957

      243    15899    2       DO;

      244    15900              %FISH (TRIAD = FILE$ -> LX_ETT_ITEM.ETT$,
      245    15901                     RTN = ST$);

  15903 16 000763   100001 236100                    LDQ     1,,PR1
        16 000764   000000 756000 5                  STQ     ST$

  15904 16 000765   000000 471400 5                  LDP1    ST$
        16 000766   100000 220100                    LDX0    0,,PR1
        16 000767   000751 100003                    CMPX0   489,DU
        16 000770   001000 603000 16                 TRC     s:15914

  15905 16 000771   000000 470400 5                  LDP0    ST$
        16 000772   000001 236100                    LDQ     1,,PR0
        16 000773   000000 756000 5                  STQ     ST$

  15906 16 000774   000000 470400 5                  LDP0    ST$
        16 000775   000000 220100                    LDX0    0,,PR0
        16 000776   000751 100003                    CMPX0   489,DU
        16 000777   000771 602000 16                 TNC     s:15905

      246    15909
PL6.E3A0      #001=Z9EN$OPEN_FILE File=Z9EN.:Z8A6TSI                             SAT 08/09/97 13:46 Page:39
      247    15910              %GET_LTS (@ID = %FILE_LTS,
      248    15911                        @ST$ = ST$,
      249    15912                        @RETURN$ = FILE_LTS$);

  15914 16 001000   000000 470400 5                  LDP0    ST$
        16 001001   000005 236100                    LDQ     5,,PR0
        16 001002   000000 116000 17                 CMPQ    0
        16 001003   001013 600000 16                 TZE     s:15948
        16 001004   000005 471500                    LDP1    5,,PR0
        16 001005   100000 220100                    LDX0    0,,PR1
        16 001006   001105 100003                    CMPX0   581,DU
        16 001007   001013 601000 16                 TNZ     s:15948

  15928 16 001010   100006 236100                    LDQ     6,,PR1
        16 001011   200050 756100                    STQ     FILE_LTS$,,AUTO

  15946 16 001012   001025 710000 16                 TRA     s:15957

  15948 16 001013   000000 116000 17                 CMPQ    0
        16 001014   001023 600000 16                 TZE     s:15952
        16 001015   000005 471500                    LDP1    5,,PR0
        16 001016   100000 220100                    LDX0    0,,PR1
        16 001017   001121 100003                    CMPX0   593,DU
        16 001020   001023 601000 16                 TNZ     s:15952

  15950 16 001021   200050 756100                    STQ     FILE_LTS$,,AUTO
        16 001022   001025 710000 16                 TRA     s:15957

  15952 16 001023   000000 236000 17                 LDQ     0
        16 001024   200050 756100                    STQ     FILE_LTS$,,AUTO

      250    15955    2       END;

      251    15956
      252    15957    1     CALL OPEN_CLOSE_COMMON (%OP_CLOSE);

  15957 16 001025   000060 236000 17                 LDQ     48
PL6.E3A0      #001=Z9EN$OPEN_FILE File=Z9EN.:Z8A6TSI                             SAT 08/09/97 13:46 Page:40
        16 001026   200053 756100                    STQ     FILE_LTS$+3,,AUTO
        16 001027   000003 701000 16                 TSX1    OPEN_CLOSE_COMMON
        16 001030   000000 011000                    NOP     0

      253    15958
      254    15959    1     RETURN;

  15959 16 001031   000000 702200 xent               TSX2  ! X66_ARET
      255    15960
      256    15961
      257    15962    1   END Z9EN$OPEN_FILE;
      258    15963        %EOD;

PL6.E3A0      #001=Z9EN$OPEN_FILE File=Z9EN.:Z8A6TSI                             SAT 08/09/97 13:46 Page:41
--  Include file information  --

   Z8A_IO_EQUS.:Z8A6TOU  is referenced.
   X9A_IO.:X8A6TOU  is referenced.
   Z8A_COMCOM.:Z8A6TOU  cannot be made into a system file and is referenced.
   Z8A_ERR_NUMS.:Z8A6TOU  is referenced.
   Z8A_LIBRARY.:Z8A6TOU  cannot be made into a system file and is referenced.
   Z8E_ABSSYN.:Z8A6TOU  cannot be made into a system file and is referenced.
   Z8A_LTS.:Z8A6TOU  cannot be made into a system file and is referenced.
   Z8E_NEW_ILL.:Z8A6TOU  is referenced.
   Z8E_MACROS.:Z8A6TOU  cannot be made into a system file and is referenced.
   Z8E_O1COM.:Z8A6TOU  cannot be made into a system file and is referenced.
   Z8A_TYPES.:Z8A6TOU  is referenced.
   Z8A_ILL.:Z8A6TOU  cannot be made into a system file and is referenced.
   Z8A_ETT.:Z8A6TOU  cannot be made into a system file and is referenced.
   Z8A_ST.:Z8A6TOU  cannot be made into a system file and is referenced.
   Z8A_LEX_SYMB.:Z8A6TOU  cannot be made into a system file and is referenced.
   Z8E_STACKS.:Z8A6TOU  cannot be made into a system file and is referenced.
   X8A_COM_MACS.:X8A6TOU  is referenced.
   Z8A_NAMES.:Z8A6TOU  is referenced.
   Z8A_SUPP_MAC.:Z8A6TOU  is referenced.
   Z9A_FLAGS.:Z8A6TOU  is referenced.
   Z8A_DEFC.:Z8A6TOU  cannot be made into a system file and is referenced.
      No diagnostics issued in procedure Z9EN$OPEN_FILE.
PL6.E3A0      #001=Z9EN$OPEN_FILE File=Z9EN.:Z8A6TSI                             SAT 08/09/97 13:46 Page:42

 **** Variables and constants ****

  ****  Section 000 LblCom ITERATION

  ****  Scalars and arrays  ****
OctLoc.c.b A Datatyp(siz) R M Lvl/name                 OctLoc.c.b A Datatyp(siz) R M Lvl/name

     0-0-0/w SBIN              1 ITERATION

  ****  Section 001 LblCom LEX_SYMBOL

  ****  Scalars and arrays  ****
OctLoc.c.b A Datatyp(siz) R M Lvl/name                 OctLoc.c.b A Datatyp(siz) R M Lvl/name

     0-0-0/w STRC(3240)  r     1 LEX_SYMBOL                 0-0-0/w STRC(3240)        1 LEX_SYMBOL_WORDS

  ****  Section 002 LblCom CURRENT_LEX_SYMBOL$

  ****  Scalars and arrays  ****
OctLoc.c.b A Datatyp(siz) R M Lvl/name                 OctLoc.c.b A Datatyp(siz) R M Lvl/name

     0-0-0/w PTR         r     1 CURRENT_LEX_SYMBOL$

  ****  Section 003 LblCom TEMP_LEX_SYMBOL

  ****  Scalars and arrays  ****
OctLoc.c.b A Datatyp(siz) R M Lvl/name                 OctLoc.c.b A Datatyp(siz) R M Lvl/name

     0-0-0/w STRC(3240)        1 TEMP_LEX_SYMBOL

  ****  Section 004 LblCom TEMP_LEX_SYMBOL2

  ****  Scalars and arrays  ****
OctLoc.c.b A Datatyp(siz) R M Lvl/name                 OctLoc.c.b A Datatyp(siz) R M Lvl/name

     0-0-0/w STRC(3240)        1 TEMP_LEX_SYMBOL2

PL6.E3A0      #001=Z9EN$OPEN_FILE File=Z9EN.:Z8A6TSI                             SAT 08/09/97 13:46 Page:43
  ****  Section 005 LblCom ST$

  ****  Scalars and arrays  ****
OctLoc.c.b A Datatyp(siz) R M Lvl/name                 OctLoc.c.b A Datatyp(siz) R M Lvl/name

     0-0-0/w PTR         r     1 ST$

  ****  Section 006 LblCom ST_

  ****  Scalars and arrays  ****
OctLoc.c.b A Datatyp(siz) R M Lvl/name                 OctLoc.c.b A Datatyp(siz) R M Lvl/name

     0-0-0/w STRC(180)         1 ST_

  ****  Section 007 LblCom ETT$

  ****  Scalars and arrays  ****
OctLoc.c.b A Datatyp(siz) R M Lvl/name                 OctLoc.c.b A Datatyp(siz) R M Lvl/name

     0-0-0/w PTR         r     1 ETT$

  ****  Section 008 LblCom HEAD_ETT$

  ****  Scalars and arrays  ****
OctLoc.c.b A Datatyp(siz) R M Lvl/name                 OctLoc.c.b A Datatyp(siz) R M Lvl/name

     0-0-0/w PTR               1 HEAD_ETT$

  ****  Section 009 LblCom ETT_BUCKETS

  ****  Scalars and arrays  ****
OctLoc.c.b A Datatyp(siz) R M Lvl/name                 OctLoc.c.b A Datatyp(siz) R M Lvl/name

     0-0-0/w PTR               1 ETT_BUCKETS(0:511)

  ****  Section 010 LblCom ETT_

PL6.E3A0      #001=Z9EN$OPEN_FILE File=Z9EN.:Z8A6TSI                             SAT 08/09/97 13:46 Page:44
  ****  Scalars and arrays  ****
OctLoc.c.b A Datatyp(siz) R M Lvl/name                 OctLoc.c.b A Datatyp(siz) R M Lvl/name

     0-0-0/w STRC(180)         1 ETT_

  ****  Section 011 LblCom ILL$

  ****  Scalars and arrays  ****
OctLoc.c.b A Datatyp(siz) R M Lvl/name                 OctLoc.c.b A Datatyp(siz) R M Lvl/name

     0-0-0/w PTR         r     1 ILL$

  ****  Section 012 LblCom ILL_

  ****  Scalars and arrays  ****
OctLoc.c.b A Datatyp(siz) R M Lvl/name                 OctLoc.c.b A Datatyp(siz) R M Lvl/name

     0-0-0/w STRC(180)         1 ILL_

  ****  Section 013 LblCom LTS$

  ****  Scalars and arrays  ****
OctLoc.c.b A Datatyp(siz) R M Lvl/name                 OctLoc.c.b A Datatyp(siz) R M Lvl/name

     0-0-0/w PTR               1 LONG_ITEM$                 0-0-0/w PTR         r     1 LTS$

  ****  Section 014 LblCom LTS_

  ****  Scalars and arrays  ****
OctLoc.c.b A Datatyp(siz) R M Lvl/name                 OctLoc.c.b A Datatyp(siz) R M Lvl/name

     0-0-0/w STRC(180)         1 LTS_

  ****  Section 015 LblCom TEMP_LX_NODE

  ****  Scalars and arrays  ****
OctLoc.c.b A Datatyp(siz) R M Lvl/name                 OctLoc.c.b A Datatyp(siz) R M Lvl/name
PL6.E3A0      #001=Z9EN$OPEN_FILE File=Z9EN.:Z8A6TSI                             SAT 08/09/97 13:46 Page:45

     0-0-0/d STRC(288)         1 TEMP_LX_NODE

  ****  Auto variables  ****

  ****  Scalars and arrays  ****
OctLoc.c.b A Datatyp(siz) R M Lvl/name                 OctLoc.c.b A Datatyp(siz) R M Lvl/name

     3-0-0/w PTR         r     1 @FILE$                    53-0-0/w PTR         r     1 @OPEN_CLOSE_OP_CODE
     4-0-0/w PTR         r     1 @OPEN_CLOSE_TYPE          16-0-0/d STRC(288)   r     1 FAB
    *0-0-0/w PTR         r     1 FILE$                     50-0-0/w PTR         r     1 FILE_LTS$
     5-0-0/w STRC(324)         1 NAME                      *0-0-0/w SBIN        r     1 OPEN_CLOSE_OP_CODE
    *0-0-0/w SBIN        r     1 OPEN_CLOSE_TYPE           26-0-0/d STRC(288)   r     1 OTYPE
    36-0-0/d STRC(288)   r     1 PLIST                     47-0-0/w PTR         r     1 RT_ARG_LIST$
    46-0-0/w PTR         r     1 RT_DESC_LIST$

  ****  SYMREF variables  ****

  ****  Scalars and arrays  ****
OctLoc.c.b A Datatyp(siz) R M Lvl/name                 OctLoc.c.b A Datatyp(siz) R M Lvl/name

     0-0-0/d STRC(13248) r     1 COMCOM
     0-0-0/w STRC(180)         1 HIER_STK(0:50)
     0-0-0/w SBIN              1 HIER_STK_PTR               0-0-0/w UBIN              1 ILL_STEP(0:144)
     0-0-0/w UBIN              1 LTS_STEP(0:37)
     0-0-0/d STRC(11580) r     1 O1COM                      0-0-0/w STRC(144)         1 PAGE_FORMAT
     0-0-0/w STRC(153)         1 REP_STK(0:50)              0-0-0/w SBIN              1 REP_STK_PTR

  ****  BASED and DCB variables  ****

  ****  Scalars and arrays  ****
OctLoc.c.b A Datatyp(siz) R M Lvl/name                 OctLoc.c.b A Datatyp(siz) R M Lvl/name

     0-0-0/w STRC(108)         1 ACCEPT_DISPLAY             0-0-0/w STRC(288)         1 ADD_STMT
     0-0-0/w STRC(396)         1 ALPHABET                   0-0-0/w STRC(144)         1 ALTER_LTS
     0-0-0/w STRC(3672)        1 ALT_KEY                    0-0-0/w STRC(36864)       1 ARGLIST
     0-0-0/w STRC(396)         1 ARRAY                      0-0-0/w STRC(180)         1 ARRAY_PRESET_LTS
PL6.E3A0      #001=Z9EN$OPEN_FILE File=Z9EN.:Z8A6TSI                             SAT 08/09/97 13:46 Page:46
     0-0-0/w ASTR(324)   r     1 BASED_LEX_SYMBOL
     0-0-0/w STRC(360)         1 BASED_LEX_SYMBOL_WORDS
     0-0-0/w STRC(288)         1 BASE_LTS                   0-0-0/w STRC(108)         1 BINARY_ILL
     0-0-0/w STRC(288)         1 BINARY_OP                  0-0-0/w STRC(396)         1 BLOCK
     0-0-0/w STRC(144)         1 BRANCH_ILL                 0-0-0/w STRC(144)         1 BT
     0-0-0/w STRC(288)         1 CALL_STMT                  0-0-0/w STRC(216)         1 CCOSU
     0-0-0/w STRC(396)         1 CD                         0-0-0/w STRC(288)         1 CD_LTS
     0-0-0/w CHAR(4096)        1 CHARS                      0-0-0/w STRC(396)         1 CLASS
     0-0-0/w STRC(108)         1 CODED_MOVE                 0-0-0/w STRC(288)         1 COMPUTE_STMT
     0-0-0/w STRC(396)         1 CONDITION                  0-0-0/w STRC(396)         1 CONST
     0-0-0/w STRC(72)          1 CONT                       0-0-0/w STRC(540)         1 CONTROL_NAME_LTS
     0-0-0/w STRC(1872)        1 COPY_FILE                  0-0-0/w STRC(396)         1 DB
     0-0-0/w STRC(396)         1 DCB_                       0-0-0/w STRC(288)         1 DEFERED_IDENTIFIER
     0-0-0/w STRC(252)         1 DEFERED_ID_TREE            0-0-0/w STRC(288)         1 DEFERED_QUAL_ID
     0-0-0/w STRC(288)         1 DEFERED_SUM_CLAUSE
     0-0-0/w STRC(288)         1 DEFERED_SUM_CLAUSE_LIST
     0-0-0/w STRC(144)         1 DEFLB                      0-0-0/w STRC(288)         1 DELETE_STMT
     0-0-0/w STRC(108)         1 DEPENDING_SIZE             0-0-0/w STRC(5472)        1 DIMS
     0-0-0/w STRC(288)         1 DIVIDE_STMT                0-0-0/w STRC(396)         1 DML_ITEM
     0-0-0/w STRC(216)         1 DML_REC                    0-0-0/w STRC(144)         1 DOEND
     0-0-0/w STRC(396)         1 DO_N                       0-0-0/w STRC(180)         1 DV4I
     0-0-0/w STRC(180)         1 ENTRY_ILL                  0-0-0/w STRC(180)   r     1 ETT
     0-0-0/w STRC(108)         1 EVALU                      0-0-0/w STRC(73836)       1 EVALUATE
     0-0-0/w STRC(396)         1 FD                         0-0-0/w STRC(1692)  r     1 FILE_LTS
     0-0-0/w STRC(144)         1 GO                         0-0-0/w STRC(180)         1 ILL
     0-0-0/w STRC              1 ILL_NO_OPS                 0-0-0/w STRC(288)         1 ILS_LIST
     0-0-0/w STRC(108)         1 INDEXES                    0-0-0/w STRC(360)         1 INIT_LTS
     0-0-0/w STRC(288)         1 INSPECT_1_STMT             0-0-0/w STRC(288)         1 INSPECT_2_STMT
     0-0-0/w STRC(288)         1 INSPECT_4_STMT             0-0-0/w STRC(396)         1 INTDEF
     0-0-0/w STRC(180)         1 IO_RESTORE_CHAIN           0-0-0/w STRC(144)         1 KEY
     0-0-0/w STRC(396)         1 LABEL                      0-0-0/w STRC(288)         1 LA_ITEM
     0-0-0/w STRC(36864)       1 LCNST                      0-0-0/w STRC(108)         1 LINOI
     0-0-0/w STRC(72)          1 LONG                       0-0-0/w STRC        r     1 LTS
     0-0-0/w STRC(360)   r     1 LTSS                       0-0-0/w STRC(36936)       1 LTS_PTR_ARRAY
     0-0-0/w STRC(504)         1 LX_CD_INPUT                0-0-0/w STRC(324)         1 LX_CD_I_O
     0-0-0/w STRC(396)         1 LX_CD_OUTPUT               0-0-0/w STRC(288)   r     1 LX_ETT_ITEM
     0-0-0/w STRC(288)   r     1 LX_ITEM                    0-0-0/w STRC(288)         1 LX_LARGE
PL6.E3A0      #001=Z9EN$OPEN_FILE File=Z9EN.:Z8A6TSI                             SAT 08/09/97 13:46 Page:47
     0-0-0/w STRC(288)   r     1 LX_LIST                    0-0-0/w STRC(1224)        1 LX_REC_DECL
     0-0-0/w STRC(864)         1 LX_REPORT_REC              0-0-0/w STRC(288)         1 LX_TERMINAL
     0-0-0/w STRC(72)          1 MFILL                      0-0-0/w STRC(396)         1 MNEMONIC
     0-0-0/w STRC(288)         1 MULTIPLY_STMT              0-0-0/w STRC(180)         1 MULTI_GO
     0-0-0/w STRC(180)         1 MVEAL                      0-0-0/w STRC(108)         1 MVFIL
     0-0-0/w STRC(72)          1 MVIIS                      0-0-0/w STRC(144)         1 NEL
     0-0-0/w STRC(216)         1 OPEN_LTS                   0-0-0/w STRC(180)   r     1 OS_CALL
     0-0-0/w STRC(36864)       1 PAGE                       0-0-0/w STRC(396)         1 PARA
     0-0-0/w STRC(216)         1 PFORM                      0-0-0/w STRC(144)         1 PINC
     0-0-0/w STRC(144)         1 PREOFF                     0-0-0/w STRC(108)         1 PRESET
     0-0-0/w STRC(144)         1 PRIME                      0-0-0/w STRC(396)   r     1 PROC_
     0-0-0/w STRC(396)   r     1 PROC_DEF                   0-0-0/w STRC(900)         1 PROC_SUPP
     0-0-0/w STRC(144)         1 P_A_PRESET                 0-0-0/w STRC(144)         1 P_P_PRESET
     0-0-0/w STRC(396)         1 RD                         0-0-0/w STRC(288)         1 READ_STMT
     0-0-0/w STRC(216)         1 REF                        0-0-0/w STRC(144)         1 REMEM
     0-0-0/w STRC(108)         1 RENAMES                    0-0-0/w STRC(720)         1 REPORT_01_LTS
     0-0-0/w STRC(432)         1 REPORT_ELEM_LTS            0-0-0/w STRC(252)         1 REPORT_GRP_LTS
     0-0-0/w STRC(1332)  r     1 REPORT_LTS                 0-0-0/w STRC(288)         1 REWRITE_STMT
     0-0-0/w STRC(144)         1 RVA_LTS                    0-0-0/w STRC(396)   r     1 SCALAR
     0-0-0/w STRC(144)         1 SCOPE                      0-0-0/w STRC(396)         1 SD
     0-0-0/w STRC(216)         1 SEARCH_                    0-0-0/w STRC(396)         1 SECTION
     0-0-0/w STRC(396)         1 SEGMENT                    0-0-0/w STRC(360)         1 SEGMENT_LTS
     0-0-0/w STRC(396)         1 ST                         0-0-0/w STRC(288)         1 START_STMT
     0-0-0/w STRC(72)          1 STP2                       0-0-0/w STRC(252)         1 STRING_STMT
     0-0-0/w STRC(288)         1 SUBTRACT_STMT              0-0-0/w STRC(252)         1 SUM_LTS
     0-0-0/w STRC(396)         1 SWITCH                     0-0-0/w STRC(396)         1 SYMBOLIC_CHAR
     0-0-0/w STRC(396)         1 SYMDEF_                    0-0-0/w STRC(396)         1 SYMREF_
     0-0-0/w STRC(396)         1 TEMP                       0-0-0/w STRC(144)         1 TRINARY_ILL
     0-0-0/w STRC(72)          1 UNARY_ILL                  0-0-0/w STRC(288)         1 UNARY_OP
     0-0-0/w STRC(288)         1 UNSTRING_STMT              0-0-0/d STRC(612)         1 USE
     0-0-0/w STRC(216)         1 USER_CALL                  0-0-0/w STRC(252)         1 USE_SUPP
     0-0-0/w STRC(108)         1 VAL                        0-0-0/w STRC(108)         1 VAL_END
     0-0-0/w STRC(396)   r     1 VARIABLE                   0-0-0/w STRC(72)          1 WHEN
     0-0-0/w STRC(288)         1 WRITE_STMT

PL6.E3A0      #001=Z9EN$OPEN_FILE File=Z9EN.:Z8A6TSI                             SAT 08/09/97 13:46 Page:48

   Procedure Z9EN$OPEN_FILE requires 538 words for executable code.
   Procedure Z9EN$OPEN_FILE requires 50 words of local(AUTO) storage.

PL6.E3A0      #002=Z9EN$READ_RANDOM File=Z9EN.:Z8A6TSI                           SAT 08/09/97 13:49 Page:49
      259        1        /*T***********************************************************/
      260        2        /*T*                                                         */
      261        3        /*T* Copyright (c) Bull HN Information Systems Inc., 1997    */
      262        4        /*T*                                                         */
      263        5        /*T***********************************************************/
      264        6        Z9EN$READ_RANDOM : PROC ( FILE$,
      265        7                                INTO$,
      266        8                                INVALID_ILS_LIST$,
      267        9                                VALID_ILS_LIST$,    /* NOT INVALID */
      268       10                                KEY_OFFSET);
      269       11
      270       12         /*P*
      271       13               NAME : Z9EN$READ_ {RANDOM|NEXT}
      272       14               PURPOSE : To create ILL for the READ statement.
      273       15         */
      274       16
      275       17    1     DCL FILE$        PTR;  /* To LX_ETT_ITEM for file */
      276       18    1     DCL KEY_OFFSET   SBIN;
      277       19    1     DCL INTO$        PTR;  /* To LX_ETT_ITEM for INTO identifier */
      278       20    1     DCL INVALID_ILS_LIST$ PTR;  /* to ILS_LIST for exception clause */
      279       21    1     DCL VALID_ILS_LIST$   PTR;     /* to NOT ILS_LIST for exception clause */
      280       22
      281       23        %EQU PHASE = 1;
      282       24        %INCLUDE Z8A_DEFC;
      283       92        %INCLUDE Z9A_FLAGS;
      284      106        %INCLUDE Z8A_SUPP_MAC;
      285     2506        %INCLUDE Z8E_STACKS;
      286     4772        %INCLUDE Z8E_ILS_LIST;
      287     4856        %INCLUDE Z8A_ILS;
      288     4965        %INCLUDE Z8A_ST;
      289     8624        %INCLUDE Z8A_ETT;
      290     8925        %INCLUDE Z8A_ILL;
      291     9618        %INCLUDE Z8A_TYPES;
      292     9792        %INCLUDE Z8A_QLT;
      293     9898        %INCLUDE Z8E_O1COM;
      294    10659        %INCLUDE Z8E_MACROS;
      295    11334        %INCLUDE Z8A_LTS;
PL6.E3A0      #002=Z9EN$READ_RANDOM File=Z9EN.:Z8A6TSI                           SAT 08/09/97 13:49 Page:50
      296    13411        %INCLUDE Z8E_ABSSYN;
      297    13617        %INCLUDE X9A_IO;                                            /*#42918*/
      298    13767        %INCLUDE Z8A_LIBRARY;
      299    13981        %INCLUDE Z8A_ERR_NUMS;
      300    14745
      301    14746    1   DCL Z8AE$ERROR ENTRY(12);
      302    14747    1   DCL Z9EY$BUILD_RUNTIME_DESCRIPTOR ENTRY(3);
      303    14748    1   DCL Z8EY$BUILD_RUNTIME_ARGLIST    ENTRY(3);
      304    14749    1   DCL Z8EU$CREATE_IDENTIFIER_FROM_ST ENTRY(4);
      305    14750    1   DCL Z8AC$LX_ETT_ITEM_TYI_CONST ENTRY(2);
      306    14751    1   DCL Z8AT$CREATE_TEMPORARY ENTRY (2);
      307    14752    1   DCL Z8EK$BRANCH ENTRY(1);
      308    14753    1   DCL Z8E7$MOVE ENTRY(2);
      309    14754    1   DCL Z9EN$CREATE_MOVE ENTRY(4);                              /*#42918*/
      310    14755
      311    14756          %DCL_AUTO_LX_ITEM (@NAME = FAB);
      312    14760          %DCL_AUTO_LX_ITEM (@NAME = PLIST);
      313    14764          %DCL_AUTO_LX_ITEM (@NAME = ALTRET_PRESENT);
      314    14768          %DCL_AUTO_LX_ITEM (@NAME = KEY_INDEX);
      315    14772          %DCL_AUTO_LX_ITEM (@NAME = FILE_REC);
      316    14776          %DCL_AUTO_LX_ITEM (@NAME = REC_CONTAINS_VAR);
      317    14780          %DCL_AUTO_LX_ITEM (@NAME = READ_LENGTH);
      318    14784
      319    14785    1     DCL RT_DESC_LIST$ PTR;
      320    14786    1     DCL RT_ARG_LIST$  PTR;
      321    14787    1     DCL ALTRET_LABEL$ PTR;
      322    14788    1     DCL END_LABEL$    PTR;
      323    14789    1     DCL FILE_LTS$     PTR;
      324    14790    1     DCL FILE_ST$      PTR;
      325    14791    1     DCL LEN_ST$       PTR;
      326    14792        %EJECT;
PL6.E3A0      #002=Z9EN$READ_RANDOM File=Z9EN.:Z8A6TSI                           SAT 08/09/97 13:49 Page:51
      327    14793    1     SET_UP_READ : PROC;
      328    14794
      329    14795            %FISH (TRIAD = FILE$ -> LX_ETT_ITEM.ETT$,
      330    14796                   RTN = FILE_ST$);
      331    14804
      332    14805            %GET_LTS (@ID = %FILE_LTS,
      333    14806                      @ST$ = FILE_ST$,
      334    14807                      @RETURN$ = FILE_LTS$);
      335    14850
      336    14851    2       IF FILE_LTS$ -> FILE_LTS.FILE_STATUS$ ~= ADDR(NIL) AND  /*#42918*/
      337    14852    2           FILE_LTS$ -> FILE_LTS.FILE_STATUS$ -> SCALAR.B.LINKAGE THEN
      338    14853    2         CALL Z9EN$CREATE_MOVE( FILE_LTS$ -> FILE_LTS.FILE_STATUS$,
      339    14854    2                                O1COM.CURRENT_PROC$ -> PROC_.PROC_DEF$ -> PROC_DEF.
             14854                                         ARGLIST$,
      340    14855    2                                %FILE_STATUS_OFF,
      341    14856    2                                FILE_LTS$ );
      342    14857
      343    14858    2       IF FILE_LTS$ -> FILE_LTS.PAD_CHAR$ ~= ADDR(NIL) AND
      344    14859    2           FILE_LTS$ -> FILE_LTS.PAD_CHAR$ -> SCALAR.B.LINKAGE THEN
      345    14860    2         CALL Z9EN$CREATE_MOVE( FILE_LTS$ -> FILE_LTS.PAD_CHAR$,
      346    14861    2                                O1COM.CURRENT_PROC$ -> PROC_.PROC_DEF$ -> PROC_DEF.
             14861                                         ARGLIST$,
      347    14862    2                                %PAD_CHAR_OFF,
      348    14863    2                                FILE_LTS$ );
      349    14864
      350    14865    2       IF FILE_LTS$ -> FILE_LTS.RELATIVE_KEY$ ~= ADDR(NIL) AND
      351    14866    2           FILE_LTS$ -> FILE_LTS.RELATIVE_KEY$ -> SCALAR.B.LINKAGE THEN
      352    14867    2         CALL Z9EN$CREATE_MOVE( FILE_LTS$ -> FILE_LTS.RELATIVE_KEY$,
      353    14868    2                                O1COM.CURRENT_PROC$ -> PROC_.PROC_DEF$ -> PROC_DEF.
             14868                                         ARGLIST$,
      354    14869    2                                %RELATIVE_KEY_OFF,
      355    14870    2                                FILE_LTS$ );
      356    14871
      357    14872    2       CALL Z8EU$CREATE_IDENTIFIER_FROM_ST
      358    14873    2                (FILE_LTS$ -> FILE_LTS.FAB$,
      359    14874    2                 ADDR(FAB));
      360    14875
PL6.E3A0      #002=Z9EN$READ_RANDOM File=Z9EN.:Z8A6TSI                           SAT 08/09/97 13:49 Page:52
      361    14876    2       IF INVALID_ILS_LIST$ = ADDR(NIL) AND VALID_ILS_LIST$ = ADDR(NIL)  THEN
      362    14877    2         CALL Z8AC$LX_ETT_ITEM_TYI_CONST (FALSE,
      363    14878    2                                          ADDR(ALTRET_PRESENT));
      364    14879    2       ELSE
      365    14880    2         CALL Z8AC$LX_ETT_ITEM_TYI_CONST (TRUE,
      366    14881    2                                          ADDR(ALTRET_PRESENT));
      367    14882
      368    14883            %INIT_LX_LIST (@POINTER = "ADDR(PLIST)");
      369    14893
      370    14894            %ADD_LX_ITEM_TO_LIST_HEAD (@FROM$ = "ADDR(FAB)",
      371    14895                                       @LIST$ = "ADDR(PLIST)");
      372    14904
      373    14905            %ADD_LX_ITEM_TO_LIST_TAIL (@FROM$ = "ADDR(ALTRET_PRESENT)",
      374    14906                                       @LIST$ = "ADDR(PLIST)");
      375    14922
      376    14923    2     END SET_UP_READ;
      377    14924        %EJECT;
PL6.E3A0      #002=Z9EN$READ_RANDOM File=Z9EN.:Z8A6TSI                           SAT 08/09/97 13:49 Page:53
      378    14925    1     FINISH_READ : PROC (READ_TYPE);
      379    14926
      380    14927            %EQU LIB_RETURN_NAME = 'ZL4$RETURN';
      381    14928            %EQU LIB_RETURN_NAME_LENGTH = 10;
      382    14929    2       DCL Z8EO$NEW_SYMREF       ENTRY(3);
      383    14930
      384    14931    2       DCL READ_TYPE SBIN;
      385    14932    2       DCL P$        PTR;
      386    14933
      387    14934
      388    14935    2       CALL Z9EY$BUILD_RUNTIME_DESCRIPTOR (ADDR(PLIST) -> LX_LIST.HEAD$,
      389    14936    2                                           RT_DESC_LIST$,
      390    14937    2                                           ADDR(PLIST) -> LX_LIST.COUNT);
      391    14938
      392    14939    2       CALL Z8EY$BUILD_RUNTIME_ARGLIST (ADDR(PLIST) -> LX_LIST.HEAD$,
      393    14940    2                                        RT_ARG_LIST$,
      394    14941    2                                        ADDR(PLIST) -> LX_LIST.COUNT);
      395    14942
      396    14943    2       CALL Z8AT$CREATE_TEMPORARY (%PARA,
      397    14944    2                                   ALTRET_LABEL$);
      398    14945
      399    14946    2       IF READ_TYPE = %OP_RETURN THEN
      400    14947    3         DO;
      401    14948    3           CALL Z8EO$NEW_SYMREF (%LIB_RETURN_NAME,
      402    14949    3                                 %LIB_RETURN_NAME_LENGTH,
      403    14950    3                                 P$);
      404    14951
      405    14952                %NEW_ILL (@ID               = %USER_CALL,
      406    14953                          @ROP              = RT_DESC_LIST$,
      407    14954                          @LOP              = RT_ARG_LIST$,
      408    14955                          @ALTRET           = ALTRET_LABEL$,
      409    14956                          @DESTINATION$     = P$);
      410    15335    3         END;
      411    15336    2       ELSE
      412    15337              %NEW_ILL (@ID = %OS_CALL,
      413    15338                        @CODE = READ_TYPE,
      414    15339                        @ROP = RT_DESC_LIST$,
PL6.E3A0      #002=Z9EN$READ_RANDOM File=Z9EN.:Z8A6TSI                           SAT 08/09/97 13:49 Page:54
      415    15340                        @LOP = RT_ARG_LIST$,
      416    15341                        @ALTRET = ALTRET_LABEL$);
      417    15720
      418    15721             /* Generate code to move length of record to record contains
      419    15722                   depending on variable */
      420    15723
      421    15724    2       IF FILE_LTS$ -> FILE_LTS.RECORD_CONTAINS.DEPENDING$ ~= ADDR(NIL)
      422    15725    2           AND FILE_LTS$ -> FILE_LTS.LENGTH_READ$ ~= ADDR(NIL) THEN
      423    15726    3         DO;
      424    15727    3           CALL Z8EU$CREATE_IDENTIFIER_FROM_ST
      425    15728    3                   (FILE_LTS$ -> FILE_LTS.RECORD_CONTAINS.DEPENDING$,
      426    15729    3                    ADDR(REC_CONTAINS_VAR));
      427    15730
      428    15731    3           CALL Z8EU$CREATE_IDENTIFIER_FROM_ST
      429    15732    3                   (FILE_LTS$ -> FILE_LTS.LENGTH_READ$,
      430    15733    3                    ADDR(READ_LENGTH));
      431    15734
      432    15735    3           CALL Z8E7$MOVE (ADDR(REC_CONTAINS_VAR),
      433    15736    3                           ADDR(READ_LENGTH));
      434    15737    3         END;
      435    15738
      436    15739             /* Move record into INTO identifier */
      437    15740
      438    15741    2       IF INTO$ ~= ADDR(NIL) THEN
      439    15742    3         DO;
      440    15743    3           IF FILE_LTS$ -> FILE_LTS.RECORD_COUNT ~= 1
      441    15744    3              AND (FILE_LTS$ -> FILE_LTS.B.NON_TYA_RECORDS
      442    15745    3                    OR INTO$ -> LX_ETT_ITEM.TYPE ~= %TYA) THEN
      443    15746                  %CONDITIONAL_ERROR (@LX_ITEM$ = INTO$,
      444    15747                                      @ERROR# = %E$RECORD_COUNT_NON_TYA,
      445    15748                                      @LINE = INTO$ -> LX_ETT_ITEM.LINE,
      446    15749                                      @COLUMN = INTO$ -> LX_ETT_ITEM.COLUMN);
      447    15779
      448    15780    3           ELSE
      449    15781    4             DO;
      450    15782    4               CALL Z8EU$CREATE_IDENTIFIER_FROM_ST (FILE_ST$ -> FD.QLT$ -> QLT.SON ->
             15782                        QLT.ST$,
PL6.E3A0      #002=Z9EN$READ_RANDOM File=Z9EN.:Z8A6TSI                           SAT 08/09/97 13:49 Page:55
      451    15783    4                                                    ADDR(FILE_REC));
      452    15784
      453    15785    4               CALL Z8E7$MOVE (INTO$,
      454    15786    4                               ADDR(FILE_REC));
      455    15787    4             END;
      456    15788    3         END;
      457    15789
      458    15790             /* Add in code for AT END, ON INVALID, or NOT clause */
      459    15791
      460    15792    2        IF VALID_ILS_LIST$ ~= ADDR(NIL)    THEN
      461    15793    3          DO;
      462    15794                 %APPEND_ILS_LIST( @FROM$ = VALID_ILS_LIST$,
      463    15795                                   @TO$ = "ADDR(O1COM.ILS_LIST)" );
      464    15812    3            CALL Z8AT$CREATE_TEMPORARY( %PARA, P$ );
      465    15813    3            P$ -> PARA.B.REFERENCED = TRUE;
      466    15814                 %NEW_ILL( @ID = %DEFLB,
      467    15815                           @LABEL$ = P$ );
      468    16194    3          END;
      469    16195
      470    16196
      471    16197    2        IF INVALID_ILS_LIST$ ~= ADDR(NIL) THEN
      472    16198    3          DO;
      473    16199    3            CALL Z8AT$CREATE_TEMPORARY (%PARA,
      474    16200    3                                        END_LABEL$);
      475    16201
      476    16202    3            CALL Z8EK$BRANCH (END_LABEL$);
      477    16203
      478    16204                 %NEW_ILL (@ID = %DEFLB,
      479    16205                           @LABEL$ = ALTRET_LABEL$);
      480    16584
      481    16585                 %APPEND_ILS_LIST (@FROM$ = INVALID_ILS_LIST$,
      482    16586                                   @TO$ = "ADDR(O1COM.ILS_LIST)");
      483    16603
      484    16604                 %NEW_ILL (@ID = %DEFLB,
      485    16605                           @LABEL$ = END_LABEL$);
      486    16984    3          END;
      487    16985    2        ELSE
PL6.E3A0      #002=Z9EN$READ_RANDOM File=Z9EN.:Z8A6TSI                           SAT 08/09/97 13:49 Page:56
      488    16986    3          DO;
      489    16987                 %NEW_ILL (@ID = %DEFLB,
      490    16988                           @LABEL$ = ALTRET_LABEL$);
      491    17367    3          END;
      492    17368
      493    17369    2     END FINISH_READ;
      494    17370        %EJECT;
PL6.E3A0      #002=Z9EN$READ_RANDOM File=Z9EN.:Z8A6TSI                           SAT 08/09/97 13:49 Page:57
      495    17371        /* Main body of READ_RANDOM */
      496    17372
      497    17373    1   IF NOT FILE$ -> LX_ETT_ITEM.B.ERROR THEN
      498    17374    2     DO;
      499    17375    2       CALL SET_UP_READ;
      500    17376
      501    17377    2       CALL Z8AC$LX_ETT_ITEM_TYI_CONST (KEY_OFFSET,
      502    17378    2                                        ADDR(KEY_INDEX));
      503    17379
      504    17380            %ADD_LX_ITEM_TO_LIST_TAIL (@FROM$ = "ADDR(KEY_INDEX)",
      505    17381                                       @LIST$ = "ADDR(PLIST)");
      506    17397
      507    17398    2       CALL FINISH_READ (%OP_READ_RANDOM);
      508    17399
      509    17400    2     END;
      510    17401
      511    17402    1     RETURN;
      512    17403        %EJECT;
PL6.E3A0      #002=Z9EN$READ_RANDOM File=Z9EN.:Z8A6TSI                           SAT 08/09/97 13:49 Page:58
      513    17404    1   Z9EN$READ_NEXT : ENTRY (FILE$,
      514    17405    1                           INTO$,
      515    17406    1                           INVALID_ILS_LIST$,
      516    17407    1                           VALID_ILS_LIST$ );
      517    17408
      518    17409    1     IF NOT FILE$ -> LX_ETT_ITEM.B.ERROR THEN
      519    17410    2       DO;
      520    17411    2         CALL SET_UP_READ;
      521    17412
      522    17413    2         CALL FINISH_READ (%OP_READ_NEXT);
      523    17414    2       END;
      524    17415
      525    17416    1     RETURN;
      526    17417        %EJECT;
PL6.E3A0      #002=Z9EN$READ_RANDOM File=Z9EN.:Z8A6TSI                           SAT 08/09/97 13:49 Page:59
      527    17418    1   Z9EN$RETURN : ENTRY ( FILE$,
      528    17419    1                         INTO$,
      529    17420    1                         INVALID_ILS_LIST$,
      530    17421    1                         VALID_ILS_LIST$ );
      531    17422
      532    17423    1     IF NOT FILE$ -> LX_ETT_ITEM.B.ERROR THEN
      533    17424    2       DO;
      534    17425              %FISH (TRIAD = FILE$ -> LX_ETT_ITEM.ETT$,
      535    17426                     RTN = FILE_ST$);
      536    17434
      537    17435              %GET_LTS (@ID = %FILE_LTS,
      538    17436                        @ST$ = FILE_ST$,
      539    17437                        @RETURN$ = FILE_LTS$);
      540    17480
      541    17481    2         CALL Z8EU$CREATE_IDENTIFIER_FROM_ST
      542    17482    2                (FILE_ST$ -> FD.QLT$ -> QLT.SON -> QLT.ST$,
      543    17483    2                 ADDR(FILE_REC));
      544    17484
      545    17485              %INIT_LX_LIST (@POINTER = "ADDR(PLIST)");
      546    17495
      547    17496              %ADD_LX_ITEM_TO_LIST_HEAD (@FROM$ = "ADDR(FILE_REC)",
      548    17497                                         @LIST$ = "ADDR(PLIST)");
      549    17506
      550    17507    2         IF FILE_LTS$ -> FILE_LTS.RECORD_CONTAINS.DEPENDING$ = ADDR(NIL) THEN
      551    17508    3           DO;
      552    17509    3             CALL Z8AT$CREATE_TEMPORARY (%SCALAR, LEN_ST$);
      553    17510
      554    17511    3             CALL Z8EU$CREATE_IDENTIFIER_FROM_ST (LEN_ST$,
      555    17512    3                                                  ADDR(REC_CONTAINS_VAR));
      556    17513    3           END;
      557    17514    2         ELSE
      558    17515    2           IF FILE_LTS$ -> FILE_LTS.RECORD_CONTAINS.DEPENDING$ -> SCALAR.TYPE = %TYI
             17515                    THEN
      559    17516    2             CALL Z8EU$CREATE_IDENTIFIER_FROM_ST
      560    17517    2                      (FILE_LTS$ -> FILE_LTS.RECORD_CONTAINS.DEPENDING$,
      561    17518    2                       ADDR(REC_CONTAINS_VAR));
      562    17519    2           ELSE
PL6.E3A0      #002=Z9EN$READ_RANDOM File=Z9EN.:Z8A6TSI                           SAT 08/09/97 13:49 Page:60
      563    17520    3             DO;
      564    17521    3               IF FILE_LTS$ -> FILE_LTS.LENGTH_READ$ = ADDR(NIL) THEN
      565    17522    3                 CALL Z8AT$CREATE_TEMPORARY (%SCALAR,
      566    17523    3                                             FILE_LTS$ -> FILE_LTS.LENGTH_READ$);
      567    17524
      568    17525    3               CALL Z8EU$CREATE_IDENTIFIER_FROM_ST
      569    17526    3                       (FILE_LTS$ -> FILE_LTS.LENGTH_READ$,
      570    17527    3                        ADDR(REC_CONTAINS_VAR));
      571    17528    3             END;
      572    17529
      573    17530              %ADD_LX_ITEM_TO_LIST_TAIL (@FROM$ = "ADDR(REC_CONTAINS_VAR)",
      574    17531                                         @LIST$ = "ADDR(PLIST)");
      575    17547
      576    17548    2         CALL FINISH_READ (%OP_RETURN);
      577    17549    2       END;
      578    17550
      579    17551    1     RETURN;
      580    17552
      581    17553    1   END Z9EN$READ_RANDOM;
      582    17554        %EOD;

PL6.E3A0      #002=Z9EN$READ_RANDOM File=Z9EN.:Z8A6TSI                           SAT 08/09/97 13:49 Page:61
--  Include file information  --

   Z8A_ERR_NUMS.:Z8A6TOU  is referenced.
   Z8A_LIBRARY.:Z8A6TOU  cannot be made into a system file and is referenced.
   X9A_IO.:X8A6TOU  is referenced.
   Z8E_ABSSYN.:Z8A6TOU  cannot be made into a system file and is referenced.
   Z8A_LTS.:Z8A6TOU  cannot be made into a system file and is referenced.
   Z8E_NEW_ILL.:Z8A6TOU  is referenced.
   Z8E_MACROS.:Z8A6TOU  cannot be made into a system file and is referenced.
   Z8E_O1COM.:Z8A6TOU  cannot be made into a system file and is referenced.
   Z8A_QLT.:Z8A6TOU  cannot be made into a system file and is referenced.
   Z8A_TYPES.:Z8A6TOU  is referenced.
   Z8A_ILL.:Z8A6TOU  cannot be made into a system file and is referenced.
   Z8A_ETT.:Z8A6TOU  cannot be made into a system file and is referenced.
   Z8A_ST.:Z8A6TOU  cannot be made into a system file and is referenced.
   Z8A_ILS.:Z8A6TOU  cannot be made into a system file and is referenced.
   Z8E_ILS_LIST.:Z8A6TOU  is referenced.
   Z8A_LEX_SYMB.:Z8A6TOU  cannot be made into a system file and is referenced.
   Z8E_STACKS.:Z8A6TOU  cannot be made into a system file and is referenced.
   X8A_COM_MACS.:X8A6TOU  is referenced.
   Z8A_NAMES.:Z8A6TOU  is referenced.
   Z8A_SUPP_MAC.:Z8A6TOU  is referenced.
   Z9A_FLAGS.:Z8A6TOU  is referenced.
   Z8A_DEFC.:Z8A6TOU  cannot be made into a system file and is referenced.
      No diagnostics issued in procedure Z9EN$READ_RANDOM.

   Procedure Z9EN$READ_RANDOM requires 698 words for executable code.
   Procedure Z9EN$READ_RANDOM requires 92 words of local(AUTO) storage.

PL6.E3A0      #002=Z9EN$READ_RANDOM File=Z9EN.:Z8A6TSI                           SAT 08/09/97 13:49 Page:62

 Object Unit name= Z9EN$READ_RANDOM                           File name= Z9EN.:Z8A6TOU
 UTS= AUG 09 '97 13:49:22.20 SAT                              Compiler= PL-6/E31         Sev=      00
 SharedLib= :SHARED_SYSTEM                                    Alt SharedLib=


    ****  Control sections  ****

 Sect   Type Bound  Init  Size OctSiz  Section name(segment info)
    0  LblCom even  none     1      1  ITERATION
    1  LblCom even  none    90    132  LEX_SYMBOL
    2  LblCom even  none     1      1  CURRENT_LEX_SYMBOL$
    3  LblCom even  none    90    132  TEMP_LEX_SYMBOL
    4  LblCom even  none    90    132  TEMP_LEX_SYMBOL2
    5  LblCom even  none     1      1  ILS$
    6  LblCom even  none     5      5  ILS_
    7  LblCom even  none     1      1  ST$
    8  LblCom even  none     5      5  ST_
    9  LblCom even  none     1      1  ETT$
   10  LblCom even  none     1      1  HEAD_ETT$
   11  LblCom even  none   512   1000  ETT_BUCKETS
   12  LblCom even  none     5      5  ETT_
   13  LblCom even  none     1      1  ILL$
   14  LblCom even  none     5      5  ILL_
   15  LblCom even  none     1      1  QLT$
   16  LblCom even  none     1      1  PREV_01_QLT$
   17  LblCom even  none     5      5  QLT_
   18  LblCom even  none     1      1  LTS$
   19  LblCom even  none     5      5  LTS_
   20  LblCom even  none     8     10  TEMP_LX_NODE
   21  RoData even  UTS      3      3  Z9EN$READ_RANDOM
   22   Proc  even  none   698   1272  Z9EN$READ_RANDOM
   23  RoData even  none    44     54  Z9EN$READ_RANDOM
PL6.E3A0      #002=Z9EN$READ_RANDOM File=Z9EN.:Z8A6TSI                           SAT 08/09/97 13:49 Page:63

    ****  Entry defs  ****

                              Check   Calling
                             calling  sequence
  Sect OctLoc Primary Altret sequence   type   Parms  Name
    22      0   yes            yes      Std        5  Z9EN$READ_RANDOM
    22   1025                  yes      Std        4  Z9EN$READ_NEXT
    22   1043                  yes      Std        4  Z9EN$RETURN

  ****  Entry refs  ****

         Check        Calling
        calling       sequence
Altret sequence SRef   type   Args  Name
         yes           Std       4 Z8EU$CREATE_IDENTIFIER_FROM_ST
         yes           Std       2 Z8AC$LX_ETT_ITEM_TYI_CONST
         yes           Std       2 Z8AT$CREATE_TEMPORARY
         yes           Std       4 Z9EN$CREATE_MOVE
         yes           Std       3 Z9EY$BUILD_RUNTIME_DESCRIPTOR
         yes           Std       3 Z8EO$NEW_SYMREF
         yes           Std       4 Z8AN$NEW_ILL
         yes           Std      12 Z8AE$ERROR
         yes           Std       1 Z8EK$BRANCH
         yes           Std       3 Z8EY$BUILD_RUNTIME_ARGLIST
         yes           Std       2 Z8E7$MOVE
                       nStd      0 X66_AUTO_5
                       nStd      0 X66_ARET

  ****  Data refs  ****

  Flags:  r = read only, s = secondary
Flgs Name                             Flgs Name                             Flgs Name
r    ILS_STEP_TABLE                   r    ILL_STEP                              O1COM
     HIER_STK_PTR                          HIER_STK                              PAGE_FORMAT
     REP_STK_PTR                           REP_STK                          r    LTS_STEP
PL6.E3A0      #002=Z9EN$READ_RANDOM File=Z9EN.:Z8A6TSI                           SAT 08/09/97 13:49 Page:64

  ****  Segment refs  ****

  Flags:  r = read only, s = secondary
Flgs Name                             Flgs Name                             Flgs Name
     ISSID                                 NULLSID
PL6.E3A0      #002=Z9EN$READ_RANDOM File=Z9EN.:Z8A6TSI                           SAT 08/09/97 13:49 Page:65


      259        1        /*T***********************************************************/
      260        2        /*T*                                                         */
      261        3        /*T* Copyright (c) Bull HN Information Systems Inc., 1997    */
      262        4        /*T*                                                         */
      263        5        /*T***********************************************************/
      264        6        Z9EN$READ_RANDOM : PROC ( FILE$,

      6 22 000000   000000 700200 xent  Z9EN$READ_R* TSX0  ! X66_AUTO_5
        22 000001   000134 000005                    ZERO    92,5
        22 000002   000760 710000 22                 TRA     s:17373

      265        7                                INTO$,
      266        8                                INVALID_ILS_LIST$,
      267        9                                VALID_ILS_LIST$,    /* NOT INVALID */
      268       10                                KEY_OFFSET);
      269       11
      270       12         /*P*
      271       13               NAME : Z9EN$READ_ {RANDOM|NEXT}
      272       14               PURPOSE : To create ILL for the READ statement.
      273       15         */
      274       16
      275       17    1     DCL FILE$        PTR;  /* To LX_ETT_ITEM for file */
      276       18    1     DCL KEY_OFFSET   SBIN;
      277       19    1     DCL INTO$        PTR;  /* To LX_ETT_ITEM for INTO identifier */
      278       20    1     DCL INVALID_ILS_LIST$ PTR;  /* to ILS_LIST for exception clause */
      279       21    1     DCL VALID_ILS_LIST$   PTR;     /* to NOT ILS_LIST for exception clause */
      280       22
      281       23        %EQU PHASE = 1;
      282       24        %INCLUDE Z8A_DEFC;
      283       92        %INCLUDE Z9A_FLAGS;
      284      106        %INCLUDE Z8A_SUPP_MAC;
      285     2506        %INCLUDE Z8E_STACKS;
      286     4772        %INCLUDE Z8E_ILS_LIST;
      287     4856        %INCLUDE Z8A_ILS;
      288     4965        %INCLUDE Z8A_ST;
      289     8624        %INCLUDE Z8A_ETT;
PL6.E3A0      #002=Z9EN$READ_RANDOM File=Z9EN.:Z8A6TSI                           SAT 08/09/97 13:49 Page:66
      290     8925        %INCLUDE Z8A_ILL;
      291     9618        %INCLUDE Z8A_TYPES;
      292     9792        %INCLUDE Z8A_QLT;
      293     9898        %INCLUDE Z8E_O1COM;
      294    10659        %INCLUDE Z8E_MACROS;
      295    11334        %INCLUDE Z8A_LTS;
      296    13411        %INCLUDE Z8E_ABSSYN;
      297    13617        %INCLUDE X9A_IO;                                            /*#42918*/
      298    13767        %INCLUDE Z8A_LIBRARY;
      299    13981        %INCLUDE Z8A_ERR_NUMS;
      300    14745
      301    14746    1   DCL Z8AE$ERROR ENTRY(12);
      302    14747    1   DCL Z9EY$BUILD_RUNTIME_DESCRIPTOR ENTRY(3);
      303    14748    1   DCL Z8EY$BUILD_RUNTIME_ARGLIST    ENTRY(3);
      304    14749    1   DCL Z8EU$CREATE_IDENTIFIER_FROM_ST ENTRY(4);
      305    14750    1   DCL Z8AC$LX_ETT_ITEM_TYI_CONST ENTRY(2);
      306    14751    1   DCL Z8AT$CREATE_TEMPORARY ENTRY (2);
      307    14752    1   DCL Z8EK$BRANCH ENTRY(1);
      308    14753    1   DCL Z8E7$MOVE ENTRY(2);
      309    14754    1   DCL Z9EN$CREATE_MOVE ENTRY(4);                              /*#42918*/
      310    14755
      311    14756          %DCL_AUTO_LX_ITEM (@NAME = FAB);
      312    14760          %DCL_AUTO_LX_ITEM (@NAME = PLIST);
      313    14764          %DCL_AUTO_LX_ITEM (@NAME = ALTRET_PRESENT);
      314    14768          %DCL_AUTO_LX_ITEM (@NAME = KEY_INDEX);
      315    14772          %DCL_AUTO_LX_ITEM (@NAME = FILE_REC);
      316    14776          %DCL_AUTO_LX_ITEM (@NAME = REC_CONTAINS_VAR);
      317    14780          %DCL_AUTO_LX_ITEM (@NAME = READ_LENGTH);
      318    14784
      319    14785    1     DCL RT_DESC_LIST$ PTR;
      320    14786    1     DCL RT_ARG_LIST$  PTR;
      321    14787    1     DCL ALTRET_LABEL$ PTR;
      322    14788    1     DCL END_LABEL$    PTR;
      323    14789    1     DCL FILE_LTS$     PTR;
      324    14790    1     DCL FILE_ST$      PTR;
      325    14791    1     DCL LEN_ST$       PTR;
      326    14792        %EJECT;
PL6.E3A0      #002=Z9EN$READ_RANDOM File=Z9EN.:Z8A6TSI                           SAT 08/09/97 13:49 Page:67
      327    14793    1     SET_UP_READ : PROC;

  14793 22 000003   200122 741300       SET_UP_READ  STX1  ! LEN_ST$+2,,AUTO

      328    14794
      329    14795            %FISH (TRIAD = FILE$ -> LX_ETT_ITEM.ETT$,
      330    14796                   RTN = FILE_ST$);

  14798 22 000004   200003 470500                    LDP0    @FILE$,,AUTO
        22 000005   000000 471500                    LDP1    0,,PR0
        22 000006   100001 236100                    LDQ     1,,PR1
        22 000007   200117 756100                    STQ     FILE_ST$,,AUTO

  14799 22 000010   200117 473500                    LDP3    FILE_ST$,,AUTO
        22 000011   300000 220100                    LDX0    0,,PR3
        22 000012   000751 100003                    CMPX0   489,DU
        22 000013   000023 603000 22                 TRC     s:14809

  14800 22 000014   200117 470500                    LDP0    FILE_ST$,,AUTO
        22 000015   000001 236100                    LDQ     1,,PR0
        22 000016   200117 756100                    STQ     FILE_ST$,,AUTO

  14801 22 000017   200117 470500                    LDP0    FILE_ST$,,AUTO
        22 000020   000000 220100                    LDX0    0,,PR0
        22 000021   000751 100003                    CMPX0   489,DU
        22 000022   000014 602000 22                 TNC     s:14800

      331    14804
      332    14805            %GET_LTS (@ID = %FILE_LTS,
      333    14806                      @ST$ = FILE_ST$,
      334    14807                      @RETURN$ = FILE_LTS$);

  14809 22 000023   200117 470500                    LDP0    FILE_ST$,,AUTO
        22 000024   000005 236100                    LDQ     5,,PR0
        22 000025   000000 116000 23                 CMPQ    0
        22 000026   000036 600000 22                 TZE     s:14843
        22 000027   000005 471500                    LDP1    5,,PR0
PL6.E3A0      #002=Z9EN$READ_RANDOM File=Z9EN.:Z8A6TSI                           SAT 08/09/97 13:49 Page:68
        22 000030   100000 220100                    LDX0    0,,PR1
        22 000031   001105 100003                    CMPX0   581,DU
        22 000032   000036 601000 22                 TNZ     s:14843

  14823 22 000033   100006 236100                    LDQ     6,,PR1
        22 000034   200116 756100                    STQ     FILE_LTS$,,AUTO

  14841 22 000035   000050 710000 22                 TRA     s:14851

  14843 22 000036   000000 116000 23                 CMPQ    0
        22 000037   000046 600000 22                 TZE     s:14847
        22 000040   000005 471500                    LDP1    5,,PR0
        22 000041   100000 220100                    LDX0    0,,PR1
        22 000042   001121 100003                    CMPX0   593,DU
        22 000043   000046 601000 22                 TNZ     s:14847

  14845 22 000044   200116 756100                    STQ     FILE_LTS$,,AUTO
        22 000045   000050 710000 22                 TRA     s:14851

  14847 22 000046   000000 236000 23                 LDQ     0
        22 000047   200116 756100                    STQ     FILE_LTS$,,AUTO

      335    14850
      336    14851    2       IF FILE_LTS$ -> FILE_LTS.FILE_STATUS$ ~= ADDR(NIL) AND  /*#42918*/

  14851 22 000050   200116 471500                    LDP1    FILE_LTS$,,AUTO
        22 000051   100012 236100                    LDQ     10,,PR1
        22 000052   000000 116000 23                 CMPQ    0
        22 000053   000077 600000 22                 TZE     s:14858
        22 000054   100012 473500                    LDP3    10,,PR1
        22 000055   300003 236100                    LDQ     3,,PR3
        22 000056   000002 316003                    CANQ    2,DU
        22 000057   000077 600000 22                 TZE     s:14858

      337    14852    2           FILE_LTS$ -> FILE_LTS.FILE_STATUS$ -> SCALAR.B.LINKAGE THEN
      338    14853    2         CALL Z9EN$CREATE_MOVE( FILE_LTS$ -> FILE_LTS.FILE_STATUS$,

PL6.E3A0      #002=Z9EN$READ_RANDOM File=Z9EN.:Z8A6TSI                           SAT 08/09/97 13:49 Page:69
  14853 22 000060   000057 474400 xsym               LDP4    O1COM+47
        22 000061   400006 475500                    LDP5    6,,PR4
        22 000062   200116 636500                    EPPR6   FILE_LTS$,,AUTO
        22 000063   200131 456500                    STP6    P$+5,,AUTO
        22 000064   000003 236000 23                 LDQ     3
        22 000065   200130 756100                    STQ     P$+4,,AUTO
        22 000066   500005 633500                    EPPR3   5,,PR5
        22 000067   200127 453500                    STP3    P$+3,,AUTO
        22 000070   200116 236100                    LDQ     FILE_LTS$,,AUTO
        22 000071   000012 036003                    ADLQ    10,DU
        22 000072   200126 756100                    STQ     P$+2,,AUTO
        22 000073   200126 630500                    EPPR0   P$+2,,AUTO
        22 000074   000001 631400 23                 EPPR1   1
        22 000075   000000 701000 xent               TSX1    Z9EN$CREATE_MOVE
        22 000076   000000 011000                    NOP     0

      339    14854    2                                O1COM.CURRENT_PROC$ -> PROC_.PROC_DEF$ -> PROC_DEF.
             14854                                         ARGLIST$,
      340    14855    2                                %FILE_STATUS_OFF,
      341    14856    2                                FILE_LTS$ );
      342    14857
      343    14858    2       IF FILE_LTS$ -> FILE_LTS.PAD_CHAR$ ~= ADDR(NIL) AND

  14858 22 000077   200116 470500                    LDP0    FILE_LTS$,,AUTO
        22 000100   000007 236100                    LDQ     7,,PR0
        22 000101   000000 116000 23                 CMPQ    0
        22 000102   000126 600000 22                 TZE     s:14865
        22 000103   000007 471500                    LDP1    7,,PR0
        22 000104   100003 236100                    LDQ     3,,PR1
        22 000105   000002 316003                    CANQ    2,DU
        22 000106   000126 600000 22                 TZE     s:14865

      344    14859    2           FILE_LTS$ -> FILE_LTS.PAD_CHAR$ -> SCALAR.B.LINKAGE THEN
      345    14860    2         CALL Z9EN$CREATE_MOVE( FILE_LTS$ -> FILE_LTS.PAD_CHAR$,

  14860 22 000107   000057 473400 xsym               LDP3    O1COM+47
        22 000110   300006 474500                    LDP4    6,,PR3
PL6.E3A0      #002=Z9EN$READ_RANDOM File=Z9EN.:Z8A6TSI                           SAT 08/09/97 13:49 Page:70
        22 000111   200116 635500                    EPPR5   FILE_LTS$,,AUTO
        22 000112   200131 455500                    STP5    P$+5,,AUTO
        22 000113   000005 236000 23                 LDQ     5
        22 000114   200130 756100                    STQ     P$+4,,AUTO
        22 000115   400005 631500                    EPPR1   5,,PR4
        22 000116   200127 451500                    STP1    P$+3,,AUTO
        22 000117   200116 236100                    LDQ     FILE_LTS$,,AUTO
        22 000120   000007 036003                    ADLQ    7,DU
        22 000121   200126 756100                    STQ     P$+2,,AUTO
        22 000122   200126 630500                    EPPR0   P$+2,,AUTO
        22 000123   000001 631400 23                 EPPR1   1
        22 000124   000000 701000 xent               TSX1    Z9EN$CREATE_MOVE
        22 000125   000000 011000                    NOP     0

      346    14861    2                                O1COM.CURRENT_PROC$ -> PROC_.PROC_DEF$ -> PROC_DEF.
             14861                                         ARGLIST$,
      347    14862    2                                %PAD_CHAR_OFF,
      348    14863    2                                FILE_LTS$ );
      349    14864
      350    14865    2       IF FILE_LTS$ -> FILE_LTS.RELATIVE_KEY$ ~= ADDR(NIL) AND

  14865 22 000126   200116 470500                    LDP0    FILE_LTS$,,AUTO
        22 000127   000014 236100                    LDQ     12,,PR0
        22 000130   000000 116000 23                 CMPQ    0
        22 000131   000155 600000 22                 TZE     s:14872
        22 000132   000014 471500                    LDP1    12,,PR0
        22 000133   100003 236100                    LDQ     3,,PR1
        22 000134   000002 316003                    CANQ    2,DU
        22 000135   000155 600000 22                 TZE     s:14872

      351    14866    2           FILE_LTS$ -> FILE_LTS.RELATIVE_KEY$ -> SCALAR.B.LINKAGE THEN
      352    14867    2         CALL Z9EN$CREATE_MOVE( FILE_LTS$ -> FILE_LTS.RELATIVE_KEY$,

  14867 22 000136   000057 473400 xsym               LDP3    O1COM+47
        22 000137   300006 474500                    LDP4    6,,PR3
        22 000140   200116 635500                    EPPR5   FILE_LTS$,,AUTO
        22 000141   200131 455500                    STP5    P$+5,,AUTO
PL6.E3A0      #002=Z9EN$READ_RANDOM File=Z9EN.:Z8A6TSI                           SAT 08/09/97 13:49 Page:71
        22 000142   000007 236000 23                 LDQ     7
        22 000143   200130 756100                    STQ     P$+4,,AUTO
        22 000144   400005 631500                    EPPR1   5,,PR4
        22 000145   200127 451500                    STP1    P$+3,,AUTO
        22 000146   200116 236100                    LDQ     FILE_LTS$,,AUTO
        22 000147   000014 036003                    ADLQ    12,DU
        22 000150   200126 756100                    STQ     P$+2,,AUTO
        22 000151   200126 630500                    EPPR0   P$+2,,AUTO
        22 000152   000001 631400 23                 EPPR1   1
        22 000153   000000 701000 xent               TSX1    Z9EN$CREATE_MOVE
        22 000154   000000 011000                    NOP     0

      353    14868    2                                O1COM.CURRENT_PROC$ -> PROC_.PROC_DEF$ -> PROC_DEF.
             14868                                         ARGLIST$,
      354    14869    2                                %RELATIVE_KEY_OFF,
      355    14870    2                                FILE_LTS$ );
      356    14871
      357    14872    2       CALL Z8EU$CREATE_IDENTIFIER_FROM_ST

  14872 22 000155   200022 630500                    EPPR0   FAB,,AUTO
        22 000156   200126 450500                    STP0    P$+2,,AUTO
        22 000157   200126 631500                    EPPR1   P$+2,,AUTO
        22 000160   200131 451500                    STP1    P$+5,,AUTO
        22 000161   200116 236100                    LDQ     FILE_LTS$,,AUTO
        22 000162   000002 036003                    ADLQ    2,DU
        22 000163   200130 756100                    STQ     P$+4,,AUTO
        22 000164   200130 630500                    EPPR0   P$+4,,AUTO
        22 000165   000010 631400 23                 EPPR1   8
        22 000166   000000 701000 xent               TSX1    Z8EU$CREATE_IDENTIFIER_FROM_ST
        22 000167   000000 011000                    NOP     0

      358    14873    2                (FILE_LTS$ -> FILE_LTS.FAB$,
      359    14874    2                 ADDR(FAB));
      360    14875
      361    14876    2       IF INVALID_ILS_LIST$ = ADDR(NIL) AND VALID_ILS_LIST$ = ADDR(NIL)  THEN

  14876 22 000170   200005 470500                    LDP0    @INVALID_ILS_LIST$,,AUTO
PL6.E3A0      #002=Z9EN$READ_RANDOM File=Z9EN.:Z8A6TSI                           SAT 08/09/97 13:49 Page:72
        22 000171   000000 236100                    LDQ     0,,PR0
        22 000172   000000 116000 23                 CMPQ    0
        22 000173   000213 601000 22                 TNZ     s:14880
        22 000174   200006 471500                    LDP1    @VALID_ILS_LIST$,,AUTO
        22 000175   100000 236100                    LDQ     0,,PR1
        22 000176   000000 116000 23                 CMPQ    0
        22 000177   000213 601000 22                 TNZ     s:14880

      362    14877    2         CALL Z8AC$LX_ETT_ITEM_TYI_CONST (FALSE,

  14877 22 000200   200042 633500                    EPPR3   ALTRET_PRESENT,,AUTO
        22 000201   200126 453500                    STP3    P$+2,,AUTO
        22 000202   200126 634500                    EPPR4   P$+2,,AUTO
        22 000203   200131 454500                    STP4    P$+5,,AUTO
        22 000204   000012 236000 23                 LDQ     10
        22 000205   200130 756100                    STQ     P$+4,,AUTO
        22 000206   200130 630500                    EPPR0   P$+4,,AUTO
        22 000207   000010 631400 23                 EPPR1   8
        22 000210   000000 701000 xent               TSX1    Z8AC$LX_ETT_ITEM_TYI_CONST
        22 000211   000000 011000                    NOP     0
        22 000212   000225 710000 22                 TRA     s:14885

      363    14878    2                                          ADDR(ALTRET_PRESENT));
      364    14879    2       ELSE
      365    14880    2         CALL Z8AC$LX_ETT_ITEM_TYI_CONST (TRUE,

  14880 22 000213   200042 631500                    EPPR1   ALTRET_PRESENT,,AUTO
        22 000214   200126 451500                    STP1    P$+2,,AUTO
        22 000215   200126 633500                    EPPR3   P$+2,,AUTO
        22 000216   200131 453500                    STP3    P$+5,,AUTO
        22 000217   000014 236000 23                 LDQ     12
        22 000220   200130 756100                    STQ     P$+4,,AUTO
        22 000221   200130 630500                    EPPR0   P$+4,,AUTO
        22 000222   000010 631400 23                 EPPR1   8
        22 000223   000000 701000 xent               TSX1    Z8AC$LX_ETT_ITEM_TYI_CONST
        22 000224   000000 011000                    NOP     0

PL6.E3A0      #002=Z9EN$READ_RANDOM File=Z9EN.:Z8A6TSI                           SAT 08/09/97 13:49 Page:73
      366    14881    2                                          ADDR(ALTRET_PRESENT));
      367    14882
      368    14883            %INIT_LX_LIST (@POINTER = "ADDR(PLIST)");

  14885 22 000225   000002 220003                    LDX0    2,DU
        22 000226   200032 740100                    STX0    PLIST,,AUTO

  14886 22 000227   000000 221003                    LDX1    0,DU
        22 000230   200032 441100                    SXL1    PLIST,,AUTO

  14887 22 000231   000000 236000 23                 LDQ     0
        22 000232   200033 756100                    STQ     PLIST+1,,AUTO

  14888 22 000233   200036 756100                    STQ     PLIST+4,,AUTO

  14889 22 000234   200041 756100                    STQ     PLIST+7,,AUTO

  14890 22 000235   200034 450100                    STZ     PLIST+2,,AUTO

      369    14893
      370    14894            %ADD_LX_ITEM_TO_LIST_HEAD (@FROM$ = "ADDR(FAB)",
      371    14895                                       @LIST$ = "ADDR(PLIST)");

  14897 22 000236   200031 756100                    STQ     FAB+7,,AUTO

  14898 22 000237   200022 630500                    EPPR0   FAB,,AUTO
        22 000240   200036 450500                    STP0    PLIST+4,,AUTO

  14899 22 000241   200034 235100                    LDA     PLIST+2,,AUTO
        22 000242   000245 601000 22                 TNZ     s:14901

  14900 22 000243   200022 631500                    EPPR1   FAB,,AUTO
        22 000244   200033 451500                    STP1    PLIST+1,,AUTO

  14901 22 000245   200034 054100                    AOS     PLIST+2,,AUTO

      372    14904
PL6.E3A0      #002=Z9EN$READ_RANDOM File=Z9EN.:Z8A6TSI                           SAT 08/09/97 13:49 Page:74
      373    14905            %ADD_LX_ITEM_TO_LIST_TAIL (@FROM$ = "ADDR(ALTRET_PRESENT)",
      374    14906                                       @LIST$ = "ADDR(PLIST)");

  14908 22 000246   200051 756100                    STQ     ALTRET_PRESENT+7,,AUTO

  14909 22 000247   000255 601000 22                 TNZ     s:14916

  14911 22 000250   200042 631500                    EPPR1   ALTRET_PRESENT,,AUTO
        22 000251   200036 451500                    STP1    PLIST+4,,AUTO

  14912 22 000252   200042 630500                    EPPR0   ALTRET_PRESENT,,AUTO
        22 000253   200033 450500                    STP0    PLIST+1,,AUTO

  14913 22 000254   000262 710000 22                 TRA     s:14919

  14916 22 000255   200042 631500                    EPPR1   ALTRET_PRESENT,,AUTO
        22 000256   200033 473500                    LDP3    PLIST+1,,AUTO
        22 000257   300007 451500                    STP1    7,,PR3

  14917 22 000260   200042 630500                    EPPR0   ALTRET_PRESENT,,AUTO
        22 000261   200033 450500                    STP0    PLIST+1,,AUTO

  14919 22 000262   200034 054100                    AOS     PLIST+2,,AUTO

      375    14922
      376    14923    2     END SET_UP_READ;

  14923 22 000263   200122 221300                    LDX1  ! LEN_ST$+2,,AUTO
        22 000264   000001 702211                    TSX2  ! 1,X1

      377    14924        %EJECT;
PL6.E3A0      #002=Z9EN$READ_RANDOM File=Z9EN.:Z8A6TSI                           SAT 08/09/97 13:49 Page:75
      378    14925    1     FINISH_READ : PROC (READ_TYPE);

  14925 22 000265   200122 741300       FINISH_READ  STX1  ! LEN_ST$+2,,AUTO

      379    14926
      380    14927            %EQU LIB_RETURN_NAME = 'ZL4$RETURN';
      381    14928            %EQU LIB_RETURN_NAME_LENGTH = 10;
      382    14929    2       DCL Z8EO$NEW_SYMREF       ENTRY(3);
      383    14930
      384    14931    2       DCL READ_TYPE SBIN;
      385    14932    2       DCL P$        PTR;
      386    14933
      387    14934
      388    14935    2       CALL Z9EY$BUILD_RUNTIME_DESCRIPTOR (ADDR(PLIST) -> LX_LIST.HEAD$,

  14935 22 000266   200034 630500                    EPPR0   PLIST+2,,AUTO
        22 000267   200130 450500                    STP0    P$+4,,AUTO
        22 000270   200112 631500                    EPPR1   RT_DESC_LIST$,,AUTO
        22 000271   200127 451500                    STP1    P$+3,,AUTO
        22 000272   200036 633500                    EPPR3   PLIST+4,,AUTO
        22 000273   200126 453500                    STP3    P$+2,,AUTO
        22 000274   200126 630500                    EPPR0   P$+2,,AUTO
        22 000275   000015 631400 23                 EPPR1   13
        22 000276   000000 701000 xent               TSX1    Z9EY$BUILD_RUNTIME_DESCRIPTOR
        22 000277   000000 011000                    NOP     0

      389    14936    2                                           RT_DESC_LIST$,
      390    14937    2                                           ADDR(PLIST) -> LX_LIST.COUNT);
      391    14938
      392    14939    2       CALL Z8EY$BUILD_RUNTIME_ARGLIST (ADDR(PLIST) -> LX_LIST.HEAD$,

  14939 22 000300   200034 630500                    EPPR0   PLIST+2,,AUTO
        22 000301   200130 450500                    STP0    P$+4,,AUTO
        22 000302   200113 631500                    EPPR1   RT_ARG_LIST$,,AUTO
        22 000303   200127 451500                    STP1    P$+3,,AUTO
        22 000304   200036 633500                    EPPR3   PLIST+4,,AUTO
        22 000305   200126 453500                    STP3    P$+2,,AUTO
PL6.E3A0      #002=Z9EN$READ_RANDOM File=Z9EN.:Z8A6TSI                           SAT 08/09/97 13:49 Page:76
        22 000306   200126 630500                    EPPR0   P$+2,,AUTO
        22 000307   000015 631400 23                 EPPR1   13
        22 000310   000000 701000 xent               TSX1    Z8EY$BUILD_RUNTIME_ARGLIST
        22 000311   000000 011000                    NOP     0

      393    14940    2                                        RT_ARG_LIST$,
      394    14941    2                                        ADDR(PLIST) -> LX_LIST.COUNT);
      395    14942
      396    14943    2       CALL Z8AT$CREATE_TEMPORARY (%PARA,

  14943 22 000312   200114 630500                    EPPR0   ALTRET_LABEL$,,AUTO
        22 000313   200127 450500                    STP0    P$+3,,AUTO
        22 000314   000017 236000 23                 LDQ     15
        22 000315   200126 756100                    STQ     P$+2,,AUTO
        22 000316   200126 630500                    EPPR0   P$+2,,AUTO
        22 000317   000010 631400 23                 EPPR1   8
        22 000320   000000 701000 xent               TSX1    Z8AT$CREATE_TEMPORARY
        22 000321   000000 011000                    NOP     0

      397    14944    2                                   ALTRET_LABEL$);
      398    14945
      399    14946    2       IF READ_TYPE = %OP_RETURN THEN

  14946 22 000322   200123 470500                    LDP0    @READ_TYPE,,AUTO
        22 000323   000000 235100                    LDA     0,,PR0
        22 000324   000141 115007                    CMPA    97,DL
        22 000325   000366 601000 22                 TNZ     s:15431

      400    14947    3         DO;

      401    14948    3           CALL Z8EO$NEW_SYMREF (%LIB_RETURN_NAME,

  14948 22 000326   200124 631500                    EPPR1   P$,,AUTO
        22 000327   200130 451500                    STP1    P$+4,,AUTO
        22 000330   000022 237000 23                 LDAQ    18
        22 000331   200126 757100                    STAQ    P$+2,,AUTO
        22 000332   200126 630500                    EPPR0   P$+2,,AUTO
PL6.E3A0      #002=Z9EN$READ_RANDOM File=Z9EN.:Z8A6TSI                           SAT 08/09/97 13:49 Page:77
        22 000333   000015 631400 23                 EPPR1   13
        22 000334   000000 701000 xent               TSX1    Z8EO$NEW_SYMREF
        22 000335   000000 011000                    NOP     0

      402    14949    3                                 %LIB_RETURN_NAME_LENGTH,
      403    14950    3                                 P$);
      404    14951
      405    14952                %NEW_ILL (@ID               = %USER_CALL,
      406    14953                          @ROP              = RT_DESC_LIST$,
      407    14954                          @LOP              = RT_ARG_LIST$,
      408    14955                          @ALTRET           = ALTRET_LABEL$,
      409    14956                          @DESTINATION$     = P$);

  15064 22 000336   000025 236000 23                 LDQ     21
        22 000337   200126 756100                    STQ     P$+2,,AUTO
        22 000340   200126 630500                    EPPR0   P$+2,,AUTO
        22 000341   200133 450500                    STP0    P$+7,,AUTO
        22 000342   000026 236000 23                 LDQ     22
        22 000343   200132 756100                    STQ     P$+6,,AUTO
        22 000344   000030 237000 23                 LDAQ    24
        22 000345   200130 757100                    STAQ    P$+4,,AUTO
        22 000346   200130 630500                    EPPR0   P$+4,,AUTO
        22 000347   000001 631400 23                 EPPR1   1
        22 000350   000000 701000 xent               TSX1    Z8AN$NEW_ILL
        22 000351   000000 011000                    NOP     0

  15065 22 000352   200113 236100                    LDQ     RT_ARG_LIST$,,AUTO
        22 000353   000000 470400 13                 LDP0    ILL$
        22 000354   000001 756100                    STQ     1,,PR0

  15066 22 000355   200112 236100                    LDQ     RT_DESC_LIST$,,AUTO
        22 000356   000002 756100                    STQ     2,,PR0

  15067 22 000357   200124 236100                    LDQ     P$,,AUTO
        22 000360   000005 756100                    STQ     5,,PR0

  15068 22 000361   000000 236000 23                 LDQ     0
PL6.E3A0      #002=Z9EN$READ_RANDOM File=Z9EN.:Z8A6TSI                           SAT 08/09/97 13:49 Page:78
        22 000362   000003 756100                    STQ     3,,PR0

  15072 22 000363   200114 236100                    LDQ     ALTRET_LABEL$,,AUTO
        22 000364   000004 756100                    STQ     4,,PR0

      410    15335    3         END;

  15335 22 000365   000415 710000 22                 TRA     s:15724

      411    15336    2       ELSE
      412    15337              %NEW_ILL (@ID = %OS_CALL,
      413    15338                        @CODE = READ_TYPE,
      414    15339                        @ROP = RT_DESC_LIST$,
      415    15340                        @LOP = RT_ARG_LIST$,
      416    15341                        @ALTRET = ALTRET_LABEL$);

  15431 22 000366   000025 236000 23                 LDQ     21
        22 000367   200126 756100                    STQ     P$+2,,AUTO
        22 000370   200126 631500                    EPPR1   P$+2,,AUTO
        22 000371   200133 451500                    STP1    P$+7,,AUTO
        22 000372   000026 236000 23                 LDQ     22
        22 000373   200132 756100                    STQ     P$+6,,AUTO
        22 000374   000034 237000 23                 LDAQ    28
        22 000375   200130 757100                    STAQ    P$+4,,AUTO
        22 000376   200130 630500                    EPPR0   P$+4,,AUTO
        22 000377   000001 631400 23                 EPPR1   1
        22 000400   000000 701000 xent               TSX1    Z8AN$NEW_ILL
        22 000401   000000 011000                    NOP     0

  15432 22 000402   200123 470500                    LDP0    @READ_TYPE,,AUTO
        22 000403   000000 720100                    LXL0    0,,PR0
        22 000404   000000 471400 13                 LDP1    ILL$
        22 000405   100000 440100                    SXL0    0,,PR1

  15433 22 000406   200113 236100                    LDQ     RT_ARG_LIST$,,AUTO
        22 000407   000000 471400 13                 LDP1    ILL$
        22 000410   100001 756100                    STQ     1,,PR1
PL6.E3A0      #002=Z9EN$READ_RANDOM File=Z9EN.:Z8A6TSI                           SAT 08/09/97 13:49 Page:79

  15434 22 000411   200112 236100                    LDQ     RT_DESC_LIST$,,AUTO
        22 000412   100002 756100                    STQ     2,,PR1

  15446 22 000413   200114 236100                    LDQ     ALTRET_LABEL$,,AUTO
        22 000414   100004 756100                    STQ     4,,PR1

      417    15720
      418    15721             /* Generate code to move length of record to record contains
      419    15722                   depending on variable */
      420    15723
      421    15724    2       IF FILE_LTS$ -> FILE_LTS.RECORD_CONTAINS.DEPENDING$ ~= ADDR(NIL)

  15724 22 000415   200116 470500                    LDP0    FILE_LTS$,,AUTO
        22 000416   000025 236100                    LDQ     21,,PR0
        22 000417   000000 116000 23                 CMPQ    0
        22 000420   000466 600000 22                 TZE     s:15741
        22 000421   000053 236100                    LDQ     43,,PR0
        22 000422   000000 116000 23                 CMPQ    0
        22 000423   000466 600000 22                 TZE     s:15741

      422    15725    2           AND FILE_LTS$ -> FILE_LTS.LENGTH_READ$ ~= ADDR(NIL) THEN
      423    15726    3         DO;

      424    15727    3           CALL Z8EU$CREATE_IDENTIFIER_FROM_ST

  15727 22 000424   200072 631500                    EPPR1   REC_CONTAINS_VAR,,AUTO
        22 000425   200126 451500                    STP1    P$+2,,AUTO
        22 000426   200126 633500                    EPPR3   P$+2,,AUTO
        22 000427   200131 453500                    STP3    P$+5,,AUTO
        22 000430   200116 236100                    LDQ     FILE_LTS$,,AUTO
        22 000431   000025 036003                    ADLQ    21,DU
        22 000432   200130 756100                    STQ     P$+4,,AUTO
        22 000433   200130 630500                    EPPR0   P$+4,,AUTO
        22 000434   000010 631400 23                 EPPR1   8
        22 000435   000000 701000 xent               TSX1    Z8EU$CREATE_IDENTIFIER_FROM_ST
        22 000436   000000 011000                    NOP     0
PL6.E3A0      #002=Z9EN$READ_RANDOM File=Z9EN.:Z8A6TSI                           SAT 08/09/97 13:49 Page:80

      425    15728    3                   (FILE_LTS$ -> FILE_LTS.RECORD_CONTAINS.DEPENDING$,
      426    15729    3                    ADDR(REC_CONTAINS_VAR));
      427    15730
      428    15731    3           CALL Z8EU$CREATE_IDENTIFIER_FROM_ST

  15731 22 000437   200102 630500                    EPPR0   READ_LENGTH,,AUTO
        22 000440   200126 450500                    STP0    P$+2,,AUTO
        22 000441   200126 631500                    EPPR1   P$+2,,AUTO
        22 000442   200131 451500                    STP1    P$+5,,AUTO
        22 000443   200116 236100                    LDQ     FILE_LTS$,,AUTO
        22 000444   000053 036003                    ADLQ    43,DU
        22 000445   200130 756100                    STQ     P$+4,,AUTO
        22 000446   200130 630500                    EPPR0   P$+4,,AUTO
        22 000447   000010 631400 23                 EPPR1   8
        22 000450   000000 701000 xent               TSX1    Z8EU$CREATE_IDENTIFIER_FROM_ST
        22 000451   000000 011000                    NOP     0

      429    15732    3                   (FILE_LTS$ -> FILE_LTS.LENGTH_READ$,
      430    15733    3                    ADDR(READ_LENGTH));
      431    15734
      432    15735    3           CALL Z8E7$MOVE (ADDR(REC_CONTAINS_VAR),

  15735 22 000452   200072 630500                    EPPR0   REC_CONTAINS_VAR,,AUTO
        22 000453   200126 450500                    STP0    P$+2,,AUTO
        22 000454   200102 631500                    EPPR1   READ_LENGTH,,AUTO
        22 000455   200127 451500                    STP1    P$+3,,AUTO
        22 000456   200127 633500                    EPPR3   P$+3,,AUTO
        22 000457   200131 453500                    STP3    P$+5,,AUTO
        22 000460   200126 634500                    EPPR4   P$+2,,AUTO
        22 000461   200130 454500                    STP4    P$+4,,AUTO
        22 000462   200130 630500                    EPPR0   P$+4,,AUTO
        22 000463   000010 631400 23                 EPPR1   8
        22 000464   000000 701000 xent               TSX1    Z8E7$MOVE
        22 000465   000000 011000                    NOP     0

      433    15736    3                           ADDR(READ_LENGTH));
PL6.E3A0      #002=Z9EN$READ_RANDOM File=Z9EN.:Z8A6TSI                           SAT 08/09/97 13:49 Page:81
      434    15737    3         END;

      435    15738
      436    15739             /* Move record into INTO identifier */
      437    15740
      438    15741    2       IF INTO$ ~= ADDR(NIL) THEN

  15741 22 000466   200004 470500                    LDP0    @INTO$,,AUTO
        22 000467   000000 236100                    LDQ     0,,PR0
        22 000470   000000 116000 23                 CMPQ    0
        22 000471   000557 600000 22                 TZE     s:15792

      439    15742    3         DO;

      440    15743    3           IF FILE_LTS$ -> FILE_LTS.RECORD_COUNT ~= 1

  15743 22 000472   200116 471500                    LDP1    FILE_LTS$,,AUTO
        22 000473   100055 235100                    LDA     45,,PR1
        22 000474   000001 115007                    CMPA    1,DL
        22 000475   000530 600000 22                 TZE     s:15782
        22 000476   100017 236100                    LDQ     15,,PR1
        22 000477   001000 316007                    CANQ    512,DL
        22 000500   000505 601000 22                 TNZ     s:15759
        22 000501   000000 473500                    LDP3    0,,PR0
        22 000502   300004 235100                    LDA     4,,PR3
        22 000503   000010 115007                    CMPA    8,DL
        22 000504   000530 600000 22                 TZE     s:15782

      441    15744    3              AND (FILE_LTS$ -> FILE_LTS.B.NON_TYA_RECORDS
      442    15745    3                    OR INTO$ -> LX_ETT_ITEM.TYPE ~= %TYA) THEN
      443    15746                  %CONDITIONAL_ERROR (@LX_ITEM$ = INTO$,
      444    15747                                      @ERROR# = %E$RECORD_COUNT_NON_TYA,
      445    15748                                      @LINE = INTO$ -> LX_ETT_ITEM.LINE,
      446    15749                                      @COLUMN = INTO$ -> LX_ETT_ITEM.COLUMN);

  15759 22 000505   000000 473500                    LDP3    0,,PR0
        22 000506   300000 236100                    LDQ     0,,PR3
PL6.E3A0      #002=Z9EN$READ_RANDOM File=Z9EN.:Z8A6TSI                           SAT 08/09/97 13:49 Page:82
        22 000507   400000 316007                    CANQ    -131072,DL
        22 000510   000557 601000 22                 TNZ     s:15792

  15761 22 000511   300006 634500                    EPPR4   6,,PR3
        22 000512   200130 454500                    STP4    P$+4,,AUTO
        22 000513   300005 635500                    EPPR5   5,,PR3
        22 000514   200127 455500                    STP5    P$+3,,AUTO
        22 000515   000036 236000 23                 LDQ     30
        22 000516   200126 756100                    STQ     P$+2,,AUTO
        22 000517   200126 630500                    EPPR0   P$+2,,AUTO
        22 000520   000015 631400 23                 EPPR1   13
        22 000521   000000 701000 xent               TSX1    Z8AE$ERROR
        22 000522   000000 011000                    NOP     0

  15770 22 000523   200004 470500                    LDP0    @INTO$,,AUTO
        22 000524   000000 471500                    LDP1    0,,PR0
        22 000525   400000 236007                    LDQ     -131072,DL
        22 000526   100000 256100                    ORSQ    0,,PR1

  15777 22 000527   000557 710000 22                 TRA     s:15792

      447    15779
      448    15780    3           ELSE
      449    15781    4             DO;

      450    15782    4               CALL Z8EU$CREATE_IDENTIFIER_FROM_ST (FILE_ST$ -> FD.QLT$ -> QLT.SON ->
             15782                        QLT.ST$,

  15782 22 000530   200117 473500                    LDP3    FILE_ST$,,AUTO
        22 000531   300007 474500                    LDP4    7,,PR3
        22 000532   400003 475500                    LDP5    3,,PR4
        22 000533   200062 636500                    EPPR6   FILE_REC,,AUTO
        22 000534   200126 456500                    STP6    P$+2,,AUTO
        22 000535   200126 634500                    EPPR4   P$+2,,AUTO
        22 000536   200131 454500                    STP4    P$+5,,AUTO
        22 000537   500004 637500                    EPPR7   4,,PR5
        22 000540   200130 457500                    STP7    P$+4,,AUTO
PL6.E3A0      #002=Z9EN$READ_RANDOM File=Z9EN.:Z8A6TSI                           SAT 08/09/97 13:49 Page:83
        22 000541   200130 630500                    EPPR0   P$+4,,AUTO
        22 000542   000010 631400 23                 EPPR1   8
        22 000543   000000 701000 xent               TSX1    Z8EU$CREATE_IDENTIFIER_FROM_ST
        22 000544   000000 011000                    NOP     0

      451    15783    4                                                    ADDR(FILE_REC));
      452    15784
      453    15785    4               CALL Z8E7$MOVE (INTO$,

  15785 22 000545   200062 630500                    EPPR0   FILE_REC,,AUTO
        22 000546   200126 450500                    STP0    P$+2,,AUTO
        22 000547   200126 631500                    EPPR1   P$+2,,AUTO
        22 000550   200131 451500                    STP1    P$+5,,AUTO
        22 000551   200004 236100                    LDQ     @INTO$,,AUTO
        22 000552   200130 756100                    STQ     P$+4,,AUTO
        22 000553   200130 630500                    EPPR0   P$+4,,AUTO
        22 000554   000010 631400 23                 EPPR1   8
        22 000555   000000 701000 xent               TSX1    Z8E7$MOVE
        22 000556   000000 011000                    NOP     0

      454    15786    4                               ADDR(FILE_REC));
      455    15787    4             END;

      456    15788    3         END;

      457    15789
      458    15790             /* Add in code for AT END, ON INVALID, or NOT clause */
      459    15791
      460    15792    2        IF VALID_ILS_LIST$ ~= ADDR(NIL)    THEN

  15792 22 000557   200006 470500                    LDP0    @VALID_ILS_LIST$,,AUTO
        22 000560   000000 236100                    LDQ     0,,PR0
        22 000561   000000 116000 23                 CMPQ    0
        22 000562   000635 600000 22                 TZE     s:16197

      461    15793    3          DO;

PL6.E3A0      #002=Z9EN$READ_RANDOM File=Z9EN.:Z8A6TSI                           SAT 08/09/97 13:49 Page:84
      462    15794                 %APPEND_ILS_LIST( @FROM$ = VALID_ILS_LIST$,
      463    15795                                   @TO$ = "ADDR(O1COM.ILS_LIST)" );

  15801 22 000563   000000 471500                    LDP1    0,,PR0
        22 000564   100001 236100                    LDQ     1,,PR1
        22 000565   000000 116000 23                 CMPQ    0
        22 000566   000603 600000 22                 TZE     s:15812

  15802 22 000567   000017 236000 xsym               LDQ     O1COM+15
        22 000570   000000 116000 23                 CMPQ    0
        22 000571   000575 601000 22                 TNZ     s:15806

  15803 22 000572   100001 236100                    LDQ     1,,PR1
        22 000573   000017 756000 xsym               STQ     O1COM+15

  15804 22 000574   000600 710000 22                 TRA     s:15808

  15806 22 000575   100001 236100                    LDQ     1,,PR1
        22 000576   000020 473400 xsym               LDP3    O1COM+16
        22 000577   300002 756100                    STQ     2,,PR3

  15808 22 000600   000000 471500                    LDP1    0,,PR0
        22 000601   100002 236100                    LDQ     2,,PR1
        22 000602   000020 756000 xsym               STQ     O1COM+16

      464    15812    3            CALL Z8AT$CREATE_TEMPORARY( %PARA, P$ );

  15812 22 000603   200124 631500                    EPPR1   P$,,AUTO
        22 000604   200127 451500                    STP1    P$+3,,AUTO
        22 000605   000017 236000 23                 LDQ     15
        22 000606   200126 756100                    STQ     P$+2,,AUTO
        22 000607   200126 630500                    EPPR0   P$+2,,AUTO
        22 000610   000010 631400 23                 EPPR1   8
        22 000611   000000 701000 xent               TSX1    Z8AT$CREATE_TEMPORARY
        22 000612   000000 011000                    NOP     0

      465    15813    3            P$ -> PARA.B.REFERENCED = TRUE;
PL6.E3A0      #002=Z9EN$READ_RANDOM File=Z9EN.:Z8A6TSI                           SAT 08/09/97 13:49 Page:85

  15813 22 000613   200124 470500                    LDP0    P$,,AUTO
        22 000614   400000 236003                    LDQ     -131072,DU
        22 000615   000003 256100                    ORSQ    3,,PR0

      466    15814                 %NEW_ILL( @ID = %DEFLB,
      467    15815                           @LABEL$ = P$ );

  16147 22 000616   000025 236000 23                 LDQ     21
        22 000617   200126 756100                    STQ     P$+2,,AUTO
        22 000620   200126 630500                    EPPR0   P$+2,,AUTO
        22 000621   200133 450500                    STP0    P$+7,,AUTO
        22 000622   000026 236000 23                 LDQ     22
        22 000623   200132 756100                    STQ     P$+6,,AUTO
        22 000624   000042 237000 23                 LDAQ    34
        22 000625   200130 757100                    STAQ    P$+4,,AUTO
        22 000626   200130 630500                    EPPR0   P$+4,,AUTO
        22 000627   000001 631400 23                 EPPR1   1
        22 000630   000000 701000 xent               TSX1    Z8AN$NEW_ILL
        22 000631   000000 011000                    NOP     0

  16148 22 000632   200124 236100                    LDQ     P$,,AUTO
        22 000633   000000 470400 13                 LDP0    ILL$
        22 000634   000001 756100                    STQ     1,,PR0

      468    16194    3          END;

      469    16195
      470    16196
      471    16197    2        IF INVALID_ILS_LIST$ ~= ADDR(NIL) THEN

  16197 22 000635   200005 470500                    LDP0    @INVALID_ILS_LIST$,,AUTO
        22 000636   000000 236100                    LDQ     0,,PR0
        22 000637   000000 116000 23                 CMPQ    0
        22 000640   000737 600000 22                 TZE     s:17320

      472    16198    3          DO;
PL6.E3A0      #002=Z9EN$READ_RANDOM File=Z9EN.:Z8A6TSI                           SAT 08/09/97 13:49 Page:86

      473    16199    3            CALL Z8AT$CREATE_TEMPORARY (%PARA,

  16199 22 000641   200115 631500                    EPPR1   END_LABEL$,,AUTO
        22 000642   200127 451500                    STP1    P$+3,,AUTO
        22 000643   000017 236000 23                 LDQ     15
        22 000644   200126 756100                    STQ     P$+2,,AUTO
        22 000645   200126 630500                    EPPR0   P$+2,,AUTO
        22 000646   000010 631400 23                 EPPR1   8
        22 000647   000000 701000 xent               TSX1    Z8AT$CREATE_TEMPORARY
        22 000650   000000 011000                    NOP     0

      474    16200    3                                        END_LABEL$);
      475    16201
      476    16202    3            CALL Z8EK$BRANCH (END_LABEL$);

  16202 22 000651   200115 630500                    EPPR0   END_LABEL$,,AUTO
        22 000652   200126 450500                    STP0    P$+2,,AUTO
        22 000653   200126 630500                    EPPR0   P$+2,,AUTO
        22 000654   000041 631400 23                 EPPR1   33
        22 000655   000000 701000 xent               TSX1    Z8EK$BRANCH
        22 000656   000000 011000                    NOP     0

      477    16203
      478    16204                 %NEW_ILL (@ID = %DEFLB,
      479    16205                           @LABEL$ = ALTRET_LABEL$);

  16537 22 000657   000025 236000 23                 LDQ     21
        22 000660   200126 756100                    STQ     P$+2,,AUTO
        22 000661   200126 630500                    EPPR0   P$+2,,AUTO
        22 000662   200133 450500                    STP0    P$+7,,AUTO
        22 000663   000026 236000 23                 LDQ     22
        22 000664   200132 756100                    STQ     P$+6,,AUTO
        22 000665   000042 237000 23                 LDAQ    34
        22 000666   200130 757100                    STAQ    P$+4,,AUTO
        22 000667   200130 630500                    EPPR0   P$+4,,AUTO
        22 000670   000001 631400 23                 EPPR1   1
PL6.E3A0      #002=Z9EN$READ_RANDOM File=Z9EN.:Z8A6TSI                           SAT 08/09/97 13:49 Page:87
        22 000671   000000 701000 xent               TSX1    Z8AN$NEW_ILL
        22 000672   000000 011000                    NOP     0

  16538 22 000673   200114 236100                    LDQ     ALTRET_LABEL$,,AUTO
        22 000674   000000 470400 13                 LDP0    ILL$
        22 000675   000001 756100                    STQ     1,,PR0

      480    16584
      481    16585                 %APPEND_ILS_LIST (@FROM$ = INVALID_ILS_LIST$,
      482    16586                                   @TO$ = "ADDR(O1COM.ILS_LIST)");

  16592 22 000676   200005 471500                    LDP1    @INVALID_ILS_LIST$,,AUTO
        22 000677   100000 473500                    LDP3    0,,PR1
        22 000700   300001 236100                    LDQ     1,,PR3
        22 000701   000000 116000 23                 CMPQ    0
        22 000702   000717 600000 22                 TZE     s:16937

  16593 22 000703   000017 236000 xsym               LDQ     O1COM+15
        22 000704   000000 116000 23                 CMPQ    0
        22 000705   000711 601000 22                 TNZ     s:16597

  16594 22 000706   300001 236100                    LDQ     1,,PR3
        22 000707   000017 756000 xsym               STQ     O1COM+15

  16595 22 000710   000714 710000 22                 TRA     s:16599

  16597 22 000711   300001 236100                    LDQ     1,,PR3
        22 000712   000020 474400 xsym               LDP4    O1COM+16
        22 000713   400002 756100                    STQ     2,,PR4

  16599 22 000714   100000 473500                    LDP3    0,,PR1
        22 000715   300002 236100                    LDQ     2,,PR3
        22 000716   000020 756000 xsym               STQ     O1COM+16

      483    16603
      484    16604                 %NEW_ILL (@ID = %DEFLB,
      485    16605                           @LABEL$ = END_LABEL$);
PL6.E3A0      #002=Z9EN$READ_RANDOM File=Z9EN.:Z8A6TSI                           SAT 08/09/97 13:49 Page:88

  16937 22 000717   000025 236000 23                 LDQ     21
        22 000720   200126 756100                    STQ     P$+2,,AUTO
        22 000721   200126 633500                    EPPR3   P$+2,,AUTO
        22 000722   200133 453500                    STP3    P$+7,,AUTO
        22 000723   000026 236000 23                 LDQ     22
        22 000724   200132 756100                    STQ     P$+6,,AUTO
        22 000725   000042 237000 23                 LDAQ    34
        22 000726   200130 757100                    STAQ    P$+4,,AUTO
        22 000727   200130 630500                    EPPR0   P$+4,,AUTO
        22 000730   000001 631400 23                 EPPR1   1
        22 000731   000000 701000 xent               TSX1    Z8AN$NEW_ILL
        22 000732   000000 011000                    NOP     0

  16938 22 000733   200115 236100                    LDQ     END_LABEL$,,AUTO
        22 000734   000000 470400 13                 LDP0    ILL$
        22 000735   000001 756100                    STQ     1,,PR0

      486    16984    3          END;

  16984 22 000736   000756 710000 22                 TRA     s:17369

      487    16985    2        ELSE
      488    16986    3          DO;

      489    16987                 %NEW_ILL (@ID = %DEFLB,
      490    16988                           @LABEL$ = ALTRET_LABEL$);

  17320 22 000737   000025 236000 23                 LDQ     21
        22 000740   200126 756100                    STQ     P$+2,,AUTO
        22 000741   200126 631500                    EPPR1   P$+2,,AUTO
        22 000742   200133 451500                    STP1    P$+7,,AUTO
        22 000743   000026 236000 23                 LDQ     22
        22 000744   200132 756100                    STQ     P$+6,,AUTO
        22 000745   000042 237000 23                 LDAQ    34
        22 000746   200130 757100                    STAQ    P$+4,,AUTO
        22 000747   200130 630500                    EPPR0   P$+4,,AUTO
PL6.E3A0      #002=Z9EN$READ_RANDOM File=Z9EN.:Z8A6TSI                           SAT 08/09/97 13:49 Page:89
        22 000750   000001 631400 23                 EPPR1   1
        22 000751   000000 701000 xent               TSX1    Z8AN$NEW_ILL
        22 000752   000000 011000                    NOP     0

  17321 22 000753   200114 236100                    LDQ     ALTRET_LABEL$,,AUTO
        22 000754   000000 470400 13                 LDP0    ILL$
        22 000755   000001 756100                    STQ     1,,PR0

      491    17367    3          END;

      492    17368
      493    17369    2     END FINISH_READ;

  17369 22 000756   200122 221300                    LDX1  ! LEN_ST$+2,,AUTO
        22 000757   000001 702211                    TSX2  ! 1,X1

      494    17370        %EJECT;
PL6.E3A0      #002=Z9EN$READ_RANDOM File=Z9EN.:Z8A6TSI                           SAT 08/09/97 13:49 Page:90
      495    17371        /* Main body of READ_RANDOM */
      496    17372
      497    17373    1   IF NOT FILE$ -> LX_ETT_ITEM.B.ERROR THEN

  17373 22 000760   200003 470500                    LDP0    @FILE$,,AUTO
        22 000761   000000 471500                    LDP1    0,,PR0
        22 000762   100000 236100                    LDQ     0,,PR1
        22 000763   400000 316007                    CANQ    -131072,DL
        22 000764   001024 601000 22                 TNZ     s:17402

      498    17374    2     DO;

      499    17375    2       CALL SET_UP_READ;

  17375 22 000765   000003 701000 22                 TSX1    SET_UP_READ
        22 000766   000000 011000                    NOP     0

      500    17376
      501    17377    2       CALL Z8AC$LX_ETT_ITEM_TYI_CONST (KEY_OFFSET,

  17377 22 000767   200052 630500                    EPPR0   KEY_INDEX,,AUTO
        22 000770   200126 450500                    STP0    P$+2,,AUTO
        22 000771   200126 631500                    EPPR1   P$+2,,AUTO
        22 000772   200131 451500                    STP1    P$+5,,AUTO
        22 000773   200007 236100                    LDQ     @KEY_OFFSET,,AUTO
        22 000774   200130 756100                    STQ     P$+4,,AUTO
        22 000775   200130 630500                    EPPR0   P$+4,,AUTO
        22 000776   000010 631400 23                 EPPR1   8
        22 000777   000000 701000 xent               TSX1    Z8AC$LX_ETT_ITEM_TYI_CONST
        22 001000   000000 011000                    NOP     0

      502    17378    2                                        ADDR(KEY_INDEX));
      503    17379
      504    17380            %ADD_LX_ITEM_TO_LIST_TAIL (@FROM$ = "ADDR(KEY_INDEX)",
      505    17381                                       @LIST$ = "ADDR(PLIST)");

  17383 22 001001   000000 236000 23                 LDQ     0
PL6.E3A0      #002=Z9EN$READ_RANDOM File=Z9EN.:Z8A6TSI                           SAT 08/09/97 13:49 Page:91
        22 001002   200061 756100                    STQ     KEY_INDEX+7,,AUTO

  17384 22 001003   200034 235100                    LDA     PLIST+2,,AUTO
        22 001004   001012 601000 22                 TNZ     s:17391

  17386 22 001005   200052 630500                    EPPR0   KEY_INDEX,,AUTO
        22 001006   200036 450500                    STP0    PLIST+4,,AUTO

  17387 22 001007   200052 631500                    EPPR1   KEY_INDEX,,AUTO
        22 001010   200033 451500                    STP1    PLIST+1,,AUTO

  17388 22 001011   001017 710000 22                 TRA     s:17394

  17391 22 001012   200052 630500                    EPPR0   KEY_INDEX,,AUTO
        22 001013   200033 471500                    LDP1    PLIST+1,,AUTO
        22 001014   100007 450500                    STP0    7,,PR1

  17392 22 001015   200052 630500                    EPPR0   KEY_INDEX,,AUTO
        22 001016   200033 450500                    STP0    PLIST+1,,AUTO

  17394 22 001017   200034 054100                    AOS     PLIST+2,,AUTO

      506    17397
      507    17398    2       CALL FINISH_READ (%OP_READ_RANDOM);

  17398 22 001020   000045 236000 23                 LDQ     37
        22 001021   200123 756100                    STQ     LEN_ST$+3,,AUTO
        22 001022   000265 701000 22                 TSX1    FINISH_READ
        22 001023   000000 011000                    NOP     0

      508    17399
      509    17400    2     END;

      510    17401
      511    17402    1     RETURN;

  17402 22 001024   000000 702200 xent               TSX2  ! X66_ARET
PL6.E3A0      #002=Z9EN$READ_RANDOM File=Z9EN.:Z8A6TSI                           SAT 08/09/97 13:49 Page:92

      512    17403        %EJECT;
PL6.E3A0      #002=Z9EN$READ_RANDOM File=Z9EN.:Z8A6TSI                           SAT 08/09/97 13:49 Page:93
      513    17404    1   Z9EN$READ_NEXT : ENTRY (FILE$,

  17404 22 001025   000000 700200 xent  Z9EN$READ_N* TSX0  ! X66_AUTO_5
        22 001026   000134 000005                    ZERO    92,5

      514    17405    1                           INTO$,
      515    17406    1                           INVALID_ILS_LIST$,
      516    17407    1                           VALID_ILS_LIST$ );
      517    17408
      518    17409    1     IF NOT FILE$ -> LX_ETT_ITEM.B.ERROR THEN

  17409 22 001027   200003 470500                    LDP0    @FILE$,,AUTO
        22 001030   000000 471500                    LDP1    0,,PR0
        22 001031   100000 236100                    LDQ     0,,PR1
        22 001032   400000 316007                    CANQ    -131072,DL
        22 001033   001042 601000 22                 TNZ     s:17416

      519    17410    2       DO;

      520    17411    2         CALL SET_UP_READ;

  17411 22 001034   000003 701000 22                 TSX1    SET_UP_READ
        22 001035   000000 011000                    NOP     0

      521    17412
      522    17413    2         CALL FINISH_READ (%OP_READ_NEXT);

  17413 22 001036   000047 236000 23                 LDQ     39
        22 001037   200123 756100                    STQ     LEN_ST$+3,,AUTO
        22 001040   000265 701000 22                 TSX1    FINISH_READ
        22 001041   000000 011000                    NOP     0

      523    17414    2       END;

      524    17415
      525    17416    1     RETURN;

PL6.E3A0      #002=Z9EN$READ_RANDOM File=Z9EN.:Z8A6TSI                           SAT 08/09/97 13:49 Page:94
  17416 22 001042   000000 702200 xent               TSX2  ! X66_ARET

      526    17417        %EJECT;
PL6.E3A0      #002=Z9EN$READ_RANDOM File=Z9EN.:Z8A6TSI                           SAT 08/09/97 13:49 Page:95
      527    17418    1   Z9EN$RETURN : ENTRY ( FILE$,

  17418 22 001043   000000 700200 xent  Z9EN$RETURN  TSX0  ! X66_AUTO_5
        22 001044   000134 000005                    ZERO    92,5

      528    17419    1                         INTO$,
      529    17420    1                         INVALID_ILS_LIST$,
      530    17421    1                         VALID_ILS_LIST$ );
      531    17422
      532    17423    1     IF NOT FILE$ -> LX_ETT_ITEM.B.ERROR THEN

  17423 22 001045   200003 470500                    LDP0    @FILE$,,AUTO
        22 001046   000000 471500                    LDP1    0,,PR0
        22 001047   100000 236100                    LDQ     0,,PR1
        22 001050   400000 316007                    CANQ    -131072,DL
        22 001051   001271 601000 22                 TNZ     s:17551

      533    17424    2       DO;

      534    17425              %FISH (TRIAD = FILE$ -> LX_ETT_ITEM.ETT$,
      535    17426                     RTN = FILE_ST$);

  17428 22 001052   100001 236100                    LDQ     1,,PR1
        22 001053   200117 756100                    STQ     FILE_ST$,,AUTO

  17429 22 001054   200117 473500                    LDP3    FILE_ST$,,AUTO
        22 001055   300000 220100                    LDX0    0,,PR3
        22 001056   000751 100003                    CMPX0   489,DU
        22 001057   001067 603000 22                 TRC     s:17439

  17430 22 001060   200117 470500                    LDP0    FILE_ST$,,AUTO
        22 001061   000001 236100                    LDQ     1,,PR0
        22 001062   200117 756100                    STQ     FILE_ST$,,AUTO

  17431 22 001063   200117 470500                    LDP0    FILE_ST$,,AUTO
        22 001064   000000 220100                    LDX0    0,,PR0
        22 001065   000751 100003                    CMPX0   489,DU
PL6.E3A0      #002=Z9EN$READ_RANDOM File=Z9EN.:Z8A6TSI                           SAT 08/09/97 13:49 Page:96
        22 001066   001060 602000 22                 TNC     s:17430

      536    17434
      537    17435              %GET_LTS (@ID = %FILE_LTS,
      538    17436                        @ST$ = FILE_ST$,
      539    17437                        @RETURN$ = FILE_LTS$);

  17439 22 001067   200117 470500                    LDP0    FILE_ST$,,AUTO
        22 001070   000005 236100                    LDQ     5,,PR0
        22 001071   000000 116000 23                 CMPQ    0
        22 001072   001102 600000 22                 TZE     s:17473
        22 001073   000005 471500                    LDP1    5,,PR0
        22 001074   100000 220100                    LDX0    0,,PR1
        22 001075   001105 100003                    CMPX0   581,DU
        22 001076   001102 601000 22                 TNZ     s:17473

  17453 22 001077   100006 236100                    LDQ     6,,PR1
        22 001100   200116 756100                    STQ     FILE_LTS$,,AUTO

  17471 22 001101   001114 710000 22                 TRA     s:17481

  17473 22 001102   000000 116000 23                 CMPQ    0
        22 001103   001112 600000 22                 TZE     s:17477
        22 001104   000005 471500                    LDP1    5,,PR0
        22 001105   100000 220100                    LDX0    0,,PR1
        22 001106   001121 100003                    CMPX0   593,DU
        22 001107   001112 601000 22                 TNZ     s:17477

  17475 22 001110   200116 756100                    STQ     FILE_LTS$,,AUTO
        22 001111   001114 710000 22                 TRA     s:17481

  17477 22 001112   000000 236000 23                 LDQ     0
        22 001113   200116 756100                    STQ     FILE_LTS$,,AUTO

      540    17480
      541    17481    2         CALL Z8EU$CREATE_IDENTIFIER_FROM_ST

PL6.E3A0      #002=Z9EN$READ_RANDOM File=Z9EN.:Z8A6TSI                           SAT 08/09/97 13:49 Page:97
  17481 22 001114   000007 471500                    LDP1    7,,PR0
        22 001115   100003 473500                    LDP3    3,,PR1
        22 001116   200062 634500                    EPPR4   FILE_REC,,AUTO
        22 001117   200126 454500                    STP4    P$+2,,AUTO
        22 001120   200126 631500                    EPPR1   P$+2,,AUTO
        22 001121   200131 451500                    STP1    P$+5,,AUTO
        22 001122   300004 635500                    EPPR5   4,,PR3
        22 001123   200130 455500                    STP5    P$+4,,AUTO
        22 001124   200130 630500                    EPPR0   P$+4,,AUTO
        22 001125   000010 631400 23                 EPPR1   8
        22 001126   000000 701000 xent               TSX1    Z8EU$CREATE_IDENTIFIER_FROM_ST
        22 001127   000000 011000                    NOP     0

      542    17482    2                (FILE_ST$ -> FD.QLT$ -> QLT.SON -> QLT.ST$,
      543    17483    2                 ADDR(FILE_REC));
      544    17484
      545    17485              %INIT_LX_LIST (@POINTER = "ADDR(PLIST)");

  17487 22 001130   000002 220003                    LDX0    2,DU
        22 001131   200032 740100                    STX0    PLIST,,AUTO

  17488 22 001132   000000 221003                    LDX1    0,DU
        22 001133   200032 441100                    SXL1    PLIST,,AUTO

  17489 22 001134   000000 236000 23                 LDQ     0
        22 001135   200033 756100                    STQ     PLIST+1,,AUTO

  17490 22 001136   200036 756100                    STQ     PLIST+4,,AUTO

  17491 22 001137   200041 756100                    STQ     PLIST+7,,AUTO

  17492 22 001140   200034 450100                    STZ     PLIST+2,,AUTO

      546    17495
      547    17496              %ADD_LX_ITEM_TO_LIST_HEAD (@FROM$ = "ADDR(FILE_REC)",
      548    17497                                         @LIST$ = "ADDR(PLIST)");

PL6.E3A0      #002=Z9EN$READ_RANDOM File=Z9EN.:Z8A6TSI                           SAT 08/09/97 13:49 Page:98
  17499 22 001141   200071 756100                    STQ     FILE_REC+7,,AUTO

  17500 22 001142   200062 630500                    EPPR0   FILE_REC,,AUTO
        22 001143   200036 450500                    STP0    PLIST+4,,AUTO

  17501 22 001144   200034 235100                    LDA     PLIST+2,,AUTO
        22 001145   001150 601000 22                 TNZ     s:17503

  17502 22 001146   200062 631500                    EPPR1   FILE_REC,,AUTO
        22 001147   200033 451500                    STP1    PLIST+1,,AUTO

  17503 22 001150   200034 054100                    AOS     PLIST+2,,AUTO

      549    17506
      550    17507    2         IF FILE_LTS$ -> FILE_LTS.RECORD_CONTAINS.DEPENDING$ = ADDR(NIL) THEN

  17507 22 001151   200116 471500                    LDP1    FILE_LTS$,,AUTO
        22 001152   100025 236100                    LDQ     21,,PR1
        22 001153   000000 116000 23                 CMPQ    0
        22 001154   001200 601000 22                 TNZ     s:17515

      551    17508    3           DO;

      552    17509    3             CALL Z8AT$CREATE_TEMPORARY (%SCALAR, LEN_ST$);

  17509 22 001155   200120 633500                    EPPR3   LEN_ST$,,AUTO
        22 001156   200127 453500                    STP3    P$+3,,AUTO
        22 001157   000051 236000 23                 LDQ     41
        22 001160   200126 756100                    STQ     P$+2,,AUTO
        22 001161   200126 630500                    EPPR0   P$+2,,AUTO
        22 001162   000010 631400 23                 EPPR1   8
        22 001163   000000 701000 xent               TSX1    Z8AT$CREATE_TEMPORARY
        22 001164   000000 011000                    NOP     0

      553    17510
      554    17511    3             CALL Z8EU$CREATE_IDENTIFIER_FROM_ST (LEN_ST$,

PL6.E3A0      #002=Z9EN$READ_RANDOM File=Z9EN.:Z8A6TSI                           SAT 08/09/97 13:49 Page:99
  17511 22 001165   200072 630500                    EPPR0   REC_CONTAINS_VAR,,AUTO
        22 001166   200126 450500                    STP0    P$+2,,AUTO
        22 001167   200126 631500                    EPPR1   P$+2,,AUTO
        22 001170   200131 451500                    STP1    P$+5,,AUTO
        22 001171   200120 633500                    EPPR3   LEN_ST$,,AUTO
        22 001172   200130 453500                    STP3    P$+4,,AUTO
        22 001173   200130 630500                    EPPR0   P$+4,,AUTO
        22 001174   000010 631400 23                 EPPR1   8
        22 001175   000000 701000 xent               TSX1    Z8EU$CREATE_IDENTIFIER_FROM_ST
        22 001176   000000 011000                    NOP     0

      555    17512    3                                                  ADDR(REC_CONTAINS_VAR));
      556    17513    3           END;

  17513 22 001177   001246 710000 22                 TRA     s:17533

      557    17514    2         ELSE
      558    17515    2           IF FILE_LTS$ -> FILE_LTS.RECORD_CONTAINS.DEPENDING$ -> SCALAR.TYPE = %TYI
             17515                    THEN

  17515 22 001200   100025 473500                    LDP3    21,,PR1
        22 001201   300002 222100                    LDX2    2,,PR3
        22 001202   000001 102003                    CMPX2   1,DU
        22 001203   001220 601000 22                 TNZ     s:17521

      559    17516    2             CALL Z8EU$CREATE_IDENTIFIER_FROM_ST

  17516 22 001204   200072 634500                    EPPR4   REC_CONTAINS_VAR,,AUTO
        22 001205   200126 454500                    STP4    P$+2,,AUTO
        22 001206   200126 633500                    EPPR3   P$+2,,AUTO
        22 001207   200131 453500                    STP3    P$+5,,AUTO
        22 001210   200116 236100                    LDQ     FILE_LTS$,,AUTO
        22 001211   000025 036003                    ADLQ    21,DU
        22 001212   200130 756100                    STQ     P$+4,,AUTO
        22 001213   200130 630500                    EPPR0   P$+4,,AUTO
        22 001214   000010 631400 23                 EPPR1   8
        22 001215   000000 701000 xent               TSX1    Z8EU$CREATE_IDENTIFIER_FROM_ST
PL6.E3A0      #002=Z9EN$READ_RANDOM File=Z9EN.:Z8A6TSI                           SAT 08/09/97 13:49 Page:100
        22 001216   000000 011000                    NOP     0
        22 001217   001246 710000 22                 TRA     s:17533

      560    17517    2                      (FILE_LTS$ -> FILE_LTS.RECORD_CONTAINS.DEPENDING$,
      561    17518    2                       ADDR(REC_CONTAINS_VAR));
      562    17519    2           ELSE
      563    17520    3             DO;

      564    17521    3               IF FILE_LTS$ -> FILE_LTS.LENGTH_READ$ = ADDR(NIL) THEN

  17521 22 001220   100053 236100                    LDQ     43,,PR1
        22 001221   000000 116000 23                 CMPQ    0
        22 001222   001233 601000 22                 TNZ     s:17525

      565    17522    3                 CALL Z8AT$CREATE_TEMPORARY (%SCALAR,

  17522 22 001223   200116 236100                    LDQ     FILE_LTS$,,AUTO
        22 001224   000053 036003                    ADLQ    43,DU
        22 001225   000051 235000 23                 LDA     41
        22 001226   200126 757100                    STAQ    P$+2,,AUTO
        22 001227   200126 630500                    EPPR0   P$+2,,AUTO
        22 001230   000010 631400 23                 EPPR1   8
        22 001231   000000 701000 xent               TSX1    Z8AT$CREATE_TEMPORARY
        22 001232   000000 011000                    NOP     0

      566    17523    3                                             FILE_LTS$ -> FILE_LTS.LENGTH_READ$);
      567    17524
      568    17525    3               CALL Z8EU$CREATE_IDENTIFIER_FROM_ST

  17525 22 001233   200072 630500                    EPPR0   REC_CONTAINS_VAR,,AUTO
        22 001234   200126 450500                    STP0    P$+2,,AUTO
        22 001235   200126 631500                    EPPR1   P$+2,,AUTO
        22 001236   200131 451500                    STP1    P$+5,,AUTO
        22 001237   200116 236100                    LDQ     FILE_LTS$,,AUTO
        22 001240   000053 036003                    ADLQ    43,DU
        22 001241   200130 756100                    STQ     P$+4,,AUTO
        22 001242   200130 630500                    EPPR0   P$+4,,AUTO
PL6.E3A0      #002=Z9EN$READ_RANDOM File=Z9EN.:Z8A6TSI                           SAT 08/09/97 13:49 Page:101
        22 001243   000010 631400 23                 EPPR1   8
        22 001244   000000 701000 xent               TSX1    Z8EU$CREATE_IDENTIFIER_FROM_ST
        22 001245   000000 011000                    NOP     0

      569    17526    3                       (FILE_LTS$ -> FILE_LTS.LENGTH_READ$,
      570    17527    3                        ADDR(REC_CONTAINS_VAR));
      571    17528    3             END;

      572    17529
      573    17530              %ADD_LX_ITEM_TO_LIST_TAIL (@FROM$ = "ADDR(REC_CONTAINS_VAR)",
      574    17531                                         @LIST$ = "ADDR(PLIST)");

  17533 22 001246   000000 236000 23                 LDQ     0
        22 001247   200101 756100                    STQ     REC_CONTAINS_VAR+7,,AUTO

  17534 22 001250   200034 235100                    LDA     PLIST+2,,AUTO
        22 001251   001257 601000 22                 TNZ     s:17541

  17536 22 001252   200072 630500                    EPPR0   REC_CONTAINS_VAR,,AUTO
        22 001253   200036 450500                    STP0    PLIST+4,,AUTO

  17537 22 001254   200072 631500                    EPPR1   REC_CONTAINS_VAR,,AUTO
        22 001255   200033 451500                    STP1    PLIST+1,,AUTO

  17538 22 001256   001264 710000 22                 TRA     s:17544

  17541 22 001257   200072 630500                    EPPR0   REC_CONTAINS_VAR,,AUTO
        22 001260   200033 471500                    LDP1    PLIST+1,,AUTO
        22 001261   100007 450500                    STP0    7,,PR1

  17542 22 001262   200072 630500                    EPPR0   REC_CONTAINS_VAR,,AUTO
        22 001263   200033 450500                    STP0    PLIST+1,,AUTO

  17544 22 001264   200034 054100                    AOS     PLIST+2,,AUTO

      575    17547
      576    17548    2         CALL FINISH_READ (%OP_RETURN);
PL6.E3A0      #002=Z9EN$READ_RANDOM File=Z9EN.:Z8A6TSI                           SAT 08/09/97 13:49 Page:102

  17548 22 001265   000053 236000 23                 LDQ     43
        22 001266   200123 756100                    STQ     LEN_ST$+3,,AUTO
        22 001267   000265 701000 22                 TSX1    FINISH_READ
        22 001270   000000 011000                    NOP     0

      577    17549    2       END;

      578    17550
      579    17551    1     RETURN;

  17551 22 001271   000000 702200 xent               TSX2  ! X66_ARET
      580    17552
      581    17553    1   END Z9EN$READ_RANDOM;
      582    17554        %EOD;

PL6.E3A0      #002=Z9EN$READ_RANDOM File=Z9EN.:Z8A6TSI                           SAT 08/09/97 13:49 Page:103
--  Include file information  --

   Z8A_ERR_NUMS.:Z8A6TOU  is referenced.
   Z8A_LIBRARY.:Z8A6TOU  cannot be made into a system file and is referenced.
   X9A_IO.:X8A6TOU  is referenced.
   Z8E_ABSSYN.:Z8A6TOU  cannot be made into a system file and is referenced.
   Z8A_LTS.:Z8A6TOU  cannot be made into a system file and is referenced.
   Z8E_NEW_ILL.:Z8A6TOU  is referenced.
   Z8E_MACROS.:Z8A6TOU  cannot be made into a system file and is referenced.
   Z8E_O1COM.:Z8A6TOU  cannot be made into a system file and is referenced.
   Z8A_QLT.:Z8A6TOU  cannot be made into a system file and is referenced.
   Z8A_TYPES.:Z8A6TOU  is referenced.
   Z8A_ILL.:Z8A6TOU  cannot be made into a system file and is referenced.
   Z8A_ETT.:Z8A6TOU  cannot be made into a system file and is referenced.
   Z8A_ST.:Z8A6TOU  cannot be made into a system file and is referenced.
   Z8A_ILS.:Z8A6TOU  cannot be made into a system file and is referenced.
   Z8E_ILS_LIST.:Z8A6TOU  is referenced.
   Z8A_LEX_SYMB.:Z8A6TOU  cannot be made into a system file and is referenced.
   Z8E_STACKS.:Z8A6TOU  cannot be made into a system file and is referenced.
   X8A_COM_MACS.:X8A6TOU  is referenced.
   Z8A_NAMES.:Z8A6TOU  is referenced.
   Z8A_SUPP_MAC.:Z8A6TOU  is referenced.
   Z9A_FLAGS.:Z8A6TOU  is referenced.
   Z8A_DEFC.:Z8A6TOU  cannot be made into a system file and is referenced.
      No diagnostics issued in procedure Z9EN$READ_RANDOM.
PL6.E3A0      #002=Z9EN$READ_RANDOM File=Z9EN.:Z8A6TSI                           SAT 08/09/97 13:49 Page:104

 **** Variables and constants ****

  ****  Section 000 LblCom ITERATION

  ****  Scalars and arrays  ****
OctLoc.c.b A Datatyp(siz) R M Lvl/name                 OctLoc.c.b A Datatyp(siz) R M Lvl/name

     0-0-0/w SBIN              1 ITERATION

  ****  Section 001 LblCom LEX_SYMBOL

  ****  Scalars and arrays  ****
OctLoc.c.b A Datatyp(siz) R M Lvl/name                 OctLoc.c.b A Datatyp(siz) R M Lvl/name

     0-0-0/w STRC(3240)  r     1 LEX_SYMBOL                 0-0-0/w STRC(3240)        1 LEX_SYMBOL_WORDS

  ****  Section 002 LblCom CURRENT_LEX_SYMBOL$

  ****  Scalars and arrays  ****
OctLoc.c.b A Datatyp(siz) R M Lvl/name                 OctLoc.c.b A Datatyp(siz) R M Lvl/name

     0-0-0/w PTR         r     1 CURRENT_LEX_SYMBOL$

  ****  Section 003 LblCom TEMP_LEX_SYMBOL

  ****  Scalars and arrays  ****
OctLoc.c.b A Datatyp(siz) R M Lvl/name                 OctLoc.c.b A Datatyp(siz) R M Lvl/name

     0-0-0/w STRC(3240)        1 TEMP_LEX_SYMBOL

  ****  Section 004 LblCom TEMP_LEX_SYMBOL2

  ****  Scalars and arrays  ****
OctLoc.c.b A Datatyp(siz) R M Lvl/name                 OctLoc.c.b A Datatyp(siz) R M Lvl/name

     0-0-0/w STRC(3240)        1 TEMP_LEX_SYMBOL2

PL6.E3A0      #002=Z9EN$READ_RANDOM File=Z9EN.:Z8A6TSI                           SAT 08/09/97 13:49 Page:105
  ****  Section 005 LblCom ILS$

  ****  Scalars and arrays  ****
OctLoc.c.b A Datatyp(siz) R M Lvl/name                 OctLoc.c.b A Datatyp(siz) R M Lvl/name

     0-0-0/w PTR         r     1 ILS$

  ****  Section 006 LblCom ILS_

  ****  Scalars and arrays  ****
OctLoc.c.b A Datatyp(siz) R M Lvl/name                 OctLoc.c.b A Datatyp(siz) R M Lvl/name

     0-0-0/w STRC(180)         1 ILS_

  ****  Section 007 LblCom ST$

  ****  Scalars and arrays  ****
OctLoc.c.b A Datatyp(siz) R M Lvl/name                 OctLoc.c.b A Datatyp(siz) R M Lvl/name

     0-0-0/w PTR         r     1 ST$

  ****  Section 008 LblCom ST_

  ****  Scalars and arrays  ****
OctLoc.c.b A Datatyp(siz) R M Lvl/name                 OctLoc.c.b A Datatyp(siz) R M Lvl/name

     0-0-0/w STRC(180)         1 ST_

  ****  Section 009 LblCom ETT$

  ****  Scalars and arrays  ****
OctLoc.c.b A Datatyp(siz) R M Lvl/name                 OctLoc.c.b A Datatyp(siz) R M Lvl/name

     0-0-0/w PTR         r     1 ETT$

  ****  Section 010 LblCom HEAD_ETT$

PL6.E3A0      #002=Z9EN$READ_RANDOM File=Z9EN.:Z8A6TSI                           SAT 08/09/97 13:49 Page:106
  ****  Scalars and arrays  ****
OctLoc.c.b A Datatyp(siz) R M Lvl/name                 OctLoc.c.b A Datatyp(siz) R M Lvl/name

     0-0-0/w PTR               1 HEAD_ETT$

  ****  Section 011 LblCom ETT_BUCKETS

  ****  Scalars and arrays  ****
OctLoc.c.b A Datatyp(siz) R M Lvl/name                 OctLoc.c.b A Datatyp(siz) R M Lvl/name

     0-0-0/w PTR               1 ETT_BUCKETS(0:511)

  ****  Section 012 LblCom ETT_

  ****  Scalars and arrays  ****
OctLoc.c.b A Datatyp(siz) R M Lvl/name                 OctLoc.c.b A Datatyp(siz) R M Lvl/name

     0-0-0/w STRC(180)         1 ETT_

  ****  Section 013 LblCom ILL$

  ****  Scalars and arrays  ****
OctLoc.c.b A Datatyp(siz) R M Lvl/name                 OctLoc.c.b A Datatyp(siz) R M Lvl/name

     0-0-0/w PTR         r     1 ILL$

  ****  Section 014 LblCom ILL_

  ****  Scalars and arrays  ****
OctLoc.c.b A Datatyp(siz) R M Lvl/name                 OctLoc.c.b A Datatyp(siz) R M Lvl/name

     0-0-0/w STRC(180)         1 ILL_

  ****  Section 015 LblCom QLT$

  ****  Scalars and arrays  ****
OctLoc.c.b A Datatyp(siz) R M Lvl/name                 OctLoc.c.b A Datatyp(siz) R M Lvl/name
PL6.E3A0      #002=Z9EN$READ_RANDOM File=Z9EN.:Z8A6TSI                           SAT 08/09/97 13:49 Page:107

     0-0-0/w PTR         r     1 QLT$

  ****  Section 016 LblCom PREV_01_QLT$

  ****  Scalars and arrays  ****
OctLoc.c.b A Datatyp(siz) R M Lvl/name                 OctLoc.c.b A Datatyp(siz) R M Lvl/name

     0-0-0/w PTR               1 PREV_01_QLT$

  ****  Section 017 LblCom QLT_

  ****  Scalars and arrays  ****
OctLoc.c.b A Datatyp(siz) R M Lvl/name                 OctLoc.c.b A Datatyp(siz) R M Lvl/name

     0-0-0/w STRC(180)         1 QLT_

  ****  Section 018 LblCom LTS$

  ****  Scalars and arrays  ****
OctLoc.c.b A Datatyp(siz) R M Lvl/name                 OctLoc.c.b A Datatyp(siz) R M Lvl/name

     0-0-0/w PTR               1 LONG_ITEM$                 0-0-0/w PTR         r     1 LTS$

  ****  Section 019 LblCom LTS_

  ****  Scalars and arrays  ****
OctLoc.c.b A Datatyp(siz) R M Lvl/name                 OctLoc.c.b A Datatyp(siz) R M Lvl/name

     0-0-0/w STRC(180)         1 LTS_

  ****  Section 020 LblCom TEMP_LX_NODE

  ****  Scalars and arrays  ****
OctLoc.c.b A Datatyp(siz) R M Lvl/name                 OctLoc.c.b A Datatyp(siz) R M Lvl/name

     0-0-0/d STRC(288)         1 TEMP_LX_NODE
PL6.E3A0      #002=Z9EN$READ_RANDOM File=Z9EN.:Z8A6TSI                           SAT 08/09/97 13:49 Page:108

  ****  Auto variables  ****

  ****  Scalars and arrays  ****
OctLoc.c.b A Datatyp(siz) R M Lvl/name                 OctLoc.c.b A Datatyp(siz) R M Lvl/name

     3-0-0/w PTR         r     1 @FILE$                     4-0-0/w PTR         r     1 @INTO$
     5-0-0/w PTR         r     1 @INVALID_ILS_LIST$         7-0-0/w PTR         r     1 @KEY_OFFSET
   123-0-0/w PTR         r     1 @READ_TYPE                 6-0-0/w PTR         r     1 @VALID_ILS_LIST$
   114-0-0/w PTR         r     1 ALTRET_LABEL$             42-0-0/d STRC(288)   r     1 ALTRET_PRESENT
   115-0-0/w PTR         r     1 END_LABEL$                22-0-0/d STRC(288)   r     1 FAB
    *0-0-0/w PTR         r     1 FILE$                    116-0-0/w PTR         r     1 FILE_LTS$
    62-0-0/d STRC(288)   r     1 FILE_REC                 117-0-0/w PTR         r     1 FILE_ST$
    *0-0-0/w PTR         r     1 INTO$                     *0-0-0/w PTR         r     1 INVALID_ILS_LIST$
    52-0-0/d STRC(288)   r     1 KEY_INDEX                 *0-0-0/w SBIN        r     1 KEY_OFFSET
   120-0-0/w PTR         r     1 LEN_ST$                   10-0-0/w STRC(324)         1 NAME
   124-0-0/w PTR         r     1 P$                        32-0-0/d STRC(288)   r     1 PLIST
   102-0-0/d STRC(288)   r     1 READ_LENGTH               *0-0-0/w SBIN        r     1 READ_TYPE
    72-0-0/d STRC(288)   r     1 REC_CONTAINS_VAR         113-0-0/w PTR         r     1 RT_ARG_LIST$
   112-0-0/w PTR         r     1 RT_DESC_LIST$             *0-0-0/w PTR         r     1 VALID_ILS_LIST$

  ****  SYMREF variables  ****

  ****  Scalars and arrays  ****
OctLoc.c.b A Datatyp(siz) R M Lvl/name                 OctLoc.c.b A Datatyp(siz) R M Lvl/name

     0-0-0/w STRC(180)         1 HIER_STK(0:50)
     0-0-0/w SBIN              1 HIER_STK_PTR               0-0-0/w UBIN              1 ILL_STEP(0:144)
     0-0-0/w UBIN              1 ILS_STEP_TABLE(0:2)
     0-0-0/w UBIN              1 LTS_STEP(0:37)
     0-0-0/d STRC(11580) r     1 O1COM                      0-0-0/w STRC(144)         1 PAGE_FORMAT
     0-0-0/w STRC(153)         1 REP_STK(0:50)              0-0-0/w SBIN              1 REP_STK_PTR

  ****  BASED and DCB variables  ****

  ****  Scalars and arrays  ****
OctLoc.c.b A Datatyp(siz) R M Lvl/name                 OctLoc.c.b A Datatyp(siz) R M Lvl/name
PL6.E3A0      #002=Z9EN$READ_RANDOM File=Z9EN.:Z8A6TSI                           SAT 08/09/97 13:49 Page:109

     0-0-0/w STRC(108)         1 ACCEPT_DISPLAY             0-0-0/w STRC(288)         1 ADD_STMT
     0-0-0/w STRC(396)         1 ALPHABET                   0-0-0/w STRC(144)         1 ALTER_LTS
     0-0-0/w STRC(3672)        1 ALT_KEY                    0-0-0/w STRC(36864)       1 ARGLIST
     0-0-0/w STRC(396)         1 ARRAY                      0-0-0/w STRC(180)         1 ARRAY_PRESET_LTS
     0-0-0/w ASTR(324)   r     1 BASED_LEX_SYMBOL
     0-0-0/w STRC(360)         1 BASED_LEX_SYMBOL_WORDS
     0-0-0/w STRC(288)         1 BASE_LTS                   0-0-0/w STRC(108)         1 BINARY_ILL
     0-0-0/w STRC(288)         1 BINARY_OP                  0-0-0/w STRC(396)         1 BLOCK
     0-0-0/w STRC(144)         1 BRANCH_ILL                 0-0-0/w STRC(144)         1 BT
     0-0-0/w STRC(288)         1 CALL_STMT                  0-0-0/w STRC(216)         1 CCOSU
     0-0-0/w STRC(396)         1 CD                         0-0-0/w STRC(288)         1 CD_LTS
     0-0-0/w CHAR(4096)        1 CHARS                      0-0-0/w STRC(396)         1 CLASS
     0-0-0/w STRC(108)         1 CODED_MOVE                 0-0-0/w STRC(288)         1 COMPUTE_STMT
     0-0-0/w STRC(396)         1 CONDITION                  0-0-0/w STRC(396)         1 CONST
     0-0-0/w STRC(72)          1 CONT                       0-0-0/w STRC(540)         1 CONTROL_NAME_LTS
     0-0-0/w STRC(1872)        1 COPY_FILE                  0-0-0/w STRC(396)         1 DB
     0-0-0/w STRC(396)         1 DCB_                       0-0-0/w STRC(288)         1 DEFERED_IDENTIFIER
     0-0-0/w STRC(252)         1 DEFERED_ID_TREE            0-0-0/w STRC(288)         1 DEFERED_QUAL_ID
     0-0-0/w STRC(288)         1 DEFERED_SUM_CLAUSE
     0-0-0/w STRC(288)         1 DEFERED_SUM_CLAUSE_LIST
     0-0-0/w STRC(144)   r     1 DEFLB                      0-0-0/w STRC(288)         1 DELETE_STMT
     0-0-0/w STRC(108)         1 DEPENDING_SIZE             0-0-0/w STRC(5472)        1 DIMS
     0-0-0/w STRC(288)         1 DIVIDE_STMT                0-0-0/w STRC(396)         1 DML_ITEM
     0-0-0/w STRC(216)         1 DML_REC                    0-0-0/w STRC(144)         1 DOEND
     0-0-0/w STRC(396)         1 DO_N                       0-0-0/w STRC(180)         1 DV4I
     0-0-0/w STRC(180)         1 ENTRY_ILL                  0-0-0/w STRC(180)   r     1 ETT
     0-0-0/w STRC(108)         1 EVALU                      0-0-0/w STRC(73836)       1 EVALUATE
     0-0-0/w STRC(396)   r     1 FD                         0-0-0/w STRC(1692)  r     1 FILE_LTS
     0-0-0/w STRC(144)         1 GO                         0-0-0/w STRC(180)         1 ILL
     0-0-0/w STRC              1 ILL_NO_OPS                 0-0-0/w STRC(180)   r     1 ILS
     0-0-0/w STRC(288)   r     1 ILS_LIST                   0-0-0/w STRC(108)         1 INDEXES
     0-0-0/w STRC(360)         1 INIT_LTS                   0-0-0/w STRC(288)         1 INSPECT_1_STMT
     0-0-0/w STRC(288)         1 INSPECT_2_STMT             0-0-0/w STRC(288)         1 INSPECT_4_STMT
     0-0-0/w STRC(396)         1 INTDEF                     0-0-0/w STRC(180)         1 IO_RESTORE_CHAIN
     0-0-0/w STRC(144)         1 KEY                        0-0-0/w STRC(396)         1 LABEL
     0-0-0/w STRC(288)         1 LA_ITEM                    0-0-0/w STRC(36864)       1 LCNST
PL6.E3A0      #002=Z9EN$READ_RANDOM File=Z9EN.:Z8A6TSI                           SAT 08/09/97 13:49 Page:110
     0-0-0/w STRC(108)         1 LINOI                      0-0-0/w STRC(72)          1 LONG
     0-0-0/w STRC        r     1 LTS                        0-0-0/w STRC(360)   r     1 LTSS
     0-0-0/w STRC(36936)       1 LTS_PTR_ARRAY              0-0-0/w STRC(504)         1 LX_CD_INPUT
     0-0-0/w STRC(324)         1 LX_CD_I_O                  0-0-0/w STRC(396)         1 LX_CD_OUTPUT
     0-0-0/w STRC(288)   r     1 LX_ETT_ITEM                0-0-0/w STRC(288)   r     1 LX_ITEM
     0-0-0/w STRC(288)         1 LX_LARGE                   0-0-0/w STRC(288)   r     1 LX_LIST
     0-0-0/w STRC(1224)        1 LX_REC_DECL                0-0-0/w STRC(864)         1 LX_REPORT_REC
     0-0-0/w STRC(288)         1 LX_TERMINAL                0-0-0/w STRC(72)          1 MFILL
     0-0-0/w STRC(396)         1 MNEMONIC                   0-0-0/w STRC(288)         1 MULTIPLY_STMT
     0-0-0/w STRC(180)         1 MULTI_GO                   0-0-0/w STRC(180)         1 MVEAL
     0-0-0/w STRC(108)         1 MVFIL                      0-0-0/w STRC(72)          1 MVIIS
     0-0-0/w STRC(144)         1 NEL                        0-0-0/w STRC(216)         1 OPEN_LTS
     0-0-0/w STRC(144)         1 OPN                        0-0-0/w STRC(180)   r     1 OS_CALL
     0-0-0/w STRC(36864)       1 PAGE                       0-0-0/w STRC(396)   r     1 PARA
     0-0-0/w STRC(216)         1 PFORM                      0-0-0/w STRC(144)         1 PINC
     0-0-0/w STRC(144)         1 PREOFF                     0-0-0/w STRC(108)         1 PRESET
     0-0-0/w STRC(144)         1 PRIME                      0-0-0/w STRC(396)   r     1 PROC_
     0-0-0/w STRC(396)   r     1 PROC_DEF                   0-0-0/w STRC(900)         1 PROC_SUPP
     0-0-0/w STRC(144)         1 P_A_PRESET                 0-0-0/w STRC(144)         1 P_P_PRESET
     0-0-0/w STRC(216)   r     1 QLT                        0-0-0/w STRC(396)         1 RD
     0-0-0/w STRC(288)         1 READ_STMT                  0-0-0/w STRC(216)         1 REF
     0-0-0/w STRC(144)         1 REMEM                      0-0-0/w STRC(108)         1 RENAMES
     0-0-0/w STRC(720)         1 REPORT_01_LTS              0-0-0/w STRC(432)         1 REPORT_ELEM_LTS
     0-0-0/w STRC(252)         1 REPORT_GRP_LTS             0-0-0/w STRC(1332)        1 REPORT_LTS
     0-0-0/w STRC(288)         1 REWRITE_STMT               0-0-0/w STRC(144)         1 RVA_LTS
     0-0-0/w STRC(396)   r     1 SCALAR                     0-0-0/w STRC(144)         1 SCOPE
     0-0-0/w STRC(396)         1 SD                         0-0-0/w STRC(216)         1 SEARCH_
     0-0-0/w STRC(396)         1 SECTION                    0-0-0/w STRC(396)         1 SEGMENT
     0-0-0/w STRC(360)         1 SEGMENT_LTS                0-0-0/w STRC(396)         1 ST
     0-0-0/w STRC(288)         1 START_STMT                 0-0-0/w STRC(72)          1 STP2
     0-0-0/w STRC(252)         1 STRING_STMT                0-0-0/w STRC(288)         1 SUBTRACT_STMT
     0-0-0/w STRC(252)         1 SUM_LTS                    0-0-0/w STRC(396)         1 SWITCH
     0-0-0/w STRC(396)         1 SYMBOLIC_CHAR              0-0-0/w STRC(396)         1 SYMDEF_
     0-0-0/w STRC(396)         1 SYMREF_                    0-0-0/w STRC(396)         1 TEMP
     0-0-0/w STRC(144)         1 TRINARY_ILL                0-0-0/w STRC(72)          1 UNARY_ILL
     0-0-0/w STRC(288)         1 UNARY_OP                   0-0-0/w STRC(288)         1 UNSTRING_STMT
     0-0-0/d STRC(612)         1 USE                        0-0-0/w STRC(216)   r     1 USER_CALL
PL6.E3A0      #002=Z9EN$READ_RANDOM File=Z9EN.:Z8A6TSI                           SAT 08/09/97 13:49 Page:111
     0-0-0/w STRC(252)         1 USE_SUPP                   0-0-0/w STRC(108)         1 VAL
     0-0-0/w STRC(108)         1 VAL_END                    0-0-0/w STRC(396)   r     1 VARIABLE
     0-0-0/w STRC(72)          1 WHEN                       0-0-0/w STRC(288)         1 WRITE_STMT


   Procedure Z9EN$READ_RANDOM requires 698 words for executable code.
   Procedure Z9EN$READ_RANDOM requires 92 words of local(AUTO) storage.

