VERSION A06

PL6.E3A0      #001=Z9EO$RUNTIME_DESC_FROM_ETT File=Z9EO.:Z8A6TSI                 SAT 08/09/97 13:47 Page:1
        1        1        /*T***********************************************************/
        2        2        /*T*                                                         */
        3        3        /*T* Copyright (c) Bull HN Information Systems Inc., 1997    */
        4        4        /*T*                                                         */
        5        5        /*T***********************************************************/
        6        6        Z9EO$RUNTIME_DESC_FROM_ETT: PROC (ETT$$, DESC, TOT_ARG_COUNT, ARG_OFFSET_COUNT,
                 6            DESC$) ALTRET;
        7        7
        8        8             %EQU PHASE = 1;
        9        9
       10       10             %INCLUDE Z8A_DEFC;
       11       78             %INCLUDE Z8A_SUPP_MAC;
       12     2478             %INCLUDE Z8A_COMCOM;
       13     3128             %INCLUDE Z8A_ST;
       14     6787             %INCLUDE Z8A_TYPES;
       15     6961             %INCLUDE Z8A_ILL;
       16     7654             %INCLUDE Z8A_ETT;
       17     7955            %INCLUDE Z8A_LTS;
       18    10032
       19    10033             %INCLUDE Z8E_STACKS;
       20    12299             %INCLUDE Z8E_O1COM;
       21    13060             %INCLUDE Z8E_WINDOW;
       22    15130             %INCLUDE X9A_MACROS;
       23    15161
       24    15162    1        DCL Z8AU$TYPE_DESCRIPTOR ENTRY (2);
       25    15163
       26    15164    1        DCL ETT$$         PTR;
       27    15165    1        DCL 1 DESC        ALIGNED,
       28    15166                   %DCL_RT_DESC(@LVL=1, @BLK=NO);
       29    15188
       30    15189    1        DCL ALPHA_LEN       SBIN WORD;
       31    15190    1        DCL TOT_ARG_COUNT   SBIN WORD;
       32    15191    1        DCL ARG_OFFSET_COUNT       SBIN WORD;
       33    15192    1        DCL DESC$                  PTR;
       34    15193
       35    15194    1        DCL TYPE          SBIN;
       36    15195    1        DCL 1 TYPE_DESC   ALIGNED,
PL6.E3A0      #001=Z9EO$RUNTIME_DESC_FROM_ETT File=Z9EO.:Z8A6TSI                 SAT 08/09/97 13:47 Page:2
       37    15196                   %TYPE_DESC;
       38    15230
       39    15231
       40    15232        %MACRO NUMERIC_DESC_TO_RUNTIME_DESC(@NDSC = TYPE_DESC.DESC.NDSC,
       41    15233                                            @RUN_DESC = );
       42    15234         DO;
       43    15235
       44    15236               @RUN_DESC.DES_W.NDSC.N = @NDSC.N ;
       45    15237               @RUN_DESC.DES_W.NDSC.SF = @NDSC.SF ;
       46    15238               DO CASE (BITBIN(@NDSC.S));
       47    15239
       48    15240                 CASE(%(BITBIN(LEADING_SIGN)));
       49    15241                   IF @NDSC.TN = %NDSC9 THEN
       50    15242                     @RUN_DESC.DES_W.TYPE = %RUNTIME_UNPACKED_LEAD_SIGN;
       51    15243                   ELSE IF ST$ -> VARIABLE.B.P THEN
       52    15244                     @RUN_DESC.DES_W.TYPE = %RUNTIME_PACKED_LEAD_SIGN;
       53    15245                   ELSE
       54    15246                     @RUN_DESC.DES_W.TYPE = %RUNTIME_PACKED_LEAD_SIGN_EBC;
       55    15247
       56    15248                 CASE(%(BITBIN(TRAILING_SIGN)));
       57    15249                   IF @NDSC.TN = %NDSC9 THEN
       58    15250                     @RUN_DESC.DES_W.TYPE = %RUNTIME_UNPACKED_TRAIL_SIGN;
       59    15251                   ELSE IF ST$ -> VARIABLE.B.P THEN
       60    15252                     @RUN_DESC.DES_W.TYPE = %RUNTIME_PACKED_TRAIL_SIGN;
       61    15253                   ELSE
       62    15254                     @RUN_DESC.DES_W.TYPE = %RUNTIME_PACKED_TRAIL_SIGN_EBC;
       63    15255
       64    15256                 CASE(%(BITBIN(NO_SIGN)));
       65    15257                   IF @NDSC.TN = %NDSC9 THEN
       66    15258                     @RUN_DESC.DES_W.TYPE = %RUNTIME_UNPACKED_NO_SIGN;
       67    15259                   ELSE
       68    15260                     @RUN_DESC.DES_W.TYPE = %RUNTIME_PACKED_NO_SIGN;
       69    15261
       70    15262                 CASE(%(BITBIN(FLOATING_POINT_LEADING_SIGN))) ;
       71    15263                   IF @NDSC.TN = %NDSC9 THEN
       72    15264                     @RUN_DESC.DES_W.TYPE = %RUNTIME_UNPACKED_LEAD_FLOAT;
       73    15265                   ELSE
PL6.E3A0      #001=Z9EO$RUNTIME_DESC_FROM_ETT File=Z9EO.:Z8A6TSI                 SAT 08/09/97 13:47 Page:3
       74    15266                     @RUN_DESC.DES_W.TYPE = %RUNTIME_PACKED_LEAD_FLOAT;
       75    15267               END;  /* CASE */
       76    15268             END;
       77    15269        %MEND;
       78    15270        %EJECT;
PL6.E3A0      #001=Z9EO$RUNTIME_DESC_FROM_ETT File=Z9EO.:Z8A6TSI                 SAT 08/09/97 13:47 Page:4
       79    15271        %MACRO FILL_RUNTIME_DESC (@DESC = ,
       80    15272                                  @TYPE = ,
       81    15273                                  @SCALE = ,
       82    15274                                  @LENGTH = ,
       83    15275                                  @LENGTH_VARIABLE = FALSE,
       84    15276                                  @OFFSET = 0,
       85    15277                                  @TOT_ARG_COUNT = 0,
       86    15278                                  @DESC$ = "ADDR(NIL)");
       87    15279
       88    15280           DO;
       89    15281             @DESC.DES_W.TYPE  = @TYPE;
       90    15282
       91    15283             %IF TEXTCHAR(@SCALE) = '' ;
       92    15284               %IF @LENGTH_VARIABLE;
       93    15285               IF @LENGTH > 8191 THEN
       94    15286                 DO;
       95    15287                 @DESC.DES_W.EXTENDED = '1'B;
       96    15288                 @DESC.DES_W.ADSC.ARG_SIZE_OFFSET = @OFFSET;
       97    15289                 @DESC$ -> LCNST.DESC_LIST.DESCRIPTOR.SIZE_WORD(@TOT_ARG_COUNT + @OFFSET)
       98    15290                           = @LENGTH;
       99    15291                 END;
      100    15292               ELSE
      101    15293               %ENDIF;
      102    15294                 @DESC.DES_W.ADSC.ARG_SIZE  = @LENGTH;
      103    15295             %ELSE;
      104    15296               @DESC.DES_W.NDSC.N = @LENGTH;
      105    15297               @DESC.DES_W.NDSC.SF = @SCALE;
      106    15298             %ENDIF;
      107    15299           END;
      108    15300
      109    15301        %MEND;
      110    15302        %EJECT;
PL6.E3A0      #001=Z9EO$RUNTIME_DESC_FROM_ETT File=Z9EO.:Z8A6TSI                 SAT 08/09/97 13:47 Page:5
      111    15303        %MACRO EBCDIC_GBCD_TO_RUNTIME_DESC (@NDSC = TYPE_DESC.DESC.NDSC,
      112    15304                                            @TYPE = TYPE_DESC.TYPE,
      113    15305                                            @RUN_DESC = );
      114    15306         DO;
      115    15307
      116    15308               @RUN_DESC.DES_W.NDSC.N = @NDSC.N;
      117    15309               @RUN_DESC.DES_W.NDSC.SF = @NDSC.SF;
      118    15310               DO CASE (BITBIN(@NDSC.S));
      119    15311
      120    15312                 CASE(%BITBIN(LEADING_SIGN));
      121    15313                   IF @NDSC.TN = %NDSC9 /* SEPARATE */ THEN
      122    15314                     @RUN_DESC.DES_W.TYPE = %RUNTIME_EBCDIC_LEAD_SIGN;
      123    15315                   ELSE
      124    15316                     @RUN_DESC.DES_W.TYPE = %RUNTIME_EBCDIC_LEAD_OVER;
      125    15317
      126    15318                 CASE(%BITBIN(TRAILING_SIGN));
      127    15319                   IF @NDSC.TN = %NDSC9 /* SEPARATE */ THEN
      128    15320                     @RUN_DESC.DES_W.TYPE = %RUNTIME_EBCDIC_TRAIL_SIGN;
      129    15321                   ELSE
      130    15322                     @RUN_DESC.DES_W.TYPE = %RUNTIME_EBCDIC_TRAIL_OVER;
      131    15323
      132    15324                 CASE(%BITBIN(NO_SIGN));
      133    15325                   @RUN_DESC.DES_W.TYPE = %RUNTIME_EBCDIC_NO_SIGN;
      134    15326               END; /* CASE */
      135    15327               IF @TYPE = %TYC THEN
      136    15328         @RUN_DESC.DES_W.TYPE = @RUN_DESC.DES_W.TYPE + %(RUNTIME_GBCD_NO_SIGN - RUNTIME_EBCD
             15328        IC_NO_SIGN);
      137    15329         END;
      138    15330        %MEND;
      139    15331        %EJECT;
PL6.E3A0      #001=Z9EO$RUNTIME_DESC_FROM_ETT File=Z9EO.:Z8A6TSI                 SAT 08/09/97 13:47 Page:6
      140    15332
      141    15333    1        DESC = '0'O;
      142    15334
      143    15335    1        CALL Z8AU$TYPE_DESCRIPTOR (ETT$$, TYPE_DESC);
      144    15336
      145    15337    2        DO CASE (TYPE_DESC.TYPE);
      146    15338
      147    15339    2          CASE (%TYA, %TYN, %TYB, %TYE);
      148    15340                 %FISH(TRIAD=ETT$$,RTN=ST$);
      149    15348                 %GET_ADSC_LEN(ST$=ST$,RTN=ALPHA_LEN);
      150    15359    3            DO CASE (TYPE_DESC.TYPE);
      151    15360    3              CASE (%TYN);
      152    15361    3                TYPE = %RUNTIME_KANJI ;
      153    15362    3              CASE (%TYA);
      154    15363    3                TYPE = %RUNTIME_ASCII;
      155    15364    3              CASE (%TYE);
      156    15365    3                TYPE = %RUNTIME_EBCDIC_ALPHANUMERIC;
      157    15366    3              CASE (%TYB);
      158    15367    3                TYPE = %RUNTIME_GBCD_ALPHANUMERIC;
      159    15368    3            END;
      160    15369                 %FILL_RUNTIME_DESC (@DESC   = DESC,
      161    15370                                     @TYPE   = TYPE,
      162    15371                                     @LENGTH = ALPHA_LEN,
      163    15372                                     @LENGTH_VARIABLE = TRUE,
      164    15373                                     @OFFSET = ARG_OFFSET_COUNT - 1,
      165    15374                                     @TOT_ARG_COUNT = TOT_ARG_COUNT,
      166    15375                                     @DESC$ = DESC$);
      167    15396    2          CASE(%TYD);
      168    15397                 %FISH(TRIAD=ETT$$,RTN=ST$);
      169    15405                 %NUMERIC_DESC_TO_RUNTIME_DESC(@NDSC = TYPE_DESC.DESC.NDSC,
      170    15406                                               @RUN_DESC = DESC);
      171    15438
      172    15439    2          CASE(%TYI);
      173    15440                 %FILL_RUNTIME_DESC (@DESC = DESC,
      174    15441                                     @TYPE = %RUNTIME_BINARY_FIX_POINT1,
      175    15442                                     @SCALE= 0,
      176    15443                                     @LENGTH=36);
PL6.E3A0      #001=Z9EO$RUNTIME_DESC_FROM_ETT File=Z9EO.:Z8A6TSI                 SAT 08/09/97 13:47 Page:7
      177    15464
      178    15465    2          CASE(%TYP);
      179    15466        %SET LISTMAC='1'B;
      180    15467                 %FILL_RUNTIME_DESC (@DESC = DESC,
      181    15468                                     @TYPE = %RUNTIME_POINTER,
      182    15469                                     @LENGTH=36);
             15470    3      DO;
             15471    3        @DESC.DES_W.TYPE  = @TYPE %;
             15472             %IF TEXTCHAR(@SCALE) = '' ;
             15473               %IF @LENGTH_VARIABLE;
             15482               %ENDIF;
             15483    3            @DESC.DES_W.ADSC.ARG_SIZE  = @LENGTH;
             15484             %ELSE;
             15487             %ENDIF;
             15488    3      END;
      183    15490        %SET LISTMAC='0'B;
      184    15491
      185    15492    2          CASE(%TYK);
      186    15493                 %FILL_RUNTIME_DESC (@DESC   = DESC,
      187    15494                                     @TYPE   = %RUNTIME_32_BIT_SIGNED_INTEGER,
      188    15495                                     @SCALE  = 0,
      189    15496                                     @LENGTH = 36);
      190    15517
      191    15518    2          CASE(%TYJ);
      192    15519                 %FILL_RUNTIME_DESC (@DESC   = DESC,
      193    15520                                     @TYPE   = %RUNTIME_16_BIT_SIGNED_INTEGER,
      194    15521                                     @SCALE  = 0,
      195    15522                                     @LENGTH = 18);
      196    15543
      197    15544    2          CASE(%TYR);
      198    15545                 %FILL_RUNTIME_DESC (@DESC   = DESC,
      199    15546                                     @TYPE   = %RUNTIME_BINARY_FLOAT_SINGLE,
      200    15547                                     @LENGTH = 36);
      201    15568
      202    15569    2          CASE(%TYQ);
      203    15570                 %FILL_RUNTIME_DESC (@DESC   = DESC,
      204    15571                                     @TYPE   = %RUNTIME_BINARY_FLOAT_DOUBLE,
PL6.E3A0      #001=Z9EO$RUNTIME_DESC_FROM_ETT File=Z9EO.:Z8A6TSI                 SAT 08/09/97 13:47 Page:8
      205    15572                                     @LENGTH = 72);
      206    15593
      207    15594    2          CASE(%TYH);
      208    15595                 %FILL_RUNTIME_DESC (@DESC = DESC,
      209    15596                                     @TYPE = %RUNTIME_BINARY_FIX_POINT1,
      210    15597                                     @LENGTH = 18);
      211    15618
      212    15619    2          CASE(%TYO);
      213    15620    2            IF TYPE_DESC.DESC.NDSC.S = %LEADING_SIGN THEN
      214    15621    2              TYPE = %RUNTIME_UNPACKED_LEAD_OVER;
      215    15622    2            ELSE
      216    15623    2              TYPE = %RUNTIME_UNPACKED_TRAIL_OVER;
      217    15624
      218    15625                 %FILL_RUNTIME_DESC (@DESC   = DESC,
      219    15626                                     @TYPE   = TYPE,
      220    15627                                     @SCALE  = TYPE_DESC.DESC.NDSC.SF,
      221    15628                                     @LENGTH_VARIABLE = TRUE,
      222    15629                                     @LENGTH = TYPE_DESC.DESC.NDSC.N);
      223    15650
      224    15651    2          CASE(%TYF, %TYC);
      225    15652                 %EBCDIC_GBCD_TO_RUNTIME_DESC (@NDSC = TYPE_DESC.DESC.NDSC,
      226    15653                                               @RUN_DESC = DESC);
      227    15675
      228    15676    2        END;  /* CASE */
      229    15677
      230    15678
      231    15679    1        IF ETT$$ -> ETT.ID = %FISS THEN
      232    15680    2          DO ;
      233    15681    2            DESC.DES_W.ADSC.ARG_SIZE = ETT$$ -> ETT.SIZE.VALUE;
      234    15682    2            ETT$$ = ETT$$ -> ETT.LOP ;
      235    15683    2          END ;
      236    15684    1        ELSE
      237    15685    1          IF ( ETT$$ -> ETT.ID = %SIZ                   /*#28637*/
      238    15686    1            OR ETT$$ -> ETT.ID = %REFMOD )
      239    15687    1          AND  ETT$$ -> ETT.ROP -> ETT.ID ~= %TRIAD THEN
      240    15688    1            ALTRETURN;
      241    15689
PL6.E3A0      #001=Z9EO$RUNTIME_DESC_FROM_ETT File=Z9EO.:Z8A6TSI                 SAT 08/09/97 13:47 Page:9
      242    15690
      243    15691    1   END Z9EO$RUNTIME_DESC_FROM_ETT;

PL6.E3A0      #001=Z9EO$RUNTIME_DESC_FROM_ETT File=Z9EO.:Z8A6TSI                 SAT 08/09/97 13:47 Page:10
--  Include file information  --

   X9A_MACROS.:X8A6TOU  is referenced.
   Z8E_WINDOW.:Z8A6TOU  is referenced.
   Z8E_O1COM.:Z8A6TOU  cannot be made into a system file and is referenced.
   Z8A_LEX_SYMB.:Z8A6TOU  cannot be made into a system file and is referenced.
   Z8E_STACKS.:Z8A6TOU  cannot be made into a system file and is referenced.
   Z8A_LTS.:Z8A6TOU  cannot be made into a system file and is referenced.
   Z8A_ETT.:Z8A6TOU  cannot be made into a system file and is referenced.
   Z8A_ILL.:Z8A6TOU  cannot be made into a system file and is referenced.
   Z8A_TYPES.:Z8A6TOU  is referenced.
   Z8A_ST.:Z8A6TOU  cannot be made into a system file and is referenced.
   Z8A_COMCOM.:Z8A6TOU  cannot be made into a system file and is referenced.
   X8A_COM_MACS.:X8A6TOU  is referenced.
   Z8A_NAMES.:Z8A6TOU  is referenced.
   Z8A_SUPP_MAC.:Z8A6TOU  is referenced.
   Z8A_DEFC.:Z8A6TOU  cannot be made into a system file and is referenced.
      No diagnostics issued in procedure Z9EO$RUNTIME_DESC_FROM_ETT.

   Procedure Z9EO$RUNTIME_DESC_FROM_ETT requires 337 words for executable code.
   Procedure Z9EO$RUNTIME_DESC_FROM_ETT requires 16 words of local(AUTO) storage.

    No errors detected in file Z9EO.:Z8A6TSI    .

PL6.E3A0      #001=Z9EO$RUNTIME_DESC_FROM_ETT File=Z9EO.:Z8A6TSI                 SAT 08/09/97 13:47 Page:11

 Object Unit name= Z9EO$RUNTIME_DESC_FROM_ETT                 File name= Z9EO.:Z8A6TOU
 UTS= AUG 09 '97 13:47:15.28 SAT                              Compiler= PL-6/E31         Sev=      00
 SharedLib= :SHARED_SYSTEM                                    Alt SharedLib=


    ****  Control sections  ****

 Sect   Type Bound  Init  Size OctSiz  Section name(segment info)
    0  LblCom even  none     1      1  ITERATION
    1  LblCom even  none     1      1  ST$
    2  LblCom even  none     5      5  ST_
    3  LblCom even  none     1      1  ILL$
    4  LblCom even  none     5      5  ILL_
    5  LblCom even  none     1      1  ETT$
    6  LblCom even  none     1      1  HEAD_ETT$
    7  LblCom even  none   512   1000  ETT_BUCKETS
    8  LblCom even  none     5      5  ETT_
    9  LblCom even  none     1      1  LTS$
   10  LblCom even  none     5      5  LTS_
   11  LblCom even  none    90    132  LEX_SYMBOL
   12  LblCom even  none     1      1  CURRENT_LEX_SYMBOL$
   13  LblCom even  none    90    132  TEMP_LEX_SYMBOL
   14  LblCom even  none    90    132  TEMP_LEX_SYMBOL2
   15   Proc  even  none   337    521  Z9EO$RUNTIME_DESC_FROM_ETT
   16  RoData even  none     2      2  Z9EO$RUNTIME_DESC_FROM_ETT

    ****  Entry defs  ****

                              Check   Calling
                             calling  sequence
  Sect OctLoc Primary Altret sequence   type   Parms  Name
    15      0   yes    yes     yes      Std        5  Z9EO$RUNTIME_DESC_FROM_ETT
PL6.E3A0      #001=Z9EO$RUNTIME_DESC_FROM_ETT File=Z9EO.:Z8A6TSI                 SAT 08/09/97 13:47 Page:12

  ****  Entry refs  ****

         Check        Calling
        calling       sequence
Altret sequence SRef   type   Args  Name
         yes           Std       2 Z8AU$TYPE_DESCRIPTOR
                       nStd      0 X66_AUTO_5
                       nStd      0 X66_AALT
                       nStd      0 X66_ARET

  ****  Data refs  ****

  Flags:  r = read only, s = secondary
Flgs Name                             Flgs Name                             Flgs Name
     COMCOM                           r    ILL_STEP                         r    LTS_STEP
     O1COM                                 HIER_STK_PTR                          HIER_STK
     PAGE_FORMAT                           REP_STK_PTR                           REP_STK

  ****  Segment refs  ****

  Flags:  r = read only, s = secondary
Flgs Name                             Flgs Name                             Flgs Name
     NULLSID                               ISSID
PL6.E3A0      #001=Z9EO$RUNTIME_DESC_FROM_ETT File=Z9EO.:Z8A6TSI                 SAT 08/09/97 13:47 Page:13


        1        1        /*T***********************************************************/
        2        2        /*T*                                                         */
        3        3        /*T* Copyright (c) Bull HN Information Systems Inc., 1997    */
        4        4        /*T*                                                         */
        5        5        /*T***********************************************************/
        6        6        Z9EO$RUNTIME_DESC_FROM_ETT: PROC (ETT$$, DESC, TOT_ARG_COUNT, ARG_OFFSET_COUNT,
                 6            DESC$) ALTRET;

      6 15 000000   000000 700200 xent  Z9EO$RUNTIM* TSX0  ! X66_AUTO_5
        15 000001   000020 000005                    ZERO    16,5

        7        7
        8        8             %EQU PHASE = 1;
        9        9
       10       10             %INCLUDE Z8A_DEFC;
       11       78             %INCLUDE Z8A_SUPP_MAC;
       12     2478             %INCLUDE Z8A_COMCOM;
       13     3128             %INCLUDE Z8A_ST;
       14     6787             %INCLUDE Z8A_TYPES;
       15     6961             %INCLUDE Z8A_ILL;
       16     7654             %INCLUDE Z8A_ETT;
       17     7955            %INCLUDE Z8A_LTS;
       18    10032
       19    10033             %INCLUDE Z8E_STACKS;
       20    12299             %INCLUDE Z8E_O1COM;
       21    13060             %INCLUDE Z8E_WINDOW;
       22    15130             %INCLUDE X9A_MACROS;
       23    15161
       24    15162    1        DCL Z8AU$TYPE_DESCRIPTOR ENTRY (2);
       25    15163
       26    15164    1        DCL ETT$$         PTR;
       27    15165    1        DCL 1 DESC        ALIGNED,
       28    15166                   %DCL_RT_DESC(@LVL=1, @BLK=NO);
       29    15188
       30    15189    1        DCL ALPHA_LEN       SBIN WORD;
       31    15190    1        DCL TOT_ARG_COUNT   SBIN WORD;
PL6.E3A0      #001=Z9EO$RUNTIME_DESC_FROM_ETT File=Z9EO.:Z8A6TSI                 SAT 08/09/97 13:47 Page:14
       32    15191    1        DCL ARG_OFFSET_COUNT       SBIN WORD;
       33    15192    1        DCL DESC$                  PTR;
       34    15193
       35    15194    1        DCL TYPE          SBIN;
       36    15195    1        DCL 1 TYPE_DESC   ALIGNED,
       37    15196                   %TYPE_DESC;
       38    15230
       39    15231
       40    15232        %MACRO NUMERIC_DESC_TO_RUNTIME_DESC(@NDSC = TYPE_DESC.DESC.NDSC,
       41    15233                                            @RUN_DESC = );
       42    15234         DO;
       43    15235
       44    15236               @RUN_DESC.DES_W.NDSC.N = @NDSC.N ;
       45    15237               @RUN_DESC.DES_W.NDSC.SF = @NDSC.SF ;
       46    15238               DO CASE (BITBIN(@NDSC.S));
       47    15239
       48    15240                 CASE(%(BITBIN(LEADING_SIGN)));
       49    15241                   IF @NDSC.TN = %NDSC9 THEN
       50    15242                     @RUN_DESC.DES_W.TYPE = %RUNTIME_UNPACKED_LEAD_SIGN;
       51    15243                   ELSE IF ST$ -> VARIABLE.B.P THEN
       52    15244                     @RUN_DESC.DES_W.TYPE = %RUNTIME_PACKED_LEAD_SIGN;
       53    15245                   ELSE
       54    15246                     @RUN_DESC.DES_W.TYPE = %RUNTIME_PACKED_LEAD_SIGN_EBC;
       55    15247
       56    15248                 CASE(%(BITBIN(TRAILING_SIGN)));
       57    15249                   IF @NDSC.TN = %NDSC9 THEN
       58    15250                     @RUN_DESC.DES_W.TYPE = %RUNTIME_UNPACKED_TRAIL_SIGN;
       59    15251                   ELSE IF ST$ -> VARIABLE.B.P THEN
       60    15252                     @RUN_DESC.DES_W.TYPE = %RUNTIME_PACKED_TRAIL_SIGN;
       61    15253                   ELSE
       62    15254                     @RUN_DESC.DES_W.TYPE = %RUNTIME_PACKED_TRAIL_SIGN_EBC;
       63    15255
       64    15256                 CASE(%(BITBIN(NO_SIGN)));
       65    15257                   IF @NDSC.TN = %NDSC9 THEN
       66    15258                     @RUN_DESC.DES_W.TYPE = %RUNTIME_UNPACKED_NO_SIGN;
       67    15259                   ELSE
       68    15260                     @RUN_DESC.DES_W.TYPE = %RUNTIME_PACKED_NO_SIGN;
PL6.E3A0      #001=Z9EO$RUNTIME_DESC_FROM_ETT File=Z9EO.:Z8A6TSI                 SAT 08/09/97 13:47 Page:15
       69    15261
       70    15262                 CASE(%(BITBIN(FLOATING_POINT_LEADING_SIGN))) ;
       71    15263                   IF @NDSC.TN = %NDSC9 THEN
       72    15264                     @RUN_DESC.DES_W.TYPE = %RUNTIME_UNPACKED_LEAD_FLOAT;
       73    15265                   ELSE
       74    15266                     @RUN_DESC.DES_W.TYPE = %RUNTIME_PACKED_LEAD_FLOAT;
       75    15267               END;  /* CASE */
       76    15268             END;
       77    15269        %MEND;
       78    15270        %EJECT;
PL6.E3A0      #001=Z9EO$RUNTIME_DESC_FROM_ETT File=Z9EO.:Z8A6TSI                 SAT 08/09/97 13:47 Page:16
       79    15271        %MACRO FILL_RUNTIME_DESC (@DESC = ,
       80    15272                                  @TYPE = ,
       81    15273                                  @SCALE = ,
       82    15274                                  @LENGTH = ,
       83    15275                                  @LENGTH_VARIABLE = FALSE,
       84    15276                                  @OFFSET = 0,
       85    15277                                  @TOT_ARG_COUNT = 0,
       86    15278                                  @DESC$ = "ADDR(NIL)");
       87    15279
       88    15280           DO;
       89    15281             @DESC.DES_W.TYPE  = @TYPE;
       90    15282
       91    15283             %IF TEXTCHAR(@SCALE) = '' ;
       92    15284               %IF @LENGTH_VARIABLE;
       93    15285               IF @LENGTH > 8191 THEN
       94    15286                 DO;
       95    15287                 @DESC.DES_W.EXTENDED = '1'B;
       96    15288                 @DESC.DES_W.ADSC.ARG_SIZE_OFFSET = @OFFSET;
       97    15289                 @DESC$ -> LCNST.DESC_LIST.DESCRIPTOR.SIZE_WORD(@TOT_ARG_COUNT + @OFFSET)
       98    15290                           = @LENGTH;
       99    15291                 END;
      100    15292               ELSE
      101    15293               %ENDIF;
      102    15294                 @DESC.DES_W.ADSC.ARG_SIZE  = @LENGTH;
      103    15295             %ELSE;
      104    15296               @DESC.DES_W.NDSC.N = @LENGTH;
      105    15297               @DESC.DES_W.NDSC.SF = @SCALE;
      106    15298             %ENDIF;
      107    15299           END;
      108    15300
      109    15301        %MEND;
      110    15302        %EJECT;
PL6.E3A0      #001=Z9EO$RUNTIME_DESC_FROM_ETT File=Z9EO.:Z8A6TSI                 SAT 08/09/97 13:47 Page:17
      111    15303        %MACRO EBCDIC_GBCD_TO_RUNTIME_DESC (@NDSC = TYPE_DESC.DESC.NDSC,
      112    15304                                            @TYPE = TYPE_DESC.TYPE,
      113    15305                                            @RUN_DESC = );
      114    15306         DO;
      115    15307
      116    15308               @RUN_DESC.DES_W.NDSC.N = @NDSC.N;
      117    15309               @RUN_DESC.DES_W.NDSC.SF = @NDSC.SF;
      118    15310               DO CASE (BITBIN(@NDSC.S));
      119    15311
      120    15312                 CASE(%BITBIN(LEADING_SIGN));
      121    15313                   IF @NDSC.TN = %NDSC9 /* SEPARATE */ THEN
      122    15314                     @RUN_DESC.DES_W.TYPE = %RUNTIME_EBCDIC_LEAD_SIGN;
      123    15315                   ELSE
      124    15316                     @RUN_DESC.DES_W.TYPE = %RUNTIME_EBCDIC_LEAD_OVER;
      125    15317
      126    15318                 CASE(%BITBIN(TRAILING_SIGN));
      127    15319                   IF @NDSC.TN = %NDSC9 /* SEPARATE */ THEN
      128    15320                     @RUN_DESC.DES_W.TYPE = %RUNTIME_EBCDIC_TRAIL_SIGN;
      129    15321                   ELSE
      130    15322                     @RUN_DESC.DES_W.TYPE = %RUNTIME_EBCDIC_TRAIL_OVER;
      131    15323
      132    15324                 CASE(%BITBIN(NO_SIGN));
      133    15325                   @RUN_DESC.DES_W.TYPE = %RUNTIME_EBCDIC_NO_SIGN;
      134    15326               END; /* CASE */
      135    15327               IF @TYPE = %TYC THEN
      136    15328        @RUN_DESC.DES_W.TYPE = @RUN_DESC.DES_W.TYPE + %(RUNTIME_GBCD_NO_SIGN - RUNTIME_EBCD
             15328        IC_NO_SIGN);
      137    15329         END;
      138    15330        %MEND;
      139    15331        %EJECT;
PL6.E3A0      #001=Z9EO$RUNTIME_DESC_FROM_ETT File=Z9EO.:Z8A6TSI                 SAT 08/09/97 13:47 Page:18
      140    15332
      141    15333    1        DESC = '0'O;

  15333 15 000002   200004 470500                    LDP0    @DESC,,AUTO
        15 000003   000000 450100                    STZ     0,,PR0

      142    15334
      143    15335    1        CALL Z8AU$TYPE_DESCRIPTOR (ETT$$, TYPE_DESC);

  15335 15 000004   200012 631500                    EPPR1   TYPE_DESC,,AUTO
        15 000005   200017 451500                    STP1    TYPE_DESC+5,,AUTO
        15 000006   200003 236100                    LDQ     @ETT$$,,AUTO
        15 000007   200016 756100                    STQ     TYPE_DESC+4,,AUTO
        15 000010   200016 630500                    EPPR0   TYPE_DESC+4,,AUTO
        15 000011   000000 631400 16                 EPPR1   0
        15 000012   000000 701000 xent               TSX1    Z8AU$TYPE_DESCRIPTOR
        15 000013   000000 011000                    NOP     0

      144    15336
      145    15337    2        DO CASE (TYPE_DESC.TYPE);

  15337 15 000014   200012 235100                    LDA     TYPE_DESC,,AUTO
        15 000015   000024 115007                    CMPA    20,DL
        15 000016   000020 602005 15                 TNC     s:15337+4,AL
        15 000017   000470 710000 15                 TRA     s:15679
        15 000020   000167 710000 15                 TRA     s:15399
        15 000021   000306 710000 15                 TRA     s:15445
        15 000022   000336 710000 15                 TRA     s:15524
        15 000023   000376 710000 15                 TRA     s:15620
        15 000024   000346 710000 15                 TRA     s:15549
        15 000025   000356 710000 15                 TRA     s:15574
        15 000026   000044 710000 15                 TRA     s:15342
        15 000027   000366 710000 15                 TRA     s:15599
        15 000030   000044 710000 15                 TRA     s:15342
        15 000031   000470 710000 15                 TRA     s:15679
        15 000032   000470 710000 15                 TRA     s:15679
        15 000033   000417 710000 15                 TRA     s:15655
PL6.E3A0      #001=Z9EO$RUNTIME_DESC_FROM_ETT File=Z9EO.:Z8A6TSI                 SAT 08/09/97 13:47 Page:19
        15 000034   000044 710000 15                 TRA     s:15342
        15 000035   000470 710000 15                 TRA     s:15679
        15 000036   000044 710000 15                 TRA     s:15342
        15 000037   000326 710000 15                 TRA     s:15498
        15 000040   000470 710000 15                 TRA     s:15679
        15 000041   000470 710000 15                 TRA     s:15679
        15 000042   000316 710000 15                 TRA     s:15471
        15 000043   000417 710000 15                 TRA     s:15655

      146    15338
      147    15339    2          CASE (%TYA, %TYN, %TYB, %TYE);

      148    15340                 %FISH(TRIAD=ETT$$,RTN=ST$);

  15342 15 000044   200003 470500                    LDP0    @ETT$$,,AUTO
        15 000045   000000 236100                    LDQ     0,,PR0
        15 000046   000000 756000 1                  STQ     ST$

  15343 15 000047   000000 471400 1                  LDP1    ST$
        15 000050   100000 220100                    LDX0    0,,PR1
        15 000051   000751 100003                    CMPX0   489,DU
        15 000052   000062 603000 15                 TRC     s:15350

  15344 15 000053   000000 470400 1                  LDP0    ST$
        15 000054   000001 236100                    LDQ     1,,PR0
        15 000055   000000 756000 1                  STQ     ST$

  15345 15 000056   000000 470400 1                  LDP0    ST$
        15 000057   000000 220100                    LDX0    0,,PR0
        15 000060   000751 100003                    CMPX0   489,DU
        15 000061   000053 602000 15                 TNC     s:15344

      149    15348                 %GET_ADSC_LEN(ST$=ST$,RTN=ALPHA_LEN);

  15350 15 000062   000000 470400 1                  LDP0    ST$
        15 000063   000003 236100                    LDQ     3,,PR0
        15 000064   004000 316003                    CANQ    2048,DU
PL6.E3A0      #001=Z9EO$RUNTIME_DESC_FROM_ETT File=Z9EO.:Z8A6TSI                 SAT 08/09/97 13:47 Page:20
        15 000065   000101 600000 15                 TZE     s:15356

  15351 15 000066   000005 471500                    LDP1    5,,PR0
        15 000067   100000 220100                    LDX0    0,,PR1
        15 000070   001105 100003                    CMPX0   581,DU
        15 000071   000076 601000 15                 TNZ     s:15354

  15352 15 000072   100003 473500                    LDP3    3,,PR1
        15 000073   300001 235100                    LDA     1,,PR3
        15 000074   200010 755100                    STA     ALPHA_LEN,,AUTO
        15 000075   000104 710000 15                 TRA     s:15359

  15354 15 000076   100001 235100                    LDA     1,,PR1
        15 000077   200010 755100                    STA     ALPHA_LEN,,AUTO
        15 000100   000104 710000 15                 TRA     s:15359

  15356 15 000101   000001 236100                    LDQ     1,,PR0
        15 000102   007777 376007                    ANQ     4095,DL
        15 000103   200010 756100                    STQ     ALPHA_LEN,,AUTO

      150    15359    3            DO CASE (TYPE_DESC.TYPE);

  15359 15 000104   200012 235100                    LDA     TYPE_DESC,,AUTO
        15 000105   000006 135007                    SBLA    6,DL
        15 000106   000011 115007                    CMPA    9,DL
        15 000107   000111 602005 15                 TNC     s:15359+5,AL
        15 000110   000135 710000 15                 TRA     s:15377
        15 000111   000130 710000 15                 TRA     s:15365
        15 000112   000135 710000 15                 TRA     s:15377
        15 000113   000125 710000 15                 TRA     s:15363
        15 000114   000135 710000 15                 TRA     s:15377
        15 000115   000135 710000 15                 TRA     s:15377
        15 000116   000135 710000 15                 TRA     s:15377
        15 000117   000133 710000 15                 TRA     s:15367
        15 000120   000135 710000 15                 TRA     s:15377
        15 000121   000122 710000 15                 TRA     s:15361

PL6.E3A0      #001=Z9EO$RUNTIME_DESC_FROM_ETT File=Z9EO.:Z8A6TSI                 SAT 08/09/97 13:47 Page:21
      151    15360    3              CASE (%TYN);

      152    15361    3                TYPE = %RUNTIME_KANJI ;

  15361 15 000122   000026 236007                    LDQ     22,DL
        15 000123   200011 756100                    STQ     TYPE,,AUTO
        15 000124   000135 710000 15                 TRA     s:15377

      153    15362    3              CASE (%TYA);

      154    15363    3                TYPE = %RUNTIME_ASCII;

  15363 15 000125   000025 236007                    LDQ     21,DL
        15 000126   200011 756100                    STQ     TYPE,,AUTO
        15 000127   000135 710000 15                 TRA     s:15377

      155    15364    3              CASE (%TYE);

      156    15365    3                TYPE = %RUNTIME_EBCDIC_ALPHANUMERIC;

  15365 15 000130   000027 236007                    LDQ     23,DL
        15 000131   200011 756100                    STQ     TYPE,,AUTO
        15 000132   000135 710000 15                 TRA     s:15377

      157    15366    3              CASE (%TYB);

      158    15367    3                TYPE = %RUNTIME_GBCD_ALPHANUMERIC;

  15367 15 000133   000030 236007                    LDQ     24,DL
        15 000134   200011 756100                    STQ     TYPE,,AUTO

      159    15368    3            END;

      160    15369                 %FILL_RUNTIME_DESC (@DESC   = DESC,
      161    15370                                     @TYPE   = TYPE,
      162    15371                                     @LENGTH = ALPHA_LEN,
      163    15372                                     @LENGTH_VARIABLE = TRUE,
PL6.E3A0      #001=Z9EO$RUNTIME_DESC_FROM_ETT File=Z9EO.:Z8A6TSI                 SAT 08/09/97 13:47 Page:22
      164    15373                                     @OFFSET = ARG_OFFSET_COUNT - 1,
      165    15374                                     @TOT_ARG_COUNT = TOT_ARG_COUNT,
      166    15375                                     @DESC$ = DESC$);

  15377 15 000135   200011 720100                    LXL0    TYPE,,AUTO
        15 000136   200004 471500                    LDP1    @DESC,,AUTO
        15 000137   100000 740100                    STX0    0,,PR1

  15380 15 000140   200010 235100                    LDA     ALPHA_LEN,,AUTO
        15 000141   017777 115007                    CMPA    8191,DL
        15 000142   000162 604400 15                 TMOZ    s:15389

  15382 15 000143   200000 236007                    LDQ     65536,DL
        15 000144   100000 256100                    ORSQ    0,,PR1

  15383 15 000145   200006 470500                    LDP0    @ARG_OFFSET_COUNT,,AUTO
        15 000146   000000 236100                    LDQ     0,,PR0
        15 000147   000001 136007                    SBLQ    1,DL
        15 000150   100000 676100                    ERQ     0,,PR1
        15 000151   017777 376007                    ANQ     8191,DL
        15 000152   100000 656100                    ERSQ    0,,PR1

  15384 15 000153   200005 473500                    LDP3    @TOT_ARG_COUNT,,AUTO
        15 000154   300000 236100                    LDQ     0,,PR3
        15 000155   000000 036100                    ADLQ    0,,PR0
        15 000156   200007 474500                    LDP4    @DESC$,,AUTO
        15 000157   400000 475500                    LDP5    0,,PR4
        15 000160   500001 755106                    STA     1,QL,PR5

  15386 15 000161   000470 710000 15                 TRA     s:15679

  15389 15 000162   200010 236100                    LDQ     ALPHA_LEN,,AUTO
        15 000163   100000 676100                    ERQ     0,,PR1
        15 000164   017777 376007                    ANQ     8191,DL
        15 000165   100000 656100                    ERSQ    0,,PR1

  15394 15 000166   000470 710000 15                 TRA     s:15679
PL6.E3A0      #001=Z9EO$RUNTIME_DESC_FROM_ETT File=Z9EO.:Z8A6TSI                 SAT 08/09/97 13:47 Page:23

      167    15396    2          CASE(%TYD);

      168    15397                 %FISH(TRIAD=ETT$$,RTN=ST$);

  15399 15 000167   200003 470500                    LDP0    @ETT$$,,AUTO
        15 000170   000000 236100                    LDQ     0,,PR0
        15 000171   000000 756000 1                  STQ     ST$

  15400 15 000172   000000 471400 1                  LDP1    ST$
        15 000173   100000 220100                    LDX0    0,,PR1
        15 000174   000751 100003                    CMPX0   489,DU
        15 000175   000205 603000 15                 TRC     s:15408

  15401 15 000176   000000 470400 1                  LDP0    ST$
        15 000177   000001 236100                    LDQ     1,,PR0
        15 000200   000000 756000 1                  STQ     ST$

  15402 15 000201   000000 470400 1                  LDP0    ST$
        15 000202   000000 220100                    LDX0    0,,PR0
        15 000203   000751 100003                    CMPX0   489,DU
        15 000204   000176 602000 15                 TNC     s:15401

      169    15405                 %NUMERIC_DESC_TO_RUNTIME_DESC(@NDSC = TYPE_DESC.DESC.NDSC,
      170    15406                                               @RUN_DESC = DESC);

  15408 15 000205   200004 470500                    LDP0    @DESC,,AUTO
        15 000206   200013 236100                    LDQ     TYPE_DESC+1,,AUTO
        15 000207   000000 752101                    STCQ    0,'01'O,PR0

  15409 15 000210   200013 236100                    LDQ     TYPE_DESC+1,,AUTO
        15 000211   000000 752102                    STCQ    0,'02'O,PR0

  15410 15 000212   200013 236100                    LDQ     TYPE_DESC+1,,AUTO
        15 000213   000014 772000                    QRL     12
        15 000214   000003 376007                    ANQ     3,DL
        15 000215   000004 116007                    CMPQ    4,DL
PL6.E3A0      #001=Z9EO$RUNTIME_DESC_FROM_ETT File=Z9EO.:Z8A6TSI                 SAT 08/09/97 13:47 Page:24
        15 000216   000220 602006 15                 TNC     s:15410+6,QL
        15 000217   000470 710000 15                 TRA     s:15679
        15 000220   000275 710000 15                 TRA     s:15431
        15 000221   000224 710000 15                 TRA     s:15412
        15 000222   000244 710000 15                 TRA     s:15419
        15 000223   000264 710000 15                 TRA     s:15426

  15412 15 000224   200013 236100                    LDQ     TYPE_DESC+1,,AUTO
        15 000225   040000 316007                    CANQ    16384,DL
        15 000226   000232 601000 15                 TNZ     s:15414

  15413 15 000227   000052 220003                    LDX0    42,DU
        15 000230   000000 740100                    STX0    0,,PR0
        15 000231   000470 710000 15                 TRA     s:15679

  15414 15 000232   000000 471400 1                  LDP1    ST$
        15 000233   100003 236100                    LDQ     3,,PR1
        15 000234   000020 316003                    CANQ    16,DU
        15 000235   000241 600000 15                 TZE     s:15417

  15415 15 000236   000011 220003                    LDX0    9,DU
        15 000237   000000 740100                    STX0    0,,PR0
        15 000240   000470 710000 15                 TRA     s:15679

  15417 15 000241   000063 220003                    LDX0    51,DU
        15 000242   000000 740100                    STX0    0,,PR0
        15 000243   000470 710000 15                 TRA     s:15679

  15419 15 000244   200013 236100                    LDQ     TYPE_DESC+1,,AUTO
        15 000245   040000 316007                    CANQ    16384,DL
        15 000246   000252 601000 15                 TNZ     s:15421

  15420 15 000247   000053 220003                    LDX0    43,DU
        15 000250   000000 740100                    STX0    0,,PR0
        15 000251   000470 710000 15                 TRA     s:15679

  15421 15 000252   000000 471400 1                  LDP1    ST$
PL6.E3A0      #001=Z9EO$RUNTIME_DESC_FROM_ETT File=Z9EO.:Z8A6TSI                 SAT 08/09/97 13:47 Page:25
        15 000253   100003 236100                    LDQ     3,,PR1
        15 000254   000020 316003                    CANQ    16,DU
        15 000255   000261 600000 15                 TZE     s:15424

  15422 15 000256   000031 220003                    LDX0    25,DU
        15 000257   000000 740100                    STX0    0,,PR0
        15 000260   000470 710000 15                 TRA     s:15679

  15424 15 000261   000037 220003                    LDX0    31,DU
        15 000262   000000 740100                    STX0    0,,PR0
        15 000263   000470 710000 15                 TRA     s:15679

  15426 15 000264   200013 236100                    LDQ     TYPE_DESC+1,,AUTO
        15 000265   040000 316007                    CANQ    16384,DL
        15 000266   000272 601000 15                 TNZ     s:15429

  15427 15 000267   000051 220003                    LDX0    41,DU
        15 000270   000000 740100                    STX0    0,,PR0
        15 000271   000470 710000 15                 TRA     s:15679

  15429 15 000272   000050 220003                    LDX0    40,DU
        15 000273   000000 740100                    STX0    0,,PR0
        15 000274   000470 710000 15                 TRA     s:15679

  15431 15 000275   200013 236100                    LDQ     TYPE_DESC+1,,AUTO
        15 000276   040000 316007                    CANQ    16384,DL
        15 000277   000303 601000 15                 TNZ     s:15434

  15432 15 000300   000062 220003                    LDX0    50,DU
        15 000301   000000 740100                    STX0    0,,PR0
        15 000302   000470 710000 15                 TRA     s:15679

  15434 15 000303   000012 220003                    LDX0    10,DU
        15 000304   000000 740100                    STX0    0,,PR0

  15436 15 000305   000470 710000 15                 TRA     s:15679

PL6.E3A0      #001=Z9EO$RUNTIME_DESC_FROM_ETT File=Z9EO.:Z8A6TSI                 SAT 08/09/97 13:47 Page:26
      171    15438
      172    15439    2          CASE(%TYI);

      173    15440                 %FILL_RUNTIME_DESC (@DESC = DESC,
      174    15441                                     @TYPE = %RUNTIME_BINARY_FIX_POINT1,
      175    15442                                     @SCALE= 0,
      176    15443                                     @LENGTH=36);

  15445 15 000306   000001 220003                    LDX0    1,DU
        15 000307   200004 470500                    LDP0    @DESC,,AUTO
        15 000310   000000 740100                    STX0    0,,PR0

  15459 15 000311   000044 236007                    LDQ     36,DL
        15 000312   000000 752101                    STCQ    0,'01'O,PR0

  15460 15 000313   000000 236003                    LDQ     0,DU
        15 000314   000000 752102                    STCQ    0,'02'O,PR0

  15462 15 000315   000470 710000 15                 TRA     s:15679

      177    15464
      178    15465    2          CASE(%TYP);

      179    15466        %SET LISTMAC='1'B;
      180    15467                 %FILL_RUNTIME_DESC (@DESC = DESC,
      181    15468                                     @TYPE = %RUNTIME_POINTER,
      182    15469                                     @LENGTH=36);
             15470    3      DO;

             15471    3        @DESC.DES_W.TYPE  = @TYPE %;

  15471 15 000316   000015 220003                    LDX0    13,DU
        15 000317   200004 470500                    LDP0    @DESC,,AUTO
        15 000320   000000 740100                    STX0    0,,PR0

             15472             %IF TEXTCHAR(@SCALE) = '' ;
             15473               %IF @LENGTH_VARIABLE;
PL6.E3A0      #001=Z9EO$RUNTIME_DESC_FROM_ETT File=Z9EO.:Z8A6TSI                 SAT 08/09/97 13:47 Page:27
             15482               %ENDIF;
             15483    3            @DESC.DES_W.ADSC.ARG_SIZE  = @LENGTH;

  15483 15 000321   000000 236100                    LDQ     0,,PR0
        15 000322   000001 376000 16                 ANQ     1
        15 000323   000044 276007                    ORQ     36,DL
        15 000324   000000 756100                    STQ     0,,PR0

             15484             %ELSE;
             15487             %ENDIF;
             15488    3      END;

  15488 15 000325   000470 710000 15                 TRA     s:15679

      183    15490        %SET LISTMAC='0'B;
      184    15491
      185    15492    2          CASE(%TYK);

      186    15493                 %FILL_RUNTIME_DESC (@DESC   = DESC,
      187    15494                                     @TYPE   = %RUNTIME_32_BIT_SIGNED_INTEGER,
      188    15495                                     @SCALE  = 0,
      189    15496                                     @LENGTH = 36);

  15498 15 000326   000036 220003                    LDX0    30,DU
        15 000327   200004 470500                    LDP0    @DESC,,AUTO
        15 000330   000000 740100                    STX0    0,,PR0

  15512 15 000331   000044 236007                    LDQ     36,DL
        15 000332   000000 752101                    STCQ    0,'01'O,PR0

  15513 15 000333   000000 236003                    LDQ     0,DU
        15 000334   000000 752102                    STCQ    0,'02'O,PR0

  15515 15 000335   000470 710000 15                 TRA     s:15679

      190    15517
      191    15518    2          CASE(%TYJ);
PL6.E3A0      #001=Z9EO$RUNTIME_DESC_FROM_ETT File=Z9EO.:Z8A6TSI                 SAT 08/09/97 13:47 Page:28

      192    15519                 %FILL_RUNTIME_DESC (@DESC   = DESC,
      193    15520                                     @TYPE   = %RUNTIME_16_BIT_SIGNED_INTEGER,
      194    15521                                     @SCALE  = 0,
      195    15522                                     @LENGTH = 18);

  15524 15 000336   000035 220003                    LDX0    29,DU
        15 000337   200004 470500                    LDP0    @DESC,,AUTO
        15 000340   000000 740100                    STX0    0,,PR0

  15538 15 000341   000022 236007                    LDQ     18,DL
        15 000342   000000 752101                    STCQ    0,'01'O,PR0

  15539 15 000343   000000 236003                    LDQ     0,DU
        15 000344   000000 752102                    STCQ    0,'02'O,PR0

  15541 15 000345   000470 710000 15                 TRA     s:15679

      196    15543
      197    15544    2          CASE(%TYR);

      198    15545                 %FILL_RUNTIME_DESC (@DESC   = DESC,
      199    15546                                     @TYPE   = %RUNTIME_BINARY_FLOAT_SINGLE,
      200    15547                                     @LENGTH = 36);

  15549 15 000346   000003 220003                    LDX0    3,DU
        15 000347   200004 470500                    LDP0    @DESC,,AUTO
        15 000350   000000 740100                    STX0    0,,PR0

  15561 15 000351   000000 236100                    LDQ     0,,PR0
        15 000352   000001 376000 16                 ANQ     1
        15 000353   000044 276007                    ORQ     36,DL
        15 000354   000000 756100                    STQ     0,,PR0

  15566 15 000355   000470 710000 15                 TRA     s:15679

      201    15568
PL6.E3A0      #001=Z9EO$RUNTIME_DESC_FROM_ETT File=Z9EO.:Z8A6TSI                 SAT 08/09/97 13:47 Page:29
      202    15569    2          CASE(%TYQ);

      203    15570                 %FILL_RUNTIME_DESC (@DESC   = DESC,
      204    15571                                     @TYPE   = %RUNTIME_BINARY_FLOAT_DOUBLE,
      205    15572                                     @LENGTH = 72);

  15574 15 000356   000004 220003                    LDX0    4,DU
        15 000357   200004 470500                    LDP0    @DESC,,AUTO
        15 000360   000000 740100                    STX0    0,,PR0

  15586 15 000361   000000 236100                    LDQ     0,,PR0
        15 000362   000001 376000 16                 ANQ     1
        15 000363   000110 276007                    ORQ     72,DL
        15 000364   000000 756100                    STQ     0,,PR0

  15591 15 000365   000470 710000 15                 TRA     s:15679

      206    15593
      207    15594    2          CASE(%TYH);

      208    15595                 %FILL_RUNTIME_DESC (@DESC = DESC,
      209    15596                                     @TYPE = %RUNTIME_BINARY_FIX_POINT1,
      210    15597                                     @LENGTH = 18);

  15599 15 000366   000001 220003                    LDX0    1,DU
        15 000367   200004 470500                    LDP0    @DESC,,AUTO
        15 000370   000000 740100                    STX0    0,,PR0

  15611 15 000371   000000 236100                    LDQ     0,,PR0
        15 000372   000001 376000 16                 ANQ     1
        15 000373   000022 276007                    ORQ     18,DL
        15 000374   000000 756100                    STQ     0,,PR0

  15616 15 000375   000470 710000 15                 TRA     s:15679

      211    15618
      212    15619    2          CASE(%TYO);
PL6.E3A0      #001=Z9EO$RUNTIME_DESC_FROM_ETT File=Z9EO.:Z8A6TSI                 SAT 08/09/97 13:47 Page:30

      213    15620    2            IF TYPE_DESC.DESC.NDSC.S = %LEADING_SIGN THEN

  15620 15 000376   200013 236100                    LDQ     TYPE_DESC+1,,AUTO
        15 000377   030000 376007                    ANQ     12288,DL
        15 000400   010000 116007                    CMPQ    4096,DL
        15 000401   000405 601000 15                 TNZ     s:15623

      214    15621    2              TYPE = %RUNTIME_UNPACKED_LEAD_OVER;

  15621 15 000402   000054 236007                    LDQ     44,DL
        15 000403   200011 756100                    STQ     TYPE,,AUTO
        15 000404   000407 710000 15                 TRA     s:15631

      215    15622    2            ELSE
      216    15623    2              TYPE = %RUNTIME_UNPACKED_TRAIL_OVER;

  15623 15 000405   000055 236007                    LDQ     45,DL
        15 000406   200011 756100                    STQ     TYPE,,AUTO

      217    15624
      218    15625                 %FILL_RUNTIME_DESC (@DESC   = DESC,
      219    15626                                     @TYPE   = TYPE,
      220    15627                                     @SCALE  = TYPE_DESC.DESC.NDSC.SF,
      221    15628                                     @LENGTH_VARIABLE = TRUE,
      222    15629                                     @LENGTH = TYPE_DESC.DESC.NDSC.N);

  15631 15 000407   000000 620006                    EAX0    0,QL
        15 000410   200004 470500                    LDP0    @DESC,,AUTO
        15 000411   000000 740100                    STX0    0,,PR0

  15645 15 000412   200013 236100                    LDQ     TYPE_DESC+1,,AUTO
        15 000413   000000 752101                    STCQ    0,'01'O,PR0

  15646 15 000414   200013 236100                    LDQ     TYPE_DESC+1,,AUTO
        15 000415   000000 752102                    STCQ    0,'02'O,PR0

PL6.E3A0      #001=Z9EO$RUNTIME_DESC_FROM_ETT File=Z9EO.:Z8A6TSI                 SAT 08/09/97 13:47 Page:31
  15648 15 000416   000470 710000 15                 TRA     s:15679

      223    15650
      224    15651    2          CASE(%TYF, %TYC);

      225    15652                 %EBCDIC_GBCD_TO_RUNTIME_DESC (@NDSC = TYPE_DESC.DESC.NDSC,
      226    15653                                               @RUN_DESC = DESC);

  15655 15 000417   200004 470500                    LDP0    @DESC,,AUTO
        15 000420   200013 236100                    LDQ     TYPE_DESC+1,,AUTO
        15 000421   000000 752101                    STCQ    0,'01'O,PR0

  15656 15 000422   200013 236100                    LDQ     TYPE_DESC+1,,AUTO
        15 000423   000000 752102                    STCQ    0,'02'O,PR0

  15657 15 000424   200013 236100                    LDQ     TYPE_DESC+1,,AUTO
        15 000425   000014 772000                    QRL     12
        15 000426   000003 376007                    ANQ     3,DL
        15 000427   000004 116007                    CMPQ    4,DL
        15 000430   000432 602006 15                 TNC     s:15657+6,QL
        15 000431   000462 710000 15                 TRA     s:15671
        15 000432   000462 710000 15                 TRA     s:15671
        15 000433   000436 710000 15                 TRA     s:15659
        15 000434   000447 710000 15                 TRA     s:15664
        15 000435   000460 710000 15                 TRA     s:15669

  15659 15 000436   200013 236100                    LDQ     TYPE_DESC+1,,AUTO
        15 000437   040000 316007                    CANQ    16384,DL
        15 000440   000444 601000 15                 TNZ     s:15662

  15660 15 000441   000066 220003                    LDX0    54,DU
        15 000442   000000 740100                    STX0    0,,PR0
        15 000443   000462 710000 15                 TRA     s:15671

  15662 15 000444   000070 220003                    LDX0    56,DU
        15 000445   000000 740100                    STX0    0,,PR0
        15 000446   000462 710000 15                 TRA     s:15671
PL6.E3A0      #001=Z9EO$RUNTIME_DESC_FROM_ETT File=Z9EO.:Z8A6TSI                 SAT 08/09/97 13:47 Page:32

  15664 15 000447   200013 236100                    LDQ     TYPE_DESC+1,,AUTO
        15 000450   040000 316007                    CANQ    16384,DL
        15 000451   000455 601000 15                 TNZ     s:15667

  15665 15 000452   000067 220003                    LDX0    55,DU
        15 000453   000000 740100                    STX0    0,,PR0
        15 000454   000462 710000 15                 TRA     s:15671

  15667 15 000455   000071 220003                    LDX0    57,DU
        15 000456   000000 740100                    STX0    0,,PR0
        15 000457   000462 710000 15                 TRA     s:15671

  15669 15 000460   000065 220003                    LDX0    53,DU
        15 000461   000000 740100                    STX0    0,,PR0

  15671 15 000462   200012 235100                    LDA     TYPE_DESC,,AUTO
        15 000463   000023 115007                    CMPA    19,DL
        15 000464   000470 601000 15                 TNZ     s:15679

  15672 15 000465   000000 220100                    LDX0    0,,PR0
        15 000466   000006 621010                    EAX1    6,X0
        15 000467   000000 741100                    STX1    0,,PR0

      227    15675
      228    15676    2        END;  /* CASE */

      229    15677
      230    15678
      231    15679    1        IF ETT$$ -> ETT.ID = %FISS THEN

  15679 15 000470   200003 470500                    LDP0    @ETT$$,,AUTO
        15 000471   000000 471500                    LDP1    0,,PR0
        15 000472   100000 220100                    LDX0    0,,PR1
        15 000473   000002 100003                    CMPX0   2,DU
        15 000474   000507 601000 15                 TNZ     s:15685

PL6.E3A0      #001=Z9EO$RUNTIME_DESC_FROM_ETT File=Z9EO.:Z8A6TSI                 SAT 08/09/97 13:47 Page:33
      232    15680    2          DO ;

      233    15681    2            DESC.DES_W.ADSC.ARG_SIZE = ETT$$ -> ETT.SIZE.VALUE;

  15681 15 000475   200004 473500                    LDP3    @DESC,,AUTO
        15 000476   100002 236100                    LDQ     2,,PR1
        15 000477   000022 772000                    QRL     18
        15 000500   300000 676100                    ERQ     0,,PR3
        15 000501   017777 376007                    ANQ     8191,DL
        15 000502   300000 656100                    ERSQ    0,,PR3

      234    15682    2            ETT$$ = ETT$$ -> ETT.LOP ;

  15682 15 000503   000000 471500                    LDP1    0,,PR0
        15 000504   100001 236100                    LDQ     1,,PR1
        15 000505   000000 756100                    STQ     0,,PR0

      235    15683    2          END ;

  15683 15 000506   000520 710000 15                 TRA     s:15691

      236    15684    1        ELSE
      237    15685    1          IF ( ETT$$ -> ETT.ID = %SIZ                   /*#28637*/

  15685 15 000507   000004 100003                    CMPX0   4,DU
        15 000510   000513 600000 15                 TZE     s:15685+4
        15 000511   000012 100003                    CMPX0   10,DU
        15 000512   000520 601000 15                 TNZ     s:15691
        15 000513   100002 473500                    LDP3    2,,PR1
        15 000514   300000 221100                    LDX1    0,,PR3
        15 000515   000015 101003                    CMPX1   13,DU
        15 000516   000520 600000 15                 TZE     s:15691

      238    15686    1            OR ETT$$ -> ETT.ID = %REFMOD )
      239    15687    1          AND  ETT$$ -> ETT.ROP -> ETT.ID ~= %TRIAD THEN
      240    15688    1            ALTRETURN;

PL6.E3A0      #001=Z9EO$RUNTIME_DESC_FROM_ETT File=Z9EO.:Z8A6TSI                 SAT 08/09/97 13:47 Page:34
  15688 15 000517   000000 702200 xent               TSX2  ! X66_AALT

      241    15689
      242    15690
      243    15691    1   END Z9EO$RUNTIME_DESC_FROM_ETT;

  15691 15 000520   000000 702200 xent               TSX2  ! X66_ARET

PL6.E3A0      #001=Z9EO$RUNTIME_DESC_FROM_ETT File=Z9EO.:Z8A6TSI                 SAT 08/09/97 13:47 Page:35
--  Include file information  --

   X9A_MACROS.:X8A6TOU  is referenced.
   Z8E_WINDOW.:Z8A6TOU  is referenced.
   Z8E_O1COM.:Z8A6TOU  cannot be made into a system file and is referenced.
   Z8A_LEX_SYMB.:Z8A6TOU  cannot be made into a system file and is referenced.
   Z8E_STACKS.:Z8A6TOU  cannot be made into a system file and is referenced.
   Z8A_LTS.:Z8A6TOU  cannot be made into a system file and is referenced.
   Z8A_ETT.:Z8A6TOU  cannot be made into a system file and is referenced.
   Z8A_ILL.:Z8A6TOU  cannot be made into a system file and is referenced.
   Z8A_TYPES.:Z8A6TOU  is referenced.
   Z8A_ST.:Z8A6TOU  cannot be made into a system file and is referenced.
   Z8A_COMCOM.:Z8A6TOU  cannot be made into a system file and is referenced.
   X8A_COM_MACS.:X8A6TOU  is referenced.
   Z8A_NAMES.:Z8A6TOU  is referenced.
   Z8A_SUPP_MAC.:Z8A6TOU  is referenced.
   Z8A_DEFC.:Z8A6TOU  cannot be made into a system file and is referenced.
      No diagnostics issued in procedure Z9EO$RUNTIME_DESC_FROM_ETT.
PL6.E3A0      #001=Z9EO$RUNTIME_DESC_FROM_ETT File=Z9EO.:Z8A6TSI                 SAT 08/09/97 13:47 Page:36

 **** Variables and constants ****

  ****  Section 000 LblCom ITERATION

  ****  Scalars and arrays  ****
OctLoc.c.b A Datatyp(siz) R M Lvl/name                 OctLoc.c.b A Datatyp(siz) R M Lvl/name

     0-0-0/w SBIN              1 ITERATION

  ****  Section 001 LblCom ST$

  ****  Scalars and arrays  ****
OctLoc.c.b A Datatyp(siz) R M Lvl/name                 OctLoc.c.b A Datatyp(siz) R M Lvl/name

     0-0-0/w PTR         r     1 ST$

  ****  Section 002 LblCom ST_

  ****  Scalars and arrays  ****
OctLoc.c.b A Datatyp(siz) R M Lvl/name                 OctLoc.c.b A Datatyp(siz) R M Lvl/name

     0-0-0/w STRC(180)         1 ST_

  ****  Section 003 LblCom ILL$

  ****  Scalars and arrays  ****
OctLoc.c.b A Datatyp(siz) R M Lvl/name                 OctLoc.c.b A Datatyp(siz) R M Lvl/name

     0-0-0/w PTR         r     1 ILL$

  ****  Section 004 LblCom ILL_

  ****  Scalars and arrays  ****
OctLoc.c.b A Datatyp(siz) R M Lvl/name                 OctLoc.c.b A Datatyp(siz) R M Lvl/name

     0-0-0/w STRC(180)         1 ILL_

PL6.E3A0      #001=Z9EO$RUNTIME_DESC_FROM_ETT File=Z9EO.:Z8A6TSI                 SAT 08/09/97 13:47 Page:37
  ****  Section 005 LblCom ETT$

  ****  Scalars and arrays  ****
OctLoc.c.b A Datatyp(siz) R M Lvl/name                 OctLoc.c.b A Datatyp(siz) R M Lvl/name

     0-0-0/w PTR         r     1 ETT$

  ****  Section 006 LblCom HEAD_ETT$

  ****  Scalars and arrays  ****
OctLoc.c.b A Datatyp(siz) R M Lvl/name                 OctLoc.c.b A Datatyp(siz) R M Lvl/name

     0-0-0/w PTR               1 HEAD_ETT$

  ****  Section 007 LblCom ETT_BUCKETS

  ****  Scalars and arrays  ****
OctLoc.c.b A Datatyp(siz) R M Lvl/name                 OctLoc.c.b A Datatyp(siz) R M Lvl/name

     0-0-0/w PTR               1 ETT_BUCKETS(0:511)

  ****  Section 008 LblCom ETT_

  ****  Scalars and arrays  ****
OctLoc.c.b A Datatyp(siz) R M Lvl/name                 OctLoc.c.b A Datatyp(siz) R M Lvl/name

     0-0-0/w STRC(180)         1 ETT_

  ****  Section 009 LblCom LTS$

  ****  Scalars and arrays  ****
OctLoc.c.b A Datatyp(siz) R M Lvl/name                 OctLoc.c.b A Datatyp(siz) R M Lvl/name

     0-0-0/w PTR               1 LONG_ITEM$                 0-0-0/w PTR         r     1 LTS$

  ****  Section 010 LblCom LTS_

PL6.E3A0      #001=Z9EO$RUNTIME_DESC_FROM_ETT File=Z9EO.:Z8A6TSI                 SAT 08/09/97 13:47 Page:38
  ****  Scalars and arrays  ****
OctLoc.c.b A Datatyp(siz) R M Lvl/name                 OctLoc.c.b A Datatyp(siz) R M Lvl/name

     0-0-0/w STRC(180)         1 LTS_

  ****  Section 011 LblCom LEX_SYMBOL

  ****  Scalars and arrays  ****
OctLoc.c.b A Datatyp(siz) R M Lvl/name                 OctLoc.c.b A Datatyp(siz) R M Lvl/name

     0-0-0/w STRC(3240)  r     1 LEX_SYMBOL                 0-0-0/w STRC(3240)        1 LEX_SYMBOL_WORDS

  ****  Section 012 LblCom CURRENT_LEX_SYMBOL$

  ****  Scalars and arrays  ****
OctLoc.c.b A Datatyp(siz) R M Lvl/name                 OctLoc.c.b A Datatyp(siz) R M Lvl/name

     0-0-0/w PTR         r     1 CURRENT_LEX_SYMBOL$

  ****  Section 013 LblCom TEMP_LEX_SYMBOL

  ****  Scalars and arrays  ****
OctLoc.c.b A Datatyp(siz) R M Lvl/name                 OctLoc.c.b A Datatyp(siz) R M Lvl/name

     0-0-0/w STRC(3240)        1 TEMP_LEX_SYMBOL

  ****  Section 014 LblCom TEMP_LEX_SYMBOL2

  ****  Scalars and arrays  ****
OctLoc.c.b A Datatyp(siz) R M Lvl/name                 OctLoc.c.b A Datatyp(siz) R M Lvl/name

     0-0-0/w STRC(3240)        1 TEMP_LEX_SYMBOL2

  ****  Auto variables  ****

  ****  Scalars and arrays  ****
OctLoc.c.b A Datatyp(siz) R M Lvl/name                 OctLoc.c.b A Datatyp(siz) R M Lvl/name
PL6.E3A0      #001=Z9EO$RUNTIME_DESC_FROM_ETT File=Z9EO.:Z8A6TSI                 SAT 08/09/97 13:47 Page:39

     6-0-0/w PTR         r     1 @ARG_OFFSET_COUNT          4-0-0/w PTR         r     1 @DESC
     7-0-0/w PTR         r     1 @DESC$                     3-0-0/w PTR         r     1 @ETT$$
     5-0-0/w PTR         r     1 @TOT_ARG_COUNT            10-0-0/w SBIN        r     1 ALPHA_LEN
    *0-0-0/w SBIN        r     1 ARG_OFFSET_COUNT          *0-0-0/w STRC        r     1 DESC
    *0-0-0/w PTR         r     1 DESC$                     *0-0-0/w PTR         r     1 ETT$$
    *0-0-0/w SBIN        r     1 TOT_ARG_COUNT             11-0-0/w SBIN        r     1 TYPE
    12-0-0/w STRC(144)   r     1 TYPE_DESC

  ****  SYMREF variables  ****

  ****  Scalars and arrays  ****
OctLoc.c.b A Datatyp(siz) R M Lvl/name                 OctLoc.c.b A Datatyp(siz) R M Lvl/name

     0-0-0/d STRC(13248)       1 COMCOM
     0-0-0/w STRC(180)         1 HIER_STK(0:50)
     0-0-0/w SBIN              1 HIER_STK_PTR               0-0-0/w UBIN              1 ILL_STEP(0:144)
     0-0-0/w UBIN              1 LTS_STEP(0:37)
     0-0-0/d STRC(11580)       1 O1COM                      0-0-0/w STRC(144)         1 PAGE_FORMAT
     0-0-0/w STRC(153)         1 REP_STK(0:50)              0-0-0/w SBIN              1 REP_STK_PTR

  ****  BASED and DCB variables  ****

  ****  Scalars and arrays  ****
OctLoc.c.b A Datatyp(siz) R M Lvl/name                 OctLoc.c.b A Datatyp(siz) R M Lvl/name

     0-0-0/w STRC(108)         1 ACCEPT_DISPLAY             0-0-0/w STRC(288)         1 ADD_STMT
     0-0-0/w STRC(396)         1 ALPHABET                   0-0-0/w STRC(144)         1 ALTER_LTS
     0-0-0/w STRC(3672)        1 ALT_KEY                    0-0-0/w STRC(36864)       1 ARGLIST
     0-0-0/w STRC(396)         1 ARRAY                      0-0-0/w STRC(180)         1 ARRAY_PRESET_LTS
     0-0-0/w ASTR(324)   r     1 BASED_LEX_SYMBOL
     0-0-0/w STRC(360)         1 BASED_LEX_SYMBOL_WORDS
     0-0-0/w STRC(288)         1 BASE_LTS                   0-0-0/w STRC(108)         1 BINARY_ILL
     0-0-0/w STRC(288)         1 BINARY_OP                  0-0-0/w STRC(396)         1 BLOCK
     0-0-0/w STRC(144)         1 BRANCH_ILL                 0-0-0/w STRC(144)         1 BT
     0-0-0/w STRC(288)         1 CALL_STMT                  0-0-0/w STRC(216)         1 CCOSU
     0-0-0/w STRC(396)         1 CD                         0-0-0/w STRC(288)         1 CD_LTS
PL6.E3A0      #001=Z9EO$RUNTIME_DESC_FROM_ETT File=Z9EO.:Z8A6TSI                 SAT 08/09/97 13:47 Page:40
     0-0-0/w CHAR(4096)        1 CHARS                      0-0-0/w STRC(396)         1 CLASS
     0-0-0/w STRC(108)         1 CODED_MOVE                 0-0-0/w STRC(288)         1 COMPUTE_STMT
     0-0-0/w STRC(396)         1 CONDITION                  0-0-0/w STRC(396)         1 CONST
     0-0-0/w STRC(72)          1 CONT                       0-0-0/w STRC(540)         1 CONTROL_NAME_LTS
     0-0-0/w STRC(1872)        1 COPY_FILE                  0-0-0/w STRC(396)         1 DB
     0-0-0/w STRC(396)         1 DCB_                       0-0-0/w STRC(288)         1 DEFERED_IDENTIFIER
     0-0-0/w STRC(252)         1 DEFERED_ID_TREE            0-0-0/w STRC(288)         1 DEFERED_QUAL_ID
     0-0-0/w STRC(288)         1 DEFERED_SUM_CLAUSE
     0-0-0/w STRC(288)         1 DEFERED_SUM_CLAUSE_LIST
     0-0-0/w STRC(144)         1 DEFLB                      0-0-0/w STRC(288)         1 DELETE_STMT
     0-0-0/w STRC(108)         1 DEPENDING_SIZE             0-0-0/w STRC(5472)        1 DIMS
     0-0-0/w STRC(288)         1 DIVIDE_STMT                0-0-0/w STRC(396)         1 DML_ITEM
     0-0-0/w STRC(216)         1 DML_REC                    0-0-0/w STRC(144)         1 DOEND
     0-0-0/w STRC(396)         1 DO_N                       0-0-0/w STRC(180)         1 DV4I
     0-0-0/w STRC(180)         1 ENTRY_ILL                  0-0-0/w STRC(180)   r     1 ETT
     0-0-0/w STRC(108)         1 EVALU                      0-0-0/w STRC(73836)       1 EVALUATE
     0-0-0/w STRC(396)         1 FD                         0-0-0/w STRC(1692)        1 FILE_LTS
     0-0-0/w STRC(144)         1 GO                         0-0-0/w STRC(180)         1 ILL
     0-0-0/w STRC              1 ILL_NO_OPS                 0-0-0/w STRC(288)         1 ILS_LIST
     0-0-0/w STRC(108)         1 INDEXES                    0-0-0/w STRC(360)         1 INIT_LTS
     0-0-0/w STRC(288)         1 INSPECT_1_STMT             0-0-0/w STRC(288)         1 INSPECT_2_STMT
     0-0-0/w STRC(288)         1 INSPECT_4_STMT             0-0-0/w STRC(396)         1 INTDEF
     0-0-0/w STRC(180)         1 IO_RESTORE_CHAIN           0-0-0/w STRC(144)         1 KEY
     0-0-0/w STRC(396)         1 LABEL                      0-0-0/w STRC(288)         1 LA_ITEM
     0-0-0/w STRC(36864) r     1 LCNST                      0-0-0/w STRC(108)         1 LINOI
     0-0-0/w STRC(72)    r     1 LONG                       0-0-0/w STRC        r     1 LTS
     0-0-0/w STRC(360)   r     1 LTSS                       0-0-0/w STRC(36936)       1 LTS_PTR_ARRAY
     0-0-0/w STRC(504)         1 LX_CD_INPUT                0-0-0/w STRC(324)         1 LX_CD_I_O
     0-0-0/w STRC(396)         1 LX_CD_OUTPUT               0-0-0/w STRC(288)         1 LX_ETT_ITEM
     0-0-0/w STRC(288)         1 LX_ITEM                    0-0-0/w STRC(288)         1 LX_LARGE
     0-0-0/w STRC(288)         1 LX_LIST                    0-0-0/w STRC(1224)        1 LX_REC_DECL
     0-0-0/w STRC(864)         1 LX_REPORT_REC              0-0-0/w STRC(288)         1 LX_TERMINAL
     0-0-0/w STRC(72)          1 MFILL                      0-0-0/w STRC(396)         1 MNEMONIC
     0-0-0/w STRC(288)         1 MULTIPLY_STMT              0-0-0/w STRC(180)         1 MULTI_GO
     0-0-0/w STRC(180)         1 MVEAL                      0-0-0/w STRC(108)         1 MVFIL
     0-0-0/w STRC(72)          1 MVIIS                      0-0-0/w STRC(144)         1 NEL
     0-0-0/w STRC(216)         1 OPEN_LTS                   0-0-0/w STRC(180)         1 OS_CALL
PL6.E3A0      #001=Z9EO$RUNTIME_DESC_FROM_ETT File=Z9EO.:Z8A6TSI                 SAT 08/09/97 13:47 Page:41
     0-0-0/w STRC(36864)       1 PAGE                       0-0-0/w STRC(396)         1 PARA
     0-0-0/w STRC(216)         1 PFORM                      0-0-0/w STRC(144)         1 PINC
     0-0-0/w STRC(144)         1 PREOFF                     0-0-0/w STRC(108)         1 PRESET
     0-0-0/w STRC(144)         1 PRIME                      0-0-0/w STRC(396)         1 PROC_
     0-0-0/w STRC(396)         1 PROC_DEF                   0-0-0/w STRC(900)         1 PROC_SUPP
     0-0-0/w STRC(144)         1 P_A_PRESET                 0-0-0/w STRC(144)         1 P_P_PRESET
     0-0-0/w STRC(396)         1 RD                         0-0-0/w STRC(288)         1 READ_STMT
     0-0-0/w STRC(216)         1 REF                        0-0-0/w STRC(144)         1 REMEM
     0-0-0/w STRC(108)         1 RENAMES                    0-0-0/w STRC(720)         1 REPORT_01_LTS
     0-0-0/w STRC(432)         1 REPORT_ELEM_LTS            0-0-0/w STRC(252)         1 REPORT_GRP_LTS
     0-0-0/w STRC(1332)        1 REPORT_LTS                 0-0-0/w STRC(288)         1 REWRITE_STMT
     0-0-0/w STRC(144)         1 RVA_LTS                    0-0-0/w STRC(396)   r     1 SCALAR
     0-0-0/w STRC(144)         1 SCOPE                      0-0-0/w STRC(396)         1 SD
     0-0-0/w STRC(216)         1 SEARCH_                    0-0-0/w STRC(396)         1 SECTION
     0-0-0/w STRC(396)         1 SEGMENT                    0-0-0/w STRC(360)         1 SEGMENT_LTS
     0-0-0/w STRC(396)         1 ST                         0-0-0/w STRC(288)         1 START_STMT
     0-0-0/w STRC(72)          1 STP2                       0-0-0/w STRC(252)         1 STRING_STMT
     0-0-0/w STRC(288)         1 SUBTRACT_STMT              0-0-0/w STRC(252)         1 SUM_LTS
     0-0-0/w STRC(396)         1 SWITCH                     0-0-0/w STRC(396)         1 SYMBOLIC_CHAR
     0-0-0/w STRC(396)         1 SYMDEF_                    0-0-0/w STRC(396)         1 SYMREF_
     0-0-0/w STRC(396)         1 TEMP                       0-0-0/w STRC(144)         1 TRINARY_ILL
     0-0-0/w STRC(72)          1 UNARY_ILL                  0-0-0/w STRC(288)         1 UNARY_OP
     0-0-0/w STRC(288)         1 UNSTRING_STMT              0-0-0/d STRC(612)         1 USE
     0-0-0/w STRC(216)         1 USER_CALL                  0-0-0/w STRC(252)         1 USE_SUPP
     0-0-0/w STRC(108)         1 VAL                        0-0-0/w STRC(108)         1 VAL_END
     0-0-0/w STRC(396)   r     1 VARIABLE                   0-0-0/w STRC(72)          1 WHEN
     0-0-0/w STRC(288)         1 WRITE_STMT


   Procedure Z9EO$RUNTIME_DESC_FROM_ETT requires 337 words for executable code.
   Procedure Z9EO$RUNTIME_DESC_FROM_ETT requires 16 words of local(AUTO) storage.

    No errors detected in file Z9EO.:Z8A6TSI    .
