VERSION A06

PL6.E3A0      #001=Z9EY$BUILD_RUNTIME_DESCRIPTOR File=Z9EY.:Z8A6TSI              SAT 08/09/97 13:55 Page:1
        1        1        /*T***********************************************************/
        2        2        /*T*                                                         */
        3        3        /*T* Copyright (c) Bull HN Information Systems Inc., 1997    */
        4        4        /*T*                                                         */
        5        5        /*T***********************************************************/
        6        6        Z9EY$BUILD_RUNTIME_DESCRIPTOR: PROC(LIST_TOP$, DESC_LIST$, IDENT_COUNT);
        7        7
        8        8    1   DCL LIST_TOP$                 PTR;
        9        9    1   DCL DESC_LIST$                PTR;
       10       10    1   DCL IDENT_COUNT               SBIN WORD;
       11       11
       12       12
       13       13        %SET PHASE=1;
       14       14
       15       15        %INCLUDE Z8A_DEFC;
       16       83        %INCLUDE Z8A_SUPP_MAC;
       17     2483        %INCLUDE Z8A_COMCOM;
       18     3133        %INCLUDE Z8A_ST;
       19     6792        %INCLUDE Z8A_TYPES;
       20     6966        %INCLUDE Z8A_ILS;
       21     7075        %INCLUDE Z8A_ILL;
       22     7768        %INCLUDE Z8A_ETT;
       23     8069        %INCLUDE Z8A_LTS;
       24    10146        %INCLUDE Z8A_ERR_NUMS;
       25    10910        %INCLUDE Z8E_STACKS;
       26    13176        %INCLUDE Z8E_O1COM;
       27    13937        %INCLUDE Z8E_MACROS;
       28    14612        %INCLUDE X9A_MACROS;
       29    14643        %EJECT;
PL6.E3A0      #001=Z9EY$BUILD_RUNTIME_DESCRIPTOR File=Z9EY.:Z8A6TSI              SAT 08/09/97 13:55 Page:2
       30    14644    1   DCL Z8AE$ERROR                ENTRY (12);
       31    14645    1   DCL Z8AU$TYPE_DESCRIPTOR      ENTRY (2) ;
       32    14646    1   DCL Z8AF$NEW_OFF              ENTRY (3);
       33    14647    1   DCL Z8AT$CREATE_TEMPORARY     ENTRY (2) ;
       34    14648    1   DCL Z9EO$RUNTIME_DESC_FROM_ETT ENTRY (5) ALTRET;
       35    14649
       36    14650    1   DCL Z8EU$CREATE_IDENTIFIER_FROM_ST  ENTRY(4);
       37    14651    1   DCL Z8AF$FORME                ENTRY (4);
       38    14652    1   DCL DESC_CONST$               PTR;
       39    14653    1   DCL ARG_LIST$                 PTR;
       40    14654    1   DCL LIST$                     PTR;
       41    14655    1   DCL DESC$                     PTR;
       42    14656    1   DCL TEMP$                     PTR;
       43    14657    1   DCL SWITCH$                   PTR;
       44    14658    1   DCL ARG$                      PTR;
       45    14659    1   DCL ARG_COUNT   SBIN WORD;          /* Argument count */
       46    14660    1   DCL ARG_OFFSET_COUNT  SBIN WORD;    /* Size word count */
       47    14661    1   DCL TOT_ARG_COUNT UBIN WORD;
       48    14662    1   DCL ALPHA_LEN     UBIN WORD;
       49    14663    1   DCL 1 RUNTIME   BASED ALIGNED,
       50    14664    1         2 DESC    UNAL,
       51    14665             %DCL_RT_DESC(@LVL=2, @BLK=NO);
       52    14687        %DCL_AUTO_LX_ITEM( @NAME = ARG );
       53    14691        %EJECT;
PL6.E3A0      #001=Z9EY$BUILD_RUNTIME_DESCRIPTOR File=Z9EY.:Z8A6TSI              SAT 08/09/97 13:55 Page:3
       54    14692    1   CREATE_TEMP_FOR_DESC: PROC (TOT_ARG_COUNT);
       55    14693    2          DCL TOT_ARG_COUNT                  UBIN WORD;
       56    14694    2          DCL ARG_OFFSET_COUNT               UBIN WORD;
       57    14695    2          DCL ALPHA_LEN                      UBIN WORD;
       58    14696
       59    14697    2          ARG_COUNT = 0;
       60    14698    2          ARG_OFFSET_COUNT = 0;
       61    14699    2          LIST$ = LIST_TOP$;
       62    14700    3          DO WHILE LIST$ ~= ADDR(NIL);
       63    14701    3            ARG_COUNT = ARG_COUNT + 1;
       64    14702                 %FISH(TRIAD=LIST$->LX_ETT_ITEM.ETT$,RTN=ST$);
       65    14710                 %GET_ADSC_LEN(ST$=ST$,RTN=ALPHA_LEN);
       66    14721    3            IF ALPHA_LEN > 8191 THEN
       67    14722    3              ARG_OFFSET_COUNT = ARG_OFFSET_COUNT + 1;
       68    14723    3            LIST$ = LIST$ -> LX_ITEM.LINK;
       69    14724    3          END;
       70    14725    2          TOT_ARG_COUNT = ARG_COUNT;
       71    14726
       72    14727               %NEW_CONST (@ST$ = DESC_LIST$);
       73    14768    2          DESC_LIST$ -> SCALAR.TYPE = %TYA;
       74    14769    2          DESC_LIST$ -> SCALAR.ADSC.N = (ARG_COUNT+ARG_OFFSET_COUNT)*4+4;
       75    14770    2          IF ARG_COUNT + ARG_OFFSET_COUNT > 1 THEN
       76    14771    3            DO;
       77    14772    3              ITERATION = ARG_COUNT + ARG_OFFSET_COUNT + 2;
       78    14773                   %RESERVE_LTS (ITEM=%LCNST, POINTER=DESC_CONST$);
       79    14859    3              DESC_LIST$ -> CONST.B.LONG_CONSTANT = TRUE;
       80    14860    3              DESC_LIST$ -> CONST.CONST$.PTR$ = DESC_CONST$;
       81    14861    3              DESC$ = ADDR(DESC_CONST$ -> LCNST.DESC_LIST.DESCRIPTOR(0));
       82    14862    3              DESC_CONST$ -> LCNST.DESC_LIST.ARG_COUNT = IDENT_COUNT;
       83    14863    3              DESC_CONST$ -> LCNST.DESC_LIST.DESC_COUNT = IDENT_COUNT;
       84    14864    3            END;
       85    14865    2          ELSE
       86    14866    3            DO;
       87    14867    3              DESC_LIST$ -> CONST.CONSTD.ARG_COUNT = IDENT_COUNT;
       88    14868    3              DESC_LIST$ -> CONST.CONSTD.DESC_COUNT = IDENT_COUNT;
       89    14869    3              DESC_LIST$ -> CONST.B.TWO_WORD = TRUE;
       90    14870    3              DESC$ = ADDR(DESC_LIST$ -> CONST.CONSTD.DESC);
PL6.E3A0      #001=Z9EY$BUILD_RUNTIME_DESCRIPTOR File=Z9EY.:Z8A6TSI              SAT 08/09/97 13:55 Page:4
       91    14871    3            END;
       92    14872
       93    14873
       94    14874    2   END ; /* Procedure -- CREATE_TEMP_FOR_DESC */
       95    14875        %EJECT ;
PL6.E3A0      #001=Z9EY$BUILD_RUNTIME_DESCRIPTOR File=Z9EY.:Z8A6TSI              SAT 08/09/97 13:55 Page:5
       96    14876    1   COMPUTE_RUNTIME_SIZE: PROC  (LIST$, TEMP$);
       97    14877    2   DCL LIST$                     PTR;
       98    14878
       99    14879    2   DCL LOP$                      PTR;
      100    14880    2   DCL ROP$                      PTR;
      101    14881    2   DCL TEMP$                     PTR;
      102    14882
      103    14883    3          DO;
      104    14884    3            IF TEMP$ = ADDR(NIL) THEN /* First variable length found */
      105    14885    4              DO;
      106    14886    4                CALL Z8AT$CREATE_TEMPORARY (%SCALAR, TEMP$);
      107    14887    4                TEMP$ -> SCALAR.TYPE = %TYA;
      108    14888
      109    14889    4                CALL Z8AF$FORME (%BASE, TEMP$, ADDR(NIL), TEMP$);
      110    14890    4              END;
      111    14891    3            DESC$ -> RUNTIME.DESC.DES_W.ADSC.ARG_SIZE = 0;
      112    14892
      113    14893    3            ROP$ = LIST$ -> LX_ETT_ITEM.ETT$ -> ETT.ROP;
      114    14894
      115    14895    3            CALL Z8AF$NEW_OFF (TEMP$, (ARG_COUNT + 1) * 4, LOP$);
      116    14896
      117    14897                 %NEW_ILL (@ID    = %MVIH,
      118    14898                           @CODE  = %MVIH_LOWER,
      119    14899                           @LOP   = LOP$,
      120    14900                           @ROP   = ROP$) ;
      121    15279
      122    15280    3            LIST$ -> LX_ETT_ITEM.ETT$ = LIST$ -> LX_ETT_ITEM.ETT$ -> ETT.LOP;
      123    15281    3          END;
      124    15282    2   END ; /* Procedure -- COMPUTE_RUNTIME_SIZE */
      125    15283        %EJECT;
PL6.E3A0      #001=Z9EY$BUILD_RUNTIME_DESCRIPTOR File=Z9EY.:Z8A6TSI              SAT 08/09/97 13:55 Page:6
      126    15284
      127    15285    1    TEMP$ = ADDR(NIL);
      128    15286    1    CALL CREATE_TEMP_FOR_DESC(TOT_ARG_COUNT);
      129    15287
      130    15288    1   ARG_OFFSET_COUNT = 0;
      131    15289    1    ARG_COUNT = 0;
      132    15290    1    LIST$ = LIST_TOP$;
      133    15291
      134    15292    2    DO WHILE (LIST$ ~= ADDR(NIL));
      135    15293
      136    15294          %FISH (TRIAD = LIST$ -> LX_ETT_ITEM.ETT$,
      137    15295                 RTN = ST$);
      138    15303
      139    15304    3     DO CASE(LIST$ -> LX_ETT_ITEM.TYPE);
      140    15305
      141    15306    3       CASE(%TYA, %TYN, %TYB, %TYE);
      142    15307
      143    15308               %GET_ADSC_LEN(ST$=ST$,RTN=ALPHA_LEN);
      144    15319    3          IF ALPHA_LEN > 8191 THEN
      145    15320    3             ARG_OFFSET_COUNT = ARG_OFFSET_COUNT + 1;
      146    15321
      147    15322    3          CALL Z9EO$RUNTIME_DESC_FROM_ETT (LIST$ -> LX_ETT_ITEM.ETT$,
      148    15323    3                                           DESC$ -> RUNTIME.DESC,
      149    15324    3                                           TOT_ARG_COUNT, ARG_OFFSET_COUNT,
      150    15325    3                                           DESC_CONST$)
      151    15326    3            WHENALTRETURN
      152    15327    4              DO;
      153    15328    4                CALL COMPUTE_RUNTIME_SIZE (LIST$, TEMP$);
      154    15329    4              END;
      155    15330
      156    15331    3       CASE(%TYD, %TYI, %TYK, %TYJ, %TYR, %TYQ, %TYH, %TYO, %TYP, %TYC, %TYF);
      157    15332
      158    15333    3          CALL Z9EO$RUNTIME_DESC_FROM_ETT (LIST$ -> LX_ETT_ITEM.ETT$,
      159    15334    3                                           DESC$ -> RUNTIME.DESC,
      160    15335    3                                           TOT_ARG_COUNT, ARG_OFFSET_COUNT,
      161    15336    3                                           DESC_CONST$)
      162    15337    3            WHENALTRETURN
PL6.E3A0      #001=Z9EY$BUILD_RUNTIME_DESCRIPTOR File=Z9EY.:Z8A6TSI              SAT 08/09/97 13:55 Page:7
      163    15338    4              DO;
      164    15339    4                CALL COMPUTE_RUNTIME_SIZE (LIST$, TEMP$);
      165    15340    4              END;
      166    15341
      167    15342    3       CASE(ELSE);
      168    15343
      169    15344
      170    15345    4          DO CASE (ST$ -> ST.ID);
      171    15346
      172    15347    4            CASE (%SYMREF_, %BLOCK, %POINTER, %SEGMENT);
      173    15348
      174    15349    4              DESC$ -> RUNTIME.DESC = '0'O;
      175    15350    4              DESC$ -> RUNTIME.DESC.DES_W.TYPE = %RUNTIME_POINTER;
      176    15351    4              DESC$ -> RUNTIME.DESC.DES_W.ADSC.ARG_SIZE = 36;
      177    15352
      178    15353    4            CASE ( %PARA, %SECTION );
      179    15354
      180    15355    4               CALL Z8AT$CREATE_TEMPORARY (%SCALAR, ARG$);
      181    15356    4               ARG$ -> SCALAR.TYPE = %TYQ;
      182    15357    4               ARG$ -> SCALAR.NDSC.N = 4;
      183    15358
      184    15359    4               CALL Z8AT$CREATE_TEMPORARY (%SCALAR, SWITCH$);
      185    15360
      186    15361    4               CALL Z8EU$CREATE_IDENTIFIER_FROM_ST (ARG$, ADDR(ARG));
      187    15362
      188    15363                    %NEW_ILL( @ID = %STP2,
      189    15364                              @LOP = ARG$);
      190    15743                    %NEW_ILL( @ID = %REMEM,
      191    15744                              @LOP = ST$,
      192    15745                              @ROP = SWITCH$);
      193    16124
      194    16125    4               ADDR(ARG) -> LX_ITEM.LINK = LIST$ -> LX_ETT_ITEM.LINK;
      195    16126    4               LIST$ -> LX_ETT_ITEM = ARG;
      196    16127
      197    16128    4               CALL Z9EO$RUNTIME_DESC_FROM_ETT( LIST$ -> LX_ETT_ITEM.ETT$,
      198    16129    4                                                DESC$ -> RUNTIME.DESC,
      199    16130    4                                                TOT_ARG_COUNT, ARG_OFFSET_COUNT,
PL6.E3A0      #001=Z9EY$BUILD_RUNTIME_DESCRIPTOR File=Z9EY.:Z8A6TSI              SAT 08/09/97 13:55 Page:8
      200    16131    4                                                DESC_CONST$)
      201    16132    4                   WHENALTRETURN
      202    16133    5                     DO;
      203    16134    5                       CALL COMPUTE_RUNTIME_SIZE( LIST$, TEMP$ );
      204    16135    5                     END;
      205    16136
      206    16137
      207    16138    4            CASE (ELSE);
      208    16139
      209    16140    4               CALL Z8AE$ERROR (%E$UNEXPECTED_CASE);
      210    16141    4          END;
      211    16142    3     END;
      212    16143
      213    16144
      214    16145    2      ARG_COUNT  = ARG_COUNT + 1;
      215    16146    2      DESC$ = PINCRW(DESC$,1);
      216    16147
      217    16148    2      LIST$ = LIST$ -> LX_ETT_ITEM.LINK;
      218    16149
      219    16150    2    END; /* Until -- list$ ~= addr(nil) */
      220    16151
      221    16152    1    CALL Z8AF$FORME (%TRIAD, DESC_LIST$, ADDR(NIL), DESC_LIST$);
      222    16153
      223    16154    1    IF TEMP$ ~= ADDR(NIL) THEN
      224    16155    2      DO;
      225    16156    2        TEMP$ -> ETT.LOP -> SCALAR.ADSC.N = (ARG_COUNT + ARG_OFFSET_COUNT + 1) *4;
      226    16157
      227    16158
      228    16159             %NEW_ILL (@ID   = %PRESET,
      229    16160                       @LOP  = TEMP$ -> ETT.LOP,
      230    16161                       @ROP  = DESC_LIST$ -> ETT.LOP);
      231    16540
      232    16541    2        DESC_LIST$ = TEMP$;
      233    16542    2      END;
      234    16543
      235    16544    1   END Z9EY$BUILD_RUNTIME_DESCRIPTOR; /* Proc -- */
      236    16545         %EOD;
PL6.E3A0      #001=Z9EY$BUILD_RUNTIME_DESCRIPTOR File=Z9EY.:Z8A6TSI              SAT 08/09/97 13:55 Page:9

PL6.E3A0      #001=Z9EY$BUILD_RUNTIME_DESCRIPTOR File=Z9EY.:Z8A6TSI              SAT 08/09/97 13:55 Page:10
--  Include file information  --

   X9A_MACROS.:X8A6TOU  is referenced.
   Z8E_NEW_ILL.:Z8A6TOU  is referenced.
   Z8E_MACROS.:Z8A6TOU  cannot be made into a system file and is referenced.
   Z8E_O1COM.:Z8A6TOU  cannot be made into a system file and is referenced.
   Z8A_LEX_SYMB.:Z8A6TOU  cannot be made into a system file and is referenced.
   Z8E_STACKS.:Z8A6TOU  cannot be made into a system file and is referenced.
   Z8A_ERR_NUMS.:Z8A6TOU  is referenced.
   Z8A_LTS.:Z8A6TOU  cannot be made into a system file and is referenced.
   Z8A_ETT.:Z8A6TOU  cannot be made into a system file and is referenced.
   Z8A_ILL.:Z8A6TOU  cannot be made into a system file and is referenced.
   Z8A_ILS.:Z8A6TOU  cannot be made into a system file and is referenced.
   Z8A_TYPES.:Z8A6TOU  is referenced.
   Z8A_ST.:Z8A6TOU  cannot be made into a system file and is referenced.
   Z8A_COMCOM.:Z8A6TOU  cannot be made into a system file and is referenced.
   X8A_COM_MACS.:X8A6TOU  is referenced.
   Z8A_NAMES.:Z8A6TOU  is referenced.
   Z8A_SUPP_MAC.:Z8A6TOU  is referenced.
   Z8A_DEFC.:Z8A6TOU  cannot be made into a system file and is referenced.
      No diagnostics issued in procedure Z9EY$BUILD_RUNTIME_DESCRIPTOR.

   Procedure Z9EY$BUILD_RUNTIME_DESCRIPTOR requires 547 words for executable code.
   Procedure Z9EY$BUILD_RUNTIME_DESCRIPTOR requires 38 words of local(AUTO) storage.

PL6.E3A0      #001=Z9EY$BUILD_RUNTIME_DESCRIPTOR File=Z9EY.:Z8A6TSI              SAT 08/09/97 13:55 Page:11

 Object Unit name= Z9EY$BUILD_RUNTIME_DESCRIPTOR              File name= Z9EY.:Z8A6TOU
 UTS= AUG 09 '97 13:55:55.60 SAT                              Compiler= PL-6/E31         Sev=      00
 SharedLib= :SHARED_SYSTEM                                    Alt SharedLib=


    ****  Control sections  ****

 Sect   Type Bound  Init  Size OctSiz  Section name(segment info)
    0  LblCom even  none     1      1  ITERATION
    1  LblCom even  none     1      1  ST$
    2  LblCom even  none     5      5  ST_
    3  LblCom even  none     1      1  ILS$
    4  LblCom even  none     5      5  ILS_
    5  LblCom even  none     1      1  ILL$
    6  LblCom even  none     5      5  ILL_
    7  LblCom even  none     1      1  ETT$
    8  LblCom even  none     1      1  HEAD_ETT$
    9  LblCom even  none   512   1000  ETT_BUCKETS
   10  LblCom even  none     5      5  ETT_
   11  LblCom even  none     1      1  LTS$
   12  LblCom even  none     5      5  LTS_
   13  LblCom even  none    90    132  LEX_SYMBOL
   14  LblCom even  none     1      1  CURRENT_LEX_SYMBOL$
   15  LblCom even  none    90    132  TEMP_LEX_SYMBOL
   16  LblCom even  none    90    132  TEMP_LEX_SYMBOL2
   17   Proc  even  none   547   1043  Z9EY$BUILD_RUNTIME_DESCRIPTOR
   18  RoData even  none    32     40  Z9EY$BUILD_RUNTIME_DESCRIPTOR

    ****  Entry defs  ****

                              Check   Calling
                             calling  sequence
  Sect OctLoc Primary Altret sequence   type   Parms  Name
    17      0   yes            yes      Std        3  Z9EY$BUILD_RUNTIME_DESCRIPTOR
PL6.E3A0      #001=Z9EY$BUILD_RUNTIME_DESCRIPTOR File=Z9EY.:Z8A6TSI              SAT 08/09/97 13:55 Page:12

  ****  Entry refs  ****

         Check        Calling
        calling       sequence
Altret sequence SRef   type   Args  Name
         yes           Std       4 Z8AN$NEW_ILL
         yes           Std      12 Z8AE$ERROR
 yes     yes           Std       5 Z9EO$RUNTIME_DESC_FROM_ETT
         yes           Std       4 Z8EU$CREATE_IDENTIFIER_FROM_ST
         yes           Std       2 Z8AT$CREATE_TEMPORARY
         yes           Std       4 Z8AF$FORME
         yes           Std       1 Z8AR$RESERVER
         yes           Std       3 Z8AF$NEW_OFF
         yes           Std       5 Z8AN$NEW_ILL1
                       nStd      0 X66_AUTO_3
                       nStd      0 X66_ARET

  ****  Data refs  ****

  Flags:  r = read only, s = secondary
Flgs Name                             Flgs Name                             Flgs Name
     COMCOM                           r    ILS_STEP_TABLE                   r    ILL_STEP
r    LTS_STEP                              O1COM                                 HIER_STK_PTR
     HIER_STK                              PAGE_FORMAT                           REP_STK_PTR
     REP_STK

  ****  Segment refs  ****

  Flags:  r = read only, s = secondary
Flgs Name                             Flgs Name                             Flgs Name
     NULLSID                               ISSID
PL6.E3A0      #001=Z9EY$BUILD_RUNTIME_DESCRIPTOR File=Z9EY.:Z8A6TSI              SAT 08/09/97 13:55 Page:13


        1        1        /*T***********************************************************/
        2        2        /*T*                                                         */
        3        3        /*T* Copyright (c) Bull HN Information Systems Inc., 1997    */
        4        4        /*T*                                                         */
        5        5        /*T***********************************************************/
        6        6        Z9EY$BUILD_RUNTIME_DESCRIPTOR: PROC(LIST_TOP$, DESC_LIST$, IDENT_COUNT);

      6 17 000000   000000 700200 xent  Z9EY$BUILD_* TSX0  ! X66_AUTO_3
        17 000001   000046 000003                    ZERO    38,3
        17 000002   000371 710000 17                 TRA     s:15285

        7        7
        8        8    1   DCL LIST_TOP$                 PTR;
        9        9    1   DCL DESC_LIST$                PTR;
       10       10    1   DCL IDENT_COUNT               SBIN WORD;
       11       11
       12       12
       13       13        %SET PHASE=1;
       14       14
       15       15        %INCLUDE Z8A_DEFC;
       16       83        %INCLUDE Z8A_SUPP_MAC;
       17     2483        %INCLUDE Z8A_COMCOM;
       18     3133        %INCLUDE Z8A_ST;
       19     6792        %INCLUDE Z8A_TYPES;
       20     6966        %INCLUDE Z8A_ILS;
       21     7075        %INCLUDE Z8A_ILL;
       22     7768        %INCLUDE Z8A_ETT;
       23     8069        %INCLUDE Z8A_LTS;
       24    10146        %INCLUDE Z8A_ERR_NUMS;
       25    10910        %INCLUDE Z8E_STACKS;
       26    13176        %INCLUDE Z8E_O1COM;
       27    13937        %INCLUDE Z8E_MACROS;
       28    14612        %INCLUDE X9A_MACROS;
       29    14643        %EJECT;
PL6.E3A0      #001=Z9EY$BUILD_RUNTIME_DESCRIPTOR File=Z9EY.:Z8A6TSI              SAT 08/09/97 13:55 Page:14
       30    14644    1   DCL Z8AE$ERROR                ENTRY (12);
       31    14645    1   DCL Z8AU$TYPE_DESCRIPTOR      ENTRY (2) ;
       32    14646    1   DCL Z8AF$NEW_OFF              ENTRY (3);
       33    14647    1   DCL Z8AT$CREATE_TEMPORARY     ENTRY (2) ;
       34    14648    1   DCL Z9EO$RUNTIME_DESC_FROM_ETT ENTRY (5) ALTRET;
       35    14649
       36    14650    1   DCL Z8EU$CREATE_IDENTIFIER_FROM_ST  ENTRY(4);
       37    14651    1   DCL Z8AF$FORME                ENTRY (4);
       38    14652    1   DCL DESC_CONST$               PTR;
       39    14653    1   DCL ARG_LIST$                 PTR;
       40    14654    1   DCL LIST$                     PTR;
       41    14655    1   DCL DESC$                     PTR;
       42    14656    1   DCL TEMP$                     PTR;
       43    14657    1   DCL SWITCH$                   PTR;
       44    14658    1   DCL ARG$                      PTR;
       45    14659    1   DCL ARG_COUNT   SBIN WORD;          /* Argument count */
       46    14660    1   DCL ARG_OFFSET_COUNT  SBIN WORD;    /* Size word count */
       47    14661    1   DCL TOT_ARG_COUNT UBIN WORD;
       48    14662    1   DCL ALPHA_LEN     UBIN WORD;
       49    14663    1   DCL 1 RUNTIME   BASED ALIGNED,
       50    14664    1         2 DESC    UNAL,
       51    14665             %DCL_RT_DESC(@LVL=2, @BLK=NO);
       52    14687        %DCL_AUTO_LX_ITEM( @NAME = ARG );
       53    14691        %EJECT;
PL6.E3A0      #001=Z9EY$BUILD_RUNTIME_DESCRIPTOR File=Z9EY.:Z8A6TSI              SAT 08/09/97 13:55 Page:15
       54    14692    1   CREATE_TEMP_FOR_DESC: PROC (TOT_ARG_COUNT);

  14692 17 000003   200032 741300       CREATE_TEMP* STX1  ! ARG+8,,AUTO

       55    14693    2          DCL TOT_ARG_COUNT                  UBIN WORD;
       56    14694    2          DCL ARG_OFFSET_COUNT               UBIN WORD;
       57    14695    2          DCL ALPHA_LEN                      UBIN WORD;
       58    14696
       59    14697    2          ARG_COUNT = 0;

  14697 17 000004   200015 450100                    STZ     ARG_COUNT,,AUTO

       60    14698    2          ARG_OFFSET_COUNT = 0;

  14698 17 000005   200034 450100                    STZ     ARG_OFFSET_COUNT,,AUTO

       61    14699    2          LIST$ = LIST_TOP$;

  14699 17 000006   200003 470500                    LDP0    @LIST_TOP$,,AUTO
        17 000007   000000 236100                    LDQ     0,,PR0
        17 000010   200010 756100                    STQ     LIST$,,AUTO

       62    14700    3          DO WHILE LIST$ ~= ADDR(NIL);

  14700 17 000011   000064 710000 17                 TRA     s:14724

       63    14701    3            ARG_COUNT = ARG_COUNT + 1;

  14701 17 000012   200015 054100                    AOS     ARG_COUNT,,AUTO

       64    14702                 %FISH(TRIAD=LIST$->LX_ETT_ITEM.ETT$,RTN=ST$);

  14704 17 000013   200010 470500                    LDP0    LIST$,,AUTO
        17 000014   000001 236100                    LDQ     1,,PR0
        17 000015   000000 756000 1                  STQ     ST$

  14705 17 000016   000000 471400 1                  LDP1    ST$
PL6.E3A0      #001=Z9EY$BUILD_RUNTIME_DESCRIPTOR File=Z9EY.:Z8A6TSI              SAT 08/09/97 13:55 Page:16
        17 000017   100000 220100                    LDX0    0,,PR1
        17 000020   000751 100003                    CMPX0   489,DU
        17 000021   000031 603000 17                 TRC     s:14712

  14706 17 000022   000000 470400 1                  LDP0    ST$
        17 000023   000001 236100                    LDQ     1,,PR0
        17 000024   000000 756000 1                  STQ     ST$

  14707 17 000025   000000 470400 1                  LDP0    ST$
        17 000026   000000 220100                    LDX0    0,,PR0
        17 000027   000751 100003                    CMPX0   489,DU
        17 000030   000022 602000 17                 TNC     s:14706

       65    14710                 %GET_ADSC_LEN(ST$=ST$,RTN=ALPHA_LEN);

  14712 17 000031   000000 470400 1                  LDP0    ST$
        17 000032   000003 236100                    LDQ     3,,PR0
        17 000033   004000 316003                    CANQ    2048,DU
        17 000034   000050 600000 17                 TZE     s:14718

  14713 17 000035   000005 471500                    LDP1    5,,PR0
        17 000036   100000 220100                    LDX0    0,,PR1
        17 000037   001105 100003                    CMPX0   581,DU
        17 000040   000045 601000 17                 TNZ     s:14716

  14714 17 000041   100003 473500                    LDP3    3,,PR1
        17 000042   300001 235100                    LDA     1,,PR3
        17 000043   200035 755100                    STA     ALPHA_LEN,,AUTO
        17 000044   000053 710000 17                 TRA     s:14721

  14716 17 000045   100001 235100                    LDA     1,,PR1
        17 000046   200035 755100                    STA     ALPHA_LEN,,AUTO
        17 000047   000053 710000 17                 TRA     s:14721

  14718 17 000050   000001 236100                    LDQ     1,,PR0
        17 000051   007777 376007                    ANQ     4095,DL
        17 000052   200035 756100                    STQ     ALPHA_LEN,,AUTO
PL6.E3A0      #001=Z9EY$BUILD_RUNTIME_DESCRIPTOR File=Z9EY.:Z8A6TSI              SAT 08/09/97 13:55 Page:17

       66    14721    3            IF ALPHA_LEN > 8191 THEN

  14721 17 000053   200035 235100                    LDA     ALPHA_LEN,,AUTO
        17 000054   020000 115007                    CMPA    8192,DL
        17 000055   000061 602000 17                 TNC     s:14723

       67    14722    3              ARG_OFFSET_COUNT = ARG_OFFSET_COUNT + 1;

  14722 17 000056   200034 236100                    LDQ     ARG_OFFSET_COUNT,,AUTO
        17 000057   000001 036007                    ADLQ    1,DL
        17 000060   200034 756100                    STQ     ARG_OFFSET_COUNT,,AUTO

       68    14723    3            LIST$ = LIST$ -> LX_ITEM.LINK;

  14723 17 000061   200010 471500                    LDP1    LIST$,,AUTO
        17 000062   100007 236100                    LDQ     7,,PR1
        17 000063   200010 756100                    STQ     LIST$,,AUTO

       69    14724    3          END;

  14724 17 000064   000000 116000 18                 CMPQ    0
        17 000065   000012 601000 17                 TNZ     s:14701

       70    14725    2          TOT_ARG_COUNT = ARG_COUNT;

  14725 17 000066   200015 235100                    LDA     ARG_COUNT,,AUTO
        17 000067   200033 470500                    LDP0    @TOT_ARG_COUNT,,AUTO
        17 000070   000000 755100                    STA     0,,PR0

       71    14726
       72    14727               %NEW_CONST (@ST$ = DESC_LIST$);

  14731 17 000071   000002 236000 2                  LDQ     ST_+2
        17 000072   000013 036007                    ADLQ    11,DL
        17 000073   000003 116000 2                  CMPQ    ST_+3
        17 000074   000105 604000 17                 TMI     s:14733
PL6.E3A0      #001=Z9EY$BUILD_RUNTIME_DESCRIPTOR File=Z9EY.:Z8A6TSI              SAT 08/09/97 13:55 Page:18

  14732 17 000075   000002 236000 18                 LDQ     2
        17 000076   200040 756100                    STQ     ROP$+2,,AUTO
        17 000077   200040 631500                    EPPR1   ROP$+2,,AUTO
        17 000100   200041 451500                    STP1    ROP$+3,,AUTO
        17 000101   200041 630500                    EPPR0   ROP$+3,,AUTO
        17 000102   000001 631400 18                 EPPR1   1
        17 000103   000000 701000 xent               TSX1    Z8AR$RESERVER
        17 000104   000000 011000                    NOP     0

  14733 17 000105   000002 236000 2                  LDQ     ST_+2
        17 000106   000022 736000                    QLS     18
        17 000107   000001 036000 2                  ADLQ    ST_+1
        17 000110   200004 470500                    LDP0    @DESC_LIST$,,AUTO
        17 000111   000000 756100                    STQ     0,,PR0

  14734 17 000112   000013 236007                    LDQ     11,DL
        17 000113   000002 056000 2                  ASQ     ST_+2

  14737 17 000114   000000 471500                    LDP1    0,,PR0
        17 000115   000767 220003                    LDX0    503,DU
        17 000116   100000 740100                    STX0    0,,PR1

  14738 17 000117   000000 471500                    LDP1    0,,PR0
        17 000120   001000 236007                    LDQ     512,DL
        17 000121   100000 552110                    STBQ    0,'10'O,PR1

  14739 17 000122   000000 471500                    LDP1    0,,PR0
        17 000123   000126 236000 xsym               LDQ     O1COM+86
        17 000124   100000 552104                    STBQ    0,'04'O,PR1

  14740 17 000125   000000 471500                    LDP1    0,,PR0
        17 000126   000001 221003                    LDX1    1,DU
        17 000127   100002 741100                    STX1    2,,PR1

  14741 17 000130   000000 471500                    LDP1    0,,PR0
        17 000131   100003 450100                    STZ     3,,PR1
PL6.E3A0      #001=Z9EY$BUILD_RUNTIME_DESCRIPTOR File=Z9EY.:Z8A6TSI              SAT 08/09/97 13:55 Page:19

  14742 17 000132   000000 471500                    LDP1    0,,PR0
        17 000133   000000 236000 18                 LDQ     0
        17 000134   100004 756100                    STQ     4,,PR1

  14743 17 000135   000000 471500                    LDP1    0,,PR0
        17 000136   100005 756100                    STQ     5,,PR1

  14744 17 000137   000000 471500                    LDP1    0,,PR0
        17 000140   100006 756100                    STQ     6,,PR1

       73    14768    2          DESC_LIST$ -> SCALAR.TYPE = %TYA;

  14768 17 000141   000000 471500                    LDP1    0,,PR0
        17 000142   000010 222003                    LDX2    8,DU
        17 000143   100002 742100                    STX2    2,,PR1

       74    14769    2          DESC_LIST$ -> SCALAR.ADSC.N = (ARG_COUNT+ARG_OFFSET_COUNT)*4+4;

  14769 17 000144   000000 471500                    LDP1    0,,PR0
        17 000145   200015 236100                    LDQ     ARG_COUNT,,AUTO
        17 000146   200034 036100                    ADLQ    ARG_OFFSET_COUNT,,AUTO
        17 000147   000002 736000                    QLS     2
        17 000150   000004 036007                    ADLQ    4,DL
        17 000151   100001 752103                    STCQ    1,'03'O,PR1

       75    14770    2          IF ARG_COUNT + ARG_OFFSET_COUNT > 1 THEN

  14770 17 000152   200015 236100                    LDQ     ARG_COUNT,,AUTO
        17 000153   200034 036100                    ADLQ    ARG_OFFSET_COUNT,,AUTO
        17 000154   000001 116007                    CMPQ    1,DL
        17 000155   000233 604400 17                 TMOZ    s:14867

       76    14771    3            DO;

       77    14772    3              ITERATION = ARG_COUNT + ARG_OFFSET_COUNT + 2;

PL6.E3A0      #001=Z9EY$BUILD_RUNTIME_DESCRIPTOR File=Z9EY.:Z8A6TSI              SAT 08/09/97 13:55 Page:20
  14772 17 000156   200015 236100                    LDQ     ARG_COUNT,,AUTO
        17 000157   200034 036100                    ADLQ    ARG_OFFSET_COUNT,,AUTO
        17 000160   000002 036007                    ADLQ    2,DL
        17 000161   000000 756000 0                  STQ     ITERATION

       78    14773                   %RESERVE_LTS (ITEM=%LCNST, POINTER=DESC_CONST$);

  14849 17 000162   000002 036000 12                 ADLQ    LTS_+2
        17 000163   000003 116000 12                 CMPQ    LTS_+3
        17 000164   000175 604000 17                 TMI     s:14851

  14850 17 000165   000003 236000 18                 LDQ     3
        17 000166   200040 756100                    STQ     ROP$+2,,AUTO
        17 000167   200040 631500                    EPPR1   ROP$+2,,AUTO
        17 000170   200041 451500                    STP1    ROP$+3,,AUTO
        17 000171   200041 630500                    EPPR0   ROP$+3,,AUTO
        17 000172   000001 631400 18                 EPPR1   1
        17 000173   000000 701000 xent               TSX1    Z8AR$RESERVER
        17 000174   000000 011000                    NOP     0

  14851 17 000175   000002 236000 12                 LDQ     LTS_+2
        17 000176   000022 736000                    QLS     18
        17 000177   000001 036000 12                 ADLQ    LTS_+1
        17 000200   200006 756100                    STQ     DESC_CONST$,,AUTO

  14852 17 000201   000002 236000 12                 LDQ     LTS_+2
        17 000202   000000 036000 0                  ADLQ    ITERATION
        17 000203   000002 756000 12                 STQ     LTS_+2

  14853 17 000204   001106 220003                    LDX0    582,DU
        17 000205   200006 470500                    LDP0    DESC_CONST$,,AUTO
        17 000206   000000 740100                    STX0    0,,PR0

  14855 17 000207   000000 721000 0                  LXL1    ITERATION
        17 000210   200006 470500                    LDP0    DESC_CONST$,,AUTO
        17 000211   000000 441100                    SXL1    0,,PR0

PL6.E3A0      #001=Z9EY$BUILD_RUNTIME_DESCRIPTOR File=Z9EY.:Z8A6TSI              SAT 08/09/97 13:55 Page:21
       79    14859    3              DESC_LIST$ -> CONST.B.LONG_CONSTANT = TRUE;

  14859 17 000212   200004 470500                    LDP0    @DESC_LIST$,,AUTO
        17 000213   000000 471500                    LDP1    0,,PR0
        17 000214   400000 236003                    LDQ     -131072,DU
        17 000215   100003 256100                    ORSQ    3,,PR1

       80    14860    3              DESC_LIST$ -> CONST.CONST$.PTR$ = DESC_CONST$;

  14860 17 000216   000000 471500                    LDP1    0,,PR0
        17 000217   200006 236100                    LDQ     DESC_CONST$,,AUTO
        17 000220   100010 756100                    STQ     8,,PR1

       81    14861    3              DESC$ = ADDR(DESC_CONST$ -> LCNST.DESC_LIST.DESCRIPTOR(0));

  14861 17 000221   000002 036003                    ADLQ    2,DU
        17 000222   200011 756100                    STQ     DESC$,,AUTO

       82    14862    3              DESC_CONST$ -> LCNST.DESC_LIST.ARG_COUNT = IDENT_COUNT;

  14862 17 000223   200005 471500                    LDP1    @IDENT_COUNT,,AUTO
        17 000224   100000 721100                    LXL1    0,,PR1
        17 000225   200006 473500                    LDP3    DESC_CONST$,,AUTO
        17 000226   300001 741100                    STX1    1,,PR3

       83    14863    3              DESC_CONST$ -> LCNST.DESC_LIST.DESC_COUNT = IDENT_COUNT;

  14863 17 000227   100000 721100                    LXL1    0,,PR1
        17 000230   200006 473500                    LDP3    DESC_CONST$,,AUTO
        17 000231   300001 441100                    SXL1    1,,PR3

       84    14864    3            END;

  14864 17 000232   000250 710000 17                 TRA     s:14874

       85    14865    2          ELSE
       86    14866    3            DO;
PL6.E3A0      #001=Z9EY$BUILD_RUNTIME_DESCRIPTOR File=Z9EY.:Z8A6TSI              SAT 08/09/97 13:55 Page:22

       87    14867    3              DESC_LIST$ -> CONST.CONSTD.ARG_COUNT = IDENT_COUNT;

  14867 17 000233   000000 471500                    LDP1    0,,PR0
        17 000234   200005 473500                    LDP3    @IDENT_COUNT,,AUTO
        17 000235   300000 723100                    LXL3    0,,PR3
        17 000236   100010 743100                    STX3    8,,PR1

       88    14868    3              DESC_LIST$ -> CONST.CONSTD.DESC_COUNT = IDENT_COUNT;

  14868 17 000237   000000 471500                    LDP1    0,,PR0
        17 000240   300000 723100                    LXL3    0,,PR3
        17 000241   100010 443100                    SXL3    8,,PR1

       89    14869    3              DESC_LIST$ -> CONST.B.TWO_WORD = TRUE;

  14869 17 000242   000000 471500                    LDP1    0,,PR0
        17 000243   200000 236003                    LDQ     65536,DU
        17 000244   100003 256100                    ORSQ    3,,PR1

       90    14870    3              DESC$ = ADDR(DESC_LIST$ -> CONST.CONSTD.DESC);

  14870 17 000245   000000 471500                    LDP1    0,,PR0
        17 000246   100011 634500                    EPPR4   9,,PR1
        17 000247   200011 454500                    STP4    DESC$,,AUTO

       91    14871    3            END;

       92    14872
       93    14873
       94    14874    2   END ; /* Procedure -- CREATE_TEMP_FOR_DESC */

  14874 17 000250   200032 221300                    LDX1  ! ARG+8,,AUTO
        17 000251   000001 702211                    TSX2  ! 1,X1

       95    14875        %EJECT ;
PL6.E3A0      #001=Z9EY$BUILD_RUNTIME_DESCRIPTOR File=Z9EY.:Z8A6TSI              SAT 08/09/97 13:55 Page:23
       96    14876    1   COMPUTE_RUNTIME_SIZE: PROC  (LIST$, TEMP$);

  14876 17 000252   200032 741300       COMPUTE_RUN* STX1  ! ARG+8,,AUTO

       97    14877    2   DCL LIST$                     PTR;
       98    14878
       99    14879    2   DCL LOP$                      PTR;
      100    14880    2   DCL ROP$                      PTR;
      101    14881    2   DCL TEMP$                     PTR;
      102    14882
      103    14883    3          DO;

      104    14884    3            IF TEMP$ = ADDR(NIL) THEN /* First variable length found */

  14884 17 000253   200034 470500                    LDP0    @TEMP$,,AUTO
        17 000254   000000 236100                    LDQ     0,,PR0
        17 000255   000000 116000 18                 CMPQ    0
        17 000256   000306 601000 17                 TNZ     s:14891

      105    14885    4              DO;

      106    14886    4                CALL Z8AT$CREATE_TEMPORARY (%SCALAR, TEMP$);

  14886 17 000257   200034 236100                    LDQ     @TEMP$,,AUTO
        17 000260   000006 235000 18                 LDA     6
        17 000261   200040 757100                    STAQ    ROP$+2,,AUTO
        17 000262   200040 630500                    EPPR0   ROP$+2,,AUTO
        17 000263   000004 631400 18                 EPPR1   4
        17 000264   000000 701000 xent               TSX1    Z8AT$CREATE_TEMPORARY
        17 000265   000000 011000                    NOP     0

      107    14887    4                TEMP$ -> SCALAR.TYPE = %TYA;

  14887 17 000266   200034 470500                    LDP0    @TEMP$,,AUTO
        17 000267   000000 471500                    LDP1    0,,PR0
        17 000270   000010 220003                    LDX0    8,DU
        17 000271   100002 740100                    STX0    2,,PR1
PL6.E3A0      #001=Z9EY$BUILD_RUNTIME_DESCRIPTOR File=Z9EY.:Z8A6TSI              SAT 08/09/97 13:55 Page:24

      108    14888
      109    14889    4                CALL Z8AF$FORME (%BASE, TEMP$, ADDR(NIL), TEMP$);

  14889 17 000272   000000 236000 18                 LDQ     0
        17 000273   200040 756100                    STQ     ROP$+2,,AUTO
        17 000274   200034 236100                    LDQ     @TEMP$,,AUTO
        17 000275   200045 756100                    STQ     ROP$+7,,AUTO
        17 000276   200040 631500                    EPPR1   ROP$+2,,AUTO
        17 000277   200044 451500                    STP1    ROP$+6,,AUTO
        17 000300   000011 235000 18                 LDA     9
        17 000301   200042 757100                    STAQ    ROP$+4,,AUTO
        17 000302   200042 630500                    EPPR0   ROP$+4,,AUTO
        17 000303   000007 631400 18                 EPPR1   7
        17 000304   000000 701000 xent               TSX1    Z8AF$FORME
        17 000305   000000 011000                    NOP     0

      110    14890    4              END;

      111    14891    3            DESC$ -> RUNTIME.DESC.DES_W.ADSC.ARG_SIZE = 0;

  14891 17 000306   200011 470500                    LDP0    DESC$,,AUTO
        17 000307   000012 236000 18                 LDQ     10
        17 000310   000000 356100                    ANSQ    0,,PR0

      112    14892
      113    14893    3            ROP$ = LIST$ -> LX_ETT_ITEM.ETT$ -> ETT.ROP;

  14893 17 000311   200033 471500                    LDP1    @LIST$,,AUTO
        17 000312   100000 473500                    LDP3    0,,PR1
        17 000313   300001 474500                    LDP4    1,,PR3
        17 000314   400002 236100                    LDQ     2,,PR4
        17 000315   200036 756100                    STQ     ROP$,,AUTO

      114    14894
      115    14895    3            CALL Z8AF$NEW_OFF (TEMP$, (ARG_COUNT + 1) * 4, LOP$);

PL6.E3A0      #001=Z9EY$BUILD_RUNTIME_DESCRIPTOR File=Z9EY.:Z8A6TSI              SAT 08/09/97 13:55 Page:25
  14895 17 000316   200015 235100                    LDA     ARG_COUNT,,AUTO
        17 000317   000002 735000                    ALS     2
        17 000320   000004 035007                    ADLA    4,DL
        17 000321   200040 755100                    STA     ROP$+2,,AUTO
        17 000322   200035 633500                    EPPR3   LOP$,,AUTO
        17 000323   200043 453500                    STP3    ROP$+5,,AUTO
        17 000324   200040 634500                    EPPR4   ROP$+2,,AUTO
        17 000325   200042 454500                    STP4    ROP$+4,,AUTO
        17 000326   200034 236100                    LDQ     @TEMP$,,AUTO
        17 000327   200041 756100                    STQ     ROP$+3,,AUTO
        17 000330   200041 630500                    EPPR0   ROP$+3,,AUTO
        17 000331   000013 631400 18                 EPPR1   11
        17 000332   000000 701000 xent               TSX1    Z8AF$NEW_OFF
        17 000333   000000 011000                    NOP     0

      116    14896
      117    14897                 %NEW_ILL (@ID    = %MVIH,
      118    14898                           @CODE  = %MVIH_LOWER,
      119    14899                           @LOP   = LOP$,
      120    14900                           @ROP   = ROP$) ;

  15084 17 000334   000016 236000 18                 LDQ     14
        17 000335   200040 756100                    STQ     ROP$+2,,AUTO
        17 000336   200035 630500                    EPPR0   LOP$,,AUTO
        17 000337   200045 450500                    STP0    ROP$+7,,AUTO
        17 000340   200040 631500                    EPPR1   ROP$+2,,AUTO
        17 000341   200044 451500                    STP1    ROP$+6,,AUTO
        17 000342   000020 237000 18                 LDAQ    16
        17 000343   200042 757100                    STAQ    ROP$+4,,AUTO
        17 000344   000011 236000 18                 LDQ     9
        17 000345   200041 756100                    STQ     ROP$+3,,AUTO
        17 000346   200041 630500                    EPPR0   ROP$+3,,AUTO
        17 000347   000014 631400 18                 EPPR1   12
        17 000350   000000 701000 xent               TSX1    Z8AN$NEW_ILL1
        17 000351   000000 011000                    NOP     0

  15086 17 000352   000001 220003                    LDX0    1,DU
PL6.E3A0      #001=Z9EY$BUILD_RUNTIME_DESCRIPTOR File=Z9EY.:Z8A6TSI              SAT 08/09/97 13:55 Page:26
        17 000353   000000 470400 5                  LDP0    ILL$
        17 000354   000000 440100                    SXL0    0,,PR0

  15087 17 000355   200035 236100                    LDQ     LOP$,,AUTO
        17 000356   000000 470400 5                  LDP0    ILL$
        17 000357   000001 756100                    STQ     1,,PR0

  15088 17 000360   200036 236100                    LDQ     ROP$,,AUTO
        17 000361   000002 756100                    STQ     2,,PR0

      121    15279
      122    15280    3            LIST$ -> LX_ETT_ITEM.ETT$ = LIST$ -> LX_ETT_ITEM.ETT$ -> ETT.LOP;

  15280 17 000362   200033 471500                    LDP1    @LIST$,,AUTO
        17 000363   100000 473500                    LDP3    0,,PR1
        17 000364   300001 474500                    LDP4    1,,PR3
        17 000365   400001 236100                    LDQ     1,,PR4
        17 000366   300001 756100                    STQ     1,,PR3

      123    15281    3          END;

      124    15282    2   END ; /* Procedure -- COMPUTE_RUNTIME_SIZE */

  15282 17 000367   200032 221300                    LDX1  ! ARG+8,,AUTO
        17 000370   000001 702211                    TSX2  ! 1,X1

      125    15283        %EJECT;
PL6.E3A0      #001=Z9EY$BUILD_RUNTIME_DESCRIPTOR File=Z9EY.:Z8A6TSI              SAT 08/09/97 13:55 Page:27
      126    15284
      127    15285    1    TEMP$ = ADDR(NIL);

  15285 17 000371   000000 236000 18                 LDQ     0
        17 000372   200012 756100                    STQ     TEMP$,,AUTO

      128    15286    1    CALL CREATE_TEMP_FOR_DESC(TOT_ARG_COUNT);

  15286 17 000373   200017 630500                    EPPR0   TOT_ARG_COUNT,,AUTO
        17 000374   200033 450500                    STP0    ARG+9,,AUTO
        17 000375   000003 701000 17                 TSX1    CREATE_TEMP_FOR_DESC
        17 000376   000000 011000                    NOP     0

      129    15287
      130    15288    1   ARG_OFFSET_COUNT = 0;

  15288 17 000377   200016 450100                    STZ     ARG_OFFSET_COUNT,,AUTO

      131    15289    1    ARG_COUNT = 0;

  15289 17 000400   200015 450100                    STZ     ARG_COUNT,,AUTO

      132    15290    1    LIST$ = LIST_TOP$;

  15290 17 000401   200003 470500                    LDP0    @LIST_TOP$,,AUTO
        17 000402   000000 236100                    LDQ     0,,PR0
        17 000403   200010 756100                    STQ     LIST$,,AUTO

      133    15291
      134    15292    2    DO WHILE (LIST$ ~= ADDR(NIL));

  15292 17 000404   000761 710000 17                 TRA     s:16150

      135    15293
      136    15294          %FISH (TRIAD = LIST$ -> LX_ETT_ITEM.ETT$,
      137    15295                 RTN = ST$);

PL6.E3A0      #001=Z9EY$BUILD_RUNTIME_DESCRIPTOR File=Z9EY.:Z8A6TSI              SAT 08/09/97 13:55 Page:28
  15297 17 000405   200010 470500                    LDP0    LIST$,,AUTO
        17 000406   000001 236100                    LDQ     1,,PR0
        17 000407   000000 756000 1                  STQ     ST$

  15298 17 000410   000000 471400 1                  LDP1    ST$
        17 000411   100000 220100                    LDX0    0,,PR1
        17 000412   000751 100003                    CMPX0   489,DU
        17 000413   000423 603000 17                 TRC     s:15304

  15299 17 000414   000000 470400 1                  LDP0    ST$
        17 000415   000001 236100                    LDQ     1,,PR0
        17 000416   000000 756000 1                  STQ     ST$

  15300 17 000417   000000 470400 1                  LDP0    ST$
        17 000420   000000 220100                    LDX0    0,,PR0
        17 000421   000751 100003                    CMPX0   489,DU
        17 000422   000414 602000 17                 TNC     s:15299

      138    15303
      139    15304    3     DO CASE(LIST$ -> LX_ETT_ITEM.TYPE);

  15304 17 000423   200010 470500                    LDP0    LIST$,,AUTO
        17 000424   000004 235100                    LDA     4,,PR0
        17 000425   000024 115007                    CMPA    20,DL
        17 000426   000430 602005 17                 TNC     s:15304+5,AL
        17 000427   000560 710000 17                 TRA     s:15345
        17 000430   000531 710000 17                 TRA     s:15333
        17 000431   000531 710000 17                 TRA     s:15333
        17 000432   000531 710000 17                 TRA     s:15333
        17 000433   000531 710000 17                 TRA     s:15333
        17 000434   000531 710000 17                 TRA     s:15333
        17 000435   000531 710000 17                 TRA     s:15333
        17 000436   000454 710000 17                 TRA     s:15310
        17 000437   000531 710000 17                 TRA     s:15333
        17 000440   000454 710000 17                 TRA     s:15310
        17 000441   000560 710000 17                 TRA     s:15345
        17 000442   000560 710000 17                 TRA     s:15345
PL6.E3A0      #001=Z9EY$BUILD_RUNTIME_DESCRIPTOR File=Z9EY.:Z8A6TSI              SAT 08/09/97 13:55 Page:29
        17 000443   000531 710000 17                 TRA     s:15333
        17 000444   000454 710000 17                 TRA     s:15310
        17 000445   000560 710000 17                 TRA     s:15345
        17 000446   000454 710000 17                 TRA     s:15310
        17 000447   000531 710000 17                 TRA     s:15333
        17 000450   000560 710000 17                 TRA     s:15345
        17 000451   000560 710000 17                 TRA     s:15345
        17 000452   000531 710000 17                 TRA     s:15333
        17 000453   000531 710000 17                 TRA     s:15333

      140    15305
      141    15306    3       CASE(%TYA, %TYN, %TYB, %TYE);

      142    15307
      143    15308               %GET_ADSC_LEN(ST$=ST$,RTN=ALPHA_LEN);

  15310 17 000454   000000 471400 1                  LDP1    ST$
        17 000455   100003 236100                    LDQ     3,,PR1
        17 000456   004000 316003                    CANQ    2048,DU
        17 000457   000473 600000 17                 TZE     s:15316

  15311 17 000460   100005 473500                    LDP3    5,,PR1
        17 000461   300000 220100                    LDX0    0,,PR3
        17 000462   001105 100003                    CMPX0   581,DU
        17 000463   000470 601000 17                 TNZ     s:15314

  15312 17 000464   300003 474500                    LDP4    3,,PR3
        17 000465   400001 235100                    LDA     1,,PR4
        17 000466   200020 755100                    STA     ALPHA_LEN,,AUTO
        17 000467   000476 710000 17                 TRA     s:15319

  15314 17 000470   300001 235100                    LDA     1,,PR3
        17 000471   200020 755100                    STA     ALPHA_LEN,,AUTO
        17 000472   000476 710000 17                 TRA     s:15319

  15316 17 000473   100001 236100                    LDQ     1,,PR1
        17 000474   007777 376007                    ANQ     4095,DL
PL6.E3A0      #001=Z9EY$BUILD_RUNTIME_DESCRIPTOR File=Z9EY.:Z8A6TSI              SAT 08/09/97 13:55 Page:30
        17 000475   200020 756100                    STQ     ALPHA_LEN,,AUTO

      144    15319    3          IF ALPHA_LEN > 8191 THEN

  15319 17 000476   200020 235100                    LDA     ALPHA_LEN,,AUTO
        17 000477   020000 115007                    CMPA    8192,DL
        17 000500   000502 602000 17                 TNC     s:15322

      145    15320    3             ARG_OFFSET_COUNT = ARG_OFFSET_COUNT + 1;

  15320 17 000501   200016 054100                    AOS     ARG_OFFSET_COUNT,,AUTO

      146    15321
      147    15322    3          CALL Z9EO$RUNTIME_DESC_FROM_ETT (LIST$ -> LX_ETT_ITEM.ETT$,

  15322 17 000502   200006 633500                    EPPR3   DESC_CONST$,,AUTO
        17 000503   200044 453500                    STP3    ROP$+6,,AUTO
        17 000504   200016 634500                    EPPR4   ARG_OFFSET_COUNT,,AUTO
        17 000505   200043 454500                    STP4    ROP$+5,,AUTO
        17 000506   200017 635500                    EPPR5   TOT_ARG_COUNT,,AUTO
        17 000507   200042 455500                    STP5    ROP$+4,,AUTO
        17 000510   200011 236100                    LDQ     DESC$,,AUTO
        17 000511   200041 756100                    STQ     ROP$+3,,AUTO
        17 000512   200010 236100                    LDQ     LIST$,,AUTO
        17 000513   000001 036003                    ADLQ    1,DU
        17 000514   200040 756100                    STQ     ROP$+2,,AUTO
        17 000515   200040 630500                    EPPR0   ROP$+2,,AUTO
        17 000516   000014 631400 18                 EPPR1   12
        17 000517   000000 701000 xent               TSX1    Z9EO$RUNTIME_DESC_FROM_ETT
        17 000520   000522 702000 17                 TSX2    s:15328
        17 000521   000530 710000 17                 TRA     s:15329

      148    15323    3                                           DESC$ -> RUNTIME.DESC,
      149    15324    3                                           TOT_ARG_COUNT, ARG_OFFSET_COUNT,
      150    15325    3                                           DESC_CONST$)
      151    15326    3            WHENALTRETURN
      152    15327    4              DO;
PL6.E3A0      #001=Z9EY$BUILD_RUNTIME_DESCRIPTOR File=Z9EY.:Z8A6TSI              SAT 08/09/97 13:55 Page:31

      153    15328    4                CALL COMPUTE_RUNTIME_SIZE (LIST$, TEMP$);

  15328 17 000522   200012 630500                    EPPR0   TEMP$,,AUTO
        17 000523   200034 450500                    STP0    @LIST$+1,,AUTO
        17 000524   200010 631500                    EPPR1   LIST$,,AUTO
        17 000525   200033 451500                    STP1    ARG+9,,AUTO
        17 000526   000252 701000 17                 TSX1    COMPUTE_RUNTIME_SIZE
        17 000527   000000 011000                    NOP     0

      154    15329    4              END;

  15329 17 000530   000752 710000 17                 TRA     s:16145

      155    15330
      156    15331    3       CASE(%TYD, %TYI, %TYK, %TYJ, %TYR, %TYQ, %TYH, %TYO, %TYP, %TYC, %TYF);

      157    15332
      158    15333    3          CALL Z9EO$RUNTIME_DESC_FROM_ETT (LIST$ -> LX_ETT_ITEM.ETT$,

  15333 17 000531   200006 631500                    EPPR1   DESC_CONST$,,AUTO
        17 000532   200044 451500                    STP1    ROP$+6,,AUTO
        17 000533   200016 633500                    EPPR3   ARG_OFFSET_COUNT,,AUTO
        17 000534   200043 453500                    STP3    ROP$+5,,AUTO
        17 000535   200017 634500                    EPPR4   TOT_ARG_COUNT,,AUTO
        17 000536   200042 454500                    STP4    ROP$+4,,AUTO
        17 000537   200011 236100                    LDQ     DESC$,,AUTO
        17 000540   200041 756100                    STQ     ROP$+3,,AUTO
        17 000541   200010 236100                    LDQ     LIST$,,AUTO
        17 000542   000001 036003                    ADLQ    1,DU
        17 000543   200040 756100                    STQ     ROP$+2,,AUTO
        17 000544   200040 630500                    EPPR0   ROP$+2,,AUTO
        17 000545   000014 631400 18                 EPPR1   12
        17 000546   000000 701000 xent               TSX1    Z9EO$RUNTIME_DESC_FROM_ETT
        17 000547   000551 702000 17                 TSX2    s:15339
        17 000550   000557 710000 17                 TRA     s:15340

PL6.E3A0      #001=Z9EY$BUILD_RUNTIME_DESCRIPTOR File=Z9EY.:Z8A6TSI              SAT 08/09/97 13:55 Page:32
      159    15334    3                                           DESC$ -> RUNTIME.DESC,
      160    15335    3                                           TOT_ARG_COUNT, ARG_OFFSET_COUNT,
      161    15336    3                                           DESC_CONST$)
      162    15337    3            WHENALTRETURN
      163    15338    4              DO;

      164    15339    4                CALL COMPUTE_RUNTIME_SIZE (LIST$, TEMP$);

  15339 17 000551   200012 630500                    EPPR0   TEMP$,,AUTO
        17 000552   200034 450500                    STP0    @LIST$+1,,AUTO
        17 000553   200010 631500                    EPPR1   LIST$,,AUTO
        17 000554   200033 451500                    STP1    ARG+9,,AUTO
        17 000555   000252 701000 17                 TSX1    COMPUTE_RUNTIME_SIZE
        17 000556   000000 011000                    NOP     0

      165    15340    4              END;

  15340 17 000557   000752 710000 17                 TRA     s:16145

      166    15341
      167    15342    3       CASE(ELSE);

      168    15343
      169    15344
      170    15345    4          DO CASE (ST$ -> ST.ID);

  15345 17 000560   000000 471400 1                  LDP1    ST$
        17 000561   100000 236100                    LDQ     0,,PR1
        17 000562   000022 772000                    QRL     18
        17 000563   000770 136007                    SBLQ    504,DL
        17 000564   000011 116007                    CMPQ    9,DL
        17 000565   000567 602006 17                 TNC     s:15345+7,QL
        17 000566   000746 710000 17                 TRA     s:16140
        17 000567   000611 710000 17                 TRA     s:15355
        17 000570   000611 710000 17                 TRA     s:15355
        17 000571   000600 710000 17                 TRA     s:15349
        17 000572   000746 710000 17                 TRA     s:16140
PL6.E3A0      #001=Z9EY$BUILD_RUNTIME_DESCRIPTOR File=Z9EY.:Z8A6TSI              SAT 08/09/97 13:55 Page:33
        17 000573   000600 710000 17                 TRA     s:15349
        17 000574   000746 710000 17                 TRA     s:16140
        17 000575   000746 710000 17                 TRA     s:16140
        17 000576   000600 710000 17                 TRA     s:15349
        17 000577   000600 710000 17                 TRA     s:15349

      171    15346
      172    15347    4            CASE (%SYMREF_, %BLOCK, %POINTER, %SEGMENT);

      173    15348
      174    15349    4              DESC$ -> RUNTIME.DESC = '0'O;

  15349 17 000600   200011 473500                    LDP3    DESC$,,AUTO
        17 000601   300000 450100                    STZ     0,,PR3

      175    15350    4              DESC$ -> RUNTIME.DESC.DES_W.TYPE = %RUNTIME_POINTER;

  15350 17 000602   000015 220003                    LDX0    13,DU
        17 000603   300000 740100                    STX0    0,,PR3

      176    15351    4              DESC$ -> RUNTIME.DESC.DES_W.ADSC.ARG_SIZE = 36;

  15351 17 000604   300000 236100                    LDQ     0,,PR3
        17 000605   000012 376000 18                 ANQ     10
        17 000606   000044 276007                    ORQ     36,DL
        17 000607   300000 756100                    STQ     0,,PR3
        17 000610   000752 710000 17                 TRA     s:16145

      177    15352
      178    15353    4            CASE ( %PARA, %SECTION );

      179    15354
      180    15355    4               CALL Z8AT$CREATE_TEMPORARY (%SCALAR, ARG$);

  15355 17 000611   200014 633500                    EPPR3   ARG$,,AUTO
        17 000612   200041 453500                    STP3    ROP$+3,,AUTO
        17 000613   000006 236000 18                 LDQ     6
PL6.E3A0      #001=Z9EY$BUILD_RUNTIME_DESCRIPTOR File=Z9EY.:Z8A6TSI              SAT 08/09/97 13:55 Page:34
        17 000614   200040 756100                    STQ     ROP$+2,,AUTO
        17 000615   200040 630500                    EPPR0   ROP$+2,,AUTO
        17 000616   000004 631400 18                 EPPR1   4
        17 000617   000000 701000 xent               TSX1    Z8AT$CREATE_TEMPORARY
        17 000620   000000 011000                    NOP     0

      181    15356    4               ARG$ -> SCALAR.TYPE = %TYQ;

  15356 17 000621   000005 220003                    LDX0    5,DU
        17 000622   200014 470500                    LDP0    ARG$,,AUTO
        17 000623   000002 740100                    STX0    2,,PR0

      182    15357    4               ARG$ -> SCALAR.NDSC.N = 4;

  15357 17 000624   200014 470500                    LDP0    ARG$,,AUTO
        17 000625   000004 236007                    LDQ     4,DL
        17 000626   000001 752101                    STCQ    1,'01'O,PR0

      183    15358
      184    15359    4               CALL Z8AT$CREATE_TEMPORARY (%SCALAR, SWITCH$);

  15359 17 000627   200013 630500                    EPPR0   SWITCH$,,AUTO
        17 000630   200041 450500                    STP0    ROP$+3,,AUTO
        17 000631   000006 236000 18                 LDQ     6
        17 000632   200040 756100                    STQ     ROP$+2,,AUTO
        17 000633   200040 630500                    EPPR0   ROP$+2,,AUTO
        17 000634   000004 631400 18                 EPPR1   4
        17 000635   000000 701000 xent               TSX1    Z8AT$CREATE_TEMPORARY
        17 000636   000000 011000                    NOP     0

      185    15360
      186    15361    4               CALL Z8EU$CREATE_IDENTIFIER_FROM_ST (ARG$, ADDR(ARG));

  15361 17 000637   200022 630500                    EPPR0   ARG,,AUTO
        17 000640   200040 450500                    STP0    ROP$+2,,AUTO
        17 000641   200040 631500                    EPPR1   ROP$+2,,AUTO
        17 000642   200043 451500                    STP1    ROP$+5,,AUTO
PL6.E3A0      #001=Z9EY$BUILD_RUNTIME_DESCRIPTOR File=Z9EY.:Z8A6TSI              SAT 08/09/97 13:55 Page:35
        17 000643   200014 633500                    EPPR3   ARG$,,AUTO
        17 000644   200042 453500                    STP3    ROP$+4,,AUTO
        17 000645   200042 630500                    EPPR0   ROP$+4,,AUTO
        17 000646   000004 631400 18                 EPPR1   4
        17 000647   000000 701000 xent               TSX1    Z8EU$CREATE_IDENTIFIER_FROM_ST
        17 000650   000000 011000                    NOP     0

      187    15362
      188    15363                    %NEW_ILL( @ID = %STP2,
      189    15364                              @LOP = ARG$);

  15690 17 000651   000016 236000 18                 LDQ     14
        17 000652   200040 756100                    STQ     ROP$+2,,AUTO
        17 000653   200040 630500                    EPPR0   ROP$+2,,AUTO
        17 000654   200045 450500                    STP0    ROP$+7,,AUTO
        17 000655   000021 236000 18                 LDQ     17
        17 000656   200044 756100                    STQ     ROP$+6,,AUTO
        17 000657   000024 237000 18                 LDAQ    20
        17 000660   200042 757100                    STAQ    ROP$+4,,AUTO
        17 000661   200042 630500                    EPPR0   ROP$+4,,AUTO
        17 000662   000007 631400 18                 EPPR1   7
        17 000663   000000 701000 xent               TSX1    Z8AN$NEW_ILL
        17 000664   000000 011000                    NOP     0

  15694 17 000665   200014 236100                    LDQ     ARG$,,AUTO
        17 000666   000000 470400 5                  LDP0    ILL$
        17 000667   000001 756100                    STQ     1,,PR0

      190    15743                    %NEW_ILL( @ID = %REMEM,
      191    15744                              @LOP = ST$,
      192    15745                              @ROP = SWITCH$);

  15988 17 000670   000016 236000 18                 LDQ     14
        17 000671   200040 756100                    STQ     ROP$+2,,AUTO
        17 000672   200040 631500                    EPPR1   ROP$+2,,AUTO
        17 000673   200045 451500                    STP1    ROP$+7,,AUTO
        17 000674   000021 236000 18                 LDQ     17
PL6.E3A0      #001=Z9EY$BUILD_RUNTIME_DESCRIPTOR File=Z9EY.:Z8A6TSI              SAT 08/09/97 13:55 Page:36
        17 000675   200044 756100                    STQ     ROP$+6,,AUTO
        17 000676   000030 237000 18                 LDAQ    24
        17 000677   200042 757100                    STAQ    ROP$+4,,AUTO
        17 000700   200042 630500                    EPPR0   ROP$+4,,AUTO
        17 000701   000007 631400 18                 EPPR1   7
        17 000702   000000 701000 xent               TSX1    Z8AN$NEW_ILL
        17 000703   000000 011000                    NOP     0

  15989 17 000704   000000 236000 1                  LDQ     ST$
        17 000705   000000 470400 5                  LDP0    ILL$
        17 000706   000001 756100                    STQ     1,,PR0

  15990 17 000707   200013 236100                    LDQ     SWITCH$,,AUTO
        17 000710   000002 756100                    STQ     2,,PR0

      193    16124
      194    16125    4               ADDR(ARG) -> LX_ITEM.LINK = LIST$ -> LX_ETT_ITEM.LINK;

  16125 17 000711   200010 471500                    LDP1    LIST$,,AUTO
        17 000712   100007 236100                    LDQ     7,,PR1
        17 000713   200031 756100                    STQ     ARG+7,,AUTO

      195    16126    4               LIST$ -> LX_ETT_ITEM = ARG;

  16126 17 000714   000100 100500                    MLR     fill='000'O
        17 000715   200022 000040                    ADSC9   ARG,,AUTO                cn=0,n=32
        17 000716   100000 000040                    ADSC9   0,,PR1                   cn=0,n=32

      196    16127
      197    16128    4               CALL Z9EO$RUNTIME_DESC_FROM_ETT( LIST$ -> LX_ETT_ITEM.ETT$,

  16128 17 000717   200006 630500                    EPPR0   DESC_CONST$,,AUTO
        17 000720   200044 450500                    STP0    ROP$+6,,AUTO
        17 000721   200016 631500                    EPPR1   ARG_OFFSET_COUNT,,AUTO
        17 000722   200043 451500                    STP1    ROP$+5,,AUTO
        17 000723   200017 633500                    EPPR3   TOT_ARG_COUNT,,AUTO
        17 000724   200042 453500                    STP3    ROP$+4,,AUTO
PL6.E3A0      #001=Z9EY$BUILD_RUNTIME_DESCRIPTOR File=Z9EY.:Z8A6TSI              SAT 08/09/97 13:55 Page:37
        17 000725   200011 236100                    LDQ     DESC$,,AUTO
        17 000726   200041 756100                    STQ     ROP$+3,,AUTO
        17 000727   200010 236100                    LDQ     LIST$,,AUTO
        17 000730   000001 036003                    ADLQ    1,DU
        17 000731   200040 756100                    STQ     ROP$+2,,AUTO
        17 000732   200040 630500                    EPPR0   ROP$+2,,AUTO
        17 000733   000014 631400 18                 EPPR1   12
        17 000734   000000 701000 xent               TSX1    Z9EO$RUNTIME_DESC_FROM_ETT
        17 000735   000737 702000 17                 TSX2    s:16134
        17 000736   000745 710000 17                 TRA     s:16135

      198    16129    4                                                DESC$ -> RUNTIME.DESC,
      199    16130    4                                                TOT_ARG_COUNT, ARG_OFFSET_COUNT,
      200    16131    4                                                DESC_CONST$)
      201    16132    4                   WHENALTRETURN
      202    16133    5                     DO;

      203    16134    5                       CALL COMPUTE_RUNTIME_SIZE( LIST$, TEMP$ );

  16134 17 000737   200012 630500                    EPPR0   TEMP$,,AUTO
        17 000740   200034 450500                    STP0    @LIST$+1,,AUTO
        17 000741   200010 631500                    EPPR1   LIST$,,AUTO
        17 000742   200033 451500                    STP1    ARG+9,,AUTO
        17 000743   000252 701000 17                 TSX1    COMPUTE_RUNTIME_SIZE
        17 000744   000000 011000                    NOP     0

      204    16135    5                     END;

  16135 17 000745   000752 710000 17                 TRA     s:16145

      205    16136
      206    16137
      207    16138    4            CASE (ELSE);

      208    16139
      209    16140    4               CALL Z8AE$ERROR (%E$UNEXPECTED_CASE);

PL6.E3A0      #001=Z9EY$BUILD_RUNTIME_DESCRIPTOR File=Z9EY.:Z8A6TSI              SAT 08/09/97 13:55 Page:38
  16140 17 000746   000032 630400 18                 EPPR0   26
        17 000747   000001 631400 18                 EPPR1   1
        17 000750   000000 701000 xent               TSX1    Z8AE$ERROR
        17 000751   000000 011000                    NOP     0

      210    16141    4          END;

      211    16142    3     END;

      212    16143
      213    16144
      214    16145    2      ARG_COUNT  = ARG_COUNT + 1;

  16145 17 000752   200015 054100                    AOS     ARG_COUNT,,AUTO

      215    16146    2      DESC$ = PINCRW(DESC$,1);

  16146 17 000753   200011 236100                    LDQ     DESC$,,AUTO
        17 000754   000001 036003                    ADLQ    1,DU
        17 000755   200011 756100                    STQ     DESC$,,AUTO

      216    16147
      217    16148    2      LIST$ = LIST$ -> LX_ETT_ITEM.LINK;

  16148 17 000756   200010 470500                    LDP0    LIST$,,AUTO
        17 000757   000007 236100                    LDQ     7,,PR0
        17 000760   200010 756100                    STQ     LIST$,,AUTO

      218    16149
      219    16150    2    END; /* Until -- list$ ~= addr(nil) */

  16150 17 000761   000000 116000 18                 CMPQ    0
        17 000762   000405 601000 17                 TNZ     s:15297

      220    16151
      221    16152    1    CALL Z8AF$FORME (%TRIAD, DESC_LIST$, ADDR(NIL), DESC_LIST$);

PL6.E3A0      #001=Z9EY$BUILD_RUNTIME_DESCRIPTOR File=Z9EY.:Z8A6TSI              SAT 08/09/97 13:55 Page:39
  16152 17 000763   000000 236000 18                 LDQ     0
        17 000764   200040 756100                    STQ     ROP$+2,,AUTO
        17 000765   200004 236100                    LDQ     @DESC_LIST$,,AUTO
        17 000766   200045 756100                    STQ     ROP$+7,,AUTO
        17 000767   200040 630500                    EPPR0   ROP$+2,,AUTO
        17 000770   200044 450500                    STP0    ROP$+6,,AUTO
        17 000771   000034 235000 18                 LDA     28
        17 000772   200042 757100                    STAQ    ROP$+4,,AUTO
        17 000773   200042 630500                    EPPR0   ROP$+4,,AUTO
        17 000774   000007 631400 18                 EPPR1   7
        17 000775   000000 701000 xent               TSX1    Z8AF$FORME
        17 000776   000000 011000                    NOP     0

      222    16153
      223    16154    1    IF TEMP$ ~= ADDR(NIL) THEN

  16154 17 000777   200012 236100                    LDQ     TEMP$,,AUTO
        17 001000   000000 116000 18                 CMPQ    0
        17 001001   001042 600000 17                 TZE     s:16544

      224    16155    2      DO;

      225    16156    2        TEMP$ -> ETT.LOP -> SCALAR.ADSC.N = (ARG_COUNT + ARG_OFFSET_COUNT + 1) *4;

  16156 17 001002   200012 470500                    LDP0    TEMP$,,AUTO
        17 001003   000001 471500                    LDP1    1,,PR0
        17 001004   200015 236100                    LDQ     ARG_COUNT,,AUTO
        17 001005   200016 036100                    ADLQ    ARG_OFFSET_COUNT,,AUTO
        17 001006   000002 736000                    QLS     2
        17 001007   000004 036007                    ADLQ    4,DL
        17 001010   100001 752103                    STCQ    1,'03'O,PR1

      226    16157
      227    16158
      228    16159             %NEW_ILL (@ID   = %PRESET,
      229    16160                       @LOP  = TEMP$ -> ETT.LOP,
      230    16161                       @ROP  = DESC_LIST$ -> ETT.LOP);
PL6.E3A0      #001=Z9EY$BUILD_RUNTIME_DESCRIPTOR File=Z9EY.:Z8A6TSI              SAT 08/09/97 13:55 Page:40

  16381 17 001011   000016 236000 18                 LDQ     14
        17 001012   200040 756100                    STQ     ROP$+2,,AUTO
        17 001013   200040 630500                    EPPR0   ROP$+2,,AUTO
        17 001014   200045 450500                    STP0    ROP$+7,,AUTO
        17 001015   000021 236000 18                 LDQ     17
        17 001016   200044 756100                    STQ     ROP$+6,,AUTO
        17 001017   000036 237000 18                 LDAQ    30
        17 001020   200042 757100                    STAQ    ROP$+4,,AUTO
        17 001021   200042 630500                    EPPR0   ROP$+4,,AUTO
        17 001022   000007 631400 18                 EPPR1   7
        17 001023   000000 701000 xent               TSX1    Z8AN$NEW_ILL
        17 001024   000000 011000                    NOP     0

  16383 17 001025   000000 220003                    LDX0    0,DU
        17 001026   000000 470400 5                  LDP0    ILL$
        17 001027   000000 440100                    SXL0    0,,PR0

  16387 17 001030   200012 470500                    LDP0    TEMP$,,AUTO
        17 001031   000001 236100                    LDQ     1,,PR0
        17 001032   000000 471400 5                  LDP1    ILL$
        17 001033   100001 756100                    STQ     1,,PR1

  16388 17 001034   200004 470500                    LDP0    @DESC_LIST$,,AUTO
        17 001035   000000 473500                    LDP3    0,,PR0
        17 001036   300001 236100                    LDQ     1,,PR3
        17 001037   100002 756100                    STQ     2,,PR1

      231    16540
      232    16541    2        DESC_LIST$ = TEMP$;

  16541 17 001040   200012 236100                    LDQ     TEMP$,,AUTO
        17 001041   000000 756100                    STQ     0,,PR0

      233    16542    2      END;

      234    16543
PL6.E3A0      #001=Z9EY$BUILD_RUNTIME_DESCRIPTOR File=Z9EY.:Z8A6TSI              SAT 08/09/97 13:55 Page:41
      235    16544    1   END Z9EY$BUILD_RUNTIME_DESCRIPTOR; /* Proc -- */

  16544 17 001042   000000 702200 xent               TSX2  ! X66_ARET
      236    16545         %EOD;

PL6.E3A0      #001=Z9EY$BUILD_RUNTIME_DESCRIPTOR File=Z9EY.:Z8A6TSI              SAT 08/09/97 13:55 Page:42
--  Include file information  --

   X9A_MACROS.:X8A6TOU  is referenced.
   Z8E_NEW_ILL.:Z8A6TOU  is referenced.
   Z8E_MACROS.:Z8A6TOU  cannot be made into a system file and is referenced.
   Z8E_O1COM.:Z8A6TOU  cannot be made into a system file and is referenced.
   Z8A_LEX_SYMB.:Z8A6TOU  cannot be made into a system file and is referenced.
   Z8E_STACKS.:Z8A6TOU  cannot be made into a system file and is referenced.
   Z8A_ERR_NUMS.:Z8A6TOU  is referenced.
   Z8A_LTS.:Z8A6TOU  cannot be made into a system file and is referenced.
   Z8A_ETT.:Z8A6TOU  cannot be made into a system file and is referenced.
   Z8A_ILL.:Z8A6TOU  cannot be made into a system file and is referenced.
   Z8A_ILS.:Z8A6TOU  cannot be made into a system file and is referenced.
   Z8A_TYPES.:Z8A6TOU  is referenced.
   Z8A_ST.:Z8A6TOU  cannot be made into a system file and is referenced.
   Z8A_COMCOM.:Z8A6TOU  cannot be made into a system file and is referenced.
   X8A_COM_MACS.:X8A6TOU  is referenced.
   Z8A_NAMES.:Z8A6TOU  is referenced.
   Z8A_SUPP_MAC.:Z8A6TOU  is referenced.
   Z8A_DEFC.:Z8A6TOU  cannot be made into a system file and is referenced.
      No diagnostics issued in procedure Z9EY$BUILD_RUNTIME_DESCRIPTOR.
PL6.E3A0      #001=Z9EY$BUILD_RUNTIME_DESCRIPTOR File=Z9EY.:Z8A6TSI              SAT 08/09/97 13:55 Page:43

 **** Variables and constants ****

  ****  Section 000 LblCom ITERATION

  ****  Scalars and arrays  ****
OctLoc.c.b A Datatyp(siz) R M Lvl/name                 OctLoc.c.b A Datatyp(siz) R M Lvl/name

     0-0-0/w SBIN        r     1 ITERATION

  ****  Section 001 LblCom ST$

  ****  Scalars and arrays  ****
OctLoc.c.b A Datatyp(siz) R M Lvl/name                 OctLoc.c.b A Datatyp(siz) R M Lvl/name

     0-0-0/w PTR         r     1 ST$

  ****  Section 002 LblCom ST_

  ****  Scalars and arrays  ****
OctLoc.c.b A Datatyp(siz) R M Lvl/name                 OctLoc.c.b A Datatyp(siz) R M Lvl/name

     0-0-0/w STRC(180)   r     1 ST_

  ****  Section 003 LblCom ILS$

  ****  Scalars and arrays  ****
OctLoc.c.b A Datatyp(siz) R M Lvl/name                 OctLoc.c.b A Datatyp(siz) R M Lvl/name

     0-0-0/w PTR         r     1 ILS$

  ****  Section 004 LblCom ILS_

  ****  Scalars and arrays  ****
OctLoc.c.b A Datatyp(siz) R M Lvl/name                 OctLoc.c.b A Datatyp(siz) R M Lvl/name

     0-0-0/w STRC(180)         1 ILS_

PL6.E3A0      #001=Z9EY$BUILD_RUNTIME_DESCRIPTOR File=Z9EY.:Z8A6TSI              SAT 08/09/97 13:55 Page:44
  ****  Section 005 LblCom ILL$

  ****  Scalars and arrays  ****
OctLoc.c.b A Datatyp(siz) R M Lvl/name                 OctLoc.c.b A Datatyp(siz) R M Lvl/name

     0-0-0/w PTR         r     1 ILL$

  ****  Section 006 LblCom ILL_

  ****  Scalars and arrays  ****
OctLoc.c.b A Datatyp(siz) R M Lvl/name                 OctLoc.c.b A Datatyp(siz) R M Lvl/name

     0-0-0/w STRC(180)         1 ILL_

  ****  Section 007 LblCom ETT$

  ****  Scalars and arrays  ****
OctLoc.c.b A Datatyp(siz) R M Lvl/name                 OctLoc.c.b A Datatyp(siz) R M Lvl/name

     0-0-0/w PTR         r     1 ETT$

  ****  Section 008 LblCom HEAD_ETT$

  ****  Scalars and arrays  ****
OctLoc.c.b A Datatyp(siz) R M Lvl/name                 OctLoc.c.b A Datatyp(siz) R M Lvl/name

     0-0-0/w PTR               1 HEAD_ETT$

  ****  Section 009 LblCom ETT_BUCKETS

  ****  Scalars and arrays  ****
OctLoc.c.b A Datatyp(siz) R M Lvl/name                 OctLoc.c.b A Datatyp(siz) R M Lvl/name

     0-0-0/w PTR               1 ETT_BUCKETS(0:511)

  ****  Section 010 LblCom ETT_

PL6.E3A0      #001=Z9EY$BUILD_RUNTIME_DESCRIPTOR File=Z9EY.:Z8A6TSI              SAT 08/09/97 13:55 Page:45
  ****  Scalars and arrays  ****
OctLoc.c.b A Datatyp(siz) R M Lvl/name                 OctLoc.c.b A Datatyp(siz) R M Lvl/name

     0-0-0/w STRC(180)         1 ETT_

  ****  Section 011 LblCom LTS$

  ****  Scalars and arrays  ****
OctLoc.c.b A Datatyp(siz) R M Lvl/name                 OctLoc.c.b A Datatyp(siz) R M Lvl/name

     0-0-0/w PTR               1 LONG_ITEM$                 0-0-0/w PTR         r     1 LTS$

  ****  Section 012 LblCom LTS_

  ****  Scalars and arrays  ****
OctLoc.c.b A Datatyp(siz) R M Lvl/name                 OctLoc.c.b A Datatyp(siz) R M Lvl/name

     0-0-0/w STRC(180)   r     1 LTS_

  ****  Section 013 LblCom LEX_SYMBOL

  ****  Scalars and arrays  ****
OctLoc.c.b A Datatyp(siz) R M Lvl/name                 OctLoc.c.b A Datatyp(siz) R M Lvl/name

     0-0-0/w STRC(3240)  r     1 LEX_SYMBOL                 0-0-0/w STRC(3240)        1 LEX_SYMBOL_WORDS

  ****  Section 014 LblCom CURRENT_LEX_SYMBOL$

  ****  Scalars and arrays  ****
OctLoc.c.b A Datatyp(siz) R M Lvl/name                 OctLoc.c.b A Datatyp(siz) R M Lvl/name

     0-0-0/w PTR         r     1 CURRENT_LEX_SYMBOL$

  ****  Section 015 LblCom TEMP_LEX_SYMBOL

  ****  Scalars and arrays  ****
OctLoc.c.b A Datatyp(siz) R M Lvl/name                 OctLoc.c.b A Datatyp(siz) R M Lvl/name
PL6.E3A0      #001=Z9EY$BUILD_RUNTIME_DESCRIPTOR File=Z9EY.:Z8A6TSI              SAT 08/09/97 13:55 Page:46

     0-0-0/w STRC(3240)        1 TEMP_LEX_SYMBOL

  ****  Section 016 LblCom TEMP_LEX_SYMBOL2

  ****  Scalars and arrays  ****
OctLoc.c.b A Datatyp(siz) R M Lvl/name                 OctLoc.c.b A Datatyp(siz) R M Lvl/name

     0-0-0/w STRC(3240)        1 TEMP_LEX_SYMBOL2

  ****  Auto variables  ****

  ****  Scalars and arrays  ****
OctLoc.c.b A Datatyp(siz) R M Lvl/name                 OctLoc.c.b A Datatyp(siz) R M Lvl/name

     4-0-0/w PTR         r     1 @DESC_LIST$                5-0-0/w PTR         r     1 @IDENT_COUNT
    33-0-0/w PTR         r     1 @LIST$                     3-0-0/w PTR         r     1 @LIST_TOP$
    34-0-0/w PTR         r     1 @TEMP$                    33-0-0/w PTR         r     1 @TOT_ARG_COUNT
    20-0-0/w UBIN        r     1 ALPHA_LEN                 35-0-0/w UBIN        r     1 ALPHA_LEN
    22-0-0/d STRC(288)   r     1 ARG                       14-0-0/w PTR         r     1 ARG$
    15-0-0/w SBIN        r     1 ARG_COUNT                  7-0-0/w PTR               1 ARG_LIST$
    16-0-0/w SBIN        r     1 ARG_OFFSET_COUNT          34-0-0/w UBIN        r     1 ARG_OFFSET_COUNT
    11-0-0/w PTR         r     1 DESC$                      6-0-0/w PTR         r     1 DESC_CONST$
    *0-0-0/w PTR         r     1 DESC_LIST$                *0-0-0/w SBIN        r     1 IDENT_COUNT
    10-0-0/w PTR         r     1 LIST$                     *0-0-0/w PTR         r     1 LIST$
    *0-0-0/w PTR         r     1 LIST_TOP$                 35-0-0/w PTR         r     1 LOP$
    36-0-0/w PTR         r     1 ROP$                      13-0-0/w PTR         r     1 SWITCH$
    12-0-0/w PTR         r     1 TEMP$                     *0-0-0/w PTR         r     1 TEMP$
    17-0-0/w UBIN        r     1 TOT_ARG_COUNT             *0-0-0/w UBIN        r     1 TOT_ARG_COUNT

  ****  SYMREF variables  ****

  ****  Scalars and arrays  ****
OctLoc.c.b A Datatyp(siz) R M Lvl/name                 OctLoc.c.b A Datatyp(siz) R M Lvl/name

     0-0-0/d STRC(13248)       1 COMCOM
     0-0-0/w STRC(180)         1 HIER_STK(0:50)
PL6.E3A0      #001=Z9EY$BUILD_RUNTIME_DESCRIPTOR File=Z9EY.:Z8A6TSI              SAT 08/09/97 13:55 Page:47
     0-0-0/w SBIN              1 HIER_STK_PTR               0-0-0/w UBIN              1 ILL_STEP(0:144)
     0-0-0/w UBIN              1 ILS_STEP_TABLE(0:2)
     0-0-0/w UBIN              1 LTS_STEP(0:37)
     0-0-0/d STRC(11580) r     1 O1COM                      0-0-0/w STRC(144)         1 PAGE_FORMAT
     0-0-0/w STRC(153)         1 REP_STK(0:50)              0-0-0/w SBIN              1 REP_STK_PTR

  ****  BASED and DCB variables  ****

  ****  Scalars and arrays  ****
OctLoc.c.b A Datatyp(siz) R M Lvl/name                 OctLoc.c.b A Datatyp(siz) R M Lvl/name

     0-0-0/w STRC(108)         1 ACCEPT_DISPLAY             0-0-0/w STRC(288)         1 ADD_STMT
     0-0-0/w STRC(396)         1 ALPHABET                   0-0-0/w STRC(144)         1 ALTER_LTS
     0-0-0/w STRC(3672)        1 ALT_KEY                    0-0-0/w STRC(36864)       1 ARGLIST
     0-0-0/w STRC(396)         1 ARRAY                      0-0-0/w STRC(180)         1 ARRAY_PRESET_LTS
     0-0-0/w ASTR(324)   r     1 BASED_LEX_SYMBOL
     0-0-0/w STRC(360)         1 BASED_LEX_SYMBOL_WORDS
     0-0-0/w STRC(288)         1 BASE_LTS                   0-0-0/w STRC(108)         1 BINARY_ILL
     0-0-0/w STRC(288)         1 BINARY_OP                  0-0-0/w STRC(396)         1 BLOCK
     0-0-0/w STRC(144)         1 BRANCH_ILL                 0-0-0/w STRC(144)         1 BT
     0-0-0/w STRC(288)         1 CALL_STMT                  0-0-0/w STRC(216)         1 CCOSU
     0-0-0/w STRC(396)         1 CD                         0-0-0/w STRC(288)         1 CD_LTS
     0-0-0/w CHAR(4096)        1 CHARS                      0-0-0/w STRC(396)         1 CLASS
     0-0-0/w STRC(108)   r     1 CODED_MOVE                 0-0-0/w STRC(288)         1 COMPUTE_STMT
     0-0-0/w STRC(396)         1 CONDITION                  0-0-0/w STRC(396)   r     1 CONST
     0-0-0/w STRC(72)          1 CONT                       0-0-0/w STRC(540)         1 CONTROL_NAME_LTS
     0-0-0/w STRC(1872)        1 COPY_FILE                  0-0-0/w STRC(396)         1 DB
     0-0-0/w STRC(396)         1 DCB_                       0-0-0/w STRC(288)         1 DEFERED_IDENTIFIER
     0-0-0/w STRC(252)         1 DEFERED_ID_TREE            0-0-0/w STRC(288)         1 DEFERED_QUAL_ID
     0-0-0/w STRC(288)         1 DEFERED_SUM_CLAUSE
     0-0-0/w STRC(288)         1 DEFERED_SUM_CLAUSE_LIST
     0-0-0/w STRC(144)         1 DEFLB                      0-0-0/w STRC(288)         1 DELETE_STMT
     0-0-0/w STRC(108)         1 DEPENDING_SIZE             0-0-0/w STRC(5472)        1 DIMS
     0-0-0/w STRC(288)         1 DIVIDE_STMT                0-0-0/w STRC(396)         1 DML_ITEM
     0-0-0/w STRC(216)         1 DML_REC                    0-0-0/w STRC(144)         1 DOEND
     0-0-0/w STRC(396)         1 DO_N                       0-0-0/w STRC(180)         1 DV4I
     0-0-0/w STRC(180)         1 ENTRY_ILL                  0-0-0/w STRC(180)   r     1 ETT
PL6.E3A0      #001=Z9EY$BUILD_RUNTIME_DESCRIPTOR File=Z9EY.:Z8A6TSI              SAT 08/09/97 13:55 Page:48
     0-0-0/w STRC(108)         1 EVALU                      0-0-0/w STRC(73836)       1 EVALUATE
     0-0-0/w STRC(396)         1 FD                         0-0-0/w STRC(1692)        1 FILE_LTS
     0-0-0/w STRC(144)         1 GO                         0-0-0/w STRC(180)         1 ILL
     0-0-0/w STRC              1 ILL_NO_OPS                 0-0-0/w STRC(180)         1 ILS
     0-0-0/w STRC(288)         1 ILS_LIST                   0-0-0/w STRC(108)         1 INDEXES
     0-0-0/w STRC(360)         1 INIT_LTS                   0-0-0/w STRC(288)         1 INSPECT_1_STMT
     0-0-0/w STRC(288)         1 INSPECT_2_STMT             0-0-0/w STRC(288)         1 INSPECT_4_STMT
     0-0-0/w STRC(396)         1 INTDEF                     0-0-0/w STRC(180)         1 IO_RESTORE_CHAIN
     0-0-0/w STRC(144)         1 KEY                        0-0-0/w STRC(396)         1 LABEL
     0-0-0/w STRC(288)         1 LA_ITEM                    0-0-0/w STRC(36864) r     1 LCNST
     0-0-0/w STRC(108)         1 LINOI                      0-0-0/w STRC(72)    r     1 LONG
     0-0-0/w STRC        r     1 LTS                        0-0-0/w STRC(360)   r     1 LTSS
     0-0-0/w STRC(36936)       1 LTS_PTR_ARRAY              0-0-0/w STRC(504)         1 LX_CD_INPUT
     0-0-0/w STRC(324)         1 LX_CD_I_O                  0-0-0/w STRC(396)         1 LX_CD_OUTPUT
     0-0-0/w STRC(288)   r     1 LX_ETT_ITEM                0-0-0/w STRC(288)   r     1 LX_ITEM
     0-0-0/w STRC(288)         1 LX_LARGE                   0-0-0/w STRC(288)         1 LX_LIST
     0-0-0/w STRC(1224)        1 LX_REC_DECL                0-0-0/w STRC(864)         1 LX_REPORT_REC
     0-0-0/w STRC(288)         1 LX_TERMINAL                0-0-0/w STRC(72)          1 MFILL
     0-0-0/w STRC(396)         1 MNEMONIC                   0-0-0/w STRC(288)         1 MULTIPLY_STMT
     0-0-0/w STRC(180)         1 MULTI_GO                   0-0-0/w STRC(180)         1 MVEAL
     0-0-0/w STRC(108)         1 MVFIL                      0-0-0/w STRC(72)          1 MVIIS
     0-0-0/w STRC(144)         1 NEL                        0-0-0/w STRC(216)         1 OPEN_LTS
     0-0-0/w STRC(144)         1 OPN                        0-0-0/w STRC(180)         1 OS_CALL
     0-0-0/w STRC(36864)       1 PAGE                       0-0-0/w STRC(396)         1 PARA
     0-0-0/w STRC(216)         1 PFORM                      0-0-0/w STRC(144)         1 PINC
     0-0-0/w STRC(144)         1 PREOFF                     0-0-0/w STRC(108)   r     1 PRESET
     0-0-0/w STRC(144)         1 PRIME                      0-0-0/w STRC(396)         1 PROC_
     0-0-0/w STRC(396)         1 PROC_DEF                   0-0-0/w STRC(900)         1 PROC_SUPP
     0-0-0/w STRC(144)         1 P_A_PRESET                 0-0-0/w STRC(144)         1 P_P_PRESET
     0-0-0/w STRC(396)         1 RD                         0-0-0/w STRC(288)         1 READ_STMT
     0-0-0/w STRC(216)         1 REF                        0-0-0/w STRC(144)   r     1 REMEM
     0-0-0/w STRC(108)         1 RENAMES                    0-0-0/w STRC(720)         1 REPORT_01_LTS
     0-0-0/w STRC(432)         1 REPORT_ELEM_LTS            0-0-0/w STRC(252)         1 REPORT_GRP_LTS
     0-0-0/w STRC(1332)        1 REPORT_LTS                 0-0-0/w STRC(288)         1 REWRITE_STMT
     0-0-0/w STRC        r     1 RUNTIME                    0-0-0/w STRC(144)         1 RVA_LTS
     0-0-0/w STRC(396)   r     1 SCALAR                     0-0-0/w STRC(144)         1 SCOPE
     0-0-0/w STRC(396)         1 SD                         0-0-0/w STRC(216)         1 SEARCH_
PL6.E3A0      #001=Z9EY$BUILD_RUNTIME_DESCRIPTOR File=Z9EY.:Z8A6TSI              SAT 08/09/97 13:55 Page:49
     0-0-0/w STRC(396)         1 SECTION                    0-0-0/w STRC(396)         1 SEGMENT
     0-0-0/w STRC(360)         1 SEGMENT_LTS                0-0-0/w STRC(396)   r     1 ST
     0-0-0/w STRC(288)         1 START_STMT                 0-0-0/w STRC(72)          1 STP2
     0-0-0/w STRC(252)         1 STRING_STMT                0-0-0/w STRC(288)         1 SUBTRACT_STMT
     0-0-0/w STRC(252)         1 SUM_LTS                    0-0-0/w STRC(396)         1 SWITCH
     0-0-0/w STRC(396)         1 SYMBOLIC_CHAR              0-0-0/w STRC(396)         1 SYMDEF_
     0-0-0/w STRC(396)         1 SYMREF_                    0-0-0/w STRC(396)         1 TEMP
     0-0-0/w STRC(144)         1 TRINARY_ILL                0-0-0/w STRC(72)    r     1 UNARY_ILL
     0-0-0/w STRC(288)         1 UNARY_OP                   0-0-0/w STRC(288)         1 UNSTRING_STMT
     0-0-0/d STRC(612)         1 USE                        0-0-0/w STRC(216)         1 USER_CALL
     0-0-0/w STRC(252)         1 USE_SUPP                   0-0-0/w STRC(108)         1 VAL
     0-0-0/w STRC(108)         1 VAL_END                    0-0-0/w STRC(396)         1 VARIABLE
     0-0-0/w STRC(72)          1 WHEN                       0-0-0/w STRC(288)         1 WRITE_STMT


   Procedure Z9EY$BUILD_RUNTIME_DESCRIPTOR requires 547 words for executable code.
   Procedure Z9EY$BUILD_RUNTIME_DESCRIPTOR requires 38 words of local(AUTO) storage.

