PL6.E3A0      #003=Z9EY$CREATE_BASE_POINTERS File=Z9EY.:Z8A6TSI                  SAT 08/09/97 14:01 Page:205
     1199        1        /*T***********************************************************/
     1200        2        /*T*                                                         */
     1201        3        /*T* Copyright (c) Bull HN Information Systems Inc., 1997    */
     1202        4        /*T*                                                         */
     1203        5        /*T***********************************************************/
     1204        6        /*=========================*/
     1205        7          Z9EY$CREATE_BASE_POINTERS: PROC;
     1206        8        /*=========================*/
     1207        9
     1208       10
     1209       11        %EQU PHASE = 1;
     1210       12
     1211       13        %INCLUDE Z8A_DEFC;
     1212       81        %INCLUDE Z8A_SUPP_MAC ;
     1213     2481        %INCLUDE Z8A_COMCOM ;
     1214     3131        %INCLUDE Z8E_STACKS;
     1215     5397        %INCLUDE Z8E_O1COM;
     1216     6158        %INCLUDE Z8A_ERR_NUMS ;
     1217     6922        %INCLUDE Z8A_ST;
     1218    10581        %INCLUDE Z8A_TYPES;
     1219    10755        %INCLUDE Z8A_QLT;
     1220    10861        %INCLUDE Z8A_ETT;
     1221    11162        %INCLUDE Z8A_LTS ;
     1222    13239
     1223    13240    1   DCL LTS$$          PTR;
     1224    13241    1   DCL QLT$$          PTR;
     1225    13242    1   DCL COMCOM_QLT$    PTR;
     1226    13243    1   DCL STACK$         PTR;
     1227    13244    1   DCL LIST$          PTR;
     1228    13245    1   DCL LIST2$         PTR;
     1229    13246    1   DCL LIST2_TAIL$    PTR;
     1230    13247    1   DCL ARG_LIST$      PTR;
     1231    13248    1   DCL SIZE           SBIN WORD;
     1232    13249    1   DCL SEQ#           SBIN WORD;
     1233    13250    1   DCL NEXT$          PTR;
     1234    13251    1   DCL TEMP$          PTR;
     1235    13252    1   DCL I              SBIN WORD;
PL6.E3A0      #003=Z9EY$CREATE_BASE_POINTERS File=Z9EY.:Z8A6TSI                  SAT 08/09/97 14:01 Page:206
     1236    13253
     1237    13254    1   DCL Z8AT$CREATE_TEMPORARY       ENTRY(2);
     1238    13255
     1239    13256
     1240    13257    1      LIST$ = O1COM.BASE_LTS_LIST$;
     1241    13258    1      SIZE = 0;
     1242    13259    1      SEQ# = 0;
     1243    13260    1      ARG_LIST$ = O1COM.CURRENT_PROC$ -> PROC_.PROC_DEF$ -> SYMDEF_.ARGLIST$;
     1244    13261
     1245    13262               /* reverse the sequence of the BASE_LTS list */
     1246    13263
     1247    13264    1      NEXT$ = LIST$ -> BASE_LTS.NEXT;
     1248    13265    1      TEMP$ = ADDR(NIL);
     1249    13266
     1250    13267    2      DO WHILE(NEXT$ ~= ADDR(NIL));
     1251    13268    2        LIST$ -> BASE_LTS.NEXT = TEMP$;
     1252    13269    2        TEMP$ = LIST$;
     1253    13270    2        LIST$ = NEXT$;
     1254    13271    2        NEXT$ = NEXT$ -> BASE_LTS.NEXT;
     1255    13272    2      END;
     1256    13273
     1257    13274    1      LIST$ -> BASE_LTS.NEXT = TEMP$;
     1258    13275
     1259    13276             /* chain all the BASE_LTSs  which are not associated with  */
     1260    13277             /*  redefines subject items                                */
     1261    13278
     1262    13279    1      I = 0;
     1263    13280    1      LIST2$ = ADDR(NIL);
     1264    13281    1      LIST2_TAIL$ = ADDR(NIL);
     1265    13282
     1266    13283    1      IF ARG_LIST$ ~= ADDR(NIL) THEN
     1267    13284    2        DO;
     1268    13285    3          DO I = 0 TO ARG_LIST$ -> ARGLIST.N - 2;
     1269    13286    3            IF ARG_LIST$ -> ARGLIST.ARG$(I) -> SCALAR.B.LINKAGE THEN
     1270    13287    4              DO;
     1271    13288                     %GET_LTS (@ID         = %BASE_LTS,
     1272    13289                               @ST$        = "ARG_LIST$ -> ARGLIST.ARG$(I)",
PL6.E3A0      #003=Z9EY$CREATE_BASE_POINTERS File=Z9EY.:Z8A6TSI                  SAT 08/09/97 14:01 Page:207
     1273    13290                               @RETURN$    = LTS$$);
     1274    13333
     1275    13334    4                IF LTS$$ = ADDR(NIL) THEN
     1276    13335    5                  DO;            /* this is not a level 01 item */
     1277    13336    5                    QLT$$ = ARG_LIST$ -> ARGLIST.ARG$(I) -> SCALAR.QLT$;
     1278    13337                                      /* get the level 01 item */
     1279    13338    6                    DO WHILE (QLT$$ -> QLT.FATHER ~= ADDR(NIL));
     1280    13339    6                      QLT$$ = QLT$$ -> QLT.FATHER;
     1281    13340    6                    END; /* DO WHILE */
     1282    13341
     1283    13342                         %GET_LTS (@ID     = %BASE_LTS,
     1284    13343                                   @ST$    = QLT$$ -> QLT.ST$,
     1285    13344                                   @RETURN$ = LTS$$);
     1286    13387    5                  END;
     1287    13388
     1288    13389                         /* if the argument is a redefines subject,  */
     1289    13390                         /* find the redefines object                */
     1290    13391
     1291    13392    5                DO WHILE (LTS$$ -> BASE_LTS.REDEFINE$ ~= ADDR(NIL));
     1292    13393
     1293    13394                       %GET_LTS (@ID = %BASE_LTS,
     1294    13395                                 @ST$ = LTS$$ -> BASE_LTS.REDEFINE$,
     1295    13396                                 @RETURN$ = LTS$$);
     1296    13439
     1297    13440    5                END;  /* DO WHILE */
     1298    13441
     1299    13442    4                IF LTS$$ -> BASE_LTS.SEQ# ~= 0 THEN
     1300    13443    4                  GOTO NEXT_ARGUMENT;    /* duplicated argument */
     1301    13444
     1302    13445                       /* assign the sequence number and chained to a list */
     1303    13446
     1304    13447    4                LTS$$ -> BASE_LTS.SEQ# = I + 1;
     1305    13448
     1306    13449    4                IF LIST2$ = ADDR(NIL) THEN
     1307    13450    5                  DO;
     1308    13451    5                    LIST2$ = LTS$$;
     1309    13452    5                    LIST2_TAIL$ = LTS$$;
PL6.E3A0      #003=Z9EY$CREATE_BASE_POINTERS File=Z9EY.:Z8A6TSI                  SAT 08/09/97 14:01 Page:208
     1310    13453    5                  END;
     1311    13454    4                ELSE
     1312    13455    5                  DO;
     1313    13456    5                    LIST2_TAIL$ -> BASE_LTS.LINK = LTS$$;
     1314    13457    5                    LIST2_TAIL$ = LTS$$;
     1315    13458    5                  END;
     1316    13459
     1317    13460    4              END;   /* IF ..LINKAGE THEN DO */
     1318    13461
     1319    13462    3            NEXT_ARGUMENT:;
     1320    13463    3          END; /* DO I= .... */
     1321    13464
     1322    13465    2        END;  /* IF ARG_LIST$ ^= ADDR(NIL) THEN DO .. */
     1323    13466
     1324    13467             /* chain those BASE_LTSs that are not associated with arguments */
     1325    13468
     1326    13469    1      NEXT$ = LIST$;
     1327    13470
     1328    13471    2      DO WHILE (NEXT$ ~= ADDR(NIL));
     1329    13472
     1330    13473    2        IF NEXT$ -> BASE_LTS.SEQ# = 0 AND
     1331    13474    2          NEXT$ -> BASE_LTS.REDEFINE$ = ADDR(NIL) THEN
     1332    13475    3          DO;
     1333    13476    3            IF LIST2$ = ADDR(NIL) THEN
     1334    13477    4              DO;
     1335    13478    4                LIST2$ = NEXT$;
     1336    13479    4                LIST2_TAIL$ = NEXT$;
     1337    13480    4              END;
     1338    13481    3            ELSE
     1339    13482    4              DO;
     1340    13483    4                LIST2_TAIL$ -> BASE_LTS.LINK = NEXT$;
     1341    13484    4                LIST2_TAIL$ = NEXT$;
     1342    13485    4              END;
     1343    13486    3          END;
     1344    13487
     1345    13488    2        NEXT$ = NEXT$ -> BASE_LTS.NEXT;
     1346    13489
PL6.E3A0      #003=Z9EY$CREATE_BASE_POINTERS File=Z9EY.:Z8A6TSI                  SAT 08/09/97 14:01 Page:209
     1347    13490    2      END; /* DO WHILE */
     1348    13491
     1349    13492             /* Create a one word pointer item for every based variable.*/
     1350    13493             /* For those redefines subject, copy the pointer from it's */
     1351    13494             /* redefines object. The base pointer is a level 2 item    */
     1352    13495             /* which ise subordinate to the pseudostack.               */
     1353    13496
     1354    13497    1      COMCOM_QLT$ = COMCOM.PREV_QLT$;  /* save away previous QLT$ */
     1355    13498    1      COMCOM.PREV_QLT$ = ADDR(NIL);    /* see Z8AT$CREATE_TEMPORARY    */
     1356    13499    1      STACK$ = O1COM.CURRENT_PROC$ -> PROC_.PSEUDO_STACK$ -> ETT.LOP;
     1357    13500
     1358    13501               /* At first, create a one word dummy for return address */
     1359    13502               /* which is needed in CP-6 environment                  */
     1360    13503
     1361    13504    1      CALL Z8AT$CREATE_TEMPORARY (%SCALAR, TEMP$);
     1362    13505
     1363    13506    1      COMCOM.PREV_QLT$ -> QLT.LEVEL_NO = 2;
     1364    13507    1      COMCOM.PREV_QLT$ -> QLT.FATHER = STACK$ -> SCALAR.QLT$;
     1365    13508    1      STACK$ -> SCALAR.QLT$ -> QLT.SON = COMCOM.PREV_QLT$;
     1366    13509    1      STACK$ -> SCALAR.B.ELEMENTARY = FALSE;
     1367    13510
     1368    13511    1      SIZE = 4;       /* initial pseudo stack size in bytes */
     1369    13512    1      SEQ# = 0;       /* reassign the sequence number start with 0 */
     1370    13513    1      NEXT$ = LIST2$;   /* prime list without redefines  */
     1371    13514
     1372    13515    2      DO WHILE (NEXT$ ~= ADDR(NIL));
     1373    13516
     1374    13517    2        SIZE = SIZE + 4;
     1375    13518    2        SEQ# = SEQ# + 1;
     1376    13519    2        NEXT$ -> BASE_LTS.SEQ# = SEQ#;
     1377    13520
     1378    13521    2        CALL Z8AT$CREATE_TEMPORARY (%SCALAR, NEXT$ -> BASE_LTS.POINTER$);
     1379    13522
     1380    13523    2        NEXT$ -> BASE_LTS.POINTER$ -> ST.TYPE = %TYP;
     1381    13524    2        NEXT$ -> BASE_LTS.POINTER$ -> SCALAR.B.CLASS = %CLASS_UNDEFINED;
     1382    13525    2        NEXT$ -> BASE_LTS.POINTER$ -> SCALAR.SA = SEQ#;
     1383    13526    2        NEXT$ -> BASE_LTS.POINTER$ -> SCALAR.LTS$ = NEXT$;
PL6.E3A0      #003=Z9EY$CREATE_BASE_POINTERS File=Z9EY.:Z8A6TSI                  SAT 08/09/97 14:01 Page:210
     1384    13527    2        COMCOM.PREV_QLT$ -> QLT.LEVEL_NO = 2;
     1385    13528    2        COMCOM.PREV_QLT$ -> QLT.FATHER = STACK$ -> SCALAR.QLT$;
     1386    13529
     1387    13530    2        NEXT$ = NEXT$ -> BASE_LTS.LINK;
     1388    13531
     1389    13532    2      END;  /* DO WHILE  */
     1390    13533
     1391    13534    1      IF STACK$ -> SCALAR.ADSC.N < SIZE THEN
     1392    13535    1        STACK$ -> SCALAR.ADSC.N = SIZE;     /* the original stack size */
     1393    13536                                                 /* is defined in Z8EN      */
     1394    13537
     1395    13538             /* copy the base pointer and sequence number from redefines */
     1396    13539             /* objects to redefines subjects                            */
     1397    13540
     1398    13541    1      NEXT$ = LIST$;   /* original list */
     1399    13542
     1400    13543    2      DO WHILE (NEXT$ ~= ADDR(NIL));
     1401    13544
     1402    13545    2        IF NEXT$ -> BASE_LTS.REDEFINE$ ~= ADDR(NIL) THEN
     1403    13546    3          DO;
     1404    13547                 %GET_LTS (@ID = %BASE_LTS,
     1405    13548                           @ST$ = NEXT$ -> BASE_LTS.REDEFINE$,
     1406    13549                           @RETURN$ = LTS$$);
     1407    13592
     1408    13593    3            NEXT$ -> BASE_LTS.SEQ# = LTS$$ -> BASE_LTS.SEQ#;
     1409    13594    3            NEXT$ -> BASE_LTS.POINTER$ = LTS$$ -> BASE_LTS.POINTER$;
     1410    13595    3          END;
     1411    13596
     1412    13597    2        NEXT$ = NEXT$ -> BASE_LTS.NEXT;
     1413    13598
     1414    13599    2      END; /* DO WHILE */
     1415    13600
     1416    13601    1      COMCOM.PREV_QLT$ = COMCOM_QLT$;  /* restore previous QLT */
     1417    13602
     1418    13603    1    END Z9EY$CREATE_BASE_POINTERS;

PL6.E3A0      #003=Z9EY$CREATE_BASE_POINTERS File=Z9EY.:Z8A6TSI                  SAT 08/09/97 14:01 Page:211
--  Include file information  --

   Z8A_LTS.:Z8A6TOU  cannot be made into a system file and is referenced.
   Z8A_ETT.:Z8A6TOU  cannot be made into a system file and is referenced.
   Z8A_QLT.:Z8A6TOU  cannot be made into a system file and is referenced.
   Z8A_TYPES.:Z8A6TOU  is referenced.
   Z8A_ST.:Z8A6TOU  cannot be made into a system file and is referenced.
   Z8A_ERR_NUMS.:Z8A6TOU  is referenced.
   Z8E_O1COM.:Z8A6TOU  cannot be made into a system file and is referenced.
   Z8A_LEX_SYMB.:Z8A6TOU  cannot be made into a system file and is referenced.
   Z8E_STACKS.:Z8A6TOU  cannot be made into a system file and is referenced.
   Z8A_COMCOM.:Z8A6TOU  cannot be made into a system file and is referenced.
   X8A_COM_MACS.:X8A6TOU  is referenced.
   Z8A_NAMES.:Z8A6TOU  is referenced.
   Z8A_SUPP_MAC.:Z8A6TOU  is referenced.
   Z8A_DEFC.:Z8A6TOU  cannot be made into a system file and is referenced.
      No diagnostics issued in procedure Z9EY$CREATE_BASE_POINTERS.

   Procedure Z9EY$CREATE_BASE_POINTERS requires 293 words for executable code.
   Procedure Z9EY$CREATE_BASE_POINTERS requires 18 words of local(AUTO) storage.

    No errors detected in file Z9EY.:Z8A6TSI    .

PL6.E3A0      #003=Z9EY$CREATE_BASE_POINTERS File=Z9EY.:Z8A6TSI                  SAT 08/09/97 14:01 Page:212

 Object Unit name= Z9EY$CREATE_BASE_POINTERS                  File name= Z9EY.:Z8A6TOU
 UTS= AUG 09 '97 14:01:32.28 SAT                              Compiler= PL-6/E31         Sev=      00
 SharedLib= :SHARED_SYSTEM                                    Alt SharedLib=


    ****  Control sections  ****

 Sect   Type Bound  Init  Size OctSiz  Section name(segment info)
    0  LblCom even  none     1      1  ITERATION
    1  LblCom even  none    90    132  LEX_SYMBOL
    2  LblCom even  none     1      1  CURRENT_LEX_SYMBOL$
    3  LblCom even  none    90    132  TEMP_LEX_SYMBOL
    4  LblCom even  none    90    132  TEMP_LEX_SYMBOL2
    5  LblCom even  none     1      1  ST$
    6  LblCom even  none     5      5  ST_
    7  LblCom even  none     1      1  QLT$
    8  LblCom even  none     1      1  PREV_01_QLT$
    9  LblCom even  none     5      5  QLT_
   10  LblCom even  none     1      1  ETT$
   11  LblCom even  none     1      1  HEAD_ETT$
   12  LblCom even  none   512   1000  ETT_BUCKETS
   13  LblCom even  none     5      5  ETT_
   14  LblCom even  none     1      1  LTS$
   15  LblCom even  none     5      5  LTS_
   16   Proc  even  none   293    445  Z9EY$CREATE_BASE_POINTERS
   17  RoData even  none     6      6  Z9EY$CREATE_BASE_POINTERS

    ****  Entry defs  ****

                              Check   Calling
                             calling  sequence
  Sect OctLoc Primary Altret sequence   type   Parms  Name
    16      0   yes            yes      Std        0  Z9EY$CREATE_BASE_POINTERS
PL6.E3A0      #003=Z9EY$CREATE_BASE_POINTERS File=Z9EY.:Z8A6TSI                  SAT 08/09/97 14:01 Page:213

  ****  Entry refs  ****

         Check        Calling
        calling       sequence
Altret sequence SRef   type   Args  Name
         yes           Std       2 Z8AT$CREATE_TEMPORARY
                       nStd      0 X66_AUTO_0
                       nStd      0 X66_ARET

  ****  Data refs  ****

  Flags:  r = read only, s = secondary
Flgs Name                             Flgs Name                             Flgs Name
     COMCOM                                O1COM                                 HIER_STK_PTR
     HIER_STK                              PAGE_FORMAT                           REP_STK_PTR
     REP_STK                          r    LTS_STEP

  ****  Segment refs  ****

  Flags:  r = read only, s = secondary
Flgs Name                             Flgs Name                             Flgs Name
     ISSID                                 NULLSID
PL6.E3A0      #003=Z9EY$CREATE_BASE_POINTERS File=Z9EY.:Z8A6TSI                  SAT 08/09/97 14:01 Page:214


     1199        1        /*T***********************************************************/
     1200        2        /*T*                                                         */
     1201        3        /*T* Copyright (c) Bull HN Information Systems Inc., 1997    */
     1202        4        /*T*                                                         */
     1203        5        /*T***********************************************************/
     1204        6        /*=========================*/
     1205        7          Z9EY$CREATE_BASE_POINTERS: PROC;

      7 16 000000   000000 700200 xent  Z9EY$CREATE* TSX0  ! X66_AUTO_0
        16 000001   000022 000000                    ZERO    18,0

     1206        8        /*=========================*/
     1207        9
     1208       10
     1209       11        %EQU PHASE = 1;
     1210       12
     1211       13        %INCLUDE Z8A_DEFC;
     1212       81        %INCLUDE Z8A_SUPP_MAC ;
     1213     2481        %INCLUDE Z8A_COMCOM ;
     1214     3131        %INCLUDE Z8E_STACKS;
     1215     5397        %INCLUDE Z8E_O1COM;
     1216     6158        %INCLUDE Z8A_ERR_NUMS ;
     1217     6922        %INCLUDE Z8A_ST;
     1218    10581        %INCLUDE Z8A_TYPES;
     1219    10755        %INCLUDE Z8A_QLT;
     1220    10861        %INCLUDE Z8A_ETT;
     1221    11162        %INCLUDE Z8A_LTS ;
     1222    13239
     1223    13240    1   DCL LTS$$          PTR;
     1224    13241    1   DCL QLT$$          PTR;
     1225    13242    1   DCL COMCOM_QLT$    PTR;
     1226    13243    1   DCL STACK$         PTR;
     1227    13244    1   DCL LIST$          PTR;
     1228    13245    1   DCL LIST2$         PTR;
     1229    13246    1   DCL LIST2_TAIL$    PTR;
     1230    13247    1   DCL ARG_LIST$      PTR;
PL6.E3A0      #003=Z9EY$CREATE_BASE_POINTERS File=Z9EY.:Z8A6TSI                  SAT 08/09/97 14:01 Page:215
     1231    13248    1   DCL SIZE           SBIN WORD;
     1232    13249    1   DCL SEQ#           SBIN WORD;
     1233    13250    1   DCL NEXT$          PTR;
     1234    13251    1   DCL TEMP$          PTR;
     1235    13252    1   DCL I              SBIN WORD;
     1236    13253
     1237    13254    1   DCL Z8AT$CREATE_TEMPORARY       ENTRY(2);
     1238    13255
     1239    13256
     1240    13257    1      LIST$ = O1COM.BASE_LTS_LIST$;

  13257 16 000002   000112 236000 xsym               LDQ     O1COM+74
        16 000003   200007 756100                    STQ     LIST$,,AUTO

     1241    13258    1      SIZE = 0;

  13258 16 000004   200013 450100                    STZ     SIZE,,AUTO

     1242    13259    1      SEQ# = 0;

  13259 16 000005   200014 450100                    STZ     SEQ#,,AUTO

     1243    13260    1      ARG_LIST$ = O1COM.CURRENT_PROC$ -> PROC_.PROC_DEF$ -> SYMDEF_.ARGLIST$;

  13260 16 000006   000057 470400 xsym               LDP0    O1COM+47
        16 000007   000006 471500                    LDP1    6,,PR0
        16 000010   100005 236100                    LDQ     5,,PR1
        16 000011   200012 756100                    STQ     ARG_LIST$,,AUTO

     1244    13261
     1245    13262               /* reverse the sequence of the BASE_LTS list */
     1246    13263
     1247    13264    1      NEXT$ = LIST$ -> BASE_LTS.NEXT;

  13264 16 000012   200007 473500                    LDP3    LIST$,,AUTO
        16 000013   300005 236100                    LDQ     5,,PR3
        16 000014   200015 756100                    STQ     NEXT$,,AUTO
PL6.E3A0      #003=Z9EY$CREATE_BASE_POINTERS File=Z9EY.:Z8A6TSI                  SAT 08/09/97 14:01 Page:216

     1248    13265    1      TEMP$ = ADDR(NIL);

  13265 16 000015   000000 236000 17                 LDQ     0
        16 000016   200016 756100                    STQ     TEMP$,,AUTO

     1249    13266
     1250    13267    2      DO WHILE(NEXT$ ~= ADDR(NIL));

  13267 16 000017   000032 710000 16                 TRA     s:13272

     1251    13268    2        LIST$ -> BASE_LTS.NEXT = TEMP$;

  13268 16 000020   200016 236100                    LDQ     TEMP$,,AUTO
        16 000021   200007 470500                    LDP0    LIST$,,AUTO
        16 000022   000005 756100                    STQ     5,,PR0

     1252    13269    2        TEMP$ = LIST$;

  13269 16 000023   200007 236100                    LDQ     LIST$,,AUTO
        16 000024   200016 756100                    STQ     TEMP$,,AUTO

     1253    13270    2        LIST$ = NEXT$;

  13270 16 000025   200015 236100                    LDQ     NEXT$,,AUTO
        16 000026   200007 756100                    STQ     LIST$,,AUTO

     1254    13271    2        NEXT$ = NEXT$ -> BASE_LTS.NEXT;

  13271 16 000027   200015 470500                    LDP0    NEXT$,,AUTO
        16 000030   000005 236100                    LDQ     5,,PR0
        16 000031   200015 756100                    STQ     NEXT$,,AUTO

     1255    13272    2      END;

  13272 16 000032   200015 236100                    LDQ     NEXT$,,AUTO
        16 000033   000000 116000 17                 CMPQ    0
PL6.E3A0      #003=Z9EY$CREATE_BASE_POINTERS File=Z9EY.:Z8A6TSI                  SAT 08/09/97 14:01 Page:217
        16 000034   000020 601000 16                 TNZ     s:13268

     1256    13273
     1257    13274    1      LIST$ -> BASE_LTS.NEXT = TEMP$;

  13274 16 000035   200016 236100                    LDQ     TEMP$,,AUTO
        16 000036   200007 470500                    LDP0    LIST$,,AUTO
        16 000037   000005 756100                    STQ     5,,PR0

     1258    13275
     1259    13276             /* chain all the BASE_LTSs  which are not associated with  */
     1260    13277             /*  redefines subject items                                */
     1261    13278
     1262    13279    1      I = 0;

  13279 16 000040   200017 450100                    STZ     I,,AUTO

     1263    13280    1      LIST2$ = ADDR(NIL);

  13280 16 000041   000000 236000 17                 LDQ     0
        16 000042   200010 756100                    STQ     LIST2$,,AUTO

     1264    13281    1      LIST2_TAIL$ = ADDR(NIL);

  13281 16 000043   200011 756100                    STQ     LIST2_TAIL$,,AUTO

     1265    13282
     1266    13283    1      IF ARG_LIST$ ~= ADDR(NIL) THEN

  13283 16 000044   200012 236100                    LDQ     ARG_LIST$,,AUTO
        16 000045   000000 116000 17                 CMPQ    0
        16 000046   000226 600000 16                 TZE     s:13469

     1267    13284    2        DO;

     1268    13285    3          DO I = 0 TO ARG_LIST$ -> ARGLIST.N - 2;

PL6.E3A0      #003=Z9EY$CREATE_BASE_POINTERS File=Z9EY.:Z8A6TSI                  SAT 08/09/97 14:01 Page:218
  13285 16 000047   200017 450100                    STZ     I,,AUTO
        16 000050   000220 710000 16                 TRA     NEXT_ARGUMENT+1

     1269    13286    3            IF ARG_LIST$ -> ARGLIST.ARG$(I) -> SCALAR.B.LINKAGE THEN

  13286 16 000051   200012 470500                    LDP0    ARG_LIST$,,AUTO
        16 000052   200017 720100                    LXL0    I,,AUTO
        16 000053   000001 471510                    LDP1    1,X0,PR0
        16 000054   100003 236100                    LDQ     3,,PR1
        16 000055   000002 316003                    CANQ    2,DU
        16 000056   000217 600000 16                 TZE     NEXT_ARGUMENT

     1270    13287    4              DO;

     1271    13288                     %GET_LTS (@ID         = %BASE_LTS,
     1272    13289                               @ST$        = "ARG_LIST$ -> ARGLIST.ARG$(I)",
     1273    13290                               @RETURN$    = LTS$$);

  13292 16 000057   100005 236100                    LDQ     5,,PR1
        16 000060   000000 116000 17                 CMPQ    0
        16 000061   000071 600000 16                 TZE     s:13326
        16 000062   100005 473500                    LDP3    5,,PR1
        16 000063   300000 221100                    LDX1    0,,PR3
        16 000064   001105 101003                    CMPX1   581,DU
        16 000065   000071 601000 16                 TNZ     s:13326

  13320 16 000066   300010 236100                    LDQ     8,,PR3
        16 000067   200003 756100                    STQ     LTS$$,,AUTO

  13324 16 000070   000103 710000 16                 TRA     s:13334

  13326 16 000071   000000 116000 17                 CMPQ    0
        16 000072   000101 600000 16                 TZE     s:13330
        16 000073   100005 473500                    LDP3    5,,PR1
        16 000074   300000 221100                    LDX1    0,,PR3
        16 000075   001066 101003                    CMPX1   566,DU
        16 000076   000101 601000 16                 TNZ     s:13330
PL6.E3A0      #003=Z9EY$CREATE_BASE_POINTERS File=Z9EY.:Z8A6TSI                  SAT 08/09/97 14:01 Page:219

  13328 16 000077   200003 756100                    STQ     LTS$$,,AUTO
        16 000100   000103 710000 16                 TRA     s:13334

  13330 16 000101   000000 236000 17                 LDQ     0
        16 000102   200003 756100                    STQ     LTS$$,,AUTO

     1274    13333
     1275    13334    4                IF LTS$$ = ADDR(NIL) THEN

  13334 16 000103   000000 116000 17                 CMPQ    0
        16 000104   000144 601000 16                 TNZ     s:13392

     1276    13335    5                  DO;            /* this is not a level 01 item */

     1277    13336    5                    QLT$$ = ARG_LIST$ -> ARGLIST.ARG$(I) -> SCALAR.QLT$;

  13336 16 000105   100007 236100                    LDQ     7,,PR1
        16 000106   200004 756100                    STQ     QLT$$,,AUTO

     1278    13337                                      /* get the level 01 item */
     1279    13338    6                    DO WHILE (QLT$$ -> QLT.FATHER ~= ADDR(NIL));

  13338 16 000107   000113 710000 16                 TRA     s:13340

     1280    13339    6                      QLT$$ = QLT$$ -> QLT.FATHER;

  13339 16 000110   200004 470500                    LDP0    QLT$$,,AUTO
        16 000111   000001 236100                    LDQ     1,,PR0
        16 000112   200004 756100                    STQ     QLT$$,,AUTO

     1281    13340    6                    END; /* DO WHILE */

  13340 16 000113   200004 470500                    LDP0    QLT$$,,AUTO
        16 000114   000001 236100                    LDQ     1,,PR0
        16 000115   000000 116000 17                 CMPQ    0
        16 000116   000110 601000 16                 TNZ     s:13339
PL6.E3A0      #003=Z9EY$CREATE_BASE_POINTERS File=Z9EY.:Z8A6TSI                  SAT 08/09/97 14:01 Page:220

     1282    13341
     1283    13342                         %GET_LTS (@ID     = %BASE_LTS,
     1284    13343                                   @ST$    = QLT$$ -> QLT.ST$,
     1285    13344                                   @RETURN$ = LTS$$);

  13346 16 000117   000004 471500                    LDP1    4,,PR0
        16 000120   100005 236100                    LDQ     5,,PR1
        16 000121   000000 116000 17                 CMPQ    0
        16 000122   000132 600000 16                 TZE     s:13380
        16 000123   100005 473500                    LDP3    5,,PR1
        16 000124   300000 220100                    LDX0    0,,PR3
        16 000125   001105 100003                    CMPX0   581,DU
        16 000126   000132 601000 16                 TNZ     s:13380

  13374 16 000127   300010 236100                    LDQ     8,,PR3
        16 000130   200003 756100                    STQ     LTS$$,,AUTO

  13378 16 000131   000144 710000 16                 TRA     s:13392

  13380 16 000132   000000 116000 17                 CMPQ    0
        16 000133   000142 600000 16                 TZE     s:13384
        16 000134   100005 473500                    LDP3    5,,PR1
        16 000135   300000 220100                    LDX0    0,,PR3
        16 000136   001066 100003                    CMPX0   566,DU
        16 000137   000142 601000 16                 TNZ     s:13384

  13382 16 000140   200003 756100                    STQ     LTS$$,,AUTO
        16 000141   000144 710000 16                 TRA     s:13392

  13384 16 000142   000000 236000 17                 LDQ     0
        16 000143   200003 756100                    STQ     LTS$$,,AUTO

     1286    13387    5                  END;

     1287    13388
     1288    13389                         /* if the argument is a redefines subject,  */
PL6.E3A0      #003=Z9EY$CREATE_BASE_POINTERS File=Z9EY.:Z8A6TSI                  SAT 08/09/97 14:01 Page:221
     1289    13390                         /* find the redefines object                */
     1290    13391
     1291    13392    5                DO WHILE (LTS$$ -> BASE_LTS.REDEFINE$ ~= ADDR(NIL));

  13392 16 000144   000173 710000 16                 TRA     s:13440

     1292    13393
     1293    13394                       %GET_LTS (@ID = %BASE_LTS,
     1294    13395                                 @ST$ = LTS$$ -> BASE_LTS.REDEFINE$,
     1295    13396                                 @RETURN$ = LTS$$);

  13398 16 000145   200003 470500                    LDP0    LTS$$,,AUTO
        16 000146   000004 471500                    LDP1    4,,PR0
        16 000147   100005 236100                    LDQ     5,,PR1
        16 000150   000000 116000 17                 CMPQ    0
        16 000151   000161 600000 16                 TZE     s:13432
        16 000152   100005 473500                    LDP3    5,,PR1
        16 000153   300000 220100                    LDX0    0,,PR3
        16 000154   001105 100003                    CMPX0   581,DU
        16 000155   000161 601000 16                 TNZ     s:13432

  13426 16 000156   300010 236100                    LDQ     8,,PR3
        16 000157   200003 756100                    STQ     LTS$$,,AUTO

  13430 16 000160   000173 710000 16                 TRA     s:13440

  13432 16 000161   000000 116000 17                 CMPQ    0
        16 000162   000171 600000 16                 TZE     s:13436
        16 000163   100005 473500                    LDP3    5,,PR1
        16 000164   300000 220100                    LDX0    0,,PR3
        16 000165   001066 100003                    CMPX0   566,DU
        16 000166   000171 601000 16                 TNZ     s:13436

  13434 16 000167   200003 756100                    STQ     LTS$$,,AUTO
        16 000170   000173 710000 16                 TRA     s:13440

  13436 16 000171   000000 236000 17                 LDQ     0
PL6.E3A0      #003=Z9EY$CREATE_BASE_POINTERS File=Z9EY.:Z8A6TSI                  SAT 08/09/97 14:01 Page:222
        16 000172   200003 756100                    STQ     LTS$$,,AUTO

     1296    13439
     1297    13440    5                END;  /* DO WHILE */

  13440 16 000173   200003 470500                    LDP0    LTS$$,,AUTO
        16 000174   000004 236100                    LDQ     4,,PR0
        16 000175   000000 116000 17                 CMPQ    0
        16 000176   000145 601000 16                 TNZ     s:13398

     1298    13441
     1299    13442    4                IF LTS$$ -> BASE_LTS.SEQ# ~= 0 THEN

  13442 16 000177   000003 235100                    LDA     3,,PR0
        16 000200   000217 601000 16                 TNZ     NEXT_ARGUMENT

     1300    13443    4                  GOTO NEXT_ARGUMENT;    /* duplicated argument */
     1301    13444
     1302    13445                       /* assign the sequence number and chained to a list */
     1303    13446
     1304    13447    4                LTS$$ -> BASE_LTS.SEQ# = I + 1;

  13447 16 000201   200017 235100                    LDA     I,,AUTO
        16 000202   000001 035007                    ADLA    1,DL
        16 000203   000003 755100                    STA     3,,PR0

     1305    13448
     1306    13449    4                IF LIST2$ = ADDR(NIL) THEN

  13449 16 000204   200010 236100                    LDQ     LIST2$,,AUTO
        16 000205   000000 116000 17                 CMPQ    0
        16 000206   000213 601000 16                 TNZ     s:13456

     1307    13450    5                  DO;

     1308    13451    5                    LIST2$ = LTS$$;

PL6.E3A0      #003=Z9EY$CREATE_BASE_POINTERS File=Z9EY.:Z8A6TSI                  SAT 08/09/97 14:01 Page:223
  13451 16 000207   200003 236100                    LDQ     LTS$$,,AUTO
        16 000210   200010 756100                    STQ     LIST2$,,AUTO

     1309    13452    5                    LIST2_TAIL$ = LTS$$;

  13452 16 000211   200011 756100                    STQ     LIST2_TAIL$,,AUTO

     1310    13453    5                  END;

  13453 16 000212   000217 710000 16                 TRA     NEXT_ARGUMENT

     1311    13454    4                ELSE
     1312    13455    5                  DO;

     1313    13456    5                    LIST2_TAIL$ -> BASE_LTS.LINK = LTS$$;

  13456 16 000213   200003 236100                    LDQ     LTS$$,,AUTO
        16 000214   200011 471500                    LDP1    LIST2_TAIL$,,AUTO
        16 000215   100006 756100                    STQ     6,,PR1

     1314    13457    5                    LIST2_TAIL$ = LTS$$;

  13457 16 000216   200011 756100                    STQ     LIST2_TAIL$,,AUTO

     1315    13458    5                  END;

     1316    13459
     1317    13460    4              END;   /* IF ..LINKAGE THEN DO */

  13454 16 000217                       NEXT_ARGUME* null
     1318    13461
     1319    13462    3            NEXT_ARGUMENT:;
     1320    13463    3          END; /* DO I= .... */

  13463 16 000217   200017 054100                    AOS     I,,AUTO
        16 000220   200012 470500                    LDP0    ARG_LIST$,,AUTO
        16 000221   000000 236100                    LDQ     0,,PR0
PL6.E3A0      #003=Z9EY$CREATE_BASE_POINTERS File=Z9EY.:Z8A6TSI                  SAT 08/09/97 14:01 Page:224
        16 000222   777777 376007                    ANQ     -1,DL
        16 000223   000002 136007                    SBLQ    2,DL
        16 000224   200017 116100                    CMPQ    I,,AUTO
        16 000225   000051 605000 16                 TPL     s:13286

     1321    13464
     1322    13465    2        END;  /* IF ARG_LIST$ ^= ADDR(NIL) THEN DO .. */

     1323    13466
     1324    13467             /* chain those BASE_LTSs that are not associated with arguments */
     1325    13468
     1326    13469    1      NEXT$ = LIST$;

  13469 16 000226   200007 236100                    LDQ     LIST$,,AUTO
        16 000227   200015 756100                    STQ     NEXT$,,AUTO

     1327    13470
     1328    13471    2      DO WHILE (NEXT$ ~= ADDR(NIL));

  13471 16 000230   000254 710000 16                 TRA     s:13490

     1329    13472
     1330    13473    2        IF NEXT$ -> BASE_LTS.SEQ# = 0 AND

  13473 16 000231   200015 470500                    LDP0    NEXT$,,AUTO
        16 000232   000003 235100                    LDA     3,,PR0
        16 000233   000252 601000 16                 TNZ     s:13488
        16 000234   000004 236100                    LDQ     4,,PR0
        16 000235   000000 116000 17                 CMPQ    0
        16 000236   000252 601000 16                 TNZ     s:13488

     1331    13474    2          NEXT$ -> BASE_LTS.REDEFINE$ = ADDR(NIL) THEN
     1332    13475    3          DO;

     1333    13476    3            IF LIST2$ = ADDR(NIL) THEN

  13476 16 000237   200010 236100                    LDQ     LIST2$,,AUTO
PL6.E3A0      #003=Z9EY$CREATE_BASE_POINTERS File=Z9EY.:Z8A6TSI                  SAT 08/09/97 14:01 Page:225
        16 000240   000000 116000 17                 CMPQ    0
        16 000241   000246 601000 16                 TNZ     s:13483

     1334    13477    4              DO;

     1335    13478    4                LIST2$ = NEXT$;

  13478 16 000242   200015 236100                    LDQ     NEXT$,,AUTO
        16 000243   200010 756100                    STQ     LIST2$,,AUTO

     1336    13479    4                LIST2_TAIL$ = NEXT$;

  13479 16 000244   200011 756100                    STQ     LIST2_TAIL$,,AUTO

     1337    13480    4              END;

  13480 16 000245   000252 710000 16                 TRA     s:13488

     1338    13481    3            ELSE
     1339    13482    4              DO;

     1340    13483    4                LIST2_TAIL$ -> BASE_LTS.LINK = NEXT$;

  13483 16 000246   200015 236100                    LDQ     NEXT$,,AUTO
        16 000247   200011 471500                    LDP1    LIST2_TAIL$,,AUTO
        16 000250   100006 756100                    STQ     6,,PR1

     1341    13484    4                LIST2_TAIL$ = NEXT$;

  13484 16 000251   200011 756100                    STQ     LIST2_TAIL$,,AUTO

     1342    13485    4              END;

     1343    13486    3          END;

     1344    13487
     1345    13488    2        NEXT$ = NEXT$ -> BASE_LTS.NEXT;
PL6.E3A0      #003=Z9EY$CREATE_BASE_POINTERS File=Z9EY.:Z8A6TSI                  SAT 08/09/97 14:01 Page:226

  13488 16 000252   000005 236100                    LDQ     5,,PR0
        16 000253   200015 756100                    STQ     NEXT$,,AUTO

     1346    13489
     1347    13490    2      END; /* DO WHILE */

  13490 16 000254   000000 116000 17                 CMPQ    0
        16 000255   000231 601000 16                 TNZ     s:13473

     1348    13491
     1349    13492             /* Create a one word pointer item for every based variable.*/
     1350    13493             /* For those redefines subject, copy the pointer from it's */
     1351    13494             /* redefines object. The base pointer is a level 2 item    */
     1352    13495             /* which ise subordinate to the pseudostack.               */
     1353    13496
     1354    13497    1      COMCOM_QLT$ = COMCOM.PREV_QLT$;  /* save away previous QLT$ */

  13497 16 000256   000424 236000 xsym               LDQ     COMCOM+276
        16 000257   200005 756100                    STQ     COMCOM_QLT$,,AUTO

     1355    13498    1      COMCOM.PREV_QLT$ = ADDR(NIL);    /* see Z8AT$CREATE_TEMPORARY    */

  13498 16 000260   000000 236000 17                 LDQ     0
        16 000261   000424 756000 xsym               STQ     COMCOM+276

     1356    13499    1      STACK$ = O1COM.CURRENT_PROC$ -> PROC_.PSEUDO_STACK$ -> ETT.LOP;

  13499 16 000262   000057 470400 xsym               LDP0    O1COM+47
        16 000263   000004 471500                    LDP1    4,,PR0
        16 000264   100001 236100                    LDQ     1,,PR1
        16 000265   200006 756100                    STQ     STACK$,,AUTO

     1357    13500
     1358    13501               /* At first, create a one word dummy for return address */
     1359    13502               /* which is needed in CP-6 environment                  */
     1360    13503
PL6.E3A0      #003=Z9EY$CREATE_BASE_POINTERS File=Z9EY.:Z8A6TSI                  SAT 08/09/97 14:01 Page:227
     1361    13504    1      CALL Z8AT$CREATE_TEMPORARY (%SCALAR, TEMP$);

  13504 16 000266   200016 633500                    EPPR3   TEMP$,,AUTO
        16 000267   200021 453500                    STP3    I+2,,AUTO
        16 000270   000003 236000 17                 LDQ     3
        16 000271   200020 756100                    STQ     I+1,,AUTO
        16 000272   200020 630500                    EPPR0   I+1,,AUTO
        16 000273   000001 631400 17                 EPPR1   1
        16 000274   000000 701000 xent               TSX1    Z8AT$CREATE_TEMPORARY
        16 000275   000000 011000                    NOP     0

     1362    13505
     1363    13506    1      COMCOM.PREV_QLT$ -> QLT.LEVEL_NO = 2;

  13506 16 000276   000424 470400 xsym               LDP0    COMCOM+276
        16 000277   000002 236007                    LDQ     2,DL
        16 000300   000000 552104                    STBQ    0,'04'O,PR0

     1364    13507    1      COMCOM.PREV_QLT$ -> QLT.FATHER = STACK$ -> SCALAR.QLT$;

  13507 16 000301   200006 470500                    LDP0    STACK$,,AUTO
        16 000302   000007 236100                    LDQ     7,,PR0
        16 000303   000424 471400 xsym               LDP1    COMCOM+276
        16 000304   100001 756100                    STQ     1,,PR1

     1365    13508    1      STACK$ -> SCALAR.QLT$ -> QLT.SON = COMCOM.PREV_QLT$;

  13508 16 000305   000007 471500                    LDP1    7,,PR0
        16 000306   000424 236000 xsym               LDQ     COMCOM+276
        16 000307   100003 756100                    STQ     3,,PR1

     1366    13509    1      STACK$ -> SCALAR.B.ELEMENTARY = FALSE;

  13509 16 000310   000004 236000 17                 LDQ     4
        16 000311   000003 356100                    ANSQ    3,,PR0

     1367    13510
PL6.E3A0      #003=Z9EY$CREATE_BASE_POINTERS File=Z9EY.:Z8A6TSI                  SAT 08/09/97 14:01 Page:228
     1368    13511    1      SIZE = 4;       /* initial pseudo stack size in bytes */

  13511 16 000312   000004 235007                    LDA     4,DL
        16 000313   200013 755100                    STA     SIZE,,AUTO

     1369    13512    1      SEQ# = 0;       /* reassign the sequence number start with 0 */

  13512 16 000314   200014 450100                    STZ     SEQ#,,AUTO

     1370    13513    1      NEXT$ = LIST2$;   /* prime list without redefines  */

  13513 16 000315   200010 236100                    LDQ     LIST2$,,AUTO
        16 000316   200015 756100                    STQ     NEXT$,,AUTO

     1371    13514
     1372    13515    2      DO WHILE (NEXT$ ~= ADDR(NIL));

  13515 16 000317   000364 710000 16                 TRA     s:13532

     1373    13516
     1374    13517    2        SIZE = SIZE + 4;

  13517 16 000320   000004 236007                    LDQ     4,DL
        16 000321   200013 056100                    ASQ     SIZE,,AUTO

     1375    13518    2        SEQ# = SEQ# + 1;

  13518 16 000322   200014 054100                    AOS     SEQ#,,AUTO

     1376    13519    2        NEXT$ -> BASE_LTS.SEQ# = SEQ#;

  13519 16 000323   200015 470500                    LDP0    NEXT$,,AUTO
        16 000324   200014 235100                    LDA     SEQ#,,AUTO
        16 000325   000003 755100                    STA     3,,PR0

     1377    13520
     1378    13521    2        CALL Z8AT$CREATE_TEMPORARY (%SCALAR, NEXT$ -> BASE_LTS.POINTER$);
PL6.E3A0      #003=Z9EY$CREATE_BASE_POINTERS File=Z9EY.:Z8A6TSI                  SAT 08/09/97 14:01 Page:229

  13521 16 000326   200015 236100                    LDQ     NEXT$,,AUTO
        16 000327   000002 036003                    ADLQ    2,DU
        16 000330   000003 235000 17                 LDA     3
        16 000331   200020 757100                    STAQ    I+1,,AUTO
        16 000332   200020 630500                    EPPR0   I+1,,AUTO
        16 000333   000001 631400 17                 EPPR1   1
        16 000334   000000 701000 xent               TSX1    Z8AT$CREATE_TEMPORARY
        16 000335   000000 011000                    NOP     0

     1379    13522
     1380    13523    2        NEXT$ -> BASE_LTS.POINTER$ -> ST.TYPE = %TYP;

  13523 16 000336   200015 470500                    LDP0    NEXT$,,AUTO
        16 000337   000002 471500                    LDP1    2,,PR0
        16 000340   000022 220003                    LDX0    18,DU
        16 000341   100002 740100                    STX0    2,,PR1

     1381    13524    2        NEXT$ -> BASE_LTS.POINTER$ -> SCALAR.B.CLASS = %CLASS_UNDEFINED;

  13524 16 000342   000002 471500                    LDP1    2,,PR0
        16 000343   000005 236000 17                 LDQ     5
        16 000344   100003 356100                    ANSQ    3,,PR1

     1382    13525    2        NEXT$ -> BASE_LTS.POINTER$ -> SCALAR.SA = SEQ#;

  13525 16 000345   000002 471500                    LDP1    2,,PR0
        16 000346   200014 721100                    LXL1    SEQ#,,AUTO
        16 000347   100001 741100                    STX1    1,,PR1

     1383    13526    2        NEXT$ -> BASE_LTS.POINTER$ -> SCALAR.LTS$ = NEXT$;

  13526 16 000350   000002 471500                    LDP1    2,,PR0
        16 000351   200015 236100                    LDQ     NEXT$,,AUTO
        16 000352   100005 756100                    STQ     5,,PR1

     1384    13527    2        COMCOM.PREV_QLT$ -> QLT.LEVEL_NO = 2;
PL6.E3A0      #003=Z9EY$CREATE_BASE_POINTERS File=Z9EY.:Z8A6TSI                  SAT 08/09/97 14:01 Page:230

  13527 16 000353   000424 471400 xsym               LDP1    COMCOM+276
        16 000354   000002 236007                    LDQ     2,DL
        16 000355   100000 552104                    STBQ    0,'04'O,PR1

     1385    13528    2        COMCOM.PREV_QLT$ -> QLT.FATHER = STACK$ -> SCALAR.QLT$;

  13528 16 000356   200006 471500                    LDP1    STACK$,,AUTO
        16 000357   100007 236100                    LDQ     7,,PR1
        16 000360   000424 473400 xsym               LDP3    COMCOM+276
        16 000361   300001 756100                    STQ     1,,PR3

     1386    13529
     1387    13530    2        NEXT$ = NEXT$ -> BASE_LTS.LINK;

  13530 16 000362   000006 236100                    LDQ     6,,PR0
        16 000363   200015 756100                    STQ     NEXT$,,AUTO

     1388    13531
     1389    13532    2      END;  /* DO WHILE  */

  13532 16 000364   000000 116000 17                 CMPQ    0
        16 000365   000320 601000 16                 TNZ     s:13517

     1390    13533
     1391    13534    1      IF STACK$ -> SCALAR.ADSC.N < SIZE THEN

  13534 16 000366   200006 470500                    LDP0    STACK$,,AUTO
        16 000367   000001 236100                    LDQ     1,,PR0
        16 000370   007777 376007                    ANQ     4095,DL
        16 000371   200013 116100                    CMPQ    SIZE,,AUTO
        16 000372   000375 605000 16                 TPL     s:13541

     1392    13535    1        STACK$ -> SCALAR.ADSC.N = SIZE;     /* the original stack size */

  13535 16 000373   200013 236100                    LDQ     SIZE,,AUTO
        16 000374   000001 752103                    STCQ    1,'03'O,PR0
PL6.E3A0      #003=Z9EY$CREATE_BASE_POINTERS File=Z9EY.:Z8A6TSI                  SAT 08/09/97 14:01 Page:231

     1393    13536                                                 /* is defined in Z8EN      */
     1394    13537
     1395    13538             /* copy the base pointer and sequence number from redefines */
     1396    13539             /* objects to redefines subjects                            */
     1397    13540
     1398    13541    1      NEXT$ = LIST$;   /* original list */

  13541 16 000375   200007 236100                    LDQ     LIST$,,AUTO
        16 000376   200015 756100                    STQ     NEXT$,,AUTO

     1399    13542
     1400    13543    2      DO WHILE (NEXT$ ~= ADDR(NIL));

  13543 16 000377   000440 710000 16                 TRA     s:13599

     1401    13544
     1402    13545    2        IF NEXT$ -> BASE_LTS.REDEFINE$ ~= ADDR(NIL) THEN

  13545 16 000400   200015 470500                    LDP0    NEXT$,,AUTO
        16 000401   000004 236100                    LDQ     4,,PR0
        16 000402   000000 116000 17                 CMPQ    0
        16 000403   000436 600000 16                 TZE     s:13597

     1403    13546    3          DO;

     1404    13547                 %GET_LTS (@ID = %BASE_LTS,
     1405    13548                           @ST$ = NEXT$ -> BASE_LTS.REDEFINE$,
     1406    13549                           @RETURN$ = LTS$$);

  13551 16 000404   000004 471500                    LDP1    4,,PR0
        16 000405   100005 236100                    LDQ     5,,PR1
        16 000406   000000 116000 17                 CMPQ    0
        16 000407   000417 600000 16                 TZE     s:13585
        16 000410   100005 473500                    LDP3    5,,PR1
        16 000411   300000 220100                    LDX0    0,,PR3
        16 000412   001105 100003                    CMPX0   581,DU
PL6.E3A0      #003=Z9EY$CREATE_BASE_POINTERS File=Z9EY.:Z8A6TSI                  SAT 08/09/97 14:01 Page:232
        16 000413   000417 601000 16                 TNZ     s:13585

  13579 16 000414   300010 236100                    LDQ     8,,PR3
        16 000415   200003 756100                    STQ     LTS$$,,AUTO

  13583 16 000416   000431 710000 16                 TRA     s:13593

  13585 16 000417   000000 116000 17                 CMPQ    0
        16 000420   000427 600000 16                 TZE     s:13589
        16 000421   100005 473500                    LDP3    5,,PR1
        16 000422   300000 220100                    LDX0    0,,PR3
        16 000423   001066 100003                    CMPX0   566,DU
        16 000424   000427 601000 16                 TNZ     s:13589

  13587 16 000425   200003 756100                    STQ     LTS$$,,AUTO
        16 000426   000431 710000 16                 TRA     s:13593

  13589 16 000427   000000 236000 17                 LDQ     0
        16 000430   200003 756100                    STQ     LTS$$,,AUTO

     1407    13592
     1408    13593    3            NEXT$ -> BASE_LTS.SEQ# = LTS$$ -> BASE_LTS.SEQ#;

  13593 16 000431   200003 473500                    LDP3    LTS$$,,AUTO
        16 000432   300003 235100                    LDA     3,,PR3
        16 000433   000003 755100                    STA     3,,PR0

     1409    13594    3            NEXT$ -> BASE_LTS.POINTER$ = LTS$$ -> BASE_LTS.POINTER$;

  13594 16 000434   300002 236100                    LDQ     2,,PR3
        16 000435   000002 756100                    STQ     2,,PR0

     1410    13595    3          END;

     1411    13596
     1412    13597    2        NEXT$ = NEXT$ -> BASE_LTS.NEXT;

PL6.E3A0      #003=Z9EY$CREATE_BASE_POINTERS File=Z9EY.:Z8A6TSI                  SAT 08/09/97 14:01 Page:233
  13597 16 000436   000005 236100                    LDQ     5,,PR0
        16 000437   200015 756100                    STQ     NEXT$,,AUTO

     1413    13598
     1414    13599    2      END; /* DO WHILE */

  13599 16 000440   000000 116000 17                 CMPQ    0
        16 000441   000400 601000 16                 TNZ     s:13545

     1415    13600
     1416    13601    1      COMCOM.PREV_QLT$ = COMCOM_QLT$;  /* restore previous QLT */

  13601 16 000442   200005 236100                    LDQ     COMCOM_QLT$,,AUTO
        16 000443   000424 756000 xsym               STQ     COMCOM+276

     1417    13602
     1418    13603    1    END Z9EY$CREATE_BASE_POINTERS;

  13603 16 000444   000000 702200 xent               TSX2  ! X66_ARET

PL6.E3A0      #003=Z9EY$CREATE_BASE_POINTERS File=Z9EY.:Z8A6TSI                  SAT 08/09/97 14:01 Page:234
--  Include file information  --

   Z8A_LTS.:Z8A6TOU  cannot be made into a system file and is referenced.
   Z8A_ETT.:Z8A6TOU  cannot be made into a system file and is referenced.
   Z8A_QLT.:Z8A6TOU  cannot be made into a system file and is referenced.
   Z8A_TYPES.:Z8A6TOU  is referenced.
   Z8A_ST.:Z8A6TOU  cannot be made into a system file and is referenced.
   Z8A_ERR_NUMS.:Z8A6TOU  is referenced.
   Z8E_O1COM.:Z8A6TOU  cannot be made into a system file and is referenced.
   Z8A_LEX_SYMB.:Z8A6TOU  cannot be made into a system file and is referenced.
   Z8E_STACKS.:Z8A6TOU  cannot be made into a system file and is referenced.
   Z8A_COMCOM.:Z8A6TOU  cannot be made into a system file and is referenced.
   X8A_COM_MACS.:X8A6TOU  is referenced.
   Z8A_NAMES.:Z8A6TOU  is referenced.
   Z8A_SUPP_MAC.:Z8A6TOU  is referenced.
   Z8A_DEFC.:Z8A6TOU  cannot be made into a system file and is referenced.
      No diagnostics issued in procedure Z9EY$CREATE_BASE_POINTERS.
PL6.E3A0      #003=Z9EY$CREATE_BASE_POINTERS File=Z9EY.:Z8A6TSI                  SAT 08/09/97 14:01 Page:235

 **** Variables and constants ****

  ****  Section 000 LblCom ITERATION

  ****  Scalars and arrays  ****
OctLoc.c.b A Datatyp(siz) R M Lvl/name                 OctLoc.c.b A Datatyp(siz) R M Lvl/name

     0-0-0/w SBIN              1 ITERATION

  ****  Section 001 LblCom LEX_SYMBOL

  ****  Scalars and arrays  ****
OctLoc.c.b A Datatyp(siz) R M Lvl/name                 OctLoc.c.b A Datatyp(siz) R M Lvl/name

     0-0-0/w STRC(3240)  r     1 LEX_SYMBOL                 0-0-0/w STRC(3240)        1 LEX_SYMBOL_WORDS

  ****  Section 002 LblCom CURRENT_LEX_SYMBOL$

  ****  Scalars and arrays  ****
OctLoc.c.b A Datatyp(siz) R M Lvl/name                 OctLoc.c.b A Datatyp(siz) R M Lvl/name

     0-0-0/w PTR         r     1 CURRENT_LEX_SYMBOL$

  ****  Section 003 LblCom TEMP_LEX_SYMBOL

  ****  Scalars and arrays  ****
OctLoc.c.b A Datatyp(siz) R M Lvl/name                 OctLoc.c.b A Datatyp(siz) R M Lvl/name

     0-0-0/w STRC(3240)        1 TEMP_LEX_SYMBOL

  ****  Section 004 LblCom TEMP_LEX_SYMBOL2

  ****  Scalars and arrays  ****
OctLoc.c.b A Datatyp(siz) R M Lvl/name                 OctLoc.c.b A Datatyp(siz) R M Lvl/name

     0-0-0/w STRC(3240)        1 TEMP_LEX_SYMBOL2

PL6.E3A0      #003=Z9EY$CREATE_BASE_POINTERS File=Z9EY.:Z8A6TSI                  SAT 08/09/97 14:01 Page:236
  ****  Section 005 LblCom ST$

  ****  Scalars and arrays  ****
OctLoc.c.b A Datatyp(siz) R M Lvl/name                 OctLoc.c.b A Datatyp(siz) R M Lvl/name

     0-0-0/w PTR         r     1 ST$

  ****  Section 006 LblCom ST_

  ****  Scalars and arrays  ****
OctLoc.c.b A Datatyp(siz) R M Lvl/name                 OctLoc.c.b A Datatyp(siz) R M Lvl/name

     0-0-0/w STRC(180)         1 ST_

  ****  Section 007 LblCom QLT$

  ****  Scalars and arrays  ****
OctLoc.c.b A Datatyp(siz) R M Lvl/name                 OctLoc.c.b A Datatyp(siz) R M Lvl/name

     0-0-0/w PTR         r     1 QLT$

  ****  Section 008 LblCom PREV_01_QLT$

  ****  Scalars and arrays  ****
OctLoc.c.b A Datatyp(siz) R M Lvl/name                 OctLoc.c.b A Datatyp(siz) R M Lvl/name

     0-0-0/w PTR               1 PREV_01_QLT$

  ****  Section 009 LblCom QLT_

  ****  Scalars and arrays  ****
OctLoc.c.b A Datatyp(siz) R M Lvl/name                 OctLoc.c.b A Datatyp(siz) R M Lvl/name

     0-0-0/w STRC(180)         1 QLT_

  ****  Section 010 LblCom ETT$

PL6.E3A0      #003=Z9EY$CREATE_BASE_POINTERS File=Z9EY.:Z8A6TSI                  SAT 08/09/97 14:01 Page:237
  ****  Scalars and arrays  ****
OctLoc.c.b A Datatyp(siz) R M Lvl/name                 OctLoc.c.b A Datatyp(siz) R M Lvl/name

     0-0-0/w PTR         r     1 ETT$

  ****  Section 011 LblCom HEAD_ETT$

  ****  Scalars and arrays  ****
OctLoc.c.b A Datatyp(siz) R M Lvl/name                 OctLoc.c.b A Datatyp(siz) R M Lvl/name

     0-0-0/w PTR               1 HEAD_ETT$

  ****  Section 012 LblCom ETT_BUCKETS

  ****  Scalars and arrays  ****
OctLoc.c.b A Datatyp(siz) R M Lvl/name                 OctLoc.c.b A Datatyp(siz) R M Lvl/name

     0-0-0/w PTR               1 ETT_BUCKETS(0:511)

  ****  Section 013 LblCom ETT_

  ****  Scalars and arrays  ****
OctLoc.c.b A Datatyp(siz) R M Lvl/name                 OctLoc.c.b A Datatyp(siz) R M Lvl/name

     0-0-0/w STRC(180)         1 ETT_

  ****  Section 014 LblCom LTS$

  ****  Scalars and arrays  ****
OctLoc.c.b A Datatyp(siz) R M Lvl/name                 OctLoc.c.b A Datatyp(siz) R M Lvl/name

     0-0-0/w PTR               1 LONG_ITEM$                 0-0-0/w PTR         r     1 LTS$

  ****  Section 015 LblCom LTS_

  ****  Scalars and arrays  ****
OctLoc.c.b A Datatyp(siz) R M Lvl/name                 OctLoc.c.b A Datatyp(siz) R M Lvl/name
PL6.E3A0      #003=Z9EY$CREATE_BASE_POINTERS File=Z9EY.:Z8A6TSI                  SAT 08/09/97 14:01 Page:238

     0-0-0/w STRC(180)         1 LTS_

  ****  Auto variables  ****

  ****  Scalars and arrays  ****
OctLoc.c.b A Datatyp(siz) R M Lvl/name                 OctLoc.c.b A Datatyp(siz) R M Lvl/name

    12-0-0/w PTR         r     1 ARG_LIST$                  5-0-0/w PTR         r     1 COMCOM_QLT$
    17-0-0/w SBIN        r     1 I                          7-0-0/w PTR         r     1 LIST$
    10-0-0/w PTR         r     1 LIST2$                    11-0-0/w PTR         r     1 LIST2_TAIL$
     3-0-0/w PTR         r     1 LTS$$                     15-0-0/w PTR         r     1 NEXT$
     4-0-0/w PTR         r     1 QLT$$                     14-0-0/w SBIN        r     1 SEQ#
    13-0-0/w SBIN        r     1 SIZE                       6-0-0/w PTR         r     1 STACK$
    16-0-0/w PTR         r     1 TEMP$

  ****  SYMREF variables  ****

  ****  Scalars and arrays  ****
OctLoc.c.b A Datatyp(siz) R M Lvl/name                 OctLoc.c.b A Datatyp(siz) R M Lvl/name

     0-0-0/d STRC(13248) r     1 COMCOM
     0-0-0/w STRC(180)         1 HIER_STK(0:50)
     0-0-0/w SBIN              1 HIER_STK_PTR
     0-0-0/w UBIN              1 LTS_STEP(0:37)
     0-0-0/d STRC(11580) r     1 O1COM                      0-0-0/w STRC(144)         1 PAGE_FORMAT
     0-0-0/w STRC(153)         1 REP_STK(0:50)              0-0-0/w SBIN              1 REP_STK_PTR

  ****  BASED and DCB variables  ****

  ****  Scalars and arrays  ****
OctLoc.c.b A Datatyp(siz) R M Lvl/name                 OctLoc.c.b A Datatyp(siz) R M Lvl/name

     0-0-0/w STRC(288)         1 ADD_STMT                   0-0-0/w STRC(396)         1 ALPHABET
     0-0-0/w STRC(144)         1 ALTER_LTS                  0-0-0/w STRC(3672)        1 ALT_KEY
     0-0-0/w STRC(36864) r     1 ARGLIST                    0-0-0/w STRC(396)         1 ARRAY
     0-0-0/w STRC(180)         1 ARRAY_PRESET_LTS           0-0-0/w ASTR(324)   r     1 BASED_LEX_SYMBOL
PL6.E3A0      #003=Z9EY$CREATE_BASE_POINTERS File=Z9EY.:Z8A6TSI                  SAT 08/09/97 14:01 Page:239
     0-0-0/w STRC(360)         1 BASED_LEX_SYMBOL_WORDS
     0-0-0/w STRC(288)   r     1 BASE_LTS                   0-0-0/w STRC(288)         1 BINARY_OP
     0-0-0/w STRC(396)         1 BLOCK                      0-0-0/w STRC(144)         1 BT
     0-0-0/w STRC(288)         1 CALL_STMT                  0-0-0/w STRC(396)         1 CD
     0-0-0/w STRC(288)         1 CD_LTS                     0-0-0/w CHAR(4096)        1 CHARS
     0-0-0/w STRC(396)         1 CLASS                      0-0-0/w STRC(288)         1 COMPUTE_STMT
     0-0-0/w STRC(396)         1 CONDITION                  0-0-0/w STRC(396)         1 CONST
     0-0-0/w STRC(72)          1 CONT                       0-0-0/w STRC(540)         1 CONTROL_NAME_LTS
     0-0-0/w STRC(1872)        1 COPY_FILE                  0-0-0/w STRC(396)         1 DB
     0-0-0/w STRC(396)         1 DCB_                       0-0-0/w STRC(288)         1 DEFERED_IDENTIFIER
     0-0-0/w STRC(252)         1 DEFERED_ID_TREE            0-0-0/w STRC(288)         1 DEFERED_QUAL_ID
     0-0-0/w STRC(288)         1 DEFERED_SUM_CLAUSE
     0-0-0/w STRC(288)         1 DEFERED_SUM_CLAUSE_LIST
     0-0-0/w STRC(288)         1 DELETE_STMT                0-0-0/w STRC(108)         1 DEPENDING_SIZE
     0-0-0/w STRC(5472)        1 DIMS                       0-0-0/w STRC(288)         1 DIVIDE_STMT
     0-0-0/w STRC(396)         1 DML_ITEM                   0-0-0/w STRC(216)         1 DML_REC
     0-0-0/w STRC(180)   r     1 ETT                        0-0-0/w STRC(73836)       1 EVALUATE
     0-0-0/w STRC(396)         1 FD                         0-0-0/w STRC(1692)        1 FILE_LTS
     0-0-0/w STRC(288)         1 ILS_LIST                   0-0-0/w STRC(108)         1 INDEXES
     0-0-0/w STRC(360)         1 INIT_LTS                   0-0-0/w STRC(288)         1 INSPECT_1_STMT
     0-0-0/w STRC(288)         1 INSPECT_2_STMT             0-0-0/w STRC(288)         1 INSPECT_4_STMT
     0-0-0/w STRC(396)         1 INTDEF                     0-0-0/w STRC(180)         1 IO_RESTORE_CHAIN
     0-0-0/w STRC(144)         1 KEY                        0-0-0/w STRC(396)         1 LABEL
     0-0-0/w STRC(288)         1 LA_ITEM                    0-0-0/w STRC(36864)       1 LCNST
     0-0-0/w STRC(72)          1 LONG                       0-0-0/w STRC        r     1 LTS
     0-0-0/w STRC(360)   r     1 LTSS                       0-0-0/w STRC(36936)       1 LTS_PTR_ARRAY
     0-0-0/w STRC(504)         1 LX_CD_INPUT                0-0-0/w STRC(324)         1 LX_CD_I_O
     0-0-0/w STRC(396)         1 LX_CD_OUTPUT               0-0-0/w STRC(288)         1 LX_ETT_ITEM
     0-0-0/w STRC(288)         1 LX_ITEM                    0-0-0/w STRC(288)         1 LX_LARGE
     0-0-0/w STRC(288)         1 LX_LIST                    0-0-0/w STRC(1224)        1 LX_REC_DECL
     0-0-0/w STRC(864)         1 LX_REPORT_REC              0-0-0/w STRC(288)         1 LX_TERMINAL
     0-0-0/w STRC(396)         1 MNEMONIC                   0-0-0/w STRC(288)         1 MULTIPLY_STMT
     0-0-0/w STRC(144)         1 NEL                        0-0-0/w STRC(216)         1 OPEN_LTS
     0-0-0/w STRC(36864)       1 PAGE                       0-0-0/w STRC(396)         1 PARA
     0-0-0/w STRC(144)         1 PRIME                      0-0-0/w STRC(396)   r     1 PROC_
     0-0-0/w STRC(396)         1 PROC_DEF                   0-0-0/w STRC(900)         1 PROC_SUPP
     0-0-0/w STRC(216)   r     1 QLT                        0-0-0/w STRC(396)         1 RD
PL6.E3A0      #003=Z9EY$CREATE_BASE_POINTERS File=Z9EY.:Z8A6TSI                  SAT 08/09/97 14:01 Page:240
     0-0-0/w STRC(288)         1 READ_STMT                  0-0-0/w STRC(216)         1 REF
     0-0-0/w STRC(108)         1 RENAMES                    0-0-0/w STRC(720)         1 REPORT_01_LTS
     0-0-0/w STRC(432)         1 REPORT_ELEM_LTS            0-0-0/w STRC(252)         1 REPORT_GRP_LTS
     0-0-0/w STRC(1332)        1 REPORT_LTS                 0-0-0/w STRC(288)         1 REWRITE_STMT
     0-0-0/w STRC(144)         1 RVA_LTS                    0-0-0/w STRC(396)   r     1 SCALAR
     0-0-0/w STRC(396)         1 SD                         0-0-0/w STRC(396)         1 SECTION
     0-0-0/w STRC(396)         1 SEGMENT                    0-0-0/w STRC(360)         1 SEGMENT_LTS
     0-0-0/w STRC(396)   r     1 ST                         0-0-0/w STRC(288)         1 START_STMT
     0-0-0/w STRC(252)         1 STRING_STMT                0-0-0/w STRC(288)         1 SUBTRACT_STMT
     0-0-0/w STRC(252)         1 SUM_LTS                    0-0-0/w STRC(396)         1 SWITCH
     0-0-0/w STRC(396)         1 SYMBOLIC_CHAR              0-0-0/w STRC(396)   r     1 SYMDEF_
     0-0-0/w STRC(396)         1 SYMREF_                    0-0-0/w STRC(396)         1 TEMP
     0-0-0/w STRC(288)         1 UNARY_OP                   0-0-0/w STRC(288)         1 UNSTRING_STMT
     0-0-0/d STRC(612)         1 USE                        0-0-0/w STRC(252)         1 USE_SUPP
     0-0-0/w STRC(396)   r     1 VARIABLE                   0-0-0/w STRC(288)         1 WRITE_STMT


   Procedure Z9EY$CREATE_BASE_POINTERS requires 293 words for executable code.
   Procedure Z9EY$CREATE_BASE_POINTERS requires 18 words of local(AUTO) storage.

    No errors detected in file Z9EY.:Z8A6TSI    .
