PL6.E3A0      #002=Z9EY$RECEIVE_STMT File=Z9EY.:Z8A6TSI                          SAT 08/09/97 13:58 Page:50
      237        1        /*T***********************************************************/
      238        2        /*T*                                                         */
      239        3        /*T* Copyright (c) Bull HN Information Systems Inc., 1997    */
      240        4        /*T*                                                         */
      241        5        /*T***********************************************************/
      242        6        /*=================*/
      243        7          Z9EY$RECEIVE_STMT: PROC (ARG_LIST$);
      244        8        /*=================*/
      245        9
      246       10
      247       11        %EQU PHASE = 1;
      248       12
      249       13        %INCLUDE Z8A_DEFC;
      250       81        %INCLUDE Z8A_SUPP_MAC ;
      251     2481        %INCLUDE Z8A_COMCOM ;
      252     3131        %INCLUDE Z8E_STACKS ;
      253     5397        %INCLUDE Z8E_O1COM;
      254     6158        %INCLUDE Z8E_MACROS;
      255     6833        %INCLUDE Z8A_IO_EQUS;
      256     6956        %INCLUDE Z8E_WINDOW;
      257     9026        %INCLUDE Z8E_ILS_LIST;
      258     9110        %INCLUDE Z8A_ERR_NUMS ;
      259     9874        %INCLUDE Z8A_DNT ;
      260    10095        %INCLUDE Z8A_ST;
      261    13754        %INCLUDE Z8A_TYPES;
      262    13928        %INCLUDE Z8A_QLT;
      263    14034        %INCLUDE Z8A_SRCH ;
      264    14083        %INCLUDE Z8A_ETT ;
      265    14384        %INCLUDE Z8A_ILL ;
      266    15077        %INCLUDE Z8A_ILS ;
      267    15186        %INCLUDE Z8A_LTS ;
      268    17263        %INCLUDE Z8A_MKCN;
      269    17280        %INCLUDE Z8A_XREF;
      270    17352        %INCLUDE Z8E_HEAP;
      271    17408        %INCLUDE Z8E_ABSSYN;
      272    17614        %INCLUDE Z8E_STATEMNT;
      273    17683        %INCLUDE Z9E_CALL;
PL6.E3A0      #002=Z9EY$RECEIVE_STMT File=Z9EY.:Z8A6TSI                          SAT 08/09/97 13:58 Page:51
      274    17694
      275    17695
      276    17696    1   DCL Z8E5$MATH_PACK ENTRY(2) ;
      277    17697    1   DCL Z8ED$DISPOSE_ABSSYN_TREE ENTRY(1);
      278    17698    1   DCL Z8AF$FORME       ENTRY(4) ;
      279    17699    1   DCL Z8AF$NEW_BASE    ENTRY(3);
      280    17700    1   DCL Z8AF$NEW_OFF     ENTRY(3);
      281    17701    1   DCL Z8AC$MAKE_CONST               ENTRY(1);
      282    17702    1   DCL Z8EC$INTERNAL_STRING_REP ENTRY(2);
      283    17703    1   DCL Z8EK$BRANCH             ENTRY(1);
      284    17704    1   DCL Z8E7$MOVE      ENTRY(2) ;
      285    17705    1   DCL Z8AE$ERROR                    ENTRY(12);
      286    17706    1   DCL Z8CO$QUALIFY_VARIABLE         ENTRY(2) ALTRET;
      287    17707    1   DCL Z8CO$INTEGER_CHECK ENTRY(1) ALTRET;
      288    17708    1   DCL Z8CO$CHECK_NON_NEG_INT_TERM ENTRY(1) ALTRET;
      289    17709    1   DCL Z9EY$BUILD_RUNTIME_DESCRIPTOR ENTRY(3);
      290    17710    1   DCL Z8EY$BUILD_RUNTIME_ARGLIST    ENTRY(3);
      291    17711    1   DCL Z8AH$NEW_DNT ENTRY (3);
      292    17712    1   DCL Z8AH$SEARCH_ ENTRY (0) ;
      293    17713    1   DCL Z8AT$CREATE_TEMPORARY ENTRY(2) ;
      294    17714    1   DCL Z9EN$TP_SUB_CALL ENTRY(3);
      295    17715
      296    17716    1   DCL ARG_LIST$      PTR;
      297    17717    1   DCL DNT$_FROM_RSWNO (0:0) PTR SYMREF READONLY;
      298    17718
      299    17719        %EJECT;
PL6.E3A0      #002=Z9EY$RECEIVE_STMT File=Z9EY.:Z8A6TSI                          SAT 08/09/97 13:58 Page:52
      300    17720        /*-----------*/
      301    17721    1     DATA_CLAUSE :  PROC( DATA$,
      302    17722    1   /*-----------*/        NO_DATA$,
      303    17723    1                          WITH_DATA$ );
      304    17724
      305    17725    2   DCL DATA$       PTR;
      306    17726    2   DCL NO_DATA$    PTR;
      307    17727    2   DCL WITH_DATA$  PTR;
      308    17728
      309    17729    2   DCL ITEM$       PTR;
      310    17730    2   DCL TEMP$       PTR;
      311    17731
      312    17732
      313    17733
      314    17734            /*------------*/
      315    17735    2         CLAUSE_CHECK :  PROC( LIST$,
      316    17736    2       /*------------*/        NO$,
      317    17737    2                               WITH$ );
      318    17738
      319    17739    3       DCL LIST$       PTR;
      320    17740    3       DCL NO$         PTR;
      321    17741    3       DCL WITH$       PTR;
      322    17742
      323    17743
      324    17744    3           IF LIST$ -> LX_LIST.TAIL$ -> LX_TERMINAL.SYMBOL = %RSV_WRD_NO  OR
      325    17745    3             LIST$ -> LX_LIST.TAIL$ -> LX_TERMINAL.SYMBOL = %RSV_WRD_NO_DATA THEN
      326    17746    3             NO$ = LIST$ -> LX_LIST.HEAD$;
      327    17747    3           ELSE
      328    17748    3             WITH$ = LIST$ -> LX_LIST.HEAD$;
      329    17749
      330    17750    3       END CLAUSE_CHECK;
      331    17751        %EJECT;
PL6.E3A0      #002=Z9EY$RECEIVE_STMT File=Z9EY.:Z8A6TSI                          SAT 08/09/97 13:58 Page:53
      332    17752    2   NO_DATA$ = ADDR(NIL);
      333    17753    2   WITH_DATA$ = ADDR(NIL);
      334    17754
      335    17755    2   IF DATA$ ~= ADDR(NIL)    THEN
      336    17756    2     IF DATA$ -> LX_LIST.COUNT = 1      THEN
      337    17757    3       DO;
      338    17758
      339    17759    3         ITEM$ = DATA$ -> LX_LIST.HEAD$;
      340    17760    3         CALL CLAUSE_CHECK( ITEM$,
      341    17761    3                            NO_DATA$,
      342    17762    3                            WITH_DATA$ );
      343    17763    3       END;
      344    17764    2     ELSE
      345    17765    3       DO;
      346    17766
      347    17767    3         ITEM$ = DATA$ -> LX_LIST.HEAD$;
      348    17768    3         CALL CLAUSE_CHECK( ITEM$,
      349    17769    3                            NO_DATA$,
      350    17770    3                            WITH_DATA$ );
      351    17771
      352    17772    3         IF NO_DATA$ = ADDR(NIL)  THEN
      353    17773    4           DO;
      354    17774    4             CALL Z8AE$ERROR( %E$MISSING_NOT_CLAUSE,
      355    17775    4                              ITEM$->LX_LIST.TAIL$ -> LX_ITEM.LINE,
      356    17776    4                              ITEM$->LX_LIST.TAIL$ -> LX_ITEM.COLUMN );
      357    17777    4             NO_DATA$ = WITH_DATA$;
      358    17778    4             WITH_DATA$ = ADDR(NIL);
      359    17779    4           END;
      360    17780
      361    17781    3         ITEM$ = ITEM$ -> LX_ITEM.LINK;
      362    17782    3         CALL CLAUSE_CHECK( ITEM$,
      363    17783    3                            TEMP$,
      364    17784    3                            WITH_DATA$ );
      365    17785
      366    17786    3         IF WITH_DATA$ = ADDR(NIL) THEN
      367    17787    4           DO;
      368    17788    4             CALL Z8AE$ERROR( %E$MISSING_WITH_CLAUSE,
PL6.E3A0      #002=Z9EY$RECEIVE_STMT File=Z9EY.:Z8A6TSI                          SAT 08/09/97 13:58 Page:54
      369    17789    4                              ITEM$->LX_LIST.TAIL$ -> LX_ITEM.LINE,
      370    17790    4                              ITEM$->LX_LIST.TAIL$ -> LX_ITEM.COLUMN );
      371    17791    4             WITH_DATA$ = TEMP$;
      372    17792    4           END;
      373    17793
      374    17794    4         DO WHILE( ITEM$ -> LX_ITEM.LINK ~= ADDR(NIL) );
      375    17795
      376    17796    4           CALL Z8AE$ERROR( %E$MULTIPLE_ERROR_PHRASES,
      377    17797    4                            ITEM$ -> LX_LIST.TAIL$ -> LX_ITEM.LINE,
      378    17798    4                            ITEM$ -> LX_LIST.TAIL$ -> LX_ITEM.COLUMN );
      379    17799
      380    17800    4           ITEM$ = ITEM$ -> LX_ITEM.LINK;
      381    17801    4         END;
      382    17802
      383    17803    3       END;   /* COUNT > 1 */
      384    17804
      385    17805    2   END DATA_CLAUSE;
      386    17806        %EJECT;
PL6.E3A0      #002=Z9EY$RECEIVE_STMT File=Z9EY.:Z8A6TSI                          SAT 08/09/97 13:58 Page:55
      387    17807
      388    17808        /*----------------------------*/
      389    17809    1     NEW_SYMREF_FROM_TYA_TERMINAL : PROC (TERM$, ST$$, DNT$$);
      390    17810        /*----------------------------*/
      391    17811
      392    17812    2        DCL TERM$         PTR; /* To lx_terminal for tya string */
      393    17813    2        DCL ST$$          PTR; /* OUT -- to symref */
      394    17814    2        DCL NEW_DNT$      PTR;
      395    17815    2        DCL DNT$$         PTR;
      396    17816
      397    17817    2        IF TERM$ ~= ADDR(NIL) THEN
      398    17818    3          DO;
      399    17819    3            CALL Z8EC$INTERNAL_STRING_REP (TERM$,
      400    17820    3                                           NEW_DNT$);
      401    17821
      402    17822    3            CALL Z8AH$NEW_DNT (SUBSTR(NEW_DNT$ -> DNT.TEXT.NAME, 1),
      403    17823    3                               NEW_DNT$ -> DNT.TEXT.LENGTH - 2,
      404    17824    3                               NEW_DNT$);
      405    17825    3          END;
      406    17826    2        ELSE
      407    17827    2          NEW_DNT$ = DNT$$;
      408    17828
      409    17829    2        ST$$ = COMCOM.SYMREF$;
      410    17830    3        DO WHILE ST$$ ~= ADDR(NIL);
      411    17831    3          IF ST$$ -> ST.ID = %SYMREF_
      412    17832    3                AND ST$$ -> SYMREF_.DNT$ = NEW_DNT$ THEN
      413    17833    3            EXIT;
      414    17834    3          ELSE
      415    17835    3            ST$$ = ST$$ -> ST.NEXT;
      416    17836    3        END;
      417    17837
      418    17838    2        IF ST$$ = ADDR(NIL) THEN
      419    17839    3          DO;
      420    17840                 %NEW_SYMREF_ (@ST$ = ST$$,
      421    17841                               @R = %EXT_PROGRAM,
      422    17842                               @DNT$ = NEW_DNT$);
      423    17907
PL6.E3A0      #002=Z9EY$RECEIVE_STMT File=Z9EY.:Z8A6TSI                          SAT 08/09/97 13:58 Page:56
      424    17908    3            O1COM.LAST_SYMREF$ -> ST.NEXT = ST$$;
      425    17909    3            O1COM.LAST_SYMREF$ = ST$$;
      426    17910    3          END;
      427    17911    2        ELSE
      428    17912    2          ST$$ -> SYMREF_.REF_COUNT = ST$$ -> SYMREF_.REF_COUNT + 1;
      429    17913
      430    17914    2   END NEW_SYMREF_FROM_TYA_TERMINAL;
      431    17915        %EJECT;
PL6.E3A0      #002=Z9EY$RECEIVE_STMT File=Z9EY.:Z8A6TSI                          SAT 08/09/97 13:58 Page:57
      432    17916
      433    17917         /*==========*/
      434    17918    1      GET_ARG_NO: PROC (P$$, ARGNUM);
      435    17919         /*==========*/
      436    17920
      437    17921    2    DCL P$$       PTR;
      438    17922    2    DCL ARGNUM    UBIN WORD;
      439    17923    2    DCL LTS$$     PTR;
      440    17924    2    DCL I         UBIN WORD;
      441    17925    2    DCL QUAL$     PTR;
      442    17926    2    DCL TEMP$     PTR;
      443    17927
      444    17928
      445    17929    2      QUAL$ = P$$ -> SCALAR.QLT$;
      446    17930    3      DO WHILE (QUAL$ -> QLT.LEVEL_NO > 1);
      447    17931    3          QUAL$ = QUAL$ -> QLT.FATHER;
      448    17932    3      END;
      449    17933
      450    17934    2      ARGNUM = 0;
      451    17935    2      LTS$$ = P$$ -> SCALAR.PROC$ -> PROC_.PROC_DEF$ -> SYMDEF_.ARGLIST$;
      452    17936
      453    17937    2      IF LTS$$ = ADDR(NIL) THEN
      454    17938    2        RETURN;
      455    17939
      456    17940    3      DO I = 0 TO LTS$$ -> ARGLIST.N - 2;
      457    17941
      458    17942    3        IF QUAL$ -> QLT.ST$ = LTS$$ -> ARGLIST.ARG$(I) THEN
      459    17943    4          DO;
      460    17944    4            ARGNUM = I + 1;
      461    17945    4            RETURN;
      462    17946    4          END;
      463    17947    3      END;
      464    17948
      465    17949    2      RETURN;
      466    17950    2    END GET_ARG_NO;
      467    17951         %EJECT;
PL6.E3A0      #002=Z9EY$RECEIVE_STMT File=Z9EY.:Z8A6TSI                          SAT 08/09/97 13:58 Page:58
      468    17952
      469    17953         /*===========*/
      470    17954    1      SET_ADDRESS: PROC (FROM$, OFFSET, TO$);
      471    17955         /*===========*/
      472    17956
      473    17957    2    DCL FROM$     PTR;
      474    17958    2    DCL OFFSET    UBIN;
      475    17959    2    DCL TO$       PTR;
      476    17960    2    DCL OFF_ETT$  PTR;
      477    17961    2    DCL STACK_ETT$    PTR;
      478    17962    2    DCL SA_ETT$       PTR;
      479    17963    2    DCL TO_ETT$       PTR;
      480    17964
      481    17965         %DCL_AUTO_LX_ITEM (@NAME = SA_FIELD);
      482    17969         %DCL_AUTO_LX_ITEM (@NAME = OP_NODE);
      483    17973         %DCL_AUTO_LX_ITEM (@NAME = STACK_FIELD);
      484    17977         %DCL_AUTO_LX_ITEM (@NAME = DESCRIPTOR);
      485    17981         %DCL_AUTO_LX_ITEM (@NAME = ETT_ITEM);
      486    17985
      487    17986
      488    17987
      489    17988    2          STACK_ETT$ = FROM$ -> SCALAR.PROC$ -> PROC_.PSEUDO_STACK$;
      490    17989
      491    17990          /* Temporary change the types to get better codes -- LDA.. STA..*/
      492    17991    2          STACK_ETT$ -> ETT.LOP -> SCALAR.TYPE = %TYI;
      493    17992    2          TO$ -> SCALAR.TYPE = %TYI;
      494    17993
      495    17994    2          CALL Z8AF$NEW_OFF (STACK_ETT$,
      496    17995    2                             OFFSET * 4,
      497    17996    2                             OFF_ETT$);
      498    17997
      499    17998    2          CALL Z8AF$NEW_BASE (TO$,
      500    17999    2                              ADDR(NIL),
      501    18000    2                              TO_ETT$);
      502    18001
      503    18002               %INIT_LX_ETT_ITEM (@POINTER = "ADDR(STACK_FIELD)",
      504    18003                                  @TYPE    = %TYI,
PL6.E3A0      #002=Z9EY$RECEIVE_STMT File=Z9EY.:Z8A6TSI                          SAT 08/09/97 13:58 Page:59
      505    18004                                  @ETT$    = OFF_ETT$);
      506    18026
      507    18027               %INIT_LX_ETT_ITEM (@POINTER = "ADDR(DESCRIPTOR)",
      508    18028                                  @TYPE    = %TYI,
      509    18029                                  @ETT$    = TO_ETT$);
      510    18051
      511    18052    2          CALL Z8E7$MOVE (ADDR(DESCRIPTOR),
      512    18053    2                          ADDR(STACK_FIELD));
      513    18054
      514    18055          /* Check if we need to add offset into the address */
      515    18056
      516    18057    2          IF FROM$ -> SCALAR.SA ~= 0 THEN
      517    18058    3            DO;
      518    18059
      519    18060    3              MKCN.CON = FROM$ -> SCALAR.SA;
      520    18061
      521    18062    3              CALL Z8AC$MAKE_CONST (SA_ETT$);
      522    18063
      523    18064               /* temporarily change the types to get correct code */
      524    18065
      525    18066    3              ADDR(STACK_FIELD) -> LX_ETT_ITEM.TYPE = %TYH;
      526    18067    3              ADDR(DESCRIPTOR) -> LX_ETT_ITEM.TYPE = %TYH;
      527    18068    3              STACK_ETT$ -> ETT.LOP -> SCALAR.TYPE = %TYH;
      528    18069    3              TO$ -> SCALAR.TYPE = %TYH;
      529    18070
      530    18071
      531    18072                   %INIT_LX_ETT_ITEM (@POINTER = "ADDR(SA_FIELD)",
      532    18073                                      @TYPE    = %TYI,
      533    18074                                      @ETT$    = SA_ETT$);
      534    18096
      535    18097                   %INIT_BINARY_OP (@POINTER = "ADDR(OP_NODE)",
      536    18098                                    @ROP$    = "ADDR(SA_FIELD)",
      537    18099                                    @LOP$    = "ADDR(STACK_FIELD)",
      538    18100                                    @OP      = %OP_PLUS);
      539    18118
      540    18119    3              CALL Z8E5$MATH_PACK (ADDR(OP_NODE),
      541    18120    3                                   ADDR(ETT_ITEM));
PL6.E3A0      #002=Z9EY$RECEIVE_STMT File=Z9EY.:Z8A6TSI                          SAT 08/09/97 13:58 Page:60
      542    18121
      543    18122    3              CALL Z8E7$MOVE (ADDR(DESCRIPTOR),
      544    18123    3                              ADDR(ETT_ITEM));
      545    18124
      546    18125    3            END;
      547    18126
      548    18127
      549    18128           /* reset the types back to as there were defined */
      550    18129    2          STACK_ETT$ -> ETT.LOP -> SCALAR.TYPE = %TYA;
      551    18130    2          TO$ -> SCALAR.TYPE = %TYA;
      552    18131
      553    18132    2    END SET_ADDRESS;
      554    18133         %EJECT;
PL6.E3A0      #002=Z9EY$RECEIVE_STMT File=Z9EY.:Z8A6TSI                          SAT 08/09/97 13:58 Page:61
      555    18134         /*============*/
      556    18135    1      RECEIVE_STMT: PROC (RECV_LIST$);
      557    18136         /*============*/
      558    18137
      559    18138        %EQU TPE_RECV_TEXT = '.CRECV';
      560    18139        %EQU TPR_RECV_MSG_TEXT = 'C$RECM';
      561    18140        %EQU TPR_RECV_SEG_TEXT = 'C$RECS';
      562    18141        %EQU RECV_TEXT_LENGTH  = 6;
      563    18142
      564    18143
      565    18144    2   DCL KEY_WORD$          PTR;
      566    18145    2   DCL RECV_LIST$         PTR;
      567    18146    2   DCL CD_NAME$           PTR;
      568    18147    2   DCL CONST_ETT$         PTR;
      569    18148    2   DCL ARG#               UBIN WORD;
      570    18149    2   DCL ARG$               PTR;
      571    18150    2   DCL MESSAGE$           PTR;
      572    18151    2   DCL ID$                PTR;
      573    18152    2   DCL DATA$              PTR;
      574    18153    2   DCL QUAL_ERROR         BOOLEAN;
      575    18154    2   DCL CD_ST$             PTR;
      576    18155    2   DCL CD_LTS$            PTR;
      577    18156    2   DCL NO_DATA_LABEL$     PTR;
      578    18157    2   DCL END_LABEL$         PTR;
      579    18158    2   DCL ID_DESC$           PTR;
      580    18159    2   DCL RECV_NAME          CHAR (6);
      581    18160    2   DCL SYMREF$            PTR;
      582    18161    2   DCL RECV_DNT$          PTR;
      583    18162    2   DCL LX_ETT$            PTR;
      584    18163    2   DCL TEMP_ETT$          PTR;
      585    18164    2   DCL RT_ARG_LIST$       PTR;
      586    18165    2   DCL NO_DATA$           PTR;
      587    18166    2   DCL WITH_DATA$         PTR;
      588    18167
      589    18168
      590    18169
      591    18170    2      KEY_WORD$ = RECV_LIST$ -> LX_LIST.HEAD$;
PL6.E3A0      #002=Z9EY$RECEIVE_STMT File=Z9EY.:Z8A6TSI                          SAT 08/09/97 13:58 Page:62
      592    18171    2      CD_NAME$ = KEY_WORD$ -> LX_ITEM.LINK;
      593    18172    2      MESSAGE$ = CD_NAME$ -> LX_ITEM.LINK;
      594    18173    2      ID$ = MESSAGE$ -> LX_ITEM.LINK;
      595    18174    2      DATA$ = ID$ -> LX_ITEM.LINK;
      596    18175
      597    18176    2      CALL DATA_CLAUSE( DATA$, NO_DATA$, WITH_DATA$ );
      598    18177
      599    18178           %STATEMENT_START_FROM_LX_TERM (@POINTER = KEY_WORD$,
      600    18179                                          @TYPE = %S_TYPE_RECEIVE);
      601    18955
      602    18956    2      QUAL_ERROR = FALSE;
      603    18957
      604    18958    2      CALL Z8CO$QUALIFY_VARIABLE (CD_NAME$, CD_ST$)
      605    18959    2        WHENALTRETURN
      606    18960    3          DO;
      607    18961    3            QUAL_ERROR = TRUE;
      608    18962    3          END;
      609    18963
      610    18964           %ADD_XREF (SYM = CD_ST$,
      611    18965                      ISN = "CD_NAME$ -> LX_LIST.HEAD$ -> LX_TERMINAL.LINE",
      612    18966                      TYPE = %XREF_UNK);
      613    18984
      614    18985    2      IF QUAL_ERROR THEN
      615    18986    2        GOTO ERROR_STEP;
      616    18987
      617    18988    2      CD_LTS$ = ADDR(NIL);
      618    18989    2      IF CD_ST$ -> SCALAR.ID = %SCALAR THEN
      619    18990             %GET_LTS (@ID      = %CD_LTS,
      620    18991                       @ST$     = CD_ST$,
      621    18992                       @RETURN$ = CD_LTS$);
      622    19035    2      IF CD_LTS$ = ADDR(NIL) OR
      623    19036    2         CD_LTS$ -> CD_LTS.LX_CD_TYPE = %LX_CD_OUTPUT THEN
      624    19037    3        DO;
      625    19038    3          CALL Z8AE$ERROR (%E$MUST_BE_CD_I_O,
      626    19039    3                           CD_NAME$ -> LX_LIST.HEAD$ -> LX_TERMINAL.LINE,
      627    19040    3                           CD_NAME$ -> LX_LIST.HEAD$ -> LX_TERMINAL.COLUMN,
      628    19041    3                           DNT$_FROM_RSWNO(%RSV_WRD_INPUT));
PL6.E3A0      #002=Z9EY$RECEIVE_STMT File=Z9EY.:Z8A6TSI                          SAT 08/09/97 13:58 Page:63
      629    19042    3          GOTO ERROR_STEP;
      630    19043    3        END;
      631    19044
      632    19045               /* create USER_CALL ROP item */
      633    19046
      634    19047    2      IF O1COM.TPE_INTERFACE = TRUE THEN
      635    19048    2        RECV_NAME = %TPE_RECV_TEXT;
      636    19049    2      ELSE
      637    19050    2        IF MESSAGE$ -> LX_TERMINAL.SYMBOL = %RSV_WRD_MESSAGE THEN
      638    19051    2          RECV_NAME = %TPR_RECV_MSG_TEXT;
      639    19052    2        ELSE
      640    19053    2          RECV_NAME = %TPR_RECV_SEG_TEXT;
      641    19054
      642    19055    2      CALL Z8AH$NEW_DNT (RECV_NAME,
      643    19056    2                         %RECV_TEXT_LENGTH,
      644    19057    2                         RECV_DNT$);
      645    19058
      646    19059    2      CALL NEW_SYMREF_FROM_TYA_TERMINAL (ADDR(NIL),
      647    19060    2                                         SYMREF$,
      648    19061    2                                         RECV_DNT$);
      649    19062
      650    19063           /*   create argument CD-NAME address */
      651    19064
      652    19065           %NEW_HEAP (@POINTER = LX_ETT$);
      653    19070
      654    19071           %INIT_LX_ETT_ITEM (@POINTER = LX_ETT$,
      655    19072                              @TYPE    = %TYA,
      656    19073                              @LINE    = KEY_WORD$ -> LX_TERMINAL.LINE,
      657    19074                              @COLUMN  = KEY_WORD$ -> LX_TERMINAL.COLUMN);
      658    19096
      659    19097    2      CALL Z8AF$NEW_BASE (CD_ST$,
      660    19098    2                          ADDR(NIL),
      661    19099    2                          LX_ETT$ -> LX_ETT_ITEM.ETT$);
      662    19100
      663    19101           /* create argument ID descriptor */
      664    19102
      665    19103           %NEW_HEAP (@POINTER = TEMP_ETT$);
PL6.E3A0      #002=Z9EY$RECEIVE_STMT File=Z9EY.:Z8A6TSI                          SAT 08/09/97 13:58 Page:64
      666    19108
      667    19109           %INIT_LX_ETT_ITEM (@POINTER = TEMP_ETT$,
      668    19110                              @TYPE    = %TYA,
      669    19111                              @LINE    = KEY_WORD$ -> LX_TERMINAL.LINE,
      670    19112                              @COLUMN  = KEY_WORD$ -> LX_TERMINAL.COLUMN);
      671    19134
      672    19135    2      TEMP_ETT$ -> LX_ETT_ITEM.ETT$ = ID$ -> LX_ETT_ITEM.ETT$;
      673    19136
      674    19137    2      LX_ETT$ -> LX_ETT_ITEM.LINK = TEMP_ETT$;
      675    19138
      676    19139           /* create argument NO DATA transfer address */
      677    19140
      678    19141           %NEW_HEAP (@POINTER = TEMP_ETT$ -> LX_ETT_ITEM.LINK);
      679    19146    2      TEMP_ETT$ = TEMP_ETT$ -> LX_ETT_ITEM.LINK;
      680    19147
      681    19148           %INIT_LX_ETT_ITEM (@POINTER = TEMP_ETT$,
      682    19149                              @TYPE    = %TYA,
      683    19150                              @LINE    = KEY_WORD$ -> LX_TERMINAL.LINE,
      684    19151                              @COLUMN  = KEY_WORD$ -> LX_TERMINAL.COLUMN);
      685    19173
      686    19174    2      CALL Z8AT$CREATE_TEMPORARY ( %SCALAR, ARG$);
      687    19175
      688    19176    2      ARG$ -> VARIABLE.TYPE = %TYA;
      689    19177    2      ARG$ -> VARIABLE.ADSC.N = 4;
      690    19178    2      ARG$ -> VARIABLE.B.CLASS = %CLASS_ALPHANUMERIC;
      691    19179
      692    19180    2      IF NO_DATA$ = ADDR(NIL) THEN
      693    19181    3        DO;
      694    19182               %NEW_ILL (@ID  = %PRESET,
      695    19183                         @LOP = ARG$,
      696    19184                         @ROP = COMCOM.VALUE_0 -> ETT.LOP);
      697    19563    3        END;
      698    19564    2      ELSE
      699    19565    3        DO;
      700    19566    3          CALL Z8AT$CREATE_TEMPORARY (%PARA, NO_DATA_LABEL$);
      701    19567    3          NO_DATA_LABEL$ -> PARA.B.REFERENCED = TRUE;
      702    19568
PL6.E3A0      #002=Z9EY$RECEIVE_STMT File=Z9EY.:Z8A6TSI                          SAT 08/09/97 13:58 Page:65
      703    19569               %NEW_ILL (@ID  = %PTR_SET,
      704    19570                         @LOP = ARG$,
      705    19571                         @ROP = NO_DATA_LABEL$,
      706    19572                         @OFFSET = 0);
      707    19951    3        END;
      708    19952
      709    19953    2      CALL Z8AF$NEW_BASE (ARG$,
      710    19954    2                          ADDR(NIL),
      711    19955    2                          TEMP_ETT$ -> LX_ETT_ITEM.ETT$);
      712    19956
      713    19957           /* Build the TP interface subroutine call */
      714    19958
      715    19959    2      CALL Z9EN$TP_SUB_CALL (LX_ETT$, SYMREF$, 3);
      716    19960
      717    19961    2      IF WITH_DATA$ ~= ADDR(NIL) THEN
      718    19962    3        DO;
      719    19963               %APPEND_ILS_LIST( @FROM$ = WITH_DATA$,
      720    19964                                 @TO$ = "ADDR(O1COM.ILS_LIST)" );
      721    19981    3        END;
      722    19982
      723    19983    2      CALL Z8ED$DISPOSE_ABSSYN_TREE (LX_ETT$);
      724    19984
      725    19985           /* if the NO DATA clause is specified, jumping around it */
      726    19986
      727    19987    2      IF NO_DATA$ ~= ADDR(NIL) THEN
      728    19988    3        DO;
      729    19989    3          CALL Z8AT$CREATE_TEMPORARY (%PARA, END_LABEL$);
      730    19990
      731    19991    3          CALL Z8EK$BRANCH (END_LABEL$);
      732    19992
      733    19993               %NEW_ILL (@ID     = %DEFLB,
      734    19994                         @LABEL$ = NO_DATA_LABEL$);
      735    20373
      736    20374               %APPEND_ILS_LIST (@FROM$ = NO_DATA$,
      737    20375                                 @TO$   = "ADDR(O1COM.ILS_LIST)");
      738    20392
      739    20393               %NEW_ILL (@ID = %DEFLB,
PL6.E3A0      #002=Z9EY$RECEIVE_STMT File=Z9EY.:Z8A6TSI                          SAT 08/09/97 13:58 Page:66
      740    20394                         @LABEL$ = END_LABEL$);
      741    20773
      742    20774    3        END;
      743    20775
      744    20776    2      ERROR_STEP:
      745    20777    2        CALL Z8ED$DISPOSE_ABSSYN_TREE (RECV_LIST$ -> LX_LIST.HEAD$);
      746    20778    2        IF DATA$ ~= ADDR(NIL)   THEN
      747    20779    2          CALL Z8ED$DISPOSE_ABSSYN_TREE( DATA$ -> LX_LIST.HEAD$ );
      748    20780
      749    20781    2    END RECEIVE_STMT;
      750    20782         %EJECT;
PL6.E3A0      #002=Z9EY$RECEIVE_STMT File=Z9EY.:Z8A6TSI                          SAT 08/09/97 13:58 Page:67
      751    20783         /*=========*/
      752    20784    1      SEND_STMT: PROC (SEND_LIST$);
      753    20785         /*=========*/
      754    20786
      755    20787
      756    20788        %EQU TPE_SEND_TEXT = '.CSNDM';
      757    20789        %EQU TPR_SEND_TEXT = 'C$SEND';
      758    20790        %EQU SEND_TEXT_LENGTH = 6;
      759    20791        %EQU ESI_CODE = 1;
      760    20792        %EQU EMI_CODE = 2;
      761    20793        %EQU EGI_CODE = 3;
      762    20794        %EQU LENGTH_ONE_CHAR = 1;
      763    20795
      764    20796
      765    20797    2   DCL SEND_LIST$         PTR;
      766    20798    2   DCL KEY_WORD$          PTR;
      767    20799    2   DCL CD_NAME$           PTR;
      768    20800    2   DCL ID$                PTR;
      769    20801    2   DCL SEND_WITH$         PTR;
      770    20802    2   DCL BEF_AFT_ADV$       PTR;
      771    20803    2   DCL SEND_REPLACE$      PTR;
      772    20804    2   DCL ID_ST$             PTR;
      773    20805    2   DCL CD_ST$             PTR;
      774    20806    2   DCL ARG#               UBIN;
      775    20807    2   DCL ARG$               PTR;
      776    20808    2   DCL DESC_ST$           PTR;
      777    20809    2   DCL SYMREF$            PTR;
      778    20810    2   DCL SEND_DNT$          PTR;
      779    20811    2   DCL LX_ETT$            PTR;
      780    20812    2   DCL TEMP_ETT$          PTR;
      781    20813    2   DCL RT_ARG_LIST$       PTR;
      782    20814    2   DCL QUAL_ERROR         BOOLEAN;
      783    20815    2   DCL ID_ETT$            PTR;
      784    20816    2   DCL ADV_AFTER          BOOLEAN;
      785    20817    2   DCL MNE_ST$            PTR;
      786    20818    2   DCL SEND_NAME          CHAR (%SEND_TEXT_LENGTH);
      787    20819    2   DCL WITH_ETT$          PTR;
PL6.E3A0      #002=Z9EY$RECEIVE_STMT File=Z9EY.:Z8A6TSI                          SAT 08/09/97 13:58 Page:68
      788    20820    2   DCL ADV_ETT$           PTR;
      789    20821    2   DCL TEMP_VAR$          PTR;
      790    20822    2   DCL WITH_ST$           PTR;
      791    20823    2   DCL CD_LTS$            PTR;
      792    20824
      793    20825        %DCL_AUTO_LX_ITEM (@NAME = ADV_LX_ETT);
      794    20829        %DCL_AUTO_LX_ITEM (@NAME = TEMP_LX_ETT);
      795    20833        %DCL_AUTO_LX_ITEM (@NAME = AFTER_FIELD);
      796    20837        %DCL_AUTO_LX_ITEM (@NAME = OP_NODE);
      797    20841        %DCL_AUTO_LX_ITEM (@NAME = ETT_ITEM);
      798    20845        %DCL_AUTO_LX_ITEM (@NAME = INT_LX_ETT);
      799    20849
      800    20850    2   DCL CONST_ETT$         PTR;
      801    20851    2   DCL INT_VAR$           PTR;
      802    20852    2   DCL INT_ETT$           PTR;
      803    20853    2   DCL 1 AFTER_SET,
      804    20854    2          2 VALUE         SBIN WORD,
      805    20855    2          2 B REDEF VALUE,
      806    20856    2            3 AFTER       BOOLEAN,
      807    20857    2            3 *           BIT (17),
      808    20858    2            3 TAIL        UBIN HALF UNAL;
      809    20859
      810    20860
      811    20861
      812    20862         %EJECT;
PL6.E3A0      #002=Z9EY$RECEIVE_STMT File=Z9EY.:Z8A6TSI                          SAT 08/09/97 13:58 Page:69
      813    20863
      814    20864    2      KEY_WORD$ = SEND_LIST$ -> LX_LIST.HEAD$;
      815    20865    2      CD_NAME$ = KEY_WORD$ -> LX_ITEM.LINK;
      816    20866    2      ID$ = CD_NAME$ -> LX_ITEM.LINK;
      817    20867    2      SEND_WITH$ = ID$ -> LX_ITEM.LINK;
      818    20868
      819    20869    2      IF SEND_WITH$ ~= ADDR(NIL) THEN
      820    20870    3        DO;
      821    20871    3          BEF_AFT_ADV$ = SEND_WITH$ -> LX_ITEM.LINK;
      822    20872    3          SEND_REPLACE$ = BEF_AFT_ADV$ -> LX_ITEM.LINK;
      823    20873    3        END;
      824    20874
      825    20875           %STATEMENT_START_FROM_LX_TERM (@POINTER = KEY_WORD$,
      826    20876                                          @TYPE    = %S_TYPE_SEND);
      827    21652
      828    21653    2      QUAL_ERROR = FALSE;
      829    21654
      830    21655    2      CALL Z8CO$QUALIFY_VARIABLE (CD_NAME$, CD_ST$)
      831    21656    2        WHENALTRETURN
      832    21657    3          DO;
      833    21658    3            QUAL_ERROR = TRUE;
      834    21659    3          END;
      835    21660
      836    21661           %ADD_XREF (SYM = CD_ST$,
      837    21662                      ISN = "CD_NAME$ -> LX_LIST.HEAD$ -> LX_TERMINAL.LINE",
      838    21663                      TYPE = %XREF_UNK);
      839    21681
      840    21682    2      IF QUAL_ERROR THEN
      841    21683    2        GOTO ERROR_STEP;
      842    21684
      843    21685    2      CD_LTS$ = ADDR(NIL);
      844    21686    2      IF CD_ST$ -> SCALAR.ID = %SCALAR THEN
      845    21687             %GET_LTS (@ID      = %CD_LTS,
      846    21688                       @ST$     = CD_ST$,
      847    21689                       @RETURN$ = CD_LTS$);
      848    21732    2      IF CD_LTS$ = ADDR(NIL) OR
      849    21733    2        CD_LTS$ -> CD_LTS.LX_CD_TYPE = %LX_CD_INPUT THEN
PL6.E3A0      #002=Z9EY$RECEIVE_STMT File=Z9EY.:Z8A6TSI                          SAT 08/09/97 13:58 Page:70
      850    21734    3        DO;
      851    21735    3          CALL Z8AE$ERROR (%E$MUST_BE_CD_I_O,
      852    21736    3                           CD_NAME$ -> LX_LIST.HEAD$ -> LX_TERMINAL.LINE,
      853    21737    3                           CD_NAME$ -> LX_LIST.HEAD$ -> LX_TERMINAL.COLUMN,
      854    21738    3                           DNT$_FROM_RSWNO (%RSV_WRD_OUTPUT));
      855    21739    3          GOTO ERROR_STEP;
      856    21740    3        END;
      857    21741
      858    21742           /* create the TP interface subroutine name */
      859    21743
      860    21744    2      IF O1COM.TPE_INTERFACE THEN
      861    21745    2        SEND_NAME = %TPE_SEND_TEXT;
      862    21746    2      ELSE
      863    21747    2        SEND_NAME = %TPR_SEND_TEXT;
      864    21748
      865    21749    2      CALL Z8AH$NEW_DNT (SEND_NAME,
      866    21750    2                         %SEND_TEXT_LENGTH,
      867    21751    2                         SEND_DNT$);
      868    21752
      869    21753    2      CALL NEW_SYMREF_FROM_TYA_TERMINAL (ADDR(NIL),
      870    21754    2                                         SYMREF$,
      871    21755    2                                         SEND_DNT$);
      872    21756
      873    21757           /* create CD NAME argument */
      874    21758
      875    21759           %NEW_HEAP (@POINTER = LX_ETT$);
      876    21764
      877    21765           %INIT_LX_ETT_ITEM (@POINTER = LX_ETT$,
      878    21766                              @TYPE    = %TYA,
      879    21767                              @LINE    = KEY_WORD$ -> LX_TERMINAL.LINE,
      880    21768                              @COLUMN  = KEY_WORD$ -> LX_TERMINAL.COLUMN);
      881    21790
      882    21791    2      CALL Z8AF$NEW_BASE (CD_ST$,
      883    21792    2                          ADDR(NIL),
      884    21793    2                          LX_ETT$ -> LX_ETT_ITEM.ETT$);
      885    21794
      886    21795           /* create the argument of the ID descriptor */
PL6.E3A0      #002=Z9EY$RECEIVE_STMT File=Z9EY.:Z8A6TSI                          SAT 08/09/97 13:58 Page:71
      887    21796
      888    21797           %NEW_HEAP (@POINTER = TEMP_ETT$);
      889    21802
      890    21803           %INIT_LX_ETT_ITEM (@POINTER = TEMP_ETT$,
      891    21804                              @TYPE    = %TYA,
      892    21805                              @LINE    = KEY_WORD$ -> LX_TERMINAL.LINE,
      893    21806                              @COLUMN  = KEY_WORD$ -> LX_TERMINAL.COLUMN);
      894    21828
      895    21829    2      IF ID$ -> LX_ITEM.ID = %LX_ETT_ITEM THEN
      896    21830    2        TEMP_ETT$ -> LX_ETT_ITEM.ETT$ = ID$ -> LX_ETT_ITEM.ETT$;
      897    21831    2      ELSE IF ID$ -> LX_ITEM.SYMBOL ~= %EMPTY AND ID$ -> LX_ITEM.SYMBOL ~= %
             21831               RSV_WRD_WITH THEN
      898    21832    3        DO;
      899    21833               %FISH (TRIAD = ID$ -> LX_ETT_ITEM.ETT$, RTN = ID_ST$);
      900    21841    3          CALL Z8AF$NEW_BASE (ID_ST$,
      901    21842    3                              ADDR(NIL),
      902    21843    3                              TEMP_ETT$ -> LX_ETT_ITEM.ETT$);
      903    21844
      904    21845    3        END;
      905    21846    2      ELSE
      906    21847    2        TEMP_ETT$ -> LX_ETT_ITEM.ETT$ = COMCOM.VALUE_0;
      907    21848
      908    21849    2      LX_ETT$ -> LX_ETT_ITEM.LINK = TEMP_ETT$;
      909    21850
      910    21851           /* create the argument of the SEND WITH  indicator */
      911    21852
      912    21853    2      IF SEND_WITH$ ~= ADDR(NIL) THEN
      913    21854    3        DO;
      914    21855    3          IF SEND_WITH$ -> LX_ITEM.ID = %LX_ETT_ITEM THEN
      915    21856    4            DO;
      916    21857                   %FISH (TRIAD = SEND_WITH$ -> LX_ETT_ITEM.ETT$,
      917    21858                          RTN   = WITH_ST$);
      918    21866
      919    21867    4              IF WITH_ST$ -> VARIABLE.NDSC.N ~= %LENGTH_ONE_CHAR OR
      920    21868    4                WITH_ST$ -> VARIABLE.B.CLASS ~= %CLASS_NUMERIC THEN
      921    21869    5                DO;
      922    21870    5                  CALL Z8AE$ERROR (%E$MUST_NO_SIGN_ONE_CHAR_INT,
PL6.E3A0      #002=Z9EY$RECEIVE_STMT File=Z9EY.:Z8A6TSI                          SAT 08/09/97 13:58 Page:72
      923    21871    5                                   SEND_WITH$ -> LX_ETT_ITEM.LINE,
      924    21872    5                                   SEND_WITH$ -> LX_ETT_ITEM.COLUMN);
      925    21873
      926    21874    5                  WITH_ETT$ = COMCOM.VALUE_0;
      927    21875    5                END;
      928    21876    4              ELSE
      929    21877    5                DO;
      930    21878    5                  CALL Z8AT$CREATE_TEMPORARY (%SCALAR, TEMP_VAR$);
      931    21879
      932    21880    5                  TEMP_VAR$ -> VARIABLE.TYPE = %TYI;
      933    21881    5                  TEMP_VAR$ -> VARIABLE.NDSC.N = 4;
      934    21882    5                  TEMP_VAR$ -> VARIABLE.NDSC.S = '11'B;
      935    21883    5                  TEMP_VAR$ -> VARIABLE.B.CLASS = %CLASS_NUMERIC;
      936    21884
      937    21885    5                  CALL Z8AF$NEW_BASE (TEMP_VAR$,
      938    21886    5                                      ADDR(NIL),
      939    21887    5                                      WITH_ETT$);
      940    21888
      941    21889                       %INIT_LX_ETT_ITEM (@POINTER = "ADDR(TEMP_LX_ETT)",
      942    21890                                          @ETT$    = WITH_ETT$,
      943    21891                                          @TYPE    = %TYI);
      944    21913
      945    21914    5                  CALL Z8E7$MOVE (ADDR(TEMP_LX_ETT), SEND_WITH$);
      946    21915    5                END;
      947    21916    4            END;
      948    21917    3          ELSE
      949    21918    4            DO;
      950    21919    5              DO CASE (SEND_WITH$ -> LX_TERMINAL.SYMBOL);
      951    21920    5                CASE (%RSV_WRD_ESI);
      952    21921    5                  MKCN.CON = %ESI_CODE;
      953    21922    5                CASE (%RSV_WRD_EMI);
      954    21923    5                  MKCN.CON = %EMI_CODE;
      955    21924    5                CASE (%RSV_WRD_EGI);
      956    21925    5                  MKCN.CON = %EGI_CODE;
      957    21926    5              END; /* DO CASE */
      958    21927
      959    21928    4              CALL Z8AC$MAKE_CONST ( WITH_ETT$);
PL6.E3A0      #002=Z9EY$RECEIVE_STMT File=Z9EY.:Z8A6TSI                          SAT 08/09/97 13:58 Page:73
      960    21929    4            END;
      961    21930
      962    21931    3          IF BEF_AFT_ADV$ -> LX_ITEM.ID ~= %LX_LIST THEN
      963    21932    4            DO;
      964    21933    4              AFTER_SET.VALUE = 1;
      965    21934    4              AFTER_SET.B.AFTER = TRUE;
      966    21935    4              MKCN.CON = AFTER_SET.VALUE;
      967    21936
      968    21937    4              CALL Z8AC$MAKE_CONST (ADV_ETT$);
      969    21938    4            END;
      970    21939    3          ELSE
      971    21940    4            DO;
      972    21941    4              IF BEF_AFT_ADV$ -> LX_LIST.HEAD$ -> LX_TERMINAL.SYMBOL = %RSV_WRD_AFTER
             21941                       THEN
      973    21942    4                ADV_AFTER = TRUE;
      974    21943    4              ELSE
      975    21944    4                ADV_AFTER = FALSE;
      976    21945
      977    21946    5              DO CASE (BEF_AFT_ADV$ -> LX_LIST.TAIL$ -> LX_TERMINAL.ID);
      978    21947    5                CASE (%LX_TERMINAL);
      979    21948    6                  DO SELECT (BEF_AFT_ADV$ -> LX_LIST.TAIL$ -> LX_TERMINAL.SYMBOL);
      980    21949    6                    SELECT (%RSV_WRD_PAGE);
      981    21950    6                      AFTER_SET.VALUE = -1;
      982    21951    6                      AFTER_SET.B.TAIL = 0;
      983    21952    6                      IF ADV_AFTER = FALSE THEN
      984    21953    6                        AFTER_SET.B.AFTER = FALSE;
      985    21954
      986    21955    6                      MKCN.CON = AFTER_SET.VALUE;
      987    21956
      988    21957    6                      CALL Z8AC$MAKE_CONST(ADV_ETT$);
      989    21958
      990    21959    6                    SELECT (ELSE);
      991    21960    6                      CALL Z8CO$CHECK_NON_NEG_INT_TERM (BEF_AFT_ADV$ -> LX_LIST.TAIL$)
      992    21961    6                        WHENRETURN
      993    21962    7                          DO;
      994    21963    7                            CALL CHARBIN (AFTER_SET.VALUE,
      995    21964    7                               BEF_AFT_ADV$ -> LX_LIST.TAIL$ -> LX_TERMINAL.DNT$ -> DNT
PL6.E3A0      #002=Z9EY$RECEIVE_STMT File=Z9EY.:Z8A6TSI                          SAT 08/09/97 13:58 Page:74
             21964                                        .TEXT.NAME);
      996    21965    7                          END;
      997    21966    6                        WHENALTRETURN
      998    21967    7                          DO;
      999    21968    7                            AFTER_SET.VALUE = 1;
     1000    21969    7                          END;
     1001    21970
     1002    21971    6                      IF ADV_AFTER THEN
     1003    21972    6                        AFTER_SET.B.AFTER = TRUE;
     1004    21973    6                      MKCN.CON = AFTER_SET.VALUE;
     1005    21974
     1006    21975    6                      CALL Z8AC$MAKE_CONST (ADV_ETT$);
     1007    21976    6                  END; /* do select */
     1008    21977
     1009    21978    5              CASE (%LX_ETT_ITEM);
     1010    21979    5                IF BEF_AFT_ADV$ -> LX_LIST.TAIL$ -> LX_ETT_ITEM.TYPE ~= %TYG THEN
     1011    21980    6                  DO;
     1012    21981    6                    CALL Z8CO$INTEGER_CHECK (BEF_AFT_ADV$ -> LX_LIST.TAIL$)
     1013    21982    6                      WHENRETURN
     1014    21983    7                        DO;
     1015    21984    7                          IF ADV_AFTER OR
     1016    21985    7                            BEF_AFT_ADV$ -> LX_LIST.TAIL$ -> LX_ETT_ITEM.TYPE ~= %TYI
             21985                                     THEN
     1017    21986    8                            DO;
     1018    21987    8                              CALL Z8AT$CREATE_TEMPORARY (%SCALAR, INT_VAR$);
     1019    21988    8                              INT_VAR$ -> VARIABLE.TYPE = %TYI;
     1020    21989    8                              INT_VAR$ -> VARIABLE.NDSC.N = 4;
     1021    21990    8                              INT_VAR$ -> VARIABLE.NDSC.S = '11'B;
     1022    21991    8                              INT_VAR$ -> VARIABLE.B.CLASS = %CLASS_NUMERIC;
     1023    21992    8                              CALL Z8AF$NEW_BASE (INT_VAR$,
     1024    21993    8                                                  ADDR(NIL),
     1025    21994    8                                                  ADV_ETT$);
     1026    21995
     1027    21996                                   %INIT_LX_ETT_ITEM (@POINTER = "ADDR(INT_LX_ETT)",
     1028    21997                                                      @ETT$ = ADV_ETT$,
     1029    21998                                                      @TYPE = %TYI);
     1030    22020
PL6.E3A0      #002=Z9EY$RECEIVE_STMT File=Z9EY.:Z8A6TSI                          SAT 08/09/97 13:58 Page:75
     1031    22021    8                              CALL Z8E7$MOVE (ADDR(INT_LX_ETT),
     1032    22022    8                                   BEF_AFT_ADV$ -> LX_LIST.TAIL$);
     1033    22023
     1034    22024    8                              IF ADV_AFTER THEN
     1035    22025    9                                DO;
     1036    22026    9                                  AFTER_SET.VALUE = 0;
     1037    22027    9                                  AFTER_SET.B.AFTER = TRUE;
     1038    22028    9                                  MKCN.CON = AFTER_SET.VALUE;
     1039    22029    9                                  CALL Z8AC$MAKE_CONST (CONST_ETT$);
     1040    22030
     1041    22031                                       %INIT_LX_ETT_ITEM(@POINTER = "ADDR(AFTER_FIELD)",
     1042    22032                                                         @TYPE = %TYI,
     1043    22033                                                         @ETT$ = CONST_ETT$);
     1044    22055
     1045    22056                                       %INIT_BINARY_OP (@POINTER = "ADDR(OP_NODE)",
     1046    22057                                                        @ROP$ = "ADDR(AFTER_FIELD)",
     1047    22058                                                        @LOP$ = "ADDR(INT_LX_ETT)",
     1048    22059                                                        @OP = %OP_PLUS);
     1049    22077    9                                  CALL Z8E5$MATH_PACK (ADDR(OP_NODE),
     1050    22078    9                                                       ADDR(ETT_ITEM));
     1051    22079
     1052    22080    9                                  CALL Z8E7$MOVE (ADDR(INT_LX_ETT),
     1053    22081    9                                                  ADDR(ETT_ITEM));
     1054    22082    9                                END;  /*  IF ADV_AFTER */
     1055    22083    8                            END; /* IF ... ~= %TYI */
     1056    22084    7                          ELSE
     1057    22085    8                            DO;
     1058    22086    8                              ADV_ETT$ = BEF_AFT_ADV$ -> LX_LIST.TAIL$ ->LX_ETT_ITEM.
             22086                                       ETT$;
     1059    22087    8                            END;
     1060    22088    7                      END; /* WHENRETURN DO */
     1061    22089    6                    WHENALTRETURN
     1062    22090    7                      DO;
     1063    22091    7                        AFTER_SET.VALUE = 1;
     1064    22092    7                        IF ADV_AFTER THEN
     1065    22093    7                          AFTER_SET.B.AFTER = TRUE;
     1066    22094    7                        MKCN.CON = AFTER_SET.VALUE;
PL6.E3A0      #002=Z9EY$RECEIVE_STMT File=Z9EY.:Z8A6TSI                          SAT 08/09/97 13:58 Page:76
     1067    22095    7                        CALL Z8AC$MAKE_CONST (ADV_ETT$);
     1068    22096    7                      END;
     1069    22097    6                  END;  /* IF .... ~= %TYG THEN DO */
     1070    22098    5                ELSE
     1071    22099    6                  DO;
     1072    22100                         %FISH (TRIAD = BEF_AFT_ADV$ -> LX_LIST.TAIL$ -> LX_ETT_ITEM.ETT$,
     1073    22101                                RTN = MNE_ST$);
     1074    22109
     1075    22110    6                    IF MNE_ST$ -> ST.ID = %MNEMONIC AND
     1076    22111    6                      MNE_ST$ -> MNEMONIC.B.MNEMONIC_NAME AND
     1077    22112    6                      MNE_ST$ -> MNEMONIC.NAME = %RSV_WRD_PAGE THEN
     1078    22113    7                      DO;
     1079    22114    7                        AFTER_SET.VALUE = -1;
     1080    22115    7                        AFTER_SET.B.TAIL = 0;
     1081    22116    7                        IF ADV_AFTER = FALSE THEN
     1082    22117    7                          AFTER_SET.B.AFTER = FALSE;
     1083    22118    7                        MKCN.CON = AFTER_SET.VALUE;
     1084    22119    7                        CALL Z8AC$MAKE_CONST (ADV_ETT$);
     1085    22120    7                      END;
     1086    22121    6                    ELSE
     1087    22122    7                      DO;
     1088    22123    7                        CALL Z8AE$ERROR (%E$INVALID_ADVANCING_TYPE,
     1089    22124    7                               BEF_AFT_ADV$ -> LX_LIST.TAIL$ -> LX_ETT_ITEM.LINE,
     1090    22125    7                               BEF_AFT_ADV$ -> LX_LIST.TAIL$ -> LX_ETT_ITEM.COLUMN);
     1091    22126
     1092    22127    7                        AFTER_SET.VALUE = 1;
     1093    22128    7                        IF ADV_AFTER THEN
     1094    22129    7                          AFTER_SET.B.AFTER = FALSE;
     1095    22130    7                        MKCN.CON = AFTER_SET.VALUE;
     1096    22131    7                        CALL Z8AC$MAKE_CONST (ADV_ETT$);
     1097    22132    7                      END;
     1098    22133    6                  END; /*  IF ... ~= %TYG THEN ... ELSE DO */
     1099    22134    5              END; /* DO CASE */
     1100    22135    4          END; /* IF ... = %EMPTY  THEN... ELSE DO */
     1101    22136    3        END; /* IF SEND_WITH$ ~= ADDR(NIL) THEN DO */
     1102    22137    2      ELSE
     1103    22138    3        DO;  /* SEND_WITH$ = ADDR(NIL) */
PL6.E3A0      #002=Z9EY$RECEIVE_STMT File=Z9EY.:Z8A6TSI                          SAT 08/09/97 13:58 Page:77
     1104    22139    3          WITH_ETT$ = COMCOM.VALUE_0;
     1105    22140    3          AFTER_SET.VALUE = 1;
     1106    22141    3          AFTER_SET.B.AFTER = TRUE;
     1107    22142    3          MKCN.CON = AFTER_SET.VALUE;
     1108    22143    3          CALL Z8AC$MAKE_CONST(ADV_ETT$);
     1109    22144    3        END;
     1110    22145
     1111    22146           /*   For GCOS USER_CALL only..
     1112    22147               CALL Z8AT$CREATE_TEMPORARY (%SCALAR, DESC_ST$);
     1113    22148
     1114    22149               DESC_ST$ -> VARIABLE.TYPE = %TYA;
     1115    22150               DESC_ST$ -> VARIABLE.ADSC.N = 4;
     1116    22151               DESC_ST$ -> VARIABLE.B.CLASS = %CLASS_ALPHANUMERIC;
     1117    22152
     1118    22153               %NEW_ILL (@ID   = %P_A_PRESET,
     1119    22154                         @LOP  = WITH_ETT$ -> ETT.LOP,
     1120    22155                         @ROPCON = 4,
     1121    22156                         @TO   = DESC_ST$);
     1122    22157
     1123    22158           */
     1124    22159           /* For GCOS USER_CALL ..
     1125    22160              CALL Z8AF$NEW_BASE (DESC_ST$,
     1126    22161           */
     1127    22162    2          CALL Z8AF$NEW_BASE (WITH_ETT$ -> ETT.LOP,
     1128    22163    2                              ADDR(NIL),
     1129    22164    2                              WITH_ETT$);
     1130    22165
     1131    22166          /* For GCOS USER_CALL only....
     1132    22167
     1133    22168               CALL Z8AT$CREATE_TEMPORARY (%SCALAR, DESC_ST$);
     1134    22169
     1135    22170               DESC_ST$ -> VARIABLE.TYPE = %TYA;
     1136    22171               DESC_ST$ -> VARIABLE.ADSC.N = 4;
     1137    22172               DESC_ST$ -> VARIABLE.B.CLASS = %CLASS_ALPHANUMERIC;
     1138    22173
     1139    22174               %NEW_ILL (@ID   = %P_A_PRESET,
     1140    22175                         @LOP  = ADV_ETT$ -> ETT.LOP,
PL6.E3A0      #002=Z9EY$RECEIVE_STMT File=Z9EY.:Z8A6TSI                          SAT 08/09/97 13:58 Page:78
     1141    22176                         @ROPCON = 4,
     1142    22177                         @TO   = DESC_ST$);
     1143    22178
     1144    22179          */
     1145    22180          /*  For GCOS USER_CALL .. use
     1146    22181               CALL Z8AF$NEW_BASE (DESC_ST$,
     1147    22182          */
     1148    22183    2          CALL Z8AF$NEW_BASE (ADV_ETT$ -> ETT.LOP,
     1149    22184    2                              ADDR(NIL),
     1150    22185    2                              ADV_ETT$);
     1151    22186
     1152    22187           %NEW_HEAP (@POINTER = TEMP_ETT$ -> LX_ETT_ITEM.LINK);
     1153    22192
     1154    22193    2      TEMP_ETT$ = TEMP_ETT$ -> LX_ETT_ITEM.LINK;
     1155    22194
     1156    22195           %INIT_LX_ETT_ITEM (@POINTER = TEMP_ETT$,
     1157    22196                              @TYPE = %TYI,
     1158    22197                              @LINE = KEY_WORD$ -> LX_TERMINAL.LINE,
     1159    22198                              @COLUMN = KEY_WORD$ -> LX_TERMINAL.COLUMN,
     1160    22199                              @ETT$ = WITH_ETT$);
     1161    22221
     1162    22222           %NEW_HEAP (@POINTER = TEMP_ETT$ -> LX_ETT_ITEM.LINK);
     1163    22227
     1164    22228    2      TEMP_ETT$ = TEMP_ETT$ -> LX_ETT_ITEM.LINK;
     1165    22229
     1166    22230           %INIT_LX_ETT_ITEM (@POINTER = TEMP_ETT$,
     1167    22231                              @TYPE = %TYI,
     1168    22232                              @LINE = KEY_WORD$ -> LX_TERMINAL.LINE,
     1169    22233                              @COLUMN = KEY_WORD$ -> LX_TERMINAL.COLUMN,
     1170    22234                              @ETT$ = ADV_ETT$);
     1171    22256
     1172    22257    2      CALL Z9EN$TP_SUB_CALL (LX_ETT$, SYMREF$, 4);
     1173    22258
     1174    22259    2      CALL Z8ED$DISPOSE_ABSSYN_TREE (LX_ETT$);
     1175    22260
     1176    22261    2      ERROR_STEP:
     1177    22262    2        CALL Z8ED$DISPOSE_ABSSYN_TREE (SEND_LIST$ -> LX_LIST.HEAD$);
PL6.E3A0      #002=Z9EY$RECEIVE_STMT File=Z9EY.:Z8A6TSI                          SAT 08/09/97 13:58 Page:79
     1178    22263
     1179    22264    2    END SEND_STMT;
     1180    22265         %EJECT;
PL6.E3A0      #002=Z9EY$RECEIVE_STMT File=Z9EY.:Z8A6TSI                          SAT 08/09/97 13:58 Page:80
     1181    22266
     1182    22267          /* main program */
     1183    22268
     1184    22269    1     CALL RECEIVE_STMT (ARG_LIST$);
     1185    22270
     1186    22271    1     RETURN;
     1187    22272
     1188    22273
     1189    22274         /*==============*/
     1190    22275    1      Z9EY$SEND_STMT: ENTRY (ARG_LIST$);
     1191    22276         /*==============*/
     1192    22277
     1193    22278    1     CALL SEND_STMT (ARG_LIST$);
     1194    22279
     1195    22280    1     RETURN;
     1196    22281    1    END Z9EY$RECEIVE_STMT;
     1197    22282         %EJECT;
PL6.E3A0      #002=Z9EY$RECEIVE_STMT File=Z9EY.:Z8A6TSI                          SAT 08/09/97 13:58 Page:81
     1198    22283         %EOD;

PL6.E3A0      #002=Z9EY$RECEIVE_STMT File=Z9EY.:Z8A6TSI                          SAT 08/09/97 13:58 Page:82
--  Include file information  --

   Z9E_CALL.:Z8A6TOU  is referenced.
   Z8E_STATEMNT.:Z8A6TOU  is referenced.
   Z8E_ABSSYN.:Z8A6TOU  cannot be made into a system file and is referenced.
   Z8E_HEAP.:Z8A6TOU  cannot be made into a system file and is referenced.
   Z8A_XREF.:Z8A6TOU  cannot be made into a system file and is referenced.
   Z8A_MKCN.:Z8A6TOU  cannot be made into a system file and is referenced.
   Z8A_LTS.:Z8A6TOU  cannot be made into a system file and is referenced.
   Z8A_ILS.:Z8A6TOU  cannot be made into a system file and is referenced.
   Z8A_ILL.:Z8A6TOU  cannot be made into a system file and is referenced.
   Z8A_ETT.:Z8A6TOU  cannot be made into a system file and is referenced.
   Z8A_SRCH.:Z8A6TOU  cannot be made into a system file and is referenced.
   Z8A_QLT.:Z8A6TOU  cannot be made into a system file and is referenced.
   Z8A_TYPES.:Z8A6TOU  is referenced.
   Z8A_ST.:Z8A6TOU  cannot be made into a system file and is referenced.
   Z8A_DNT.:Z8A6TOU  cannot be made into a system file and is referenced.
   Z8A_ERR_NUMS.:Z8A6TOU  is referenced.
   Z8E_ILS_LIST.:Z8A6TOU  is referenced.
   Z8E_WINDOW.:Z8A6TOU  is referenced.
   Z8A_IO_EQUS.:Z8A6TOU  is referenced.
   Z8E_NEW_ILL.:Z8A6TOU  is referenced.
   Z8E_MACROS.:Z8A6TOU  cannot be made into a system file and is referenced.
   Z8E_O1COM.:Z8A6TOU  cannot be made into a system file and is referenced.
   Z8A_LEX_SYMB.:Z8A6TOU  cannot be made into a system file and is referenced.
   Z8E_STACKS.:Z8A6TOU  cannot be made into a system file and is referenced.
   Z8A_COMCOM.:Z8A6TOU  cannot be made into a system file and is referenced.
   X8A_COM_MACS.:X8A6TOU  is referenced.
   Z8A_NAMES.:Z8A6TOU  is referenced.
   Z8A_SUPP_MAC.:Z8A6TOU  is referenced.
   Z8A_DEFC.:Z8A6TOU  cannot be made into a system file and is referenced.
      No diagnostics issued in procedure Z9EY$RECEIVE_STMT.

   Procedure Z9EY$RECEIVE_STMT requires 1922 words for executable code.
   Procedure Z9EY$RECEIVE_STMT requires 100 words of local(AUTO) storage.
PL6.E3A0      #002=Z9EY$RECEIVE_STMT File=Z9EY.:Z8A6TSI                          SAT 08/09/97 13:58 Page:83

PL6.E3A0      #002=Z9EY$RECEIVE_STMT File=Z9EY.:Z8A6TSI                          SAT 08/09/97 13:58 Page:84

 Object Unit name= Z9EY$RECEIVE_STMT                          File name= Z9EY.:Z8A6TOU
 UTS= AUG 09 '97 13:58:02.52 SAT                              Compiler= PL-6/E31         Sev=      00
 SharedLib= :SHARED_SYSTEM                                    Alt SharedLib=


    ****  Control sections  ****

 Sect   Type Bound  Init  Size OctSiz  Section name(segment info)
    0  LblCom even  none     1      1  ITERATION
    1  LblCom even  none    90    132  LEX_SYMBOL
    2  LblCom even  none     1      1  CURRENT_LEX_SYMBOL$
    3  LblCom even  none    90    132  TEMP_LEX_SYMBOL
    4  LblCom even  none    90    132  TEMP_LEX_SYMBOL2
    5  LblCom even  none     1      1  DNT$
    6  LblCom even  none     5      5  DNT_
    7  LblCom even  none     1      1  DNT_BUCKET_NUMBER
    8  LblCom even  none     1      1  DNT_OF_1$
    9  LblCom even  none     1      1  ST$
   10  LblCom even  none     5      5  ST_
   11  LblCom even  none     1      1  QLT$
   12  LblCom even  none     1      1  PREV_01_QLT$
   13  LblCom even  none     5      5  QLT_
   14  LblCom even  none     3      3  SRCH
   15  LblCom even  none     1      1  ETT$
   16  LblCom even  none     1      1  HEAD_ETT$
   17  LblCom even  none   512   1000  ETT_BUCKETS
   18  LblCom even  none     5      5  ETT_
   19  LblCom even  none     1      1  ILL$
   20  LblCom even  none     5      5  ILL_
   21  LblCom even  none     1      1  ILS$
   22  LblCom even  none     5      5  ILS_
   23  LblCom even  none     1      1  LTS$
   24  LblCom even  none     5      5  LTS_
   25  LblCom even  none     2      2  MKCN
   26  LblCom even  none     1      1  XREF$
   27  LblCom even  none     5      5  XREF_
   28  LblCom even  none     1      1  HEAP$
PL6.E3A0      #002=Z9EY$RECEIVE_STMT File=Z9EY.:Z8A6TSI                          SAT 08/09/97 13:58 Page:85
   29  LblCom even  none     8     10  TEMP_LX_NODE
   30  RoData even  UTS     10     12  Z9EY$RECEIVE_STMT
   31   Proc  even  none  1922   3602  Z9EY$RECEIVE_STMT
   32  RoData even  none    52     64  Z9EY$RECEIVE_STMT

    ****  Entry defs  ****

                              Check   Calling
                             calling  sequence
  Sect OctLoc Primary Altret sequence   type   Parms  Name
    31      0   yes            yes      Std        1  Z9EY$RECEIVE_STMT
    31   3573                  yes      Std        1  Z9EY$SEND_STMT

  ****  Entry refs  ****

         Check        Calling
        calling       sequence
Altret sequence SRef   type   Args  Name
         yes           Std      12 Z8AE$ERROR
         yes           Std       2 Z8EC$INTERNAL_STRING_REP
         yes           Std       3 Z8AH$NEW_DNT
         yes           Std       1 Z8AR$RESERVER
         yes           Std       3 Z8AF$NEW_OFF
         yes           Std       3 Z8AF$NEW_BASE
         yes           Std       2 Z8E7$MOVE
         yes           Std       1 Z8AC$MAKE_CONST
         yes           Std       2 Z8E5$MATH_PACK
         yes           Std       2 Z8ED$NEW_HEAP
         yes           Std       4 Z8AN$NEW_ILL
 yes     yes           Std       2 Z8CO$QUALIFY_VARIABLE
         yes           Std       3 Z9EN$TP_SUB_CALL
         yes           Std       1 Z8EK$BRANCH
         yes           Std       2 Z8AT$CREATE_TEMPORARY
         yes           Std       1 Z8ED$DISPOSE_ABSSYN_TREE
 yes     yes           Std       1 Z8CO$CHECK_NON_NEG_INT_TERM
 yes     yes           Std       1 Z8CO$INTEGER_CHECK
                       nStd      0 X66_AUTO_1
PL6.E3A0      #002=Z9EY$RECEIVE_STMT File=Z9EY.:Z8A6TSI                          SAT 08/09/97 13:58 Page:86
                       nStd      0 X66_ARET

  ****  Data refs  ****

  Flags:  r = read only, s = secondary
Flgs Name                             Flgs Name                             Flgs Name
     COMCOM                                O1COM                                 HIER_STK_PTR
     HIER_STK                              PAGE_FORMAT                           REP_STK_PTR
     REP_STK                          r    ILL_STEP                         r    ILS_STEP_TABLE
r    LTS_STEP                         r    DNT$_FROM_RSWNO

  ****  Segment refs  ****

  Flags:  r = read only, s = secondary
Flgs Name                             Flgs Name                             Flgs Name
     ISSID                                 NULLSID
PL6.E3A0      #002=Z9EY$RECEIVE_STMT File=Z9EY.:Z8A6TSI                          SAT 08/09/97 13:58 Page:87


      237        1        /*T***********************************************************/
      238        2        /*T*                                                         */
      239        3        /*T* Copyright (c) Bull HN Information Systems Inc., 1997    */
      240        4        /*T*                                                         */
      241        5        /*T***********************************************************/
      242        6        /*=================*/
      243        7          Z9EY$RECEIVE_STMT: PROC (ARG_LIST$);

      7 31 000000   000000 700200 xent  Z9EY$RECEIV* TSX0  ! X66_AUTO_1
        31 000001   000144 000001                    ZERO    100,1
        31 000002   003566 710000 31                 TRA     s:22269

      244        8        /*=================*/
      245        9
      246       10
      247       11        %EQU PHASE = 1;
      248       12
      249       13        %INCLUDE Z8A_DEFC;
      250       81        %INCLUDE Z8A_SUPP_MAC ;
      251     2481        %INCLUDE Z8A_COMCOM ;
      252     3131        %INCLUDE Z8E_STACKS ;
      253     5397        %INCLUDE Z8E_O1COM;
      254     6158        %INCLUDE Z8E_MACROS;
      255     6833        %INCLUDE Z8A_IO_EQUS;
      256     6956        %INCLUDE Z8E_WINDOW;
      257     9026        %INCLUDE Z8E_ILS_LIST;
      258     9110        %INCLUDE Z8A_ERR_NUMS ;
      259     9874        %INCLUDE Z8A_DNT ;
      260    10095        %INCLUDE Z8A_ST;
      261    13754        %INCLUDE Z8A_TYPES;
      262    13928        %INCLUDE Z8A_QLT;
      263    14034        %INCLUDE Z8A_SRCH ;
      264    14083        %INCLUDE Z8A_ETT ;
      265    14384        %INCLUDE Z8A_ILL ;
      266    15077        %INCLUDE Z8A_ILS ;
      267    15186        %INCLUDE Z8A_LTS ;
PL6.E3A0      #002=Z9EY$RECEIVE_STMT File=Z9EY.:Z8A6TSI                          SAT 08/09/97 13:58 Page:88
      268    17263        %INCLUDE Z8A_MKCN;
      269    17280        %INCLUDE Z8A_XREF;
      270    17352        %INCLUDE Z8E_HEAP;
      271    17408        %INCLUDE Z8E_ABSSYN;
      272    17614        %INCLUDE Z8E_STATEMNT;
      273    17683        %INCLUDE Z9E_CALL;
      274    17694
      275    17695
      276    17696    1   DCL Z8E5$MATH_PACK ENTRY(2) ;
      277    17697    1   DCL Z8ED$DISPOSE_ABSSYN_TREE ENTRY(1);
      278    17698    1   DCL Z8AF$FORME       ENTRY(4) ;
      279    17699    1   DCL Z8AF$NEW_BASE    ENTRY(3);
      280    17700    1   DCL Z8AF$NEW_OFF     ENTRY(3);
      281    17701    1   DCL Z8AC$MAKE_CONST               ENTRY(1);
      282    17702    1   DCL Z8EC$INTERNAL_STRING_REP ENTRY(2);
      283    17703    1   DCL Z8EK$BRANCH             ENTRY(1);
      284    17704    1   DCL Z8E7$MOVE      ENTRY(2) ;
      285    17705    1   DCL Z8AE$ERROR                    ENTRY(12);
      286    17706    1   DCL Z8CO$QUALIFY_VARIABLE         ENTRY(2) ALTRET;
      287    17707    1   DCL Z8CO$INTEGER_CHECK ENTRY(1) ALTRET;
      288    17708    1   DCL Z8CO$CHECK_NON_NEG_INT_TERM ENTRY(1) ALTRET;
      289    17709    1   DCL Z9EY$BUILD_RUNTIME_DESCRIPTOR ENTRY(3);
      290    17710    1   DCL Z8EY$BUILD_RUNTIME_ARGLIST    ENTRY(3);
      291    17711    1   DCL Z8AH$NEW_DNT ENTRY (3);
      292    17712    1   DCL Z8AH$SEARCH_ ENTRY (0) ;
      293    17713    1   DCL Z8AT$CREATE_TEMPORARY ENTRY(2) ;
      294    17714    1   DCL Z9EN$TP_SUB_CALL ENTRY(3);
      295    17715
      296    17716    1   DCL ARG_LIST$      PTR;
      297    17717    1   DCL DNT$_FROM_RSWNO (0:0) PTR SYMREF READONLY;
      298    17718
      299    17719        %EJECT;
PL6.E3A0      #002=Z9EY$RECEIVE_STMT File=Z9EY.:Z8A6TSI                          SAT 08/09/97 13:58 Page:89
      300    17720        /*-----------*/
      301    17721    1     DATA_CLAUSE :  PROC( DATA$,

  17721 31 000003   200036 741300       DATA_CLAUSE  STX1  ! ADV_ETT$+1,,AUTO
        31 000004   000027 710000 31                 TRA     s:17752

      302    17722    1   /*-----------*/        NO_DATA$,
      303    17723    1                          WITH_DATA$ );
      304    17724
      305    17725    2   DCL DATA$       PTR;
      306    17726    2   DCL NO_DATA$    PTR;
      307    17727    2   DCL WITH_DATA$  PTR;
      308    17728
      309    17729    2   DCL ITEM$       PTR;
      310    17730    2   DCL TEMP$       PTR;
      311    17731
      312    17732
      313    17733
      314    17734            /*------------*/
      315    17735    2         CLAUSE_CHECK :  PROC( LIST$,

  17735 31 000005   200044 741300       CLAUSE_CHECK STX1  ! TEMP$+1,,AUTO

      316    17736    2       /*------------*/        NO$,
      317    17737    2                               WITH$ );
      318    17738
      319    17739    3       DCL LIST$       PTR;
      320    17740    3       DCL NO$         PTR;
      321    17741    3       DCL WITH$       PTR;
      322    17742
      323    17743
      324    17744    3           IF LIST$ -> LX_LIST.TAIL$ -> LX_TERMINAL.SYMBOL = %RSV_WRD_NO  OR

  17744 31 000006   200045 470500                    LDP0    @LIST$,,AUTO
        31 000007   000000 471500                    LDP1    0,,PR0
        31 000010   100001 473500                    LDP3    1,,PR1
        31 000011   300003 235100                    LDA     3,,PR3
PL6.E3A0      #002=Z9EY$RECEIVE_STMT File=Z9EY.:Z8A6TSI                          SAT 08/09/97 13:58 Page:90
        31 000012   000456 115007                    CMPA    302,DL
        31 000013   000016 600000 31                 TZE     s:17746
        31 000014   000462 115007                    CMPA    306,DL
        31 000015   000022 601000 31                 TNZ     s:17748

      325    17745    3             LIST$ -> LX_LIST.TAIL$ -> LX_TERMINAL.SYMBOL = %RSV_WRD_NO_DATA THEN
      326    17746    3             NO$ = LIST$ -> LX_LIST.HEAD$;

  17746 31 000016   100004 236100                    LDQ     4,,PR1
        31 000017   200046 474500                    LDP4    @NO$,,AUTO
        31 000020   400000 756100                    STQ     0,,PR4
        31 000021   000025 710000 31                 TRA     s:17750

      327    17747    3           ELSE
      328    17748    3             WITH$ = LIST$ -> LX_LIST.HEAD$;

  17748 31 000022   100004 236100                    LDQ     4,,PR1
        31 000023   200047 474500                    LDP4    @WITH$,,AUTO
        31 000024   400000 756100                    STQ     0,,PR4

      329    17749
      330    17750    3       END CLAUSE_CHECK;

  17750 31 000025   200044 221300                    LDX1  ! TEMP$+1,,AUTO
        31 000026   000001 702211                    TSX2  ! 1,X1

      331    17751        %EJECT;
PL6.E3A0      #002=Z9EY$RECEIVE_STMT File=Z9EY.:Z8A6TSI                          SAT 08/09/97 13:58 Page:91
      332    17752    2   NO_DATA$ = ADDR(NIL);

  17752 31 000027   000000 236000 32                 LDQ     0
        31 000030   200040 470500                    LDP0    @NO_DATA$,,AUTO
        31 000031   000000 756100                    STQ     0,,PR0

      333    17753    2   WITH_DATA$ = ADDR(NIL);

  17753 31 000032   000000 236000 32                 LDQ     0
        31 000033   200041 471500                    LDP1    @WITH_DATA$,,AUTO
        31 000034   100000 756100                    STQ     0,,PR1

      334    17754
      335    17755    2   IF DATA$ ~= ADDR(NIL)    THEN

  17755 31 000035   200037 473500                    LDP3    @DATA$,,AUTO
        31 000036   300000 236100                    LDQ     0,,PR3
        31 000037   000000 116000 32                 CMPQ    0
        31 000040   000176 600000 31                 TZE     s:17805

      336    17756    2     IF DATA$ -> LX_LIST.COUNT = 1      THEN

  17756 31 000041   300000 474500                    LDP4    0,,PR3
        31 000042   400002 235100                    LDA     2,,PR4
        31 000043   000001 115007                    CMPA    1,DL
        31 000044   000056 601000 31                 TNZ     s:17767

      337    17757    3       DO;

      338    17758
      339    17759    3         ITEM$ = DATA$ -> LX_LIST.HEAD$;

  17759 31 000045   400004 236100                    LDQ     4,,PR4
        31 000046   200042 756100                    STQ     ITEM$,,AUTO

      340    17760    3         CALL CLAUSE_CHECK( ITEM$,

PL6.E3A0      #002=Z9EY$RECEIVE_STMT File=Z9EY.:Z8A6TSI                          SAT 08/09/97 13:58 Page:92
  17760 31 000047   200040 237100                    LDAQ    @NO_DATA$,,AUTO
        31 000050   200046 757100                    STAQ    @LIST$+1,,AUTO
        31 000051   200042 634500                    EPPR4   ITEM$,,AUTO
        31 000052   200045 454500                    STP4    DESCRIPTOR+1,,AUTO
        31 000053   000005 701000 31                 TSX1    CLAUSE_CHECK
        31 000054   000000 011000                    NOP     0

      341    17761    3                            NO_DATA$,
      342    17762    3                            WITH_DATA$ );
      343    17763    3       END;

  17763 31 000055   000176 710000 31                 TRA     s:17805

      344    17764    2     ELSE
      345    17765    3       DO;

      346    17766
      347    17767    3         ITEM$ = DATA$ -> LX_LIST.HEAD$;

  17767 31 000056   400004 236100                    LDQ     4,,PR4
        31 000057   200042 756100                    STQ     ITEM$,,AUTO

      348    17768    3         CALL CLAUSE_CHECK( ITEM$,

  17768 31 000060   200040 237100                    LDAQ    @NO_DATA$,,AUTO
        31 000061   200046 757100                    STAQ    @LIST$+1,,AUTO
        31 000062   200042 634500                    EPPR4   ITEM$,,AUTO
        31 000063   200045 454500                    STP4    DESCRIPTOR+1,,AUTO
        31 000064   000005 701000 31                 TSX1    CLAUSE_CHECK
        31 000065   000000 011000                    NOP     0

      349    17769    3                            NO_DATA$,
      350    17770    3                            WITH_DATA$ );
      351    17771
      352    17772    3         IF NO_DATA$ = ADDR(NIL)  THEN

  17772 31 000066   200040 470500                    LDP0    @NO_DATA$,,AUTO
PL6.E3A0      #002=Z9EY$RECEIVE_STMT File=Z9EY.:Z8A6TSI                          SAT 08/09/97 13:58 Page:93
        31 000067   000000 236100                    LDQ     0,,PR0
        31 000070   000000 116000 32                 CMPQ    0
        31 000071   000114 601000 31                 TNZ     s:17781

      353    17773    4           DO;

      354    17774    4             CALL Z8AE$ERROR( %E$MISSING_NOT_CLAUSE,

  17774 31 000072   200042 471500                    LDP1    ITEM$,,AUTO
        31 000073   100001 473500                    LDP3    1,,PR1
        31 000074   300006 634500                    EPPR4   6,,PR3
        31 000075   200136 454500                    STP4    NEW_DNT$+4,,AUTO
        31 000076   300005 635500                    EPPR5   5,,PR3
        31 000077   200135 455500                    STP5    NEW_DNT$+3,,AUTO
        31 000100   000003 236000 32                 LDQ     3
        31 000101   200134 756100                    STQ     NEW_DNT$+2,,AUTO
        31 000102   200134 630500                    EPPR0   NEW_DNT$+2,,AUTO
        31 000103   000001 631400 32                 EPPR1   1
        31 000104   000000 701000 xent               TSX1    Z8AE$ERROR
        31 000105   000000 011000                    NOP     0

      355    17775    4                              ITEM$->LX_LIST.TAIL$ -> LX_ITEM.LINE,
      356    17776    4                              ITEM$->LX_LIST.TAIL$ -> LX_ITEM.COLUMN );
      357    17777    4             NO_DATA$ = WITH_DATA$;

  17777 31 000106   200041 470500                    LDP0    @WITH_DATA$,,AUTO
        31 000107   000000 236100                    LDQ     0,,PR0
        31 000110   200040 471500                    LDP1    @NO_DATA$,,AUTO
        31 000111   100000 756100                    STQ     0,,PR1

      358    17778    4             WITH_DATA$ = ADDR(NIL);

  17778 31 000112   000000 236000 32                 LDQ     0
        31 000113   000000 756100                    STQ     0,,PR0

      359    17779    4           END;

PL6.E3A0      #002=Z9EY$RECEIVE_STMT File=Z9EY.:Z8A6TSI                          SAT 08/09/97 13:58 Page:94
      360    17780
      361    17781    3         ITEM$ = ITEM$ -> LX_ITEM.LINK;

  17781 31 000114   200042 470500                    LDP0    ITEM$,,AUTO
        31 000115   000007 236100                    LDQ     7,,PR0
        31 000116   200042 756100                    STQ     ITEM$,,AUTO

      362    17782    3         CALL CLAUSE_CHECK( ITEM$,

  17782 31 000117   200041 236100                    LDQ     @WITH_DATA$,,AUTO
        31 000120   200047 756100                    STQ     @NO$+1,,AUTO
        31 000121   200043 630500                    EPPR0   TEMP$,,AUTO
        31 000122   200046 450500                    STP0    @LIST$+1,,AUTO
        31 000123   200042 631500                    EPPR1   ITEM$,,AUTO
        31 000124   200045 451500                    STP1    DESCRIPTOR+1,,AUTO
        31 000125   000005 701000 31                 TSX1    CLAUSE_CHECK
        31 000126   000000 011000                    NOP     0

      363    17783    3                            TEMP$,
      364    17784    3                            WITH_DATA$ );
      365    17785
      366    17786    3         IF WITH_DATA$ = ADDR(NIL) THEN

  17786 31 000127   200041 470500                    LDP0    @WITH_DATA$,,AUTO
        31 000130   000000 236100                    LDQ     0,,PR0
        31 000131   000000 116000 32                 CMPQ    0
        31 000132   000152 601000 31                 TNZ     s:17794

      367    17787    4           DO;

      368    17788    4             CALL Z8AE$ERROR( %E$MISSING_WITH_CLAUSE,

  17788 31 000133   200042 471500                    LDP1    ITEM$,,AUTO
        31 000134   100001 473500                    LDP3    1,,PR1
        31 000135   300006 634500                    EPPR4   6,,PR3
        31 000136   200136 454500                    STP4    NEW_DNT$+4,,AUTO
        31 000137   300005 635500                    EPPR5   5,,PR3
PL6.E3A0      #002=Z9EY$RECEIVE_STMT File=Z9EY.:Z8A6TSI                          SAT 08/09/97 13:58 Page:95
        31 000140   200135 455500                    STP5    NEW_DNT$+3,,AUTO
        31 000141   000005 236000 32                 LDQ     5
        31 000142   200134 756100                    STQ     NEW_DNT$+2,,AUTO
        31 000143   200134 630500                    EPPR0   NEW_DNT$+2,,AUTO
        31 000144   000001 631400 32                 EPPR1   1
        31 000145   000000 701000 xent               TSX1    Z8AE$ERROR
        31 000146   000000 011000                    NOP     0

      369    17789    4                              ITEM$->LX_LIST.TAIL$ -> LX_ITEM.LINE,
      370    17790    4                              ITEM$->LX_LIST.TAIL$ -> LX_ITEM.COLUMN );
      371    17791    4             WITH_DATA$ = TEMP$;

  17791 31 000147   200043 236100                    LDQ     TEMP$,,AUTO
        31 000150   200041 470500                    LDP0    @WITH_DATA$,,AUTO
        31 000151   000000 756100                    STQ     0,,PR0

      372    17792    4           END;

      373    17793
      374    17794    4         DO WHILE( ITEM$ -> LX_ITEM.LINK ~= ADDR(NIL) );

  17794 31 000152   000172 710000 31                 TRA     s:17801

      375    17795
      376    17796    4           CALL Z8AE$ERROR( %E$MULTIPLE_ERROR_PHRASES,

  17796 31 000153   200042 470500                    LDP0    ITEM$,,AUTO
        31 000154   000001 471500                    LDP1    1,,PR0
        31 000155   100006 633500                    EPPR3   6,,PR1
        31 000156   200136 453500                    STP3    NEW_DNT$+4,,AUTO
        31 000157   100005 634500                    EPPR4   5,,PR1
        31 000160   200135 454500                    STP4    NEW_DNT$+3,,AUTO
        31 000161   000007 236000 32                 LDQ     7
        31 000162   200134 756100                    STQ     NEW_DNT$+2,,AUTO
        31 000163   200134 630500                    EPPR0   NEW_DNT$+2,,AUTO
        31 000164   000001 631400 32                 EPPR1   1
        31 000165   000000 701000 xent               TSX1    Z8AE$ERROR
PL6.E3A0      #002=Z9EY$RECEIVE_STMT File=Z9EY.:Z8A6TSI                          SAT 08/09/97 13:58 Page:96
        31 000166   000000 011000                    NOP     0

      377    17797    4                            ITEM$ -> LX_LIST.TAIL$ -> LX_ITEM.LINE,
      378    17798    4                            ITEM$ -> LX_LIST.TAIL$ -> LX_ITEM.COLUMN );
      379    17799
      380    17800    4           ITEM$ = ITEM$ -> LX_ITEM.LINK;

  17800 31 000167   200042 470500                    LDP0    ITEM$,,AUTO
        31 000170   000007 236100                    LDQ     7,,PR0
        31 000171   200042 756100                    STQ     ITEM$,,AUTO

      381    17801    4         END;

  17801 31 000172   200042 470500                    LDP0    ITEM$,,AUTO
        31 000173   000007 236100                    LDQ     7,,PR0
        31 000174   000000 116000 32                 CMPQ    0
        31 000175   000153 601000 31                 TNZ     s:17796

      382    17802
      383    17803    3       END;   /* COUNT > 1 */

      384    17804
      385    17805    2   END DATA_CLAUSE;

  17805 31 000176   200036 221300                    LDX1  ! ADV_ETT$+1,,AUTO
        31 000177   000001 702211                    TSX2  ! 1,X1

      386    17806        %EJECT;
PL6.E3A0      #002=Z9EY$RECEIVE_STMT File=Z9EY.:Z8A6TSI                          SAT 08/09/97 13:58 Page:97
      387    17807
      388    17808        /*----------------------------*/
      389    17809    1     NEW_SYMREF_FROM_TYA_TERMINAL : PROC (TERM$, ST$$, DNT$$);

  17809 31 000200   200126 741300       NEW_SYMREF_* STX1  ! AFTER_SET+1,,AUTO

      390    17810        /*----------------------------*/
      391    17811
      392    17812    2        DCL TERM$         PTR; /* To lx_terminal for tya string */
      393    17813    2        DCL ST$$          PTR; /* OUT -- to symref */
      394    17814    2        DCL NEW_DNT$      PTR;
      395    17815    2        DCL DNT$$         PTR;
      396    17816
      397    17817    2        IF TERM$ ~= ADDR(NIL) THEN

  17817 31 000201   200127 470500                    LDP0    @TERM$,,AUTO
        31 000202   000000 236100                    LDQ     0,,PR0
        31 000203   000000 116000 32                 CMPQ    0
        31 000204   000237 600000 31                 TZE     s:17827

      398    17818    3          DO;

      399    17819    3            CALL Z8EC$INTERNAL_STRING_REP (TERM$,

  17819 31 000205   200132 631500                    EPPR1   NEW_DNT$,,AUTO
        31 000206   200135 451500                    STP1    NEW_DNT$+3,,AUTO
        31 000207   200127 236100                    LDQ     @TERM$,,AUTO
        31 000210   200134 756100                    STQ     NEW_DNT$+2,,AUTO
        31 000211   200134 630500                    EPPR0   NEW_DNT$+2,,AUTO
        31 000212   000010 631400 32                 EPPR1   8
        31 000213   000000 701000 xent               TSX1    Z8EC$INTERNAL_STRING_REP
        31 000214   000000 011000                    NOP     0

      400    17820    3                                           NEW_DNT$);
      401    17821
      402    17822    3            CALL Z8AH$NEW_DNT (SUBSTR(NEW_DNT$ -> DNT.TEXT.NAME, 1),

PL6.E3A0      #002=Z9EY$RECEIVE_STMT File=Z9EY.:Z8A6TSI                          SAT 08/09/97 13:58 Page:98
  17822 31 000215   200132 470500                    LDP0    NEW_DNT$,,AUTO
        31 000216   000004 220100                    LDX0    4,,PR0
        31 000217   000004 236100                    LDQ     4,,PR0
        31 000220   000022 772000                    QRL     18
        31 000221   000002 136007                    SBLQ    2,DL
        31 000222   200134 756100                    STQ     NEW_DNT$+2,,AUTO
        31 000223   200132 631500                    EPPR1   NEW_DNT$,,AUTO
        31 000224   200137 451500                    STP1    NEW_DNT$+5,,AUTO
        31 000225   200134 633500                    EPPR3   NEW_DNT$+2,,AUTO
        31 000226   200136 453500                    STP3    NEW_DNT$+4,,AUTO
        31 000227   200132 236100                    LDQ     NEW_DNT$,,AUTO
        31 000230   000011 036000 32                 ADLQ    9
        31 000231   200135 756100                    STQ     NEW_DNT$+3,,AUTO
        31 000232   200135 630500                    EPPR0   NEW_DNT$+3,,AUTO
        31 000233   000001 631400 32                 EPPR1   1
        31 000234   000000 701000 xent               TSX1    Z8AH$NEW_DNT
        31 000235   000000 011000                    NOP     0

      403    17823    3                               NEW_DNT$ -> DNT.TEXT.LENGTH - 2,
      404    17824    3                               NEW_DNT$);
      405    17825    3          END;

  17825 31 000236   000242 710000 31                 TRA     s:17829

      406    17826    2        ELSE
      407    17827    2          NEW_DNT$ = DNT$$;

  17827 31 000237   200131 471500                    LDP1    @DNT$$,,AUTO
        31 000240   100000 236100                    LDQ     0,,PR1
        31 000241   200132 756100                    STQ     NEW_DNT$,,AUTO

      408    17828
      409    17829    2        ST$$ = COMCOM.SYMREF$;

  17829 31 000242   000436 236000 xsym               LDQ     COMCOM+286
        31 000243   200130 470500                    LDP0    @ST$$,,AUTO
        31 000244   000000 756100                    STQ     0,,PR0
PL6.E3A0      #002=Z9EY$RECEIVE_STMT File=Z9EY.:Z8A6TSI                          SAT 08/09/97 13:58 Page:99

      410    17830    3        DO WHILE ST$$ ~= ADDR(NIL);

  17830 31 000245   000260 710000 31                 TRA     s:17836

      411    17831    3          IF ST$$ -> ST.ID = %SYMREF_

  17831 31 000246   200130 470500                    LDP0    @ST$$,,AUTO
        31 000247   000000 471500                    LDP1    0,,PR0
        31 000250   100000 220100                    LDX0    0,,PR1
        31 000251   000772 100003                    CMPX0   506,DU
        31 000252   000256 601000 31                 TNZ     s:17835
        31 000253   100006 236100                    LDQ     6,,PR1
        31 000254   200132 116100                    CMPQ    NEW_DNT$,,AUTO
        31 000255   000262 600000 31                 TZE     s:17838

      412    17832    3                AND ST$$ -> SYMREF_.DNT$ = NEW_DNT$ THEN
      413    17833    3            EXIT;
      414    17834    3          ELSE
      415    17835    3            ST$$ = ST$$ -> ST.NEXT;

  17835 31 000256   100004 236100                    LDQ     4,,PR1
        31 000257   000000 756100                    STQ     0,,PR0

      416    17836    3        END;

  17836 31 000260   000000 116000 32                 CMPQ    0
        31 000261   000246 601000 31                 TNZ     s:17831

      417    17837
      418    17838    2        IF ST$$ = ADDR(NIL) THEN

  17838 31 000262   000000 236100                    LDQ     0,,PR0
        31 000263   000000 116000 32                 CMPQ    0
        31 000264   000407 601000 31                 TNZ     s:17912

      419    17839    3          DO;
PL6.E3A0      #002=Z9EY$RECEIVE_STMT File=Z9EY.:Z8A6TSI                          SAT 08/09/97 13:58 Page:100

      420    17840                 %NEW_SYMREF_ (@ST$ = ST$$,
      421    17841                               @R = %EXT_PROGRAM,
      422    17842                               @DNT$ = NEW_DNT$);

  17846 31 000265   000002 236000 10                 LDQ     ST_+2
        31 000266   000013 036007                    ADLQ    11,DL
        31 000267   000003 116000 10                 CMPQ    ST_+3
        31 000270   000301 604000 31                 TMI     s:17848

  17847 31 000271   000013 236000 32                 LDQ     11
        31 000272   200134 756100                    STQ     NEW_DNT$+2,,AUTO
        31 000273   200134 631500                    EPPR1   NEW_DNT$+2,,AUTO
        31 000274   200135 451500                    STP1    NEW_DNT$+3,,AUTO
        31 000275   200135 630500                    EPPR0   NEW_DNT$+3,,AUTO
        31 000276   000012 631400 32                 EPPR1   10
        31 000277   000000 701000 xent               TSX1    Z8AR$RESERVER
        31 000300   000000 011000                    NOP     0

  17848 31 000301   000002 236000 10                 LDQ     ST_+2
        31 000302   000022 736000                    QLS     18
        31 000303   000001 036000 10                 ADLQ    ST_+1
        31 000304   200130 470500                    LDP0    @ST$$,,AUTO
        31 000305   000000 756100                    STQ     0,,PR0

  17849 31 000306   000013 236007                    LDQ     11,DL
        31 000307   000002 056000 10                 ASQ     ST_+2

  17852 31 000310   000000 471500                    LDP1    0,,PR0
        31 000311   000772 220003                    LDX0    506,DU
        31 000312   100000 740100                    STX0    0,,PR1

  17853 31 000313   000000 471500                    LDP1    0,,PR0
        31 000314   002000 236007                    LDQ     1024,DL
        31 000315   100000 552110                    STBQ    0,'10'O,PR1

  17854 31 000316   000000 471500                    LDP1    0,,PR0
PL6.E3A0      #002=Z9EY$RECEIVE_STMT File=Z9EY.:Z8A6TSI                          SAT 08/09/97 13:58 Page:101
        31 000317   000000 236003                    LDQ     0,DU
        31 000320   100000 552104                    STBQ    0,'04'O,PR1

  17855 31 000321   000000 471500                    LDP1    0,,PR0
        31 000322   000001 235007                    LDA     1,DL
        31 000323   100010 755100                    STA     8,,PR1

  17856 31 000324   000000 471500                    LDP1    0,,PR0
        31 000325   000020 221003                    LDX1    16,DU
        31 000326   100002 741100                    STX1    2,,PR1

  17857 31 000327   000000 471500                    LDP1    0,,PR0
        31 000330   000133 722000 xsym               LXL2    COMCOM+91
        31 000331   100002 442100                    SXL2    2,,PR1

  17858 31 000332   000000 471500                    LDP1    0,,PR0
        31 000333   000000 236000 32                 LDQ     0
        31 000334   100004 756100                    STQ     4,,PR1

  17859 31 000335   000000 471500                    LDP1    0,,PR0
        31 000336   100003 450100                    STZ     3,,PR1

  17861 31 000337   000000 471500                    LDP1    0,,PR0
        31 000340   000001 236007                    LDQ     1,DL
        31 000341   100003 256100                    ORSQ    3,,PR1

  17863 31 000342   000000 471500                    LDP1    0,,PR0
        31 000343   200132 236100                    LDQ     NEW_DNT$,,AUTO
        31 000344   100006 756100                    STQ     6,,PR1

  17867 31 000345   000000 471500                    LDP1    0,,PR0
        31 000346   000000 236000 32                 LDQ     0
        31 000347   100012 756100                    STQ     10,,PR1

  17870 31 000350   000000 471500                    LDP1    0,,PR0
        31 000351   000057 236000 xsym               LDQ     O1COM+47
        31 000352   100011 756100                    STQ     9,,PR1
PL6.E3A0      #002=Z9EY$RECEIVE_STMT File=Z9EY.:Z8A6TSI                          SAT 08/09/97 13:58 Page:102

  17871 31 000353   000057 236000 xsym               LDQ     O1COM+47
        31 000354   000000 116000 32                 CMPQ    0
        31 000355   000401 600000 31                 TZE     s:17908

  17875 31 000356   000057 471400 xsym               LDP1    O1COM+47
        31 000357   100001 473500                    LDP3    1,,PR1
        31 000360   300012 236100                    LDQ     10,,PR3
        31 000361   000000 116000 32                 CMPQ    0
        31 000362   000372 601000 31                 TNZ     s:17882

  17877 31 000363   000000 236100                    LDQ     0,,PR0
        31 000364   300011 756100                    STQ     9,,PR3

  17878 31 000365   000057 471400 xsym               LDP1    O1COM+47
        31 000366   100001 473500                    LDP3    1,,PR1
        31 000367   000000 236100                    LDQ     0,,PR0
        31 000370   300012 756100                    STQ     10,,PR3

  17879 31 000371   000401 710000 31                 TRA     s:17908

  17882 31 000372   300012 474500                    LDP4    10,,PR3
        31 000373   000000 236100                    LDQ     0,,PR0
        31 000374   400012 756100                    STQ     10,,PR4

  17883 31 000375   000057 471400 xsym               LDP1    O1COM+47
        31 000376   100001 473500                    LDP3    1,,PR1
        31 000377   000000 236100                    LDQ     0,,PR0
        31 000400   300012 756100                    STQ     10,,PR3

      423    17907
      424    17908    3            O1COM.LAST_SYMREF$ -> ST.NEXT = ST$$;

  17908 31 000401   000000 236100                    LDQ     0,,PR0
        31 000402   000052 471400 xsym               LDP1    O1COM+42
        31 000403   100004 756100                    STQ     4,,PR1

PL6.E3A0      #002=Z9EY$RECEIVE_STMT File=Z9EY.:Z8A6TSI                          SAT 08/09/97 13:58 Page:103
      425    17909    3            O1COM.LAST_SYMREF$ = ST$$;

  17909 31 000404   000000 236100                    LDQ     0,,PR0
        31 000405   000052 756000 xsym               STQ     O1COM+42

      426    17910    3          END;

  17910 31 000406   000411 710000 31                 TRA     s:17914

      427    17911    2        ELSE
      428    17912    2          ST$$ -> SYMREF_.REF_COUNT = ST$$ -> SYMREF_.REF_COUNT + 1;

  17912 31 000407   000000 471500                    LDP1    0,,PR0
        31 000410   100010 054100                    AOS     8,,PR1

      429    17913
      430    17914    2   END NEW_SYMREF_FROM_TYA_TERMINAL;

  17914 31 000411   200126 221300                    LDX1  ! AFTER_SET+1,,AUTO
        31 000412   000001 702211                    TSX2  ! 1,X1

      431    17915        %EJECT;
PL6.E3A0      #002=Z9EY$RECEIVE_STMT File=Z9EY.:Z8A6TSI                          SAT 08/09/97 13:58 Page:104
      432    17916
      433    17917         /*==========*/
      434    17918    1      GET_ARG_NO: PROC (P$$, ARGNUM);

  17918 31 000413   200004 741300       GET_ARG_NO   STX1  ! @ARG_LIST$+1,,AUTO

      435    17919         /*==========*/
      436    17920
      437    17921    2    DCL P$$       PTR;
      438    17922    2    DCL ARGNUM    UBIN WORD;
      439    17923    2    DCL LTS$$     PTR;
      440    17924    2    DCL I         UBIN WORD;
      441    17925    2    DCL QUAL$     PTR;
      442    17926    2    DCL TEMP$     PTR;
      443    17927
      444    17928
      445    17929    2      QUAL$ = P$$ -> SCALAR.QLT$;

  17929 31 000414   200005 470500                    LDP0    @P$$,,AUTO
        31 000415   000000 471500                    LDP1    0,,PR0
        31 000416   100007 236100                    LDQ     7,,PR1
        31 000417   200011 756100                    STQ     QUAL$,,AUTO

      446    17930    3      DO WHILE (QUAL$ -> QLT.LEVEL_NO > 1);

  17930 31 000420   200011 473500                    LDP3    QUAL$,,AUTO
        31 000421   300000 236100                    LDQ     0,,PR3
        31 000422   000777 376007                    ANQ     511,DL
        31 000423   000002 116007                    CMPQ    2,DL
        31 000424   000435 602000 31                 TNC     s:17934

      447    17931    3          QUAL$ = QUAL$ -> QLT.FATHER;

  17931 31 000425   200011 470500                    LDP0    QUAL$,,AUTO
        31 000426   000001 236100                    LDQ     1,,PR0
        31 000427   200011 756100                    STQ     QUAL$,,AUTO

PL6.E3A0      #002=Z9EY$RECEIVE_STMT File=Z9EY.:Z8A6TSI                          SAT 08/09/97 13:58 Page:105
      448    17932    3      END;

  17932 31 000430   200011 470500                    LDP0    QUAL$,,AUTO
        31 000431   000000 236100                    LDQ     0,,PR0
        31 000432   000777 376007                    ANQ     511,DL
        31 000433   000002 116007                    CMPQ    2,DL
        31 000434   000425 603000 31                 TRC     s:17931

      449    17933
      450    17934    2      ARGNUM = 0;

  17934 31 000435   200006 470500                    LDP0    @ARGNUM,,AUTO
        31 000436   000000 450100                    STZ     0,,PR0

      451    17935    2      LTS$$ = P$$ -> SCALAR.PROC$ -> PROC_.PROC_DEF$ -> SYMDEF_.ARGLIST$;

  17935 31 000437   200005 471500                    LDP1    @P$$,,AUTO
        31 000440   100000 473500                    LDP3    0,,PR1
        31 000441   300011 474500                    LDP4    9,,PR3
        31 000442   400006 475500                    LDP5    6,,PR4
        31 000443   500005 236100                    LDQ     5,,PR5
        31 000444   200007 756100                    STQ     LTS$$,,AUTO

      452    17936
      453    17937    2      IF LTS$$ = ADDR(NIL) THEN

  17937 31 000445   000000 116000 32                 CMPQ    0
        31 000446   000451 601000 31                 TNZ     s:17940

      454    17938    2        RETURN;

  17938 31 000447   200004 221300                    LDX1  ! @ARG_LIST$+1,,AUTO
        31 000450   000001 702211                    TSX2  ! 1,X1

      455    17939
      456    17940    3      DO I = 0 TO LTS$$ -> ARGLIST.N - 2;

PL6.E3A0      #002=Z9EY$RECEIVE_STMT File=Z9EY.:Z8A6TSI                          SAT 08/09/97 13:58 Page:106
  17940 31 000451   200010 450100                    STZ     I,,AUTO
        31 000452   000472 710000 31                 TRA     s:17947+3

      457    17941
      458    17942    3        IF QUAL$ -> QLT.ST$ = LTS$$ -> ARGLIST.ARG$(I) THEN

  17942 31 000453   200011 470500                    LDP0    QUAL$,,AUTO
        31 000454   200007 471500                    LDP1    LTS$$,,AUTO
        31 000455   200010 720100                    LXL0    I,,AUTO
        31 000456   000004 236100                    LDQ     4,,PR0
        31 000457   100001 116110                    CMPQ    1,X0,PR1
        31 000460   000467 601000 31                 TNZ     s:17947

      459    17943    4          DO;

      460    17944    4            ARGNUM = I + 1;

  17944 31 000461   200006 473500                    LDP3    @ARGNUM,,AUTO
        31 000462   200010 235100                    LDA     I,,AUTO
        31 000463   000001 035007                    ADLA    1,DL
        31 000464   300000 755100                    STA     0,,PR3

      461    17945    4            RETURN;

  17945 31 000465   200004 221300                    LDX1  ! @ARG_LIST$+1,,AUTO
        31 000466   000001 702211                    TSX2  ! 1,X1

      462    17946    4          END;
      463    17947    3      END;

  17947 31 000467   200010 235100                    LDA     I,,AUTO
        31 000470   000001 035007                    ADLA    1,DL
        31 000471   200010 755100                    STA     I,,AUTO
        31 000472   200007 470500                    LDP0    LTS$$,,AUTO
        31 000473   000000 236100                    LDQ     0,,PR0
        31 000474   777777 376007                    ANQ     -1,DL
        31 000475   000002 136007                    SBLQ    2,DL
PL6.E3A0      #002=Z9EY$RECEIVE_STMT File=Z9EY.:Z8A6TSI                          SAT 08/09/97 13:58 Page:107
        31 000476   000501 604000 31                 TMI     s:17949
        31 000477   200010 116100                    CMPQ    I,,AUTO
        31 000500   000453 603000 31                 TRC     s:17942

      464    17948
      465    17949    2      RETURN;

  17949 31 000501   200004 221300                    LDX1  ! @ARG_LIST$+1,,AUTO
        31 000502   000001 702211                    TSX2  ! 1,X1

      466    17950    2    END GET_ARG_NO;
      467    17951         %EJECT;
PL6.E3A0      #002=Z9EY$RECEIVE_STMT File=Z9EY.:Z8A6TSI                          SAT 08/09/97 13:58 Page:108
      468    17952
      469    17953         /*===========*/
      470    17954    1      SET_ADDRESS: PROC (FROM$, OFFSET, TO$);

  17954 31 000503   200004 741300       SET_ADDRESS  STX1  ! @ARG_LIST$+1,,AUTO

      471    17955         /*===========*/
      472    17956
      473    17957    2    DCL FROM$     PTR;
      474    17958    2    DCL OFFSET    UBIN;
      475    17959    2    DCL TO$       PTR;
      476    17960    2    DCL OFF_ETT$  PTR;
      477    17961    2    DCL STACK_ETT$    PTR;
      478    17962    2    DCL SA_ETT$       PTR;
      479    17963    2    DCL TO_ETT$       PTR;
      480    17964
      481    17965         %DCL_AUTO_LX_ITEM (@NAME = SA_FIELD);
      482    17969         %DCL_AUTO_LX_ITEM (@NAME = OP_NODE);
      483    17973         %DCL_AUTO_LX_ITEM (@NAME = STACK_FIELD);
      484    17977         %DCL_AUTO_LX_ITEM (@NAME = DESCRIPTOR);
      485    17981         %DCL_AUTO_LX_ITEM (@NAME = ETT_ITEM);
      486    17985
      487    17986
      488    17987
      489    17988    2          STACK_ETT$ = FROM$ -> SCALAR.PROC$ -> PROC_.PSEUDO_STACK$;

  17988 31 000504   200005 470500                    LDP0    @FROM$,,AUTO
        31 000505   000000 471500                    LDP1    0,,PR0
        31 000506   100011 473500                    LDP3    9,,PR1
        31 000507   300004 236100                    LDQ     4,,PR3
        31 000510   200011 756100                    STQ     STACK_ETT$,,AUTO

      490    17989
      491    17990          /* Temporary change the types to get better codes -- LDA.. STA..*/
      492    17991    2          STACK_ETT$ -> ETT.LOP -> SCALAR.TYPE = %TYI;

  17991 31 000511   200011 471500                    LDP1    STACK_ETT$,,AUTO
PL6.E3A0      #002=Z9EY$RECEIVE_STMT File=Z9EY.:Z8A6TSI                          SAT 08/09/97 13:58 Page:109
        31 000512   100001 473500                    LDP3    1,,PR1
        31 000513   000001 220003                    LDX0    1,DU
        31 000514   300002 740100                    STX0    2,,PR3

      493    17992    2          TO$ -> SCALAR.TYPE = %TYI;

  17992 31 000515   200007 471500                    LDP1    @TO$,,AUTO
        31 000516   100000 473500                    LDP3    0,,PR1
        31 000517   300002 740100                    STX0    2,,PR3

      494    17993
      495    17994    2          CALL Z8AF$NEW_OFF (STACK_ETT$,

  17994 31 000520   200006 473500                    LDP3    @OFFSET,,AUTO
        31 000521   300000 235100                    LDA     0,,PR3
        31 000522   000002 735000                    ALS     2
        31 000523   200134 755100                    STA     NEW_DNT$+2,,AUTO
        31 000524   200010 634500                    EPPR4   OFF_ETT$,,AUTO
        31 000525   200137 454500                    STP4    NEW_DNT$+5,,AUTO
        31 000526   200134 635500                    EPPR5   NEW_DNT$+2,,AUTO
        31 000527   200136 455500                    STP5    NEW_DNT$+4,,AUTO
        31 000530   200011 636500                    EPPR6   STACK_ETT$,,AUTO
        31 000531   200135 456500                    STP6    NEW_DNT$+3,,AUTO
        31 000532   200135 630500                    EPPR0   NEW_DNT$+3,,AUTO
        31 000533   000001 631400 32                 EPPR1   1
        31 000534   000000 701000 xent               TSX1    Z8AF$NEW_OFF
        31 000535   000000 011000                    NOP     0

      496    17995    2                             OFFSET * 4,
      497    17996    2                             OFF_ETT$);
      498    17997
      499    17998    2          CALL Z8AF$NEW_BASE (TO$,

  17998 31 000536   000000 236000 32                 LDQ     0
        31 000537   200134 756100                    STQ     NEW_DNT$+2,,AUTO
        31 000540   200013 630500                    EPPR0   TO_ETT$,,AUTO
        31 000541   200137 450500                    STP0    NEW_DNT$+5,,AUTO
PL6.E3A0      #002=Z9EY$RECEIVE_STMT File=Z9EY.:Z8A6TSI                          SAT 08/09/97 13:58 Page:110
        31 000542   200134 631500                    EPPR1   NEW_DNT$+2,,AUTO
        31 000543   200136 451500                    STP1    NEW_DNT$+4,,AUTO
        31 000544   200007 236100                    LDQ     @TO$,,AUTO
        31 000545   200135 756100                    STQ     NEW_DNT$+3,,AUTO
        31 000546   200135 630500                    EPPR0   NEW_DNT$+3,,AUTO
        31 000547   000001 631400 32                 EPPR1   1
        31 000550   000000 701000 xent               TSX1    Z8AF$NEW_BASE
        31 000551   000000 011000                    NOP     0

      500    17999    2                              ADDR(NIL),
      501    18000    2                              TO_ETT$);
      502    18001
      503    18002               %INIT_LX_ETT_ITEM (@POINTER = "ADDR(STACK_FIELD)",
      504    18003                                  @TYPE    = %TYI,
      505    18004                                  @ETT$    = OFF_ETT$);

  18006 31 000552   000004 220003                    LDX0    4,DU
        31 000553   200034 740100                    STX0    STACK_FIELD,,AUTO

  18007 31 000554   000000 221003                    LDX1    0,DU
        31 000555   200034 441100                    SXL1    STACK_FIELD,,AUTO

  18008 31 000556   000001 235007                    LDA     1,DL
        31 000557   200040 755100                    STA     @NO_DATA$,,AUTO

  18009 31 000560   000000 236000 32                 LDQ     0
        31 000561   200043 756100                    STQ     TEMP$,,AUTO

  18010 31 000562   200010 236100                    LDQ     OFF_ETT$,,AUTO
        31 000563   200035 756100                    STQ     WITH_ETT$+1,,AUTO

  18011 31 000564   000000 236000 32                 LDQ     0
        31 000565   200036 756100                    STQ     ADV_ETT$+1,,AUTO

  18013 31 000566   000133 235000 xsym               LDA     COMCOM+91
        31 000567   200041 755100                    STA     @WITH_DATA$,,AUTO

PL6.E3A0      #002=Z9EY$RECEIVE_STMT File=Z9EY.:Z8A6TSI                          SAT 08/09/97 13:58 Page:111
  18014 31 000570   000134 235000 xsym               LDA     COMCOM+92
        31 000571   200042 755100                    STA     ITEM$,,AUTO

      506    18026
      507    18027               %INIT_LX_ETT_ITEM (@POINTER = "ADDR(DESCRIPTOR)",
      508    18028                                  @TYPE    = %TYI,
      509    18029                                  @ETT$    = TO_ETT$);

  18031 31 000572   200044 740100                    STX0    DESCRIPTOR,,AUTO

  18032 31 000573   200044 441100                    SXL1    DESCRIPTOR,,AUTO

  18033 31 000574   000001 235007                    LDA     1,DL
        31 000575   200050 755100                    STA     @WITH$+1,,AUTO

  18034 31 000576   200053 756100                    STQ     TEMP_LX_ETT+1,,AUTO

  18035 31 000577   200013 236100                    LDQ     TO_ETT$,,AUTO
        31 000600   200045 756100                    STQ     @LIST$,,AUTO

  18036 31 000601   000000 236000 32                 LDQ     0
        31 000602   200046 756100                    STQ     @NO$,,AUTO

  18038 31 000603   000133 235000 xsym               LDA     COMCOM+91
        31 000604   200051 755100                    STA     @WITH$+2,,AUTO

  18039 31 000605   000134 235000 xsym               LDA     COMCOM+92
        31 000606   200052 755100                    STA     @WITH$+3,,AUTO

      510    18051
      511    18052    2          CALL Z8E7$MOVE (ADDR(DESCRIPTOR),

  18052 31 000607   200044 630500                    EPPR0   DESCRIPTOR,,AUTO
        31 000610   200134 450500                    STP0    NEW_DNT$+2,,AUTO
        31 000611   200034 631500                    EPPR1   STACK_FIELD,,AUTO
        31 000612   200135 451500                    STP1    NEW_DNT$+3,,AUTO
        31 000613   200135 633500                    EPPR3   NEW_DNT$+3,,AUTO
PL6.E3A0      #002=Z9EY$RECEIVE_STMT File=Z9EY.:Z8A6TSI                          SAT 08/09/97 13:58 Page:112
        31 000614   200137 453500                    STP3    NEW_DNT$+5,,AUTO
        31 000615   200134 634500                    EPPR4   NEW_DNT$+2,,AUTO
        31 000616   200136 454500                    STP4    NEW_DNT$+4,,AUTO
        31 000617   200136 630500                    EPPR0   NEW_DNT$+4,,AUTO
        31 000620   000010 631400 32                 EPPR1   8
        31 000621   000000 701000 xent               TSX1    Z8E7$MOVE
        31 000622   000000 011000                    NOP     0

      512    18053    2                          ADDR(STACK_FIELD));
      513    18054
      514    18055          /* Check if we need to add offset into the address */
      515    18056
      516    18057    2          IF FROM$ -> SCALAR.SA ~= 0 THEN

  18057 31 000623   200005 470500                    LDP0    @FROM$,,AUTO
        31 000624   000000 471500                    LDP1    0,,PR0
        31 000625   100001 220100                    LDX0    1,,PR1
        31 000626   000740 600000 31                 TZE     s:18129

      517    18058    3            DO;

      518    18059
      519    18060    3              MKCN.CON = FROM$ -> SCALAR.SA;

  18060 31 000627   100001 236100                    LDQ     1,,PR1
        31 000630   000022 772000                    QRL     18
        31 000631   000000 756000 25                 STQ     MKCN

      520    18061
      521    18062    3              CALL Z8AC$MAKE_CONST (SA_ETT$);

  18062 31 000632   200012 631500                    EPPR1   SA_ETT$,,AUTO
        31 000633   200134 451500                    STP1    NEW_DNT$+2,,AUTO
        31 000634   200134 630500                    EPPR0   NEW_DNT$+2,,AUTO
        31 000635   000012 631400 32                 EPPR1   10
        31 000636   000000 701000 xent               TSX1    Z8AC$MAKE_CONST
        31 000637   000000 011000                    NOP     0
PL6.E3A0      #002=Z9EY$RECEIVE_STMT File=Z9EY.:Z8A6TSI                          SAT 08/09/97 13:58 Page:113

      522    18063
      523    18064               /* temporarily change the types to get correct code */
      524    18065
      525    18066    3              ADDR(STACK_FIELD) -> LX_ETT_ITEM.TYPE = %TYH;

  18066 31 000640   000007 235007                    LDA     7,DL
        31 000641   200040 755100                    STA     @NO_DATA$,,AUTO

      526    18067    3              ADDR(DESCRIPTOR) -> LX_ETT_ITEM.TYPE = %TYH;

  18067 31 000642   200050 755100                    STA     @WITH$+1,,AUTO

      527    18068    3              STACK_ETT$ -> ETT.LOP -> SCALAR.TYPE = %TYH;

  18068 31 000643   200011 470500                    LDP0    STACK_ETT$,,AUTO
        31 000644   000001 471500                    LDP1    1,,PR0
        31 000645   000007 220003                    LDX0    7,DU
        31 000646   100002 740100                    STX0    2,,PR1

      528    18069    3              TO$ -> SCALAR.TYPE = %TYH;

  18069 31 000647   200007 470500                    LDP0    @TO$,,AUTO
        31 000650   000000 471500                    LDP1    0,,PR0
        31 000651   100002 740100                    STX0    2,,PR1

      529    18070
      530    18071
      531    18072                   %INIT_LX_ETT_ITEM (@POINTER = "ADDR(SA_FIELD)",
      532    18073                                      @TYPE    = %TYI,
      533    18074                                      @ETT$    = SA_ETT$);

  18076 31 000652   000004 221003                    LDX1    4,DU
        31 000653   200014 741100                    STX1    SA_FIELD,,AUTO

  18077 31 000654   000000 222003                    LDX2    0,DU
        31 000655   200014 442100                    SXL2    SA_FIELD,,AUTO
PL6.E3A0      #002=Z9EY$RECEIVE_STMT File=Z9EY.:Z8A6TSI                          SAT 08/09/97 13:58 Page:114

  18078 31 000656   000001 236007                    LDQ     1,DL
        31 000657   200020 756100                    STQ     ARG$+1,,AUTO

  18079 31 000660   000000 236000 32                 LDQ     0
        31 000661   200023 756100                    STQ     SEND_DNT$+1,,AUTO

  18080 31 000662   200012 236100                    LDQ     SA_ETT$,,AUTO
        31 000663   200015 756100                    STQ     ID_ST$+1,,AUTO

  18081 31 000664   000000 236000 32                 LDQ     0
        31 000665   200016 756100                    STQ     CD_ST$+1,,AUTO

  18083 31 000666   000133 235000 xsym               LDA     COMCOM+91
        31 000667   200021 755100                    STA     DESC_ST$+1,,AUTO

  18084 31 000670   000134 235000 xsym               LDA     COMCOM+92
        31 000671   200022 755100                    STA     SYMREF$+1,,AUTO

      534    18096
      535    18097                   %INIT_BINARY_OP (@POINTER = "ADDR(OP_NODE)",
      536    18098                                    @ROP$    = "ADDR(SA_FIELD)",
      537    18099                                    @LOP$    = "ADDR(STACK_FIELD)",
      538    18100                                    @OP      = %OP_PLUS);

  18102 31 000672   000005 223003                    LDX3    5,DU
        31 000673   200024 743100                    STX3    OP_NODE,,AUTO

  18103 31 000674   200024 442100                    SXL2    OP_NODE,,AUTO

  18110 31 000675   000133 235000 xsym               LDA     COMCOM+91
        31 000676   200031 755100                    STA     ADV_AFTER+1,,AUTO

  18111 31 000677   000134 235000 xsym               LDA     COMCOM+92
        31 000700   200032 755100                    STA     MNE_ST$+1,,AUTO

  18112 31 000701   200014 631500                    EPPR1   SA_FIELD,,AUTO
PL6.E3A0      #002=Z9EY$RECEIVE_STMT File=Z9EY.:Z8A6TSI                          SAT 08/09/97 13:58 Page:115
        31 000702   200026 451500                    STP1    RT_ARG_LIST$+1,,AUTO

  18113 31 000703   200034 633500                    EPPR3   STACK_FIELD,,AUTO
        31 000704   200025 453500                    STP3    TEMP_ETT$+1,,AUTO

  18114 31 000705   000020 235007                    LDA     16,DL
        31 000706   200027 755100                    STA     QUAL_ERROR+1,,AUTO

  18115 31 000707   200033 756100                    STQ     SEND_NAME+1,,AUTO

      539    18118
      540    18119    3              CALL Z8E5$MATH_PACK (ADDR(OP_NODE),

  18119 31 000710   200024 634500                    EPPR4   OP_NODE,,AUTO
        31 000711   200134 454500                    STP4    NEW_DNT$+2,,AUTO
        31 000712   200054 635500                    EPPR5   ETT_ITEM,,AUTO
        31 000713   200135 455500                    STP5    NEW_DNT$+3,,AUTO
        31 000714   200135 636500                    EPPR6   NEW_DNT$+3,,AUTO
        31 000715   200137 456500                    STP6    NEW_DNT$+5,,AUTO
        31 000716   200134 637500                    EPPR7   NEW_DNT$+2,,AUTO
        31 000717   200136 457500                    STP7    NEW_DNT$+4,,AUTO
        31 000720   200136 630500                    EPPR0   NEW_DNT$+4,,AUTO
        31 000721   000010 631400 32                 EPPR1   8
        31 000722   000000 701000 xent               TSX1    Z8E5$MATH_PACK
        31 000723   000000 011000                    NOP     0

      541    18120    3                                   ADDR(ETT_ITEM));
      542    18121
      543    18122    3              CALL Z8E7$MOVE (ADDR(DESCRIPTOR),

  18122 31 000724   200044 630500                    EPPR0   DESCRIPTOR,,AUTO
        31 000725   200134 450500                    STP0    NEW_DNT$+2,,AUTO
        31 000726   200054 631500                    EPPR1   ETT_ITEM,,AUTO
        31 000727   200135 451500                    STP1    NEW_DNT$+3,,AUTO
        31 000730   200135 633500                    EPPR3   NEW_DNT$+3,,AUTO
        31 000731   200137 453500                    STP3    NEW_DNT$+5,,AUTO
        31 000732   200134 634500                    EPPR4   NEW_DNT$+2,,AUTO
PL6.E3A0      #002=Z9EY$RECEIVE_STMT File=Z9EY.:Z8A6TSI                          SAT 08/09/97 13:58 Page:116
        31 000733   200136 454500                    STP4    NEW_DNT$+4,,AUTO
        31 000734   200136 630500                    EPPR0   NEW_DNT$+4,,AUTO
        31 000735   000010 631400 32                 EPPR1   8
        31 000736   000000 701000 xent               TSX1    Z8E7$MOVE
        31 000737   000000 011000                    NOP     0

      544    18123    3                              ADDR(ETT_ITEM));
      545    18124
      546    18125    3            END;

      547    18126
      548    18127
      549    18128           /* reset the types back to as there were defined */
      550    18129    2          STACK_ETT$ -> ETT.LOP -> SCALAR.TYPE = %TYA;

  18129 31 000740   200011 470500                    LDP0    STACK_ETT$,,AUTO
        31 000741   000001 471500                    LDP1    1,,PR0
        31 000742   000010 220003                    LDX0    8,DU
        31 000743   100002 740100                    STX0    2,,PR1

      551    18130    2          TO$ -> SCALAR.TYPE = %TYA;

  18130 31 000744   200007 470500                    LDP0    @TO$,,AUTO
        31 000745   000000 471500                    LDP1    0,,PR0
        31 000746   100002 740100                    STX0    2,,PR1

      552    18131
      553    18132    2    END SET_ADDRESS;

  18132 31 000747   200004 221300                    LDX1  ! @ARG_LIST$+1,,AUTO
        31 000750   000001 702211                    TSX2  ! 1,X1

      554    18133         %EJECT;
PL6.E3A0      #002=Z9EY$RECEIVE_STMT File=Z9EY.:Z8A6TSI                          SAT 08/09/97 13:58 Page:117
      555    18134         /*============*/
      556    18135    1      RECEIVE_STMT: PROC (RECV_LIST$);

  18135 31 000751   200004 741300       RECEIVE_STMT STX1  ! @ARG_LIST$+1,,AUTO

      557    18136         /*============*/
      558    18137
      559    18138        %EQU TPE_RECV_TEXT = '.CRECV';
      560    18139        %EQU TPR_RECV_MSG_TEXT = 'C$RECM';
      561    18140        %EQU TPR_RECV_SEG_TEXT = 'C$RECS';
      562    18141        %EQU RECV_TEXT_LENGTH  = 6;
      563    18142
      564    18143
      565    18144    2   DCL KEY_WORD$          PTR;
      566    18145    2   DCL RECV_LIST$         PTR;
      567    18146    2   DCL CD_NAME$           PTR;
      568    18147    2   DCL CONST_ETT$         PTR;
      569    18148    2   DCL ARG#               UBIN WORD;
      570    18149    2   DCL ARG$               PTR;
      571    18150    2   DCL MESSAGE$           PTR;
      572    18151    2   DCL ID$                PTR;
      573    18152    2   DCL DATA$              PTR;
      574    18153    2   DCL QUAL_ERROR         BOOLEAN;
      575    18154    2   DCL CD_ST$             PTR;
      576    18155    2   DCL CD_LTS$            PTR;
      577    18156    2   DCL NO_DATA_LABEL$     PTR;
      578    18157    2   DCL END_LABEL$         PTR;
      579    18158    2   DCL ID_DESC$           PTR;
      580    18159    2   DCL RECV_NAME          CHAR (6);
      581    18160    2   DCL SYMREF$            PTR;
      582    18161    2   DCL RECV_DNT$          PTR;
      583    18162    2   DCL LX_ETT$            PTR;
      584    18163    2   DCL TEMP_ETT$          PTR;
      585    18164    2   DCL RT_ARG_LIST$       PTR;
      586    18165    2   DCL NO_DATA$           PTR;
      587    18166    2   DCL WITH_DATA$         PTR;
      588    18167
PL6.E3A0      #002=Z9EY$RECEIVE_STMT File=Z9EY.:Z8A6TSI                          SAT 08/09/97 13:58 Page:118
      589    18168
      590    18169
      591    18170    2      KEY_WORD$ = RECV_LIST$ -> LX_LIST.HEAD$;

  18170 31 000752   200005 470500                    LDP0    @RECV_LIST$,,AUTO
        31 000753   000000 471500                    LDP1    0,,PR0
        31 000754   100004 236100                    LDQ     4,,PR1
        31 000755   200006 756100                    STQ     KEY_WORD$,,AUTO

      592    18171    2      CD_NAME$ = KEY_WORD$ -> LX_ITEM.LINK;

  18171 31 000756   200006 473500                    LDP3    KEY_WORD$,,AUTO
        31 000757   300007 236100                    LDQ     7,,PR3
        31 000760   200007 756100                    STQ     CD_NAME$,,AUTO

      593    18172    2      MESSAGE$ = CD_NAME$ -> LX_ITEM.LINK;

  18172 31 000761   200007 471500                    LDP1    CD_NAME$,,AUTO
        31 000762   100007 236100                    LDQ     7,,PR1
        31 000763   200013 756100                    STQ     MESSAGE$,,AUTO

      594    18173    2      ID$ = MESSAGE$ -> LX_ITEM.LINK;

  18173 31 000764   200013 474500                    LDP4    MESSAGE$,,AUTO
        31 000765   400007 236100                    LDQ     7,,PR4
        31 000766   200014 756100                    STQ     ID$,,AUTO

      595    18174    2      DATA$ = ID$ -> LX_ITEM.LINK;

  18174 31 000767   200014 475500                    LDP5    ID$,,AUTO
        31 000770   500007 236100                    LDQ     7,,PR5
        31 000771   200015 756100                    STQ     DATA$,,AUTO

      596    18175
      597    18176    2      CALL DATA_CLAUSE( DATA$, NO_DATA$, WITH_DATA$ );

  18176 31 000772   200034 636500                    EPPR6   WITH_DATA$,,AUTO
PL6.E3A0      #002=Z9EY$RECEIVE_STMT File=Z9EY.:Z8A6TSI                          SAT 08/09/97 13:58 Page:119
        31 000773   200041 456500                    STP6    @WITH_DATA$,,AUTO
        31 000774   200033 637500                    EPPR7   NO_DATA$,,AUTO
        31 000775   200040 457500                    STP7    @NO_DATA$,,AUTO
        31 000776   200015 630500                    EPPR0   DATA$,,AUTO
        31 000777   200037 450500                    STP0    @DATA$,,AUTO
        31 001000   000003 701000 31                 TSX1    DATA_CLAUSE
        31 001001   000000 011000                    NOP     0

      598    18177
      599    18178           %STATEMENT_START_FROM_LX_TERM (@POINTER = KEY_WORD$,
      600    18179                                          @TYPE = %S_TYPE_RECEIVE);

  18187 31 001002   200006 470500                    LDP0    KEY_WORD$,,AUTO
        31 001003   000005 235100                    LDA     5,,PR0
        31 001004   000007 755000 xsym               STA     O1COM+7

  18188 31 001005   000006 235100                    LDA     6,,PR0
        31 001006   000010 755000 xsym               STA     O1COM+8

  18189 31 001007   000011 236000 xsym               LDQ     O1COM+9
        31 001010   001025 600000 31                 TZE     s:18571

  18224 31 001011   000017 236000 32                 LDQ     15
        31 001012   200134 756100                    STQ     NEW_DNT$+2,,AUTO
        31 001013   200134 631500                    EPPR1   NEW_DNT$+2,,AUTO
        31 001014   200141 451500                    STP1    NEW_DNT$+7,,AUTO
        31 001015   000020 236000 32                 LDQ     16
        31 001016   200140 756100                    STQ     NEW_DNT$+6,,AUTO
        31 001017   000022 237000 32                 LDAQ    18
        31 001020   200136 757100                    STAQ    NEW_DNT$+4,,AUTO
        31 001021   200136 630500                    EPPR0   NEW_DNT$+4,,AUTO
        31 001022   000014 631400 32                 EPPR1   12
        31 001023   000000 701000 xent               TSX1    Z8AN$NEW_ILL
        31 001024   000000 011000                    NOP     0

  18571 31 001025   000040 235007                    LDA     32,DL
        31 001026   000011 755000 xsym               STA     O1COM+9
PL6.E3A0      #002=Z9EY$RECEIVE_STMT File=Z9EY.:Z8A6TSI                          SAT 08/09/97 13:58 Page:120

  18607 31 001027   000017 236000 32                 LDQ     15
        31 001030   200134 756100                    STQ     NEW_DNT$+2,,AUTO
        31 001031   200134 630500                    EPPR0   NEW_DNT$+2,,AUTO
        31 001032   200141 450500                    STP0    NEW_DNT$+7,,AUTO
        31 001033   000020 236000 32                 LDQ     16
        31 001034   200140 756100                    STQ     NEW_DNT$+6,,AUTO
        31 001035   000022 237000 32                 LDAQ    18
        31 001036   200136 757100                    STAQ    NEW_DNT$+4,,AUTO
        31 001037   200136 630500                    EPPR0   NEW_DNT$+4,,AUTO
        31 001040   000014 631400 32                 EPPR1   12
        31 001041   000000 701000 xent               TSX1    Z8AN$NEW_ILL
        31 001042   000000 011000                    NOP     0

      601    18955
      602    18956    2      QUAL_ERROR = FALSE;

  18956 31 001043   200016 450100                    STZ     QUAL_ERROR,,AUTO

      603    18957
      604    18958    2      CALL Z8CO$QUALIFY_VARIABLE (CD_NAME$, CD_ST$)

  18958 31 001044   200017 630500                    EPPR0   CD_ST$,,AUTO
        31 001045   200135 450500                    STP0    NEW_DNT$+3,,AUTO
        31 001046   200007 631500                    EPPR1   CD_NAME$,,AUTO
        31 001047   200134 451500                    STP1    NEW_DNT$+2,,AUTO
        31 001050   200134 630500                    EPPR0   NEW_DNT$+2,,AUTO
        31 001051   000010 631400 32                 EPPR1   8
        31 001052   000000 701000 xent               TSX1    Z8CO$QUALIFY_VARIABLE
        31 001053   001055 702000 31                 TSX2    s:18961
        31 001054   001057 710000 31                 TRA     s:18968

      605    18959    2        WHENALTRETURN
      606    18960    3          DO;

      607    18961    3            QUAL_ERROR = TRUE;

PL6.E3A0      #002=Z9EY$RECEIVE_STMT File=Z9EY.:Z8A6TSI                          SAT 08/09/97 13:58 Page:121
  18961 31 001055   400000 236003                    LDQ     -131072,DU
        31 001056   200016 756100                    STQ     QUAL_ERROR,,AUTO

      608    18962    3          END;

      609    18963
      610    18964           %ADD_XREF (SYM = CD_ST$,
      611    18965                      ISN = "CD_NAME$ -> LX_LIST.HEAD$ -> LX_TERMINAL.LINE",
      612    18966                      TYPE = %XREF_UNK);

  18968 31 001057   000055 234000 xsym               SZN     COMCOM+45
        31 001060   001117 605000 31                 TPL     s:18985

  18972 31 001061   000002 236000 27                 LDQ     XREF_+2
        31 001062   000002 036007                    ADLQ    2,DL
        31 001063   000003 116000 27                 CMPQ    XREF_+3
        31 001064   001075 602000 31                 TNC     s:18974

  18973 31 001065   000024 236000 32                 LDQ     20
        31 001066   200134 756100                    STQ     NEW_DNT$+2,,AUTO
        31 001067   200134 630500                    EPPR0   NEW_DNT$+2,,AUTO
        31 001070   200135 450500                    STP0    NEW_DNT$+3,,AUTO
        31 001071   200135 630500                    EPPR0   NEW_DNT$+3,,AUTO
        31 001072   000012 631400 32                 EPPR1   10
        31 001073   000000 701000 xent               TSX1    Z8AR$RESERVER
        31 001074   000000 011000                    NOP     0

  18974 31 001075   000002 236000 27                 LDQ     XREF_+2
        31 001076   000022 736000                    QLS     18
        31 001077   000001 036000 27                 ADLQ    XREF_+1
        31 001100   000000 756000 26                 STQ     XREF$

  18975 31 001101   000002 235000 27                 LDA     XREF_+2
        31 001102   000002 035007                    ADLA    2,DL
        31 001103   000002 755000 27                 STA     XREF_+2

  18976 31 001104   000010 220003                    LDX0    8,DU
PL6.E3A0      #002=Z9EY$RECEIVE_STMT File=Z9EY.:Z8A6TSI                          SAT 08/09/97 13:58 Page:122
        31 001105   000000 470400 26                 LDP0    XREF$
        31 001106   000000 740100                    STX0    0,,PR0

  18979 31 001107   200007 470500                    LDP0    CD_NAME$,,AUTO
        31 001110   000004 471500                    LDP1    4,,PR0
        31 001111   100005 721100                    LXL1    5,,PR1
        31 001112   000000 473400 26                 LDP3    XREF$
        31 001113   300000 441100                    SXL1    0,,PR3

  18980 31 001114   200017 236100                    LDQ     CD_ST$,,AUTO
        31 001115   000000 470400 26                 LDP0    XREF$
        31 001116   000001 756100                    STQ     1,,PR0

      613    18984
      614    18985    2      IF QUAL_ERROR THEN

  18985 31 001117   200016 234100                    SZN     QUAL_ERROR,,AUTO
        31 001120   001724 604000 31                 TMI     ERROR_STEP

      615    18986    2        GOTO ERROR_STEP;
      616    18987
      617    18988    2      CD_LTS$ = ADDR(NIL);

  18988 31 001121   000000 236000 32                 LDQ     0
        31 001122   200020 756100                    STQ     CD_LTS$,,AUTO

      618    18989    2      IF CD_ST$ -> SCALAR.ID = %SCALAR THEN

  18989 31 001123   200017 470500                    LDP0    CD_ST$,,AUTO
        31 001124   000000 220100                    LDX0    0,,PR0
        31 001125   000766 100003                    CMPX0   502,DU
        31 001126   001153 601000 31                 TNZ     s:19035

      619    18990             %GET_LTS (@ID      = %CD_LTS,
      620    18991                       @ST$     = CD_ST$,
      621    18992                       @RETURN$ = CD_LTS$);

PL6.E3A0      #002=Z9EY$RECEIVE_STMT File=Z9EY.:Z8A6TSI                          SAT 08/09/97 13:58 Page:123
  18994 31 001127   000005 236100                    LDQ     5,,PR0
        31 001130   000000 116000 32                 CMPQ    0
        31 001131   001141 600000 31                 TZE     s:19028
        31 001132   000005 471500                    LDP1    5,,PR0
        31 001133   100000 221100                    LDX1    0,,PR1
        31 001134   001105 101003                    CMPX1   581,DU
        31 001135   001141 601000 31                 TNZ     s:19028

  19020 31 001136   100007 236100                    LDQ     7,,PR1
        31 001137   200020 756100                    STQ     CD_LTS$,,AUTO

  19026 31 001140   001153 710000 31                 TRA     s:19035

  19028 31 001141   000000 116000 32                 CMPQ    0
        31 001142   001151 600000 31                 TZE     s:19032
        31 001143   000005 471500                    LDP1    5,,PR0
        31 001144   100000 221100                    LDX1    0,,PR1
        31 001145   001072 101003                    CMPX1   570,DU
        31 001146   001151 601000 31                 TNZ     s:19032

  19030 31 001147   200020 756100                    STQ     CD_LTS$,,AUTO
        31 001150   001153 710000 31                 TRA     s:19035

  19032 31 001151   000000 236000 32                 LDQ     0
        31 001152   200020 756100                    STQ     CD_LTS$,,AUTO

      622    19035    2      IF CD_LTS$ = ADDR(NIL) OR

  19035 31 001153   000000 116000 32                 CMPQ    0
        31 001154   001161 600000 31                 TZE     s:19038
        31 001155   200020 471500                    LDP1    CD_LTS$,,AUTO
        31 001156   100006 235100                    LDA     6,,PR1
        31 001157   000035 115007                    CMPA    29,DL
        31 001160   001200 601000 31                 TNZ     s:19047

      623    19036    2         CD_LTS$ -> CD_LTS.LX_CD_TYPE = %LX_CD_OUTPUT THEN
      624    19037    3        DO;
PL6.E3A0      #002=Z9EY$RECEIVE_STMT File=Z9EY.:Z8A6TSI                          SAT 08/09/97 13:58 Page:124

      625    19038    3          CALL Z8AE$ERROR (%E$MUST_BE_CD_I_O,

  19038 31 001161   200007 471500                    LDP1    CD_NAME$,,AUTO
        31 001162   100004 473500                    LDP3    4,,PR1
        31 001163   000026 236000 32                 LDQ     22
        31 001164   200137 756100                    STQ     NEW_DNT$+5,,AUTO
        31 001165   300006 634500                    EPPR4   6,,PR3
        31 001166   200136 454500                    STP4    NEW_DNT$+4,,AUTO
        31 001167   300005 635500                    EPPR5   5,,PR3
        31 001170   200135 455500                    STP5    NEW_DNT$+3,,AUTO
        31 001171   000027 236000 32                 LDQ     23
        31 001172   200134 756100                    STQ     NEW_DNT$+2,,AUTO
        31 001173   200134 630500                    EPPR0   NEW_DNT$+2,,AUTO
        31 001174   000014 631400 32                 EPPR1   12
        31 001175   000000 701000 xent               TSX1    Z8AE$ERROR
        31 001176   000000 011000                    NOP     0

      626    19039    3                           CD_NAME$ -> LX_LIST.HEAD$ -> LX_TERMINAL.LINE,
      627    19040    3                           CD_NAME$ -> LX_LIST.HEAD$ -> LX_TERMINAL.COLUMN,
      628    19041    3                           DNT$_FROM_RSWNO(%RSV_WRD_INPUT));
      629    19042    3          GOTO ERROR_STEP;

  19042 31 001177   001724 710000 31                 TRA     ERROR_STEP

      630    19043    3        END;
      631    19044
      632    19045               /* create USER_CALL ROP item */
      633    19046
      634    19047    2      IF O1COM.TPE_INTERFACE = TRUE THEN

  19047 31 001200   000117 236000 xsym               LDQ     O1COM+79
        31 001201   200000 316003                    CANQ    65536,DU
        31 001202   001207 600000 31                 TZE     s:19050

      635    19048    2        RECV_NAME = %TPE_RECV_TEXT;

PL6.E3A0      #002=Z9EY$RECEIVE_STMT File=Z9EY.:Z8A6TSI                          SAT 08/09/97 13:58 Page:125
  19048 31 001203   040100 100400                    MLR     fill='040'O
        31 001204   000000 000006 30                 ADSC9   0                        cn=0,n=6
        31 001205   200024 000006                    ADSC9   RECV_NAME,,AUTO          cn=0,n=6
        31 001206   001222 710000 31                 TRA     s:19055

      636    19049    2      ELSE
      637    19050    2        IF MESSAGE$ -> LX_TERMINAL.SYMBOL = %RSV_WRD_MESSAGE THEN

  19050 31 001207   200013 473500                    LDP3    MESSAGE$,,AUTO
        31 001210   300003 235100                    LDA     3,,PR3
        31 001211   000442 115007                    CMPA    290,DL
        31 001212   001217 601000 31                 TNZ     s:19053

      638    19051    2          RECV_NAME = %TPR_RECV_MSG_TEXT;

  19051 31 001213   040100 100400                    MLR     fill='040'O
        31 001214   000002 000006 30                 ADSC9   2                        cn=0,n=6
        31 001215   200024 000006                    ADSC9   RECV_NAME,,AUTO          cn=0,n=6
        31 001216   001222 710000 31                 TRA     s:19055

      639    19052    2        ELSE
      640    19053    2          RECV_NAME = %TPR_RECV_SEG_TEXT;

  19053 31 001217   040100 100400                    MLR     fill='040'O
        31 001220   000004 000006 30                 ADSC9   4                        cn=0,n=6
        31 001221   200024 000006                    ADSC9   RECV_NAME,,AUTO          cn=0,n=6

      641    19054
      642    19055    2      CALL Z8AH$NEW_DNT (RECV_NAME,

  19055 31 001222   200027 633500                    EPPR3   RECV_DNT$,,AUTO
        31 001223   200136 453500                    STP3    NEW_DNT$+4,,AUTO
        31 001224   000031 236000 32                 LDQ     25
        31 001225   200135 756100                    STQ     NEW_DNT$+3,,AUTO
        31 001226   200024 634500                    EPPR4   RECV_NAME,,AUTO
        31 001227   200134 454500                    STP4    NEW_DNT$+2,,AUTO
        31 001230   200134 630500                    EPPR0   NEW_DNT$+2,,AUTO
PL6.E3A0      #002=Z9EY$RECEIVE_STMT File=Z9EY.:Z8A6TSI                          SAT 08/09/97 13:58 Page:126
        31 001231   000001 631400 32                 EPPR1   1
        31 001232   000000 701000 xent               TSX1    Z8AH$NEW_DNT
        31 001233   000000 011000                    NOP     0

      643    19056    2                         %RECV_TEXT_LENGTH,
      644    19057    2                         RECV_DNT$);
      645    19058
      646    19059    2      CALL NEW_SYMREF_FROM_TYA_TERMINAL (ADDR(NIL),

  19059 31 001234   000000 236000 32                 LDQ     0
        31 001235   200142 756100                    STQ     NEW_DNT$+8,,AUTO
        31 001236   200027 630500                    EPPR0   RECV_DNT$,,AUTO
        31 001237   200131 450500                    STP0    @DNT$$,,AUTO
        31 001240   200026 631500                    EPPR1   SYMREF$,,AUTO
        31 001241   200130 451500                    STP1    @ST$$,,AUTO
        31 001242   200142 633500                    EPPR3   NEW_DNT$+8,,AUTO
        31 001243   200127 453500                    STP3    @TERM$,,AUTO
        31 001244   000200 701000 31                 TSX1    NEW_SYMREF_FROM_TYA_TERMINAL
        31 001245   000000 011000                    NOP     0

      647    19060    2                                         SYMREF$,
      648    19061    2                                         RECV_DNT$);
      649    19062
      650    19063           /*   create argument CD-NAME address */
      651    19064
      652    19065           %NEW_HEAP (@POINTER = LX_ETT$);

  19067 31 001246   000033 236000 32                 LDQ     27
        31 001247   200135 756100                    STQ     NEW_DNT$+3,,AUTO
        31 001250   200030 630500                    EPPR0   LX_ETT$,,AUTO
        31 001251   200134 450500                    STP0    NEW_DNT$+2,,AUTO
        31 001252   200134 630500                    EPPR0   NEW_DNT$+2,,AUTO
        31 001253   000010 631400 32                 EPPR1   8
        31 001254   000000 701000 xent               TSX1    Z8ED$NEW_HEAP
        31 001255   000000 011000                    NOP     0

      653    19070
PL6.E3A0      #002=Z9EY$RECEIVE_STMT File=Z9EY.:Z8A6TSI                          SAT 08/09/97 13:58 Page:127
      654    19071           %INIT_LX_ETT_ITEM (@POINTER = LX_ETT$,
      655    19072                              @TYPE    = %TYA,
      656    19073                              @LINE    = KEY_WORD$ -> LX_TERMINAL.LINE,
      657    19074                              @COLUMN  = KEY_WORD$ -> LX_TERMINAL.COLUMN);

  19076 31 001256   000004 220003                    LDX0    4,DU
        31 001257   200030 470500                    LDP0    LX_ETT$,,AUTO
        31 001260   000000 740100                    STX0    0,,PR0

  19077 31 001261   000000 221003                    LDX1    0,DU
        31 001262   200030 470500                    LDP0    LX_ETT$,,AUTO
        31 001263   000000 441100                    SXL1    0,,PR0

  19078 31 001264   000010 235007                    LDA     8,DL
        31 001265   200030 470500                    LDP0    LX_ETT$,,AUTO
        31 001266   000004 755100                    STA     4,,PR0

  19079 31 001267   000000 236000 32                 LDQ     0
        31 001270   200030 470500                    LDP0    LX_ETT$,,AUTO
        31 001271   000007 756100                    STQ     7,,PR0

  19080 31 001272   200030 470500                    LDP0    LX_ETT$,,AUTO
        31 001273   000001 756100                    STQ     1,,PR0

  19081 31 001274   200030 470500                    LDP0    LX_ETT$,,AUTO
        31 001275   000002 756100                    STQ     2,,PR0

  19083 31 001276   200006 470500                    LDP0    KEY_WORD$,,AUTO
        31 001277   200030 471500                    LDP1    LX_ETT$,,AUTO
        31 001300   000005 235100                    LDA     5,,PR0
        31 001301   100005 755100                    STA     5,,PR1

  19084 31 001302   200030 471500                    LDP1    LX_ETT$,,AUTO
        31 001303   000006 235100                    LDA     6,,PR0
        31 001304   100006 755100                    STA     6,,PR1

      658    19096
PL6.E3A0      #002=Z9EY$RECEIVE_STMT File=Z9EY.:Z8A6TSI                          SAT 08/09/97 13:58 Page:128
      659    19097    2      CALL Z8AF$NEW_BASE (CD_ST$,

  19097 31 001305   200134 756100                    STQ     NEW_DNT$+2,,AUTO
        31 001306   200030 236100                    LDQ     LX_ETT$,,AUTO
        31 001307   000001 036003                    ADLQ    1,DU
        31 001310   200137 756100                    STQ     NEW_DNT$+5,,AUTO
        31 001311   200134 631500                    EPPR1   NEW_DNT$+2,,AUTO
        31 001312   200136 451500                    STP1    NEW_DNT$+4,,AUTO
        31 001313   200017 633500                    EPPR3   CD_ST$,,AUTO
        31 001314   200135 453500                    STP3    NEW_DNT$+3,,AUTO
        31 001315   200135 630500                    EPPR0   NEW_DNT$+3,,AUTO
        31 001316   000001 631400 32                 EPPR1   1
        31 001317   000000 701000 xent               TSX1    Z8AF$NEW_BASE
        31 001320   000000 011000                    NOP     0

      660    19098    2                          ADDR(NIL),
      661    19099    2                          LX_ETT$ -> LX_ETT_ITEM.ETT$);
      662    19100
      663    19101           /* create argument ID descriptor */
      664    19102
      665    19103           %NEW_HEAP (@POINTER = TEMP_ETT$);

  19105 31 001321   000033 236000 32                 LDQ     27
        31 001322   200135 756100                    STQ     NEW_DNT$+3,,AUTO
        31 001323   200031 630500                    EPPR0   TEMP_ETT$,,AUTO
        31 001324   200134 450500                    STP0    NEW_DNT$+2,,AUTO
        31 001325   200134 630500                    EPPR0   NEW_DNT$+2,,AUTO
        31 001326   000010 631400 32                 EPPR1   8
        31 001327   000000 701000 xent               TSX1    Z8ED$NEW_HEAP
        31 001330   000000 011000                    NOP     0

      666    19108
      667    19109           %INIT_LX_ETT_ITEM (@POINTER = TEMP_ETT$,
      668    19110                              @TYPE    = %TYA,
      669    19111                              @LINE    = KEY_WORD$ -> LX_TERMINAL.LINE,
      670    19112                              @COLUMN  = KEY_WORD$ -> LX_TERMINAL.COLUMN);

PL6.E3A0      #002=Z9EY$RECEIVE_STMT File=Z9EY.:Z8A6TSI                          SAT 08/09/97 13:58 Page:129
  19114 31 001331   000004 220003                    LDX0    4,DU
        31 001332   200031 470500                    LDP0    TEMP_ETT$,,AUTO
        31 001333   000000 740100                    STX0    0,,PR0

  19115 31 001334   000000 221003                    LDX1    0,DU
        31 001335   200031 470500                    LDP0    TEMP_ETT$,,AUTO
        31 001336   000000 441100                    SXL1    0,,PR0

  19116 31 001337   000010 235007                    LDA     8,DL
        31 001340   200031 470500                    LDP0    TEMP_ETT$,,AUTO
        31 001341   000004 755100                    STA     4,,PR0

  19117 31 001342   000000 236000 32                 LDQ     0
        31 001343   200031 470500                    LDP0    TEMP_ETT$,,AUTO
        31 001344   000007 756100                    STQ     7,,PR0

  19118 31 001345   200031 470500                    LDP0    TEMP_ETT$,,AUTO
        31 001346   000001 756100                    STQ     1,,PR0

  19119 31 001347   200031 470500                    LDP0    TEMP_ETT$,,AUTO
        31 001350   000002 756100                    STQ     2,,PR0

  19121 31 001351   200006 470500                    LDP0    KEY_WORD$,,AUTO
        31 001352   200031 471500                    LDP1    TEMP_ETT$,,AUTO
        31 001353   000005 235100                    LDA     5,,PR0
        31 001354   100005 755100                    STA     5,,PR1

  19122 31 001355   200031 471500                    LDP1    TEMP_ETT$,,AUTO
        31 001356   000006 235100                    LDA     6,,PR0
        31 001357   100006 755100                    STA     6,,PR1

      671    19134
      672    19135    2      TEMP_ETT$ -> LX_ETT_ITEM.ETT$ = ID$ -> LX_ETT_ITEM.ETT$;

  19135 31 001360   200014 471500                    LDP1    ID$,,AUTO
        31 001361   100001 236100                    LDQ     1,,PR1
        31 001362   200031 473500                    LDP3    TEMP_ETT$,,AUTO
PL6.E3A0      #002=Z9EY$RECEIVE_STMT File=Z9EY.:Z8A6TSI                          SAT 08/09/97 13:58 Page:130
        31 001363   300001 756100                    STQ     1,,PR3

      673    19136
      674    19137    2      LX_ETT$ -> LX_ETT_ITEM.LINK = TEMP_ETT$;

  19137 31 001364   200031 236100                    LDQ     TEMP_ETT$,,AUTO
        31 001365   200030 473500                    LDP3    LX_ETT$,,AUTO
        31 001366   300007 756100                    STQ     7,,PR3

      675    19138
      676    19139           /* create argument NO DATA transfer address */
      677    19140
      678    19141           %NEW_HEAP (@POINTER = TEMP_ETT$ -> LX_ETT_ITEM.LINK);

  19143 31 001367   000033 236000 32                 LDQ     27
        31 001370   200135 756100                    STQ     NEW_DNT$+3,,AUTO
        31 001371   200031 236100                    LDQ     TEMP_ETT$,,AUTO
        31 001372   000007 036003                    ADLQ    7,DU
        31 001373   200134 756100                    STQ     NEW_DNT$+2,,AUTO
        31 001374   200134 630500                    EPPR0   NEW_DNT$+2,,AUTO
        31 001375   000010 631400 32                 EPPR1   8
        31 001376   000000 701000 xent               TSX1    Z8ED$NEW_HEAP
        31 001377   000000 011000                    NOP     0

      679    19146    2      TEMP_ETT$ = TEMP_ETT$ -> LX_ETT_ITEM.LINK;

  19146 31 001400   200031 470500                    LDP0    TEMP_ETT$,,AUTO
        31 001401   000007 236100                    LDQ     7,,PR0
        31 001402   200031 756100                    STQ     TEMP_ETT$,,AUTO

      680    19147
      681    19148           %INIT_LX_ETT_ITEM (@POINTER = TEMP_ETT$,
      682    19149                              @TYPE    = %TYA,
      683    19150                              @LINE    = KEY_WORD$ -> LX_TERMINAL.LINE,
      684    19151                              @COLUMN  = KEY_WORD$ -> LX_TERMINAL.COLUMN);

  19153 31 001403   000004 220003                    LDX0    4,DU
PL6.E3A0      #002=Z9EY$RECEIVE_STMT File=Z9EY.:Z8A6TSI                          SAT 08/09/97 13:58 Page:131
        31 001404   200031 470500                    LDP0    TEMP_ETT$,,AUTO
        31 001405   000000 740100                    STX0    0,,PR0

  19154 31 001406   000000 221003                    LDX1    0,DU
        31 001407   200031 470500                    LDP0    TEMP_ETT$,,AUTO
        31 001410   000000 441100                    SXL1    0,,PR0

  19155 31 001411   000010 235007                    LDA     8,DL
        31 001412   200031 470500                    LDP0    TEMP_ETT$,,AUTO
        31 001413   000004 755100                    STA     4,,PR0

  19156 31 001414   000000 236000 32                 LDQ     0
        31 001415   200031 470500                    LDP0    TEMP_ETT$,,AUTO
        31 001416   000007 756100                    STQ     7,,PR0

  19157 31 001417   200031 470500                    LDP0    TEMP_ETT$,,AUTO
        31 001420   000001 756100                    STQ     1,,PR0

  19158 31 001421   200031 470500                    LDP0    TEMP_ETT$,,AUTO
        31 001422   000002 756100                    STQ     2,,PR0

  19160 31 001423   200006 470500                    LDP0    KEY_WORD$,,AUTO
        31 001424   200031 471500                    LDP1    TEMP_ETT$,,AUTO
        31 001425   000005 235100                    LDA     5,,PR0
        31 001426   100005 755100                    STA     5,,PR1

  19161 31 001427   200031 471500                    LDP1    TEMP_ETT$,,AUTO
        31 001430   000006 235100                    LDA     6,,PR0
        31 001431   100006 755100                    STA     6,,PR1

      685    19173
      686    19174    2      CALL Z8AT$CREATE_TEMPORARY ( %SCALAR, ARG$);

  19174 31 001432   200012 631500                    EPPR1   ARG$,,AUTO
        31 001433   200135 451500                    STP1    NEW_DNT$+3,,AUTO
        31 001434   000035 236000 32                 LDQ     29
        31 001435   200134 756100                    STQ     NEW_DNT$+2,,AUTO
PL6.E3A0      #002=Z9EY$RECEIVE_STMT File=Z9EY.:Z8A6TSI                          SAT 08/09/97 13:58 Page:132
        31 001436   200134 630500                    EPPR0   NEW_DNT$+2,,AUTO
        31 001437   000010 631400 32                 EPPR1   8
        31 001440   000000 701000 xent               TSX1    Z8AT$CREATE_TEMPORARY
        31 001441   000000 011000                    NOP     0

      687    19175
      688    19176    2      ARG$ -> VARIABLE.TYPE = %TYA;

  19176 31 001442   000010 220003                    LDX0    8,DU
        31 001443   200012 470500                    LDP0    ARG$,,AUTO
        31 001444   000002 740100                    STX0    2,,PR0

      689    19177    2      ARG$ -> VARIABLE.ADSC.N = 4;

  19177 31 001445   200012 470500                    LDP0    ARG$,,AUTO
        31 001446   000004 236007                    LDQ     4,DL
        31 001447   000001 752103                    STCQ    1,'03'O,PR0

      690    19178    2      ARG$ -> VARIABLE.B.CLASS = %CLASS_ALPHANUMERIC;

  19178 31 001450   200012 470500                    LDP0    ARG$,,AUTO
        31 001451   000003 236100                    LDQ     3,,PR0
        31 001452   000036 376000 32                 ANQ     30
        31 001453   000003 276007                    ORQ     3,DL
        31 001454   000003 756100                    STQ     3,,PR0

      691    19179
      692    19180    2      IF NO_DATA$ = ADDR(NIL) THEN

  19180 31 001455   200033 236100                    LDQ     NO_DATA$,,AUTO
        31 001456   000000 116000 32                 CMPQ    0
        31 001457   001506 601000 31                 TNZ     s:19566

      693    19181    3        DO;

      694    19182               %NEW_ILL (@ID  = %PRESET,
      695    19183                         @LOP = ARG$,
PL6.E3A0      #002=Z9EY$RECEIVE_STMT File=Z9EY.:Z8A6TSI                          SAT 08/09/97 13:58 Page:133
      696    19184                         @ROP = COMCOM.VALUE_0 -> ETT.LOP);

  19404 31 001460   000017 236000 32                 LDQ     15
        31 001461   200134 756100                    STQ     NEW_DNT$+2,,AUTO
        31 001462   200134 630500                    EPPR0   NEW_DNT$+2,,AUTO
        31 001463   200141 450500                    STP0    NEW_DNT$+7,,AUTO
        31 001464   000020 236000 32                 LDQ     16
        31 001465   200140 756100                    STQ     NEW_DNT$+6,,AUTO
        31 001466   000040 237000 32                 LDAQ    32
        31 001467   200136 757100                    STAQ    NEW_DNT$+4,,AUTO
        31 001470   200136 630500                    EPPR0   NEW_DNT$+4,,AUTO
        31 001471   000014 631400 32                 EPPR1   12
        31 001472   000000 701000 xent               TSX1    Z8AN$NEW_ILL
        31 001473   000000 011000                    NOP     0

  19406 31 001474   000000 220003                    LDX0    0,DU
        31 001475   000000 470400 19                 LDP0    ILL$
        31 001476   000000 440100                    SXL0    0,,PR0

  19410 31 001477   200012 236100                    LDQ     ARG$,,AUTO
        31 001500   000000 470400 19                 LDP0    ILL$
        31 001501   000001 756100                    STQ     1,,PR0

  19411 31 001502   000124 471400 xsym               LDP1    COMCOM+84
        31 001503   100001 236100                    LDQ     1,,PR1
        31 001504   000002 756100                    STQ     2,,PR0

      697    19563    3        END;

  19563 31 001505   001545 710000 31                 TRA     s:19953

      698    19564    2      ELSE
      699    19565    3        DO;

      700    19566    3          CALL Z8AT$CREATE_TEMPORARY (%PARA, NO_DATA_LABEL$);

  19566 31 001506   200021 630500                    EPPR0   NO_DATA_LABEL$,,AUTO
PL6.E3A0      #002=Z9EY$RECEIVE_STMT File=Z9EY.:Z8A6TSI                          SAT 08/09/97 13:58 Page:134
        31 001507   200135 450500                    STP0    NEW_DNT$+3,,AUTO
        31 001510   000043 236000 32                 LDQ     35
        31 001511   200134 756100                    STQ     NEW_DNT$+2,,AUTO
        31 001512   200134 630500                    EPPR0   NEW_DNT$+2,,AUTO
        31 001513   000010 631400 32                 EPPR1   8
        31 001514   000000 701000 xent               TSX1    Z8AT$CREATE_TEMPORARY
        31 001515   000000 011000                    NOP     0

      701    19567    3          NO_DATA_LABEL$ -> PARA.B.REFERENCED = TRUE;

  19567 31 001516   200021 470500                    LDP0    NO_DATA_LABEL$,,AUTO
        31 001517   400000 236003                    LDQ     -131072,DU
        31 001520   000003 256100                    ORSQ    3,,PR0

      702    19568
      703    19569               %NEW_ILL (@ID  = %PTR_SET,
      704    19570                         @LOP = ARG$,
      705    19571                         @ROP = NO_DATA_LABEL$,
      706    19572                         @OFFSET = 0);

  19792 31 001521   000017 236000 32                 LDQ     15
        31 001522   200134 756100                    STQ     NEW_DNT$+2,,AUTO
        31 001523   200134 630500                    EPPR0   NEW_DNT$+2,,AUTO
        31 001524   200141 450500                    STP0    NEW_DNT$+7,,AUTO
        31 001525   000020 236000 32                 LDQ     16
        31 001526   200140 756100                    STQ     NEW_DNT$+6,,AUTO
        31 001527   000046 237000 32                 LDAQ    38
        31 001530   200136 757100                    STAQ    NEW_DNT$+4,,AUTO
        31 001531   200136 630500                    EPPR0   NEW_DNT$+4,,AUTO
        31 001532   000014 631400 32                 EPPR1   12
        31 001533   000000 701000 xent               TSX1    Z8AN$NEW_ILL
        31 001534   000000 011000                    NOP     0

  19796 31 001535   000000 220003                    LDX0    0,DU
        31 001536   000000 470400 19                 LDP0    ILL$
        31 001537   000000 440100                    SXL0    0,,PR0

PL6.E3A0      #002=Z9EY$RECEIVE_STMT File=Z9EY.:Z8A6TSI                          SAT 08/09/97 13:58 Page:135
  19798 31 001540   200012 236100                    LDQ     ARG$,,AUTO
        31 001541   000000 470400 19                 LDP0    ILL$
        31 001542   000001 756100                    STQ     1,,PR0

  19799 31 001543   200021 236100                    LDQ     NO_DATA_LABEL$,,AUTO
        31 001544   000002 756100                    STQ     2,,PR0

      707    19951    3        END;

      708    19952
      709    19953    2      CALL Z8AF$NEW_BASE (ARG$,

  19953 31 001545   000000 236000 32                 LDQ     0
        31 001546   200134 756100                    STQ     NEW_DNT$+2,,AUTO
        31 001547   200031 236100                    LDQ     TEMP_ETT$,,AUTO
        31 001550   000001 036003                    ADLQ    1,DU
        31 001551   200137 756100                    STQ     NEW_DNT$+5,,AUTO
        31 001552   200134 631500                    EPPR1   NEW_DNT$+2,,AUTO
        31 001553   200136 451500                    STP1    NEW_DNT$+4,,AUTO
        31 001554   200012 633500                    EPPR3   ARG$,,AUTO
        31 001555   200135 453500                    STP3    NEW_DNT$+3,,AUTO
        31 001556   200135 630500                    EPPR0   NEW_DNT$+3,,AUTO
        31 001557   000001 631400 32                 EPPR1   1
        31 001560   000000 701000 xent               TSX1    Z8AF$NEW_BASE
        31 001561   000000 011000                    NOP     0

      710    19954    2                          ADDR(NIL),
      711    19955    2                          TEMP_ETT$ -> LX_ETT_ITEM.ETT$);
      712    19956
      713    19957           /* Build the TP interface subroutine call */
      714    19958
      715    19959    2      CALL Z9EN$TP_SUB_CALL (LX_ETT$, SYMREF$, 3);

  19959 31 001562   000050 236000 32                 LDQ     40
        31 001563   200136 756100                    STQ     NEW_DNT$+4,,AUTO
        31 001564   200026 630500                    EPPR0   SYMREF$,,AUTO
        31 001565   200135 450500                    STP0    NEW_DNT$+3,,AUTO
PL6.E3A0      #002=Z9EY$RECEIVE_STMT File=Z9EY.:Z8A6TSI                          SAT 08/09/97 13:58 Page:136
        31 001566   200030 631500                    EPPR1   LX_ETT$,,AUTO
        31 001567   200134 451500                    STP1    NEW_DNT$+2,,AUTO
        31 001570   200134 630500                    EPPR0   NEW_DNT$+2,,AUTO
        31 001571   000001 631400 32                 EPPR1   1
        31 001572   000000 701000 xent               TSX1    Z9EN$TP_SUB_CALL
        31 001573   000000 011000                    NOP     0

      716    19960
      717    19961    2      IF WITH_DATA$ ~= ADDR(NIL) THEN

  19961 31 001574   200034 236100                    LDQ     WITH_DATA$,,AUTO
        31 001575   000000 116000 32                 CMPQ    0
        31 001576   001617 600000 31                 TZE     s:19983

      718    19962    3        DO;

      719    19963               %APPEND_ILS_LIST( @FROM$ = WITH_DATA$,
      720    19964                                 @TO$ = "ADDR(O1COM.ILS_LIST)" );

  19970 31 001577   200034 470500                    LDP0    WITH_DATA$,,AUTO
        31 001600   000001 236100                    LDQ     1,,PR0
        31 001601   000000 116000 32                 CMPQ    0
        31 001602   001617 600000 31                 TZE     s:19983

  19971 31 001603   000017 236000 xsym               LDQ     O1COM+15
        31 001604   000000 116000 32                 CMPQ    0
        31 001605   001611 601000 31                 TNZ     s:19975

  19972 31 001606   000001 236100                    LDQ     1,,PR0
        31 001607   000017 756000 xsym               STQ     O1COM+15

  19973 31 001610   001614 710000 31                 TRA     s:19977

  19975 31 001611   000001 236100                    LDQ     1,,PR0
        31 001612   000020 471400 xsym               LDP1    O1COM+16
        31 001613   100002 756100                    STQ     2,,PR1

PL6.E3A0      #002=Z9EY$RECEIVE_STMT File=Z9EY.:Z8A6TSI                          SAT 08/09/97 13:58 Page:137
  19977 31 001614   200034 470500                    LDP0    WITH_DATA$,,AUTO
        31 001615   000002 236100                    LDQ     2,,PR0
        31 001616   000020 756000 xsym               STQ     O1COM+16

      721    19981    3        END;

      722    19982
      723    19983    2      CALL Z8ED$DISPOSE_ABSSYN_TREE (LX_ETT$);

  19983 31 001617   200030 630500                    EPPR0   LX_ETT$,,AUTO
        31 001620   200134 450500                    STP0    NEW_DNT$+2,,AUTO
        31 001621   200134 630500                    EPPR0   NEW_DNT$+2,,AUTO
        31 001622   000012 631400 32                 EPPR1   10
        31 001623   000000 701000 xent               TSX1    Z8ED$DISPOSE_ABSSYN_TREE
        31 001624   000000 011000                    NOP     0

      724    19984
      725    19985           /* if the NO DATA clause is specified, jumping around it */
      726    19986
      727    19987    2      IF NO_DATA$ ~= ADDR(NIL) THEN

  19987 31 001625   200033 236100                    LDQ     NO_DATA$,,AUTO
        31 001626   000000 116000 32                 CMPQ    0
        31 001627   001724 600000 31                 TZE     ERROR_STEP

      728    19988    3        DO;

      729    19989    3          CALL Z8AT$CREATE_TEMPORARY (%PARA, END_LABEL$);

  19989 31 001630   200022 630500                    EPPR0   END_LABEL$,,AUTO
        31 001631   200135 450500                    STP0    NEW_DNT$+3,,AUTO
        31 001632   000043 236000 32                 LDQ     35
        31 001633   200134 756100                    STQ     NEW_DNT$+2,,AUTO
        31 001634   200134 630500                    EPPR0   NEW_DNT$+2,,AUTO
        31 001635   000010 631400 32                 EPPR1   8
        31 001636   000000 701000 xent               TSX1    Z8AT$CREATE_TEMPORARY
        31 001637   000000 011000                    NOP     0
PL6.E3A0      #002=Z9EY$RECEIVE_STMT File=Z9EY.:Z8A6TSI                          SAT 08/09/97 13:58 Page:138

      730    19990
      731    19991    3          CALL Z8EK$BRANCH (END_LABEL$);

  19991 31 001640   200022 630500                    EPPR0   END_LABEL$,,AUTO
        31 001641   200134 450500                    STP0    NEW_DNT$+2,,AUTO
        31 001642   200134 630500                    EPPR0   NEW_DNT$+2,,AUTO
        31 001643   000012 631400 32                 EPPR1   10
        31 001644   000000 701000 xent               TSX1    Z8EK$BRANCH
        31 001645   000000 011000                    NOP     0

      732    19992
      733    19993               %NEW_ILL (@ID     = %DEFLB,
      734    19994                         @LABEL$ = NO_DATA_LABEL$);

  20326 31 001646   000017 236000 32                 LDQ     15
        31 001647   200134 756100                    STQ     NEW_DNT$+2,,AUTO
        31 001650   200134 630500                    EPPR0   NEW_DNT$+2,,AUTO
        31 001651   200141 450500                    STP0    NEW_DNT$+7,,AUTO
        31 001652   000020 236000 32                 LDQ     16
        31 001653   200140 756100                    STQ     NEW_DNT$+6,,AUTO
        31 001654   000052 237000 32                 LDAQ    42
        31 001655   200136 757100                    STAQ    NEW_DNT$+4,,AUTO
        31 001656   200136 630500                    EPPR0   NEW_DNT$+4,,AUTO
        31 001657   000014 631400 32                 EPPR1   12
        31 001660   000000 701000 xent               TSX1    Z8AN$NEW_ILL
        31 001661   000000 011000                    NOP     0

  20327 31 001662   200021 236100                    LDQ     NO_DATA_LABEL$,,AUTO
        31 001663   000000 470400 19                 LDP0    ILL$
        31 001664   000001 756100                    STQ     1,,PR0

      735    20373
      736    20374               %APPEND_ILS_LIST (@FROM$ = NO_DATA$,
      737    20375                                 @TO$   = "ADDR(O1COM.ILS_LIST)");

  20381 31 001665   200033 471500                    LDP1    NO_DATA$,,AUTO
PL6.E3A0      #002=Z9EY$RECEIVE_STMT File=Z9EY.:Z8A6TSI                          SAT 08/09/97 13:58 Page:139
        31 001666   100001 236100                    LDQ     1,,PR1
        31 001667   000000 116000 32                 CMPQ    0
        31 001670   001705 600000 31                 TZE     s:20726

  20382 31 001671   000017 236000 xsym               LDQ     O1COM+15
        31 001672   000000 116000 32                 CMPQ    0
        31 001673   001677 601000 31                 TNZ     s:20386

  20383 31 001674   100001 236100                    LDQ     1,,PR1
        31 001675   000017 756000 xsym               STQ     O1COM+15

  20384 31 001676   001702 710000 31                 TRA     s:20388

  20386 31 001677   100001 236100                    LDQ     1,,PR1
        31 001700   000020 473400 xsym               LDP3    O1COM+16
        31 001701   300002 756100                    STQ     2,,PR3

  20388 31 001702   200033 471500                    LDP1    NO_DATA$,,AUTO
        31 001703   100002 236100                    LDQ     2,,PR1
        31 001704   000020 756000 xsym               STQ     O1COM+16

      738    20392
      739    20393               %NEW_ILL (@ID = %DEFLB,
      740    20394                         @LABEL$ = END_LABEL$);

  20726 31 001705   000017 236000 32                 LDQ     15
        31 001706   200134 756100                    STQ     NEW_DNT$+2,,AUTO
        31 001707   200134 633500                    EPPR3   NEW_DNT$+2,,AUTO
        31 001710   200141 453500                    STP3    NEW_DNT$+7,,AUTO
        31 001711   000020 236000 32                 LDQ     16
        31 001712   200140 756100                    STQ     NEW_DNT$+6,,AUTO
        31 001713   000052 237000 32                 LDAQ    42
        31 001714   200136 757100                    STAQ    NEW_DNT$+4,,AUTO
        31 001715   200136 630500                    EPPR0   NEW_DNT$+4,,AUTO
        31 001716   000014 631400 32                 EPPR1   12
        31 001717   000000 701000 xent               TSX1    Z8AN$NEW_ILL
        31 001720   000000 011000                    NOP     0
PL6.E3A0      #002=Z9EY$RECEIVE_STMT File=Z9EY.:Z8A6TSI                          SAT 08/09/97 13:58 Page:140

  20727 31 001721   200022 236100                    LDQ     END_LABEL$,,AUTO
        31 001722   000000 470400 19                 LDP0    ILL$
        31 001723   000001 756100                    STQ     1,,PR0

      741    20773
      742    20774    3        END;

      743    20775
      744    20776    2      ERROR_STEP:
      745    20777    2        CALL Z8ED$DISPOSE_ABSSYN_TREE (RECV_LIST$ -> LX_LIST.HEAD$);

  20777 31 001724   200005 470500       ERROR_STEP   LDP0    @RECV_LIST$,,AUTO
        31 001725   000000 471500                    LDP1    0,,PR0
        31 001726   100004 633500                    EPPR3   4,,PR1
        31 001727   200134 453500                    STP3    NEW_DNT$+2,,AUTO
        31 001730   200134 630500                    EPPR0   NEW_DNT$+2,,AUTO
        31 001731   000012 631400 32                 EPPR1   10
        31 001732   000000 701000 xent               TSX1    Z8ED$DISPOSE_ABSSYN_TREE
        31 001733   000000 011000                    NOP     0

      746    20778    2        IF DATA$ ~= ADDR(NIL)   THEN

  20778 31 001734   200015 236100                    LDQ     DATA$,,AUTO
        31 001735   000000 116000 32                 CMPQ    0
        31 001736   001745 600000 31                 TZE     s:20781

      747    20779    2          CALL Z8ED$DISPOSE_ABSSYN_TREE( DATA$ -> LX_LIST.HEAD$ );

  20779 31 001737   000004 036003                    ADLQ    4,DU
        31 001740   200134 756100                    STQ     NEW_DNT$+2,,AUTO
        31 001741   200134 630500                    EPPR0   NEW_DNT$+2,,AUTO
        31 001742   000012 631400 32                 EPPR1   10
        31 001743   000000 701000 xent               TSX1    Z8ED$DISPOSE_ABSSYN_TREE
        31 001744   000000 011000                    NOP     0

      748    20780
PL6.E3A0      #002=Z9EY$RECEIVE_STMT File=Z9EY.:Z8A6TSI                          SAT 08/09/97 13:58 Page:141
      749    20781    2    END RECEIVE_STMT;

  20781 31 001745   200004 221300                    LDX1  ! @ARG_LIST$+1,,AUTO
        31 001746   000001 702211                    TSX2  ! 1,X1

      750    20782         %EJECT;
PL6.E3A0      #002=Z9EY$RECEIVE_STMT File=Z9EY.:Z8A6TSI                          SAT 08/09/97 13:58 Page:142
      751    20783         /*=========*/
      752    20784    1      SEND_STMT: PROC (SEND_LIST$);

  20784 31 001747   200004 741300       SEND_STMT    STX1  ! @ARG_LIST$+1,,AUTO

      753    20785         /*=========*/
      754    20786
      755    20787
      756    20788        %EQU TPE_SEND_TEXT = '.CSNDM';
      757    20789        %EQU TPR_SEND_TEXT = 'C$SEND';
      758    20790        %EQU SEND_TEXT_LENGTH = 6;
      759    20791        %EQU ESI_CODE = 1;
      760    20792        %EQU EMI_CODE = 2;
      761    20793        %EQU EGI_CODE = 3;
      762    20794        %EQU LENGTH_ONE_CHAR = 1;
      763    20795
      764    20796
      765    20797    2   DCL SEND_LIST$         PTR;
      766    20798    2   DCL KEY_WORD$          PTR;
      767    20799    2   DCL CD_NAME$           PTR;
      768    20800    2   DCL ID$                PTR;
      769    20801    2   DCL SEND_WITH$         PTR;
      770    20802    2   DCL BEF_AFT_ADV$       PTR;
      771    20803    2   DCL SEND_REPLACE$      PTR;
      772    20804    2   DCL ID_ST$             PTR;
      773    20805    2   DCL CD_ST$             PTR;
      774    20806    2   DCL ARG#               UBIN;
      775    20807    2   DCL ARG$               PTR;
      776    20808    2   DCL DESC_ST$           PTR;
      777    20809    2   DCL SYMREF$            PTR;
      778    20810    2   DCL SEND_DNT$          PTR;
      779    20811    2   DCL LX_ETT$            PTR;
      780    20812    2   DCL TEMP_ETT$          PTR;
      781    20813    2   DCL RT_ARG_LIST$       PTR;
      782    20814    2   DCL QUAL_ERROR         BOOLEAN;
      783    20815    2   DCL ID_ETT$            PTR;
      784    20816    2   DCL ADV_AFTER          BOOLEAN;
PL6.E3A0      #002=Z9EY$RECEIVE_STMT File=Z9EY.:Z8A6TSI                          SAT 08/09/97 13:58 Page:143
      785    20817    2   DCL MNE_ST$            PTR;
      786    20818    2   DCL SEND_NAME          CHAR (%SEND_TEXT_LENGTH);
      787    20819    2   DCL WITH_ETT$          PTR;
      788    20820    2   DCL ADV_ETT$           PTR;
      789    20821    2   DCL TEMP_VAR$          PTR;
      790    20822    2   DCL WITH_ST$           PTR;
      791    20823    2   DCL CD_LTS$            PTR;
      792    20824
      793    20825        %DCL_AUTO_LX_ITEM (@NAME = ADV_LX_ETT);
      794    20829        %DCL_AUTO_LX_ITEM (@NAME = TEMP_LX_ETT);
      795    20833        %DCL_AUTO_LX_ITEM (@NAME = AFTER_FIELD);
      796    20837        %DCL_AUTO_LX_ITEM (@NAME = OP_NODE);
      797    20841        %DCL_AUTO_LX_ITEM (@NAME = ETT_ITEM);
      798    20845        %DCL_AUTO_LX_ITEM (@NAME = INT_LX_ETT);
      799    20849
      800    20850    2   DCL CONST_ETT$         PTR;
      801    20851    2   DCL INT_VAR$           PTR;
      802    20852    2   DCL INT_ETT$           PTR;
      803    20853    2   DCL 1 AFTER_SET,
      804    20854    2          2 VALUE         SBIN WORD,
      805    20855    2          2 B REDEF VALUE,
      806    20856    2            3 AFTER       BOOLEAN,
      807    20857    2            3 *           BIT (17),
      808    20858    2            3 TAIL        UBIN HALF UNAL;
      809    20859
      810    20860
      811    20861
      812    20862         %EJECT;
PL6.E3A0      #002=Z9EY$RECEIVE_STMT File=Z9EY.:Z8A6TSI                          SAT 08/09/97 13:58 Page:144
      813    20863
      814    20864    2      KEY_WORD$ = SEND_LIST$ -> LX_LIST.HEAD$;

  20864 31 001750   200005 470500                    LDP0    @SEND_LIST$,,AUTO
        31 001751   000000 471500                    LDP1    0,,PR0
        31 001752   100004 236100                    LDQ     4,,PR1
        31 001753   200006 756100                    STQ     KEY_WORD$,,AUTO

      815    20865    2      CD_NAME$ = KEY_WORD$ -> LX_ITEM.LINK;

  20865 31 001754   200006 473500                    LDP3    KEY_WORD$,,AUTO
        31 001755   300007 236100                    LDQ     7,,PR3
        31 001756   200007 756100                    STQ     CD_NAME$,,AUTO

      816    20866    2      ID$ = CD_NAME$ -> LX_ITEM.LINK;

  20866 31 001757   200007 471500                    LDP1    CD_NAME$,,AUTO
        31 001760   100007 236100                    LDQ     7,,PR1
        31 001761   200010 756100                    STQ     ID$,,AUTO

      817    20867    2      SEND_WITH$ = ID$ -> LX_ITEM.LINK;

  20867 31 001762   200010 474500                    LDP4    ID$,,AUTO
        31 001763   400007 236100                    LDQ     7,,PR4
        31 001764   200011 756100                    STQ     SEND_WITH$,,AUTO

      818    20868
      819    20869    2      IF SEND_WITH$ ~= ADDR(NIL) THEN

  20869 31 001765   000000 116000 32                 CMPQ    0
        31 001766   001775 600000 31                 TZE     s:20884

      820    20870    3        DO;

      821    20871    3          BEF_AFT_ADV$ = SEND_WITH$ -> LX_ITEM.LINK;

  20871 31 001767   200011 475500                    LDP5    SEND_WITH$,,AUTO
PL6.E3A0      #002=Z9EY$RECEIVE_STMT File=Z9EY.:Z8A6TSI                          SAT 08/09/97 13:58 Page:145
        31 001770   500007 236100                    LDQ     7,,PR5
        31 001771   200012 756100                    STQ     BEF_AFT_ADV$,,AUTO

      822    20872    3          SEND_REPLACE$ = BEF_AFT_ADV$ -> LX_ITEM.LINK;

  20872 31 001772   200012 476500                    LDP6    BEF_AFT_ADV$,,AUTO
        31 001773   600007 236100                    LDQ     7,,PR6
        31 001774   200013 756100                    STQ     SEND_REPLACE$,,AUTO

      823    20873    3        END;

      824    20874
      825    20875           %STATEMENT_START_FROM_LX_TERM (@POINTER = KEY_WORD$,
      826    20876                                          @TYPE    = %S_TYPE_SEND);

  20884 31 001775   300005 235100                    LDA     5,,PR3
        31 001776   000007 755000 xsym               STA     O1COM+7

  20885 31 001777   300006 235100                    LDA     6,,PR3
        31 002000   000010 755000 xsym               STA     O1COM+8

  20886 31 002001   000011 236000 xsym               LDQ     O1COM+9
        31 002002   002017 600000 31                 TZE     s:21268

  20921 31 002003   000017 236000 32                 LDQ     15
        31 002004   200134 756100                    STQ     NEW_DNT$+2,,AUTO
        31 002005   200134 635500                    EPPR5   NEW_DNT$+2,,AUTO
        31 002006   200141 455500                    STP5    NEW_DNT$+7,,AUTO
        31 002007   000020 236000 32                 LDQ     16
        31 002010   200140 756100                    STQ     NEW_DNT$+6,,AUTO
        31 002011   000022 237000 32                 LDAQ    18
        31 002012   200136 757100                    STAQ    NEW_DNT$+4,,AUTO
        31 002013   200136 630500                    EPPR0   NEW_DNT$+4,,AUTO
        31 002014   000014 631400 32                 EPPR1   12
        31 002015   000000 701000 xent               TSX1    Z8AN$NEW_ILL
        31 002016   000000 011000                    NOP     0

PL6.E3A0      #002=Z9EY$RECEIVE_STMT File=Z9EY.:Z8A6TSI                          SAT 08/09/97 13:58 Page:146
  21268 31 002017   000044 235007                    LDA     36,DL
        31 002020   000011 755000 xsym               STA     O1COM+9

  21304 31 002021   000017 236000 32                 LDQ     15
        31 002022   200134 756100                    STQ     NEW_DNT$+2,,AUTO
        31 002023   200134 630500                    EPPR0   NEW_DNT$+2,,AUTO
        31 002024   200141 450500                    STP0    NEW_DNT$+7,,AUTO
        31 002025   000020 236000 32                 LDQ     16
        31 002026   200140 756100                    STQ     NEW_DNT$+6,,AUTO
        31 002027   000022 237000 32                 LDAQ    18
        31 002030   200136 757100                    STAQ    NEW_DNT$+4,,AUTO
        31 002031   200136 630500                    EPPR0   NEW_DNT$+4,,AUTO
        31 002032   000014 631400 32                 EPPR1   12
        31 002033   000000 701000 xent               TSX1    Z8AN$NEW_ILL
        31 002034   000000 011000                    NOP     0

      827    21652
      828    21653    2      QUAL_ERROR = FALSE;

  21653 31 002035   200026 450100                    STZ     QUAL_ERROR,,AUTO

      829    21654
      830    21655    2      CALL Z8CO$QUALIFY_VARIABLE (CD_NAME$, CD_ST$)

  21655 31 002036   200015 630500                    EPPR0   CD_ST$,,AUTO
        31 002037   200135 450500                    STP0    NEW_DNT$+3,,AUTO
        31 002040   200007 631500                    EPPR1   CD_NAME$,,AUTO
        31 002041   200134 451500                    STP1    NEW_DNT$+2,,AUTO
        31 002042   200134 630500                    EPPR0   NEW_DNT$+2,,AUTO
        31 002043   000010 631400 32                 EPPR1   8
        31 002044   000000 701000 xent               TSX1    Z8CO$QUALIFY_VARIABLE
        31 002045   002047 702000 31                 TSX2    s:21658
        31 002046   002051 710000 31                 TRA     s:21665

      831    21656    2        WHENALTRETURN
      832    21657    3          DO;

PL6.E3A0      #002=Z9EY$RECEIVE_STMT File=Z9EY.:Z8A6TSI                          SAT 08/09/97 13:58 Page:147
      833    21658    3            QUAL_ERROR = TRUE;

  21658 31 002047   400000 236003                    LDQ     -131072,DU
        31 002050   200026 756100                    STQ     QUAL_ERROR,,AUTO

      834    21659    3          END;

      835    21660
      836    21661           %ADD_XREF (SYM = CD_ST$,
      837    21662                      ISN = "CD_NAME$ -> LX_LIST.HEAD$ -> LX_TERMINAL.LINE",
      838    21663                      TYPE = %XREF_UNK);

  21665 31 002051   000055 234000 xsym               SZN     COMCOM+45
        31 002052   002111 605000 31                 TPL     s:21682

  21669 31 002053   000002 236000 27                 LDQ     XREF_+2
        31 002054   000002 036007                    ADLQ    2,DL
        31 002055   000003 116000 27                 CMPQ    XREF_+3
        31 002056   002067 602000 31                 TNC     s:21671

  21670 31 002057   000024 236000 32                 LDQ     20
        31 002060   200134 756100                    STQ     NEW_DNT$+2,,AUTO
        31 002061   200134 630500                    EPPR0   NEW_DNT$+2,,AUTO
        31 002062   200135 450500                    STP0    NEW_DNT$+3,,AUTO
        31 002063   200135 630500                    EPPR0   NEW_DNT$+3,,AUTO
        31 002064   000012 631400 32                 EPPR1   10
        31 002065   000000 701000 xent               TSX1    Z8AR$RESERVER
        31 002066   000000 011000                    NOP     0

  21671 31 002067   000002 236000 27                 LDQ     XREF_+2
        31 002070   000022 736000                    QLS     18
        31 002071   000001 036000 27                 ADLQ    XREF_+1
        31 002072   000000 756000 26                 STQ     XREF$

  21672 31 002073   000002 235000 27                 LDA     XREF_+2
        31 002074   000002 035007                    ADLA    2,DL
        31 002075   000002 755000 27                 STA     XREF_+2
PL6.E3A0      #002=Z9EY$RECEIVE_STMT File=Z9EY.:Z8A6TSI                          SAT 08/09/97 13:58 Page:148

  21673 31 002076   000010 220003                    LDX0    8,DU
        31 002077   000000 470400 26                 LDP0    XREF$
        31 002100   000000 740100                    STX0    0,,PR0

  21676 31 002101   200007 470500                    LDP0    CD_NAME$,,AUTO
        31 002102   000004 471500                    LDP1    4,,PR0
        31 002103   100005 721100                    LXL1    5,,PR1
        31 002104   000000 473400 26                 LDP3    XREF$
        31 002105   300000 441100                    SXL1    0,,PR3

  21677 31 002106   200015 236100                    LDQ     CD_ST$,,AUTO
        31 002107   000000 470400 26                 LDP0    XREF$
        31 002110   000001 756100                    STQ     1,,PR0

      839    21681
      840    21682    2      IF QUAL_ERROR THEN

  21682 31 002111   200026 234100                    SZN     QUAL_ERROR,,AUTO
        31 002112   003554 604000 31                 TMI     ERROR_STEP

      841    21683    2        GOTO ERROR_STEP;
      842    21684
      843    21685    2      CD_LTS$ = ADDR(NIL);

  21685 31 002113   000000 236000 32                 LDQ     0
        31 002114   200040 756100                    STQ     CD_LTS$,,AUTO

      844    21686    2      IF CD_ST$ -> SCALAR.ID = %SCALAR THEN

  21686 31 002115   200015 470500                    LDP0    CD_ST$,,AUTO
        31 002116   000000 220100                    LDX0    0,,PR0
        31 002117   000766 100003                    CMPX0   502,DU
        31 002120   002145 601000 31                 TNZ     s:21732

      845    21687             %GET_LTS (@ID      = %CD_LTS,
      846    21688                       @ST$     = CD_ST$,
PL6.E3A0      #002=Z9EY$RECEIVE_STMT File=Z9EY.:Z8A6TSI                          SAT 08/09/97 13:58 Page:149
      847    21689                       @RETURN$ = CD_LTS$);

  21691 31 002121   000005 236100                    LDQ     5,,PR0
        31 002122   000000 116000 32                 CMPQ    0
        31 002123   002133 600000 31                 TZE     s:21725
        31 002124   000005 471500                    LDP1    5,,PR0
        31 002125   100000 221100                    LDX1    0,,PR1
        31 002126   001105 101003                    CMPX1   581,DU
        31 002127   002133 601000 31                 TNZ     s:21725

  21717 31 002130   100007 236100                    LDQ     7,,PR1
        31 002131   200040 756100                    STQ     CD_LTS$,,AUTO

  21723 31 002132   002145 710000 31                 TRA     s:21732

  21725 31 002133   000000 116000 32                 CMPQ    0
        31 002134   002143 600000 31                 TZE     s:21729
        31 002135   000005 471500                    LDP1    5,,PR0
        31 002136   100000 221100                    LDX1    0,,PR1
        31 002137   001072 101003                    CMPX1   570,DU
        31 002140   002143 601000 31                 TNZ     s:21729

  21727 31 002141   200040 756100                    STQ     CD_LTS$,,AUTO
        31 002142   002145 710000 31                 TRA     s:21732

  21729 31 002143   000000 236000 32                 LDQ     0
        31 002144   200040 756100                    STQ     CD_LTS$,,AUTO

      848    21732    2      IF CD_LTS$ = ADDR(NIL) OR

  21732 31 002145   000000 116000 32                 CMPQ    0
        31 002146   002153 600000 31                 TZE     s:21735
        31 002147   200040 471500                    LDP1    CD_LTS$,,AUTO
        31 002150   100006 235100                    LDA     6,,PR1
        31 002151   000034 115007                    CMPA    28,DL
        31 002152   002172 601000 31                 TNZ     s:21744

PL6.E3A0      #002=Z9EY$RECEIVE_STMT File=Z9EY.:Z8A6TSI                          SAT 08/09/97 13:58 Page:150
      849    21733    2        CD_LTS$ -> CD_LTS.LX_CD_TYPE = %LX_CD_INPUT THEN
      850    21734    3        DO;

      851    21735    3          CALL Z8AE$ERROR (%E$MUST_BE_CD_I_O,

  21735 31 002153   200007 471500                    LDP1    CD_NAME$,,AUTO
        31 002154   100004 473500                    LDP3    4,,PR1
        31 002155   000054 236000 32                 LDQ     44
        31 002156   200137 756100                    STQ     NEW_DNT$+5,,AUTO
        31 002157   300006 634500                    EPPR4   6,,PR3
        31 002160   200136 454500                    STP4    NEW_DNT$+4,,AUTO
        31 002161   300005 635500                    EPPR5   5,,PR3
        31 002162   200135 455500                    STP5    NEW_DNT$+3,,AUTO
        31 002163   000027 236000 32                 LDQ     23
        31 002164   200134 756100                    STQ     NEW_DNT$+2,,AUTO
        31 002165   200134 630500                    EPPR0   NEW_DNT$+2,,AUTO
        31 002166   000014 631400 32                 EPPR1   12
        31 002167   000000 701000 xent               TSX1    Z8AE$ERROR
        31 002170   000000 011000                    NOP     0

      852    21736    3                           CD_NAME$ -> LX_LIST.HEAD$ -> LX_TERMINAL.LINE,
      853    21737    3                           CD_NAME$ -> LX_LIST.HEAD$ -> LX_TERMINAL.COLUMN,
      854    21738    3                           DNT$_FROM_RSWNO (%RSV_WRD_OUTPUT));
      855    21739    3          GOTO ERROR_STEP;

  21739 31 002171   003554 710000 31                 TRA     ERROR_STEP

      856    21740    3        END;
      857    21741
      858    21742           /* create the TP interface subroutine name */
      859    21743
      860    21744    2      IF O1COM.TPE_INTERFACE THEN

  21744 31 002172   000117 236000 xsym               LDQ     O1COM+79
        31 002173   200000 316003                    CANQ    65536,DU
        31 002174   002201 600000 31                 TZE     s:21747

PL6.E3A0      #002=Z9EY$RECEIVE_STMT File=Z9EY.:Z8A6TSI                          SAT 08/09/97 13:58 Page:151
      861    21745    2        SEND_NAME = %TPE_SEND_TEXT;

  21745 31 002175   040100 100400                    MLR     fill='040'O
        31 002176   000006 000006 30                 ADSC9   6                        cn=0,n=6
        31 002177   200032 000006                    ADSC9   SEND_NAME,,AUTO          cn=0,n=6
        31 002200   002204 710000 31                 TRA     s:21749

      862    21746    2      ELSE
      863    21747    2        SEND_NAME = %TPR_SEND_TEXT;

  21747 31 002201   040100 100400                    MLR     fill='040'O
        31 002202   000010 000006 30                 ADSC9   8                        cn=0,n=6
        31 002203   200032 000006                    ADSC9   SEND_NAME,,AUTO          cn=0,n=6

      864    21748
      865    21749    2      CALL Z8AH$NEW_DNT (SEND_NAME,

  21749 31 002204   200022 633500                    EPPR3   SEND_DNT$,,AUTO
        31 002205   200136 453500                    STP3    NEW_DNT$+4,,AUTO
        31 002206   000031 236000 32                 LDQ     25
        31 002207   200135 756100                    STQ     NEW_DNT$+3,,AUTO
        31 002210   200032 634500                    EPPR4   SEND_NAME,,AUTO
        31 002211   200134 454500                    STP4    NEW_DNT$+2,,AUTO
        31 002212   200134 630500                    EPPR0   NEW_DNT$+2,,AUTO
        31 002213   000001 631400 32                 EPPR1   1
        31 002214   000000 701000 xent               TSX1    Z8AH$NEW_DNT
        31 002215   000000 011000                    NOP     0

      866    21750    2                         %SEND_TEXT_LENGTH,
      867    21751    2                         SEND_DNT$);
      868    21752
      869    21753    2      CALL NEW_SYMREF_FROM_TYA_TERMINAL (ADDR(NIL),

  21753 31 002216   000000 236000 32                 LDQ     0
        31 002217   200143 756100                    STQ     NEW_DNT$+9,,AUTO
        31 002220   200022 630500                    EPPR0   SEND_DNT$,,AUTO
        31 002221   200131 450500                    STP0    @DNT$$,,AUTO
PL6.E3A0      #002=Z9EY$RECEIVE_STMT File=Z9EY.:Z8A6TSI                          SAT 08/09/97 13:58 Page:152
        31 002222   200021 631500                    EPPR1   SYMREF$,,AUTO
        31 002223   200130 451500                    STP1    @ST$$,,AUTO
        31 002224   200143 633500                    EPPR3   NEW_DNT$+9,,AUTO
        31 002225   200127 453500                    STP3    @TERM$,,AUTO
        31 002226   000200 701000 31                 TSX1    NEW_SYMREF_FROM_TYA_TERMINAL
        31 002227   000000 011000                    NOP     0

      870    21754    2                                         SYMREF$,
      871    21755    2                                         SEND_DNT$);
      872    21756
      873    21757           /* create CD NAME argument */
      874    21758
      875    21759           %NEW_HEAP (@POINTER = LX_ETT$);

  21761 31 002230   000033 236000 32                 LDQ     27
        31 002231   200135 756100                    STQ     NEW_DNT$+3,,AUTO
        31 002232   200023 630500                    EPPR0   LX_ETT$,,AUTO
        31 002233   200134 450500                    STP0    NEW_DNT$+2,,AUTO
        31 002234   200134 630500                    EPPR0   NEW_DNT$+2,,AUTO
        31 002235   000010 631400 32                 EPPR1   8
        31 002236   000000 701000 xent               TSX1    Z8ED$NEW_HEAP
        31 002237   000000 011000                    NOP     0

      876    21764
      877    21765           %INIT_LX_ETT_ITEM (@POINTER = LX_ETT$,
      878    21766                              @TYPE    = %TYA,
      879    21767                              @LINE    = KEY_WORD$ -> LX_TERMINAL.LINE,
      880    21768                              @COLUMN  = KEY_WORD$ -> LX_TERMINAL.COLUMN);

  21770 31 002240   000004 220003                    LDX0    4,DU
        31 002241   200023 470500                    LDP0    LX_ETT$,,AUTO
        31 002242   000000 740100                    STX0    0,,PR0

  21771 31 002243   000000 221003                    LDX1    0,DU
        31 002244   200023 470500                    LDP0    LX_ETT$,,AUTO
        31 002245   000000 441100                    SXL1    0,,PR0

PL6.E3A0      #002=Z9EY$RECEIVE_STMT File=Z9EY.:Z8A6TSI                          SAT 08/09/97 13:58 Page:153
  21772 31 002246   000010 235007                    LDA     8,DL
        31 002247   200023 470500                    LDP0    LX_ETT$,,AUTO
        31 002250   000004 755100                    STA     4,,PR0

  21773 31 002251   000000 236000 32                 LDQ     0
        31 002252   200023 470500                    LDP0    LX_ETT$,,AUTO
        31 002253   000007 756100                    STQ     7,,PR0

  21774 31 002254   200023 470500                    LDP0    LX_ETT$,,AUTO
        31 002255   000001 756100                    STQ     1,,PR0

  21775 31 002256   200023 470500                    LDP0    LX_ETT$,,AUTO
        31 002257   000002 756100                    STQ     2,,PR0

  21777 31 002260   200006 470500                    LDP0    KEY_WORD$,,AUTO
        31 002261   200023 471500                    LDP1    LX_ETT$,,AUTO
        31 002262   000005 235100                    LDA     5,,PR0
        31 002263   100005 755100                    STA     5,,PR1

  21778 31 002264   200023 471500                    LDP1    LX_ETT$,,AUTO
        31 002265   000006 235100                    LDA     6,,PR0
        31 002266   100006 755100                    STA     6,,PR1

      881    21790
      882    21791    2      CALL Z8AF$NEW_BASE (CD_ST$,

  21791 31 002267   200134 756100                    STQ     NEW_DNT$+2,,AUTO
        31 002270   200023 236100                    LDQ     LX_ETT$,,AUTO
        31 002271   000001 036003                    ADLQ    1,DU
        31 002272   200137 756100                    STQ     NEW_DNT$+5,,AUTO
        31 002273   200134 631500                    EPPR1   NEW_DNT$+2,,AUTO
        31 002274   200136 451500                    STP1    NEW_DNT$+4,,AUTO
        31 002275   200015 633500                    EPPR3   CD_ST$,,AUTO
        31 002276   200135 453500                    STP3    NEW_DNT$+3,,AUTO
        31 002277   200135 630500                    EPPR0   NEW_DNT$+3,,AUTO
        31 002300   000001 631400 32                 EPPR1   1
        31 002301   000000 701000 xent               TSX1    Z8AF$NEW_BASE
PL6.E3A0      #002=Z9EY$RECEIVE_STMT File=Z9EY.:Z8A6TSI                          SAT 08/09/97 13:58 Page:154
        31 002302   000000 011000                    NOP     0

      883    21792    2                          ADDR(NIL),
      884    21793    2                          LX_ETT$ -> LX_ETT_ITEM.ETT$);
      885    21794
      886    21795           /* create the argument of the ID descriptor */
      887    21796
      888    21797           %NEW_HEAP (@POINTER = TEMP_ETT$);

  21799 31 002303   000033 236000 32                 LDQ     27
        31 002304   200135 756100                    STQ     NEW_DNT$+3,,AUTO
        31 002305   200024 630500                    EPPR0   TEMP_ETT$,,AUTO
        31 002306   200134 450500                    STP0    NEW_DNT$+2,,AUTO
        31 002307   200134 630500                    EPPR0   NEW_DNT$+2,,AUTO
        31 002310   000010 631400 32                 EPPR1   8
        31 002311   000000 701000 xent               TSX1    Z8ED$NEW_HEAP
        31 002312   000000 011000                    NOP     0

      889    21802
      890    21803           %INIT_LX_ETT_ITEM (@POINTER = TEMP_ETT$,
      891    21804                              @TYPE    = %TYA,
      892    21805                              @LINE    = KEY_WORD$ -> LX_TERMINAL.LINE,
      893    21806                              @COLUMN  = KEY_WORD$ -> LX_TERMINAL.COLUMN);

  21808 31 002313   000004 220003                    LDX0    4,DU
        31 002314   200024 470500                    LDP0    TEMP_ETT$,,AUTO
        31 002315   000000 740100                    STX0    0,,PR0

  21809 31 002316   000000 221003                    LDX1    0,DU
        31 002317   200024 470500                    LDP0    TEMP_ETT$,,AUTO
        31 002320   000000 441100                    SXL1    0,,PR0

  21810 31 002321   000010 235007                    LDA     8,DL
        31 002322   200024 470500                    LDP0    TEMP_ETT$,,AUTO
        31 002323   000004 755100                    STA     4,,PR0

  21811 31 002324   000000 236000 32                 LDQ     0
PL6.E3A0      #002=Z9EY$RECEIVE_STMT File=Z9EY.:Z8A6TSI                          SAT 08/09/97 13:58 Page:155
        31 002325   200024 470500                    LDP0    TEMP_ETT$,,AUTO
        31 002326   000007 756100                    STQ     7,,PR0

  21812 31 002327   200024 470500                    LDP0    TEMP_ETT$,,AUTO
        31 002330   000001 756100                    STQ     1,,PR0

  21813 31 002331   200024 470500                    LDP0    TEMP_ETT$,,AUTO
        31 002332   000002 756100                    STQ     2,,PR0

  21815 31 002333   200006 470500                    LDP0    KEY_WORD$,,AUTO
        31 002334   200024 471500                    LDP1    TEMP_ETT$,,AUTO
        31 002335   000005 235100                    LDA     5,,PR0
        31 002336   100005 755100                    STA     5,,PR1

  21816 31 002337   200024 471500                    LDP1    TEMP_ETT$,,AUTO
        31 002340   000006 235100                    LDA     6,,PR0
        31 002341   100006 755100                    STA     6,,PR1

      894    21828
      895    21829    2      IF ID$ -> LX_ITEM.ID = %LX_ETT_ITEM THEN

  21829 31 002342   200010 471500                    LDP1    ID$,,AUTO
        31 002343   100000 222100                    LDX2    0,,PR1
        31 002344   000004 102003                    CMPX2   4,DU
        31 002345   002352 601000 31                 TNZ     s:21831

      896    21830    2        TEMP_ETT$ -> LX_ETT_ITEM.ETT$ = ID$ -> LX_ETT_ITEM.ETT$;

  21830 31 002346   100001 236100                    LDQ     1,,PR1
        31 002347   200024 473500                    LDP3    TEMP_ETT$,,AUTO
        31 002350   300001 756100                    STQ     1,,PR3
        31 002351   002414 710000 31                 TRA     s:21849

      897    21831    2      ELSE IF ID$ -> LX_ITEM.SYMBOL ~= %EMPTY AND ID$ -> LX_ITEM.SYMBOL ~= %
             21831               RSV_WRD_WITH THEN

  21831 31 002352   100003 235100                    LDA     3,,PR1
PL6.E3A0      #002=Z9EY$RECEIVE_STMT File=Z9EY.:Z8A6TSI                          SAT 08/09/97 13:58 Page:156
        31 002353   002411 600000 31                 TZE     s:21847
        31 002354   000753 115007                    CMPA    491,DL
        31 002355   002411 600000 31                 TZE     s:21847

      898    21832    3        DO;

      899    21833               %FISH (TRIAD = ID$ -> LX_ETT_ITEM.ETT$, RTN = ID_ST$);

  21835 31 002356   100001 236100                    LDQ     1,,PR1
        31 002357   200014 756100                    STQ     ID_ST$,,AUTO

  21836 31 002360   200014 473500                    LDP3    ID_ST$,,AUTO
        31 002361   300000 222100                    LDX2    0,,PR3
        31 002362   000751 102003                    CMPX2   489,DU
        31 002363   002373 603000 31                 TRC     s:21841

  21837 31 002364   200014 470500                    LDP0    ID_ST$,,AUTO
        31 002365   000001 236100                    LDQ     1,,PR0
        31 002366   200014 756100                    STQ     ID_ST$,,AUTO

  21838 31 002367   200014 470500                    LDP0    ID_ST$,,AUTO
        31 002370   000000 220100                    LDX0    0,,PR0
        31 002371   000751 100003                    CMPX0   489,DU
        31 002372   002364 602000 31                 TNC     s:21837

      900    21841    3          CALL Z8AF$NEW_BASE (ID_ST$,

  21841 31 002373   000000 236000 32                 LDQ     0
        31 002374   200134 756100                    STQ     NEW_DNT$+2,,AUTO
        31 002375   200024 236100                    LDQ     TEMP_ETT$,,AUTO
        31 002376   000001 036003                    ADLQ    1,DU
        31 002377   200137 756100                    STQ     NEW_DNT$+5,,AUTO
        31 002400   200134 630500                    EPPR0   NEW_DNT$+2,,AUTO
        31 002401   200136 450500                    STP0    NEW_DNT$+4,,AUTO
        31 002402   200014 631500                    EPPR1   ID_ST$,,AUTO
        31 002403   200135 451500                    STP1    NEW_DNT$+3,,AUTO
        31 002404   200135 630500                    EPPR0   NEW_DNT$+3,,AUTO
PL6.E3A0      #002=Z9EY$RECEIVE_STMT File=Z9EY.:Z8A6TSI                          SAT 08/09/97 13:58 Page:157
        31 002405   000001 631400 32                 EPPR1   1
        31 002406   000000 701000 xent               TSX1    Z8AF$NEW_BASE
        31 002407   000000 011000                    NOP     0

      901    21842    3                              ADDR(NIL),
      902    21843    3                              TEMP_ETT$ -> LX_ETT_ITEM.ETT$);
      903    21844
      904    21845    3        END;

  21845 31 002410   002414 710000 31                 TRA     s:21849

      905    21846    2      ELSE
      906    21847    2        TEMP_ETT$ -> LX_ETT_ITEM.ETT$ = COMCOM.VALUE_0;

  21847 31 002411   000124 236000 xsym               LDQ     COMCOM+84
        31 002412   200024 473500                    LDP3    TEMP_ETT$,,AUTO
        31 002413   300001 756100                    STQ     1,,PR3

      907    21848
      908    21849    2      LX_ETT$ -> LX_ETT_ITEM.LINK = TEMP_ETT$;

  21849 31 002414   200024 236100                    LDQ     TEMP_ETT$,,AUTO
        31 002415   200023 470500                    LDP0    LX_ETT$,,AUTO
        31 002416   000007 756100                    STQ     7,,PR0

      909    21850
      910    21851           /* create the argument of the SEND WITH  indicator */
      911    21852
      912    21853    2      IF SEND_WITH$ ~= ADDR(NIL) THEN

  21853 31 002417   200011 236100                    LDQ     SEND_WITH$,,AUTO
        31 002420   000000 116000 32                 CMPQ    0
        31 002421   003352 600000 31                 TZE     s:22139

      913    21854    3        DO;

      914    21855    3          IF SEND_WITH$ -> LX_ITEM.ID = %LX_ETT_ITEM THEN
PL6.E3A0      #002=Z9EY$RECEIVE_STMT File=Z9EY.:Z8A6TSI                          SAT 08/09/97 13:58 Page:158

  21855 31 002422   200011 470500                    LDP0    SEND_WITH$,,AUTO
        31 002423   000000 220100                    LDX0    0,,PR0
        31 002424   000004 100003                    CMPX0   4,DU
        31 002425   002567 601000 31                 TNZ     s:21919

      915    21856    4            DO;

      916    21857                   %FISH (TRIAD = SEND_WITH$ -> LX_ETT_ITEM.ETT$,
      917    21858                          RTN   = WITH_ST$);

  21860 31 002426   000001 236100                    LDQ     1,,PR0
        31 002427   200037 756100                    STQ     WITH_ST$,,AUTO

  21861 31 002430   200037 471500                    LDP1    WITH_ST$,,AUTO
        31 002431   100000 221100                    LDX1    0,,PR1
        31 002432   000751 101003                    CMPX1   489,DU
        31 002433   002443 603000 31                 TRC     s:21867

  21862 31 002434   200037 470500                    LDP0    WITH_ST$,,AUTO
        31 002435   000001 236100                    LDQ     1,,PR0
        31 002436   200037 756100                    STQ     WITH_ST$,,AUTO

  21863 31 002437   200037 470500                    LDP0    WITH_ST$,,AUTO
        31 002440   000000 220100                    LDX0    0,,PR0
        31 002441   000751 100003                    CMPX0   489,DU
        31 002442   002434 602000 31                 TNC     s:21862

      918    21866
      919    21867    4              IF WITH_ST$ -> VARIABLE.NDSC.N ~= %LENGTH_ONE_CHAR OR

  21867 31 002443   200037 470500                    LDP0    WITH_ST$,,AUTO
        31 002444   000001 236100                    LDQ     1,,PR0
        31 002445   000077 376007                    ANQ     63,DL
        31 002446   000001 116007                    CMPQ    1,DL
        31 002447   002454 601000 31                 TNZ     s:21870
        31 002450   000003 236100                    LDQ     3,,PR0
PL6.E3A0      #002=Z9EY$RECEIVE_STMT File=Z9EY.:Z8A6TSI                          SAT 08/09/97 13:58 Page:159
        31 002451   000007 376007                    ANQ     7,DL
        31 002452   000001 116007                    CMPQ    1,DL
        31 002453   002472 600000 31                 TZE     s:21878

      920    21868    4                WITH_ST$ -> VARIABLE.B.CLASS ~= %CLASS_NUMERIC THEN
      921    21869    5                DO;

      922    21870    5                  CALL Z8AE$ERROR (%E$MUST_NO_SIGN_ONE_CHAR_INT,

  21870 31 002454   200011 236100                    LDQ     SEND_WITH$,,AUTO
        31 002455   000006 036003                    ADLQ    6,DU
        31 002456   200136 756100                    STQ     NEW_DNT$+4,,AUTO
        31 002457   200011 236100                    LDQ     SEND_WITH$,,AUTO
        31 002460   000005 036003                    ADLQ    5,DU
        31 002461   000056 235000 32                 LDA     46
        31 002462   200134 757100                    STAQ    NEW_DNT$+2,,AUTO
        31 002463   200134 630500                    EPPR0   NEW_DNT$+2,,AUTO
        31 002464   000001 631400 32                 EPPR1   1
        31 002465   000000 701000 xent               TSX1    Z8AE$ERROR
        31 002466   000000 011000                    NOP     0

      923    21871    5                                   SEND_WITH$ -> LX_ETT_ITEM.LINE,
      924    21872    5                                   SEND_WITH$ -> LX_ETT_ITEM.COLUMN);
      925    21873
      926    21874    5                  WITH_ETT$ = COMCOM.VALUE_0;

  21874 31 002467   000124 236000 xsym               LDQ     COMCOM+84
        31 002470   200034 756100                    STQ     WITH_ETT$,,AUTO

      927    21875    5                END;

  21875 31 002471   002655 710000 31                 TRA     s:21931

      928    21876    4              ELSE
      929    21877    5                DO;

      930    21878    5                  CALL Z8AT$CREATE_TEMPORARY (%SCALAR, TEMP_VAR$);
PL6.E3A0      #002=Z9EY$RECEIVE_STMT File=Z9EY.:Z8A6TSI                          SAT 08/09/97 13:58 Page:160

  21878 31 002472   200036 631500                    EPPR1   TEMP_VAR$,,AUTO
        31 002473   200135 451500                    STP1    NEW_DNT$+3,,AUTO
        31 002474   000035 236000 32                 LDQ     29
        31 002475   200134 756100                    STQ     NEW_DNT$+2,,AUTO
        31 002476   200134 630500                    EPPR0   NEW_DNT$+2,,AUTO
        31 002477   000010 631400 32                 EPPR1   8
        31 002500   000000 701000 xent               TSX1    Z8AT$CREATE_TEMPORARY
        31 002501   000000 011000                    NOP     0

      931    21879
      932    21880    5                  TEMP_VAR$ -> VARIABLE.TYPE = %TYI;

  21880 31 002502   000001 220003                    LDX0    1,DU
        31 002503   200036 470500                    LDP0    TEMP_VAR$,,AUTO
        31 002504   000002 740100                    STX0    2,,PR0

      933    21881    5                  TEMP_VAR$ -> VARIABLE.NDSC.N = 4;

  21881 31 002505   200036 470500                    LDP0    TEMP_VAR$,,AUTO
        31 002506   000004 236007                    LDQ     4,DL
        31 002507   000001 752101                    STCQ    1,'01'O,PR0

      934    21882    5                  TEMP_VAR$ -> VARIABLE.NDSC.S = '11'B;

  21882 31 002510   200036 470500                    LDP0    TEMP_VAR$,,AUTO
        31 002511   030000 236007                    LDQ     12288,DL
        31 002512   000001 256100                    ORSQ    1,,PR0

      935    21883    5                  TEMP_VAR$ -> VARIABLE.B.CLASS = %CLASS_NUMERIC;

  21883 31 002513   200036 470500                    LDP0    TEMP_VAR$,,AUTO
        31 002514   000003 236100                    LDQ     3,,PR0
        31 002515   000036 376000 32                 ANQ     30
        31 002516   000001 276007                    ORQ     1,DL
        31 002517   000003 756100                    STQ     3,,PR0

PL6.E3A0      #002=Z9EY$RECEIVE_STMT File=Z9EY.:Z8A6TSI                          SAT 08/09/97 13:58 Page:161
      936    21884
      937    21885    5                  CALL Z8AF$NEW_BASE (TEMP_VAR$,

  21885 31 002520   000000 236000 32                 LDQ     0
        31 002521   200134 756100                    STQ     NEW_DNT$+2,,AUTO
        31 002522   200034 630500                    EPPR0   WITH_ETT$,,AUTO
        31 002523   200137 450500                    STP0    NEW_DNT$+5,,AUTO
        31 002524   200134 631500                    EPPR1   NEW_DNT$+2,,AUTO
        31 002525   200136 451500                    STP1    NEW_DNT$+4,,AUTO
        31 002526   200036 633500                    EPPR3   TEMP_VAR$,,AUTO
        31 002527   200135 453500                    STP3    NEW_DNT$+3,,AUTO
        31 002530   200135 630500                    EPPR0   NEW_DNT$+3,,AUTO
        31 002531   000001 631400 32                 EPPR1   1
        31 002532   000000 701000 xent               TSX1    Z8AF$NEW_BASE
        31 002533   000000 011000                    NOP     0

      938    21886    5                                      ADDR(NIL),
      939    21887    5                                      WITH_ETT$);
      940    21888
      941    21889                       %INIT_LX_ETT_ITEM (@POINTER = "ADDR(TEMP_LX_ETT)",
      942    21890                                          @ETT$    = WITH_ETT$,
      943    21891                                          @TYPE    = %TYI);

  21893 31 002534   000004 220003                    LDX0    4,DU
        31 002535   200052 740100                    STX0    TEMP_LX_ETT,,AUTO

  21894 31 002536   000000 221003                    LDX1    0,DU
        31 002537   200052 441100                    SXL1    TEMP_LX_ETT,,AUTO

  21895 31 002540   000001 235007                    LDA     1,DL
        31 002541   200056 755100                    STA     ETT_ITEM+2,,AUTO

  21896 31 002542   000000 236000 32                 LDQ     0
        31 002543   200061 756100                    STQ     ETT_ITEM+5,,AUTO

  21897 31 002544   200034 236100                    LDQ     WITH_ETT$,,AUTO
        31 002545   200053 756100                    STQ     TEMP_LX_ETT+1,,AUTO
PL6.E3A0      #002=Z9EY$RECEIVE_STMT File=Z9EY.:Z8A6TSI                          SAT 08/09/97 13:58 Page:162

  21898 31 002546   000000 236000 32                 LDQ     0
        31 002547   200054 756100                    STQ     ETT_ITEM,,AUTO

  21900 31 002550   000133 235000 xsym               LDA     COMCOM+91
        31 002551   200057 755100                    STA     ETT_ITEM+3,,AUTO

  21901 31 002552   000134 235000 xsym               LDA     COMCOM+92
        31 002553   200060 755100                    STA     ETT_ITEM+4,,AUTO

      944    21913
      945    21914    5                  CALL Z8E7$MOVE (ADDR(TEMP_LX_ETT), SEND_WITH$);

  21914 31 002554   200052 630500                    EPPR0   TEMP_LX_ETT,,AUTO
        31 002555   200134 450500                    STP0    NEW_DNT$+2,,AUTO
        31 002556   200011 631500                    EPPR1   SEND_WITH$,,AUTO
        31 002557   200137 451500                    STP1    NEW_DNT$+5,,AUTO
        31 002560   200134 633500                    EPPR3   NEW_DNT$+2,,AUTO
        31 002561   200136 453500                    STP3    NEW_DNT$+4,,AUTO
        31 002562   200136 630500                    EPPR0   NEW_DNT$+4,,AUTO
        31 002563   000010 631400 32                 EPPR1   8
        31 002564   000000 701000 xent               TSX1    Z8E7$MOVE
        31 002565   000000 011000                    NOP     0

      946    21915    5                END;

      947    21916    4            END;

  21916 31 002566   002655 710000 31                 TRA     s:21931

      948    21917    3          ELSE
      949    21918    4            DO;

      950    21919    5              DO CASE (SEND_WITH$ -> LX_TERMINAL.SYMBOL);

  21919 31 002567   000003 235100                    LDA     3,,PR0
        31 002570   000237 135007                    SBLA    159,DL
PL6.E3A0      #002=Z9EY$RECEIVE_STMT File=Z9EY.:Z8A6TSI                          SAT 08/09/97 13:58 Page:163
        31 002571   000043 115007                    CMPA    35,DL
        31 002572   002574 602005 31                 TNC     s:21919+5,AL
        31 002573   002647 710000 31                 TRA     s:21928
        31 002574   002645 710000 31                 TRA     s:21925
        31 002575   002647 710000 31                 TRA     s:21928
        31 002576   002642 710000 31                 TRA     s:21923
        31 002577   002647 710000 31                 TRA     s:21928
        31 002600   002647 710000 31                 TRA     s:21928
        31 002601   002647 710000 31                 TRA     s:21928
        31 002602   002647 710000 31                 TRA     s:21928
        31 002603   002647 710000 31                 TRA     s:21928
        31 002604   002647 710000 31                 TRA     s:21928
        31 002605   002647 710000 31                 TRA     s:21928
        31 002606   002647 710000 31                 TRA     s:21928
        31 002607   002647 710000 31                 TRA     s:21928
        31 002610   002647 710000 31                 TRA     s:21928
        31 002611   002647 710000 31                 TRA     s:21928
        31 002612   002647 710000 31                 TRA     s:21928
        31 002613   002647 710000 31                 TRA     s:21928
        31 002614   002647 710000 31                 TRA     s:21928
        31 002615   002647 710000 31                 TRA     s:21928
        31 002616   002647 710000 31                 TRA     s:21928
        31 002617   002647 710000 31                 TRA     s:21928
        31 002620   002647 710000 31                 TRA     s:21928
        31 002621   002647 710000 31                 TRA     s:21928
        31 002622   002647 710000 31                 TRA     s:21928
        31 002623   002647 710000 31                 TRA     s:21928
        31 002624   002647 710000 31                 TRA     s:21928
        31 002625   002647 710000 31                 TRA     s:21928
        31 002626   002647 710000 31                 TRA     s:21928
        31 002627   002647 710000 31                 TRA     s:21928
        31 002630   002647 710000 31                 TRA     s:21928
        31 002631   002647 710000 31                 TRA     s:21928
        31 002632   002647 710000 31                 TRA     s:21928
        31 002633   002647 710000 31                 TRA     s:21928
        31 002634   002647 710000 31                 TRA     s:21928
        31 002635   002647 710000 31                 TRA     s:21928
PL6.E3A0      #002=Z9EY$RECEIVE_STMT File=Z9EY.:Z8A6TSI                          SAT 08/09/97 13:58 Page:164
        31 002636   002637 710000 31                 TRA     s:21921

      951    21920    5                CASE (%RSV_WRD_ESI);

      952    21921    5                  MKCN.CON = %ESI_CODE;

  21921 31 002637   000001 235007                    LDA     1,DL
        31 002640   000000 755000 25                 STA     MKCN
        31 002641   002647 710000 31                 TRA     s:21928

      953    21922    5                CASE (%RSV_WRD_EMI);

      954    21923    5                  MKCN.CON = %EMI_CODE;

  21923 31 002642   000002 235007                    LDA     2,DL
        31 002643   000000 755000 25                 STA     MKCN
        31 002644   002647 710000 31                 TRA     s:21928

      955    21924    5                CASE (%RSV_WRD_EGI);

      956    21925    5                  MKCN.CON = %EGI_CODE;

  21925 31 002645   000003 235007                    LDA     3,DL
        31 002646   000000 755000 25                 STA     MKCN

      957    21926    5              END; /* DO CASE */

      958    21927
      959    21928    4              CALL Z8AC$MAKE_CONST ( WITH_ETT$);

  21928 31 002647   200034 631500                    EPPR1   WITH_ETT$,,AUTO
        31 002650   200134 451500                    STP1    NEW_DNT$+2,,AUTO
        31 002651   200134 630500                    EPPR0   NEW_DNT$+2,,AUTO
        31 002652   000012 631400 32                 EPPR1   10
        31 002653   000000 701000 xent               TSX1    Z8AC$MAKE_CONST
        31 002654   000000 011000                    NOP     0

PL6.E3A0      #002=Z9EY$RECEIVE_STMT File=Z9EY.:Z8A6TSI                          SAT 08/09/97 13:58 Page:165
      960    21929    4            END;

      961    21930
      962    21931    3          IF BEF_AFT_ADV$ -> LX_ITEM.ID ~= %LX_LIST THEN

  21931 31 002655   200012 470500                    LDP0    BEF_AFT_ADV$,,AUTO
        31 002656   000000 220100                    LDX0    0,,PR0
        31 002657   000002 100003                    CMPX0   2,DU
        31 002660   002676 600000 31                 TZE     s:21941

      963    21932    4            DO;

      964    21933    4              AFTER_SET.VALUE = 1;

  21933 31 002661   000001 235007                    LDA     1,DL
        31 002662   200125 755100                    STA     AFTER_SET,,AUTO

      965    21934    4              AFTER_SET.B.AFTER = TRUE;

  21934 31 002663   400000 236003                    LDQ     -131072,DU
        31 002664   200125 256100                    ORSQ    AFTER_SET,,AUTO

      966    21935    4              MKCN.CON = AFTER_SET.VALUE;

  21935 31 002665   200125 235100                    LDA     AFTER_SET,,AUTO
        31 002666   000000 755000 25                 STA     MKCN

      967    21936
      968    21937    4              CALL Z8AC$MAKE_CONST (ADV_ETT$);

  21937 31 002667   200035 631500                    EPPR1   ADV_ETT$,,AUTO
        31 002670   200134 451500                    STP1    NEW_DNT$+2,,AUTO
        31 002671   200134 630500                    EPPR0   NEW_DNT$+2,,AUTO
        31 002672   000012 631400 32                 EPPR1   10
        31 002673   000000 701000 xent               TSX1    Z8AC$MAKE_CONST
        31 002674   000000 011000                    NOP     0

PL6.E3A0      #002=Z9EY$RECEIVE_STMT File=Z9EY.:Z8A6TSI                          SAT 08/09/97 13:58 Page:166
      969    21938    4            END;

  21938 31 002675   003370 710000 31                 TRA     s:22162

      970    21939    3          ELSE
      971    21940    4            DO;

      972    21941    4              IF BEF_AFT_ADV$ -> LX_LIST.HEAD$ -> LX_TERMINAL.SYMBOL = %RSV_WRD_AFTER
             21941                       THEN

  21941 31 002676   000004 471500                    LDP1    4,,PR0
        31 002677   100003 235100                    LDA     3,,PR1
        31 002700   000044 115007                    CMPA    36,DL
        31 002701   002705 601000 31                 TNZ     s:21944

      973    21942    4                ADV_AFTER = TRUE;

  21942 31 002702   400000 236003                    LDQ     -131072,DU
        31 002703   200030 756100                    STQ     ADV_AFTER,,AUTO
        31 002704   002706 710000 31                 TRA     s:21946

      974    21943    4              ELSE
      975    21944    4                ADV_AFTER = FALSE;

  21944 31 002705   200030 450100                    STZ     ADV_AFTER,,AUTO

      976    21945
      977    21946    5              DO CASE (BEF_AFT_ADV$ -> LX_LIST.TAIL$ -> LX_TERMINAL.ID);

  21946 31 002706   000001 473500                    LDP3    1,,PR0
        31 002707   300000 221100                    LDX1    0,,PR3
        31 002710   000005 101003                    CMPX1   5,DU
        31 002711   002713 602011 31                 TNC     s:21946+5,X1
        31 002712   003370 710000 31                 TRA     s:22162
        31 002713   002720 710000 31                 TRA     s:21948
        31 002714   003351 710000 31                 TRA     s:22136
        31 002715   003351 710000 31                 TRA     s:22136
PL6.E3A0      #002=Z9EY$RECEIVE_STMT File=Z9EY.:Z8A6TSI                          SAT 08/09/97 13:58 Page:167
        31 002716   003351 710000 31                 TRA     s:22136
        31 002717   003003 710000 31                 TRA     s:21979

      978    21947    5                CASE (%LX_TERMINAL);

      979    21948    6                  DO SELECT (BEF_AFT_ADV$ -> LX_LIST.TAIL$ -> LX_TERMINAL.SYMBOL);

  21948 31 002720   300003 235100                    LDA     3,,PR3
        31 002721   000513 115007                    CMPA    331,DL
        31 002722   002745 601000 31                 TNZ     s:21960
        31 002723   002724 710000 31                 TRA     s:21950

      980    21949    6                    SELECT (%RSV_WRD_PAGE);

      981    21950    6                      AFTER_SET.VALUE = -1;

  21950 31 002724   000001 336007                    LCQ     1,DL
        31 002725   200125 756100                    STQ     AFTER_SET,,AUTO

      982    21951    6                      AFTER_SET.B.TAIL = 0;

  21951 31 002726   000000 222003                    LDX2    0,DU
        31 002727   200125 442100                    SXL2    AFTER_SET,,AUTO

      983    21952    6                      IF ADV_AFTER = FALSE THEN

  21952 31 002730   200030 234100                    SZN     ADV_AFTER,,AUTO
        31 002731   002734 604000 31                 TMI     s:21955

      984    21953    6                        AFTER_SET.B.AFTER = FALSE;

  21953 31 002732   000057 236000 32                 LDQ     47
        31 002733   200125 356100                    ANSQ    AFTER_SET,,AUTO

      985    21954
      986    21955    6                      MKCN.CON = AFTER_SET.VALUE;

PL6.E3A0      #002=Z9EY$RECEIVE_STMT File=Z9EY.:Z8A6TSI                          SAT 08/09/97 13:58 Page:168
  21955 31 002734   200125 236100                    LDQ     AFTER_SET,,AUTO
        31 002735   000000 756000 25                 STQ     MKCN

      987    21956
      988    21957    6                      CALL Z8AC$MAKE_CONST(ADV_ETT$);

  21957 31 002736   200035 634500                    EPPR4   ADV_ETT$,,AUTO
        31 002737   200134 454500                    STP4    NEW_DNT$+2,,AUTO
        31 002740   200134 630500                    EPPR0   NEW_DNT$+2,,AUTO
        31 002741   000012 631400 32                 EPPR1   10
        31 002742   000000 701000 xent               TSX1    Z8AC$MAKE_CONST
        31 002743   000000 011000                    NOP     0
        31 002744   003370 710000 31                 TRA     s:22162

      989    21958
      990    21959    6                    SELECT (ELSE);

      991    21960    6                      CALL Z8CO$CHECK_NON_NEG_INT_TERM (BEF_AFT_ADV$ -> LX_LIST.TAIL$)

  21960 31 002745   200012 236100                    LDQ     BEF_AFT_ADV$,,AUTO
        31 002746   000001 036003                    ADLQ    1,DU
        31 002747   200134 756100                    STQ     NEW_DNT$+2,,AUTO
        31 002750   200134 630500                    EPPR0   NEW_DNT$+2,,AUTO
        31 002751   000012 631400 32                 EPPR1   10
        31 002752   000000 701000 xent               TSX1    Z8CO$CHECK_NON_NEG_INT_TERM
        31 002753   002764 702000 31                 TSX2    s:21968

      992    21961    6                        WHENRETURN
      993    21962    7                          DO;

      994    21963    7                            CALL CHARBIN (AFTER_SET.VALUE,

  21963 31 002754   200012 470500                    LDP0    BEF_AFT_ADV$,,AUTO
        31 002755   000001 471500                    LDP1    1,,PR0
        31 002756   100002 473500                    LDP3    2,,PR1
        31 002757   300004 220100                    LDX0    4,,PR3
        31 002760   000100 305540                    DTB
PL6.E3A0      #002=Z9EY$RECEIVE_STMT File=Z9EY.:Z8A6TSI                          SAT 08/09/97 13:58 Page:169
        31 002761   300004 430010                    NDSC9   4,,PR3                   cn=2,s=nosgn,sf=0,n=*X0
        31 002762   200125 000004                    NDSC9   AFTER_SET,,AUTO          cn=0,s=lsgnf,sf=0,n=4

      995    21964    7                              BEF_AFT_ADV$ -> LX_LIST.TAIL$ -> LX_TERMINAL.DNT$ -> DNT
             21964                                        .TEXT.NAME);
      996    21965    7                          END;

  21965 31 002763   002766 710000 31                 TRA     s:21971

      997    21966    6                        WHENALTRETURN
      998    21967    7                          DO;

      999    21968    7                            AFTER_SET.VALUE = 1;

  21968 31 002764   000001 235007                    LDA     1,DL
        31 002765   200125 755100                    STA     AFTER_SET,,AUTO

     1000    21969    7                          END;

     1001    21970
     1002    21971    6                      IF ADV_AFTER THEN

  21971 31 002766   200030 234100                    SZN     ADV_AFTER,,AUTO
        31 002767   002772 605000 31                 TPL     s:21973

     1003    21972    6                        AFTER_SET.B.AFTER = TRUE;

  21972 31 002770   400000 236003                    LDQ     -131072,DU
        31 002771   200125 256100                    ORSQ    AFTER_SET,,AUTO

     1004    21973    6                      MKCN.CON = AFTER_SET.VALUE;

  21973 31 002772   200125 235100                    LDA     AFTER_SET,,AUTO
        31 002773   000000 755000 25                 STA     MKCN

     1005    21974
     1006    21975    6                      CALL Z8AC$MAKE_CONST (ADV_ETT$);
PL6.E3A0      #002=Z9EY$RECEIVE_STMT File=Z9EY.:Z8A6TSI                          SAT 08/09/97 13:58 Page:170

  21975 31 002774   200035 630500                    EPPR0   ADV_ETT$,,AUTO
        31 002775   200134 450500                    STP0    NEW_DNT$+2,,AUTO
        31 002776   200134 630500                    EPPR0   NEW_DNT$+2,,AUTO
        31 002777   000012 631400 32                 EPPR1   10
        31 003000   000000 701000 xent               TSX1    Z8AC$MAKE_CONST
        31 003001   000000 011000                    NOP     0

     1007    21976    6                  END; /* do select */

  21976 31 003002   003370 710000 31                 TRA     s:22162

     1008    21977
     1009    21978    5              CASE (%LX_ETT_ITEM);

     1010    21979    5                IF BEF_AFT_ADV$ -> LX_LIST.TAIL$ -> LX_ETT_ITEM.TYPE ~= %TYG THEN

  21979 31 003003   300004 235100                    LDA     4,,PR3
        31 003004   000020 115007                    CMPA    16,DL
        31 003005   003247 600000 31                 TZE     s:22103

     1011    21980    6                  DO;

     1012    21981    6                    CALL Z8CO$INTEGER_CHECK (BEF_AFT_ADV$ -> LX_LIST.TAIL$)

  21981 31 003006   200012 236100                    LDQ     BEF_AFT_ADV$,,AUTO
        31 003007   000001 036003                    ADLQ    1,DU
        31 003010   200134 756100                    STQ     NEW_DNT$+2,,AUTO
        31 003011   200134 630500                    EPPR0   NEW_DNT$+2,,AUTO
        31 003012   000012 631400 32                 EPPR1   10
        31 003013   000000 701000 xent               TSX1    Z8CO$INTEGER_CHECK
        31 003014   003230 702000 31                 TSX2    s:22091

     1013    21982    6                      WHENRETURN
     1014    21983    7                        DO;

     1015    21984    7                          IF ADV_AFTER OR
PL6.E3A0      #002=Z9EY$RECEIVE_STMT File=Z9EY.:Z8A6TSI                          SAT 08/09/97 13:58 Page:171

  21984 31 003015   200030 234100                    SZN     ADV_AFTER,,AUTO
        31 003016   003024 604000 31                 TMI     s:21987
        31 003017   200012 470500                    LDP0    BEF_AFT_ADV$,,AUTO
        31 003020   000001 471500                    LDP1    1,,PR0
        31 003021   100004 235100                    LDA     4,,PR1
        31 003022   000001 115007                    CMPA    1,DL
        31 003023   003225 600000 31                 TZE     s:22086

     1016    21985    7                            BEF_AFT_ADV$ -> LX_LIST.TAIL$ -> LX_ETT_ITEM.TYPE ~= %TYI
             21985                                     THEN
     1017    21986    8                            DO;

     1018    21987    8                              CALL Z8AT$CREATE_TEMPORARY (%SCALAR, INT_VAR$);

  21987 31 003024   200123 630500                    EPPR0   INT_VAR$,,AUTO
        31 003025   200135 450500                    STP0    NEW_DNT$+3,,AUTO
        31 003026   000035 236000 32                 LDQ     29
        31 003027   200134 756100                    STQ     NEW_DNT$+2,,AUTO
        31 003030   200134 630500                    EPPR0   NEW_DNT$+2,,AUTO
        31 003031   000010 631400 32                 EPPR1   8
        31 003032   000000 701000 xent               TSX1    Z8AT$CREATE_TEMPORARY
        31 003033   000000 011000                    NOP     0

     1019    21988    8                              INT_VAR$ -> VARIABLE.TYPE = %TYI;

  21988 31 003034   000001 220003                    LDX0    1,DU
        31 003035   200123 470500                    LDP0    INT_VAR$,,AUTO
        31 003036   000002 740100                    STX0    2,,PR0

     1020    21989    8                              INT_VAR$ -> VARIABLE.NDSC.N = 4;

  21989 31 003037   200123 470500                    LDP0    INT_VAR$,,AUTO
        31 003040   000004 236007                    LDQ     4,DL
        31 003041   000001 752101                    STCQ    1,'01'O,PR0

     1021    21990    8                              INT_VAR$ -> VARIABLE.NDSC.S = '11'B;
PL6.E3A0      #002=Z9EY$RECEIVE_STMT File=Z9EY.:Z8A6TSI                          SAT 08/09/97 13:58 Page:172

  21990 31 003042   200123 470500                    LDP0    INT_VAR$,,AUTO
        31 003043   030000 236007                    LDQ     12288,DL
        31 003044   000001 256100                    ORSQ    1,,PR0

     1022    21991    8                              INT_VAR$ -> VARIABLE.B.CLASS = %CLASS_NUMERIC;

  21991 31 003045   200123 470500                    LDP0    INT_VAR$,,AUTO
        31 003046   000003 236100                    LDQ     3,,PR0
        31 003047   000036 376000 32                 ANQ     30
        31 003050   000001 276007                    ORQ     1,DL
        31 003051   000003 756100                    STQ     3,,PR0

     1023    21992    8                              CALL Z8AF$NEW_BASE (INT_VAR$,

  21992 31 003052   000000 236000 32                 LDQ     0
        31 003053   200134 756100                    STQ     NEW_DNT$+2,,AUTO
        31 003054   200035 630500                    EPPR0   ADV_ETT$,,AUTO
        31 003055   200137 450500                    STP0    NEW_DNT$+5,,AUTO
        31 003056   200134 631500                    EPPR1   NEW_DNT$+2,,AUTO
        31 003057   200136 451500                    STP1    NEW_DNT$+4,,AUTO
        31 003060   200123 633500                    EPPR3   INT_VAR$,,AUTO
        31 003061   200135 453500                    STP3    NEW_DNT$+3,,AUTO
        31 003062   200135 630500                    EPPR0   NEW_DNT$+3,,AUTO
        31 003063   000001 631400 32                 EPPR1   1
        31 003064   000000 701000 xent               TSX1    Z8AF$NEW_BASE
        31 003065   000000 011000                    NOP     0

     1024    21993    8                                                  ADDR(NIL),
     1025    21994    8                                                  ADV_ETT$);
     1026    21995
     1027    21996                                   %INIT_LX_ETT_ITEM (@POINTER = "ADDR(INT_LX_ETT)",
     1028    21997                                                      @ETT$ = ADV_ETT$,
     1029    21998                                                      @TYPE = %TYI);

  22000 31 003066   000004 220003                    LDX0    4,DU
        31 003067   200112 740100                    STX0    INT_LX_ETT,,AUTO
PL6.E3A0      #002=Z9EY$RECEIVE_STMT File=Z9EY.:Z8A6TSI                          SAT 08/09/97 13:58 Page:173

  22001 31 003070   000000 221003                    LDX1    0,DU
        31 003071   200112 441100                    SXL1    INT_LX_ETT,,AUTO

  22002 31 003072   000001 235007                    LDA     1,DL
        31 003073   200116 755100                    STA     INT_LX_ETT+4,,AUTO

  22003 31 003074   000000 236000 32                 LDQ     0
        31 003075   200121 756100                    STQ     INT_LX_ETT+7,,AUTO

  22004 31 003076   200035 236100                    LDQ     ADV_ETT$,,AUTO
        31 003077   200113 756100                    STQ     INT_LX_ETT+1,,AUTO

  22005 31 003100   000000 236000 32                 LDQ     0
        31 003101   200114 756100                    STQ     INT_LX_ETT+2,,AUTO

  22007 31 003102   000133 235000 xsym               LDA     COMCOM+91
        31 003103   200117 755100                    STA     INT_LX_ETT+5,,AUTO

  22008 31 003104   000134 235000 xsym               LDA     COMCOM+92
        31 003105   200120 755100                    STA     INT_LX_ETT+6,,AUTO

     1030    22020
     1031    22021    8                              CALL Z8E7$MOVE (ADDR(INT_LX_ETT),

  22021 31 003106   200112 630500                    EPPR0   INT_LX_ETT,,AUTO
        31 003107   200134 450500                    STP0    NEW_DNT$+2,,AUTO
        31 003110   200012 236100                    LDQ     BEF_AFT_ADV$,,AUTO
        31 003111   000001 036003                    ADLQ    1,DU
        31 003112   200137 756100                    STQ     NEW_DNT$+5,,AUTO
        31 003113   200134 631500                    EPPR1   NEW_DNT$+2,,AUTO
        31 003114   200136 451500                    STP1    NEW_DNT$+4,,AUTO
        31 003115   200136 630500                    EPPR0   NEW_DNT$+4,,AUTO
        31 003116   000010 631400 32                 EPPR1   8
        31 003117   000000 701000 xent               TSX1    Z8E7$MOVE
        31 003120   000000 011000                    NOP     0

PL6.E3A0      #002=Z9EY$RECEIVE_STMT File=Z9EY.:Z8A6TSI                          SAT 08/09/97 13:58 Page:174
     1032    22022    8                                   BEF_AFT_ADV$ -> LX_LIST.TAIL$);
     1033    22023
     1034    22024    8                              IF ADV_AFTER THEN

  22024 31 003121   200030 234100                    SZN     ADV_AFTER,,AUTO
        31 003122   003227 605000 31                 TPL     s:22088

     1035    22025    9                                DO;

     1036    22026    9                                  AFTER_SET.VALUE = 0;

  22026 31 003123   200125 450100                    STZ     AFTER_SET,,AUTO

     1037    22027    9                                  AFTER_SET.B.AFTER = TRUE;

  22027 31 003124   400000 236003                    LDQ     -131072,DU
        31 003125   200125 256100                    ORSQ    AFTER_SET,,AUTO

     1038    22028    9                                  MKCN.CON = AFTER_SET.VALUE;

  22028 31 003126   200125 235100                    LDA     AFTER_SET,,AUTO
        31 003127   000000 755000 25                 STA     MKCN

     1039    22029    9                                  CALL Z8AC$MAKE_CONST (CONST_ETT$);

  22029 31 003130   200122 630500                    EPPR0   CONST_ETT$,,AUTO
        31 003131   200134 450500                    STP0    NEW_DNT$+2,,AUTO
        31 003132   200134 630500                    EPPR0   NEW_DNT$+2,,AUTO
        31 003133   000012 631400 32                 EPPR1   10
        31 003134   000000 701000 xent               TSX1    Z8AC$MAKE_CONST
        31 003135   000000 011000                    NOP     0

     1040    22030
     1041    22031                                       %INIT_LX_ETT_ITEM(@POINTER = "ADDR(AFTER_FIELD)",
     1042    22032                                                         @TYPE = %TYI,
     1043    22033                                                         @ETT$ = CONST_ETT$);

PL6.E3A0      #002=Z9EY$RECEIVE_STMT File=Z9EY.:Z8A6TSI                          SAT 08/09/97 13:58 Page:175
  22035 31 003136   000004 220003                    LDX0    4,DU
        31 003137   200062 740100                    STX0    AFTER_FIELD,,AUTO

  22036 31 003140   000000 221003                    LDX1    0,DU
        31 003141   200062 441100                    SXL1    AFTER_FIELD,,AUTO

  22037 31 003142   000001 235007                    LDA     1,DL
        31 003143   200066 755100                    STA     AFTER_FIELD+4,,AUTO

  22038 31 003144   000000 236000 32                 LDQ     0
        31 003145   200071 756100                    STQ     AFTER_FIELD+7,,AUTO

  22039 31 003146   200122 236100                    LDQ     CONST_ETT$,,AUTO
        31 003147   200063 756100                    STQ     AFTER_FIELD+1,,AUTO

  22040 31 003150   000000 236000 32                 LDQ     0
        31 003151   200064 756100                    STQ     AFTER_FIELD+2,,AUTO

  22042 31 003152   000133 235000 xsym               LDA     COMCOM+91
        31 003153   200067 755100                    STA     AFTER_FIELD+5,,AUTO

  22043 31 003154   000134 235000 xsym               LDA     COMCOM+92
        31 003155   200070 755100                    STA     AFTER_FIELD+6,,AUTO

     1044    22055
     1045    22056                                       %INIT_BINARY_OP (@POINTER = "ADDR(OP_NODE)",
     1046    22057                                                        @ROP$ = "ADDR(AFTER_FIELD)",
     1047    22058                                                        @LOP$ = "ADDR(INT_LX_ETT)",
     1048    22059                                                        @OP = %OP_PLUS);

  22061 31 003156   000005 222003                    LDX2    5,DU
        31 003157   200072 742100                    STX2    OP_NODE,,AUTO

  22062 31 003160   200072 441100                    SXL1    OP_NODE,,AUTO

  22069 31 003161   000133 235000 xsym               LDA     COMCOM+91
        31 003162   200077 755100                    STA     OP_NODE+5,,AUTO
PL6.E3A0      #002=Z9EY$RECEIVE_STMT File=Z9EY.:Z8A6TSI                          SAT 08/09/97 13:58 Page:176

  22070 31 003163   000134 235000 xsym               LDA     COMCOM+92
        31 003164   200100 755100                    STA     OP_NODE+6,,AUTO

  22071 31 003165   200062 630500                    EPPR0   AFTER_FIELD,,AUTO
        31 003166   200074 450500                    STP0    OP_NODE+2,,AUTO

  22072 31 003167   200112 631500                    EPPR1   INT_LX_ETT,,AUTO
        31 003170   200073 451500                    STP1    OP_NODE+1,,AUTO

  22073 31 003171   000020 235007                    LDA     16,DL
        31 003172   200075 755100                    STA     OP_NODE+3,,AUTO

  22074 31 003173   200101 756100                    STQ     OP_NODE+7,,AUTO

     1049    22077    9                                  CALL Z8E5$MATH_PACK (ADDR(OP_NODE),

  22077 31 003174   200072 633500                    EPPR3   OP_NODE,,AUTO
        31 003175   200134 453500                    STP3    NEW_DNT$+2,,AUTO
        31 003176   200102 634500                    EPPR4   ETT_ITEM,,AUTO
        31 003177   200135 454500                    STP4    NEW_DNT$+3,,AUTO
        31 003200   200135 635500                    EPPR5   NEW_DNT$+3,,AUTO
        31 003201   200137 455500                    STP5    NEW_DNT$+5,,AUTO
        31 003202   200134 636500                    EPPR6   NEW_DNT$+2,,AUTO
        31 003203   200136 456500                    STP6    NEW_DNT$+4,,AUTO
        31 003204   200136 630500                    EPPR0   NEW_DNT$+4,,AUTO
        31 003205   000010 631400 32                 EPPR1   8
        31 003206   000000 701000 xent               TSX1    Z8E5$MATH_PACK
        31 003207   000000 011000                    NOP     0

     1050    22078    9                                                       ADDR(ETT_ITEM));
     1051    22079
     1052    22080    9                                  CALL Z8E7$MOVE (ADDR(INT_LX_ETT),

  22080 31 003210   200112 630500                    EPPR0   INT_LX_ETT,,AUTO
        31 003211   200134 450500                    STP0    NEW_DNT$+2,,AUTO
        31 003212   200102 631500                    EPPR1   ETT_ITEM,,AUTO
PL6.E3A0      #002=Z9EY$RECEIVE_STMT File=Z9EY.:Z8A6TSI                          SAT 08/09/97 13:58 Page:177
        31 003213   200135 451500                    STP1    NEW_DNT$+3,,AUTO
        31 003214   200135 633500                    EPPR3   NEW_DNT$+3,,AUTO
        31 003215   200137 453500                    STP3    NEW_DNT$+5,,AUTO
        31 003216   200134 634500                    EPPR4   NEW_DNT$+2,,AUTO
        31 003217   200136 454500                    STP4    NEW_DNT$+4,,AUTO
        31 003220   200136 630500                    EPPR0   NEW_DNT$+4,,AUTO
        31 003221   000010 631400 32                 EPPR1   8
        31 003222   000000 701000 xent               TSX1    Z8E7$MOVE
        31 003223   000000 011000                    NOP     0

     1053    22081    9                                                  ADDR(ETT_ITEM));
     1054    22082    9                                END;  /*  IF ADV_AFTER */

     1055    22083    8                            END; /* IF ... ~= %TYI */

  22083 31 003224   003227 710000 31                 TRA     s:22088

     1056    22084    7                          ELSE
     1057    22085    8                            DO;

     1058    22086    8                              ADV_ETT$ = BEF_AFT_ADV$ -> LX_LIST.TAIL$ ->LX_ETT_ITEM.
             22086                                       ETT$;

  22086 31 003225   100001 236100                    LDQ     1,,PR1
        31 003226   200035 756100                    STQ     ADV_ETT$,,AUTO

     1059    22087    8                            END;

     1060    22088    7                      END; /* WHENRETURN DO */

  22088 31 003227   003246 710000 31                 TRA     s:22097

     1061    22089    6                    WHENALTRETURN
     1062    22090    7                      DO;

     1063    22091    7                        AFTER_SET.VALUE = 1;

PL6.E3A0      #002=Z9EY$RECEIVE_STMT File=Z9EY.:Z8A6TSI                          SAT 08/09/97 13:58 Page:178
  22091 31 003230   000001 235007                    LDA     1,DL
        31 003231   200125 755100                    STA     AFTER_SET,,AUTO

     1064    22092    7                        IF ADV_AFTER THEN

  22092 31 003232   200030 234100                    SZN     ADV_AFTER,,AUTO
        31 003233   003236 605000 31                 TPL     s:22094

     1065    22093    7                          AFTER_SET.B.AFTER = TRUE;

  22093 31 003234   400000 236003                    LDQ     -131072,DU
        31 003235   200125 256100                    ORSQ    AFTER_SET,,AUTO

     1066    22094    7                        MKCN.CON = AFTER_SET.VALUE;

  22094 31 003236   200125 236100                    LDQ     AFTER_SET,,AUTO
        31 003237   000000 756000 25                 STQ     MKCN

     1067    22095    7                        CALL Z8AC$MAKE_CONST (ADV_ETT$);

  22095 31 003240   200035 630500                    EPPR0   ADV_ETT$,,AUTO
        31 003241   200134 450500                    STP0    NEW_DNT$+2,,AUTO
        31 003242   200134 630500                    EPPR0   NEW_DNT$+2,,AUTO
        31 003243   000012 631400 32                 EPPR1   10
        31 003244   000000 701000 xent               TSX1    Z8AC$MAKE_CONST
        31 003245   000000 011000                    NOP     0

     1068    22096    7                      END;

     1069    22097    6                  END;  /* IF .... ~= %TYG THEN DO */

  22097 31 003246   003370 710000 31                 TRA     s:22162

     1070    22098    5                ELSE
     1071    22099    6                  DO;

     1072    22100                         %FISH (TRIAD = BEF_AFT_ADV$ -> LX_LIST.TAIL$ -> LX_ETT_ITEM.ETT$,
PL6.E3A0      #002=Z9EY$RECEIVE_STMT File=Z9EY.:Z8A6TSI                          SAT 08/09/97 13:58 Page:179
     1073    22101                                RTN = MNE_ST$);

  22103 31 003247   300001 236100                    LDQ     1,,PR3
        31 003250   200031 756100                    STQ     MNE_ST$,,AUTO

  22104 31 003251   200031 474500                    LDP4    MNE_ST$,,AUTO
        31 003252   400000 222100                    LDX2    0,,PR4
        31 003253   000751 102003                    CMPX2   489,DU
        31 003254   003264 603000 31                 TRC     s:22110

  22105 31 003255   200031 470500                    LDP0    MNE_ST$,,AUTO
        31 003256   000001 236100                    LDQ     1,,PR0
        31 003257   200031 756100                    STQ     MNE_ST$,,AUTO

  22106 31 003260   200031 470500                    LDP0    MNE_ST$,,AUTO
        31 003261   000000 220100                    LDX0    0,,PR0
        31 003262   000751 100003                    CMPX0   489,DU
        31 003263   003255 602000 31                 TNC     s:22105

     1074    22109
     1075    22110    6                    IF MNE_ST$ -> ST.ID = %MNEMONIC AND

  22110 31 003264   200031 470500                    LDP0    MNE_ST$,,AUTO
        31 003265   000000 220100                    LDX0    0,,PR0
        31 003266   000761 100003                    CMPX0   497,DU
        31 003267   003317 601000 31                 TNZ     s:22123
        31 003270   000003 236100                    LDQ     3,,PR0
        31 003271   100000 316003                    CANQ    32768,DU
        31 003272   003317 600000 31                 TZE     s:22123
        31 003273   000001 235100                    LDA     1,,PR0
        31 003274   000513 115007                    CMPA    331,DL
        31 003275   003317 601000 31                 TNZ     s:22123

     1076    22111    6                      MNE_ST$ -> MNEMONIC.B.MNEMONIC_NAME AND
     1077    22112    6                      MNE_ST$ -> MNEMONIC.NAME = %RSV_WRD_PAGE THEN
     1078    22113    7                      DO;

PL6.E3A0      #002=Z9EY$RECEIVE_STMT File=Z9EY.:Z8A6TSI                          SAT 08/09/97 13:58 Page:180
     1079    22114    7                        AFTER_SET.VALUE = -1;

  22114 31 003276   000001 335007                    LCA     1,DL
        31 003277   200125 755100                    STA     AFTER_SET,,AUTO

     1080    22115    7                        AFTER_SET.B.TAIL = 0;

  22115 31 003300   000000 221003                    LDX1    0,DU
        31 003301   200125 441100                    SXL1    AFTER_SET,,AUTO

     1081    22116    7                        IF ADV_AFTER = FALSE THEN

  22116 31 003302   200030 234100                    SZN     ADV_AFTER,,AUTO
        31 003303   003306 604000 31                 TMI     s:22118

     1082    22117    7                          AFTER_SET.B.AFTER = FALSE;

  22117 31 003304   000057 236000 32                 LDQ     47
        31 003305   200125 356100                    ANSQ    AFTER_SET,,AUTO

     1083    22118    7                        MKCN.CON = AFTER_SET.VALUE;

  22118 31 003306   200125 236100                    LDQ     AFTER_SET,,AUTO
        31 003307   000000 756000 25                 STQ     MKCN

     1084    22119    7                        CALL Z8AC$MAKE_CONST (ADV_ETT$);

  22119 31 003310   200035 631500                    EPPR1   ADV_ETT$,,AUTO
        31 003311   200134 451500                    STP1    NEW_DNT$+2,,AUTO
        31 003312   200134 630500                    EPPR0   NEW_DNT$+2,,AUTO
        31 003313   000012 631400 32                 EPPR1   10
        31 003314   000000 701000 xent               TSX1    Z8AC$MAKE_CONST
        31 003315   000000 011000                    NOP     0

     1085    22120    7                      END;

  22120 31 003316   003370 710000 31                 TRA     s:22162
PL6.E3A0      #002=Z9EY$RECEIVE_STMT File=Z9EY.:Z8A6TSI                          SAT 08/09/97 13:58 Page:181

     1086    22121    6                    ELSE
     1087    22122    7                      DO;

     1088    22123    7                        CALL Z8AE$ERROR (%E$INVALID_ADVANCING_TYPE,

  22123 31 003317   200012 471500                    LDP1    BEF_AFT_ADV$,,AUTO
        31 003320   100001 473500                    LDP3    1,,PR1
        31 003321   300006 634500                    EPPR4   6,,PR3
        31 003322   200136 454500                    STP4    NEW_DNT$+4,,AUTO
        31 003323   300005 635500                    EPPR5   5,,PR3
        31 003324   200135 455500                    STP5    NEW_DNT$+3,,AUTO
        31 003325   000061 236000 32                 LDQ     49
        31 003326   200134 756100                    STQ     NEW_DNT$+2,,AUTO
        31 003327   200134 630500                    EPPR0   NEW_DNT$+2,,AUTO
        31 003330   000001 631400 32                 EPPR1   1
        31 003331   000000 701000 xent               TSX1    Z8AE$ERROR
        31 003332   000000 011000                    NOP     0

     1089    22124    7                               BEF_AFT_ADV$ -> LX_LIST.TAIL$ -> LX_ETT_ITEM.LINE,
     1090    22125    7                               BEF_AFT_ADV$ -> LX_LIST.TAIL$ -> LX_ETT_ITEM.COLUMN);
     1091    22126
     1092    22127    7                        AFTER_SET.VALUE = 1;

  22127 31 003333   000001 235007                    LDA     1,DL
        31 003334   200125 755100                    STA     AFTER_SET,,AUTO

     1093    22128    7                        IF ADV_AFTER THEN

  22128 31 003335   200030 234100                    SZN     ADV_AFTER,,AUTO
        31 003336   003341 605000 31                 TPL     s:22130

     1094    22129    7                          AFTER_SET.B.AFTER = FALSE;

  22129 31 003337   000057 236000 32                 LDQ     47
        31 003340   200125 356100                    ANSQ    AFTER_SET,,AUTO

PL6.E3A0      #002=Z9EY$RECEIVE_STMT File=Z9EY.:Z8A6TSI                          SAT 08/09/97 13:58 Page:182
     1095    22130    7                        MKCN.CON = AFTER_SET.VALUE;

  22130 31 003341   200125 236100                    LDQ     AFTER_SET,,AUTO
        31 003342   000000 756000 25                 STQ     MKCN

     1096    22131    7                        CALL Z8AC$MAKE_CONST (ADV_ETT$);

  22131 31 003343   200035 630500                    EPPR0   ADV_ETT$,,AUTO
        31 003344   200134 450500                    STP0    NEW_DNT$+2,,AUTO
        31 003345   200134 630500                    EPPR0   NEW_DNT$+2,,AUTO
        31 003346   000012 631400 32                 EPPR1   10
        31 003347   000000 701000 xent               TSX1    Z8AC$MAKE_CONST
        31 003350   000000 011000                    NOP     0

     1097    22132    7                      END;

     1098    22133    6                  END; /*  IF ... ~= %TYG THEN ... ELSE DO */

     1099    22134    5              END; /* DO CASE */

     1100    22135    4          END; /* IF ... = %EMPTY  THEN... ELSE DO */

     1101    22136    3        END; /* IF SEND_WITH$ ~= ADDR(NIL) THEN DO */

  22136 31 003351   003370 710000 31                 TRA     s:22162

     1102    22137    2      ELSE
     1103    22138    3        DO;  /* SEND_WITH$ = ADDR(NIL) */

     1104    22139    3          WITH_ETT$ = COMCOM.VALUE_0;

  22139 31 003352   000124 236000 xsym               LDQ     COMCOM+84
        31 003353   200034 756100                    STQ     WITH_ETT$,,AUTO

     1105    22140    3          AFTER_SET.VALUE = 1;

  22140 31 003354   000001 235007                    LDA     1,DL
PL6.E3A0      #002=Z9EY$RECEIVE_STMT File=Z9EY.:Z8A6TSI                          SAT 08/09/97 13:58 Page:183
        31 003355   200125 755100                    STA     AFTER_SET,,AUTO

     1106    22141    3          AFTER_SET.B.AFTER = TRUE;

  22141 31 003356   400000 236003                    LDQ     -131072,DU
        31 003357   200125 256100                    ORSQ    AFTER_SET,,AUTO

     1107    22142    3          MKCN.CON = AFTER_SET.VALUE;

  22142 31 003360   200125 235100                    LDA     AFTER_SET,,AUTO
        31 003361   000000 755000 25                 STA     MKCN

     1108    22143    3          CALL Z8AC$MAKE_CONST(ADV_ETT$);

  22143 31 003362   200035 630500                    EPPR0   ADV_ETT$,,AUTO
        31 003363   200134 450500                    STP0    NEW_DNT$+2,,AUTO
        31 003364   200134 630500                    EPPR0   NEW_DNT$+2,,AUTO
        31 003365   000012 631400 32                 EPPR1   10
        31 003366   000000 701000 xent               TSX1    Z8AC$MAKE_CONST
        31 003367   000000 011000                    NOP     0

     1109    22144    3        END;

     1110    22145
     1111    22146           /*   For GCOS USER_CALL only..
     1112    22147               CALL Z8AT$CREATE_TEMPORARY (%SCALAR, DESC_ST$);
     1113    22148
     1114    22149               DESC_ST$ -> VARIABLE.TYPE = %TYA;
     1115    22150               DESC_ST$ -> VARIABLE.ADSC.N = 4;
     1116    22151               DESC_ST$ -> VARIABLE.B.CLASS = %CLASS_ALPHANUMERIC;
     1117    22152
     1118    22153               %NEW_ILL (@ID   = %P_A_PRESET,
     1119    22154                         @LOP  = WITH_ETT$ -> ETT.LOP,
     1120    22155                         @ROPCON = 4,
     1121    22156                         @TO   = DESC_ST$);
     1122    22157
     1123    22158           */
PL6.E3A0      #002=Z9EY$RECEIVE_STMT File=Z9EY.:Z8A6TSI                          SAT 08/09/97 13:58 Page:184
     1124    22159           /* For GCOS USER_CALL ..
     1125    22160              CALL Z8AF$NEW_BASE (DESC_ST$,
     1126    22161           */
     1127    22162    2          CALL Z8AF$NEW_BASE (WITH_ETT$ -> ETT.LOP,

  22162 31 003370   000000 236000 32                 LDQ     0
        31 003371   200134 756100                    STQ     NEW_DNT$+2,,AUTO
        31 003372   200034 630500                    EPPR0   WITH_ETT$,,AUTO
        31 003373   200137 450500                    STP0    NEW_DNT$+5,,AUTO
        31 003374   200134 631500                    EPPR1   NEW_DNT$+2,,AUTO
        31 003375   200136 451500                    STP1    NEW_DNT$+4,,AUTO
        31 003376   200034 236100                    LDQ     WITH_ETT$,,AUTO
        31 003377   000001 036003                    ADLQ    1,DU
        31 003400   200135 756100                    STQ     NEW_DNT$+3,,AUTO
        31 003401   200135 630500                    EPPR0   NEW_DNT$+3,,AUTO
        31 003402   000001 631400 32                 EPPR1   1
        31 003403   000000 701000 xent               TSX1    Z8AF$NEW_BASE
        31 003404   000000 011000                    NOP     0

     1128    22163    2                              ADDR(NIL),
     1129    22164    2                              WITH_ETT$);
     1130    22165
     1131    22166          /* For GCOS USER_CALL only....
     1132    22167
     1133    22168               CALL Z8AT$CREATE_TEMPORARY (%SCALAR, DESC_ST$);
     1134    22169
     1135    22170               DESC_ST$ -> VARIABLE.TYPE = %TYA;
     1136    22171               DESC_ST$ -> VARIABLE.ADSC.N = 4;
     1137    22172               DESC_ST$ -> VARIABLE.B.CLASS = %CLASS_ALPHANUMERIC;
     1138    22173
     1139    22174               %NEW_ILL (@ID   = %P_A_PRESET,
     1140    22175                         @LOP  = ADV_ETT$ -> ETT.LOP,
     1141    22176                         @ROPCON = 4,
     1142    22177                         @TO   = DESC_ST$);
     1143    22178
     1144    22179          */
     1145    22180          /*  For GCOS USER_CALL .. use
PL6.E3A0      #002=Z9EY$RECEIVE_STMT File=Z9EY.:Z8A6TSI                          SAT 08/09/97 13:58 Page:185
     1146    22181               CALL Z8AF$NEW_BASE (DESC_ST$,
     1147    22182          */
     1148    22183    2          CALL Z8AF$NEW_BASE (ADV_ETT$ -> ETT.LOP,

  22183 31 003405   000000 236000 32                 LDQ     0
        31 003406   200134 756100                    STQ     NEW_DNT$+2,,AUTO
        31 003407   200035 630500                    EPPR0   ADV_ETT$,,AUTO
        31 003410   200137 450500                    STP0    NEW_DNT$+5,,AUTO
        31 003411   200134 631500                    EPPR1   NEW_DNT$+2,,AUTO
        31 003412   200136 451500                    STP1    NEW_DNT$+4,,AUTO
        31 003413   200035 236100                    LDQ     ADV_ETT$,,AUTO
        31 003414   000001 036003                    ADLQ    1,DU
        31 003415   200135 756100                    STQ     NEW_DNT$+3,,AUTO
        31 003416   200135 630500                    EPPR0   NEW_DNT$+3,,AUTO
        31 003417   000001 631400 32                 EPPR1   1
        31 003420   000000 701000 xent               TSX1    Z8AF$NEW_BASE
        31 003421   000000 011000                    NOP     0

     1149    22184    2                              ADDR(NIL),
     1150    22185    2                              ADV_ETT$);
     1151    22186
     1152    22187           %NEW_HEAP (@POINTER = TEMP_ETT$ -> LX_ETT_ITEM.LINK);

  22189 31 003422   000033 236000 32                 LDQ     27
        31 003423   200135 756100                    STQ     NEW_DNT$+3,,AUTO
        31 003424   200024 236100                    LDQ     TEMP_ETT$,,AUTO
        31 003425   000007 036003                    ADLQ    7,DU
        31 003426   200134 756100                    STQ     NEW_DNT$+2,,AUTO
        31 003427   200134 630500                    EPPR0   NEW_DNT$+2,,AUTO
        31 003430   000010 631400 32                 EPPR1   8
        31 003431   000000 701000 xent               TSX1    Z8ED$NEW_HEAP
        31 003432   000000 011000                    NOP     0

     1153    22192
     1154    22193    2      TEMP_ETT$ = TEMP_ETT$ -> LX_ETT_ITEM.LINK;

  22193 31 003433   200024 470500                    LDP0    TEMP_ETT$,,AUTO
PL6.E3A0      #002=Z9EY$RECEIVE_STMT File=Z9EY.:Z8A6TSI                          SAT 08/09/97 13:58 Page:186
        31 003434   000007 236100                    LDQ     7,,PR0
        31 003435   200024 756100                    STQ     TEMP_ETT$,,AUTO

     1155    22194
     1156    22195           %INIT_LX_ETT_ITEM (@POINTER = TEMP_ETT$,
     1157    22196                              @TYPE = %TYI,
     1158    22197                              @LINE = KEY_WORD$ -> LX_TERMINAL.LINE,
     1159    22198                              @COLUMN = KEY_WORD$ -> LX_TERMINAL.COLUMN,
     1160    22199                              @ETT$ = WITH_ETT$);

  22201 31 003436   000004 220003                    LDX0    4,DU
        31 003437   200024 470500                    LDP0    TEMP_ETT$,,AUTO
        31 003440   000000 740100                    STX0    0,,PR0

  22202 31 003441   000000 221003                    LDX1    0,DU
        31 003442   200024 470500                    LDP0    TEMP_ETT$,,AUTO
        31 003443   000000 441100                    SXL1    0,,PR0

  22203 31 003444   000001 235007                    LDA     1,DL
        31 003445   200024 470500                    LDP0    TEMP_ETT$,,AUTO
        31 003446   000004 755100                    STA     4,,PR0

  22204 31 003447   000000 236000 32                 LDQ     0
        31 003450   200024 470500                    LDP0    TEMP_ETT$,,AUTO
        31 003451   000007 756100                    STQ     7,,PR0

  22205 31 003452   200034 236100                    LDQ     WITH_ETT$,,AUTO
        31 003453   200024 470500                    LDP0    TEMP_ETT$,,AUTO
        31 003454   000001 756100                    STQ     1,,PR0

  22206 31 003455   000000 236000 32                 LDQ     0
        31 003456   200024 470500                    LDP0    TEMP_ETT$,,AUTO
        31 003457   000002 756100                    STQ     2,,PR0

  22208 31 003460   200006 470500                    LDP0    KEY_WORD$,,AUTO
        31 003461   200024 471500                    LDP1    TEMP_ETT$,,AUTO
        31 003462   000005 235100                    LDA     5,,PR0
PL6.E3A0      #002=Z9EY$RECEIVE_STMT File=Z9EY.:Z8A6TSI                          SAT 08/09/97 13:58 Page:187
        31 003463   100005 755100                    STA     5,,PR1

  22209 31 003464   200024 471500                    LDP1    TEMP_ETT$,,AUTO
        31 003465   000006 235100                    LDA     6,,PR0
        31 003466   100006 755100                    STA     6,,PR1

     1161    22221
     1162    22222           %NEW_HEAP (@POINTER = TEMP_ETT$ -> LX_ETT_ITEM.LINK);

  22224 31 003467   000033 236000 32                 LDQ     27
        31 003470   200135 756100                    STQ     NEW_DNT$+3,,AUTO
        31 003471   200024 236100                    LDQ     TEMP_ETT$,,AUTO
        31 003472   000007 036003                    ADLQ    7,DU
        31 003473   200134 756100                    STQ     NEW_DNT$+2,,AUTO
        31 003474   200134 630500                    EPPR0   NEW_DNT$+2,,AUTO
        31 003475   000010 631400 32                 EPPR1   8
        31 003476   000000 701000 xent               TSX1    Z8ED$NEW_HEAP
        31 003477   000000 011000                    NOP     0

     1163    22227
     1164    22228    2      TEMP_ETT$ = TEMP_ETT$ -> LX_ETT_ITEM.LINK;

  22228 31 003500   200024 470500                    LDP0    TEMP_ETT$,,AUTO
        31 003501   000007 236100                    LDQ     7,,PR0
        31 003502   200024 756100                    STQ     TEMP_ETT$,,AUTO

     1165    22229
     1166    22230           %INIT_LX_ETT_ITEM (@POINTER = TEMP_ETT$,
     1167    22231                              @TYPE = %TYI,
     1168    22232                              @LINE = KEY_WORD$ -> LX_TERMINAL.LINE,
     1169    22233                              @COLUMN = KEY_WORD$ -> LX_TERMINAL.COLUMN,
     1170    22234                              @ETT$ = ADV_ETT$);

  22236 31 003503   000004 220003                    LDX0    4,DU
        31 003504   200024 470500                    LDP0    TEMP_ETT$,,AUTO
        31 003505   000000 740100                    STX0    0,,PR0

PL6.E3A0      #002=Z9EY$RECEIVE_STMT File=Z9EY.:Z8A6TSI                          SAT 08/09/97 13:58 Page:188
  22237 31 003506   000000 221003                    LDX1    0,DU
        31 003507   200024 470500                    LDP0    TEMP_ETT$,,AUTO
        31 003510   000000 441100                    SXL1    0,,PR0

  22238 31 003511   000001 235007                    LDA     1,DL
        31 003512   200024 470500                    LDP0    TEMP_ETT$,,AUTO
        31 003513   000004 755100                    STA     4,,PR0

  22239 31 003514   000000 236000 32                 LDQ     0
        31 003515   200024 470500                    LDP0    TEMP_ETT$,,AUTO
        31 003516   000007 756100                    STQ     7,,PR0

  22240 31 003517   200035 236100                    LDQ     ADV_ETT$,,AUTO
        31 003520   200024 470500                    LDP0    TEMP_ETT$,,AUTO
        31 003521   000001 756100                    STQ     1,,PR0

  22241 31 003522   000000 236000 32                 LDQ     0
        31 003523   200024 470500                    LDP0    TEMP_ETT$,,AUTO
        31 003524   000002 756100                    STQ     2,,PR0

  22243 31 003525   200006 470500                    LDP0    KEY_WORD$,,AUTO
        31 003526   200024 471500                    LDP1    TEMP_ETT$,,AUTO
        31 003527   000005 235100                    LDA     5,,PR0
        31 003530   100005 755100                    STA     5,,PR1

  22244 31 003531   200024 471500                    LDP1    TEMP_ETT$,,AUTO
        31 003532   000006 235100                    LDA     6,,PR0
        31 003533   100006 755100                    STA     6,,PR1

     1171    22256
     1172    22257    2      CALL Z9EN$TP_SUB_CALL (LX_ETT$, SYMREF$, 4);

  22257 31 003534   000063 236000 32                 LDQ     51
        31 003535   200136 756100                    STQ     NEW_DNT$+4,,AUTO
        31 003536   200021 631500                    EPPR1   SYMREF$,,AUTO
        31 003537   200135 451500                    STP1    NEW_DNT$+3,,AUTO
        31 003540   200023 633500                    EPPR3   LX_ETT$,,AUTO
PL6.E3A0      #002=Z9EY$RECEIVE_STMT File=Z9EY.:Z8A6TSI                          SAT 08/09/97 13:58 Page:189
        31 003541   200134 453500                    STP3    NEW_DNT$+2,,AUTO
        31 003542   200134 630500                    EPPR0   NEW_DNT$+2,,AUTO
        31 003543   000001 631400 32                 EPPR1   1
        31 003544   000000 701000 xent               TSX1    Z9EN$TP_SUB_CALL
        31 003545   000000 011000                    NOP     0

     1173    22258
     1174    22259    2      CALL Z8ED$DISPOSE_ABSSYN_TREE (LX_ETT$);

  22259 31 003546   200023 630500                    EPPR0   LX_ETT$,,AUTO
        31 003547   200134 450500                    STP0    NEW_DNT$+2,,AUTO
        31 003550   200134 630500                    EPPR0   NEW_DNT$+2,,AUTO
        31 003551   000012 631400 32                 EPPR1   10
        31 003552   000000 701000 xent               TSX1    Z8ED$DISPOSE_ABSSYN_TREE
        31 003553   000000 011000                    NOP     0

     1175    22260
     1176    22261    2      ERROR_STEP:
     1177    22262    2        CALL Z8ED$DISPOSE_ABSSYN_TREE (SEND_LIST$ -> LX_LIST.HEAD$);

  22262 31 003554   200005 470500       ERROR_STEP   LDP0    @SEND_LIST$,,AUTO
        31 003555   000000 471500                    LDP1    0,,PR0
        31 003556   100004 633500                    EPPR3   4,,PR1
        31 003557   200134 453500                    STP3    NEW_DNT$+2,,AUTO
        31 003560   200134 630500                    EPPR0   NEW_DNT$+2,,AUTO
        31 003561   000012 631400 32                 EPPR1   10
        31 003562   000000 701000 xent               TSX1    Z8ED$DISPOSE_ABSSYN_TREE
        31 003563   000000 011000                    NOP     0

     1178    22263
     1179    22264    2    END SEND_STMT;

  22264 31 003564   200004 221300                    LDX1  ! @ARG_LIST$+1,,AUTO
        31 003565   000001 702211                    TSX2  ! 1,X1

     1180    22265         %EJECT;
PL6.E3A0      #002=Z9EY$RECEIVE_STMT File=Z9EY.:Z8A6TSI                          SAT 08/09/97 13:58 Page:190
     1181    22266
     1182    22267          /* main program */
     1183    22268
     1184    22269    1     CALL RECEIVE_STMT (ARG_LIST$);

  22269 31 003566   200003 236100                    LDQ     @ARG_LIST$,,AUTO
        31 003567   200005 756100                    STQ     @ARG_LIST$+2,,AUTO
        31 003570   000751 701000 31                 TSX1    RECEIVE_STMT
        31 003571   000000 011000                    NOP     0

     1185    22270
     1186    22271    1     RETURN;

  22271 31 003572   000000 702200 xent               TSX2  ! X66_ARET

     1187    22272
     1188    22273
     1189    22274         /*==============*/
     1190    22275    1      Z9EY$SEND_STMT: ENTRY (ARG_LIST$);

  22275 31 003573   000000 700200 xent  Z9EY$SEND_S* TSX0  ! X66_AUTO_1
        31 003574   000144 000001                    ZERO    100,1

     1191    22276         /*==============*/
     1192    22277
     1193    22278    1     CALL SEND_STMT (ARG_LIST$);

  22278 31 003575   200003 236100                    LDQ     @ARG_LIST$,,AUTO
        31 003576   200005 756100                    STQ     @ARG_LIST$+2,,AUTO
        31 003577   001747 701000 31                 TSX1    SEND_STMT
        31 003600   000000 011000                    NOP     0

     1194    22279
     1195    22280    1     RETURN;

  22280 31 003601   000000 702200 xent               TSX2  ! X66_ARET
     1196    22281    1    END Z9EY$RECEIVE_STMT;
PL6.E3A0      #002=Z9EY$RECEIVE_STMT File=Z9EY.:Z8A6TSI                          SAT 08/09/97 13:58 Page:191
     1197    22282         %EJECT;
PL6.E3A0      #002=Z9EY$RECEIVE_STMT File=Z9EY.:Z8A6TSI                          SAT 08/09/97 13:58 Page:192
     1198    22283         %EOD;

PL6.E3A0      #002=Z9EY$RECEIVE_STMT File=Z9EY.:Z8A6TSI                          SAT 08/09/97 13:58 Page:193
--  Include file information  --

   Z9E_CALL.:Z8A6TOU  is referenced.
   Z8E_STATEMNT.:Z8A6TOU  is referenced.
   Z8E_ABSSYN.:Z8A6TOU  cannot be made into a system file and is referenced.
   Z8E_HEAP.:Z8A6TOU  cannot be made into a system file and is referenced.
   Z8A_XREF.:Z8A6TOU  cannot be made into a system file and is referenced.
   Z8A_MKCN.:Z8A6TOU  cannot be made into a system file and is referenced.
   Z8A_LTS.:Z8A6TOU  cannot be made into a system file and is referenced.
   Z8A_ILS.:Z8A6TOU  cannot be made into a system file and is referenced.
   Z8A_ILL.:Z8A6TOU  cannot be made into a system file and is referenced.
   Z8A_ETT.:Z8A6TOU  cannot be made into a system file and is referenced.
   Z8A_SRCH.:Z8A6TOU  cannot be made into a system file and is referenced.
   Z8A_QLT.:Z8A6TOU  cannot be made into a system file and is referenced.
   Z8A_TYPES.:Z8A6TOU  is referenced.
   Z8A_ST.:Z8A6TOU  cannot be made into a system file and is referenced.
   Z8A_DNT.:Z8A6TOU  cannot be made into a system file and is referenced.
   Z8A_ERR_NUMS.:Z8A6TOU  is referenced.
   Z8E_ILS_LIST.:Z8A6TOU  is referenced.
   Z8E_WINDOW.:Z8A6TOU  is referenced.
   Z8A_IO_EQUS.:Z8A6TOU  is referenced.
   Z8E_NEW_ILL.:Z8A6TOU  is referenced.
   Z8E_MACROS.:Z8A6TOU  cannot be made into a system file and is referenced.
   Z8E_O1COM.:Z8A6TOU  cannot be made into a system file and is referenced.
   Z8A_LEX_SYMB.:Z8A6TOU  cannot be made into a system file and is referenced.
   Z8E_STACKS.:Z8A6TOU  cannot be made into a system file and is referenced.
   Z8A_COMCOM.:Z8A6TOU  cannot be made into a system file and is referenced.
   X8A_COM_MACS.:X8A6TOU  is referenced.
   Z8A_NAMES.:Z8A6TOU  is referenced.
   Z8A_SUPP_MAC.:Z8A6TOU  is referenced.
   Z8A_DEFC.:Z8A6TOU  cannot be made into a system file and is referenced.
      No diagnostics issued in procedure Z9EY$RECEIVE_STMT.
PL6.E3A0      #002=Z9EY$RECEIVE_STMT File=Z9EY.:Z8A6TSI                          SAT 08/09/97 13:58 Page:194

 **** Variables and constants ****

  ****  Section 000 LblCom ITERATION

  ****  Scalars and arrays  ****
OctLoc.c.b A Datatyp(siz) R M Lvl/name                 OctLoc.c.b A Datatyp(siz) R M Lvl/name

     0-0-0/w SBIN              1 ITERATION

  ****  Section 001 LblCom LEX_SYMBOL

  ****  Scalars and arrays  ****
OctLoc.c.b A Datatyp(siz) R M Lvl/name                 OctLoc.c.b A Datatyp(siz) R M Lvl/name

     0-0-0/w STRC(3240)  r     1 LEX_SYMBOL                 0-0-0/w STRC(3240)        1 LEX_SYMBOL_WORDS

  ****  Section 002 LblCom CURRENT_LEX_SYMBOL$

  ****  Scalars and arrays  ****
OctLoc.c.b A Datatyp(siz) R M Lvl/name                 OctLoc.c.b A Datatyp(siz) R M Lvl/name

     0-0-0/w PTR         r     1 CURRENT_LEX_SYMBOL$

  ****  Section 003 LblCom TEMP_LEX_SYMBOL

  ****  Scalars and arrays  ****
OctLoc.c.b A Datatyp(siz) R M Lvl/name                 OctLoc.c.b A Datatyp(siz) R M Lvl/name

     0-0-0/w STRC(3240)        1 TEMP_LEX_SYMBOL

  ****  Section 004 LblCom TEMP_LEX_SYMBOL2

  ****  Scalars and arrays  ****
OctLoc.c.b A Datatyp(siz) R M Lvl/name                 OctLoc.c.b A Datatyp(siz) R M Lvl/name

     0-0-0/w STRC(3240)        1 TEMP_LEX_SYMBOL2

PL6.E3A0      #002=Z9EY$RECEIVE_STMT File=Z9EY.:Z8A6TSI                          SAT 08/09/97 13:58 Page:195
  ****  Section 005 LblCom DNT$

  ****  Scalars and arrays  ****
OctLoc.c.b A Datatyp(siz) R M Lvl/name                 OctLoc.c.b A Datatyp(siz) R M Lvl/name

     0-0-0/w PTR         r     1 DNT$

  ****  Section 006 LblCom DNT_

  ****  Scalars and arrays  ****
OctLoc.c.b A Datatyp(siz) R M Lvl/name                 OctLoc.c.b A Datatyp(siz) R M Lvl/name

     0-0-0/w STRC(180)         1 DNT_

  ****  Section 007 LblCom DNT_BUCKET_NUMBER

  ****  Scalars and arrays  ****
OctLoc.c.b A Datatyp(siz) R M Lvl/name                 OctLoc.c.b A Datatyp(siz) R M Lvl/name

     0-0-0/w UBIN              1 DNT_BUCKET_NUMBER

  ****  Section 008 LblCom DNT_OF_1$

  ****  Scalars and arrays  ****
OctLoc.c.b A Datatyp(siz) R M Lvl/name                 OctLoc.c.b A Datatyp(siz) R M Lvl/name

     0-0-0/w PTR               1 DNT_OF_1$

  ****  Section 009 LblCom ST$

  ****  Scalars and arrays  ****
OctLoc.c.b A Datatyp(siz) R M Lvl/name                 OctLoc.c.b A Datatyp(siz) R M Lvl/name

     0-0-0/w PTR         r     1 ST$

  ****  Section 010 LblCom ST_

PL6.E3A0      #002=Z9EY$RECEIVE_STMT File=Z9EY.:Z8A6TSI                          SAT 08/09/97 13:58 Page:196
  ****  Scalars and arrays  ****
OctLoc.c.b A Datatyp(siz) R M Lvl/name                 OctLoc.c.b A Datatyp(siz) R M Lvl/name

     0-0-0/w STRC(180)   r     1 ST_

  ****  Section 011 LblCom QLT$

  ****  Scalars and arrays  ****
OctLoc.c.b A Datatyp(siz) R M Lvl/name                 OctLoc.c.b A Datatyp(siz) R M Lvl/name

     0-0-0/w PTR         r     1 QLT$

  ****  Section 012 LblCom PREV_01_QLT$

  ****  Scalars and arrays  ****
OctLoc.c.b A Datatyp(siz) R M Lvl/name                 OctLoc.c.b A Datatyp(siz) R M Lvl/name

     0-0-0/w PTR               1 PREV_01_QLT$

  ****  Section 013 LblCom QLT_

  ****  Scalars and arrays  ****
OctLoc.c.b A Datatyp(siz) R M Lvl/name                 OctLoc.c.b A Datatyp(siz) R M Lvl/name

     0-0-0/w STRC(180)         1 QLT_

  ****  Section 014 LblCom SRCH

  ****  Scalars and arrays  ****
OctLoc.c.b A Datatyp(siz) R M Lvl/name                 OctLoc.c.b A Datatyp(siz) R M Lvl/name

     0-0-0/w STRC(108)         1 SRCH

  ****  Section 015 LblCom ETT$

  ****  Scalars and arrays  ****
OctLoc.c.b A Datatyp(siz) R M Lvl/name                 OctLoc.c.b A Datatyp(siz) R M Lvl/name
PL6.E3A0      #002=Z9EY$RECEIVE_STMT File=Z9EY.:Z8A6TSI                          SAT 08/09/97 13:58 Page:197

     0-0-0/w PTR         r     1 ETT$

  ****  Section 016 LblCom HEAD_ETT$

  ****  Scalars and arrays  ****
OctLoc.c.b A Datatyp(siz) R M Lvl/name                 OctLoc.c.b A Datatyp(siz) R M Lvl/name

     0-0-0/w PTR               1 HEAD_ETT$

  ****  Section 017 LblCom ETT_BUCKETS

  ****  Scalars and arrays  ****
OctLoc.c.b A Datatyp(siz) R M Lvl/name                 OctLoc.c.b A Datatyp(siz) R M Lvl/name

     0-0-0/w PTR               1 ETT_BUCKETS(0:511)

  ****  Section 018 LblCom ETT_

  ****  Scalars and arrays  ****
OctLoc.c.b A Datatyp(siz) R M Lvl/name                 OctLoc.c.b A Datatyp(siz) R M Lvl/name

     0-0-0/w STRC(180)         1 ETT_

  ****  Section 019 LblCom ILL$

  ****  Scalars and arrays  ****
OctLoc.c.b A Datatyp(siz) R M Lvl/name                 OctLoc.c.b A Datatyp(siz) R M Lvl/name

     0-0-0/w PTR         r     1 ILL$

  ****  Section 020 LblCom ILL_

  ****  Scalars and arrays  ****
OctLoc.c.b A Datatyp(siz) R M Lvl/name                 OctLoc.c.b A Datatyp(siz) R M Lvl/name

     0-0-0/w STRC(180)         1 ILL_
PL6.E3A0      #002=Z9EY$RECEIVE_STMT File=Z9EY.:Z8A6TSI                          SAT 08/09/97 13:58 Page:198

  ****  Section 021 LblCom ILS$

  ****  Scalars and arrays  ****
OctLoc.c.b A Datatyp(siz) R M Lvl/name                 OctLoc.c.b A Datatyp(siz) R M Lvl/name

     0-0-0/w PTR         r     1 ILS$

  ****  Section 022 LblCom ILS_

  ****  Scalars and arrays  ****
OctLoc.c.b A Datatyp(siz) R M Lvl/name                 OctLoc.c.b A Datatyp(siz) R M Lvl/name

     0-0-0/w STRC(180)         1 ILS_

  ****  Section 023 LblCom LTS$

  ****  Scalars and arrays  ****
OctLoc.c.b A Datatyp(siz) R M Lvl/name                 OctLoc.c.b A Datatyp(siz) R M Lvl/name

     0-0-0/w PTR               1 LONG_ITEM$                 0-0-0/w PTR         r     1 LTS$

  ****  Section 024 LblCom LTS_

  ****  Scalars and arrays  ****
OctLoc.c.b A Datatyp(siz) R M Lvl/name                 OctLoc.c.b A Datatyp(siz) R M Lvl/name

     0-0-0/w STRC(180)         1 LTS_

  ****  Section 025 LblCom MKCN

  ****  Scalars and arrays  ****
OctLoc.c.b A Datatyp(siz) R M Lvl/name                 OctLoc.c.b A Datatyp(siz) R M Lvl/name

     0-0-0/w STRC(72)    r     1 MKCN

  ****  Section 026 LblCom XREF$
PL6.E3A0      #002=Z9EY$RECEIVE_STMT File=Z9EY.:Z8A6TSI                          SAT 08/09/97 13:58 Page:199

  ****  Scalars and arrays  ****
OctLoc.c.b A Datatyp(siz) R M Lvl/name                 OctLoc.c.b A Datatyp(siz) R M Lvl/name

     0-0-0/w PTR         r     1 XREF$

  ****  Section 027 LblCom XREF_

  ****  Scalars and arrays  ****
OctLoc.c.b A Datatyp(siz) R M Lvl/name                 OctLoc.c.b A Datatyp(siz) R M Lvl/name

     0-0-0/w STRC(180)   r     1 XREF_

  ****  Section 028 LblCom HEAP$

  ****  Scalars and arrays  ****
OctLoc.c.b A Datatyp(siz) R M Lvl/name                 OctLoc.c.b A Datatyp(siz) R M Lvl/name

     0-0-0/w PTR               1 HEAP$

  ****  Section 029 LblCom TEMP_LX_NODE

  ****  Scalars and arrays  ****
OctLoc.c.b A Datatyp(siz) R M Lvl/name                 OctLoc.c.b A Datatyp(siz) R M Lvl/name

     0-0-0/d STRC(288)         1 TEMP_LX_NODE

  ****  Auto variables  ****

  ****  Scalars and arrays  ****
OctLoc.c.b A Datatyp(siz) R M Lvl/name                 OctLoc.c.b A Datatyp(siz) R M Lvl/name

     6-0-0/w PTR         r     1 @ARGNUM                    3-0-0/w PTR         r     1 @ARG_LIST$
    37-0-0/w PTR         r     1 @DATA$                   131-0-0/w PTR         r     1 @DNT$$
     5-0-0/w PTR         r     1 @FROM$                    45-0-0/w PTR         r     1 @LIST$
    46-0-0/w PTR         r     1 @NO$                      40-0-0/w PTR         r     1 @NO_DATA$
     6-0-0/w PTR         r     1 @OFFSET                    5-0-0/w PTR         r     1 @P$$
PL6.E3A0      #002=Z9EY$RECEIVE_STMT File=Z9EY.:Z8A6TSI                          SAT 08/09/97 13:58 Page:200
     5-0-0/w PTR         r     1 @RECV_LIST$                5-0-0/w PTR         r     1 @SEND_LIST$
   130-0-0/w PTR         r     1 @ST$$                    127-0-0/w PTR         r     1 @TERM$
     7-0-0/w PTR         r     1 @TO$                      47-0-0/w PTR         r     1 @WITH$
    41-0-0/w PTR         r     1 @WITH_DATA$               30-0-0/b BIT         r     1 ADV_AFTER
    35-0-0/w PTR         r     1 ADV_ETT$                  42-0-0/d STRC(288)         1 ADV_LX_ETT
    62-0-0/d STRC(288)   r     1 AFTER_FIELD              125-0-0/w STRC        r     1 AFTER_SET
    11-0-0/w UBIN              1 ARG#                      16-0-0/w UBIN              1 ARG#
    12-0-0/w PTR         r     1 ARG$                      17-0-0/w PTR               1 ARG$
    *0-0-0/w UBIN        r     1 ARGNUM                    *0-0-0/w PTR         r     1 ARG_LIST$
    12-0-0/w PTR         r     1 BEF_AFT_ADV$              20-0-0/w PTR         r     1 CD_LTS$
    40-0-0/w PTR         r     1 CD_LTS$                    7-0-0/w PTR         r     1 CD_NAME$
     7-0-0/w PTR         r     1 CD_NAME$                  17-0-0/w PTR         r     1 CD_ST$
    15-0-0/w PTR         r     1 CD_ST$                    10-0-0/w PTR               1 CONST_ETT$
   122-0-0/w PTR         r     1 CONST_ETT$                *0-0-0/w PTR         r     1 DATA$
    15-0-0/w PTR         r     1 DATA$                     44-0-0/d STRC(288)   r     1 DESCRIPTOR
    20-0-0/w PTR               1 DESC_ST$                  *0-0-0/w PTR         r     1 DNT$$
    22-0-0/w PTR         r     1 END_LABEL$                54-0-0/d STRC(288)   r     1 ETT_ITEM
   102-0-0/d STRC(288)   r     1 ETT_ITEM                  *0-0-0/w PTR         r     1 FROM$
    10-0-0/w UBIN        r     1 I                         14-0-0/w PTR         r     1 ID$
    10-0-0/w PTR         r     1 ID$                       23-0-0/w PTR               1 ID_DESC$
    27-0-0/w PTR               1 ID_ETT$                   14-0-0/w PTR         r     1 ID_ST$
   124-0-0/w PTR               1 INT_ETT$                 112-0-0/d STRC(288)   r     1 INT_LX_ETT
   123-0-0/w PTR         r     1 INT_VAR$                  42-0-0/w PTR         r     1 ITEM$
     6-0-0/w PTR         r     1 KEY_WORD$                  6-0-0/w PTR         r     1 KEY_WORD$
    *0-0-0/w PTR         r     1 LIST$                      7-0-0/w PTR         r     1 LTS$$
    30-0-0/w PTR         r     1 LX_ETT$                   23-0-0/w PTR         r     1 LX_ETT$
    13-0-0/w PTR         r     1 MESSAGE$                  31-0-0/w PTR         r     1 MNE_ST$
   132-0-0/w PTR         r     1 NEW_DNT$                  *0-0-0/w PTR         r     1 NO$
    *0-0-0/w PTR         r     1 NO_DATA$                  33-0-0/w PTR         r     1 NO_DATA$
    21-0-0/w PTR         r     1 NO_DATA_LABEL$            *0-0-0/w UBIN        r     1 OFFSET
    10-0-0/w PTR         r     1 OFF_ETT$                  24-0-0/d STRC(288)   r     1 OP_NODE
    72-0-0/d STRC(288)   r     1 OP_NODE                   *0-0-0/w PTR         r     1 P$$
    11-0-0/w PTR         r     1 QUAL$                     16-0-0/b BIT         r     1 QUAL_ERROR
    26-0-0/b BIT         r     1 QUAL_ERROR                27-0-0/w PTR         r     1 RECV_DNT$
    *0-0-0/w PTR         r     1 RECV_LIST$                24-0-0/c CHAR(6)     r     1 RECV_NAME
    32-0-0/w PTR               1 RT_ARG_LIST$              25-0-0/w PTR               1 RT_ARG_LIST$
    12-0-0/w PTR         r     1 SA_ETT$                   14-0-0/d STRC(288)   r     1 SA_FIELD
PL6.E3A0      #002=Z9EY$RECEIVE_STMT File=Z9EY.:Z8A6TSI                          SAT 08/09/97 13:58 Page:201
    22-0-0/w PTR         r     1 SEND_DNT$                 *0-0-0/w PTR         r     1 SEND_LIST$
    32-0-0/c CHAR(6)     r     1 SEND_NAME                 13-0-0/w PTR         r     1 SEND_REPLACE$
    11-0-0/w PTR         r     1 SEND_WITH$                *0-0-0/w PTR         r     1 ST$$
    11-0-0/w PTR         r     1 STACK_ETT$                34-0-0/d STRC(288)   r     1 STACK_FIELD
    26-0-0/w PTR         r     1 SYMREF$                   21-0-0/w PTR         r     1 SYMREF$
    43-0-0/w PTR         r     1 TEMP$                     12-0-0/w PTR               1 TEMP$
    31-0-0/w PTR         r     1 TEMP_ETT$                 24-0-0/w PTR         r     1 TEMP_ETT$
    52-0-0/d STRC(288)   r     1 TEMP_LX_ETT               36-0-0/w PTR         r     1 TEMP_VAR$
    *0-0-0/w PTR         r     1 TERM$                     *0-0-0/w PTR         r     1 TO$
    13-0-0/w PTR         r     1 TO_ETT$                   *0-0-0/w PTR         r     1 WITH$
    *0-0-0/w PTR         r     1 WITH_DATA$                34-0-0/w PTR         r     1 WITH_DATA$
    34-0-0/w PTR         r     1 WITH_ETT$                 37-0-0/w PTR         r     1 WITH_ST$

  ****  SYMREF variables  ****

  ****  Scalars and arrays  ****
OctLoc.c.b A Datatyp(siz) R M Lvl/name                 OctLoc.c.b A Datatyp(siz) R M Lvl/name

     0-0-0/d STRC(13248) r     1 COMCOM
     0-0-0/w PTR         r     1 DNT$_FROM_RSWNO(0:0)
     0-0-0/w STRC(180)         1 HIER_STK(0:50)
     0-0-0/w SBIN              1 HIER_STK_PTR               0-0-0/w UBIN              1 ILL_STEP(0:144)
     0-0-0/w UBIN              1 ILS_STEP_TABLE(0:2)
     0-0-0/w UBIN              1 LTS_STEP(0:37)
     0-0-0/d STRC(11580) r     1 O1COM                      0-0-0/w STRC(144)         1 PAGE_FORMAT
     0-0-0/w STRC(153)         1 REP_STK(0:50)              0-0-0/w SBIN              1 REP_STK_PTR

  ****  BASED and DCB variables  ****

  ****  Scalars and arrays  ****
OctLoc.c.b A Datatyp(siz) R M Lvl/name                 OctLoc.c.b A Datatyp(siz) R M Lvl/name

     0-0-0/w STRC(108)         1 ACCEPT_DISPLAY             0-0-0/w STRC(288)         1 ADD_STMT
     0-0-0/w STRC(396)         1 ALPHABET                   0-0-0/w STRC(144)         1 ALTER_LTS
     0-0-0/w STRC(3672)        1 ALT_KEY                    0-0-0/w STRC(36864) r     1 ARGLIST
     0-0-0/w STRC(396)         1 ARRAY                      0-0-0/w STRC(180)         1 ARRAY_PRESET_LTS
     0-0-0/w ASTR(324)   r     1 BASED_LEX_SYMBOL
PL6.E3A0      #002=Z9EY$RECEIVE_STMT File=Z9EY.:Z8A6TSI                          SAT 08/09/97 13:58 Page:202
     0-0-0/w STRC(360)         1 BASED_LEX_SYMBOL_WORDS
     0-0-0/w STRC(288)         1 BASE_LTS                   0-0-0/w STRC(108)         1 BINARY_ILL
     0-0-0/w STRC(288)   r     1 BINARY_OP                  0-0-0/w STRC(396)         1 BLOCK
     0-0-0/w STRC(144)         1 BRANCH_ILL                 0-0-0/w STRC(144)         1 BT
     0-0-0/w STRC(288)         1 CALL_STMT                  0-0-0/w STRC(216)         1 CCOSU
     0-0-0/w STRC(396)         1 CD                         0-0-0/w STRC(288)   r     1 CD_LTS
     0-0-0/w CHAR(4096)        1 CHARS                      0-0-0/w STRC(396)         1 CLASS
     0-0-0/w STRC(108)         1 CODED_MOVE                 0-0-0/w STRC(288)         1 COMPUTE_STMT
     0-0-0/w STRC(396)         1 CONDITION                  0-0-0/w STRC(396)         1 CONST
     0-0-0/w STRC(72)          1 CONT                       0-0-0/w STRC(540)         1 CONTROL_NAME_LTS
     0-0-0/w STRC(1872)        1 COPY_FILE                  0-0-0/w STRC(396)         1 DB
     0-0-0/w STRC(396)         1 DCB_                       0-0-0/w STRC(288)         1 DEFERED_IDENTIFIER
     0-0-0/w STRC(252)         1 DEFERED_ID_TREE            0-0-0/w STRC(288)         1 DEFERED_QUAL_ID
     0-0-0/w STRC(288)         1 DEFERED_SUM_CLAUSE
     0-0-0/w STRC(288)         1 DEFERED_SUM_CLAUSE_LIST
     0-0-0/w STRC(144)   r     1 DEFLB                      0-0-0/w STRC(288)         1 DELETE_STMT
     0-0-0/w STRC(108)         1 DEPENDING_SIZE             0-0-0/w STRC(5472)        1 DIMS
     0-0-0/w STRC(288)         1 DIVIDE_STMT                0-0-0/w STRC(396)         1 DML_ITEM
     0-0-0/w STRC(216)         1 DML_REC                    0-0-0/w ASTR(180)   r     1 DNT
     0-0-0/w STRC(144)         1 DOEND                      0-0-0/w STRC(396)         1 DO_N
     0-0-0/w STRC(180)         1 DV4I                       0-0-0/w STRC(180)         1 ENTRY_ILL
     0-0-0/w STRC(180)   r     1 ETT                        0-0-0/w STRC(108)         1 EVALU
     0-0-0/w STRC(73836)       1 EVALUATE                   0-0-0/w STRC(396)         1 FD
     0-0-0/w STRC(1692)        1 FILE_LTS                   0-0-0/w STRC(144)         1 GO
     0-0-0/w STRC(180)         1 ILL                        0-0-0/w STRC              1 ILL_NO_OPS
     0-0-0/w STRC(180)   r     1 ILS                        0-0-0/w STRC(288)   r     1 ILS_LIST
     0-0-0/w STRC(108)         1 INDEXES                    0-0-0/w STRC(360)         1 INIT_LTS
     0-0-0/w STRC(288)         1 INSPECT_1_STMT             0-0-0/w STRC(288)         1 INSPECT_2_STMT
     0-0-0/w STRC(288)         1 INSPECT_4_STMT             0-0-0/w STRC(396)         1 INTDEF
     0-0-0/w STRC(180)         1 IO_RESTORE_CHAIN           0-0-0/w STRC(144)         1 KEY
     0-0-0/w STRC(396)         1 LABEL                      0-0-0/w STRC(288)         1 LA_ITEM
     0-0-0/w STRC(36864)       1 LCNST                      0-0-0/w STRC(108)         1 LINOI
     0-0-0/w STRC(72)          1 LONG                       0-0-0/w STRC        r     1 LTS
     0-0-0/w STRC(360)   r     1 LTSS                       0-0-0/w STRC(36936)       1 LTS_PTR_ARRAY
     0-0-0/w STRC(504)         1 LX_CD_INPUT                0-0-0/w STRC(324)         1 LX_CD_I_O
     0-0-0/w STRC(396)         1 LX_CD_OUTPUT               0-0-0/w STRC(288)   r     1 LX_ETT_ITEM
     0-0-0/w STRC(288)   r     1 LX_ITEM                    0-0-0/w STRC(288)         1 LX_LARGE
PL6.E3A0      #002=Z9EY$RECEIVE_STMT File=Z9EY.:Z8A6TSI                          SAT 08/09/97 13:58 Page:203
     0-0-0/w STRC(288)   r     1 LX_LIST                    0-0-0/w STRC(1224)        1 LX_REC_DECL
     0-0-0/w STRC(864)         1 LX_REPORT_REC              0-0-0/w STRC(288)   r     1 LX_TERMINAL
     0-0-0/w STRC(72)          1 MFILL                      0-0-0/w STRC(396)   r     1 MNEMONIC
     0-0-0/w STRC(288)         1 MULTIPLY_STMT              0-0-0/w STRC(180)         1 MULTI_GO
     0-0-0/w STRC(180)         1 MVEAL                      0-0-0/w STRC(108)         1 MVFIL
     0-0-0/w STRC(72)          1 MVIIS                      0-0-0/w STRC(144)         1 NEL
     0-0-0/w STRC(216)         1 OPEN_LTS                   0-0-0/w STRC(144)         1 OPN
     0-0-0/w STRC(180)         1 OS_CALL                    0-0-0/w STRC(36864)       1 PAGE
     0-0-0/w STRC(396)   r     1 PARA                       0-0-0/w STRC(216)         1 PFORM
     0-0-0/w STRC(144)         1 PINC                       0-0-0/w STRC(144)         1 PREOFF
     0-0-0/w STRC(108)   r     1 PRESET                     0-0-0/w STRC(144)         1 PRIME
     0-0-0/w STRC(396)   r     1 PROC_                      0-0-0/w STRC(396)         1 PROC_DEF
     0-0-0/w STRC(900)   r     1 PROC_SUPP                  0-0-0/w STRC(144)         1 P_A_PRESET
     0-0-0/w STRC(144)         1 P_P_PRESET                 0-0-0/w STRC(216)   r     1 QLT
     0-0-0/w STRC(396)         1 RD                         0-0-0/w STRC(288)         1 READ_STMT
     0-0-0/w STRC(216)         1 REF                        0-0-0/w STRC(144)         1 REMEM
     0-0-0/w STRC(108)         1 RENAMES                    0-0-0/w STRC(720)         1 REPORT_01_LTS
     0-0-0/w STRC(432)         1 REPORT_ELEM_LTS            0-0-0/w STRC(252)         1 REPORT_GRP_LTS
     0-0-0/w STRC(1332)        1 REPORT_LTS                 0-0-0/w STRC(288)         1 REWRITE_STMT
     0-0-0/w STRC(144)         1 RVA_LTS                    0-0-0/w STRC(396)   r     1 SCALAR
     0-0-0/w STRC(144)         1 SCOPE                      0-0-0/w STRC(396)         1 SD
     0-0-0/w STRC(216)         1 SEARCH_                    0-0-0/w STRC(396)         1 SECTION
     0-0-0/w STRC(396)         1 SEGMENT                    0-0-0/w STRC(360)         1 SEGMENT_LTS
     0-0-0/w STRC(396)   r     1 ST                         0-0-0/w STRC(288)         1 START_STMT
     0-0-0/w STRC(72)          1 STP2                       0-0-0/w STRC(252)         1 STRING_STMT
     0-0-0/w STRC(288)         1 SUBTRACT_STMT              0-0-0/w STRC(252)         1 SUM_LTS
     0-0-0/w STRC(396)         1 SWITCH                     0-0-0/w STRC(396)         1 SYMBOLIC_CHAR
     0-0-0/w STRC(396)   r     1 SYMDEF_                    0-0-0/w STRC(396)   r     1 SYMREF_
     0-0-0/w STRC(396)         1 TEMP                       0-0-0/w STRC(144)         1 TRINARY_ILL
     0-0-0/w STRC(72)          1 UNARY_ILL                  0-0-0/w STRC(288)         1 UNARY_OP
     0-0-0/w STRC(288)         1 UNSTRING_STMT              0-0-0/d STRC(612)         1 USE
     0-0-0/w STRC(216)         1 USER_CALL                  0-0-0/w STRC(252)         1 USE_SUPP
     0-0-0/w STRC(108)         1 VAL                        0-0-0/w STRC(108)         1 VAL_END
     0-0-0/w STRC(396)   r     1 VARIABLE                   0-0-0/w STRC(72)          1 WHEN
     0-0-0/w STRC(288)         1 WRITE_STMT                 0-0-0/w STRC(72)    r     1 XREF

PL6.E3A0      #002=Z9EY$RECEIVE_STMT File=Z9EY.:Z8A6TSI                          SAT 08/09/97 13:58 Page:204

   Procedure Z9EY$RECEIVE_STMT requires 1922 words for executable code.
   Procedure Z9EY$RECEIVE_STMT requires 100 words of local(AUTO) storage.

