PL6.E3A0      #006=Z9IL$PRINT_LO File=Z9IL.:Z8A6TSI                              SAT 08/09/97 14:04 Page:82
      382        1        /*T***********************************************************/
      383        2        /*T*                                                         */
      384        3        /*T* Copyright (c) Bull HN Information Systems Inc., 1997    */
      385        4        /*T*                                                         */
      386        5        /*T***********************************************************/
      387        6        Z9IL$PRINT_LO : PROC;
      388        7
      389        8        /*D*
      390        9               NAME: Z9IL$PRINT_LO
      391       10        DESCRIPTION: Print the assembly language listing of the generated
      392       11                       object code.  This version uses the internal tables
      393       12                       of the compiler and does a much better job of symbolic
      394       13                       information than UNGMAP.  It may be invoked with the
      395       14                       option, "LSTOU".
      396       15        */
      397       16
      398       17        %EQU PHASE = 5;
      399       18
      400       19        %INCLUDE Z8A_DEFC;
      401       87        %INCLUDE Z8A_SUPP_MAC;
      402     2487        %INCLUDE Z8A_COMCOM;
      403     3137        %INCLUDE Z9I_PREPROC;
      404     3157        %INCLUDE Z8I_LISTING;
      405     3245        %INCLUDE Z8A_OBJ;
      406     3742        %INCLUDE Z8A_ST;
      407     7401        %INCLUDE Z8A_LTS;
      408     9478        %INCLUDE Z8A_DNT;
      409     9699        %INCLUDE Z8A_ERR;
      410     9768
      411     9769    1   DCL Z9IL$OUTPUT_TO_LO         ENTRY(2);
      412     9770    1   DCL Z9IL$OUTPUT_TO_LO_PAGE    ENTRY(2);      /*#35040*/
      413     9771    1   DCL Z9IL$UNGMAP$SI$READ       ENTRY(2) ALTRET;
      414     9772    1   DCL Z9IL$UNGMAP$SI$READ$PREP  ENTRY ALTRET;
      415     9773    1   DCL Z8IU$CONVERT_DEC_LEFT     ENTRY(4);
      416     9774    1   DCL Z8IU$CONVERT_OCTAL        ENTRY(2);
      417     9775    1   DCL Z8IU$CONVERT_OCTAL_SUP    ENTRY(2);
      418     9776
PL6.E3A0      #006=Z9IL$PRINT_LO File=Z9IL.:Z8A6TSI                              SAT 08/09/97 14:04 Page:83
      419     9777
      420     9778    1   DCL LO_TITLE CHAR(0) CONSTANT INIT('Symbolic Listing of Generated Object Code:');
      421     9779
      422     9780    1   DCL LAST_LINE_TYPE SBIN;
      423     9781        %EQU LLTSRC = 1;  /* SOURCE */
      424     9782        %EQU LLTOBJ = 2;  /* OBJECT */
      425     9783
      426     9784
      427     9785        /*     INITIALIZED DATA REQUIRED FOR L66 INSTRUCTION BREAK-OUT
      428     9786                    Misc has action codes indicated by %subs
      429     9787                      or fifth char of mne.
      430     9788                    Mne has first four chars of op mnemonic or blank.
      431     9789        */
      432     9790        %SUB Z=0;
      433     9791        %SUB E8=1 /*E8*/;
      434     9792        %SUB TRNSFR=2 /*Trnsfr*/;
      435     9793        %SUB MVE=3 /*Mve*/;                     /*Ch,ch,ch*/
      436     9794        %SUB MVNE=4 /*Mvne*/;                   /*Dc,dc,ch*/
      437     9795        %SUB BT=5 /*Bt*/;                       /*Bit,bit*/
      438     9796        %SUB CH=6 /*Ch*/;                       /*Ch,ch*/
      439     9797        %SUB DEC_3=7 /*DEC_3*/;                 /*Dc,dc,dc*/
      440     9798        %SUB DEC_2=8 /*DEC_2*/;                 /*Dc,dc*/
      441     9799        %SUB SC=9 /*Sc*/;                       /*Scan type ch,ch,arg*/
      442     9800        %SUB TC=10 /*Tc*/;                      /*Trans type ch,arg,arg*/
      443     9801        %SUB CL=11 /*Cl*/;                      /*Climb*/
      444     9802        %SUB NOP=12 /*Nop*/;                    /*Nop*/
      445     9803        %SUB STCASTCQ=13 /*Stc*/;               /*Stca/stcq*/
      446     9804        %SUB STBASTBQ=14 /*Stba/stbq*/;         /*Stba or stbc inst*/
      447     9805        %SUB SCM=15 /*Scm*/;                    /*Scan type ch,ch,arg*/
      448     9806        %SUB SCD=16 /* Scd*/;                   /*Scan type ch,ch,arg*/
      449     9807        %SUB MVNEX=17;
      450     9808        %SUB MVNX =18;
      451     9809        %SUB CMPNX=19;
      452     9810        %SUB AD2DX=20;
      453     9811        %SUB SB2DX=21;
      454     9812        %SUB MP2DX=22;
      455     9813        %SUB DV2DX=23;
PL6.E3A0      #006=Z9IL$PRINT_LO File=Z9IL.:Z8A6TSI                              SAT 08/09/97 14:04 Page:84
      456     9814        %SUB AD3DX=24;
      457     9815        %SUB SB3DX=25;
      458     9816        %SUB MP3DX=26;
      459     9817        %SUB DV3DX=27;
      460     9818        %SUB MRF=28;
      461     9819        %SUB MMF=29;
      462     9820        %SUB MTR=30;
      463     9821        %SUB MTM=31;
      464     9822        %SUB AWDXP = 33;
      465     9823        %SUB BL=' ';
      466     9824
      467     9825        %SUB FOLLOW_ND = 1;
      468     9826        %SUB FOLLOW_WD = 2;
      469     9827        %SUB FOLLOW_CD = 3;
      470     9828        %SUB FOLLOW_BD = 4;
      471     9829        %SUB FOLLOW_SI = 5;
      472     9830        %SUB FOLLOW_NDO = 6;
      473     9831        %SUB FOLLOW_NDS = 7;
      474     9832
      475     9833    1   DCL 1 OPCODES CONSTANT SYMDEF ALIGNED,
      476     9834    1         2 MISC(0:1023) UBIN(9) UNAL INIT
      477     9835    1           /*0-17*/(Z*9,NOP,ASCBIN('1'),ASCBIN('2'),Z*4,
      478     9836    1           /*20-37*/E8*8,Z*7,ASCBIN('Q'),
      479     9837    1           /*40-57*/Z*16,
      480     9838    1           /*60-77*/Z*16,
      481     9839    1           /*100-117*/E8*8,Z*7,ASCBIN('Q'),
      482     9840    1           /*120-137*/E8*8,Z*7,ASCBIN('Q'),
      483     9841    1           /*140-157*/Z*16,
      484     9842    1           /*160-177*/Z*16,
      485     9843    1           /*200-217*/E8*8,Z*7,ASCBIN('Q'),
      486     9844    1           /*220-237*/Z*16,
      487     9845    1           /*240-257*/E8*8,Z*8,
      488     9846    1           /*260-277*/Z*16,
      489     9847    1           /*300-317*/E8*8,Z*7,ASCBIN('Q'),
      490     9848    1           /*320-337*/Z*16,
      491     9849    1           /*340-357*/E8*8,Z*8,
      492     9850    1           /*360-377*/Z*16,
PL6.E3A0      #006=Z9IL$PRINT_LO File=Z9IL.:Z8A6TSI                              SAT 08/09/97 14:04 Page:85
      493     9851    1           /*400-417*/Z*16,
      494     9852    1           /*420-437*/Z*7,ASCBIN('G'),Z*8,
      495     9853    1           /*440-457*/Z*16,
      496     9854    1           /*460-477*/Z*10,ASCBIN('R'),Z*5,
      497     9855    1           /*500-517*/Z*15,ASCBIN('P'),
      498     9856    1           /*520-537*/Z*16,
      499     9857    1           /*540-557*/Z*9,STBASTBQ*2,Z*5,
      500     9858    1           /*560-577*/Z*16,
      501     9859    1           /*600-617*/TRNSFR*6,Z,TRNSFR,Z*4,TRNSFR*2,Z,TRNSFR,
      502     9860    1           /*620-637*/Z*16,
      503     9861    1           /*640-657*/E8*8,Z*8,
      504     9862    1           /*660-677*/Z*16,
      505     9863    1           /*700-717*/TRNSFR*9,Z*4,TRNSFR,Z*2,
      506     9864    1           /*720-737*/Z*16,
      507     9865    1           /*740-757*/Z*9,STCASTCQ*2,Z*5,
      508     9866    1           /*760-777*/Z*16,
      509     9867                                                /*Eis codes follow*/
      510     9868    1           /*0-17*/Z*4,MVNEX,Z*11,
      511     9869    1           /*20-37*/MVE,Z*3,MVNE,Z*11,
      512     9870    1           /*40-57*/Z*16,
      513     9871    1           /*60-77*/BT*2,Z*2,BT*3,Z*9,
      514     9872    1           /*100-117*/CH*2,Z*4,CH,Z*9,
      515     9873    1           /*120-137*/SCD*2,Z*2,SCM*2,Z*10,
      516     9874    1           /*140-157*/Z*8,ASCBIN('A'),ASCBIN('R'),Z,Z,Z,ASCBIN('W'),Z,ASCBIN('W'),
      517     9875    1           /*160-177*/SC,Z*3,TC*2,Z*2,ASCBIN('A'),ASCBIN('R'),Z*6,
      518     9876    1           /*200-217*/Z*2,DEC_2*2,Z*2,DEC_2*2,Z*8,
      519     9877    1           /*220-237*/Z*2,DEC_3*2,Z*2,DEC_3*2,Z*7,ASCBIN('Q'),
      520     9878    1           /*240-257*/Z*2,AD2DX,SB2DX,Z*2,MP2DX,DV2DX,Z*8,
      521     9879    1           /*260-277*/Z*2,AD3DX,SB3DX,Z*2,MP3DX,DV3DX,Z*8,
      522     9880    1           /*300-317*/DEC_2*2,Z,DEC_2,Z,DEC_2,Z*10,
      523     9881    1           /*320-377*/Z*16,MVNX,Z*2,CMPNX,Z*12,MRF,MTR,Z*2,MMF,MTM,Z*10,
      524     9882    1           /*400-437*/Z*32,
      525     9883    1           /*440-477*/Z*3,ASCBIN('G'),Z*15,ASCBIN('G'),Z*12,
      526     9884    1           /*500-577*/Z*7,AWDXP,Z*33,ASCBIN('D'),Z*15,ASCBIN('D'),Z*6,
      527     9885    1           /*600-617*/TRNSFR*2,Z*2,TRNSFR*3,Z,E8*8,
      528     9886    1           /*620-637*/Z*8,E8*8,
      529     9887    1           /*640-677*/Z*32,
PL6.E3A0      #006=Z9IL$PRINT_LO File=Z9IL.:Z8A6TSI                              SAT 08/09/97 14:04 Page:86
      530     9888    1           /*700-777*/Z*11,CL,Z*35,ASCBIN('Q'),Z*16),
      531     9889                                                /*
      532     9890                                                */
      533     9891    1         2 MNE(0:1023) CHAR(4) INIT
      534     9892                                                /*0-77*/
      535     9893    1           ('ARG','MME','DRL',BL*6,'NOP','PULS'*2,BL,'CIOC',BL*2,
      536     9894    1           'ADLX'*8,BL*2,'LDQC','ADL','LDAC','ADLA','ADLQ','ADLA',
      537     9895    1           'ASX0','ASX1','ASX2','ASX3','ASX4','ASX5','ASX6','ASX7',
      538     9896    1           BL*4,'AOS','ASA','ASQ','SSCR',
      539     9897    1           'ADX0','ADX1','ADX2','ADX3','ADX4','ADX5','ADX6','ADX7',
      540     9898    1           BL,'AWCA','AWCQ','LREG',BL,'ADA','ADQ','ADAQ',
      541     9899                                                /*100-177*/
      542     9900    1           'CMPX'*8,BL,'CWL',BL*3,'CMPA','CMPQ','CMPA',
      543     9901    1           'SBLX'*8,BL*5,'SBLA','SBLQ','SBLA',
      544     9902    1           'SSX0','SSX1','SSX2','SSX3','SSX4','SSX5','SSX6','SSX7',
      545     9903    1           BL*5,'SSA','SSQ','SBER',
      546     9904    1           'SBX0','SBX1','SBX2','SBX3','SBX4','SBX5','SBX6','SBX7',
      547     9905    1           BL,'SWCA','SWCQ',BL*2,'SBA','SBQ','SBAQ',
      548     9906                                                /*200-277*/
      549     9907    1           'CNAX'*8,BL,'CMK',BL*2,'SZNC','CNAA','CNAQ','CNAA',
      550     9908    1           'LDX0','LDX1','LDX2','LDX3','LDX4','LDX5','LDX6','LDX7',
      551     9909    1           'LBAR','RSW',BL,'RMCM','SZN','LDA','LDQ','LDAQ',
      552     9910    1           'ORSX'*8,BL*5,'ORSA','ORSQ',BL,
      553     9911    1           'ORX0','ORX1','ORX2','ORX3','ORX4','ORX5','ORX6','ORX7',
      554     9912    1           BL*5,'ORA','ORQ','ORAQ',
      555     9913                                                /*300-377*/
      556     9914    1           'CANX'*8,BL*5,'CANA','CANQ','CANA',
      557     9915    1           'LCX0','LCX1','LCX2','LCX3','LCX4','LCX5','LCX6','LCX7',
      558     9916    1           BL*5,'LCA','LCQ','LCAQ',
      559     9917    1           'ANSX'*8,BL*5,'ANSA','ANSQ',BL,
      560     9918    1           'ANX0','ANX1','ANX2','ANX3','ANX4','ANX5','ANX6','ANX7',
      561     9919    1           BL*5,'ANA','ANQ','ANAQ',
      562     9920                                                /*400-477*/
      563     9921    1           BL,'MPF','MPY',BL*2,'CMG',BL*2,
      564     9922    1           BL,'LDE',BL,'RSCR',BL,'ADE',BL*2,
      565     9923    1           BL,'UFM',BL,'DUFM',BL,'FCMG',BL,'DFCM',
      566     9924    1           'FSZN','FLD',BL,'DFLD',BL,'UFA',BL,'DUFA',
PL6.E3A0      #006=Z9IL$PRINT_LO File=Z9IL.:Z8A6TSI                              SAT 08/09/97 14:04 Page:87
      567     9925    1           'SXL0','SXL1','SXL2','SXL3','SXL4','SXL5','SXL6','SXL7',
      568     9926    1           'STZ','SMIC','SCPR',BL,'STT','FST','STE','DFST',
      569     9927    1           BL,'FMP',BL,'DFMP',BL*4,
      570     9928    1           'FSTR','FRD','DFST','DFRD',BL,'FAD',BL,'DFAD',
      571     9929                                                /*500-577*/
      572     9930    1           'RPL',BL*4,'BCD','DIV','DVF',BL*3,'FNEG','SMDR','FCMP',BL,'DFCM',
      573     9931    1           'RPT',BL*4,'FDI',BL,'DFDI',BL,'NEG',BL,'NEGL',BL,'UFS',BL,'DUFS',
      574     9932    1           BL*8,'SBAR','STBA','STBQ','SMCM','STC1','SMBA','SMBB',BL,
      575     9933    1           'RPD',BL*4,'FDV',BL,'DFDV','LMBA','LMBB','LBER','FNO','LMDR','FSB',BL,'DFSB'
              9933                    ,
      576     9934                                                /*600-677*/
      577     9935    1           'TZE','TNZ','TNC','TRC','TMI','TPL',BL,'TTF',
      578     9936    1           BL*4,'TEO','TEU','DIS','TOV',
      579     9937    1           'EAX0','EAX1','EAX2','EAX3','EAX4','EAX5','EAX6','EAX7',
      580     9938    1           'RET',BL*3,'LDI','EAA','EAQ','LDT',
      581     9939    1           'ERSX'*8,BL*5,'ERSA','ERSQ',BL,
      582     9940    1           'ERX0','ERX1','ERX2','ERX3','ERX4','ERX5','ERX6','ERX7',
      583     9941    1           BL*4,'LCPR','ERA','ERQ','ERAQ',
      584     9942                                                /*700-777*/
      585     9943    1           'TSX0','TSX1','TSX2','TSX3','TSX4','TSX5','TSX6','TSX7',
      586     9944    1           'TRA',BL*4,'TSS','XEC','XED',
      587     9945    1           'LXL0','LXL1','LXL2','LXL3','LXL4','LXL5','LXL6','LXL7',
      588     9946    1           BL,'ARS','QRS','LRS',BL,'ALS','QLS','LLS',
      589     9947    1           'STX0','STX1','STX2','STX3','STX4','STX5','STX6','STX7',
      590     9948    1           'STC2','STCA','STCQ','SREG','STI','STA','STQ','STAQ',
      591     9949    1           BL*8,BL,'ARL','QRL','LRL','GTB','ALR','QLR','LLR',
      592     9950                                                /*
      593     9951                                                */
      594     9952                                                /*     Eis mnemonics follow           */
      595     9953                                                /*0-77*/
      596     9954    1           BL*4,'MVNE',BL*4,'CCAC',BL*6,'MVE',BL*3,'MVNE',BL*11,
      597     9955    1           BL*8,'STD0','STD1','STD2','STD3','STD4','STD5','STD6','STD7',
      598     9956    1           'CSL','CSR',BL*2,'SZTL','SZTR','CMPB',BL*9,
      599     9957                                                /*100-177*/
      600     9958    1           'MLR','MRL',BL*4,'CMPC',BL,
      601     9959    1           'SDR0','SDR1','SDR2','SDR3','SDR4','SDR5','SDR6','SDR7',
      602     9960    1           'SCD','SCDR',BL*2,'SCM','SCMR',BL*10,
PL6.E3A0      #006=Z9IL$PRINT_LO File=Z9IL.:Z8A6TSI                              SAT 08/09/97 14:04 Page:88
      603     9961    1           BL*8,'STDS','SPDB','STO',BL*2,'STPD',BL,'STPT',
      604     9962    1           'MVT',BL*3,'TCT','TCTR',BL*2,'LDDS','LPDB','LDO',BL*3,'PAS',BL,
      605     9963                                                /*200-277*/
      606     9964    1           BL*2,'AD2D','SB2D',BL*2,'MP2D','DV2D',BL*10,'AD3D','SB3D',BL*2,
      607     9965    1           'MP3D','DV3D',BL*5,'MLDA','MLDQ','MLDA',BL*2,'AD2D','SB2D',BL*2,
      608     9966    1           'MP2D','DV2D',BL*10,'AD3D','SB3D',BL*2,'MP3D','DV3D',BL*8,
      609     9967                                                /*300-377*/
      610     9968    1           'MVN','BTD',BL,'CMPN',BL,'DTB',BL*26,'MVNX',BL*2,'CMPN',BL*12,
      611     9969    1           'MRF','MTR',BL*2,'MMF','MTM',BL*10,
      612     9970                                                /*400-477*/
      613     9971    1           BL*10,'EPAT',BL*24,'SARE',BL*3,'SPL',
      614     9972    1           'STP0','STP1','STP2','STP3','STP4','STP5','STP6','STP7',
      615     9973    1           BL*3,'LARE',BL*3,'LPL',
      616     9974    1           'LDP0','LDP1','LDP2','LDP3','LDP4','LDP5','LDP6','LDP7',
      617     9975                                                /*500-577*/
      618     9976    1           'A9BD','A6BD','A4BD','ABD',BL*3,'AWD',BL*8,
      619     9977    1           'S9BD','S6BD','S4BD','SBD',BL*3,'SWD',BL*2,'CAMP',BL*5,
      620     9978    1           'ARA0','ARA1','ARA2','ARA3','ARA4','ARA5','ARA6','ARA7',
      621     9979    1           'STTD','STDS',BL,'STTA',BL*4,
      622     9980    1           'AAR0','AAR1','AAR2','AAR3','AAR4','AAR5','AAR6','AAR7',
      623     9981    1           BL,'LDDS',BL*6,
      624     9982                                                /*600-677*/
      625     9983    1           'TRTN','TRTF',BL*2,'TMOZ','TPNZ','TTN',BL,'LDEA'*8,BL*8,'EPPR'*8,
      626     9984    1           'ARN0','ARN1','ARN2','ARN3','ARN4','ARN5','ARN6','ARN7',
      627     9985    1           BL*8,
      628     9986    1           'NAR0','NAR1','NAR2','NAR3','NAR4','NAR5','NAR6','NAR7',
      629     9987    1           'LDD0','LDD1','LDD2','LDD3','LDD4','LDD5','LDD6','LDD7',
      630     9988                                                /*700-777*/
      631     9989    1           BL*11,'CLIM',BL*20,
      632     9990    1           'SAR0','SAR1','SAR2','SAR3','SAR4','SAR5','SAR6','SAR7',
      633     9991    1           'STAS','STPS','STWS','STSS',BL,'MSTA','MSTQ','MSTA',
      634     9992    1           'LAR0','LAR1','LAR2','LAR3','LAR4','LAR5','LAR6','LAR7',
      635     9993    1           'LDAS','LDPS','LDWS','LDSS',BL*4);
      636     9994
      637     9995    1   DCL 1 TEXTBUF CHAR(%MAX_LISTING_LINE_LENGTH);
      638     9996    1   DCL 1 LISTLINE REDEF TEXTBUF,
      639     9997    1         2 *            CHAR(1),
PL6.E3A0      #006=Z9IL$PRINT_LO File=Z9IL.:Z8A6TSI                              SAT 08/09/97 14:04 Page:89
      640     9998    1         2 LINENO       CHAR(6),
      641     9999    1         2 *            CHAR(1),
      642    10000    1         2 LOC          CHAR(6),
      643    10001    1         2 *            CHAR(3),
      644    10002    1         2 WD1          CHAR(13),
      645    10003    1         2 WD REDEF WD1,
      646    10004    1           3 LH         CHAR(6),
      647    10005    1           3 *          CHAR(1),
      648    10006    1           3 RH         CHAR(6),
      649    10007    1         2 *            CHAR(1),
      650    10008    1         2 INST         CHAR(78),
      651    10009    1         2 INST1 REDEF INST,
      652    10010    1           3 RELOC      CHAR(4),
      653    10011    1           3 *          CHAR(2),
      654    10012    1           3 LF         CHAR(12),
      655    10013    1           3 *          CHAR(1),
      656    10014    1           3 CF         CHAR(8),
      657    10015    1           3 CF1 REDEF CF,
      658    10016    1             4 C1       CHAR(4),
      659    10017    1             4 C2       CHAR(2),
      660    10018    1             4 C3       CHAR(2),
      661    10019    1           3 VF         CHAR(24),
      662    10020    1           3 *          CHAR(1),
      663    10021    1           3 EISF       CHAR(25),
      664    10022    1           3 *          CHAR(%(MAX_LISTING_LINE_LENGTH-108));
      665    10023    1   DCL 1 SECTLINE REDEF TEXTBUF,
      666    10024    1         2 *            CHAR(1),
      667    10025    1         2 SECTNO       CHAR(4),
      668    10026    1         2 *            CHAR(2),
      669    10027    1         2 TYPE         CHAR(7),
      670    10028    1         2 BOUND        CHAR(4),
      671    10029    1         2 *            CHAR(2),
      672    10030    1         2 INIT_TYPE    CHAR(4),
      673    10031    1         2 SIZE         CHAR(6),
      674    10032    1         2 *            CHAR(1),
      675    10033    1         2 X_SIZE       CHAR(6),
      676    10034    1         2 *            CHAR(2),
PL6.E3A0      #006=Z9IL$PRINT_LO File=Z9IL.:Z8A6TSI                              SAT 08/09/97 14:04 Page:90
      677    10035    1         2 NAME         CHAR(30),
      678    10036    1         2 *            CHAR(%(MAX_LISTING_LINE_LENGTH-69));
      679    10037    1   DCL 1 EDEFLINE REDEF TEXTBUF,
      680    10038    1         2 *            CHAR(1),
      681    10039    1         2 SECTNO       CHAR(5),
      682    10040    1         2 *            CHAR(1),
      683    10041    1         2 LOC          CHAR(6),
      684    10042    1         2 *            CHAR(3),
      685    10043    1         2 P            CHAR(3),
      686    10044    1         2 *            CHAR(4),
      687    10045    1         2 A            CHAR(3),
      688    10046    1         2 *            CHAR(5),
      689    10047    1         2 C            CHAR(3),
      690    10048    1         2 *            CHAR(5),
      691    10049    1         2 CSTYP        CHAR(6),
      692    10050    1         2 *            CHAR(2),
      693    10051    1         2 NP           CHAR(5),
      694    10052    1         2 *            CHAR(2),
      695    10053    1         2 NAME         CHAR(30),
      696    10054    1         2 *            CHAR(%(MAX_LISTING_LINE_LENGTH-84));
      697    10055    1   DCL 1 EREFLINE REDEF TEXTBUF,
      698    10056    1         2 *            CHAR(1),
      699    10057    1         2 ALT          CHAR(3),
      700    10058    1         2 *            CHAR(5),
      701    10059    1         2 CHK          CHAR(3),
      702    10060    1         2 *            CHAR(4),
      703    10061    1         2 SREF         CHAR(3),
      704    10062    1         2 *            CHAR(3),
      705    10063    1         2 CST          CHAR(6),
      706    10064    1         2 *            CHAR(1),
      707    10065    1         2 NPARAM       CHAR(5),
      708    10066    1         2 *            CHAR(2),
      709    10067    1         2 NAME         CHAR(%(MAX_LISTING_LINE_LENGTH-36));
      710    10068    1   DCL MOP3(0:2) BIT(9) CONSTANT INIT('303'O,'102'O,'327'O /*Ign3,mvzbn,mvc7*/);
      711    10069    1   DCL MOP4(0:2) BIT(9) CONSTANT INIT('302'O,'103'O,'327'O /*Ign2,mvzbn,mvc7*/);
      712    10070    1   DCL MOP6(0:1) BIT(9) CONSTANT INIT('105'O,'327'O /*Mvzbn,mvc7*/);
      713    10071                                                /**/
PL6.E3A0      #006=Z9IL$PRINT_LO File=Z9IL.:Z8A6TSI                              SAT 08/09/97 14:04 Page:91
      714    10072    1   DCL P$             PTR;
      715    10073    1   DCL TEMP_SBIN      SBIN;
      716    10074    1   DCL TEMP_SBIN_2    SBIN;
      717    10075    1   DCL FOLLOW         SBIN;
      718    10076    1   DCL DESC_TYPE      SBIN;
      719    10077    1   DCL FOLLOW#        SBIN;
      720    10078    1   DCL LASTLOC        SBIN;
      721    10079    1   DCL VARFLD$        PTR;
      722    10080    1   DCL VARFLD#        SBIN;
      723    10081    1   DCL VARFLDTX       CHAR(VARFLD#) BASED(VARFLD$);
      724    10082    1   DCL VARFLDTXT      CHAR(5) BASED(VARFLD$);
      725    10083    1   DCL TEMP_UBIN      UBIN;
      726    10084    1   DCL ENT#           SBIN HALF;
      727    10085    1   DCL TEMPC          CHAR(6);
      728    10086    1   DCL OBJ_SECT_NUM   SBIN;
      729    10087    1   DCL OBJ_SECT_PTR   PTR;
      730    10088    1   DCL LAST_SECT_NUM  SBIN;
      731    10089    1   DCL LAST_SECT_OFFSET SBIN;
      732    10090        %EQU PROC_SECT = 0;
      733    10091    1   DCL TAG_FIELD      UBIN;
      734    10092    1   DCL LAST_LINE_#    SBIN;
      735    10093    1   DCL TEMP_PTR       PTR;
      736    10094    1   DCL VARFLD_PARAM_BIT_ALIGNED BIT(1) ALIGNED;
      737    10095    1   DCL RESID_LEN SBIN;
      738    10096    1   DCL RESID_ST$ PTR ;
      739    10097    1   DCL RESID_N$  PTR;
      740    10098    1   DCL RESID CHAR(VARFLD#) BASED(RESID_N$);
      741    10099    1   DCL BASED$EPTR EPTR BASED;
      742    10100                                                /*
      743    10101                                                */
      744    10102    1   DCL TAGS(0:63) CHAR(4) CONSTANT INIT
      745    10103    1   (',',',AU',',QU',',DU',',IC',',AL',',QL',',DL'
      746    10104    1   ,',X0',',X1',',X2',',X3',',X4',',X5',',X6',',X7'
      747    10105    1   ,',*',',AU*',',QU*',',DU*',',IC*',',AL*',',QL*',',DL*'
      748    10106    1   ,',X0*',',X1*',',X2*',',X3*',',X4*',',X5*',',X6*',',X7*'
      749    10107    1   ,',F',',?'*3,',SD',',SCR',',?'*2,',CI',',I',',SC',',AD',',DI',',DIC',',ID',',IDC'
      750    10108    1   ,',*',',*AU',',*QU',',*DU',',*IC',',*AL',',*QL',',*DL'
PL6.E3A0      #006=Z9IL$PRINT_LO File=Z9IL.:Z8A6TSI                              SAT 08/09/97 14:04 Page:92
      751    10109    1   ,',*X0',',*X1',',*X2',',*X3',',*X4',',*X5',',*X6',',*X7'
      752    10110    1   );
      753    10111    1   DCL TAGSZ(0:63) UBIN(3) UNAL CONSTANT INIT
      754    10112    1   (1,3,3,3,3,3,3,3,3,3,3,3,3,3,3,3
      755    10113    1   ,2,4*15
      756    10114    1   ,2*4,3,4,2*2,3,2,3*3,4,3,4
      757    10115    1   ,2,4*15
      758    10116    1   );
      759    10117                                                /**/
      760    10118    1   DCL BYTBIT(0:3) CONSTANT CHAR(9) INIT
      761    10119    1   ('by=0,bit=','by=1,bit=','by=2,bit=','by=3,bit=');
      762    10120                                                /**/
      763    10121    1   DCL PMMECODES(0:7) CONSTANT UBIN INIT
      764    10122    1   (16385,16384,12289,12290,1,2,20480,20481
      765    10123    1   );
      766    10124                                                /**/
      767    10125    1   DCL PMMENAMES(0:7) CONSTANT CHAR(8) INIT
      768    10126    1   ('write','read','gds','fds','exit','err','open','close'
      769    10127    1   );
      770    10128                                                /**/
      771    10129    1   DCL SIGNCODE(0:3) CONSTANT CHAR(5) INIT ('lsgnf','lsgns','tsgns','nosgn');
      772    10130    1   DCL SIGNCODEO(0:3) CONSTANT CHAR(5) INIT ('lsgno','lsgns','tsgns','tsgno');
      773    10131    1   DCL 1 LOC,
      774    10132    1         2 LHX             SBIN HALF UNAL,
      775    10133    1         2 LH REDEF LHX,
      776    10134    1           3 PR            UBIN(3) UNAL,
      777    10135    1           3 OFFSET        SBIN(15) UNAL,
      778    10136    1         2 LHU REDEF LHX   UBIN HALF UNAL,
      779    10137    1         2 LHR REDEF LHX,
      780    10138    1           3 ALT           BIT(1),
      781    10139    1           3 PMMECODE      UBIN(17) UNAL,
      782    10140    1         2 RHX             SBIN HALF UNAL,
      783    10141    1         2 RH REDEF RHX,
      784    10142    1           3 OP            UBIN BYTE UNAL,
      785    10143    1           3 EIS           BIT(1),
      786    10144    1           3 INHIB         BIT(1),
      787    10145    1           3 PR            BIT(1),
PL6.E3A0      #006=Z9IL$PRINT_LO File=Z9IL.:Z8A6TSI                              SAT 08/09/97 14:04 Page:93
      788    10146    1           3 MODTYP        UBIN(2) UNAL,
      789    10147    1           3 REG           UBIN(4) UNAL,
      790    10148    1         2 RHU REDEF RHX   UBIN HALF UNAL,
      791    10149    1         2 RH1 REDEF RHX,
      792    10150    1           3 *             UBIN(6) UNAL,
      793    10151    1           3 REG           UBIN(3) UNAL,
      794    10152    1           3 *             BIT(3),
      795    10153    1           3 TAG,
      796    10154    1             4 FIRST_FOUR  UBIN(4) UNAL,
      797    10155    1             4 *           BIT(2),
      798    10156    1           3 TAG_SIX REDEF TAG UBIN(6) UNAL;
      799    10157    1   DCL LOCX REDEF LOC      SBIN;
      800    10158    1   DCL 1 LOCEIS REDEF LOC,
      801    10159    1         2 *               BIT(1),
      802    10160    1         2 NS              BIT(1),
      803    10161    1         2 MF3             BIT(3),
      804    10162    1         2 TAG3            UBIN(4) UNAL,
      805    10163    1         2 *               BIT(2),
      806    10164    1         2 MF2             BIT(3),
      807    10165    1         2 TAG2            UBIN(4) UNAL,
      808    10166    1         2 *               BIT(11),
      809    10167    1         2 MF1             BIT(3),
      810    10168    1         2 TAG1            UBIN(4) UNAL;
      811    10169    1   DCL 1 LOCBDSC REDEF LOC,
      812    10170    1         2 *               BIT(18),
      813    10171    1         2 C               UBIN(2) UNAL,
      814    10172    1         2 B               UBIN(4) UNAL,
      815    10173    1         2 N               UBIN(12) UNAL;
      816    10174    1   DCL 1 LOCADSC REDEF LOC,
      817    10175    1         2 *               BIT(18),
      818    10176    1         2 CN              UBIN(3) UNAL,                /*9->cn/2,4->cn*/
      819    10177    1         2 CN9 REDEF CN,
      820    10178    1           3 C             UBIN(2) UNAL,
      821    10179    1           3 *             BIT(1),
      822    10180    1         2 TA              UBIN(2) UNAL,                /*0->9,1->6,2->4*/
      823    10181    1         2 N               UBIN(13) UNAL;
      824    10182    1   DCL 1 LOCSDSC REDEF LOC,
PL6.E3A0      #006=Z9IL$PRINT_LO File=Z9IL.:Z8A6TSI                              SAT 08/09/97 14:04 Page:94
      825    10183    1         2 *               BIT(18) UNAL,
      826    10184    1         2 CN              UBIN(3) UNAL,
      827    10185    1         2 E               BOOLEAN,
      828    10186    1         2 TS              BOOLEAN,
      829    10187    1         2 *               BIT(9) UNAL,
      830    10188    1         2 N               UBIN(4) UNAL;
      831    10189    1   DCL 1 LOCNDSC REDEF LOC,
      832    10190    1         2 *               BIT(18),
      833    10191    1         2 CN              UBIN(3) UNAL,
      834    10192    1         2 CN9 REDEF CN,
      835    10193    1           3 C             UBIN(2) UNAL,
      836    10194    1           3 *             BIT(1),
      837    10195    1         2 TN              BIT(1),                      /*0->9,1->4*/
      838    10196    1         2 S               UBIN(2) UNAL,      /*0->float,1->lead sgn,2->trail,3->none*/
      839    10197    1         2 SF              SBIN(6) UNAL,
      840    10198    1         2 N               UBIN(6) UNAL;
      841    10199    1   DCL 1 LOCEIS1 REDEF LOC,
      842    10200    1         2 FILL            UBIN(9) UNAL,
      843    10201    1         2 *               BIT(27);
      844    10202    1   DCL 1 LOCCLIMB REDEF LOC,
      845    10203    1         2 E               BIT(1),
      846    10204    1         2 P               UBIN(9) UNAL,
      847    10205    1         2 *               BIT(8),
      848    10206    1         2 X0              BIT(1),
      849    10207    1         2 NOSL            BIT(1),
      850    10208    1         2 *               BIT(2),
      851    10209    1         2 OP              UBIN(2) UNAL,
      852    10210    1         2 SID             UBIN(12) UNAL;
      853    10211    1   DCL EISTAGS(0:2)        UBIN(6);
      854    10212    1   DCL 1 EISMF(0:2) ALIGNED,
      855    10213    1         2 PR              BIT(1),
      856    10214    1         2 RL              BIT(1),
      857    10215    1         2 IND             BIT(1);
      858    10216    1   DCL EISDESC#            SBIN;
      859    10217    1   DCL OPCODE              UBIN;
      860    10218
      861    10219        %DCL_EIS_BUFFER;
PL6.E3A0      #006=Z9IL$PRINT_LO File=Z9IL.:Z8A6TSI                              SAT 08/09/97 14:04 Page:95
      862    10257        %EJECT;
PL6.E3A0      #006=Z9IL$PRINT_LO File=Z9IL.:Z8A6TSI                              SAT 08/09/97 14:04 Page:96
      863    10258            /* Macro definitions */
      864    10259
      865    10260
      866    10261        %MACRO PRINT_LO_BUFFER(LLTYP=0);
      867    10262
      868    10263         DO;
      869    10264          IF LAST_LINE_TYPE ~= LLTYP THEN
      870    10265            CALL Z9IL$OUTPUT_TO_LO(ADDR(BLANK), LENGTHC(BLANK));
      871    10266          CALL Z9IL$OUTPUT_TO_LO(ADDR(TEXTBUF), LENGTHC(TEXTBUF));
      872    10267          TEXTBUF = ' ';
      873    10268          LAST_LINE_TYPE = LLTYP;
      874    10269         END;
      875    10270
      876    10271        %MEND;
      877    10272
      878    10273
      879    10274        %MACRO PRINT_LO_STRING(V=TEXTBUF);
      880    10275
      881    10276          CALL Z9IL$OUTPUT_TO_LO(ADDR(V), LENGTHC(V));
      882    10277
      883    10278        %MEND;
      884    10279
      885    10280
      886    10281
      887    10282
      888    10283
      889    10284        %MACRO APP_VAR_FLD(S="' '");
      890    10285
      891    10286          DO;
      892    10287            VARFLD# = LENGTHC(S);
      893    10288            VARFLDTX = S;
      894    10289            VARFLD$ = PINCRC(VARFLD$, LENGTHC(S));
      895    10290          END;
      896    10291
      897    10292        %MEND;
      898    10293
      899    10294
PL6.E3A0      #006=Z9IL$PRINT_LO File=Z9IL.:Z8A6TSI                              SAT 08/09/97 14:04 Page:97
      900    10295
      901    10296        %MACRO IF_THIS_CODE_SHOULD_BE_LISTED;
      902    10297
      903    10298             IF (COMCOM.OB.LISTOUT.CODE AND OBJ_SECT_NUM < COMCOM.SEGMENTC)
      904    10299                  OR
      905    10300                (COMCOM.OB.LISTOUT.DATA AND OBJ_SECT_NUM >= COMCOM.SEGMENTC) THEN
      906    10301
      907    10302        %MEND;
      908    10303
      909    10304        %EJECT;
PL6.E3A0      #006=Z9IL$PRINT_LO File=Z9IL.:Z8A6TSI                              SAT 08/09/97 14:04 Page:98
      910    10305    1   LIST_CONTROL_SECTIONS : PROC;
      911    10306
      912    10307    2   DCL CSHDR CHAR(0) CONSTANT INIT('    ****  CONTROL SECTIONS  ****');
      913    10308    2   DCL SECTHD1 CHAR(0) CONSTANT INIT(
             10308            ' Sect   Type Bound  Init  Size OctSiz  Section name(segment info)');
      914    10309    2   DCL COUNT SBIN;
      915    10310    2   DCL SECTION$ PTR;
      916    10311
      917    10312
      918    10313
      919    10314
      920    10315    2   LIST_SECTION : PROC (SECT$, TYPE);
      921    10316
      922    10317    3   DCL SECT$ PTR;   /* TO ST */
      923    10318    3   DCL TYPE SBIN;
      924    10319
      925    10320    3   CALL BINCHAR(TEMPC, SECT$ -> ST.OU_INDEX);
      926    10321    3   CALL EDITCHAR (SECTLINE.SECTNO, 0, 4, MOP4, TEMPC);
      927    10322
      928    10323    4   DO CASE(TYPE);
      929    10324
      930    10325    4     CASE(1);  /* PROCEDURE */
      931    10326    4       SECTLINE.TYPE = ' PROC';
      932    10327    4       SECTLINE.INIT_TYPE = 'none';
      933    10328
      934    10329    4     CASE(3);
      935    10330    4       SECTLINE.TYPE = ' DATA';
      936    10331    4       SECTLINE.INIT_TYPE = 'zero';
      937    10332
      938    10333    4     CASE(5);
      939    10334    4       SECTLINE.TYPE = ' DCB ';
      940    10335    4       SECTLINE.INIT_TYPE = 'none';
      941    10336
      942    10337    4     CASE(ELSE);
      943    10338    4       SECTLINE.TYPE = ' ????';
      944    10339    4       SECTLINE.INIT_TYPE = 'none';
      945    10340
PL6.E3A0      #006=Z9IL$PRINT_LO File=Z9IL.:Z8A6TSI                              SAT 08/09/97 14:04 Page:99
      946    10341    4   END;  /* CASE */
      947    10342
      948    10343    3   SECTLINE.BOUND     = 'even';
      949    10344    3   CALL BINCHAR(TEMPC, SECT$ -> BLOCK.SIZE);
      950    10345    3   CALL EDITCHAR(SECTLINE.SIZE, 0, 6, MOP6, TEMPC);
      951    10346    3   CALL Z8IU$CONVERT_OCTAL_SUP(SECTLINE.X_SIZE, BINBIT(SECT$ -> BLOCK.SIZE, 36));
      952    10347    3   SECTLINE.NAME = SECT$ -> BLOCK.DNT$ -> DNT.TEXT.NAME;
      953    10348        %PRINT_LO_STRING(V=SECTLINE);
      954    10351    3   TEXTBUF = ' ';
      955    10352
      956    10353    3   END LIST_SECTION;
      957    10354
      958    10355
      959    10356
      960    10357             /* Main body of LIST_CONTROL_SECTIONS */
      961    10358
      962    10359        %SETUP_SUB_HEADING(L0=CSHDR, L1=BLANK, L2=SECTHD1);
      963    10369        %NEW_PAGE;
      964    10373
      965    10374    3   DO COUNT = 0 TO COMCOM.SEGMENTC - 1;
      966    10375    3     CALL LIST_SECTION(COMCOM.SEGMENT$(COUNT), 1);  /* Procedure */
      967    10376    3   END;
      968    10377
      969    10378    2   SECTION$ = COMCOM.BLOCK$;
      970    10379    3   DO WHILE (SECTION$ ~= ADDR(NIL));
      971    10380    4     DO CASE (SECTION$ -> ST.ID);
      972    10381
      973    10382    4       CASE(%BLOCK, %SEGMENT);
      974    10383
      975    10384    4         CALL LIST_SECTION (SECTION$, 3);  /* Data */
      976    10385
      977    10386    4       CASE(%DCB_);
      978    10387
      979    10388    4         CALL LIST_SECTION (SECTION$, 5);  /* DCB */
      980    10389
      981    10390    4       CASE(ELSE);
      982    10391
PL6.E3A0      #006=Z9IL$PRINT_LO File=Z9IL.:Z8A6TSI                              SAT 08/09/97 14:04 Page:100
      983    10392    4         CALL LIST_SECTION (SECTION$, -1);  /* Unknown */
      984    10393    4     END;
      985    10394
      986    10395    3     SECTION$ = SECTION$ -> ST.NEXT;
      987    10396    3   END;
      988    10397
      989    10398    2   END LIST_CONTROL_SECTIONS;
      990    10399        %EJECT;
PL6.E3A0      #006=Z9IL$PRINT_LO File=Z9IL.:Z8A6TSI                              SAT 08/09/97 14:04 Page:101
      991    10400    1   LIST_ENTRY_DEFS : PROC;
      992    10401
      993    10402    2   DCL EDHDR CHAR(0) CONSTANT INIT('    ****  ENTRY DEFS  ****');
      994    10403    2   DCL EDEFHD0 CHAR(0) CONSTANT INIT
      995    10404    2        ('                             Chk call Call seq');
      996    10405    2   DCL EDEFHD1 CHAR(0) CONSTANT INIT
      997    10406    2        ('  Sect OctLoc Primary Altret sequence   type   Parms  Name');
      998    10407
      999    10408    2   DCL SYMDEF$            PTR;
     1000    10409
     1001    10410
     1002    10411        %SETUP_SUB_HEADING(L0=EDHDR, L1=EDEFHD0, L2=EDEFHD1);
     1003    10421        %NEW_PAGE;
     1004    10425
     1005    10426        /* Print program names as entry def */
     1006    10427
     1007    10428    2    SYMDEF$ = COMCOM.SYMDEF$;
     1008    10429
     1009    10430    3    DO WHILE (SYMDEF$ ~= ADDR(NIL));
     1010    10431
     1011    10432    3      EDEFLINE.SECTNO      = '    0';
     1012    10433    3      EDEFLINE.LOC         = '     0';
     1013    10434    3      IF COMCOM.OU_EXTERNAL_NAME$ = SYMDEF$ -> SYMDEF_.DNT$ THEN
     1014    10435    3        EDEFLINE.P           = 'yes';
     1015    10436    3      ELSE
     1016    10437    3        EDEFLINE.P           = ' no';
     1017    10438
     1018    10439    3      IF SYMDEF$ -> SYMDEF_.B.MAIN_PROGRAM THEN
     1019    10440    3        EDEFLINE.CSTYP       = ' Main';
     1020    10441    3      ELSE
     1021    10442    3        EDEFLINE.CSTYP       = '  Std';
     1022    10443
     1023    10444    3      IF SYMDEF$ -> SYMDEF_.ARGLIST$ = ADDR(NIL)
     1024    10445    3      OR (SYMDEF$ -> SYMDEF_.ARGLIST$ ~= ADDR(NIL)
     1025    10446    3          AND SYMDEF$ -> SYMDEF_.ARGLIST$ -> ARGLIST.N - 1 = 0) THEN
     1026    10447    3        EDEFLINE.NP          = '    0';
     1027    10448    3      ELSE
PL6.E3A0      #006=Z9IL$PRINT_LO File=Z9IL.:Z8A6TSI                              SAT 08/09/97 14:04 Page:102
     1028    10449    4        DO;
     1029    10450    4          CALL Z8IU$CONVERT_OCTAL_SUP (TEMPC,
     1030    10451    4                                       BINBIT (SYMDEF$ ->
     1031    10452    4                                       SYMDEF_.ARGLIST$ -> ARGLIST.N - 1, 36));
     1032    10453
     1033    10454    4          EDEFLINE.NP = SUBSTR (TEMPC, 1, 5);
     1034    10455    4        END;
     1035    10456
     1036    10457    3      EDEFLINE.NAME = SYMDEF$ -> SYMDEF_.DNT$ -> DNT.TEXT.NAME;
     1037    10458
     1038    10459           %PRINT_LO_STRING(V=EDEFLINE);
     1039    10462    3      TEXTBUF = ' ';
     1040    10463
     1041    10464    3      SYMDEF$ = SYMDEF$ -> SYMDEF_.NEXT;
     1042    10465
     1043    10466    3    END; /* While */
     1044    10467
     1045    10468    2   END LIST_ENTRY_DEFS;
     1046    10469        %EJECT;
PL6.E3A0      #006=Z9IL$PRINT_LO File=Z9IL.:Z8A6TSI                              SAT 08/09/97 14:04 Page:103
     1047    10470
     1048    10471    1   LIST_ENTRY_REFS : PROC;
     1049    10472
     1050    10473    2   DCL ERHDR CHAR(0) CONSTANT INIT('    ****  ENTRY REFS  ****');
     1051    10474    2   DCL EREFHD0 CHAR(0) CONSTANT INIT
     1052    10475    2        ('        Chk call      Call seq');
     1053    10476    2   DCL EREFHD1 CHAR(0) CONSTANT INIT
     1054    10477    2        ('Altret sequence SRef   type   Args  Name');
     1055    10478
     1056    10479    2   DCL SECTION$ PTR;
     1057    10480
     1058    10481
     1059    10482    2   LIST_ENTREF : PROC(ER$);
     1060    10483
     1061    10484    3   DCL ER$ PTR;
     1062    10485
     1063    10486    3   EREFLINE.CST  = ' Std';
     1064    10487    3   EREFLINE.NAME = ER$ -> ST.DNT$ -> DNT.TEXT.NAME;
     1065    10488        %PRINT_LO_STRING(V=EREFLINE);
     1066    10491    3   TEXTBUF   = ' ';
     1067    10492
     1068    10493    3   END LIST_ENTREF;
     1069    10494
     1070    10495
     1071    10496          /* Main body of LIST_ENTREF */
     1072    10497
     1073    10498        %SETUP_SUB_HEADING(L0=ERHDR, L1=EREFHD0, L2=EREFHD1);
     1074    10508        %NEW_PAGE;
     1075    10512
     1076    10513    2   SECTION$ = COMCOM.SYMREF$;
     1077    10514    3   DO WHILE SECTION$ ~= ADDR(NIL);
     1078    10515    3     IF SECTION$ -> ST.ID = %SYMREF_ THEN
     1079    10516    3       CALL LIST_ENTREF(SECTION$);
     1080    10517    3     SECTION$ = SECTION$ -> ST.NEXT;
     1081    10518    3   END;
     1082    10519
     1083    10520    2   END LIST_ENTRY_REFS;
PL6.E3A0      #006=Z9IL$PRINT_LO File=Z9IL.:Z8A6TSI                              SAT 08/09/97 14:04 Page:104
     1084    10521        %EJECT;
PL6.E3A0      #006=Z9IL$PRINT_LO File=Z9IL.:Z8A6TSI                              SAT 08/09/97 14:04 Page:105
     1085    10522    1   LIST_DATA_MAP : PROC;
     1086    10523
     1087    10524        %INCLUDE Z8A_QLT;
     1088    10630
     1089    10631    2   DCL SAHDR CHAR(0) CONSTANT INIT ('    ****  SCALARS AND ARRAYS  ****');
     1090    10632    2   DCL VSTRCTHD1 CHAR(0) CONSTANT INIT
     1091    10633    2       ('OctLoc.c.b A Datatyp(siz) R M Lvl/name');
     1092    10634
     1093    10635    2   DCL Z9IO$SEARCH_ST_STRUCT ENTRY(3);
     1094    10636    2   DCL Z9IL$DM_ENTRY ENTRY(2);
     1095    10637
     1096    10638        %SETUP_SUB_HEADING(L0=SAHDR, L1=BLANK, L2=VSTRCTHD1);
     1097    10648        %NEW_PAGE;
     1098    10652
     1099    10653        %TOP_ST;
     1100    10658
     1101    10659    3   DO WHILE ST$ ~= ADDR(NIL);
     1102    10660    4     DO CASE(ST$ -> ST.ID);
     1103    10661
     1104    10662    4       CASE (%TEMP, %SCALAR, %ARRAY, %FD, %SD, %CD, %RD, %DB);
     1105    10663
     1106    10664    4           IF ST$ -> VARIABLE.QLT$ ~= ADDR(NIL) THEN
     1107    10665    4             IF ST$ -> VARIABLE.QLT$ -> QLT.FATHER = ADDR(NIL) THEN
     1108    10666    4               CALL Z9IO$SEARCH_ST_STRUCT (ST$, 1, ENTADDR(Z9IL$DM_ENTRY));
     1109    10667
     1110    10668    4     END;  /* CASE OF ST.ID */
     1111    10669
     1112    10670          %STEP_ST;
     1113    10680    3   END;  /* DO WHILE */
     1114    10681
     1115    10682
     1116    10683    2   END LIST_DATA_MAP;
     1117    10684        %EJECT;
PL6.E3A0      #006=Z9IL$PRINT_LO File=Z9IL.:Z8A6TSI                              SAT 08/09/97 14:04 Page:106
     1118    10685    1   MERGE_SOURCE : PROC (LINE#);
     1119    10686
     1120    10687    2   DCL LINE# SBIN;
     1121    10688
     1122    10689        /* MERGE THE SOURCE LINES UP TO AND INCLUDING THE LINE# SPECIFIED.
     1123    10690        */
     1124    10691
     1125    10692    2   DCL EOF_SOURCE BIT(1) STATIC INIT('0'B);
     1126    10693    2   DCL LINE#_WAITING SBIN STATIC INIT(0);
     1127    10694
     1128    10695    2   DCL 1 LINE STATIC,
     1129    10696    2         2 VFC_CHAR CHAR(1),
     1130    10697    2         2 WAITING CHAR(132);
     1131    10698
     1132    10699
     1133    10700    2   IF NOT EOF_SOURCE  AND
     1134    10701    2      (COMCOM.OB.LISTOUT.CODE OR COMCOM.OB.LISTOUT.DATA) THEN
     1135    10702    3     DO;
     1136    10703
     1137    10704    4       DO WHILE LINE#_WAITING <= LINE#;
     1138    10705
     1139    10706    4         IF LINE#_WAITING = 0 THEN
     1140    10707    4           CALL Z9IL$UNGMAP$SI$READ (LINE#_WAITING, LINE)
     1141    10708    4               ALTRET(EOF_SOURCE_LAB);
     1142    10709
     1143    10710    4         IF LINE#_WAITING <= LINE# THEN
     1144    10711    5           DO;
     1145    10712    5             IF LAST_LINE_TYPE ~= %LLTSRC THEN
     1146    10713    5               CALL Z9IL$OUTPUT_TO_LO(ADDR(BLANK), LENGTHC(BLANK));
     1147    10714    5             CALL Z9IL$OUTPUT_TO_LO(ADDR(LINE.WAITING), %MAX_LISTING_LINE_LENGTH);
     1148    10715    5             LAST_LINE_TYPE = %LLTSRC;
     1149    10716    5             LINE#_WAITING = 0;
     1150    10717    5           END;
     1151    10718
     1152    10719    4       END;
     1153    10720
     1154    10721
PL6.E3A0      #006=Z9IL$PRINT_LO File=Z9IL.:Z8A6TSI                              SAT 08/09/97 14:04 Page:107
     1155    10722    3     END;
     1156    10723
     1157    10724    2   RETURN;
     1158    10725
     1159    10726    2   EOF_SOURCE_LAB:
     1160    10727    2     EOF_SOURCE = '1'B;
     1161    10728
     1162    10729    2   END MERGE_SOURCE;
     1163    10730        %EJECT;
PL6.E3A0      #006=Z9IL$PRINT_LO File=Z9IL.:Z8A6TSI                              SAT 08/09/97 14:04 Page:108
     1164    10731    1   VARFLD: PROC(PRBIT,P_TAG);
     1165    10732
     1166    10733    2   DCL PRBIT              BIT(1) ALIGNED;
     1167    10734    2   DCL P_TAG              UBIN ALIGNED;
     1168    10735
     1169    10736    2   DCL TAG_MINUS_64       UBIN HALF;
     1170    10737    2   DCL TEXT6              CHAR(6);
     1171    10738    2   DCL TEMP_SBIN          SBIN;
     1172    10739    2   DCL TEMP_SBIN_2        SBIN;
     1173    10740    2   DCL SYMBOLIC_OPERAND   BIT(1);
     1174    10741    2   DCL PTRREG             UBIN;
     1175    10742    2   DCL PTRREGS(0:7)       CHAR(5) CONSTANT INIT
     1176    10743    2   (',PR0',',PR1',',PR2',',PR3',',PR4',',PR5',',PR6',',PR7'
     1177    10744    2   );
     1178    10745        %EJECT;
PL6.E3A0      #006=Z9IL$PRINT_LO File=Z9IL.:Z8A6TSI                              SAT 08/09/97 14:04 Page:109
     1179    10746    2   ADD_SYMBOLIC_OPERAND : PROC;
     1180    10747
     1181    10748    3   DCL SYM_TRUNC BIT(1);
     1182    10749
     1183    10750
     1184    10751    3     SYM_TRUNC = '0'B;
     1185    10752    4     DO CASE (OBJ_WORD.ST$ -> ST.ID);
     1186    10753
     1187    10754    4       CASE (%CONST, %SYMREF_, %SYMDEF_, %BLOCK, %SEGMENT);
     1188    10755              %APP_VAR_FLD(S="'='");
     1189    10762
     1190    10763    4     END;  /* CASE */
     1191    10764
     1192    10765    3     VARFLD# = OBJ_WORD.ST$ -> ST.DNT$ -> DNT.TEXT.LENGTH;
     1193    10766    3     IF LISTLINE.INST1.EISF = ' ' THEN
     1194    10767    4       DO;
     1195    10768    4         IF VARFLD# > 30 THEN
     1196    10769    5           DO;
     1197    10770    5             VARFLD# = 25;
     1198    10771    5             SYM_TRUNC = '1'B;
     1199    10772    5           END;
     1200    10773    4       END;
     1201    10774    3     ELSE
     1202    10775    4       DO;
     1203    10776    4         IF VARFLD# > 12 THEN
     1204    10777    5           DO;
     1205    10778    5             VARFLD# = 7;
     1206    10779    5             SYM_TRUNC = '1'B;
     1207    10780    5           END;
     1208    10781    4       END;
     1209    10782    3     VARFLDTX = OBJ_WORD.ST$ -> ST.DNT$ -> DNT.TEXT.NAME;
     1210    10783    3     VARFLD$ = PINCRC(VARFLD$, VARFLD#);
     1211    10784
     1212    10785    3     IF SYM_TRUNC THEN
     1213    10786    4       DO;
     1214    10787              %APP_VAR_FLD(S="'...'");
     1215    10794    4         VARFLD# =     2;
PL6.E3A0      #006=Z9IL$PRINT_LO File=Z9IL.:Z8A6TSI                              SAT 08/09/97 14:04 Page:110
     1216    10795    4         VARFLDTX = SUBSTR(OBJ_WORD.ST$ -> ST.DNT$ -> DNT.TEXT.NAME,
     1217    10796    4                           OBJ_WORD.ST$ -> ST.DNT$ -> DNT.TEXT.LENGTH - 2,
     1218    10797    4                           2);
     1219    10798    4         VARFLD$ = PINCRC(VARFLD$, VARFLD#);
     1220    10799    4       END;
     1221    10800
     1222    10801    3     IF (OBJ_WORD.ST$ -> ST.ID = %BLOCK
     1223    10802    3              OR OBJ_WORD.ST$ -> ST.ID = %SEGMENT)
     1224    10803    3         AND TEMP_SBIN > 0 THEN
     1225    10804    4       DO;
     1226    10805              %APP_VAR_FLD(S="'+'");
     1227    10812    4         CALL Z8IU$CONVERT_DEC_LEFT(VARFLDTX, TEMP_SBIN*16, 6, VARFLD$);
     1228    10813              %APP_VAR_FLD(S="'K'");
     1229    10820    4         TEMP_SBIN = 0;
     1230    10821    4       END;
     1231    10822
     1232    10823    3   END ADD_SYMBOLIC_OPERAND;
     1233    10824        %EJECT;
PL6.E3A0      #006=Z9IL$PRINT_LO File=Z9IL.:Z8A6TSI                              SAT 08/09/97 14:04 Page:111
     1234    10825                   /* Main body of VARFLD */
     1235    10826
     1236    10827    2           SYMBOLIC_OPERAND     = '0'B;
     1237    10828    2           TEMP_SBIN            =LOC.LHX;
     1238    10829    2           IF PRBIT OR P_TAG = 4 THEN
     1239    10830    3             DO;
     1240    10831    3                IF PRBIT THEN
     1241    10832    4                  DO;
     1242    10833    4                    PTRREG = LOC.LH.PR;
     1243    10834    4                    TEMP_SBIN = LOC.LH.OFFSET;
     1244    10835    4                  END;
     1245    10836
     1246    10837    3                IF P_TAG = 4 AND LISTLINE.INST1.LF = ' ' THEN
     1247    10838    4                  DO;
     1248    10839    4                    TEMP_PTR = VARFLD$;
     1249    10840    4                    VARFLD$ = ADDR(LISTLINE.INST1.LF);
     1250    10841                         %APP_VAR_FLD(S="'(off='");
     1251    10848    4                    TEMP_SBIN_2 = TEMP_SBIN + OBJ_WORD.OFFSET - EIS_BUFFER_LEN;
     1252    10849    4                    IF DESC_TYPE = FOLLOW_WD THEN
     1253    10850    4                      TEMP_SBIN_2 = TEMP_SBIN_2 - OBJ_WORD.INST.LONGY;
     1254    10851    4                    CALL Z8IU$CONVERT_OCTAL(VARFLDTXT,
     1255    10852    4                       BINBIT(TEMP_SBIN_2, 36));
     1256    10853    4                    VARFLD$ = PINCRC(VARFLD$, 6);
     1257    10854                         %APP_VAR_FLD(S="')'");
     1258    10861    4                    VARFLD$ = TEMP_PTR;
     1259    10862    4                  END;
     1260    10863    3             END;
     1261    10864
     1262    10865    2            IF OBJ_WORD.ST$ ~= ADDR(NIL) THEN
     1263    10866    2              IF OBJ_WORD.ST$ -> ST.DNT$ ~= ADDR(NIL) THEN
     1264    10867    3                DO;
     1265    10868    3                  TEMP_SBIN = TEMP_SBIN - MOD(OBJ_WORD.ST$ -> ST.SA, 16384);
     1266    10869    3                  IF P_TAG = 4 THEN
     1267    10870    3                    TEMP_SBIN = TEMP_SBIN + OBJ_WORD.OFFSET - EIS_BUFFER_LEN;
     1268    10871    3                  CALL ADD_SYMBOLIC_OPERAND;
     1269    10872    3                  SYMBOLIC_OPERAND = '1'B;
     1270    10873    3                END;
PL6.E3A0      #006=Z9IL$PRINT_LO File=Z9IL.:Z8A6TSI                              SAT 08/09/97 14:04 Page:112
     1271    10874
     1272    10875    2           IF TEMP_SBIN < 0 THEN
     1273    10876    3             DO;
     1274    10877                    %APP_VAR_FLD(S="' - '");
     1275    10884    3               CALL Z8IU$CONVERT_DEC_LEFT(VARFLDTXT,
     1276    10885    3                                          - TEMP_SBIN,
     1277    10886    3                                          6,
     1278    10887    3                                          VARFLD$);
     1279    10888    3             END;
     1280    10889    2           ELSE
     1281    10890    2             IF VARFLD$=ADDR(LISTLINE.INST1.VF)  THEN
     1282    10891                                                  /*
     1283    10892                                                  Always call print it if negative or
     1284    10893                                                  the first part of the operand.
     1285    10894                                                  */
     1286    10895    2                CALL Z8IU$CONVERT_DEC_LEFT(VARFLDTXT,TEMP_SBIN,6,VARFLD$);
     1287    10896    2             ELSE
     1288    10897    2                IF TEMP_SBIN>0 THEN
     1289    10898                                                  /*
     1290    10899                                                  If not first put in leading
     1291    10900                                                  plus sign
     1292    10901                                                  */
     1293    10902    3                  DO;
     1294    10903                          %APP_VAR_FLD(S="'+'");
     1295    10910    3                     CALL Z8IU$CONVERT_DEC_LEFT(VARFLDTXT,TEMP_SBIN,6,VARFLD$);
     1296    10911    3                     END;
     1297    10912
     1298    10913    2           IF PRBIT OR P_TAG~=0 THEN
     1299    10914    3             DO;
     1300    10915    3                IF P_TAG>64 THEN
     1301    10916    4                  DO;
     1302    10917    4                     TAG_MINUS_64=P_TAG-64;
     1303    10918    4                     CALL Z8IU$CONVERT_OCTAL(TEXT6,BINBIT(TAG_MINUS_64,36));
     1304    10919    4                     CALL INSERT(VARFLDTX,0,6,',''',SUBSTR(TEXT6,4,2),'''O');
     1305    10920    4                     VARFLD$=PINCRC(VARFLD$,6);
     1306    10921    4                   END;
     1307    10922    3                ELSE
PL6.E3A0      #006=Z9IL$PRINT_LO File=Z9IL.:Z8A6TSI                              SAT 08/09/97 14:04 Page:113
     1308    10923    3                  IF P_TAG =4 AND SYMBOLIC_OPERAND THEN
     1309    10924    4                    DO;
     1310    10925                           %APP_VAR_FLD(S="',$'");
     1311    10932    4                    END;
     1312    10933    3                  ELSE
     1313    10934    4                    DO;
     1314    10935    4                       VARFLDTXT=TAGS(P_TAG);
     1315    10936    4                       VARFLD$=PINCRC(VARFLD$,TAGSZ(P_TAG));
     1316    10937    4                       END;
     1317    10938
     1318    10939    3                IF PRBIT THEN
     1319    10940    4                  DO;
     1320    10941    4                     VARFLDTXT=PTRREGS(PTRREG);
     1321    10942    4                     VARFLD$=PINCRC(VARFLD$,SIZEC(PTRREGS(0)));
     1322    10943    4                   END;
     1323    10944
     1324    10945    3                END;
     1325    10946    2           RETURN;
     1326    10947    2   END VARFLD;
     1327    10948
     1328    10949        %EJECT;
PL6.E3A0      #006=Z9IL$PRINT_LO File=Z9IL.:Z8A6TSI                              SAT 08/09/97 14:04 Page:114
     1329    10950    1   TRN_DESC : PROC;
     1330    10951
     1331    10952    2                FOLLOW#   = FOLLOW#-1;
     1332    10953    2                DESC_TYPE = MOD(FOLLOW,64);
     1333    10954    2                FOLLOW    = FOLLOW/64;
     1334    10955
     1335    10956    3                DO CASE(DESC_TYPE);
     1336    10957    3                 CASE(FOLLOW_ND, FOLLOW_NDO);
     1337    10958
     1338    10959                                                /*Numeric descriptor. show all fields
     1339    10960                                                in decipherable form.
     1340    10961                                                */
     1341    10962    3                   TAG_FIELD         = EISTAGS(EISDESC#);
     1342    10963    3                   VARFLD_PARAM_BIT_ALIGNED = EISMF.PR(EISDESC#);
     1343    10964    3                   CALL VARFLD(VARFLD_PARAM_BIT_ALIGNED,TAG_FIELD);
     1344    10965    3                   LISTLINE.INST1.CF = 'NDSC9';
     1345    10966    3                   TEMP_SBIN         = LOCNDSC.CN9.C;
     1346    10967    3                   IF LOCNDSC.TN='1'B THEN
     1347    10968
     1348    10969    4                     DO;
     1349    10970    4                        LISTLINE.INST1.CF1.C2='4';
     1350    10971    4                        TEMP_SBIN=LOCNDSC.CN;
     1351    10972    4                      END;
     1352    10973    3                   IF VARFLD$<PINCRC(ADDR(LISTLINE.INST1.EISF),-1) THEN
     1353    10974    3                      VARFLD$=ADDR(LISTLINE.INST1.EISF);
     1354    10975    3                   ELSE
     1355    10976    3                      VARFLD$=PINCRC(VARFLD$,1);
     1356    10977
     1357    10978                        %APP_VAR_FLD(S="'cn='");
     1358    10985    3                   CALL Z8IU$CONVERT_DEC_LEFT(VARFLDTXT,TEMP_SBIN,1,VARFLD$);
     1359    10986
     1360    10987                        %APP_VAR_FLD(S="',s='");
     1361    10994    3                   IF DESC_TYPE = FOLLOW_NDO  AND  LOCNDSC.TN = '0'B THEN
     1362    10995    3                     VARFLDTXT = SIGNCODEO(LOCNDSC.S);
     1363    10996    3                   ELSE
     1364    10997    3                     VARFLDTXT=SIGNCODE(LOCNDSC.S);
     1365    10998    3                   VARFLD$=PINCRC(VARFLD$,SIZEC(SIGNCODE(0)));
PL6.E3A0      #006=Z9IL$PRINT_LO File=Z9IL.:Z8A6TSI                              SAT 08/09/97 14:04 Page:115
     1366    10999
     1367    11000                        %APP_VAR_FLD(S="',sf='");
     1368    11007    3                   TEMP_SBIN=LOCNDSC.SF;
     1369    11008    3                   CALL Z8IU$CONVERT_DEC_LEFT(VARFLDTXT,TEMP_SBIN,2,VARFLD$);
     1370    11009    3                   TEMP_SBIN=LOCNDSC.N;
     1371    11010
     1372    11011                        %APP_VAR_FLD(S="',n='");
     1373    11018    3                   IF EISMF.RL(EISDESC#) THEN
     1374    11019    3                      VARFLDTXT=SUBSTR(TAGS(TEMP_SBIN+48),1);
     1375    11020    3                   ELSE
     1376    11021    3                      CALL Z8IU$CONVERT_DEC_LEFT(VARFLDTXT,TEMP_SBIN,2,VARFLD$);
     1377    11022    3                   EISDESC#=EISDESC#+1;
     1378    11023
     1379    11024    3                 CASE(FOLLOW_NDS);
     1380    11025    3                   TAG_FIELD = EISTAGS(EISDESC#);
     1381    11026    3                   VARFLD_PARAM_BIT_ALIGNED = EISMF.PR(EISDESC#);
     1382    11027    3                   CALL VARFLD(VARFLD_PARAM_BIT_ALIGNED,TAG_FIELD);
     1383    11028
     1384    11029    3                   LISTLINE.INST1.CF = 'SDSC8';
     1385    11030    3                   IF VARFLD$ < PINCRC(ADDR(LISTLINE.INST1.EISF),-1) THEN
     1386    11031    3                       VARFLD$ = ADDR(LISTLINE.INST1.EISF);
     1387    11032    3                   ELSE
     1388    11033    3                       VARFLD$ = PINCRC(VARFLD$,1);
     1389    11034
     1390    11035                        %APP_VAR_FLD(S="',cn='");
     1391    11042    3                   TEMP_SBIN = LOCSDSC.CN;
     1392    11043    3                   CALL Z8IU$CONVERT_DEC_LEFT(VARFLDTXT,TEMP_SBIN,1,VARFLD$);
     1393    11044
     1394    11045                        %APP_VAR_FLD(S="',n='");
     1395    11052    3                   TEMP_SBIN = LOCSDSC.N;
     1396    11053    3                   IF EISMF.RL(EISDESC#)      THEN
     1397    11054    3                       VARFLDTXT = SUBSTR(TAGS(TEMP_SBIN + 48),1);
     1398    11055    3                   ELSE
     1399    11056    3                       CALL Z8IU$CONVERT_DEC_LEFT(VARFLDTXT,TEMP_SBIN,2,VARFLD$);
     1400    11057    3                   EISDESC# = EISDESC# + 1;
     1401    11058
     1402    11059    3                 CASE(FOLLOW_WD);
PL6.E3A0      #006=Z9IL$PRINT_LO File=Z9IL.:Z8A6TSI                              SAT 08/09/97 14:04 Page:116
     1403    11060
     1404    11061                                                /*Simple word address used for some eis
     1405    11062                                                inst's.                               */
     1406    11063    3                   LISTLINE.INST1.CF='ARG';
     1407    11064    3                   TAG_FIELD = LOC.RH1.TAG_SIX;
     1408    11065    3                   VARFLD_PARAM_BIT_ALIGNED = LOC.RH.PR;
     1409    11066    3                   CALL VARFLD(VARFLD_PARAM_BIT_ALIGNED, TAG_FIELD);
     1410    11067
     1411    11068    3                 CASE(FOLLOW_CD);
     1412    11069                                                /*Alphanumeric descriptor. show all
     1413    11070                                                fields.                               */
     1414    11071    3                   TAG_FIELD         = EISTAGS(EISDESC#);
     1415    11072    3                   VARFLD_PARAM_BIT_ALIGNED = EISMF.PR(EISDESC#);
     1416    11073    3                   CALL VARFLD(VARFLD_PARAM_BIT_ALIGNED,TAG_FIELD);
     1417    11074    3                   LISTLINE.INST1.CF = 'ADSC9';
     1418    11075    3                   TEMP_SBIN         = LOCADSC.CN9.C;
     1419    11076
     1420    11077    3                   IF LOCADSC.TA=1 THEN
     1421    11078    4                     DO;
     1422    11079    4                        LISTLINE.INST1.CF1.C2='6';
     1423    11080    4                        TEMP_SBIN=LOCADSC.CN;
     1424    11081    4                        END;
     1425    11082    3                   ELSE
     1426    11083    3                      IF LOCADSC.TA=2 THEN
     1427    11084    4                        DO;
     1428    11085    4                           LISTLINE.INST1.CF1.C2='4';
     1429    11086    4                           TEMP_SBIN=LOCADSC.CN;
     1430    11087    4                           END;
     1431    11088
     1432    11089    3                   TEMP_SBIN_2=LOCADSC.N;
     1433    11090    3                   IF VARFLD$<PINCRC(ADDR(LISTLINE.INST1.EISF),-1) THEN
     1434    11091    3                      VARFLD$=ADDR(LISTLINE.INST1.EISF);
     1435    11092    3                   ELSE
     1436    11093    3                      VARFLD$=PINCRC(VARFLD$,1);
     1437    11094    3                   VARFLD$=VARFLD$;
     1438    11095
     1439    11096                        %APP_VAR_FLD(S="'cn='");
PL6.E3A0      #006=Z9IL$PRINT_LO File=Z9IL.:Z8A6TSI                              SAT 08/09/97 14:04 Page:117
     1440    11103    3   MERGEN:         CALL Z8IU$CONVERT_DEC_LEFT(VARFLDTXT,TEMP_SBIN,1,VARFLD$);
     1441    11104
     1442    11105                        %APP_VAR_FLD(S="',n='");
     1443    11112    3                   IF EISMF.RL(EISDESC#) THEN
     1444    11113    3                      VARFLDTXT=SUBSTR(TAGS(TEMP_SBIN_2+48),1);
     1445    11114    3                   ELSE CALL Z8IU$CONVERT_DEC_LEFT(VARFLDTXT,TEMP_SBIN_2,4);
     1446    11115    3                   EISDESC#=EISDESC#+1;
     1447    11116
     1448    11117    3                 CASE(FOLLOW_BD);
     1449    11118                                                /*Bit descriptor. Show all fields.    */
     1450    11119    3                   TAG_FIELD=EISTAGS(EISDESC#);
     1451    11120    3                   VARFLD_PARAM_BIT_ALIGNED = EISMF.PR(EISDESC#);
     1452    11121    3                   CALL VARFLD(VARFLD_PARAM_BIT_ALIGNED,TAG_FIELD);
     1453    11122    3                   LISTLINE.INST1.CF='BDSC';
     1454    11123    3                   IF VARFLD$<PINCRC(ADDR(LISTLINE.INST1.EISF),-1) THEN
     1455    11124    3                      VARFLD$=ADDR(LISTLINE.INST1.EISF);
     1456    11125    3                   ELSE
     1457    11126    3                      VARFLD$=PINCRC(VARFLD$,1);
     1458    11127    3                   VARFLD#      = SIZEC(BYTBIT(0));
     1459    11128    3                   VARFLDTX     = BYTBIT(LOCBDSC.C);
     1460    11129    3                   VARFLD$      = PINCRC(VARFLD$,SIZEC(BYTBIT(0)));
     1461    11130    3                   TEMP_SBIN    = LOCBDSC.B;
     1462    11131    3                   TEMP_SBIN_2  = LOCBDSC.N;
     1463    11132    3                   GOTO MERGEN;
     1464    11133
     1465    11134    3                 CASE(FOLLOW_SI);
     1466    11135                                                /*Climb follower word. Show type of
     1467    11136                                                climb and seg id if appropriate.      */
     1468    11137    4                   DO CASE(LOCCLIMB.OP);
     1469    11138    4                    CASE(1);
     1470    11139    4                      LISTLINE.INST1.CF='RET';
     1471    11140    4                    CASE(2);
     1472    11141    4                      LISTLINE.INST1.CF='LTRAS';
     1473    11142    4                    CASE(3);
     1474    11143    4                      LISTLINE.INST1.CF='LTRAD';
     1475    11144    4                    CASE(0);
     1476    11145    4                      TEMP_SBIN=0;
PL6.E3A0      #006=Z9IL$PRINT_LO File=Z9IL.:Z8A6TSI                              SAT 08/09/97 14:04 Page:118
     1477    11146    4                      IF LOCCLIMB.E THEN
     1478    11147    4                         TEMP_SBIN=LOCCLIMB.P+1;
     1479    11148    4                      IF LOCCLIMB.SID=1008 THEN
     1480    11149    4                         LISTLINE.INST1.CF='PMME';
     1481    11150    4                      ELSE
     1482    11151    4                        LISTLINE.INST1.CF='CLIMB';
     1483    11152    4                      LISTLINE.INST1.VF='nvectors=';
     1484    11153    4                      VARFLD$=PINCRC(VARFLD$,9);
     1485    11154    4                      CALL Z8IU$CONVERT_DEC_LEFT(VARFLDTXT,TEMP_SBIN,3,VARFLD$);
     1486    11155    4                    END;
     1487    11156    3                 END;
     1488    11157
     1489    11158    2   END TRN_DESC;
     1490    11159        %EJECT;
PL6.E3A0      #006=Z9IL$PRINT_LO File=Z9IL.:Z8A6TSI                              SAT 08/09/97 14:04 Page:119
     1491    11160    1   TRN_HALFW : PROC;
     1492    11161
     1493    11162                                           /*Not an inst. Display as half word data.*/
     1494    11163    2                     LISTLINE.INST1.CF='ZERO';
     1495    11164    2                     TEMP_SBIN=LOC.LHX;
     1496    11165    2                     IF VARFLD$~=ADDR(LISTLINE.INST1.VF) AND TEMP_SBIN>0 THEN
     1497    11166    3                       DO;
     1498    11167                                                /*
     1499    11168                                                We must have already printed something:
     1500    11169                                                Indicate a +  if positive. Negative will
     1501    11170                                                be handled by Z8IU$CONVERT_DEC_LEFT.
     1502    11171                                                */
     1503    11172                               %APP_VAR_FLD(S="'+'");
     1504    11179    3                          END;
     1505    11180    2                     CALL Z8IU$CONVERT_DEC_LEFT(VARFLDTXT,TEMP_SBIN,6,VARFLD$);
     1506    11181                          %APP_VAR_FLD(S="','");
     1507    11188    2                     TEMP_SBIN=LOC.RHX;
     1508    11189    2                     CALL Z8IU$CONVERT_DEC_LEFT(VARFLDTXT,TEMP_SBIN,6);
     1509    11190
     1510    11191    2   END TRN_HALFW;
     1511    11192        %EJECT;
PL6.E3A0      #006=Z9IL$PRINT_LO File=Z9IL.:Z8A6TSI                              SAT 08/09/97 14:04 Page:120
     1512    11193    1   TRN_INST : PROC;
     1513    11194
     1514    11195    2          OPCODE = LOC.RH.OP;
     1515    11196    2          IF LOC.RH.EIS THEN
     1516    11197    2            OPCODE = OPCODE + 512;
     1517    11198    2          LISTLINE.INST1.CF = OPCODES.MNE(OPCODE);
     1518    11199
     1519    11200    2                IF LISTLINE.INST1.CF=' ' THEN
     1520    11201    3                  DO;
     1521    11202    3                    CALL TRN_HALFW;
     1522    11203    3                  END;
     1523    11204    2                ELSE
     1524    11205    3                  DO;
     1525    11206                                           /*It's an inst. Insert !(bang) if inhibit
     1526    11207                                           bit set in inst.                           */
     1527    11208    3                     IF LOC.RH.INHIB THEN
     1528    11209    3                        LISTLINE.INST1.CF1.C3='!';
     1529    11210    3                     TAG_FIELD=LOC.RH1.TAG_SIX;
     1530    11211
     1531    11212    4                     DO CASE(OPCODES.MISC(OPCODE));
     1532    11213                                                /*Take special action as required for
     1533    11214                                                certain instructions.*/
     1534    11215
     1535    11216    4                      CASE(Z);
     1536    11217                                                /*No special action.*/
     1537    11218
     1538    11219    4                      CASE(AWDXP);
     1539    11220                                               /* The AR bit is not on for
     1540    11221                                                  AWDX instruction, we turn
     1541    11222                                                  it on for correct listout */
     1542    11223    4                        IF NOT LOC.RH.PR THEN
     1543    11224    5                          DO;
     1544    11225    5                            LOC.RH.PR = '1'B;
     1545    11226    5                            LISTLINE.INST1.CF = 'AWDX';
     1546    11227    5                          END;
     1547    11228
     1548    11229    4                      CASE(TRNSFR);
PL6.E3A0      #006=Z9IL$PRINT_LO File=Z9IL.:Z8A6TSI                              SAT 08/09/97 14:04 Page:121
     1549    11230                             /* SPECIAL ACTIONS DELETED */
     1550    11231
     1551    11232    4                      CASE(MVE);
     1552    11233    4                        FOLLOW#      = 3;
     1553    11234    4                        FOLLOW       = FOLLOW_CD * 4096 + FOLLOW_CD * 64 + FOLLOW_CD;
     1554    11235    4   SETFOLLOW:           EISDESC#     = 0;
     1555    11236    4                        EISTAGS(0)   = LOCEIS.TAG1;
     1556    11237    4                        EISTAGS(1)   = LOCEIS.TAG2;
     1557    11238    4                        EISTAGS(2)   = LOCEIS.TAG3;
     1558    11239    4                        EISMF(0)     = LOCEIS.MF1;
     1559    11240    4                        EISMF(1)     = LOCEIS.MF2;
     1560    11241    4                        EISMF(2)     = LOCEIS.MF3;
     1561    11242    4                        GOTO NOVARFLD;
     1562    11243
     1563    11244    4                      CASE(MVNEX);
     1564    11245    4                        LISTLINE.INST1.CF = 'MVNEX';
     1565    11246    4                        FOLLOW# = 3;
     1566    11247    4                        FOLLOW  = FOLLOW_CD * 4096 + FOLLOW_CD * 64 + FOLLOW_ND;
     1567    11248    4                        GOTO SETFOLLOW;
     1568    11249    4                      CASE(CMPNX,AD2DX,SB2DX,MP2DX,DV2DX);
     1569    11250    4                        LISTLINE.INST1.CF1.C2 = 'X';
     1570    11251    4                        FOLLOW#=2;
     1571    11252    4                        IF LOCEIS.NS
     1572    11253    4                          THEN FOLLOW = FOLLOW_ND;
     1573    11254    4                          ELSE FOLLOW = FOLLOW_NDO;
     1574    11255    4                        FOLLOW = FOLLOW * 64 + FOLLOW_NDO;
     1575    11256    4                        GOTO SETFOLLOW;
     1576    11257    4                      CASE(AD3DX,SB3DX,MP3DX,DV3DX);
     1577    11258    4                        LISTLINE.INST1.CF1.C2 = 'X';
     1578    11259    4                        FOLLOW# = 3;
     1579    11260    4                        IF LOCEIS.NS
     1580    11261    4                          THEN FOLLOW = FOLLOW_ND;
     1581    11262    4                          ELSE FOLLOW = FOLLOW_NDO;
     1582    11263    4                        FOLLOW  = FOLLOW * 4096 + FOLLOW_NDO * 64 + FOLLOW_NDO;
     1583    11264    4                        GOTO SETFOLLOW;
     1584    11265
     1585    11266    4                      CASE(MRF, MMF);
PL6.E3A0      #006=Z9IL$PRINT_LO File=Z9IL.:Z8A6TSI                              SAT 08/09/97 14:04 Page:122
     1586    11267    4                        FOLLOW#=2;
     1587    11268    4                        FOLLOW = FOLLOW_ND * 64 + FOLLOW_ND;
     1588    11269    4                        GOTO SETFOLLOW;
     1589    11270
     1590    11271    4                      CASE(MVNE);
     1591    11272    4                        FOLLOW# = 3;
     1592    11273    4                        FOLLOW  = FOLLOW_CD * 4096 + FOLLOW_CD * 64 + FOLLOW_ND;
     1593    11274    4                        GOTO SETFOLLOW;
     1594    11275
     1595    11276    4                      CASE(MVNX);
     1596    11277    4                        FOLLOW#=2;
     1597    11278    4                        IF LOCEIS.NS
     1598    11279    4                          THEN FOLLOW = FOLLOW_ND;
     1599    11280    4                          ELSE FOLLOW = FOLLOW_NDO;
     1600    11281    4                        FOLLOW = FOLLOW * 64 + FOLLOW_NDO;
     1601    11282    4                        GOTO SETFOLLOW;
     1602    11283
     1603    11284    4                      CASE(MTR,MTM);
     1604    11285    4                         FOLLOW# = 1;
     1605    11286    4                         FOLLOW =  FOLLOW_NDS;
     1606    11287    4                         GOTO SETFOLLOW;
     1607    11288
     1608    11289    4                      CASE(BT);
     1609    11290    4                        FOLLOW#           = 2;
     1610    11291    4                        FOLLOW            = FOLLOW_BD * 64 + FOLLOW_BD;
     1611    11292    4                        LISTLINE.INST1.VF = 'bolr=''   ''O';
     1612    11293    4   SETBOLR:             ;
     1613    11294    4                        ENT#              = LOCEIS1.FILL;
     1614    11295    4                        CALL Z8IU$CONVERT_OCTAL(TEMPC,BINBIT(ENT#,36));
     1615    11296    4                        CALL INSERT(LISTLINE.INST1.VF,6,3,SUBSTR(TEMPC,3,3));
     1616    11297    4                        GOTO SETFOLLOW;
     1617    11298
     1618    11299    4                      CASE(CH);
     1619    11300    4                        FOLLOW#           = 2;
     1620    11301    4                        FOLLOW            = FOLLOW_CD * 64 + FOLLOW_CD;
     1621    11302    4   SETFILL:             ;
     1622    11303    4                        LISTLINE.INST1.VF = 'fill=''   ''O';
PL6.E3A0      #006=Z9IL$PRINT_LO File=Z9IL.:Z8A6TSI                              SAT 08/09/97 14:04 Page:123
     1623    11304    4                        GOTO SETBOLR;
     1624    11305
     1625    11306    4                      CASE(DEC_3);
     1626    11307    4                        FOLLOW#=3;
     1627    11308    4                        FOLLOW = FOLLOW_ND * 4096 + FOLLOW_ND * 64 + FOLLOW_ND;
     1628    11309    4                        GOTO SETFOLLOW;
     1629    11310
     1630    11311    4                      CASE(DEC_2);
     1631    11312    4                        FOLLOW#=2;
     1632    11313    4                        FOLLOW = FOLLOW_ND * 64 + FOLLOW_ND;
     1633    11314    4                        GOTO SETFOLLOW;
     1634    11315
     1635    11316    4                      CASE(SC);
     1636    11317    4                        FOLLOW#=3;
     1637    11318    4                        FOLLOW = FOLLOW_WD * 4096 + FOLLOW_CD * 64 + FOLLOW_CD;
     1638    11319    4                        GOTO SETFILL;
     1639    11320
     1640    11321    4                      CASE(SCM);
     1641    11322    4                        FOLLOW#=3;
     1642    11323    4                        FOLLOW = FOLLOW_WD * 4096 + FOLLOW_CD * 64 + FOLLOW_CD;
     1643    11324    4                        LISTLINE.INST1.VF='mask=''   ''O';
     1644    11325    4                        GOTO SETBOLR;
     1645    11326
     1646    11327    4                      CASE(SCD);
     1647    11328    4                        FOLLOW#=3;
     1648    11329    4                        FOLLOW = FOLLOW_WD * 4096 + FOLLOW_CD * 64 + FOLLOW_CD;
     1649    11330    4                        GOTO SETFOLLOW;
     1650    11331
     1651    11332    4                      CASE(TC);
     1652    11333    4                        FOLLOW#=3;
     1653    11334    4                        FOLLOW = FOLLOW_WD * 4096 + FOLLOW_WD * 64 + FOLLOW_CD;
     1654    11335    4                        GOTO SETFOLLOW;
     1655    11336
     1656    11337    4                      CASE(CL);
     1657    11338    4                        FOLLOW#           = 1;
     1658    11339    4                        FOLLOW            = FOLLOW_SI;
     1659    11340    4                        LISTLINE.INST1.CF1.C2 =  'B';
PL6.E3A0      #006=Z9IL$PRINT_LO File=Z9IL.:Z8A6TSI                              SAT 08/09/97 14:04 Page:124
     1660    11341    4                        IF LOC.LHR.ALT
     1661    11342    5                        THEN DO;
     1662    11343                                  %APP_VAR_FLD(S="'alt,'");
     1663    11350    5                             LOC.LHR.ALT='0'B;
     1664    11351    5                             END;
     1665    11352    4                        TEMP_UBIN=0;
     1666    11353    5                        DO WHILE(TEMP_UBIN<SIZEW(PMMECODES)/SIZEW(PMMECODES(0)));
     1667    11354    5                           IF LOC.LHR.PMMECODE=PMMECODES(TEMP_UBIN)
     1668    11355    6                           THEN DO;
     1669    11356    6                                VARFLD#=8;
     1670    11357    6                                VARFLDTX=PMMENAMES(TEMP_UBIN);
     1671    11358    6                                GOTO NOVARFLD;
     1672    11359    6                                END;
     1673    11360    5                           TEMP_UBIN=TEMP_UBIN+1;
     1674    11361    5                           END;
     1675    11362
     1676    11363    4                      CASE(NOP);
     1677    11364
     1678    11365    4                      CASE(STCASTCQ,STBASTBQ);
     1679    11366                                                /*
     1680    11367                                                Special case stc(a/q) instruction so
     1681    11368                                                that tag field is output in octal.
     1682    11369                                                */
     1683    11370    4                        TAG_FIELD=LOC.RH1.TAG_SIX+64;
     1684    11371
     1685    11372    4                      CASE(E8);
     1686    11373                                                /*Eight each type inst. Insert reg #. */
     1687    11374    4                        LISTLINE.INST1.CF1.C2=BINASC(LOC.RH1.REG+ASCBIN('0'));
     1688    11375
     1689    11376    4                      CASE(ELSE);
     1690    11377                                           /*All else are the literal fifth characters
     1691    11378                                           of the mnemonic. Just insert it.*/
     1692    11379    4                        LISTLINE.INST1.CF1.C2=BINASC(OPCODES.MISC(OPCODE));
     1693    11380    4                      END;
     1694    11381    3                     VARFLD_PARAM_BIT_ALIGNED = LOC.RH.PR;
     1695    11382    3                     CALL VARFLD(VARFLD_PARAM_BIT_ALIGNED,TAG_FIELD);
     1696    11383    3   NOVARFLD:
PL6.E3A0      #006=Z9IL$PRINT_LO File=Z9IL.:Z8A6TSI                              SAT 08/09/97 14:04 Page:125
     1697    11384    3                     END;
     1698    11385
     1699    11386    2   END TRN_INST;
     1700    11387        %EJECT;
PL6.E3A0      #006=Z9IL$PRINT_LO File=Z9IL.:Z8A6TSI                              SAT 08/09/97 14:04 Page:126
     1701    11388    1   TRN_RELOC : PROC;
     1702    11389
     1703    11390    2   DCL I SBIN;
     1704    11391    2   DCL BS_OU_INDEX SBIN;
     1705    11392    2   DCL BS_OU_INDEX_TYPE SBIN;
     1706    11393    2   DCL BS_ST$ PTR;
     1707    11394
     1708    11395
     1709    11396    2     IF OBJ_WORD.B.WORD_REL OR OBJ_WORD.B.HALF_REL THEN
     1710    11397    3       DO CASE(OBJ_WORD.ST$ -> ST.ID);
     1711    11398
     1712    11399    3         CASE(%BLOCK, %SEGMENT);
     1713    11400
     1714    11401    3           CALL Z8IU$CONVERT_DEC_LEFT (LISTLINE.INST1.RELOC,
     1715    11402    3                                      BINBIT(OBJ_WORD.ST$ -> ST.OU_INDEX, 36),
     1716    11403    3                                      LENGTHC(LISTLINE.INST1.RELOC));
     1717    11404
     1718    11405    3         CASE(%SYMREF_);
     1719    11406
     1720    11407    3           LISTLINE.INST1.RELOC = 'xent';
     1721    11408
     1722    11409    3         CASE (%PARA, %SECTION, %DCB_, %SYMDEF_, %INTDEF,
     1723    11410                     %ST_ITEMS_WITH_STORAGE;
     1724    11422    3              );
     1725    11423
     1726    11424    4         DO CASE(OBJ_WORD.ST$ -> VARIABLE.R);
     1727    11425
     1728    11426
     1729    11427    4           CASE(%PROGRAM);
     1730    11428
     1731    11429    4             BS_OU_INDEX = COMCOM.SEGMENT$ (OBJ_WORD.ST$ -> VARIABLE.COUNT)
     1732    11430    4                               -> ST.OU_INDEX;
     1733    11431    4             BS_OU_INDEX_TYPE = 1;
     1734    11432
     1735    11433    4           CASE(%BLOCK_);
     1736    11434
     1737    11435    4             BS_ST$ = COMCOM.BLOCK$;
PL6.E3A0      #006=Z9IL$PRINT_LO File=Z9IL.:Z8A6TSI                              SAT 08/09/97 14:04 Page:127
     1738    11436    5             DO I = 1 TO OBJ_WORD.ST$ -> VARIABLE.COUNT -1;
     1739    11437    5               BS_ST$ = BS_ST$ -> VARIABLE.NEXT;
     1740    11438    5             END;
     1741    11439    4             BS_OU_INDEX = BS_ST$ -> ST.OU_INDEX;
     1742    11440    4             BS_OU_INDEX_TYPE = 1;
     1743    11441
     1744    11442    4           CASE(%EXT_PROGRAM);
     1745    11443
     1746    11444    4             BS_ST$ = COMCOM.SYMREF$;
     1747    11445    5             DO I = 1 TO OBJ_WORD.ST$ -> VARIABLE.COUNT - 1;
     1748    11446    5               BS_ST$ = BS_ST$ -> VARIABLE.NEXT;
     1749    11447    5             END;
     1750    11448    4             BS_OU_INDEX = BS_ST$ -> ST.OU_INDEX;
     1751    11449    4             BS_OU_INDEX_TYPE = 2;
     1752    11450    4         END;
     1753    11451
     1754    11452
     1755    11453    3           IF BS_OU_INDEX_TYPE = 1 THEN
     1756    11454    3             CALL Z8IU$CONVERT_DEC_LEFT (LISTLINE.INST1.RELOC,
     1757    11455    3                                         BS_OU_INDEX,
     1758    11456    3                                         LENGTHC(LISTLINE.INST1.RELOC));
     1759    11457    3           ELSE
     1760    11458    3             LISTLINE.INST1.RELOC = 'xent';
     1761    11459
     1762    11460    3         CASE(ELSE);
     1763    11461
     1764    11462    3           LISTLINE.INST1.RELOC = 'REL';
     1765    11463
     1766    11464    3       END;
     1767    11465
     1768    11466    2   END TRN_RELOC;
     1769    11467        %EJECT;
PL6.E3A0      #006=Z9IL$PRINT_LO File=Z9IL.:Z8A6TSI                              SAT 08/09/97 14:04 Page:128
     1770    11468    1   TRN_K_OFFSET : PROC (OFFSET);
     1771    11469
     1772    11470    2   DCL OFFSET SBIN;
     1773    11471
     1774    11472
     1775    11473    2   IF OFFSET > 0 THEN
     1776    11474    3     DO;
     1777    11475    3       IF OFFSET > 16383 THEN
     1778    11476    4         DO;
     1779    11477                %APP_VAR_FLD(S="'+'");
     1780    11484    4           CALL Z8IU$CONVERT_DEC_LEFT(VARFLDTXT, (OFFSET/16384)*16, 6, VARFLD$);
     1781    11485                %APP_VAR_FLD(S="'K'");
     1782    11492    4         END;
     1783    11493    3       IF MOD(OFFSET, 16384) > 0 THEN
     1784    11494    4         DO;
     1785    11495                %APP_VAR_FLD(S="'+'");
     1786    11502    4           CALL Z8IU$CONVERT_DEC_LEFT(VARFLDTXT, MOD(OFFSET, 16384), 6,  VARFLD$);
     1787    11503    4         END;
     1788    11504    3     END;
     1789    11505
     1790    11506    2   END TRN_K_OFFSET;
     1791    11507        %EJECT;
PL6.E3A0      #006=Z9IL$PRINT_LO File=Z9IL.:Z8A6TSI                              SAT 08/09/97 14:04 Page:129
     1792    11508    1   GEN_ORG : PROC (SECT_PTR, OFFSET);
     1793    11509
     1794    11510    2   DCL SECT_PTR PTR;
     1795    11511    2   DCL OFFSET   SBIN;
     1796    11512
     1797    11513
     1798    11514    2   CALL Z9IL$OUTPUT_TO_LO(ADDR(BLANK), LENGTHC(BLANK));
     1799    11515    2   IF SECT_PTR -> ST.OU_INDEX = 0 THEN
     1800    11516    3     DO;
     1801    11517    3       LISTLINE.INST1.CF = 'USE';
     1802    11518    3       LISTLINE.INST1.VF = SECT_PTR -> ST.DNT$ -> DNT.TEXT.NAME;
     1803    11519    3     END;
     1804    11520    2   ELSE
     1805    11521    3     DO;
     1806    11522    3       LISTLINE.INST1.CF  = 'ORG';
     1807    11523    3       VARFLD$            = ADDR(LISTLINE.INST1.VF);
     1808    11524    3       VARFLD#            = MINIMUM(SECT_PTR -> ST.DNT$ -> DNT.TEXT.LENGTH, 18);
     1809    11525    3       VARFLDTX           = SECT_PTR -> ST.DNT$ -> DNT.TEXT.NAME;
     1810    11526    3       VARFLD$            = PINCRC(VARFLD$, VARFLD#);
     1811    11527    3       CALL TRN_K_OFFSET(BINBIT(OFFSET, 36));
     1812    11528    3     END;
     1813    11529        %PRINT_LO_BUFFER(LLTYP=%LLTOBJ);
     1814    11538    2   LAST_SECT_NUM          = SECT_PTR -> ST.OU_INDEX;
     1815    11539    2   LAST_SECT_OFFSET       = OFFSET;
     1816    11540
     1817    11541    2   END GEN_ORG;
     1818    11542        %EJECT;
PL6.E3A0      #006=Z9IL$PRINT_LO File=Z9IL.:Z8A6TSI                              SAT 08/09/97 14:04 Page:130
     1819    11543    1   TRN_DATA : PROC;
     1820    11544
     1821    11545
     1822    11546
     1823    11547    2       IF OBJ_WORD.ST$ ~= ADDR(NIL) AND
     1824    11548    2           ADDR(OBJ_WORD.ST$) -> BASED$EPTR ~= ENTADDR(NIL) THEN
     1825    11549    2         IF OBJ_WORD.ST$ -> ST.DNT$ ~= ADDR(NIL) THEN
     1826    11550    2           IF OBJ_WORD.ST$ -> ST.ID = %BLOCK
     1827    11551    2               OR OBJ_WORD.ST$ -> ST.ID = %SEGMENT
     1828    11552    2               OR OBJ_WORD.ST$ -> ST.ID = %SYMREF_ THEN
     1829    11553    3             DO;
     1830    11554    3               LISTLINE.INST1.CF = 'BASPTR';
     1831    11555    3               VARFLD# = MINIMUM(OBJ_WORD.ST$ -> ST.DNT$ -> DNT.TEXT.LENGTH, 30);
     1832    11556    3               VARFLDTX = OBJ_WORD.ST$ -> ST.DNT$ -> DNT.TEXT.NAME;
     1833    11557    3               VARFLD$ = PINCRC(VARFLD$, VARFLD#);
     1834    11558    3               CALL TRN_K_OFFSET(BINBIT(OBJ_WORD.INST.LONGY, 36));
     1835    11559    3             END;
     1836    11560    2           ELSE
     1837    11561    2             IF NOT OBJ_WORD.B.ETC THEN
     1838    11562    3               DO;
     1839    11563    3                 LISTLINE.INST1.CF = 'CONST';
     1840    11564    3                 VARFLD# = MINIMUM(OBJ_WORD.ST$ -> ST.DNT$ -> DNT.TEXT.LENGTH,
     1841    11565    3                                      30);
     1842    11566    3                 VARFLDTX = OBJ_WORD.ST$ -> ST.DNT$ -> DNT.TEXT.NAME;
     1843    11567    3                 VARFLD$ = PINCRC(VARFLD$, VARFLD#);
     1844    11568    3                 IF OBJ_WORD.ST$ -> ST.DNT$ -> DNT.TEXT.LENGTH > VARFLD# THEN
     1845    11569    4                   DO;
     1846    11570    4                     RESID_LEN = OBJ_WORD.ST$ -> ST.DNT$ -> DNT.TEXT.LENGTH - VARFLD#;
     1847    11571    4                     RESID_ST$ = OBJ_WORD.ST$;
     1848    11572    4                     RESID_N$ = PINCRC(ADDR(OBJ_WORD.ST$ -> ST.DNT$ -> DNT.TEXT.NAME),
             11572                              VARFLD#);
     1849    11573    4                   END;
     1850    11574    3               END;
     1851    11575    2             ELSE
     1852    11576    3               DO;
     1853    11577    3                 LISTLINE.INST1.CF = 'ETC';
     1854    11578    3                 IF RESID_LEN > 0 THEN
PL6.E3A0      #006=Z9IL$PRINT_LO File=Z9IL.:Z8A6TSI                              SAT 08/09/97 14:04 Page:131
     1855    11579    3                   IF OBJ_WORD.ST$ ~= RESID_ST$ THEN
     1856    11580    3                     RESID_LEN = 0;
     1857    11581    3                   ELSE
     1858    11582    4                     DO;
     1859    11583    4                       VARFLD# = MINIMUM(RESID_LEN, 50);
     1860    11584    4                       RESID_LEN = RESID_LEN - VARFLD#;
     1861    11585    4                       VARFLDTX = RESID;
     1862    11586    4                       RESID_N$ = PINCRC(RESID_N$, VARFLD#);
     1863    11587    4                     END;
     1864    11588    3               END;
     1865    11589    2         ELSE
     1866    11590    2           CALL TRN_HALFW;
     1867    11591    2       ELSE
     1868    11592    2         CALL TRN_HALFW;
     1869    11593
     1870    11594    2   END TRN_DATA;
     1871    11595        %EJECT;
PL6.E3A0      #006=Z9IL$PRINT_LO File=Z9IL.:Z8A6TSI                              SAT 08/09/97 14:04 Page:132
     1872    11596    1   LIST_WORD : PROC;
     1873    11597
     1874    11598          %IF_THIS_CODE_SHOULD_BE_LISTED;
     1875    11603    3       DO;
     1876    11604    3          IF (LAST_SECT_NUM ~= OBJ_SECT_NUM)  OR (LAST_SECT_OFFSET + 1 ~= OBJ_WORD.
             11604                   OFFSET) THEN
     1877    11605    3            CALL GEN_ORG(OBJ_SECT_PTR, BINBIT(OBJ_WORD.OFFSET, 36));
     1878    11606    3          ELSE
     1879    11607    3            LAST_SECT_OFFSET = OBJ_WORD.OFFSET;
     1880    11608
     1881    11609    3          LOCX = BITBIN(LOCAL_OBJ_WORD);
     1882    11610    3          CALL BINCHAR(TEMPC, LAST_LINE_#);
     1883    11611    3          CALL EDITCHAR(LISTLINE.LINENO, 0, 6, MOP6, TEMPC);
     1884    11612    3          CALL Z8IU$CONVERT_OCTAL(LISTLINE.LOC, BINBIT(OBJ_WORD.OFFSET,36));
     1885    11613    3          CALL Z8IU$CONVERT_OCTAL(LISTLINE.WD.LH, BINBIT(LOC.LHU,36));
     1886    11614    3          CALL Z8IU$CONVERT_OCTAL(LISTLINE.WD.RH, BINBIT(LOC.RHU,36));
     1887    11615    3          VARFLD$ = ADDR(LISTLINE.INST1.VF);
     1888    11616    3          CALL TRN_RELOC;
     1889    11617
     1890    11618    3          IF ((OBJ_SECT_NUM = %PROC_SECT) AND (OBJ_WORD.OFFSET <= COMCOM.PROC_END))
     1891    11619    3                                       OR
     1892    11620    3             ((OBJ_SECT_NUM > %PROC_SECT) AND (OBJ_SECT_NUM < COMCOM.SEGMENTC)) THEN
     1893    11621    4           DO;
     1894    11622    4            IF FOLLOW# = 0 THEN
     1895    11623    4              CALL TRN_INST;
     1896    11624    4            ELSE
     1897    11625    4              CALL TRN_DESC;
     1898    11626                 /* Check for end of program & separate data by two blank lines */
     1899    11627    4            IF OBJ_WORD.OFFSET = COMCOM.PROC_END THEN
     1900    11628    5              DO;
     1901    11629    5                CALL Z9IL$OUTPUT_TO_LO (ADDR(BLANK), LENGTHC(BLANK));
     1902    11630    5                CALL Z9IL$OUTPUT_TO_LO(ADDR(BLANK), LENGTHC(BLANK));
     1903    11631    5              END;
     1904    11632    4           END;
     1905    11633    3          ELSE
     1906    11634    3            CALL TRN_DATA;
     1907    11635
PL6.E3A0      #006=Z9IL$PRINT_LO File=Z9IL.:Z8A6TSI                              SAT 08/09/97 14:04 Page:133
     1908    11636               %PRINT_LO_BUFFER(LLTYP=%LLTOBJ);
     1909    11645
     1910    11646    3       END;
     1911    11647
     1912    11648    2   END LIST_WORD;
     1913    11649        %EJECT;
PL6.E3A0      #006=Z9IL$PRINT_LO File=Z9IL.:Z8A6TSI                              SAT 08/09/97 14:04 Page:134
     1914    11650    1   CLEAR_EIS_BUFFER : PROC;
     1915    11651
     1916    11652    2     DCL SV_EIS_BUFFER_LEN SBIN;
     1917    11653    2     DCL SV_OBJ$ PTR;
     1918    11654
     1919    11655    2     SV_EIS_BUFFER_LEN = EIS_BUFFER_LEN - 1;
     1920    11656    2     SV_OBJ$ = OBJ$;
     1921    11657
     1922    11658    3     DO EIS_BUFFER_LEN = 0 TO SV_EIS_BUFFER_LEN;
     1923    11659
     1924    11660    3       OBJ$ = ADDR(EIS_BUFFER.QUEUE(EIS_BUFFER_LEN));
     1925    11661    3       LOCAL_OBJ_WORD = BINBIT(EIS_BUFFER.QUEUE.INST(EIS_BUFFER_LEN), 36);
     1926    11662
     1927    11663    3       CALL LIST_WORD;
     1928    11664
     1929    11665    3     END;
     1930    11666
     1931    11667    2     OBJ$ = SV_OBJ$;
     1932    11668    2     EIS_BUFFER_LEN = 0;
     1933    11669
     1934    11670    2   END CLEAR_EIS_BUFFER;
     1935    11671        %EJECT;
PL6.E3A0      #006=Z9IL$PRINT_LO File=Z9IL.:Z8A6TSI                              SAT 08/09/97 14:04 Page:135
     1936    11672             /* Main body of Z9IL$PRINT_LO */
     1937    11673
     1938    11674    1   ERR$ = ERR_HEAD;
     1939    11675
     1940    11676    1   CALL Z9IL$UNGMAP$SI$READ$PREP
     1941    11677    1        WHENALTRETURN
     1942    11678    2          DO;
     1943    11679                 /* Nothing */
     1944    11680    2          END;
     1945    11681
     1946    11682    1   FOLLOW#            = 0;
     1947    11683    1   LAST_LINE_TYPE     = %LLTSRC;
     1948    11684    1   TEXTBUF            = ' ';
     1949    11685    1   OBJ_SECT_NUM       = %PROC_SECT;
     1950    11686    1   OBJ_SECT_PTR       = COMCOM.SEGMENT$(%PROC_SECT);
     1951    11687    1   LAST_SECT_NUM      = OBJ_SECT_NUM;
     1952    11688    1   LAST_SECT_OFFSET   = -1;
     1953    11689    1   LAST_LINE_#        = 0;
     1954    11690    1   EIS_BUFFER_LEN     = 0;
     1955    11691    1   RESID_LEN          = 0;
     1956    11692
     1957    11693
     1958    11694    1   IF COMCOM.OB.LISTOUT.CODE OR COMCOM.OB.LISTOUT.DATA THEN
     1959    11695    2     DO;
     1960    11696    2       CALL LIST_CONTROL_SECTIONS;
     1961    11697    2       CALL LIST_ENTRY_DEFS;
     1962    11698    2       CALL LIST_ENTRY_REFS;
     1963    11699    2     END;
     1964    11700
     1965    11701        %SETUP_SUB_HEADING(L0=LO_TITLE, L1=BLANK);
     1966    11711        %NEW_PAGE;
     1967    11715
     1968    11716
     1969    11717
     1970    11718        %TOP_OBJ;
     1971    11734
     1972    11735    2   DO WHILE OBJ$ ~= ADDR(NIL);
PL6.E3A0      #006=Z9IL$PRINT_LO File=Z9IL.:Z8A6TSI                              SAT 08/09/97 14:04 Page:136
     1973    11736
     1974    11737    3     DO CASE (OBJ.ID);
     1975    11738
     1976    11739    3       CASE (%WORD);
     1977    11740
     1978    11741              %APPLY_RESOLVE_ADDRESS;
     1979    11777
     1980    11778              %APPLY_IC;
     1981    11817
     1982    11818    3         IF OBJ_WORD.B.BUFFER THEN
     1983    11819    4           DO;
     1984    11820    4             EIS_BUFFER.QUEUE(EIS_BUFFER_LEN) = OBJ_WORD;
     1985    11821    4             EIS_BUFFER.QUEUE.INST(EIS_BUFFER_LEN) = BITBIN(LOCAL_OBJ_WORD);
     1986    11822    4             EIS_BUFFER_LEN = EIS_BUFFER_LEN + 1;
     1987    11823    4           END;
     1988    11824    3         ELSE
     1989    11825    3           IF EIS_BUFFER_LEN ~= 0 THEN
     1990    11826    4             DO;
     1991    11827    4               EIS_BUFFER.QUEUE(EIS_BUFFER_LEN) = OBJ_WORD;
     1992    11828    4               EIS_BUFFER.QUEUE.INST(EIS_BUFFER_LEN) = BITBIN(LOCAL_OBJ_WORD);
     1993    11829    4               EIS_BUFFER_LEN = EIS_BUFFER_LEN + 1;
     1994    11830    4               CALL CLEAR_EIS_BUFFER;
     1995    11831    4             END;
     1996    11832    3           ELSE
     1997    11833    3             CALL LIST_WORD;
     1998    11834
     1999    11835
     2000    11836    3       CASE (%LINE);
     2001    11837
     2002    11838
     2003    11839    3          CALL MERGE_SOURCE(BINBIT(OBJ_LINE.NUMBER,36));
     2004    11840    3          LAST_LINE_# = OBJ_LINE.NUMBER;
     2005    11841
     2006    11842    3       CASE (%LAB);
     2007    11843
     2008    11844
     2009    11845              %IF_THIS_CODE_SHOULD_BE_LISTED;
PL6.E3A0      #006=Z9IL$PRINT_LO File=Z9IL.:Z8A6TSI                              SAT 08/09/97 14:04 Page:137
     2010    11850    4           DO;
     2011    11851    4              IF (LAST_SECT_NUM ~= OBJ_SECT_NUM)
     2012    11852    4                     OR (LAST_SECT_OFFSET+1 ~= OBJ_LAB.ST$ -> LABEL.DESC.SA) THEN
     2013    11853    5                DO;
     2014    11854    5                  CALL GEN_ORG(OBJ_SECT_PTR, BINBIT(OBJ_LAB.ST$ -> LABEL.DESC.SA, 36));
     2015    11855    5                  LAST_SECT_OFFSET = OBJ_LAB.ST$ -> LABEL.DESC.SA -1;
     2016    11856    5                END;
     2017    11857    4              CALL BINCHAR(TEMPC, LAST_LINE_#);
     2018    11858    4              CALL EDITCHAR(LISTLINE.LINENO, 0, 6, MOP6, TEMPC);
     2019    11859    4              CALL Z8IU$CONVERT_OCTAL(LISTLINE.LOC, BINBIT(OBJ_LAB.ST$ -> LABEL.DESC.SA
             11859                       , 36));
     2020    11860    4              LISTLINE.INST1.LF = OBJ_LAB.ST$ -> LABEL.DNT$ -> DNT.TEXT.NAME;
     2021    11861    4              LISTLINE.INST1.CF = 'NULL';
     2022    11862                   %PRINT_LO_BUFFER(LLTYP=%LLTOBJ);
     2023    11871    4           END;
     2024    11872
     2025    11873    3       CASE (%ORG);
     2026    11874
     2027    11875
     2028    11876    3          OBJ_SECT_NUM = OBJ_ORG.ST$ -> ST.OU_INDEX;
     2029    11877    3          OBJ_SECT_PTR = OBJ_ORG.ST$;
     2030    11878
     2031    11879    3     END;  /* CASE */
     2032    11880
     2033    11881          %STEP_OBJ;
     2034    11905
     2035    11906    2   END;  /* DO WHILE */
     2036    11907
     2037    11908             /* Clear out any leftover source */
     2038    11909
     2039    11910    1   CALL MERGE_SOURCE(999999);
     2040    11911
     2041    11912    1   IF COMCOM.OB.DM OR COMCOM.OB.MDM THEN
     2042    11913    1     CALL LIST_DATA_MAP;
     2043    11914
     2044    11915    1   END Z9IL$PRINT_LO;
     2045    11916        %EOD;
PL6.E3A0      #006=Z9IL$PRINT_LO File=Z9IL.:Z8A6TSI                              SAT 08/09/97 14:04 Page:138

PL6.E3A0      #006=Z9IL$PRINT_LO File=Z9IL.:Z8A6TSI                              SAT 08/09/97 14:04 Page:139
--  Include file information  --

   Z8A_QLT.:Z8A6TOU  cannot be made into a system file and is referenced.
   Z8A_ERR.:Z8A6TOU  cannot be made into a system file and is referenced.
   Z8A_DNT.:Z8A6TOU  cannot be made into a system file and is referenced.
   Z8A_LTS.:Z8A6TOU  cannot be made into a system file and is referenced.
   Z8A_ST.:Z8A6TOU  cannot be made into a system file and is referenced.
   Z8A_OBJ.:Z8A6TOU  cannot be made into a system file and is referenced.
   Z8I_LISTING.:Z8A6TOU  cannot be made into a system file and is referenced.
   Z9I_PREPROC.:Z8A6TOU  is referenced.
   Z8A_COMCOM.:Z8A6TOU  cannot be made into a system file and is referenced.
   X8A_COM_MACS.:X8A6TOU  is referenced.
   Z8A_NAMES.:Z8A6TOU  is referenced.
   Z8A_SUPP_MAC.:Z8A6TOU  is referenced.
   Z8A_DEFC.:Z8A6TOU  cannot be made into a system file and is referenced.
      No diagnostics issued in procedure Z9IL$PRINT_LO.

   Procedure Z9IL$PRINT_LO requires 2932 words for executable code.
   Procedure Z9IL$PRINT_LO requires 116 words of local(AUTO) storage.

PL6.E3A0      #006=Z9IL$PRINT_LO File=Z9IL.:Z8A6TSI                              SAT 08/09/97 14:04 Page:140

 Object Unit name= Z9IL$PRINT_LO                              File name= Z9IL.:Z8A6TOU
 UTS= AUG 09 '97 14:04:38.04 SAT                              Compiler= PL-6/E31         Sev=      00
 SharedLib= :SHARED_SYSTEM                                    Alt SharedLib=


    ****  Control sections  ****

 Sect   Type Bound  Init  Size OctSiz  Section name(segment info)
    0  LblCom even  none     1      1  ITERATION
    1  LblCom even  none     1      1  SUB_HEADING_ADDR
    2  LblCom even  none     1      1  SUB_HEADING_LEN
    3  LblCom even  none     1      1  SUB_HEADING_ADDR1
    4  LblCom even  none     1      1  SUB_HEADING_LEN1
    5  LblCom even  none     1      1  SUB_HEADING_ADDR2
    6  LblCom even  none     1      1  SUB_HEADING_LEN2
    7  LblCom even  none     1      1  MAX_LINES_PER_PAGE
    8  LblCom even  none     1      1  LISTING_LINES_ON_PAGE
    9  LblCom even  none     1      1  LISTING_PAGE_NUMBER
   10  LblCom even  none    28     34  PLINE
   11  LblCom even  none     1      1  PLINE_LEN
   12  LblCom even  none     1      1  OBJ$
   13  LblCom even  none     1      1  PAGING_OBJ
   14  LblCom even  none     1      1  OBJ_PAGE_COUNT
   15  LblCom even  none     1      1  OBJ_FINISHED
   16  LblCom even  none     1      1  OBJ_SEG_SIZE
   17  LblCom even  none     1      1  OBJ_TOP_NEW_SEG
   18  LblCom even  none     1      1  OBJ_LAST_REGULAR_PAGE
   19  LblCom even  none     5      5  OBJ_
   20  LblCom even  none     1      1  ST$
   21  LblCom even  none     5      5  ST_
   22  LblCom even  none     1      1  LTS$
   23  LblCom even  none     5      5  LTS_
   24  LblCom even  none     1      1  DNT$
   25  LblCom even  none     5      5  DNT_
   26  LblCom even  none     1      1  DNT_BUCKET_NUMBER
   27  LblCom even  none     1      1  DNT_OF_1$
   28  LblCom even  none     1      1  ERR$
PL6.E3A0      #006=Z9IL$PRINT_LO File=Z9IL.:Z8A6TSI                              SAT 08/09/97 14:04 Page:141
   29  LblCom even  none     1      1  ERR_HEAD
   30  LblCom even  none     1      1  ERR_TAIL
   31  LblCom even  none     1      1  MAX_ERROR_GENERATED
   32  LblCom even  none     5      5  ERR_
   33  RoData even  UTS   1597   3075  Z9IL$PRINT_LO
   34  LblCom even  none     1      1  QLT$
   35  LblCom even  none     1      1  PREV_01_QLT$
   36  LblCom even  none     5      5  QLT_
   37   Data  even  none    36     44  Z9IL$PRINT_LO
   38   Proc  even  none  2932   5564  Z9IL$PRINT_LO
   39  RoData even  none    62     76  Z9IL$PRINT_LO

    ****  Entry defs  ****

                              Check   Calling
                             calling  sequence
  Sect OctLoc Primary Altret sequence   type   Parms  Name
    38      0   yes            yes      Std        0  Z9IL$PRINT_LO

  ****  Data defs  ****

 Sect OctLoc  Name                           Sect OctLoc  Name
   33     13  OPCODES
PL6.E3A0      #006=Z9IL$PRINT_LO File=Z9IL.:Z8A6TSI                              SAT 08/09/97 14:04 Page:142

  ****  Entry refs  ****

         Check        Calling
        calling       sequence
Altret sequence SRef   type   Args  Name
 yes     yes           Std       0 Z9IL$UNGMAP$SI$READ$PREP
         yes           Std       2 Z9IL$OUTPUT_TO_LO_PAGE
 yes     yes           Std       0 Z9HF$READ_OBJ_PAGE
         yes           Std       1 Z9HF$WRITE_OBJ_PAGE
         yes           Std       0 Z9HF$CLOSE_OBJ
         yes           Std       0 Z9HF$OPEN_OBJ_INPUT
         yes           Std       2 Z8IU$CONVERT_OCTAL
         yes           Std       2 Z9IL$OUTPUT_TO_LO
         yes           Std       2 Z8IU$CONVERT_OCTAL_SUP
         yes           Std       3 Z9IO$SEARCH_ST_STRUCT
         yes           Std       2 Z9IL$DM_ENTRY
 yes     yes           Std       2 Z9IL$UNGMAP$SI$READ
         yes           Std       4 Z8IU$CONVERT_DEC_LEFT
                       nStd      0 X66_AUTO_0
                       nStd      0 X66_ARET

  ****  Data refs  ****

  Flags:  r = read only, s = secondary
Flgs Name                             Flgs Name                             Flgs Name
     COMCOM                           r    DEF_LISTING_SUB_HEADING          r    BLANK
r    PLINE_PTR$                       r    OBJ_STEP                         r    LTS_STEP

  ****  Segment refs  ****

  Flags:  r = read only, s = secondary
Flgs Name                             Flgs Name                             Flgs Name
     NULLSID                               ISSID
PL6.E3A0      #006=Z9IL$PRINT_LO File=Z9IL.:Z8A6TSI                              SAT 08/09/97 14:04 Page:143


      382        1        /*T***********************************************************/
      383        2        /*T*                                                         */
      384        3        /*T* Copyright (c) Bull HN Information Systems Inc., 1997    */
      385        4        /*T*                                                         */
      386        5        /*T***********************************************************/
      387        6        Z9IL$PRINT_LO : PROC;

      6 38 000000   000000 700200 xent  Z9IL$PRINT_* TSX0  ! X66_AUTO_0
        38 000001   000164 000000                    ZERO    116,0
        38 000002   004605 710000 38                 TRA     s:11674

      388        7
      389        8        /*D*
      390        9               NAME: Z9IL$PRINT_LO
      391       10        DESCRIPTION: Print the assembly language listing of the generated
      392       11                       object code.  This version uses the internal tables
      393       12                       of the compiler and does a much better job of symbolic
      394       13                       information than UNGMAP.  It may be invoked with the
      395       14                       option, "LSTOU".
      396       15        */
      397       16
      398       17        %EQU PHASE = 5;
      399       18
      400       19        %INCLUDE Z8A_DEFC;
      401       87        %INCLUDE Z8A_SUPP_MAC;
      402     2487        %INCLUDE Z8A_COMCOM;
      403     3137        %INCLUDE Z9I_PREPROC;
      404     3157        %INCLUDE Z8I_LISTING;
      405     3245        %INCLUDE Z8A_OBJ;
      406     3742        %INCLUDE Z8A_ST;
      407     7401        %INCLUDE Z8A_LTS;
      408     9478        %INCLUDE Z8A_DNT;
      409     9699        %INCLUDE Z8A_ERR;
      410     9768
      411     9769    1   DCL Z9IL$OUTPUT_TO_LO         ENTRY(2);
      412     9770    1   DCL Z9IL$OUTPUT_TO_LO_PAGE    ENTRY(2);      /*#35040*/
PL6.E3A0      #006=Z9IL$PRINT_LO File=Z9IL.:Z8A6TSI                              SAT 08/09/97 14:04 Page:144
      413     9771    1   DCL Z9IL$UNGMAP$SI$READ       ENTRY(2) ALTRET;
      414     9772    1   DCL Z9IL$UNGMAP$SI$READ$PREP  ENTRY ALTRET;
      415     9773    1   DCL Z8IU$CONVERT_DEC_LEFT     ENTRY(4);
      416     9774    1   DCL Z8IU$CONVERT_OCTAL        ENTRY(2);
      417     9775    1   DCL Z8IU$CONVERT_OCTAL_SUP    ENTRY(2);
      418     9776
      419     9777
      420     9778    1   DCL LO_TITLE CHAR(0) CONSTANT INIT('Symbolic Listing of Generated Object Code:');
      421     9779
      422     9780    1   DCL LAST_LINE_TYPE SBIN;
      423     9781        %EQU LLTSRC = 1;  /* SOURCE */
      424     9782        %EQU LLTOBJ = 2;  /* OBJECT */
      425     9783
      426     9784
      427     9785        /*     INITIALIZED DATA REQUIRED FOR L66 INSTRUCTION BREAK-OUT
      428     9786                    Misc has action codes indicated by %subs
      429     9787                      or fifth char of mne.
      430     9788                    Mne has first four chars of op mnemonic or blank.
      431     9789        */
      432     9790        %SUB Z=0;
      433     9791        %SUB E8=1 /*E8*/;
      434     9792        %SUB TRNSFR=2 /*Trnsfr*/;
      435     9793        %SUB MVE=3 /*Mve*/;                     /*Ch,ch,ch*/
      436     9794        %SUB MVNE=4 /*Mvne*/;                   /*Dc,dc,ch*/
      437     9795        %SUB BT=5 /*Bt*/;                       /*Bit,bit*/
      438     9796        %SUB CH=6 /*Ch*/;                       /*Ch,ch*/
      439     9797        %SUB DEC_3=7 /*DEC_3*/;                 /*Dc,dc,dc*/
      440     9798        %SUB DEC_2=8 /*DEC_2*/;                 /*Dc,dc*/
      441     9799        %SUB SC=9 /*Sc*/;                       /*Scan type ch,ch,arg*/
      442     9800        %SUB TC=10 /*Tc*/;                      /*Trans type ch,arg,arg*/
      443     9801        %SUB CL=11 /*Cl*/;                      /*Climb*/
      444     9802        %SUB NOP=12 /*Nop*/;                    /*Nop*/
      445     9803        %SUB STCASTCQ=13 /*Stc*/;               /*Stca/stcq*/
      446     9804        %SUB STBASTBQ=14 /*Stba/stbq*/;         /*Stba or stbc inst*/
      447     9805        %SUB SCM=15 /*Scm*/;                    /*Scan type ch,ch,arg*/
      448     9806        %SUB SCD=16 /* Scd*/;                   /*Scan type ch,ch,arg*/
      449     9807        %SUB MVNEX=17;
PL6.E3A0      #006=Z9IL$PRINT_LO File=Z9IL.:Z8A6TSI                              SAT 08/09/97 14:04 Page:145
      450     9808        %SUB MVNX =18;
      451     9809        %SUB CMPNX=19;
      452     9810        %SUB AD2DX=20;
      453     9811        %SUB SB2DX=21;
      454     9812        %SUB MP2DX=22;
      455     9813        %SUB DV2DX=23;
      456     9814        %SUB AD3DX=24;
      457     9815        %SUB SB3DX=25;
      458     9816        %SUB MP3DX=26;
      459     9817        %SUB DV3DX=27;
      460     9818        %SUB MRF=28;
      461     9819        %SUB MMF=29;
      462     9820        %SUB MTR=30;
      463     9821        %SUB MTM=31;
      464     9822        %SUB AWDXP = 33;
      465     9823        %SUB BL=' ';
      466     9824
      467     9825        %SUB FOLLOW_ND = 1;
      468     9826        %SUB FOLLOW_WD = 2;
      469     9827        %SUB FOLLOW_CD = 3;
      470     9828        %SUB FOLLOW_BD = 4;
      471     9829        %SUB FOLLOW_SI = 5;
      472     9830        %SUB FOLLOW_NDO = 6;
      473     9831        %SUB FOLLOW_NDS = 7;
      474     9832
      475     9833    1   DCL 1 OPCODES CONSTANT SYMDEF ALIGNED,
      476     9834    1         2 MISC(0:1023) UBIN(9) UNAL INIT
      477     9835    1           /*0-17*/(Z*9,NOP,ASCBIN('1'),ASCBIN('2'),Z*4,
      478     9836    1           /*20-37*/E8*8,Z*7,ASCBIN('Q'),
      479     9837    1           /*40-57*/Z*16,
      480     9838    1           /*60-77*/Z*16,
      481     9839    1           /*100-117*/E8*8,Z*7,ASCBIN('Q'),
      482     9840    1           /*120-137*/E8*8,Z*7,ASCBIN('Q'),
      483     9841    1           /*140-157*/Z*16,
      484     9842    1           /*160-177*/Z*16,
      485     9843    1           /*200-217*/E8*8,Z*7,ASCBIN('Q'),
      486     9844    1           /*220-237*/Z*16,
PL6.E3A0      #006=Z9IL$PRINT_LO File=Z9IL.:Z8A6TSI                              SAT 08/09/97 14:04 Page:146
      487     9845    1           /*240-257*/E8*8,Z*8,
      488     9846    1           /*260-277*/Z*16,
      489     9847    1           /*300-317*/E8*8,Z*7,ASCBIN('Q'),
      490     9848    1           /*320-337*/Z*16,
      491     9849    1           /*340-357*/E8*8,Z*8,
      492     9850    1           /*360-377*/Z*16,
      493     9851    1           /*400-417*/Z*16,
      494     9852    1           /*420-437*/Z*7,ASCBIN('G'),Z*8,
      495     9853    1           /*440-457*/Z*16,
      496     9854    1           /*460-477*/Z*10,ASCBIN('R'),Z*5,
      497     9855    1           /*500-517*/Z*15,ASCBIN('P'),
      498     9856    1           /*520-537*/Z*16,
      499     9857    1           /*540-557*/Z*9,STBASTBQ*2,Z*5,
      500     9858    1           /*560-577*/Z*16,
      501     9859    1           /*600-617*/TRNSFR*6,Z,TRNSFR,Z*4,TRNSFR*2,Z,TRNSFR,
      502     9860    1           /*620-637*/Z*16,
      503     9861    1           /*640-657*/E8*8,Z*8,
      504     9862    1           /*660-677*/Z*16,
      505     9863    1           /*700-717*/TRNSFR*9,Z*4,TRNSFR,Z*2,
      506     9864    1           /*720-737*/Z*16,
      507     9865    1           /*740-757*/Z*9,STCASTCQ*2,Z*5,
      508     9866    1           /*760-777*/Z*16,
      509     9867                                                /*Eis codes follow*/
      510     9868    1           /*0-17*/Z*4,MVNEX,Z*11,
      511     9869    1           /*20-37*/MVE,Z*3,MVNE,Z*11,
      512     9870    1           /*40-57*/Z*16,
      513     9871    1           /*60-77*/BT*2,Z*2,BT*3,Z*9,
      514     9872    1           /*100-117*/CH*2,Z*4,CH,Z*9,
      515     9873    1           /*120-137*/SCD*2,Z*2,SCM*2,Z*10,
      516     9874    1           /*140-157*/Z*8,ASCBIN('A'),ASCBIN('R'),Z,Z,Z,ASCBIN('W'),Z,ASCBIN('W'),
      517     9875    1           /*160-177*/SC,Z*3,TC*2,Z*2,ASCBIN('A'),ASCBIN('R'),Z*6,
      518     9876    1           /*200-217*/Z*2,DEC_2*2,Z*2,DEC_2*2,Z*8,
      519     9877    1           /*220-237*/Z*2,DEC_3*2,Z*2,DEC_3*2,Z*7,ASCBIN('Q'),
      520     9878    1           /*240-257*/Z*2,AD2DX,SB2DX,Z*2,MP2DX,DV2DX,Z*8,
      521     9879    1           /*260-277*/Z*2,AD3DX,SB3DX,Z*2,MP3DX,DV3DX,Z*8,
      522     9880    1           /*300-317*/DEC_2*2,Z,DEC_2,Z,DEC_2,Z*10,
      523     9881    1           /*320-377*/Z*16,MVNX,Z*2,CMPNX,Z*12,MRF,MTR,Z*2,MMF,MTM,Z*10,
PL6.E3A0      #006=Z9IL$PRINT_LO File=Z9IL.:Z8A6TSI                              SAT 08/09/97 14:04 Page:147
      524     9882    1           /*400-437*/Z*32,
      525     9883    1           /*440-477*/Z*3,ASCBIN('G'),Z*15,ASCBIN('G'),Z*12,
      526     9884    1           /*500-577*/Z*7,AWDXP,Z*33,ASCBIN('D'),Z*15,ASCBIN('D'),Z*6,
      527     9885    1           /*600-617*/TRNSFR*2,Z*2,TRNSFR*3,Z,E8*8,
      528     9886    1           /*620-637*/Z*8,E8*8,
      529     9887    1           /*640-677*/Z*32,
      530     9888    1           /*700-777*/Z*11,CL,Z*35,ASCBIN('Q'),Z*16),
      531     9889                                                /*
      532     9890                                                */
      533     9891    1         2 MNE(0:1023) CHAR(4) INIT
      534     9892                                                /*0-77*/
      535     9893    1           ('ARG','MME','DRL',BL*6,'NOP','PULS'*2,BL,'CIOC',BL*2,
      536     9894    1           'ADLX'*8,BL*2,'LDQC','ADL','LDAC','ADLA','ADLQ','ADLA',
      537     9895    1           'ASX0','ASX1','ASX2','ASX3','ASX4','ASX5','ASX6','ASX7',
      538     9896    1           BL*4,'AOS','ASA','ASQ','SSCR',
      539     9897    1           'ADX0','ADX1','ADX2','ADX3','ADX4','ADX5','ADX6','ADX7',
      540     9898    1           BL,'AWCA','AWCQ','LREG',BL,'ADA','ADQ','ADAQ',
      541     9899                                                /*100-177*/
      542     9900    1           'CMPX'*8,BL,'CWL',BL*3,'CMPA','CMPQ','CMPA',
      543     9901    1           'SBLX'*8,BL*5,'SBLA','SBLQ','SBLA',
      544     9902    1           'SSX0','SSX1','SSX2','SSX3','SSX4','SSX5','SSX6','SSX7',
      545     9903    1           BL*5,'SSA','SSQ','SBER',
      546     9904    1           'SBX0','SBX1','SBX2','SBX3','SBX4','SBX5','SBX6','SBX7',
      547     9905    1           BL,'SWCA','SWCQ',BL*2,'SBA','SBQ','SBAQ',
      548     9906                                                /*200-277*/
      549     9907    1           'CNAX'*8,BL,'CMK',BL*2,'SZNC','CNAA','CNAQ','CNAA',
      550     9908    1           'LDX0','LDX1','LDX2','LDX3','LDX4','LDX5','LDX6','LDX7',
      551     9909    1           'LBAR','RSW',BL,'RMCM','SZN','LDA','LDQ','LDAQ',
      552     9910    1           'ORSX'*8,BL*5,'ORSA','ORSQ',BL,
      553     9911    1           'ORX0','ORX1','ORX2','ORX3','ORX4','ORX5','ORX6','ORX7',
      554     9912    1           BL*5,'ORA','ORQ','ORAQ',
      555     9913                                                /*300-377*/
      556     9914    1           'CANX'*8,BL*5,'CANA','CANQ','CANA',
      557     9915    1           'LCX0','LCX1','LCX2','LCX3','LCX4','LCX5','LCX6','LCX7',
      558     9916    1           BL*5,'LCA','LCQ','LCAQ',
      559     9917    1           'ANSX'*8,BL*5,'ANSA','ANSQ',BL,
      560     9918    1           'ANX0','ANX1','ANX2','ANX3','ANX4','ANX5','ANX6','ANX7',
PL6.E3A0      #006=Z9IL$PRINT_LO File=Z9IL.:Z8A6TSI                              SAT 08/09/97 14:04 Page:148
      561     9919    1           BL*5,'ANA','ANQ','ANAQ',
      562     9920                                                /*400-477*/
      563     9921    1           BL,'MPF','MPY',BL*2,'CMG',BL*2,
      564     9922    1           BL,'LDE',BL,'RSCR',BL,'ADE',BL*2,
      565     9923    1           BL,'UFM',BL,'DUFM',BL,'FCMG',BL,'DFCM',
      566     9924    1           'FSZN','FLD',BL,'DFLD',BL,'UFA',BL,'DUFA',
      567     9925    1           'SXL0','SXL1','SXL2','SXL3','SXL4','SXL5','SXL6','SXL7',
      568     9926    1           'STZ','SMIC','SCPR',BL,'STT','FST','STE','DFST',
      569     9927    1           BL,'FMP',BL,'DFMP',BL*4,
      570     9928    1           'FSTR','FRD','DFST','DFRD',BL,'FAD',BL,'DFAD',
      571     9929                                                /*500-577*/
      572     9930    1           'RPL',BL*4,'BCD','DIV','DVF',BL*3,'FNEG','SMDR','FCMP',BL,'DFCM',
      573     9931    1           'RPT',BL*4,'FDI',BL,'DFDI',BL,'NEG',BL,'NEGL',BL,'UFS',BL,'DUFS',
      574     9932    1           BL*8,'SBAR','STBA','STBQ','SMCM','STC1','SMBA','SMBB',BL,
      575     9933    1          'RPD',BL*4,'FDV',BL,'DFDV','LMBA','LMBB','LBER','FNO','LMDR','FSB',BL,'DFSB'
              9933                    ,
      576     9934                                                /*600-677*/
      577     9935    1           'TZE','TNZ','TNC','TRC','TMI','TPL',BL,'TTF',
      578     9936    1           BL*4,'TEO','TEU','DIS','TOV',
      579     9937    1           'EAX0','EAX1','EAX2','EAX3','EAX4','EAX5','EAX6','EAX7',
      580     9938    1           'RET',BL*3,'LDI','EAA','EAQ','LDT',
      581     9939    1           'ERSX'*8,BL*5,'ERSA','ERSQ',BL,
      582     9940    1           'ERX0','ERX1','ERX2','ERX3','ERX4','ERX5','ERX6','ERX7',
      583     9941    1           BL*4,'LCPR','ERA','ERQ','ERAQ',
      584     9942                                                /*700-777*/
      585     9943    1           'TSX0','TSX1','TSX2','TSX3','TSX4','TSX5','TSX6','TSX7',
      586     9944    1           'TRA',BL*4,'TSS','XEC','XED',
      587     9945    1           'LXL0','LXL1','LXL2','LXL3','LXL4','LXL5','LXL6','LXL7',
      588     9946    1           BL,'ARS','QRS','LRS',BL,'ALS','QLS','LLS',
      589     9947    1           'STX0','STX1','STX2','STX3','STX4','STX5','STX6','STX7',
      590     9948    1           'STC2','STCA','STCQ','SREG','STI','STA','STQ','STAQ',
      591     9949    1           BL*8,BL,'ARL','QRL','LRL','GTB','ALR','QLR','LLR',
      592     9950                                                /*
      593     9951                                                */
      594     9952                                                /*     Eis mnemonics follow           */
      595     9953                                                /*0-77*/
      596     9954    1           BL*4,'MVNE',BL*4,'CCAC',BL*6,'MVE',BL*3,'MVNE',BL*11,
PL6.E3A0      #006=Z9IL$PRINT_LO File=Z9IL.:Z8A6TSI                              SAT 08/09/97 14:04 Page:149
      597     9955    1           BL*8,'STD0','STD1','STD2','STD3','STD4','STD5','STD6','STD7',
      598     9956    1           'CSL','CSR',BL*2,'SZTL','SZTR','CMPB',BL*9,
      599     9957                                                /*100-177*/
      600     9958    1           'MLR','MRL',BL*4,'CMPC',BL,
      601     9959    1           'SDR0','SDR1','SDR2','SDR3','SDR4','SDR5','SDR6','SDR7',
      602     9960    1           'SCD','SCDR',BL*2,'SCM','SCMR',BL*10,
      603     9961    1           BL*8,'STDS','SPDB','STO',BL*2,'STPD',BL,'STPT',
      604     9962    1           'MVT',BL*3,'TCT','TCTR',BL*2,'LDDS','LPDB','LDO',BL*3,'PAS',BL,
      605     9963                                                /*200-277*/
      606     9964    1           BL*2,'AD2D','SB2D',BL*2,'MP2D','DV2D',BL*10,'AD3D','SB3D',BL*2,
      607     9965    1           'MP3D','DV3D',BL*5,'MLDA','MLDQ','MLDA',BL*2,'AD2D','SB2D',BL*2,
      608     9966    1           'MP2D','DV2D',BL*10,'AD3D','SB3D',BL*2,'MP3D','DV3D',BL*8,
      609     9967                                                /*300-377*/
      610     9968    1           'MVN','BTD',BL,'CMPN',BL,'DTB',BL*26,'MVNX',BL*2,'CMPN',BL*12,
      611     9969    1           'MRF','MTR',BL*2,'MMF','MTM',BL*10,
      612     9970                                                /*400-477*/
      613     9971    1           BL*10,'EPAT',BL*24,'SARE',BL*3,'SPL',
      614     9972    1           'STP0','STP1','STP2','STP3','STP4','STP5','STP6','STP7',
      615     9973    1           BL*3,'LARE',BL*3,'LPL',
      616     9974    1           'LDP0','LDP1','LDP2','LDP3','LDP4','LDP5','LDP6','LDP7',
      617     9975                                                /*500-577*/
      618     9976    1           'A9BD','A6BD','A4BD','ABD',BL*3,'AWD',BL*8,
      619     9977    1           'S9BD','S6BD','S4BD','SBD',BL*3,'SWD',BL*2,'CAMP',BL*5,
      620     9978    1           'ARA0','ARA1','ARA2','ARA3','ARA4','ARA5','ARA6','ARA7',
      621     9979    1           'STTD','STDS',BL,'STTA',BL*4,
      622     9980    1           'AAR0','AAR1','AAR2','AAR3','AAR4','AAR5','AAR6','AAR7',
      623     9981    1           BL,'LDDS',BL*6,
      624     9982                                                /*600-677*/
      625     9983    1           'TRTN','TRTF',BL*2,'TMOZ','TPNZ','TTN',BL,'LDEA'*8,BL*8,'EPPR'*8,
      626     9984    1           'ARN0','ARN1','ARN2','ARN3','ARN4','ARN5','ARN6','ARN7',
      627     9985    1           BL*8,
      628     9986    1           'NAR0','NAR1','NAR2','NAR3','NAR4','NAR5','NAR6','NAR7',
      629     9987    1           'LDD0','LDD1','LDD2','LDD3','LDD4','LDD5','LDD6','LDD7',
      630     9988                                                /*700-777*/
      631     9989    1           BL*11,'CLIM',BL*20,
      632     9990    1           'SAR0','SAR1','SAR2','SAR3','SAR4','SAR5','SAR6','SAR7',
      633     9991    1           'STAS','STPS','STWS','STSS',BL,'MSTA','MSTQ','MSTA',
PL6.E3A0      #006=Z9IL$PRINT_LO File=Z9IL.:Z8A6TSI                              SAT 08/09/97 14:04 Page:150
      634     9992    1           'LAR0','LAR1','LAR2','LAR3','LAR4','LAR5','LAR6','LAR7',
      635     9993    1           'LDAS','LDPS','LDWS','LDSS',BL*4);
      636     9994
      637     9995    1   DCL 1 TEXTBUF CHAR(%MAX_LISTING_LINE_LENGTH);
      638     9996    1   DCL 1 LISTLINE REDEF TEXTBUF,
      639     9997    1         2 *            CHAR(1),
      640     9998    1         2 LINENO       CHAR(6),
      641     9999    1         2 *            CHAR(1),
      642    10000    1         2 LOC          CHAR(6),
      643    10001    1         2 *            CHAR(3),
      644    10002    1         2 WD1          CHAR(13),
      645    10003    1         2 WD REDEF WD1,
      646    10004    1           3 LH         CHAR(6),
      647    10005    1           3 *          CHAR(1),
      648    10006    1           3 RH         CHAR(6),
      649    10007    1         2 *            CHAR(1),
      650    10008    1         2 INST         CHAR(78),
      651    10009    1         2 INST1 REDEF INST,
      652    10010    1           3 RELOC      CHAR(4),
      653    10011    1           3 *          CHAR(2),
      654    10012    1           3 LF         CHAR(12),
      655    10013    1           3 *          CHAR(1),
      656    10014    1           3 CF         CHAR(8),
      657    10015    1           3 CF1 REDEF CF,
      658    10016    1             4 C1       CHAR(4),
      659    10017    1             4 C2       CHAR(2),
      660    10018    1             4 C3       CHAR(2),
      661    10019    1           3 VF         CHAR(24),
      662    10020    1           3 *          CHAR(1),
      663    10021    1           3 EISF       CHAR(25),
      664    10022    1           3 *          CHAR(%(MAX_LISTING_LINE_LENGTH-108));
      665    10023    1   DCL 1 SECTLINE REDEF TEXTBUF,
      666    10024    1         2 *            CHAR(1),
      667    10025    1         2 SECTNO       CHAR(4),
      668    10026    1         2 *            CHAR(2),
      669    10027    1         2 TYPE         CHAR(7),
      670    10028    1         2 BOUND        CHAR(4),
PL6.E3A0      #006=Z9IL$PRINT_LO File=Z9IL.:Z8A6TSI                              SAT 08/09/97 14:04 Page:151
      671    10029    1         2 *            CHAR(2),
      672    10030    1         2 INIT_TYPE    CHAR(4),
      673    10031    1         2 SIZE         CHAR(6),
      674    10032    1         2 *            CHAR(1),
      675    10033    1         2 X_SIZE       CHAR(6),
      676    10034    1         2 *            CHAR(2),
      677    10035    1         2 NAME         CHAR(30),
      678    10036    1         2 *            CHAR(%(MAX_LISTING_LINE_LENGTH-69));
      679    10037    1   DCL 1 EDEFLINE REDEF TEXTBUF,
      680    10038    1         2 *            CHAR(1),
      681    10039    1         2 SECTNO       CHAR(5),
      682    10040    1         2 *            CHAR(1),
      683    10041    1         2 LOC          CHAR(6),
      684    10042    1         2 *            CHAR(3),
      685    10043    1         2 P            CHAR(3),
      686    10044    1         2 *            CHAR(4),
      687    10045    1         2 A            CHAR(3),
      688    10046    1         2 *            CHAR(5),
      689    10047    1         2 C            CHAR(3),
      690    10048    1         2 *            CHAR(5),
      691    10049    1         2 CSTYP        CHAR(6),
      692    10050    1         2 *            CHAR(2),
      693    10051    1         2 NP           CHAR(5),
      694    10052    1         2 *            CHAR(2),
      695    10053    1         2 NAME         CHAR(30),
      696    10054    1         2 *            CHAR(%(MAX_LISTING_LINE_LENGTH-84));
      697    10055    1   DCL 1 EREFLINE REDEF TEXTBUF,
      698    10056    1         2 *            CHAR(1),
      699    10057    1         2 ALT          CHAR(3),
      700    10058    1         2 *            CHAR(5),
      701    10059    1         2 CHK          CHAR(3),
      702    10060    1         2 *            CHAR(4),
      703    10061    1         2 SREF         CHAR(3),
      704    10062    1         2 *            CHAR(3),
      705    10063    1         2 CST          CHAR(6),
      706    10064    1         2 *            CHAR(1),
      707    10065    1         2 NPARAM       CHAR(5),
PL6.E3A0      #006=Z9IL$PRINT_LO File=Z9IL.:Z8A6TSI                              SAT 08/09/97 14:04 Page:152
      708    10066    1         2 *            CHAR(2),
      709    10067    1         2 NAME         CHAR(%(MAX_LISTING_LINE_LENGTH-36));
      710    10068    1   DCL MOP3(0:2) BIT(9) CONSTANT INIT('303'O,'102'O,'327'O /*Ign3,mvzbn,mvc7*/);
      711    10069    1   DCL MOP4(0:2) BIT(9) CONSTANT INIT('302'O,'103'O,'327'O /*Ign2,mvzbn,mvc7*/);
      712    10070    1   DCL MOP6(0:1) BIT(9) CONSTANT INIT('105'O,'327'O /*Mvzbn,mvc7*/);
      713    10071                                                /**/
      714    10072    1   DCL P$             PTR;
      715    10073    1   DCL TEMP_SBIN      SBIN;
      716    10074    1   DCL TEMP_SBIN_2    SBIN;
      717    10075    1   DCL FOLLOW         SBIN;
      718    10076    1   DCL DESC_TYPE      SBIN;
      719    10077    1   DCL FOLLOW#        SBIN;
      720    10078    1   DCL LASTLOC        SBIN;
      721    10079    1   DCL VARFLD$        PTR;
      722    10080    1   DCL VARFLD#        SBIN;
      723    10081    1   DCL VARFLDTX       CHAR(VARFLD#) BASED(VARFLD$);
      724    10082    1   DCL VARFLDTXT      CHAR(5) BASED(VARFLD$);
      725    10083    1   DCL TEMP_UBIN      UBIN;
      726    10084    1   DCL ENT#           SBIN HALF;
      727    10085    1   DCL TEMPC          CHAR(6);
      728    10086    1   DCL OBJ_SECT_NUM   SBIN;
      729    10087    1   DCL OBJ_SECT_PTR   PTR;
      730    10088    1   DCL LAST_SECT_NUM  SBIN;
      731    10089    1   DCL LAST_SECT_OFFSET SBIN;
      732    10090        %EQU PROC_SECT = 0;
      733    10091    1   DCL TAG_FIELD      UBIN;
      734    10092    1   DCL LAST_LINE_#    SBIN;
      735    10093    1   DCL TEMP_PTR       PTR;
      736    10094    1   DCL VARFLD_PARAM_BIT_ALIGNED BIT(1) ALIGNED;
      737    10095    1   DCL RESID_LEN SBIN;
      738    10096    1   DCL RESID_ST$ PTR ;
      739    10097    1   DCL RESID_N$  PTR;
      740    10098    1   DCL RESID CHAR(VARFLD#) BASED(RESID_N$);
      741    10099    1   DCL BASED$EPTR EPTR BASED;
      742    10100                                                /*
      743    10101                                                */
      744    10102    1   DCL TAGS(0:63) CHAR(4) CONSTANT INIT
PL6.E3A0      #006=Z9IL$PRINT_LO File=Z9IL.:Z8A6TSI                              SAT 08/09/97 14:04 Page:153
      745    10103    1   (',',',AU',',QU',',DU',',IC',',AL',',QL',',DL'
      746    10104    1   ,',X0',',X1',',X2',',X3',',X4',',X5',',X6',',X7'
      747    10105    1   ,',*',',AU*',',QU*',',DU*',',IC*',',AL*',',QL*',',DL*'
      748    10106    1   ,',X0*',',X1*',',X2*',',X3*',',X4*',',X5*',',X6*',',X7*'
      749    10107    1   ,',F',',?'*3,',SD',',SCR',',?'*2,',CI',',I',',SC',',AD',',DI',',DIC',',ID',',IDC'
      750    10108    1   ,',*',',*AU',',*QU',',*DU',',*IC',',*AL',',*QL',',*DL'
      751    10109    1   ,',*X0',',*X1',',*X2',',*X3',',*X4',',*X5',',*X6',',*X7'
      752    10110    1   );
      753    10111    1   DCL TAGSZ(0:63) UBIN(3) UNAL CONSTANT INIT
      754    10112    1   (1,3,3,3,3,3,3,3,3,3,3,3,3,3,3,3
      755    10113    1   ,2,4*15
      756    10114    1   ,2*4,3,4,2*2,3,2,3*3,4,3,4
      757    10115    1   ,2,4*15
      758    10116    1   );
      759    10117                                                /**/
      760    10118    1   DCL BYTBIT(0:3) CONSTANT CHAR(9) INIT
      761    10119    1   ('by=0,bit=','by=1,bit=','by=2,bit=','by=3,bit=');
      762    10120                                                /**/
      763    10121    1   DCL PMMECODES(0:7) CONSTANT UBIN INIT
      764    10122    1   (16385,16384,12289,12290,1,2,20480,20481
      765    10123    1   );
      766    10124                                                /**/
      767    10125    1   DCL PMMENAMES(0:7) CONSTANT CHAR(8) INIT
      768    10126    1   ('write','read','gds','fds','exit','err','open','close'
      769    10127    1   );
      770    10128                                                /**/
      771    10129    1   DCL SIGNCODE(0:3) CONSTANT CHAR(5) INIT ('lsgnf','lsgns','tsgns','nosgn');
      772    10130    1   DCL SIGNCODEO(0:3) CONSTANT CHAR(5) INIT ('lsgno','lsgns','tsgns','tsgno');
      773    10131    1   DCL 1 LOC,
      774    10132    1         2 LHX             SBIN HALF UNAL,
      775    10133    1         2 LH REDEF LHX,
      776    10134    1           3 PR            UBIN(3) UNAL,
      777    10135    1           3 OFFSET        SBIN(15) UNAL,
      778    10136    1         2 LHU REDEF LHX   UBIN HALF UNAL,
      779    10137    1         2 LHR REDEF LHX,
      780    10138    1           3 ALT           BIT(1),
      781    10139    1           3 PMMECODE      UBIN(17) UNAL,
PL6.E3A0      #006=Z9IL$PRINT_LO File=Z9IL.:Z8A6TSI                              SAT 08/09/97 14:04 Page:154
      782    10140    1         2 RHX             SBIN HALF UNAL,
      783    10141    1         2 RH REDEF RHX,
      784    10142    1           3 OP            UBIN BYTE UNAL,
      785    10143    1           3 EIS           BIT(1),
      786    10144    1           3 INHIB         BIT(1),
      787    10145    1           3 PR            BIT(1),
      788    10146    1           3 MODTYP        UBIN(2) UNAL,
      789    10147    1           3 REG           UBIN(4) UNAL,
      790    10148    1         2 RHU REDEF RHX   UBIN HALF UNAL,
      791    10149    1         2 RH1 REDEF RHX,
      792    10150    1           3 *             UBIN(6) UNAL,
      793    10151    1           3 REG           UBIN(3) UNAL,
      794    10152    1           3 *             BIT(3),
      795    10153    1           3 TAG,
      796    10154    1             4 FIRST_FOUR  UBIN(4) UNAL,
      797    10155    1             4 *           BIT(2),
      798    10156    1           3 TAG_SIX REDEF TAG UBIN(6) UNAL;
      799    10157    1   DCL LOCX REDEF LOC      SBIN;
      800    10158    1   DCL 1 LOCEIS REDEF LOC,
      801    10159    1         2 *               BIT(1),
      802    10160    1         2 NS              BIT(1),
      803    10161    1         2 MF3             BIT(3),
      804    10162    1         2 TAG3            UBIN(4) UNAL,
      805    10163    1         2 *               BIT(2),
      806    10164    1         2 MF2             BIT(3),
      807    10165    1         2 TAG2            UBIN(4) UNAL,
      808    10166    1         2 *               BIT(11),
      809    10167    1         2 MF1             BIT(3),
      810    10168    1         2 TAG1            UBIN(4) UNAL;
      811    10169    1   DCL 1 LOCBDSC REDEF LOC,
      812    10170    1         2 *               BIT(18),
      813    10171    1         2 C               UBIN(2) UNAL,
      814    10172    1         2 B               UBIN(4) UNAL,
      815    10173    1         2 N               UBIN(12) UNAL;
      816    10174    1   DCL 1 LOCADSC REDEF LOC,
      817    10175    1         2 *               BIT(18),
      818    10176    1         2 CN              UBIN(3) UNAL,                /*9->cn/2,4->cn*/
PL6.E3A0      #006=Z9IL$PRINT_LO File=Z9IL.:Z8A6TSI                              SAT 08/09/97 14:04 Page:155
      819    10177    1         2 CN9 REDEF CN,
      820    10178    1           3 C             UBIN(2) UNAL,
      821    10179    1           3 *             BIT(1),
      822    10180    1         2 TA              UBIN(2) UNAL,                /*0->9,1->6,2->4*/
      823    10181    1         2 N               UBIN(13) UNAL;
      824    10182    1   DCL 1 LOCSDSC REDEF LOC,
      825    10183    1         2 *               BIT(18) UNAL,
      826    10184    1         2 CN              UBIN(3) UNAL,
      827    10185    1         2 E               BOOLEAN,
      828    10186    1         2 TS              BOOLEAN,
      829    10187    1         2 *               BIT(9) UNAL,
      830    10188    1         2 N               UBIN(4) UNAL;
      831    10189    1   DCL 1 LOCNDSC REDEF LOC,
      832    10190    1         2 *               BIT(18),
      833    10191    1         2 CN              UBIN(3) UNAL,
      834    10192    1         2 CN9 REDEF CN,
      835    10193    1           3 C             UBIN(2) UNAL,
      836    10194    1           3 *             BIT(1),
      837    10195    1         2 TN              BIT(1),                      /*0->9,1->4*/
      838    10196    1         2 S               UBIN(2) UNAL,     /*0->float,1->lead sgn,2->trail,3->none*/
      839    10197    1         2 SF              SBIN(6) UNAL,
      840    10198    1         2 N               UBIN(6) UNAL;
      841    10199    1   DCL 1 LOCEIS1 REDEF LOC,
      842    10200    1         2 FILL            UBIN(9) UNAL,
      843    10201    1         2 *               BIT(27);
      844    10202    1   DCL 1 LOCCLIMB REDEF LOC,
      845    10203    1         2 E               BIT(1),
      846    10204    1         2 P               UBIN(9) UNAL,
      847    10205    1         2 *               BIT(8),
      848    10206    1         2 X0              BIT(1),
      849    10207    1         2 NOSL            BIT(1),
      850    10208    1         2 *               BIT(2),
      851    10209    1         2 OP              UBIN(2) UNAL,
      852    10210    1         2 SID             UBIN(12) UNAL;
      853    10211    1   DCL EISTAGS(0:2)        UBIN(6);
      854    10212    1   DCL 1 EISMF(0:2) ALIGNED,
      855    10213    1         2 PR              BIT(1),
PL6.E3A0      #006=Z9IL$PRINT_LO File=Z9IL.:Z8A6TSI                              SAT 08/09/97 14:04 Page:156
      856    10214    1         2 RL              BIT(1),
      857    10215    1         2 IND             BIT(1);
      858    10216    1   DCL EISDESC#            SBIN;
      859    10217    1   DCL OPCODE              UBIN;
      860    10218
      861    10219        %DCL_EIS_BUFFER;
      862    10257        %EJECT;
PL6.E3A0      #006=Z9IL$PRINT_LO File=Z9IL.:Z8A6TSI                              SAT 08/09/97 14:04 Page:157
      863    10258            /* Macro definitions */
      864    10259
      865    10260
      866    10261        %MACRO PRINT_LO_BUFFER(LLTYP=0);
      867    10262
      868    10263         DO;
      869    10264          IF LAST_LINE_TYPE ~= LLTYP THEN
      870    10265            CALL Z9IL$OUTPUT_TO_LO(ADDR(BLANK), LENGTHC(BLANK));
      871    10266          CALL Z9IL$OUTPUT_TO_LO(ADDR(TEXTBUF), LENGTHC(TEXTBUF));
      872    10267          TEXTBUF = ' ';
      873    10268          LAST_LINE_TYPE = LLTYP;
      874    10269         END;
      875    10270
      876    10271        %MEND;
      877    10272
      878    10273
      879    10274        %MACRO PRINT_LO_STRING(V=TEXTBUF);
      880    10275
      881    10276          CALL Z9IL$OUTPUT_TO_LO(ADDR(V), LENGTHC(V));
      882    10277
      883    10278        %MEND;
      884    10279
      885    10280
      886    10281
      887    10282
      888    10283
      889    10284        %MACRO APP_VAR_FLD(S="' '");
      890    10285
      891    10286          DO;
      892    10287            VARFLD# = LENGTHC(S);
      893    10288            VARFLDTX = S;
      894    10289            VARFLD$ = PINCRC(VARFLD$, LENGTHC(S));
      895    10290          END;
      896    10291
      897    10292        %MEND;
      898    10293
      899    10294
PL6.E3A0      #006=Z9IL$PRINT_LO File=Z9IL.:Z8A6TSI                              SAT 08/09/97 14:04 Page:158
      900    10295
      901    10296        %MACRO IF_THIS_CODE_SHOULD_BE_LISTED;
      902    10297
      903    10298             IF (COMCOM.OB.LISTOUT.CODE AND OBJ_SECT_NUM < COMCOM.SEGMENTC)
      904    10299                  OR
      905    10300                (COMCOM.OB.LISTOUT.DATA AND OBJ_SECT_NUM >= COMCOM.SEGMENTC) THEN
      906    10301
      907    10302        %MEND;
      908    10303
      909    10304        %EJECT;
PL6.E3A0      #006=Z9IL$PRINT_LO File=Z9IL.:Z8A6TSI                              SAT 08/09/97 14:04 Page:159
      910    10305    1   LIST_CONTROL_SECTIONS : PROC;

  10305 38 000003   200124 741300       LIST_CONTRO* STX1  ! LOCAL_OBJ_WORD+2,,AUTO
        38 000004   000144 710000 38                 TRA     s:10361

      911    10306
      912    10307    2   DCL CSHDR CHAR(0) CONSTANT INIT('    ****  CONTROL SECTIONS  ****');
      913    10308    2   DCL SECTHD1 CHAR(0) CONSTANT INIT(
             10308            ' Sect   Type Bound  Init  Size OctSiz  Section name(segment info)');
      914    10309    2   DCL COUNT SBIN;
      915    10310    2   DCL SECTION$ PTR;
      916    10311
      917    10312
      918    10313
      919    10314
      920    10315    2   LIST_SECTION : PROC (SECT$, TYPE);

  10315 38 000005   200130 741300       LIST_SECTION STX1  ! @ER$+1,,AUTO

      921    10316
      922    10317    3   DCL SECT$ PTR;   /* TO ST */
      923    10318    3   DCL TYPE SBIN;
      924    10319
      925    10320    3   CALL BINCHAR(TEMPC, SECT$ -> ST.OU_INDEX);

  10320 38 000006   200131 470500                    LDP0    @SECT$,,AUTO
        38 000007   000000 471500                    LDP1    0,,PR0
        38 000010   000100 301500                    BTD
        38 000011   100001 400002                    NDSC9   1,,PR1                   cn=2,s=lsgnf,sf=0,n=2
        38 000012   200053 030006                    NDSC9   TEMPC,,AUTO              cn=0,s=nosgn,sf=0,n=6

      926    10321    3   CALL EDITCHAR (SECTLINE.SECTNO, 0, 4, MOP4, TEMPC);

  10321 38 000013   100000 024500                    MVNE
        38 000014   200053 030006                    NDSC9   TEMPC,,AUTO              cn=0,s=nosgn,sf=0,n=6
        38 000015   002414 000003 33                 ADSC9   MOP4                     cn=0,n=3
        38 000016   200004 200004                    ADSC9   TEXTBUF,,AUTO            cn=1,n=4
PL6.E3A0      #006=Z9IL$PRINT_LO File=Z9IL.:Z8A6TSI                              SAT 08/09/97 14:04 Page:160

      927    10322
      928    10323    4   DO CASE(TYPE);

  10323 38 000017   200132 471500                    LDP1    @TYPE,,AUTO
        38 000020   100000 235100                    LDA     0,,PR1
        38 000021   000006 115007                    CMPA    6,DL
        38 000022   000024 602005 38                 TNC     s:10323+5,AL
        38 000023   000054 710000 38                 TRA     s:10338
        38 000024   000054 710000 38                 TRA     s:10338
        38 000025   000032 710000 38                 TRA     s:10326
        38 000026   000054 710000 38                 TRA     s:10338
        38 000027   000040 710000 38                 TRA     s:10330
        38 000030   000054 710000 38                 TRA     s:10338
        38 000031   000046 710000 38                 TRA     s:10334

      929    10324
      930    10325    4     CASE(1);  /* PROCEDURE */

      931    10326    4       SECTLINE.TYPE = ' PROC';

  10326 38 000032   040100 100400                    MLR     fill='040'O
        38 000033   002760 000005 33                 ADSC9   PTRREGS+10               cn=0,n=5
        38 000034   200005 600007                    ADSC9   TEXTBUF+1,,AUTO          cn=3,n=7

      932    10327    4       SECTLINE.INIT_TYPE = 'none';

  10327 38 000035   002762 236000 33                 LDQ     PTRREGS+12
        38 000036   200011 756100                    STQ     TEXTBUF+5,,AUTO
        38 000037   000061 710000 38                 TRA     s:10343

      933    10328
      934    10329    4     CASE(3);

      935    10330    4       SECTLINE.TYPE = ' DATA';

  10330 38 000040   040100 100400                    MLR     fill='040'O
PL6.E3A0      #006=Z9IL$PRINT_LO File=Z9IL.:Z8A6TSI                              SAT 08/09/97 14:04 Page:161
        38 000041   002763 000005 33                 ADSC9   PTRREGS+13               cn=0,n=5
        38 000042   200005 600007                    ADSC9   TEXTBUF+1,,AUTO          cn=3,n=7

      936    10331    4       SECTLINE.INIT_TYPE = 'zero';

  10331 38 000043   002765 236000 33                 LDQ     PTRREGS+15
        38 000044   200011 756100                    STQ     TEXTBUF+5,,AUTO
        38 000045   000061 710000 38                 TRA     s:10343

      937    10332
      938    10333    4     CASE(5);

      939    10334    4       SECTLINE.TYPE = ' DCB ';

  10334 38 000046   040100 100400                    MLR     fill='040'O
        38 000047   002766 000005 33                 ADSC9   PTRREGS+16               cn=0,n=5
        38 000050   200005 600007                    ADSC9   TEXTBUF+1,,AUTO          cn=3,n=7

      940    10335    4       SECTLINE.INIT_TYPE = 'none';

  10335 38 000051   002762 236000 33                 LDQ     PTRREGS+12
        38 000052   200011 756100                    STQ     TEXTBUF+5,,AUTO
        38 000053   000061 710000 38                 TRA     s:10343

      941    10336
      942    10337    4     CASE(ELSE);

      943    10338    4       SECTLINE.TYPE = ' ????';

  10338 38 000054   040100 100400                    MLR     fill='040'O
        38 000055   002770 000005 33                 ADSC9   PTRREGS+18               cn=0,n=5
        38 000056   200005 600007                    ADSC9   TEXTBUF+1,,AUTO          cn=3,n=7

      944    10339    4       SECTLINE.INIT_TYPE = 'none';

  10339 38 000057   002762 236000 33                 LDQ     PTRREGS+12
        38 000060   200011 756100                    STQ     TEXTBUF+5,,AUTO
PL6.E3A0      #006=Z9IL$PRINT_LO File=Z9IL.:Z8A6TSI                              SAT 08/09/97 14:04 Page:162

      945    10340
      946    10341    4   END;  /* CASE */

      947    10342
      948    10343    3   SECTLINE.BOUND     = 'even';

  10343 38 000061   040100 100400                    MLR     fill='040'O
        38 000062   002772 000004 33                 ADSC9   PTRREGS+20               cn=0,n=4
        38 000063   200007 400004                    ADSC9   TEXTBUF+3,,AUTO          cn=2,n=4

      949    10344    3   CALL BINCHAR(TEMPC, SECT$ -> BLOCK.SIZE);

  10344 38 000064   000000 473500                    LDP3    0,,PR0
        38 000065   300002 236100                    LDQ     2,,PR3
        38 000066   000022 772000                    QRL     18
        38 000067   000000 235003                    LDA     0,DU
        38 000070   200150 757100                    STAQ    SYM_TRUNC+1,,AUTO
        38 000071   000100 301500                    BTD
        38 000072   200150 000010                    NDSC9   SYM_TRUNC+1,,AUTO        cn=0,s=lsgnf,sf=0,n=8
        38 000073   200053 030006                    NDSC9   TEMPC,,AUTO              cn=0,s=nosgn,sf=0,n=6

      950    10345    3   CALL EDITCHAR(SECTLINE.SIZE, 0, 6, MOP6, TEMPC);

  10345 38 000074   100000 024500                    MVNE
        38 000075   200053 030006                    NDSC9   TEMPC,,AUTO              cn=0,s=nosgn,sf=0,n=6
        38 000076   002415 000002 33                 ADSC9   MOP6                     cn=0,n=2
        38 000077   200012 000006                    ADSC9   TEXTBUF+6,,AUTO          cn=0,n=6

      951    10346    3   CALL Z8IU$CONVERT_OCTAL_SUP(SECTLINE.X_SIZE, BINBIT(SECT$ -> BLOCK.SIZE, 36));

  10346 38 000100   000000 473500                    LDP3    0,,PR0
        38 000101   300002 236100                    LDQ     2,,PR3
        38 000102   000022 772000                    QRL     18
        38 000103   200150 756100                    STQ     SYM_TRUNC+1,,AUTO
        38 000104   200150 633500                    EPPR3   SYM_TRUNC+1,,AUTO
        38 000105   200153 453500                    STP3    SYM_TRUNC+4,,AUTO
PL6.E3A0      #006=Z9IL$PRINT_LO File=Z9IL.:Z8A6TSI                              SAT 08/09/97 14:04 Page:163
        38 000106   200154 452500                    STP2    SYM_TRUNC+5,,AUTO
        38 000107   200154 236100                    LDQ     SYM_TRUNC+5,,AUTO
        38 000110   000001 036000 39                 ADLQ    1
        38 000111   200152 756100                    STQ     SYM_TRUNC+3,,AUTO
        38 000112   200152 630500                    EPPR0   SYM_TRUNC+3,,AUTO
        38 000113   000000 631400 39                 EPPR1   0
        38 000114   000000 701000 xent               TSX1    Z8IU$CONVERT_OCTAL_SUP
        38 000115   000000 011000                    NOP     0

      952    10347    3   SECTLINE.NAME = SECT$ -> BLOCK.DNT$ -> DNT.TEXT.NAME;

  10347 38 000116   200131 470500                    LDP0    @SECT$,,AUTO
        38 000117   000000 471500                    LDP1    0,,PR0
        38 000120   100006 473500                    LDP3    6,,PR1
        38 000121   300004 220100                    LDX0    4,,PR3
        38 000122   040100 100540                    MLR     fill='040'O
        38 000123   300004 400010                    ADSC9   4,,PR3                   cn=2,n=*X0
        38 000124   200015 600036                    ADSC9   TEXTBUF+9,,AUTO          cn=3,n=30

      953    10348        %PRINT_LO_STRING(V=SECTLINE);

  10349 38 000125   200004 631500                    EPPR1   TEXTBUF,,AUTO
        38 000126   200150 451500                    STP1    SYM_TRUNC+1,,AUTO
        38 000127   000003 236000 39                 LDQ     3
        38 000130   200153 756100                    STQ     SYM_TRUNC+4,,AUTO
        38 000131   200150 633500                    EPPR3   SYM_TRUNC+1,,AUTO
        38 000132   200152 453500                    STP3    SYM_TRUNC+3,,AUTO
        38 000133   200152 630500                    EPPR0   SYM_TRUNC+3,,AUTO
        38 000134   000000 631400 39                 EPPR1   0
        38 000135   000000 701000 xent               TSX1    Z9IL$OUTPUT_TO_LO
        38 000136   000000 011000                    NOP     0

      954    10351    3   TEXTBUF = ' ';

  10351 38 000137   040100 100400                    MLR     fill='040'O
        38 000140   000004 000001 39                 ADSC9   4                        cn=0,n=1
        38 000141   200004 000155                    ADSC9   TEXTBUF,,AUTO            cn=0,n=109
PL6.E3A0      #006=Z9IL$PRINT_LO File=Z9IL.:Z8A6TSI                              SAT 08/09/97 14:04 Page:164

      955    10352
      956    10353    3   END LIST_SECTION;

  10353 38 000142   200130 221300                    LDX1  ! @ER$+1,,AUTO
        38 000143   000001 702211                    TSX2  ! 1,X1

      957    10354
      958    10355
      959    10356
      960    10357             /* Main body of LIST_CONTROL_SECTIONS */
      961    10358
      962    10359        %SETUP_SUB_HEADING(L0=CSHDR, L1=BLANK, L2=SECTHD1);

  10361 38 000144   000005 236000 39                 LDQ     5
        38 000145   000000 756000 1                  STQ     SUB_HEADING_ADDR

  10362 38 000146   000040 235007                    LDA     32,DL
        38 000147   000000 755000 2                  STA     SUB_HEADING_LEN

  10363 38 000150   000006 236000 39                 LDQ     6
        38 000151   000000 756000 3                  STQ     SUB_HEADING_ADDR1

  10364 38 000152   000001 235007                    LDA     1,DL
        38 000153   000000 755000 4                  STA     SUB_HEADING_LEN1

  10365 38 000154   000007 236000 39                 LDQ     7
        38 000155   000000 756000 5                  STQ     SUB_HEADING_ADDR2

  10366 38 000156   000101 235007                    LDA     65,DL
        38 000157   000000 755000 6                  STA     SUB_HEADING_LEN2

      963    10369        %NEW_PAGE;

  10370 38 000160   000000 235000 7                  LDA     MAX_LINES_PER_PAGE
        38 000161   000000 755000 8                  STA     LISTING_LINES_ON_PAGE

PL6.E3A0      #006=Z9IL$PRINT_LO File=Z9IL.:Z8A6TSI                              SAT 08/09/97 14:04 Page:165
  10371 38 000162   000010 631400 39                 EPPR1   8
        38 000163   000000 701000 xent               TSX1    Z9IL$OUTPUT_TO_LO_PAGE
        38 000164   000000 011000                    NOP     0

      964    10373
      965    10374    3   DO COUNT = 0 TO COMCOM.SEGMENTC - 1;

  10374 38 000165   200125 450100                    STZ     COUNT,,AUTO
        38 000166   000177 710000 38                 TRA     s:10376+1

      966    10375    3     CALL LIST_SECTION(COMCOM.SEGMENT$(COUNT), 1);  /* Procedure */

  10375 38 000167   000012 236000 39                 LDQ     10
        38 000170   200132 756100                    STQ     @SECT$+1,,AUTO
        38 000171   200125 720100                    LXL0    COUNT,,AUTO
        38 000172   000150 630410 xsym               EPPR0   COMCOM+104,X0
        38 000173   200131 450500                    STP0    @ER$+2,,AUTO
        38 000174   000005 701000 38                 TSX1    LIST_SECTION
        38 000175   000000 011000                    NOP     0

      967    10376    3   END;

  10376 38 000176   200125 054100                    AOS     COUNT,,AUTO
        38 000177   200125 236100                    LDQ     COUNT,,AUTO
        38 000200   000314 116000 xsym               CMPQ    COMCOM+204
        38 000201   000167 604000 38                 TMI     s:10375

      968    10377
      969    10378    2   SECTION$ = COMCOM.BLOCK$;

  10378 38 000202   000145 236000 xsym               LDQ     COMCOM+101
        38 000203   200126 756100                    STQ     SECTION$,,AUTO

      970    10379    3   DO WHILE (SECTION$ ~= ADDR(NIL));

  10379 38 000204   000257 710000 38                 TRA     s:10396

PL6.E3A0      #006=Z9IL$PRINT_LO File=Z9IL.:Z8A6TSI                              SAT 08/09/97 14:04 Page:166
      971    10380    4     DO CASE (SECTION$ -> ST.ID);

  10380 38 000205   200126 470500                    LDP0    SECTION$,,AUTO
        38 000206   000000 236100                    LDQ     0,,PR0
        38 000207   000022 772000                    QRL     18
        38 000210   000774 136007                    SBLQ    508,DL
        38 000211   000014 116007                    CMPQ    12,DL
        38 000212   000214 602006 38                 TNC     s:10380+7,QL
        38 000213   000246 710000 38                 TRA     s:10392
        38 000214   000230 710000 38                 TRA     s:10384
        38 000215   000246 710000 38                 TRA     s:10392
        38 000216   000246 710000 38                 TRA     s:10392
        38 000217   000246 710000 38                 TRA     s:10392
        38 000220   000230 710000 38                 TRA     s:10384
        38 000221   000246 710000 38                 TRA     s:10392
        38 000222   000246 710000 38                 TRA     s:10392
        38 000223   000246 710000 38                 TRA     s:10392
        38 000224   000246 710000 38                 TRA     s:10392
        38 000225   000246 710000 38                 TRA     s:10392
        38 000226   000246 710000 38                 TRA     s:10392
        38 000227   000237 710000 38                 TRA     s:10388

      972    10381
      973    10382    4       CASE(%BLOCK, %SEGMENT);

      974    10383
      975    10384    4         CALL LIST_SECTION (SECTION$, 3);  /* Data */

  10384 38 000230   000014 236000 39                 LDQ     12
        38 000231   200132 756100                    STQ     @SECT$+1,,AUTO
        38 000232   200126 631500                    EPPR1   SECTION$,,AUTO
        38 000233   200131 451500                    STP1    @ER$+2,,AUTO
        38 000234   000005 701000 38                 TSX1    LIST_SECTION
        38 000235   000000 011000                    NOP     0
        38 000236   000254 710000 38                 TRA     s:10395

      976    10385
PL6.E3A0      #006=Z9IL$PRINT_LO File=Z9IL.:Z8A6TSI                              SAT 08/09/97 14:04 Page:167
      977    10386    4       CASE(%DCB_);

      978    10387
      979    10388    4         CALL LIST_SECTION (SECTION$, 5);  /* DCB */

  10388 38 000237   000016 236000 39                 LDQ     14
        38 000240   200132 756100                    STQ     @SECT$+1,,AUTO
        38 000241   200126 631500                    EPPR1   SECTION$,,AUTO
        38 000242   200131 451500                    STP1    @ER$+2,,AUTO
        38 000243   000005 701000 38                 TSX1    LIST_SECTION
        38 000244   000000 011000                    NOP     0
        38 000245   000254 710000 38                 TRA     s:10395

      980    10389
      981    10390    4       CASE(ELSE);

      982    10391
      983    10392    4         CALL LIST_SECTION (SECTION$, -1);  /* Unknown */

  10392 38 000246   000020 236000 39                 LDQ     16
        38 000247   200132 756100                    STQ     @SECT$+1,,AUTO
        38 000250   200126 631500                    EPPR1   SECTION$,,AUTO
        38 000251   200131 451500                    STP1    @ER$+2,,AUTO
        38 000252   000005 701000 38                 TSX1    LIST_SECTION
        38 000253   000000 011000                    NOP     0

      984    10393    4     END;

      985    10394
      986    10395    3     SECTION$ = SECTION$ -> ST.NEXT;

  10395 38 000254   200126 470500                    LDP0    SECTION$,,AUTO
        38 000255   000004 236100                    LDQ     4,,PR0
        38 000256   200126 756100                    STQ     SECTION$,,AUTO

      987    10396    3   END;

PL6.E3A0      #006=Z9IL$PRINT_LO File=Z9IL.:Z8A6TSI                              SAT 08/09/97 14:04 Page:168
  10396 38 000257   000021 116000 39                 CMPQ    17
        38 000260   000205 601000 38                 TNZ     s:10380

      988    10397
      989    10398    2   END LIST_CONTROL_SECTIONS;

  10398 38 000261   200124 221300                    LDX1  ! LOCAL_OBJ_WORD+2,,AUTO
        38 000262   000001 702211                    TSX2  ! 1,X1

      990    10399        %EJECT;
PL6.E3A0      #006=Z9IL$PRINT_LO File=Z9IL.:Z8A6TSI                              SAT 08/09/97 14:04 Page:169
      991    10400    1   LIST_ENTRY_DEFS : PROC;

  10400 38 000263   200124 741300       LIST_ENTRY_* STX1  ! LOCAL_OBJ_WORD+2,,AUTO

      992    10401
      993    10402    2   DCL EDHDR CHAR(0) CONSTANT INIT('    ****  ENTRY DEFS  ****');
      994    10403    2   DCL EDEFHD0 CHAR(0) CONSTANT INIT
      995    10404    2        ('                             Chk call Call seq');
      996    10405    2   DCL EDEFHD1 CHAR(0) CONSTANT INIT
      997    10406    2        ('  Sect OctLoc Primary Altret sequence   type   Parms  Name');
      998    10407
      999    10408    2   DCL SYMDEF$            PTR;
     1000    10409
     1001    10410
     1002    10411        %SETUP_SUB_HEADING(L0=EDHDR, L1=EDEFHD0, L2=EDEFHD1);

  10413 38 000264   000022 236000 39                 LDQ     18
        38 000265   000000 756000 1                  STQ     SUB_HEADING_ADDR

  10414 38 000266   000032 235007                    LDA     26,DL
        38 000267   000000 755000 2                  STA     SUB_HEADING_LEN

  10415 38 000270   000023 236000 39                 LDQ     19
        38 000271   000000 756000 3                  STQ     SUB_HEADING_ADDR1

  10416 38 000272   000056 235007                    LDA     46,DL
        38 000273   000000 755000 4                  STA     SUB_HEADING_LEN1

  10417 38 000274   000024 236000 39                 LDQ     20
        38 000275   000000 756000 5                  STQ     SUB_HEADING_ADDR2

  10418 38 000276   000072 235007                    LDA     58,DL
        38 000277   000000 755000 6                  STA     SUB_HEADING_LEN2

     1003    10421        %NEW_PAGE;

  10422 38 000300   000000 235000 7                  LDA     MAX_LINES_PER_PAGE
PL6.E3A0      #006=Z9IL$PRINT_LO File=Z9IL.:Z8A6TSI                              SAT 08/09/97 14:04 Page:170
        38 000301   000000 755000 8                  STA     LISTING_LINES_ON_PAGE

  10423 38 000302   000010 631400 39                 EPPR1   8
        38 000303   000000 701000 xent               TSX1    Z9IL$OUTPUT_TO_LO_PAGE
        38 000304   000000 011000                    NOP     0

     1004    10425
     1005    10426        /* Print program names as entry def */
     1006    10427
     1007    10428    2    SYMDEF$ = COMCOM.SYMDEF$;

  10428 38 000305   000316 236000 xsym               LDQ     COMCOM+206
        38 000306   200125 756100                    STQ     SYMDEF$,,AUTO

     1008    10429
     1009    10430    3    DO WHILE (SYMDEF$ ~= ADDR(NIL));

  10430 38 000307   000422 710000 38                 TRA     s:10466

     1010    10431
     1011    10432    3      EDEFLINE.SECTNO      = '    0';

  10432 38 000310   040100 100400                    MLR     fill='040'O
        38 000311   002773 000005 33                 ADSC9   PTRREGS+21               cn=0,n=5
        38 000312   200004 200005                    ADSC9   TEXTBUF,,AUTO            cn=1,n=5

     1012    10433    3      EDEFLINE.LOC         = '     0';

  10433 38 000313   040100 100400                    MLR     fill='040'O
        38 000314   002775 000006 33                 ADSC9   PTRREGS+23               cn=0,n=6
        38 000315   200005 600006                    ADSC9   TEXTBUF+1,,AUTO          cn=3,n=6

     1013    10434    3      IF COMCOM.OU_EXTERNAL_NAME$ = SYMDEF$ -> SYMDEF_.DNT$ THEN

  10434 38 000316   200125 470500                    LDP0    SYMDEF$,,AUTO
        38 000317   000146 236000 xsym               LDQ     COMCOM+102
        38 000320   000006 116100                    CMPQ    6,,PR0
PL6.E3A0      #006=Z9IL$PRINT_LO File=Z9IL.:Z8A6TSI                              SAT 08/09/97 14:04 Page:171
        38 000321   000325 601000 38                 TNZ     s:10437

     1014    10435    3        EDEFLINE.P           = 'yes';

  10435 38 000322   002777 236000 33                 LDQ     PTRREGS+25
        38 000323   200010 552170                    STBQ    TEXTBUF+4,'70'O,AUTO
        38 000324   000327 710000 38                 TRA     s:10439

     1015    10436    3      ELSE
     1016    10437    3        EDEFLINE.P           = ' no';

  10437 38 000325   003000 236000 33                 LDQ     PTRREGS+26
        38 000326   200010 552170                    STBQ    TEXTBUF+4,'70'O,AUTO

     1017    10438
     1018    10439    3      IF SYMDEF$ -> SYMDEF_.B.MAIN_PROGRAM THEN

  10439 38 000327   000003 234100                    SZN     3,,PR0
        38 000330   000335 605000 38                 TPL     s:10442

     1019    10440    3        EDEFLINE.CSTYP       = ' Main';

  10440 38 000331   040100 100400                    MLR     fill='040'O
        38 000332   003001 000005 33                 ADSC9   PTRREGS+27               cn=0,n=5
        38 000333   200015 600006                    ADSC9   TEXTBUF+9,,AUTO          cn=3,n=6
        38 000334   000340 710000 38                 TRA     s:10444

     1020    10441    3      ELSE
     1021    10442    3        EDEFLINE.CSTYP       = '  Std';

  10442 38 000335   040100 100400                    MLR     fill='040'O
        38 000336   003003 000005 33                 ADSC9   PTRREGS+29               cn=0,n=5
        38 000337   200015 600006                    ADSC9   TEXTBUF+9,,AUTO          cn=3,n=6

     1022    10443
     1023    10444    3      IF SYMDEF$ -> SYMDEF_.ARGLIST$ = ADDR(NIL)

PL6.E3A0      #006=Z9IL$PRINT_LO File=Z9IL.:Z8A6TSI                              SAT 08/09/97 14:04 Page:172
  10444 38 000340   000005 236100                    LDQ     5,,PR0
        38 000341   000021 116000 39                 CMPQ    17
        38 000342   000350 600000 38                 TZE     s:10447
        38 000343   000354 600000 38                 TZE     s:10450
        38 000344   000005 471500                    LDP1    5,,PR0
        38 000345   100000 720100                    LXL0    0,,PR1
        38 000346   000001 100003                    CMPX0   1,DU
        38 000347   000354 601000 38                 TNZ     s:10450

     1024    10445    3      OR (SYMDEF$ -> SYMDEF_.ARGLIST$ ~= ADDR(NIL)
     1025    10446    3          AND SYMDEF$ -> SYMDEF_.ARGLIST$ -> ARGLIST.N - 1 = 0) THEN
     1026    10447    3        EDEFLINE.NP          = '    0';

  10447 38 000350   040100 100400                    MLR     fill='040'O
        38 000351   002773 000005 33                 ADSC9   PTRREGS+21               cn=0,n=5
        38 000352   200017 600005                    ADSC9   TEXTBUF+11,,AUTO         cn=3,n=5
        38 000353   000374 710000 38                 TRA     s:10457

     1027    10448    3      ELSE
     1028    10449    4        DO;

     1029    10450    4          CALL Z8IU$CONVERT_OCTAL_SUP (TEMPC,

  10450 38 000354   000005 471500                    LDP1    5,,PR0
        38 000355   100000 236100                    LDQ     0,,PR1
        38 000356   777777 376007                    ANQ     -1,DL
        38 000357   000001 136007                    SBLQ    1,DL
        38 000360   200150 756100                    STQ     SYM_TRUNC+1,,AUTO
        38 000361   200150 631500                    EPPR1   SYM_TRUNC+1,,AUTO
        38 000362   200153 451500                    STP1    SYM_TRUNC+4,,AUTO
        38 000363   200053 633500                    EPPR3   TEMPC,,AUTO
        38 000364   200152 453500                    STP3    SYM_TRUNC+3,,AUTO
        38 000365   200152 630500                    EPPR0   SYM_TRUNC+3,,AUTO
        38 000366   000000 631400 39                 EPPR1   0
        38 000367   000000 701000 xent               TSX1    Z8IU$CONVERT_OCTAL_SUP
        38 000370   000000 011000                    NOP     0

PL6.E3A0      #006=Z9IL$PRINT_LO File=Z9IL.:Z8A6TSI                              SAT 08/09/97 14:04 Page:173
     1030    10451    4                                       BINBIT (SYMDEF$ ->
     1031    10452    4                                       SYMDEF_.ARGLIST$ -> ARGLIST.N - 1, 36));
     1032    10453
     1033    10454    4          EDEFLINE.NP = SUBSTR (TEMPC, 1, 5);

  10454 38 000371   040100 100500                    MLR     fill='040'O
        38 000372   200053 200005                    ADSC9   TEMPC,,AUTO              cn=1,n=5
        38 000373   200017 600005                    ADSC9   TEXTBUF+11,,AUTO         cn=3,n=5

     1034    10455    4        END;

     1035    10456
     1036    10457    3      EDEFLINE.NAME = SYMDEF$ -> SYMDEF_.DNT$ -> DNT.TEXT.NAME;

  10457 38 000374   200125 470500                    LDP0    SYMDEF$,,AUTO
        38 000375   000006 471500                    LDP1    6,,PR0
        38 000376   100004 220100                    LDX0    4,,PR1
        38 000377   040100 100540                    MLR     fill='040'O
        38 000400   100004 400010                    ADSC9   4,,PR1                   cn=2,n=*X0
        38 000401   200021 400036                    ADSC9   TEXTBUF+13,,AUTO         cn=2,n=30

     1037    10458
     1038    10459           %PRINT_LO_STRING(V=EDEFLINE);

  10460 38 000402   200004 631500                    EPPR1   TEXTBUF,,AUTO
        38 000403   200150 451500                    STP1    SYM_TRUNC+1,,AUTO
        38 000404   000003 236000 39                 LDQ     3
        38 000405   200153 756100                    STQ     SYM_TRUNC+4,,AUTO
        38 000406   200150 633500                    EPPR3   SYM_TRUNC+1,,AUTO
        38 000407   200152 453500                    STP3    SYM_TRUNC+3,,AUTO
        38 000410   200152 630500                    EPPR0   SYM_TRUNC+3,,AUTO
        38 000411   000000 631400 39                 EPPR1   0
        38 000412   000000 701000 xent               TSX1    Z9IL$OUTPUT_TO_LO
        38 000413   000000 011000                    NOP     0

     1039    10462    3      TEXTBUF = ' ';

PL6.E3A0      #006=Z9IL$PRINT_LO File=Z9IL.:Z8A6TSI                              SAT 08/09/97 14:04 Page:174
  10462 38 000414   040100 100400                    MLR     fill='040'O
        38 000415   000004 000001 39                 ADSC9   4                        cn=0,n=1
        38 000416   200004 000155                    ADSC9   TEXTBUF,,AUTO            cn=0,n=109

     1040    10463
     1041    10464    3      SYMDEF$ = SYMDEF$ -> SYMDEF_.NEXT;

  10464 38 000417   200125 470500                    LDP0    SYMDEF$,,AUTO
        38 000420   000004 236100                    LDQ     4,,PR0
        38 000421   200125 756100                    STQ     SYMDEF$,,AUTO

     1042    10465
     1043    10466    3    END; /* While */

  10466 38 000422   000021 116000 39                 CMPQ    17
        38 000423   000310 601000 38                 TNZ     s:10432

     1044    10467
     1045    10468    2   END LIST_ENTRY_DEFS;

  10468 38 000424   200124 221300                    LDX1  ! LOCAL_OBJ_WORD+2,,AUTO
        38 000425   000001 702211                    TSX2  ! 1,X1

     1046    10469        %EJECT;
PL6.E3A0      #006=Z9IL$PRINT_LO File=Z9IL.:Z8A6TSI                              SAT 08/09/97 14:04 Page:175
     1047    10470
     1048    10471    1   LIST_ENTRY_REFS : PROC;

  10471 38 000426   200124 741300       LIST_ENTRY_* STX1  ! LOCAL_OBJ_WORD+2,,AUTO
        38 000427   000462 710000 38                 TRA     s:10500

     1049    10472
     1050    10473    2   DCL ERHDR CHAR(0) CONSTANT INIT('    ****  ENTRY REFS  ****');
     1051    10474    2   DCL EREFHD0 CHAR(0) CONSTANT INIT
     1052    10475    2        ('        Chk call      Call seq');
     1053    10476    2   DCL EREFHD1 CHAR(0) CONSTANT INIT
     1054    10477    2        ('Altret sequence SRef   type   Args  Name');
     1055    10478
     1056    10479    2   DCL SECTION$ PTR;
     1057    10480
     1058    10481
     1059    10482    2   LIST_ENTREF : PROC(ER$);

  10482 38 000430   200126 741300       LIST_ENTREF  STX1  ! SECTION$,,AUTO

     1060    10483
     1061    10484    3   DCL ER$ PTR;
     1062    10485
     1063    10486    3   EREFLINE.CST  = ' Std';

  10486 38 000431   040100 100400                    MLR     fill='040'O
        38 000432   003005 000004 33                 ADSC9   PTRREGS+31               cn=0,n=4
        38 000433   200011 400006                    ADSC9   TEXTBUF+5,,AUTO          cn=2,n=6

     1064    10487    3   EREFLINE.NAME = ER$ -> ST.DNT$ -> DNT.TEXT.NAME;

  10487 38 000434   200127 470500                    LDP0    @ER$,,AUTO
        38 000435   000000 471500                    LDP1    0,,PR0
        38 000436   100006 473500                    LDP3    6,,PR1
        38 000437   300004 220100                    LDX0    4,,PR3
        38 000440   040100 100540                    MLR     fill='040'O
        38 000441   300004 400010                    ADSC9   4,,PR3                   cn=2,n=*X0
PL6.E3A0      #006=Z9IL$PRINT_LO File=Z9IL.:Z8A6TSI                              SAT 08/09/97 14:04 Page:176
        38 000442   200015 000111                    ADSC9   TEXTBUF+9,,AUTO          cn=0,n=73

     1065    10488        %PRINT_LO_STRING(V=EREFLINE);

  10489 38 000443   200004 631500                    EPPR1   TEXTBUF,,AUTO
        38 000444   200150 451500                    STP1    SYM_TRUNC+1,,AUTO
        38 000445   000003 236000 39                 LDQ     3
        38 000446   200153 756100                    STQ     SYM_TRUNC+4,,AUTO
        38 000447   200150 633500                    EPPR3   SYM_TRUNC+1,,AUTO
        38 000450   200152 453500                    STP3    SYM_TRUNC+3,,AUTO
        38 000451   200152 630500                    EPPR0   SYM_TRUNC+3,,AUTO
        38 000452   000000 631400 39                 EPPR1   0
        38 000453   000000 701000 xent               TSX1    Z9IL$OUTPUT_TO_LO
        38 000454   000000 011000                    NOP     0

     1066    10491    3   TEXTBUF   = ' ';

  10491 38 000455   040100 100400                    MLR     fill='040'O
        38 000456   000004 000001 39                 ADSC9   4                        cn=0,n=1
        38 000457   200004 000155                    ADSC9   TEXTBUF,,AUTO            cn=0,n=109

     1067    10492
     1068    10493    3   END LIST_ENTREF;

  10493 38 000460   200126 221300                    LDX1  ! SECTION$,,AUTO
        38 000461   000001 702211                    TSX2  ! 1,X1

     1069    10494
     1070    10495
     1071    10496          /* Main body of LIST_ENTREF */
     1072    10497
     1073    10498        %SETUP_SUB_HEADING(L0=ERHDR, L1=EREFHD0, L2=EREFHD1);

  10500 38 000462   000025 236000 39                 LDQ     21
        38 000463   000000 756000 1                  STQ     SUB_HEADING_ADDR

  10501 38 000464   000032 235007                    LDA     26,DL
PL6.E3A0      #006=Z9IL$PRINT_LO File=Z9IL.:Z8A6TSI                              SAT 08/09/97 14:04 Page:177
        38 000465   000000 755000 2                  STA     SUB_HEADING_LEN

  10502 38 000466   000026 236000 39                 LDQ     22
        38 000467   000000 756000 3                  STQ     SUB_HEADING_ADDR1

  10503 38 000470   000036 235007                    LDA     30,DL
        38 000471   000000 755000 4                  STA     SUB_HEADING_LEN1

  10504 38 000472   000027 236000 39                 LDQ     23
        38 000473   000000 756000 5                  STQ     SUB_HEADING_ADDR2

  10505 38 000474   000050 235007                    LDA     40,DL
        38 000475   000000 755000 6                  STA     SUB_HEADING_LEN2

     1074    10508        %NEW_PAGE;

  10509 38 000476   000000 235000 7                  LDA     MAX_LINES_PER_PAGE
        38 000477   000000 755000 8                  STA     LISTING_LINES_ON_PAGE

  10510 38 000500   000010 631400 39                 EPPR1   8
        38 000501   000000 701000 xent               TSX1    Z9IL$OUTPUT_TO_LO_PAGE
        38 000502   000000 011000                    NOP     0

     1075    10512
     1076    10513    2   SECTION$ = COMCOM.SYMREF$;

  10513 38 000503   000436 236000 xsym               LDQ     COMCOM+286
        38 000504   200125 756100                    STQ     SECTION$,,AUTO

     1077    10514    3   DO WHILE SECTION$ ~= ADDR(NIL);

  10514 38 000505   000521 710000 38                 TRA     s:10518

     1078    10515    3     IF SECTION$ -> ST.ID = %SYMREF_ THEN

  10515 38 000506   200125 470500                    LDP0    SECTION$,,AUTO
        38 000507   000000 220100                    LDX0    0,,PR0
PL6.E3A0      #006=Z9IL$PRINT_LO File=Z9IL.:Z8A6TSI                              SAT 08/09/97 14:04 Page:178
        38 000510   000772 100003                    CMPX0   506,DU
        38 000511   000516 601000 38                 TNZ     s:10517

     1079    10516    3       CALL LIST_ENTREF(SECTION$);

  10516 38 000512   200125 631500                    EPPR1   SECTION$,,AUTO
        38 000513   200127 451500                    STP1    SV_OBJ$+1,,AUTO
        38 000514   000430 701000 38                 TSX1    LIST_ENTREF
        38 000515   000000 011000                    NOP     0

     1080    10517    3     SECTION$ = SECTION$ -> ST.NEXT;

  10517 38 000516   200125 470500                    LDP0    SECTION$,,AUTO
        38 000517   000004 236100                    LDQ     4,,PR0
        38 000520   200125 756100                    STQ     SECTION$,,AUTO

     1081    10518    3   END;

  10518 38 000521   000021 116000 39                 CMPQ    17
        38 000522   000506 601000 38                 TNZ     s:10515

     1082    10519
     1083    10520    2   END LIST_ENTRY_REFS;

  10520 38 000523   200124 221300                    LDX1  ! LOCAL_OBJ_WORD+2,,AUTO
        38 000524   000001 702211                    TSX2  ! 1,X1

     1084    10521        %EJECT;
PL6.E3A0      #006=Z9IL$PRINT_LO File=Z9IL.:Z8A6TSI                              SAT 08/09/97 14:04 Page:179
     1085    10522    1   LIST_DATA_MAP : PROC;

  10522 38 000525   200124 741300       LIST_DATA_M* STX1  ! LOCAL_OBJ_WORD+2,,AUTO

     1086    10523
     1087    10524        %INCLUDE Z8A_QLT;
     1088    10630
     1089    10631    2   DCL SAHDR CHAR(0) CONSTANT INIT ('    ****  SCALARS AND ARRAYS  ****');
     1090    10632    2   DCL VSTRCTHD1 CHAR(0) CONSTANT INIT
     1091    10633    2       ('OctLoc.c.b A Datatyp(siz) R M Lvl/name');
     1092    10634
     1093    10635    2   DCL Z9IO$SEARCH_ST_STRUCT ENTRY(3);
     1094    10636    2   DCL Z9IL$DM_ENTRY ENTRY(2);
     1095    10637
     1096    10638        %SETUP_SUB_HEADING(L0=SAHDR, L1=BLANK, L2=VSTRCTHD1);

  10640 38 000526   000030 236000 39                 LDQ     24
        38 000527   000000 756000 1                  STQ     SUB_HEADING_ADDR

  10641 38 000530   000042 235007                    LDA     34,DL
        38 000531   000000 755000 2                  STA     SUB_HEADING_LEN

  10642 38 000532   000006 236000 39                 LDQ     6
        38 000533   000000 756000 3                  STQ     SUB_HEADING_ADDR1

  10643 38 000534   000001 235007                    LDA     1,DL
        38 000535   000000 755000 4                  STA     SUB_HEADING_LEN1

  10644 38 000536   000031 236000 39                 LDQ     25
        38 000537   000000 756000 5                  STQ     SUB_HEADING_ADDR2

  10645 38 000540   000046 235007                    LDA     38,DL
        38 000541   000000 755000 6                  STA     SUB_HEADING_LEN2

     1097    10648        %NEW_PAGE;

  10649 38 000542   000000 235000 7                  LDA     MAX_LINES_PER_PAGE
PL6.E3A0      #006=Z9IL$PRINT_LO File=Z9IL.:Z8A6TSI                              SAT 08/09/97 14:04 Page:180
        38 000543   000000 755000 8                  STA     LISTING_LINES_ON_PAGE

  10650 38 000544   000010 631400 39                 EPPR1   8
        38 000545   000000 701000 xent               TSX1    Z9IL$OUTPUT_TO_LO_PAGE
        38 000546   000000 011000                    NOP     0

     1098    10652
     1099    10653        %TOP_ST;

  10655 38 000547   000000 236000 21                 LDQ     ST_
        38 000550   000000 756000 20                 STQ     ST$

     1100    10658
     1101    10659    3   DO WHILE ST$ ~= ADDR(NIL);

  10659 38 000551   000653 710000 38                 TRA     s:10680

     1102    10660    4     DO CASE(ST$ -> ST.ID);

  10660 38 000552   000000 470400 20                 LDP0    ST$
        38 000553   000000 236100                    LDQ     0,,PR0
        38 000554   000022 772000                    QRL     18
        38 000555   000760 136007                    SBLQ    496,DL
        38 000556   000027 116007                    CMPQ    23,DL
        38 000557   000561 602006 38                 TNC     s:10660+7,QL
        38 000560   000633 710000 38                 TRA     s:10672
        38 000561   000610 710000 38                 TRA     s:10664
        38 000562   000633 710000 38                 TRA     s:10672
        38 000563   000633 710000 38                 TRA     s:10672
        38 000564   000633 710000 38                 TRA     s:10672
        38 000565   000633 710000 38                 TRA     s:10672
        38 000566   000610 710000 38                 TRA     s:10664
        38 000567   000610 710000 38                 TRA     s:10664
        38 000570   000633 710000 38                 TRA     s:10672
        38 000571   000633 710000 38                 TRA     s:10672
        38 000572   000633 710000 38                 TRA     s:10672
        38 000573   000633 710000 38                 TRA     s:10672
PL6.E3A0      #006=Z9IL$PRINT_LO File=Z9IL.:Z8A6TSI                              SAT 08/09/97 14:04 Page:181
        38 000574   000633 710000 38                 TRA     s:10672
        38 000575   000633 710000 38                 TRA     s:10672
        38 000576   000633 710000 38                 TRA     s:10672
        38 000577   000633 710000 38                 TRA     s:10672
        38 000600   000633 710000 38                 TRA     s:10672
        38 000601   000633 710000 38                 TRA     s:10672
        38 000602   000633 710000 38                 TRA     s:10672
        38 000603   000610 710000 38                 TRA     s:10664
        38 000604   000610 710000 38                 TRA     s:10664
        38 000605   000610 710000 38                 TRA     s:10664
        38 000606   000610 710000 38                 TRA     s:10664
        38 000607   000610 710000 38                 TRA     s:10664

     1103    10661
     1104    10662    4       CASE (%TEMP, %SCALAR, %ARRAY, %FD, %SD, %CD, %RD, %DB);

     1105    10663
     1106    10664    4           IF ST$ -> VARIABLE.QLT$ ~= ADDR(NIL) THEN

  10664 38 000610   000007 236100                    LDQ     7,,PR0
        38 000611   000021 116000 39                 CMPQ    17
        38 000612   000633 600000 38                 TZE     s:10672

     1107    10665    4             IF ST$ -> VARIABLE.QLT$ -> QLT.FATHER = ADDR(NIL) THEN

  10665 38 000613   000007 471500                    LDP1    7,,PR0
        38 000614   100001 236100                    LDQ     1,,PR1
        38 000615   000021 116000 39                 CMPQ    17
        38 000616   000633 601000 38                 TNZ     s:10672

     1108    10666    4               CALL Z9IO$SEARCH_ST_STRUCT (ST$, 1, ENTADDR(Z9IL$DM_ENTRY));

  10666 38 000617   000000 636000 xent               EAQ     Z9IL$DM_ENTRY
        38 000620   200150 756100                    STQ     SYM_TRUNC+1,,AUTO
        38 000621   200150 631500                    EPPR1   SYM_TRUNC+1,,AUTO
        38 000622   200153 451500                    STP1    SYM_TRUNC+4,,AUTO
        38 000623   000012 236000 39                 LDQ     10
PL6.E3A0      #006=Z9IL$PRINT_LO File=Z9IL.:Z8A6TSI                              SAT 08/09/97 14:04 Page:182
        38 000624   200152 756100                    STQ     SYM_TRUNC+3,,AUTO
        38 000625   000033 236000 39                 LDQ     27
        38 000626   200151 756100                    STQ     SYM_TRUNC+2,,AUTO
        38 000627   200151 630500                    EPPR0   SYM_TRUNC+2,,AUTO
        38 000630   000032 631400 39                 EPPR1   26
        38 000631   000000 701000 xent               TSX1    Z9IO$SEARCH_ST_STRUCT
        38 000632   000000 011000                    NOP     0

     1109    10667
     1110    10668    4     END;  /* CASE OF ST.ID */

     1111    10669
     1112    10670          %STEP_ST;

  10672 38 000633   000000 236000 20                 LDQ     ST$
        38 000634   000013 036003                    ADLQ    11,DU
        38 000635   000000 756000 20                 STQ     ST$

  10673 38 000636   000002 236000 21                 LDQ     ST_+2
        38 000637   000022 736000                    QLS     18
        38 000640   000001 036000 21                 ADLQ    ST_+1
        38 000641   000000 116000 20                 CMPQ    ST$
        38 000642   000646 601000 38                 TNZ     s:10676

  10674 38 000643   000021 236000 39                 LDQ     17
        38 000644   000000 756000 20                 STQ     ST$
        38 000645   000653 710000 38                 TRA     s:10680

  10676 38 000646   000000 470400 20                 LDP0    ST$
        38 000647   000000 220100                    LDX0    0,,PR0
        38 000650   000653 601000 38                 TNZ     s:10680

  10677 38 000651   000001 236100                    LDQ     1,,PR0
        38 000652   000000 756000 20                 STQ     ST$

     1113    10680    3   END;  /* DO WHILE */

PL6.E3A0      #006=Z9IL$PRINT_LO File=Z9IL.:Z8A6TSI                              SAT 08/09/97 14:04 Page:183
  10680 38 000653   000000 236000 20                 LDQ     ST$
        38 000654   000021 116000 39                 CMPQ    17
        38 000655   000552 601000 38                 TNZ     s:10660

     1114    10681
     1115    10682
     1116    10683    2   END LIST_DATA_MAP;

  10683 38 000656   200124 221300                    LDX1  ! LOCAL_OBJ_WORD+2,,AUTO
        38 000657   000001 702211                    TSX2  ! 1,X1

     1117    10684        %EJECT;
PL6.E3A0      #006=Z9IL$PRINT_LO File=Z9IL.:Z8A6TSI                              SAT 08/09/97 14:04 Page:184
     1118    10685    1   MERGE_SOURCE : PROC (LINE#);

  10685 38 000660   200124 741300       MERGE_SOURCE STX1  ! LOCAL_OBJ_WORD+2,,AUTO

     1119    10686
     1120    10687    2   DCL LINE# SBIN;
     1121    10688
     1122    10689        /* MERGE THE SOURCE LINES UP TO AND INCLUDING THE LINE# SPECIFIED.
     1123    10690        */
     1124    10691
     1125    10692    2   DCL EOF_SOURCE BIT(1) STATIC INIT('0'B);
     1126    10693    2   DCL LINE#_WAITING SBIN STATIC INIT(0);
     1127    10694
     1128    10695    2   DCL 1 LINE STATIC,
     1129    10696    2         2 VFC_CHAR CHAR(1),
     1130    10697    2         2 WAITING CHAR(132);
     1131    10698
     1132    10699
     1133    10700    2   IF NOT EOF_SOURCE  AND

  10700 38 000661   000000 234000 37                 SZN     EOF_SOURCE
        38 000662   000744 604000 38                 TMI     s:10724
        38 000663   000041 234000 xsym               SZN     COMCOM+33
        38 000664   000670 604000 38                 TMI     s:10704
        38 000665   000041 236000 xsym               LDQ     COMCOM+33
        38 000666   200000 316003                    CANQ    65536,DU
        38 000667   000744 600000 38                 TZE     s:10724

     1134    10701    2      (COMCOM.OB.LISTOUT.CODE OR COMCOM.OB.LISTOUT.DATA) THEN
     1135    10702    3     DO;

     1136    10703
     1137    10704    4       DO WHILE LINE#_WAITING <= LINE#;

  10704 38 000670   200125 470500                    LDP0    @LINE#,,AUTO
        38 000671   000001 236000 37                 LDQ     LINE#_WAITING
        38 000672   000000 116100                    CMPQ    0,,PR0
PL6.E3A0      #006=Z9IL$PRINT_LO File=Z9IL.:Z8A6TSI                              SAT 08/09/97 14:04 Page:185
        38 000673   000744 605400 38                 TPNZ    s:10724

     1138    10705
     1139    10706    4         IF LINE#_WAITING = 0 THEN

  10706 38 000674   000001 235000 37                 LDA     LINE#_WAITING
        38 000675   000702 601000 38                 TNZ     s:10710

     1140    10707    4           CALL Z9IL$UNGMAP$SI$READ (LINE#_WAITING, LINE)

  10707 38 000676   000034 630400 39                 EPPR0   28
        38 000677   000000 631400 39                 EPPR1   0
        38 000700   000000 701000 xent               TSX1    Z9IL$UNGMAP$SI$READ
        38 000701   000746 702000 38                 TSX2    EOF_SOURCE_LAB

     1141    10708    4               ALTRET(EOF_SOURCE_LAB);
     1142    10709
     1143    10710    4         IF LINE#_WAITING <= LINE# THEN

  10710 38 000702   200125 470500                    LDP0    @LINE#,,AUTO
        38 000703   000001 236000 37                 LDQ     LINE#_WAITING
        38 000704   000000 116100                    CMPQ    0,,PR0
        38 000705   000740 605400 38                 TPNZ    s:10719

     1144    10711    5           DO;

     1145    10712    5             IF LAST_LINE_TYPE ~= %LLTSRC THEN

  10712 38 000706   200003 235100                    LDA     LAST_LINE_TYPE,,AUTO
        38 000707   000001 115007                    CMPA    1,DL
        38 000710   000723 600000 38                 TZE     s:10714

     1146    10713    5               CALL Z9IL$OUTPUT_TO_LO(ADDR(BLANK), LENGTHC(BLANK));

  10713 38 000711   000006 236000 39                 LDQ     6
        38 000712   200150 756100                    STQ     SYM_TRUNC+1,,AUTO
        38 000713   000012 236000 39                 LDQ     10
PL6.E3A0      #006=Z9IL$PRINT_LO File=Z9IL.:Z8A6TSI                              SAT 08/09/97 14:04 Page:186
        38 000714   200153 756100                    STQ     SYM_TRUNC+4,,AUTO
        38 000715   200150 631500                    EPPR1   SYM_TRUNC+1,,AUTO
        38 000716   200152 451500                    STP1    SYM_TRUNC+3,,AUTO
        38 000717   200152 630500                    EPPR0   SYM_TRUNC+3,,AUTO
        38 000720   000000 631400 39                 EPPR1   0
        38 000721   000000 701000 xent               TSX1    Z9IL$OUTPUT_TO_LO
        38 000722   000000 011000                    NOP     0

     1147    10714    5             CALL Z9IL$OUTPUT_TO_LO(ADDR(LINE.WAITING), %MAX_LISTING_LINE_LENGTH);

  10714 38 000723   000036 236000 39                 LDQ     30
        38 000724   200150 756100                    STQ     SYM_TRUNC+1,,AUTO
        38 000725   000003 236000 39                 LDQ     3
        38 000726   200153 756100                    STQ     SYM_TRUNC+4,,AUTO
        38 000727   200150 630500                    EPPR0   SYM_TRUNC+1,,AUTO
        38 000730   200152 450500                    STP0    SYM_TRUNC+3,,AUTO
        38 000731   200152 630500                    EPPR0   SYM_TRUNC+3,,AUTO
        38 000732   000000 631400 39                 EPPR1   0
        38 000733   000000 701000 xent               TSX1    Z9IL$OUTPUT_TO_LO
        38 000734   000000 011000                    NOP     0

     1148    10715    5             LAST_LINE_TYPE = %LLTSRC;

  10715 38 000735   000001 235007                    LDA     1,DL
        38 000736   200003 755100                    STA     LAST_LINE_TYPE,,AUTO

     1149    10716    5             LINE#_WAITING = 0;

  10716 38 000737   000001 450000 37                 STZ     LINE#_WAITING

     1150    10717    5           END;

     1151    10718
     1152    10719    4       END;

  10719 38 000740   200125 470500                    LDP0    @LINE#,,AUTO
        38 000741   000001 236000 37                 LDQ     LINE#_WAITING
PL6.E3A0      #006=Z9IL$PRINT_LO File=Z9IL.:Z8A6TSI                              SAT 08/09/97 14:04 Page:187
        38 000742   000000 116100                    CMPQ    0,,PR0
        38 000743   000674 604400 38                 TMOZ    s:10706

     1153    10720
     1154    10721
     1155    10722    3     END;

     1156    10723
     1157    10724    2   RETURN;

  10724 38 000744   200124 221300                    LDX1  ! LOCAL_OBJ_WORD+2,,AUTO
        38 000745   000001 702211                    TSX2  ! 1,X1

     1158    10725
     1159    10726    2   EOF_SOURCE_LAB:
     1160    10727    2     EOF_SOURCE = '1'B;

  10727 38 000746   400000 236003       EOF_SOURCE_* LDQ     -131072,DU
        38 000747   000000 756000 37                 STQ     EOF_SOURCE

     1161    10728
     1162    10729    2   END MERGE_SOURCE;

  10729 38 000750   200124 221300                    LDX1  ! LOCAL_OBJ_WORD+2,,AUTO
        38 000751   000001 702211                    TSX2  ! 1,X1

     1163    10730        %EJECT;
PL6.E3A0      #006=Z9IL$PRINT_LO File=Z9IL.:Z8A6TSI                              SAT 08/09/97 14:04 Page:188
     1164    10731    1   VARFLD: PROC(PRBIT,P_TAG);

  10731 38 000752   200134 741300       VARFLD       STX1  ! @SECT_PTR+1,,AUTO
        38 000753   001167 710000 38                 TRA     s:10827

     1165    10732
     1166    10733    2   DCL PRBIT              BIT(1) ALIGNED;
     1167    10734    2   DCL P_TAG              UBIN ALIGNED;
     1168    10735
     1169    10736    2   DCL TAG_MINUS_64       UBIN HALF;
     1170    10737    2   DCL TEXT6              CHAR(6);
     1171    10738    2   DCL TEMP_SBIN          SBIN;
     1172    10739    2   DCL TEMP_SBIN_2        SBIN;
     1173    10740    2   DCL SYMBOLIC_OPERAND   BIT(1);
     1174    10741    2   DCL PTRREG             UBIN;
     1175    10742    2   DCL PTRREGS(0:7)       CHAR(5) CONSTANT INIT
     1176    10743    2   (',PR0',',PR1',',PR2',',PR3',',PR4',',PR5',',PR6',',PR7'
     1177    10744    2   );
     1178    10745        %EJECT;
PL6.E3A0      #006=Z9IL$PRINT_LO File=Z9IL.:Z8A6TSI                              SAT 08/09/97 14:04 Page:189
     1179    10746    2   ADD_SYMBOLIC_OPERAND : PROC;

  10746 38 000754   200146 741300       ADD_SYMBOLI* STX1  ! PTRREG+1,,AUTO

     1180    10747
     1181    10748    3   DCL SYM_TRUNC BIT(1);
     1182    10749
     1183    10750
     1184    10751    3     SYM_TRUNC = '0'B;

  10751 38 000755   200147 450100                    STZ     SYM_TRUNC,,AUTO

     1185    10752    4     DO CASE (OBJ_WORD.ST$ -> ST.ID);

  10752 38 000756   000000 470400 12                 LDP0    OBJ$
        38 000757   000002 471500                    LDP1    2,,PR0
        38 000760   100000 236100                    LDQ     0,,PR1
        38 000761   000022 772000                    QRL     18
        38 000762   000767 136007                    SBLQ    503,DL
        38 000763   000012 116007                    CMPQ    10,DL
        38 000764   000766 602006 38                 TNC     s:10752+8,QL
        38 000765   001012 710000 38                 TRA     s:10765
        38 000766   001000 710000 38                 TRA     s:10757
        38 000767   001012 710000 38                 TRA     s:10765
        38 000770   001012 710000 38                 TRA     s:10765
        38 000771   001000 710000 38                 TRA     s:10757
        38 000772   001000 710000 38                 TRA     s:10757
        38 000773   001000 710000 38                 TRA     s:10757
        38 000774   001012 710000 38                 TRA     s:10765
        38 000775   001012 710000 38                 TRA     s:10765
        38 000776   001012 710000 38                 TRA     s:10765
        38 000777   001000 710000 38                 TRA     s:10757

     1186    10753
     1187    10754    4       CASE (%CONST, %SYMREF_, %SYMDEF_, %BLOCK, %SEGMENT);

     1188    10755              %APP_VAR_FLD(S="'='");
PL6.E3A0      #006=Z9IL$PRINT_LO File=Z9IL.:Z8A6TSI                              SAT 08/09/97 14:04 Page:190

  10757 38 001000   000001 235007                    LDA     1,DL
        38 001001   200050 755100                    STA     VARFLD#,,AUTO

  10758 38 001002   200047 473500                    LDP3    VARFLD$,,AUTO
        38 001003   000000 620005                    EAX0    0,AL
        38 001004   040140 100400                    MLR     fill='040'O
        38 001005   000037 000001 39                 ADSC9   31                       cn=0,n=1
        38 001006   300000 000010                    ADSC9   0,,PR3                   cn=0,n=*X0

  10759 38 001007   200047 236100                    LDQ     VARFLD$,,AUTO
        38 001010   200000 036007                    ADLQ    65536,DL
        38 001011   200047 756100                    STQ     VARFLD$,,AUTO

     1189    10762
     1190    10763    4     END;  /* CASE */

     1191    10764
     1192    10765    3     VARFLD# = OBJ_WORD.ST$ -> ST.DNT$ -> DNT.TEXT.LENGTH;

  10765 38 001012   000000 470400 12                 LDP0    OBJ$
        38 001013   000002 471500                    LDP1    2,,PR0
        38 001014   100006 473500                    LDP3    6,,PR1
        38 001015   300004 236100                    LDQ     4,,PR3
        38 001016   000022 772000                    QRL     18
        38 001017   200050 756100                    STQ     VARFLD#,,AUTO

     1193    10766    3     IF LISTLINE.INST1.EISF = ' ' THEN

  10766 38 001020   040000 106500                    CMPC    fill='040'O
        38 001021   200030 600031                    ADSC9   TEXTBUF+20,,AUTO         cn=3,n=25
        38 001022   000004 000001 39                 ADSC9   4                        cn=0,n=1
        38 001023   001033 601000 38                 TNZ     s:10776

     1194    10767    4       DO;

     1195    10768    4         IF VARFLD# > 30 THEN
PL6.E3A0      #006=Z9IL$PRINT_LO File=Z9IL.:Z8A6TSI                              SAT 08/09/97 14:04 Page:191

  10768 38 001024   000036 116007                    CMPQ    30,DL
        38 001025   001041 604400 38                 TMOZ    s:10782

     1196    10769    5           DO;

     1197    10770    5             VARFLD# = 25;

  10770 38 001026   000031 235007                    LDA     25,DL
        38 001027   200050 755100                    STA     VARFLD#,,AUTO

     1198    10771    5             SYM_TRUNC = '1'B;

  10771 38 001030   400000 236003                    LDQ     -131072,DU
        38 001031   200147 756100                    STQ     SYM_TRUNC,,AUTO

     1199    10772    5           END;

     1200    10773    4       END;

  10773 38 001032   001041 710000 38                 TRA     s:10782

     1201    10774    3     ELSE
     1202    10775    4       DO;

     1203    10776    4         IF VARFLD# > 12 THEN

  10776 38 001033   000014 116007                    CMPQ    12,DL
        38 001034   001041 604400 38                 TMOZ    s:10782

     1204    10777    5           DO;

     1205    10778    5             VARFLD# = 7;

  10778 38 001035   000007 235007                    LDA     7,DL
        38 001036   200050 755100                    STA     VARFLD#,,AUTO

PL6.E3A0      #006=Z9IL$PRINT_LO File=Z9IL.:Z8A6TSI                              SAT 08/09/97 14:04 Page:192
     1206    10779    5             SYM_TRUNC = '1'B;

  10779 38 001037   400000 236003                    LDQ     -131072,DU
        38 001040   200147 756100                    STQ     SYM_TRUNC,,AUTO

     1207    10780    5           END;

     1208    10781    4       END;

     1209    10782    3     VARFLDTX = OBJ_WORD.ST$ -> ST.DNT$ -> DNT.TEXT.NAME;

  10782 38 001041   300004 220100                    LDX0    4,,PR3
        38 001042   200047 474500                    LDP4    VARFLD$,,AUTO
        38 001043   200050 721100                    LXL1    VARFLD#,,AUTO
        38 001044   040140 100540                    MLR     fill='040'O
        38 001045   300004 400010                    ADSC9   4,,PR3                   cn=2,n=*X0
        38 001046   400000 000011                    ADSC9   0,,PR4                   cn=0,n=*X1

     1210    10783    3     VARFLD$ = PINCRC(VARFLD$, VARFLD#);

  10783 38 001047   200050 236100                    LDQ     VARFLD#,,AUTO
        38 001050   000020 736000                    QLS     16
        38 001051   200047 036100                    ADLQ    VARFLD$,,AUTO
        38 001052   200047 756100                    STQ     VARFLD$,,AUTO

     1211    10784
     1212    10785    3     IF SYM_TRUNC THEN

  10785 38 001053   200147 234100                    SZN     SYM_TRUNC,,AUTO
        38 001054   001110 605000 38                 TPL     s:10801

     1213    10786    4       DO;

     1214    10787              %APP_VAR_FLD(S="'...'");

  10789 38 001055   000003 235007                    LDA     3,DL
        38 001056   200050 755100                    STA     VARFLD#,,AUTO
PL6.E3A0      #006=Z9IL$PRINT_LO File=Z9IL.:Z8A6TSI                              SAT 08/09/97 14:04 Page:193

  10790 38 001057   200047 470500                    LDP0    VARFLD$,,AUTO
        38 001060   000000 620005                    EAX0    0,AL
        38 001061   040140 100400                    MLR     fill='040'O
        38 001062   003006 000003 33                 ADSC9   PTRREGS+32               cn=0,n=3
        38 001063   000000 000010                    ADSC9   0,,PR0                   cn=0,n=*X0

  10791 38 001064   200047 236100                    LDQ     VARFLD$,,AUTO
        38 001065   600000 036007                    ADLQ    -65536,DL
        38 001066   200047 756100                    STQ     VARFLD$,,AUTO

     1215    10794    4         VARFLD# =     2;

  10794 38 001067   000002 235007                    LDA     2,DL
        38 001070   200050 755100                    STA     VARFLD#,,AUTO

     1216    10795    4         VARFLDTX = SUBSTR(OBJ_WORD.ST$ -> ST.DNT$ -> DNT.TEXT.NAME,

  10795 38 001071   000000 470400 12                 LDP0    OBJ$
        38 001072   000002 471500                    LDP1    2,,PR0
        38 001073   100006 473500                    LDP3    6,,PR1
        38 001074   300004 220100                    LDX0    4,,PR3
        38 001075   300004 236100                    LDQ     4,,PR3
        38 001076   000022 772000                    QRL     18
        38 001077   200047 474500                    LDP4    VARFLD$,,AUTO
        38 001100   000000 621005                    EAX1    0,AL
        38 001101   040140 100506                    MLR     fill='040'O
        38 001102   300004 000002                    ADSC9   4,Q,PR3                  cn=0,n=2
        38 001103   400000 000011                    ADSC9   0,,PR4                   cn=0,n=*X1

     1217    10796    4                           OBJ_WORD.ST$ -> ST.DNT$ -> DNT.TEXT.LENGTH - 2,
     1218    10797    4                           2);
     1219    10798    4         VARFLD$ = PINCRC(VARFLD$, VARFLD#);

  10798 38 001104   200050 236100                    LDQ     VARFLD#,,AUTO
        38 001105   000020 736000                    QLS     16
        38 001106   200047 036100                    ADLQ    VARFLD$,,AUTO
PL6.E3A0      #006=Z9IL$PRINT_LO File=Z9IL.:Z8A6TSI                              SAT 08/09/97 14:04 Page:194
        38 001107   200047 756100                    STQ     VARFLD$,,AUTO

     1220    10799    4       END;

     1221    10800
     1222    10801    3     IF (OBJ_WORD.ST$ -> ST.ID = %BLOCK

  10801 38 001110   000000 470400 12                 LDP0    OBJ$
        38 001111   000002 471500                    LDP1    2,,PR0
        38 001112   100000 220100                    LDX0    0,,PR1
        38 001113   000774 100003                    CMPX0   508,DU
        38 001114   001117 600000 38                 TZE     s:10801+7
        38 001115   001000 100003                    CMPX0   512,DU
        38 001116   001165 601000 38                 TNZ     s:10823
        38 001117   200142 235100                    LDA     TEMP_SBIN,,AUTO
        38 001120   001165 604400 38                 TMOZ    s:10823

     1223    10802    3              OR OBJ_WORD.ST$ -> ST.ID = %SEGMENT)
     1224    10803    3         AND TEMP_SBIN > 0 THEN
     1225    10804    4       DO;

     1226    10805              %APP_VAR_FLD(S="'+'");

  10807 38 001121   000001 235007                    LDA     1,DL
        38 001122   200050 755100                    STA     VARFLD#,,AUTO

  10808 38 001123   200047 473500                    LDP3    VARFLD$,,AUTO
        38 001124   000000 621005                    EAX1    0,AL
        38 001125   040140 100400                    MLR     fill='040'O
        38 001126   000040 000001 39                 ADSC9   32                       cn=0,n=1
        38 001127   300000 000011                    ADSC9   0,,PR3                   cn=0,n=*X1

  10809 38 001130   200047 236100                    LDQ     VARFLD$,,AUTO
        38 001131   200000 036007                    ADLQ    65536,DL
        38 001132   200047 756100                    STQ     VARFLD$,,AUTO

     1227    10812    4         CALL Z8IU$CONVERT_DEC_LEFT(VARFLDTX, TEMP_SBIN*16, 6, VARFLD$);
PL6.E3A0      #006=Z9IL$PRINT_LO File=Z9IL.:Z8A6TSI                              SAT 08/09/97 14:04 Page:195

  10812 38 001133   200142 235100                    LDA     TEMP_SBIN,,AUTO
        38 001134   000004 735000                    ALS     4
        38 001135   200150 755100                    STA     SYM_TRUNC+1,,AUTO
        38 001136   200047 630500                    EPPR0   VARFLD$,,AUTO
        38 001137   200155 450500                    STP0    SYM_TRUNC+6,,AUTO
        38 001140   000043 236000 39                 LDQ     35
        38 001141   200154 756100                    STQ     SYM_TRUNC+5,,AUTO
        38 001142   200150 631500                    EPPR1   SYM_TRUNC+1,,AUTO
        38 001143   200153 451500                    STP1    SYM_TRUNC+4,,AUTO
        38 001144   200047 236100                    LDQ     VARFLD$,,AUTO
        38 001145   200152 756100                    STQ     SYM_TRUNC+3,,AUTO
        38 001146   200152 630500                    EPPR0   SYM_TRUNC+3,,AUTO
        38 001147   000041 631400 39                 EPPR1   33
        38 001150   000000 701000 xent               TSX1    Z8IU$CONVERT_DEC_LEFT
        38 001151   000000 011000                    NOP     0

     1228    10813              %APP_VAR_FLD(S="'K'");

  10815 38 001152   000001 235007                    LDA     1,DL
        38 001153   200050 755100                    STA     VARFLD#,,AUTO

  10816 38 001154   200047 470500                    LDP0    VARFLD$,,AUTO
        38 001155   000000 620005                    EAX0    0,AL
        38 001156   040140 100400                    MLR     fill='040'O
        38 001157   000044 000001 39                 ADSC9   36                       cn=0,n=1
        38 001160   000000 000010                    ADSC9   0,,PR0                   cn=0,n=*X0

  10817 38 001161   200047 236100                    LDQ     VARFLD$,,AUTO
        38 001162   200000 036007                    ADLQ    65536,DL
        38 001163   200047 756100                    STQ     VARFLD$,,AUTO

     1229    10820    4         TEMP_SBIN = 0;

  10820 38 001164   200142 450100                    STZ     TEMP_SBIN,,AUTO

     1230    10821    4       END;
PL6.E3A0      #006=Z9IL$PRINT_LO File=Z9IL.:Z8A6TSI                              SAT 08/09/97 14:04 Page:196

     1231    10822
     1232    10823    3   END ADD_SYMBOLIC_OPERAND;

  10823 38 001165   200146 221300                    LDX1  ! PTRREG+1,,AUTO
        38 001166   000001 702211                    TSX2  ! 1,X1

     1233    10824        %EJECT;
PL6.E3A0      #006=Z9IL$PRINT_LO File=Z9IL.:Z8A6TSI                              SAT 08/09/97 14:04 Page:197
     1234    10825                   /* Main body of VARFLD */
     1235    10826
     1236    10827    2           SYMBOLIC_OPERAND     = '0'B;

  10827 38 001167   200144 450100                    STZ     SYMBOLIC_OPERAND,,AUTO

     1237    10828    2           TEMP_SBIN            =LOC.LHX;

  10828 38 001170   200070 235100                    LDA     LOC,,AUTO
        38 001171   000022 731000                    ARS     18
        38 001172   200142 755100                    STA     TEMP_SBIN,,AUTO

     1238    10829    2           IF PRBIT OR P_TAG = 4 THEN

  10829 38 001173   200135 470500                    LDP0    @PRBIT,,AUTO
        38 001174   000000 234100                    SZN     0,,PR0
        38 001175   001202 604000 38                 TMI     s:10831
        38 001176   200136 471500                    LDP1    @P_TAG,,AUTO
        38 001177   100000 235100                    LDA     0,,PR1
        38 001200   000004 115007                    CMPA    4,DL
        38 001201   001310 601000 38                 TNZ     s:10865

     1239    10830    3             DO;

     1240    10831    3                IF PRBIT THEN

  10831 38 001202   000000 234100                    SZN     0,,PR0
        38 001203   001213 605000 38                 TPL     s:10837

     1241    10832    4                  DO;

     1242    10833    4                    PTRREG = LOC.LH.PR;

  10833 38 001204   200070 236100                    LDQ     LOC,,AUTO
        38 001205   000041 772000                    QRL     33
        38 001206   200145 756100                    STQ     PTRREG,,AUTO

PL6.E3A0      #006=Z9IL$PRINT_LO File=Z9IL.:Z8A6TSI                              SAT 08/09/97 14:04 Page:198
     1243    10834    4                    TEMP_SBIN = LOC.LH.OFFSET;

  10834 38 001207   200070 236100                    LDQ     LOC,,AUTO
        38 001210   000003 736000                    QLS     3
        38 001211   000025 732000                    QRS     21
        38 001212   200142 756100                    STQ     TEMP_SBIN,,AUTO

     1244    10835    4                  END;

     1245    10836
     1246    10837    3                IF P_TAG = 4 AND LISTLINE.INST1.LF = ' ' THEN

  10837 38 001213   200136 471500                    LDP1    @P_TAG,,AUTO
        38 001214   100000 235100                    LDA     0,,PR1
        38 001215   000004 115007                    CMPA    4,DL
        38 001216   001310 601000 38                 TNZ     s:10865
        38 001217   040000 106500                    CMPC    fill='040'O
        38 001220   200015 200014                    ADSC9   TEXTBUF+9,,AUTO          cn=1,n=12
        38 001221   000004 000001 39                 ADSC9   4                        cn=0,n=1
        38 001222   001310 601000 38                 TNZ     s:10865

     1247    10838    4                  DO;

     1248    10839    4                    TEMP_PTR = VARFLD$;

  10839 38 001223   200047 236100                    LDQ     VARFLD$,,AUTO
        38 001224   200063 756100                    STQ     TEMP_PTR,,AUTO

     1249    10840    4                    VARFLD$ = ADDR(LISTLINE.INST1.LF);

  10840 38 001225   200150 452500                    STP2    SYM_TRUNC+1,,AUTO
        38 001226   200150 236100                    LDQ     SYM_TRUNC+1,,AUTO
        38 001227   000045 036000 39                 ADLQ    37
        38 001230   200047 756100                    STQ     VARFLD$,,AUTO

     1250    10841                         %APP_VAR_FLD(S="'(off='");

PL6.E3A0      #006=Z9IL$PRINT_LO File=Z9IL.:Z8A6TSI                              SAT 08/09/97 14:04 Page:199
  10843 38 001231   000005 235007                    LDA     5,DL
        38 001232   200050 755100                    STA     VARFLD#,,AUTO

  10844 38 001233   200047 473500                    LDP3    VARFLD$,,AUTO
        38 001234   000000 620005                    EAX0    0,AL
        38 001235   040140 100400                    MLR     fill='040'O
        38 001236   003007 000005 33                 ADSC9   PTRREGS+33               cn=0,n=5
        38 001237   300000 000010                    ADSC9   0,,PR3                   cn=0,n=*X0

  10845 38 001240   200047 236100                    LDQ     VARFLD$,,AUTO
        38 001241   000046 036000 39                 ADLQ    38
        38 001242   200047 756100                    STQ     VARFLD$,,AUTO

     1251    10848    4                    TEMP_SBIN_2 = TEMP_SBIN + OBJ_WORD.OFFSET - EIS_BUFFER_LEN;

  10848 38 001243   000000 473400 12                 LDP3    OBJ$
        38 001244   200142 236100                    LDQ     TEMP_SBIN,,AUTO
        38 001245   300001 036100                    ADLQ    1,,PR3
        38 001246   200101 136100                    SBLQ    EIS_BUFFER_LEN,,AUTO
        38 001247   200143 756100                    STQ     TEMP_SBIN_2,,AUTO

     1252    10849    4                    IF DESC_TYPE = FOLLOW_WD THEN

  10849 38 001250   200044 235100                    LDA     DESC_TYPE,,AUTO
        38 001251   000002 115007                    CMPA    2,DL
        38 001252   001261 601000 38                 TNZ     s:10851

     1253    10850    4                      TEMP_SBIN_2 = TEMP_SBIN_2 - OBJ_WORD.INST.LONGY;

  10850 38 001253   300003 236100                    LDQ     3,,PR3
        38 001254   000022 772000                    QRL     18
        38 001255   200150 756100                    STQ     SYM_TRUNC+1,,AUTO
        38 001256   200143 236100                    LDQ     TEMP_SBIN_2,,AUTO
        38 001257   200150 136100                    SBLQ    SYM_TRUNC+1,,AUTO
        38 001260   200143 756100                    STQ     TEMP_SBIN_2,,AUTO

     1254    10851    4                    CALL Z8IU$CONVERT_OCTAL(VARFLDTXT,
PL6.E3A0      #006=Z9IL$PRINT_LO File=Z9IL.:Z8A6TSI                              SAT 08/09/97 14:04 Page:200

  10851 38 001261   200143 634500                    EPPR4   TEMP_SBIN_2,,AUTO
        38 001262   200151 454500                    STP4    SYM_TRUNC+2,,AUTO
        38 001263   200047 236100                    LDQ     VARFLD$,,AUTO
        38 001264   200150 756100                    STQ     SYM_TRUNC+1,,AUTO
        38 001265   200150 630500                    EPPR0   SYM_TRUNC+1,,AUTO
        38 001266   000000 631400 39                 EPPR1   0
        38 001267   000000 701000 xent               TSX1    Z8IU$CONVERT_OCTAL
        38 001270   000000 011000                    NOP     0

     1255    10852    4                       BINBIT(TEMP_SBIN_2, 36));
     1256    10853    4                    VARFLD$ = PINCRC(VARFLD$, 6);

  10853 38 001271   200047 236100                    LDQ     VARFLD$,,AUTO
        38 001272   000047 036000 39                 ADLQ    39
        38 001273   200047 756100                    STQ     VARFLD$,,AUTO

     1257    10854                         %APP_VAR_FLD(S="')'");

  10856 38 001274   000001 235007                    LDA     1,DL
        38 001275   200050 755100                    STA     VARFLD#,,AUTO

  10857 38 001276   200047 470500                    LDP0    VARFLD$,,AUTO
        38 001277   000000 620005                    EAX0    0,AL
        38 001300   040140 100400                    MLR     fill='040'O
        38 001301   000050 000001 39                 ADSC9   40                       cn=0,n=1
        38 001302   000000 000010                    ADSC9   0,,PR0                   cn=0,n=*X0

  10858 38 001303   200047 236100                    LDQ     VARFLD$,,AUTO
        38 001304   200000 036007                    ADLQ    65536,DL
        38 001305   200047 756100                    STQ     VARFLD$,,AUTO

     1258    10861    4                    VARFLD$ = TEMP_PTR;

  10861 38 001306   200063 236100                    LDQ     TEMP_PTR,,AUTO
        38 001307   200047 756100                    STQ     VARFLD$,,AUTO

PL6.E3A0      #006=Z9IL$PRINT_LO File=Z9IL.:Z8A6TSI                              SAT 08/09/97 14:04 Page:201
     1259    10862    4                  END;

     1260    10863    3             END;

     1261    10864
     1262    10865    2            IF OBJ_WORD.ST$ ~= ADDR(NIL) THEN

  10865 38 001310   000000 470400 12                 LDP0    OBJ$
        38 001311   000002 236100                    LDQ     2,,PR0
        38 001312   000021 116000 39                 CMPQ    17
        38 001313   001342 600000 38                 TZE     s:10875

     1263    10866    2              IF OBJ_WORD.ST$ -> ST.DNT$ ~= ADDR(NIL) THEN

  10866 38 001314   000002 471500                    LDP1    2,,PR0
        38 001315   100006 236100                    LDQ     6,,PR1
        38 001316   000021 116000 39                 CMPQ    17
        38 001317   001342 600000 38                 TZE     s:10875

     1264    10867    3                DO;

     1265    10868    3                  TEMP_SBIN = TEMP_SBIN - MOD(OBJ_WORD.ST$ -> ST.SA, 16384);

  10868 38 001320   100001 236100                    LDQ     1,,PR1
        38 001321   000022 772000                    QRL     18
        38 001322   037777 376007                    ANQ     16383,DL
        38 001323   200150 756100                    STQ     SYM_TRUNC+1,,AUTO
        38 001324   200142 236100                    LDQ     TEMP_SBIN,,AUTO
        38 001325   200150 136100                    SBLQ    SYM_TRUNC+1,,AUTO
        38 001326   200142 756100                    STQ     TEMP_SBIN,,AUTO

     1266    10869    3                  IF P_TAG = 4 THEN

  10869 38 001327   200136 471500                    LDP1    @P_TAG,,AUTO
        38 001330   100000 235100                    LDA     0,,PR1
        38 001331   000004 115007                    CMPA    4,DL
        38 001332   001336 601000 38                 TNZ     s:10871
PL6.E3A0      #006=Z9IL$PRINT_LO File=Z9IL.:Z8A6TSI                              SAT 08/09/97 14:04 Page:202

     1267    10870    3                    TEMP_SBIN = TEMP_SBIN + OBJ_WORD.OFFSET - EIS_BUFFER_LEN;

  10870 38 001333   000001 036100                    ADLQ    1,,PR0
        38 001334   200101 136100                    SBLQ    EIS_BUFFER_LEN,,AUTO
        38 001335   200142 756100                    STQ     TEMP_SBIN,,AUTO

     1268    10871    3                  CALL ADD_SYMBOLIC_OPERAND;

  10871 38 001336   000754 701000 38                 TSX1    ADD_SYMBOLIC_OPERAND
        38 001337   000000 011000                    NOP     0

     1269    10872    3                  SYMBOLIC_OPERAND = '1'B;

  10872 38 001340   400000 236003                    LDQ     -131072,DU
        38 001341   200144 756100                    STQ     SYMBOLIC_OPERAND,,AUTO

     1270    10873    3                END;

     1271    10874
     1272    10875    2           IF TEMP_SBIN < 0 THEN

  10875 38 001342   200142 235100                    LDA     TEMP_SBIN,,AUTO
        38 001343   001375 605000 38                 TPL     s:10890

     1273    10876    3             DO;

     1274    10877                    %APP_VAR_FLD(S="' - '");

  10879 38 001344   000003 236007                    LDQ     3,DL
        38 001345   200050 756100                    STQ     VARFLD#,,AUTO

  10880 38 001346   200047 470500                    LDP0    VARFLD$,,AUTO
        38 001347   000000 620006                    EAX0    0,QL
        38 001350   040140 100400                    MLR     fill='040'O
        38 001351   003011 000003 33                 ADSC9   PTRREGS+35               cn=0,n=3
        38 001352   000000 000010                    ADSC9   0,,PR0                   cn=0,n=*X0
PL6.E3A0      #006=Z9IL$PRINT_LO File=Z9IL.:Z8A6TSI                              SAT 08/09/97 14:04 Page:203

  10881 38 001353   200047 236100                    LDQ     VARFLD$,,AUTO
        38 001354   600000 036007                    ADLQ    -65536,DL
        38 001355   200047 756100                    STQ     VARFLD$,,AUTO

     1275    10884    3               CALL Z8IU$CONVERT_DEC_LEFT(VARFLDTXT,

  10884 38 001356   200142 335100                    LCA     TEMP_SBIN,,AUTO
        38 001357   200150 755100                    STA     SYM_TRUNC+1,,AUTO
        38 001360   200047 630500                    EPPR0   VARFLD$,,AUTO
        38 001361   200155 450500                    STP0    SYM_TRUNC+6,,AUTO
        38 001362   000043 236000 39                 LDQ     35
        38 001363   200154 756100                    STQ     SYM_TRUNC+5,,AUTO
        38 001364   200150 631500                    EPPR1   SYM_TRUNC+1,,AUTO
        38 001365   200153 451500                    STP1    SYM_TRUNC+4,,AUTO
        38 001366   200047 236100                    LDQ     VARFLD$,,AUTO
        38 001367   200152 756100                    STQ     SYM_TRUNC+3,,AUTO
        38 001370   200152 630500                    EPPR0   SYM_TRUNC+3,,AUTO
        38 001371   000041 631400 39                 EPPR1   33
        38 001372   000000 701000 xent               TSX1    Z8IU$CONVERT_DEC_LEFT
        38 001373   000000 011000                    NOP     0

     1276    10885    3                                          - TEMP_SBIN,
     1277    10886    3                                          6,
     1278    10887    3                                          VARFLD$);
     1279    10888    3             END;

  10888 38 001374   001447 710000 38                 TRA     s:10913

     1280    10889    2           ELSE
     1281    10890    2             IF VARFLD$=ADDR(LISTLINE.INST1.VF)  THEN

  10890 38 001375   200150 452500                    STP2    SYM_TRUNC+1,,AUTO
        38 001376   200150 236100                    LDQ     SYM_TRUNC+1,,AUTO
        38 001377   000051 036000 39                 ADLQ    41
        38 001400   200047 116100                    CMPQ    VARFLD$,,AUTO
        38 001401   001417 601000 38                 TNZ     s:10897
PL6.E3A0      #006=Z9IL$PRINT_LO File=Z9IL.:Z8A6TSI                              SAT 08/09/97 14:04 Page:204

     1282    10891                                                  /*
     1283    10892                                                  Always call print it if negative or
     1284    10893                                                  the first part of the operand.
     1285    10894                                                  */
     1286    10895    2                CALL Z8IU$CONVERT_DEC_LEFT(VARFLDTXT,TEMP_SBIN,6,VARFLD$);

  10895 38 001402   200047 630500                    EPPR0   VARFLD$,,AUTO
        38 001403   200153 450500                    STP0    SYM_TRUNC+4,,AUTO
        38 001404   000043 236000 39                 LDQ     35
        38 001405   200152 756100                    STQ     SYM_TRUNC+3,,AUTO
        38 001406   200142 631500                    EPPR1   TEMP_SBIN,,AUTO
        38 001407   200151 451500                    STP1    SYM_TRUNC+2,,AUTO
        38 001410   200047 236100                    LDQ     VARFLD$,,AUTO
        38 001411   200150 756100                    STQ     SYM_TRUNC+1,,AUTO
        38 001412   200150 630500                    EPPR0   SYM_TRUNC+1,,AUTO
        38 001413   000041 631400 39                 EPPR1   33
        38 001414   000000 701000 xent               TSX1    Z8IU$CONVERT_DEC_LEFT
        38 001415   000000 011000                    NOP     0
        38 001416   001447 710000 38                 TRA     s:10913

     1287    10896    2             ELSE
     1288    10897    2                IF TEMP_SBIN>0 THEN

  10897 38 001417   000000 115003                    CMPA    0,DU
        38 001420   001447 604400 38                 TMOZ    s:10913

     1289    10898                                                  /*
     1290    10899                                                  If not first put in leading
     1291    10900                                                  plus sign
     1292    10901                                                  */
     1293    10902    3                  DO;

     1294    10903                          %APP_VAR_FLD(S="'+'");

  10905 38 001421   000001 235007                    LDA     1,DL
        38 001422   200050 755100                    STA     VARFLD#,,AUTO
PL6.E3A0      #006=Z9IL$PRINT_LO File=Z9IL.:Z8A6TSI                              SAT 08/09/97 14:04 Page:205

  10906 38 001423   200047 470500                    LDP0    VARFLD$,,AUTO
        38 001424   000000 620005                    EAX0    0,AL
        38 001425   040140 100400                    MLR     fill='040'O
        38 001426   000040 000001 39                 ADSC9   32                       cn=0,n=1
        38 001427   000000 000010                    ADSC9   0,,PR0                   cn=0,n=*X0

  10907 38 001430   200047 236100                    LDQ     VARFLD$,,AUTO
        38 001431   200000 036007                    ADLQ    65536,DL
        38 001432   200047 756100                    STQ     VARFLD$,,AUTO

     1295    10910    3                     CALL Z8IU$CONVERT_DEC_LEFT(VARFLDTXT,TEMP_SBIN,6,VARFLD$);

  10910 38 001433   200047 630500                    EPPR0   VARFLD$,,AUTO
        38 001434   200153 450500                    STP0    SYM_TRUNC+4,,AUTO
        38 001435   000043 236000 39                 LDQ     35
        38 001436   200152 756100                    STQ     SYM_TRUNC+3,,AUTO
        38 001437   200142 631500                    EPPR1   TEMP_SBIN,,AUTO
        38 001440   200151 451500                    STP1    SYM_TRUNC+2,,AUTO
        38 001441   200047 236100                    LDQ     VARFLD$,,AUTO
        38 001442   200150 756100                    STQ     SYM_TRUNC+1,,AUTO
        38 001443   200150 630500                    EPPR0   SYM_TRUNC+1,,AUTO
        38 001444   000041 631400 39                 EPPR1   33
        38 001445   000000 701000 xent               TSX1    Z8IU$CONVERT_DEC_LEFT
        38 001446   000000 011000                    NOP     0

     1296    10911    3                     END;

     1297    10912
     1298    10913    2           IF PRBIT OR P_TAG~=0 THEN

  10913 38 001447   200135 470500                    LDP0    @PRBIT,,AUTO
        38 001450   000000 234100                    SZN     0,,PR0
        38 001451   001455 604000 38                 TMI     s:10915
        38 001452   200136 471500                    LDP1    @P_TAG,,AUTO
        38 001453   100000 235100                    LDA     0,,PR1
        38 001454   001572 600000 38                 TZE     s:10946
PL6.E3A0      #006=Z9IL$PRINT_LO File=Z9IL.:Z8A6TSI                              SAT 08/09/97 14:04 Page:206

     1299    10914    3             DO;

     1300    10915    3                IF P_TAG>64 THEN

  10915 38 001455   200136 471500                    LDP1    @P_TAG,,AUTO
        38 001456   100000 235100                    LDA     0,,PR1
        38 001457   000101 115007                    CMPA    65,DL
        38 001460   001517 602000 38                 TNC     s:10923

     1301    10916    4                  DO;

     1302    10917    4                     TAG_MINUS_64=P_TAG-64;

  10917 38 001461   100000 720100                    LXL0    0,,PR1
        38 001462   777700 621010                    EAX1    -64,X0
        38 001463   200137 741100                    STX1    TAG_MINUS_64,,AUTO

     1303    10918    4                     CALL Z8IU$CONVERT_OCTAL(TEXT6,BINBIT(TAG_MINUS_64,36));

  10918 38 001464   200137 236100                    LDQ     TAG_MINUS_64,,AUTO
        38 001465   000022 772000                    QRL     18
        38 001466   200150 756100                    STQ     SYM_TRUNC+1,,AUTO
        38 001467   200150 633500                    EPPR3   SYM_TRUNC+1,,AUTO
        38 001470   200153 453500                    STP3    SYM_TRUNC+4,,AUTO
        38 001471   200140 634500                    EPPR4   TEXT6,,AUTO
        38 001472   200152 454500                    STP4    SYM_TRUNC+3,,AUTO
        38 001473   200152 630500                    EPPR0   SYM_TRUNC+3,,AUTO
        38 001474   000000 631400 39                 EPPR1   0
        38 001475   000000 701000 xent               TSX1    Z8IU$CONVERT_OCTAL
        38 001476   000000 011000                    NOP     0

     1304    10919    4                     CALL INSERT(VARFLDTX,0,6,',''',SUBSTR(TEXT6,4,2),'''O');

  10919 38 001477   200047 470500                    LDP0    VARFLD$,,AUTO
        38 001500   040100 100400                    MLR     fill='040'O
        38 001501   003012 000002 33                 ADSC9   PTRREGS+36               cn=0,n=2
PL6.E3A0      #006=Z9IL$PRINT_LO File=Z9IL.:Z8A6TSI                              SAT 08/09/97 14:04 Page:207
        38 001502   000000 000002                    ADSC9   0,,PR0                   cn=0,n=2
        38 001503   200047 470500                    LDP0    VARFLD$,,AUTO
        38 001504   040100 100500                    MLR     fill='040'O
        38 001505   200141 000002                    ADSC9   TEXT6+1,,AUTO            cn=0,n=2
        38 001506   000000 400002                    ADSC9   0,,PR0                   cn=2,n=2
        38 001507   200047 470500                    LDP0    VARFLD$,,AUTO
        38 001510   040100 100400                    MLR     fill='040'O
        38 001511   003013 000002 33                 ADSC9   PTRREGS+37               cn=0,n=2
        38 001512   000001 000002                    ADSC9   1,,PR0                   cn=0,n=2

     1305    10920    4                     VARFLD$=PINCRC(VARFLD$,6);

  10920 38 001513   200047 236100                    LDQ     VARFLD$,,AUTO
        38 001514   000047 036000 39                 ADLQ    39
        38 001515   200047 756100                    STQ     VARFLD$,,AUTO

     1306    10921    4                   END;

  10921 38 001516   001556 710000 38                 TRA     s:10939

     1307    10922    3                ELSE
     1308    10923    3                  IF P_TAG =4 AND SYMBOLIC_OPERAND THEN

  10923 38 001517   000004 115007                    CMPA    4,DL
        38 001520   001536 601000 38                 TNZ     s:10935
        38 001521   200144 234100                    SZN     SYMBOLIC_OPERAND,,AUTO
        38 001522   001536 605000 38                 TPL     s:10935

     1309    10924    4                    DO;

     1310    10925                           %APP_VAR_FLD(S="',$'");

  10927 38 001523   000002 236007                    LDQ     2,DL
        38 001524   200050 756100                    STQ     VARFLD#,,AUTO

  10928 38 001525   200047 473500                    LDP3    VARFLD$,,AUTO
        38 001526   000000 620006                    EAX0    0,QL
PL6.E3A0      #006=Z9IL$PRINT_LO File=Z9IL.:Z8A6TSI                              SAT 08/09/97 14:04 Page:208
        38 001527   040140 100400                    MLR     fill='040'O
        38 001530   003014 000002 33                 ADSC9   PTRREGS+38               cn=0,n=2
        38 001531   300000 000010                    ADSC9   0,,PR3                   cn=0,n=*X0

  10929 38 001532   200047 236100                    LDQ     VARFLD$,,AUTO
        38 001533   400000 036007                    ADLQ    -131072,DL
        38 001534   200047 756100                    STQ     VARFLD$,,AUTO

     1311    10932    4                    END;

  10932 38 001535   001556 710000 38                 TRA     s:10939

     1312    10933    3                  ELSE
     1313    10934    4                    DO;

     1314    10935    4                       VARFLDTXT=TAGS(P_TAG);

  10935 38 001536   100000 720100                    LXL0    0,,PR1
        38 001537   000000 636010                    EAQ     0,X0
        38 001540   000020 772000                    QRL     16
        38 001541   200047 473500                    LDP3    VARFLD$,,AUTO
        38 001542   040100 100406                    MLR     fill='040'O
        38 001543   002416 000004 33                 ADSC9   TAGS,Q                   cn=0,n=4
        38 001544   300000 000005                    ADSC9   0,,PR3                   cn=0,n=5

     1315    10936    4                       VARFLD$=PINCRC(VARFLD$,TAGSZ(P_TAG));

  10936 38 001545   100000 236100                    LDQ     0,,PR1
        38 001546   000003 402007                    MPY     3,DL
        38 001547   003100 061406                    CSR     bolr='003'O
        38 001550   002516 000003 33                 BDSC    TAGSZ,Q                  by=0,bit=0,n=3
        38 001551   200150 000044                    BDSC    SYM_TRUNC+1,,AUTO        by=0,bit=0,n=36
        38 001552   200150 236100                    LDQ     SYM_TRUNC+1,,AUTO
        38 001553   000020 736000                    QLS     16
        38 001554   200047 036100                    ADLQ    VARFLD$,,AUTO
        38 001555   200047 756100                    STQ     VARFLD$,,AUTO

PL6.E3A0      #006=Z9IL$PRINT_LO File=Z9IL.:Z8A6TSI                              SAT 08/09/97 14:04 Page:209
     1316    10937    4                       END;

     1317    10938
     1318    10939    3                IF PRBIT THEN

  10939 38 001556   200135 470500                    LDP0    @PRBIT,,AUTO
        38 001557   000000 234100                    SZN     0,,PR0
        38 001560   001572 605000 38                 TPL     s:10946

     1319    10940    4                  DO;

     1320    10941    4                     VARFLDTXT=PTRREGS(PTRREG);

  10941 38 001561   200145 236100                    LDQ     PTRREG,,AUTO
        38 001562   000005 402007                    MPY     5,DL
        38 001563   200047 471500                    LDP1    VARFLD$,,AUTO
        38 001564   040100 100406                    MLR     fill='040'O
        38 001565   002746 000005 33                 ADSC9   PTRREGS,Q                cn=0,n=5
        38 001566   100000 000005                    ADSC9   0,,PR1                   cn=0,n=5

     1321    10942    4                     VARFLD$=PINCRC(VARFLD$,SIZEC(PTRREGS(0)));

  10942 38 001567   200047 236100                    LDQ     VARFLD$,,AUTO
        38 001570   000046 036000 39                 ADLQ    38
        38 001571   200047 756100                    STQ     VARFLD$,,AUTO

     1322    10943    4                   END;

     1323    10944
     1324    10945    3                END;

     1325    10946    2           RETURN;

  10946 38 001572   200134 221300                    LDX1  ! @SECT_PTR+1,,AUTO
        38 001573   000001 702211                    TSX2  ! 1,X1

     1326    10947    2   END VARFLD;
PL6.E3A0      #006=Z9IL$PRINT_LO File=Z9IL.:Z8A6TSI                              SAT 08/09/97 14:04 Page:210
     1327    10948
     1328    10949        %EJECT;
PL6.E3A0      #006=Z9IL$PRINT_LO File=Z9IL.:Z8A6TSI                              SAT 08/09/97 14:04 Page:211
     1329    10950    1   TRN_DESC : PROC;

  10950 38 001574   200132 741300       TRN_DESC     STX1  ! @TYPE,,AUTO

     1330    10951
     1331    10952    2                FOLLOW#   = FOLLOW#-1;

  10952 38 001575   000001 336007                    LCQ     1,DL
        38 001576   200045 056100                    ASQ     FOLLOW#,,AUTO

     1332    10953    2                DESC_TYPE = MOD(FOLLOW,64);

  10953 38 001577   200043 236100                    LDQ     FOLLOW,,AUTO
        38 001600   000100 506007                    DIV     64,DL
        38 001601   200044 755100                    STA     DESC_TYPE,,AUTO

     1333    10954    2                FOLLOW    = FOLLOW/64;

  10954 38 001602   200043 236100                    LDQ     FOLLOW,,AUTO
        38 001603   000100 506007                    DIV     64,DL
        38 001604   200043 756100                    STQ     FOLLOW,,AUTO

     1334    10955
     1335    10956    3                DO CASE(DESC_TYPE);

  10956 38 001605   200044 235100                    LDA     DESC_TYPE,,AUTO
        38 001606   000010 115007                    CMPA    8,DL
        38 001607   001611 602005 38                 TNC     s:10956+4,AL
        38 001610   002604 710000 38                 TRA     s:11158
        38 001611   002604 710000 38                 TRA     s:11158
        38 001612   001621 710000 38                 TRA     s:10962
        38 001613   002224 710000 38                 TRA     s:11063
        38 001614   002245 710000 38                 TRA     s:11071
        38 001615   002425 710000 38                 TRA     s:11119
        38 001616   002511 710000 38                 TRA     s:11137
        38 001617   001621 710000 38                 TRA     s:10962
        38 001620   002066 710000 38                 TRA     s:11025
PL6.E3A0      #006=Z9IL$PRINT_LO File=Z9IL.:Z8A6TSI                              SAT 08/09/97 14:04 Page:212

     1336    10957    3                 CASE(FOLLOW_ND, FOLLOW_NDO);

     1337    10958
     1338    10959                                                /*Numeric descriptor. show all fields
     1339    10960                                                in decipherable form.
     1340    10961                                                */
     1341    10962    3                   TAG_FIELD         = EISTAGS(EISDESC#);

  10962 38 001621   200077 720100                    LXL0    EISDESC#,,AUTO
        38 001622   200071 236110                    LDQ     EISTAGS,X0,AUTO
        38 001623   000036 772000                    QRL     30
        38 001624   200061 756100                    STQ     TAG_FIELD,,AUTO

     1342    10963    3                   VARFLD_PARAM_BIT_ALIGNED = EISMF.PR(EISDESC#);

  10963 38 001625   200074 236110                    LDQ     EISMF,X0,AUTO
        38 001626   400000 376003                    ANQ     -131072,DU
        38 001627   200064 756100                    STQ     VARFLD_PARAM_BIT_ALIGNED,,AUTO

     1343    10964    3                   CALL VARFLD(VARFLD_PARAM_BIT_ALIGNED,TAG_FIELD);

  10964 38 001630   200061 630500                    EPPR0   TAG_FIELD,,AUTO
        38 001631   200136 450500                    STP0    @P_TAG,,AUTO
        38 001632   200064 631500                    EPPR1   VARFLD_PARAM_BIT_ALIGNED,,AUTO
        38 001633   200135 451500                    STP1    @PRBIT,,AUTO
        38 001634   000752 701000 38                 TSX1    VARFLD
        38 001635   000000 011000                    NOP     0

     1344    10965    3                   LISTLINE.INST1.CF = 'NDSC9';

  10965 38 001636   040100 100400                    MLR     fill='040'O
        38 001637   003015 000005 33                 ADSC9   PTRREGS+39               cn=0,n=5
        38 001640   200020 400010                    ADSC9   TEXTBUF+12,,AUTO         cn=2,n=8

     1345    10966    3                   TEMP_SBIN         = LOCNDSC.CN9.C;

PL6.E3A0      #006=Z9IL$PRINT_LO File=Z9IL.:Z8A6TSI                              SAT 08/09/97 14:04 Page:213
  10966 38 001641   200070 236100                    LDQ     LOC,,AUTO
        38 001642   000020 772000                    QRL     16
        38 001643   000003 376007                    ANQ     3,DL
        38 001644   200041 756100                    STQ     TEMP_SBIN,,AUTO

     1346    10967    3                   IF LOCNDSC.TN='1'B THEN

  10967 38 001645   200070 236100                    LDQ     LOC,,AUTO
        38 001646   040000 316007                    CANQ    16384,DL
        38 001647   001656 600000 38                 TZE     s:10973

     1347    10968
     1348    10969    4                     DO;

     1349    10970    4                        LISTLINE.INST1.CF1.C2='4';

  10970 38 001650   064040 220003                    LDX0    26656,DU
        38 001651   200021 440100                    SXL0    TEXTBUF+13,,AUTO

     1350    10971    4                        TEMP_SBIN=LOCNDSC.CN;

  10971 38 001652   200070 236100                    LDQ     LOC,,AUTO
        38 001653   000017 772000                    QRL     15
        38 001654   000007 376007                    ANQ     7,DL
        38 001655   200041 756100                    STQ     TEMP_SBIN,,AUTO

     1351    10972    4                      END;

     1352    10973    3                   IF VARFLD$<PINCRC(ADDR(LISTLINE.INST1.EISF),-1) THEN

  10973 38 001656   200150 452500                    STP2    SYM_TRUNC+1,,AUTO
        38 001657   200150 236100                    LDQ     SYM_TRUNC+1,,AUTO
        38 001660   000052 036000 39                 ADLQ    42
        38 001661   200047 116100                    CMPQ    VARFLD$,,AUTO
        38 001662   001671 602000 38                 TNC     s:10976
        38 001663   001671 600000 38                 TZE     s:10976

PL6.E3A0      #006=Z9IL$PRINT_LO File=Z9IL.:Z8A6TSI                              SAT 08/09/97 14:04 Page:214
     1353    10974    3                      VARFLD$=ADDR(LISTLINE.INST1.EISF);

  10974 38 001664   200150 452500                    STP2    SYM_TRUNC+1,,AUTO
        38 001665   200150 236100                    LDQ     SYM_TRUNC+1,,AUTO
        38 001666   000053 036000 39                 ADLQ    43
        38 001667   200047 756100                    STQ     VARFLD$,,AUTO
        38 001670   001674 710000 38                 TRA     s:10980

     1354    10975    3                   ELSE
     1355    10976    3                      VARFLD$=PINCRC(VARFLD$,1);

  10976 38 001671   200047 236100                    LDQ     VARFLD$,,AUTO
        38 001672   200000 036007                    ADLQ    65536,DL
        38 001673   200047 756100                    STQ     VARFLD$,,AUTO

     1356    10977
     1357    10978                        %APP_VAR_FLD(S="'cn='");

  10980 38 001674   000003 235007                    LDA     3,DL
        38 001675   200050 755100                    STA     VARFLD#,,AUTO

  10981 38 001676   200047 470500                    LDP0    VARFLD$,,AUTO
        38 001677   000000 620005                    EAX0    0,AL
        38 001700   040140 100400                    MLR     fill='040'O
        38 001701   003017 000003 33                 ADSC9   PTRREGS+41               cn=0,n=3
        38 001702   000000 000010                    ADSC9   0,,PR0                   cn=0,n=*X0

  10982 38 001703   200047 236100                    LDQ     VARFLD$,,AUTO
        38 001704   600000 036007                    ADLQ    -65536,DL
        38 001705   200047 756100                    STQ     VARFLD$,,AUTO

     1358    10985    3                   CALL Z8IU$CONVERT_DEC_LEFT(VARFLDTXT,TEMP_SBIN,1,VARFLD$);

  10985 38 001706   200047 630500                    EPPR0   VARFLD$,,AUTO
        38 001707   200153 450500                    STP0    SYM_TRUNC+4,,AUTO
        38 001710   000012 236000 39                 LDQ     10
        38 001711   200152 756100                    STQ     SYM_TRUNC+3,,AUTO
PL6.E3A0      #006=Z9IL$PRINT_LO File=Z9IL.:Z8A6TSI                              SAT 08/09/97 14:04 Page:215
        38 001712   200041 631500                    EPPR1   TEMP_SBIN,,AUTO
        38 001713   200151 451500                    STP1    SYM_TRUNC+2,,AUTO
        38 001714   200047 236100                    LDQ     VARFLD$,,AUTO
        38 001715   200150 756100                    STQ     SYM_TRUNC+1,,AUTO
        38 001716   200150 630500                    EPPR0   SYM_TRUNC+1,,AUTO
        38 001717   000041 631400 39                 EPPR1   33
        38 001720   000000 701000 xent               TSX1    Z8IU$CONVERT_DEC_LEFT
        38 001721   000000 011000                    NOP     0

     1359    10986
     1360    10987                        %APP_VAR_FLD(S="',s='");

  10989 38 001722   000003 235007                    LDA     3,DL
        38 001723   200050 755100                    STA     VARFLD#,,AUTO

  10990 38 001724   200047 470500                    LDP0    VARFLD$,,AUTO
        38 001725   000000 620005                    EAX0    0,AL
        38 001726   040140 100400                    MLR     fill='040'O
        38 001727   003020 000003 33                 ADSC9   PTRREGS+42               cn=0,n=3
        38 001730   000000 000010                    ADSC9   0,,PR0                   cn=0,n=*X0

  10991 38 001731   200047 236100                    LDQ     VARFLD$,,AUTO
        38 001732   600000 036007                    ADLQ    -65536,DL
        38 001733   200047 756100                    STQ     VARFLD$,,AUTO

     1361    10994    3                   IF DESC_TYPE = FOLLOW_NDO  AND  LOCNDSC.TN = '0'B THEN

  10994 38 001734   200044 235100                    LDA     DESC_TYPE,,AUTO
        38 001735   000006 115007                    CMPA    6,DL
        38 001736   001753 601000 38                 TNZ     s:10997
        38 001737   200070 236100                    LDQ     LOC,,AUTO
        38 001740   040000 316007                    CANQ    16384,DL
        38 001741   001753 601000 38                 TNZ     s:10997

     1362    10995    3                     VARFLDTXT = SIGNCODEO(LOCNDSC.S);

  10995 38 001742   200070 236100                    LDQ     LOC,,AUTO
PL6.E3A0      #006=Z9IL$PRINT_LO File=Z9IL.:Z8A6TSI                              SAT 08/09/97 14:04 Page:216
        38 001743   000014 772000                    QRL     12
        38 001744   000003 376007                    ANQ     3,DL
        38 001745   000005 402007                    MPY     5,DL
        38 001746   200047 470500                    LDP0    VARFLD$,,AUTO
        38 001747   040100 100406                    MLR     fill='040'O
        38 001750   002572 000005 33                 ADSC9   SIGNCODEO,Q              cn=0,n=5
        38 001751   000000 000005                    ADSC9   0,,PR0                   cn=0,n=5
        38 001752   001763 710000 38                 TRA     s:10998

     1363    10996    3                   ELSE
     1364    10997    3                     VARFLDTXT=SIGNCODE(LOCNDSC.S);

  10997 38 001753   200070 236100                    LDQ     LOC,,AUTO
        38 001754   000014 772000                    QRL     12
        38 001755   000003 376007                    ANQ     3,DL
        38 001756   000005 402007                    MPY     5,DL
        38 001757   200047 470500                    LDP0    VARFLD$,,AUTO
        38 001760   040100 100406                    MLR     fill='040'O
        38 001761   002565 000005 33                 ADSC9   SIGNCODE,Q               cn=0,n=5
        38 001762   000000 000005                    ADSC9   0,,PR0                   cn=0,n=5

     1365    10998    3                   VARFLD$=PINCRC(VARFLD$,SIZEC(SIGNCODE(0)));

  10998 38 001763   200047 236100                    LDQ     VARFLD$,,AUTO
        38 001764   000046 036000 39                 ADLQ    38
        38 001765   200047 756100                    STQ     VARFLD$,,AUTO

     1366    10999
     1367    11000                        %APP_VAR_FLD(S="',sf='");

  11002 38 001766   000004 235007                    LDA     4,DL
        38 001767   200050 755100                    STA     VARFLD#,,AUTO

  11003 38 001770   200047 470500                    LDP0    VARFLD$,,AUTO
        38 001771   000000 620005                    EAX0    0,AL
        38 001772   040140 100400                    MLR     fill='040'O
        38 001773   003021 000004 33                 ADSC9   PTRREGS+43               cn=0,n=4
PL6.E3A0      #006=Z9IL$PRINT_LO File=Z9IL.:Z8A6TSI                              SAT 08/09/97 14:04 Page:217
        38 001774   000000 000010                    ADSC9   0,,PR0                   cn=0,n=*X0

  11004 38 001775   200047 236100                    LDQ     VARFLD$,,AUTO
        38 001776   000001 036003                    ADLQ    1,DU
        38 001777   200047 756100                    STQ     VARFLD$,,AUTO

     1368    11007    3                   TEMP_SBIN=LOCNDSC.SF;

  11007 38 002000   200070 236100                    LDQ     LOC,,AUTO
        38 002001   000030 736000                    QLS     24
        38 002002   000036 732000                    QRS     30
        38 002003   200041 756100                    STQ     TEMP_SBIN,,AUTO

     1369    11008    3                   CALL Z8IU$CONVERT_DEC_LEFT(VARFLDTXT,TEMP_SBIN,2,VARFLD$);

  11008 38 002004   200047 630500                    EPPR0   VARFLD$,,AUTO
        38 002005   200153 450500                    STP0    SYM_TRUNC+4,,AUTO
        38 002006   000055 236000 39                 LDQ     45
        38 002007   200152 756100                    STQ     SYM_TRUNC+3,,AUTO
        38 002010   200041 631500                    EPPR1   TEMP_SBIN,,AUTO
        38 002011   200151 451500                    STP1    SYM_TRUNC+2,,AUTO
        38 002012   200047 236100                    LDQ     VARFLD$,,AUTO
        38 002013   200150 756100                    STQ     SYM_TRUNC+1,,AUTO
        38 002014   200150 630500                    EPPR0   SYM_TRUNC+1,,AUTO
        38 002015   000041 631400 39                 EPPR1   33
        38 002016   000000 701000 xent               TSX1    Z8IU$CONVERT_DEC_LEFT
        38 002017   000000 011000                    NOP     0

     1370    11009    3                   TEMP_SBIN=LOCNDSC.N;

  11009 38 002020   200070 236100                    LDQ     LOC,,AUTO
        38 002021   000077 376007                    ANQ     63,DL
        38 002022   200041 756100                    STQ     TEMP_SBIN,,AUTO

     1371    11010
     1372    11011                        %APP_VAR_FLD(S="',n='");

PL6.E3A0      #006=Z9IL$PRINT_LO File=Z9IL.:Z8A6TSI                              SAT 08/09/97 14:04 Page:218
  11013 38 002023   000003 235007                    LDA     3,DL
        38 002024   200050 755100                    STA     VARFLD#,,AUTO

  11014 38 002025   200047 470500                    LDP0    VARFLD$,,AUTO
        38 002026   000000 620005                    EAX0    0,AL
        38 002027   040140 100400                    MLR     fill='040'O
        38 002030   003022 000003 33                 ADSC9   PTRREGS+44               cn=0,n=3
        38 002031   000000 000010                    ADSC9   0,,PR0                   cn=0,n=*X0

  11015 38 002032   200047 236100                    LDQ     VARFLD$,,AUTO
        38 002033   600000 036007                    ADLQ    -65536,DL
        38 002034   200047 756100                    STQ     VARFLD$,,AUTO

     1373    11018    3                   IF EISMF.RL(EISDESC#) THEN

  11018 38 002035   200077 720100                    LXL0    EISDESC#,,AUTO
        38 002036   200074 236110                    LDQ     EISMF,X0,AUTO
        38 002037   200000 316003                    CANQ    65536,DU
        38 002040   002050 600000 38                 TZE     s:11021

     1374    11019    3                      VARFLDTXT=SUBSTR(TAGS(TEMP_SBIN+48),1);

  11019 38 002041   200041 235100                    LDA     TEMP_SBIN,,AUTO
        38 002042   000002 735000                    ALS     2
        38 002043   200047 470500                    LDP0    VARFLD$,,AUTO
        38 002044   040100 100405                    MLR     fill='040'O
        38 002045   002476 200003 33                 ADSC9   TAGS+48,A                cn=1,n=3
        38 002046   000000 000005                    ADSC9   0,,PR0                   cn=0,n=5
        38 002047   002064 710000 38                 TRA     s:11022

     1375    11020    3                   ELSE
     1376    11021    3                      CALL Z8IU$CONVERT_DEC_LEFT(VARFLDTXT,TEMP_SBIN,2,VARFLD$);

  11021 38 002050   200047 630500                    EPPR0   VARFLD$,,AUTO
        38 002051   200153 450500                    STP0    SYM_TRUNC+4,,AUTO
        38 002052   000055 236000 39                 LDQ     45
        38 002053   200152 756100                    STQ     SYM_TRUNC+3,,AUTO
PL6.E3A0      #006=Z9IL$PRINT_LO File=Z9IL.:Z8A6TSI                              SAT 08/09/97 14:04 Page:219
        38 002054   200041 631500                    EPPR1   TEMP_SBIN,,AUTO
        38 002055   200151 451500                    STP1    SYM_TRUNC+2,,AUTO
        38 002056   200047 236100                    LDQ     VARFLD$,,AUTO
        38 002057   200150 756100                    STQ     SYM_TRUNC+1,,AUTO
        38 002060   200150 630500                    EPPR0   SYM_TRUNC+1,,AUTO
        38 002061   000041 631400 39                 EPPR1   33
        38 002062   000000 701000 xent               TSX1    Z8IU$CONVERT_DEC_LEFT
        38 002063   000000 011000                    NOP     0

     1377    11022    3                   EISDESC#=EISDESC#+1;

  11022 38 002064   200077 054100                    AOS     EISDESC#,,AUTO
        38 002065   002604 710000 38                 TRA     s:11158

     1378    11023
     1379    11024    3                 CASE(FOLLOW_NDS);

     1380    11025    3                   TAG_FIELD = EISTAGS(EISDESC#);

  11025 38 002066   200077 720100                    LXL0    EISDESC#,,AUTO
        38 002067   200071 236110                    LDQ     EISTAGS,X0,AUTO
        38 002070   000036 772000                    QRL     30
        38 002071   200061 756100                    STQ     TAG_FIELD,,AUTO

     1381    11026    3                   VARFLD_PARAM_BIT_ALIGNED = EISMF.PR(EISDESC#);

  11026 38 002072   200074 236110                    LDQ     EISMF,X0,AUTO
        38 002073   400000 376003                    ANQ     -131072,DU
        38 002074   200064 756100                    STQ     VARFLD_PARAM_BIT_ALIGNED,,AUTO

     1382    11027    3                   CALL VARFLD(VARFLD_PARAM_BIT_ALIGNED,TAG_FIELD);

  11027 38 002075   200061 630500                    EPPR0   TAG_FIELD,,AUTO
        38 002076   200136 450500                    STP0    @P_TAG,,AUTO
        38 002077   200064 631500                    EPPR1   VARFLD_PARAM_BIT_ALIGNED,,AUTO
        38 002100   200135 451500                    STP1    @PRBIT,,AUTO
        38 002101   000752 701000 38                 TSX1    VARFLD
PL6.E3A0      #006=Z9IL$PRINT_LO File=Z9IL.:Z8A6TSI                              SAT 08/09/97 14:04 Page:220
        38 002102   000000 011000                    NOP     0

     1383    11028
     1384    11029    3                   LISTLINE.INST1.CF = 'SDSC8';

  11029 38 002103   040100 100400                    MLR     fill='040'O
        38 002104   003023 000005 33                 ADSC9   PTRREGS+45               cn=0,n=5
        38 002105   200020 400010                    ADSC9   TEXTBUF+12,,AUTO         cn=2,n=8

     1385    11030    3                   IF VARFLD$ < PINCRC(ADDR(LISTLINE.INST1.EISF),-1) THEN

  11030 38 002106   200150 452500                    STP2    SYM_TRUNC+1,,AUTO
        38 002107   200150 236100                    LDQ     SYM_TRUNC+1,,AUTO
        38 002110   000052 036000 39                 ADLQ    42
        38 002111   200047 116100                    CMPQ    VARFLD$,,AUTO
        38 002112   002121 602000 38                 TNC     s:11033
        38 002113   002121 600000 38                 TZE     s:11033

     1386    11031    3                       VARFLD$ = ADDR(LISTLINE.INST1.EISF);

  11031 38 002114   200150 452500                    STP2    SYM_TRUNC+1,,AUTO
        38 002115   200150 236100                    LDQ     SYM_TRUNC+1,,AUTO
        38 002116   000053 036000 39                 ADLQ    43
        38 002117   200047 756100                    STQ     VARFLD$,,AUTO
        38 002120   002124 710000 38                 TRA     s:11037

     1387    11032    3                   ELSE
     1388    11033    3                       VARFLD$ = PINCRC(VARFLD$,1);

  11033 38 002121   200047 236100                    LDQ     VARFLD$,,AUTO
        38 002122   200000 036007                    ADLQ    65536,DL
        38 002123   200047 756100                    STQ     VARFLD$,,AUTO

     1389    11034
     1390    11035                        %APP_VAR_FLD(S="',cn='");

  11037 38 002124   000004 235007                    LDA     4,DL
PL6.E3A0      #006=Z9IL$PRINT_LO File=Z9IL.:Z8A6TSI                              SAT 08/09/97 14:04 Page:221
        38 002125   200050 755100                    STA     VARFLD#,,AUTO

  11038 38 002126   200047 470500                    LDP0    VARFLD$,,AUTO
        38 002127   000000 620005                    EAX0    0,AL
        38 002130   040140 100400                    MLR     fill='040'O
        38 002131   003025 000004 33                 ADSC9   PTRREGS+47               cn=0,n=4
        38 002132   000000 000010                    ADSC9   0,,PR0                   cn=0,n=*X0

  11039 38 002133   200047 236100                    LDQ     VARFLD$,,AUTO
        38 002134   000001 036003                    ADLQ    1,DU
        38 002135   200047 756100                    STQ     VARFLD$,,AUTO

     1391    11042    3                   TEMP_SBIN = LOCSDSC.CN;

  11042 38 002136   200070 236100                    LDQ     LOC,,AUTO
        38 002137   000017 772000                    QRL     15
        38 002140   000007 376007                    ANQ     7,DL
        38 002141   200041 756100                    STQ     TEMP_SBIN,,AUTO

     1392    11043    3                   CALL Z8IU$CONVERT_DEC_LEFT(VARFLDTXT,TEMP_SBIN,1,VARFLD$);

  11043 38 002142   200047 630500                    EPPR0   VARFLD$,,AUTO
        38 002143   200153 450500                    STP0    SYM_TRUNC+4,,AUTO
        38 002144   000012 236000 39                 LDQ     10
        38 002145   200152 756100                    STQ     SYM_TRUNC+3,,AUTO
        38 002146   200041 631500                    EPPR1   TEMP_SBIN,,AUTO
        38 002147   200151 451500                    STP1    SYM_TRUNC+2,,AUTO
        38 002150   200047 236100                    LDQ     VARFLD$,,AUTO
        38 002151   200150 756100                    STQ     SYM_TRUNC+1,,AUTO
        38 002152   200150 630500                    EPPR0   SYM_TRUNC+1,,AUTO
        38 002153   000041 631400 39                 EPPR1   33
        38 002154   000000 701000 xent               TSX1    Z8IU$CONVERT_DEC_LEFT
        38 002155   000000 011000                    NOP     0

     1393    11044
     1394    11045                        %APP_VAR_FLD(S="',n='");

PL6.E3A0      #006=Z9IL$PRINT_LO File=Z9IL.:Z8A6TSI                              SAT 08/09/97 14:04 Page:222
  11047 38 002156   000003 235007                    LDA     3,DL
        38 002157   200050 755100                    STA     VARFLD#,,AUTO

  11048 38 002160   200047 470500                    LDP0    VARFLD$,,AUTO
        38 002161   000000 620005                    EAX0    0,AL
        38 002162   040140 100400                    MLR     fill='040'O
        38 002163   003022 000003 33                 ADSC9   PTRREGS+44               cn=0,n=3
        38 002164   000000 000010                    ADSC9   0,,PR0                   cn=0,n=*X0

  11049 38 002165   200047 236100                    LDQ     VARFLD$,,AUTO
        38 002166   600000 036007                    ADLQ    -65536,DL
        38 002167   200047 756100                    STQ     VARFLD$,,AUTO

     1395    11052    3                   TEMP_SBIN = LOCSDSC.N;

  11052 38 002170   200070 236100                    LDQ     LOC,,AUTO
        38 002171   000017 376007                    ANQ     15,DL
        38 002172   200041 756100                    STQ     TEMP_SBIN,,AUTO

     1396    11053    3                   IF EISMF.RL(EISDESC#)      THEN

  11053 38 002173   200077 720100                    LXL0    EISDESC#,,AUTO
        38 002174   200074 236110                    LDQ     EISMF,X0,AUTO
        38 002175   200000 316003                    CANQ    65536,DU
        38 002176   002206 600000 38                 TZE     s:11056

     1397    11054    3                       VARFLDTXT = SUBSTR(TAGS(TEMP_SBIN + 48),1);

  11054 38 002177   200041 235100                    LDA     TEMP_SBIN,,AUTO
        38 002200   000002 735000                    ALS     2
        38 002201   200047 470500                    LDP0    VARFLD$,,AUTO
        38 002202   040100 100405                    MLR     fill='040'O
        38 002203   002476 200003 33                 ADSC9   TAGS+48,A                cn=1,n=3
        38 002204   000000 000005                    ADSC9   0,,PR0                   cn=0,n=5
        38 002205   002222 710000 38                 TRA     s:11057

     1398    11055    3                   ELSE
PL6.E3A0      #006=Z9IL$PRINT_LO File=Z9IL.:Z8A6TSI                              SAT 08/09/97 14:04 Page:223
     1399    11056    3                       CALL Z8IU$CONVERT_DEC_LEFT(VARFLDTXT,TEMP_SBIN,2,VARFLD$);

  11056 38 002206   200047 630500                    EPPR0   VARFLD$,,AUTO
        38 002207   200153 450500                    STP0    SYM_TRUNC+4,,AUTO
        38 002210   000055 236000 39                 LDQ     45
        38 002211   200152 756100                    STQ     SYM_TRUNC+3,,AUTO
        38 002212   200041 631500                    EPPR1   TEMP_SBIN,,AUTO
        38 002213   200151 451500                    STP1    SYM_TRUNC+2,,AUTO
        38 002214   200047 236100                    LDQ     VARFLD$,,AUTO
        38 002215   200150 756100                    STQ     SYM_TRUNC+1,,AUTO
        38 002216   200150 630500                    EPPR0   SYM_TRUNC+1,,AUTO
        38 002217   000041 631400 39                 EPPR1   33
        38 002220   000000 701000 xent               TSX1    Z8IU$CONVERT_DEC_LEFT
        38 002221   000000 011000                    NOP     0

     1400    11057    3                   EISDESC# = EISDESC# + 1;

  11057 38 002222   200077 054100                    AOS     EISDESC#,,AUTO
        38 002223   002604 710000 38                 TRA     s:11158

     1401    11058
     1402    11059    3                 CASE(FOLLOW_WD);

     1403    11060
     1404    11061                                                /*Simple word address used for some eis
     1405    11062                                                inst's.                               */
     1406    11063    3                   LISTLINE.INST1.CF='ARG';

  11063 38 002224   040100 100400                    MLR     fill='040'O
        38 002225   003026 000003 33                 ADSC9   PTRREGS+48               cn=0,n=3
        38 002226   200020 400010                    ADSC9   TEXTBUF+12,,AUTO         cn=2,n=8

     1407    11064    3                   TAG_FIELD = LOC.RH1.TAG_SIX;

  11064 38 002227   200070 236100                    LDQ     LOC,,AUTO
        38 002230   000077 376007                    ANQ     63,DL
        38 002231   200061 756100                    STQ     TAG_FIELD,,AUTO
PL6.E3A0      #006=Z9IL$PRINT_LO File=Z9IL.:Z8A6TSI                              SAT 08/09/97 14:04 Page:224

     1408    11065    3                   VARFLD_PARAM_BIT_ALIGNED = LOC.RH.PR;

  11065 38 002232   200070 236100                    LDQ     LOC,,AUTO
        38 002233   000035 736000                    QLS     29
        38 002234   400000 376003                    ANQ     -131072,DU
        38 002235   200064 756100                    STQ     VARFLD_PARAM_BIT_ALIGNED,,AUTO

     1409    11066    3                   CALL VARFLD(VARFLD_PARAM_BIT_ALIGNED, TAG_FIELD);

  11066 38 002236   200061 630500                    EPPR0   TAG_FIELD,,AUTO
        38 002237   200136 450500                    STP0    @P_TAG,,AUTO
        38 002240   200064 631500                    EPPR1   VARFLD_PARAM_BIT_ALIGNED,,AUTO
        38 002241   200135 451500                    STP1    @PRBIT,,AUTO
        38 002242   000752 701000 38                 TSX1    VARFLD
        38 002243   000000 011000                    NOP     0
        38 002244   002604 710000 38                 TRA     s:11158

     1410    11067
     1411    11068    3                 CASE(FOLLOW_CD);

     1412    11069                                                /*Alphanumeric descriptor. show all
     1413    11070                                                fields.                               */
     1414    11071    3                   TAG_FIELD         = EISTAGS(EISDESC#);

  11071 38 002245   200077 720100                    LXL0    EISDESC#,,AUTO
        38 002246   200071 236110                    LDQ     EISTAGS,X0,AUTO
        38 002247   000036 772000                    QRL     30
        38 002250   200061 756100                    STQ     TAG_FIELD,,AUTO

     1415    11072    3                   VARFLD_PARAM_BIT_ALIGNED = EISMF.PR(EISDESC#);

  11072 38 002251   200074 236110                    LDQ     EISMF,X0,AUTO
        38 002252   400000 376003                    ANQ     -131072,DU
        38 002253   200064 756100                    STQ     VARFLD_PARAM_BIT_ALIGNED,,AUTO

     1416    11073    3                   CALL VARFLD(VARFLD_PARAM_BIT_ALIGNED,TAG_FIELD);
PL6.E3A0      #006=Z9IL$PRINT_LO File=Z9IL.:Z8A6TSI                              SAT 08/09/97 14:04 Page:225

  11073 38 002254   200061 630500                    EPPR0   TAG_FIELD,,AUTO
        38 002255   200136 450500                    STP0    @P_TAG,,AUTO
        38 002256   200064 631500                    EPPR1   VARFLD_PARAM_BIT_ALIGNED,,AUTO
        38 002257   200135 451500                    STP1    @PRBIT,,AUTO
        38 002260   000752 701000 38                 TSX1    VARFLD
        38 002261   000000 011000                    NOP     0

     1417    11074    3                   LISTLINE.INST1.CF = 'ADSC9';

  11074 38 002262   040100 100400                    MLR     fill='040'O
        38 002263   003027 000005 33                 ADSC9   PTRREGS+49               cn=0,n=5
        38 002264   200020 400010                    ADSC9   TEXTBUF+12,,AUTO         cn=2,n=8

     1418    11075    3                   TEMP_SBIN         = LOCADSC.CN9.C;

  11075 38 002265   200070 236100                    LDQ     LOC,,AUTO
        38 002266   000020 772000                    QRL     16
        38 002267   000003 376007                    ANQ     3,DL
        38 002270   200041 756100                    STQ     TEMP_SBIN,,AUTO

     1419    11076
     1420    11077    3                   IF LOCADSC.TA=1 THEN

  11077 38 002271   200070 236100                    LDQ     LOC,,AUTO
        38 002272   060000 376007                    ANQ     24576,DL
        38 002273   020000 116007                    CMPQ    8192,DL
        38 002274   002304 601000 38                 TNZ     s:11083

     1421    11078    4                     DO;

     1422    11079    4                        LISTLINE.INST1.CF1.C2='6';

  11079 38 002275   066040 220003                    LDX0    27680,DU
        38 002276   200021 440100                    SXL0    TEXTBUF+13,,AUTO

     1423    11080    4                        TEMP_SBIN=LOCADSC.CN;
PL6.E3A0      #006=Z9IL$PRINT_LO File=Z9IL.:Z8A6TSI                              SAT 08/09/97 14:04 Page:226

  11080 38 002277   200070 236100                    LDQ     LOC,,AUTO
        38 002300   000017 772000                    QRL     15
        38 002301   000007 376007                    ANQ     7,DL
        38 002302   200041 756100                    STQ     TEMP_SBIN,,AUTO

     1424    11081    4                        END;

  11081 38 002303   002314 710000 38                 TRA     s:11089

     1425    11082    3                   ELSE
     1426    11083    3                      IF LOCADSC.TA=2 THEN

  11083 38 002304   040000 116007                    CMPQ    16384,DL
        38 002305   002314 601000 38                 TNZ     s:11089

     1427    11084    4                        DO;

     1428    11085    4                           LISTLINE.INST1.CF1.C2='4';

  11085 38 002306   064040 220003                    LDX0    26656,DU
        38 002307   200021 440100                    SXL0    TEXTBUF+13,,AUTO

     1429    11086    4                           TEMP_SBIN=LOCADSC.CN;

  11086 38 002310   200070 236100                    LDQ     LOC,,AUTO
        38 002311   000017 772000                    QRL     15
        38 002312   000007 376007                    ANQ     7,DL
        38 002313   200041 756100                    STQ     TEMP_SBIN,,AUTO

     1430    11087    4                           END;

     1431    11088
     1432    11089    3                   TEMP_SBIN_2=LOCADSC.N;

  11089 38 002314   200070 236100                    LDQ     LOC,,AUTO
        38 002315   017777 376007                    ANQ     8191,DL
PL6.E3A0      #006=Z9IL$PRINT_LO File=Z9IL.:Z8A6TSI                              SAT 08/09/97 14:04 Page:227
        38 002316   200042 756100                    STQ     TEMP_SBIN_2,,AUTO

     1433    11090    3                   IF VARFLD$<PINCRC(ADDR(LISTLINE.INST1.EISF),-1) THEN

  11090 38 002317   200150 452500                    STP2    SYM_TRUNC+1,,AUTO
        38 002320   200150 236100                    LDQ     SYM_TRUNC+1,,AUTO
        38 002321   000052 036000 39                 ADLQ    42
        38 002322   200047 116100                    CMPQ    VARFLD$,,AUTO
        38 002323   002332 602000 38                 TNC     s:11093
        38 002324   002332 600000 38                 TZE     s:11093

     1434    11091    3                      VARFLD$=ADDR(LISTLINE.INST1.EISF);

  11091 38 002325   200150 452500                    STP2    SYM_TRUNC+1,,AUTO
        38 002326   200150 236100                    LDQ     SYM_TRUNC+1,,AUTO
        38 002327   000053 036000 39                 ADLQ    43
        38 002330   200047 756100                    STQ     VARFLD$,,AUTO
        38 002331   002335 710000 38                 TRA     s:11094

     1435    11092    3                   ELSE
     1436    11093    3                      VARFLD$=PINCRC(VARFLD$,1);

  11093 38 002332   200047 236100                    LDQ     VARFLD$,,AUTO
        38 002333   200000 036007                    ADLQ    65536,DL
        38 002334   200047 756100                    STQ     VARFLD$,,AUTO

     1437    11094    3                   VARFLD$=VARFLD$;

  11094 38 002335   200047 756100                    STQ     VARFLD$,,AUTO

     1438    11095
     1439    11096                        %APP_VAR_FLD(S="'cn='");

  11098 38 002336   000003 235007                    LDA     3,DL
        38 002337   200050 755100                    STA     VARFLD#,,AUTO

  11099 38 002340   200047 470500                    LDP0    VARFLD$,,AUTO
PL6.E3A0      #006=Z9IL$PRINT_LO File=Z9IL.:Z8A6TSI                              SAT 08/09/97 14:04 Page:228
        38 002341   000000 620005                    EAX0    0,AL
        38 002342   040140 100400                    MLR     fill='040'O
        38 002343   003017 000003 33                 ADSC9   PTRREGS+41               cn=0,n=3
        38 002344   000000 000010                    ADSC9   0,,PR0                   cn=0,n=*X0

  11100 38 002345   200047 236100                    LDQ     VARFLD$,,AUTO
        38 002346   600000 036007                    ADLQ    -65536,DL
        38 002347   200047 756100                    STQ     VARFLD$,,AUTO

     1440    11103    3   MERGEN:         CALL Z8IU$CONVERT_DEC_LEFT(VARFLDTXT,TEMP_SBIN,1,VARFLD$);

  11103 38 002350   200047 630500       MERGEN       EPPR0   VARFLD$,,AUTO
        38 002351   200153 450500                    STP0    SYM_TRUNC+4,,AUTO
        38 002352   000012 236000 39                 LDQ     10
        38 002353   200152 756100                    STQ     SYM_TRUNC+3,,AUTO
        38 002354   200041 631500                    EPPR1   TEMP_SBIN,,AUTO
        38 002355   200151 451500                    STP1    SYM_TRUNC+2,,AUTO
        38 002356   200047 236100                    LDQ     VARFLD$,,AUTO
        38 002357   200150 756100                    STQ     SYM_TRUNC+1,,AUTO
        38 002360   200150 630500                    EPPR0   SYM_TRUNC+1,,AUTO
        38 002361   000041 631400 39                 EPPR1   33
        38 002362   000000 701000 xent               TSX1    Z8IU$CONVERT_DEC_LEFT
        38 002363   000000 011000                    NOP     0

     1441    11104
     1442    11105                        %APP_VAR_FLD(S="',n='");

  11107 38 002364   000003 235007                    LDA     3,DL
        38 002365   200050 755100                    STA     VARFLD#,,AUTO

  11108 38 002366   200047 470500                    LDP0    VARFLD$,,AUTO
        38 002367   000000 620005                    EAX0    0,AL
        38 002370   040140 100400                    MLR     fill='040'O
        38 002371   003022 000003 33                 ADSC9   PTRREGS+44               cn=0,n=3
        38 002372   000000 000010                    ADSC9   0,,PR0                   cn=0,n=*X0

  11109 38 002373   200047 236100                    LDQ     VARFLD$,,AUTO
PL6.E3A0      #006=Z9IL$PRINT_LO File=Z9IL.:Z8A6TSI                              SAT 08/09/97 14:04 Page:229
        38 002374   600000 036007                    ADLQ    -65536,DL
        38 002375   200047 756100                    STQ     VARFLD$,,AUTO

     1443    11112    3                   IF EISMF.RL(EISDESC#) THEN

  11112 38 002376   200077 720100                    LXL0    EISDESC#,,AUTO
        38 002377   200074 236110                    LDQ     EISMF,X0,AUTO
        38 002400   200000 316003                    CANQ    65536,DU
        38 002401   002411 600000 38                 TZE     s:11114

     1444    11113    3                      VARFLDTXT=SUBSTR(TAGS(TEMP_SBIN_2+48),1);

  11113 38 002402   200042 235100                    LDA     TEMP_SBIN_2,,AUTO
        38 002403   000002 735000                    ALS     2
        38 002404   200047 470500                    LDP0    VARFLD$,,AUTO
        38 002405   040100 100405                    MLR     fill='040'O
        38 002406   002476 200003 33                 ADSC9   TAGS+48,A                cn=1,n=3
        38 002407   000000 000005                    ADSC9   0,,PR0                   cn=0,n=5
        38 002410   002423 710000 38                 TRA     s:11115

     1445    11114    3                   ELSE CALL Z8IU$CONVERT_DEC_LEFT(VARFLDTXT,TEMP_SBIN_2,4);

  11114 38 002411   000057 236000 39                 LDQ     47
        38 002412   200152 756100                    STQ     SYM_TRUNC+3,,AUTO
        38 002413   200042 630500                    EPPR0   TEMP_SBIN_2,,AUTO
        38 002414   200151 450500                    STP0    SYM_TRUNC+2,,AUTO
        38 002415   200047 236100                    LDQ     VARFLD$,,AUTO
        38 002416   200150 756100                    STQ     SYM_TRUNC+1,,AUTO
        38 002417   200150 630500                    EPPR0   SYM_TRUNC+1,,AUTO
        38 002420   000032 631400 39                 EPPR1   26
        38 002421   000000 701000 xent               TSX1    Z8IU$CONVERT_DEC_LEFT
        38 002422   000000 011000                    NOP     0

     1446    11115    3                   EISDESC#=EISDESC#+1;

  11115 38 002423   200077 054100                    AOS     EISDESC#,,AUTO
        38 002424   002604 710000 38                 TRA     s:11158
PL6.E3A0      #006=Z9IL$PRINT_LO File=Z9IL.:Z8A6TSI                              SAT 08/09/97 14:04 Page:230

     1447    11116
     1448    11117    3                 CASE(FOLLOW_BD);

     1449    11118                                                /*Bit descriptor. Show all fields.    */
     1450    11119    3                   TAG_FIELD=EISTAGS(EISDESC#);

  11119 38 002425   200077 720100                    LXL0    EISDESC#,,AUTO
        38 002426   200071 236110                    LDQ     EISTAGS,X0,AUTO
        38 002427   000036 772000                    QRL     30
        38 002430   200061 756100                    STQ     TAG_FIELD,,AUTO

     1451    11120    3                   VARFLD_PARAM_BIT_ALIGNED = EISMF.PR(EISDESC#);

  11120 38 002431   200074 236110                    LDQ     EISMF,X0,AUTO
        38 002432   400000 376003                    ANQ     -131072,DU
        38 002433   200064 756100                    STQ     VARFLD_PARAM_BIT_ALIGNED,,AUTO

     1452    11121    3                   CALL VARFLD(VARFLD_PARAM_BIT_ALIGNED,TAG_FIELD);

  11121 38 002434   200061 630500                    EPPR0   TAG_FIELD,,AUTO
        38 002435   200136 450500                    STP0    @P_TAG,,AUTO
        38 002436   200064 631500                    EPPR1   VARFLD_PARAM_BIT_ALIGNED,,AUTO
        38 002437   200135 451500                    STP1    @PRBIT,,AUTO
        38 002440   000752 701000 38                 TSX1    VARFLD
        38 002441   000000 011000                    NOP     0

     1453    11122    3                   LISTLINE.INST1.CF='BDSC';

  11122 38 002442   040100 100400                    MLR     fill='040'O
        38 002443   003031 000004 33                 ADSC9   PTRREGS+51               cn=0,n=4
        38 002444   200020 400010                    ADSC9   TEXTBUF+12,,AUTO         cn=2,n=8

     1454    11123    3                   IF VARFLD$<PINCRC(ADDR(LISTLINE.INST1.EISF),-1) THEN

  11123 38 002445   200150 452500                    STP2    SYM_TRUNC+1,,AUTO
        38 002446   200150 236100                    LDQ     SYM_TRUNC+1,,AUTO
PL6.E3A0      #006=Z9IL$PRINT_LO File=Z9IL.:Z8A6TSI                              SAT 08/09/97 14:04 Page:231
        38 002447   000052 036000 39                 ADLQ    42
        38 002450   200047 116100                    CMPQ    VARFLD$,,AUTO
        38 002451   002460 602000 38                 TNC     s:11126
        38 002452   002460 600000 38                 TZE     s:11126

     1455    11124    3                      VARFLD$=ADDR(LISTLINE.INST1.EISF);

  11124 38 002453   200150 452500                    STP2    SYM_TRUNC+1,,AUTO
        38 002454   200150 236100                    LDQ     SYM_TRUNC+1,,AUTO
        38 002455   000053 036000 39                 ADLQ    43
        38 002456   200047 756100                    STQ     VARFLD$,,AUTO
        38 002457   002463 710000 38                 TRA     s:11127

     1456    11125    3                   ELSE
     1457    11126    3                      VARFLD$=PINCRC(VARFLD$,1);

  11126 38 002460   200047 236100                    LDQ     VARFLD$,,AUTO
        38 002461   200000 036007                    ADLQ    65536,DL
        38 002462   200047 756100                    STQ     VARFLD$,,AUTO

     1458    11127    3                   VARFLD#      = SIZEC(BYTBIT(0));

  11127 38 002463   000011 235007                    LDA     9,DL
        38 002464   200050 755100                    STA     VARFLD#,,AUTO

     1459    11128    3                   VARFLDTX     = BYTBIT(LOCBDSC.C);

  11128 38 002465   200070 236100                    LDQ     LOC,,AUTO
        38 002466   000020 772000                    QRL     16
        38 002467   000003 376007                    ANQ     3,DL
        38 002470   000011 402007                    MPY     9,DL
        38 002471   200047 470500                    LDP0    VARFLD$,,AUTO
        38 002472   200050 720100                    LXL0    VARFLD#,,AUTO
        38 002473   040140 100406                    MLR     fill='040'O
        38 002474   002524 000011 33                 ADSC9   BYTBIT,Q                 cn=0,n=9
        38 002475   000000 000010                    ADSC9   0,,PR0                   cn=0,n=*X0

PL6.E3A0      #006=Z9IL$PRINT_LO File=Z9IL.:Z8A6TSI                              SAT 08/09/97 14:04 Page:232
     1460    11129    3                   VARFLD$      = PINCRC(VARFLD$,SIZEC(BYTBIT(0)));

  11129 38 002476   200047 236100                    LDQ     VARFLD$,,AUTO
        38 002477   000060 036000 39                 ADLQ    48
        38 002500   200047 756100                    STQ     VARFLD$,,AUTO

     1461    11130    3                   TEMP_SBIN    = LOCBDSC.B;

  11130 38 002501   200070 236100                    LDQ     LOC,,AUTO
        38 002502   000014 772000                    QRL     12
        38 002503   000017 376007                    ANQ     15,DL
        38 002504   200041 756100                    STQ     TEMP_SBIN,,AUTO

     1462    11131    3                   TEMP_SBIN_2  = LOCBDSC.N;

  11131 38 002505   200070 236100                    LDQ     LOC,,AUTO
        38 002506   007777 376007                    ANQ     4095,DL
        38 002507   200042 756100                    STQ     TEMP_SBIN_2,,AUTO

     1463    11132    3                   GOTO MERGEN;

  11132 38 002510   002350 710000 38                 TRA     MERGEN

     1464    11133
     1465    11134    3                 CASE(FOLLOW_SI);

     1466    11135                                                /*Climb follower word. Show type of
     1467    11136                                                climb and seg id if appropriate.      */
     1468    11137    4                   DO CASE(LOCCLIMB.OP);

  11137 38 002511   200070 236100                    LDQ     LOC,,AUTO
        38 002512   000014 772000                    QRL     12
        38 002513   000003 376007                    ANQ     3,DL
        38 002514   000004 116007                    CMPQ    4,DL
        38 002515   002517 602006 38                 TNC     s:11137+6,QL
        38 002516   002604 710000 38                 TRA     s:11158
        38 002517   002537 710000 38                 TRA     s:11145
PL6.E3A0      #006=Z9IL$PRINT_LO File=Z9IL.:Z8A6TSI                              SAT 08/09/97 14:04 Page:233
        38 002520   002523 710000 38                 TRA     s:11139
        38 002521   002527 710000 38                 TRA     s:11141
        38 002522   002533 710000 38                 TRA     s:11143

     1469    11138    4                    CASE(1);

     1470    11139    4                      LISTLINE.INST1.CF='RET';

  11139 38 002523   040100 100400                    MLR     fill='040'O
        38 002524   003032 000003 33                 ADSC9   PTRREGS+52               cn=0,n=3
        38 002525   200020 400010                    ADSC9   TEXTBUF+12,,AUTO         cn=2,n=8
        38 002526   002604 710000 38                 TRA     s:11158

     1471    11140    4                    CASE(2);

     1472    11141    4                      LISTLINE.INST1.CF='LTRAS';

  11141 38 002527   040100 100400                    MLR     fill='040'O
        38 002530   003033 000005 33                 ADSC9   PTRREGS+53               cn=0,n=5
        38 002531   200020 400010                    ADSC9   TEXTBUF+12,,AUTO         cn=2,n=8
        38 002532   002604 710000 38                 TRA     s:11158

     1473    11142    4                    CASE(3);

     1474    11143    4                      LISTLINE.INST1.CF='LTRAD';

  11143 38 002533   040100 100400                    MLR     fill='040'O
        38 002534   003035 000005 33                 ADSC9   PTRREGS+55               cn=0,n=5
        38 002535   200020 400010                    ADSC9   TEXTBUF+12,,AUTO         cn=2,n=8
        38 002536   002604 710000 38                 TRA     s:11158

     1475    11144    4                    CASE(0);

     1476    11145    4                      TEMP_SBIN=0;

  11145 38 002537   200041 450100                    STZ     TEMP_SBIN,,AUTO

PL6.E3A0      #006=Z9IL$PRINT_LO File=Z9IL.:Z8A6TSI                              SAT 08/09/97 14:04 Page:234
     1477    11146    4                      IF LOCCLIMB.E THEN

  11146 38 002540   200070 234100                    SZN     LOC,,AUTO
        38 002541   002547 605000 38                 TPL     s:11148

     1478    11147    4                         TEMP_SBIN=LOCCLIMB.P+1;

  11147 38 002542   200070 236100                    LDQ     LOC,,AUTO
        38 002543   000032 772000                    QRL     26
        38 002544   000777 376007                    ANQ     511,DL
        38 002545   000001 036007                    ADLQ    1,DL
        38 002546   200041 756100                    STQ     TEMP_SBIN,,AUTO

     1479    11148    4                      IF LOCCLIMB.SID=1008 THEN

  11148 38 002547   200070 236100                    LDQ     LOC,,AUTO
        38 002550   007777 376007                    ANQ     4095,DL
        38 002551   001760 116007                    CMPQ    1008,DL
        38 002552   002557 601000 38                 TNZ     s:11151

     1480    11149    4                         LISTLINE.INST1.CF='PMME';

  11149 38 002553   040100 100400                    MLR     fill='040'O
        38 002554   003037 000004 33                 ADSC9   PTRREGS+57               cn=0,n=4
        38 002555   200020 400010                    ADSC9   TEXTBUF+12,,AUTO         cn=2,n=8
        38 002556   002562 710000 38                 TRA     s:11152

     1481    11150    4                      ELSE
     1482    11151    4                        LISTLINE.INST1.CF='CLIMB';

  11151 38 002557   040100 100400                    MLR     fill='040'O
        38 002560   003040 000005 33                 ADSC9   PTRREGS+58               cn=0,n=5
        38 002561   200020 400010                    ADSC9   TEXTBUF+12,,AUTO         cn=2,n=8

     1483    11152    4                      LISTLINE.INST1.VF='nvectors=';

  11152 38 002562   040100 100400                    MLR     fill='040'O
PL6.E3A0      #006=Z9IL$PRINT_LO File=Z9IL.:Z8A6TSI                              SAT 08/09/97 14:04 Page:235
        38 002563   003042 000011 33                 ADSC9   PTRREGS+60               cn=0,n=9
        38 002564   200022 400030                    ADSC9   TEXTBUF+14,,AUTO         cn=2,n=24

     1484    11153    4                      VARFLD$=PINCRC(VARFLD$,9);

  11153 38 002565   200047 236100                    LDQ     VARFLD$,,AUTO
        38 002566   000060 036000 39                 ADLQ    48
        38 002567   200047 756100                    STQ     VARFLD$,,AUTO

     1485    11154    4                      CALL Z8IU$CONVERT_DEC_LEFT(VARFLDTXT,TEMP_SBIN,3,VARFLD$);

  11154 38 002570   200047 630500                    EPPR0   VARFLD$,,AUTO
        38 002571   200153 450500                    STP0    SYM_TRUNC+4,,AUTO
        38 002572   000014 236000 39                 LDQ     12
        38 002573   200152 756100                    STQ     SYM_TRUNC+3,,AUTO
        38 002574   200041 631500                    EPPR1   TEMP_SBIN,,AUTO
        38 002575   200151 451500                    STP1    SYM_TRUNC+2,,AUTO
        38 002576   200047 236100                    LDQ     VARFLD$,,AUTO
        38 002577   200150 756100                    STQ     SYM_TRUNC+1,,AUTO
        38 002600   200150 630500                    EPPR0   SYM_TRUNC+1,,AUTO
        38 002601   000041 631400 39                 EPPR1   33
        38 002602   000000 701000 xent               TSX1    Z8IU$CONVERT_DEC_LEFT
        38 002603   000000 011000                    NOP     0

     1486    11155    4                    END;

     1487    11156    3                 END;

     1488    11157
     1489    11158    2   END TRN_DESC;

  11158 38 002604   200132 221300                    LDX1  ! @TYPE,,AUTO
        38 002605   000001 702211                    TSX2  ! 1,X1

     1490    11159        %EJECT;
PL6.E3A0      #006=Z9IL$PRINT_LO File=Z9IL.:Z8A6TSI                              SAT 08/09/97 14:04 Page:236
     1491    11160    1   TRN_HALFW : PROC;

  11160 38 002606   200134 741300       TRN_HALFW    STX1  ! @SECT_PTR+1,,AUTO

     1492    11161
     1493    11162                                           /*Not an inst. Display as half word data.*/
     1494    11163    2                     LISTLINE.INST1.CF='ZERO';

  11163 38 002607   040100 100400                    MLR     fill='040'O
        38 002610   003045 000004 33                 ADSC9   PTRREGS+63               cn=0,n=4
        38 002611   200020 400010                    ADSC9   TEXTBUF+12,,AUTO         cn=2,n=8

     1495    11164    2                     TEMP_SBIN=LOC.LHX;

  11164 38 002612   200070 235100                    LDA     LOC,,AUTO
        38 002613   000022 731000                    ARS     18
        38 002614   200041 755100                    STA     TEMP_SBIN,,AUTO

     1496    11165    2                     IF VARFLD$~=ADDR(LISTLINE.INST1.VF) AND TEMP_SBIN>0 THEN

  11165 38 002615   200150 452500                    STP2    SYM_TRUNC+1,,AUTO
        38 002616   200150 236100                    LDQ     SYM_TRUNC+1,,AUTO
        38 002617   000051 036000 39                 ADLQ    41
        38 002620   200047 116100                    CMPQ    VARFLD$,,AUTO
        38 002621   002636 600000 38                 TZE     s:11180
        38 002622   000000 115003                    CMPA    0,DU
        38 002623   002636 604400 38                 TMOZ    s:11180

     1497    11166    3                       DO;

     1498    11167                                                /*
     1499    11168                                                We must have already printed something:
     1500    11169                                                Indicate a +  if positive. Negative will
     1501    11170                                                be handled by Z8IU$CONVERT_DEC_LEFT.
     1502    11171                                                */
     1503    11172                               %APP_VAR_FLD(S="'+'");

PL6.E3A0      #006=Z9IL$PRINT_LO File=Z9IL.:Z8A6TSI                              SAT 08/09/97 14:04 Page:237
  11174 38 002624   000001 236007                    LDQ     1,DL
        38 002625   200050 756100                    STQ     VARFLD#,,AUTO

  11175 38 002626   200047 470500                    LDP0    VARFLD$,,AUTO
        38 002627   000000 620006                    EAX0    0,QL
        38 002630   040140 100400                    MLR     fill='040'O
        38 002631   000040 000001 39                 ADSC9   32                       cn=0,n=1
        38 002632   000000 000010                    ADSC9   0,,PR0                   cn=0,n=*X0

  11176 38 002633   200047 236100                    LDQ     VARFLD$,,AUTO
        38 002634   200000 036007                    ADLQ    65536,DL
        38 002635   200047 756100                    STQ     VARFLD$,,AUTO

     1504    11179    3                          END;

     1505    11180    2                     CALL Z8IU$CONVERT_DEC_LEFT(VARFLDTXT,TEMP_SBIN,6,VARFLD$);

  11180 38 002636   200047 630500                    EPPR0   VARFLD$,,AUTO
        38 002637   200153 450500                    STP0    SYM_TRUNC+4,,AUTO
        38 002640   000043 236000 39                 LDQ     35
        38 002641   200152 756100                    STQ     SYM_TRUNC+3,,AUTO
        38 002642   200041 631500                    EPPR1   TEMP_SBIN,,AUTO
        38 002643   200151 451500                    STP1    SYM_TRUNC+2,,AUTO
        38 002644   200047 236100                    LDQ     VARFLD$,,AUTO
        38 002645   200150 756100                    STQ     SYM_TRUNC+1,,AUTO
        38 002646   200150 630500                    EPPR0   SYM_TRUNC+1,,AUTO
        38 002647   000041 631400 39                 EPPR1   33
        38 002650   000000 701000 xent               TSX1    Z8IU$CONVERT_DEC_LEFT
        38 002651   000000 011000                    NOP     0

     1506    11181                          %APP_VAR_FLD(S="','");

  11183 38 002652   000001 235007                    LDA     1,DL
        38 002653   200050 755100                    STA     VARFLD#,,AUTO

  11184 38 002654   200047 470500                    LDP0    VARFLD$,,AUTO
        38 002655   000000 620005                    EAX0    0,AL
PL6.E3A0      #006=Z9IL$PRINT_LO File=Z9IL.:Z8A6TSI                              SAT 08/09/97 14:04 Page:238
        38 002656   040140 100400                    MLR     fill='040'O
        38 002657   000061 000001 39                 ADSC9   49                       cn=0,n=1
        38 002660   000000 000010                    ADSC9   0,,PR0                   cn=0,n=*X0

  11185 38 002661   200047 236100                    LDQ     VARFLD$,,AUTO
        38 002662   200000 036007                    ADLQ    65536,DL
        38 002663   200047 756100                    STQ     VARFLD$,,AUTO

     1507    11188    2                     TEMP_SBIN=LOC.RHX;

  11188 38 002664   200070 236100                    LDQ     LOC,,AUTO
        38 002665   000022 736000                    QLS     18
        38 002666   000022 732000                    QRS     18
        38 002667   200041 756100                    STQ     TEMP_SBIN,,AUTO

     1508    11189    2                     CALL Z8IU$CONVERT_DEC_LEFT(VARFLDTXT,TEMP_SBIN,6);

  11189 38 002670   000043 236000 39                 LDQ     35
        38 002671   200152 756100                    STQ     SYM_TRUNC+3,,AUTO
        38 002672   200041 630500                    EPPR0   TEMP_SBIN,,AUTO
        38 002673   200151 450500                    STP0    SYM_TRUNC+2,,AUTO
        38 002674   200047 236100                    LDQ     VARFLD$,,AUTO
        38 002675   200150 756100                    STQ     SYM_TRUNC+1,,AUTO
        38 002676   200150 630500                    EPPR0   SYM_TRUNC+1,,AUTO
        38 002677   000032 631400 39                 EPPR1   26
        38 002700   000000 701000 xent               TSX1    Z8IU$CONVERT_DEC_LEFT
        38 002701   000000 011000                    NOP     0

     1509    11190
     1510    11191    2   END TRN_HALFW;

  11191 38 002702   200134 221300                    LDX1  ! @SECT_PTR+1,,AUTO
        38 002703   000001 702211                    TSX2  ! 1,X1

     1511    11192        %EJECT;
PL6.E3A0      #006=Z9IL$PRINT_LO File=Z9IL.:Z8A6TSI                              SAT 08/09/97 14:04 Page:239
     1512    11193    1   TRN_INST : PROC;

  11193 38 002704   200132 741300       TRN_INST     STX1  ! @TYPE,,AUTO

     1513    11194
     1514    11195    2          OPCODE = LOC.RH.OP;

  11195 38 002705   200070 236100                    LDQ     LOC,,AUTO
        38 002706   000011 772000                    QRL     9
        38 002707   000777 376007                    ANQ     511,DL
        38 002710   200100 756100                    STQ     OPCODE,,AUTO

     1515    11196    2          IF LOC.RH.EIS THEN

  11196 38 002711   200070 236100                    LDQ     LOC,,AUTO
        38 002712   000400 316007                    CANQ    256,DL
        38 002713   002717 600000 38                 TZE     s:11198

     1516    11197    2            OPCODE = OPCODE + 512;

  11197 38 002714   200100 235100                    LDA     OPCODE,,AUTO
        38 002715   001000 035007                    ADLA    512,DL
        38 002716   200100 755100                    STA     OPCODE,,AUTO

     1517    11198    2          LISTLINE.INST1.CF = OPCODES.MNE(OPCODE);

  11198 38 002717   200100 235100                    LDA     OPCODE,,AUTO
        38 002720   000002 735000                    ALS     2
        38 002721   040100 100405                    MLR     fill='040'O
        38 002722   000413 000004 33                 ADSC9   OPCODES+256,A            cn=0,n=4
        38 002723   200020 400010                    ADSC9   TEXTBUF+12,,AUTO         cn=2,n=8

     1518    11199
     1519    11200    2                IF LISTLINE.INST1.CF=' ' THEN

  11200 38 002724   040000 106500                    CMPC    fill='040'O
        38 002725   200020 400010                    ADSC9   TEXTBUF+12,,AUTO         cn=2,n=8
PL6.E3A0      #006=Z9IL$PRINT_LO File=Z9IL.:Z8A6TSI                              SAT 08/09/97 14:04 Page:240
        38 002726   000004 000001 39                 ADSC9   4                        cn=0,n=1
        38 002727   002733 601000 38                 TNZ     s:11208

     1520    11201    3                  DO;

     1521    11202    3                    CALL TRN_HALFW;

  11202 38 002730   002606 701000 38                 TSX1    TRN_HALFW
        38 002731   000000 011000                    NOP     0

     1522    11203    3                  END;

  11203 38 002732   003415 710000 38                 TRA     NOVARFLD

     1523    11204    2                ELSE
     1524    11205    3                  DO;

     1525    11206                                           /*It's an inst. Insert !(bang) if inhibit
     1526    11207                                           bit set in inst.                           */
     1527    11208    3                     IF LOC.RH.INHIB THEN

  11208 38 002733   000200 316007                    CANQ    128,DL
        38 002734   002737 600000 38                 TZE     s:11210

     1528    11209    3                        LISTLINE.INST1.CF1.C3='!';

  11209 38 002735   041040 220003                    LDX0    16928,DU
        38 002736   200022 740100                    STX0    TEXTBUF+14,,AUTO

     1529    11210    3                     TAG_FIELD=LOC.RH1.TAG_SIX;

  11210 38 002737   200070 236100                    LDQ     LOC,,AUTO
        38 002740   000077 376007                    ANQ     63,DL
        38 002741   200061 756100                    STQ     TAG_FIELD,,AUTO

     1530    11211
     1531    11212    4                     DO CASE(OPCODES.MISC(OPCODE));
PL6.E3A0      #006=Z9IL$PRINT_LO File=Z9IL.:Z8A6TSI                              SAT 08/09/97 14:04 Page:241

  11212 38 002742   200100 235100                    LDA     OPCODE,,AUTO
        38 002743   000100 101405                    MRL     fill='000'O
        38 002744   000013 000001 33                 ADSC9   OPCODES,A                cn=0,n=1
        38 002745   200150 000002                    ADSC9   SYM_TRUNC+1,,AUTO        cn=0,n=2
        38 002746   200150 220100                    LDX0    SYM_TRUNC+1,,AUTO
        38 002747   000042 100003                    CMPX0   34,DU
        38 002750   002752 602010 38                 TNC     s:11212+8,X0
        38 002751   003372 710000 38                 TRA     s:11379
        38 002752   003403 710000 38                 TRA     s:11381
        38 002753   003360 710000 38                 TRA     s:11374
        38 002754   003403 710000 38                 TRA     s:11381
        38 002755   003025 710000 38                 TRA     s:11233
        38 002756   003142 710000 38                 TRA     s:11272
        38 002757   003172 710000 38                 TRA     s:11290
        38 002760   003227 710000 38                 TRA     s:11300
        38 002761   003237 710000 38                 TRA     s:11307
        38 002762   003244 710000 38                 TRA     s:11312
        38 002763   003251 710000 38                 TRA     s:11317
        38 002764   003273 710000 38                 TRA     s:11333
        38 002765   003300 710000 38                 TRA     s:11338
        38 002766   003403 710000 38                 TRA     s:11381
        38 002767   003355 710000 38                 TRA     s:11370
        38 002770   003355 710000 38                 TRA     s:11370
        38 002771   003256 710000 38                 TRA     s:11322
        38 002772   003266 710000 38                 TRA     s:11328
        38 002773   003065 710000 38                 TRA     s:11245
        38 002774   003147 710000 38                 TRA     s:11277
        38 002775   003075 710000 38                 TRA     s:11250
        38 002776   003075 710000 38                 TRA     s:11250
        38 002777   003075 710000 38                 TRA     s:11250
        38 003000   003075 710000 38                 TRA     s:11250
        38 003001   003075 710000 38                 TRA     s:11250
        38 003002   003115 710000 38                 TRA     s:11258
        38 003003   003115 710000 38                 TRA     s:11258
        38 003004   003115 710000 38                 TRA     s:11258
        38 003005   003115 710000 38                 TRA     s:11258
PL6.E3A0      #006=Z9IL$PRINT_LO File=Z9IL.:Z8A6TSI                              SAT 08/09/97 14:04 Page:242
        38 003006   003135 710000 38                 TRA     s:11267
        38 003007   003135 710000 38                 TRA     s:11267
        38 003010   003165 710000 38                 TRA     s:11285
        38 003011   003165 710000 38                 TRA     s:11285
        38 003012   003372 710000 38                 TRA     s:11379
        38 003013   003014 710000 38                 TRA     s:11223

     1532    11213                                                /*Take special action as required for
     1533    11214                                                certain instructions.*/
     1534    11215
     1535    11216    4                      CASE(Z);

     1536    11217                                                /*No special action.*/
     1537    11218
     1538    11219    4                      CASE(AWDXP);

     1539    11220                                               /* The AR bit is not on for
     1540    11221                                                  AWDX instruction, we turn
     1541    11222                                                  it on for correct listout */
     1542    11223    4                        IF NOT LOC.RH.PR THEN

  11223 38 003014   200070 236100                    LDQ     LOC,,AUTO
        38 003015   000100 316007                    CANQ    64,DL
        38 003016   003403 601000 38                 TNZ     s:11381

     1543    11224    5                          DO;

     1544    11225    5                            LOC.RH.PR = '1'B;

  11225 38 003017   000100 236007                    LDQ     64,DL
        38 003020   200070 256100                    ORSQ    LOC,,AUTO

     1545    11226    5                            LISTLINE.INST1.CF = 'AWDX';

  11226 38 003021   040100 100400                    MLR     fill='040'O
        38 003022   003046 000004 33                 ADSC9   PTRREGS+64               cn=0,n=4
        38 003023   200020 400010                    ADSC9   TEXTBUF+12,,AUTO         cn=2,n=8
PL6.E3A0      #006=Z9IL$PRINT_LO File=Z9IL.:Z8A6TSI                              SAT 08/09/97 14:04 Page:243

     1546    11227    5                          END;

  11227 38 003024   003403 710000 38                 TRA     s:11381

     1547    11228
     1548    11229    4                      CASE(TRNSFR);

     1549    11230                             /* SPECIAL ACTIONS DELETED */
     1550    11231
     1551    11232    4                      CASE(MVE);

     1552    11233    4                        FOLLOW#      = 3;

  11233 38 003025   000003 235007                    LDA     3,DL
        38 003026   200045 755100                    STA     FOLLOW#,,AUTO

     1553    11234    4                        FOLLOW       = FOLLOW_CD * 4096 + FOLLOW_CD * 64 + FOLLOW_CD;

  11234 38 003027   030303 235007                    LDA     12483,DL
        38 003030   200043 755100                    STA     FOLLOW,,AUTO

     1554    11235    4   SETFOLLOW:           EISDESC#     = 0;

  11235 38 003031   200077 450100       SETFOLLOW    STZ     EISDESC#,,AUTO

     1555    11236    4                        EISTAGS(0)   = LOCEIS.TAG1;

  11236 38 003032   200070 236100                    LDQ     LOC,,AUTO
        38 003033   000017 376007                    ANQ     15,DL
        38 003034   000036 736000                    QLS     30
        38 003035   200071 756100                    STQ     EISTAGS,,AUTO

     1556    11237    4                        EISTAGS(1)   = LOCEIS.TAG2;

  11237 38 003036   200070 236100                    LDQ     LOC,,AUTO
        38 003037   000022 772000                    QRL     18
PL6.E3A0      #006=Z9IL$PRINT_LO File=Z9IL.:Z8A6TSI                              SAT 08/09/97 14:04 Page:244
        38 003040   000017 376007                    ANQ     15,DL
        38 003041   000036 736000                    QLS     30
        38 003042   200072 756100                    STQ     EISTAGS+1,,AUTO

     1557    11238    4                        EISTAGS(2)   = LOCEIS.TAG3;

  11238 38 003043   200070 236100                    LDQ     LOC,,AUTO
        38 003044   000033 772000                    QRL     27
        38 003045   000017 376007                    ANQ     15,DL
        38 003046   000036 736000                    QLS     30
        38 003047   200073 756100                    STQ     EISTAGS+2,,AUTO

     1558    11239    4                        EISMF(0)     = LOCEIS.MF1;

  11239 38 003050   200070 236100                    LDQ     LOC,,AUTO
        38 003051   000035 736000                    QLS     29
        38 003052   700000 376003                    ANQ     -32768,DU
        38 003053   200074 756100                    STQ     EISMF,,AUTO

     1559    11240    4                        EISMF(1)     = LOCEIS.MF2;

  11240 38 003054   200070 236100                    LDQ     LOC,,AUTO
        38 003055   000013 736000                    QLS     11
        38 003056   700000 376003                    ANQ     -32768,DU
        38 003057   200075 756100                    STQ     EISMF+1,,AUTO

     1560    11241    4                        EISMF(2)     = LOCEIS.MF3;

  11241 38 003060   200070 236100                    LDQ     LOC,,AUTO
        38 003061   000002 736000                    QLS     2
        38 003062   700000 376003                    ANQ     -32768,DU
        38 003063   200076 756100                    STQ     EISMF+2,,AUTO

     1561    11242    4                        GOTO NOVARFLD;

  11242 38 003064   003415 710000 38                 TRA     NOVARFLD

PL6.E3A0      #006=Z9IL$PRINT_LO File=Z9IL.:Z8A6TSI                              SAT 08/09/97 14:04 Page:245
     1562    11243
     1563    11244    4                      CASE(MVNEX);

     1564    11245    4                        LISTLINE.INST1.CF = 'MVNEX';

  11245 38 003065   040100 100400                    MLR     fill='040'O
        38 003066   003047 000005 33                 ADSC9   PTRREGS+65               cn=0,n=5
        38 003067   200020 400010                    ADSC9   TEXTBUF+12,,AUTO         cn=2,n=8

     1565    11246    4                        FOLLOW# = 3;

  11246 38 003070   000003 235007                    LDA     3,DL
        38 003071   200045 755100                    STA     FOLLOW#,,AUTO

     1566    11247    4                        FOLLOW  = FOLLOW_CD * 4096 + FOLLOW_CD * 64 + FOLLOW_ND;

  11247 38 003072   030301 235007                    LDA     12481,DL
        38 003073   200043 755100                    STA     FOLLOW,,AUTO

     1567    11248    4                        GOTO SETFOLLOW;

  11248 38 003074   003031 710000 38                 TRA     SETFOLLOW

     1568    11249    4                      CASE(CMPNX,AD2DX,SB2DX,MP2DX,DV2DX);

     1569    11250    4                        LISTLINE.INST1.CF1.C2 = 'X';

  11250 38 003075   130040 222003                    LDX2    45088,DU
        38 003076   200021 442100                    SXL2    TEXTBUF+13,,AUTO

     1570    11251    4                        FOLLOW#=2;

  11251 38 003077   000002 235007                    LDA     2,DL
        38 003100   200045 755100                    STA     FOLLOW#,,AUTO

     1571    11252    4                        IF LOCEIS.NS

PL6.E3A0      #006=Z9IL$PRINT_LO File=Z9IL.:Z8A6TSI                              SAT 08/09/97 14:04 Page:246
  11252 38 003101   200070 236100                    LDQ     LOC,,AUTO
        38 003102   200000 316003                    CANQ    65536,DU
        38 003103   003107 600000 38                 TZE     s:11254

     1572    11253    4                          THEN FOLLOW = FOLLOW_ND;

  11253 38 003104   000001 235007                    LDA     1,DL
        38 003105   200043 755100                    STA     FOLLOW,,AUTO
        38 003106   003111 710000 38                 TRA     s:11255

     1573    11254    4                          ELSE FOLLOW = FOLLOW_NDO;

  11254 38 003107   000006 235007                    LDA     6,DL
        38 003110   200043 755100                    STA     FOLLOW,,AUTO

     1574    11255    4                        FOLLOW = FOLLOW * 64 + FOLLOW_NDO;

  11255 38 003111   000006 735000                    ALS     6
        38 003112   000006 035007                    ADLA    6,DL
        38 003113   200043 755100                    STA     FOLLOW,,AUTO

     1575    11256    4                        GOTO SETFOLLOW;

  11256 38 003114   003031 710000 38                 TRA     SETFOLLOW

     1576    11257    4                      CASE(AD3DX,SB3DX,MP3DX,DV3DX);

     1577    11258    4                        LISTLINE.INST1.CF1.C2 = 'X';

  11258 38 003115   130040 222003                    LDX2    45088,DU
        38 003116   200021 442100                    SXL2    TEXTBUF+13,,AUTO

     1578    11259    4                        FOLLOW# = 3;

  11259 38 003117   000003 235007                    LDA     3,DL
        38 003120   200045 755100                    STA     FOLLOW#,,AUTO

PL6.E3A0      #006=Z9IL$PRINT_LO File=Z9IL.:Z8A6TSI                              SAT 08/09/97 14:04 Page:247
     1579    11260    4                        IF LOCEIS.NS

  11260 38 003121   200070 236100                    LDQ     LOC,,AUTO
        38 003122   200000 316003                    CANQ    65536,DU
        38 003123   003127 600000 38                 TZE     s:11262

     1580    11261    4                          THEN FOLLOW = FOLLOW_ND;

  11261 38 003124   000001 235007                    LDA     1,DL
        38 003125   200043 755100                    STA     FOLLOW,,AUTO
        38 003126   003131 710000 38                 TRA     s:11263

     1581    11262    4                          ELSE FOLLOW = FOLLOW_NDO;

  11262 38 003127   000006 235007                    LDA     6,DL
        38 003130   200043 755100                    STA     FOLLOW,,AUTO

     1582    11263    4                        FOLLOW  = FOLLOW * 4096 + FOLLOW_NDO * 64 + FOLLOW_NDO;

  11263 38 003131   000014 735000                    ALS     12
        38 003132   000606 035007                    ADLA    390,DL
        38 003133   200043 755100                    STA     FOLLOW,,AUTO

     1583    11264    4                        GOTO SETFOLLOW;

  11264 38 003134   003031 710000 38                 TRA     SETFOLLOW

     1584    11265
     1585    11266    4                      CASE(MRF, MMF);

     1586    11267    4                        FOLLOW#=2;

  11267 38 003135   000002 235007                    LDA     2,DL
        38 003136   200045 755100                    STA     FOLLOW#,,AUTO

     1587    11268    4                        FOLLOW = FOLLOW_ND * 64 + FOLLOW_ND;

PL6.E3A0      #006=Z9IL$PRINT_LO File=Z9IL.:Z8A6TSI                              SAT 08/09/97 14:04 Page:248
  11268 38 003137   000101 235007                    LDA     65,DL
        38 003140   200043 755100                    STA     FOLLOW,,AUTO

     1588    11269    4                        GOTO SETFOLLOW;

  11269 38 003141   003031 710000 38                 TRA     SETFOLLOW

     1589    11270
     1590    11271    4                      CASE(MVNE);

     1591    11272    4                        FOLLOW# = 3;

  11272 38 003142   000003 235007                    LDA     3,DL
        38 003143   200045 755100                    STA     FOLLOW#,,AUTO

     1592    11273    4                        FOLLOW  = FOLLOW_CD * 4096 + FOLLOW_CD * 64 + FOLLOW_ND;

  11273 38 003144   030301 235007                    LDA     12481,DL
        38 003145   200043 755100                    STA     FOLLOW,,AUTO

     1593    11274    4                        GOTO SETFOLLOW;

  11274 38 003146   003031 710000 38                 TRA     SETFOLLOW

     1594    11275
     1595    11276    4                      CASE(MVNX);

     1596    11277    4                        FOLLOW#=2;

  11277 38 003147   000002 235007                    LDA     2,DL
        38 003150   200045 755100                    STA     FOLLOW#,,AUTO

     1597    11278    4                        IF LOCEIS.NS

  11278 38 003151   200070 236100                    LDQ     LOC,,AUTO
        38 003152   200000 316003                    CANQ    65536,DU
        38 003153   003157 600000 38                 TZE     s:11280
PL6.E3A0      #006=Z9IL$PRINT_LO File=Z9IL.:Z8A6TSI                              SAT 08/09/97 14:04 Page:249

     1598    11279    4                          THEN FOLLOW = FOLLOW_ND;

  11279 38 003154   000001 235007                    LDA     1,DL
        38 003155   200043 755100                    STA     FOLLOW,,AUTO
        38 003156   003161 710000 38                 TRA     s:11281

     1599    11280    4                          ELSE FOLLOW = FOLLOW_NDO;

  11280 38 003157   000006 235007                    LDA     6,DL
        38 003160   200043 755100                    STA     FOLLOW,,AUTO

     1600    11281    4                        FOLLOW = FOLLOW * 64 + FOLLOW_NDO;

  11281 38 003161   000006 735000                    ALS     6
        38 003162   000006 035007                    ADLA    6,DL
        38 003163   200043 755100                    STA     FOLLOW,,AUTO

     1601    11282    4                        GOTO SETFOLLOW;

  11282 38 003164   003031 710000 38                 TRA     SETFOLLOW

     1602    11283
     1603    11284    4                      CASE(MTR,MTM);

     1604    11285    4                         FOLLOW# = 1;

  11285 38 003165   000001 235007                    LDA     1,DL
        38 003166   200045 755100                    STA     FOLLOW#,,AUTO

     1605    11286    4                         FOLLOW =  FOLLOW_NDS;

  11286 38 003167   000007 235007                    LDA     7,DL
        38 003170   200043 755100                    STA     FOLLOW,,AUTO

     1606    11287    4                         GOTO SETFOLLOW;

PL6.E3A0      #006=Z9IL$PRINT_LO File=Z9IL.:Z8A6TSI                              SAT 08/09/97 14:04 Page:250
  11287 38 003171   003031 710000 38                 TRA     SETFOLLOW

     1607    11288
     1608    11289    4                      CASE(BT);

     1609    11290    4                        FOLLOW#           = 2;

  11290 38 003172   000002 235007                    LDA     2,DL
        38 003173   200045 755100                    STA     FOLLOW#,,AUTO

     1610    11291    4                        FOLLOW            = FOLLOW_BD * 64 + FOLLOW_BD;

  11291 38 003174   000404 235007                    LDA     260,DL
        38 003175   200043 755100                    STA     FOLLOW,,AUTO

     1611    11292    4                        LISTLINE.INST1.VF = 'bolr=''   ''O';

  11292 38 003176   040100 100400                    MLR     fill='040'O
        38 003177   003051 000013 33                 ADSC9   PTRREGS+67               cn=0,n=11
        38 003200   200022 400030                    ADSC9   TEXTBUF+14,,AUTO         cn=2,n=24

  11292 38 003201                       SETBOLR      null
     1612    11293    4   SETBOLR:             ;
     1613    11294    4                        ENT#              = LOCEIS1.FILL;

  11294 38 003201   200070 236100                    LDQ     LOC,,AUTO
        38 003202   000033 772000                    QRL     27
        38 003203   000000 620006                    EAX0    0,QL
        38 003204   200052 740100                    STX0    ENT#,,AUTO

     1614    11295    4                        CALL Z8IU$CONVERT_OCTAL(TEMPC,BINBIT(ENT#,36));

  11295 38 003205   200052 236100                    LDQ     ENT#,,AUTO
        38 003206   000022 732000                    QRS     18
        38 003207   200150 756100                    STQ     SYM_TRUNC+1,,AUTO
        38 003210   200150 630500                    EPPR0   SYM_TRUNC+1,,AUTO
        38 003211   200153 450500                    STP0    SYM_TRUNC+4,,AUTO
PL6.E3A0      #006=Z9IL$PRINT_LO File=Z9IL.:Z8A6TSI                              SAT 08/09/97 14:04 Page:251
        38 003212   200053 631500                    EPPR1   TEMPC,,AUTO
        38 003213   200152 451500                    STP1    SYM_TRUNC+3,,AUTO
        38 003214   200152 630500                    EPPR0   SYM_TRUNC+3,,AUTO
        38 003215   000000 631400 39                 EPPR1   0
        38 003216   000000 701000 xent               TSX1    Z8IU$CONVERT_OCTAL
        38 003217   000000 011000                    NOP     0

     1615    11296    4                        CALL INSERT(LISTLINE.INST1.VF,6,3,SUBSTR(TEMPC,3,3));

  11296 38 003220   200053 235100                    LDA     TEMPC,,AUTO
        38 003221   200054 236100                    LDQ     TEMPC+1,,AUTO
        38 003222   000011 773000                    LRL     9
        38 003223   000062 376000 39                 ANQ     50
        38 003224   000040 276007                    ORQ     32,DL
        38 003225   200024 552170                    STBQ    TEXTBUF+16,'70'O,AUTO

     1616    11297    4                        GOTO SETFOLLOW;

  11297 38 003226   003031 710000 38                 TRA     SETFOLLOW

     1617    11298
     1618    11299    4                      CASE(CH);

     1619    11300    4                        FOLLOW#           = 2;

  11300 38 003227   000002 235007                    LDA     2,DL
        38 003230   200045 755100                    STA     FOLLOW#,,AUTO

     1620    11301    4                        FOLLOW            = FOLLOW_CD * 64 + FOLLOW_CD;

  11301 38 003231   000303 235007                    LDA     195,DL
        38 003232   200043 755100                    STA     FOLLOW,,AUTO

  11301 38 003233                       SETFILL      null
     1621    11302    4   SETFILL:             ;
     1622    11303    4                        LISTLINE.INST1.VF = 'fill=''   ''O';

PL6.E3A0      #006=Z9IL$PRINT_LO File=Z9IL.:Z8A6TSI                              SAT 08/09/97 14:04 Page:252
  11303 38 003233   040100 100400                    MLR     fill='040'O
        38 003234   003054 000013 33                 ADSC9   PTRREGS+70               cn=0,n=11
        38 003235   200022 400030                    ADSC9   TEXTBUF+14,,AUTO         cn=2,n=24

     1623    11304    4                        GOTO SETBOLR;

  11304 38 003236   003201 710000 38                 TRA     SETBOLR

     1624    11305
     1625    11306    4                      CASE(DEC_3);

     1626    11307    4                        FOLLOW#=3;

  11307 38 003237   000003 235007                    LDA     3,DL
        38 003240   200045 755100                    STA     FOLLOW#,,AUTO

     1627    11308    4                        FOLLOW = FOLLOW_ND * 4096 + FOLLOW_ND * 64 + FOLLOW_ND;

  11308 38 003241   010101 235007                    LDA     4161,DL
        38 003242   200043 755100                    STA     FOLLOW,,AUTO

     1628    11309    4                        GOTO SETFOLLOW;

  11309 38 003243   003031 710000 38                 TRA     SETFOLLOW

     1629    11310
     1630    11311    4                      CASE(DEC_2);

     1631    11312    4                        FOLLOW#=2;

  11312 38 003244   000002 235007                    LDA     2,DL
        38 003245   200045 755100                    STA     FOLLOW#,,AUTO

     1632    11313    4                        FOLLOW = FOLLOW_ND * 64 + FOLLOW_ND;

  11313 38 003246   000101 235007                    LDA     65,DL
        38 003247   200043 755100                    STA     FOLLOW,,AUTO
PL6.E3A0      #006=Z9IL$PRINT_LO File=Z9IL.:Z8A6TSI                              SAT 08/09/97 14:04 Page:253

     1633    11314    4                        GOTO SETFOLLOW;

  11314 38 003250   003031 710000 38                 TRA     SETFOLLOW

     1634    11315
     1635    11316    4                      CASE(SC);

     1636    11317    4                        FOLLOW#=3;

  11317 38 003251   000003 235007                    LDA     3,DL
        38 003252   200045 755100                    STA     FOLLOW#,,AUTO

     1637    11318    4                        FOLLOW = FOLLOW_WD * 4096 + FOLLOW_CD * 64 + FOLLOW_CD;

  11318 38 003253   020303 235007                    LDA     8387,DL
        38 003254   200043 755100                    STA     FOLLOW,,AUTO

     1638    11319    4                        GOTO SETFILL;

  11319 38 003255   003233 710000 38                 TRA     SETFILL

     1639    11320
     1640    11321    4                      CASE(SCM);

     1641    11322    4                        FOLLOW#=3;

  11322 38 003256   000003 235007                    LDA     3,DL
        38 003257   200045 755100                    STA     FOLLOW#,,AUTO

     1642    11323    4                        FOLLOW = FOLLOW_WD * 4096 + FOLLOW_CD * 64 + FOLLOW_CD;

  11323 38 003260   020303 235007                    LDA     8387,DL
        38 003261   200043 755100                    STA     FOLLOW,,AUTO

     1643    11324    4                        LISTLINE.INST1.VF='mask=''   ''O';

PL6.E3A0      #006=Z9IL$PRINT_LO File=Z9IL.:Z8A6TSI                              SAT 08/09/97 14:04 Page:254
  11324 38 003262   040100 100400                    MLR     fill='040'O
        38 003263   003057 000013 33                 ADSC9   PTRREGS+73               cn=0,n=11
        38 003264   200022 400030                    ADSC9   TEXTBUF+14,,AUTO         cn=2,n=24

     1644    11325    4                        GOTO SETBOLR;

  11325 38 003265   003201 710000 38                 TRA     SETBOLR

     1645    11326
     1646    11327    4                      CASE(SCD);

     1647    11328    4                        FOLLOW#=3;

  11328 38 003266   000003 235007                    LDA     3,DL
        38 003267   200045 755100                    STA     FOLLOW#,,AUTO

     1648    11329    4                        FOLLOW = FOLLOW_WD * 4096 + FOLLOW_CD * 64 + FOLLOW_CD;

  11329 38 003270   020303 235007                    LDA     8387,DL
        38 003271   200043 755100                    STA     FOLLOW,,AUTO

     1649    11330    4                        GOTO SETFOLLOW;

  11330 38 003272   003031 710000 38                 TRA     SETFOLLOW

     1650    11331
     1651    11332    4                      CASE(TC);

     1652    11333    4                        FOLLOW#=3;

  11333 38 003273   000003 235007                    LDA     3,DL
        38 003274   200045 755100                    STA     FOLLOW#,,AUTO

     1653    11334    4                        FOLLOW = FOLLOW_WD * 4096 + FOLLOW_WD * 64 + FOLLOW_CD;

  11334 38 003275   020203 235007                    LDA     8323,DL
        38 003276   200043 755100                    STA     FOLLOW,,AUTO
PL6.E3A0      #006=Z9IL$PRINT_LO File=Z9IL.:Z8A6TSI                              SAT 08/09/97 14:04 Page:255

     1654    11335    4                        GOTO SETFOLLOW;

  11335 38 003277   003031 710000 38                 TRA     SETFOLLOW

     1655    11336
     1656    11337    4                      CASE(CL);

     1657    11338    4                        FOLLOW#           = 1;

  11338 38 003300   000001 235007                    LDA     1,DL
        38 003301   200045 755100                    STA     FOLLOW#,,AUTO

     1658    11339    4                        FOLLOW            = FOLLOW_SI;

  11339 38 003302   000005 235007                    LDA     5,DL
        38 003303   200043 755100                    STA     FOLLOW,,AUTO

     1659    11340    4                        LISTLINE.INST1.CF1.C2 =  'B';

  11340 38 003304   102040 222003                    LDX2    33824,DU
        38 003305   200021 442100                    SXL2    TEXTBUF+13,,AUTO

     1660    11341    4                        IF LOC.LHR.ALT

  11341 38 003306   200070 234100                    SZN     LOC,,AUTO
        38 003307   003324 605000 38                 TPL     s:11352

     1661    11342    5                        THEN DO;

     1662    11343                                  %APP_VAR_FLD(S="'alt,'");

  11345 38 003310   000004 235007                    LDA     4,DL
        38 003311   200050 755100                    STA     VARFLD#,,AUTO

  11346 38 003312   200047 470500                    LDP0    VARFLD$,,AUTO
        38 003313   000000 623005                    EAX3    0,AL
PL6.E3A0      #006=Z9IL$PRINT_LO File=Z9IL.:Z8A6TSI                              SAT 08/09/97 14:04 Page:256
        38 003314   040140 100400                    MLR     fill='040'O
        38 003315   003062 000004 33                 ADSC9   PTRREGS+76               cn=0,n=4
        38 003316   000000 000013                    ADSC9   0,,PR0                   cn=0,n=*X3

  11347 38 003317   200047 236100                    LDQ     VARFLD$,,AUTO
        38 003320   000001 036003                    ADLQ    1,DU
        38 003321   200047 756100                    STQ     VARFLD$,,AUTO

     1663    11350    5                             LOC.LHR.ALT='0'B;

  11350 38 003322   000063 236000 39                 LDQ     51
        38 003323   200070 356100                    ANSQ    LOC,,AUTO

     1664    11351    5                             END;

     1665    11352    4                        TEMP_UBIN=0;

  11352 38 003324   200051 450100                    STZ     TEMP_UBIN,,AUTO

     1666    11353    5                        DO WHILE(TEMP_UBIN<SIZEW(PMMECODES)/SIZEW(PMMECODES(0)));

  11353 38 003325   003351 710000 38                 TRA     s:11361

     1667    11354    5                           IF LOC.LHR.PMMECODE=PMMECODES(TEMP_UBIN)

  11354 38 003326   200051 720100                    LXL0    TEMP_UBIN,,AUTO
        38 003327   200070 236100                    LDQ     LOC,,AUTO
        38 003330   000022 772000                    QRL     18
        38 003331   377777 376007                    ANQ     131071,DL
        38 003332   002535 116010 33                 CMPQ    PMMECODES,X0
        38 003333   003346 601000 38                 TNZ     s:11360

     1668    11355    6                           THEN DO;

     1669    11356    6                                VARFLD#=8;

  11356 38 003334   000010 235007                    LDA     8,DL
PL6.E3A0      #006=Z9IL$PRINT_LO File=Z9IL.:Z8A6TSI                              SAT 08/09/97 14:04 Page:257
        38 003335   200050 755100                    STA     VARFLD#,,AUTO

     1670    11357    6                                VARFLDTX=PMMENAMES(TEMP_UBIN);

  11357 38 003336   200051 235100                    LDA     TEMP_UBIN,,AUTO
        38 003337   000003 735000                    ALS     3
        38 003340   200047 470500                    LDP0    VARFLD$,,AUTO
        38 003341   200050 721100                    LXL1    VARFLD#,,AUTO
        38 003342   040140 100405                    MLR     fill='040'O
        38 003343   002545 000010 33                 ADSC9   PMMENAMES,A              cn=0,n=8
        38 003344   000000 000011                    ADSC9   0,,PR0                   cn=0,n=*X1

     1671    11358    6                                GOTO NOVARFLD;

  11358 38 003345   003415 710000 38                 TRA     NOVARFLD

     1672    11359    6                                END;
     1673    11360    5                           TEMP_UBIN=TEMP_UBIN+1;

  11360 38 003346   200051 235100                    LDA     TEMP_UBIN,,AUTO
        38 003347   000001 035007                    ADLA    1,DL
        38 003350   200051 755100                    STA     TEMP_UBIN,,AUTO

     1674    11361    5                           END;

  11361 38 003351   200051 235100                    LDA     TEMP_UBIN,,AUTO
        38 003352   000010 115007                    CMPA    8,DL
        38 003353   003326 602000 38                 TNC     s:11354
        38 003354   003403 710000 38                 TRA     s:11381

     1675    11362
     1676    11363    4                      CASE(NOP);

     1677    11364
     1678    11365    4                      CASE(STCASTCQ,STBASTBQ);

     1679    11366                                                /*
PL6.E3A0      #006=Z9IL$PRINT_LO File=Z9IL.:Z8A6TSI                              SAT 08/09/97 14:04 Page:258
     1680    11367                                                Special case stc(a/q) instruction so
     1681    11368                                                that tag field is output in octal.
     1682    11369                                                */
     1683    11370    4                        TAG_FIELD=LOC.RH1.TAG_SIX+64;

  11370 38 003355   000100 036007                    ADLQ    64,DL
        38 003356   200061 756100                    STQ     TAG_FIELD,,AUTO
        38 003357   003403 710000 38                 TRA     s:11381

     1684    11371
     1685    11372    4                      CASE(E8);

     1686    11373                                                /*Eight each type inst. Insert reg #. */
     1687    11374    4                        LISTLINE.INST1.CF1.C2=BINASC(LOC.RH1.REG+ASCBIN('0'));

  11374 38 003360   200070 236100                    LDQ     LOC,,AUTO
        38 003361   000011 772000                    QRL     9
        38 003362   000007 376007                    ANQ     7,DL
        38 003363   000060 036007                    ADLQ    48,DL
        38 003364   000033 736000                    QLS     27
        38 003365   000064 276000 39                 ORQ     52
        38 003366   000022 772000                    QRL     18
        38 003367   000000 622006                    EAX2    0,QL
        38 003370   200021 442100                    SXL2    TEXTBUF+13,,AUTO
        38 003371   003403 710000 38                 TRA     s:11381

     1688    11375
     1689    11376    4                      CASE(ELSE);

     1690    11377                                           /*All else are the literal fifth characters
     1691    11378                                           of the mnemonic. Just insert it.*/
     1692    11379    4                        LISTLINE.INST1.CF1.C2=BINASC(OPCODES.MISC(OPCODE));

  11379 38 003372   000100 101405                    MRL     fill='000'O
        38 003373   000013 000001 33                 ADSC9   OPCODES,A                cn=0,n=1
        38 003374   200150 000004                    ADSC9   SYM_TRUNC+1,,AUTO        cn=0,n=4
        38 003375   200150 236100                    LDQ     SYM_TRUNC+1,,AUTO
PL6.E3A0      #006=Z9IL$PRINT_LO File=Z9IL.:Z8A6TSI                              SAT 08/09/97 14:04 Page:259
        38 003376   000033 736000                    QLS     27
        38 003377   000064 276000 39                 ORQ     52
        38 003400   000022 772000                    QRL     18
        38 003401   000000 620006                    EAX0    0,QL
        38 003402   200021 440100                    SXL0    TEXTBUF+13,,AUTO

     1693    11380    4                      END;

     1694    11381    3                     VARFLD_PARAM_BIT_ALIGNED = LOC.RH.PR;

  11381 38 003403   200070 236100                    LDQ     LOC,,AUTO
        38 003404   000035 736000                    QLS     29
        38 003405   400000 376003                    ANQ     -131072,DU
        38 003406   200064 756100                    STQ     VARFLD_PARAM_BIT_ALIGNED,,AUTO

     1695    11382    3                     CALL VARFLD(VARFLD_PARAM_BIT_ALIGNED,TAG_FIELD);

  11382 38 003407   200061 630500                    EPPR0   TAG_FIELD,,AUTO
        38 003410   200136 450500                    STP0    @P_TAG,,AUTO
        38 003411   200064 631500                    EPPR1   VARFLD_PARAM_BIT_ALIGNED,,AUTO
        38 003412   200135 451500                    STP1    @PRBIT,,AUTO
        38 003413   000752 701000 38                 TSX1    VARFLD
        38 003414   000000 011000                    NOP     0

     1696    11383    3   NOVARFLD:
     1697    11384    3                     END;

  11384 38 003415                       NOVARFLD     null
     1698    11385
     1699    11386    2   END TRN_INST;

  11386 38 003415   200132 221300                    LDX1  ! @TYPE,,AUTO
        38 003416   000001 702211                    TSX2  ! 1,X1

     1700    11387        %EJECT;
PL6.E3A0      #006=Z9IL$PRINT_LO File=Z9IL.:Z8A6TSI                              SAT 08/09/97 14:04 Page:260
     1701    11388    1   TRN_RELOC : PROC;

  11388 38 003417   200132 741300       TRN_RELOC    STX1  ! @TYPE,,AUTO

     1702    11389
     1703    11390    2   DCL I SBIN;
     1704    11391    2   DCL BS_OU_INDEX SBIN;
     1705    11392    2   DCL BS_OU_INDEX_TYPE SBIN;
     1706    11393    2   DCL BS_ST$ PTR;
     1707    11394
     1708    11395
     1709    11396    2     IF OBJ_WORD.B.WORD_REL OR OBJ_WORD.B.HALF_REL THEN

  11396 38 003420   000000 470400 12                 LDP0    OBJ$
        38 003421   000000 236100                    LDQ     0,,PR0
        38 003422   002000 316007                    CANQ    1024,DL
        38 003423   003426 601000 38                 TNZ     s:11397
        38 003424   040000 316007                    CANQ    16384,DL
        38 003425   003651 600000 38                 TZE     s:11466

     1710    11397    3       DO CASE(OBJ_WORD.ST$ -> ST.ID);

  11397 38 003426   000002 471500                    LDP1    2,,PR0
        38 003427   100000 236100                    LDQ     0,,PR1
        38 003430   000022 772000                    QRL     18
        38 003431   000751 136007                    SBLQ    489,DL
        38 003432   000037 116007                    CMPQ    31,DL
        38 003433   003435 602006 38                 TNC     s:11397+7,QL
        38 003434   003646 710000 38                 TRA     s:11462
        38 003435   003521 710000 38                 TRA     s:11424
        38 003436   003646 710000 38                 TRA     s:11462
        38 003437   003646 710000 38                 TRA     s:11462
        38 003440   003646 710000 38                 TRA     s:11462
        38 003441   003646 710000 38                 TRA     s:11462
        38 003442   003646 710000 38                 TRA     s:11462
        38 003443   003646 710000 38                 TRA     s:11462
        38 003444   003521 710000 38                 TRA     s:11424
PL6.E3A0      #006=Z9IL$PRINT_LO File=Z9IL.:Z8A6TSI                              SAT 08/09/97 14:04 Page:261
        38 003445   003646 710000 38                 TRA     s:11462
        38 003446   003646 710000 38                 TRA     s:11462
        38 003447   003646 710000 38                 TRA     s:11462
        38 003450   003646 710000 38                 TRA     s:11462
        38 003451   003521 710000 38                 TRA     s:11424
        38 003452   003521 710000 38                 TRA     s:11424
        38 003453   003521 710000 38                 TRA     s:11424
        38 003454   003521 710000 38                 TRA     s:11424
        38 003455   003521 710000 38                 TRA     s:11424
        38 003456   003515 710000 38                 TRA     s:11407
        38 003457   003521 710000 38                 TRA     s:11424
        38 003460   003474 710000 38                 TRA     s:11401
        38 003461   003646 710000 38                 TRA     s:11462
        38 003462   003521 710000 38                 TRA     s:11424
        38 003463   003521 710000 38                 TRA     s:11424
        38 003464   003474 710000 38                 TRA     s:11401
        38 003465   003646 710000 38                 TRA     s:11462
        38 003466   003521 710000 38                 TRA     s:11424
        38 003467   003521 710000 38                 TRA     s:11424
        38 003470   003521 710000 38                 TRA     s:11424
        38 003471   003521 710000 38                 TRA     s:11424
        38 003472   003646 710000 38                 TRA     s:11462
        38 003473   003521 710000 38                 TRA     s:11424

     1711    11398
     1712    11399    3         CASE(%BLOCK, %SEGMENT);

     1713    11400
     1714    11401    3           CALL Z8IU$CONVERT_DEC_LEFT (LISTLINE.INST1.RELOC,

  11401 38 003474   100001 236100                    LDQ     1,,PR1
        38 003475   000022 736000                    QLS     18
        38 003476   000022 732000                    QRS     18
        38 003477   200150 756100                    STQ     SYM_TRUNC+1,,AUTO
        38 003500   000057 236000 39                 LDQ     47
        38 003501   200154 756100                    STQ     SYM_TRUNC+5,,AUTO
        38 003502   200150 631500                    EPPR1   SYM_TRUNC+1,,AUTO
PL6.E3A0      #006=Z9IL$PRINT_LO File=Z9IL.:Z8A6TSI                              SAT 08/09/97 14:04 Page:262
        38 003503   200153 451500                    STP1    SYM_TRUNC+4,,AUTO
        38 003504   200155 452500                    STP2    SYM_TRUNC+6,,AUTO
        38 003505   200155 236100                    LDQ     SYM_TRUNC+6,,AUTO
        38 003506   000001 036000 39                 ADLQ    1
        38 003507   200152 756100                    STQ     SYM_TRUNC+3,,AUTO
        38 003510   200152 630500                    EPPR0   SYM_TRUNC+3,,AUTO
        38 003511   000032 631400 39                 EPPR1   26
        38 003512   000000 701000 xent               TSX1    Z8IU$CONVERT_DEC_LEFT
        38 003513   000000 011000                    NOP     0
        38 003514   003651 710000 38                 TRA     s:11466

     1715    11402    3                                      BINBIT(OBJ_WORD.ST$ -> ST.OU_INDEX, 36),
     1716    11403    3                                      LENGTHC(LISTLINE.INST1.RELOC));
     1717    11404
     1718    11405    3         CASE(%SYMREF_);

     1719    11406
     1720    11407    3           LISTLINE.INST1.RELOC = 'xent';

  11407 38 003515   040100 100400                    MLR     fill='040'O
        38 003516   003063 000004 33                 ADSC9   PTRREGS+77               cn=0,n=4
        38 003517   200013 600004                    ADSC9   TEXTBUF+7,,AUTO          cn=3,n=4
        38 003520   003651 710000 38                 TRA     s:11466

     1721    11408
     1722    11409    3         CASE (%PARA, %SECTION, %DCB_, %SYMDEF_, %INTDEF,

     1723    11410                     %ST_ITEMS_WITH_STORAGE;
     1724    11422    3              );
     1725    11423
     1726    11424    4         DO CASE(OBJ_WORD.ST$ -> VARIABLE.R);

  11424 38 003521   100000 236100                    LDQ     0,,PR1
        38 003522   000011 772000                    QRL     9
        38 003523   000777 376007                    ANQ     511,DL
        38 003524   000004 116007                    CMPQ    4,DL
        38 003525   003527 602006 38                 TNC     s:11424+6,QL
PL6.E3A0      #006=Z9IL$PRINT_LO File=Z9IL.:Z8A6TSI                              SAT 08/09/97 14:04 Page:263
        38 003526   003622 710000 38                 TRA     s:11453
        38 003527   003622 710000 38                 TRA     s:11453
        38 003530   003533 710000 38                 TRA     s:11429
        38 003531   003574 710000 38                 TRA     s:11444
        38 003532   003545 710000 38                 TRA     s:11435

     1727    11425
     1728    11426
     1729    11427    4           CASE(%PROGRAM);

     1730    11428
     1731    11429    4             BS_OU_INDEX = COMCOM.SEGMENT$ (OBJ_WORD.ST$ -> VARIABLE.COUNT)

  11429 38 003533   100000 720100                    LXL0    0,,PR1
        38 003534   000777 360003                    ANX0    511,DU
        38 003535   000150 473410 xsym               LDP3    COMCOM+104,X0
        38 003536   300001 236100                    LDQ     1,,PR3
        38 003537   000022 736000                    QLS     18
        38 003540   000022 732000                    QRS     18
        38 003541   200134 756100                    STQ     BS_OU_INDEX,,AUTO

     1732    11430    4                               -> ST.OU_INDEX;
     1733    11431    4             BS_OU_INDEX_TYPE = 1;

  11431 38 003542   000001 235007                    LDA     1,DL
        38 003543   200135 755100                    STA     BS_OU_INDEX_TYPE,,AUTO
        38 003544   003622 710000 38                 TRA     s:11453

     1734    11432
     1735    11433    4           CASE(%BLOCK_);

     1736    11434
     1737    11435    4             BS_ST$ = COMCOM.BLOCK$;

  11435 38 003545   000145 236000 xsym               LDQ     COMCOM+101
        38 003546   200136 756100                    STQ     BS_ST$,,AUTO

PL6.E3A0      #006=Z9IL$PRINT_LO File=Z9IL.:Z8A6TSI                              SAT 08/09/97 14:04 Page:264
     1738    11436    5             DO I = 1 TO OBJ_WORD.ST$ -> VARIABLE.COUNT -1;

  11436 38 003547   000001 235007                    LDA     1,DL
        38 003550   200133 755100                    STA     I,,AUTO
        38 003551   003556 710000 38                 TRA     s:11438+1

     1739    11437    5               BS_ST$ = BS_ST$ -> VARIABLE.NEXT;

  11437 38 003552   200136 470500                    LDP0    BS_ST$,,AUTO
        38 003553   000004 236100                    LDQ     4,,PR0
        38 003554   200136 756100                    STQ     BS_ST$,,AUTO

     1740    11438    5             END;

  11438 38 003555   200133 054100                    AOS     I,,AUTO
        38 003556   000000 470400 12                 LDP0    OBJ$
        38 003557   000002 471500                    LDP1    2,,PR0
        38 003560   100000 236100                    LDQ     0,,PR1
        38 003561   000777 376007                    ANQ     511,DL
        38 003562   200133 116100                    CMPQ    I,,AUTO
        38 003563   003552 605400 38                 TPNZ    s:11437

     1741    11439    4             BS_OU_INDEX = BS_ST$ -> ST.OU_INDEX;

  11439 38 003564   200136 473500                    LDP3    BS_ST$,,AUTO
        38 003565   300001 236100                    LDQ     1,,PR3
        38 003566   000022 736000                    QLS     18
        38 003567   000022 732000                    QRS     18
        38 003570   200134 756100                    STQ     BS_OU_INDEX,,AUTO

     1742    11440    4             BS_OU_INDEX_TYPE = 1;

  11440 38 003571   000001 235007                    LDA     1,DL
        38 003572   200135 755100                    STA     BS_OU_INDEX_TYPE,,AUTO
        38 003573   003622 710000 38                 TRA     s:11453

     1743    11441
PL6.E3A0      #006=Z9IL$PRINT_LO File=Z9IL.:Z8A6TSI                              SAT 08/09/97 14:04 Page:265
     1744    11442    4           CASE(%EXT_PROGRAM);

     1745    11443
     1746    11444    4             BS_ST$ = COMCOM.SYMREF$;

  11444 38 003574   000436 236000 xsym               LDQ     COMCOM+286
        38 003575   200136 756100                    STQ     BS_ST$,,AUTO

     1747    11445    5             DO I = 1 TO OBJ_WORD.ST$ -> VARIABLE.COUNT - 1;

  11445 38 003576   000001 235007                    LDA     1,DL
        38 003577   200133 755100                    STA     I,,AUTO
        38 003600   003605 710000 38                 TRA     s:11447+1

     1748    11446    5               BS_ST$ = BS_ST$ -> VARIABLE.NEXT;

  11446 38 003601   200136 470500                    LDP0    BS_ST$,,AUTO
        38 003602   000004 236100                    LDQ     4,,PR0
        38 003603   200136 756100                    STQ     BS_ST$,,AUTO

     1749    11447    5             END;

  11447 38 003604   200133 054100                    AOS     I,,AUTO
        38 003605   000000 470400 12                 LDP0    OBJ$
        38 003606   000002 471500                    LDP1    2,,PR0
        38 003607   100000 236100                    LDQ     0,,PR1
        38 003610   000777 376007                    ANQ     511,DL
        38 003611   200133 116100                    CMPQ    I,,AUTO
        38 003612   003601 605400 38                 TPNZ    s:11446

     1750    11448    4             BS_OU_INDEX = BS_ST$ -> ST.OU_INDEX;

  11448 38 003613   200136 473500                    LDP3    BS_ST$,,AUTO
        38 003614   300001 236100                    LDQ     1,,PR3
        38 003615   000022 736000                    QLS     18
        38 003616   000022 732000                    QRS     18
        38 003617   200134 756100                    STQ     BS_OU_INDEX,,AUTO
PL6.E3A0      #006=Z9IL$PRINT_LO File=Z9IL.:Z8A6TSI                              SAT 08/09/97 14:04 Page:266

     1751    11449    4             BS_OU_INDEX_TYPE = 2;

  11449 38 003620   000002 235007                    LDA     2,DL
        38 003621   200135 755100                    STA     BS_OU_INDEX_TYPE,,AUTO

     1752    11450    4         END;

     1753    11451
     1754    11452
     1755    11453    3           IF BS_OU_INDEX_TYPE = 1 THEN

  11453 38 003622   200135 235100                    LDA     BS_OU_INDEX_TYPE,,AUTO
        38 003623   000001 115007                    CMPA    1,DL
        38 003624   003642 601000 38                 TNZ     s:11458

     1756    11454    3             CALL Z8IU$CONVERT_DEC_LEFT (LISTLINE.INST1.RELOC,

  11454 38 003625   000057 236000 39                 LDQ     47
        38 003626   200152 756100                    STQ     SYM_TRUNC+3,,AUTO
        38 003627   200134 631500                    EPPR1   BS_OU_INDEX,,AUTO
        38 003630   200151 451500                    STP1    SYM_TRUNC+2,,AUTO
        38 003631   200153 452500                    STP2    SYM_TRUNC+4,,AUTO
        38 003632   200153 236100                    LDQ     SYM_TRUNC+4,,AUTO
        38 003633   000001 036000 39                 ADLQ    1
        38 003634   200150 756100                    STQ     SYM_TRUNC+1,,AUTO
        38 003635   200150 630500                    EPPR0   SYM_TRUNC+1,,AUTO
        38 003636   000032 631400 39                 EPPR1   26
        38 003637   000000 701000 xent               TSX1    Z8IU$CONVERT_DEC_LEFT
        38 003640   000000 011000                    NOP     0
        38 003641   003651 710000 38                 TRA     s:11466

     1757    11455    3                                         BS_OU_INDEX,
     1758    11456    3                                         LENGTHC(LISTLINE.INST1.RELOC));
     1759    11457    3           ELSE
     1760    11458    3             LISTLINE.INST1.RELOC = 'xent';

PL6.E3A0      #006=Z9IL$PRINT_LO File=Z9IL.:Z8A6TSI                              SAT 08/09/97 14:04 Page:267
  11458 38 003642   040100 100400                    MLR     fill='040'O
        38 003643   003063 000004 33                 ADSC9   PTRREGS+77               cn=0,n=4
        38 003644   200013 600004                    ADSC9   TEXTBUF+7,,AUTO          cn=3,n=4
        38 003645   003651 710000 38                 TRA     s:11466

     1761    11459
     1762    11460    3         CASE(ELSE);

     1763    11461
     1764    11462    3           LISTLINE.INST1.RELOC = 'REL';

  11462 38 003646   040100 100400                    MLR     fill='040'O
        38 003647   003064 000003 33                 ADSC9   PTRREGS+78               cn=0,n=3
        38 003650   200013 600004                    ADSC9   TEXTBUF+7,,AUTO          cn=3,n=4

     1765    11463
     1766    11464    3       END;

     1767    11465
     1768    11466    2   END TRN_RELOC;

  11466 38 003651   200132 221300                    LDX1  ! @TYPE,,AUTO
        38 003652   000001 702211                    TSX2  ! 1,X1

     1769    11467        %EJECT;
PL6.E3A0      #006=Z9IL$PRINT_LO File=Z9IL.:Z8A6TSI                              SAT 08/09/97 14:04 Page:268
     1770    11468    1   TRN_K_OFFSET : PROC (OFFSET);

  11468 38 003653   200136 741300       TRN_K_OFFSET STX1  ! BS_ST$,,AUTO

     1771    11469
     1772    11470    2   DCL OFFSET SBIN;
     1773    11471
     1774    11472
     1775    11473    2   IF OFFSET > 0 THEN

  11473 38 003654   200137 470500                    LDP0    @OFFSET,,AUTO
        38 003655   000000 235100                    LDA     0,,PR0
        38 003656   003764 604400 38                 TMOZ    s:11506

     1776    11474    3     DO;

     1777    11475    3       IF OFFSET > 16383 THEN

  11475 38 003657   037777 115007                    CMPA    16383,DL
        38 003660   003725 604400 38                 TMOZ    s:11493

     1778    11476    4         DO;

     1779    11477                %APP_VAR_FLD(S="'+'");

  11479 38 003661   000001 236007                    LDQ     1,DL
        38 003662   200050 756100                    STQ     VARFLD#,,AUTO

  11480 38 003663   200047 471500                    LDP1    VARFLD$,,AUTO
        38 003664   000000 620006                    EAX0    0,QL
        38 003665   040140 100400                    MLR     fill='040'O
        38 003666   000040 000001 39                 ADSC9   32                       cn=0,n=1
        38 003667   100000 000010                    ADSC9   0,,PR1                   cn=0,n=*X0

  11481 38 003670   200047 236100                    LDQ     VARFLD$,,AUTO
        38 003671   200000 036007                    ADLQ    65536,DL
        38 003672   200047 756100                    STQ     VARFLD$,,AUTO
PL6.E3A0      #006=Z9IL$PRINT_LO File=Z9IL.:Z8A6TSI                              SAT 08/09/97 14:04 Page:269

     1780    11484    4           CALL Z8IU$CONVERT_DEC_LEFT(VARFLDTXT, (OFFSET/16384)*16, 6, VARFLD$);

  11484 38 003673   000000 236100                    LDQ     0,,PR0
        38 003674   040000 506007                    DIV     16384,DL
        38 003675   000004 736000                    QLS     4
        38 003676   200150 756100                    STQ     SYM_TRUNC+1,,AUTO
        38 003677   200047 631500                    EPPR1   VARFLD$,,AUTO
        38 003700   200155 451500                    STP1    SYM_TRUNC+6,,AUTO
        38 003701   000043 236000 39                 LDQ     35
        38 003702   200154 756100                    STQ     SYM_TRUNC+5,,AUTO
        38 003703   200150 633500                    EPPR3   SYM_TRUNC+1,,AUTO
        38 003704   200153 453500                    STP3    SYM_TRUNC+4,,AUTO
        38 003705   200047 236100                    LDQ     VARFLD$,,AUTO
        38 003706   200152 756100                    STQ     SYM_TRUNC+3,,AUTO
        38 003707   200152 630500                    EPPR0   SYM_TRUNC+3,,AUTO
        38 003710   000041 631400 39                 EPPR1   33
        38 003711   000000 701000 xent               TSX1    Z8IU$CONVERT_DEC_LEFT
        38 003712   000000 011000                    NOP     0

     1781    11485                %APP_VAR_FLD(S="'K'");

  11487 38 003713   000001 235007                    LDA     1,DL
        38 003714   200050 755100                    STA     VARFLD#,,AUTO

  11488 38 003715   200047 470500                    LDP0    VARFLD$,,AUTO
        38 003716   000000 620005                    EAX0    0,AL
        38 003717   040140 100400                    MLR     fill='040'O
        38 003720   000044 000001 39                 ADSC9   36                       cn=0,n=1
        38 003721   000000 000010                    ADSC9   0,,PR0                   cn=0,n=*X0

  11489 38 003722   200047 236100                    LDQ     VARFLD$,,AUTO
        38 003723   200000 036007                    ADLQ    65536,DL
        38 003724   200047 756100                    STQ     VARFLD$,,AUTO

     1782    11492    4         END;

PL6.E3A0      #006=Z9IL$PRINT_LO File=Z9IL.:Z8A6TSI                              SAT 08/09/97 14:04 Page:270
     1783    11493    3       IF MOD(OFFSET, 16384) > 0 THEN

  11493 38 003725   200137 470500                    LDP0    @OFFSET,,AUTO
        38 003726   000000 236100                    LDQ     0,,PR0
        38 003727   040000 506007                    DIV     16384,DL
        38 003730   000044 733000                    LRS     36
        38 003731   000000 116003                    CMPQ    0,DU
        38 003732   003764 604400 38                 TMOZ    s:11506

     1784    11494    4         DO;

     1785    11495                %APP_VAR_FLD(S="'+'");

  11497 38 003733   000001 235007                    LDA     1,DL
        38 003734   200050 755100                    STA     VARFLD#,,AUTO

  11498 38 003735   200047 471500                    LDP1    VARFLD$,,AUTO
        38 003736   000000 620005                    EAX0    0,AL
        38 003737   040140 100400                    MLR     fill='040'O
        38 003740   000040 000001 39                 ADSC9   32                       cn=0,n=1
        38 003741   100000 000010                    ADSC9   0,,PR1                   cn=0,n=*X0

  11499 38 003742   200047 236100                    LDQ     VARFLD$,,AUTO
        38 003743   200000 036007                    ADLQ    65536,DL
        38 003744   200047 756100                    STQ     VARFLD$,,AUTO

     1786    11502    4           CALL Z8IU$CONVERT_DEC_LEFT(VARFLDTXT, MOD(OFFSET, 16384), 6,  VARFLD$);

  11502 38 003745   000000 236100                    LDQ     0,,PR0
        38 003746   040000 506007                    DIV     16384,DL
        38 003747   200150 755100                    STA     SYM_TRUNC+1,,AUTO
        38 003750   200047 631500                    EPPR1   VARFLD$,,AUTO
        38 003751   200155 451500                    STP1    SYM_TRUNC+6,,AUTO
        38 003752   000043 236000 39                 LDQ     35
        38 003753   200154 756100                    STQ     SYM_TRUNC+5,,AUTO
        38 003754   200150 633500                    EPPR3   SYM_TRUNC+1,,AUTO
        38 003755   200153 453500                    STP3    SYM_TRUNC+4,,AUTO
PL6.E3A0      #006=Z9IL$PRINT_LO File=Z9IL.:Z8A6TSI                              SAT 08/09/97 14:04 Page:271
        38 003756   200047 236100                    LDQ     VARFLD$,,AUTO
        38 003757   200152 756100                    STQ     SYM_TRUNC+3,,AUTO
        38 003760   200152 630500                    EPPR0   SYM_TRUNC+3,,AUTO
        38 003761   000041 631400 39                 EPPR1   33
        38 003762   000000 701000 xent               TSX1    Z8IU$CONVERT_DEC_LEFT
        38 003763   000000 011000                    NOP     0

     1787    11503    4         END;

     1788    11504    3     END;

     1789    11505
     1790    11506    2   END TRN_K_OFFSET;

  11506 38 003764   200136 221300                    LDX1  ! BS_ST$,,AUTO
        38 003765   000001 702211                    TSX2  ! 1,X1

     1791    11507        %EJECT;
PL6.E3A0      #006=Z9IL$PRINT_LO File=Z9IL.:Z8A6TSI                              SAT 08/09/97 14:04 Page:272
     1792    11508    1   GEN_ORG : PROC (SECT_PTR, OFFSET);

  11508 38 003766   200132 741300       GEN_ORG      STX1  ! @TYPE,,AUTO

     1793    11509
     1794    11510    2   DCL SECT_PTR PTR;
     1795    11511    2   DCL OFFSET   SBIN;
     1796    11512
     1797    11513
     1798    11514    2   CALL Z9IL$OUTPUT_TO_LO(ADDR(BLANK), LENGTHC(BLANK));

  11514 38 003767   000006 236000 39                 LDQ     6
        38 003770   200150 756100                    STQ     SYM_TRUNC+1,,AUTO
        38 003771   000012 236000 39                 LDQ     10
        38 003772   200153 756100                    STQ     SYM_TRUNC+4,,AUTO
        38 003773   200150 630500                    EPPR0   SYM_TRUNC+1,,AUTO
        38 003774   200152 450500                    STP0    SYM_TRUNC+3,,AUTO
        38 003775   200152 630500                    EPPR0   SYM_TRUNC+3,,AUTO
        38 003776   000000 631400 39                 EPPR1   0
        38 003777   000000 701000 xent               TSX1    Z9IL$OUTPUT_TO_LO
        38 004000   000000 011000                    NOP     0

     1799    11515    2   IF SECT_PTR -> ST.OU_INDEX = 0 THEN

  11515 38 004001   200133 470500                    LDP0    @SECT_PTR,,AUTO
        38 004002   000000 471500                    LDP1    0,,PR0
        38 004003   100001 720100                    LXL0    1,,PR1
        38 004004   004017 601000 38                 TNZ     s:11522

     1800    11516    3     DO;

     1801    11517    3       LISTLINE.INST1.CF = 'USE';

  11517 38 004005   040100 100400                    MLR     fill='040'O
        38 004006   003065 000003 33                 ADSC9   PTRREGS+79               cn=0,n=3
        38 004007   200020 400010                    ADSC9   TEXTBUF+12,,AUTO         cn=2,n=8

PL6.E3A0      #006=Z9IL$PRINT_LO File=Z9IL.:Z8A6TSI                              SAT 08/09/97 14:04 Page:273
     1802    11518    3       LISTLINE.INST1.VF = SECT_PTR -> ST.DNT$ -> DNT.TEXT.NAME;

  11518 38 004010   000000 471500                    LDP1    0,,PR0
        38 004011   100006 473500                    LDP3    6,,PR1
        38 004012   300004 220100                    LDX0    4,,PR3
        38 004013   040100 100540                    MLR     fill='040'O
        38 004014   300004 400010                    ADSC9   4,,PR3                   cn=2,n=*X0
        38 004015   200022 400030                    ADSC9   TEXTBUF+14,,AUTO         cn=2,n=24

     1803    11519    3     END;

  11519 38 004016   004055 710000 38                 TRA     s:11531

     1804    11520    2   ELSE
     1805    11521    3     DO;

     1806    11522    3       LISTLINE.INST1.CF  = 'ORG';

  11522 38 004017   040100 100400                    MLR     fill='040'O
        38 004020   003066 000003 33                 ADSC9   PTRREGS+80               cn=0,n=3
        38 004021   200020 400010                    ADSC9   TEXTBUF+12,,AUTO         cn=2,n=8

     1807    11523    3       VARFLD$            = ADDR(LISTLINE.INST1.VF);

  11523 38 004022   200150 452500                    STP2    SYM_TRUNC+1,,AUTO
        38 004023   200150 236100                    LDQ     SYM_TRUNC+1,,AUTO
        38 004024   000051 036000 39                 ADLQ    41
        38 004025   200047 756100                    STQ     VARFLD$,,AUTO

     1808    11524    3       VARFLD#            = MINIMUM(SECT_PTR -> ST.DNT$ -> DNT.TEXT.LENGTH, 18);

  11524 38 004026   000000 471500                    LDP1    0,,PR0
        38 004027   100006 473500                    LDP3    6,,PR1
        38 004030   300004 236100                    LDQ     4,,PR3
        38 004031   000022 772000                    QRL     18
        38 004032   000022 116007                    CMPQ    18,DL
        38 004033   004036 602000 38                 TNC     s:11524+8
PL6.E3A0      #006=Z9IL$PRINT_LO File=Z9IL.:Z8A6TSI                              SAT 08/09/97 14:04 Page:274
        38 004034   004036 600000 38                 TZE     s:11524+8
        38 004035   000022 236007                    LDQ     18,DL
        38 004036   200050 756100                    STQ     VARFLD#,,AUTO

     1809    11525    3       VARFLDTX           = SECT_PTR -> ST.DNT$ -> DNT.TEXT.NAME;

  11525 38 004037   300004 220100                    LDX0    4,,PR3
        38 004040   200047 474500                    LDP4    VARFLD$,,AUTO
        38 004041   000000 621006                    EAX1    0,QL
        38 004042   040140 100540                    MLR     fill='040'O
        38 004043   300004 400010                    ADSC9   4,,PR3                   cn=2,n=*X0
        38 004044   400000 000011                    ADSC9   0,,PR4                   cn=0,n=*X1

     1810    11526    3       VARFLD$            = PINCRC(VARFLD$, VARFLD#);

  11526 38 004045   200050 236100                    LDQ     VARFLD#,,AUTO
        38 004046   000020 736000                    QLS     16
        38 004047   200047 036100                    ADLQ    VARFLD$,,AUTO
        38 004050   200047 756100                    STQ     VARFLD$,,AUTO

     1811    11527    3       CALL TRN_K_OFFSET(BINBIT(OFFSET, 36));

  11527 38 004051   200134 236100                    LDQ     @OFFSET,,AUTO
        38 004052   200137 756100                    STQ     @OFFSET,,AUTO
        38 004053   003653 701000 38                 TSX1    TRN_K_OFFSET
        38 004054   000000 011000                    NOP     0

     1812    11528    3     END;

     1813    11529        %PRINT_LO_BUFFER(LLTYP=%LLTOBJ);

  11531 38 004055   200003 235100                    LDA     LAST_LINE_TYPE,,AUTO
        38 004056   000002 115007                    CMPA    2,DL
        38 004057   004072 600000 38                 TZE     s:11533

  11532 38 004060   000006 236000 39                 LDQ     6
        38 004061   200150 756100                    STQ     SYM_TRUNC+1,,AUTO
PL6.E3A0      #006=Z9IL$PRINT_LO File=Z9IL.:Z8A6TSI                              SAT 08/09/97 14:04 Page:275
        38 004062   000012 236000 39                 LDQ     10
        38 004063   200153 756100                    STQ     SYM_TRUNC+4,,AUTO
        38 004064   200150 630500                    EPPR0   SYM_TRUNC+1,,AUTO
        38 004065   200152 450500                    STP0    SYM_TRUNC+3,,AUTO
        38 004066   200152 630500                    EPPR0   SYM_TRUNC+3,,AUTO
        38 004067   000000 631400 39                 EPPR1   0
        38 004070   000000 701000 xent               TSX1    Z9IL$OUTPUT_TO_LO
        38 004071   000000 011000                    NOP     0

  11533 38 004072   200004 630500                    EPPR0   TEXTBUF,,AUTO
        38 004073   200150 450500                    STP0    SYM_TRUNC+1,,AUTO
        38 004074   000003 236000 39                 LDQ     3
        38 004075   200153 756100                    STQ     SYM_TRUNC+4,,AUTO
        38 004076   200150 631500                    EPPR1   SYM_TRUNC+1,,AUTO
        38 004077   200152 451500                    STP1    SYM_TRUNC+3,,AUTO
        38 004100   200152 630500                    EPPR0   SYM_TRUNC+3,,AUTO
        38 004101   000000 631400 39                 EPPR1   0
        38 004102   000000 701000 xent               TSX1    Z9IL$OUTPUT_TO_LO
        38 004103   000000 011000                    NOP     0

  11534 38 004104   040100 100400                    MLR     fill='040'O
        38 004105   000004 000001 39                 ADSC9   4                        cn=0,n=1
        38 004106   200004 000155                    ADSC9   TEXTBUF,,AUTO            cn=0,n=109

  11535 38 004107   000002 235007                    LDA     2,DL
        38 004110   200003 755100                    STA     LAST_LINE_TYPE,,AUTO

     1814    11538    2   LAST_SECT_NUM          = SECT_PTR -> ST.OU_INDEX;

  11538 38 004111   200133 470500                    LDP0    @SECT_PTR,,AUTO
        38 004112   000000 471500                    LDP1    0,,PR0
        38 004113   100001 236100                    LDQ     1,,PR1
        38 004114   000022 736000                    QLS     18
        38 004115   000022 732000                    QRS     18
        38 004116   200057 756100                    STQ     LAST_SECT_NUM,,AUTO

     1815    11539    2   LAST_SECT_OFFSET       = OFFSET;
PL6.E3A0      #006=Z9IL$PRINT_LO File=Z9IL.:Z8A6TSI                              SAT 08/09/97 14:04 Page:276

  11539 38 004117   200134 473500                    LDP3    @OFFSET,,AUTO
        38 004120   300000 235100                    LDA     0,,PR3
        38 004121   200060 755100                    STA     LAST_SECT_OFFSET,,AUTO

     1816    11540
     1817    11541    2   END GEN_ORG;

  11541 38 004122   200132 221300                    LDX1  ! @TYPE,,AUTO
        38 004123   000001 702211                    TSX2  ! 1,X1

     1818    11542        %EJECT;
PL6.E3A0      #006=Z9IL$PRINT_LO File=Z9IL.:Z8A6TSI                              SAT 08/09/97 14:04 Page:277
     1819    11543    1   TRN_DATA : PROC;

  11543 38 004124   200132 741300       TRN_DATA     STX1  ! @TYPE,,AUTO

     1820    11544
     1821    11545
     1822    11546
     1823    11547    2       IF OBJ_WORD.ST$ ~= ADDR(NIL) AND

  11547 38 004125   000000 470400 12                 LDP0    OBJ$
        38 004126   000002 236100                    LDQ     2,,PR0
        38 004127   000021 116000 39                 CMPQ    17
        38 004130   004320 600000 38                 TZE     s:11592
        38 004131   000002 236100                    LDQ     2,,PR0
        38 004132   000010 116000 39                 CMPQ    8
        38 004133   004320 600000 38                 TZE     s:11592

     1824    11548    2           ADDR(OBJ_WORD.ST$) -> BASED$EPTR ~= ENTADDR(NIL) THEN
     1825    11549    2         IF OBJ_WORD.ST$ -> ST.DNT$ ~= ADDR(NIL) THEN

  11549 38 004134   000002 471500                    LDP1    2,,PR0
        38 004135   100006 236100                    LDQ     6,,PR1
        38 004136   000021 116000 39                 CMPQ    17
        38 004137   004315 600000 38                 TZE     s:11590

     1826    11550    2           IF OBJ_WORD.ST$ -> ST.ID = %BLOCK

  11550 38 004140   100000 220100                    LDX0    0,,PR1
        38 004141   000774 100003                    CMPX0   508,DU
        38 004142   004147 600000 38                 TZE     s:11554
        38 004143   001000 100003                    CMPX0   512,DU
        38 004144   004147 600000 38                 TZE     s:11554
        38 004145   000772 100003                    CMPX0   506,DU
        38 004146   004206 601000 38                 TNZ     s:11561

     1827    11551    2               OR OBJ_WORD.ST$ -> ST.ID = %SEGMENT
     1828    11552    2               OR OBJ_WORD.ST$ -> ST.ID = %SYMREF_ THEN
PL6.E3A0      #006=Z9IL$PRINT_LO File=Z9IL.:Z8A6TSI                              SAT 08/09/97 14:04 Page:278
     1829    11553    3             DO;

     1830    11554    3               LISTLINE.INST1.CF = 'BASPTR';

  11554 38 004147   040100 100400                    MLR     fill='040'O
        38 004150   003067 000006 33                 ADSC9   PTRREGS+81               cn=0,n=6
        38 004151   200020 400010                    ADSC9   TEXTBUF+12,,AUTO         cn=2,n=8

     1831    11555    3               VARFLD# = MINIMUM(OBJ_WORD.ST$ -> ST.DNT$ -> DNT.TEXT.LENGTH, 30);

  11555 38 004152   000002 471500                    LDP1    2,,PR0
        38 004153   100006 473500                    LDP3    6,,PR1
        38 004154   300004 236100                    LDQ     4,,PR3
        38 004155   000022 772000                    QRL     18
        38 004156   000036 116007                    CMPQ    30,DL
        38 004157   004162 602000 38                 TNC     s:11555+8
        38 004160   004162 600000 38                 TZE     s:11555+8
        38 004161   000036 236007                    LDQ     30,DL
        38 004162   200050 756100                    STQ     VARFLD#,,AUTO

     1832    11556    3               VARFLDTX = OBJ_WORD.ST$ -> ST.DNT$ -> DNT.TEXT.NAME;

  11556 38 004163   300004 220100                    LDX0    4,,PR3
        38 004164   200047 474500                    LDP4    VARFLD$,,AUTO
        38 004165   000000 622006                    EAX2    0,QL
        38 004166   040140 100540                    MLR     fill='040'O
        38 004167   300004 400010                    ADSC9   4,,PR3                   cn=2,n=*X0
        38 004170   400000 000012                    ADSC9   0,,PR4                   cn=0,n=*X2

     1833    11557    3               VARFLD$ = PINCRC(VARFLD$, VARFLD#);

  11557 38 004171   200050 236100                    LDQ     VARFLD#,,AUTO
        38 004172   000020 736000                    QLS     16
        38 004173   200047 036100                    ADLQ    VARFLD$,,AUTO
        38 004174   200047 756100                    STQ     VARFLD$,,AUTO

     1834    11558    3               CALL TRN_K_OFFSET(BINBIT(OBJ_WORD.INST.LONGY, 36));
PL6.E3A0      #006=Z9IL$PRINT_LO File=Z9IL.:Z8A6TSI                              SAT 08/09/97 14:04 Page:279

  11558 38 004175   000000 470400 12                 LDP0    OBJ$
        38 004176   000003 236100                    LDQ     3,,PR0
        38 004177   000022 772000                    QRL     18
        38 004200   200156 756100                    STQ     SYM_TRUNC+7,,AUTO
        38 004201   200156 631500                    EPPR1   SYM_TRUNC+7,,AUTO
        38 004202   200137 451500                    STP1    @OFFSET,,AUTO
        38 004203   003653 701000 38                 TSX1    TRN_K_OFFSET
        38 004204   000000 011000                    NOP     0

     1835    11559    3             END;

  11559 38 004205   004322 710000 38                 TRA     s:11594

     1836    11560    2           ELSE
     1837    11561    2             IF NOT OBJ_WORD.B.ETC THEN

  11561 38 004206   000000 236100                    LDQ     0,,PR0
        38 004207   010000 316007                    CANQ    4096,DL
        38 004210   004257 601000 38                 TNZ     s:11577

     1838    11562    3               DO;

     1839    11563    3                 LISTLINE.INST1.CF = 'CONST';

  11563 38 004211   040100 100400                    MLR     fill='040'O
        38 004212   003071 000005 33                 ADSC9   PTRREGS+83               cn=0,n=5
        38 004213   200020 400010                    ADSC9   TEXTBUF+12,,AUTO         cn=2,n=8

     1840    11564    3                 VARFLD# = MINIMUM(OBJ_WORD.ST$ -> ST.DNT$ -> DNT.TEXT.LENGTH,

  11564 38 004214   000002 471500                    LDP1    2,,PR0
        38 004215   100006 473500                    LDP3    6,,PR1
        38 004216   300004 236100                    LDQ     4,,PR3
        38 004217   000022 772000                    QRL     18
        38 004220   000036 116007                    CMPQ    30,DL
        38 004221   004224 602000 38                 TNC     s:11564+8
PL6.E3A0      #006=Z9IL$PRINT_LO File=Z9IL.:Z8A6TSI                              SAT 08/09/97 14:04 Page:280
        38 004222   004224 600000 38                 TZE     s:11564+8
        38 004223   000036 236007                    LDQ     30,DL
        38 004224   200050 756100                    STQ     VARFLD#,,AUTO

     1841    11565    3                                      30);
     1842    11566    3                 VARFLDTX = OBJ_WORD.ST$ -> ST.DNT$ -> DNT.TEXT.NAME;

  11566 38 004225   300004 220100                    LDX0    4,,PR3
        38 004226   200047 474500                    LDP4    VARFLD$,,AUTO
        38 004227   000000 622006                    EAX2    0,QL
        38 004230   040140 100540                    MLR     fill='040'O
        38 004231   300004 400010                    ADSC9   4,,PR3                   cn=2,n=*X0
        38 004232   400000 000012                    ADSC9   0,,PR4                   cn=0,n=*X2

     1843    11567    3                 VARFLD$ = PINCRC(VARFLD$, VARFLD#);

  11567 38 004233   200050 236100                    LDQ     VARFLD#,,AUTO
        38 004234   000020 736000                    QLS     16
        38 004235   200047 036100                    ADLQ    VARFLD$,,AUTO
        38 004236   200047 756100                    STQ     VARFLD$,,AUTO

     1844    11568    3                 IF OBJ_WORD.ST$ -> ST.DNT$ -> DNT.TEXT.LENGTH > VARFLD# THEN

  11568 38 004237   000000 470400 12                 LDP0    OBJ$
        38 004240   000002 471500                    LDP1    2,,PR0
        38 004241   100006 473500                    LDP3    6,,PR1
        38 004242   300004 236100                    LDQ     4,,PR3
        38 004243   000022 772000                    QRL     18
        38 004244   200050 116100                    CMPQ    VARFLD#,,AUTO
        38 004245   004322 604400 38                 TMOZ    s:11594

     1845    11569    4                   DO;

     1846    11570    4                     RESID_LEN = OBJ_WORD.ST$ -> ST.DNT$ -> DNT.TEXT.LENGTH - VARFLD#;

  11570 38 004246   200050 136100                    SBLQ    VARFLD#,,AUTO
        38 004247   200065 756100                    STQ     RESID_LEN,,AUTO
PL6.E3A0      #006=Z9IL$PRINT_LO File=Z9IL.:Z8A6TSI                              SAT 08/09/97 14:04 Page:281

     1847    11571    4                     RESID_ST$ = OBJ_WORD.ST$;

  11571 38 004250   000002 236100                    LDQ     2,,PR0
        38 004251   200066 756100                    STQ     RESID_ST$,,AUTO

     1848    11572    4                     RESID_N$ = PINCRC(ADDR(OBJ_WORD.ST$ -> ST.DNT$ -> DNT.TEXT.NAME),
             11572                              VARFLD#);

  11572 38 004252   200050 235100                    LDA     VARFLD#,,AUTO
        38 004253   000022 035007                    ADLA    18,DL
        38 004254   300000 500505                    A9BD    0,AL,PR3
        38 004255   200067 453500                    STP3    RESID_N$,,AUTO

     1849    11573    4                   END;

     1850    11574    3               END;

  11574 38 004256   004322 710000 38                 TRA     s:11594

     1851    11575    2             ELSE
     1852    11576    3               DO;

     1853    11577    3                 LISTLINE.INST1.CF = 'ETC';

  11577 38 004257   040100 100400                    MLR     fill='040'O
        38 004260   003073 000003 33                 ADSC9   PTRREGS+85               cn=0,n=3
        38 004261   200020 400010                    ADSC9   TEXTBUF+12,,AUTO         cn=2,n=8

     1854    11578    3                 IF RESID_LEN > 0 THEN

  11578 38 004262   200065 235100                    LDA     RESID_LEN,,AUTO
        38 004263   004322 604400 38                 TMOZ    s:11594

     1855    11579    3                   IF OBJ_WORD.ST$ ~= RESID_ST$ THEN

  11579 38 004264   000002 236100                    LDQ     2,,PR0
PL6.E3A0      #006=Z9IL$PRINT_LO File=Z9IL.:Z8A6TSI                              SAT 08/09/97 14:04 Page:282
        38 004265   200066 116100                    CMPQ    RESID_ST$,,AUTO
        38 004266   004271 600000 38                 TZE     s:11583

     1856    11580    3                     RESID_LEN = 0;

  11580 38 004267   200065 450100                    STZ     RESID_LEN,,AUTO
        38 004270   004322 710000 38                 TRA     s:11594

     1857    11581    3                   ELSE
     1858    11582    4                     DO;

     1859    11583    4                       VARFLD# = MINIMUM(RESID_LEN, 50);

  11583 38 004271   000062 236007                    LDQ     50,DL
        38 004272   004275 604000 38                 TMI     s:11583+4
        38 004273   200065 116100                    CMPQ    RESID_LEN,,AUTO
        38 004274   004276 604400 38                 TMOZ    s:11583+5
        38 004275   200065 236100                    LDQ     RESID_LEN,,AUTO
        38 004276   200050 756100                    STQ     VARFLD#,,AUTO

     1860    11584    4                       RESID_LEN = RESID_LEN - VARFLD#;

  11584 38 004277   200065 236100                    LDQ     RESID_LEN,,AUTO
        38 004300   200050 136100                    SBLQ    VARFLD#,,AUTO
        38 004301   200065 756100                    STQ     RESID_LEN,,AUTO

     1861    11585    4                       VARFLDTX = RESID;

  11585 38 004302   200067 471500                    LDP1    RESID_N$,,AUTO
        38 004303   200050 720100                    LXL0    VARFLD#,,AUTO
        38 004304   200047 473500                    LDP3    VARFLD$,,AUTO
        38 004305   040140 100540                    MLR     fill='040'O
        38 004306   100000 000010                    ADSC9   0,,PR1                   cn=0,n=*X0
        38 004307   300000 000010                    ADSC9   0,,PR3                   cn=0,n=*X0

     1862    11586    4                       RESID_N$ = PINCRC(RESID_N$, VARFLD#);

PL6.E3A0      #006=Z9IL$PRINT_LO File=Z9IL.:Z8A6TSI                              SAT 08/09/97 14:04 Page:283
  11586 38 004310   200050 236100                    LDQ     VARFLD#,,AUTO
        38 004311   000020 736000                    QLS     16
        38 004312   200067 036100                    ADLQ    RESID_N$,,AUTO
        38 004313   200067 756100                    STQ     RESID_N$,,AUTO

     1863    11587    4                     END;

     1864    11588    3               END;

  11588 38 004314   004322 710000 38                 TRA     s:11594

     1865    11589    2         ELSE
     1866    11590    2           CALL TRN_HALFW;

  11590 38 004315   002606 701000 38                 TSX1    TRN_HALFW
        38 004316   000000 011000                    NOP     0
        38 004317   004322 710000 38                 TRA     s:11594

     1867    11591    2       ELSE
     1868    11592    2         CALL TRN_HALFW;

  11592 38 004320   002606 701000 38                 TSX1    TRN_HALFW
        38 004321   000000 011000                    NOP     0

     1869    11593
     1870    11594    2   END TRN_DATA;

  11594 38 004322   200132 221300                    LDX1  ! @TYPE,,AUTO
        38 004323   000001 702211                    TSX2  ! 1,X1

     1871    11595        %EJECT;
PL6.E3A0      #006=Z9IL$PRINT_LO File=Z9IL.:Z8A6TSI                              SAT 08/09/97 14:04 Page:284
     1872    11596    1   LIST_WORD : PROC;

  11596 38 004324   200130 741300       LIST_WORD    STX1  ! @ER$+1,,AUTO

     1873    11597
     1874    11598          %IF_THIS_CODE_SHOULD_BE_LISTED;

  11599 38 004325   000041 234000 xsym               SZN     COMCOM+33
        38 004326   004332 605000 38                 TPL     s:11599+5
        38 004327   200055 236100                    LDQ     OBJ_SECT_NUM,,AUTO
        38 004330   000314 116000 xsym               CMPQ    COMCOM+204
        38 004331   004340 604000 38                 TMI     s:11604
        38 004332   000041 236000 xsym               LDQ     COMCOM+33
        38 004333   200000 316003                    CANQ    65536,DU
        38 004334   004552 600000 38                 TZE     s:11648
        38 004335   200055 236100                    LDQ     OBJ_SECT_NUM,,AUTO
        38 004336   000314 116000 xsym               CMPQ    COMCOM+204
        38 004337   004552 604000 38                 TMI     s:11648

     1875    11603    3       DO;

     1876    11604    3          IF (LAST_SECT_NUM ~= OBJ_SECT_NUM)  OR (LAST_SECT_OFFSET + 1 ~= OBJ_WORD.
             11604                   OFFSET) THEN

  11604 38 004340   200057 116100                    CMPQ    LAST_SECT_NUM,,AUTO
        38 004341   004347 601000 38                 TNZ     s:11605
        38 004342   000000 470400 12                 LDP0    OBJ$
        38 004343   200060 236100                    LDQ     LAST_SECT_OFFSET,,AUTO
        38 004344   000001 036007                    ADLQ    1,DL
        38 004345   000001 116100                    CMPQ    1,,PR0
        38 004346   004357 600000 38                 TZE     s:11607

     1877    11605    3            CALL GEN_ORG(OBJ_SECT_PTR, BINBIT(OBJ_WORD.OFFSET, 36));

  11605 38 004347   000000 236000 12                 LDQ     OBJ$
        38 004350   000001 036003                    ADLQ    1,DU
        38 004351   200134 756100                    STQ     @OFFSET,,AUTO
PL6.E3A0      #006=Z9IL$PRINT_LO File=Z9IL.:Z8A6TSI                              SAT 08/09/97 14:04 Page:285
        38 004352   200056 630500                    EPPR0   OBJ_SECT_PTR,,AUTO
        38 004353   200133 450500                    STP0    @SECT_PTR,,AUTO
        38 004354   003766 701000 38                 TSX1    GEN_ORG
        38 004355   000000 011000                    NOP     0
        38 004356   004361 710000 38                 TRA     s:11609

     1878    11606    3          ELSE
     1879    11607    3            LAST_SECT_OFFSET = OBJ_WORD.OFFSET;

  11607 38 004357   000001 235100                    LDA     1,,PR0
        38 004360   200060 755100                    STA     LAST_SECT_OFFSET,,AUTO

     1880    11608
     1881    11609    3          LOCX = BITBIN(LOCAL_OBJ_WORD);

  11609 38 004361   200122 235100                    LDA     LOCAL_OBJ_WORD,,AUTO
        38 004362   200070 755100                    STA     LOC,,AUTO

     1882    11610    3          CALL BINCHAR(TEMPC, LAST_LINE_#);

  11610 38 004363   000100 301500                    BTD
        38 004364   200062 000004                    NDSC9   LAST_LINE_#,,AUTO        cn=0,s=lsgnf,sf=0,n=4
        38 004365   200053 030006                    NDSC9   TEMPC,,AUTO              cn=0,s=nosgn,sf=0,n=6

     1883    11611    3          CALL EDITCHAR(LISTLINE.LINENO, 0, 6, MOP6, TEMPC);

  11611 38 004366   100000 024500                    MVNE
        38 004367   200053 030006                    NDSC9   TEMPC,,AUTO              cn=0,s=nosgn,sf=0,n=6
        38 004370   002415 000002 33                 ADSC9   MOP6                     cn=0,n=2
        38 004371   200004 200006                    ADSC9   TEXTBUF,,AUTO            cn=1,n=6

     1884    11612    3          CALL Z8IU$CONVERT_OCTAL(LISTLINE.LOC, BINBIT(OBJ_WORD.OFFSET,36));

  11612 38 004372   000000 236000 12                 LDQ     OBJ$
        38 004373   000001 036003                    ADLQ    1,DU
        38 004374   200151 756100                    STQ     SYM_TRUNC+2,,AUTO
        38 004375   200006 630500                    EPPR0   TEXTBUF+2,,AUTO
PL6.E3A0      #006=Z9IL$PRINT_LO File=Z9IL.:Z8A6TSI                              SAT 08/09/97 14:04 Page:286
        38 004376   200150 450500                    STP0    SYM_TRUNC+1,,AUTO
        38 004377   200150 630500                    EPPR0   SYM_TRUNC+1,,AUTO
        38 004400   000000 631400 39                 EPPR1   0
        38 004401   000000 701000 xent               TSX1    Z8IU$CONVERT_OCTAL
        38 004402   000000 011000                    NOP     0

     1885    11613    3          CALL Z8IU$CONVERT_OCTAL(LISTLINE.WD.LH, BINBIT(LOC.LHU,36));

  11613 38 004403   200070 236100                    LDQ     LOC,,AUTO
        38 004404   000022 772000                    QRL     18
        38 004405   200150 756100                    STQ     SYM_TRUNC+1,,AUTO
        38 004406   200150 630500                    EPPR0   SYM_TRUNC+1,,AUTO
        38 004407   200153 450500                    STP0    SYM_TRUNC+4,,AUTO
        38 004410   200154 452500                    STP2    SYM_TRUNC+5,,AUTO
        38 004411   200154 236100                    LDQ     SYM_TRUNC+5,,AUTO
        38 004412   000065 036000 39                 ADLQ    53
        38 004413   200152 756100                    STQ     SYM_TRUNC+3,,AUTO
        38 004414   200152 630500                    EPPR0   SYM_TRUNC+3,,AUTO
        38 004415   000000 631400 39                 EPPR1   0
        38 004416   000000 701000 xent               TSX1    Z8IU$CONVERT_OCTAL
        38 004417   000000 011000                    NOP     0

     1886    11614    3          CALL Z8IU$CONVERT_OCTAL(LISTLINE.WD.RH, BINBIT(LOC.RHU,36));

  11614 38 004420   200070 236100                    LDQ     LOC,,AUTO
        38 004421   777777 376007                    ANQ     -1,DL
        38 004422   200150 756100                    STQ     SYM_TRUNC+1,,AUTO
        38 004423   200150 630500                    EPPR0   SYM_TRUNC+1,,AUTO
        38 004424   200153 450500                    STP0    SYM_TRUNC+4,,AUTO
        38 004425   200012 631500                    EPPR1   TEXTBUF+6,,AUTO
        38 004426   200152 451500                    STP1    SYM_TRUNC+3,,AUTO
        38 004427   200152 630500                    EPPR0   SYM_TRUNC+3,,AUTO
        38 004430   000000 631400 39                 EPPR1   0
        38 004431   000000 701000 xent               TSX1    Z8IU$CONVERT_OCTAL
        38 004432   000000 011000                    NOP     0

     1887    11615    3          VARFLD$ = ADDR(LISTLINE.INST1.VF);
PL6.E3A0      #006=Z9IL$PRINT_LO File=Z9IL.:Z8A6TSI                              SAT 08/09/97 14:04 Page:287

  11615 38 004433   200150 452500                    STP2    SYM_TRUNC+1,,AUTO
        38 004434   200150 236100                    LDQ     SYM_TRUNC+1,,AUTO
        38 004435   000051 036000 39                 ADLQ    41
        38 004436   200047 756100                    STQ     VARFLD$,,AUTO

     1888    11616    3          CALL TRN_RELOC;

  11616 38 004437   003417 701000 38                 TSX1    TRN_RELOC
        38 004440   000000 011000                    NOP     0

     1889    11617
     1890    11618    3          IF ((OBJ_SECT_NUM = %PROC_SECT) AND (OBJ_WORD.OFFSET <= COMCOM.PROC_END))

  11618 38 004441   200055 235100                    LDA     OBJ_SECT_NUM,,AUTO
        38 004442   004447 601000 38                 TNZ     s:11618+6
        38 004443   000000 470400 12                 LDP0    OBJ$
        38 004444   000001 236100                    LDQ     1,,PR0
        38 004445   000147 116000 xsym               CMPQ    COMCOM+103
        38 004446   004454 604400 38                 TMOZ    s:11622
        38 004447   000000 115003                    CMPA    0,DU
        38 004450   004514 604400 38                 TMOZ    s:11634
        38 004451   200055 236100                    LDQ     OBJ_SECT_NUM,,AUTO
        38 004452   000314 116000 xsym               CMPQ    COMCOM+204
        38 004453   004514 605000 38                 TPL     s:11634

     1891    11619    3                                       OR
     1892    11620    3             ((OBJ_SECT_NUM > %PROC_SECT) AND (OBJ_SECT_NUM < COMCOM.SEGMENTC)) THEN
     1893    11621    4           DO;

     1894    11622    4            IF FOLLOW# = 0 THEN

  11622 38 004454   200045 236100                    LDQ     FOLLOW#,,AUTO
        38 004455   004461 601000 38                 TNZ     s:11625

     1895    11623    4              CALL TRN_INST;

PL6.E3A0      #006=Z9IL$PRINT_LO File=Z9IL.:Z8A6TSI                              SAT 08/09/97 14:04 Page:288
  11623 38 004456   002704 701000 38                 TSX1    TRN_INST
        38 004457   000000 011000                    NOP     0
        38 004460   004463 710000 38                 TRA     s:11627

     1896    11624    4            ELSE
     1897    11625    4              CALL TRN_DESC;

  11625 38 004461   001574 701000 38                 TSX1    TRN_DESC
        38 004462   000000 011000                    NOP     0

     1898    11626                 /* Check for end of program & separate data by two blank lines */
     1899    11627    4            IF OBJ_WORD.OFFSET = COMCOM.PROC_END THEN

  11627 38 004463   000000 470400 12                 LDP0    OBJ$
        38 004464   000001 236100                    LDQ     1,,PR0
        38 004465   000147 116000 xsym               CMPQ    COMCOM+103
        38 004466   004516 601000 38                 TNZ     s:11638

     1900    11628    5              DO;

     1901    11629    5                CALL Z9IL$OUTPUT_TO_LO (ADDR(BLANK), LENGTHC(BLANK));

  11629 38 004467   000006 236000 39                 LDQ     6
        38 004470   200150 756100                    STQ     SYM_TRUNC+1,,AUTO
        38 004471   000012 236000 39                 LDQ     10
        38 004472   200153 756100                    STQ     SYM_TRUNC+4,,AUTO
        38 004473   200150 631500                    EPPR1   SYM_TRUNC+1,,AUTO
        38 004474   200152 451500                    STP1    SYM_TRUNC+3,,AUTO
        38 004475   200152 630500                    EPPR0   SYM_TRUNC+3,,AUTO
        38 004476   000000 631400 39                 EPPR1   0
        38 004477   000000 701000 xent               TSX1    Z9IL$OUTPUT_TO_LO
        38 004500   000000 011000                    NOP     0

     1902    11630    5                CALL Z9IL$OUTPUT_TO_LO(ADDR(BLANK), LENGTHC(BLANK));

  11630 38 004501   000006 236000 39                 LDQ     6
        38 004502   200150 756100                    STQ     SYM_TRUNC+1,,AUTO
PL6.E3A0      #006=Z9IL$PRINT_LO File=Z9IL.:Z8A6TSI                              SAT 08/09/97 14:04 Page:289
        38 004503   000012 236000 39                 LDQ     10
        38 004504   200153 756100                    STQ     SYM_TRUNC+4,,AUTO
        38 004505   200150 630500                    EPPR0   SYM_TRUNC+1,,AUTO
        38 004506   200152 450500                    STP0    SYM_TRUNC+3,,AUTO
        38 004507   200152 630500                    EPPR0   SYM_TRUNC+3,,AUTO
        38 004510   000000 631400 39                 EPPR1   0
        38 004511   000000 701000 xent               TSX1    Z9IL$OUTPUT_TO_LO
        38 004512   000000 011000                    NOP     0

     1903    11631    5              END;

     1904    11632    4           END;

  11632 38 004513   004516 710000 38                 TRA     s:11638

     1905    11633    3          ELSE
     1906    11634    3            CALL TRN_DATA;

  11634 38 004514   004124 701000 38                 TSX1    TRN_DATA
        38 004515   000000 011000                    NOP     0

     1907    11635
     1908    11636               %PRINT_LO_BUFFER(LLTYP=%LLTOBJ);

  11638 38 004516   200003 235100                    LDA     LAST_LINE_TYPE,,AUTO
        38 004517   000002 115007                    CMPA    2,DL
        38 004520   004533 600000 38                 TZE     s:11640

  11639 38 004521   000006 236000 39                 LDQ     6
        38 004522   200150 756100                    STQ     SYM_TRUNC+1,,AUTO
        38 004523   000012 236000 39                 LDQ     10
        38 004524   200153 756100                    STQ     SYM_TRUNC+4,,AUTO
        38 004525   200150 630500                    EPPR0   SYM_TRUNC+1,,AUTO
        38 004526   200152 450500                    STP0    SYM_TRUNC+3,,AUTO
        38 004527   200152 630500                    EPPR0   SYM_TRUNC+3,,AUTO
        38 004530   000000 631400 39                 EPPR1   0
        38 004531   000000 701000 xent               TSX1    Z9IL$OUTPUT_TO_LO
PL6.E3A0      #006=Z9IL$PRINT_LO File=Z9IL.:Z8A6TSI                              SAT 08/09/97 14:04 Page:290
        38 004532   000000 011000                    NOP     0

  11640 38 004533   200004 630500                    EPPR0   TEXTBUF,,AUTO
        38 004534   200150 450500                    STP0    SYM_TRUNC+1,,AUTO
        38 004535   000003 236000 39                 LDQ     3
        38 004536   200153 756100                    STQ     SYM_TRUNC+4,,AUTO
        38 004537   200150 631500                    EPPR1   SYM_TRUNC+1,,AUTO
        38 004540   200152 451500                    STP1    SYM_TRUNC+3,,AUTO
        38 004541   200152 630500                    EPPR0   SYM_TRUNC+3,,AUTO
        38 004542   000000 631400 39                 EPPR1   0
        38 004543   000000 701000 xent               TSX1    Z9IL$OUTPUT_TO_LO
        38 004544   000000 011000                    NOP     0

  11641 38 004545   040100 100400                    MLR     fill='040'O
        38 004546   000004 000001 39                 ADSC9   4                        cn=0,n=1
        38 004547   200004 000155                    ADSC9   TEXTBUF,,AUTO            cn=0,n=109

  11642 38 004550   000002 235007                    LDA     2,DL
        38 004551   200003 755100                    STA     LAST_LINE_TYPE,,AUTO

     1909    11645
     1910    11646    3       END;

     1911    11647
     1912    11648    2   END LIST_WORD;

  11648 38 004552   200130 221300                    LDX1  ! @ER$+1,,AUTO
        38 004553   000001 702211                    TSX2  ! 1,X1

     1913    11649        %EJECT;
PL6.E3A0      #006=Z9IL$PRINT_LO File=Z9IL.:Z8A6TSI                              SAT 08/09/97 14:04 Page:291
     1914    11650    1   CLEAR_EIS_BUFFER : PROC;

  11650 38 004554   200124 741300       CLEAR_EIS_B* STX1  ! LOCAL_OBJ_WORD+2,,AUTO

     1915    11651
     1916    11652    2     DCL SV_EIS_BUFFER_LEN SBIN;
     1917    11653    2     DCL SV_OBJ$ PTR;
     1918    11654
     1919    11655    2     SV_EIS_BUFFER_LEN = EIS_BUFFER_LEN - 1;

  11655 38 004555   200101 235100                    LDA     EIS_BUFFER_LEN,,AUTO
        38 004556   000001 135007                    SBLA    1,DL
        38 004557   200125 755100                    STA     SV_EIS_BUFFER_LEN,,AUTO

     1920    11656    2     SV_OBJ$ = OBJ$;

  11656 38 004560   000000 236000 12                 LDQ     OBJ$
        38 004561   200126 756100                    STQ     SV_OBJ$,,AUTO

     1921    11657
     1922    11658    3     DO EIS_BUFFER_LEN = 0 TO SV_EIS_BUFFER_LEN;

  11658 38 004562   200101 450100                    STZ     EIS_BUFFER_LEN,,AUTO
        38 004563   004575 710000 38                 TRA     s:11665+1

     1923    11659
     1924    11660    3       OBJ$ = ADDR(EIS_BUFFER.QUEUE(EIS_BUFFER_LEN));

  11660 38 004564   200101 235100                    LDA     EIS_BUFFER_LEN,,AUTO
        38 004565   000002 735000                    ALS     2
        38 004566   200102 630505                    EPPR0   EIS_BUFFER,AL,AUTO
        38 004567   000000 450400 12                 STP0    OBJ$

     1925    11661    3       LOCAL_OBJ_WORD = BINBIT(EIS_BUFFER.QUEUE.INST(EIS_BUFFER_LEN), 36);

  11661 38 004570   200105 236105                    LDQ     EIS_BUFFER+3,AL,AUTO
        38 004571   200122 756100                    STQ     LOCAL_OBJ_WORD,,AUTO
PL6.E3A0      #006=Z9IL$PRINT_LO File=Z9IL.:Z8A6TSI                              SAT 08/09/97 14:04 Page:292

     1926    11662
     1927    11663    3       CALL LIST_WORD;

  11663 38 004572   004324 701000 38                 TSX1    LIST_WORD
        38 004573   000000 011000                    NOP     0

     1928    11664
     1929    11665    3     END;

  11665 38 004574   200101 054100                    AOS     EIS_BUFFER_LEN,,AUTO
        38 004575   200101 236100                    LDQ     EIS_BUFFER_LEN,,AUTO
        38 004576   200125 116100                    CMPQ    SV_EIS_BUFFER_LEN,,AUTO
        38 004577   004564 604400 38                 TMOZ    s:11660

     1930    11666
     1931    11667    2     OBJ$ = SV_OBJ$;

  11667 38 004600   200126 236100                    LDQ     SV_OBJ$,,AUTO
        38 004601   000000 756000 12                 STQ     OBJ$

     1932    11668    2     EIS_BUFFER_LEN = 0;

  11668 38 004602   200101 450100                    STZ     EIS_BUFFER_LEN,,AUTO

     1933    11669
     1934    11670    2   END CLEAR_EIS_BUFFER;

  11670 38 004603   200124 221300                    LDX1  ! LOCAL_OBJ_WORD+2,,AUTO
        38 004604   000001 702211                    TSX2  ! 1,X1

     1935    11671        %EJECT;
PL6.E3A0      #006=Z9IL$PRINT_LO File=Z9IL.:Z8A6TSI                              SAT 08/09/97 14:04 Page:293
     1936    11672             /* Main body of Z9IL$PRINT_LO */
     1937    11673
     1938    11674    1   ERR$ = ERR_HEAD;

  11674 38 004605   000000 236000 29                 LDQ     ERR_HEAD
        38 004606   000000 756000 28                 STQ     ERR$

     1939    11675
     1940    11676    1   CALL Z9IL$UNGMAP$SI$READ$PREP

  11676 38 004607   000010 631400 39                 EPPR1   8
        38 004610   000000 701000 xent               TSX1    Z9IL$UNGMAP$SI$READ$PREP
        38 004611   004613 702000 38                 TSX2    s:11682
        38 004612   004613 710000 38                 TRA     s:11682

     1941    11677    1        WHENALTRETURN
     1942    11678    2          DO;

     1943    11679                 /* Nothing */
     1944    11680    2          END;

     1945    11681
     1946    11682    1   FOLLOW#            = 0;

  11682 38 004613   200045 450100                    STZ     FOLLOW#,,AUTO

     1947    11683    1   LAST_LINE_TYPE     = %LLTSRC;

  11683 38 004614   000001 235007                    LDA     1,DL
        38 004615   200003 755100                    STA     LAST_LINE_TYPE,,AUTO

     1948    11684    1   TEXTBUF            = ' ';

  11684 38 004616   040100 100400                    MLR     fill='040'O
        38 004617   000004 000001 39                 ADSC9   4                        cn=0,n=1
        38 004620   200004 000155                    ADSC9   TEXTBUF,,AUTO            cn=0,n=109

PL6.E3A0      #006=Z9IL$PRINT_LO File=Z9IL.:Z8A6TSI                              SAT 08/09/97 14:04 Page:294
     1949    11685    1   OBJ_SECT_NUM       = %PROC_SECT;

  11685 38 004621   200055 450100                    STZ     OBJ_SECT_NUM,,AUTO

     1950    11686    1   OBJ_SECT_PTR       = COMCOM.SEGMENT$(%PROC_SECT);

  11686 38 004622   000150 236000 xsym               LDQ     COMCOM+104
        38 004623   200056 756100                    STQ     OBJ_SECT_PTR,,AUTO

     1951    11687    1   LAST_SECT_NUM      = OBJ_SECT_NUM;

  11687 38 004624   200055 235100                    LDA     OBJ_SECT_NUM,,AUTO
        38 004625   200057 755100                    STA     LAST_SECT_NUM,,AUTO

     1952    11688    1   LAST_SECT_OFFSET   = -1;

  11688 38 004626   000001 335007                    LCA     1,DL
        38 004627   200060 755100                    STA     LAST_SECT_OFFSET,,AUTO

     1953    11689    1   LAST_LINE_#        = 0;

  11689 38 004630   200062 450100                    STZ     LAST_LINE_#,,AUTO

     1954    11690    1   EIS_BUFFER_LEN     = 0;

  11690 38 004631   200101 450100                    STZ     EIS_BUFFER_LEN,,AUTO

     1955    11691    1   RESID_LEN          = 0;

  11691 38 004632   200065 450100                    STZ     RESID_LEN,,AUTO

     1956    11692
     1957    11693
     1958    11694    1   IF COMCOM.OB.LISTOUT.CODE OR COMCOM.OB.LISTOUT.DATA THEN

  11694 38 004633   000041 234000 xsym               SZN     COMCOM+33
        38 004634   004640 604000 38                 TMI     s:11696
PL6.E3A0      #006=Z9IL$PRINT_LO File=Z9IL.:Z8A6TSI                              SAT 08/09/97 14:04 Page:295
        38 004635   000041 236000 xsym               LDQ     COMCOM+33
        38 004636   200000 316003                    CANQ    65536,DU
        38 004637   004646 600000 38                 TZE     s:11703

     1959    11695    2     DO;

     1960    11696    2       CALL LIST_CONTROL_SECTIONS;

  11696 38 004640   000003 701000 38                 TSX1    LIST_CONTROL_SECTIONS
        38 004641   000000 011000                    NOP     0

     1961    11697    2       CALL LIST_ENTRY_DEFS;

  11697 38 004642   000263 701000 38                 TSX1    LIST_ENTRY_DEFS
        38 004643   000000 011000                    NOP     0

     1962    11698    2       CALL LIST_ENTRY_REFS;

  11698 38 004644   000426 701000 38                 TSX1    LIST_ENTRY_REFS
        38 004645   000000 011000                    NOP     0

     1963    11699    2     END;

     1964    11700
     1965    11701        %SETUP_SUB_HEADING(L0=LO_TITLE, L1=BLANK);

  11703 38 004646   000066 236000 39                 LDQ     54
        38 004647   000000 756000 1                  STQ     SUB_HEADING_ADDR

  11704 38 004650   000052 235007                    LDA     42,DL
        38 004651   000000 755000 2                  STA     SUB_HEADING_LEN

  11705 38 004652   000006 236000 39                 LDQ     6
        38 004653   000000 756000 3                  STQ     SUB_HEADING_ADDR1

  11706 38 004654   000001 235007                    LDA     1,DL
        38 004655   000000 755000 4                  STA     SUB_HEADING_LEN1
PL6.E3A0      #006=Z9IL$PRINT_LO File=Z9IL.:Z8A6TSI                              SAT 08/09/97 14:04 Page:296

  11707 38 004656   000021 236000 39                 LDQ     17
        38 004657   000000 756000 5                  STQ     SUB_HEADING_ADDR2

  11708 38 004660   000000 450000 6                  STZ     SUB_HEADING_LEN2

     1966    11711        %NEW_PAGE;

  11712 38 004661   000000 235000 7                  LDA     MAX_LINES_PER_PAGE
        38 004662   000000 755000 8                  STA     LISTING_LINES_ON_PAGE

  11713 38 004663   000010 631400 39                 EPPR1   8
        38 004664   000000 701000 xent               TSX1    Z9IL$OUTPUT_TO_LO_PAGE
        38 004665   000000 011000                    NOP     0

     1967    11715
     1968    11716
     1969    11717
     1970    11718        %TOP_OBJ;

  11720 38 004666   000000 234000 13                 SZN     PAGING_OBJ
        38 004667   004713 605000 38                 TPL     s:11731

  11722 38 004670   000000 236000 15                 LDQ     OBJ_FINISHED
        38 004671   400000 376003                    ANQ     -131072,DU
        38 004672   400000 676003                    ERQ     -131072,DU
        38 004673   004702 600000 38                 TZE     s:11727

  11724 38 004674   000070 630400 39                 EPPR0   56
        38 004675   000067 631400 39                 EPPR1   55
        38 004676   000000 701000 xent               TSX1    Z9HF$WRITE_OBJ_PAGE
        38 004677   000000 011000                    NOP     0

  11725 38 004700   400000 236003                    LDQ     -131072,DU
        38 004701   000000 756000 15                 STQ     OBJ_FINISHED

  11727 38 004702   000010 631400 39                 EPPR1   8
PL6.E3A0      #006=Z9IL$PRINT_LO File=Z9IL.:Z8A6TSI                              SAT 08/09/97 14:04 Page:297
        38 004703   000000 701000 xent               TSX1    Z9HF$CLOSE_OBJ
        38 004704   000000 011000                    NOP     0

  11728 38 004705   000010 631400 39                 EPPR1   8
        38 004706   000000 701000 xent               TSX1    Z9HF$OPEN_OBJ_INPUT
        38 004707   000000 011000                    NOP     0

  11729 38 004710   000010 631400 39                 EPPR1   8
        38 004711   000000 701000 xent               TSX1    Z9HF$READ_OBJ_PAGE
        38 004712   000000 011000                    NOP     0

  11731 38 004713   000000 236000 19                 LDQ     OBJ_
        38 004714   000000 756000 12                 STQ     OBJ$

     1971    11734
     1972    11735    2   DO WHILE OBJ$ ~= ADDR(NIL);

  11735 38 004715   005547 710000 38                 TRA     s:11906

     1973    11736
     1974    11737    3     DO CASE (OBJ.ID);

  11737 38 004716   000000 470400 12                 LDP0    OBJ$
        38 004717   000000 236100                    LDQ     0,,PR0
        38 004720   000022 772000                    QRL     18
        38 004721   001010 136007                    SBLQ    520,DL
        38 004722   000004 116007                    CMPQ    4,DL
        38 004723   004725 602006 38                 TNC     s:11737+7,QL
        38 004724   005506 710000 38                 TRA     s:11883
        38 004725   005324 710000 38                 TRA     s:11839
        38 004726   005340 710000 38                 TRA     s:11846
        38 004727   004731 710000 38                 TRA     s:11743
        38 004730   005477 710000 38                 TRA     s:11876

     1975    11738
     1976    11739    3       CASE (%WORD);

PL6.E3A0      #006=Z9IL$PRINT_LO File=Z9IL.:Z8A6TSI                              SAT 08/09/97 14:04 Page:298
     1977    11740
     1978    11741              %APPLY_RESOLVE_ADDRESS;

  11743 38 004731   000003 236100                    LDQ     3,,PR0
        38 004732   200122 756100                    STQ     LOCAL_OBJ_WORD,,AUTO

  11744 38 004733   000000 236100                    LDQ     0,,PR0
        38 004734   020000 316007                    CANQ    8192,DL
        38 004735   005115 600000 38                 TZE     s:11780

  11745 38 004736   200101 235100                    LDA     EIS_BUFFER_LEN,,AUTO
        38 004737   000004 115007                    CMPA    4,DL
        38 004740   004742 602005 38                 TNC     s:11745+4,AL
        38 004741   005115 710000 38                 TRA     s:11780
        38 004742   004746 710000 38                 TRA     s:11747
        38 004743   005000 710000 38                 TRA     s:11754
        38 004744   005032 710000 38                 TRA     s:11761
        38 004745   005064 710000 38                 TRA     s:11768

  11747 38 004746   200122 236100                    LDQ     LOCAL_OBJ_WORD,,AUTO
        38 004747   000100 316007                    CANQ    64,DL
        38 004750   004766 600000 38                 TZE     s:11751

  11748 38 004751   000002 471500                    LDP1    2,,PR0
        38 004752   100001 236100                    LDQ     1,,PR1
        38 004753   000022 772000                    QRL     18
        38 004754   200150 756100                    STQ     SYM_TRUNC+1,,AUTO
        38 004755   200122 236100                    LDQ     LOCAL_OBJ_WORD,,AUTO
        38 004756   000003 736000                    QLS     3
        38 004757   000025 732000                    QRS     21
        38 004760   200150 036100                    ADLQ    SYM_TRUNC+1,,AUTO
        38 004761   000022 736000                    QLS     18
        38 004762   200122 676100                    ERQ     LOCAL_OBJ_WORD,,AUTO
        38 004763   077777 376003                    ANQ     32767,DU
        38 004764   200122 656100                    ERSQ    LOCAL_OBJ_WORD,,AUTO
        38 004765   005115 710000 38                 TRA     s:11780

PL6.E3A0      #006=Z9IL$PRINT_LO File=Z9IL.:Z8A6TSI                              SAT 08/09/97 14:04 Page:299
  11751 38 004766   000002 471500                    LDP1    2,,PR0
        38 004767   100001 236100                    LDQ     1,,PR1
        38 004770   000022 772000                    QRL     18
        38 004771   200150 756100                    STQ     SYM_TRUNC+1,,AUTO
        38 004772   200122 236100                    LDQ     LOCAL_OBJ_WORD,,AUTO
        38 004773   000022 772000                    QRL     18
        38 004774   200150 036100                    ADLQ    SYM_TRUNC+1,,AUTO
        38 004775   000000 620006                    EAX0    0,QL
        38 004776   200122 740100                    STX0    LOCAL_OBJ_WORD,,AUTO
        38 004777   005115 710000 38                 TRA     s:11780

  11754 38 005000   200105 236100                    LDQ     EIS_BUFFER+3,,AUTO
        38 005001   000100 316007                    CANQ    64,DL
        38 005002   005020 600000 38                 TZE     s:11758

  11755 38 005003   000002 471500                    LDP1    2,,PR0
        38 005004   100001 236100                    LDQ     1,,PR1
        38 005005   000022 772000                    QRL     18
        38 005006   200150 756100                    STQ     SYM_TRUNC+1,,AUTO
        38 005007   200122 236100                    LDQ     LOCAL_OBJ_WORD,,AUTO
        38 005010   000003 736000                    QLS     3
        38 005011   000025 732000                    QRS     21
        38 005012   200150 036100                    ADLQ    SYM_TRUNC+1,,AUTO
        38 005013   000022 736000                    QLS     18
        38 005014   200122 676100                    ERQ     LOCAL_OBJ_WORD,,AUTO
        38 005015   077777 376003                    ANQ     32767,DU
        38 005016   200122 656100                    ERSQ    LOCAL_OBJ_WORD,,AUTO
        38 005017   005115 710000 38                 TRA     s:11780

  11758 38 005020   000002 471500                    LDP1    2,,PR0
        38 005021   100001 236100                    LDQ     1,,PR1
        38 005022   000022 772000                    QRL     18
        38 005023   200150 756100                    STQ     SYM_TRUNC+1,,AUTO
        38 005024   200122 236100                    LDQ     LOCAL_OBJ_WORD,,AUTO
        38 005025   000022 772000                    QRL     18
        38 005026   200150 036100                    ADLQ    SYM_TRUNC+1,,AUTO
        38 005027   000000 620006                    EAX0    0,QL
PL6.E3A0      #006=Z9IL$PRINT_LO File=Z9IL.:Z8A6TSI                              SAT 08/09/97 14:04 Page:300
        38 005030   200122 740100                    STX0    LOCAL_OBJ_WORD,,AUTO
        38 005031   005115 710000 38                 TRA     s:11780

  11761 38 005032   200105 236100                    LDQ     EIS_BUFFER+3,,AUTO
        38 005033   000100 316003                    CANQ    64,DU
        38 005034   005052 600000 38                 TZE     s:11765

  11762 38 005035   000002 471500                    LDP1    2,,PR0
        38 005036   100001 236100                    LDQ     1,,PR1
        38 005037   000022 772000                    QRL     18
        38 005040   200150 756100                    STQ     SYM_TRUNC+1,,AUTO
        38 005041   200122 236100                    LDQ     LOCAL_OBJ_WORD,,AUTO
        38 005042   000003 736000                    QLS     3
        38 005043   000025 732000                    QRS     21
        38 005044   200150 036100                    ADLQ    SYM_TRUNC+1,,AUTO
        38 005045   000022 736000                    QLS     18
        38 005046   200122 676100                    ERQ     LOCAL_OBJ_WORD,,AUTO
        38 005047   077777 376003                    ANQ     32767,DU
        38 005050   200122 656100                    ERSQ    LOCAL_OBJ_WORD,,AUTO
        38 005051   005115 710000 38                 TRA     s:11780

  11765 38 005052   000002 471500                    LDP1    2,,PR0
        38 005053   100001 236100                    LDQ     1,,PR1
        38 005054   000022 772000                    QRL     18
        38 005055   200150 756100                    STQ     SYM_TRUNC+1,,AUTO
        38 005056   200122 236100                    LDQ     LOCAL_OBJ_WORD,,AUTO
        38 005057   000022 772000                    QRL     18
        38 005060   200150 036100                    ADLQ    SYM_TRUNC+1,,AUTO
        38 005061   000000 620006                    EAX0    0,QL
        38 005062   200122 740100                    STX0    LOCAL_OBJ_WORD,,AUTO
        38 005063   005115 710000 38                 TRA     s:11780

  11768 38 005064   200105 236100                    LDQ     EIS_BUFFER+3,,AUTO
        38 005065   100000 316003                    CANQ    32768,DU
        38 005066   005104 600000 38                 TZE     s:11772

  11769 38 005067   000002 471500                    LDP1    2,,PR0
PL6.E3A0      #006=Z9IL$PRINT_LO File=Z9IL.:Z8A6TSI                              SAT 08/09/97 14:04 Page:301
        38 005070   100001 236100                    LDQ     1,,PR1
        38 005071   000022 772000                    QRL     18
        38 005072   200150 756100                    STQ     SYM_TRUNC+1,,AUTO
        38 005073   200122 236100                    LDQ     LOCAL_OBJ_WORD,,AUTO
        38 005074   000003 736000                    QLS     3
        38 005075   000025 732000                    QRS     21
        38 005076   200150 036100                    ADLQ    SYM_TRUNC+1,,AUTO
        38 005077   000022 736000                    QLS     18
        38 005100   200122 676100                    ERQ     LOCAL_OBJ_WORD,,AUTO
        38 005101   077777 376003                    ANQ     32767,DU
        38 005102   200122 656100                    ERSQ    LOCAL_OBJ_WORD,,AUTO
        38 005103   005115 710000 38                 TRA     s:11780

  11772 38 005104   000002 471500                    LDP1    2,,PR0
        38 005105   100001 236100                    LDQ     1,,PR1
        38 005106   000022 772000                    QRL     18
        38 005107   200150 756100                    STQ     SYM_TRUNC+1,,AUTO
        38 005110   200122 236100                    LDQ     LOCAL_OBJ_WORD,,AUTO
        38 005111   000022 772000                    QRL     18
        38 005112   200150 036100                    ADLQ    SYM_TRUNC+1,,AUTO
        38 005113   000000 620006                    EAX0    0,QL
        38 005114   200122 740100                    STX0    LOCAL_OBJ_WORD,,AUTO

     1979    11777
     1980    11778              %APPLY_IC;

  11780 38 005115   000000 236100                    LDQ     0,,PR0
        38 005116   001000 316007                    CANQ    512,DL
        38 005117   005265 600000 38                 TZE     s:11818

  11781 38 005120   200101 235100                    LDA     EIS_BUFFER_LEN,,AUTO
        38 005121   000004 115007                    CMPA    4,DL
        38 005122   005124 602005 38                 TNC     s:11781+4,AL
        38 005123   005265 710000 38                 TRA     s:11818
        38 005124   005130 710000 38                 TRA     s:11783
        38 005125   005156 710000 38                 TRA     s:11791
        38 005126   005206 710000 38                 TRA     s:11799
PL6.E3A0      #006=Z9IL$PRINT_LO File=Z9IL.:Z8A6TSI                              SAT 08/09/97 14:04 Page:302
        38 005127   005236 710000 38                 TRA     s:11807

  11783 38 005130   200122 236100                    LDQ     LOCAL_OBJ_WORD,,AUTO
        38 005131   000100 316007                    CANQ    64,DL
        38 005132   005144 600000 38                 TZE     s:11787

  11784 38 005133   200122 236100                    LDQ     LOCAL_OBJ_WORD,,AUTO
        38 005134   000003 736000                    QLS     3
        38 005135   000025 732000                    QRS     21
        38 005136   000001 136100                    SBLQ    1,,PR0
        38 005137   000022 736000                    QLS     18
        38 005140   200122 676100                    ERQ     LOCAL_OBJ_WORD,,AUTO
        38 005141   077777 376003                    ANQ     32767,DU
        38 005142   200122 656100                    ERSQ    LOCAL_OBJ_WORD,,AUTO
        38 005143   005151 710000 38                 TRA     s:11789

  11787 38 005144   200122 236100                    LDQ     LOCAL_OBJ_WORD,,AUTO
        38 005145   000022 772000                    QRL     18
        38 005146   000001 136100                    SBLQ    1,,PR0
        38 005147   000000 620006                    EAX0    0,QL
        38 005150   200122 740100                    STX0    LOCAL_OBJ_WORD,,AUTO

  11789 38 005151   200122 236100                    LDQ     LOCAL_OBJ_WORD,,AUTO
        38 005152   000071 376000 39                 ANQ     57
        38 005153   000004 276007                    ORQ     4,DL
        38 005154   200122 756100                    STQ     LOCAL_OBJ_WORD,,AUTO
        38 005155   005265 710000 38                 TRA     s:11818

  11791 38 005156   200105 236100                    LDQ     EIS_BUFFER+3,,AUTO
        38 005157   000100 316007                    CANQ    64,DL
        38 005160   005173 600000 38                 TZE     s:11795

  11792 38 005161   200122 236100                    LDQ     LOCAL_OBJ_WORD,,AUTO
        38 005162   000003 736000                    QLS     3
        38 005163   000025 732000                    QRS     21
        38 005164   000001 136100                    SBLQ    1,,PR0
        38 005165   200101 036100                    ADLQ    EIS_BUFFER_LEN,,AUTO
PL6.E3A0      #006=Z9IL$PRINT_LO File=Z9IL.:Z8A6TSI                              SAT 08/09/97 14:04 Page:303
        38 005166   000022 736000                    QLS     18
        38 005167   200122 676100                    ERQ     LOCAL_OBJ_WORD,,AUTO
        38 005170   077777 376003                    ANQ     32767,DU
        38 005171   200122 656100                    ERSQ    LOCAL_OBJ_WORD,,AUTO
        38 005172   005201 710000 38                 TRA     s:11797

  11795 38 005173   200122 236100                    LDQ     LOCAL_OBJ_WORD,,AUTO
        38 005174   000022 772000                    QRL     18
        38 005175   000001 136100                    SBLQ    1,,PR0
        38 005176   200101 036100                    ADLQ    EIS_BUFFER_LEN,,AUTO
        38 005177   000000 620006                    EAX0    0,QL
        38 005200   200122 740100                    STX0    LOCAL_OBJ_WORD,,AUTO

  11797 38 005201   200105 236100                    LDQ     EIS_BUFFER+3,,AUTO
        38 005202   000071 376000 39                 ANQ     57
        38 005203   000004 276007                    ORQ     4,DL
        38 005204   200105 756100                    STQ     EIS_BUFFER+3,,AUTO
        38 005205   005265 710000 38                 TRA     s:11818

  11799 38 005206   200105 236100                    LDQ     EIS_BUFFER+3,,AUTO
        38 005207   000100 316003                    CANQ    64,DU
        38 005210   005223 600000 38                 TZE     s:11803

  11800 38 005211   200122 236100                    LDQ     LOCAL_OBJ_WORD,,AUTO
        38 005212   000003 736000                    QLS     3
        38 005213   000025 732000                    QRS     21
        38 005214   000001 136100                    SBLQ    1,,PR0
        38 005215   200101 036100                    ADLQ    EIS_BUFFER_LEN,,AUTO
        38 005216   000022 736000                    QLS     18
        38 005217   200122 676100                    ERQ     LOCAL_OBJ_WORD,,AUTO
        38 005220   077777 376003                    ANQ     32767,DU
        38 005221   200122 656100                    ERSQ    LOCAL_OBJ_WORD,,AUTO
        38 005222   005231 710000 38                 TRA     s:11805

  11803 38 005223   200122 236100                    LDQ     LOCAL_OBJ_WORD,,AUTO
        38 005224   000022 772000                    QRL     18
        38 005225   000001 136100                    SBLQ    1,,PR0
PL6.E3A0      #006=Z9IL$PRINT_LO File=Z9IL.:Z8A6TSI                              SAT 08/09/97 14:04 Page:304
        38 005226   200101 036100                    ADLQ    EIS_BUFFER_LEN,,AUTO
        38 005227   000000 620006                    EAX0    0,QL
        38 005230   200122 740100                    STX0    LOCAL_OBJ_WORD,,AUTO

  11805 38 005231   200105 236100                    LDQ     EIS_BUFFER+3,,AUTO
        38 005232   000072 376000 39                 ANQ     58
        38 005233   000004 276003                    ORQ     4,DU
        38 005234   200105 756100                    STQ     EIS_BUFFER+3,,AUTO
        38 005235   005265 710000 38                 TRA     s:11818

  11807 38 005236   200105 236100                    LDQ     EIS_BUFFER+3,,AUTO
        38 005237   100000 316003                    CANQ    32768,DU
        38 005240   005253 600000 38                 TZE     s:11811

  11808 38 005241   200122 236100                    LDQ     LOCAL_OBJ_WORD,,AUTO
        38 005242   000003 736000                    QLS     3
        38 005243   000025 732000                    QRS     21
        38 005244   000001 136100                    SBLQ    1,,PR0
        38 005245   200101 036100                    ADLQ    EIS_BUFFER_LEN,,AUTO
        38 005246   000022 736000                    QLS     18
        38 005247   200122 676100                    ERQ     LOCAL_OBJ_WORD,,AUTO
        38 005250   077777 376003                    ANQ     32767,DU
        38 005251   200122 656100                    ERSQ    LOCAL_OBJ_WORD,,AUTO
        38 005252   005261 710000 38                 TRA     s:11813

  11811 38 005253   200122 236100                    LDQ     LOCAL_OBJ_WORD,,AUTO
        38 005254   000022 772000                    QRL     18
        38 005255   000001 136100                    SBLQ    1,,PR0
        38 005256   200101 036100                    ADLQ    EIS_BUFFER_LEN,,AUTO
        38 005257   000000 620006                    EAX0    0,QL
        38 005260   200122 740100                    STX0    LOCAL_OBJ_WORD,,AUTO

  11813 38 005261   200105 236100                    LDQ     EIS_BUFFER+3,,AUTO
        38 005262   000073 376000 39                 ANQ     59
        38 005263   004000 276003                    ORQ     2048,DU
        38 005264   200105 756100                    STQ     EIS_BUFFER+3,,AUTO

PL6.E3A0      #006=Z9IL$PRINT_LO File=Z9IL.:Z8A6TSI                              SAT 08/09/97 14:04 Page:305
     1981    11817
     1982    11818    3         IF OBJ_WORD.B.BUFFER THEN

  11818 38 005265   000000 236100                    LDQ     0,,PR0
        38 005266   004000 316007                    CANQ    2048,DL
        38 005267   005303 600000 38                 TZE     s:11825

     1983    11819    4           DO;

     1984    11820    4             EIS_BUFFER.QUEUE(EIS_BUFFER_LEN) = OBJ_WORD;

  11820 38 005270   200101 235100                    LDA     EIS_BUFFER_LEN,,AUTO
        38 005271   000004 735000                    ALS     4
        38 005272   000105 100500                    MLR     fill='000'O
        38 005273   000000 000020                    ADSC9   0,,PR0                   cn=0,n=16
        38 005274   200102 000020                    ADSC9   EIS_BUFFER,A,AUTO        cn=0,n=16

     1985    11821    4             EIS_BUFFER.QUEUE.INST(EIS_BUFFER_LEN) = BITBIN(LOCAL_OBJ_WORD);

  11821 38 005275   200101 236100                    LDQ     EIS_BUFFER_LEN,,AUTO
        38 005276   000002 736000                    QLS     2
        38 005277   200122 235100                    LDA     LOCAL_OBJ_WORD,,AUTO
        38 005300   200105 755106                    STA     EIS_BUFFER+3,QL,AUTO

     1986    11822    4             EIS_BUFFER_LEN = EIS_BUFFER_LEN + 1;

  11822 38 005301   200101 054100                    AOS     EIS_BUFFER_LEN,,AUTO

     1987    11823    4           END;

  11823 38 005302   005506 710000 38                 TRA     s:11883

     1988    11824    3         ELSE
     1989    11825    3           IF EIS_BUFFER_LEN ~= 0 THEN

  11825 38 005303   200101 235100                    LDA     EIS_BUFFER_LEN,,AUTO
        38 005304   005321 600000 38                 TZE     s:11833
PL6.E3A0      #006=Z9IL$PRINT_LO File=Z9IL.:Z8A6TSI                              SAT 08/09/97 14:04 Page:306

     1990    11826    4             DO;

     1991    11827    4               EIS_BUFFER.QUEUE(EIS_BUFFER_LEN) = OBJ_WORD;

  11827 38 005305   000004 735000                    ALS     4
        38 005306   000105 100500                    MLR     fill='000'O
        38 005307   000000 000020                    ADSC9   0,,PR0                   cn=0,n=16
        38 005310   200102 000020                    ADSC9   EIS_BUFFER,A,AUTO        cn=0,n=16

     1992    11828    4               EIS_BUFFER.QUEUE.INST(EIS_BUFFER_LEN) = BITBIN(LOCAL_OBJ_WORD);

  11828 38 005311   200101 236100                    LDQ     EIS_BUFFER_LEN,,AUTO
        38 005312   000002 736000                    QLS     2
        38 005313   200122 235100                    LDA     LOCAL_OBJ_WORD,,AUTO
        38 005314   200105 755106                    STA     EIS_BUFFER+3,QL,AUTO

     1993    11829    4               EIS_BUFFER_LEN = EIS_BUFFER_LEN + 1;

  11829 38 005315   200101 054100                    AOS     EIS_BUFFER_LEN,,AUTO

     1994    11830    4               CALL CLEAR_EIS_BUFFER;

  11830 38 005316   004554 701000 38                 TSX1    CLEAR_EIS_BUFFER
        38 005317   000000 011000                    NOP     0

     1995    11831    4             END;

  11831 38 005320   005506 710000 38                 TRA     s:11883

     1996    11832    3           ELSE
     1997    11833    3             CALL LIST_WORD;

  11833 38 005321   004324 701000 38                 TSX1    LIST_WORD
        38 005322   000000 011000                    NOP     0
        38 005323   005506 710000 38                 TRA     s:11883

PL6.E3A0      #006=Z9IL$PRINT_LO File=Z9IL.:Z8A6TSI                              SAT 08/09/97 14:04 Page:307
     1998    11834
     1999    11835
     2000    11836    3       CASE (%LINE);

     2001    11837
     2002    11838
     2003    11839    3          CALL MERGE_SOURCE(BINBIT(OBJ_LINE.NUMBER,36));

  11839 38 005324   000002 236100                    LDQ     2,,PR0
        38 005325   777777 376007                    ANQ     -1,DL
        38 005326   200160 756100                    STQ     SYM_TRUNC+9,,AUTO
        38 005327   200160 631500                    EPPR1   SYM_TRUNC+9,,AUTO
        38 005330   200125 451500                    STP1    LOCAL_OBJ_WORD+3,,AUTO
        38 005331   000660 701000 38                 TSX1    MERGE_SOURCE
        38 005332   000000 011000                    NOP     0

     2004    11840    3          LAST_LINE_# = OBJ_LINE.NUMBER;

  11840 38 005333   000000 470400 12                 LDP0    OBJ$
        38 005334   000002 236100                    LDQ     2,,PR0
        38 005335   777777 376007                    ANQ     -1,DL
        38 005336   200062 756100                    STQ     LAST_LINE_#,,AUTO
        38 005337   005506 710000 38                 TRA     s:11883

     2005    11841
     2006    11842    3       CASE (%LAB);

     2007    11843
     2008    11844
     2009    11845              %IF_THIS_CODE_SHOULD_BE_LISTED;

  11846 38 005340   000041 234000 xsym               SZN     COMCOM+33
        38 005341   005345 605000 38                 TPL     s:11846+5
        38 005342   200055 236100                    LDQ     OBJ_SECT_NUM,,AUTO
        38 005343   000314 116000 xsym               CMPQ    COMCOM+204
        38 005344   005353 604000 38                 TMI     s:11851
        38 005345   000041 236000 xsym               LDQ     COMCOM+33
PL6.E3A0      #006=Z9IL$PRINT_LO File=Z9IL.:Z8A6TSI                              SAT 08/09/97 14:04 Page:308
        38 005346   200000 316003                    CANQ    65536,DU
        38 005347   005506 600000 38                 TZE     s:11883
        38 005350   200055 236100                    LDQ     OBJ_SECT_NUM,,AUTO
        38 005351   000314 116000 xsym               CMPQ    COMCOM+204
        38 005352   005506 604000 38                 TMI     s:11883

     2010    11850    4           DO;

     2011    11851    4              IF (LAST_SECT_NUM ~= OBJ_SECT_NUM)

  11851 38 005353   200057 116100                    CMPQ    LAST_SECT_NUM,,AUTO
        38 005354   005365 601000 38                 TNZ     s:11854
        38 005355   000001 471500                    LDP1    1,,PR0
        38 005356   100001 236100                    LDQ     1,,PR1
        38 005357   000022 772000                    QRL     18
        38 005360   200150 756100                    STQ     SYM_TRUNC+1,,AUTO
        38 005361   200060 236100                    LDQ     LAST_SECT_OFFSET,,AUTO
        38 005362   000001 036007                    ADLQ    1,DL
        38 005363   200150 116100                    CMPQ    SYM_TRUNC+1,,AUTO
        38 005364   005405 600000 38                 TZE     s:11857

     2012    11852    4                     OR (LAST_SECT_OFFSET+1 ~= OBJ_LAB.ST$ -> LABEL.DESC.SA) THEN
     2013    11853    5                DO;

     2014    11854    5                 CALL GEN_ORG(OBJ_SECT_PTR, BINBIT(OBJ_LAB.ST$ -> LABEL.DESC.SA, 36));

  11854 38 005365   000001 471500                    LDP1    1,,PR0
        38 005366   100001 236100                    LDQ     1,,PR1
        38 005367   000022 772000                    QRL     18
        38 005370   200162 756100                    STQ     SYM_TRUNC+11,,AUTO
        38 005371   200162 631500                    EPPR1   SYM_TRUNC+11,,AUTO
        38 005372   200134 451500                    STP1    @SECT_PTR+1,,AUTO
        38 005373   200056 633500                    EPPR3   OBJ_SECT_PTR,,AUTO
        38 005374   200133 453500                    STP3    @TYPE+1,,AUTO
        38 005375   003766 701000 38                 TSX1    GEN_ORG
        38 005376   000000 011000                    NOP     0

PL6.E3A0      #006=Z9IL$PRINT_LO File=Z9IL.:Z8A6TSI                              SAT 08/09/97 14:04 Page:309
     2015    11855    5                  LAST_SECT_OFFSET = OBJ_LAB.ST$ -> LABEL.DESC.SA -1;

  11855 38 005377   000000 470400 12                 LDP0    OBJ$
        38 005400   000001 471500                    LDP1    1,,PR0
        38 005401   100001 236100                    LDQ     1,,PR1
        38 005402   000022 772000                    QRL     18
        38 005403   000001 136007                    SBLQ    1,DL
        38 005404   200060 756100                    STQ     LAST_SECT_OFFSET,,AUTO

     2016    11856    5                END;

     2017    11857    4              CALL BINCHAR(TEMPC, LAST_LINE_#);

  11857 38 005405   000100 301500                    BTD
        38 005406   200062 000004                    NDSC9   LAST_LINE_#,,AUTO        cn=0,s=lsgnf,sf=0,n=4
        38 005407   200053 030006                    NDSC9   TEMPC,,AUTO              cn=0,s=nosgn,sf=0,n=6

     2018    11858    4              CALL EDITCHAR(LISTLINE.LINENO, 0, 6, MOP6, TEMPC);

  11858 38 005410   100000 024500                    MVNE
        38 005411   200053 030006                    NDSC9   TEMPC,,AUTO              cn=0,s=nosgn,sf=0,n=6
        38 005412   002415 000002 33                 ADSC9   MOP6                     cn=0,n=2
        38 005413   200004 200006                    ADSC9   TEXTBUF,,AUTO            cn=1,n=6

     2019    11859    4             CALL Z8IU$CONVERT_OCTAL(LISTLINE.LOC, BINBIT(OBJ_LAB.ST$ -> LABEL.DESC.SA
             11859                       , 36));

  11859 38 005414   000001 471500                    LDP1    1,,PR0
        38 005415   100001 236100                    LDQ     1,,PR1
        38 005416   000022 772000                    QRL     18
        38 005417   200150 756100                    STQ     SYM_TRUNC+1,,AUTO
        38 005420   200150 631500                    EPPR1   SYM_TRUNC+1,,AUTO
        38 005421   200153 451500                    STP1    SYM_TRUNC+4,,AUTO
        38 005422   200006 633500                    EPPR3   TEXTBUF+2,,AUTO
        38 005423   200152 453500                    STP3    SYM_TRUNC+3,,AUTO
        38 005424   200152 630500                    EPPR0   SYM_TRUNC+3,,AUTO
        38 005425   000000 631400 39                 EPPR1   0
PL6.E3A0      #006=Z9IL$PRINT_LO File=Z9IL.:Z8A6TSI                              SAT 08/09/97 14:04 Page:310
        38 005426   000000 701000 xent               TSX1    Z8IU$CONVERT_OCTAL
        38 005427   000000 011000                    NOP     0

     2020    11860    4              LISTLINE.INST1.LF = OBJ_LAB.ST$ -> LABEL.DNT$ -> DNT.TEXT.NAME;

  11860 38 005430   000000 470400 12                 LDP0    OBJ$
        38 005431   000001 471500                    LDP1    1,,PR0
        38 005432   100006 473500                    LDP3    6,,PR1
        38 005433   300004 220100                    LDX0    4,,PR3
        38 005434   040100 100540                    MLR     fill='040'O
        38 005435   300004 400010                    ADSC9   4,,PR3                   cn=2,n=*X0
        38 005436   200015 200014                    ADSC9   TEXTBUF+9,,AUTO          cn=1,n=12

     2021    11861    4              LISTLINE.INST1.CF = 'NULL';

  11861 38 005437   040100 100400                    MLR     fill='040'O
        38 005440   003074 000004 33                 ADSC9   PTRREGS+86               cn=0,n=4
        38 005441   200020 400010                    ADSC9   TEXTBUF+12,,AUTO         cn=2,n=8

     2022    11862                   %PRINT_LO_BUFFER(LLTYP=%LLTOBJ);

  11864 38 005442   200003 235100                    LDA     LAST_LINE_TYPE,,AUTO
        38 005443   000002 115007                    CMPA    2,DL
        38 005444   005457 600000 38                 TZE     s:11866

  11865 38 005445   000006 236000 39                 LDQ     6
        38 005446   200150 756100                    STQ     SYM_TRUNC+1,,AUTO
        38 005447   000012 236000 39                 LDQ     10
        38 005450   200153 756100                    STQ     SYM_TRUNC+4,,AUTO
        38 005451   200150 631500                    EPPR1   SYM_TRUNC+1,,AUTO
        38 005452   200152 451500                    STP1    SYM_TRUNC+3,,AUTO
        38 005453   200152 630500                    EPPR0   SYM_TRUNC+3,,AUTO
        38 005454   000000 631400 39                 EPPR1   0
        38 005455   000000 701000 xent               TSX1    Z9IL$OUTPUT_TO_LO
        38 005456   000000 011000                    NOP     0

  11866 38 005457   200004 630500                    EPPR0   TEXTBUF,,AUTO
PL6.E3A0      #006=Z9IL$PRINT_LO File=Z9IL.:Z8A6TSI                              SAT 08/09/97 14:04 Page:311
        38 005460   200150 450500                    STP0    SYM_TRUNC+1,,AUTO
        38 005461   000003 236000 39                 LDQ     3
        38 005462   200153 756100                    STQ     SYM_TRUNC+4,,AUTO
        38 005463   200150 631500                    EPPR1   SYM_TRUNC+1,,AUTO
        38 005464   200152 451500                    STP1    SYM_TRUNC+3,,AUTO
        38 005465   200152 630500                    EPPR0   SYM_TRUNC+3,,AUTO
        38 005466   000000 631400 39                 EPPR1   0
        38 005467   000000 701000 xent               TSX1    Z9IL$OUTPUT_TO_LO
        38 005470   000000 011000                    NOP     0

  11867 38 005471   040100 100400                    MLR     fill='040'O
        38 005472   000004 000001 39                 ADSC9   4                        cn=0,n=1
        38 005473   200004 000155                    ADSC9   TEXTBUF,,AUTO            cn=0,n=109

  11868 38 005474   000002 235007                    LDA     2,DL
        38 005475   200003 755100                    STA     LAST_LINE_TYPE,,AUTO

     2023    11871    4           END;

  11871 38 005476   005506 710000 38                 TRA     s:11883

     2024    11872
     2025    11873    3       CASE (%ORG);

     2026    11874
     2027    11875
     2028    11876    3          OBJ_SECT_NUM = OBJ_ORG.ST$ -> ST.OU_INDEX;

  11876 38 005477   000001 471500                    LDP1    1,,PR0
        38 005500   100001 236100                    LDQ     1,,PR1
        38 005501   000022 736000                    QLS     18
        38 005502   000022 732000                    QRS     18
        38 005503   200055 756100                    STQ     OBJ_SECT_NUM,,AUTO

     2029    11877    3          OBJ_SECT_PTR = OBJ_ORG.ST$;

  11877 38 005504   000001 236100                    LDQ     1,,PR0
PL6.E3A0      #006=Z9IL$PRINT_LO File=Z9IL.:Z8A6TSI                              SAT 08/09/97 14:04 Page:312
        38 005505   200056 756100                    STQ     OBJ_SECT_PTR,,AUTO

     2030    11878
     2031    11879    3     END;  /* CASE */

     2032    11880
     2033    11881          %STEP_OBJ;

  11883 38 005506   000000 470400 12                 LDP0    OBJ$
        38 005507   000000 220100                    LDX0    0,,PR0
        38 005510   776770 721010 xsym               LXL1    OBJ_STEP-520,X0
        38 005511   000000 636011                    EAQ     0,X1
        38 005512   000000 036000 12                 ADLQ    OBJ$
        38 005513   000000 756000 12                 STQ     OBJ$

  11884 38 005514   000000 470400 12                 LDP0    OBJ$
        38 005515   000000 220100                    LDX0    0,,PR0
        38 005516   005547 601000 38                 TNZ     s:11906

  11886 38 005517   000000 234000 13                 SZN     PAGING_OBJ
        38 005520   005535 605000 38                 TPL     s:11898

  11888 38 005521   000010 631400 39                 EPPR1   8
        38 005522   000000 701000 xent               TSX1    Z9HF$READ_OBJ_PAGE
        38 005523   005527 702000 38                 TSX2    s:11893

  11890 38 005524   000001 236000 19                 LDQ     OBJ_+1
        38 005525   000000 756000 12                 STQ     OBJ$

  11891 38 005526   005534 710000 38                 TRA     s:11896

  11893 38 005527   000010 631400 39                 EPPR1   8
        38 005530   000000 701000 xent               TSX1    Z9HF$CLOSE_OBJ
        38 005531   000000 011000                    NOP     0

  11894 38 005532   000021 236000 39                 LDQ     17
        38 005533   000000 756000 12                 STQ     OBJ$
PL6.E3A0      #006=Z9IL$PRINT_LO File=Z9IL.:Z8A6TSI                              SAT 08/09/97 14:04 Page:313

  11896 38 005534   005547 710000 38                 TRA     s:11906

  11898 38 005535   000002 236000 19                 LDQ     OBJ_+2
        38 005536   000022 736000                    QLS     18
        38 005537   000001 036000 19                 ADLQ    OBJ_+1
        38 005540   000000 116000 12                 CMPQ    OBJ$
        38 005541   005545 601000 38                 TNZ     s:11901

  11899 38 005542   000021 236000 39                 LDQ     17
        38 005543   000000 756000 12                 STQ     OBJ$
        38 005544   005547 710000 38                 TRA     s:11906

  11901 38 005545   000001 236100                    LDQ     1,,PR0
        38 005546   000000 756000 12                 STQ     OBJ$

     2034    11905
     2035    11906    2   END;  /* DO WHILE */

  11906 38 005547   000021 116000 39                 CMPQ    17
        38 005550   004716 601000 38                 TNZ     s:11737

     2036    11907
     2037    11908             /* Clear out any leftover source */
     2038    11909
     2039    11910    1   CALL MERGE_SOURCE(999999);

  11910 38 005551   000075 236000 39                 LDQ     61
        38 005552   200125 756100                    STQ     LOCAL_OBJ_WORD+3,,AUTO
        38 005553   000660 701000 38                 TSX1    MERGE_SOURCE
        38 005554   000000 011000                    NOP     0

     2040    11911
     2041    11912    1   IF COMCOM.OB.DM OR COMCOM.OB.MDM THEN

  11912 38 005555   000065 235000 xsym               LDA     COMCOM+53
        38 005556   005561 601000 38                 TNZ     s:11913
PL6.E3A0      #006=Z9IL$PRINT_LO File=Z9IL.:Z8A6TSI                              SAT 08/09/97 14:04 Page:314
        38 005557   000066 236000 xsym               LDQ     COMCOM+54
        38 005560   005563 600000 38                 TZE     s:11915

     2042    11913    1     CALL LIST_DATA_MAP;

  11913 38 005561   000525 701000 38                 TSX1    LIST_DATA_MAP
        38 005562   000000 011000                    NOP     0

     2043    11914
     2044    11915    1   END Z9IL$PRINT_LO;

  11915 38 005563   000000 702200 xent               TSX2  ! X66_ARET
     2045    11916        %EOD;

PL6.E3A0      #006=Z9IL$PRINT_LO File=Z9IL.:Z8A6TSI                              SAT 08/09/97 14:04 Page:315
--  Include file information  --

   Z8A_QLT.:Z8A6TOU  cannot be made into a system file and is referenced.
   Z8A_ERR.:Z8A6TOU  cannot be made into a system file and is referenced.
   Z8A_DNT.:Z8A6TOU  cannot be made into a system file and is referenced.
   Z8A_LTS.:Z8A6TOU  cannot be made into a system file and is referenced.
   Z8A_ST.:Z8A6TOU  cannot be made into a system file and is referenced.
   Z8A_OBJ.:Z8A6TOU  cannot be made into a system file and is referenced.
   Z8I_LISTING.:Z8A6TOU  cannot be made into a system file and is referenced.
   Z9I_PREPROC.:Z8A6TOU  is referenced.
   Z8A_COMCOM.:Z8A6TOU  cannot be made into a system file and is referenced.
   X8A_COM_MACS.:X8A6TOU  is referenced.
   Z8A_NAMES.:Z8A6TOU  is referenced.
   Z8A_SUPP_MAC.:Z8A6TOU  is referenced.
   Z8A_DEFC.:Z8A6TOU  cannot be made into a system file and is referenced.
      No diagnostics issued in procedure Z9IL$PRINT_LO.
PL6.E3A0      #006=Z9IL$PRINT_LO File=Z9IL.:Z8A6TSI                              SAT 08/09/97 14:04 Page:316

 **** Variables and constants ****

  ****  Section 000 LblCom ITERATION

  ****  Scalars and arrays  ****
OctLoc.c.b A Datatyp(siz) R M Lvl/name                 OctLoc.c.b A Datatyp(siz) R M Lvl/name

     0-0-0/w SBIN              1 ITERATION

  ****  Section 001 LblCom SUB_HEADING_ADDR

  ****  Scalars and arrays  ****
OctLoc.c.b A Datatyp(siz) R M Lvl/name                 OctLoc.c.b A Datatyp(siz) R M Lvl/name

     0-0-0/w PTR         r     1 SUB_HEADING_ADDR

  ****  Section 002 LblCom SUB_HEADING_LEN

  ****  Scalars and arrays  ****
OctLoc.c.b A Datatyp(siz) R M Lvl/name                 OctLoc.c.b A Datatyp(siz) R M Lvl/name

     0-0-0/w SBIN        r     1 SUB_HEADING_LEN

  ****  Section 003 LblCom SUB_HEADING_ADDR1

  ****  Scalars and arrays  ****
OctLoc.c.b A Datatyp(siz) R M Lvl/name                 OctLoc.c.b A Datatyp(siz) R M Lvl/name

     0-0-0/w PTR         r     1 SUB_HEADING_ADDR1

  ****  Section 004 LblCom SUB_HEADING_LEN1

  ****  Scalars and arrays  ****
OctLoc.c.b A Datatyp(siz) R M Lvl/name                 OctLoc.c.b A Datatyp(siz) R M Lvl/name

     0-0-0/w SBIN        r     1 SUB_HEADING_LEN1

PL6.E3A0      #006=Z9IL$PRINT_LO File=Z9IL.:Z8A6TSI                              SAT 08/09/97 14:04 Page:317
  ****  Section 005 LblCom SUB_HEADING_ADDR2

  ****  Scalars and arrays  ****
OctLoc.c.b A Datatyp(siz) R M Lvl/name                 OctLoc.c.b A Datatyp(siz) R M Lvl/name

     0-0-0/w PTR         r     1 SUB_HEADING_ADDR2

  ****  Section 006 LblCom SUB_HEADING_LEN2

  ****  Scalars and arrays  ****
OctLoc.c.b A Datatyp(siz) R M Lvl/name                 OctLoc.c.b A Datatyp(siz) R M Lvl/name

     0-0-0/w SBIN        r     1 SUB_HEADING_LEN2

  ****  Section 007 LblCom MAX_LINES_PER_PAGE

  ****  Scalars and arrays  ****
OctLoc.c.b A Datatyp(siz) R M Lvl/name                 OctLoc.c.b A Datatyp(siz) R M Lvl/name

     0-0-0/w SBIN        r     1 MAX_LINES_PER_PAGE

  ****  Section 008 LblCom LISTING_LINES_ON_PAGE

  ****  Scalars and arrays  ****
OctLoc.c.b A Datatyp(siz) R M Lvl/name                 OctLoc.c.b A Datatyp(siz) R M Lvl/name

     0-0-0/w SBIN        r     1 LISTING_LINES_ON_PAGE

  ****  Section 009 LblCom LISTING_PAGE_NUMBER

  ****  Scalars and arrays  ****
OctLoc.c.b A Datatyp(siz) R M Lvl/name                 OctLoc.c.b A Datatyp(siz) R M Lvl/name

     0-0-0/w SBIN              1 LISTING_PAGE_NUMBER

  ****  Section 010 LblCom PLINE

PL6.E3A0      #006=Z9IL$PRINT_LO File=Z9IL.:Z8A6TSI                              SAT 08/09/97 14:04 Page:318
  ****  Scalars and arrays  ****
OctLoc.c.b A Datatyp(siz) R M Lvl/name                 OctLoc.c.b A Datatyp(siz) R M Lvl/name

     0-0-0/c CHAR(109)         1 PLINE
     0-0-0/c CHAR              1 PLINE_CHAR(0:108)
     0-0-0/c STRC(981)         1 PLINE_REDEF_FIELDS

  ****  Section 011 LblCom PLINE_LEN

  ****  Scalars and arrays  ****
OctLoc.c.b A Datatyp(siz) R M Lvl/name                 OctLoc.c.b A Datatyp(siz) R M Lvl/name

     0-0-0/w SBIN              1 PLINE_LEN

  ****  Section 012 LblCom OBJ$

  ****  Scalars and arrays  ****
OctLoc.c.b A Datatyp(siz) R M Lvl/name                 OctLoc.c.b A Datatyp(siz) R M Lvl/name

     0-0-0/w PTR         r     1 OBJ$

  ****  Section 013 LblCom PAGING_OBJ

  ****  Scalars and arrays  ****
OctLoc.c.b A Datatyp(siz) R M Lvl/name                 OctLoc.c.b A Datatyp(siz) R M Lvl/name

     0-0-0/w BIT         r     1 PAGING_OBJ

  ****  Section 014 LblCom OBJ_PAGE_COUNT

  ****  Scalars and arrays  ****
OctLoc.c.b A Datatyp(siz) R M Lvl/name                 OctLoc.c.b A Datatyp(siz) R M Lvl/name

     0-0-0/w SBIN              1 OBJ_PAGE_COUNT

  ****  Section 015 LblCom OBJ_FINISHED

PL6.E3A0      #006=Z9IL$PRINT_LO File=Z9IL.:Z8A6TSI                              SAT 08/09/97 14:04 Page:319
  ****  Scalars and arrays  ****
OctLoc.c.b A Datatyp(siz) R M Lvl/name                 OctLoc.c.b A Datatyp(siz) R M Lvl/name

     0-0-0/w BIT         r     1 OBJ_FINISHED

  ****  Section 016 LblCom OBJ_SEG_SIZE

  ****  Scalars and arrays  ****
OctLoc.c.b A Datatyp(siz) R M Lvl/name                 OctLoc.c.b A Datatyp(siz) R M Lvl/name

     0-0-0/w SBIN              1 OBJ_SEG_SIZE

  ****  Section 017 LblCom OBJ_TOP_NEW_SEG

  ****  Scalars and arrays  ****
OctLoc.c.b A Datatyp(siz) R M Lvl/name                 OctLoc.c.b A Datatyp(siz) R M Lvl/name

     0-0-0/w PTR               1 OBJ_TOP_NEW_SEG

  ****  Section 018 LblCom OBJ_LAST_REGULAR_PAGE

  ****  Scalars and arrays  ****
OctLoc.c.b A Datatyp(siz) R M Lvl/name                 OctLoc.c.b A Datatyp(siz) R M Lvl/name

     0-0-0/w PTR               1 OBJ_LAST_REGULAR_PAGE

  ****  Section 019 LblCom OBJ_

  ****  Scalars and arrays  ****
OctLoc.c.b A Datatyp(siz) R M Lvl/name                 OctLoc.c.b A Datatyp(siz) R M Lvl/name

     0-0-0/w STRC(180)   r     1 OBJ_

  ****  Section 020 LblCom ST$

  ****  Scalars and arrays  ****
OctLoc.c.b A Datatyp(siz) R M Lvl/name                 OctLoc.c.b A Datatyp(siz) R M Lvl/name
PL6.E3A0      #006=Z9IL$PRINT_LO File=Z9IL.:Z8A6TSI                              SAT 08/09/97 14:04 Page:320

     0-0-0/w PTR         r     1 ST$

  ****  Section 021 LblCom ST_

  ****  Scalars and arrays  ****
OctLoc.c.b A Datatyp(siz) R M Lvl/name                 OctLoc.c.b A Datatyp(siz) R M Lvl/name

     0-0-0/w STRC(180)   r     1 ST_

  ****  Section 022 LblCom LTS$

  ****  Scalars and arrays  ****
OctLoc.c.b A Datatyp(siz) R M Lvl/name                 OctLoc.c.b A Datatyp(siz) R M Lvl/name

     0-0-0/w PTR               1 LONG_ITEM$                 0-0-0/w PTR         r     1 LTS$

  ****  Section 023 LblCom LTS_

  ****  Scalars and arrays  ****
OctLoc.c.b A Datatyp(siz) R M Lvl/name                 OctLoc.c.b A Datatyp(siz) R M Lvl/name

     0-0-0/w STRC(180)         1 LTS_

  ****  Section 024 LblCom DNT$

  ****  Scalars and arrays  ****
OctLoc.c.b A Datatyp(siz) R M Lvl/name                 OctLoc.c.b A Datatyp(siz) R M Lvl/name

     0-0-0/w PTR         r     1 DNT$

  ****  Section 025 LblCom DNT_

  ****  Scalars and arrays  ****
OctLoc.c.b A Datatyp(siz) R M Lvl/name                 OctLoc.c.b A Datatyp(siz) R M Lvl/name

     0-0-0/w STRC(180)         1 DNT_
PL6.E3A0      #006=Z9IL$PRINT_LO File=Z9IL.:Z8A6TSI                              SAT 08/09/97 14:04 Page:321

  ****  Section 026 LblCom DNT_BUCKET_NUMBER

  ****  Scalars and arrays  ****
OctLoc.c.b A Datatyp(siz) R M Lvl/name                 OctLoc.c.b A Datatyp(siz) R M Lvl/name

     0-0-0/w UBIN              1 DNT_BUCKET_NUMBER

  ****  Section 027 LblCom DNT_OF_1$

  ****  Scalars and arrays  ****
OctLoc.c.b A Datatyp(siz) R M Lvl/name                 OctLoc.c.b A Datatyp(siz) R M Lvl/name

     0-0-0/w PTR               1 DNT_OF_1$

  ****  Section 028 LblCom ERR$

  ****  Scalars and arrays  ****
OctLoc.c.b A Datatyp(siz) R M Lvl/name                 OctLoc.c.b A Datatyp(siz) R M Lvl/name

     0-0-0/w PTR         r     1 ERR$

  ****  Section 029 LblCom ERR_HEAD

  ****  Scalars and arrays  ****
OctLoc.c.b A Datatyp(siz) R M Lvl/name                 OctLoc.c.b A Datatyp(siz) R M Lvl/name

     0-0-0/w PTR         r     1 ERR_HEAD

  ****  Section 030 LblCom ERR_TAIL

  ****  Scalars and arrays  ****
OctLoc.c.b A Datatyp(siz) R M Lvl/name                 OctLoc.c.b A Datatyp(siz) R M Lvl/name

     0-0-0/w PTR               1 ERR_TAIL

  ****  Section 031 LblCom MAX_ERROR_GENERATED
PL6.E3A0      #006=Z9IL$PRINT_LO File=Z9IL.:Z8A6TSI                              SAT 08/09/97 14:04 Page:322

  ****  Scalars and arrays  ****
OctLoc.c.b A Datatyp(siz) R M Lvl/name                 OctLoc.c.b A Datatyp(siz) R M Lvl/name

     0-0-0/w SBIN              1 MAX_ERROR_GENERATED

  ****  Section 032 LblCom ERR_

  ****  Scalars and arrays  ****
OctLoc.c.b A Datatyp(siz) R M Lvl/name                 OctLoc.c.b A Datatyp(siz) R M Lvl/name

     0-0-0/w STRC(180)         1 ERR_

  ****  Section 033 RoData Z9IL$PRINT_LO

  ****  Scalars and arrays  ****
OctLoc.c.b A Datatyp(siz) R M Lvl/name                 OctLoc.c.b A Datatyp(siz) R M Lvl/name

  2524-0-0/c CHAR(9)     r     1 BYTBIT(0:3)             2577-0-0/c CHAR(32)    r     1 CSHDR
  2637-0-0/c CHAR(46)    r     1 EDEFHD0                 2653-0-0/c CHAR(58)    r     1 EDEFHD1
  2630-0-0/c CHAR(26)    r     1 EDHDR                   2701-0-0/c CHAR(30)    r     1 EREFHD0
  2711-0-0/c CHAR(40)    r     1 EREFHD1                 2672-0-0/c CHAR(26)    r     1 ERHDR
     0-0-0/c CHAR(42)    r     1 LO_TITLE                2413-0-0/b BIT (9)           1 MOP3(0:2)
  2414-0-0/b BIT (9)     r     1 MOP4(0:2)               2415-0-0/b BIT (9)     r     1 MOP6(0:1)
    13-0-0/w STRC(46080) r     1 OPCODES
  2535-0-0/w UBIN        r     1 PMMECODES(0:7)
  2545-0-0/c CHAR(8)     r     1 PMMENAMES(0:7)
  2746-0-0/c CHAR(5)     r     1 PTRREGS(0:7)
  2723-0-0/c CHAR(34)    r     1 SAHDR                   2607-0-0/c CHAR(65)    r     1 SECTHD1
  2565-0-0/c CHAR(5)     r     1 SIGNCODE(0:3)
  2572-0-0/c CHAR(5)     r     1 SIGNCODEO(0:3)
  2416-0-0/c CHAR(4)     r     1 TAGS(0:63)              2516-0-0/b UBIN(3)     r     1 TAGSZ(0:63)
  2734-0-0/c CHAR(38)    r     1 VSTRCTHD1

  ****  Section 034 LblCom QLT$

  ****  Scalars and arrays  ****
PL6.E3A0      #006=Z9IL$PRINT_LO File=Z9IL.:Z8A6TSI                              SAT 08/09/97 14:04 Page:323
OctLoc.c.b A Datatyp(siz) R M Lvl/name                 OctLoc.c.b A Datatyp(siz) R M Lvl/name

     0-0-0/w PTR         r     1 QLT$

  ****  Section 035 LblCom PREV_01_QLT$

  ****  Scalars and arrays  ****
OctLoc.c.b A Datatyp(siz) R M Lvl/name                 OctLoc.c.b A Datatyp(siz) R M Lvl/name

     0-0-0/w PTR               1 PREV_01_QLT$

  ****  Section 036 LblCom QLT_

  ****  Scalars and arrays  ****
OctLoc.c.b A Datatyp(siz) R M Lvl/name                 OctLoc.c.b A Datatyp(siz) R M Lvl/name

     0-0-0/w STRC(180)         1 QLT_

  ****  Section 037  Data  Z9IL$PRINT_LO

  ****  Scalars and arrays  ****
OctLoc.c.b A Datatyp(siz) R M Lvl/name                 OctLoc.c.b A Datatyp(siz) R M Lvl/name

     0-0-0/b BIT         r     1 EOF_SOURCE                 2-0-0/c STRC(1197)  r     1 LINE
     1-0-0/w SBIN        r     1 LINE#_WAITING

  ****  Auto variables  ****

  ****  Scalars and arrays  ****
OctLoc.c.b A Datatyp(siz) R M Lvl/name                 OctLoc.c.b A Datatyp(siz) R M Lvl/name

   127-0-0/w PTR         r     1 @ER$                     125-0-0/w PTR         r     1 @LINE#
   137-0-0/w PTR         r     1 @OFFSET                  134-0-0/w PTR         r     1 @OFFSET
   135-0-0/w PTR         r     1 @PRBIT                   136-0-0/w PTR         r     1 @P_TAG
   131-0-0/w PTR         r     1 @SECT$                   133-0-0/w PTR         r     1 @SECT_PTR
   132-0-0/w PTR         r     1 @TYPE                    134-0-0/w SBIN        r     1 BS_OU_INDEX
   135-0-0/w SBIN        r     1 BS_OU_INDEX_TYPE         136-0-0/w PTR         r     1 BS_ST$
PL6.E3A0      #006=Z9IL$PRINT_LO File=Z9IL.:Z8A6TSI                              SAT 08/09/97 14:04 Page:324
   125-0-0/w SBIN        r     1 COUNT                     44-0-0/w SBIN        r     1 DESC_TYPE
     4-0-0/c STRC(981)   r     1 EDEFLINE                  77-0-0/w SBIN        r     1 EISDESC#
    74-0-0/w STRC(3)     r     1 EISMF(0:2)
    71-0-0/w UBIN(6)     r     1 EISTAGS(0:2)
   102-0-0/w STRC(576)   r     1 EIS_BUFFER               101-0-0/w SBIN        r     1 EIS_BUFFER_LEN
    52-0-0/w SBIN(18)    r     1 ENT#                      *0-0-0/w PTR         r     1 ER$
     4-0-0/c STRC(981)   r     1 EREFLINE                  43-0-0/w SBIN        r     1 FOLLOW
    45-0-0/w SBIN        r     1 FOLLOW#                  133-0-0/w SBIN        r     1 I
    46-0-0/w SBIN              1 LASTLOC                   62-0-0/w SBIN        r     1 LAST_LINE_#
     3-0-0/w SBIN        r     1 LAST_LINE_TYPE            57-0-0/w SBIN        r     1 LAST_SECT_NUM
    60-0-0/w SBIN        r     1 LAST_SECT_OFFSET          *0-0-0/w SBIN        r     1 LINE#
     4-0-0/c STRC(981)   r     1 LISTLINE                  70-0-0/b STRC        r     1 LOC
    70-0-0/b STRC        r     1 LOCADSC                  122-0-0/w STRC        r     1 LOCAL_OBJ_WORD
    70-0-0/b STRC        r     1 LOCBDSC                   70-0-0/b STRC        r     1 LOCCLIMB
    70-0-0/b STRC        r     1 LOCEIS                    70-0-0/b STRC        r     1 LOCEIS1
    70-0-0/b STRC        r     1 LOCNDSC                   70-0-0/b STRC        r     1 LOCSDSC
    70-0-0/w SBIN        r     1 LOCX                      55-0-0/w SBIN        r     1 OBJ_SECT_NUM
    56-0-0/w PTR         r     1 OBJ_SECT_PTR              *0-0-0/w SBIN        r     1 OFFSET
    *0-0-0/w SBIN        r     1 OFFSET                   100-0-0/w UBIN        r     1 OPCODE
    40-0-0/w PTR               1 P$                        *0-0-0/w BIT         r     1 PRBIT
   145-0-0/w UBIN        r     1 PTRREG                    *0-0-0/w UBIN        r     1 P_TAG
    65-0-0/w SBIN        r     1 RESID_LEN                 67-0-0/w PTR         r     1 RESID_N$
    66-0-0/w PTR         r     1 RESID_ST$                 *0-0-0/w PTR         r     1 SECT$
   126-0-0/w PTR         r     1 SECTION$                 125-0-0/w PTR         r     1 SECTION$
     4-0-0/c STRC(981)   r     1 SECTLINE                  *0-0-0/w PTR         r     1 SECT_PTR
   125-0-0/w SBIN        r     1 SV_EIS_BUFFER_LEN        126-0-0/w PTR         r     1 SV_OBJ$
   144-0-0/b BIT         r     1 SYMBOLIC_OPERAND         125-0-0/w PTR         r     1 SYMDEF$
   147-0-0/b BIT         r     1 SYM_TRUNC                 61-0-0/w UBIN        r     1 TAG_FIELD
   137-0-0/w UBIN(18)    r     1 TAG_MINUS_64              53-0-0/c CHAR(6)     r     1 TEMPC
    63-0-0/w PTR         r     1 TEMP_PTR                  41-0-0/w SBIN        r     1 TEMP_SBIN
   142-0-0/w SBIN        r     1 TEMP_SBIN                 42-0-0/w SBIN        r     1 TEMP_SBIN_2
   143-0-0/w SBIN        r     1 TEMP_SBIN_2               51-0-0/w UBIN        r     1 TEMP_UBIN
   140-0-0/c CHAR(6)     r     1 TEXT6                      4-0-0/c CHAR(109)   r     1 TEXTBUF
    *0-0-0/w SBIN        r     1 TYPE                      50-0-0/w SBIN        r     1 VARFLD#
    47-0-0/w PTR         r     1 VARFLD$
    64-0-0/w BIT         r     1 VARFLD_PARAM_BIT_ALIGNED

PL6.E3A0      #006=Z9IL$PRINT_LO File=Z9IL.:Z8A6TSI                              SAT 08/09/97 14:04 Page:325
  ****  SYMREF variables  ****

  ****  Scalars and arrays  ****
OctLoc.c.b A Datatyp(siz) R M Lvl/name                 OctLoc.c.b A Datatyp(siz) R M Lvl/name

     0-0-0/c CHAR        r     1 BLANK                      0-0-0/d STRC(13248) r     1 COMCOM
     0-0-0/c STRC(297)         1 DEF_LISTING_SUB_HEADING
     0-0-0/w UBIN              1 LTS_STEP(0:37)
     0-0-0/w UBIN        r     1 OBJ_STEP(0:4)
     0-0-0/w PTR               1 PLINE_PTR$

  ****  BASED and DCB variables  ****

  ****  Scalars and arrays  ****
OctLoc.c.b A Datatyp(siz) R M Lvl/name                 OctLoc.c.b A Datatyp(siz) R M Lvl/name

     0-0-0/w STRC(396)         1 ALPHABET                   0-0-0/w STRC(144)         1 ALTER_LTS
     0-0-0/w STRC(3672)        1 ALT_KEY                    0-0-0/w STRC(36864) r     1 ARGLIST
     0-0-0/w STRC(396)         1 ARRAY                      0-0-0/w STRC(180)         1 ARRAY_PRESET_LTS
     0-0-0/w EPTR        r     1 BASED$EPTR                 0-0-0/w STRC(288)         1 BASE_LTS
     0-0-0/w STRC(396)   r     1 BLOCK                      0-0-0/w STRC(144)         1 BT
     0-0-0/w STRC(396)         1 CD                         0-0-0/w STRC(288)         1 CD_LTS
     0-0-0/w CHAR(4096)        1 CHARS                      0-0-0/w STRC(396)         1 CLASS
     0-0-0/w STRC(396)         1 CONDITION                  0-0-0/w STRC(396)         1 CONST
     0-0-0/w STRC(72)    r     1 CONT                       0-0-0/w STRC(540)         1 CONTROL_NAME_LTS
     0-0-0/w STRC(1872)        1 COPY_FILE                  0-0-0/w STRC(396)         1 DB
     0-0-0/w STRC(396)         1 DCB_                       0-0-0/w STRC(108)         1 DEPENDING_SIZE
     0-0-0/w STRC(5472)        1 DIMS                       0-0-0/w STRC(396)         1 DML_ITEM
     0-0-0/w STRC(216)         1 DML_REC                    0-0-0/w ASTR(180)   r     1 DNT
     0-0-0/w STRC(540)         1 ERR                        0-0-0/w STRC(73836)       1 EVALUATE
     0-0-0/w STRC(396)         1 FD                         0-0-0/w STRC(1692)        1 FILE_LTS
     0-0-0/w STRC(108)         1 INDEXES                    0-0-0/w STRC(360)         1 INIT_LTS
     0-0-0/w STRC(396)         1 INTDEF                     0-0-0/w STRC(180)         1 IO_RESTORE_CHAIN
     0-0-0/w STRC(144)         1 KEY                        0-0-0/w STRC(396)   r     1 LABEL
     0-0-0/w STRC(36864)       1 LCNST                      0-0-0/c ACHR              1 LISTING_SUB_HEADING
     0-0-0/c ACHR              1 LISTING_SUB_HEADING1       0-0-0/c ACHR              1 LISTING_SUB_HEADING2
     0-0-0/w STRC(72)          1 LONG                       0-0-0/w STRC              1 LTS
PL6.E3A0      #006=Z9IL$PRINT_LO File=Z9IL.:Z8A6TSI                              SAT 08/09/97 14:04 Page:326
     0-0-0/w STRC(360)         1 LTSS                       0-0-0/w STRC(36936)       1 LTS_PTR_ARRAY
     0-0-0/w STRC(396)         1 MNEMONIC                   0-0-0/w STRC(144)         1 NEL
     0-0-0/w STRC        r     1 OBJ                        0-0-0/w STRC(72)    r     1 OBJ_LAB
     0-0-0/w STRC(108)   r     1 OBJ_LINE                   0-0-0/w STRC(72)    r     1 OBJ_ORG
     0-0-0/w STRC(72)          1 OBJ_SCOPE                  0-0-0/w STRC(144)   r     1 OBJ_WORD
     0-0-0/w STRC(216)         1 OPEN_LTS                   0-0-0/w STRC(36864)       1 PAGE
     0-0-0/w STRC(396)         1 PARA                       0-0-0/w STRC(144)         1 PRIME
     0-0-0/w STRC(396)         1 PROC_                      0-0-0/w STRC(396)         1 PROC_DEF
     0-0-0/w STRC(900)         1 PROC_SUPP                  0-0-0/w STRC(216)   r     1 QLT
     0-0-0/w STRC(396)         1 RD                         0-0-0/w STRC(216)         1 REF
     0-0-0/w STRC(108)         1 RENAMES                    0-0-0/w STRC(720)         1 REPORT_01_LTS
     0-0-0/w STRC(432)         1 REPORT_ELEM_LTS            0-0-0/w STRC(252)         1 REPORT_GRP_LTS
     0-0-0/w STRC(1332)        1 REPORT_LTS                 0-0-0/c ACHR        r     1 RESID
     0-0-0/w STRC(144)         1 RVA_LTS                    0-0-0/w STRC(396)         1 SCALAR
     0-0-0/w STRC(396)         1 SD                         0-0-0/w STRC(396)         1 SECTION
     0-0-0/w STRC(396)         1 SEGMENT                    0-0-0/w STRC(360)         1 SEGMENT_LTS
     0-0-0/w STRC(396)   r     1 ST                         0-0-0/w STRC(252)         1 SUM_LTS
     0-0-0/w STRC(396)         1 SWITCH                     0-0-0/w STRC(396)         1 SYMBOLIC_CHAR
     0-0-0/w STRC(396)   r     1 SYMDEF_                    0-0-0/w STRC(396)         1 SYMREF_
     0-0-0/w STRC(396)         1 TEMP                       0-0-0/d STRC(612)         1 USE
     0-0-0/w STRC(252)         1 USE_SUPP                   0-0-0/c ACHR        r     1 VARFLDTX
     0-0-0/c CHAR(5)     r     1 VARFLDTXT                  0-0-0/w STRC(396)   r     1 VARIABLE


   Procedure Z9IL$PRINT_LO requires 2932 words for executable code.
   Procedure Z9IL$PRINT_LO requires 116 words of local(AUTO) storage.

