PL6.E3A0      #007=Z9IL$DM_ENTRY File=Z9IL.:Z8A6TSI                              SAT 08/09/97 14:08 Page:327
     2046        1        /*T***********************************************************/
     2047        2        /*T*                                                         */
     2048        3        /*T* Copyright (c) Bull HN Information Systems Inc., 1997    */
     2049        4        /*T*                                                         */
     2050        5        /*T***********************************************************/
     2051        6        Z9IL$DM_ENTRY : PROC(STP$, P_LEVEL_NUMBER);
     2052        7
     2053        8        /*D*
     2054        9               NAME: Z9IL$DM_ENTRY
     2055       10        DESCRIPTION: Z9IL$DM_ENTRY is called indirectly from Z9IL$PRINT_LO, during
     2056       11                       the search of the symbol table for scalars and arrays.  Each time
     2057       12                       it is called, a line is printed in the symbolic LO
     2058       13                       listing, detailing the variable.
     2059       14        */
     2060       15
     2061       16    1   DCL STP$ PTR;  /* TO ST ITEM */
     2062       17    1   DCL P_LEVEL_NUMBER SBIN;
     2063       18
     2064       19        %EQU PHASE = 5;
     2065       20
     2066       21        %INCLUDE Z8A_DEFC;
     2067       89        %INCLUDE Z8A_SUPP_MAC;
     2068     2489        %INCLUDE Z8A_COMCOM;
     2069     3139        %INCLUDE Z9I_PREPROC;
     2070     3159        %INCLUDE Z8I_LISTING;
     2071     3247        %INCLUDE Z8A_ST;
     2072     6906        %INCLUDE Z8A_DNT;
     2073     7127        %INCLUDE Z9I_SCHEMA;
     2074     7156
     2075     7157    1   DCL Z9IL$OUTPUT_TO_LO      ENTRY(2);
     2076     7158    1   DCL Z8IU$CONVERT_OCTAL_SUP ENTRY(2);
     2077     7159    1   DCL Z8IU$CONVERT_DEC_LEFT  ENTRY(4);
     2078     7160
     2079     7161    1   DCL TEXTBUF CHAR(%MAX_LISTING_LINE_LENGTH);
     2080     7162    1   DCL 1 STRCTLN REDEF TEXTBUF,
     2081     7163    1         2 LOC          CHAR(6),
     2082     7164    1         2 X            CHAR(1),
PL6.E3A0      #007=Z9IL$DM_ENTRY File=Z9IL.:Z8A6TSI                              SAT 08/09/97 14:08 Page:328
     2083     7165    1         2 CHPOS        CHAR(1),
     2084     7166    1         2 Y            CHAR(1),
     2085     7167    1         2 BTPOS        CHAR(1),
     2086     7168    1         2 ALGN         CHAR(3),
     2087     7169    1         2 DATA_TYPE    CHAR(4),
     2088     7170    1         2 SIZE_INFO    CHAR(8),
     2089     7171    1         2 *            CHAR(1),
     2090     7172    1         2 REFF         CHAR(1),
     2091     7173    1         2 *            CHAR(1),
     2092     7174    1         2 MODF         CHAR(1),
     2093     7175    1         2 *            CHAR(1),
     2094     7176    1         2 LEVEL        CHAR(2),
     2095     7177    1         2 *            CHAR(1),
     2096     7178    1         2 NAME         CHAR(%(MAX_LISTING_LINE_LENGTH-33));
     2097     7179    1   DCL ALIGN_TYPES(0:4) CONSTANT CHAR(2) INIT('/d','/w','/h','/c','/b');
     2098     7180    1   DCL DATATYP(0:63) CONSTANT CHAR(4) INIT
     2099     7181    1   ('NULL','SBIN','DBIN','REAL','DBLE','ICPX','IDCP','RCPX'
     2100     7182    1   ,'RDCP','PD  ','PDF ','PDC ','PDFC','PTR ','OFFS','LBL '
     2101     7183    1   ,'ENTR','STRC','AREA','BIT ','VBIT','CHAR','VCHR','FILE'
     2102     7184    1   ,'UBIN','PDT ','ACHR','ABIT','EPTR','SB16','SB32','PDTE'
     2103     7185    1   ,'IDX1','IDX2','EVRY','LOG ','ANY ','FLBL','FUCB','INT '
     2104     7186    1   ,'PDN ','UPN ','UPL ','UPDT','UPLO','UPTO','ASTR','47  '
     2105     7187    1   ,'48  ','49  ','50  ','51  ','52  ','53  ','54  ','55  '
     2106     7188    1   ,'56  ','57  ','58  ','59  ','60  ','61  ','62  ','63  '
     2107     7189    1   );
     2108     7190
     2109     7191    1   DCL ADDR_W UBIN;
     2110     7192    1   DCL ADDR_C UBIN;
     2111     7193    1   DCL ADDR_B UBIN;
     2112     7194
     2113     7195
     2114     7196    1   DCL I SBIN;
     2115     7197    1   DCL TEMPC CHAR(6);
     2116     7198    1   DCL TEMP_UBIN UBIN;
     2117     7199    1   DCL MOP6(0:1) BIT(9) CONSTANT INIT('105'O,'327'O /*Mvzbn,mvc7*/);
     2118     7200
     2119     7201    1   IF NOT (COMCOM.OB.MDM AND P_LEVEL_NUMBER > 1) THEN
PL6.E3A0      #007=Z9IL$DM_ENTRY File=Z9IL.:Z8A6TSI                              SAT 08/09/97 14:08 Page:329
     2120     7202    1    IF STP$ -> ST.DNT$ ~= ADDR(NIL) THEN
     2121     7203    2     DO;
     2122     7204    3       DO CASE (STP$ -> ST.ID);
     2123     7205
     2124     7206    3         CASE (%TEMP, %SCALAR, %ARRAY);
     2125     7207
     2126     7208    3           TEXTBUF      = ' ';
     2127     7209    3           STRCTLN.NAME = STP$ -> VARIABLE.DNT$ -> DNT.TEXT.NAME;
     2128     7210    3           ADDR_W       = P_ADDRESS/36;
     2129     7211    3           ADDR_C       = (P_ADDRESS - ADDR_W*36) / 9;
     2130     7212    3           ADDR_B       = MOD(P_ADDRESS, 9);
     2131     7213    3           CALL Z8IU$CONVERT_OCTAL_SUP(STRCTLN.LOC, BINBIT(ADDR_W, 36));
     2132     7214    3           STRCTLN.X    = '-';
     2133     7215    3           CALL BINCHAR(STRCTLN.CHPOS, ADDR_C);
     2134     7216    3           STRCTLN.Y            = '-';
     2135     7217    3           CALL BINCHAR(STRCTLN.BTPOS, ADDR_B);
     2136     7218    3           STRCTLN.ALGN         = ALIGN_TYPES(P_ALIGNMENT_TYPE);
     2137     7219    3           STRCTLN.DATA_TYPE    = DATATYP(P_DATA_TYPE);
     2138     7220    3           IF P_LOG_SIZE ~= 1 AND P_LOG_SIZE ~= 36 AND
     2139     7221    3                   NOT P_SIZE_TYPE_FLAG THEN
     2140     7222    4             DO;
     2141     7223    4               CALL BINCHAR (TEMPC, P_LOG_SIZE);
     2142     7224    4               CALL EDITCHAR(TEMPC, 0, 6, MOP6, TEMPC);
     2143     7225    4               CALL INDEX1R (TEMP_UBIN, ' ', TEMPC);
     2144     7226    4               CALL CONCAT  (STRCTLN.SIZE_INFO, '(', SUBSTR(TEMPC,TEMP_UBIN+1), ')');
     2145     7227    4             END;
     2146     7228    3           IF P_REF_FLAG THEN
     2147     7229    3             STRCTLN.REFF = 'R';
     2148     7230    3           IF P_MODIFIED_FLAG THEN
     2149     7231    3             STRCTLN.MODF = 'M';
     2150     7232    3           CALL Z8IU$CONVERT_DEC_LEFT (STRCTLN.LEVEL, P_LEVEL_NUMBER, LENGTHC(STRCTLN.
              7232                    LEVEL));
     2151     7233    3           CALL Z9IL$OUTPUT_TO_LO(ADDR(STRCTLN), LENGTHC(STRCTLN));
     2152     7234
     2153     7235
     2154     7236    3       END;  /* CASE ON ST.ID */
     2155     7237    2     END;
PL6.E3A0      #007=Z9IL$DM_ENTRY File=Z9IL.:Z8A6TSI                              SAT 08/09/97 14:08 Page:330
     2156     7238    1   END Z9IL$DM_ENTRY;
     2157     7239        %EOD;

PL6.E3A0      #007=Z9IL$DM_ENTRY File=Z9IL.:Z8A6TSI                              SAT 08/09/97 14:08 Page:331
--  Include file information  --

   Z9I_SCHEMA.:Z8A6TOU  cannot be made into a system file and is referenced.
   Z8A_DNT.:Z8A6TOU  cannot be made into a system file and is referenced.
   Z8A_ST.:Z8A6TOU  cannot be made into a system file and is referenced.
   Z8I_LISTING.:Z8A6TOU  cannot be made into a system file and is referenced.
   Z9I_PREPROC.:Z8A6TOU  is referenced.
   Z8A_COMCOM.:Z8A6TOU  cannot be made into a system file and is referenced.
   X8A_COM_MACS.:X8A6TOU  is referenced.
   Z8A_NAMES.:Z8A6TOU  is referenced.
   Z8A_SUPP_MAC.:Z8A6TOU  is referenced.
   Z8A_DEFC.:Z8A6TOU  cannot be made into a system file and is referenced.
      No diagnostics issued in procedure Z9IL$DM_ENTRY.

   Procedure Z9IL$DM_ENTRY requires 150 words for executable code.
   Procedure Z9IL$DM_ENTRY requires 44 words of local(AUTO) storage.

PL6.E3A0      #007=Z9IL$DM_ENTRY File=Z9IL.:Z8A6TSI                              SAT 08/09/97 14:08 Page:332

 Object Unit name= Z9IL$DM_ENTRY                              File name= Z9IL.:Z8A6TOU
 UTS= AUG 09 '97 14:08:05.76 SAT                              Compiler= PL-6/E31         Sev=      00
 SharedLib= :SHARED_SYSTEM                                    Alt SharedLib=


    ****  Control sections  ****

 Sect   Type Bound  Init  Size OctSiz  Section name(segment info)
    0  LblCom even  none     1      1  ITERATION
    1  LblCom even  none     1      1  SUB_HEADING_ADDR
    2  LblCom even  none     1      1  SUB_HEADING_LEN
    3  LblCom even  none     1      1  SUB_HEADING_ADDR1
    4  LblCom even  none     1      1  SUB_HEADING_LEN1
    5  LblCom even  none     1      1  SUB_HEADING_ADDR2
    6  LblCom even  none     1      1  SUB_HEADING_LEN2
    7  LblCom even  none     1      1  MAX_LINES_PER_PAGE
    8  LblCom even  none     1      1  LISTING_LINES_ON_PAGE
    9  LblCom even  none     1      1  LISTING_PAGE_NUMBER
   10  LblCom even  none    28     34  PLINE
   11  LblCom even  none     1      1  PLINE_LEN
   12  LblCom even  none     1      1  ST$
   13  LblCom even  none     5      5  ST_
   14  LblCom even  none     1      1  DNT$
   15  LblCom even  none     5      5  DNT_
   16  LblCom even  none     1      1  DNT_BUCKET_NUMBER
   17  LblCom even  none     1      1  DNT_OF_1$
   18  LblCom even  none     1      1  P_ADDRESS
   19  LblCom even  none     1      1  P_ADDRESS_TYPE
   20  LblCom even  none     1      1  P_DATA_TYPE
   21  LblCom even  none     1      1  P_REF_FLAG
   22  LblCom even  none     1      1  P_MODIFIED_FLAG
   23  LblCom even  none     1      1  P_LOG_SIZE
   24  LblCom even  none     1      1  P_ALIGNMENT_TYPE
   25  LblCom even  none     1      1  P_SIZE_TYPE_FLAG
   26  LblCom even  none     1      1  P_ARRAY_TYPE
   27  LblCom even  none     1      1  P_OPERND_TYPE
   28  LblCom even  none     1      1  P_IMPLIED_POINTER
PL6.E3A0      #007=Z9IL$DM_ENTRY File=Z9IL.:Z8A6TSI                              SAT 08/09/97 14:08 Page:333
   29  LblCom even  none     1      1  P_OPERAND
   30  LblCom even  none     1      1  P_ELEMENT_SIZE
   31  LblCom even  none     1      1  P_SCALE_FACTOR
   32  LblCom even  none     1      1  P_DIMENSIONS
   33  RoData even  UTS     68    104  Z9IL$DM_ENTRY
   34   Proc  even  none   150    226  Z9IL$DM_ENTRY
   35  RoData even  none    12     14  Z9IL$DM_ENTRY

    ****  Entry defs  ****

                              Check   Calling
                             calling  sequence
  Sect OctLoc Primary Altret sequence   type   Parms  Name
    34      0   yes            yes      Std        2  Z9IL$DM_ENTRY

  ****  Entry refs  ****

         Check        Calling
        calling       sequence
Altret sequence SRef   type   Args  Name
         yes           Std       2 Z8IU$CONVERT_OCTAL_SUP
         yes           Std       4 Z8IU$CONVERT_DEC_LEFT
         yes           Std       2 Z9IL$OUTPUT_TO_LO
                       nStd      0 X66_AUTO_2
                       nStd      0 X66_ARET

  ****  Data refs  ****

  Flags:  r = read only, s = secondary
Flgs Name                             Flgs Name                             Flgs Name
     COMCOM                           r    DEF_LISTING_SUB_HEADING          r    BLANK
r    PLINE_PTR$
PL6.E3A0      #007=Z9IL$DM_ENTRY File=Z9IL.:Z8A6TSI                              SAT 08/09/97 14:08 Page:334

  ****  Segment refs  ****

  Flags:  r = read only, s = secondary
Flgs Name                             Flgs Name                             Flgs Name
     NULLSID                               ISSID
PL6.E3A0      #007=Z9IL$DM_ENTRY File=Z9IL.:Z8A6TSI                              SAT 08/09/97 14:08 Page:335


     2046        1        /*T***********************************************************/
     2047        2        /*T*                                                         */
     2048        3        /*T* Copyright (c) Bull HN Information Systems Inc., 1997    */
     2049        4        /*T*                                                         */
     2050        5        /*T***********************************************************/
     2051        6        Z9IL$DM_ENTRY : PROC(STP$, P_LEVEL_NUMBER);

      6 34 000000   000000 700200 xent  Z9IL$DM_ENT* TSX0  ! X66_AUTO_2
        34 000001   000054 000002                    ZERO    44,2

     2052        7
     2053        8        /*D*
     2054        9               NAME: Z9IL$DM_ENTRY
     2055       10        DESCRIPTION: Z9IL$DM_ENTRY is called indirectly from Z9IL$PRINT_LO, during
     2056       11                       the search of the symbol table for scalars and arrays.  Each time
     2057       12                       it is called, a line is printed in the symbolic LO
     2058       13                       listing, detailing the variable.
     2059       14        */
     2060       15
     2061       16    1   DCL STP$ PTR;  /* TO ST ITEM */
     2062       17    1   DCL P_LEVEL_NUMBER SBIN;
     2063       18
     2064       19        %EQU PHASE = 5;
     2065       20
     2066       21        %INCLUDE Z8A_DEFC;
     2067       89        %INCLUDE Z8A_SUPP_MAC;
     2068     2489        %INCLUDE Z8A_COMCOM;
     2069     3139        %INCLUDE Z9I_PREPROC;
     2070     3159        %INCLUDE Z8I_LISTING;
     2071     3247        %INCLUDE Z8A_ST;
     2072     6906        %INCLUDE Z8A_DNT;
     2073     7127        %INCLUDE Z9I_SCHEMA;
     2074     7156
     2075     7157    1   DCL Z9IL$OUTPUT_TO_LO      ENTRY(2);
     2076     7158    1   DCL Z8IU$CONVERT_OCTAL_SUP ENTRY(2);
     2077     7159    1   DCL Z8IU$CONVERT_DEC_LEFT  ENTRY(4);
PL6.E3A0      #007=Z9IL$DM_ENTRY File=Z9IL.:Z8A6TSI                              SAT 08/09/97 14:08 Page:336
     2078     7160
     2079     7161    1   DCL TEXTBUF CHAR(%MAX_LISTING_LINE_LENGTH);
     2080     7162    1   DCL 1 STRCTLN REDEF TEXTBUF,
     2081     7163    1         2 LOC          CHAR(6),
     2082     7164    1         2 X            CHAR(1),
     2083     7165    1         2 CHPOS        CHAR(1),
     2084     7166    1         2 Y            CHAR(1),
     2085     7167    1         2 BTPOS        CHAR(1),
     2086     7168    1         2 ALGN         CHAR(3),
     2087     7169    1         2 DATA_TYPE    CHAR(4),
     2088     7170    1         2 SIZE_INFO    CHAR(8),
     2089     7171    1         2 *            CHAR(1),
     2090     7172    1         2 REFF         CHAR(1),
     2091     7173    1         2 *            CHAR(1),
     2092     7174    1         2 MODF         CHAR(1),
     2093     7175    1         2 *            CHAR(1),
     2094     7176    1         2 LEVEL        CHAR(2),
     2095     7177    1         2 *            CHAR(1),
     2096     7178    1         2 NAME         CHAR(%(MAX_LISTING_LINE_LENGTH-33));
     2097     7179    1   DCL ALIGN_TYPES(0:4) CONSTANT CHAR(2) INIT('/d','/w','/h','/c','/b');
     2098     7180    1   DCL DATATYP(0:63) CONSTANT CHAR(4) INIT
     2099     7181    1   ('NULL','SBIN','DBIN','REAL','DBLE','ICPX','IDCP','RCPX'
     2100     7182    1   ,'RDCP','PD  ','PDF ','PDC ','PDFC','PTR ','OFFS','LBL '
     2101     7183    1   ,'ENTR','STRC','AREA','BIT ','VBIT','CHAR','VCHR','FILE'
     2102     7184    1   ,'UBIN','PDT ','ACHR','ABIT','EPTR','SB16','SB32','PDTE'
     2103     7185    1   ,'IDX1','IDX2','EVRY','LOG ','ANY ','FLBL','FUCB','INT '
     2104     7186    1   ,'PDN ','UPN ','UPL ','UPDT','UPLO','UPTO','ASTR','47  '
     2105     7187    1   ,'48  ','49  ','50  ','51  ','52  ','53  ','54  ','55  '
     2106     7188    1   ,'56  ','57  ','58  ','59  ','60  ','61  ','62  ','63  '
     2107     7189    1   );
     2108     7190
     2109     7191    1   DCL ADDR_W UBIN;
     2110     7192    1   DCL ADDR_C UBIN;
     2111     7193    1   DCL ADDR_B UBIN;
     2112     7194
     2113     7195
     2114     7196    1   DCL I SBIN;
PL6.E3A0      #007=Z9IL$DM_ENTRY File=Z9IL.:Z8A6TSI                              SAT 08/09/97 14:08 Page:337
     2115     7197    1   DCL TEMPC CHAR(6);
     2116     7198    1   DCL TEMP_UBIN UBIN;
     2117     7199    1   DCL MOP6(0:1) BIT(9) CONSTANT INIT('105'O,'327'O /*Mvzbn,mvc7*/);
     2118     7200
     2119     7201    1   IF NOT (COMCOM.OB.MDM AND P_LEVEL_NUMBER > 1) THEN

   7201 34 000002   000066 235000 xsym               LDA     COMCOM+54
        34 000003   000010 600000 34                 TZE     s:7202
        34 000004   200004 470500                    LDP0    @P_LEVEL_NUMBER,,AUTO
        34 000005   000000 235100                    LDA     0,,PR0
        34 000006   000001 115007                    CMPA    1,DL
        34 000007   000225 605400 34                 TPNZ    s:7238

     2120     7202    1    IF STP$ -> ST.DNT$ ~= ADDR(NIL) THEN

   7202 34 000010   200003 470500                    LDP0    @STP$,,AUTO
        34 000011   000000 471500                    LDP1    0,,PR0
        34 000012   100006 236100                    LDQ     6,,PR1
        34 000013   000000 116000 35                 CMPQ    0
        34 000014   000225 600000 34                 TZE     s:7238

     2121     7203    2     DO;

     2122     7204    3       DO CASE (STP$ -> ST.ID);

   7204 34 000015   100000 236100                    LDQ     0,,PR1
        34 000016   000022 772000                    QRL     18
        34 000017   000760 136007                    SBLQ    496,DL
        34 000020   000007 116007                    CMPQ    7,DL
        34 000021   000023 602006 34                 TNC     s:7204+6,QL
        34 000022   000225 710000 34                 TRA     s:7238
        34 000023   000032 710000 34                 TRA     s:7208
        34 000024   000225 710000 34                 TRA     s:7238
        34 000025   000225 710000 34                 TRA     s:7238
        34 000026   000225 710000 34                 TRA     s:7238
        34 000027   000225 710000 34                 TRA     s:7238
        34 000030   000032 710000 34                 TRA     s:7208
PL6.E3A0      #007=Z9IL$DM_ENTRY File=Z9IL.:Z8A6TSI                              SAT 08/09/97 14:08 Page:338
        34 000031   000032 710000 34                 TRA     s:7208

     2123     7205
     2124     7206    3         CASE (%TEMP, %SCALAR, %ARRAY);

     2125     7207
     2126     7208    3           TEXTBUF      = ' ';

   7208 34 000032   040100 100400                    MLR     fill='040'O
        34 000033   000001 000001 35                 ADSC9   1                        cn=0,n=1
        34 000034   200005 000155                    ADSC9   TEXTBUF,,AUTO            cn=0,n=109

     2127     7209    3           STRCTLN.NAME = STP$ -> VARIABLE.DNT$ -> DNT.TEXT.NAME;

   7209 34 000035   000000 471500                    LDP1    0,,PR0
        34 000036   100006 473500                    LDP3    6,,PR1
        34 000037   300004 220100                    LDX0    4,,PR3
        34 000040   040100 100540                    MLR     fill='040'O
        34 000041   300004 400010                    ADSC9   4,,PR3                   cn=2,n=*X0
        34 000042   200015 200114                    ADSC9   TEXTBUF+8,,AUTO          cn=1,n=76

     2128     7210    3           ADDR_W       = P_ADDRESS/36;

   7210 34 000043   000000 236000 18                 LDQ     P_ADDRESS
        34 000044   000044 506007                    DIV     36,DL
        34 000045   200041 756100                    STQ     ADDR_W,,AUTO

     2129     7211    3           ADDR_C       = (P_ADDRESS - ADDR_W*36) / 9;

   7211 34 000046   000002 402000 35                 MPY     2
        34 000047   000000 036000 18                 ADLQ    P_ADDRESS
        34 000050   000011 506007                    DIV     9,DL
        34 000051   200042 756100                    STQ     ADDR_C,,AUTO

     2130     7212    3           ADDR_B       = MOD(P_ADDRESS, 9);

   7212 34 000052   000000 236000 18                 LDQ     P_ADDRESS
PL6.E3A0      #007=Z9IL$DM_ENTRY File=Z9IL.:Z8A6TSI                              SAT 08/09/97 14:08 Page:339
        34 000053   000011 506007                    DIV     9,DL
        34 000054   200043 755100                    STA     ADDR_B,,AUTO

     2131     7213    3           CALL Z8IU$CONVERT_OCTAL_SUP(STRCTLN.LOC, BINBIT(ADDR_W, 36));

   7213 34 000055   200041 631500                    EPPR1   ADDR_W,,AUTO
        34 000056   200051 451500                    STP1    TEMP_UBIN+2,,AUTO
        34 000057   200005 633500                    EPPR3   TEXTBUF,,AUTO
        34 000060   200050 453500                    STP3    TEMP_UBIN+1,,AUTO
        34 000061   200050 630500                    EPPR0   TEMP_UBIN+1,,AUTO
        34 000062   000003 631400 35                 EPPR1   3
        34 000063   000000 701000 xent               TSX1    Z8IU$CONVERT_OCTAL_SUP
        34 000064   000000 011000                    NOP     0

     2132     7214    3           STRCTLN.X    = '-';

   7214 34 000065   055000 236007                    LDQ     23040,DL
        34 000066   200006 552110                    STBQ    TEXTBUF+1,'10'O,AUTO

     2133     7215    3           CALL BINCHAR(STRCTLN.CHPOS, ADDR_C);

   7215 34 000067   200042 235100                    LDA     ADDR_C,,AUTO
        34 000070   000044 773000                    LRL     36
        34 000071   200050 757100                    STAQ    TEMP_UBIN+1,,AUTO
        34 000072   000100 301500                    BTD
        34 000073   200050 000010                    NDSC9   TEMP_UBIN+1,,AUTO        cn=0,s=lsgnf,sf=0,n=8
        34 000074   200006 630001                    NDSC9   TEXTBUF+1,,AUTO          cn=3,s=nosgn,sf=0,n=1

     2134     7216    3           STRCTLN.Y            = '-';

   7216 34 000075   055000 236003                    LDQ     23040,DU
        34 000076   200007 552140                    STBQ    TEXTBUF+2,'40'O,AUTO

     2135     7217    3           CALL BINCHAR(STRCTLN.BTPOS, ADDR_B);

   7217 34 000077   200043 235100                    LDA     ADDR_B,,AUTO
        34 000100   000044 773000                    LRL     36
PL6.E3A0      #007=Z9IL$DM_ENTRY File=Z9IL.:Z8A6TSI                              SAT 08/09/97 14:08 Page:340
        34 000101   200050 757100                    STAQ    TEMP_UBIN+1,,AUTO
        34 000102   000100 301500                    BTD
        34 000103   200050 000010                    NDSC9   TEMP_UBIN+1,,AUTO        cn=0,s=lsgnf,sf=0,n=8
        34 000104   200007 230001                    NDSC9   TEXTBUF+2,,AUTO          cn=1,s=nosgn,sf=0,n=1

     2136     7218    3           STRCTLN.ALGN         = ALIGN_TYPES(P_ALIGNMENT_TYPE);

   7218 34 000105   000000 235000 24                 LDA     P_ALIGNMENT_TYPE
        34 000106   000001 735000                    ALS     1
        34 000107   040100 100405                    MLR     fill='040'O
        34 000110   000000 000002 33                 ADSC9   ALIGN_TYPES,A            cn=0,n=2
        34 000111   200007 400003                    ADSC9   TEXTBUF+2,,AUTO          cn=2,n=3

     2137     7219    3           STRCTLN.DATA_TYPE    = DATATYP(P_DATA_TYPE);

   7219 34 000112   000000 236000 20                 LDQ     P_DATA_TYPE
        34 000113   000002 736000                    QLS     2
        34 000114   040100 100406                    MLR     fill='040'O
        34 000115   000003 000004 33                 ADSC9   DATATYP,Q                cn=0,n=4
        34 000116   200010 200004                    ADSC9   TEXTBUF+3,,AUTO          cn=1,n=4

     2138     7220    3           IF P_LOG_SIZE ~= 1 AND P_LOG_SIZE ~= 36 AND

   7220 34 000117   000000 235000 23                 LDA     P_LOG_SIZE
        34 000120   000001 115007                    CMPA    1,DL
        34 000121   000167 600000 34                 TZE     s:7228
        34 000122   000044 115007                    CMPA    36,DL
        34 000123   000167 600000 34                 TZE     s:7228
        34 000124   000000 234000 25                 SZN     P_SIZE_TYPE_FLAG
        34 000125   000167 604000 34                 TMI     s:7228

     2139     7221    3                   NOT P_SIZE_TYPE_FLAG THEN
     2140     7222    4             DO;

     2141     7223    4               CALL BINCHAR (TEMPC, P_LOG_SIZE);

   7223 34 000126   000100 301400                    BTD
PL6.E3A0      #007=Z9IL$DM_ENTRY File=Z9IL.:Z8A6TSI                              SAT 08/09/97 14:08 Page:341
        34 000127   000000 000004 23                 NDSC9   P_LOG_SIZE               cn=0,s=lsgnf,sf=0,n=4
        34 000130   200045 030006                    NDSC9   TEMPC,,AUTO              cn=0,s=nosgn,sf=0,n=6

     2142     7224    4               CALL EDITCHAR(TEMPC, 0, 6, MOP6, TEMPC);

   7224 34 000131   100000 024500                    MVNE
        34 000132   200045 030006                    NDSC9   TEMPC,,AUTO              cn=0,s=nosgn,sf=0,n=6
        34 000133   000103 000002 33                 ADSC9   MOP6                     cn=0,n=2
        34 000134   200045 000006                    ADSC9   TEMPC,,AUTO              cn=0,n=6

     2143     7225    4               CALL INDEX1R (TEMP_UBIN, ' ', TEMPC);

   7225 34 000135   000000 125500                    SCMR    mask='000'O
        34 000136   200045 000006                    ADSC9   TEMPC,,AUTO              cn=0,n=6
        34 000137   000001 000001 35                 ADSC9   1                        cn=0,n=1
        34 000140   200047 000100                    ARG     TEMP_UBIN,,AUTO
        34 000141   000144 606400 34                 TTN     s:7226
        34 000142   000005 236007                    LDQ     5,DL
        34 000143   200047 156100                    SSQ     TEMP_UBIN,,AUTO

     2144     7226    4               CALL CONCAT  (STRCTLN.SIZE_INFO, '(', SUBSTR(TEMPC,TEMP_UBIN+1), ')');

   7226 34 000144   000050 236003                    LDQ     40,DU
        34 000145   200011 552120                    STBQ    TEXTBUF+4,'20'O,AUTO
        34 000146   200047 720100                    LXL0    TEMP_UBIN,,AUTO
        34 000147   777772 620010                    EAX0    -6,X0
        34 000150   777777 660003                    ERX0    -1,DU
        34 000151   200047 235100                    LDA     TEMP_UBIN,,AUTO
        34 000152   040100 100545                    MLR     fill='040'O
        34 000153   200045 200010                    ADSC9   TEMPC,A,AUTO             cn=1,n=*X0
        34 000154   200011 400007                    ADSC9   TEXTBUF+4,,AUTO          cn=2,n=7
        34 000155   200047 236100                    LDQ     TEMP_UBIN,,AUTO
        34 000156   000161 604000 34                 TMI     s:7226+13
        34 000157   000004 116000 35                 CMPQ    4
        34 000160   000167 604000 34                 TMI     s:7228
        34 000161   000002 621006                    EAX1    2,QL
        34 000162   000004 675000 35                 ERA     4
PL6.E3A0      #007=Z9IL$DM_ENTRY File=Z9IL.:Z8A6TSI                              SAT 08/09/97 14:08 Page:342
        34 000163   000001 035007                    ADLA    1,DL
        34 000164   040145 100400                    MLR     fill='040'O
        34 000165   000005 000001 35                 ADSC9   5                        cn=0,n=1
        34 000166   200012 600011                    ADSC9   TEXTBUF+5,A,AUTO         cn=3,n=*X1

     2145     7227    4             END;

     2146     7228    3           IF P_REF_FLAG THEN

   7228 34 000167   000000 234000 21                 SZN     P_REF_FLAG
        34 000170   000173 605000 34                 TPL     s:7230

     2147     7229    3             STRCTLN.REFF = 'R';

   7229 34 000171   122000 236007                    LDQ     41984,DL
        34 000172   200013 552110                    STBQ    TEXTBUF+6,'10'O,AUTO

     2148     7230    3           IF P_MODIFIED_FLAG THEN

   7230 34 000173   000000 234000 22                 SZN     P_MODIFIED_FLAG
        34 000174   000177 605000 34                 TPL     s:7232

     2149     7231    3             STRCTLN.MODF = 'M';

   7231 34 000175   115000 236003                    LDQ     39424,DU
        34 000176   200014 552140                    STBQ    TEXTBUF+7,'40'O,AUTO

     2150     7232    3           CALL Z8IU$CONVERT_DEC_LEFT (STRCTLN.LEVEL, P_LEVEL_NUMBER, LENGTHC(STRCTLN.
              7232                    LEVEL));

   7232 34 000177   000010 236000 35                 LDQ     8
        34 000200   200052 756100                    STQ     TEMP_UBIN+3,,AUTO
        34 000201   200004 236100                    LDQ     @P_LEVEL_NUMBER,,AUTO
        34 000202   200051 756100                    STQ     TEMP_UBIN+2,,AUTO
        34 000203   200053 452500                    STP2    TEMP_UBIN+4,,AUTO
        34 000204   200053 236100                    LDQ     TEMP_UBIN+4,,AUTO
        34 000205   000011 036000 35                 ADLQ    9
PL6.E3A0      #007=Z9IL$DM_ENTRY File=Z9IL.:Z8A6TSI                              SAT 08/09/97 14:08 Page:343
        34 000206   200050 756100                    STQ     TEMP_UBIN+1,,AUTO
        34 000207   200050 630500                    EPPR0   TEMP_UBIN+1,,AUTO
        34 000210   000006 631400 35                 EPPR1   6
        34 000211   000000 701000 xent               TSX1    Z8IU$CONVERT_DEC_LEFT
        34 000212   000000 011000                    NOP     0

     2151     7233    3           CALL Z9IL$OUTPUT_TO_LO(ADDR(STRCTLN), LENGTHC(STRCTLN));

   7233 34 000213   200005 630500                    EPPR0   TEXTBUF,,AUTO
        34 000214   200050 450500                    STP0    TEMP_UBIN+1,,AUTO
        34 000215   000013 236000 35                 LDQ     11
        34 000216   200053 756100                    STQ     TEMP_UBIN+4,,AUTO
        34 000217   200050 631500                    EPPR1   TEMP_UBIN+1,,AUTO
        34 000220   200052 451500                    STP1    TEMP_UBIN+3,,AUTO
        34 000221   200052 630500                    EPPR0   TEMP_UBIN+3,,AUTO
        34 000222   000003 631400 35                 EPPR1   3
        34 000223   000000 701000 xent               TSX1    Z9IL$OUTPUT_TO_LO
        34 000224   000000 011000                    NOP     0

     2152     7234
     2153     7235
     2154     7236    3       END;  /* CASE ON ST.ID */

     2155     7237    2     END;

     2156     7238    1   END Z9IL$DM_ENTRY;

   7238 34 000225   000000 702200 xent               TSX2  ! X66_ARET
     2157     7239        %EOD;

PL6.E3A0      #007=Z9IL$DM_ENTRY File=Z9IL.:Z8A6TSI                              SAT 08/09/97 14:08 Page:344
--  Include file information  --

   Z9I_SCHEMA.:Z8A6TOU  cannot be made into a system file and is referenced.
   Z8A_DNT.:Z8A6TOU  cannot be made into a system file and is referenced.
   Z8A_ST.:Z8A6TOU  cannot be made into a system file and is referenced.
   Z8I_LISTING.:Z8A6TOU  cannot be made into a system file and is referenced.
   Z9I_PREPROC.:Z8A6TOU  is referenced.
   Z8A_COMCOM.:Z8A6TOU  cannot be made into a system file and is referenced.
   X8A_COM_MACS.:X8A6TOU  is referenced.
   Z8A_NAMES.:Z8A6TOU  is referenced.
   Z8A_SUPP_MAC.:Z8A6TOU  is referenced.
   Z8A_DEFC.:Z8A6TOU  cannot be made into a system file and is referenced.
      No diagnostics issued in procedure Z9IL$DM_ENTRY.
PL6.E3A0      #007=Z9IL$DM_ENTRY File=Z9IL.:Z8A6TSI                              SAT 08/09/97 14:08 Page:345

 **** Variables and constants ****

  ****  Section 000 LblCom ITERATION

  ****  Scalars and arrays  ****
OctLoc.c.b A Datatyp(siz) R M Lvl/name                 OctLoc.c.b A Datatyp(siz) R M Lvl/name

     0-0-0/w SBIN              1 ITERATION

  ****  Section 001 LblCom SUB_HEADING_ADDR

  ****  Scalars and arrays  ****
OctLoc.c.b A Datatyp(siz) R M Lvl/name                 OctLoc.c.b A Datatyp(siz) R M Lvl/name

     0-0-0/w PTR         r     1 SUB_HEADING_ADDR

  ****  Section 002 LblCom SUB_HEADING_LEN

  ****  Scalars and arrays  ****
OctLoc.c.b A Datatyp(siz) R M Lvl/name                 OctLoc.c.b A Datatyp(siz) R M Lvl/name

     0-0-0/w SBIN        r     1 SUB_HEADING_LEN

  ****  Section 003 LblCom SUB_HEADING_ADDR1

  ****  Scalars and arrays  ****
OctLoc.c.b A Datatyp(siz) R M Lvl/name                 OctLoc.c.b A Datatyp(siz) R M Lvl/name

     0-0-0/w PTR         r     1 SUB_HEADING_ADDR1

  ****  Section 004 LblCom SUB_HEADING_LEN1

  ****  Scalars and arrays  ****
OctLoc.c.b A Datatyp(siz) R M Lvl/name                 OctLoc.c.b A Datatyp(siz) R M Lvl/name

     0-0-0/w SBIN        r     1 SUB_HEADING_LEN1

PL6.E3A0      #007=Z9IL$DM_ENTRY File=Z9IL.:Z8A6TSI                              SAT 08/09/97 14:08 Page:346
  ****  Section 005 LblCom SUB_HEADING_ADDR2

  ****  Scalars and arrays  ****
OctLoc.c.b A Datatyp(siz) R M Lvl/name                 OctLoc.c.b A Datatyp(siz) R M Lvl/name

     0-0-0/w PTR         r     1 SUB_HEADING_ADDR2

  ****  Section 006 LblCom SUB_HEADING_LEN2

  ****  Scalars and arrays  ****
OctLoc.c.b A Datatyp(siz) R M Lvl/name                 OctLoc.c.b A Datatyp(siz) R M Lvl/name

     0-0-0/w SBIN        r     1 SUB_HEADING_LEN2

  ****  Section 007 LblCom MAX_LINES_PER_PAGE

  ****  Scalars and arrays  ****
OctLoc.c.b A Datatyp(siz) R M Lvl/name                 OctLoc.c.b A Datatyp(siz) R M Lvl/name

     0-0-0/w SBIN              1 MAX_LINES_PER_PAGE

  ****  Section 008 LblCom LISTING_LINES_ON_PAGE

  ****  Scalars and arrays  ****
OctLoc.c.b A Datatyp(siz) R M Lvl/name                 OctLoc.c.b A Datatyp(siz) R M Lvl/name

     0-0-0/w SBIN              1 LISTING_LINES_ON_PAGE

  ****  Section 009 LblCom LISTING_PAGE_NUMBER

  ****  Scalars and arrays  ****
OctLoc.c.b A Datatyp(siz) R M Lvl/name                 OctLoc.c.b A Datatyp(siz) R M Lvl/name

     0-0-0/w SBIN              1 LISTING_PAGE_NUMBER

  ****  Section 010 LblCom PLINE

PL6.E3A0      #007=Z9IL$DM_ENTRY File=Z9IL.:Z8A6TSI                              SAT 08/09/97 14:08 Page:347
  ****  Scalars and arrays  ****
OctLoc.c.b A Datatyp(siz) R M Lvl/name                 OctLoc.c.b A Datatyp(siz) R M Lvl/name

     0-0-0/c CHAR(109)         1 PLINE
     0-0-0/c CHAR              1 PLINE_CHAR(0:108)
     0-0-0/c STRC(981)         1 PLINE_REDEF_FIELDS

  ****  Section 011 LblCom PLINE_LEN

  ****  Scalars and arrays  ****
OctLoc.c.b A Datatyp(siz) R M Lvl/name                 OctLoc.c.b A Datatyp(siz) R M Lvl/name

     0-0-0/w SBIN              1 PLINE_LEN

  ****  Section 012 LblCom ST$

  ****  Scalars and arrays  ****
OctLoc.c.b A Datatyp(siz) R M Lvl/name                 OctLoc.c.b A Datatyp(siz) R M Lvl/name

     0-0-0/w PTR         r     1 ST$

  ****  Section 013 LblCom ST_

  ****  Scalars and arrays  ****
OctLoc.c.b A Datatyp(siz) R M Lvl/name                 OctLoc.c.b A Datatyp(siz) R M Lvl/name

     0-0-0/w STRC(180)         1 ST_

  ****  Section 014 LblCom DNT$

  ****  Scalars and arrays  ****
OctLoc.c.b A Datatyp(siz) R M Lvl/name                 OctLoc.c.b A Datatyp(siz) R M Lvl/name

     0-0-0/w PTR         r     1 DNT$

  ****  Section 015 LblCom DNT_

PL6.E3A0      #007=Z9IL$DM_ENTRY File=Z9IL.:Z8A6TSI                              SAT 08/09/97 14:08 Page:348
  ****  Scalars and arrays  ****
OctLoc.c.b A Datatyp(siz) R M Lvl/name                 OctLoc.c.b A Datatyp(siz) R M Lvl/name

     0-0-0/w STRC(180)         1 DNT_

  ****  Section 016 LblCom DNT_BUCKET_NUMBER

  ****  Scalars and arrays  ****
OctLoc.c.b A Datatyp(siz) R M Lvl/name                 OctLoc.c.b A Datatyp(siz) R M Lvl/name

     0-0-0/w UBIN              1 DNT_BUCKET_NUMBER

  ****  Section 017 LblCom DNT_OF_1$

  ****  Scalars and arrays  ****
OctLoc.c.b A Datatyp(siz) R M Lvl/name                 OctLoc.c.b A Datatyp(siz) R M Lvl/name

     0-0-0/w PTR               1 DNT_OF_1$

  ****  Section 018 LblCom P_ADDRESS

  ****  Scalars and arrays  ****
OctLoc.c.b A Datatyp(siz) R M Lvl/name                 OctLoc.c.b A Datatyp(siz) R M Lvl/name

     0-0-0/w SBIN        r     1 P_ADDRESS

  ****  Section 019 LblCom P_ADDRESS_TYPE

  ****  Scalars and arrays  ****
OctLoc.c.b A Datatyp(siz) R M Lvl/name                 OctLoc.c.b A Datatyp(siz) R M Lvl/name

     0-0-0/w SBIN              1 P_ADDRESS_TYPE

  ****  Section 020 LblCom P_DATA_TYPE

  ****  Scalars and arrays  ****
OctLoc.c.b A Datatyp(siz) R M Lvl/name                 OctLoc.c.b A Datatyp(siz) R M Lvl/name
PL6.E3A0      #007=Z9IL$DM_ENTRY File=Z9IL.:Z8A6TSI                              SAT 08/09/97 14:08 Page:349

     0-0-0/w SBIN        r     1 P_DATA_TYPE

  ****  Section 021 LblCom P_REF_FLAG

  ****  Scalars and arrays  ****
OctLoc.c.b A Datatyp(siz) R M Lvl/name                 OctLoc.c.b A Datatyp(siz) R M Lvl/name

     0-0-0/b BIT         r     1 P_REF_FLAG

  ****  Section 022 LblCom P_MODIFIED_FLAG

  ****  Scalars and arrays  ****
OctLoc.c.b A Datatyp(siz) R M Lvl/name                 OctLoc.c.b A Datatyp(siz) R M Lvl/name

     0-0-0/b BIT         r     1 P_MODIFIED_FLAG

  ****  Section 023 LblCom P_LOG_SIZE

  ****  Scalars and arrays  ****
OctLoc.c.b A Datatyp(siz) R M Lvl/name                 OctLoc.c.b A Datatyp(siz) R M Lvl/name

     0-0-0/w SBIN        r     1 P_LOG_SIZE

  ****  Section 024 LblCom P_ALIGNMENT_TYPE

  ****  Scalars and arrays  ****
OctLoc.c.b A Datatyp(siz) R M Lvl/name                 OctLoc.c.b A Datatyp(siz) R M Lvl/name

     0-0-0/w SBIN        r     1 P_ALIGNMENT_TYPE

  ****  Section 025 LblCom P_SIZE_TYPE_FLAG

  ****  Scalars and arrays  ****
OctLoc.c.b A Datatyp(siz) R M Lvl/name                 OctLoc.c.b A Datatyp(siz) R M Lvl/name

     0-0-0/b BIT         r     1 P_SIZE_TYPE_FLAG
PL6.E3A0      #007=Z9IL$DM_ENTRY File=Z9IL.:Z8A6TSI                              SAT 08/09/97 14:08 Page:350

  ****  Section 026 LblCom P_ARRAY_TYPE

  ****  Scalars and arrays  ****
OctLoc.c.b A Datatyp(siz) R M Lvl/name                 OctLoc.c.b A Datatyp(siz) R M Lvl/name

     0-0-0/w SBIN              1 P_ARRAY_TYPE

  ****  Section 027 LblCom P_OPERND_TYPE

  ****  Scalars and arrays  ****
OctLoc.c.b A Datatyp(siz) R M Lvl/name                 OctLoc.c.b A Datatyp(siz) R M Lvl/name

     0-0-0/w SBIN              1 P_OPERND_TYPE

  ****  Section 028 LblCom P_IMPLIED_POINTER

  ****  Scalars and arrays  ****
OctLoc.c.b A Datatyp(siz) R M Lvl/name                 OctLoc.c.b A Datatyp(siz) R M Lvl/name

     0-0-0/w SBIN              1 P_IMPLIED_POINTER

  ****  Section 029 LblCom P_OPERAND

  ****  Scalars and arrays  ****
OctLoc.c.b A Datatyp(siz) R M Lvl/name                 OctLoc.c.b A Datatyp(siz) R M Lvl/name

     0-0-0/w SBIN              1 P_OPERAND

  ****  Section 030 LblCom P_ELEMENT_SIZE

  ****  Scalars and arrays  ****
OctLoc.c.b A Datatyp(siz) R M Lvl/name                 OctLoc.c.b A Datatyp(siz) R M Lvl/name

     0-0-0/w SBIN              1 P_ELEMENT_SIZE

  ****  Section 031 LblCom P_SCALE_FACTOR
PL6.E3A0      #007=Z9IL$DM_ENTRY File=Z9IL.:Z8A6TSI                              SAT 08/09/97 14:08 Page:351

  ****  Scalars and arrays  ****
OctLoc.c.b A Datatyp(siz) R M Lvl/name                 OctLoc.c.b A Datatyp(siz) R M Lvl/name

     0-0-0/w SBIN              1 P_SCALE_FACTOR

  ****  Section 032 LblCom P_DIMENSIONS

  ****  Scalars and arrays  ****
OctLoc.c.b A Datatyp(siz) R M Lvl/name                 OctLoc.c.b A Datatyp(siz) R M Lvl/name

     0-0-0/w SBIN              1 P_DIMENSIONS

  ****  Section 033 RoData Z9IL$DM_ENTRY

  ****  Scalars and arrays  ****
OctLoc.c.b A Datatyp(siz) R M Lvl/name                 OctLoc.c.b A Datatyp(siz) R M Lvl/name

     0-0-0/c CHAR(2)     r     1 ALIGN_TYPES(0:4)
     3-0-0/c CHAR(4)     r     1 DATATYP(0:63)            103-0-0/b BIT (9)     r     1 MOP6(0:1)

  ****  Auto variables  ****

  ****  Scalars and arrays  ****
OctLoc.c.b A Datatyp(siz) R M Lvl/name                 OctLoc.c.b A Datatyp(siz) R M Lvl/name

     4-0-0/w PTR         r     1 @P_LEVEL_NUMBER            3-0-0/w PTR         r     1 @STP$
    43-0-0/w UBIN        r     1 ADDR_B                    42-0-0/w UBIN        r     1 ADDR_C
    41-0-0/w UBIN        r     1 ADDR_W                    44-0-0/w SBIN              1 I
    *0-0-0/w SBIN        r     1 P_LEVEL_NUMBER            *0-0-0/w PTR         r     1 STP$
     5-0-0/c STRC(981)   r     1 STRCTLN                   45-0-0/c CHAR(6)     r     1 TEMPC
    47-0-0/w UBIN        r     1 TEMP_UBIN                  5-0-0/c CHAR(109)   r     1 TEXTBUF

  ****  SYMREF variables  ****

  ****  Scalars and arrays  ****
OctLoc.c.b A Datatyp(siz) R M Lvl/name                 OctLoc.c.b A Datatyp(siz) R M Lvl/name
PL6.E3A0      #007=Z9IL$DM_ENTRY File=Z9IL.:Z8A6TSI                              SAT 08/09/97 14:08 Page:352

     0-0-0/c CHAR              1 BLANK                      0-0-0/d STRC(13248) r     1 COMCOM
     0-0-0/c STRC(297)         1 DEF_LISTING_SUB_HEADING
     0-0-0/w PTR               1 PLINE_PTR$

  ****  BASED and DCB variables  ****

  ****  Scalars and arrays  ****
OctLoc.c.b A Datatyp(siz) R M Lvl/name                 OctLoc.c.b A Datatyp(siz) R M Lvl/name

     0-0-0/w STRC(396)         1 ALPHABET                   0-0-0/w STRC(396)         1 ARRAY
     0-0-0/w STRC(396)         1 BLOCK                      0-0-0/w STRC(396)         1 CD
     0-0-0/w CHAR(4096)        1 CHARS                      0-0-0/w STRC(396)         1 CLASS
     0-0-0/w STRC(396)         1 CONDITION                  0-0-0/w STRC(396)         1 CONST
     0-0-0/w STRC(72)          1 CONT                       0-0-0/w STRC(396)         1 DB
     0-0-0/w STRC(396)         1 DCB_                       0-0-0/w STRC(396)         1 DML_ITEM
     0-0-0/w ASTR(180)   r     1 DNT                        0-0-0/w STRC(396)         1 FD
     0-0-0/w STRC(396)         1 INTDEF                     0-0-0/w STRC(396)         1 LABEL
     0-0-0/c ACHR              1 LISTING_SUB_HEADING        0-0-0/c ACHR              1 LISTING_SUB_HEADING1
     0-0-0/c ACHR              1 LISTING_SUB_HEADING2       0-0-0/w STRC(396)         1 MNEMONIC
     0-0-0/w STRC(36864)       1 PAGE                       0-0-0/w STRC(396)         1 PARA
     0-0-0/w STRC(396)         1 PROC_                      0-0-0/w STRC(396)         1 PROC_DEF
     0-0-0/w STRC(396)         1 RD                         0-0-0/w STRC(396)         1 SCALAR
     0-0-0/w STRC(396)         1 SD                         0-0-0/w STRC(396)         1 SECTION
     0-0-0/w STRC(396)         1 SEGMENT                    0-0-0/w STRC(396)   r     1 ST
     0-0-0/w STRC(396)         1 SWITCH                     0-0-0/w STRC(396)         1 SYMBOLIC_CHAR
     0-0-0/w STRC(396)         1 SYMDEF_                    0-0-0/w STRC(396)         1 SYMREF_
     0-0-0/w STRC(396)         1 TEMP                       0-0-0/w STRC(396)   r     1 VARIABLE


   Procedure Z9IL$DM_ENTRY requires 150 words for executable code.
   Procedure Z9IL$DM_ENTRY requires 44 words of local(AUTO) storage.

PL6.E3A0      #008=Z9IL$UNGMAP$DIAGNOSTIC File=Z9IL.:Z8A6TSI                     SAT 08/09/97 14:08 Page:353
     2158        1        /*T***********************************************************/
     2159        2        /*T*                                                         */
     2160        3        /*T* Copyright (c) Bull HN Information Systems Inc., 1997    */
     2161        4        /*T*                                                         */
     2162        5        /*T***********************************************************/
     2163        6        Z9IL$UNGMAP$DIAGNOSTIC: PROC(ERROR_CODE, ERROR_TEXT, NMLO);
     2164        7
     2165        8        /*D*
     2166        9
     2167       10               NAME: Z9IL$UNGMAP$DIAGNOSTIC
     2168       11        DESCRIPTION: Print any diagnostics that UNGMAP issued when
     2169       12                       generating the LISTOUT.
     2170       13
     2171       14        */
     2172       15
     2173       16
     2174       17               /* Parameter declarations */
     2175       18
     2176       19    1   DCL 1 ERROR_CODE ALIGNED,
     2177       20    1          2 FCG BIT(12) UNAL,
     2178       21    1          2 MID BIT(6) UNAL,
     2179       22    1          2 MON BIT(1) UNAL,
     2180       23    1          2 ERR# UBIN(14) UNAL,
     2181       24    1          2 SEV UBIN(3) UNAL;
     2182       25
     2183       26    1   DCL ERROR_TEXT CHAR(120);
     2184       27    1   DCL NMLO SBIN WORD;   /* Number of the LO DCB */
     2185       28
     2186       29               /* Include files */
     2187       30
     2188       31        %EQU PHASE = 5;
     2189       32        %INCLUDE Z8A_DEFC;
     2190      100        %INCLUDE Z8A_SUPP_MAC;
     2191     2500        % INCLUDE Z8A_SYS_FILE;
     2192     8775
     2193     8776    1   DCL M$LO DCB;
     2194     8777        %FPT_WRITE(FPTN=WRITE_LO,VFC=NO,DCB=%M$LO);
PL6.E3A0      #008=Z9IL$UNGMAP$DIAGNOSTIC File=Z9IL.:Z8A6TSI                     SAT 08/09/97 14:08 Page:354
     2195     8808
     2196     8809    1   WRITE_LO.BUF_ = VECTOR(ERROR_TEXT);
     2197     8810    1   CALL M$WRITE(WRITE_LO);
     2198     8811
     2199     8812    1   END Z9IL$UNGMAP$DIAGNOSTIC;
     2200     8813        %EOD;

PL6.E3A0      #008=Z9IL$UNGMAP$DIAGNOSTIC File=Z9IL.:Z8A6TSI                     SAT 08/09/97 14:08 Page:355
--  Include file information  --

   CP_6_SUBS.:LIB_E04  is referenced.
   CP_6_C.:LIB_E04  is referenced.
   CP_6.:LIB_E04  cannot be made into a system file and is referenced.
   Z9A_FLAGS.:Z8A6TOU  is referenced.
   Z8A_SYS_FILE.:Z8A6TOU  is referenced.
   X8A_COM_MACS.:X8A6TOU  is referenced.
   Z8A_NAMES.:Z8A6TOU  is referenced.
   Z8A_SUPP_MAC.:Z8A6TOU  is referenced.
   Z8A_DEFC.:Z8A6TOU  cannot be made into a system file and is referenced.
      No diagnostics issued in procedure Z9IL$UNGMAP$DIAGNOSTIC.

   Procedure Z9IL$UNGMAP$DIAGNOSTIC requires 9 words for executable code.
   Procedure Z9IL$UNGMAP$DIAGNOSTIC requires 6 words of local(AUTO) storage.

PL6.E3A0      #008=Z9IL$UNGMAP$DIAGNOSTIC File=Z9IL.:Z8A6TSI                     SAT 08/09/97 14:08 Page:356

 Object Unit name= Z9IL$UNGMAP$DIAGNOSTIC                     File name= Z9IL.:Z8A6TOU
 UTS= AUG 09 '97 14:08:38.80 SAT                              Compiler= PL-6/E31         Sev=      00
 SharedLib= :SHARED_SYSTEM                                    Alt SharedLib=


    ****  Control sections  ****

 Sect   Type Bound  Init  Size OctSiz  Section name(segment info)
    0  LblCom even  none     1      1  ITERATION
    1   DCB   even  none     0      0  M$UC
    2   DCB   even  none     0      0  M$LO
    3   Data  even  none    12     14  Z9IL$UNGMAP$DIAGNOSTIC
    4   Proc  even  none     9     11  Z9IL$UNGMAP$DIAGNOSTIC
    5  RoData even  none     1      1  Z9IL$UNGMAP$DIAGNOSTIC

    ****  Entry defs  ****

                              Check   Calling
                             calling  sequence
  Sect OctLoc Primary Altret sequence   type   Parms  Name
     4      0   yes            yes      Std        3  Z9IL$UNGMAP$DIAGNOSTIC

  ****  Entry refs  ****

         Check        Calling
        calling       sequence
Altret sequence SRef   type   Args  Name
                       nStd      0 X66_AUTO_3
                       nStd      0 X66_ARET

  ****  Data refs  ****

  Flags:  r = read only, s = secondary
Flgs Name                             Flgs Name                             Flgs Name
     M$UC                                  M$LO
PL6.E3A0      #008=Z9IL$UNGMAP$DIAGNOSTIC File=Z9IL.:Z8A6TSI                     SAT 08/09/97 14:08 Page:357

  ****  Segment refs  ****

  Flags:  r = read only, s = secondary
Flgs Name                             Flgs Name                             Flgs Name
     ISSID                                 NULLSID
PL6.E3A0      #008=Z9IL$UNGMAP$DIAGNOSTIC File=Z9IL.:Z8A6TSI                     SAT 08/09/97 14:08 Page:358


     2158        1        /*T***********************************************************/
     2159        2        /*T*                                                         */
     2160        3        /*T* Copyright (c) Bull HN Information Systems Inc., 1997    */
     2161        4        /*T*                                                         */
     2162        5        /*T***********************************************************/
     2163        6        Z9IL$UNGMAP$DIAGNOSTIC: PROC(ERROR_CODE, ERROR_TEXT, NMLO);

      6  4 000000   000000 700200 xent  Z9IL$UNGMAP* TSX0  ! X66_AUTO_3
         4 000001   000006 000003                    ZERO    6,3

     2164        7
     2165        8        /*D*
     2166        9
     2167       10               NAME: Z9IL$UNGMAP$DIAGNOSTIC
     2168       11        DESCRIPTION: Print any diagnostics that UNGMAP issued when
     2169       12                       generating the LISTOUT.
     2170       13
     2171       14        */
     2172       15
     2173       16
     2174       17               /* Parameter declarations */
     2175       18
     2176       19    1   DCL 1 ERROR_CODE ALIGNED,
     2177       20    1          2 FCG BIT(12) UNAL,
     2178       21    1          2 MID BIT(6) UNAL,
     2179       22    1          2 MON BIT(1) UNAL,
     2180       23    1          2 ERR# UBIN(14) UNAL,
     2181       24    1          2 SEV UBIN(3) UNAL;
     2182       25
     2183       26    1   DCL ERROR_TEXT CHAR(120);
     2184       27    1   DCL NMLO SBIN WORD;   /* Number of the LO DCB */
     2185       28
     2186       29               /* Include files */
     2187       30
     2188       31        %EQU PHASE = 5;
     2189       32        %INCLUDE Z8A_DEFC;
PL6.E3A0      #008=Z9IL$UNGMAP$DIAGNOSTIC File=Z9IL.:Z8A6TSI                     SAT 08/09/97 14:08 Page:359
     2190      100        %INCLUDE Z8A_SUPP_MAC;
     2191     2500        % INCLUDE Z8A_SYS_FILE;
     2192     8775
     2193     8776    1   DCL M$LO DCB;
     2194     8777        %FPT_WRITE(FPTN=WRITE_LO,VFC=NO,DCB=%M$LO);
     2195     8808
     2196     8809    1   WRITE_LO.BUF_ = VECTOR(ERROR_TEXT);

   8809  4 000002   000000 235000 5                  LDA     0
         4 000003   200004 236100                    LDQ     @ERROR_TEXT,,AUTO
         4 000004   000004 757000 3                  STAQ    WRITE_LO+4

     2197     8810    1   CALL M$WRITE(WRITE_LO);

   8810  4 000005   000000 630400 3                  EPPR0   WRITE_LO
         4 000006   040001 713400                    CLIMB   write
         4 000007   401400 401760                    pmme    nvectors=4

     2198     8811
     2199     8812    1   END Z9IL$UNGMAP$DIAGNOSTIC;

   8812  4 000010   000000 702200 xent               TSX2  ! X66_ARET
     2200     8813        %EOD;

PL6.E3A0      #008=Z9IL$UNGMAP$DIAGNOSTIC File=Z9IL.:Z8A6TSI                     SAT 08/09/97 14:08 Page:360
--  Include file information  --

   CP_6_SUBS.:LIB_E04  is referenced.
   CP_6_C.:LIB_E04  is referenced.
   CP_6.:LIB_E04  cannot be made into a system file and is referenced.
   Z9A_FLAGS.:Z8A6TOU  is referenced.
   Z8A_SYS_FILE.:Z8A6TOU  is referenced.
   X8A_COM_MACS.:X8A6TOU  is referenced.
   Z8A_NAMES.:Z8A6TOU  is referenced.
   Z8A_SUPP_MAC.:Z8A6TOU  is referenced.
   Z8A_DEFC.:Z8A6TOU  cannot be made into a system file and is referenced.
      No diagnostics issued in procedure Z9IL$UNGMAP$DIAGNOSTIC.
PL6.E3A0      #008=Z9IL$UNGMAP$DIAGNOSTIC File=Z9IL.:Z8A6TSI                     SAT 08/09/97 14:08 Page:361

 **** Variables and constants ****

  ****  Section 000 LblCom ITERATION

  ****  Scalars and arrays  ****
OctLoc.c.b A Datatyp(siz) R M Lvl/name                 OctLoc.c.b A Datatyp(siz) R M Lvl/name

     0-0-0/w SBIN              1 ITERATION

  ****  Section 003  Data  Z9IL$UNGMAP$DIAGNOSTIC

  ****  Scalars and arrays  ****
OctLoc.c.b A Datatyp(siz) R M Lvl/name                 OctLoc.c.b A Datatyp(siz) R M Lvl/name

     0-0-0/d STRC(432)   r     1 WRITE_LO

  ****  Auto variables  ****

  ****  Scalars and arrays  ****
OctLoc.c.b A Datatyp(siz) R M Lvl/name                 OctLoc.c.b A Datatyp(siz) R M Lvl/name

     3-0-0/w PTR         r     1 @ERROR_CODE                4-0-0/w PTR         r     1 @ERROR_TEXT
     5-0-0/w PTR         r     1 @NMLO                     *0-0-0/w STRC        r     1 ERROR_CODE
    *0-0-0/c CHAR(120)   r     1 ERROR_TEXT                *0-0-0/w SBIN        r     1 NMLO

  ****  BASED and DCB variables  ****

  ****  Scalars and arrays  ****
OctLoc.c.b A Datatyp(siz) R M Lvl/name                 OctLoc.c.b A Datatyp(siz) R M Lvl/name

     0-0-0/w CHAR(4096)        1 CHARS                      0-0-0/w STRC(72)          1 CONT
     0-0-0N  NULL        r     1 M$LO                       0-0-0N  NULL        r     1 M$UC
     0-0-0/w STRC(36864)       1 PAGE


   Procedure Z9IL$UNGMAP$DIAGNOSTIC requires 9 words for executable code.
PL6.E3A0      #008=Z9IL$UNGMAP$DIAGNOSTIC File=Z9IL.:Z8A6TSI                     SAT 08/09/97 14:08 Page:362
   Procedure Z9IL$UNGMAP$DIAGNOSTIC requires 6 words of local(AUTO) storage.

PL6.E3A0      #009=Z9IL$UNGMAP$SI$READ File=Z9IL.:Z8A6TSI                        SAT 08/09/97 14:09 Page:363
     2201        1        /*T***********************************************************/
     2202        2        /*T*                                                         */
     2203        3        /*T* Copyright (c) Bull HN Information Systems Inc., 1997    */
     2204        4        /*T*                                                         */
     2205        5        /*T***********************************************************/
     2206        6        Z9IL$UNGMAP$SI$READ: PROC(SOURCE$LINE$NUMBER, SOURCE$TEXT) ALTRET;
     2207        7
     2208        8        /*D*
     2209        9
     2210       10               NAME: Z9IL$UNGMAP$SI$READ
     2211       11        DESCRIPTION: Read source line to be merged into the LISTOU listing
     2212       12                       by UNGMAP.
     2213       13                       The front end routine Z8AA$GET_EXPANDED_SOURCE_LINE is used.
     2214       14
     2215       15        */
     2216       16
     2217       17               /* Parameters */
     2218       18
     2219       19    1   DCL SOURCE$LINE$NUMBER UBIN;
     2220       20    1   DCL SOURCE$TEXT CHAR(133);
     2221       21    1   DCL 1 ST_REDEF REDEF SOURCE$TEXT,
     2222       22    1         2 VFC_CHAR CHAR(1),
     2223       23    1         2 LINE CHAR(132);
     2224       24
     2225       25               /* Include Files */
     2226       26
     2227       27        %EQU PHASE=5;
     2228       28        %INCLUDE Z8A_DEFC;
     2229       96        %INCLUDE Z8A_SUPP_MAC;
     2230     2496        %INCLUDE Z8A_COMCOM;
     2231     3146        %INCLUDE Z8E_BUFFERS;
     2232     3336        %INCLUDE Z9I_PREPROC;
     2233     3356        %INCLUDE Z8I_LISTING;
     2234     3444        %INCLUDE Z8I_ERR_BUF;
     2235     3508        %INCLUDE Z8A_ERR;
     2236     3577               /* External Declarations */
     2237     3578
PL6.E3A0      #009=Z9IL$UNGMAP$SI$READ File=Z9IL.:Z8A6TSI                        SAT 08/09/97 14:09 Page:364
     2238     3579    1   DCL Z8IL$FILTER_EXPANDED_S_L ENTRY ALTRET;
     2239     3580    1   DCL Z8AA$PREPARE_EXPANDED_SOURCE   ENTRY ALTRET;
     2240     3581    1   DCL Z8IL$BUILD_LISTING_SOURCE_LINE ENTRY;
     2241     3582    1   DCL Z8IL$PRINT_ERROR               ENTRY(2);
     2242     3583    1   DCL Z9IL$BUFFER_ERROR              ENTRY(2);
     2243     3584    1   DCL Z8AR$FREER                     ENTRY(1);
     2244     3585
     2245     3586    1   DCL EOF_FOUND BIT(1) STATIC INIT('0'B);
     2246     3587
     2247     3588
     2248     3589    2   DO WHILE ('1'B);
     2249     3590
     2250     3591    2     IF ERR$ ~= ADDR(NIL) THEN
     2251     3592    2       IF ERR$ -> ERR.LINE <= FILL_BUFFER.ISN THEN
     2252     3593    3         DO;
     2253     3594    3           CALL Z8IL$PRINT_ERROR(ENTADDR(Z9IL$BUFFER_ERROR));
     2254     3595                %TOP_BERR;
     2255     3598    3         END;
     2256     3599
     2257     3600    2     IF BERR_.TOP ~= ADDR(NIL) THEN
     2258     3601    2       IF BERR$ ~= ADDR(NIL) THEN
     2259     3602              /* PASS BACK AN ERROR LINE */
     2260     3603    3         DO;
     2261     3604    3           ST_REDEF.VFC_CHAR = 'A';
     2262     3605    3           ST_REDEF.LINE = BERR$ -> BERR.TEXT.BODY;
     2263     3606    3           SOURCE$LINE$NUMBER = FILL_BUFFER.ISN;
     2264     3607                %STEP_BERR;
     2265     3617    3           RETURN;
     2266     3618    3         END;
     2267     3619    2       ELSE
     2268     3620              /* RETURN PAGES TO RESERVER */
     2269     3621    2         CALL Z8AR$FREER(ADDR(BERR_));
     2270     3622
     2271     3623    2     IF NOT EOF_FOUND THEN
     2272     3624            /* GET THE NEXT_SOURCE_LINE */
     2273     3625    3       DO;
     2274     3626    3         CALL Z8IL$FILTER_EXPANDED_S_L ALTRET(EOF);
PL6.E3A0      #009=Z9IL$UNGMAP$SI$READ File=Z9IL.:Z8A6TSI                        SAT 08/09/97 14:09 Page:365
     2275     3627    3         ST_REDEF.VFC_CHAR = 'A';
     2276     3628    3         CALL Z8IL$BUILD_LISTING_SOURCE_LINE;
     2277     3629    3         ST_REDEF.LINE = PLINE;
     2278     3630    3         SOURCE$LINE$NUMBER = FILL_BUFFER.ISN;
     2279     3631    3         RETURN;
     2280     3632    3       END;
     2281     3633
     2282     3634    2     ALTRETURN;
     2283     3635
     2284     3636    2     EOF:
     2285     3637    2       EOF_FOUND = '1'B;
     2286     3638    2       FILL_BUFFER.ISN = 9999999;
     2287     3639
     2288     3640    2   END; /* while */
     2289     3641
     2290     3642
     2291     3643    1   Z9IL$UNGMAP$SI$READ$PREP : ENTRY ALTRET;
     2292     3644    1       CALL Z8AA$PREPARE_EXPANDED_SOURCE
     2293     3645    1          WHENALTRETURN
     2294     3646    2            DO;
     2295     3647                   /* Nothing */
     2296     3648    2            END;
     2297     3649
     2298     3650    1       FILL_BUFFER.ISN = 0;
     2299     3651    1       EOF_FOUND = '0'B;
     2300     3652    1       RETURN;
     2301     3653
     2302     3654    1   END Z9IL$UNGMAP$SI$READ;
     2303     3655        %EOD;

PL6.E3A0      #009=Z9IL$UNGMAP$SI$READ File=Z9IL.:Z8A6TSI                        SAT 08/09/97 14:09 Page:366
--  Include file information  --

   Z8A_ERR.:Z8A6TOU  cannot be made into a system file and is referenced.
   Z8I_ERR_BUF.:Z8A6TOU  cannot be made into a system file and is referenced.
   Z8I_LISTING.:Z8A6TOU  cannot be made into a system file and is referenced.
   Z9I_PREPROC.:Z8A6TOU  is referenced.
   Z8E_BUFFERS.:Z8A6TOU  cannot be made into a system file and is referenced.
   Z8A_COMCOM.:Z8A6TOU  cannot be made into a system file and is referenced.
   X8A_COM_MACS.:X8A6TOU  is referenced.
   Z8A_NAMES.:Z8A6TOU  is referenced.
   Z8A_SUPP_MAC.:Z8A6TOU  is referenced.
   Z8A_DEFC.:Z8A6TOU  cannot be made into a system file and is referenced.
      No diagnostics issued in procedure Z9IL$UNGMAP$SI$READ.

   Procedure Z9IL$UNGMAP$SI$READ requires 105 words for executable code.
   Procedure Z9IL$UNGMAP$SI$READ requires 8 words of local(AUTO) storage.

PL6.E3A0      #009=Z9IL$UNGMAP$SI$READ File=Z9IL.:Z8A6TSI                        SAT 08/09/97 14:09 Page:367

 Object Unit name= Z9IL$UNGMAP$SI$READ                        File name= Z9IL.:Z8A6TOU
 UTS= AUG 09 '97 14:09:02.84 SAT                              Compiler= PL-6/E31         Sev=      00
 SharedLib= :SHARED_SYSTEM                                    Alt SharedLib=


    ****  Control sections  ****

 Sect   Type Bound  Init  Size OctSiz  Section name(segment info)
    0  LblCom even  none     1      1  ITERATION
    1  LblCom even  none     1      1  SCANNER_STATE
    2  LblCom even  none     1      1  CURRENT_BUFFER$
    3  LblCom even  none     1      1  LOOKAHEAD_BUFFER$
    4  LblCom even  none     1      1  CURRENT_LINE_LEVEL
    5  LblCom even  none     1      1  LINE_LIST$
    6  LblCom even  none     7      7  BUFFER
    7  LblCom even  none     1      1  ORIGINAL_ISN
    8  LblCom even  none     1      1  EXPANDED_ISN
    9  LblCom even  none     1      1  ISN_FOR_EXP_SRC
   10  LblCom even  none     1      1  SUB_HEADING_ADDR
   11  LblCom even  none     1      1  SUB_HEADING_LEN
   12  LblCom even  none     1      1  SUB_HEADING_ADDR1
   13  LblCom even  none     1      1  SUB_HEADING_LEN1
   14  LblCom even  none     1      1  SUB_HEADING_ADDR2
   15  LblCom even  none     1      1  SUB_HEADING_LEN2
   16  LblCom even  none     1      1  MAX_LINES_PER_PAGE
   17  LblCom even  none     1      1  LISTING_LINES_ON_PAGE
   18  LblCom even  none     1      1  LISTING_PAGE_NUMBER
   19  LblCom even  none    28     34  PLINE
   20  LblCom even  none     1      1  PLINE_LEN
   21  LblCom even  none     1      1  BERR$
   22  LblCom even  none     5      5  BERR_
   23  LblCom even  none     1      1  ERR$
   24  LblCom even  none     1      1  ERR_HEAD
   25  LblCom even  none     1      1  ERR_TAIL
   26  LblCom even  none     1      1  MAX_ERROR_GENERATED
   27  LblCom even  none     5      5  ERR_
   28   Data  even  none     1      1  Z9IL$UNGMAP$SI$READ
PL6.E3A0      #009=Z9IL$UNGMAP$SI$READ File=Z9IL.:Z8A6TSI                        SAT 08/09/97 14:09 Page:368
   29   Proc  even  none   105    151  Z9IL$UNGMAP$SI$READ
   30  RoData even  none     6      6  Z9IL$UNGMAP$SI$READ

    ****  Entry defs  ****

                              Check   Calling
                             calling  sequence
  Sect OctLoc Primary Altret sequence   type   Parms  Name
    29      0   yes    yes     yes      Std        2  Z9IL$UNGMAP$SI$READ
    29    137          yes     yes      Std        0  Z9IL$UNGMAP$SI$READ$PREP

  ****  Entry refs  ****

         Check        Calling
        calling       sequence
Altret sequence SRef   type   Args  Name
         yes           Std       2 Z9IL$BUFFER_ERROR
         yes           Std       1 Z8AR$FREER
         yes           Std       0 Z8IL$BUILD_LISTING_SOURCE_LINE
 yes     yes           Std       0 Z8AA$PREPARE_EXPANDED_SOURCE
         yes           Std       2 Z8IL$PRINT_ERROR
 yes     yes           Std       0 Z8IL$FILTER_EXPANDED_S_L
                       nStd      0 X66_AUTO_2
                       nStd      0 X66_ARET
                       nStd      0 X66_AALT

  ****  Data refs  ****

  Flags:  r = read only, s = secondary
Flgs Name                             Flgs Name                             Flgs Name
     COMCOM                           r    DEF_LISTING_SUB_HEADING          r    BLANK
r    PLINE_PTR$
PL6.E3A0      #009=Z9IL$UNGMAP$SI$READ File=Z9IL.:Z8A6TSI                        SAT 08/09/97 14:09 Page:369

  ****  Segment refs  ****

  Flags:  r = read only, s = secondary
Flgs Name                             Flgs Name                             Flgs Name
     NULLSID                               ISSID
PL6.E3A0      #009=Z9IL$UNGMAP$SI$READ File=Z9IL.:Z8A6TSI                        SAT 08/09/97 14:09 Page:370


     2201        1        /*T***********************************************************/
     2202        2        /*T*                                                         */
     2203        3        /*T* Copyright (c) Bull HN Information Systems Inc., 1997    */
     2204        4        /*T*                                                         */
     2205        5        /*T***********************************************************/
     2206        6        Z9IL$UNGMAP$SI$READ: PROC(SOURCE$LINE$NUMBER, SOURCE$TEXT) ALTRET;

      6 29 000000   000000 700200 xent  Z9IL$UNGMAP* TSX0  ! X66_AUTO_2
        29 000001   000010 000002                    ZERO    8,2

     2207        7
     2208        8        /*D*
     2209        9
     2210       10               NAME: Z9IL$UNGMAP$SI$READ
     2211       11        DESCRIPTION: Read source line to be merged into the LISTOU listing
     2212       12                       by UNGMAP.
     2213       13                       The front end routine Z8AA$GET_EXPANDED_SOURCE_LINE is used.
     2214       14
     2215       15        */
     2216       16
     2217       17               /* Parameters */
     2218       18
     2219       19    1   DCL SOURCE$LINE$NUMBER UBIN;
     2220       20    1   DCL SOURCE$TEXT CHAR(133);
     2221       21    1   DCL 1 ST_REDEF REDEF SOURCE$TEXT,
     2222       22    1         2 VFC_CHAR CHAR(1),
     2223       23    1         2 LINE CHAR(132);
     2224       24
     2225       25               /* Include Files */
     2226       26
     2227       27        %EQU PHASE=5;
     2228       28        %INCLUDE Z8A_DEFC;
     2229       96        %INCLUDE Z8A_SUPP_MAC;
     2230     2496        %INCLUDE Z8A_COMCOM;
     2231     3146        %INCLUDE Z8E_BUFFERS;
     2232     3336        %INCLUDE Z9I_PREPROC;
PL6.E3A0      #009=Z9IL$UNGMAP$SI$READ File=Z9IL.:Z8A6TSI                        SAT 08/09/97 14:09 Page:371
     2233     3356        %INCLUDE Z8I_LISTING;
     2234     3444        %INCLUDE Z8I_ERR_BUF;
     2235     3508        %INCLUDE Z8A_ERR;
     2236     3577               /* External Declarations */
     2237     3578
     2238     3579    1   DCL Z8IL$FILTER_EXPANDED_S_L ENTRY ALTRET;
     2239     3580    1   DCL Z8AA$PREPARE_EXPANDED_SOURCE   ENTRY ALTRET;
     2240     3581    1   DCL Z8IL$BUILD_LISTING_SOURCE_LINE ENTRY;
     2241     3582    1   DCL Z8IL$PRINT_ERROR               ENTRY(2);
     2242     3583    1   DCL Z9IL$BUFFER_ERROR              ENTRY(2);
     2243     3584    1   DCL Z8AR$FREER                     ENTRY(1);
     2244     3585
     2245     3586    1   DCL EOF_FOUND BIT(1) STATIC INIT('0'B);
     2246     3587
     2247     3588
     2248     3589    2   DO WHILE ('1'B);

     2249     3590
     2250     3591    2     IF ERR$ ~= ADDR(NIL) THEN

   3591 29 000002   000000 236000 23                 LDQ     ERR$
        29 000003   000000 116000 30                 CMPQ    0
        29 000004   000025 600000 29                 TZE     s:3600

     2251     3592    2       IF ERR$ -> ERR.LINE <= FILL_BUFFER.ISN THEN

   3592 29 000005   000000 470400 3                  LDP0    LOOKAHEAD_BUFFER$
        29 000006   000000 471400 23                 LDP1    ERR$
        29 000007   100002 236100                    LDQ     2,,PR1
        29 000010   000022 772000                    QRL     18
        29 000011   000004 116100                    CMPQ    4,,PR0
        29 000012   000025 605400 29                 TPNZ    s:3600

     2252     3593    3         DO;

     2253     3594    3           CALL Z8IL$PRINT_ERROR(ENTADDR(Z9IL$BUFFER_ERROR));

PL6.E3A0      #009=Z9IL$UNGMAP$SI$READ File=Z9IL.:Z8A6TSI                        SAT 08/09/97 14:09 Page:372
   3594 29 000013   000000 636000 xent               EAQ     Z9IL$BUFFER_ERROR
        29 000014   200006 756100                    STQ     @SOURCE$TEXT+2,,AUTO
        29 000015   200006 633500                    EPPR3   @SOURCE$TEXT+2,,AUTO
        29 000016   200007 453500                    STP3    @SOURCE$TEXT+3,,AUTO
        29 000017   200007 630500                    EPPR0   @SOURCE$TEXT+3,,AUTO
        29 000020   000001 631400 30                 EPPR1   1
        29 000021   000000 701000 xent               TSX1    Z8IL$PRINT_ERROR
        29 000022   000000 011000                    NOP     0

     2254     3595                %TOP_BERR;

   3596 29 000023   000000 236000 22                 LDQ     BERR_
        29 000024   000000 756000 21                 STQ     BERR$

     2255     3598    3         END;

     2256     3599
     2257     3600    2     IF BERR_.TOP ~= ADDR(NIL) THEN

   3600 29 000025   000000 236000 22                 LDQ     BERR_
        29 000026   000000 116000 30                 CMPQ    0
        29 000027   000103 600000 29                 TZE     s:3623

     2258     3601    2       IF BERR$ ~= ADDR(NIL) THEN

   3601 29 000030   000000 236000 21                 LDQ     BERR$
        29 000031   000000 116000 30                 CMPQ    0
        29 000032   000073 600000 29                 TZE     s:3621

     2259     3602              /* PASS BACK AN ERROR LINE */
     2260     3603    3         DO;

     2261     3604    3           ST_REDEF.VFC_CHAR = 'A';

   3604 29 000033   200004 470500                    LDP0    @SOURCE$TEXT,,AUTO
        29 000034   040100 100400                    MLR     fill='040'O
        29 000035   000002 000001 30                 ADSC9   2                        cn=0,n=1
PL6.E3A0      #009=Z9IL$UNGMAP$SI$READ File=Z9IL.:Z8A6TSI                        SAT 08/09/97 14:09 Page:373
        29 000036   000000 000001                    ADSC9   0,,PR0                   cn=0,n=1

     2262     3605    3           ST_REDEF.LINE = BERR$ -> BERR.TEXT.BODY;

   3605 29 000037   000000 471400 21                 LDP1    BERR$
        29 000040   100001 220100                    LDX0    1,,PR1
        29 000041   040100 100540                    MLR     fill='040'O
        29 000042   100001 400010                    ADSC9   1,,PR1                   cn=2,n=*X0
        29 000043   000000 200204                    ADSC9   0,,PR0                   cn=1,n=132

     2263     3606    3           SOURCE$LINE$NUMBER = FILL_BUFFER.ISN;

   3606 29 000044   000000 471400 3                  LDP1    LOOKAHEAD_BUFFER$
        29 000045   100004 235100                    LDA     4,,PR1
        29 000046   200003 473500                    LDP3    @SOURCE$LINE$NUMBER,,AUTO
        29 000047   300000 755100                    STA     0,,PR3

     2264     3607                %STEP_BERR;

   3609 29 000050   000000 471400 21                 LDP1    BERR$
        29 000051   100000 720100                    LXL0    0,,PR1
        29 000052   000000 636010                    EAQ     0,X0
        29 000053   000000 036000 21                 ADLQ    BERR$
        29 000054   000000 756000 21                 STQ     BERR$

   3610 29 000055   000002 236000 22                 LDQ     BERR_+2
        29 000056   000022 736000                    QLS     18
        29 000057   000001 036000 22                 ADLQ    BERR_+1
        29 000060   000000 116000 21                 CMPQ    BERR$
        29 000061   000065 601000 29                 TNZ     s:3613

   3611 29 000062   000000 236000 30                 LDQ     0
        29 000063   000000 756000 21                 STQ     BERR$
        29 000064   000072 710000 29                 TRA     s:3617

   3613 29 000065   000000 471400 21                 LDP1    BERR$
        29 000066   100000 220100                    LDX0    0,,PR1
PL6.E3A0      #009=Z9IL$UNGMAP$SI$READ File=Z9IL.:Z8A6TSI                        SAT 08/09/97 14:09 Page:374
        29 000067   000072 601000 29                 TNZ     s:3617

   3614 29 000070   100001 236100                    LDQ     1,,PR1
        29 000071   000000 756000 21                 STQ     BERR$

     2265     3617    3           RETURN;

   3617 29 000072   000000 702200 xent               TSX2  ! X66_ARET

     2266     3618    3         END;
     2267     3619    2       ELSE
     2268     3620              /* RETURN PAGES TO RESERVER */
     2269     3621    2         CALL Z8AR$FREER(ADDR(BERR_));

   3621 29 000073   000003 236000 30                 LDQ     3
        29 000074   200006 756100                    STQ     @SOURCE$TEXT+2,,AUTO
        29 000075   200006 630500                    EPPR0   @SOURCE$TEXT+2,,AUTO
        29 000076   200007 450500                    STP0    @SOURCE$TEXT+3,,AUTO
        29 000077   200007 630500                    EPPR0   @SOURCE$TEXT+3,,AUTO
        29 000100   000001 631400 30                 EPPR1   1
        29 000101   000000 701000 xent               TSX1    Z8AR$FREER
        29 000102   000000 011000                    NOP     0

     2270     3622
     2271     3623    2     IF NOT EOF_FOUND THEN

   3623 29 000103   000000 234000 28                 SZN     EOF_FOUND
        29 000104   000130 604000 29                 TMI     s:3634

     2272     3624            /* GET THE NEXT_SOURCE_LINE */
     2273     3625    3       DO;

     2274     3626    3         CALL Z8IL$FILTER_EXPANDED_S_L ALTRET(EOF);

   3626 29 000105   000004 631400 30                 EPPR1   4
        29 000106   000000 701000 xent               TSX1    Z8IL$FILTER_EXPANDED_S_L
        29 000107   000131 702000 29                 TSX2    EOF
PL6.E3A0      #009=Z9IL$UNGMAP$SI$READ File=Z9IL.:Z8A6TSI                        SAT 08/09/97 14:09 Page:375

     2275     3627    3         ST_REDEF.VFC_CHAR = 'A';

   3627 29 000110   200004 470500                    LDP0    @SOURCE$TEXT,,AUTO
        29 000111   040100 100400                    MLR     fill='040'O
        29 000112   000002 000001 30                 ADSC9   2                        cn=0,n=1
        29 000113   000000 000001                    ADSC9   0,,PR0                   cn=0,n=1

     2276     3628    3         CALL Z8IL$BUILD_LISTING_SOURCE_LINE;

   3628 29 000114   000004 631400 30                 EPPR1   4
        29 000115   000000 701000 xent               TSX1    Z8IL$BUILD_LISTING_SOURCE_LINE
        29 000116   000000 011000                    NOP     0

     2277     3629    3         ST_REDEF.LINE = PLINE;

   3629 29 000117   200004 470500                    LDP0    @SOURCE$TEXT,,AUTO
        29 000120   040100 100400                    MLR     fill='040'O
        29 000121   000000 000155 19                 ADSC9   PLINE                    cn=0,n=109
        29 000122   000000 200204                    ADSC9   0,,PR0                   cn=1,n=132

     2278     3630    3         SOURCE$LINE$NUMBER = FILL_BUFFER.ISN;

   3630 29 000123   000000 471400 3                  LDP1    LOOKAHEAD_BUFFER$
        29 000124   100004 235100                    LDA     4,,PR1
        29 000125   200003 473500                    LDP3    @SOURCE$LINE$NUMBER,,AUTO
        29 000126   300000 755100                    STA     0,,PR3

     2279     3631    3         RETURN;

   3631 29 000127   000000 702200 xent               TSX2  ! X66_ARET

     2280     3632    3       END;
     2281     3633
     2282     3634    2     ALTRETURN;

   3634 29 000130   000000 702200 xent               TSX2  ! X66_AALT
PL6.E3A0      #009=Z9IL$UNGMAP$SI$READ File=Z9IL.:Z8A6TSI                        SAT 08/09/97 14:09 Page:376

     2283     3635
     2284     3636    2     EOF:
     2285     3637    2       EOF_FOUND = '1'B;

   3637 29 000131   400000 236003       EOF          LDQ     -131072,DU
        29 000132   000000 756000 28                 STQ     EOF_FOUND

     2286     3638    2       FILL_BUFFER.ISN = 9999999;

   3638 29 000133   000005 235000 30                 LDA     5
        29 000134   000000 470400 3                  LDP0    LOOKAHEAD_BUFFER$
        29 000135   000004 755100                    STA     4,,PR0

     2287     3639
     2288     3640    2   END; /* while */

   3640 29 000136   000002 710000 29                 TRA     s:3591

     2289     3641
     2290     3642
     2291     3643    1   Z9IL$UNGMAP$SI$READ$PREP : ENTRY ALTRET;

   3643 29 000137   000000 700200 xent  Z9IL$UNGMAP* TSX0  ! X66_AUTO_2
        29 000140   000010 000002                    ZERO    8,2

     2292     3644    1       CALL Z8AA$PREPARE_EXPANDED_SOURCE

   3644 29 000141   000004 631400 30                 EPPR1   4
        29 000142   000000 701000 xent               TSX1    Z8AA$PREPARE_EXPANDED_SOURCE
        29 000143   000145 702000 29                 TSX2    s:3650
        29 000144   000145 710000 29                 TRA     s:3650

     2293     3645    1          WHENALTRETURN
     2294     3646    2            DO;

     2295     3647                   /* Nothing */
PL6.E3A0      #009=Z9IL$UNGMAP$SI$READ File=Z9IL.:Z8A6TSI                        SAT 08/09/97 14:09 Page:377
     2296     3648    2            END;

     2297     3649
     2298     3650    1       FILL_BUFFER.ISN = 0;

   3650 29 000145   000000 470400 3                  LDP0    LOOKAHEAD_BUFFER$
        29 000146   000004 450100                    STZ     4,,PR0

     2299     3651    1       EOF_FOUND = '0'B;

   3651 29 000147   000000 450000 28                 STZ     EOF_FOUND

     2300     3652    1       RETURN;

   3652 29 000150   000000 702200 xent               TSX2  ! X66_ARET
     2301     3653
     2302     3654    1   END Z9IL$UNGMAP$SI$READ;
     2303     3655        %EOD;

PL6.E3A0      #009=Z9IL$UNGMAP$SI$READ File=Z9IL.:Z8A6TSI                        SAT 08/09/97 14:09 Page:378
--  Include file information  --

   Z8A_ERR.:Z8A6TOU  cannot be made into a system file and is referenced.
   Z8I_ERR_BUF.:Z8A6TOU  cannot be made into a system file and is referenced.
   Z8I_LISTING.:Z8A6TOU  cannot be made into a system file and is referenced.
   Z9I_PREPROC.:Z8A6TOU  is referenced.
   Z8E_BUFFERS.:Z8A6TOU  cannot be made into a system file and is referenced.
   Z8A_COMCOM.:Z8A6TOU  cannot be made into a system file and is referenced.
   X8A_COM_MACS.:X8A6TOU  is referenced.
   Z8A_NAMES.:Z8A6TOU  is referenced.
   Z8A_SUPP_MAC.:Z8A6TOU  is referenced.
   Z8A_DEFC.:Z8A6TOU  cannot be made into a system file and is referenced.
      No diagnostics issued in procedure Z9IL$UNGMAP$SI$READ.
PL6.E3A0      #009=Z9IL$UNGMAP$SI$READ File=Z9IL.:Z8A6TSI                        SAT 08/09/97 14:09 Page:379

 **** Variables and constants ****

  ****  Section 000 LblCom ITERATION

  ****  Scalars and arrays  ****
OctLoc.c.b A Datatyp(siz) R M Lvl/name                 OctLoc.c.b A Datatyp(siz) R M Lvl/name

     0-0-0/w SBIN              1 ITERATION

  ****  Section 001 LblCom SCANNER_STATE

  ****  Scalars and arrays  ****
OctLoc.c.b A Datatyp(siz) R M Lvl/name                 OctLoc.c.b A Datatyp(siz) R M Lvl/name

     0-0-0/w SBIN              1 SCANNER_STATE

  ****  Section 002 LblCom CURRENT_BUFFER$

  ****  Scalars and arrays  ****
OctLoc.c.b A Datatyp(siz) R M Lvl/name                 OctLoc.c.b A Datatyp(siz) R M Lvl/name

     0-0-0/w PTR               1 CURRENT_BUFFER$

  ****  Section 003 LblCom LOOKAHEAD_BUFFER$

  ****  Scalars and arrays  ****
OctLoc.c.b A Datatyp(siz) R M Lvl/name                 OctLoc.c.b A Datatyp(siz) R M Lvl/name

     0-0-0/w PTR         r     1 LOOKAHEAD_BUFFER$

  ****  Section 004 LblCom CURRENT_LINE_LEVEL

  ****  Scalars and arrays  ****
OctLoc.c.b A Datatyp(siz) R M Lvl/name                 OctLoc.c.b A Datatyp(siz) R M Lvl/name

     0-0-0/w SBIN              1 CURRENT_LINE_LEVEL

PL6.E3A0      #009=Z9IL$UNGMAP$SI$READ File=Z9IL.:Z8A6TSI                        SAT 08/09/97 14:09 Page:380
  ****  Section 005 LblCom LINE_LIST$

  ****  Scalars and arrays  ****
OctLoc.c.b A Datatyp(siz) R M Lvl/name                 OctLoc.c.b A Datatyp(siz) R M Lvl/name

     0-0-0/w PTR               1 LINE_LIST$

  ****  Section 006 LblCom BUFFER

  ****  Scalars and arrays  ****
OctLoc.c.b A Datatyp(siz) R M Lvl/name                 OctLoc.c.b A Datatyp(siz) R M Lvl/name

     0-0-0/w STRC(252)   r     1 BUFFER

  ****  Section 007 LblCom ORIGINAL_ISN

  ****  Scalars and arrays  ****
OctLoc.c.b A Datatyp(siz) R M Lvl/name                 OctLoc.c.b A Datatyp(siz) R M Lvl/name

     0-0-0/w SBIN              1 ORIGINAL_ISN

  ****  Section 008 LblCom EXPANDED_ISN

  ****  Scalars and arrays  ****
OctLoc.c.b A Datatyp(siz) R M Lvl/name                 OctLoc.c.b A Datatyp(siz) R M Lvl/name

     0-0-0/w SBIN              1 EXPANDED_ISN

  ****  Section 009 LblCom ISN_FOR_EXP_SRC

  ****  Scalars and arrays  ****
OctLoc.c.b A Datatyp(siz) R M Lvl/name                 OctLoc.c.b A Datatyp(siz) R M Lvl/name

     0-0-0/w SBIN              1 ISN_FOR_EXP_SRC

  ****  Section 010 LblCom SUB_HEADING_ADDR

PL6.E3A0      #009=Z9IL$UNGMAP$SI$READ File=Z9IL.:Z8A6TSI                        SAT 08/09/97 14:09 Page:381
  ****  Scalars and arrays  ****
OctLoc.c.b A Datatyp(siz) R M Lvl/name                 OctLoc.c.b A Datatyp(siz) R M Lvl/name

     0-0-0/w PTR         r     1 SUB_HEADING_ADDR

  ****  Section 011 LblCom SUB_HEADING_LEN

  ****  Scalars and arrays  ****
OctLoc.c.b A Datatyp(siz) R M Lvl/name                 OctLoc.c.b A Datatyp(siz) R M Lvl/name

     0-0-0/w SBIN        r     1 SUB_HEADING_LEN

  ****  Section 012 LblCom SUB_HEADING_ADDR1

  ****  Scalars and arrays  ****
OctLoc.c.b A Datatyp(siz) R M Lvl/name                 OctLoc.c.b A Datatyp(siz) R M Lvl/name

     0-0-0/w PTR         r     1 SUB_HEADING_ADDR1

  ****  Section 013 LblCom SUB_HEADING_LEN1

  ****  Scalars and arrays  ****
OctLoc.c.b A Datatyp(siz) R M Lvl/name                 OctLoc.c.b A Datatyp(siz) R M Lvl/name

     0-0-0/w SBIN        r     1 SUB_HEADING_LEN1

  ****  Section 014 LblCom SUB_HEADING_ADDR2

  ****  Scalars and arrays  ****
OctLoc.c.b A Datatyp(siz) R M Lvl/name                 OctLoc.c.b A Datatyp(siz) R M Lvl/name

     0-0-0/w PTR         r     1 SUB_HEADING_ADDR2

  ****  Section 015 LblCom SUB_HEADING_LEN2

  ****  Scalars and arrays  ****
OctLoc.c.b A Datatyp(siz) R M Lvl/name                 OctLoc.c.b A Datatyp(siz) R M Lvl/name
PL6.E3A0      #009=Z9IL$UNGMAP$SI$READ File=Z9IL.:Z8A6TSI                        SAT 08/09/97 14:09 Page:382

     0-0-0/w SBIN        r     1 SUB_HEADING_LEN2

  ****  Section 016 LblCom MAX_LINES_PER_PAGE

  ****  Scalars and arrays  ****
OctLoc.c.b A Datatyp(siz) R M Lvl/name                 OctLoc.c.b A Datatyp(siz) R M Lvl/name

     0-0-0/w SBIN              1 MAX_LINES_PER_PAGE

  ****  Section 017 LblCom LISTING_LINES_ON_PAGE

  ****  Scalars and arrays  ****
OctLoc.c.b A Datatyp(siz) R M Lvl/name                 OctLoc.c.b A Datatyp(siz) R M Lvl/name

     0-0-0/w SBIN              1 LISTING_LINES_ON_PAGE

  ****  Section 018 LblCom LISTING_PAGE_NUMBER

  ****  Scalars and arrays  ****
OctLoc.c.b A Datatyp(siz) R M Lvl/name                 OctLoc.c.b A Datatyp(siz) R M Lvl/name

     0-0-0/w SBIN              1 LISTING_PAGE_NUMBER

  ****  Section 019 LblCom PLINE

  ****  Scalars and arrays  ****
OctLoc.c.b A Datatyp(siz) R M Lvl/name                 OctLoc.c.b A Datatyp(siz) R M Lvl/name

     0-0-0/c CHAR(109)   r     1 PLINE
     0-0-0/c CHAR              1 PLINE_CHAR(0:108)
     0-0-0/c STRC(981)         1 PLINE_REDEF_FIELDS

  ****  Section 020 LblCom PLINE_LEN

  ****  Scalars and arrays  ****
OctLoc.c.b A Datatyp(siz) R M Lvl/name                 OctLoc.c.b A Datatyp(siz) R M Lvl/name
PL6.E3A0      #009=Z9IL$UNGMAP$SI$READ File=Z9IL.:Z8A6TSI                        SAT 08/09/97 14:09 Page:383

     0-0-0/w SBIN              1 PLINE_LEN

  ****  Section 021 LblCom BERR$

  ****  Scalars and arrays  ****
OctLoc.c.b A Datatyp(siz) R M Lvl/name                 OctLoc.c.b A Datatyp(siz) R M Lvl/name

     0-0-0/w PTR         r     1 BERR$

  ****  Section 022 LblCom BERR_

  ****  Scalars and arrays  ****
OctLoc.c.b A Datatyp(siz) R M Lvl/name                 OctLoc.c.b A Datatyp(siz) R M Lvl/name

     0-0-0/w STRC(180)   r     1 BERR_

  ****  Section 023 LblCom ERR$

  ****  Scalars and arrays  ****
OctLoc.c.b A Datatyp(siz) R M Lvl/name                 OctLoc.c.b A Datatyp(siz) R M Lvl/name

     0-0-0/w PTR         r     1 ERR$

  ****  Section 024 LblCom ERR_HEAD

  ****  Scalars and arrays  ****
OctLoc.c.b A Datatyp(siz) R M Lvl/name                 OctLoc.c.b A Datatyp(siz) R M Lvl/name

     0-0-0/w PTR               1 ERR_HEAD

  ****  Section 025 LblCom ERR_TAIL

  ****  Scalars and arrays  ****
OctLoc.c.b A Datatyp(siz) R M Lvl/name                 OctLoc.c.b A Datatyp(siz) R M Lvl/name

     0-0-0/w PTR               1 ERR_TAIL
PL6.E3A0      #009=Z9IL$UNGMAP$SI$READ File=Z9IL.:Z8A6TSI                        SAT 08/09/97 14:09 Page:384

  ****  Section 026 LblCom MAX_ERROR_GENERATED

  ****  Scalars and arrays  ****
OctLoc.c.b A Datatyp(siz) R M Lvl/name                 OctLoc.c.b A Datatyp(siz) R M Lvl/name

     0-0-0/w SBIN              1 MAX_ERROR_GENERATED

  ****  Section 027 LblCom ERR_

  ****  Scalars and arrays  ****
OctLoc.c.b A Datatyp(siz) R M Lvl/name                 OctLoc.c.b A Datatyp(siz) R M Lvl/name

     0-0-0/w STRC(180)         1 ERR_

  ****  Section 028  Data  Z9IL$UNGMAP$SI$READ

  ****  Scalars and arrays  ****
OctLoc.c.b A Datatyp(siz) R M Lvl/name                 OctLoc.c.b A Datatyp(siz) R M Lvl/name

     0-0-0/b BIT         r     1 EOF_FOUND

  ****  Auto variables  ****

  ****  Scalars and arrays  ****
OctLoc.c.b A Datatyp(siz) R M Lvl/name                 OctLoc.c.b A Datatyp(siz) R M Lvl/name

     3-0-0/w PTR         r     1 @SOURCE$LINE$NUMBER        4-0-0/w PTR         r     1 @SOURCE$TEXT
    *0-0-0/w UBIN        r     1 SOURCE$LINE$NUMBER        *0-0-0/c CHAR(133)   r     1 SOURCE$TEXT
    *0-0-0/c STRC(1197)  r     1 ST_REDEF

  ****  SYMREF variables  ****

  ****  Scalars and arrays  ****
OctLoc.c.b A Datatyp(siz) R M Lvl/name                 OctLoc.c.b A Datatyp(siz) R M Lvl/name

     0-0-0/c CHAR              1 BLANK                      0-0-0/d STRC(13248)       1 COMCOM
PL6.E3A0      #009=Z9IL$UNGMAP$SI$READ File=Z9IL.:Z8A6TSI                        SAT 08/09/97 14:09 Page:385
     0-0-0/c STRC(297)         1 DEF_LISTING_SUB_HEADING
     0-0-0/w PTR               1 PLINE_PTR$

  ****  BASED and DCB variables  ****

  ****  Scalars and arrays  ****
OctLoc.c.b A Datatyp(siz) R M Lvl/name                 OctLoc.c.b A Datatyp(siz) R M Lvl/name

     0-0-0/w ASTR(54)    r     1 BERR                       0-0-0/c ACHR              1 BUFFER_LINE
     0-0-0/w CHAR(4096)        1 CHARS                      0-0-0/w STRC(72)    r     1 CONT
     0-0-0/w STRC(540)   r     1 ERR                        0-0-0/w ASTR(396)   r     1 EXP_SRC_BUFF
     0-0-0/w ASTR(396)   r     1 FILL_BUFFER                0-0-0/c ACHR              1 LISTING_SUB_HEADING
     0-0-0/c ACHR              1 LISTING_SUB_HEADING1       0-0-0/c ACHR              1 LISTING_SUB_HEADING2
     0-0-0/w STRC(36864)       1 PAGE


   Procedure Z9IL$UNGMAP$SI$READ requires 105 words for executable code.
   Procedure Z9IL$UNGMAP$SI$READ requires 8 words of local(AUTO) storage.

PL6.E3A0      #010=Z9IL$BUFFER_ERROR File=Z9IL.:Z8A6TSI                          SAT 08/09/97 14:09 Page:386
     2304        1        /*T***********************************************************/
     2305        2        /*T*                                                         */
     2306        3        /*T* Copyright (c) Bull HN Information Systems Inc., 1997    */
     2307        4        /*T*                                                         */
     2308        5        /*T***********************************************************/
     2309        6        Z9IL$BUFFER_ERROR : PROC (LINE$, LENGTH);
     2310        7
     2311        8        /*D*
     2312        9               NAME: Z9IL$BUFFER_ERROR
     2313       10        DESCRIPTION: Z9IL$UNGMAP$SI$READ indirectly calls this routine to buffer error
     2314       11                       lines.  Each time it is called the line is entered into an error
     2315       12                       table where it is saved until reproecessed by Z9IL$UNGMAP$SI$READ.
     2316       13        */
     2317       14
     2318       15    1   DCL LINE$ PTR;
     2319       16    1   DCL LENGTH SBIN WORD;
     2320       17
     2321       18        %EQU PHASE = 5;
     2322       19        %INCLUDE Z8A_DEFC;
     2323       87        %INCLUDE Z8A_SUPP_MAC;
     2324     2487        %INCLUDE Z8A_COMCOM;
     2325     3137        %INCLUDE Z9I_PREPROC;
     2326     3157        %INCLUDE Z8I_LISTING;
     2327     3245        %INCLUDE Z8I_ERR_BUF;
     2328     3309
     2329     3310    1   DCL Z8IL$HANDLE_OVERFLOW_LINE ENTRY(3);
     2330     3311    1   DCL ERRTXT CHAR(LENGTH) BASED(LINE$);
     2331     3312
     2332     3313
     2333     3314    1     IF LENGTH > %MAX_LISTING_LINE_LENGTH THEN
     2334     3315    1       CALL Z8IL$HANDLE_OVERFLOW_LINE( LINE$, LENGTH, ENTADDR(Z9IL$BUFFER_ERROR));
     2335     3316    1     ELSE
     2336     3317    2       DO;
     2337     3318              %RESERVE_BERR(SIZE=LENGTH);
     2338     3330    2         BERR$ -> BERR.TEXT.BODY = ERRTXT;
     2339     3331    2       END;
     2340     3332
PL6.E3A0      #010=Z9IL$BUFFER_ERROR File=Z9IL.:Z8A6TSI                          SAT 08/09/97 14:09 Page:387
     2341     3333    1   END Z9IL$BUFFER_ERROR;
     2342     3334        %EOD;

PL6.E3A0      #010=Z9IL$BUFFER_ERROR File=Z9IL.:Z8A6TSI                          SAT 08/09/97 14:09 Page:388
--  Include file information  --

   Z8I_ERR_BUF.:Z8A6TOU  cannot be made into a system file and is referenced.
   Z8I_LISTING.:Z8A6TOU  cannot be made into a system file and is referenced.
   Z9I_PREPROC.:Z8A6TOU  is referenced.
   Z8A_COMCOM.:Z8A6TOU  cannot be made into a system file and is referenced.
   X8A_COM_MACS.:X8A6TOU  is referenced.
   Z8A_NAMES.:Z8A6TOU  is referenced.
   Z8A_SUPP_MAC.:Z8A6TOU  is referenced.
   Z8A_DEFC.:Z8A6TOU  cannot be made into a system file and is referenced.
      No diagnostics issued in procedure Z9IL$BUFFER_ERROR.

   Procedure Z9IL$BUFFER_ERROR requires 59 words for executable code.
   Procedure Z9IL$BUFFER_ERROR requires 10 words of local(AUTO) storage.

PL6.E3A0      #010=Z9IL$BUFFER_ERROR File=Z9IL.:Z8A6TSI                          SAT 08/09/97 14:09 Page:389

 Object Unit name= Z9IL$BUFFER_ERROR                          File name= Z9IL.:Z8A6TOU
 UTS= AUG 09 '97 14:09:17.92 SAT                              Compiler= PL-6/E31         Sev=      00
 SharedLib= :SHARED_SYSTEM                                    Alt SharedLib=


    ****  Control sections  ****

 Sect   Type Bound  Init  Size OctSiz  Section name(segment info)
    0  LblCom even  none     1      1  ITERATION
    1  LblCom even  none     1      1  SUB_HEADING_ADDR
    2  LblCom even  none     1      1  SUB_HEADING_LEN
    3  LblCom even  none     1      1  SUB_HEADING_ADDR1
    4  LblCom even  none     1      1  SUB_HEADING_LEN1
    5  LblCom even  none     1      1  SUB_HEADING_ADDR2
    6  LblCom even  none     1      1  SUB_HEADING_LEN2
    7  LblCom even  none     1      1  MAX_LINES_PER_PAGE
    8  LblCom even  none     1      1  LISTING_LINES_ON_PAGE
    9  LblCom even  none     1      1  LISTING_PAGE_NUMBER
   10  LblCom even  none    28     34  PLINE
   11  LblCom even  none     1      1  PLINE_LEN
   12  LblCom even  none     1      1  BERR$
   13  LblCom even  none     5      5  BERR_
   14   Proc  even  none    59     73  Z9IL$BUFFER_ERROR
   15  RoData even  none     3      3  Z9IL$BUFFER_ERROR

    ****  Entry defs  ****

                              Check   Calling
                             calling  sequence
  Sect OctLoc Primary Altret sequence   type   Parms  Name
    14      0   yes            yes      Std        2  Z9IL$BUFFER_ERROR
PL6.E3A0      #010=Z9IL$BUFFER_ERROR File=Z9IL.:Z8A6TSI                          SAT 08/09/97 14:09 Page:390

  ****  Entry refs  ****

         Check        Calling
        calling       sequence
Altret sequence SRef   type   Args  Name
         yes           Std       3 Z8IL$HANDLE_OVERFLOW_LINE
         yes           Std       1 Z8AR$RESERVER
         yes           Std       2 Z9IL$BUFFER_ERROR
                       nStd      0 X66_AUTO_2
                       nStd      0 X66_ARET

  ****  Data refs  ****

  Flags:  r = read only, s = secondary
Flgs Name                             Flgs Name                             Flgs Name
     COMCOM                           r    DEF_LISTING_SUB_HEADING          r    BLANK
r    PLINE_PTR$

  ****  Segment refs  ****

  Flags:  r = read only, s = secondary
Flgs Name                             Flgs Name                             Flgs Name
     NULLSID                               ISSID
PL6.E3A0      #010=Z9IL$BUFFER_ERROR File=Z9IL.:Z8A6TSI                          SAT 08/09/97 14:09 Page:391


     2304        1        /*T***********************************************************/
     2305        2        /*T*                                                         */
     2306        3        /*T* Copyright (c) Bull HN Information Systems Inc., 1997    */
     2307        4        /*T*                                                         */
     2308        5        /*T***********************************************************/
     2309        6        Z9IL$BUFFER_ERROR : PROC (LINE$, LENGTH);

      6 14 000000   000000 700200 xent  Z9IL$BUFFER* TSX0  ! X66_AUTO_2
        14 000001   000012 000002                    ZERO    10,2

     2310        7
     2311        8        /*D*
     2312        9               NAME: Z9IL$BUFFER_ERROR
     2313       10        DESCRIPTION: Z9IL$UNGMAP$SI$READ indirectly calls this routine to buffer error
     2314       11                       lines.  Each time it is called the line is entered into an error
     2315       12                       table where it is saved until reproecessed by Z9IL$UNGMAP$SI$READ.
     2316       13        */
     2317       14
     2318       15    1   DCL LINE$ PTR;
     2319       16    1   DCL LENGTH SBIN WORD;
     2320       17
     2321       18        %EQU PHASE = 5;
     2322       19        %INCLUDE Z8A_DEFC;
     2323       87        %INCLUDE Z8A_SUPP_MAC;
     2324     2487        %INCLUDE Z8A_COMCOM;
     2325     3137        %INCLUDE Z9I_PREPROC;
     2326     3157        %INCLUDE Z8I_LISTING;
     2327     3245        %INCLUDE Z8I_ERR_BUF;
     2328     3309
     2329     3310    1   DCL Z8IL$HANDLE_OVERFLOW_LINE ENTRY(3);
     2330     3311    1   DCL ERRTXT CHAR(LENGTH) BASED(LINE$);
     2331     3312
     2332     3313
     2333     3314    1     IF LENGTH > %MAX_LISTING_LINE_LENGTH THEN

   3314 14 000002   200004 470500                    LDP0    @LENGTH,,AUTO
PL6.E3A0      #010=Z9IL$BUFFER_ERROR File=Z9IL.:Z8A6TSI                          SAT 08/09/97 14:09 Page:392
        14 000003   000000 235100                    LDA     0,,PR0
        14 000004   000155 115007                    CMPA    109,DL
        14 000005   000023 604400 14                 TMOZ    s:3320

     2334     3315    1       CALL Z8IL$HANDLE_OVERFLOW_LINE( LINE$, LENGTH, ENTADDR(Z9IL$BUFFER_ERROR));

   3315 14 000006   000000 636000 14                 EAQ     s:6
        14 000007   200006 756100                    STQ     @LENGTH+2,,AUTO
        14 000010   200006 631500                    EPPR1   @LENGTH+2,,AUTO
        14 000011   200011 451500                    STP1    @LENGTH+5,,AUTO
        14 000012   200004 236100                    LDQ     @LENGTH,,AUTO
        14 000013   200010 756100                    STQ     @LENGTH+4,,AUTO
        14 000014   200003 236100                    LDQ     @LINE$,,AUTO
        14 000015   200007 756100                    STQ     @LENGTH+3,,AUTO
        14 000016   200007 630500                    EPPR0   @LENGTH+3,,AUTO
        14 000017   000000 631400 15                 EPPR1   0
        14 000020   000000 701000 xent               TSX1    Z8IL$HANDLE_OVERFLOW_LINE
        14 000021   000000 011000                    NOP     0
        14 000022   000072 710000 14                 TRA     s:3333

     2335     3316    1     ELSE
     2336     3317    2       DO;

     2337     3318              %RESERVE_BERR(SIZE=LENGTH);

   3320 14 000023   000000 236100                    LDQ     0,,PR0
        14 000024   000011 036007                    ADLQ    9,DL
        14 000025   000004 506007                    DIV     4,DL
        14 000026   000000 756000 0                  STQ     ITERATION

   3321 14 000027   000002 036000 13                 ADLQ    BERR_+2
        14 000030   000043 604000 14                 TMI     s:3323
        14 000031   000003 116000 13                 CMPQ    BERR_+3
        14 000032   000043 602000 14                 TNC     s:3323

   3322 14 000033   000002 236000 15                 LDQ     2
        14 000034   200006 756100                    STQ     @LENGTH+2,,AUTO
PL6.E3A0      #010=Z9IL$BUFFER_ERROR File=Z9IL.:Z8A6TSI                          SAT 08/09/97 14:09 Page:393
        14 000035   200006 631500                    EPPR1   @LENGTH+2,,AUTO
        14 000036   200007 451500                    STP1    @LENGTH+3,,AUTO
        14 000037   200007 630500                    EPPR0   @LENGTH+3,,AUTO
        14 000040   000001 631400 15                 EPPR1   1
        14 000041   000000 701000 xent               TSX1    Z8AR$RESERVER
        14 000042   000000 011000                    NOP     0

   3323 14 000043   000002 236000 13                 LDQ     BERR_+2
        14 000044   000022 736000                    QLS     18
        14 000045   000001 036000 13                 ADLQ    BERR_+1
        14 000046   000000 756000 12                 STQ     BERR$

   3324 14 000047   000002 236000 13                 LDQ     BERR_+2
        14 000050   000000 036000 0                  ADLQ    ITERATION
        14 000051   000002 756000 13                 STQ     BERR_+2

   3325 14 000052   000001 220003                    LDX0    1,DU
        14 000053   000000 470400 12                 LDP0    BERR$
        14 000054   000000 740100                    STX0    0,,PR0

   3326 14 000055   000000 721000 0                  LXL1    ITERATION
        14 000056   000000 470400 12                 LDP0    BERR$
        14 000057   000000 441100                    SXL1    0,,PR0

   3327 14 000060   200004 470500                    LDP0    @LENGTH,,AUTO
        14 000061   000000 721100                    LXL1    0,,PR0
        14 000062   000000 471400 12                 LDP1    BERR$
        14 000063   100001 741100                    STX1    1,,PR1

     2338     3330    2         BERR$ -> BERR.TEXT.BODY = ERRTXT;

   3330 14 000064   200003 473500                    LDP3    @LINE$,,AUTO
        14 000065   300000 474500                    LDP4    0,,PR3
        14 000066   000000 722100                    LXL2    0,,PR0
        14 000067   040140 100540                    MLR     fill='040'O
        14 000070   400000 000012                    ADSC9   0,,PR4                   cn=0,n=*X2
        14 000071   100001 400011                    ADSC9   1,,PR1                   cn=2,n=*X1
PL6.E3A0      #010=Z9IL$BUFFER_ERROR File=Z9IL.:Z8A6TSI                          SAT 08/09/97 14:09 Page:394

     2339     3331    2       END;

     2340     3332
     2341     3333    1   END Z9IL$BUFFER_ERROR;

   3333 14 000072   000000 702200 xent               TSX2  ! X66_ARET
     2342     3334        %EOD;

PL6.E3A0      #010=Z9IL$BUFFER_ERROR File=Z9IL.:Z8A6TSI                          SAT 08/09/97 14:09 Page:395
--  Include file information  --

   Z8I_ERR_BUF.:Z8A6TOU  cannot be made into a system file and is referenced.
   Z8I_LISTING.:Z8A6TOU  cannot be made into a system file and is referenced.
   Z9I_PREPROC.:Z8A6TOU  is referenced.
   Z8A_COMCOM.:Z8A6TOU  cannot be made into a system file and is referenced.
   X8A_COM_MACS.:X8A6TOU  is referenced.
   Z8A_NAMES.:Z8A6TOU  is referenced.
   Z8A_SUPP_MAC.:Z8A6TOU  is referenced.
   Z8A_DEFC.:Z8A6TOU  cannot be made into a system file and is referenced.
      No diagnostics issued in procedure Z9IL$BUFFER_ERROR.
PL6.E3A0      #010=Z9IL$BUFFER_ERROR File=Z9IL.:Z8A6TSI                          SAT 08/09/97 14:09 Page:396

 **** Variables and constants ****

  ****  Section 000 LblCom ITERATION

  ****  Scalars and arrays  ****
OctLoc.c.b A Datatyp(siz) R M Lvl/name                 OctLoc.c.b A Datatyp(siz) R M Lvl/name

     0-0-0/w SBIN        r     1 ITERATION

  ****  Section 001 LblCom SUB_HEADING_ADDR

  ****  Scalars and arrays  ****
OctLoc.c.b A Datatyp(siz) R M Lvl/name                 OctLoc.c.b A Datatyp(siz) R M Lvl/name

     0-0-0/w PTR         r     1 SUB_HEADING_ADDR

  ****  Section 002 LblCom SUB_HEADING_LEN

  ****  Scalars and arrays  ****
OctLoc.c.b A Datatyp(siz) R M Lvl/name                 OctLoc.c.b A Datatyp(siz) R M Lvl/name

     0-0-0/w SBIN        r     1 SUB_HEADING_LEN

  ****  Section 003 LblCom SUB_HEADING_ADDR1

  ****  Scalars and arrays  ****
OctLoc.c.b A Datatyp(siz) R M Lvl/name                 OctLoc.c.b A Datatyp(siz) R M Lvl/name

     0-0-0/w PTR         r     1 SUB_HEADING_ADDR1

  ****  Section 004 LblCom SUB_HEADING_LEN1

  ****  Scalars and arrays  ****
OctLoc.c.b A Datatyp(siz) R M Lvl/name                 OctLoc.c.b A Datatyp(siz) R M Lvl/name

     0-0-0/w SBIN        r     1 SUB_HEADING_LEN1

PL6.E3A0      #010=Z9IL$BUFFER_ERROR File=Z9IL.:Z8A6TSI                          SAT 08/09/97 14:09 Page:397
  ****  Section 005 LblCom SUB_HEADING_ADDR2

  ****  Scalars and arrays  ****
OctLoc.c.b A Datatyp(siz) R M Lvl/name                 OctLoc.c.b A Datatyp(siz) R M Lvl/name

     0-0-0/w PTR         r     1 SUB_HEADING_ADDR2

  ****  Section 006 LblCom SUB_HEADING_LEN2

  ****  Scalars and arrays  ****
OctLoc.c.b A Datatyp(siz) R M Lvl/name                 OctLoc.c.b A Datatyp(siz) R M Lvl/name

     0-0-0/w SBIN        r     1 SUB_HEADING_LEN2

  ****  Section 007 LblCom MAX_LINES_PER_PAGE

  ****  Scalars and arrays  ****
OctLoc.c.b A Datatyp(siz) R M Lvl/name                 OctLoc.c.b A Datatyp(siz) R M Lvl/name

     0-0-0/w SBIN              1 MAX_LINES_PER_PAGE

  ****  Section 008 LblCom LISTING_LINES_ON_PAGE

  ****  Scalars and arrays  ****
OctLoc.c.b A Datatyp(siz) R M Lvl/name                 OctLoc.c.b A Datatyp(siz) R M Lvl/name

     0-0-0/w SBIN              1 LISTING_LINES_ON_PAGE

  ****  Section 009 LblCom LISTING_PAGE_NUMBER

  ****  Scalars and arrays  ****
OctLoc.c.b A Datatyp(siz) R M Lvl/name                 OctLoc.c.b A Datatyp(siz) R M Lvl/name

     0-0-0/w SBIN              1 LISTING_PAGE_NUMBER

  ****  Section 010 LblCom PLINE

PL6.E3A0      #010=Z9IL$BUFFER_ERROR File=Z9IL.:Z8A6TSI                          SAT 08/09/97 14:09 Page:398
  ****  Scalars and arrays  ****
OctLoc.c.b A Datatyp(siz) R M Lvl/name                 OctLoc.c.b A Datatyp(siz) R M Lvl/name

     0-0-0/c CHAR(109)         1 PLINE
     0-0-0/c CHAR              1 PLINE_CHAR(0:108)
     0-0-0/c STRC(981)         1 PLINE_REDEF_FIELDS

  ****  Section 011 LblCom PLINE_LEN

  ****  Scalars and arrays  ****
OctLoc.c.b A Datatyp(siz) R M Lvl/name                 OctLoc.c.b A Datatyp(siz) R M Lvl/name

     0-0-0/w SBIN              1 PLINE_LEN

  ****  Section 012 LblCom BERR$

  ****  Scalars and arrays  ****
OctLoc.c.b A Datatyp(siz) R M Lvl/name                 OctLoc.c.b A Datatyp(siz) R M Lvl/name

     0-0-0/w PTR         r     1 BERR$

  ****  Section 013 LblCom BERR_

  ****  Scalars and arrays  ****
OctLoc.c.b A Datatyp(siz) R M Lvl/name                 OctLoc.c.b A Datatyp(siz) R M Lvl/name

     0-0-0/w STRC(180)   r     1 BERR_

  ****  Auto variables  ****

  ****  Scalars and arrays  ****
OctLoc.c.b A Datatyp(siz) R M Lvl/name                 OctLoc.c.b A Datatyp(siz) R M Lvl/name

     4-0-0/w PTR         r     1 @LENGTH                    3-0-0/w PTR         r     1 @LINE$
    *0-0-0/w SBIN        r     1 LENGTH                    *0-0-0/w PTR         r     1 LINE$

  ****  SYMREF variables  ****
PL6.E3A0      #010=Z9IL$BUFFER_ERROR File=Z9IL.:Z8A6TSI                          SAT 08/09/97 14:09 Page:399

  ****  Scalars and arrays  ****
OctLoc.c.b A Datatyp(siz) R M Lvl/name                 OctLoc.c.b A Datatyp(siz) R M Lvl/name

     0-0-0/c CHAR              1 BLANK                      0-0-0/d STRC(13248)       1 COMCOM
     0-0-0/c STRC(297)         1 DEF_LISTING_SUB_HEADING
     0-0-0/w PTR               1 PLINE_PTR$

  ****  BASED and DCB variables  ****

  ****  Scalars and arrays  ****
OctLoc.c.b A Datatyp(siz) R M Lvl/name                 OctLoc.c.b A Datatyp(siz) R M Lvl/name

     0-0-0/w ASTR(54)    r     1 BERR                       0-0-0/w CHAR(4096)        1 CHARS
     0-0-0/w STRC(72)          1 CONT                       0-0-0/c ACHR        r     1 ERRTXT
     0-0-0/c ACHR              1 LISTING_SUB_HEADING        0-0-0/c ACHR              1 LISTING_SUB_HEADING1
     0-0-0/c ACHR              1 LISTING_SUB_HEADING2       0-0-0/w STRC(36864)       1 PAGE


   Procedure Z9IL$BUFFER_ERROR requires 59 words for executable code.
   Procedure Z9IL$BUFFER_ERROR requires 10 words of local(AUTO) storage.

PL6.E3A0      #011=ZPC$DISPPROC_16 File=Z9IL.:Z8A6TSI                            SAT 08/09/97 14:09 Page:400
     2343        1        /*T***********************************************************/
     2344        2        /*T*                                                         */
     2345        3        /*T* Copyright (c) Bull HN Information Systems Inc., 1997    */
     2346        4        /*T*                                                         */
     2347        5        /*T***********************************************************/
     2348        6        ZPC$DISPPROC_16 : PROC;
     2349        7
     2350        8        /*D*
     2351        9               NAME: ZPC$DISPPROC_16
     2352       10        DESCRIPTION: This is a dummy procedure to get rid of a link
     2353       11                      error generated by UNGMAP.
     2354       12        */
     2355       13
     2356       14    1   RETURN;
     2357       15    1   END ZPC$DISPPROC_16;

PL6.E3A0      #011=ZPC$DISPPROC_16 File=Z9IL.:Z8A6TSI                            SAT 08/09/97 14:09 Page:401
      No diagnostics issued in procedure ZPC$DISPPROC_16.

   Procedure ZPC$DISPPROC_16 requires 3 words for executable code.
   Procedure ZPC$DISPPROC_16 requires 4 words of local(AUTO) storage.

    No errors detected in file Z9IL.:Z8A6TSI    .

PL6.E3A0      #011=ZPC$DISPPROC_16 File=Z9IL.:Z8A6TSI                            SAT 08/09/97 14:09 Page:402

 Object Unit name= ZPC$DISPPROC_16                            File name= Z9IL.:Z8A6TOU
 UTS= AUG 09 '97 14:09:29.60 SAT                              Compiler= PL-6/E31         Sev=      00
 SharedLib= :SHARED_SYSTEM                                    Alt SharedLib=


    ****  Control sections  ****

 Sect   Type Bound  Init  Size OctSiz  Section name(segment info)
    0   Proc  even  none     3      3  ZPC$DISPPROC_16

    ****  Entry defs  ****

                              Check   Calling
                             calling  sequence
  Sect OctLoc Primary Altret sequence   type   Parms  Name
     0      0   yes            yes      Std        0  ZPC$DISPPROC_16

  ****  Entry refs  ****

         Check        Calling
        calling       sequence
Altret sequence SRef   type   Args  Name
                       nStd      0 X66_AUTO_0
                       nStd      0 X66_ARET
PL6.E3A0      #011=ZPC$DISPPROC_16 File=Z9IL.:Z8A6TSI                            SAT 08/09/97 14:09 Page:403


     2343        1        /*T***********************************************************/
     2344        2        /*T*                                                         */
     2345        3        /*T* Copyright (c) Bull HN Information Systems Inc., 1997    */
     2346        4        /*T*                                                         */
     2347        5        /*T***********************************************************/
     2348        6        ZPC$DISPPROC_16 : PROC;

      6  0 000000   000000 700200 xent  ZPC$DISPPRO* TSX0  ! X66_AUTO_0
         0 000001   000004 000000                    ZERO    4,0

     2349        7
     2350        8        /*D*
     2351        9               NAME: ZPC$DISPPROC_16
     2352       10        DESCRIPTION: This is a dummy procedure to get rid of a link
     2353       11                      error generated by UNGMAP.
     2354       12        */
     2355       13
     2356       14    1   RETURN;

     14  0 000002   000000 702200 xent               TSX2  ! X66_ARET
     2357       15    1   END ZPC$DISPPROC_16;

PL6.E3A0      #011=ZPC$DISPPROC_16 File=Z9IL.:Z8A6TSI                            SAT 08/09/97 14:09 Page:404
      No diagnostics issued in procedure ZPC$DISPPROC_16.
PL6.E3A0      #011=ZPC$DISPPROC_16 File=Z9IL.:Z8A6TSI                            SAT 08/09/97 14:09 Page:405

 **** Variables and constants ****


   Procedure ZPC$DISPPROC_16 requires 3 words for executable code.
   Procedure ZPC$DISPPROC_16 requires 4 words of local(AUTO) storage.

    No errors detected in file Z9IL.:Z8A6TSI    .
